{
  "contractName": "ReentrancyAttackerMock",
  "sourceName": "contracts/mocks/ReentrancyAttackerMock.sol",
  "abi": [
    {
      "stateMutability": "payable",
      "type": "fallback"
    },
    {
      "inputs": [
        {
          "internalType": "address",
          "name": "dest_",
          "type": "address"
        },
        {
          "internalType": "bytes",
          "name": "data_",
          "type": "bytes"
        },
        {
          "internalType": "bool",
          "name": "isPayableFunction_",
          "type": "bool"
        }
      ],
      "name": "forward",
      "outputs": [
        {
          "internalType": "bytes",
          "name": "",
          "type": "bytes"
        }
      ],
      "stateMutability": "payable",
      "type": "function"
    }
  ],
  "bytecode": "0x60808060405234610016576105d4908161001c8239f35b600080fdfe60806040526004361015610018575b610016610483565b005b6000803560e01c634ffd09fb1461002f575061000e565b60603660031901126100db576004356001600160a01b03811681036100d75760243567ffffffffffffffff81116100d357366023820112156100d357806004013561007981610124565b9161008760405193846100f5565b81835236602483830101116100cf57936020826100bf95949360246100cb980183860137830101526100b9604461014f565b916103eb565b60405191829182610161565b0390f35b8480fd5b8280fd5b5080fd5b80fd5b50634e487b7160e01b600052604160045260246000fd5b90601f8019910116810190811067ffffffffffffffff82111761011757604052565b61011f6100de565b604052565b60209067ffffffffffffffff8111610142575b601f01601f19160190565b61014a6100de565b610137565b3590811515820361015c57565b600080fd5b6020808252825181830181905290939260005b82811061019657505060409293506000838284010152601f8019910116010190565b818101860151848201604001528501610174565b90600182811c921680156101da575b60208310146101c457565b634e487b7160e01b600052602260045260246000fd5b91607f16916101b9565b90601f81116101f257505050565b600091825260208220906020601f850160051c8301941061022e575b601f0160051c01915b82811061022357505050565b818155600101610217565b909250829061020e565b919091825167ffffffffffffffff8111610308575b6102618161025b84546101aa565b846101e4565b602080601f831160011461029d575081929394600092610292575b50508160011b916000199060031b1c1916179055565b01519050388061027c565b90601f198316956102b385600052602060002090565b926000905b8882106102f0575050836001959697106102d7575b505050811b019055565b015160001960f88460031b161c191690553880806102cd565b806001859682949686015181550195019301906102b8565b6103106100de565b61024d565b3d15610340573d9061032682610124565b9161033460405193846100f5565b82523d6000602084013e565b606090565b9060405191826000825492610359846101aa565b9081845260019485811690816000146103c85750600114610385575b5050610383925003836100f5565b565b9093915060005260209081600020936000915b8183106103b057505061038393508201013880610375565b85548884018501529485019487945091830191610398565b91505061038394506020925060ff191682840152151560051b8201013880610375565b6004805493151560ff1660ff199490941693909317909255600080546001600160a01b0319166001600160a01b0384161781559182919061042d826001610238565b60045460ff161561046b576020825192019034905af15061044c610315565b60025460ff16610468576104606003610345565b805190602001fd5b90565b82602083519301915af15061047e610315565b61044c565b60018060ff1960025416176002556104b560018060a01b036000541660ff60045416906104af84610345565b906103eb565b90815167ffffffffffffffff8111610591575b6003926104df826104d986546101aa565b866101e4565b60209081601f8411600114610525575092829391839260009461051a575b50501b9160001990841b1c19161790555b6002805460ff19169055565b0151925038806104fd565b919083601f19811661053c88600052602060002090565b946000905b88838310610577575050501061055f575b505050811b01905561050e565b015160001983861b60f8161c19169055388080610552565b858701518855909601959485019487935090810190610541565b6105996100de565b6104c856fea264697066735822122027f18d1b63001c8bf659c117f9f6bb484a7cd0bfc07650bdefed66e9d10d315864736f6c63430008100033",
  "linkReferences": {},
  "deployedLinkReferences": {},
  "devdoc": {
    "kind": "dev",
    "methods": {},
    "version": 1
  },
  "evm": {
    "bytecode": {
      "linkReferences": {},
      "opcodes": "PUSH1 0x80 DUP1 PUSH1 0x40 MSTORE CALLVALUE PUSH2 0x16 JUMPI PUSH2 0x5D4 SWAP1 DUP2 PUSH2 0x1C DUP3 CODECOPY RETURN JUMPDEST PUSH1 0x0 DUP1 REVERT INVALID PUSH1 0x80 PUSH1 0x40 MSTORE PUSH1 0x4 CALLDATASIZE LT ISZERO PUSH2 0x18 JUMPI JUMPDEST PUSH2 0x16 PUSH2 0x483 JUMP JUMPDEST STOP JUMPDEST PUSH1 0x0 DUP1 CALLDATALOAD PUSH1 0xE0 SHR PUSH4 0x4FFD09FB EQ PUSH2 0x2F JUMPI POP PUSH2 0xE JUMP JUMPDEST PUSH1 0x60 CALLDATASIZE PUSH1 0x3 NOT ADD SLT PUSH2 0xDB JUMPI PUSH1 0x4 CALLDATALOAD PUSH1 0x1 PUSH1 0x1 PUSH1 0xA0 SHL SUB DUP2 AND DUP2 SUB PUSH2 0xD7 JUMPI PUSH1 0x24 CALLDATALOAD PUSH8 0xFFFFFFFFFFFFFFFF DUP2 GT PUSH2 0xD3 JUMPI CALLDATASIZE PUSH1 0x23 DUP3 ADD SLT ISZERO PUSH2 0xD3 JUMPI DUP1 PUSH1 0x4 ADD CALLDATALOAD PUSH2 0x79 DUP2 PUSH2 0x124 JUMP JUMPDEST SWAP2 PUSH2 0x87 PUSH1 0x40 MLOAD SWAP4 DUP5 PUSH2 0xF5 JUMP JUMPDEST DUP2 DUP4 MSTORE CALLDATASIZE PUSH1 0x24 DUP4 DUP4 ADD ADD GT PUSH2 0xCF JUMPI SWAP4 PUSH1 0x20 DUP3 PUSH2 0xBF SWAP6 SWAP5 SWAP4 PUSH1 0x24 PUSH2 0xCB SWAP9 ADD DUP4 DUP7 ADD CALLDATACOPY DUP4 ADD ADD MSTORE PUSH2 0xB9 PUSH1 0x44 PUSH2 0x14F JUMP JUMPDEST SWAP2 PUSH2 0x3EB JUMP JUMPDEST PUSH1 0x40 MLOAD SWAP2 DUP3 SWAP2 DUP3 PUSH2 0x161 JUMP JUMPDEST SUB SWAP1 RETURN JUMPDEST DUP5 DUP1 REVERT JUMPDEST DUP3 DUP1 REVERT JUMPDEST POP DUP1 REVERT JUMPDEST DUP1 REVERT JUMPDEST POP PUSH4 0x4E487B71 PUSH1 0xE0 SHL PUSH1 0x0 MSTORE PUSH1 0x41 PUSH1 0x4 MSTORE PUSH1 0x24 PUSH1 0x0 REVERT JUMPDEST SWAP1 PUSH1 0x1F DUP1 NOT SWAP2 ADD AND DUP2 ADD SWAP1 DUP2 LT PUSH8 0xFFFFFFFFFFFFFFFF DUP3 GT OR PUSH2 0x117 JUMPI PUSH1 0x40 MSTORE JUMP JUMPDEST PUSH2 0x11F PUSH2 0xDE JUMP JUMPDEST PUSH1 0x40 MSTORE JUMP JUMPDEST PUSH1 0x20 SWAP1 PUSH8 0xFFFFFFFFFFFFFFFF DUP2 GT PUSH2 0x142 JUMPI JUMPDEST PUSH1 0x1F ADD PUSH1 0x1F NOT AND ADD SWAP1 JUMP JUMPDEST PUSH2 0x14A PUSH2 0xDE JUMP JUMPDEST PUSH2 0x137 JUMP JUMPDEST CALLDATALOAD SWAP1 DUP2 ISZERO ISZERO DUP3 SUB PUSH2 0x15C JUMPI JUMP JUMPDEST PUSH1 0x0 DUP1 REVERT JUMPDEST PUSH1 0x20 DUP1 DUP3 MSTORE DUP3 MLOAD DUP2 DUP4 ADD DUP2 SWAP1 MSTORE SWAP1 SWAP4 SWAP3 PUSH1 0x0 JUMPDEST DUP3 DUP2 LT PUSH2 0x196 JUMPI POP POP PUSH1 0x40 SWAP3 SWAP4 POP PUSH1 0x0 DUP4 DUP3 DUP5 ADD ADD MSTORE PUSH1 0x1F DUP1 NOT SWAP2 ADD AND ADD ADD SWAP1 JUMP JUMPDEST DUP2 DUP2 ADD DUP7 ADD MLOAD DUP5 DUP3 ADD PUSH1 0x40 ADD MSTORE DUP6 ADD PUSH2 0x174 JUMP JUMPDEST SWAP1 PUSH1 0x1 DUP3 DUP2 SHR SWAP3 AND DUP1 ISZERO PUSH2 0x1DA JUMPI JUMPDEST PUSH1 0x20 DUP4 LT EQ PUSH2 0x1C4 JUMPI JUMP JUMPDEST PUSH4 0x4E487B71 PUSH1 0xE0 SHL PUSH1 0x0 MSTORE PUSH1 0x22 PUSH1 0x4 MSTORE PUSH1 0x24 PUSH1 0x0 REVERT JUMPDEST SWAP2 PUSH1 0x7F AND SWAP2 PUSH2 0x1B9 JUMP JUMPDEST SWAP1 PUSH1 0x1F DUP2 GT PUSH2 0x1F2 JUMPI POP POP POP JUMP JUMPDEST PUSH1 0x0 SWAP2 DUP3 MSTORE PUSH1 0x20 DUP3 KECCAK256 SWAP1 PUSH1 0x20 PUSH1 0x1F DUP6 ADD PUSH1 0x5 SHR DUP4 ADD SWAP5 LT PUSH2 0x22E JUMPI JUMPDEST PUSH1 0x1F ADD PUSH1 0x5 SHR ADD SWAP2 JUMPDEST DUP3 DUP2 LT PUSH2 0x223 JUMPI POP POP POP JUMP JUMPDEST DUP2 DUP2 SSTORE PUSH1 0x1 ADD PUSH2 0x217 JUMP JUMPDEST SWAP1 SWAP3 POP DUP3 SWAP1 PUSH2 0x20E JUMP JUMPDEST SWAP2 SWAP1 SWAP2 DUP3 MLOAD PUSH8 0xFFFFFFFFFFFFFFFF DUP2 GT PUSH2 0x308 JUMPI JUMPDEST PUSH2 0x261 DUP2 PUSH2 0x25B DUP5 SLOAD PUSH2 0x1AA JUMP JUMPDEST DUP5 PUSH2 0x1E4 JUMP JUMPDEST PUSH1 0x20 DUP1 PUSH1 0x1F DUP4 GT PUSH1 0x1 EQ PUSH2 0x29D JUMPI POP DUP2 SWAP3 SWAP4 SWAP5 PUSH1 0x0 SWAP3 PUSH2 0x292 JUMPI JUMPDEST POP POP DUP2 PUSH1 0x1 SHL SWAP2 PUSH1 0x0 NOT SWAP1 PUSH1 0x3 SHL SHR NOT AND OR SWAP1 SSTORE JUMP JUMPDEST ADD MLOAD SWAP1 POP CODESIZE DUP1 PUSH2 0x27C JUMP JUMPDEST SWAP1 PUSH1 0x1F NOT DUP4 AND SWAP6 PUSH2 0x2B3 DUP6 PUSH1 0x0 MSTORE PUSH1 0x20 PUSH1 0x0 KECCAK256 SWAP1 JUMP JUMPDEST SWAP3 PUSH1 0x0 SWAP1 JUMPDEST DUP9 DUP3 LT PUSH2 0x2F0 JUMPI POP POP DUP4 PUSH1 0x1 SWAP6 SWAP7 SWAP8 LT PUSH2 0x2D7 JUMPI JUMPDEST POP POP POP DUP2 SHL ADD SWAP1 SSTORE JUMP JUMPDEST ADD MLOAD PUSH1 0x0 NOT PUSH1 0xF8 DUP5 PUSH1 0x3 SHL AND SHR NOT AND SWAP1 SSTORE CODESIZE DUP1 DUP1 PUSH2 0x2CD JUMP JUMPDEST DUP1 PUSH1 0x1 DUP6 SWAP7 DUP3 SWAP5 SWAP7 DUP7 ADD MLOAD DUP2 SSTORE ADD SWAP6 ADD SWAP4 ADD SWAP1 PUSH2 0x2B8 JUMP JUMPDEST PUSH2 0x310 PUSH2 0xDE JUMP JUMPDEST PUSH2 0x24D JUMP JUMPDEST RETURNDATASIZE ISZERO PUSH2 0x340 JUMPI RETURNDATASIZE SWAP1 PUSH2 0x326 DUP3 PUSH2 0x124 JUMP JUMPDEST SWAP2 PUSH2 0x334 PUSH1 0x40 MLOAD SWAP4 DUP5 PUSH2 0xF5 JUMP JUMPDEST DUP3 MSTORE RETURNDATASIZE PUSH1 0x0 PUSH1 0x20 DUP5 ADD RETURNDATACOPY JUMP JUMPDEST PUSH1 0x60 SWAP1 JUMP JUMPDEST SWAP1 PUSH1 0x40 MLOAD SWAP2 DUP3 PUSH1 0x0 DUP3 SLOAD SWAP3 PUSH2 0x359 DUP5 PUSH2 0x1AA JUMP JUMPDEST SWAP1 DUP2 DUP5 MSTORE PUSH1 0x1 SWAP5 DUP6 DUP2 AND SWAP1 DUP2 PUSH1 0x0 EQ PUSH2 0x3C8 JUMPI POP PUSH1 0x1 EQ PUSH2 0x385 JUMPI JUMPDEST POP POP PUSH2 0x383 SWAP3 POP SUB DUP4 PUSH2 0xF5 JUMP JUMPDEST JUMP JUMPDEST SWAP1 SWAP4 SWAP2 POP PUSH1 0x0 MSTORE PUSH1 0x20 SWAP1 DUP2 PUSH1 0x0 KECCAK256 SWAP4 PUSH1 0x0 SWAP2 JUMPDEST DUP2 DUP4 LT PUSH2 0x3B0 JUMPI POP POP PUSH2 0x383 SWAP4 POP DUP3 ADD ADD CODESIZE DUP1 PUSH2 0x375 JUMP JUMPDEST DUP6 SLOAD DUP9 DUP5 ADD DUP6 ADD MSTORE SWAP5 DUP6 ADD SWAP5 DUP8 SWAP5 POP SWAP2 DUP4 ADD SWAP2 PUSH2 0x398 JUMP JUMPDEST SWAP2 POP POP PUSH2 0x383 SWAP5 POP PUSH1 0x20 SWAP3 POP PUSH1 0xFF NOT AND DUP3 DUP5 ADD MSTORE ISZERO ISZERO PUSH1 0x5 SHL DUP3 ADD ADD CODESIZE DUP1 PUSH2 0x375 JUMP JUMPDEST PUSH1 0x4 DUP1 SLOAD SWAP4 ISZERO ISZERO PUSH1 0xFF AND PUSH1 0xFF NOT SWAP5 SWAP1 SWAP5 AND SWAP4 SWAP1 SWAP4 OR SWAP1 SWAP3 SSTORE PUSH1 0x0 DUP1 SLOAD PUSH1 0x1 PUSH1 0x1 PUSH1 0xA0 SHL SUB NOT AND PUSH1 0x1 PUSH1 0x1 PUSH1 0xA0 SHL SUB DUP5 AND OR DUP2 SSTORE SWAP2 DUP3 SWAP2 SWAP1 PUSH2 0x42D DUP3 PUSH1 0x1 PUSH2 0x238 JUMP JUMPDEST PUSH1 0x4 SLOAD PUSH1 0xFF AND ISZERO PUSH2 0x46B JUMPI PUSH1 0x20 DUP3 MLOAD SWAP3 ADD SWAP1 CALLVALUE SWAP1 GAS CALL POP PUSH2 0x44C PUSH2 0x315 JUMP JUMPDEST PUSH1 0x2 SLOAD PUSH1 0xFF AND PUSH2 0x468 JUMPI PUSH2 0x460 PUSH1 0x3 PUSH2 0x345 JUMP JUMPDEST DUP1 MLOAD SWAP1 PUSH1 0x20 ADD REVERT JUMPDEST SWAP1 JUMP JUMPDEST DUP3 PUSH1 0x20 DUP4 MLOAD SWAP4 ADD SWAP2 GAS CALL POP PUSH2 0x47E PUSH2 0x315 JUMP JUMPDEST PUSH2 0x44C JUMP JUMPDEST PUSH1 0x1 DUP1 PUSH1 0xFF NOT PUSH1 0x2 SLOAD AND OR PUSH1 0x2 SSTORE PUSH2 0x4B5 PUSH1 0x1 DUP1 PUSH1 0xA0 SHL SUB PUSH1 0x0 SLOAD AND PUSH1 0xFF PUSH1 0x4 SLOAD AND SWAP1 PUSH2 0x4AF DUP5 PUSH2 0x345 JUMP JUMPDEST SWAP1 PUSH2 0x3EB JUMP JUMPDEST SWAP1 DUP2 MLOAD PUSH8 0xFFFFFFFFFFFFFFFF DUP2 GT PUSH2 0x591 JUMPI JUMPDEST PUSH1 0x3 SWAP3 PUSH2 0x4DF DUP3 PUSH2 0x4D9 DUP7 SLOAD PUSH2 0x1AA JUMP JUMPDEST DUP7 PUSH2 0x1E4 JUMP JUMPDEST PUSH1 0x20 SWAP1 DUP2 PUSH1 0x1F DUP5 GT PUSH1 0x1 EQ PUSH2 0x525 JUMPI POP SWAP3 DUP3 SWAP4 SWAP2 DUP4 SWAP3 PUSH1 0x0 SWAP5 PUSH2 0x51A JUMPI JUMPDEST POP POP SHL SWAP2 PUSH1 0x0 NOT SWAP1 DUP5 SHL SHR NOT AND OR SWAP1 SSTORE JUMPDEST PUSH1 0x2 DUP1 SLOAD PUSH1 0xFF NOT AND SWAP1 SSTORE JUMP JUMPDEST ADD MLOAD SWAP3 POP CODESIZE DUP1 PUSH2 0x4FD JUMP JUMPDEST SWAP2 SWAP1 DUP4 PUSH1 0x1F NOT DUP2 AND PUSH2 0x53C DUP9 PUSH1 0x0 MSTORE PUSH1 0x20 PUSH1 0x0 KECCAK256 SWAP1 JUMP JUMPDEST SWAP5 PUSH1 0x0 SWAP1 JUMPDEST DUP9 DUP4 DUP4 LT PUSH2 0x577 JUMPI POP POP POP LT PUSH2 0x55F JUMPI JUMPDEST POP POP POP DUP2 SHL ADD SWAP1 SSTORE PUSH2 0x50E JUMP JUMPDEST ADD MLOAD PUSH1 0x0 NOT DUP4 DUP7 SHL PUSH1 0xF8 AND SHR NOT AND SWAP1 SSTORE CODESIZE DUP1 DUP1 PUSH2 0x552 JUMP JUMPDEST DUP6 DUP8 ADD MLOAD DUP9 SSTORE SWAP1 SWAP7 ADD SWAP6 SWAP5 DUP6 ADD SWAP5 DUP8 SWAP4 POP SWAP1 DUP2 ADD SWAP1 PUSH2 0x541 JUMP JUMPDEST PUSH2 0x599 PUSH2 0xDE JUMP JUMPDEST PUSH2 0x4C8 JUMP INVALID LOG2 PUSH5 0x6970667358 0x22 SLT KECCAK256 0x27 CALL DUP14 SHL PUSH4 0x1C8BF6 MSIZE 0xC1 OR 0xF9 0xF6 0xBB BASEFEE 0x4A PUSH29 0xD0BFC07650BDEFED66E9D10D315864736F6C6343000810003300000000 "
    },
    "gasEstimates": {
      "creation": {
        "codeDepositCost": "298400",
        "executionCost": "344",
        "totalCost": "298744"
      },
      "external": {
        "": "infinite",
        "forward(address,bytes,bool)": "infinite"
      }
    },
    "methodIdentifiers": {
      "forward(address,bytes,bool)": "4ffd09fb"
    }
  },
  "storageLayout": {
    "storage": [
      {
        "astId": 24047,
        "contract": "contracts/mocks/ReentrancyAttackerMock.sol:ReentrancyAttackerMock",
        "label": "dest",
        "offset": 0,
        "slot": "0",
        "type": "t_address"
      },
      {
        "astId": 24049,
        "contract": "contracts/mocks/ReentrancyAttackerMock.sol:ReentrancyAttackerMock",
        "label": "data",
        "offset": 0,
        "slot": "1",
        "type": "t_bytes_storage"
      },
      {
        "astId": 24051,
        "contract": "contracts/mocks/ReentrancyAttackerMock.sol:ReentrancyAttackerMock",
        "label": "entered",
        "offset": 0,
        "slot": "2",
        "type": "t_bool"
      },
      {
        "astId": 24053,
        "contract": "contracts/mocks/ReentrancyAttackerMock.sol:ReentrancyAttackerMock",
        "label": "returnError",
        "offset": 0,
        "slot": "3",
        "type": "t_bytes_storage"
      },
      {
        "astId": 24055,
        "contract": "contracts/mocks/ReentrancyAttackerMock.sol:ReentrancyAttackerMock",
        "label": "isPayableFunction",
        "offset": 0,
        "slot": "4",
        "type": "t_bool"
      }
    ],
    "types": {
      "t_address": {
        "encoding": "inplace",
        "label": "address",
        "numberOfBytes": "20"
      },
      "t_bool": {
        "encoding": "inplace",
        "label": "bool",
        "numberOfBytes": "1"
      },
      "t_bytes_storage": {
        "encoding": "bytes",
        "label": "bytes",
        "numberOfBytes": "32"
      }
    }
  },
  "userdoc": {
    "kind": "user",
    "methods": {},
    "version": 1
  }
}