{
  "contractName": "ReentrancyAttackerMock",
  "sourceName": "contracts/mocks/ReentrancyAttackerMock.sol",
  "abi": [
    {
      "stateMutability": "payable",
      "type": "fallback"
    },
    {
      "inputs": [
        {
          "internalType": "address",
          "name": "dest_",
          "type": "address"
        },
        {
          "internalType": "bytes",
          "name": "data_",
          "type": "bytes"
        },
        {
          "internalType": "bool",
          "name": "isPayableFunction_",
          "type": "bool"
        }
      ],
      "name": "forward",
      "outputs": [
        {
          "internalType": "bytes",
          "name": "",
          "type": "bytes"
        }
      ],
      "stateMutability": "payable",
      "type": "function"
    }
  ],
  "bytecode": "0x6080806040523461001657610583908161001b8239f35b5f80fdfe60806040526004361015610018575b610016610447565b005b5f803560e01c634ffd09fb1461002e575061000e565b60603660031901126100da576004356001600160a01b03811681036100d65760243567ffffffffffffffff81116100d257366023820112156100d257806004013561007881610118565b9161008660405193846100f1565b81835236602483830101116100ce57936020826100be95949360246100ca980183860137830101526100b86044610134565b916103b0565b60405191829182610145565b0390f35b8480fd5b8280fd5b5080fd5b80fd5b634e487b7160e01b5f52604160045260245ffd5b90601f8019910116810190811067ffffffffffffffff82111761011357604052565b6100dd565b67ffffffffffffffff811161011357601f01601f191660200190565b3590811515820361014157565b5f80fd5b602080825282518183018190529093925f5b82811061017857505060409293505f838284010152601f8019910116010190565b818101860151848201604001528501610157565b90600182811c921680156101ba575b60208310146101a657565b634e487b7160e01b5f52602260045260245ffd5b91607f169161019b565b90601f81116101d257505050565b5f91825260208220906020601f850160051c8301941061020d575b601f0160051c01915b82811061020257505050565b8181556001016101f6565b90925082906101ed565b919091825167ffffffffffffffff81116101135761023f81610239845461018c565b846101c4565b602080601f83116001146102795750819293945f9261026e575b50508160011b915f199060031b1c1916179055565b015190505f80610259565b90601f1983169561028d855f5260205f2090565b925f905b8882106102c8575050836001959697106102b0575b505050811b019055565b01515f1960f88460031b161c191690555f80806102a6565b80600185968294968601518155019501930190610291565b3d1561030a573d906102f182610118565b916102ff60405193846100f1565b82523d5f602084013e565b606090565b9060405191825f8254926103228461018c565b9081845260019485811690815f1461038d575060011461034d575b505061034b925003836100f1565b565b909391505f52602090815f20935f915b81831061037557505061034b93508201015f8061033d565b8554888401850152948501948794509183019161035d565b91505061034b94506020925060ff191682840152151560051b8201015f8061033d565b6004805493151560ff1660ff1994909416939093179092555f80546001600160a01b0319166001600160a01b038416178155918291906103f1826001610217565b60045460ff161561042f576020825192019034905af1506104106102e0565b60025460ff1661042c57610424600361030f565b805190602001fd5b90565b82602083519301915af1506104426102e0565b610410565b60018060ff19600254161760025561047860018060a01b035f541660ff60045416906104728461030f565b906103b0565b90815167ffffffffffffffff8111610113576003926104a18261049b865461018c565b866101c4565b60209081601f84116001146104e557509282939183925f946104da575b50501b915f1990841b1c19161790555b6002805460ff19169055565b015192505f806104be565b919083601f1981166104fa885f5260205f2090565b945f905b88838310610533575050501061051c575b505050811b0190556104ce565b01515f1983861b60f8161c191690555f808061050f565b8587015188559096019594850194879350908101906104fe56fea26469706673582212208475f5d550ac3a229b010bdaf99ea1ca56cbca8b7e562c49d1dfd4ff19723cbb64736f6c63430008140033",
  "linkReferences": {},
  "deployedLinkReferences": {},
  "devdoc": {
    "kind": "dev",
    "methods": {},
    "version": 1
  },
  "evm": {
    "bytecode": {
      "linkReferences": {},
      "opcodes": "PUSH1 0x80 DUP1 PUSH1 0x40 MSTORE CALLVALUE PUSH2 0x16 JUMPI PUSH2 0x583 SWAP1 DUP2 PUSH2 0x1B DUP3 CODECOPY RETURN JUMPDEST PUSH0 DUP1 REVERT INVALID PUSH1 0x80 PUSH1 0x40 MSTORE PUSH1 0x4 CALLDATASIZE LT ISZERO PUSH2 0x18 JUMPI JUMPDEST PUSH2 0x16 PUSH2 0x447 JUMP JUMPDEST STOP JUMPDEST PUSH0 DUP1 CALLDATALOAD PUSH1 0xE0 SHR PUSH4 0x4FFD09FB EQ PUSH2 0x2E JUMPI POP PUSH2 0xE JUMP JUMPDEST PUSH1 0x60 CALLDATASIZE PUSH1 0x3 NOT ADD SLT PUSH2 0xDA JUMPI PUSH1 0x4 CALLDATALOAD PUSH1 0x1 PUSH1 0x1 PUSH1 0xA0 SHL SUB DUP2 AND DUP2 SUB PUSH2 0xD6 JUMPI PUSH1 0x24 CALLDATALOAD PUSH8 0xFFFFFFFFFFFFFFFF DUP2 GT PUSH2 0xD2 JUMPI CALLDATASIZE PUSH1 0x23 DUP3 ADD SLT ISZERO PUSH2 0xD2 JUMPI DUP1 PUSH1 0x4 ADD CALLDATALOAD PUSH2 0x78 DUP2 PUSH2 0x118 JUMP JUMPDEST SWAP2 PUSH2 0x86 PUSH1 0x40 MLOAD SWAP4 DUP5 PUSH2 0xF1 JUMP JUMPDEST DUP2 DUP4 MSTORE CALLDATASIZE PUSH1 0x24 DUP4 DUP4 ADD ADD GT PUSH2 0xCE JUMPI SWAP4 PUSH1 0x20 DUP3 PUSH2 0xBE SWAP6 SWAP5 SWAP4 PUSH1 0x24 PUSH2 0xCA SWAP9 ADD DUP4 DUP7 ADD CALLDATACOPY DUP4 ADD ADD MSTORE PUSH2 0xB8 PUSH1 0x44 PUSH2 0x134 JUMP JUMPDEST SWAP2 PUSH2 0x3B0 JUMP JUMPDEST PUSH1 0x40 MLOAD SWAP2 DUP3 SWAP2 DUP3 PUSH2 0x145 JUMP JUMPDEST SUB SWAP1 RETURN JUMPDEST DUP5 DUP1 REVERT JUMPDEST DUP3 DUP1 REVERT JUMPDEST POP DUP1 REVERT JUMPDEST DUP1 REVERT JUMPDEST PUSH4 0x4E487B71 PUSH1 0xE0 SHL PUSH0 MSTORE PUSH1 0x41 PUSH1 0x4 MSTORE PUSH1 0x24 PUSH0 REVERT JUMPDEST SWAP1 PUSH1 0x1F DUP1 NOT SWAP2 ADD AND DUP2 ADD SWAP1 DUP2 LT PUSH8 0xFFFFFFFFFFFFFFFF DUP3 GT OR PUSH2 0x113 JUMPI PUSH1 0x40 MSTORE JUMP JUMPDEST PUSH2 0xDD JUMP JUMPDEST PUSH8 0xFFFFFFFFFFFFFFFF DUP2 GT PUSH2 0x113 JUMPI PUSH1 0x1F ADD PUSH1 0x1F NOT AND PUSH1 0x20 ADD SWAP1 JUMP JUMPDEST CALLDATALOAD SWAP1 DUP2 ISZERO ISZERO DUP3 SUB PUSH2 0x141 JUMPI JUMP JUMPDEST PUSH0 DUP1 REVERT JUMPDEST PUSH1 0x20 DUP1 DUP3 MSTORE DUP3 MLOAD DUP2 DUP4 ADD DUP2 SWAP1 MSTORE SWAP1 SWAP4 SWAP3 PUSH0 JUMPDEST DUP3 DUP2 LT PUSH2 0x178 JUMPI POP POP PUSH1 0x40 SWAP3 SWAP4 POP PUSH0 DUP4 DUP3 DUP5 ADD ADD MSTORE PUSH1 0x1F DUP1 NOT SWAP2 ADD AND ADD ADD SWAP1 JUMP JUMPDEST DUP2 DUP2 ADD DUP7 ADD MLOAD DUP5 DUP3 ADD PUSH1 0x40 ADD MSTORE DUP6 ADD PUSH2 0x157 JUMP JUMPDEST SWAP1 PUSH1 0x1 DUP3 DUP2 SHR SWAP3 AND DUP1 ISZERO PUSH2 0x1BA JUMPI JUMPDEST PUSH1 0x20 DUP4 LT EQ PUSH2 0x1A6 JUMPI JUMP JUMPDEST PUSH4 0x4E487B71 PUSH1 0xE0 SHL PUSH0 MSTORE PUSH1 0x22 PUSH1 0x4 MSTORE PUSH1 0x24 PUSH0 REVERT JUMPDEST SWAP2 PUSH1 0x7F AND SWAP2 PUSH2 0x19B JUMP JUMPDEST SWAP1 PUSH1 0x1F DUP2 GT PUSH2 0x1D2 JUMPI POP POP POP JUMP JUMPDEST PUSH0 SWAP2 DUP3 MSTORE PUSH1 0x20 DUP3 KECCAK256 SWAP1 PUSH1 0x20 PUSH1 0x1F DUP6 ADD PUSH1 0x5 SHR DUP4 ADD SWAP5 LT PUSH2 0x20D JUMPI JUMPDEST PUSH1 0x1F ADD PUSH1 0x5 SHR ADD SWAP2 JUMPDEST DUP3 DUP2 LT PUSH2 0x202 JUMPI POP POP POP JUMP JUMPDEST DUP2 DUP2 SSTORE PUSH1 0x1 ADD PUSH2 0x1F6 JUMP JUMPDEST SWAP1 SWAP3 POP DUP3 SWAP1 PUSH2 0x1ED JUMP JUMPDEST SWAP2 SWAP1 SWAP2 DUP3 MLOAD PUSH8 0xFFFFFFFFFFFFFFFF DUP2 GT PUSH2 0x113 JUMPI PUSH2 0x23F DUP2 PUSH2 0x239 DUP5 SLOAD PUSH2 0x18C JUMP JUMPDEST DUP5 PUSH2 0x1C4 JUMP JUMPDEST PUSH1 0x20 DUP1 PUSH1 0x1F DUP4 GT PUSH1 0x1 EQ PUSH2 0x279 JUMPI POP DUP2 SWAP3 SWAP4 SWAP5 PUSH0 SWAP3 PUSH2 0x26E JUMPI JUMPDEST POP POP DUP2 PUSH1 0x1 SHL SWAP2 PUSH0 NOT SWAP1 PUSH1 0x3 SHL SHR NOT AND OR SWAP1 SSTORE JUMP JUMPDEST ADD MLOAD SWAP1 POP PUSH0 DUP1 PUSH2 0x259 JUMP JUMPDEST SWAP1 PUSH1 0x1F NOT DUP4 AND SWAP6 PUSH2 0x28D DUP6 PUSH0 MSTORE PUSH1 0x20 PUSH0 KECCAK256 SWAP1 JUMP JUMPDEST SWAP3 PUSH0 SWAP1 JUMPDEST DUP9 DUP3 LT PUSH2 0x2C8 JUMPI POP POP DUP4 PUSH1 0x1 SWAP6 SWAP7 SWAP8 LT PUSH2 0x2B0 JUMPI JUMPDEST POP POP POP DUP2 SHL ADD SWAP1 SSTORE JUMP JUMPDEST ADD MLOAD PUSH0 NOT PUSH1 0xF8 DUP5 PUSH1 0x3 SHL AND SHR NOT AND SWAP1 SSTORE PUSH0 DUP1 DUP1 PUSH2 0x2A6 JUMP JUMPDEST DUP1 PUSH1 0x1 DUP6 SWAP7 DUP3 SWAP5 SWAP7 DUP7 ADD MLOAD DUP2 SSTORE ADD SWAP6 ADD SWAP4 ADD SWAP1 PUSH2 0x291 JUMP JUMPDEST RETURNDATASIZE ISZERO PUSH2 0x30A JUMPI RETURNDATASIZE SWAP1 PUSH2 0x2F1 DUP3 PUSH2 0x118 JUMP JUMPDEST SWAP2 PUSH2 0x2FF PUSH1 0x40 MLOAD SWAP4 DUP5 PUSH2 0xF1 JUMP JUMPDEST DUP3 MSTORE RETURNDATASIZE PUSH0 PUSH1 0x20 DUP5 ADD RETURNDATACOPY JUMP JUMPDEST PUSH1 0x60 SWAP1 JUMP JUMPDEST SWAP1 PUSH1 0x40 MLOAD SWAP2 DUP3 PUSH0 DUP3 SLOAD SWAP3 PUSH2 0x322 DUP5 PUSH2 0x18C JUMP JUMPDEST SWAP1 DUP2 DUP5 MSTORE PUSH1 0x1 SWAP5 DUP6 DUP2 AND SWAP1 DUP2 PUSH0 EQ PUSH2 0x38D JUMPI POP PUSH1 0x1 EQ PUSH2 0x34D JUMPI JUMPDEST POP POP PUSH2 0x34B SWAP3 POP SUB DUP4 PUSH2 0xF1 JUMP JUMPDEST JUMP JUMPDEST SWAP1 SWAP4 SWAP2 POP PUSH0 MSTORE PUSH1 0x20 SWAP1 DUP2 PUSH0 KECCAK256 SWAP4 PUSH0 SWAP2 JUMPDEST DUP2 DUP4 LT PUSH2 0x375 JUMPI POP POP PUSH2 0x34B SWAP4 POP DUP3 ADD ADD PUSH0 DUP1 PUSH2 0x33D JUMP JUMPDEST DUP6 SLOAD DUP9 DUP5 ADD DUP6 ADD MSTORE SWAP5 DUP6 ADD SWAP5 DUP8 SWAP5 POP SWAP2 DUP4 ADD SWAP2 PUSH2 0x35D JUMP JUMPDEST SWAP2 POP POP PUSH2 0x34B SWAP5 POP PUSH1 0x20 SWAP3 POP PUSH1 0xFF NOT AND DUP3 DUP5 ADD MSTORE ISZERO ISZERO PUSH1 0x5 SHL DUP3 ADD ADD PUSH0 DUP1 PUSH2 0x33D JUMP JUMPDEST PUSH1 0x4 DUP1 SLOAD SWAP4 ISZERO ISZERO PUSH1 0xFF AND PUSH1 0xFF NOT SWAP5 SWAP1 SWAP5 AND SWAP4 SWAP1 SWAP4 OR SWAP1 SWAP3 SSTORE PUSH0 DUP1 SLOAD PUSH1 0x1 PUSH1 0x1 PUSH1 0xA0 SHL SUB NOT AND PUSH1 0x1 PUSH1 0x1 PUSH1 0xA0 SHL SUB DUP5 AND OR DUP2 SSTORE SWAP2 DUP3 SWAP2 SWAP1 PUSH2 0x3F1 DUP3 PUSH1 0x1 PUSH2 0x217 JUMP JUMPDEST PUSH1 0x4 SLOAD PUSH1 0xFF AND ISZERO PUSH2 0x42F JUMPI PUSH1 0x20 DUP3 MLOAD SWAP3 ADD SWAP1 CALLVALUE SWAP1 GAS CALL POP PUSH2 0x410 PUSH2 0x2E0 JUMP JUMPDEST PUSH1 0x2 SLOAD PUSH1 0xFF AND PUSH2 0x42C JUMPI PUSH2 0x424 PUSH1 0x3 PUSH2 0x30F JUMP JUMPDEST DUP1 MLOAD SWAP1 PUSH1 0x20 ADD REVERT JUMPDEST SWAP1 JUMP JUMPDEST DUP3 PUSH1 0x20 DUP4 MLOAD SWAP4 ADD SWAP2 GAS CALL POP PUSH2 0x442 PUSH2 0x2E0 JUMP JUMPDEST PUSH2 0x410 JUMP JUMPDEST PUSH1 0x1 DUP1 PUSH1 0xFF NOT PUSH1 0x2 SLOAD AND OR PUSH1 0x2 SSTORE PUSH2 0x478 PUSH1 0x1 DUP1 PUSH1 0xA0 SHL SUB PUSH0 SLOAD AND PUSH1 0xFF PUSH1 0x4 SLOAD AND SWAP1 PUSH2 0x472 DUP5 PUSH2 0x30F JUMP JUMPDEST SWAP1 PUSH2 0x3B0 JUMP JUMPDEST SWAP1 DUP2 MLOAD PUSH8 0xFFFFFFFFFFFFFFFF DUP2 GT PUSH2 0x113 JUMPI PUSH1 0x3 SWAP3 PUSH2 0x4A1 DUP3 PUSH2 0x49B DUP7 SLOAD PUSH2 0x18C JUMP JUMPDEST DUP7 PUSH2 0x1C4 JUMP JUMPDEST PUSH1 0x20 SWAP1 DUP2 PUSH1 0x1F DUP5 GT PUSH1 0x1 EQ PUSH2 0x4E5 JUMPI POP SWAP3 DUP3 SWAP4 SWAP2 DUP4 SWAP3 PUSH0 SWAP5 PUSH2 0x4DA JUMPI JUMPDEST POP POP SHL SWAP2 PUSH0 NOT SWAP1 DUP5 SHL SHR NOT AND OR SWAP1 SSTORE JUMPDEST PUSH1 0x2 DUP1 SLOAD PUSH1 0xFF NOT AND SWAP1 SSTORE JUMP JUMPDEST ADD MLOAD SWAP3 POP PUSH0 DUP1 PUSH2 0x4BE JUMP JUMPDEST SWAP2 SWAP1 DUP4 PUSH1 0x1F NOT DUP2 AND PUSH2 0x4FA DUP9 PUSH0 MSTORE PUSH1 0x20 PUSH0 KECCAK256 SWAP1 JUMP JUMPDEST SWAP5 PUSH0 SWAP1 JUMPDEST DUP9 DUP4 DUP4 LT PUSH2 0x533 JUMPI POP POP POP LT PUSH2 0x51C JUMPI JUMPDEST POP POP POP DUP2 SHL ADD SWAP1 SSTORE PUSH2 0x4CE JUMP JUMPDEST ADD MLOAD PUSH0 NOT DUP4 DUP7 SHL PUSH1 0xF8 AND SHR NOT AND SWAP1 SSTORE PUSH0 DUP1 DUP1 PUSH2 0x50F JUMP JUMPDEST DUP6 DUP8 ADD MLOAD DUP9 SSTORE SWAP1 SWAP7 ADD SWAP6 SWAP5 DUP6 ADD SWAP5 DUP8 SWAP4 POP SWAP1 DUP2 ADD SWAP1 PUSH2 0x4FE JUMP INVALID LOG2 PUSH5 0x6970667358 0x22 SLT KECCAK256 DUP5 PUSH22 0xF5D550AC3A229B010BDAF99EA1CA56CBCA8B7E562C49 0xD1 0xDF 0xD4 SELFDESTRUCT NOT PUSH19 0x3CBB64736F6C63430008140033000000000000 "
    },
    "gasEstimates": {
      "creation": {
        "codeDepositCost": "282200",
        "executionCost": "331",
        "totalCost": "282531"
      },
      "external": {
        "": "infinite",
        "forward(address,bytes,bool)": "infinite"
      }
    },
    "methodIdentifiers": {
      "forward(address,bytes,bool)": "4ffd09fb"
    }
  },
  "storageLayout": {
    "storage": [
      {
        "astId": 26391,
        "contract": "contracts/mocks/ReentrancyAttackerMock.sol:ReentrancyAttackerMock",
        "label": "dest",
        "offset": 0,
        "slot": "0",
        "type": "t_address"
      },
      {
        "astId": 26393,
        "contract": "contracts/mocks/ReentrancyAttackerMock.sol:ReentrancyAttackerMock",
        "label": "data",
        "offset": 0,
        "slot": "1",
        "type": "t_bytes_storage"
      },
      {
        "astId": 26395,
        "contract": "contracts/mocks/ReentrancyAttackerMock.sol:ReentrancyAttackerMock",
        "label": "entered",
        "offset": 0,
        "slot": "2",
        "type": "t_bool"
      },
      {
        "astId": 26397,
        "contract": "contracts/mocks/ReentrancyAttackerMock.sol:ReentrancyAttackerMock",
        "label": "returnError",
        "offset": 0,
        "slot": "3",
        "type": "t_bytes_storage"
      },
      {
        "astId": 26399,
        "contract": "contracts/mocks/ReentrancyAttackerMock.sol:ReentrancyAttackerMock",
        "label": "isPayableFunction",
        "offset": 0,
        "slot": "4",
        "type": "t_bool"
      }
    ],
    "types": {
      "t_address": {
        "encoding": "inplace",
        "label": "address",
        "numberOfBytes": "20"
      },
      "t_bool": {
        "encoding": "inplace",
        "label": "bool",
        "numberOfBytes": "1"
      },
      "t_bytes_storage": {
        "encoding": "bytes",
        "label": "bytes",
        "numberOfBytes": "32"
      }
    }
  },
  "userdoc": {
    "kind": "user",
    "methods": {},
    "version": 1
  }
}