{
  "contractName": "MocCoreExpansion",
  "sourceName": "contracts/core/MocCoreExpansion.sol",
  "abi": [
    {
      "inputs": [],
      "stateMutability": "nonpayable",
      "type": "constructor"
    },
    {
      "inputs": [
        {
          "internalType": "uint256",
          "name": "qACsent_",
          "type": "uint256"
        },
        {
          "internalType": "uint256",
          "name": "qACNeeded_",
          "type": "uint256"
        }
      ],
      "name": "InsufficientQacSent",
      "type": "error"
    },
    {
      "inputs": [
        {
          "internalType": "uint256",
          "name": "qTPsent_",
          "type": "uint256"
        },
        {
          "internalType": "uint256",
          "name": "qTPNeeded_",
          "type": "uint256"
        }
      ],
      "name": "InsufficientQtpSent",
      "type": "error"
    },
    {
      "inputs": [
        {
          "internalType": "uint256",
          "name": "qTC_",
          "type": "uint256"
        },
        {
          "internalType": "uint256",
          "name": "tcAvailableToRedeem_",
          "type": "uint256"
        }
      ],
      "name": "InsufficientTCtoRedeem",
      "type": "error"
    },
    {
      "inputs": [
        {
          "internalType": "uint256",
          "name": "qTP_",
          "type": "uint256"
        },
        {
          "internalType": "uint256",
          "name": "tpAvailableToMint_",
          "type": "uint256"
        }
      ],
      "name": "InsufficientTPtoMint",
      "type": "error"
    },
    {
      "inputs": [
        {
          "internalType": "uint256",
          "name": "qTP_",
          "type": "uint256"
        },
        {
          "internalType": "uint256",
          "name": "tpAvailableToRedeem_",
          "type": "uint256"
        }
      ],
      "name": "InsufficientTPtoRedeem",
      "type": "error"
    },
    {
      "inputs": [],
      "name": "InvalidAddress",
      "type": "error"
    },
    {
      "inputs": [],
      "name": "InvalidFluxCapacitorOperation",
      "type": "error"
    },
    {
      "inputs": [],
      "name": "InvalidValue",
      "type": "error"
    },
    {
      "inputs": [],
      "name": "Liquidated",
      "type": "error"
    },
    {
      "inputs": [
        {
          "internalType": "uint256",
          "name": "cglb_",
          "type": "uint256"
        },
        {
          "internalType": "uint256",
          "name": "covThrld_",
          "type": "uint256"
        }
      ],
      "name": "LowCoverage",
      "type": "error"
    },
    {
      "inputs": [
        {
          "internalType": "uint256",
          "name": "max_",
          "type": "uint256"
        },
        {
          "internalType": "uint256",
          "name": "new_",
          "type": "uint256"
        }
      ],
      "name": "MaxFluxCapacitorOperationReached",
      "type": "error"
    },
    {
      "inputs": [
        {
          "internalType": "address",
          "name": "dataProviderAddress_",
          "type": "address"
        }
      ],
      "name": "MissingProviderData",
      "type": "error"
    },
    {
      "inputs": [
        {
          "internalType": "address",
          "name": "priceProviderAddress_",
          "type": "address"
        }
      ],
      "name": "MissingProviderPrice",
      "type": "error"
    },
    {
      "inputs": [],
      "name": "NotAuthorizedChanger",
      "type": "error"
    },
    {
      "inputs": [],
      "name": "NotWhenPaused",
      "type": "error"
    },
    {
      "inputs": [],
      "name": "OnlyPauser",
      "type": "error"
    },
    {
      "inputs": [],
      "name": "OnlyWhenLiquidated",
      "type": "error"
    },
    {
      "inputs": [],
      "name": "OnlyWhilePaused",
      "type": "error"
    },
    {
      "inputs": [],
      "name": "PeggedTokenAlreadyAdded",
      "type": "error"
    },
    {
      "inputs": [
        {
          "internalType": "uint256",
          "name": "qACmin_",
          "type": "uint256"
        },
        {
          "internalType": "uint256",
          "name": "qACtoRedeem_",
          "type": "uint256"
        }
      ],
      "name": "QacBelowMinimumRequired",
      "type": "error"
    },
    {
      "inputs": [],
      "name": "QacNeededMustBeGreaterThanZero",
      "type": "error"
    },
    {
      "inputs": [
        {
          "internalType": "uint256",
          "name": "qTCmin_",
          "type": "uint256"
        },
        {
          "internalType": "uint256",
          "name": "qTC_",
          "type": "uint256"
        }
      ],
      "name": "QtcBelowMinimumRequired",
      "type": "error"
    },
    {
      "inputs": [
        {
          "internalType": "uint256",
          "name": "qTPmin_",
          "type": "uint256"
        },
        {
          "internalType": "uint256",
          "name": "qTP_",
          "type": "uint256"
        }
      ],
      "name": "QtpBelowMinimumRequired",
      "type": "error"
    },
    {
      "inputs": [],
      "name": "TransferFailed",
      "type": "error"
    },
    {
      "inputs": [],
      "name": "Unstoppable",
      "type": "error"
    },
    {
      "anonymous": false,
      "inputs": [
        {
          "indexed": false,
          "internalType": "address",
          "name": "previousAdmin",
          "type": "address"
        },
        {
          "indexed": false,
          "internalType": "address",
          "name": "newAdmin",
          "type": "address"
        }
      ],
      "name": "AdminChanged",
      "type": "event"
    },
    {
      "anonymous": false,
      "inputs": [
        {
          "indexed": true,
          "internalType": "address",
          "name": "beacon",
          "type": "address"
        }
      ],
      "name": "BeaconUpgraded",
      "type": "event"
    },
    {
      "anonymous": false,
      "inputs": [],
      "name": "ContractLiquidated",
      "type": "event"
    },
    {
      "anonymous": false,
      "inputs": [
        {
          "indexed": false,
          "internalType": "uint8",
          "name": "version",
          "type": "uint8"
        }
      ],
      "name": "Initialized",
      "type": "event"
    },
    {
      "anonymous": false,
      "inputs": [
        {
          "indexed": true,
          "internalType": "address",
          "name": "tp_",
          "type": "address"
        },
        {
          "indexed": true,
          "internalType": "address",
          "name": "sender_",
          "type": "address"
        },
        {
          "indexed": true,
          "internalType": "address",
          "name": "recipient_",
          "type": "address"
        },
        {
          "indexed": false,
          "internalType": "uint256",
          "name": "qTP_",
          "type": "uint256"
        },
        {
          "indexed": false,
          "internalType": "uint256",
          "name": "qAC_",
          "type": "uint256"
        }
      ],
      "name": "LiqTPRedeemed",
      "type": "event"
    },
    {
      "anonymous": false,
      "inputs": [
        {
          "indexed": false,
          "internalType": "address",
          "name": "account",
          "type": "address"
        }
      ],
      "name": "Paused",
      "type": "event"
    },
    {
      "anonymous": false,
      "inputs": [
        {
          "indexed": false,
          "internalType": "uint256",
          "name": "i_",
          "type": "uint256"
        },
        {
          "components": [
            {
              "internalType": "address",
              "name": "tpTokenAddress",
              "type": "address"
            },
            {
              "internalType": "address",
              "name": "priceProviderAddress",
              "type": "address"
            },
            {
              "internalType": "uint256",
              "name": "tpCtarg",
              "type": "uint256"
            },
            {
              "internalType": "uint256",
              "name": "tpMintFee",
              "type": "uint256"
            },
            {
              "internalType": "uint256",
              "name": "tpRedeemFee",
              "type": "uint256"
            },
            {
              "internalType": "uint256",
              "name": "tpEma",
              "type": "uint256"
            },
            {
              "internalType": "uint256",
              "name": "tpEmaSf",
              "type": "uint256"
            }
          ],
          "indexed": false,
          "internalType": "struct PeggedTokenParams",
          "name": "peggedTokenParams_",
          "type": "tuple"
        }
      ],
      "name": "PeggedTokenChange",
      "type": "event"
    },
    {
      "anonymous": false,
      "inputs": [
        {
          "indexed": true,
          "internalType": "uint256",
          "name": "i_",
          "type": "uint256"
        },
        {
          "indexed": false,
          "internalType": "uint256",
          "name": "oldTPema_",
          "type": "uint256"
        },
        {
          "indexed": false,
          "internalType": "uint256",
          "name": "newTPema_",
          "type": "uint256"
        }
      ],
      "name": "TPemaUpdated",
      "type": "event"
    },
    {
      "anonymous": false,
      "inputs": [
        {
          "indexed": false,
          "internalType": "address",
          "name": "account",
          "type": "address"
        }
      ],
      "name": "Unpaused",
      "type": "event"
    },
    {
      "anonymous": false,
      "inputs": [
        {
          "indexed": true,
          "internalType": "address",
          "name": "implementation",
          "type": "address"
        }
      ],
      "name": "Upgraded",
      "type": "event"
    },
    {
      "inputs": [],
      "name": "absoluteAccumulator",
      "outputs": [
        {
          "internalType": "uint256",
          "name": "",
          "type": "uint256"
        }
      ],
      "stateMutability": "view",
      "type": "function"
    },
    {
      "inputs": [
        {
          "components": [
            {
              "internalType": "address",
              "name": "tpTokenAddress",
              "type": "address"
            },
            {
              "internalType": "address",
              "name": "priceProviderAddress",
              "type": "address"
            },
            {
              "internalType": "uint256",
              "name": "tpCtarg",
              "type": "uint256"
            },
            {
              "internalType": "uint256",
              "name": "tpMintFee",
              "type": "uint256"
            },
            {
              "internalType": "uint256",
              "name": "tpRedeemFee",
              "type": "uint256"
            },
            {
              "internalType": "uint256",
              "name": "tpEma",
              "type": "uint256"
            },
            {
              "internalType": "uint256",
              "name": "tpEmaSf",
              "type": "uint256"
            }
          ],
          "internalType": "struct PeggedTokenParams",
          "name": "peggedTokenParams_",
          "type": "tuple"
        }
      ],
      "name": "addPeggedToken",
      "outputs": [],
      "stateMutability": "nonpayable",
      "type": "function"
    },
    {
      "inputs": [],
      "name": "appreciationFactor",
      "outputs": [
        {
          "internalType": "uint256",
          "name": "",
          "type": "uint256"
        }
      ],
      "stateMutability": "view",
      "type": "function"
    },
    {
      "inputs": [],
      "name": "bes",
      "outputs": [
        {
          "internalType": "uint256",
          "name": "",
          "type": "uint256"
        }
      ],
      "stateMutability": "view",
      "type": "function"
    },
    {
      "inputs": [],
      "name": "bns",
      "outputs": [
        {
          "internalType": "uint256",
          "name": "",
          "type": "uint256"
        }
      ],
      "stateMutability": "view",
      "type": "function"
    },
    {
      "inputs": [],
      "name": "calcCtargemaCA",
      "outputs": [
        {
          "internalType": "uint256",
          "name": "ctargemaCA",
          "type": "uint256"
        }
      ],
      "stateMutability": "view",
      "type": "function"
    },
    {
      "inputs": [
        {
          "internalType": "contract IGovernor",
          "name": "newGovernor_",
          "type": "address"
        }
      ],
      "name": "changeGovernor",
      "outputs": [],
      "stateMutability": "nonpayable",
      "type": "function"
    },
    {
      "inputs": [],
      "name": "decayBlockSpan",
      "outputs": [
        {
          "internalType": "uint256",
          "name": "",
          "type": "uint256"
        }
      ],
      "stateMutability": "view",
      "type": "function"
    },
    {
      "inputs": [],
      "name": "differentialAccumulator",
      "outputs": [
        {
          "internalType": "int256",
          "name": "",
          "type": "int256"
        }
      ],
      "stateMutability": "view",
      "type": "function"
    },
    {
      "inputs": [
        {
          "components": [
            {
              "internalType": "address",
              "name": "tpTokenAddress",
              "type": "address"
            },
            {
              "internalType": "address",
              "name": "priceProviderAddress",
              "type": "address"
            },
            {
              "internalType": "uint256",
              "name": "tpCtarg",
              "type": "uint256"
            },
            {
              "internalType": "uint256",
              "name": "tpMintFee",
              "type": "uint256"
            },
            {
              "internalType": "uint256",
              "name": "tpRedeemFee",
              "type": "uint256"
            },
            {
              "internalType": "uint256",
              "name": "tpEma",
              "type": "uint256"
            },
            {
              "internalType": "uint256",
              "name": "tpEmaSf",
              "type": "uint256"
            }
          ],
          "internalType": "struct PeggedTokenParams",
          "name": "peggedTokenParams_",
          "type": "tuple"
        }
      ],
      "name": "editPeggedToken",
      "outputs": [],
      "stateMutability": "nonpayable",
      "type": "function"
    },
    {
      "inputs": [],
      "name": "emaCalculationBlockSpan",
      "outputs": [
        {
          "internalType": "uint256",
          "name": "",
          "type": "uint256"
        }
      ],
      "stateMutability": "view",
      "type": "function"
    },
    {
      "inputs": [],
      "name": "evalLiquidation",
      "outputs": [],
      "stateMutability": "nonpayable",
      "type": "function"
    },
    {
      "inputs": [],
      "name": "feeRetainer",
      "outputs": [
        {
          "internalType": "uint256",
          "name": "",
          "type": "uint256"
        }
      ],
      "stateMutability": "view",
      "type": "function"
    },
    {
      "inputs": [],
      "name": "feeToken",
      "outputs": [
        {
          "internalType": "contract IERC20",
          "name": "",
          "type": "address"
        }
      ],
      "stateMutability": "view",
      "type": "function"
    },
    {
      "inputs": [],
      "name": "feeTokenPct",
      "outputs": [
        {
          "internalType": "uint256",
          "name": "",
          "type": "uint256"
        }
      ],
      "stateMutability": "view",
      "type": "function"
    },
    {
      "inputs": [],
      "name": "feeTokenPriceProvider",
      "outputs": [
        {
          "internalType": "contract IPriceProvider",
          "name": "",
          "type": "address"
        }
      ],
      "stateMutability": "view",
      "type": "function"
    },
    {
      "inputs": [
        {
          "internalType": "address",
          "name": "tp_",
          "type": "address"
        }
      ],
      "name": "getPACtp",
      "outputs": [
        {
          "internalType": "uint256",
          "name": "",
          "type": "uint256"
        }
      ],
      "stateMutability": "view",
      "type": "function"
    },
    {
      "inputs": [],
      "name": "governor",
      "outputs": [
        {
          "internalType": "contract IGovernor",
          "name": "",
          "type": "address"
        }
      ],
      "stateMutability": "view",
      "type": "function"
    },
    {
      "inputs": [],
      "name": "isLiquidationReached",
      "outputs": [
        {
          "internalType": "bool",
          "name": "",
          "type": "bool"
        }
      ],
      "stateMutability": "view",
      "type": "function"
    },
    {
      "inputs": [],
      "name": "lastOperationBlockNumber",
      "outputs": [
        {
          "internalType": "uint256",
          "name": "",
          "type": "uint256"
        }
      ],
      "stateMutability": "view",
      "type": "function"
    },
    {
      "inputs": [],
      "name": "liqEnabled",
      "outputs": [
        {
          "internalType": "bool",
          "name": "",
          "type": "bool"
        }
      ],
      "stateMutability": "view",
      "type": "function"
    },
    {
      "inputs": [
        {
          "internalType": "address",
          "name": "tp_",
          "type": "address"
        },
        {
          "internalType": "address",
          "name": "sender_",
          "type": "address"
        },
        {
          "internalType": "address",
          "name": "recipient_",
          "type": "address"
        },
        {
          "internalType": "uint256",
          "name": "mocACBalance",
          "type": "uint256"
        }
      ],
      "name": "liqRedeemTPTo",
      "outputs": [
        {
          "internalType": "uint256",
          "name": "qACRedeemed",
          "type": "uint256"
        }
      ],
      "stateMutability": "nonpayable",
      "type": "function"
    },
    {
      "inputs": [],
      "name": "liqThrld",
      "outputs": [
        {
          "internalType": "uint256",
          "name": "",
          "type": "uint256"
        }
      ],
      "stateMutability": "view",
      "type": "function"
    },
    {
      "inputs": [],
      "name": "liquidated",
      "outputs": [
        {
          "internalType": "bool",
          "name": "",
          "type": "bool"
        }
      ],
      "stateMutability": "view",
      "type": "function"
    },
    {
      "inputs": [],
      "name": "makeStoppable",
      "outputs": [],
      "stateMutability": "nonpayable",
      "type": "function"
    },
    {
      "inputs": [],
      "name": "makeUnstoppable",
      "outputs": [],
      "stateMutability": "nonpayable",
      "type": "function"
    },
    {
      "inputs": [],
      "name": "maxAbsoluteOpProvider",
      "outputs": [
        {
          "internalType": "contract IDataProvider",
          "name": "",
          "type": "address"
        }
      ],
      "stateMutability": "view",
      "type": "function"
    },
    {
      "inputs": [],
      "name": "maxOpDiffProvider",
      "outputs": [
        {
          "internalType": "contract IDataProvider",
          "name": "",
          "type": "address"
        }
      ],
      "stateMutability": "view",
      "type": "function"
    },
    {
      "inputs": [],
      "name": "maxQACToMintTP",
      "outputs": [
        {
          "internalType": "uint256",
          "name": "maxQAC",
          "type": "uint256"
        }
      ],
      "stateMutability": "view",
      "type": "function"
    },
    {
      "inputs": [],
      "name": "maxQACToRedeemTP",
      "outputs": [
        {
          "internalType": "uint256",
          "name": "maxQAC",
          "type": "uint256"
        }
      ],
      "stateMutability": "view",
      "type": "function"
    },
    {
      "inputs": [],
      "name": "mintTCandTPFee",
      "outputs": [
        {
          "internalType": "uint256",
          "name": "",
          "type": "uint256"
        }
      ],
      "stateMutability": "view",
      "type": "function"
    },
    {
      "inputs": [
        {
          "components": [
            {
              "internalType": "address",
              "name": "tp",
              "type": "address"
            },
            {
              "internalType": "uint256",
              "name": "qTP",
              "type": "uint256"
            },
            {
              "internalType": "uint256",
              "name": "qACmax",
              "type": "uint256"
            },
            {
              "internalType": "address",
              "name": "sender",
              "type": "address"
            },
            {
              "internalType": "address",
              "name": "recipient",
              "type": "address"
            },
            {
              "internalType": "address",
              "name": "vendor",
              "type": "address"
            }
          ],
          "internalType": "struct MocCommons.MintTCandTPParams",
          "name": "params_",
          "type": "tuple"
        }
      ],
      "name": "mintTCandTPto",
      "outputs": [
        {
          "internalType": "uint256",
          "name": "qACtotalNeeded",
          "type": "uint256"
        },
        {
          "internalType": "uint256",
          "name": "qTCtoMint",
          "type": "uint256"
        },
        {
          "internalType": "uint256",
          "name": "qFeeTokenTotalNeeded",
          "type": "uint256"
        },
        {
          "components": [
            {
              "internalType": "uint256",
              "name": "qACFee",
              "type": "uint256"
            },
            {
              "internalType": "uint256",
              "name": "qFeeToken",
              "type": "uint256"
            },
            {
              "internalType": "uint256",
              "name": "qACVendorMarkup",
              "type": "uint256"
            },
            {
              "internalType": "uint256",
              "name": "qFeeTokenVendorMarkup",
              "type": "uint256"
            }
          ],
          "internalType": "struct MocCommons.FeeCalcs",
          "name": "feeCalcs",
          "type": "tuple"
        }
      ],
      "stateMutability": "payable",
      "type": "function"
    },
    {
      "inputs": [],
      "name": "mocAppreciationBeneficiaryAddress",
      "outputs": [
        {
          "internalType": "address",
          "name": "",
          "type": "address"
        }
      ],
      "stateMutability": "view",
      "type": "function"
    },
    {
      "inputs": [],
      "name": "mocFeeFlowAddress",
      "outputs": [
        {
          "internalType": "address",
          "name": "",
          "type": "address"
        }
      ],
      "stateMutability": "view",
      "type": "function"
    },
    {
      "inputs": [],
      "name": "mocQueue",
      "outputs": [
        {
          "internalType": "address",
          "name": "",
          "type": "address"
        }
      ],
      "stateMutability": "view",
      "type": "function"
    },
    {
      "inputs": [],
      "name": "mocVendors",
      "outputs": [
        {
          "internalType": "contract MocVendors",
          "name": "",
          "type": "address"
        }
      ],
      "stateMutability": "view",
      "type": "function"
    },
    {
      "inputs": [],
      "name": "nACcb",
      "outputs": [
        {
          "internalType": "uint256",
          "name": "",
          "type": "uint256"
        }
      ],
      "stateMutability": "view",
      "type": "function"
    },
    {
      "inputs": [],
      "name": "nTCcb",
      "outputs": [
        {
          "internalType": "uint256",
          "name": "",
          "type": "uint256"
        }
      ],
      "stateMutability": "view",
      "type": "function"
    },
    {
      "inputs": [],
      "name": "nextEmaCalculation",
      "outputs": [
        {
          "internalType": "uint256",
          "name": "",
          "type": "uint256"
        }
      ],
      "stateMutability": "view",
      "type": "function"
    },
    {
      "inputs": [],
      "name": "nextTCInterestPayment",
      "outputs": [
        {
          "internalType": "uint256",
          "name": "",
          "type": "uint256"
        }
      ],
      "stateMutability": "view",
      "type": "function"
    },
    {
      "inputs": [],
      "name": "pause",
      "outputs": [],
      "stateMutability": "nonpayable",
      "type": "function"
    },
    {
      "inputs": [],
      "name": "paused",
      "outputs": [
        {
          "internalType": "bool",
          "name": "",
          "type": "bool"
        }
      ],
      "stateMutability": "view",
      "type": "function"
    },
    {
      "inputs": [],
      "name": "pauser",
      "outputs": [
        {
          "internalType": "address",
          "name": "",
          "type": "address"
        }
      ],
      "stateMutability": "view",
      "type": "function"
    },
    {
      "inputs": [
        {
          "internalType": "uint256",
          "name": "",
          "type": "uint256"
        }
      ],
      "name": "pegContainer",
      "outputs": [
        {
          "internalType": "uint256",
          "name": "nTP",
          "type": "uint256"
        },
        {
          "internalType": "contract IPriceProvider",
          "name": "priceProvider",
          "type": "address"
        }
      ],
      "stateMutability": "view",
      "type": "function"
    },
    {
      "inputs": [
        {
          "internalType": "address",
          "name": "",
          "type": "address"
        }
      ],
      "name": "peggedTokenIndex",
      "outputs": [
        {
          "internalType": "uint256",
          "name": "index",
          "type": "uint256"
        },
        {
          "internalType": "bool",
          "name": "exists",
          "type": "bool"
        }
      ],
      "stateMutability": "view",
      "type": "function"
    },
    {
      "inputs": [],
      "name": "protThrld",
      "outputs": [
        {
          "internalType": "uint256",
          "name": "",
          "type": "uint256"
        }
      ],
      "stateMutability": "view",
      "type": "function"
    },
    {
      "inputs": [],
      "name": "proxiableUUID",
      "outputs": [
        {
          "internalType": "bytes32",
          "name": "",
          "type": "bytes32"
        }
      ],
      "stateMutability": "view",
      "type": "function"
    },
    {
      "inputs": [],
      "name": "qACLockedInPending",
      "outputs": [
        {
          "internalType": "uint256",
          "name": "",
          "type": "uint256"
        }
      ],
      "stateMutability": "view",
      "type": "function"
    },
    {
      "inputs": [],
      "name": "redeemTCandTPFee",
      "outputs": [
        {
          "internalType": "uint256",
          "name": "",
          "type": "uint256"
        }
      ],
      "stateMutability": "view",
      "type": "function"
    },
    {
      "inputs": [
        {
          "components": [
            {
              "internalType": "address",
              "name": "tp",
              "type": "address"
            },
            {
              "internalType": "uint256",
              "name": "qTC",
              "type": "uint256"
            },
            {
              "internalType": "uint256",
              "name": "qTP",
              "type": "uint256"
            },
            {
              "internalType": "uint256",
              "name": "qACmin",
              "type": "uint256"
            },
            {
              "internalType": "address",
              "name": "sender",
              "type": "address"
            },
            {
              "internalType": "address",
              "name": "recipient",
              "type": "address"
            },
            {
              "internalType": "address",
              "name": "vendor",
              "type": "address"
            }
          ],
          "internalType": "struct MocCommons.RedeemTCandTPParams",
          "name": "params_",
          "type": "tuple"
        }
      ],
      "name": "redeemTCandTPto",
      "outputs": [
        {
          "internalType": "uint256",
          "name": "qACtoRedeem",
          "type": "uint256"
        },
        {
          "internalType": "uint256",
          "name": "qTPtoRedeem",
          "type": "uint256"
        },
        {
          "internalType": "uint256",
          "name": "qFeeTokenTotalNeeded",
          "type": "uint256"
        },
        {
          "components": [
            {
              "internalType": "uint256",
              "name": "qACFee",
              "type": "uint256"
            },
            {
              "internalType": "uint256",
              "name": "qFeeToken",
              "type": "uint256"
            },
            {
              "internalType": "uint256",
              "name": "qACVendorMarkup",
              "type": "uint256"
            },
            {
              "internalType": "uint256",
              "name": "qFeeTokenVendorMarkup",
              "type": "uint256"
            }
          ],
          "internalType": "struct MocCommons.FeeCalcs",
          "name": "feeCalcs",
          "type": "tuple"
        }
      ],
      "stateMutability": "payable",
      "type": "function"
    },
    {
      "inputs": [
        {
          "internalType": "uint256",
          "name": "appreciationFactor_",
          "type": "uint256"
        }
      ],
      "name": "setAppreciationFactor",
      "outputs": [],
      "stateMutability": "nonpayable",
      "type": "function"
    },
    {
      "inputs": [
        {
          "internalType": "uint256",
          "name": "bes_",
          "type": "uint256"
        }
      ],
      "name": "setBes",
      "outputs": [],
      "stateMutability": "nonpayable",
      "type": "function"
    },
    {
      "inputs": [
        {
          "internalType": "uint256",
          "name": "decayBlockSpan_",
          "type": "uint256"
        }
      ],
      "name": "setDecayBlockSpan",
      "outputs": [],
      "stateMutability": "nonpayable",
      "type": "function"
    },
    {
      "inputs": [
        {
          "internalType": "uint256",
          "name": "blockSpan_",
          "type": "uint256"
        }
      ],
      "name": "setEmaCalculationBlockSpan",
      "outputs": [],
      "stateMutability": "nonpayable",
      "type": "function"
    },
    {
      "inputs": [
        {
          "internalType": "uint256",
          "name": "feeRetainer_",
          "type": "uint256"
        }
      ],
      "name": "setFeeRetainer",
      "outputs": [],
      "stateMutability": "nonpayable",
      "type": "function"
    },
    {
      "inputs": [
        {
          "internalType": "address",
          "name": "mocFeeTokenAddress_",
          "type": "address"
        }
      ],
      "name": "setFeeTokenAddress",
      "outputs": [],
      "stateMutability": "nonpayable",
      "type": "function"
    },
    {
      "inputs": [
        {
          "internalType": "uint256",
          "name": "feeTokenPct_",
          "type": "uint256"
        }
      ],
      "name": "setFeeTokenPct",
      "outputs": [],
      "stateMutability": "nonpayable",
      "type": "function"
    },
    {
      "inputs": [
        {
          "internalType": "address",
          "name": "mocFeeTokenPriceProviderAddress_",
          "type": "address"
        }
      ],
      "name": "setFeeTokenPriceProviderAddress",
      "outputs": [],
      "stateMutability": "nonpayable",
      "type": "function"
    },
    {
      "inputs": [
        {
          "internalType": "bool",
          "name": "liqEnabled_",
          "type": "bool"
        }
      ],
      "name": "setLiqEnabled",
      "outputs": [],
      "stateMutability": "nonpayable",
      "type": "function"
    },
    {
      "inputs": [
        {
          "internalType": "uint256",
          "name": "liqThrld_",
          "type": "uint256"
        }
      ],
      "name": "setLiqThrld",
      "outputs": [],
      "stateMutability": "nonpayable",
      "type": "function"
    },
    {
      "inputs": [
        {
          "internalType": "address",
          "name": "maxAbsoluteOpProviderAddress_",
          "type": "address"
        }
      ],
      "name": "setMaxAbsoluteOpProviderAddress",
      "outputs": [],
      "stateMutability": "nonpayable",
      "type": "function"
    },
    {
      "inputs": [
        {
          "internalType": "address",
          "name": "maxOpDiffProviderAddress_",
          "type": "address"
        }
      ],
      "name": "setMaxOpDiffProviderAddress",
      "outputs": [],
      "stateMutability": "nonpayable",
      "type": "function"
    },
    {
      "inputs": [
        {
          "internalType": "uint256",
          "name": "mintTCandTPFee_",
          "type": "uint256"
        }
      ],
      "name": "setMintTCandTPFee",
      "outputs": [],
      "stateMutability": "nonpayable",
      "type": "function"
    },
    {
      "inputs": [
        {
          "internalType": "address",
          "name": "mocAppreciationBeneficiaryAddress_",
          "type": "address"
        }
      ],
      "name": "setMocAppreciationBeneficiaryAddress",
      "outputs": [],
      "stateMutability": "nonpayable",
      "type": "function"
    },
    {
      "inputs": [
        {
          "internalType": "address",
          "name": "mocFeeFlowAddress_",
          "type": "address"
        }
      ],
      "name": "setMocFeeFlowAddress",
      "outputs": [],
      "stateMutability": "nonpayable",
      "type": "function"
    },
    {
      "inputs": [
        {
          "internalType": "address",
          "name": "mocQueueAddress_",
          "type": "address"
        }
      ],
      "name": "setMocQueue",
      "outputs": [],
      "stateMutability": "nonpayable",
      "type": "function"
    },
    {
      "inputs": [
        {
          "internalType": "address",
          "name": "newPauser_",
          "type": "address"
        }
      ],
      "name": "setPauser",
      "outputs": [],
      "stateMutability": "nonpayable",
      "type": "function"
    },
    {
      "inputs": [
        {
          "internalType": "uint256",
          "name": "protThrld_",
          "type": "uint256"
        }
      ],
      "name": "setProtThrld",
      "outputs": [],
      "stateMutability": "nonpayable",
      "type": "function"
    },
    {
      "inputs": [
        {
          "internalType": "uint256",
          "name": "redeemTCandTPFee_",
          "type": "uint256"
        }
      ],
      "name": "setRedeemTCandTPFee",
      "outputs": [],
      "stateMutability": "nonpayable",
      "type": "function"
    },
    {
      "inputs": [
        {
          "internalType": "uint256",
          "name": "successFee_",
          "type": "uint256"
        }
      ],
      "name": "setSuccessFee",
      "outputs": [],
      "stateMutability": "nonpayable",
      "type": "function"
    },
    {
      "inputs": [
        {
          "internalType": "uint256",
          "name": "swapTCforTPFee_",
          "type": "uint256"
        }
      ],
      "name": "setSwapTCforTPFee",
      "outputs": [],
      "stateMutability": "nonpayable",
      "type": "function"
    },
    {
      "inputs": [
        {
          "internalType": "uint256",
          "name": "swapTPforTCFee_",
          "type": "uint256"
        }
      ],
      "name": "setSwapTPforTCFee",
      "outputs": [],
      "stateMutability": "nonpayable",
      "type": "function"
    },
    {
      "inputs": [
        {
          "internalType": "uint256",
          "name": "swapTPforTPFee_",
          "type": "uint256"
        }
      ],
      "name": "setSwapTPforTPFee",
      "outputs": [],
      "stateMutability": "nonpayable",
      "type": "function"
    },
    {
      "inputs": [
        {
          "internalType": "address",
          "name": "tcInterestCollectorAddress_",
          "type": "address"
        }
      ],
      "name": "setTCInterestCollectorAddress",
      "outputs": [],
      "stateMutability": "nonpayable",
      "type": "function"
    },
    {
      "inputs": [
        {
          "internalType": "uint256",
          "name": "tcInterestPaymentBlockSpan_",
          "type": "uint256"
        }
      ],
      "name": "setTCInterestPaymentBlockSpan",
      "outputs": [],
      "stateMutability": "nonpayable",
      "type": "function"
    },
    {
      "inputs": [
        {
          "internalType": "uint256",
          "name": "tcInterestRate_",
          "type": "uint256"
        }
      ],
      "name": "setTCInterestRate",
      "outputs": [],
      "stateMutability": "nonpayable",
      "type": "function"
    },
    {
      "inputs": [
        {
          "internalType": "uint256",
          "name": "tcMintFee_",
          "type": "uint256"
        }
      ],
      "name": "setTcMintFee",
      "outputs": [],
      "stateMutability": "nonpayable",
      "type": "function"
    },
    {
      "inputs": [
        {
          "internalType": "uint256",
          "name": "tcRedeemFee_",
          "type": "uint256"
        }
      ],
      "name": "setTcRedeemFee",
      "outputs": [],
      "stateMutability": "nonpayable",
      "type": "function"
    },
    {
      "inputs": [],
      "name": "shouldCalculateEma",
      "outputs": [
        {
          "internalType": "bool",
          "name": "",
          "type": "bool"
        }
      ],
      "stateMutability": "view",
      "type": "function"
    },
    {
      "inputs": [],
      "name": "stoppable",
      "outputs": [
        {
          "internalType": "bool",
          "name": "",
          "type": "bool"
        }
      ],
      "stateMutability": "view",
      "type": "function"
    },
    {
      "inputs": [],
      "name": "successFee",
      "outputs": [
        {
          "internalType": "uint256",
          "name": "",
          "type": "uint256"
        }
      ],
      "stateMutability": "view",
      "type": "function"
    },
    {
      "inputs": [],
      "name": "swapTCforTPFee",
      "outputs": [
        {
          "internalType": "uint256",
          "name": "",
          "type": "uint256"
        }
      ],
      "stateMutability": "view",
      "type": "function"
    },
    {
      "inputs": [
        {
          "components": [
            {
              "internalType": "address",
              "name": "tp",
              "type": "address"
            },
            {
              "internalType": "uint256",
              "name": "qTC",
              "type": "uint256"
            },
            {
              "internalType": "uint256",
              "name": "qTPmin",
              "type": "uint256"
            },
            {
              "internalType": "uint256",
              "name": "qACmax",
              "type": "uint256"
            },
            {
              "internalType": "address",
              "name": "sender",
              "type": "address"
            },
            {
              "internalType": "address",
              "name": "recipient",
              "type": "address"
            },
            {
              "internalType": "address",
              "name": "vendor",
              "type": "address"
            }
          ],
          "internalType": "struct MocCommons.SwapTCforTPParams",
          "name": "params_",
          "type": "tuple"
        }
      ],
      "name": "swapTCforTPto",
      "outputs": [
        {
          "internalType": "uint256",
          "name": "qACSurcharges",
          "type": "uint256"
        },
        {
          "internalType": "uint256",
          "name": "qTPtoMint",
          "type": "uint256"
        },
        {
          "internalType": "uint256",
          "name": "qFeeTokenTotalNeeded",
          "type": "uint256"
        },
        {
          "components": [
            {
              "internalType": "uint256",
              "name": "qACFee",
              "type": "uint256"
            },
            {
              "internalType": "uint256",
              "name": "qFeeToken",
              "type": "uint256"
            },
            {
              "internalType": "uint256",
              "name": "qACVendorMarkup",
              "type": "uint256"
            },
            {
              "internalType": "uint256",
              "name": "qFeeTokenVendorMarkup",
              "type": "uint256"
            }
          ],
          "internalType": "struct MocCommons.FeeCalcs",
          "name": "feeCalcs",
          "type": "tuple"
        }
      ],
      "stateMutability": "payable",
      "type": "function"
    },
    {
      "inputs": [],
      "name": "swapTPforTCFee",
      "outputs": [
        {
          "internalType": "uint256",
          "name": "",
          "type": "uint256"
        }
      ],
      "stateMutability": "view",
      "type": "function"
    },
    {
      "inputs": [
        {
          "components": [
            {
              "internalType": "address",
              "name": "tp",
              "type": "address"
            },
            {
              "internalType": "uint256",
              "name": "qTP",
              "type": "uint256"
            },
            {
              "internalType": "uint256",
              "name": "qTCmin",
              "type": "uint256"
            },
            {
              "internalType": "uint256",
              "name": "qACmax",
              "type": "uint256"
            },
            {
              "internalType": "address",
              "name": "sender",
              "type": "address"
            },
            {
              "internalType": "address",
              "name": "recipient",
              "type": "address"
            },
            {
              "internalType": "address",
              "name": "vendor",
              "type": "address"
            }
          ],
          "internalType": "struct MocCommons.SwapTPforTCParams",
          "name": "params_",
          "type": "tuple"
        }
      ],
      "name": "swapTPforTCto",
      "outputs": [
        {
          "internalType": "uint256",
          "name": "qACSurcharges",
          "type": "uint256"
        },
        {
          "internalType": "uint256",
          "name": "qTCtoMint",
          "type": "uint256"
        },
        {
          "internalType": "uint256",
          "name": "qFeeTokenTotalNeeded",
          "type": "uint256"
        },
        {
          "components": [
            {
              "internalType": "uint256",
              "name": "qACFee",
              "type": "uint256"
            },
            {
              "internalType": "uint256",
              "name": "qFeeToken",
              "type": "uint256"
            },
            {
              "internalType": "uint256",
              "name": "qACVendorMarkup",
              "type": "uint256"
            },
            {
              "internalType": "uint256",
              "name": "qFeeTokenVendorMarkup",
              "type": "uint256"
            }
          ],
          "internalType": "struct MocCommons.FeeCalcs",
          "name": "feeCalcs",
          "type": "tuple"
        }
      ],
      "stateMutability": "payable",
      "type": "function"
    },
    {
      "inputs": [],
      "name": "swapTPforTPFee",
      "outputs": [
        {
          "internalType": "uint256",
          "name": "",
          "type": "uint256"
        }
      ],
      "stateMutability": "view",
      "type": "function"
    },
    {
      "inputs": [
        {
          "components": [
            {
              "internalType": "address",
              "name": "tpFrom",
              "type": "address"
            },
            {
              "internalType": "address",
              "name": "tpTo",
              "type": "address"
            },
            {
              "internalType": "uint256",
              "name": "qTP",
              "type": "uint256"
            },
            {
              "internalType": "uint256",
              "name": "qTPmin",
              "type": "uint256"
            },
            {
              "internalType": "uint256",
              "name": "qACmax",
              "type": "uint256"
            },
            {
              "internalType": "address",
              "name": "sender",
              "type": "address"
            },
            {
              "internalType": "address",
              "name": "recipient",
              "type": "address"
            },
            {
              "internalType": "address",
              "name": "vendor",
              "type": "address"
            }
          ],
          "internalType": "struct MocCommons.SwapTPforTPParams",
          "name": "params_",
          "type": "tuple"
        }
      ],
      "name": "swapTPforTPto",
      "outputs": [
        {
          "internalType": "uint256",
          "name": "qACSurcharges",
          "type": "uint256"
        },
        {
          "internalType": "uint256",
          "name": "qTPtoMint",
          "type": "uint256"
        },
        {
          "internalType": "uint256",
          "name": "qFeeTokenTotalNeeded",
          "type": "uint256"
        },
        {
          "components": [
            {
              "internalType": "uint256",
              "name": "qACFee",
              "type": "uint256"
            },
            {
              "internalType": "uint256",
              "name": "qFeeToken",
              "type": "uint256"
            },
            {
              "internalType": "uint256",
              "name": "qACVendorMarkup",
              "type": "uint256"
            },
            {
              "internalType": "uint256",
              "name": "qFeeTokenVendorMarkup",
              "type": "uint256"
            }
          ],
          "internalType": "struct MocCommons.FeeCalcs",
          "name": "feeCalcs",
          "type": "tuple"
        }
      ],
      "stateMutability": "payable",
      "type": "function"
    },
    {
      "inputs": [],
      "name": "tcInterestCollectorAddress",
      "outputs": [
        {
          "internalType": "address",
          "name": "",
          "type": "address"
        }
      ],
      "stateMutability": "view",
      "type": "function"
    },
    {
      "inputs": [],
      "name": "tcInterestPaymentBlockSpan",
      "outputs": [
        {
          "internalType": "uint256",
          "name": "",
          "type": "uint256"
        }
      ],
      "stateMutability": "view",
      "type": "function"
    },
    {
      "inputs": [],
      "name": "tcInterestRate",
      "outputs": [
        {
          "internalType": "uint256",
          "name": "",
          "type": "uint256"
        }
      ],
      "stateMutability": "view",
      "type": "function"
    },
    {
      "inputs": [],
      "name": "tcMintFee",
      "outputs": [
        {
          "internalType": "uint256",
          "name": "",
          "type": "uint256"
        }
      ],
      "stateMutability": "view",
      "type": "function"
    },
    {
      "inputs": [],
      "name": "tcRedeemFee",
      "outputs": [
        {
          "internalType": "uint256",
          "name": "",
          "type": "uint256"
        }
      ],
      "stateMutability": "view",
      "type": "function"
    },
    {
      "inputs": [],
      "name": "tcToken",
      "outputs": [
        {
          "internalType": "contract MocTC",
          "name": "",
          "type": "address"
        }
      ],
      "stateMutability": "view",
      "type": "function"
    },
    {
      "inputs": [
        {
          "internalType": "uint256",
          "name": "",
          "type": "uint256"
        }
      ],
      "name": "tpCtarg",
      "outputs": [
        {
          "internalType": "uint256",
          "name": "",
          "type": "uint256"
        }
      ],
      "stateMutability": "view",
      "type": "function"
    },
    {
      "inputs": [
        {
          "internalType": "uint256",
          "name": "",
          "type": "uint256"
        }
      ],
      "name": "tpEma",
      "outputs": [
        {
          "internalType": "uint256",
          "name": "ema",
          "type": "uint256"
        },
        {
          "internalType": "uint256",
          "name": "sf",
          "type": "uint256"
        }
      ],
      "stateMutability": "view",
      "type": "function"
    },
    {
      "inputs": [
        {
          "internalType": "uint256",
          "name": "",
          "type": "uint256"
        }
      ],
      "name": "tpLiqPrices",
      "outputs": [
        {
          "internalType": "uint256",
          "name": "",
          "type": "uint256"
        }
      ],
      "stateMutability": "view",
      "type": "function"
    },
    {
      "inputs": [
        {
          "internalType": "address",
          "name": "",
          "type": "address"
        }
      ],
      "name": "tpMintFees",
      "outputs": [
        {
          "internalType": "uint256",
          "name": "",
          "type": "uint256"
        }
      ],
      "stateMutability": "view",
      "type": "function"
    },
    {
      "inputs": [
        {
          "internalType": "address",
          "name": "",
          "type": "address"
        }
      ],
      "name": "tpRedeemFees",
      "outputs": [
        {
          "internalType": "uint256",
          "name": "",
          "type": "uint256"
        }
      ],
      "stateMutability": "view",
      "type": "function"
    },
    {
      "inputs": [
        {
          "internalType": "uint256",
          "name": "",
          "type": "uint256"
        }
      ],
      "name": "tpTokens",
      "outputs": [
        {
          "internalType": "contract IMocRC20",
          "name": "",
          "type": "address"
        }
      ],
      "stateMutability": "view",
      "type": "function"
    },
    {
      "inputs": [],
      "name": "unpause",
      "outputs": [],
      "stateMutability": "nonpayable",
      "type": "function"
    },
    {
      "inputs": [],
      "name": "updateEmas",
      "outputs": [],
      "stateMutability": "nonpayable",
      "type": "function"
    },
    {
      "inputs": [
        {
          "internalType": "address",
          "name": "newImplementation",
          "type": "address"
        }
      ],
      "name": "upgradeTo",
      "outputs": [],
      "stateMutability": "nonpayable",
      "type": "function"
    },
    {
      "inputs": [
        {
          "internalType": "address",
          "name": "newImplementation",
          "type": "address"
        },
        {
          "internalType": "bytes",
          "name": "data",
          "type": "bytes"
        }
      ],
      "name": "upgradeToAndCall",
      "outputs": [],
      "stateMutability": "payable",
      "type": "function"
    }
  ],
  "bytecode": "0x60a08060405234620000e157306080526000549060ff8260081c166200008f575060ff8082160362000053575b604051613f209081620000e78239608051818181611edc0152818161204d01526122d30152f35b60ff90811916176000557f7f26b83ff96e1f2b6a682f133852f6798a09c465da95921460cefb3847402498602060405160ff8152a1386200002c565b62461bcd60e51b815260206004820152602760248201527f496e697469616c697a61626c653a20636f6e747261637420697320696e697469604482015266616c697a696e6760c81b6064820152608490fd5b600080fdfe6080604052600436101561001257600080fd5b600060e08135811c90816301dde6ef146127d857816301f1b68414612790578163073763b91461276c5781630c340a24146127435781630c36d897146127245781630d6ac463146126de5781630db49656146126bf5781630e0a8fd21461269b5781630f1e5e2b1461265557816313ed7ba51461262b5781631867e2f51461260c5781631fe6a7ad146125d25781632069f753146125ae57816323b98cde1461258757816324ffaba31461254957816327eab2a1146125035781632a20d57d146124e45781632c43bd3b146124c05781632d88af4a146124695781632ded50f01461244a578163333431fd1461242b57816333421c381461233a5781633659cfe6146122a15781633915edcb146122725781633bc4ac0a1461224e5781633cfb09ef146122085781633f4ba83a1461218d578163407f0e341461216e5781634b746001146121215781634d977e78146121025781634e1f907a146120d85781634f0f27ee146120b95781634f1ef28614611fc55781635210570c14611f9f57816352d1902d14611ec9578163543aeb4814611ea55781635860ee6314611e865781635c975abb14611e605781635cfbe57814611e4157816360009e0b14611e17578163647846a514611ded57816364ec230a14611dc9578163662013f414611da55781636827435714611d7c5781636845c44514611b7d5781636b5488df14611b5e5781636f30471f14611b3f5781637071346814611b1b578163735d396014611ad557816373e28af914611ab15781637554fffd14611a925781637622805514611a735781637750ba0c14611a4f57816379f9a91c14611a305781637a193c3114611a115781637a4ff1d9146119ed5781637a727fe8146119ce5781637af5758c146119aa5781637b5a17ae146117df5781637cba2383146117bb5781637d8e03141461177e5781637f01c715146117545781637f13b998146117205781637f4a4fe0146117015781638456cb591461166a57816385bf9593146116245781638cfa4241146116055781638e2bdb86146115db5781639853c35a146115b15781639ad6659d146115775781639cabfc001461152a5781639fd0506d146114fd578163a8e9ac30146114db578163aea038dc146114bc578163b5e9ea8c14611492578163b9fa641314611473578163bb4872de14611450578163becaca6b1461142c578163c00f538d14611408578163c84353c9146113e4578163cf351c1d1461139e578163d1a0faa014611382578163d6af11da14611340578163d87aab6f14611321578163d8db6f5a146112db578163d9b6c2e514611153578163db79607214610edb578163ddb6d19014610e9d578163e1e121da14610c41578163e44bb51214610a3f578163e4c0aaf4146109fa578163e6b1627c146109b7578163e7c2597814610993578163ee1f438f14610969578163f13f40541461093f578163f26114aa14610750578163f28087781461072c578163f30b56141461070d578163f375cfba146106ee578163f5571e011461054657508063fa6e83bd14610527578063fadda424146104ae5763fda70f8b1461048d57600080fd5b346104ab57806003193601126104ab57602061013c54604051908152f35b80fd5b50346104ab5760203660031901126104ab576001600160a01b036004358181168103610522576104ea6104e2600192613106565b61013761283e565b500154166104f781613185565b9190911561050a57602082604051908152f35b60249060405190637f6e4db960e01b82526004820152fd5b600080fd5b50346104ab57806003193601126104ab57602061013a54604051908152f35b36600319011290506104ab5761055d3660046128ae565b9061056661342d565b5061056f6131e7565b906105f060018060a01b039161058783865116613106565b926105aa6105958587612dc7565b51956105a187876135d8565b61014954613595565b6105ea60208996939601976105e56105c3828b51613ec6565b976105e06105d68c516101345490612eff565b9561013154612fc4565b612fc4565b612eff565b90613ec6565b95604081015180881080156106e6575b6106c8575061062182608083015116858460c08501511661013f5492613658565b96919790956060840151808a116106a957509261065886610662969460a09461065160016106a59d9c9b996138f0565b51906139aa565b015116908761351e565b604051948594859293606091959460c09360e086019786526020860152604085015280518285015260208101516080850152604081015160a08501520151910152565b0390f35b604490895160405191630b63f1a760e01b835260048301526024820152fd5b604490886040519163f577bef560e01b835260048301526024820152fd5b508715610600565b82346104ab57806003193601126104ab57602061014154604051908152f35b82346104ab57806003193601126104ab57602061013154604051908152f35b82346104ab5760203660031901126104ab57610746613e17565b60043561013c5580f35b90503461093b573660031901126104ab576004356001600160a01b0381811691829003610522578183526101366020526040832060ff60016040519261079760408561285a565b8054845201541615801560208301526108ed57519060243590808216809203610522576101379060016107ca858461283e565b500154168203610873575b847f6417e5a3c1e0e5dae98b8fe718c4babdfcb35e0d7b5e1b9641b5914756f5d8e36004858761082661080a836101486127fc565b6044929192359083549060031b91821b91600019901b19161790565b90558085526101446020526064356040862055845261014560205260843560408520556108558161018e61283e565b50600160c43591015561086d604051928392836133c5565b0390a180f35b9190926040516359e02dd760e01b8152604081600481885afa9081156109305786916108ff575b50156108ed577f6417e5a3c1e0e5dae98b8fe718c4babdfcb35e0d7b5e1b9641b5914756f5d8e39360016108d08460049661283e565b5001906001600160601b0360a01b825416179055928192506107d5565b60405163e6c4247b60e01b8152600490fd5b610921915060403d604011610929575b610919818361285a565b81019061316b565b90503861089a565b503d61090f565b6040513d88823e3d90fd5b5080fd5b82346104ab57806003193601126104ab57610130546040516001600160a01b039091168152602090f35b82346104ab57806003193601126104ab57610152546040516001600160a01b039091168152602090f35b82346104ab57806003193601126104ab57602060ff61014b54166040519015158152f35b82346104ab5760203660031901126104ab576004359061018e9081548310156104ab5760406109e6848461283e565b506001815491015482519182526020820152f35b82346104ab5760203660031901126104ab576004356001600160a01b0381169081900361093b57610a29613e17565b6001600160601b0360a01b609754161760975580f35b8260c03660031901126104ab5760405190610a5b60c08361285a565b6001600160a01b039060043582811681036105225783526020830160243581526040840192604435845260643590808216820361052257606086019182526084358181168103610522576080870190815260a4359482861686036105225760a08801958652610ac861342d565b50610add83610ad56131e7565b995116613106565b91610b00610aeb848b612dc7565b5199610af78b866135d8565b61014a54613595565b99610b1788519b610b118388613c22565b93613629565b91670de0b6b3a763ffff198101908111610c2d5781610b39610b3e928e612eff565b612f12565b98670de0b6b3a764000092838b02908b820485148c151715610c1757610b6391612f12565b9b838102938185041490151715610c1757610bae9787610b91610b8a610ba3958397612f12565b809d612ddb565b98899251169251166101425492613658565b989187989198612ddb565b9951808b11610bf957508915610be757610bdd61066296610bd2866106a59c6138f0565b83855116908d61351e565b5191511692613454565b60405163f3e39b5d60e01b8152600490fd5b6044908b60405191630b63f1a760e01b835260048301526024820152fd5b634e487b7160e01b600052601160045260246000fd5b634e487b7160e01b85526011600452602485fd5b905061010080600319360112610e9957610c5e604051918261285a565b6004356001600160a01b03811681036105225781526024356001600160a01b038116810361052257602082019081526044356040830152606082019360643585526080830191608435835260a4359460018060a01b03861686036105225760a0850195865260c4356001600160a01b03811681036105225760c086015260e435906001600160a01b0382168203610522578501908152610cfc61342d565b50845182516001600160a01b03908116911614610e87578451610d3b90610d2b906001600160a01b0316613106565b92516001600160a01b0316613106565b95610d458361312f565b90610d4f8861312f565b610d5983866135d8565b610d63818a6135d8565b610d718360408a0151613ec6565b92610d8481610b398460408d0151612eff565b9a51808c108015610e7f575b610e615750908a8a610dd796959493610db3610dac8584613c22565b918a613c22565b10610e32575b50509051925161013e54936001600160a01b03918216925016613658565b959196909451808811610e1357509160408492610e0b610662956106a59998978c60018060a01b0360c08601511692613454565b0151906139aa565b604490875160405191630b63f1a760e01b835260048301526024820152fd5b610e51610e5993610e41613d83565b610e49613cc5565b819391613595565b949093613a95565b388a8a610db9565b6044908c6040519163272e3f5960e21b835260048301526024820152fd5b508b15610d90565b604051632a9ffab760e21b8152600490fd5b8280fd5b82346104ab5760203660031901126104ab576004356001600160a01b0381169081900361052257816040916020935261014583522054604051908152f35b90503461093b573660031901126104ab576004356001600160a01b03818116918290036105225760248035828116809103610522578385526101369360209085825260019260ff8460408a20015416611141576101359586549785604051610f4460408261285a565b8a815286810192828452868d52875260408c2090518155019051151560ff801983541691161790558654600160401b978882101561112e5790610f8b9187820181556127fc565b81549060031b908386831b921b1916179055604051610fab60408261285a565b8981528481019283526101378054908982101561111b5790610fd191888201815561283e565b91909161110857908691518155019151166001600160601b0360a01b82541617905561100160443561014861301b565b808752610144825260643560408820558652610145815260843560408720556040519061102f60408361285a565b60a4358252810160c435815261018e805490868210156110f5579061105891858201815561283e565b9290926110e25790839151835551910155610150918254938410156110d05750827f6417e5a3c1e0e5dae98b8fe718c4babdfcb35e0d7b5e1b9641b5914756f5d8e394926110ab926004950181556127fc565b50506110c16110b98261312f565b61015161301b565b61086d604051928392836133c5565b634e487b7160e01b8652604160045285fd5b634e487b7160e01b885260048890528488fd5b634e487b7160e01b895260416004528589fd5b634e487b7160e01b8b5260048b9052878bfd5b634e487b7160e01b8c526041600452888cfd5b634e487b7160e01b8b526041600452878bfd5b604051633458f6c560e01b8152600490fd5b36600319011290506104ab5761116a3660046128ae565b9061117361342d565b5061117c613d83565b611184613cc5565b929060018060a01b039261119a84845116613106565b906111ba6111a88388612dc7565b51966111b488856135d8565b84613595565b602086979297019687516111cf838389613bda565b8181106112bd575050906111fb918851670de0b6b3a76400009384916111f58585613629565b90612eff565b04968715610be7576112379361122e6112248d6105e58e516111f5886105e08b61013154612fc4565b6101345490612f12565b049a8b88613a95565b604085015180881061129f575061126081608087015116858360c0890151166101405492613658565b96919790956060830151808a116106a957509260a08593611296858d956112906106629a6106a59e9d9c9a6138f0565b51613a34565b01511692613454565b604490886040519163272e3f5960e21b835260048301526024820152fd5b604492506040519163a5db715d60e01b835260048301526024820152fd5b82346104ab5760203660031901126104ab576004356001600160a01b038116908190036105225761130a613e17565b61015280546001600160a01b031916909117905580f35b82346104ab57806003193601126104ab57602061015554604051908152f35b82346104ab57806003193601126104ab57602061137a6113606001613221565b61137461136d8284612f32565b9183612e76565b91613268565b604051908152f35b82346104ab57806003193601126104ab5761139b613d83565b80f35b82346104ab5760203660031901126104ab576004356001600160a01b03811690819003610522576113cd613e17565b61012f80546001600160a01b031916909117905580f35b82346104ab5760203660031901126104ab576113fe613e17565b60043561014c5580f35b82346104ab5760203660031901126104ab57611422613e17565b60043561013d5580f35b82346104ab5760203660031901126104ab57611446613e17565b6004356101395580f35b82346104ab57806003193601126104ab57602060ff60ca54166040519015158152f35b82346104ab57806003193601126104ab57602061015b54604051908152f35b82346104ab57806003193601126104ab57610153546040516001600160a01b039091168152602090f35b82346104ab57806003193601126104ab57602061013d54604051908152f35b82346104ab57806003193601126104ab57602061018f54431015604051908152f35b82346104ab57806003193601126104ab5760ca5460405160109190911c6001600160a01b03168152602090f35b82346104ab5760203660031901126104ab576004356001600160a01b0381169081900361052257604082819281526101366020522060ff6001825492015416825191825215156020820152f35b82346104ab57806003193601126104ab5760206115a361159d6115986131e7565b612de8565b90612fa6565b61014a541015604051908152f35b82346104ab57806003193601126104ab57610146546040516001600160a01b039091168152602090f35b82346104ab57806003193601126104ab57610158546040516001600160a01b039091168152602090f35b82346104ab57806003193601126104ab57602061014a54604051908152f35b82346104ab5760203660031901126104ab576004356001600160a01b0381169081900361052257611653613e17565b61015380546001600160a01b031916909117905580f35b82346104ab57806003193601126104ab57611683613ea5565b60ca54601081901c6001600160a01b031633036116ef5760ff8116156116dd576101009061ff0019161760ca557f62e78cea01bee320cd4e420270b5ea74000d11b0c9f74754ebdbfc544b05a2586020604051338152a180f35b60405163866099c360e01b8152600490fd5b604051631d77d47760e21b8152600490fd5b82346104ab57806003193601126104ab57602061015a54604051908152f35b82346104ab57806003193601126104ab57602061137a6117406001613221565b61137461174d8284612e76565b9183612f32565b82346104ab57806003193601126104ab576101c3546040516001600160a01b039091168152602090f35b82346104ab5760203660031901126104ab57600435906101489081548310156104ab5760206117ad84846127fc565b90546040519160031b1c8152f35b82346104ab5760203660031901126104ab576117d5613e17565b6004356101495580f35b36600319011290506104ab576117f63660046128ae565b6117fe61342d565b50611807613d83565b61180f613cc5565b82519192916001600160a01b0390611828908216613106565b906118426118368385612dc7565b5193610af785856135d8565b95670de0b6b3a763ffff1990818101908111611996576118629086612eff565b61186c8686613c22565b918201918211611996576118b09493929161188691612f12565b9061189a60208801926105e5838551612eff565b670de0b6b3a76400009586916101345490612f12565b04976040880151808a1161197857506118cb90835192613629565b958589029089820487148a151715610c17576118e691612f12565b908115610be75761190a61192f9661190360609961192494612eff565b0483612ddb565b93848160808b0151169160c08b0151166101415492613658565b979185979197612fc4565b97015180881061195a5750926119558899936106a59899936112906001610662986138f0565b6139aa565b60449088604051916354cde31360e01b835260048301526024820152fd5b6044908a60405191637a031da360e11b835260048301526024820152fd5b634e487b7160e01b89526011600452602489fd5b82346104ab5760203660031901126104ab576119c4613e17565b6004356101405580f35b82346104ab57806003193601126104ab57602061019054604051908152f35b82346104ab5760203660031901126104ab57611a07613e17565b6004356101415580f35b82346104ab57806003193601126104ab57602061013454604051908152f35b82346104ab57806003193601126104ab57602061014254604051908152f35b82346104ab5760203660031901126104ab57611a69613e17565b60043561013b5580f35b82346104ab57806003193601126104ab57602061015654604051908152f35b82346104ab57806003193601126104ab57602061013954604051908152f35b82346104ab5760203660031901126104ab57611acb613e17565b6004356101545580f35b82346104ab5760203660031901126104ab576004356001600160a01b0381169081900361052257611b04613e17565b61015880546001600160a01b031916909117905580f35b82346104ab5760203660031901126104ab57611b35613e17565b60043561013e5580f35b82346104ab57806003193601126104ab57602061015454604051908152f35b82346104ab57806003193601126104ab57602061014954604051908152f35b82346104ab5760803660031901126104ab576004356001600160a01b038181169290838303610522576024358181169182820361052257604435818116809103610522576064359560ff61014b5460081c1615611d6a57611bdd90613106565b90611bea826101356127fc565b95905498604051966370a0823160e01b8852826004890152876024818860209e8f9560031b1c165afa968715611d5f578897611d30575b508615611d1257611c44611c37856101386127fc565b90549060031b1c88613ec6565b98898110611d08575b5090611c8c9392917ffaab3901cd2d6e9b5d0a0c6e34c643b8c844726f3c54de69517e571bf24bbd9260408c8c8251918c8352820152a46101356127fc565b90549060031b1c1690813b15611d0457604051632770a7eb60e21b81526001600160a01b03919091166004820152602481019290925282908290604490829084905af18015611cf957611ce4575b5050604051908152f35b611cef82809261285a565b6104ab5780611cda565b6040513d84823e3d90fd5b8380fd5b9850611c8c611c4d565b60448760405190633fe8c5eb60e01b82528060048301526024820152fd5b9096508981813d8311611d58575b611d48818361285a565b810103126105225751958a611c21565b503d611d3e565b6040513d8a823e3d90fd5b60405163031b0d3560e11b8152600490fd5b82346104ab57806003193601126104ab57611d95613e17565b600160ff1960ca54161760ca5580f35b82346104ab57806003193601126104ab576020611dc0613cc5565b50604051908152f35b82346104ab5760203660031901126104ab57611de3613e17565b6004356101595580f35b82346104ab57806003193601126104ab5761012f546040516001600160a01b039091168152602090f35b82346104ab57806003193601126104ab57610133546040516001600160a01b039091168152602090f35b82346104ab57806003193601126104ab57602061014e54604051908152f35b82346104ab57806003193601126104ab57602060ff60ca5460081c166040519015158152f35b82346104ab57806003193601126104ab57602061015754604051908152f35b82346104ab5760203660031901126104ab57611ebf613e17565b6004356101435580f35b82346104ab57806003193601126104ab577f00000000000000000000000000000000000000000000000000000000000000006001600160a01b03163003611f345760206040517f360894a13ba1a3210667c828492db98dca3e2076cc3735a920a3ca505d382bbc8152f35b60405162461bcd60e51b815260206004820152603860248201527f555550535570677261646561626c653a206d757374206e6f742062652063616c60448201527f6c6564207468726f7567682064656c656761746563616c6c00000000000000006064820152608490fd5b82346104ab57806003193601126104ab57611fb8613e17565b60ff1960ca541660ca5580f35b8260403660031901126104ab576001600160a01b0360043581811681036105225782916024359167ffffffffffffffff83116120b457366023840112156120b457826004013561201481612892565b92612022604051948561285a565b81845236602483870101116120b05761139b956020836120a3946024600199018389013786010152807f0000000000000000000000000000000000000000000000000000000000000000169061207a82301415612926565b7f360894a13ba1a3210667c828492db98dca3e2076cc3735a920a3ca505d382bbc541614612987565b6120ab613e17565b6129e8565b8580fd5b505050fd5b82346104ab57806003193601126104ab57602061013b54604051908152f35b82346104ab57806003193601126104ab57610147546040516001600160a01b039091168152602090f35b82346104ab57806003193601126104ab57602061014c54604051908152f35b82346104ab5760203660031901126104ab57600435906101379081548310156104ab576040612150848461283e565b50805460019091015482519182526001600160a01b03166020820152f35b82346104ab57806003193601126104ab57602061013e54604051908152f35b82346104ab57806003193601126104ab5760ca5460ff8160081c16156121f657601081901c6001600160a01b031633036116ef5761ff00191660ca557f5db9ee0a495bf2e6ff9c91a7834c1ba4fdd244a5e8aa4e537bd38aeae4b073aa6020604051338152a180f35b604051637c7fd07960e01b8152600490fd5b82346104ab5760203660031901126104ab576004356001600160a01b0381169081900361052257612237613e17565b61014f80546001600160a01b031916909117905580f35b82346104ab5760203660031901126104ab57612268613e17565b6004356101905580f35b82346104ab5760203660031901126104ab57600435906101389081548310156104ab5760206117ad84846127fc565b82346104ab5760203660031901126104ab576004356001600160a01b0380821682036105225761139b916123008285937f0000000000000000000000000000000000000000000000000000000000000000169061207a82301415612926565b612308613e17565b61231182612892565b9061231f604051928361285a565b828252601f1961232e84612892565b013660208401376129e8565b82346104ab57806003193601126104ab57612353613ea5565b61014b805460ff81168061241d575b80612403575b612370578280f35b61ff0019166101001790556040517f8b77276c97a5709f0d6db52329848a254eb760ce8be80d281799f633bdb69e838280a16101335482906001600160a01b0316803b1561093b5782600481848094638456cb5960e01b83525af180156123f6576123e6575b50506123e0613058565b81808280f35b6123ef9161285a565b81816123d6565b50604051903d90823e3d90fd5b5061241261159d6115986131e7565b61014a541015612368565b5060ff8160081c1615612362565b82346104ab57806003193601126104ab57602061013f54604051908152f35b82346104ab57806003193601126104ab57602061014354604051908152f35b82346104ab5760203660031901126104ab576004356001600160a01b038116810361093b57612496613e17565b60ca805462010000600160b01b03191660109290921b62010000600160b01b031691909117905580f35b82346104ab5760203660031901126104ab576124da613e17565b60043561014a5580f35b82346104ab57806003193601126104ab57602061014054604051908152f35b82346104ab5760203660031901126104ab576004356001600160a01b0381169081900361093b57612532613e17565b61014780546001600160a01b031916909117905580f35b82346104ab5760203660031901126104ab576004356001600160a01b0381169081900361093b57816040916020935261014483522054604051908152f35b82346104ab57806003193601126104ab57602060ff61014b5460081c166040519015158152f35b82346104ab5760203660031901126104ab576125c8613e17565b6004356101425580f35b82346104ab5760203660031901126104ab5760043580151580910361093b576125f9613e17565b61014b9060ff8019835416911617905580f35b82346104ab57806003193601126104ab57602061014d54604051908152f35b82346104ab57806003193601126104ab5761014f546040516001600160a01b039091168152602090f35b82346104ab5760203660031901126104ab576004356001600160a01b0381169081900361093b57612684613e17565b61013080546001600160a01b031916909117905580f35b82346104ab5760203660031901126104ab576126b5613e17565b60043561013f5580f35b82346104ab57806003193601126104ab57602061015954604051908152f35b82346104ab5760203660031901126104ab576004356001600160a01b0381169081900361093b5761270d613e17565b61014680546001600160a01b031916909117905580f35b82346104ab57806003193601126104ab57602061018f54604051908152f35b82346104ab57806003193601126104ab576097546040516001600160a01b039091168152602090f35b82346104ab5760203660031901126104ab57612786613e17565b60043561015a5580f35b82346104ab5760203660031901126104ab57600435906101359081548310156104ab5760206127bf84846127fc565b905460405160039290921b1c6001600160a01b03168152f35b82346104ab5760203660031901126104ab576127f2613e17565b60043561013a5580f35b80548210156128145760005260206000200190600090565b634e487b7160e01b600052603260045260246000fd5b35906001600160a01b038216820361052257565b80548210156128145760005260206000209060011b0190600090565b90601f8019910116810190811067ffffffffffffffff82111761287c57604052565b634e487b7160e01b600052604160045260246000fd5b67ffffffffffffffff811161287c57601f01601f191660200190565b91908260e0910312610522576040516128c860e08261285a565b60c06129218183956128d98161282a565b85526020810135602086015260408101356040860152606081013560608601526129056080820161282a565b608086015261291660a0820161282a565b60a08601520161282a565b910152565b1561292d57565b60405162461bcd60e51b815260206004820152602c60248201527f46756e6374696f6e206d7573742062652063616c6c6564207468726f7567682060448201526b19195b1959d85d1958d85b1b60a21b6064820152608490fd5b1561298e57565b60405162461bcd60e51b815260206004820152602c60248201527f46756e6374696f6e206d7573742062652063616c6c6564207468726f7567682060448201526b6163746976652070726f787960a01b6064820152608490fd5b909160ff7f4910fdfa16fed3260ed0e7147f7cc6da11a60208b5b9406d12a635614ffd91435416600014612a235750612a219150612c51565b565b604080516352d1902d60e01b8152602094919392906001600160a01b038416908681600481855afa60009181612c22575b50612ab457855162461bcd60e51b815260048101889052602e60248201527f45524331393637557067726164653a206e657720696d706c656d656e7461746960448201526d6f6e206973206e6f74205555505360901b6064820152608490fd5b9395929492937fc9f76b5ec45e5cdef99837d7b6d2467235c1df8933c8ca56df5c35afa2c7d44401612bcc57612ae986612c51565b7fbc7cd75a20ee27fd9adebab32041f755214dbc6bffa90cc0225b39da2e5c2d3b600080a283511590811591612bc4575b50612b26575b50505050565b612bb093600080612b376027612892565b95612b448551978861285a565b602787527f416464726573733a206c6f772d6c6576656c2064656c65676174652063616c6c86880152660819985a5b195960ca1b858801528581519101845af4913d15612bba573d612ba1612b9882612892565b9251928361285a565b8152600081943d92013e612cf3565b5038808080612b20565b5060609250612cf3565b905038612b1a565b825162461bcd60e51b815260048101859052602960248201527f45524331393637557067726164653a20756e737570706f727465642070726f786044820152681a58589b195555525160ba1b6064820152608490fd5b90918882813d8311612c4a575b612c39818361285a565b810103126104ab5750519038612a54565b503d612c2f565b803b15612c98577f360894a13ba1a3210667c828492db98dca3e2076cc3735a920a3ca505d382bbc80546001600160a01b0319166001600160a01b03909216919091179055565b60405162461bcd60e51b815260206004820152602d60248201527f455243313936373a206e657720696d706c656d656e746174696f6e206973206e60448201526c1bdd08184818dbdb9d1c9858dd609a1b6064820152608490fd5b91929015612d555750815115612d07575090565b3b15612d105790565b60405162461bcd60e51b815260206004820152601d60248201527f416464726573733a2063616c6c20746f206e6f6e2d636f6e74726163740000006044820152606490fd5b825190915015612d685750805190602001fd5b6040519062461bcd60e51b82528160208060048301528251908160248401526000935b828510612dae575050604492506000838284010152601f80199101168101030190fd5b8481018201518686016044015293810193859350612d8b565b80518210156128145760209160051b010190565b91908201809211610c1757565b906000916000906101378054906000925b828410612e1f5750505050612e1b670de0b6b3a7640000916101395490612eff565b0490565b9091929395612e6c612e5b612e66600193612e60612e3d8a88612dc7565b51612e48818c612e92565b9590612e548d8c61283e565b5054612ddb565b613ec6565b90612ddb565b98612ddb565b9401929190612df9565b91909160008382019384129112908015821691151617610c1757565b9190600090612ec081600095612eb6612ead826101506127fc565b93905492612f4b565b9160031b1c612e76565b60008113612ecf575b50509190565b612ef7919450612ef192508094670de0b6b3a764000093849161013a54612eff565b04612eff565b043880612ec9565b81810292918115918404141715610c1757565b8115612f1c570490565b634e487b7160e01b600052601260045260246000fd5b81810392916000138015828513169184121617610c1757565b612f578161013761283e565b505490670de0b6b3a764000091828102928184041490151715610c1757612fa392612f97612f8a612f9d936101516127fc565b90549060031b1c84612f12565b92612f12565b90612f32565b90565b8015612fbc57612e5b612fa39261013154612fc4565b505060001990565b91908203918211610c1757565b67ffffffffffffffff811161287c5760051b60200190565b90612ff382612fd1565b613000604051918261285a565b8281528092613011601f1991612fd1565b0190602036910137565b805490600160401b82101561287c578161303d916001613054940181556127fc565b819391549060031b91821b91600019901b19161790565b9055565b610131548015613103576101379081549160009061307584612fe9565b9082905b8582106130bf57505060005b848110613093575050505050565b806130b96130b186610b39876130ab60019789612dc7565b51612eff565b61013861301b565b01613085565b90926130fb6001916130d08661312f565b6130da8787612dc7565b52612e606130e8878661283e565b50546130f48888612dc7565b5190613ec6565b930190613079565b50565b6001600160a01b0316600090815261013660205260409020600181015460ff16156108ed575490565b61313b9061013761283e565b50600101546001600160a01b031661315281613185565b9190911561050a575090565b5190811515820361052257565b919082604091031261052257612fa360208351930161315e565b604080516359e02dd760e01b81529291839060049082906001600160a01b03165afa9182156131db5760009081936131bc57509190565b90506131d791925060403d811161092957610919818361285a565b9091565b6040513d6000823e3d90fd5b61013754906131f582612fe9565b9160005b818110613204575050565b8061321060019261312f565b61321a8287612dc7565b52016131f9565b90613242670de0b6b3a7640000928361015754610154549243010302612f12565b8281101561325f5782039180836101555402049261015654020590565b50600091508190565b90916132726132ca565b9290808210156132c057839161328791612fc4565b9311156132bb57818110156132b35761329f91612fc4565b60011c808210156132ae575090565b905090565b505050600090565b505090565b5050505050600090565b61015254604080516359e02dd760e01b80825293929091906001600160a01b039081168284600481845afa80156133ba576000948591613397575b5015613380575061015354169080519485528085600481855afa8015613375576000958691613352575b501561333b5750509190565b6024925051906305e8989360e11b82526004820152fd5b90508161336c9296503d871161092957610919818361285a565b9490943861332f565b50513d6000823e3d90fd5b6024908351906305e8989360e11b82526004820152fd5b90506133b1919450833d851161092957610919818361285a565b93909338613305565b83513d6000823e3d90fd5b9081526101008101929160e09060c0906001600160a01b03806133e78361282a565b1660208601526133f96020830161282a565b1660408501526040810135606085015260608101356080850152608081013560a085015260a0810135828501520135910152565b6040519061343c60808361285a565b60006060838281528260208201528260408201520152565b6134cc9361349360009260209561346d8261013761283e565b50613479878254612ddb565b9055613489610131918254612ddb565b90556101356127fc565b90546040516340c10f1960e01b81526001600160a01b039093166004840152602483019490945290948593928492909183906044820190565b039360039190911b1c6001600160a01b03165af180156131db576134ed5750565b6020813d8211613516575b816135056020938361285a565b81010312610522576131039061315e565b3d91506134f8565b61358492602092610134613533848254612ddb565b9055613543610131918254612ddb565b9055610133546040516340c10f1960e01b81526001600160a01b03928316600482015260248101939093529193849290911690829060009082906044820190565b03925af180156131db576134ed5750565b91906135a090612de8565b9190926135ad8385612fa6565b90808211156135ba575050565b6044925060405191637912120160e01b835260048301526024820152fd5b61303d613054916135e98482612f4b565b61361f6135f8836101506127fc565b61360b8294925492838360031b1c612e76565b919060031b91821b91600019901b19161790565b90556101516127fc565b906101345490811561364957612fa3926105e0612e5b9261013154612fc4565b505050670de0b6b3a764000090565b92909391600091600091829661366c61342d565b966001600160a01b03918590831680613878575b508261012f54168360405193636eb1769f60e11b8552168060048501523060248501526020948585604481865afa94851561386d57849561383e575b508461371d575b5050505050860151156136d9575b505050929190565b909192506136f1670de0b6b3a7640000928392612eff565b048085529082156137155761370d920490816040860152612ddb565b3880806136d1565b50905061370d565b61372b906101305416613185565b929092156136c357909192939b50848b61376585670de0b6b3a764000061375f6137558d8d612eff565b6101435490612eff565b04612f12565b81830181815295908b156138345750613790916137846060928d612f12565b91829101528551612ddb565b809d5b109283156137bf575b5050506137ac575b8080806136c3565b81929950528060608801529638806137a4565b909192506024604051809481936370a0823160e01b835260048301525afa90811561382957908b9184916137f8575b501038848161379c565b809250858092503d8311613822575b613811818361285a565b81010312610e99578a9051386137ee565b503d613807565b6040513d85823e3d90fd5b915050809d613793565b9094508581813d8311613866575b613856818361285a565b81010312611d04575193386136bc565b503d61384c565b6040513d86823e3d90fd5b9095506020836101c35416916024604051809481936364a731e960e01b835260048301525afa80156109305786906138bd575b6138b6915084612eff565b9438613680565b506020813d82116138e8575b816138d66020938361285a565b810103126120b0576138b690516138ab565b3d91506138c9565b806138f96132ca565b9190936139066000613221565b940193829161399e575b019384600080821261399857505b84039181851161396057505081811161394257505061015555610156554361015755565b60449250604051916306da41e560e11b835260048301526024820152fd5b908085921161398657604491604051916306da41e560e11b835260048301526024820152fd5b604051630fb4fd3560e11b8152600490fd5b0361391e565b90508160000390613910565b6139d791926139bb8261013761283e565b506139c7858254612fc4565b9055613489610131918254612fc4565b905460039190911b1c6001600160a01b0316803b1561052257604051632770a7eb60e21b815230600482015260248101929092526000908290818381604481015b03925af180156131db57613a295750565b6000612a219161285a565b90610134613a43838254612fc4565b9055613a53610131918254612fc4565b9055610133546001600160a01b0316803b1561052257604051632770a7eb60e21b81523060048201526024810192909252600090829081838160448101613a18565b92613aa783613aad9694939795613c22565b90613ad6565b818110613ab8575050565b604492506040519163c39b739f60e01b835260048301526024820152fd5b92613ae392949193613ba3565b60009281810291600160ff1b9185821283821416613b8f578184051490151715613b7b57670de0b6b3a763ffff198301928311613b7b57670de0b6b3a764000092838102938185041490151715613b7b578215613b67578114600019831416613b535705908082126132ae575090565b634e487b7160e01b83526011600452602483fd5b634e487b7160e01b84526012600452602484fd5b634e487b7160e01b84526011600452602484fd5b634e487b7160e01b86526011600452602486fd5b9091613bb29061013154612fc4565b90670de0b6b3a764000091828102928184041490151715610c1757612fa392612f9d91612eff565b8282613be592613ba3565b9060008213156132b357612fa392613bfc91613629565b90612f12565b90604051613c1160408261285a565b602060018294805484520154910152565b613c2e816101486127fc565b90549060031b1c9161018e91613c44818461283e565b50549261018f54431015613c6a575b5050808210156132bb57610b3990612fa393612eff565b829350613c7e613c899392613c849261283e565b50613c02565b613c91565b903880613c53565b602081519101805192670de0b6b3a764000093840390848211610c1757613cbe612e6092612e1b95612eff565b9251612eff565b60008061013791825492613cd884612fe9565b9382915b818310613d05575050508115613cf95790613cf691612f12565b91565b50506101495460011b91565b90919392613d128561312f565b9081613d1e8789612dc7565b52613d37613d2c8388612e92565b50612e54888661283e565b670de0b6b3a764000090818102918183041490151715610c1757613d74613d7a92612e6085613d6b6001976105e596613ec6565b9485918c613c22565b95612ddb565b94019190613cdc565b61018f8054431015613d925750565b6101375460005b818110613dac5750506101905443019055565b80807f19156e9379c7bbbce8f646ce5ee30ba860b8f954717405f3d5859a6c1a21ae6060019361018e613de2613c7e838361283e565b90613e00613df8613df28561312f565b84613c91565b93849261283e565b50555160409182519182526020820152a201613d99565b60975460405163d994d6d560e01b815233600482015290602090829060249082906001600160a01b03165afa9081156131db57600091613e6c575b5015613e5a57565b604051631dd1b1b560e21b8152600490fd5b906020823d8211613e9d575b81613e856020938361285a565b810103126104ab5750613e979061315e565b38613e52565b3d9150613e78565b60ff60ca5460081c16613eb457565b60405163783bb6c960e11b8152600490fd5b90670de0b6b3a764000091828102928184041490151715610c1757612fa391612f1256fea2646970667358221220dcc30054564b01c6d169eb8bd2456f55ebb4d8c821d9d1a1f574158535d7dc1c64736f6c63430008140033",
  "linkReferences": {},
  "deployedLinkReferences": {},
  "devdoc": {
    "details": "IMPORTANT NOTES:  1. MocCore and MocCoreExpansion must have always the same storage layout to avoid collisions  2. Because MocCore is upgradeable and delegates calls to MocCoreExpansion, it cannot be upgradeable because      a proxy contract cannot delegate calls to another proxy contract. So, for any MocCoreExpansion upgrade      you must deploy a new implementation and set it to MocCore.",
    "events": {
      "AdminChanged(address,address)": {
        "details": "Emitted when the admin account has changed."
      },
      "BeaconUpgraded(address)": {
        "details": "Emitted when the beacon is changed."
      },
      "Initialized(uint8)": {
        "details": "Triggered when the contract has been initialized or reinitialized."
      },
      "Upgraded(address)": {
        "details": "Emitted when the implementation is upgraded."
      }
    },
    "kind": "dev",
    "methods": {
      "addPeggedToken((address,address,uint256,uint256,uint256,uint256,uint256))": {
        "details": "Note that the ema value, should consider `nextEmaCalculation`  This function is called by MocCore contract using it's context with delegate call  Checks done there:  -  onlyAuthorizedChanger: the caller must have governance authorization.tpTokenAddress Pegged Token contract address to add      priceProviderAddress Pegged Token price provider contract address      tpCtarg Pegged Token target coverage [PREC]      tpMintFee additional fee pct applied on mint [PREC]      tpRedeemFee additional fee pct applied on redeem [PREC]      tpEma initial Pegged Token exponential moving average [PREC]      tpEmaSf Pegged Token smoothing factor [PREC]  Requirements:  - tpTokenAddress must be a MocRC20, with mint, burn roles already settled  for this contract",
        "params": {
          "peggedTokenParams_": "params of Pegged Token to add"
        }
      },
      "calcCtargemaCA()": {
        "details": "qAC = nTP / pACtp      ctargemaCA = (ctargemaTP * qAC) / (qAC)",
        "returns": {
          "ctargemaCA": "[PREC]"
        }
      },
      "changeGovernor(address)": {
        "params": {
          "newGovernor_": "New governor address"
        }
      },
      "constructor": {
        "custom:oz-upgrades-unsafe-allow": "constructor"
      },
      "editPeggedToken((address,address,uint256,uint256,uint256,uint256,uint256))": {
        "details": "Note that the ema value, should consider `nextEmaCalculation`  This function is called by MocCore contract using it's context with delegate call  Checks done there:  -  onlyAuthorizedChanger: the caller must have governance authorization.tpTokenAddress Pegged Token contract address to identify the token to edit      priceProviderAddress Pegged Token price provider contract address      tpCtarg Pegged Token target coverage [PREC]      tpMintFee additional fee pct applied on mint [PREC]      tpRedeemFee additional fee pct applied on redeem [PREC]      tpEma initial Pegged Token exponential moving average [PREC]      tpEmaSf Pegged Token smoothing factor [PREC]  Requirements: - the tpTokenAddress must exists",
        "params": {
          "peggedTokenParams_": "params of Pegged Token to add"
        }
      },
      "getPACtp(address)": {
        "params": {
          "tp_": "Pegged Token address"
        },
        "returns": {
          "_0": "price [PREC]"
        }
      },
      "isLiquidationReached()": {
        "returns": {
          "_0": "true if liquidation state is reached, false otherwise"
        }
      },
      "liqRedeemTPTo(address,address,address,uint256)": {
        "details": "This function is called by MocCore contract using it's context with delegate call  The equivalent AC given the liquidation frozen price(qACRedeemed) is transferred  to the `recipient_` by MocCore contract  Checks done there:  -  notPaused: the contract must be unpaused",
        "params": {
          "recipient_": "address who receives the AC",
          "sender_": "address owner of the TP to be redeemed",
          "tp_": "Pegged Token address"
        },
        "returns": {
          "qACRedeemed": "amount of AC sent to `recipient_`"
        }
      },
      "makeStoppable()": {
        "details": "Should be called through governance"
      },
      "makeUnstoppable()": {
        "details": "Should be called through governance"
      },
      "maxQACToMintTP()": {
        "returns": {
          "maxQAC": "minimum regarding maxAbsoluteOperation and maxOperationalDifference"
        }
      },
      "maxQACToRedeemTP()": {
        "returns": {
          "maxQAC": "minimum regarding maxAbsoluteOperation and maxOperationalDifference"
        }
      },
      "mintTCandTPto((address,uint256,uint256,address,address,address))": {
        "details": "i_ Pegged Token index      qTP_ amount of Pegged Token to mint      qACmax_ maximum amount of Collateral Asset that can be spent      sender_ address who sends Collateral Asset      recipient_ address who receives the Collateral Token and Pegged Token      vendor_ address who receives a markup. If its address(0) no markup is applied",
        "params": {
          "params_": "mint TC and TP function parameters"
        },
        "returns": {
          "feeCalcs": "platform fee detail breakdown",
          "qACtotalNeeded": "amount of AC used to mint Collateral Token and Pegged Token",
          "qFeeTokenTotalNeeded": "amount of Fee Token used by `sender_` to pay fees. 0 if qAC is used instead",
          "qTCtoMint": "amount of Collateral Token minted"
        }
      },
      "pause()": {
        "details": "Should only be called by the pauser and when it is stoppable"
      },
      "proxiableUUID()": {
        "details": "Implementation of the ERC1822 {proxiableUUID} function. This returns the storage slot used by the implementation. It is used to validate the implementation's compatibility when performing an upgrade. IMPORTANT: A proxy pointing at a proxiable contract should not be considered proxiable itself, because this risks bricking a proxy that upgrades to it, by delegating to itself until out of gas. Thus it is critical that this function revert if invoked through a proxy. This is guaranteed by the `notDelegated` modifier."
      },
      "redeemTCandTPto((address,uint256,uint256,uint256,address,address,address))": {
        "details": "i_ Pegged Token index      qTC_ amount of Collateral Token to redeem      qTP_ maximum amount of Pegged Token to redeem      qACmin_ minimum amount of Collateral Asset that `recipient_` expects to receive      sender_ address who sends Collateral Token and Pegged Token      recipient_ address who receives the Collateral Asset      vendor_ address who receives a markup. If its address(0) no markup is applied",
        "params": {
          "params_": "redeem TC and TP function parameters"
        },
        "returns": {
          "feeCalcs": "platform fee detail breakdown",
          "qACtoRedeem": "amount of AC sent to `recipient_`",
          "qFeeTokenTotalNeeded": "amount of Fee Token used by `sender_` to pay fees. 0 if qAC is used instead",
          "qTPtoRedeem": "amount of Pegged Token redeemed"
        }
      },
      "setAppreciationFactor(uint256)": {
        "details": "sets appreciation Factor value.",
        "params": {
          "appreciationFactor_": "pct of the gain because Pegged Tokens devaluation that is returned in Pegged Tokens to appreciation beneficiary during the settlement [PREC]"
        }
      },
      "setBes(uint256)": {
        "details": "bns is not automatically updated, you have to wait until next settlement to be made : bns = block.number + bes*",
        "params": {
          "bes_": "number of blocks between settlements"
        }
      },
      "setDecayBlockSpan(uint256)": {
        "details": "sets flux capacitor decay block span",
        "params": {
          "decayBlockSpan_": "flux capacitor decay block span"
        }
      },
      "setEmaCalculationBlockSpan(uint256)": {
        "details": "nextEmaCalculation is not automatically updated, you have to wait until next  EMA calculation to be made : nextEmaCalculation = block.number + emaCalculationBlockSpan*",
        "params": {
          "blockSpan_": "Defines how many blocks should pass between EMA calculations"
        }
      },
      "setFeeRetainer(uint256)": {
        "details": "sets the fee pct to be retainer on AC fees payments as AC re-injection.",
        "params": {
          "feeRetainer_": "pct retain on fees to be re-injected as Collateral, while paying fees with AC [PREC] 0% = 0; 1% = 10 ** 16; 100% = 10 ** 18"
        }
      },
      "setFeeTokenAddress(address)": {
        "details": "sets Fee Token contract address",
        "params": {
          "mocFeeTokenAddress_": "Fee Token new contract address"
        }
      },
      "setFeeTokenPct(uint256)": {
        "details": "sets the fee applied on the top of the operation`s fee when using Fee Token as fee payment method.",
        "params": {
          "feeTokenPct_": "pct applied on the top of the operation`s fee when using Fee Token  as fee payment method [PREC]  e.g. if tcMintFee = 1%, FeeTokenPct = 50% => qFeeToken = 0.5%  0% = 0; 1% = 10 ** 16; 100% = 10 ** 18"
        }
      },
      "setFeeTokenPriceProviderAddress(address)": {
        "details": "sets Fee Token price provider contract address",
        "params": {
          "mocFeeTokenPriceProviderAddress_": "Fee Token price provider new contract address"
        }
      },
      "setLiqEnabled(bool)": {
        "details": "enables and disables the liquidation mechanism.",
        "params": {
          "liqEnabled_": "is liquidation enabled"
        }
      },
      "setLiqThrld(uint256)": {
        "details": "sets the value of the liq threshold configuration param",
        "params": {
          "liqThrld_": "liquidation threshold"
        }
      },
      "setMaxAbsoluteOpProviderAddress(address)": {
        "details": "sets max absolute operation provider address",
        "params": {
          "maxAbsoluteOpProviderAddress_": "max absolute operation provider address"
        }
      },
      "setMaxOpDiffProviderAddress(address)": {
        "details": "sets max operation difference provider address",
        "params": {
          "maxOpDiffProviderAddress_": "max operation difference provider address"
        }
      },
      "setMintTCandTPFee(uint256)": {
        "details": "sets the fee charged when mint Collateral Token and Pegged Token in one operation.",
        "params": {
          "mintTCandTPFee_": "additional fee pct applied on mint Collateral Token and Pegged Token [PREC] 0% = 0; 1% = 10 ** 16; 100% = 10 ** 18"
        }
      },
      "setMocAppreciationBeneficiaryAddress(address)": {
        "details": "sets Moc Appreciation Beneficiary Address",
        "params": {
          "mocAppreciationBeneficiaryAddress_": "moc Appreciation Beneficiary new address"
        }
      },
      "setMocFeeFlowAddress(address)": {
        "details": "sets Moc Fee Flow contract address",
        "params": {
          "mocFeeFlowAddress_": "moc Fee Flow new contract address"
        }
      },
      "setMocQueue(address)": {
        "details": "sets Moc Queue contract address",
        "params": {
          "mocQueueAddress_": "moc queue new contract address"
        }
      },
      "setPauser(address)": {
        "details": "Should be called through governance",
        "params": {
          "newPauser_": "Address of the new pauser"
        }
      },
      "setProtThrld(uint256)": {
        "details": "sets the value of the protected threshold configuration param",
        "params": {
          "protThrld_": "coverage protected state threshold [PREC]"
        }
      },
      "setRedeemTCandTPFee(uint256)": {
        "details": "sets the fee charged when redeem Collateral Token and Pegged Token in one operation.",
        "params": {
          "redeemTCandTPFee_": "additional fee pct applied on redeem Collateral Token and Pegged Token [PREC] 0% = 0; 1% = 10 ** 16; 100% = 10 ** 18"
        }
      },
      "setSuccessFee(uint256)": {
        "details": "sets success Fee value.",
        "params": {
          "successFee_": "pct of the gain because Pegged Tokens devaluation that is transferred in Collateral Asset to Moc Fee Flow during the settlement [PREC]"
        }
      },
      "setSwapTCforTPFee(uint256)": {
        "details": "sets the fee charged when swap Collateral Token for a Pegged Token.",
        "params": {
          "swapTCforTPFee_": "additional fee pct applied on swap Collateral Token for a Pegged Token [PREC] 0% = 0; 1% = 10 ** 16; 100% = 10 ** 18"
        }
      },
      "setSwapTPforTCFee(uint256)": {
        "details": "sets the fee charged when swap a Pegged Token for Collateral Token.",
        "params": {
          "swapTPforTCFee_": "additional fee pct applied on swap a Pegged Token for Collateral Token [PREC] 0% = 0; 1% = 10 ** 16; 100% = 10 ** 18"
        }
      },
      "setSwapTPforTPFee(uint256)": {
        "details": "sets the fee charged when swap a Pegged Token for another Pegged Token.",
        "params": {
          "swapTPforTPFee_": "additional fee pct applied on swap a Pegged Token for another Pegged Token [PREC] 0% = 0; 1% = 10 ** 16; 100% = 10 ** 18"
        }
      },
      "setTCInterestCollectorAddress(address)": {
        "details": "sets TC interest collector address",
        "params": {
          "tcInterestCollectorAddress_": "TC interest collector address"
        }
      },
      "setTCInterestPaymentBlockSpan(uint256)": {
        "details": "sets TC interest payment block spannextTCInterestPayment is not automatically updated, you have to wait until next  interest payment to be made : nextTCInterestPayment = block.number + tcInterestPaymentBlockSpan",
        "params": {
          "tcInterestPaymentBlockSpan_": "amount of blocks to wait for next TC interest payment"
        }
      },
      "setTCInterestRate(uint256)": {
        "details": "sets TC interest rate",
        "params": {
          "tcInterestRate_": "pct interest charged to TC holders on the total collateral in the protocol [PREC]"
        }
      },
      "setTcMintFee(uint256)": {
        "details": "sets the fee charged on Token Collateral mint.",
        "params": {
          "tcMintFee_": "addition fee pct applied on Collateral Tokens mint [PREC] 0% = 0; 1% = 10 ** 16; 100% = 10 ** 18"
        }
      },
      "setTcRedeemFee(uint256)": {
        "details": "sets the fee charged on Token Collateral redeem.",
        "params": {
          "tcRedeemFee_": "addition fee pct applied on Collateral Tokens redeem [PREC] 0% = 0; 1% = 10 ** 16; 100% = 10 ** 18"
        }
      },
      "swapTCforTPto((address,uint256,uint256,uint256,address,address,address))": {
        "details": "This function is called by MocCore contract using it's context with delegate calli_ Pegged Token index      qTC_ amount of Collateral Token to swap      qTPmin_ minimum amount of Pegged Token Token that `recipient_` expects to receive      qACmax_ maximum amount of Collateral Asset that can be spent in fees      sender_ address who sends the Collateral Token      recipient_ address who receives the Pegged Token      vendor_ address who receives a markup. If its address(0) no markup is appliedqACFee amount of AC needed to pay fees      qFeeToken amount of Fee Token needed to pay fess      qACVendorMarkup amount of AC needed to pay vendor markup      qFeeTokenVendorMarkup amount of Fee Token needed to pay vendor markup",
        "params": {
          "params_": "swap TC for TP function parameters"
        },
        "returns": {
          "qACSurcharges": "amount of AC used to pay fees and markup",
          "qFeeTokenTotalNeeded": "amount of Fee Token used by `sender_` to pay fees. 0 if qAC is used instead",
          "qTPtoMint": "amount of Pegged Token minted"
        }
      },
      "swapTPforTCto((address,uint256,uint256,uint256,address,address,address))": {
        "details": "This function is called by MocCore contract using it's context with delegate calli_ Pegged Token index      qTP_ amount Pegged Token to swap      qTCmin_ minimum amount of Collateral Token that `recipient_` expects to receive      qACmax_ maximum amount of Collateral Asset that can be spent in fees      sender_ address who sends the Pegged Token      recipient_ address who receives Collateral Token      vendor_ address who receives a markup. If its address(0) no markup is appliedqACFee amount of AC needed to pay fees      qFeeToken amount of Fee Token needed to pay fess      qACVendorMarkup amount of AC needed to pay vendor markup      qFeeTokenVendorMarkup amount of Fee Token needed to pay vendor markup",
        "params": {
          "params_": "swap TP for TC function parameters"
        },
        "returns": {
          "feeCalcs": "struct with:",
          "qACSurcharges": "amount of AC used to pay fees and markup",
          "qFeeTokenTotalNeeded": "amount of Fee Token used by `sender_` to pay fees. 0 if qAC is used instead",
          "qTCtoMint": "amount of Collateral Token minted"
        }
      },
      "swapTPforTPto((address,address,uint256,uint256,uint256,address,address,address))": {
        "details": "This function is called by MocCore contract using it's context with delegate calliFrom_ owned Pegged Token index      iTo_ target Pegged Token index      qTP_ amount of owned Pegged Token to swap      qTPmin_ minimum amount of target Pegged Token that `recipient_` expects to receive      qACmax_ maximum amount of Collateral Asset that can be spent in fees      sender_ address who sends the Pegged Token      recipient_ address who receives the target Pegged Token      vendor_ address who receives a markup. If its address(0) no markup is appliedqACFee amount of AC needed to pay fees      qFeeToken amount of Fee Token needed to pay fess      qACVendorMarkup amount of AC needed to pay vendor markup      qFeeTokenVendorMarkup amount of Fee Token needed to pay vendor markup",
        "params": {
          "params_": "swap TP for TP function parameters"
        },
        "returns": {
          "feeCalcs": "struct with:",
          "qACSurcharges": "amount of AC used to pay fees and markup",
          "qFeeTokenTotalNeeded": "amount of Fee Token used by `sender_` to pay fees. 0 if qAC is used instead",
          "qTPtoMint": "amount of Pegged Token minted"
        }
      },
      "updateEmas()": {
        "details": "All price provider prices must be available, fails if not"
      },
      "upgradeTo(address)": {
        "custom:oz-upgrades-unsafe-allow-reachable": "delegatecall",
        "details": "Upgrade the implementation of the proxy to `newImplementation`. Calls {_authorizeUpgrade}. Emits an {Upgraded} event."
      },
      "upgradeToAndCall(address,bytes)": {
        "custom:oz-upgrades-unsafe-allow-reachable": "delegatecall",
        "details": "Upgrade the implementation of the proxy to `newImplementation`, and subsequently execute the function call encoded in `data`. Calls {_authorizeUpgrade}. Emits an {Upgraded} event."
      }
    },
    "title": "MocCoreExpansion",
    "version": 1
  },
  "evm": {
    "bytecode": {
      "linkReferences": {},
      "opcodes": "PUSH1 0xA0 DUP1 PUSH1 0x40 MSTORE CALLVALUE PUSH3 0xE1 JUMPI ADDRESS PUSH1 0x80 MSTORE PUSH1 0x0 SLOAD SWAP1 PUSH1 0xFF DUP3 PUSH1 0x8 SHR AND PUSH3 0x8F JUMPI POP PUSH1 0xFF DUP1 DUP3 AND SUB PUSH3 0x53 JUMPI JUMPDEST PUSH1 0x40 MLOAD PUSH2 0x3F20 SWAP1 DUP2 PUSH3 0xE7 DUP3 CODECOPY PUSH1 0x80 MLOAD DUP2 DUP2 DUP2 PUSH2 0x1EDC ADD MSTORE DUP2 DUP2 PUSH2 0x204D ADD MSTORE PUSH2 0x22D3 ADD MSTORE RETURN JUMPDEST PUSH1 0xFF SWAP1 DUP2 NOT AND OR PUSH1 0x0 SSTORE PUSH32 0x7F26B83FF96E1F2B6A682F133852F6798A09C465DA95921460CEFB3847402498 PUSH1 0x20 PUSH1 0x40 MLOAD PUSH1 0xFF DUP2 MSTORE LOG1 CODESIZE PUSH3 0x2C JUMP JUMPDEST PUSH3 0x461BCD PUSH1 0xE5 SHL DUP2 MSTORE PUSH1 0x20 PUSH1 0x4 DUP3 ADD MSTORE PUSH1 0x27 PUSH1 0x24 DUP3 ADD MSTORE PUSH32 0x496E697469616C697A61626C653A20636F6E747261637420697320696E697469 PUSH1 0x44 DUP3 ADD MSTORE PUSH7 0x616C697A696E67 PUSH1 0xC8 SHL PUSH1 0x64 DUP3 ADD MSTORE PUSH1 0x84 SWAP1 REVERT JUMPDEST PUSH1 0x0 DUP1 REVERT INVALID PUSH1 0x80 PUSH1 0x40 MSTORE PUSH1 0x4 CALLDATASIZE LT ISZERO PUSH2 0x12 JUMPI PUSH1 0x0 DUP1 REVERT JUMPDEST PUSH1 0x0 PUSH1 0xE0 DUP2 CALLDATALOAD DUP2 SHR SWAP1 DUP2 PUSH4 0x1DDE6EF EQ PUSH2 0x27D8 JUMPI DUP2 PUSH4 0x1F1B684 EQ PUSH2 0x2790 JUMPI DUP2 PUSH4 0x73763B9 EQ PUSH2 0x276C JUMPI DUP2 PUSH4 0xC340A24 EQ PUSH2 0x2743 JUMPI DUP2 PUSH4 0xC36D897 EQ PUSH2 0x2724 JUMPI DUP2 PUSH4 0xD6AC463 EQ PUSH2 0x26DE JUMPI DUP2 PUSH4 0xDB49656 EQ PUSH2 0x26BF JUMPI DUP2 PUSH4 0xE0A8FD2 EQ PUSH2 0x269B JUMPI DUP2 PUSH4 0xF1E5E2B EQ PUSH2 0x2655 JUMPI DUP2 PUSH4 0x13ED7BA5 EQ PUSH2 0x262B JUMPI DUP2 PUSH4 0x1867E2F5 EQ PUSH2 0x260C JUMPI DUP2 PUSH4 0x1FE6A7AD EQ PUSH2 0x25D2 JUMPI DUP2 PUSH4 0x2069F753 EQ PUSH2 0x25AE JUMPI DUP2 PUSH4 0x23B98CDE EQ PUSH2 0x2587 JUMPI DUP2 PUSH4 0x24FFABA3 EQ PUSH2 0x2549 JUMPI DUP2 PUSH4 0x27EAB2A1 EQ PUSH2 0x2503 JUMPI DUP2 PUSH4 0x2A20D57D EQ PUSH2 0x24E4 JUMPI DUP2 PUSH4 0x2C43BD3B EQ PUSH2 0x24C0 JUMPI DUP2 PUSH4 0x2D88AF4A EQ PUSH2 0x2469 JUMPI DUP2 PUSH4 0x2DED50F0 EQ PUSH2 0x244A JUMPI DUP2 PUSH4 0x333431FD EQ PUSH2 0x242B JUMPI DUP2 PUSH4 0x33421C38 EQ PUSH2 0x233A JUMPI DUP2 PUSH4 0x3659CFE6 EQ PUSH2 0x22A1 JUMPI DUP2 PUSH4 0x3915EDCB EQ PUSH2 0x2272 JUMPI DUP2 PUSH4 0x3BC4AC0A EQ PUSH2 0x224E JUMPI DUP2 PUSH4 0x3CFB09EF EQ PUSH2 0x2208 JUMPI DUP2 PUSH4 0x3F4BA83A EQ PUSH2 0x218D JUMPI DUP2 PUSH4 0x407F0E34 EQ PUSH2 0x216E JUMPI DUP2 PUSH4 0x4B746001 EQ PUSH2 0x2121 JUMPI DUP2 PUSH4 0x4D977E78 EQ PUSH2 0x2102 JUMPI DUP2 PUSH4 0x4E1F907A EQ PUSH2 0x20D8 JUMPI DUP2 PUSH4 0x4F0F27EE EQ PUSH2 0x20B9 JUMPI DUP2 PUSH4 0x4F1EF286 EQ PUSH2 0x1FC5 JUMPI DUP2 PUSH4 0x5210570C EQ PUSH2 0x1F9F JUMPI DUP2 PUSH4 0x52D1902D EQ PUSH2 0x1EC9 JUMPI DUP2 PUSH4 0x543AEB48 EQ PUSH2 0x1EA5 JUMPI DUP2 PUSH4 0x5860EE63 EQ PUSH2 0x1E86 JUMPI DUP2 PUSH4 0x5C975ABB EQ PUSH2 0x1E60 JUMPI DUP2 PUSH4 0x5CFBE578 EQ PUSH2 0x1E41 JUMPI DUP2 PUSH4 0x60009E0B EQ PUSH2 0x1E17 JUMPI DUP2 PUSH4 0x647846A5 EQ PUSH2 0x1DED JUMPI DUP2 PUSH4 0x64EC230A EQ PUSH2 0x1DC9 JUMPI DUP2 PUSH4 0x662013F4 EQ PUSH2 0x1DA5 JUMPI DUP2 PUSH4 0x68274357 EQ PUSH2 0x1D7C JUMPI DUP2 PUSH4 0x6845C445 EQ PUSH2 0x1B7D JUMPI DUP2 PUSH4 0x6B5488DF EQ PUSH2 0x1B5E JUMPI DUP2 PUSH4 0x6F30471F EQ PUSH2 0x1B3F JUMPI DUP2 PUSH4 0x70713468 EQ PUSH2 0x1B1B JUMPI DUP2 PUSH4 0x735D3960 EQ PUSH2 0x1AD5 JUMPI DUP2 PUSH4 0x73E28AF9 EQ PUSH2 0x1AB1 JUMPI DUP2 PUSH4 0x7554FFFD EQ PUSH2 0x1A92 JUMPI DUP2 PUSH4 0x76228055 EQ PUSH2 0x1A73 JUMPI DUP2 PUSH4 0x7750BA0C EQ PUSH2 0x1A4F JUMPI DUP2 PUSH4 0x79F9A91C EQ PUSH2 0x1A30 JUMPI DUP2 PUSH4 0x7A193C31 EQ PUSH2 0x1A11 JUMPI DUP2 PUSH4 0x7A4FF1D9 EQ PUSH2 0x19ED JUMPI DUP2 PUSH4 0x7A727FE8 EQ PUSH2 0x19CE JUMPI DUP2 PUSH4 0x7AF5758C EQ PUSH2 0x19AA JUMPI DUP2 PUSH4 0x7B5A17AE EQ PUSH2 0x17DF JUMPI DUP2 PUSH4 0x7CBA2383 EQ PUSH2 0x17BB JUMPI DUP2 PUSH4 0x7D8E0314 EQ PUSH2 0x177E JUMPI DUP2 PUSH4 0x7F01C715 EQ PUSH2 0x1754 JUMPI DUP2 PUSH4 0x7F13B998 EQ PUSH2 0x1720 JUMPI DUP2 PUSH4 0x7F4A4FE0 EQ PUSH2 0x1701 JUMPI DUP2 PUSH4 0x8456CB59 EQ PUSH2 0x166A JUMPI DUP2 PUSH4 0x85BF9593 EQ PUSH2 0x1624 JUMPI DUP2 PUSH4 0x8CFA4241 EQ PUSH2 0x1605 JUMPI DUP2 PUSH4 0x8E2BDB86 EQ PUSH2 0x15DB JUMPI DUP2 PUSH4 0x9853C35A EQ PUSH2 0x15B1 JUMPI DUP2 PUSH4 0x9AD6659D EQ PUSH2 0x1577 JUMPI DUP2 PUSH4 0x9CABFC00 EQ PUSH2 0x152A JUMPI DUP2 PUSH4 0x9FD0506D EQ PUSH2 0x14FD JUMPI DUP2 PUSH4 0xA8E9AC30 EQ PUSH2 0x14DB JUMPI DUP2 PUSH4 0xAEA038DC EQ PUSH2 0x14BC JUMPI DUP2 PUSH4 0xB5E9EA8C EQ PUSH2 0x1492 JUMPI DUP2 PUSH4 0xB9FA6413 EQ PUSH2 0x1473 JUMPI DUP2 PUSH4 0xBB4872DE EQ PUSH2 0x1450 JUMPI DUP2 PUSH4 0xBECACA6B EQ PUSH2 0x142C JUMPI DUP2 PUSH4 0xC00F538D EQ PUSH2 0x1408 JUMPI DUP2 PUSH4 0xC84353C9 EQ PUSH2 0x13E4 JUMPI DUP2 PUSH4 0xCF351C1D EQ PUSH2 0x139E JUMPI DUP2 PUSH4 0xD1A0FAA0 EQ PUSH2 0x1382 JUMPI DUP2 PUSH4 0xD6AF11DA EQ PUSH2 0x1340 JUMPI DUP2 PUSH4 0xD87AAB6F EQ PUSH2 0x1321 JUMPI DUP2 PUSH4 0xD8DB6F5A EQ PUSH2 0x12DB JUMPI DUP2 PUSH4 0xD9B6C2E5 EQ PUSH2 0x1153 JUMPI DUP2 PUSH4 0xDB796072 EQ PUSH2 0xEDB JUMPI DUP2 PUSH4 0xDDB6D190 EQ PUSH2 0xE9D JUMPI DUP2 PUSH4 0xE1E121DA EQ PUSH2 0xC41 JUMPI DUP2 PUSH4 0xE44BB512 EQ PUSH2 0xA3F JUMPI DUP2 PUSH4 0xE4C0AAF4 EQ PUSH2 0x9FA JUMPI DUP2 PUSH4 0xE6B1627C EQ PUSH2 0x9B7 JUMPI DUP2 PUSH4 0xE7C25978 EQ PUSH2 0x993 JUMPI DUP2 PUSH4 0xEE1F438F EQ PUSH2 0x969 JUMPI DUP2 PUSH4 0xF13F4054 EQ PUSH2 0x93F JUMPI DUP2 PUSH4 0xF26114AA EQ PUSH2 0x750 JUMPI DUP2 PUSH4 0xF2808778 EQ PUSH2 0x72C JUMPI DUP2 PUSH4 0xF30B5614 EQ PUSH2 0x70D JUMPI DUP2 PUSH4 0xF375CFBA EQ PUSH2 0x6EE JUMPI DUP2 PUSH4 0xF5571E01 EQ PUSH2 0x546 JUMPI POP DUP1 PUSH4 0xFA6E83BD EQ PUSH2 0x527 JUMPI DUP1 PUSH4 0xFADDA424 EQ PUSH2 0x4AE JUMPI PUSH4 0xFDA70F8B EQ PUSH2 0x48D JUMPI PUSH1 0x0 DUP1 REVERT JUMPDEST CALLVALUE PUSH2 0x4AB JUMPI DUP1 PUSH1 0x3 NOT CALLDATASIZE ADD SLT PUSH2 0x4AB JUMPI PUSH1 0x20 PUSH2 0x13C SLOAD PUSH1 0x40 MLOAD SWAP1 DUP2 MSTORE RETURN JUMPDEST DUP1 REVERT JUMPDEST POP CALLVALUE PUSH2 0x4AB JUMPI PUSH1 0x20 CALLDATASIZE PUSH1 0x3 NOT ADD SLT PUSH2 0x4AB JUMPI PUSH1 0x1 PUSH1 0x1 PUSH1 0xA0 SHL SUB PUSH1 0x4 CALLDATALOAD DUP2 DUP2 AND DUP2 SUB PUSH2 0x522 JUMPI PUSH2 0x4EA PUSH2 0x4E2 PUSH1 0x1 SWAP3 PUSH2 0x3106 JUMP JUMPDEST PUSH2 0x137 PUSH2 0x283E JUMP JUMPDEST POP ADD SLOAD AND PUSH2 0x4F7 DUP2 PUSH2 0x3185 JUMP JUMPDEST SWAP2 SWAP1 SWAP2 ISZERO PUSH2 0x50A JUMPI PUSH1 0x20 DUP3 PUSH1 0x40 MLOAD SWAP1 DUP2 MSTORE RETURN JUMPDEST PUSH1 0x24 SWAP1 PUSH1 0x40 MLOAD SWAP1 PUSH4 0x7F6E4DB9 PUSH1 0xE0 SHL DUP3 MSTORE PUSH1 0x4 DUP3 ADD MSTORE REVERT JUMPDEST PUSH1 0x0 DUP1 REVERT JUMPDEST POP CALLVALUE PUSH2 0x4AB JUMPI DUP1 PUSH1 0x3 NOT CALLDATASIZE ADD SLT PUSH2 0x4AB JUMPI PUSH1 0x20 PUSH2 0x13A SLOAD PUSH1 0x40 MLOAD SWAP1 DUP2 MSTORE RETURN JUMPDEST CALLDATASIZE PUSH1 0x3 NOT ADD SLT SWAP1 POP PUSH2 0x4AB JUMPI PUSH2 0x55D CALLDATASIZE PUSH1 0x4 PUSH2 0x28AE JUMP JUMPDEST SWAP1 PUSH2 0x566 PUSH2 0x342D JUMP JUMPDEST POP PUSH2 0x56F PUSH2 0x31E7 JUMP JUMPDEST SWAP1 PUSH2 0x5F0 PUSH1 0x1 DUP1 PUSH1 0xA0 SHL SUB SWAP2 PUSH2 0x587 DUP4 DUP7 MLOAD AND PUSH2 0x3106 JUMP JUMPDEST SWAP3 PUSH2 0x5AA PUSH2 0x595 DUP6 DUP8 PUSH2 0x2DC7 JUMP JUMPDEST MLOAD SWAP6 PUSH2 0x5A1 DUP8 DUP8 PUSH2 0x35D8 JUMP JUMPDEST PUSH2 0x149 SLOAD PUSH2 0x3595 JUMP JUMPDEST PUSH2 0x5EA PUSH1 0x20 DUP10 SWAP7 SWAP4 SWAP7 ADD SWAP8 PUSH2 0x5E5 PUSH2 0x5C3 DUP3 DUP12 MLOAD PUSH2 0x3EC6 JUMP JUMPDEST SWAP8 PUSH2 0x5E0 PUSH2 0x5D6 DUP13 MLOAD PUSH2 0x134 SLOAD SWAP1 PUSH2 0x2EFF JUMP JUMPDEST SWAP6 PUSH2 0x131 SLOAD PUSH2 0x2FC4 JUMP JUMPDEST PUSH2 0x2FC4 JUMP JUMPDEST PUSH2 0x2EFF JUMP JUMPDEST SWAP1 PUSH2 0x3EC6 JUMP JUMPDEST SWAP6 PUSH1 0x40 DUP2 ADD MLOAD DUP1 DUP9 LT DUP1 ISZERO PUSH2 0x6E6 JUMPI JUMPDEST PUSH2 0x6C8 JUMPI POP PUSH2 0x621 DUP3 PUSH1 0x80 DUP4 ADD MLOAD AND DUP6 DUP5 PUSH1 0xC0 DUP6 ADD MLOAD AND PUSH2 0x13F SLOAD SWAP3 PUSH2 0x3658 JUMP JUMPDEST SWAP7 SWAP2 SWAP8 SWAP1 SWAP6 PUSH1 0x60 DUP5 ADD MLOAD DUP1 DUP11 GT PUSH2 0x6A9 JUMPI POP SWAP3 PUSH2 0x658 DUP7 PUSH2 0x662 SWAP7 SWAP5 PUSH1 0xA0 SWAP5 PUSH2 0x651 PUSH1 0x1 PUSH2 0x6A5 SWAP14 SWAP13 SWAP12 SWAP10 PUSH2 0x38F0 JUMP JUMPDEST MLOAD SWAP1 PUSH2 0x39AA JUMP JUMPDEST ADD MLOAD AND SWAP1 DUP8 PUSH2 0x351E JUMP JUMPDEST PUSH1 0x40 MLOAD SWAP5 DUP6 SWAP5 DUP6 SWAP3 SWAP4 PUSH1 0x60 SWAP2 SWAP6 SWAP5 PUSH1 0xC0 SWAP4 PUSH1 0xE0 DUP7 ADD SWAP8 DUP7 MSTORE PUSH1 0x20 DUP7 ADD MSTORE PUSH1 0x40 DUP6 ADD MSTORE DUP1 MLOAD DUP3 DUP6 ADD MSTORE PUSH1 0x20 DUP2 ADD MLOAD PUSH1 0x80 DUP6 ADD MSTORE PUSH1 0x40 DUP2 ADD MLOAD PUSH1 0xA0 DUP6 ADD MSTORE ADD MLOAD SWAP2 ADD MSTORE JUMP JUMPDEST SUB SWAP1 RETURN JUMPDEST PUSH1 0x44 SWAP1 DUP10 MLOAD PUSH1 0x40 MLOAD SWAP2 PUSH4 0xB63F1A7 PUSH1 0xE0 SHL DUP4 MSTORE PUSH1 0x4 DUP4 ADD MSTORE PUSH1 0x24 DUP3 ADD MSTORE REVERT JUMPDEST PUSH1 0x44 SWAP1 DUP9 PUSH1 0x40 MLOAD SWAP2 PUSH4 0xF577BEF5 PUSH1 0xE0 SHL DUP4 MSTORE PUSH1 0x4 DUP4 ADD MSTORE PUSH1 0x24 DUP3 ADD MSTORE REVERT JUMPDEST POP DUP8 ISZERO PUSH2 0x600 JUMP JUMPDEST DUP3 CALLVALUE PUSH2 0x4AB JUMPI DUP1 PUSH1 0x3 NOT CALLDATASIZE ADD SLT PUSH2 0x4AB JUMPI PUSH1 0x20 PUSH2 0x141 SLOAD PUSH1 0x40 MLOAD SWAP1 DUP2 MSTORE RETURN JUMPDEST DUP3 CALLVALUE PUSH2 0x4AB JUMPI DUP1 PUSH1 0x3 NOT CALLDATASIZE ADD SLT PUSH2 0x4AB JUMPI PUSH1 0x20 PUSH2 0x131 SLOAD PUSH1 0x40 MLOAD SWAP1 DUP2 MSTORE RETURN JUMPDEST DUP3 CALLVALUE PUSH2 0x4AB JUMPI PUSH1 0x20 CALLDATASIZE PUSH1 0x3 NOT ADD SLT PUSH2 0x4AB JUMPI PUSH2 0x746 PUSH2 0x3E17 JUMP JUMPDEST PUSH1 0x4 CALLDATALOAD PUSH2 0x13C SSTORE DUP1 RETURN JUMPDEST SWAP1 POP CALLVALUE PUSH2 0x93B JUMPI CALLDATASIZE PUSH1 0x3 NOT ADD SLT PUSH2 0x4AB JUMPI PUSH1 0x4 CALLDATALOAD PUSH1 0x1 PUSH1 0x1 PUSH1 0xA0 SHL SUB DUP2 DUP2 AND SWAP2 DUP3 SWAP1 SUB PUSH2 0x522 JUMPI DUP2 DUP4 MSTORE PUSH2 0x136 PUSH1 0x20 MSTORE PUSH1 0x40 DUP4 KECCAK256 PUSH1 0xFF PUSH1 0x1 PUSH1 0x40 MLOAD SWAP3 PUSH2 0x797 PUSH1 0x40 DUP6 PUSH2 0x285A JUMP JUMPDEST DUP1 SLOAD DUP5 MSTORE ADD SLOAD AND ISZERO DUP1 ISZERO PUSH1 0x20 DUP4 ADD MSTORE PUSH2 0x8ED JUMPI MLOAD SWAP1 PUSH1 0x24 CALLDATALOAD SWAP1 DUP1 DUP3 AND DUP1 SWAP3 SUB PUSH2 0x522 JUMPI PUSH2 0x137 SWAP1 PUSH1 0x1 PUSH2 0x7CA DUP6 DUP5 PUSH2 0x283E JUMP JUMPDEST POP ADD SLOAD AND DUP3 SUB PUSH2 0x873 JUMPI JUMPDEST DUP5 PUSH32 0x6417E5A3C1E0E5DAE98B8FE718C4BABDFCB35E0D7B5E1B9641B5914756F5D8E3 PUSH1 0x4 DUP6 DUP8 PUSH2 0x826 PUSH2 0x80A DUP4 PUSH2 0x148 PUSH2 0x27FC JUMP JUMPDEST PUSH1 0x44 SWAP3 SWAP2 SWAP3 CALLDATALOAD SWAP1 DUP4 SLOAD SWAP1 PUSH1 0x3 SHL SWAP2 DUP3 SHL SWAP2 PUSH1 0x0 NOT SWAP1 SHL NOT AND OR SWAP1 JUMP JUMPDEST SWAP1 SSTORE DUP1 DUP6 MSTORE PUSH2 0x144 PUSH1 0x20 MSTORE PUSH1 0x64 CALLDATALOAD PUSH1 0x40 DUP7 KECCAK256 SSTORE DUP5 MSTORE PUSH2 0x145 PUSH1 0x20 MSTORE PUSH1 0x84 CALLDATALOAD PUSH1 0x40 DUP6 KECCAK256 SSTORE PUSH2 0x855 DUP2 PUSH2 0x18E PUSH2 0x283E JUMP JUMPDEST POP PUSH1 0x1 PUSH1 0xC4 CALLDATALOAD SWAP2 ADD SSTORE PUSH2 0x86D PUSH1 0x40 MLOAD SWAP3 DUP4 SWAP3 DUP4 PUSH2 0x33C5 JUMP JUMPDEST SUB SWAP1 LOG1 DUP1 RETURN JUMPDEST SWAP2 SWAP1 SWAP3 PUSH1 0x40 MLOAD PUSH4 0x59E02DD7 PUSH1 0xE0 SHL DUP2 MSTORE PUSH1 0x40 DUP2 PUSH1 0x4 DUP2 DUP9 GAS STATICCALL SWAP1 DUP2 ISZERO PUSH2 0x930 JUMPI DUP7 SWAP2 PUSH2 0x8FF JUMPI JUMPDEST POP ISZERO PUSH2 0x8ED JUMPI PUSH32 0x6417E5A3C1E0E5DAE98B8FE718C4BABDFCB35E0D7B5E1B9641B5914756F5D8E3 SWAP4 PUSH1 0x1 PUSH2 0x8D0 DUP5 PUSH1 0x4 SWAP7 PUSH2 0x283E JUMP JUMPDEST POP ADD SWAP1 PUSH1 0x1 PUSH1 0x1 PUSH1 0x60 SHL SUB PUSH1 0xA0 SHL DUP3 SLOAD AND OR SWAP1 SSTORE SWAP3 DUP2 SWAP3 POP PUSH2 0x7D5 JUMP JUMPDEST PUSH1 0x40 MLOAD PUSH4 0xE6C4247B PUSH1 0xE0 SHL DUP2 MSTORE PUSH1 0x4 SWAP1 REVERT JUMPDEST PUSH2 0x921 SWAP2 POP PUSH1 0x40 RETURNDATASIZE PUSH1 0x40 GT PUSH2 0x929 JUMPI JUMPDEST PUSH2 0x919 DUP2 DUP4 PUSH2 0x285A JUMP JUMPDEST DUP2 ADD SWAP1 PUSH2 0x316B JUMP JUMPDEST SWAP1 POP CODESIZE PUSH2 0x89A JUMP JUMPDEST POP RETURNDATASIZE PUSH2 0x90F JUMP JUMPDEST PUSH1 0x40 MLOAD RETURNDATASIZE DUP9 DUP3 RETURNDATACOPY RETURNDATASIZE SWAP1 REVERT JUMPDEST POP DUP1 REVERT JUMPDEST DUP3 CALLVALUE PUSH2 0x4AB JUMPI DUP1 PUSH1 0x3 NOT CALLDATASIZE ADD SLT PUSH2 0x4AB JUMPI PUSH2 0x130 SLOAD PUSH1 0x40 MLOAD PUSH1 0x1 PUSH1 0x1 PUSH1 0xA0 SHL SUB SWAP1 SWAP2 AND DUP2 MSTORE PUSH1 0x20 SWAP1 RETURN JUMPDEST DUP3 CALLVALUE PUSH2 0x4AB JUMPI DUP1 PUSH1 0x3 NOT CALLDATASIZE ADD SLT PUSH2 0x4AB JUMPI PUSH2 0x152 SLOAD PUSH1 0x40 MLOAD PUSH1 0x1 PUSH1 0x1 PUSH1 0xA0 SHL SUB SWAP1 SWAP2 AND DUP2 MSTORE PUSH1 0x20 SWAP1 RETURN JUMPDEST DUP3 CALLVALUE PUSH2 0x4AB JUMPI DUP1 PUSH1 0x3 NOT CALLDATASIZE ADD SLT PUSH2 0x4AB JUMPI PUSH1 0x20 PUSH1 0xFF PUSH2 0x14B SLOAD AND PUSH1 0x40 MLOAD SWAP1 ISZERO ISZERO DUP2 MSTORE RETURN JUMPDEST DUP3 CALLVALUE PUSH2 0x4AB JUMPI PUSH1 0x20 CALLDATASIZE PUSH1 0x3 NOT ADD SLT PUSH2 0x4AB JUMPI PUSH1 0x4 CALLDATALOAD SWAP1 PUSH2 0x18E SWAP1 DUP2 SLOAD DUP4 LT ISZERO PUSH2 0x4AB JUMPI PUSH1 0x40 PUSH2 0x9E6 DUP5 DUP5 PUSH2 0x283E JUMP JUMPDEST POP PUSH1 0x1 DUP2 SLOAD SWAP2 ADD SLOAD DUP3 MLOAD SWAP2 DUP3 MSTORE PUSH1 0x20 DUP3 ADD MSTORE RETURN JUMPDEST DUP3 CALLVALUE PUSH2 0x4AB JUMPI PUSH1 0x20 CALLDATASIZE PUSH1 0x3 NOT ADD SLT PUSH2 0x4AB JUMPI PUSH1 0x4 CALLDATALOAD PUSH1 0x1 PUSH1 0x1 PUSH1 0xA0 SHL SUB DUP2 AND SWAP1 DUP2 SWAP1 SUB PUSH2 0x93B JUMPI PUSH2 0xA29 PUSH2 0x3E17 JUMP JUMPDEST PUSH1 0x1 PUSH1 0x1 PUSH1 0x60 SHL SUB PUSH1 0xA0 SHL PUSH1 0x97 SLOAD AND OR PUSH1 0x97 SSTORE DUP1 RETURN JUMPDEST DUP3 PUSH1 0xC0 CALLDATASIZE PUSH1 0x3 NOT ADD SLT PUSH2 0x4AB JUMPI PUSH1 0x40 MLOAD SWAP1 PUSH2 0xA5B PUSH1 0xC0 DUP4 PUSH2 0x285A JUMP JUMPDEST PUSH1 0x1 PUSH1 0x1 PUSH1 0xA0 SHL SUB SWAP1 PUSH1 0x4 CALLDATALOAD DUP3 DUP2 AND DUP2 SUB PUSH2 0x522 JUMPI DUP4 MSTORE PUSH1 0x20 DUP4 ADD PUSH1 0x24 CALLDATALOAD DUP2 MSTORE PUSH1 0x40 DUP5 ADD SWAP3 PUSH1 0x44 CALLDATALOAD DUP5 MSTORE PUSH1 0x64 CALLDATALOAD SWAP1 DUP1 DUP3 AND DUP3 SUB PUSH2 0x522 JUMPI PUSH1 0x60 DUP7 ADD SWAP2 DUP3 MSTORE PUSH1 0x84 CALLDATALOAD DUP2 DUP2 AND DUP2 SUB PUSH2 0x522 JUMPI PUSH1 0x80 DUP8 ADD SWAP1 DUP2 MSTORE PUSH1 0xA4 CALLDATALOAD SWAP5 DUP3 DUP7 AND DUP7 SUB PUSH2 0x522 JUMPI PUSH1 0xA0 DUP9 ADD SWAP6 DUP7 MSTORE PUSH2 0xAC8 PUSH2 0x342D JUMP JUMPDEST POP PUSH2 0xADD DUP4 PUSH2 0xAD5 PUSH2 0x31E7 JUMP JUMPDEST SWAP10 MLOAD AND PUSH2 0x3106 JUMP JUMPDEST SWAP2 PUSH2 0xB00 PUSH2 0xAEB DUP5 DUP12 PUSH2 0x2DC7 JUMP JUMPDEST MLOAD SWAP10 PUSH2 0xAF7 DUP12 DUP7 PUSH2 0x35D8 JUMP JUMPDEST PUSH2 0x14A SLOAD PUSH2 0x3595 JUMP JUMPDEST SWAP10 PUSH2 0xB17 DUP9 MLOAD SWAP12 PUSH2 0xB11 DUP4 DUP9 PUSH2 0x3C22 JUMP JUMPDEST SWAP4 PUSH2 0x3629 JUMP JUMPDEST SWAP2 PUSH8 0xDE0B6B3A763FFFF NOT DUP2 ADD SWAP1 DUP2 GT PUSH2 0xC2D JUMPI DUP2 PUSH2 0xB39 PUSH2 0xB3E SWAP3 DUP15 PUSH2 0x2EFF JUMP JUMPDEST PUSH2 0x2F12 JUMP JUMPDEST SWAP9 PUSH8 0xDE0B6B3A7640000 SWAP3 DUP4 DUP12 MUL SWAP1 DUP12 DUP3 DIV DUP6 EQ DUP13 ISZERO OR ISZERO PUSH2 0xC17 JUMPI PUSH2 0xB63 SWAP2 PUSH2 0x2F12 JUMP JUMPDEST SWAP12 DUP4 DUP2 MUL SWAP4 DUP2 DUP6 DIV EQ SWAP1 ISZERO OR ISZERO PUSH2 0xC17 JUMPI PUSH2 0xBAE SWAP8 DUP8 PUSH2 0xB91 PUSH2 0xB8A PUSH2 0xBA3 SWAP6 DUP4 SWAP8 PUSH2 0x2F12 JUMP JUMPDEST DUP1 SWAP14 PUSH2 0x2DDB JUMP JUMPDEST SWAP9 DUP10 SWAP3 MLOAD AND SWAP3 MLOAD AND PUSH2 0x142 SLOAD SWAP3 PUSH2 0x3658 JUMP JUMPDEST SWAP9 SWAP2 DUP8 SWAP9 SWAP2 SWAP9 PUSH2 0x2DDB JUMP JUMPDEST SWAP10 MLOAD DUP1 DUP12 GT PUSH2 0xBF9 JUMPI POP DUP10 ISZERO PUSH2 0xBE7 JUMPI PUSH2 0xBDD PUSH2 0x662 SWAP7 PUSH2 0xBD2 DUP7 PUSH2 0x6A5 SWAP13 PUSH2 0x38F0 JUMP JUMPDEST DUP4 DUP6 MLOAD AND SWAP1 DUP14 PUSH2 0x351E JUMP JUMPDEST MLOAD SWAP2 MLOAD AND SWAP3 PUSH2 0x3454 JUMP JUMPDEST PUSH1 0x40 MLOAD PUSH4 0xF3E39B5D PUSH1 0xE0 SHL DUP2 MSTORE PUSH1 0x4 SWAP1 REVERT JUMPDEST PUSH1 0x44 SWAP1 DUP12 PUSH1 0x40 MLOAD SWAP2 PUSH4 0xB63F1A7 PUSH1 0xE0 SHL DUP4 MSTORE PUSH1 0x4 DUP4 ADD MSTORE PUSH1 0x24 DUP3 ADD MSTORE REVERT JUMPDEST PUSH4 0x4E487B71 PUSH1 0xE0 SHL PUSH1 0x0 MSTORE PUSH1 0x11 PUSH1 0x4 MSTORE PUSH1 0x24 PUSH1 0x0 REVERT JUMPDEST PUSH4 0x4E487B71 PUSH1 0xE0 SHL DUP6 MSTORE PUSH1 0x11 PUSH1 0x4 MSTORE PUSH1 0x24 DUP6 REVERT JUMPDEST SWAP1 POP PUSH2 0x100 DUP1 PUSH1 0x3 NOT CALLDATASIZE ADD SLT PUSH2 0xE99 JUMPI PUSH2 0xC5E PUSH1 0x40 MLOAD SWAP2 DUP3 PUSH2 0x285A JUMP JUMPDEST PUSH1 0x4 CALLDATALOAD PUSH1 0x1 PUSH1 0x1 PUSH1 0xA0 SHL SUB DUP2 AND DUP2 SUB PUSH2 0x522 JUMPI DUP2 MSTORE PUSH1 0x24 CALLDATALOAD PUSH1 0x1 PUSH1 0x1 PUSH1 0xA0 SHL SUB DUP2 AND DUP2 SUB PUSH2 0x522 JUMPI PUSH1 0x20 DUP3 ADD SWAP1 DUP2 MSTORE PUSH1 0x44 CALLDATALOAD PUSH1 0x40 DUP4 ADD MSTORE PUSH1 0x60 DUP3 ADD SWAP4 PUSH1 0x64 CALLDATALOAD DUP6 MSTORE PUSH1 0x80 DUP4 ADD SWAP2 PUSH1 0x84 CALLDATALOAD DUP4 MSTORE PUSH1 0xA4 CALLDATALOAD SWAP5 PUSH1 0x1 DUP1 PUSH1 0xA0 SHL SUB DUP7 AND DUP7 SUB PUSH2 0x522 JUMPI PUSH1 0xA0 DUP6 ADD SWAP6 DUP7 MSTORE PUSH1 0xC4 CALLDATALOAD PUSH1 0x1 PUSH1 0x1 PUSH1 0xA0 SHL SUB DUP2 AND DUP2 SUB PUSH2 0x522 JUMPI PUSH1 0xC0 DUP7 ADD MSTORE PUSH1 0xE4 CALLDATALOAD SWAP1 PUSH1 0x1 PUSH1 0x1 PUSH1 0xA0 SHL SUB DUP3 AND DUP3 SUB PUSH2 0x522 JUMPI DUP6 ADD SWAP1 DUP2 MSTORE PUSH2 0xCFC PUSH2 0x342D JUMP JUMPDEST POP DUP5 MLOAD DUP3 MLOAD PUSH1 0x1 PUSH1 0x1 PUSH1 0xA0 SHL SUB SWAP1 DUP2 AND SWAP2 AND EQ PUSH2 0xE87 JUMPI DUP5 MLOAD PUSH2 0xD3B SWAP1 PUSH2 0xD2B SWAP1 PUSH1 0x1 PUSH1 0x1 PUSH1 0xA0 SHL SUB AND PUSH2 0x3106 JUMP JUMPDEST SWAP3 MLOAD PUSH1 0x1 PUSH1 0x1 PUSH1 0xA0 SHL SUB AND PUSH2 0x3106 JUMP JUMPDEST SWAP6 PUSH2 0xD45 DUP4 PUSH2 0x312F JUMP JUMPDEST SWAP1 PUSH2 0xD4F DUP9 PUSH2 0x312F JUMP JUMPDEST PUSH2 0xD59 DUP4 DUP7 PUSH2 0x35D8 JUMP JUMPDEST PUSH2 0xD63 DUP2 DUP11 PUSH2 0x35D8 JUMP JUMPDEST PUSH2 0xD71 DUP4 PUSH1 0x40 DUP11 ADD MLOAD PUSH2 0x3EC6 JUMP JUMPDEST SWAP3 PUSH2 0xD84 DUP2 PUSH2 0xB39 DUP5 PUSH1 0x40 DUP14 ADD MLOAD PUSH2 0x2EFF JUMP JUMPDEST SWAP11 MLOAD DUP1 DUP13 LT DUP1 ISZERO PUSH2 0xE7F JUMPI JUMPDEST PUSH2 0xE61 JUMPI POP SWAP1 DUP11 DUP11 PUSH2 0xDD7 SWAP7 SWAP6 SWAP5 SWAP4 PUSH2 0xDB3 PUSH2 0xDAC DUP6 DUP5 PUSH2 0x3C22 JUMP JUMPDEST SWAP2 DUP11 PUSH2 0x3C22 JUMP JUMPDEST LT PUSH2 0xE32 JUMPI JUMPDEST POP POP SWAP1 MLOAD SWAP3 MLOAD PUSH2 0x13E SLOAD SWAP4 PUSH1 0x1 PUSH1 0x1 PUSH1 0xA0 SHL SUB SWAP2 DUP3 AND SWAP3 POP AND PUSH2 0x3658 JUMP JUMPDEST SWAP6 SWAP2 SWAP7 SWAP1 SWAP5 MLOAD DUP1 DUP9 GT PUSH2 0xE13 JUMPI POP SWAP2 PUSH1 0x40 DUP5 SWAP3 PUSH2 0xE0B PUSH2 0x662 SWAP6 PUSH2 0x6A5 SWAP10 SWAP9 SWAP8 DUP13 PUSH1 0x1 DUP1 PUSH1 0xA0 SHL SUB PUSH1 0xC0 DUP7 ADD MLOAD AND SWAP3 PUSH2 0x3454 JUMP JUMPDEST ADD MLOAD SWAP1 PUSH2 0x39AA JUMP JUMPDEST PUSH1 0x44 SWAP1 DUP8 MLOAD PUSH1 0x40 MLOAD SWAP2 PUSH4 0xB63F1A7 PUSH1 0xE0 SHL DUP4 MSTORE PUSH1 0x4 DUP4 ADD MSTORE PUSH1 0x24 DUP3 ADD MSTORE REVERT JUMPDEST PUSH2 0xE51 PUSH2 0xE59 SWAP4 PUSH2 0xE41 PUSH2 0x3D83 JUMP JUMPDEST PUSH2 0xE49 PUSH2 0x3CC5 JUMP JUMPDEST DUP2 SWAP4 SWAP2 PUSH2 0x3595 JUMP JUMPDEST SWAP5 SWAP1 SWAP4 PUSH2 0x3A95 JUMP JUMPDEST CODESIZE DUP11 DUP11 PUSH2 0xDB9 JUMP JUMPDEST PUSH1 0x44 SWAP1 DUP13 PUSH1 0x40 MLOAD SWAP2 PUSH4 0x272E3F59 PUSH1 0xE2 SHL DUP4 MSTORE PUSH1 0x4 DUP4 ADD MSTORE PUSH1 0x24 DUP3 ADD MSTORE REVERT JUMPDEST POP DUP12 ISZERO PUSH2 0xD90 JUMP JUMPDEST PUSH1 0x40 MLOAD PUSH4 0x2A9FFAB7 PUSH1 0xE2 SHL DUP2 MSTORE PUSH1 0x4 SWAP1 REVERT JUMPDEST DUP3 DUP1 REVERT JUMPDEST DUP3 CALLVALUE PUSH2 0x4AB JUMPI PUSH1 0x20 CALLDATASIZE PUSH1 0x3 NOT ADD SLT PUSH2 0x4AB JUMPI PUSH1 0x4 CALLDATALOAD PUSH1 0x1 PUSH1 0x1 PUSH1 0xA0 SHL SUB DUP2 AND SWAP1 DUP2 SWAP1 SUB PUSH2 0x522 JUMPI DUP2 PUSH1 0x40 SWAP2 PUSH1 0x20 SWAP4 MSTORE PUSH2 0x145 DUP4 MSTORE KECCAK256 SLOAD PUSH1 0x40 MLOAD SWAP1 DUP2 MSTORE RETURN JUMPDEST SWAP1 POP CALLVALUE PUSH2 0x93B JUMPI CALLDATASIZE PUSH1 0x3 NOT ADD SLT PUSH2 0x4AB JUMPI PUSH1 0x4 CALLDATALOAD PUSH1 0x1 PUSH1 0x1 PUSH1 0xA0 SHL SUB DUP2 DUP2 AND SWAP2 DUP3 SWAP1 SUB PUSH2 0x522 JUMPI PUSH1 0x24 DUP1 CALLDATALOAD DUP3 DUP2 AND DUP1 SWAP2 SUB PUSH2 0x522 JUMPI DUP4 DUP6 MSTORE PUSH2 0x136 SWAP4 PUSH1 0x20 SWAP1 DUP6 DUP3 MSTORE PUSH1 0x1 SWAP3 PUSH1 0xFF DUP5 PUSH1 0x40 DUP11 KECCAK256 ADD SLOAD AND PUSH2 0x1141 JUMPI PUSH2 0x135 SWAP6 DUP7 SLOAD SWAP8 DUP6 PUSH1 0x40 MLOAD PUSH2 0xF44 PUSH1 0x40 DUP3 PUSH2 0x285A JUMP JUMPDEST DUP11 DUP2 MSTORE DUP7 DUP2 ADD SWAP3 DUP3 DUP5 MSTORE DUP7 DUP14 MSTORE DUP8 MSTORE PUSH1 0x40 DUP13 KECCAK256 SWAP1 MLOAD DUP2 SSTORE ADD SWAP1 MLOAD ISZERO ISZERO PUSH1 0xFF DUP1 NOT DUP4 SLOAD AND SWAP2 AND OR SWAP1 SSTORE DUP7 SLOAD PUSH1 0x1 PUSH1 0x40 SHL SWAP8 DUP9 DUP3 LT ISZERO PUSH2 0x112E JUMPI SWAP1 PUSH2 0xF8B SWAP2 DUP8 DUP3 ADD DUP2 SSTORE PUSH2 0x27FC JUMP JUMPDEST DUP2 SLOAD SWAP1 PUSH1 0x3 SHL SWAP1 DUP4 DUP7 DUP4 SHL SWAP3 SHL NOT AND OR SWAP1 SSTORE PUSH1 0x40 MLOAD PUSH2 0xFAB PUSH1 0x40 DUP3 PUSH2 0x285A JUMP JUMPDEST DUP10 DUP2 MSTORE DUP5 DUP2 ADD SWAP3 DUP4 MSTORE PUSH2 0x137 DUP1 SLOAD SWAP1 DUP10 DUP3 LT ISZERO PUSH2 0x111B JUMPI SWAP1 PUSH2 0xFD1 SWAP2 DUP9 DUP3 ADD DUP2 SSTORE PUSH2 0x283E JUMP JUMPDEST SWAP2 SWAP1 SWAP2 PUSH2 0x1108 JUMPI SWAP1 DUP7 SWAP2 MLOAD DUP2 SSTORE ADD SWAP2 MLOAD AND PUSH1 0x1 PUSH1 0x1 PUSH1 0x60 SHL SUB PUSH1 0xA0 SHL DUP3 SLOAD AND OR SWAP1 SSTORE PUSH2 0x1001 PUSH1 0x44 CALLDATALOAD PUSH2 0x148 PUSH2 0x301B JUMP JUMPDEST DUP1 DUP8 MSTORE PUSH2 0x144 DUP3 MSTORE PUSH1 0x64 CALLDATALOAD PUSH1 0x40 DUP9 KECCAK256 SSTORE DUP7 MSTORE PUSH2 0x145 DUP2 MSTORE PUSH1 0x84 CALLDATALOAD PUSH1 0x40 DUP8 KECCAK256 SSTORE PUSH1 0x40 MLOAD SWAP1 PUSH2 0x102F PUSH1 0x40 DUP4 PUSH2 0x285A JUMP JUMPDEST PUSH1 0xA4 CALLDATALOAD DUP3 MSTORE DUP2 ADD PUSH1 0xC4 CALLDATALOAD DUP2 MSTORE PUSH2 0x18E DUP1 SLOAD SWAP1 DUP7 DUP3 LT ISZERO PUSH2 0x10F5 JUMPI SWAP1 PUSH2 0x1058 SWAP2 DUP6 DUP3 ADD DUP2 SSTORE PUSH2 0x283E JUMP JUMPDEST SWAP3 SWAP1 SWAP3 PUSH2 0x10E2 JUMPI SWAP1 DUP4 SWAP2 MLOAD DUP4 SSTORE MLOAD SWAP2 ADD SSTORE PUSH2 0x150 SWAP2 DUP3 SLOAD SWAP4 DUP5 LT ISZERO PUSH2 0x10D0 JUMPI POP DUP3 PUSH32 0x6417E5A3C1E0E5DAE98B8FE718C4BABDFCB35E0D7B5E1B9641B5914756F5D8E3 SWAP5 SWAP3 PUSH2 0x10AB SWAP3 PUSH1 0x4 SWAP6 ADD DUP2 SSTORE PUSH2 0x27FC JUMP JUMPDEST POP POP PUSH2 0x10C1 PUSH2 0x10B9 DUP3 PUSH2 0x312F JUMP JUMPDEST PUSH2 0x151 PUSH2 0x301B JUMP JUMPDEST PUSH2 0x86D PUSH1 0x40 MLOAD SWAP3 DUP4 SWAP3 DUP4 PUSH2 0x33C5 JUMP JUMPDEST PUSH4 0x4E487B71 PUSH1 0xE0 SHL DUP7 MSTORE PUSH1 0x41 PUSH1 0x4 MSTORE DUP6 REVERT JUMPDEST PUSH4 0x4E487B71 PUSH1 0xE0 SHL DUP9 MSTORE PUSH1 0x4 DUP9 SWAP1 MSTORE DUP5 DUP9 REVERT JUMPDEST PUSH4 0x4E487B71 PUSH1 0xE0 SHL DUP10 MSTORE PUSH1 0x41 PUSH1 0x4 MSTORE DUP6 DUP10 REVERT JUMPDEST PUSH4 0x4E487B71 PUSH1 0xE0 SHL DUP12 MSTORE PUSH1 0x4 DUP12 SWAP1 MSTORE DUP8 DUP12 REVERT JUMPDEST PUSH4 0x4E487B71 PUSH1 0xE0 SHL DUP13 MSTORE PUSH1 0x41 PUSH1 0x4 MSTORE DUP9 DUP13 REVERT JUMPDEST PUSH4 0x4E487B71 PUSH1 0xE0 SHL DUP12 MSTORE PUSH1 0x41 PUSH1 0x4 MSTORE DUP8 DUP12 REVERT JUMPDEST PUSH1 0x40 MLOAD PUSH4 0x3458F6C5 PUSH1 0xE0 SHL DUP2 MSTORE PUSH1 0x4 SWAP1 REVERT JUMPDEST CALLDATASIZE PUSH1 0x3 NOT ADD SLT SWAP1 POP PUSH2 0x4AB JUMPI PUSH2 0x116A CALLDATASIZE PUSH1 0x4 PUSH2 0x28AE JUMP JUMPDEST SWAP1 PUSH2 0x1173 PUSH2 0x342D JUMP JUMPDEST POP PUSH2 0x117C PUSH2 0x3D83 JUMP JUMPDEST PUSH2 0x1184 PUSH2 0x3CC5 JUMP JUMPDEST SWAP3 SWAP1 PUSH1 0x1 DUP1 PUSH1 0xA0 SHL SUB SWAP3 PUSH2 0x119A DUP5 DUP5 MLOAD AND PUSH2 0x3106 JUMP JUMPDEST SWAP1 PUSH2 0x11BA PUSH2 0x11A8 DUP4 DUP9 PUSH2 0x2DC7 JUMP JUMPDEST MLOAD SWAP7 PUSH2 0x11B4 DUP9 DUP6 PUSH2 0x35D8 JUMP JUMPDEST DUP5 PUSH2 0x3595 JUMP JUMPDEST PUSH1 0x20 DUP7 SWAP8 SWAP3 SWAP8 ADD SWAP7 DUP8 MLOAD PUSH2 0x11CF DUP4 DUP4 DUP10 PUSH2 0x3BDA JUMP JUMPDEST DUP2 DUP2 LT PUSH2 0x12BD JUMPI POP POP SWAP1 PUSH2 0x11FB SWAP2 DUP9 MLOAD PUSH8 0xDE0B6B3A7640000 SWAP4 DUP5 SWAP2 PUSH2 0x11F5 DUP6 DUP6 PUSH2 0x3629 JUMP JUMPDEST SWAP1 PUSH2 0x2EFF JUMP JUMPDEST DIV SWAP7 DUP8 ISZERO PUSH2 0xBE7 JUMPI PUSH2 0x1237 SWAP4 PUSH2 0x122E PUSH2 0x1224 DUP14 PUSH2 0x5E5 DUP15 MLOAD PUSH2 0x11F5 DUP9 PUSH2 0x5E0 DUP12 PUSH2 0x131 SLOAD PUSH2 0x2FC4 JUMP JUMPDEST PUSH2 0x134 SLOAD SWAP1 PUSH2 0x2F12 JUMP JUMPDEST DIV SWAP11 DUP12 DUP9 PUSH2 0x3A95 JUMP JUMPDEST PUSH1 0x40 DUP6 ADD MLOAD DUP1 DUP9 LT PUSH2 0x129F JUMPI POP PUSH2 0x1260 DUP2 PUSH1 0x80 DUP8 ADD MLOAD AND DUP6 DUP4 PUSH1 0xC0 DUP10 ADD MLOAD AND PUSH2 0x140 SLOAD SWAP3 PUSH2 0x3658 JUMP JUMPDEST SWAP7 SWAP2 SWAP8 SWAP1 SWAP6 PUSH1 0x60 DUP4 ADD MLOAD DUP1 DUP11 GT PUSH2 0x6A9 JUMPI POP SWAP3 PUSH1 0xA0 DUP6 SWAP4 PUSH2 0x1296 DUP6 DUP14 SWAP6 PUSH2 0x1290 PUSH2 0x662 SWAP11 PUSH2 0x6A5 SWAP15 SWAP14 SWAP13 SWAP11 PUSH2 0x38F0 JUMP JUMPDEST MLOAD PUSH2 0x3A34 JUMP JUMPDEST ADD MLOAD AND SWAP3 PUSH2 0x3454 JUMP JUMPDEST PUSH1 0x44 SWAP1 DUP9 PUSH1 0x40 MLOAD SWAP2 PUSH4 0x272E3F59 PUSH1 0xE2 SHL DUP4 MSTORE PUSH1 0x4 DUP4 ADD MSTORE PUSH1 0x24 DUP3 ADD MSTORE REVERT JUMPDEST PUSH1 0x44 SWAP3 POP PUSH1 0x40 MLOAD SWAP2 PUSH4 0xA5DB715D PUSH1 0xE0 SHL DUP4 MSTORE PUSH1 0x4 DUP4 ADD MSTORE PUSH1 0x24 DUP3 ADD MSTORE REVERT JUMPDEST DUP3 CALLVALUE PUSH2 0x4AB JUMPI PUSH1 0x20 CALLDATASIZE PUSH1 0x3 NOT ADD SLT PUSH2 0x4AB JUMPI PUSH1 0x4 CALLDATALOAD PUSH1 0x1 PUSH1 0x1 PUSH1 0xA0 SHL SUB DUP2 AND SWAP1 DUP2 SWAP1 SUB PUSH2 0x522 JUMPI PUSH2 0x130A PUSH2 0x3E17 JUMP JUMPDEST PUSH2 0x152 DUP1 SLOAD PUSH1 0x1 PUSH1 0x1 PUSH1 0xA0 SHL SUB NOT AND SWAP1 SWAP2 OR SWAP1 SSTORE DUP1 RETURN JUMPDEST DUP3 CALLVALUE PUSH2 0x4AB JUMPI DUP1 PUSH1 0x3 NOT CALLDATASIZE ADD SLT PUSH2 0x4AB JUMPI PUSH1 0x20 PUSH2 0x155 SLOAD PUSH1 0x40 MLOAD SWAP1 DUP2 MSTORE RETURN JUMPDEST DUP3 CALLVALUE PUSH2 0x4AB JUMPI DUP1 PUSH1 0x3 NOT CALLDATASIZE ADD SLT PUSH2 0x4AB JUMPI PUSH1 0x20 PUSH2 0x137A PUSH2 0x1360 PUSH1 0x1 PUSH2 0x3221 JUMP JUMPDEST PUSH2 0x1374 PUSH2 0x136D DUP3 DUP5 PUSH2 0x2F32 JUMP JUMPDEST SWAP2 DUP4 PUSH2 0x2E76 JUMP JUMPDEST SWAP2 PUSH2 0x3268 JUMP JUMPDEST PUSH1 0x40 MLOAD SWAP1 DUP2 MSTORE RETURN JUMPDEST DUP3 CALLVALUE PUSH2 0x4AB JUMPI DUP1 PUSH1 0x3 NOT CALLDATASIZE ADD SLT PUSH2 0x4AB JUMPI PUSH2 0x139B PUSH2 0x3D83 JUMP JUMPDEST DUP1 RETURN JUMPDEST DUP3 CALLVALUE PUSH2 0x4AB JUMPI PUSH1 0x20 CALLDATASIZE PUSH1 0x3 NOT ADD SLT PUSH2 0x4AB JUMPI PUSH1 0x4 CALLDATALOAD PUSH1 0x1 PUSH1 0x1 PUSH1 0xA0 SHL SUB DUP2 AND SWAP1 DUP2 SWAP1 SUB PUSH2 0x522 JUMPI PUSH2 0x13CD PUSH2 0x3E17 JUMP JUMPDEST PUSH2 0x12F DUP1 SLOAD PUSH1 0x1 PUSH1 0x1 PUSH1 0xA0 SHL SUB NOT AND SWAP1 SWAP2 OR SWAP1 SSTORE DUP1 RETURN JUMPDEST DUP3 CALLVALUE PUSH2 0x4AB JUMPI PUSH1 0x20 CALLDATASIZE PUSH1 0x3 NOT ADD SLT PUSH2 0x4AB JUMPI PUSH2 0x13FE PUSH2 0x3E17 JUMP JUMPDEST PUSH1 0x4 CALLDATALOAD PUSH2 0x14C SSTORE DUP1 RETURN JUMPDEST DUP3 CALLVALUE PUSH2 0x4AB JUMPI PUSH1 0x20 CALLDATASIZE PUSH1 0x3 NOT ADD SLT PUSH2 0x4AB JUMPI PUSH2 0x1422 PUSH2 0x3E17 JUMP JUMPDEST PUSH1 0x4 CALLDATALOAD PUSH2 0x13D SSTORE DUP1 RETURN JUMPDEST DUP3 CALLVALUE PUSH2 0x4AB JUMPI PUSH1 0x20 CALLDATASIZE PUSH1 0x3 NOT ADD SLT PUSH2 0x4AB JUMPI PUSH2 0x1446 PUSH2 0x3E17 JUMP JUMPDEST PUSH1 0x4 CALLDATALOAD PUSH2 0x139 SSTORE DUP1 RETURN JUMPDEST DUP3 CALLVALUE PUSH2 0x4AB JUMPI DUP1 PUSH1 0x3 NOT CALLDATASIZE ADD SLT PUSH2 0x4AB JUMPI PUSH1 0x20 PUSH1 0xFF PUSH1 0xCA SLOAD AND PUSH1 0x40 MLOAD SWAP1 ISZERO ISZERO DUP2 MSTORE RETURN JUMPDEST DUP3 CALLVALUE PUSH2 0x4AB JUMPI DUP1 PUSH1 0x3 NOT CALLDATASIZE ADD SLT PUSH2 0x4AB JUMPI PUSH1 0x20 PUSH2 0x15B SLOAD PUSH1 0x40 MLOAD SWAP1 DUP2 MSTORE RETURN JUMPDEST DUP3 CALLVALUE PUSH2 0x4AB JUMPI DUP1 PUSH1 0x3 NOT CALLDATASIZE ADD SLT PUSH2 0x4AB JUMPI PUSH2 0x153 SLOAD PUSH1 0x40 MLOAD PUSH1 0x1 PUSH1 0x1 PUSH1 0xA0 SHL SUB SWAP1 SWAP2 AND DUP2 MSTORE PUSH1 0x20 SWAP1 RETURN JUMPDEST DUP3 CALLVALUE PUSH2 0x4AB JUMPI DUP1 PUSH1 0x3 NOT CALLDATASIZE ADD SLT PUSH2 0x4AB JUMPI PUSH1 0x20 PUSH2 0x13D SLOAD PUSH1 0x40 MLOAD SWAP1 DUP2 MSTORE RETURN JUMPDEST DUP3 CALLVALUE PUSH2 0x4AB JUMPI DUP1 PUSH1 0x3 NOT CALLDATASIZE ADD SLT PUSH2 0x4AB JUMPI PUSH1 0x20 PUSH2 0x18F SLOAD NUMBER LT ISZERO PUSH1 0x40 MLOAD SWAP1 DUP2 MSTORE RETURN JUMPDEST DUP3 CALLVALUE PUSH2 0x4AB JUMPI DUP1 PUSH1 0x3 NOT CALLDATASIZE ADD SLT PUSH2 0x4AB JUMPI PUSH1 0xCA SLOAD PUSH1 0x40 MLOAD PUSH1 0x10 SWAP2 SWAP1 SWAP2 SHR PUSH1 0x1 PUSH1 0x1 PUSH1 0xA0 SHL SUB AND DUP2 MSTORE PUSH1 0x20 SWAP1 RETURN JUMPDEST DUP3 CALLVALUE PUSH2 0x4AB JUMPI PUSH1 0x20 CALLDATASIZE PUSH1 0x3 NOT ADD SLT PUSH2 0x4AB JUMPI PUSH1 0x4 CALLDATALOAD PUSH1 0x1 PUSH1 0x1 PUSH1 0xA0 SHL SUB DUP2 AND SWAP1 DUP2 SWAP1 SUB PUSH2 0x522 JUMPI PUSH1 0x40 DUP3 DUP2 SWAP3 DUP2 MSTORE PUSH2 0x136 PUSH1 0x20 MSTORE KECCAK256 PUSH1 0xFF PUSH1 0x1 DUP3 SLOAD SWAP3 ADD SLOAD AND DUP3 MLOAD SWAP2 DUP3 MSTORE ISZERO ISZERO PUSH1 0x20 DUP3 ADD MSTORE RETURN JUMPDEST DUP3 CALLVALUE PUSH2 0x4AB JUMPI DUP1 PUSH1 0x3 NOT CALLDATASIZE ADD SLT PUSH2 0x4AB JUMPI PUSH1 0x20 PUSH2 0x15A3 PUSH2 0x159D PUSH2 0x1598 PUSH2 0x31E7 JUMP JUMPDEST PUSH2 0x2DE8 JUMP JUMPDEST SWAP1 PUSH2 0x2FA6 JUMP JUMPDEST PUSH2 0x14A SLOAD LT ISZERO PUSH1 0x40 MLOAD SWAP1 DUP2 MSTORE RETURN JUMPDEST DUP3 CALLVALUE PUSH2 0x4AB JUMPI DUP1 PUSH1 0x3 NOT CALLDATASIZE ADD SLT PUSH2 0x4AB JUMPI PUSH2 0x146 SLOAD PUSH1 0x40 MLOAD PUSH1 0x1 PUSH1 0x1 PUSH1 0xA0 SHL SUB SWAP1 SWAP2 AND DUP2 MSTORE PUSH1 0x20 SWAP1 RETURN JUMPDEST DUP3 CALLVALUE PUSH2 0x4AB JUMPI DUP1 PUSH1 0x3 NOT CALLDATASIZE ADD SLT PUSH2 0x4AB JUMPI PUSH2 0x158 SLOAD PUSH1 0x40 MLOAD PUSH1 0x1 PUSH1 0x1 PUSH1 0xA0 SHL SUB SWAP1 SWAP2 AND DUP2 MSTORE PUSH1 0x20 SWAP1 RETURN JUMPDEST DUP3 CALLVALUE PUSH2 0x4AB JUMPI DUP1 PUSH1 0x3 NOT CALLDATASIZE ADD SLT PUSH2 0x4AB JUMPI PUSH1 0x20 PUSH2 0x14A SLOAD PUSH1 0x40 MLOAD SWAP1 DUP2 MSTORE RETURN JUMPDEST DUP3 CALLVALUE PUSH2 0x4AB JUMPI PUSH1 0x20 CALLDATASIZE PUSH1 0x3 NOT ADD SLT PUSH2 0x4AB JUMPI PUSH1 0x4 CALLDATALOAD PUSH1 0x1 PUSH1 0x1 PUSH1 0xA0 SHL SUB DUP2 AND SWAP1 DUP2 SWAP1 SUB PUSH2 0x522 JUMPI PUSH2 0x1653 PUSH2 0x3E17 JUMP JUMPDEST PUSH2 0x153 DUP1 SLOAD PUSH1 0x1 PUSH1 0x1 PUSH1 0xA0 SHL SUB NOT AND SWAP1 SWAP2 OR SWAP1 SSTORE DUP1 RETURN JUMPDEST DUP3 CALLVALUE PUSH2 0x4AB JUMPI DUP1 PUSH1 0x3 NOT CALLDATASIZE ADD SLT PUSH2 0x4AB JUMPI PUSH2 0x1683 PUSH2 0x3EA5 JUMP JUMPDEST PUSH1 0xCA SLOAD PUSH1 0x10 DUP2 SWAP1 SHR PUSH1 0x1 PUSH1 0x1 PUSH1 0xA0 SHL SUB AND CALLER SUB PUSH2 0x16EF JUMPI PUSH1 0xFF DUP2 AND ISZERO PUSH2 0x16DD JUMPI PUSH2 0x100 SWAP1 PUSH2 0xFF00 NOT AND OR PUSH1 0xCA SSTORE PUSH32 0x62E78CEA01BEE320CD4E420270B5EA74000D11B0C9F74754EBDBFC544B05A258 PUSH1 0x20 PUSH1 0x40 MLOAD CALLER DUP2 MSTORE LOG1 DUP1 RETURN JUMPDEST PUSH1 0x40 MLOAD PUSH4 0x866099C3 PUSH1 0xE0 SHL DUP2 MSTORE PUSH1 0x4 SWAP1 REVERT JUMPDEST PUSH1 0x40 MLOAD PUSH4 0x1D77D477 PUSH1 0xE2 SHL DUP2 MSTORE PUSH1 0x4 SWAP1 REVERT JUMPDEST DUP3 CALLVALUE PUSH2 0x4AB JUMPI DUP1 PUSH1 0x3 NOT CALLDATASIZE ADD SLT PUSH2 0x4AB JUMPI PUSH1 0x20 PUSH2 0x15A SLOAD PUSH1 0x40 MLOAD SWAP1 DUP2 MSTORE RETURN JUMPDEST DUP3 CALLVALUE PUSH2 0x4AB JUMPI DUP1 PUSH1 0x3 NOT CALLDATASIZE ADD SLT PUSH2 0x4AB JUMPI PUSH1 0x20 PUSH2 0x137A PUSH2 0x1740 PUSH1 0x1 PUSH2 0x3221 JUMP JUMPDEST PUSH2 0x1374 PUSH2 0x174D DUP3 DUP5 PUSH2 0x2E76 JUMP JUMPDEST SWAP2 DUP4 PUSH2 0x2F32 JUMP JUMPDEST DUP3 CALLVALUE PUSH2 0x4AB JUMPI DUP1 PUSH1 0x3 NOT CALLDATASIZE ADD SLT PUSH2 0x4AB JUMPI PUSH2 0x1C3 SLOAD PUSH1 0x40 MLOAD PUSH1 0x1 PUSH1 0x1 PUSH1 0xA0 SHL SUB SWAP1 SWAP2 AND DUP2 MSTORE PUSH1 0x20 SWAP1 RETURN JUMPDEST DUP3 CALLVALUE PUSH2 0x4AB JUMPI PUSH1 0x20 CALLDATASIZE PUSH1 0x3 NOT ADD SLT PUSH2 0x4AB JUMPI PUSH1 0x4 CALLDATALOAD SWAP1 PUSH2 0x148 SWAP1 DUP2 SLOAD DUP4 LT ISZERO PUSH2 0x4AB JUMPI PUSH1 0x20 PUSH2 0x17AD DUP5 DUP5 PUSH2 0x27FC JUMP JUMPDEST SWAP1 SLOAD PUSH1 0x40 MLOAD SWAP2 PUSH1 0x3 SHL SHR DUP2 MSTORE RETURN JUMPDEST DUP3 CALLVALUE PUSH2 0x4AB JUMPI PUSH1 0x20 CALLDATASIZE PUSH1 0x3 NOT ADD SLT PUSH2 0x4AB JUMPI PUSH2 0x17D5 PUSH2 0x3E17 JUMP JUMPDEST PUSH1 0x4 CALLDATALOAD PUSH2 0x149 SSTORE DUP1 RETURN JUMPDEST CALLDATASIZE PUSH1 0x3 NOT ADD SLT SWAP1 POP PUSH2 0x4AB JUMPI PUSH2 0x17F6 CALLDATASIZE PUSH1 0x4 PUSH2 0x28AE JUMP JUMPDEST PUSH2 0x17FE PUSH2 0x342D JUMP JUMPDEST POP PUSH2 0x1807 PUSH2 0x3D83 JUMP JUMPDEST PUSH2 0x180F PUSH2 0x3CC5 JUMP JUMPDEST DUP3 MLOAD SWAP2 SWAP3 SWAP2 PUSH1 0x1 PUSH1 0x1 PUSH1 0xA0 SHL SUB SWAP1 PUSH2 0x1828 SWAP1 DUP3 AND PUSH2 0x3106 JUMP JUMPDEST SWAP1 PUSH2 0x1842 PUSH2 0x1836 DUP4 DUP6 PUSH2 0x2DC7 JUMP JUMPDEST MLOAD SWAP4 PUSH2 0xAF7 DUP6 DUP6 PUSH2 0x35D8 JUMP JUMPDEST SWAP6 PUSH8 0xDE0B6B3A763FFFF NOT SWAP1 DUP2 DUP2 ADD SWAP1 DUP2 GT PUSH2 0x1996 JUMPI PUSH2 0x1862 SWAP1 DUP7 PUSH2 0x2EFF JUMP JUMPDEST PUSH2 0x186C DUP7 DUP7 PUSH2 0x3C22 JUMP JUMPDEST SWAP2 DUP3 ADD SWAP2 DUP3 GT PUSH2 0x1996 JUMPI PUSH2 0x18B0 SWAP5 SWAP4 SWAP3 SWAP2 PUSH2 0x1886 SWAP2 PUSH2 0x2F12 JUMP JUMPDEST SWAP1 PUSH2 0x189A PUSH1 0x20 DUP9 ADD SWAP3 PUSH2 0x5E5 DUP4 DUP6 MLOAD PUSH2 0x2EFF JUMP JUMPDEST PUSH8 0xDE0B6B3A7640000 SWAP6 DUP7 SWAP2 PUSH2 0x134 SLOAD SWAP1 PUSH2 0x2F12 JUMP JUMPDEST DIV SWAP8 PUSH1 0x40 DUP9 ADD MLOAD DUP1 DUP11 GT PUSH2 0x1978 JUMPI POP PUSH2 0x18CB SWAP1 DUP4 MLOAD SWAP3 PUSH2 0x3629 JUMP JUMPDEST SWAP6 DUP6 DUP10 MUL SWAP1 DUP10 DUP3 DIV DUP8 EQ DUP11 ISZERO OR ISZERO PUSH2 0xC17 JUMPI PUSH2 0x18E6 SWAP2 PUSH2 0x2F12 JUMP JUMPDEST SWAP1 DUP2 ISZERO PUSH2 0xBE7 JUMPI PUSH2 0x190A PUSH2 0x192F SWAP7 PUSH2 0x1903 PUSH1 0x60 SWAP10 PUSH2 0x1924 SWAP5 PUSH2 0x2EFF JUMP JUMPDEST DIV DUP4 PUSH2 0x2DDB JUMP JUMPDEST SWAP4 DUP5 DUP2 PUSH1 0x80 DUP12 ADD MLOAD AND SWAP2 PUSH1 0xC0 DUP12 ADD MLOAD AND PUSH2 0x141 SLOAD SWAP3 PUSH2 0x3658 JUMP JUMPDEST SWAP8 SWAP2 DUP6 SWAP8 SWAP2 SWAP8 PUSH2 0x2FC4 JUMP JUMPDEST SWAP8 ADD MLOAD DUP1 DUP9 LT PUSH2 0x195A JUMPI POP SWAP3 PUSH2 0x1955 DUP9 SWAP10 SWAP4 PUSH2 0x6A5 SWAP9 SWAP10 SWAP4 PUSH2 0x1290 PUSH1 0x1 PUSH2 0x662 SWAP9 PUSH2 0x38F0 JUMP JUMPDEST PUSH2 0x39AA JUMP JUMPDEST PUSH1 0x44 SWAP1 DUP9 PUSH1 0x40 MLOAD SWAP2 PUSH4 0x54CDE313 PUSH1 0xE0 SHL DUP4 MSTORE PUSH1 0x4 DUP4 ADD MSTORE PUSH1 0x24 DUP3 ADD MSTORE REVERT JUMPDEST PUSH1 0x44 SWAP1 DUP11 PUSH1 0x40 MLOAD SWAP2 PUSH4 0x7A031DA3 PUSH1 0xE1 SHL DUP4 MSTORE PUSH1 0x4 DUP4 ADD MSTORE PUSH1 0x24 DUP3 ADD MSTORE REVERT JUMPDEST PUSH4 0x4E487B71 PUSH1 0xE0 SHL DUP10 MSTORE PUSH1 0x11 PUSH1 0x4 MSTORE PUSH1 0x24 DUP10 REVERT JUMPDEST DUP3 CALLVALUE PUSH2 0x4AB JUMPI PUSH1 0x20 CALLDATASIZE PUSH1 0x3 NOT ADD SLT PUSH2 0x4AB JUMPI PUSH2 0x19C4 PUSH2 0x3E17 JUMP JUMPDEST PUSH1 0x4 CALLDATALOAD PUSH2 0x140 SSTORE DUP1 RETURN JUMPDEST DUP3 CALLVALUE PUSH2 0x4AB JUMPI DUP1 PUSH1 0x3 NOT CALLDATASIZE ADD SLT PUSH2 0x4AB JUMPI PUSH1 0x20 PUSH2 0x190 SLOAD PUSH1 0x40 MLOAD SWAP1 DUP2 MSTORE RETURN JUMPDEST DUP3 CALLVALUE PUSH2 0x4AB JUMPI PUSH1 0x20 CALLDATASIZE PUSH1 0x3 NOT ADD SLT PUSH2 0x4AB JUMPI PUSH2 0x1A07 PUSH2 0x3E17 JUMP JUMPDEST PUSH1 0x4 CALLDATALOAD PUSH2 0x141 SSTORE DUP1 RETURN JUMPDEST DUP3 CALLVALUE PUSH2 0x4AB JUMPI DUP1 PUSH1 0x3 NOT CALLDATASIZE ADD SLT PUSH2 0x4AB JUMPI PUSH1 0x20 PUSH2 0x134 SLOAD PUSH1 0x40 MLOAD SWAP1 DUP2 MSTORE RETURN JUMPDEST DUP3 CALLVALUE PUSH2 0x4AB JUMPI DUP1 PUSH1 0x3 NOT CALLDATASIZE ADD SLT PUSH2 0x4AB JUMPI PUSH1 0x20 PUSH2 0x142 SLOAD PUSH1 0x40 MLOAD SWAP1 DUP2 MSTORE RETURN JUMPDEST DUP3 CALLVALUE PUSH2 0x4AB JUMPI PUSH1 0x20 CALLDATASIZE PUSH1 0x3 NOT ADD SLT PUSH2 0x4AB JUMPI PUSH2 0x1A69 PUSH2 0x3E17 JUMP JUMPDEST PUSH1 0x4 CALLDATALOAD PUSH2 0x13B SSTORE DUP1 RETURN JUMPDEST DUP3 CALLVALUE PUSH2 0x4AB JUMPI DUP1 PUSH1 0x3 NOT CALLDATASIZE ADD SLT PUSH2 0x4AB JUMPI PUSH1 0x20 PUSH2 0x156 SLOAD PUSH1 0x40 MLOAD SWAP1 DUP2 MSTORE RETURN JUMPDEST DUP3 CALLVALUE PUSH2 0x4AB JUMPI DUP1 PUSH1 0x3 NOT CALLDATASIZE ADD SLT PUSH2 0x4AB JUMPI PUSH1 0x20 PUSH2 0x139 SLOAD PUSH1 0x40 MLOAD SWAP1 DUP2 MSTORE RETURN JUMPDEST DUP3 CALLVALUE PUSH2 0x4AB JUMPI PUSH1 0x20 CALLDATASIZE PUSH1 0x3 NOT ADD SLT PUSH2 0x4AB JUMPI PUSH2 0x1ACB PUSH2 0x3E17 JUMP JUMPDEST PUSH1 0x4 CALLDATALOAD PUSH2 0x154 SSTORE DUP1 RETURN JUMPDEST DUP3 CALLVALUE PUSH2 0x4AB JUMPI PUSH1 0x20 CALLDATASIZE PUSH1 0x3 NOT ADD SLT PUSH2 0x4AB JUMPI PUSH1 0x4 CALLDATALOAD PUSH1 0x1 PUSH1 0x1 PUSH1 0xA0 SHL SUB DUP2 AND SWAP1 DUP2 SWAP1 SUB PUSH2 0x522 JUMPI PUSH2 0x1B04 PUSH2 0x3E17 JUMP JUMPDEST PUSH2 0x158 DUP1 SLOAD PUSH1 0x1 PUSH1 0x1 PUSH1 0xA0 SHL SUB NOT AND SWAP1 SWAP2 OR SWAP1 SSTORE DUP1 RETURN JUMPDEST DUP3 CALLVALUE PUSH2 0x4AB JUMPI PUSH1 0x20 CALLDATASIZE PUSH1 0x3 NOT ADD SLT PUSH2 0x4AB JUMPI PUSH2 0x1B35 PUSH2 0x3E17 JUMP JUMPDEST PUSH1 0x4 CALLDATALOAD PUSH2 0x13E SSTORE DUP1 RETURN JUMPDEST DUP3 CALLVALUE PUSH2 0x4AB JUMPI DUP1 PUSH1 0x3 NOT CALLDATASIZE ADD SLT PUSH2 0x4AB JUMPI PUSH1 0x20 PUSH2 0x154 SLOAD PUSH1 0x40 MLOAD SWAP1 DUP2 MSTORE RETURN JUMPDEST DUP3 CALLVALUE PUSH2 0x4AB JUMPI DUP1 PUSH1 0x3 NOT CALLDATASIZE ADD SLT PUSH2 0x4AB JUMPI PUSH1 0x20 PUSH2 0x149 SLOAD PUSH1 0x40 MLOAD SWAP1 DUP2 MSTORE RETURN JUMPDEST DUP3 CALLVALUE PUSH2 0x4AB JUMPI PUSH1 0x80 CALLDATASIZE PUSH1 0x3 NOT ADD SLT PUSH2 0x4AB JUMPI PUSH1 0x4 CALLDATALOAD PUSH1 0x1 PUSH1 0x1 PUSH1 0xA0 SHL SUB DUP2 DUP2 AND SWAP3 SWAP1 DUP4 DUP4 SUB PUSH2 0x522 JUMPI PUSH1 0x24 CALLDATALOAD DUP2 DUP2 AND SWAP2 DUP3 DUP3 SUB PUSH2 0x522 JUMPI PUSH1 0x44 CALLDATALOAD DUP2 DUP2 AND DUP1 SWAP2 SUB PUSH2 0x522 JUMPI PUSH1 0x64 CALLDATALOAD SWAP6 PUSH1 0xFF PUSH2 0x14B SLOAD PUSH1 0x8 SHR AND ISZERO PUSH2 0x1D6A JUMPI PUSH2 0x1BDD SWAP1 PUSH2 0x3106 JUMP JUMPDEST SWAP1 PUSH2 0x1BEA DUP3 PUSH2 0x135 PUSH2 0x27FC JUMP JUMPDEST SWAP6 SWAP1 SLOAD SWAP9 PUSH1 0x40 MLOAD SWAP7 PUSH4 0x70A08231 PUSH1 0xE0 SHL DUP9 MSTORE DUP3 PUSH1 0x4 DUP10 ADD MSTORE DUP8 PUSH1 0x24 DUP2 DUP9 PUSH1 0x20 SWAP15 DUP16 SWAP6 PUSH1 0x3 SHL SHR AND GAS STATICCALL SWAP7 DUP8 ISZERO PUSH2 0x1D5F JUMPI DUP9 SWAP8 PUSH2 0x1D30 JUMPI JUMPDEST POP DUP7 ISZERO PUSH2 0x1D12 JUMPI PUSH2 0x1C44 PUSH2 0x1C37 DUP6 PUSH2 0x138 PUSH2 0x27FC JUMP JUMPDEST SWAP1 SLOAD SWAP1 PUSH1 0x3 SHL SHR DUP9 PUSH2 0x3EC6 JUMP JUMPDEST SWAP9 DUP10 DUP2 LT PUSH2 0x1D08 JUMPI JUMPDEST POP SWAP1 PUSH2 0x1C8C SWAP4 SWAP3 SWAP2 PUSH32 0xFAAB3901CD2D6E9B5D0A0C6E34C643B8C844726F3C54DE69517E571BF24BBD92 PUSH1 0x40 DUP13 DUP13 DUP3 MLOAD SWAP2 DUP13 DUP4 MSTORE DUP3 ADD MSTORE LOG4 PUSH2 0x135 PUSH2 0x27FC JUMP JUMPDEST SWAP1 SLOAD SWAP1 PUSH1 0x3 SHL SHR AND SWAP1 DUP2 EXTCODESIZE ISZERO PUSH2 0x1D04 JUMPI PUSH1 0x40 MLOAD PUSH4 0x2770A7EB PUSH1 0xE2 SHL DUP2 MSTORE PUSH1 0x1 PUSH1 0x1 PUSH1 0xA0 SHL SUB SWAP2 SWAP1 SWAP2 AND PUSH1 0x4 DUP3 ADD MSTORE PUSH1 0x24 DUP2 ADD SWAP3 SWAP1 SWAP3 MSTORE DUP3 SWAP1 DUP3 SWAP1 PUSH1 0x44 SWAP1 DUP3 SWAP1 DUP5 SWAP1 GAS CALL DUP1 ISZERO PUSH2 0x1CF9 JUMPI PUSH2 0x1CE4 JUMPI JUMPDEST POP POP PUSH1 0x40 MLOAD SWAP1 DUP2 MSTORE RETURN JUMPDEST PUSH2 0x1CEF DUP3 DUP1 SWAP3 PUSH2 0x285A JUMP JUMPDEST PUSH2 0x4AB JUMPI DUP1 PUSH2 0x1CDA JUMP JUMPDEST PUSH1 0x40 MLOAD RETURNDATASIZE DUP5 DUP3 RETURNDATACOPY RETURNDATASIZE SWAP1 REVERT JUMPDEST DUP4 DUP1 REVERT JUMPDEST SWAP9 POP PUSH2 0x1C8C PUSH2 0x1C4D JUMP JUMPDEST PUSH1 0x44 DUP8 PUSH1 0x40 MLOAD SWAP1 PUSH4 0x3FE8C5EB PUSH1 0xE0 SHL DUP3 MSTORE DUP1 PUSH1 0x4 DUP4 ADD MSTORE PUSH1 0x24 DUP3 ADD MSTORE REVERT JUMPDEST SWAP1 SWAP7 POP DUP10 DUP2 DUP2 RETURNDATASIZE DUP4 GT PUSH2 0x1D58 JUMPI JUMPDEST PUSH2 0x1D48 DUP2 DUP4 PUSH2 0x285A JUMP JUMPDEST DUP2 ADD SUB SLT PUSH2 0x522 JUMPI MLOAD SWAP6 DUP11 PUSH2 0x1C21 JUMP JUMPDEST POP RETURNDATASIZE PUSH2 0x1D3E JUMP JUMPDEST PUSH1 0x40 MLOAD RETURNDATASIZE DUP11 DUP3 RETURNDATACOPY RETURNDATASIZE SWAP1 REVERT JUMPDEST PUSH1 0x40 MLOAD PUSH4 0x31B0D35 PUSH1 0xE1 SHL DUP2 MSTORE PUSH1 0x4 SWAP1 REVERT JUMPDEST DUP3 CALLVALUE PUSH2 0x4AB JUMPI DUP1 PUSH1 0x3 NOT CALLDATASIZE ADD SLT PUSH2 0x4AB JUMPI PUSH2 0x1D95 PUSH2 0x3E17 JUMP JUMPDEST PUSH1 0x1 PUSH1 0xFF NOT PUSH1 0xCA SLOAD AND OR PUSH1 0xCA SSTORE DUP1 RETURN JUMPDEST DUP3 CALLVALUE PUSH2 0x4AB JUMPI DUP1 PUSH1 0x3 NOT CALLDATASIZE ADD SLT PUSH2 0x4AB JUMPI PUSH1 0x20 PUSH2 0x1DC0 PUSH2 0x3CC5 JUMP JUMPDEST POP PUSH1 0x40 MLOAD SWAP1 DUP2 MSTORE RETURN JUMPDEST DUP3 CALLVALUE PUSH2 0x4AB JUMPI PUSH1 0x20 CALLDATASIZE PUSH1 0x3 NOT ADD SLT PUSH2 0x4AB JUMPI PUSH2 0x1DE3 PUSH2 0x3E17 JUMP JUMPDEST PUSH1 0x4 CALLDATALOAD PUSH2 0x159 SSTORE DUP1 RETURN JUMPDEST DUP3 CALLVALUE PUSH2 0x4AB JUMPI DUP1 PUSH1 0x3 NOT CALLDATASIZE ADD SLT PUSH2 0x4AB JUMPI PUSH2 0x12F SLOAD PUSH1 0x40 MLOAD PUSH1 0x1 PUSH1 0x1 PUSH1 0xA0 SHL SUB SWAP1 SWAP2 AND DUP2 MSTORE PUSH1 0x20 SWAP1 RETURN JUMPDEST DUP3 CALLVALUE PUSH2 0x4AB JUMPI DUP1 PUSH1 0x3 NOT CALLDATASIZE ADD SLT PUSH2 0x4AB JUMPI PUSH2 0x133 SLOAD PUSH1 0x40 MLOAD PUSH1 0x1 PUSH1 0x1 PUSH1 0xA0 SHL SUB SWAP1 SWAP2 AND DUP2 MSTORE PUSH1 0x20 SWAP1 RETURN JUMPDEST DUP3 CALLVALUE PUSH2 0x4AB JUMPI DUP1 PUSH1 0x3 NOT CALLDATASIZE ADD SLT PUSH2 0x4AB JUMPI PUSH1 0x20 PUSH2 0x14E SLOAD PUSH1 0x40 MLOAD SWAP1 DUP2 MSTORE RETURN JUMPDEST DUP3 CALLVALUE PUSH2 0x4AB JUMPI DUP1 PUSH1 0x3 NOT CALLDATASIZE ADD SLT PUSH2 0x4AB JUMPI PUSH1 0x20 PUSH1 0xFF PUSH1 0xCA SLOAD PUSH1 0x8 SHR AND PUSH1 0x40 MLOAD SWAP1 ISZERO ISZERO DUP2 MSTORE RETURN JUMPDEST DUP3 CALLVALUE PUSH2 0x4AB JUMPI DUP1 PUSH1 0x3 NOT CALLDATASIZE ADD SLT PUSH2 0x4AB JUMPI PUSH1 0x20 PUSH2 0x157 SLOAD PUSH1 0x40 MLOAD SWAP1 DUP2 MSTORE RETURN JUMPDEST DUP3 CALLVALUE PUSH2 0x4AB JUMPI PUSH1 0x20 CALLDATASIZE PUSH1 0x3 NOT ADD SLT PUSH2 0x4AB JUMPI PUSH2 0x1EBF PUSH2 0x3E17 JUMP JUMPDEST PUSH1 0x4 CALLDATALOAD PUSH2 0x143 SSTORE DUP1 RETURN JUMPDEST DUP3 CALLVALUE PUSH2 0x4AB JUMPI DUP1 PUSH1 0x3 NOT CALLDATASIZE ADD SLT PUSH2 0x4AB JUMPI PUSH32 0x0 PUSH1 0x1 PUSH1 0x1 PUSH1 0xA0 SHL SUB AND ADDRESS SUB PUSH2 0x1F34 JUMPI PUSH1 0x20 PUSH1 0x40 MLOAD PUSH32 0x360894A13BA1A3210667C828492DB98DCA3E2076CC3735A920A3CA505D382BBC DUP2 MSTORE RETURN JUMPDEST PUSH1 0x40 MLOAD PUSH3 0x461BCD PUSH1 0xE5 SHL DUP2 MSTORE PUSH1 0x20 PUSH1 0x4 DUP3 ADD MSTORE PUSH1 0x38 PUSH1 0x24 DUP3 ADD MSTORE PUSH32 0x555550535570677261646561626C653A206D757374206E6F742062652063616C PUSH1 0x44 DUP3 ADD MSTORE PUSH32 0x6C6564207468726F7567682064656C656761746563616C6C0000000000000000 PUSH1 0x64 DUP3 ADD MSTORE PUSH1 0x84 SWAP1 REVERT JUMPDEST DUP3 CALLVALUE PUSH2 0x4AB JUMPI DUP1 PUSH1 0x3 NOT CALLDATASIZE ADD SLT PUSH2 0x4AB JUMPI PUSH2 0x1FB8 PUSH2 0x3E17 JUMP JUMPDEST PUSH1 0xFF NOT PUSH1 0xCA SLOAD AND PUSH1 0xCA SSTORE DUP1 RETURN JUMPDEST DUP3 PUSH1 0x40 CALLDATASIZE PUSH1 0x3 NOT ADD SLT PUSH2 0x4AB JUMPI PUSH1 0x1 PUSH1 0x1 PUSH1 0xA0 SHL SUB PUSH1 0x4 CALLDATALOAD DUP2 DUP2 AND DUP2 SUB PUSH2 0x522 JUMPI DUP3 SWAP2 PUSH1 0x24 CALLDATALOAD SWAP2 PUSH8 0xFFFFFFFFFFFFFFFF DUP4 GT PUSH2 0x20B4 JUMPI CALLDATASIZE PUSH1 0x23 DUP5 ADD SLT ISZERO PUSH2 0x20B4 JUMPI DUP3 PUSH1 0x4 ADD CALLDATALOAD PUSH2 0x2014 DUP2 PUSH2 0x2892 JUMP JUMPDEST SWAP3 PUSH2 0x2022 PUSH1 0x40 MLOAD SWAP5 DUP6 PUSH2 0x285A JUMP JUMPDEST DUP2 DUP5 MSTORE CALLDATASIZE PUSH1 0x24 DUP4 DUP8 ADD ADD GT PUSH2 0x20B0 JUMPI PUSH2 0x139B SWAP6 PUSH1 0x20 DUP4 PUSH2 0x20A3 SWAP5 PUSH1 0x24 PUSH1 0x1 SWAP10 ADD DUP4 DUP10 ADD CALLDATACOPY DUP7 ADD ADD MSTORE DUP1 PUSH32 0x0 AND SWAP1 PUSH2 0x207A DUP3 ADDRESS EQ ISZERO PUSH2 0x2926 JUMP JUMPDEST PUSH32 0x360894A13BA1A3210667C828492DB98DCA3E2076CC3735A920A3CA505D382BBC SLOAD AND EQ PUSH2 0x2987 JUMP JUMPDEST PUSH2 0x20AB PUSH2 0x3E17 JUMP JUMPDEST PUSH2 0x29E8 JUMP JUMPDEST DUP6 DUP1 REVERT JUMPDEST POP POP POP REVERT JUMPDEST DUP3 CALLVALUE PUSH2 0x4AB JUMPI DUP1 PUSH1 0x3 NOT CALLDATASIZE ADD SLT PUSH2 0x4AB JUMPI PUSH1 0x20 PUSH2 0x13B SLOAD PUSH1 0x40 MLOAD SWAP1 DUP2 MSTORE RETURN JUMPDEST DUP3 CALLVALUE PUSH2 0x4AB JUMPI DUP1 PUSH1 0x3 NOT CALLDATASIZE ADD SLT PUSH2 0x4AB JUMPI PUSH2 0x147 SLOAD PUSH1 0x40 MLOAD PUSH1 0x1 PUSH1 0x1 PUSH1 0xA0 SHL SUB SWAP1 SWAP2 AND DUP2 MSTORE PUSH1 0x20 SWAP1 RETURN JUMPDEST DUP3 CALLVALUE PUSH2 0x4AB JUMPI DUP1 PUSH1 0x3 NOT CALLDATASIZE ADD SLT PUSH2 0x4AB JUMPI PUSH1 0x20 PUSH2 0x14C SLOAD PUSH1 0x40 MLOAD SWAP1 DUP2 MSTORE RETURN JUMPDEST DUP3 CALLVALUE PUSH2 0x4AB JUMPI PUSH1 0x20 CALLDATASIZE PUSH1 0x3 NOT ADD SLT PUSH2 0x4AB JUMPI PUSH1 0x4 CALLDATALOAD SWAP1 PUSH2 0x137 SWAP1 DUP2 SLOAD DUP4 LT ISZERO PUSH2 0x4AB JUMPI PUSH1 0x40 PUSH2 0x2150 DUP5 DUP5 PUSH2 0x283E JUMP JUMPDEST POP DUP1 SLOAD PUSH1 0x1 SWAP1 SWAP2 ADD SLOAD DUP3 MLOAD SWAP2 DUP3 MSTORE PUSH1 0x1 PUSH1 0x1 PUSH1 0xA0 SHL SUB AND PUSH1 0x20 DUP3 ADD MSTORE RETURN JUMPDEST DUP3 CALLVALUE PUSH2 0x4AB JUMPI DUP1 PUSH1 0x3 NOT CALLDATASIZE ADD SLT PUSH2 0x4AB JUMPI PUSH1 0x20 PUSH2 0x13E SLOAD PUSH1 0x40 MLOAD SWAP1 DUP2 MSTORE RETURN JUMPDEST DUP3 CALLVALUE PUSH2 0x4AB JUMPI DUP1 PUSH1 0x3 NOT CALLDATASIZE ADD SLT PUSH2 0x4AB JUMPI PUSH1 0xCA SLOAD PUSH1 0xFF DUP2 PUSH1 0x8 SHR AND ISZERO PUSH2 0x21F6 JUMPI PUSH1 0x10 DUP2 SWAP1 SHR PUSH1 0x1 PUSH1 0x1 PUSH1 0xA0 SHL SUB AND CALLER SUB PUSH2 0x16EF JUMPI PUSH2 0xFF00 NOT AND PUSH1 0xCA SSTORE PUSH32 0x5DB9EE0A495BF2E6FF9C91A7834C1BA4FDD244A5E8AA4E537BD38AEAE4B073AA PUSH1 0x20 PUSH1 0x40 MLOAD CALLER DUP2 MSTORE LOG1 DUP1 RETURN JUMPDEST PUSH1 0x40 MLOAD PUSH4 0x7C7FD079 PUSH1 0xE0 SHL DUP2 MSTORE PUSH1 0x4 SWAP1 REVERT JUMPDEST DUP3 CALLVALUE PUSH2 0x4AB JUMPI PUSH1 0x20 CALLDATASIZE PUSH1 0x3 NOT ADD SLT PUSH2 0x4AB JUMPI PUSH1 0x4 CALLDATALOAD PUSH1 0x1 PUSH1 0x1 PUSH1 0xA0 SHL SUB DUP2 AND SWAP1 DUP2 SWAP1 SUB PUSH2 0x522 JUMPI PUSH2 0x2237 PUSH2 0x3E17 JUMP JUMPDEST PUSH2 0x14F DUP1 SLOAD PUSH1 0x1 PUSH1 0x1 PUSH1 0xA0 SHL SUB NOT AND SWAP1 SWAP2 OR SWAP1 SSTORE DUP1 RETURN JUMPDEST DUP3 CALLVALUE PUSH2 0x4AB JUMPI PUSH1 0x20 CALLDATASIZE PUSH1 0x3 NOT ADD SLT PUSH2 0x4AB JUMPI PUSH2 0x2268 PUSH2 0x3E17 JUMP JUMPDEST PUSH1 0x4 CALLDATALOAD PUSH2 0x190 SSTORE DUP1 RETURN JUMPDEST DUP3 CALLVALUE PUSH2 0x4AB JUMPI PUSH1 0x20 CALLDATASIZE PUSH1 0x3 NOT ADD SLT PUSH2 0x4AB JUMPI PUSH1 0x4 CALLDATALOAD SWAP1 PUSH2 0x138 SWAP1 DUP2 SLOAD DUP4 LT ISZERO PUSH2 0x4AB JUMPI PUSH1 0x20 PUSH2 0x17AD DUP5 DUP5 PUSH2 0x27FC JUMP JUMPDEST DUP3 CALLVALUE PUSH2 0x4AB JUMPI PUSH1 0x20 CALLDATASIZE PUSH1 0x3 NOT ADD SLT PUSH2 0x4AB JUMPI PUSH1 0x4 CALLDATALOAD PUSH1 0x1 PUSH1 0x1 PUSH1 0xA0 SHL SUB DUP1 DUP3 AND DUP3 SUB PUSH2 0x522 JUMPI PUSH2 0x139B SWAP2 PUSH2 0x2300 DUP3 DUP6 SWAP4 PUSH32 0x0 AND SWAP1 PUSH2 0x207A DUP3 ADDRESS EQ ISZERO PUSH2 0x2926 JUMP JUMPDEST PUSH2 0x2308 PUSH2 0x3E17 JUMP JUMPDEST PUSH2 0x2311 DUP3 PUSH2 0x2892 JUMP JUMPDEST SWAP1 PUSH2 0x231F PUSH1 0x40 MLOAD SWAP3 DUP4 PUSH2 0x285A JUMP JUMPDEST DUP3 DUP3 MSTORE PUSH1 0x1F NOT PUSH2 0x232E DUP5 PUSH2 0x2892 JUMP JUMPDEST ADD CALLDATASIZE PUSH1 0x20 DUP5 ADD CALLDATACOPY PUSH2 0x29E8 JUMP JUMPDEST DUP3 CALLVALUE PUSH2 0x4AB JUMPI DUP1 PUSH1 0x3 NOT CALLDATASIZE ADD SLT PUSH2 0x4AB JUMPI PUSH2 0x2353 PUSH2 0x3EA5 JUMP JUMPDEST PUSH2 0x14B DUP1 SLOAD PUSH1 0xFF DUP2 AND DUP1 PUSH2 0x241D JUMPI JUMPDEST DUP1 PUSH2 0x2403 JUMPI JUMPDEST PUSH2 0x2370 JUMPI DUP3 DUP1 RETURN JUMPDEST PUSH2 0xFF00 NOT AND PUSH2 0x100 OR SWAP1 SSTORE PUSH1 0x40 MLOAD PUSH32 0x8B77276C97A5709F0D6DB52329848A254EB760CE8BE80D281799F633BDB69E83 DUP3 DUP1 LOG1 PUSH2 0x133 SLOAD DUP3 SWAP1 PUSH1 0x1 PUSH1 0x1 PUSH1 0xA0 SHL SUB AND DUP1 EXTCODESIZE ISZERO PUSH2 0x93B JUMPI DUP3 PUSH1 0x4 DUP2 DUP5 DUP1 SWAP5 PUSH4 0x8456CB59 PUSH1 0xE0 SHL DUP4 MSTORE GAS CALL DUP1 ISZERO PUSH2 0x23F6 JUMPI PUSH2 0x23E6 JUMPI JUMPDEST POP POP PUSH2 0x23E0 PUSH2 0x3058 JUMP JUMPDEST DUP2 DUP1 DUP3 DUP1 RETURN JUMPDEST PUSH2 0x23EF SWAP2 PUSH2 0x285A JUMP JUMPDEST DUP2 DUP2 PUSH2 0x23D6 JUMP JUMPDEST POP PUSH1 0x40 MLOAD SWAP1 RETURNDATASIZE SWAP1 DUP3 RETURNDATACOPY RETURNDATASIZE SWAP1 REVERT JUMPDEST POP PUSH2 0x2412 PUSH2 0x159D PUSH2 0x1598 PUSH2 0x31E7 JUMP JUMPDEST PUSH2 0x14A SLOAD LT ISZERO PUSH2 0x2368 JUMP JUMPDEST POP PUSH1 0xFF DUP2 PUSH1 0x8 SHR AND ISZERO PUSH2 0x2362 JUMP JUMPDEST DUP3 CALLVALUE PUSH2 0x4AB JUMPI DUP1 PUSH1 0x3 NOT CALLDATASIZE ADD SLT PUSH2 0x4AB JUMPI PUSH1 0x20 PUSH2 0x13F SLOAD PUSH1 0x40 MLOAD SWAP1 DUP2 MSTORE RETURN JUMPDEST DUP3 CALLVALUE PUSH2 0x4AB JUMPI DUP1 PUSH1 0x3 NOT CALLDATASIZE ADD SLT PUSH2 0x4AB JUMPI PUSH1 0x20 PUSH2 0x143 SLOAD PUSH1 0x40 MLOAD SWAP1 DUP2 MSTORE RETURN JUMPDEST DUP3 CALLVALUE PUSH2 0x4AB JUMPI PUSH1 0x20 CALLDATASIZE PUSH1 0x3 NOT ADD SLT PUSH2 0x4AB JUMPI PUSH1 0x4 CALLDATALOAD PUSH1 0x1 PUSH1 0x1 PUSH1 0xA0 SHL SUB DUP2 AND DUP2 SUB PUSH2 0x93B JUMPI PUSH2 0x2496 PUSH2 0x3E17 JUMP JUMPDEST PUSH1 0xCA DUP1 SLOAD PUSH3 0x10000 PUSH1 0x1 PUSH1 0xB0 SHL SUB NOT AND PUSH1 0x10 SWAP3 SWAP1 SWAP3 SHL PUSH3 0x10000 PUSH1 0x1 PUSH1 0xB0 SHL SUB AND SWAP2 SWAP1 SWAP2 OR SWAP1 SSTORE DUP1 RETURN JUMPDEST DUP3 CALLVALUE PUSH2 0x4AB JUMPI PUSH1 0x20 CALLDATASIZE PUSH1 0x3 NOT ADD SLT PUSH2 0x4AB JUMPI PUSH2 0x24DA PUSH2 0x3E17 JUMP JUMPDEST PUSH1 0x4 CALLDATALOAD PUSH2 0x14A SSTORE DUP1 RETURN JUMPDEST DUP3 CALLVALUE PUSH2 0x4AB JUMPI DUP1 PUSH1 0x3 NOT CALLDATASIZE ADD SLT PUSH2 0x4AB JUMPI PUSH1 0x20 PUSH2 0x140 SLOAD PUSH1 0x40 MLOAD SWAP1 DUP2 MSTORE RETURN JUMPDEST DUP3 CALLVALUE PUSH2 0x4AB JUMPI PUSH1 0x20 CALLDATASIZE PUSH1 0x3 NOT ADD SLT PUSH2 0x4AB JUMPI PUSH1 0x4 CALLDATALOAD PUSH1 0x1 PUSH1 0x1 PUSH1 0xA0 SHL SUB DUP2 AND SWAP1 DUP2 SWAP1 SUB PUSH2 0x93B JUMPI PUSH2 0x2532 PUSH2 0x3E17 JUMP JUMPDEST PUSH2 0x147 DUP1 SLOAD PUSH1 0x1 PUSH1 0x1 PUSH1 0xA0 SHL SUB NOT AND SWAP1 SWAP2 OR SWAP1 SSTORE DUP1 RETURN JUMPDEST DUP3 CALLVALUE PUSH2 0x4AB JUMPI PUSH1 0x20 CALLDATASIZE PUSH1 0x3 NOT ADD SLT PUSH2 0x4AB JUMPI PUSH1 0x4 CALLDATALOAD PUSH1 0x1 PUSH1 0x1 PUSH1 0xA0 SHL SUB DUP2 AND SWAP1 DUP2 SWAP1 SUB PUSH2 0x93B JUMPI DUP2 PUSH1 0x40 SWAP2 PUSH1 0x20 SWAP4 MSTORE PUSH2 0x144 DUP4 MSTORE KECCAK256 SLOAD PUSH1 0x40 MLOAD SWAP1 DUP2 MSTORE RETURN JUMPDEST DUP3 CALLVALUE PUSH2 0x4AB JUMPI DUP1 PUSH1 0x3 NOT CALLDATASIZE ADD SLT PUSH2 0x4AB JUMPI PUSH1 0x20 PUSH1 0xFF PUSH2 0x14B SLOAD PUSH1 0x8 SHR AND PUSH1 0x40 MLOAD SWAP1 ISZERO ISZERO DUP2 MSTORE RETURN JUMPDEST DUP3 CALLVALUE PUSH2 0x4AB JUMPI PUSH1 0x20 CALLDATASIZE PUSH1 0x3 NOT ADD SLT PUSH2 0x4AB JUMPI PUSH2 0x25C8 PUSH2 0x3E17 JUMP JUMPDEST PUSH1 0x4 CALLDATALOAD PUSH2 0x142 SSTORE DUP1 RETURN JUMPDEST DUP3 CALLVALUE PUSH2 0x4AB JUMPI PUSH1 0x20 CALLDATASIZE PUSH1 0x3 NOT ADD SLT PUSH2 0x4AB JUMPI PUSH1 0x4 CALLDATALOAD DUP1 ISZERO ISZERO DUP1 SWAP2 SUB PUSH2 0x93B JUMPI PUSH2 0x25F9 PUSH2 0x3E17 JUMP JUMPDEST PUSH2 0x14B SWAP1 PUSH1 0xFF DUP1 NOT DUP4 SLOAD AND SWAP2 AND OR SWAP1 SSTORE DUP1 RETURN JUMPDEST DUP3 CALLVALUE PUSH2 0x4AB JUMPI DUP1 PUSH1 0x3 NOT CALLDATASIZE ADD SLT PUSH2 0x4AB JUMPI PUSH1 0x20 PUSH2 0x14D SLOAD PUSH1 0x40 MLOAD SWAP1 DUP2 MSTORE RETURN JUMPDEST DUP3 CALLVALUE PUSH2 0x4AB JUMPI DUP1 PUSH1 0x3 NOT CALLDATASIZE ADD SLT PUSH2 0x4AB JUMPI PUSH2 0x14F SLOAD PUSH1 0x40 MLOAD PUSH1 0x1 PUSH1 0x1 PUSH1 0xA0 SHL SUB SWAP1 SWAP2 AND DUP2 MSTORE PUSH1 0x20 SWAP1 RETURN JUMPDEST DUP3 CALLVALUE PUSH2 0x4AB JUMPI PUSH1 0x20 CALLDATASIZE PUSH1 0x3 NOT ADD SLT PUSH2 0x4AB JUMPI PUSH1 0x4 CALLDATALOAD PUSH1 0x1 PUSH1 0x1 PUSH1 0xA0 SHL SUB DUP2 AND SWAP1 DUP2 SWAP1 SUB PUSH2 0x93B JUMPI PUSH2 0x2684 PUSH2 0x3E17 JUMP JUMPDEST PUSH2 0x130 DUP1 SLOAD PUSH1 0x1 PUSH1 0x1 PUSH1 0xA0 SHL SUB NOT AND SWAP1 SWAP2 OR SWAP1 SSTORE DUP1 RETURN JUMPDEST DUP3 CALLVALUE PUSH2 0x4AB JUMPI PUSH1 0x20 CALLDATASIZE PUSH1 0x3 NOT ADD SLT PUSH2 0x4AB JUMPI PUSH2 0x26B5 PUSH2 0x3E17 JUMP JUMPDEST PUSH1 0x4 CALLDATALOAD PUSH2 0x13F SSTORE DUP1 RETURN JUMPDEST DUP3 CALLVALUE PUSH2 0x4AB JUMPI DUP1 PUSH1 0x3 NOT CALLDATASIZE ADD SLT PUSH2 0x4AB JUMPI PUSH1 0x20 PUSH2 0x159 SLOAD PUSH1 0x40 MLOAD SWAP1 DUP2 MSTORE RETURN JUMPDEST DUP3 CALLVALUE PUSH2 0x4AB JUMPI PUSH1 0x20 CALLDATASIZE PUSH1 0x3 NOT ADD SLT PUSH2 0x4AB JUMPI PUSH1 0x4 CALLDATALOAD PUSH1 0x1 PUSH1 0x1 PUSH1 0xA0 SHL SUB DUP2 AND SWAP1 DUP2 SWAP1 SUB PUSH2 0x93B JUMPI PUSH2 0x270D PUSH2 0x3E17 JUMP JUMPDEST PUSH2 0x146 DUP1 SLOAD PUSH1 0x1 PUSH1 0x1 PUSH1 0xA0 SHL SUB NOT AND SWAP1 SWAP2 OR SWAP1 SSTORE DUP1 RETURN JUMPDEST DUP3 CALLVALUE PUSH2 0x4AB JUMPI DUP1 PUSH1 0x3 NOT CALLDATASIZE ADD SLT PUSH2 0x4AB JUMPI PUSH1 0x20 PUSH2 0x18F SLOAD PUSH1 0x40 MLOAD SWAP1 DUP2 MSTORE RETURN JUMPDEST DUP3 CALLVALUE PUSH2 0x4AB JUMPI DUP1 PUSH1 0x3 NOT CALLDATASIZE ADD SLT PUSH2 0x4AB JUMPI PUSH1 0x97 SLOAD PUSH1 0x40 MLOAD PUSH1 0x1 PUSH1 0x1 PUSH1 0xA0 SHL SUB SWAP1 SWAP2 AND DUP2 MSTORE PUSH1 0x20 SWAP1 RETURN JUMPDEST DUP3 CALLVALUE PUSH2 0x4AB JUMPI PUSH1 0x20 CALLDATASIZE PUSH1 0x3 NOT ADD SLT PUSH2 0x4AB JUMPI PUSH2 0x2786 PUSH2 0x3E17 JUMP JUMPDEST PUSH1 0x4 CALLDATALOAD PUSH2 0x15A SSTORE DUP1 RETURN JUMPDEST DUP3 CALLVALUE PUSH2 0x4AB JUMPI PUSH1 0x20 CALLDATASIZE PUSH1 0x3 NOT ADD SLT PUSH2 0x4AB JUMPI PUSH1 0x4 CALLDATALOAD SWAP1 PUSH2 0x135 SWAP1 DUP2 SLOAD DUP4 LT ISZERO PUSH2 0x4AB JUMPI PUSH1 0x20 PUSH2 0x27BF DUP5 DUP5 PUSH2 0x27FC JUMP JUMPDEST SWAP1 SLOAD PUSH1 0x40 MLOAD PUSH1 0x3 SWAP3 SWAP1 SWAP3 SHL SHR PUSH1 0x1 PUSH1 0x1 PUSH1 0xA0 SHL SUB AND DUP2 MSTORE RETURN JUMPDEST DUP3 CALLVALUE PUSH2 0x4AB JUMPI PUSH1 0x20 CALLDATASIZE PUSH1 0x3 NOT ADD SLT PUSH2 0x4AB JUMPI PUSH2 0x27F2 PUSH2 0x3E17 JUMP JUMPDEST PUSH1 0x4 CALLDATALOAD PUSH2 0x13A SSTORE DUP1 RETURN JUMPDEST DUP1 SLOAD DUP3 LT ISZERO PUSH2 0x2814 JUMPI PUSH1 0x0 MSTORE PUSH1 0x20 PUSH1 0x0 KECCAK256 ADD SWAP1 PUSH1 0x0 SWAP1 JUMP JUMPDEST PUSH4 0x4E487B71 PUSH1 0xE0 SHL PUSH1 0x0 MSTORE PUSH1 0x32 PUSH1 0x4 MSTORE PUSH1 0x24 PUSH1 0x0 REVERT JUMPDEST CALLDATALOAD SWAP1 PUSH1 0x1 PUSH1 0x1 PUSH1 0xA0 SHL SUB DUP3 AND DUP3 SUB PUSH2 0x522 JUMPI JUMP JUMPDEST DUP1 SLOAD DUP3 LT ISZERO PUSH2 0x2814 JUMPI PUSH1 0x0 MSTORE PUSH1 0x20 PUSH1 0x0 KECCAK256 SWAP1 PUSH1 0x1 SHL ADD SWAP1 PUSH1 0x0 SWAP1 JUMP JUMPDEST SWAP1 PUSH1 0x1F DUP1 NOT SWAP2 ADD AND DUP2 ADD SWAP1 DUP2 LT PUSH8 0xFFFFFFFFFFFFFFFF DUP3 GT OR PUSH2 0x287C JUMPI PUSH1 0x40 MSTORE JUMP JUMPDEST PUSH4 0x4E487B71 PUSH1 0xE0 SHL PUSH1 0x0 MSTORE PUSH1 0x41 PUSH1 0x4 MSTORE PUSH1 0x24 PUSH1 0x0 REVERT JUMPDEST PUSH8 0xFFFFFFFFFFFFFFFF DUP2 GT PUSH2 0x287C JUMPI PUSH1 0x1F ADD PUSH1 0x1F NOT AND PUSH1 0x20 ADD SWAP1 JUMP JUMPDEST SWAP2 SWAP1 DUP3 PUSH1 0xE0 SWAP2 SUB SLT PUSH2 0x522 JUMPI PUSH1 0x40 MLOAD PUSH2 0x28C8 PUSH1 0xE0 DUP3 PUSH2 0x285A JUMP JUMPDEST PUSH1 0xC0 PUSH2 0x2921 DUP2 DUP4 SWAP6 PUSH2 0x28D9 DUP2 PUSH2 0x282A JUMP JUMPDEST DUP6 MSTORE PUSH1 0x20 DUP2 ADD CALLDATALOAD PUSH1 0x20 DUP7 ADD MSTORE PUSH1 0x40 DUP2 ADD CALLDATALOAD PUSH1 0x40 DUP7 ADD MSTORE PUSH1 0x60 DUP2 ADD CALLDATALOAD PUSH1 0x60 DUP7 ADD MSTORE PUSH2 0x2905 PUSH1 0x80 DUP3 ADD PUSH2 0x282A JUMP JUMPDEST PUSH1 0x80 DUP7 ADD MSTORE PUSH2 0x2916 PUSH1 0xA0 DUP3 ADD PUSH2 0x282A JUMP JUMPDEST PUSH1 0xA0 DUP7 ADD MSTORE ADD PUSH2 0x282A JUMP JUMPDEST SWAP2 ADD MSTORE JUMP JUMPDEST ISZERO PUSH2 0x292D JUMPI JUMP JUMPDEST PUSH1 0x40 MLOAD PUSH3 0x461BCD PUSH1 0xE5 SHL DUP2 MSTORE PUSH1 0x20 PUSH1 0x4 DUP3 ADD MSTORE PUSH1 0x2C PUSH1 0x24 DUP3 ADD MSTORE PUSH32 0x46756E6374696F6E206D7573742062652063616C6C6564207468726F75676820 PUSH1 0x44 DUP3 ADD MSTORE PUSH12 0x19195B1959D85D1958D85B1B PUSH1 0xA2 SHL PUSH1 0x64 DUP3 ADD MSTORE PUSH1 0x84 SWAP1 REVERT JUMPDEST ISZERO PUSH2 0x298E JUMPI JUMP JUMPDEST PUSH1 0x40 MLOAD PUSH3 0x461BCD PUSH1 0xE5 SHL DUP2 MSTORE PUSH1 0x20 PUSH1 0x4 DUP3 ADD MSTORE PUSH1 0x2C PUSH1 0x24 DUP3 ADD MSTORE PUSH32 0x46756E6374696F6E206D7573742062652063616C6C6564207468726F75676820 PUSH1 0x44 DUP3 ADD MSTORE PUSH12 0x6163746976652070726F7879 PUSH1 0xA0 SHL PUSH1 0x64 DUP3 ADD MSTORE PUSH1 0x84 SWAP1 REVERT JUMPDEST SWAP1 SWAP2 PUSH1 0xFF PUSH32 0x4910FDFA16FED3260ED0E7147F7CC6DA11A60208B5B9406D12A635614FFD9143 SLOAD AND PUSH1 0x0 EQ PUSH2 0x2A23 JUMPI POP PUSH2 0x2A21 SWAP2 POP PUSH2 0x2C51 JUMP JUMPDEST JUMP JUMPDEST PUSH1 0x40 DUP1 MLOAD PUSH4 0x52D1902D PUSH1 0xE0 SHL DUP2 MSTORE PUSH1 0x20 SWAP5 SWAP2 SWAP4 SWAP3 SWAP1 PUSH1 0x1 PUSH1 0x1 PUSH1 0xA0 SHL SUB DUP5 AND SWAP1 DUP7 DUP2 PUSH1 0x4 DUP2 DUP6 GAS STATICCALL PUSH1 0x0 SWAP2 DUP2 PUSH2 0x2C22 JUMPI JUMPDEST POP PUSH2 0x2AB4 JUMPI DUP6 MLOAD PUSH3 0x461BCD PUSH1 0xE5 SHL DUP2 MSTORE PUSH1 0x4 DUP2 ADD DUP9 SWAP1 MSTORE PUSH1 0x2E PUSH1 0x24 DUP3 ADD MSTORE PUSH32 0x45524331393637557067726164653A206E657720696D706C656D656E74617469 PUSH1 0x44 DUP3 ADD MSTORE PUSH14 0x6F6E206973206E6F742055555053 PUSH1 0x90 SHL PUSH1 0x64 DUP3 ADD MSTORE PUSH1 0x84 SWAP1 REVERT JUMPDEST SWAP4 SWAP6 SWAP3 SWAP5 SWAP3 SWAP4 PUSH32 0xC9F76B5EC45E5CDEF99837D7B6D2467235C1DF8933C8CA56DF5C35AFA2C7D444 ADD PUSH2 0x2BCC JUMPI PUSH2 0x2AE9 DUP7 PUSH2 0x2C51 JUMP JUMPDEST PUSH32 0xBC7CD75A20EE27FD9ADEBAB32041F755214DBC6BFFA90CC0225B39DA2E5C2D3B PUSH1 0x0 DUP1 LOG2 DUP4 MLOAD ISZERO SWAP1 DUP2 ISZERO SWAP2 PUSH2 0x2BC4 JUMPI JUMPDEST POP PUSH2 0x2B26 JUMPI JUMPDEST POP POP POP POP JUMP JUMPDEST PUSH2 0x2BB0 SWAP4 PUSH1 0x0 DUP1 PUSH2 0x2B37 PUSH1 0x27 PUSH2 0x2892 JUMP JUMPDEST SWAP6 PUSH2 0x2B44 DUP6 MLOAD SWAP8 DUP9 PUSH2 0x285A JUMP JUMPDEST PUSH1 0x27 DUP8 MSTORE PUSH32 0x416464726573733A206C6F772D6C6576656C2064656C65676174652063616C6C DUP7 DUP9 ADD MSTORE PUSH7 0x819985A5B1959 PUSH1 0xCA SHL DUP6 DUP9 ADD MSTORE DUP6 DUP2 MLOAD SWAP2 ADD DUP5 GAS DELEGATECALL SWAP2 RETURNDATASIZE ISZERO PUSH2 0x2BBA JUMPI RETURNDATASIZE PUSH2 0x2BA1 PUSH2 0x2B98 DUP3 PUSH2 0x2892 JUMP JUMPDEST SWAP3 MLOAD SWAP3 DUP4 PUSH2 0x285A JUMP JUMPDEST DUP2 MSTORE PUSH1 0x0 DUP2 SWAP5 RETURNDATASIZE SWAP3 ADD RETURNDATACOPY PUSH2 0x2CF3 JUMP JUMPDEST POP CODESIZE DUP1 DUP1 DUP1 PUSH2 0x2B20 JUMP JUMPDEST POP PUSH1 0x60 SWAP3 POP PUSH2 0x2CF3 JUMP JUMPDEST SWAP1 POP CODESIZE PUSH2 0x2B1A JUMP JUMPDEST DUP3 MLOAD PUSH3 0x461BCD PUSH1 0xE5 SHL DUP2 MSTORE PUSH1 0x4 DUP2 ADD DUP6 SWAP1 MSTORE PUSH1 0x29 PUSH1 0x24 DUP3 ADD MSTORE PUSH32 0x45524331393637557067726164653A20756E737570706F727465642070726F78 PUSH1 0x44 DUP3 ADD MSTORE PUSH9 0x1A58589B1955555251 PUSH1 0xBA SHL PUSH1 0x64 DUP3 ADD MSTORE PUSH1 0x84 SWAP1 REVERT JUMPDEST SWAP1 SWAP2 DUP9 DUP3 DUP2 RETURNDATASIZE DUP4 GT PUSH2 0x2C4A JUMPI JUMPDEST PUSH2 0x2C39 DUP2 DUP4 PUSH2 0x285A JUMP JUMPDEST DUP2 ADD SUB SLT PUSH2 0x4AB JUMPI POP MLOAD SWAP1 CODESIZE PUSH2 0x2A54 JUMP JUMPDEST POP RETURNDATASIZE PUSH2 0x2C2F JUMP JUMPDEST DUP1 EXTCODESIZE ISZERO PUSH2 0x2C98 JUMPI PUSH32 0x360894A13BA1A3210667C828492DB98DCA3E2076CC3735A920A3CA505D382BBC DUP1 SLOAD PUSH1 0x1 PUSH1 0x1 PUSH1 0xA0 SHL SUB NOT AND PUSH1 0x1 PUSH1 0x1 PUSH1 0xA0 SHL SUB SWAP1 SWAP3 AND SWAP2 SWAP1 SWAP2 OR SWAP1 SSTORE JUMP JUMPDEST PUSH1 0x40 MLOAD PUSH3 0x461BCD PUSH1 0xE5 SHL DUP2 MSTORE PUSH1 0x20 PUSH1 0x4 DUP3 ADD MSTORE PUSH1 0x2D PUSH1 0x24 DUP3 ADD MSTORE PUSH32 0x455243313936373A206E657720696D706C656D656E746174696F6E206973206E PUSH1 0x44 DUP3 ADD MSTORE PUSH13 0x1BDD08184818DBDB9D1C9858DD PUSH1 0x9A SHL PUSH1 0x64 DUP3 ADD MSTORE PUSH1 0x84 SWAP1 REVERT JUMPDEST SWAP2 SWAP3 SWAP1 ISZERO PUSH2 0x2D55 JUMPI POP DUP2 MLOAD ISZERO PUSH2 0x2D07 JUMPI POP SWAP1 JUMP JUMPDEST EXTCODESIZE ISZERO PUSH2 0x2D10 JUMPI SWAP1 JUMP JUMPDEST PUSH1 0x40 MLOAD PUSH3 0x461BCD PUSH1 0xE5 SHL DUP2 MSTORE PUSH1 0x20 PUSH1 0x4 DUP3 ADD MSTORE PUSH1 0x1D PUSH1 0x24 DUP3 ADD MSTORE PUSH32 0x416464726573733A2063616C6C20746F206E6F6E2D636F6E7472616374000000 PUSH1 0x44 DUP3 ADD MSTORE PUSH1 0x64 SWAP1 REVERT JUMPDEST DUP3 MLOAD SWAP1 SWAP2 POP ISZERO PUSH2 0x2D68 JUMPI POP DUP1 MLOAD SWAP1 PUSH1 0x20 ADD REVERT JUMPDEST PUSH1 0x40 MLOAD SWAP1 PUSH3 0x461BCD PUSH1 0xE5 SHL DUP3 MSTORE DUP2 PUSH1 0x20 DUP1 PUSH1 0x4 DUP4 ADD MSTORE DUP3 MLOAD SWAP1 DUP2 PUSH1 0x24 DUP5 ADD MSTORE PUSH1 0x0 SWAP4 JUMPDEST DUP3 DUP6 LT PUSH2 0x2DAE JUMPI POP POP PUSH1 0x44 SWAP3 POP PUSH1 0x0 DUP4 DUP3 DUP5 ADD ADD MSTORE PUSH1 0x1F DUP1 NOT SWAP2 ADD AND DUP2 ADD SUB ADD SWAP1 REVERT JUMPDEST DUP5 DUP2 ADD DUP3 ADD MLOAD DUP7 DUP7 ADD PUSH1 0x44 ADD MSTORE SWAP4 DUP2 ADD SWAP4 DUP6 SWAP4 POP PUSH2 0x2D8B JUMP JUMPDEST DUP1 MLOAD DUP3 LT ISZERO PUSH2 0x2814 JUMPI PUSH1 0x20 SWAP2 PUSH1 0x5 SHL ADD ADD SWAP1 JUMP JUMPDEST SWAP2 SWAP1 DUP3 ADD DUP1 SWAP3 GT PUSH2 0xC17 JUMPI JUMP JUMPDEST SWAP1 PUSH1 0x0 SWAP2 PUSH1 0x0 SWAP1 PUSH2 0x137 DUP1 SLOAD SWAP1 PUSH1 0x0 SWAP3 JUMPDEST DUP3 DUP5 LT PUSH2 0x2E1F JUMPI POP POP POP POP PUSH2 0x2E1B PUSH8 0xDE0B6B3A7640000 SWAP2 PUSH2 0x139 SLOAD SWAP1 PUSH2 0x2EFF JUMP JUMPDEST DIV SWAP1 JUMP JUMPDEST SWAP1 SWAP2 SWAP3 SWAP4 SWAP6 PUSH2 0x2E6C PUSH2 0x2E5B PUSH2 0x2E66 PUSH1 0x1 SWAP4 PUSH2 0x2E60 PUSH2 0x2E3D DUP11 DUP9 PUSH2 0x2DC7 JUMP JUMPDEST MLOAD PUSH2 0x2E48 DUP2 DUP13 PUSH2 0x2E92 JUMP JUMPDEST SWAP6 SWAP1 PUSH2 0x2E54 DUP14 DUP13 PUSH2 0x283E JUMP JUMPDEST POP SLOAD PUSH2 0x2DDB JUMP JUMPDEST PUSH2 0x3EC6 JUMP JUMPDEST SWAP1 PUSH2 0x2DDB JUMP JUMPDEST SWAP9 PUSH2 0x2DDB JUMP JUMPDEST SWAP5 ADD SWAP3 SWAP2 SWAP1 PUSH2 0x2DF9 JUMP JUMPDEST SWAP2 SWAP1 SWAP2 PUSH1 0x0 DUP4 DUP3 ADD SWAP4 DUP5 SLT SWAP2 SLT SWAP1 DUP1 ISZERO DUP3 AND SWAP2 ISZERO AND OR PUSH2 0xC17 JUMPI JUMP JUMPDEST SWAP2 SWAP1 PUSH1 0x0 SWAP1 PUSH2 0x2EC0 DUP2 PUSH1 0x0 SWAP6 PUSH2 0x2EB6 PUSH2 0x2EAD DUP3 PUSH2 0x150 PUSH2 0x27FC JUMP JUMPDEST SWAP4 SWAP1 SLOAD SWAP3 PUSH2 0x2F4B JUMP JUMPDEST SWAP2 PUSH1 0x3 SHL SHR PUSH2 0x2E76 JUMP JUMPDEST PUSH1 0x0 DUP2 SGT PUSH2 0x2ECF JUMPI JUMPDEST POP POP SWAP2 SWAP1 JUMP JUMPDEST PUSH2 0x2EF7 SWAP2 SWAP5 POP PUSH2 0x2EF1 SWAP3 POP DUP1 SWAP5 PUSH8 0xDE0B6B3A7640000 SWAP4 DUP5 SWAP2 PUSH2 0x13A SLOAD PUSH2 0x2EFF JUMP JUMPDEST DIV PUSH2 0x2EFF JUMP JUMPDEST DIV CODESIZE DUP1 PUSH2 0x2EC9 JUMP JUMPDEST DUP2 DUP2 MUL SWAP3 SWAP2 DUP2 ISZERO SWAP2 DUP5 DIV EQ OR ISZERO PUSH2 0xC17 JUMPI JUMP JUMPDEST DUP2 ISZERO PUSH2 0x2F1C JUMPI DIV SWAP1 JUMP JUMPDEST PUSH4 0x4E487B71 PUSH1 0xE0 SHL PUSH1 0x0 MSTORE PUSH1 0x12 PUSH1 0x4 MSTORE PUSH1 0x24 PUSH1 0x0 REVERT JUMPDEST DUP2 DUP2 SUB SWAP3 SWAP2 PUSH1 0x0 SGT DUP1 ISZERO DUP3 DUP6 SGT AND SWAP2 DUP5 SLT AND OR PUSH2 0xC17 JUMPI JUMP JUMPDEST PUSH2 0x2F57 DUP2 PUSH2 0x137 PUSH2 0x283E JUMP JUMPDEST POP SLOAD SWAP1 PUSH8 0xDE0B6B3A7640000 SWAP2 DUP3 DUP2 MUL SWAP3 DUP2 DUP5 DIV EQ SWAP1 ISZERO OR ISZERO PUSH2 0xC17 JUMPI PUSH2 0x2FA3 SWAP3 PUSH2 0x2F97 PUSH2 0x2F8A PUSH2 0x2F9D SWAP4 PUSH2 0x151 PUSH2 0x27FC JUMP JUMPDEST SWAP1 SLOAD SWAP1 PUSH1 0x3 SHL SHR DUP5 PUSH2 0x2F12 JUMP JUMPDEST SWAP3 PUSH2 0x2F12 JUMP JUMPDEST SWAP1 PUSH2 0x2F32 JUMP JUMPDEST SWAP1 JUMP JUMPDEST DUP1 ISZERO PUSH2 0x2FBC JUMPI PUSH2 0x2E5B PUSH2 0x2FA3 SWAP3 PUSH2 0x131 SLOAD PUSH2 0x2FC4 JUMP JUMPDEST POP POP PUSH1 0x0 NOT SWAP1 JUMP JUMPDEST SWAP2 SWAP1 DUP3 SUB SWAP2 DUP3 GT PUSH2 0xC17 JUMPI JUMP JUMPDEST PUSH8 0xFFFFFFFFFFFFFFFF DUP2 GT PUSH2 0x287C JUMPI PUSH1 0x5 SHL PUSH1 0x20 ADD SWAP1 JUMP JUMPDEST SWAP1 PUSH2 0x2FF3 DUP3 PUSH2 0x2FD1 JUMP JUMPDEST PUSH2 0x3000 PUSH1 0x40 MLOAD SWAP2 DUP3 PUSH2 0x285A JUMP JUMPDEST DUP3 DUP2 MSTORE DUP1 SWAP3 PUSH2 0x3011 PUSH1 0x1F NOT SWAP2 PUSH2 0x2FD1 JUMP JUMPDEST ADD SWAP1 PUSH1 0x20 CALLDATASIZE SWAP2 ADD CALLDATACOPY JUMP JUMPDEST DUP1 SLOAD SWAP1 PUSH1 0x1 PUSH1 0x40 SHL DUP3 LT ISZERO PUSH2 0x287C JUMPI DUP2 PUSH2 0x303D SWAP2 PUSH1 0x1 PUSH2 0x3054 SWAP5 ADD DUP2 SSTORE PUSH2 0x27FC JUMP JUMPDEST DUP2 SWAP4 SWAP2 SLOAD SWAP1 PUSH1 0x3 SHL SWAP2 DUP3 SHL SWAP2 PUSH1 0x0 NOT SWAP1 SHL NOT AND OR SWAP1 JUMP JUMPDEST SWAP1 SSTORE JUMP JUMPDEST PUSH2 0x131 SLOAD DUP1 ISZERO PUSH2 0x3103 JUMPI PUSH2 0x137 SWAP1 DUP2 SLOAD SWAP2 PUSH1 0x0 SWAP1 PUSH2 0x3075 DUP5 PUSH2 0x2FE9 JUMP JUMPDEST SWAP1 DUP3 SWAP1 JUMPDEST DUP6 DUP3 LT PUSH2 0x30BF JUMPI POP POP PUSH1 0x0 JUMPDEST DUP5 DUP2 LT PUSH2 0x3093 JUMPI POP POP POP POP POP JUMP JUMPDEST DUP1 PUSH2 0x30B9 PUSH2 0x30B1 DUP7 PUSH2 0xB39 DUP8 PUSH2 0x30AB PUSH1 0x1 SWAP8 DUP10 PUSH2 0x2DC7 JUMP JUMPDEST MLOAD PUSH2 0x2EFF JUMP JUMPDEST PUSH2 0x138 PUSH2 0x301B JUMP JUMPDEST ADD PUSH2 0x3085 JUMP JUMPDEST SWAP1 SWAP3 PUSH2 0x30FB PUSH1 0x1 SWAP2 PUSH2 0x30D0 DUP7 PUSH2 0x312F JUMP JUMPDEST PUSH2 0x30DA DUP8 DUP8 PUSH2 0x2DC7 JUMP JUMPDEST MSTORE PUSH2 0x2E60 PUSH2 0x30E8 DUP8 DUP7 PUSH2 0x283E JUMP JUMPDEST POP SLOAD PUSH2 0x30F4 DUP9 DUP9 PUSH2 0x2DC7 JUMP JUMPDEST MLOAD SWAP1 PUSH2 0x3EC6 JUMP JUMPDEST SWAP4 ADD SWAP1 PUSH2 0x3079 JUMP JUMPDEST POP JUMP JUMPDEST PUSH1 0x1 PUSH1 0x1 PUSH1 0xA0 SHL SUB AND PUSH1 0x0 SWAP1 DUP2 MSTORE PUSH2 0x136 PUSH1 0x20 MSTORE PUSH1 0x40 SWAP1 KECCAK256 PUSH1 0x1 DUP2 ADD SLOAD PUSH1 0xFF AND ISZERO PUSH2 0x8ED JUMPI SLOAD SWAP1 JUMP JUMPDEST PUSH2 0x313B SWAP1 PUSH2 0x137 PUSH2 0x283E JUMP JUMPDEST POP PUSH1 0x1 ADD SLOAD PUSH1 0x1 PUSH1 0x1 PUSH1 0xA0 SHL SUB AND PUSH2 0x3152 DUP2 PUSH2 0x3185 JUMP JUMPDEST SWAP2 SWAP1 SWAP2 ISZERO PUSH2 0x50A JUMPI POP SWAP1 JUMP JUMPDEST MLOAD SWAP1 DUP2 ISZERO ISZERO DUP3 SUB PUSH2 0x522 JUMPI JUMP JUMPDEST SWAP2 SWAP1 DUP3 PUSH1 0x40 SWAP2 SUB SLT PUSH2 0x522 JUMPI PUSH2 0x2FA3 PUSH1 0x20 DUP4 MLOAD SWAP4 ADD PUSH2 0x315E JUMP JUMPDEST PUSH1 0x40 DUP1 MLOAD PUSH4 0x59E02DD7 PUSH1 0xE0 SHL DUP2 MSTORE SWAP3 SWAP2 DUP4 SWAP1 PUSH1 0x4 SWAP1 DUP3 SWAP1 PUSH1 0x1 PUSH1 0x1 PUSH1 0xA0 SHL SUB AND GAS STATICCALL SWAP2 DUP3 ISZERO PUSH2 0x31DB JUMPI PUSH1 0x0 SWAP1 DUP2 SWAP4 PUSH2 0x31BC JUMPI POP SWAP2 SWAP1 JUMP JUMPDEST SWAP1 POP PUSH2 0x31D7 SWAP2 SWAP3 POP PUSH1 0x40 RETURNDATASIZE DUP2 GT PUSH2 0x929 JUMPI PUSH2 0x919 DUP2 DUP4 PUSH2 0x285A JUMP JUMPDEST SWAP1 SWAP2 JUMP JUMPDEST PUSH1 0x40 MLOAD RETURNDATASIZE PUSH1 0x0 DUP3 RETURNDATACOPY RETURNDATASIZE SWAP1 REVERT JUMPDEST PUSH2 0x137 SLOAD SWAP1 PUSH2 0x31F5 DUP3 PUSH2 0x2FE9 JUMP JUMPDEST SWAP2 PUSH1 0x0 JUMPDEST DUP2 DUP2 LT PUSH2 0x3204 JUMPI POP POP JUMP JUMPDEST DUP1 PUSH2 0x3210 PUSH1 0x1 SWAP3 PUSH2 0x312F JUMP JUMPDEST PUSH2 0x321A DUP3 DUP8 PUSH2 0x2DC7 JUMP JUMPDEST MSTORE ADD PUSH2 0x31F9 JUMP JUMPDEST SWAP1 PUSH2 0x3242 PUSH8 0xDE0B6B3A7640000 SWAP3 DUP4 PUSH2 0x157 SLOAD PUSH2 0x154 SLOAD SWAP3 NUMBER ADD SUB MUL PUSH2 0x2F12 JUMP JUMPDEST DUP3 DUP2 LT ISZERO PUSH2 0x325F JUMPI DUP3 SUB SWAP2 DUP1 DUP4 PUSH2 0x155 SLOAD MUL DIV SWAP3 PUSH2 0x156 SLOAD MUL SDIV SWAP1 JUMP JUMPDEST POP PUSH1 0x0 SWAP2 POP DUP2 SWAP1 JUMP JUMPDEST SWAP1 SWAP2 PUSH2 0x3272 PUSH2 0x32CA JUMP JUMPDEST SWAP3 SWAP1 DUP1 DUP3 LT ISZERO PUSH2 0x32C0 JUMPI DUP4 SWAP2 PUSH2 0x3287 SWAP2 PUSH2 0x2FC4 JUMP JUMPDEST SWAP4 GT ISZERO PUSH2 0x32BB JUMPI DUP2 DUP2 LT ISZERO PUSH2 0x32B3 JUMPI PUSH2 0x329F SWAP2 PUSH2 0x2FC4 JUMP JUMPDEST PUSH1 0x1 SHR DUP1 DUP3 LT ISZERO PUSH2 0x32AE JUMPI POP SWAP1 JUMP JUMPDEST SWAP1 POP SWAP1 JUMP JUMPDEST POP POP POP PUSH1 0x0 SWAP1 JUMP JUMPDEST POP POP SWAP1 JUMP JUMPDEST POP POP POP POP POP PUSH1 0x0 SWAP1 JUMP JUMPDEST PUSH2 0x152 SLOAD PUSH1 0x40 DUP1 MLOAD PUSH4 0x59E02DD7 PUSH1 0xE0 SHL DUP1 DUP3 MSTORE SWAP4 SWAP3 SWAP1 SWAP2 SWAP1 PUSH1 0x1 PUSH1 0x1 PUSH1 0xA0 SHL SUB SWAP1 DUP2 AND DUP3 DUP5 PUSH1 0x4 DUP2 DUP5 GAS STATICCALL DUP1 ISZERO PUSH2 0x33BA JUMPI PUSH1 0x0 SWAP5 DUP6 SWAP2 PUSH2 0x3397 JUMPI JUMPDEST POP ISZERO PUSH2 0x3380 JUMPI POP PUSH2 0x153 SLOAD AND SWAP1 DUP1 MLOAD SWAP5 DUP6 MSTORE DUP1 DUP6 PUSH1 0x4 DUP2 DUP6 GAS STATICCALL DUP1 ISZERO PUSH2 0x3375 JUMPI PUSH1 0x0 SWAP6 DUP7 SWAP2 PUSH2 0x3352 JUMPI JUMPDEST POP ISZERO PUSH2 0x333B JUMPI POP POP SWAP2 SWAP1 JUMP JUMPDEST PUSH1 0x24 SWAP3 POP MLOAD SWAP1 PUSH4 0x5E89893 PUSH1 0xE1 SHL DUP3 MSTORE PUSH1 0x4 DUP3 ADD MSTORE REVERT JUMPDEST SWAP1 POP DUP2 PUSH2 0x336C SWAP3 SWAP7 POP RETURNDATASIZE DUP8 GT PUSH2 0x929 JUMPI PUSH2 0x919 DUP2 DUP4 PUSH2 0x285A JUMP JUMPDEST SWAP5 SWAP1 SWAP5 CODESIZE PUSH2 0x332F JUMP JUMPDEST POP MLOAD RETURNDATASIZE PUSH1 0x0 DUP3 RETURNDATACOPY RETURNDATASIZE SWAP1 REVERT JUMPDEST PUSH1 0x24 SWAP1 DUP4 MLOAD SWAP1 PUSH4 0x5E89893 PUSH1 0xE1 SHL DUP3 MSTORE PUSH1 0x4 DUP3 ADD MSTORE REVERT JUMPDEST SWAP1 POP PUSH2 0x33B1 SWAP2 SWAP5 POP DUP4 RETURNDATASIZE DUP6 GT PUSH2 0x929 JUMPI PUSH2 0x919 DUP2 DUP4 PUSH2 0x285A JUMP JUMPDEST SWAP4 SWAP1 SWAP4 CODESIZE PUSH2 0x3305 JUMP JUMPDEST DUP4 MLOAD RETURNDATASIZE PUSH1 0x0 DUP3 RETURNDATACOPY RETURNDATASIZE SWAP1 REVERT JUMPDEST SWAP1 DUP2 MSTORE PUSH2 0x100 DUP2 ADD SWAP3 SWAP2 PUSH1 0xE0 SWAP1 PUSH1 0xC0 SWAP1 PUSH1 0x1 PUSH1 0x1 PUSH1 0xA0 SHL SUB DUP1 PUSH2 0x33E7 DUP4 PUSH2 0x282A JUMP JUMPDEST AND PUSH1 0x20 DUP7 ADD MSTORE PUSH2 0x33F9 PUSH1 0x20 DUP4 ADD PUSH2 0x282A JUMP JUMPDEST AND PUSH1 0x40 DUP6 ADD MSTORE PUSH1 0x40 DUP2 ADD CALLDATALOAD PUSH1 0x60 DUP6 ADD MSTORE PUSH1 0x60 DUP2 ADD CALLDATALOAD PUSH1 0x80 DUP6 ADD MSTORE PUSH1 0x80 DUP2 ADD CALLDATALOAD PUSH1 0xA0 DUP6 ADD MSTORE PUSH1 0xA0 DUP2 ADD CALLDATALOAD DUP3 DUP6 ADD MSTORE ADD CALLDATALOAD SWAP2 ADD MSTORE JUMP JUMPDEST PUSH1 0x40 MLOAD SWAP1 PUSH2 0x343C PUSH1 0x80 DUP4 PUSH2 0x285A JUMP JUMPDEST PUSH1 0x0 PUSH1 0x60 DUP4 DUP3 DUP2 MSTORE DUP3 PUSH1 0x20 DUP3 ADD MSTORE DUP3 PUSH1 0x40 DUP3 ADD MSTORE ADD MSTORE JUMP JUMPDEST PUSH2 0x34CC SWAP4 PUSH2 0x3493 PUSH1 0x0 SWAP3 PUSH1 0x20 SWAP6 PUSH2 0x346D DUP3 PUSH2 0x137 PUSH2 0x283E JUMP JUMPDEST POP PUSH2 0x3479 DUP8 DUP3 SLOAD PUSH2 0x2DDB JUMP JUMPDEST SWAP1 SSTORE PUSH2 0x3489 PUSH2 0x131 SWAP2 DUP3 SLOAD PUSH2 0x2DDB JUMP JUMPDEST SWAP1 SSTORE PUSH2 0x135 PUSH2 0x27FC JUMP JUMPDEST SWAP1 SLOAD PUSH1 0x40 MLOAD PUSH4 0x40C10F19 PUSH1 0xE0 SHL DUP2 MSTORE PUSH1 0x1 PUSH1 0x1 PUSH1 0xA0 SHL SUB SWAP1 SWAP4 AND PUSH1 0x4 DUP5 ADD MSTORE PUSH1 0x24 DUP4 ADD SWAP5 SWAP1 SWAP5 MSTORE SWAP1 SWAP5 DUP6 SWAP4 SWAP3 DUP5 SWAP3 SWAP1 SWAP2 DUP4 SWAP1 PUSH1 0x44 DUP3 ADD SWAP1 JUMP JUMPDEST SUB SWAP4 PUSH1 0x3 SWAP2 SWAP1 SWAP2 SHL SHR PUSH1 0x1 PUSH1 0x1 PUSH1 0xA0 SHL SUB AND GAS CALL DUP1 ISZERO PUSH2 0x31DB JUMPI PUSH2 0x34ED JUMPI POP JUMP JUMPDEST PUSH1 0x20 DUP2 RETURNDATASIZE DUP3 GT PUSH2 0x3516 JUMPI JUMPDEST DUP2 PUSH2 0x3505 PUSH1 0x20 SWAP4 DUP4 PUSH2 0x285A JUMP JUMPDEST DUP2 ADD SUB SLT PUSH2 0x522 JUMPI PUSH2 0x3103 SWAP1 PUSH2 0x315E JUMP JUMPDEST RETURNDATASIZE SWAP2 POP PUSH2 0x34F8 JUMP JUMPDEST PUSH2 0x3584 SWAP3 PUSH1 0x20 SWAP3 PUSH2 0x134 PUSH2 0x3533 DUP5 DUP3 SLOAD PUSH2 0x2DDB JUMP JUMPDEST SWAP1 SSTORE PUSH2 0x3543 PUSH2 0x131 SWAP2 DUP3 SLOAD PUSH2 0x2DDB JUMP JUMPDEST SWAP1 SSTORE PUSH2 0x133 SLOAD PUSH1 0x40 MLOAD PUSH4 0x40C10F19 PUSH1 0xE0 SHL DUP2 MSTORE PUSH1 0x1 PUSH1 0x1 PUSH1 0xA0 SHL SUB SWAP3 DUP4 AND PUSH1 0x4 DUP3 ADD MSTORE PUSH1 0x24 DUP2 ADD SWAP4 SWAP1 SWAP4 MSTORE SWAP2 SWAP4 DUP5 SWAP3 SWAP1 SWAP2 AND SWAP1 DUP3 SWAP1 PUSH1 0x0 SWAP1 DUP3 SWAP1 PUSH1 0x44 DUP3 ADD SWAP1 JUMP JUMPDEST SUB SWAP3 GAS CALL DUP1 ISZERO PUSH2 0x31DB JUMPI PUSH2 0x34ED JUMPI POP JUMP JUMPDEST SWAP2 SWAP1 PUSH2 0x35A0 SWAP1 PUSH2 0x2DE8 JUMP JUMPDEST SWAP2 SWAP1 SWAP3 PUSH2 0x35AD DUP4 DUP6 PUSH2 0x2FA6 JUMP JUMPDEST SWAP1 DUP1 DUP3 GT ISZERO PUSH2 0x35BA JUMPI POP POP JUMP JUMPDEST PUSH1 0x44 SWAP3 POP PUSH1 0x40 MLOAD SWAP2 PUSH4 0x79121201 PUSH1 0xE0 SHL DUP4 MSTORE PUSH1 0x4 DUP4 ADD MSTORE PUSH1 0x24 DUP3 ADD MSTORE REVERT JUMPDEST PUSH2 0x303D PUSH2 0x3054 SWAP2 PUSH2 0x35E9 DUP5 DUP3 PUSH2 0x2F4B JUMP JUMPDEST PUSH2 0x361F PUSH2 0x35F8 DUP4 PUSH2 0x150 PUSH2 0x27FC JUMP JUMPDEST PUSH2 0x360B DUP3 SWAP5 SWAP3 SLOAD SWAP3 DUP4 DUP4 PUSH1 0x3 SHL SHR PUSH2 0x2E76 JUMP JUMPDEST SWAP2 SWAP1 PUSH1 0x3 SHL SWAP2 DUP3 SHL SWAP2 PUSH1 0x0 NOT SWAP1 SHL NOT AND OR SWAP1 JUMP JUMPDEST SWAP1 SSTORE PUSH2 0x151 PUSH2 0x27FC JUMP JUMPDEST SWAP1 PUSH2 0x134 SLOAD SWAP1 DUP2 ISZERO PUSH2 0x3649 JUMPI PUSH2 0x2FA3 SWAP3 PUSH2 0x5E0 PUSH2 0x2E5B SWAP3 PUSH2 0x131 SLOAD PUSH2 0x2FC4 JUMP JUMPDEST POP POP POP PUSH8 0xDE0B6B3A7640000 SWAP1 JUMP JUMPDEST SWAP3 SWAP1 SWAP4 SWAP2 PUSH1 0x0 SWAP2 PUSH1 0x0 SWAP2 DUP3 SWAP7 PUSH2 0x366C PUSH2 0x342D JUMP JUMPDEST SWAP7 PUSH1 0x1 PUSH1 0x1 PUSH1 0xA0 SHL SUB SWAP2 DUP6 SWAP1 DUP4 AND DUP1 PUSH2 0x3878 JUMPI JUMPDEST POP DUP3 PUSH2 0x12F SLOAD AND DUP4 PUSH1 0x40 MLOAD SWAP4 PUSH4 0x6EB1769F PUSH1 0xE1 SHL DUP6 MSTORE AND DUP1 PUSH1 0x4 DUP6 ADD MSTORE ADDRESS PUSH1 0x24 DUP6 ADD MSTORE PUSH1 0x20 SWAP5 DUP6 DUP6 PUSH1 0x44 DUP2 DUP7 GAS STATICCALL SWAP5 DUP6 ISZERO PUSH2 0x386D JUMPI DUP5 SWAP6 PUSH2 0x383E JUMPI JUMPDEST POP DUP5 PUSH2 0x371D JUMPI JUMPDEST POP POP POP POP POP DUP7 ADD MLOAD ISZERO PUSH2 0x36D9 JUMPI JUMPDEST POP POP POP SWAP3 SWAP2 SWAP1 JUMP JUMPDEST SWAP1 SWAP2 SWAP3 POP PUSH2 0x36F1 PUSH8 0xDE0B6B3A7640000 SWAP3 DUP4 SWAP3 PUSH2 0x2EFF JUMP JUMPDEST DIV DUP1 DUP6 MSTORE SWAP1 DUP3 ISZERO PUSH2 0x3715 JUMPI PUSH2 0x370D SWAP3 DIV SWAP1 DUP2 PUSH1 0x40 DUP7 ADD MSTORE PUSH2 0x2DDB JUMP JUMPDEST CODESIZE DUP1 DUP1 PUSH2 0x36D1 JUMP JUMPDEST POP SWAP1 POP PUSH2 0x370D JUMP JUMPDEST PUSH2 0x372B SWAP1 PUSH2 0x130 SLOAD AND PUSH2 0x3185 JUMP JUMPDEST SWAP3 SWAP1 SWAP3 ISZERO PUSH2 0x36C3 JUMPI SWAP1 SWAP2 SWAP3 SWAP4 SWAP12 POP DUP5 DUP12 PUSH2 0x3765 DUP6 PUSH8 0xDE0B6B3A7640000 PUSH2 0x375F PUSH2 0x3755 DUP14 DUP14 PUSH2 0x2EFF JUMP JUMPDEST PUSH2 0x143 SLOAD SWAP1 PUSH2 0x2EFF JUMP JUMPDEST DIV PUSH2 0x2F12 JUMP JUMPDEST DUP2 DUP4 ADD DUP2 DUP2 MSTORE SWAP6 SWAP1 DUP12 ISZERO PUSH2 0x3834 JUMPI POP PUSH2 0x3790 SWAP2 PUSH2 0x3784 PUSH1 0x60 SWAP3 DUP14 PUSH2 0x2F12 JUMP JUMPDEST SWAP2 DUP3 SWAP2 ADD MSTORE DUP6 MLOAD PUSH2 0x2DDB JUMP JUMPDEST DUP1 SWAP14 JUMPDEST LT SWAP3 DUP4 ISZERO PUSH2 0x37BF JUMPI JUMPDEST POP POP POP PUSH2 0x37AC JUMPI JUMPDEST DUP1 DUP1 DUP1 PUSH2 0x36C3 JUMP JUMPDEST DUP2 SWAP3 SWAP10 POP MSTORE DUP1 PUSH1 0x60 DUP9 ADD MSTORE SWAP7 CODESIZE DUP1 PUSH2 0x37A4 JUMP JUMPDEST SWAP1 SWAP2 SWAP3 POP PUSH1 0x24 PUSH1 0x40 MLOAD DUP1 SWAP5 DUP2 SWAP4 PUSH4 0x70A08231 PUSH1 0xE0 SHL DUP4 MSTORE PUSH1 0x4 DUP4 ADD MSTORE GAS STATICCALL SWAP1 DUP2 ISZERO PUSH2 0x3829 JUMPI SWAP1 DUP12 SWAP2 DUP5 SWAP2 PUSH2 0x37F8 JUMPI JUMPDEST POP LT CODESIZE DUP5 DUP2 PUSH2 0x379C JUMP JUMPDEST DUP1 SWAP3 POP DUP6 DUP1 SWAP3 POP RETURNDATASIZE DUP4 GT PUSH2 0x3822 JUMPI JUMPDEST PUSH2 0x3811 DUP2 DUP4 PUSH2 0x285A JUMP JUMPDEST DUP2 ADD SUB SLT PUSH2 0xE99 JUMPI DUP11 SWAP1 MLOAD CODESIZE PUSH2 0x37EE JUMP JUMPDEST POP RETURNDATASIZE PUSH2 0x3807 JUMP JUMPDEST PUSH1 0x40 MLOAD RETURNDATASIZE DUP6 DUP3 RETURNDATACOPY RETURNDATASIZE SWAP1 REVERT JUMPDEST SWAP2 POP POP DUP1 SWAP14 PUSH2 0x3793 JUMP JUMPDEST SWAP1 SWAP5 POP DUP6 DUP2 DUP2 RETURNDATASIZE DUP4 GT PUSH2 0x3866 JUMPI JUMPDEST PUSH2 0x3856 DUP2 DUP4 PUSH2 0x285A JUMP JUMPDEST DUP2 ADD SUB SLT PUSH2 0x1D04 JUMPI MLOAD SWAP4 CODESIZE PUSH2 0x36BC JUMP JUMPDEST POP RETURNDATASIZE PUSH2 0x384C JUMP JUMPDEST PUSH1 0x40 MLOAD RETURNDATASIZE DUP7 DUP3 RETURNDATACOPY RETURNDATASIZE SWAP1 REVERT JUMPDEST SWAP1 SWAP6 POP PUSH1 0x20 DUP4 PUSH2 0x1C3 SLOAD AND SWAP2 PUSH1 0x24 PUSH1 0x40 MLOAD DUP1 SWAP5 DUP2 SWAP4 PUSH4 0x64A731E9 PUSH1 0xE0 SHL DUP4 MSTORE PUSH1 0x4 DUP4 ADD MSTORE GAS STATICCALL DUP1 ISZERO PUSH2 0x930 JUMPI DUP7 SWAP1 PUSH2 0x38BD JUMPI JUMPDEST PUSH2 0x38B6 SWAP2 POP DUP5 PUSH2 0x2EFF JUMP JUMPDEST SWAP5 CODESIZE PUSH2 0x3680 JUMP JUMPDEST POP PUSH1 0x20 DUP2 RETURNDATASIZE DUP3 GT PUSH2 0x38E8 JUMPI JUMPDEST DUP2 PUSH2 0x38D6 PUSH1 0x20 SWAP4 DUP4 PUSH2 0x285A JUMP JUMPDEST DUP2 ADD SUB SLT PUSH2 0x20B0 JUMPI PUSH2 0x38B6 SWAP1 MLOAD PUSH2 0x38AB JUMP JUMPDEST RETURNDATASIZE SWAP2 POP PUSH2 0x38C9 JUMP JUMPDEST DUP1 PUSH2 0x38F9 PUSH2 0x32CA JUMP JUMPDEST SWAP2 SWAP1 SWAP4 PUSH2 0x3906 PUSH1 0x0 PUSH2 0x3221 JUMP JUMPDEST SWAP5 ADD SWAP4 DUP3 SWAP2 PUSH2 0x399E JUMPI JUMPDEST ADD SWAP4 DUP5 PUSH1 0x0 DUP1 DUP3 SLT PUSH2 0x3998 JUMPI POP JUMPDEST DUP5 SUB SWAP2 DUP2 DUP6 GT PUSH2 0x3960 JUMPI POP POP DUP2 DUP2 GT PUSH2 0x3942 JUMPI POP POP PUSH2 0x155 SSTORE PUSH2 0x156 SSTORE NUMBER PUSH2 0x157 SSTORE JUMP JUMPDEST PUSH1 0x44 SWAP3 POP PUSH1 0x40 MLOAD SWAP2 PUSH4 0x6DA41E5 PUSH1 0xE1 SHL DUP4 MSTORE PUSH1 0x4 DUP4 ADD MSTORE PUSH1 0x24 DUP3 ADD MSTORE REVERT JUMPDEST SWAP1 DUP1 DUP6 SWAP3 GT PUSH2 0x3986 JUMPI PUSH1 0x44 SWAP2 PUSH1 0x40 MLOAD SWAP2 PUSH4 0x6DA41E5 PUSH1 0xE1 SHL DUP4 MSTORE PUSH1 0x4 DUP4 ADD MSTORE PUSH1 0x24 DUP3 ADD MSTORE REVERT JUMPDEST PUSH1 0x40 MLOAD PUSH4 0xFB4FD35 PUSH1 0xE1 SHL DUP2 MSTORE PUSH1 0x4 SWAP1 REVERT JUMPDEST SUB PUSH2 0x391E JUMP JUMPDEST SWAP1 POP DUP2 PUSH1 0x0 SUB SWAP1 PUSH2 0x3910 JUMP JUMPDEST PUSH2 0x39D7 SWAP2 SWAP3 PUSH2 0x39BB DUP3 PUSH2 0x137 PUSH2 0x283E JUMP JUMPDEST POP PUSH2 0x39C7 DUP6 DUP3 SLOAD PUSH2 0x2FC4 JUMP JUMPDEST SWAP1 SSTORE PUSH2 0x3489 PUSH2 0x131 SWAP2 DUP3 SLOAD PUSH2 0x2FC4 JUMP JUMPDEST SWAP1 SLOAD PUSH1 0x3 SWAP2 SWAP1 SWAP2 SHL SHR PUSH1 0x1 PUSH1 0x1 PUSH1 0xA0 SHL SUB AND DUP1 EXTCODESIZE ISZERO PUSH2 0x522 JUMPI PUSH1 0x40 MLOAD PUSH4 0x2770A7EB PUSH1 0xE2 SHL DUP2 MSTORE ADDRESS PUSH1 0x4 DUP3 ADD MSTORE PUSH1 0x24 DUP2 ADD SWAP3 SWAP1 SWAP3 MSTORE PUSH1 0x0 SWAP1 DUP3 SWAP1 DUP2 DUP4 DUP2 PUSH1 0x44 DUP2 ADD JUMPDEST SUB SWAP3 GAS CALL DUP1 ISZERO PUSH2 0x31DB JUMPI PUSH2 0x3A29 JUMPI POP JUMP JUMPDEST PUSH1 0x0 PUSH2 0x2A21 SWAP2 PUSH2 0x285A JUMP JUMPDEST SWAP1 PUSH2 0x134 PUSH2 0x3A43 DUP4 DUP3 SLOAD PUSH2 0x2FC4 JUMP JUMPDEST SWAP1 SSTORE PUSH2 0x3A53 PUSH2 0x131 SWAP2 DUP3 SLOAD PUSH2 0x2FC4 JUMP JUMPDEST SWAP1 SSTORE PUSH2 0x133 SLOAD PUSH1 0x1 PUSH1 0x1 PUSH1 0xA0 SHL SUB AND DUP1 EXTCODESIZE ISZERO PUSH2 0x522 JUMPI PUSH1 0x40 MLOAD PUSH4 0x2770A7EB PUSH1 0xE2 SHL DUP2 MSTORE ADDRESS PUSH1 0x4 DUP3 ADD MSTORE PUSH1 0x24 DUP2 ADD SWAP3 SWAP1 SWAP3 MSTORE PUSH1 0x0 SWAP1 DUP3 SWAP1 DUP2 DUP4 DUP2 PUSH1 0x44 DUP2 ADD PUSH2 0x3A18 JUMP JUMPDEST SWAP3 PUSH2 0x3AA7 DUP4 PUSH2 0x3AAD SWAP7 SWAP5 SWAP4 SWAP8 SWAP6 PUSH2 0x3C22 JUMP JUMPDEST SWAP1 PUSH2 0x3AD6 JUMP JUMPDEST DUP2 DUP2 LT PUSH2 0x3AB8 JUMPI POP POP JUMP JUMPDEST PUSH1 0x44 SWAP3 POP PUSH1 0x40 MLOAD SWAP2 PUSH4 0xC39B739F PUSH1 0xE0 SHL DUP4 MSTORE PUSH1 0x4 DUP4 ADD MSTORE PUSH1 0x24 DUP3 ADD MSTORE REVERT JUMPDEST SWAP3 PUSH2 0x3AE3 SWAP3 SWAP5 SWAP2 SWAP4 PUSH2 0x3BA3 JUMP JUMPDEST PUSH1 0x0 SWAP3 DUP2 DUP2 MUL SWAP2 PUSH1 0x1 PUSH1 0xFF SHL SWAP2 DUP6 DUP3 SLT DUP4 DUP3 EQ AND PUSH2 0x3B8F JUMPI DUP2 DUP5 SDIV EQ SWAP1 ISZERO OR ISZERO PUSH2 0x3B7B JUMPI PUSH8 0xDE0B6B3A763FFFF NOT DUP4 ADD SWAP3 DUP4 GT PUSH2 0x3B7B JUMPI PUSH8 0xDE0B6B3A7640000 SWAP3 DUP4 DUP2 MUL SWAP4 DUP2 DUP6 DIV EQ SWAP1 ISZERO OR ISZERO PUSH2 0x3B7B JUMPI DUP3 ISZERO PUSH2 0x3B67 JUMPI DUP2 EQ PUSH1 0x0 NOT DUP4 EQ AND PUSH2 0x3B53 JUMPI SDIV SWAP1 DUP1 DUP3 SLT PUSH2 0x32AE JUMPI POP SWAP1 JUMP JUMPDEST PUSH4 0x4E487B71 PUSH1 0xE0 SHL DUP4 MSTORE PUSH1 0x11 PUSH1 0x4 MSTORE PUSH1 0x24 DUP4 REVERT JUMPDEST PUSH4 0x4E487B71 PUSH1 0xE0 SHL DUP5 MSTORE PUSH1 0x12 PUSH1 0x4 MSTORE PUSH1 0x24 DUP5 REVERT JUMPDEST PUSH4 0x4E487B71 PUSH1 0xE0 SHL DUP5 MSTORE PUSH1 0x11 PUSH1 0x4 MSTORE PUSH1 0x24 DUP5 REVERT JUMPDEST PUSH4 0x4E487B71 PUSH1 0xE0 SHL DUP7 MSTORE PUSH1 0x11 PUSH1 0x4 MSTORE PUSH1 0x24 DUP7 REVERT JUMPDEST SWAP1 SWAP2 PUSH2 0x3BB2 SWAP1 PUSH2 0x131 SLOAD PUSH2 0x2FC4 JUMP JUMPDEST SWAP1 PUSH8 0xDE0B6B3A7640000 SWAP2 DUP3 DUP2 MUL SWAP3 DUP2 DUP5 DIV EQ SWAP1 ISZERO OR ISZERO PUSH2 0xC17 JUMPI PUSH2 0x2FA3 SWAP3 PUSH2 0x2F9D SWAP2 PUSH2 0x2EFF JUMP JUMPDEST DUP3 DUP3 PUSH2 0x3BE5 SWAP3 PUSH2 0x3BA3 JUMP JUMPDEST SWAP1 PUSH1 0x0 DUP3 SGT ISZERO PUSH2 0x32B3 JUMPI PUSH2 0x2FA3 SWAP3 PUSH2 0x3BFC SWAP2 PUSH2 0x3629 JUMP JUMPDEST SWAP1 PUSH2 0x2F12 JUMP JUMPDEST SWAP1 PUSH1 0x40 MLOAD PUSH2 0x3C11 PUSH1 0x40 DUP3 PUSH2 0x285A JUMP JUMPDEST PUSH1 0x20 PUSH1 0x1 DUP3 SWAP5 DUP1 SLOAD DUP5 MSTORE ADD SLOAD SWAP2 ADD MSTORE JUMP JUMPDEST PUSH2 0x3C2E DUP2 PUSH2 0x148 PUSH2 0x27FC JUMP JUMPDEST SWAP1 SLOAD SWAP1 PUSH1 0x3 SHL SHR SWAP2 PUSH2 0x18E SWAP2 PUSH2 0x3C44 DUP2 DUP5 PUSH2 0x283E JUMP JUMPDEST POP SLOAD SWAP3 PUSH2 0x18F SLOAD NUMBER LT ISZERO PUSH2 0x3C6A JUMPI JUMPDEST POP POP DUP1 DUP3 LT ISZERO PUSH2 0x32BB JUMPI PUSH2 0xB39 SWAP1 PUSH2 0x2FA3 SWAP4 PUSH2 0x2EFF JUMP JUMPDEST DUP3 SWAP4 POP PUSH2 0x3C7E PUSH2 0x3C89 SWAP4 SWAP3 PUSH2 0x3C84 SWAP3 PUSH2 0x283E JUMP JUMPDEST POP PUSH2 0x3C02 JUMP JUMPDEST PUSH2 0x3C91 JUMP JUMPDEST SWAP1 CODESIZE DUP1 PUSH2 0x3C53 JUMP JUMPDEST PUSH1 0x20 DUP2 MLOAD SWAP2 ADD DUP1 MLOAD SWAP3 PUSH8 0xDE0B6B3A7640000 SWAP4 DUP5 SUB SWAP1 DUP5 DUP3 GT PUSH2 0xC17 JUMPI PUSH2 0x3CBE PUSH2 0x2E60 SWAP3 PUSH2 0x2E1B SWAP6 PUSH2 0x2EFF JUMP JUMPDEST SWAP3 MLOAD PUSH2 0x2EFF JUMP JUMPDEST PUSH1 0x0 DUP1 PUSH2 0x137 SWAP2 DUP3 SLOAD SWAP3 PUSH2 0x3CD8 DUP5 PUSH2 0x2FE9 JUMP JUMPDEST SWAP4 DUP3 SWAP2 JUMPDEST DUP2 DUP4 LT PUSH2 0x3D05 JUMPI POP POP POP DUP2 ISZERO PUSH2 0x3CF9 JUMPI SWAP1 PUSH2 0x3CF6 SWAP2 PUSH2 0x2F12 JUMP JUMPDEST SWAP2 JUMP JUMPDEST POP POP PUSH2 0x149 SLOAD PUSH1 0x1 SHL SWAP2 JUMP JUMPDEST SWAP1 SWAP2 SWAP4 SWAP3 PUSH2 0x3D12 DUP6 PUSH2 0x312F JUMP JUMPDEST SWAP1 DUP2 PUSH2 0x3D1E DUP8 DUP10 PUSH2 0x2DC7 JUMP JUMPDEST MSTORE PUSH2 0x3D37 PUSH2 0x3D2C DUP4 DUP9 PUSH2 0x2E92 JUMP JUMPDEST POP PUSH2 0x2E54 DUP9 DUP7 PUSH2 0x283E JUMP JUMPDEST PUSH8 0xDE0B6B3A7640000 SWAP1 DUP2 DUP2 MUL SWAP2 DUP2 DUP4 DIV EQ SWAP1 ISZERO OR ISZERO PUSH2 0xC17 JUMPI PUSH2 0x3D74 PUSH2 0x3D7A SWAP3 PUSH2 0x2E60 DUP6 PUSH2 0x3D6B PUSH1 0x1 SWAP8 PUSH2 0x5E5 SWAP7 PUSH2 0x3EC6 JUMP JUMPDEST SWAP5 DUP6 SWAP2 DUP13 PUSH2 0x3C22 JUMP JUMPDEST SWAP6 PUSH2 0x2DDB JUMP JUMPDEST SWAP5 ADD SWAP2 SWAP1 PUSH2 0x3CDC JUMP JUMPDEST PUSH2 0x18F DUP1 SLOAD NUMBER LT ISZERO PUSH2 0x3D92 JUMPI POP JUMP JUMPDEST PUSH2 0x137 SLOAD PUSH1 0x0 JUMPDEST DUP2 DUP2 LT PUSH2 0x3DAC JUMPI POP POP PUSH2 0x190 SLOAD NUMBER ADD SWAP1 SSTORE JUMP JUMPDEST DUP1 DUP1 PUSH32 0x19156E9379C7BBBCE8F646CE5EE30BA860B8F954717405F3D5859A6C1A21AE60 PUSH1 0x1 SWAP4 PUSH2 0x18E PUSH2 0x3DE2 PUSH2 0x3C7E DUP4 DUP4 PUSH2 0x283E JUMP JUMPDEST SWAP1 PUSH2 0x3E00 PUSH2 0x3DF8 PUSH2 0x3DF2 DUP6 PUSH2 0x312F JUMP JUMPDEST DUP5 PUSH2 0x3C91 JUMP JUMPDEST SWAP4 DUP5 SWAP3 PUSH2 0x283E JUMP JUMPDEST POP SSTORE MLOAD PUSH1 0x40 SWAP2 DUP3 MLOAD SWAP2 DUP3 MSTORE PUSH1 0x20 DUP3 ADD MSTORE LOG2 ADD PUSH2 0x3D99 JUMP JUMPDEST PUSH1 0x97 SLOAD PUSH1 0x40 MLOAD PUSH4 0xD994D6D5 PUSH1 0xE0 SHL DUP2 MSTORE CALLER PUSH1 0x4 DUP3 ADD MSTORE SWAP1 PUSH1 0x20 SWAP1 DUP3 SWAP1 PUSH1 0x24 SWAP1 DUP3 SWAP1 PUSH1 0x1 PUSH1 0x1 PUSH1 0xA0 SHL SUB AND GAS STATICCALL SWAP1 DUP2 ISZERO PUSH2 0x31DB JUMPI PUSH1 0x0 SWAP2 PUSH2 0x3E6C JUMPI JUMPDEST POP ISZERO PUSH2 0x3E5A JUMPI JUMP JUMPDEST PUSH1 0x40 MLOAD PUSH4 0x1DD1B1B5 PUSH1 0xE2 SHL DUP2 MSTORE PUSH1 0x4 SWAP1 REVERT JUMPDEST SWAP1 PUSH1 0x20 DUP3 RETURNDATASIZE DUP3 GT PUSH2 0x3E9D JUMPI JUMPDEST DUP2 PUSH2 0x3E85 PUSH1 0x20 SWAP4 DUP4 PUSH2 0x285A JUMP JUMPDEST DUP2 ADD SUB SLT PUSH2 0x4AB JUMPI POP PUSH2 0x3E97 SWAP1 PUSH2 0x315E JUMP JUMPDEST CODESIZE PUSH2 0x3E52 JUMP JUMPDEST RETURNDATASIZE SWAP2 POP PUSH2 0x3E78 JUMP JUMPDEST PUSH1 0xFF PUSH1 0xCA SLOAD PUSH1 0x8 SHR AND PUSH2 0x3EB4 JUMPI JUMP JUMPDEST PUSH1 0x40 MLOAD PUSH4 0x783BB6C9 PUSH1 0xE1 SHL DUP2 MSTORE PUSH1 0x4 SWAP1 REVERT JUMPDEST SWAP1 PUSH8 0xDE0B6B3A7640000 SWAP2 DUP3 DUP2 MUL SWAP3 DUP2 DUP5 DIV EQ SWAP1 ISZERO OR ISZERO PUSH2 0xC17 JUMPI PUSH2 0x2FA3 SWAP2 PUSH2 0x2F12 JUMP INVALID LOG2 PUSH5 0x6970667358 0x22 SLT KECCAK256 0xDC 0xC3 STOP SLOAD JUMP 0x4B ADD 0xC6 0xD1 PUSH10 0xEB8BD2456F55EBB4D8C8 0x21 0xD9 0xD1 LOG1 CREATE2 PUSH21 0x158535D7DC1C64736F6C6343000814003300000000 "
    },
    "gasEstimates": {
      "creation": {
        "codeDepositCost": "3232000",
        "executionCost": "infinite",
        "totalCost": "infinite"
      },
      "external": {
        "absoluteAccumulator()": "4088",
        "addPeggedToken((address,address,uint256,uint256,uint256,uint256,uint256))": "infinite",
        "appreciationFactor()": "4463",
        "bes()": "2900",
        "bns()": "2482",
        "calcCtargemaCA()": "infinite",
        "changeGovernor(address)": "infinite",
        "decayBlockSpan()": "3274",
        "differentialAccumulator()": "3384",
        "editPeggedToken((address,address,uint256,uint256,uint256,uint256,uint256))": "infinite",
        "emaCalculationBlockSpan()": "3494",
        "evalLiquidation()": "infinite",
        "feeRetainer()": "2944",
        "feeToken()": "3166",
        "feeTokenPct()": "2680",
        "feeTokenPriceProvider()": "4354",
        "getPACtp(address)": "infinite",
        "governor()": "2352",
        "isLiquidationReached()": "infinite",
        "lastOperationBlockNumber()": "3054",
        "liqEnabled()": "4298",
        "liqRedeemTPTo(address,address,address,uint256)": "infinite",
        "liqThrld()": "3714",
        "liquidated()": "2566",
        "makeStoppable()": "infinite",
        "makeUnstoppable()": "infinite",
        "maxAbsoluteOpProvider()": "4332",
        "maxOpDiffProvider()": "3914",
        "maxQACToMintTP()": "infinite",
        "maxQACToRedeemTP()": "infinite",
        "mintTCandTPFee()": "3428",
        "mintTCandTPto((address,uint256,uint256,address,address,address))": "infinite",
        "mocAppreciationBeneficiaryAddress()": "2946",
        "mocFeeFlowAddress()": "3782",
        "mocQueue()": "2484",
        "mocVendors()": "3628",
        "nACcb()": "4396",
        "nTCcb()": "3450",
        "nextEmaCalculation()": "2350",
        "nextTCInterestPayment()": "3912",
        "pause()": "29027",
        "paused()": "3094",
        "pauser()": "3857",
        "pegContainer(uint256)": "9389",
        "peggedTokenIndex(address)": "6056",
        "protThrld()": "3252",
        "proxiableUUID()": "infinite",
        "qACLockedInPending()": "3098",
        "redeemTCandTPFee()": "4418",
        "redeemTCandTPto((address,uint256,uint256,uint256,address,address,address))": "infinite",
        "setAppreciationFactor(uint256)": "infinite",
        "setBes(uint256)": "infinite",
        "setDecayBlockSpan(uint256)": "infinite",
        "setEmaCalculationBlockSpan(uint256)": "infinite",
        "setFeeRetainer(uint256)": "infinite",
        "setFeeTokenAddress(address)": "infinite",
        "setFeeTokenPct(uint256)": "infinite",
        "setFeeTokenPriceProviderAddress(address)": "infinite",
        "setLiqEnabled(bool)": "infinite",
        "setLiqThrld(uint256)": "infinite",
        "setMaxAbsoluteOpProviderAddress(address)": "infinite",
        "setMaxOpDiffProviderAddress(address)": "infinite",
        "setMintTCandTPFee(uint256)": "infinite",
        "setMocAppreciationBeneficiaryAddress(address)": "infinite",
        "setMocFeeFlowAddress(address)": "infinite",
        "setMocQueue(address)": "infinite",
        "setPauser(address)": "infinite",
        "setProtThrld(uint256)": "infinite",
        "setRedeemTCandTPFee(uint256)": "infinite",
        "setSuccessFee(uint256)": "infinite",
        "setSwapTCforTPFee(uint256)": "infinite",
        "setSwapTPforTCFee(uint256)": "infinite",
        "setSwapTPforTPFee(uint256)": "infinite",
        "setTCInterestCollectorAddress(address)": "infinite",
        "setTCInterestPaymentBlockSpan(uint256)": "infinite",
        "setTCInterestRate(uint256)": "infinite",
        "setTcMintFee(uint256)": "infinite",
        "setTcRedeemFee(uint256)": "infinite",
        "shouldCalculateEma()": "3854",
        "stoppable()": "3946",
        "successFee()": "3362",
        "swapTCforTPFee()": "2614",
        "swapTCforTPto((address,uint256,uint256,uint256,address,address,address))": "infinite",
        "swapTPforTCFee()": "2702",
        "swapTPforTCto((address,uint256,uint256,uint256,address,address,address))": "infinite",
        "swapTPforTPFee()": "2856",
        "swapTPforTPto((address,address,uint256,uint256,uint256,address,address,address))": "infinite",
        "tcInterestCollectorAddress()": "3760",
        "tcInterestPaymentBlockSpan()": "3648",
        "tcInterestRate()": "2394",
        "tcMintFee()": "4502",
        "tcRedeemFee()": "3868",
        "tcToken()": "3144",
        "tpCtarg(uint256)": "7946",
        "tpEma(uint256)": "10754",
        "tpLiqPrices(uint256)": "7132",
        "tpMintFees(address)": "2685",
        "tpRedeemFees(address)": "4291",
        "tpTokens(uint256)": "6672",
        "unpause()": "26036",
        "updateEmas()": "infinite",
        "upgradeTo(address)": "infinite",
        "upgradeToAndCall(address,bytes)": "infinite"
      },
      "internal": {
        "_calcQACforMintTCandTP(uint256,uint256,uint256,uint256)": "infinite",
        "_calcQACforRedeemTCandTP(uint256,uint256,uint256,uint256)": "infinite"
      }
    },
    "methodIdentifiers": {
      "absoluteAccumulator()": "d87aab6f",
      "addPeggedToken((address,address,uint256,uint256,uint256,uint256,uint256))": "db796072",
      "appreciationFactor()": "fa6e83bd",
      "bes()": "4d977e78",
      "bns()": "1867e2f5",
      "calcCtargemaCA()": "662013f4",
      "changeGovernor(address)": "e4c0aaf4",
      "decayBlockSpan()": "6f30471f",
      "differentialAccumulator()": "76228055",
      "editPeggedToken((address,address,uint256,uint256,uint256,uint256,uint256))": "f26114aa",
      "emaCalculationBlockSpan()": "7a727fe8",
      "evalLiquidation()": "33421c38",
      "feeRetainer()": "4f0f27ee",
      "feeToken()": "647846a5",
      "feeTokenPct()": "2ded50f0",
      "feeTokenPriceProvider()": "f13f4054",
      "getPACtp(address)": "fadda424",
      "governor()": "0c340a24",
      "isLiquidationReached()": "9ad6659d",
      "lastOperationBlockNumber()": "5860ee63",
      "liqEnabled()": "e7c25978",
      "liqRedeemTPTo(address,address,address,uint256)": "6845c445",
      "liqThrld()": "8cfa4241",
      "liquidated()": "23b98cde",
      "makeStoppable()": "68274357",
      "makeUnstoppable()": "5210570c",
      "maxAbsoluteOpProvider()": "ee1f438f",
      "maxOpDiffProvider()": "b5e9ea8c",
      "maxQACToMintTP()": "d6af11da",
      "maxQACToRedeemTP()": "7f13b998",
      "mintTCandTPFee()": "79f9a91c",
      "mintTCandTPto((address,uint256,uint256,address,address,address))": "e44bb512",
      "mocAppreciationBeneficiaryAddress()": "4e1f907a",
      "mocFeeFlowAddress()": "9853c35a",
      "mocQueue()": "13ed7ba5",
      "mocVendors()": "7f01c715",
      "nACcb()": "f30b5614",
      "nTCcb()": "7a193c31",
      "nextEmaCalculation()": "0c36d897",
      "nextTCInterestPayment()": "b9fa6413",
      "pause()": "8456cb59",
      "paused()": "5c975abb",
      "pauser()": "9fd0506d",
      "pegContainer(uint256)": "4b746001",
      "peggedTokenIndex(address)": "9cabfc00",
      "protThrld()": "6b5488df",
      "proxiableUUID()": "52d1902d",
      "qACLockedInPending()": "5cfbe578",
      "redeemTCandTPFee()": "f375cfba",
      "redeemTCandTPto((address,uint256,uint256,uint256,address,address,address))": "7b5a17ae",
      "setAppreciationFactor(uint256)": "01dde6ef",
      "setBes(uint256)": "c84353c9",
      "setDecayBlockSpan(uint256)": "73e28af9",
      "setEmaCalculationBlockSpan(uint256)": "3bc4ac0a",
      "setFeeRetainer(uint256)": "7750ba0c",
      "setFeeTokenAddress(address)": "cf351c1d",
      "setFeeTokenPct(uint256)": "543aeb48",
      "setFeeTokenPriceProviderAddress(address)": "0f1e5e2b",
      "setLiqEnabled(bool)": "1fe6a7ad",
      "setLiqThrld(uint256)": "2c43bd3b",
      "setMaxAbsoluteOpProviderAddress(address)": "d8db6f5a",
      "setMaxOpDiffProviderAddress(address)": "85bf9593",
      "setMintTCandTPFee(uint256)": "2069f753",
      "setMocAppreciationBeneficiaryAddress(address)": "27eab2a1",
      "setMocFeeFlowAddress(address)": "0d6ac463",
      "setMocQueue(address)": "3cfb09ef",
      "setPauser(address)": "2d88af4a",
      "setProtThrld(uint256)": "7cba2383",
      "setRedeemTCandTPFee(uint256)": "7a4ff1d9",
      "setSuccessFee(uint256)": "becaca6b",
      "setSwapTCforTPFee(uint256)": "7af5758c",
      "setSwapTPforTCFee(uint256)": "0e0a8fd2",
      "setSwapTPforTPFee(uint256)": "70713468",
      "setTCInterestCollectorAddress(address)": "735d3960",
      "setTCInterestPaymentBlockSpan(uint256)": "073763b9",
      "setTCInterestRate(uint256)": "64ec230a",
      "setTcMintFee(uint256)": "f2808778",
      "setTcRedeemFee(uint256)": "c00f538d",
      "shouldCalculateEma()": "a8e9ac30",
      "stoppable()": "bb4872de",
      "successFee()": "7554fffd",
      "swapTCforTPFee()": "2a20d57d",
      "swapTCforTPto((address,uint256,uint256,uint256,address,address,address))": "d9b6c2e5",
      "swapTPforTCFee()": "333431fd",
      "swapTPforTCto((address,uint256,uint256,uint256,address,address,address))": "f5571e01",
      "swapTPforTPFee()": "407f0e34",
      "swapTPforTPto((address,address,uint256,uint256,uint256,address,address,address))": "e1e121da",
      "tcInterestCollectorAddress()": "8e2bdb86",
      "tcInterestPaymentBlockSpan()": "7f4a4fe0",
      "tcInterestRate()": "0db49656",
      "tcMintFee()": "fda70f8b",
      "tcRedeemFee()": "aea038dc",
      "tcToken()": "60009e0b",
      "tpCtarg(uint256)": "7d8e0314",
      "tpEma(uint256)": "e6b1627c",
      "tpLiqPrices(uint256)": "3915edcb",
      "tpMintFees(address)": "24ffaba3",
      "tpRedeemFees(address)": "ddb6d190",
      "tpTokens(uint256)": "01f1b684",
      "unpause()": "3f4ba83a",
      "updateEmas()": "d1a0faa0",
      "upgradeTo(address)": "3659cfe6",
      "upgradeToAndCall(address,bytes)": "4f1ef286"
    }
  },
  "storageLayout": {
    "storage": [
      {
        "astId": 950,
        "contract": "contracts/core/MocCoreExpansion.sol:MocCoreExpansion",
        "label": "_initialized",
        "offset": 0,
        "slot": "0",
        "type": "t_uint8"
      },
      {
        "astId": 953,
        "contract": "contracts/core/MocCoreExpansion.sol:MocCoreExpansion",
        "label": "_initializing",
        "offset": 1,
        "slot": "0",
        "type": "t_bool"
      },
      {
        "astId": 932,
        "contract": "contracts/core/MocCoreExpansion.sol:MocCoreExpansion",
        "label": "__gap",
        "offset": 0,
        "slot": "1",
        "type": "t_array(t_uint256)50_storage"
      },
      {
        "astId": 1247,
        "contract": "contracts/core/MocCoreExpansion.sol:MocCoreExpansion",
        "label": "__gap",
        "offset": 0,
        "slot": "51",
        "type": "t_array(t_uint256)50_storage"
      },
      {
        "astId": 28019,
        "contract": "contracts/core/MocCoreExpansion.sol:MocCoreExpansion",
        "label": "__gap",
        "offset": 0,
        "slot": "101",
        "type": "t_array(t_uint256)50_storage"
      },
      {
        "astId": 20601,
        "contract": "contracts/core/MocCoreExpansion.sol:MocCoreExpansion",
        "label": "governor",
        "offset": 0,
        "slot": "151",
        "type": "t_contract(IGovernor)21376"
      },
      {
        "astId": 20672,
        "contract": "contracts/core/MocCoreExpansion.sol:MocCoreExpansion",
        "label": "__gap",
        "offset": 0,
        "slot": "152",
        "type": "t_array(t_uint256)50_storage"
      },
      {
        "astId": 20741,
        "contract": "contracts/core/MocCoreExpansion.sol:MocCoreExpansion",
        "label": "stoppable",
        "offset": 0,
        "slot": "202",
        "type": "t_bool"
      },
      {
        "astId": 20743,
        "contract": "contracts/core/MocCoreExpansion.sol:MocCoreExpansion",
        "label": "_paused",
        "offset": 1,
        "slot": "202",
        "type": "t_bool"
      },
      {
        "astId": 20745,
        "contract": "contracts/core/MocCoreExpansion.sol:MocCoreExpansion",
        "label": "pauser",
        "offset": 2,
        "slot": "202",
        "type": "t_address"
      },
      {
        "astId": 20904,
        "contract": "contracts/core/MocCoreExpansion.sol:MocCoreExpansion",
        "label": "__gap",
        "offset": 0,
        "slot": "203",
        "type": "t_array(t_uint256)50_storage"
      },
      {
        "astId": 20723,
        "contract": "contracts/core/MocCoreExpansion.sol:MocCoreExpansion",
        "label": "__gap",
        "offset": 0,
        "slot": "253",
        "type": "t_array(t_uint256)50_storage"
      },
      {
        "astId": 10197,
        "contract": "contracts/core/MocCoreExpansion.sol:MocCoreExpansion",
        "label": "feeToken",
        "offset": 0,
        "slot": "303",
        "type": "t_contract(IERC20)6209"
      },
      {
        "astId": 10200,
        "contract": "contracts/core/MocCoreExpansion.sol:MocCoreExpansion",
        "label": "feeTokenPriceProvider",
        "offset": 0,
        "slot": "304",
        "type": "t_contract(IPriceProvider)21414"
      },
      {
        "astId": 10202,
        "contract": "contracts/core/MocCoreExpansion.sol:MocCoreExpansion",
        "label": "nACcb",
        "offset": 0,
        "slot": "305",
        "type": "t_uint256"
      },
      {
        "astId": 10204,
        "contract": "contracts/core/MocCoreExpansion.sol:MocCoreExpansion",
        "label": "nACioucb",
        "offset": 0,
        "slot": "306",
        "type": "t_uint256"
      },
      {
        "astId": 10207,
        "contract": "contracts/core/MocCoreExpansion.sol:MocCoreExpansion",
        "label": "tcToken",
        "offset": 0,
        "slot": "307",
        "type": "t_contract(MocTC)27844"
      },
      {
        "astId": 10209,
        "contract": "contracts/core/MocCoreExpansion.sol:MocCoreExpansion",
        "label": "nTCcb",
        "offset": 0,
        "slot": "308",
        "type": "t_uint256"
      },
      {
        "astId": 10213,
        "contract": "contracts/core/MocCoreExpansion.sol:MocCoreExpansion",
        "label": "tpTokens",
        "offset": 0,
        "slot": "309",
        "type": "t_array(t_contract(IMocRC20)21402)dyn_storage"
      },
      {
        "astId": 10218,
        "contract": "contracts/core/MocCoreExpansion.sol:MocCoreExpansion",
        "label": "peggedTokenIndex",
        "offset": 0,
        "slot": "310",
        "type": "t_mapping(t_address,t_struct(PeggedTokenIndex)10141_storage)"
      },
      {
        "astId": 10222,
        "contract": "contracts/core/MocCoreExpansion.sol:MocCoreExpansion",
        "label": "pegContainer",
        "offset": 0,
        "slot": "311",
        "type": "t_array(t_struct(PegContainerItem)10136_storage)dyn_storage"
      },
      {
        "astId": 10225,
        "contract": "contracts/core/MocCoreExpansion.sol:MocCoreExpansion",
        "label": "tpLiqPrices",
        "offset": 0,
        "slot": "312",
        "type": "t_array(t_uint256)dyn_storage"
      },
      {
        "astId": 10227,
        "contract": "contracts/core/MocCoreExpansion.sol:MocCoreExpansion",
        "label": "successFee",
        "offset": 0,
        "slot": "313",
        "type": "t_uint256"
      },
      {
        "astId": 10229,
        "contract": "contracts/core/MocCoreExpansion.sol:MocCoreExpansion",
        "label": "appreciationFactor",
        "offset": 0,
        "slot": "314",
        "type": "t_uint256"
      },
      {
        "astId": 10231,
        "contract": "contracts/core/MocCoreExpansion.sol:MocCoreExpansion",
        "label": "feeRetainer",
        "offset": 0,
        "slot": "315",
        "type": "t_uint256"
      },
      {
        "astId": 10233,
        "contract": "contracts/core/MocCoreExpansion.sol:MocCoreExpansion",
        "label": "tcMintFee",
        "offset": 0,
        "slot": "316",
        "type": "t_uint256"
      },
      {
        "astId": 10235,
        "contract": "contracts/core/MocCoreExpansion.sol:MocCoreExpansion",
        "label": "tcRedeemFee",
        "offset": 0,
        "slot": "317",
        "type": "t_uint256"
      },
      {
        "astId": 10237,
        "contract": "contracts/core/MocCoreExpansion.sol:MocCoreExpansion",
        "label": "swapTPforTPFee",
        "offset": 0,
        "slot": "318",
        "type": "t_uint256"
      },
      {
        "astId": 10239,
        "contract": "contracts/core/MocCoreExpansion.sol:MocCoreExpansion",
        "label": "swapTPforTCFee",
        "offset": 0,
        "slot": "319",
        "type": "t_uint256"
      },
      {
        "astId": 10241,
        "contract": "contracts/core/MocCoreExpansion.sol:MocCoreExpansion",
        "label": "swapTCforTPFee",
        "offset": 0,
        "slot": "320",
        "type": "t_uint256"
      },
      {
        "astId": 10243,
        "contract": "contracts/core/MocCoreExpansion.sol:MocCoreExpansion",
        "label": "redeemTCandTPFee",
        "offset": 0,
        "slot": "321",
        "type": "t_uint256"
      },
      {
        "astId": 10245,
        "contract": "contracts/core/MocCoreExpansion.sol:MocCoreExpansion",
        "label": "mintTCandTPFee",
        "offset": 0,
        "slot": "322",
        "type": "t_uint256"
      },
      {
        "astId": 10247,
        "contract": "contracts/core/MocCoreExpansion.sol:MocCoreExpansion",
        "label": "feeTokenPct",
        "offset": 0,
        "slot": "323",
        "type": "t_uint256"
      },
      {
        "astId": 10251,
        "contract": "contracts/core/MocCoreExpansion.sol:MocCoreExpansion",
        "label": "tpMintFees",
        "offset": 0,
        "slot": "324",
        "type": "t_mapping(t_address,t_uint256)"
      },
      {
        "astId": 10255,
        "contract": "contracts/core/MocCoreExpansion.sol:MocCoreExpansion",
        "label": "tpRedeemFees",
        "offset": 0,
        "slot": "325",
        "type": "t_mapping(t_address,t_uint256)"
      },
      {
        "astId": 10257,
        "contract": "contracts/core/MocCoreExpansion.sol:MocCoreExpansion",
        "label": "mocFeeFlowAddress",
        "offset": 0,
        "slot": "326",
        "type": "t_address"
      },
      {
        "astId": 10259,
        "contract": "contracts/core/MocCoreExpansion.sol:MocCoreExpansion",
        "label": "mocAppreciationBeneficiaryAddress",
        "offset": 0,
        "slot": "327",
        "type": "t_address"
      },
      {
        "astId": 10262,
        "contract": "contracts/core/MocCoreExpansion.sol:MocCoreExpansion",
        "label": "tpCtarg",
        "offset": 0,
        "slot": "328",
        "type": "t_array(t_uint256)dyn_storage"
      },
      {
        "astId": 10264,
        "contract": "contracts/core/MocCoreExpansion.sol:MocCoreExpansion",
        "label": "protThrld",
        "offset": 0,
        "slot": "329",
        "type": "t_uint256"
      },
      {
        "astId": 10266,
        "contract": "contracts/core/MocCoreExpansion.sol:MocCoreExpansion",
        "label": "liqThrld",
        "offset": 0,
        "slot": "330",
        "type": "t_uint256"
      },
      {
        "astId": 10268,
        "contract": "contracts/core/MocCoreExpansion.sol:MocCoreExpansion",
        "label": "liqEnabled",
        "offset": 0,
        "slot": "331",
        "type": "t_bool"
      },
      {
        "astId": 10270,
        "contract": "contracts/core/MocCoreExpansion.sol:MocCoreExpansion",
        "label": "liquidated",
        "offset": 1,
        "slot": "331",
        "type": "t_bool"
      },
      {
        "astId": 10272,
        "contract": "contracts/core/MocCoreExpansion.sol:MocCoreExpansion",
        "label": "bes",
        "offset": 0,
        "slot": "332",
        "type": "t_uint256"
      },
      {
        "astId": 10274,
        "contract": "contracts/core/MocCoreExpansion.sol:MocCoreExpansion",
        "label": "bns",
        "offset": 0,
        "slot": "333",
        "type": "t_uint256"
      },
      {
        "astId": 10276,
        "contract": "contracts/core/MocCoreExpansion.sol:MocCoreExpansion",
        "label": "qACLockedInPending",
        "offset": 0,
        "slot": "334",
        "type": "t_uint256"
      },
      {
        "astId": 10278,
        "contract": "contracts/core/MocCoreExpansion.sol:MocCoreExpansion",
        "label": "mocQueue",
        "offset": 0,
        "slot": "335",
        "type": "t_address"
      },
      {
        "astId": 10281,
        "contract": "contracts/core/MocCoreExpansion.sol:MocCoreExpansion",
        "label": "tpiou",
        "offset": 0,
        "slot": "336",
        "type": "t_array(t_int256)dyn_storage"
      },
      {
        "astId": 10284,
        "contract": "contracts/core/MocCoreExpansion.sol:MocCoreExpansion",
        "label": "pACtpLstop",
        "offset": 0,
        "slot": "337",
        "type": "t_array(t_uint256)dyn_storage"
      },
      {
        "astId": 10287,
        "contract": "contracts/core/MocCoreExpansion.sol:MocCoreExpansion",
        "label": "maxAbsoluteOpProvider",
        "offset": 0,
        "slot": "338",
        "type": "t_contract(IDataProvider)21355"
      },
      {
        "astId": 10290,
        "contract": "contracts/core/MocCoreExpansion.sol:MocCoreExpansion",
        "label": "maxOpDiffProvider",
        "offset": 0,
        "slot": "339",
        "type": "t_contract(IDataProvider)21355"
      },
      {
        "astId": 10292,
        "contract": "contracts/core/MocCoreExpansion.sol:MocCoreExpansion",
        "label": "decayBlockSpan",
        "offset": 0,
        "slot": "340",
        "type": "t_uint256"
      },
      {
        "astId": 10294,
        "contract": "contracts/core/MocCoreExpansion.sol:MocCoreExpansion",
        "label": "absoluteAccumulator",
        "offset": 0,
        "slot": "341",
        "type": "t_uint256"
      },
      {
        "astId": 10296,
        "contract": "contracts/core/MocCoreExpansion.sol:MocCoreExpansion",
        "label": "differentialAccumulator",
        "offset": 0,
        "slot": "342",
        "type": "t_int256"
      },
      {
        "astId": 10298,
        "contract": "contracts/core/MocCoreExpansion.sol:MocCoreExpansion",
        "label": "lastOperationBlockNumber",
        "offset": 0,
        "slot": "343",
        "type": "t_uint256"
      },
      {
        "astId": 10300,
        "contract": "contracts/core/MocCoreExpansion.sol:MocCoreExpansion",
        "label": "tcInterestCollectorAddress",
        "offset": 0,
        "slot": "344",
        "type": "t_address"
      },
      {
        "astId": 10302,
        "contract": "contracts/core/MocCoreExpansion.sol:MocCoreExpansion",
        "label": "tcInterestRate",
        "offset": 0,
        "slot": "345",
        "type": "t_uint256"
      },
      {
        "astId": 10304,
        "contract": "contracts/core/MocCoreExpansion.sol:MocCoreExpansion",
        "label": "tcInterestPaymentBlockSpan",
        "offset": 0,
        "slot": "346",
        "type": "t_uint256"
      },
      {
        "astId": 10306,
        "contract": "contracts/core/MocCoreExpansion.sol:MocCoreExpansion",
        "label": "nextTCInterestPayment",
        "offset": 0,
        "slot": "347",
        "type": "t_uint256"
      },
      {
        "astId": 11909,
        "contract": "contracts/core/MocCoreExpansion.sol:MocCoreExpansion",
        "label": "__gap",
        "offset": 0,
        "slot": "348",
        "type": "t_array(t_uint256)50_storage"
      },
      {
        "astId": 15698,
        "contract": "contracts/core/MocCoreExpansion.sol:MocCoreExpansion",
        "label": "tpEma",
        "offset": 0,
        "slot": "398",
        "type": "t_array(t_struct(EmaItem)15694_storage)dyn_storage"
      },
      {
        "astId": 15700,
        "contract": "contracts/core/MocCoreExpansion.sol:MocCoreExpansion",
        "label": "nextEmaCalculation",
        "offset": 0,
        "slot": "399",
        "type": "t_uint256"
      },
      {
        "astId": 15702,
        "contract": "contracts/core/MocCoreExpansion.sol:MocCoreExpansion",
        "label": "emaCalculationBlockSpan",
        "offset": 0,
        "slot": "400",
        "type": "t_uint256"
      },
      {
        "astId": 16074,
        "contract": "contracts/core/MocCoreExpansion.sol:MocCoreExpansion",
        "label": "__gap",
        "offset": 0,
        "slot": "401",
        "type": "t_array(t_uint256)50_storage"
      },
      {
        "astId": 11943,
        "contract": "contracts/core/MocCoreExpansion.sol:MocCoreExpansion",
        "label": "mocVendors",
        "offset": 0,
        "slot": "451",
        "type": "t_contract(MocVendors)28149"
      },
      {
        "astId": 12816,
        "contract": "contracts/core/MocCoreExpansion.sol:MocCoreExpansion",
        "label": "__gap",
        "offset": 0,
        "slot": "452",
        "type": "t_array(t_uint256)50_storage"
      }
    ],
    "types": {
      "t_address": {
        "encoding": "inplace",
        "label": "address",
        "numberOfBytes": "20"
      },
      "t_array(t_contract(IMocRC20)21402)dyn_storage": {
        "base": "t_contract(IMocRC20)21402",
        "encoding": "dynamic_array",
        "label": "contract IMocRC20[]",
        "numberOfBytes": "32"
      },
      "t_array(t_int256)dyn_storage": {
        "base": "t_int256",
        "encoding": "dynamic_array",
        "label": "int256[]",
        "numberOfBytes": "32"
      },
      "t_array(t_struct(EmaItem)15694_storage)dyn_storage": {
        "base": "t_struct(EmaItem)15694_storage",
        "encoding": "dynamic_array",
        "label": "struct MocEma.EmaItem[]",
        "numberOfBytes": "32"
      },
      "t_array(t_struct(PegContainerItem)10136_storage)dyn_storage": {
        "base": "t_struct(PegContainerItem)10136_storage",
        "encoding": "dynamic_array",
        "label": "struct MocBaseBucket.PegContainerItem[]",
        "numberOfBytes": "32"
      },
      "t_array(t_uint256)50_storage": {
        "base": "t_uint256",
        "encoding": "inplace",
        "label": "uint256[50]",
        "numberOfBytes": "1600"
      },
      "t_array(t_uint256)dyn_storage": {
        "base": "t_uint256",
        "encoding": "dynamic_array",
        "label": "uint256[]",
        "numberOfBytes": "32"
      },
      "t_bool": {
        "encoding": "inplace",
        "label": "bool",
        "numberOfBytes": "1"
      },
      "t_contract(IDataProvider)21355": {
        "encoding": "inplace",
        "label": "contract IDataProvider",
        "numberOfBytes": "20"
      },
      "t_contract(IERC20)6209": {
        "encoding": "inplace",
        "label": "contract IERC20",
        "numberOfBytes": "20"
      },
      "t_contract(IGovernor)21376": {
        "encoding": "inplace",
        "label": "contract IGovernor",
        "numberOfBytes": "20"
      },
      "t_contract(IMocRC20)21402": {
        "encoding": "inplace",
        "label": "contract IMocRC20",
        "numberOfBytes": "20"
      },
      "t_contract(IPriceProvider)21414": {
        "encoding": "inplace",
        "label": "contract IPriceProvider",
        "numberOfBytes": "20"
      },
      "t_contract(MocTC)27844": {
        "encoding": "inplace",
        "label": "contract MocTC",
        "numberOfBytes": "20"
      },
      "t_contract(MocVendors)28149": {
        "encoding": "inplace",
        "label": "contract MocVendors",
        "numberOfBytes": "20"
      },
      "t_int256": {
        "encoding": "inplace",
        "label": "int256",
        "numberOfBytes": "32"
      },
      "t_mapping(t_address,t_struct(PeggedTokenIndex)10141_storage)": {
        "encoding": "mapping",
        "key": "t_address",
        "label": "mapping(address => struct MocBaseBucket.PeggedTokenIndex)",
        "numberOfBytes": "32",
        "value": "t_struct(PeggedTokenIndex)10141_storage"
      },
      "t_mapping(t_address,t_uint256)": {
        "encoding": "mapping",
        "key": "t_address",
        "label": "mapping(address => uint256)",
        "numberOfBytes": "32",
        "value": "t_uint256"
      },
      "t_struct(EmaItem)15694_storage": {
        "encoding": "inplace",
        "label": "struct MocEma.EmaItem",
        "members": [
          {
            "astId": 15691,
            "contract": "contracts/core/MocCoreExpansion.sol:MocCoreExpansion",
            "label": "ema",
            "offset": 0,
            "slot": "0",
            "type": "t_uint256"
          },
          {
            "astId": 15693,
            "contract": "contracts/core/MocCoreExpansion.sol:MocCoreExpansion",
            "label": "sf",
            "offset": 0,
            "slot": "1",
            "type": "t_uint256"
          }
        ],
        "numberOfBytes": "64"
      },
      "t_struct(PegContainerItem)10136_storage": {
        "encoding": "inplace",
        "label": "struct MocBaseBucket.PegContainerItem",
        "members": [
          {
            "astId": 10132,
            "contract": "contracts/core/MocCoreExpansion.sol:MocCoreExpansion",
            "label": "nTP",
            "offset": 0,
            "slot": "0",
            "type": "t_uint256"
          },
          {
            "astId": 10135,
            "contract": "contracts/core/MocCoreExpansion.sol:MocCoreExpansion",
            "label": "priceProvider",
            "offset": 0,
            "slot": "1",
            "type": "t_contract(IPriceProvider)21414"
          }
        ],
        "numberOfBytes": "64"
      },
      "t_struct(PeggedTokenIndex)10141_storage": {
        "encoding": "inplace",
        "label": "struct MocBaseBucket.PeggedTokenIndex",
        "members": [
          {
            "astId": 10138,
            "contract": "contracts/core/MocCoreExpansion.sol:MocCoreExpansion",
            "label": "index",
            "offset": 0,
            "slot": "0",
            "type": "t_uint256"
          },
          {
            "astId": 10140,
            "contract": "contracts/core/MocCoreExpansion.sol:MocCoreExpansion",
            "label": "exists",
            "offset": 0,
            "slot": "1",
            "type": "t_bool"
          }
        ],
        "numberOfBytes": "64"
      },
      "t_uint256": {
        "encoding": "inplace",
        "label": "uint256",
        "numberOfBytes": "32"
      },
      "t_uint8": {
        "encoding": "inplace",
        "label": "uint8",
        "numberOfBytes": "1"
      }
    }
  },
  "userdoc": {
    "kind": "user",
    "methods": {
      "addPeggedToken((address,address,uint256,uint256,uint256,uint256,uint256))": {
        "notice": "add a Pegged Token to the protocol"
      },
      "calcCtargemaCA()": {
        "notice": "calculates target coverage adjusted by all Pegged Token's to Collateral Asset rate moving average"
      },
      "changeGovernor(address)": {
        "notice": "Change the contract's governor. Should be called through the old governance system"
      },
      "editPeggedToken((address,address,uint256,uint256,uint256,uint256,uint256))": {
        "notice": "modifies a Pegged Token of the protocol"
      },
      "evalLiquidation()": {
        "notice": "evaluates if liquidation threshold has been reached and liq is Enabled. If so forces contracts liquidation, blocking all mint & redeem operations. May emit a {ContractLiquidated} event."
      },
      "getPACtp(address)": {
        "notice": "get how many Pegged Token equal 1 Collateral Asset"
      },
      "governor()": {
        "notice": "The address of the contract which governs this one"
      },
      "isLiquidationReached()": {
        "notice": "If liquidation is enabled, verifies if forced liquidation has been reached, checking if globalCoverage <= liquidation"
      },
      "liqRedeemTPTo(address,address,address,uint256)": {
        "notice": "Allow redeem on liquidation state, user Peg balance gets burned"
      },
      "makeStoppable()": {
        "notice": "Switches ON the stoppability of the contract; if the contract was paused before making it unstoppable it will be paused again after calling this function"
      },
      "makeUnstoppable()": {
        "notice": "Switches OFF the stoppability of the contract; if the contract was paused it will no longer be so"
      },
      "maxQACToMintTP()": {
        "notice": "gets the max amount of AC allowed to operate to mint TP with, restricted by accumulators // TODO: move this function to a MocView contract"
      },
      "maxQACToRedeemTP()": {
        "notice": "gets the max amount of AC allowed to operate to redeem TP with, restricted by accumulators // TODO: move this function to a MocView contract"
      },
      "mintTCandTPto((address,uint256,uint256,address,address,address))": {
        "notice": "mint Collateral Token and Pegged Token in exchange for Collateral Asset  This operation is done without checking coverage  Collateral Token and Pegged Token are minted in equivalent proportions so that its price  and global coverage are not modified.  Reverts if qAC sent are insufficient."
      },
      "pause()": {
        "notice": "Called by the owner to pause, triggers stopped state"
      },
      "paused()": {
        "notice": "Returns true if paused"
      },
      "redeemTCandTPto((address,uint256,uint256,uint256,address,address,address))": {
        "notice": "redeem Collateral Asset in exchange for Collateral Token and Pegged Token  This operation is done without checking coverage  Collateral Token and Pegged Token are redeemed in equivalent proportions so that its price  and global coverage are not modified.  Reverts if qTP sent are insufficient."
      },
      "setPauser(address)": {
        "notice": "Changes the address which is enable to pause this contract"
      },
      "shouldCalculateEma()": {
        "notice": "true if the necessary span has pass since last ema update"
      },
      "swapTCforTPto((address,uint256,uint256,uint256,address,address,address))": {
        "notice": "swap Collateral Token to Pegged Token"
      },
      "swapTPforTCto((address,uint256,uint256,uint256,address,address,address))": {
        "notice": "swap Pegged Token to Collateral Token"
      },
      "swapTPforTPto((address,address,uint256,uint256,uint256,address,address,address))": {
        "notice": "swap Pegged Token to another one  This operation is done without checking coverage unless the target coverage for  received Pegged Token is greater than the Pegged Token sent"
      },
      "unpause()": {
        "notice": "Called by the owner to unpause, returns to normal state"
      },
      "updateEmas()": {
        "notice": "If time, calculates the EMA for all the Pegged Token prices."
      }
    },
    "notice": "This contract is used as an expansion of MocCore because 24kb size limitation  MocCore delegate some function calls to it.",
    "version": 1
  }
}