{
  "contractName": "MocCoreExpansion",
  "sourceName": "contracts/core/MocCoreExpansion.sol",
  "abi": [
    {
      "inputs": [],
      "stateMutability": "nonpayable",
      "type": "constructor"
    },
    {
      "inputs": [
        {
          "internalType": "uint256",
          "name": "qACsent_",
          "type": "uint256"
        },
        {
          "internalType": "uint256",
          "name": "qACNeeded_",
          "type": "uint256"
        }
      ],
      "name": "InsufficientQacSent",
      "type": "error"
    },
    {
      "inputs": [
        {
          "internalType": "uint256",
          "name": "qTPsent_",
          "type": "uint256"
        },
        {
          "internalType": "uint256",
          "name": "qTPNeeded_",
          "type": "uint256"
        }
      ],
      "name": "InsufficientQtpSent",
      "type": "error"
    },
    {
      "inputs": [
        {
          "internalType": "uint256",
          "name": "qTC_",
          "type": "uint256"
        },
        {
          "internalType": "uint256",
          "name": "tcAvailableToRedeem_",
          "type": "uint256"
        }
      ],
      "name": "InsufficientTCtoRedeem",
      "type": "error"
    },
    {
      "inputs": [
        {
          "internalType": "uint256",
          "name": "qTP_",
          "type": "uint256"
        },
        {
          "internalType": "uint256",
          "name": "tpAvailableToMint_",
          "type": "uint256"
        }
      ],
      "name": "InsufficientTPtoMint",
      "type": "error"
    },
    {
      "inputs": [
        {
          "internalType": "uint256",
          "name": "qTP_",
          "type": "uint256"
        },
        {
          "internalType": "uint256",
          "name": "tpAvailableToRedeem_",
          "type": "uint256"
        }
      ],
      "name": "InsufficientTPtoRedeem",
      "type": "error"
    },
    {
      "inputs": [],
      "name": "InvalidAddress",
      "type": "error"
    },
    {
      "inputs": [],
      "name": "InvalidFluxCapacitorOperation",
      "type": "error"
    },
    {
      "inputs": [],
      "name": "InvalidValue",
      "type": "error"
    },
    {
      "inputs": [],
      "name": "Liquidated",
      "type": "error"
    },
    {
      "inputs": [
        {
          "internalType": "uint256",
          "name": "cglb_",
          "type": "uint256"
        },
        {
          "internalType": "uint256",
          "name": "covThrld_",
          "type": "uint256"
        }
      ],
      "name": "LowCoverage",
      "type": "error"
    },
    {
      "inputs": [
        {
          "internalType": "uint256",
          "name": "max_",
          "type": "uint256"
        },
        {
          "internalType": "uint256",
          "name": "new_",
          "type": "uint256"
        }
      ],
      "name": "MaxFluxCapacitorOperationReached",
      "type": "error"
    },
    {
      "inputs": [
        {
          "internalType": "address",
          "name": "dataProviderAddress_",
          "type": "address"
        }
      ],
      "name": "MissingProviderData",
      "type": "error"
    },
    {
      "inputs": [
        {
          "internalType": "address",
          "name": "priceProviderAddress_",
          "type": "address"
        }
      ],
      "name": "MissingProviderPrice",
      "type": "error"
    },
    {
      "inputs": [],
      "name": "NotAuthorizedChanger",
      "type": "error"
    },
    {
      "inputs": [],
      "name": "NotWhenPaused",
      "type": "error"
    },
    {
      "inputs": [],
      "name": "OnlyPauser",
      "type": "error"
    },
    {
      "inputs": [],
      "name": "OnlyWhenLiquidated",
      "type": "error"
    },
    {
      "inputs": [],
      "name": "OnlyWhilePaused",
      "type": "error"
    },
    {
      "inputs": [],
      "name": "PeggedTokenAlreadyAdded",
      "type": "error"
    },
    {
      "inputs": [
        {
          "internalType": "uint256",
          "name": "qACmin_",
          "type": "uint256"
        },
        {
          "internalType": "uint256",
          "name": "qACtoRedeem_",
          "type": "uint256"
        }
      ],
      "name": "QacBelowMinimumRequired",
      "type": "error"
    },
    {
      "inputs": [],
      "name": "QacNeededMustBeGreaterThanZero",
      "type": "error"
    },
    {
      "inputs": [
        {
          "internalType": "uint256",
          "name": "qTCmin_",
          "type": "uint256"
        },
        {
          "internalType": "uint256",
          "name": "qTC_",
          "type": "uint256"
        }
      ],
      "name": "QtcBelowMinimumRequired",
      "type": "error"
    },
    {
      "inputs": [
        {
          "internalType": "uint256",
          "name": "qTPmin_",
          "type": "uint256"
        },
        {
          "internalType": "uint256",
          "name": "qTP_",
          "type": "uint256"
        }
      ],
      "name": "QtpBelowMinimumRequired",
      "type": "error"
    },
    {
      "inputs": [],
      "name": "TransferFailed",
      "type": "error"
    },
    {
      "inputs": [],
      "name": "Unstoppable",
      "type": "error"
    },
    {
      "anonymous": false,
      "inputs": [
        {
          "indexed": false,
          "internalType": "address",
          "name": "previousAdmin",
          "type": "address"
        },
        {
          "indexed": false,
          "internalType": "address",
          "name": "newAdmin",
          "type": "address"
        }
      ],
      "name": "AdminChanged",
      "type": "event"
    },
    {
      "anonymous": false,
      "inputs": [
        {
          "indexed": true,
          "internalType": "address",
          "name": "beacon",
          "type": "address"
        }
      ],
      "name": "BeaconUpgraded",
      "type": "event"
    },
    {
      "anonymous": false,
      "inputs": [],
      "name": "ContractLiquidated",
      "type": "event"
    },
    {
      "anonymous": false,
      "inputs": [
        {
          "indexed": false,
          "internalType": "uint8",
          "name": "version",
          "type": "uint8"
        }
      ],
      "name": "Initialized",
      "type": "event"
    },
    {
      "anonymous": false,
      "inputs": [
        {
          "indexed": true,
          "internalType": "address",
          "name": "tp_",
          "type": "address"
        },
        {
          "indexed": true,
          "internalType": "address",
          "name": "sender_",
          "type": "address"
        },
        {
          "indexed": true,
          "internalType": "address",
          "name": "recipient_",
          "type": "address"
        },
        {
          "indexed": false,
          "internalType": "uint256",
          "name": "qTP_",
          "type": "uint256"
        },
        {
          "indexed": false,
          "internalType": "uint256",
          "name": "qAC_",
          "type": "uint256"
        }
      ],
      "name": "LiqTPRedeemed",
      "type": "event"
    },
    {
      "anonymous": false,
      "inputs": [
        {
          "indexed": false,
          "internalType": "address",
          "name": "account",
          "type": "address"
        }
      ],
      "name": "Paused",
      "type": "event"
    },
    {
      "anonymous": false,
      "inputs": [
        {
          "indexed": false,
          "internalType": "uint256",
          "name": "i_",
          "type": "uint256"
        },
        {
          "components": [
            {
              "internalType": "address",
              "name": "tpTokenAddress",
              "type": "address"
            },
            {
              "internalType": "address",
              "name": "priceProviderAddress",
              "type": "address"
            },
            {
              "internalType": "uint256",
              "name": "tpCtarg",
              "type": "uint256"
            },
            {
              "internalType": "uint256",
              "name": "tpMintFee",
              "type": "uint256"
            },
            {
              "internalType": "uint256",
              "name": "tpRedeemFee",
              "type": "uint256"
            },
            {
              "internalType": "uint256",
              "name": "tpEma",
              "type": "uint256"
            },
            {
              "internalType": "uint256",
              "name": "tpEmaSf",
              "type": "uint256"
            }
          ],
          "indexed": false,
          "internalType": "struct PeggedTokenParams",
          "name": "peggedTokenParams_",
          "type": "tuple"
        }
      ],
      "name": "PeggedTokenChange",
      "type": "event"
    },
    {
      "anonymous": false,
      "inputs": [
        {
          "indexed": true,
          "internalType": "uint256",
          "name": "i_",
          "type": "uint256"
        },
        {
          "indexed": false,
          "internalType": "uint256",
          "name": "oldTPema_",
          "type": "uint256"
        },
        {
          "indexed": false,
          "internalType": "uint256",
          "name": "newTPema_",
          "type": "uint256"
        }
      ],
      "name": "TPemaUpdated",
      "type": "event"
    },
    {
      "anonymous": false,
      "inputs": [
        {
          "indexed": false,
          "internalType": "address",
          "name": "account",
          "type": "address"
        }
      ],
      "name": "Unpaused",
      "type": "event"
    },
    {
      "anonymous": false,
      "inputs": [
        {
          "indexed": true,
          "internalType": "address",
          "name": "implementation",
          "type": "address"
        }
      ],
      "name": "Upgraded",
      "type": "event"
    },
    {
      "inputs": [],
      "name": "absoluteAccumulator",
      "outputs": [
        {
          "internalType": "uint256",
          "name": "",
          "type": "uint256"
        }
      ],
      "stateMutability": "view",
      "type": "function"
    },
    {
      "inputs": [
        {
          "components": [
            {
              "internalType": "address",
              "name": "tpTokenAddress",
              "type": "address"
            },
            {
              "internalType": "address",
              "name": "priceProviderAddress",
              "type": "address"
            },
            {
              "internalType": "uint256",
              "name": "tpCtarg",
              "type": "uint256"
            },
            {
              "internalType": "uint256",
              "name": "tpMintFee",
              "type": "uint256"
            },
            {
              "internalType": "uint256",
              "name": "tpRedeemFee",
              "type": "uint256"
            },
            {
              "internalType": "uint256",
              "name": "tpEma",
              "type": "uint256"
            },
            {
              "internalType": "uint256",
              "name": "tpEmaSf",
              "type": "uint256"
            }
          ],
          "internalType": "struct PeggedTokenParams",
          "name": "peggedTokenParams_",
          "type": "tuple"
        }
      ],
      "name": "addPeggedToken",
      "outputs": [],
      "stateMutability": "nonpayable",
      "type": "function"
    },
    {
      "inputs": [],
      "name": "appreciationFactor",
      "outputs": [
        {
          "internalType": "uint256",
          "name": "",
          "type": "uint256"
        }
      ],
      "stateMutability": "view",
      "type": "function"
    },
    {
      "inputs": [],
      "name": "bes",
      "outputs": [
        {
          "internalType": "uint256",
          "name": "",
          "type": "uint256"
        }
      ],
      "stateMutability": "view",
      "type": "function"
    },
    {
      "inputs": [],
      "name": "bns",
      "outputs": [
        {
          "internalType": "uint256",
          "name": "",
          "type": "uint256"
        }
      ],
      "stateMutability": "view",
      "type": "function"
    },
    {
      "inputs": [],
      "name": "calcCtargemaCA",
      "outputs": [
        {
          "internalType": "uint256",
          "name": "ctargemaCA",
          "type": "uint256"
        }
      ],
      "stateMutability": "view",
      "type": "function"
    },
    {
      "inputs": [
        {
          "internalType": "contract IGovernor",
          "name": "newGovernor_",
          "type": "address"
        }
      ],
      "name": "changeGovernor",
      "outputs": [],
      "stateMutability": "nonpayable",
      "type": "function"
    },
    {
      "inputs": [],
      "name": "decayBlockSpan",
      "outputs": [
        {
          "internalType": "uint256",
          "name": "",
          "type": "uint256"
        }
      ],
      "stateMutability": "view",
      "type": "function"
    },
    {
      "inputs": [],
      "name": "differentialAccumulator",
      "outputs": [
        {
          "internalType": "int256",
          "name": "",
          "type": "int256"
        }
      ],
      "stateMutability": "view",
      "type": "function"
    },
    {
      "inputs": [
        {
          "components": [
            {
              "internalType": "address",
              "name": "tpTokenAddress",
              "type": "address"
            },
            {
              "internalType": "address",
              "name": "priceProviderAddress",
              "type": "address"
            },
            {
              "internalType": "uint256",
              "name": "tpCtarg",
              "type": "uint256"
            },
            {
              "internalType": "uint256",
              "name": "tpMintFee",
              "type": "uint256"
            },
            {
              "internalType": "uint256",
              "name": "tpRedeemFee",
              "type": "uint256"
            },
            {
              "internalType": "uint256",
              "name": "tpEma",
              "type": "uint256"
            },
            {
              "internalType": "uint256",
              "name": "tpEmaSf",
              "type": "uint256"
            }
          ],
          "internalType": "struct PeggedTokenParams",
          "name": "peggedTokenParams_",
          "type": "tuple"
        }
      ],
      "name": "editPeggedToken",
      "outputs": [],
      "stateMutability": "nonpayable",
      "type": "function"
    },
    {
      "inputs": [],
      "name": "emaCalculationBlockSpan",
      "outputs": [
        {
          "internalType": "uint256",
          "name": "",
          "type": "uint256"
        }
      ],
      "stateMutability": "view",
      "type": "function"
    },
    {
      "inputs": [],
      "name": "evalLiquidation",
      "outputs": [],
      "stateMutability": "nonpayable",
      "type": "function"
    },
    {
      "inputs": [],
      "name": "feeRetainer",
      "outputs": [
        {
          "internalType": "uint256",
          "name": "",
          "type": "uint256"
        }
      ],
      "stateMutability": "view",
      "type": "function"
    },
    {
      "inputs": [],
      "name": "feeToken",
      "outputs": [
        {
          "internalType": "contract IERC20",
          "name": "",
          "type": "address"
        }
      ],
      "stateMutability": "view",
      "type": "function"
    },
    {
      "inputs": [],
      "name": "feeTokenPct",
      "outputs": [
        {
          "internalType": "uint256",
          "name": "",
          "type": "uint256"
        }
      ],
      "stateMutability": "view",
      "type": "function"
    },
    {
      "inputs": [],
      "name": "feeTokenPriceProvider",
      "outputs": [
        {
          "internalType": "contract IPriceProvider",
          "name": "",
          "type": "address"
        }
      ],
      "stateMutability": "view",
      "type": "function"
    },
    {
      "inputs": [
        {
          "internalType": "address",
          "name": "tp_",
          "type": "address"
        }
      ],
      "name": "getPACtp",
      "outputs": [
        {
          "internalType": "uint256",
          "name": "",
          "type": "uint256"
        }
      ],
      "stateMutability": "view",
      "type": "function"
    },
    {
      "inputs": [],
      "name": "getTpAmount",
      "outputs": [
        {
          "internalType": "uint256",
          "name": "",
          "type": "uint256"
        }
      ],
      "stateMutability": "view",
      "type": "function"
    },
    {
      "inputs": [],
      "name": "governor",
      "outputs": [
        {
          "internalType": "contract IGovernor",
          "name": "",
          "type": "address"
        }
      ],
      "stateMutability": "view",
      "type": "function"
    },
    {
      "inputs": [],
      "name": "isLiquidationReached",
      "outputs": [
        {
          "internalType": "bool",
          "name": "",
          "type": "bool"
        }
      ],
      "stateMutability": "view",
      "type": "function"
    },
    {
      "inputs": [],
      "name": "lastOperationBlockNumber",
      "outputs": [
        {
          "internalType": "uint256",
          "name": "",
          "type": "uint256"
        }
      ],
      "stateMutability": "view",
      "type": "function"
    },
    {
      "inputs": [],
      "name": "liqEnabled",
      "outputs": [
        {
          "internalType": "bool",
          "name": "",
          "type": "bool"
        }
      ],
      "stateMutability": "view",
      "type": "function"
    },
    {
      "inputs": [
        {
          "internalType": "address",
          "name": "tp_",
          "type": "address"
        },
        {
          "internalType": "address",
          "name": "sender_",
          "type": "address"
        },
        {
          "internalType": "address",
          "name": "recipient_",
          "type": "address"
        },
        {
          "internalType": "uint256",
          "name": "mocACBalance",
          "type": "uint256"
        }
      ],
      "name": "liqRedeemTPTo",
      "outputs": [
        {
          "internalType": "uint256",
          "name": "qACRedeemed",
          "type": "uint256"
        }
      ],
      "stateMutability": "nonpayable",
      "type": "function"
    },
    {
      "inputs": [],
      "name": "liqThrld",
      "outputs": [
        {
          "internalType": "uint256",
          "name": "",
          "type": "uint256"
        }
      ],
      "stateMutability": "view",
      "type": "function"
    },
    {
      "inputs": [],
      "name": "liquidated",
      "outputs": [
        {
          "internalType": "bool",
          "name": "",
          "type": "bool"
        }
      ],
      "stateMutability": "view",
      "type": "function"
    },
    {
      "inputs": [],
      "name": "makeStoppable",
      "outputs": [],
      "stateMutability": "nonpayable",
      "type": "function"
    },
    {
      "inputs": [],
      "name": "makeUnstoppable",
      "outputs": [],
      "stateMutability": "nonpayable",
      "type": "function"
    },
    {
      "inputs": [],
      "name": "maxAbsoluteOpProvider",
      "outputs": [
        {
          "internalType": "contract IDataProvider",
          "name": "",
          "type": "address"
        }
      ],
      "stateMutability": "view",
      "type": "function"
    },
    {
      "inputs": [],
      "name": "maxOpDiffProvider",
      "outputs": [
        {
          "internalType": "contract IDataProvider",
          "name": "",
          "type": "address"
        }
      ],
      "stateMutability": "view",
      "type": "function"
    },
    {
      "inputs": [],
      "name": "maxQACToMintTP",
      "outputs": [
        {
          "internalType": "uint256",
          "name": "maxQAC",
          "type": "uint256"
        }
      ],
      "stateMutability": "view",
      "type": "function"
    },
    {
      "inputs": [],
      "name": "maxQACToRedeemTP",
      "outputs": [
        {
          "internalType": "uint256",
          "name": "maxQAC",
          "type": "uint256"
        }
      ],
      "stateMutability": "view",
      "type": "function"
    },
    {
      "inputs": [],
      "name": "mintTCandTPFee",
      "outputs": [
        {
          "internalType": "uint256",
          "name": "",
          "type": "uint256"
        }
      ],
      "stateMutability": "view",
      "type": "function"
    },
    {
      "inputs": [
        {
          "components": [
            {
              "internalType": "address",
              "name": "tp",
              "type": "address"
            },
            {
              "internalType": "uint256",
              "name": "qTP",
              "type": "uint256"
            },
            {
              "internalType": "uint256",
              "name": "qACmax",
              "type": "uint256"
            },
            {
              "internalType": "address",
              "name": "sender",
              "type": "address"
            },
            {
              "internalType": "address",
              "name": "recipient",
              "type": "address"
            },
            {
              "internalType": "address",
              "name": "vendor",
              "type": "address"
            }
          ],
          "internalType": "struct MocCommons.MintTCandTPParams",
          "name": "params_",
          "type": "tuple"
        }
      ],
      "name": "mintTCandTPto",
      "outputs": [
        {
          "internalType": "uint256",
          "name": "qACtotalNeeded",
          "type": "uint256"
        },
        {
          "internalType": "uint256",
          "name": "qTCtoMint",
          "type": "uint256"
        },
        {
          "internalType": "uint256",
          "name": "qFeeTokenTotalNeeded",
          "type": "uint256"
        },
        {
          "components": [
            {
              "internalType": "uint256",
              "name": "qACFee",
              "type": "uint256"
            },
            {
              "internalType": "uint256",
              "name": "qFeeToken",
              "type": "uint256"
            },
            {
              "internalType": "uint256",
              "name": "qACVendorMarkup",
              "type": "uint256"
            },
            {
              "internalType": "uint256",
              "name": "qFeeTokenVendorMarkup",
              "type": "uint256"
            }
          ],
          "internalType": "struct MocCommons.FeeCalcs",
          "name": "feeCalcs",
          "type": "tuple"
        }
      ],
      "stateMutability": "payable",
      "type": "function"
    },
    {
      "inputs": [],
      "name": "mocAppreciationBeneficiaryAddress",
      "outputs": [
        {
          "internalType": "address",
          "name": "",
          "type": "address"
        }
      ],
      "stateMutability": "view",
      "type": "function"
    },
    {
      "inputs": [],
      "name": "mocFeeFlowAddress",
      "outputs": [
        {
          "internalType": "address",
          "name": "",
          "type": "address"
        }
      ],
      "stateMutability": "view",
      "type": "function"
    },
    {
      "inputs": [],
      "name": "mocQueue",
      "outputs": [
        {
          "internalType": "address",
          "name": "",
          "type": "address"
        }
      ],
      "stateMutability": "view",
      "type": "function"
    },
    {
      "inputs": [],
      "name": "mocVendors",
      "outputs": [
        {
          "internalType": "contract MocVendors",
          "name": "",
          "type": "address"
        }
      ],
      "stateMutability": "view",
      "type": "function"
    },
    {
      "inputs": [],
      "name": "nACcb",
      "outputs": [
        {
          "internalType": "uint256",
          "name": "",
          "type": "uint256"
        }
      ],
      "stateMutability": "view",
      "type": "function"
    },
    {
      "inputs": [],
      "name": "nTCcb",
      "outputs": [
        {
          "internalType": "uint256",
          "name": "",
          "type": "uint256"
        }
      ],
      "stateMutability": "view",
      "type": "function"
    },
    {
      "inputs": [],
      "name": "nextEmaCalculation",
      "outputs": [
        {
          "internalType": "uint256",
          "name": "",
          "type": "uint256"
        }
      ],
      "stateMutability": "view",
      "type": "function"
    },
    {
      "inputs": [],
      "name": "nextTCInterestPayment",
      "outputs": [
        {
          "internalType": "uint256",
          "name": "",
          "type": "uint256"
        }
      ],
      "stateMutability": "view",
      "type": "function"
    },
    {
      "inputs": [],
      "name": "pause",
      "outputs": [],
      "stateMutability": "nonpayable",
      "type": "function"
    },
    {
      "inputs": [],
      "name": "paused",
      "outputs": [
        {
          "internalType": "bool",
          "name": "",
          "type": "bool"
        }
      ],
      "stateMutability": "view",
      "type": "function"
    },
    {
      "inputs": [],
      "name": "pauser",
      "outputs": [
        {
          "internalType": "address",
          "name": "",
          "type": "address"
        }
      ],
      "stateMutability": "view",
      "type": "function"
    },
    {
      "inputs": [
        {
          "internalType": "uint256",
          "name": "",
          "type": "uint256"
        }
      ],
      "name": "pegContainer",
      "outputs": [
        {
          "internalType": "uint256",
          "name": "nTP",
          "type": "uint256"
        },
        {
          "internalType": "contract IPriceProvider",
          "name": "priceProvider",
          "type": "address"
        }
      ],
      "stateMutability": "view",
      "type": "function"
    },
    {
      "inputs": [
        {
          "internalType": "address",
          "name": "",
          "type": "address"
        }
      ],
      "name": "peggedTokenIndex",
      "outputs": [
        {
          "internalType": "uint256",
          "name": "index",
          "type": "uint256"
        },
        {
          "internalType": "bool",
          "name": "exists",
          "type": "bool"
        }
      ],
      "stateMutability": "view",
      "type": "function"
    },
    {
      "inputs": [],
      "name": "protThrld",
      "outputs": [
        {
          "internalType": "uint256",
          "name": "",
          "type": "uint256"
        }
      ],
      "stateMutability": "view",
      "type": "function"
    },
    {
      "inputs": [],
      "name": "proxiableUUID",
      "outputs": [
        {
          "internalType": "bytes32",
          "name": "",
          "type": "bytes32"
        }
      ],
      "stateMutability": "view",
      "type": "function"
    },
    {
      "inputs": [],
      "name": "qACLockedInPending",
      "outputs": [
        {
          "internalType": "uint256",
          "name": "",
          "type": "uint256"
        }
      ],
      "stateMutability": "view",
      "type": "function"
    },
    {
      "inputs": [],
      "name": "redeemTCandTPFee",
      "outputs": [
        {
          "internalType": "uint256",
          "name": "",
          "type": "uint256"
        }
      ],
      "stateMutability": "view",
      "type": "function"
    },
    {
      "inputs": [
        {
          "components": [
            {
              "internalType": "address",
              "name": "tp",
              "type": "address"
            },
            {
              "internalType": "uint256",
              "name": "qTC",
              "type": "uint256"
            },
            {
              "internalType": "uint256",
              "name": "qTP",
              "type": "uint256"
            },
            {
              "internalType": "uint256",
              "name": "qACmin",
              "type": "uint256"
            },
            {
              "internalType": "address",
              "name": "sender",
              "type": "address"
            },
            {
              "internalType": "address",
              "name": "recipient",
              "type": "address"
            },
            {
              "internalType": "address",
              "name": "vendor",
              "type": "address"
            }
          ],
          "internalType": "struct MocCommons.RedeemTCandTPParams",
          "name": "params_",
          "type": "tuple"
        }
      ],
      "name": "redeemTCandTPto",
      "outputs": [
        {
          "internalType": "uint256",
          "name": "qACtoRedeem",
          "type": "uint256"
        },
        {
          "internalType": "uint256",
          "name": "qTPtoRedeem",
          "type": "uint256"
        },
        {
          "internalType": "uint256",
          "name": "qFeeTokenTotalNeeded",
          "type": "uint256"
        },
        {
          "components": [
            {
              "internalType": "uint256",
              "name": "qACFee",
              "type": "uint256"
            },
            {
              "internalType": "uint256",
              "name": "qFeeToken",
              "type": "uint256"
            },
            {
              "internalType": "uint256",
              "name": "qACVendorMarkup",
              "type": "uint256"
            },
            {
              "internalType": "uint256",
              "name": "qFeeTokenVendorMarkup",
              "type": "uint256"
            }
          ],
          "internalType": "struct MocCommons.FeeCalcs",
          "name": "feeCalcs",
          "type": "tuple"
        }
      ],
      "stateMutability": "payable",
      "type": "function"
    },
    {
      "inputs": [
        {
          "internalType": "uint256",
          "name": "appreciationFactor_",
          "type": "uint256"
        }
      ],
      "name": "setAppreciationFactor",
      "outputs": [],
      "stateMutability": "nonpayable",
      "type": "function"
    },
    {
      "inputs": [
        {
          "internalType": "uint256",
          "name": "bes_",
          "type": "uint256"
        }
      ],
      "name": "setBes",
      "outputs": [],
      "stateMutability": "nonpayable",
      "type": "function"
    },
    {
      "inputs": [
        {
          "internalType": "uint256",
          "name": "decayBlockSpan_",
          "type": "uint256"
        }
      ],
      "name": "setDecayBlockSpan",
      "outputs": [],
      "stateMutability": "nonpayable",
      "type": "function"
    },
    {
      "inputs": [
        {
          "internalType": "uint256",
          "name": "blockSpan_",
          "type": "uint256"
        }
      ],
      "name": "setEmaCalculationBlockSpan",
      "outputs": [],
      "stateMutability": "nonpayable",
      "type": "function"
    },
    {
      "inputs": [
        {
          "internalType": "uint256",
          "name": "feeRetainer_",
          "type": "uint256"
        }
      ],
      "name": "setFeeRetainer",
      "outputs": [],
      "stateMutability": "nonpayable",
      "type": "function"
    },
    {
      "inputs": [
        {
          "internalType": "address",
          "name": "mocFeeTokenAddress_",
          "type": "address"
        }
      ],
      "name": "setFeeTokenAddress",
      "outputs": [],
      "stateMutability": "nonpayable",
      "type": "function"
    },
    {
      "inputs": [
        {
          "internalType": "uint256",
          "name": "feeTokenPct_",
          "type": "uint256"
        }
      ],
      "name": "setFeeTokenPct",
      "outputs": [],
      "stateMutability": "nonpayable",
      "type": "function"
    },
    {
      "inputs": [
        {
          "internalType": "address",
          "name": "mocFeeTokenPriceProviderAddress_",
          "type": "address"
        }
      ],
      "name": "setFeeTokenPriceProviderAddress",
      "outputs": [],
      "stateMutability": "nonpayable",
      "type": "function"
    },
    {
      "inputs": [
        {
          "internalType": "bool",
          "name": "liqEnabled_",
          "type": "bool"
        }
      ],
      "name": "setLiqEnabled",
      "outputs": [],
      "stateMutability": "nonpayable",
      "type": "function"
    },
    {
      "inputs": [
        {
          "internalType": "uint256",
          "name": "liqThrld_",
          "type": "uint256"
        }
      ],
      "name": "setLiqThrld",
      "outputs": [],
      "stateMutability": "nonpayable",
      "type": "function"
    },
    {
      "inputs": [
        {
          "internalType": "address",
          "name": "maxAbsoluteOpProviderAddress_",
          "type": "address"
        }
      ],
      "name": "setMaxAbsoluteOpProviderAddress",
      "outputs": [],
      "stateMutability": "nonpayable",
      "type": "function"
    },
    {
      "inputs": [
        {
          "internalType": "address",
          "name": "maxOpDiffProviderAddress_",
          "type": "address"
        }
      ],
      "name": "setMaxOpDiffProviderAddress",
      "outputs": [],
      "stateMutability": "nonpayable",
      "type": "function"
    },
    {
      "inputs": [
        {
          "internalType": "uint256",
          "name": "mintTCandTPFee_",
          "type": "uint256"
        }
      ],
      "name": "setMintTCandTPFee",
      "outputs": [],
      "stateMutability": "nonpayable",
      "type": "function"
    },
    {
      "inputs": [
        {
          "internalType": "address",
          "name": "mocAppreciationBeneficiaryAddress_",
          "type": "address"
        }
      ],
      "name": "setMocAppreciationBeneficiaryAddress",
      "outputs": [],
      "stateMutability": "nonpayable",
      "type": "function"
    },
    {
      "inputs": [
        {
          "internalType": "address",
          "name": "mocFeeFlowAddress_",
          "type": "address"
        }
      ],
      "name": "setMocFeeFlowAddress",
      "outputs": [],
      "stateMutability": "nonpayable",
      "type": "function"
    },
    {
      "inputs": [
        {
          "internalType": "address",
          "name": "mocQueueAddress_",
          "type": "address"
        }
      ],
      "name": "setMocQueue",
      "outputs": [],
      "stateMutability": "nonpayable",
      "type": "function"
    },
    {
      "inputs": [
        {
          "internalType": "address",
          "name": "newPauser_",
          "type": "address"
        }
      ],
      "name": "setPauser",
      "outputs": [],
      "stateMutability": "nonpayable",
      "type": "function"
    },
    {
      "inputs": [
        {
          "internalType": "uint256",
          "name": "protThrld_",
          "type": "uint256"
        }
      ],
      "name": "setProtThrld",
      "outputs": [],
      "stateMutability": "nonpayable",
      "type": "function"
    },
    {
      "inputs": [
        {
          "internalType": "uint256",
          "name": "redeemTCandTPFee_",
          "type": "uint256"
        }
      ],
      "name": "setRedeemTCandTPFee",
      "outputs": [],
      "stateMutability": "nonpayable",
      "type": "function"
    },
    {
      "inputs": [
        {
          "internalType": "uint256",
          "name": "successFee_",
          "type": "uint256"
        }
      ],
      "name": "setSuccessFee",
      "outputs": [],
      "stateMutability": "nonpayable",
      "type": "function"
    },
    {
      "inputs": [
        {
          "internalType": "uint256",
          "name": "swapTCforTPFee_",
          "type": "uint256"
        }
      ],
      "name": "setSwapTCforTPFee",
      "outputs": [],
      "stateMutability": "nonpayable",
      "type": "function"
    },
    {
      "inputs": [
        {
          "internalType": "uint256",
          "name": "swapTPforTCFee_",
          "type": "uint256"
        }
      ],
      "name": "setSwapTPforTCFee",
      "outputs": [],
      "stateMutability": "nonpayable",
      "type": "function"
    },
    {
      "inputs": [
        {
          "internalType": "uint256",
          "name": "swapTPforTPFee_",
          "type": "uint256"
        }
      ],
      "name": "setSwapTPforTPFee",
      "outputs": [],
      "stateMutability": "nonpayable",
      "type": "function"
    },
    {
      "inputs": [
        {
          "internalType": "address",
          "name": "tcInterestCollectorAddress_",
          "type": "address"
        }
      ],
      "name": "setTCInterestCollectorAddress",
      "outputs": [],
      "stateMutability": "nonpayable",
      "type": "function"
    },
    {
      "inputs": [
        {
          "internalType": "uint256",
          "name": "tcInterestPaymentBlockSpan_",
          "type": "uint256"
        }
      ],
      "name": "setTCInterestPaymentBlockSpan",
      "outputs": [],
      "stateMutability": "nonpayable",
      "type": "function"
    },
    {
      "inputs": [
        {
          "internalType": "uint256",
          "name": "tcInterestRate_",
          "type": "uint256"
        }
      ],
      "name": "setTCInterestRate",
      "outputs": [],
      "stateMutability": "nonpayable",
      "type": "function"
    },
    {
      "inputs": [
        {
          "internalType": "uint256",
          "name": "tcMintFee_",
          "type": "uint256"
        }
      ],
      "name": "setTcMintFee",
      "outputs": [],
      "stateMutability": "nonpayable",
      "type": "function"
    },
    {
      "inputs": [
        {
          "internalType": "uint256",
          "name": "tcRedeemFee_",
          "type": "uint256"
        }
      ],
      "name": "setTcRedeemFee",
      "outputs": [],
      "stateMutability": "nonpayable",
      "type": "function"
    },
    {
      "inputs": [],
      "name": "shouldCalculateEma",
      "outputs": [
        {
          "internalType": "bool",
          "name": "",
          "type": "bool"
        }
      ],
      "stateMutability": "view",
      "type": "function"
    },
    {
      "inputs": [],
      "name": "stoppable",
      "outputs": [
        {
          "internalType": "bool",
          "name": "",
          "type": "bool"
        }
      ],
      "stateMutability": "view",
      "type": "function"
    },
    {
      "inputs": [],
      "name": "successFee",
      "outputs": [
        {
          "internalType": "uint256",
          "name": "",
          "type": "uint256"
        }
      ],
      "stateMutability": "view",
      "type": "function"
    },
    {
      "inputs": [],
      "name": "swapTCforTPFee",
      "outputs": [
        {
          "internalType": "uint256",
          "name": "",
          "type": "uint256"
        }
      ],
      "stateMutability": "view",
      "type": "function"
    },
    {
      "inputs": [
        {
          "components": [
            {
              "internalType": "address",
              "name": "tp",
              "type": "address"
            },
            {
              "internalType": "uint256",
              "name": "qTC",
              "type": "uint256"
            },
            {
              "internalType": "uint256",
              "name": "qTPmin",
              "type": "uint256"
            },
            {
              "internalType": "uint256",
              "name": "qACmax",
              "type": "uint256"
            },
            {
              "internalType": "address",
              "name": "sender",
              "type": "address"
            },
            {
              "internalType": "address",
              "name": "recipient",
              "type": "address"
            },
            {
              "internalType": "address",
              "name": "vendor",
              "type": "address"
            }
          ],
          "internalType": "struct MocCommons.SwapTCforTPParams",
          "name": "params_",
          "type": "tuple"
        }
      ],
      "name": "swapTCforTPto",
      "outputs": [
        {
          "internalType": "uint256",
          "name": "qACSurcharges",
          "type": "uint256"
        },
        {
          "internalType": "uint256",
          "name": "qTPtoMint",
          "type": "uint256"
        },
        {
          "internalType": "uint256",
          "name": "qFeeTokenTotalNeeded",
          "type": "uint256"
        },
        {
          "components": [
            {
              "internalType": "uint256",
              "name": "qACFee",
              "type": "uint256"
            },
            {
              "internalType": "uint256",
              "name": "qFeeToken",
              "type": "uint256"
            },
            {
              "internalType": "uint256",
              "name": "qACVendorMarkup",
              "type": "uint256"
            },
            {
              "internalType": "uint256",
              "name": "qFeeTokenVendorMarkup",
              "type": "uint256"
            }
          ],
          "internalType": "struct MocCommons.FeeCalcs",
          "name": "feeCalcs",
          "type": "tuple"
        }
      ],
      "stateMutability": "payable",
      "type": "function"
    },
    {
      "inputs": [],
      "name": "swapTPforTCFee",
      "outputs": [
        {
          "internalType": "uint256",
          "name": "",
          "type": "uint256"
        }
      ],
      "stateMutability": "view",
      "type": "function"
    },
    {
      "inputs": [
        {
          "components": [
            {
              "internalType": "address",
              "name": "tp",
              "type": "address"
            },
            {
              "internalType": "uint256",
              "name": "qTP",
              "type": "uint256"
            },
            {
              "internalType": "uint256",
              "name": "qTCmin",
              "type": "uint256"
            },
            {
              "internalType": "uint256",
              "name": "qACmax",
              "type": "uint256"
            },
            {
              "internalType": "address",
              "name": "sender",
              "type": "address"
            },
            {
              "internalType": "address",
              "name": "recipient",
              "type": "address"
            },
            {
              "internalType": "address",
              "name": "vendor",
              "type": "address"
            }
          ],
          "internalType": "struct MocCommons.SwapTPforTCParams",
          "name": "params_",
          "type": "tuple"
        }
      ],
      "name": "swapTPforTCto",
      "outputs": [
        {
          "internalType": "uint256",
          "name": "qACSurcharges",
          "type": "uint256"
        },
        {
          "internalType": "uint256",
          "name": "qTCtoMint",
          "type": "uint256"
        },
        {
          "internalType": "uint256",
          "name": "qFeeTokenTotalNeeded",
          "type": "uint256"
        },
        {
          "components": [
            {
              "internalType": "uint256",
              "name": "qACFee",
              "type": "uint256"
            },
            {
              "internalType": "uint256",
              "name": "qFeeToken",
              "type": "uint256"
            },
            {
              "internalType": "uint256",
              "name": "qACVendorMarkup",
              "type": "uint256"
            },
            {
              "internalType": "uint256",
              "name": "qFeeTokenVendorMarkup",
              "type": "uint256"
            }
          ],
          "internalType": "struct MocCommons.FeeCalcs",
          "name": "feeCalcs",
          "type": "tuple"
        }
      ],
      "stateMutability": "payable",
      "type": "function"
    },
    {
      "inputs": [],
      "name": "swapTPforTPFee",
      "outputs": [
        {
          "internalType": "uint256",
          "name": "",
          "type": "uint256"
        }
      ],
      "stateMutability": "view",
      "type": "function"
    },
    {
      "inputs": [
        {
          "components": [
            {
              "internalType": "address",
              "name": "tpFrom",
              "type": "address"
            },
            {
              "internalType": "address",
              "name": "tpTo",
              "type": "address"
            },
            {
              "internalType": "uint256",
              "name": "qTP",
              "type": "uint256"
            },
            {
              "internalType": "uint256",
              "name": "qTPmin",
              "type": "uint256"
            },
            {
              "internalType": "uint256",
              "name": "qACmax",
              "type": "uint256"
            },
            {
              "internalType": "address",
              "name": "sender",
              "type": "address"
            },
            {
              "internalType": "address",
              "name": "recipient",
              "type": "address"
            },
            {
              "internalType": "address",
              "name": "vendor",
              "type": "address"
            }
          ],
          "internalType": "struct MocCommons.SwapTPforTPParams",
          "name": "params_",
          "type": "tuple"
        }
      ],
      "name": "swapTPforTPto",
      "outputs": [
        {
          "internalType": "uint256",
          "name": "qACSurcharges",
          "type": "uint256"
        },
        {
          "internalType": "uint256",
          "name": "qTPtoMint",
          "type": "uint256"
        },
        {
          "internalType": "uint256",
          "name": "qFeeTokenTotalNeeded",
          "type": "uint256"
        },
        {
          "components": [
            {
              "internalType": "uint256",
              "name": "qACFee",
              "type": "uint256"
            },
            {
              "internalType": "uint256",
              "name": "qFeeToken",
              "type": "uint256"
            },
            {
              "internalType": "uint256",
              "name": "qACVendorMarkup",
              "type": "uint256"
            },
            {
              "internalType": "uint256",
              "name": "qFeeTokenVendorMarkup",
              "type": "uint256"
            }
          ],
          "internalType": "struct MocCommons.FeeCalcs",
          "name": "feeCalcs",
          "type": "tuple"
        }
      ],
      "stateMutability": "payable",
      "type": "function"
    },
    {
      "inputs": [],
      "name": "tcInterestCollectorAddress",
      "outputs": [
        {
          "internalType": "address",
          "name": "",
          "type": "address"
        }
      ],
      "stateMutability": "view",
      "type": "function"
    },
    {
      "inputs": [],
      "name": "tcInterestPaymentBlockSpan",
      "outputs": [
        {
          "internalType": "uint256",
          "name": "",
          "type": "uint256"
        }
      ],
      "stateMutability": "view",
      "type": "function"
    },
    {
      "inputs": [],
      "name": "tcInterestRate",
      "outputs": [
        {
          "internalType": "uint256",
          "name": "",
          "type": "uint256"
        }
      ],
      "stateMutability": "view",
      "type": "function"
    },
    {
      "inputs": [],
      "name": "tcMintFee",
      "outputs": [
        {
          "internalType": "uint256",
          "name": "",
          "type": "uint256"
        }
      ],
      "stateMutability": "view",
      "type": "function"
    },
    {
      "inputs": [],
      "name": "tcRedeemFee",
      "outputs": [
        {
          "internalType": "uint256",
          "name": "",
          "type": "uint256"
        }
      ],
      "stateMutability": "view",
      "type": "function"
    },
    {
      "inputs": [],
      "name": "tcToken",
      "outputs": [
        {
          "internalType": "contract MocTC",
          "name": "",
          "type": "address"
        }
      ],
      "stateMutability": "view",
      "type": "function"
    },
    {
      "inputs": [
        {
          "internalType": "uint256",
          "name": "",
          "type": "uint256"
        }
      ],
      "name": "tpCtarg",
      "outputs": [
        {
          "internalType": "uint256",
          "name": "",
          "type": "uint256"
        }
      ],
      "stateMutability": "view",
      "type": "function"
    },
    {
      "inputs": [
        {
          "internalType": "uint256",
          "name": "",
          "type": "uint256"
        }
      ],
      "name": "tpEma",
      "outputs": [
        {
          "internalType": "uint256",
          "name": "ema",
          "type": "uint256"
        },
        {
          "internalType": "uint256",
          "name": "sf",
          "type": "uint256"
        }
      ],
      "stateMutability": "view",
      "type": "function"
    },
    {
      "inputs": [
        {
          "internalType": "uint256",
          "name": "",
          "type": "uint256"
        }
      ],
      "name": "tpLiqPrices",
      "outputs": [
        {
          "internalType": "uint256",
          "name": "",
          "type": "uint256"
        }
      ],
      "stateMutability": "view",
      "type": "function"
    },
    {
      "inputs": [
        {
          "internalType": "address",
          "name": "",
          "type": "address"
        }
      ],
      "name": "tpMintFees",
      "outputs": [
        {
          "internalType": "uint256",
          "name": "",
          "type": "uint256"
        }
      ],
      "stateMutability": "view",
      "type": "function"
    },
    {
      "inputs": [
        {
          "internalType": "address",
          "name": "",
          "type": "address"
        }
      ],
      "name": "tpRedeemFees",
      "outputs": [
        {
          "internalType": "uint256",
          "name": "",
          "type": "uint256"
        }
      ],
      "stateMutability": "view",
      "type": "function"
    },
    {
      "inputs": [
        {
          "internalType": "uint256",
          "name": "",
          "type": "uint256"
        }
      ],
      "name": "tpTokens",
      "outputs": [
        {
          "internalType": "contract IMocRC20",
          "name": "",
          "type": "address"
        }
      ],
      "stateMutability": "view",
      "type": "function"
    },
    {
      "inputs": [],
      "name": "unpause",
      "outputs": [],
      "stateMutability": "nonpayable",
      "type": "function"
    },
    {
      "inputs": [],
      "name": "updateEmas",
      "outputs": [],
      "stateMutability": "nonpayable",
      "type": "function"
    },
    {
      "inputs": [
        {
          "internalType": "address",
          "name": "newImplementation",
          "type": "address"
        }
      ],
      "name": "upgradeTo",
      "outputs": [],
      "stateMutability": "nonpayable",
      "type": "function"
    },
    {
      "inputs": [
        {
          "internalType": "address",
          "name": "newImplementation",
          "type": "address"
        },
        {
          "internalType": "bytes",
          "name": "data",
          "type": "bytes"
        }
      ],
      "name": "upgradeToAndCall",
      "outputs": [],
      "stateMutability": "payable",
      "type": "function"
    }
  ],
  "bytecode": "0x60a08060405234620000e157306080526000549060ff8260081c166200008f575060ff8082160362000053575b604051613f5a9081620000e78239608051818181611f1601528181612087015261230d0152f35b60ff90811916176000557f7f26b83ff96e1f2b6a682f133852f6798a09c465da95921460cefb3847402498602060405160ff8152a1386200002c565b62461bcd60e51b815260206004820152602760248201527f496e697469616c697a61626c653a20636f6e747261637420697320696e697469604482015266616c697a696e6760c81b6064820152608490fd5b600080fdfe6080604052600436101561001257600080fd5b600060e08135811c90816301dde6ef1461281257816301f1b684146127ca578163073763b9146127a65781630c340a241461277d5781630c36d8971461275e5781630d6ac463146127185781630db49656146126f95781630e0a8fd2146126d55781630f1e5e2b1461268f57816313ed7ba5146126655781631867e2f5146126465781631fe6a7ad1461260c5781632069f753146125e857816323b98cde146125c157816324ffaba31461258357816327eab2a11461253d5781632a20d57d1461251e5781632c43bd3b146124fa5781632d88af4a146124a35781632ded50f014612484578163333431fd1461246557816333421c38146123745781633659cfe6146122db5781633915edcb146122ac5781633bc4ac0a146122885781633cfb09ef146122425781633f4ba83a146121c7578163407f0e34146121a85781634b7460011461215b5781634d977e781461213c5781634e1f907a146121125781634f0f27ee146120f35781634f1ef28614611fff5781635210570c14611fd957816352d1902d14611f03578163543aeb4814611edf5781635860ee6314611ec05781635c975abb14611e9a5781635cfbe57814611e7b57816360009e0b14611e51578163647846a514611e2757816364ec230a14611e03578163662013f414611ddf5781636827435714611db65781636845c44514611bb75781636b5488df14611b985781636f30471f14611b795781637071346814611b55578163735d396014611b0f57816373e28af914611aeb5781637554fffd14611acc5781637622805514611aad5781637750ba0c14611a8957816379f9a91c14611a6a5781637a193c3114611a4b5781637a4ff1d914611a275781637a727fe814611a085781637af5758c146119e45781637b5a17ae146118095781637cba2383146117e55781637d8e0314146117a85781637f01c7151461177e5781637f13b9981461174a5781637f4a4fe01461172b5781638456cb591461169457816385bf95931461164e5781638cfa42411461162f5781638e2bdb86146116055781639853c35a146115db5781639ad6659d146115a15781639cabfc00146115545781639fd0506d14611527578163a8e9ac3014611505578163aea038dc146114e6578163b5e9ea8c146114bc578163b9fa64131461149d578163bb4872de1461147a578163becaca6b14611456578163c00f538d14611432578163c84353c91461140e578163cf351c1d146113c8578163d1a0faa0146113ac578163d6af11da1461136a578163d87aab6f1461134b578163d8db6f5a14611305578163d9b6c2e51461117d578163db79607214610f05578163ddb6d19014610ec7578163e1e121da14610c6b578163e44bb51214610a69578163e4c0aaf414610a24578163e6b1627c146109e1578163e7c25978146109bd578163ee1f438f14610993578163f13f405414610969578163f26114aa1461077a578163f280877814610756578163f30b561414610737578163f375cfba14610718578163f5571e011461057057508063fa6e83bd14610551578063fadda424146104d8578063fda70f8b146104b95763fe6b92c11461049857600080fd5b346104b657806003193601126104b657602061013554604051908152f35b80fd5b50346104b657806003193601126104b657602061013c54604051908152f35b50346104b65760203660031901126104b6576001600160a01b03600435818116810361054c5761051461050c600192613140565b610137612878565b50015416610521816131bf565b9190911561053457602082604051908152f35b60249060405190637f6e4db960e01b82526004820152fd5b600080fd5b50346104b657806003193601126104b657602061013a54604051908152f35b36600319011290506104b6576105873660046128e8565b90610590613467565b50610599613221565b9061061a60018060a01b03916105b183865116613140565b926105d46105bf8587612e01565b51956105cb8787613612565b610149546135cf565b610614602089969396019761060f6105ed828b51613f00565b9761060a6106008c516101345490612f39565b9561013154612ffe565b612ffe565b612f39565b90613f00565b9560408101518088108015610710575b6106f2575061064b82608083015116858460c08501511661013f5492613692565b96919790956060840151808a116106d35750926106828661068c969460a09461067b60016106cf9d9c9b9961392a565b51906139e4565b0151169087613558565b604051948594859293606091959460c09360e086019786526020860152604085015280518285015260208101516080850152604081015160a08501520151910152565b0390f35b604490895160405191630b63f1a760e01b835260048301526024820152fd5b604490886040519163f577bef560e01b835260048301526024820152fd5b50871561062a565b82346104b657806003193601126104b657602061014154604051908152f35b82346104b657806003193601126104b657602061013154604051908152f35b82346104b65760203660031901126104b657610770613e51565b60043561013c5580f35b905034610965573660031901126104b6576004356001600160a01b038181169182900361054c578183526101366020526040832060ff6001604051926107c1604085612894565b8054845201541615801560208301526109175751906024359080821680920361054c576101379060016107f48584612878565b50015416820361089d575b847f6417e5a3c1e0e5dae98b8fe718c4babdfcb35e0d7b5e1b9641b5914756f5d8e36004858761085061083483610148612836565b6044929192359083549060031b91821b91600019901b19161790565b905580855261014460205260643560408620558452610145602052608435604085205561087f8161018e612878565b50600160c435910155610897604051928392836133ff565b0390a180f35b9190926040516359e02dd760e01b8152604081600481885afa90811561095a578691610929575b5015610917577f6417e5a3c1e0e5dae98b8fe718c4babdfcb35e0d7b5e1b9641b5914756f5d8e39360016108fa84600496612878565b5001906001600160601b0360a01b825416179055928192506107ff565b60405163e6c4247b60e01b8152600490fd5b61094b915060403d604011610953575b6109438183612894565b8101906131a5565b9050386108c4565b503d610939565b6040513d88823e3d90fd5b5080fd5b82346104b657806003193601126104b657610130546040516001600160a01b039091168152602090f35b82346104b657806003193601126104b657610152546040516001600160a01b039091168152602090f35b82346104b657806003193601126104b657602060ff61014b54166040519015158152f35b82346104b65760203660031901126104b6576004359061018e9081548310156104b6576040610a108484612878565b506001815491015482519182526020820152f35b82346104b65760203660031901126104b6576004356001600160a01b0381169081900361096557610a53613e51565b6001600160601b0360a01b609754161760975580f35b8260c03660031901126104b65760405190610a8560c083612894565b6001600160a01b0390600435828116810361054c5783526020830160243581526040840192604435845260643590808216820361054c5760608601918252608435818116810361054c576080870190815260a43594828616860361054c5760a08801958652610af2613467565b50610b0783610aff613221565b995116613140565b91610b2a610b15848b612e01565b5199610b218b86613612565b61014a546135cf565b99610b4188519b610b3b8388613c5c565b93613663565b91670de0b6b3a763ffff198101908111610c575781610b63610b68928e612f39565b612f4c565b98670de0b6b3a764000092838b02908b820485148c151715610c4157610b8d91612f4c565b9b838102938185041490151715610c4157610bd89787610bbb610bb4610bcd958397612f4c565b809d612e15565b98899251169251166101425492613692565b989187989198612e15565b9951808b11610c2357508915610c1157610c0761068c96610bfc866106cf9c61392a565b83855116908d613558565b519151169261348e565b60405163f3e39b5d60e01b8152600490fd5b6044908b60405191630b63f1a760e01b835260048301526024820152fd5b634e487b7160e01b600052601160045260246000fd5b634e487b7160e01b85526011600452602485fd5b905061010080600319360112610ec357610c886040519182612894565b6004356001600160a01b038116810361054c5781526024356001600160a01b038116810361054c57602082019081526044356040830152606082019360643585526080830191608435835260a4359460018060a01b038616860361054c5760a0850195865260c4356001600160a01b038116810361054c5760c086015260e435906001600160a01b038216820361054c578501908152610d26613467565b50845182516001600160a01b03908116911614610eb1578451610d6590610d55906001600160a01b0316613140565b92516001600160a01b0316613140565b95610d6f83613169565b90610d7988613169565b610d838386613612565b610d8d818a613612565b610d9b8360408a0151613f00565b92610dae81610b638460408d0151612f39565b9a51808c108015610ea9575b610e8b5750908a8a610e0196959493610ddd610dd68584613c5c565b918a613c5c565b10610e5c575b50509051925161013e54936001600160a01b03918216925016613692565b959196909451808811610e3d57509160408492610e3561068c956106cf9998978c60018060a01b0360c0860151169261348e565b0151906139e4565b604490875160405191630b63f1a760e01b835260048301526024820152fd5b610e7b610e8393610e6b613dbd565b610e73613cff565b8193916135cf565b949093613acf565b388a8a610de3565b6044908c6040519163272e3f5960e21b835260048301526024820152fd5b508b15610dba565b604051632a9ffab760e21b8152600490fd5b8280fd5b82346104b65760203660031901126104b6576004356001600160a01b0381169081900361054c57816040916020935261014583522054604051908152f35b905034610965573660031901126104b6576004356001600160a01b038181169182900361054c576024803582811680910361054c578385526101369360209085825260019260ff8460408a2001541661116b576101359586549785604051610f6e604082612894565b8a815286810192828452868d52875260408c2090518155019051151560ff801983541691161790558654600160401b97888210156111585790610fb5918782018155612836565b81549060031b908386831b921b1916179055604051610fd5604082612894565b898152848101928352610137805490898210156111455790610ffb918882018155612878565b91909161113257908691518155019151166001600160601b0360a01b82541617905561102b604435610148613055565b8087526101448252606435604088205586526101458152608435604087205560405190611059604083612894565b60a4358252810160c435815261018e8054908682101561111f5790611082918582018155612878565b92909261110c5790839151835551910155610150918254938410156110fa5750827f6417e5a3c1e0e5dae98b8fe718c4babdfcb35e0d7b5e1b9641b5914756f5d8e394926110d592600495018155612836565b50506110eb6110e382613169565b610151613055565b610897604051928392836133ff565b634e487b7160e01b8652604160045285fd5b634e487b7160e01b885260048890528488fd5b634e487b7160e01b895260416004528589fd5b634e487b7160e01b8b5260048b9052878bfd5b634e487b7160e01b8c526041600452888cfd5b634e487b7160e01b8b526041600452878bfd5b604051633458f6c560e01b8152600490fd5b36600319011290506104b6576111943660046128e8565b9061119d613467565b506111a6613dbd565b6111ae613cff565b929060018060a01b03926111c484845116613140565b906111e46111d28388612e01565b51966111de8885613612565b846135cf565b602086979297019687516111f9838389613c14565b8181106112e757505090611225918851670de0b6b3a764000093849161121f8585613663565b90612f39565b04968715610c11576112619361125861124e8d61060f8e5161121f8861060a8b61013154612ffe565b6101345490612f4c565b049a8b88613acf565b60408501518088106112c9575061128a81608087015116858360c0890151166101405492613692565b96919790956060830151808a116106d357509260a085936112c0858d956112ba61068c9a6106cf9e9d9c9a61392a565b51613a6e565b0151169261348e565b604490886040519163272e3f5960e21b835260048301526024820152fd5b604492506040519163a5db715d60e01b835260048301526024820152fd5b82346104b65760203660031901126104b6576004356001600160a01b0381169081900361054c57611334613e51565b61015280546001600160a01b031916909117905580f35b82346104b657806003193601126104b657602061015554604051908152f35b82346104b657806003193601126104b65760206113a461138a600161325b565b61139e6113978284612f6c565b9183612eb0565b916132a2565b604051908152f35b82346104b657806003193601126104b6576113c5613dbd565b80f35b82346104b65760203660031901126104b6576004356001600160a01b0381169081900361054c576113f7613e51565b61012f80546001600160a01b031916909117905580f35b82346104b65760203660031901126104b657611428613e51565b60043561014c5580f35b82346104b65760203660031901126104b65761144c613e51565b60043561013d5580f35b82346104b65760203660031901126104b657611470613e51565b6004356101395580f35b82346104b657806003193601126104b657602060ff60ca54166040519015158152f35b82346104b657806003193601126104b657602061015b54604051908152f35b82346104b657806003193601126104b657610153546040516001600160a01b039091168152602090f35b82346104b657806003193601126104b657602061013d54604051908152f35b82346104b657806003193601126104b657602061018f54431015604051908152f35b82346104b657806003193601126104b65760ca5460405160109190911c6001600160a01b03168152602090f35b82346104b65760203660031901126104b6576004356001600160a01b0381169081900361054c57604082819281526101366020522060ff6001825492015416825191825215156020820152f35b82346104b657806003193601126104b65760206115cd6115c76115c2613221565b612e22565b90612fe0565b61014a541015604051908152f35b82346104b657806003193601126104b657610146546040516001600160a01b039091168152602090f35b82346104b657806003193601126104b657610158546040516001600160a01b039091168152602090f35b82346104b657806003193601126104b657602061014a54604051908152f35b82346104b65760203660031901126104b6576004356001600160a01b0381169081900361054c5761167d613e51565b61015380546001600160a01b031916909117905580f35b82346104b657806003193601126104b6576116ad613edf565b60ca54601081901c6001600160a01b031633036117195760ff811615611707576101009061ff0019161760ca557f62e78cea01bee320cd4e420270b5ea74000d11b0c9f74754ebdbfc544b05a2586020604051338152a180f35b60405163866099c360e01b8152600490fd5b604051631d77d47760e21b8152600490fd5b82346104b657806003193601126104b657602061015a54604051908152f35b82346104b657806003193601126104b65760206113a461176a600161325b565b61139e6117778284612eb0565b9183612f6c565b82346104b657806003193601126104b6576101c3546040516001600160a01b039091168152602090f35b82346104b65760203660031901126104b657600435906101489081548310156104b65760206117d78484612836565b90546040519160031b1c8152f35b82346104b65760203660031901126104b6576117ff613e51565b6004356101495580f35b36600319011290506104b6576118203660046128e8565b611828613467565b50611831613dbd565b611839613cff565b82516001600160a01b0393929190611852908516613140565b61186b61185f8284612e01565b5192610b218484613612565b9590936118788786612fe0565b90808210156119dd57505b61188d8484613c5c565b808210156119d657505b60208601906118a7858351612f39565b906118b28988613663565b670de0b6b3a763ffff1982019182116119c2576118d3929161061491612f39565b9660408701518089116119a457506118ed90825196613663565b94670de0b6b3a7640000948589029089820487148a151715610c415761191291612f4c565b908115610c115761193661195b9661192f60609961195094612f39565b0483612e15565b93848160808b0151169160c08b0151166101415492613692565b979185979197612ffe565b9701518088106119865750926119818899936106cf9899936112ba600161068c9861392a565b6139e4565b60449088604051916354cde31360e01b835260048301526024820152fd5b6044908960405191637a031da360e11b835260048301526024820152fd5b634e487b7160e01b8b52601160045260248bfd5b9050611897565b9050611883565b82346104b65760203660031901126104b6576119fe613e51565b6004356101405580f35b82346104b657806003193601126104b657602061019054604051908152f35b82346104b65760203660031901126104b657611a41613e51565b6004356101415580f35b82346104b657806003193601126104b657602061013454604051908152f35b82346104b657806003193601126104b657602061014254604051908152f35b82346104b65760203660031901126104b657611aa3613e51565b60043561013b5580f35b82346104b657806003193601126104b657602061015654604051908152f35b82346104b657806003193601126104b657602061013954604051908152f35b82346104b65760203660031901126104b657611b05613e51565b6004356101545580f35b82346104b65760203660031901126104b6576004356001600160a01b0381169081900361054c57611b3e613e51565b61015880546001600160a01b031916909117905580f35b82346104b65760203660031901126104b657611b6f613e51565b60043561013e5580f35b82346104b657806003193601126104b657602061015454604051908152f35b82346104b657806003193601126104b657602061014954604051908152f35b82346104b65760803660031901126104b6576004356001600160a01b03818116929083830361054c576024358181169182820361054c5760443581811680910361054c576064359560ff61014b5460081c1615611da457611c1790613140565b90611c2482610135612836565b95905498604051966370a0823160e01b8852826004890152876024818860209e8f9560031b1c165afa968715611d99578897611d6a575b508615611d4c57611c7e611c7185610138612836565b90549060031b1c88613f00565b98898110611d42575b5090611cc69392917ffaab3901cd2d6e9b5d0a0c6e34c643b8c844726f3c54de69517e571bf24bbd9260408c8c8251918c8352820152a4610135612836565b90549060031b1c1690813b15611d3e57604051632770a7eb60e21b81526001600160a01b03919091166004820152602481019290925282908290604490829084905af18015611d3357611d1e575b5050604051908152f35b611d29828092612894565b6104b65780611d14565b6040513d84823e3d90fd5b8380fd5b9850611cc6611c87565b60448760405190633fe8c5eb60e01b82528060048301526024820152fd5b9096508981813d8311611d92575b611d828183612894565b8101031261054c5751958a611c5b565b503d611d78565b6040513d8a823e3d90fd5b60405163031b0d3560e11b8152600490fd5b82346104b657806003193601126104b657611dcf613e51565b600160ff1960ca54161760ca5580f35b82346104b657806003193601126104b6576020611dfa613cff565b50604051908152f35b82346104b65760203660031901126104b657611e1d613e51565b6004356101595580f35b82346104b657806003193601126104b65761012f546040516001600160a01b039091168152602090f35b82346104b657806003193601126104b657610133546040516001600160a01b039091168152602090f35b82346104b657806003193601126104b657602061014e54604051908152f35b82346104b657806003193601126104b657602060ff60ca5460081c166040519015158152f35b82346104b657806003193601126104b657602061015754604051908152f35b82346104b65760203660031901126104b657611ef9613e51565b6004356101435580f35b82346104b657806003193601126104b6577f00000000000000000000000000000000000000000000000000000000000000006001600160a01b03163003611f6e5760206040517f360894a13ba1a3210667c828492db98dca3e2076cc3735a920a3ca505d382bbc8152f35b60405162461bcd60e51b815260206004820152603860248201527f555550535570677261646561626c653a206d757374206e6f742062652063616c60448201527f6c6564207468726f7567682064656c656761746563616c6c00000000000000006064820152608490fd5b82346104b657806003193601126104b657611ff2613e51565b60ff1960ca541660ca5580f35b8260403660031901126104b6576001600160a01b03600435818116810361054c5782916024359167ffffffffffffffff83116120ee57366023840112156120ee57826004013561204e816128cc565b9261205c6040519485612894565b81845236602483870101116120ea576113c5956020836120dd946024600199018389013786010152807f000000000000000000000000000000000000000000000000000000000000000016906120b482301415612960565b7f360894a13ba1a3210667c828492db98dca3e2076cc3735a920a3ca505d382bbc5416146129c1565b6120e5613e51565b612a22565b8580fd5b505050fd5b82346104b657806003193601126104b657602061013b54604051908152f35b82346104b657806003193601126104b657610147546040516001600160a01b039091168152602090f35b82346104b657806003193601126104b657602061014c54604051908152f35b82346104b65760203660031901126104b657600435906101379081548310156104b657604061218a8484612878565b50805460019091015482519182526001600160a01b03166020820152f35b82346104b657806003193601126104b657602061013e54604051908152f35b82346104b657806003193601126104b65760ca5460ff8160081c161561223057601081901c6001600160a01b031633036117195761ff00191660ca557f5db9ee0a495bf2e6ff9c91a7834c1ba4fdd244a5e8aa4e537bd38aeae4b073aa6020604051338152a180f35b604051637c7fd07960e01b8152600490fd5b82346104b65760203660031901126104b6576004356001600160a01b0381169081900361054c57612271613e51565b61014f80546001600160a01b031916909117905580f35b82346104b65760203660031901126104b6576122a2613e51565b6004356101905580f35b82346104b65760203660031901126104b657600435906101389081548310156104b65760206117d78484612836565b82346104b65760203660031901126104b6576004356001600160a01b03808216820361054c576113c59161233a8285937f000000000000000000000000000000000000000000000000000000000000000016906120b482301415612960565b612342613e51565b61234b826128cc565b906123596040519283612894565b828252601f19612368846128cc565b01366020840137612a22565b82346104b657806003193601126104b65761238d613edf565b61014b805460ff811680612457575b8061243d575b6123aa578280f35b61ff0019166101001790556040517f8b77276c97a5709f0d6db52329848a254eb760ce8be80d281799f633bdb69e838280a16101335482906001600160a01b0316803b156109655782600481848094638456cb5960e01b83525af1801561243057612420575b505061241a613092565b81808280f35b61242991612894565b8181612410565b50604051903d90823e3d90fd5b5061244c6115c76115c2613221565b61014a5410156123a2565b5060ff8160081c161561239c565b82346104b657806003193601126104b657602061013f54604051908152f35b82346104b657806003193601126104b657602061014354604051908152f35b82346104b65760203660031901126104b6576004356001600160a01b0381168103610965576124d0613e51565b60ca805462010000600160b01b03191660109290921b62010000600160b01b031691909117905580f35b82346104b65760203660031901126104b657612514613e51565b60043561014a5580f35b82346104b657806003193601126104b657602061014054604051908152f35b82346104b65760203660031901126104b6576004356001600160a01b038116908190036109655761256c613e51565b61014780546001600160a01b031916909117905580f35b82346104b65760203660031901126104b6576004356001600160a01b0381169081900361096557816040916020935261014483522054604051908152f35b82346104b657806003193601126104b657602060ff61014b5460081c166040519015158152f35b82346104b65760203660031901126104b657612602613e51565b6004356101425580f35b82346104b65760203660031901126104b65760043580151580910361096557612633613e51565b61014b9060ff8019835416911617905580f35b82346104b657806003193601126104b657602061014d54604051908152f35b82346104b657806003193601126104b65761014f546040516001600160a01b039091168152602090f35b82346104b65760203660031901126104b6576004356001600160a01b03811690819003610965576126be613e51565b61013080546001600160a01b031916909117905580f35b82346104b65760203660031901126104b6576126ef613e51565b60043561013f5580f35b82346104b657806003193601126104b657602061015954604051908152f35b82346104b65760203660031901126104b6576004356001600160a01b0381169081900361096557612747613e51565b61014680546001600160a01b031916909117905580f35b82346104b657806003193601126104b657602061018f54604051908152f35b82346104b657806003193601126104b6576097546040516001600160a01b039091168152602090f35b82346104b65760203660031901126104b6576127c0613e51565b60043561015a5580f35b82346104b65760203660031901126104b657600435906101359081548310156104b65760206127f98484612836565b905460405160039290921b1c6001600160a01b03168152f35b82346104b65760203660031901126104b65761282c613e51565b60043561013a5580f35b805482101561284e5760005260206000200190600090565b634e487b7160e01b600052603260045260246000fd5b35906001600160a01b038216820361054c57565b805482101561284e5760005260206000209060011b0190600090565b90601f8019910116810190811067ffffffffffffffff8211176128b657604052565b634e487b7160e01b600052604160045260246000fd5b67ffffffffffffffff81116128b657601f01601f191660200190565b91908260e091031261054c5760405161290260e082612894565b60c061295b81839561291381612864565b855260208101356020860152604081013560408601526060810135606086015261293f60808201612864565b608086015261295060a08201612864565b60a086015201612864565b910152565b1561296757565b60405162461bcd60e51b815260206004820152602c60248201527f46756e6374696f6e206d7573742062652063616c6c6564207468726f7567682060448201526b19195b1959d85d1958d85b1b60a21b6064820152608490fd5b156129c857565b60405162461bcd60e51b815260206004820152602c60248201527f46756e6374696f6e206d7573742062652063616c6c6564207468726f7567682060448201526b6163746976652070726f787960a01b6064820152608490fd5b909160ff7f4910fdfa16fed3260ed0e7147f7cc6da11a60208b5b9406d12a635614ffd91435416600014612a5d5750612a5b9150612c8b565b565b604080516352d1902d60e01b8152602094919392906001600160a01b038416908681600481855afa60009181612c5c575b50612aee57855162461bcd60e51b815260048101889052602e60248201527f45524331393637557067726164653a206e657720696d706c656d656e7461746960448201526d6f6e206973206e6f74205555505360901b6064820152608490fd5b9395929492937fc9f76b5ec45e5cdef99837d7b6d2467235c1df8933c8ca56df5c35afa2c7d44401612c0657612b2386612c8b565b7fbc7cd75a20ee27fd9adebab32041f755214dbc6bffa90cc0225b39da2e5c2d3b600080a283511590811591612bfe575b50612b60575b50505050565b612bea93600080612b7160276128cc565b95612b7e85519788612894565b602787527f416464726573733a206c6f772d6c6576656c2064656c65676174652063616c6c86880152660819985a5b195960ca1b858801528581519101845af4913d15612bf4573d612bdb612bd2826128cc565b92519283612894565b8152600081943d92013e612d2d565b5038808080612b5a565b5060609250612d2d565b905038612b54565b825162461bcd60e51b815260048101859052602960248201527f45524331393637557067726164653a20756e737570706f727465642070726f786044820152681a58589b195555525160ba1b6064820152608490fd5b90918882813d8311612c84575b612c738183612894565b810103126104b65750519038612a8e565b503d612c69565b803b15612cd2577f360894a13ba1a3210667c828492db98dca3e2076cc3735a920a3ca505d382bbc80546001600160a01b0319166001600160a01b03909216919091179055565b60405162461bcd60e51b815260206004820152602d60248201527f455243313936373a206e657720696d706c656d656e746174696f6e206973206e60448201526c1bdd08184818dbdb9d1c9858dd609a1b6064820152608490fd5b91929015612d8f5750815115612d41575090565b3b15612d4a5790565b60405162461bcd60e51b815260206004820152601d60248201527f416464726573733a2063616c6c20746f206e6f6e2d636f6e74726163740000006044820152606490fd5b825190915015612da25750805190602001fd5b6040519062461bcd60e51b82528160208060048301528251908160248401526000935b828510612de8575050604492506000838284010152601f80199101168101030190fd5b8481018201518686016044015293810193859350612dc5565b805182101561284e5760209160051b010190565b91908201809211610c4157565b906000916000906101378054906000925b828410612e595750505050612e55670de0b6b3a7640000916101395490612f39565b0490565b9091929395612ea6612e95612ea0600193612e9a612e778a88612e01565b51612e82818c612ecc565b9590612e8e8d8c612878565b5054612e15565b613f00565b90612e15565b98612e15565b9401929190612e33565b91909160008382019384129112908015821691151617610c4157565b9190600090612efa81600095612ef0612ee782610150612836565b93905492612f85565b9160031b1c612eb0565b60008113612f09575b50509190565b612f31919450612f2b92508094670de0b6b3a764000093849161013a54612f39565b04612f39565b043880612f03565b81810292918115918404141715610c4157565b8115612f56570490565b634e487b7160e01b600052601260045260246000fd5b81810392916000138015828513169184121617610c4157565b612f9181610137612878565b505490670de0b6b3a764000091828102928184041490151715610c4157612fdd92612fd1612fc4612fd793610151612836565b90549060031b1c84612f4c565b92612f4c565b90612f6c565b90565b8015612ff657612e95612fdd9261013154612ffe565b505060001990565b91908203918211610c4157565b67ffffffffffffffff81116128b65760051b60200190565b9061302d8261300b565b61303a6040519182612894565b828152809261304b601f199161300b565b0190602036910137565b805490600160401b8210156128b6578161307791600161308e94018155612836565b819391549060031b91821b91600019901b19161790565b9055565b61013154801561313d57610137908154916000906130af84613023565b9082905b8582106130f957505060005b8481106130cd575050505050565b806130f36130eb86610b63876130e560019789612e01565b51612f39565b610138613055565b016130bf565b909261313560019161310a86613169565b6131148787612e01565b52612e9a6131228786612878565b505461312e8888612e01565b5190613f00565b9301906130b3565b50565b6001600160a01b0316600090815261013660205260409020600181015460ff1615610917575490565b61317590610137612878565b50600101546001600160a01b031661318c816131bf565b91909115610534575090565b5190811515820361054c57565b919082604091031261054c57612fdd602083519301613198565b604080516359e02dd760e01b81529291839060049082906001600160a01b03165afa9182156132155760009081936131f657509190565b905061321191925060403d8111610953576109438183612894565b9091565b6040513d6000823e3d90fd5b610137549061322f82613023565b9160005b81811061323e575050565b8061324a600192613169565b6132548287612e01565b5201613233565b9061327c670de0b6b3a7640000928361015754610154549243010302612f4c565b828110156132995782039180836101555402049261015654020590565b50600091508190565b90916132ac613304565b9290808210156132fa5783916132c191612ffe565b9311156132f557818110156132ed576132d991612ffe565b60011c808210156132e8575090565b905090565b505050600090565b505090565b5050505050600090565b61015254604080516359e02dd760e01b80825293929091906001600160a01b039081168284600481845afa80156133f45760009485916133d1575b50156133ba575061015354169080519485528085600481855afa80156133af57600095869161338c575b50156133755750509190565b6024925051906305e8989360e11b82526004820152fd5b9050816133a69296503d8711610953576109438183612894565b94909438613369565b50513d6000823e3d90fd5b6024908351906305e8989360e11b82526004820152fd5b90506133eb919450833d8511610953576109438183612894565b9390933861333f565b83513d6000823e3d90fd5b9081526101008101929160e09060c0906001600160a01b038061342183612864565b16602086015261343360208301612864565b1660408501526040810135606085015260608101356080850152608081013560a085015260a0810135828501520135910152565b60405190613476608083612894565b60006060838281528260208201528260408201520152565b613506936134cd6000926020956134a782610137612878565b506134b3878254612e15565b90556134c3610131918254612e15565b9055610135612836565b90546040516340c10f1960e01b81526001600160a01b039093166004840152602483019490945290948593928492909183906044820190565b039360039190911b1c6001600160a01b03165af18015613215576135275750565b6020813d8211613550575b8161353f60209383612894565b8101031261054c5761313d90613198565b3d9150613532565b6135be9260209261013461356d848254612e15565b905561357d610131918254612e15565b9055610133546040516340c10f1960e01b81526001600160a01b03928316600482015260248101939093529193849290911690829060009082906044820190565b03925af18015613215576135275750565b91906135da90612e22565b9190926135e78385612fe0565b90808211156135f4575050565b6044925060405191637912120160e01b835260048301526024820152fd5b61307761308e916136238482612f85565b61365961363283610150612836565b6136458294925492838360031b1c612eb0565b919060031b91821b91600019901b19161790565b9055610151612836565b906101345490811561368357612fdd9261060a612e959261013154612ffe565b505050670de0b6b3a764000090565b9290939160009160009182966136a6613467565b966001600160a01b039185908316806138b2575b508261012f54168360405193636eb1769f60e11b8552168060048501523060248501526020948585604481865afa9485156138a7578495613878575b5084613757575b505050505086015115613713575b505050929190565b9091925061372b670de0b6b3a7640000928392612f39565b0480855290821561374f57613747920490816040860152612e15565b38808061370b565b509050613747565b6137659061013054166131bf565b929092156136fd57909192939b50848b61379f85670de0b6b3a764000061379961378f8d8d612f39565b6101435490612f39565b04612f4c565b81830181815295908b1561386e57506137ca916137be6060928d612f4c565b91829101528551612e15565b809d5b109283156137f9575b5050506137e6575b8080806136fd565b81929950528060608801529638806137de565b909192506024604051809481936370a0823160e01b835260048301525afa90811561386357908b918491613832575b50103884816137d6565b809250858092503d831161385c575b61384b8183612894565b81010312610ec3578a905138613828565b503d613841565b6040513d85823e3d90fd5b915050809d6137cd565b9094508581813d83116138a0575b6138908183612894565b81010312611d3e575193386136f6565b503d613886565b6040513d86823e3d90fd5b9095506020836101c35416916024604051809481936364a731e960e01b835260048301525afa801561095a5786906138f7575b6138f0915084612f39565b94386136ba565b506020813d8211613922575b8161391060209383612894565b810103126120ea576138f090516138e5565b3d9150613903565b80613933613304565b919093613940600061325b565b94019382916139d8575b01938460008082126139d257505b84039181851161399a57505081811161397c57505061015555610156554361015755565b60449250604051916306da41e560e11b835260048301526024820152fd5b90808592116139c057604491604051916306da41e560e11b835260048301526024820152fd5b604051630fb4fd3560e11b8152600490fd5b03613958565b9050816000039061394a565b613a1191926139f582610137612878565b50613a01858254612ffe565b90556134c3610131918254612ffe565b905460039190911b1c6001600160a01b0316803b1561054c57604051632770a7eb60e21b815230600482015260248101929092526000908290818381604481015b03925af1801561321557613a635750565b6000612a5b91612894565b90610134613a7d838254612ffe565b9055613a8d610131918254612ffe565b9055610133546001600160a01b0316803b1561054c57604051632770a7eb60e21b81523060048201526024810192909252600090829081838160448101613a52565b92613ae183613ae79694939795613c5c565b90613b10565b818110613af2575050565b604492506040519163c39b739f60e01b835260048301526024820152fd5b92613b1d92949193613bdd565b60009281810291600160ff1b9185821283821416613bc9578184051490151715613bb557670de0b6b3a763ffff198301928311613bb557670de0b6b3a764000092838102938185041490151715613bb5578215613ba1578114600019831416613b8d5705908082126132e8575090565b634e487b7160e01b83526011600452602483fd5b634e487b7160e01b84526012600452602484fd5b634e487b7160e01b84526011600452602484fd5b634e487b7160e01b86526011600452602486fd5b9091613bec9061013154612ffe565b90670de0b6b3a764000091828102928184041490151715610c4157612fdd92612fd791612f39565b8282613c1f92613bdd565b9060008213156132ed57612fdd92613c3691613663565b90612f4c565b90604051613c4b604082612894565b602060018294805484520154910152565b613c6881610148612836565b90549060031b1c9161018e91613c7e8184612878565b50549261018f54431015613ca4575b5050808210156132f557610b6390612fdd93612f39565b829350613cb8613cc39392613cbe92612878565b50613c3c565b613ccb565b903880613c8d565b602081519101805192670de0b6b3a764000093840390848211610c4157613cf8612e9a92612e5595612f39565b9251612f39565b60008061013791825492613d1284613023565b9382915b818310613d3f575050508115613d335790613d3091612f4c565b91565b50506101495460011b91565b90919392613d4c85613169565b9081613d588789612e01565b52613d71613d668388612ecc565b50612e8e8886612878565b670de0b6b3a764000090818102918183041490151715610c4157613dae613db492612e9a85613da560019761060f96613f00565b9485918c613c5c565b95612e15565b94019190613d16565b61018f8054431015613dcc5750565b6101375460005b818110613de65750506101905443019055565b80807f19156e9379c7bbbce8f646ce5ee30ba860b8f954717405f3d5859a6c1a21ae6060019361018e613e1c613cb88383612878565b90613e3a613e32613e2c85613169565b84613ccb565b938492612878565b50555160409182519182526020820152a201613dd3565b60975460405163d994d6d560e01b815233600482015290602090829060249082906001600160a01b03165afa90811561321557600091613ea6575b5015613e9457565b604051631dd1b1b560e21b8152600490fd5b906020823d8211613ed7575b81613ebf60209383612894565b810103126104b65750613ed190613198565b38613e8c565b3d9150613eb2565b60ff60ca5460081c16613eee57565b60405163783bb6c960e11b8152600490fd5b90670de0b6b3a764000091828102928184041490151715610c4157612fdd91612f4c56fea26469706673582212208f21129f36b838e76af9b4d9e5fdaada55e8e8706a7792f1ab77c741b77c236964736f6c63430008140033",
  "linkReferences": {},
  "deployedLinkReferences": {},
  "devdoc": {
    "details": "IMPORTANT NOTES:  1. MocCore and MocCoreExpansion must have always the same storage layout to avoid collisions  2. Because MocCore is upgradeable and delegates calls to MocCoreExpansion, it cannot be upgradeable because      a proxy contract cannot delegate calls to another proxy contract. So, for any MocCoreExpansion upgrade      you must deploy a new implementation and set it to MocCore.",
    "events": {
      "AdminChanged(address,address)": {
        "details": "Emitted when the admin account has changed."
      },
      "BeaconUpgraded(address)": {
        "details": "Emitted when the beacon is changed."
      },
      "Initialized(uint8)": {
        "details": "Triggered when the contract has been initialized or reinitialized."
      },
      "Upgraded(address)": {
        "details": "Emitted when the implementation is upgraded."
      }
    },
    "kind": "dev",
    "methods": {
      "addPeggedToken((address,address,uint256,uint256,uint256,uint256,uint256))": {
        "details": "Note that the ema value, should consider `nextEmaCalculation`  This function is called by MocCore contract using it's context with delegate call  Checks done there:  -  onlyAuthorizedChanger: the caller must have governance authorization.tpTokenAddress Pegged Token contract address to add      priceProviderAddress Pegged Token price provider contract address      tpCtarg Pegged Token target coverage [PREC]      tpMintFee additional fee pct applied on mint [PREC]      tpRedeemFee additional fee pct applied on redeem [PREC]      tpEma initial Pegged Token exponential moving average [PREC]      tpEmaSf Pegged Token smoothing factor [PREC]  Requirements:  - tpTokenAddress must be a MocRC20, with mint, burn roles already settled  for this contract",
        "params": {
          "peggedTokenParams_": "params of Pegged Token to add"
        }
      },
      "calcCtargemaCA()": {
        "details": "qAC = nTP / pACtp      ctargemaCA = (ctargemaTP * qAC) / (qAC)",
        "returns": {
          "ctargemaCA": "[PREC]"
        }
      },
      "changeGovernor(address)": {
        "params": {
          "newGovernor_": "New governor address"
        }
      },
      "constructor": {
        "custom:oz-upgrades-unsafe-allow": "constructor"
      },
      "editPeggedToken((address,address,uint256,uint256,uint256,uint256,uint256))": {
        "details": "Note that the ema value, should consider `nextEmaCalculation`  This function is called by MocCore contract using it's context with delegate call  Checks done there:  -  onlyAuthorizedChanger: the caller must have governance authorization.tpTokenAddress Pegged Token contract address to identify the token to edit      priceProviderAddress Pegged Token price provider contract address      tpCtarg Pegged Token target coverage [PREC]      tpMintFee additional fee pct applied on mint [PREC]      tpRedeemFee additional fee pct applied on redeem [PREC]      tpEma initial Pegged Token exponential moving average [PREC]      tpEmaSf Pegged Token smoothing factor [PREC]  Requirements: - the tpTokenAddress must exists",
        "params": {
          "peggedTokenParams_": "params of Pegged Token to add"
        }
      },
      "getPACtp(address)": {
        "params": {
          "tp_": "Pegged Token address"
        },
        "returns": {
          "_0": "price [PREC]"
        }
      },
      "isLiquidationReached()": {
        "returns": {
          "_0": "true if liquidation state is reached, false otherwise"
        }
      },
      "liqRedeemTPTo(address,address,address,uint256)": {
        "details": "This function is called by MocCore contract using it's context with delegate call  The equivalent AC given the liquidation frozen price(qACRedeemed) is transferred  to the `recipient_` by MocCore contract  Checks done there:  -  notPaused: the contract must be unpaused",
        "params": {
          "recipient_": "address who receives the AC",
          "sender_": "address owner of the TP to be redeemed",
          "tp_": "Pegged Token address"
        },
        "returns": {
          "qACRedeemed": "amount of AC sent to `recipient_`"
        }
      },
      "makeStoppable()": {
        "details": "Should be called through governance"
      },
      "makeUnstoppable()": {
        "details": "Should be called through governance"
      },
      "maxQACToMintTP()": {
        "returns": {
          "maxQAC": "minimum regarding maxAbsoluteOperation and maxOperationalDifference"
        }
      },
      "maxQACToRedeemTP()": {
        "returns": {
          "maxQAC": "minimum regarding maxAbsoluteOperation and maxOperationalDifference"
        }
      },
      "mintTCandTPto((address,uint256,uint256,address,address,address))": {
        "details": "i_ Pegged Token index      qTP_ amount of Pegged Token to mint      qACmax_ maximum amount of Collateral Asset that can be spent      sender_ address who sends Collateral Asset      recipient_ address who receives the Collateral Token and Pegged Token      vendor_ address who receives a markup. If its address(0) no markup is applied",
        "params": {
          "params_": "mint TC and TP function parameters"
        },
        "returns": {
          "feeCalcs": "platform fee detail breakdown",
          "qACtotalNeeded": "amount of AC used to mint Collateral Token and Pegged Token",
          "qFeeTokenTotalNeeded": "amount of Fee Token used by `sender_` to pay fees. 0 if qAC is used instead",
          "qTCtoMint": "amount of Collateral Token minted"
        }
      },
      "pause()": {
        "details": "Should only be called by the pauser and when it is stoppable"
      },
      "proxiableUUID()": {
        "details": "Implementation of the ERC1822 {proxiableUUID} function. This returns the storage slot used by the implementation. It is used to validate the implementation's compatibility when performing an upgrade. IMPORTANT: A proxy pointing at a proxiable contract should not be considered proxiable itself, because this risks bricking a proxy that upgrades to it, by delegating to itself until out of gas. Thus it is critical that this function revert if invoked through a proxy. This is guaranteed by the `notDelegated` modifier."
      },
      "redeemTCandTPto((address,uint256,uint256,uint256,address,address,address))": {
        "details": "i_ Pegged Token index      qTC_ amount of Collateral Token to redeem      qTP_ maximum amount of Pegged Token to redeem      qACmin_ minimum amount of Collateral Asset that `recipient_` expects to receive      sender_ address who sends Collateral Token and Pegged Token      recipient_ address who receives the Collateral Asset      vendor_ address who receives a markup. If its address(0) no markup is applied",
        "params": {
          "params_": "redeem TC and TP function parameters"
        },
        "returns": {
          "feeCalcs": "platform fee detail breakdown",
          "qACtoRedeem": "amount of AC sent to `recipient_`",
          "qFeeTokenTotalNeeded": "amount of Fee Token used by `sender_` to pay fees. 0 if qAC is used instead",
          "qTPtoRedeem": "amount of Pegged Token redeemed"
        }
      },
      "setAppreciationFactor(uint256)": {
        "details": "sets appreciation Factor value.",
        "params": {
          "appreciationFactor_": "pct of the gain because Pegged Tokens devaluation that is returned in Pegged Tokens to appreciation beneficiary during the settlement [PREC]"
        }
      },
      "setBes(uint256)": {
        "details": "bns is not automatically updated, you have to wait until next settlement to be made : bns = block.number + bes*",
        "params": {
          "bes_": "number of blocks between settlements"
        }
      },
      "setDecayBlockSpan(uint256)": {
        "details": "sets flux capacitor decay block span",
        "params": {
          "decayBlockSpan_": "flux capacitor decay block span"
        }
      },
      "setEmaCalculationBlockSpan(uint256)": {
        "details": "nextEmaCalculation is not automatically updated, you have to wait until next  EMA calculation to be made : nextEmaCalculation = block.number + emaCalculationBlockSpan*",
        "params": {
          "blockSpan_": "Defines how many blocks should pass between EMA calculations"
        }
      },
      "setFeeRetainer(uint256)": {
        "details": "sets the fee pct to be retainer on AC fees payments as AC re-injection.",
        "params": {
          "feeRetainer_": "pct retain on fees to be re-injected as Collateral, while paying fees with AC [PREC] 0% = 0; 1% = 10 ** 16; 100% = 10 ** 18"
        }
      },
      "setFeeTokenAddress(address)": {
        "details": "sets Fee Token contract address",
        "params": {
          "mocFeeTokenAddress_": "Fee Token new contract address"
        }
      },
      "setFeeTokenPct(uint256)": {
        "details": "sets the fee applied on the top of the operation`s fee when using Fee Token as fee payment method.",
        "params": {
          "feeTokenPct_": "pct applied on the top of the operation`s fee when using Fee Token  as fee payment method [PREC]  e.g. if tcMintFee = 1%, FeeTokenPct = 50% => qFeeToken = 0.5%  0% = 0; 1% = 10 ** 16; 100% = 10 ** 18"
        }
      },
      "setFeeTokenPriceProviderAddress(address)": {
        "details": "sets Fee Token price provider contract address",
        "params": {
          "mocFeeTokenPriceProviderAddress_": "Fee Token price provider new contract address"
        }
      },
      "setLiqEnabled(bool)": {
        "details": "enables and disables the liquidation mechanism.",
        "params": {
          "liqEnabled_": "is liquidation enabled"
        }
      },
      "setLiqThrld(uint256)": {
        "details": "sets the value of the liq threshold configuration param",
        "params": {
          "liqThrld_": "liquidation threshold"
        }
      },
      "setMaxAbsoluteOpProviderAddress(address)": {
        "details": "sets max absolute operation provider address",
        "params": {
          "maxAbsoluteOpProviderAddress_": "max absolute operation provider address"
        }
      },
      "setMaxOpDiffProviderAddress(address)": {
        "details": "sets max operation difference provider address",
        "params": {
          "maxOpDiffProviderAddress_": "max operation difference provider address"
        }
      },
      "setMintTCandTPFee(uint256)": {
        "details": "sets the fee charged when mint Collateral Token and Pegged Token in one operation.",
        "params": {
          "mintTCandTPFee_": "additional fee pct applied on mint Collateral Token and Pegged Token [PREC] 0% = 0; 1% = 10 ** 16; 100% = 10 ** 18"
        }
      },
      "setMocAppreciationBeneficiaryAddress(address)": {
        "details": "sets Moc Appreciation Beneficiary Address",
        "params": {
          "mocAppreciationBeneficiaryAddress_": "moc Appreciation Beneficiary new address"
        }
      },
      "setMocFeeFlowAddress(address)": {
        "details": "sets Moc Fee Flow contract address",
        "params": {
          "mocFeeFlowAddress_": "moc Fee Flow new contract address"
        }
      },
      "setMocQueue(address)": {
        "details": "sets Moc Queue contract address",
        "params": {
          "mocQueueAddress_": "moc queue new contract address"
        }
      },
      "setPauser(address)": {
        "details": "Should be called through governance",
        "params": {
          "newPauser_": "Address of the new pauser"
        }
      },
      "setProtThrld(uint256)": {
        "details": "sets the value of the protected threshold configuration param",
        "params": {
          "protThrld_": "coverage protected state threshold [PREC]"
        }
      },
      "setRedeemTCandTPFee(uint256)": {
        "details": "sets the fee charged when redeem Collateral Token and Pegged Token in one operation.",
        "params": {
          "redeemTCandTPFee_": "additional fee pct applied on redeem Collateral Token and Pegged Token [PREC] 0% = 0; 1% = 10 ** 16; 100% = 10 ** 18"
        }
      },
      "setSuccessFee(uint256)": {
        "details": "sets success Fee value.",
        "params": {
          "successFee_": "pct of the gain because Pegged Tokens devaluation that is transferred in Collateral Asset to Moc Fee Flow during the settlement [PREC]"
        }
      },
      "setSwapTCforTPFee(uint256)": {
        "details": "sets the fee charged when swap Collateral Token for a Pegged Token.",
        "params": {
          "swapTCforTPFee_": "additional fee pct applied on swap Collateral Token for a Pegged Token [PREC] 0% = 0; 1% = 10 ** 16; 100% = 10 ** 18"
        }
      },
      "setSwapTPforTCFee(uint256)": {
        "details": "sets the fee charged when swap a Pegged Token for Collateral Token.",
        "params": {
          "swapTPforTCFee_": "additional fee pct applied on swap a Pegged Token for Collateral Token [PREC] 0% = 0; 1% = 10 ** 16; 100% = 10 ** 18"
        }
      },
      "setSwapTPforTPFee(uint256)": {
        "details": "sets the fee charged when swap a Pegged Token for another Pegged Token.",
        "params": {
          "swapTPforTPFee_": "additional fee pct applied on swap a Pegged Token for another Pegged Token [PREC] 0% = 0; 1% = 10 ** 16; 100% = 10 ** 18"
        }
      },
      "setTCInterestCollectorAddress(address)": {
        "details": "sets TC interest collector address",
        "params": {
          "tcInterestCollectorAddress_": "TC interest collector address"
        }
      },
      "setTCInterestPaymentBlockSpan(uint256)": {
        "details": "sets TC interest payment block spannextTCInterestPayment is not automatically updated, you have to wait until next  interest payment to be made : nextTCInterestPayment = block.number + tcInterestPaymentBlockSpan",
        "params": {
          "tcInterestPaymentBlockSpan_": "amount of blocks to wait for next TC interest payment"
        }
      },
      "setTCInterestRate(uint256)": {
        "details": "sets TC interest rate",
        "params": {
          "tcInterestRate_": "pct interest charged to TC holders on the total collateral in the protocol [PREC]"
        }
      },
      "setTcMintFee(uint256)": {
        "details": "sets the fee charged on Token Collateral mint.",
        "params": {
          "tcMintFee_": "addition fee pct applied on Collateral Tokens mint [PREC] 0% = 0; 1% = 10 ** 16; 100% = 10 ** 18"
        }
      },
      "setTcRedeemFee(uint256)": {
        "details": "sets the fee charged on Token Collateral redeem.",
        "params": {
          "tcRedeemFee_": "addition fee pct applied on Collateral Tokens redeem [PREC] 0% = 0; 1% = 10 ** 16; 100% = 10 ** 18"
        }
      },
      "swapTCforTPto((address,uint256,uint256,uint256,address,address,address))": {
        "details": "This function is called by MocCore contract using it's context with delegate calli_ Pegged Token index      qTC_ amount of Collateral Token to swap      qTPmin_ minimum amount of Pegged Token Token that `recipient_` expects to receive      qACmax_ maximum amount of Collateral Asset that can be spent in fees      sender_ address who sends the Collateral Token      recipient_ address who receives the Pegged Token      vendor_ address who receives a markup. If its address(0) no markup is appliedqACFee amount of AC needed to pay fees      qFeeToken amount of Fee Token needed to pay fess      qACVendorMarkup amount of AC needed to pay vendor markup      qFeeTokenVendorMarkup amount of Fee Token needed to pay vendor markup",
        "params": {
          "params_": "swap TC for TP function parameters"
        },
        "returns": {
          "qACSurcharges": "amount of AC used to pay fees and markup",
          "qFeeTokenTotalNeeded": "amount of Fee Token used by `sender_` to pay fees. 0 if qAC is used instead",
          "qTPtoMint": "amount of Pegged Token minted"
        }
      },
      "swapTPforTCto((address,uint256,uint256,uint256,address,address,address))": {
        "details": "This function is called by MocCore contract using it's context with delegate calli_ Pegged Token index      qTP_ amount Pegged Token to swap      qTCmin_ minimum amount of Collateral Token that `recipient_` expects to receive      qACmax_ maximum amount of Collateral Asset that can be spent in fees      sender_ address who sends the Pegged Token      recipient_ address who receives Collateral Token      vendor_ address who receives a markup. If its address(0) no markup is appliedqACFee amount of AC needed to pay fees      qFeeToken amount of Fee Token needed to pay fess      qACVendorMarkup amount of AC needed to pay vendor markup      qFeeTokenVendorMarkup amount of Fee Token needed to pay vendor markup",
        "params": {
          "params_": "swap TP for TC function parameters"
        },
        "returns": {
          "feeCalcs": "struct with:",
          "qACSurcharges": "amount of AC used to pay fees and markup",
          "qFeeTokenTotalNeeded": "amount of Fee Token used by `sender_` to pay fees. 0 if qAC is used instead",
          "qTCtoMint": "amount of Collateral Token minted"
        }
      },
      "swapTPforTPto((address,address,uint256,uint256,uint256,address,address,address))": {
        "details": "This function is called by MocCore contract using it's context with delegate calliFrom_ owned Pegged Token index      iTo_ target Pegged Token index      qTP_ amount of owned Pegged Token to swap      qTPmin_ minimum amount of target Pegged Token that `recipient_` expects to receive      qACmax_ maximum amount of Collateral Asset that can be spent in fees      sender_ address who sends the Pegged Token      recipient_ address who receives the target Pegged Token      vendor_ address who receives a markup. If its address(0) no markup is appliedqACFee amount of AC needed to pay fees      qFeeToken amount of Fee Token needed to pay fess      qACVendorMarkup amount of AC needed to pay vendor markup      qFeeTokenVendorMarkup amount of Fee Token needed to pay vendor markup",
        "params": {
          "params_": "swap TP for TP function parameters"
        },
        "returns": {
          "feeCalcs": "struct with:",
          "qACSurcharges": "amount of AC used to pay fees and markup",
          "qFeeTokenTotalNeeded": "amount of Fee Token used by `sender_` to pay fees. 0 if qAC is used instead",
          "qTPtoMint": "amount of Pegged Token minted"
        }
      },
      "updateEmas()": {
        "details": "All price provider prices must be available, fails if not"
      },
      "upgradeTo(address)": {
        "custom:oz-upgrades-unsafe-allow-reachable": "delegatecall",
        "details": "Upgrade the implementation of the proxy to `newImplementation`. Calls {_authorizeUpgrade}. Emits an {Upgraded} event."
      },
      "upgradeToAndCall(address,bytes)": {
        "custom:oz-upgrades-unsafe-allow-reachable": "delegatecall",
        "details": "Upgrade the implementation of the proxy to `newImplementation`, and subsequently execute the function call encoded in `data`. Calls {_authorizeUpgrade}. Emits an {Upgraded} event."
      }
    },
    "title": "MocCoreExpansion",
    "version": 1
  },
  "evm": {
    "bytecode": {
      "linkReferences": {},
      "opcodes": "PUSH1 0xA0 DUP1 PUSH1 0x40 MSTORE CALLVALUE PUSH3 0xE1 JUMPI ADDRESS PUSH1 0x80 MSTORE PUSH1 0x0 SLOAD SWAP1 PUSH1 0xFF DUP3 PUSH1 0x8 SHR AND PUSH3 0x8F JUMPI POP PUSH1 0xFF DUP1 DUP3 AND SUB PUSH3 0x53 JUMPI JUMPDEST PUSH1 0x40 MLOAD PUSH2 0x3F5A SWAP1 DUP2 PUSH3 0xE7 DUP3 CODECOPY PUSH1 0x80 MLOAD DUP2 DUP2 DUP2 PUSH2 0x1F16 ADD MSTORE DUP2 DUP2 PUSH2 0x2087 ADD MSTORE PUSH2 0x230D ADD MSTORE RETURN JUMPDEST PUSH1 0xFF SWAP1 DUP2 NOT AND OR PUSH1 0x0 SSTORE PUSH32 0x7F26B83FF96E1F2B6A682F133852F6798A09C465DA95921460CEFB3847402498 PUSH1 0x20 PUSH1 0x40 MLOAD PUSH1 0xFF DUP2 MSTORE LOG1 CODESIZE PUSH3 0x2C JUMP JUMPDEST PUSH3 0x461BCD PUSH1 0xE5 SHL DUP2 MSTORE PUSH1 0x20 PUSH1 0x4 DUP3 ADD MSTORE PUSH1 0x27 PUSH1 0x24 DUP3 ADD MSTORE PUSH32 0x496E697469616C697A61626C653A20636F6E747261637420697320696E697469 PUSH1 0x44 DUP3 ADD MSTORE PUSH7 0x616C697A696E67 PUSH1 0xC8 SHL PUSH1 0x64 DUP3 ADD MSTORE PUSH1 0x84 SWAP1 REVERT JUMPDEST PUSH1 0x0 DUP1 REVERT INVALID PUSH1 0x80 PUSH1 0x40 MSTORE PUSH1 0x4 CALLDATASIZE LT ISZERO PUSH2 0x12 JUMPI PUSH1 0x0 DUP1 REVERT JUMPDEST PUSH1 0x0 PUSH1 0xE0 DUP2 CALLDATALOAD DUP2 SHR SWAP1 DUP2 PUSH4 0x1DDE6EF EQ PUSH2 0x2812 JUMPI DUP2 PUSH4 0x1F1B684 EQ PUSH2 0x27CA JUMPI DUP2 PUSH4 0x73763B9 EQ PUSH2 0x27A6 JUMPI DUP2 PUSH4 0xC340A24 EQ PUSH2 0x277D JUMPI DUP2 PUSH4 0xC36D897 EQ PUSH2 0x275E JUMPI DUP2 PUSH4 0xD6AC463 EQ PUSH2 0x2718 JUMPI DUP2 PUSH4 0xDB49656 EQ PUSH2 0x26F9 JUMPI DUP2 PUSH4 0xE0A8FD2 EQ PUSH2 0x26D5 JUMPI DUP2 PUSH4 0xF1E5E2B EQ PUSH2 0x268F JUMPI DUP2 PUSH4 0x13ED7BA5 EQ PUSH2 0x2665 JUMPI DUP2 PUSH4 0x1867E2F5 EQ PUSH2 0x2646 JUMPI DUP2 PUSH4 0x1FE6A7AD EQ PUSH2 0x260C JUMPI DUP2 PUSH4 0x2069F753 EQ PUSH2 0x25E8 JUMPI DUP2 PUSH4 0x23B98CDE EQ PUSH2 0x25C1 JUMPI DUP2 PUSH4 0x24FFABA3 EQ PUSH2 0x2583 JUMPI DUP2 PUSH4 0x27EAB2A1 EQ PUSH2 0x253D JUMPI DUP2 PUSH4 0x2A20D57D EQ PUSH2 0x251E JUMPI DUP2 PUSH4 0x2C43BD3B EQ PUSH2 0x24FA JUMPI DUP2 PUSH4 0x2D88AF4A EQ PUSH2 0x24A3 JUMPI DUP2 PUSH4 0x2DED50F0 EQ PUSH2 0x2484 JUMPI DUP2 PUSH4 0x333431FD EQ PUSH2 0x2465 JUMPI DUP2 PUSH4 0x33421C38 EQ PUSH2 0x2374 JUMPI DUP2 PUSH4 0x3659CFE6 EQ PUSH2 0x22DB JUMPI DUP2 PUSH4 0x3915EDCB EQ PUSH2 0x22AC JUMPI DUP2 PUSH4 0x3BC4AC0A EQ PUSH2 0x2288 JUMPI DUP2 PUSH4 0x3CFB09EF EQ PUSH2 0x2242 JUMPI DUP2 PUSH4 0x3F4BA83A EQ PUSH2 0x21C7 JUMPI DUP2 PUSH4 0x407F0E34 EQ PUSH2 0x21A8 JUMPI DUP2 PUSH4 0x4B746001 EQ PUSH2 0x215B JUMPI DUP2 PUSH4 0x4D977E78 EQ PUSH2 0x213C JUMPI DUP2 PUSH4 0x4E1F907A EQ PUSH2 0x2112 JUMPI DUP2 PUSH4 0x4F0F27EE EQ PUSH2 0x20F3 JUMPI DUP2 PUSH4 0x4F1EF286 EQ PUSH2 0x1FFF JUMPI DUP2 PUSH4 0x5210570C EQ PUSH2 0x1FD9 JUMPI DUP2 PUSH4 0x52D1902D EQ PUSH2 0x1F03 JUMPI DUP2 PUSH4 0x543AEB48 EQ PUSH2 0x1EDF JUMPI DUP2 PUSH4 0x5860EE63 EQ PUSH2 0x1EC0 JUMPI DUP2 PUSH4 0x5C975ABB EQ PUSH2 0x1E9A JUMPI DUP2 PUSH4 0x5CFBE578 EQ PUSH2 0x1E7B JUMPI DUP2 PUSH4 0x60009E0B EQ PUSH2 0x1E51 JUMPI DUP2 PUSH4 0x647846A5 EQ PUSH2 0x1E27 JUMPI DUP2 PUSH4 0x64EC230A EQ PUSH2 0x1E03 JUMPI DUP2 PUSH4 0x662013F4 EQ PUSH2 0x1DDF JUMPI DUP2 PUSH4 0x68274357 EQ PUSH2 0x1DB6 JUMPI DUP2 PUSH4 0x6845C445 EQ PUSH2 0x1BB7 JUMPI DUP2 PUSH4 0x6B5488DF EQ PUSH2 0x1B98 JUMPI DUP2 PUSH4 0x6F30471F EQ PUSH2 0x1B79 JUMPI DUP2 PUSH4 0x70713468 EQ PUSH2 0x1B55 JUMPI DUP2 PUSH4 0x735D3960 EQ PUSH2 0x1B0F JUMPI DUP2 PUSH4 0x73E28AF9 EQ PUSH2 0x1AEB JUMPI DUP2 PUSH4 0x7554FFFD EQ PUSH2 0x1ACC JUMPI DUP2 PUSH4 0x76228055 EQ PUSH2 0x1AAD JUMPI DUP2 PUSH4 0x7750BA0C EQ PUSH2 0x1A89 JUMPI DUP2 PUSH4 0x79F9A91C EQ PUSH2 0x1A6A JUMPI DUP2 PUSH4 0x7A193C31 EQ PUSH2 0x1A4B JUMPI DUP2 PUSH4 0x7A4FF1D9 EQ PUSH2 0x1A27 JUMPI DUP2 PUSH4 0x7A727FE8 EQ PUSH2 0x1A08 JUMPI DUP2 PUSH4 0x7AF5758C EQ PUSH2 0x19E4 JUMPI DUP2 PUSH4 0x7B5A17AE EQ PUSH2 0x1809 JUMPI DUP2 PUSH4 0x7CBA2383 EQ PUSH2 0x17E5 JUMPI DUP2 PUSH4 0x7D8E0314 EQ PUSH2 0x17A8 JUMPI DUP2 PUSH4 0x7F01C715 EQ PUSH2 0x177E JUMPI DUP2 PUSH4 0x7F13B998 EQ PUSH2 0x174A JUMPI DUP2 PUSH4 0x7F4A4FE0 EQ PUSH2 0x172B JUMPI DUP2 PUSH4 0x8456CB59 EQ PUSH2 0x1694 JUMPI DUP2 PUSH4 0x85BF9593 EQ PUSH2 0x164E JUMPI DUP2 PUSH4 0x8CFA4241 EQ PUSH2 0x162F JUMPI DUP2 PUSH4 0x8E2BDB86 EQ PUSH2 0x1605 JUMPI DUP2 PUSH4 0x9853C35A EQ PUSH2 0x15DB JUMPI DUP2 PUSH4 0x9AD6659D EQ PUSH2 0x15A1 JUMPI DUP2 PUSH4 0x9CABFC00 EQ PUSH2 0x1554 JUMPI DUP2 PUSH4 0x9FD0506D EQ PUSH2 0x1527 JUMPI DUP2 PUSH4 0xA8E9AC30 EQ PUSH2 0x1505 JUMPI DUP2 PUSH4 0xAEA038DC EQ PUSH2 0x14E6 JUMPI DUP2 PUSH4 0xB5E9EA8C EQ PUSH2 0x14BC JUMPI DUP2 PUSH4 0xB9FA6413 EQ PUSH2 0x149D JUMPI DUP2 PUSH4 0xBB4872DE EQ PUSH2 0x147A JUMPI DUP2 PUSH4 0xBECACA6B EQ PUSH2 0x1456 JUMPI DUP2 PUSH4 0xC00F538D EQ PUSH2 0x1432 JUMPI DUP2 PUSH4 0xC84353C9 EQ PUSH2 0x140E JUMPI DUP2 PUSH4 0xCF351C1D EQ PUSH2 0x13C8 JUMPI DUP2 PUSH4 0xD1A0FAA0 EQ PUSH2 0x13AC JUMPI DUP2 PUSH4 0xD6AF11DA EQ PUSH2 0x136A JUMPI DUP2 PUSH4 0xD87AAB6F EQ PUSH2 0x134B JUMPI DUP2 PUSH4 0xD8DB6F5A EQ PUSH2 0x1305 JUMPI DUP2 PUSH4 0xD9B6C2E5 EQ PUSH2 0x117D JUMPI DUP2 PUSH4 0xDB796072 EQ PUSH2 0xF05 JUMPI DUP2 PUSH4 0xDDB6D190 EQ PUSH2 0xEC7 JUMPI DUP2 PUSH4 0xE1E121DA EQ PUSH2 0xC6B JUMPI DUP2 PUSH4 0xE44BB512 EQ PUSH2 0xA69 JUMPI DUP2 PUSH4 0xE4C0AAF4 EQ PUSH2 0xA24 JUMPI DUP2 PUSH4 0xE6B1627C EQ PUSH2 0x9E1 JUMPI DUP2 PUSH4 0xE7C25978 EQ PUSH2 0x9BD JUMPI DUP2 PUSH4 0xEE1F438F EQ PUSH2 0x993 JUMPI DUP2 PUSH4 0xF13F4054 EQ PUSH2 0x969 JUMPI DUP2 PUSH4 0xF26114AA EQ PUSH2 0x77A JUMPI DUP2 PUSH4 0xF2808778 EQ PUSH2 0x756 JUMPI DUP2 PUSH4 0xF30B5614 EQ PUSH2 0x737 JUMPI DUP2 PUSH4 0xF375CFBA EQ PUSH2 0x718 JUMPI DUP2 PUSH4 0xF5571E01 EQ PUSH2 0x570 JUMPI POP DUP1 PUSH4 0xFA6E83BD EQ PUSH2 0x551 JUMPI DUP1 PUSH4 0xFADDA424 EQ PUSH2 0x4D8 JUMPI DUP1 PUSH4 0xFDA70F8B EQ PUSH2 0x4B9 JUMPI PUSH4 0xFE6B92C1 EQ PUSH2 0x498 JUMPI PUSH1 0x0 DUP1 REVERT JUMPDEST CALLVALUE PUSH2 0x4B6 JUMPI DUP1 PUSH1 0x3 NOT CALLDATASIZE ADD SLT PUSH2 0x4B6 JUMPI PUSH1 0x20 PUSH2 0x135 SLOAD PUSH1 0x40 MLOAD SWAP1 DUP2 MSTORE RETURN JUMPDEST DUP1 REVERT JUMPDEST POP CALLVALUE PUSH2 0x4B6 JUMPI DUP1 PUSH1 0x3 NOT CALLDATASIZE ADD SLT PUSH2 0x4B6 JUMPI PUSH1 0x20 PUSH2 0x13C SLOAD PUSH1 0x40 MLOAD SWAP1 DUP2 MSTORE RETURN JUMPDEST POP CALLVALUE PUSH2 0x4B6 JUMPI PUSH1 0x20 CALLDATASIZE PUSH1 0x3 NOT ADD SLT PUSH2 0x4B6 JUMPI PUSH1 0x1 PUSH1 0x1 PUSH1 0xA0 SHL SUB PUSH1 0x4 CALLDATALOAD DUP2 DUP2 AND DUP2 SUB PUSH2 0x54C JUMPI PUSH2 0x514 PUSH2 0x50C PUSH1 0x1 SWAP3 PUSH2 0x3140 JUMP JUMPDEST PUSH2 0x137 PUSH2 0x2878 JUMP JUMPDEST POP ADD SLOAD AND PUSH2 0x521 DUP2 PUSH2 0x31BF JUMP JUMPDEST SWAP2 SWAP1 SWAP2 ISZERO PUSH2 0x534 JUMPI PUSH1 0x20 DUP3 PUSH1 0x40 MLOAD SWAP1 DUP2 MSTORE RETURN JUMPDEST PUSH1 0x24 SWAP1 PUSH1 0x40 MLOAD SWAP1 PUSH4 0x7F6E4DB9 PUSH1 0xE0 SHL DUP3 MSTORE PUSH1 0x4 DUP3 ADD MSTORE REVERT JUMPDEST PUSH1 0x0 DUP1 REVERT JUMPDEST POP CALLVALUE PUSH2 0x4B6 JUMPI DUP1 PUSH1 0x3 NOT CALLDATASIZE ADD SLT PUSH2 0x4B6 JUMPI PUSH1 0x20 PUSH2 0x13A SLOAD PUSH1 0x40 MLOAD SWAP1 DUP2 MSTORE RETURN JUMPDEST CALLDATASIZE PUSH1 0x3 NOT ADD SLT SWAP1 POP PUSH2 0x4B6 JUMPI PUSH2 0x587 CALLDATASIZE PUSH1 0x4 PUSH2 0x28E8 JUMP JUMPDEST SWAP1 PUSH2 0x590 PUSH2 0x3467 JUMP JUMPDEST POP PUSH2 0x599 PUSH2 0x3221 JUMP JUMPDEST SWAP1 PUSH2 0x61A PUSH1 0x1 DUP1 PUSH1 0xA0 SHL SUB SWAP2 PUSH2 0x5B1 DUP4 DUP7 MLOAD AND PUSH2 0x3140 JUMP JUMPDEST SWAP3 PUSH2 0x5D4 PUSH2 0x5BF DUP6 DUP8 PUSH2 0x2E01 JUMP JUMPDEST MLOAD SWAP6 PUSH2 0x5CB DUP8 DUP8 PUSH2 0x3612 JUMP JUMPDEST PUSH2 0x149 SLOAD PUSH2 0x35CF JUMP JUMPDEST PUSH2 0x614 PUSH1 0x20 DUP10 SWAP7 SWAP4 SWAP7 ADD SWAP8 PUSH2 0x60F PUSH2 0x5ED DUP3 DUP12 MLOAD PUSH2 0x3F00 JUMP JUMPDEST SWAP8 PUSH2 0x60A PUSH2 0x600 DUP13 MLOAD PUSH2 0x134 SLOAD SWAP1 PUSH2 0x2F39 JUMP JUMPDEST SWAP6 PUSH2 0x131 SLOAD PUSH2 0x2FFE JUMP JUMPDEST PUSH2 0x2FFE JUMP JUMPDEST PUSH2 0x2F39 JUMP JUMPDEST SWAP1 PUSH2 0x3F00 JUMP JUMPDEST SWAP6 PUSH1 0x40 DUP2 ADD MLOAD DUP1 DUP9 LT DUP1 ISZERO PUSH2 0x710 JUMPI JUMPDEST PUSH2 0x6F2 JUMPI POP PUSH2 0x64B DUP3 PUSH1 0x80 DUP4 ADD MLOAD AND DUP6 DUP5 PUSH1 0xC0 DUP6 ADD MLOAD AND PUSH2 0x13F SLOAD SWAP3 PUSH2 0x3692 JUMP JUMPDEST SWAP7 SWAP2 SWAP8 SWAP1 SWAP6 PUSH1 0x60 DUP5 ADD MLOAD DUP1 DUP11 GT PUSH2 0x6D3 JUMPI POP SWAP3 PUSH2 0x682 DUP7 PUSH2 0x68C SWAP7 SWAP5 PUSH1 0xA0 SWAP5 PUSH2 0x67B PUSH1 0x1 PUSH2 0x6CF SWAP14 SWAP13 SWAP12 SWAP10 PUSH2 0x392A JUMP JUMPDEST MLOAD SWAP1 PUSH2 0x39E4 JUMP JUMPDEST ADD MLOAD AND SWAP1 DUP8 PUSH2 0x3558 JUMP JUMPDEST PUSH1 0x40 MLOAD SWAP5 DUP6 SWAP5 DUP6 SWAP3 SWAP4 PUSH1 0x60 SWAP2 SWAP6 SWAP5 PUSH1 0xC0 SWAP4 PUSH1 0xE0 DUP7 ADD SWAP8 DUP7 MSTORE PUSH1 0x20 DUP7 ADD MSTORE PUSH1 0x40 DUP6 ADD MSTORE DUP1 MLOAD DUP3 DUP6 ADD MSTORE PUSH1 0x20 DUP2 ADD MLOAD PUSH1 0x80 DUP6 ADD MSTORE PUSH1 0x40 DUP2 ADD MLOAD PUSH1 0xA0 DUP6 ADD MSTORE ADD MLOAD SWAP2 ADD MSTORE JUMP JUMPDEST SUB SWAP1 RETURN JUMPDEST PUSH1 0x44 SWAP1 DUP10 MLOAD PUSH1 0x40 MLOAD SWAP2 PUSH4 0xB63F1A7 PUSH1 0xE0 SHL DUP4 MSTORE PUSH1 0x4 DUP4 ADD MSTORE PUSH1 0x24 DUP3 ADD MSTORE REVERT JUMPDEST PUSH1 0x44 SWAP1 DUP9 PUSH1 0x40 MLOAD SWAP2 PUSH4 0xF577BEF5 PUSH1 0xE0 SHL DUP4 MSTORE PUSH1 0x4 DUP4 ADD MSTORE PUSH1 0x24 DUP3 ADD MSTORE REVERT JUMPDEST POP DUP8 ISZERO PUSH2 0x62A JUMP JUMPDEST DUP3 CALLVALUE PUSH2 0x4B6 JUMPI DUP1 PUSH1 0x3 NOT CALLDATASIZE ADD SLT PUSH2 0x4B6 JUMPI PUSH1 0x20 PUSH2 0x141 SLOAD PUSH1 0x40 MLOAD SWAP1 DUP2 MSTORE RETURN JUMPDEST DUP3 CALLVALUE PUSH2 0x4B6 JUMPI DUP1 PUSH1 0x3 NOT CALLDATASIZE ADD SLT PUSH2 0x4B6 JUMPI PUSH1 0x20 PUSH2 0x131 SLOAD PUSH1 0x40 MLOAD SWAP1 DUP2 MSTORE RETURN JUMPDEST DUP3 CALLVALUE PUSH2 0x4B6 JUMPI PUSH1 0x20 CALLDATASIZE PUSH1 0x3 NOT ADD SLT PUSH2 0x4B6 JUMPI PUSH2 0x770 PUSH2 0x3E51 JUMP JUMPDEST PUSH1 0x4 CALLDATALOAD PUSH2 0x13C SSTORE DUP1 RETURN JUMPDEST SWAP1 POP CALLVALUE PUSH2 0x965 JUMPI CALLDATASIZE PUSH1 0x3 NOT ADD SLT PUSH2 0x4B6 JUMPI PUSH1 0x4 CALLDATALOAD PUSH1 0x1 PUSH1 0x1 PUSH1 0xA0 SHL SUB DUP2 DUP2 AND SWAP2 DUP3 SWAP1 SUB PUSH2 0x54C JUMPI DUP2 DUP4 MSTORE PUSH2 0x136 PUSH1 0x20 MSTORE PUSH1 0x40 DUP4 KECCAK256 PUSH1 0xFF PUSH1 0x1 PUSH1 0x40 MLOAD SWAP3 PUSH2 0x7C1 PUSH1 0x40 DUP6 PUSH2 0x2894 JUMP JUMPDEST DUP1 SLOAD DUP5 MSTORE ADD SLOAD AND ISZERO DUP1 ISZERO PUSH1 0x20 DUP4 ADD MSTORE PUSH2 0x917 JUMPI MLOAD SWAP1 PUSH1 0x24 CALLDATALOAD SWAP1 DUP1 DUP3 AND DUP1 SWAP3 SUB PUSH2 0x54C JUMPI PUSH2 0x137 SWAP1 PUSH1 0x1 PUSH2 0x7F4 DUP6 DUP5 PUSH2 0x2878 JUMP JUMPDEST POP ADD SLOAD AND DUP3 SUB PUSH2 0x89D JUMPI JUMPDEST DUP5 PUSH32 0x6417E5A3C1E0E5DAE98B8FE718C4BABDFCB35E0D7B5E1B9641B5914756F5D8E3 PUSH1 0x4 DUP6 DUP8 PUSH2 0x850 PUSH2 0x834 DUP4 PUSH2 0x148 PUSH2 0x2836 JUMP JUMPDEST PUSH1 0x44 SWAP3 SWAP2 SWAP3 CALLDATALOAD SWAP1 DUP4 SLOAD SWAP1 PUSH1 0x3 SHL SWAP2 DUP3 SHL SWAP2 PUSH1 0x0 NOT SWAP1 SHL NOT AND OR SWAP1 JUMP JUMPDEST SWAP1 SSTORE DUP1 DUP6 MSTORE PUSH2 0x144 PUSH1 0x20 MSTORE PUSH1 0x64 CALLDATALOAD PUSH1 0x40 DUP7 KECCAK256 SSTORE DUP5 MSTORE PUSH2 0x145 PUSH1 0x20 MSTORE PUSH1 0x84 CALLDATALOAD PUSH1 0x40 DUP6 KECCAK256 SSTORE PUSH2 0x87F DUP2 PUSH2 0x18E PUSH2 0x2878 JUMP JUMPDEST POP PUSH1 0x1 PUSH1 0xC4 CALLDATALOAD SWAP2 ADD SSTORE PUSH2 0x897 PUSH1 0x40 MLOAD SWAP3 DUP4 SWAP3 DUP4 PUSH2 0x33FF JUMP JUMPDEST SUB SWAP1 LOG1 DUP1 RETURN JUMPDEST SWAP2 SWAP1 SWAP3 PUSH1 0x40 MLOAD PUSH4 0x59E02DD7 PUSH1 0xE0 SHL DUP2 MSTORE PUSH1 0x40 DUP2 PUSH1 0x4 DUP2 DUP9 GAS STATICCALL SWAP1 DUP2 ISZERO PUSH2 0x95A JUMPI DUP7 SWAP2 PUSH2 0x929 JUMPI JUMPDEST POP ISZERO PUSH2 0x917 JUMPI PUSH32 0x6417E5A3C1E0E5DAE98B8FE718C4BABDFCB35E0D7B5E1B9641B5914756F5D8E3 SWAP4 PUSH1 0x1 PUSH2 0x8FA DUP5 PUSH1 0x4 SWAP7 PUSH2 0x2878 JUMP JUMPDEST POP ADD SWAP1 PUSH1 0x1 PUSH1 0x1 PUSH1 0x60 SHL SUB PUSH1 0xA0 SHL DUP3 SLOAD AND OR SWAP1 SSTORE SWAP3 DUP2 SWAP3 POP PUSH2 0x7FF JUMP JUMPDEST PUSH1 0x40 MLOAD PUSH4 0xE6C4247B PUSH1 0xE0 SHL DUP2 MSTORE PUSH1 0x4 SWAP1 REVERT JUMPDEST PUSH2 0x94B SWAP2 POP PUSH1 0x40 RETURNDATASIZE PUSH1 0x40 GT PUSH2 0x953 JUMPI JUMPDEST PUSH2 0x943 DUP2 DUP4 PUSH2 0x2894 JUMP JUMPDEST DUP2 ADD SWAP1 PUSH2 0x31A5 JUMP JUMPDEST SWAP1 POP CODESIZE PUSH2 0x8C4 JUMP JUMPDEST POP RETURNDATASIZE PUSH2 0x939 JUMP JUMPDEST PUSH1 0x40 MLOAD RETURNDATASIZE DUP9 DUP3 RETURNDATACOPY RETURNDATASIZE SWAP1 REVERT JUMPDEST POP DUP1 REVERT JUMPDEST DUP3 CALLVALUE PUSH2 0x4B6 JUMPI DUP1 PUSH1 0x3 NOT CALLDATASIZE ADD SLT PUSH2 0x4B6 JUMPI PUSH2 0x130 SLOAD PUSH1 0x40 MLOAD PUSH1 0x1 PUSH1 0x1 PUSH1 0xA0 SHL SUB SWAP1 SWAP2 AND DUP2 MSTORE PUSH1 0x20 SWAP1 RETURN JUMPDEST DUP3 CALLVALUE PUSH2 0x4B6 JUMPI DUP1 PUSH1 0x3 NOT CALLDATASIZE ADD SLT PUSH2 0x4B6 JUMPI PUSH2 0x152 SLOAD PUSH1 0x40 MLOAD PUSH1 0x1 PUSH1 0x1 PUSH1 0xA0 SHL SUB SWAP1 SWAP2 AND DUP2 MSTORE PUSH1 0x20 SWAP1 RETURN JUMPDEST DUP3 CALLVALUE PUSH2 0x4B6 JUMPI DUP1 PUSH1 0x3 NOT CALLDATASIZE ADD SLT PUSH2 0x4B6 JUMPI PUSH1 0x20 PUSH1 0xFF PUSH2 0x14B SLOAD AND PUSH1 0x40 MLOAD SWAP1 ISZERO ISZERO DUP2 MSTORE RETURN JUMPDEST DUP3 CALLVALUE PUSH2 0x4B6 JUMPI PUSH1 0x20 CALLDATASIZE PUSH1 0x3 NOT ADD SLT PUSH2 0x4B6 JUMPI PUSH1 0x4 CALLDATALOAD SWAP1 PUSH2 0x18E SWAP1 DUP2 SLOAD DUP4 LT ISZERO PUSH2 0x4B6 JUMPI PUSH1 0x40 PUSH2 0xA10 DUP5 DUP5 PUSH2 0x2878 JUMP JUMPDEST POP PUSH1 0x1 DUP2 SLOAD SWAP2 ADD SLOAD DUP3 MLOAD SWAP2 DUP3 MSTORE PUSH1 0x20 DUP3 ADD MSTORE RETURN JUMPDEST DUP3 CALLVALUE PUSH2 0x4B6 JUMPI PUSH1 0x20 CALLDATASIZE PUSH1 0x3 NOT ADD SLT PUSH2 0x4B6 JUMPI PUSH1 0x4 CALLDATALOAD PUSH1 0x1 PUSH1 0x1 PUSH1 0xA0 SHL SUB DUP2 AND SWAP1 DUP2 SWAP1 SUB PUSH2 0x965 JUMPI PUSH2 0xA53 PUSH2 0x3E51 JUMP JUMPDEST PUSH1 0x1 PUSH1 0x1 PUSH1 0x60 SHL SUB PUSH1 0xA0 SHL PUSH1 0x97 SLOAD AND OR PUSH1 0x97 SSTORE DUP1 RETURN JUMPDEST DUP3 PUSH1 0xC0 CALLDATASIZE PUSH1 0x3 NOT ADD SLT PUSH2 0x4B6 JUMPI PUSH1 0x40 MLOAD SWAP1 PUSH2 0xA85 PUSH1 0xC0 DUP4 PUSH2 0x2894 JUMP JUMPDEST PUSH1 0x1 PUSH1 0x1 PUSH1 0xA0 SHL SUB SWAP1 PUSH1 0x4 CALLDATALOAD DUP3 DUP2 AND DUP2 SUB PUSH2 0x54C JUMPI DUP4 MSTORE PUSH1 0x20 DUP4 ADD PUSH1 0x24 CALLDATALOAD DUP2 MSTORE PUSH1 0x40 DUP5 ADD SWAP3 PUSH1 0x44 CALLDATALOAD DUP5 MSTORE PUSH1 0x64 CALLDATALOAD SWAP1 DUP1 DUP3 AND DUP3 SUB PUSH2 0x54C JUMPI PUSH1 0x60 DUP7 ADD SWAP2 DUP3 MSTORE PUSH1 0x84 CALLDATALOAD DUP2 DUP2 AND DUP2 SUB PUSH2 0x54C JUMPI PUSH1 0x80 DUP8 ADD SWAP1 DUP2 MSTORE PUSH1 0xA4 CALLDATALOAD SWAP5 DUP3 DUP7 AND DUP7 SUB PUSH2 0x54C JUMPI PUSH1 0xA0 DUP9 ADD SWAP6 DUP7 MSTORE PUSH2 0xAF2 PUSH2 0x3467 JUMP JUMPDEST POP PUSH2 0xB07 DUP4 PUSH2 0xAFF PUSH2 0x3221 JUMP JUMPDEST SWAP10 MLOAD AND PUSH2 0x3140 JUMP JUMPDEST SWAP2 PUSH2 0xB2A PUSH2 0xB15 DUP5 DUP12 PUSH2 0x2E01 JUMP JUMPDEST MLOAD SWAP10 PUSH2 0xB21 DUP12 DUP7 PUSH2 0x3612 JUMP JUMPDEST PUSH2 0x14A SLOAD PUSH2 0x35CF JUMP JUMPDEST SWAP10 PUSH2 0xB41 DUP9 MLOAD SWAP12 PUSH2 0xB3B DUP4 DUP9 PUSH2 0x3C5C JUMP JUMPDEST SWAP4 PUSH2 0x3663 JUMP JUMPDEST SWAP2 PUSH8 0xDE0B6B3A763FFFF NOT DUP2 ADD SWAP1 DUP2 GT PUSH2 0xC57 JUMPI DUP2 PUSH2 0xB63 PUSH2 0xB68 SWAP3 DUP15 PUSH2 0x2F39 JUMP JUMPDEST PUSH2 0x2F4C JUMP JUMPDEST SWAP9 PUSH8 0xDE0B6B3A7640000 SWAP3 DUP4 DUP12 MUL SWAP1 DUP12 DUP3 DIV DUP6 EQ DUP13 ISZERO OR ISZERO PUSH2 0xC41 JUMPI PUSH2 0xB8D SWAP2 PUSH2 0x2F4C JUMP JUMPDEST SWAP12 DUP4 DUP2 MUL SWAP4 DUP2 DUP6 DIV EQ SWAP1 ISZERO OR ISZERO PUSH2 0xC41 JUMPI PUSH2 0xBD8 SWAP8 DUP8 PUSH2 0xBBB PUSH2 0xBB4 PUSH2 0xBCD SWAP6 DUP4 SWAP8 PUSH2 0x2F4C JUMP JUMPDEST DUP1 SWAP14 PUSH2 0x2E15 JUMP JUMPDEST SWAP9 DUP10 SWAP3 MLOAD AND SWAP3 MLOAD AND PUSH2 0x142 SLOAD SWAP3 PUSH2 0x3692 JUMP JUMPDEST SWAP9 SWAP2 DUP8 SWAP9 SWAP2 SWAP9 PUSH2 0x2E15 JUMP JUMPDEST SWAP10 MLOAD DUP1 DUP12 GT PUSH2 0xC23 JUMPI POP DUP10 ISZERO PUSH2 0xC11 JUMPI PUSH2 0xC07 PUSH2 0x68C SWAP7 PUSH2 0xBFC DUP7 PUSH2 0x6CF SWAP13 PUSH2 0x392A JUMP JUMPDEST DUP4 DUP6 MLOAD AND SWAP1 DUP14 PUSH2 0x3558 JUMP JUMPDEST MLOAD SWAP2 MLOAD AND SWAP3 PUSH2 0x348E JUMP JUMPDEST PUSH1 0x40 MLOAD PUSH4 0xF3E39B5D PUSH1 0xE0 SHL DUP2 MSTORE PUSH1 0x4 SWAP1 REVERT JUMPDEST PUSH1 0x44 SWAP1 DUP12 PUSH1 0x40 MLOAD SWAP2 PUSH4 0xB63F1A7 PUSH1 0xE0 SHL DUP4 MSTORE PUSH1 0x4 DUP4 ADD MSTORE PUSH1 0x24 DUP3 ADD MSTORE REVERT JUMPDEST PUSH4 0x4E487B71 PUSH1 0xE0 SHL PUSH1 0x0 MSTORE PUSH1 0x11 PUSH1 0x4 MSTORE PUSH1 0x24 PUSH1 0x0 REVERT JUMPDEST PUSH4 0x4E487B71 PUSH1 0xE0 SHL DUP6 MSTORE PUSH1 0x11 PUSH1 0x4 MSTORE PUSH1 0x24 DUP6 REVERT JUMPDEST SWAP1 POP PUSH2 0x100 DUP1 PUSH1 0x3 NOT CALLDATASIZE ADD SLT PUSH2 0xEC3 JUMPI PUSH2 0xC88 PUSH1 0x40 MLOAD SWAP2 DUP3 PUSH2 0x2894 JUMP JUMPDEST PUSH1 0x4 CALLDATALOAD PUSH1 0x1 PUSH1 0x1 PUSH1 0xA0 SHL SUB DUP2 AND DUP2 SUB PUSH2 0x54C JUMPI DUP2 MSTORE PUSH1 0x24 CALLDATALOAD PUSH1 0x1 PUSH1 0x1 PUSH1 0xA0 SHL SUB DUP2 AND DUP2 SUB PUSH2 0x54C JUMPI PUSH1 0x20 DUP3 ADD SWAP1 DUP2 MSTORE PUSH1 0x44 CALLDATALOAD PUSH1 0x40 DUP4 ADD MSTORE PUSH1 0x60 DUP3 ADD SWAP4 PUSH1 0x64 CALLDATALOAD DUP6 MSTORE PUSH1 0x80 DUP4 ADD SWAP2 PUSH1 0x84 CALLDATALOAD DUP4 MSTORE PUSH1 0xA4 CALLDATALOAD SWAP5 PUSH1 0x1 DUP1 PUSH1 0xA0 SHL SUB DUP7 AND DUP7 SUB PUSH2 0x54C JUMPI PUSH1 0xA0 DUP6 ADD SWAP6 DUP7 MSTORE PUSH1 0xC4 CALLDATALOAD PUSH1 0x1 PUSH1 0x1 PUSH1 0xA0 SHL SUB DUP2 AND DUP2 SUB PUSH2 0x54C JUMPI PUSH1 0xC0 DUP7 ADD MSTORE PUSH1 0xE4 CALLDATALOAD SWAP1 PUSH1 0x1 PUSH1 0x1 PUSH1 0xA0 SHL SUB DUP3 AND DUP3 SUB PUSH2 0x54C JUMPI DUP6 ADD SWAP1 DUP2 MSTORE PUSH2 0xD26 PUSH2 0x3467 JUMP JUMPDEST POP DUP5 MLOAD DUP3 MLOAD PUSH1 0x1 PUSH1 0x1 PUSH1 0xA0 SHL SUB SWAP1 DUP2 AND SWAP2 AND EQ PUSH2 0xEB1 JUMPI DUP5 MLOAD PUSH2 0xD65 SWAP1 PUSH2 0xD55 SWAP1 PUSH1 0x1 PUSH1 0x1 PUSH1 0xA0 SHL SUB AND PUSH2 0x3140 JUMP JUMPDEST SWAP3 MLOAD PUSH1 0x1 PUSH1 0x1 PUSH1 0xA0 SHL SUB AND PUSH2 0x3140 JUMP JUMPDEST SWAP6 PUSH2 0xD6F DUP4 PUSH2 0x3169 JUMP JUMPDEST SWAP1 PUSH2 0xD79 DUP9 PUSH2 0x3169 JUMP JUMPDEST PUSH2 0xD83 DUP4 DUP7 PUSH2 0x3612 JUMP JUMPDEST PUSH2 0xD8D DUP2 DUP11 PUSH2 0x3612 JUMP JUMPDEST PUSH2 0xD9B DUP4 PUSH1 0x40 DUP11 ADD MLOAD PUSH2 0x3F00 JUMP JUMPDEST SWAP3 PUSH2 0xDAE DUP2 PUSH2 0xB63 DUP5 PUSH1 0x40 DUP14 ADD MLOAD PUSH2 0x2F39 JUMP JUMPDEST SWAP11 MLOAD DUP1 DUP13 LT DUP1 ISZERO PUSH2 0xEA9 JUMPI JUMPDEST PUSH2 0xE8B JUMPI POP SWAP1 DUP11 DUP11 PUSH2 0xE01 SWAP7 SWAP6 SWAP5 SWAP4 PUSH2 0xDDD PUSH2 0xDD6 DUP6 DUP5 PUSH2 0x3C5C JUMP JUMPDEST SWAP2 DUP11 PUSH2 0x3C5C JUMP JUMPDEST LT PUSH2 0xE5C JUMPI JUMPDEST POP POP SWAP1 MLOAD SWAP3 MLOAD PUSH2 0x13E SLOAD SWAP4 PUSH1 0x1 PUSH1 0x1 PUSH1 0xA0 SHL SUB SWAP2 DUP3 AND SWAP3 POP AND PUSH2 0x3692 JUMP JUMPDEST SWAP6 SWAP2 SWAP7 SWAP1 SWAP5 MLOAD DUP1 DUP9 GT PUSH2 0xE3D JUMPI POP SWAP2 PUSH1 0x40 DUP5 SWAP3 PUSH2 0xE35 PUSH2 0x68C SWAP6 PUSH2 0x6CF SWAP10 SWAP9 SWAP8 DUP13 PUSH1 0x1 DUP1 PUSH1 0xA0 SHL SUB PUSH1 0xC0 DUP7 ADD MLOAD AND SWAP3 PUSH2 0x348E JUMP JUMPDEST ADD MLOAD SWAP1 PUSH2 0x39E4 JUMP JUMPDEST PUSH1 0x44 SWAP1 DUP8 MLOAD PUSH1 0x40 MLOAD SWAP2 PUSH4 0xB63F1A7 PUSH1 0xE0 SHL DUP4 MSTORE PUSH1 0x4 DUP4 ADD MSTORE PUSH1 0x24 DUP3 ADD MSTORE REVERT JUMPDEST PUSH2 0xE7B PUSH2 0xE83 SWAP4 PUSH2 0xE6B PUSH2 0x3DBD JUMP JUMPDEST PUSH2 0xE73 PUSH2 0x3CFF JUMP JUMPDEST DUP2 SWAP4 SWAP2 PUSH2 0x35CF JUMP JUMPDEST SWAP5 SWAP1 SWAP4 PUSH2 0x3ACF JUMP JUMPDEST CODESIZE DUP11 DUP11 PUSH2 0xDE3 JUMP JUMPDEST PUSH1 0x44 SWAP1 DUP13 PUSH1 0x40 MLOAD SWAP2 PUSH4 0x272E3F59 PUSH1 0xE2 SHL DUP4 MSTORE PUSH1 0x4 DUP4 ADD MSTORE PUSH1 0x24 DUP3 ADD MSTORE REVERT JUMPDEST POP DUP12 ISZERO PUSH2 0xDBA JUMP JUMPDEST PUSH1 0x40 MLOAD PUSH4 0x2A9FFAB7 PUSH1 0xE2 SHL DUP2 MSTORE PUSH1 0x4 SWAP1 REVERT JUMPDEST DUP3 DUP1 REVERT JUMPDEST DUP3 CALLVALUE PUSH2 0x4B6 JUMPI PUSH1 0x20 CALLDATASIZE PUSH1 0x3 NOT ADD SLT PUSH2 0x4B6 JUMPI PUSH1 0x4 CALLDATALOAD PUSH1 0x1 PUSH1 0x1 PUSH1 0xA0 SHL SUB DUP2 AND SWAP1 DUP2 SWAP1 SUB PUSH2 0x54C JUMPI DUP2 PUSH1 0x40 SWAP2 PUSH1 0x20 SWAP4 MSTORE PUSH2 0x145 DUP4 MSTORE KECCAK256 SLOAD PUSH1 0x40 MLOAD SWAP1 DUP2 MSTORE RETURN JUMPDEST SWAP1 POP CALLVALUE PUSH2 0x965 JUMPI CALLDATASIZE PUSH1 0x3 NOT ADD SLT PUSH2 0x4B6 JUMPI PUSH1 0x4 CALLDATALOAD PUSH1 0x1 PUSH1 0x1 PUSH1 0xA0 SHL SUB DUP2 DUP2 AND SWAP2 DUP3 SWAP1 SUB PUSH2 0x54C JUMPI PUSH1 0x24 DUP1 CALLDATALOAD DUP3 DUP2 AND DUP1 SWAP2 SUB PUSH2 0x54C JUMPI DUP4 DUP6 MSTORE PUSH2 0x136 SWAP4 PUSH1 0x20 SWAP1 DUP6 DUP3 MSTORE PUSH1 0x1 SWAP3 PUSH1 0xFF DUP5 PUSH1 0x40 DUP11 KECCAK256 ADD SLOAD AND PUSH2 0x116B JUMPI PUSH2 0x135 SWAP6 DUP7 SLOAD SWAP8 DUP6 PUSH1 0x40 MLOAD PUSH2 0xF6E PUSH1 0x40 DUP3 PUSH2 0x2894 JUMP JUMPDEST DUP11 DUP2 MSTORE DUP7 DUP2 ADD SWAP3 DUP3 DUP5 MSTORE DUP7 DUP14 MSTORE DUP8 MSTORE PUSH1 0x40 DUP13 KECCAK256 SWAP1 MLOAD DUP2 SSTORE ADD SWAP1 MLOAD ISZERO ISZERO PUSH1 0xFF DUP1 NOT DUP4 SLOAD AND SWAP2 AND OR SWAP1 SSTORE DUP7 SLOAD PUSH1 0x1 PUSH1 0x40 SHL SWAP8 DUP9 DUP3 LT ISZERO PUSH2 0x1158 JUMPI SWAP1 PUSH2 0xFB5 SWAP2 DUP8 DUP3 ADD DUP2 SSTORE PUSH2 0x2836 JUMP JUMPDEST DUP2 SLOAD SWAP1 PUSH1 0x3 SHL SWAP1 DUP4 DUP7 DUP4 SHL SWAP3 SHL NOT AND OR SWAP1 SSTORE PUSH1 0x40 MLOAD PUSH2 0xFD5 PUSH1 0x40 DUP3 PUSH2 0x2894 JUMP JUMPDEST DUP10 DUP2 MSTORE DUP5 DUP2 ADD SWAP3 DUP4 MSTORE PUSH2 0x137 DUP1 SLOAD SWAP1 DUP10 DUP3 LT ISZERO PUSH2 0x1145 JUMPI SWAP1 PUSH2 0xFFB SWAP2 DUP9 DUP3 ADD DUP2 SSTORE PUSH2 0x2878 JUMP JUMPDEST SWAP2 SWAP1 SWAP2 PUSH2 0x1132 JUMPI SWAP1 DUP7 SWAP2 MLOAD DUP2 SSTORE ADD SWAP2 MLOAD AND PUSH1 0x1 PUSH1 0x1 PUSH1 0x60 SHL SUB PUSH1 0xA0 SHL DUP3 SLOAD AND OR SWAP1 SSTORE PUSH2 0x102B PUSH1 0x44 CALLDATALOAD PUSH2 0x148 PUSH2 0x3055 JUMP JUMPDEST DUP1 DUP8 MSTORE PUSH2 0x144 DUP3 MSTORE PUSH1 0x64 CALLDATALOAD PUSH1 0x40 DUP9 KECCAK256 SSTORE DUP7 MSTORE PUSH2 0x145 DUP2 MSTORE PUSH1 0x84 CALLDATALOAD PUSH1 0x40 DUP8 KECCAK256 SSTORE PUSH1 0x40 MLOAD SWAP1 PUSH2 0x1059 PUSH1 0x40 DUP4 PUSH2 0x2894 JUMP JUMPDEST PUSH1 0xA4 CALLDATALOAD DUP3 MSTORE DUP2 ADD PUSH1 0xC4 CALLDATALOAD DUP2 MSTORE PUSH2 0x18E DUP1 SLOAD SWAP1 DUP7 DUP3 LT ISZERO PUSH2 0x111F JUMPI SWAP1 PUSH2 0x1082 SWAP2 DUP6 DUP3 ADD DUP2 SSTORE PUSH2 0x2878 JUMP JUMPDEST SWAP3 SWAP1 SWAP3 PUSH2 0x110C JUMPI SWAP1 DUP4 SWAP2 MLOAD DUP4 SSTORE MLOAD SWAP2 ADD SSTORE PUSH2 0x150 SWAP2 DUP3 SLOAD SWAP4 DUP5 LT ISZERO PUSH2 0x10FA JUMPI POP DUP3 PUSH32 0x6417E5A3C1E0E5DAE98B8FE718C4BABDFCB35E0D7B5E1B9641B5914756F5D8E3 SWAP5 SWAP3 PUSH2 0x10D5 SWAP3 PUSH1 0x4 SWAP6 ADD DUP2 SSTORE PUSH2 0x2836 JUMP JUMPDEST POP POP PUSH2 0x10EB PUSH2 0x10E3 DUP3 PUSH2 0x3169 JUMP JUMPDEST PUSH2 0x151 PUSH2 0x3055 JUMP JUMPDEST PUSH2 0x897 PUSH1 0x40 MLOAD SWAP3 DUP4 SWAP3 DUP4 PUSH2 0x33FF JUMP JUMPDEST PUSH4 0x4E487B71 PUSH1 0xE0 SHL DUP7 MSTORE PUSH1 0x41 PUSH1 0x4 MSTORE DUP6 REVERT JUMPDEST PUSH4 0x4E487B71 PUSH1 0xE0 SHL DUP9 MSTORE PUSH1 0x4 DUP9 SWAP1 MSTORE DUP5 DUP9 REVERT JUMPDEST PUSH4 0x4E487B71 PUSH1 0xE0 SHL DUP10 MSTORE PUSH1 0x41 PUSH1 0x4 MSTORE DUP6 DUP10 REVERT JUMPDEST PUSH4 0x4E487B71 PUSH1 0xE0 SHL DUP12 MSTORE PUSH1 0x4 DUP12 SWAP1 MSTORE DUP8 DUP12 REVERT JUMPDEST PUSH4 0x4E487B71 PUSH1 0xE0 SHL DUP13 MSTORE PUSH1 0x41 PUSH1 0x4 MSTORE DUP9 DUP13 REVERT JUMPDEST PUSH4 0x4E487B71 PUSH1 0xE0 SHL DUP12 MSTORE PUSH1 0x41 PUSH1 0x4 MSTORE DUP8 DUP12 REVERT JUMPDEST PUSH1 0x40 MLOAD PUSH4 0x3458F6C5 PUSH1 0xE0 SHL DUP2 MSTORE PUSH1 0x4 SWAP1 REVERT JUMPDEST CALLDATASIZE PUSH1 0x3 NOT ADD SLT SWAP1 POP PUSH2 0x4B6 JUMPI PUSH2 0x1194 CALLDATASIZE PUSH1 0x4 PUSH2 0x28E8 JUMP JUMPDEST SWAP1 PUSH2 0x119D PUSH2 0x3467 JUMP JUMPDEST POP PUSH2 0x11A6 PUSH2 0x3DBD JUMP JUMPDEST PUSH2 0x11AE PUSH2 0x3CFF JUMP JUMPDEST SWAP3 SWAP1 PUSH1 0x1 DUP1 PUSH1 0xA0 SHL SUB SWAP3 PUSH2 0x11C4 DUP5 DUP5 MLOAD AND PUSH2 0x3140 JUMP JUMPDEST SWAP1 PUSH2 0x11E4 PUSH2 0x11D2 DUP4 DUP9 PUSH2 0x2E01 JUMP JUMPDEST MLOAD SWAP7 PUSH2 0x11DE DUP9 DUP6 PUSH2 0x3612 JUMP JUMPDEST DUP5 PUSH2 0x35CF JUMP JUMPDEST PUSH1 0x20 DUP7 SWAP8 SWAP3 SWAP8 ADD SWAP7 DUP8 MLOAD PUSH2 0x11F9 DUP4 DUP4 DUP10 PUSH2 0x3C14 JUMP JUMPDEST DUP2 DUP2 LT PUSH2 0x12E7 JUMPI POP POP SWAP1 PUSH2 0x1225 SWAP2 DUP9 MLOAD PUSH8 0xDE0B6B3A7640000 SWAP4 DUP5 SWAP2 PUSH2 0x121F DUP6 DUP6 PUSH2 0x3663 JUMP JUMPDEST SWAP1 PUSH2 0x2F39 JUMP JUMPDEST DIV SWAP7 DUP8 ISZERO PUSH2 0xC11 JUMPI PUSH2 0x1261 SWAP4 PUSH2 0x1258 PUSH2 0x124E DUP14 PUSH2 0x60F DUP15 MLOAD PUSH2 0x121F DUP9 PUSH2 0x60A DUP12 PUSH2 0x131 SLOAD PUSH2 0x2FFE JUMP JUMPDEST PUSH2 0x134 SLOAD SWAP1 PUSH2 0x2F4C JUMP JUMPDEST DIV SWAP11 DUP12 DUP9 PUSH2 0x3ACF JUMP JUMPDEST PUSH1 0x40 DUP6 ADD MLOAD DUP1 DUP9 LT PUSH2 0x12C9 JUMPI POP PUSH2 0x128A DUP2 PUSH1 0x80 DUP8 ADD MLOAD AND DUP6 DUP4 PUSH1 0xC0 DUP10 ADD MLOAD AND PUSH2 0x140 SLOAD SWAP3 PUSH2 0x3692 JUMP JUMPDEST SWAP7 SWAP2 SWAP8 SWAP1 SWAP6 PUSH1 0x60 DUP4 ADD MLOAD DUP1 DUP11 GT PUSH2 0x6D3 JUMPI POP SWAP3 PUSH1 0xA0 DUP6 SWAP4 PUSH2 0x12C0 DUP6 DUP14 SWAP6 PUSH2 0x12BA PUSH2 0x68C SWAP11 PUSH2 0x6CF SWAP15 SWAP14 SWAP13 SWAP11 PUSH2 0x392A JUMP JUMPDEST MLOAD PUSH2 0x3A6E JUMP JUMPDEST ADD MLOAD AND SWAP3 PUSH2 0x348E JUMP JUMPDEST PUSH1 0x44 SWAP1 DUP9 PUSH1 0x40 MLOAD SWAP2 PUSH4 0x272E3F59 PUSH1 0xE2 SHL DUP4 MSTORE PUSH1 0x4 DUP4 ADD MSTORE PUSH1 0x24 DUP3 ADD MSTORE REVERT JUMPDEST PUSH1 0x44 SWAP3 POP PUSH1 0x40 MLOAD SWAP2 PUSH4 0xA5DB715D PUSH1 0xE0 SHL DUP4 MSTORE PUSH1 0x4 DUP4 ADD MSTORE PUSH1 0x24 DUP3 ADD MSTORE REVERT JUMPDEST DUP3 CALLVALUE PUSH2 0x4B6 JUMPI PUSH1 0x20 CALLDATASIZE PUSH1 0x3 NOT ADD SLT PUSH2 0x4B6 JUMPI PUSH1 0x4 CALLDATALOAD PUSH1 0x1 PUSH1 0x1 PUSH1 0xA0 SHL SUB DUP2 AND SWAP1 DUP2 SWAP1 SUB PUSH2 0x54C JUMPI PUSH2 0x1334 PUSH2 0x3E51 JUMP JUMPDEST PUSH2 0x152 DUP1 SLOAD PUSH1 0x1 PUSH1 0x1 PUSH1 0xA0 SHL SUB NOT AND SWAP1 SWAP2 OR SWAP1 SSTORE DUP1 RETURN JUMPDEST DUP3 CALLVALUE PUSH2 0x4B6 JUMPI DUP1 PUSH1 0x3 NOT CALLDATASIZE ADD SLT PUSH2 0x4B6 JUMPI PUSH1 0x20 PUSH2 0x155 SLOAD PUSH1 0x40 MLOAD SWAP1 DUP2 MSTORE RETURN JUMPDEST DUP3 CALLVALUE PUSH2 0x4B6 JUMPI DUP1 PUSH1 0x3 NOT CALLDATASIZE ADD SLT PUSH2 0x4B6 JUMPI PUSH1 0x20 PUSH2 0x13A4 PUSH2 0x138A PUSH1 0x1 PUSH2 0x325B JUMP JUMPDEST PUSH2 0x139E PUSH2 0x1397 DUP3 DUP5 PUSH2 0x2F6C JUMP JUMPDEST SWAP2 DUP4 PUSH2 0x2EB0 JUMP JUMPDEST SWAP2 PUSH2 0x32A2 JUMP JUMPDEST PUSH1 0x40 MLOAD SWAP1 DUP2 MSTORE RETURN JUMPDEST DUP3 CALLVALUE PUSH2 0x4B6 JUMPI DUP1 PUSH1 0x3 NOT CALLDATASIZE ADD SLT PUSH2 0x4B6 JUMPI PUSH2 0x13C5 PUSH2 0x3DBD JUMP JUMPDEST DUP1 RETURN JUMPDEST DUP3 CALLVALUE PUSH2 0x4B6 JUMPI PUSH1 0x20 CALLDATASIZE PUSH1 0x3 NOT ADD SLT PUSH2 0x4B6 JUMPI PUSH1 0x4 CALLDATALOAD PUSH1 0x1 PUSH1 0x1 PUSH1 0xA0 SHL SUB DUP2 AND SWAP1 DUP2 SWAP1 SUB PUSH2 0x54C JUMPI PUSH2 0x13F7 PUSH2 0x3E51 JUMP JUMPDEST PUSH2 0x12F DUP1 SLOAD PUSH1 0x1 PUSH1 0x1 PUSH1 0xA0 SHL SUB NOT AND SWAP1 SWAP2 OR SWAP1 SSTORE DUP1 RETURN JUMPDEST DUP3 CALLVALUE PUSH2 0x4B6 JUMPI PUSH1 0x20 CALLDATASIZE PUSH1 0x3 NOT ADD SLT PUSH2 0x4B6 JUMPI PUSH2 0x1428 PUSH2 0x3E51 JUMP JUMPDEST PUSH1 0x4 CALLDATALOAD PUSH2 0x14C SSTORE DUP1 RETURN JUMPDEST DUP3 CALLVALUE PUSH2 0x4B6 JUMPI PUSH1 0x20 CALLDATASIZE PUSH1 0x3 NOT ADD SLT PUSH2 0x4B6 JUMPI PUSH2 0x144C PUSH2 0x3E51 JUMP JUMPDEST PUSH1 0x4 CALLDATALOAD PUSH2 0x13D SSTORE DUP1 RETURN JUMPDEST DUP3 CALLVALUE PUSH2 0x4B6 JUMPI PUSH1 0x20 CALLDATASIZE PUSH1 0x3 NOT ADD SLT PUSH2 0x4B6 JUMPI PUSH2 0x1470 PUSH2 0x3E51 JUMP JUMPDEST PUSH1 0x4 CALLDATALOAD PUSH2 0x139 SSTORE DUP1 RETURN JUMPDEST DUP3 CALLVALUE PUSH2 0x4B6 JUMPI DUP1 PUSH1 0x3 NOT CALLDATASIZE ADD SLT PUSH2 0x4B6 JUMPI PUSH1 0x20 PUSH1 0xFF PUSH1 0xCA SLOAD AND PUSH1 0x40 MLOAD SWAP1 ISZERO ISZERO DUP2 MSTORE RETURN JUMPDEST DUP3 CALLVALUE PUSH2 0x4B6 JUMPI DUP1 PUSH1 0x3 NOT CALLDATASIZE ADD SLT PUSH2 0x4B6 JUMPI PUSH1 0x20 PUSH2 0x15B SLOAD PUSH1 0x40 MLOAD SWAP1 DUP2 MSTORE RETURN JUMPDEST DUP3 CALLVALUE PUSH2 0x4B6 JUMPI DUP1 PUSH1 0x3 NOT CALLDATASIZE ADD SLT PUSH2 0x4B6 JUMPI PUSH2 0x153 SLOAD PUSH1 0x40 MLOAD PUSH1 0x1 PUSH1 0x1 PUSH1 0xA0 SHL SUB SWAP1 SWAP2 AND DUP2 MSTORE PUSH1 0x20 SWAP1 RETURN JUMPDEST DUP3 CALLVALUE PUSH2 0x4B6 JUMPI DUP1 PUSH1 0x3 NOT CALLDATASIZE ADD SLT PUSH2 0x4B6 JUMPI PUSH1 0x20 PUSH2 0x13D SLOAD PUSH1 0x40 MLOAD SWAP1 DUP2 MSTORE RETURN JUMPDEST DUP3 CALLVALUE PUSH2 0x4B6 JUMPI DUP1 PUSH1 0x3 NOT CALLDATASIZE ADD SLT PUSH2 0x4B6 JUMPI PUSH1 0x20 PUSH2 0x18F SLOAD NUMBER LT ISZERO PUSH1 0x40 MLOAD SWAP1 DUP2 MSTORE RETURN JUMPDEST DUP3 CALLVALUE PUSH2 0x4B6 JUMPI DUP1 PUSH1 0x3 NOT CALLDATASIZE ADD SLT PUSH2 0x4B6 JUMPI PUSH1 0xCA SLOAD PUSH1 0x40 MLOAD PUSH1 0x10 SWAP2 SWAP1 SWAP2 SHR PUSH1 0x1 PUSH1 0x1 PUSH1 0xA0 SHL SUB AND DUP2 MSTORE PUSH1 0x20 SWAP1 RETURN JUMPDEST DUP3 CALLVALUE PUSH2 0x4B6 JUMPI PUSH1 0x20 CALLDATASIZE PUSH1 0x3 NOT ADD SLT PUSH2 0x4B6 JUMPI PUSH1 0x4 CALLDATALOAD PUSH1 0x1 PUSH1 0x1 PUSH1 0xA0 SHL SUB DUP2 AND SWAP1 DUP2 SWAP1 SUB PUSH2 0x54C JUMPI PUSH1 0x40 DUP3 DUP2 SWAP3 DUP2 MSTORE PUSH2 0x136 PUSH1 0x20 MSTORE KECCAK256 PUSH1 0xFF PUSH1 0x1 DUP3 SLOAD SWAP3 ADD SLOAD AND DUP3 MLOAD SWAP2 DUP3 MSTORE ISZERO ISZERO PUSH1 0x20 DUP3 ADD MSTORE RETURN JUMPDEST DUP3 CALLVALUE PUSH2 0x4B6 JUMPI DUP1 PUSH1 0x3 NOT CALLDATASIZE ADD SLT PUSH2 0x4B6 JUMPI PUSH1 0x20 PUSH2 0x15CD PUSH2 0x15C7 PUSH2 0x15C2 PUSH2 0x3221 JUMP JUMPDEST PUSH2 0x2E22 JUMP JUMPDEST SWAP1 PUSH2 0x2FE0 JUMP JUMPDEST PUSH2 0x14A SLOAD LT ISZERO PUSH1 0x40 MLOAD SWAP1 DUP2 MSTORE RETURN JUMPDEST DUP3 CALLVALUE PUSH2 0x4B6 JUMPI DUP1 PUSH1 0x3 NOT CALLDATASIZE ADD SLT PUSH2 0x4B6 JUMPI PUSH2 0x146 SLOAD PUSH1 0x40 MLOAD PUSH1 0x1 PUSH1 0x1 PUSH1 0xA0 SHL SUB SWAP1 SWAP2 AND DUP2 MSTORE PUSH1 0x20 SWAP1 RETURN JUMPDEST DUP3 CALLVALUE PUSH2 0x4B6 JUMPI DUP1 PUSH1 0x3 NOT CALLDATASIZE ADD SLT PUSH2 0x4B6 JUMPI PUSH2 0x158 SLOAD PUSH1 0x40 MLOAD PUSH1 0x1 PUSH1 0x1 PUSH1 0xA0 SHL SUB SWAP1 SWAP2 AND DUP2 MSTORE PUSH1 0x20 SWAP1 RETURN JUMPDEST DUP3 CALLVALUE PUSH2 0x4B6 JUMPI DUP1 PUSH1 0x3 NOT CALLDATASIZE ADD SLT PUSH2 0x4B6 JUMPI PUSH1 0x20 PUSH2 0x14A SLOAD PUSH1 0x40 MLOAD SWAP1 DUP2 MSTORE RETURN JUMPDEST DUP3 CALLVALUE PUSH2 0x4B6 JUMPI PUSH1 0x20 CALLDATASIZE PUSH1 0x3 NOT ADD SLT PUSH2 0x4B6 JUMPI PUSH1 0x4 CALLDATALOAD PUSH1 0x1 PUSH1 0x1 PUSH1 0xA0 SHL SUB DUP2 AND SWAP1 DUP2 SWAP1 SUB PUSH2 0x54C JUMPI PUSH2 0x167D PUSH2 0x3E51 JUMP JUMPDEST PUSH2 0x153 DUP1 SLOAD PUSH1 0x1 PUSH1 0x1 PUSH1 0xA0 SHL SUB NOT AND SWAP1 SWAP2 OR SWAP1 SSTORE DUP1 RETURN JUMPDEST DUP3 CALLVALUE PUSH2 0x4B6 JUMPI DUP1 PUSH1 0x3 NOT CALLDATASIZE ADD SLT PUSH2 0x4B6 JUMPI PUSH2 0x16AD PUSH2 0x3EDF JUMP JUMPDEST PUSH1 0xCA SLOAD PUSH1 0x10 DUP2 SWAP1 SHR PUSH1 0x1 PUSH1 0x1 PUSH1 0xA0 SHL SUB AND CALLER SUB PUSH2 0x1719 JUMPI PUSH1 0xFF DUP2 AND ISZERO PUSH2 0x1707 JUMPI PUSH2 0x100 SWAP1 PUSH2 0xFF00 NOT AND OR PUSH1 0xCA SSTORE PUSH32 0x62E78CEA01BEE320CD4E420270B5EA74000D11B0C9F74754EBDBFC544B05A258 PUSH1 0x20 PUSH1 0x40 MLOAD CALLER DUP2 MSTORE LOG1 DUP1 RETURN JUMPDEST PUSH1 0x40 MLOAD PUSH4 0x866099C3 PUSH1 0xE0 SHL DUP2 MSTORE PUSH1 0x4 SWAP1 REVERT JUMPDEST PUSH1 0x40 MLOAD PUSH4 0x1D77D477 PUSH1 0xE2 SHL DUP2 MSTORE PUSH1 0x4 SWAP1 REVERT JUMPDEST DUP3 CALLVALUE PUSH2 0x4B6 JUMPI DUP1 PUSH1 0x3 NOT CALLDATASIZE ADD SLT PUSH2 0x4B6 JUMPI PUSH1 0x20 PUSH2 0x15A SLOAD PUSH1 0x40 MLOAD SWAP1 DUP2 MSTORE RETURN JUMPDEST DUP3 CALLVALUE PUSH2 0x4B6 JUMPI DUP1 PUSH1 0x3 NOT CALLDATASIZE ADD SLT PUSH2 0x4B6 JUMPI PUSH1 0x20 PUSH2 0x13A4 PUSH2 0x176A PUSH1 0x1 PUSH2 0x325B JUMP JUMPDEST PUSH2 0x139E PUSH2 0x1777 DUP3 DUP5 PUSH2 0x2EB0 JUMP JUMPDEST SWAP2 DUP4 PUSH2 0x2F6C JUMP JUMPDEST DUP3 CALLVALUE PUSH2 0x4B6 JUMPI DUP1 PUSH1 0x3 NOT CALLDATASIZE ADD SLT PUSH2 0x4B6 JUMPI PUSH2 0x1C3 SLOAD PUSH1 0x40 MLOAD PUSH1 0x1 PUSH1 0x1 PUSH1 0xA0 SHL SUB SWAP1 SWAP2 AND DUP2 MSTORE PUSH1 0x20 SWAP1 RETURN JUMPDEST DUP3 CALLVALUE PUSH2 0x4B6 JUMPI PUSH1 0x20 CALLDATASIZE PUSH1 0x3 NOT ADD SLT PUSH2 0x4B6 JUMPI PUSH1 0x4 CALLDATALOAD SWAP1 PUSH2 0x148 SWAP1 DUP2 SLOAD DUP4 LT ISZERO PUSH2 0x4B6 JUMPI PUSH1 0x20 PUSH2 0x17D7 DUP5 DUP5 PUSH2 0x2836 JUMP JUMPDEST SWAP1 SLOAD PUSH1 0x40 MLOAD SWAP2 PUSH1 0x3 SHL SHR DUP2 MSTORE RETURN JUMPDEST DUP3 CALLVALUE PUSH2 0x4B6 JUMPI PUSH1 0x20 CALLDATASIZE PUSH1 0x3 NOT ADD SLT PUSH2 0x4B6 JUMPI PUSH2 0x17FF PUSH2 0x3E51 JUMP JUMPDEST PUSH1 0x4 CALLDATALOAD PUSH2 0x149 SSTORE DUP1 RETURN JUMPDEST CALLDATASIZE PUSH1 0x3 NOT ADD SLT SWAP1 POP PUSH2 0x4B6 JUMPI PUSH2 0x1820 CALLDATASIZE PUSH1 0x4 PUSH2 0x28E8 JUMP JUMPDEST PUSH2 0x1828 PUSH2 0x3467 JUMP JUMPDEST POP PUSH2 0x1831 PUSH2 0x3DBD JUMP JUMPDEST PUSH2 0x1839 PUSH2 0x3CFF JUMP JUMPDEST DUP3 MLOAD PUSH1 0x1 PUSH1 0x1 PUSH1 0xA0 SHL SUB SWAP4 SWAP3 SWAP2 SWAP1 PUSH2 0x1852 SWAP1 DUP6 AND PUSH2 0x3140 JUMP JUMPDEST PUSH2 0x186B PUSH2 0x185F DUP3 DUP5 PUSH2 0x2E01 JUMP JUMPDEST MLOAD SWAP3 PUSH2 0xB21 DUP5 DUP5 PUSH2 0x3612 JUMP JUMPDEST SWAP6 SWAP1 SWAP4 PUSH2 0x1878 DUP8 DUP7 PUSH2 0x2FE0 JUMP JUMPDEST SWAP1 DUP1 DUP3 LT ISZERO PUSH2 0x19DD JUMPI POP JUMPDEST PUSH2 0x188D DUP5 DUP5 PUSH2 0x3C5C JUMP JUMPDEST DUP1 DUP3 LT ISZERO PUSH2 0x19D6 JUMPI POP JUMPDEST PUSH1 0x20 DUP7 ADD SWAP1 PUSH2 0x18A7 DUP6 DUP4 MLOAD PUSH2 0x2F39 JUMP JUMPDEST SWAP1 PUSH2 0x18B2 DUP10 DUP9 PUSH2 0x3663 JUMP JUMPDEST PUSH8 0xDE0B6B3A763FFFF NOT DUP3 ADD SWAP2 DUP3 GT PUSH2 0x19C2 JUMPI PUSH2 0x18D3 SWAP3 SWAP2 PUSH2 0x614 SWAP2 PUSH2 0x2F39 JUMP JUMPDEST SWAP7 PUSH1 0x40 DUP8 ADD MLOAD DUP1 DUP10 GT PUSH2 0x19A4 JUMPI POP PUSH2 0x18ED SWAP1 DUP3 MLOAD SWAP7 PUSH2 0x3663 JUMP JUMPDEST SWAP5 PUSH8 0xDE0B6B3A7640000 SWAP5 DUP6 DUP10 MUL SWAP1 DUP10 DUP3 DIV DUP8 EQ DUP11 ISZERO OR ISZERO PUSH2 0xC41 JUMPI PUSH2 0x1912 SWAP2 PUSH2 0x2F4C JUMP JUMPDEST SWAP1 DUP2 ISZERO PUSH2 0xC11 JUMPI PUSH2 0x1936 PUSH2 0x195B SWAP7 PUSH2 0x192F PUSH1 0x60 SWAP10 PUSH2 0x1950 SWAP5 PUSH2 0x2F39 JUMP JUMPDEST DIV DUP4 PUSH2 0x2E15 JUMP JUMPDEST SWAP4 DUP5 DUP2 PUSH1 0x80 DUP12 ADD MLOAD AND SWAP2 PUSH1 0xC0 DUP12 ADD MLOAD AND PUSH2 0x141 SLOAD SWAP3 PUSH2 0x3692 JUMP JUMPDEST SWAP8 SWAP2 DUP6 SWAP8 SWAP2 SWAP8 PUSH2 0x2FFE JUMP JUMPDEST SWAP8 ADD MLOAD DUP1 DUP9 LT PUSH2 0x1986 JUMPI POP SWAP3 PUSH2 0x1981 DUP9 SWAP10 SWAP4 PUSH2 0x6CF SWAP9 SWAP10 SWAP4 PUSH2 0x12BA PUSH1 0x1 PUSH2 0x68C SWAP9 PUSH2 0x392A JUMP JUMPDEST PUSH2 0x39E4 JUMP JUMPDEST PUSH1 0x44 SWAP1 DUP9 PUSH1 0x40 MLOAD SWAP2 PUSH4 0x54CDE313 PUSH1 0xE0 SHL DUP4 MSTORE PUSH1 0x4 DUP4 ADD MSTORE PUSH1 0x24 DUP3 ADD MSTORE REVERT JUMPDEST PUSH1 0x44 SWAP1 DUP10 PUSH1 0x40 MLOAD SWAP2 PUSH4 0x7A031DA3 PUSH1 0xE1 SHL DUP4 MSTORE PUSH1 0x4 DUP4 ADD MSTORE PUSH1 0x24 DUP3 ADD MSTORE REVERT JUMPDEST PUSH4 0x4E487B71 PUSH1 0xE0 SHL DUP12 MSTORE PUSH1 0x11 PUSH1 0x4 MSTORE PUSH1 0x24 DUP12 REVERT JUMPDEST SWAP1 POP PUSH2 0x1897 JUMP JUMPDEST SWAP1 POP PUSH2 0x1883 JUMP JUMPDEST DUP3 CALLVALUE PUSH2 0x4B6 JUMPI PUSH1 0x20 CALLDATASIZE PUSH1 0x3 NOT ADD SLT PUSH2 0x4B6 JUMPI PUSH2 0x19FE PUSH2 0x3E51 JUMP JUMPDEST PUSH1 0x4 CALLDATALOAD PUSH2 0x140 SSTORE DUP1 RETURN JUMPDEST DUP3 CALLVALUE PUSH2 0x4B6 JUMPI DUP1 PUSH1 0x3 NOT CALLDATASIZE ADD SLT PUSH2 0x4B6 JUMPI PUSH1 0x20 PUSH2 0x190 SLOAD PUSH1 0x40 MLOAD SWAP1 DUP2 MSTORE RETURN JUMPDEST DUP3 CALLVALUE PUSH2 0x4B6 JUMPI PUSH1 0x20 CALLDATASIZE PUSH1 0x3 NOT ADD SLT PUSH2 0x4B6 JUMPI PUSH2 0x1A41 PUSH2 0x3E51 JUMP JUMPDEST PUSH1 0x4 CALLDATALOAD PUSH2 0x141 SSTORE DUP1 RETURN JUMPDEST DUP3 CALLVALUE PUSH2 0x4B6 JUMPI DUP1 PUSH1 0x3 NOT CALLDATASIZE ADD SLT PUSH2 0x4B6 JUMPI PUSH1 0x20 PUSH2 0x134 SLOAD PUSH1 0x40 MLOAD SWAP1 DUP2 MSTORE RETURN JUMPDEST DUP3 CALLVALUE PUSH2 0x4B6 JUMPI DUP1 PUSH1 0x3 NOT CALLDATASIZE ADD SLT PUSH2 0x4B6 JUMPI PUSH1 0x20 PUSH2 0x142 SLOAD PUSH1 0x40 MLOAD SWAP1 DUP2 MSTORE RETURN JUMPDEST DUP3 CALLVALUE PUSH2 0x4B6 JUMPI PUSH1 0x20 CALLDATASIZE PUSH1 0x3 NOT ADD SLT PUSH2 0x4B6 JUMPI PUSH2 0x1AA3 PUSH2 0x3E51 JUMP JUMPDEST PUSH1 0x4 CALLDATALOAD PUSH2 0x13B SSTORE DUP1 RETURN JUMPDEST DUP3 CALLVALUE PUSH2 0x4B6 JUMPI DUP1 PUSH1 0x3 NOT CALLDATASIZE ADD SLT PUSH2 0x4B6 JUMPI PUSH1 0x20 PUSH2 0x156 SLOAD PUSH1 0x40 MLOAD SWAP1 DUP2 MSTORE RETURN JUMPDEST DUP3 CALLVALUE PUSH2 0x4B6 JUMPI DUP1 PUSH1 0x3 NOT CALLDATASIZE ADD SLT PUSH2 0x4B6 JUMPI PUSH1 0x20 PUSH2 0x139 SLOAD PUSH1 0x40 MLOAD SWAP1 DUP2 MSTORE RETURN JUMPDEST DUP3 CALLVALUE PUSH2 0x4B6 JUMPI PUSH1 0x20 CALLDATASIZE PUSH1 0x3 NOT ADD SLT PUSH2 0x4B6 JUMPI PUSH2 0x1B05 PUSH2 0x3E51 JUMP JUMPDEST PUSH1 0x4 CALLDATALOAD PUSH2 0x154 SSTORE DUP1 RETURN JUMPDEST DUP3 CALLVALUE PUSH2 0x4B6 JUMPI PUSH1 0x20 CALLDATASIZE PUSH1 0x3 NOT ADD SLT PUSH2 0x4B6 JUMPI PUSH1 0x4 CALLDATALOAD PUSH1 0x1 PUSH1 0x1 PUSH1 0xA0 SHL SUB DUP2 AND SWAP1 DUP2 SWAP1 SUB PUSH2 0x54C JUMPI PUSH2 0x1B3E PUSH2 0x3E51 JUMP JUMPDEST PUSH2 0x158 DUP1 SLOAD PUSH1 0x1 PUSH1 0x1 PUSH1 0xA0 SHL SUB NOT AND SWAP1 SWAP2 OR SWAP1 SSTORE DUP1 RETURN JUMPDEST DUP3 CALLVALUE PUSH2 0x4B6 JUMPI PUSH1 0x20 CALLDATASIZE PUSH1 0x3 NOT ADD SLT PUSH2 0x4B6 JUMPI PUSH2 0x1B6F PUSH2 0x3E51 JUMP JUMPDEST PUSH1 0x4 CALLDATALOAD PUSH2 0x13E SSTORE DUP1 RETURN JUMPDEST DUP3 CALLVALUE PUSH2 0x4B6 JUMPI DUP1 PUSH1 0x3 NOT CALLDATASIZE ADD SLT PUSH2 0x4B6 JUMPI PUSH1 0x20 PUSH2 0x154 SLOAD PUSH1 0x40 MLOAD SWAP1 DUP2 MSTORE RETURN JUMPDEST DUP3 CALLVALUE PUSH2 0x4B6 JUMPI DUP1 PUSH1 0x3 NOT CALLDATASIZE ADD SLT PUSH2 0x4B6 JUMPI PUSH1 0x20 PUSH2 0x149 SLOAD PUSH1 0x40 MLOAD SWAP1 DUP2 MSTORE RETURN JUMPDEST DUP3 CALLVALUE PUSH2 0x4B6 JUMPI PUSH1 0x80 CALLDATASIZE PUSH1 0x3 NOT ADD SLT PUSH2 0x4B6 JUMPI PUSH1 0x4 CALLDATALOAD PUSH1 0x1 PUSH1 0x1 PUSH1 0xA0 SHL SUB DUP2 DUP2 AND SWAP3 SWAP1 DUP4 DUP4 SUB PUSH2 0x54C JUMPI PUSH1 0x24 CALLDATALOAD DUP2 DUP2 AND SWAP2 DUP3 DUP3 SUB PUSH2 0x54C JUMPI PUSH1 0x44 CALLDATALOAD DUP2 DUP2 AND DUP1 SWAP2 SUB PUSH2 0x54C JUMPI PUSH1 0x64 CALLDATALOAD SWAP6 PUSH1 0xFF PUSH2 0x14B SLOAD PUSH1 0x8 SHR AND ISZERO PUSH2 0x1DA4 JUMPI PUSH2 0x1C17 SWAP1 PUSH2 0x3140 JUMP JUMPDEST SWAP1 PUSH2 0x1C24 DUP3 PUSH2 0x135 PUSH2 0x2836 JUMP JUMPDEST SWAP6 SWAP1 SLOAD SWAP9 PUSH1 0x40 MLOAD SWAP7 PUSH4 0x70A08231 PUSH1 0xE0 SHL DUP9 MSTORE DUP3 PUSH1 0x4 DUP10 ADD MSTORE DUP8 PUSH1 0x24 DUP2 DUP9 PUSH1 0x20 SWAP15 DUP16 SWAP6 PUSH1 0x3 SHL SHR AND GAS STATICCALL SWAP7 DUP8 ISZERO PUSH2 0x1D99 JUMPI DUP9 SWAP8 PUSH2 0x1D6A JUMPI JUMPDEST POP DUP7 ISZERO PUSH2 0x1D4C JUMPI PUSH2 0x1C7E PUSH2 0x1C71 DUP6 PUSH2 0x138 PUSH2 0x2836 JUMP JUMPDEST SWAP1 SLOAD SWAP1 PUSH1 0x3 SHL SHR DUP9 PUSH2 0x3F00 JUMP JUMPDEST SWAP9 DUP10 DUP2 LT PUSH2 0x1D42 JUMPI JUMPDEST POP SWAP1 PUSH2 0x1CC6 SWAP4 SWAP3 SWAP2 PUSH32 0xFAAB3901CD2D6E9B5D0A0C6E34C643B8C844726F3C54DE69517E571BF24BBD92 PUSH1 0x40 DUP13 DUP13 DUP3 MLOAD SWAP2 DUP13 DUP4 MSTORE DUP3 ADD MSTORE LOG4 PUSH2 0x135 PUSH2 0x2836 JUMP JUMPDEST SWAP1 SLOAD SWAP1 PUSH1 0x3 SHL SHR AND SWAP1 DUP2 EXTCODESIZE ISZERO PUSH2 0x1D3E JUMPI PUSH1 0x40 MLOAD PUSH4 0x2770A7EB PUSH1 0xE2 SHL DUP2 MSTORE PUSH1 0x1 PUSH1 0x1 PUSH1 0xA0 SHL SUB SWAP2 SWAP1 SWAP2 AND PUSH1 0x4 DUP3 ADD MSTORE PUSH1 0x24 DUP2 ADD SWAP3 SWAP1 SWAP3 MSTORE DUP3 SWAP1 DUP3 SWAP1 PUSH1 0x44 SWAP1 DUP3 SWAP1 DUP5 SWAP1 GAS CALL DUP1 ISZERO PUSH2 0x1D33 JUMPI PUSH2 0x1D1E JUMPI JUMPDEST POP POP PUSH1 0x40 MLOAD SWAP1 DUP2 MSTORE RETURN JUMPDEST PUSH2 0x1D29 DUP3 DUP1 SWAP3 PUSH2 0x2894 JUMP JUMPDEST PUSH2 0x4B6 JUMPI DUP1 PUSH2 0x1D14 JUMP JUMPDEST PUSH1 0x40 MLOAD RETURNDATASIZE DUP5 DUP3 RETURNDATACOPY RETURNDATASIZE SWAP1 REVERT JUMPDEST DUP4 DUP1 REVERT JUMPDEST SWAP9 POP PUSH2 0x1CC6 PUSH2 0x1C87 JUMP JUMPDEST PUSH1 0x44 DUP8 PUSH1 0x40 MLOAD SWAP1 PUSH4 0x3FE8C5EB PUSH1 0xE0 SHL DUP3 MSTORE DUP1 PUSH1 0x4 DUP4 ADD MSTORE PUSH1 0x24 DUP3 ADD MSTORE REVERT JUMPDEST SWAP1 SWAP7 POP DUP10 DUP2 DUP2 RETURNDATASIZE DUP4 GT PUSH2 0x1D92 JUMPI JUMPDEST PUSH2 0x1D82 DUP2 DUP4 PUSH2 0x2894 JUMP JUMPDEST DUP2 ADD SUB SLT PUSH2 0x54C JUMPI MLOAD SWAP6 DUP11 PUSH2 0x1C5B JUMP JUMPDEST POP RETURNDATASIZE PUSH2 0x1D78 JUMP JUMPDEST PUSH1 0x40 MLOAD RETURNDATASIZE DUP11 DUP3 RETURNDATACOPY RETURNDATASIZE SWAP1 REVERT JUMPDEST PUSH1 0x40 MLOAD PUSH4 0x31B0D35 PUSH1 0xE1 SHL DUP2 MSTORE PUSH1 0x4 SWAP1 REVERT JUMPDEST DUP3 CALLVALUE PUSH2 0x4B6 JUMPI DUP1 PUSH1 0x3 NOT CALLDATASIZE ADD SLT PUSH2 0x4B6 JUMPI PUSH2 0x1DCF PUSH2 0x3E51 JUMP JUMPDEST PUSH1 0x1 PUSH1 0xFF NOT PUSH1 0xCA SLOAD AND OR PUSH1 0xCA SSTORE DUP1 RETURN JUMPDEST DUP3 CALLVALUE PUSH2 0x4B6 JUMPI DUP1 PUSH1 0x3 NOT CALLDATASIZE ADD SLT PUSH2 0x4B6 JUMPI PUSH1 0x20 PUSH2 0x1DFA PUSH2 0x3CFF JUMP JUMPDEST POP PUSH1 0x40 MLOAD SWAP1 DUP2 MSTORE RETURN JUMPDEST DUP3 CALLVALUE PUSH2 0x4B6 JUMPI PUSH1 0x20 CALLDATASIZE PUSH1 0x3 NOT ADD SLT PUSH2 0x4B6 JUMPI PUSH2 0x1E1D PUSH2 0x3E51 JUMP JUMPDEST PUSH1 0x4 CALLDATALOAD PUSH2 0x159 SSTORE DUP1 RETURN JUMPDEST DUP3 CALLVALUE PUSH2 0x4B6 JUMPI DUP1 PUSH1 0x3 NOT CALLDATASIZE ADD SLT PUSH2 0x4B6 JUMPI PUSH2 0x12F SLOAD PUSH1 0x40 MLOAD PUSH1 0x1 PUSH1 0x1 PUSH1 0xA0 SHL SUB SWAP1 SWAP2 AND DUP2 MSTORE PUSH1 0x20 SWAP1 RETURN JUMPDEST DUP3 CALLVALUE PUSH2 0x4B6 JUMPI DUP1 PUSH1 0x3 NOT CALLDATASIZE ADD SLT PUSH2 0x4B6 JUMPI PUSH2 0x133 SLOAD PUSH1 0x40 MLOAD PUSH1 0x1 PUSH1 0x1 PUSH1 0xA0 SHL SUB SWAP1 SWAP2 AND DUP2 MSTORE PUSH1 0x20 SWAP1 RETURN JUMPDEST DUP3 CALLVALUE PUSH2 0x4B6 JUMPI DUP1 PUSH1 0x3 NOT CALLDATASIZE ADD SLT PUSH2 0x4B6 JUMPI PUSH1 0x20 PUSH2 0x14E SLOAD PUSH1 0x40 MLOAD SWAP1 DUP2 MSTORE RETURN JUMPDEST DUP3 CALLVALUE PUSH2 0x4B6 JUMPI DUP1 PUSH1 0x3 NOT CALLDATASIZE ADD SLT PUSH2 0x4B6 JUMPI PUSH1 0x20 PUSH1 0xFF PUSH1 0xCA SLOAD PUSH1 0x8 SHR AND PUSH1 0x40 MLOAD SWAP1 ISZERO ISZERO DUP2 MSTORE RETURN JUMPDEST DUP3 CALLVALUE PUSH2 0x4B6 JUMPI DUP1 PUSH1 0x3 NOT CALLDATASIZE ADD SLT PUSH2 0x4B6 JUMPI PUSH1 0x20 PUSH2 0x157 SLOAD PUSH1 0x40 MLOAD SWAP1 DUP2 MSTORE RETURN JUMPDEST DUP3 CALLVALUE PUSH2 0x4B6 JUMPI PUSH1 0x20 CALLDATASIZE PUSH1 0x3 NOT ADD SLT PUSH2 0x4B6 JUMPI PUSH2 0x1EF9 PUSH2 0x3E51 JUMP JUMPDEST PUSH1 0x4 CALLDATALOAD PUSH2 0x143 SSTORE DUP1 RETURN JUMPDEST DUP3 CALLVALUE PUSH2 0x4B6 JUMPI DUP1 PUSH1 0x3 NOT CALLDATASIZE ADD SLT PUSH2 0x4B6 JUMPI PUSH32 0x0 PUSH1 0x1 PUSH1 0x1 PUSH1 0xA0 SHL SUB AND ADDRESS SUB PUSH2 0x1F6E JUMPI PUSH1 0x20 PUSH1 0x40 MLOAD PUSH32 0x360894A13BA1A3210667C828492DB98DCA3E2076CC3735A920A3CA505D382BBC DUP2 MSTORE RETURN JUMPDEST PUSH1 0x40 MLOAD PUSH3 0x461BCD PUSH1 0xE5 SHL DUP2 MSTORE PUSH1 0x20 PUSH1 0x4 DUP3 ADD MSTORE PUSH1 0x38 PUSH1 0x24 DUP3 ADD MSTORE PUSH32 0x555550535570677261646561626C653A206D757374206E6F742062652063616C PUSH1 0x44 DUP3 ADD MSTORE PUSH32 0x6C6564207468726F7567682064656C656761746563616C6C0000000000000000 PUSH1 0x64 DUP3 ADD MSTORE PUSH1 0x84 SWAP1 REVERT JUMPDEST DUP3 CALLVALUE PUSH2 0x4B6 JUMPI DUP1 PUSH1 0x3 NOT CALLDATASIZE ADD SLT PUSH2 0x4B6 JUMPI PUSH2 0x1FF2 PUSH2 0x3E51 JUMP JUMPDEST PUSH1 0xFF NOT PUSH1 0xCA SLOAD AND PUSH1 0xCA SSTORE DUP1 RETURN JUMPDEST DUP3 PUSH1 0x40 CALLDATASIZE PUSH1 0x3 NOT ADD SLT PUSH2 0x4B6 JUMPI PUSH1 0x1 PUSH1 0x1 PUSH1 0xA0 SHL SUB PUSH1 0x4 CALLDATALOAD DUP2 DUP2 AND DUP2 SUB PUSH2 0x54C JUMPI DUP3 SWAP2 PUSH1 0x24 CALLDATALOAD SWAP2 PUSH8 0xFFFFFFFFFFFFFFFF DUP4 GT PUSH2 0x20EE JUMPI CALLDATASIZE PUSH1 0x23 DUP5 ADD SLT ISZERO PUSH2 0x20EE JUMPI DUP3 PUSH1 0x4 ADD CALLDATALOAD PUSH2 0x204E DUP2 PUSH2 0x28CC JUMP JUMPDEST SWAP3 PUSH2 0x205C PUSH1 0x40 MLOAD SWAP5 DUP6 PUSH2 0x2894 JUMP JUMPDEST DUP2 DUP5 MSTORE CALLDATASIZE PUSH1 0x24 DUP4 DUP8 ADD ADD GT PUSH2 0x20EA JUMPI PUSH2 0x13C5 SWAP6 PUSH1 0x20 DUP4 PUSH2 0x20DD SWAP5 PUSH1 0x24 PUSH1 0x1 SWAP10 ADD DUP4 DUP10 ADD CALLDATACOPY DUP7 ADD ADD MSTORE DUP1 PUSH32 0x0 AND SWAP1 PUSH2 0x20B4 DUP3 ADDRESS EQ ISZERO PUSH2 0x2960 JUMP JUMPDEST PUSH32 0x360894A13BA1A3210667C828492DB98DCA3E2076CC3735A920A3CA505D382BBC SLOAD AND EQ PUSH2 0x29C1 JUMP JUMPDEST PUSH2 0x20E5 PUSH2 0x3E51 JUMP JUMPDEST PUSH2 0x2A22 JUMP JUMPDEST DUP6 DUP1 REVERT JUMPDEST POP POP POP REVERT JUMPDEST DUP3 CALLVALUE PUSH2 0x4B6 JUMPI DUP1 PUSH1 0x3 NOT CALLDATASIZE ADD SLT PUSH2 0x4B6 JUMPI PUSH1 0x20 PUSH2 0x13B SLOAD PUSH1 0x40 MLOAD SWAP1 DUP2 MSTORE RETURN JUMPDEST DUP3 CALLVALUE PUSH2 0x4B6 JUMPI DUP1 PUSH1 0x3 NOT CALLDATASIZE ADD SLT PUSH2 0x4B6 JUMPI PUSH2 0x147 SLOAD PUSH1 0x40 MLOAD PUSH1 0x1 PUSH1 0x1 PUSH1 0xA0 SHL SUB SWAP1 SWAP2 AND DUP2 MSTORE PUSH1 0x20 SWAP1 RETURN JUMPDEST DUP3 CALLVALUE PUSH2 0x4B6 JUMPI DUP1 PUSH1 0x3 NOT CALLDATASIZE ADD SLT PUSH2 0x4B6 JUMPI PUSH1 0x20 PUSH2 0x14C SLOAD PUSH1 0x40 MLOAD SWAP1 DUP2 MSTORE RETURN JUMPDEST DUP3 CALLVALUE PUSH2 0x4B6 JUMPI PUSH1 0x20 CALLDATASIZE PUSH1 0x3 NOT ADD SLT PUSH2 0x4B6 JUMPI PUSH1 0x4 CALLDATALOAD SWAP1 PUSH2 0x137 SWAP1 DUP2 SLOAD DUP4 LT ISZERO PUSH2 0x4B6 JUMPI PUSH1 0x40 PUSH2 0x218A DUP5 DUP5 PUSH2 0x2878 JUMP JUMPDEST POP DUP1 SLOAD PUSH1 0x1 SWAP1 SWAP2 ADD SLOAD DUP3 MLOAD SWAP2 DUP3 MSTORE PUSH1 0x1 PUSH1 0x1 PUSH1 0xA0 SHL SUB AND PUSH1 0x20 DUP3 ADD MSTORE RETURN JUMPDEST DUP3 CALLVALUE PUSH2 0x4B6 JUMPI DUP1 PUSH1 0x3 NOT CALLDATASIZE ADD SLT PUSH2 0x4B6 JUMPI PUSH1 0x20 PUSH2 0x13E SLOAD PUSH1 0x40 MLOAD SWAP1 DUP2 MSTORE RETURN JUMPDEST DUP3 CALLVALUE PUSH2 0x4B6 JUMPI DUP1 PUSH1 0x3 NOT CALLDATASIZE ADD SLT PUSH2 0x4B6 JUMPI PUSH1 0xCA SLOAD PUSH1 0xFF DUP2 PUSH1 0x8 SHR AND ISZERO PUSH2 0x2230 JUMPI PUSH1 0x10 DUP2 SWAP1 SHR PUSH1 0x1 PUSH1 0x1 PUSH1 0xA0 SHL SUB AND CALLER SUB PUSH2 0x1719 JUMPI PUSH2 0xFF00 NOT AND PUSH1 0xCA SSTORE PUSH32 0x5DB9EE0A495BF2E6FF9C91A7834C1BA4FDD244A5E8AA4E537BD38AEAE4B073AA PUSH1 0x20 PUSH1 0x40 MLOAD CALLER DUP2 MSTORE LOG1 DUP1 RETURN JUMPDEST PUSH1 0x40 MLOAD PUSH4 0x7C7FD079 PUSH1 0xE0 SHL DUP2 MSTORE PUSH1 0x4 SWAP1 REVERT JUMPDEST DUP3 CALLVALUE PUSH2 0x4B6 JUMPI PUSH1 0x20 CALLDATASIZE PUSH1 0x3 NOT ADD SLT PUSH2 0x4B6 JUMPI PUSH1 0x4 CALLDATALOAD PUSH1 0x1 PUSH1 0x1 PUSH1 0xA0 SHL SUB DUP2 AND SWAP1 DUP2 SWAP1 SUB PUSH2 0x54C JUMPI PUSH2 0x2271 PUSH2 0x3E51 JUMP JUMPDEST PUSH2 0x14F DUP1 SLOAD PUSH1 0x1 PUSH1 0x1 PUSH1 0xA0 SHL SUB NOT AND SWAP1 SWAP2 OR SWAP1 SSTORE DUP1 RETURN JUMPDEST DUP3 CALLVALUE PUSH2 0x4B6 JUMPI PUSH1 0x20 CALLDATASIZE PUSH1 0x3 NOT ADD SLT PUSH2 0x4B6 JUMPI PUSH2 0x22A2 PUSH2 0x3E51 JUMP JUMPDEST PUSH1 0x4 CALLDATALOAD PUSH2 0x190 SSTORE DUP1 RETURN JUMPDEST DUP3 CALLVALUE PUSH2 0x4B6 JUMPI PUSH1 0x20 CALLDATASIZE PUSH1 0x3 NOT ADD SLT PUSH2 0x4B6 JUMPI PUSH1 0x4 CALLDATALOAD SWAP1 PUSH2 0x138 SWAP1 DUP2 SLOAD DUP4 LT ISZERO PUSH2 0x4B6 JUMPI PUSH1 0x20 PUSH2 0x17D7 DUP5 DUP5 PUSH2 0x2836 JUMP JUMPDEST DUP3 CALLVALUE PUSH2 0x4B6 JUMPI PUSH1 0x20 CALLDATASIZE PUSH1 0x3 NOT ADD SLT PUSH2 0x4B6 JUMPI PUSH1 0x4 CALLDATALOAD PUSH1 0x1 PUSH1 0x1 PUSH1 0xA0 SHL SUB DUP1 DUP3 AND DUP3 SUB PUSH2 0x54C JUMPI PUSH2 0x13C5 SWAP2 PUSH2 0x233A DUP3 DUP6 SWAP4 PUSH32 0x0 AND SWAP1 PUSH2 0x20B4 DUP3 ADDRESS EQ ISZERO PUSH2 0x2960 JUMP JUMPDEST PUSH2 0x2342 PUSH2 0x3E51 JUMP JUMPDEST PUSH2 0x234B DUP3 PUSH2 0x28CC JUMP JUMPDEST SWAP1 PUSH2 0x2359 PUSH1 0x40 MLOAD SWAP3 DUP4 PUSH2 0x2894 JUMP JUMPDEST DUP3 DUP3 MSTORE PUSH1 0x1F NOT PUSH2 0x2368 DUP5 PUSH2 0x28CC JUMP JUMPDEST ADD CALLDATASIZE PUSH1 0x20 DUP5 ADD CALLDATACOPY PUSH2 0x2A22 JUMP JUMPDEST DUP3 CALLVALUE PUSH2 0x4B6 JUMPI DUP1 PUSH1 0x3 NOT CALLDATASIZE ADD SLT PUSH2 0x4B6 JUMPI PUSH2 0x238D PUSH2 0x3EDF JUMP JUMPDEST PUSH2 0x14B DUP1 SLOAD PUSH1 0xFF DUP2 AND DUP1 PUSH2 0x2457 JUMPI JUMPDEST DUP1 PUSH2 0x243D JUMPI JUMPDEST PUSH2 0x23AA JUMPI DUP3 DUP1 RETURN JUMPDEST PUSH2 0xFF00 NOT AND PUSH2 0x100 OR SWAP1 SSTORE PUSH1 0x40 MLOAD PUSH32 0x8B77276C97A5709F0D6DB52329848A254EB760CE8BE80D281799F633BDB69E83 DUP3 DUP1 LOG1 PUSH2 0x133 SLOAD DUP3 SWAP1 PUSH1 0x1 PUSH1 0x1 PUSH1 0xA0 SHL SUB AND DUP1 EXTCODESIZE ISZERO PUSH2 0x965 JUMPI DUP3 PUSH1 0x4 DUP2 DUP5 DUP1 SWAP5 PUSH4 0x8456CB59 PUSH1 0xE0 SHL DUP4 MSTORE GAS CALL DUP1 ISZERO PUSH2 0x2430 JUMPI PUSH2 0x2420 JUMPI JUMPDEST POP POP PUSH2 0x241A PUSH2 0x3092 JUMP JUMPDEST DUP2 DUP1 DUP3 DUP1 RETURN JUMPDEST PUSH2 0x2429 SWAP2 PUSH2 0x2894 JUMP JUMPDEST DUP2 DUP2 PUSH2 0x2410 JUMP JUMPDEST POP PUSH1 0x40 MLOAD SWAP1 RETURNDATASIZE SWAP1 DUP3 RETURNDATACOPY RETURNDATASIZE SWAP1 REVERT JUMPDEST POP PUSH2 0x244C PUSH2 0x15C7 PUSH2 0x15C2 PUSH2 0x3221 JUMP JUMPDEST PUSH2 0x14A SLOAD LT ISZERO PUSH2 0x23A2 JUMP JUMPDEST POP PUSH1 0xFF DUP2 PUSH1 0x8 SHR AND ISZERO PUSH2 0x239C JUMP JUMPDEST DUP3 CALLVALUE PUSH2 0x4B6 JUMPI DUP1 PUSH1 0x3 NOT CALLDATASIZE ADD SLT PUSH2 0x4B6 JUMPI PUSH1 0x20 PUSH2 0x13F SLOAD PUSH1 0x40 MLOAD SWAP1 DUP2 MSTORE RETURN JUMPDEST DUP3 CALLVALUE PUSH2 0x4B6 JUMPI DUP1 PUSH1 0x3 NOT CALLDATASIZE ADD SLT PUSH2 0x4B6 JUMPI PUSH1 0x20 PUSH2 0x143 SLOAD PUSH1 0x40 MLOAD SWAP1 DUP2 MSTORE RETURN JUMPDEST DUP3 CALLVALUE PUSH2 0x4B6 JUMPI PUSH1 0x20 CALLDATASIZE PUSH1 0x3 NOT ADD SLT PUSH2 0x4B6 JUMPI PUSH1 0x4 CALLDATALOAD PUSH1 0x1 PUSH1 0x1 PUSH1 0xA0 SHL SUB DUP2 AND DUP2 SUB PUSH2 0x965 JUMPI PUSH2 0x24D0 PUSH2 0x3E51 JUMP JUMPDEST PUSH1 0xCA DUP1 SLOAD PUSH3 0x10000 PUSH1 0x1 PUSH1 0xB0 SHL SUB NOT AND PUSH1 0x10 SWAP3 SWAP1 SWAP3 SHL PUSH3 0x10000 PUSH1 0x1 PUSH1 0xB0 SHL SUB AND SWAP2 SWAP1 SWAP2 OR SWAP1 SSTORE DUP1 RETURN JUMPDEST DUP3 CALLVALUE PUSH2 0x4B6 JUMPI PUSH1 0x20 CALLDATASIZE PUSH1 0x3 NOT ADD SLT PUSH2 0x4B6 JUMPI PUSH2 0x2514 PUSH2 0x3E51 JUMP JUMPDEST PUSH1 0x4 CALLDATALOAD PUSH2 0x14A SSTORE DUP1 RETURN JUMPDEST DUP3 CALLVALUE PUSH2 0x4B6 JUMPI DUP1 PUSH1 0x3 NOT CALLDATASIZE ADD SLT PUSH2 0x4B6 JUMPI PUSH1 0x20 PUSH2 0x140 SLOAD PUSH1 0x40 MLOAD SWAP1 DUP2 MSTORE RETURN JUMPDEST DUP3 CALLVALUE PUSH2 0x4B6 JUMPI PUSH1 0x20 CALLDATASIZE PUSH1 0x3 NOT ADD SLT PUSH2 0x4B6 JUMPI PUSH1 0x4 CALLDATALOAD PUSH1 0x1 PUSH1 0x1 PUSH1 0xA0 SHL SUB DUP2 AND SWAP1 DUP2 SWAP1 SUB PUSH2 0x965 JUMPI PUSH2 0x256C PUSH2 0x3E51 JUMP JUMPDEST PUSH2 0x147 DUP1 SLOAD PUSH1 0x1 PUSH1 0x1 PUSH1 0xA0 SHL SUB NOT AND SWAP1 SWAP2 OR SWAP1 SSTORE DUP1 RETURN JUMPDEST DUP3 CALLVALUE PUSH2 0x4B6 JUMPI PUSH1 0x20 CALLDATASIZE PUSH1 0x3 NOT ADD SLT PUSH2 0x4B6 JUMPI PUSH1 0x4 CALLDATALOAD PUSH1 0x1 PUSH1 0x1 PUSH1 0xA0 SHL SUB DUP2 AND SWAP1 DUP2 SWAP1 SUB PUSH2 0x965 JUMPI DUP2 PUSH1 0x40 SWAP2 PUSH1 0x20 SWAP4 MSTORE PUSH2 0x144 DUP4 MSTORE KECCAK256 SLOAD PUSH1 0x40 MLOAD SWAP1 DUP2 MSTORE RETURN JUMPDEST DUP3 CALLVALUE PUSH2 0x4B6 JUMPI DUP1 PUSH1 0x3 NOT CALLDATASIZE ADD SLT PUSH2 0x4B6 JUMPI PUSH1 0x20 PUSH1 0xFF PUSH2 0x14B SLOAD PUSH1 0x8 SHR AND PUSH1 0x40 MLOAD SWAP1 ISZERO ISZERO DUP2 MSTORE RETURN JUMPDEST DUP3 CALLVALUE PUSH2 0x4B6 JUMPI PUSH1 0x20 CALLDATASIZE PUSH1 0x3 NOT ADD SLT PUSH2 0x4B6 JUMPI PUSH2 0x2602 PUSH2 0x3E51 JUMP JUMPDEST PUSH1 0x4 CALLDATALOAD PUSH2 0x142 SSTORE DUP1 RETURN JUMPDEST DUP3 CALLVALUE PUSH2 0x4B6 JUMPI PUSH1 0x20 CALLDATASIZE PUSH1 0x3 NOT ADD SLT PUSH2 0x4B6 JUMPI PUSH1 0x4 CALLDATALOAD DUP1 ISZERO ISZERO DUP1 SWAP2 SUB PUSH2 0x965 JUMPI PUSH2 0x2633 PUSH2 0x3E51 JUMP JUMPDEST PUSH2 0x14B SWAP1 PUSH1 0xFF DUP1 NOT DUP4 SLOAD AND SWAP2 AND OR SWAP1 SSTORE DUP1 RETURN JUMPDEST DUP3 CALLVALUE PUSH2 0x4B6 JUMPI DUP1 PUSH1 0x3 NOT CALLDATASIZE ADD SLT PUSH2 0x4B6 JUMPI PUSH1 0x20 PUSH2 0x14D SLOAD PUSH1 0x40 MLOAD SWAP1 DUP2 MSTORE RETURN JUMPDEST DUP3 CALLVALUE PUSH2 0x4B6 JUMPI DUP1 PUSH1 0x3 NOT CALLDATASIZE ADD SLT PUSH2 0x4B6 JUMPI PUSH2 0x14F SLOAD PUSH1 0x40 MLOAD PUSH1 0x1 PUSH1 0x1 PUSH1 0xA0 SHL SUB SWAP1 SWAP2 AND DUP2 MSTORE PUSH1 0x20 SWAP1 RETURN JUMPDEST DUP3 CALLVALUE PUSH2 0x4B6 JUMPI PUSH1 0x20 CALLDATASIZE PUSH1 0x3 NOT ADD SLT PUSH2 0x4B6 JUMPI PUSH1 0x4 CALLDATALOAD PUSH1 0x1 PUSH1 0x1 PUSH1 0xA0 SHL SUB DUP2 AND SWAP1 DUP2 SWAP1 SUB PUSH2 0x965 JUMPI PUSH2 0x26BE PUSH2 0x3E51 JUMP JUMPDEST PUSH2 0x130 DUP1 SLOAD PUSH1 0x1 PUSH1 0x1 PUSH1 0xA0 SHL SUB NOT AND SWAP1 SWAP2 OR SWAP1 SSTORE DUP1 RETURN JUMPDEST DUP3 CALLVALUE PUSH2 0x4B6 JUMPI PUSH1 0x20 CALLDATASIZE PUSH1 0x3 NOT ADD SLT PUSH2 0x4B6 JUMPI PUSH2 0x26EF PUSH2 0x3E51 JUMP JUMPDEST PUSH1 0x4 CALLDATALOAD PUSH2 0x13F SSTORE DUP1 RETURN JUMPDEST DUP3 CALLVALUE PUSH2 0x4B6 JUMPI DUP1 PUSH1 0x3 NOT CALLDATASIZE ADD SLT PUSH2 0x4B6 JUMPI PUSH1 0x20 PUSH2 0x159 SLOAD PUSH1 0x40 MLOAD SWAP1 DUP2 MSTORE RETURN JUMPDEST DUP3 CALLVALUE PUSH2 0x4B6 JUMPI PUSH1 0x20 CALLDATASIZE PUSH1 0x3 NOT ADD SLT PUSH2 0x4B6 JUMPI PUSH1 0x4 CALLDATALOAD PUSH1 0x1 PUSH1 0x1 PUSH1 0xA0 SHL SUB DUP2 AND SWAP1 DUP2 SWAP1 SUB PUSH2 0x965 JUMPI PUSH2 0x2747 PUSH2 0x3E51 JUMP JUMPDEST PUSH2 0x146 DUP1 SLOAD PUSH1 0x1 PUSH1 0x1 PUSH1 0xA0 SHL SUB NOT AND SWAP1 SWAP2 OR SWAP1 SSTORE DUP1 RETURN JUMPDEST DUP3 CALLVALUE PUSH2 0x4B6 JUMPI DUP1 PUSH1 0x3 NOT CALLDATASIZE ADD SLT PUSH2 0x4B6 JUMPI PUSH1 0x20 PUSH2 0x18F SLOAD PUSH1 0x40 MLOAD SWAP1 DUP2 MSTORE RETURN JUMPDEST DUP3 CALLVALUE PUSH2 0x4B6 JUMPI DUP1 PUSH1 0x3 NOT CALLDATASIZE ADD SLT PUSH2 0x4B6 JUMPI PUSH1 0x97 SLOAD PUSH1 0x40 MLOAD PUSH1 0x1 PUSH1 0x1 PUSH1 0xA0 SHL SUB SWAP1 SWAP2 AND DUP2 MSTORE PUSH1 0x20 SWAP1 RETURN JUMPDEST DUP3 CALLVALUE PUSH2 0x4B6 JUMPI PUSH1 0x20 CALLDATASIZE PUSH1 0x3 NOT ADD SLT PUSH2 0x4B6 JUMPI PUSH2 0x27C0 PUSH2 0x3E51 JUMP JUMPDEST PUSH1 0x4 CALLDATALOAD PUSH2 0x15A SSTORE DUP1 RETURN JUMPDEST DUP3 CALLVALUE PUSH2 0x4B6 JUMPI PUSH1 0x20 CALLDATASIZE PUSH1 0x3 NOT ADD SLT PUSH2 0x4B6 JUMPI PUSH1 0x4 CALLDATALOAD SWAP1 PUSH2 0x135 SWAP1 DUP2 SLOAD DUP4 LT ISZERO PUSH2 0x4B6 JUMPI PUSH1 0x20 PUSH2 0x27F9 DUP5 DUP5 PUSH2 0x2836 JUMP JUMPDEST SWAP1 SLOAD PUSH1 0x40 MLOAD PUSH1 0x3 SWAP3 SWAP1 SWAP3 SHL SHR PUSH1 0x1 PUSH1 0x1 PUSH1 0xA0 SHL SUB AND DUP2 MSTORE RETURN JUMPDEST DUP3 CALLVALUE PUSH2 0x4B6 JUMPI PUSH1 0x20 CALLDATASIZE PUSH1 0x3 NOT ADD SLT PUSH2 0x4B6 JUMPI PUSH2 0x282C PUSH2 0x3E51 JUMP JUMPDEST PUSH1 0x4 CALLDATALOAD PUSH2 0x13A SSTORE DUP1 RETURN JUMPDEST DUP1 SLOAD DUP3 LT ISZERO PUSH2 0x284E JUMPI PUSH1 0x0 MSTORE PUSH1 0x20 PUSH1 0x0 KECCAK256 ADD SWAP1 PUSH1 0x0 SWAP1 JUMP JUMPDEST PUSH4 0x4E487B71 PUSH1 0xE0 SHL PUSH1 0x0 MSTORE PUSH1 0x32 PUSH1 0x4 MSTORE PUSH1 0x24 PUSH1 0x0 REVERT JUMPDEST CALLDATALOAD SWAP1 PUSH1 0x1 PUSH1 0x1 PUSH1 0xA0 SHL SUB DUP3 AND DUP3 SUB PUSH2 0x54C JUMPI JUMP JUMPDEST DUP1 SLOAD DUP3 LT ISZERO PUSH2 0x284E JUMPI PUSH1 0x0 MSTORE PUSH1 0x20 PUSH1 0x0 KECCAK256 SWAP1 PUSH1 0x1 SHL ADD SWAP1 PUSH1 0x0 SWAP1 JUMP JUMPDEST SWAP1 PUSH1 0x1F DUP1 NOT SWAP2 ADD AND DUP2 ADD SWAP1 DUP2 LT PUSH8 0xFFFFFFFFFFFFFFFF DUP3 GT OR PUSH2 0x28B6 JUMPI PUSH1 0x40 MSTORE JUMP JUMPDEST PUSH4 0x4E487B71 PUSH1 0xE0 SHL PUSH1 0x0 MSTORE PUSH1 0x41 PUSH1 0x4 MSTORE PUSH1 0x24 PUSH1 0x0 REVERT JUMPDEST PUSH8 0xFFFFFFFFFFFFFFFF DUP2 GT PUSH2 0x28B6 JUMPI PUSH1 0x1F ADD PUSH1 0x1F NOT AND PUSH1 0x20 ADD SWAP1 JUMP JUMPDEST SWAP2 SWAP1 DUP3 PUSH1 0xE0 SWAP2 SUB SLT PUSH2 0x54C JUMPI PUSH1 0x40 MLOAD PUSH2 0x2902 PUSH1 0xE0 DUP3 PUSH2 0x2894 JUMP JUMPDEST PUSH1 0xC0 PUSH2 0x295B DUP2 DUP4 SWAP6 PUSH2 0x2913 DUP2 PUSH2 0x2864 JUMP JUMPDEST DUP6 MSTORE PUSH1 0x20 DUP2 ADD CALLDATALOAD PUSH1 0x20 DUP7 ADD MSTORE PUSH1 0x40 DUP2 ADD CALLDATALOAD PUSH1 0x40 DUP7 ADD MSTORE PUSH1 0x60 DUP2 ADD CALLDATALOAD PUSH1 0x60 DUP7 ADD MSTORE PUSH2 0x293F PUSH1 0x80 DUP3 ADD PUSH2 0x2864 JUMP JUMPDEST PUSH1 0x80 DUP7 ADD MSTORE PUSH2 0x2950 PUSH1 0xA0 DUP3 ADD PUSH2 0x2864 JUMP JUMPDEST PUSH1 0xA0 DUP7 ADD MSTORE ADD PUSH2 0x2864 JUMP JUMPDEST SWAP2 ADD MSTORE JUMP JUMPDEST ISZERO PUSH2 0x2967 JUMPI JUMP JUMPDEST PUSH1 0x40 MLOAD PUSH3 0x461BCD PUSH1 0xE5 SHL DUP2 MSTORE PUSH1 0x20 PUSH1 0x4 DUP3 ADD MSTORE PUSH1 0x2C PUSH1 0x24 DUP3 ADD MSTORE PUSH32 0x46756E6374696F6E206D7573742062652063616C6C6564207468726F75676820 PUSH1 0x44 DUP3 ADD MSTORE PUSH12 0x19195B1959D85D1958D85B1B PUSH1 0xA2 SHL PUSH1 0x64 DUP3 ADD MSTORE PUSH1 0x84 SWAP1 REVERT JUMPDEST ISZERO PUSH2 0x29C8 JUMPI JUMP JUMPDEST PUSH1 0x40 MLOAD PUSH3 0x461BCD PUSH1 0xE5 SHL DUP2 MSTORE PUSH1 0x20 PUSH1 0x4 DUP3 ADD MSTORE PUSH1 0x2C PUSH1 0x24 DUP3 ADD MSTORE PUSH32 0x46756E6374696F6E206D7573742062652063616C6C6564207468726F75676820 PUSH1 0x44 DUP3 ADD MSTORE PUSH12 0x6163746976652070726F7879 PUSH1 0xA0 SHL PUSH1 0x64 DUP3 ADD MSTORE PUSH1 0x84 SWAP1 REVERT JUMPDEST SWAP1 SWAP2 PUSH1 0xFF PUSH32 0x4910FDFA16FED3260ED0E7147F7CC6DA11A60208B5B9406D12A635614FFD9143 SLOAD AND PUSH1 0x0 EQ PUSH2 0x2A5D JUMPI POP PUSH2 0x2A5B SWAP2 POP PUSH2 0x2C8B JUMP JUMPDEST JUMP JUMPDEST PUSH1 0x40 DUP1 MLOAD PUSH4 0x52D1902D PUSH1 0xE0 SHL DUP2 MSTORE PUSH1 0x20 SWAP5 SWAP2 SWAP4 SWAP3 SWAP1 PUSH1 0x1 PUSH1 0x1 PUSH1 0xA0 SHL SUB DUP5 AND SWAP1 DUP7 DUP2 PUSH1 0x4 DUP2 DUP6 GAS STATICCALL PUSH1 0x0 SWAP2 DUP2 PUSH2 0x2C5C JUMPI JUMPDEST POP PUSH2 0x2AEE JUMPI DUP6 MLOAD PUSH3 0x461BCD PUSH1 0xE5 SHL DUP2 MSTORE PUSH1 0x4 DUP2 ADD DUP9 SWAP1 MSTORE PUSH1 0x2E PUSH1 0x24 DUP3 ADD MSTORE PUSH32 0x45524331393637557067726164653A206E657720696D706C656D656E74617469 PUSH1 0x44 DUP3 ADD MSTORE PUSH14 0x6F6E206973206E6F742055555053 PUSH1 0x90 SHL PUSH1 0x64 DUP3 ADD MSTORE PUSH1 0x84 SWAP1 REVERT JUMPDEST SWAP4 SWAP6 SWAP3 SWAP5 SWAP3 SWAP4 PUSH32 0xC9F76B5EC45E5CDEF99837D7B6D2467235C1DF8933C8CA56DF5C35AFA2C7D444 ADD PUSH2 0x2C06 JUMPI PUSH2 0x2B23 DUP7 PUSH2 0x2C8B JUMP JUMPDEST PUSH32 0xBC7CD75A20EE27FD9ADEBAB32041F755214DBC6BFFA90CC0225B39DA2E5C2D3B PUSH1 0x0 DUP1 LOG2 DUP4 MLOAD ISZERO SWAP1 DUP2 ISZERO SWAP2 PUSH2 0x2BFE JUMPI JUMPDEST POP PUSH2 0x2B60 JUMPI JUMPDEST POP POP POP POP JUMP JUMPDEST PUSH2 0x2BEA SWAP4 PUSH1 0x0 DUP1 PUSH2 0x2B71 PUSH1 0x27 PUSH2 0x28CC JUMP JUMPDEST SWAP6 PUSH2 0x2B7E DUP6 MLOAD SWAP8 DUP9 PUSH2 0x2894 JUMP JUMPDEST PUSH1 0x27 DUP8 MSTORE PUSH32 0x416464726573733A206C6F772D6C6576656C2064656C65676174652063616C6C DUP7 DUP9 ADD MSTORE PUSH7 0x819985A5B1959 PUSH1 0xCA SHL DUP6 DUP9 ADD MSTORE DUP6 DUP2 MLOAD SWAP2 ADD DUP5 GAS DELEGATECALL SWAP2 RETURNDATASIZE ISZERO PUSH2 0x2BF4 JUMPI RETURNDATASIZE PUSH2 0x2BDB PUSH2 0x2BD2 DUP3 PUSH2 0x28CC JUMP JUMPDEST SWAP3 MLOAD SWAP3 DUP4 PUSH2 0x2894 JUMP JUMPDEST DUP2 MSTORE PUSH1 0x0 DUP2 SWAP5 RETURNDATASIZE SWAP3 ADD RETURNDATACOPY PUSH2 0x2D2D JUMP JUMPDEST POP CODESIZE DUP1 DUP1 DUP1 PUSH2 0x2B5A JUMP JUMPDEST POP PUSH1 0x60 SWAP3 POP PUSH2 0x2D2D JUMP JUMPDEST SWAP1 POP CODESIZE PUSH2 0x2B54 JUMP JUMPDEST DUP3 MLOAD PUSH3 0x461BCD PUSH1 0xE5 SHL DUP2 MSTORE PUSH1 0x4 DUP2 ADD DUP6 SWAP1 MSTORE PUSH1 0x29 PUSH1 0x24 DUP3 ADD MSTORE PUSH32 0x45524331393637557067726164653A20756E737570706F727465642070726F78 PUSH1 0x44 DUP3 ADD MSTORE PUSH9 0x1A58589B1955555251 PUSH1 0xBA SHL PUSH1 0x64 DUP3 ADD MSTORE PUSH1 0x84 SWAP1 REVERT JUMPDEST SWAP1 SWAP2 DUP9 DUP3 DUP2 RETURNDATASIZE DUP4 GT PUSH2 0x2C84 JUMPI JUMPDEST PUSH2 0x2C73 DUP2 DUP4 PUSH2 0x2894 JUMP JUMPDEST DUP2 ADD SUB SLT PUSH2 0x4B6 JUMPI POP MLOAD SWAP1 CODESIZE PUSH2 0x2A8E JUMP JUMPDEST POP RETURNDATASIZE PUSH2 0x2C69 JUMP JUMPDEST DUP1 EXTCODESIZE ISZERO PUSH2 0x2CD2 JUMPI PUSH32 0x360894A13BA1A3210667C828492DB98DCA3E2076CC3735A920A3CA505D382BBC DUP1 SLOAD PUSH1 0x1 PUSH1 0x1 PUSH1 0xA0 SHL SUB NOT AND PUSH1 0x1 PUSH1 0x1 PUSH1 0xA0 SHL SUB SWAP1 SWAP3 AND SWAP2 SWAP1 SWAP2 OR SWAP1 SSTORE JUMP JUMPDEST PUSH1 0x40 MLOAD PUSH3 0x461BCD PUSH1 0xE5 SHL DUP2 MSTORE PUSH1 0x20 PUSH1 0x4 DUP3 ADD MSTORE PUSH1 0x2D PUSH1 0x24 DUP3 ADD MSTORE PUSH32 0x455243313936373A206E657720696D706C656D656E746174696F6E206973206E PUSH1 0x44 DUP3 ADD MSTORE PUSH13 0x1BDD08184818DBDB9D1C9858DD PUSH1 0x9A SHL PUSH1 0x64 DUP3 ADD MSTORE PUSH1 0x84 SWAP1 REVERT JUMPDEST SWAP2 SWAP3 SWAP1 ISZERO PUSH2 0x2D8F JUMPI POP DUP2 MLOAD ISZERO PUSH2 0x2D41 JUMPI POP SWAP1 JUMP JUMPDEST EXTCODESIZE ISZERO PUSH2 0x2D4A JUMPI SWAP1 JUMP JUMPDEST PUSH1 0x40 MLOAD PUSH3 0x461BCD PUSH1 0xE5 SHL DUP2 MSTORE PUSH1 0x20 PUSH1 0x4 DUP3 ADD MSTORE PUSH1 0x1D PUSH1 0x24 DUP3 ADD MSTORE PUSH32 0x416464726573733A2063616C6C20746F206E6F6E2D636F6E7472616374000000 PUSH1 0x44 DUP3 ADD MSTORE PUSH1 0x64 SWAP1 REVERT JUMPDEST DUP3 MLOAD SWAP1 SWAP2 POP ISZERO PUSH2 0x2DA2 JUMPI POP DUP1 MLOAD SWAP1 PUSH1 0x20 ADD REVERT JUMPDEST PUSH1 0x40 MLOAD SWAP1 PUSH3 0x461BCD PUSH1 0xE5 SHL DUP3 MSTORE DUP2 PUSH1 0x20 DUP1 PUSH1 0x4 DUP4 ADD MSTORE DUP3 MLOAD SWAP1 DUP2 PUSH1 0x24 DUP5 ADD MSTORE PUSH1 0x0 SWAP4 JUMPDEST DUP3 DUP6 LT PUSH2 0x2DE8 JUMPI POP POP PUSH1 0x44 SWAP3 POP PUSH1 0x0 DUP4 DUP3 DUP5 ADD ADD MSTORE PUSH1 0x1F DUP1 NOT SWAP2 ADD AND DUP2 ADD SUB ADD SWAP1 REVERT JUMPDEST DUP5 DUP2 ADD DUP3 ADD MLOAD DUP7 DUP7 ADD PUSH1 0x44 ADD MSTORE SWAP4 DUP2 ADD SWAP4 DUP6 SWAP4 POP PUSH2 0x2DC5 JUMP JUMPDEST DUP1 MLOAD DUP3 LT ISZERO PUSH2 0x284E JUMPI PUSH1 0x20 SWAP2 PUSH1 0x5 SHL ADD ADD SWAP1 JUMP JUMPDEST SWAP2 SWAP1 DUP3 ADD DUP1 SWAP3 GT PUSH2 0xC41 JUMPI JUMP JUMPDEST SWAP1 PUSH1 0x0 SWAP2 PUSH1 0x0 SWAP1 PUSH2 0x137 DUP1 SLOAD SWAP1 PUSH1 0x0 SWAP3 JUMPDEST DUP3 DUP5 LT PUSH2 0x2E59 JUMPI POP POP POP POP PUSH2 0x2E55 PUSH8 0xDE0B6B3A7640000 SWAP2 PUSH2 0x139 SLOAD SWAP1 PUSH2 0x2F39 JUMP JUMPDEST DIV SWAP1 JUMP JUMPDEST SWAP1 SWAP2 SWAP3 SWAP4 SWAP6 PUSH2 0x2EA6 PUSH2 0x2E95 PUSH2 0x2EA0 PUSH1 0x1 SWAP4 PUSH2 0x2E9A PUSH2 0x2E77 DUP11 DUP9 PUSH2 0x2E01 JUMP JUMPDEST MLOAD PUSH2 0x2E82 DUP2 DUP13 PUSH2 0x2ECC JUMP JUMPDEST SWAP6 SWAP1 PUSH2 0x2E8E DUP14 DUP13 PUSH2 0x2878 JUMP JUMPDEST POP SLOAD PUSH2 0x2E15 JUMP JUMPDEST PUSH2 0x3F00 JUMP JUMPDEST SWAP1 PUSH2 0x2E15 JUMP JUMPDEST SWAP9 PUSH2 0x2E15 JUMP JUMPDEST SWAP5 ADD SWAP3 SWAP2 SWAP1 PUSH2 0x2E33 JUMP JUMPDEST SWAP2 SWAP1 SWAP2 PUSH1 0x0 DUP4 DUP3 ADD SWAP4 DUP5 SLT SWAP2 SLT SWAP1 DUP1 ISZERO DUP3 AND SWAP2 ISZERO AND OR PUSH2 0xC41 JUMPI JUMP JUMPDEST SWAP2 SWAP1 PUSH1 0x0 SWAP1 PUSH2 0x2EFA DUP2 PUSH1 0x0 SWAP6 PUSH2 0x2EF0 PUSH2 0x2EE7 DUP3 PUSH2 0x150 PUSH2 0x2836 JUMP JUMPDEST SWAP4 SWAP1 SLOAD SWAP3 PUSH2 0x2F85 JUMP JUMPDEST SWAP2 PUSH1 0x3 SHL SHR PUSH2 0x2EB0 JUMP JUMPDEST PUSH1 0x0 DUP2 SGT PUSH2 0x2F09 JUMPI JUMPDEST POP POP SWAP2 SWAP1 JUMP JUMPDEST PUSH2 0x2F31 SWAP2 SWAP5 POP PUSH2 0x2F2B SWAP3 POP DUP1 SWAP5 PUSH8 0xDE0B6B3A7640000 SWAP4 DUP5 SWAP2 PUSH2 0x13A SLOAD PUSH2 0x2F39 JUMP JUMPDEST DIV PUSH2 0x2F39 JUMP JUMPDEST DIV CODESIZE DUP1 PUSH2 0x2F03 JUMP JUMPDEST DUP2 DUP2 MUL SWAP3 SWAP2 DUP2 ISZERO SWAP2 DUP5 DIV EQ OR ISZERO PUSH2 0xC41 JUMPI JUMP JUMPDEST DUP2 ISZERO PUSH2 0x2F56 JUMPI DIV SWAP1 JUMP JUMPDEST PUSH4 0x4E487B71 PUSH1 0xE0 SHL PUSH1 0x0 MSTORE PUSH1 0x12 PUSH1 0x4 MSTORE PUSH1 0x24 PUSH1 0x0 REVERT JUMPDEST DUP2 DUP2 SUB SWAP3 SWAP2 PUSH1 0x0 SGT DUP1 ISZERO DUP3 DUP6 SGT AND SWAP2 DUP5 SLT AND OR PUSH2 0xC41 JUMPI JUMP JUMPDEST PUSH2 0x2F91 DUP2 PUSH2 0x137 PUSH2 0x2878 JUMP JUMPDEST POP SLOAD SWAP1 PUSH8 0xDE0B6B3A7640000 SWAP2 DUP3 DUP2 MUL SWAP3 DUP2 DUP5 DIV EQ SWAP1 ISZERO OR ISZERO PUSH2 0xC41 JUMPI PUSH2 0x2FDD SWAP3 PUSH2 0x2FD1 PUSH2 0x2FC4 PUSH2 0x2FD7 SWAP4 PUSH2 0x151 PUSH2 0x2836 JUMP JUMPDEST SWAP1 SLOAD SWAP1 PUSH1 0x3 SHL SHR DUP5 PUSH2 0x2F4C JUMP JUMPDEST SWAP3 PUSH2 0x2F4C JUMP JUMPDEST SWAP1 PUSH2 0x2F6C JUMP JUMPDEST SWAP1 JUMP JUMPDEST DUP1 ISZERO PUSH2 0x2FF6 JUMPI PUSH2 0x2E95 PUSH2 0x2FDD SWAP3 PUSH2 0x131 SLOAD PUSH2 0x2FFE JUMP JUMPDEST POP POP PUSH1 0x0 NOT SWAP1 JUMP JUMPDEST SWAP2 SWAP1 DUP3 SUB SWAP2 DUP3 GT PUSH2 0xC41 JUMPI JUMP JUMPDEST PUSH8 0xFFFFFFFFFFFFFFFF DUP2 GT PUSH2 0x28B6 JUMPI PUSH1 0x5 SHL PUSH1 0x20 ADD SWAP1 JUMP JUMPDEST SWAP1 PUSH2 0x302D DUP3 PUSH2 0x300B JUMP JUMPDEST PUSH2 0x303A PUSH1 0x40 MLOAD SWAP2 DUP3 PUSH2 0x2894 JUMP JUMPDEST DUP3 DUP2 MSTORE DUP1 SWAP3 PUSH2 0x304B PUSH1 0x1F NOT SWAP2 PUSH2 0x300B JUMP JUMPDEST ADD SWAP1 PUSH1 0x20 CALLDATASIZE SWAP2 ADD CALLDATACOPY JUMP JUMPDEST DUP1 SLOAD SWAP1 PUSH1 0x1 PUSH1 0x40 SHL DUP3 LT ISZERO PUSH2 0x28B6 JUMPI DUP2 PUSH2 0x3077 SWAP2 PUSH1 0x1 PUSH2 0x308E SWAP5 ADD DUP2 SSTORE PUSH2 0x2836 JUMP JUMPDEST DUP2 SWAP4 SWAP2 SLOAD SWAP1 PUSH1 0x3 SHL SWAP2 DUP3 SHL SWAP2 PUSH1 0x0 NOT SWAP1 SHL NOT AND OR SWAP1 JUMP JUMPDEST SWAP1 SSTORE JUMP JUMPDEST PUSH2 0x131 SLOAD DUP1 ISZERO PUSH2 0x313D JUMPI PUSH2 0x137 SWAP1 DUP2 SLOAD SWAP2 PUSH1 0x0 SWAP1 PUSH2 0x30AF DUP5 PUSH2 0x3023 JUMP JUMPDEST SWAP1 DUP3 SWAP1 JUMPDEST DUP6 DUP3 LT PUSH2 0x30F9 JUMPI POP POP PUSH1 0x0 JUMPDEST DUP5 DUP2 LT PUSH2 0x30CD JUMPI POP POP POP POP POP JUMP JUMPDEST DUP1 PUSH2 0x30F3 PUSH2 0x30EB DUP7 PUSH2 0xB63 DUP8 PUSH2 0x30E5 PUSH1 0x1 SWAP8 DUP10 PUSH2 0x2E01 JUMP JUMPDEST MLOAD PUSH2 0x2F39 JUMP JUMPDEST PUSH2 0x138 PUSH2 0x3055 JUMP JUMPDEST ADD PUSH2 0x30BF JUMP JUMPDEST SWAP1 SWAP3 PUSH2 0x3135 PUSH1 0x1 SWAP2 PUSH2 0x310A DUP7 PUSH2 0x3169 JUMP JUMPDEST PUSH2 0x3114 DUP8 DUP8 PUSH2 0x2E01 JUMP JUMPDEST MSTORE PUSH2 0x2E9A PUSH2 0x3122 DUP8 DUP7 PUSH2 0x2878 JUMP JUMPDEST POP SLOAD PUSH2 0x312E DUP9 DUP9 PUSH2 0x2E01 JUMP JUMPDEST MLOAD SWAP1 PUSH2 0x3F00 JUMP JUMPDEST SWAP4 ADD SWAP1 PUSH2 0x30B3 JUMP JUMPDEST POP JUMP JUMPDEST PUSH1 0x1 PUSH1 0x1 PUSH1 0xA0 SHL SUB AND PUSH1 0x0 SWAP1 DUP2 MSTORE PUSH2 0x136 PUSH1 0x20 MSTORE PUSH1 0x40 SWAP1 KECCAK256 PUSH1 0x1 DUP2 ADD SLOAD PUSH1 0xFF AND ISZERO PUSH2 0x917 JUMPI SLOAD SWAP1 JUMP JUMPDEST PUSH2 0x3175 SWAP1 PUSH2 0x137 PUSH2 0x2878 JUMP JUMPDEST POP PUSH1 0x1 ADD SLOAD PUSH1 0x1 PUSH1 0x1 PUSH1 0xA0 SHL SUB AND PUSH2 0x318C DUP2 PUSH2 0x31BF JUMP JUMPDEST SWAP2 SWAP1 SWAP2 ISZERO PUSH2 0x534 JUMPI POP SWAP1 JUMP JUMPDEST MLOAD SWAP1 DUP2 ISZERO ISZERO DUP3 SUB PUSH2 0x54C JUMPI JUMP JUMPDEST SWAP2 SWAP1 DUP3 PUSH1 0x40 SWAP2 SUB SLT PUSH2 0x54C JUMPI PUSH2 0x2FDD PUSH1 0x20 DUP4 MLOAD SWAP4 ADD PUSH2 0x3198 JUMP JUMPDEST PUSH1 0x40 DUP1 MLOAD PUSH4 0x59E02DD7 PUSH1 0xE0 SHL DUP2 MSTORE SWAP3 SWAP2 DUP4 SWAP1 PUSH1 0x4 SWAP1 DUP3 SWAP1 PUSH1 0x1 PUSH1 0x1 PUSH1 0xA0 SHL SUB AND GAS STATICCALL SWAP2 DUP3 ISZERO PUSH2 0x3215 JUMPI PUSH1 0x0 SWAP1 DUP2 SWAP4 PUSH2 0x31F6 JUMPI POP SWAP2 SWAP1 JUMP JUMPDEST SWAP1 POP PUSH2 0x3211 SWAP2 SWAP3 POP PUSH1 0x40 RETURNDATASIZE DUP2 GT PUSH2 0x953 JUMPI PUSH2 0x943 DUP2 DUP4 PUSH2 0x2894 JUMP JUMPDEST SWAP1 SWAP2 JUMP JUMPDEST PUSH1 0x40 MLOAD RETURNDATASIZE PUSH1 0x0 DUP3 RETURNDATACOPY RETURNDATASIZE SWAP1 REVERT JUMPDEST PUSH2 0x137 SLOAD SWAP1 PUSH2 0x322F DUP3 PUSH2 0x3023 JUMP JUMPDEST SWAP2 PUSH1 0x0 JUMPDEST DUP2 DUP2 LT PUSH2 0x323E JUMPI POP POP JUMP JUMPDEST DUP1 PUSH2 0x324A PUSH1 0x1 SWAP3 PUSH2 0x3169 JUMP JUMPDEST PUSH2 0x3254 DUP3 DUP8 PUSH2 0x2E01 JUMP JUMPDEST MSTORE ADD PUSH2 0x3233 JUMP JUMPDEST SWAP1 PUSH2 0x327C PUSH8 0xDE0B6B3A7640000 SWAP3 DUP4 PUSH2 0x157 SLOAD PUSH2 0x154 SLOAD SWAP3 NUMBER ADD SUB MUL PUSH2 0x2F4C JUMP JUMPDEST DUP3 DUP2 LT ISZERO PUSH2 0x3299 JUMPI DUP3 SUB SWAP2 DUP1 DUP4 PUSH2 0x155 SLOAD MUL DIV SWAP3 PUSH2 0x156 SLOAD MUL SDIV SWAP1 JUMP JUMPDEST POP PUSH1 0x0 SWAP2 POP DUP2 SWAP1 JUMP JUMPDEST SWAP1 SWAP2 PUSH2 0x32AC PUSH2 0x3304 JUMP JUMPDEST SWAP3 SWAP1 DUP1 DUP3 LT ISZERO PUSH2 0x32FA JUMPI DUP4 SWAP2 PUSH2 0x32C1 SWAP2 PUSH2 0x2FFE JUMP JUMPDEST SWAP4 GT ISZERO PUSH2 0x32F5 JUMPI DUP2 DUP2 LT ISZERO PUSH2 0x32ED JUMPI PUSH2 0x32D9 SWAP2 PUSH2 0x2FFE JUMP JUMPDEST PUSH1 0x1 SHR DUP1 DUP3 LT ISZERO PUSH2 0x32E8 JUMPI POP SWAP1 JUMP JUMPDEST SWAP1 POP SWAP1 JUMP JUMPDEST POP POP POP PUSH1 0x0 SWAP1 JUMP JUMPDEST POP POP SWAP1 JUMP JUMPDEST POP POP POP POP POP PUSH1 0x0 SWAP1 JUMP JUMPDEST PUSH2 0x152 SLOAD PUSH1 0x40 DUP1 MLOAD PUSH4 0x59E02DD7 PUSH1 0xE0 SHL DUP1 DUP3 MSTORE SWAP4 SWAP3 SWAP1 SWAP2 SWAP1 PUSH1 0x1 PUSH1 0x1 PUSH1 0xA0 SHL SUB SWAP1 DUP2 AND DUP3 DUP5 PUSH1 0x4 DUP2 DUP5 GAS STATICCALL DUP1 ISZERO PUSH2 0x33F4 JUMPI PUSH1 0x0 SWAP5 DUP6 SWAP2 PUSH2 0x33D1 JUMPI JUMPDEST POP ISZERO PUSH2 0x33BA JUMPI POP PUSH2 0x153 SLOAD AND SWAP1 DUP1 MLOAD SWAP5 DUP6 MSTORE DUP1 DUP6 PUSH1 0x4 DUP2 DUP6 GAS STATICCALL DUP1 ISZERO PUSH2 0x33AF JUMPI PUSH1 0x0 SWAP6 DUP7 SWAP2 PUSH2 0x338C JUMPI JUMPDEST POP ISZERO PUSH2 0x3375 JUMPI POP POP SWAP2 SWAP1 JUMP JUMPDEST PUSH1 0x24 SWAP3 POP MLOAD SWAP1 PUSH4 0x5E89893 PUSH1 0xE1 SHL DUP3 MSTORE PUSH1 0x4 DUP3 ADD MSTORE REVERT JUMPDEST SWAP1 POP DUP2 PUSH2 0x33A6 SWAP3 SWAP7 POP RETURNDATASIZE DUP8 GT PUSH2 0x953 JUMPI PUSH2 0x943 DUP2 DUP4 PUSH2 0x2894 JUMP JUMPDEST SWAP5 SWAP1 SWAP5 CODESIZE PUSH2 0x3369 JUMP JUMPDEST POP MLOAD RETURNDATASIZE PUSH1 0x0 DUP3 RETURNDATACOPY RETURNDATASIZE SWAP1 REVERT JUMPDEST PUSH1 0x24 SWAP1 DUP4 MLOAD SWAP1 PUSH4 0x5E89893 PUSH1 0xE1 SHL DUP3 MSTORE PUSH1 0x4 DUP3 ADD MSTORE REVERT JUMPDEST SWAP1 POP PUSH2 0x33EB SWAP2 SWAP5 POP DUP4 RETURNDATASIZE DUP6 GT PUSH2 0x953 JUMPI PUSH2 0x943 DUP2 DUP4 PUSH2 0x2894 JUMP JUMPDEST SWAP4 SWAP1 SWAP4 CODESIZE PUSH2 0x333F JUMP JUMPDEST DUP4 MLOAD RETURNDATASIZE PUSH1 0x0 DUP3 RETURNDATACOPY RETURNDATASIZE SWAP1 REVERT JUMPDEST SWAP1 DUP2 MSTORE PUSH2 0x100 DUP2 ADD SWAP3 SWAP2 PUSH1 0xE0 SWAP1 PUSH1 0xC0 SWAP1 PUSH1 0x1 PUSH1 0x1 PUSH1 0xA0 SHL SUB DUP1 PUSH2 0x3421 DUP4 PUSH2 0x2864 JUMP JUMPDEST AND PUSH1 0x20 DUP7 ADD MSTORE PUSH2 0x3433 PUSH1 0x20 DUP4 ADD PUSH2 0x2864 JUMP JUMPDEST AND PUSH1 0x40 DUP6 ADD MSTORE PUSH1 0x40 DUP2 ADD CALLDATALOAD PUSH1 0x60 DUP6 ADD MSTORE PUSH1 0x60 DUP2 ADD CALLDATALOAD PUSH1 0x80 DUP6 ADD MSTORE PUSH1 0x80 DUP2 ADD CALLDATALOAD PUSH1 0xA0 DUP6 ADD MSTORE PUSH1 0xA0 DUP2 ADD CALLDATALOAD DUP3 DUP6 ADD MSTORE ADD CALLDATALOAD SWAP2 ADD MSTORE JUMP JUMPDEST PUSH1 0x40 MLOAD SWAP1 PUSH2 0x3476 PUSH1 0x80 DUP4 PUSH2 0x2894 JUMP JUMPDEST PUSH1 0x0 PUSH1 0x60 DUP4 DUP3 DUP2 MSTORE DUP3 PUSH1 0x20 DUP3 ADD MSTORE DUP3 PUSH1 0x40 DUP3 ADD MSTORE ADD MSTORE JUMP JUMPDEST PUSH2 0x3506 SWAP4 PUSH2 0x34CD PUSH1 0x0 SWAP3 PUSH1 0x20 SWAP6 PUSH2 0x34A7 DUP3 PUSH2 0x137 PUSH2 0x2878 JUMP JUMPDEST POP PUSH2 0x34B3 DUP8 DUP3 SLOAD PUSH2 0x2E15 JUMP JUMPDEST SWAP1 SSTORE PUSH2 0x34C3 PUSH2 0x131 SWAP2 DUP3 SLOAD PUSH2 0x2E15 JUMP JUMPDEST SWAP1 SSTORE PUSH2 0x135 PUSH2 0x2836 JUMP JUMPDEST SWAP1 SLOAD PUSH1 0x40 MLOAD PUSH4 0x40C10F19 PUSH1 0xE0 SHL DUP2 MSTORE PUSH1 0x1 PUSH1 0x1 PUSH1 0xA0 SHL SUB SWAP1 SWAP4 AND PUSH1 0x4 DUP5 ADD MSTORE PUSH1 0x24 DUP4 ADD SWAP5 SWAP1 SWAP5 MSTORE SWAP1 SWAP5 DUP6 SWAP4 SWAP3 DUP5 SWAP3 SWAP1 SWAP2 DUP4 SWAP1 PUSH1 0x44 DUP3 ADD SWAP1 JUMP JUMPDEST SUB SWAP4 PUSH1 0x3 SWAP2 SWAP1 SWAP2 SHL SHR PUSH1 0x1 PUSH1 0x1 PUSH1 0xA0 SHL SUB AND GAS CALL DUP1 ISZERO PUSH2 0x3215 JUMPI PUSH2 0x3527 JUMPI POP JUMP JUMPDEST PUSH1 0x20 DUP2 RETURNDATASIZE DUP3 GT PUSH2 0x3550 JUMPI JUMPDEST DUP2 PUSH2 0x353F PUSH1 0x20 SWAP4 DUP4 PUSH2 0x2894 JUMP JUMPDEST DUP2 ADD SUB SLT PUSH2 0x54C JUMPI PUSH2 0x313D SWAP1 PUSH2 0x3198 JUMP JUMPDEST RETURNDATASIZE SWAP2 POP PUSH2 0x3532 JUMP JUMPDEST PUSH2 0x35BE SWAP3 PUSH1 0x20 SWAP3 PUSH2 0x134 PUSH2 0x356D DUP5 DUP3 SLOAD PUSH2 0x2E15 JUMP JUMPDEST SWAP1 SSTORE PUSH2 0x357D PUSH2 0x131 SWAP2 DUP3 SLOAD PUSH2 0x2E15 JUMP JUMPDEST SWAP1 SSTORE PUSH2 0x133 SLOAD PUSH1 0x40 MLOAD PUSH4 0x40C10F19 PUSH1 0xE0 SHL DUP2 MSTORE PUSH1 0x1 PUSH1 0x1 PUSH1 0xA0 SHL SUB SWAP3 DUP4 AND PUSH1 0x4 DUP3 ADD MSTORE PUSH1 0x24 DUP2 ADD SWAP4 SWAP1 SWAP4 MSTORE SWAP2 SWAP4 DUP5 SWAP3 SWAP1 SWAP2 AND SWAP1 DUP3 SWAP1 PUSH1 0x0 SWAP1 DUP3 SWAP1 PUSH1 0x44 DUP3 ADD SWAP1 JUMP JUMPDEST SUB SWAP3 GAS CALL DUP1 ISZERO PUSH2 0x3215 JUMPI PUSH2 0x3527 JUMPI POP JUMP JUMPDEST SWAP2 SWAP1 PUSH2 0x35DA SWAP1 PUSH2 0x2E22 JUMP JUMPDEST SWAP2 SWAP1 SWAP3 PUSH2 0x35E7 DUP4 DUP6 PUSH2 0x2FE0 JUMP JUMPDEST SWAP1 DUP1 DUP3 GT ISZERO PUSH2 0x35F4 JUMPI POP POP JUMP JUMPDEST PUSH1 0x44 SWAP3 POP PUSH1 0x40 MLOAD SWAP2 PUSH4 0x79121201 PUSH1 0xE0 SHL DUP4 MSTORE PUSH1 0x4 DUP4 ADD MSTORE PUSH1 0x24 DUP3 ADD MSTORE REVERT JUMPDEST PUSH2 0x3077 PUSH2 0x308E SWAP2 PUSH2 0x3623 DUP5 DUP3 PUSH2 0x2F85 JUMP JUMPDEST PUSH2 0x3659 PUSH2 0x3632 DUP4 PUSH2 0x150 PUSH2 0x2836 JUMP JUMPDEST PUSH2 0x3645 DUP3 SWAP5 SWAP3 SLOAD SWAP3 DUP4 DUP4 PUSH1 0x3 SHL SHR PUSH2 0x2EB0 JUMP JUMPDEST SWAP2 SWAP1 PUSH1 0x3 SHL SWAP2 DUP3 SHL SWAP2 PUSH1 0x0 NOT SWAP1 SHL NOT AND OR SWAP1 JUMP JUMPDEST SWAP1 SSTORE PUSH2 0x151 PUSH2 0x2836 JUMP JUMPDEST SWAP1 PUSH2 0x134 SLOAD SWAP1 DUP2 ISZERO PUSH2 0x3683 JUMPI PUSH2 0x2FDD SWAP3 PUSH2 0x60A PUSH2 0x2E95 SWAP3 PUSH2 0x131 SLOAD PUSH2 0x2FFE JUMP JUMPDEST POP POP POP PUSH8 0xDE0B6B3A7640000 SWAP1 JUMP JUMPDEST SWAP3 SWAP1 SWAP4 SWAP2 PUSH1 0x0 SWAP2 PUSH1 0x0 SWAP2 DUP3 SWAP7 PUSH2 0x36A6 PUSH2 0x3467 JUMP JUMPDEST SWAP7 PUSH1 0x1 PUSH1 0x1 PUSH1 0xA0 SHL SUB SWAP2 DUP6 SWAP1 DUP4 AND DUP1 PUSH2 0x38B2 JUMPI JUMPDEST POP DUP3 PUSH2 0x12F SLOAD AND DUP4 PUSH1 0x40 MLOAD SWAP4 PUSH4 0x6EB1769F PUSH1 0xE1 SHL DUP6 MSTORE AND DUP1 PUSH1 0x4 DUP6 ADD MSTORE ADDRESS PUSH1 0x24 DUP6 ADD MSTORE PUSH1 0x20 SWAP5 DUP6 DUP6 PUSH1 0x44 DUP2 DUP7 GAS STATICCALL SWAP5 DUP6 ISZERO PUSH2 0x38A7 JUMPI DUP5 SWAP6 PUSH2 0x3878 JUMPI JUMPDEST POP DUP5 PUSH2 0x3757 JUMPI JUMPDEST POP POP POP POP POP DUP7 ADD MLOAD ISZERO PUSH2 0x3713 JUMPI JUMPDEST POP POP POP SWAP3 SWAP2 SWAP1 JUMP JUMPDEST SWAP1 SWAP2 SWAP3 POP PUSH2 0x372B PUSH8 0xDE0B6B3A7640000 SWAP3 DUP4 SWAP3 PUSH2 0x2F39 JUMP JUMPDEST DIV DUP1 DUP6 MSTORE SWAP1 DUP3 ISZERO PUSH2 0x374F JUMPI PUSH2 0x3747 SWAP3 DIV SWAP1 DUP2 PUSH1 0x40 DUP7 ADD MSTORE PUSH2 0x2E15 JUMP JUMPDEST CODESIZE DUP1 DUP1 PUSH2 0x370B JUMP JUMPDEST POP SWAP1 POP PUSH2 0x3747 JUMP JUMPDEST PUSH2 0x3765 SWAP1 PUSH2 0x130 SLOAD AND PUSH2 0x31BF JUMP JUMPDEST SWAP3 SWAP1 SWAP3 ISZERO PUSH2 0x36FD JUMPI SWAP1 SWAP2 SWAP3 SWAP4 SWAP12 POP DUP5 DUP12 PUSH2 0x379F DUP6 PUSH8 0xDE0B6B3A7640000 PUSH2 0x3799 PUSH2 0x378F DUP14 DUP14 PUSH2 0x2F39 JUMP JUMPDEST PUSH2 0x143 SLOAD SWAP1 PUSH2 0x2F39 JUMP JUMPDEST DIV PUSH2 0x2F4C JUMP JUMPDEST DUP2 DUP4 ADD DUP2 DUP2 MSTORE SWAP6 SWAP1 DUP12 ISZERO PUSH2 0x386E JUMPI POP PUSH2 0x37CA SWAP2 PUSH2 0x37BE PUSH1 0x60 SWAP3 DUP14 PUSH2 0x2F4C JUMP JUMPDEST SWAP2 DUP3 SWAP2 ADD MSTORE DUP6 MLOAD PUSH2 0x2E15 JUMP JUMPDEST DUP1 SWAP14 JUMPDEST LT SWAP3 DUP4 ISZERO PUSH2 0x37F9 JUMPI JUMPDEST POP POP POP PUSH2 0x37E6 JUMPI JUMPDEST DUP1 DUP1 DUP1 PUSH2 0x36FD JUMP JUMPDEST DUP2 SWAP3 SWAP10 POP MSTORE DUP1 PUSH1 0x60 DUP9 ADD MSTORE SWAP7 CODESIZE DUP1 PUSH2 0x37DE JUMP JUMPDEST SWAP1 SWAP2 SWAP3 POP PUSH1 0x24 PUSH1 0x40 MLOAD DUP1 SWAP5 DUP2 SWAP4 PUSH4 0x70A08231 PUSH1 0xE0 SHL DUP4 MSTORE PUSH1 0x4 DUP4 ADD MSTORE GAS STATICCALL SWAP1 DUP2 ISZERO PUSH2 0x3863 JUMPI SWAP1 DUP12 SWAP2 DUP5 SWAP2 PUSH2 0x3832 JUMPI JUMPDEST POP LT CODESIZE DUP5 DUP2 PUSH2 0x37D6 JUMP JUMPDEST DUP1 SWAP3 POP DUP6 DUP1 SWAP3 POP RETURNDATASIZE DUP4 GT PUSH2 0x385C JUMPI JUMPDEST PUSH2 0x384B DUP2 DUP4 PUSH2 0x2894 JUMP JUMPDEST DUP2 ADD SUB SLT PUSH2 0xEC3 JUMPI DUP11 SWAP1 MLOAD CODESIZE PUSH2 0x3828 JUMP JUMPDEST POP RETURNDATASIZE PUSH2 0x3841 JUMP JUMPDEST PUSH1 0x40 MLOAD RETURNDATASIZE DUP6 DUP3 RETURNDATACOPY RETURNDATASIZE SWAP1 REVERT JUMPDEST SWAP2 POP POP DUP1 SWAP14 PUSH2 0x37CD JUMP JUMPDEST SWAP1 SWAP5 POP DUP6 DUP2 DUP2 RETURNDATASIZE DUP4 GT PUSH2 0x38A0 JUMPI JUMPDEST PUSH2 0x3890 DUP2 DUP4 PUSH2 0x2894 JUMP JUMPDEST DUP2 ADD SUB SLT PUSH2 0x1D3E JUMPI MLOAD SWAP4 CODESIZE PUSH2 0x36F6 JUMP JUMPDEST POP RETURNDATASIZE PUSH2 0x3886 JUMP JUMPDEST PUSH1 0x40 MLOAD RETURNDATASIZE DUP7 DUP3 RETURNDATACOPY RETURNDATASIZE SWAP1 REVERT JUMPDEST SWAP1 SWAP6 POP PUSH1 0x20 DUP4 PUSH2 0x1C3 SLOAD AND SWAP2 PUSH1 0x24 PUSH1 0x40 MLOAD DUP1 SWAP5 DUP2 SWAP4 PUSH4 0x64A731E9 PUSH1 0xE0 SHL DUP4 MSTORE PUSH1 0x4 DUP4 ADD MSTORE GAS STATICCALL DUP1 ISZERO PUSH2 0x95A JUMPI DUP7 SWAP1 PUSH2 0x38F7 JUMPI JUMPDEST PUSH2 0x38F0 SWAP2 POP DUP5 PUSH2 0x2F39 JUMP JUMPDEST SWAP5 CODESIZE PUSH2 0x36BA JUMP JUMPDEST POP PUSH1 0x20 DUP2 RETURNDATASIZE DUP3 GT PUSH2 0x3922 JUMPI JUMPDEST DUP2 PUSH2 0x3910 PUSH1 0x20 SWAP4 DUP4 PUSH2 0x2894 JUMP JUMPDEST DUP2 ADD SUB SLT PUSH2 0x20EA JUMPI PUSH2 0x38F0 SWAP1 MLOAD PUSH2 0x38E5 JUMP JUMPDEST RETURNDATASIZE SWAP2 POP PUSH2 0x3903 JUMP JUMPDEST DUP1 PUSH2 0x3933 PUSH2 0x3304 JUMP JUMPDEST SWAP2 SWAP1 SWAP4 PUSH2 0x3940 PUSH1 0x0 PUSH2 0x325B JUMP JUMPDEST SWAP5 ADD SWAP4 DUP3 SWAP2 PUSH2 0x39D8 JUMPI JUMPDEST ADD SWAP4 DUP5 PUSH1 0x0 DUP1 DUP3 SLT PUSH2 0x39D2 JUMPI POP JUMPDEST DUP5 SUB SWAP2 DUP2 DUP6 GT PUSH2 0x399A JUMPI POP POP DUP2 DUP2 GT PUSH2 0x397C JUMPI POP POP PUSH2 0x155 SSTORE PUSH2 0x156 SSTORE NUMBER PUSH2 0x157 SSTORE JUMP JUMPDEST PUSH1 0x44 SWAP3 POP PUSH1 0x40 MLOAD SWAP2 PUSH4 0x6DA41E5 PUSH1 0xE1 SHL DUP4 MSTORE PUSH1 0x4 DUP4 ADD MSTORE PUSH1 0x24 DUP3 ADD MSTORE REVERT JUMPDEST SWAP1 DUP1 DUP6 SWAP3 GT PUSH2 0x39C0 JUMPI PUSH1 0x44 SWAP2 PUSH1 0x40 MLOAD SWAP2 PUSH4 0x6DA41E5 PUSH1 0xE1 SHL DUP4 MSTORE PUSH1 0x4 DUP4 ADD MSTORE PUSH1 0x24 DUP3 ADD MSTORE REVERT JUMPDEST PUSH1 0x40 MLOAD PUSH4 0xFB4FD35 PUSH1 0xE1 SHL DUP2 MSTORE PUSH1 0x4 SWAP1 REVERT JUMPDEST SUB PUSH2 0x3958 JUMP JUMPDEST SWAP1 POP DUP2 PUSH1 0x0 SUB SWAP1 PUSH2 0x394A JUMP JUMPDEST PUSH2 0x3A11 SWAP2 SWAP3 PUSH2 0x39F5 DUP3 PUSH2 0x137 PUSH2 0x2878 JUMP JUMPDEST POP PUSH2 0x3A01 DUP6 DUP3 SLOAD PUSH2 0x2FFE JUMP JUMPDEST SWAP1 SSTORE PUSH2 0x34C3 PUSH2 0x131 SWAP2 DUP3 SLOAD PUSH2 0x2FFE JUMP JUMPDEST SWAP1 SLOAD PUSH1 0x3 SWAP2 SWAP1 SWAP2 SHL SHR PUSH1 0x1 PUSH1 0x1 PUSH1 0xA0 SHL SUB AND DUP1 EXTCODESIZE ISZERO PUSH2 0x54C JUMPI PUSH1 0x40 MLOAD PUSH4 0x2770A7EB PUSH1 0xE2 SHL DUP2 MSTORE ADDRESS PUSH1 0x4 DUP3 ADD MSTORE PUSH1 0x24 DUP2 ADD SWAP3 SWAP1 SWAP3 MSTORE PUSH1 0x0 SWAP1 DUP3 SWAP1 DUP2 DUP4 DUP2 PUSH1 0x44 DUP2 ADD JUMPDEST SUB SWAP3 GAS CALL DUP1 ISZERO PUSH2 0x3215 JUMPI PUSH2 0x3A63 JUMPI POP JUMP JUMPDEST PUSH1 0x0 PUSH2 0x2A5B SWAP2 PUSH2 0x2894 JUMP JUMPDEST SWAP1 PUSH2 0x134 PUSH2 0x3A7D DUP4 DUP3 SLOAD PUSH2 0x2FFE JUMP JUMPDEST SWAP1 SSTORE PUSH2 0x3A8D PUSH2 0x131 SWAP2 DUP3 SLOAD PUSH2 0x2FFE JUMP JUMPDEST SWAP1 SSTORE PUSH2 0x133 SLOAD PUSH1 0x1 PUSH1 0x1 PUSH1 0xA0 SHL SUB AND DUP1 EXTCODESIZE ISZERO PUSH2 0x54C JUMPI PUSH1 0x40 MLOAD PUSH4 0x2770A7EB PUSH1 0xE2 SHL DUP2 MSTORE ADDRESS PUSH1 0x4 DUP3 ADD MSTORE PUSH1 0x24 DUP2 ADD SWAP3 SWAP1 SWAP3 MSTORE PUSH1 0x0 SWAP1 DUP3 SWAP1 DUP2 DUP4 DUP2 PUSH1 0x44 DUP2 ADD PUSH2 0x3A52 JUMP JUMPDEST SWAP3 PUSH2 0x3AE1 DUP4 PUSH2 0x3AE7 SWAP7 SWAP5 SWAP4 SWAP8 SWAP6 PUSH2 0x3C5C JUMP JUMPDEST SWAP1 PUSH2 0x3B10 JUMP JUMPDEST DUP2 DUP2 LT PUSH2 0x3AF2 JUMPI POP POP JUMP JUMPDEST PUSH1 0x44 SWAP3 POP PUSH1 0x40 MLOAD SWAP2 PUSH4 0xC39B739F PUSH1 0xE0 SHL DUP4 MSTORE PUSH1 0x4 DUP4 ADD MSTORE PUSH1 0x24 DUP3 ADD MSTORE REVERT JUMPDEST SWAP3 PUSH2 0x3B1D SWAP3 SWAP5 SWAP2 SWAP4 PUSH2 0x3BDD JUMP JUMPDEST PUSH1 0x0 SWAP3 DUP2 DUP2 MUL SWAP2 PUSH1 0x1 PUSH1 0xFF SHL SWAP2 DUP6 DUP3 SLT DUP4 DUP3 EQ AND PUSH2 0x3BC9 JUMPI DUP2 DUP5 SDIV EQ SWAP1 ISZERO OR ISZERO PUSH2 0x3BB5 JUMPI PUSH8 0xDE0B6B3A763FFFF NOT DUP4 ADD SWAP3 DUP4 GT PUSH2 0x3BB5 JUMPI PUSH8 0xDE0B6B3A7640000 SWAP3 DUP4 DUP2 MUL SWAP4 DUP2 DUP6 DIV EQ SWAP1 ISZERO OR ISZERO PUSH2 0x3BB5 JUMPI DUP3 ISZERO PUSH2 0x3BA1 JUMPI DUP2 EQ PUSH1 0x0 NOT DUP4 EQ AND PUSH2 0x3B8D JUMPI SDIV SWAP1 DUP1 DUP3 SLT PUSH2 0x32E8 JUMPI POP SWAP1 JUMP JUMPDEST PUSH4 0x4E487B71 PUSH1 0xE0 SHL DUP4 MSTORE PUSH1 0x11 PUSH1 0x4 MSTORE PUSH1 0x24 DUP4 REVERT JUMPDEST PUSH4 0x4E487B71 PUSH1 0xE0 SHL DUP5 MSTORE PUSH1 0x12 PUSH1 0x4 MSTORE PUSH1 0x24 DUP5 REVERT JUMPDEST PUSH4 0x4E487B71 PUSH1 0xE0 SHL DUP5 MSTORE PUSH1 0x11 PUSH1 0x4 MSTORE PUSH1 0x24 DUP5 REVERT JUMPDEST PUSH4 0x4E487B71 PUSH1 0xE0 SHL DUP7 MSTORE PUSH1 0x11 PUSH1 0x4 MSTORE PUSH1 0x24 DUP7 REVERT JUMPDEST SWAP1 SWAP2 PUSH2 0x3BEC SWAP1 PUSH2 0x131 SLOAD PUSH2 0x2FFE JUMP JUMPDEST SWAP1 PUSH8 0xDE0B6B3A7640000 SWAP2 DUP3 DUP2 MUL SWAP3 DUP2 DUP5 DIV EQ SWAP1 ISZERO OR ISZERO PUSH2 0xC41 JUMPI PUSH2 0x2FDD SWAP3 PUSH2 0x2FD7 SWAP2 PUSH2 0x2F39 JUMP JUMPDEST DUP3 DUP3 PUSH2 0x3C1F SWAP3 PUSH2 0x3BDD JUMP JUMPDEST SWAP1 PUSH1 0x0 DUP3 SGT ISZERO PUSH2 0x32ED JUMPI PUSH2 0x2FDD SWAP3 PUSH2 0x3C36 SWAP2 PUSH2 0x3663 JUMP JUMPDEST SWAP1 PUSH2 0x2F4C JUMP JUMPDEST SWAP1 PUSH1 0x40 MLOAD PUSH2 0x3C4B PUSH1 0x40 DUP3 PUSH2 0x2894 JUMP JUMPDEST PUSH1 0x20 PUSH1 0x1 DUP3 SWAP5 DUP1 SLOAD DUP5 MSTORE ADD SLOAD SWAP2 ADD MSTORE JUMP JUMPDEST PUSH2 0x3C68 DUP2 PUSH2 0x148 PUSH2 0x2836 JUMP JUMPDEST SWAP1 SLOAD SWAP1 PUSH1 0x3 SHL SHR SWAP2 PUSH2 0x18E SWAP2 PUSH2 0x3C7E DUP2 DUP5 PUSH2 0x2878 JUMP JUMPDEST POP SLOAD SWAP3 PUSH2 0x18F SLOAD NUMBER LT ISZERO PUSH2 0x3CA4 JUMPI JUMPDEST POP POP DUP1 DUP3 LT ISZERO PUSH2 0x32F5 JUMPI PUSH2 0xB63 SWAP1 PUSH2 0x2FDD SWAP4 PUSH2 0x2F39 JUMP JUMPDEST DUP3 SWAP4 POP PUSH2 0x3CB8 PUSH2 0x3CC3 SWAP4 SWAP3 PUSH2 0x3CBE SWAP3 PUSH2 0x2878 JUMP JUMPDEST POP PUSH2 0x3C3C JUMP JUMPDEST PUSH2 0x3CCB JUMP JUMPDEST SWAP1 CODESIZE DUP1 PUSH2 0x3C8D JUMP JUMPDEST PUSH1 0x20 DUP2 MLOAD SWAP2 ADD DUP1 MLOAD SWAP3 PUSH8 0xDE0B6B3A7640000 SWAP4 DUP5 SUB SWAP1 DUP5 DUP3 GT PUSH2 0xC41 JUMPI PUSH2 0x3CF8 PUSH2 0x2E9A SWAP3 PUSH2 0x2E55 SWAP6 PUSH2 0x2F39 JUMP JUMPDEST SWAP3 MLOAD PUSH2 0x2F39 JUMP JUMPDEST PUSH1 0x0 DUP1 PUSH2 0x137 SWAP2 DUP3 SLOAD SWAP3 PUSH2 0x3D12 DUP5 PUSH2 0x3023 JUMP JUMPDEST SWAP4 DUP3 SWAP2 JUMPDEST DUP2 DUP4 LT PUSH2 0x3D3F JUMPI POP POP POP DUP2 ISZERO PUSH2 0x3D33 JUMPI SWAP1 PUSH2 0x3D30 SWAP2 PUSH2 0x2F4C JUMP JUMPDEST SWAP2 JUMP JUMPDEST POP POP PUSH2 0x149 SLOAD PUSH1 0x1 SHL SWAP2 JUMP JUMPDEST SWAP1 SWAP2 SWAP4 SWAP3 PUSH2 0x3D4C DUP6 PUSH2 0x3169 JUMP JUMPDEST SWAP1 DUP2 PUSH2 0x3D58 DUP8 DUP10 PUSH2 0x2E01 JUMP JUMPDEST MSTORE PUSH2 0x3D71 PUSH2 0x3D66 DUP4 DUP9 PUSH2 0x2ECC JUMP JUMPDEST POP PUSH2 0x2E8E DUP9 DUP7 PUSH2 0x2878 JUMP JUMPDEST PUSH8 0xDE0B6B3A7640000 SWAP1 DUP2 DUP2 MUL SWAP2 DUP2 DUP4 DIV EQ SWAP1 ISZERO OR ISZERO PUSH2 0xC41 JUMPI PUSH2 0x3DAE PUSH2 0x3DB4 SWAP3 PUSH2 0x2E9A DUP6 PUSH2 0x3DA5 PUSH1 0x1 SWAP8 PUSH2 0x60F SWAP7 PUSH2 0x3F00 JUMP JUMPDEST SWAP5 DUP6 SWAP2 DUP13 PUSH2 0x3C5C JUMP JUMPDEST SWAP6 PUSH2 0x2E15 JUMP JUMPDEST SWAP5 ADD SWAP2 SWAP1 PUSH2 0x3D16 JUMP JUMPDEST PUSH2 0x18F DUP1 SLOAD NUMBER LT ISZERO PUSH2 0x3DCC JUMPI POP JUMP JUMPDEST PUSH2 0x137 SLOAD PUSH1 0x0 JUMPDEST DUP2 DUP2 LT PUSH2 0x3DE6 JUMPI POP POP PUSH2 0x190 SLOAD NUMBER ADD SWAP1 SSTORE JUMP JUMPDEST DUP1 DUP1 PUSH32 0x19156E9379C7BBBCE8F646CE5EE30BA860B8F954717405F3D5859A6C1A21AE60 PUSH1 0x1 SWAP4 PUSH2 0x18E PUSH2 0x3E1C PUSH2 0x3CB8 DUP4 DUP4 PUSH2 0x2878 JUMP JUMPDEST SWAP1 PUSH2 0x3E3A PUSH2 0x3E32 PUSH2 0x3E2C DUP6 PUSH2 0x3169 JUMP JUMPDEST DUP5 PUSH2 0x3CCB JUMP JUMPDEST SWAP4 DUP5 SWAP3 PUSH2 0x2878 JUMP JUMPDEST POP SSTORE MLOAD PUSH1 0x40 SWAP2 DUP3 MLOAD SWAP2 DUP3 MSTORE PUSH1 0x20 DUP3 ADD MSTORE LOG2 ADD PUSH2 0x3DD3 JUMP JUMPDEST PUSH1 0x97 SLOAD PUSH1 0x40 MLOAD PUSH4 0xD994D6D5 PUSH1 0xE0 SHL DUP2 MSTORE CALLER PUSH1 0x4 DUP3 ADD MSTORE SWAP1 PUSH1 0x20 SWAP1 DUP3 SWAP1 PUSH1 0x24 SWAP1 DUP3 SWAP1 PUSH1 0x1 PUSH1 0x1 PUSH1 0xA0 SHL SUB AND GAS STATICCALL SWAP1 DUP2 ISZERO PUSH2 0x3215 JUMPI PUSH1 0x0 SWAP2 PUSH2 0x3EA6 JUMPI JUMPDEST POP ISZERO PUSH2 0x3E94 JUMPI JUMP JUMPDEST PUSH1 0x40 MLOAD PUSH4 0x1DD1B1B5 PUSH1 0xE2 SHL DUP2 MSTORE PUSH1 0x4 SWAP1 REVERT JUMPDEST SWAP1 PUSH1 0x20 DUP3 RETURNDATASIZE DUP3 GT PUSH2 0x3ED7 JUMPI JUMPDEST DUP2 PUSH2 0x3EBF PUSH1 0x20 SWAP4 DUP4 PUSH2 0x2894 JUMP JUMPDEST DUP2 ADD SUB SLT PUSH2 0x4B6 JUMPI POP PUSH2 0x3ED1 SWAP1 PUSH2 0x3198 JUMP JUMPDEST CODESIZE PUSH2 0x3E8C JUMP JUMPDEST RETURNDATASIZE SWAP2 POP PUSH2 0x3EB2 JUMP JUMPDEST PUSH1 0xFF PUSH1 0xCA SLOAD PUSH1 0x8 SHR AND PUSH2 0x3EEE JUMPI JUMP JUMPDEST PUSH1 0x40 MLOAD PUSH4 0x783BB6C9 PUSH1 0xE1 SHL DUP2 MSTORE PUSH1 0x4 SWAP1 REVERT JUMPDEST SWAP1 PUSH8 0xDE0B6B3A7640000 SWAP2 DUP3 DUP2 MUL SWAP3 DUP2 DUP5 DIV EQ SWAP1 ISZERO OR ISZERO PUSH2 0xC41 JUMPI PUSH2 0x2FDD SWAP2 PUSH2 0x2F4C JUMP INVALID LOG2 PUSH5 0x6970667358 0x22 SLT KECCAK256 DUP16 0x21 SLT SWAP16 CALLDATASIZE 0xB8 CODESIZE 0xE7 PUSH11 0xF9B4D9E5FDAADA55E8E870 PUSH11 0x7792F1AB77C741B77C2369 PUSH5 0x736F6C6343 STOP ADDMOD EQ STOP CALLER "
    },
    "gasEstimates": {
      "creation": {
        "codeDepositCost": "3243600",
        "executionCost": "infinite",
        "totalCost": "infinite"
      },
      "external": {
        "absoluteAccumulator()": "4088",
        "addPeggedToken((address,address,uint256,uint256,uint256,uint256,uint256))": "infinite",
        "appreciationFactor()": "4463",
        "bes()": "2900",
        "bns()": "2482",
        "calcCtargemaCA()": "infinite",
        "changeGovernor(address)": "infinite",
        "decayBlockSpan()": "3274",
        "differentialAccumulator()": "3384",
        "editPeggedToken((address,address,uint256,uint256,uint256,uint256,uint256))": "infinite",
        "emaCalculationBlockSpan()": "3494",
        "evalLiquidation()": "infinite",
        "feeRetainer()": "2944",
        "feeToken()": "3166",
        "feeTokenPct()": "2680",
        "feeTokenPriceProvider()": "4354",
        "getPACtp(address)": "infinite",
        "getTpAmount()": "4524",
        "governor()": "2352",
        "isLiquidationReached()": "infinite",
        "lastOperationBlockNumber()": "3054",
        "liqEnabled()": "4298",
        "liqRedeemTPTo(address,address,address,uint256)": "infinite",
        "liqThrld()": "3714",
        "liquidated()": "2566",
        "makeStoppable()": "infinite",
        "makeUnstoppable()": "infinite",
        "maxAbsoluteOpProvider()": "4332",
        "maxOpDiffProvider()": "3914",
        "maxQACToMintTP()": "infinite",
        "maxQACToRedeemTP()": "infinite",
        "mintTCandTPFee()": "3428",
        "mintTCandTPto((address,uint256,uint256,address,address,address))": "infinite",
        "mocAppreciationBeneficiaryAddress()": "2946",
        "mocFeeFlowAddress()": "3782",
        "mocQueue()": "2484",
        "mocVendors()": "3628",
        "nACcb()": "4396",
        "nTCcb()": "3450",
        "nextEmaCalculation()": "2350",
        "nextTCInterestPayment()": "3912",
        "pause()": "29027",
        "paused()": "3094",
        "pauser()": "3857",
        "pegContainer(uint256)": "9389",
        "peggedTokenIndex(address)": "6056",
        "protThrld()": "3252",
        "proxiableUUID()": "infinite",
        "qACLockedInPending()": "3098",
        "redeemTCandTPFee()": "4418",
        "redeemTCandTPto((address,uint256,uint256,uint256,address,address,address))": "infinite",
        "setAppreciationFactor(uint256)": "infinite",
        "setBes(uint256)": "infinite",
        "setDecayBlockSpan(uint256)": "infinite",
        "setEmaCalculationBlockSpan(uint256)": "infinite",
        "setFeeRetainer(uint256)": "infinite",
        "setFeeTokenAddress(address)": "infinite",
        "setFeeTokenPct(uint256)": "infinite",
        "setFeeTokenPriceProviderAddress(address)": "infinite",
        "setLiqEnabled(bool)": "infinite",
        "setLiqThrld(uint256)": "infinite",
        "setMaxAbsoluteOpProviderAddress(address)": "infinite",
        "setMaxOpDiffProviderAddress(address)": "infinite",
        "setMintTCandTPFee(uint256)": "infinite",
        "setMocAppreciationBeneficiaryAddress(address)": "infinite",
        "setMocFeeFlowAddress(address)": "infinite",
        "setMocQueue(address)": "infinite",
        "setPauser(address)": "infinite",
        "setProtThrld(uint256)": "infinite",
        "setRedeemTCandTPFee(uint256)": "infinite",
        "setSuccessFee(uint256)": "infinite",
        "setSwapTCforTPFee(uint256)": "infinite",
        "setSwapTPforTCFee(uint256)": "infinite",
        "setSwapTPforTPFee(uint256)": "infinite",
        "setTCInterestCollectorAddress(address)": "infinite",
        "setTCInterestPaymentBlockSpan(uint256)": "infinite",
        "setTCInterestRate(uint256)": "infinite",
        "setTcMintFee(uint256)": "infinite",
        "setTcRedeemFee(uint256)": "infinite",
        "shouldCalculateEma()": "3854",
        "stoppable()": "3946",
        "successFee()": "3362",
        "swapTCforTPFee()": "2614",
        "swapTCforTPto((address,uint256,uint256,uint256,address,address,address))": "infinite",
        "swapTPforTCFee()": "2702",
        "swapTPforTCto((address,uint256,uint256,uint256,address,address,address))": "infinite",
        "swapTPforTPFee()": "2856",
        "swapTPforTPto((address,address,uint256,uint256,uint256,address,address,address))": "infinite",
        "tcInterestCollectorAddress()": "3760",
        "tcInterestPaymentBlockSpan()": "3648",
        "tcInterestRate()": "2394",
        "tcMintFee()": "4507",
        "tcRedeemFee()": "3868",
        "tcToken()": "3144",
        "tpCtarg(uint256)": "7946",
        "tpEma(uint256)": "10754",
        "tpLiqPrices(uint256)": "7132",
        "tpMintFees(address)": "2685",
        "tpRedeemFees(address)": "4291",
        "tpTokens(uint256)": "6672",
        "unpause()": "26036",
        "updateEmas()": "infinite",
        "upgradeTo(address)": "infinite",
        "upgradeToAndCall(address,bytes)": "infinite"
      },
      "internal": {
        "_calcQACforMintTCandTP(uint256,uint256,uint256,uint256)": "infinite",
        "_calcQACforRedeemTCandTP(uint256,uint256,uint256,uint256)": "infinite"
      }
    },
    "methodIdentifiers": {
      "absoluteAccumulator()": "d87aab6f",
      "addPeggedToken((address,address,uint256,uint256,uint256,uint256,uint256))": "db796072",
      "appreciationFactor()": "fa6e83bd",
      "bes()": "4d977e78",
      "bns()": "1867e2f5",
      "calcCtargemaCA()": "662013f4",
      "changeGovernor(address)": "e4c0aaf4",
      "decayBlockSpan()": "6f30471f",
      "differentialAccumulator()": "76228055",
      "editPeggedToken((address,address,uint256,uint256,uint256,uint256,uint256))": "f26114aa",
      "emaCalculationBlockSpan()": "7a727fe8",
      "evalLiquidation()": "33421c38",
      "feeRetainer()": "4f0f27ee",
      "feeToken()": "647846a5",
      "feeTokenPct()": "2ded50f0",
      "feeTokenPriceProvider()": "f13f4054",
      "getPACtp(address)": "fadda424",
      "getTpAmount()": "fe6b92c1",
      "governor()": "0c340a24",
      "isLiquidationReached()": "9ad6659d",
      "lastOperationBlockNumber()": "5860ee63",
      "liqEnabled()": "e7c25978",
      "liqRedeemTPTo(address,address,address,uint256)": "6845c445",
      "liqThrld()": "8cfa4241",
      "liquidated()": "23b98cde",
      "makeStoppable()": "68274357",
      "makeUnstoppable()": "5210570c",
      "maxAbsoluteOpProvider()": "ee1f438f",
      "maxOpDiffProvider()": "b5e9ea8c",
      "maxQACToMintTP()": "d6af11da",
      "maxQACToRedeemTP()": "7f13b998",
      "mintTCandTPFee()": "79f9a91c",
      "mintTCandTPto((address,uint256,uint256,address,address,address))": "e44bb512",
      "mocAppreciationBeneficiaryAddress()": "4e1f907a",
      "mocFeeFlowAddress()": "9853c35a",
      "mocQueue()": "13ed7ba5",
      "mocVendors()": "7f01c715",
      "nACcb()": "f30b5614",
      "nTCcb()": "7a193c31",
      "nextEmaCalculation()": "0c36d897",
      "nextTCInterestPayment()": "b9fa6413",
      "pause()": "8456cb59",
      "paused()": "5c975abb",
      "pauser()": "9fd0506d",
      "pegContainer(uint256)": "4b746001",
      "peggedTokenIndex(address)": "9cabfc00",
      "protThrld()": "6b5488df",
      "proxiableUUID()": "52d1902d",
      "qACLockedInPending()": "5cfbe578",
      "redeemTCandTPFee()": "f375cfba",
      "redeemTCandTPto((address,uint256,uint256,uint256,address,address,address))": "7b5a17ae",
      "setAppreciationFactor(uint256)": "01dde6ef",
      "setBes(uint256)": "c84353c9",
      "setDecayBlockSpan(uint256)": "73e28af9",
      "setEmaCalculationBlockSpan(uint256)": "3bc4ac0a",
      "setFeeRetainer(uint256)": "7750ba0c",
      "setFeeTokenAddress(address)": "cf351c1d",
      "setFeeTokenPct(uint256)": "543aeb48",
      "setFeeTokenPriceProviderAddress(address)": "0f1e5e2b",
      "setLiqEnabled(bool)": "1fe6a7ad",
      "setLiqThrld(uint256)": "2c43bd3b",
      "setMaxAbsoluteOpProviderAddress(address)": "d8db6f5a",
      "setMaxOpDiffProviderAddress(address)": "85bf9593",
      "setMintTCandTPFee(uint256)": "2069f753",
      "setMocAppreciationBeneficiaryAddress(address)": "27eab2a1",
      "setMocFeeFlowAddress(address)": "0d6ac463",
      "setMocQueue(address)": "3cfb09ef",
      "setPauser(address)": "2d88af4a",
      "setProtThrld(uint256)": "7cba2383",
      "setRedeemTCandTPFee(uint256)": "7a4ff1d9",
      "setSuccessFee(uint256)": "becaca6b",
      "setSwapTCforTPFee(uint256)": "7af5758c",
      "setSwapTPforTCFee(uint256)": "0e0a8fd2",
      "setSwapTPforTPFee(uint256)": "70713468",
      "setTCInterestCollectorAddress(address)": "735d3960",
      "setTCInterestPaymentBlockSpan(uint256)": "073763b9",
      "setTCInterestRate(uint256)": "64ec230a",
      "setTcMintFee(uint256)": "f2808778",
      "setTcRedeemFee(uint256)": "c00f538d",
      "shouldCalculateEma()": "a8e9ac30",
      "stoppable()": "bb4872de",
      "successFee()": "7554fffd",
      "swapTCforTPFee()": "2a20d57d",
      "swapTCforTPto((address,uint256,uint256,uint256,address,address,address))": "d9b6c2e5",
      "swapTPforTCFee()": "333431fd",
      "swapTPforTCto((address,uint256,uint256,uint256,address,address,address))": "f5571e01",
      "swapTPforTPFee()": "407f0e34",
      "swapTPforTPto((address,address,uint256,uint256,uint256,address,address,address))": "e1e121da",
      "tcInterestCollectorAddress()": "8e2bdb86",
      "tcInterestPaymentBlockSpan()": "7f4a4fe0",
      "tcInterestRate()": "0db49656",
      "tcMintFee()": "fda70f8b",
      "tcRedeemFee()": "aea038dc",
      "tcToken()": "60009e0b",
      "tpCtarg(uint256)": "7d8e0314",
      "tpEma(uint256)": "e6b1627c",
      "tpLiqPrices(uint256)": "3915edcb",
      "tpMintFees(address)": "24ffaba3",
      "tpRedeemFees(address)": "ddb6d190",
      "tpTokens(uint256)": "01f1b684",
      "unpause()": "3f4ba83a",
      "updateEmas()": "d1a0faa0",
      "upgradeTo(address)": "3659cfe6",
      "upgradeToAndCall(address,bytes)": "4f1ef286"
    }
  },
  "storageLayout": {
    "storage": [
      {
        "astId": 950,
        "contract": "contracts/core/MocCoreExpansion.sol:MocCoreExpansion",
        "label": "_initialized",
        "offset": 0,
        "slot": "0",
        "type": "t_uint8"
      },
      {
        "astId": 953,
        "contract": "contracts/core/MocCoreExpansion.sol:MocCoreExpansion",
        "label": "_initializing",
        "offset": 1,
        "slot": "0",
        "type": "t_bool"
      },
      {
        "astId": 932,
        "contract": "contracts/core/MocCoreExpansion.sol:MocCoreExpansion",
        "label": "__gap",
        "offset": 0,
        "slot": "1",
        "type": "t_array(t_uint256)50_storage"
      },
      {
        "astId": 1247,
        "contract": "contracts/core/MocCoreExpansion.sol:MocCoreExpansion",
        "label": "__gap",
        "offset": 0,
        "slot": "51",
        "type": "t_array(t_uint256)50_storage"
      },
      {
        "astId": 29903,
        "contract": "contracts/core/MocCoreExpansion.sol:MocCoreExpansion",
        "label": "__gap",
        "offset": 0,
        "slot": "101",
        "type": "t_array(t_uint256)50_storage"
      },
      {
        "astId": 22000,
        "contract": "contracts/core/MocCoreExpansion.sol:MocCoreExpansion",
        "label": "governor",
        "offset": 0,
        "slot": "151",
        "type": "t_contract(IGovernor)22849"
      },
      {
        "astId": 22071,
        "contract": "contracts/core/MocCoreExpansion.sol:MocCoreExpansion",
        "label": "__gap",
        "offset": 0,
        "slot": "152",
        "type": "t_array(t_uint256)50_storage"
      },
      {
        "astId": 22140,
        "contract": "contracts/core/MocCoreExpansion.sol:MocCoreExpansion",
        "label": "stoppable",
        "offset": 0,
        "slot": "202",
        "type": "t_bool"
      },
      {
        "astId": 22142,
        "contract": "contracts/core/MocCoreExpansion.sol:MocCoreExpansion",
        "label": "_paused",
        "offset": 1,
        "slot": "202",
        "type": "t_bool"
      },
      {
        "astId": 22144,
        "contract": "contracts/core/MocCoreExpansion.sol:MocCoreExpansion",
        "label": "pauser",
        "offset": 2,
        "slot": "202",
        "type": "t_address"
      },
      {
        "astId": 22303,
        "contract": "contracts/core/MocCoreExpansion.sol:MocCoreExpansion",
        "label": "__gap",
        "offset": 0,
        "slot": "203",
        "type": "t_array(t_uint256)50_storage"
      },
      {
        "astId": 22122,
        "contract": "contracts/core/MocCoreExpansion.sol:MocCoreExpansion",
        "label": "__gap",
        "offset": 0,
        "slot": "253",
        "type": "t_array(t_uint256)50_storage"
      },
      {
        "astId": 11581,
        "contract": "contracts/core/MocCoreExpansion.sol:MocCoreExpansion",
        "label": "feeToken",
        "offset": 0,
        "slot": "303",
        "type": "t_contract(IERC20)6209"
      },
      {
        "astId": 11584,
        "contract": "contracts/core/MocCoreExpansion.sol:MocCoreExpansion",
        "label": "feeTokenPriceProvider",
        "offset": 0,
        "slot": "304",
        "type": "t_contract(IPriceProvider)22887"
      },
      {
        "astId": 11586,
        "contract": "contracts/core/MocCoreExpansion.sol:MocCoreExpansion",
        "label": "nACcb",
        "offset": 0,
        "slot": "305",
        "type": "t_uint256"
      },
      {
        "astId": 11588,
        "contract": "contracts/core/MocCoreExpansion.sol:MocCoreExpansion",
        "label": "nACioucb",
        "offset": 0,
        "slot": "306",
        "type": "t_uint256"
      },
      {
        "astId": 11591,
        "contract": "contracts/core/MocCoreExpansion.sol:MocCoreExpansion",
        "label": "tcToken",
        "offset": 0,
        "slot": "307",
        "type": "t_contract(MocTC)29728"
      },
      {
        "astId": 11593,
        "contract": "contracts/core/MocCoreExpansion.sol:MocCoreExpansion",
        "label": "nTCcb",
        "offset": 0,
        "slot": "308",
        "type": "t_uint256"
      },
      {
        "astId": 11597,
        "contract": "contracts/core/MocCoreExpansion.sol:MocCoreExpansion",
        "label": "tpTokens",
        "offset": 0,
        "slot": "309",
        "type": "t_array(t_contract(IMocRC20)22875)dyn_storage"
      },
      {
        "astId": 11602,
        "contract": "contracts/core/MocCoreExpansion.sol:MocCoreExpansion",
        "label": "peggedTokenIndex",
        "offset": 0,
        "slot": "310",
        "type": "t_mapping(t_address,t_struct(PeggedTokenIndex)11525_storage)"
      },
      {
        "astId": 11606,
        "contract": "contracts/core/MocCoreExpansion.sol:MocCoreExpansion",
        "label": "pegContainer",
        "offset": 0,
        "slot": "311",
        "type": "t_array(t_struct(PegContainerItem)11520_storage)dyn_storage"
      },
      {
        "astId": 11609,
        "contract": "contracts/core/MocCoreExpansion.sol:MocCoreExpansion",
        "label": "tpLiqPrices",
        "offset": 0,
        "slot": "312",
        "type": "t_array(t_uint256)dyn_storage"
      },
      {
        "astId": 11611,
        "contract": "contracts/core/MocCoreExpansion.sol:MocCoreExpansion",
        "label": "successFee",
        "offset": 0,
        "slot": "313",
        "type": "t_uint256"
      },
      {
        "astId": 11613,
        "contract": "contracts/core/MocCoreExpansion.sol:MocCoreExpansion",
        "label": "appreciationFactor",
        "offset": 0,
        "slot": "314",
        "type": "t_uint256"
      },
      {
        "astId": 11615,
        "contract": "contracts/core/MocCoreExpansion.sol:MocCoreExpansion",
        "label": "feeRetainer",
        "offset": 0,
        "slot": "315",
        "type": "t_uint256"
      },
      {
        "astId": 11617,
        "contract": "contracts/core/MocCoreExpansion.sol:MocCoreExpansion",
        "label": "tcMintFee",
        "offset": 0,
        "slot": "316",
        "type": "t_uint256"
      },
      {
        "astId": 11619,
        "contract": "contracts/core/MocCoreExpansion.sol:MocCoreExpansion",
        "label": "tcRedeemFee",
        "offset": 0,
        "slot": "317",
        "type": "t_uint256"
      },
      {
        "astId": 11621,
        "contract": "contracts/core/MocCoreExpansion.sol:MocCoreExpansion",
        "label": "swapTPforTPFee",
        "offset": 0,
        "slot": "318",
        "type": "t_uint256"
      },
      {
        "astId": 11623,
        "contract": "contracts/core/MocCoreExpansion.sol:MocCoreExpansion",
        "label": "swapTPforTCFee",
        "offset": 0,
        "slot": "319",
        "type": "t_uint256"
      },
      {
        "astId": 11625,
        "contract": "contracts/core/MocCoreExpansion.sol:MocCoreExpansion",
        "label": "swapTCforTPFee",
        "offset": 0,
        "slot": "320",
        "type": "t_uint256"
      },
      {
        "astId": 11627,
        "contract": "contracts/core/MocCoreExpansion.sol:MocCoreExpansion",
        "label": "redeemTCandTPFee",
        "offset": 0,
        "slot": "321",
        "type": "t_uint256"
      },
      {
        "astId": 11629,
        "contract": "contracts/core/MocCoreExpansion.sol:MocCoreExpansion",
        "label": "mintTCandTPFee",
        "offset": 0,
        "slot": "322",
        "type": "t_uint256"
      },
      {
        "astId": 11631,
        "contract": "contracts/core/MocCoreExpansion.sol:MocCoreExpansion",
        "label": "feeTokenPct",
        "offset": 0,
        "slot": "323",
        "type": "t_uint256"
      },
      {
        "astId": 11635,
        "contract": "contracts/core/MocCoreExpansion.sol:MocCoreExpansion",
        "label": "tpMintFees",
        "offset": 0,
        "slot": "324",
        "type": "t_mapping(t_address,t_uint256)"
      },
      {
        "astId": 11639,
        "contract": "contracts/core/MocCoreExpansion.sol:MocCoreExpansion",
        "label": "tpRedeemFees",
        "offset": 0,
        "slot": "325",
        "type": "t_mapping(t_address,t_uint256)"
      },
      {
        "astId": 11641,
        "contract": "contracts/core/MocCoreExpansion.sol:MocCoreExpansion",
        "label": "mocFeeFlowAddress",
        "offset": 0,
        "slot": "326",
        "type": "t_address"
      },
      {
        "astId": 11643,
        "contract": "contracts/core/MocCoreExpansion.sol:MocCoreExpansion",
        "label": "mocAppreciationBeneficiaryAddress",
        "offset": 0,
        "slot": "327",
        "type": "t_address"
      },
      {
        "astId": 11646,
        "contract": "contracts/core/MocCoreExpansion.sol:MocCoreExpansion",
        "label": "tpCtarg",
        "offset": 0,
        "slot": "328",
        "type": "t_array(t_uint256)dyn_storage"
      },
      {
        "astId": 11648,
        "contract": "contracts/core/MocCoreExpansion.sol:MocCoreExpansion",
        "label": "protThrld",
        "offset": 0,
        "slot": "329",
        "type": "t_uint256"
      },
      {
        "astId": 11650,
        "contract": "contracts/core/MocCoreExpansion.sol:MocCoreExpansion",
        "label": "liqThrld",
        "offset": 0,
        "slot": "330",
        "type": "t_uint256"
      },
      {
        "astId": 11652,
        "contract": "contracts/core/MocCoreExpansion.sol:MocCoreExpansion",
        "label": "liqEnabled",
        "offset": 0,
        "slot": "331",
        "type": "t_bool"
      },
      {
        "astId": 11654,
        "contract": "contracts/core/MocCoreExpansion.sol:MocCoreExpansion",
        "label": "liquidated",
        "offset": 1,
        "slot": "331",
        "type": "t_bool"
      },
      {
        "astId": 11656,
        "contract": "contracts/core/MocCoreExpansion.sol:MocCoreExpansion",
        "label": "bes",
        "offset": 0,
        "slot": "332",
        "type": "t_uint256"
      },
      {
        "astId": 11658,
        "contract": "contracts/core/MocCoreExpansion.sol:MocCoreExpansion",
        "label": "bns",
        "offset": 0,
        "slot": "333",
        "type": "t_uint256"
      },
      {
        "astId": 11660,
        "contract": "contracts/core/MocCoreExpansion.sol:MocCoreExpansion",
        "label": "qACLockedInPending",
        "offset": 0,
        "slot": "334",
        "type": "t_uint256"
      },
      {
        "astId": 11662,
        "contract": "contracts/core/MocCoreExpansion.sol:MocCoreExpansion",
        "label": "mocQueue",
        "offset": 0,
        "slot": "335",
        "type": "t_address"
      },
      {
        "astId": 11665,
        "contract": "contracts/core/MocCoreExpansion.sol:MocCoreExpansion",
        "label": "tpiou",
        "offset": 0,
        "slot": "336",
        "type": "t_array(t_int256)dyn_storage"
      },
      {
        "astId": 11668,
        "contract": "contracts/core/MocCoreExpansion.sol:MocCoreExpansion",
        "label": "pACtpLstop",
        "offset": 0,
        "slot": "337",
        "type": "t_array(t_uint256)dyn_storage"
      },
      {
        "astId": 11671,
        "contract": "contracts/core/MocCoreExpansion.sol:MocCoreExpansion",
        "label": "maxAbsoluteOpProvider",
        "offset": 0,
        "slot": "338",
        "type": "t_contract(IDataProvider)22803"
      },
      {
        "astId": 11674,
        "contract": "contracts/core/MocCoreExpansion.sol:MocCoreExpansion",
        "label": "maxOpDiffProvider",
        "offset": 0,
        "slot": "339",
        "type": "t_contract(IDataProvider)22803"
      },
      {
        "astId": 11676,
        "contract": "contracts/core/MocCoreExpansion.sol:MocCoreExpansion",
        "label": "decayBlockSpan",
        "offset": 0,
        "slot": "340",
        "type": "t_uint256"
      },
      {
        "astId": 11678,
        "contract": "contracts/core/MocCoreExpansion.sol:MocCoreExpansion",
        "label": "absoluteAccumulator",
        "offset": 0,
        "slot": "341",
        "type": "t_uint256"
      },
      {
        "astId": 11680,
        "contract": "contracts/core/MocCoreExpansion.sol:MocCoreExpansion",
        "label": "differentialAccumulator",
        "offset": 0,
        "slot": "342",
        "type": "t_int256"
      },
      {
        "astId": 11682,
        "contract": "contracts/core/MocCoreExpansion.sol:MocCoreExpansion",
        "label": "lastOperationBlockNumber",
        "offset": 0,
        "slot": "343",
        "type": "t_uint256"
      },
      {
        "astId": 11684,
        "contract": "contracts/core/MocCoreExpansion.sol:MocCoreExpansion",
        "label": "tcInterestCollectorAddress",
        "offset": 0,
        "slot": "344",
        "type": "t_address"
      },
      {
        "astId": 11686,
        "contract": "contracts/core/MocCoreExpansion.sol:MocCoreExpansion",
        "label": "tcInterestRate",
        "offset": 0,
        "slot": "345",
        "type": "t_uint256"
      },
      {
        "astId": 11688,
        "contract": "contracts/core/MocCoreExpansion.sol:MocCoreExpansion",
        "label": "tcInterestPaymentBlockSpan",
        "offset": 0,
        "slot": "346",
        "type": "t_uint256"
      },
      {
        "astId": 11690,
        "contract": "contracts/core/MocCoreExpansion.sol:MocCoreExpansion",
        "label": "nextTCInterestPayment",
        "offset": 0,
        "slot": "347",
        "type": "t_uint256"
      },
      {
        "astId": 13303,
        "contract": "contracts/core/MocCoreExpansion.sol:MocCoreExpansion",
        "label": "__gap",
        "offset": 0,
        "slot": "348",
        "type": "t_array(t_uint256)50_storage"
      },
      {
        "astId": 17097,
        "contract": "contracts/core/MocCoreExpansion.sol:MocCoreExpansion",
        "label": "tpEma",
        "offset": 0,
        "slot": "398",
        "type": "t_array(t_struct(EmaItem)17093_storage)dyn_storage"
      },
      {
        "astId": 17099,
        "contract": "contracts/core/MocCoreExpansion.sol:MocCoreExpansion",
        "label": "nextEmaCalculation",
        "offset": 0,
        "slot": "399",
        "type": "t_uint256"
      },
      {
        "astId": 17101,
        "contract": "contracts/core/MocCoreExpansion.sol:MocCoreExpansion",
        "label": "emaCalculationBlockSpan",
        "offset": 0,
        "slot": "400",
        "type": "t_uint256"
      },
      {
        "astId": 17473,
        "contract": "contracts/core/MocCoreExpansion.sol:MocCoreExpansion",
        "label": "__gap",
        "offset": 0,
        "slot": "401",
        "type": "t_array(t_uint256)50_storage"
      },
      {
        "astId": 13337,
        "contract": "contracts/core/MocCoreExpansion.sol:MocCoreExpansion",
        "label": "mocVendors",
        "offset": 0,
        "slot": "451",
        "type": "t_contract(MocVendors)30033"
      },
      {
        "astId": 14210,
        "contract": "contracts/core/MocCoreExpansion.sol:MocCoreExpansion",
        "label": "__gap",
        "offset": 0,
        "slot": "452",
        "type": "t_array(t_uint256)50_storage"
      }
    ],
    "types": {
      "t_address": {
        "encoding": "inplace",
        "label": "address",
        "numberOfBytes": "20"
      },
      "t_array(t_contract(IMocRC20)22875)dyn_storage": {
        "base": "t_contract(IMocRC20)22875",
        "encoding": "dynamic_array",
        "label": "contract IMocRC20[]",
        "numberOfBytes": "32"
      },
      "t_array(t_int256)dyn_storage": {
        "base": "t_int256",
        "encoding": "dynamic_array",
        "label": "int256[]",
        "numberOfBytes": "32"
      },
      "t_array(t_struct(EmaItem)17093_storage)dyn_storage": {
        "base": "t_struct(EmaItem)17093_storage",
        "encoding": "dynamic_array",
        "label": "struct MocEma.EmaItem[]",
        "numberOfBytes": "32"
      },
      "t_array(t_struct(PegContainerItem)11520_storage)dyn_storage": {
        "base": "t_struct(PegContainerItem)11520_storage",
        "encoding": "dynamic_array",
        "label": "struct MocBaseBucket.PegContainerItem[]",
        "numberOfBytes": "32"
      },
      "t_array(t_uint256)50_storage": {
        "base": "t_uint256",
        "encoding": "inplace",
        "label": "uint256[50]",
        "numberOfBytes": "1600"
      },
      "t_array(t_uint256)dyn_storage": {
        "base": "t_uint256",
        "encoding": "dynamic_array",
        "label": "uint256[]",
        "numberOfBytes": "32"
      },
      "t_bool": {
        "encoding": "inplace",
        "label": "bool",
        "numberOfBytes": "1"
      },
      "t_contract(IDataProvider)22803": {
        "encoding": "inplace",
        "label": "contract IDataProvider",
        "numberOfBytes": "20"
      },
      "t_contract(IERC20)6209": {
        "encoding": "inplace",
        "label": "contract IERC20",
        "numberOfBytes": "20"
      },
      "t_contract(IGovernor)22849": {
        "encoding": "inplace",
        "label": "contract IGovernor",
        "numberOfBytes": "20"
      },
      "t_contract(IMocRC20)22875": {
        "encoding": "inplace",
        "label": "contract IMocRC20",
        "numberOfBytes": "20"
      },
      "t_contract(IPriceProvider)22887": {
        "encoding": "inplace",
        "label": "contract IPriceProvider",
        "numberOfBytes": "20"
      },
      "t_contract(MocTC)29728": {
        "encoding": "inplace",
        "label": "contract MocTC",
        "numberOfBytes": "20"
      },
      "t_contract(MocVendors)30033": {
        "encoding": "inplace",
        "label": "contract MocVendors",
        "numberOfBytes": "20"
      },
      "t_int256": {
        "encoding": "inplace",
        "label": "int256",
        "numberOfBytes": "32"
      },
      "t_mapping(t_address,t_struct(PeggedTokenIndex)11525_storage)": {
        "encoding": "mapping",
        "key": "t_address",
        "label": "mapping(address => struct MocBaseBucket.PeggedTokenIndex)",
        "numberOfBytes": "32",
        "value": "t_struct(PeggedTokenIndex)11525_storage"
      },
      "t_mapping(t_address,t_uint256)": {
        "encoding": "mapping",
        "key": "t_address",
        "label": "mapping(address => uint256)",
        "numberOfBytes": "32",
        "value": "t_uint256"
      },
      "t_struct(EmaItem)17093_storage": {
        "encoding": "inplace",
        "label": "struct MocEma.EmaItem",
        "members": [
          {
            "astId": 17090,
            "contract": "contracts/core/MocCoreExpansion.sol:MocCoreExpansion",
            "label": "ema",
            "offset": 0,
            "slot": "0",
            "type": "t_uint256"
          },
          {
            "astId": 17092,
            "contract": "contracts/core/MocCoreExpansion.sol:MocCoreExpansion",
            "label": "sf",
            "offset": 0,
            "slot": "1",
            "type": "t_uint256"
          }
        ],
        "numberOfBytes": "64"
      },
      "t_struct(PegContainerItem)11520_storage": {
        "encoding": "inplace",
        "label": "struct MocBaseBucket.PegContainerItem",
        "members": [
          {
            "astId": 11516,
            "contract": "contracts/core/MocCoreExpansion.sol:MocCoreExpansion",
            "label": "nTP",
            "offset": 0,
            "slot": "0",
            "type": "t_uint256"
          },
          {
            "astId": 11519,
            "contract": "contracts/core/MocCoreExpansion.sol:MocCoreExpansion",
            "label": "priceProvider",
            "offset": 0,
            "slot": "1",
            "type": "t_contract(IPriceProvider)22887"
          }
        ],
        "numberOfBytes": "64"
      },
      "t_struct(PeggedTokenIndex)11525_storage": {
        "encoding": "inplace",
        "label": "struct MocBaseBucket.PeggedTokenIndex",
        "members": [
          {
            "astId": 11522,
            "contract": "contracts/core/MocCoreExpansion.sol:MocCoreExpansion",
            "label": "index",
            "offset": 0,
            "slot": "0",
            "type": "t_uint256"
          },
          {
            "astId": 11524,
            "contract": "contracts/core/MocCoreExpansion.sol:MocCoreExpansion",
            "label": "exists",
            "offset": 0,
            "slot": "1",
            "type": "t_bool"
          }
        ],
        "numberOfBytes": "64"
      },
      "t_uint256": {
        "encoding": "inplace",
        "label": "uint256",
        "numberOfBytes": "32"
      },
      "t_uint8": {
        "encoding": "inplace",
        "label": "uint8",
        "numberOfBytes": "1"
      }
    }
  },
  "userdoc": {
    "kind": "user",
    "methods": {
      "addPeggedToken((address,address,uint256,uint256,uint256,uint256,uint256))": {
        "notice": "add a Pegged Token to the protocol"
      },
      "calcCtargemaCA()": {
        "notice": "calculates target coverage adjusted by all Pegged Token's to Collateral Asset rate moving average"
      },
      "changeGovernor(address)": {
        "notice": "Change the contract's governor. Should be called through the old governance system"
      },
      "editPeggedToken((address,address,uint256,uint256,uint256,uint256,uint256))": {
        "notice": "modifies a Pegged Token of the protocol"
      },
      "evalLiquidation()": {
        "notice": "evaluates if liquidation threshold has been reached and liq is Enabled. If so forces contracts liquidation, blocking all mint & redeem operations. May emit a {ContractLiquidated} event."
      },
      "getPACtp(address)": {
        "notice": "get how many Pegged Token equal 1 Collateral Asset"
      },
      "getTpAmount()": {
        "notice": "return current amount of Tps"
      },
      "governor()": {
        "notice": "The address of the contract which governs this one"
      },
      "isLiquidationReached()": {
        "notice": "If liquidation is enabled, verifies if forced liquidation has been reached, checking if globalCoverage <= liquidation"
      },
      "liqRedeemTPTo(address,address,address,uint256)": {
        "notice": "Allow redeem on liquidation state, user Peg balance gets burned"
      },
      "makeStoppable()": {
        "notice": "Switches ON the stoppability of the contract; if the contract was paused before making it unstoppable it will be paused again after calling this function"
      },
      "makeUnstoppable()": {
        "notice": "Switches OFF the stoppability of the contract; if the contract was paused it will no longer be so"
      },
      "maxQACToMintTP()": {
        "notice": "gets the max amount of AC allowed to operate to mint TP with, restricted by accumulators // TODO: move this function to a MocView contract"
      },
      "maxQACToRedeemTP()": {
        "notice": "gets the max amount of AC allowed to operate to redeem TP with, restricted by accumulators // TODO: move this function to a MocView contract"
      },
      "mintTCandTPto((address,uint256,uint256,address,address,address))": {
        "notice": "mint Collateral Token and Pegged Token in exchange for Collateral Asset  This operation is done without checking coverage  Collateral Token and Pegged Token are minted in equivalent proportions so that its price  and global coverage are not modified.  Reverts if qAC sent are insufficient."
      },
      "pause()": {
        "notice": "Called by the owner to pause, triggers stopped state"
      },
      "paused()": {
        "notice": "Returns true if paused"
      },
      "redeemTCandTPto((address,uint256,uint256,uint256,address,address,address))": {
        "notice": "redeem Collateral Asset in exchange for Collateral Token and Pegged Token  This operation is done without checking coverage  Collateral Token and Pegged Token are redeemed in equivalent proportions so that its price  and global coverage are not modified.  Reverts if qTP sent are insufficient."
      },
      "setPauser(address)": {
        "notice": "Changes the address which is enable to pause this contract"
      },
      "shouldCalculateEma()": {
        "notice": "true if the necessary span has pass since last ema update"
      },
      "swapTCforTPto((address,uint256,uint256,uint256,address,address,address))": {
        "notice": "swap Collateral Token to Pegged Token"
      },
      "swapTPforTCto((address,uint256,uint256,uint256,address,address,address))": {
        "notice": "swap Pegged Token to Collateral Token"
      },
      "swapTPforTPto((address,address,uint256,uint256,uint256,address,address,address))": {
        "notice": "swap Pegged Token to another one  This operation is done without checking coverage unless the target coverage for  received Pegged Token is greater than the Pegged Token sent"
      },
      "unpause()": {
        "notice": "Called by the owner to unpause, returns to normal state"
      },
      "updateEmas()": {
        "notice": "If time, calculates the EMA for all the Pegged Token prices."
      }
    },
    "notice": "This contract is used as an expansion of MocCore because 24kb size limitation  MocCore delegate some function calls to it.",
    "version": 1
  }
}