{
  "contractName": "PriceProviderMock",
  "sourceName": "contracts/mocks/PriceProviderMock.sol",
  "abi": [
    {
      "inputs": [
        {
          "internalType": "uint256",
          "name": "price_",
          "type": "uint256"
        }
      ],
      "stateMutability": "nonpayable",
      "type": "constructor"
    },
    {
      "inputs": [],
      "name": "deprecatePriceProvider",
      "outputs": [],
      "stateMutability": "nonpayable",
      "type": "function"
    },
    {
      "inputs": [],
      "name": "has",
      "outputs": [
        {
          "internalType": "bool",
          "name": "",
          "type": "bool"
        }
      ],
      "stateMutability": "view",
      "type": "function"
    },
    {
      "inputs": [],
      "name": "mocPrice",
      "outputs": [
        {
          "internalType": "bytes32",
          "name": "",
          "type": "bytes32"
        }
      ],
      "stateMutability": "view",
      "type": "function"
    },
    {
      "inputs": [],
      "name": "peek",
      "outputs": [
        {
          "internalType": "bytes32",
          "name": "",
          "type": "bytes32"
        },
        {
          "internalType": "bool",
          "name": "",
          "type": "bool"
        }
      ],
      "stateMutability": "view",
      "type": "function"
    },
    {
      "inputs": [
        {
          "internalType": "uint256",
          "name": "price_",
          "type": "uint256"
        }
      ],
      "name": "poke",
      "outputs": [],
      "stateMutability": "nonpayable",
      "type": "function"
    }
  ],
  "bytecode": "0x608060405234801561001057600080fd5b5060405161018138038061018183398101604081905261002f91610043565b6000556001805460ff19168117905561005c565b60006020828403121561005557600080fd5b5051919050565b6101168061006b6000396000f3fe6080604052348015600f57600080fd5b506004361060505760003560e01c80632a3f438914605557806332145f901460705780635095e3d914608257806359e02dd7146090578063b689d5ac1460ad575b600080fd5b605d60005481565b6040519081526020015b60405180910390f35b6080607b36600460c8565b600055565b005b60806001805460ff19169055565b60005460015460ff16604080519283529015156020830152016067565b60015460b99060ff1681565b60405190151581526020016067565b60006020828403121560d957600080fd5b503591905056fea26469706673582212202f32d9766874d6a34191093ea824c1f980a41bb7d175c2d324f81871df97720a64736f6c63430008110033",
  "linkReferences": {},
  "deployedLinkReferences": {},
  "devdoc": {
    "kind": "dev",
    "methods": {
      "constructor": {
        "params": {
          "price_": "MoC price for mock contract"
        }
      },
      "peek()": {
        "params": {
          "price": "assetPrice",
          "valid": "true if the price is valid"
        }
      }
    },
    "version": 1
  },
  "evm": {
    "bytecode": {
      "linkReferences": {},
      "opcodes": "PUSH1 0x80 PUSH1 0x40 MSTORE CALLVALUE DUP1 ISZERO PUSH2 0x10 JUMPI PUSH1 0x0 DUP1 REVERT JUMPDEST POP PUSH1 0x40 MLOAD PUSH2 0x181 CODESIZE SUB DUP1 PUSH2 0x181 DUP4 CODECOPY DUP2 ADD PUSH1 0x40 DUP2 SWAP1 MSTORE PUSH2 0x2F SWAP2 PUSH2 0x43 JUMP JUMPDEST PUSH1 0x0 SSTORE PUSH1 0x1 DUP1 SLOAD PUSH1 0xFF NOT AND DUP2 OR SWAP1 SSTORE PUSH2 0x5C JUMP JUMPDEST PUSH1 0x0 PUSH1 0x20 DUP3 DUP5 SUB SLT ISZERO PUSH2 0x55 JUMPI PUSH1 0x0 DUP1 REVERT JUMPDEST POP MLOAD SWAP2 SWAP1 POP JUMP JUMPDEST PUSH2 0x116 DUP1 PUSH2 0x6B PUSH1 0x0 CODECOPY PUSH1 0x0 RETURN INVALID PUSH1 0x80 PUSH1 0x40 MSTORE CALLVALUE DUP1 ISZERO PUSH1 0xF JUMPI PUSH1 0x0 DUP1 REVERT JUMPDEST POP PUSH1 0x4 CALLDATASIZE LT PUSH1 0x50 JUMPI PUSH1 0x0 CALLDATALOAD PUSH1 0xE0 SHR DUP1 PUSH4 0x2A3F4389 EQ PUSH1 0x55 JUMPI DUP1 PUSH4 0x32145F90 EQ PUSH1 0x70 JUMPI DUP1 PUSH4 0x5095E3D9 EQ PUSH1 0x82 JUMPI DUP1 PUSH4 0x59E02DD7 EQ PUSH1 0x90 JUMPI DUP1 PUSH4 0xB689D5AC EQ PUSH1 0xAD JUMPI JUMPDEST PUSH1 0x0 DUP1 REVERT JUMPDEST PUSH1 0x5D PUSH1 0x0 SLOAD DUP2 JUMP JUMPDEST PUSH1 0x40 MLOAD SWAP1 DUP2 MSTORE PUSH1 0x20 ADD JUMPDEST PUSH1 0x40 MLOAD DUP1 SWAP2 SUB SWAP1 RETURN JUMPDEST PUSH1 0x80 PUSH1 0x7B CALLDATASIZE PUSH1 0x4 PUSH1 0xC8 JUMP JUMPDEST PUSH1 0x0 SSTORE JUMP JUMPDEST STOP JUMPDEST PUSH1 0x80 PUSH1 0x1 DUP1 SLOAD PUSH1 0xFF NOT AND SWAP1 SSTORE JUMP JUMPDEST PUSH1 0x0 SLOAD PUSH1 0x1 SLOAD PUSH1 0xFF AND PUSH1 0x40 DUP1 MLOAD SWAP3 DUP4 MSTORE SWAP1 ISZERO ISZERO PUSH1 0x20 DUP4 ADD MSTORE ADD PUSH1 0x67 JUMP JUMPDEST PUSH1 0x1 SLOAD PUSH1 0xB9 SWAP1 PUSH1 0xFF AND DUP2 JUMP JUMPDEST PUSH1 0x40 MLOAD SWAP1 ISZERO ISZERO DUP2 MSTORE PUSH1 0x20 ADD PUSH1 0x67 JUMP JUMPDEST PUSH1 0x0 PUSH1 0x20 DUP3 DUP5 SUB SLT ISZERO PUSH1 0xD9 JUMPI PUSH1 0x0 DUP1 REVERT JUMPDEST POP CALLDATALOAD SWAP2 SWAP1 POP JUMP INVALID LOG2 PUSH5 0x6970667358 0x22 SLT KECCAK256 0x2F ORIGIN 0xD9 PUSH23 0x6874D6A34191093EA824C1F980A41BB7D175C2D324F818 PUSH18 0xDF97720A64736F6C63430008110033000000 "
    },
    "gasEstimates": {
      "creation": {
        "codeDepositCost": "55600",
        "executionCost": "infinite",
        "totalCost": "infinite"
      },
      "external": {
        "deprecatePriceProvider()": "24372",
        "has()": "2376",
        "mocPrice()": "2262",
        "peek()": "4457",
        "poke(uint256)": "22312"
      }
    },
    "methodIdentifiers": {
      "deprecatePriceProvider()": "5095e3d9",
      "has()": "b689d5ac",
      "mocPrice()": "2a3f4389",
      "peek()": "59e02dd7",
      "poke(uint256)": "32145f90"
    }
  },
  "storageLayout": {
    "storage": [
      {
        "astId": 17350,
        "contract": "contracts/mocks/PriceProviderMock.sol:PriceProviderMock",
        "label": "mocPrice",
        "offset": 0,
        "slot": "0",
        "type": "t_bytes32"
      },
      {
        "astId": 17352,
        "contract": "contracts/mocks/PriceProviderMock.sol:PriceProviderMock",
        "label": "has",
        "offset": 0,
        "slot": "1",
        "type": "t_bool"
      }
    ],
    "types": {
      "t_bool": {
        "encoding": "inplace",
        "label": "bool",
        "numberOfBytes": "1"
      },
      "t_bytes32": {
        "encoding": "inplace",
        "label": "bytes32",
        "numberOfBytes": "32"
      }
    }
  },
  "userdoc": {
    "kind": "user",
    "methods": {
      "constructor": {
        "notice": "constructor"
      },
      "peek()": {
        "notice": "returns the given `price` for the asset if `valid`"
      }
    },
    "version": 1
  }
}