{
  "contractName": "EchidnaMocQueueTester",
  "sourceName": "contracts/echidna/EchidnaMocQueueTester.sol",
  "abi": [
    {
      "inputs": [],
      "stateMutability": "payable",
      "type": "constructor"
    },
    {
      "inputs": [],
      "name": "execute",
      "outputs": [],
      "stateMutability": "nonpayable",
      "type": "function"
    },
    {
      "inputs": [
        {
          "internalType": "uint256",
          "name": "qTC_",
          "type": "uint256"
        },
        {
          "internalType": "uint256",
          "name": "qACmax_",
          "type": "uint256"
        }
      ],
      "name": "mintTC",
      "outputs": [],
      "stateMutability": "nonpayable",
      "type": "function"
    },
    {
      "inputs": [
        {
          "internalType": "uint256",
          "name": "qTP_",
          "type": "uint256"
        },
        {
          "internalType": "uint256",
          "name": "qACmax_",
          "type": "uint256"
        }
      ],
      "name": "mintTP",
      "outputs": [],
      "stateMutability": "nonpayable",
      "type": "function"
    },
    {
      "inputs": [
        {
          "internalType": "uint96",
          "name": "price_",
          "type": "uint96"
        }
      ],
      "name": "pokePrice",
      "outputs": [],
      "stateMutability": "nonpayable",
      "type": "function"
    },
    {
      "inputs": [
        {
          "internalType": "uint256",
          "name": "qTC_",
          "type": "uint256"
        }
      ],
      "name": "redeemTC",
      "outputs": [],
      "stateMutability": "nonpayable",
      "type": "function"
    },
    {
      "inputs": [
        {
          "internalType": "uint256",
          "name": "qTP_",
          "type": "uint256"
        }
      ],
      "name": "redeemTP",
      "outputs": [],
      "stateMutability": "nonpayable",
      "type": "function"
    }
  ],
  "bytecode": "0x60806040819052600a80546001600160a01b0319908116600117909155600b805482166002179055600c8054821660031790556000916101c3808201906001600160401b0382118383101762001034579082916200cd228339039083f0801562000e80576002805483166001600160a01b039290921691909117905560405161103590818101906001600160401b038211818310176200103457806200bb529284848339039085f0801562000ede576007805485166001600160a01b039290921691909117905560405191808301916001600160401b038311848410176200105c57908392918339039083f0801562000e80576003805483166001600160a01b039290921691909117905560405161019b81016001600160401b0381118282101762001048578160209161019b6200cb878339670de0b6b3a7640000815203019083f0801562000e80576004805483166001600160a01b039290921691909117905560405161019d808201906001600160401b03821183831017620010345760209183916200b9b58339600019815203019083f0801562000e80576005805483166001600160a01b03929092169190911790556040516124fa808201906001600160401b03821183831017620010345790829162013dc08339039083f0801562000e80576001600160a01b0390620001f9908216620010c4565b168160065416176006556040516158738082019082821060018060401b0383111762001034579082916200204b8339039083f0801562000e80576001600160a01b039062000249908216620010c4565b8354831691161782556040516140f7808201906001600160401b038211838310176200103457908291620078be8339039083f0801562000e80576009805483166001600160a01b03929092169190911790556040516110af808201906001600160401b038211838310176200103457908291620162ba8339039083f0801562000e80576001600160a01b0390620002e2908216620010c4565b16816008541617600855604051614c4d8082019082821060018060401b0383111762001034579082916200cee58339039083f0801562000e80576001600160a01b039062000332908216620010c4565b60018054909316911617905560085460025482916001600160a01b039081169116813b1562000f0557829160648392604051958693849263c0c53b8b60e01b845233600485015260248401523360448401525af1801562000f925762001021575b6006546002549192506001600160a01b039081169116813b1562000f05578291610104839260405194859384926323c56d0560e21b84526080600485015260076084850152662a21aa37b5b2b760c91b60a485015260c06024850152600260c485015261544360f01b60e485015230604485015260648401525af1801562000e805762001008575b50600154600354600454600654600a54600b54600554604051966001600160a01b039182169693821695928216948216939282169282169116620004626103408962001070565b875260208701526040860152606085015281608085015260a0840152671bc16d674ec8000060c0840152670de0b6b3a764000060e08401526702c68af0bb14000061010084015266b1a2bc2ec5000061012084015266b1a2bc2ec50000610140840152662386f26fc10000610160840152662386f26fc10000610180840152662386f26fc100006101a084015267011c37937e0800006101c084015267011c37937e0800006101e08401526706f05b59d3b2000061020084015267016345785d8a00006102208401526706f05b59d3b2000061024084015262278d0061026084015261028083015267016345785d8a00006102a083015262093a806102c0830152806102e08301526103008201526102d061032082015260018060a01b036002541660018060a01b036009541660018060a01b03600854169160405193620005ac60c08662001070565b84526020840152336040840152606083015262015180608083015260a082015260018060a01b036007541660405191620005e860408462001070565b8252602082015281546001600160a01b031690813b1562000f0557604080516330500efd60e11b81528251805180516001600160a01b039081166004850152602080830151821660248601528286015182166044860152606080840151831660648701526080808501518416608488015260a080860151851660a489015260c086015160c489015260e086015160e48901526101008601516101048901526101208601516101248901526101408601516101448901526101608601516101648901526101808601516101848901526101a08601516101a48901526101c08601516101c48901526101e08601516101e489015261020086015161020489015261022086015161022489015261024086015161024489015261026086015161026489015261028086015185166102848901526102a08601516102a48901526102c08601516102c48901526102e086015185166102e48901526103008601518516610304890152610320909501516103248801528286015184166103448801529685015183166103648701528401518216610384860152948301516103a485015291015181166103c48301529190920151166103e4820152908290829061040490829084905af1801562000e805762000fef575b506001546002546040516001600160a01b039283169290911690620007e16101208262001070565b6064815260646020820152606460408201526064606082015260646080820152606460a0820152606460c0820152606460e08201526064610100820152823b1562000fea576101a484928361010095604051968795869463db90147760e01b86526004860152336024860152600a6044860152600a606486015280516084860152602081015160a4860152604081015160c4860152606081015160e4860152608081015161010486015260a081015161012486015260c081015161014486015260e081015161016486015201516101848401525af1801562000e805762000fd1575b5060015481546001600160a01b039182169116813b1562000f0557829160248392604051948593849263bbe720d960e01b845260048401525af1801562000e805762000fb8575b5060065481546001600160a01b039182169116813b1562000f055782916024839260405194859384926383d2230d60e01b845260048401525af1801562000e805762000f9f575b5050604051906200096460e08362001070565b808252806020830152674563918244f40000604083015266b1a2bc2ec50000606083015266b1a2bc2ec500006080830152680b7e174cc69ed0000060a083015266b1a2bc2ec5000060c08301526040518061228e81011060018060401b0361228e8301111762000f5d5761228e62011b3282398061228e8101039082f0801562000f92576001600160a01b0390620009fe908216620010c4565b825460025492909116916001600160a01b039182169116823b1562000f8e57604051916323c56d0560e21b83526080600484015260076084840152662a282a37b5b2b760c91b60a484015260c06024840152600260c484015261054560f41b60e48401526044830152606482015282816101048183865af1801562000e3f5790839162000f71575b50508252670de0b6b3a76400006060830151066060830152670de0b6b3a76400006080830151066080830152604051918261019b81011060018060401b0361019b8501111762000f5d57819261019b6200cb878239680cbd47b6eaa8cc000161019b82015260208161019b810103019083f0801562000e80576001600160a01b03908116602083015282541690813b1562000f055760408051636dbcb03960e11b815282516001600160a01b0390811660048301526020840151166024820152908201516044820152606082015160648201526080820151608482015260a082015160a482015260c09091015160c4820152908290829060e490829084905af1801562000e805762000f44575b506007546040516318160ddd60e01b81526001600160a01b0390911690602081600481855afa90811562000e3f57839162000f09575b50813b1562000f055782916044839260405194859384926340c10f1960e01b84523060048501521960248401525af1801562000e805762000ee9575b5050600754815460405163095ea7b360e01b8082526001600160a01b03928316600483015269065a4da25d3016c0000060248301819052909391929091602091849160449183918991165af190811562000ede5760649260209262000ebc575b5084546040516360ef07bf60e01b815268a2a15d09519be00000600482015260248101929092523060448301528382018690529092839160849183916001600160a01b03165af1801562000e3f5762000e8b575b5060075482546040519283526001600160a01b039081166004840152683635c9adc5dea000006024840152602091839160449183918791165af1801562000e805762000e4a575b508054604051627c6da160e21b8152600481018390526001600160a01b0390911690602081602481855afa90811562000e3f57839162000df1575b506064929160a4602092604051958693849263d2dc25a560e01b845260018060a01b031660048401526904f9f00373a9efb000006024840152683635c9adc5dea00000604484015230828401528660848401525af190811562000de5575062000daf575b604051610b2e9081620011248239f35b602090813d831162000ddd575b62000dc8818362001070565b8101031262000dd8573862000d9f565b600080fd5b503d62000dbc565b604051903d90823e3d90fd5b90506020813d60201162000e36575b8162000e0f6020938362001070565b8101031262000e3257516001600160a01b038116810362000e3257606462000d3b565b8280fd5b3d915062000e00565b6040513d85823e3d90fd5b62000e709060203d60201162000e78575b62000e67818362001070565b810190620010aa565b503862000d00565b503d62000e5b565b6040513d84823e3d90fd5b602090813d831162000eb4575b62000ea4818362001070565b8101031262000dd8573862000cb9565b503d62000e98565b62000ed690833d851162000e785762000e67818362001070565b503862000c65565b6040513d86823e3d90fd5b8162000ef59162001070565b62000f0257803862000c05565b80fd5b5050fd5b9250506020823d60201162000f3b575b8162000f286020938362001070565b8101031262000dd8578291513862000bc9565b3d915062000f19565b8162000f509162001070565b62000f0257803862000b93565b634e487b7160e01b82526041600452602482fd5b8162000f7d9162001070565b62000f8a57813862000a86565b5080fd5b8380fd5b50604051903d90823e3d90fd5b8162000fab9162001070565b62000f0257803862000951565b8162000fc49162001070565b62000f025780386200090a565b8162000fdd9162001070565b62000f02578038620008c3565b505050fd5b8162000ffb9162001070565b62000f02578038620007b9565b81620010149162001070565b62000f025780386200041b565b6200102c9162001070565b388162000393565b634e487b7160e01b85526041600452602485fd5b634e487b7160e01b84526041600452602484fd5b634e487b7160e01b86526041600452602486fd5b601f909101601f19168101906001600160401b038211908210176200109457604052565b634e487b7160e01b600052604160045260246000fd5b9081602091031262000dd85751801515810362000dd85790565b6040516103f9808201906001600160401b038211838310176200109457606091839162001c52833960018060a01b03809516815260406020820152600060408201520301906000f0801562001117571690565b6040513d6000823e3d90fdfe608080604052600436101561001357600080fd5b600090813560e01c9081630bb7f608146109df5750806343dbd9dc14610907578063614619541461031157806382a5792c146102195780638ff81e54146100f95763f40760051461006357600080fd5b346100f65760203660031901126100f6576064602060018060a01b03835416608460405180948193630581f08d60e51b8352600435600484015287602484015230604484015287828401525af180156100eb576100be575080f35b602090813d81116100e4575b6100d48183610a61565b810103126100df5780f35b600080fd5b503d6100ca565b6040513d84823e3d90fd5b80fd5b50346100f65760203660031901126100f657600435906bffffffffffffffffffffffff8083168093036102155780831461020157819260018060a01b036024604082865416815192838092634b74600160e01b82528960048301525afa9081156101f65785916101b4575b501690813b156101af576024600191858094604051968795869463032145f960e41b8652011660048401525af180156100eb5761019e5750f35b816101a891610a61565b6100f65780f35b505050fd5b90506040813d6040116101ee575b816101cf60409383610a61565b810103126101ea576020015181811681036101ea5738610164565b8480fd5b3d91506101c2565b6040513d87823e3d90fd5b634e487b7160e01b82526011600452602482fd5b5080fd5b50346100f65760403660031901126100df578054604051627c6da160e21b8152600481018390526020916001600160a01b0390811691908382602481865afa9182156101f657849260a49187916102e4575b506064604051958694859363d2dc25a560e01b85521660048401526004356024840152602435604484015230828401528860848401525af180156102d9576102b1578280f35b813d83116102d2575b6102c48183610a61565b810103126100df5738808280f35b503d6102ba565b6040513d85823e3d90fd5b6103049150843d861161030a575b6102fc8183610a61565b810190610a99565b3861026b565b503d6102f2565b50346100f657806003193601126100f657600154604051631a07f9c360e21b81526001600160a01b0390911690602081600481855afa9081156102d95783916108cc575b5061021557600c546006546040516370a0823160e01b815230600482015293916001600160a01b039081169182319160209187916024918391165afa9384156102d9578394610893575b8354604051627c6da160e21b8152600481018690529650602090879060249082906001600160a01b03165afa958615610888578495966020916024969161086b575b506040516370a0823160e01b815230600482015295869182906001600160a01b03165afa9384156101f6578594610837575b50604051632b99484960e01b815292602084600481855afa9384156106fc578694610803575b50813b156106f05785916024839260405194859384926325b2724960e11b845260048401525af180156101f6576107ee575b50600c546006546040516370a0823160e01b815230600482015295969495946001600160a01b0392831631949092909160209187916024918391165afa9485156107e35787956107af575b508654604051627c6da160e21b8152600481018990526001600160a01b0390911696906020816024818b5afa908115610787576024916020918b91610792575b506040516370a0823160e01b815230600482015292839182906001600160a01b03165afa908115610787578991610755575b50600154604051632b99484960e01b81526001600160a01b039091169790946020866004818c5afa95861561074a578b96610716575b50149182159261070b575b5050156107075761057e602091600493610ab8565b94604051928380926336ec2da160e21b82525afa9081156106fc5786916106b2575b50916105ba6001600160801b036105bf9416851115610adb565b610ab8565b8160640291606483040361069e576105d79114610adb565b60405163104df9ab60e31b815290602082600481845afa9182156102d9578392610669575b509060206004926040519384809263198804fd60e21b82525afa9081156102d9578391610633575b61063092501015610adb565b80f35b90506020823d602011610661575b8161064e60209383610a61565b810103126100df57610630915190610624565b3d9150610641565b91506020823d602011610696575b8161068460209383610a61565b810103126100df5790519060206105fc565b3d9150610677565b634e487b7160e01b84526011600452602484fd5b90506020813d6020116106f4575b816106cd60209383610a61565b810103126106f05751916001600160801b03831683036106f057916105ba6105a0565b8580fd5b3d91506106c0565b6040513d88823e3d90fd5b8680fd5b141590503880610569565b9095506020813d602011610742575b8161073260209383610a61565b810103126100df5751943861055e565b3d9150610725565b6040513d8d823e3d90fd5b90506020813d60201161077f575b8161077060209383610a61565b810103126100df575138610528565b3d9150610763565b6040513d8b823e3d90fd5b6107a99150823d841161030a576102fc8183610a61565b386104f6565b9094506020813d6020116107db575b816107cb60209383610a61565b810103126100df575193386104b6565b3d91506107be565b6040513d89823e3d90fd5b936107fc8160249596610a61565b939261046b565b9093506020813d60201161082f575b8161081f60209383610a61565b810103126106f057519238610439565b3d9150610812565b9093506020813d602011610863575b8161085360209383610a61565b810103126101ea57519238610413565b3d9150610846565b6108829150823d841161030a576102fc8183610a61565b386103e1565b6040513d86823e3d90fd5b93506020853d6020116108c4575b816108ae60209383610a61565b810103126108c057602494519361039f565b8280fd5b3d91506108a1565b90506020813d6020116108ff575b816108e760209383610a61565b810103126108c0575180151581036108c05738610355565b3d91506108da565b50346100f657602080600319360112610215578154604051627c6da160e21b8152600481018490526001600160a01b03918216918382602481865afa9182156101f657849260a49187916109c2575b5060646040519586948593630bb32c4760e21b8552166004840152600435602484015288604484015230828401528860848401525af180156102d95761099a578280f35b813d83116109bb575b6109ad8183610a61565b810103126100f65738808280f35b503d6109a3565b6109d99150843d861161030a576102fc8183610a61565b38610956565b90503461021557604036600319011261021557602081608481606460018060a01b038754166360ef07bf60e01b83526004356004840152602435602484015230604484015287828401525af180156100eb57610a39575080f35b602090813d8111610a5a575b610a4f8183610a61565b810103126100f65780f35b503d610a45565b90601f8019910116810190811067ffffffffffffffff821117610a8357604052565b634e487b7160e01b600052604160045260246000fd5b908160209103126100df57516001600160a01b03811681036100df5790565b91908203918211610ac557565b634e487b7160e01b600052601160045260246000fd5b15610ae257565b634e487b7160e01b600052600160045260246000fdfea26469706673582212201d822a79c343ba5ea6518fa23fdb351551523fe4d9347cb340168df1610f557c64736f6c6343000814003360806040526103f980380380610014816101fb565b9283398101906040818303126101f6578051906001600160a01b0382168083036101f65760208281015190926001600160401b0382116101f657019284601f850112156101f65783519361006f61006a86610236565b6101fb565b94808652848601968582840101116101f657868561008d9301610251565b803b1561019b577f360894a13ba1a3210667c828492db98dca3e2076cc3735a920a3ca505d382bbc80546001600160a01b031916831790556000917fbc7cd75a20ee27fd9adebab32041f755214dbc6bffa90cc0225b39da2e5c2d3b8380a2835115801590610194575b61010a575b60405160d190816103288239f35b818061017f9661011d61006a6027610236565b96602788527f416464726573733a206c6f772d6c6576656c2064656c65676174652063616c6c87890152660819985a5b195960ca1b60408901525190845af4913d1561018a573d9061017161006a83610236565b91825281943d92013e610274565b5038808080806100fc565b5060609250610274565b50816100f7565b60405162461bcd60e51b815260048101849052602d60248201527f455243313936373a206e657720696d706c656d656e746174696f6e206973206e60448201526c1bdd08184818dbdb9d1c9858dd609a1b6064820152608490fd5b600080fd5b6040519190601f01601f191682016001600160401b0381118382101761022057604052565b634e487b7160e01b600052604160045260246000fd5b6001600160401b03811161022057601f01601f191660200190565b60005b8381106102645750506000910152565b8181015183820152602001610254565b919290156102d65750815115610288575090565b3b156102915790565b60405162461bcd60e51b815260206004820152601d60248201527f416464726573733a2063616c6c20746f206e6f6e2d636f6e74726163740000006044820152606490fd5b8251909150156102e95750805190602001fd5b6044604051809262461bcd60e51b8252602060048301526103198151809281602486015260208686019101610251565b601f01601f19168101030190fdfe608060405236156054577f360894a13ba1a3210667c828492db98dca3e2076cc3735a920a3ca505d382bbc54600090819081906001600160a01b0316368280378136915af43d82803e156050573d90f35b3d90fd5b7f360894a13ba1a3210667c828492db98dca3e2076cc3735a920a3ca505d382bbc54600090819081906001600160a01b0316368280378136915af43d82803e156050573d90f3fea2646970667358221220f13d8f5fed5f9bf01cbf42bf0c6d0bb93d7f0fec96dcf048fba5156851d0336a64736f6c6343000814003360a08060405234620000e157306080526000549060ff8260081c166200008f575060ff8082160362000053575b60405161578c9081620000e7823960805181818161279d0152818161290c0152612e950152f35b60ff90811916176000557f7f26b83ff96e1f2b6a682f133852f6798a09c465da95921460cefb3847402498602060405160ff8152a1386200002c565b62461bcd60e51b815260206004820152602760248201527f496e697469616c697a61626c653a20636f6e747261637420697320696e697469604482015266616c697a696e6760c81b6064820152608490fd5b600080fdfe604060808152600436101561001357600080fd5b60009060e08235811c90816301dde6ef14613a3c57816301f1b684146139f55781630579188f1461395c578163073763b9146139385781630c340a241461390f5781630c36d897146138ef5781630d6ac463146138a95781630db49656146138895781630e0a8fd2146138655781630f1e5e2b1461381f57816313ed7ba5146137f557816314b4906d146137445781631867e2f5146137245781631fb0dda0146136fb5781631fe6a7ad146136c15781632069f7531461369d578163235e81cf146134ab57816323b98cde1461348357816324ffaba31461344657816325bc6c411461341c57816327eab2a1146133d65781632a20d57d146133b65781632c43bd3b146133925781632d88af4a1461333b5781632ded50f01461331b5781632eccb11c1461323f5781632ed35ca114613114578163333431fd146130f457816333421c3814612ff957816334d70ffa14612efa5781633659cfe614612e605781633915edcb14612e2f578163391bf6cf14612d175781633bc4ac0a14612cf35781633cfb09ef14612cad5781633f4ba83a14612ba15781634017936a14612b70578163407f0e3414612b5057816347dda6af14612aa65781634af3a6fc14612a275781634b746001146129dd5781634d977e78146129bd5781634e1f907a146129935781634f0f27ee146129735781634f1ef286146128835781635210570c1461285d57816352d1902d14612788578163533a4bea1461275757816353b16d1714612712578163543aeb48146126ee5781635860ee63146126ce57816358f32de9146126865781635c616a731461248b5781635c975abb146124645781635cfbe5781461244457816360009e0b1461241a57816360a01dfa14611ecd57816360ef07bf14611e26578163647846a514611dfc57816364ec230a14611dd8578163662013f414611dbb5781636827435714611d925781636b5488df14611d725781636f30471f14611d525781637071346814611d2e578163735d396014611ce857816373e28af914611cc45781637554fffd14611ca45781637622805514611c845781637750ba0c14611c60578163797709ca14611b7157816379f9a91c14611b515781637a193c3114611b315781637a4ff1d914611b0d5781637a727fe814611aed5781637af5758c14611ac95781637cba238314611aa55781637d8e031414611a665781637f01c71514611a3c5781637f13b99814611a065781637f4a4fe0146119e6578163826fcd58146119c35781638456cb591461192e57816385bf9593146118e8578163883d21cb146118275781638cfa4241146118075781638e2bdb86146117dd5781638f1a383a146117b55781639853c35a1461178b5781639ad6659d146117555781639cabfc00146117095781639fd0506d146116dc578163a8e9ac30146116b9578163ad4e666d146114d9578163aea038dc146114b9578163b03e11a0146113af578163b4434c32146111f1578163b5e9ea8c146111c7578163b9fa6413146111a7578163bb4872de14611183578163bc4e55b2146110b5578163becaca6b14611091578163bfe4262114610e96578163c00f538d14610e72578163c039cc6914610e30578163c84353c914610e0c578163cf351c1d14610dc6578163d1a0faa014610dad578163d2dc25a514610d28578163d6af11da14610cec578163d87aab6f14610ccc578163d8c69aec14610bb6578163d8db6f5a14610b70578163db79607214610b33578163ddb6d19014610af6578163de8d520a14610ac3578163e23c135c14610aaa578163e2c5e99014610a49578163e4c0aaf414610a04578163e6a683e0146109be578163e6b1627c1461097a578163e7c2597814610955578163e8859a1514610938578163ee1f438f1461090e578163f13f4054146108e4578163f26114aa1461087f57508063f28087781461085b578063f30b56141461083c578063f375cfba1461081d578063f88b1434146107ad578063fa6e83bd1461078e578063fadda42414610717578063fda70f8b146106f8578063fdcdc11e146106115763fe6b92c1146105ef57600080fd5b3461060d578160031936011261060d57602090610135549051908152f35b5080fd5b610696838360c4610623366004613b23565b6106309892959198614ee0565b6106386156ee565b86519461064660c087613bb1565b60018060a01b03918280921687528160209b8c97888a0152898b8a01523360608a01521660808801521660a086015261014f541693865194859384926323ec24b560e11b84526004840190614f02565b34905af19384156106ed57936106b7575b506106b190614e76565b51908152f35b9092508381813d83116106e6575b6106cf8183613bb1565b810103126106e15751916106b16106a7565b600080fd5b503d6106c5565b8351903d90823e3d90fd5b503461060d578160031936011261060d5760209061013c549051908152f35b50903461078b57602036600319011261078b57506001600160a01b0360043581811681036106e15761075561074d600192614612565b610137613b95565b50015416610762816146ae565b91909115610774575060209151908152f35b602490835190637f6e4db960e01b82526004820152fd5b80fd5b503461060d578160031936011261060d5760209061013a549051908152f35b50903461078b57602036600319011261078b5750600435906001600160a01b03821682036106e1576108166108086020936107f16107e9614d1f565b919092614612565b916108106107ff8484614311565b51948593614325565b959094614c7c565b90614b79565b9051908152f35b503461060d578160031936011261060d57602090610141549051908152f35b503461060d578160031936011261060d57602090610131549051908152f35b823461078b57602036600319011261078b57610875615660565b60043561013c5580f35b9050346108e05736600319011261060d576108dc9061089c615660565b516379308a5560e11b60208201526108ca816108bc600460248301614a85565b03601f198101835282613bb1565b6101f6546001600160a01b0316614952565b5080f35b8280fd5b50503461060d578160031936011261060d576101305490516001600160a01b039091168152602090f35b50503461060d578160031936011261060d576101525490516001600160a01b039091168152602090f35b50503461060d578160031936011261060d57602090610816614c3f565b50503461060d578160031936011261060d5760209060ff61014b541690519015158152f35b50503461060d57602036600319011261060d5760043561018e80548210156109ba57906109a691613b95565b506001815491015482519182526020820152f35b8380fd5b833461078b57602036600319011261078b576004356001600160a01b038116908190036106e1576109ed615660565b6101f680546001600160a01b031916909117905580f35b833461078b57602036600319011261078b576004356001600160a01b0381169081900361060d57610a33615660565b6001600160601b0360a01b609754161760975580f35b82843461078b57606036600319011261078b576001600160a01b0360043581811681036106e1576024359180831683036109ba5761014f54163303610a995790610a969160443591615627565b80f35b8351631974847760e01b8152600490fd5b833461078b578060031936011261078b57610a9661424c565b50503461060d578160031936011261060d57602090610816610aeb610ae6614714565b614325565b905061013154614229565b50503461060d57602036600319011261060d576004356001600160a01b038116908190036106e15782829160209452610145845220549051908152f35b9050346108e05736600319011261060d576108dc90610b50615660565b51636dbcb03960e11b60208201526108ca816108bc600460248301614a85565b833461078b57602036600319011261078b576004356001600160a01b038116908190036106e157610b9f615660565b61015280546001600160a01b031916909117905580f35b8391503461060d5736600319011261078b5750610bd1614ffb565b5061014f546001600160a01b03919082163303610cbc57610c8191610bf73660046155b4565b91610c00614ffb565b50610c09614ee0565b610c116156ee565b610c5d610c4e8251633dad0bd760e11b6020820152610c336024820187614fab565b60e48152610c4361010482613bb1565b846101f65416614952565b60208082518301019101615559565b86848760808498969b95979a015116918860c08160a0840151169201511692615365565b600435938085168095036106e15760843590811681036106e157610cb894610cae91886044350391615627565b5194859485613b55565b0390f35b51631974847760e01b8152600490fd5b50503461060d578160031936011261060d57602090610155549051908152f35b50503461060d578160031936011261060d57602090610816610d0e600161474e565b610d22610d1b8284614469565b91836143b3565b91614795565b610696848460c4610d3a366004613b23565b610d479892959198614ee0565b610d4f6156ee565b865194610d5d60c087613bb1565b60018060a01b03918280921687528160209b8c97888a0152898b8a01523360608a01521660808801521660a086015261014f54169386519485938492637e81a82160e01b84526004840190614f02565b833461078b578060031936011261078b57610a96614de2565b833461078b57602036600319011261078b576004356001600160a01b038116908190036106e157610df5615660565b61012f80546001600160a01b031916909117905580f35b833461078b57602036600319011261078b57610e26615660565b60043561014c5580f35b50503461060d578160031936011261060d57602090610816610e65610e6c610e59610ae6614714565b61013193919354614229565b9182614229565b9061570f565b833461078b57602036600319011261078b57610e8c615660565b60043561013d5580f35b82843461078b5760a036600319011261078b57610eb1614ffb565b5061014f546001600160a01b03908116330361108057610ed2366004615022565b91610edb614ffb565b50610ee4614ee0565b610eec6156ee565b610ef4614de2565b610f07610eff614d1f565b81929161507f565b9091610f168284885193614b1a565b818110611063575050670de0b6b3a764000091610f38610f3e92875192614ae6565b90614436565b049182156110525793839481610f779501908082511691610f6c6080890193878486511661013d54926150c2565b969188999199614229565b9660208a01518089106110355750895190610134610f96838254614229565b9055610fa6610131918254614229565b905583610133541690813b156108e0578651632770a7eb60e21b815230600482015260248101919091529082908290604490829084905af1801561102b57611016575b5050968561100c93838060608996610cb89b9c9d51169501511691511692615365565b5193849384613ae5565b611021828092613bb1565b61078b5780610fe9565b86513d84823e3d90fd5b604490898851916354cde31360e01b835260048301526024820152fd5b845163f3e39b5d60e01b8152600490fd5b6044925087519163a5db715d60e01b835260048301526024820152fd5b8251631974847760e01b8152600490fd5b833461078b57602036600319011261078b576110ab615660565b6004356101395580f35b8391503461060d5736600319011261078b57506110d0614ffb565b5061014f546001600160a01b03908116330361117257610cb8610cae916110f83660046155b4565b93611101614ffb565b5061110a614ee0565b6111126156ee565b611134610c4e825163f5571e0160e01b6020820152610c336024820189614fab565b948860608793969599949a0191825161115161014e918254614229565b905560c06111678b836080860151169551614229565b920151169180615365565b8151631974847760e01b8152600490fd5b50503461060d578160031936011261060d5760209060ff60ca541690519015158152f35b50503461060d578160031936011261060d5760209061015b549051908152f35b50503461060d578160031936011261060d576101535490516001600160a01b039091168152602090f35b82843461078b5760c036600319011261078b5761120c614ffb565b5061014f546001600160a01b03929083163303610cbc576112a661123136600461541e565b9161123a614ffb565b50611243614ee0565b61124b6156ee565b611253614de2565b61125b614d1f565b61126a87869593955116614612565b9361128a6112788684614311565b51926112848488614a34565b8261507f565b6020889592950194848651946112a0828b614c7c565b90615487565b8181106113925750509480966112c06112f897845161570f565b9460608701906112ed83835116888a8960a082019888808b511693511681526101446020522054926150c2565b9891829b919b614304565b98878101968751808c1161137557508a15611364579489969461133f82958d9e9f95610cb89e9585608061100c9e9c61133461135a9b8661549f565b519201511692614974565b865161134f61014e918254614229565b905551169451614229565b9151169180615365565b885163f3e39b5d60e01b8152600490fd5b6044908c8b5191630b63f1a760e01b835260048301526024820152fd5b6044925084519163c39b739f60e01b835260048301526024820152fd5b82846113bc366004613c05565b906113c995939295614ee0565b6113d16156ee565b8351906113df60a083613bb1565b838252602080830197885233868401526001600160a01b03918216606084019081529382166080840190815261014f54875163fa91a9a560e01b815285516004820152995160248b0152604090940151831660448a01529351821660648901529251811660848801529195908690829060a4908290861634905af19485156114ae579461147b575b50906106b191610133541630903390614e9c565b919093508482813d83116114a7575b6114948183613bb1565b810103126106e1579051926106b1611467565b503d61148a565b8451903d90823e3d90fd5b50503461060d578160031936011261060d5760209061013d549051908152f35b50503461060d5760c036600319011261060d576114f4614ffb565b5061014f546001600160a01b03919082163303610cbc5761151636600461541e565b9161151f614ffb565b50611528614ee0565b6115306156ee565b611538614714565b9161154582855116614612565b916115686115538486614311565b519461155f8686614a34565b6101495461507f565b50506115796020860194855161570f565b9081156116a857859660606115be97019082825116936115b360a08b0195828c87808a5116915116865261014560205289862054926150c2565b9891839b919b614229565b98878c0151808b1061168b57508591611610916115dc60018d61549f565b51936115ea82610137613b95565b506115f6868254614229565b9055611606610131918254614229565b9055610135613a60565b90549060031b1c1690813b156108e0578651632770a7eb60e21b815230600482015260248101919091529082908290604490829084905af1801561102b57611676575b5050968561100c93838060808996610cb89b9c9d51169501511691511692615365565b611681828092613bb1565b61078b5780611653565b6044908b8a51916354cde31360e01b835260048301526024820152fd5b825163f3e39b5d60e01b8152600490fd5b50503461060d578160031936011261060d5760209061018f544310159051908152f35b50503461060d578160031936011261060d5760ca54905160109190911c6001600160a01b03168152602090f35b82843461078b57602036600319011261078b576004356001600160a01b03811691908290036106e157829181526101366020522060ff6001825492015416825191825215156020820152f35b50503461060d578160031936011261060d5760209061177e611778610ae6614714565b906144da565b61014a5410159051908152f35b50503461060d578160031936011261060d576101465490516001600160a01b039091168152602090f35b50503461060d578160031936011261060d576020906117d5610ae6614714565b509051908152f35b50503461060d578160031936011261060d576101585490516001600160a01b039091168152602090f35b50503461060d578160031936011261060d5760209061014a549051908152f35b82843461078b5760c036600319011261078b5750611843614ffb565b5061014f546001600160a01b03908116330361117257610cb8610cae9161186b36600461541e565b93611874614ffb565b5061187d614ee0565b6118856156ee565b6118b6610c4e8251637225da8960e11b60208201526118a76024820189614f02565b60c48152610c4360e482613bb1565b9488858793969599949a019182516118d261014e918254614229565b905560a06111678b836060860151169551614229565b833461078b57602036600319011261078b576004356001600160a01b038116908190036106e157611917615660565b61015380546001600160a01b031916909117905580f35b50503461060d578160031936011261060d576119486156ee565b60ca54601081901c6001600160a01b031633036119b25760ff8116156119a15761ff0019166101001760ca55513381527f62e78cea01bee320cd4e420270b5ea74000d11b0c9f74754ebdbfc544b05a25890602090a180f35b815163866099c360e01b8152600490fd5b8151631d77d47760e21b8152600490fd5b50503461060d578160031936011261060d57602090610816611778610ae6614714565b50503461060d578160031936011261060d5760209061015a549051908152f35b50503461060d578160031936011261060d57602090610816611a28600161474e565b610d22611a3582846143b3565b9183614469565b50503461060d578160031936011261060d576101c35490516001600160a01b039091168152602090f35b50503461060d57602036600319011261060d576004359161014890815484101561078b5750602092611a9791613a60565b91905490519160031b1c8152f35b833461078b57602036600319011261078b57611abf615660565b6004356101495580f35b833461078b57602036600319011261078b57611ae3615660565b6004356101405580f35b50503461060d578160031936011261060d57602090610190549051908152f35b833461078b57602036600319011261078b57611b27615660565b6004356101415580f35b50503461060d578160031936011261060d57602090610134549051908152f35b50503461060d578160031936011261060d57602090610142549051908152f35b905082611b7f366004613aa2565b611b8f9895919792949398614ee0565b611b976156ee565b611ba386519384613bb1565b60018060a01b03809881809416855260209a868c870152888601528660608601523360808601521660a08401521660c082015286611bfe60e48861014f54169387519485938492636b59c22f60e01b84526004840190614fab565b34905af19485156114ae5794611c2d575b50611c28906106b1939495610133541630903390614e9c565b614e76565b909293508581813d8311611c59575b611c468183613bb1565b810103126106e157519291611c28611c0f565b503d611c3c565b833461078b57602036600319011261078b57611c7a615660565b60043561013b5580f35b50503461060d578160031936011261060d57602090610156549051908152f35b50503461060d578160031936011261060d57602090610139549051908152f35b833461078b57602036600319011261078b57611cde615660565b6004356101545580f35b833461078b57602036600319011261078b576004356001600160a01b038116908190036106e157611d17615660565b61015880546001600160a01b031916909117905580f35b833461078b57602036600319011261078b57611d48615660565b60043561013e5580f35b50503461060d578160031936011261060d57602090610154549051908152f35b50503461060d578160031936011261060d57602090610149549051908152f35b833461078b578060031936011261078b57611dab615660565b600160ff1960ca54161760ca5580f35b50503461060d578160031936011261060d576020906117d5614d1f565b833461078b57602036600319011261078b57611df2615660565b6004356101595580f35b50503461060d578160031936011261060d5761012f5490516001600160a01b039091168152602090f35b8284611e33366004613c05565b949290611e3e614ee0565b611e466156ee565b835191611e5460a084613bb1565b8252602080830184815233868501526001600160a01b03928316606085019081529783166080850190815261014f54875163e97a4d6360e01b815286516004820152925160248401526040909501518416604483015297518316606482015296518216608488015295918691839160a491839116610696565b50503461060d5761040036600319011261060d57815460ff8160081c16159081809261240d575b80156123f6575b1561239b5760ff19811660011784558161238a575b5060ff835460081c16611f22816148f2565b610384356001600160a01b038116908190036106e1576101f680546001600160a01b03191690911790556001600160a01b0361034435908116908190036106e157610364356001600160a01b03811681036106e157600191611f83846148f2565b611f8c846148f2565b611f95846148f2565b611f9e846148f2565b6001600160601b0360a01b6097541617609755611fba836148f2565b60ca5490620100008360b01b039060101b169061ff018360b01b031916171760ca55611fe5816148f2565b670de0b6b3a764000060c43511156123795761200361010435615733565b61200f61012435615733565b61201b61014435615733565b61202761016435615733565b61203361018435615733565b61203f6101a435615733565b61204b6101c435615733565b6120576101e435615733565b61206361020435615733565b61207b6120766102443561022435614304565b615733565b6004356001600160a01b038116908190036123755761014f80546001600160a01b03191690911790556024356001600160a01b03811681036106e15761012f80546001600160a01b0319166001600160a01b0392831617905560443590811681036106e15761013080546001600160a01b0319166001600160a01b0392831617905560643590811681036106e15761013380546001600160a01b0319166001600160a01b0392831617905560843590811681036106e15761014680546001600160a01b0319166001600160a01b0392831617905560a43590811681036106e15761014780546001600160a01b0319166001600160a01b0392831617905560c4356101495560e43561014a556101043561013b556101243561013c556101443561013d556101643561013e556101843561013f556101a435610140556101c435610141556101e43561014255610204356101435561022435610139556102443561013a556102643561014c8190559061028435908116908190036106e15761015880546001600160a01b03191690911790556102a435610159556102c43561015a819055906001600160a01b036102e435908116908190036106e15761015280546001600160a01b03191690911790556001600160a01b0361030435908116908190036106e157610153906001600160601b0360a01b82541617905561032435610154554361015755430161014d55430161015b5561014b61ffff1981541690556103a4356122a8826148f2565b801561236457610190819055430161018f556103c4356001600160a01b03811681036106e1576122da6122fc926148f2565b6101c380546001600160a01b0319166001600160a01b03909216919091179055565b6103e4356001600160a01b038116908190036106e15761022980546001600160a01b031916909117905561232e575080f35b60207f7f26b83ff96e1f2b6a682f133852f6798a09c465da95921460cefb38474024989161ff001984541684555160018152a180f35b8351632a9ffab760e21b8152600490fd5b8480fd5b8251632a9ffab760e21b8152600490fd5b61ffff191661010117835538611f10565b825162461bcd60e51b815260206004820152602e60248201527f496e697469616c697a61626c653a20636f6e747261637420697320616c72656160448201526d191e481a5b9a5d1a585b1a5e995960921b6064820152608490fd5b50303b158015611efb5750600160ff821614611efb565b50600160ff821610611ef4565b50503461060d578160031936011261060d576101335490516001600160a01b039091168152602090f35b50503461060d578160031936011261060d5760209061014e549051908152f35b50503461060d578160031936011261060d5760209060ff60ca5460081c1690519015158152f35b50503461060d578160031936011261060d576124a56156ee565b61014d805443106126755761014c54430190557fd3c59bda47e141a8ec5a33d241b7f71b86e30d359f83a9227d912858b60404fc8280a161013754826124ea82614510565b91845b8181106125a657505080612561575b918051928184019084526020918285015282518091528160608501930191855b82811061254d57867fae5116a8119d08673a0f1dfa7546b95da4bd54bb17feda7c61130ac7859152f687870388a180f35b83518552938101939281019260010161251c565b612578670de0b6b3a7640000916101395490614436565b04610131612587828254614229565b9055610146546125a19082906001600160a01b03166140d3565b6124fc565b6125af8161464d565b6125b98183614a34565b8661015091866125c98585613a60565b90549060031b1c918383136125e6575b50505050506001016124ed565b9461262b83829699612631946126258561261861261e6126489a60019e670de0b6b3a764000093849161013a54614436565b04614436565b0492614311565b52614304565b97613a60565b819391549060031b91821b91600019901b19161790565b905561266b6126578287614311565b5188848060a01b0361014754169184614974565b90863886816125d9565b815163101b685960e01b8152600490fd5b82843461078b578160031936011261078b576001600160a01b0360043581811681036106e1576024359161014f54163303610a995790610a969161014e8281540390556140d3565b50503461060d578160031936011261060d57602090610157549051908152f35b833461078b57602036600319011261078b57612708615660565b6004356101435580f35b82843461078b578160031936011261078b576001600160a01b0360043581811681036106e1578161014f54163303610a995790610a9691602435916101335416615627565b833461078b57602036600319011261078b576004356001600160a01b03811681036106e157610a96906122da615660565b82843461078b578060031936011261078b57507f00000000000000000000000000000000000000000000000000000000000000006001600160a01b031630036127f457602090517f360894a13ba1a3210667c828492db98dca3e2076cc3735a920a3ca505d382bbc8152f35b5162461bcd60e51b815260206004820152603860248201527f555550535570677261646561626c653a206d757374206e6f742062652063616c60448201527f6c6564207468726f7567682064656c656761746563616c6c00000000000000006064820152608490fd5b833461078b578060031936011261078b57612876615660565b60ff1960ca541660ca5580f35b50508060031936011261060d57600435906001600160a01b039081831683036106e15783926024359267ffffffffffffffff84116123755736602385011215612375578360040135906128e16128d883613be9565b94519485613bb1565b818452366024838701011161296f57610a9695602083612962946024600199018389013786010152807f0000000000000000000000000000000000000000000000000000000000000000169061293982301415613c2b565b7f360894a13ba1a3210667c828492db98dca3e2076cc3735a920a3ca505d382bbc541614613c8c565b61296a615660565b613ced565b8580fd5b50503461060d578160031936011261060d5760209061013b549051908152f35b50503461060d578160031936011261060d576101475490516001600160a01b039091168152602090f35b50503461060d578160031936011261060d5760209061014c549051908152f35b50503461060d57602036600319011261060d5760043561013780548210156109ba5790612a0991613b95565b50805460019091015482519182526001600160a01b03166020820152f35b8391503461060d5736600319011261078b5750612a42614ffb565b5061014f546001600160a01b03908116330361117257610cb8610cae91612a6a3660046155b4565b93612a73614ffb565b50612a7c614ee0565b612a846156ee565b611134610c4e825163d9b6c2e560e01b6020820152610c336024820189614fab565b82843461078b578160031936011261078b57506004356001600160a01b03818116918290036106e15760243591818316918284036106e157612b3292612aea6156ee565b612af330614289565b90865193632ab7831f60e01b602086015260248501523360448501526064840152608483015260848252612b2860a483613bb1565b6101f65416614952565b916020838051810103126106e1576106b160208094015180936140d3565b50503461060d578160031936011261060d5760209061013e549051908152f35b50503461060d578160031936011261060d57602090610816612b9b612b93614d1f565b919091614325565b91614b1a565b50503461060d578160031936011261060d5760ca5460ff8160081c1615612c9c5760018060a01b03808260101c163314159081612c1c575b506119b25760ff8116156119a15761ff00191660ca55513381527f5db9ee0a495bf2e6ff9c91a7834c1ba4fdd244a5e8aa4e537bd38aeae4b073aa90602090a180f35b609754845163d994d6d560e01b8152336004820152925060209183916024918391165afa908115612c8f578491612c56575b501538612bd9565b90506020813d8211612c87575b81612c7060209383613bb1565b810103126109ba57612c819061412a565b38612c4e565b3d9150612c63565b50505051903d90823e3d90fd5b8151637c7fd07960e01b8152600490fd5b833461078b57602036600319011261078b576004356001600160a01b0381169081900361060d57612cdc615660565b61014f80546001600160a01b031916909117905580f35b833461078b57602036600319011261078b57612d0d615660565b6004356101905580f35b83833461060d57610100918260031936011261078b5750612d36614ffb565b5061014f546001600160a01b0392908316330361117257612d5982519182613bb1565b60043583811681036106e157815260243583811681036106e15760208201526044358282015260643560608201526080810191608435835260a4359084821682036106e15760a0830191825260c43585811681036106e15760c084015260e4359285841684036106e15785610cb895612e15610c4e6108bc610c438661135a9d610cae98019a8b52612de9614ffb565b50612df2614ee0565b612dfa6156ee565b88516370f090ed60e11b602082015292839160248301614f47565b9892809b8a96939d9299865161134f61014e918254614229565b50503461060d57602036600319011261060d576004359161013890815484101561078b5750602092611a9791613a60565b50503461060d57602036600319011261060d57600435906001600160a01b039081831683036106e157610a9692612ec28386947f0000000000000000000000000000000000000000000000000000000000000000169061293982301415613c2b565b612eca615660565b612edf612ed684613be9565b92519283613bb1565b828252601f19612eee84613be9565b01366020840137613ced565b8284612f07366004613aa2565b9694612f17989193949298614ee0565b612f1f6156ee565b612f2b86519283613bb1565b60018060a01b039788808093169586855260209b868d870152888a87015260608601523360808601521660a08401521660c082015287612f8860e48961014f5416938851948593849263e4e1b72960e01b84526004840190614fab565b34905af1958615612fee5795612fbb575b50612fb2906106b1949596610133541630903390614e9c565b30903390614e9c565b909394508681813d8311612fe7575b612fd48183613bb1565b810103126106e157519392612fb2612f99565b503d612fca565b8551903d90823e3d90fd5b50503461060d578160031936011261060d5761301361424c565b61301b6156ee565b61014b805460ff8116806130e6575b806130cc575b613038578380f35b61ff00191661010017905580519082907f8b77276c97a5709f0d6db52329848a254eb760ce8be80d281799f633bdb69e838280a1610133546001600160a01b0316803b156108e05783600481858094638456cb5960e01b83525af19081156130c157506130b1575b50506130aa614542565b3880808380f35b6130ba91613bb1565b38816130a0565b51913d9150823e3d90fd5b506130db611778610ae6614714565b61014a541015613030565b5060ff8160081c161561302a565b50503461060d578160031936011261060d5760209061013f549051908152f35b83838260031936011261060d576001600160a01b0392600435848116908190036109ba576024359085821680920361237557604435916084359360a4359780891680990361323b5760c43581811680910361323757906131db939291613178614ee0565b6131806156ee565b88519261318f61010085613bb1565b86845260209b8c9586860152888b86015260643560608601528960808601523360a086015260c085015283015261014f5416875180809581946334975a4160e01b835260048301614f47565b039134905af1958615612fee578096613203575b50506106b19291611c289130903390614e9c565b909195508682813d8311613230575b61321c8183613bb1565b8101031261078b5750519381611c286131ef565b503d613212565b8880fd5b8780fd5b828461324c366004613b23565b9161325996949196614ee0565b6132616156ee565b6132c560c486519361327460c086613bb1565b60018060a01b0380809216968787528160209c8d978b898b01528c8a01523360608a01521660808801521660a086015261014f54169387519485938492636426c5db60e11b84526004840190614f02565b34905af19485156114ae5780956132e7575b5050906106b19130903390614e9c565b909194508582813d8311613314575b6133008183613bb1565b8101031261078b575051926106b1866132d7565b503d6132f6565b50503461060d578160031936011261060d57602090610143549051908152f35b833461078b57602036600319011261078b576004356001600160a01b038116810361060d57613368615660565b60ca805462010000600160b01b03191660109290921b62010000600160b01b031691909117905580f35b833461078b57602036600319011261078b576133ac615660565b60043561014a5580f35b50503461060d578160031936011261060d57602090610140549051908152f35b833461078b57602036600319011261078b576004356001600160a01b0381169081900361060d57613405615660565b61014780546001600160a01b031916909117905580f35b50503461060d578160031936011261060d576102295490516001600160a01b039091168152602090f35b50503461060d57602036600319011261060d576004356001600160a01b038116908190036108e05782829160209452610144845220549051908152f35b50503461060d578160031936011261060d5760209060ff61014b5460081c1690519015158152f35b50503461060d5760a036600319011261060d576134c6614ffb565b5061014f546001600160a01b039290831633036111725790613557916134ed366004615022565b916134f6614ffb565b506134ff614ee0565b6135076156ee565b670de0b6b3a764000061352a610f3861352161155f614714565b87519291614ae6565b049481840190808251169161354c6080870193898486511661013c54926150c2565b96918a999199614304565b9660208101998a51808a116136805750881561366f57816020918660606135da969551930151169061013461358d848254614304565b905561359d610131918254614304565b90556101335489516340c10f1960e01b81526001600160a01b03909216600483015260248201929092529384918716908290859082906044820190565b03925af180156136635761360d575b50509661100c928261135a888895610cb89a9b9c865161134f61014e918254614229565b6020823d821161365b575b8161362560209383613bb1565b8101031261078b5750928261135a888895610cb89a9b9c9561364961100c9961412a565b50959c9b5095509850508194506135e9565b3d9150613618565b508551903d90823e3d90fd5b865163f3e39b5d60e01b8152600490fd5b6044908a895191630b63f1a760e01b835260048301526024820152fd5b833461078b57602036600319011261078b576136b7615660565b6004356101425580f35b833461078b57602036600319011261078b5760043580151580910361060d576136e8615660565b61014b9060ff8019835416911617905580f35b50503461060d578160031936011261060d5760209061081661371e610ae6614714565b90614ae6565b50503461060d578160031936011261060d5760209061014d549051908152f35b838360e46137d0613756366004613aa2565b946137669a94969297919a614ee0565b61376e6156ee565b61377a89519586613bb1565b60018060a01b0380809216968787528160209d8e978b898b01528d8a01528b60608a01523360808a01521660a08801521660c086015261014f541693885194859384926263744760e11b84526004840190614fab565b34905af1958615612fee5780966132035750506106b19291611c289130903390614e9c565b50503461060d578160031936011261060d5761014f5490516001600160a01b039091168152602090f35b833461078b57602036600319011261078b576004356001600160a01b0381169081900361060d5761384e615660565b61013080546001600160a01b031916909117905580f35b833461078b57602036600319011261078b5761387f615660565b60043561013f5580f35b50503461060d578160031936011261060d57602090610159549051908152f35b833461078b57602036600319011261078b576004356001600160a01b0381169081900361060d576138d8615660565b61014680546001600160a01b031916909117905580f35b50503461060d578160031936011261060d5760209061018f549051908152f35b50503461060d578160031936011261060d5760975490516001600160a01b039091168152602090f35b833461078b57602036600319011261078b57613952615660565b60043561015a5580f35b50503461060d578160031936011261060d576139766156ee565b61015b805443106139e45790610a969161015a54430190557f0e37fda283839477a1b77e29acf8336c0e13a5daa967913df0fe5ad258c0822f6020670de0b6b3a76400006139cb610131546101595490614436565b049251838152a1610158546001600160a01b03166140d3565b815163acce20e560e01b8152600490fd5b50503461060d57602036600319011261060d576004359161013590815484101561078b5750602092613a2691613a60565b905491519160018060a01b039160031b1c168152f35b833461078b57602036600319011261078b57613a56615660565b60043561013a5580f35b8054821015613a785760005260206000200190600090565b634e487b7160e01b600052603260045260246000fd5b35906001600160a01b03821682036106e157565b91908260c09103126106e157613ab782613a8e565b91602081013591604082013591606081013591613ae260a0613adb60808501613a8e565b9301613a8e565b90565b604090613b21939594929560c0820196825260208201520190606080918051845260208101516020850152604081015160408501520151910152565b565b908160a09103126106e157613b3781613a8e565b91602082013591604081013591613ae26080613adb60608501613a8e565b613b219360609296959360e08301978352602083015260408201520190606080918051845260208101516020850152604081015160408501520151910152565b8054821015613a785760005260206000209060011b0190600090565b90601f8019910116810190811067ffffffffffffffff821117613bd357604052565b634e487b7160e01b600052604160045260246000fd5b67ffffffffffffffff8111613bd357601f01601f191660200190565b91908260809103126106e157813591602081013591613ae26060613adb60408501613a8e565b15613c3257565b60405162461bcd60e51b815260206004820152602c60248201527f46756e6374696f6e206d7573742062652063616c6c6564207468726f7567682060448201526b19195b1959d85d1958d85b1b60a21b6064820152608490fd5b15613c9357565b60405162461bcd60e51b815260206004820152602c60248201527f46756e6374696f6e206d7573742062652063616c6c6564207468726f7567682060448201526b6163746976652070726f787960a01b6064820152608490fd5b9060ff7f4910fdfa16fed3260ed0e7147f7cc6da11a60208b5b9406d12a635614ffd91435416600014613d255750613b219150613ed9565b6040516352d1902d60e01b8152602093919291906001600160a01b038316908581600481855afa60009181613eaa575b50613db65760405162461bcd60e51b815260048101879052602e60248201527f45524331393637557067726164653a206e657720696d706c656d656e7461746960448201526d6f6e206973206e6f74205555505360901b6064820152608490fd5b9394937fc9f76b5ec45e5cdef99837d7b6d2467235c1df8933c8ca56df5c35afa2c7d44401613e5357613de883613ed9565b7fbc7cd75a20ee27fd9adebab32041f755214dbc6bffa90cc0225b39da2e5c2d3b600080a283511590811591613e4b575b50613e2357505050565b600080613e4894613e32613f7b565b9481519101845af4613e42613fcf565b91613fff565b50565b905038613e19565b60405162461bcd60e51b815260048101859052602960248201527f45524331393637557067726164653a20756e737570706f727465642070726f786044820152681a58589b195555525160ba1b6064820152608490fd5b90918782813d8311613ed2575b613ec18183613bb1565b8101031261078b5750519038613d55565b503d613eb7565b803b15613f20577f360894a13ba1a3210667c828492db98dca3e2076cc3735a920a3ca505d382bbc80546001600160a01b0319166001600160a01b03909216919091179055565b60405162461bcd60e51b815260206004820152602d60248201527f455243313936373a206e657720696d706c656d656e746174696f6e206973206e60448201526c1bdd08184818dbdb9d1c9858dd609a1b6064820152608490fd5b613f856027613be9565b90613f936040519283613bb1565b60278252660819985a5b195960ca1b6040837f416464726573733a206c6f772d6c6576656c2064656c65676174652063616c6c60208201520152565b3d15613ffa573d90613fe082613be9565b91613fee6040519384613bb1565b82523d6000602084013e565b606090565b919290156140615750815115614013575090565b3b1561401c5790565b60405162461bcd60e51b815260206004820152601d60248201527f416464726573733a2063616c6c20746f206e6f6e2d636f6e74726163740000006044820152606490fd5b8251909150156140745750805190602001fd5b6040519062461bcd60e51b82528160208060048301528251908160248401526000935b8285106140ba575050604492506000838284010152601f80199101168101030190fd5b8481018201518686016044015293810193859350614097565b90806140dd575050565b6102295460405163a9059cbb60e01b60208201526001600160a01b0393841660248201526044810192909252613b21921661412582606481015b03601f198101845283613bb1565b614137565b519081151582036106e157565b60209161419a916001600160a01b031660008061415386613be9565b936141616040519586613bb1565b8685527f5361666545524332303a206c6f772d6c6576656c2063616c6c206661696c656487860152868151910182855af1613e42613fcf565b805182811591821561420a575b50509050156141b35750565b6084906040519062461bcd60e51b82526004820152602a60248201527f5361666545524332303a204552433230206f7065726174696f6e20646964206e6044820152691bdd081cdd58d8d9595960b21b6064820152fd5b83809293500103126106e15781614221910161412a565b8082386141a7565b9190820391821161423657565b634e487b7160e01b600052601160045260246000fd5b61425530614289565b6101319061427261426883548093614229565b61014e5490614229565b8061427c57505050565b61428591614304565b9055565b610229546040516370a0823160e01b81526001600160a01b0392831660048201529160209183916024918391165afa9081156142f8576000916142ca575090565b906020823d82116142f0575b816142e360209383613bb1565b8101031261078b57505190565b3d91506142d6565b6040513d6000823e3d90fd5b9190820180921161423657565b8051821015613a785760209160051b010190565b906000916000906101378054906000925b82841061435c5750505050614358670de0b6b3a7640000916101395490614436565b0490565b90919293956143a96143986143a360019361439d61437a8a88614311565b51614385818c6143cf565b95906143918d8c613b95565b5054614304565b61570f565b90614304565b98614304565b9401929190614336565b9190916000838201938412911290801582169115161761423657565b91906000906143fd816000956143f36143ea82610150613a60565b93905492614482565b9160031b1c6143b3565b6000811361440c575b50509190565b61442e91945061261892508094670de0b6b3a764000093849161013a54614436565b043880614406565b8181029291811591840414171561423657565b8115614453570490565b634e487b7160e01b600052601260045260246000fd5b8181039291600013801582851316918412161761423657565b61448e81610137613b95565b505490670de0b6b3a76400009182810292818404149015171561423657613ae2926144ce6144c16144d493610151613a60565b90549060031b1c84614449565b92614449565b90614469565b80156144f057614398613ae29261013154614229565b505060001990565b67ffffffffffffffff8111613bd35760051b60200190565b9061451a826144f8565b6145276040519182613bb1565b8281528092614538601f19916144f8565b0190602036910137565b610131548015613e48576101379081549160009061455f84614510565b9082905b8582106145ce57505060005b84811061457d575050505050565b61459a846145958561458f8587614311565b51614436565b614449565b9061013891825468010000000000000000811015613bd35761263181600195866145c694018155613a60565b90550161456f565b909261460a6001916145df8661464d565b6145e98787614311565b5261439d6145f78786613b95565b50546146038888614311565b519061570f565b930190614563565b6001600160a01b0316600090815261013660205260409020600181015460ff161561463b575490565b60405163e6c4247b60e01b8152600490fd5b61465990610137613b95565b50600101546001600160a01b0316614670816146ae565b9190911561467c575090565b60249060405190637f6e4db960e01b82526004820152fd5b91908260409103126106e157613ae260208351930161412a565b604080516359e02dd760e01b81529291839060049082906001600160a01b03165afa9182156142f85760009081936146e557509190565b905061470991925060403d811161470d575b6147018183613bb1565b810190614694565b9091565b503d6146f7565b610137549061472282614510565b9160005b818110614731575050565b8061473d60019261464d565b6147478287614311565b5201614726565b9061476f670de0b6b3a7640000928361015754610154549243010302614449565b8281101561478c5782039180836101555402049261015654020590565b50600091508190565b909161479f6147f7565b9290808210156147ed5783916147b491614229565b9311156147e857818110156147e0576147cc91614229565b60011c808210156147db575090565b905090565b505050600090565b505090565b5050505050600090565b61015254604080516359e02dd760e01b80825293929091906001600160a01b039081168284600481845afa80156148e75760009485916148c4575b50156148ad575061015354169080519485528085600481855afa80156148a257600095869161487f575b50156148685750509190565b6024925051906305e8989360e11b82526004820152fd5b9050816148999296503d871161470d576147018183613bb1565b9490943861485c565b50513d6000823e3d90fd5b6024908351906305e8989360e11b82526004820152fd5b90506148de919450833d851161470d576147018183613bb1565b93909338614832565b83513d6000823e3d90fd5b156148f957565b60405162461bcd60e51b815260206004820152602b60248201527f496e697469616c697a61626c653a20636f6e7472616374206973206e6f74206960448201526a6e697469616c697a696e6760a81b6064820152608490fd5b90613ae291600080614962613f7b565b93602081519101845af4613e42613fcf565b6149e2936149a960009260209561498d82610137613b95565b50614999878254614304565b9055611606610131918254614304565b90546040516340c10f1960e01b81526001600160a01b039093166004840152602483019490945290948593928492909183906044820190565b039360039190911b1c6001600160a01b03165af180156142f857614a035750565b6020813d8211614a2c575b81614a1b60209383613bb1565b810103126106e157613e489061412a565b3d9150614a0e565b61263161428591614a458482614482565b614a7b614a5483610150613a60565b614a678294925492838360031b1c6143b3565b919060031b91821b91600019901b19161790565b9055610151613a60565b60e08101929160c09081906001600160a01b0380614aa283613a8e565b168552614ab160208301613a8e565b16602085015260408101356040850152606081013560608501526080810135608085015260a081013560a08501520135910152565b9061013454908115614b0b57613ae292614b066143989261013154614229565b614229565b505050670de0b6b3a764000090565b8282614b2592614b42565b9060008213156147e057613ae292614b3c91614ae6565b90614449565b9091614b519061013154614229565b90670de0b6b3a76400009182810292818404149015171561423657613ae2926144d491614436565b92614b879293949194614b42565b81810291600091600160ff1b9183821283821416614c2b578185051490151715614c1757670de0b6b3a763ffff198401938411614c1757670de0b6b3a764000093848102948186041490151715614c17578315614c03578214600019841416614bef57500590565b634e487b7160e01b81526011600452602490fd5b634e487b7160e01b82526012600452602482fd5b634e487b7160e01b82526011600452602482fd5b634e487b7160e01b84526011600452602484fd5b61014d5480431015614c5657613ae2904390614229565b50600090565b90604051614c6b604082613bb1565b602060018294805484520154910152565b614c8881610148613a60565b90549060031b1c9161018e91614c9e8184613b95565b50549261018f54431015614cc4575b5050808210156147e85761459590613ae293614436565b829350614cd8614ce39392614cde92613b95565b50614c5c565b614ceb565b903880614cad565b602081519101805192670de0b6b3a76400009384039084821161423657614d1861439d9261435895614436565b9251614436565b60008061013791825492614d3284614510565b9382915b818310614d5f575050508115614d535790614d5091614449565b91565b50506101495460011b91565b90919392614d6c8561464d565b9081614d788789614311565b52614d91614d8683886143cf565b506143918886613b95565b670de0b6b3a76400009081810291818304149015171561423657614dd3614dd99261439d85614dc5600197614dce9661570f565b9485918c614c7c565b614436565b95614304565b94019190614d36565b61018f8054431015614df15750565b6101375460005b818110614e0b5750506101905443019055565b80807f19156e9379c7bbbce8f646ce5ee30ba860b8f954717405f3d5859a6c1a21ae6060019361018e614e41614cd88383613b95565b90614e5f614e57614e518561464d565b84614ceb565b938492613b95565b50555160409182519182526020820152a201614df8565b613b219061014e614e88828254614304565b905561022954309033906001600160a01b03165b6040516323b872dd60e01b60208201526001600160a01b039283166024820152929091166044830152606480830193909352918152613b2191614125608483613bb1565b60ff61014b5460081c16614ef057565b604051631ca61d7760e01b8152600490fd5b60a09081600180821b03918281511685526020810151602086015260408101516040860152826060820151166060860152826080820151166080860152015116910152565b91909160e06101008201938160018060a01b03918281511685528260208201511660208601526040810151604086015260608101516060860152608081015160808601528260a08201511660a08601528260c08201511660c0860152015116910152565b60c0908160018060a01b03918281511685526020810151602086015260408101516040860152606081015160608601528260808201511660808601528260a08201511660a0860152015116910152565b6040519061500a608083613bb1565b60006060838281528260208201528260408201520152565b91908260a09103126106e15760405161503c60a082613bb1565b608061507a818395803585526020810135602086015261505e60408201613a8e565b604086015261506f60608201613a8e565b606086015201613a8e565b910152565b919061508a90614325565b91909261509783856144da565b90808211156150a4575050565b6044925060405191637912120160e01b835260048301526024820152fd5b9290939160009160009182966150d6614ffb565b966001600160a01b039185908316806152e2575b508261012f54168360405193636eb1769f60e11b8552168060048501523060248501526020948585604481865afa9485156152d75784956152a8575b5084615187575b505050505086015115615143575b505050929190565b9091925061515b670de0b6b3a7640000928392614436565b0480855290821561517f57615177920490816040860152614304565b38808061513b565b509050615177565b6151959061013054166146ae565b9290921561512d57909192939b50848b6151cf85670de0b6b3a76400006151c96151bf8d8d614436565b6101435490614436565b04614449565b81830181815295908b1561529e57506151fa916151ee6060928d614449565b91829101528551614304565b809d5b10928315615229575b505050615216575b80808061512d565b819299505280606088015296388061520e565b909192506024604051809481936370a0823160e01b835260048301525afa90811561529357908b918491615262575b5010388481615206565b809250858092503d831161528c575b61527b8183613bb1565b810103126108e0578a905138615258565b503d615271565b6040513d85823e3d90fd5b915050809d6151fd565b9094508581813d83116152d0575b6152c08183613bb1565b810103126109ba57519338615126565b503d6152b6565b6040513d86823e3d90fd5b9095506020836101c35416916024604051809481936364a731e960e01b835260048301525afa801561535a578690615327575b615320915084614436565b94386150ea565b506020813d8211615352575b8161534060209383613bb1565b8101031261296f576153209051615315565b3d9150615333565b6040513d88823e3d90fd5b92613b2194919293825115156000146153d5575060406153d0926153c8670de0b6b3a764000061539a61013b54845190614436565b046101316153a9828254614304565b90556153c260018060a01b036101465416918451614229565b906140d3565b0151906140d3565b6140d3565b9060606153d0936153f760018060a01b036101465416602083015190866153fb565b0151915b91908161540757505050565b61012f54613b2193906001600160a01b0316614e9c565b91908260c09103126106e15760405161543860c082613bb1565b60a061507a81839561544981613a8e565b8552602081013560208601526040810135604086015261546b60608201613a8e565b606086015261547c60808201613a8e565b608086015201613a8e565b9061549494939291614b79565b60008112614c565790565b806154a86147f7565b9190936154b5600061474e565b940193829161554d575b019384600080821261554757505b84039181851161550f5750508181116154f157505061015555610156554361015755565b60449250604051916306da41e560e11b835260048301526024820152fd5b908085921161553557604491604051916306da41e560e11b835260048301526024820152fd5b604051630fb4fd3560e11b8152600490fd5b036154cd565b905081600003906154bf565b80910360e081126106e1578151926020830151926080604082015193605f1901126106e15760c06040519161558f608084613bb1565b606081015183526080810151602084015260a081015160408401520151606082015290565b91908260e09103126106e1576040516155ce60e082613bb1565b60c061507a8183956155df81613a8e565b855260208101356020860152604081013560408601526060810135606086015261560b60808201613a8e565b608086015261561c60a08201613a8e565b60a086015201613a8e565b60405163a9059cbb60e01b60208201526001600160a01b0390921660248301526044820192909252613b21916141258260648101614117565b60975460405163d994d6d560e01b815233600482015290602090829060249082906001600160a01b03165afa9081156142f8576000916156b5575b50156156a357565b604051631dd1b1b560e21b8152600490fd5b906020823d82116156e6575b816156ce60209383613bb1565b8101031261078b57506156e09061412a565b3861569b565b3d91506156c1565b60ff60ca5460081c166156fd57565b60405163783bb6c960e11b8152600490fd5b90670de0b6b3a76400009182810292818404149015171561423657613ae291614449565b670de0b6b3a7640000111561574457565b604051632a9ffab760e21b8152600490fdfea264697066735822122000e7fd697166da7484ca6b0de8110f95070aa9cd25697c2016226857dbfc94c664736f6c6343000814003360a08060405234620000e157306080526000549060ff8260081c166200008f575060ff8082160362000053575b6040516140109081620000e78239608051818181611d4d01528181611ebe01526121d40152f35b60ff90811916176000557f7f26b83ff96e1f2b6a682f133852f6798a09c465da95921460cefb3847402498602060405160ff8152a1386200002c565b62461bcd60e51b815260206004820152602760248201527f496e697469616c697a61626c653a20636f6e747261637420697320696e697469604482015266616c697a696e6760c81b6064820152608490fd5b600080fdfe6080604052600436101561001257600080fd5b600060e08135811c90816301dde6ef146128d357816301f1b6841461288b578163073763b9146128675781630c340a241461283e5781630c36d8971461281f5781630d6ac463146127d95781630db49656146127ba5781630e0a8fd2146127965781630f1e5e2b1461275057816313ed7ba5146127265781631867e2f5146127075781631fe6a7ad146126cd5781632069f753146126a957816323b98cde1461268257816324ffaba31461264457816327eab2a1146125fe5781632a20d57d146125df5781632ab7831f146123e55781632c43bd3b146123c15781632d88af4a1461236a5781632ded50f01461234b578163333431fd1461232c57816333421c381461223b5781633659cfe6146121a25781633915edcb146121735781633bc4ac0a1461214f5781633cfb09ef146121095781633f4ba83a14611ffe578163407f0e3414611fdf5781634b74600114611f925781634d977e7814611f735781634e1f907a14611f495781634f0f27ee14611f2a5781634f1ef28614611e365781635210570c14611e1057816352d1902d14611d3a578163543aeb4814611d165781635860ee6314611cf75781635c975abb14611cd15781635cfbe57814611cb257816360009e0b14611c88578163647846a514611c5e57816364ec230a14611c3a578163662013f414611c165781636827435714611bed5781636b5488df14611bce5781636f30471f14611baf5781637071346814611b8b578163735d396014611b4557816373e28af914611b215781637554fffd14611b025781637622805514611ae35781637750ba0c14611abf57816379f9a91c14611aa05781637a193c3114611a815781637a4ff1d914611a5d5781637a727fe814611a3e5781637af5758c14611a1a5781637b5a17ae146118005781637cba2383146117dc5781637d8e03141461179f5781637f01c715146117755781637f13b998146117415781637f4a4fe0146117225781638456cb591461168b57816385bf9593146116455781638cfa4241146116265781638e2bdb86146115fc5781639853c35a146115d25781639ad6659d146115985781639cabfc001461154b5781639fd0506d1461151e578163a8e9ac30146114fc578163aea038dc146114dd578163b5e9ea8c146114b3578163b9fa641314611494578163bb4872de14611471578163becaca6b1461144d578163c00f538d14611429578163c84353c914611405578163cf351c1d146113bf578163d1a0faa0146113a3578163d6af11da14611361578163d87aab6f14611342578163d8db6f5a146112fc578163d9b6c2e514611174578163db79607214610efc578163ddb6d19014610ebe578163e1e121da14610c62578163e44bb51214610a69578163e4c0aaf414610a24578163e6b1627c146109e1578163e7c25978146109bd578163ee1f438f14610993578163f13f405414610969578163f26114aa1461077a578163f280877814610756578163f30b561414610737578163f375cfba14610718578163f5571e011461057057508063fa6e83bd14610551578063fadda424146104d8578063fda70f8b146104b95763fe6b92c11461049857600080fd5b346104b657806003193601126104b657602061013554604051908152f35b80fd5b50346104b657806003193601126104b657602061013c54604051908152f35b50346104b65760203660031901126104b6576001600160a01b03600435818116810361054c5761051461050c600192613201565b610137612939565b5001541661052181613280565b9190911561053457602082604051908152f35b60249060405190637f6e4db960e01b82526004820152fd5b600080fd5b50346104b657806003193601126104b657602061013a54604051908152f35b36600319011290506104b6576105873660046129a9565b90610590613528565b506105996132e2565b9061061a60018060a01b03916105b183865116613201565b926105d46105bf8587612ec2565b51956105cb87876136d3565b61014954613690565b610614602089969396019761060f6105ed828b51613fb6565b9761060a6106008c516101345490612ffa565b95610131546130bf565b6130bf565b612ffa565b90613fb6565b9560408101518088108015610710575b6106f2575061064b82608083015116858460c08501511661013f5492613753565b96919790956060840151808a116106d35750926106828661068c969460a09461067b60016106cf9d9c9b996139e0565b5190613a9a565b0151169087613619565b604051948594859293606091959460c09360e086019786526020860152604085015280518285015260208101516080850152604081015160a08501520151910152565b0390f35b604490895160405191630b63f1a760e01b835260048301526024820152fd5b604490886040519163f577bef560e01b835260048301526024820152fd5b50871561062a565b82346104b657806003193601126104b657602061014154604051908152f35b82346104b657806003193601126104b657602061013154604051908152f35b82346104b65760203660031901126104b657610770613f07565b60043561013c5580f35b905034610965573660031901126104b6576004356001600160a01b038181169182900361054c578183526101366020526040832060ff6001604051926107c1604085612955565b8054845201541615801560208301526109175751906024359080821680920361054c576101379060016107f48584612939565b50015416820361089d575b847f6417e5a3c1e0e5dae98b8fe718c4babdfcb35e0d7b5e1b9641b5914756f5d8e360048587610850610834836101486128f7565b6044929192359083549060031b91821b91600019901b19161790565b905580855261014460205260643560408620558452610145602052608435604085205561087f8161018e612939565b50600160c435910155610897604051928392836134c0565b0390a180f35b9190926040516359e02dd760e01b8152604081600481885afa90811561095a578691610929575b5015610917577f6417e5a3c1e0e5dae98b8fe718c4babdfcb35e0d7b5e1b9641b5914756f5d8e39360016108fa84600496612939565b5001906001600160601b0360a01b825416179055928192506107ff565b60405163e6c4247b60e01b8152600490fd5b61094b915060403d604011610953575b6109438183612955565b810190613266565b9050386108c4565b503d610939565b6040513d88823e3d90fd5b5080fd5b82346104b657806003193601126104b657610130546040516001600160a01b039091168152602090f35b82346104b657806003193601126104b657610152546040516001600160a01b039091168152602090f35b82346104b657806003193601126104b657602060ff61014b54166040519015158152f35b82346104b65760203660031901126104b6576004359061018e9081548310156104b6576040610a108484612939565b506001815491015482519182526020820152f35b82346104b65760203660031901126104b6576004356001600160a01b0381169081900361096557610a53613f07565b6001600160601b0360a01b609754161760975580f35b8260c03660031901126104b65760405190610a8560c083612955565b6001600160a01b0390600435828116810361054c5783526020830160243581526040840192604435845260643590808216820361054c5760608601918252608435818116810361054c576080870190815260a43594828616860361054c5760a08801958652610af2613528565b50610b0783610aff6132e2565b995116613201565b91610b21610b15848b612ec2565b51996105cb8b866136d3565b99610b3888519b610b328388613d12565b93613724565b91670de0b6b3a763ffff198101908111610c4e5781610b5a610b5f928e612ffa565b61300d565b98670de0b6b3a764000092838b02908b820485148c151715610c3857610b849161300d565b9b838102938185041490151715610c3857610bcf9787610bb2610bab610bc495839761300d565b809d612ed6565b98899251169251166101425492613753565b989187989198612ed6565b9951808b11610c1a57508915610c0857610bfe61068c96610bf3866106cf9c6139e0565b83855116908d613619565b519151169261354f565b60405163f3e39b5d60e01b8152600490fd5b6044908b60405191630b63f1a760e01b835260048301526024820152fd5b634e487b7160e01b600052601160045260246000fd5b634e487b7160e01b85526011600452602485fd5b905061010080600319360112610eba57610c7f6040519182612955565b6004356001600160a01b038116810361054c5781526024356001600160a01b038116810361054c57602082019081526044356040830152606082019360643585526080830191608435835260a4359460018060a01b038616860361054c5760a0850195865260c4356001600160a01b038116810361054c5760c086015260e435906001600160a01b038216820361054c578501908152610d1d613528565b50845182516001600160a01b03908116911614610ea8578451610d5c90610d4c906001600160a01b0316613201565b92516001600160a01b0316613201565b95610d668361322a565b90610d708861322a565b610d7a83866136d3565b610d84818a6136d3565b610d928360408a0151613fb6565b92610da581610b5a8460408d0151612ffa565b9a51808c108015610ea0575b610e825750908a8a610df896959493610dd4610dcd8584613d12565b918a613d12565b10610e53575b50509051925161013e54936001600160a01b03918216925016613753565b959196909451808811610e3457509160408492610e2c61068c956106cf9998978c60018060a01b0360c0860151169261354f565b015190613a9a565b604490875160405191630b63f1a760e01b835260048301526024820152fd5b610e72610e7a93610e62613e73565b610e6a613db5565b819391613690565b949093613b85565b388a8a610dda565b6044908c6040519163272e3f5960e21b835260048301526024820152fd5b508b15610db1565b604051632a9ffab760e21b8152600490fd5b8280fd5b82346104b65760203660031901126104b6576004356001600160a01b0381169081900361054c57816040916020935261014583522054604051908152f35b905034610965573660031901126104b6576004356001600160a01b038181169182900361054c576024803582811680910361054c578385526101369360209085825260019260ff8460408a20015416611162576101359586549785604051610f65604082612955565b8a815286810192828452868d52875260408c2090518155019051151560ff801983541691161790558654600160401b978882101561114f5790610fac9187820181556128f7565b81549060031b908386831b921b1916179055604051610fcc604082612955565b8981528481019283526101378054908982101561113c5790610ff2918882018155612939565b91909161112957908691518155019151166001600160601b0360a01b825416179055611022604435610148613116565b8087526101448252606435604088205586526101458152608435604087205560405190611050604083612955565b60a4358252810160c435815261018e805490868210156111165790611079918582018155612939565b9290926111035790839151835551910155610150918254938410156110f15750827f6417e5a3c1e0e5dae98b8fe718c4babdfcb35e0d7b5e1b9641b5914756f5d8e394926110cc926004950181556128f7565b50506110e26110da8261322a565b610151613116565b610897604051928392836134c0565b634e487b7160e01b8652604160045285fd5b634e487b7160e01b885260048890528488fd5b634e487b7160e01b895260416004528589fd5b634e487b7160e01b8b5260048b9052878bfd5b634e487b7160e01b8c526041600452888cfd5b634e487b7160e01b8b526041600452878bfd5b604051633458f6c560e01b8152600490fd5b36600319011290506104b65761118b3660046129a9565b90611194613528565b5061119d613e73565b6111a5613db5565b929060018060a01b03926111bb84845116613201565b906111db6111c98388612ec2565b51966111d588856136d3565b84613690565b602086979297019687516111f0838389613cca565b8181106112de5750509061121c918851670de0b6b3a76400009384916112168585613724565b90612ffa565b04968715610c08576112589361124f6112458d61060f8e516112168861060a8b610131546130bf565b610134549061300d565b049a8b88613b85565b60408501518088106112c0575061128181608087015116858360c0890151166101405492613753565b96919790956060830151808a116106d357509260a085936112b7858d956112b161068c9a6106cf9e9d9c9a6139e0565b51613b24565b0151169261354f565b604490886040519163272e3f5960e21b835260048301526024820152fd5b604492506040519163a5db715d60e01b835260048301526024820152fd5b82346104b65760203660031901126104b6576004356001600160a01b0381169081900361054c5761132b613f07565b61015280546001600160a01b031916909117905580f35b82346104b657806003193601126104b657602061015554604051908152f35b82346104b657806003193601126104b657602061139b611381600161331c565b61139561138e828461302d565b9183612f71565b91613363565b604051908152f35b82346104b657806003193601126104b6576113bc613e73565b80f35b82346104b65760203660031901126104b6576004356001600160a01b0381169081900361054c576113ee613f07565b61012f80546001600160a01b031916909117905580f35b82346104b65760203660031901126104b65761141f613f07565b60043561014c5580f35b82346104b65760203660031901126104b657611443613f07565b60043561013d5580f35b82346104b65760203660031901126104b657611467613f07565b6004356101395580f35b82346104b657806003193601126104b657602060ff60ca54166040519015158152f35b82346104b657806003193601126104b657602061015b54604051908152f35b82346104b657806003193601126104b657610153546040516001600160a01b039091168152602090f35b82346104b657806003193601126104b657602061013d54604051908152f35b82346104b657806003193601126104b657602061018f54431015604051908152f35b82346104b657806003193601126104b65760ca5460405160109190911c6001600160a01b03168152602090f35b82346104b65760203660031901126104b6576004356001600160a01b0381169081900361054c57604082819281526101366020522060ff6001825492015416825191825215156020820152f35b82346104b657806003193601126104b65760206115c46115be6115b96132e2565b612ee3565b906130a1565b61014a541015604051908152f35b82346104b657806003193601126104b657610146546040516001600160a01b039091168152602090f35b82346104b657806003193601126104b657610158546040516001600160a01b039091168152602090f35b82346104b657806003193601126104b657602061014a54604051908152f35b82346104b65760203660031901126104b6576004356001600160a01b0381169081900361054c57611674613f07565b61015380546001600160a01b031916909117905580f35b82346104b657806003193601126104b6576116a4613f95565b60ca54601081901c6001600160a01b031633036117105760ff8116156116fe576101009061ff0019161760ca557f62e78cea01bee320cd4e420270b5ea74000d11b0c9f74754ebdbfc544b05a2586020604051338152a180f35b60405163866099c360e01b8152600490fd5b604051631d77d47760e21b8152600490fd5b82346104b657806003193601126104b657602061015a54604051908152f35b82346104b657806003193601126104b657602061139b611761600161331c565b61139561176e8284612f71565b918361302d565b82346104b657806003193601126104b6576101c3546040516001600160a01b039091168152602090f35b82346104b65760203660031901126104b657600435906101489081548310156104b65760206117ce84846128f7565b90546040519160031b1c8152f35b82346104b65760203660031901126104b6576117f6613f07565b6004356101495580f35b36600319011290506104b65761188161181a3660046129a9565b611822613528565b5061182b613e73565b611833613db5565b82519093916001600160a01b039161184c908316613201565b9061186f61185a8388612ec2565b519661186688856136d3565b61014a54613690565b61187b81839793613724565b956130a1565b670de0b6b3a763ffff1990808201908111611a06576118a08885613d12565b908282019182116119de57906118b591612ffa565b9082019182116119f257906118c99161300d565b91602085016118dd8561060f898451612ffa565b93670de0b6b3a764000094858202918083048714901517156119de57906119039161300d565b9660408701518089116119c057508151908589029089820487148a151715610c385761192e9161300d565b908115610c08576119526119779661194b60609961196c94612ffa565b0483612ed6565b93848160808b0151169160c08b0151166101415492613753565b9791859791976130bf565b9701518088106119a257509261199d8899936106cf9899936112b1600161068c986139e0565b613a9a565b60449088604051916354cde31360e01b835260048301526024820152fd5b6044908960405191637a031da360e11b835260048301526024820152fd5b634e487b7160e01b8a52601160045260248afd5b634e487b7160e01b88526011600452602488fd5b634e487b7160e01b89526011600452602489fd5b82346104b65760203660031901126104b657611a34613f07565b6004356101405580f35b82346104b657806003193601126104b657602061019054604051908152f35b82346104b65760203660031901126104b657611a77613f07565b6004356101415580f35b82346104b657806003193601126104b657602061013454604051908152f35b82346104b657806003193601126104b657602061014254604051908152f35b82346104b65760203660031901126104b657611ad9613f07565b60043561013b5580f35b82346104b657806003193601126104b657602061015654604051908152f35b82346104b657806003193601126104b657602061013954604051908152f35b82346104b65760203660031901126104b657611b3b613f07565b6004356101545580f35b82346104b65760203660031901126104b6576004356001600160a01b0381169081900361054c57611b74613f07565b61015880546001600160a01b031916909117905580f35b82346104b65760203660031901126104b657611ba5613f07565b60043561013e5580f35b82346104b657806003193601126104b657602061015454604051908152f35b82346104b657806003193601126104b657602061014954604051908152f35b82346104b657806003193601126104b657611c06613f07565b600160ff1960ca54161760ca5580f35b82346104b657806003193601126104b6576020611c31613db5565b50604051908152f35b82346104b65760203660031901126104b657611c54613f07565b6004356101595580f35b82346104b657806003193601126104b65761012f546040516001600160a01b039091168152602090f35b82346104b657806003193601126104b657610133546040516001600160a01b039091168152602090f35b82346104b657806003193601126104b657602061014e54604051908152f35b82346104b657806003193601126104b657602060ff60ca5460081c166040519015158152f35b82346104b657806003193601126104b657602061015754604051908152f35b82346104b65760203660031901126104b657611d30613f07565b6004356101435580f35b82346104b657806003193601126104b6577f00000000000000000000000000000000000000000000000000000000000000006001600160a01b03163003611da55760206040517f360894a13ba1a3210667c828492db98dca3e2076cc3735a920a3ca505d382bbc8152f35b60405162461bcd60e51b815260206004820152603860248201527f555550535570677261646561626c653a206d757374206e6f742062652063616c60448201527f6c6564207468726f7567682064656c656761746563616c6c00000000000000006064820152608490fd5b82346104b657806003193601126104b657611e29613f07565b60ff1960ca541660ca5580f35b8260403660031901126104b6576001600160a01b03600435818116810361054c5782916024359167ffffffffffffffff8311611f255736602384011215611f25578260040135611e858161298d565b92611e936040519485612955565b8184523660248387010111611f21576113bc95602083611f14946024600199018389013786010152807f00000000000000000000000000000000000000000000000000000000000000001690611eeb82301415612a21565b7f360894a13ba1a3210667c828492db98dca3e2076cc3735a920a3ca505d382bbc541614612a82565b611f1c613f07565b612ae3565b8580fd5b505050fd5b82346104b657806003193601126104b657602061013b54604051908152f35b82346104b657806003193601126104b657610147546040516001600160a01b039091168152602090f35b82346104b657806003193601126104b657602061014c54604051908152f35b82346104b65760203660031901126104b657600435906101379081548310156104b6576040611fc18484612939565b50805460019091015482519182526001600160a01b03166020820152f35b82346104b657806003193601126104b657602061013e54604051908152f35b82346104b657806003193601126104b65760ca5460ff8160081c16156120f75760018060a01b03808260101c163314159081612078575b506117105760ff8116156116fe5761ff00191660ca557f5db9ee0a495bf2e6ff9c91a7834c1ba4fdd244a5e8aa4e537bd38aeae4b073aa6020604051338152a180f35b60975460405163d994d6d560e01b8152336004820152925060209183916024918391165afa9081156120ec5783916120b3575b501583612035565b90506020813d82116120e4575b816120cd60209383612955565b81010312610eba576120de90613259565b836120ab565b3d91506120c0565b6040513d85823e3d90fd5b604051637c7fd07960e01b8152600490fd5b82346104b65760203660031901126104b6576004356001600160a01b0381169081900361096557612138613f07565b61014f80546001600160a01b031916909117905580f35b82346104b65760203660031901126104b657612169613f07565b6004356101905580f35b82346104b65760203660031901126104b657600435906101389081548310156104b65760206117ce84846128f7565b82346104b65760203660031901126104b6576004356001600160a01b03808216820361054c576113bc916122018285937f00000000000000000000000000000000000000000000000000000000000000001690611eeb82301415612a21565b612209613f07565b6122128261298d565b906122206040519283612955565b828252601f1961222f8461298d565b01366020840137612ae3565b82346104b657806003193601126104b657612254613f95565b61014b805460ff81168061231e575b80612304575b612271578280f35b61ff0019166101001790556040517f8b77276c97a5709f0d6db52329848a254eb760ce8be80d281799f633bdb69e838280a16101335482906001600160a01b0316803b156109655782600481848094638456cb5960e01b83525af180156122f7576122e7575b50506122e1613153565b81808280f35b6122f091612955565b81816122d7565b50604051903d90823e3d90fd5b506123136115be6115b96132e2565b61014a541015612269565b5060ff8160081c1615612263565b82346104b657806003193601126104b657602061013f54604051908152f35b82346104b657806003193601126104b657602061014354604051908152f35b82346104b65760203660031901126104b6576004356001600160a01b038116810361096557612397613f07565b60ca805462010000600160b01b03191660109290921b62010000600160b01b031691909117905580f35b82346104b65760203660031901126104b6576123db613f07565b60043561014a5580f35b82346104b65760803660031901126104b6576004356001600160a01b038181169290838303610965576024358181169182820361255f576044358181168091036125db576064359560ff61014b5460081c16156125c95761244590613201565b90612452826101356128f7565b95905498604051966370a0823160e01b8852826004890152876024818860209e8f9560031b1c165afa9687156125be57889761258b575b50861561256d576124ac61249f856101386128f7565b90549060031b1c88613fb6565b98898110612563575b50906124f49392917ffaab3901cd2d6e9b5d0a0c6e34c643b8c844726f3c54de69517e571bf24bbd9260408c8c8251918c8352820152a46101356128f7565b90549060031b1c1690813b1561255f57604051632770a7eb60e21b81526001600160a01b03919091166004820152602481019290925290919081908390604490829084905af180156122f75761254f575b5050604051908152f35b61255891612955565b8280612545565b8380fd5b98506124f46124b5565b60448760405190633fe8c5eb60e01b82528060048301526024820152fd5b9096508981813d83116125b7575b6125a38183612955565b810103126125b35751958a612489565b8780fd5b503d612599565b6040513d8a823e3d90fd5b60405163031b0d3560e11b8152600490fd5b8480fd5b82346104b657806003193601126104b657602061014054604051908152f35b82346104b65760203660031901126104b6576004356001600160a01b038116908190036109655761262d613f07565b61014780546001600160a01b031916909117905580f35b82346104b65760203660031901126104b6576004356001600160a01b0381169081900361096557816040916020935261014483522054604051908152f35b82346104b657806003193601126104b657602060ff61014b5460081c166040519015158152f35b82346104b65760203660031901126104b6576126c3613f07565b6004356101425580f35b82346104b65760203660031901126104b657600435801515809103610965576126f4613f07565b61014b9060ff8019835416911617905580f35b82346104b657806003193601126104b657602061014d54604051908152f35b82346104b657806003193601126104b65761014f546040516001600160a01b039091168152602090f35b82346104b65760203660031901126104b6576004356001600160a01b038116908190036109655761277f613f07565b61013080546001600160a01b031916909117905580f35b82346104b65760203660031901126104b6576127b0613f07565b60043561013f5580f35b82346104b657806003193601126104b657602061015954604051908152f35b82346104b65760203660031901126104b6576004356001600160a01b0381169081900361096557612808613f07565b61014680546001600160a01b031916909117905580f35b82346104b657806003193601126104b657602061018f54604051908152f35b82346104b657806003193601126104b6576097546040516001600160a01b039091168152602090f35b82346104b65760203660031901126104b657612881613f07565b60043561015a5580f35b82346104b65760203660031901126104b657600435906101359081548310156104b65760206128ba84846128f7565b905460405160039290921b1c6001600160a01b03168152f35b82346104b65760203660031901126104b6576128ed613f07565b60043561013a5580f35b805482101561290f5760005260206000200190600090565b634e487b7160e01b600052603260045260246000fd5b35906001600160a01b038216820361054c57565b805482101561290f5760005260206000209060011b0190600090565b90601f8019910116810190811067ffffffffffffffff82111761297757604052565b634e487b7160e01b600052604160045260246000fd5b67ffffffffffffffff811161297757601f01601f191660200190565b91908260e091031261054c576040516129c360e082612955565b60c0612a1c8183956129d481612925565b8552602081013560208601526040810135604086015260608101356060860152612a0060808201612925565b6080860152612a1160a08201612925565b60a086015201612925565b910152565b15612a2857565b60405162461bcd60e51b815260206004820152602c60248201527f46756e6374696f6e206d7573742062652063616c6c6564207468726f7567682060448201526b19195b1959d85d1958d85b1b60a21b6064820152608490fd5b15612a8957565b60405162461bcd60e51b815260206004820152602c60248201527f46756e6374696f6e206d7573742062652063616c6c6564207468726f7567682060448201526b6163746976652070726f787960a01b6064820152608490fd5b909160ff7f4910fdfa16fed3260ed0e7147f7cc6da11a60208b5b9406d12a635614ffd91435416600014612b1e5750612b1c9150612d4c565b565b604080516352d1902d60e01b8152602094919392906001600160a01b038416908681600481855afa60009181612d1d575b50612baf57855162461bcd60e51b815260048101889052602e60248201527f45524331393637557067726164653a206e657720696d706c656d656e7461746960448201526d6f6e206973206e6f74205555505360901b6064820152608490fd5b9395929492937fc9f76b5ec45e5cdef99837d7b6d2467235c1df8933c8ca56df5c35afa2c7d44401612cc757612be486612d4c565b7fbc7cd75a20ee27fd9adebab32041f755214dbc6bffa90cc0225b39da2e5c2d3b600080a283511590811591612cbf575b50612c21575b50505050565b612cab93600080612c32602761298d565b95612c3f85519788612955565b602787527f416464726573733a206c6f772d6c6576656c2064656c65676174652063616c6c86880152660819985a5b195960ca1b858801528581519101845af4913d15612cb5573d612c9c612c938261298d565b92519283612955565b8152600081943d92013e612dee565b5038808080612c1b565b5060609250612dee565b905038612c15565b825162461bcd60e51b815260048101859052602960248201527f45524331393637557067726164653a20756e737570706f727465642070726f786044820152681a58589b195555525160ba1b6064820152608490fd5b90918882813d8311612d45575b612d348183612955565b810103126104b65750519038612b4f565b503d612d2a565b803b15612d93577f360894a13ba1a3210667c828492db98dca3e2076cc3735a920a3ca505d382bbc80546001600160a01b0319166001600160a01b03909216919091179055565b60405162461bcd60e51b815260206004820152602d60248201527f455243313936373a206e657720696d706c656d656e746174696f6e206973206e60448201526c1bdd08184818dbdb9d1c9858dd609a1b6064820152608490fd5b91929015612e505750815115612e02575090565b3b15612e0b5790565b60405162461bcd60e51b815260206004820152601d60248201527f416464726573733a2063616c6c20746f206e6f6e2d636f6e74726163740000006044820152606490fd5b825190915015612e635750805190602001fd5b6040519062461bcd60e51b82528160208060048301528251908160248401526000935b828510612ea9575050604492506000838284010152601f80199101168101030190fd5b8481018201518686016044015293810193859350612e86565b805182101561290f5760209160051b010190565b91908201809211610c3857565b906000916000906101378054906000925b828410612f1a5750505050612f16670de0b6b3a7640000916101395490612ffa565b0490565b9091929395612f67612f56612f61600193612f5b612f388a88612ec2565b51612f43818c612f8d565b9590612f4f8d8c612939565b5054612ed6565b613fb6565b90612ed6565b98612ed6565b9401929190612ef4565b91909160008382019384129112908015821691151617610c3857565b9190600090612fbb81600095612fb1612fa8826101506128f7565b93905492613046565b9160031b1c612f71565b60008113612fca575b50509190565b612ff2919450612fec92508094670de0b6b3a764000093849161013a54612ffa565b04612ffa565b043880612fc4565b81810292918115918404141715610c3857565b8115613017570490565b634e487b7160e01b600052601260045260246000fd5b81810392916000138015828513169184121617610c3857565b61305281610137612939565b505490670de0b6b3a764000091828102928184041490151715610c385761309e92613092613085613098936101516128f7565b90549060031b1c8461300d565b9261300d565b9061302d565b90565b80156130b757612f5661309e92610131546130bf565b505060001990565b91908203918211610c3857565b67ffffffffffffffff81116129775760051b60200190565b906130ee826130cc565b6130fb6040519182612955565b828152809261310c601f19916130cc565b0190602036910137565b805490600160401b821015612977578161313891600161314f940181556128f7565b819391549060031b91821b91600019901b19161790565b9055565b6101315480156131fe5761013790815491600090613170846130e4565b9082905b8582106131ba57505060005b84811061318e575050505050565b806131b46131ac86610b5a876131a660019789612ec2565b51612ffa565b610138613116565b01613180565b90926131f66001916131cb8661322a565b6131d58787612ec2565b52612f5b6131e38786612939565b50546131ef8888612ec2565b5190613fb6565b930190613174565b50565b6001600160a01b0316600090815261013660205260409020600181015460ff1615610917575490565b61323690610137612939565b50600101546001600160a01b031661324d81613280565b91909115610534575090565b5190811515820361054c57565b919082604091031261054c5761309e602083519301613259565b604080516359e02dd760e01b81529291839060049082906001600160a01b03165afa9182156132d65760009081936132b757509190565b90506132d291925060403d8111610953576109438183612955565b9091565b6040513d6000823e3d90fd5b61013754906132f0826130e4565b9160005b8181106132ff575050565b8061330b60019261322a565b6133158287612ec2565b52016132f4565b9061333d670de0b6b3a764000092836101575461015454924301030261300d565b8281101561335a5782039180836101555402049261015654020590565b50600091508190565b909161336d6133c5565b9290808210156133bb578391613382916130bf565b9311156133b657818110156133ae5761339a916130bf565b60011c808210156133a9575090565b905090565b505050600090565b505090565b5050505050600090565b61015254604080516359e02dd760e01b80825293929091906001600160a01b039081168284600481845afa80156134b5576000948591613492575b501561347b575061015354169080519485528085600481855afa801561347057600095869161344d575b50156134365750509190565b6024925051906305e8989360e11b82526004820152fd5b9050816134679296503d8711610953576109438183612955565b9490943861342a565b50513d6000823e3d90fd5b6024908351906305e8989360e11b82526004820152fd5b90506134ac919450833d8511610953576109438183612955565b93909338613400565b83513d6000823e3d90fd5b9081526101008101929160e09060c0906001600160a01b03806134e283612925565b1660208601526134f460208301612925565b1660408501526040810135606085015260608101356080850152608081013560a085015260a0810135828501520135910152565b60405190613537608083612955565b60006060838281528260208201528260408201520152565b6135c79361358e60009260209561356882610137612939565b50613574878254612ed6565b9055613584610131918254612ed6565b90556101356128f7565b90546040516340c10f1960e01b81526001600160a01b039093166004840152602483019490945290948593928492909183906044820190565b039360039190911b1c6001600160a01b03165af180156132d6576135e85750565b6020813d8211613611575b8161360060209383612955565b8101031261054c576131fe90613259565b3d91506135f3565b61367f9260209261013461362e848254612ed6565b905561363e610131918254612ed6565b9055610133546040516340c10f1960e01b81526001600160a01b03928316600482015260248101939093529193849290911690829060009082906044820190565b03925af180156132d6576135e85750565b919061369b90612ee3565b9190926136a883856130a1565b90808211156136b5575050565b6044925060405191637912120160e01b835260048301526024820152fd5b61313861314f916136e48482613046565b61371a6136f3836101506128f7565b6137068294925492838360031b1c612f71565b919060031b91821b91600019901b19161790565b90556101516128f7565b90610134549081156137445761309e9261060a612f5692610131546130bf565b505050670de0b6b3a764000090565b929093916000916000918296613767613528565b966001600160a01b03918590831680613968575b508261012f54168360405193636eb1769f60e11b8552168060048501523060248501526020948585604481865afa94851561395d57849561392e575b5084613818575b5050505050860151156137d4575b505050929190565b909192506137ec670de0b6b3a7640000928392612ffa565b0480855290821561381057613808920490816040860152612ed6565b3880806137cc565b509050613808565b613826906101305416613280565b929092156137be57909192939b50848b61386085670de0b6b3a764000061385a6138508d8d612ffa565b6101435490612ffa565b0461300d565b81830181815295908b15613924575061388b9161387f6060928d61300d565b91829101528551612ed6565b809d5b109283156138ba575b5050506138a7575b8080806137be565b819299505280606088015296388061389f565b909192506024604051809481936370a0823160e01b835260048301525afa9081156120ec57908b9184916138f3575b5010388481613897565b809250858092503d831161391d575b61390c8183612955565b81010312610eba578a9051386138e9565b503d613902565b915050809d61388e565b9094508581813d8311613956575b6139468183612955565b8101031261255f575193386137b7565b503d61393c565b6040513d86823e3d90fd5b9095506020836101c35416916024604051809481936364a731e960e01b835260048301525afa801561095a5786906139ad575b6139a6915084612ffa565b943861377b565b506020813d82116139d8575b816139c660209383612955565b81010312611f21576139a6905161399b565b3d91506139b9565b806139e96133c5565b9190936139f6600061331c565b9401938291613a8e575b0193846000808212613a8857505b840391818511613a50575050818111613a3257505061015555610156554361015755565b60449250604051916306da41e560e11b835260048301526024820152fd5b9080859211613a7657604491604051916306da41e560e11b835260048301526024820152fd5b604051630fb4fd3560e11b8152600490fd5b03613a0e565b90508160000390613a00565b613ac79192613aab82610137612939565b50613ab78582546130bf565b90556135846101319182546130bf565b905460039190911b1c6001600160a01b0316803b1561054c57604051632770a7eb60e21b815230600482015260248101929092526000908290818381604481015b03925af180156132d657613b195750565b6000612b1c91612955565b90610134613b338382546130bf565b9055613b436101319182546130bf565b9055610133546001600160a01b0316803b1561054c57604051632770a7eb60e21b81523060048201526024810192909252600090829081838160448101613b08565b92613b9783613b9d9694939795613d12565b90613bc6565b818110613ba8575050565b604492506040519163c39b739f60e01b835260048301526024820152fd5b92613bd392949193613c93565b60009281810291600160ff1b9185821283821416613c7f578184051490151715613c6b57670de0b6b3a763ffff198301928311613c6b57670de0b6b3a764000092838102938185041490151715613c6b578215613c57578114600019831416613c435705908082126133a9575090565b634e487b7160e01b83526011600452602483fd5b634e487b7160e01b84526012600452602484fd5b634e487b7160e01b84526011600452602484fd5b634e487b7160e01b86526011600452602486fd5b9091613ca290610131546130bf565b90670de0b6b3a764000091828102928184041490151715610c385761309e9261309891612ffa565b8282613cd592613c93565b9060008213156133ae5761309e92613cec91613724565b9061300d565b90604051613d01604082612955565b602060018294805484520154910152565b613d1e816101486128f7565b90549060031b1c9161018e91613d348184612939565b50549261018f54431015613d5a575b5050808210156133b657610b5a9061309e93612ffa565b829350613d6e613d799392613d7492612939565b50613cf2565b613d81565b903880613d43565b602081519101805192670de0b6b3a764000093840390848211610c3857613dae612f5b92612f1695612ffa565b9251612ffa565b60008061013791825492613dc8846130e4565b9382915b818310613df5575050508115613de95790613de69161300d565b91565b50506101495460011b91565b90919392613e028561322a565b9081613e0e8789612ec2565b52613e27613e1c8388612f8d565b50612f4f8886612939565b670de0b6b3a764000090818102918183041490151715610c3857613e64613e6a92612f5b85613e5b60019761060f96613fb6565b9485918c613d12565b95612ed6565b94019190613dcc565b61018f8054431015613e825750565b6101375460005b818110613e9c5750506101905443019055565b80807f19156e9379c7bbbce8f646ce5ee30ba860b8f954717405f3d5859a6c1a21ae6060019361018e613ed2613d6e8383612939565b90613ef0613ee8613ee28561322a565b84613d81565b938492612939565b50555160409182519182526020820152a201613e89565b60975460405163d994d6d560e01b815233600482015290602090829060249082906001600160a01b03165afa9081156132d657600091613f5c575b5015613f4a57565b604051631dd1b1b560e21b8152600490fd5b906020823d8211613f8d575b81613f7560209383612955565b810103126104b65750613f8790613259565b38613f42565b3d9150613f68565b60ff60ca5460081c16613fa457565b60405163783bb6c960e11b8152600490fd5b90670de0b6b3a764000091828102928184041490151715610c385761309e9161300d56fea26469706673582212208149c6cace468473064f0dfa25575e6079f76002188cc0fb75dafd654539b1c364736f6c6343000814003360803461005d57601f61019d38819003918201601f19168301916001600160401b038311848410176100625780849260209460405283398101031261005d5751600055600160ff198154161760015560405161012490816100798239f35b600080fd5b634e487b7160e01b600052604160045260246000fdfe6080806040526004361015601257600080fd5b600090813560e01c90816332145f901460d657816359e02dd71460ac5750806373d4a13a146091578063b689d5ac1460705763c62dee0d14605257600080fd5b34606d5780600319360112606d5760ff196001541660015580f35b80fd5b5034606d5780600319360112606d57602060ff600154166040519015158152f35b5034606d5780600319360112606d5760209054604051908152f35b90503460d2578160031936011260d2576040915460ff6001541690825215156020820152f35b5080fd5b8234606d576020366003190112606d57600435815580f3fea26469706673582212204c73b60e8fd9090a929ba12ada6c65edd9019656110671326ad073926191b53a64736f6c63430008140033608060405234620003b65762000014620003bb565b6200001e620003bb565b81519091906001600160401b0390818111620002b6576003918254926001928385811c9516958615620003ab575b6020968787101462000395578190601f968781116200033f575b508790878311600114620002d857600092620002cc575b505060001982841b1c191690841b1781555b8551918211620002b65760049586548481811c91168015620002ab575b8782101462000296578581116200024b575b508590858411600114620001e057938394918492600095620001d4575b50501b92600019911b1c19161783555b601260ff19600554161760055533156200019357506002547b6df37f675ef6eadf5ab9a2072d44268d97df837e6748956e5c6c2117928382018092116200017e57506000917fddf252ad1be2c89b69c2b068fc378daa952ba7f163c4a11628f55a4df523b3ef91600255338352828152604083208481540190556040519384523393a3604051610c439081620003f28239f35b601190634e487b7160e01b6000525260246000fd5b606492916040519262461bcd60e51b845283015260248201527f45524332303a206d696e7420746f20746865207a65726f2061646472657373006044820152fd5b015193503880620000db565b9190601f198416928860005284886000209460005b8a8983831062000233575050501062000218575b50505050811b018355620000eb565b01519060f884600019921b161c191690553880808062000209565b868601518955909701969485019488935001620001f5565b87600052866000208680860160051c8201928987106200028c575b0160051c019085905b8281106200027f575050620000be565b600081550185906200026f565b9250819262000266565b602288634e487b7160e01b6000525260246000fd5b90607f1690620000ac565b634e487b7160e01b600052604160045260246000fd5b0151905038806200007d565b90869350601f1983169185600052896000209260005b8b8282106200032857505084116200030f575b505050811b0181556200008f565b015160001983861b60f8161c1916905538808062000301565b8385015186558a97909501949384019301620002ee565b90915083600052876000208780850160051c8201928a86106200038b575b918891869594930160051c01915b8281106200037b57505062000066565b600081558594508891016200036b565b925081926200035d565b634e487b7160e01b600052602260045260246000fd5b94607f16946200004c565b600080fd5b60408051919082016001600160401b03811183821017620002b657604052600982526845524332304d6f636b60b81b602083015256fe6080604081815260048036101561001557600080fd5b600092833560e01c90816306fdde031461064957508063095ea7b31461061557806318160ddd146105f657806323b872dd146105a8578063313ce56714610140578063395093511461055857806340c10f191461049957806342966c681461047b5780635c2f5e261461044657806370a082311461040e57806379cc6790146103d45780637a1395aa146103a757806395d89b41146102875780639dc29fac14610255578063a457c2d7146101a5578063a9059cbb14610166578063ace28fa5146101405763dd62ed3e146100e957600080fd5b3461013c578160031936011261013c576001600160a01b039035818116908190036101385760243591821680920361013857928291602094825260018552828220908252845220549051908152f35b8380fd5b8280fd5b50503461016257816003193601126101625760209060ff600554169051908152f35b5080fd5b503461013c578160031936011261013c5735916001600160a01b03831683036101a2575061019960209260243590610bb9565b90519015158152f35b80fd5b5082346101a257826003193601126101a2578135916001600160a01b038316918284036101a2578490602435933382526001602052828220908252602052205490828210610204576020856101fd8585038733610918565b5160018152f35b608490602086519162461bcd60e51b8352820152602560248201527f45524332303a2064656372656173656420616c6c6f77616e63652062656c6f77604482015264207a65726f60d81b6064820152fd5b50903461013c5736600319011261016257356001600160a01b0381168103610162576102849060243590610ab2565b80f35b50919034610162578160031936011261016257805190828454600181811c9080831692831561039d575b602093848410811461038a5783885290811561036e5750600114610319575b505050829003601f01601f191682019267ffffffffffffffff841183851017610306575082918261030292528261073e565b0390f35b634e487b7160e01b815260418552602490fd5b8787529192508591837f8a35acfbc15ff81a39ae7d344fd709f28e8600b4aa8c65c6b64bfe7fe36bd19b5b83851061035a57505050508301013880806102d0565b805488860183015293019284908201610344565b60ff1916878501525050151560051b84010190503880806102d0565b634e487b7160e01b895260228a52602489fd5b91607f16916102b1565b838234610162576020366003190112610162573560ff81168091036101625760ff19600554161760055580f35b50903461013c5736600319011261016257356001600160a01b0381168103610162576102849060243590610409823383610a1a565b610ab2565b503461013c57602036600319011261013c57356001600160a01b0381169081900361013c578282916020945280845220549051908152f35b838234610162576020366003190112610162573560038110156101625761ff006005549160081b169061ff0019161760055580f35b83823461016257602036600319011261016257610284903533610ab2565b503461013c578160031936011261013c5780356001600160a01b03811692908390036101385760243591831561051657506020827fddf252ad1be2c89b69c2b068fc378daa952ba7f163c4a11628f55a4df523b3ef926104fc8795600254610787565b60025585855284835280852082815401905551908152a380f35b6020606492519162461bcd60e51b8352820152601f60248201527f45524332303a206d696e7420746f20746865207a65726f2061646472657373006044820152fd5b503461013c578160031936011261013c57356001600160a01b03811680820361013857906105a16020946101fd9333825260018752858220908252865284602435912054610787565b9033610918565b503461013c57606036600319011261013c5735916001600160a01b039081841684036101a25760243591821682036101a257506020926101fd91604435916105f1833383610a1a565b6107aa565b5050346101625781600319360112610162576020906002549051908152f35b503461013c578160031936011261013c5735916001600160a01b03831683036101a257506101fd6020926024359033610918565b849150833461013c578260031936011261013c5782600354600181811c90808316928315610734575b602093848410811461038a5783885290811561071857506001146106c257505050829003601f01601f191682019267ffffffffffffffff841183851017610306575082918261030292528261073e565b600387529192508591837fc2575a0e9e593c00f959f8c92f12db2869c3395a3b0502d05e2516446f71f85b5b83851061070457505050508301018580806102d0565b8054888601830152930192849082016106ee565b60ff1916878501525050151560051b84010190508580806102d0565b91607f1691610672565b6020808252825181830181905290939260005b82811061077357505060409293506000838284010152601f8019910116010190565b818101860151848201604001528501610751565b9190820180921161079457565b634e487b7160e01b600052601160045260246000fd5b6001600160a01b039081169182156108c557169182156108745760008281528060205260408120549180831061082057604082827fddf252ad1be2c89b69c2b068fc378daa952ba7f163c4a11628f55a4df523b3ef958760209652828652038282205586815220818154019055604051908152a3565b60405162461bcd60e51b815260206004820152602660248201527f45524332303a207472616e7366657220616d6f756e7420657863656564732062604482015265616c616e636560d01b6064820152608490fd5b60405162461bcd60e51b815260206004820152602360248201527f45524332303a207472616e7366657220746f20746865207a65726f206164647260448201526265737360e81b6064820152608490fd5b60405162461bcd60e51b815260206004820152602560248201527f45524332303a207472616e736665722066726f6d20746865207a65726f206164604482015264647265737360d81b6064820152608490fd5b6001600160a01b039081169182156109c957169182156109795760207f8c5be1e5ebec7d5bd14f71427d1e84f3dd0314c0f7b2291e5b200ac8c7c3b925918360005260018252604060002085600052825280604060002055604051908152a3565b60405162461bcd60e51b815260206004820152602260248201527f45524332303a20617070726f766520746f20746865207a65726f206164647265604482015261737360f01b6064820152608490fd5b60405162461bcd60e51b8152602060048201526024808201527f45524332303a20617070726f76652066726f6d20746865207a65726f206164646044820152637265737360e01b6064820152608490fd5b9060018060a01b0380831660005260016020526040600020908216600052602052604060002054926000198403610a52575b50505050565b808410610a6d57610a64930391610918565b38808080610a4c565b60405162461bcd60e51b815260206004820152601d60248201527f45524332303a20696e73756666696369656e7420616c6c6f77616e63650000006044820152606490fd5b6001600160a01b03168015610b6a57600091818352826020526040832054818110610b1a57817fddf252ad1be2c89b69c2b068fc378daa952ba7f163c4a11628f55a4df523b3ef926020928587528684520360408620558060025403600255604051908152a3565b60405162461bcd60e51b815260206004820152602260248201527f45524332303a206275726e20616d6f756e7420657863656564732062616c616e604482015261636560f01b6064820152608490fd5b60405162461bcd60e51b815260206004820152602160248201527f45524332303a206275726e2066726f6d20746865207a65726f206164647265736044820152607360f81b6064820152608490fd5b9060ff60055460081c166003811015610bf75760018114610bef57600214610bea57610be591336107aa565b600190565b600080fd5b505050600090565b634e487b7160e01b600052602160045260246000fdfea2646970667358221220a89b8eb205fca4c3b7a0564b3afd2d67b29aefc0cbac4acef874d11a8d593a7264736f6c6343000814003360803461005d57601f61019b38819003918201601f19168301916001600160401b038311848410176100625780849260209460405283398101031261005d5751600055600160ff198154161760015560405161012290816100798239f35b600080fd5b634e487b7160e01b600052604160045260246000fdfe6080806040526004361015601257600080fd5b600090813560e01c9081632a3f43891460d05750806332145f901460b85780635095e3d914609c57806359e02dd71460755763b689d5ac14605257600080fd5b3460725780600319360112607257602060ff600154166040519015158152f35b80fd5b5034607257806003193601126072576040905460ff60015416825191825215156020820152f35b50346072578060031936011260725760ff196001541660015580f35b50346072576020366003190112607257600435815580f35b90503460e8578160031936011260e857602091548152f35b5080fdfea264697066735822122072d2893e184264a56256407bb10b2744402af53807dbe6d8cac8f775960d5c7864736f6c634300081400336080806040523461002357600160ff19600054161760005561019a90816100298239f35b600080fdfe60808060405260048036101561001457600080fd5b600091823560e01c90816357e6c2f41461014557508281638c777e82146100b5575080639e0a8e09146100895763d994d6d51461005057600080fd5b3461008557602036600319011261008557356001600160a01b038116036100825760ff60209154166040519015158152f35b80fd5b5080fd5b503461008557602036600319011261008557358015158091036100855760ff8019835416911617815580f35b8083346101425760203660031901126101425780356001600160a01b0381169081900361013e57803b1561013e5782908260405180958193631851865560e21b83525af1801561013357610107578280f35b67ffffffffffffffff8211610120575060405281808280f35b634e487b7160e01b835260419052602482fd5b6040513d85823e3d90fd5b5050fd5b50fd5b83903461008557816003193601126100855760ff602092541615158152f3fea2646970667358221220db32608f1f6cb45e0039ab366ec4b054a5b78ac7e186da44aee701495bd22f2064736f6c6343000814003360a08060405234620000e157306080526000549060ff8260081c166200008f575060ff8082160362000053575b604051614b669081620000e7823960805181818161106e015281816111dd01526122f80152f35b60ff90811916176000557f7f26b83ff96e1f2b6a682f133852f6798a09c465da95921460cefb3847402498602060405160ff8152a1386200002c565b62461bcd60e51b815260206004820152602760248201527f496e697469616c697a61626c653a20636f6e747261637420697320696e697469604482015266616c697a696e6760c81b6064820152608490fd5b600080fdfe6080604052600436101561001b575b361561001957600080fd5b005b60003560e01c8062c6e88e146127e957806301ffc9a7146127935780630c340a241461276a5780631826ebf0146127065780631a0c54401461269857806324524ea114612642578063248a9ca3146126125780632b994849146125f35780632d88af4a1461259e5780632f2ff15d1461256557806334975a41146123f357806336568abe1461235f5780633659cfe6146122c65780633bb4b05c146122835780633cbcf4c41461225e5780633f4ba83a14612169578063435c7e37146120df57806347d8496a1461200e5780634981d04e14611f675780634b5a9e3d14611f335780634b64e492146112405780634f1ef286146111565780635210570c1461113157806352d1902d1461105b5780635c817aa314610ff75780635c975abb14610fd15780635ee1d2bb14610f87578063681fe70c14610f635780636827435714610f3b5780636b59c22f14610e6a5780636b76333014610e0657806373e3d08614610de75780637c50b7e414610da35780637e81a82114610cd25780638456cb5914610c3c5780638a4737ab14610bdd5780638b20076c14610b7e5780638e7e818914610b5657806391d1485414610b035780639fd0506d14610ad6578063a217fddf14610aba578063ad16c2de14610a4c578063bb4872de14610a29578063bbe720d9146109b4578063c84d8bb6146108e3578063caeb12b6146108b9578063d547741f14610880578063db901477146105da578063dbb0b684146105b8578063e4c0aaf414610572578063e4e1b729146104a1578063e97a4d63146103d0578063fa91a9a5146102d95763fb8aafb80361000e57346102d45760203660031901126102d457600435600052610262602052604060002060018060a01b036102d081835416916001840154936002810154918060038301541690600581600485015416930154169260405196879687612969565b0390f35b600080fd5b60a03660031901126102d4576102ed612f5f565b610304600080516020614b118339815191526145f0565b61031a61031460026101f76128fd565b546149ee565b61025d80546040519161032e604084612915565b60028352602083019260018060f81b03431684528260005261026860205260406000209051600a8110156103ba5760ff6020958119905160081b16911617905581600052610261835261038660046040600020614558565b604051828152600284820152600080516020614af183398151915260403392a26103b081546145cb565b9055604051908152f35b634e487b7160e01b600052602160045260246000fd5b60a03660031901126102d4576103e4612f5f565b6103fb600080516020614b118339815191526145f0565b61040b61031460016101f76128fd565b61025d80546040519161041f604084612915565b60018352602083019260018060f81b03431684528260005261026860205260406000209051600a8110156103ba5760ff6020958119905160081b1691161790558160005261025f835261047760046040600020614558565b604051828152600184820152600080516020614af183398151915260403392a26103b081546145cb565b60e03660031901126102d4576104b5612f5f565b6104cc600080516020614b118339815191526145f0565b6104dc61031460066101f76128fd565b61025d8054604051916104f0604084612915565b60068352602083019260018060f81b03431684528260005261026860205260406000209051600a8110156103ba5760ff6020958119905160081b16911617905581600052610264835261054860046040600020614891565b604051828152600684820152600080516020614af183398151915260403392a26103b081546145cb565b346102d45760203660031901126102d4576004356001600160a01b038116908190036102d4576105a0612eec565b6001600160601b0360a01b6097541617609755600080f35b346102d45760003660031901126102d45760206102695460801c604051908152f35b346102d4576101a03660031901126102d4576001600160a01b03600435818116908190036102d45760243591821682036102d4576044356001600160801b03928382168092036102d45760643593841684036102d4576101203660831901126102d4576000549260ff8460081c161593848095610873575b801561085c575b15610800576106f092600191868360ff198316176000556107ee575b5060ff60005460081c169261068984612f80565b61069284612f80565b61069b84612f80565b6106a484612f80565b6106ad84612f80565b6001600160601b0360a01b60975416176097556106c983612f80565b60ca5490620100008360b01b039060101b169061ff018360b01b031916171760ca55612f80565b6101f76084356107016001836128fd565b5560a4356107106002836128fd565b5560c43561071f6003836128fd565b5560e43561072e6004836128fd565b556101043561073e6009836128fd565b556101243561074e6008836128fd565b556101443561075e6007836128fd565b556101643561076e6006836128fd565b5561077e600561018435926128fd565b556000549261079b60ff8560081c1661079681612f80565b612f80565b600161022a5560801b6001600160801b03191617610269556107b957005b61ff0019166000557f7f26b83ff96e1f2b6a682f133852f6798a09c465da95921460cefb3847402498602060405160018152a1005b61ffff19166101011760005587610675565b60405162461bcd60e51b815260206004820152602e60248201527f496e697469616c697a61626c653a20636f6e747261637420697320616c72656160448201526d191e481a5b9a5d1a585b1a5e995960921b6064820152608490fd5b50303b1580156106595750600160ff821614610659565b50600160ff821610610652565b346102d45760403660031901126102d4576004356024356001600160a01b03811681036102d457816108b4610019936149f8565b6129a3565b346102d45760003660031901126102d45761025c546040516001600160a01b039091168152602090f35b60c03660031901126102d4576108f7612f5f565b61090e600080516020614b118339815191526145f0565b61091e61031460046101f76128fd565b61025d805460405191610932604084612915565b60048352602083019260018060f81b03431684528260005261026860205260406000209051600a8110156103ba5760ff6020958119905160081b16911617905581600052610262835261098a60046040600020614826565b604051828152600484820152600080516020614af183398151915260403392a26103b081546145cb565b346102d45760203660031901126102d4576001600160a01b03600435818116908190036102d4576109e3612eec565b61025c8054928316610a175781610019936001600160601b0360a01b16179055600080516020614b1183398151915261496c565b604051630a646b7760e41b8152600490fd5b346102d45760003660031901126102d457602060ff60ca54166040519015158152f35b346102d45760203660031901126102d4576004803560009081526102616020908152604091829020805460018201546002830154600384015493909601548551928352938201526001600160a01b03948516938101939093528316606083015291909116608082015260a090f35b346102d45760003660031901126102d457602060405160008152f35b346102d45760003660031901126102d45760ca5460405160109190911c6001600160a01b03168152602090f35b346102d45760403660031901126102d4576024356001600160a01b038116908190036102d457600435600052610193602052604060002090600052602052602060ff604060002054166040519015158152f35b346102d45760003660031901126102d45760206001600160801b036102695416604051908152f35b346102d45760203660031901126102d457600435600052610263602052604060002060018060a01b036102d081835416916001840154936002810154918060038301541690600581600485015416930154169260405196879687612969565b346102d45760203660031901126102d457600435600052610260602052604060002060018060a01b036102d081835416916001840154936002810154918060038301541690600581600485015416930154169260405196879687612969565b346102d45760003660031901126102d457610c55612f5f565b60ca54601081901c6001600160a01b03163303610cc05760ff811615610cae576101009061ff0019161760ca557f62e78cea01bee320cd4e420270b5ea74000d11b0c9f74754ebdbfc544b05a2586020604051338152a1005b60405163866099c360e01b8152600490fd5b604051631d77d47760e21b8152600490fd5b60c03660031901126102d457610ce6612f5f565b610cfd600080516020614b118339815191526145f0565b610d0d61031460036101f76128fd565b61025d805460405191610d21604084612915565b60038352602083019260018060f81b03431684528260005261026860205260406000209051600a8110156103ba5760ff6020958119905160081b169116179055816000526102608352610d7960046040600020614826565b604051828152600384820152600080516020614af183398151915260403392a26103b081546145cb565b346102d45760203660031901126102d45760043560005261026860205260406000205460ff81169060405190600a8310156103ba57604092825260081c6020820152f35b346102d45760003660031901126102d457602061025d54604051908152f35b346102d45760203660031901126102d457600435600052610264602052604060002060018060a01b036102d08183541691600184015493600281015491600382015481600484015416916006816005860154169401541693604051978897886128ba565b60e03660031901126102d457610e7e612f5f565b610e95600080516020614b118339815191526145f0565b610ea561031460076101f76128fd565b61025d805460405191610eb9604084612915565b60078352602083019260018060f81b03431684528260005261026860205260406000209051600a8110156103ba5760ff6020958119905160081b169116179055816000526102658352610f1160046040600020614891565b604051828152600784820152600080516020614af183398151915260403392a26103b081546145cb565b346102d45760003660031901126102d457610f54612eec565b60ca805460ff19166001179055005b346102d45760003660031901126102d457602061025e5461025d5414604051908152f35b346102d45760203660031901126102d4576001600160801b0360043581811681036102d457610fb4612eec565b610269805490921660809190911b6001600160801b031916179055005b346102d45760003660031901126102d457602060ff60ca5460081c166040519015158152f35b346102d45760203660031901126102d457600435600052610266602052604060002060018060a01b036102d08183541691600184015493600281015491600382015481600484015416916006816005860154169401541693604051978897886128ba565b346102d45760003660031901126102d4577f00000000000000000000000000000000000000000000000000000000000000006001600160a01b031630036110c65760206040517f360894a13ba1a3210667c828492db98dca3e2076cc3735a920a3ca505d382bbc8152f35b60405162461bcd60e51b815260206004820152603860248201527f555550535570677261646561626c653a206d757374206e6f742062652063616c60448201527f6c6564207468726f7567682064656c656761746563616c6c00000000000000006064820152608490fd5b346102d45760003660031901126102d45761114a612eec565b60ca805460ff19169055005b60403660031901126102d4576001600160a01b0360043581811681036102d45760243567ffffffffffffffff81116102d457366023820112156102d4578060040135916111a28361294d565b916111b06040519384612915565b83835236602485830101116102d457610019946000602086600197602461123396018389013786010152807f0000000000000000000000000000000000000000000000000000000000000000169061120a82301415612a22565b7f360894a13ba1a3210667c828492db98dca3e2076cc3735a920a3ca505d382bbc541614612a83565b61123b612eec565b612ae4565b346102d45760203660031901126102d4576004356001600160a01b03811690036102d45761126c612f5f565b600261022a5414611eee57600261022a5561025e54600061025d5461026954908160801c8401808210600014611ee35750909291925b8183106112fe575b505061025e55806112be575b600161022a55005b4781116112f7575b6000808080936004355af16112d9612dbf565b50156112e557806112b6565b604051638f58940960e01b8152600490fd5b50476112c6565b909160009060009181600052610268602052604060002060405190611324604083612915565b5461133260ff821683612fe0565b60081c8060208301526001600160801b0386164303106000146113b7575060009250829050805b6113a1575b1561139a5780600191337fb207e6b6b26274f3764b879e578b4539b8e37f41dff43932ddc87b3e04090974600080a301930191909291926112a2565b92506112aa565b816000526102686020526000604081205561135e565b8051600a8110156103ba5760010361168657505080915060005261025f6020526113e46040600020612fec565b61025c80546040805163235e81cf60e01b81528451600482015260208501516024820152908401516001600160a01b0390811660448301526060850151811660648301526080850151811660848301529091600091168260a48160c09485945af1600092839282611651575b50506115d5575050611460612dbf565b6114698161309b565b906001600160e01b03198216630b63f1a760e01b81036115705750506114a5600080516020614ab1833981519152916040519182918783613108565b0390a15b5460408201516020909201516001600160a01b039182169290911690823b156102d4576040516358f32de960e01b81526001600160a01b039290921660048301526024820152906000908290604490829084905af1801561156457611553575b505b8060005261025f60205261153b604060002060046000918281558260018201558260028201558260038201550155565b6001908161154c60016101f76128fd565b5492611359565b600061155e91612915565b84611509565b6040513d6000823e3d90fd5b637912120160e01b036115a6575061159e600080516020614ab18339815191529160405191829187836130cc565b0390a16114a9565b600080516020614ad1833981519152915061159e90604051918291878352604060208401526040830190612eaf565b7f5090a820029acae4d47b64da9af62ce04a5a1bdb546934e5fcfe091ee1f780ee91925060018060a01b036040850151169261164986606060018060a01b03818901511697805194805192602082015190604083015192015192608060018060a01b0391015116936040519889988961314d565b0390a361150b565b80919294506116759350903d1061167f575b61166d8183612915565b810190613078565b9290508980611450565b503d611663565b8051600a8110156103ba5760020361198f5750508091506000526102616020526116b36040600020612fec565b61025c80546040805163bfe4262160e01b81528451600482015260208501516024820152908401516001600160a01b0390811660448301526060850151811660648301526080850151811660848301529091600091168260a48160c09485945af160009283928261196a575b50506118ee57505061172f612dbf565b6117388161309b565b6001600160e01b031981169163a5db715d60e01b830361185757505060a0600080516020614ab183398151915291604051908682526020820152601960608060408401528201527f496e73756666696369656e7420746320746f2072656465656d000000000000006080820152a15b54604082015191516001600160a01b039182169290911690823b156102d4576040516353b16d1760e01b81526001600160a01b039290921660048301526024820152906000908290604490829084905af1801561156457611846575b505b80600052610261602052611835604060002060046000918281558260018201558260028201558260038201550155565b6001908161154c60026101f76128fd565b600061185191612915565b84611803565b90916354cde31360e01b8103611891575050611889600080516020614ab183398151915291604051918291878361318c565b0390a16117a7565b637912120160e01b036118bf5750611889600080516020614ab18339815191529160405191829187836130cc565b600080516020614ad1833981519152915061188990604051918291878352604060208401526040830190612eaf565b7f7e7043742f69701e6292386d468d710f2d6e44bf93232a1e52f1641e50a9de1291925060018060a01b036040850151169261196286606060018060a01b03818901511697805194805192602082015190604083015192015192608060018060a01b0391015116936040519889988961314d565b0390a3611805565b80919294506119859350903d1061167f5761166d8183612915565b929050898061171f565b8051600a8110156103ba576003036119bd57505090506119ae816132d2565b908161154c60036101f76128fd565b8051600a8110156103ba576004036119eb57505090506119dc816135db565b908161154c60046101f76128fd565b8051600a8110156103ba57600503611a195750509050611a0a8161384a565b908161154c60056101f76128fd565b8051600a8110156103ba57600603611a475750509050611a3881613bde565b908161154c60066101f76128fd565b8051600a8110156103ba57600703611a755750509050611a6681613fac565b908161154c60076101f76128fd565b8051600a8110156103ba57600803611aa35750509050611a948161428e565b908161154c60086101f76128fd565b51600a8110156103ba57600914611abb575b80611359565b5080915060005261026760205260006040812060405190611ade61010083612915565b80546001600160a01b039081168352600182015481166020840190815260028301546040808601918252600385015460608701908152600480870154608089019081526005880154871660a08a019081526006890154881660c08b01908152600790990154881660e0808c0191825261025c54965163391bf6cf60e01b81528c518b169581019590955297518916602485015295516044840152925160648301525160848201529051851660a48201529451841660c48601529051831660e48501529294909285926101049284929091165af19182600091600094611eac575b50611df657509050611bce612dbf565b611bd78161309b565b906001600160e01b03198216630b63f1a760e01b8103611d61575050611c13600080516020614ab1833981519152916040519182918683613108565b0390a15b61025c5460a0820151825160408401516001600160a01b039182169392821692909116803b156102d457604051630e2c5e9960e41b81526001600160a01b03938416600482015293909216602484015260448301526000908290606490829084905af1801561156457611d50575b5061025c5460a08201516080909201516001600160a01b039182169290911690823b156102d4576040516358f32de960e01b81526001600160a01b039290921660048301526024820152906000908290604490829084905af1801561156457611d3f575b505b806000526102676020526000600760408220828155826001820155826002820155826003820155826004820155826005820155826006820155015560019081611d3760096101f76128fd565b549250611ab5565b6000611d4a91612915565b84611ce9565b6000611d5b91612915565b85611c85565b63272e3f5960e21b8103611d99575050611d91600080516020614ab1833981519152916040519182918683613f5f565b0390a1611c17565b637912120160e01b03611dc75750611d91600080516020614ab18339815191529160405191829186836130cc565b600080516020614ad18339815191529150611d9190604051918291868352604060208401526040830190612eaf565b7ff86f4487d2c5541b78f06d2368e28e0f4052e182124def54d5855bf2a01d325861012060018060a01b038451169260018060a01b036020860151169060018060a01b0360a0870151169560018060a01b0360c082015116976040820151928151602083015191606060408501519401519460e060018060a01b039101511695604051978852602088015260408701526060860152608085015260a084015260c083015260e082015286610100820152a4611ceb565b909350611ed1915060e03d60e011611edc575b611ec98183612915565b810190613826565b925050909288611bbe565b503d611ebf565b9050909291926112a2565b60405162461bcd60e51b815260206004820152601f60248201527f5265656e7472616e637947756172643a207265656e7472616e742063616c6c006044820152606490fd5b346102d45760203660031901126102d457600435600a8110156102d457611f5e6020916101f76128fd565b54604051908152f35b346102d4576101203660031901126102d457611f81612eec565b6101f7600435611f926001836128fd565b55602435611fa16002836128fd565b55604435611fb06003836128fd565b55606435611fbf6004836128fd565b55608435611fce6009836128fd565b5560a435611fdd6008836128fd565b5560c435611fec6007836128fd565b5560e435611ffb6006836128fd565b5561200b600561010435926128fd565b55005b60c03660031901126102d457612022612f5f565b612039600080516020614b118339815191526145f0565b61204961031460056101f76128fd565b61025d80546040519161205d604084612915565b60058352602083019260018060f81b03431684528260005261026860205260406000209051600a8110156103ba5760ff6020958119905160081b1691161790558160005261026383526120b560046040600020614826565b604051828152600584820152600080516020614af183398151915260403392a26103b081546145cb565b346102d45760203660031901126102d457600435600052610267602052610100604060002060018060a01b03808254169181600182015416916002820154600383015460048401549183600586015416936007816006880154169601541695604051978852602088015260408701526060860152608085015260a084015260c083015260e0820152f35b346102d45760003660031901126102d45760ca5460ff8160081c161561224c5760018060a01b03808260101c1633141590816121e2575b50610cc05760ff811615610cae5761ff00191660ca557f5db9ee0a495bf2e6ff9c91a7834c1ba4fdd244a5e8aa4e537bd38aeae4b073aa6020604051338152a1005b60975460405163d994d6d560e01b8152336004820152925060209183916024918391165afa9081156115645760009161221e575b5015826121a0565b61223f915060203d8111612245575b6122378183612915565b810190612ed4565b82612216565b503d61222d565b604051637c7fd07960e01b8152600490fd5b346102d45760003660031901126102d4576020612279614907565b6040519015158152f35b346102d45760203660031901126102d4576004356001600160801b0381168091036102d4576122b0612eec565b61026980546001600160801b0319169091179055005b346102d45760203660031901126102d4576004356001600160a01b0380821682036102d45761001991612325826000937f0000000000000000000000000000000000000000000000000000000000000000169061120a82301415612a22565b61232d612eec565b6123368261294d565b906123446040519283612915565b828252601f196123538461294d565b01366020840137612ae4565b346102d45760403660031901126102d4576024356001600160a01b0381168082036102d457330361239657610019906004356129a3565b60405162461bcd60e51b815260206004820152602f60248201527f416363657373436f6e74726f6c3a2063616e206f6e6c792072656e6f756e636560448201526e103937b632b9903337b91039b2b63360891b6064820152608490fd5b6101003660031901126102d457612408612f5f565b61241f600080516020614b118339815191526145f0565b61242f61031460096101f76128fd565b61025d8054604051612442604082612915565b600981526020810160018060f81b0343168152826000526102686020526040600020915190600a8210156103ba575160ff9190911660089190911b60ff19161790556000818152610267602052604090206001600160a01b036004358181169492908590036102d4576001600160601b0360a01b9485825416178155600181016024358381168091036102d457868254161790556044356002820155606435600382015560843560048201556005810160a4358381168091036102d45786825416179055600681019060c435918383168093036102d45760079287825416179055019060e4359081168091036102d457602094825416179055604051828152600984820152600080516020614af183398151915260403392a26103b081546145cb565b346102d45760403660031901126102d4576004356024356001600160a01b03811681036102d45781612599610019936149f8565b61496c565b346102d45760203660031901126102d4576004356001600160a01b03811681036102d4576125ca612eec565b60ca805462010000600160b01b03191660109290921b62010000600160b01b0316919091179055005b346102d45760003660031901126102d457602061025e54604051908152f35b346102d45760203660031901126102d4576004356000526101936020526020600160406000200154604051908152f35b346102d45760403660031901126102d457600435600a8110156102d45761266b906101f76128fd565b54602435811161268057602090604051908152f35b6024906040519063049e6f6960e41b82526004820152fd5b346102d45760203660031901126102d45760048035600090815261025f6020908152604091829020805460018201546002830154600384015493909601548551928352938201526001600160a01b03948516938101939093528316606083015291909116608082015260a090f35b346102d45760203660031901126102d457600435600052610265602052604060002060018060a01b036102d08183541691600184015493600281015491600382015481600484015416916006816005860154169401541693604051978897886128ba565b346102d45760003660031901126102d4576097546040516001600160a01b039091168152602090f35b346102d45760203660031901126102d45760043563ffffffff60e01b81168091036102d457602090637965db0b60e01b81149081156127d8575b506040519015158152f35b6301ffc9a760e01b149050826127cd565b60e03660031901126102d4576127fd612f5f565b612814600080516020614b118339815191526145f0565b61282461031460086101f76128fd565b61025d805460405191612838604084612915565b60088352602083019260018060f81b03431684528260005261026860205260406000209051600a8110156103ba5760ff6020958119905160081b16911617905581600052610266835261289060046040600020614891565b604051828152600884820152600080516020614af183398151915260403392a26103b081546145cb565b6001600160a01b039182168152602081019290925260408201929092526060810192909252918216608082015291811660a083015290911660c082015260e00190565b90600a8110156103ba57600052602052604060002090565b90601f8019910116810190811067ffffffffffffffff82111761293757604052565b634e487b7160e01b600052604160045260246000fd5b67ffffffffffffffff811161293757601f01601f191660200190565b6001600160a01b0391821681526020810192909252604082019290925291811660608301529182166080820152911660a082015260c00190565b9060009180835261019380602052604084209260018060a01b03169283855260205260ff6040852054166129d8575b50505050565b818452602052604083208284526020526040832060ff1981541690557ff6391f5c32d9c69d2a47ea670b442974b53935d1edc7fd64eb21e047a839171b339380a4388080806129d2565b15612a2957565b60405162461bcd60e51b815260206004820152602c60248201527f46756e6374696f6e206d7573742062652063616c6c6564207468726f7567682060448201526b19195b1959d85d1958d85b1b60a21b6064820152608490fd5b15612a8a57565b60405162461bcd60e51b815260206004820152602c60248201527f46756e6374696f6e206d7573742062652063616c6c6564207468726f7567682060448201526b6163746976652070726f787960a01b6064820152608490fd5b9060ff7f4910fdfa16fed3260ed0e7147f7cc6da11a60208b5b9406d12a635614ffd91435416600014612b1e5750612b1c9150612d1d565b565b6040516352d1902d60e01b8152602093919291906001600160a01b038316908581600481855afa60009181612ceb575b50612baf5760405162461bcd60e51b815260048101879052602e60248201527f45524331393637557067726164653a206e657720696d706c656d656e7461746960448201526d6f6e206973206e6f74205555505360901b6064820152608490fd5b9394937fc9f76b5ec45e5cdef99837d7b6d2467235c1df8933c8ca56df5c35afa2c7d44401612c9457612be183612d1d565b7fbc7cd75a20ee27fd9adebab32041f755214dbc6bffa90cc0225b39da2e5c2d3b600080a283511590811591612c8c575b50612c1c57505050565b600080612c8994612c2d602761294d565b94612c3b6040519687612915565b602786527f416464726573733a206c6f772d6c6576656c2064656c65676174652063616c6c81870152660819985a5b195960ca1b604087015281519101845af4612c83612dbf565b91612def565b50565b905038612c12565b60405162461bcd60e51b815260048101859052602960248201527f45524331393637557067726164653a20756e737570706f727465642070726f786044820152681a58589b195555525160ba1b6064820152608490fd5b90918782813d8311612d16575b612d028183612915565b81010312612d135750519038612b4e565b80fd5b503d612cf8565b803b15612d64577f360894a13ba1a3210667c828492db98dca3e2076cc3735a920a3ca505d382bbc80546001600160a01b0319166001600160a01b03909216919091179055565b60405162461bcd60e51b815260206004820152602d60248201527f455243313936373a206e657720696d706c656d656e746174696f6e206973206e60448201526c1bdd08184818dbdb9d1c9858dd609a1b6064820152608490fd5b3d15612dea573d90612dd08261294d565b91612dde6040519384612915565b82523d6000602084013e565b606090565b91929015612e515750815115612e03575090565b3b15612e0c5790565b60405162461bcd60e51b815260206004820152601d60248201527f416464726573733a2063616c6c20746f206e6f6e2d636f6e74726163740000006044820152606490fd5b825190915015612e645750805190602001fd5b60405162461bcd60e51b815260206004820152908190612e88906024830190612eaf565b0390fd5b60005b838110612e9f5750506000910152565b8181015183820152602001612e8f565b90602091612ec881518092818552858086019101612e8c565b601f01601f1916010190565b908160209103126102d4575180151581036102d45790565b60975460405163d994d6d560e01b815233600482015290602090829060249082906001600160a01b03165afa90811561156457600091612f41575b5015612f2f57565b604051631dd1b1b560e21b8152600490fd5b612f59915060203d8111612245576122378183612915565b38612f27565b60ff60ca5460081c16612f6e57565b60405163783bb6c960e11b8152600490fd5b15612f8757565b60405162461bcd60e51b815260206004820152602b60248201527f496e697469616c697a61626c653a20636f6e7472616374206973206e6f74206960448201526a6e697469616c697a696e6760a81b6064820152608490fd5b600a8210156103ba5752565b90604051612ffb60a082612915565b825481526001830154602082015260028301546001600160a01b0390811660408301526003840154811660608301526004909301549092166080830152565b91908260809103126102d457604051613054608082612915565b60608082948051845260208101516020850152604081015160408501520151910152565b909160c0828403126102d45761309882519360406020850151940161303a565b90565b906020825192015163ffffffff60e01b9081811693600481106130bd57505050565b60040360031b82901b16169150565b909160a092825263ffffffff60e01b16602082015260606040820152600c60608201526b4c6f7720636f76657261676560a01b60808201520190565b909160a092825263ffffffff60e01b166020820152606060408201526015606082015274125b9cdd59999a58da595b9d081c5858c81cd95b9d605a1b60808201520190565b94919260e0969399989794919961010087019a8752602087015260408601526060850152608084015260a083015260018060a01b031660c08201520152565b909160a092825263ffffffff60e01b16602082015260606040820152601a60608201527f7141432062656c6f77206d696e696d756d20726571756972656400000000000060808201520190565b906040516131e860c082612915565b82546001600160a01b039081168252600184015460208301526002840154604083015260038401548116606083015260048401548116608083015260059093015490921660a0830152565b60a09081600180821b03918281511685526020810151602086015260408101516040860152826060820151166060860152826080820151166080860152015116910152565b909160c092825263ffffffff60e01b16602082015260606040820152602460608201527f4d617820666c757820636170616369746f72206f7065726174696f6e2072656160808201526318da195960e21b60a08201520190565b9060008281526102609260209084825260406132ef8185206131d9565b61025c80548351635a21a61960e11b81526001600160a01b039992969160c090829060c49082908c908f16613327600484018b613233565b5af1908189918a936135b7575b5061353e575050613343612dbf565b9861334d8a61309b565b966001600160e01b031988166306da41e560e11b810361339457505050505050600080516020614ab18339815191529394955061338e905192839283613278565b0390a190565b869998839598969c63c39b739f60e09996991b83146000146134ad57505060a0600080516020614ab18339815191529185519088825289820152606086820152601760608201527f496e73756666696369656e7420747020746f206d696e740000000000000000006080820152a15b54169160608a01511698015197813b156134a95786516358f32de960e01b81526001600160a01b039091166004820152602481019890985284908890818381604481015b03925af196871561349f57613486969761348b575b505b8352522060056000918281558260018201558260028201558260038201558260048201550155565b600190565b8461349891959295612915565b923861345c565b85513d86823e3d90fd5b8580fd5b9091630b63f1a760e01b81036134e65750506134de600080516020614ab18339815191529185519182918983613108565b0390a1613403565b637912120160e01b0361351357506134de600080516020614ab183398151915291855191829189836130cc565b600080516020614ad183398151915291506134de908551918291898352878b84015287830190612eaf565b8492959897507f125247fdf990b9b419d4b4f895b1bb75bc485e3f8b813cf5557a4a12a56d054d908b6134869b9c939598965116926135af878c836060890151169784608082015116998c820151958d8251908301519160a06060878601519501519501511694519889988961314d565b0390a461345e565b9092506135d2915060c03d811161167f5761166d8183612915565b92905038613334565b90600082815261026260209381855260406135f78185206131d9565b61025c8054835163ad4e666d60e01b81526001600160a01b03999296939160c090829060c49082908c908f166136306004840189613233565b5af1908189918a93613802575b5061379157505061364c612dbf565b956136568761309b565b966001600160e01b031988166306da41e560e11b810361369757505050505050600080516020614ab18339815191529394955061338e905192839283613278565b908b9394969998916354cde31360e09997991b81146000146137315750506136d4600080516020614ab1833981519152918a51918291888361318c565b0390a15b54169083896060830151169982511691015198823b1561372d578751630e2c5e9960e41b81526001600160a01b0391821660048201529116602482015260448101989098528490889081838160648101613447565b8680fd5b637912120160e01b03613766575061375e600080516020614ab1833981519152918a5191829188836130cc565b0390a16136d8565b600080516020614ad1833981519152915061375e908a519182918883528c8a8401528c830190612eaf565b8a9193959897507f625b9fc283a619f53beb817d79b8ab044d60e307fd2af4bb89fa5e9a24ce4ebc906134869a9b849896985116926135af878c836060890151169784608082015116998c820151958d8251908301519160a06060878601519501519501511694519889988961314d565b90925061381d915060c03d811161167f5761166d8183612915565b9290503861363d565b60e0818303126102d45780519261309860208301519360606040850151940161303a565b906000828152610263806020526040936138658584206131d9565b9460018060a01b039561025c938560e08987541660c486518094819363883d21cb861b8352613897600484018a613233565b5af187918291829181613ac1575b50613a46575050506138b5612dbf565b976138bf8961309b565b956001600160e01b031987166306da41e560e11b81036138ff575050505050600080516020614ab18339815191529394955061338e905192839283613278565b9682949a869998630b63f1a760e0999896991b81146000146139e557505061393c600080516020614ab18339815191529185519182918983613108565b0390a15b54169160608901511697015196813b156139e15785516358f32de960e01b81526001600160a01b03919091166004820152602481019790975283908790604490829084905af19586156139d75761348695966139c3575b505b82526020522060056000918281558260018201558260028201558260038201558260048201550155565b836139d091949294612915565b9138613997565b84513d85823e3d90fd5b8480fd5b637912120160e01b03613a1a5750613a12600080516020614ab183398151915291855191829189836130cc565b0390a1613940565b600080516020614ad18339815191529150613a1290855191829189835287602084015287830190612eaf565b85989750907f03e9e02a94d7486426fcf2b05a27e911b8d1b61e2e1dcf103785512f46c8476491613ab98887959699988e6134869e9f9951169689606082015116988a6080830151169a60208301519782519060208401519260a0606088870151960151960151169551998a998a613ae6565b0390a4613999565b91509250613add915060e03d8111611edc57611ec98183612915565b939050386138a5565b95926101009794919a9998959261012088019b8852602088015260408701526060860152608085015260a084015260c083015260018060a01b031660e08201520152565b90604051613b3960e082612915565b82546001600160a01b0390811682526001840154602083015260028401546040830152600384015460608301526004840154811660808301526005840154811660a083015260069093015490921660c0830152565b60c0908160018060a01b03918281511685526020810151602086015260408101516040860152606081015160608601528260808201511660808601528260a08201511660a0860152015116910152565b906000828152610264602090808252604090613bfb828520613b2a565b61025c80548451633631a6bb60e21b81526001600160a01b039693929160e090829060e49082908c908c16613c33600484018a613b8e565b5af19088828a928b94613f37575b50613ebd57505050613c51612dbf565b95613c5b8761309b565b966001600160e01b03198816906306da41e560e11b8203613c9d57505050505050509361338e600080516020614ab18339815191529394955192839283613278565b637a031da360e19a99929394959697989a1b8314600014613e2c57505060a0600080516020614ab1833981519152918951908c82528782015260608a8201526014606082015273125b9cdd59999a58da595b9d081d1c081cd95b9d60621b6080820152a15b808254169160808401928284511690838651168a87015192823b15613e28578b51630e2c5e9960e41b81526001600160a01b03918216600482015291166024820152604481019290925288908290606490829084905af18015613e1e57613e06575b5090808592541692511692015191813b156134a95786516353b16d1760e01b81526001600160a01b039091166004820152602481019290925284908290818381604481015b03925af1801561349f57613ded575b5061348694955b8352522060066000918281558260018201558260028201558260038201558260048201558260058201550155565b613df8848092612915565b613e025738613db8565b8280fd5b9187613e158293998895612915565b97919250613d64565b89513d8a823e3d90fd5b8a80fd5b90916354cde31360e01b8103613e65575050613e5d600080516020614ab18339815191529189519182918d8361318c565b0390a1613d02565b637912120160e01b03613e925750613e5d600080516020614ab18339815191529189519182918d836130cc565b600080516020614ad18339815191529150613e5d9089519182918d83528b898401528b830190612eaf565b84929350907f4d33a2f9c4f66a101333f7ca2ab718582e763c941ff6fc304d2d4408d43a828491613f2f8d8a6134869e9f999a9b9d9c809951169689608082015116988a60a0830151169a8d80840151978351918401519260c0606088870151960151960151169551998a998a613ae6565b0390a4613dbf565b91509250613f53915060e03d8111611edc57611ec98183612915565b92905090919238613c41565b909160a092825263ffffffff60e01b16602082015260606040820152601a60608201527f7154702062656c6f77206d696e696d756d20726571756972656400000000000060808201520190565b906000828152610265602090808252604090613fc9828520613b2a565b61025c805484516312bce9bf60e21b81526001600160a01b039693929160e090829060e49082908c908c16614001600484018a613b8e565b5af1908189918a93614268575b506141f757505061401d612dbf565b956140278761309b565b966001600160e01b031988166306da41e560e11b810361406857505050505050509361338e600080516020614ab18339815191529394955192839283613278565b630b63f1a760e09a999394959697989a1b81146000146141685750506140a3600080516020614ab18339815191529189519182918d83613108565b0390a15b8082541691608084019282845116908686015191813b15614164578a516353b16d1760e01b81526001600160a01b039091166004820152602481019290925288908290818381604481015b03925af18015613e1e5761414b575b509080606092541692511692015191813b156134a95786516358f32de960e01b81526001600160a01b03909116600482015260248101929092528490829081838160448101613da9565b918761415b829399606095612915565b97919250614101565b8980fd5b63272e3f5960e21b810361419f575050614197600080516020614ab18339815191529189519182918d83613f5f565b0390a16140a7565b637912120160e01b036141cc5750614197600080516020614ab18339815191529189519182918d836130cc565b600080516020614ad183398151915291506141979089519182918d83528b898401528b830190612eaf565b8392507ff8dcb57698d7067da58ab71c48cd2e3b329b69e7e9853f88630c2c69c2557c7890886134869b9c9697989a999395511692613f2f878c83608089015116978460a082015116998c820151958d8251908301519160c06060878601519501519501511694519889988961314d565b909250614283915060e03d8111611edc57611ec98183612915565b92505090913861400e565b9060008281526102666020908082526040906142ab828520613b2a565b61025c80548451635e272ad960e11b81526001600160a01b039693929160e090829060e49082908c908c166142e3600484018a613b8e565b5af1908189918a9361451e575b506144ad5750506142ff612dbf565b956143098761309b565b966001600160e01b03198816906306da41e560e11b820361434b57505050505050509361338e600080516020614ab18339815191529394955192839283613278565b630b63f1a760e09a99929394959697989a1b83146000146143e65750600080516020614ab183398151915291506143889089519182918d83613108565b0390a15b808254169160808401928284511690838651168787015192823b15613e28578b51630e2c5e9960e41b81526001600160a01b03918216600482015291166024820152604481019290925288908290818381606481016140f2565b63f577bef560e01b830361444b57505060a0600080516020614ab1833981519152918951908c82528782015260608a820152601a60608201527f7154632062656c6f77206d696e696d756d2072657175697265640000000000006080820152a161438c565b9091637912120160e01b03614482575061447a600080516020614ab18339815191529189519182918d836130cc565b0390a161438c565b600080516020614ad1833981519152915061447a9089519182918d83528b898401528b830190612eaf565b8392507f8ab42044ce8b230e021e5542eb53688d77443e50ee84cda7917f6bdd833c697f90886134869b9c9697989a999395511692613f2f878c83608089015116978460a082015116998c820151958d8251908301519160c06060878601519501519501511694519889988961314d565b909250614539915060e03d8111611edc57611ec98183612915565b9250509091386142f0565b356001600160a01b03811681036102d45790565b813581556020820135600182015560028101906001600160a01b03906145c1906080906004908461458b60408901614544565b16956001600160601b0360a01b968782541617905560038101856145b160608a01614544565b1687825416179055019401614544565b1690825416179055565b60001981146145da5760010190565b634e487b7160e01b600052601160045260246000fd5b8060005260206101938152604060002033600052815260ff6040600020541615614618575050565b6146ae60486146328361462c6014336146cf565b956146cf565b936040519485917f416363657373436f6e74726f6c3a206163636f756e7420000000000000000000868401526146718151809288603787019101612e8c565b82017001034b99036b4b9b9b4b733903937b6329607d1b603782015261469f82518093888785019101612e8c565b01036028810185520183612915565b612e8860405192839262461bcd60e51b845260048401526024830190612eaf565b60019180831b91906001600160ff1b038116036145da5760028201928383116145da576147146146fe8561294d565b9461470c6040519687612915565b80865261294d565b6020939085850190601f19013682378551156148105760309053845182101561481057607860218601538181018091116145da57905b80821161479e57505061475b575090565b6064906040519062461bcd60e51b825280600483015260248201527f537472696e67733a20686578206c656e67746820696e73756666696369656e746044820152fd5b9091600f811660108110156147fb5785518410156147fb576f181899199a1a9b1b9c1cb0b131b232b360811b901a85840185015360041c9180156147e657600019019061474a565b60246000634e487b7160e01b81526011600452fd5b60246000634e487b7160e01b81526032600452fd5b634e487b7160e01b600052603260045260246000fd5b6001600160a01b036145c160a060058361483f87614544565b16946001600160601b03831b95868254161781556020870135600182015560408701356002820155600381018561487860608a01614544565b168782541617905560048101856145b160808a01614544565b6001600160a01b036145c160c06006836148aa87614544565b16946001600160601b0360a01b958682541617815560208701356001820155604087013560028201556060870135600382015560048101856148ee60808a01614544565b168782541617905560058101856145b160a08a01614544565b61025e5461025d548114614966576000526102686020526020604060002060405190614934604083612915565b5461494260ff821683612fe0565b60081c91829101526001600160801b0361026954164303904382116145da57111590565b50600090565b9060009180835261019380602052604084209260018060a01b03169283855260205260ff604085205416156149a15750505050565b8184526020526040832082845260205260408320600160ff198254161790557f2f8788117e7eff1d82e926ec794901d17c78024a50270940304540a733656f0d339380a4388080806129d2565b3481036126805750565b6097546040805163d994d6d560e01b8152336004820152909291602090829060249082906001600160a01b03165afa908115614aa557600091614a87575b50159081614a57575b50614a475750565b51631dd1b1b560e21b8152600490fd5b90506000526101936020526001816000200154600052806000203360005260205260ff8160002054161538614a3f565b614a9f915060203d8111612245576122378183612915565b38614a36565b83513d6000823e3d90fdfe5bbebb64d62396f99cae4b3b78d9386cb0f2893aab6a69f27eb61f8e7c29775e3ea497186958ec638834f65ec5a571c2b2e877e5d59a76804ec0448fac7829babfa5d40ab595fa613b17566ea5e38a5cac79a71f09ce1435246db2e6805816c27d5e686862ec2250829eb6dee4a7cb0834865072f135485c874d3bbbe39bdfdba26469706673582212203696c1b07c3b5d5ad1a082bc550700afec44999b5595602954f484dc0e08b6bb64736f6c6343000814003360a080604052346100dc57306080526000549060ff8260081c1661008a575060ff8082160361004f575b6040516121ac90816100e28239608051818181610c9a01528181610db50152610f8c0152f35b60ff90811916176000557f7f26b83ff96e1f2b6a682f133852f6798a09c465da95921460cefb3847402498602060405160ff8152a138610029565b62461bcd60e51b815260206004820152602760248201527f496e697469616c697a61626c653a20636f6e747261637420697320696e697469604482015266616c697a696e6760c81b6064820152608490fd5b600080fdfe60806040908082526004908136101561001757600080fd5b600092833560e01c91826301ffc9a7146113105750816306fdde0314611266578163095ea7b3146112305781630c340a241461120657816318160ddd146111e757816323b872dd14611113578163248a9ca3146110e75781632f2ff15d146110a0578163313ce5671461108457816336568abe14610ff1578382633659cfe614610f5a575081633950935114610f0857816340c10f1914610e185781634f1ef28614610d5957816352d1902d14610c8557816370a0823114610c4a57816383d2230d14610b145781638f15b4141461063c5781639010d07c146105fa57816391d14854146105ae57816395d89b41146104cd5781639dc29fac1461037f578163a217fddf14610364578163a457c2d7146102bb578163a9059cbb1461027b578163ca15c87314610252578163d547741f14610208578163dd62ed3e146101ae575063e4c0aaf41461016757600080fd5b346101aa5760203660031901126101aa57356001600160a01b038116908190036101aa5761019361207a565b61019180546001600160a01b031916909117905580f35b5080fd5b919050346102045781600319360112610204576001600160a01b039035818116908190036102005760243591821680920361020057928291602094825260ca8552828220908252845220549051908152f35b8380fd5b8280fd5b9190503461020457816003193601126102045760243590356001600160a01b03821682036102005761024a600161024f94838752606560205286200154611508565b6115e7565b80f35b919050346102045760203660031901126102045760209282913581526097845220549051908152f35b9190503461020457816003193601126102045735916001600160a01b03831683036102b857506102b16020926024359033611a8e565b5160018152f35b80fd5b8284346102b857826003193601126102b8578135916001600160a01b038316918284036102b85784906024359333825260ca602052828220908252602052205490828210610313576020856102b18585038733611bfe565b608490602086519162461bcd60e51b8352820152602560248201527f45524332303a2064656372656173656420616c6c6f77616e63652062656c6f77604482015264207a65726f60d81b6064820152fd5b8390346101aa57816003193601126101aa5751908152602090f35b8383346101aa57826003193601126101aa5780356001600160a01b038116919082900361020457602435906103d37f3c11d16cbaffd01df69ce1c404f6340ee057498f5f00246190ea54220576a848611508565b82156104805782845260c9602052848420549082821061043257508184957fddf252ad1be2c89b69c2b068fc378daa952ba7f163c4a11628f55a4df523b3ef9360209386885260c9855203818720558160cb540360cb5551908152a380f35b608490602087519162461bcd60e51b8352820152602260248201527f45524332303a206275726e20616d6f756e7420657863656564732062616c616e604482015261636560f01b6064820152fd5b608490602086519162461bcd60e51b8352820152602160248201527f45524332303a206275726e2066726f6d20746865207a65726f206164647265736044820152607360f81b6064820152fd5b8390346101aa57816003193601126101aa578051908260cd546104ef81611a31565b808552916001918083169081156105865750600114610529575b50505061051b826105259403836113cd565b51918291826113a1565b0390f35b945060cd85527f83978b4c69c48dd978ab43fe30f077615294f938fb7f936d9eb340e51ea7db2e5b82861061056e5750505061051b8260206105259582010194610509565b80546020878701810191909152909501948101610551565b61052597508693506020925061051b94915060ff191682840152151560051b82010194610509565b919050346102045781600319360112610204576024356001600160a01b03811691908290036102005760209360ff92849235825260658652828220908252855220541690519015158152f35b919050346102045781600319360112610204576020926106269135815260978452826024359120611ee8565b905491519160018060a01b039160031b1c168152f35b9050346102045760803660031901126102045767ffffffffffffffff918035838111610b105761066f903690830161145d565b92602435818111610b0c57610687903690840161145d565b93604435916001600160a01b03918284168403610b0857606435928316809303610b085787549660ff8860081c161595868097610afb575b8015610ae4575b15610a8a57600198878a60ff198316178c55610a79575b5061070060ff8b5460081c166106f281612116565b6106fb81612116565b612116565b8251848111610a66578061071560cc54611a31565b94601f958681116109f5575b506020908d878411600114610976579261096b575b5050600019600383901b1c1916908a1b1760cc555b8151938411610958575061076060cd54611a31565b8281116108f5575b5060209183116001146108705761082494939291899183610865575b5050600019600383901b1c191690871b1760cd555b6107b660ff885460081c166107ad81612116565b6106f281612116565b61019180546001600160a01b03191690911790556107d4818761147b565b6107fe817f9f2df0fed2c77648de5860a4cc508cd0818c85b8b8a1ab4ceeef8d981c8956a661147b565b7f3c11d16cbaffd01df69ce1c404f6340ee057498f5f00246190ea54220576a84861147b565b61082c578280f35b825461ff0019168355519081527f7f26b83ff96e1f2b6a682f133852f6798a09c465da95921460cefb384740249890602090a138808280f35b015190503880610784565b60cd895293929187917f83978b4c69c48dd978ab43fe30f077615294f938fb7f936d9eb340e51ea7db2e90601f1983168b5b8181106108dd5750968361082498106108c4575b505050811b0160cd55610799565b015160001960f88460031b161c191690553880806108b6565b8289015184558b9590930192602092830192016108a2565b60cd8a527f83978b4c69c48dd978ab43fe30f077615294f938fb7f936d9eb340e51ea7db2e8380860160051c8201926020871061094f575b0160051c019089905b828110610944575050610768565b8b8155018990610936565b9250819261092d565b634e487b7160e01b8a5260419052602489fd5b015190503880610736565b91908d9450601f19841660cc84527f47197230e1e4b29fc0bd84d7d78966c0925452aff72a2a121538b102457e9ebe935b8181106109dd575084116109c4575b505050811b0160cc5561074b565b015160001960f88460031b161c191690553880806109b6565b8284015185558f9690940193602093840193016109a7565b90915060cc8d527f47197230e1e4b29fc0bd84d7d78966c0925452aff72a2a121538b102457e9ebe8680850160051c82019260208610610a5d575b859493910160051c909101908d908f5b838210610a4f57505050610721565b81558594508e91018f610a40565b92508192610a30565b634e487b7160e01b8b526041825260248bfd5b61ffff1916610101178a55386106dd565b608490602089519162461bcd60e51b8352820152602e60248201527f496e697469616c697a61626c653a20636f6e747261637420697320616c72656160448201526d191e481a5b9a5d1a585b1a5e995960921b6064820152fd5b50303b1580156106c65750600160ff8a16146106c6565b50600160ff8a16106106bf565b8780fd5b8580fd5b8480fd5b839150346101aa5760203660031901126101aa5782356001600160a01b0381168103610204578280526065602052610b5160018385200154611508565b828052609760205260018284205403610c33577f9f2df0fed2c77648de5860a4cc508cd0818c85b8b8a1ab4ceeef8d981c8956a693848452609760205260018385205403610c1c577f3c11d16cbaffd01df69ce1c404f6340ee057498f5f00246190ea54220576a84892838552609760205260018186205403610c065784610bfc85610bf589610bf588610be5818861147b565b610bef818461147b565b8461147b565b33906115e7565b61024f33826115e7565b51630e2b37cd60e41b8152908101839052602490fd5b8251630e2b37cd60e41b8152908101859052602490fd5b8151630e2b37cd60e41b8152808501849052602490fd5b9190503461020457602036600319011261020457356001600160a01b03811690819003610204578282916020945260c9845220549051908152f35b8284346102b857806003193601126102b857507f00000000000000000000000000000000000000000000000000000000000000006001600160a01b03163003610cf157602082517f360894a13ba1a3210667c828492db98dca3e2076cc3735a920a3ca505d382bbc8152f35b6020608492519162461bcd60e51b8352820152603860248201527f555550535570677261646561626c653a206d757374206e6f742062652063616c60448201527f6c6564207468726f7567682064656c656761746563616c6c00000000000000006064820152fd5b36600319011290506101aa5780356001600160a01b038082168203610200576024359167ffffffffffffffff8311610b105736602384011215610b1057610e0b610db161024f95856024600197369301359101611421565b92807f00000000000000000000000000000000000000000000000000000000000000001690610de28230141561166d565b7f360894a13ba1a3210667c828492db98dca3e2076cc3735a920a3ca505d382bbc5416146116ce565b610e1361207a565b61172f565b905082346102b857816003193601126102b85782356001600160a01b03811691908290036102b857602435610e6c7f9f2df0fed2c77648de5860a4cc508cd0818c85b8b8a1ab4ceeef8d981c8956a6611508565b8215610ec557602080955081610ea57fddf252ad1be2c89b69c2b068fc378daa952ba7f163c4a11628f55a4df523b3ef9360cb54611a6b565b60cb5584845260c982528584208181540190558551908152a35160018152f35b835162461bcd60e51b8152602081870152601f60248201527f45524332303a206d696e7420746f20746865207a65726f2061646472657373006044820152606490fd5b91905034610204578160031936011261020457356001600160a01b0381168082036102005790610f536020946102b19333825260ca8752858220908252865284602435912054611a6b565b9033611bfe565b915091346101aa5760203660031901126101aa576001600160a01b03929035838116810361020457610fb98461024f957f00000000000000000000000000000000000000000000000000000000000000001690610de28230141561166d565b610fc161207a565b610fd6610fcd84611405565b925192836113cd565b828252601f19610fe584611405565b0136602084013761172f565b8383346101aa57826003193601126101aa57602435906001600160a01b038216808303610200573303611029579061024f91356115e7565b608490602085519162461bcd60e51b8352820152602f60248201527f416363657373436f6e74726f6c3a2063616e206f6e6c792072656e6f756e636560448201526e103937b632b9903337b91039b2b63360891b6064820152fd5b8390346101aa57816003193601126101aa576020905160128152f35b9190503461020457816003193601126102045760243590356001600160a01b0382168203610200576110e2600161024f94838752606560205286200154611508565b61147b565b919050346102045760203660031901126102045781602093600192358152606585522001549051908152f35b8383346101aa5760603660031901126101aa5780356001600160a01b03818116939092908483036102b85760243593841684036102b857859060443595815260ca602052818120338252602052205490600019820361117b575b6020866102b1878787611a8e565b8482106111a45750918391611199602096956102b195033383611bfe565b91939481935061116d565b606490602087519162461bcd60e51b8352820152601d60248201527f45524332303a20696e73756666696369656e7420616c6c6f77616e63650000006044820152fd5b8390346101aa57816003193601126101aa5760209060cb549051908152f35b8390346101aa57816003193601126101aa576101915490516001600160a01b039091168152602090f35b9190503461020457816003193601126102045735916001600160a01b03831683036102b857506102b16020926024359033611bfe565b8390346101aa57816003193601126101aa578051908260cc5461128881611a31565b8085529160019180831690811561058657506001146112b35750505061051b826105259403836113cd565b945060cc85527f47197230e1e4b29fc0bd84d7d78966c0925452aff72a2a121538b102457e9ebe5b8286106112f85750505061051b8260206105259582010194610509565b805460208787018101919091529095019481016112db565b84908434610204576020366003190112610204573563ffffffff60e01b81168091036102045760209250635a05180f60e01b8114908115611353575b5015158152f35b637965db0b60e01b81149150811561136d575b508361134c565b6301ffc9a760e01b14905083611366565b60005b8381106113915750506000910152565b8181015183820152602001611381565b604091602082526113c1815180928160208601526020868601910161137e565b601f01601f1916010190565b90601f8019910116810190811067ffffffffffffffff8211176113ef57604052565b634e487b7160e01b600052604160045260246000fd5b67ffffffffffffffff81116113ef57601f01601f191660200190565b92919261142d82611405565b9161143b60405193846113cd565b829481845281830111611458578281602093846000960137010152565b600080fd5b9080601f830112156114585781602061147893359101611421565b90565b9060406114ba9260009080825260656020528282209360018060a01b03169384835260205260ff8383205416156114bd575b8152609760205220611f00565b50565b8082526065602052828220848352602052828220600160ff198254161790553384827f2f8788117e7eff1d82e926ec794901d17c78024a50270940304540a733656f0d8580a46114ad565b80600052602060658152604060002033600052815260ff604060002054161561152f575050565b6115cb60486115e393836115516115bc9561154b601433611d91565b93611d91565b906040519586937f416363657373436f6e74726f6c3a206163636f756e742000000000000000000083860152611590815180928560378901910161137e565b8401917001034b99036b4b9b9b4b733903937b6329607d1b60378401528351938491878501910161137e565b010360288101845201826113cd565b60405162461bcd60e51b8152918291600483016113a1565b0390fd5b9060406114ba9260009080825260656020528282209360018060a01b03169384835260205260ff8383205416611625575b8152609760205220611f8a565b808252606560205282822084835260205282822060ff1981541690553384827ff6391f5c32d9c69d2a47ea670b442974b53935d1edc7fd64eb21e047a839171b8580a4611618565b1561167457565b60405162461bcd60e51b815260206004820152602c60248201527f46756e6374696f6e206d7573742062652063616c6c6564207468726f7567682060448201526b19195b1959d85d1958d85b1b60a21b6064820152608490fd5b156116d557565b60405162461bcd60e51b815260206004820152602c60248201527f46756e6374696f6e206d7573742062652063616c6c6564207468726f7567682060448201526b6163746976652070726f787960a01b6064820152608490fd5b909160ff7f4910fdfa16fed3260ed0e7147f7cc6da11a60208b5b9406d12a635614ffd9143541660001461176a5750611768915061198f565b565b604080516352d1902d60e01b8152602094919392906001600160a01b038416908681600481855afa60009181611960575b506117fb57855162461bcd60e51b815260048101889052602e60248201527f45524331393637557067726164653a206e657720696d706c656d656e7461746960448201526d6f6e206973206e6f74205555505360901b6064820152608490fd5b9395929492937fc9f76b5ec45e5cdef99837d7b6d2467235c1df8933c8ca56df5c35afa2c7d4440161190a576118308661198f565b7fbc7cd75a20ee27fd9adebab32041f755214dbc6bffa90cc0225b39da2e5c2d3b600080a283511590811591611902575b5061186d575b50505050565b6118ee9360008061187e6027611405565b9561188b855197886113cd565b602787527f416464726573733a206c6f772d6c6576656c2064656c65676174652063616c6c86880152660819985a5b195960ca1b858801528581519101845af4913d156118f8573d6118df610fcd82611405565b8152600081943d92013e611d00565b5038808080611867565b5060609250611d00565b905038611861565b825162461bcd60e51b815260048101859052602960248201527f45524331393637557067726164653a20756e737570706f727465642070726f786044820152681a58589b195555525160ba1b6064820152608490fd5b90918882813d8311611988575b61197781836113cd565b810103126102b8575051903861179b565b503d61196d565b803b156119d6577f360894a13ba1a3210667c828492db98dca3e2076cc3735a920a3ca505d382bbc80546001600160a01b0319166001600160a01b03909216919091179055565b60405162461bcd60e51b815260206004820152602d60248201527f455243313936373a206e657720696d706c656d656e746174696f6e206973206e60448201526c1bdd08184818dbdb9d1c9858dd609a1b6064820152608490fd5b90600182811c92168015611a61575b6020831014611a4b57565b634e487b7160e01b600052602260045260246000fd5b91607f1691611a40565b91908201809211611a7857565b634e487b7160e01b600052601160045260246000fd5b6001600160a01b03908116918215611bab5716918215611b5a57600082815260c9602052604081205491808310611b0657604082827fddf252ad1be2c89b69c2b068fc378daa952ba7f163c4a11628f55a4df523b3ef95876020965260c98652038282205586815220818154019055604051908152a3565b60405162461bcd60e51b815260206004820152602660248201527f45524332303a207472616e7366657220616d6f756e7420657863656564732062604482015265616c616e636560d01b6064820152608490fd5b60405162461bcd60e51b815260206004820152602360248201527f45524332303a207472616e7366657220746f20746865207a65726f206164647260448201526265737360e81b6064820152608490fd5b60405162461bcd60e51b815260206004820152602560248201527f45524332303a207472616e736665722066726f6d20746865207a65726f206164604482015264647265737360d81b6064820152608490fd5b6001600160a01b03908116918215611caf5716918215611c5f5760207f8c5be1e5ebec7d5bd14f71427d1e84f3dd0314c0f7b2291e5b200ac8c7c3b925918360005260ca8252604060002085600052825280604060002055604051908152a3565b60405162461bcd60e51b815260206004820152602260248201527f45524332303a20617070726f766520746f20746865207a65726f206164647265604482015261737360f01b6064820152608490fd5b60405162461bcd60e51b8152602060048201526024808201527f45524332303a20617070726f76652066726f6d20746865207a65726f206164646044820152637265737360e01b6064820152608490fd5b91929015611d625750815115611d14575090565b3b15611d1d5790565b60405162461bcd60e51b815260206004820152601d60248201527f416464726573733a2063616c6c20746f206e6f6e2d636f6e74726163740000006044820152606490fd5b825190915015611d755750805190602001fd5b60405162461bcd60e51b81529081906115e390600483016113a1565b60019180831b91906001600160ff1b03811603611a78576002820192838311611a7857611dd6611dc085611405565b94611dce60405196876113cd565b808652611405565b6020939085850190601f1901368237855115611ed257603090538451821015611ed25760786021860153818101809111611a7857905b808211611e60575050611e1d575090565b6064906040519062461bcd60e51b825280600483015260248201527f537472696e67733a20686578206c656e67746820696e73756666696369656e746044820152fd5b9091600f81166010811015611ebd578551841015611ebd576f181899199a1a9b1b9c1cb0b131b232b360811b901a85840185015360041c918015611ea8576000190190611e0c565b60246000634e487b7160e01b81526011600452fd5b60246000634e487b7160e01b81526032600452fd5b634e487b7160e01b600052603260045260246000fd5b8054821015611ed25760005260206000200190600090565b91906001830160009082825280602052604082205415600014611f845784549468010000000000000000861015611f705783611f60611f49886001604098999a01855584611ee8565b819391549060031b91821b91600019901b19161790565b9055549382526020522055600190565b634e487b7160e01b83526041600452602483fd5b50925050565b90600182019060009281845282602052604084205490811515600014612073576000199180830181811161205f5782549084820191821161204b57808203612016575b5050508054801561200257820191611fe58383611ee8565b909182549160031b1b191690555582526020526040812055600190565b634e487b7160e01b86526031600452602486fd5b612036612026611f499386611ee8565b90549060031b1c92839286611ee8565b90558652846020526040862055388080611fcd565b634e487b7160e01b88526011600452602488fd5b634e487b7160e01b87526011600452602487fd5b5050505090565b6101915460405163d994d6d560e01b815233600482015290602090829060249082906001600160a01b03165afa90811561210a576000916120d0575b50156120be57565b604051631dd1b1b560e21b8152600490fd5b6020813d8211612102575b816120e8602093836113cd565b810103126101aa57519081151582036102b85750386120b6565b3d91506120db565b6040513d6000823e3d90fd5b1561211d57565b60405162461bcd60e51b815260206004820152602b60248201527f496e697469616c697a61626c653a20636f6e7472616374206973206e6f74206960448201526a6e697469616c697a696e6760a81b6064820152608490fdfea26469706673582212208c407b9cb91f0db614c06711dbfcd91d7cc366ec294b38681f3a716270747b5a64736f6c6343000814003360a060405234620000495730608052620000186200004e565b620000226200004e565b6040516124029081620000f88239608051818181610ed401528181610ff601526111e20152f35b600080fd5b60005460ff8160081c16620000a25760ff808216036200006b5750565b60ff90811916176000557f7f26b83ff96e1f2b6a682f133852f6798a09c465da95921460cefb3847402498602060405160ff8152a1565b60405162461bcd60e51b815260206004820152602760248201527f496e697469616c697a61626c653a20636f6e747261637420697320696e697469604482015266616c697a696e6760c81b6064820152608490fdfe608080604052600436101561001357600080fd5b60003560e01c90816301ffc9a7146115475750806306fdde03146114b3578063095ea7b3146114815780630c340a241461145757806318160ddd1461143957806323b872dd14611372578063248a9ca3146113435780632f2ff15d146112f9578063313ce567146112dd57806336568abe146112495780633659cfe6146111b0578063395093511461115957806340c10f19146110595780634f1ef28614610f9757806352d1902d14610ec15780635c975abb14610e9d57806370a0823114610e5f57806383d2230d14610caa5780638456cb5914610bf55780638f15b414146106c15780639010d07c1461067a57806391d148541461062857806395d89b411461054a5780639dc29fac14610392578063a217fddf14610376578063a457c2d7146102ca578063a9059cbb1461028d578063ca15c87314610261578063d547741f14610215578063dd62ed3e146101bd5763e4c0aaf41461017457600080fd5b346101b85760203660031901126101b8576004356001600160a01b038116908190036101b8576101a26122ac565b61019180546001600160a01b0319169091179055005b600080fd5b346101b85760403660031901126101b8576001600160a01b03600435818116908190036101b8576024359182168092036101b85760005260ca6020526040600020906000526020526020604060002054604051908152f35b346101b85760403660031901126101b8576004356024356001600160a01b03811681036101b8578161025f92600052606560205261025a600160406000200154611723565b611802565b005b346101b85760203660031901126101b85760043560005260976020526020604060002054604051908152f35b346101b85760403660031901126101b8576004356001600160a01b03811681036101b8576102bf906024359033611cb5565b602060405160018152f35b346101b85760403660031901126101b8576004356001600160a01b038116908181036101b857602435913360005260ca60205260406000209060005260205260406000205491808310610323576102bf92039033611e30565b60405162461bcd60e51b815260206004820152602560248201527f45524332303a2064656372656173656420616c6c6f77616e63652062656c6f77604482015264207a65726f60d81b6064820152608490fd5b346101b85760003660031901126101b857602060405160008152f35b346101b85760403660031901126101b8576004356001600160a01b038116908190036101b857602435906103e57f3c11d16cbaffd01df69ce1c404f6340ee057498f5f00246190ea54220576a848611723565b80156104fb5760ff6101c454166104a3578060005260c960205260406000205491808310610453576020817fddf252ad1be2c89b69c2b068fc378daa952ba7f163c4a11628f55a4df523b3ef9260009585875260c984520360408620558060cb540360cb55604051908152a3005b60405162461bcd60e51b815260206004820152602260248201527f45524332303a206275726e20616d6f756e7420657863656564732062616c616e604482015261636560f01b6064820152608490fd5b60405162461bcd60e51b815260206004820152602a60248201527f45524332305061757361626c653a20746f6b656e207472616e736665722077686044820152691a5b19481c185d5cd95960b21b6064820152608490fd5b60405162461bcd60e51b815260206004820152602160248201527f45524332303a206275726e2066726f6d20746865207a65726f206164647265736044820152607360f81b6064820152608490fd5b346101b85760003660031901126101b857604051600060cd5461056c81611c58565b8084529060019081811690811561060157506001146105a6575b6105a28461059681860382611603565b604051918291826115d7565b0390f35b60cd600090815292507f83978b4c69c48dd978ab43fe30f077615294f938fb7f936d9eb340e51ea7db2e5b8284106105e957505050810160200161059682610586565b805460208587018101919091529093019281016105d1565b60ff191660208087019190915292151560051b850190920192506105969150839050610586565b346101b85760403660031901126101b8576024356001600160a01b038116908190036101b8576004356000526065602052604060002090600052602052602060ff604060002054166040519015158152f35b346101b85760403660031901126101b857600435600052609760205260206106a8602435604060002061211a565b905460405160039290921b1c6001600160a01b03168152f35b346101b85760803660031901126101b85760043567ffffffffffffffff81116101b8576106f2903690600401611678565b60243567ffffffffffffffff81116101b857610712903690600401611678565b906001600160a01b0360443580821690036101b8576064359080821682036101b8576000549260ff8460081c161593848095610be8575b8015610bd1575b15610b755760ff19811660011760005584610b63575b5061078a60ff60005460081c1661077c8161234c565b6107858161234c565b61234c565b80519067ffffffffffffffff8211610a535781906107a960cc54611c58565b601f8111610aec575b50602090601f8311600114610a7457600092610a69575b50508160011b916000199060031b1c19161760cc555b835167ffffffffffffffff8111610a53576107fb60cd54611c58565b601f81116109ee575b50602094601f821160011461096a5794819293949560009261095f575b50508160011b916000199060031b1c19161760cd555b61085560ff60005460081c1661084c8161234c565b61077c8161234c565b61019191166bffffffffffffffffffffffff60a01b82541617905561087d6044356000611696565b6108a96044357f9f2df0fed2c77648de5860a4cc508cd0818c85b8b8a1ab4ceeef8d981c8956a6611696565b6108d56044357f3c11d16cbaffd01df69ce1c404f6340ee057498f5f00246190ea54220576a848611696565b6108ea60ff60005460081c166107858161234c565b6101c4805460ff191690556109216044357f65d7a28e3265b37a6474929f336521b332c1681b933f6cb9f3376673440d862a611696565b61092757005b61ff0019600054166000557f7f26b83ff96e1f2b6a682f133852f6798a09c465da95921460cefb3847402498602060405160018152a1005b015190508580610821565b601f1982169560cd6000527f83978b4c69c48dd978ab43fe30f077615294f938fb7f936d9eb340e51ea7db2e9160005b8881106109d6575083600195969798106109bd575b505050811b0160cd55610837565b015160001960f88460031b161c191690558580806109af565b9192602060018192868501518155019401920161099a565b60cd6000527f83978b4c69c48dd978ab43fe30f077615294f938fb7f936d9eb340e51ea7db2e601f830160051c81019160208410610a49575b601f0160051c01905b818110610a3d5750610804565b60008155600101610a30565b9091508190610a27565b634e487b7160e01b600052604160045260246000fd5b0151905086806107c9565b925060cc6000526000805160206123ad833981519152906000935b601f1984168510610ad1576001945083601f19811610610ab8575b505050811b0160cc556107df565b015160001960f88460031b161c19169055868080610aaa565b81810151835560209485019460019093019290910190610a8f565b90915060cc600052601f830160051c6000805160206123ad833981519152019060208410610b4d575b90601f8493920160051c6000805160206123ad83398151915201905b818110610b3e57506107b2565b60008155849350600101610b31565b6000805160206123ad8339815191529150610b15565b61ffff19166101011760005585610766565b60405162461bcd60e51b815260206004820152602e60248201527f496e697469616c697a61626c653a20636f6e747261637420697320616c72656160448201526d191e481a5b9a5d1a585b1a5e995960921b6064820152608490fd5b50303b1580156107505750600160ff821614610750565b50600160ff821610610749565b346101b85760003660031901126101b857610c2f7f65d7a28e3265b37a6474929f336521b332c1681b933f6cb9f3376673440d862a611723565b6101c4805460ff8116610c725760019060ff19161790557f62e78cea01bee320cd4e420270b5ea74000d11b0c9f74754ebdbfc544b05a2586020604051338152a1005b60405162461bcd60e51b815260206004820152601060248201526f14185d5cd8589b194e881c185d5cd95960821b6044820152606490fd5b346101b8576020806003193601126101b857600435906001600160a01b03821682036101b8576000805260658152600191610ceb8360406000200154611723565b7f65d7a28e3265b37a6474929f336521b332c1681b933f6cb9f3376673440d862a80600052609783528360406000205403610e475780610d2e83610d3593611696565b3390611802565b6000805260658252610d4d8360406000200154611723565b60008052609782528260406000205403610e2e577f9f2df0fed2c77648de5860a4cc508cd0818c85b8b8a1ab4ceeef8d981c8956a69283600052609783528060406000205403610e155760977f3c11d16cbaffd01df69ce1c404f6340ee057498f5f00246190ea54220576a84893846000525260406000205403610dfc57610df192610d2e82610de1610d2e946000611696565b610deb8184611696565b84611696565b61025f336000611802565b604051630e2b37cd60e41b815260048101839052602490fd5b604051630e2b37cd60e41b815260048101859052602490fd5b604051630e2b37cd60e41b815260006004820152602490fd5b60249060405190630e2b37cd60e41b82526004820152fd5b346101b85760203660031901126101b8576004356001600160a01b038116908190036101b85760005260c96020526020604060002054604051908152f35b346101b85760003660031901126101b857602060ff6101c454166040519015158152f35b346101b85760003660031901126101b8577f00000000000000000000000000000000000000000000000000000000000000006001600160a01b03163003610f2c5760206040517f360894a13ba1a3210667c828492db98dca3e2076cc3735a920a3ca505d382bbc8152f35b60405162461bcd60e51b815260206004820152603860248201527f555550535570677261646561626c653a206d757374206e6f742062652063616c60448201527f6c6564207468726f7567682064656c656761746563616c6c00000000000000006064820152608490fd5b60403660031901126101b8576004356001600160a01b0380821682036101b8576024359067ffffffffffffffff82116101b857366023830112156101b85761025f9261104c610ff26001943690602481600401359101611641565b92807f0000000000000000000000000000000000000000000000000000000000000000169061102382301415611888565b7f360894a13ba1a3210667c828492db98dca3e2076cc3735a920a3ca505d382bbc5416146118e9565b6110546122ac565b61194a565b346101b85760403660031901126101b8576004356001600160a01b038116908190036101b8576024356110ab7f9f2df0fed2c77648de5860a4cc508cd0818c85b8b8a1ab4ceeef8d981c8956a6611723565b81156111145760ff6101c454166104a3577fddf252ad1be2c89b69c2b068fc378daa952ba7f163c4a11628f55a4df523b3ef6020826110ee60009460cb54611c92565b60cb5584845260c9825260408420818154019055604051908152a3602060405160018152f35b60405162461bcd60e51b815260206004820152601f60248201527f45524332303a206d696e7420746f20746865207a65726f2061646472657373006044820152606490fd5b346101b85760403660031901126101b8576004356001600160a01b038116908181036101b8576102bf913360005260ca6020526040600020906000526020526111a9602435604060002054611c92565b9033611e30565b346101b85760203660031901126101b8576004356001600160a01b0380821682036101b85761025f9161120f826000937f0000000000000000000000000000000000000000000000000000000000000000169061102382301415611888565b6112176122ac565b61122082611625565b9061122e6040519283611603565b828252601f1961123d84611625565b0136602084013761194a565b346101b85760403660031901126101b8576024356001600160a01b0381168082036101b85733036112805761025f90600435611802565b60405162461bcd60e51b815260206004820152602f60248201527f416363657373436f6e74726f6c3a2063616e206f6e6c792072656e6f756e636560448201526e103937b632b9903337b91039b2b63360891b6064820152608490fd5b346101b85760003660031901126101b857602060405160128152f35b346101b85760403660031901126101b8576004356024356001600160a01b03811681036101b8578161025f92600052606560205261133e600160406000200154611723565b611696565b346101b85760203660031901126101b85760043560005260656020526020600160406000200154604051908152f35b346101b85760603660031901126101b8576004356001600160a01b03808216908183036101b85760243590811681036101b8576044359160005260ca6020526040600020336000526020526040600020549260001984036113d8575b6102bf9350611cb5565b8284106113f4576113ef836102bf95033383611e30565b6113ce565b60405162461bcd60e51b815260206004820152601d60248201527f45524332303a20696e73756666696369656e7420616c6c6f77616e63650000006044820152606490fd5b346101b85760003660031901126101b857602060cb54604051908152f35b346101b85760003660031901126101b857610191546040516001600160a01b039091168152602090f35b346101b85760403660031901126101b8576004356001600160a01b03811681036101b8576102bf906024359033611e30565b346101b85760003660031901126101b857604051600060cc546114d581611c58565b8084529060019081811690811561060157506001146114fe576105a28461059681860382611603565b60cc600090815292506000805160206123ad8339815191525b82841061152f57505050810160200161059682610586565b80546020858701810191909152909301928101611517565b346101b85760203660031901126101b8576004359063ffffffff60e01b82168092036101b857602091635a05180f60e01b8114908115611589575b5015158152f35b637965db0b60e01b8114915081156115a3575b5083611582565b6301ffc9a760e01b1490508361159c565b60005b8381106115c75750506000910152565b81810151838201526020016115b7565b604091602082526115f781518092816020860152602086860191016115b4565b601f01601f1916010190565b90601f8019910116810190811067ffffffffffffffff821117610a5357604052565b67ffffffffffffffff8111610a5357601f01601f191660200190565b92919261164d82611625565b9161165b6040519384611603565b8294818452818301116101b8578281602093846000960137010152565b9080601f830112156101b85781602061169393359101611641565b90565b9060406116d59260009080825260656020528282209360018060a01b03169384835260205260ff8383205416156116d8575b8152609760205220612132565b50565b8082526065602052828220848352602052828220600160ff198254161790553384827f2f8788117e7eff1d82e926ec794901d17c78024a50270940304540a733656f0d8580a46116c8565b80600052602060658152604060002033600052815260ff604060002054161561174a575050565b6117e660486117fe938361176c6117d795611766601433611fc3565b93611fc3565b906040519586937f416363657373436f6e74726f6c3a206163636f756e7420000000000000000000838601526117ab81518092856037890191016115b4565b8401917001034b99036b4b9b9b4b733903937b6329607d1b6037840152835193849187850191016115b4565b01036028810184520182611603565b60405162461bcd60e51b8152918291600483016115d7565b0390fd5b9060406116d59260009080825260656020528282209360018060a01b03169384835260205260ff8383205416611840575b81526097602052206121bc565b808252606560205282822084835260205282822060ff1981541690553384827ff6391f5c32d9c69d2a47ea670b442974b53935d1edc7fd64eb21e047a839171b8580a4611833565b1561188f57565b60405162461bcd60e51b815260206004820152602c60248201527f46756e6374696f6e206d7573742062652063616c6c6564207468726f7567682060448201526b19195b1959d85d1958d85b1b60a21b6064820152608490fd5b156118f057565b60405162461bcd60e51b815260206004820152602c60248201527f46756e6374696f6e206d7573742062652063616c6c6564207468726f7567682060448201526b6163746976652070726f787960a01b6064820152608490fd5b909160ff7f4910fdfa16fed3260ed0e7147f7cc6da11a60208b5b9406d12a635614ffd9143541660001461198557506119839150611bb6565b565b604080516352d1902d60e01b8152602094919392906001600160a01b038416908681600481855afa60009181611b84575b50611a1657855162461bcd60e51b815260048101889052602e60248201527f45524331393637557067726164653a206e657720696d706c656d656e7461746960448201526d6f6e206973206e6f74205555505360901b6064820152608490fd5b9395929492937fc9f76b5ec45e5cdef99837d7b6d2467235c1df8933c8ca56df5c35afa2c7d44401611b2e57611a4b86611bb6565b7fbc7cd75a20ee27fd9adebab32041f755214dbc6bffa90cc0225b39da2e5c2d3b600080a283511590811591611b26575b50611a88575b50505050565b611b1293600080611a996027611625565b95611aa685519788611603565b602787527f416464726573733a206c6f772d6c6576656c2064656c65676174652063616c6c86880152660819985a5b195960ca1b858801528581519101845af4913d15611b1c573d611b03611afa82611625565b92519283611603565b8152600081943d92013e611f32565b5038808080611a82565b5060609250611f32565b905038611a7c565b825162461bcd60e51b815260048101859052602960248201527f45524331393637557067726164653a20756e737570706f727465642070726f786044820152681a58589b195555525160ba1b6064820152608490fd5b90918882813d8311611baf575b611b9b8183611603565b81010312611bac57505190386119b6565b80fd5b503d611b91565b803b15611bfd577f360894a13ba1a3210667c828492db98dca3e2076cc3735a920a3ca505d382bbc80546001600160a01b0319166001600160a01b03909216919091179055565b60405162461bcd60e51b815260206004820152602d60248201527f455243313936373a206e657720696d706c656d656e746174696f6e206973206e60448201526c1bdd08184818dbdb9d1c9858dd609a1b6064820152608490fd5b90600182811c92168015611c88575b6020831014611c7257565b634e487b7160e01b600052602260045260246000fd5b91607f1691611c67565b91908201809211611c9f57565b634e487b7160e01b600052601160045260246000fd5b6001600160a01b03908116918215611ddd5716918215611d8c5760ff6101c454166104a357600082815260c9602052604081205491808310611d3857604082827fddf252ad1be2c89b69c2b068fc378daa952ba7f163c4a11628f55a4df523b3ef95876020965260c98652038282205586815220818154019055604051908152a3565b60405162461bcd60e51b815260206004820152602660248201527f45524332303a207472616e7366657220616d6f756e7420657863656564732062604482015265616c616e636560d01b6064820152608490fd5b60405162461bcd60e51b815260206004820152602360248201527f45524332303a207472616e7366657220746f20746865207a65726f206164647260448201526265737360e81b6064820152608490fd5b60405162461bcd60e51b815260206004820152602560248201527f45524332303a207472616e736665722066726f6d20746865207a65726f206164604482015264647265737360d81b6064820152608490fd5b6001600160a01b03908116918215611ee15716918215611e915760207f8c5be1e5ebec7d5bd14f71427d1e84f3dd0314c0f7b2291e5b200ac8c7c3b925918360005260ca8252604060002085600052825280604060002055604051908152a3565b60405162461bcd60e51b815260206004820152602260248201527f45524332303a20617070726f766520746f20746865207a65726f206164647265604482015261737360f01b6064820152608490fd5b60405162461bcd60e51b8152602060048201526024808201527f45524332303a20617070726f76652066726f6d20746865207a65726f206164646044820152637265737360e01b6064820152608490fd5b91929015611f945750815115611f46575090565b3b15611f4f5790565b60405162461bcd60e51b815260206004820152601d60248201527f416464726573733a2063616c6c20746f206e6f6e2d636f6e74726163740000006044820152606490fd5b825190915015611fa75750805190602001fd5b60405162461bcd60e51b81529081906117fe90600483016115d7565b60019180831b91906001600160ff1b03811603611c9f576002820192838311611c9f57612008611ff285611625565b946120006040519687611603565b808652611625565b6020939085850190601f1901368237855115612104576030905384518210156121045760786021860153818101809111611c9f57905b80821161209257505061204f575090565b6064906040519062461bcd60e51b825280600483015260248201527f537472696e67733a20686578206c656e67746820696e73756666696369656e746044820152fd5b9091600f811660108110156120ef5785518410156120ef576f181899199a1a9b1b9c1cb0b131b232b360811b901a85840185015360041c9180156120da57600019019061203e565b60246000634e487b7160e01b81526011600452fd5b60246000634e487b7160e01b81526032600452fd5b634e487b7160e01b600052603260045260246000fd5b80548210156121045760005260206000200190600090565b919060018301600090828252806020526040822054156000146121b657845494680100000000000000008610156121a2578361219261217b886001604098999a0185558461211a565b819391549060031b91821b91600019901b19161790565b9055549382526020522055600190565b634e487b7160e01b83526041600452602483fd5b50925050565b906001820190600092818452826020526040842054908115156000146122a557600019918083018181116122915782549084820191821161227d57808203612248575b5050508054801561223457820191612217838361211a565b909182549160031b1b191690555582526020526040812055600190565b634e487b7160e01b86526031600452602486fd5b61226861225861217b938661211a565b90549060031b1c9283928661211a565b905586528460205260408620553880806121ff565b634e487b7160e01b88526011600452602488fd5b634e487b7160e01b87526011600452602487fd5b5050505090565b6101915460405163d994d6d560e01b815233600482015290602090829060249082906001600160a01b03165afa90811561234057600091612302575b50156122f057565b604051631dd1b1b560e21b8152600490fd5b6020813d8211612338575b8161231a60209383611603565b810103126123345751908115158203611bac5750386122e8565b5080fd5b3d915061230d565b6040513d6000823e3d90fd5b1561235357565b60405162461bcd60e51b815260206004820152602b60248201527f496e697469616c697a61626c653a20636f6e7472616374206973206e6f74206960448201526a6e697469616c697a696e6760a81b6064820152608490fdfe47197230e1e4b29fc0bd84d7d78966c0925452aff72a2a121538b102457e9ebea2646970667358221220f28e7b19c2855601aca0a71a2914510243d2bf332c86426dc4487b6709f551a764736f6c6343000814003360a080604052346100dc57306080526000549060ff8260081c1661008a575060ff8082160361004f575b604051610fcd90816100e28239608051818181610544015281816106ac01526108400152f35b60ff90811916176000557f7f26b83ff96e1f2b6a682f133852f6798a09c465da95921460cefb3847402498602060405160ff8152a138610029565b62461bcd60e51b815260206004820152602760248201527f496e697469616c697a61626c653a20636f6e747261637420697320696e697469604482015266616c697a696e6760c81b6064820152608490fd5b600080fdfe6040608081526004908136101561001557600080fd5b600091823560e01c806305216f72146109245780630c340a24146108fb5780632d88af4a146108a5578381633659cfe61461080e575080633f4ba83a14610713578381634f1ef28614610629575080635210570c1461060357806352d1902d1461052f5780635c975abb1461050857806364a731e9146104ce57806368274357146104a25780638456cb59146104015780638b9789c9146103e35780639fd0506d146103b6578063bb4872de14610392578063c0c53b8b146101cb578063d6c9858b146101a1578063e4c0aaf4146101545763e6fd7096146100f657600080fd5b346101505781600319360112610150578035916001600160a01b03808416840361014c5761012f54163303610135578361013260243585610f51565b80f35b6024925051906302976a2f60e01b82523390820152fd5b8480fd5b8280fd5b83823461019d57602036600319011261019d57356001600160a01b0381169081900361019d57610182610e72565b6bffffffffffffffffffffffff60a01b609754161760975580f35b5080fd5b50503461019d578160031936011261019d5761012f5490516001600160a01b039091168152602090f35b50346101505760603660031901126101505780356001600160a01b03818116929183900361014c576024359281841680940361038e57604435918216820361038e57855460ff8160081c161593848095610381575b801561036a575b1561031057506001929161029d91858560ff198316178a556102ff575b506bffffffffffffffffffffffff60a01b9061012f908282541617905587549560ff8760081c169161027583610ef1565b61027e83610ef1565b61028783610ef1565b61029083610ef1565b6097541617609755610ef1565b60ca5490620100008360b01b039060101b169061ff018360b01b031916171760ca556102c7578280f35b61ff001916825551600181527f7f26b83ff96e1f2b6a682f133852f6798a09c465da95921460cefb384740249890602090a138808280f35b61ffff191661010117885538610244565b608490602088519162461bcd60e51b8352820152602e60248201527f496e697469616c697a61626c653a20636f6e747261637420697320616c72656160448201526d191e481a5b9a5d1a585b1a5e995960921b6064820152fd5b50303b1580156102275750600160ff831614610227565b50600160ff831610610220565b8580fd5b50503461019d578160031936011261019d5760209060ff60ca541690519015158152f35b50503461019d578160031936011261019d5760ca54905160109190911c6001600160a01b03168152602090f35b83823461019d57602036600319011261019d57610132903533610f51565b503461015057826003193601126101505760ca549060ff8260081c1661049457601082901c6001600160a01b031633036104865760ff821615610478575061ff0019166101001760ca55513381527f62e78cea01bee320cd4e420270b5ea74000d11b0c9f74754ebdbfc544b05a25890602090a180f35b825163866099c360e01b8152fd5b8251631d77d47760e21b8152fd5b825163783bb6c960e11b8152fd5b83346104cb57806003193601126104cb576104bb610e72565b600160ff1960ca54161760ca5580f35b80fd5b503461015057602036600319011261015057356001600160a01b038116908190036101505782829160209452610130845220549051908152f35b50503461019d578160031936011261019d5760209060ff60ca5460081c1690519015158152f35b5082346104cb57806003193601126104cb57507f00000000000000000000000000000000000000000000000000000000000000006001600160a01b0316300361059b57602082517f360894a13ba1a3210667c828492db98dca3e2076cc3735a920a3ca505d382bbc8152f35b6020608492519162461bcd60e51b8352820152603860248201527f555550535570677261646561626c653a206d757374206e6f742062652063616c60448201527f6c6564207468726f7567682064656c656761746563616c6c00000000000000006064820152fd5b83346104cb57806003193601126104cb5761061c610e72565b60ff1960ca541660ca5580f35b9280915060031936011261070f5781356001600160a01b03808216820361014c576024359367ffffffffffffffff851161038e573660238601121561038e5784013590610681610678836109a1565b94519485610969565b818452366024838701011161038e5761013295602083610702946024600199018389013786010152807f000000000000000000000000000000000000000000000000000000000000000016906106d9823014156109bd565b7f360894a13ba1a3210667c828492db98dca3e2076cc3735a920a3ca505d382bbc541614610a1e565b61070a610e72565b610a7f565b5050fd5b503461015057826003193601126101505760ca549060ff8260081c16156108005760018060a01b03808360101c16331415908161078f575b506104865760ff821615610478575061ff00191660ca55513381527f5db9ee0a495bf2e6ff9c91a7834c1ba4fdd244a5e8aa4e537bd38aeae4b073aa90602090a180f35b609754855163d994d6d560e01b81523385820152925060209183916024918391165afa9081156107f65785916107c8575b50153861074b565b6107e9915060203d81116107ef575b6107e18183610969565b810190610e55565b386107c0565b503d6107d7565b84513d87823e3d90fd5b8251637c7fd07960e01b8152fd5b9190503461019d57602036600319011261019d576001600160a01b0392903583811681036101505761086d84610132957f000000000000000000000000000000000000000000000000000000000000000016906106d9823014156109bd565b610875610e72565b61088a610881846109a1565b92519283610969565b828252601f19610899846109a1565b01366020840137610a7f565b83823461019d57602036600319011261019d57356001600160a01b038116810361019d576108d1610e72565b60ca805462010000600160b01b03191660109290921b62010000600160b01b031691909117905580f35b50503461019d578160031936011261019d5760975490516001600160a01b039091168152602090f35b83823461019d57602036600319011261019d57356001600160a01b0381169081900361019d57610952610e72565b61012f80546001600160a01b031916909117905580f35b90601f8019910116810190811067ffffffffffffffff82111761098b57604052565b634e487b7160e01b600052604160045260246000fd5b67ffffffffffffffff811161098b57601f01601f191660200190565b156109c457565b60405162461bcd60e51b815260206004820152602c60248201527f46756e6374696f6e206d7573742062652063616c6c6564207468726f7567682060448201526b19195b1959d85d1958d85b1b60a21b6064820152608490fd5b15610a2557565b60405162461bcd60e51b815260206004820152602c60248201527f46756e6374696f6e206d7573742062652063616c6c6564207468726f7567682060448201526b6163746976652070726f787960a01b6064820152608490fd5b909160ff7f4910fdfa16fed3260ed0e7147f7cc6da11a60208b5b9406d12a635614ffd91435416600014610aba5750610ab89150610cdf565b565b604080516352d1902d60e01b8152602094919392906001600160a01b038416908681600481855afa60009181610cb0575b50610b4b57855162461bcd60e51b815260048101889052602e60248201527f45524331393637557067726164653a206e657720696d706c656d656e7461746960448201526d6f6e206973206e6f74205555505360901b6064820152608490fd5b9395929492937fc9f76b5ec45e5cdef99837d7b6d2467235c1df8933c8ca56df5c35afa2c7d44401610c5a57610b8086610cdf565b7fbc7cd75a20ee27fd9adebab32041f755214dbc6bffa90cc0225b39da2e5c2d3b600080a283511590811591610c52575b50610bbd575b50505050565b610c3e93600080610bce60276109a1565b95610bdb85519788610969565b602787527f416464726573733a206c6f772d6c6576656c2064656c65676174652063616c6c86880152660819985a5b195960ca1b858801528581519101845af4913d15610c48573d610c2f610881826109a1565b8152600081943d92013e610d81565b5038808080610bb7565b5060609250610d81565b905038610bb1565b825162461bcd60e51b815260048101859052602960248201527f45524331393637557067726164653a20756e737570706f727465642070726f786044820152681a58589b195555525160ba1b6064820152608490fd5b90918882813d8311610cd8575b610cc78183610969565b810103126104cb5750519038610aeb565b503d610cbd565b803b15610d26577f360894a13ba1a3210667c828492db98dca3e2076cc3735a920a3ca505d382bbc80546001600160a01b0319166001600160a01b03909216919091179055565b60405162461bcd60e51b815260206004820152602d60248201527f455243313936373a206e657720696d706c656d656e746174696f6e206973206e60448201526c1bdd08184818dbdb9d1c9858dd609a1b6064820152608490fd5b91929015610de35750815115610d95575090565b3b15610d9e5790565b60405162461bcd60e51b815260206004820152601d60248201527f416464726573733a2063616c6c20746f206e6f6e2d636f6e74726163740000006044820152606490fd5b825190915015610df65750805190602001fd5b6040519062461bcd60e51b82528160208060048301528251908160248401526000935b828510610e3c575050604492506000838284010152601f80199101168101030190fd5b8481018201518686016044015293810193859350610e19565b90816020910312610e6d57518015158103610e6d5790565b600080fd5b60975460405163d994d6d560e01b815233600482015290602090829060249082906001600160a01b03165afa908115610ee557600091610ec7575b5015610eb557565b604051631dd1b1b560e21b8152600490fd5b610edf915060203d81116107ef576107e18183610969565b38610ead565b6040513d6000823e3d90fd5b15610ef857565b60405162461bcd60e51b815260206004820152602b60248201527f496e697469616c697a61626c653a20636f6e7472616374206973206e6f74206960448201526a6e697469616c697a696e6760a81b6064820152608490fd5b60207f0edb810b4a4ba5ab81b2765b443d63011146e0d69f7604ea7205676bae0995b39160018060a01b03169283600052610130825280604060002055604051908152a256fea264697066735822122048e21e74ef8a404033fe9376af535734d6f96317786dc3c05cdd2f811bc275ee64736f6c63430008140033",
  "linkReferences": {},
  "deployedLinkReferences": {},
  "devdoc": {
    "kind": "dev",
    "methods": {},
    "version": 1
  },
  "evm": {
    "bytecode": {
      "linkReferences": {},
      "opcodes": "PUSH1 0x80 PUSH1 0x40 DUP2 SWAP1 MSTORE PUSH1 0xA DUP1 SLOAD PUSH1 0x1 PUSH1 0x1 PUSH1 0xA0 SHL SUB NOT SWAP1 DUP2 AND PUSH1 0x1 OR SWAP1 SWAP2 SSTORE PUSH1 0xB DUP1 SLOAD DUP3 AND PUSH1 0x2 OR SWAP1 SSTORE PUSH1 0xC DUP1 SLOAD DUP3 AND PUSH1 0x3 OR SWAP1 SSTORE PUSH1 0x0 SWAP2 PUSH2 0x1C3 DUP1 DUP3 ADD SWAP1 PUSH1 0x1 PUSH1 0x1 PUSH1 0x40 SHL SUB DUP3 GT DUP4 DUP4 LT OR PUSH3 0x1034 JUMPI SWAP1 DUP3 SWAP2 PUSH3 0xCD22 DUP4 CODECOPY SUB SWAP1 DUP4 CREATE DUP1 ISZERO PUSH3 0xE80 JUMPI PUSH1 0x2 DUP1 SLOAD DUP4 AND PUSH1 0x1 PUSH1 0x1 PUSH1 0xA0 SHL SUB SWAP3 SWAP1 SWAP3 AND SWAP2 SWAP1 SWAP2 OR SWAP1 SSTORE PUSH1 0x40 MLOAD PUSH2 0x1035 SWAP1 DUP2 DUP2 ADD SWAP1 PUSH1 0x1 PUSH1 0x1 PUSH1 0x40 SHL SUB DUP3 GT DUP2 DUP4 LT OR PUSH3 0x1034 JUMPI DUP1 PUSH3 0xBB52 SWAP3 DUP5 DUP5 DUP4 CODECOPY SUB SWAP1 DUP6 CREATE DUP1 ISZERO PUSH3 0xEDE JUMPI PUSH1 0x7 DUP1 SLOAD DUP6 AND PUSH1 0x1 PUSH1 0x1 PUSH1 0xA0 SHL SUB SWAP3 SWAP1 SWAP3 AND SWAP2 SWAP1 SWAP2 OR SWAP1 SSTORE PUSH1 0x40 MLOAD SWAP2 DUP1 DUP4 ADD SWAP2 PUSH1 0x1 PUSH1 0x1 PUSH1 0x40 SHL SUB DUP4 GT DUP5 DUP5 LT OR PUSH3 0x105C JUMPI SWAP1 DUP4 SWAP3 SWAP2 DUP4 CODECOPY SUB SWAP1 DUP4 CREATE DUP1 ISZERO PUSH3 0xE80 JUMPI PUSH1 0x3 DUP1 SLOAD DUP4 AND PUSH1 0x1 PUSH1 0x1 PUSH1 0xA0 SHL SUB SWAP3 SWAP1 SWAP3 AND SWAP2 SWAP1 SWAP2 OR SWAP1 SSTORE PUSH1 0x40 MLOAD PUSH2 0x19B DUP2 ADD PUSH1 0x1 PUSH1 0x1 PUSH1 0x40 SHL SUB DUP2 GT DUP3 DUP3 LT OR PUSH3 0x1048 JUMPI DUP2 PUSH1 0x20 SWAP2 PUSH2 0x19B PUSH3 0xCB87 DUP4 CODECOPY PUSH8 0xDE0B6B3A7640000 DUP2 MSTORE SUB ADD SWAP1 DUP4 CREATE DUP1 ISZERO PUSH3 0xE80 JUMPI PUSH1 0x4 DUP1 SLOAD DUP4 AND PUSH1 0x1 PUSH1 0x1 PUSH1 0xA0 SHL SUB SWAP3 SWAP1 SWAP3 AND SWAP2 SWAP1 SWAP2 OR SWAP1 SSTORE PUSH1 0x40 MLOAD PUSH2 0x19D DUP1 DUP3 ADD SWAP1 PUSH1 0x1 PUSH1 0x1 PUSH1 0x40 SHL SUB DUP3 GT DUP4 DUP4 LT OR PUSH3 0x1034 JUMPI PUSH1 0x20 SWAP2 DUP4 SWAP2 PUSH3 0xB9B5 DUP4 CODECOPY PUSH1 0x0 NOT DUP2 MSTORE SUB ADD SWAP1 DUP4 CREATE DUP1 ISZERO PUSH3 0xE80 JUMPI PUSH1 0x5 DUP1 SLOAD DUP4 AND PUSH1 0x1 PUSH1 0x1 PUSH1 0xA0 SHL SUB SWAP3 SWAP1 SWAP3 AND SWAP2 SWAP1 SWAP2 OR SWAP1 SSTORE PUSH1 0x40 MLOAD PUSH2 0x24FA DUP1 DUP3 ADD SWAP1 PUSH1 0x1 PUSH1 0x1 PUSH1 0x40 SHL SUB DUP3 GT DUP4 DUP4 LT OR PUSH3 0x1034 JUMPI SWAP1 DUP3 SWAP2 PUSH3 0x13DC0 DUP4 CODECOPY SUB SWAP1 DUP4 CREATE DUP1 ISZERO PUSH3 0xE80 JUMPI PUSH1 0x1 PUSH1 0x1 PUSH1 0xA0 SHL SUB SWAP1 PUSH3 0x1F9 SWAP1 DUP3 AND PUSH3 0x10C4 JUMP JUMPDEST AND DUP2 PUSH1 0x6 SLOAD AND OR PUSH1 0x6 SSTORE PUSH1 0x40 MLOAD PUSH2 0x5873 DUP1 DUP3 ADD SWAP1 DUP3 DUP3 LT PUSH1 0x1 DUP1 PUSH1 0x40 SHL SUB DUP4 GT OR PUSH3 0x1034 JUMPI SWAP1 DUP3 SWAP2 PUSH3 0x204B DUP4 CODECOPY SUB SWAP1 DUP4 CREATE DUP1 ISZERO PUSH3 0xE80 JUMPI PUSH1 0x1 PUSH1 0x1 PUSH1 0xA0 SHL SUB SWAP1 PUSH3 0x249 SWAP1 DUP3 AND PUSH3 0x10C4 JUMP JUMPDEST DUP4 SLOAD DUP4 AND SWAP2 AND OR DUP3 SSTORE PUSH1 0x40 MLOAD PUSH2 0x40F7 DUP1 DUP3 ADD SWAP1 PUSH1 0x1 PUSH1 0x1 PUSH1 0x40 SHL SUB DUP3 GT DUP4 DUP4 LT OR PUSH3 0x1034 JUMPI SWAP1 DUP3 SWAP2 PUSH3 0x78BE DUP4 CODECOPY SUB SWAP1 DUP4 CREATE DUP1 ISZERO PUSH3 0xE80 JUMPI PUSH1 0x9 DUP1 SLOAD DUP4 AND PUSH1 0x1 PUSH1 0x1 PUSH1 0xA0 SHL SUB SWAP3 SWAP1 SWAP3 AND SWAP2 SWAP1 SWAP2 OR SWAP1 SSTORE PUSH1 0x40 MLOAD PUSH2 0x10AF DUP1 DUP3 ADD SWAP1 PUSH1 0x1 PUSH1 0x1 PUSH1 0x40 SHL SUB DUP3 GT DUP4 DUP4 LT OR PUSH3 0x1034 JUMPI SWAP1 DUP3 SWAP2 PUSH3 0x162BA DUP4 CODECOPY SUB SWAP1 DUP4 CREATE DUP1 ISZERO PUSH3 0xE80 JUMPI PUSH1 0x1 PUSH1 0x1 PUSH1 0xA0 SHL SUB SWAP1 PUSH3 0x2E2 SWAP1 DUP3 AND PUSH3 0x10C4 JUMP JUMPDEST AND DUP2 PUSH1 0x8 SLOAD AND OR PUSH1 0x8 SSTORE PUSH1 0x40 MLOAD PUSH2 0x4C4D DUP1 DUP3 ADD SWAP1 DUP3 DUP3 LT PUSH1 0x1 DUP1 PUSH1 0x40 SHL SUB DUP4 GT OR PUSH3 0x1034 JUMPI SWAP1 DUP3 SWAP2 PUSH3 0xCEE5 DUP4 CODECOPY SUB SWAP1 DUP4 CREATE DUP1 ISZERO PUSH3 0xE80 JUMPI PUSH1 0x1 PUSH1 0x1 PUSH1 0xA0 SHL SUB SWAP1 PUSH3 0x332 SWAP1 DUP3 AND PUSH3 0x10C4 JUMP JUMPDEST PUSH1 0x1 DUP1 SLOAD SWAP1 SWAP4 AND SWAP2 AND OR SWAP1 SSTORE PUSH1 0x8 SLOAD PUSH1 0x2 SLOAD DUP3 SWAP2 PUSH1 0x1 PUSH1 0x1 PUSH1 0xA0 SHL SUB SWAP1 DUP2 AND SWAP2 AND DUP2 EXTCODESIZE ISZERO PUSH3 0xF05 JUMPI DUP3 SWAP2 PUSH1 0x64 DUP4 SWAP3 PUSH1 0x40 MLOAD SWAP6 DUP7 SWAP4 DUP5 SWAP3 PUSH4 0xC0C53B8B PUSH1 0xE0 SHL DUP5 MSTORE CALLER PUSH1 0x4 DUP6 ADD MSTORE PUSH1 0x24 DUP5 ADD MSTORE CALLER PUSH1 0x44 DUP5 ADD MSTORE GAS CALL DUP1 ISZERO PUSH3 0xF92 JUMPI PUSH3 0x1021 JUMPI JUMPDEST PUSH1 0x6 SLOAD PUSH1 0x2 SLOAD SWAP2 SWAP3 POP PUSH1 0x1 PUSH1 0x1 PUSH1 0xA0 SHL SUB SWAP1 DUP2 AND SWAP2 AND DUP2 EXTCODESIZE ISZERO PUSH3 0xF05 JUMPI DUP3 SWAP2 PUSH2 0x104 DUP4 SWAP3 PUSH1 0x40 MLOAD SWAP5 DUP6 SWAP4 DUP5 SWAP3 PUSH4 0x23C56D05 PUSH1 0xE2 SHL DUP5 MSTORE PUSH1 0x80 PUSH1 0x4 DUP6 ADD MSTORE PUSH1 0x7 PUSH1 0x84 DUP6 ADD MSTORE PUSH7 0x2A21AA37B5B2B7 PUSH1 0xC9 SHL PUSH1 0xA4 DUP6 ADD MSTORE PUSH1 0xC0 PUSH1 0x24 DUP6 ADD MSTORE PUSH1 0x2 PUSH1 0xC4 DUP6 ADD MSTORE PUSH2 0x5443 PUSH1 0xF0 SHL PUSH1 0xE4 DUP6 ADD MSTORE ADDRESS PUSH1 0x44 DUP6 ADD MSTORE PUSH1 0x64 DUP5 ADD MSTORE GAS CALL DUP1 ISZERO PUSH3 0xE80 JUMPI PUSH3 0x1008 JUMPI JUMPDEST POP PUSH1 0x1 SLOAD PUSH1 0x3 SLOAD PUSH1 0x4 SLOAD PUSH1 0x6 SLOAD PUSH1 0xA SLOAD PUSH1 0xB SLOAD PUSH1 0x5 SLOAD PUSH1 0x40 MLOAD SWAP7 PUSH1 0x1 PUSH1 0x1 PUSH1 0xA0 SHL SUB SWAP2 DUP3 AND SWAP7 SWAP4 DUP3 AND SWAP6 SWAP3 DUP3 AND SWAP5 DUP3 AND SWAP4 SWAP3 DUP3 AND SWAP3 DUP3 AND SWAP2 AND PUSH3 0x462 PUSH2 0x340 DUP10 PUSH3 0x1070 JUMP JUMPDEST DUP8 MSTORE PUSH1 0x20 DUP8 ADD MSTORE PUSH1 0x40 DUP7 ADD MSTORE PUSH1 0x60 DUP6 ADD MSTORE DUP2 PUSH1 0x80 DUP6 ADD MSTORE PUSH1 0xA0 DUP5 ADD MSTORE PUSH8 0x1BC16D674EC80000 PUSH1 0xC0 DUP5 ADD MSTORE PUSH8 0xDE0B6B3A7640000 PUSH1 0xE0 DUP5 ADD MSTORE PUSH8 0x2C68AF0BB140000 PUSH2 0x100 DUP5 ADD MSTORE PUSH7 0xB1A2BC2EC50000 PUSH2 0x120 DUP5 ADD MSTORE PUSH7 0xB1A2BC2EC50000 PUSH2 0x140 DUP5 ADD MSTORE PUSH7 0x2386F26FC10000 PUSH2 0x160 DUP5 ADD MSTORE PUSH7 0x2386F26FC10000 PUSH2 0x180 DUP5 ADD MSTORE PUSH7 0x2386F26FC10000 PUSH2 0x1A0 DUP5 ADD MSTORE PUSH8 0x11C37937E080000 PUSH2 0x1C0 DUP5 ADD MSTORE PUSH8 0x11C37937E080000 PUSH2 0x1E0 DUP5 ADD MSTORE PUSH8 0x6F05B59D3B20000 PUSH2 0x200 DUP5 ADD MSTORE PUSH8 0x16345785D8A0000 PUSH2 0x220 DUP5 ADD MSTORE PUSH8 0x6F05B59D3B20000 PUSH2 0x240 DUP5 ADD MSTORE PUSH3 0x278D00 PUSH2 0x260 DUP5 ADD MSTORE PUSH2 0x280 DUP4 ADD MSTORE PUSH8 0x16345785D8A0000 PUSH2 0x2A0 DUP4 ADD MSTORE PUSH3 0x93A80 PUSH2 0x2C0 DUP4 ADD MSTORE DUP1 PUSH2 0x2E0 DUP4 ADD MSTORE PUSH2 0x300 DUP3 ADD MSTORE PUSH2 0x2D0 PUSH2 0x320 DUP3 ADD MSTORE PUSH1 0x1 DUP1 PUSH1 0xA0 SHL SUB PUSH1 0x2 SLOAD AND PUSH1 0x1 DUP1 PUSH1 0xA0 SHL SUB PUSH1 0x9 SLOAD AND PUSH1 0x1 DUP1 PUSH1 0xA0 SHL SUB PUSH1 0x8 SLOAD AND SWAP2 PUSH1 0x40 MLOAD SWAP4 PUSH3 0x5AC PUSH1 0xC0 DUP7 PUSH3 0x1070 JUMP JUMPDEST DUP5 MSTORE PUSH1 0x20 DUP5 ADD MSTORE CALLER PUSH1 0x40 DUP5 ADD MSTORE PUSH1 0x60 DUP4 ADD MSTORE PUSH3 0x15180 PUSH1 0x80 DUP4 ADD MSTORE PUSH1 0xA0 DUP3 ADD MSTORE PUSH1 0x1 DUP1 PUSH1 0xA0 SHL SUB PUSH1 0x7 SLOAD AND PUSH1 0x40 MLOAD SWAP2 PUSH3 0x5E8 PUSH1 0x40 DUP5 PUSH3 0x1070 JUMP JUMPDEST DUP3 MSTORE PUSH1 0x20 DUP3 ADD MSTORE DUP2 SLOAD PUSH1 0x1 PUSH1 0x1 PUSH1 0xA0 SHL SUB AND SWAP1 DUP2 EXTCODESIZE ISZERO PUSH3 0xF05 JUMPI PUSH1 0x40 DUP1 MLOAD PUSH4 0x30500EFD PUSH1 0xE1 SHL DUP2 MSTORE DUP3 MLOAD DUP1 MLOAD DUP1 MLOAD PUSH1 0x1 PUSH1 0x1 PUSH1 0xA0 SHL SUB SWAP1 DUP2 AND PUSH1 0x4 DUP6 ADD MSTORE PUSH1 0x20 DUP1 DUP4 ADD MLOAD DUP3 AND PUSH1 0x24 DUP7 ADD MSTORE DUP3 DUP7 ADD MLOAD DUP3 AND PUSH1 0x44 DUP7 ADD MSTORE PUSH1 0x60 DUP1 DUP5 ADD MLOAD DUP4 AND PUSH1 0x64 DUP8 ADD MSTORE PUSH1 0x80 DUP1 DUP6 ADD MLOAD DUP5 AND PUSH1 0x84 DUP9 ADD MSTORE PUSH1 0xA0 DUP1 DUP7 ADD MLOAD DUP6 AND PUSH1 0xA4 DUP10 ADD MSTORE PUSH1 0xC0 DUP7 ADD MLOAD PUSH1 0xC4 DUP10 ADD MSTORE PUSH1 0xE0 DUP7 ADD MLOAD PUSH1 0xE4 DUP10 ADD MSTORE PUSH2 0x100 DUP7 ADD MLOAD PUSH2 0x104 DUP10 ADD MSTORE PUSH2 0x120 DUP7 ADD MLOAD PUSH2 0x124 DUP10 ADD MSTORE PUSH2 0x140 DUP7 ADD MLOAD PUSH2 0x144 DUP10 ADD MSTORE PUSH2 0x160 DUP7 ADD MLOAD PUSH2 0x164 DUP10 ADD MSTORE PUSH2 0x180 DUP7 ADD MLOAD PUSH2 0x184 DUP10 ADD MSTORE PUSH2 0x1A0 DUP7 ADD MLOAD PUSH2 0x1A4 DUP10 ADD MSTORE PUSH2 0x1C0 DUP7 ADD MLOAD PUSH2 0x1C4 DUP10 ADD MSTORE PUSH2 0x1E0 DUP7 ADD MLOAD PUSH2 0x1E4 DUP10 ADD MSTORE PUSH2 0x200 DUP7 ADD MLOAD PUSH2 0x204 DUP10 ADD MSTORE PUSH2 0x220 DUP7 ADD MLOAD PUSH2 0x224 DUP10 ADD MSTORE PUSH2 0x240 DUP7 ADD MLOAD PUSH2 0x244 DUP10 ADD MSTORE PUSH2 0x260 DUP7 ADD MLOAD PUSH2 0x264 DUP10 ADD MSTORE PUSH2 0x280 DUP7 ADD MLOAD DUP6 AND PUSH2 0x284 DUP10 ADD MSTORE PUSH2 0x2A0 DUP7 ADD MLOAD PUSH2 0x2A4 DUP10 ADD MSTORE PUSH2 0x2C0 DUP7 ADD MLOAD PUSH2 0x2C4 DUP10 ADD MSTORE PUSH2 0x2E0 DUP7 ADD MLOAD DUP6 AND PUSH2 0x2E4 DUP10 ADD MSTORE PUSH2 0x300 DUP7 ADD MLOAD DUP6 AND PUSH2 0x304 DUP10 ADD MSTORE PUSH2 0x320 SWAP1 SWAP6 ADD MLOAD PUSH2 0x324 DUP9 ADD MSTORE DUP3 DUP7 ADD MLOAD DUP5 AND PUSH2 0x344 DUP9 ADD MSTORE SWAP7 DUP6 ADD MLOAD DUP4 AND PUSH2 0x364 DUP8 ADD MSTORE DUP5 ADD MLOAD DUP3 AND PUSH2 0x384 DUP7 ADD MSTORE SWAP5 DUP4 ADD MLOAD PUSH2 0x3A4 DUP6 ADD MSTORE SWAP2 ADD MLOAD DUP2 AND PUSH2 0x3C4 DUP4 ADD MSTORE SWAP2 SWAP1 SWAP3 ADD MLOAD AND PUSH2 0x3E4 DUP3 ADD MSTORE SWAP1 DUP3 SWAP1 DUP3 SWAP1 PUSH2 0x404 SWAP1 DUP3 SWAP1 DUP5 SWAP1 GAS CALL DUP1 ISZERO PUSH3 0xE80 JUMPI PUSH3 0xFEF JUMPI JUMPDEST POP PUSH1 0x1 SLOAD PUSH1 0x2 SLOAD PUSH1 0x40 MLOAD PUSH1 0x1 PUSH1 0x1 PUSH1 0xA0 SHL SUB SWAP3 DUP4 AND SWAP3 SWAP1 SWAP2 AND SWAP1 PUSH3 0x7E1 PUSH2 0x120 DUP3 PUSH3 0x1070 JUMP JUMPDEST PUSH1 0x64 DUP2 MSTORE PUSH1 0x64 PUSH1 0x20 DUP3 ADD MSTORE PUSH1 0x64 PUSH1 0x40 DUP3 ADD MSTORE PUSH1 0x64 PUSH1 0x60 DUP3 ADD MSTORE PUSH1 0x64 PUSH1 0x80 DUP3 ADD MSTORE PUSH1 0x64 PUSH1 0xA0 DUP3 ADD MSTORE PUSH1 0x64 PUSH1 0xC0 DUP3 ADD MSTORE PUSH1 0x64 PUSH1 0xE0 DUP3 ADD MSTORE PUSH1 0x64 PUSH2 0x100 DUP3 ADD MSTORE DUP3 EXTCODESIZE ISZERO PUSH3 0xFEA JUMPI PUSH2 0x1A4 DUP5 SWAP3 DUP4 PUSH2 0x100 SWAP6 PUSH1 0x40 MLOAD SWAP7 DUP8 SWAP6 DUP7 SWAP5 PUSH4 0xDB901477 PUSH1 0xE0 SHL DUP7 MSTORE PUSH1 0x4 DUP7 ADD MSTORE CALLER PUSH1 0x24 DUP7 ADD MSTORE PUSH1 0xA PUSH1 0x44 DUP7 ADD MSTORE PUSH1 0xA PUSH1 0x64 DUP7 ADD MSTORE DUP1 MLOAD PUSH1 0x84 DUP7 ADD MSTORE PUSH1 0x20 DUP2 ADD MLOAD PUSH1 0xA4 DUP7 ADD MSTORE PUSH1 0x40 DUP2 ADD MLOAD PUSH1 0xC4 DUP7 ADD MSTORE PUSH1 0x60 DUP2 ADD MLOAD PUSH1 0xE4 DUP7 ADD MSTORE PUSH1 0x80 DUP2 ADD MLOAD PUSH2 0x104 DUP7 ADD MSTORE PUSH1 0xA0 DUP2 ADD MLOAD PUSH2 0x124 DUP7 ADD MSTORE PUSH1 0xC0 DUP2 ADD MLOAD PUSH2 0x144 DUP7 ADD MSTORE PUSH1 0xE0 DUP2 ADD MLOAD PUSH2 0x164 DUP7 ADD MSTORE ADD MLOAD PUSH2 0x184 DUP5 ADD MSTORE GAS CALL DUP1 ISZERO PUSH3 0xE80 JUMPI PUSH3 0xFD1 JUMPI JUMPDEST POP PUSH1 0x1 SLOAD DUP2 SLOAD PUSH1 0x1 PUSH1 0x1 PUSH1 0xA0 SHL SUB SWAP2 DUP3 AND SWAP2 AND DUP2 EXTCODESIZE ISZERO PUSH3 0xF05 JUMPI DUP3 SWAP2 PUSH1 0x24 DUP4 SWAP3 PUSH1 0x40 MLOAD SWAP5 DUP6 SWAP4 DUP5 SWAP3 PUSH4 0xBBE720D9 PUSH1 0xE0 SHL DUP5 MSTORE PUSH1 0x4 DUP5 ADD MSTORE GAS CALL DUP1 ISZERO PUSH3 0xE80 JUMPI PUSH3 0xFB8 JUMPI JUMPDEST POP PUSH1 0x6 SLOAD DUP2 SLOAD PUSH1 0x1 PUSH1 0x1 PUSH1 0xA0 SHL SUB SWAP2 DUP3 AND SWAP2 AND DUP2 EXTCODESIZE ISZERO PUSH3 0xF05 JUMPI DUP3 SWAP2 PUSH1 0x24 DUP4 SWAP3 PUSH1 0x40 MLOAD SWAP5 DUP6 SWAP4 DUP5 SWAP3 PUSH4 0x83D2230D PUSH1 0xE0 SHL DUP5 MSTORE PUSH1 0x4 DUP5 ADD MSTORE GAS CALL DUP1 ISZERO PUSH3 0xE80 JUMPI PUSH3 0xF9F JUMPI JUMPDEST POP POP PUSH1 0x40 MLOAD SWAP1 PUSH3 0x964 PUSH1 0xE0 DUP4 PUSH3 0x1070 JUMP JUMPDEST DUP1 DUP3 MSTORE DUP1 PUSH1 0x20 DUP4 ADD MSTORE PUSH8 0x4563918244F40000 PUSH1 0x40 DUP4 ADD MSTORE PUSH7 0xB1A2BC2EC50000 PUSH1 0x60 DUP4 ADD MSTORE PUSH7 0xB1A2BC2EC50000 PUSH1 0x80 DUP4 ADD MSTORE PUSH9 0xB7E174CC69ED00000 PUSH1 0xA0 DUP4 ADD MSTORE PUSH7 0xB1A2BC2EC50000 PUSH1 0xC0 DUP4 ADD MSTORE PUSH1 0x40 MLOAD DUP1 PUSH2 0x228E DUP2 ADD LT PUSH1 0x1 DUP1 PUSH1 0x40 SHL SUB PUSH2 0x228E DUP4 ADD GT OR PUSH3 0xF5D JUMPI PUSH2 0x228E PUSH3 0x11B32 DUP3 CODECOPY DUP1 PUSH2 0x228E DUP2 ADD SUB SWAP1 DUP3 CREATE DUP1 ISZERO PUSH3 0xF92 JUMPI PUSH1 0x1 PUSH1 0x1 PUSH1 0xA0 SHL SUB SWAP1 PUSH3 0x9FE SWAP1 DUP3 AND PUSH3 0x10C4 JUMP JUMPDEST DUP3 SLOAD PUSH1 0x2 SLOAD SWAP3 SWAP1 SWAP2 AND SWAP2 PUSH1 0x1 PUSH1 0x1 PUSH1 0xA0 SHL SUB SWAP2 DUP3 AND SWAP2 AND DUP3 EXTCODESIZE ISZERO PUSH3 0xF8E JUMPI PUSH1 0x40 MLOAD SWAP2 PUSH4 0x23C56D05 PUSH1 0xE2 SHL DUP4 MSTORE PUSH1 0x80 PUSH1 0x4 DUP5 ADD MSTORE PUSH1 0x7 PUSH1 0x84 DUP5 ADD MSTORE PUSH7 0x2A282A37B5B2B7 PUSH1 0xC9 SHL PUSH1 0xA4 DUP5 ADD MSTORE PUSH1 0xC0 PUSH1 0x24 DUP5 ADD MSTORE PUSH1 0x2 PUSH1 0xC4 DUP5 ADD MSTORE PUSH2 0x545 PUSH1 0xF4 SHL PUSH1 0xE4 DUP5 ADD MSTORE PUSH1 0x44 DUP4 ADD MSTORE PUSH1 0x64 DUP3 ADD MSTORE DUP3 DUP2 PUSH2 0x104 DUP2 DUP4 DUP7 GAS CALL DUP1 ISZERO PUSH3 0xE3F JUMPI SWAP1 DUP4 SWAP2 PUSH3 0xF71 JUMPI JUMPDEST POP POP DUP3 MSTORE PUSH8 0xDE0B6B3A7640000 PUSH1 0x60 DUP4 ADD MLOAD MOD PUSH1 0x60 DUP4 ADD MSTORE PUSH8 0xDE0B6B3A7640000 PUSH1 0x80 DUP4 ADD MLOAD MOD PUSH1 0x80 DUP4 ADD MSTORE PUSH1 0x40 MLOAD SWAP2 DUP3 PUSH2 0x19B DUP2 ADD LT PUSH1 0x1 DUP1 PUSH1 0x40 SHL SUB PUSH2 0x19B DUP6 ADD GT OR PUSH3 0xF5D JUMPI DUP2 SWAP3 PUSH2 0x19B PUSH3 0xCB87 DUP3 CODECOPY PUSH9 0xCBD47B6EAA8CC0001 PUSH2 0x19B DUP3 ADD MSTORE PUSH1 0x20 DUP2 PUSH2 0x19B DUP2 ADD SUB ADD SWAP1 DUP4 CREATE DUP1 ISZERO PUSH3 0xE80 JUMPI PUSH1 0x1 PUSH1 0x1 PUSH1 0xA0 SHL SUB SWAP1 DUP2 AND PUSH1 0x20 DUP4 ADD MSTORE DUP3 SLOAD AND SWAP1 DUP2 EXTCODESIZE ISZERO PUSH3 0xF05 JUMPI PUSH1 0x40 DUP1 MLOAD PUSH4 0x6DBCB039 PUSH1 0xE1 SHL DUP2 MSTORE DUP3 MLOAD PUSH1 0x1 PUSH1 0x1 PUSH1 0xA0 SHL SUB SWAP1 DUP2 AND PUSH1 0x4 DUP4 ADD MSTORE PUSH1 0x20 DUP5 ADD MLOAD AND PUSH1 0x24 DUP3 ADD MSTORE SWAP1 DUP3 ADD MLOAD PUSH1 0x44 DUP3 ADD MSTORE PUSH1 0x60 DUP3 ADD MLOAD PUSH1 0x64 DUP3 ADD MSTORE PUSH1 0x80 DUP3 ADD MLOAD PUSH1 0x84 DUP3 ADD MSTORE PUSH1 0xA0 DUP3 ADD MLOAD PUSH1 0xA4 DUP3 ADD MSTORE PUSH1 0xC0 SWAP1 SWAP2 ADD MLOAD PUSH1 0xC4 DUP3 ADD MSTORE SWAP1 DUP3 SWAP1 DUP3 SWAP1 PUSH1 0xE4 SWAP1 DUP3 SWAP1 DUP5 SWAP1 GAS CALL DUP1 ISZERO PUSH3 0xE80 JUMPI PUSH3 0xF44 JUMPI JUMPDEST POP PUSH1 0x7 SLOAD PUSH1 0x40 MLOAD PUSH4 0x18160DDD PUSH1 0xE0 SHL DUP2 MSTORE PUSH1 0x1 PUSH1 0x1 PUSH1 0xA0 SHL SUB SWAP1 SWAP2 AND SWAP1 PUSH1 0x20 DUP2 PUSH1 0x4 DUP2 DUP6 GAS STATICCALL SWAP1 DUP2 ISZERO PUSH3 0xE3F JUMPI DUP4 SWAP2 PUSH3 0xF09 JUMPI JUMPDEST POP DUP2 EXTCODESIZE ISZERO PUSH3 0xF05 JUMPI DUP3 SWAP2 PUSH1 0x44 DUP4 SWAP3 PUSH1 0x40 MLOAD SWAP5 DUP6 SWAP4 DUP5 SWAP3 PUSH4 0x40C10F19 PUSH1 0xE0 SHL DUP5 MSTORE ADDRESS PUSH1 0x4 DUP6 ADD MSTORE NOT PUSH1 0x24 DUP5 ADD MSTORE GAS CALL DUP1 ISZERO PUSH3 0xE80 JUMPI PUSH3 0xEE9 JUMPI JUMPDEST POP POP PUSH1 0x7 SLOAD DUP2 SLOAD PUSH1 0x40 MLOAD PUSH4 0x95EA7B3 PUSH1 0xE0 SHL DUP1 DUP3 MSTORE PUSH1 0x1 PUSH1 0x1 PUSH1 0xA0 SHL SUB SWAP3 DUP4 AND PUSH1 0x4 DUP4 ADD MSTORE PUSH10 0x65A4DA25D3016C00000 PUSH1 0x24 DUP4 ADD DUP2 SWAP1 MSTORE SWAP1 SWAP4 SWAP2 SWAP3 SWAP1 SWAP2 PUSH1 0x20 SWAP2 DUP5 SWAP2 PUSH1 0x44 SWAP2 DUP4 SWAP2 DUP10 SWAP2 AND GAS CALL SWAP1 DUP2 ISZERO PUSH3 0xEDE JUMPI PUSH1 0x64 SWAP3 PUSH1 0x20 SWAP3 PUSH3 0xEBC JUMPI JUMPDEST POP DUP5 SLOAD PUSH1 0x40 MLOAD PUSH4 0x60EF07BF PUSH1 0xE0 SHL DUP2 MSTORE PUSH9 0xA2A15D09519BE00000 PUSH1 0x4 DUP3 ADD MSTORE PUSH1 0x24 DUP2 ADD SWAP3 SWAP1 SWAP3 MSTORE ADDRESS PUSH1 0x44 DUP4 ADD MSTORE DUP4 DUP3 ADD DUP7 SWAP1 MSTORE SWAP1 SWAP3 DUP4 SWAP2 PUSH1 0x84 SWAP2 DUP4 SWAP2 PUSH1 0x1 PUSH1 0x1 PUSH1 0xA0 SHL SUB AND GAS CALL DUP1 ISZERO PUSH3 0xE3F JUMPI PUSH3 0xE8B JUMPI JUMPDEST POP PUSH1 0x7 SLOAD DUP3 SLOAD PUSH1 0x40 MLOAD SWAP3 DUP4 MSTORE PUSH1 0x1 PUSH1 0x1 PUSH1 0xA0 SHL SUB SWAP1 DUP2 AND PUSH1 0x4 DUP5 ADD MSTORE PUSH9 0x3635C9ADC5DEA00000 PUSH1 0x24 DUP5 ADD MSTORE PUSH1 0x20 SWAP2 DUP4 SWAP2 PUSH1 0x44 SWAP2 DUP4 SWAP2 DUP8 SWAP2 AND GAS CALL DUP1 ISZERO PUSH3 0xE80 JUMPI PUSH3 0xE4A JUMPI JUMPDEST POP DUP1 SLOAD PUSH1 0x40 MLOAD PUSH3 0x7C6DA1 PUSH1 0xE2 SHL DUP2 MSTORE PUSH1 0x4 DUP2 ADD DUP4 SWAP1 MSTORE PUSH1 0x1 PUSH1 0x1 PUSH1 0xA0 SHL SUB SWAP1 SWAP2 AND SWAP1 PUSH1 0x20 DUP2 PUSH1 0x24 DUP2 DUP6 GAS STATICCALL SWAP1 DUP2 ISZERO PUSH3 0xE3F JUMPI DUP4 SWAP2 PUSH3 0xDF1 JUMPI JUMPDEST POP PUSH1 0x64 SWAP3 SWAP2 PUSH1 0xA4 PUSH1 0x20 SWAP3 PUSH1 0x40 MLOAD SWAP6 DUP7 SWAP4 DUP5 SWAP3 PUSH4 0xD2DC25A5 PUSH1 0xE0 SHL DUP5 MSTORE PUSH1 0x1 DUP1 PUSH1 0xA0 SHL SUB AND PUSH1 0x4 DUP5 ADD MSTORE PUSH10 0x4F9F00373A9EFB00000 PUSH1 0x24 DUP5 ADD MSTORE PUSH9 0x3635C9ADC5DEA00000 PUSH1 0x44 DUP5 ADD MSTORE ADDRESS DUP3 DUP5 ADD MSTORE DUP7 PUSH1 0x84 DUP5 ADD MSTORE GAS CALL SWAP1 DUP2 ISZERO PUSH3 0xDE5 JUMPI POP PUSH3 0xDAF JUMPI JUMPDEST PUSH1 0x40 MLOAD PUSH2 0xB2E SWAP1 DUP2 PUSH3 0x1124 DUP3 CODECOPY RETURN JUMPDEST PUSH1 0x20 SWAP1 DUP2 RETURNDATASIZE DUP4 GT PUSH3 0xDDD JUMPI JUMPDEST PUSH3 0xDC8 DUP2 DUP4 PUSH3 0x1070 JUMP JUMPDEST DUP2 ADD SUB SLT PUSH3 0xDD8 JUMPI CODESIZE PUSH3 0xD9F JUMP JUMPDEST PUSH1 0x0 DUP1 REVERT JUMPDEST POP RETURNDATASIZE PUSH3 0xDBC JUMP JUMPDEST PUSH1 0x40 MLOAD SWAP1 RETURNDATASIZE SWAP1 DUP3 RETURNDATACOPY RETURNDATASIZE SWAP1 REVERT JUMPDEST SWAP1 POP PUSH1 0x20 DUP2 RETURNDATASIZE PUSH1 0x20 GT PUSH3 0xE36 JUMPI JUMPDEST DUP2 PUSH3 0xE0F PUSH1 0x20 SWAP4 DUP4 PUSH3 0x1070 JUMP JUMPDEST DUP2 ADD SUB SLT PUSH3 0xE32 JUMPI MLOAD PUSH1 0x1 PUSH1 0x1 PUSH1 0xA0 SHL SUB DUP2 AND DUP2 SUB PUSH3 0xE32 JUMPI PUSH1 0x64 PUSH3 0xD3B JUMP JUMPDEST DUP3 DUP1 REVERT JUMPDEST RETURNDATASIZE SWAP2 POP PUSH3 0xE00 JUMP JUMPDEST PUSH1 0x40 MLOAD RETURNDATASIZE DUP6 DUP3 RETURNDATACOPY RETURNDATASIZE SWAP1 REVERT JUMPDEST PUSH3 0xE70 SWAP1 PUSH1 0x20 RETURNDATASIZE PUSH1 0x20 GT PUSH3 0xE78 JUMPI JUMPDEST PUSH3 0xE67 DUP2 DUP4 PUSH3 0x1070 JUMP JUMPDEST DUP2 ADD SWAP1 PUSH3 0x10AA JUMP JUMPDEST POP CODESIZE PUSH3 0xD00 JUMP JUMPDEST POP RETURNDATASIZE PUSH3 0xE5B JUMP JUMPDEST PUSH1 0x40 MLOAD RETURNDATASIZE DUP5 DUP3 RETURNDATACOPY RETURNDATASIZE SWAP1 REVERT JUMPDEST PUSH1 0x20 SWAP1 DUP2 RETURNDATASIZE DUP4 GT PUSH3 0xEB4 JUMPI JUMPDEST PUSH3 0xEA4 DUP2 DUP4 PUSH3 0x1070 JUMP JUMPDEST DUP2 ADD SUB SLT PUSH3 0xDD8 JUMPI CODESIZE PUSH3 0xCB9 JUMP JUMPDEST POP RETURNDATASIZE PUSH3 0xE98 JUMP JUMPDEST PUSH3 0xED6 SWAP1 DUP4 RETURNDATASIZE DUP6 GT PUSH3 0xE78 JUMPI PUSH3 0xE67 DUP2 DUP4 PUSH3 0x1070 JUMP JUMPDEST POP CODESIZE PUSH3 0xC65 JUMP JUMPDEST PUSH1 0x40 MLOAD RETURNDATASIZE DUP7 DUP3 RETURNDATACOPY RETURNDATASIZE SWAP1 REVERT JUMPDEST DUP2 PUSH3 0xEF5 SWAP2 PUSH3 0x1070 JUMP JUMPDEST PUSH3 0xF02 JUMPI DUP1 CODESIZE PUSH3 0xC05 JUMP JUMPDEST DUP1 REVERT JUMPDEST POP POP REVERT JUMPDEST SWAP3 POP POP PUSH1 0x20 DUP3 RETURNDATASIZE PUSH1 0x20 GT PUSH3 0xF3B JUMPI JUMPDEST DUP2 PUSH3 0xF28 PUSH1 0x20 SWAP4 DUP4 PUSH3 0x1070 JUMP JUMPDEST DUP2 ADD SUB SLT PUSH3 0xDD8 JUMPI DUP3 SWAP2 MLOAD CODESIZE PUSH3 0xBC9 JUMP JUMPDEST RETURNDATASIZE SWAP2 POP PUSH3 0xF19 JUMP JUMPDEST DUP2 PUSH3 0xF50 SWAP2 PUSH3 0x1070 JUMP JUMPDEST PUSH3 0xF02 JUMPI DUP1 CODESIZE PUSH3 0xB93 JUMP JUMPDEST PUSH4 0x4E487B71 PUSH1 0xE0 SHL DUP3 MSTORE PUSH1 0x41 PUSH1 0x4 MSTORE PUSH1 0x24 DUP3 REVERT JUMPDEST DUP2 PUSH3 0xF7D SWAP2 PUSH3 0x1070 JUMP JUMPDEST PUSH3 0xF8A JUMPI DUP2 CODESIZE PUSH3 0xA86 JUMP JUMPDEST POP DUP1 REVERT JUMPDEST DUP4 DUP1 REVERT JUMPDEST POP PUSH1 0x40 MLOAD SWAP1 RETURNDATASIZE SWAP1 DUP3 RETURNDATACOPY RETURNDATASIZE SWAP1 REVERT JUMPDEST DUP2 PUSH3 0xFAB SWAP2 PUSH3 0x1070 JUMP JUMPDEST PUSH3 0xF02 JUMPI DUP1 CODESIZE PUSH3 0x951 JUMP JUMPDEST DUP2 PUSH3 0xFC4 SWAP2 PUSH3 0x1070 JUMP JUMPDEST PUSH3 0xF02 JUMPI DUP1 CODESIZE PUSH3 0x90A JUMP JUMPDEST DUP2 PUSH3 0xFDD SWAP2 PUSH3 0x1070 JUMP JUMPDEST PUSH3 0xF02 JUMPI DUP1 CODESIZE PUSH3 0x8C3 JUMP JUMPDEST POP POP POP REVERT JUMPDEST DUP2 PUSH3 0xFFB SWAP2 PUSH3 0x1070 JUMP JUMPDEST PUSH3 0xF02 JUMPI DUP1 CODESIZE PUSH3 0x7B9 JUMP JUMPDEST DUP2 PUSH3 0x1014 SWAP2 PUSH3 0x1070 JUMP JUMPDEST PUSH3 0xF02 JUMPI DUP1 CODESIZE PUSH3 0x41B JUMP JUMPDEST PUSH3 0x102C SWAP2 PUSH3 0x1070 JUMP JUMPDEST CODESIZE DUP2 PUSH3 0x393 JUMP JUMPDEST PUSH4 0x4E487B71 PUSH1 0xE0 SHL DUP6 MSTORE PUSH1 0x41 PUSH1 0x4 MSTORE PUSH1 0x24 DUP6 REVERT JUMPDEST PUSH4 0x4E487B71 PUSH1 0xE0 SHL DUP5 MSTORE PUSH1 0x41 PUSH1 0x4 MSTORE PUSH1 0x24 DUP5 REVERT JUMPDEST PUSH4 0x4E487B71 PUSH1 0xE0 SHL DUP7 MSTORE PUSH1 0x41 PUSH1 0x4 MSTORE PUSH1 0x24 DUP7 REVERT JUMPDEST PUSH1 0x1F SWAP1 SWAP2 ADD PUSH1 0x1F NOT AND DUP2 ADD SWAP1 PUSH1 0x1 PUSH1 0x1 PUSH1 0x40 SHL SUB DUP3 GT SWAP1 DUP3 LT OR PUSH3 0x1094 JUMPI PUSH1 0x40 MSTORE JUMP JUMPDEST PUSH4 0x4E487B71 PUSH1 0xE0 SHL PUSH1 0x0 MSTORE PUSH1 0x41 PUSH1 0x4 MSTORE PUSH1 0x24 PUSH1 0x0 REVERT JUMPDEST SWAP1 DUP2 PUSH1 0x20 SWAP2 SUB SLT PUSH3 0xDD8 JUMPI MLOAD DUP1 ISZERO ISZERO DUP2 SUB PUSH3 0xDD8 JUMPI SWAP1 JUMP JUMPDEST PUSH1 0x40 MLOAD PUSH2 0x3F9 DUP1 DUP3 ADD SWAP1 PUSH1 0x1 PUSH1 0x1 PUSH1 0x40 SHL SUB DUP3 GT DUP4 DUP4 LT OR PUSH3 0x1094 JUMPI PUSH1 0x60 SWAP2 DUP4 SWAP2 PUSH3 0x1C52 DUP4 CODECOPY PUSH1 0x1 DUP1 PUSH1 0xA0 SHL SUB DUP1 SWAP6 AND DUP2 MSTORE PUSH1 0x40 PUSH1 0x20 DUP3 ADD MSTORE PUSH1 0x0 PUSH1 0x40 DUP3 ADD MSTORE SUB ADD SWAP1 PUSH1 0x0 CREATE DUP1 ISZERO PUSH3 0x1117 JUMPI AND SWAP1 JUMP JUMPDEST PUSH1 0x40 MLOAD RETURNDATASIZE PUSH1 0x0 DUP3 RETURNDATACOPY RETURNDATASIZE SWAP1 REVERT INVALID PUSH1 0x80 DUP1 PUSH1 0x40 MSTORE PUSH1 0x4 CALLDATASIZE LT ISZERO PUSH2 0x13 JUMPI PUSH1 0x0 DUP1 REVERT JUMPDEST PUSH1 0x0 SWAP1 DUP2 CALLDATALOAD PUSH1 0xE0 SHR SWAP1 DUP2 PUSH4 0xBB7F608 EQ PUSH2 0x9DF JUMPI POP DUP1 PUSH4 0x43DBD9DC EQ PUSH2 0x907 JUMPI DUP1 PUSH4 0x61461954 EQ PUSH2 0x311 JUMPI DUP1 PUSH4 0x82A5792C EQ PUSH2 0x219 JUMPI DUP1 PUSH4 0x8FF81E54 EQ PUSH2 0xF9 JUMPI PUSH4 0xF4076005 EQ PUSH2 0x63 JUMPI PUSH1 0x0 DUP1 REVERT JUMPDEST CALLVALUE PUSH2 0xF6 JUMPI PUSH1 0x20 CALLDATASIZE PUSH1 0x3 NOT ADD SLT PUSH2 0xF6 JUMPI PUSH1 0x64 PUSH1 0x20 PUSH1 0x1 DUP1 PUSH1 0xA0 SHL SUB DUP4 SLOAD AND PUSH1 0x84 PUSH1 0x40 MLOAD DUP1 SWAP5 DUP2 SWAP4 PUSH4 0x581F08D PUSH1 0xE5 SHL DUP4 MSTORE PUSH1 0x4 CALLDATALOAD PUSH1 0x4 DUP5 ADD MSTORE DUP8 PUSH1 0x24 DUP5 ADD MSTORE ADDRESS PUSH1 0x44 DUP5 ADD MSTORE DUP8 DUP3 DUP5 ADD MSTORE GAS CALL DUP1 ISZERO PUSH2 0xEB JUMPI PUSH2 0xBE JUMPI POP DUP1 RETURN JUMPDEST PUSH1 0x20 SWAP1 DUP2 RETURNDATASIZE DUP2 GT PUSH2 0xE4 JUMPI JUMPDEST PUSH2 0xD4 DUP2 DUP4 PUSH2 0xA61 JUMP JUMPDEST DUP2 ADD SUB SLT PUSH2 0xDF JUMPI DUP1 RETURN JUMPDEST PUSH1 0x0 DUP1 REVERT JUMPDEST POP RETURNDATASIZE PUSH2 0xCA JUMP JUMPDEST PUSH1 0x40 MLOAD RETURNDATASIZE DUP5 DUP3 RETURNDATACOPY RETURNDATASIZE SWAP1 REVERT JUMPDEST DUP1 REVERT JUMPDEST POP CALLVALUE PUSH2 0xF6 JUMPI PUSH1 0x20 CALLDATASIZE PUSH1 0x3 NOT ADD SLT PUSH2 0xF6 JUMPI PUSH1 0x4 CALLDATALOAD SWAP1 PUSH12 0xFFFFFFFFFFFFFFFFFFFFFFFF DUP1 DUP4 AND DUP1 SWAP4 SUB PUSH2 0x215 JUMPI DUP1 DUP4 EQ PUSH2 0x201 JUMPI DUP2 SWAP3 PUSH1 0x1 DUP1 PUSH1 0xA0 SHL SUB PUSH1 0x24 PUSH1 0x40 DUP3 DUP7 SLOAD AND DUP2 MLOAD SWAP3 DUP4 DUP1 SWAP3 PUSH4 0x4B746001 PUSH1 0xE0 SHL DUP3 MSTORE DUP10 PUSH1 0x4 DUP4 ADD MSTORE GAS STATICCALL SWAP1 DUP2 ISZERO PUSH2 0x1F6 JUMPI DUP6 SWAP2 PUSH2 0x1B4 JUMPI JUMPDEST POP AND SWAP1 DUP2 EXTCODESIZE ISZERO PUSH2 0x1AF JUMPI PUSH1 0x24 PUSH1 0x1 SWAP2 DUP6 DUP1 SWAP5 PUSH1 0x40 MLOAD SWAP7 DUP8 SWAP6 DUP7 SWAP5 PUSH4 0x32145F9 PUSH1 0xE4 SHL DUP7 MSTORE ADD AND PUSH1 0x4 DUP5 ADD MSTORE GAS CALL DUP1 ISZERO PUSH2 0xEB JUMPI PUSH2 0x19E JUMPI POP RETURN JUMPDEST DUP2 PUSH2 0x1A8 SWAP2 PUSH2 0xA61 JUMP JUMPDEST PUSH2 0xF6 JUMPI DUP1 RETURN JUMPDEST POP POP POP REVERT JUMPDEST SWAP1 POP PUSH1 0x40 DUP2 RETURNDATASIZE PUSH1 0x40 GT PUSH2 0x1EE JUMPI JUMPDEST DUP2 PUSH2 0x1CF PUSH1 0x40 SWAP4 DUP4 PUSH2 0xA61 JUMP JUMPDEST DUP2 ADD SUB SLT PUSH2 0x1EA JUMPI PUSH1 0x20 ADD MLOAD DUP2 DUP2 AND DUP2 SUB PUSH2 0x1EA JUMPI CODESIZE PUSH2 0x164 JUMP JUMPDEST DUP5 DUP1 REVERT JUMPDEST RETURNDATASIZE SWAP2 POP PUSH2 0x1C2 JUMP JUMPDEST PUSH1 0x40 MLOAD RETURNDATASIZE DUP8 DUP3 RETURNDATACOPY RETURNDATASIZE SWAP1 REVERT JUMPDEST PUSH4 0x4E487B71 PUSH1 0xE0 SHL DUP3 MSTORE PUSH1 0x11 PUSH1 0x4 MSTORE PUSH1 0x24 DUP3 REVERT JUMPDEST POP DUP1 REVERT JUMPDEST POP CALLVALUE PUSH2 0xF6 JUMPI PUSH1 0x40 CALLDATASIZE PUSH1 0x3 NOT ADD SLT PUSH2 0xDF JUMPI DUP1 SLOAD PUSH1 0x40 MLOAD PUSH3 0x7C6DA1 PUSH1 0xE2 SHL DUP2 MSTORE PUSH1 0x4 DUP2 ADD DUP4 SWAP1 MSTORE PUSH1 0x20 SWAP2 PUSH1 0x1 PUSH1 0x1 PUSH1 0xA0 SHL SUB SWAP1 DUP2 AND SWAP2 SWAP1 DUP4 DUP3 PUSH1 0x24 DUP2 DUP7 GAS STATICCALL SWAP2 DUP3 ISZERO PUSH2 0x1F6 JUMPI DUP5 SWAP3 PUSH1 0xA4 SWAP2 DUP8 SWAP2 PUSH2 0x2E4 JUMPI JUMPDEST POP PUSH1 0x64 PUSH1 0x40 MLOAD SWAP6 DUP7 SWAP5 DUP6 SWAP4 PUSH4 0xD2DC25A5 PUSH1 0xE0 SHL DUP6 MSTORE AND PUSH1 0x4 DUP5 ADD MSTORE PUSH1 0x4 CALLDATALOAD PUSH1 0x24 DUP5 ADD MSTORE PUSH1 0x24 CALLDATALOAD PUSH1 0x44 DUP5 ADD MSTORE ADDRESS DUP3 DUP5 ADD MSTORE DUP9 PUSH1 0x84 DUP5 ADD MSTORE GAS CALL DUP1 ISZERO PUSH2 0x2D9 JUMPI PUSH2 0x2B1 JUMPI DUP3 DUP1 RETURN JUMPDEST DUP2 RETURNDATASIZE DUP4 GT PUSH2 0x2D2 JUMPI JUMPDEST PUSH2 0x2C4 DUP2 DUP4 PUSH2 0xA61 JUMP JUMPDEST DUP2 ADD SUB SLT PUSH2 0xDF JUMPI CODESIZE DUP1 DUP3 DUP1 RETURN JUMPDEST POP RETURNDATASIZE PUSH2 0x2BA JUMP JUMPDEST PUSH1 0x40 MLOAD RETURNDATASIZE DUP6 DUP3 RETURNDATACOPY RETURNDATASIZE SWAP1 REVERT JUMPDEST PUSH2 0x304 SWAP2 POP DUP5 RETURNDATASIZE DUP7 GT PUSH2 0x30A JUMPI JUMPDEST PUSH2 0x2FC DUP2 DUP4 PUSH2 0xA61 JUMP JUMPDEST DUP2 ADD SWAP1 PUSH2 0xA99 JUMP JUMPDEST CODESIZE PUSH2 0x26B JUMP JUMPDEST POP RETURNDATASIZE PUSH2 0x2F2 JUMP JUMPDEST POP CALLVALUE PUSH2 0xF6 JUMPI DUP1 PUSH1 0x3 NOT CALLDATASIZE ADD SLT PUSH2 0xF6 JUMPI PUSH1 0x1 SLOAD PUSH1 0x40 MLOAD PUSH4 0x1A07F9C3 PUSH1 0xE2 SHL DUP2 MSTORE PUSH1 0x1 PUSH1 0x1 PUSH1 0xA0 SHL SUB SWAP1 SWAP2 AND SWAP1 PUSH1 0x20 DUP2 PUSH1 0x4 DUP2 DUP6 GAS STATICCALL SWAP1 DUP2 ISZERO PUSH2 0x2D9 JUMPI DUP4 SWAP2 PUSH2 0x8CC JUMPI JUMPDEST POP PUSH2 0x215 JUMPI PUSH1 0xC SLOAD PUSH1 0x6 SLOAD PUSH1 0x40 MLOAD PUSH4 0x70A08231 PUSH1 0xE0 SHL DUP2 MSTORE ADDRESS PUSH1 0x4 DUP3 ADD MSTORE SWAP4 SWAP2 PUSH1 0x1 PUSH1 0x1 PUSH1 0xA0 SHL SUB SWAP1 DUP2 AND SWAP2 DUP3 BALANCE SWAP2 PUSH1 0x20 SWAP2 DUP8 SWAP2 PUSH1 0x24 SWAP2 DUP4 SWAP2 AND GAS STATICCALL SWAP4 DUP5 ISZERO PUSH2 0x2D9 JUMPI DUP4 SWAP5 PUSH2 0x893 JUMPI JUMPDEST DUP4 SLOAD PUSH1 0x40 MLOAD PUSH3 0x7C6DA1 PUSH1 0xE2 SHL DUP2 MSTORE PUSH1 0x4 DUP2 ADD DUP7 SWAP1 MSTORE SWAP7 POP PUSH1 0x20 SWAP1 DUP8 SWAP1 PUSH1 0x24 SWAP1 DUP3 SWAP1 PUSH1 0x1 PUSH1 0x1 PUSH1 0xA0 SHL SUB AND GAS STATICCALL SWAP6 DUP7 ISZERO PUSH2 0x888 JUMPI DUP5 SWAP6 SWAP7 PUSH1 0x20 SWAP2 PUSH1 0x24 SWAP7 SWAP2 PUSH2 0x86B JUMPI JUMPDEST POP PUSH1 0x40 MLOAD PUSH4 0x70A08231 PUSH1 0xE0 SHL DUP2 MSTORE ADDRESS PUSH1 0x4 DUP3 ADD MSTORE SWAP6 DUP7 SWAP2 DUP3 SWAP1 PUSH1 0x1 PUSH1 0x1 PUSH1 0xA0 SHL SUB AND GAS STATICCALL SWAP4 DUP5 ISZERO PUSH2 0x1F6 JUMPI DUP6 SWAP5 PUSH2 0x837 JUMPI JUMPDEST POP PUSH1 0x40 MLOAD PUSH4 0x2B994849 PUSH1 0xE0 SHL DUP2 MSTORE SWAP3 PUSH1 0x20 DUP5 PUSH1 0x4 DUP2 DUP6 GAS STATICCALL SWAP4 DUP5 ISZERO PUSH2 0x6FC JUMPI DUP7 SWAP5 PUSH2 0x803 JUMPI JUMPDEST POP DUP2 EXTCODESIZE ISZERO PUSH2 0x6F0 JUMPI DUP6 SWAP2 PUSH1 0x24 DUP4 SWAP3 PUSH1 0x40 MLOAD SWAP5 DUP6 SWAP4 DUP5 SWAP3 PUSH4 0x25B27249 PUSH1 0xE1 SHL DUP5 MSTORE PUSH1 0x4 DUP5 ADD MSTORE GAS CALL DUP1 ISZERO PUSH2 0x1F6 JUMPI PUSH2 0x7EE JUMPI JUMPDEST POP PUSH1 0xC SLOAD PUSH1 0x6 SLOAD PUSH1 0x40 MLOAD PUSH4 0x70A08231 PUSH1 0xE0 SHL DUP2 MSTORE ADDRESS PUSH1 0x4 DUP3 ADD MSTORE SWAP6 SWAP7 SWAP5 SWAP6 SWAP5 PUSH1 0x1 PUSH1 0x1 PUSH1 0xA0 SHL SUB SWAP3 DUP4 AND BALANCE SWAP5 SWAP1 SWAP3 SWAP1 SWAP2 PUSH1 0x20 SWAP2 DUP8 SWAP2 PUSH1 0x24 SWAP2 DUP4 SWAP2 AND GAS STATICCALL SWAP5 DUP6 ISZERO PUSH2 0x7E3 JUMPI DUP8 SWAP6 PUSH2 0x7AF JUMPI JUMPDEST POP DUP7 SLOAD PUSH1 0x40 MLOAD PUSH3 0x7C6DA1 PUSH1 0xE2 SHL DUP2 MSTORE PUSH1 0x4 DUP2 ADD DUP10 SWAP1 MSTORE PUSH1 0x1 PUSH1 0x1 PUSH1 0xA0 SHL SUB SWAP1 SWAP2 AND SWAP7 SWAP1 PUSH1 0x20 DUP2 PUSH1 0x24 DUP2 DUP12 GAS STATICCALL SWAP1 DUP2 ISZERO PUSH2 0x787 JUMPI PUSH1 0x24 SWAP2 PUSH1 0x20 SWAP2 DUP12 SWAP2 PUSH2 0x792 JUMPI JUMPDEST POP PUSH1 0x40 MLOAD PUSH4 0x70A08231 PUSH1 0xE0 SHL DUP2 MSTORE ADDRESS PUSH1 0x4 DUP3 ADD MSTORE SWAP3 DUP4 SWAP2 DUP3 SWAP1 PUSH1 0x1 PUSH1 0x1 PUSH1 0xA0 SHL SUB AND GAS STATICCALL SWAP1 DUP2 ISZERO PUSH2 0x787 JUMPI DUP10 SWAP2 PUSH2 0x755 JUMPI JUMPDEST POP PUSH1 0x1 SLOAD PUSH1 0x40 MLOAD PUSH4 0x2B994849 PUSH1 0xE0 SHL DUP2 MSTORE PUSH1 0x1 PUSH1 0x1 PUSH1 0xA0 SHL SUB SWAP1 SWAP2 AND SWAP8 SWAP1 SWAP5 PUSH1 0x20 DUP7 PUSH1 0x4 DUP2 DUP13 GAS STATICCALL SWAP6 DUP7 ISZERO PUSH2 0x74A JUMPI DUP12 SWAP7 PUSH2 0x716 JUMPI JUMPDEST POP EQ SWAP2 DUP3 ISZERO SWAP3 PUSH2 0x70B JUMPI JUMPDEST POP POP ISZERO PUSH2 0x707 JUMPI PUSH2 0x57E PUSH1 0x20 SWAP2 PUSH1 0x4 SWAP4 PUSH2 0xAB8 JUMP JUMPDEST SWAP5 PUSH1 0x40 MLOAD SWAP3 DUP4 DUP1 SWAP3 PUSH4 0x36EC2DA1 PUSH1 0xE2 SHL DUP3 MSTORE GAS STATICCALL SWAP1 DUP2 ISZERO PUSH2 0x6FC JUMPI DUP7 SWAP2 PUSH2 0x6B2 JUMPI JUMPDEST POP SWAP2 PUSH2 0x5BA PUSH1 0x1 PUSH1 0x1 PUSH1 0x80 SHL SUB PUSH2 0x5BF SWAP5 AND DUP6 GT ISZERO PUSH2 0xADB JUMP JUMPDEST PUSH2 0xAB8 JUMP JUMPDEST DUP2 PUSH1 0x64 MUL SWAP2 PUSH1 0x64 DUP4 DIV SUB PUSH2 0x69E JUMPI PUSH2 0x5D7 SWAP2 EQ PUSH2 0xADB JUMP JUMPDEST PUSH1 0x40 MLOAD PUSH4 0x104DF9AB PUSH1 0xE3 SHL DUP2 MSTORE SWAP1 PUSH1 0x20 DUP3 PUSH1 0x4 DUP2 DUP5 GAS STATICCALL SWAP2 DUP3 ISZERO PUSH2 0x2D9 JUMPI DUP4 SWAP3 PUSH2 0x669 JUMPI JUMPDEST POP SWAP1 PUSH1 0x20 PUSH1 0x4 SWAP3 PUSH1 0x40 MLOAD SWAP4 DUP5 DUP1 SWAP3 PUSH4 0x198804FD PUSH1 0xE2 SHL DUP3 MSTORE GAS STATICCALL SWAP1 DUP2 ISZERO PUSH2 0x2D9 JUMPI DUP4 SWAP2 PUSH2 0x633 JUMPI JUMPDEST PUSH2 0x630 SWAP3 POP LT ISZERO PUSH2 0xADB JUMP JUMPDEST DUP1 RETURN JUMPDEST SWAP1 POP PUSH1 0x20 DUP3 RETURNDATASIZE PUSH1 0x20 GT PUSH2 0x661 JUMPI JUMPDEST DUP2 PUSH2 0x64E PUSH1 0x20 SWAP4 DUP4 PUSH2 0xA61 JUMP JUMPDEST DUP2 ADD SUB SLT PUSH2 0xDF JUMPI PUSH2 0x630 SWAP2 MLOAD SWAP1 PUSH2 0x624 JUMP JUMPDEST RETURNDATASIZE SWAP2 POP PUSH2 0x641 JUMP JUMPDEST SWAP2 POP PUSH1 0x20 DUP3 RETURNDATASIZE PUSH1 0x20 GT PUSH2 0x696 JUMPI JUMPDEST DUP2 PUSH2 0x684 PUSH1 0x20 SWAP4 DUP4 PUSH2 0xA61 JUMP JUMPDEST DUP2 ADD SUB SLT PUSH2 0xDF JUMPI SWAP1 MLOAD SWAP1 PUSH1 0x20 PUSH2 0x5FC JUMP JUMPDEST RETURNDATASIZE SWAP2 POP PUSH2 0x677 JUMP JUMPDEST PUSH4 0x4E487B71 PUSH1 0xE0 SHL DUP5 MSTORE PUSH1 0x11 PUSH1 0x4 MSTORE PUSH1 0x24 DUP5 REVERT JUMPDEST SWAP1 POP PUSH1 0x20 DUP2 RETURNDATASIZE PUSH1 0x20 GT PUSH2 0x6F4 JUMPI JUMPDEST DUP2 PUSH2 0x6CD PUSH1 0x20 SWAP4 DUP4 PUSH2 0xA61 JUMP JUMPDEST DUP2 ADD SUB SLT PUSH2 0x6F0 JUMPI MLOAD SWAP2 PUSH1 0x1 PUSH1 0x1 PUSH1 0x80 SHL SUB DUP4 AND DUP4 SUB PUSH2 0x6F0 JUMPI SWAP2 PUSH2 0x5BA PUSH2 0x5A0 JUMP JUMPDEST DUP6 DUP1 REVERT JUMPDEST RETURNDATASIZE SWAP2 POP PUSH2 0x6C0 JUMP JUMPDEST PUSH1 0x40 MLOAD RETURNDATASIZE DUP9 DUP3 RETURNDATACOPY RETURNDATASIZE SWAP1 REVERT JUMPDEST DUP7 DUP1 REVERT JUMPDEST EQ ISZERO SWAP1 POP CODESIZE DUP1 PUSH2 0x569 JUMP JUMPDEST SWAP1 SWAP6 POP PUSH1 0x20 DUP2 RETURNDATASIZE PUSH1 0x20 GT PUSH2 0x742 JUMPI JUMPDEST DUP2 PUSH2 0x732 PUSH1 0x20 SWAP4 DUP4 PUSH2 0xA61 JUMP JUMPDEST DUP2 ADD SUB SLT PUSH2 0xDF JUMPI MLOAD SWAP5 CODESIZE PUSH2 0x55E JUMP JUMPDEST RETURNDATASIZE SWAP2 POP PUSH2 0x725 JUMP JUMPDEST PUSH1 0x40 MLOAD RETURNDATASIZE DUP14 DUP3 RETURNDATACOPY RETURNDATASIZE SWAP1 REVERT JUMPDEST SWAP1 POP PUSH1 0x20 DUP2 RETURNDATASIZE PUSH1 0x20 GT PUSH2 0x77F JUMPI JUMPDEST DUP2 PUSH2 0x770 PUSH1 0x20 SWAP4 DUP4 PUSH2 0xA61 JUMP JUMPDEST DUP2 ADD SUB SLT PUSH2 0xDF JUMPI MLOAD CODESIZE PUSH2 0x528 JUMP JUMPDEST RETURNDATASIZE SWAP2 POP PUSH2 0x763 JUMP JUMPDEST PUSH1 0x40 MLOAD RETURNDATASIZE DUP12 DUP3 RETURNDATACOPY RETURNDATASIZE SWAP1 REVERT JUMPDEST PUSH2 0x7A9 SWAP2 POP DUP3 RETURNDATASIZE DUP5 GT PUSH2 0x30A JUMPI PUSH2 0x2FC DUP2 DUP4 PUSH2 0xA61 JUMP JUMPDEST CODESIZE PUSH2 0x4F6 JUMP JUMPDEST SWAP1 SWAP5 POP PUSH1 0x20 DUP2 RETURNDATASIZE PUSH1 0x20 GT PUSH2 0x7DB JUMPI JUMPDEST DUP2 PUSH2 0x7CB PUSH1 0x20 SWAP4 DUP4 PUSH2 0xA61 JUMP JUMPDEST DUP2 ADD SUB SLT PUSH2 0xDF JUMPI MLOAD SWAP4 CODESIZE PUSH2 0x4B6 JUMP JUMPDEST RETURNDATASIZE SWAP2 POP PUSH2 0x7BE JUMP JUMPDEST PUSH1 0x40 MLOAD RETURNDATASIZE DUP10 DUP3 RETURNDATACOPY RETURNDATASIZE SWAP1 REVERT JUMPDEST SWAP4 PUSH2 0x7FC DUP2 PUSH1 0x24 SWAP6 SWAP7 PUSH2 0xA61 JUMP JUMPDEST SWAP4 SWAP3 PUSH2 0x46B JUMP JUMPDEST SWAP1 SWAP4 POP PUSH1 0x20 DUP2 RETURNDATASIZE PUSH1 0x20 GT PUSH2 0x82F JUMPI JUMPDEST DUP2 PUSH2 0x81F PUSH1 0x20 SWAP4 DUP4 PUSH2 0xA61 JUMP JUMPDEST DUP2 ADD SUB SLT PUSH2 0x6F0 JUMPI MLOAD SWAP3 CODESIZE PUSH2 0x439 JUMP JUMPDEST RETURNDATASIZE SWAP2 POP PUSH2 0x812 JUMP JUMPDEST SWAP1 SWAP4 POP PUSH1 0x20 DUP2 RETURNDATASIZE PUSH1 0x20 GT PUSH2 0x863 JUMPI JUMPDEST DUP2 PUSH2 0x853 PUSH1 0x20 SWAP4 DUP4 PUSH2 0xA61 JUMP JUMPDEST DUP2 ADD SUB SLT PUSH2 0x1EA JUMPI MLOAD SWAP3 CODESIZE PUSH2 0x413 JUMP JUMPDEST RETURNDATASIZE SWAP2 POP PUSH2 0x846 JUMP JUMPDEST PUSH2 0x882 SWAP2 POP DUP3 RETURNDATASIZE DUP5 GT PUSH2 0x30A JUMPI PUSH2 0x2FC DUP2 DUP4 PUSH2 0xA61 JUMP JUMPDEST CODESIZE PUSH2 0x3E1 JUMP JUMPDEST PUSH1 0x40 MLOAD RETURNDATASIZE DUP7 DUP3 RETURNDATACOPY RETURNDATASIZE SWAP1 REVERT JUMPDEST SWAP4 POP PUSH1 0x20 DUP6 RETURNDATASIZE PUSH1 0x20 GT PUSH2 0x8C4 JUMPI JUMPDEST DUP2 PUSH2 0x8AE PUSH1 0x20 SWAP4 DUP4 PUSH2 0xA61 JUMP JUMPDEST DUP2 ADD SUB SLT PUSH2 0x8C0 JUMPI PUSH1 0x24 SWAP5 MLOAD SWAP4 PUSH2 0x39F JUMP JUMPDEST DUP3 DUP1 REVERT JUMPDEST RETURNDATASIZE SWAP2 POP PUSH2 0x8A1 JUMP JUMPDEST SWAP1 POP PUSH1 0x20 DUP2 RETURNDATASIZE PUSH1 0x20 GT PUSH2 0x8FF JUMPI JUMPDEST DUP2 PUSH2 0x8E7 PUSH1 0x20 SWAP4 DUP4 PUSH2 0xA61 JUMP JUMPDEST DUP2 ADD SUB SLT PUSH2 0x8C0 JUMPI MLOAD DUP1 ISZERO ISZERO DUP2 SUB PUSH2 0x8C0 JUMPI CODESIZE PUSH2 0x355 JUMP JUMPDEST RETURNDATASIZE SWAP2 POP PUSH2 0x8DA JUMP JUMPDEST POP CALLVALUE PUSH2 0xF6 JUMPI PUSH1 0x20 DUP1 PUSH1 0x3 NOT CALLDATASIZE ADD SLT PUSH2 0x215 JUMPI DUP2 SLOAD PUSH1 0x40 MLOAD PUSH3 0x7C6DA1 PUSH1 0xE2 SHL DUP2 MSTORE PUSH1 0x4 DUP2 ADD DUP5 SWAP1 MSTORE PUSH1 0x1 PUSH1 0x1 PUSH1 0xA0 SHL SUB SWAP2 DUP3 AND SWAP2 DUP4 DUP3 PUSH1 0x24 DUP2 DUP7 GAS STATICCALL SWAP2 DUP3 ISZERO PUSH2 0x1F6 JUMPI DUP5 SWAP3 PUSH1 0xA4 SWAP2 DUP8 SWAP2 PUSH2 0x9C2 JUMPI JUMPDEST POP PUSH1 0x64 PUSH1 0x40 MLOAD SWAP6 DUP7 SWAP5 DUP6 SWAP4 PUSH4 0xBB32C47 PUSH1 0xE2 SHL DUP6 MSTORE AND PUSH1 0x4 DUP5 ADD MSTORE PUSH1 0x4 CALLDATALOAD PUSH1 0x24 DUP5 ADD MSTORE DUP9 PUSH1 0x44 DUP5 ADD MSTORE ADDRESS DUP3 DUP5 ADD MSTORE DUP9 PUSH1 0x84 DUP5 ADD MSTORE GAS CALL DUP1 ISZERO PUSH2 0x2D9 JUMPI PUSH2 0x99A JUMPI DUP3 DUP1 RETURN JUMPDEST DUP2 RETURNDATASIZE DUP4 GT PUSH2 0x9BB JUMPI JUMPDEST PUSH2 0x9AD DUP2 DUP4 PUSH2 0xA61 JUMP JUMPDEST DUP2 ADD SUB SLT PUSH2 0xF6 JUMPI CODESIZE DUP1 DUP3 DUP1 RETURN JUMPDEST POP RETURNDATASIZE PUSH2 0x9A3 JUMP JUMPDEST PUSH2 0x9D9 SWAP2 POP DUP5 RETURNDATASIZE DUP7 GT PUSH2 0x30A JUMPI PUSH2 0x2FC DUP2 DUP4 PUSH2 0xA61 JUMP JUMPDEST CODESIZE PUSH2 0x956 JUMP JUMPDEST SWAP1 POP CALLVALUE PUSH2 0x215 JUMPI PUSH1 0x40 CALLDATASIZE PUSH1 0x3 NOT ADD SLT PUSH2 0x215 JUMPI PUSH1 0x20 DUP2 PUSH1 0x84 DUP2 PUSH1 0x64 PUSH1 0x1 DUP1 PUSH1 0xA0 SHL SUB DUP8 SLOAD AND PUSH4 0x60EF07BF PUSH1 0xE0 SHL DUP4 MSTORE PUSH1 0x4 CALLDATALOAD PUSH1 0x4 DUP5 ADD MSTORE PUSH1 0x24 CALLDATALOAD PUSH1 0x24 DUP5 ADD MSTORE ADDRESS PUSH1 0x44 DUP5 ADD MSTORE DUP8 DUP3 DUP5 ADD MSTORE GAS CALL DUP1 ISZERO PUSH2 0xEB JUMPI PUSH2 0xA39 JUMPI POP DUP1 RETURN JUMPDEST PUSH1 0x20 SWAP1 DUP2 RETURNDATASIZE DUP2 GT PUSH2 0xA5A JUMPI JUMPDEST PUSH2 0xA4F DUP2 DUP4 PUSH2 0xA61 JUMP JUMPDEST DUP2 ADD SUB SLT PUSH2 0xF6 JUMPI DUP1 RETURN JUMPDEST POP RETURNDATASIZE PUSH2 0xA45 JUMP JUMPDEST SWAP1 PUSH1 0x1F DUP1 NOT SWAP2 ADD AND DUP2 ADD SWAP1 DUP2 LT PUSH8 0xFFFFFFFFFFFFFFFF DUP3 GT OR PUSH2 0xA83 JUMPI PUSH1 0x40 MSTORE JUMP JUMPDEST PUSH4 0x4E487B71 PUSH1 0xE0 SHL PUSH1 0x0 MSTORE PUSH1 0x41 PUSH1 0x4 MSTORE PUSH1 0x24 PUSH1 0x0 REVERT JUMPDEST SWAP1 DUP2 PUSH1 0x20 SWAP2 SUB SLT PUSH2 0xDF JUMPI MLOAD PUSH1 0x1 PUSH1 0x1 PUSH1 0xA0 SHL SUB DUP2 AND DUP2 SUB PUSH2 0xDF JUMPI SWAP1 JUMP JUMPDEST SWAP2 SWAP1 DUP3 SUB SWAP2 DUP3 GT PUSH2 0xAC5 JUMPI JUMP JUMPDEST PUSH4 0x4E487B71 PUSH1 0xE0 SHL PUSH1 0x0 MSTORE PUSH1 0x11 PUSH1 0x4 MSTORE PUSH1 0x24 PUSH1 0x0 REVERT JUMPDEST ISZERO PUSH2 0xAE2 JUMPI JUMP JUMPDEST PUSH4 0x4E487B71 PUSH1 0xE0 SHL PUSH1 0x0 MSTORE PUSH1 0x1 PUSH1 0x4 MSTORE PUSH1 0x24 PUSH1 0x0 REVERT INVALID LOG2 PUSH5 0x6970667358 0x22 SLT KECCAK256 SAR DUP3 0x2A PUSH26 0xC343BA5EA6518FA23FDB351551523FE4D9347CB340168DF1610F SSTORE PUSH29 0x64736F6C6343000814003360806040526103F980380380610014816101 0xFB JUMP JUMPDEST SWAP3 DUP4 CODECOPY DUP2 ADD SWAP1 PUSH1 0x40 DUP2 DUP4 SUB SLT PUSH2 0x1F6 JUMPI DUP1 MLOAD SWAP1 PUSH1 0x1 PUSH1 0x1 PUSH1 0xA0 SHL SUB DUP3 AND DUP1 DUP4 SUB PUSH2 0x1F6 JUMPI PUSH1 0x20 DUP3 DUP2 ADD MLOAD SWAP1 SWAP3 PUSH1 0x1 PUSH1 0x1 PUSH1 0x40 SHL SUB DUP3 GT PUSH2 0x1F6 JUMPI ADD SWAP3 DUP5 PUSH1 0x1F DUP6 ADD SLT ISZERO PUSH2 0x1F6 JUMPI DUP4 MLOAD SWAP4 PUSH2 0x6F PUSH2 0x6A DUP7 PUSH2 0x236 JUMP JUMPDEST PUSH2 0x1FB JUMP JUMPDEST SWAP5 DUP1 DUP7 MSTORE DUP5 DUP7 ADD SWAP7 DUP6 DUP3 DUP5 ADD ADD GT PUSH2 0x1F6 JUMPI DUP7 DUP6 PUSH2 0x8D SWAP4 ADD PUSH2 0x251 JUMP JUMPDEST DUP1 EXTCODESIZE ISZERO PUSH2 0x19B JUMPI PUSH32 0x360894A13BA1A3210667C828492DB98DCA3E2076CC3735A920A3CA505D382BBC DUP1 SLOAD PUSH1 0x1 PUSH1 0x1 PUSH1 0xA0 SHL SUB NOT AND DUP4 OR SWAP1 SSTORE PUSH1 0x0 SWAP2 PUSH32 0xBC7CD75A20EE27FD9ADEBAB32041F755214DBC6BFFA90CC0225B39DA2E5C2D3B DUP4 DUP1 LOG2 DUP4 MLOAD ISZERO DUP1 ISZERO SWAP1 PUSH2 0x194 JUMPI JUMPDEST PUSH2 0x10A JUMPI JUMPDEST PUSH1 0x40 MLOAD PUSH1 0xD1 SWAP1 DUP2 PUSH2 0x328 DUP3 CODECOPY RETURN JUMPDEST DUP2 DUP1 PUSH2 0x17F SWAP7 PUSH2 0x11D PUSH2 0x6A PUSH1 0x27 PUSH2 0x236 JUMP JUMPDEST SWAP7 PUSH1 0x27 DUP9 MSTORE PUSH32 0x416464726573733A206C6F772D6C6576656C2064656C65676174652063616C6C DUP8 DUP10 ADD MSTORE PUSH7 0x819985A5B1959 PUSH1 0xCA SHL PUSH1 0x40 DUP10 ADD MSTORE MLOAD SWAP1 DUP5 GAS DELEGATECALL SWAP2 RETURNDATASIZE ISZERO PUSH2 0x18A JUMPI RETURNDATASIZE SWAP1 PUSH2 0x171 PUSH2 0x6A DUP4 PUSH2 0x236 JUMP JUMPDEST SWAP2 DUP3 MSTORE DUP2 SWAP5 RETURNDATASIZE SWAP3 ADD RETURNDATACOPY PUSH2 0x274 JUMP JUMPDEST POP CODESIZE DUP1 DUP1 DUP1 DUP1 PUSH2 0xFC JUMP JUMPDEST POP PUSH1 0x60 SWAP3 POP PUSH2 0x274 JUMP JUMPDEST POP DUP2 PUSH2 0xF7 JUMP JUMPDEST PUSH1 0x40 MLOAD PUSH3 0x461BCD PUSH1 0xE5 SHL DUP2 MSTORE PUSH1 0x4 DUP2 ADD DUP5 SWAP1 MSTORE PUSH1 0x2D PUSH1 0x24 DUP3 ADD MSTORE PUSH32 0x455243313936373A206E657720696D706C656D656E746174696F6E206973206E PUSH1 0x44 DUP3 ADD MSTORE PUSH13 0x1BDD08184818DBDB9D1C9858DD PUSH1 0x9A SHL PUSH1 0x64 DUP3 ADD MSTORE PUSH1 0x84 SWAP1 REVERT JUMPDEST PUSH1 0x0 DUP1 REVERT JUMPDEST PUSH1 0x40 MLOAD SWAP2 SWAP1 PUSH1 0x1F ADD PUSH1 0x1F NOT AND DUP3 ADD PUSH1 0x1 PUSH1 0x1 PUSH1 0x40 SHL SUB DUP2 GT DUP4 DUP3 LT OR PUSH2 0x220 JUMPI PUSH1 0x40 MSTORE JUMP JUMPDEST PUSH4 0x4E487B71 PUSH1 0xE0 SHL PUSH1 0x0 MSTORE PUSH1 0x41 PUSH1 0x4 MSTORE PUSH1 0x24 PUSH1 0x0 REVERT JUMPDEST PUSH1 0x1 PUSH1 0x1 PUSH1 0x40 SHL SUB DUP2 GT PUSH2 0x220 JUMPI PUSH1 0x1F ADD PUSH1 0x1F NOT AND PUSH1 0x20 ADD SWAP1 JUMP JUMPDEST PUSH1 0x0 JUMPDEST DUP4 DUP2 LT PUSH2 0x264 JUMPI POP POP PUSH1 0x0 SWAP2 ADD MSTORE JUMP JUMPDEST DUP2 DUP2 ADD MLOAD DUP4 DUP3 ADD MSTORE PUSH1 0x20 ADD PUSH2 0x254 JUMP JUMPDEST SWAP2 SWAP3 SWAP1 ISZERO PUSH2 0x2D6 JUMPI POP DUP2 MLOAD ISZERO PUSH2 0x288 JUMPI POP SWAP1 JUMP JUMPDEST EXTCODESIZE ISZERO PUSH2 0x291 JUMPI SWAP1 JUMP JUMPDEST PUSH1 0x40 MLOAD PUSH3 0x461BCD PUSH1 0xE5 SHL DUP2 MSTORE PUSH1 0x20 PUSH1 0x4 DUP3 ADD MSTORE PUSH1 0x1D PUSH1 0x24 DUP3 ADD MSTORE PUSH32 0x416464726573733A2063616C6C20746F206E6F6E2D636F6E7472616374000000 PUSH1 0x44 DUP3 ADD MSTORE PUSH1 0x64 SWAP1 REVERT JUMPDEST DUP3 MLOAD SWAP1 SWAP2 POP ISZERO PUSH2 0x2E9 JUMPI POP DUP1 MLOAD SWAP1 PUSH1 0x20 ADD REVERT JUMPDEST PUSH1 0x44 PUSH1 0x40 MLOAD DUP1 SWAP3 PUSH3 0x461BCD PUSH1 0xE5 SHL DUP3 MSTORE PUSH1 0x20 PUSH1 0x4 DUP4 ADD MSTORE PUSH2 0x319 DUP2 MLOAD DUP1 SWAP3 DUP2 PUSH1 0x24 DUP7 ADD MSTORE PUSH1 0x20 DUP7 DUP7 ADD SWAP2 ADD PUSH2 0x251 JUMP JUMPDEST PUSH1 0x1F ADD PUSH1 0x1F NOT AND DUP2 ADD SUB ADD SWAP1 REVERT INVALID PUSH1 0x80 PUSH1 0x40 MSTORE CALLDATASIZE ISZERO PUSH1 0x54 JUMPI PUSH32 0x360894A13BA1A3210667C828492DB98DCA3E2076CC3735A920A3CA505D382BBC SLOAD PUSH1 0x0 SWAP1 DUP2 SWAP1 DUP2 SWAP1 PUSH1 0x1 PUSH1 0x1 PUSH1 0xA0 SHL SUB AND CALLDATASIZE DUP3 DUP1 CALLDATACOPY DUP2 CALLDATASIZE SWAP2 GAS DELEGATECALL RETURNDATASIZE DUP3 DUP1 RETURNDATACOPY ISZERO PUSH1 0x50 JUMPI RETURNDATASIZE SWAP1 RETURN JUMPDEST RETURNDATASIZE SWAP1 REVERT JUMPDEST PUSH32 0x360894A13BA1A3210667C828492DB98DCA3E2076CC3735A920A3CA505D382BBC SLOAD PUSH1 0x0 SWAP1 DUP2 SWAP1 DUP2 SWAP1 PUSH1 0x1 PUSH1 0x1 PUSH1 0xA0 SHL SUB AND CALLDATASIZE DUP3 DUP1 CALLDATACOPY DUP2 CALLDATASIZE SWAP2 GAS DELEGATECALL RETURNDATASIZE DUP3 DUP1 RETURNDATACOPY ISZERO PUSH1 0x50 JUMPI RETURNDATASIZE SWAP1 RETURN INVALID LOG2 PUSH5 0x6970667358 0x22 SLT KECCAK256 CALL RETURNDATASIZE DUP16 PUSH0 0xED PUSH0 SWAP12 CREATE SHR 0xBF TIMESTAMP 0xBF 0xC PUSH14 0xBB93D7F0FEC96DCF048FBA51568 MLOAD 0xD0 CALLER PUSH11 0x64736F6C63430008140033 PUSH1 0xA0 DUP1 PUSH1 0x40 MSTORE CALLVALUE PUSH3 0xE1 JUMPI ADDRESS PUSH1 0x80 MSTORE PUSH1 0x0 SLOAD SWAP1 PUSH1 0xFF DUP3 PUSH1 0x8 SHR AND PUSH3 0x8F JUMPI POP PUSH1 0xFF DUP1 DUP3 AND SUB PUSH3 0x53 JUMPI JUMPDEST PUSH1 0x40 MLOAD PUSH2 0x578C SWAP1 DUP2 PUSH3 0xE7 DUP3 CODECOPY PUSH1 0x80 MLOAD DUP2 DUP2 DUP2 PUSH2 0x279D ADD MSTORE DUP2 DUP2 PUSH2 0x290C ADD MSTORE PUSH2 0x2E95 ADD MSTORE RETURN JUMPDEST PUSH1 0xFF SWAP1 DUP2 NOT AND OR PUSH1 0x0 SSTORE PUSH32 0x7F26B83FF96E1F2B6A682F133852F6798A09C465DA95921460CEFB3847402498 PUSH1 0x20 PUSH1 0x40 MLOAD PUSH1 0xFF DUP2 MSTORE LOG1 CODESIZE PUSH3 0x2C JUMP JUMPDEST PUSH3 0x461BCD PUSH1 0xE5 SHL DUP2 MSTORE PUSH1 0x20 PUSH1 0x4 DUP3 ADD MSTORE PUSH1 0x27 PUSH1 0x24 DUP3 ADD MSTORE PUSH32 0x496E697469616C697A61626C653A20636F6E747261637420697320696E697469 PUSH1 0x44 DUP3 ADD MSTORE PUSH7 0x616C697A696E67 PUSH1 0xC8 SHL PUSH1 0x64 DUP3 ADD MSTORE PUSH1 0x84 SWAP1 REVERT JUMPDEST PUSH1 0x0 DUP1 REVERT INVALID PUSH1 0x40 PUSH1 0x80 DUP2 MSTORE PUSH1 0x4 CALLDATASIZE LT ISZERO PUSH2 0x13 JUMPI PUSH1 0x0 DUP1 REVERT JUMPDEST PUSH1 0x0 SWAP1 PUSH1 0xE0 DUP3 CALLDATALOAD DUP2 SHR SWAP1 DUP2 PUSH4 0x1DDE6EF EQ PUSH2 0x3A3C JUMPI DUP2 PUSH4 0x1F1B684 EQ PUSH2 0x39F5 JUMPI DUP2 PUSH4 0x579188F EQ PUSH2 0x395C JUMPI DUP2 PUSH4 0x73763B9 EQ PUSH2 0x3938 JUMPI DUP2 PUSH4 0xC340A24 EQ PUSH2 0x390F JUMPI DUP2 PUSH4 0xC36D897 EQ PUSH2 0x38EF JUMPI DUP2 PUSH4 0xD6AC463 EQ PUSH2 0x38A9 JUMPI DUP2 PUSH4 0xDB49656 EQ PUSH2 0x3889 JUMPI DUP2 PUSH4 0xE0A8FD2 EQ PUSH2 0x3865 JUMPI DUP2 PUSH4 0xF1E5E2B EQ PUSH2 0x381F JUMPI DUP2 PUSH4 0x13ED7BA5 EQ PUSH2 0x37F5 JUMPI DUP2 PUSH4 0x14B4906D EQ PUSH2 0x3744 JUMPI DUP2 PUSH4 0x1867E2F5 EQ PUSH2 0x3724 JUMPI DUP2 PUSH4 0x1FB0DDA0 EQ PUSH2 0x36FB JUMPI DUP2 PUSH4 0x1FE6A7AD EQ PUSH2 0x36C1 JUMPI DUP2 PUSH4 0x2069F753 EQ PUSH2 0x369D JUMPI DUP2 PUSH4 0x235E81CF EQ PUSH2 0x34AB JUMPI DUP2 PUSH4 0x23B98CDE EQ PUSH2 0x3483 JUMPI DUP2 PUSH4 0x24FFABA3 EQ PUSH2 0x3446 JUMPI DUP2 PUSH4 0x25BC6C41 EQ PUSH2 0x341C JUMPI DUP2 PUSH4 0x27EAB2A1 EQ PUSH2 0x33D6 JUMPI DUP2 PUSH4 0x2A20D57D EQ PUSH2 0x33B6 JUMPI DUP2 PUSH4 0x2C43BD3B EQ PUSH2 0x3392 JUMPI DUP2 PUSH4 0x2D88AF4A EQ PUSH2 0x333B JUMPI DUP2 PUSH4 0x2DED50F0 EQ PUSH2 0x331B JUMPI DUP2 PUSH4 0x2ECCB11C EQ PUSH2 0x323F JUMPI DUP2 PUSH4 0x2ED35CA1 EQ PUSH2 0x3114 JUMPI DUP2 PUSH4 0x333431FD EQ PUSH2 0x30F4 JUMPI DUP2 PUSH4 0x33421C38 EQ PUSH2 0x2FF9 JUMPI DUP2 PUSH4 0x34D70FFA EQ PUSH2 0x2EFA JUMPI DUP2 PUSH4 0x3659CFE6 EQ PUSH2 0x2E60 JUMPI DUP2 PUSH4 0x3915EDCB EQ PUSH2 0x2E2F JUMPI DUP2 PUSH4 0x391BF6CF EQ PUSH2 0x2D17 JUMPI DUP2 PUSH4 0x3BC4AC0A EQ PUSH2 0x2CF3 JUMPI DUP2 PUSH4 0x3CFB09EF EQ PUSH2 0x2CAD JUMPI DUP2 PUSH4 0x3F4BA83A EQ PUSH2 0x2BA1 JUMPI DUP2 PUSH4 0x4017936A EQ PUSH2 0x2B70 JUMPI DUP2 PUSH4 0x407F0E34 EQ PUSH2 0x2B50 JUMPI DUP2 PUSH4 0x47DDA6AF EQ PUSH2 0x2AA6 JUMPI DUP2 PUSH4 0x4AF3A6FC EQ PUSH2 0x2A27 JUMPI DUP2 PUSH4 0x4B746001 EQ PUSH2 0x29DD JUMPI DUP2 PUSH4 0x4D977E78 EQ PUSH2 0x29BD JUMPI DUP2 PUSH4 0x4E1F907A EQ PUSH2 0x2993 JUMPI DUP2 PUSH4 0x4F0F27EE EQ PUSH2 0x2973 JUMPI DUP2 PUSH4 0x4F1EF286 EQ PUSH2 0x2883 JUMPI DUP2 PUSH4 0x5210570C EQ PUSH2 0x285D JUMPI DUP2 PUSH4 0x52D1902D EQ PUSH2 0x2788 JUMPI DUP2 PUSH4 0x533A4BEA EQ PUSH2 0x2757 JUMPI DUP2 PUSH4 0x53B16D17 EQ PUSH2 0x2712 JUMPI DUP2 PUSH4 0x543AEB48 EQ PUSH2 0x26EE JUMPI DUP2 PUSH4 0x5860EE63 EQ PUSH2 0x26CE JUMPI DUP2 PUSH4 0x58F32DE9 EQ PUSH2 0x2686 JUMPI DUP2 PUSH4 0x5C616A73 EQ PUSH2 0x248B JUMPI DUP2 PUSH4 0x5C975ABB EQ PUSH2 0x2464 JUMPI DUP2 PUSH4 0x5CFBE578 EQ PUSH2 0x2444 JUMPI DUP2 PUSH4 0x60009E0B EQ PUSH2 0x241A JUMPI DUP2 PUSH4 0x60A01DFA EQ PUSH2 0x1ECD JUMPI DUP2 PUSH4 0x60EF07BF EQ PUSH2 0x1E26 JUMPI DUP2 PUSH4 0x647846A5 EQ PUSH2 0x1DFC JUMPI DUP2 PUSH4 0x64EC230A EQ PUSH2 0x1DD8 JUMPI DUP2 PUSH4 0x662013F4 EQ PUSH2 0x1DBB JUMPI DUP2 PUSH4 0x68274357 EQ PUSH2 0x1D92 JUMPI DUP2 PUSH4 0x6B5488DF EQ PUSH2 0x1D72 JUMPI DUP2 PUSH4 0x6F30471F EQ PUSH2 0x1D52 JUMPI DUP2 PUSH4 0x70713468 EQ PUSH2 0x1D2E JUMPI DUP2 PUSH4 0x735D3960 EQ PUSH2 0x1CE8 JUMPI DUP2 PUSH4 0x73E28AF9 EQ PUSH2 0x1CC4 JUMPI DUP2 PUSH4 0x7554FFFD EQ PUSH2 0x1CA4 JUMPI DUP2 PUSH4 0x76228055 EQ PUSH2 0x1C84 JUMPI DUP2 PUSH4 0x7750BA0C EQ PUSH2 0x1C60 JUMPI DUP2 PUSH4 0x797709CA EQ PUSH2 0x1B71 JUMPI DUP2 PUSH4 0x79F9A91C EQ PUSH2 0x1B51 JUMPI DUP2 PUSH4 0x7A193C31 EQ PUSH2 0x1B31 JUMPI DUP2 PUSH4 0x7A4FF1D9 EQ PUSH2 0x1B0D JUMPI DUP2 PUSH4 0x7A727FE8 EQ PUSH2 0x1AED JUMPI DUP2 PUSH4 0x7AF5758C EQ PUSH2 0x1AC9 JUMPI DUP2 PUSH4 0x7CBA2383 EQ PUSH2 0x1AA5 JUMPI DUP2 PUSH4 0x7D8E0314 EQ PUSH2 0x1A66 JUMPI DUP2 PUSH4 0x7F01C715 EQ PUSH2 0x1A3C JUMPI DUP2 PUSH4 0x7F13B998 EQ PUSH2 0x1A06 JUMPI DUP2 PUSH4 0x7F4A4FE0 EQ PUSH2 0x19E6 JUMPI DUP2 PUSH4 0x826FCD58 EQ PUSH2 0x19C3 JUMPI DUP2 PUSH4 0x8456CB59 EQ PUSH2 0x192E JUMPI DUP2 PUSH4 0x85BF9593 EQ PUSH2 0x18E8 JUMPI DUP2 PUSH4 0x883D21CB EQ PUSH2 0x1827 JUMPI DUP2 PUSH4 0x8CFA4241 EQ PUSH2 0x1807 JUMPI DUP2 PUSH4 0x8E2BDB86 EQ PUSH2 0x17DD JUMPI DUP2 PUSH4 0x8F1A383A EQ PUSH2 0x17B5 JUMPI DUP2 PUSH4 0x9853C35A EQ PUSH2 0x178B JUMPI DUP2 PUSH4 0x9AD6659D EQ PUSH2 0x1755 JUMPI DUP2 PUSH4 0x9CABFC00 EQ PUSH2 0x1709 JUMPI DUP2 PUSH4 0x9FD0506D EQ PUSH2 0x16DC JUMPI DUP2 PUSH4 0xA8E9AC30 EQ PUSH2 0x16B9 JUMPI DUP2 PUSH4 0xAD4E666D EQ PUSH2 0x14D9 JUMPI DUP2 PUSH4 0xAEA038DC EQ PUSH2 0x14B9 JUMPI DUP2 PUSH4 0xB03E11A0 EQ PUSH2 0x13AF JUMPI DUP2 PUSH4 0xB4434C32 EQ PUSH2 0x11F1 JUMPI DUP2 PUSH4 0xB5E9EA8C EQ PUSH2 0x11C7 JUMPI DUP2 PUSH4 0xB9FA6413 EQ PUSH2 0x11A7 JUMPI DUP2 PUSH4 0xBB4872DE EQ PUSH2 0x1183 JUMPI DUP2 PUSH4 0xBC4E55B2 EQ PUSH2 0x10B5 JUMPI DUP2 PUSH4 0xBECACA6B EQ PUSH2 0x1091 JUMPI DUP2 PUSH4 0xBFE42621 EQ PUSH2 0xE96 JUMPI DUP2 PUSH4 0xC00F538D EQ PUSH2 0xE72 JUMPI DUP2 PUSH4 0xC039CC69 EQ PUSH2 0xE30 JUMPI DUP2 PUSH4 0xC84353C9 EQ PUSH2 0xE0C JUMPI DUP2 PUSH4 0xCF351C1D EQ PUSH2 0xDC6 JUMPI DUP2 PUSH4 0xD1A0FAA0 EQ PUSH2 0xDAD JUMPI DUP2 PUSH4 0xD2DC25A5 EQ PUSH2 0xD28 JUMPI DUP2 PUSH4 0xD6AF11DA EQ PUSH2 0xCEC JUMPI DUP2 PUSH4 0xD87AAB6F EQ PUSH2 0xCCC JUMPI DUP2 PUSH4 0xD8C69AEC EQ PUSH2 0xBB6 JUMPI DUP2 PUSH4 0xD8DB6F5A EQ PUSH2 0xB70 JUMPI DUP2 PUSH4 0xDB796072 EQ PUSH2 0xB33 JUMPI DUP2 PUSH4 0xDDB6D190 EQ PUSH2 0xAF6 JUMPI DUP2 PUSH4 0xDE8D520A EQ PUSH2 0xAC3 JUMPI DUP2 PUSH4 0xE23C135C EQ PUSH2 0xAAA JUMPI DUP2 PUSH4 0xE2C5E990 EQ PUSH2 0xA49 JUMPI DUP2 PUSH4 0xE4C0AAF4 EQ PUSH2 0xA04 JUMPI DUP2 PUSH4 0xE6A683E0 EQ PUSH2 0x9BE JUMPI DUP2 PUSH4 0xE6B1627C EQ PUSH2 0x97A JUMPI DUP2 PUSH4 0xE7C25978 EQ PUSH2 0x955 JUMPI DUP2 PUSH4 0xE8859A15 EQ PUSH2 0x938 JUMPI DUP2 PUSH4 0xEE1F438F EQ PUSH2 0x90E JUMPI DUP2 PUSH4 0xF13F4054 EQ PUSH2 0x8E4 JUMPI DUP2 PUSH4 0xF26114AA EQ PUSH2 0x87F JUMPI POP DUP1 PUSH4 0xF2808778 EQ PUSH2 0x85B JUMPI DUP1 PUSH4 0xF30B5614 EQ PUSH2 0x83C JUMPI DUP1 PUSH4 0xF375CFBA EQ PUSH2 0x81D JUMPI DUP1 PUSH4 0xF88B1434 EQ PUSH2 0x7AD JUMPI DUP1 PUSH4 0xFA6E83BD EQ PUSH2 0x78E JUMPI DUP1 PUSH4 0xFADDA424 EQ PUSH2 0x717 JUMPI DUP1 PUSH4 0xFDA70F8B EQ PUSH2 0x6F8 JUMPI DUP1 PUSH4 0xFDCDC11E EQ PUSH2 0x611 JUMPI PUSH4 0xFE6B92C1 EQ PUSH2 0x5EF JUMPI PUSH1 0x0 DUP1 REVERT JUMPDEST CALLVALUE PUSH2 0x60D JUMPI DUP2 PUSH1 0x3 NOT CALLDATASIZE ADD SLT PUSH2 0x60D JUMPI PUSH1 0x20 SWAP1 PUSH2 0x135 SLOAD SWAP1 MLOAD SWAP1 DUP2 MSTORE RETURN JUMPDEST POP DUP1 REVERT JUMPDEST PUSH2 0x696 DUP4 DUP4 PUSH1 0xC4 PUSH2 0x623 CALLDATASIZE PUSH1 0x4 PUSH2 0x3B23 JUMP JUMPDEST PUSH2 0x630 SWAP9 SWAP3 SWAP6 SWAP2 SWAP9 PUSH2 0x4EE0 JUMP JUMPDEST PUSH2 0x638 PUSH2 0x56EE JUMP JUMPDEST DUP7 MLOAD SWAP5 PUSH2 0x646 PUSH1 0xC0 DUP8 PUSH2 0x3BB1 JUMP JUMPDEST PUSH1 0x1 DUP1 PUSH1 0xA0 SHL SUB SWAP2 DUP3 DUP1 SWAP3 AND DUP8 MSTORE DUP2 PUSH1 0x20 SWAP12 DUP13 SWAP8 DUP9 DUP11 ADD MSTORE DUP10 DUP12 DUP11 ADD MSTORE CALLER PUSH1 0x60 DUP11 ADD MSTORE AND PUSH1 0x80 DUP9 ADD MSTORE AND PUSH1 0xA0 DUP7 ADD MSTORE PUSH2 0x14F SLOAD AND SWAP4 DUP7 MLOAD SWAP5 DUP6 SWAP4 DUP5 SWAP3 PUSH4 0x23EC24B5 PUSH1 0xE1 SHL DUP5 MSTORE PUSH1 0x4 DUP5 ADD SWAP1 PUSH2 0x4F02 JUMP JUMPDEST CALLVALUE SWAP1 GAS CALL SWAP4 DUP5 ISZERO PUSH2 0x6ED JUMPI SWAP4 PUSH2 0x6B7 JUMPI JUMPDEST POP PUSH2 0x6B1 SWAP1 PUSH2 0x4E76 JUMP JUMPDEST MLOAD SWAP1 DUP2 MSTORE RETURN JUMPDEST SWAP1 SWAP3 POP DUP4 DUP2 DUP2 RETURNDATASIZE DUP4 GT PUSH2 0x6E6 JUMPI JUMPDEST PUSH2 0x6CF DUP2 DUP4 PUSH2 0x3BB1 JUMP JUMPDEST DUP2 ADD SUB SLT PUSH2 0x6E1 JUMPI MLOAD SWAP2 PUSH2 0x6B1 PUSH2 0x6A7 JUMP JUMPDEST PUSH1 0x0 DUP1 REVERT JUMPDEST POP RETURNDATASIZE PUSH2 0x6C5 JUMP JUMPDEST DUP4 MLOAD SWAP1 RETURNDATASIZE SWAP1 DUP3 RETURNDATACOPY RETURNDATASIZE SWAP1 REVERT JUMPDEST POP CALLVALUE PUSH2 0x60D JUMPI DUP2 PUSH1 0x3 NOT CALLDATASIZE ADD SLT PUSH2 0x60D JUMPI PUSH1 0x20 SWAP1 PUSH2 0x13C SLOAD SWAP1 MLOAD SWAP1 DUP2 MSTORE RETURN JUMPDEST POP SWAP1 CALLVALUE PUSH2 0x78B JUMPI PUSH1 0x20 CALLDATASIZE PUSH1 0x3 NOT ADD SLT PUSH2 0x78B JUMPI POP PUSH1 0x1 PUSH1 0x1 PUSH1 0xA0 SHL SUB PUSH1 0x4 CALLDATALOAD DUP2 DUP2 AND DUP2 SUB PUSH2 0x6E1 JUMPI PUSH2 0x755 PUSH2 0x74D PUSH1 0x1 SWAP3 PUSH2 0x4612 JUMP JUMPDEST PUSH2 0x137 PUSH2 0x3B95 JUMP JUMPDEST POP ADD SLOAD AND PUSH2 0x762 DUP2 PUSH2 0x46AE JUMP JUMPDEST SWAP2 SWAP1 SWAP2 ISZERO PUSH2 0x774 JUMPI POP PUSH1 0x20 SWAP2 MLOAD SWAP1 DUP2 MSTORE RETURN JUMPDEST PUSH1 0x24 SWAP1 DUP4 MLOAD SWAP1 PUSH4 0x7F6E4DB9 PUSH1 0xE0 SHL DUP3 MSTORE PUSH1 0x4 DUP3 ADD MSTORE REVERT JUMPDEST DUP1 REVERT JUMPDEST POP CALLVALUE PUSH2 0x60D JUMPI DUP2 PUSH1 0x3 NOT CALLDATASIZE ADD SLT PUSH2 0x60D JUMPI PUSH1 0x20 SWAP1 PUSH2 0x13A SLOAD SWAP1 MLOAD SWAP1 DUP2 MSTORE RETURN JUMPDEST POP SWAP1 CALLVALUE PUSH2 0x78B JUMPI PUSH1 0x20 CALLDATASIZE PUSH1 0x3 NOT ADD SLT PUSH2 0x78B JUMPI POP PUSH1 0x4 CALLDATALOAD SWAP1 PUSH1 0x1 PUSH1 0x1 PUSH1 0xA0 SHL SUB DUP3 AND DUP3 SUB PUSH2 0x6E1 JUMPI PUSH2 0x816 PUSH2 0x808 PUSH1 0x20 SWAP4 PUSH2 0x7F1 PUSH2 0x7E9 PUSH2 0x4D1F JUMP JUMPDEST SWAP2 SWAP1 SWAP3 PUSH2 0x4612 JUMP JUMPDEST SWAP2 PUSH2 0x810 PUSH2 0x7FF DUP5 DUP5 PUSH2 0x4311 JUMP JUMPDEST MLOAD SWAP5 DUP6 SWAP4 PUSH2 0x4325 JUMP JUMPDEST SWAP6 SWAP1 SWAP5 PUSH2 0x4C7C JUMP JUMPDEST SWAP1 PUSH2 0x4B79 JUMP JUMPDEST SWAP1 MLOAD SWAP1 DUP2 MSTORE RETURN JUMPDEST POP CALLVALUE PUSH2 0x60D JUMPI DUP2 PUSH1 0x3 NOT CALLDATASIZE ADD SLT PUSH2 0x60D JUMPI PUSH1 0x20 SWAP1 PUSH2 0x141 SLOAD SWAP1 MLOAD SWAP1 DUP2 MSTORE RETURN JUMPDEST POP CALLVALUE PUSH2 0x60D JUMPI DUP2 PUSH1 0x3 NOT CALLDATASIZE ADD SLT PUSH2 0x60D JUMPI PUSH1 0x20 SWAP1 PUSH2 0x131 SLOAD SWAP1 MLOAD SWAP1 DUP2 MSTORE RETURN JUMPDEST DUP3 CALLVALUE PUSH2 0x78B JUMPI PUSH1 0x20 CALLDATASIZE PUSH1 0x3 NOT ADD SLT PUSH2 0x78B JUMPI PUSH2 0x875 PUSH2 0x5660 JUMP JUMPDEST PUSH1 0x4 CALLDATALOAD PUSH2 0x13C SSTORE DUP1 RETURN JUMPDEST SWAP1 POP CALLVALUE PUSH2 0x8E0 JUMPI CALLDATASIZE PUSH1 0x3 NOT ADD SLT PUSH2 0x60D JUMPI PUSH2 0x8DC SWAP1 PUSH2 0x89C PUSH2 0x5660 JUMP JUMPDEST MLOAD PUSH4 0x79308A55 PUSH1 0xE1 SHL PUSH1 0x20 DUP3 ADD MSTORE PUSH2 0x8CA DUP2 PUSH2 0x8BC PUSH1 0x4 PUSH1 0x24 DUP4 ADD PUSH2 0x4A85 JUMP JUMPDEST SUB PUSH1 0x1F NOT DUP2 ADD DUP4 MSTORE DUP3 PUSH2 0x3BB1 JUMP JUMPDEST PUSH2 0x1F6 SLOAD PUSH1 0x1 PUSH1 0x1 PUSH1 0xA0 SHL SUB AND PUSH2 0x4952 JUMP JUMPDEST POP DUP1 RETURN JUMPDEST DUP3 DUP1 REVERT JUMPDEST POP POP CALLVALUE PUSH2 0x60D JUMPI DUP2 PUSH1 0x3 NOT CALLDATASIZE ADD SLT PUSH2 0x60D JUMPI PUSH2 0x130 SLOAD SWAP1 MLOAD PUSH1 0x1 PUSH1 0x1 PUSH1 0xA0 SHL SUB SWAP1 SWAP2 AND DUP2 MSTORE PUSH1 0x20 SWAP1 RETURN JUMPDEST POP POP CALLVALUE PUSH2 0x60D JUMPI DUP2 PUSH1 0x3 NOT CALLDATASIZE ADD SLT PUSH2 0x60D JUMPI PUSH2 0x152 SLOAD SWAP1 MLOAD PUSH1 0x1 PUSH1 0x1 PUSH1 0xA0 SHL SUB SWAP1 SWAP2 AND DUP2 MSTORE PUSH1 0x20 SWAP1 RETURN JUMPDEST POP POP CALLVALUE PUSH2 0x60D JUMPI DUP2 PUSH1 0x3 NOT CALLDATASIZE ADD SLT PUSH2 0x60D JUMPI PUSH1 0x20 SWAP1 PUSH2 0x816 PUSH2 0x4C3F JUMP JUMPDEST POP POP CALLVALUE PUSH2 0x60D JUMPI DUP2 PUSH1 0x3 NOT CALLDATASIZE ADD SLT PUSH2 0x60D JUMPI PUSH1 0x20 SWAP1 PUSH1 0xFF PUSH2 0x14B SLOAD AND SWAP1 MLOAD SWAP1 ISZERO ISZERO DUP2 MSTORE RETURN JUMPDEST POP POP CALLVALUE PUSH2 0x60D JUMPI PUSH1 0x20 CALLDATASIZE PUSH1 0x3 NOT ADD SLT PUSH2 0x60D JUMPI PUSH1 0x4 CALLDATALOAD PUSH2 0x18E DUP1 SLOAD DUP3 LT ISZERO PUSH2 0x9BA JUMPI SWAP1 PUSH2 0x9A6 SWAP2 PUSH2 0x3B95 JUMP JUMPDEST POP PUSH1 0x1 DUP2 SLOAD SWAP2 ADD SLOAD DUP3 MLOAD SWAP2 DUP3 MSTORE PUSH1 0x20 DUP3 ADD MSTORE RETURN JUMPDEST DUP4 DUP1 REVERT JUMPDEST DUP4 CALLVALUE PUSH2 0x78B JUMPI PUSH1 0x20 CALLDATASIZE PUSH1 0x3 NOT ADD SLT PUSH2 0x78B JUMPI PUSH1 0x4 CALLDATALOAD PUSH1 0x1 PUSH1 0x1 PUSH1 0xA0 SHL SUB DUP2 AND SWAP1 DUP2 SWAP1 SUB PUSH2 0x6E1 JUMPI PUSH2 0x9ED PUSH2 0x5660 JUMP JUMPDEST PUSH2 0x1F6 DUP1 SLOAD PUSH1 0x1 PUSH1 0x1 PUSH1 0xA0 SHL SUB NOT AND SWAP1 SWAP2 OR SWAP1 SSTORE DUP1 RETURN JUMPDEST DUP4 CALLVALUE PUSH2 0x78B JUMPI PUSH1 0x20 CALLDATASIZE PUSH1 0x3 NOT ADD SLT PUSH2 0x78B JUMPI PUSH1 0x4 CALLDATALOAD PUSH1 0x1 PUSH1 0x1 PUSH1 0xA0 SHL SUB DUP2 AND SWAP1 DUP2 SWAP1 SUB PUSH2 0x60D JUMPI PUSH2 0xA33 PUSH2 0x5660 JUMP JUMPDEST PUSH1 0x1 PUSH1 0x1 PUSH1 0x60 SHL SUB PUSH1 0xA0 SHL PUSH1 0x97 SLOAD AND OR PUSH1 0x97 SSTORE DUP1 RETURN JUMPDEST DUP3 DUP5 CALLVALUE PUSH2 0x78B JUMPI PUSH1 0x60 CALLDATASIZE PUSH1 0x3 NOT ADD SLT PUSH2 0x78B JUMPI PUSH1 0x1 PUSH1 0x1 PUSH1 0xA0 SHL SUB PUSH1 0x4 CALLDATALOAD DUP2 DUP2 AND DUP2 SUB PUSH2 0x6E1 JUMPI PUSH1 0x24 CALLDATALOAD SWAP2 DUP1 DUP4 AND DUP4 SUB PUSH2 0x9BA JUMPI PUSH2 0x14F SLOAD AND CALLER SUB PUSH2 0xA99 JUMPI SWAP1 PUSH2 0xA96 SWAP2 PUSH1 0x44 CALLDATALOAD SWAP2 PUSH2 0x5627 JUMP JUMPDEST DUP1 RETURN JUMPDEST DUP4 MLOAD PUSH4 0x19748477 PUSH1 0xE0 SHL DUP2 MSTORE PUSH1 0x4 SWAP1 REVERT JUMPDEST DUP4 CALLVALUE PUSH2 0x78B JUMPI DUP1 PUSH1 0x3 NOT CALLDATASIZE ADD SLT PUSH2 0x78B JUMPI PUSH2 0xA96 PUSH2 0x424C JUMP JUMPDEST POP POP CALLVALUE PUSH2 0x60D JUMPI DUP2 PUSH1 0x3 NOT CALLDATASIZE ADD SLT PUSH2 0x60D JUMPI PUSH1 0x20 SWAP1 PUSH2 0x816 PUSH2 0xAEB PUSH2 0xAE6 PUSH2 0x4714 JUMP JUMPDEST PUSH2 0x4325 JUMP JUMPDEST SWAP1 POP PUSH2 0x131 SLOAD PUSH2 0x4229 JUMP JUMPDEST POP POP CALLVALUE PUSH2 0x60D JUMPI PUSH1 0x20 CALLDATASIZE PUSH1 0x3 NOT ADD SLT PUSH2 0x60D JUMPI PUSH1 0x4 CALLDATALOAD PUSH1 0x1 PUSH1 0x1 PUSH1 0xA0 SHL SUB DUP2 AND SWAP1 DUP2 SWAP1 SUB PUSH2 0x6E1 JUMPI DUP3 DUP3 SWAP2 PUSH1 0x20 SWAP5 MSTORE PUSH2 0x145 DUP5 MSTORE KECCAK256 SLOAD SWAP1 MLOAD SWAP1 DUP2 MSTORE RETURN JUMPDEST SWAP1 POP CALLVALUE PUSH2 0x8E0 JUMPI CALLDATASIZE PUSH1 0x3 NOT ADD SLT PUSH2 0x60D JUMPI PUSH2 0x8DC SWAP1 PUSH2 0xB50 PUSH2 0x5660 JUMP JUMPDEST MLOAD PUSH4 0x6DBCB039 PUSH1 0xE1 SHL PUSH1 0x20 DUP3 ADD MSTORE PUSH2 0x8CA DUP2 PUSH2 0x8BC PUSH1 0x4 PUSH1 0x24 DUP4 ADD PUSH2 0x4A85 JUMP JUMPDEST DUP4 CALLVALUE PUSH2 0x78B JUMPI PUSH1 0x20 CALLDATASIZE PUSH1 0x3 NOT ADD SLT PUSH2 0x78B JUMPI PUSH1 0x4 CALLDATALOAD PUSH1 0x1 PUSH1 0x1 PUSH1 0xA0 SHL SUB DUP2 AND SWAP1 DUP2 SWAP1 SUB PUSH2 0x6E1 JUMPI PUSH2 0xB9F PUSH2 0x5660 JUMP JUMPDEST PUSH2 0x152 DUP1 SLOAD PUSH1 0x1 PUSH1 0x1 PUSH1 0xA0 SHL SUB NOT AND SWAP1 SWAP2 OR SWAP1 SSTORE DUP1 RETURN JUMPDEST DUP4 SWAP2 POP CALLVALUE PUSH2 0x60D JUMPI CALLDATASIZE PUSH1 0x3 NOT ADD SLT PUSH2 0x78B JUMPI POP PUSH2 0xBD1 PUSH2 0x4FFB JUMP JUMPDEST POP PUSH2 0x14F SLOAD PUSH1 0x1 PUSH1 0x1 PUSH1 0xA0 SHL SUB SWAP2 SWAP1 DUP3 AND CALLER SUB PUSH2 0xCBC JUMPI PUSH2 0xC81 SWAP2 PUSH2 0xBF7 CALLDATASIZE PUSH1 0x4 PUSH2 0x55B4 JUMP JUMPDEST SWAP2 PUSH2 0xC00 PUSH2 0x4FFB JUMP JUMPDEST POP PUSH2 0xC09 PUSH2 0x4EE0 JUMP JUMPDEST PUSH2 0xC11 PUSH2 0x56EE JUMP JUMPDEST PUSH2 0xC5D PUSH2 0xC4E DUP3 MLOAD PUSH4 0x3DAD0BD7 PUSH1 0xE1 SHL PUSH1 0x20 DUP3 ADD MSTORE PUSH2 0xC33 PUSH1 0x24 DUP3 ADD DUP8 PUSH2 0x4FAB JUMP JUMPDEST PUSH1 0xE4 DUP2 MSTORE PUSH2 0xC43 PUSH2 0x104 DUP3 PUSH2 0x3BB1 JUMP JUMPDEST DUP5 PUSH2 0x1F6 SLOAD AND PUSH2 0x4952 JUMP JUMPDEST PUSH1 0x20 DUP1 DUP3 MLOAD DUP4 ADD ADD SWAP2 ADD PUSH2 0x5559 JUMP JUMPDEST DUP7 DUP5 DUP8 PUSH1 0x80 DUP5 SWAP9 SWAP7 SWAP12 SWAP6 SWAP8 SWAP11 ADD MLOAD AND SWAP2 DUP9 PUSH1 0xC0 DUP2 PUSH1 0xA0 DUP5 ADD MLOAD AND SWAP3 ADD MLOAD AND SWAP3 PUSH2 0x5365 JUMP JUMPDEST PUSH1 0x4 CALLDATALOAD SWAP4 DUP1 DUP6 AND DUP1 SWAP6 SUB PUSH2 0x6E1 JUMPI PUSH1 0x84 CALLDATALOAD SWAP1 DUP2 AND DUP2 SUB PUSH2 0x6E1 JUMPI PUSH2 0xCB8 SWAP5 PUSH2 0xCAE SWAP2 DUP9 PUSH1 0x44 CALLDATALOAD SUB SWAP2 PUSH2 0x5627 JUMP JUMPDEST MLOAD SWAP5 DUP6 SWAP5 DUP6 PUSH2 0x3B55 JUMP JUMPDEST SUB SWAP1 RETURN JUMPDEST MLOAD PUSH4 0x19748477 PUSH1 0xE0 SHL DUP2 MSTORE PUSH1 0x4 SWAP1 REVERT JUMPDEST POP POP CALLVALUE PUSH2 0x60D JUMPI DUP2 PUSH1 0x3 NOT CALLDATASIZE ADD SLT PUSH2 0x60D JUMPI PUSH1 0x20 SWAP1 PUSH2 0x155 SLOAD SWAP1 MLOAD SWAP1 DUP2 MSTORE RETURN JUMPDEST POP POP CALLVALUE PUSH2 0x60D JUMPI DUP2 PUSH1 0x3 NOT CALLDATASIZE ADD SLT PUSH2 0x60D JUMPI PUSH1 0x20 SWAP1 PUSH2 0x816 PUSH2 0xD0E PUSH1 0x1 PUSH2 0x474E JUMP JUMPDEST PUSH2 0xD22 PUSH2 0xD1B DUP3 DUP5 PUSH2 0x4469 JUMP JUMPDEST SWAP2 DUP4 PUSH2 0x43B3 JUMP JUMPDEST SWAP2 PUSH2 0x4795 JUMP JUMPDEST PUSH2 0x696 DUP5 DUP5 PUSH1 0xC4 PUSH2 0xD3A CALLDATASIZE PUSH1 0x4 PUSH2 0x3B23 JUMP JUMPDEST PUSH2 0xD47 SWAP9 SWAP3 SWAP6 SWAP2 SWAP9 PUSH2 0x4EE0 JUMP JUMPDEST PUSH2 0xD4F PUSH2 0x56EE JUMP JUMPDEST DUP7 MLOAD SWAP5 PUSH2 0xD5D PUSH1 0xC0 DUP8 PUSH2 0x3BB1 JUMP JUMPDEST PUSH1 0x1 DUP1 PUSH1 0xA0 SHL SUB SWAP2 DUP3 DUP1 SWAP3 AND DUP8 MSTORE DUP2 PUSH1 0x20 SWAP12 DUP13 SWAP8 DUP9 DUP11 ADD MSTORE DUP10 DUP12 DUP11 ADD MSTORE CALLER PUSH1 0x60 DUP11 ADD MSTORE AND PUSH1 0x80 DUP9 ADD MSTORE AND PUSH1 0xA0 DUP7 ADD MSTORE PUSH2 0x14F SLOAD AND SWAP4 DUP7 MLOAD SWAP5 DUP6 SWAP4 DUP5 SWAP3 PUSH4 0x7E81A821 PUSH1 0xE0 SHL DUP5 MSTORE PUSH1 0x4 DUP5 ADD SWAP1 PUSH2 0x4F02 JUMP JUMPDEST DUP4 CALLVALUE PUSH2 0x78B JUMPI DUP1 PUSH1 0x3 NOT CALLDATASIZE ADD SLT PUSH2 0x78B JUMPI PUSH2 0xA96 PUSH2 0x4DE2 JUMP JUMPDEST DUP4 CALLVALUE PUSH2 0x78B JUMPI PUSH1 0x20 CALLDATASIZE PUSH1 0x3 NOT ADD SLT PUSH2 0x78B JUMPI PUSH1 0x4 CALLDATALOAD PUSH1 0x1 PUSH1 0x1 PUSH1 0xA0 SHL SUB DUP2 AND SWAP1 DUP2 SWAP1 SUB PUSH2 0x6E1 JUMPI PUSH2 0xDF5 PUSH2 0x5660 JUMP JUMPDEST PUSH2 0x12F DUP1 SLOAD PUSH1 0x1 PUSH1 0x1 PUSH1 0xA0 SHL SUB NOT AND SWAP1 SWAP2 OR SWAP1 SSTORE DUP1 RETURN JUMPDEST DUP4 CALLVALUE PUSH2 0x78B JUMPI PUSH1 0x20 CALLDATASIZE PUSH1 0x3 NOT ADD SLT PUSH2 0x78B JUMPI PUSH2 0xE26 PUSH2 0x5660 JUMP JUMPDEST PUSH1 0x4 CALLDATALOAD PUSH2 0x14C SSTORE DUP1 RETURN JUMPDEST POP POP CALLVALUE PUSH2 0x60D JUMPI DUP2 PUSH1 0x3 NOT CALLDATASIZE ADD SLT PUSH2 0x60D JUMPI PUSH1 0x20 SWAP1 PUSH2 0x816 PUSH2 0xE65 PUSH2 0xE6C PUSH2 0xE59 PUSH2 0xAE6 PUSH2 0x4714 JUMP JUMPDEST PUSH2 0x131 SWAP4 SWAP2 SWAP4 SLOAD PUSH2 0x4229 JUMP JUMPDEST SWAP2 DUP3 PUSH2 0x4229 JUMP JUMPDEST SWAP1 PUSH2 0x570F JUMP JUMPDEST DUP4 CALLVALUE PUSH2 0x78B JUMPI PUSH1 0x20 CALLDATASIZE PUSH1 0x3 NOT ADD SLT PUSH2 0x78B JUMPI PUSH2 0xE8C PUSH2 0x5660 JUMP JUMPDEST PUSH1 0x4 CALLDATALOAD PUSH2 0x13D SSTORE DUP1 RETURN JUMPDEST DUP3 DUP5 CALLVALUE PUSH2 0x78B JUMPI PUSH1 0xA0 CALLDATASIZE PUSH1 0x3 NOT ADD SLT PUSH2 0x78B JUMPI PUSH2 0xEB1 PUSH2 0x4FFB JUMP JUMPDEST POP PUSH2 0x14F SLOAD PUSH1 0x1 PUSH1 0x1 PUSH1 0xA0 SHL SUB SWAP1 DUP2 AND CALLER SUB PUSH2 0x1080 JUMPI PUSH2 0xED2 CALLDATASIZE PUSH1 0x4 PUSH2 0x5022 JUMP JUMPDEST SWAP2 PUSH2 0xEDB PUSH2 0x4FFB JUMP JUMPDEST POP PUSH2 0xEE4 PUSH2 0x4EE0 JUMP JUMPDEST PUSH2 0xEEC PUSH2 0x56EE JUMP JUMPDEST PUSH2 0xEF4 PUSH2 0x4DE2 JUMP JUMPDEST PUSH2 0xF07 PUSH2 0xEFF PUSH2 0x4D1F JUMP JUMPDEST DUP2 SWAP3 SWAP2 PUSH2 0x507F JUMP JUMPDEST SWAP1 SWAP2 PUSH2 0xF16 DUP3 DUP5 DUP9 MLOAD SWAP4 PUSH2 0x4B1A JUMP JUMPDEST DUP2 DUP2 LT PUSH2 0x1063 JUMPI POP POP PUSH8 0xDE0B6B3A7640000 SWAP2 PUSH2 0xF38 PUSH2 0xF3E SWAP3 DUP8 MLOAD SWAP3 PUSH2 0x4AE6 JUMP JUMPDEST SWAP1 PUSH2 0x4436 JUMP JUMPDEST DIV SWAP2 DUP3 ISZERO PUSH2 0x1052 JUMPI SWAP4 DUP4 SWAP5 DUP2 PUSH2 0xF77 SWAP6 ADD SWAP1 DUP1 DUP3 MLOAD AND SWAP2 PUSH2 0xF6C PUSH1 0x80 DUP10 ADD SWAP4 DUP8 DUP5 DUP7 MLOAD AND PUSH2 0x13D SLOAD SWAP3 PUSH2 0x50C2 JUMP JUMPDEST SWAP7 SWAP2 DUP9 SWAP10 SWAP2 SWAP10 PUSH2 0x4229 JUMP JUMPDEST SWAP7 PUSH1 0x20 DUP11 ADD MLOAD DUP1 DUP10 LT PUSH2 0x1035 JUMPI POP DUP10 MLOAD SWAP1 PUSH2 0x134 PUSH2 0xF96 DUP4 DUP3 SLOAD PUSH2 0x4229 JUMP JUMPDEST SWAP1 SSTORE PUSH2 0xFA6 PUSH2 0x131 SWAP2 DUP3 SLOAD PUSH2 0x4229 JUMP JUMPDEST SWAP1 SSTORE DUP4 PUSH2 0x133 SLOAD AND SWAP1 DUP2 EXTCODESIZE ISZERO PUSH2 0x8E0 JUMPI DUP7 MLOAD PUSH4 0x2770A7EB PUSH1 0xE2 SHL DUP2 MSTORE ADDRESS PUSH1 0x4 DUP3 ADD MSTORE PUSH1 0x24 DUP2 ADD SWAP2 SWAP1 SWAP2 MSTORE SWAP1 DUP3 SWAP1 DUP3 SWAP1 PUSH1 0x44 SWAP1 DUP3 SWAP1 DUP5 SWAP1 GAS CALL DUP1 ISZERO PUSH2 0x102B JUMPI PUSH2 0x1016 JUMPI JUMPDEST POP POP SWAP7 DUP6 PUSH2 0x100C SWAP4 DUP4 DUP1 PUSH1 0x60 DUP10 SWAP7 PUSH2 0xCB8 SWAP12 SWAP13 SWAP14 MLOAD AND SWAP6 ADD MLOAD AND SWAP2 MLOAD AND SWAP3 PUSH2 0x5365 JUMP JUMPDEST MLOAD SWAP4 DUP5 SWAP4 DUP5 PUSH2 0x3AE5 JUMP JUMPDEST PUSH2 0x1021 DUP3 DUP1 SWAP3 PUSH2 0x3BB1 JUMP JUMPDEST PUSH2 0x78B JUMPI DUP1 PUSH2 0xFE9 JUMP JUMPDEST DUP7 MLOAD RETURNDATASIZE DUP5 DUP3 RETURNDATACOPY RETURNDATASIZE SWAP1 REVERT JUMPDEST PUSH1 0x44 SWAP1 DUP10 DUP9 MLOAD SWAP2 PUSH4 0x54CDE313 PUSH1 0xE0 SHL DUP4 MSTORE PUSH1 0x4 DUP4 ADD MSTORE PUSH1 0x24 DUP3 ADD MSTORE REVERT JUMPDEST DUP5 MLOAD PUSH4 0xF3E39B5D PUSH1 0xE0 SHL DUP2 MSTORE PUSH1 0x4 SWAP1 REVERT JUMPDEST PUSH1 0x44 SWAP3 POP DUP8 MLOAD SWAP2 PUSH4 0xA5DB715D PUSH1 0xE0 SHL DUP4 MSTORE PUSH1 0x4 DUP4 ADD MSTORE PUSH1 0x24 DUP3 ADD MSTORE REVERT JUMPDEST DUP3 MLOAD PUSH4 0x19748477 PUSH1 0xE0 SHL DUP2 MSTORE PUSH1 0x4 SWAP1 REVERT JUMPDEST DUP4 CALLVALUE PUSH2 0x78B JUMPI PUSH1 0x20 CALLDATASIZE PUSH1 0x3 NOT ADD SLT PUSH2 0x78B JUMPI PUSH2 0x10AB PUSH2 0x5660 JUMP JUMPDEST PUSH1 0x4 CALLDATALOAD PUSH2 0x139 SSTORE DUP1 RETURN JUMPDEST DUP4 SWAP2 POP CALLVALUE PUSH2 0x60D JUMPI CALLDATASIZE PUSH1 0x3 NOT ADD SLT PUSH2 0x78B JUMPI POP PUSH2 0x10D0 PUSH2 0x4FFB JUMP JUMPDEST POP PUSH2 0x14F SLOAD PUSH1 0x1 PUSH1 0x1 PUSH1 0xA0 SHL SUB SWAP1 DUP2 AND CALLER SUB PUSH2 0x1172 JUMPI PUSH2 0xCB8 PUSH2 0xCAE SWAP2 PUSH2 0x10F8 CALLDATASIZE PUSH1 0x4 PUSH2 0x55B4 JUMP JUMPDEST SWAP4 PUSH2 0x1101 PUSH2 0x4FFB JUMP JUMPDEST POP PUSH2 0x110A PUSH2 0x4EE0 JUMP JUMPDEST PUSH2 0x1112 PUSH2 0x56EE JUMP JUMPDEST PUSH2 0x1134 PUSH2 0xC4E DUP3 MLOAD PUSH4 0xF5571E01 PUSH1 0xE0 SHL PUSH1 0x20 DUP3 ADD MSTORE PUSH2 0xC33 PUSH1 0x24 DUP3 ADD DUP10 PUSH2 0x4FAB JUMP JUMPDEST SWAP5 DUP9 PUSH1 0x60 DUP8 SWAP4 SWAP7 SWAP6 SWAP10 SWAP5 SWAP11 ADD SWAP2 DUP3 MLOAD PUSH2 0x1151 PUSH2 0x14E SWAP2 DUP3 SLOAD PUSH2 0x4229 JUMP JUMPDEST SWAP1 SSTORE PUSH1 0xC0 PUSH2 0x1167 DUP12 DUP4 PUSH1 0x80 DUP7 ADD MLOAD AND SWAP6 MLOAD PUSH2 0x4229 JUMP JUMPDEST SWAP3 ADD MLOAD AND SWAP2 DUP1 PUSH2 0x5365 JUMP JUMPDEST DUP2 MLOAD PUSH4 0x19748477 PUSH1 0xE0 SHL DUP2 MSTORE PUSH1 0x4 SWAP1 REVERT JUMPDEST POP POP CALLVALUE PUSH2 0x60D JUMPI DUP2 PUSH1 0x3 NOT CALLDATASIZE ADD SLT PUSH2 0x60D JUMPI PUSH1 0x20 SWAP1 PUSH1 0xFF PUSH1 0xCA SLOAD AND SWAP1 MLOAD SWAP1 ISZERO ISZERO DUP2 MSTORE RETURN JUMPDEST POP POP CALLVALUE PUSH2 0x60D JUMPI DUP2 PUSH1 0x3 NOT CALLDATASIZE ADD SLT PUSH2 0x60D JUMPI PUSH1 0x20 SWAP1 PUSH2 0x15B SLOAD SWAP1 MLOAD SWAP1 DUP2 MSTORE RETURN JUMPDEST POP POP CALLVALUE PUSH2 0x60D JUMPI DUP2 PUSH1 0x3 NOT CALLDATASIZE ADD SLT PUSH2 0x60D JUMPI PUSH2 0x153 SLOAD SWAP1 MLOAD PUSH1 0x1 PUSH1 0x1 PUSH1 0xA0 SHL SUB SWAP1 SWAP2 AND DUP2 MSTORE PUSH1 0x20 SWAP1 RETURN JUMPDEST DUP3 DUP5 CALLVALUE PUSH2 0x78B JUMPI PUSH1 0xC0 CALLDATASIZE PUSH1 0x3 NOT ADD SLT PUSH2 0x78B JUMPI PUSH2 0x120C PUSH2 0x4FFB JUMP JUMPDEST POP PUSH2 0x14F SLOAD PUSH1 0x1 PUSH1 0x1 PUSH1 0xA0 SHL SUB SWAP3 SWAP1 DUP4 AND CALLER SUB PUSH2 0xCBC JUMPI PUSH2 0x12A6 PUSH2 0x1231 CALLDATASIZE PUSH1 0x4 PUSH2 0x541E JUMP JUMPDEST SWAP2 PUSH2 0x123A PUSH2 0x4FFB JUMP JUMPDEST POP PUSH2 0x1243 PUSH2 0x4EE0 JUMP JUMPDEST PUSH2 0x124B PUSH2 0x56EE JUMP JUMPDEST PUSH2 0x1253 PUSH2 0x4DE2 JUMP JUMPDEST PUSH2 0x125B PUSH2 0x4D1F JUMP JUMPDEST PUSH2 0x126A DUP8 DUP7 SWAP6 SWAP4 SWAP6 MLOAD AND PUSH2 0x4612 JUMP JUMPDEST SWAP4 PUSH2 0x128A PUSH2 0x1278 DUP7 DUP5 PUSH2 0x4311 JUMP JUMPDEST MLOAD SWAP3 PUSH2 0x1284 DUP5 DUP9 PUSH2 0x4A34 JUMP JUMPDEST DUP3 PUSH2 0x507F JUMP JUMPDEST PUSH1 0x20 DUP9 SWAP6 SWAP3 SWAP6 ADD SWAP5 DUP5 DUP7 MLOAD SWAP5 PUSH2 0x12A0 DUP3 DUP12 PUSH2 0x4C7C JUMP JUMPDEST SWAP1 PUSH2 0x5487 JUMP JUMPDEST DUP2 DUP2 LT PUSH2 0x1392 JUMPI POP POP SWAP5 DUP1 SWAP7 PUSH2 0x12C0 PUSH2 0x12F8 SWAP8 DUP5 MLOAD PUSH2 0x570F JUMP JUMPDEST SWAP5 PUSH1 0x60 DUP8 ADD SWAP1 PUSH2 0x12ED DUP4 DUP4 MLOAD AND DUP9 DUP11 DUP10 PUSH1 0xA0 DUP3 ADD SWAP9 DUP9 DUP1 DUP12 MLOAD AND SWAP4 MLOAD AND DUP2 MSTORE PUSH2 0x144 PUSH1 0x20 MSTORE KECCAK256 SLOAD SWAP3 PUSH2 0x50C2 JUMP JUMPDEST SWAP9 SWAP2 DUP3 SWAP12 SWAP2 SWAP12 PUSH2 0x4304 JUMP JUMPDEST SWAP9 DUP8 DUP2 ADD SWAP7 DUP8 MLOAD DUP1 DUP13 GT PUSH2 0x1375 JUMPI POP DUP11 ISZERO PUSH2 0x1364 JUMPI SWAP5 DUP10 SWAP7 SWAP5 PUSH2 0x133F DUP3 SWAP6 DUP14 SWAP15 SWAP16 SWAP6 PUSH2 0xCB8 SWAP15 SWAP6 DUP6 PUSH1 0x80 PUSH2 0x100C SWAP15 SWAP13 PUSH2 0x1334 PUSH2 0x135A SWAP12 DUP7 PUSH2 0x549F JUMP JUMPDEST MLOAD SWAP3 ADD MLOAD AND SWAP3 PUSH2 0x4974 JUMP JUMPDEST DUP7 MLOAD PUSH2 0x134F PUSH2 0x14E SWAP2 DUP3 SLOAD PUSH2 0x4229 JUMP JUMPDEST SWAP1 SSTORE MLOAD AND SWAP5 MLOAD PUSH2 0x4229 JUMP JUMPDEST SWAP2 MLOAD AND SWAP2 DUP1 PUSH2 0x5365 JUMP JUMPDEST DUP9 MLOAD PUSH4 0xF3E39B5D PUSH1 0xE0 SHL DUP2 MSTORE PUSH1 0x4 SWAP1 REVERT JUMPDEST PUSH1 0x44 SWAP1 DUP13 DUP12 MLOAD SWAP2 PUSH4 0xB63F1A7 PUSH1 0xE0 SHL DUP4 MSTORE PUSH1 0x4 DUP4 ADD MSTORE PUSH1 0x24 DUP3 ADD MSTORE REVERT JUMPDEST PUSH1 0x44 SWAP3 POP DUP5 MLOAD SWAP2 PUSH4 0xC39B739F PUSH1 0xE0 SHL DUP4 MSTORE PUSH1 0x4 DUP4 ADD MSTORE PUSH1 0x24 DUP3 ADD MSTORE REVERT JUMPDEST DUP3 DUP5 PUSH2 0x13BC CALLDATASIZE PUSH1 0x4 PUSH2 0x3C05 JUMP JUMPDEST SWAP1 PUSH2 0x13C9 SWAP6 SWAP4 SWAP3 SWAP6 PUSH2 0x4EE0 JUMP JUMPDEST PUSH2 0x13D1 PUSH2 0x56EE JUMP JUMPDEST DUP4 MLOAD SWAP1 PUSH2 0x13DF PUSH1 0xA0 DUP4 PUSH2 0x3BB1 JUMP JUMPDEST DUP4 DUP3 MSTORE PUSH1 0x20 DUP1 DUP4 ADD SWAP8 DUP9 MSTORE CALLER DUP7 DUP5 ADD MSTORE PUSH1 0x1 PUSH1 0x1 PUSH1 0xA0 SHL SUB SWAP2 DUP3 AND PUSH1 0x60 DUP5 ADD SWAP1 DUP2 MSTORE SWAP4 DUP3 AND PUSH1 0x80 DUP5 ADD SWAP1 DUP2 MSTORE PUSH2 0x14F SLOAD DUP8 MLOAD PUSH4 0xFA91A9A5 PUSH1 0xE0 SHL DUP2 MSTORE DUP6 MLOAD PUSH1 0x4 DUP3 ADD MSTORE SWAP10 MLOAD PUSH1 0x24 DUP12 ADD MSTORE PUSH1 0x40 SWAP1 SWAP5 ADD MLOAD DUP4 AND PUSH1 0x44 DUP11 ADD MSTORE SWAP4 MLOAD DUP3 AND PUSH1 0x64 DUP10 ADD MSTORE SWAP3 MLOAD DUP2 AND PUSH1 0x84 DUP9 ADD MSTORE SWAP2 SWAP6 SWAP1 DUP7 SWAP1 DUP3 SWAP1 PUSH1 0xA4 SWAP1 DUP3 SWAP1 DUP7 AND CALLVALUE SWAP1 GAS CALL SWAP5 DUP6 ISZERO PUSH2 0x14AE JUMPI SWAP5 PUSH2 0x147B JUMPI JUMPDEST POP SWAP1 PUSH2 0x6B1 SWAP2 PUSH2 0x133 SLOAD AND ADDRESS SWAP1 CALLER SWAP1 PUSH2 0x4E9C JUMP JUMPDEST SWAP2 SWAP1 SWAP4 POP DUP5 DUP3 DUP2 RETURNDATASIZE DUP4 GT PUSH2 0x14A7 JUMPI JUMPDEST PUSH2 0x1494 DUP2 DUP4 PUSH2 0x3BB1 JUMP JUMPDEST DUP2 ADD SUB SLT PUSH2 0x6E1 JUMPI SWAP1 MLOAD SWAP3 PUSH2 0x6B1 PUSH2 0x1467 JUMP JUMPDEST POP RETURNDATASIZE PUSH2 0x148A JUMP JUMPDEST DUP5 MLOAD SWAP1 RETURNDATASIZE SWAP1 DUP3 RETURNDATACOPY RETURNDATASIZE SWAP1 REVERT JUMPDEST POP POP CALLVALUE PUSH2 0x60D JUMPI DUP2 PUSH1 0x3 NOT CALLDATASIZE ADD SLT PUSH2 0x60D JUMPI PUSH1 0x20 SWAP1 PUSH2 0x13D SLOAD SWAP1 MLOAD SWAP1 DUP2 MSTORE RETURN JUMPDEST POP POP CALLVALUE PUSH2 0x60D JUMPI PUSH1 0xC0 CALLDATASIZE PUSH1 0x3 NOT ADD SLT PUSH2 0x60D JUMPI PUSH2 0x14F4 PUSH2 0x4FFB JUMP JUMPDEST POP PUSH2 0x14F SLOAD PUSH1 0x1 PUSH1 0x1 PUSH1 0xA0 SHL SUB SWAP2 SWAP1 DUP3 AND CALLER SUB PUSH2 0xCBC JUMPI PUSH2 0x1516 CALLDATASIZE PUSH1 0x4 PUSH2 0x541E JUMP JUMPDEST SWAP2 PUSH2 0x151F PUSH2 0x4FFB JUMP JUMPDEST POP PUSH2 0x1528 PUSH2 0x4EE0 JUMP JUMPDEST PUSH2 0x1530 PUSH2 0x56EE JUMP JUMPDEST PUSH2 0x1538 PUSH2 0x4714 JUMP JUMPDEST SWAP2 PUSH2 0x1545 DUP3 DUP6 MLOAD AND PUSH2 0x4612 JUMP JUMPDEST SWAP2 PUSH2 0x1568 PUSH2 0x1553 DUP5 DUP7 PUSH2 0x4311 JUMP JUMPDEST MLOAD SWAP5 PUSH2 0x155F DUP7 DUP7 PUSH2 0x4A34 JUMP JUMPDEST PUSH2 0x149 SLOAD PUSH2 0x507F JUMP JUMPDEST POP POP PUSH2 0x1579 PUSH1 0x20 DUP7 ADD SWAP5 DUP6 MLOAD PUSH2 0x570F JUMP JUMPDEST SWAP1 DUP2 ISZERO PUSH2 0x16A8 JUMPI DUP6 SWAP7 PUSH1 0x60 PUSH2 0x15BE SWAP8 ADD SWAP1 DUP3 DUP3 MLOAD AND SWAP4 PUSH2 0x15B3 PUSH1 0xA0 DUP12 ADD SWAP6 DUP3 DUP13 DUP8 DUP1 DUP11 MLOAD AND SWAP2 MLOAD AND DUP7 MSTORE PUSH2 0x145 PUSH1 0x20 MSTORE DUP10 DUP7 KECCAK256 SLOAD SWAP3 PUSH2 0x50C2 JUMP JUMPDEST SWAP9 SWAP2 DUP4 SWAP12 SWAP2 SWAP12 PUSH2 0x4229 JUMP JUMPDEST SWAP9 DUP8 DUP13 ADD MLOAD DUP1 DUP12 LT PUSH2 0x168B JUMPI POP DUP6 SWAP2 PUSH2 0x1610 SWAP2 PUSH2 0x15DC PUSH1 0x1 DUP14 PUSH2 0x549F JUMP JUMPDEST MLOAD SWAP4 PUSH2 0x15EA DUP3 PUSH2 0x137 PUSH2 0x3B95 JUMP JUMPDEST POP PUSH2 0x15F6 DUP7 DUP3 SLOAD PUSH2 0x4229 JUMP JUMPDEST SWAP1 SSTORE PUSH2 0x1606 PUSH2 0x131 SWAP2 DUP3 SLOAD PUSH2 0x4229 JUMP JUMPDEST SWAP1 SSTORE PUSH2 0x135 PUSH2 0x3A60 JUMP JUMPDEST SWAP1 SLOAD SWAP1 PUSH1 0x3 SHL SHR AND SWAP1 DUP2 EXTCODESIZE ISZERO PUSH2 0x8E0 JUMPI DUP7 MLOAD PUSH4 0x2770A7EB PUSH1 0xE2 SHL DUP2 MSTORE ADDRESS PUSH1 0x4 DUP3 ADD MSTORE PUSH1 0x24 DUP2 ADD SWAP2 SWAP1 SWAP2 MSTORE SWAP1 DUP3 SWAP1 DUP3 SWAP1 PUSH1 0x44 SWAP1 DUP3 SWAP1 DUP5 SWAP1 GAS CALL DUP1 ISZERO PUSH2 0x102B JUMPI PUSH2 0x1676 JUMPI JUMPDEST POP POP SWAP7 DUP6 PUSH2 0x100C SWAP4 DUP4 DUP1 PUSH1 0x80 DUP10 SWAP7 PUSH2 0xCB8 SWAP12 SWAP13 SWAP14 MLOAD AND SWAP6 ADD MLOAD AND SWAP2 MLOAD AND SWAP3 PUSH2 0x5365 JUMP JUMPDEST PUSH2 0x1681 DUP3 DUP1 SWAP3 PUSH2 0x3BB1 JUMP JUMPDEST PUSH2 0x78B JUMPI DUP1 PUSH2 0x1653 JUMP JUMPDEST PUSH1 0x44 SWAP1 DUP12 DUP11 MLOAD SWAP2 PUSH4 0x54CDE313 PUSH1 0xE0 SHL DUP4 MSTORE PUSH1 0x4 DUP4 ADD MSTORE PUSH1 0x24 DUP3 ADD MSTORE REVERT JUMPDEST DUP3 MLOAD PUSH4 0xF3E39B5D PUSH1 0xE0 SHL DUP2 MSTORE PUSH1 0x4 SWAP1 REVERT JUMPDEST POP POP CALLVALUE PUSH2 0x60D JUMPI DUP2 PUSH1 0x3 NOT CALLDATASIZE ADD SLT PUSH2 0x60D JUMPI PUSH1 0x20 SWAP1 PUSH2 0x18F SLOAD NUMBER LT ISZERO SWAP1 MLOAD SWAP1 DUP2 MSTORE RETURN JUMPDEST POP POP CALLVALUE PUSH2 0x60D JUMPI DUP2 PUSH1 0x3 NOT CALLDATASIZE ADD SLT PUSH2 0x60D JUMPI PUSH1 0xCA SLOAD SWAP1 MLOAD PUSH1 0x10 SWAP2 SWAP1 SWAP2 SHR PUSH1 0x1 PUSH1 0x1 PUSH1 0xA0 SHL SUB AND DUP2 MSTORE PUSH1 0x20 SWAP1 RETURN JUMPDEST DUP3 DUP5 CALLVALUE PUSH2 0x78B JUMPI PUSH1 0x20 CALLDATASIZE PUSH1 0x3 NOT ADD SLT PUSH2 0x78B JUMPI PUSH1 0x4 CALLDATALOAD PUSH1 0x1 PUSH1 0x1 PUSH1 0xA0 SHL SUB DUP2 AND SWAP2 SWAP1 DUP3 SWAP1 SUB PUSH2 0x6E1 JUMPI DUP3 SWAP2 DUP2 MSTORE PUSH2 0x136 PUSH1 0x20 MSTORE KECCAK256 PUSH1 0xFF PUSH1 0x1 DUP3 SLOAD SWAP3 ADD SLOAD AND DUP3 MLOAD SWAP2 DUP3 MSTORE ISZERO ISZERO PUSH1 0x20 DUP3 ADD MSTORE RETURN JUMPDEST POP POP CALLVALUE PUSH2 0x60D JUMPI DUP2 PUSH1 0x3 NOT CALLDATASIZE ADD SLT PUSH2 0x60D JUMPI PUSH1 0x20 SWAP1 PUSH2 0x177E PUSH2 0x1778 PUSH2 0xAE6 PUSH2 0x4714 JUMP JUMPDEST SWAP1 PUSH2 0x44DA JUMP JUMPDEST PUSH2 0x14A SLOAD LT ISZERO SWAP1 MLOAD SWAP1 DUP2 MSTORE RETURN JUMPDEST POP POP CALLVALUE PUSH2 0x60D JUMPI DUP2 PUSH1 0x3 NOT CALLDATASIZE ADD SLT PUSH2 0x60D JUMPI PUSH2 0x146 SLOAD SWAP1 MLOAD PUSH1 0x1 PUSH1 0x1 PUSH1 0xA0 SHL SUB SWAP1 SWAP2 AND DUP2 MSTORE PUSH1 0x20 SWAP1 RETURN JUMPDEST POP POP CALLVALUE PUSH2 0x60D JUMPI DUP2 PUSH1 0x3 NOT CALLDATASIZE ADD SLT PUSH2 0x60D JUMPI PUSH1 0x20 SWAP1 PUSH2 0x17D5 PUSH2 0xAE6 PUSH2 0x4714 JUMP JUMPDEST POP SWAP1 MLOAD SWAP1 DUP2 MSTORE RETURN JUMPDEST POP POP CALLVALUE PUSH2 0x60D JUMPI DUP2 PUSH1 0x3 NOT CALLDATASIZE ADD SLT PUSH2 0x60D JUMPI PUSH2 0x158 SLOAD SWAP1 MLOAD PUSH1 0x1 PUSH1 0x1 PUSH1 0xA0 SHL SUB SWAP1 SWAP2 AND DUP2 MSTORE PUSH1 0x20 SWAP1 RETURN JUMPDEST POP POP CALLVALUE PUSH2 0x60D JUMPI DUP2 PUSH1 0x3 NOT CALLDATASIZE ADD SLT PUSH2 0x60D JUMPI PUSH1 0x20 SWAP1 PUSH2 0x14A SLOAD SWAP1 MLOAD SWAP1 DUP2 MSTORE RETURN JUMPDEST DUP3 DUP5 CALLVALUE PUSH2 0x78B JUMPI PUSH1 0xC0 CALLDATASIZE PUSH1 0x3 NOT ADD SLT PUSH2 0x78B JUMPI POP PUSH2 0x1843 PUSH2 0x4FFB JUMP JUMPDEST POP PUSH2 0x14F SLOAD PUSH1 0x1 PUSH1 0x1 PUSH1 0xA0 SHL SUB SWAP1 DUP2 AND CALLER SUB PUSH2 0x1172 JUMPI PUSH2 0xCB8 PUSH2 0xCAE SWAP2 PUSH2 0x186B CALLDATASIZE PUSH1 0x4 PUSH2 0x541E JUMP JUMPDEST SWAP4 PUSH2 0x1874 PUSH2 0x4FFB JUMP JUMPDEST POP PUSH2 0x187D PUSH2 0x4EE0 JUMP JUMPDEST PUSH2 0x1885 PUSH2 0x56EE JUMP JUMPDEST PUSH2 0x18B6 PUSH2 0xC4E DUP3 MLOAD PUSH4 0x7225DA89 PUSH1 0xE1 SHL PUSH1 0x20 DUP3 ADD MSTORE PUSH2 0x18A7 PUSH1 0x24 DUP3 ADD DUP10 PUSH2 0x4F02 JUMP JUMPDEST PUSH1 0xC4 DUP2 MSTORE PUSH2 0xC43 PUSH1 0xE4 DUP3 PUSH2 0x3BB1 JUMP JUMPDEST SWAP5 DUP9 DUP6 DUP8 SWAP4 SWAP7 SWAP6 SWAP10 SWAP5 SWAP11 ADD SWAP2 DUP3 MLOAD PUSH2 0x18D2 PUSH2 0x14E SWAP2 DUP3 SLOAD PUSH2 0x4229 JUMP JUMPDEST SWAP1 SSTORE PUSH1 0xA0 PUSH2 0x1167 DUP12 DUP4 PUSH1 0x60 DUP7 ADD MLOAD AND SWAP6 MLOAD PUSH2 0x4229 JUMP JUMPDEST DUP4 CALLVALUE PUSH2 0x78B JUMPI PUSH1 0x20 CALLDATASIZE PUSH1 0x3 NOT ADD SLT PUSH2 0x78B JUMPI PUSH1 0x4 CALLDATALOAD PUSH1 0x1 PUSH1 0x1 PUSH1 0xA0 SHL SUB DUP2 AND SWAP1 DUP2 SWAP1 SUB PUSH2 0x6E1 JUMPI PUSH2 0x1917 PUSH2 0x5660 JUMP JUMPDEST PUSH2 0x153 DUP1 SLOAD PUSH1 0x1 PUSH1 0x1 PUSH1 0xA0 SHL SUB NOT AND SWAP1 SWAP2 OR SWAP1 SSTORE DUP1 RETURN JUMPDEST POP POP CALLVALUE PUSH2 0x60D JUMPI DUP2 PUSH1 0x3 NOT CALLDATASIZE ADD SLT PUSH2 0x60D JUMPI PUSH2 0x1948 PUSH2 0x56EE JUMP JUMPDEST PUSH1 0xCA SLOAD PUSH1 0x10 DUP2 SWAP1 SHR PUSH1 0x1 PUSH1 0x1 PUSH1 0xA0 SHL SUB AND CALLER SUB PUSH2 0x19B2 JUMPI PUSH1 0xFF DUP2 AND ISZERO PUSH2 0x19A1 JUMPI PUSH2 0xFF00 NOT AND PUSH2 0x100 OR PUSH1 0xCA SSTORE MLOAD CALLER DUP2 MSTORE PUSH32 0x62E78CEA01BEE320CD4E420270B5EA74000D11B0C9F74754EBDBFC544B05A258 SWAP1 PUSH1 0x20 SWAP1 LOG1 DUP1 RETURN JUMPDEST DUP2 MLOAD PUSH4 0x866099C3 PUSH1 0xE0 SHL DUP2 MSTORE PUSH1 0x4 SWAP1 REVERT JUMPDEST DUP2 MLOAD PUSH4 0x1D77D477 PUSH1 0xE2 SHL DUP2 MSTORE PUSH1 0x4 SWAP1 REVERT JUMPDEST POP POP CALLVALUE PUSH2 0x60D JUMPI DUP2 PUSH1 0x3 NOT CALLDATASIZE ADD SLT PUSH2 0x60D JUMPI PUSH1 0x20 SWAP1 PUSH2 0x816 PUSH2 0x1778 PUSH2 0xAE6 PUSH2 0x4714 JUMP JUMPDEST POP POP CALLVALUE PUSH2 0x60D JUMPI DUP2 PUSH1 0x3 NOT CALLDATASIZE ADD SLT PUSH2 0x60D JUMPI PUSH1 0x20 SWAP1 PUSH2 0x15A SLOAD SWAP1 MLOAD SWAP1 DUP2 MSTORE RETURN JUMPDEST POP POP CALLVALUE PUSH2 0x60D JUMPI DUP2 PUSH1 0x3 NOT CALLDATASIZE ADD SLT PUSH2 0x60D JUMPI PUSH1 0x20 SWAP1 PUSH2 0x816 PUSH2 0x1A28 PUSH1 0x1 PUSH2 0x474E JUMP JUMPDEST PUSH2 0xD22 PUSH2 0x1A35 DUP3 DUP5 PUSH2 0x43B3 JUMP JUMPDEST SWAP2 DUP4 PUSH2 0x4469 JUMP JUMPDEST POP POP CALLVALUE PUSH2 0x60D JUMPI DUP2 PUSH1 0x3 NOT CALLDATASIZE ADD SLT PUSH2 0x60D JUMPI PUSH2 0x1C3 SLOAD SWAP1 MLOAD PUSH1 0x1 PUSH1 0x1 PUSH1 0xA0 SHL SUB SWAP1 SWAP2 AND DUP2 MSTORE PUSH1 0x20 SWAP1 RETURN JUMPDEST POP POP CALLVALUE PUSH2 0x60D JUMPI PUSH1 0x20 CALLDATASIZE PUSH1 0x3 NOT ADD SLT PUSH2 0x60D JUMPI PUSH1 0x4 CALLDATALOAD SWAP2 PUSH2 0x148 SWAP1 DUP2 SLOAD DUP5 LT ISZERO PUSH2 0x78B JUMPI POP PUSH1 0x20 SWAP3 PUSH2 0x1A97 SWAP2 PUSH2 0x3A60 JUMP JUMPDEST SWAP2 SWAP1 SLOAD SWAP1 MLOAD SWAP2 PUSH1 0x3 SHL SHR DUP2 MSTORE RETURN JUMPDEST DUP4 CALLVALUE PUSH2 0x78B JUMPI PUSH1 0x20 CALLDATASIZE PUSH1 0x3 NOT ADD SLT PUSH2 0x78B JUMPI PUSH2 0x1ABF PUSH2 0x5660 JUMP JUMPDEST PUSH1 0x4 CALLDATALOAD PUSH2 0x149 SSTORE DUP1 RETURN JUMPDEST DUP4 CALLVALUE PUSH2 0x78B JUMPI PUSH1 0x20 CALLDATASIZE PUSH1 0x3 NOT ADD SLT PUSH2 0x78B JUMPI PUSH2 0x1AE3 PUSH2 0x5660 JUMP JUMPDEST PUSH1 0x4 CALLDATALOAD PUSH2 0x140 SSTORE DUP1 RETURN JUMPDEST POP POP CALLVALUE PUSH2 0x60D JUMPI DUP2 PUSH1 0x3 NOT CALLDATASIZE ADD SLT PUSH2 0x60D JUMPI PUSH1 0x20 SWAP1 PUSH2 0x190 SLOAD SWAP1 MLOAD SWAP1 DUP2 MSTORE RETURN JUMPDEST DUP4 CALLVALUE PUSH2 0x78B JUMPI PUSH1 0x20 CALLDATASIZE PUSH1 0x3 NOT ADD SLT PUSH2 0x78B JUMPI PUSH2 0x1B27 PUSH2 0x5660 JUMP JUMPDEST PUSH1 0x4 CALLDATALOAD PUSH2 0x141 SSTORE DUP1 RETURN JUMPDEST POP POP CALLVALUE PUSH2 0x60D JUMPI DUP2 PUSH1 0x3 NOT CALLDATASIZE ADD SLT PUSH2 0x60D JUMPI PUSH1 0x20 SWAP1 PUSH2 0x134 SLOAD SWAP1 MLOAD SWAP1 DUP2 MSTORE RETURN JUMPDEST POP POP CALLVALUE PUSH2 0x60D JUMPI DUP2 PUSH1 0x3 NOT CALLDATASIZE ADD SLT PUSH2 0x60D JUMPI PUSH1 0x20 SWAP1 PUSH2 0x142 SLOAD SWAP1 MLOAD SWAP1 DUP2 MSTORE RETURN JUMPDEST SWAP1 POP DUP3 PUSH2 0x1B7F CALLDATASIZE PUSH1 0x4 PUSH2 0x3AA2 JUMP JUMPDEST PUSH2 0x1B8F SWAP9 SWAP6 SWAP2 SWAP8 SWAP3 SWAP5 SWAP4 SWAP9 PUSH2 0x4EE0 JUMP JUMPDEST PUSH2 0x1B97 PUSH2 0x56EE JUMP JUMPDEST PUSH2 0x1BA3 DUP7 MLOAD SWAP4 DUP5 PUSH2 0x3BB1 JUMP JUMPDEST PUSH1 0x1 DUP1 PUSH1 0xA0 SHL SUB DUP1 SWAP9 DUP2 DUP1 SWAP5 AND DUP6 MSTORE PUSH1 0x20 SWAP11 DUP7 DUP13 DUP8 ADD MSTORE DUP9 DUP7 ADD MSTORE DUP7 PUSH1 0x60 DUP7 ADD MSTORE CALLER PUSH1 0x80 DUP7 ADD MSTORE AND PUSH1 0xA0 DUP5 ADD MSTORE AND PUSH1 0xC0 DUP3 ADD MSTORE DUP7 PUSH2 0x1BFE PUSH1 0xE4 DUP9 PUSH2 0x14F SLOAD AND SWAP4 DUP8 MLOAD SWAP5 DUP6 SWAP4 DUP5 SWAP3 PUSH4 0x6B59C22F PUSH1 0xE0 SHL DUP5 MSTORE PUSH1 0x4 DUP5 ADD SWAP1 PUSH2 0x4FAB JUMP JUMPDEST CALLVALUE SWAP1 GAS CALL SWAP5 DUP6 ISZERO PUSH2 0x14AE JUMPI SWAP5 PUSH2 0x1C2D JUMPI JUMPDEST POP PUSH2 0x1C28 SWAP1 PUSH2 0x6B1 SWAP4 SWAP5 SWAP6 PUSH2 0x133 SLOAD AND ADDRESS SWAP1 CALLER SWAP1 PUSH2 0x4E9C JUMP JUMPDEST PUSH2 0x4E76 JUMP JUMPDEST SWAP1 SWAP3 SWAP4 POP DUP6 DUP2 DUP2 RETURNDATASIZE DUP4 GT PUSH2 0x1C59 JUMPI JUMPDEST PUSH2 0x1C46 DUP2 DUP4 PUSH2 0x3BB1 JUMP JUMPDEST DUP2 ADD SUB SLT PUSH2 0x6E1 JUMPI MLOAD SWAP3 SWAP2 PUSH2 0x1C28 PUSH2 0x1C0F JUMP JUMPDEST POP RETURNDATASIZE PUSH2 0x1C3C JUMP JUMPDEST DUP4 CALLVALUE PUSH2 0x78B JUMPI PUSH1 0x20 CALLDATASIZE PUSH1 0x3 NOT ADD SLT PUSH2 0x78B JUMPI PUSH2 0x1C7A PUSH2 0x5660 JUMP JUMPDEST PUSH1 0x4 CALLDATALOAD PUSH2 0x13B SSTORE DUP1 RETURN JUMPDEST POP POP CALLVALUE PUSH2 0x60D JUMPI DUP2 PUSH1 0x3 NOT CALLDATASIZE ADD SLT PUSH2 0x60D JUMPI PUSH1 0x20 SWAP1 PUSH2 0x156 SLOAD SWAP1 MLOAD SWAP1 DUP2 MSTORE RETURN JUMPDEST POP POP CALLVALUE PUSH2 0x60D JUMPI DUP2 PUSH1 0x3 NOT CALLDATASIZE ADD SLT PUSH2 0x60D JUMPI PUSH1 0x20 SWAP1 PUSH2 0x139 SLOAD SWAP1 MLOAD SWAP1 DUP2 MSTORE RETURN JUMPDEST DUP4 CALLVALUE PUSH2 0x78B JUMPI PUSH1 0x20 CALLDATASIZE PUSH1 0x3 NOT ADD SLT PUSH2 0x78B JUMPI PUSH2 0x1CDE PUSH2 0x5660 JUMP JUMPDEST PUSH1 0x4 CALLDATALOAD PUSH2 0x154 SSTORE DUP1 RETURN JUMPDEST DUP4 CALLVALUE PUSH2 0x78B JUMPI PUSH1 0x20 CALLDATASIZE PUSH1 0x3 NOT ADD SLT PUSH2 0x78B JUMPI PUSH1 0x4 CALLDATALOAD PUSH1 0x1 PUSH1 0x1 PUSH1 0xA0 SHL SUB DUP2 AND SWAP1 DUP2 SWAP1 SUB PUSH2 0x6E1 JUMPI PUSH2 0x1D17 PUSH2 0x5660 JUMP JUMPDEST PUSH2 0x158 DUP1 SLOAD PUSH1 0x1 PUSH1 0x1 PUSH1 0xA0 SHL SUB NOT AND SWAP1 SWAP2 OR SWAP1 SSTORE DUP1 RETURN JUMPDEST DUP4 CALLVALUE PUSH2 0x78B JUMPI PUSH1 0x20 CALLDATASIZE PUSH1 0x3 NOT ADD SLT PUSH2 0x78B JUMPI PUSH2 0x1D48 PUSH2 0x5660 JUMP JUMPDEST PUSH1 0x4 CALLDATALOAD PUSH2 0x13E SSTORE DUP1 RETURN JUMPDEST POP POP CALLVALUE PUSH2 0x60D JUMPI DUP2 PUSH1 0x3 NOT CALLDATASIZE ADD SLT PUSH2 0x60D JUMPI PUSH1 0x20 SWAP1 PUSH2 0x154 SLOAD SWAP1 MLOAD SWAP1 DUP2 MSTORE RETURN JUMPDEST POP POP CALLVALUE PUSH2 0x60D JUMPI DUP2 PUSH1 0x3 NOT CALLDATASIZE ADD SLT PUSH2 0x60D JUMPI PUSH1 0x20 SWAP1 PUSH2 0x149 SLOAD SWAP1 MLOAD SWAP1 DUP2 MSTORE RETURN JUMPDEST DUP4 CALLVALUE PUSH2 0x78B JUMPI DUP1 PUSH1 0x3 NOT CALLDATASIZE ADD SLT PUSH2 0x78B JUMPI PUSH2 0x1DAB PUSH2 0x5660 JUMP JUMPDEST PUSH1 0x1 PUSH1 0xFF NOT PUSH1 0xCA SLOAD AND OR PUSH1 0xCA SSTORE DUP1 RETURN JUMPDEST POP POP CALLVALUE PUSH2 0x60D JUMPI DUP2 PUSH1 0x3 NOT CALLDATASIZE ADD SLT PUSH2 0x60D JUMPI PUSH1 0x20 SWAP1 PUSH2 0x17D5 PUSH2 0x4D1F JUMP JUMPDEST DUP4 CALLVALUE PUSH2 0x78B JUMPI PUSH1 0x20 CALLDATASIZE PUSH1 0x3 NOT ADD SLT PUSH2 0x78B JUMPI PUSH2 0x1DF2 PUSH2 0x5660 JUMP JUMPDEST PUSH1 0x4 CALLDATALOAD PUSH2 0x159 SSTORE DUP1 RETURN JUMPDEST POP POP CALLVALUE PUSH2 0x60D JUMPI DUP2 PUSH1 0x3 NOT CALLDATASIZE ADD SLT PUSH2 0x60D JUMPI PUSH2 0x12F SLOAD SWAP1 MLOAD PUSH1 0x1 PUSH1 0x1 PUSH1 0xA0 SHL SUB SWAP1 SWAP2 AND DUP2 MSTORE PUSH1 0x20 SWAP1 RETURN JUMPDEST DUP3 DUP5 PUSH2 0x1E33 CALLDATASIZE PUSH1 0x4 PUSH2 0x3C05 JUMP JUMPDEST SWAP5 SWAP3 SWAP1 PUSH2 0x1E3E PUSH2 0x4EE0 JUMP JUMPDEST PUSH2 0x1E46 PUSH2 0x56EE JUMP JUMPDEST DUP4 MLOAD SWAP2 PUSH2 0x1E54 PUSH1 0xA0 DUP5 PUSH2 0x3BB1 JUMP JUMPDEST DUP3 MSTORE PUSH1 0x20 DUP1 DUP4 ADD DUP5 DUP2 MSTORE CALLER DUP7 DUP6 ADD MSTORE PUSH1 0x1 PUSH1 0x1 PUSH1 0xA0 SHL SUB SWAP3 DUP4 AND PUSH1 0x60 DUP6 ADD SWAP1 DUP2 MSTORE SWAP8 DUP4 AND PUSH1 0x80 DUP6 ADD SWAP1 DUP2 MSTORE PUSH2 0x14F SLOAD DUP8 MLOAD PUSH4 0xE97A4D63 PUSH1 0xE0 SHL DUP2 MSTORE DUP7 MLOAD PUSH1 0x4 DUP3 ADD MSTORE SWAP3 MLOAD PUSH1 0x24 DUP5 ADD MSTORE PUSH1 0x40 SWAP1 SWAP6 ADD MLOAD DUP5 AND PUSH1 0x44 DUP4 ADD MSTORE SWAP8 MLOAD DUP4 AND PUSH1 0x64 DUP3 ADD MSTORE SWAP7 MLOAD DUP3 AND PUSH1 0x84 DUP9 ADD MSTORE SWAP6 SWAP2 DUP7 SWAP2 DUP4 SWAP2 PUSH1 0xA4 SWAP2 DUP4 SWAP2 AND PUSH2 0x696 JUMP JUMPDEST POP POP CALLVALUE PUSH2 0x60D JUMPI PUSH2 0x400 CALLDATASIZE PUSH1 0x3 NOT ADD SLT PUSH2 0x60D JUMPI DUP2 SLOAD PUSH1 0xFF DUP2 PUSH1 0x8 SHR AND ISZERO SWAP1 DUP2 DUP1 SWAP3 PUSH2 0x240D JUMPI JUMPDEST DUP1 ISZERO PUSH2 0x23F6 JUMPI JUMPDEST ISZERO PUSH2 0x239B JUMPI PUSH1 0xFF NOT DUP2 AND PUSH1 0x1 OR DUP5 SSTORE DUP2 PUSH2 0x238A JUMPI JUMPDEST POP PUSH1 0xFF DUP4 SLOAD PUSH1 0x8 SHR AND PUSH2 0x1F22 DUP2 PUSH2 0x48F2 JUMP JUMPDEST PUSH2 0x384 CALLDATALOAD PUSH1 0x1 PUSH1 0x1 PUSH1 0xA0 SHL SUB DUP2 AND SWAP1 DUP2 SWAP1 SUB PUSH2 0x6E1 JUMPI PUSH2 0x1F6 DUP1 SLOAD PUSH1 0x1 PUSH1 0x1 PUSH1 0xA0 SHL SUB NOT AND SWAP1 SWAP2 OR SWAP1 SSTORE PUSH1 0x1 PUSH1 0x1 PUSH1 0xA0 SHL SUB PUSH2 0x344 CALLDATALOAD SWAP1 DUP2 AND SWAP1 DUP2 SWAP1 SUB PUSH2 0x6E1 JUMPI PUSH2 0x364 CALLDATALOAD PUSH1 0x1 PUSH1 0x1 PUSH1 0xA0 SHL SUB DUP2 AND DUP2 SUB PUSH2 0x6E1 JUMPI PUSH1 0x1 SWAP2 PUSH2 0x1F83 DUP5 PUSH2 0x48F2 JUMP JUMPDEST PUSH2 0x1F8C DUP5 PUSH2 0x48F2 JUMP JUMPDEST PUSH2 0x1F95 DUP5 PUSH2 0x48F2 JUMP JUMPDEST PUSH2 0x1F9E DUP5 PUSH2 0x48F2 JUMP JUMPDEST PUSH1 0x1 PUSH1 0x1 PUSH1 0x60 SHL SUB PUSH1 0xA0 SHL PUSH1 0x97 SLOAD AND OR PUSH1 0x97 SSTORE PUSH2 0x1FBA DUP4 PUSH2 0x48F2 JUMP JUMPDEST PUSH1 0xCA SLOAD SWAP1 PUSH3 0x10000 DUP4 PUSH1 0xB0 SHL SUB SWAP1 PUSH1 0x10 SHL AND SWAP1 PUSH2 0xFF01 DUP4 PUSH1 0xB0 SHL SUB NOT AND OR OR PUSH1 0xCA SSTORE PUSH2 0x1FE5 DUP2 PUSH2 0x48F2 JUMP JUMPDEST PUSH8 0xDE0B6B3A7640000 PUSH1 0xC4 CALLDATALOAD GT ISZERO PUSH2 0x2379 JUMPI PUSH2 0x2003 PUSH2 0x104 CALLDATALOAD PUSH2 0x5733 JUMP JUMPDEST PUSH2 0x200F PUSH2 0x124 CALLDATALOAD PUSH2 0x5733 JUMP JUMPDEST PUSH2 0x201B PUSH2 0x144 CALLDATALOAD PUSH2 0x5733 JUMP JUMPDEST PUSH2 0x2027 PUSH2 0x164 CALLDATALOAD PUSH2 0x5733 JUMP JUMPDEST PUSH2 0x2033 PUSH2 0x184 CALLDATALOAD PUSH2 0x5733 JUMP JUMPDEST PUSH2 0x203F PUSH2 0x1A4 CALLDATALOAD PUSH2 0x5733 JUMP JUMPDEST PUSH2 0x204B PUSH2 0x1C4 CALLDATALOAD PUSH2 0x5733 JUMP JUMPDEST PUSH2 0x2057 PUSH2 0x1E4 CALLDATALOAD PUSH2 0x5733 JUMP JUMPDEST PUSH2 0x2063 PUSH2 0x204 CALLDATALOAD PUSH2 0x5733 JUMP JUMPDEST PUSH2 0x207B PUSH2 0x2076 PUSH2 0x244 CALLDATALOAD PUSH2 0x224 CALLDATALOAD PUSH2 0x4304 JUMP JUMPDEST PUSH2 0x5733 JUMP JUMPDEST PUSH1 0x4 CALLDATALOAD PUSH1 0x1 PUSH1 0x1 PUSH1 0xA0 SHL SUB DUP2 AND SWAP1 DUP2 SWAP1 SUB PUSH2 0x2375 JUMPI PUSH2 0x14F DUP1 SLOAD PUSH1 0x1 PUSH1 0x1 PUSH1 0xA0 SHL SUB NOT AND SWAP1 SWAP2 OR SWAP1 SSTORE PUSH1 0x24 CALLDATALOAD PUSH1 0x1 PUSH1 0x1 PUSH1 0xA0 SHL SUB DUP2 AND DUP2 SUB PUSH2 0x6E1 JUMPI PUSH2 0x12F DUP1 SLOAD PUSH1 0x1 PUSH1 0x1 PUSH1 0xA0 SHL SUB NOT AND PUSH1 0x1 PUSH1 0x1 PUSH1 0xA0 SHL SUB SWAP3 DUP4 AND OR SWAP1 SSTORE PUSH1 0x44 CALLDATALOAD SWAP1 DUP2 AND DUP2 SUB PUSH2 0x6E1 JUMPI PUSH2 0x130 DUP1 SLOAD PUSH1 0x1 PUSH1 0x1 PUSH1 0xA0 SHL SUB NOT AND PUSH1 0x1 PUSH1 0x1 PUSH1 0xA0 SHL SUB SWAP3 DUP4 AND OR SWAP1 SSTORE PUSH1 0x64 CALLDATALOAD SWAP1 DUP2 AND DUP2 SUB PUSH2 0x6E1 JUMPI PUSH2 0x133 DUP1 SLOAD PUSH1 0x1 PUSH1 0x1 PUSH1 0xA0 SHL SUB NOT AND PUSH1 0x1 PUSH1 0x1 PUSH1 0xA0 SHL SUB SWAP3 DUP4 AND OR SWAP1 SSTORE PUSH1 0x84 CALLDATALOAD SWAP1 DUP2 AND DUP2 SUB PUSH2 0x6E1 JUMPI PUSH2 0x146 DUP1 SLOAD PUSH1 0x1 PUSH1 0x1 PUSH1 0xA0 SHL SUB NOT AND PUSH1 0x1 PUSH1 0x1 PUSH1 0xA0 SHL SUB SWAP3 DUP4 AND OR SWAP1 SSTORE PUSH1 0xA4 CALLDATALOAD SWAP1 DUP2 AND DUP2 SUB PUSH2 0x6E1 JUMPI PUSH2 0x147 DUP1 SLOAD PUSH1 0x1 PUSH1 0x1 PUSH1 0xA0 SHL SUB NOT AND PUSH1 0x1 PUSH1 0x1 PUSH1 0xA0 SHL SUB SWAP3 DUP4 AND OR SWAP1 SSTORE PUSH1 0xC4 CALLDATALOAD PUSH2 0x149 SSTORE PUSH1 0xE4 CALLDATALOAD PUSH2 0x14A SSTORE PUSH2 0x104 CALLDATALOAD PUSH2 0x13B SSTORE PUSH2 0x124 CALLDATALOAD PUSH2 0x13C SSTORE PUSH2 0x144 CALLDATALOAD PUSH2 0x13D SSTORE PUSH2 0x164 CALLDATALOAD PUSH2 0x13E SSTORE PUSH2 0x184 CALLDATALOAD PUSH2 0x13F SSTORE PUSH2 0x1A4 CALLDATALOAD PUSH2 0x140 SSTORE PUSH2 0x1C4 CALLDATALOAD PUSH2 0x141 SSTORE PUSH2 0x1E4 CALLDATALOAD PUSH2 0x142 SSTORE PUSH2 0x204 CALLDATALOAD PUSH2 0x143 SSTORE PUSH2 0x224 CALLDATALOAD PUSH2 0x139 SSTORE PUSH2 0x244 CALLDATALOAD PUSH2 0x13A SSTORE PUSH2 0x264 CALLDATALOAD PUSH2 0x14C DUP2 SWAP1 SSTORE SWAP1 PUSH2 0x284 CALLDATALOAD SWAP1 DUP2 AND SWAP1 DUP2 SWAP1 SUB PUSH2 0x6E1 JUMPI PUSH2 0x158 DUP1 SLOAD PUSH1 0x1 PUSH1 0x1 PUSH1 0xA0 SHL SUB NOT AND SWAP1 SWAP2 OR SWAP1 SSTORE PUSH2 0x2A4 CALLDATALOAD PUSH2 0x159 SSTORE PUSH2 0x2C4 CALLDATALOAD PUSH2 0x15A DUP2 SWAP1 SSTORE SWAP1 PUSH1 0x1 PUSH1 0x1 PUSH1 0xA0 SHL SUB PUSH2 0x2E4 CALLDATALOAD SWAP1 DUP2 AND SWAP1 DUP2 SWAP1 SUB PUSH2 0x6E1 JUMPI PUSH2 0x152 DUP1 SLOAD PUSH1 0x1 PUSH1 0x1 PUSH1 0xA0 SHL SUB NOT AND SWAP1 SWAP2 OR SWAP1 SSTORE PUSH1 0x1 PUSH1 0x1 PUSH1 0xA0 SHL SUB PUSH2 0x304 CALLDATALOAD SWAP1 DUP2 AND SWAP1 DUP2 SWAP1 SUB PUSH2 0x6E1 JUMPI PUSH2 0x153 SWAP1 PUSH1 0x1 PUSH1 0x1 PUSH1 0x60 SHL SUB PUSH1 0xA0 SHL DUP3 SLOAD AND OR SWAP1 SSTORE PUSH2 0x324 CALLDATALOAD PUSH2 0x154 SSTORE NUMBER PUSH2 0x157 SSTORE NUMBER ADD PUSH2 0x14D SSTORE NUMBER ADD PUSH2 0x15B SSTORE PUSH2 0x14B PUSH2 0xFFFF NOT DUP2 SLOAD AND SWAP1 SSTORE PUSH2 0x3A4 CALLDATALOAD PUSH2 0x22A8 DUP3 PUSH2 0x48F2 JUMP JUMPDEST DUP1 ISZERO PUSH2 0x2364 JUMPI PUSH2 0x190 DUP2 SWAP1 SSTORE NUMBER ADD PUSH2 0x18F SSTORE PUSH2 0x3C4 CALLDATALOAD PUSH1 0x1 PUSH1 0x1 PUSH1 0xA0 SHL SUB DUP2 AND DUP2 SUB PUSH2 0x6E1 JUMPI PUSH2 0x22DA PUSH2 0x22FC SWAP3 PUSH2 0x48F2 JUMP JUMPDEST PUSH2 0x1C3 DUP1 SLOAD PUSH1 0x1 PUSH1 0x1 PUSH1 0xA0 SHL SUB NOT AND PUSH1 0x1 PUSH1 0x1 PUSH1 0xA0 SHL SUB SWAP1 SWAP3 AND SWAP2 SWAP1 SWAP2 OR SWAP1 SSTORE JUMP JUMPDEST PUSH2 0x3E4 CALLDATALOAD PUSH1 0x1 PUSH1 0x1 PUSH1 0xA0 SHL SUB DUP2 AND SWAP1 DUP2 SWAP1 SUB PUSH2 0x6E1 JUMPI PUSH2 0x229 DUP1 SLOAD PUSH1 0x1 PUSH1 0x1 PUSH1 0xA0 SHL SUB NOT AND SWAP1 SWAP2 OR SWAP1 SSTORE PUSH2 0x232E JUMPI POP DUP1 RETURN JUMPDEST PUSH1 0x20 PUSH32 0x7F26B83FF96E1F2B6A682F133852F6798A09C465DA95921460CEFB3847402498 SWAP2 PUSH2 0xFF00 NOT DUP5 SLOAD AND DUP5 SSTORE MLOAD PUSH1 0x1 DUP2 MSTORE LOG1 DUP1 RETURN JUMPDEST DUP4 MLOAD PUSH4 0x2A9FFAB7 PUSH1 0xE2 SHL DUP2 MSTORE PUSH1 0x4 SWAP1 REVERT JUMPDEST DUP5 DUP1 REVERT JUMPDEST DUP3 MLOAD PUSH4 0x2A9FFAB7 PUSH1 0xE2 SHL DUP2 MSTORE PUSH1 0x4 SWAP1 REVERT JUMPDEST PUSH2 0xFFFF NOT AND PUSH2 0x101 OR DUP4 SSTORE CODESIZE PUSH2 0x1F10 JUMP JUMPDEST DUP3 MLOAD PUSH3 0x461BCD PUSH1 0xE5 SHL DUP2 MSTORE PUSH1 0x20 PUSH1 0x4 DUP3 ADD MSTORE PUSH1 0x2E PUSH1 0x24 DUP3 ADD MSTORE PUSH32 0x496E697469616C697A61626C653A20636F6E747261637420697320616C726561 PUSH1 0x44 DUP3 ADD MSTORE PUSH14 0x191E481A5B9A5D1A585B1A5E9959 PUSH1 0x92 SHL PUSH1 0x64 DUP3 ADD MSTORE PUSH1 0x84 SWAP1 REVERT JUMPDEST POP ADDRESS EXTCODESIZE ISZERO DUP1 ISZERO PUSH2 0x1EFB JUMPI POP PUSH1 0x1 PUSH1 0xFF DUP3 AND EQ PUSH2 0x1EFB JUMP JUMPDEST POP PUSH1 0x1 PUSH1 0xFF DUP3 AND LT PUSH2 0x1EF4 JUMP JUMPDEST POP POP CALLVALUE PUSH2 0x60D JUMPI DUP2 PUSH1 0x3 NOT CALLDATASIZE ADD SLT PUSH2 0x60D JUMPI PUSH2 0x133 SLOAD SWAP1 MLOAD PUSH1 0x1 PUSH1 0x1 PUSH1 0xA0 SHL SUB SWAP1 SWAP2 AND DUP2 MSTORE PUSH1 0x20 SWAP1 RETURN JUMPDEST POP POP CALLVALUE PUSH2 0x60D JUMPI DUP2 PUSH1 0x3 NOT CALLDATASIZE ADD SLT PUSH2 0x60D JUMPI PUSH1 0x20 SWAP1 PUSH2 0x14E SLOAD SWAP1 MLOAD SWAP1 DUP2 MSTORE RETURN JUMPDEST POP POP CALLVALUE PUSH2 0x60D JUMPI DUP2 PUSH1 0x3 NOT CALLDATASIZE ADD SLT PUSH2 0x60D JUMPI PUSH1 0x20 SWAP1 PUSH1 0xFF PUSH1 0xCA SLOAD PUSH1 0x8 SHR AND SWAP1 MLOAD SWAP1 ISZERO ISZERO DUP2 MSTORE RETURN JUMPDEST POP POP CALLVALUE PUSH2 0x60D JUMPI DUP2 PUSH1 0x3 NOT CALLDATASIZE ADD SLT PUSH2 0x60D JUMPI PUSH2 0x24A5 PUSH2 0x56EE JUMP JUMPDEST PUSH2 0x14D DUP1 SLOAD NUMBER LT PUSH2 0x2675 JUMPI PUSH2 0x14C SLOAD NUMBER ADD SWAP1 SSTORE PUSH32 0xD3C59BDA47E141A8EC5A33D241B7F71B86E30D359F83A9227D912858B60404FC DUP3 DUP1 LOG1 PUSH2 0x137 SLOAD DUP3 PUSH2 0x24EA DUP3 PUSH2 0x4510 JUMP JUMPDEST SWAP2 DUP5 JUMPDEST DUP2 DUP2 LT PUSH2 0x25A6 JUMPI POP POP DUP1 PUSH2 0x2561 JUMPI JUMPDEST SWAP2 DUP1 MLOAD SWAP3 DUP2 DUP5 ADD SWAP1 DUP5 MSTORE PUSH1 0x20 SWAP2 DUP3 DUP6 ADD MSTORE DUP3 MLOAD DUP1 SWAP2 MSTORE DUP2 PUSH1 0x60 DUP6 ADD SWAP4 ADD SWAP2 DUP6 JUMPDEST DUP3 DUP2 LT PUSH2 0x254D JUMPI DUP7 PUSH32 0xAE5116A8119D08673A0F1DFA7546B95DA4BD54BB17FEDA7C61130AC7859152F6 DUP8 DUP8 SUB DUP9 LOG1 DUP1 RETURN JUMPDEST DUP4 MLOAD DUP6 MSTORE SWAP4 DUP2 ADD SWAP4 SWAP3 DUP2 ADD SWAP3 PUSH1 0x1 ADD PUSH2 0x251C JUMP JUMPDEST PUSH2 0x2578 PUSH8 0xDE0B6B3A7640000 SWAP2 PUSH2 0x139 SLOAD SWAP1 PUSH2 0x4436 JUMP JUMPDEST DIV PUSH2 0x131 PUSH2 0x2587 DUP3 DUP3 SLOAD PUSH2 0x4229 JUMP JUMPDEST SWAP1 SSTORE PUSH2 0x146 SLOAD PUSH2 0x25A1 SWAP1 DUP3 SWAP1 PUSH1 0x1 PUSH1 0x1 PUSH1 0xA0 SHL SUB AND PUSH2 0x40D3 JUMP JUMPDEST PUSH2 0x24FC JUMP JUMPDEST PUSH2 0x25AF DUP2 PUSH2 0x464D JUMP JUMPDEST PUSH2 0x25B9 DUP2 DUP4 PUSH2 0x4A34 JUMP JUMPDEST DUP7 PUSH2 0x150 SWAP2 DUP7 PUSH2 0x25C9 DUP6 DUP6 PUSH2 0x3A60 JUMP JUMPDEST SWAP1 SLOAD SWAP1 PUSH1 0x3 SHL SHR SWAP2 DUP4 DUP4 SGT PUSH2 0x25E6 JUMPI JUMPDEST POP POP POP POP POP PUSH1 0x1 ADD PUSH2 0x24ED JUMP JUMPDEST SWAP5 PUSH2 0x262B DUP4 DUP3 SWAP7 SWAP10 PUSH2 0x2631 SWAP5 PUSH2 0x2625 DUP6 PUSH2 0x2618 PUSH2 0x261E PUSH2 0x2648 SWAP11 PUSH1 0x1 SWAP15 PUSH8 0xDE0B6B3A7640000 SWAP4 DUP5 SWAP2 PUSH2 0x13A SLOAD PUSH2 0x4436 JUMP JUMPDEST DIV PUSH2 0x4436 JUMP JUMPDEST DIV SWAP3 PUSH2 0x4311 JUMP JUMPDEST MSTORE PUSH2 0x4304 JUMP JUMPDEST SWAP8 PUSH2 0x3A60 JUMP JUMPDEST DUP2 SWAP4 SWAP2 SLOAD SWAP1 PUSH1 0x3 SHL SWAP2 DUP3 SHL SWAP2 PUSH1 0x0 NOT SWAP1 SHL NOT AND OR SWAP1 JUMP JUMPDEST SWAP1 SSTORE PUSH2 0x266B PUSH2 0x2657 DUP3 DUP8 PUSH2 0x4311 JUMP JUMPDEST MLOAD DUP9 DUP5 DUP1 PUSH1 0xA0 SHL SUB PUSH2 0x147 SLOAD AND SWAP2 DUP5 PUSH2 0x4974 JUMP JUMPDEST SWAP1 DUP7 CODESIZE DUP7 DUP2 PUSH2 0x25D9 JUMP JUMPDEST DUP2 MLOAD PUSH4 0x101B6859 PUSH1 0xE0 SHL DUP2 MSTORE PUSH1 0x4 SWAP1 REVERT JUMPDEST DUP3 DUP5 CALLVALUE PUSH2 0x78B JUMPI DUP2 PUSH1 0x3 NOT CALLDATASIZE ADD SLT PUSH2 0x78B JUMPI PUSH1 0x1 PUSH1 0x1 PUSH1 0xA0 SHL SUB PUSH1 0x4 CALLDATALOAD DUP2 DUP2 AND DUP2 SUB PUSH2 0x6E1 JUMPI PUSH1 0x24 CALLDATALOAD SWAP2 PUSH2 0x14F SLOAD AND CALLER SUB PUSH2 0xA99 JUMPI SWAP1 PUSH2 0xA96 SWAP2 PUSH2 0x14E DUP3 DUP2 SLOAD SUB SWAP1 SSTORE PUSH2 0x40D3 JUMP JUMPDEST POP POP CALLVALUE PUSH2 0x60D JUMPI DUP2 PUSH1 0x3 NOT CALLDATASIZE ADD SLT PUSH2 0x60D JUMPI PUSH1 0x20 SWAP1 PUSH2 0x157 SLOAD SWAP1 MLOAD SWAP1 DUP2 MSTORE RETURN JUMPDEST DUP4 CALLVALUE PUSH2 0x78B JUMPI PUSH1 0x20 CALLDATASIZE PUSH1 0x3 NOT ADD SLT PUSH2 0x78B JUMPI PUSH2 0x2708 PUSH2 0x5660 JUMP JUMPDEST PUSH1 0x4 CALLDATALOAD PUSH2 0x143 SSTORE DUP1 RETURN JUMPDEST DUP3 DUP5 CALLVALUE PUSH2 0x78B JUMPI DUP2 PUSH1 0x3 NOT CALLDATASIZE ADD SLT PUSH2 0x78B JUMPI PUSH1 0x1 PUSH1 0x1 PUSH1 0xA0 SHL SUB PUSH1 0x4 CALLDATALOAD DUP2 DUP2 AND DUP2 SUB PUSH2 0x6E1 JUMPI DUP2 PUSH2 0x14F SLOAD AND CALLER SUB PUSH2 0xA99 JUMPI SWAP1 PUSH2 0xA96 SWAP2 PUSH1 0x24 CALLDATALOAD SWAP2 PUSH2 0x133 SLOAD AND PUSH2 0x5627 JUMP JUMPDEST DUP4 CALLVALUE PUSH2 0x78B JUMPI PUSH1 0x20 CALLDATASIZE PUSH1 0x3 NOT ADD SLT PUSH2 0x78B JUMPI PUSH1 0x4 CALLDATALOAD PUSH1 0x1 PUSH1 0x1 PUSH1 0xA0 SHL SUB DUP2 AND DUP2 SUB PUSH2 0x6E1 JUMPI PUSH2 0xA96 SWAP1 PUSH2 0x22DA PUSH2 0x5660 JUMP JUMPDEST DUP3 DUP5 CALLVALUE PUSH2 0x78B JUMPI DUP1 PUSH1 0x3 NOT CALLDATASIZE ADD SLT PUSH2 0x78B JUMPI POP PUSH32 0x0 PUSH1 0x1 PUSH1 0x1 PUSH1 0xA0 SHL SUB AND ADDRESS SUB PUSH2 0x27F4 JUMPI PUSH1 0x20 SWAP1 MLOAD PUSH32 0x360894A13BA1A3210667C828492DB98DCA3E2076CC3735A920A3CA505D382BBC DUP2 MSTORE RETURN JUMPDEST MLOAD PUSH3 0x461BCD PUSH1 0xE5 SHL DUP2 MSTORE PUSH1 0x20 PUSH1 0x4 DUP3 ADD MSTORE PUSH1 0x38 PUSH1 0x24 DUP3 ADD MSTORE PUSH32 0x555550535570677261646561626C653A206D757374206E6F742062652063616C PUSH1 0x44 DUP3 ADD MSTORE PUSH32 0x6C6564207468726F7567682064656C656761746563616C6C0000000000000000 PUSH1 0x64 DUP3 ADD MSTORE PUSH1 0x84 SWAP1 REVERT JUMPDEST DUP4 CALLVALUE PUSH2 0x78B JUMPI DUP1 PUSH1 0x3 NOT CALLDATASIZE ADD SLT PUSH2 0x78B JUMPI PUSH2 0x2876 PUSH2 0x5660 JUMP JUMPDEST PUSH1 0xFF NOT PUSH1 0xCA SLOAD AND PUSH1 0xCA SSTORE DUP1 RETURN JUMPDEST POP POP DUP1 PUSH1 0x3 NOT CALLDATASIZE ADD SLT PUSH2 0x60D JUMPI PUSH1 0x4 CALLDATALOAD SWAP1 PUSH1 0x1 PUSH1 0x1 PUSH1 0xA0 SHL SUB SWAP1 DUP2 DUP4 AND DUP4 SUB PUSH2 0x6E1 JUMPI DUP4 SWAP3 PUSH1 0x24 CALLDATALOAD SWAP3 PUSH8 0xFFFFFFFFFFFFFFFF DUP5 GT PUSH2 0x2375 JUMPI CALLDATASIZE PUSH1 0x23 DUP6 ADD SLT ISZERO PUSH2 0x2375 JUMPI DUP4 PUSH1 0x4 ADD CALLDATALOAD SWAP1 PUSH2 0x28E1 PUSH2 0x28D8 DUP4 PUSH2 0x3BE9 JUMP JUMPDEST SWAP5 MLOAD SWAP5 DUP6 PUSH2 0x3BB1 JUMP JUMPDEST DUP2 DUP5 MSTORE CALLDATASIZE PUSH1 0x24 DUP4 DUP8 ADD ADD GT PUSH2 0x296F JUMPI PUSH2 0xA96 SWAP6 PUSH1 0x20 DUP4 PUSH2 0x2962 SWAP5 PUSH1 0x24 PUSH1 0x1 SWAP10 ADD DUP4 DUP10 ADD CALLDATACOPY DUP7 ADD ADD MSTORE DUP1 PUSH32 0x0 AND SWAP1 PUSH2 0x2939 DUP3 ADDRESS EQ ISZERO PUSH2 0x3C2B JUMP JUMPDEST PUSH32 0x360894A13BA1A3210667C828492DB98DCA3E2076CC3735A920A3CA505D382BBC SLOAD AND EQ PUSH2 0x3C8C JUMP JUMPDEST PUSH2 0x296A PUSH2 0x5660 JUMP JUMPDEST PUSH2 0x3CED JUMP JUMPDEST DUP6 DUP1 REVERT JUMPDEST POP POP CALLVALUE PUSH2 0x60D JUMPI DUP2 PUSH1 0x3 NOT CALLDATASIZE ADD SLT PUSH2 0x60D JUMPI PUSH1 0x20 SWAP1 PUSH2 0x13B SLOAD SWAP1 MLOAD SWAP1 DUP2 MSTORE RETURN JUMPDEST POP POP CALLVALUE PUSH2 0x60D JUMPI DUP2 PUSH1 0x3 NOT CALLDATASIZE ADD SLT PUSH2 0x60D JUMPI PUSH2 0x147 SLOAD SWAP1 MLOAD PUSH1 0x1 PUSH1 0x1 PUSH1 0xA0 SHL SUB SWAP1 SWAP2 AND DUP2 MSTORE PUSH1 0x20 SWAP1 RETURN JUMPDEST POP POP CALLVALUE PUSH2 0x60D JUMPI DUP2 PUSH1 0x3 NOT CALLDATASIZE ADD SLT PUSH2 0x60D JUMPI PUSH1 0x20 SWAP1 PUSH2 0x14C SLOAD SWAP1 MLOAD SWAP1 DUP2 MSTORE RETURN JUMPDEST POP POP CALLVALUE PUSH2 0x60D JUMPI PUSH1 0x20 CALLDATASIZE PUSH1 0x3 NOT ADD SLT PUSH2 0x60D JUMPI PUSH1 0x4 CALLDATALOAD PUSH2 0x137 DUP1 SLOAD DUP3 LT ISZERO PUSH2 0x9BA JUMPI SWAP1 PUSH2 0x2A09 SWAP2 PUSH2 0x3B95 JUMP JUMPDEST POP DUP1 SLOAD PUSH1 0x1 SWAP1 SWAP2 ADD SLOAD DUP3 MLOAD SWAP2 DUP3 MSTORE PUSH1 0x1 PUSH1 0x1 PUSH1 0xA0 SHL SUB AND PUSH1 0x20 DUP3 ADD MSTORE RETURN JUMPDEST DUP4 SWAP2 POP CALLVALUE PUSH2 0x60D JUMPI CALLDATASIZE PUSH1 0x3 NOT ADD SLT PUSH2 0x78B JUMPI POP PUSH2 0x2A42 PUSH2 0x4FFB JUMP JUMPDEST POP PUSH2 0x14F SLOAD PUSH1 0x1 PUSH1 0x1 PUSH1 0xA0 SHL SUB SWAP1 DUP2 AND CALLER SUB PUSH2 0x1172 JUMPI PUSH2 0xCB8 PUSH2 0xCAE SWAP2 PUSH2 0x2A6A CALLDATASIZE PUSH1 0x4 PUSH2 0x55B4 JUMP JUMPDEST SWAP4 PUSH2 0x2A73 PUSH2 0x4FFB JUMP JUMPDEST POP PUSH2 0x2A7C PUSH2 0x4EE0 JUMP JUMPDEST PUSH2 0x2A84 PUSH2 0x56EE JUMP JUMPDEST PUSH2 0x1134 PUSH2 0xC4E DUP3 MLOAD PUSH4 0xD9B6C2E5 PUSH1 0xE0 SHL PUSH1 0x20 DUP3 ADD MSTORE PUSH2 0xC33 PUSH1 0x24 DUP3 ADD DUP10 PUSH2 0x4FAB JUMP JUMPDEST DUP3 DUP5 CALLVALUE PUSH2 0x78B JUMPI DUP2 PUSH1 0x3 NOT CALLDATASIZE ADD SLT PUSH2 0x78B JUMPI POP PUSH1 0x4 CALLDATALOAD PUSH1 0x1 PUSH1 0x1 PUSH1 0xA0 SHL SUB DUP2 DUP2 AND SWAP2 DUP3 SWAP1 SUB PUSH2 0x6E1 JUMPI PUSH1 0x24 CALLDATALOAD SWAP2 DUP2 DUP4 AND SWAP2 DUP3 DUP5 SUB PUSH2 0x6E1 JUMPI PUSH2 0x2B32 SWAP3 PUSH2 0x2AEA PUSH2 0x56EE JUMP JUMPDEST PUSH2 0x2AF3 ADDRESS PUSH2 0x4289 JUMP JUMPDEST SWAP1 DUP7 MLOAD SWAP4 PUSH4 0x2AB7831F PUSH1 0xE0 SHL PUSH1 0x20 DUP7 ADD MSTORE PUSH1 0x24 DUP6 ADD MSTORE CALLER PUSH1 0x44 DUP6 ADD MSTORE PUSH1 0x64 DUP5 ADD MSTORE PUSH1 0x84 DUP4 ADD MSTORE PUSH1 0x84 DUP3 MSTORE PUSH2 0x2B28 PUSH1 0xA4 DUP4 PUSH2 0x3BB1 JUMP JUMPDEST PUSH2 0x1F6 SLOAD AND PUSH2 0x4952 JUMP JUMPDEST SWAP2 PUSH1 0x20 DUP4 DUP1 MLOAD DUP2 ADD SUB SLT PUSH2 0x6E1 JUMPI PUSH2 0x6B1 PUSH1 0x20 DUP1 SWAP5 ADD MLOAD DUP1 SWAP4 PUSH2 0x40D3 JUMP JUMPDEST POP POP CALLVALUE PUSH2 0x60D JUMPI DUP2 PUSH1 0x3 NOT CALLDATASIZE ADD SLT PUSH2 0x60D JUMPI PUSH1 0x20 SWAP1 PUSH2 0x13E SLOAD SWAP1 MLOAD SWAP1 DUP2 MSTORE RETURN JUMPDEST POP POP CALLVALUE PUSH2 0x60D JUMPI DUP2 PUSH1 0x3 NOT CALLDATASIZE ADD SLT PUSH2 0x60D JUMPI PUSH1 0x20 SWAP1 PUSH2 0x816 PUSH2 0x2B9B PUSH2 0x2B93 PUSH2 0x4D1F JUMP JUMPDEST SWAP2 SWAP1 SWAP2 PUSH2 0x4325 JUMP JUMPDEST SWAP2 PUSH2 0x4B1A JUMP JUMPDEST POP POP CALLVALUE PUSH2 0x60D JUMPI DUP2 PUSH1 0x3 NOT CALLDATASIZE ADD SLT PUSH2 0x60D JUMPI PUSH1 0xCA SLOAD PUSH1 0xFF DUP2 PUSH1 0x8 SHR AND ISZERO PUSH2 0x2C9C JUMPI PUSH1 0x1 DUP1 PUSH1 0xA0 SHL SUB DUP1 DUP3 PUSH1 0x10 SHR AND CALLER EQ ISZERO SWAP1 DUP2 PUSH2 0x2C1C JUMPI JUMPDEST POP PUSH2 0x19B2 JUMPI PUSH1 0xFF DUP2 AND ISZERO PUSH2 0x19A1 JUMPI PUSH2 0xFF00 NOT AND PUSH1 0xCA SSTORE MLOAD CALLER DUP2 MSTORE PUSH32 0x5DB9EE0A495BF2E6FF9C91A7834C1BA4FDD244A5E8AA4E537BD38AEAE4B073AA SWAP1 PUSH1 0x20 SWAP1 LOG1 DUP1 RETURN JUMPDEST PUSH1 0x97 SLOAD DUP5 MLOAD PUSH4 0xD994D6D5 PUSH1 0xE0 SHL DUP2 MSTORE CALLER PUSH1 0x4 DUP3 ADD MSTORE SWAP3 POP PUSH1 0x20 SWAP2 DUP4 SWAP2 PUSH1 0x24 SWAP2 DUP4 SWAP2 AND GAS STATICCALL SWAP1 DUP2 ISZERO PUSH2 0x2C8F JUMPI DUP5 SWAP2 PUSH2 0x2C56 JUMPI JUMPDEST POP ISZERO CODESIZE PUSH2 0x2BD9 JUMP JUMPDEST SWAP1 POP PUSH1 0x20 DUP2 RETURNDATASIZE DUP3 GT PUSH2 0x2C87 JUMPI JUMPDEST DUP2 PUSH2 0x2C70 PUSH1 0x20 SWAP4 DUP4 PUSH2 0x3BB1 JUMP JUMPDEST DUP2 ADD SUB SLT PUSH2 0x9BA JUMPI PUSH2 0x2C81 SWAP1 PUSH2 0x412A JUMP JUMPDEST CODESIZE PUSH2 0x2C4E JUMP JUMPDEST RETURNDATASIZE SWAP2 POP PUSH2 0x2C63 JUMP JUMPDEST POP POP POP MLOAD SWAP1 RETURNDATASIZE SWAP1 DUP3 RETURNDATACOPY RETURNDATASIZE SWAP1 REVERT JUMPDEST DUP2 MLOAD PUSH4 0x7C7FD079 PUSH1 0xE0 SHL DUP2 MSTORE PUSH1 0x4 SWAP1 REVERT JUMPDEST DUP4 CALLVALUE PUSH2 0x78B JUMPI PUSH1 0x20 CALLDATASIZE PUSH1 0x3 NOT ADD SLT PUSH2 0x78B JUMPI PUSH1 0x4 CALLDATALOAD PUSH1 0x1 PUSH1 0x1 PUSH1 0xA0 SHL SUB DUP2 AND SWAP1 DUP2 SWAP1 SUB PUSH2 0x60D JUMPI PUSH2 0x2CDC PUSH2 0x5660 JUMP JUMPDEST PUSH2 0x14F DUP1 SLOAD PUSH1 0x1 PUSH1 0x1 PUSH1 0xA0 SHL SUB NOT AND SWAP1 SWAP2 OR SWAP1 SSTORE DUP1 RETURN JUMPDEST DUP4 CALLVALUE PUSH2 0x78B JUMPI PUSH1 0x20 CALLDATASIZE PUSH1 0x3 NOT ADD SLT PUSH2 0x78B JUMPI PUSH2 0x2D0D PUSH2 0x5660 JUMP JUMPDEST PUSH1 0x4 CALLDATALOAD PUSH2 0x190 SSTORE DUP1 RETURN JUMPDEST DUP4 DUP4 CALLVALUE PUSH2 0x60D JUMPI PUSH2 0x100 SWAP2 DUP3 PUSH1 0x3 NOT CALLDATASIZE ADD SLT PUSH2 0x78B JUMPI POP PUSH2 0x2D36 PUSH2 0x4FFB JUMP JUMPDEST POP PUSH2 0x14F SLOAD PUSH1 0x1 PUSH1 0x1 PUSH1 0xA0 SHL SUB SWAP3 SWAP1 DUP4 AND CALLER SUB PUSH2 0x1172 JUMPI PUSH2 0x2D59 DUP3 MLOAD SWAP2 DUP3 PUSH2 0x3BB1 JUMP JUMPDEST PUSH1 0x4 CALLDATALOAD DUP4 DUP2 AND DUP2 SUB PUSH2 0x6E1 JUMPI DUP2 MSTORE PUSH1 0x24 CALLDATALOAD DUP4 DUP2 AND DUP2 SUB PUSH2 0x6E1 JUMPI PUSH1 0x20 DUP3 ADD MSTORE PUSH1 0x44 CALLDATALOAD DUP3 DUP3 ADD MSTORE PUSH1 0x64 CALLDATALOAD PUSH1 0x60 DUP3 ADD MSTORE PUSH1 0x80 DUP2 ADD SWAP2 PUSH1 0x84 CALLDATALOAD DUP4 MSTORE PUSH1 0xA4 CALLDATALOAD SWAP1 DUP5 DUP3 AND DUP3 SUB PUSH2 0x6E1 JUMPI PUSH1 0xA0 DUP4 ADD SWAP2 DUP3 MSTORE PUSH1 0xC4 CALLDATALOAD DUP6 DUP2 AND DUP2 SUB PUSH2 0x6E1 JUMPI PUSH1 0xC0 DUP5 ADD MSTORE PUSH1 0xE4 CALLDATALOAD SWAP3 DUP6 DUP5 AND DUP5 SUB PUSH2 0x6E1 JUMPI DUP6 PUSH2 0xCB8 SWAP6 PUSH2 0x2E15 PUSH2 0xC4E PUSH2 0x8BC PUSH2 0xC43 DUP7 PUSH2 0x135A SWAP14 PUSH2 0xCAE SWAP9 ADD SWAP11 DUP12 MSTORE PUSH2 0x2DE9 PUSH2 0x4FFB JUMP JUMPDEST POP PUSH2 0x2DF2 PUSH2 0x4EE0 JUMP JUMPDEST PUSH2 0x2DFA PUSH2 0x56EE JUMP JUMPDEST DUP9 MLOAD PUSH4 0x70F090ED PUSH1 0xE1 SHL PUSH1 0x20 DUP3 ADD MSTORE SWAP3 DUP4 SWAP2 PUSH1 0x24 DUP4 ADD PUSH2 0x4F47 JUMP JUMPDEST SWAP9 SWAP3 DUP1 SWAP12 DUP11 SWAP7 SWAP4 SWAP14 SWAP3 SWAP10 DUP7 MLOAD PUSH2 0x134F PUSH2 0x14E SWAP2 DUP3 SLOAD PUSH2 0x4229 JUMP JUMPDEST POP POP CALLVALUE PUSH2 0x60D JUMPI PUSH1 0x20 CALLDATASIZE PUSH1 0x3 NOT ADD SLT PUSH2 0x60D JUMPI PUSH1 0x4 CALLDATALOAD SWAP2 PUSH2 0x138 SWAP1 DUP2 SLOAD DUP5 LT ISZERO PUSH2 0x78B JUMPI POP PUSH1 0x20 SWAP3 PUSH2 0x1A97 SWAP2 PUSH2 0x3A60 JUMP JUMPDEST POP POP CALLVALUE PUSH2 0x60D JUMPI PUSH1 0x20 CALLDATASIZE PUSH1 0x3 NOT ADD SLT PUSH2 0x60D JUMPI PUSH1 0x4 CALLDATALOAD SWAP1 PUSH1 0x1 PUSH1 0x1 PUSH1 0xA0 SHL SUB SWAP1 DUP2 DUP4 AND DUP4 SUB PUSH2 0x6E1 JUMPI PUSH2 0xA96 SWAP3 PUSH2 0x2EC2 DUP4 DUP7 SWAP5 PUSH32 0x0 AND SWAP1 PUSH2 0x2939 DUP3 ADDRESS EQ ISZERO PUSH2 0x3C2B JUMP JUMPDEST PUSH2 0x2ECA PUSH2 0x5660 JUMP JUMPDEST PUSH2 0x2EDF PUSH2 0x2ED6 DUP5 PUSH2 0x3BE9 JUMP JUMPDEST SWAP3 MLOAD SWAP3 DUP4 PUSH2 0x3BB1 JUMP JUMPDEST DUP3 DUP3 MSTORE PUSH1 0x1F NOT PUSH2 0x2EEE DUP5 PUSH2 0x3BE9 JUMP JUMPDEST ADD CALLDATASIZE PUSH1 0x20 DUP5 ADD CALLDATACOPY PUSH2 0x3CED JUMP JUMPDEST DUP3 DUP5 PUSH2 0x2F07 CALLDATASIZE PUSH1 0x4 PUSH2 0x3AA2 JUMP JUMPDEST SWAP7 SWAP5 PUSH2 0x2F17 SWAP9 SWAP2 SWAP4 SWAP5 SWAP3 SWAP9 PUSH2 0x4EE0 JUMP JUMPDEST PUSH2 0x2F1F PUSH2 0x56EE JUMP JUMPDEST PUSH2 0x2F2B DUP7 MLOAD SWAP3 DUP4 PUSH2 0x3BB1 JUMP JUMPDEST PUSH1 0x1 DUP1 PUSH1 0xA0 SHL SUB SWAP8 DUP9 DUP1 DUP1 SWAP4 AND SWAP6 DUP7 DUP6 MSTORE PUSH1 0x20 SWAP12 DUP7 DUP14 DUP8 ADD MSTORE DUP9 DUP11 DUP8 ADD MSTORE PUSH1 0x60 DUP7 ADD MSTORE CALLER PUSH1 0x80 DUP7 ADD MSTORE AND PUSH1 0xA0 DUP5 ADD MSTORE AND PUSH1 0xC0 DUP3 ADD MSTORE DUP8 PUSH2 0x2F88 PUSH1 0xE4 DUP10 PUSH2 0x14F SLOAD AND SWAP4 DUP9 MLOAD SWAP5 DUP6 SWAP4 DUP5 SWAP3 PUSH4 0xE4E1B729 PUSH1 0xE0 SHL DUP5 MSTORE PUSH1 0x4 DUP5 ADD SWAP1 PUSH2 0x4FAB JUMP JUMPDEST CALLVALUE SWAP1 GAS CALL SWAP6 DUP7 ISZERO PUSH2 0x2FEE JUMPI SWAP6 PUSH2 0x2FBB JUMPI JUMPDEST POP PUSH2 0x2FB2 SWAP1 PUSH2 0x6B1 SWAP5 SWAP6 SWAP7 PUSH2 0x133 SLOAD AND ADDRESS SWAP1 CALLER SWAP1 PUSH2 0x4E9C JUMP JUMPDEST ADDRESS SWAP1 CALLER SWAP1 PUSH2 0x4E9C JUMP JUMPDEST SWAP1 SWAP4 SWAP5 POP DUP7 DUP2 DUP2 RETURNDATASIZE DUP4 GT PUSH2 0x2FE7 JUMPI JUMPDEST PUSH2 0x2FD4 DUP2 DUP4 PUSH2 0x3BB1 JUMP JUMPDEST DUP2 ADD SUB SLT PUSH2 0x6E1 JUMPI MLOAD SWAP4 SWAP3 PUSH2 0x2FB2 PUSH2 0x2F99 JUMP JUMPDEST POP RETURNDATASIZE PUSH2 0x2FCA JUMP JUMPDEST DUP6 MLOAD SWAP1 RETURNDATASIZE SWAP1 DUP3 RETURNDATACOPY RETURNDATASIZE SWAP1 REVERT JUMPDEST POP POP CALLVALUE PUSH2 0x60D JUMPI DUP2 PUSH1 0x3 NOT CALLDATASIZE ADD SLT PUSH2 0x60D JUMPI PUSH2 0x3013 PUSH2 0x424C JUMP JUMPDEST PUSH2 0x301B PUSH2 0x56EE JUMP JUMPDEST PUSH2 0x14B DUP1 SLOAD PUSH1 0xFF DUP2 AND DUP1 PUSH2 0x30E6 JUMPI JUMPDEST DUP1 PUSH2 0x30CC JUMPI JUMPDEST PUSH2 0x3038 JUMPI DUP4 DUP1 RETURN JUMPDEST PUSH2 0xFF00 NOT AND PUSH2 0x100 OR SWAP1 SSTORE DUP1 MLOAD SWAP1 DUP3 SWAP1 PUSH32 0x8B77276C97A5709F0D6DB52329848A254EB760CE8BE80D281799F633BDB69E83 DUP3 DUP1 LOG1 PUSH2 0x133 SLOAD PUSH1 0x1 PUSH1 0x1 PUSH1 0xA0 SHL SUB AND DUP1 EXTCODESIZE ISZERO PUSH2 0x8E0 JUMPI DUP4 PUSH1 0x4 DUP2 DUP6 DUP1 SWAP5 PUSH4 0x8456CB59 PUSH1 0xE0 SHL DUP4 MSTORE GAS CALL SWAP1 DUP2 ISZERO PUSH2 0x30C1 JUMPI POP PUSH2 0x30B1 JUMPI JUMPDEST POP POP PUSH2 0x30AA PUSH2 0x4542 JUMP JUMPDEST CODESIZE DUP1 DUP1 DUP4 DUP1 RETURN JUMPDEST PUSH2 0x30BA SWAP2 PUSH2 0x3BB1 JUMP JUMPDEST CODESIZE DUP2 PUSH2 0x30A0 JUMP JUMPDEST MLOAD SWAP2 RETURNDATASIZE SWAP2 POP DUP3 RETURNDATACOPY RETURNDATASIZE SWAP1 REVERT JUMPDEST POP PUSH2 0x30DB PUSH2 0x1778 PUSH2 0xAE6 PUSH2 0x4714 JUMP JUMPDEST PUSH2 0x14A SLOAD LT ISZERO PUSH2 0x3030 JUMP JUMPDEST POP PUSH1 0xFF DUP2 PUSH1 0x8 SHR AND ISZERO PUSH2 0x302A JUMP JUMPDEST POP POP CALLVALUE PUSH2 0x60D JUMPI DUP2 PUSH1 0x3 NOT CALLDATASIZE ADD SLT PUSH2 0x60D JUMPI PUSH1 0x20 SWAP1 PUSH2 0x13F SLOAD SWAP1 MLOAD SWAP1 DUP2 MSTORE RETURN JUMPDEST DUP4 DUP4 DUP3 PUSH1 0x3 NOT CALLDATASIZE ADD SLT PUSH2 0x60D JUMPI PUSH1 0x1 PUSH1 0x1 PUSH1 0xA0 SHL SUB SWAP3 PUSH1 0x4 CALLDATALOAD DUP5 DUP2 AND SWAP1 DUP2 SWAP1 SUB PUSH2 0x9BA JUMPI PUSH1 0x24 CALLDATALOAD SWAP1 DUP6 DUP3 AND DUP1 SWAP3 SUB PUSH2 0x2375 JUMPI PUSH1 0x44 CALLDATALOAD SWAP2 PUSH1 0x84 CALLDATALOAD SWAP4 PUSH1 0xA4 CALLDATALOAD SWAP8 DUP1 DUP10 AND DUP1 SWAP10 SUB PUSH2 0x323B JUMPI PUSH1 0xC4 CALLDATALOAD DUP2 DUP2 AND DUP1 SWAP2 SUB PUSH2 0x3237 JUMPI SWAP1 PUSH2 0x31DB SWAP4 SWAP3 SWAP2 PUSH2 0x3178 PUSH2 0x4EE0 JUMP JUMPDEST PUSH2 0x3180 PUSH2 0x56EE JUMP JUMPDEST DUP9 MLOAD SWAP3 PUSH2 0x318F PUSH2 0x100 DUP6 PUSH2 0x3BB1 JUMP JUMPDEST DUP7 DUP5 MSTORE PUSH1 0x20 SWAP12 DUP13 SWAP6 DUP7 DUP7 ADD MSTORE DUP9 DUP12 DUP7 ADD MSTORE PUSH1 0x64 CALLDATALOAD PUSH1 0x60 DUP7 ADD MSTORE DUP10 PUSH1 0x80 DUP7 ADD MSTORE CALLER PUSH1 0xA0 DUP7 ADD MSTORE PUSH1 0xC0 DUP6 ADD MSTORE DUP4 ADD MSTORE PUSH2 0x14F SLOAD AND DUP8 MLOAD DUP1 DUP1 SWAP6 DUP2 SWAP5 PUSH4 0x34975A41 PUSH1 0xE0 SHL DUP4 MSTORE PUSH1 0x4 DUP4 ADD PUSH2 0x4F47 JUMP JUMPDEST SUB SWAP2 CALLVALUE SWAP1 GAS CALL SWAP6 DUP7 ISZERO PUSH2 0x2FEE JUMPI DUP1 SWAP7 PUSH2 0x3203 JUMPI JUMPDEST POP POP PUSH2 0x6B1 SWAP3 SWAP2 PUSH2 0x1C28 SWAP2 ADDRESS SWAP1 CALLER SWAP1 PUSH2 0x4E9C JUMP JUMPDEST SWAP1 SWAP2 SWAP6 POP DUP7 DUP3 DUP2 RETURNDATASIZE DUP4 GT PUSH2 0x3230 JUMPI JUMPDEST PUSH2 0x321C DUP2 DUP4 PUSH2 0x3BB1 JUMP JUMPDEST DUP2 ADD SUB SLT PUSH2 0x78B JUMPI POP MLOAD SWAP4 DUP2 PUSH2 0x1C28 PUSH2 0x31EF JUMP JUMPDEST POP RETURNDATASIZE PUSH2 0x3212 JUMP JUMPDEST DUP9 DUP1 REVERT JUMPDEST DUP8 DUP1 REVERT JUMPDEST DUP3 DUP5 PUSH2 0x324C CALLDATASIZE PUSH1 0x4 PUSH2 0x3B23 JUMP JUMPDEST SWAP2 PUSH2 0x3259 SWAP7 SWAP5 SWAP2 SWAP7 PUSH2 0x4EE0 JUMP JUMPDEST PUSH2 0x3261 PUSH2 0x56EE JUMP JUMPDEST PUSH2 0x32C5 PUSH1 0xC4 DUP7 MLOAD SWAP4 PUSH2 0x3274 PUSH1 0xC0 DUP7 PUSH2 0x3BB1 JUMP JUMPDEST PUSH1 0x1 DUP1 PUSH1 0xA0 SHL SUB DUP1 DUP1 SWAP3 AND SWAP7 DUP8 DUP8 MSTORE DUP2 PUSH1 0x20 SWAP13 DUP14 SWAP8 DUP12 DUP10 DUP12 ADD MSTORE DUP13 DUP11 ADD MSTORE CALLER PUSH1 0x60 DUP11 ADD MSTORE AND PUSH1 0x80 DUP9 ADD MSTORE AND PUSH1 0xA0 DUP7 ADD MSTORE PUSH2 0x14F SLOAD AND SWAP4 DUP8 MLOAD SWAP5 DUP6 SWAP4 DUP5 SWAP3 PUSH4 0x6426C5DB PUSH1 0xE1 SHL DUP5 MSTORE PUSH1 0x4 DUP5 ADD SWAP1 PUSH2 0x4F02 JUMP JUMPDEST CALLVALUE SWAP1 GAS CALL SWAP5 DUP6 ISZERO PUSH2 0x14AE JUMPI DUP1 SWAP6 PUSH2 0x32E7 JUMPI JUMPDEST POP POP SWAP1 PUSH2 0x6B1 SWAP2 ADDRESS SWAP1 CALLER SWAP1 PUSH2 0x4E9C JUMP JUMPDEST SWAP1 SWAP2 SWAP5 POP DUP6 DUP3 DUP2 RETURNDATASIZE DUP4 GT PUSH2 0x3314 JUMPI JUMPDEST PUSH2 0x3300 DUP2 DUP4 PUSH2 0x3BB1 JUMP JUMPDEST DUP2 ADD SUB SLT PUSH2 0x78B JUMPI POP MLOAD SWAP3 PUSH2 0x6B1 DUP7 PUSH2 0x32D7 JUMP JUMPDEST POP RETURNDATASIZE PUSH2 0x32F6 JUMP JUMPDEST POP POP CALLVALUE PUSH2 0x60D JUMPI DUP2 PUSH1 0x3 NOT CALLDATASIZE ADD SLT PUSH2 0x60D JUMPI PUSH1 0x20 SWAP1 PUSH2 0x143 SLOAD SWAP1 MLOAD SWAP1 DUP2 MSTORE RETURN JUMPDEST DUP4 CALLVALUE PUSH2 0x78B JUMPI PUSH1 0x20 CALLDATASIZE PUSH1 0x3 NOT ADD SLT PUSH2 0x78B JUMPI PUSH1 0x4 CALLDATALOAD PUSH1 0x1 PUSH1 0x1 PUSH1 0xA0 SHL SUB DUP2 AND DUP2 SUB PUSH2 0x60D JUMPI PUSH2 0x3368 PUSH2 0x5660 JUMP JUMPDEST PUSH1 0xCA DUP1 SLOAD PUSH3 0x10000 PUSH1 0x1 PUSH1 0xB0 SHL SUB NOT AND PUSH1 0x10 SWAP3 SWAP1 SWAP3 SHL PUSH3 0x10000 PUSH1 0x1 PUSH1 0xB0 SHL SUB AND SWAP2 SWAP1 SWAP2 OR SWAP1 SSTORE DUP1 RETURN JUMPDEST DUP4 CALLVALUE PUSH2 0x78B JUMPI PUSH1 0x20 CALLDATASIZE PUSH1 0x3 NOT ADD SLT PUSH2 0x78B JUMPI PUSH2 0x33AC PUSH2 0x5660 JUMP JUMPDEST PUSH1 0x4 CALLDATALOAD PUSH2 0x14A SSTORE DUP1 RETURN JUMPDEST POP POP CALLVALUE PUSH2 0x60D JUMPI DUP2 PUSH1 0x3 NOT CALLDATASIZE ADD SLT PUSH2 0x60D JUMPI PUSH1 0x20 SWAP1 PUSH2 0x140 SLOAD SWAP1 MLOAD SWAP1 DUP2 MSTORE RETURN JUMPDEST DUP4 CALLVALUE PUSH2 0x78B JUMPI PUSH1 0x20 CALLDATASIZE PUSH1 0x3 NOT ADD SLT PUSH2 0x78B JUMPI PUSH1 0x4 CALLDATALOAD PUSH1 0x1 PUSH1 0x1 PUSH1 0xA0 SHL SUB DUP2 AND SWAP1 DUP2 SWAP1 SUB PUSH2 0x60D JUMPI PUSH2 0x3405 PUSH2 0x5660 JUMP JUMPDEST PUSH2 0x147 DUP1 SLOAD PUSH1 0x1 PUSH1 0x1 PUSH1 0xA0 SHL SUB NOT AND SWAP1 SWAP2 OR SWAP1 SSTORE DUP1 RETURN JUMPDEST POP POP CALLVALUE PUSH2 0x60D JUMPI DUP2 PUSH1 0x3 NOT CALLDATASIZE ADD SLT PUSH2 0x60D JUMPI PUSH2 0x229 SLOAD SWAP1 MLOAD PUSH1 0x1 PUSH1 0x1 PUSH1 0xA0 SHL SUB SWAP1 SWAP2 AND DUP2 MSTORE PUSH1 0x20 SWAP1 RETURN JUMPDEST POP POP CALLVALUE PUSH2 0x60D JUMPI PUSH1 0x20 CALLDATASIZE PUSH1 0x3 NOT ADD SLT PUSH2 0x60D JUMPI PUSH1 0x4 CALLDATALOAD PUSH1 0x1 PUSH1 0x1 PUSH1 0xA0 SHL SUB DUP2 AND SWAP1 DUP2 SWAP1 SUB PUSH2 0x8E0 JUMPI DUP3 DUP3 SWAP2 PUSH1 0x20 SWAP5 MSTORE PUSH2 0x144 DUP5 MSTORE KECCAK256 SLOAD SWAP1 MLOAD SWAP1 DUP2 MSTORE RETURN JUMPDEST POP POP CALLVALUE PUSH2 0x60D JUMPI DUP2 PUSH1 0x3 NOT CALLDATASIZE ADD SLT PUSH2 0x60D JUMPI PUSH1 0x20 SWAP1 PUSH1 0xFF PUSH2 0x14B SLOAD PUSH1 0x8 SHR AND SWAP1 MLOAD SWAP1 ISZERO ISZERO DUP2 MSTORE RETURN JUMPDEST POP POP CALLVALUE PUSH2 0x60D JUMPI PUSH1 0xA0 CALLDATASIZE PUSH1 0x3 NOT ADD SLT PUSH2 0x60D JUMPI PUSH2 0x34C6 PUSH2 0x4FFB JUMP JUMPDEST POP PUSH2 0x14F SLOAD PUSH1 0x1 PUSH1 0x1 PUSH1 0xA0 SHL SUB SWAP3 SWAP1 DUP4 AND CALLER SUB PUSH2 0x1172 JUMPI SWAP1 PUSH2 0x3557 SWAP2 PUSH2 0x34ED CALLDATASIZE PUSH1 0x4 PUSH2 0x5022 JUMP JUMPDEST SWAP2 PUSH2 0x34F6 PUSH2 0x4FFB JUMP JUMPDEST POP PUSH2 0x34FF PUSH2 0x4EE0 JUMP JUMPDEST PUSH2 0x3507 PUSH2 0x56EE JUMP JUMPDEST PUSH8 0xDE0B6B3A7640000 PUSH2 0x352A PUSH2 0xF38 PUSH2 0x3521 PUSH2 0x155F PUSH2 0x4714 JUMP JUMPDEST DUP8 MLOAD SWAP3 SWAP2 PUSH2 0x4AE6 JUMP JUMPDEST DIV SWAP5 DUP2 DUP5 ADD SWAP1 DUP1 DUP3 MLOAD AND SWAP2 PUSH2 0x354C PUSH1 0x80 DUP8 ADD SWAP4 DUP10 DUP5 DUP7 MLOAD AND PUSH2 0x13C SLOAD SWAP3 PUSH2 0x50C2 JUMP JUMPDEST SWAP7 SWAP2 DUP11 SWAP10 SWAP2 SWAP10 PUSH2 0x4304 JUMP JUMPDEST SWAP7 PUSH1 0x20 DUP2 ADD SWAP10 DUP11 MLOAD DUP1 DUP11 GT PUSH2 0x3680 JUMPI POP DUP9 ISZERO PUSH2 0x366F JUMPI DUP2 PUSH1 0x20 SWAP2 DUP7 PUSH1 0x60 PUSH2 0x35DA SWAP7 SWAP6 MLOAD SWAP4 ADD MLOAD AND SWAP1 PUSH2 0x134 PUSH2 0x358D DUP5 DUP3 SLOAD PUSH2 0x4304 JUMP JUMPDEST SWAP1 SSTORE PUSH2 0x359D PUSH2 0x131 SWAP2 DUP3 SLOAD PUSH2 0x4304 JUMP JUMPDEST SWAP1 SSTORE PUSH2 0x133 SLOAD DUP10 MLOAD PUSH4 0x40C10F19 PUSH1 0xE0 SHL DUP2 MSTORE PUSH1 0x1 PUSH1 0x1 PUSH1 0xA0 SHL SUB SWAP1 SWAP3 AND PUSH1 0x4 DUP4 ADD MSTORE PUSH1 0x24 DUP3 ADD SWAP3 SWAP1 SWAP3 MSTORE SWAP4 DUP5 SWAP2 DUP8 AND SWAP1 DUP3 SWAP1 DUP6 SWAP1 DUP3 SWAP1 PUSH1 0x44 DUP3 ADD SWAP1 JUMP JUMPDEST SUB SWAP3 GAS CALL DUP1 ISZERO PUSH2 0x3663 JUMPI PUSH2 0x360D JUMPI JUMPDEST POP POP SWAP7 PUSH2 0x100C SWAP3 DUP3 PUSH2 0x135A DUP9 DUP9 SWAP6 PUSH2 0xCB8 SWAP11 SWAP12 SWAP13 DUP7 MLOAD PUSH2 0x134F PUSH2 0x14E SWAP2 DUP3 SLOAD PUSH2 0x4229 JUMP JUMPDEST PUSH1 0x20 DUP3 RETURNDATASIZE DUP3 GT PUSH2 0x365B JUMPI JUMPDEST DUP2 PUSH2 0x3625 PUSH1 0x20 SWAP4 DUP4 PUSH2 0x3BB1 JUMP JUMPDEST DUP2 ADD SUB SLT PUSH2 0x78B JUMPI POP SWAP3 DUP3 PUSH2 0x135A DUP9 DUP9 SWAP6 PUSH2 0xCB8 SWAP11 SWAP12 SWAP13 SWAP6 PUSH2 0x3649 PUSH2 0x100C SWAP10 PUSH2 0x412A JUMP JUMPDEST POP SWAP6 SWAP13 SWAP12 POP SWAP6 POP SWAP9 POP POP DUP2 SWAP5 POP PUSH2 0x35E9 JUMP JUMPDEST RETURNDATASIZE SWAP2 POP PUSH2 0x3618 JUMP JUMPDEST POP DUP6 MLOAD SWAP1 RETURNDATASIZE SWAP1 DUP3 RETURNDATACOPY RETURNDATASIZE SWAP1 REVERT JUMPDEST DUP7 MLOAD PUSH4 0xF3E39B5D PUSH1 0xE0 SHL DUP2 MSTORE PUSH1 0x4 SWAP1 REVERT JUMPDEST PUSH1 0x44 SWAP1 DUP11 DUP10 MLOAD SWAP2 PUSH4 0xB63F1A7 PUSH1 0xE0 SHL DUP4 MSTORE PUSH1 0x4 DUP4 ADD MSTORE PUSH1 0x24 DUP3 ADD MSTORE REVERT JUMPDEST DUP4 CALLVALUE PUSH2 0x78B JUMPI PUSH1 0x20 CALLDATASIZE PUSH1 0x3 NOT ADD SLT PUSH2 0x78B JUMPI PUSH2 0x36B7 PUSH2 0x5660 JUMP JUMPDEST PUSH1 0x4 CALLDATALOAD PUSH2 0x142 SSTORE DUP1 RETURN JUMPDEST DUP4 CALLVALUE PUSH2 0x78B JUMPI PUSH1 0x20 CALLDATASIZE PUSH1 0x3 NOT ADD SLT PUSH2 0x78B JUMPI PUSH1 0x4 CALLDATALOAD DUP1 ISZERO ISZERO DUP1 SWAP2 SUB PUSH2 0x60D JUMPI PUSH2 0x36E8 PUSH2 0x5660 JUMP JUMPDEST PUSH2 0x14B SWAP1 PUSH1 0xFF DUP1 NOT DUP4 SLOAD AND SWAP2 AND OR SWAP1 SSTORE DUP1 RETURN JUMPDEST POP POP CALLVALUE PUSH2 0x60D JUMPI DUP2 PUSH1 0x3 NOT CALLDATASIZE ADD SLT PUSH2 0x60D JUMPI PUSH1 0x20 SWAP1 PUSH2 0x816 PUSH2 0x371E PUSH2 0xAE6 PUSH2 0x4714 JUMP JUMPDEST SWAP1 PUSH2 0x4AE6 JUMP JUMPDEST POP POP CALLVALUE PUSH2 0x60D JUMPI DUP2 PUSH1 0x3 NOT CALLDATASIZE ADD SLT PUSH2 0x60D JUMPI PUSH1 0x20 SWAP1 PUSH2 0x14D SLOAD SWAP1 MLOAD SWAP1 DUP2 MSTORE RETURN JUMPDEST DUP4 DUP4 PUSH1 0xE4 PUSH2 0x37D0 PUSH2 0x3756 CALLDATASIZE PUSH1 0x4 PUSH2 0x3AA2 JUMP JUMPDEST SWAP5 PUSH2 0x3766 SWAP11 SWAP5 SWAP7 SWAP3 SWAP8 SWAP2 SWAP11 PUSH2 0x4EE0 JUMP JUMPDEST PUSH2 0x376E PUSH2 0x56EE JUMP JUMPDEST PUSH2 0x377A DUP10 MLOAD SWAP6 DUP7 PUSH2 0x3BB1 JUMP JUMPDEST PUSH1 0x1 DUP1 PUSH1 0xA0 SHL SUB DUP1 DUP1 SWAP3 AND SWAP7 DUP8 DUP8 MSTORE DUP2 PUSH1 0x20 SWAP14 DUP15 SWAP8 DUP12 DUP10 DUP12 ADD MSTORE DUP14 DUP11 ADD MSTORE DUP12 PUSH1 0x60 DUP11 ADD MSTORE CALLER PUSH1 0x80 DUP11 ADD MSTORE AND PUSH1 0xA0 DUP9 ADD MSTORE AND PUSH1 0xC0 DUP7 ADD MSTORE PUSH2 0x14F SLOAD AND SWAP4 DUP9 MLOAD SWAP5 DUP6 SWAP4 DUP5 SWAP3 PUSH3 0x637447 PUSH1 0xE1 SHL DUP5 MSTORE PUSH1 0x4 DUP5 ADD SWAP1 PUSH2 0x4FAB JUMP JUMPDEST CALLVALUE SWAP1 GAS CALL SWAP6 DUP7 ISZERO PUSH2 0x2FEE JUMPI DUP1 SWAP7 PUSH2 0x3203 JUMPI POP POP PUSH2 0x6B1 SWAP3 SWAP2 PUSH2 0x1C28 SWAP2 ADDRESS SWAP1 CALLER SWAP1 PUSH2 0x4E9C JUMP JUMPDEST POP POP CALLVALUE PUSH2 0x60D JUMPI DUP2 PUSH1 0x3 NOT CALLDATASIZE ADD SLT PUSH2 0x60D JUMPI PUSH2 0x14F SLOAD SWAP1 MLOAD PUSH1 0x1 PUSH1 0x1 PUSH1 0xA0 SHL SUB SWAP1 SWAP2 AND DUP2 MSTORE PUSH1 0x20 SWAP1 RETURN JUMPDEST DUP4 CALLVALUE PUSH2 0x78B JUMPI PUSH1 0x20 CALLDATASIZE PUSH1 0x3 NOT ADD SLT PUSH2 0x78B JUMPI PUSH1 0x4 CALLDATALOAD PUSH1 0x1 PUSH1 0x1 PUSH1 0xA0 SHL SUB DUP2 AND SWAP1 DUP2 SWAP1 SUB PUSH2 0x60D JUMPI PUSH2 0x384E PUSH2 0x5660 JUMP JUMPDEST PUSH2 0x130 DUP1 SLOAD PUSH1 0x1 PUSH1 0x1 PUSH1 0xA0 SHL SUB NOT AND SWAP1 SWAP2 OR SWAP1 SSTORE DUP1 RETURN JUMPDEST DUP4 CALLVALUE PUSH2 0x78B JUMPI PUSH1 0x20 CALLDATASIZE PUSH1 0x3 NOT ADD SLT PUSH2 0x78B JUMPI PUSH2 0x387F PUSH2 0x5660 JUMP JUMPDEST PUSH1 0x4 CALLDATALOAD PUSH2 0x13F SSTORE DUP1 RETURN JUMPDEST POP POP CALLVALUE PUSH2 0x60D JUMPI DUP2 PUSH1 0x3 NOT CALLDATASIZE ADD SLT PUSH2 0x60D JUMPI PUSH1 0x20 SWAP1 PUSH2 0x159 SLOAD SWAP1 MLOAD SWAP1 DUP2 MSTORE RETURN JUMPDEST DUP4 CALLVALUE PUSH2 0x78B JUMPI PUSH1 0x20 CALLDATASIZE PUSH1 0x3 NOT ADD SLT PUSH2 0x78B JUMPI PUSH1 0x4 CALLDATALOAD PUSH1 0x1 PUSH1 0x1 PUSH1 0xA0 SHL SUB DUP2 AND SWAP1 DUP2 SWAP1 SUB PUSH2 0x60D JUMPI PUSH2 0x38D8 PUSH2 0x5660 JUMP JUMPDEST PUSH2 0x146 DUP1 SLOAD PUSH1 0x1 PUSH1 0x1 PUSH1 0xA0 SHL SUB NOT AND SWAP1 SWAP2 OR SWAP1 SSTORE DUP1 RETURN JUMPDEST POP POP CALLVALUE PUSH2 0x60D JUMPI DUP2 PUSH1 0x3 NOT CALLDATASIZE ADD SLT PUSH2 0x60D JUMPI PUSH1 0x20 SWAP1 PUSH2 0x18F SLOAD SWAP1 MLOAD SWAP1 DUP2 MSTORE RETURN JUMPDEST POP POP CALLVALUE PUSH2 0x60D JUMPI DUP2 PUSH1 0x3 NOT CALLDATASIZE ADD SLT PUSH2 0x60D JUMPI PUSH1 0x97 SLOAD SWAP1 MLOAD PUSH1 0x1 PUSH1 0x1 PUSH1 0xA0 SHL SUB SWAP1 SWAP2 AND DUP2 MSTORE PUSH1 0x20 SWAP1 RETURN JUMPDEST DUP4 CALLVALUE PUSH2 0x78B JUMPI PUSH1 0x20 CALLDATASIZE PUSH1 0x3 NOT ADD SLT PUSH2 0x78B JUMPI PUSH2 0x3952 PUSH2 0x5660 JUMP JUMPDEST PUSH1 0x4 CALLDATALOAD PUSH2 0x15A SSTORE DUP1 RETURN JUMPDEST POP POP CALLVALUE PUSH2 0x60D JUMPI DUP2 PUSH1 0x3 NOT CALLDATASIZE ADD SLT PUSH2 0x60D JUMPI PUSH2 0x3976 PUSH2 0x56EE JUMP JUMPDEST PUSH2 0x15B DUP1 SLOAD NUMBER LT PUSH2 0x39E4 JUMPI SWAP1 PUSH2 0xA96 SWAP2 PUSH2 0x15A SLOAD NUMBER ADD SWAP1 SSTORE PUSH32 0xE37FDA283839477A1B77E29ACF8336C0E13A5DAA967913DF0FE5AD258C0822F PUSH1 0x20 PUSH8 0xDE0B6B3A7640000 PUSH2 0x39CB PUSH2 0x131 SLOAD PUSH2 0x159 SLOAD SWAP1 PUSH2 0x4436 JUMP JUMPDEST DIV SWAP3 MLOAD DUP4 DUP2 MSTORE LOG1 PUSH2 0x158 SLOAD PUSH1 0x1 PUSH1 0x1 PUSH1 0xA0 SHL SUB AND PUSH2 0x40D3 JUMP JUMPDEST DUP2 MLOAD PUSH4 0xACCE20E5 PUSH1 0xE0 SHL DUP2 MSTORE PUSH1 0x4 SWAP1 REVERT JUMPDEST POP POP CALLVALUE PUSH2 0x60D JUMPI PUSH1 0x20 CALLDATASIZE PUSH1 0x3 NOT ADD SLT PUSH2 0x60D JUMPI PUSH1 0x4 CALLDATALOAD SWAP2 PUSH2 0x135 SWAP1 DUP2 SLOAD DUP5 LT ISZERO PUSH2 0x78B JUMPI POP PUSH1 0x20 SWAP3 PUSH2 0x3A26 SWAP2 PUSH2 0x3A60 JUMP JUMPDEST SWAP1 SLOAD SWAP2 MLOAD SWAP2 PUSH1 0x1 DUP1 PUSH1 0xA0 SHL SUB SWAP2 PUSH1 0x3 SHL SHR AND DUP2 MSTORE RETURN JUMPDEST DUP4 CALLVALUE PUSH2 0x78B JUMPI PUSH1 0x20 CALLDATASIZE PUSH1 0x3 NOT ADD SLT PUSH2 0x78B JUMPI PUSH2 0x3A56 PUSH2 0x5660 JUMP JUMPDEST PUSH1 0x4 CALLDATALOAD PUSH2 0x13A SSTORE DUP1 RETURN JUMPDEST DUP1 SLOAD DUP3 LT ISZERO PUSH2 0x3A78 JUMPI PUSH1 0x0 MSTORE PUSH1 0x20 PUSH1 0x0 KECCAK256 ADD SWAP1 PUSH1 0x0 SWAP1 JUMP JUMPDEST PUSH4 0x4E487B71 PUSH1 0xE0 SHL PUSH1 0x0 MSTORE PUSH1 0x32 PUSH1 0x4 MSTORE PUSH1 0x24 PUSH1 0x0 REVERT JUMPDEST CALLDATALOAD SWAP1 PUSH1 0x1 PUSH1 0x1 PUSH1 0xA0 SHL SUB DUP3 AND DUP3 SUB PUSH2 0x6E1 JUMPI JUMP JUMPDEST SWAP2 SWAP1 DUP3 PUSH1 0xC0 SWAP2 SUB SLT PUSH2 0x6E1 JUMPI PUSH2 0x3AB7 DUP3 PUSH2 0x3A8E JUMP JUMPDEST SWAP2 PUSH1 0x20 DUP2 ADD CALLDATALOAD SWAP2 PUSH1 0x40 DUP3 ADD CALLDATALOAD SWAP2 PUSH1 0x60 DUP2 ADD CALLDATALOAD SWAP2 PUSH2 0x3AE2 PUSH1 0xA0 PUSH2 0x3ADB PUSH1 0x80 DUP6 ADD PUSH2 0x3A8E JUMP JUMPDEST SWAP4 ADD PUSH2 0x3A8E JUMP JUMPDEST SWAP1 JUMP JUMPDEST PUSH1 0x40 SWAP1 PUSH2 0x3B21 SWAP4 SWAP6 SWAP5 SWAP3 SWAP6 PUSH1 0xC0 DUP3 ADD SWAP7 DUP3 MSTORE PUSH1 0x20 DUP3 ADD MSTORE ADD SWAP1 PUSH1 0x60 DUP1 SWAP2 DUP1 MLOAD DUP5 MSTORE PUSH1 0x20 DUP2 ADD MLOAD PUSH1 0x20 DUP6 ADD MSTORE PUSH1 0x40 DUP2 ADD MLOAD PUSH1 0x40 DUP6 ADD MSTORE ADD MLOAD SWAP2 ADD MSTORE JUMP JUMPDEST JUMP JUMPDEST SWAP1 DUP2 PUSH1 0xA0 SWAP2 SUB SLT PUSH2 0x6E1 JUMPI PUSH2 0x3B37 DUP2 PUSH2 0x3A8E JUMP JUMPDEST SWAP2 PUSH1 0x20 DUP3 ADD CALLDATALOAD SWAP2 PUSH1 0x40 DUP2 ADD CALLDATALOAD SWAP2 PUSH2 0x3AE2 PUSH1 0x80 PUSH2 0x3ADB PUSH1 0x60 DUP6 ADD PUSH2 0x3A8E JUMP JUMPDEST PUSH2 0x3B21 SWAP4 PUSH1 0x60 SWAP3 SWAP7 SWAP6 SWAP4 PUSH1 0xE0 DUP4 ADD SWAP8 DUP4 MSTORE PUSH1 0x20 DUP4 ADD MSTORE PUSH1 0x40 DUP3 ADD MSTORE ADD SWAP1 PUSH1 0x60 DUP1 SWAP2 DUP1 MLOAD DUP5 MSTORE PUSH1 0x20 DUP2 ADD MLOAD PUSH1 0x20 DUP6 ADD MSTORE PUSH1 0x40 DUP2 ADD MLOAD PUSH1 0x40 DUP6 ADD MSTORE ADD MLOAD SWAP2 ADD MSTORE JUMP JUMPDEST DUP1 SLOAD DUP3 LT ISZERO PUSH2 0x3A78 JUMPI PUSH1 0x0 MSTORE PUSH1 0x20 PUSH1 0x0 KECCAK256 SWAP1 PUSH1 0x1 SHL ADD SWAP1 PUSH1 0x0 SWAP1 JUMP JUMPDEST SWAP1 PUSH1 0x1F DUP1 NOT SWAP2 ADD AND DUP2 ADD SWAP1 DUP2 LT PUSH8 0xFFFFFFFFFFFFFFFF DUP3 GT OR PUSH2 0x3BD3 JUMPI PUSH1 0x40 MSTORE JUMP JUMPDEST PUSH4 0x4E487B71 PUSH1 0xE0 SHL PUSH1 0x0 MSTORE PUSH1 0x41 PUSH1 0x4 MSTORE PUSH1 0x24 PUSH1 0x0 REVERT JUMPDEST PUSH8 0xFFFFFFFFFFFFFFFF DUP2 GT PUSH2 0x3BD3 JUMPI PUSH1 0x1F ADD PUSH1 0x1F NOT AND PUSH1 0x20 ADD SWAP1 JUMP JUMPDEST SWAP2 SWAP1 DUP3 PUSH1 0x80 SWAP2 SUB SLT PUSH2 0x6E1 JUMPI DUP2 CALLDATALOAD SWAP2 PUSH1 0x20 DUP2 ADD CALLDATALOAD SWAP2 PUSH2 0x3AE2 PUSH1 0x60 PUSH2 0x3ADB PUSH1 0x40 DUP6 ADD PUSH2 0x3A8E JUMP JUMPDEST ISZERO PUSH2 0x3C32 JUMPI JUMP JUMPDEST PUSH1 0x40 MLOAD PUSH3 0x461BCD PUSH1 0xE5 SHL DUP2 MSTORE PUSH1 0x20 PUSH1 0x4 DUP3 ADD MSTORE PUSH1 0x2C PUSH1 0x24 DUP3 ADD MSTORE PUSH32 0x46756E6374696F6E206D7573742062652063616C6C6564207468726F75676820 PUSH1 0x44 DUP3 ADD MSTORE PUSH12 0x19195B1959D85D1958D85B1B PUSH1 0xA2 SHL PUSH1 0x64 DUP3 ADD MSTORE PUSH1 0x84 SWAP1 REVERT JUMPDEST ISZERO PUSH2 0x3C93 JUMPI JUMP JUMPDEST PUSH1 0x40 MLOAD PUSH3 0x461BCD PUSH1 0xE5 SHL DUP2 MSTORE PUSH1 0x20 PUSH1 0x4 DUP3 ADD MSTORE PUSH1 0x2C PUSH1 0x24 DUP3 ADD MSTORE PUSH32 0x46756E6374696F6E206D7573742062652063616C6C6564207468726F75676820 PUSH1 0x44 DUP3 ADD MSTORE PUSH12 0x6163746976652070726F7879 PUSH1 0xA0 SHL PUSH1 0x64 DUP3 ADD MSTORE PUSH1 0x84 SWAP1 REVERT JUMPDEST SWAP1 PUSH1 0xFF PUSH32 0x4910FDFA16FED3260ED0E7147F7CC6DA11A60208B5B9406D12A635614FFD9143 SLOAD AND PUSH1 0x0 EQ PUSH2 0x3D25 JUMPI POP PUSH2 0x3B21 SWAP2 POP PUSH2 0x3ED9 JUMP JUMPDEST PUSH1 0x40 MLOAD PUSH4 0x52D1902D PUSH1 0xE0 SHL DUP2 MSTORE PUSH1 0x20 SWAP4 SWAP2 SWAP3 SWAP2 SWAP1 PUSH1 0x1 PUSH1 0x1 PUSH1 0xA0 SHL SUB DUP4 AND SWAP1 DUP6 DUP2 PUSH1 0x4 DUP2 DUP6 GAS STATICCALL PUSH1 0x0 SWAP2 DUP2 PUSH2 0x3EAA JUMPI JUMPDEST POP PUSH2 0x3DB6 JUMPI PUSH1 0x40 MLOAD PUSH3 0x461BCD PUSH1 0xE5 SHL DUP2 MSTORE PUSH1 0x4 DUP2 ADD DUP8 SWAP1 MSTORE PUSH1 0x2E PUSH1 0x24 DUP3 ADD MSTORE PUSH32 0x45524331393637557067726164653A206E657720696D706C656D656E74617469 PUSH1 0x44 DUP3 ADD MSTORE PUSH14 0x6F6E206973206E6F742055555053 PUSH1 0x90 SHL PUSH1 0x64 DUP3 ADD MSTORE PUSH1 0x84 SWAP1 REVERT JUMPDEST SWAP4 SWAP5 SWAP4 PUSH32 0xC9F76B5EC45E5CDEF99837D7B6D2467235C1DF8933C8CA56DF5C35AFA2C7D444 ADD PUSH2 0x3E53 JUMPI PUSH2 0x3DE8 DUP4 PUSH2 0x3ED9 JUMP JUMPDEST PUSH32 0xBC7CD75A20EE27FD9ADEBAB32041F755214DBC6BFFA90CC0225B39DA2E5C2D3B PUSH1 0x0 DUP1 LOG2 DUP4 MLOAD ISZERO SWAP1 DUP2 ISZERO SWAP2 PUSH2 0x3E4B JUMPI JUMPDEST POP PUSH2 0x3E23 JUMPI POP POP POP JUMP JUMPDEST PUSH1 0x0 DUP1 PUSH2 0x3E48 SWAP5 PUSH2 0x3E32 PUSH2 0x3F7B JUMP JUMPDEST SWAP5 DUP2 MLOAD SWAP2 ADD DUP5 GAS DELEGATECALL PUSH2 0x3E42 PUSH2 0x3FCF JUMP JUMPDEST SWAP2 PUSH2 0x3FFF JUMP JUMPDEST POP JUMP JUMPDEST SWAP1 POP CODESIZE PUSH2 0x3E19 JUMP JUMPDEST PUSH1 0x40 MLOAD PUSH3 0x461BCD PUSH1 0xE5 SHL DUP2 MSTORE PUSH1 0x4 DUP2 ADD DUP6 SWAP1 MSTORE PUSH1 0x29 PUSH1 0x24 DUP3 ADD MSTORE PUSH32 0x45524331393637557067726164653A20756E737570706F727465642070726F78 PUSH1 0x44 DUP3 ADD MSTORE PUSH9 0x1A58589B1955555251 PUSH1 0xBA SHL PUSH1 0x64 DUP3 ADD MSTORE PUSH1 0x84 SWAP1 REVERT JUMPDEST SWAP1 SWAP2 DUP8 DUP3 DUP2 RETURNDATASIZE DUP4 GT PUSH2 0x3ED2 JUMPI JUMPDEST PUSH2 0x3EC1 DUP2 DUP4 PUSH2 0x3BB1 JUMP JUMPDEST DUP2 ADD SUB SLT PUSH2 0x78B JUMPI POP MLOAD SWAP1 CODESIZE PUSH2 0x3D55 JUMP JUMPDEST POP RETURNDATASIZE PUSH2 0x3EB7 JUMP JUMPDEST DUP1 EXTCODESIZE ISZERO PUSH2 0x3F20 JUMPI PUSH32 0x360894A13BA1A3210667C828492DB98DCA3E2076CC3735A920A3CA505D382BBC DUP1 SLOAD PUSH1 0x1 PUSH1 0x1 PUSH1 0xA0 SHL SUB NOT AND PUSH1 0x1 PUSH1 0x1 PUSH1 0xA0 SHL SUB SWAP1 SWAP3 AND SWAP2 SWAP1 SWAP2 OR SWAP1 SSTORE JUMP JUMPDEST PUSH1 0x40 MLOAD PUSH3 0x461BCD PUSH1 0xE5 SHL DUP2 MSTORE PUSH1 0x20 PUSH1 0x4 DUP3 ADD MSTORE PUSH1 0x2D PUSH1 0x24 DUP3 ADD MSTORE PUSH32 0x455243313936373A206E657720696D706C656D656E746174696F6E206973206E PUSH1 0x44 DUP3 ADD MSTORE PUSH13 0x1BDD08184818DBDB9D1C9858DD PUSH1 0x9A SHL PUSH1 0x64 DUP3 ADD MSTORE PUSH1 0x84 SWAP1 REVERT JUMPDEST PUSH2 0x3F85 PUSH1 0x27 PUSH2 0x3BE9 JUMP JUMPDEST SWAP1 PUSH2 0x3F93 PUSH1 0x40 MLOAD SWAP3 DUP4 PUSH2 0x3BB1 JUMP JUMPDEST PUSH1 0x27 DUP3 MSTORE PUSH7 0x819985A5B1959 PUSH1 0xCA SHL PUSH1 0x40 DUP4 PUSH32 0x416464726573733A206C6F772D6C6576656C2064656C65676174652063616C6C PUSH1 0x20 DUP3 ADD MSTORE ADD MSTORE JUMP JUMPDEST RETURNDATASIZE ISZERO PUSH2 0x3FFA JUMPI RETURNDATASIZE SWAP1 PUSH2 0x3FE0 DUP3 PUSH2 0x3BE9 JUMP JUMPDEST SWAP2 PUSH2 0x3FEE PUSH1 0x40 MLOAD SWAP4 DUP5 PUSH2 0x3BB1 JUMP JUMPDEST DUP3 MSTORE RETURNDATASIZE PUSH1 0x0 PUSH1 0x20 DUP5 ADD RETURNDATACOPY JUMP JUMPDEST PUSH1 0x60 SWAP1 JUMP JUMPDEST SWAP2 SWAP3 SWAP1 ISZERO PUSH2 0x4061 JUMPI POP DUP2 MLOAD ISZERO PUSH2 0x4013 JUMPI POP SWAP1 JUMP JUMPDEST EXTCODESIZE ISZERO PUSH2 0x401C JUMPI SWAP1 JUMP JUMPDEST PUSH1 0x40 MLOAD PUSH3 0x461BCD PUSH1 0xE5 SHL DUP2 MSTORE PUSH1 0x20 PUSH1 0x4 DUP3 ADD MSTORE PUSH1 0x1D PUSH1 0x24 DUP3 ADD MSTORE PUSH32 0x416464726573733A2063616C6C20746F206E6F6E2D636F6E7472616374000000 PUSH1 0x44 DUP3 ADD MSTORE PUSH1 0x64 SWAP1 REVERT JUMPDEST DUP3 MLOAD SWAP1 SWAP2 POP ISZERO PUSH2 0x4074 JUMPI POP DUP1 MLOAD SWAP1 PUSH1 0x20 ADD REVERT JUMPDEST PUSH1 0x40 MLOAD SWAP1 PUSH3 0x461BCD PUSH1 0xE5 SHL DUP3 MSTORE DUP2 PUSH1 0x20 DUP1 PUSH1 0x4 DUP4 ADD MSTORE DUP3 MLOAD SWAP1 DUP2 PUSH1 0x24 DUP5 ADD MSTORE PUSH1 0x0 SWAP4 JUMPDEST DUP3 DUP6 LT PUSH2 0x40BA JUMPI POP POP PUSH1 0x44 SWAP3 POP PUSH1 0x0 DUP4 DUP3 DUP5 ADD ADD MSTORE PUSH1 0x1F DUP1 NOT SWAP2 ADD AND DUP2 ADD SUB ADD SWAP1 REVERT JUMPDEST DUP5 DUP2 ADD DUP3 ADD MLOAD DUP7 DUP7 ADD PUSH1 0x44 ADD MSTORE SWAP4 DUP2 ADD SWAP4 DUP6 SWAP4 POP PUSH2 0x4097 JUMP JUMPDEST SWAP1 DUP1 PUSH2 0x40DD JUMPI POP POP JUMP JUMPDEST PUSH2 0x229 SLOAD PUSH1 0x40 MLOAD PUSH4 0xA9059CBB PUSH1 0xE0 SHL PUSH1 0x20 DUP3 ADD MSTORE PUSH1 0x1 PUSH1 0x1 PUSH1 0xA0 SHL SUB SWAP4 DUP5 AND PUSH1 0x24 DUP3 ADD MSTORE PUSH1 0x44 DUP2 ADD SWAP3 SWAP1 SWAP3 MSTORE PUSH2 0x3B21 SWAP3 AND PUSH2 0x4125 DUP3 PUSH1 0x64 DUP2 ADD JUMPDEST SUB PUSH1 0x1F NOT DUP2 ADD DUP5 MSTORE DUP4 PUSH2 0x3BB1 JUMP JUMPDEST PUSH2 0x4137 JUMP JUMPDEST MLOAD SWAP1 DUP2 ISZERO ISZERO DUP3 SUB PUSH2 0x6E1 JUMPI JUMP JUMPDEST PUSH1 0x20 SWAP2 PUSH2 0x419A SWAP2 PUSH1 0x1 PUSH1 0x1 PUSH1 0xA0 SHL SUB AND PUSH1 0x0 DUP1 PUSH2 0x4153 DUP7 PUSH2 0x3BE9 JUMP JUMPDEST SWAP4 PUSH2 0x4161 PUSH1 0x40 MLOAD SWAP6 DUP7 PUSH2 0x3BB1 JUMP JUMPDEST DUP7 DUP6 MSTORE PUSH32 0x5361666545524332303A206C6F772D6C6576656C2063616C6C206661696C6564 DUP8 DUP7 ADD MSTORE DUP7 DUP2 MLOAD SWAP2 ADD DUP3 DUP6 GAS CALL PUSH2 0x3E42 PUSH2 0x3FCF JUMP JUMPDEST DUP1 MLOAD DUP3 DUP2 ISZERO SWAP2 DUP3 ISZERO PUSH2 0x420A JUMPI JUMPDEST POP POP SWAP1 POP ISZERO PUSH2 0x41B3 JUMPI POP JUMP JUMPDEST PUSH1 0x84 SWAP1 PUSH1 0x40 MLOAD SWAP1 PUSH3 0x461BCD PUSH1 0xE5 SHL DUP3 MSTORE PUSH1 0x4 DUP3 ADD MSTORE PUSH1 0x2A PUSH1 0x24 DUP3 ADD MSTORE PUSH32 0x5361666545524332303A204552433230206F7065726174696F6E20646964206E PUSH1 0x44 DUP3 ADD MSTORE PUSH10 0x1BDD081CDD58D8D95959 PUSH1 0xB2 SHL PUSH1 0x64 DUP3 ADD MSTORE REVERT JUMPDEST DUP4 DUP1 SWAP3 SWAP4 POP ADD SUB SLT PUSH2 0x6E1 JUMPI DUP2 PUSH2 0x4221 SWAP2 ADD PUSH2 0x412A JUMP JUMPDEST DUP1 DUP3 CODESIZE PUSH2 0x41A7 JUMP JUMPDEST SWAP2 SWAP1 DUP3 SUB SWAP2 DUP3 GT PUSH2 0x4236 JUMPI JUMP JUMPDEST PUSH4 0x4E487B71 PUSH1 0xE0 SHL PUSH1 0x0 MSTORE PUSH1 0x11 PUSH1 0x4 MSTORE PUSH1 0x24 PUSH1 0x0 REVERT JUMPDEST PUSH2 0x4255 ADDRESS PUSH2 0x4289 JUMP JUMPDEST PUSH2 0x131 SWAP1 PUSH2 0x4272 PUSH2 0x4268 DUP4 SLOAD DUP1 SWAP4 PUSH2 0x4229 JUMP JUMPDEST PUSH2 0x14E SLOAD SWAP1 PUSH2 0x4229 JUMP JUMPDEST DUP1 PUSH2 0x427C JUMPI POP POP POP JUMP JUMPDEST PUSH2 0x4285 SWAP2 PUSH2 0x4304 JUMP JUMPDEST SWAP1 SSTORE JUMP JUMPDEST PUSH2 0x229 SLOAD PUSH1 0x40 MLOAD PUSH4 0x70A08231 PUSH1 0xE0 SHL DUP2 MSTORE PUSH1 0x1 PUSH1 0x1 PUSH1 0xA0 SHL SUB SWAP3 DUP4 AND PUSH1 0x4 DUP3 ADD MSTORE SWAP2 PUSH1 0x20 SWAP2 DUP4 SWAP2 PUSH1 0x24 SWAP2 DUP4 SWAP2 AND GAS STATICCALL SWAP1 DUP2 ISZERO PUSH2 0x42F8 JUMPI PUSH1 0x0 SWAP2 PUSH2 0x42CA JUMPI POP SWAP1 JUMP JUMPDEST SWAP1 PUSH1 0x20 DUP3 RETURNDATASIZE DUP3 GT PUSH2 0x42F0 JUMPI JUMPDEST DUP2 PUSH2 0x42E3 PUSH1 0x20 SWAP4 DUP4 PUSH2 0x3BB1 JUMP JUMPDEST DUP2 ADD SUB SLT PUSH2 0x78B JUMPI POP MLOAD SWAP1 JUMP JUMPDEST RETURNDATASIZE SWAP2 POP PUSH2 0x42D6 JUMP JUMPDEST PUSH1 0x40 MLOAD RETURNDATASIZE PUSH1 0x0 DUP3 RETURNDATACOPY RETURNDATASIZE SWAP1 REVERT JUMPDEST SWAP2 SWAP1 DUP3 ADD DUP1 SWAP3 GT PUSH2 0x4236 JUMPI JUMP JUMPDEST DUP1 MLOAD DUP3 LT ISZERO PUSH2 0x3A78 JUMPI PUSH1 0x20 SWAP2 PUSH1 0x5 SHL ADD ADD SWAP1 JUMP JUMPDEST SWAP1 PUSH1 0x0 SWAP2 PUSH1 0x0 SWAP1 PUSH2 0x137 DUP1 SLOAD SWAP1 PUSH1 0x0 SWAP3 JUMPDEST DUP3 DUP5 LT PUSH2 0x435C JUMPI POP POP POP POP PUSH2 0x4358 PUSH8 0xDE0B6B3A7640000 SWAP2 PUSH2 0x139 SLOAD SWAP1 PUSH2 0x4436 JUMP JUMPDEST DIV SWAP1 JUMP JUMPDEST SWAP1 SWAP2 SWAP3 SWAP4 SWAP6 PUSH2 0x43A9 PUSH2 0x4398 PUSH2 0x43A3 PUSH1 0x1 SWAP4 PUSH2 0x439D PUSH2 0x437A DUP11 DUP9 PUSH2 0x4311 JUMP JUMPDEST MLOAD PUSH2 0x4385 DUP2 DUP13 PUSH2 0x43CF JUMP JUMPDEST SWAP6 SWAP1 PUSH2 0x4391 DUP14 DUP13 PUSH2 0x3B95 JUMP JUMPDEST POP SLOAD PUSH2 0x4304 JUMP JUMPDEST PUSH2 0x570F JUMP JUMPDEST SWAP1 PUSH2 0x4304 JUMP JUMPDEST SWAP9 PUSH2 0x4304 JUMP JUMPDEST SWAP5 ADD SWAP3 SWAP2 SWAP1 PUSH2 0x4336 JUMP JUMPDEST SWAP2 SWAP1 SWAP2 PUSH1 0x0 DUP4 DUP3 ADD SWAP4 DUP5 SLT SWAP2 SLT SWAP1 DUP1 ISZERO DUP3 AND SWAP2 ISZERO AND OR PUSH2 0x4236 JUMPI JUMP JUMPDEST SWAP2 SWAP1 PUSH1 0x0 SWAP1 PUSH2 0x43FD DUP2 PUSH1 0x0 SWAP6 PUSH2 0x43F3 PUSH2 0x43EA DUP3 PUSH2 0x150 PUSH2 0x3A60 JUMP JUMPDEST SWAP4 SWAP1 SLOAD SWAP3 PUSH2 0x4482 JUMP JUMPDEST SWAP2 PUSH1 0x3 SHL SHR PUSH2 0x43B3 JUMP JUMPDEST PUSH1 0x0 DUP2 SGT PUSH2 0x440C JUMPI JUMPDEST POP POP SWAP2 SWAP1 JUMP JUMPDEST PUSH2 0x442E SWAP2 SWAP5 POP PUSH2 0x2618 SWAP3 POP DUP1 SWAP5 PUSH8 0xDE0B6B3A7640000 SWAP4 DUP5 SWAP2 PUSH2 0x13A SLOAD PUSH2 0x4436 JUMP JUMPDEST DIV CODESIZE DUP1 PUSH2 0x4406 JUMP JUMPDEST DUP2 DUP2 MUL SWAP3 SWAP2 DUP2 ISZERO SWAP2 DUP5 DIV EQ OR ISZERO PUSH2 0x4236 JUMPI JUMP JUMPDEST DUP2 ISZERO PUSH2 0x4453 JUMPI DIV SWAP1 JUMP JUMPDEST PUSH4 0x4E487B71 PUSH1 0xE0 SHL PUSH1 0x0 MSTORE PUSH1 0x12 PUSH1 0x4 MSTORE PUSH1 0x24 PUSH1 0x0 REVERT JUMPDEST DUP2 DUP2 SUB SWAP3 SWAP2 PUSH1 0x0 SGT DUP1 ISZERO DUP3 DUP6 SGT AND SWAP2 DUP5 SLT AND OR PUSH2 0x4236 JUMPI JUMP JUMPDEST PUSH2 0x448E DUP2 PUSH2 0x137 PUSH2 0x3B95 JUMP JUMPDEST POP SLOAD SWAP1 PUSH8 0xDE0B6B3A7640000 SWAP2 DUP3 DUP2 MUL SWAP3 DUP2 DUP5 DIV EQ SWAP1 ISZERO OR ISZERO PUSH2 0x4236 JUMPI PUSH2 0x3AE2 SWAP3 PUSH2 0x44CE PUSH2 0x44C1 PUSH2 0x44D4 SWAP4 PUSH2 0x151 PUSH2 0x3A60 JUMP JUMPDEST SWAP1 SLOAD SWAP1 PUSH1 0x3 SHL SHR DUP5 PUSH2 0x4449 JUMP JUMPDEST SWAP3 PUSH2 0x4449 JUMP JUMPDEST SWAP1 PUSH2 0x4469 JUMP JUMPDEST DUP1 ISZERO PUSH2 0x44F0 JUMPI PUSH2 0x4398 PUSH2 0x3AE2 SWAP3 PUSH2 0x131 SLOAD PUSH2 0x4229 JUMP JUMPDEST POP POP PUSH1 0x0 NOT SWAP1 JUMP JUMPDEST PUSH8 0xFFFFFFFFFFFFFFFF DUP2 GT PUSH2 0x3BD3 JUMPI PUSH1 0x5 SHL PUSH1 0x20 ADD SWAP1 JUMP JUMPDEST SWAP1 PUSH2 0x451A DUP3 PUSH2 0x44F8 JUMP JUMPDEST PUSH2 0x4527 PUSH1 0x40 MLOAD SWAP2 DUP3 PUSH2 0x3BB1 JUMP JUMPDEST DUP3 DUP2 MSTORE DUP1 SWAP3 PUSH2 0x4538 PUSH1 0x1F NOT SWAP2 PUSH2 0x44F8 JUMP JUMPDEST ADD SWAP1 PUSH1 0x20 CALLDATASIZE SWAP2 ADD CALLDATACOPY JUMP JUMPDEST PUSH2 0x131 SLOAD DUP1 ISZERO PUSH2 0x3E48 JUMPI PUSH2 0x137 SWAP1 DUP2 SLOAD SWAP2 PUSH1 0x0 SWAP1 PUSH2 0x455F DUP5 PUSH2 0x4510 JUMP JUMPDEST SWAP1 DUP3 SWAP1 JUMPDEST DUP6 DUP3 LT PUSH2 0x45CE JUMPI POP POP PUSH1 0x0 JUMPDEST DUP5 DUP2 LT PUSH2 0x457D JUMPI POP POP POP POP POP JUMP JUMPDEST PUSH2 0x459A DUP5 PUSH2 0x4595 DUP6 PUSH2 0x458F DUP6 DUP8 PUSH2 0x4311 JUMP JUMPDEST MLOAD PUSH2 0x4436 JUMP JUMPDEST PUSH2 0x4449 JUMP JUMPDEST SWAP1 PUSH2 0x138 SWAP2 DUP3 SLOAD PUSH9 0x10000000000000000 DUP2 LT ISZERO PUSH2 0x3BD3 JUMPI PUSH2 0x2631 DUP2 PUSH1 0x1 SWAP6 DUP7 PUSH2 0x45C6 SWAP5 ADD DUP2 SSTORE PUSH2 0x3A60 JUMP JUMPDEST SWAP1 SSTORE ADD PUSH2 0x456F JUMP JUMPDEST SWAP1 SWAP3 PUSH2 0x460A PUSH1 0x1 SWAP2 PUSH2 0x45DF DUP7 PUSH2 0x464D JUMP JUMPDEST PUSH2 0x45E9 DUP8 DUP8 PUSH2 0x4311 JUMP JUMPDEST MSTORE PUSH2 0x439D PUSH2 0x45F7 DUP8 DUP7 PUSH2 0x3B95 JUMP JUMPDEST POP SLOAD PUSH2 0x4603 DUP9 DUP9 PUSH2 0x4311 JUMP JUMPDEST MLOAD SWAP1 PUSH2 0x570F JUMP JUMPDEST SWAP4 ADD SWAP1 PUSH2 0x4563 JUMP JUMPDEST PUSH1 0x1 PUSH1 0x1 PUSH1 0xA0 SHL SUB AND PUSH1 0x0 SWAP1 DUP2 MSTORE PUSH2 0x136 PUSH1 0x20 MSTORE PUSH1 0x40 SWAP1 KECCAK256 PUSH1 0x1 DUP2 ADD SLOAD PUSH1 0xFF AND ISZERO PUSH2 0x463B JUMPI SLOAD SWAP1 JUMP JUMPDEST PUSH1 0x40 MLOAD PUSH4 0xE6C4247B PUSH1 0xE0 SHL DUP2 MSTORE PUSH1 0x4 SWAP1 REVERT JUMPDEST PUSH2 0x4659 SWAP1 PUSH2 0x137 PUSH2 0x3B95 JUMP JUMPDEST POP PUSH1 0x1 ADD SLOAD PUSH1 0x1 PUSH1 0x1 PUSH1 0xA0 SHL SUB AND PUSH2 0x4670 DUP2 PUSH2 0x46AE JUMP JUMPDEST SWAP2 SWAP1 SWAP2 ISZERO PUSH2 0x467C JUMPI POP SWAP1 JUMP JUMPDEST PUSH1 0x24 SWAP1 PUSH1 0x40 MLOAD SWAP1 PUSH4 0x7F6E4DB9 PUSH1 0xE0 SHL DUP3 MSTORE PUSH1 0x4 DUP3 ADD MSTORE REVERT JUMPDEST SWAP2 SWAP1 DUP3 PUSH1 0x40 SWAP2 SUB SLT PUSH2 0x6E1 JUMPI PUSH2 0x3AE2 PUSH1 0x20 DUP4 MLOAD SWAP4 ADD PUSH2 0x412A JUMP JUMPDEST PUSH1 0x40 DUP1 MLOAD PUSH4 0x59E02DD7 PUSH1 0xE0 SHL DUP2 MSTORE SWAP3 SWAP2 DUP4 SWAP1 PUSH1 0x4 SWAP1 DUP3 SWAP1 PUSH1 0x1 PUSH1 0x1 PUSH1 0xA0 SHL SUB AND GAS STATICCALL SWAP2 DUP3 ISZERO PUSH2 0x42F8 JUMPI PUSH1 0x0 SWAP1 DUP2 SWAP4 PUSH2 0x46E5 JUMPI POP SWAP2 SWAP1 JUMP JUMPDEST SWAP1 POP PUSH2 0x4709 SWAP2 SWAP3 POP PUSH1 0x40 RETURNDATASIZE DUP2 GT PUSH2 0x470D JUMPI JUMPDEST PUSH2 0x4701 DUP2 DUP4 PUSH2 0x3BB1 JUMP JUMPDEST DUP2 ADD SWAP1 PUSH2 0x4694 JUMP JUMPDEST SWAP1 SWAP2 JUMP JUMPDEST POP RETURNDATASIZE PUSH2 0x46F7 JUMP JUMPDEST PUSH2 0x137 SLOAD SWAP1 PUSH2 0x4722 DUP3 PUSH2 0x4510 JUMP JUMPDEST SWAP2 PUSH1 0x0 JUMPDEST DUP2 DUP2 LT PUSH2 0x4731 JUMPI POP POP JUMP JUMPDEST DUP1 PUSH2 0x473D PUSH1 0x1 SWAP3 PUSH2 0x464D JUMP JUMPDEST PUSH2 0x4747 DUP3 DUP8 PUSH2 0x4311 JUMP JUMPDEST MSTORE ADD PUSH2 0x4726 JUMP JUMPDEST SWAP1 PUSH2 0x476F PUSH8 0xDE0B6B3A7640000 SWAP3 DUP4 PUSH2 0x157 SLOAD PUSH2 0x154 SLOAD SWAP3 NUMBER ADD SUB MUL PUSH2 0x4449 JUMP JUMPDEST DUP3 DUP2 LT ISZERO PUSH2 0x478C JUMPI DUP3 SUB SWAP2 DUP1 DUP4 PUSH2 0x155 SLOAD MUL DIV SWAP3 PUSH2 0x156 SLOAD MUL SDIV SWAP1 JUMP JUMPDEST POP PUSH1 0x0 SWAP2 POP DUP2 SWAP1 JUMP JUMPDEST SWAP1 SWAP2 PUSH2 0x479F PUSH2 0x47F7 JUMP JUMPDEST SWAP3 SWAP1 DUP1 DUP3 LT ISZERO PUSH2 0x47ED JUMPI DUP4 SWAP2 PUSH2 0x47B4 SWAP2 PUSH2 0x4229 JUMP JUMPDEST SWAP4 GT ISZERO PUSH2 0x47E8 JUMPI DUP2 DUP2 LT ISZERO PUSH2 0x47E0 JUMPI PUSH2 0x47CC SWAP2 PUSH2 0x4229 JUMP JUMPDEST PUSH1 0x1 SHR DUP1 DUP3 LT ISZERO PUSH2 0x47DB JUMPI POP SWAP1 JUMP JUMPDEST SWAP1 POP SWAP1 JUMP JUMPDEST POP POP POP PUSH1 0x0 SWAP1 JUMP JUMPDEST POP POP SWAP1 JUMP JUMPDEST POP POP POP POP POP PUSH1 0x0 SWAP1 JUMP JUMPDEST PUSH2 0x152 SLOAD PUSH1 0x40 DUP1 MLOAD PUSH4 0x59E02DD7 PUSH1 0xE0 SHL DUP1 DUP3 MSTORE SWAP4 SWAP3 SWAP1 SWAP2 SWAP1 PUSH1 0x1 PUSH1 0x1 PUSH1 0xA0 SHL SUB SWAP1 DUP2 AND DUP3 DUP5 PUSH1 0x4 DUP2 DUP5 GAS STATICCALL DUP1 ISZERO PUSH2 0x48E7 JUMPI PUSH1 0x0 SWAP5 DUP6 SWAP2 PUSH2 0x48C4 JUMPI JUMPDEST POP ISZERO PUSH2 0x48AD JUMPI POP PUSH2 0x153 SLOAD AND SWAP1 DUP1 MLOAD SWAP5 DUP6 MSTORE DUP1 DUP6 PUSH1 0x4 DUP2 DUP6 GAS STATICCALL DUP1 ISZERO PUSH2 0x48A2 JUMPI PUSH1 0x0 SWAP6 DUP7 SWAP2 PUSH2 0x487F JUMPI JUMPDEST POP ISZERO PUSH2 0x4868 JUMPI POP POP SWAP2 SWAP1 JUMP JUMPDEST PUSH1 0x24 SWAP3 POP MLOAD SWAP1 PUSH4 0x5E89893 PUSH1 0xE1 SHL DUP3 MSTORE PUSH1 0x4 DUP3 ADD MSTORE REVERT JUMPDEST SWAP1 POP DUP2 PUSH2 0x4899 SWAP3 SWAP7 POP RETURNDATASIZE DUP8 GT PUSH2 0x470D JUMPI PUSH2 0x4701 DUP2 DUP4 PUSH2 0x3BB1 JUMP JUMPDEST SWAP5 SWAP1 SWAP5 CODESIZE PUSH2 0x485C JUMP JUMPDEST POP MLOAD RETURNDATASIZE PUSH1 0x0 DUP3 RETURNDATACOPY RETURNDATASIZE SWAP1 REVERT JUMPDEST PUSH1 0x24 SWAP1 DUP4 MLOAD SWAP1 PUSH4 0x5E89893 PUSH1 0xE1 SHL DUP3 MSTORE PUSH1 0x4 DUP3 ADD MSTORE REVERT JUMPDEST SWAP1 POP PUSH2 0x48DE SWAP2 SWAP5 POP DUP4 RETURNDATASIZE DUP6 GT PUSH2 0x470D JUMPI PUSH2 0x4701 DUP2 DUP4 PUSH2 0x3BB1 JUMP JUMPDEST SWAP4 SWAP1 SWAP4 CODESIZE PUSH2 0x4832 JUMP JUMPDEST DUP4 MLOAD RETURNDATASIZE PUSH1 0x0 DUP3 RETURNDATACOPY RETURNDATASIZE SWAP1 REVERT JUMPDEST ISZERO PUSH2 0x48F9 JUMPI JUMP JUMPDEST PUSH1 0x40 MLOAD PUSH3 0x461BCD PUSH1 0xE5 SHL DUP2 MSTORE PUSH1 0x20 PUSH1 0x4 DUP3 ADD MSTORE PUSH1 0x2B PUSH1 0x24 DUP3 ADD MSTORE PUSH32 0x496E697469616C697A61626C653A20636F6E7472616374206973206E6F742069 PUSH1 0x44 DUP3 ADD MSTORE PUSH11 0x6E697469616C697A696E67 PUSH1 0xA8 SHL PUSH1 0x64 DUP3 ADD MSTORE PUSH1 0x84 SWAP1 REVERT JUMPDEST SWAP1 PUSH2 0x3AE2 SWAP2 PUSH1 0x0 DUP1 PUSH2 0x4962 PUSH2 0x3F7B JUMP JUMPDEST SWAP4 PUSH1 0x20 DUP2 MLOAD SWAP2 ADD DUP5 GAS DELEGATECALL PUSH2 0x3E42 PUSH2 0x3FCF JUMP JUMPDEST PUSH2 0x49E2 SWAP4 PUSH2 0x49A9 PUSH1 0x0 SWAP3 PUSH1 0x20 SWAP6 PUSH2 0x498D DUP3 PUSH2 0x137 PUSH2 0x3B95 JUMP JUMPDEST POP PUSH2 0x4999 DUP8 DUP3 SLOAD PUSH2 0x4304 JUMP JUMPDEST SWAP1 SSTORE PUSH2 0x1606 PUSH2 0x131 SWAP2 DUP3 SLOAD PUSH2 0x4304 JUMP JUMPDEST SWAP1 SLOAD PUSH1 0x40 MLOAD PUSH4 0x40C10F19 PUSH1 0xE0 SHL DUP2 MSTORE PUSH1 0x1 PUSH1 0x1 PUSH1 0xA0 SHL SUB SWAP1 SWAP4 AND PUSH1 0x4 DUP5 ADD MSTORE PUSH1 0x24 DUP4 ADD SWAP5 SWAP1 SWAP5 MSTORE SWAP1 SWAP5 DUP6 SWAP4 SWAP3 DUP5 SWAP3 SWAP1 SWAP2 DUP4 SWAP1 PUSH1 0x44 DUP3 ADD SWAP1 JUMP JUMPDEST SUB SWAP4 PUSH1 0x3 SWAP2 SWAP1 SWAP2 SHL SHR PUSH1 0x1 PUSH1 0x1 PUSH1 0xA0 SHL SUB AND GAS CALL DUP1 ISZERO PUSH2 0x42F8 JUMPI PUSH2 0x4A03 JUMPI POP JUMP JUMPDEST PUSH1 0x20 DUP2 RETURNDATASIZE DUP3 GT PUSH2 0x4A2C JUMPI JUMPDEST DUP2 PUSH2 0x4A1B PUSH1 0x20 SWAP4 DUP4 PUSH2 0x3BB1 JUMP JUMPDEST DUP2 ADD SUB SLT PUSH2 0x6E1 JUMPI PUSH2 0x3E48 SWAP1 PUSH2 0x412A JUMP JUMPDEST RETURNDATASIZE SWAP2 POP PUSH2 0x4A0E JUMP JUMPDEST PUSH2 0x2631 PUSH2 0x4285 SWAP2 PUSH2 0x4A45 DUP5 DUP3 PUSH2 0x4482 JUMP JUMPDEST PUSH2 0x4A7B PUSH2 0x4A54 DUP4 PUSH2 0x150 PUSH2 0x3A60 JUMP JUMPDEST PUSH2 0x4A67 DUP3 SWAP5 SWAP3 SLOAD SWAP3 DUP4 DUP4 PUSH1 0x3 SHL SHR PUSH2 0x43B3 JUMP JUMPDEST SWAP2 SWAP1 PUSH1 0x3 SHL SWAP2 DUP3 SHL SWAP2 PUSH1 0x0 NOT SWAP1 SHL NOT AND OR SWAP1 JUMP JUMPDEST SWAP1 SSTORE PUSH2 0x151 PUSH2 0x3A60 JUMP JUMPDEST PUSH1 0xE0 DUP2 ADD SWAP3 SWAP2 PUSH1 0xC0 SWAP1 DUP2 SWAP1 PUSH1 0x1 PUSH1 0x1 PUSH1 0xA0 SHL SUB DUP1 PUSH2 0x4AA2 DUP4 PUSH2 0x3A8E JUMP JUMPDEST AND DUP6 MSTORE PUSH2 0x4AB1 PUSH1 0x20 DUP4 ADD PUSH2 0x3A8E JUMP JUMPDEST AND PUSH1 0x20 DUP6 ADD MSTORE PUSH1 0x40 DUP2 ADD CALLDATALOAD PUSH1 0x40 DUP6 ADD MSTORE PUSH1 0x60 DUP2 ADD CALLDATALOAD PUSH1 0x60 DUP6 ADD MSTORE PUSH1 0x80 DUP2 ADD CALLDATALOAD PUSH1 0x80 DUP6 ADD MSTORE PUSH1 0xA0 DUP2 ADD CALLDATALOAD PUSH1 0xA0 DUP6 ADD MSTORE ADD CALLDATALOAD SWAP2 ADD MSTORE JUMP JUMPDEST SWAP1 PUSH2 0x134 SLOAD SWAP1 DUP2 ISZERO PUSH2 0x4B0B JUMPI PUSH2 0x3AE2 SWAP3 PUSH2 0x4B06 PUSH2 0x4398 SWAP3 PUSH2 0x131 SLOAD PUSH2 0x4229 JUMP JUMPDEST PUSH2 0x4229 JUMP JUMPDEST POP POP POP PUSH8 0xDE0B6B3A7640000 SWAP1 JUMP JUMPDEST DUP3 DUP3 PUSH2 0x4B25 SWAP3 PUSH2 0x4B42 JUMP JUMPDEST SWAP1 PUSH1 0x0 DUP3 SGT ISZERO PUSH2 0x47E0 JUMPI PUSH2 0x3AE2 SWAP3 PUSH2 0x4B3C SWAP2 PUSH2 0x4AE6 JUMP JUMPDEST SWAP1 PUSH2 0x4449 JUMP JUMPDEST SWAP1 SWAP2 PUSH2 0x4B51 SWAP1 PUSH2 0x131 SLOAD PUSH2 0x4229 JUMP JUMPDEST SWAP1 PUSH8 0xDE0B6B3A7640000 SWAP2 DUP3 DUP2 MUL SWAP3 DUP2 DUP5 DIV EQ SWAP1 ISZERO OR ISZERO PUSH2 0x4236 JUMPI PUSH2 0x3AE2 SWAP3 PUSH2 0x44D4 SWAP2 PUSH2 0x4436 JUMP JUMPDEST SWAP3 PUSH2 0x4B87 SWAP3 SWAP4 SWAP5 SWAP2 SWAP5 PUSH2 0x4B42 JUMP JUMPDEST DUP2 DUP2 MUL SWAP2 PUSH1 0x0 SWAP2 PUSH1 0x1 PUSH1 0xFF SHL SWAP2 DUP4 DUP3 SLT DUP4 DUP3 EQ AND PUSH2 0x4C2B JUMPI DUP2 DUP6 SDIV EQ SWAP1 ISZERO OR ISZERO PUSH2 0x4C17 JUMPI PUSH8 0xDE0B6B3A763FFFF NOT DUP5 ADD SWAP4 DUP5 GT PUSH2 0x4C17 JUMPI PUSH8 0xDE0B6B3A7640000 SWAP4 DUP5 DUP2 MUL SWAP5 DUP2 DUP7 DIV EQ SWAP1 ISZERO OR ISZERO PUSH2 0x4C17 JUMPI DUP4 ISZERO PUSH2 0x4C03 JUMPI DUP3 EQ PUSH1 0x0 NOT DUP5 EQ AND PUSH2 0x4BEF JUMPI POP SDIV SWAP1 JUMP JUMPDEST PUSH4 0x4E487B71 PUSH1 0xE0 SHL DUP2 MSTORE PUSH1 0x11 PUSH1 0x4 MSTORE PUSH1 0x24 SWAP1 REVERT JUMPDEST PUSH4 0x4E487B71 PUSH1 0xE0 SHL DUP3 MSTORE PUSH1 0x12 PUSH1 0x4 MSTORE PUSH1 0x24 DUP3 REVERT JUMPDEST PUSH4 0x4E487B71 PUSH1 0xE0 SHL DUP3 MSTORE PUSH1 0x11 PUSH1 0x4 MSTORE PUSH1 0x24 DUP3 REVERT JUMPDEST PUSH4 0x4E487B71 PUSH1 0xE0 SHL DUP5 MSTORE PUSH1 0x11 PUSH1 0x4 MSTORE PUSH1 0x24 DUP5 REVERT JUMPDEST PUSH2 0x14D SLOAD DUP1 NUMBER LT ISZERO PUSH2 0x4C56 JUMPI PUSH2 0x3AE2 SWAP1 NUMBER SWAP1 PUSH2 0x4229 JUMP JUMPDEST POP PUSH1 0x0 SWAP1 JUMP JUMPDEST SWAP1 PUSH1 0x40 MLOAD PUSH2 0x4C6B PUSH1 0x40 DUP3 PUSH2 0x3BB1 JUMP JUMPDEST PUSH1 0x20 PUSH1 0x1 DUP3 SWAP5 DUP1 SLOAD DUP5 MSTORE ADD SLOAD SWAP2 ADD MSTORE JUMP JUMPDEST PUSH2 0x4C88 DUP2 PUSH2 0x148 PUSH2 0x3A60 JUMP JUMPDEST SWAP1 SLOAD SWAP1 PUSH1 0x3 SHL SHR SWAP2 PUSH2 0x18E SWAP2 PUSH2 0x4C9E DUP2 DUP5 PUSH2 0x3B95 JUMP JUMPDEST POP SLOAD SWAP3 PUSH2 0x18F SLOAD NUMBER LT ISZERO PUSH2 0x4CC4 JUMPI JUMPDEST POP POP DUP1 DUP3 LT ISZERO PUSH2 0x47E8 JUMPI PUSH2 0x4595 SWAP1 PUSH2 0x3AE2 SWAP4 PUSH2 0x4436 JUMP JUMPDEST DUP3 SWAP4 POP PUSH2 0x4CD8 PUSH2 0x4CE3 SWAP4 SWAP3 PUSH2 0x4CDE SWAP3 PUSH2 0x3B95 JUMP JUMPDEST POP PUSH2 0x4C5C JUMP JUMPDEST PUSH2 0x4CEB JUMP JUMPDEST SWAP1 CODESIZE DUP1 PUSH2 0x4CAD JUMP JUMPDEST PUSH1 0x20 DUP2 MLOAD SWAP2 ADD DUP1 MLOAD SWAP3 PUSH8 0xDE0B6B3A7640000 SWAP4 DUP5 SUB SWAP1 DUP5 DUP3 GT PUSH2 0x4236 JUMPI PUSH2 0x4D18 PUSH2 0x439D SWAP3 PUSH2 0x4358 SWAP6 PUSH2 0x4436 JUMP JUMPDEST SWAP3 MLOAD PUSH2 0x4436 JUMP JUMPDEST PUSH1 0x0 DUP1 PUSH2 0x137 SWAP2 DUP3 SLOAD SWAP3 PUSH2 0x4D32 DUP5 PUSH2 0x4510 JUMP JUMPDEST SWAP4 DUP3 SWAP2 JUMPDEST DUP2 DUP4 LT PUSH2 0x4D5F JUMPI POP POP POP DUP2 ISZERO PUSH2 0x4D53 JUMPI SWAP1 PUSH2 0x4D50 SWAP2 PUSH2 0x4449 JUMP JUMPDEST SWAP2 JUMP JUMPDEST POP POP PUSH2 0x149 SLOAD PUSH1 0x1 SHL SWAP2 JUMP JUMPDEST SWAP1 SWAP2 SWAP4 SWAP3 PUSH2 0x4D6C DUP6 PUSH2 0x464D JUMP JUMPDEST SWAP1 DUP2 PUSH2 0x4D78 DUP8 DUP10 PUSH2 0x4311 JUMP JUMPDEST MSTORE PUSH2 0x4D91 PUSH2 0x4D86 DUP4 DUP9 PUSH2 0x43CF JUMP JUMPDEST POP PUSH2 0x4391 DUP9 DUP7 PUSH2 0x3B95 JUMP JUMPDEST PUSH8 0xDE0B6B3A7640000 SWAP1 DUP2 DUP2 MUL SWAP2 DUP2 DUP4 DIV EQ SWAP1 ISZERO OR ISZERO PUSH2 0x4236 JUMPI PUSH2 0x4DD3 PUSH2 0x4DD9 SWAP3 PUSH2 0x439D DUP6 PUSH2 0x4DC5 PUSH1 0x1 SWAP8 PUSH2 0x4DCE SWAP7 PUSH2 0x570F JUMP JUMPDEST SWAP5 DUP6 SWAP2 DUP13 PUSH2 0x4C7C JUMP JUMPDEST PUSH2 0x4436 JUMP JUMPDEST SWAP6 PUSH2 0x4304 JUMP JUMPDEST SWAP5 ADD SWAP2 SWAP1 PUSH2 0x4D36 JUMP JUMPDEST PUSH2 0x18F DUP1 SLOAD NUMBER LT ISZERO PUSH2 0x4DF1 JUMPI POP JUMP JUMPDEST PUSH2 0x137 SLOAD PUSH1 0x0 JUMPDEST DUP2 DUP2 LT PUSH2 0x4E0B JUMPI POP POP PUSH2 0x190 SLOAD NUMBER ADD SWAP1 SSTORE JUMP JUMPDEST DUP1 DUP1 PUSH32 0x19156E9379C7BBBCE8F646CE5EE30BA860B8F954717405F3D5859A6C1A21AE60 PUSH1 0x1 SWAP4 PUSH2 0x18E PUSH2 0x4E41 PUSH2 0x4CD8 DUP4 DUP4 PUSH2 0x3B95 JUMP JUMPDEST SWAP1 PUSH2 0x4E5F PUSH2 0x4E57 PUSH2 0x4E51 DUP6 PUSH2 0x464D JUMP JUMPDEST DUP5 PUSH2 0x4CEB JUMP JUMPDEST SWAP4 DUP5 SWAP3 PUSH2 0x3B95 JUMP JUMPDEST POP SSTORE MLOAD PUSH1 0x40 SWAP2 DUP3 MLOAD SWAP2 DUP3 MSTORE PUSH1 0x20 DUP3 ADD MSTORE LOG2 ADD PUSH2 0x4DF8 JUMP JUMPDEST PUSH2 0x3B21 SWAP1 PUSH2 0x14E PUSH2 0x4E88 DUP3 DUP3 SLOAD PUSH2 0x4304 JUMP JUMPDEST SWAP1 SSTORE PUSH2 0x229 SLOAD ADDRESS SWAP1 CALLER SWAP1 PUSH1 0x1 PUSH1 0x1 PUSH1 0xA0 SHL SUB AND JUMPDEST PUSH1 0x40 MLOAD PUSH4 0x23B872DD PUSH1 0xE0 SHL PUSH1 0x20 DUP3 ADD MSTORE PUSH1 0x1 PUSH1 0x1 PUSH1 0xA0 SHL SUB SWAP3 DUP4 AND PUSH1 0x24 DUP3 ADD MSTORE SWAP3 SWAP1 SWAP2 AND PUSH1 0x44 DUP4 ADD MSTORE PUSH1 0x64 DUP1 DUP4 ADD SWAP4 SWAP1 SWAP4 MSTORE SWAP2 DUP2 MSTORE PUSH2 0x3B21 SWAP2 PUSH2 0x4125 PUSH1 0x84 DUP4 PUSH2 0x3BB1 JUMP JUMPDEST PUSH1 0xFF PUSH2 0x14B SLOAD PUSH1 0x8 SHR AND PUSH2 0x4EF0 JUMPI JUMP JUMPDEST PUSH1 0x40 MLOAD PUSH4 0x1CA61D77 PUSH1 0xE0 SHL DUP2 MSTORE PUSH1 0x4 SWAP1 REVERT JUMPDEST PUSH1 0xA0 SWAP1 DUP2 PUSH1 0x1 DUP1 DUP3 SHL SUB SWAP2 DUP3 DUP2 MLOAD AND DUP6 MSTORE PUSH1 0x20 DUP2 ADD MLOAD PUSH1 0x20 DUP7 ADD MSTORE PUSH1 0x40 DUP2 ADD MLOAD PUSH1 0x40 DUP7 ADD MSTORE DUP3 PUSH1 0x60 DUP3 ADD MLOAD AND PUSH1 0x60 DUP7 ADD MSTORE DUP3 PUSH1 0x80 DUP3 ADD MLOAD AND PUSH1 0x80 DUP7 ADD MSTORE ADD MLOAD AND SWAP2 ADD MSTORE JUMP JUMPDEST SWAP2 SWAP1 SWAP2 PUSH1 0xE0 PUSH2 0x100 DUP3 ADD SWAP4 DUP2 PUSH1 0x1 DUP1 PUSH1 0xA0 SHL SUB SWAP2 DUP3 DUP2 MLOAD AND DUP6 MSTORE DUP3 PUSH1 0x20 DUP3 ADD MLOAD AND PUSH1 0x20 DUP7 ADD MSTORE PUSH1 0x40 DUP2 ADD MLOAD PUSH1 0x40 DUP7 ADD MSTORE PUSH1 0x60 DUP2 ADD MLOAD PUSH1 0x60 DUP7 ADD MSTORE PUSH1 0x80 DUP2 ADD MLOAD PUSH1 0x80 DUP7 ADD MSTORE DUP3 PUSH1 0xA0 DUP3 ADD MLOAD AND PUSH1 0xA0 DUP7 ADD MSTORE DUP3 PUSH1 0xC0 DUP3 ADD MLOAD AND PUSH1 0xC0 DUP7 ADD MSTORE ADD MLOAD AND SWAP2 ADD MSTORE JUMP JUMPDEST PUSH1 0xC0 SWAP1 DUP2 PUSH1 0x1 DUP1 PUSH1 0xA0 SHL SUB SWAP2 DUP3 DUP2 MLOAD AND DUP6 MSTORE PUSH1 0x20 DUP2 ADD MLOAD PUSH1 0x20 DUP7 ADD MSTORE PUSH1 0x40 DUP2 ADD MLOAD PUSH1 0x40 DUP7 ADD MSTORE PUSH1 0x60 DUP2 ADD MLOAD PUSH1 0x60 DUP7 ADD MSTORE DUP3 PUSH1 0x80 DUP3 ADD MLOAD AND PUSH1 0x80 DUP7 ADD MSTORE DUP3 PUSH1 0xA0 DUP3 ADD MLOAD AND PUSH1 0xA0 DUP7 ADD MSTORE ADD MLOAD AND SWAP2 ADD MSTORE JUMP JUMPDEST PUSH1 0x40 MLOAD SWAP1 PUSH2 0x500A PUSH1 0x80 DUP4 PUSH2 0x3BB1 JUMP JUMPDEST PUSH1 0x0 PUSH1 0x60 DUP4 DUP3 DUP2 MSTORE DUP3 PUSH1 0x20 DUP3 ADD MSTORE DUP3 PUSH1 0x40 DUP3 ADD MSTORE ADD MSTORE JUMP JUMPDEST SWAP2 SWAP1 DUP3 PUSH1 0xA0 SWAP2 SUB SLT PUSH2 0x6E1 JUMPI PUSH1 0x40 MLOAD PUSH2 0x503C PUSH1 0xA0 DUP3 PUSH2 0x3BB1 JUMP JUMPDEST PUSH1 0x80 PUSH2 0x507A DUP2 DUP4 SWAP6 DUP1 CALLDATALOAD DUP6 MSTORE PUSH1 0x20 DUP2 ADD CALLDATALOAD PUSH1 0x20 DUP7 ADD MSTORE PUSH2 0x505E PUSH1 0x40 DUP3 ADD PUSH2 0x3A8E JUMP JUMPDEST PUSH1 0x40 DUP7 ADD MSTORE PUSH2 0x506F PUSH1 0x60 DUP3 ADD PUSH2 0x3A8E JUMP JUMPDEST PUSH1 0x60 DUP7 ADD MSTORE ADD PUSH2 0x3A8E JUMP JUMPDEST SWAP2 ADD MSTORE JUMP JUMPDEST SWAP2 SWAP1 PUSH2 0x508A SWAP1 PUSH2 0x4325 JUMP JUMPDEST SWAP2 SWAP1 SWAP3 PUSH2 0x5097 DUP4 DUP6 PUSH2 0x44DA JUMP JUMPDEST SWAP1 DUP1 DUP3 GT ISZERO PUSH2 0x50A4 JUMPI POP POP JUMP JUMPDEST PUSH1 0x44 SWAP3 POP PUSH1 0x40 MLOAD SWAP2 PUSH4 0x79121201 PUSH1 0xE0 SHL DUP4 MSTORE PUSH1 0x4 DUP4 ADD MSTORE PUSH1 0x24 DUP3 ADD MSTORE REVERT JUMPDEST SWAP3 SWAP1 SWAP4 SWAP2 PUSH1 0x0 SWAP2 PUSH1 0x0 SWAP2 DUP3 SWAP7 PUSH2 0x50D6 PUSH2 0x4FFB JUMP JUMPDEST SWAP7 PUSH1 0x1 PUSH1 0x1 PUSH1 0xA0 SHL SUB SWAP2 DUP6 SWAP1 DUP4 AND DUP1 PUSH2 0x52E2 JUMPI JUMPDEST POP DUP3 PUSH2 0x12F SLOAD AND DUP4 PUSH1 0x40 MLOAD SWAP4 PUSH4 0x6EB1769F PUSH1 0xE1 SHL DUP6 MSTORE AND DUP1 PUSH1 0x4 DUP6 ADD MSTORE ADDRESS PUSH1 0x24 DUP6 ADD MSTORE PUSH1 0x20 SWAP5 DUP6 DUP6 PUSH1 0x44 DUP2 DUP7 GAS STATICCALL SWAP5 DUP6 ISZERO PUSH2 0x52D7 JUMPI DUP5 SWAP6 PUSH2 0x52A8 JUMPI JUMPDEST POP DUP5 PUSH2 0x5187 JUMPI JUMPDEST POP POP POP POP POP DUP7 ADD MLOAD ISZERO PUSH2 0x5143 JUMPI JUMPDEST POP POP POP SWAP3 SWAP2 SWAP1 JUMP JUMPDEST SWAP1 SWAP2 SWAP3 POP PUSH2 0x515B PUSH8 0xDE0B6B3A7640000 SWAP3 DUP4 SWAP3 PUSH2 0x4436 JUMP JUMPDEST DIV DUP1 DUP6 MSTORE SWAP1 DUP3 ISZERO PUSH2 0x517F JUMPI PUSH2 0x5177 SWAP3 DIV SWAP1 DUP2 PUSH1 0x40 DUP7 ADD MSTORE PUSH2 0x4304 JUMP JUMPDEST CODESIZE DUP1 DUP1 PUSH2 0x513B JUMP JUMPDEST POP SWAP1 POP PUSH2 0x5177 JUMP JUMPDEST PUSH2 0x5195 SWAP1 PUSH2 0x130 SLOAD AND PUSH2 0x46AE JUMP JUMPDEST SWAP3 SWAP1 SWAP3 ISZERO PUSH2 0x512D JUMPI SWAP1 SWAP2 SWAP3 SWAP4 SWAP12 POP DUP5 DUP12 PUSH2 0x51CF DUP6 PUSH8 0xDE0B6B3A7640000 PUSH2 0x51C9 PUSH2 0x51BF DUP14 DUP14 PUSH2 0x4436 JUMP JUMPDEST PUSH2 0x143 SLOAD SWAP1 PUSH2 0x4436 JUMP JUMPDEST DIV PUSH2 0x4449 JUMP JUMPDEST DUP2 DUP4 ADD DUP2 DUP2 MSTORE SWAP6 SWAP1 DUP12 ISZERO PUSH2 0x529E JUMPI POP PUSH2 0x51FA SWAP2 PUSH2 0x51EE PUSH1 0x60 SWAP3 DUP14 PUSH2 0x4449 JUMP JUMPDEST SWAP2 DUP3 SWAP2 ADD MSTORE DUP6 MLOAD PUSH2 0x4304 JUMP JUMPDEST DUP1 SWAP14 JUMPDEST LT SWAP3 DUP4 ISZERO PUSH2 0x5229 JUMPI JUMPDEST POP POP POP PUSH2 0x5216 JUMPI JUMPDEST DUP1 DUP1 DUP1 PUSH2 0x512D JUMP JUMPDEST DUP2 SWAP3 SWAP10 POP MSTORE DUP1 PUSH1 0x60 DUP9 ADD MSTORE SWAP7 CODESIZE DUP1 PUSH2 0x520E JUMP JUMPDEST SWAP1 SWAP2 SWAP3 POP PUSH1 0x24 PUSH1 0x40 MLOAD DUP1 SWAP5 DUP2 SWAP4 PUSH4 0x70A08231 PUSH1 0xE0 SHL DUP4 MSTORE PUSH1 0x4 DUP4 ADD MSTORE GAS STATICCALL SWAP1 DUP2 ISZERO PUSH2 0x5293 JUMPI SWAP1 DUP12 SWAP2 DUP5 SWAP2 PUSH2 0x5262 JUMPI JUMPDEST POP LT CODESIZE DUP5 DUP2 PUSH2 0x5206 JUMP JUMPDEST DUP1 SWAP3 POP DUP6 DUP1 SWAP3 POP RETURNDATASIZE DUP4 GT PUSH2 0x528C JUMPI JUMPDEST PUSH2 0x527B DUP2 DUP4 PUSH2 0x3BB1 JUMP JUMPDEST DUP2 ADD SUB SLT PUSH2 0x8E0 JUMPI DUP11 SWAP1 MLOAD CODESIZE PUSH2 0x5258 JUMP JUMPDEST POP RETURNDATASIZE PUSH2 0x5271 JUMP JUMPDEST PUSH1 0x40 MLOAD RETURNDATASIZE DUP6 DUP3 RETURNDATACOPY RETURNDATASIZE SWAP1 REVERT JUMPDEST SWAP2 POP POP DUP1 SWAP14 PUSH2 0x51FD JUMP JUMPDEST SWAP1 SWAP5 POP DUP6 DUP2 DUP2 RETURNDATASIZE DUP4 GT PUSH2 0x52D0 JUMPI JUMPDEST PUSH2 0x52C0 DUP2 DUP4 PUSH2 0x3BB1 JUMP JUMPDEST DUP2 ADD SUB SLT PUSH2 0x9BA JUMPI MLOAD SWAP4 CODESIZE PUSH2 0x5126 JUMP JUMPDEST POP RETURNDATASIZE PUSH2 0x52B6 JUMP JUMPDEST PUSH1 0x40 MLOAD RETURNDATASIZE DUP7 DUP3 RETURNDATACOPY RETURNDATASIZE SWAP1 REVERT JUMPDEST SWAP1 SWAP6 POP PUSH1 0x20 DUP4 PUSH2 0x1C3 SLOAD AND SWAP2 PUSH1 0x24 PUSH1 0x40 MLOAD DUP1 SWAP5 DUP2 SWAP4 PUSH4 0x64A731E9 PUSH1 0xE0 SHL DUP4 MSTORE PUSH1 0x4 DUP4 ADD MSTORE GAS STATICCALL DUP1 ISZERO PUSH2 0x535A JUMPI DUP7 SWAP1 PUSH2 0x5327 JUMPI JUMPDEST PUSH2 0x5320 SWAP2 POP DUP5 PUSH2 0x4436 JUMP JUMPDEST SWAP5 CODESIZE PUSH2 0x50EA JUMP JUMPDEST POP PUSH1 0x20 DUP2 RETURNDATASIZE DUP3 GT PUSH2 0x5352 JUMPI JUMPDEST DUP2 PUSH2 0x5340 PUSH1 0x20 SWAP4 DUP4 PUSH2 0x3BB1 JUMP JUMPDEST DUP2 ADD SUB SLT PUSH2 0x296F JUMPI PUSH2 0x5320 SWAP1 MLOAD PUSH2 0x5315 JUMP JUMPDEST RETURNDATASIZE SWAP2 POP PUSH2 0x5333 JUMP JUMPDEST PUSH1 0x40 MLOAD RETURNDATASIZE DUP9 DUP3 RETURNDATACOPY RETURNDATASIZE SWAP1 REVERT JUMPDEST SWAP3 PUSH2 0x3B21 SWAP5 SWAP2 SWAP3 SWAP4 DUP3 MLOAD ISZERO ISZERO PUSH1 0x0 EQ PUSH2 0x53D5 JUMPI POP PUSH1 0x40 PUSH2 0x53D0 SWAP3 PUSH2 0x53C8 PUSH8 0xDE0B6B3A7640000 PUSH2 0x539A PUSH2 0x13B SLOAD DUP5 MLOAD SWAP1 PUSH2 0x4436 JUMP JUMPDEST DIV PUSH2 0x131 PUSH2 0x53A9 DUP3 DUP3 SLOAD PUSH2 0x4304 JUMP JUMPDEST SWAP1 SSTORE PUSH2 0x53C2 PUSH1 0x1 DUP1 PUSH1 0xA0 SHL SUB PUSH2 0x146 SLOAD AND SWAP2 DUP5 MLOAD PUSH2 0x4229 JUMP JUMPDEST SWAP1 PUSH2 0x40D3 JUMP JUMPDEST ADD MLOAD SWAP1 PUSH2 0x40D3 JUMP JUMPDEST PUSH2 0x40D3 JUMP JUMPDEST SWAP1 PUSH1 0x60 PUSH2 0x53D0 SWAP4 PUSH2 0x53F7 PUSH1 0x1 DUP1 PUSH1 0xA0 SHL SUB PUSH2 0x146 SLOAD AND PUSH1 0x20 DUP4 ADD MLOAD SWAP1 DUP7 PUSH2 0x53FB JUMP JUMPDEST ADD MLOAD SWAP2 JUMPDEST SWAP2 SWAP1 DUP2 PUSH2 0x5407 JUMPI POP POP POP JUMP JUMPDEST PUSH2 0x12F SLOAD PUSH2 0x3B21 SWAP4 SWAP1 PUSH1 0x1 PUSH1 0x1 PUSH1 0xA0 SHL SUB AND PUSH2 0x4E9C JUMP JUMPDEST SWAP2 SWAP1 DUP3 PUSH1 0xC0 SWAP2 SUB SLT PUSH2 0x6E1 JUMPI PUSH1 0x40 MLOAD PUSH2 0x5438 PUSH1 0xC0 DUP3 PUSH2 0x3BB1 JUMP JUMPDEST PUSH1 0xA0 PUSH2 0x507A DUP2 DUP4 SWAP6 PUSH2 0x5449 DUP2 PUSH2 0x3A8E JUMP JUMPDEST DUP6 MSTORE PUSH1 0x20 DUP2 ADD CALLDATALOAD PUSH1 0x20 DUP7 ADD MSTORE PUSH1 0x40 DUP2 ADD CALLDATALOAD PUSH1 0x40 DUP7 ADD MSTORE PUSH2 0x546B PUSH1 0x60 DUP3 ADD PUSH2 0x3A8E JUMP JUMPDEST PUSH1 0x60 DUP7 ADD MSTORE PUSH2 0x547C PUSH1 0x80 DUP3 ADD PUSH2 0x3A8E JUMP JUMPDEST PUSH1 0x80 DUP7 ADD MSTORE ADD PUSH2 0x3A8E JUMP JUMPDEST SWAP1 PUSH2 0x5494 SWAP5 SWAP4 SWAP3 SWAP2 PUSH2 0x4B79 JUMP JUMPDEST PUSH1 0x0 DUP2 SLT PUSH2 0x4C56 JUMPI SWAP1 JUMP JUMPDEST DUP1 PUSH2 0x54A8 PUSH2 0x47F7 JUMP JUMPDEST SWAP2 SWAP1 SWAP4 PUSH2 0x54B5 PUSH1 0x0 PUSH2 0x474E JUMP JUMPDEST SWAP5 ADD SWAP4 DUP3 SWAP2 PUSH2 0x554D JUMPI JUMPDEST ADD SWAP4 DUP5 PUSH1 0x0 DUP1 DUP3 SLT PUSH2 0x5547 JUMPI POP JUMPDEST DUP5 SUB SWAP2 DUP2 DUP6 GT PUSH2 0x550F JUMPI POP POP DUP2 DUP2 GT PUSH2 0x54F1 JUMPI POP POP PUSH2 0x155 SSTORE PUSH2 0x156 SSTORE NUMBER PUSH2 0x157 SSTORE JUMP JUMPDEST PUSH1 0x44 SWAP3 POP PUSH1 0x40 MLOAD SWAP2 PUSH4 0x6DA41E5 PUSH1 0xE1 SHL DUP4 MSTORE PUSH1 0x4 DUP4 ADD MSTORE PUSH1 0x24 DUP3 ADD MSTORE REVERT JUMPDEST SWAP1 DUP1 DUP6 SWAP3 GT PUSH2 0x5535 JUMPI PUSH1 0x44 SWAP2 PUSH1 0x40 MLOAD SWAP2 PUSH4 0x6DA41E5 PUSH1 0xE1 SHL DUP4 MSTORE PUSH1 0x4 DUP4 ADD MSTORE PUSH1 0x24 DUP3 ADD MSTORE REVERT JUMPDEST PUSH1 0x40 MLOAD PUSH4 0xFB4FD35 PUSH1 0xE1 SHL DUP2 MSTORE PUSH1 0x4 SWAP1 REVERT JUMPDEST SUB PUSH2 0x54CD JUMP JUMPDEST SWAP1 POP DUP2 PUSH1 0x0 SUB SWAP1 PUSH2 0x54BF JUMP JUMPDEST DUP1 SWAP2 SUB PUSH1 0xE0 DUP2 SLT PUSH2 0x6E1 JUMPI DUP2 MLOAD SWAP3 PUSH1 0x20 DUP4 ADD MLOAD SWAP3 PUSH1 0x80 PUSH1 0x40 DUP3 ADD MLOAD SWAP4 PUSH1 0x5F NOT ADD SLT PUSH2 0x6E1 JUMPI PUSH1 0xC0 PUSH1 0x40 MLOAD SWAP2 PUSH2 0x558F PUSH1 0x80 DUP5 PUSH2 0x3BB1 JUMP JUMPDEST PUSH1 0x60 DUP2 ADD MLOAD DUP4 MSTORE PUSH1 0x80 DUP2 ADD MLOAD PUSH1 0x20 DUP5 ADD MSTORE PUSH1 0xA0 DUP2 ADD MLOAD PUSH1 0x40 DUP5 ADD MSTORE ADD MLOAD PUSH1 0x60 DUP3 ADD MSTORE SWAP1 JUMP JUMPDEST SWAP2 SWAP1 DUP3 PUSH1 0xE0 SWAP2 SUB SLT PUSH2 0x6E1 JUMPI PUSH1 0x40 MLOAD PUSH2 0x55CE PUSH1 0xE0 DUP3 PUSH2 0x3BB1 JUMP JUMPDEST PUSH1 0xC0 PUSH2 0x507A DUP2 DUP4 SWAP6 PUSH2 0x55DF DUP2 PUSH2 0x3A8E JUMP JUMPDEST DUP6 MSTORE PUSH1 0x20 DUP2 ADD CALLDATALOAD PUSH1 0x20 DUP7 ADD MSTORE PUSH1 0x40 DUP2 ADD CALLDATALOAD PUSH1 0x40 DUP7 ADD MSTORE PUSH1 0x60 DUP2 ADD CALLDATALOAD PUSH1 0x60 DUP7 ADD MSTORE PUSH2 0x560B PUSH1 0x80 DUP3 ADD PUSH2 0x3A8E JUMP JUMPDEST PUSH1 0x80 DUP7 ADD MSTORE PUSH2 0x561C PUSH1 0xA0 DUP3 ADD PUSH2 0x3A8E JUMP JUMPDEST PUSH1 0xA0 DUP7 ADD MSTORE ADD PUSH2 0x3A8E JUMP JUMPDEST PUSH1 0x40 MLOAD PUSH4 0xA9059CBB PUSH1 0xE0 SHL PUSH1 0x20 DUP3 ADD MSTORE PUSH1 0x1 PUSH1 0x1 PUSH1 0xA0 SHL SUB SWAP1 SWAP3 AND PUSH1 0x24 DUP4 ADD MSTORE PUSH1 0x44 DUP3 ADD SWAP3 SWAP1 SWAP3 MSTORE PUSH2 0x3B21 SWAP2 PUSH2 0x4125 DUP3 PUSH1 0x64 DUP2 ADD PUSH2 0x4117 JUMP JUMPDEST PUSH1 0x97 SLOAD PUSH1 0x40 MLOAD PUSH4 0xD994D6D5 PUSH1 0xE0 SHL DUP2 MSTORE CALLER PUSH1 0x4 DUP3 ADD MSTORE SWAP1 PUSH1 0x20 SWAP1 DUP3 SWAP1 PUSH1 0x24 SWAP1 DUP3 SWAP1 PUSH1 0x1 PUSH1 0x1 PUSH1 0xA0 SHL SUB AND GAS STATICCALL SWAP1 DUP2 ISZERO PUSH2 0x42F8 JUMPI PUSH1 0x0 SWAP2 PUSH2 0x56B5 JUMPI JUMPDEST POP ISZERO PUSH2 0x56A3 JUMPI JUMP JUMPDEST PUSH1 0x40 MLOAD PUSH4 0x1DD1B1B5 PUSH1 0xE2 SHL DUP2 MSTORE PUSH1 0x4 SWAP1 REVERT JUMPDEST SWAP1 PUSH1 0x20 DUP3 RETURNDATASIZE DUP3 GT PUSH2 0x56E6 JUMPI JUMPDEST DUP2 PUSH2 0x56CE PUSH1 0x20 SWAP4 DUP4 PUSH2 0x3BB1 JUMP JUMPDEST DUP2 ADD SUB SLT PUSH2 0x78B JUMPI POP PUSH2 0x56E0 SWAP1 PUSH2 0x412A JUMP JUMPDEST CODESIZE PUSH2 0x569B JUMP JUMPDEST RETURNDATASIZE SWAP2 POP PUSH2 0x56C1 JUMP JUMPDEST PUSH1 0xFF PUSH1 0xCA SLOAD PUSH1 0x8 SHR AND PUSH2 0x56FD JUMPI JUMP JUMPDEST PUSH1 0x40 MLOAD PUSH4 0x783BB6C9 PUSH1 0xE1 SHL DUP2 MSTORE PUSH1 0x4 SWAP1 REVERT JUMPDEST SWAP1 PUSH8 0xDE0B6B3A7640000 SWAP2 DUP3 DUP2 MUL SWAP3 DUP2 DUP5 DIV EQ SWAP1 ISZERO OR ISZERO PUSH2 0x4236 JUMPI PUSH2 0x3AE2 SWAP2 PUSH2 0x4449 JUMP JUMPDEST PUSH8 0xDE0B6B3A7640000 GT ISZERO PUSH2 0x5744 JUMPI JUMP JUMPDEST PUSH1 0x40 MLOAD PUSH4 0x2A9FFAB7 PUSH1 0xE2 SHL DUP2 MSTORE PUSH1 0x4 SWAP1 REVERT INVALID LOG2 PUSH5 0x6970667358 0x22 SLT KECCAK256 STOP 0xE7 REVERT PUSH10 0x7166DA7484CA6B0DE811 0xF SWAP6 SMOD EXP 0xA9 0xCD 0x25 PUSH10 0x7C2016226857DBFC94C6 PUSH5 0x736F6C6343 STOP ADDMOD EQ STOP CALLER PUSH1 0xA0 DUP1 PUSH1 0x40 MSTORE CALLVALUE PUSH3 0xE1 JUMPI ADDRESS PUSH1 0x80 MSTORE PUSH1 0x0 SLOAD SWAP1 PUSH1 0xFF DUP3 PUSH1 0x8 SHR AND PUSH3 0x8F JUMPI POP PUSH1 0xFF DUP1 DUP3 AND SUB PUSH3 0x53 JUMPI JUMPDEST PUSH1 0x40 MLOAD PUSH2 0x4010 SWAP1 DUP2 PUSH3 0xE7 DUP3 CODECOPY PUSH1 0x80 MLOAD DUP2 DUP2 DUP2 PUSH2 0x1D4D ADD MSTORE DUP2 DUP2 PUSH2 0x1EBE ADD MSTORE PUSH2 0x21D4 ADD MSTORE RETURN JUMPDEST PUSH1 0xFF SWAP1 DUP2 NOT AND OR PUSH1 0x0 SSTORE PUSH32 0x7F26B83FF96E1F2B6A682F133852F6798A09C465DA95921460CEFB3847402498 PUSH1 0x20 PUSH1 0x40 MLOAD PUSH1 0xFF DUP2 MSTORE LOG1 CODESIZE PUSH3 0x2C JUMP JUMPDEST PUSH3 0x461BCD PUSH1 0xE5 SHL DUP2 MSTORE PUSH1 0x20 PUSH1 0x4 DUP3 ADD MSTORE PUSH1 0x27 PUSH1 0x24 DUP3 ADD MSTORE PUSH32 0x496E697469616C697A61626C653A20636F6E747261637420697320696E697469 PUSH1 0x44 DUP3 ADD MSTORE PUSH7 0x616C697A696E67 PUSH1 0xC8 SHL PUSH1 0x64 DUP3 ADD MSTORE PUSH1 0x84 SWAP1 REVERT JUMPDEST PUSH1 0x0 DUP1 REVERT INVALID PUSH1 0x80 PUSH1 0x40 MSTORE PUSH1 0x4 CALLDATASIZE LT ISZERO PUSH2 0x12 JUMPI PUSH1 0x0 DUP1 REVERT JUMPDEST PUSH1 0x0 PUSH1 0xE0 DUP2 CALLDATALOAD DUP2 SHR SWAP1 DUP2 PUSH4 0x1DDE6EF EQ PUSH2 0x28D3 JUMPI DUP2 PUSH4 0x1F1B684 EQ PUSH2 0x288B JUMPI DUP2 PUSH4 0x73763B9 EQ PUSH2 0x2867 JUMPI DUP2 PUSH4 0xC340A24 EQ PUSH2 0x283E JUMPI DUP2 PUSH4 0xC36D897 EQ PUSH2 0x281F JUMPI DUP2 PUSH4 0xD6AC463 EQ PUSH2 0x27D9 JUMPI DUP2 PUSH4 0xDB49656 EQ PUSH2 0x27BA JUMPI DUP2 PUSH4 0xE0A8FD2 EQ PUSH2 0x2796 JUMPI DUP2 PUSH4 0xF1E5E2B EQ PUSH2 0x2750 JUMPI DUP2 PUSH4 0x13ED7BA5 EQ PUSH2 0x2726 JUMPI DUP2 PUSH4 0x1867E2F5 EQ PUSH2 0x2707 JUMPI DUP2 PUSH4 0x1FE6A7AD EQ PUSH2 0x26CD JUMPI DUP2 PUSH4 0x2069F753 EQ PUSH2 0x26A9 JUMPI DUP2 PUSH4 0x23B98CDE EQ PUSH2 0x2682 JUMPI DUP2 PUSH4 0x24FFABA3 EQ PUSH2 0x2644 JUMPI DUP2 PUSH4 0x27EAB2A1 EQ PUSH2 0x25FE JUMPI DUP2 PUSH4 0x2A20D57D EQ PUSH2 0x25DF JUMPI DUP2 PUSH4 0x2AB7831F EQ PUSH2 0x23E5 JUMPI DUP2 PUSH4 0x2C43BD3B EQ PUSH2 0x23C1 JUMPI DUP2 PUSH4 0x2D88AF4A EQ PUSH2 0x236A JUMPI DUP2 PUSH4 0x2DED50F0 EQ PUSH2 0x234B JUMPI DUP2 PUSH4 0x333431FD EQ PUSH2 0x232C JUMPI DUP2 PUSH4 0x33421C38 EQ PUSH2 0x223B JUMPI DUP2 PUSH4 0x3659CFE6 EQ PUSH2 0x21A2 JUMPI DUP2 PUSH4 0x3915EDCB EQ PUSH2 0x2173 JUMPI DUP2 PUSH4 0x3BC4AC0A EQ PUSH2 0x214F JUMPI DUP2 PUSH4 0x3CFB09EF EQ PUSH2 0x2109 JUMPI DUP2 PUSH4 0x3F4BA83A EQ PUSH2 0x1FFE JUMPI DUP2 PUSH4 0x407F0E34 EQ PUSH2 0x1FDF JUMPI DUP2 PUSH4 0x4B746001 EQ PUSH2 0x1F92 JUMPI DUP2 PUSH4 0x4D977E78 EQ PUSH2 0x1F73 JUMPI DUP2 PUSH4 0x4E1F907A EQ PUSH2 0x1F49 JUMPI DUP2 PUSH4 0x4F0F27EE EQ PUSH2 0x1F2A JUMPI DUP2 PUSH4 0x4F1EF286 EQ PUSH2 0x1E36 JUMPI DUP2 PUSH4 0x5210570C EQ PUSH2 0x1E10 JUMPI DUP2 PUSH4 0x52D1902D EQ PUSH2 0x1D3A JUMPI DUP2 PUSH4 0x543AEB48 EQ PUSH2 0x1D16 JUMPI DUP2 PUSH4 0x5860EE63 EQ PUSH2 0x1CF7 JUMPI DUP2 PUSH4 0x5C975ABB EQ PUSH2 0x1CD1 JUMPI DUP2 PUSH4 0x5CFBE578 EQ PUSH2 0x1CB2 JUMPI DUP2 PUSH4 0x60009E0B EQ PUSH2 0x1C88 JUMPI DUP2 PUSH4 0x647846A5 EQ PUSH2 0x1C5E JUMPI DUP2 PUSH4 0x64EC230A EQ PUSH2 0x1C3A JUMPI DUP2 PUSH4 0x662013F4 EQ PUSH2 0x1C16 JUMPI DUP2 PUSH4 0x68274357 EQ PUSH2 0x1BED JUMPI DUP2 PUSH4 0x6B5488DF EQ PUSH2 0x1BCE JUMPI DUP2 PUSH4 0x6F30471F EQ PUSH2 0x1BAF JUMPI DUP2 PUSH4 0x70713468 EQ PUSH2 0x1B8B JUMPI DUP2 PUSH4 0x735D3960 EQ PUSH2 0x1B45 JUMPI DUP2 PUSH4 0x73E28AF9 EQ PUSH2 0x1B21 JUMPI DUP2 PUSH4 0x7554FFFD EQ PUSH2 0x1B02 JUMPI DUP2 PUSH4 0x76228055 EQ PUSH2 0x1AE3 JUMPI DUP2 PUSH4 0x7750BA0C EQ PUSH2 0x1ABF JUMPI DUP2 PUSH4 0x79F9A91C EQ PUSH2 0x1AA0 JUMPI DUP2 PUSH4 0x7A193C31 EQ PUSH2 0x1A81 JUMPI DUP2 PUSH4 0x7A4FF1D9 EQ PUSH2 0x1A5D JUMPI DUP2 PUSH4 0x7A727FE8 EQ PUSH2 0x1A3E JUMPI DUP2 PUSH4 0x7AF5758C EQ PUSH2 0x1A1A JUMPI DUP2 PUSH4 0x7B5A17AE EQ PUSH2 0x1800 JUMPI DUP2 PUSH4 0x7CBA2383 EQ PUSH2 0x17DC JUMPI DUP2 PUSH4 0x7D8E0314 EQ PUSH2 0x179F JUMPI DUP2 PUSH4 0x7F01C715 EQ PUSH2 0x1775 JUMPI DUP2 PUSH4 0x7F13B998 EQ PUSH2 0x1741 JUMPI DUP2 PUSH4 0x7F4A4FE0 EQ PUSH2 0x1722 JUMPI DUP2 PUSH4 0x8456CB59 EQ PUSH2 0x168B JUMPI DUP2 PUSH4 0x85BF9593 EQ PUSH2 0x1645 JUMPI DUP2 PUSH4 0x8CFA4241 EQ PUSH2 0x1626 JUMPI DUP2 PUSH4 0x8E2BDB86 EQ PUSH2 0x15FC JUMPI DUP2 PUSH4 0x9853C35A EQ PUSH2 0x15D2 JUMPI DUP2 PUSH4 0x9AD6659D EQ PUSH2 0x1598 JUMPI DUP2 PUSH4 0x9CABFC00 EQ PUSH2 0x154B JUMPI DUP2 PUSH4 0x9FD0506D EQ PUSH2 0x151E JUMPI DUP2 PUSH4 0xA8E9AC30 EQ PUSH2 0x14FC JUMPI DUP2 PUSH4 0xAEA038DC EQ PUSH2 0x14DD JUMPI DUP2 PUSH4 0xB5E9EA8C EQ PUSH2 0x14B3 JUMPI DUP2 PUSH4 0xB9FA6413 EQ PUSH2 0x1494 JUMPI DUP2 PUSH4 0xBB4872DE EQ PUSH2 0x1471 JUMPI DUP2 PUSH4 0xBECACA6B EQ PUSH2 0x144D JUMPI DUP2 PUSH4 0xC00F538D EQ PUSH2 0x1429 JUMPI DUP2 PUSH4 0xC84353C9 EQ PUSH2 0x1405 JUMPI DUP2 PUSH4 0xCF351C1D EQ PUSH2 0x13BF JUMPI DUP2 PUSH4 0xD1A0FAA0 EQ PUSH2 0x13A3 JUMPI DUP2 PUSH4 0xD6AF11DA EQ PUSH2 0x1361 JUMPI DUP2 PUSH4 0xD87AAB6F EQ PUSH2 0x1342 JUMPI DUP2 PUSH4 0xD8DB6F5A EQ PUSH2 0x12FC JUMPI DUP2 PUSH4 0xD9B6C2E5 EQ PUSH2 0x1174 JUMPI DUP2 PUSH4 0xDB796072 EQ PUSH2 0xEFC JUMPI DUP2 PUSH4 0xDDB6D190 EQ PUSH2 0xEBE JUMPI DUP2 PUSH4 0xE1E121DA EQ PUSH2 0xC62 JUMPI DUP2 PUSH4 0xE44BB512 EQ PUSH2 0xA69 JUMPI DUP2 PUSH4 0xE4C0AAF4 EQ PUSH2 0xA24 JUMPI DUP2 PUSH4 0xE6B1627C EQ PUSH2 0x9E1 JUMPI DUP2 PUSH4 0xE7C25978 EQ PUSH2 0x9BD JUMPI DUP2 PUSH4 0xEE1F438F EQ PUSH2 0x993 JUMPI DUP2 PUSH4 0xF13F4054 EQ PUSH2 0x969 JUMPI DUP2 PUSH4 0xF26114AA EQ PUSH2 0x77A JUMPI DUP2 PUSH4 0xF2808778 EQ PUSH2 0x756 JUMPI DUP2 PUSH4 0xF30B5614 EQ PUSH2 0x737 JUMPI DUP2 PUSH4 0xF375CFBA EQ PUSH2 0x718 JUMPI DUP2 PUSH4 0xF5571E01 EQ PUSH2 0x570 JUMPI POP DUP1 PUSH4 0xFA6E83BD EQ PUSH2 0x551 JUMPI DUP1 PUSH4 0xFADDA424 EQ PUSH2 0x4D8 JUMPI DUP1 PUSH4 0xFDA70F8B EQ PUSH2 0x4B9 JUMPI PUSH4 0xFE6B92C1 EQ PUSH2 0x498 JUMPI PUSH1 0x0 DUP1 REVERT JUMPDEST CALLVALUE PUSH2 0x4B6 JUMPI DUP1 PUSH1 0x3 NOT CALLDATASIZE ADD SLT PUSH2 0x4B6 JUMPI PUSH1 0x20 PUSH2 0x135 SLOAD PUSH1 0x40 MLOAD SWAP1 DUP2 MSTORE RETURN JUMPDEST DUP1 REVERT JUMPDEST POP CALLVALUE PUSH2 0x4B6 JUMPI DUP1 PUSH1 0x3 NOT CALLDATASIZE ADD SLT PUSH2 0x4B6 JUMPI PUSH1 0x20 PUSH2 0x13C SLOAD PUSH1 0x40 MLOAD SWAP1 DUP2 MSTORE RETURN JUMPDEST POP CALLVALUE PUSH2 0x4B6 JUMPI PUSH1 0x20 CALLDATASIZE PUSH1 0x3 NOT ADD SLT PUSH2 0x4B6 JUMPI PUSH1 0x1 PUSH1 0x1 PUSH1 0xA0 SHL SUB PUSH1 0x4 CALLDATALOAD DUP2 DUP2 AND DUP2 SUB PUSH2 0x54C JUMPI PUSH2 0x514 PUSH2 0x50C PUSH1 0x1 SWAP3 PUSH2 0x3201 JUMP JUMPDEST PUSH2 0x137 PUSH2 0x2939 JUMP JUMPDEST POP ADD SLOAD AND PUSH2 0x521 DUP2 PUSH2 0x3280 JUMP JUMPDEST SWAP2 SWAP1 SWAP2 ISZERO PUSH2 0x534 JUMPI PUSH1 0x20 DUP3 PUSH1 0x40 MLOAD SWAP1 DUP2 MSTORE RETURN JUMPDEST PUSH1 0x24 SWAP1 PUSH1 0x40 MLOAD SWAP1 PUSH4 0x7F6E4DB9 PUSH1 0xE0 SHL DUP3 MSTORE PUSH1 0x4 DUP3 ADD MSTORE REVERT JUMPDEST PUSH1 0x0 DUP1 REVERT JUMPDEST POP CALLVALUE PUSH2 0x4B6 JUMPI DUP1 PUSH1 0x3 NOT CALLDATASIZE ADD SLT PUSH2 0x4B6 JUMPI PUSH1 0x20 PUSH2 0x13A SLOAD PUSH1 0x40 MLOAD SWAP1 DUP2 MSTORE RETURN JUMPDEST CALLDATASIZE PUSH1 0x3 NOT ADD SLT SWAP1 POP PUSH2 0x4B6 JUMPI PUSH2 0x587 CALLDATASIZE PUSH1 0x4 PUSH2 0x29A9 JUMP JUMPDEST SWAP1 PUSH2 0x590 PUSH2 0x3528 JUMP JUMPDEST POP PUSH2 0x599 PUSH2 0x32E2 JUMP JUMPDEST SWAP1 PUSH2 0x61A PUSH1 0x1 DUP1 PUSH1 0xA0 SHL SUB SWAP2 PUSH2 0x5B1 DUP4 DUP7 MLOAD AND PUSH2 0x3201 JUMP JUMPDEST SWAP3 PUSH2 0x5D4 PUSH2 0x5BF DUP6 DUP8 PUSH2 0x2EC2 JUMP JUMPDEST MLOAD SWAP6 PUSH2 0x5CB DUP8 DUP8 PUSH2 0x36D3 JUMP JUMPDEST PUSH2 0x149 SLOAD PUSH2 0x3690 JUMP JUMPDEST PUSH2 0x614 PUSH1 0x20 DUP10 SWAP7 SWAP4 SWAP7 ADD SWAP8 PUSH2 0x60F PUSH2 0x5ED DUP3 DUP12 MLOAD PUSH2 0x3FB6 JUMP JUMPDEST SWAP8 PUSH2 0x60A PUSH2 0x600 DUP13 MLOAD PUSH2 0x134 SLOAD SWAP1 PUSH2 0x2FFA JUMP JUMPDEST SWAP6 PUSH2 0x131 SLOAD PUSH2 0x30BF JUMP JUMPDEST PUSH2 0x30BF JUMP JUMPDEST PUSH2 0x2FFA JUMP JUMPDEST SWAP1 PUSH2 0x3FB6 JUMP JUMPDEST SWAP6 PUSH1 0x40 DUP2 ADD MLOAD DUP1 DUP9 LT DUP1 ISZERO PUSH2 0x710 JUMPI JUMPDEST PUSH2 0x6F2 JUMPI POP PUSH2 0x64B DUP3 PUSH1 0x80 DUP4 ADD MLOAD AND DUP6 DUP5 PUSH1 0xC0 DUP6 ADD MLOAD AND PUSH2 0x13F SLOAD SWAP3 PUSH2 0x3753 JUMP JUMPDEST SWAP7 SWAP2 SWAP8 SWAP1 SWAP6 PUSH1 0x60 DUP5 ADD MLOAD DUP1 DUP11 GT PUSH2 0x6D3 JUMPI POP SWAP3 PUSH2 0x682 DUP7 PUSH2 0x68C SWAP7 SWAP5 PUSH1 0xA0 SWAP5 PUSH2 0x67B PUSH1 0x1 PUSH2 0x6CF SWAP14 SWAP13 SWAP12 SWAP10 PUSH2 0x39E0 JUMP JUMPDEST MLOAD SWAP1 PUSH2 0x3A9A JUMP JUMPDEST ADD MLOAD AND SWAP1 DUP8 PUSH2 0x3619 JUMP JUMPDEST PUSH1 0x40 MLOAD SWAP5 DUP6 SWAP5 DUP6 SWAP3 SWAP4 PUSH1 0x60 SWAP2 SWAP6 SWAP5 PUSH1 0xC0 SWAP4 PUSH1 0xE0 DUP7 ADD SWAP8 DUP7 MSTORE PUSH1 0x20 DUP7 ADD MSTORE PUSH1 0x40 DUP6 ADD MSTORE DUP1 MLOAD DUP3 DUP6 ADD MSTORE PUSH1 0x20 DUP2 ADD MLOAD PUSH1 0x80 DUP6 ADD MSTORE PUSH1 0x40 DUP2 ADD MLOAD PUSH1 0xA0 DUP6 ADD MSTORE ADD MLOAD SWAP2 ADD MSTORE JUMP JUMPDEST SUB SWAP1 RETURN JUMPDEST PUSH1 0x44 SWAP1 DUP10 MLOAD PUSH1 0x40 MLOAD SWAP2 PUSH4 0xB63F1A7 PUSH1 0xE0 SHL DUP4 MSTORE PUSH1 0x4 DUP4 ADD MSTORE PUSH1 0x24 DUP3 ADD MSTORE REVERT JUMPDEST PUSH1 0x44 SWAP1 DUP9 PUSH1 0x40 MLOAD SWAP2 PUSH4 0xF577BEF5 PUSH1 0xE0 SHL DUP4 MSTORE PUSH1 0x4 DUP4 ADD MSTORE PUSH1 0x24 DUP3 ADD MSTORE REVERT JUMPDEST POP DUP8 ISZERO PUSH2 0x62A JUMP JUMPDEST DUP3 CALLVALUE PUSH2 0x4B6 JUMPI DUP1 PUSH1 0x3 NOT CALLDATASIZE ADD SLT PUSH2 0x4B6 JUMPI PUSH1 0x20 PUSH2 0x141 SLOAD PUSH1 0x40 MLOAD SWAP1 DUP2 MSTORE RETURN JUMPDEST DUP3 CALLVALUE PUSH2 0x4B6 JUMPI DUP1 PUSH1 0x3 NOT CALLDATASIZE ADD SLT PUSH2 0x4B6 JUMPI PUSH1 0x20 PUSH2 0x131 SLOAD PUSH1 0x40 MLOAD SWAP1 DUP2 MSTORE RETURN JUMPDEST DUP3 CALLVALUE PUSH2 0x4B6 JUMPI PUSH1 0x20 CALLDATASIZE PUSH1 0x3 NOT ADD SLT PUSH2 0x4B6 JUMPI PUSH2 0x770 PUSH2 0x3F07 JUMP JUMPDEST PUSH1 0x4 CALLDATALOAD PUSH2 0x13C SSTORE DUP1 RETURN JUMPDEST SWAP1 POP CALLVALUE PUSH2 0x965 JUMPI CALLDATASIZE PUSH1 0x3 NOT ADD SLT PUSH2 0x4B6 JUMPI PUSH1 0x4 CALLDATALOAD PUSH1 0x1 PUSH1 0x1 PUSH1 0xA0 SHL SUB DUP2 DUP2 AND SWAP2 DUP3 SWAP1 SUB PUSH2 0x54C JUMPI DUP2 DUP4 MSTORE PUSH2 0x136 PUSH1 0x20 MSTORE PUSH1 0x40 DUP4 KECCAK256 PUSH1 0xFF PUSH1 0x1 PUSH1 0x40 MLOAD SWAP3 PUSH2 0x7C1 PUSH1 0x40 DUP6 PUSH2 0x2955 JUMP JUMPDEST DUP1 SLOAD DUP5 MSTORE ADD SLOAD AND ISZERO DUP1 ISZERO PUSH1 0x20 DUP4 ADD MSTORE PUSH2 0x917 JUMPI MLOAD SWAP1 PUSH1 0x24 CALLDATALOAD SWAP1 DUP1 DUP3 AND DUP1 SWAP3 SUB PUSH2 0x54C JUMPI PUSH2 0x137 SWAP1 PUSH1 0x1 PUSH2 0x7F4 DUP6 DUP5 PUSH2 0x2939 JUMP JUMPDEST POP ADD SLOAD AND DUP3 SUB PUSH2 0x89D JUMPI JUMPDEST DUP5 PUSH32 0x6417E5A3C1E0E5DAE98B8FE718C4BABDFCB35E0D7B5E1B9641B5914756F5D8E3 PUSH1 0x4 DUP6 DUP8 PUSH2 0x850 PUSH2 0x834 DUP4 PUSH2 0x148 PUSH2 0x28F7 JUMP JUMPDEST PUSH1 0x44 SWAP3 SWAP2 SWAP3 CALLDATALOAD SWAP1 DUP4 SLOAD SWAP1 PUSH1 0x3 SHL SWAP2 DUP3 SHL SWAP2 PUSH1 0x0 NOT SWAP1 SHL NOT AND OR SWAP1 JUMP JUMPDEST SWAP1 SSTORE DUP1 DUP6 MSTORE PUSH2 0x144 PUSH1 0x20 MSTORE PUSH1 0x64 CALLDATALOAD PUSH1 0x40 DUP7 KECCAK256 SSTORE DUP5 MSTORE PUSH2 0x145 PUSH1 0x20 MSTORE PUSH1 0x84 CALLDATALOAD PUSH1 0x40 DUP6 KECCAK256 SSTORE PUSH2 0x87F DUP2 PUSH2 0x18E PUSH2 0x2939 JUMP JUMPDEST POP PUSH1 0x1 PUSH1 0xC4 CALLDATALOAD SWAP2 ADD SSTORE PUSH2 0x897 PUSH1 0x40 MLOAD SWAP3 DUP4 SWAP3 DUP4 PUSH2 0x34C0 JUMP JUMPDEST SUB SWAP1 LOG1 DUP1 RETURN JUMPDEST SWAP2 SWAP1 SWAP3 PUSH1 0x40 MLOAD PUSH4 0x59E02DD7 PUSH1 0xE0 SHL DUP2 MSTORE PUSH1 0x40 DUP2 PUSH1 0x4 DUP2 DUP9 GAS STATICCALL SWAP1 DUP2 ISZERO PUSH2 0x95A JUMPI DUP7 SWAP2 PUSH2 0x929 JUMPI JUMPDEST POP ISZERO PUSH2 0x917 JUMPI PUSH32 0x6417E5A3C1E0E5DAE98B8FE718C4BABDFCB35E0D7B5E1B9641B5914756F5D8E3 SWAP4 PUSH1 0x1 PUSH2 0x8FA DUP5 PUSH1 0x4 SWAP7 PUSH2 0x2939 JUMP JUMPDEST POP ADD SWAP1 PUSH1 0x1 PUSH1 0x1 PUSH1 0x60 SHL SUB PUSH1 0xA0 SHL DUP3 SLOAD AND OR SWAP1 SSTORE SWAP3 DUP2 SWAP3 POP PUSH2 0x7FF JUMP JUMPDEST PUSH1 0x40 MLOAD PUSH4 0xE6C4247B PUSH1 0xE0 SHL DUP2 MSTORE PUSH1 0x4 SWAP1 REVERT JUMPDEST PUSH2 0x94B SWAP2 POP PUSH1 0x40 RETURNDATASIZE PUSH1 0x40 GT PUSH2 0x953 JUMPI JUMPDEST PUSH2 0x943 DUP2 DUP4 PUSH2 0x2955 JUMP JUMPDEST DUP2 ADD SWAP1 PUSH2 0x3266 JUMP JUMPDEST SWAP1 POP CODESIZE PUSH2 0x8C4 JUMP JUMPDEST POP RETURNDATASIZE PUSH2 0x939 JUMP JUMPDEST PUSH1 0x40 MLOAD RETURNDATASIZE DUP9 DUP3 RETURNDATACOPY RETURNDATASIZE SWAP1 REVERT JUMPDEST POP DUP1 REVERT JUMPDEST DUP3 CALLVALUE PUSH2 0x4B6 JUMPI DUP1 PUSH1 0x3 NOT CALLDATASIZE ADD SLT PUSH2 0x4B6 JUMPI PUSH2 0x130 SLOAD PUSH1 0x40 MLOAD PUSH1 0x1 PUSH1 0x1 PUSH1 0xA0 SHL SUB SWAP1 SWAP2 AND DUP2 MSTORE PUSH1 0x20 SWAP1 RETURN JUMPDEST DUP3 CALLVALUE PUSH2 0x4B6 JUMPI DUP1 PUSH1 0x3 NOT CALLDATASIZE ADD SLT PUSH2 0x4B6 JUMPI PUSH2 0x152 SLOAD PUSH1 0x40 MLOAD PUSH1 0x1 PUSH1 0x1 PUSH1 0xA0 SHL SUB SWAP1 SWAP2 AND DUP2 MSTORE PUSH1 0x20 SWAP1 RETURN JUMPDEST DUP3 CALLVALUE PUSH2 0x4B6 JUMPI DUP1 PUSH1 0x3 NOT CALLDATASIZE ADD SLT PUSH2 0x4B6 JUMPI PUSH1 0x20 PUSH1 0xFF PUSH2 0x14B SLOAD AND PUSH1 0x40 MLOAD SWAP1 ISZERO ISZERO DUP2 MSTORE RETURN JUMPDEST DUP3 CALLVALUE PUSH2 0x4B6 JUMPI PUSH1 0x20 CALLDATASIZE PUSH1 0x3 NOT ADD SLT PUSH2 0x4B6 JUMPI PUSH1 0x4 CALLDATALOAD SWAP1 PUSH2 0x18E SWAP1 DUP2 SLOAD DUP4 LT ISZERO PUSH2 0x4B6 JUMPI PUSH1 0x40 PUSH2 0xA10 DUP5 DUP5 PUSH2 0x2939 JUMP JUMPDEST POP PUSH1 0x1 DUP2 SLOAD SWAP2 ADD SLOAD DUP3 MLOAD SWAP2 DUP3 MSTORE PUSH1 0x20 DUP3 ADD MSTORE RETURN JUMPDEST DUP3 CALLVALUE PUSH2 0x4B6 JUMPI PUSH1 0x20 CALLDATASIZE PUSH1 0x3 NOT ADD SLT PUSH2 0x4B6 JUMPI PUSH1 0x4 CALLDATALOAD PUSH1 0x1 PUSH1 0x1 PUSH1 0xA0 SHL SUB DUP2 AND SWAP1 DUP2 SWAP1 SUB PUSH2 0x965 JUMPI PUSH2 0xA53 PUSH2 0x3F07 JUMP JUMPDEST PUSH1 0x1 PUSH1 0x1 PUSH1 0x60 SHL SUB PUSH1 0xA0 SHL PUSH1 0x97 SLOAD AND OR PUSH1 0x97 SSTORE DUP1 RETURN JUMPDEST DUP3 PUSH1 0xC0 CALLDATASIZE PUSH1 0x3 NOT ADD SLT PUSH2 0x4B6 JUMPI PUSH1 0x40 MLOAD SWAP1 PUSH2 0xA85 PUSH1 0xC0 DUP4 PUSH2 0x2955 JUMP JUMPDEST PUSH1 0x1 PUSH1 0x1 PUSH1 0xA0 SHL SUB SWAP1 PUSH1 0x4 CALLDATALOAD DUP3 DUP2 AND DUP2 SUB PUSH2 0x54C JUMPI DUP4 MSTORE PUSH1 0x20 DUP4 ADD PUSH1 0x24 CALLDATALOAD DUP2 MSTORE PUSH1 0x40 DUP5 ADD SWAP3 PUSH1 0x44 CALLDATALOAD DUP5 MSTORE PUSH1 0x64 CALLDATALOAD SWAP1 DUP1 DUP3 AND DUP3 SUB PUSH2 0x54C JUMPI PUSH1 0x60 DUP7 ADD SWAP2 DUP3 MSTORE PUSH1 0x84 CALLDATALOAD DUP2 DUP2 AND DUP2 SUB PUSH2 0x54C JUMPI PUSH1 0x80 DUP8 ADD SWAP1 DUP2 MSTORE PUSH1 0xA4 CALLDATALOAD SWAP5 DUP3 DUP7 AND DUP7 SUB PUSH2 0x54C JUMPI PUSH1 0xA0 DUP9 ADD SWAP6 DUP7 MSTORE PUSH2 0xAF2 PUSH2 0x3528 JUMP JUMPDEST POP PUSH2 0xB07 DUP4 PUSH2 0xAFF PUSH2 0x32E2 JUMP JUMPDEST SWAP10 MLOAD AND PUSH2 0x3201 JUMP JUMPDEST SWAP2 PUSH2 0xB21 PUSH2 0xB15 DUP5 DUP12 PUSH2 0x2EC2 JUMP JUMPDEST MLOAD SWAP10 PUSH2 0x5CB DUP12 DUP7 PUSH2 0x36D3 JUMP JUMPDEST SWAP10 PUSH2 0xB38 DUP9 MLOAD SWAP12 PUSH2 0xB32 DUP4 DUP9 PUSH2 0x3D12 JUMP JUMPDEST SWAP4 PUSH2 0x3724 JUMP JUMPDEST SWAP2 PUSH8 0xDE0B6B3A763FFFF NOT DUP2 ADD SWAP1 DUP2 GT PUSH2 0xC4E JUMPI DUP2 PUSH2 0xB5A PUSH2 0xB5F SWAP3 DUP15 PUSH2 0x2FFA JUMP JUMPDEST PUSH2 0x300D JUMP JUMPDEST SWAP9 PUSH8 0xDE0B6B3A7640000 SWAP3 DUP4 DUP12 MUL SWAP1 DUP12 DUP3 DIV DUP6 EQ DUP13 ISZERO OR ISZERO PUSH2 0xC38 JUMPI PUSH2 0xB84 SWAP2 PUSH2 0x300D JUMP JUMPDEST SWAP12 DUP4 DUP2 MUL SWAP4 DUP2 DUP6 DIV EQ SWAP1 ISZERO OR ISZERO PUSH2 0xC38 JUMPI PUSH2 0xBCF SWAP8 DUP8 PUSH2 0xBB2 PUSH2 0xBAB PUSH2 0xBC4 SWAP6 DUP4 SWAP8 PUSH2 0x300D JUMP JUMPDEST DUP1 SWAP14 PUSH2 0x2ED6 JUMP JUMPDEST SWAP9 DUP10 SWAP3 MLOAD AND SWAP3 MLOAD AND PUSH2 0x142 SLOAD SWAP3 PUSH2 0x3753 JUMP JUMPDEST SWAP9 SWAP2 DUP8 SWAP9 SWAP2 SWAP9 PUSH2 0x2ED6 JUMP JUMPDEST SWAP10 MLOAD DUP1 DUP12 GT PUSH2 0xC1A JUMPI POP DUP10 ISZERO PUSH2 0xC08 JUMPI PUSH2 0xBFE PUSH2 0x68C SWAP7 PUSH2 0xBF3 DUP7 PUSH2 0x6CF SWAP13 PUSH2 0x39E0 JUMP JUMPDEST DUP4 DUP6 MLOAD AND SWAP1 DUP14 PUSH2 0x3619 JUMP JUMPDEST MLOAD SWAP2 MLOAD AND SWAP3 PUSH2 0x354F JUMP JUMPDEST PUSH1 0x40 MLOAD PUSH4 0xF3E39B5D PUSH1 0xE0 SHL DUP2 MSTORE PUSH1 0x4 SWAP1 REVERT JUMPDEST PUSH1 0x44 SWAP1 DUP12 PUSH1 0x40 MLOAD SWAP2 PUSH4 0xB63F1A7 PUSH1 0xE0 SHL DUP4 MSTORE PUSH1 0x4 DUP4 ADD MSTORE PUSH1 0x24 DUP3 ADD MSTORE REVERT JUMPDEST PUSH4 0x4E487B71 PUSH1 0xE0 SHL PUSH1 0x0 MSTORE PUSH1 0x11 PUSH1 0x4 MSTORE PUSH1 0x24 PUSH1 0x0 REVERT JUMPDEST PUSH4 0x4E487B71 PUSH1 0xE0 SHL DUP6 MSTORE PUSH1 0x11 PUSH1 0x4 MSTORE PUSH1 0x24 DUP6 REVERT JUMPDEST SWAP1 POP PUSH2 0x100 DUP1 PUSH1 0x3 NOT CALLDATASIZE ADD SLT PUSH2 0xEBA JUMPI PUSH2 0xC7F PUSH1 0x40 MLOAD SWAP2 DUP3 PUSH2 0x2955 JUMP JUMPDEST PUSH1 0x4 CALLDATALOAD PUSH1 0x1 PUSH1 0x1 PUSH1 0xA0 SHL SUB DUP2 AND DUP2 SUB PUSH2 0x54C JUMPI DUP2 MSTORE PUSH1 0x24 CALLDATALOAD PUSH1 0x1 PUSH1 0x1 PUSH1 0xA0 SHL SUB DUP2 AND DUP2 SUB PUSH2 0x54C JUMPI PUSH1 0x20 DUP3 ADD SWAP1 DUP2 MSTORE PUSH1 0x44 CALLDATALOAD PUSH1 0x40 DUP4 ADD MSTORE PUSH1 0x60 DUP3 ADD SWAP4 PUSH1 0x64 CALLDATALOAD DUP6 MSTORE PUSH1 0x80 DUP4 ADD SWAP2 PUSH1 0x84 CALLDATALOAD DUP4 MSTORE PUSH1 0xA4 CALLDATALOAD SWAP5 PUSH1 0x1 DUP1 PUSH1 0xA0 SHL SUB DUP7 AND DUP7 SUB PUSH2 0x54C JUMPI PUSH1 0xA0 DUP6 ADD SWAP6 DUP7 MSTORE PUSH1 0xC4 CALLDATALOAD PUSH1 0x1 PUSH1 0x1 PUSH1 0xA0 SHL SUB DUP2 AND DUP2 SUB PUSH2 0x54C JUMPI PUSH1 0xC0 DUP7 ADD MSTORE PUSH1 0xE4 CALLDATALOAD SWAP1 PUSH1 0x1 PUSH1 0x1 PUSH1 0xA0 SHL SUB DUP3 AND DUP3 SUB PUSH2 0x54C JUMPI DUP6 ADD SWAP1 DUP2 MSTORE PUSH2 0xD1D PUSH2 0x3528 JUMP JUMPDEST POP DUP5 MLOAD DUP3 MLOAD PUSH1 0x1 PUSH1 0x1 PUSH1 0xA0 SHL SUB SWAP1 DUP2 AND SWAP2 AND EQ PUSH2 0xEA8 JUMPI DUP5 MLOAD PUSH2 0xD5C SWAP1 PUSH2 0xD4C SWAP1 PUSH1 0x1 PUSH1 0x1 PUSH1 0xA0 SHL SUB AND PUSH2 0x3201 JUMP JUMPDEST SWAP3 MLOAD PUSH1 0x1 PUSH1 0x1 PUSH1 0xA0 SHL SUB AND PUSH2 0x3201 JUMP JUMPDEST SWAP6 PUSH2 0xD66 DUP4 PUSH2 0x322A JUMP JUMPDEST SWAP1 PUSH2 0xD70 DUP9 PUSH2 0x322A JUMP JUMPDEST PUSH2 0xD7A DUP4 DUP7 PUSH2 0x36D3 JUMP JUMPDEST PUSH2 0xD84 DUP2 DUP11 PUSH2 0x36D3 JUMP JUMPDEST PUSH2 0xD92 DUP4 PUSH1 0x40 DUP11 ADD MLOAD PUSH2 0x3FB6 JUMP JUMPDEST SWAP3 PUSH2 0xDA5 DUP2 PUSH2 0xB5A DUP5 PUSH1 0x40 DUP14 ADD MLOAD PUSH2 0x2FFA JUMP JUMPDEST SWAP11 MLOAD DUP1 DUP13 LT DUP1 ISZERO PUSH2 0xEA0 JUMPI JUMPDEST PUSH2 0xE82 JUMPI POP SWAP1 DUP11 DUP11 PUSH2 0xDF8 SWAP7 SWAP6 SWAP5 SWAP4 PUSH2 0xDD4 PUSH2 0xDCD DUP6 DUP5 PUSH2 0x3D12 JUMP JUMPDEST SWAP2 DUP11 PUSH2 0x3D12 JUMP JUMPDEST LT PUSH2 0xE53 JUMPI JUMPDEST POP POP SWAP1 MLOAD SWAP3 MLOAD PUSH2 0x13E SLOAD SWAP4 PUSH1 0x1 PUSH1 0x1 PUSH1 0xA0 SHL SUB SWAP2 DUP3 AND SWAP3 POP AND PUSH2 0x3753 JUMP JUMPDEST SWAP6 SWAP2 SWAP7 SWAP1 SWAP5 MLOAD DUP1 DUP9 GT PUSH2 0xE34 JUMPI POP SWAP2 PUSH1 0x40 DUP5 SWAP3 PUSH2 0xE2C PUSH2 0x68C SWAP6 PUSH2 0x6CF SWAP10 SWAP9 SWAP8 DUP13 PUSH1 0x1 DUP1 PUSH1 0xA0 SHL SUB PUSH1 0xC0 DUP7 ADD MLOAD AND SWAP3 PUSH2 0x354F JUMP JUMPDEST ADD MLOAD SWAP1 PUSH2 0x3A9A JUMP JUMPDEST PUSH1 0x44 SWAP1 DUP8 MLOAD PUSH1 0x40 MLOAD SWAP2 PUSH4 0xB63F1A7 PUSH1 0xE0 SHL DUP4 MSTORE PUSH1 0x4 DUP4 ADD MSTORE PUSH1 0x24 DUP3 ADD MSTORE REVERT JUMPDEST PUSH2 0xE72 PUSH2 0xE7A SWAP4 PUSH2 0xE62 PUSH2 0x3E73 JUMP JUMPDEST PUSH2 0xE6A PUSH2 0x3DB5 JUMP JUMPDEST DUP2 SWAP4 SWAP2 PUSH2 0x3690 JUMP JUMPDEST SWAP5 SWAP1 SWAP4 PUSH2 0x3B85 JUMP JUMPDEST CODESIZE DUP11 DUP11 PUSH2 0xDDA JUMP JUMPDEST PUSH1 0x44 SWAP1 DUP13 PUSH1 0x40 MLOAD SWAP2 PUSH4 0x272E3F59 PUSH1 0xE2 SHL DUP4 MSTORE PUSH1 0x4 DUP4 ADD MSTORE PUSH1 0x24 DUP3 ADD MSTORE REVERT JUMPDEST POP DUP12 ISZERO PUSH2 0xDB1 JUMP JUMPDEST PUSH1 0x40 MLOAD PUSH4 0x2A9FFAB7 PUSH1 0xE2 SHL DUP2 MSTORE PUSH1 0x4 SWAP1 REVERT JUMPDEST DUP3 DUP1 REVERT JUMPDEST DUP3 CALLVALUE PUSH2 0x4B6 JUMPI PUSH1 0x20 CALLDATASIZE PUSH1 0x3 NOT ADD SLT PUSH2 0x4B6 JUMPI PUSH1 0x4 CALLDATALOAD PUSH1 0x1 PUSH1 0x1 PUSH1 0xA0 SHL SUB DUP2 AND SWAP1 DUP2 SWAP1 SUB PUSH2 0x54C JUMPI DUP2 PUSH1 0x40 SWAP2 PUSH1 0x20 SWAP4 MSTORE PUSH2 0x145 DUP4 MSTORE KECCAK256 SLOAD PUSH1 0x40 MLOAD SWAP1 DUP2 MSTORE RETURN JUMPDEST SWAP1 POP CALLVALUE PUSH2 0x965 JUMPI CALLDATASIZE PUSH1 0x3 NOT ADD SLT PUSH2 0x4B6 JUMPI PUSH1 0x4 CALLDATALOAD PUSH1 0x1 PUSH1 0x1 PUSH1 0xA0 SHL SUB DUP2 DUP2 AND SWAP2 DUP3 SWAP1 SUB PUSH2 0x54C JUMPI PUSH1 0x24 DUP1 CALLDATALOAD DUP3 DUP2 AND DUP1 SWAP2 SUB PUSH2 0x54C JUMPI DUP4 DUP6 MSTORE PUSH2 0x136 SWAP4 PUSH1 0x20 SWAP1 DUP6 DUP3 MSTORE PUSH1 0x1 SWAP3 PUSH1 0xFF DUP5 PUSH1 0x40 DUP11 KECCAK256 ADD SLOAD AND PUSH2 0x1162 JUMPI PUSH2 0x135 SWAP6 DUP7 SLOAD SWAP8 DUP6 PUSH1 0x40 MLOAD PUSH2 0xF65 PUSH1 0x40 DUP3 PUSH2 0x2955 JUMP JUMPDEST DUP11 DUP2 MSTORE DUP7 DUP2 ADD SWAP3 DUP3 DUP5 MSTORE DUP7 DUP14 MSTORE DUP8 MSTORE PUSH1 0x40 DUP13 KECCAK256 SWAP1 MLOAD DUP2 SSTORE ADD SWAP1 MLOAD ISZERO ISZERO PUSH1 0xFF DUP1 NOT DUP4 SLOAD AND SWAP2 AND OR SWAP1 SSTORE DUP7 SLOAD PUSH1 0x1 PUSH1 0x40 SHL SWAP8 DUP9 DUP3 LT ISZERO PUSH2 0x114F JUMPI SWAP1 PUSH2 0xFAC SWAP2 DUP8 DUP3 ADD DUP2 SSTORE PUSH2 0x28F7 JUMP JUMPDEST DUP2 SLOAD SWAP1 PUSH1 0x3 SHL SWAP1 DUP4 DUP7 DUP4 SHL SWAP3 SHL NOT AND OR SWAP1 SSTORE PUSH1 0x40 MLOAD PUSH2 0xFCC PUSH1 0x40 DUP3 PUSH2 0x2955 JUMP JUMPDEST DUP10 DUP2 MSTORE DUP5 DUP2 ADD SWAP3 DUP4 MSTORE PUSH2 0x137 DUP1 SLOAD SWAP1 DUP10 DUP3 LT ISZERO PUSH2 0x113C JUMPI SWAP1 PUSH2 0xFF2 SWAP2 DUP9 DUP3 ADD DUP2 SSTORE PUSH2 0x2939 JUMP JUMPDEST SWAP2 SWAP1 SWAP2 PUSH2 0x1129 JUMPI SWAP1 DUP7 SWAP2 MLOAD DUP2 SSTORE ADD SWAP2 MLOAD AND PUSH1 0x1 PUSH1 0x1 PUSH1 0x60 SHL SUB PUSH1 0xA0 SHL DUP3 SLOAD AND OR SWAP1 SSTORE PUSH2 0x1022 PUSH1 0x44 CALLDATALOAD PUSH2 0x148 PUSH2 0x3116 JUMP JUMPDEST DUP1 DUP8 MSTORE PUSH2 0x144 DUP3 MSTORE PUSH1 0x64 CALLDATALOAD PUSH1 0x40 DUP9 KECCAK256 SSTORE DUP7 MSTORE PUSH2 0x145 DUP2 MSTORE PUSH1 0x84 CALLDATALOAD PUSH1 0x40 DUP8 KECCAK256 SSTORE PUSH1 0x40 MLOAD SWAP1 PUSH2 0x1050 PUSH1 0x40 DUP4 PUSH2 0x2955 JUMP JUMPDEST PUSH1 0xA4 CALLDATALOAD DUP3 MSTORE DUP2 ADD PUSH1 0xC4 CALLDATALOAD DUP2 MSTORE PUSH2 0x18E DUP1 SLOAD SWAP1 DUP7 DUP3 LT ISZERO PUSH2 0x1116 JUMPI SWAP1 PUSH2 0x1079 SWAP2 DUP6 DUP3 ADD DUP2 SSTORE PUSH2 0x2939 JUMP JUMPDEST SWAP3 SWAP1 SWAP3 PUSH2 0x1103 JUMPI SWAP1 DUP4 SWAP2 MLOAD DUP4 SSTORE MLOAD SWAP2 ADD SSTORE PUSH2 0x150 SWAP2 DUP3 SLOAD SWAP4 DUP5 LT ISZERO PUSH2 0x10F1 JUMPI POP DUP3 PUSH32 0x6417E5A3C1E0E5DAE98B8FE718C4BABDFCB35E0D7B5E1B9641B5914756F5D8E3 SWAP5 SWAP3 PUSH2 0x10CC SWAP3 PUSH1 0x4 SWAP6 ADD DUP2 SSTORE PUSH2 0x28F7 JUMP JUMPDEST POP POP PUSH2 0x10E2 PUSH2 0x10DA DUP3 PUSH2 0x322A JUMP JUMPDEST PUSH2 0x151 PUSH2 0x3116 JUMP JUMPDEST PUSH2 0x897 PUSH1 0x40 MLOAD SWAP3 DUP4 SWAP3 DUP4 PUSH2 0x34C0 JUMP JUMPDEST PUSH4 0x4E487B71 PUSH1 0xE0 SHL DUP7 MSTORE PUSH1 0x41 PUSH1 0x4 MSTORE DUP6 REVERT JUMPDEST PUSH4 0x4E487B71 PUSH1 0xE0 SHL DUP9 MSTORE PUSH1 0x4 DUP9 SWAP1 MSTORE DUP5 DUP9 REVERT JUMPDEST PUSH4 0x4E487B71 PUSH1 0xE0 SHL DUP10 MSTORE PUSH1 0x41 PUSH1 0x4 MSTORE DUP6 DUP10 REVERT JUMPDEST PUSH4 0x4E487B71 PUSH1 0xE0 SHL DUP12 MSTORE PUSH1 0x4 DUP12 SWAP1 MSTORE DUP8 DUP12 REVERT JUMPDEST PUSH4 0x4E487B71 PUSH1 0xE0 SHL DUP13 MSTORE PUSH1 0x41 PUSH1 0x4 MSTORE DUP9 DUP13 REVERT JUMPDEST PUSH4 0x4E487B71 PUSH1 0xE0 SHL DUP12 MSTORE PUSH1 0x41 PUSH1 0x4 MSTORE DUP8 DUP12 REVERT JUMPDEST PUSH1 0x40 MLOAD PUSH4 0x3458F6C5 PUSH1 0xE0 SHL DUP2 MSTORE PUSH1 0x4 SWAP1 REVERT JUMPDEST CALLDATASIZE PUSH1 0x3 NOT ADD SLT SWAP1 POP PUSH2 0x4B6 JUMPI PUSH2 0x118B CALLDATASIZE PUSH1 0x4 PUSH2 0x29A9 JUMP JUMPDEST SWAP1 PUSH2 0x1194 PUSH2 0x3528 JUMP JUMPDEST POP PUSH2 0x119D PUSH2 0x3E73 JUMP JUMPDEST PUSH2 0x11A5 PUSH2 0x3DB5 JUMP JUMPDEST SWAP3 SWAP1 PUSH1 0x1 DUP1 PUSH1 0xA0 SHL SUB SWAP3 PUSH2 0x11BB DUP5 DUP5 MLOAD AND PUSH2 0x3201 JUMP JUMPDEST SWAP1 PUSH2 0x11DB PUSH2 0x11C9 DUP4 DUP9 PUSH2 0x2EC2 JUMP JUMPDEST MLOAD SWAP7 PUSH2 0x11D5 DUP9 DUP6 PUSH2 0x36D3 JUMP JUMPDEST DUP5 PUSH2 0x3690 JUMP JUMPDEST PUSH1 0x20 DUP7 SWAP8 SWAP3 SWAP8 ADD SWAP7 DUP8 MLOAD PUSH2 0x11F0 DUP4 DUP4 DUP10 PUSH2 0x3CCA JUMP JUMPDEST DUP2 DUP2 LT PUSH2 0x12DE JUMPI POP POP SWAP1 PUSH2 0x121C SWAP2 DUP9 MLOAD PUSH8 0xDE0B6B3A7640000 SWAP4 DUP5 SWAP2 PUSH2 0x1216 DUP6 DUP6 PUSH2 0x3724 JUMP JUMPDEST SWAP1 PUSH2 0x2FFA JUMP JUMPDEST DIV SWAP7 DUP8 ISZERO PUSH2 0xC08 JUMPI PUSH2 0x1258 SWAP4 PUSH2 0x124F PUSH2 0x1245 DUP14 PUSH2 0x60F DUP15 MLOAD PUSH2 0x1216 DUP9 PUSH2 0x60A DUP12 PUSH2 0x131 SLOAD PUSH2 0x30BF JUMP JUMPDEST PUSH2 0x134 SLOAD SWAP1 PUSH2 0x300D JUMP JUMPDEST DIV SWAP11 DUP12 DUP9 PUSH2 0x3B85 JUMP JUMPDEST PUSH1 0x40 DUP6 ADD MLOAD DUP1 DUP9 LT PUSH2 0x12C0 JUMPI POP PUSH2 0x1281 DUP2 PUSH1 0x80 DUP8 ADD MLOAD AND DUP6 DUP4 PUSH1 0xC0 DUP10 ADD MLOAD AND PUSH2 0x140 SLOAD SWAP3 PUSH2 0x3753 JUMP JUMPDEST SWAP7 SWAP2 SWAP8 SWAP1 SWAP6 PUSH1 0x60 DUP4 ADD MLOAD DUP1 DUP11 GT PUSH2 0x6D3 JUMPI POP SWAP3 PUSH1 0xA0 DUP6 SWAP4 PUSH2 0x12B7 DUP6 DUP14 SWAP6 PUSH2 0x12B1 PUSH2 0x68C SWAP11 PUSH2 0x6CF SWAP15 SWAP14 SWAP13 SWAP11 PUSH2 0x39E0 JUMP JUMPDEST MLOAD PUSH2 0x3B24 JUMP JUMPDEST ADD MLOAD AND SWAP3 PUSH2 0x354F JUMP JUMPDEST PUSH1 0x44 SWAP1 DUP9 PUSH1 0x40 MLOAD SWAP2 PUSH4 0x272E3F59 PUSH1 0xE2 SHL DUP4 MSTORE PUSH1 0x4 DUP4 ADD MSTORE PUSH1 0x24 DUP3 ADD MSTORE REVERT JUMPDEST PUSH1 0x44 SWAP3 POP PUSH1 0x40 MLOAD SWAP2 PUSH4 0xA5DB715D PUSH1 0xE0 SHL DUP4 MSTORE PUSH1 0x4 DUP4 ADD MSTORE PUSH1 0x24 DUP3 ADD MSTORE REVERT JUMPDEST DUP3 CALLVALUE PUSH2 0x4B6 JUMPI PUSH1 0x20 CALLDATASIZE PUSH1 0x3 NOT ADD SLT PUSH2 0x4B6 JUMPI PUSH1 0x4 CALLDATALOAD PUSH1 0x1 PUSH1 0x1 PUSH1 0xA0 SHL SUB DUP2 AND SWAP1 DUP2 SWAP1 SUB PUSH2 0x54C JUMPI PUSH2 0x132B PUSH2 0x3F07 JUMP JUMPDEST PUSH2 0x152 DUP1 SLOAD PUSH1 0x1 PUSH1 0x1 PUSH1 0xA0 SHL SUB NOT AND SWAP1 SWAP2 OR SWAP1 SSTORE DUP1 RETURN JUMPDEST DUP3 CALLVALUE PUSH2 0x4B6 JUMPI DUP1 PUSH1 0x3 NOT CALLDATASIZE ADD SLT PUSH2 0x4B6 JUMPI PUSH1 0x20 PUSH2 0x155 SLOAD PUSH1 0x40 MLOAD SWAP1 DUP2 MSTORE RETURN JUMPDEST DUP3 CALLVALUE PUSH2 0x4B6 JUMPI DUP1 PUSH1 0x3 NOT CALLDATASIZE ADD SLT PUSH2 0x4B6 JUMPI PUSH1 0x20 PUSH2 0x139B PUSH2 0x1381 PUSH1 0x1 PUSH2 0x331C JUMP JUMPDEST PUSH2 0x1395 PUSH2 0x138E DUP3 DUP5 PUSH2 0x302D JUMP JUMPDEST SWAP2 DUP4 PUSH2 0x2F71 JUMP JUMPDEST SWAP2 PUSH2 0x3363 JUMP JUMPDEST PUSH1 0x40 MLOAD SWAP1 DUP2 MSTORE RETURN JUMPDEST DUP3 CALLVALUE PUSH2 0x4B6 JUMPI DUP1 PUSH1 0x3 NOT CALLDATASIZE ADD SLT PUSH2 0x4B6 JUMPI PUSH2 0x13BC PUSH2 0x3E73 JUMP JUMPDEST DUP1 RETURN JUMPDEST DUP3 CALLVALUE PUSH2 0x4B6 JUMPI PUSH1 0x20 CALLDATASIZE PUSH1 0x3 NOT ADD SLT PUSH2 0x4B6 JUMPI PUSH1 0x4 CALLDATALOAD PUSH1 0x1 PUSH1 0x1 PUSH1 0xA0 SHL SUB DUP2 AND SWAP1 DUP2 SWAP1 SUB PUSH2 0x54C JUMPI PUSH2 0x13EE PUSH2 0x3F07 JUMP JUMPDEST PUSH2 0x12F DUP1 SLOAD PUSH1 0x1 PUSH1 0x1 PUSH1 0xA0 SHL SUB NOT AND SWAP1 SWAP2 OR SWAP1 SSTORE DUP1 RETURN JUMPDEST DUP3 CALLVALUE PUSH2 0x4B6 JUMPI PUSH1 0x20 CALLDATASIZE PUSH1 0x3 NOT ADD SLT PUSH2 0x4B6 JUMPI PUSH2 0x141F PUSH2 0x3F07 JUMP JUMPDEST PUSH1 0x4 CALLDATALOAD PUSH2 0x14C SSTORE DUP1 RETURN JUMPDEST DUP3 CALLVALUE PUSH2 0x4B6 JUMPI PUSH1 0x20 CALLDATASIZE PUSH1 0x3 NOT ADD SLT PUSH2 0x4B6 JUMPI PUSH2 0x1443 PUSH2 0x3F07 JUMP JUMPDEST PUSH1 0x4 CALLDATALOAD PUSH2 0x13D SSTORE DUP1 RETURN JUMPDEST DUP3 CALLVALUE PUSH2 0x4B6 JUMPI PUSH1 0x20 CALLDATASIZE PUSH1 0x3 NOT ADD SLT PUSH2 0x4B6 JUMPI PUSH2 0x1467 PUSH2 0x3F07 JUMP JUMPDEST PUSH1 0x4 CALLDATALOAD PUSH2 0x139 SSTORE DUP1 RETURN JUMPDEST DUP3 CALLVALUE PUSH2 0x4B6 JUMPI DUP1 PUSH1 0x3 NOT CALLDATASIZE ADD SLT PUSH2 0x4B6 JUMPI PUSH1 0x20 PUSH1 0xFF PUSH1 0xCA SLOAD AND PUSH1 0x40 MLOAD SWAP1 ISZERO ISZERO DUP2 MSTORE RETURN JUMPDEST DUP3 CALLVALUE PUSH2 0x4B6 JUMPI DUP1 PUSH1 0x3 NOT CALLDATASIZE ADD SLT PUSH2 0x4B6 JUMPI PUSH1 0x20 PUSH2 0x15B SLOAD PUSH1 0x40 MLOAD SWAP1 DUP2 MSTORE RETURN JUMPDEST DUP3 CALLVALUE PUSH2 0x4B6 JUMPI DUP1 PUSH1 0x3 NOT CALLDATASIZE ADD SLT PUSH2 0x4B6 JUMPI PUSH2 0x153 SLOAD PUSH1 0x40 MLOAD PUSH1 0x1 PUSH1 0x1 PUSH1 0xA0 SHL SUB SWAP1 SWAP2 AND DUP2 MSTORE PUSH1 0x20 SWAP1 RETURN JUMPDEST DUP3 CALLVALUE PUSH2 0x4B6 JUMPI DUP1 PUSH1 0x3 NOT CALLDATASIZE ADD SLT PUSH2 0x4B6 JUMPI PUSH1 0x20 PUSH2 0x13D SLOAD PUSH1 0x40 MLOAD SWAP1 DUP2 MSTORE RETURN JUMPDEST DUP3 CALLVALUE PUSH2 0x4B6 JUMPI DUP1 PUSH1 0x3 NOT CALLDATASIZE ADD SLT PUSH2 0x4B6 JUMPI PUSH1 0x20 PUSH2 0x18F SLOAD NUMBER LT ISZERO PUSH1 0x40 MLOAD SWAP1 DUP2 MSTORE RETURN JUMPDEST DUP3 CALLVALUE PUSH2 0x4B6 JUMPI DUP1 PUSH1 0x3 NOT CALLDATASIZE ADD SLT PUSH2 0x4B6 JUMPI PUSH1 0xCA SLOAD PUSH1 0x40 MLOAD PUSH1 0x10 SWAP2 SWAP1 SWAP2 SHR PUSH1 0x1 PUSH1 0x1 PUSH1 0xA0 SHL SUB AND DUP2 MSTORE PUSH1 0x20 SWAP1 RETURN JUMPDEST DUP3 CALLVALUE PUSH2 0x4B6 JUMPI PUSH1 0x20 CALLDATASIZE PUSH1 0x3 NOT ADD SLT PUSH2 0x4B6 JUMPI PUSH1 0x4 CALLDATALOAD PUSH1 0x1 PUSH1 0x1 PUSH1 0xA0 SHL SUB DUP2 AND SWAP1 DUP2 SWAP1 SUB PUSH2 0x54C JUMPI PUSH1 0x40 DUP3 DUP2 SWAP3 DUP2 MSTORE PUSH2 0x136 PUSH1 0x20 MSTORE KECCAK256 PUSH1 0xFF PUSH1 0x1 DUP3 SLOAD SWAP3 ADD SLOAD AND DUP3 MLOAD SWAP2 DUP3 MSTORE ISZERO ISZERO PUSH1 0x20 DUP3 ADD MSTORE RETURN JUMPDEST DUP3 CALLVALUE PUSH2 0x4B6 JUMPI DUP1 PUSH1 0x3 NOT CALLDATASIZE ADD SLT PUSH2 0x4B6 JUMPI PUSH1 0x20 PUSH2 0x15C4 PUSH2 0x15BE PUSH2 0x15B9 PUSH2 0x32E2 JUMP JUMPDEST PUSH2 0x2EE3 JUMP JUMPDEST SWAP1 PUSH2 0x30A1 JUMP JUMPDEST PUSH2 0x14A SLOAD LT ISZERO PUSH1 0x40 MLOAD SWAP1 DUP2 MSTORE RETURN JUMPDEST DUP3 CALLVALUE PUSH2 0x4B6 JUMPI DUP1 PUSH1 0x3 NOT CALLDATASIZE ADD SLT PUSH2 0x4B6 JUMPI PUSH2 0x146 SLOAD PUSH1 0x40 MLOAD PUSH1 0x1 PUSH1 0x1 PUSH1 0xA0 SHL SUB SWAP1 SWAP2 AND DUP2 MSTORE PUSH1 0x20 SWAP1 RETURN JUMPDEST DUP3 CALLVALUE PUSH2 0x4B6 JUMPI DUP1 PUSH1 0x3 NOT CALLDATASIZE ADD SLT PUSH2 0x4B6 JUMPI PUSH2 0x158 SLOAD PUSH1 0x40 MLOAD PUSH1 0x1 PUSH1 0x1 PUSH1 0xA0 SHL SUB SWAP1 SWAP2 AND DUP2 MSTORE PUSH1 0x20 SWAP1 RETURN JUMPDEST DUP3 CALLVALUE PUSH2 0x4B6 JUMPI DUP1 PUSH1 0x3 NOT CALLDATASIZE ADD SLT PUSH2 0x4B6 JUMPI PUSH1 0x20 PUSH2 0x14A SLOAD PUSH1 0x40 MLOAD SWAP1 DUP2 MSTORE RETURN JUMPDEST DUP3 CALLVALUE PUSH2 0x4B6 JUMPI PUSH1 0x20 CALLDATASIZE PUSH1 0x3 NOT ADD SLT PUSH2 0x4B6 JUMPI PUSH1 0x4 CALLDATALOAD PUSH1 0x1 PUSH1 0x1 PUSH1 0xA0 SHL SUB DUP2 AND SWAP1 DUP2 SWAP1 SUB PUSH2 0x54C JUMPI PUSH2 0x1674 PUSH2 0x3F07 JUMP JUMPDEST PUSH2 0x153 DUP1 SLOAD PUSH1 0x1 PUSH1 0x1 PUSH1 0xA0 SHL SUB NOT AND SWAP1 SWAP2 OR SWAP1 SSTORE DUP1 RETURN JUMPDEST DUP3 CALLVALUE PUSH2 0x4B6 JUMPI DUP1 PUSH1 0x3 NOT CALLDATASIZE ADD SLT PUSH2 0x4B6 JUMPI PUSH2 0x16A4 PUSH2 0x3F95 JUMP JUMPDEST PUSH1 0xCA SLOAD PUSH1 0x10 DUP2 SWAP1 SHR PUSH1 0x1 PUSH1 0x1 PUSH1 0xA0 SHL SUB AND CALLER SUB PUSH2 0x1710 JUMPI PUSH1 0xFF DUP2 AND ISZERO PUSH2 0x16FE JUMPI PUSH2 0x100 SWAP1 PUSH2 0xFF00 NOT AND OR PUSH1 0xCA SSTORE PUSH32 0x62E78CEA01BEE320CD4E420270B5EA74000D11B0C9F74754EBDBFC544B05A258 PUSH1 0x20 PUSH1 0x40 MLOAD CALLER DUP2 MSTORE LOG1 DUP1 RETURN JUMPDEST PUSH1 0x40 MLOAD PUSH4 0x866099C3 PUSH1 0xE0 SHL DUP2 MSTORE PUSH1 0x4 SWAP1 REVERT JUMPDEST PUSH1 0x40 MLOAD PUSH4 0x1D77D477 PUSH1 0xE2 SHL DUP2 MSTORE PUSH1 0x4 SWAP1 REVERT JUMPDEST DUP3 CALLVALUE PUSH2 0x4B6 JUMPI DUP1 PUSH1 0x3 NOT CALLDATASIZE ADD SLT PUSH2 0x4B6 JUMPI PUSH1 0x20 PUSH2 0x15A SLOAD PUSH1 0x40 MLOAD SWAP1 DUP2 MSTORE RETURN JUMPDEST DUP3 CALLVALUE PUSH2 0x4B6 JUMPI DUP1 PUSH1 0x3 NOT CALLDATASIZE ADD SLT PUSH2 0x4B6 JUMPI PUSH1 0x20 PUSH2 0x139B PUSH2 0x1761 PUSH1 0x1 PUSH2 0x331C JUMP JUMPDEST PUSH2 0x1395 PUSH2 0x176E DUP3 DUP5 PUSH2 0x2F71 JUMP JUMPDEST SWAP2 DUP4 PUSH2 0x302D JUMP JUMPDEST DUP3 CALLVALUE PUSH2 0x4B6 JUMPI DUP1 PUSH1 0x3 NOT CALLDATASIZE ADD SLT PUSH2 0x4B6 JUMPI PUSH2 0x1C3 SLOAD PUSH1 0x40 MLOAD PUSH1 0x1 PUSH1 0x1 PUSH1 0xA0 SHL SUB SWAP1 SWAP2 AND DUP2 MSTORE PUSH1 0x20 SWAP1 RETURN JUMPDEST DUP3 CALLVALUE PUSH2 0x4B6 JUMPI PUSH1 0x20 CALLDATASIZE PUSH1 0x3 NOT ADD SLT PUSH2 0x4B6 JUMPI PUSH1 0x4 CALLDATALOAD SWAP1 PUSH2 0x148 SWAP1 DUP2 SLOAD DUP4 LT ISZERO PUSH2 0x4B6 JUMPI PUSH1 0x20 PUSH2 0x17CE DUP5 DUP5 PUSH2 0x28F7 JUMP JUMPDEST SWAP1 SLOAD PUSH1 0x40 MLOAD SWAP2 PUSH1 0x3 SHL SHR DUP2 MSTORE RETURN JUMPDEST DUP3 CALLVALUE PUSH2 0x4B6 JUMPI PUSH1 0x20 CALLDATASIZE PUSH1 0x3 NOT ADD SLT PUSH2 0x4B6 JUMPI PUSH2 0x17F6 PUSH2 0x3F07 JUMP JUMPDEST PUSH1 0x4 CALLDATALOAD PUSH2 0x149 SSTORE DUP1 RETURN JUMPDEST CALLDATASIZE PUSH1 0x3 NOT ADD SLT SWAP1 POP PUSH2 0x4B6 JUMPI PUSH2 0x1881 PUSH2 0x181A CALLDATASIZE PUSH1 0x4 PUSH2 0x29A9 JUMP JUMPDEST PUSH2 0x1822 PUSH2 0x3528 JUMP JUMPDEST POP PUSH2 0x182B PUSH2 0x3E73 JUMP JUMPDEST PUSH2 0x1833 PUSH2 0x3DB5 JUMP JUMPDEST DUP3 MLOAD SWAP1 SWAP4 SWAP2 PUSH1 0x1 PUSH1 0x1 PUSH1 0xA0 SHL SUB SWAP2 PUSH2 0x184C SWAP1 DUP4 AND PUSH2 0x3201 JUMP JUMPDEST SWAP1 PUSH2 0x186F PUSH2 0x185A DUP4 DUP9 PUSH2 0x2EC2 JUMP JUMPDEST MLOAD SWAP7 PUSH2 0x1866 DUP9 DUP6 PUSH2 0x36D3 JUMP JUMPDEST PUSH2 0x14A SLOAD PUSH2 0x3690 JUMP JUMPDEST PUSH2 0x187B DUP2 DUP4 SWAP8 SWAP4 PUSH2 0x3724 JUMP JUMPDEST SWAP6 PUSH2 0x30A1 JUMP JUMPDEST PUSH8 0xDE0B6B3A763FFFF NOT SWAP1 DUP1 DUP3 ADD SWAP1 DUP2 GT PUSH2 0x1A06 JUMPI PUSH2 0x18A0 DUP9 DUP6 PUSH2 0x3D12 JUMP JUMPDEST SWAP1 DUP3 DUP3 ADD SWAP2 DUP3 GT PUSH2 0x19DE JUMPI SWAP1 PUSH2 0x18B5 SWAP2 PUSH2 0x2FFA JUMP JUMPDEST SWAP1 DUP3 ADD SWAP2 DUP3 GT PUSH2 0x19F2 JUMPI SWAP1 PUSH2 0x18C9 SWAP2 PUSH2 0x300D JUMP JUMPDEST SWAP2 PUSH1 0x20 DUP6 ADD PUSH2 0x18DD DUP6 PUSH2 0x60F DUP10 DUP5 MLOAD PUSH2 0x2FFA JUMP JUMPDEST SWAP4 PUSH8 0xDE0B6B3A7640000 SWAP5 DUP6 DUP3 MUL SWAP2 DUP1 DUP4 DIV DUP8 EQ SWAP1 ISZERO OR ISZERO PUSH2 0x19DE JUMPI SWAP1 PUSH2 0x1903 SWAP2 PUSH2 0x300D JUMP JUMPDEST SWAP7 PUSH1 0x40 DUP8 ADD MLOAD DUP1 DUP10 GT PUSH2 0x19C0 JUMPI POP DUP2 MLOAD SWAP1 DUP6 DUP10 MUL SWAP1 DUP10 DUP3 DIV DUP8 EQ DUP11 ISZERO OR ISZERO PUSH2 0xC38 JUMPI PUSH2 0x192E SWAP2 PUSH2 0x300D JUMP JUMPDEST SWAP1 DUP2 ISZERO PUSH2 0xC08 JUMPI PUSH2 0x1952 PUSH2 0x1977 SWAP7 PUSH2 0x194B PUSH1 0x60 SWAP10 PUSH2 0x196C SWAP5 PUSH2 0x2FFA JUMP JUMPDEST DIV DUP4 PUSH2 0x2ED6 JUMP JUMPDEST SWAP4 DUP5 DUP2 PUSH1 0x80 DUP12 ADD MLOAD AND SWAP2 PUSH1 0xC0 DUP12 ADD MLOAD AND PUSH2 0x141 SLOAD SWAP3 PUSH2 0x3753 JUMP JUMPDEST SWAP8 SWAP2 DUP6 SWAP8 SWAP2 SWAP8 PUSH2 0x30BF JUMP JUMPDEST SWAP8 ADD MLOAD DUP1 DUP9 LT PUSH2 0x19A2 JUMPI POP SWAP3 PUSH2 0x199D DUP9 SWAP10 SWAP4 PUSH2 0x6CF SWAP9 SWAP10 SWAP4 PUSH2 0x12B1 PUSH1 0x1 PUSH2 0x68C SWAP9 PUSH2 0x39E0 JUMP JUMPDEST PUSH2 0x3A9A JUMP JUMPDEST PUSH1 0x44 SWAP1 DUP9 PUSH1 0x40 MLOAD SWAP2 PUSH4 0x54CDE313 PUSH1 0xE0 SHL DUP4 MSTORE PUSH1 0x4 DUP4 ADD MSTORE PUSH1 0x24 DUP3 ADD MSTORE REVERT JUMPDEST PUSH1 0x44 SWAP1 DUP10 PUSH1 0x40 MLOAD SWAP2 PUSH4 0x7A031DA3 PUSH1 0xE1 SHL DUP4 MSTORE PUSH1 0x4 DUP4 ADD MSTORE PUSH1 0x24 DUP3 ADD MSTORE REVERT JUMPDEST PUSH4 0x4E487B71 PUSH1 0xE0 SHL DUP11 MSTORE PUSH1 0x11 PUSH1 0x4 MSTORE PUSH1 0x24 DUP11 REVERT JUMPDEST PUSH4 0x4E487B71 PUSH1 0xE0 SHL DUP9 MSTORE PUSH1 0x11 PUSH1 0x4 MSTORE PUSH1 0x24 DUP9 REVERT JUMPDEST PUSH4 0x4E487B71 PUSH1 0xE0 SHL DUP10 MSTORE PUSH1 0x11 PUSH1 0x4 MSTORE PUSH1 0x24 DUP10 REVERT JUMPDEST DUP3 CALLVALUE PUSH2 0x4B6 JUMPI PUSH1 0x20 CALLDATASIZE PUSH1 0x3 NOT ADD SLT PUSH2 0x4B6 JUMPI PUSH2 0x1A34 PUSH2 0x3F07 JUMP JUMPDEST PUSH1 0x4 CALLDATALOAD PUSH2 0x140 SSTORE DUP1 RETURN JUMPDEST DUP3 CALLVALUE PUSH2 0x4B6 JUMPI DUP1 PUSH1 0x3 NOT CALLDATASIZE ADD SLT PUSH2 0x4B6 JUMPI PUSH1 0x20 PUSH2 0x190 SLOAD PUSH1 0x40 MLOAD SWAP1 DUP2 MSTORE RETURN JUMPDEST DUP3 CALLVALUE PUSH2 0x4B6 JUMPI PUSH1 0x20 CALLDATASIZE PUSH1 0x3 NOT ADD SLT PUSH2 0x4B6 JUMPI PUSH2 0x1A77 PUSH2 0x3F07 JUMP JUMPDEST PUSH1 0x4 CALLDATALOAD PUSH2 0x141 SSTORE DUP1 RETURN JUMPDEST DUP3 CALLVALUE PUSH2 0x4B6 JUMPI DUP1 PUSH1 0x3 NOT CALLDATASIZE ADD SLT PUSH2 0x4B6 JUMPI PUSH1 0x20 PUSH2 0x134 SLOAD PUSH1 0x40 MLOAD SWAP1 DUP2 MSTORE RETURN JUMPDEST DUP3 CALLVALUE PUSH2 0x4B6 JUMPI DUP1 PUSH1 0x3 NOT CALLDATASIZE ADD SLT PUSH2 0x4B6 JUMPI PUSH1 0x20 PUSH2 0x142 SLOAD PUSH1 0x40 MLOAD SWAP1 DUP2 MSTORE RETURN JUMPDEST DUP3 CALLVALUE PUSH2 0x4B6 JUMPI PUSH1 0x20 CALLDATASIZE PUSH1 0x3 NOT ADD SLT PUSH2 0x4B6 JUMPI PUSH2 0x1AD9 PUSH2 0x3F07 JUMP JUMPDEST PUSH1 0x4 CALLDATALOAD PUSH2 0x13B SSTORE DUP1 RETURN JUMPDEST DUP3 CALLVALUE PUSH2 0x4B6 JUMPI DUP1 PUSH1 0x3 NOT CALLDATASIZE ADD SLT PUSH2 0x4B6 JUMPI PUSH1 0x20 PUSH2 0x156 SLOAD PUSH1 0x40 MLOAD SWAP1 DUP2 MSTORE RETURN JUMPDEST DUP3 CALLVALUE PUSH2 0x4B6 JUMPI DUP1 PUSH1 0x3 NOT CALLDATASIZE ADD SLT PUSH2 0x4B6 JUMPI PUSH1 0x20 PUSH2 0x139 SLOAD PUSH1 0x40 MLOAD SWAP1 DUP2 MSTORE RETURN JUMPDEST DUP3 CALLVALUE PUSH2 0x4B6 JUMPI PUSH1 0x20 CALLDATASIZE PUSH1 0x3 NOT ADD SLT PUSH2 0x4B6 JUMPI PUSH2 0x1B3B PUSH2 0x3F07 JUMP JUMPDEST PUSH1 0x4 CALLDATALOAD PUSH2 0x154 SSTORE DUP1 RETURN JUMPDEST DUP3 CALLVALUE PUSH2 0x4B6 JUMPI PUSH1 0x20 CALLDATASIZE PUSH1 0x3 NOT ADD SLT PUSH2 0x4B6 JUMPI PUSH1 0x4 CALLDATALOAD PUSH1 0x1 PUSH1 0x1 PUSH1 0xA0 SHL SUB DUP2 AND SWAP1 DUP2 SWAP1 SUB PUSH2 0x54C JUMPI PUSH2 0x1B74 PUSH2 0x3F07 JUMP JUMPDEST PUSH2 0x158 DUP1 SLOAD PUSH1 0x1 PUSH1 0x1 PUSH1 0xA0 SHL SUB NOT AND SWAP1 SWAP2 OR SWAP1 SSTORE DUP1 RETURN JUMPDEST DUP3 CALLVALUE PUSH2 0x4B6 JUMPI PUSH1 0x20 CALLDATASIZE PUSH1 0x3 NOT ADD SLT PUSH2 0x4B6 JUMPI PUSH2 0x1BA5 PUSH2 0x3F07 JUMP JUMPDEST PUSH1 0x4 CALLDATALOAD PUSH2 0x13E SSTORE DUP1 RETURN JUMPDEST DUP3 CALLVALUE PUSH2 0x4B6 JUMPI DUP1 PUSH1 0x3 NOT CALLDATASIZE ADD SLT PUSH2 0x4B6 JUMPI PUSH1 0x20 PUSH2 0x154 SLOAD PUSH1 0x40 MLOAD SWAP1 DUP2 MSTORE RETURN JUMPDEST DUP3 CALLVALUE PUSH2 0x4B6 JUMPI DUP1 PUSH1 0x3 NOT CALLDATASIZE ADD SLT PUSH2 0x4B6 JUMPI PUSH1 0x20 PUSH2 0x149 SLOAD PUSH1 0x40 MLOAD SWAP1 DUP2 MSTORE RETURN JUMPDEST DUP3 CALLVALUE PUSH2 0x4B6 JUMPI DUP1 PUSH1 0x3 NOT CALLDATASIZE ADD SLT PUSH2 0x4B6 JUMPI PUSH2 0x1C06 PUSH2 0x3F07 JUMP JUMPDEST PUSH1 0x1 PUSH1 0xFF NOT PUSH1 0xCA SLOAD AND OR PUSH1 0xCA SSTORE DUP1 RETURN JUMPDEST DUP3 CALLVALUE PUSH2 0x4B6 JUMPI DUP1 PUSH1 0x3 NOT CALLDATASIZE ADD SLT PUSH2 0x4B6 JUMPI PUSH1 0x20 PUSH2 0x1C31 PUSH2 0x3DB5 JUMP JUMPDEST POP PUSH1 0x40 MLOAD SWAP1 DUP2 MSTORE RETURN JUMPDEST DUP3 CALLVALUE PUSH2 0x4B6 JUMPI PUSH1 0x20 CALLDATASIZE PUSH1 0x3 NOT ADD SLT PUSH2 0x4B6 JUMPI PUSH2 0x1C54 PUSH2 0x3F07 JUMP JUMPDEST PUSH1 0x4 CALLDATALOAD PUSH2 0x159 SSTORE DUP1 RETURN JUMPDEST DUP3 CALLVALUE PUSH2 0x4B6 JUMPI DUP1 PUSH1 0x3 NOT CALLDATASIZE ADD SLT PUSH2 0x4B6 JUMPI PUSH2 0x12F SLOAD PUSH1 0x40 MLOAD PUSH1 0x1 PUSH1 0x1 PUSH1 0xA0 SHL SUB SWAP1 SWAP2 AND DUP2 MSTORE PUSH1 0x20 SWAP1 RETURN JUMPDEST DUP3 CALLVALUE PUSH2 0x4B6 JUMPI DUP1 PUSH1 0x3 NOT CALLDATASIZE ADD SLT PUSH2 0x4B6 JUMPI PUSH2 0x133 SLOAD PUSH1 0x40 MLOAD PUSH1 0x1 PUSH1 0x1 PUSH1 0xA0 SHL SUB SWAP1 SWAP2 AND DUP2 MSTORE PUSH1 0x20 SWAP1 RETURN JUMPDEST DUP3 CALLVALUE PUSH2 0x4B6 JUMPI DUP1 PUSH1 0x3 NOT CALLDATASIZE ADD SLT PUSH2 0x4B6 JUMPI PUSH1 0x20 PUSH2 0x14E SLOAD PUSH1 0x40 MLOAD SWAP1 DUP2 MSTORE RETURN JUMPDEST DUP3 CALLVALUE PUSH2 0x4B6 JUMPI DUP1 PUSH1 0x3 NOT CALLDATASIZE ADD SLT PUSH2 0x4B6 JUMPI PUSH1 0x20 PUSH1 0xFF PUSH1 0xCA SLOAD PUSH1 0x8 SHR AND PUSH1 0x40 MLOAD SWAP1 ISZERO ISZERO DUP2 MSTORE RETURN JUMPDEST DUP3 CALLVALUE PUSH2 0x4B6 JUMPI DUP1 PUSH1 0x3 NOT CALLDATASIZE ADD SLT PUSH2 0x4B6 JUMPI PUSH1 0x20 PUSH2 0x157 SLOAD PUSH1 0x40 MLOAD SWAP1 DUP2 MSTORE RETURN JUMPDEST DUP3 CALLVALUE PUSH2 0x4B6 JUMPI PUSH1 0x20 CALLDATASIZE PUSH1 0x3 NOT ADD SLT PUSH2 0x4B6 JUMPI PUSH2 0x1D30 PUSH2 0x3F07 JUMP JUMPDEST PUSH1 0x4 CALLDATALOAD PUSH2 0x143 SSTORE DUP1 RETURN JUMPDEST DUP3 CALLVALUE PUSH2 0x4B6 JUMPI DUP1 PUSH1 0x3 NOT CALLDATASIZE ADD SLT PUSH2 0x4B6 JUMPI PUSH32 0x0 PUSH1 0x1 PUSH1 0x1 PUSH1 0xA0 SHL SUB AND ADDRESS SUB PUSH2 0x1DA5 JUMPI PUSH1 0x20 PUSH1 0x40 MLOAD PUSH32 0x360894A13BA1A3210667C828492DB98DCA3E2076CC3735A920A3CA505D382BBC DUP2 MSTORE RETURN JUMPDEST PUSH1 0x40 MLOAD PUSH3 0x461BCD PUSH1 0xE5 SHL DUP2 MSTORE PUSH1 0x20 PUSH1 0x4 DUP3 ADD MSTORE PUSH1 0x38 PUSH1 0x24 DUP3 ADD MSTORE PUSH32 0x555550535570677261646561626C653A206D757374206E6F742062652063616C PUSH1 0x44 DUP3 ADD MSTORE PUSH32 0x6C6564207468726F7567682064656C656761746563616C6C0000000000000000 PUSH1 0x64 DUP3 ADD MSTORE PUSH1 0x84 SWAP1 REVERT JUMPDEST DUP3 CALLVALUE PUSH2 0x4B6 JUMPI DUP1 PUSH1 0x3 NOT CALLDATASIZE ADD SLT PUSH2 0x4B6 JUMPI PUSH2 0x1E29 PUSH2 0x3F07 JUMP JUMPDEST PUSH1 0xFF NOT PUSH1 0xCA SLOAD AND PUSH1 0xCA SSTORE DUP1 RETURN JUMPDEST DUP3 PUSH1 0x40 CALLDATASIZE PUSH1 0x3 NOT ADD SLT PUSH2 0x4B6 JUMPI PUSH1 0x1 PUSH1 0x1 PUSH1 0xA0 SHL SUB PUSH1 0x4 CALLDATALOAD DUP2 DUP2 AND DUP2 SUB PUSH2 0x54C JUMPI DUP3 SWAP2 PUSH1 0x24 CALLDATALOAD SWAP2 PUSH8 0xFFFFFFFFFFFFFFFF DUP4 GT PUSH2 0x1F25 JUMPI CALLDATASIZE PUSH1 0x23 DUP5 ADD SLT ISZERO PUSH2 0x1F25 JUMPI DUP3 PUSH1 0x4 ADD CALLDATALOAD PUSH2 0x1E85 DUP2 PUSH2 0x298D JUMP JUMPDEST SWAP3 PUSH2 0x1E93 PUSH1 0x40 MLOAD SWAP5 DUP6 PUSH2 0x2955 JUMP JUMPDEST DUP2 DUP5 MSTORE CALLDATASIZE PUSH1 0x24 DUP4 DUP8 ADD ADD GT PUSH2 0x1F21 JUMPI PUSH2 0x13BC SWAP6 PUSH1 0x20 DUP4 PUSH2 0x1F14 SWAP5 PUSH1 0x24 PUSH1 0x1 SWAP10 ADD DUP4 DUP10 ADD CALLDATACOPY DUP7 ADD ADD MSTORE DUP1 PUSH32 0x0 AND SWAP1 PUSH2 0x1EEB DUP3 ADDRESS EQ ISZERO PUSH2 0x2A21 JUMP JUMPDEST PUSH32 0x360894A13BA1A3210667C828492DB98DCA3E2076CC3735A920A3CA505D382BBC SLOAD AND EQ PUSH2 0x2A82 JUMP JUMPDEST PUSH2 0x1F1C PUSH2 0x3F07 JUMP JUMPDEST PUSH2 0x2AE3 JUMP JUMPDEST DUP6 DUP1 REVERT JUMPDEST POP POP POP REVERT JUMPDEST DUP3 CALLVALUE PUSH2 0x4B6 JUMPI DUP1 PUSH1 0x3 NOT CALLDATASIZE ADD SLT PUSH2 0x4B6 JUMPI PUSH1 0x20 PUSH2 0x13B SLOAD PUSH1 0x40 MLOAD SWAP1 DUP2 MSTORE RETURN JUMPDEST DUP3 CALLVALUE PUSH2 0x4B6 JUMPI DUP1 PUSH1 0x3 NOT CALLDATASIZE ADD SLT PUSH2 0x4B6 JUMPI PUSH2 0x147 SLOAD PUSH1 0x40 MLOAD PUSH1 0x1 PUSH1 0x1 PUSH1 0xA0 SHL SUB SWAP1 SWAP2 AND DUP2 MSTORE PUSH1 0x20 SWAP1 RETURN JUMPDEST DUP3 CALLVALUE PUSH2 0x4B6 JUMPI DUP1 PUSH1 0x3 NOT CALLDATASIZE ADD SLT PUSH2 0x4B6 JUMPI PUSH1 0x20 PUSH2 0x14C SLOAD PUSH1 0x40 MLOAD SWAP1 DUP2 MSTORE RETURN JUMPDEST DUP3 CALLVALUE PUSH2 0x4B6 JUMPI PUSH1 0x20 CALLDATASIZE PUSH1 0x3 NOT ADD SLT PUSH2 0x4B6 JUMPI PUSH1 0x4 CALLDATALOAD SWAP1 PUSH2 0x137 SWAP1 DUP2 SLOAD DUP4 LT ISZERO PUSH2 0x4B6 JUMPI PUSH1 0x40 PUSH2 0x1FC1 DUP5 DUP5 PUSH2 0x2939 JUMP JUMPDEST POP DUP1 SLOAD PUSH1 0x1 SWAP1 SWAP2 ADD SLOAD DUP3 MLOAD SWAP2 DUP3 MSTORE PUSH1 0x1 PUSH1 0x1 PUSH1 0xA0 SHL SUB AND PUSH1 0x20 DUP3 ADD MSTORE RETURN JUMPDEST DUP3 CALLVALUE PUSH2 0x4B6 JUMPI DUP1 PUSH1 0x3 NOT CALLDATASIZE ADD SLT PUSH2 0x4B6 JUMPI PUSH1 0x20 PUSH2 0x13E SLOAD PUSH1 0x40 MLOAD SWAP1 DUP2 MSTORE RETURN JUMPDEST DUP3 CALLVALUE PUSH2 0x4B6 JUMPI DUP1 PUSH1 0x3 NOT CALLDATASIZE ADD SLT PUSH2 0x4B6 JUMPI PUSH1 0xCA SLOAD PUSH1 0xFF DUP2 PUSH1 0x8 SHR AND ISZERO PUSH2 0x20F7 JUMPI PUSH1 0x1 DUP1 PUSH1 0xA0 SHL SUB DUP1 DUP3 PUSH1 0x10 SHR AND CALLER EQ ISZERO SWAP1 DUP2 PUSH2 0x2078 JUMPI JUMPDEST POP PUSH2 0x1710 JUMPI PUSH1 0xFF DUP2 AND ISZERO PUSH2 0x16FE JUMPI PUSH2 0xFF00 NOT AND PUSH1 0xCA SSTORE PUSH32 0x5DB9EE0A495BF2E6FF9C91A7834C1BA4FDD244A5E8AA4E537BD38AEAE4B073AA PUSH1 0x20 PUSH1 0x40 MLOAD CALLER DUP2 MSTORE LOG1 DUP1 RETURN JUMPDEST PUSH1 0x97 SLOAD PUSH1 0x40 MLOAD PUSH4 0xD994D6D5 PUSH1 0xE0 SHL DUP2 MSTORE CALLER PUSH1 0x4 DUP3 ADD MSTORE SWAP3 POP PUSH1 0x20 SWAP2 DUP4 SWAP2 PUSH1 0x24 SWAP2 DUP4 SWAP2 AND GAS STATICCALL SWAP1 DUP2 ISZERO PUSH2 0x20EC JUMPI DUP4 SWAP2 PUSH2 0x20B3 JUMPI JUMPDEST POP ISZERO DUP4 PUSH2 0x2035 JUMP JUMPDEST SWAP1 POP PUSH1 0x20 DUP2 RETURNDATASIZE DUP3 GT PUSH2 0x20E4 JUMPI JUMPDEST DUP2 PUSH2 0x20CD PUSH1 0x20 SWAP4 DUP4 PUSH2 0x2955 JUMP JUMPDEST DUP2 ADD SUB SLT PUSH2 0xEBA JUMPI PUSH2 0x20DE SWAP1 PUSH2 0x3259 JUMP JUMPDEST DUP4 PUSH2 0x20AB JUMP JUMPDEST RETURNDATASIZE SWAP2 POP PUSH2 0x20C0 JUMP JUMPDEST PUSH1 0x40 MLOAD RETURNDATASIZE DUP6 DUP3 RETURNDATACOPY RETURNDATASIZE SWAP1 REVERT JUMPDEST PUSH1 0x40 MLOAD PUSH4 0x7C7FD079 PUSH1 0xE0 SHL DUP2 MSTORE PUSH1 0x4 SWAP1 REVERT JUMPDEST DUP3 CALLVALUE PUSH2 0x4B6 JUMPI PUSH1 0x20 CALLDATASIZE PUSH1 0x3 NOT ADD SLT PUSH2 0x4B6 JUMPI PUSH1 0x4 CALLDATALOAD PUSH1 0x1 PUSH1 0x1 PUSH1 0xA0 SHL SUB DUP2 AND SWAP1 DUP2 SWAP1 SUB PUSH2 0x965 JUMPI PUSH2 0x2138 PUSH2 0x3F07 JUMP JUMPDEST PUSH2 0x14F DUP1 SLOAD PUSH1 0x1 PUSH1 0x1 PUSH1 0xA0 SHL SUB NOT AND SWAP1 SWAP2 OR SWAP1 SSTORE DUP1 RETURN JUMPDEST DUP3 CALLVALUE PUSH2 0x4B6 JUMPI PUSH1 0x20 CALLDATASIZE PUSH1 0x3 NOT ADD SLT PUSH2 0x4B6 JUMPI PUSH2 0x2169 PUSH2 0x3F07 JUMP JUMPDEST PUSH1 0x4 CALLDATALOAD PUSH2 0x190 SSTORE DUP1 RETURN JUMPDEST DUP3 CALLVALUE PUSH2 0x4B6 JUMPI PUSH1 0x20 CALLDATASIZE PUSH1 0x3 NOT ADD SLT PUSH2 0x4B6 JUMPI PUSH1 0x4 CALLDATALOAD SWAP1 PUSH2 0x138 SWAP1 DUP2 SLOAD DUP4 LT ISZERO PUSH2 0x4B6 JUMPI PUSH1 0x20 PUSH2 0x17CE DUP5 DUP5 PUSH2 0x28F7 JUMP JUMPDEST DUP3 CALLVALUE PUSH2 0x4B6 JUMPI PUSH1 0x20 CALLDATASIZE PUSH1 0x3 NOT ADD SLT PUSH2 0x4B6 JUMPI PUSH1 0x4 CALLDATALOAD PUSH1 0x1 PUSH1 0x1 PUSH1 0xA0 SHL SUB DUP1 DUP3 AND DUP3 SUB PUSH2 0x54C JUMPI PUSH2 0x13BC SWAP2 PUSH2 0x2201 DUP3 DUP6 SWAP4 PUSH32 0x0 AND SWAP1 PUSH2 0x1EEB DUP3 ADDRESS EQ ISZERO PUSH2 0x2A21 JUMP JUMPDEST PUSH2 0x2209 PUSH2 0x3F07 JUMP JUMPDEST PUSH2 0x2212 DUP3 PUSH2 0x298D JUMP JUMPDEST SWAP1 PUSH2 0x2220 PUSH1 0x40 MLOAD SWAP3 DUP4 PUSH2 0x2955 JUMP JUMPDEST DUP3 DUP3 MSTORE PUSH1 0x1F NOT PUSH2 0x222F DUP5 PUSH2 0x298D JUMP JUMPDEST ADD CALLDATASIZE PUSH1 0x20 DUP5 ADD CALLDATACOPY PUSH2 0x2AE3 JUMP JUMPDEST DUP3 CALLVALUE PUSH2 0x4B6 JUMPI DUP1 PUSH1 0x3 NOT CALLDATASIZE ADD SLT PUSH2 0x4B6 JUMPI PUSH2 0x2254 PUSH2 0x3F95 JUMP JUMPDEST PUSH2 0x14B DUP1 SLOAD PUSH1 0xFF DUP2 AND DUP1 PUSH2 0x231E JUMPI JUMPDEST DUP1 PUSH2 0x2304 JUMPI JUMPDEST PUSH2 0x2271 JUMPI DUP3 DUP1 RETURN JUMPDEST PUSH2 0xFF00 NOT AND PUSH2 0x100 OR SWAP1 SSTORE PUSH1 0x40 MLOAD PUSH32 0x8B77276C97A5709F0D6DB52329848A254EB760CE8BE80D281799F633BDB69E83 DUP3 DUP1 LOG1 PUSH2 0x133 SLOAD DUP3 SWAP1 PUSH1 0x1 PUSH1 0x1 PUSH1 0xA0 SHL SUB AND DUP1 EXTCODESIZE ISZERO PUSH2 0x965 JUMPI DUP3 PUSH1 0x4 DUP2 DUP5 DUP1 SWAP5 PUSH4 0x8456CB59 PUSH1 0xE0 SHL DUP4 MSTORE GAS CALL DUP1 ISZERO PUSH2 0x22F7 JUMPI PUSH2 0x22E7 JUMPI JUMPDEST POP POP PUSH2 0x22E1 PUSH2 0x3153 JUMP JUMPDEST DUP2 DUP1 DUP3 DUP1 RETURN JUMPDEST PUSH2 0x22F0 SWAP2 PUSH2 0x2955 JUMP JUMPDEST DUP2 DUP2 PUSH2 0x22D7 JUMP JUMPDEST POP PUSH1 0x40 MLOAD SWAP1 RETURNDATASIZE SWAP1 DUP3 RETURNDATACOPY RETURNDATASIZE SWAP1 REVERT JUMPDEST POP PUSH2 0x2313 PUSH2 0x15BE PUSH2 0x15B9 PUSH2 0x32E2 JUMP JUMPDEST PUSH2 0x14A SLOAD LT ISZERO PUSH2 0x2269 JUMP JUMPDEST POP PUSH1 0xFF DUP2 PUSH1 0x8 SHR AND ISZERO PUSH2 0x2263 JUMP JUMPDEST DUP3 CALLVALUE PUSH2 0x4B6 JUMPI DUP1 PUSH1 0x3 NOT CALLDATASIZE ADD SLT PUSH2 0x4B6 JUMPI PUSH1 0x20 PUSH2 0x13F SLOAD PUSH1 0x40 MLOAD SWAP1 DUP2 MSTORE RETURN JUMPDEST DUP3 CALLVALUE PUSH2 0x4B6 JUMPI DUP1 PUSH1 0x3 NOT CALLDATASIZE ADD SLT PUSH2 0x4B6 JUMPI PUSH1 0x20 PUSH2 0x143 SLOAD PUSH1 0x40 MLOAD SWAP1 DUP2 MSTORE RETURN JUMPDEST DUP3 CALLVALUE PUSH2 0x4B6 JUMPI PUSH1 0x20 CALLDATASIZE PUSH1 0x3 NOT ADD SLT PUSH2 0x4B6 JUMPI PUSH1 0x4 CALLDATALOAD PUSH1 0x1 PUSH1 0x1 PUSH1 0xA0 SHL SUB DUP2 AND DUP2 SUB PUSH2 0x965 JUMPI PUSH2 0x2397 PUSH2 0x3F07 JUMP JUMPDEST PUSH1 0xCA DUP1 SLOAD PUSH3 0x10000 PUSH1 0x1 PUSH1 0xB0 SHL SUB NOT AND PUSH1 0x10 SWAP3 SWAP1 SWAP3 SHL PUSH3 0x10000 PUSH1 0x1 PUSH1 0xB0 SHL SUB AND SWAP2 SWAP1 SWAP2 OR SWAP1 SSTORE DUP1 RETURN JUMPDEST DUP3 CALLVALUE PUSH2 0x4B6 JUMPI PUSH1 0x20 CALLDATASIZE PUSH1 0x3 NOT ADD SLT PUSH2 0x4B6 JUMPI PUSH2 0x23DB PUSH2 0x3F07 JUMP JUMPDEST PUSH1 0x4 CALLDATALOAD PUSH2 0x14A SSTORE DUP1 RETURN JUMPDEST DUP3 CALLVALUE PUSH2 0x4B6 JUMPI PUSH1 0x80 CALLDATASIZE PUSH1 0x3 NOT ADD SLT PUSH2 0x4B6 JUMPI PUSH1 0x4 CALLDATALOAD PUSH1 0x1 PUSH1 0x1 PUSH1 0xA0 SHL SUB DUP2 DUP2 AND SWAP3 SWAP1 DUP4 DUP4 SUB PUSH2 0x965 JUMPI PUSH1 0x24 CALLDATALOAD DUP2 DUP2 AND SWAP2 DUP3 DUP3 SUB PUSH2 0x255F JUMPI PUSH1 0x44 CALLDATALOAD DUP2 DUP2 AND DUP1 SWAP2 SUB PUSH2 0x25DB JUMPI PUSH1 0x64 CALLDATALOAD SWAP6 PUSH1 0xFF PUSH2 0x14B SLOAD PUSH1 0x8 SHR AND ISZERO PUSH2 0x25C9 JUMPI PUSH2 0x2445 SWAP1 PUSH2 0x3201 JUMP JUMPDEST SWAP1 PUSH2 0x2452 DUP3 PUSH2 0x135 PUSH2 0x28F7 JUMP JUMPDEST SWAP6 SWAP1 SLOAD SWAP9 PUSH1 0x40 MLOAD SWAP7 PUSH4 0x70A08231 PUSH1 0xE0 SHL DUP9 MSTORE DUP3 PUSH1 0x4 DUP10 ADD MSTORE DUP8 PUSH1 0x24 DUP2 DUP9 PUSH1 0x20 SWAP15 DUP16 SWAP6 PUSH1 0x3 SHL SHR AND GAS STATICCALL SWAP7 DUP8 ISZERO PUSH2 0x25BE JUMPI DUP9 SWAP8 PUSH2 0x258B JUMPI JUMPDEST POP DUP7 ISZERO PUSH2 0x256D JUMPI PUSH2 0x24AC PUSH2 0x249F DUP6 PUSH2 0x138 PUSH2 0x28F7 JUMP JUMPDEST SWAP1 SLOAD SWAP1 PUSH1 0x3 SHL SHR DUP9 PUSH2 0x3FB6 JUMP JUMPDEST SWAP9 DUP10 DUP2 LT PUSH2 0x2563 JUMPI JUMPDEST POP SWAP1 PUSH2 0x24F4 SWAP4 SWAP3 SWAP2 PUSH32 0xFAAB3901CD2D6E9B5D0A0C6E34C643B8C844726F3C54DE69517E571BF24BBD92 PUSH1 0x40 DUP13 DUP13 DUP3 MLOAD SWAP2 DUP13 DUP4 MSTORE DUP3 ADD MSTORE LOG4 PUSH2 0x135 PUSH2 0x28F7 JUMP JUMPDEST SWAP1 SLOAD SWAP1 PUSH1 0x3 SHL SHR AND SWAP1 DUP2 EXTCODESIZE ISZERO PUSH2 0x255F JUMPI PUSH1 0x40 MLOAD PUSH4 0x2770A7EB PUSH1 0xE2 SHL DUP2 MSTORE PUSH1 0x1 PUSH1 0x1 PUSH1 0xA0 SHL SUB SWAP2 SWAP1 SWAP2 AND PUSH1 0x4 DUP3 ADD MSTORE PUSH1 0x24 DUP2 ADD SWAP3 SWAP1 SWAP3 MSTORE SWAP1 SWAP2 SWAP1 DUP2 SWAP1 DUP4 SWAP1 PUSH1 0x44 SWAP1 DUP3 SWAP1 DUP5 SWAP1 GAS CALL DUP1 ISZERO PUSH2 0x22F7 JUMPI PUSH2 0x254F JUMPI JUMPDEST POP POP PUSH1 0x40 MLOAD SWAP1 DUP2 MSTORE RETURN JUMPDEST PUSH2 0x2558 SWAP2 PUSH2 0x2955 JUMP JUMPDEST DUP3 DUP1 PUSH2 0x2545 JUMP JUMPDEST DUP4 DUP1 REVERT JUMPDEST SWAP9 POP PUSH2 0x24F4 PUSH2 0x24B5 JUMP JUMPDEST PUSH1 0x44 DUP8 PUSH1 0x40 MLOAD SWAP1 PUSH4 0x3FE8C5EB PUSH1 0xE0 SHL DUP3 MSTORE DUP1 PUSH1 0x4 DUP4 ADD MSTORE PUSH1 0x24 DUP3 ADD MSTORE REVERT JUMPDEST SWAP1 SWAP7 POP DUP10 DUP2 DUP2 RETURNDATASIZE DUP4 GT PUSH2 0x25B7 JUMPI JUMPDEST PUSH2 0x25A3 DUP2 DUP4 PUSH2 0x2955 JUMP JUMPDEST DUP2 ADD SUB SLT PUSH2 0x25B3 JUMPI MLOAD SWAP6 DUP11 PUSH2 0x2489 JUMP JUMPDEST DUP8 DUP1 REVERT JUMPDEST POP RETURNDATASIZE PUSH2 0x2599 JUMP JUMPDEST PUSH1 0x40 MLOAD RETURNDATASIZE DUP11 DUP3 RETURNDATACOPY RETURNDATASIZE SWAP1 REVERT JUMPDEST PUSH1 0x40 MLOAD PUSH4 0x31B0D35 PUSH1 0xE1 SHL DUP2 MSTORE PUSH1 0x4 SWAP1 REVERT JUMPDEST DUP5 DUP1 REVERT JUMPDEST DUP3 CALLVALUE PUSH2 0x4B6 JUMPI DUP1 PUSH1 0x3 NOT CALLDATASIZE ADD SLT PUSH2 0x4B6 JUMPI PUSH1 0x20 PUSH2 0x140 SLOAD PUSH1 0x40 MLOAD SWAP1 DUP2 MSTORE RETURN JUMPDEST DUP3 CALLVALUE PUSH2 0x4B6 JUMPI PUSH1 0x20 CALLDATASIZE PUSH1 0x3 NOT ADD SLT PUSH2 0x4B6 JUMPI PUSH1 0x4 CALLDATALOAD PUSH1 0x1 PUSH1 0x1 PUSH1 0xA0 SHL SUB DUP2 AND SWAP1 DUP2 SWAP1 SUB PUSH2 0x965 JUMPI PUSH2 0x262D PUSH2 0x3F07 JUMP JUMPDEST PUSH2 0x147 DUP1 SLOAD PUSH1 0x1 PUSH1 0x1 PUSH1 0xA0 SHL SUB NOT AND SWAP1 SWAP2 OR SWAP1 SSTORE DUP1 RETURN JUMPDEST DUP3 CALLVALUE PUSH2 0x4B6 JUMPI PUSH1 0x20 CALLDATASIZE PUSH1 0x3 NOT ADD SLT PUSH2 0x4B6 JUMPI PUSH1 0x4 CALLDATALOAD PUSH1 0x1 PUSH1 0x1 PUSH1 0xA0 SHL SUB DUP2 AND SWAP1 DUP2 SWAP1 SUB PUSH2 0x965 JUMPI DUP2 PUSH1 0x40 SWAP2 PUSH1 0x20 SWAP4 MSTORE PUSH2 0x144 DUP4 MSTORE KECCAK256 SLOAD PUSH1 0x40 MLOAD SWAP1 DUP2 MSTORE RETURN JUMPDEST DUP3 CALLVALUE PUSH2 0x4B6 JUMPI DUP1 PUSH1 0x3 NOT CALLDATASIZE ADD SLT PUSH2 0x4B6 JUMPI PUSH1 0x20 PUSH1 0xFF PUSH2 0x14B SLOAD PUSH1 0x8 SHR AND PUSH1 0x40 MLOAD SWAP1 ISZERO ISZERO DUP2 MSTORE RETURN JUMPDEST DUP3 CALLVALUE PUSH2 0x4B6 JUMPI PUSH1 0x20 CALLDATASIZE PUSH1 0x3 NOT ADD SLT PUSH2 0x4B6 JUMPI PUSH2 0x26C3 PUSH2 0x3F07 JUMP JUMPDEST PUSH1 0x4 CALLDATALOAD PUSH2 0x142 SSTORE DUP1 RETURN JUMPDEST DUP3 CALLVALUE PUSH2 0x4B6 JUMPI PUSH1 0x20 CALLDATASIZE PUSH1 0x3 NOT ADD SLT PUSH2 0x4B6 JUMPI PUSH1 0x4 CALLDATALOAD DUP1 ISZERO ISZERO DUP1 SWAP2 SUB PUSH2 0x965 JUMPI PUSH2 0x26F4 PUSH2 0x3F07 JUMP JUMPDEST PUSH2 0x14B SWAP1 PUSH1 0xFF DUP1 NOT DUP4 SLOAD AND SWAP2 AND OR SWAP1 SSTORE DUP1 RETURN JUMPDEST DUP3 CALLVALUE PUSH2 0x4B6 JUMPI DUP1 PUSH1 0x3 NOT CALLDATASIZE ADD SLT PUSH2 0x4B6 JUMPI PUSH1 0x20 PUSH2 0x14D SLOAD PUSH1 0x40 MLOAD SWAP1 DUP2 MSTORE RETURN JUMPDEST DUP3 CALLVALUE PUSH2 0x4B6 JUMPI DUP1 PUSH1 0x3 NOT CALLDATASIZE ADD SLT PUSH2 0x4B6 JUMPI PUSH2 0x14F SLOAD PUSH1 0x40 MLOAD PUSH1 0x1 PUSH1 0x1 PUSH1 0xA0 SHL SUB SWAP1 SWAP2 AND DUP2 MSTORE PUSH1 0x20 SWAP1 RETURN JUMPDEST DUP3 CALLVALUE PUSH2 0x4B6 JUMPI PUSH1 0x20 CALLDATASIZE PUSH1 0x3 NOT ADD SLT PUSH2 0x4B6 JUMPI PUSH1 0x4 CALLDATALOAD PUSH1 0x1 PUSH1 0x1 PUSH1 0xA0 SHL SUB DUP2 AND SWAP1 DUP2 SWAP1 SUB PUSH2 0x965 JUMPI PUSH2 0x277F PUSH2 0x3F07 JUMP JUMPDEST PUSH2 0x130 DUP1 SLOAD PUSH1 0x1 PUSH1 0x1 PUSH1 0xA0 SHL SUB NOT AND SWAP1 SWAP2 OR SWAP1 SSTORE DUP1 RETURN JUMPDEST DUP3 CALLVALUE PUSH2 0x4B6 JUMPI PUSH1 0x20 CALLDATASIZE PUSH1 0x3 NOT ADD SLT PUSH2 0x4B6 JUMPI PUSH2 0x27B0 PUSH2 0x3F07 JUMP JUMPDEST PUSH1 0x4 CALLDATALOAD PUSH2 0x13F SSTORE DUP1 RETURN JUMPDEST DUP3 CALLVALUE PUSH2 0x4B6 JUMPI DUP1 PUSH1 0x3 NOT CALLDATASIZE ADD SLT PUSH2 0x4B6 JUMPI PUSH1 0x20 PUSH2 0x159 SLOAD PUSH1 0x40 MLOAD SWAP1 DUP2 MSTORE RETURN JUMPDEST DUP3 CALLVALUE PUSH2 0x4B6 JUMPI PUSH1 0x20 CALLDATASIZE PUSH1 0x3 NOT ADD SLT PUSH2 0x4B6 JUMPI PUSH1 0x4 CALLDATALOAD PUSH1 0x1 PUSH1 0x1 PUSH1 0xA0 SHL SUB DUP2 AND SWAP1 DUP2 SWAP1 SUB PUSH2 0x965 JUMPI PUSH2 0x2808 PUSH2 0x3F07 JUMP JUMPDEST PUSH2 0x146 DUP1 SLOAD PUSH1 0x1 PUSH1 0x1 PUSH1 0xA0 SHL SUB NOT AND SWAP1 SWAP2 OR SWAP1 SSTORE DUP1 RETURN JUMPDEST DUP3 CALLVALUE PUSH2 0x4B6 JUMPI DUP1 PUSH1 0x3 NOT CALLDATASIZE ADD SLT PUSH2 0x4B6 JUMPI PUSH1 0x20 PUSH2 0x18F SLOAD PUSH1 0x40 MLOAD SWAP1 DUP2 MSTORE RETURN JUMPDEST DUP3 CALLVALUE PUSH2 0x4B6 JUMPI DUP1 PUSH1 0x3 NOT CALLDATASIZE ADD SLT PUSH2 0x4B6 JUMPI PUSH1 0x97 SLOAD PUSH1 0x40 MLOAD PUSH1 0x1 PUSH1 0x1 PUSH1 0xA0 SHL SUB SWAP1 SWAP2 AND DUP2 MSTORE PUSH1 0x20 SWAP1 RETURN JUMPDEST DUP3 CALLVALUE PUSH2 0x4B6 JUMPI PUSH1 0x20 CALLDATASIZE PUSH1 0x3 NOT ADD SLT PUSH2 0x4B6 JUMPI PUSH2 0x2881 PUSH2 0x3F07 JUMP JUMPDEST PUSH1 0x4 CALLDATALOAD PUSH2 0x15A SSTORE DUP1 RETURN JUMPDEST DUP3 CALLVALUE PUSH2 0x4B6 JUMPI PUSH1 0x20 CALLDATASIZE PUSH1 0x3 NOT ADD SLT PUSH2 0x4B6 JUMPI PUSH1 0x4 CALLDATALOAD SWAP1 PUSH2 0x135 SWAP1 DUP2 SLOAD DUP4 LT ISZERO PUSH2 0x4B6 JUMPI PUSH1 0x20 PUSH2 0x28BA DUP5 DUP5 PUSH2 0x28F7 JUMP JUMPDEST SWAP1 SLOAD PUSH1 0x40 MLOAD PUSH1 0x3 SWAP3 SWAP1 SWAP3 SHL SHR PUSH1 0x1 PUSH1 0x1 PUSH1 0xA0 SHL SUB AND DUP2 MSTORE RETURN JUMPDEST DUP3 CALLVALUE PUSH2 0x4B6 JUMPI PUSH1 0x20 CALLDATASIZE PUSH1 0x3 NOT ADD SLT PUSH2 0x4B6 JUMPI PUSH2 0x28ED PUSH2 0x3F07 JUMP JUMPDEST PUSH1 0x4 CALLDATALOAD PUSH2 0x13A SSTORE DUP1 RETURN JUMPDEST DUP1 SLOAD DUP3 LT ISZERO PUSH2 0x290F JUMPI PUSH1 0x0 MSTORE PUSH1 0x20 PUSH1 0x0 KECCAK256 ADD SWAP1 PUSH1 0x0 SWAP1 JUMP JUMPDEST PUSH4 0x4E487B71 PUSH1 0xE0 SHL PUSH1 0x0 MSTORE PUSH1 0x32 PUSH1 0x4 MSTORE PUSH1 0x24 PUSH1 0x0 REVERT JUMPDEST CALLDATALOAD SWAP1 PUSH1 0x1 PUSH1 0x1 PUSH1 0xA0 SHL SUB DUP3 AND DUP3 SUB PUSH2 0x54C JUMPI JUMP JUMPDEST DUP1 SLOAD DUP3 LT ISZERO PUSH2 0x290F JUMPI PUSH1 0x0 MSTORE PUSH1 0x20 PUSH1 0x0 KECCAK256 SWAP1 PUSH1 0x1 SHL ADD SWAP1 PUSH1 0x0 SWAP1 JUMP JUMPDEST SWAP1 PUSH1 0x1F DUP1 NOT SWAP2 ADD AND DUP2 ADD SWAP1 DUP2 LT PUSH8 0xFFFFFFFFFFFFFFFF DUP3 GT OR PUSH2 0x2977 JUMPI PUSH1 0x40 MSTORE JUMP JUMPDEST PUSH4 0x4E487B71 PUSH1 0xE0 SHL PUSH1 0x0 MSTORE PUSH1 0x41 PUSH1 0x4 MSTORE PUSH1 0x24 PUSH1 0x0 REVERT JUMPDEST PUSH8 0xFFFFFFFFFFFFFFFF DUP2 GT PUSH2 0x2977 JUMPI PUSH1 0x1F ADD PUSH1 0x1F NOT AND PUSH1 0x20 ADD SWAP1 JUMP JUMPDEST SWAP2 SWAP1 DUP3 PUSH1 0xE0 SWAP2 SUB SLT PUSH2 0x54C JUMPI PUSH1 0x40 MLOAD PUSH2 0x29C3 PUSH1 0xE0 DUP3 PUSH2 0x2955 JUMP JUMPDEST PUSH1 0xC0 PUSH2 0x2A1C DUP2 DUP4 SWAP6 PUSH2 0x29D4 DUP2 PUSH2 0x2925 JUMP JUMPDEST DUP6 MSTORE PUSH1 0x20 DUP2 ADD CALLDATALOAD PUSH1 0x20 DUP7 ADD MSTORE PUSH1 0x40 DUP2 ADD CALLDATALOAD PUSH1 0x40 DUP7 ADD MSTORE PUSH1 0x60 DUP2 ADD CALLDATALOAD PUSH1 0x60 DUP7 ADD MSTORE PUSH2 0x2A00 PUSH1 0x80 DUP3 ADD PUSH2 0x2925 JUMP JUMPDEST PUSH1 0x80 DUP7 ADD MSTORE PUSH2 0x2A11 PUSH1 0xA0 DUP3 ADD PUSH2 0x2925 JUMP JUMPDEST PUSH1 0xA0 DUP7 ADD MSTORE ADD PUSH2 0x2925 JUMP JUMPDEST SWAP2 ADD MSTORE JUMP JUMPDEST ISZERO PUSH2 0x2A28 JUMPI JUMP JUMPDEST PUSH1 0x40 MLOAD PUSH3 0x461BCD PUSH1 0xE5 SHL DUP2 MSTORE PUSH1 0x20 PUSH1 0x4 DUP3 ADD MSTORE PUSH1 0x2C PUSH1 0x24 DUP3 ADD MSTORE PUSH32 0x46756E6374696F6E206D7573742062652063616C6C6564207468726F75676820 PUSH1 0x44 DUP3 ADD MSTORE PUSH12 0x19195B1959D85D1958D85B1B PUSH1 0xA2 SHL PUSH1 0x64 DUP3 ADD MSTORE PUSH1 0x84 SWAP1 REVERT JUMPDEST ISZERO PUSH2 0x2A89 JUMPI JUMP JUMPDEST PUSH1 0x40 MLOAD PUSH3 0x461BCD PUSH1 0xE5 SHL DUP2 MSTORE PUSH1 0x20 PUSH1 0x4 DUP3 ADD MSTORE PUSH1 0x2C PUSH1 0x24 DUP3 ADD MSTORE PUSH32 0x46756E6374696F6E206D7573742062652063616C6C6564207468726F75676820 PUSH1 0x44 DUP3 ADD MSTORE PUSH12 0x6163746976652070726F7879 PUSH1 0xA0 SHL PUSH1 0x64 DUP3 ADD MSTORE PUSH1 0x84 SWAP1 REVERT JUMPDEST SWAP1 SWAP2 PUSH1 0xFF PUSH32 0x4910FDFA16FED3260ED0E7147F7CC6DA11A60208B5B9406D12A635614FFD9143 SLOAD AND PUSH1 0x0 EQ PUSH2 0x2B1E JUMPI POP PUSH2 0x2B1C SWAP2 POP PUSH2 0x2D4C JUMP JUMPDEST JUMP JUMPDEST PUSH1 0x40 DUP1 MLOAD PUSH4 0x52D1902D PUSH1 0xE0 SHL DUP2 MSTORE PUSH1 0x20 SWAP5 SWAP2 SWAP4 SWAP3 SWAP1 PUSH1 0x1 PUSH1 0x1 PUSH1 0xA0 SHL SUB DUP5 AND SWAP1 DUP7 DUP2 PUSH1 0x4 DUP2 DUP6 GAS STATICCALL PUSH1 0x0 SWAP2 DUP2 PUSH2 0x2D1D JUMPI JUMPDEST POP PUSH2 0x2BAF JUMPI DUP6 MLOAD PUSH3 0x461BCD PUSH1 0xE5 SHL DUP2 MSTORE PUSH1 0x4 DUP2 ADD DUP9 SWAP1 MSTORE PUSH1 0x2E PUSH1 0x24 DUP3 ADD MSTORE PUSH32 0x45524331393637557067726164653A206E657720696D706C656D656E74617469 PUSH1 0x44 DUP3 ADD MSTORE PUSH14 0x6F6E206973206E6F742055555053 PUSH1 0x90 SHL PUSH1 0x64 DUP3 ADD MSTORE PUSH1 0x84 SWAP1 REVERT JUMPDEST SWAP4 SWAP6 SWAP3 SWAP5 SWAP3 SWAP4 PUSH32 0xC9F76B5EC45E5CDEF99837D7B6D2467235C1DF8933C8CA56DF5C35AFA2C7D444 ADD PUSH2 0x2CC7 JUMPI PUSH2 0x2BE4 DUP7 PUSH2 0x2D4C JUMP JUMPDEST PUSH32 0xBC7CD75A20EE27FD9ADEBAB32041F755214DBC6BFFA90CC0225B39DA2E5C2D3B PUSH1 0x0 DUP1 LOG2 DUP4 MLOAD ISZERO SWAP1 DUP2 ISZERO SWAP2 PUSH2 0x2CBF JUMPI JUMPDEST POP PUSH2 0x2C21 JUMPI JUMPDEST POP POP POP POP JUMP JUMPDEST PUSH2 0x2CAB SWAP4 PUSH1 0x0 DUP1 PUSH2 0x2C32 PUSH1 0x27 PUSH2 0x298D JUMP JUMPDEST SWAP6 PUSH2 0x2C3F DUP6 MLOAD SWAP8 DUP9 PUSH2 0x2955 JUMP JUMPDEST PUSH1 0x27 DUP8 MSTORE PUSH32 0x416464726573733A206C6F772D6C6576656C2064656C65676174652063616C6C DUP7 DUP9 ADD MSTORE PUSH7 0x819985A5B1959 PUSH1 0xCA SHL DUP6 DUP9 ADD MSTORE DUP6 DUP2 MLOAD SWAP2 ADD DUP5 GAS DELEGATECALL SWAP2 RETURNDATASIZE ISZERO PUSH2 0x2CB5 JUMPI RETURNDATASIZE PUSH2 0x2C9C PUSH2 0x2C93 DUP3 PUSH2 0x298D JUMP JUMPDEST SWAP3 MLOAD SWAP3 DUP4 PUSH2 0x2955 JUMP JUMPDEST DUP2 MSTORE PUSH1 0x0 DUP2 SWAP5 RETURNDATASIZE SWAP3 ADD RETURNDATACOPY PUSH2 0x2DEE JUMP JUMPDEST POP CODESIZE DUP1 DUP1 DUP1 PUSH2 0x2C1B JUMP JUMPDEST POP PUSH1 0x60 SWAP3 POP PUSH2 0x2DEE JUMP JUMPDEST SWAP1 POP CODESIZE PUSH2 0x2C15 JUMP JUMPDEST DUP3 MLOAD PUSH3 0x461BCD PUSH1 0xE5 SHL DUP2 MSTORE PUSH1 0x4 DUP2 ADD DUP6 SWAP1 MSTORE PUSH1 0x29 PUSH1 0x24 DUP3 ADD MSTORE PUSH32 0x45524331393637557067726164653A20756E737570706F727465642070726F78 PUSH1 0x44 DUP3 ADD MSTORE PUSH9 0x1A58589B1955555251 PUSH1 0xBA SHL PUSH1 0x64 DUP3 ADD MSTORE PUSH1 0x84 SWAP1 REVERT JUMPDEST SWAP1 SWAP2 DUP9 DUP3 DUP2 RETURNDATASIZE DUP4 GT PUSH2 0x2D45 JUMPI JUMPDEST PUSH2 0x2D34 DUP2 DUP4 PUSH2 0x2955 JUMP JUMPDEST DUP2 ADD SUB SLT PUSH2 0x4B6 JUMPI POP MLOAD SWAP1 CODESIZE PUSH2 0x2B4F JUMP JUMPDEST POP RETURNDATASIZE PUSH2 0x2D2A JUMP JUMPDEST DUP1 EXTCODESIZE ISZERO PUSH2 0x2D93 JUMPI PUSH32 0x360894A13BA1A3210667C828492DB98DCA3E2076CC3735A920A3CA505D382BBC DUP1 SLOAD PUSH1 0x1 PUSH1 0x1 PUSH1 0xA0 SHL SUB NOT AND PUSH1 0x1 PUSH1 0x1 PUSH1 0xA0 SHL SUB SWAP1 SWAP3 AND SWAP2 SWAP1 SWAP2 OR SWAP1 SSTORE JUMP JUMPDEST PUSH1 0x40 MLOAD PUSH3 0x461BCD PUSH1 0xE5 SHL DUP2 MSTORE PUSH1 0x20 PUSH1 0x4 DUP3 ADD MSTORE PUSH1 0x2D PUSH1 0x24 DUP3 ADD MSTORE PUSH32 0x455243313936373A206E657720696D706C656D656E746174696F6E206973206E PUSH1 0x44 DUP3 ADD MSTORE PUSH13 0x1BDD08184818DBDB9D1C9858DD PUSH1 0x9A SHL PUSH1 0x64 DUP3 ADD MSTORE PUSH1 0x84 SWAP1 REVERT JUMPDEST SWAP2 SWAP3 SWAP1 ISZERO PUSH2 0x2E50 JUMPI POP DUP2 MLOAD ISZERO PUSH2 0x2E02 JUMPI POP SWAP1 JUMP JUMPDEST EXTCODESIZE ISZERO PUSH2 0x2E0B JUMPI SWAP1 JUMP JUMPDEST PUSH1 0x40 MLOAD PUSH3 0x461BCD PUSH1 0xE5 SHL DUP2 MSTORE PUSH1 0x20 PUSH1 0x4 DUP3 ADD MSTORE PUSH1 0x1D PUSH1 0x24 DUP3 ADD MSTORE PUSH32 0x416464726573733A2063616C6C20746F206E6F6E2D636F6E7472616374000000 PUSH1 0x44 DUP3 ADD MSTORE PUSH1 0x64 SWAP1 REVERT JUMPDEST DUP3 MLOAD SWAP1 SWAP2 POP ISZERO PUSH2 0x2E63 JUMPI POP DUP1 MLOAD SWAP1 PUSH1 0x20 ADD REVERT JUMPDEST PUSH1 0x40 MLOAD SWAP1 PUSH3 0x461BCD PUSH1 0xE5 SHL DUP3 MSTORE DUP2 PUSH1 0x20 DUP1 PUSH1 0x4 DUP4 ADD MSTORE DUP3 MLOAD SWAP1 DUP2 PUSH1 0x24 DUP5 ADD MSTORE PUSH1 0x0 SWAP4 JUMPDEST DUP3 DUP6 LT PUSH2 0x2EA9 JUMPI POP POP PUSH1 0x44 SWAP3 POP PUSH1 0x0 DUP4 DUP3 DUP5 ADD ADD MSTORE PUSH1 0x1F DUP1 NOT SWAP2 ADD AND DUP2 ADD SUB ADD SWAP1 REVERT JUMPDEST DUP5 DUP2 ADD DUP3 ADD MLOAD DUP7 DUP7 ADD PUSH1 0x44 ADD MSTORE SWAP4 DUP2 ADD SWAP4 DUP6 SWAP4 POP PUSH2 0x2E86 JUMP JUMPDEST DUP1 MLOAD DUP3 LT ISZERO PUSH2 0x290F JUMPI PUSH1 0x20 SWAP2 PUSH1 0x5 SHL ADD ADD SWAP1 JUMP JUMPDEST SWAP2 SWAP1 DUP3 ADD DUP1 SWAP3 GT PUSH2 0xC38 JUMPI JUMP JUMPDEST SWAP1 PUSH1 0x0 SWAP2 PUSH1 0x0 SWAP1 PUSH2 0x137 DUP1 SLOAD SWAP1 PUSH1 0x0 SWAP3 JUMPDEST DUP3 DUP5 LT PUSH2 0x2F1A JUMPI POP POP POP POP PUSH2 0x2F16 PUSH8 0xDE0B6B3A7640000 SWAP2 PUSH2 0x139 SLOAD SWAP1 PUSH2 0x2FFA JUMP JUMPDEST DIV SWAP1 JUMP JUMPDEST SWAP1 SWAP2 SWAP3 SWAP4 SWAP6 PUSH2 0x2F67 PUSH2 0x2F56 PUSH2 0x2F61 PUSH1 0x1 SWAP4 PUSH2 0x2F5B PUSH2 0x2F38 DUP11 DUP9 PUSH2 0x2EC2 JUMP JUMPDEST MLOAD PUSH2 0x2F43 DUP2 DUP13 PUSH2 0x2F8D JUMP JUMPDEST SWAP6 SWAP1 PUSH2 0x2F4F DUP14 DUP13 PUSH2 0x2939 JUMP JUMPDEST POP SLOAD PUSH2 0x2ED6 JUMP JUMPDEST PUSH2 0x3FB6 JUMP JUMPDEST SWAP1 PUSH2 0x2ED6 JUMP JUMPDEST SWAP9 PUSH2 0x2ED6 JUMP JUMPDEST SWAP5 ADD SWAP3 SWAP2 SWAP1 PUSH2 0x2EF4 JUMP JUMPDEST SWAP2 SWAP1 SWAP2 PUSH1 0x0 DUP4 DUP3 ADD SWAP4 DUP5 SLT SWAP2 SLT SWAP1 DUP1 ISZERO DUP3 AND SWAP2 ISZERO AND OR PUSH2 0xC38 JUMPI JUMP JUMPDEST SWAP2 SWAP1 PUSH1 0x0 SWAP1 PUSH2 0x2FBB DUP2 PUSH1 0x0 SWAP6 PUSH2 0x2FB1 PUSH2 0x2FA8 DUP3 PUSH2 0x150 PUSH2 0x28F7 JUMP JUMPDEST SWAP4 SWAP1 SLOAD SWAP3 PUSH2 0x3046 JUMP JUMPDEST SWAP2 PUSH1 0x3 SHL SHR PUSH2 0x2F71 JUMP JUMPDEST PUSH1 0x0 DUP2 SGT PUSH2 0x2FCA JUMPI JUMPDEST POP POP SWAP2 SWAP1 JUMP JUMPDEST PUSH2 0x2FF2 SWAP2 SWAP5 POP PUSH2 0x2FEC SWAP3 POP DUP1 SWAP5 PUSH8 0xDE0B6B3A7640000 SWAP4 DUP5 SWAP2 PUSH2 0x13A SLOAD PUSH2 0x2FFA JUMP JUMPDEST DIV PUSH2 0x2FFA JUMP JUMPDEST DIV CODESIZE DUP1 PUSH2 0x2FC4 JUMP JUMPDEST DUP2 DUP2 MUL SWAP3 SWAP2 DUP2 ISZERO SWAP2 DUP5 DIV EQ OR ISZERO PUSH2 0xC38 JUMPI JUMP JUMPDEST DUP2 ISZERO PUSH2 0x3017 JUMPI DIV SWAP1 JUMP JUMPDEST PUSH4 0x4E487B71 PUSH1 0xE0 SHL PUSH1 0x0 MSTORE PUSH1 0x12 PUSH1 0x4 MSTORE PUSH1 0x24 PUSH1 0x0 REVERT JUMPDEST DUP2 DUP2 SUB SWAP3 SWAP2 PUSH1 0x0 SGT DUP1 ISZERO DUP3 DUP6 SGT AND SWAP2 DUP5 SLT AND OR PUSH2 0xC38 JUMPI JUMP JUMPDEST PUSH2 0x3052 DUP2 PUSH2 0x137 PUSH2 0x2939 JUMP JUMPDEST POP SLOAD SWAP1 PUSH8 0xDE0B6B3A7640000 SWAP2 DUP3 DUP2 MUL SWAP3 DUP2 DUP5 DIV EQ SWAP1 ISZERO OR ISZERO PUSH2 0xC38 JUMPI PUSH2 0x309E SWAP3 PUSH2 0x3092 PUSH2 0x3085 PUSH2 0x3098 SWAP4 PUSH2 0x151 PUSH2 0x28F7 JUMP JUMPDEST SWAP1 SLOAD SWAP1 PUSH1 0x3 SHL SHR DUP5 PUSH2 0x300D JUMP JUMPDEST SWAP3 PUSH2 0x300D JUMP JUMPDEST SWAP1 PUSH2 0x302D JUMP JUMPDEST SWAP1 JUMP JUMPDEST DUP1 ISZERO PUSH2 0x30B7 JUMPI PUSH2 0x2F56 PUSH2 0x309E SWAP3 PUSH2 0x131 SLOAD PUSH2 0x30BF JUMP JUMPDEST POP POP PUSH1 0x0 NOT SWAP1 JUMP JUMPDEST SWAP2 SWAP1 DUP3 SUB SWAP2 DUP3 GT PUSH2 0xC38 JUMPI JUMP JUMPDEST PUSH8 0xFFFFFFFFFFFFFFFF DUP2 GT PUSH2 0x2977 JUMPI PUSH1 0x5 SHL PUSH1 0x20 ADD SWAP1 JUMP JUMPDEST SWAP1 PUSH2 0x30EE DUP3 PUSH2 0x30CC JUMP JUMPDEST PUSH2 0x30FB PUSH1 0x40 MLOAD SWAP2 DUP3 PUSH2 0x2955 JUMP JUMPDEST DUP3 DUP2 MSTORE DUP1 SWAP3 PUSH2 0x310C PUSH1 0x1F NOT SWAP2 PUSH2 0x30CC JUMP JUMPDEST ADD SWAP1 PUSH1 0x20 CALLDATASIZE SWAP2 ADD CALLDATACOPY JUMP JUMPDEST DUP1 SLOAD SWAP1 PUSH1 0x1 PUSH1 0x40 SHL DUP3 LT ISZERO PUSH2 0x2977 JUMPI DUP2 PUSH2 0x3138 SWAP2 PUSH1 0x1 PUSH2 0x314F SWAP5 ADD DUP2 SSTORE PUSH2 0x28F7 JUMP JUMPDEST DUP2 SWAP4 SWAP2 SLOAD SWAP1 PUSH1 0x3 SHL SWAP2 DUP3 SHL SWAP2 PUSH1 0x0 NOT SWAP1 SHL NOT AND OR SWAP1 JUMP JUMPDEST SWAP1 SSTORE JUMP JUMPDEST PUSH2 0x131 SLOAD DUP1 ISZERO PUSH2 0x31FE JUMPI PUSH2 0x137 SWAP1 DUP2 SLOAD SWAP2 PUSH1 0x0 SWAP1 PUSH2 0x3170 DUP5 PUSH2 0x30E4 JUMP JUMPDEST SWAP1 DUP3 SWAP1 JUMPDEST DUP6 DUP3 LT PUSH2 0x31BA JUMPI POP POP PUSH1 0x0 JUMPDEST DUP5 DUP2 LT PUSH2 0x318E JUMPI POP POP POP POP POP JUMP JUMPDEST DUP1 PUSH2 0x31B4 PUSH2 0x31AC DUP7 PUSH2 0xB5A DUP8 PUSH2 0x31A6 PUSH1 0x1 SWAP8 DUP10 PUSH2 0x2EC2 JUMP JUMPDEST MLOAD PUSH2 0x2FFA JUMP JUMPDEST PUSH2 0x138 PUSH2 0x3116 JUMP JUMPDEST ADD PUSH2 0x3180 JUMP JUMPDEST SWAP1 SWAP3 PUSH2 0x31F6 PUSH1 0x1 SWAP2 PUSH2 0x31CB DUP7 PUSH2 0x322A JUMP JUMPDEST PUSH2 0x31D5 DUP8 DUP8 PUSH2 0x2EC2 JUMP JUMPDEST MSTORE PUSH2 0x2F5B PUSH2 0x31E3 DUP8 DUP7 PUSH2 0x2939 JUMP JUMPDEST POP SLOAD PUSH2 0x31EF DUP9 DUP9 PUSH2 0x2EC2 JUMP JUMPDEST MLOAD SWAP1 PUSH2 0x3FB6 JUMP JUMPDEST SWAP4 ADD SWAP1 PUSH2 0x3174 JUMP JUMPDEST POP JUMP JUMPDEST PUSH1 0x1 PUSH1 0x1 PUSH1 0xA0 SHL SUB AND PUSH1 0x0 SWAP1 DUP2 MSTORE PUSH2 0x136 PUSH1 0x20 MSTORE PUSH1 0x40 SWAP1 KECCAK256 PUSH1 0x1 DUP2 ADD SLOAD PUSH1 0xFF AND ISZERO PUSH2 0x917 JUMPI SLOAD SWAP1 JUMP JUMPDEST PUSH2 0x3236 SWAP1 PUSH2 0x137 PUSH2 0x2939 JUMP JUMPDEST POP PUSH1 0x1 ADD SLOAD PUSH1 0x1 PUSH1 0x1 PUSH1 0xA0 SHL SUB AND PUSH2 0x324D DUP2 PUSH2 0x3280 JUMP JUMPDEST SWAP2 SWAP1 SWAP2 ISZERO PUSH2 0x534 JUMPI POP SWAP1 JUMP JUMPDEST MLOAD SWAP1 DUP2 ISZERO ISZERO DUP3 SUB PUSH2 0x54C JUMPI JUMP JUMPDEST SWAP2 SWAP1 DUP3 PUSH1 0x40 SWAP2 SUB SLT PUSH2 0x54C JUMPI PUSH2 0x309E PUSH1 0x20 DUP4 MLOAD SWAP4 ADD PUSH2 0x3259 JUMP JUMPDEST PUSH1 0x40 DUP1 MLOAD PUSH4 0x59E02DD7 PUSH1 0xE0 SHL DUP2 MSTORE SWAP3 SWAP2 DUP4 SWAP1 PUSH1 0x4 SWAP1 DUP3 SWAP1 PUSH1 0x1 PUSH1 0x1 PUSH1 0xA0 SHL SUB AND GAS STATICCALL SWAP2 DUP3 ISZERO PUSH2 0x32D6 JUMPI PUSH1 0x0 SWAP1 DUP2 SWAP4 PUSH2 0x32B7 JUMPI POP SWAP2 SWAP1 JUMP JUMPDEST SWAP1 POP PUSH2 0x32D2 SWAP2 SWAP3 POP PUSH1 0x40 RETURNDATASIZE DUP2 GT PUSH2 0x953 JUMPI PUSH2 0x943 DUP2 DUP4 PUSH2 0x2955 JUMP JUMPDEST SWAP1 SWAP2 JUMP JUMPDEST PUSH1 0x40 MLOAD RETURNDATASIZE PUSH1 0x0 DUP3 RETURNDATACOPY RETURNDATASIZE SWAP1 REVERT JUMPDEST PUSH2 0x137 SLOAD SWAP1 PUSH2 0x32F0 DUP3 PUSH2 0x30E4 JUMP JUMPDEST SWAP2 PUSH1 0x0 JUMPDEST DUP2 DUP2 LT PUSH2 0x32FF JUMPI POP POP JUMP JUMPDEST DUP1 PUSH2 0x330B PUSH1 0x1 SWAP3 PUSH2 0x322A JUMP JUMPDEST PUSH2 0x3315 DUP3 DUP8 PUSH2 0x2EC2 JUMP JUMPDEST MSTORE ADD PUSH2 0x32F4 JUMP JUMPDEST SWAP1 PUSH2 0x333D PUSH8 0xDE0B6B3A7640000 SWAP3 DUP4 PUSH2 0x157 SLOAD PUSH2 0x154 SLOAD SWAP3 NUMBER ADD SUB MUL PUSH2 0x300D JUMP JUMPDEST DUP3 DUP2 LT ISZERO PUSH2 0x335A JUMPI DUP3 SUB SWAP2 DUP1 DUP4 PUSH2 0x155 SLOAD MUL DIV SWAP3 PUSH2 0x156 SLOAD MUL SDIV SWAP1 JUMP JUMPDEST POP PUSH1 0x0 SWAP2 POP DUP2 SWAP1 JUMP JUMPDEST SWAP1 SWAP2 PUSH2 0x336D PUSH2 0x33C5 JUMP JUMPDEST SWAP3 SWAP1 DUP1 DUP3 LT ISZERO PUSH2 0x33BB JUMPI DUP4 SWAP2 PUSH2 0x3382 SWAP2 PUSH2 0x30BF JUMP JUMPDEST SWAP4 GT ISZERO PUSH2 0x33B6 JUMPI DUP2 DUP2 LT ISZERO PUSH2 0x33AE JUMPI PUSH2 0x339A SWAP2 PUSH2 0x30BF JUMP JUMPDEST PUSH1 0x1 SHR DUP1 DUP3 LT ISZERO PUSH2 0x33A9 JUMPI POP SWAP1 JUMP JUMPDEST SWAP1 POP SWAP1 JUMP JUMPDEST POP POP POP PUSH1 0x0 SWAP1 JUMP JUMPDEST POP POP SWAP1 JUMP JUMPDEST POP POP POP POP POP PUSH1 0x0 SWAP1 JUMP JUMPDEST PUSH2 0x152 SLOAD PUSH1 0x40 DUP1 MLOAD PUSH4 0x59E02DD7 PUSH1 0xE0 SHL DUP1 DUP3 MSTORE SWAP4 SWAP3 SWAP1 SWAP2 SWAP1 PUSH1 0x1 PUSH1 0x1 PUSH1 0xA0 SHL SUB SWAP1 DUP2 AND DUP3 DUP5 PUSH1 0x4 DUP2 DUP5 GAS STATICCALL DUP1 ISZERO PUSH2 0x34B5 JUMPI PUSH1 0x0 SWAP5 DUP6 SWAP2 PUSH2 0x3492 JUMPI JUMPDEST POP ISZERO PUSH2 0x347B JUMPI POP PUSH2 0x153 SLOAD AND SWAP1 DUP1 MLOAD SWAP5 DUP6 MSTORE DUP1 DUP6 PUSH1 0x4 DUP2 DUP6 GAS STATICCALL DUP1 ISZERO PUSH2 0x3470 JUMPI PUSH1 0x0 SWAP6 DUP7 SWAP2 PUSH2 0x344D JUMPI JUMPDEST POP ISZERO PUSH2 0x3436 JUMPI POP POP SWAP2 SWAP1 JUMP JUMPDEST PUSH1 0x24 SWAP3 POP MLOAD SWAP1 PUSH4 0x5E89893 PUSH1 0xE1 SHL DUP3 MSTORE PUSH1 0x4 DUP3 ADD MSTORE REVERT JUMPDEST SWAP1 POP DUP2 PUSH2 0x3467 SWAP3 SWAP7 POP RETURNDATASIZE DUP8 GT PUSH2 0x953 JUMPI PUSH2 0x943 DUP2 DUP4 PUSH2 0x2955 JUMP JUMPDEST SWAP5 SWAP1 SWAP5 CODESIZE PUSH2 0x342A JUMP JUMPDEST POP MLOAD RETURNDATASIZE PUSH1 0x0 DUP3 RETURNDATACOPY RETURNDATASIZE SWAP1 REVERT JUMPDEST PUSH1 0x24 SWAP1 DUP4 MLOAD SWAP1 PUSH4 0x5E89893 PUSH1 0xE1 SHL DUP3 MSTORE PUSH1 0x4 DUP3 ADD MSTORE REVERT JUMPDEST SWAP1 POP PUSH2 0x34AC SWAP2 SWAP5 POP DUP4 RETURNDATASIZE DUP6 GT PUSH2 0x953 JUMPI PUSH2 0x943 DUP2 DUP4 PUSH2 0x2955 JUMP JUMPDEST SWAP4 SWAP1 SWAP4 CODESIZE PUSH2 0x3400 JUMP JUMPDEST DUP4 MLOAD RETURNDATASIZE PUSH1 0x0 DUP3 RETURNDATACOPY RETURNDATASIZE SWAP1 REVERT JUMPDEST SWAP1 DUP2 MSTORE PUSH2 0x100 DUP2 ADD SWAP3 SWAP2 PUSH1 0xE0 SWAP1 PUSH1 0xC0 SWAP1 PUSH1 0x1 PUSH1 0x1 PUSH1 0xA0 SHL SUB DUP1 PUSH2 0x34E2 DUP4 PUSH2 0x2925 JUMP JUMPDEST AND PUSH1 0x20 DUP7 ADD MSTORE PUSH2 0x34F4 PUSH1 0x20 DUP4 ADD PUSH2 0x2925 JUMP JUMPDEST AND PUSH1 0x40 DUP6 ADD MSTORE PUSH1 0x40 DUP2 ADD CALLDATALOAD PUSH1 0x60 DUP6 ADD MSTORE PUSH1 0x60 DUP2 ADD CALLDATALOAD PUSH1 0x80 DUP6 ADD MSTORE PUSH1 0x80 DUP2 ADD CALLDATALOAD PUSH1 0xA0 DUP6 ADD MSTORE PUSH1 0xA0 DUP2 ADD CALLDATALOAD DUP3 DUP6 ADD MSTORE ADD CALLDATALOAD SWAP2 ADD MSTORE JUMP JUMPDEST PUSH1 0x40 MLOAD SWAP1 PUSH2 0x3537 PUSH1 0x80 DUP4 PUSH2 0x2955 JUMP JUMPDEST PUSH1 0x0 PUSH1 0x60 DUP4 DUP3 DUP2 MSTORE DUP3 PUSH1 0x20 DUP3 ADD MSTORE DUP3 PUSH1 0x40 DUP3 ADD MSTORE ADD MSTORE JUMP JUMPDEST PUSH2 0x35C7 SWAP4 PUSH2 0x358E PUSH1 0x0 SWAP3 PUSH1 0x20 SWAP6 PUSH2 0x3568 DUP3 PUSH2 0x137 PUSH2 0x2939 JUMP JUMPDEST POP PUSH2 0x3574 DUP8 DUP3 SLOAD PUSH2 0x2ED6 JUMP JUMPDEST SWAP1 SSTORE PUSH2 0x3584 PUSH2 0x131 SWAP2 DUP3 SLOAD PUSH2 0x2ED6 JUMP JUMPDEST SWAP1 SSTORE PUSH2 0x135 PUSH2 0x28F7 JUMP JUMPDEST SWAP1 SLOAD PUSH1 0x40 MLOAD PUSH4 0x40C10F19 PUSH1 0xE0 SHL DUP2 MSTORE PUSH1 0x1 PUSH1 0x1 PUSH1 0xA0 SHL SUB SWAP1 SWAP4 AND PUSH1 0x4 DUP5 ADD MSTORE PUSH1 0x24 DUP4 ADD SWAP5 SWAP1 SWAP5 MSTORE SWAP1 SWAP5 DUP6 SWAP4 SWAP3 DUP5 SWAP3 SWAP1 SWAP2 DUP4 SWAP1 PUSH1 0x44 DUP3 ADD SWAP1 JUMP JUMPDEST SUB SWAP4 PUSH1 0x3 SWAP2 SWAP1 SWAP2 SHL SHR PUSH1 0x1 PUSH1 0x1 PUSH1 0xA0 SHL SUB AND GAS CALL DUP1 ISZERO PUSH2 0x32D6 JUMPI PUSH2 0x35E8 JUMPI POP JUMP JUMPDEST PUSH1 0x20 DUP2 RETURNDATASIZE DUP3 GT PUSH2 0x3611 JUMPI JUMPDEST DUP2 PUSH2 0x3600 PUSH1 0x20 SWAP4 DUP4 PUSH2 0x2955 JUMP JUMPDEST DUP2 ADD SUB SLT PUSH2 0x54C JUMPI PUSH2 0x31FE SWAP1 PUSH2 0x3259 JUMP JUMPDEST RETURNDATASIZE SWAP2 POP PUSH2 0x35F3 JUMP JUMPDEST PUSH2 0x367F SWAP3 PUSH1 0x20 SWAP3 PUSH2 0x134 PUSH2 0x362E DUP5 DUP3 SLOAD PUSH2 0x2ED6 JUMP JUMPDEST SWAP1 SSTORE PUSH2 0x363E PUSH2 0x131 SWAP2 DUP3 SLOAD PUSH2 0x2ED6 JUMP JUMPDEST SWAP1 SSTORE PUSH2 0x133 SLOAD PUSH1 0x40 MLOAD PUSH4 0x40C10F19 PUSH1 0xE0 SHL DUP2 MSTORE PUSH1 0x1 PUSH1 0x1 PUSH1 0xA0 SHL SUB SWAP3 DUP4 AND PUSH1 0x4 DUP3 ADD MSTORE PUSH1 0x24 DUP2 ADD SWAP4 SWAP1 SWAP4 MSTORE SWAP2 SWAP4 DUP5 SWAP3 SWAP1 SWAP2 AND SWAP1 DUP3 SWAP1 PUSH1 0x0 SWAP1 DUP3 SWAP1 PUSH1 0x44 DUP3 ADD SWAP1 JUMP JUMPDEST SUB SWAP3 GAS CALL DUP1 ISZERO PUSH2 0x32D6 JUMPI PUSH2 0x35E8 JUMPI POP JUMP JUMPDEST SWAP2 SWAP1 PUSH2 0x369B SWAP1 PUSH2 0x2EE3 JUMP JUMPDEST SWAP2 SWAP1 SWAP3 PUSH2 0x36A8 DUP4 DUP6 PUSH2 0x30A1 JUMP JUMPDEST SWAP1 DUP1 DUP3 GT ISZERO PUSH2 0x36B5 JUMPI POP POP JUMP JUMPDEST PUSH1 0x44 SWAP3 POP PUSH1 0x40 MLOAD SWAP2 PUSH4 0x79121201 PUSH1 0xE0 SHL DUP4 MSTORE PUSH1 0x4 DUP4 ADD MSTORE PUSH1 0x24 DUP3 ADD MSTORE REVERT JUMPDEST PUSH2 0x3138 PUSH2 0x314F SWAP2 PUSH2 0x36E4 DUP5 DUP3 PUSH2 0x3046 JUMP JUMPDEST PUSH2 0x371A PUSH2 0x36F3 DUP4 PUSH2 0x150 PUSH2 0x28F7 JUMP JUMPDEST PUSH2 0x3706 DUP3 SWAP5 SWAP3 SLOAD SWAP3 DUP4 DUP4 PUSH1 0x3 SHL SHR PUSH2 0x2F71 JUMP JUMPDEST SWAP2 SWAP1 PUSH1 0x3 SHL SWAP2 DUP3 SHL SWAP2 PUSH1 0x0 NOT SWAP1 SHL NOT AND OR SWAP1 JUMP JUMPDEST SWAP1 SSTORE PUSH2 0x151 PUSH2 0x28F7 JUMP JUMPDEST SWAP1 PUSH2 0x134 SLOAD SWAP1 DUP2 ISZERO PUSH2 0x3744 JUMPI PUSH2 0x309E SWAP3 PUSH2 0x60A PUSH2 0x2F56 SWAP3 PUSH2 0x131 SLOAD PUSH2 0x30BF JUMP JUMPDEST POP POP POP PUSH8 0xDE0B6B3A7640000 SWAP1 JUMP JUMPDEST SWAP3 SWAP1 SWAP4 SWAP2 PUSH1 0x0 SWAP2 PUSH1 0x0 SWAP2 DUP3 SWAP7 PUSH2 0x3767 PUSH2 0x3528 JUMP JUMPDEST SWAP7 PUSH1 0x1 PUSH1 0x1 PUSH1 0xA0 SHL SUB SWAP2 DUP6 SWAP1 DUP4 AND DUP1 PUSH2 0x3968 JUMPI JUMPDEST POP DUP3 PUSH2 0x12F SLOAD AND DUP4 PUSH1 0x40 MLOAD SWAP4 PUSH4 0x6EB1769F PUSH1 0xE1 SHL DUP6 MSTORE AND DUP1 PUSH1 0x4 DUP6 ADD MSTORE ADDRESS PUSH1 0x24 DUP6 ADD MSTORE PUSH1 0x20 SWAP5 DUP6 DUP6 PUSH1 0x44 DUP2 DUP7 GAS STATICCALL SWAP5 DUP6 ISZERO PUSH2 0x395D JUMPI DUP5 SWAP6 PUSH2 0x392E JUMPI JUMPDEST POP DUP5 PUSH2 0x3818 JUMPI JUMPDEST POP POP POP POP POP DUP7 ADD MLOAD ISZERO PUSH2 0x37D4 JUMPI JUMPDEST POP POP POP SWAP3 SWAP2 SWAP1 JUMP JUMPDEST SWAP1 SWAP2 SWAP3 POP PUSH2 0x37EC PUSH8 0xDE0B6B3A7640000 SWAP3 DUP4 SWAP3 PUSH2 0x2FFA JUMP JUMPDEST DIV DUP1 DUP6 MSTORE SWAP1 DUP3 ISZERO PUSH2 0x3810 JUMPI PUSH2 0x3808 SWAP3 DIV SWAP1 DUP2 PUSH1 0x40 DUP7 ADD MSTORE PUSH2 0x2ED6 JUMP JUMPDEST CODESIZE DUP1 DUP1 PUSH2 0x37CC JUMP JUMPDEST POP SWAP1 POP PUSH2 0x3808 JUMP JUMPDEST PUSH2 0x3826 SWAP1 PUSH2 0x130 SLOAD AND PUSH2 0x3280 JUMP JUMPDEST SWAP3 SWAP1 SWAP3 ISZERO PUSH2 0x37BE JUMPI SWAP1 SWAP2 SWAP3 SWAP4 SWAP12 POP DUP5 DUP12 PUSH2 0x3860 DUP6 PUSH8 0xDE0B6B3A7640000 PUSH2 0x385A PUSH2 0x3850 DUP14 DUP14 PUSH2 0x2FFA JUMP JUMPDEST PUSH2 0x143 SLOAD SWAP1 PUSH2 0x2FFA JUMP JUMPDEST DIV PUSH2 0x300D JUMP JUMPDEST DUP2 DUP4 ADD DUP2 DUP2 MSTORE SWAP6 SWAP1 DUP12 ISZERO PUSH2 0x3924 JUMPI POP PUSH2 0x388B SWAP2 PUSH2 0x387F PUSH1 0x60 SWAP3 DUP14 PUSH2 0x300D JUMP JUMPDEST SWAP2 DUP3 SWAP2 ADD MSTORE DUP6 MLOAD PUSH2 0x2ED6 JUMP JUMPDEST DUP1 SWAP14 JUMPDEST LT SWAP3 DUP4 ISZERO PUSH2 0x38BA JUMPI JUMPDEST POP POP POP PUSH2 0x38A7 JUMPI JUMPDEST DUP1 DUP1 DUP1 PUSH2 0x37BE JUMP JUMPDEST DUP2 SWAP3 SWAP10 POP MSTORE DUP1 PUSH1 0x60 DUP9 ADD MSTORE SWAP7 CODESIZE DUP1 PUSH2 0x389F JUMP JUMPDEST SWAP1 SWAP2 SWAP3 POP PUSH1 0x24 PUSH1 0x40 MLOAD DUP1 SWAP5 DUP2 SWAP4 PUSH4 0x70A08231 PUSH1 0xE0 SHL DUP4 MSTORE PUSH1 0x4 DUP4 ADD MSTORE GAS STATICCALL SWAP1 DUP2 ISZERO PUSH2 0x20EC JUMPI SWAP1 DUP12 SWAP2 DUP5 SWAP2 PUSH2 0x38F3 JUMPI JUMPDEST POP LT CODESIZE DUP5 DUP2 PUSH2 0x3897 JUMP JUMPDEST DUP1 SWAP3 POP DUP6 DUP1 SWAP3 POP RETURNDATASIZE DUP4 GT PUSH2 0x391D JUMPI JUMPDEST PUSH2 0x390C DUP2 DUP4 PUSH2 0x2955 JUMP JUMPDEST DUP2 ADD SUB SLT PUSH2 0xEBA JUMPI DUP11 SWAP1 MLOAD CODESIZE PUSH2 0x38E9 JUMP JUMPDEST POP RETURNDATASIZE PUSH2 0x3902 JUMP JUMPDEST SWAP2 POP POP DUP1 SWAP14 PUSH2 0x388E JUMP JUMPDEST SWAP1 SWAP5 POP DUP6 DUP2 DUP2 RETURNDATASIZE DUP4 GT PUSH2 0x3956 JUMPI JUMPDEST PUSH2 0x3946 DUP2 DUP4 PUSH2 0x2955 JUMP JUMPDEST DUP2 ADD SUB SLT PUSH2 0x255F JUMPI MLOAD SWAP4 CODESIZE PUSH2 0x37B7 JUMP JUMPDEST POP RETURNDATASIZE PUSH2 0x393C JUMP JUMPDEST PUSH1 0x40 MLOAD RETURNDATASIZE DUP7 DUP3 RETURNDATACOPY RETURNDATASIZE SWAP1 REVERT JUMPDEST SWAP1 SWAP6 POP PUSH1 0x20 DUP4 PUSH2 0x1C3 SLOAD AND SWAP2 PUSH1 0x24 PUSH1 0x40 MLOAD DUP1 SWAP5 DUP2 SWAP4 PUSH4 0x64A731E9 PUSH1 0xE0 SHL DUP4 MSTORE PUSH1 0x4 DUP4 ADD MSTORE GAS STATICCALL DUP1 ISZERO PUSH2 0x95A JUMPI DUP7 SWAP1 PUSH2 0x39AD JUMPI JUMPDEST PUSH2 0x39A6 SWAP2 POP DUP5 PUSH2 0x2FFA JUMP JUMPDEST SWAP5 CODESIZE PUSH2 0x377B JUMP JUMPDEST POP PUSH1 0x20 DUP2 RETURNDATASIZE DUP3 GT PUSH2 0x39D8 JUMPI JUMPDEST DUP2 PUSH2 0x39C6 PUSH1 0x20 SWAP4 DUP4 PUSH2 0x2955 JUMP JUMPDEST DUP2 ADD SUB SLT PUSH2 0x1F21 JUMPI PUSH2 0x39A6 SWAP1 MLOAD PUSH2 0x399B JUMP JUMPDEST RETURNDATASIZE SWAP2 POP PUSH2 0x39B9 JUMP JUMPDEST DUP1 PUSH2 0x39E9 PUSH2 0x33C5 JUMP JUMPDEST SWAP2 SWAP1 SWAP4 PUSH2 0x39F6 PUSH1 0x0 PUSH2 0x331C JUMP JUMPDEST SWAP5 ADD SWAP4 DUP3 SWAP2 PUSH2 0x3A8E JUMPI JUMPDEST ADD SWAP4 DUP5 PUSH1 0x0 DUP1 DUP3 SLT PUSH2 0x3A88 JUMPI POP JUMPDEST DUP5 SUB SWAP2 DUP2 DUP6 GT PUSH2 0x3A50 JUMPI POP POP DUP2 DUP2 GT PUSH2 0x3A32 JUMPI POP POP PUSH2 0x155 SSTORE PUSH2 0x156 SSTORE NUMBER PUSH2 0x157 SSTORE JUMP JUMPDEST PUSH1 0x44 SWAP3 POP PUSH1 0x40 MLOAD SWAP2 PUSH4 0x6DA41E5 PUSH1 0xE1 SHL DUP4 MSTORE PUSH1 0x4 DUP4 ADD MSTORE PUSH1 0x24 DUP3 ADD MSTORE REVERT JUMPDEST SWAP1 DUP1 DUP6 SWAP3 GT PUSH2 0x3A76 JUMPI PUSH1 0x44 SWAP2 PUSH1 0x40 MLOAD SWAP2 PUSH4 0x6DA41E5 PUSH1 0xE1 SHL DUP4 MSTORE PUSH1 0x4 DUP4 ADD MSTORE PUSH1 0x24 DUP3 ADD MSTORE REVERT JUMPDEST PUSH1 0x40 MLOAD PUSH4 0xFB4FD35 PUSH1 0xE1 SHL DUP2 MSTORE PUSH1 0x4 SWAP1 REVERT JUMPDEST SUB PUSH2 0x3A0E JUMP JUMPDEST SWAP1 POP DUP2 PUSH1 0x0 SUB SWAP1 PUSH2 0x3A00 JUMP JUMPDEST PUSH2 0x3AC7 SWAP2 SWAP3 PUSH2 0x3AAB DUP3 PUSH2 0x137 PUSH2 0x2939 JUMP JUMPDEST POP PUSH2 0x3AB7 DUP6 DUP3 SLOAD PUSH2 0x30BF JUMP JUMPDEST SWAP1 SSTORE PUSH2 0x3584 PUSH2 0x131 SWAP2 DUP3 SLOAD PUSH2 0x30BF JUMP JUMPDEST SWAP1 SLOAD PUSH1 0x3 SWAP2 SWAP1 SWAP2 SHL SHR PUSH1 0x1 PUSH1 0x1 PUSH1 0xA0 SHL SUB AND DUP1 EXTCODESIZE ISZERO PUSH2 0x54C JUMPI PUSH1 0x40 MLOAD PUSH4 0x2770A7EB PUSH1 0xE2 SHL DUP2 MSTORE ADDRESS PUSH1 0x4 DUP3 ADD MSTORE PUSH1 0x24 DUP2 ADD SWAP3 SWAP1 SWAP3 MSTORE PUSH1 0x0 SWAP1 DUP3 SWAP1 DUP2 DUP4 DUP2 PUSH1 0x44 DUP2 ADD JUMPDEST SUB SWAP3 GAS CALL DUP1 ISZERO PUSH2 0x32D6 JUMPI PUSH2 0x3B19 JUMPI POP JUMP JUMPDEST PUSH1 0x0 PUSH2 0x2B1C SWAP2 PUSH2 0x2955 JUMP JUMPDEST SWAP1 PUSH2 0x134 PUSH2 0x3B33 DUP4 DUP3 SLOAD PUSH2 0x30BF JUMP JUMPDEST SWAP1 SSTORE PUSH2 0x3B43 PUSH2 0x131 SWAP2 DUP3 SLOAD PUSH2 0x30BF JUMP JUMPDEST SWAP1 SSTORE PUSH2 0x133 SLOAD PUSH1 0x1 PUSH1 0x1 PUSH1 0xA0 SHL SUB AND DUP1 EXTCODESIZE ISZERO PUSH2 0x54C JUMPI PUSH1 0x40 MLOAD PUSH4 0x2770A7EB PUSH1 0xE2 SHL DUP2 MSTORE ADDRESS PUSH1 0x4 DUP3 ADD MSTORE PUSH1 0x24 DUP2 ADD SWAP3 SWAP1 SWAP3 MSTORE PUSH1 0x0 SWAP1 DUP3 SWAP1 DUP2 DUP4 DUP2 PUSH1 0x44 DUP2 ADD PUSH2 0x3B08 JUMP JUMPDEST SWAP3 PUSH2 0x3B97 DUP4 PUSH2 0x3B9D SWAP7 SWAP5 SWAP4 SWAP8 SWAP6 PUSH2 0x3D12 JUMP JUMPDEST SWAP1 PUSH2 0x3BC6 JUMP JUMPDEST DUP2 DUP2 LT PUSH2 0x3BA8 JUMPI POP POP JUMP JUMPDEST PUSH1 0x44 SWAP3 POP PUSH1 0x40 MLOAD SWAP2 PUSH4 0xC39B739F PUSH1 0xE0 SHL DUP4 MSTORE PUSH1 0x4 DUP4 ADD MSTORE PUSH1 0x24 DUP3 ADD MSTORE REVERT JUMPDEST SWAP3 PUSH2 0x3BD3 SWAP3 SWAP5 SWAP2 SWAP4 PUSH2 0x3C93 JUMP JUMPDEST PUSH1 0x0 SWAP3 DUP2 DUP2 MUL SWAP2 PUSH1 0x1 PUSH1 0xFF SHL SWAP2 DUP6 DUP3 SLT DUP4 DUP3 EQ AND PUSH2 0x3C7F JUMPI DUP2 DUP5 SDIV EQ SWAP1 ISZERO OR ISZERO PUSH2 0x3C6B JUMPI PUSH8 0xDE0B6B3A763FFFF NOT DUP4 ADD SWAP3 DUP4 GT PUSH2 0x3C6B JUMPI PUSH8 0xDE0B6B3A7640000 SWAP3 DUP4 DUP2 MUL SWAP4 DUP2 DUP6 DIV EQ SWAP1 ISZERO OR ISZERO PUSH2 0x3C6B JUMPI DUP3 ISZERO PUSH2 0x3C57 JUMPI DUP2 EQ PUSH1 0x0 NOT DUP4 EQ AND PUSH2 0x3C43 JUMPI SDIV SWAP1 DUP1 DUP3 SLT PUSH2 0x33A9 JUMPI POP SWAP1 JUMP JUMPDEST PUSH4 0x4E487B71 PUSH1 0xE0 SHL DUP4 MSTORE PUSH1 0x11 PUSH1 0x4 MSTORE PUSH1 0x24 DUP4 REVERT JUMPDEST PUSH4 0x4E487B71 PUSH1 0xE0 SHL DUP5 MSTORE PUSH1 0x12 PUSH1 0x4 MSTORE PUSH1 0x24 DUP5 REVERT JUMPDEST PUSH4 0x4E487B71 PUSH1 0xE0 SHL DUP5 MSTORE PUSH1 0x11 PUSH1 0x4 MSTORE PUSH1 0x24 DUP5 REVERT JUMPDEST PUSH4 0x4E487B71 PUSH1 0xE0 SHL DUP7 MSTORE PUSH1 0x11 PUSH1 0x4 MSTORE PUSH1 0x24 DUP7 REVERT JUMPDEST SWAP1 SWAP2 PUSH2 0x3CA2 SWAP1 PUSH2 0x131 SLOAD PUSH2 0x30BF JUMP JUMPDEST SWAP1 PUSH8 0xDE0B6B3A7640000 SWAP2 DUP3 DUP2 MUL SWAP3 DUP2 DUP5 DIV EQ SWAP1 ISZERO OR ISZERO PUSH2 0xC38 JUMPI PUSH2 0x309E SWAP3 PUSH2 0x3098 SWAP2 PUSH2 0x2FFA JUMP JUMPDEST DUP3 DUP3 PUSH2 0x3CD5 SWAP3 PUSH2 0x3C93 JUMP JUMPDEST SWAP1 PUSH1 0x0 DUP3 SGT ISZERO PUSH2 0x33AE JUMPI PUSH2 0x309E SWAP3 PUSH2 0x3CEC SWAP2 PUSH2 0x3724 JUMP JUMPDEST SWAP1 PUSH2 0x300D JUMP JUMPDEST SWAP1 PUSH1 0x40 MLOAD PUSH2 0x3D01 PUSH1 0x40 DUP3 PUSH2 0x2955 JUMP JUMPDEST PUSH1 0x20 PUSH1 0x1 DUP3 SWAP5 DUP1 SLOAD DUP5 MSTORE ADD SLOAD SWAP2 ADD MSTORE JUMP JUMPDEST PUSH2 0x3D1E DUP2 PUSH2 0x148 PUSH2 0x28F7 JUMP JUMPDEST SWAP1 SLOAD SWAP1 PUSH1 0x3 SHL SHR SWAP2 PUSH2 0x18E SWAP2 PUSH2 0x3D34 DUP2 DUP5 PUSH2 0x2939 JUMP JUMPDEST POP SLOAD SWAP3 PUSH2 0x18F SLOAD NUMBER LT ISZERO PUSH2 0x3D5A JUMPI JUMPDEST POP POP DUP1 DUP3 LT ISZERO PUSH2 0x33B6 JUMPI PUSH2 0xB5A SWAP1 PUSH2 0x309E SWAP4 PUSH2 0x2FFA JUMP JUMPDEST DUP3 SWAP4 POP PUSH2 0x3D6E PUSH2 0x3D79 SWAP4 SWAP3 PUSH2 0x3D74 SWAP3 PUSH2 0x2939 JUMP JUMPDEST POP PUSH2 0x3CF2 JUMP JUMPDEST PUSH2 0x3D81 JUMP JUMPDEST SWAP1 CODESIZE DUP1 PUSH2 0x3D43 JUMP JUMPDEST PUSH1 0x20 DUP2 MLOAD SWAP2 ADD DUP1 MLOAD SWAP3 PUSH8 0xDE0B6B3A7640000 SWAP4 DUP5 SUB SWAP1 DUP5 DUP3 GT PUSH2 0xC38 JUMPI PUSH2 0x3DAE PUSH2 0x2F5B SWAP3 PUSH2 0x2F16 SWAP6 PUSH2 0x2FFA JUMP JUMPDEST SWAP3 MLOAD PUSH2 0x2FFA JUMP JUMPDEST PUSH1 0x0 DUP1 PUSH2 0x137 SWAP2 DUP3 SLOAD SWAP3 PUSH2 0x3DC8 DUP5 PUSH2 0x30E4 JUMP JUMPDEST SWAP4 DUP3 SWAP2 JUMPDEST DUP2 DUP4 LT PUSH2 0x3DF5 JUMPI POP POP POP DUP2 ISZERO PUSH2 0x3DE9 JUMPI SWAP1 PUSH2 0x3DE6 SWAP2 PUSH2 0x300D JUMP JUMPDEST SWAP2 JUMP JUMPDEST POP POP PUSH2 0x149 SLOAD PUSH1 0x1 SHL SWAP2 JUMP JUMPDEST SWAP1 SWAP2 SWAP4 SWAP3 PUSH2 0x3E02 DUP6 PUSH2 0x322A JUMP JUMPDEST SWAP1 DUP2 PUSH2 0x3E0E DUP8 DUP10 PUSH2 0x2EC2 JUMP JUMPDEST MSTORE PUSH2 0x3E27 PUSH2 0x3E1C DUP4 DUP9 PUSH2 0x2F8D JUMP JUMPDEST POP PUSH2 0x2F4F DUP9 DUP7 PUSH2 0x2939 JUMP JUMPDEST PUSH8 0xDE0B6B3A7640000 SWAP1 DUP2 DUP2 MUL SWAP2 DUP2 DUP4 DIV EQ SWAP1 ISZERO OR ISZERO PUSH2 0xC38 JUMPI PUSH2 0x3E64 PUSH2 0x3E6A SWAP3 PUSH2 0x2F5B DUP6 PUSH2 0x3E5B PUSH1 0x1 SWAP8 PUSH2 0x60F SWAP7 PUSH2 0x3FB6 JUMP JUMPDEST SWAP5 DUP6 SWAP2 DUP13 PUSH2 0x3D12 JUMP JUMPDEST SWAP6 PUSH2 0x2ED6 JUMP JUMPDEST SWAP5 ADD SWAP2 SWAP1 PUSH2 0x3DCC JUMP JUMPDEST PUSH2 0x18F DUP1 SLOAD NUMBER LT ISZERO PUSH2 0x3E82 JUMPI POP JUMP JUMPDEST PUSH2 0x137 SLOAD PUSH1 0x0 JUMPDEST DUP2 DUP2 LT PUSH2 0x3E9C JUMPI POP POP PUSH2 0x190 SLOAD NUMBER ADD SWAP1 SSTORE JUMP JUMPDEST DUP1 DUP1 PUSH32 0x19156E9379C7BBBCE8F646CE5EE30BA860B8F954717405F3D5859A6C1A21AE60 PUSH1 0x1 SWAP4 PUSH2 0x18E PUSH2 0x3ED2 PUSH2 0x3D6E DUP4 DUP4 PUSH2 0x2939 JUMP JUMPDEST SWAP1 PUSH2 0x3EF0 PUSH2 0x3EE8 PUSH2 0x3EE2 DUP6 PUSH2 0x322A JUMP JUMPDEST DUP5 PUSH2 0x3D81 JUMP JUMPDEST SWAP4 DUP5 SWAP3 PUSH2 0x2939 JUMP JUMPDEST POP SSTORE MLOAD PUSH1 0x40 SWAP2 DUP3 MLOAD SWAP2 DUP3 MSTORE PUSH1 0x20 DUP3 ADD MSTORE LOG2 ADD PUSH2 0x3E89 JUMP JUMPDEST PUSH1 0x97 SLOAD PUSH1 0x40 MLOAD PUSH4 0xD994D6D5 PUSH1 0xE0 SHL DUP2 MSTORE CALLER PUSH1 0x4 DUP3 ADD MSTORE SWAP1 PUSH1 0x20 SWAP1 DUP3 SWAP1 PUSH1 0x24 SWAP1 DUP3 SWAP1 PUSH1 0x1 PUSH1 0x1 PUSH1 0xA0 SHL SUB AND GAS STATICCALL SWAP1 DUP2 ISZERO PUSH2 0x32D6 JUMPI PUSH1 0x0 SWAP2 PUSH2 0x3F5C JUMPI JUMPDEST POP ISZERO PUSH2 0x3F4A JUMPI JUMP JUMPDEST PUSH1 0x40 MLOAD PUSH4 0x1DD1B1B5 PUSH1 0xE2 SHL DUP2 MSTORE PUSH1 0x4 SWAP1 REVERT JUMPDEST SWAP1 PUSH1 0x20 DUP3 RETURNDATASIZE DUP3 GT PUSH2 0x3F8D JUMPI JUMPDEST DUP2 PUSH2 0x3F75 PUSH1 0x20 SWAP4 DUP4 PUSH2 0x2955 JUMP JUMPDEST DUP2 ADD SUB SLT PUSH2 0x4B6 JUMPI POP PUSH2 0x3F87 SWAP1 PUSH2 0x3259 JUMP JUMPDEST CODESIZE PUSH2 0x3F42 JUMP JUMPDEST RETURNDATASIZE SWAP2 POP PUSH2 0x3F68 JUMP JUMPDEST PUSH1 0xFF PUSH1 0xCA SLOAD PUSH1 0x8 SHR AND PUSH2 0x3FA4 JUMPI JUMP JUMPDEST PUSH1 0x40 MLOAD PUSH4 0x783BB6C9 PUSH1 0xE1 SHL DUP2 MSTORE PUSH1 0x4 SWAP1 REVERT JUMPDEST SWAP1 PUSH8 0xDE0B6B3A7640000 SWAP2 DUP3 DUP2 MUL SWAP3 DUP2 DUP5 DIV EQ SWAP1 ISZERO OR ISZERO PUSH2 0xC38 JUMPI PUSH2 0x309E SWAP2 PUSH2 0x300D JUMP INVALID LOG2 PUSH5 0x6970667358 0x22 SLT KECCAK256 DUP2 0x49 0xC6 0xCA 0xCE CHAINID DUP5 PUSH20 0x64F0DFA25575E6079F76002188CC0FB75DAFD65 GASLIMIT CODECOPY 0xB1 0xC3 PUSH5 0x736F6C6343 STOP ADDMOD EQ STOP CALLER PUSH1 0x80 CALLVALUE PUSH2 0x5D JUMPI PUSH1 0x1F PUSH2 0x19D CODESIZE DUP2 SWAP1 SUB SWAP2 DUP3 ADD PUSH1 0x1F NOT AND DUP4 ADD SWAP2 PUSH1 0x1 PUSH1 0x1 PUSH1 0x40 SHL SUB DUP4 GT DUP5 DUP5 LT OR PUSH2 0x62 JUMPI DUP1 DUP5 SWAP3 PUSH1 0x20 SWAP5 PUSH1 0x40 MSTORE DUP4 CODECOPY DUP2 ADD SUB SLT PUSH2 0x5D JUMPI MLOAD PUSH1 0x0 SSTORE PUSH1 0x1 PUSH1 0xFF NOT DUP2 SLOAD AND OR PUSH1 0x1 SSTORE PUSH1 0x40 MLOAD PUSH2 0x124 SWAP1 DUP2 PUSH2 0x79 DUP3 CODECOPY RETURN JUMPDEST PUSH1 0x0 DUP1 REVERT JUMPDEST PUSH4 0x4E487B71 PUSH1 0xE0 SHL PUSH1 0x0 MSTORE PUSH1 0x41 PUSH1 0x4 MSTORE PUSH1 0x24 PUSH1 0x0 REVERT INVALID PUSH1 0x80 DUP1 PUSH1 0x40 MSTORE PUSH1 0x4 CALLDATASIZE LT ISZERO PUSH1 0x12 JUMPI PUSH1 0x0 DUP1 REVERT JUMPDEST PUSH1 0x0 SWAP1 DUP2 CALLDATALOAD PUSH1 0xE0 SHR SWAP1 DUP2 PUSH4 0x32145F90 EQ PUSH1 0xD6 JUMPI DUP2 PUSH4 0x59E02DD7 EQ PUSH1 0xAC JUMPI POP DUP1 PUSH4 0x73D4A13A EQ PUSH1 0x91 JUMPI DUP1 PUSH4 0xB689D5AC EQ PUSH1 0x70 JUMPI PUSH4 0xC62DEE0D EQ PUSH1 0x52 JUMPI PUSH1 0x0 DUP1 REVERT JUMPDEST CALLVALUE PUSH1 0x6D JUMPI DUP1 PUSH1 0x3 NOT CALLDATASIZE ADD SLT PUSH1 0x6D JUMPI PUSH1 0xFF NOT PUSH1 0x1 SLOAD AND PUSH1 0x1 SSTORE DUP1 RETURN JUMPDEST DUP1 REVERT JUMPDEST POP CALLVALUE PUSH1 0x6D JUMPI DUP1 PUSH1 0x3 NOT CALLDATASIZE ADD SLT PUSH1 0x6D JUMPI PUSH1 0x20 PUSH1 0xFF PUSH1 0x1 SLOAD AND PUSH1 0x40 MLOAD SWAP1 ISZERO ISZERO DUP2 MSTORE RETURN JUMPDEST POP CALLVALUE PUSH1 0x6D JUMPI DUP1 PUSH1 0x3 NOT CALLDATASIZE ADD SLT PUSH1 0x6D JUMPI PUSH1 0x20 SWAP1 SLOAD PUSH1 0x40 MLOAD SWAP1 DUP2 MSTORE RETURN JUMPDEST SWAP1 POP CALLVALUE PUSH1 0xD2 JUMPI DUP2 PUSH1 0x3 NOT CALLDATASIZE ADD SLT PUSH1 0xD2 JUMPI PUSH1 0x40 SWAP2 SLOAD PUSH1 0xFF PUSH1 0x1 SLOAD AND SWAP1 DUP3 MSTORE ISZERO ISZERO PUSH1 0x20 DUP3 ADD MSTORE RETURN JUMPDEST POP DUP1 REVERT JUMPDEST DUP3 CALLVALUE PUSH1 0x6D JUMPI PUSH1 0x20 CALLDATASIZE PUSH1 0x3 NOT ADD SLT PUSH1 0x6D JUMPI PUSH1 0x4 CALLDATALOAD DUP2 SSTORE DUP1 RETURN INVALID LOG2 PUSH5 0x6970667358 0x22 SLT KECCAK256 0x4C PUSH20 0xB60E8FD9090A929BA12ADA6C65EDD90196561106 PUSH18 0x326AD073926191B53A64736F6C6343000814 STOP CALLER PUSH1 0x80 PUSH1 0x40 MSTORE CALLVALUE PUSH3 0x3B6 JUMPI PUSH3 0x14 PUSH3 0x3BB JUMP JUMPDEST PUSH3 0x1E PUSH3 0x3BB JUMP JUMPDEST DUP2 MLOAD SWAP1 SWAP2 SWAP1 PUSH1 0x1 PUSH1 0x1 PUSH1 0x40 SHL SUB SWAP1 DUP2 DUP2 GT PUSH3 0x2B6 JUMPI PUSH1 0x3 SWAP2 DUP3 SLOAD SWAP3 PUSH1 0x1 SWAP3 DUP4 DUP6 DUP2 SHR SWAP6 AND SWAP6 DUP7 ISZERO PUSH3 0x3AB JUMPI JUMPDEST PUSH1 0x20 SWAP7 DUP8 DUP8 LT EQ PUSH3 0x395 JUMPI DUP2 SWAP1 PUSH1 0x1F SWAP7 DUP8 DUP2 GT PUSH3 0x33F JUMPI JUMPDEST POP DUP8 SWAP1 DUP8 DUP4 GT PUSH1 0x1 EQ PUSH3 0x2D8 JUMPI PUSH1 0x0 SWAP3 PUSH3 0x2CC JUMPI JUMPDEST POP POP PUSH1 0x0 NOT DUP3 DUP5 SHL SHR NOT AND SWAP1 DUP5 SHL OR DUP2 SSTORE JUMPDEST DUP6 MLOAD SWAP2 DUP3 GT PUSH3 0x2B6 JUMPI PUSH1 0x4 SWAP6 DUP7 SLOAD DUP5 DUP2 DUP2 SHR SWAP2 AND DUP1 ISZERO PUSH3 0x2AB JUMPI JUMPDEST DUP8 DUP3 LT EQ PUSH3 0x296 JUMPI DUP6 DUP2 GT PUSH3 0x24B JUMPI JUMPDEST POP DUP6 SWAP1 DUP6 DUP5 GT PUSH1 0x1 EQ PUSH3 0x1E0 JUMPI SWAP4 DUP4 SWAP5 SWAP2 DUP5 SWAP3 PUSH1 0x0 SWAP6 PUSH3 0x1D4 JUMPI JUMPDEST POP POP SHL SWAP3 PUSH1 0x0 NOT SWAP2 SHL SHR NOT AND OR DUP4 SSTORE JUMPDEST PUSH1 0x12 PUSH1 0xFF NOT PUSH1 0x5 SLOAD AND OR PUSH1 0x5 SSTORE CALLER ISZERO PUSH3 0x193 JUMPI POP PUSH1 0x2 SLOAD PUSH28 0x6DF37F675EF6EADF5AB9A2072D44268D97DF837E6748956E5C6C2117 SWAP3 DUP4 DUP3 ADD DUP1 SWAP3 GT PUSH3 0x17E JUMPI POP PUSH1 0x0 SWAP2 PUSH32 0xDDF252AD1BE2C89B69C2B068FC378DAA952BA7F163C4A11628F55A4DF523B3EF SWAP2 PUSH1 0x2 SSTORE CALLER DUP4 MSTORE DUP3 DUP2 MSTORE PUSH1 0x40 DUP4 KECCAK256 DUP5 DUP2 SLOAD ADD SWAP1 SSTORE PUSH1 0x40 MLOAD SWAP4 DUP5 MSTORE CALLER SWAP4 LOG3 PUSH1 0x40 MLOAD PUSH2 0xC43 SWAP1 DUP2 PUSH3 0x3F2 DUP3 CODECOPY RETURN JUMPDEST PUSH1 0x11 SWAP1 PUSH4 0x4E487B71 PUSH1 0xE0 SHL PUSH1 0x0 MSTORE MSTORE PUSH1 0x24 PUSH1 0x0 REVERT JUMPDEST PUSH1 0x64 SWAP3 SWAP2 PUSH1 0x40 MLOAD SWAP3 PUSH3 0x461BCD PUSH1 0xE5 SHL DUP5 MSTORE DUP4 ADD MSTORE PUSH1 0x24 DUP3 ADD MSTORE PUSH32 0x45524332303A206D696E7420746F20746865207A65726F206164647265737300 PUSH1 0x44 DUP3 ADD MSTORE REVERT JUMPDEST ADD MLOAD SWAP4 POP CODESIZE DUP1 PUSH3 0xDB JUMP JUMPDEST SWAP2 SWAP1 PUSH1 0x1F NOT DUP5 AND SWAP3 DUP9 PUSH1 0x0 MSTORE DUP5 DUP9 PUSH1 0x0 KECCAK256 SWAP5 PUSH1 0x0 JUMPDEST DUP11 DUP10 DUP4 DUP4 LT PUSH3 0x233 JUMPI POP POP POP LT PUSH3 0x218 JUMPI JUMPDEST POP POP POP POP DUP2 SHL ADD DUP4 SSTORE PUSH3 0xEB JUMP JUMPDEST ADD MLOAD SWAP1 PUSH1 0xF8 DUP5 PUSH1 0x0 NOT SWAP3 SHL AND SHR NOT AND SWAP1 SSTORE CODESIZE DUP1 DUP1 DUP1 PUSH3 0x209 JUMP JUMPDEST DUP7 DUP7 ADD MLOAD DUP10 SSTORE SWAP1 SWAP8 ADD SWAP7 SWAP5 DUP6 ADD SWAP5 DUP9 SWAP4 POP ADD PUSH3 0x1F5 JUMP JUMPDEST DUP8 PUSH1 0x0 MSTORE DUP7 PUSH1 0x0 KECCAK256 DUP7 DUP1 DUP7 ADD PUSH1 0x5 SHR DUP3 ADD SWAP3 DUP10 DUP8 LT PUSH3 0x28C JUMPI JUMPDEST ADD PUSH1 0x5 SHR ADD SWAP1 DUP6 SWAP1 JUMPDEST DUP3 DUP2 LT PUSH3 0x27F JUMPI POP POP PUSH3 0xBE JUMP JUMPDEST PUSH1 0x0 DUP2 SSTORE ADD DUP6 SWAP1 PUSH3 0x26F JUMP JUMPDEST SWAP3 POP DUP2 SWAP3 PUSH3 0x266 JUMP JUMPDEST PUSH1 0x22 DUP9 PUSH4 0x4E487B71 PUSH1 0xE0 SHL PUSH1 0x0 MSTORE MSTORE PUSH1 0x24 PUSH1 0x0 REVERT JUMPDEST SWAP1 PUSH1 0x7F AND SWAP1 PUSH3 0xAC JUMP JUMPDEST PUSH4 0x4E487B71 PUSH1 0xE0 SHL PUSH1 0x0 MSTORE PUSH1 0x41 PUSH1 0x4 MSTORE PUSH1 0x24 PUSH1 0x0 REVERT JUMPDEST ADD MLOAD SWAP1 POP CODESIZE DUP1 PUSH3 0x7D JUMP JUMPDEST SWAP1 DUP7 SWAP4 POP PUSH1 0x1F NOT DUP4 AND SWAP2 DUP6 PUSH1 0x0 MSTORE DUP10 PUSH1 0x0 KECCAK256 SWAP3 PUSH1 0x0 JUMPDEST DUP12 DUP3 DUP3 LT PUSH3 0x328 JUMPI POP POP DUP5 GT PUSH3 0x30F JUMPI JUMPDEST POP POP POP DUP2 SHL ADD DUP2 SSTORE PUSH3 0x8F JUMP JUMPDEST ADD MLOAD PUSH1 0x0 NOT DUP4 DUP7 SHL PUSH1 0xF8 AND SHR NOT AND SWAP1 SSTORE CODESIZE DUP1 DUP1 PUSH3 0x301 JUMP JUMPDEST DUP4 DUP6 ADD MLOAD DUP7 SSTORE DUP11 SWAP8 SWAP1 SWAP6 ADD SWAP5 SWAP4 DUP5 ADD SWAP4 ADD PUSH3 0x2EE JUMP JUMPDEST SWAP1 SWAP2 POP DUP4 PUSH1 0x0 MSTORE DUP8 PUSH1 0x0 KECCAK256 DUP8 DUP1 DUP6 ADD PUSH1 0x5 SHR DUP3 ADD SWAP3 DUP11 DUP7 LT PUSH3 0x38B JUMPI JUMPDEST SWAP2 DUP9 SWAP2 DUP7 SWAP6 SWAP5 SWAP4 ADD PUSH1 0x5 SHR ADD SWAP2 JUMPDEST DUP3 DUP2 LT PUSH3 0x37B JUMPI POP POP PUSH3 0x66 JUMP JUMPDEST PUSH1 0x0 DUP2 SSTORE DUP6 SWAP5 POP DUP9 SWAP2 ADD PUSH3 0x36B JUMP JUMPDEST SWAP3 POP DUP2 SWAP3 PUSH3 0x35D JUMP JUMPDEST PUSH4 0x4E487B71 PUSH1 0xE0 SHL PUSH1 0x0 MSTORE PUSH1 0x22 PUSH1 0x4 MSTORE PUSH1 0x24 PUSH1 0x0 REVERT JUMPDEST SWAP5 PUSH1 0x7F AND SWAP5 PUSH3 0x4C JUMP JUMPDEST PUSH1 0x0 DUP1 REVERT JUMPDEST PUSH1 0x40 DUP1 MLOAD SWAP2 SWAP1 DUP3 ADD PUSH1 0x1 PUSH1 0x1 PUSH1 0x40 SHL SUB DUP2 GT DUP4 DUP3 LT OR PUSH3 0x2B6 JUMPI PUSH1 0x40 MSTORE PUSH1 0x9 DUP3 MSTORE PUSH9 0x45524332304D6F636B PUSH1 0xB8 SHL PUSH1 0x20 DUP4 ADD MSTORE JUMP INVALID PUSH1 0x80 PUSH1 0x40 DUP2 DUP2 MSTORE PUSH1 0x4 DUP1 CALLDATASIZE LT ISZERO PUSH2 0x15 JUMPI PUSH1 0x0 DUP1 REVERT JUMPDEST PUSH1 0x0 SWAP3 DUP4 CALLDATALOAD PUSH1 0xE0 SHR SWAP1 DUP2 PUSH4 0x6FDDE03 EQ PUSH2 0x649 JUMPI POP DUP1 PUSH4 0x95EA7B3 EQ PUSH2 0x615 JUMPI DUP1 PUSH4 0x18160DDD EQ PUSH2 0x5F6 JUMPI DUP1 PUSH4 0x23B872DD EQ PUSH2 0x5A8 JUMPI DUP1 PUSH4 0x313CE567 EQ PUSH2 0x140 JUMPI DUP1 PUSH4 0x39509351 EQ PUSH2 0x558 JUMPI DUP1 PUSH4 0x40C10F19 EQ PUSH2 0x499 JUMPI DUP1 PUSH4 0x42966C68 EQ PUSH2 0x47B JUMPI DUP1 PUSH4 0x5C2F5E26 EQ PUSH2 0x446 JUMPI DUP1 PUSH4 0x70A08231 EQ PUSH2 0x40E JUMPI DUP1 PUSH4 0x79CC6790 EQ PUSH2 0x3D4 JUMPI DUP1 PUSH4 0x7A1395AA EQ PUSH2 0x3A7 JUMPI DUP1 PUSH4 0x95D89B41 EQ PUSH2 0x287 JUMPI DUP1 PUSH4 0x9DC29FAC EQ PUSH2 0x255 JUMPI DUP1 PUSH4 0xA457C2D7 EQ PUSH2 0x1A5 JUMPI DUP1 PUSH4 0xA9059CBB EQ PUSH2 0x166 JUMPI DUP1 PUSH4 0xACE28FA5 EQ PUSH2 0x140 JUMPI PUSH4 0xDD62ED3E EQ PUSH2 0xE9 JUMPI PUSH1 0x0 DUP1 REVERT JUMPDEST CALLVALUE PUSH2 0x13C JUMPI DUP2 PUSH1 0x3 NOT CALLDATASIZE ADD SLT PUSH2 0x13C JUMPI PUSH1 0x1 PUSH1 0x1 PUSH1 0xA0 SHL SUB SWAP1 CALLDATALOAD DUP2 DUP2 AND SWAP1 DUP2 SWAP1 SUB PUSH2 0x138 JUMPI PUSH1 0x24 CALLDATALOAD SWAP2 DUP3 AND DUP1 SWAP3 SUB PUSH2 0x138 JUMPI SWAP3 DUP3 SWAP2 PUSH1 0x20 SWAP5 DUP3 MSTORE PUSH1 0x1 DUP6 MSTORE DUP3 DUP3 KECCAK256 SWAP1 DUP3 MSTORE DUP5 MSTORE KECCAK256 SLOAD SWAP1 MLOAD SWAP1 DUP2 MSTORE RETURN JUMPDEST DUP4 DUP1 REVERT JUMPDEST DUP3 DUP1 REVERT JUMPDEST POP POP CALLVALUE PUSH2 0x162 JUMPI DUP2 PUSH1 0x3 NOT CALLDATASIZE ADD SLT PUSH2 0x162 JUMPI PUSH1 0x20 SWAP1 PUSH1 0xFF PUSH1 0x5 SLOAD AND SWAP1 MLOAD SWAP1 DUP2 MSTORE RETURN JUMPDEST POP DUP1 REVERT JUMPDEST POP CALLVALUE PUSH2 0x13C JUMPI DUP2 PUSH1 0x3 NOT CALLDATASIZE ADD SLT PUSH2 0x13C JUMPI CALLDATALOAD SWAP2 PUSH1 0x1 PUSH1 0x1 PUSH1 0xA0 SHL SUB DUP4 AND DUP4 SUB PUSH2 0x1A2 JUMPI POP PUSH2 0x199 PUSH1 0x20 SWAP3 PUSH1 0x24 CALLDATALOAD SWAP1 PUSH2 0xBB9 JUMP JUMPDEST SWAP1 MLOAD SWAP1 ISZERO ISZERO DUP2 MSTORE RETURN JUMPDEST DUP1 REVERT JUMPDEST POP DUP3 CALLVALUE PUSH2 0x1A2 JUMPI DUP3 PUSH1 0x3 NOT CALLDATASIZE ADD SLT PUSH2 0x1A2 JUMPI DUP2 CALLDATALOAD SWAP2 PUSH1 0x1 PUSH1 0x1 PUSH1 0xA0 SHL SUB DUP4 AND SWAP2 DUP3 DUP5 SUB PUSH2 0x1A2 JUMPI DUP5 SWAP1 PUSH1 0x24 CALLDATALOAD SWAP4 CALLER DUP3 MSTORE PUSH1 0x1 PUSH1 0x20 MSTORE DUP3 DUP3 KECCAK256 SWAP1 DUP3 MSTORE PUSH1 0x20 MSTORE KECCAK256 SLOAD SWAP1 DUP3 DUP3 LT PUSH2 0x204 JUMPI PUSH1 0x20 DUP6 PUSH2 0x1FD DUP6 DUP6 SUB DUP8 CALLER PUSH2 0x918 JUMP JUMPDEST MLOAD PUSH1 0x1 DUP2 MSTORE RETURN JUMPDEST PUSH1 0x84 SWAP1 PUSH1 0x20 DUP7 MLOAD SWAP2 PUSH3 0x461BCD PUSH1 0xE5 SHL DUP4 MSTORE DUP3 ADD MSTORE PUSH1 0x25 PUSH1 0x24 DUP3 ADD MSTORE PUSH32 0x45524332303A2064656372656173656420616C6C6F77616E63652062656C6F77 PUSH1 0x44 DUP3 ADD MSTORE PUSH5 0x207A65726F PUSH1 0xD8 SHL PUSH1 0x64 DUP3 ADD MSTORE REVERT JUMPDEST POP SWAP1 CALLVALUE PUSH2 0x13C JUMPI CALLDATASIZE PUSH1 0x3 NOT ADD SLT PUSH2 0x162 JUMPI CALLDATALOAD PUSH1 0x1 PUSH1 0x1 PUSH1 0xA0 SHL SUB DUP2 AND DUP2 SUB PUSH2 0x162 JUMPI PUSH2 0x284 SWAP1 PUSH1 0x24 CALLDATALOAD SWAP1 PUSH2 0xAB2 JUMP JUMPDEST DUP1 RETURN JUMPDEST POP SWAP2 SWAP1 CALLVALUE PUSH2 0x162 JUMPI DUP2 PUSH1 0x3 NOT CALLDATASIZE ADD SLT PUSH2 0x162 JUMPI DUP1 MLOAD SWAP1 DUP3 DUP5 SLOAD PUSH1 0x1 DUP2 DUP2 SHR SWAP1 DUP1 DUP4 AND SWAP3 DUP4 ISZERO PUSH2 0x39D JUMPI JUMPDEST PUSH1 0x20 SWAP4 DUP5 DUP5 LT DUP2 EQ PUSH2 0x38A JUMPI DUP4 DUP9 MSTORE SWAP1 DUP2 ISZERO PUSH2 0x36E JUMPI POP PUSH1 0x1 EQ PUSH2 0x319 JUMPI JUMPDEST POP POP POP DUP3 SWAP1 SUB PUSH1 0x1F ADD PUSH1 0x1F NOT AND DUP3 ADD SWAP3 PUSH8 0xFFFFFFFFFFFFFFFF DUP5 GT DUP4 DUP6 LT OR PUSH2 0x306 JUMPI POP DUP3 SWAP2 DUP3 PUSH2 0x302 SWAP3 MSTORE DUP3 PUSH2 0x73E JUMP JUMPDEST SUB SWAP1 RETURN JUMPDEST PUSH4 0x4E487B71 PUSH1 0xE0 SHL DUP2 MSTORE PUSH1 0x41 DUP6 MSTORE PUSH1 0x24 SWAP1 REVERT JUMPDEST DUP8 DUP8 MSTORE SWAP2 SWAP3 POP DUP6 SWAP2 DUP4 PUSH32 0x8A35ACFBC15FF81A39AE7D344FD709F28E8600B4AA8C65C6B64BFE7FE36BD19B JUMPDEST DUP4 DUP6 LT PUSH2 0x35A JUMPI POP POP POP POP DUP4 ADD ADD CODESIZE DUP1 DUP1 PUSH2 0x2D0 JUMP JUMPDEST DUP1 SLOAD DUP9 DUP7 ADD DUP4 ADD MSTORE SWAP4 ADD SWAP3 DUP5 SWAP1 DUP3 ADD PUSH2 0x344 JUMP JUMPDEST PUSH1 0xFF NOT AND DUP8 DUP6 ADD MSTORE POP POP ISZERO ISZERO PUSH1 0x5 SHL DUP5 ADD ADD SWAP1 POP CODESIZE DUP1 DUP1 PUSH2 0x2D0 JUMP JUMPDEST PUSH4 0x4E487B71 PUSH1 0xE0 SHL DUP10 MSTORE PUSH1 0x22 DUP11 MSTORE PUSH1 0x24 DUP10 REVERT JUMPDEST SWAP2 PUSH1 0x7F AND SWAP2 PUSH2 0x2B1 JUMP JUMPDEST DUP4 DUP3 CALLVALUE PUSH2 0x162 JUMPI PUSH1 0x20 CALLDATASIZE PUSH1 0x3 NOT ADD SLT PUSH2 0x162 JUMPI CALLDATALOAD PUSH1 0xFF DUP2 AND DUP1 SWAP2 SUB PUSH2 0x162 JUMPI PUSH1 0xFF NOT PUSH1 0x5 SLOAD AND OR PUSH1 0x5 SSTORE DUP1 RETURN JUMPDEST POP SWAP1 CALLVALUE PUSH2 0x13C JUMPI CALLDATASIZE PUSH1 0x3 NOT ADD SLT PUSH2 0x162 JUMPI CALLDATALOAD PUSH1 0x1 PUSH1 0x1 PUSH1 0xA0 SHL SUB DUP2 AND DUP2 SUB PUSH2 0x162 JUMPI PUSH2 0x284 SWAP1 PUSH1 0x24 CALLDATALOAD SWAP1 PUSH2 0x409 DUP3 CALLER DUP4 PUSH2 0xA1A JUMP JUMPDEST PUSH2 0xAB2 JUMP JUMPDEST POP CALLVALUE PUSH2 0x13C JUMPI PUSH1 0x20 CALLDATASIZE PUSH1 0x3 NOT ADD SLT PUSH2 0x13C JUMPI CALLDATALOAD PUSH1 0x1 PUSH1 0x1 PUSH1 0xA0 SHL SUB DUP2 AND SWAP1 DUP2 SWAP1 SUB PUSH2 0x13C JUMPI DUP3 DUP3 SWAP2 PUSH1 0x20 SWAP5 MSTORE DUP1 DUP5 MSTORE KECCAK256 SLOAD SWAP1 MLOAD SWAP1 DUP2 MSTORE RETURN JUMPDEST DUP4 DUP3 CALLVALUE PUSH2 0x162 JUMPI PUSH1 0x20 CALLDATASIZE PUSH1 0x3 NOT ADD SLT PUSH2 0x162 JUMPI CALLDATALOAD PUSH1 0x3 DUP2 LT ISZERO PUSH2 0x162 JUMPI PUSH2 0xFF00 PUSH1 0x5 SLOAD SWAP2 PUSH1 0x8 SHL AND SWAP1 PUSH2 0xFF00 NOT AND OR PUSH1 0x5 SSTORE DUP1 RETURN JUMPDEST DUP4 DUP3 CALLVALUE PUSH2 0x162 JUMPI PUSH1 0x20 CALLDATASIZE PUSH1 0x3 NOT ADD SLT PUSH2 0x162 JUMPI PUSH2 0x284 SWAP1 CALLDATALOAD CALLER PUSH2 0xAB2 JUMP JUMPDEST POP CALLVALUE PUSH2 0x13C JUMPI DUP2 PUSH1 0x3 NOT CALLDATASIZE ADD SLT PUSH2 0x13C JUMPI DUP1 CALLDATALOAD PUSH1 0x1 PUSH1 0x1 PUSH1 0xA0 SHL SUB DUP2 AND SWAP3 SWAP1 DUP4 SWAP1 SUB PUSH2 0x138 JUMPI PUSH1 0x24 CALLDATALOAD SWAP2 DUP4 ISZERO PUSH2 0x516 JUMPI POP PUSH1 0x20 DUP3 PUSH32 0xDDF252AD1BE2C89B69C2B068FC378DAA952BA7F163C4A11628F55A4DF523B3EF SWAP3 PUSH2 0x4FC DUP8 SWAP6 PUSH1 0x2 SLOAD PUSH2 0x787 JUMP JUMPDEST PUSH1 0x2 SSTORE DUP6 DUP6 MSTORE DUP5 DUP4 MSTORE DUP1 DUP6 KECCAK256 DUP3 DUP2 SLOAD ADD SWAP1 SSTORE MLOAD SWAP1 DUP2 MSTORE LOG3 DUP1 RETURN JUMPDEST PUSH1 0x20 PUSH1 0x64 SWAP3 MLOAD SWAP2 PUSH3 0x461BCD PUSH1 0xE5 SHL DUP4 MSTORE DUP3 ADD MSTORE PUSH1 0x1F PUSH1 0x24 DUP3 ADD MSTORE PUSH32 0x45524332303A206D696E7420746F20746865207A65726F206164647265737300 PUSH1 0x44 DUP3 ADD MSTORE REVERT JUMPDEST POP CALLVALUE PUSH2 0x13C JUMPI DUP2 PUSH1 0x3 NOT CALLDATASIZE ADD SLT PUSH2 0x13C JUMPI CALLDATALOAD PUSH1 0x1 PUSH1 0x1 PUSH1 0xA0 SHL SUB DUP2 AND DUP1 DUP3 SUB PUSH2 0x138 JUMPI SWAP1 PUSH2 0x5A1 PUSH1 0x20 SWAP5 PUSH2 0x1FD SWAP4 CALLER DUP3 MSTORE PUSH1 0x1 DUP8 MSTORE DUP6 DUP3 KECCAK256 SWAP1 DUP3 MSTORE DUP7 MSTORE DUP5 PUSH1 0x24 CALLDATALOAD SWAP2 KECCAK256 SLOAD PUSH2 0x787 JUMP JUMPDEST SWAP1 CALLER PUSH2 0x918 JUMP JUMPDEST POP CALLVALUE PUSH2 0x13C JUMPI PUSH1 0x60 CALLDATASIZE PUSH1 0x3 NOT ADD SLT PUSH2 0x13C JUMPI CALLDATALOAD SWAP2 PUSH1 0x1 PUSH1 0x1 PUSH1 0xA0 SHL SUB SWAP1 DUP2 DUP5 AND DUP5 SUB PUSH2 0x1A2 JUMPI PUSH1 0x24 CALLDATALOAD SWAP2 DUP3 AND DUP3 SUB PUSH2 0x1A2 JUMPI POP PUSH1 0x20 SWAP3 PUSH2 0x1FD SWAP2 PUSH1 0x44 CALLDATALOAD SWAP2 PUSH2 0x5F1 DUP4 CALLER DUP4 PUSH2 0xA1A JUMP JUMPDEST PUSH2 0x7AA JUMP JUMPDEST POP POP CALLVALUE PUSH2 0x162 JUMPI DUP2 PUSH1 0x3 NOT CALLDATASIZE ADD SLT PUSH2 0x162 JUMPI PUSH1 0x20 SWAP1 PUSH1 0x2 SLOAD SWAP1 MLOAD SWAP1 DUP2 MSTORE RETURN JUMPDEST POP CALLVALUE PUSH2 0x13C JUMPI DUP2 PUSH1 0x3 NOT CALLDATASIZE ADD SLT PUSH2 0x13C JUMPI CALLDATALOAD SWAP2 PUSH1 0x1 PUSH1 0x1 PUSH1 0xA0 SHL SUB DUP4 AND DUP4 SUB PUSH2 0x1A2 JUMPI POP PUSH2 0x1FD PUSH1 0x20 SWAP3 PUSH1 0x24 CALLDATALOAD SWAP1 CALLER PUSH2 0x918 JUMP JUMPDEST DUP5 SWAP2 POP DUP4 CALLVALUE PUSH2 0x13C JUMPI DUP3 PUSH1 0x3 NOT CALLDATASIZE ADD SLT PUSH2 0x13C JUMPI DUP3 PUSH1 0x3 SLOAD PUSH1 0x1 DUP2 DUP2 SHR SWAP1 DUP1 DUP4 AND SWAP3 DUP4 ISZERO PUSH2 0x734 JUMPI JUMPDEST PUSH1 0x20 SWAP4 DUP5 DUP5 LT DUP2 EQ PUSH2 0x38A JUMPI DUP4 DUP9 MSTORE SWAP1 DUP2 ISZERO PUSH2 0x718 JUMPI POP PUSH1 0x1 EQ PUSH2 0x6C2 JUMPI POP POP POP DUP3 SWAP1 SUB PUSH1 0x1F ADD PUSH1 0x1F NOT AND DUP3 ADD SWAP3 PUSH8 0xFFFFFFFFFFFFFFFF DUP5 GT DUP4 DUP6 LT OR PUSH2 0x306 JUMPI POP DUP3 SWAP2 DUP3 PUSH2 0x302 SWAP3 MSTORE DUP3 PUSH2 0x73E JUMP JUMPDEST PUSH1 0x3 DUP8 MSTORE SWAP2 SWAP3 POP DUP6 SWAP2 DUP4 PUSH32 0xC2575A0E9E593C00F959F8C92F12DB2869C3395A3B0502D05E2516446F71F85B JUMPDEST DUP4 DUP6 LT PUSH2 0x704 JUMPI POP POP POP POP DUP4 ADD ADD DUP6 DUP1 DUP1 PUSH2 0x2D0 JUMP JUMPDEST DUP1 SLOAD DUP9 DUP7 ADD DUP4 ADD MSTORE SWAP4 ADD SWAP3 DUP5 SWAP1 DUP3 ADD PUSH2 0x6EE JUMP JUMPDEST PUSH1 0xFF NOT AND DUP8 DUP6 ADD MSTORE POP POP ISZERO ISZERO PUSH1 0x5 SHL DUP5 ADD ADD SWAP1 POP DUP6 DUP1 DUP1 PUSH2 0x2D0 JUMP JUMPDEST SWAP2 PUSH1 0x7F AND SWAP2 PUSH2 0x672 JUMP JUMPDEST PUSH1 0x20 DUP1 DUP3 MSTORE DUP3 MLOAD DUP2 DUP4 ADD DUP2 SWAP1 MSTORE SWAP1 SWAP4 SWAP3 PUSH1 0x0 JUMPDEST DUP3 DUP2 LT PUSH2 0x773 JUMPI POP POP PUSH1 0x40 SWAP3 SWAP4 POP PUSH1 0x0 DUP4 DUP3 DUP5 ADD ADD MSTORE PUSH1 0x1F DUP1 NOT SWAP2 ADD AND ADD ADD SWAP1 JUMP JUMPDEST DUP2 DUP2 ADD DUP7 ADD MLOAD DUP5 DUP3 ADD PUSH1 0x40 ADD MSTORE DUP6 ADD PUSH2 0x751 JUMP JUMPDEST SWAP2 SWAP1 DUP3 ADD DUP1 SWAP3 GT PUSH2 0x794 JUMPI JUMP JUMPDEST PUSH4 0x4E487B71 PUSH1 0xE0 SHL PUSH1 0x0 MSTORE PUSH1 0x11 PUSH1 0x4 MSTORE PUSH1 0x24 PUSH1 0x0 REVERT JUMPDEST PUSH1 0x1 PUSH1 0x1 PUSH1 0xA0 SHL SUB SWAP1 DUP2 AND SWAP2 DUP3 ISZERO PUSH2 0x8C5 JUMPI AND SWAP2 DUP3 ISZERO PUSH2 0x874 JUMPI PUSH1 0x0 DUP3 DUP2 MSTORE DUP1 PUSH1 0x20 MSTORE PUSH1 0x40 DUP2 KECCAK256 SLOAD SWAP2 DUP1 DUP4 LT PUSH2 0x820 JUMPI PUSH1 0x40 DUP3 DUP3 PUSH32 0xDDF252AD1BE2C89B69C2B068FC378DAA952BA7F163C4A11628F55A4DF523B3EF SWAP6 DUP8 PUSH1 0x20 SWAP7 MSTORE DUP3 DUP7 MSTORE SUB DUP3 DUP3 KECCAK256 SSTORE DUP7 DUP2 MSTORE KECCAK256 DUP2 DUP2 SLOAD ADD SWAP1 SSTORE PUSH1 0x40 MLOAD SWAP1 DUP2 MSTORE LOG3 JUMP JUMPDEST PUSH1 0x40 MLOAD PUSH3 0x461BCD PUSH1 0xE5 SHL DUP2 MSTORE PUSH1 0x20 PUSH1 0x4 DUP3 ADD MSTORE PUSH1 0x26 PUSH1 0x24 DUP3 ADD MSTORE PUSH32 0x45524332303A207472616E7366657220616D6F756E7420657863656564732062 PUSH1 0x44 DUP3 ADD MSTORE PUSH6 0x616C616E6365 PUSH1 0xD0 SHL PUSH1 0x64 DUP3 ADD MSTORE PUSH1 0x84 SWAP1 REVERT JUMPDEST PUSH1 0x40 MLOAD PUSH3 0x461BCD PUSH1 0xE5 SHL DUP2 MSTORE PUSH1 0x20 PUSH1 0x4 DUP3 ADD MSTORE PUSH1 0x23 PUSH1 0x24 DUP3 ADD MSTORE PUSH32 0x45524332303A207472616E7366657220746F20746865207A65726F2061646472 PUSH1 0x44 DUP3 ADD MSTORE PUSH3 0x657373 PUSH1 0xE8 SHL PUSH1 0x64 DUP3 ADD MSTORE PUSH1 0x84 SWAP1 REVERT JUMPDEST PUSH1 0x40 MLOAD PUSH3 0x461BCD PUSH1 0xE5 SHL DUP2 MSTORE PUSH1 0x20 PUSH1 0x4 DUP3 ADD MSTORE PUSH1 0x25 PUSH1 0x24 DUP3 ADD MSTORE PUSH32 0x45524332303A207472616E736665722066726F6D20746865207A65726F206164 PUSH1 0x44 DUP3 ADD MSTORE PUSH5 0x6472657373 PUSH1 0xD8 SHL PUSH1 0x64 DUP3 ADD MSTORE PUSH1 0x84 SWAP1 REVERT JUMPDEST PUSH1 0x1 PUSH1 0x1 PUSH1 0xA0 SHL SUB SWAP1 DUP2 AND SWAP2 DUP3 ISZERO PUSH2 0x9C9 JUMPI AND SWAP2 DUP3 ISZERO PUSH2 0x979 JUMPI PUSH1 0x20 PUSH32 0x8C5BE1E5EBEC7D5BD14F71427D1E84F3DD0314C0F7B2291E5B200AC8C7C3B925 SWAP2 DUP4 PUSH1 0x0 MSTORE PUSH1 0x1 DUP3 MSTORE PUSH1 0x40 PUSH1 0x0 KECCAK256 DUP6 PUSH1 0x0 MSTORE DUP3 MSTORE DUP1 PUSH1 0x40 PUSH1 0x0 KECCAK256 SSTORE PUSH1 0x40 MLOAD SWAP1 DUP2 MSTORE LOG3 JUMP JUMPDEST PUSH1 0x40 MLOAD PUSH3 0x461BCD PUSH1 0xE5 SHL DUP2 MSTORE PUSH1 0x20 PUSH1 0x4 DUP3 ADD MSTORE PUSH1 0x22 PUSH1 0x24 DUP3 ADD MSTORE PUSH32 0x45524332303A20617070726F766520746F20746865207A65726F206164647265 PUSH1 0x44 DUP3 ADD MSTORE PUSH2 0x7373 PUSH1 0xF0 SHL PUSH1 0x64 DUP3 ADD MSTORE PUSH1 0x84 SWAP1 REVERT JUMPDEST PUSH1 0x40 MLOAD PUSH3 0x461BCD PUSH1 0xE5 SHL DUP2 MSTORE PUSH1 0x20 PUSH1 0x4 DUP3 ADD MSTORE PUSH1 0x24 DUP1 DUP3 ADD MSTORE PUSH32 0x45524332303A20617070726F76652066726F6D20746865207A65726F20616464 PUSH1 0x44 DUP3 ADD MSTORE PUSH4 0x72657373 PUSH1 0xE0 SHL PUSH1 0x64 DUP3 ADD MSTORE PUSH1 0x84 SWAP1 REVERT JUMPDEST SWAP1 PUSH1 0x1 DUP1 PUSH1 0xA0 SHL SUB DUP1 DUP4 AND PUSH1 0x0 MSTORE PUSH1 0x1 PUSH1 0x20 MSTORE PUSH1 0x40 PUSH1 0x0 KECCAK256 SWAP1 DUP3 AND PUSH1 0x0 MSTORE PUSH1 0x20 MSTORE PUSH1 0x40 PUSH1 0x0 KECCAK256 SLOAD SWAP3 PUSH1 0x0 NOT DUP5 SUB PUSH2 0xA52 JUMPI JUMPDEST POP POP POP POP JUMP JUMPDEST DUP1 DUP5 LT PUSH2 0xA6D JUMPI PUSH2 0xA64 SWAP4 SUB SWAP2 PUSH2 0x918 JUMP JUMPDEST CODESIZE DUP1 DUP1 DUP1 PUSH2 0xA4C JUMP JUMPDEST PUSH1 0x40 MLOAD PUSH3 0x461BCD PUSH1 0xE5 SHL DUP2 MSTORE PUSH1 0x20 PUSH1 0x4 DUP3 ADD MSTORE PUSH1 0x1D PUSH1 0x24 DUP3 ADD MSTORE PUSH32 0x45524332303A20696E73756666696369656E7420616C6C6F77616E6365000000 PUSH1 0x44 DUP3 ADD MSTORE PUSH1 0x64 SWAP1 REVERT JUMPDEST PUSH1 0x1 PUSH1 0x1 PUSH1 0xA0 SHL SUB AND DUP1 ISZERO PUSH2 0xB6A JUMPI PUSH1 0x0 SWAP2 DUP2 DUP4 MSTORE DUP3 PUSH1 0x20 MSTORE PUSH1 0x40 DUP4 KECCAK256 SLOAD DUP2 DUP2 LT PUSH2 0xB1A JUMPI DUP2 PUSH32 0xDDF252AD1BE2C89B69C2B068FC378DAA952BA7F163C4A11628F55A4DF523B3EF SWAP3 PUSH1 0x20 SWAP3 DUP6 DUP8 MSTORE DUP7 DUP5 MSTORE SUB PUSH1 0x40 DUP7 KECCAK256 SSTORE DUP1 PUSH1 0x2 SLOAD SUB PUSH1 0x2 SSTORE PUSH1 0x40 MLOAD SWAP1 DUP2 MSTORE LOG3 JUMP JUMPDEST PUSH1 0x40 MLOAD PUSH3 0x461BCD PUSH1 0xE5 SHL DUP2 MSTORE PUSH1 0x20 PUSH1 0x4 DUP3 ADD MSTORE PUSH1 0x22 PUSH1 0x24 DUP3 ADD MSTORE PUSH32 0x45524332303A206275726E20616D6F756E7420657863656564732062616C616E PUSH1 0x44 DUP3 ADD MSTORE PUSH2 0x6365 PUSH1 0xF0 SHL PUSH1 0x64 DUP3 ADD MSTORE PUSH1 0x84 SWAP1 REVERT JUMPDEST PUSH1 0x40 MLOAD PUSH3 0x461BCD PUSH1 0xE5 SHL DUP2 MSTORE PUSH1 0x20 PUSH1 0x4 DUP3 ADD MSTORE PUSH1 0x21 PUSH1 0x24 DUP3 ADD MSTORE PUSH32 0x45524332303A206275726E2066726F6D20746865207A65726F20616464726573 PUSH1 0x44 DUP3 ADD MSTORE PUSH1 0x73 PUSH1 0xF8 SHL PUSH1 0x64 DUP3 ADD MSTORE PUSH1 0x84 SWAP1 REVERT JUMPDEST SWAP1 PUSH1 0xFF PUSH1 0x5 SLOAD PUSH1 0x8 SHR AND PUSH1 0x3 DUP2 LT ISZERO PUSH2 0xBF7 JUMPI PUSH1 0x1 DUP2 EQ PUSH2 0xBEF JUMPI PUSH1 0x2 EQ PUSH2 0xBEA JUMPI PUSH2 0xBE5 SWAP2 CALLER PUSH2 0x7AA JUMP JUMPDEST PUSH1 0x1 SWAP1 JUMP JUMPDEST PUSH1 0x0 DUP1 REVERT JUMPDEST POP POP POP PUSH1 0x0 SWAP1 JUMP JUMPDEST PUSH4 0x4E487B71 PUSH1 0xE0 SHL PUSH1 0x0 MSTORE PUSH1 0x21 PUSH1 0x4 MSTORE PUSH1 0x24 PUSH1 0x0 REVERT INVALID LOG2 PUSH5 0x6970667358 0x22 SLT KECCAK256 0xA8 SWAP12 DUP15 0xB2 SDIV 0xFC LOG4 0xC3 0xB7 LOG0 JUMP 0x4B GASPRICE REVERT 0x2D PUSH8 0xB29AEFC0CBAC4ACE 0xF8 PUSH21 0xD11A8D593A7264736F6C6343000814003360803461 STOP 0x5D JUMPI PUSH1 0x1F PUSH2 0x19B CODESIZE DUP2 SWAP1 SUB SWAP2 DUP3 ADD PUSH1 0x1F NOT AND DUP4 ADD SWAP2 PUSH1 0x1 PUSH1 0x1 PUSH1 0x40 SHL SUB DUP4 GT DUP5 DUP5 LT OR PUSH2 0x62 JUMPI DUP1 DUP5 SWAP3 PUSH1 0x20 SWAP5 PUSH1 0x40 MSTORE DUP4 CODECOPY DUP2 ADD SUB SLT PUSH2 0x5D JUMPI MLOAD PUSH1 0x0 SSTORE PUSH1 0x1 PUSH1 0xFF NOT DUP2 SLOAD AND OR PUSH1 0x1 SSTORE PUSH1 0x40 MLOAD PUSH2 0x122 SWAP1 DUP2 PUSH2 0x79 DUP3 CODECOPY RETURN JUMPDEST PUSH1 0x0 DUP1 REVERT JUMPDEST PUSH4 0x4E487B71 PUSH1 0xE0 SHL PUSH1 0x0 MSTORE PUSH1 0x41 PUSH1 0x4 MSTORE PUSH1 0x24 PUSH1 0x0 REVERT INVALID PUSH1 0x80 DUP1 PUSH1 0x40 MSTORE PUSH1 0x4 CALLDATASIZE LT ISZERO PUSH1 0x12 JUMPI PUSH1 0x0 DUP1 REVERT JUMPDEST PUSH1 0x0 SWAP1 DUP2 CALLDATALOAD PUSH1 0xE0 SHR SWAP1 DUP2 PUSH4 0x2A3F4389 EQ PUSH1 0xD0 JUMPI POP DUP1 PUSH4 0x32145F90 EQ PUSH1 0xB8 JUMPI DUP1 PUSH4 0x5095E3D9 EQ PUSH1 0x9C JUMPI DUP1 PUSH4 0x59E02DD7 EQ PUSH1 0x75 JUMPI PUSH4 0xB689D5AC EQ PUSH1 0x52 JUMPI PUSH1 0x0 DUP1 REVERT JUMPDEST CALLVALUE PUSH1 0x72 JUMPI DUP1 PUSH1 0x3 NOT CALLDATASIZE ADD SLT PUSH1 0x72 JUMPI PUSH1 0x20 PUSH1 0xFF PUSH1 0x1 SLOAD AND PUSH1 0x40 MLOAD SWAP1 ISZERO ISZERO DUP2 MSTORE RETURN JUMPDEST DUP1 REVERT JUMPDEST POP CALLVALUE PUSH1 0x72 JUMPI DUP1 PUSH1 0x3 NOT CALLDATASIZE ADD SLT PUSH1 0x72 JUMPI PUSH1 0x40 SWAP1 SLOAD PUSH1 0xFF PUSH1 0x1 SLOAD AND DUP3 MLOAD SWAP2 DUP3 MSTORE ISZERO ISZERO PUSH1 0x20 DUP3 ADD MSTORE RETURN JUMPDEST POP CALLVALUE PUSH1 0x72 JUMPI DUP1 PUSH1 0x3 NOT CALLDATASIZE ADD SLT PUSH1 0x72 JUMPI PUSH1 0xFF NOT PUSH1 0x1 SLOAD AND PUSH1 0x1 SSTORE DUP1 RETURN JUMPDEST POP CALLVALUE PUSH1 0x72 JUMPI PUSH1 0x20 CALLDATASIZE PUSH1 0x3 NOT ADD SLT PUSH1 0x72 JUMPI PUSH1 0x4 CALLDATALOAD DUP2 SSTORE DUP1 RETURN JUMPDEST SWAP1 POP CALLVALUE PUSH1 0xE8 JUMPI DUP2 PUSH1 0x3 NOT CALLDATASIZE ADD SLT PUSH1 0xE8 JUMPI PUSH1 0x20 SWAP2 SLOAD DUP2 MSTORE RETURN JUMPDEST POP DUP1 REVERT INVALID LOG2 PUSH5 0x6970667358 0x22 SLT KECCAK256 PUSH19 0xD2893E184264A56256407BB10B2744402AF538 SMOD 0xDB 0xE6 0xD8 0xCA 0xC8 0xF7 PUSH22 0x960D5C7864736F6C6343000814003360808060405234 PUSH2 0x23 JUMPI PUSH1 0x1 PUSH1 0xFF NOT PUSH1 0x0 SLOAD AND OR PUSH1 0x0 SSTORE PUSH2 0x19A SWAP1 DUP2 PUSH2 0x29 DUP3 CODECOPY RETURN JUMPDEST PUSH1 0x0 DUP1 REVERT INVALID PUSH1 0x80 DUP1 PUSH1 0x40 MSTORE PUSH1 0x4 DUP1 CALLDATASIZE LT ISZERO PUSH2 0x14 JUMPI PUSH1 0x0 DUP1 REVERT JUMPDEST PUSH1 0x0 SWAP2 DUP3 CALLDATALOAD PUSH1 0xE0 SHR SWAP1 DUP2 PUSH4 0x57E6C2F4 EQ PUSH2 0x145 JUMPI POP DUP3 DUP2 PUSH4 0x8C777E82 EQ PUSH2 0xB5 JUMPI POP DUP1 PUSH4 0x9E0A8E09 EQ PUSH2 0x89 JUMPI PUSH4 0xD994D6D5 EQ PUSH2 0x50 JUMPI PUSH1 0x0 DUP1 REVERT JUMPDEST CALLVALUE PUSH2 0x85 JUMPI PUSH1 0x20 CALLDATASIZE PUSH1 0x3 NOT ADD SLT PUSH2 0x85 JUMPI CALLDATALOAD PUSH1 0x1 PUSH1 0x1 PUSH1 0xA0 SHL SUB DUP2 AND SUB PUSH2 0x82 JUMPI PUSH1 0xFF PUSH1 0x20 SWAP2 SLOAD AND PUSH1 0x40 MLOAD SWAP1 ISZERO ISZERO DUP2 MSTORE RETURN JUMPDEST DUP1 REVERT JUMPDEST POP DUP1 REVERT JUMPDEST POP CALLVALUE PUSH2 0x85 JUMPI PUSH1 0x20 CALLDATASIZE PUSH1 0x3 NOT ADD SLT PUSH2 0x85 JUMPI CALLDATALOAD DUP1 ISZERO ISZERO DUP1 SWAP2 SUB PUSH2 0x85 JUMPI PUSH1 0xFF DUP1 NOT DUP4 SLOAD AND SWAP2 AND OR DUP2 SSTORE DUP1 RETURN JUMPDEST DUP1 DUP4 CALLVALUE PUSH2 0x142 JUMPI PUSH1 0x20 CALLDATASIZE PUSH1 0x3 NOT ADD SLT PUSH2 0x142 JUMPI DUP1 CALLDATALOAD PUSH1 0x1 PUSH1 0x1 PUSH1 0xA0 SHL SUB DUP2 AND SWAP1 DUP2 SWAP1 SUB PUSH2 0x13E JUMPI DUP1 EXTCODESIZE ISZERO PUSH2 0x13E JUMPI DUP3 SWAP1 DUP3 PUSH1 0x40 MLOAD DUP1 SWAP6 DUP2 SWAP4 PUSH4 0x18518655 PUSH1 0xE2 SHL DUP4 MSTORE GAS CALL DUP1 ISZERO PUSH2 0x133 JUMPI PUSH2 0x107 JUMPI DUP3 DUP1 RETURN JUMPDEST PUSH8 0xFFFFFFFFFFFFFFFF DUP3 GT PUSH2 0x120 JUMPI POP PUSH1 0x40 MSTORE DUP2 DUP1 DUP3 DUP1 RETURN JUMPDEST PUSH4 0x4E487B71 PUSH1 0xE0 SHL DUP4 MSTORE PUSH1 0x41 SWAP1 MSTORE PUSH1 0x24 DUP3 REVERT JUMPDEST PUSH1 0x40 MLOAD RETURNDATASIZE DUP6 DUP3 RETURNDATACOPY RETURNDATASIZE SWAP1 REVERT JUMPDEST POP POP REVERT JUMPDEST POP REVERT JUMPDEST DUP4 SWAP1 CALLVALUE PUSH2 0x85 JUMPI DUP2 PUSH1 0x3 NOT CALLDATASIZE ADD SLT PUSH2 0x85 JUMPI PUSH1 0xFF PUSH1 0x20 SWAP3 SLOAD AND ISZERO ISZERO DUP2 MSTORE RETURN INVALID LOG2 PUSH5 0x6970667358 0x22 SLT KECCAK256 0xDB ORIGIN PUSH1 0x8F 0x1F PUSH13 0xB45E0039AB366EC4B054A5B78A 0xC7 0xE1 DUP7 0xDA DIFFICULTY 0xAE 0xE7 ADD 0x49 JUMPDEST 0xD2 0x2F KECCAK256 PUSH5 0x736F6C6343 STOP ADDMOD EQ STOP CALLER PUSH1 0xA0 DUP1 PUSH1 0x40 MSTORE CALLVALUE PUSH3 0xE1 JUMPI ADDRESS PUSH1 0x80 MSTORE PUSH1 0x0 SLOAD SWAP1 PUSH1 0xFF DUP3 PUSH1 0x8 SHR AND PUSH3 0x8F JUMPI POP PUSH1 0xFF DUP1 DUP3 AND SUB PUSH3 0x53 JUMPI JUMPDEST PUSH1 0x40 MLOAD PUSH2 0x4B66 SWAP1 DUP2 PUSH3 0xE7 DUP3 CODECOPY PUSH1 0x80 MLOAD DUP2 DUP2 DUP2 PUSH2 0x106E ADD MSTORE DUP2 DUP2 PUSH2 0x11DD ADD MSTORE PUSH2 0x22F8 ADD MSTORE RETURN JUMPDEST PUSH1 0xFF SWAP1 DUP2 NOT AND OR PUSH1 0x0 SSTORE PUSH32 0x7F26B83FF96E1F2B6A682F133852F6798A09C465DA95921460CEFB3847402498 PUSH1 0x20 PUSH1 0x40 MLOAD PUSH1 0xFF DUP2 MSTORE LOG1 CODESIZE PUSH3 0x2C JUMP JUMPDEST PUSH3 0x461BCD PUSH1 0xE5 SHL DUP2 MSTORE PUSH1 0x20 PUSH1 0x4 DUP3 ADD MSTORE PUSH1 0x27 PUSH1 0x24 DUP3 ADD MSTORE PUSH32 0x496E697469616C697A61626C653A20636F6E747261637420697320696E697469 PUSH1 0x44 DUP3 ADD MSTORE PUSH7 0x616C697A696E67 PUSH1 0xC8 SHL PUSH1 0x64 DUP3 ADD MSTORE PUSH1 0x84 SWAP1 REVERT JUMPDEST PUSH1 0x0 DUP1 REVERT INVALID PUSH1 0x80 PUSH1 0x40 MSTORE PUSH1 0x4 CALLDATASIZE LT ISZERO PUSH2 0x1B JUMPI JUMPDEST CALLDATASIZE ISZERO PUSH2 0x19 JUMPI PUSH1 0x0 DUP1 REVERT JUMPDEST STOP JUMPDEST PUSH1 0x0 CALLDATALOAD PUSH1 0xE0 SHR DUP1 PUSH3 0xC6E88E EQ PUSH2 0x27E9 JUMPI DUP1 PUSH4 0x1FFC9A7 EQ PUSH2 0x2793 JUMPI DUP1 PUSH4 0xC340A24 EQ PUSH2 0x276A JUMPI DUP1 PUSH4 0x1826EBF0 EQ PUSH2 0x2706 JUMPI DUP1 PUSH4 0x1A0C5440 EQ PUSH2 0x2698 JUMPI DUP1 PUSH4 0x24524EA1 EQ PUSH2 0x2642 JUMPI DUP1 PUSH4 0x248A9CA3 EQ PUSH2 0x2612 JUMPI DUP1 PUSH4 0x2B994849 EQ PUSH2 0x25F3 JUMPI DUP1 PUSH4 0x2D88AF4A EQ PUSH2 0x259E JUMPI DUP1 PUSH4 0x2F2FF15D EQ PUSH2 0x2565 JUMPI DUP1 PUSH4 0x34975A41 EQ PUSH2 0x23F3 JUMPI DUP1 PUSH4 0x36568ABE EQ PUSH2 0x235F JUMPI DUP1 PUSH4 0x3659CFE6 EQ PUSH2 0x22C6 JUMPI DUP1 PUSH4 0x3BB4B05C EQ PUSH2 0x2283 JUMPI DUP1 PUSH4 0x3CBCF4C4 EQ PUSH2 0x225E JUMPI DUP1 PUSH4 0x3F4BA83A EQ PUSH2 0x2169 JUMPI DUP1 PUSH4 0x435C7E37 EQ PUSH2 0x20DF JUMPI DUP1 PUSH4 0x47D8496A EQ PUSH2 0x200E JUMPI DUP1 PUSH4 0x4981D04E EQ PUSH2 0x1F67 JUMPI DUP1 PUSH4 0x4B5A9E3D EQ PUSH2 0x1F33 JUMPI DUP1 PUSH4 0x4B64E492 EQ PUSH2 0x1240 JUMPI DUP1 PUSH4 0x4F1EF286 EQ PUSH2 0x1156 JUMPI DUP1 PUSH4 0x5210570C EQ PUSH2 0x1131 JUMPI DUP1 PUSH4 0x52D1902D EQ PUSH2 0x105B JUMPI DUP1 PUSH4 0x5C817AA3 EQ PUSH2 0xFF7 JUMPI DUP1 PUSH4 0x5C975ABB EQ PUSH2 0xFD1 JUMPI DUP1 PUSH4 0x5EE1D2BB EQ PUSH2 0xF87 JUMPI DUP1 PUSH4 0x681FE70C EQ PUSH2 0xF63 JUMPI DUP1 PUSH4 0x68274357 EQ PUSH2 0xF3B JUMPI DUP1 PUSH4 0x6B59C22F EQ PUSH2 0xE6A JUMPI DUP1 PUSH4 0x6B763330 EQ PUSH2 0xE06 JUMPI DUP1 PUSH4 0x73E3D086 EQ PUSH2 0xDE7 JUMPI DUP1 PUSH4 0x7C50B7E4 EQ PUSH2 0xDA3 JUMPI DUP1 PUSH4 0x7E81A821 EQ PUSH2 0xCD2 JUMPI DUP1 PUSH4 0x8456CB59 EQ PUSH2 0xC3C JUMPI DUP1 PUSH4 0x8A4737AB EQ PUSH2 0xBDD JUMPI DUP1 PUSH4 0x8B20076C EQ PUSH2 0xB7E JUMPI DUP1 PUSH4 0x8E7E8189 EQ PUSH2 0xB56 JUMPI DUP1 PUSH4 0x91D14854 EQ PUSH2 0xB03 JUMPI DUP1 PUSH4 0x9FD0506D EQ PUSH2 0xAD6 JUMPI DUP1 PUSH4 0xA217FDDF EQ PUSH2 0xABA JUMPI DUP1 PUSH4 0xAD16C2DE EQ PUSH2 0xA4C JUMPI DUP1 PUSH4 0xBB4872DE EQ PUSH2 0xA29 JUMPI DUP1 PUSH4 0xBBE720D9 EQ PUSH2 0x9B4 JUMPI DUP1 PUSH4 0xC84D8BB6 EQ PUSH2 0x8E3 JUMPI DUP1 PUSH4 0xCAEB12B6 EQ PUSH2 0x8B9 JUMPI DUP1 PUSH4 0xD547741F EQ PUSH2 0x880 JUMPI DUP1 PUSH4 0xDB901477 EQ PUSH2 0x5DA JUMPI DUP1 PUSH4 0xDBB0B684 EQ PUSH2 0x5B8 JUMPI DUP1 PUSH4 0xE4C0AAF4 EQ PUSH2 0x572 JUMPI DUP1 PUSH4 0xE4E1B729 EQ PUSH2 0x4A1 JUMPI DUP1 PUSH4 0xE97A4D63 EQ PUSH2 0x3D0 JUMPI DUP1 PUSH4 0xFA91A9A5 EQ PUSH2 0x2D9 JUMPI PUSH4 0xFB8AAFB8 SUB PUSH2 0xE JUMPI CALLVALUE PUSH2 0x2D4 JUMPI PUSH1 0x20 CALLDATASIZE PUSH1 0x3 NOT ADD SLT PUSH2 0x2D4 JUMPI PUSH1 0x4 CALLDATALOAD PUSH1 0x0 MSTORE PUSH2 0x262 PUSH1 0x20 MSTORE PUSH1 0x40 PUSH1 0x0 KECCAK256 PUSH1 0x1 DUP1 PUSH1 0xA0 SHL SUB PUSH2 0x2D0 DUP2 DUP4 SLOAD AND SWAP2 PUSH1 0x1 DUP5 ADD SLOAD SWAP4 PUSH1 0x2 DUP2 ADD SLOAD SWAP2 DUP1 PUSH1 0x3 DUP4 ADD SLOAD AND SWAP1 PUSH1 0x5 DUP2 PUSH1 0x4 DUP6 ADD SLOAD AND SWAP4 ADD SLOAD AND SWAP3 PUSH1 0x40 MLOAD SWAP7 DUP8 SWAP7 DUP8 PUSH2 0x2969 JUMP JUMPDEST SUB SWAP1 RETURN JUMPDEST PUSH1 0x0 DUP1 REVERT JUMPDEST PUSH1 0xA0 CALLDATASIZE PUSH1 0x3 NOT ADD SLT PUSH2 0x2D4 JUMPI PUSH2 0x2ED PUSH2 0x2F5F JUMP JUMPDEST PUSH2 0x304 PUSH1 0x0 DUP1 MLOAD PUSH1 0x20 PUSH2 0x4B11 DUP4 CODECOPY DUP2 MLOAD SWAP2 MSTORE PUSH2 0x45F0 JUMP JUMPDEST PUSH2 0x31A PUSH2 0x314 PUSH1 0x2 PUSH2 0x1F7 PUSH2 0x28FD JUMP JUMPDEST SLOAD PUSH2 0x49EE JUMP JUMPDEST PUSH2 0x25D DUP1 SLOAD PUSH1 0x40 MLOAD SWAP2 PUSH2 0x32E PUSH1 0x40 DUP5 PUSH2 0x2915 JUMP JUMPDEST PUSH1 0x2 DUP4 MSTORE PUSH1 0x20 DUP4 ADD SWAP3 PUSH1 0x1 DUP1 PUSH1 0xF8 SHL SUB NUMBER AND DUP5 MSTORE DUP3 PUSH1 0x0 MSTORE PUSH2 0x268 PUSH1 0x20 MSTORE PUSH1 0x40 PUSH1 0x0 KECCAK256 SWAP1 MLOAD PUSH1 0xA DUP2 LT ISZERO PUSH2 0x3BA JUMPI PUSH1 0xFF PUSH1 0x20 SWAP6 DUP2 NOT SWAP1 MLOAD PUSH1 0x8 SHL AND SWAP2 AND OR SWAP1 SSTORE DUP2 PUSH1 0x0 MSTORE PUSH2 0x261 DUP4 MSTORE PUSH2 0x386 PUSH1 0x4 PUSH1 0x40 PUSH1 0x0 KECCAK256 PUSH2 0x4558 JUMP JUMPDEST PUSH1 0x40 MLOAD DUP3 DUP2 MSTORE PUSH1 0x2 DUP5 DUP3 ADD MSTORE PUSH1 0x0 DUP1 MLOAD PUSH1 0x20 PUSH2 0x4AF1 DUP4 CODECOPY DUP2 MLOAD SWAP2 MSTORE PUSH1 0x40 CALLER SWAP3 LOG2 PUSH2 0x3B0 DUP2 SLOAD PUSH2 0x45CB JUMP JUMPDEST SWAP1 SSTORE PUSH1 0x40 MLOAD SWAP1 DUP2 MSTORE RETURN JUMPDEST PUSH4 0x4E487B71 PUSH1 0xE0 SHL PUSH1 0x0 MSTORE PUSH1 0x21 PUSH1 0x4 MSTORE PUSH1 0x24 PUSH1 0x0 REVERT JUMPDEST PUSH1 0xA0 CALLDATASIZE PUSH1 0x3 NOT ADD SLT PUSH2 0x2D4 JUMPI PUSH2 0x3E4 PUSH2 0x2F5F JUMP JUMPDEST PUSH2 0x3FB PUSH1 0x0 DUP1 MLOAD PUSH1 0x20 PUSH2 0x4B11 DUP4 CODECOPY DUP2 MLOAD SWAP2 MSTORE PUSH2 0x45F0 JUMP JUMPDEST PUSH2 0x40B PUSH2 0x314 PUSH1 0x1 PUSH2 0x1F7 PUSH2 0x28FD JUMP JUMPDEST PUSH2 0x25D DUP1 SLOAD PUSH1 0x40 MLOAD SWAP2 PUSH2 0x41F PUSH1 0x40 DUP5 PUSH2 0x2915 JUMP JUMPDEST PUSH1 0x1 DUP4 MSTORE PUSH1 0x20 DUP4 ADD SWAP3 PUSH1 0x1 DUP1 PUSH1 0xF8 SHL SUB NUMBER AND DUP5 MSTORE DUP3 PUSH1 0x0 MSTORE PUSH2 0x268 PUSH1 0x20 MSTORE PUSH1 0x40 PUSH1 0x0 KECCAK256 SWAP1 MLOAD PUSH1 0xA DUP2 LT ISZERO PUSH2 0x3BA JUMPI PUSH1 0xFF PUSH1 0x20 SWAP6 DUP2 NOT SWAP1 MLOAD PUSH1 0x8 SHL AND SWAP2 AND OR SWAP1 SSTORE DUP2 PUSH1 0x0 MSTORE PUSH2 0x25F DUP4 MSTORE PUSH2 0x477 PUSH1 0x4 PUSH1 0x40 PUSH1 0x0 KECCAK256 PUSH2 0x4558 JUMP JUMPDEST PUSH1 0x40 MLOAD DUP3 DUP2 MSTORE PUSH1 0x1 DUP5 DUP3 ADD MSTORE PUSH1 0x0 DUP1 MLOAD PUSH1 0x20 PUSH2 0x4AF1 DUP4 CODECOPY DUP2 MLOAD SWAP2 MSTORE PUSH1 0x40 CALLER SWAP3 LOG2 PUSH2 0x3B0 DUP2 SLOAD PUSH2 0x45CB JUMP JUMPDEST PUSH1 0xE0 CALLDATASIZE PUSH1 0x3 NOT ADD SLT PUSH2 0x2D4 JUMPI PUSH2 0x4B5 PUSH2 0x2F5F JUMP JUMPDEST PUSH2 0x4CC PUSH1 0x0 DUP1 MLOAD PUSH1 0x20 PUSH2 0x4B11 DUP4 CODECOPY DUP2 MLOAD SWAP2 MSTORE PUSH2 0x45F0 JUMP JUMPDEST PUSH2 0x4DC PUSH2 0x314 PUSH1 0x6 PUSH2 0x1F7 PUSH2 0x28FD JUMP JUMPDEST PUSH2 0x25D DUP1 SLOAD PUSH1 0x40 MLOAD SWAP2 PUSH2 0x4F0 PUSH1 0x40 DUP5 PUSH2 0x2915 JUMP JUMPDEST PUSH1 0x6 DUP4 MSTORE PUSH1 0x20 DUP4 ADD SWAP3 PUSH1 0x1 DUP1 PUSH1 0xF8 SHL SUB NUMBER AND DUP5 MSTORE DUP3 PUSH1 0x0 MSTORE PUSH2 0x268 PUSH1 0x20 MSTORE PUSH1 0x40 PUSH1 0x0 KECCAK256 SWAP1 MLOAD PUSH1 0xA DUP2 LT ISZERO PUSH2 0x3BA JUMPI PUSH1 0xFF PUSH1 0x20 SWAP6 DUP2 NOT SWAP1 MLOAD PUSH1 0x8 SHL AND SWAP2 AND OR SWAP1 SSTORE DUP2 PUSH1 0x0 MSTORE PUSH2 0x264 DUP4 MSTORE PUSH2 0x548 PUSH1 0x4 PUSH1 0x40 PUSH1 0x0 KECCAK256 PUSH2 0x4891 JUMP JUMPDEST PUSH1 0x40 MLOAD DUP3 DUP2 MSTORE PUSH1 0x6 DUP5 DUP3 ADD MSTORE PUSH1 0x0 DUP1 MLOAD PUSH1 0x20 PUSH2 0x4AF1 DUP4 CODECOPY DUP2 MLOAD SWAP2 MSTORE PUSH1 0x40 CALLER SWAP3 LOG2 PUSH2 0x3B0 DUP2 SLOAD PUSH2 0x45CB JUMP JUMPDEST CALLVALUE PUSH2 0x2D4 JUMPI PUSH1 0x20 CALLDATASIZE PUSH1 0x3 NOT ADD SLT PUSH2 0x2D4 JUMPI PUSH1 0x4 CALLDATALOAD PUSH1 0x1 PUSH1 0x1 PUSH1 0xA0 SHL SUB DUP2 AND SWAP1 DUP2 SWAP1 SUB PUSH2 0x2D4 JUMPI PUSH2 0x5A0 PUSH2 0x2EEC JUMP JUMPDEST PUSH1 0x1 PUSH1 0x1 PUSH1 0x60 SHL SUB PUSH1 0xA0 SHL PUSH1 0x97 SLOAD AND OR PUSH1 0x97 SSTORE PUSH1 0x0 DUP1 RETURN JUMPDEST CALLVALUE PUSH2 0x2D4 JUMPI PUSH1 0x0 CALLDATASIZE PUSH1 0x3 NOT ADD SLT PUSH2 0x2D4 JUMPI PUSH1 0x20 PUSH2 0x269 SLOAD PUSH1 0x80 SHR PUSH1 0x40 MLOAD SWAP1 DUP2 MSTORE RETURN JUMPDEST CALLVALUE PUSH2 0x2D4 JUMPI PUSH2 0x1A0 CALLDATASIZE PUSH1 0x3 NOT ADD SLT PUSH2 0x2D4 JUMPI PUSH1 0x1 PUSH1 0x1 PUSH1 0xA0 SHL SUB PUSH1 0x4 CALLDATALOAD DUP2 DUP2 AND SWAP1 DUP2 SWAP1 SUB PUSH2 0x2D4 JUMPI PUSH1 0x24 CALLDATALOAD SWAP2 DUP3 AND DUP3 SUB PUSH2 0x2D4 JUMPI PUSH1 0x44 CALLDATALOAD PUSH1 0x1 PUSH1 0x1 PUSH1 0x80 SHL SUB SWAP3 DUP4 DUP3 AND DUP1 SWAP3 SUB PUSH2 0x2D4 JUMPI PUSH1 0x64 CALLDATALOAD SWAP4 DUP5 AND DUP5 SUB PUSH2 0x2D4 JUMPI PUSH2 0x120 CALLDATASIZE PUSH1 0x83 NOT ADD SLT PUSH2 0x2D4 JUMPI PUSH1 0x0 SLOAD SWAP3 PUSH1 0xFF DUP5 PUSH1 0x8 SHR AND ISZERO SWAP4 DUP5 DUP1 SWAP6 PUSH2 0x873 JUMPI JUMPDEST DUP1 ISZERO PUSH2 0x85C JUMPI JUMPDEST ISZERO PUSH2 0x800 JUMPI PUSH2 0x6F0 SWAP3 PUSH1 0x1 SWAP2 DUP7 DUP4 PUSH1 0xFF NOT DUP4 AND OR PUSH1 0x0 SSTORE PUSH2 0x7EE JUMPI JUMPDEST POP PUSH1 0xFF PUSH1 0x0 SLOAD PUSH1 0x8 SHR AND SWAP3 PUSH2 0x689 DUP5 PUSH2 0x2F80 JUMP JUMPDEST PUSH2 0x692 DUP5 PUSH2 0x2F80 JUMP JUMPDEST PUSH2 0x69B DUP5 PUSH2 0x2F80 JUMP JUMPDEST PUSH2 0x6A4 DUP5 PUSH2 0x2F80 JUMP JUMPDEST PUSH2 0x6AD DUP5 PUSH2 0x2F80 JUMP JUMPDEST PUSH1 0x1 PUSH1 0x1 PUSH1 0x60 SHL SUB PUSH1 0xA0 SHL PUSH1 0x97 SLOAD AND OR PUSH1 0x97 SSTORE PUSH2 0x6C9 DUP4 PUSH2 0x2F80 JUMP JUMPDEST PUSH1 0xCA SLOAD SWAP1 PUSH3 0x10000 DUP4 PUSH1 0xB0 SHL SUB SWAP1 PUSH1 0x10 SHL AND SWAP1 PUSH2 0xFF01 DUP4 PUSH1 0xB0 SHL SUB NOT AND OR OR PUSH1 0xCA SSTORE PUSH2 0x2F80 JUMP JUMPDEST PUSH2 0x1F7 PUSH1 0x84 CALLDATALOAD PUSH2 0x701 PUSH1 0x1 DUP4 PUSH2 0x28FD JUMP JUMPDEST SSTORE PUSH1 0xA4 CALLDATALOAD PUSH2 0x710 PUSH1 0x2 DUP4 PUSH2 0x28FD JUMP JUMPDEST SSTORE PUSH1 0xC4 CALLDATALOAD PUSH2 0x71F PUSH1 0x3 DUP4 PUSH2 0x28FD JUMP JUMPDEST SSTORE PUSH1 0xE4 CALLDATALOAD PUSH2 0x72E PUSH1 0x4 DUP4 PUSH2 0x28FD JUMP JUMPDEST SSTORE PUSH2 0x104 CALLDATALOAD PUSH2 0x73E PUSH1 0x9 DUP4 PUSH2 0x28FD JUMP JUMPDEST SSTORE PUSH2 0x124 CALLDATALOAD PUSH2 0x74E PUSH1 0x8 DUP4 PUSH2 0x28FD JUMP JUMPDEST SSTORE PUSH2 0x144 CALLDATALOAD PUSH2 0x75E PUSH1 0x7 DUP4 PUSH2 0x28FD JUMP JUMPDEST SSTORE PUSH2 0x164 CALLDATALOAD PUSH2 0x76E PUSH1 0x6 DUP4 PUSH2 0x28FD JUMP JUMPDEST SSTORE PUSH2 0x77E PUSH1 0x5 PUSH2 0x184 CALLDATALOAD SWAP3 PUSH2 0x28FD JUMP JUMPDEST SSTORE PUSH1 0x0 SLOAD SWAP3 PUSH2 0x79B PUSH1 0xFF DUP6 PUSH1 0x8 SHR AND PUSH2 0x796 DUP2 PUSH2 0x2F80 JUMP JUMPDEST PUSH2 0x2F80 JUMP JUMPDEST PUSH1 0x1 PUSH2 0x22A SSTORE PUSH1 0x80 SHL PUSH1 0x1 PUSH1 0x1 PUSH1 0x80 SHL SUB NOT AND OR PUSH2 0x269 SSTORE PUSH2 0x7B9 JUMPI STOP JUMPDEST PUSH2 0xFF00 NOT AND PUSH1 0x0 SSTORE PUSH32 0x7F26B83FF96E1F2B6A682F133852F6798A09C465DA95921460CEFB3847402498 PUSH1 0x20 PUSH1 0x40 MLOAD PUSH1 0x1 DUP2 MSTORE LOG1 STOP JUMPDEST PUSH2 0xFFFF NOT AND PUSH2 0x101 OR PUSH1 0x0 SSTORE DUP8 PUSH2 0x675 JUMP JUMPDEST PUSH1 0x40 MLOAD PUSH3 0x461BCD PUSH1 0xE5 SHL DUP2 MSTORE PUSH1 0x20 PUSH1 0x4 DUP3 ADD MSTORE PUSH1 0x2E PUSH1 0x24 DUP3 ADD MSTORE PUSH32 0x496E697469616C697A61626C653A20636F6E747261637420697320616C726561 PUSH1 0x44 DUP3 ADD MSTORE PUSH14 0x191E481A5B9A5D1A585B1A5E9959 PUSH1 0x92 SHL PUSH1 0x64 DUP3 ADD MSTORE PUSH1 0x84 SWAP1 REVERT JUMPDEST POP ADDRESS EXTCODESIZE ISZERO DUP1 ISZERO PUSH2 0x659 JUMPI POP PUSH1 0x1 PUSH1 0xFF DUP3 AND EQ PUSH2 0x659 JUMP JUMPDEST POP PUSH1 0x1 PUSH1 0xFF DUP3 AND LT PUSH2 0x652 JUMP JUMPDEST CALLVALUE PUSH2 0x2D4 JUMPI PUSH1 0x40 CALLDATASIZE PUSH1 0x3 NOT ADD SLT PUSH2 0x2D4 JUMPI PUSH1 0x4 CALLDATALOAD PUSH1 0x24 CALLDATALOAD PUSH1 0x1 PUSH1 0x1 PUSH1 0xA0 SHL SUB DUP2 AND DUP2 SUB PUSH2 0x2D4 JUMPI DUP2 PUSH2 0x8B4 PUSH2 0x19 SWAP4 PUSH2 0x49F8 JUMP JUMPDEST PUSH2 0x29A3 JUMP JUMPDEST CALLVALUE PUSH2 0x2D4 JUMPI PUSH1 0x0 CALLDATASIZE PUSH1 0x3 NOT ADD SLT PUSH2 0x2D4 JUMPI PUSH2 0x25C SLOAD PUSH1 0x40 MLOAD PUSH1 0x1 PUSH1 0x1 PUSH1 0xA0 SHL SUB SWAP1 SWAP2 AND DUP2 MSTORE PUSH1 0x20 SWAP1 RETURN JUMPDEST PUSH1 0xC0 CALLDATASIZE PUSH1 0x3 NOT ADD SLT PUSH2 0x2D4 JUMPI PUSH2 0x8F7 PUSH2 0x2F5F JUMP JUMPDEST PUSH2 0x90E PUSH1 0x0 DUP1 MLOAD PUSH1 0x20 PUSH2 0x4B11 DUP4 CODECOPY DUP2 MLOAD SWAP2 MSTORE PUSH2 0x45F0 JUMP JUMPDEST PUSH2 0x91E PUSH2 0x314 PUSH1 0x4 PUSH2 0x1F7 PUSH2 0x28FD JUMP JUMPDEST PUSH2 0x25D DUP1 SLOAD PUSH1 0x40 MLOAD SWAP2 PUSH2 0x932 PUSH1 0x40 DUP5 PUSH2 0x2915 JUMP JUMPDEST PUSH1 0x4 DUP4 MSTORE PUSH1 0x20 DUP4 ADD SWAP3 PUSH1 0x1 DUP1 PUSH1 0xF8 SHL SUB NUMBER AND DUP5 MSTORE DUP3 PUSH1 0x0 MSTORE PUSH2 0x268 PUSH1 0x20 MSTORE PUSH1 0x40 PUSH1 0x0 KECCAK256 SWAP1 MLOAD PUSH1 0xA DUP2 LT ISZERO PUSH2 0x3BA JUMPI PUSH1 0xFF PUSH1 0x20 SWAP6 DUP2 NOT SWAP1 MLOAD PUSH1 0x8 SHL AND SWAP2 AND OR SWAP1 SSTORE DUP2 PUSH1 0x0 MSTORE PUSH2 0x262 DUP4 MSTORE PUSH2 0x98A PUSH1 0x4 PUSH1 0x40 PUSH1 0x0 KECCAK256 PUSH2 0x4826 JUMP JUMPDEST PUSH1 0x40 MLOAD DUP3 DUP2 MSTORE PUSH1 0x4 DUP5 DUP3 ADD MSTORE PUSH1 0x0 DUP1 MLOAD PUSH1 0x20 PUSH2 0x4AF1 DUP4 CODECOPY DUP2 MLOAD SWAP2 MSTORE PUSH1 0x40 CALLER SWAP3 LOG2 PUSH2 0x3B0 DUP2 SLOAD PUSH2 0x45CB JUMP JUMPDEST CALLVALUE PUSH2 0x2D4 JUMPI PUSH1 0x20 CALLDATASIZE PUSH1 0x3 NOT ADD SLT PUSH2 0x2D4 JUMPI PUSH1 0x1 PUSH1 0x1 PUSH1 0xA0 SHL SUB PUSH1 0x4 CALLDATALOAD DUP2 DUP2 AND SWAP1 DUP2 SWAP1 SUB PUSH2 0x2D4 JUMPI PUSH2 0x9E3 PUSH2 0x2EEC JUMP JUMPDEST PUSH2 0x25C DUP1 SLOAD SWAP3 DUP4 AND PUSH2 0xA17 JUMPI DUP2 PUSH2 0x19 SWAP4 PUSH1 0x1 PUSH1 0x1 PUSH1 0x60 SHL SUB PUSH1 0xA0 SHL AND OR SWAP1 SSTORE PUSH1 0x0 DUP1 MLOAD PUSH1 0x20 PUSH2 0x4B11 DUP4 CODECOPY DUP2 MLOAD SWAP2 MSTORE PUSH2 0x496C JUMP JUMPDEST PUSH1 0x40 MLOAD PUSH4 0xA646B77 PUSH1 0xE4 SHL DUP2 MSTORE PUSH1 0x4 SWAP1 REVERT JUMPDEST CALLVALUE PUSH2 0x2D4 JUMPI PUSH1 0x0 CALLDATASIZE PUSH1 0x3 NOT ADD SLT PUSH2 0x2D4 JUMPI PUSH1 0x20 PUSH1 0xFF PUSH1 0xCA SLOAD AND PUSH1 0x40 MLOAD SWAP1 ISZERO ISZERO DUP2 MSTORE RETURN JUMPDEST CALLVALUE PUSH2 0x2D4 JUMPI PUSH1 0x20 CALLDATASIZE PUSH1 0x3 NOT ADD SLT PUSH2 0x2D4 JUMPI PUSH1 0x4 DUP1 CALLDATALOAD PUSH1 0x0 SWAP1 DUP2 MSTORE PUSH2 0x261 PUSH1 0x20 SWAP1 DUP2 MSTORE PUSH1 0x40 SWAP2 DUP3 SWAP1 KECCAK256 DUP1 SLOAD PUSH1 0x1 DUP3 ADD SLOAD PUSH1 0x2 DUP4 ADD SLOAD PUSH1 0x3 DUP5 ADD SLOAD SWAP4 SWAP1 SWAP7 ADD SLOAD DUP6 MLOAD SWAP3 DUP4 MSTORE SWAP4 DUP3 ADD MSTORE PUSH1 0x1 PUSH1 0x1 PUSH1 0xA0 SHL SUB SWAP5 DUP6 AND SWAP4 DUP2 ADD SWAP4 SWAP1 SWAP4 MSTORE DUP4 AND PUSH1 0x60 DUP4 ADD MSTORE SWAP2 SWAP1 SWAP2 AND PUSH1 0x80 DUP3 ADD MSTORE PUSH1 0xA0 SWAP1 RETURN JUMPDEST CALLVALUE PUSH2 0x2D4 JUMPI PUSH1 0x0 CALLDATASIZE PUSH1 0x3 NOT ADD SLT PUSH2 0x2D4 JUMPI PUSH1 0x20 PUSH1 0x40 MLOAD PUSH1 0x0 DUP2 MSTORE RETURN JUMPDEST CALLVALUE PUSH2 0x2D4 JUMPI PUSH1 0x0 CALLDATASIZE PUSH1 0x3 NOT ADD SLT PUSH2 0x2D4 JUMPI PUSH1 0xCA SLOAD PUSH1 0x40 MLOAD PUSH1 0x10 SWAP2 SWAP1 SWAP2 SHR PUSH1 0x1 PUSH1 0x1 PUSH1 0xA0 SHL SUB AND DUP2 MSTORE PUSH1 0x20 SWAP1 RETURN JUMPDEST CALLVALUE PUSH2 0x2D4 JUMPI PUSH1 0x40 CALLDATASIZE PUSH1 0x3 NOT ADD SLT PUSH2 0x2D4 JUMPI PUSH1 0x24 CALLDATALOAD PUSH1 0x1 PUSH1 0x1 PUSH1 0xA0 SHL SUB DUP2 AND SWAP1 DUP2 SWAP1 SUB PUSH2 0x2D4 JUMPI PUSH1 0x4 CALLDATALOAD PUSH1 0x0 MSTORE PUSH2 0x193 PUSH1 0x20 MSTORE PUSH1 0x40 PUSH1 0x0 KECCAK256 SWAP1 PUSH1 0x0 MSTORE PUSH1 0x20 MSTORE PUSH1 0x20 PUSH1 0xFF PUSH1 0x40 PUSH1 0x0 KECCAK256 SLOAD AND PUSH1 0x40 MLOAD SWAP1 ISZERO ISZERO DUP2 MSTORE RETURN JUMPDEST CALLVALUE PUSH2 0x2D4 JUMPI PUSH1 0x0 CALLDATASIZE PUSH1 0x3 NOT ADD SLT PUSH2 0x2D4 JUMPI PUSH1 0x20 PUSH1 0x1 PUSH1 0x1 PUSH1 0x80 SHL SUB PUSH2 0x269 SLOAD AND PUSH1 0x40 MLOAD SWAP1 DUP2 MSTORE RETURN JUMPDEST CALLVALUE PUSH2 0x2D4 JUMPI PUSH1 0x20 CALLDATASIZE PUSH1 0x3 NOT ADD SLT PUSH2 0x2D4 JUMPI PUSH1 0x4 CALLDATALOAD PUSH1 0x0 MSTORE PUSH2 0x263 PUSH1 0x20 MSTORE PUSH1 0x40 PUSH1 0x0 KECCAK256 PUSH1 0x1 DUP1 PUSH1 0xA0 SHL SUB PUSH2 0x2D0 DUP2 DUP4 SLOAD AND SWAP2 PUSH1 0x1 DUP5 ADD SLOAD SWAP4 PUSH1 0x2 DUP2 ADD SLOAD SWAP2 DUP1 PUSH1 0x3 DUP4 ADD SLOAD AND SWAP1 PUSH1 0x5 DUP2 PUSH1 0x4 DUP6 ADD SLOAD AND SWAP4 ADD SLOAD AND SWAP3 PUSH1 0x40 MLOAD SWAP7 DUP8 SWAP7 DUP8 PUSH2 0x2969 JUMP JUMPDEST CALLVALUE PUSH2 0x2D4 JUMPI PUSH1 0x20 CALLDATASIZE PUSH1 0x3 NOT ADD SLT PUSH2 0x2D4 JUMPI PUSH1 0x4 CALLDATALOAD PUSH1 0x0 MSTORE PUSH2 0x260 PUSH1 0x20 MSTORE PUSH1 0x40 PUSH1 0x0 KECCAK256 PUSH1 0x1 DUP1 PUSH1 0xA0 SHL SUB PUSH2 0x2D0 DUP2 DUP4 SLOAD AND SWAP2 PUSH1 0x1 DUP5 ADD SLOAD SWAP4 PUSH1 0x2 DUP2 ADD SLOAD SWAP2 DUP1 PUSH1 0x3 DUP4 ADD SLOAD AND SWAP1 PUSH1 0x5 DUP2 PUSH1 0x4 DUP6 ADD SLOAD AND SWAP4 ADD SLOAD AND SWAP3 PUSH1 0x40 MLOAD SWAP7 DUP8 SWAP7 DUP8 PUSH2 0x2969 JUMP JUMPDEST CALLVALUE PUSH2 0x2D4 JUMPI PUSH1 0x0 CALLDATASIZE PUSH1 0x3 NOT ADD SLT PUSH2 0x2D4 JUMPI PUSH2 0xC55 PUSH2 0x2F5F JUMP JUMPDEST PUSH1 0xCA SLOAD PUSH1 0x10 DUP2 SWAP1 SHR PUSH1 0x1 PUSH1 0x1 PUSH1 0xA0 SHL SUB AND CALLER SUB PUSH2 0xCC0 JUMPI PUSH1 0xFF DUP2 AND ISZERO PUSH2 0xCAE JUMPI PUSH2 0x100 SWAP1 PUSH2 0xFF00 NOT AND OR PUSH1 0xCA SSTORE PUSH32 0x62E78CEA01BEE320CD4E420270B5EA74000D11B0C9F74754EBDBFC544B05A258 PUSH1 0x20 PUSH1 0x40 MLOAD CALLER DUP2 MSTORE LOG1 STOP JUMPDEST PUSH1 0x40 MLOAD PUSH4 0x866099C3 PUSH1 0xE0 SHL DUP2 MSTORE PUSH1 0x4 SWAP1 REVERT JUMPDEST PUSH1 0x40 MLOAD PUSH4 0x1D77D477 PUSH1 0xE2 SHL DUP2 MSTORE PUSH1 0x4 SWAP1 REVERT JUMPDEST PUSH1 0xC0 CALLDATASIZE PUSH1 0x3 NOT ADD SLT PUSH2 0x2D4 JUMPI PUSH2 0xCE6 PUSH2 0x2F5F JUMP JUMPDEST PUSH2 0xCFD PUSH1 0x0 DUP1 MLOAD PUSH1 0x20 PUSH2 0x4B11 DUP4 CODECOPY DUP2 MLOAD SWAP2 MSTORE PUSH2 0x45F0 JUMP JUMPDEST PUSH2 0xD0D PUSH2 0x314 PUSH1 0x3 PUSH2 0x1F7 PUSH2 0x28FD JUMP JUMPDEST PUSH2 0x25D DUP1 SLOAD PUSH1 0x40 MLOAD SWAP2 PUSH2 0xD21 PUSH1 0x40 DUP5 PUSH2 0x2915 JUMP JUMPDEST PUSH1 0x3 DUP4 MSTORE PUSH1 0x20 DUP4 ADD SWAP3 PUSH1 0x1 DUP1 PUSH1 0xF8 SHL SUB NUMBER AND DUP5 MSTORE DUP3 PUSH1 0x0 MSTORE PUSH2 0x268 PUSH1 0x20 MSTORE PUSH1 0x40 PUSH1 0x0 KECCAK256 SWAP1 MLOAD PUSH1 0xA DUP2 LT ISZERO PUSH2 0x3BA JUMPI PUSH1 0xFF PUSH1 0x20 SWAP6 DUP2 NOT SWAP1 MLOAD PUSH1 0x8 SHL AND SWAP2 AND OR SWAP1 SSTORE DUP2 PUSH1 0x0 MSTORE PUSH2 0x260 DUP4 MSTORE PUSH2 0xD79 PUSH1 0x4 PUSH1 0x40 PUSH1 0x0 KECCAK256 PUSH2 0x4826 JUMP JUMPDEST PUSH1 0x40 MLOAD DUP3 DUP2 MSTORE PUSH1 0x3 DUP5 DUP3 ADD MSTORE PUSH1 0x0 DUP1 MLOAD PUSH1 0x20 PUSH2 0x4AF1 DUP4 CODECOPY DUP2 MLOAD SWAP2 MSTORE PUSH1 0x40 CALLER SWAP3 LOG2 PUSH2 0x3B0 DUP2 SLOAD PUSH2 0x45CB JUMP JUMPDEST CALLVALUE PUSH2 0x2D4 JUMPI PUSH1 0x20 CALLDATASIZE PUSH1 0x3 NOT ADD SLT PUSH2 0x2D4 JUMPI PUSH1 0x4 CALLDATALOAD PUSH1 0x0 MSTORE PUSH2 0x268 PUSH1 0x20 MSTORE PUSH1 0x40 PUSH1 0x0 KECCAK256 SLOAD PUSH1 0xFF DUP2 AND SWAP1 PUSH1 0x40 MLOAD SWAP1 PUSH1 0xA DUP4 LT ISZERO PUSH2 0x3BA JUMPI PUSH1 0x40 SWAP3 DUP3 MSTORE PUSH1 0x8 SHR PUSH1 0x20 DUP3 ADD MSTORE RETURN JUMPDEST CALLVALUE PUSH2 0x2D4 JUMPI PUSH1 0x0 CALLDATASIZE PUSH1 0x3 NOT ADD SLT PUSH2 0x2D4 JUMPI PUSH1 0x20 PUSH2 0x25D SLOAD PUSH1 0x40 MLOAD SWAP1 DUP2 MSTORE RETURN JUMPDEST CALLVALUE PUSH2 0x2D4 JUMPI PUSH1 0x20 CALLDATASIZE PUSH1 0x3 NOT ADD SLT PUSH2 0x2D4 JUMPI PUSH1 0x4 CALLDATALOAD PUSH1 0x0 MSTORE PUSH2 0x264 PUSH1 0x20 MSTORE PUSH1 0x40 PUSH1 0x0 KECCAK256 PUSH1 0x1 DUP1 PUSH1 0xA0 SHL SUB PUSH2 0x2D0 DUP2 DUP4 SLOAD AND SWAP2 PUSH1 0x1 DUP5 ADD SLOAD SWAP4 PUSH1 0x2 DUP2 ADD SLOAD SWAP2 PUSH1 0x3 DUP3 ADD SLOAD DUP2 PUSH1 0x4 DUP5 ADD SLOAD AND SWAP2 PUSH1 0x6 DUP2 PUSH1 0x5 DUP7 ADD SLOAD AND SWAP5 ADD SLOAD AND SWAP4 PUSH1 0x40 MLOAD SWAP8 DUP9 SWAP8 DUP9 PUSH2 0x28BA JUMP JUMPDEST PUSH1 0xE0 CALLDATASIZE PUSH1 0x3 NOT ADD SLT PUSH2 0x2D4 JUMPI PUSH2 0xE7E PUSH2 0x2F5F JUMP JUMPDEST PUSH2 0xE95 PUSH1 0x0 DUP1 MLOAD PUSH1 0x20 PUSH2 0x4B11 DUP4 CODECOPY DUP2 MLOAD SWAP2 MSTORE PUSH2 0x45F0 JUMP JUMPDEST PUSH2 0xEA5 PUSH2 0x314 PUSH1 0x7 PUSH2 0x1F7 PUSH2 0x28FD JUMP JUMPDEST PUSH2 0x25D DUP1 SLOAD PUSH1 0x40 MLOAD SWAP2 PUSH2 0xEB9 PUSH1 0x40 DUP5 PUSH2 0x2915 JUMP JUMPDEST PUSH1 0x7 DUP4 MSTORE PUSH1 0x20 DUP4 ADD SWAP3 PUSH1 0x1 DUP1 PUSH1 0xF8 SHL SUB NUMBER AND DUP5 MSTORE DUP3 PUSH1 0x0 MSTORE PUSH2 0x268 PUSH1 0x20 MSTORE PUSH1 0x40 PUSH1 0x0 KECCAK256 SWAP1 MLOAD PUSH1 0xA DUP2 LT ISZERO PUSH2 0x3BA JUMPI PUSH1 0xFF PUSH1 0x20 SWAP6 DUP2 NOT SWAP1 MLOAD PUSH1 0x8 SHL AND SWAP2 AND OR SWAP1 SSTORE DUP2 PUSH1 0x0 MSTORE PUSH2 0x265 DUP4 MSTORE PUSH2 0xF11 PUSH1 0x4 PUSH1 0x40 PUSH1 0x0 KECCAK256 PUSH2 0x4891 JUMP JUMPDEST PUSH1 0x40 MLOAD DUP3 DUP2 MSTORE PUSH1 0x7 DUP5 DUP3 ADD MSTORE PUSH1 0x0 DUP1 MLOAD PUSH1 0x20 PUSH2 0x4AF1 DUP4 CODECOPY DUP2 MLOAD SWAP2 MSTORE PUSH1 0x40 CALLER SWAP3 LOG2 PUSH2 0x3B0 DUP2 SLOAD PUSH2 0x45CB JUMP JUMPDEST CALLVALUE PUSH2 0x2D4 JUMPI PUSH1 0x0 CALLDATASIZE PUSH1 0x3 NOT ADD SLT PUSH2 0x2D4 JUMPI PUSH2 0xF54 PUSH2 0x2EEC JUMP JUMPDEST PUSH1 0xCA DUP1 SLOAD PUSH1 0xFF NOT AND PUSH1 0x1 OR SWAP1 SSTORE STOP JUMPDEST CALLVALUE PUSH2 0x2D4 JUMPI PUSH1 0x0 CALLDATASIZE PUSH1 0x3 NOT ADD SLT PUSH2 0x2D4 JUMPI PUSH1 0x20 PUSH2 0x25E SLOAD PUSH2 0x25D SLOAD EQ PUSH1 0x40 MLOAD SWAP1 DUP2 MSTORE RETURN JUMPDEST CALLVALUE PUSH2 0x2D4 JUMPI PUSH1 0x20 CALLDATASIZE PUSH1 0x3 NOT ADD SLT PUSH2 0x2D4 JUMPI PUSH1 0x1 PUSH1 0x1 PUSH1 0x80 SHL SUB PUSH1 0x4 CALLDATALOAD DUP2 DUP2 AND DUP2 SUB PUSH2 0x2D4 JUMPI PUSH2 0xFB4 PUSH2 0x2EEC JUMP JUMPDEST PUSH2 0x269 DUP1 SLOAD SWAP1 SWAP3 AND PUSH1 0x80 SWAP2 SWAP1 SWAP2 SHL PUSH1 0x1 PUSH1 0x1 PUSH1 0x80 SHL SUB NOT AND OR SWAP1 SSTORE STOP JUMPDEST CALLVALUE PUSH2 0x2D4 JUMPI PUSH1 0x0 CALLDATASIZE PUSH1 0x3 NOT ADD SLT PUSH2 0x2D4 JUMPI PUSH1 0x20 PUSH1 0xFF PUSH1 0xCA SLOAD PUSH1 0x8 SHR AND PUSH1 0x40 MLOAD SWAP1 ISZERO ISZERO DUP2 MSTORE RETURN JUMPDEST CALLVALUE PUSH2 0x2D4 JUMPI PUSH1 0x20 CALLDATASIZE PUSH1 0x3 NOT ADD SLT PUSH2 0x2D4 JUMPI PUSH1 0x4 CALLDATALOAD PUSH1 0x0 MSTORE PUSH2 0x266 PUSH1 0x20 MSTORE PUSH1 0x40 PUSH1 0x0 KECCAK256 PUSH1 0x1 DUP1 PUSH1 0xA0 SHL SUB PUSH2 0x2D0 DUP2 DUP4 SLOAD AND SWAP2 PUSH1 0x1 DUP5 ADD SLOAD SWAP4 PUSH1 0x2 DUP2 ADD SLOAD SWAP2 PUSH1 0x3 DUP3 ADD SLOAD DUP2 PUSH1 0x4 DUP5 ADD SLOAD AND SWAP2 PUSH1 0x6 DUP2 PUSH1 0x5 DUP7 ADD SLOAD AND SWAP5 ADD SLOAD AND SWAP4 PUSH1 0x40 MLOAD SWAP8 DUP9 SWAP8 DUP9 PUSH2 0x28BA JUMP JUMPDEST CALLVALUE PUSH2 0x2D4 JUMPI PUSH1 0x0 CALLDATASIZE PUSH1 0x3 NOT ADD SLT PUSH2 0x2D4 JUMPI PUSH32 0x0 PUSH1 0x1 PUSH1 0x1 PUSH1 0xA0 SHL SUB AND ADDRESS SUB PUSH2 0x10C6 JUMPI PUSH1 0x20 PUSH1 0x40 MLOAD PUSH32 0x360894A13BA1A3210667C828492DB98DCA3E2076CC3735A920A3CA505D382BBC DUP2 MSTORE RETURN JUMPDEST PUSH1 0x40 MLOAD PUSH3 0x461BCD PUSH1 0xE5 SHL DUP2 MSTORE PUSH1 0x20 PUSH1 0x4 DUP3 ADD MSTORE PUSH1 0x38 PUSH1 0x24 DUP3 ADD MSTORE PUSH32 0x555550535570677261646561626C653A206D757374206E6F742062652063616C PUSH1 0x44 DUP3 ADD MSTORE PUSH32 0x6C6564207468726F7567682064656C656761746563616C6C0000000000000000 PUSH1 0x64 DUP3 ADD MSTORE PUSH1 0x84 SWAP1 REVERT JUMPDEST CALLVALUE PUSH2 0x2D4 JUMPI PUSH1 0x0 CALLDATASIZE PUSH1 0x3 NOT ADD SLT PUSH2 0x2D4 JUMPI PUSH2 0x114A PUSH2 0x2EEC JUMP JUMPDEST PUSH1 0xCA DUP1 SLOAD PUSH1 0xFF NOT AND SWAP1 SSTORE STOP JUMPDEST PUSH1 0x40 CALLDATASIZE PUSH1 0x3 NOT ADD SLT PUSH2 0x2D4 JUMPI PUSH1 0x1 PUSH1 0x1 PUSH1 0xA0 SHL SUB PUSH1 0x4 CALLDATALOAD DUP2 DUP2 AND DUP2 SUB PUSH2 0x2D4 JUMPI PUSH1 0x24 CALLDATALOAD PUSH8 0xFFFFFFFFFFFFFFFF DUP2 GT PUSH2 0x2D4 JUMPI CALLDATASIZE PUSH1 0x23 DUP3 ADD SLT ISZERO PUSH2 0x2D4 JUMPI DUP1 PUSH1 0x4 ADD CALLDATALOAD SWAP2 PUSH2 0x11A2 DUP4 PUSH2 0x294D JUMP JUMPDEST SWAP2 PUSH2 0x11B0 PUSH1 0x40 MLOAD SWAP4 DUP5 PUSH2 0x2915 JUMP JUMPDEST DUP4 DUP4 MSTORE CALLDATASIZE PUSH1 0x24 DUP6 DUP4 ADD ADD GT PUSH2 0x2D4 JUMPI PUSH2 0x19 SWAP5 PUSH1 0x0 PUSH1 0x20 DUP7 PUSH1 0x1 SWAP8 PUSH1 0x24 PUSH2 0x1233 SWAP7 ADD DUP4 DUP10 ADD CALLDATACOPY DUP7 ADD ADD MSTORE DUP1 PUSH32 0x0 AND SWAP1 PUSH2 0x120A DUP3 ADDRESS EQ ISZERO PUSH2 0x2A22 JUMP JUMPDEST PUSH32 0x360894A13BA1A3210667C828492DB98DCA3E2076CC3735A920A3CA505D382BBC SLOAD AND EQ PUSH2 0x2A83 JUMP JUMPDEST PUSH2 0x123B PUSH2 0x2EEC JUMP JUMPDEST PUSH2 0x2AE4 JUMP JUMPDEST CALLVALUE PUSH2 0x2D4 JUMPI PUSH1 0x20 CALLDATASIZE PUSH1 0x3 NOT ADD SLT PUSH2 0x2D4 JUMPI PUSH1 0x4 CALLDATALOAD PUSH1 0x1 PUSH1 0x1 PUSH1 0xA0 SHL SUB DUP2 AND SWAP1 SUB PUSH2 0x2D4 JUMPI PUSH2 0x126C PUSH2 0x2F5F JUMP JUMPDEST PUSH1 0x2 PUSH2 0x22A SLOAD EQ PUSH2 0x1EEE JUMPI PUSH1 0x2 PUSH2 0x22A SSTORE PUSH2 0x25E SLOAD PUSH1 0x0 PUSH2 0x25D SLOAD PUSH2 0x269 SLOAD SWAP1 DUP2 PUSH1 0x80 SHR DUP5 ADD DUP1 DUP3 LT PUSH1 0x0 EQ PUSH2 0x1EE3 JUMPI POP SWAP1 SWAP3 SWAP2 SWAP3 JUMPDEST DUP2 DUP4 LT PUSH2 0x12FE JUMPI JUMPDEST POP POP PUSH2 0x25E SSTORE DUP1 PUSH2 0x12BE JUMPI JUMPDEST PUSH1 0x1 PUSH2 0x22A SSTORE STOP JUMPDEST SELFBALANCE DUP2 GT PUSH2 0x12F7 JUMPI JUMPDEST PUSH1 0x0 DUP1 DUP1 DUP1 SWAP4 PUSH1 0x4 CALLDATALOAD GAS CALL PUSH2 0x12D9 PUSH2 0x2DBF JUMP JUMPDEST POP ISZERO PUSH2 0x12E5 JUMPI DUP1 PUSH2 0x12B6 JUMP JUMPDEST PUSH1 0x40 MLOAD PUSH4 0x8F589409 PUSH1 0xE0 SHL DUP2 MSTORE PUSH1 0x4 SWAP1 REVERT JUMPDEST POP SELFBALANCE PUSH2 0x12C6 JUMP JUMPDEST SWAP1 SWAP2 PUSH1 0x0 SWAP1 PUSH1 0x0 SWAP2 DUP2 PUSH1 0x0 MSTORE PUSH2 0x268 PUSH1 0x20 MSTORE PUSH1 0x40 PUSH1 0x0 KECCAK256 PUSH1 0x40 MLOAD SWAP1 PUSH2 0x1324 PUSH1 0x40 DUP4 PUSH2 0x2915 JUMP JUMPDEST SLOAD PUSH2 0x1332 PUSH1 0xFF DUP3 AND DUP4 PUSH2 0x2FE0 JUMP JUMPDEST PUSH1 0x8 SHR DUP1 PUSH1 0x20 DUP4 ADD MSTORE PUSH1 0x1 PUSH1 0x1 PUSH1 0x80 SHL SUB DUP7 AND NUMBER SUB LT PUSH1 0x0 EQ PUSH2 0x13B7 JUMPI POP PUSH1 0x0 SWAP3 POP DUP3 SWAP1 POP DUP1 JUMPDEST PUSH2 0x13A1 JUMPI JUMPDEST ISZERO PUSH2 0x139A JUMPI DUP1 PUSH1 0x1 SWAP2 CALLER PUSH32 0xB207E6B6B26274F3764B879E578B4539B8E37F41DFF43932DDC87B3E04090974 PUSH1 0x0 DUP1 LOG3 ADD SWAP4 ADD SWAP2 SWAP1 SWAP3 SWAP2 SWAP3 PUSH2 0x12A2 JUMP JUMPDEST SWAP3 POP PUSH2 0x12AA JUMP JUMPDEST DUP2 PUSH1 0x0 MSTORE PUSH2 0x268 PUSH1 0x20 MSTORE PUSH1 0x0 PUSH1 0x40 DUP2 KECCAK256 SSTORE PUSH2 0x135E JUMP JUMPDEST DUP1 MLOAD PUSH1 0xA DUP2 LT ISZERO PUSH2 0x3BA JUMPI PUSH1 0x1 SUB PUSH2 0x1686 JUMPI POP POP DUP1 SWAP2 POP PUSH1 0x0 MSTORE PUSH2 0x25F PUSH1 0x20 MSTORE PUSH2 0x13E4 PUSH1 0x40 PUSH1 0x0 KECCAK256 PUSH2 0x2FEC JUMP JUMPDEST PUSH2 0x25C DUP1 SLOAD PUSH1 0x40 DUP1 MLOAD PUSH4 0x235E81CF PUSH1 0xE0 SHL DUP2 MSTORE DUP5 MLOAD PUSH1 0x4 DUP3 ADD MSTORE PUSH1 0x20 DUP6 ADD MLOAD PUSH1 0x24 DUP3 ADD MSTORE SWAP1 DUP5 ADD MLOAD PUSH1 0x1 PUSH1 0x1 PUSH1 0xA0 SHL SUB SWAP1 DUP2 AND PUSH1 0x44 DUP4 ADD MSTORE PUSH1 0x60 DUP6 ADD MLOAD DUP2 AND PUSH1 0x64 DUP4 ADD MSTORE PUSH1 0x80 DUP6 ADD MLOAD DUP2 AND PUSH1 0x84 DUP4 ADD MSTORE SWAP1 SWAP2 PUSH1 0x0 SWAP2 AND DUP3 PUSH1 0xA4 DUP2 PUSH1 0xC0 SWAP5 DUP6 SWAP5 GAS CALL PUSH1 0x0 SWAP3 DUP4 SWAP3 DUP3 PUSH2 0x1651 JUMPI JUMPDEST POP POP PUSH2 0x15D5 JUMPI POP POP PUSH2 0x1460 PUSH2 0x2DBF JUMP JUMPDEST PUSH2 0x1469 DUP2 PUSH2 0x309B JUMP JUMPDEST SWAP1 PUSH1 0x1 PUSH1 0x1 PUSH1 0xE0 SHL SUB NOT DUP3 AND PUSH4 0xB63F1A7 PUSH1 0xE0 SHL DUP2 SUB PUSH2 0x1570 JUMPI POP POP PUSH2 0x14A5 PUSH1 0x0 DUP1 MLOAD PUSH1 0x20 PUSH2 0x4AB1 DUP4 CODECOPY DUP2 MLOAD SWAP2 MSTORE SWAP2 PUSH1 0x40 MLOAD SWAP2 DUP3 SWAP2 DUP8 DUP4 PUSH2 0x3108 JUMP JUMPDEST SUB SWAP1 LOG1 JUMPDEST SLOAD PUSH1 0x40 DUP3 ADD MLOAD PUSH1 0x20 SWAP1 SWAP3 ADD MLOAD PUSH1 0x1 PUSH1 0x1 PUSH1 0xA0 SHL SUB SWAP2 DUP3 AND SWAP3 SWAP1 SWAP2 AND SWAP1 DUP3 EXTCODESIZE ISZERO PUSH2 0x2D4 JUMPI PUSH1 0x40 MLOAD PUSH4 0x58F32DE9 PUSH1 0xE0 SHL DUP2 MSTORE PUSH1 0x1 PUSH1 0x1 PUSH1 0xA0 SHL SUB SWAP3 SWAP1 SWAP3 AND PUSH1 0x4 DUP4 ADD MSTORE PUSH1 0x24 DUP3 ADD MSTORE SWAP1 PUSH1 0x0 SWAP1 DUP3 SWAP1 PUSH1 0x44 SWAP1 DUP3 SWAP1 DUP5 SWAP1 GAS CALL DUP1 ISZERO PUSH2 0x1564 JUMPI PUSH2 0x1553 JUMPI JUMPDEST POP JUMPDEST DUP1 PUSH1 0x0 MSTORE PUSH2 0x25F PUSH1 0x20 MSTORE PUSH2 0x153B PUSH1 0x40 PUSH1 0x0 KECCAK256 PUSH1 0x4 PUSH1 0x0 SWAP2 DUP3 DUP2 SSTORE DUP3 PUSH1 0x1 DUP3 ADD SSTORE DUP3 PUSH1 0x2 DUP3 ADD SSTORE DUP3 PUSH1 0x3 DUP3 ADD SSTORE ADD SSTORE JUMP JUMPDEST PUSH1 0x1 SWAP1 DUP2 PUSH2 0x154C PUSH1 0x1 PUSH2 0x1F7 PUSH2 0x28FD JUMP JUMPDEST SLOAD SWAP3 PUSH2 0x1359 JUMP JUMPDEST PUSH1 0x0 PUSH2 0x155E SWAP2 PUSH2 0x2915 JUMP JUMPDEST DUP5 PUSH2 0x1509 JUMP JUMPDEST PUSH1 0x40 MLOAD RETURNDATASIZE PUSH1 0x0 DUP3 RETURNDATACOPY RETURNDATASIZE SWAP1 REVERT JUMPDEST PUSH4 0x79121201 PUSH1 0xE0 SHL SUB PUSH2 0x15A6 JUMPI POP PUSH2 0x159E PUSH1 0x0 DUP1 MLOAD PUSH1 0x20 PUSH2 0x4AB1 DUP4 CODECOPY DUP2 MLOAD SWAP2 MSTORE SWAP2 PUSH1 0x40 MLOAD SWAP2 DUP3 SWAP2 DUP8 DUP4 PUSH2 0x30CC JUMP JUMPDEST SUB SWAP1 LOG1 PUSH2 0x14A9 JUMP JUMPDEST PUSH1 0x0 DUP1 MLOAD PUSH1 0x20 PUSH2 0x4AD1 DUP4 CODECOPY DUP2 MLOAD SWAP2 MSTORE SWAP2 POP PUSH2 0x159E SWAP1 PUSH1 0x40 MLOAD SWAP2 DUP3 SWAP2 DUP8 DUP4 MSTORE PUSH1 0x40 PUSH1 0x20 DUP5 ADD MSTORE PUSH1 0x40 DUP4 ADD SWAP1 PUSH2 0x2EAF JUMP JUMPDEST PUSH32 0x5090A820029ACAE4D47B64DA9AF62CE04A5A1BDB546934E5FCFE091EE1F780EE SWAP2 SWAP3 POP PUSH1 0x1 DUP1 PUSH1 0xA0 SHL SUB PUSH1 0x40 DUP6 ADD MLOAD AND SWAP3 PUSH2 0x1649 DUP7 PUSH1 0x60 PUSH1 0x1 DUP1 PUSH1 0xA0 SHL SUB DUP2 DUP10 ADD MLOAD AND SWAP8 DUP1 MLOAD SWAP5 DUP1 MLOAD SWAP3 PUSH1 0x20 DUP3 ADD MLOAD SWAP1 PUSH1 0x40 DUP4 ADD MLOAD SWAP3 ADD MLOAD SWAP3 PUSH1 0x80 PUSH1 0x1 DUP1 PUSH1 0xA0 SHL SUB SWAP2 ADD MLOAD AND SWAP4 PUSH1 0x40 MLOAD SWAP9 DUP10 SWAP9 DUP10 PUSH2 0x314D JUMP JUMPDEST SUB SWAP1 LOG3 PUSH2 0x150B JUMP JUMPDEST DUP1 SWAP2 SWAP3 SWAP5 POP PUSH2 0x1675 SWAP4 POP SWAP1 RETURNDATASIZE LT PUSH2 0x167F JUMPI JUMPDEST PUSH2 0x166D DUP2 DUP4 PUSH2 0x2915 JUMP JUMPDEST DUP2 ADD SWAP1 PUSH2 0x3078 JUMP JUMPDEST SWAP3 SWAP1 POP DUP10 DUP1 PUSH2 0x1450 JUMP JUMPDEST POP RETURNDATASIZE PUSH2 0x1663 JUMP JUMPDEST DUP1 MLOAD PUSH1 0xA DUP2 LT ISZERO PUSH2 0x3BA JUMPI PUSH1 0x2 SUB PUSH2 0x198F JUMPI POP POP DUP1 SWAP2 POP PUSH1 0x0 MSTORE PUSH2 0x261 PUSH1 0x20 MSTORE PUSH2 0x16B3 PUSH1 0x40 PUSH1 0x0 KECCAK256 PUSH2 0x2FEC JUMP JUMPDEST PUSH2 0x25C DUP1 SLOAD PUSH1 0x40 DUP1 MLOAD PUSH4 0xBFE42621 PUSH1 0xE0 SHL DUP2 MSTORE DUP5 MLOAD PUSH1 0x4 DUP3 ADD MSTORE PUSH1 0x20 DUP6 ADD MLOAD PUSH1 0x24 DUP3 ADD MSTORE SWAP1 DUP5 ADD MLOAD PUSH1 0x1 PUSH1 0x1 PUSH1 0xA0 SHL SUB SWAP1 DUP2 AND PUSH1 0x44 DUP4 ADD MSTORE PUSH1 0x60 DUP6 ADD MLOAD DUP2 AND PUSH1 0x64 DUP4 ADD MSTORE PUSH1 0x80 DUP6 ADD MLOAD DUP2 AND PUSH1 0x84 DUP4 ADD MSTORE SWAP1 SWAP2 PUSH1 0x0 SWAP2 AND DUP3 PUSH1 0xA4 DUP2 PUSH1 0xC0 SWAP5 DUP6 SWAP5 GAS CALL PUSH1 0x0 SWAP3 DUP4 SWAP3 DUP3 PUSH2 0x196A JUMPI JUMPDEST POP POP PUSH2 0x18EE JUMPI POP POP PUSH2 0x172F PUSH2 0x2DBF JUMP JUMPDEST PUSH2 0x1738 DUP2 PUSH2 0x309B JUMP JUMPDEST PUSH1 0x1 PUSH1 0x1 PUSH1 0xE0 SHL SUB NOT DUP2 AND SWAP2 PUSH4 0xA5DB715D PUSH1 0xE0 SHL DUP4 SUB PUSH2 0x1857 JUMPI POP POP PUSH1 0xA0 PUSH1 0x0 DUP1 MLOAD PUSH1 0x20 PUSH2 0x4AB1 DUP4 CODECOPY DUP2 MLOAD SWAP2 MSTORE SWAP2 PUSH1 0x40 MLOAD SWAP1 DUP7 DUP3 MSTORE PUSH1 0x20 DUP3 ADD MSTORE PUSH1 0x19 PUSH1 0x60 DUP1 PUSH1 0x40 DUP5 ADD MSTORE DUP3 ADD MSTORE PUSH32 0x496E73756666696369656E7420746320746F2072656465656D00000000000000 PUSH1 0x80 DUP3 ADD MSTORE LOG1 JUMPDEST SLOAD PUSH1 0x40 DUP3 ADD MLOAD SWAP2 MLOAD PUSH1 0x1 PUSH1 0x1 PUSH1 0xA0 SHL SUB SWAP2 DUP3 AND SWAP3 SWAP1 SWAP2 AND SWAP1 DUP3 EXTCODESIZE ISZERO PUSH2 0x2D4 JUMPI PUSH1 0x40 MLOAD PUSH4 0x53B16D17 PUSH1 0xE0 SHL DUP2 MSTORE PUSH1 0x1 PUSH1 0x1 PUSH1 0xA0 SHL SUB SWAP3 SWAP1 SWAP3 AND PUSH1 0x4 DUP4 ADD MSTORE PUSH1 0x24 DUP3 ADD MSTORE SWAP1 PUSH1 0x0 SWAP1 DUP3 SWAP1 PUSH1 0x44 SWAP1 DUP3 SWAP1 DUP5 SWAP1 GAS CALL DUP1 ISZERO PUSH2 0x1564 JUMPI PUSH2 0x1846 JUMPI JUMPDEST POP JUMPDEST DUP1 PUSH1 0x0 MSTORE PUSH2 0x261 PUSH1 0x20 MSTORE PUSH2 0x1835 PUSH1 0x40 PUSH1 0x0 KECCAK256 PUSH1 0x4 PUSH1 0x0 SWAP2 DUP3 DUP2 SSTORE DUP3 PUSH1 0x1 DUP3 ADD SSTORE DUP3 PUSH1 0x2 DUP3 ADD SSTORE DUP3 PUSH1 0x3 DUP3 ADD SSTORE ADD SSTORE JUMP JUMPDEST PUSH1 0x1 SWAP1 DUP2 PUSH2 0x154C PUSH1 0x2 PUSH2 0x1F7 PUSH2 0x28FD JUMP JUMPDEST PUSH1 0x0 PUSH2 0x1851 SWAP2 PUSH2 0x2915 JUMP JUMPDEST DUP5 PUSH2 0x1803 JUMP JUMPDEST SWAP1 SWAP2 PUSH4 0x54CDE313 PUSH1 0xE0 SHL DUP2 SUB PUSH2 0x1891 JUMPI POP POP PUSH2 0x1889 PUSH1 0x0 DUP1 MLOAD PUSH1 0x20 PUSH2 0x4AB1 DUP4 CODECOPY DUP2 MLOAD SWAP2 MSTORE SWAP2 PUSH1 0x40 MLOAD SWAP2 DUP3 SWAP2 DUP8 DUP4 PUSH2 0x318C JUMP JUMPDEST SUB SWAP1 LOG1 PUSH2 0x17A7 JUMP JUMPDEST PUSH4 0x79121201 PUSH1 0xE0 SHL SUB PUSH2 0x18BF JUMPI POP PUSH2 0x1889 PUSH1 0x0 DUP1 MLOAD PUSH1 0x20 PUSH2 0x4AB1 DUP4 CODECOPY DUP2 MLOAD SWAP2 MSTORE SWAP2 PUSH1 0x40 MLOAD SWAP2 DUP3 SWAP2 DUP8 DUP4 PUSH2 0x30CC JUMP JUMPDEST PUSH1 0x0 DUP1 MLOAD PUSH1 0x20 PUSH2 0x4AD1 DUP4 CODECOPY DUP2 MLOAD SWAP2 MSTORE SWAP2 POP PUSH2 0x1889 SWAP1 PUSH1 0x40 MLOAD SWAP2 DUP3 SWAP2 DUP8 DUP4 MSTORE PUSH1 0x40 PUSH1 0x20 DUP5 ADD MSTORE PUSH1 0x40 DUP4 ADD SWAP1 PUSH2 0x2EAF JUMP JUMPDEST PUSH32 0x7E7043742F69701E6292386D468D710F2D6E44BF93232A1E52F1641E50A9DE12 SWAP2 SWAP3 POP PUSH1 0x1 DUP1 PUSH1 0xA0 SHL SUB PUSH1 0x40 DUP6 ADD MLOAD AND SWAP3 PUSH2 0x1962 DUP7 PUSH1 0x60 PUSH1 0x1 DUP1 PUSH1 0xA0 SHL SUB DUP2 DUP10 ADD MLOAD AND SWAP8 DUP1 MLOAD SWAP5 DUP1 MLOAD SWAP3 PUSH1 0x20 DUP3 ADD MLOAD SWAP1 PUSH1 0x40 DUP4 ADD MLOAD SWAP3 ADD MLOAD SWAP3 PUSH1 0x80 PUSH1 0x1 DUP1 PUSH1 0xA0 SHL SUB SWAP2 ADD MLOAD AND SWAP4 PUSH1 0x40 MLOAD SWAP9 DUP10 SWAP9 DUP10 PUSH2 0x314D JUMP JUMPDEST SUB SWAP1 LOG3 PUSH2 0x1805 JUMP JUMPDEST DUP1 SWAP2 SWAP3 SWAP5 POP PUSH2 0x1985 SWAP4 POP SWAP1 RETURNDATASIZE LT PUSH2 0x167F JUMPI PUSH2 0x166D DUP2 DUP4 PUSH2 0x2915 JUMP JUMPDEST SWAP3 SWAP1 POP DUP10 DUP1 PUSH2 0x171F JUMP JUMPDEST DUP1 MLOAD PUSH1 0xA DUP2 LT ISZERO PUSH2 0x3BA JUMPI PUSH1 0x3 SUB PUSH2 0x19BD JUMPI POP POP SWAP1 POP PUSH2 0x19AE DUP2 PUSH2 0x32D2 JUMP JUMPDEST SWAP1 DUP2 PUSH2 0x154C PUSH1 0x3 PUSH2 0x1F7 PUSH2 0x28FD JUMP JUMPDEST DUP1 MLOAD PUSH1 0xA DUP2 LT ISZERO PUSH2 0x3BA JUMPI PUSH1 0x4 SUB PUSH2 0x19EB JUMPI POP POP SWAP1 POP PUSH2 0x19DC DUP2 PUSH2 0x35DB JUMP JUMPDEST SWAP1 DUP2 PUSH2 0x154C PUSH1 0x4 PUSH2 0x1F7 PUSH2 0x28FD JUMP JUMPDEST DUP1 MLOAD PUSH1 0xA DUP2 LT ISZERO PUSH2 0x3BA JUMPI PUSH1 0x5 SUB PUSH2 0x1A19 JUMPI POP POP SWAP1 POP PUSH2 0x1A0A DUP2 PUSH2 0x384A JUMP JUMPDEST SWAP1 DUP2 PUSH2 0x154C PUSH1 0x5 PUSH2 0x1F7 PUSH2 0x28FD JUMP JUMPDEST DUP1 MLOAD PUSH1 0xA DUP2 LT ISZERO PUSH2 0x3BA JUMPI PUSH1 0x6 SUB PUSH2 0x1A47 JUMPI POP POP SWAP1 POP PUSH2 0x1A38 DUP2 PUSH2 0x3BDE JUMP JUMPDEST SWAP1 DUP2 PUSH2 0x154C PUSH1 0x6 PUSH2 0x1F7 PUSH2 0x28FD JUMP JUMPDEST DUP1 MLOAD PUSH1 0xA DUP2 LT ISZERO PUSH2 0x3BA JUMPI PUSH1 0x7 SUB PUSH2 0x1A75 JUMPI POP POP SWAP1 POP PUSH2 0x1A66 DUP2 PUSH2 0x3FAC JUMP JUMPDEST SWAP1 DUP2 PUSH2 0x154C PUSH1 0x7 PUSH2 0x1F7 PUSH2 0x28FD JUMP JUMPDEST DUP1 MLOAD PUSH1 0xA DUP2 LT ISZERO PUSH2 0x3BA JUMPI PUSH1 0x8 SUB PUSH2 0x1AA3 JUMPI POP POP SWAP1 POP PUSH2 0x1A94 DUP2 PUSH2 0x428E JUMP JUMPDEST SWAP1 DUP2 PUSH2 0x154C PUSH1 0x8 PUSH2 0x1F7 PUSH2 0x28FD JUMP JUMPDEST MLOAD PUSH1 0xA DUP2 LT ISZERO PUSH2 0x3BA JUMPI PUSH1 0x9 EQ PUSH2 0x1ABB JUMPI JUMPDEST DUP1 PUSH2 0x1359 JUMP JUMPDEST POP DUP1 SWAP2 POP PUSH1 0x0 MSTORE PUSH2 0x267 PUSH1 0x20 MSTORE PUSH1 0x0 PUSH1 0x40 DUP2 KECCAK256 PUSH1 0x40 MLOAD SWAP1 PUSH2 0x1ADE PUSH2 0x100 DUP4 PUSH2 0x2915 JUMP JUMPDEST DUP1 SLOAD PUSH1 0x1 PUSH1 0x1 PUSH1 0xA0 SHL SUB SWAP1 DUP2 AND DUP4 MSTORE PUSH1 0x1 DUP3 ADD SLOAD DUP2 AND PUSH1 0x20 DUP5 ADD SWAP1 DUP2 MSTORE PUSH1 0x2 DUP4 ADD SLOAD PUSH1 0x40 DUP1 DUP7 ADD SWAP2 DUP3 MSTORE PUSH1 0x3 DUP6 ADD SLOAD PUSH1 0x60 DUP8 ADD SWAP1 DUP2 MSTORE PUSH1 0x4 DUP1 DUP8 ADD SLOAD PUSH1 0x80 DUP10 ADD SWAP1 DUP2 MSTORE PUSH1 0x5 DUP9 ADD SLOAD DUP8 AND PUSH1 0xA0 DUP11 ADD SWAP1 DUP2 MSTORE PUSH1 0x6 DUP10 ADD SLOAD DUP9 AND PUSH1 0xC0 DUP12 ADD SWAP1 DUP2 MSTORE PUSH1 0x7 SWAP1 SWAP10 ADD SLOAD DUP9 AND PUSH1 0xE0 DUP1 DUP13 ADD SWAP2 DUP3 MSTORE PUSH2 0x25C SLOAD SWAP7 MLOAD PUSH4 0x391BF6CF PUSH1 0xE0 SHL DUP2 MSTORE DUP13 MLOAD DUP12 AND SWAP6 DUP2 ADD SWAP6 SWAP1 SWAP6 MSTORE SWAP8 MLOAD DUP10 AND PUSH1 0x24 DUP6 ADD MSTORE SWAP6 MLOAD PUSH1 0x44 DUP5 ADD MSTORE SWAP3 MLOAD PUSH1 0x64 DUP4 ADD MSTORE MLOAD PUSH1 0x84 DUP3 ADD MSTORE SWAP1 MLOAD DUP6 AND PUSH1 0xA4 DUP3 ADD MSTORE SWAP5 MLOAD DUP5 AND PUSH1 0xC4 DUP7 ADD MSTORE SWAP1 MLOAD DUP4 AND PUSH1 0xE4 DUP6 ADD MSTORE SWAP3 SWAP5 SWAP1 SWAP3 DUP6 SWAP3 PUSH2 0x104 SWAP3 DUP5 SWAP3 SWAP1 SWAP2 AND GAS CALL SWAP2 DUP3 PUSH1 0x0 SWAP2 PUSH1 0x0 SWAP5 PUSH2 0x1EAC JUMPI JUMPDEST POP PUSH2 0x1DF6 JUMPI POP SWAP1 POP PUSH2 0x1BCE PUSH2 0x2DBF JUMP JUMPDEST PUSH2 0x1BD7 DUP2 PUSH2 0x309B JUMP JUMPDEST SWAP1 PUSH1 0x1 PUSH1 0x1 PUSH1 0xE0 SHL SUB NOT DUP3 AND PUSH4 0xB63F1A7 PUSH1 0xE0 SHL DUP2 SUB PUSH2 0x1D61 JUMPI POP POP PUSH2 0x1C13 PUSH1 0x0 DUP1 MLOAD PUSH1 0x20 PUSH2 0x4AB1 DUP4 CODECOPY DUP2 MLOAD SWAP2 MSTORE SWAP2 PUSH1 0x40 MLOAD SWAP2 DUP3 SWAP2 DUP7 DUP4 PUSH2 0x3108 JUMP JUMPDEST SUB SWAP1 LOG1 JUMPDEST PUSH2 0x25C SLOAD PUSH1 0xA0 DUP3 ADD MLOAD DUP3 MLOAD PUSH1 0x40 DUP5 ADD MLOAD PUSH1 0x1 PUSH1 0x1 PUSH1 0xA0 SHL SUB SWAP2 DUP3 AND SWAP4 SWAP3 DUP3 AND SWAP3 SWAP1 SWAP2 AND DUP1 EXTCODESIZE ISZERO PUSH2 0x2D4 JUMPI PUSH1 0x40 MLOAD PUSH4 0xE2C5E99 PUSH1 0xE4 SHL DUP2 MSTORE PUSH1 0x1 PUSH1 0x1 PUSH1 0xA0 SHL SUB SWAP4 DUP5 AND PUSH1 0x4 DUP3 ADD MSTORE SWAP4 SWAP1 SWAP3 AND PUSH1 0x24 DUP5 ADD MSTORE PUSH1 0x44 DUP4 ADD MSTORE PUSH1 0x0 SWAP1 DUP3 SWAP1 PUSH1 0x64 SWAP1 DUP3 SWAP1 DUP5 SWAP1 GAS CALL DUP1 ISZERO PUSH2 0x1564 JUMPI PUSH2 0x1D50 JUMPI JUMPDEST POP PUSH2 0x25C SLOAD PUSH1 0xA0 DUP3 ADD MLOAD PUSH1 0x80 SWAP1 SWAP3 ADD MLOAD PUSH1 0x1 PUSH1 0x1 PUSH1 0xA0 SHL SUB SWAP2 DUP3 AND SWAP3 SWAP1 SWAP2 AND SWAP1 DUP3 EXTCODESIZE ISZERO PUSH2 0x2D4 JUMPI PUSH1 0x40 MLOAD PUSH4 0x58F32DE9 PUSH1 0xE0 SHL DUP2 MSTORE PUSH1 0x1 PUSH1 0x1 PUSH1 0xA0 SHL SUB SWAP3 SWAP1 SWAP3 AND PUSH1 0x4 DUP4 ADD MSTORE PUSH1 0x24 DUP3 ADD MSTORE SWAP1 PUSH1 0x0 SWAP1 DUP3 SWAP1 PUSH1 0x44 SWAP1 DUP3 SWAP1 DUP5 SWAP1 GAS CALL DUP1 ISZERO PUSH2 0x1564 JUMPI PUSH2 0x1D3F JUMPI JUMPDEST POP JUMPDEST DUP1 PUSH1 0x0 MSTORE PUSH2 0x267 PUSH1 0x20 MSTORE PUSH1 0x0 PUSH1 0x7 PUSH1 0x40 DUP3 KECCAK256 DUP3 DUP2 SSTORE DUP3 PUSH1 0x1 DUP3 ADD SSTORE DUP3 PUSH1 0x2 DUP3 ADD SSTORE DUP3 PUSH1 0x3 DUP3 ADD SSTORE DUP3 PUSH1 0x4 DUP3 ADD SSTORE DUP3 PUSH1 0x5 DUP3 ADD SSTORE DUP3 PUSH1 0x6 DUP3 ADD SSTORE ADD SSTORE PUSH1 0x1 SWAP1 DUP2 PUSH2 0x1D37 PUSH1 0x9 PUSH2 0x1F7 PUSH2 0x28FD JUMP JUMPDEST SLOAD SWAP3 POP PUSH2 0x1AB5 JUMP JUMPDEST PUSH1 0x0 PUSH2 0x1D4A SWAP2 PUSH2 0x2915 JUMP JUMPDEST DUP5 PUSH2 0x1CE9 JUMP JUMPDEST PUSH1 0x0 PUSH2 0x1D5B SWAP2 PUSH2 0x2915 JUMP JUMPDEST DUP6 PUSH2 0x1C85 JUMP JUMPDEST PUSH4 0x272E3F59 PUSH1 0xE2 SHL DUP2 SUB PUSH2 0x1D99 JUMPI POP POP PUSH2 0x1D91 PUSH1 0x0 DUP1 MLOAD PUSH1 0x20 PUSH2 0x4AB1 DUP4 CODECOPY DUP2 MLOAD SWAP2 MSTORE SWAP2 PUSH1 0x40 MLOAD SWAP2 DUP3 SWAP2 DUP7 DUP4 PUSH2 0x3F5F JUMP JUMPDEST SUB SWAP1 LOG1 PUSH2 0x1C17 JUMP JUMPDEST PUSH4 0x79121201 PUSH1 0xE0 SHL SUB PUSH2 0x1DC7 JUMPI POP PUSH2 0x1D91 PUSH1 0x0 DUP1 MLOAD PUSH1 0x20 PUSH2 0x4AB1 DUP4 CODECOPY DUP2 MLOAD SWAP2 MSTORE SWAP2 PUSH1 0x40 MLOAD SWAP2 DUP3 SWAP2 DUP7 DUP4 PUSH2 0x30CC JUMP JUMPDEST PUSH1 0x0 DUP1 MLOAD PUSH1 0x20 PUSH2 0x4AD1 DUP4 CODECOPY DUP2 MLOAD SWAP2 MSTORE SWAP2 POP PUSH2 0x1D91 SWAP1 PUSH1 0x40 MLOAD SWAP2 DUP3 SWAP2 DUP7 DUP4 MSTORE PUSH1 0x40 PUSH1 0x20 DUP5 ADD MSTORE PUSH1 0x40 DUP4 ADD SWAP1 PUSH2 0x2EAF JUMP JUMPDEST PUSH32 0xF86F4487D2C5541B78F06D2368E28E0F4052E182124DEF54D5855BF2A01D3258 PUSH2 0x120 PUSH1 0x1 DUP1 PUSH1 0xA0 SHL SUB DUP5 MLOAD AND SWAP3 PUSH1 0x1 DUP1 PUSH1 0xA0 SHL SUB PUSH1 0x20 DUP7 ADD MLOAD AND SWAP1 PUSH1 0x1 DUP1 PUSH1 0xA0 SHL SUB PUSH1 0xA0 DUP8 ADD MLOAD AND SWAP6 PUSH1 0x1 DUP1 PUSH1 0xA0 SHL SUB PUSH1 0xC0 DUP3 ADD MLOAD AND SWAP8 PUSH1 0x40 DUP3 ADD MLOAD SWAP3 DUP2 MLOAD PUSH1 0x20 DUP4 ADD MLOAD SWAP2 PUSH1 0x60 PUSH1 0x40 DUP6 ADD MLOAD SWAP5 ADD MLOAD SWAP5 PUSH1 0xE0 PUSH1 0x1 DUP1 PUSH1 0xA0 SHL SUB SWAP2 ADD MLOAD AND SWAP6 PUSH1 0x40 MLOAD SWAP8 DUP9 MSTORE PUSH1 0x20 DUP9 ADD MSTORE PUSH1 0x40 DUP8 ADD MSTORE PUSH1 0x60 DUP7 ADD MSTORE PUSH1 0x80 DUP6 ADD MSTORE PUSH1 0xA0 DUP5 ADD MSTORE PUSH1 0xC0 DUP4 ADD MSTORE PUSH1 0xE0 DUP3 ADD MSTORE DUP7 PUSH2 0x100 DUP3 ADD MSTORE LOG4 PUSH2 0x1CEB JUMP JUMPDEST SWAP1 SWAP4 POP PUSH2 0x1ED1 SWAP2 POP PUSH1 0xE0 RETURNDATASIZE PUSH1 0xE0 GT PUSH2 0x1EDC JUMPI JUMPDEST PUSH2 0x1EC9 DUP2 DUP4 PUSH2 0x2915 JUMP JUMPDEST DUP2 ADD SWAP1 PUSH2 0x3826 JUMP JUMPDEST SWAP3 POP POP SWAP1 SWAP3 DUP9 PUSH2 0x1BBE JUMP JUMPDEST POP RETURNDATASIZE PUSH2 0x1EBF JUMP JUMPDEST SWAP1 POP SWAP1 SWAP3 SWAP2 SWAP3 PUSH2 0x12A2 JUMP JUMPDEST PUSH1 0x40 MLOAD PUSH3 0x461BCD PUSH1 0xE5 SHL DUP2 MSTORE PUSH1 0x20 PUSH1 0x4 DUP3 ADD MSTORE PUSH1 0x1F PUSH1 0x24 DUP3 ADD MSTORE PUSH32 0x5265656E7472616E637947756172643A207265656E7472616E742063616C6C00 PUSH1 0x44 DUP3 ADD MSTORE PUSH1 0x64 SWAP1 REVERT JUMPDEST CALLVALUE PUSH2 0x2D4 JUMPI PUSH1 0x20 CALLDATASIZE PUSH1 0x3 NOT ADD SLT PUSH2 0x2D4 JUMPI PUSH1 0x4 CALLDATALOAD PUSH1 0xA DUP2 LT ISZERO PUSH2 0x2D4 JUMPI PUSH2 0x1F5E PUSH1 0x20 SWAP2 PUSH2 0x1F7 PUSH2 0x28FD JUMP JUMPDEST SLOAD PUSH1 0x40 MLOAD SWAP1 DUP2 MSTORE RETURN JUMPDEST CALLVALUE PUSH2 0x2D4 JUMPI PUSH2 0x120 CALLDATASIZE PUSH1 0x3 NOT ADD SLT PUSH2 0x2D4 JUMPI PUSH2 0x1F81 PUSH2 0x2EEC JUMP JUMPDEST PUSH2 0x1F7 PUSH1 0x4 CALLDATALOAD PUSH2 0x1F92 PUSH1 0x1 DUP4 PUSH2 0x28FD JUMP JUMPDEST SSTORE PUSH1 0x24 CALLDATALOAD PUSH2 0x1FA1 PUSH1 0x2 DUP4 PUSH2 0x28FD JUMP JUMPDEST SSTORE PUSH1 0x44 CALLDATALOAD PUSH2 0x1FB0 PUSH1 0x3 DUP4 PUSH2 0x28FD JUMP JUMPDEST SSTORE PUSH1 0x64 CALLDATALOAD PUSH2 0x1FBF PUSH1 0x4 DUP4 PUSH2 0x28FD JUMP JUMPDEST SSTORE PUSH1 0x84 CALLDATALOAD PUSH2 0x1FCE PUSH1 0x9 DUP4 PUSH2 0x28FD JUMP JUMPDEST SSTORE PUSH1 0xA4 CALLDATALOAD PUSH2 0x1FDD PUSH1 0x8 DUP4 PUSH2 0x28FD JUMP JUMPDEST SSTORE PUSH1 0xC4 CALLDATALOAD PUSH2 0x1FEC PUSH1 0x7 DUP4 PUSH2 0x28FD JUMP JUMPDEST SSTORE PUSH1 0xE4 CALLDATALOAD PUSH2 0x1FFB PUSH1 0x6 DUP4 PUSH2 0x28FD JUMP JUMPDEST SSTORE PUSH2 0x200B PUSH1 0x5 PUSH2 0x104 CALLDATALOAD SWAP3 PUSH2 0x28FD JUMP JUMPDEST SSTORE STOP JUMPDEST PUSH1 0xC0 CALLDATASIZE PUSH1 0x3 NOT ADD SLT PUSH2 0x2D4 JUMPI PUSH2 0x2022 PUSH2 0x2F5F JUMP JUMPDEST PUSH2 0x2039 PUSH1 0x0 DUP1 MLOAD PUSH1 0x20 PUSH2 0x4B11 DUP4 CODECOPY DUP2 MLOAD SWAP2 MSTORE PUSH2 0x45F0 JUMP JUMPDEST PUSH2 0x2049 PUSH2 0x314 PUSH1 0x5 PUSH2 0x1F7 PUSH2 0x28FD JUMP JUMPDEST PUSH2 0x25D DUP1 SLOAD PUSH1 0x40 MLOAD SWAP2 PUSH2 0x205D PUSH1 0x40 DUP5 PUSH2 0x2915 JUMP JUMPDEST PUSH1 0x5 DUP4 MSTORE PUSH1 0x20 DUP4 ADD SWAP3 PUSH1 0x1 DUP1 PUSH1 0xF8 SHL SUB NUMBER AND DUP5 MSTORE DUP3 PUSH1 0x0 MSTORE PUSH2 0x268 PUSH1 0x20 MSTORE PUSH1 0x40 PUSH1 0x0 KECCAK256 SWAP1 MLOAD PUSH1 0xA DUP2 LT ISZERO PUSH2 0x3BA JUMPI PUSH1 0xFF PUSH1 0x20 SWAP6 DUP2 NOT SWAP1 MLOAD PUSH1 0x8 SHL AND SWAP2 AND OR SWAP1 SSTORE DUP2 PUSH1 0x0 MSTORE PUSH2 0x263 DUP4 MSTORE PUSH2 0x20B5 PUSH1 0x4 PUSH1 0x40 PUSH1 0x0 KECCAK256 PUSH2 0x4826 JUMP JUMPDEST PUSH1 0x40 MLOAD DUP3 DUP2 MSTORE PUSH1 0x5 DUP5 DUP3 ADD MSTORE PUSH1 0x0 DUP1 MLOAD PUSH1 0x20 PUSH2 0x4AF1 DUP4 CODECOPY DUP2 MLOAD SWAP2 MSTORE PUSH1 0x40 CALLER SWAP3 LOG2 PUSH2 0x3B0 DUP2 SLOAD PUSH2 0x45CB JUMP JUMPDEST CALLVALUE PUSH2 0x2D4 JUMPI PUSH1 0x20 CALLDATASIZE PUSH1 0x3 NOT ADD SLT PUSH2 0x2D4 JUMPI PUSH1 0x4 CALLDATALOAD PUSH1 0x0 MSTORE PUSH2 0x267 PUSH1 0x20 MSTORE PUSH2 0x100 PUSH1 0x40 PUSH1 0x0 KECCAK256 PUSH1 0x1 DUP1 PUSH1 0xA0 SHL SUB DUP1 DUP3 SLOAD AND SWAP2 DUP2 PUSH1 0x1 DUP3 ADD SLOAD AND SWAP2 PUSH1 0x2 DUP3 ADD SLOAD PUSH1 0x3 DUP4 ADD SLOAD PUSH1 0x4 DUP5 ADD SLOAD SWAP2 DUP4 PUSH1 0x5 DUP7 ADD SLOAD AND SWAP4 PUSH1 0x7 DUP2 PUSH1 0x6 DUP9 ADD SLOAD AND SWAP7 ADD SLOAD AND SWAP6 PUSH1 0x40 MLOAD SWAP8 DUP9 MSTORE PUSH1 0x20 DUP9 ADD MSTORE PUSH1 0x40 DUP8 ADD MSTORE PUSH1 0x60 DUP7 ADD MSTORE PUSH1 0x80 DUP6 ADD MSTORE PUSH1 0xA0 DUP5 ADD MSTORE PUSH1 0xC0 DUP4 ADD MSTORE PUSH1 0xE0 DUP3 ADD MSTORE RETURN JUMPDEST CALLVALUE PUSH2 0x2D4 JUMPI PUSH1 0x0 CALLDATASIZE PUSH1 0x3 NOT ADD SLT PUSH2 0x2D4 JUMPI PUSH1 0xCA SLOAD PUSH1 0xFF DUP2 PUSH1 0x8 SHR AND ISZERO PUSH2 0x224C JUMPI PUSH1 0x1 DUP1 PUSH1 0xA0 SHL SUB DUP1 DUP3 PUSH1 0x10 SHR AND CALLER EQ ISZERO SWAP1 DUP2 PUSH2 0x21E2 JUMPI JUMPDEST POP PUSH2 0xCC0 JUMPI PUSH1 0xFF DUP2 AND ISZERO PUSH2 0xCAE JUMPI PUSH2 0xFF00 NOT AND PUSH1 0xCA SSTORE PUSH32 0x5DB9EE0A495BF2E6FF9C91A7834C1BA4FDD244A5E8AA4E537BD38AEAE4B073AA PUSH1 0x20 PUSH1 0x40 MLOAD CALLER DUP2 MSTORE LOG1 STOP JUMPDEST PUSH1 0x97 SLOAD PUSH1 0x40 MLOAD PUSH4 0xD994D6D5 PUSH1 0xE0 SHL DUP2 MSTORE CALLER PUSH1 0x4 DUP3 ADD MSTORE SWAP3 POP PUSH1 0x20 SWAP2 DUP4 SWAP2 PUSH1 0x24 SWAP2 DUP4 SWAP2 AND GAS STATICCALL SWAP1 DUP2 ISZERO PUSH2 0x1564 JUMPI PUSH1 0x0 SWAP2 PUSH2 0x221E JUMPI JUMPDEST POP ISZERO DUP3 PUSH2 0x21A0 JUMP JUMPDEST PUSH2 0x223F SWAP2 POP PUSH1 0x20 RETURNDATASIZE DUP2 GT PUSH2 0x2245 JUMPI JUMPDEST PUSH2 0x2237 DUP2 DUP4 PUSH2 0x2915 JUMP JUMPDEST DUP2 ADD SWAP1 PUSH2 0x2ED4 JUMP JUMPDEST DUP3 PUSH2 0x2216 JUMP JUMPDEST POP RETURNDATASIZE PUSH2 0x222D JUMP JUMPDEST PUSH1 0x40 MLOAD PUSH4 0x7C7FD079 PUSH1 0xE0 SHL DUP2 MSTORE PUSH1 0x4 SWAP1 REVERT JUMPDEST CALLVALUE PUSH2 0x2D4 JUMPI PUSH1 0x0 CALLDATASIZE PUSH1 0x3 NOT ADD SLT PUSH2 0x2D4 JUMPI PUSH1 0x20 PUSH2 0x2279 PUSH2 0x4907 JUMP JUMPDEST PUSH1 0x40 MLOAD SWAP1 ISZERO ISZERO DUP2 MSTORE RETURN JUMPDEST CALLVALUE PUSH2 0x2D4 JUMPI PUSH1 0x20 CALLDATASIZE PUSH1 0x3 NOT ADD SLT PUSH2 0x2D4 JUMPI PUSH1 0x4 CALLDATALOAD PUSH1 0x1 PUSH1 0x1 PUSH1 0x80 SHL SUB DUP2 AND DUP1 SWAP2 SUB PUSH2 0x2D4 JUMPI PUSH2 0x22B0 PUSH2 0x2EEC JUMP JUMPDEST PUSH2 0x269 DUP1 SLOAD PUSH1 0x1 PUSH1 0x1 PUSH1 0x80 SHL SUB NOT AND SWAP1 SWAP2 OR SWAP1 SSTORE STOP JUMPDEST CALLVALUE PUSH2 0x2D4 JUMPI PUSH1 0x20 CALLDATASIZE PUSH1 0x3 NOT ADD SLT PUSH2 0x2D4 JUMPI PUSH1 0x4 CALLDATALOAD PUSH1 0x1 PUSH1 0x1 PUSH1 0xA0 SHL SUB DUP1 DUP3 AND DUP3 SUB PUSH2 0x2D4 JUMPI PUSH2 0x19 SWAP2 PUSH2 0x2325 DUP3 PUSH1 0x0 SWAP4 PUSH32 0x0 AND SWAP1 PUSH2 0x120A DUP3 ADDRESS EQ ISZERO PUSH2 0x2A22 JUMP JUMPDEST PUSH2 0x232D PUSH2 0x2EEC JUMP JUMPDEST PUSH2 0x2336 DUP3 PUSH2 0x294D JUMP JUMPDEST SWAP1 PUSH2 0x2344 PUSH1 0x40 MLOAD SWAP3 DUP4 PUSH2 0x2915 JUMP JUMPDEST DUP3 DUP3 MSTORE PUSH1 0x1F NOT PUSH2 0x2353 DUP5 PUSH2 0x294D JUMP JUMPDEST ADD CALLDATASIZE PUSH1 0x20 DUP5 ADD CALLDATACOPY PUSH2 0x2AE4 JUMP JUMPDEST CALLVALUE PUSH2 0x2D4 JUMPI PUSH1 0x40 CALLDATASIZE PUSH1 0x3 NOT ADD SLT PUSH2 0x2D4 JUMPI PUSH1 0x24 CALLDATALOAD PUSH1 0x1 PUSH1 0x1 PUSH1 0xA0 SHL SUB DUP2 AND DUP1 DUP3 SUB PUSH2 0x2D4 JUMPI CALLER SUB PUSH2 0x2396 JUMPI PUSH2 0x19 SWAP1 PUSH1 0x4 CALLDATALOAD PUSH2 0x29A3 JUMP JUMPDEST PUSH1 0x40 MLOAD PUSH3 0x461BCD PUSH1 0xE5 SHL DUP2 MSTORE PUSH1 0x20 PUSH1 0x4 DUP3 ADD MSTORE PUSH1 0x2F PUSH1 0x24 DUP3 ADD MSTORE PUSH32 0x416363657373436F6E74726F6C3A2063616E206F6E6C792072656E6F756E6365 PUSH1 0x44 DUP3 ADD MSTORE PUSH15 0x103937B632B9903337B91039B2B633 PUSH1 0x89 SHL PUSH1 0x64 DUP3 ADD MSTORE PUSH1 0x84 SWAP1 REVERT JUMPDEST PUSH2 0x100 CALLDATASIZE PUSH1 0x3 NOT ADD SLT PUSH2 0x2D4 JUMPI PUSH2 0x2408 PUSH2 0x2F5F JUMP JUMPDEST PUSH2 0x241F PUSH1 0x0 DUP1 MLOAD PUSH1 0x20 PUSH2 0x4B11 DUP4 CODECOPY DUP2 MLOAD SWAP2 MSTORE PUSH2 0x45F0 JUMP JUMPDEST PUSH2 0x242F PUSH2 0x314 PUSH1 0x9 PUSH2 0x1F7 PUSH2 0x28FD JUMP JUMPDEST PUSH2 0x25D DUP1 SLOAD PUSH1 0x40 MLOAD PUSH2 0x2442 PUSH1 0x40 DUP3 PUSH2 0x2915 JUMP JUMPDEST PUSH1 0x9 DUP2 MSTORE PUSH1 0x20 DUP2 ADD PUSH1 0x1 DUP1 PUSH1 0xF8 SHL SUB NUMBER AND DUP2 MSTORE DUP3 PUSH1 0x0 MSTORE PUSH2 0x268 PUSH1 0x20 MSTORE PUSH1 0x40 PUSH1 0x0 KECCAK256 SWAP2 MLOAD SWAP1 PUSH1 0xA DUP3 LT ISZERO PUSH2 0x3BA JUMPI MLOAD PUSH1 0xFF SWAP2 SWAP1 SWAP2 AND PUSH1 0x8 SWAP2 SWAP1 SWAP2 SHL PUSH1 0xFF NOT AND OR SWAP1 SSTORE PUSH1 0x0 DUP2 DUP2 MSTORE PUSH2 0x267 PUSH1 0x20 MSTORE PUSH1 0x40 SWAP1 KECCAK256 PUSH1 0x1 PUSH1 0x1 PUSH1 0xA0 SHL SUB PUSH1 0x4 CALLDATALOAD DUP2 DUP2 AND SWAP5 SWAP3 SWAP1 DUP6 SWAP1 SUB PUSH2 0x2D4 JUMPI PUSH1 0x1 PUSH1 0x1 PUSH1 0x60 SHL SUB PUSH1 0xA0 SHL SWAP5 DUP6 DUP3 SLOAD AND OR DUP2 SSTORE PUSH1 0x1 DUP2 ADD PUSH1 0x24 CALLDATALOAD DUP4 DUP2 AND DUP1 SWAP2 SUB PUSH2 0x2D4 JUMPI DUP7 DUP3 SLOAD AND OR SWAP1 SSTORE PUSH1 0x44 CALLDATALOAD PUSH1 0x2 DUP3 ADD SSTORE PUSH1 0x64 CALLDATALOAD PUSH1 0x3 DUP3 ADD SSTORE PUSH1 0x84 CALLDATALOAD PUSH1 0x4 DUP3 ADD SSTORE PUSH1 0x5 DUP2 ADD PUSH1 0xA4 CALLDATALOAD DUP4 DUP2 AND DUP1 SWAP2 SUB PUSH2 0x2D4 JUMPI DUP7 DUP3 SLOAD AND OR SWAP1 SSTORE PUSH1 0x6 DUP2 ADD SWAP1 PUSH1 0xC4 CALLDATALOAD SWAP2 DUP4 DUP4 AND DUP1 SWAP4 SUB PUSH2 0x2D4 JUMPI PUSH1 0x7 SWAP3 DUP8 DUP3 SLOAD AND OR SWAP1 SSTORE ADD SWAP1 PUSH1 0xE4 CALLDATALOAD SWAP1 DUP2 AND DUP1 SWAP2 SUB PUSH2 0x2D4 JUMPI PUSH1 0x20 SWAP5 DUP3 SLOAD AND OR SWAP1 SSTORE PUSH1 0x40 MLOAD DUP3 DUP2 MSTORE PUSH1 0x9 DUP5 DUP3 ADD MSTORE PUSH1 0x0 DUP1 MLOAD PUSH1 0x20 PUSH2 0x4AF1 DUP4 CODECOPY DUP2 MLOAD SWAP2 MSTORE PUSH1 0x40 CALLER SWAP3 LOG2 PUSH2 0x3B0 DUP2 SLOAD PUSH2 0x45CB JUMP JUMPDEST CALLVALUE PUSH2 0x2D4 JUMPI PUSH1 0x40 CALLDATASIZE PUSH1 0x3 NOT ADD SLT PUSH2 0x2D4 JUMPI PUSH1 0x4 CALLDATALOAD PUSH1 0x24 CALLDATALOAD PUSH1 0x1 PUSH1 0x1 PUSH1 0xA0 SHL SUB DUP2 AND DUP2 SUB PUSH2 0x2D4 JUMPI DUP2 PUSH2 0x2599 PUSH2 0x19 SWAP4 PUSH2 0x49F8 JUMP JUMPDEST PUSH2 0x496C JUMP JUMPDEST CALLVALUE PUSH2 0x2D4 JUMPI PUSH1 0x20 CALLDATASIZE PUSH1 0x3 NOT ADD SLT PUSH2 0x2D4 JUMPI PUSH1 0x4 CALLDATALOAD PUSH1 0x1 PUSH1 0x1 PUSH1 0xA0 SHL SUB DUP2 AND DUP2 SUB PUSH2 0x2D4 JUMPI PUSH2 0x25CA PUSH2 0x2EEC JUMP JUMPDEST PUSH1 0xCA DUP1 SLOAD PUSH3 0x10000 PUSH1 0x1 PUSH1 0xB0 SHL SUB NOT AND PUSH1 0x10 SWAP3 SWAP1 SWAP3 SHL PUSH3 0x10000 PUSH1 0x1 PUSH1 0xB0 SHL SUB AND SWAP2 SWAP1 SWAP2 OR SWAP1 SSTORE STOP JUMPDEST CALLVALUE PUSH2 0x2D4 JUMPI PUSH1 0x0 CALLDATASIZE PUSH1 0x3 NOT ADD SLT PUSH2 0x2D4 JUMPI PUSH1 0x20 PUSH2 0x25E SLOAD PUSH1 0x40 MLOAD SWAP1 DUP2 MSTORE RETURN JUMPDEST CALLVALUE PUSH2 0x2D4 JUMPI PUSH1 0x20 CALLDATASIZE PUSH1 0x3 NOT ADD SLT PUSH2 0x2D4 JUMPI PUSH1 0x4 CALLDATALOAD PUSH1 0x0 MSTORE PUSH2 0x193 PUSH1 0x20 MSTORE PUSH1 0x20 PUSH1 0x1 PUSH1 0x40 PUSH1 0x0 KECCAK256 ADD SLOAD PUSH1 0x40 MLOAD SWAP1 DUP2 MSTORE RETURN JUMPDEST CALLVALUE PUSH2 0x2D4 JUMPI PUSH1 0x40 CALLDATASIZE PUSH1 0x3 NOT ADD SLT PUSH2 0x2D4 JUMPI PUSH1 0x4 CALLDATALOAD PUSH1 0xA DUP2 LT ISZERO PUSH2 0x2D4 JUMPI PUSH2 0x266B SWAP1 PUSH2 0x1F7 PUSH2 0x28FD JUMP JUMPDEST SLOAD PUSH1 0x24 CALLDATALOAD DUP2 GT PUSH2 0x2680 JUMPI PUSH1 0x20 SWAP1 PUSH1 0x40 MLOAD SWAP1 DUP2 MSTORE RETURN JUMPDEST PUSH1 0x24 SWAP1 PUSH1 0x40 MLOAD SWAP1 PUSH4 0x49E6F69 PUSH1 0xE4 SHL DUP3 MSTORE PUSH1 0x4 DUP3 ADD MSTORE REVERT JUMPDEST CALLVALUE PUSH2 0x2D4 JUMPI PUSH1 0x20 CALLDATASIZE PUSH1 0x3 NOT ADD SLT PUSH2 0x2D4 JUMPI PUSH1 0x4 DUP1 CALLDATALOAD PUSH1 0x0 SWAP1 DUP2 MSTORE PUSH2 0x25F PUSH1 0x20 SWAP1 DUP2 MSTORE PUSH1 0x40 SWAP2 DUP3 SWAP1 KECCAK256 DUP1 SLOAD PUSH1 0x1 DUP3 ADD SLOAD PUSH1 0x2 DUP4 ADD SLOAD PUSH1 0x3 DUP5 ADD SLOAD SWAP4 SWAP1 SWAP7 ADD SLOAD DUP6 MLOAD SWAP3 DUP4 MSTORE SWAP4 DUP3 ADD MSTORE PUSH1 0x1 PUSH1 0x1 PUSH1 0xA0 SHL SUB SWAP5 DUP6 AND SWAP4 DUP2 ADD SWAP4 SWAP1 SWAP4 MSTORE DUP4 AND PUSH1 0x60 DUP4 ADD MSTORE SWAP2 SWAP1 SWAP2 AND PUSH1 0x80 DUP3 ADD MSTORE PUSH1 0xA0 SWAP1 RETURN JUMPDEST CALLVALUE PUSH2 0x2D4 JUMPI PUSH1 0x20 CALLDATASIZE PUSH1 0x3 NOT ADD SLT PUSH2 0x2D4 JUMPI PUSH1 0x4 CALLDATALOAD PUSH1 0x0 MSTORE PUSH2 0x265 PUSH1 0x20 MSTORE PUSH1 0x40 PUSH1 0x0 KECCAK256 PUSH1 0x1 DUP1 PUSH1 0xA0 SHL SUB PUSH2 0x2D0 DUP2 DUP4 SLOAD AND SWAP2 PUSH1 0x1 DUP5 ADD SLOAD SWAP4 PUSH1 0x2 DUP2 ADD SLOAD SWAP2 PUSH1 0x3 DUP3 ADD SLOAD DUP2 PUSH1 0x4 DUP5 ADD SLOAD AND SWAP2 PUSH1 0x6 DUP2 PUSH1 0x5 DUP7 ADD SLOAD AND SWAP5 ADD SLOAD AND SWAP4 PUSH1 0x40 MLOAD SWAP8 DUP9 SWAP8 DUP9 PUSH2 0x28BA JUMP JUMPDEST CALLVALUE PUSH2 0x2D4 JUMPI PUSH1 0x0 CALLDATASIZE PUSH1 0x3 NOT ADD SLT PUSH2 0x2D4 JUMPI PUSH1 0x97 SLOAD PUSH1 0x40 MLOAD PUSH1 0x1 PUSH1 0x1 PUSH1 0xA0 SHL SUB SWAP1 SWAP2 AND DUP2 MSTORE PUSH1 0x20 SWAP1 RETURN JUMPDEST CALLVALUE PUSH2 0x2D4 JUMPI PUSH1 0x20 CALLDATASIZE PUSH1 0x3 NOT ADD SLT PUSH2 0x2D4 JUMPI PUSH1 0x4 CALLDATALOAD PUSH4 0xFFFFFFFF PUSH1 0xE0 SHL DUP2 AND DUP1 SWAP2 SUB PUSH2 0x2D4 JUMPI PUSH1 0x20 SWAP1 PUSH4 0x7965DB0B PUSH1 0xE0 SHL DUP2 EQ SWAP1 DUP2 ISZERO PUSH2 0x27D8 JUMPI JUMPDEST POP PUSH1 0x40 MLOAD SWAP1 ISZERO ISZERO DUP2 MSTORE RETURN JUMPDEST PUSH4 0x1FFC9A7 PUSH1 0xE0 SHL EQ SWAP1 POP DUP3 PUSH2 0x27CD JUMP JUMPDEST PUSH1 0xE0 CALLDATASIZE PUSH1 0x3 NOT ADD SLT PUSH2 0x2D4 JUMPI PUSH2 0x27FD PUSH2 0x2F5F JUMP JUMPDEST PUSH2 0x2814 PUSH1 0x0 DUP1 MLOAD PUSH1 0x20 PUSH2 0x4B11 DUP4 CODECOPY DUP2 MLOAD SWAP2 MSTORE PUSH2 0x45F0 JUMP JUMPDEST PUSH2 0x2824 PUSH2 0x314 PUSH1 0x8 PUSH2 0x1F7 PUSH2 0x28FD JUMP JUMPDEST PUSH2 0x25D DUP1 SLOAD PUSH1 0x40 MLOAD SWAP2 PUSH2 0x2838 PUSH1 0x40 DUP5 PUSH2 0x2915 JUMP JUMPDEST PUSH1 0x8 DUP4 MSTORE PUSH1 0x20 DUP4 ADD SWAP3 PUSH1 0x1 DUP1 PUSH1 0xF8 SHL SUB NUMBER AND DUP5 MSTORE DUP3 PUSH1 0x0 MSTORE PUSH2 0x268 PUSH1 0x20 MSTORE PUSH1 0x40 PUSH1 0x0 KECCAK256 SWAP1 MLOAD PUSH1 0xA DUP2 LT ISZERO PUSH2 0x3BA JUMPI PUSH1 0xFF PUSH1 0x20 SWAP6 DUP2 NOT SWAP1 MLOAD PUSH1 0x8 SHL AND SWAP2 AND OR SWAP1 SSTORE DUP2 PUSH1 0x0 MSTORE PUSH2 0x266 DUP4 MSTORE PUSH2 0x2890 PUSH1 0x4 PUSH1 0x40 PUSH1 0x0 KECCAK256 PUSH2 0x4891 JUMP JUMPDEST PUSH1 0x40 MLOAD DUP3 DUP2 MSTORE PUSH1 0x8 DUP5 DUP3 ADD MSTORE PUSH1 0x0 DUP1 MLOAD PUSH1 0x20 PUSH2 0x4AF1 DUP4 CODECOPY DUP2 MLOAD SWAP2 MSTORE PUSH1 0x40 CALLER SWAP3 LOG2 PUSH2 0x3B0 DUP2 SLOAD PUSH2 0x45CB JUMP JUMPDEST PUSH1 0x1 PUSH1 0x1 PUSH1 0xA0 SHL SUB SWAP2 DUP3 AND DUP2 MSTORE PUSH1 0x20 DUP2 ADD SWAP3 SWAP1 SWAP3 MSTORE PUSH1 0x40 DUP3 ADD SWAP3 SWAP1 SWAP3 MSTORE PUSH1 0x60 DUP2 ADD SWAP3 SWAP1 SWAP3 MSTORE SWAP2 DUP3 AND PUSH1 0x80 DUP3 ADD MSTORE SWAP2 DUP2 AND PUSH1 0xA0 DUP4 ADD MSTORE SWAP1 SWAP2 AND PUSH1 0xC0 DUP3 ADD MSTORE PUSH1 0xE0 ADD SWAP1 JUMP JUMPDEST SWAP1 PUSH1 0xA DUP2 LT ISZERO PUSH2 0x3BA JUMPI PUSH1 0x0 MSTORE PUSH1 0x20 MSTORE PUSH1 0x40 PUSH1 0x0 KECCAK256 SWAP1 JUMP JUMPDEST SWAP1 PUSH1 0x1F DUP1 NOT SWAP2 ADD AND DUP2 ADD SWAP1 DUP2 LT PUSH8 0xFFFFFFFFFFFFFFFF DUP3 GT OR PUSH2 0x2937 JUMPI PUSH1 0x40 MSTORE JUMP JUMPDEST PUSH4 0x4E487B71 PUSH1 0xE0 SHL PUSH1 0x0 MSTORE PUSH1 0x41 PUSH1 0x4 MSTORE PUSH1 0x24 PUSH1 0x0 REVERT JUMPDEST PUSH8 0xFFFFFFFFFFFFFFFF DUP2 GT PUSH2 0x2937 JUMPI PUSH1 0x1F ADD PUSH1 0x1F NOT AND PUSH1 0x20 ADD SWAP1 JUMP JUMPDEST PUSH1 0x1 PUSH1 0x1 PUSH1 0xA0 SHL SUB SWAP2 DUP3 AND DUP2 MSTORE PUSH1 0x20 DUP2 ADD SWAP3 SWAP1 SWAP3 MSTORE PUSH1 0x40 DUP3 ADD SWAP3 SWAP1 SWAP3 MSTORE SWAP2 DUP2 AND PUSH1 0x60 DUP4 ADD MSTORE SWAP2 DUP3 AND PUSH1 0x80 DUP3 ADD MSTORE SWAP2 AND PUSH1 0xA0 DUP3 ADD MSTORE PUSH1 0xC0 ADD SWAP1 JUMP JUMPDEST SWAP1 PUSH1 0x0 SWAP2 DUP1 DUP4 MSTORE PUSH2 0x193 DUP1 PUSH1 0x20 MSTORE PUSH1 0x40 DUP5 KECCAK256 SWAP3 PUSH1 0x1 DUP1 PUSH1 0xA0 SHL SUB AND SWAP3 DUP4 DUP6 MSTORE PUSH1 0x20 MSTORE PUSH1 0xFF PUSH1 0x40 DUP6 KECCAK256 SLOAD AND PUSH2 0x29D8 JUMPI JUMPDEST POP POP POP POP JUMP JUMPDEST DUP2 DUP5 MSTORE PUSH1 0x20 MSTORE PUSH1 0x40 DUP4 KECCAK256 DUP3 DUP5 MSTORE PUSH1 0x20 MSTORE PUSH1 0x40 DUP4 KECCAK256 PUSH1 0xFF NOT DUP2 SLOAD AND SWAP1 SSTORE PUSH32 0xF6391F5C32D9C69D2A47EA670B442974B53935D1EDC7FD64EB21E047A839171B CALLER SWAP4 DUP1 LOG4 CODESIZE DUP1 DUP1 DUP1 PUSH2 0x29D2 JUMP JUMPDEST ISZERO PUSH2 0x2A29 JUMPI JUMP JUMPDEST PUSH1 0x40 MLOAD PUSH3 0x461BCD PUSH1 0xE5 SHL DUP2 MSTORE PUSH1 0x20 PUSH1 0x4 DUP3 ADD MSTORE PUSH1 0x2C PUSH1 0x24 DUP3 ADD MSTORE PUSH32 0x46756E6374696F6E206D7573742062652063616C6C6564207468726F75676820 PUSH1 0x44 DUP3 ADD MSTORE PUSH12 0x19195B1959D85D1958D85B1B PUSH1 0xA2 SHL PUSH1 0x64 DUP3 ADD MSTORE PUSH1 0x84 SWAP1 REVERT JUMPDEST ISZERO PUSH2 0x2A8A JUMPI JUMP JUMPDEST PUSH1 0x40 MLOAD PUSH3 0x461BCD PUSH1 0xE5 SHL DUP2 MSTORE PUSH1 0x20 PUSH1 0x4 DUP3 ADD MSTORE PUSH1 0x2C PUSH1 0x24 DUP3 ADD MSTORE PUSH32 0x46756E6374696F6E206D7573742062652063616C6C6564207468726F75676820 PUSH1 0x44 DUP3 ADD MSTORE PUSH12 0x6163746976652070726F7879 PUSH1 0xA0 SHL PUSH1 0x64 DUP3 ADD MSTORE PUSH1 0x84 SWAP1 REVERT JUMPDEST SWAP1 PUSH1 0xFF PUSH32 0x4910FDFA16FED3260ED0E7147F7CC6DA11A60208B5B9406D12A635614FFD9143 SLOAD AND PUSH1 0x0 EQ PUSH2 0x2B1E JUMPI POP PUSH2 0x2B1C SWAP2 POP PUSH2 0x2D1D JUMP JUMPDEST JUMP JUMPDEST PUSH1 0x40 MLOAD PUSH4 0x52D1902D PUSH1 0xE0 SHL DUP2 MSTORE PUSH1 0x20 SWAP4 SWAP2 SWAP3 SWAP2 SWAP1 PUSH1 0x1 PUSH1 0x1 PUSH1 0xA0 SHL SUB DUP4 AND SWAP1 DUP6 DUP2 PUSH1 0x4 DUP2 DUP6 GAS STATICCALL PUSH1 0x0 SWAP2 DUP2 PUSH2 0x2CEB JUMPI JUMPDEST POP PUSH2 0x2BAF JUMPI PUSH1 0x40 MLOAD PUSH3 0x461BCD PUSH1 0xE5 SHL DUP2 MSTORE PUSH1 0x4 DUP2 ADD DUP8 SWAP1 MSTORE PUSH1 0x2E PUSH1 0x24 DUP3 ADD MSTORE PUSH32 0x45524331393637557067726164653A206E657720696D706C656D656E74617469 PUSH1 0x44 DUP3 ADD MSTORE PUSH14 0x6F6E206973206E6F742055555053 PUSH1 0x90 SHL PUSH1 0x64 DUP3 ADD MSTORE PUSH1 0x84 SWAP1 REVERT JUMPDEST SWAP4 SWAP5 SWAP4 PUSH32 0xC9F76B5EC45E5CDEF99837D7B6D2467235C1DF8933C8CA56DF5C35AFA2C7D444 ADD PUSH2 0x2C94 JUMPI PUSH2 0x2BE1 DUP4 PUSH2 0x2D1D JUMP JUMPDEST PUSH32 0xBC7CD75A20EE27FD9ADEBAB32041F755214DBC6BFFA90CC0225B39DA2E5C2D3B PUSH1 0x0 DUP1 LOG2 DUP4 MLOAD ISZERO SWAP1 DUP2 ISZERO SWAP2 PUSH2 0x2C8C JUMPI JUMPDEST POP PUSH2 0x2C1C JUMPI POP POP POP JUMP JUMPDEST PUSH1 0x0 DUP1 PUSH2 0x2C89 SWAP5 PUSH2 0x2C2D PUSH1 0x27 PUSH2 0x294D JUMP JUMPDEST SWAP5 PUSH2 0x2C3B PUSH1 0x40 MLOAD SWAP7 DUP8 PUSH2 0x2915 JUMP JUMPDEST PUSH1 0x27 DUP7 MSTORE PUSH32 0x416464726573733A206C6F772D6C6576656C2064656C65676174652063616C6C DUP2 DUP8 ADD MSTORE PUSH7 0x819985A5B1959 PUSH1 0xCA SHL PUSH1 0x40 DUP8 ADD MSTORE DUP2 MLOAD SWAP2 ADD DUP5 GAS DELEGATECALL PUSH2 0x2C83 PUSH2 0x2DBF JUMP JUMPDEST SWAP2 PUSH2 0x2DEF JUMP JUMPDEST POP JUMP JUMPDEST SWAP1 POP CODESIZE PUSH2 0x2C12 JUMP JUMPDEST PUSH1 0x40 MLOAD PUSH3 0x461BCD PUSH1 0xE5 SHL DUP2 MSTORE PUSH1 0x4 DUP2 ADD DUP6 SWAP1 MSTORE PUSH1 0x29 PUSH1 0x24 DUP3 ADD MSTORE PUSH32 0x45524331393637557067726164653A20756E737570706F727465642070726F78 PUSH1 0x44 DUP3 ADD MSTORE PUSH9 0x1A58589B1955555251 PUSH1 0xBA SHL PUSH1 0x64 DUP3 ADD MSTORE PUSH1 0x84 SWAP1 REVERT JUMPDEST SWAP1 SWAP2 DUP8 DUP3 DUP2 RETURNDATASIZE DUP4 GT PUSH2 0x2D16 JUMPI JUMPDEST PUSH2 0x2D02 DUP2 DUP4 PUSH2 0x2915 JUMP JUMPDEST DUP2 ADD SUB SLT PUSH2 0x2D13 JUMPI POP MLOAD SWAP1 CODESIZE PUSH2 0x2B4E JUMP JUMPDEST DUP1 REVERT JUMPDEST POP RETURNDATASIZE PUSH2 0x2CF8 JUMP JUMPDEST DUP1 EXTCODESIZE ISZERO PUSH2 0x2D64 JUMPI PUSH32 0x360894A13BA1A3210667C828492DB98DCA3E2076CC3735A920A3CA505D382BBC DUP1 SLOAD PUSH1 0x1 PUSH1 0x1 PUSH1 0xA0 SHL SUB NOT AND PUSH1 0x1 PUSH1 0x1 PUSH1 0xA0 SHL SUB SWAP1 SWAP3 AND SWAP2 SWAP1 SWAP2 OR SWAP1 SSTORE JUMP JUMPDEST PUSH1 0x40 MLOAD PUSH3 0x461BCD PUSH1 0xE5 SHL DUP2 MSTORE PUSH1 0x20 PUSH1 0x4 DUP3 ADD MSTORE PUSH1 0x2D PUSH1 0x24 DUP3 ADD MSTORE PUSH32 0x455243313936373A206E657720696D706C656D656E746174696F6E206973206E PUSH1 0x44 DUP3 ADD MSTORE PUSH13 0x1BDD08184818DBDB9D1C9858DD PUSH1 0x9A SHL PUSH1 0x64 DUP3 ADD MSTORE PUSH1 0x84 SWAP1 REVERT JUMPDEST RETURNDATASIZE ISZERO PUSH2 0x2DEA JUMPI RETURNDATASIZE SWAP1 PUSH2 0x2DD0 DUP3 PUSH2 0x294D JUMP JUMPDEST SWAP2 PUSH2 0x2DDE PUSH1 0x40 MLOAD SWAP4 DUP5 PUSH2 0x2915 JUMP JUMPDEST DUP3 MSTORE RETURNDATASIZE PUSH1 0x0 PUSH1 0x20 DUP5 ADD RETURNDATACOPY JUMP JUMPDEST PUSH1 0x60 SWAP1 JUMP JUMPDEST SWAP2 SWAP3 SWAP1 ISZERO PUSH2 0x2E51 JUMPI POP DUP2 MLOAD ISZERO PUSH2 0x2E03 JUMPI POP SWAP1 JUMP JUMPDEST EXTCODESIZE ISZERO PUSH2 0x2E0C JUMPI SWAP1 JUMP JUMPDEST PUSH1 0x40 MLOAD PUSH3 0x461BCD PUSH1 0xE5 SHL DUP2 MSTORE PUSH1 0x20 PUSH1 0x4 DUP3 ADD MSTORE PUSH1 0x1D PUSH1 0x24 DUP3 ADD MSTORE PUSH32 0x416464726573733A2063616C6C20746F206E6F6E2D636F6E7472616374000000 PUSH1 0x44 DUP3 ADD MSTORE PUSH1 0x64 SWAP1 REVERT JUMPDEST DUP3 MLOAD SWAP1 SWAP2 POP ISZERO PUSH2 0x2E64 JUMPI POP DUP1 MLOAD SWAP1 PUSH1 0x20 ADD REVERT JUMPDEST PUSH1 0x40 MLOAD PUSH3 0x461BCD PUSH1 0xE5 SHL DUP2 MSTORE PUSH1 0x20 PUSH1 0x4 DUP3 ADD MSTORE SWAP1 DUP2 SWAP1 PUSH2 0x2E88 SWAP1 PUSH1 0x24 DUP4 ADD SWAP1 PUSH2 0x2EAF JUMP JUMPDEST SUB SWAP1 REVERT JUMPDEST PUSH1 0x0 JUMPDEST DUP4 DUP2 LT PUSH2 0x2E9F JUMPI POP POP PUSH1 0x0 SWAP2 ADD MSTORE JUMP JUMPDEST DUP2 DUP2 ADD MLOAD DUP4 DUP3 ADD MSTORE PUSH1 0x20 ADD PUSH2 0x2E8F JUMP JUMPDEST SWAP1 PUSH1 0x20 SWAP2 PUSH2 0x2EC8 DUP2 MLOAD DUP1 SWAP3 DUP2 DUP6 MSTORE DUP6 DUP1 DUP7 ADD SWAP2 ADD PUSH2 0x2E8C JUMP JUMPDEST PUSH1 0x1F ADD PUSH1 0x1F NOT AND ADD ADD SWAP1 JUMP JUMPDEST SWAP1 DUP2 PUSH1 0x20 SWAP2 SUB SLT PUSH2 0x2D4 JUMPI MLOAD DUP1 ISZERO ISZERO DUP2 SUB PUSH2 0x2D4 JUMPI SWAP1 JUMP JUMPDEST PUSH1 0x97 SLOAD PUSH1 0x40 MLOAD PUSH4 0xD994D6D5 PUSH1 0xE0 SHL DUP2 MSTORE CALLER PUSH1 0x4 DUP3 ADD MSTORE SWAP1 PUSH1 0x20 SWAP1 DUP3 SWAP1 PUSH1 0x24 SWAP1 DUP3 SWAP1 PUSH1 0x1 PUSH1 0x1 PUSH1 0xA0 SHL SUB AND GAS STATICCALL SWAP1 DUP2 ISZERO PUSH2 0x1564 JUMPI PUSH1 0x0 SWAP2 PUSH2 0x2F41 JUMPI JUMPDEST POP ISZERO PUSH2 0x2F2F JUMPI JUMP JUMPDEST PUSH1 0x40 MLOAD PUSH4 0x1DD1B1B5 PUSH1 0xE2 SHL DUP2 MSTORE PUSH1 0x4 SWAP1 REVERT JUMPDEST PUSH2 0x2F59 SWAP2 POP PUSH1 0x20 RETURNDATASIZE DUP2 GT PUSH2 0x2245 JUMPI PUSH2 0x2237 DUP2 DUP4 PUSH2 0x2915 JUMP JUMPDEST CODESIZE PUSH2 0x2F27 JUMP JUMPDEST PUSH1 0xFF PUSH1 0xCA SLOAD PUSH1 0x8 SHR AND PUSH2 0x2F6E JUMPI JUMP JUMPDEST PUSH1 0x40 MLOAD PUSH4 0x783BB6C9 PUSH1 0xE1 SHL DUP2 MSTORE PUSH1 0x4 SWAP1 REVERT JUMPDEST ISZERO PUSH2 0x2F87 JUMPI JUMP JUMPDEST PUSH1 0x40 MLOAD PUSH3 0x461BCD PUSH1 0xE5 SHL DUP2 MSTORE PUSH1 0x20 PUSH1 0x4 DUP3 ADD MSTORE PUSH1 0x2B PUSH1 0x24 DUP3 ADD MSTORE PUSH32 0x496E697469616C697A61626C653A20636F6E7472616374206973206E6F742069 PUSH1 0x44 DUP3 ADD MSTORE PUSH11 0x6E697469616C697A696E67 PUSH1 0xA8 SHL PUSH1 0x64 DUP3 ADD MSTORE PUSH1 0x84 SWAP1 REVERT JUMPDEST PUSH1 0xA DUP3 LT ISZERO PUSH2 0x3BA JUMPI MSTORE JUMP JUMPDEST SWAP1 PUSH1 0x40 MLOAD PUSH2 0x2FFB PUSH1 0xA0 DUP3 PUSH2 0x2915 JUMP JUMPDEST DUP3 SLOAD DUP2 MSTORE PUSH1 0x1 DUP4 ADD SLOAD PUSH1 0x20 DUP3 ADD MSTORE PUSH1 0x2 DUP4 ADD SLOAD PUSH1 0x1 PUSH1 0x1 PUSH1 0xA0 SHL SUB SWAP1 DUP2 AND PUSH1 0x40 DUP4 ADD MSTORE PUSH1 0x3 DUP5 ADD SLOAD DUP2 AND PUSH1 0x60 DUP4 ADD MSTORE PUSH1 0x4 SWAP1 SWAP4 ADD SLOAD SWAP1 SWAP3 AND PUSH1 0x80 DUP4 ADD MSTORE JUMP JUMPDEST SWAP2 SWAP1 DUP3 PUSH1 0x80 SWAP2 SUB SLT PUSH2 0x2D4 JUMPI PUSH1 0x40 MLOAD PUSH2 0x3054 PUSH1 0x80 DUP3 PUSH2 0x2915 JUMP JUMPDEST PUSH1 0x60 DUP1 DUP3 SWAP5 DUP1 MLOAD DUP5 MSTORE PUSH1 0x20 DUP2 ADD MLOAD PUSH1 0x20 DUP6 ADD MSTORE PUSH1 0x40 DUP2 ADD MLOAD PUSH1 0x40 DUP6 ADD MSTORE ADD MLOAD SWAP2 ADD MSTORE JUMP JUMPDEST SWAP1 SWAP2 PUSH1 0xC0 DUP3 DUP5 SUB SLT PUSH2 0x2D4 JUMPI PUSH2 0x3098 DUP3 MLOAD SWAP4 PUSH1 0x40 PUSH1 0x20 DUP6 ADD MLOAD SWAP5 ADD PUSH2 0x303A JUMP JUMPDEST SWAP1 JUMP JUMPDEST SWAP1 PUSH1 0x20 DUP3 MLOAD SWAP3 ADD MLOAD PUSH4 0xFFFFFFFF PUSH1 0xE0 SHL SWAP1 DUP2 DUP2 AND SWAP4 PUSH1 0x4 DUP2 LT PUSH2 0x30BD JUMPI POP POP POP JUMP JUMPDEST PUSH1 0x4 SUB PUSH1 0x3 SHL DUP3 SWAP1 SHL AND AND SWAP2 POP JUMP JUMPDEST SWAP1 SWAP2 PUSH1 0xA0 SWAP3 DUP3 MSTORE PUSH4 0xFFFFFFFF PUSH1 0xE0 SHL AND PUSH1 0x20 DUP3 ADD MSTORE PUSH1 0x60 PUSH1 0x40 DUP3 ADD MSTORE PUSH1 0xC PUSH1 0x60 DUP3 ADD MSTORE PUSH12 0x4C6F7720636F766572616765 PUSH1 0xA0 SHL PUSH1 0x80 DUP3 ADD MSTORE ADD SWAP1 JUMP JUMPDEST SWAP1 SWAP2 PUSH1 0xA0 SWAP3 DUP3 MSTORE PUSH4 0xFFFFFFFF PUSH1 0xE0 SHL AND PUSH1 0x20 DUP3 ADD MSTORE PUSH1 0x60 PUSH1 0x40 DUP3 ADD MSTORE PUSH1 0x15 PUSH1 0x60 DUP3 ADD MSTORE PUSH21 0x125B9CDD59999A58DA595B9D081C5858C81CD95B9D PUSH1 0x5A SHL PUSH1 0x80 DUP3 ADD MSTORE ADD SWAP1 JUMP JUMPDEST SWAP5 SWAP2 SWAP3 PUSH1 0xE0 SWAP7 SWAP4 SWAP10 SWAP9 SWAP8 SWAP5 SWAP2 SWAP10 PUSH2 0x100 DUP8 ADD SWAP11 DUP8 MSTORE PUSH1 0x20 DUP8 ADD MSTORE PUSH1 0x40 DUP7 ADD MSTORE PUSH1 0x60 DUP6 ADD MSTORE PUSH1 0x80 DUP5 ADD MSTORE PUSH1 0xA0 DUP4 ADD MSTORE PUSH1 0x1 DUP1 PUSH1 0xA0 SHL SUB AND PUSH1 0xC0 DUP3 ADD MSTORE ADD MSTORE JUMP JUMPDEST SWAP1 SWAP2 PUSH1 0xA0 SWAP3 DUP3 MSTORE PUSH4 0xFFFFFFFF PUSH1 0xE0 SHL AND PUSH1 0x20 DUP3 ADD MSTORE PUSH1 0x60 PUSH1 0x40 DUP3 ADD MSTORE PUSH1 0x1A PUSH1 0x60 DUP3 ADD MSTORE PUSH32 0x7141432062656C6F77206D696E696D756D207265717569726564000000000000 PUSH1 0x80 DUP3 ADD MSTORE ADD SWAP1 JUMP JUMPDEST SWAP1 PUSH1 0x40 MLOAD PUSH2 0x31E8 PUSH1 0xC0 DUP3 PUSH2 0x2915 JUMP JUMPDEST DUP3 SLOAD PUSH1 0x1 PUSH1 0x1 PUSH1 0xA0 SHL SUB SWAP1 DUP2 AND DUP3 MSTORE PUSH1 0x1 DUP5 ADD SLOAD PUSH1 0x20 DUP4 ADD MSTORE PUSH1 0x2 DUP5 ADD SLOAD PUSH1 0x40 DUP4 ADD MSTORE PUSH1 0x3 DUP5 ADD SLOAD DUP2 AND PUSH1 0x60 DUP4 ADD MSTORE PUSH1 0x4 DUP5 ADD SLOAD DUP2 AND PUSH1 0x80 DUP4 ADD MSTORE PUSH1 0x5 SWAP1 SWAP4 ADD SLOAD SWAP1 SWAP3 AND PUSH1 0xA0 DUP4 ADD MSTORE JUMP JUMPDEST PUSH1 0xA0 SWAP1 DUP2 PUSH1 0x1 DUP1 DUP3 SHL SUB SWAP2 DUP3 DUP2 MLOAD AND DUP6 MSTORE PUSH1 0x20 DUP2 ADD MLOAD PUSH1 0x20 DUP7 ADD MSTORE PUSH1 0x40 DUP2 ADD MLOAD PUSH1 0x40 DUP7 ADD MSTORE DUP3 PUSH1 0x60 DUP3 ADD MLOAD AND PUSH1 0x60 DUP7 ADD MSTORE DUP3 PUSH1 0x80 DUP3 ADD MLOAD AND PUSH1 0x80 DUP7 ADD MSTORE ADD MLOAD AND SWAP2 ADD MSTORE JUMP JUMPDEST SWAP1 SWAP2 PUSH1 0xC0 SWAP3 DUP3 MSTORE PUSH4 0xFFFFFFFF PUSH1 0xE0 SHL AND PUSH1 0x20 DUP3 ADD MSTORE PUSH1 0x60 PUSH1 0x40 DUP3 ADD MSTORE PUSH1 0x24 PUSH1 0x60 DUP3 ADD MSTORE PUSH32 0x4D617820666C757820636170616369746F72206F7065726174696F6E20726561 PUSH1 0x80 DUP3 ADD MSTORE PUSH4 0x18DA1959 PUSH1 0xE2 SHL PUSH1 0xA0 DUP3 ADD MSTORE ADD SWAP1 JUMP JUMPDEST SWAP1 PUSH1 0x0 DUP3 DUP2 MSTORE PUSH2 0x260 SWAP3 PUSH1 0x20 SWAP1 DUP5 DUP3 MSTORE PUSH1 0x40 PUSH2 0x32EF DUP2 DUP6 KECCAK256 PUSH2 0x31D9 JUMP JUMPDEST PUSH2 0x25C DUP1 SLOAD DUP4 MLOAD PUSH4 0x5A21A619 PUSH1 0xE1 SHL DUP2 MSTORE PUSH1 0x1 PUSH1 0x1 PUSH1 0xA0 SHL SUB SWAP10 SWAP3 SWAP7 SWAP2 PUSH1 0xC0 SWAP1 DUP3 SWAP1 PUSH1 0xC4 SWAP1 DUP3 SWAP1 DUP13 SWAP1 DUP16 AND PUSH2 0x3327 PUSH1 0x4 DUP5 ADD DUP12 PUSH2 0x3233 JUMP JUMPDEST GAS CALL SWAP1 DUP2 DUP10 SWAP2 DUP11 SWAP4 PUSH2 0x35B7 JUMPI JUMPDEST POP PUSH2 0x353E JUMPI POP POP PUSH2 0x3343 PUSH2 0x2DBF JUMP JUMPDEST SWAP9 PUSH2 0x334D DUP11 PUSH2 0x309B JUMP JUMPDEST SWAP7 PUSH1 0x1 PUSH1 0x1 PUSH1 0xE0 SHL SUB NOT DUP9 AND PUSH4 0x6DA41E5 PUSH1 0xE1 SHL DUP2 SUB PUSH2 0x3394 JUMPI POP POP POP POP POP POP PUSH1 0x0 DUP1 MLOAD PUSH1 0x20 PUSH2 0x4AB1 DUP4 CODECOPY DUP2 MLOAD SWAP2 MSTORE SWAP4 SWAP5 SWAP6 POP PUSH2 0x338E SWAP1 MLOAD SWAP3 DUP4 SWAP3 DUP4 PUSH2 0x3278 JUMP JUMPDEST SUB SWAP1 LOG1 SWAP1 JUMP JUMPDEST DUP7 SWAP10 SWAP9 DUP4 SWAP6 SWAP9 SWAP7 SWAP13 PUSH4 0xC39B739F PUSH1 0xE0 SWAP10 SWAP7 SWAP10 SHL DUP4 EQ PUSH1 0x0 EQ PUSH2 0x34AD JUMPI POP POP PUSH1 0xA0 PUSH1 0x0 DUP1 MLOAD PUSH1 0x20 PUSH2 0x4AB1 DUP4 CODECOPY DUP2 MLOAD SWAP2 MSTORE SWAP2 DUP6 MLOAD SWAP1 DUP9 DUP3 MSTORE DUP10 DUP3 ADD MSTORE PUSH1 0x60 DUP7 DUP3 ADD MSTORE PUSH1 0x17 PUSH1 0x60 DUP3 ADD MSTORE PUSH32 0x496E73756666696369656E7420747020746F206D696E74000000000000000000 PUSH1 0x80 DUP3 ADD MSTORE LOG1 JUMPDEST SLOAD AND SWAP2 PUSH1 0x60 DUP11 ADD MLOAD AND SWAP9 ADD MLOAD SWAP8 DUP2 EXTCODESIZE ISZERO PUSH2 0x34A9 JUMPI DUP7 MLOAD PUSH4 0x58F32DE9 PUSH1 0xE0 SHL DUP2 MSTORE PUSH1 0x1 PUSH1 0x1 PUSH1 0xA0 SHL SUB SWAP1 SWAP2 AND PUSH1 0x4 DUP3 ADD MSTORE PUSH1 0x24 DUP2 ADD SWAP9 SWAP1 SWAP9 MSTORE DUP5 SWAP1 DUP9 SWAP1 DUP2 DUP4 DUP2 PUSH1 0x44 DUP2 ADD JUMPDEST SUB SWAP3 GAS CALL SWAP7 DUP8 ISZERO PUSH2 0x349F JUMPI PUSH2 0x3486 SWAP7 SWAP8 PUSH2 0x348B JUMPI JUMPDEST POP JUMPDEST DUP4 MSTORE MSTORE KECCAK256 PUSH1 0x5 PUSH1 0x0 SWAP2 DUP3 DUP2 SSTORE DUP3 PUSH1 0x1 DUP3 ADD SSTORE DUP3 PUSH1 0x2 DUP3 ADD SSTORE DUP3 PUSH1 0x3 DUP3 ADD SSTORE DUP3 PUSH1 0x4 DUP3 ADD SSTORE ADD SSTORE JUMP JUMPDEST PUSH1 0x1 SWAP1 JUMP JUMPDEST DUP5 PUSH2 0x3498 SWAP2 SWAP6 SWAP3 SWAP6 PUSH2 0x2915 JUMP JUMPDEST SWAP3 CODESIZE PUSH2 0x345C JUMP JUMPDEST DUP6 MLOAD RETURNDATASIZE DUP7 DUP3 RETURNDATACOPY RETURNDATASIZE SWAP1 REVERT JUMPDEST DUP6 DUP1 REVERT JUMPDEST SWAP1 SWAP2 PUSH4 0xB63F1A7 PUSH1 0xE0 SHL DUP2 SUB PUSH2 0x34E6 JUMPI POP POP PUSH2 0x34DE PUSH1 0x0 DUP1 MLOAD PUSH1 0x20 PUSH2 0x4AB1 DUP4 CODECOPY DUP2 MLOAD SWAP2 MSTORE SWAP2 DUP6 MLOAD SWAP2 DUP3 SWAP2 DUP10 DUP4 PUSH2 0x3108 JUMP JUMPDEST SUB SWAP1 LOG1 PUSH2 0x3403 JUMP JUMPDEST PUSH4 0x79121201 PUSH1 0xE0 SHL SUB PUSH2 0x3513 JUMPI POP PUSH2 0x34DE PUSH1 0x0 DUP1 MLOAD PUSH1 0x20 PUSH2 0x4AB1 DUP4 CODECOPY DUP2 MLOAD SWAP2 MSTORE SWAP2 DUP6 MLOAD SWAP2 DUP3 SWAP2 DUP10 DUP4 PUSH2 0x30CC JUMP JUMPDEST PUSH1 0x0 DUP1 MLOAD PUSH1 0x20 PUSH2 0x4AD1 DUP4 CODECOPY DUP2 MLOAD SWAP2 MSTORE SWAP2 POP PUSH2 0x34DE SWAP1 DUP6 MLOAD SWAP2 DUP3 SWAP2 DUP10 DUP4 MSTORE DUP8 DUP12 DUP5 ADD MSTORE DUP8 DUP4 ADD SWAP1 PUSH2 0x2EAF JUMP JUMPDEST DUP5 SWAP3 SWAP6 SWAP9 SWAP8 POP PUSH32 0x125247FDF990B9B419D4B4F895B1BB75BC485E3F8B813CF5557A4A12A56D054D SWAP1 DUP12 PUSH2 0x3486 SWAP12 SWAP13 SWAP4 SWAP6 SWAP9 SWAP7 MLOAD AND SWAP3 PUSH2 0x35AF DUP8 DUP13 DUP4 PUSH1 0x60 DUP10 ADD MLOAD AND SWAP8 DUP5 PUSH1 0x80 DUP3 ADD MLOAD AND SWAP10 DUP13 DUP3 ADD MLOAD SWAP6 DUP14 DUP3 MLOAD SWAP1 DUP4 ADD MLOAD SWAP2 PUSH1 0xA0 PUSH1 0x60 DUP8 DUP7 ADD MLOAD SWAP6 ADD MLOAD SWAP6 ADD MLOAD AND SWAP5 MLOAD SWAP9 DUP10 SWAP9 DUP10 PUSH2 0x314D JUMP JUMPDEST SUB SWAP1 LOG4 PUSH2 0x345E JUMP JUMPDEST SWAP1 SWAP3 POP PUSH2 0x35D2 SWAP2 POP PUSH1 0xC0 RETURNDATASIZE DUP2 GT PUSH2 0x167F JUMPI PUSH2 0x166D DUP2 DUP4 PUSH2 0x2915 JUMP JUMPDEST SWAP3 SWAP1 POP CODESIZE PUSH2 0x3334 JUMP JUMPDEST SWAP1 PUSH1 0x0 DUP3 DUP2 MSTORE PUSH2 0x262 PUSH1 0x20 SWAP4 DUP2 DUP6 MSTORE PUSH1 0x40 PUSH2 0x35F7 DUP2 DUP6 KECCAK256 PUSH2 0x31D9 JUMP JUMPDEST PUSH2 0x25C DUP1 SLOAD DUP4 MLOAD PUSH4 0xAD4E666D PUSH1 0xE0 SHL DUP2 MSTORE PUSH1 0x1 PUSH1 0x1 PUSH1 0xA0 SHL SUB SWAP10 SWAP3 SWAP7 SWAP4 SWAP2 PUSH1 0xC0 SWAP1 DUP3 SWAP1 PUSH1 0xC4 SWAP1 DUP3 SWAP1 DUP13 SWAP1 DUP16 AND PUSH2 0x3630 PUSH1 0x4 DUP5 ADD DUP10 PUSH2 0x3233 JUMP JUMPDEST GAS CALL SWAP1 DUP2 DUP10 SWAP2 DUP11 SWAP4 PUSH2 0x3802 JUMPI JUMPDEST POP PUSH2 0x3791 JUMPI POP POP PUSH2 0x364C PUSH2 0x2DBF JUMP JUMPDEST SWAP6 PUSH2 0x3656 DUP8 PUSH2 0x309B JUMP JUMPDEST SWAP7 PUSH1 0x1 PUSH1 0x1 PUSH1 0xE0 SHL SUB NOT DUP9 AND PUSH4 0x6DA41E5 PUSH1 0xE1 SHL DUP2 SUB PUSH2 0x3697 JUMPI POP POP POP POP POP POP PUSH1 0x0 DUP1 MLOAD PUSH1 0x20 PUSH2 0x4AB1 DUP4 CODECOPY DUP2 MLOAD SWAP2 MSTORE SWAP4 SWAP5 SWAP6 POP PUSH2 0x338E SWAP1 MLOAD SWAP3 DUP4 SWAP3 DUP4 PUSH2 0x3278 JUMP JUMPDEST SWAP1 DUP12 SWAP4 SWAP5 SWAP7 SWAP10 SWAP9 SWAP2 PUSH4 0x54CDE313 PUSH1 0xE0 SWAP10 SWAP8 SWAP10 SHL DUP2 EQ PUSH1 0x0 EQ PUSH2 0x3731 JUMPI POP POP PUSH2 0x36D4 PUSH1 0x0 DUP1 MLOAD PUSH1 0x20 PUSH2 0x4AB1 DUP4 CODECOPY DUP2 MLOAD SWAP2 MSTORE SWAP2 DUP11 MLOAD SWAP2 DUP3 SWAP2 DUP9 DUP4 PUSH2 0x318C JUMP JUMPDEST SUB SWAP1 LOG1 JUMPDEST SLOAD AND SWAP1 DUP4 DUP10 PUSH1 0x60 DUP4 ADD MLOAD AND SWAP10 DUP3 MLOAD AND SWAP2 ADD MLOAD SWAP9 DUP3 EXTCODESIZE ISZERO PUSH2 0x372D JUMPI DUP8 MLOAD PUSH4 0xE2C5E99 PUSH1 0xE4 SHL DUP2 MSTORE PUSH1 0x1 PUSH1 0x1 PUSH1 0xA0 SHL SUB SWAP2 DUP3 AND PUSH1 0x4 DUP3 ADD MSTORE SWAP2 AND PUSH1 0x24 DUP3 ADD MSTORE PUSH1 0x44 DUP2 ADD SWAP9 SWAP1 SWAP9 MSTORE DUP5 SWAP1 DUP9 SWAP1 DUP2 DUP4 DUP2 PUSH1 0x64 DUP2 ADD PUSH2 0x3447 JUMP JUMPDEST DUP7 DUP1 REVERT JUMPDEST PUSH4 0x79121201 PUSH1 0xE0 SHL SUB PUSH2 0x3766 JUMPI POP PUSH2 0x375E PUSH1 0x0 DUP1 MLOAD PUSH1 0x20 PUSH2 0x4AB1 DUP4 CODECOPY DUP2 MLOAD SWAP2 MSTORE SWAP2 DUP11 MLOAD SWAP2 DUP3 SWAP2 DUP9 DUP4 PUSH2 0x30CC JUMP JUMPDEST SUB SWAP1 LOG1 PUSH2 0x36D8 JUMP JUMPDEST PUSH1 0x0 DUP1 MLOAD PUSH1 0x20 PUSH2 0x4AD1 DUP4 CODECOPY DUP2 MLOAD SWAP2 MSTORE SWAP2 POP PUSH2 0x375E SWAP1 DUP11 MLOAD SWAP2 DUP3 SWAP2 DUP9 DUP4 MSTORE DUP13 DUP11 DUP5 ADD MSTORE DUP13 DUP4 ADD SWAP1 PUSH2 0x2EAF JUMP JUMPDEST DUP11 SWAP2 SWAP4 SWAP6 SWAP9 SWAP8 POP PUSH32 0x625B9FC283A619F53BEB817D79B8AB044D60E307FD2AF4BB89FA5E9A24CE4EBC SWAP1 PUSH2 0x3486 SWAP11 SWAP12 DUP5 SWAP9 SWAP7 SWAP9 MLOAD AND SWAP3 PUSH2 0x35AF DUP8 DUP13 DUP4 PUSH1 0x60 DUP10 ADD MLOAD AND SWAP8 DUP5 PUSH1 0x80 DUP3 ADD MLOAD AND SWAP10 DUP13 DUP3 ADD MLOAD SWAP6 DUP14 DUP3 MLOAD SWAP1 DUP4 ADD MLOAD SWAP2 PUSH1 0xA0 PUSH1 0x60 DUP8 DUP7 ADD MLOAD SWAP6 ADD MLOAD SWAP6 ADD MLOAD AND SWAP5 MLOAD SWAP9 DUP10 SWAP9 DUP10 PUSH2 0x314D JUMP JUMPDEST SWAP1 SWAP3 POP PUSH2 0x381D SWAP2 POP PUSH1 0xC0 RETURNDATASIZE DUP2 GT PUSH2 0x167F JUMPI PUSH2 0x166D DUP2 DUP4 PUSH2 0x2915 JUMP JUMPDEST SWAP3 SWAP1 POP CODESIZE PUSH2 0x363D JUMP JUMPDEST PUSH1 0xE0 DUP2 DUP4 SUB SLT PUSH2 0x2D4 JUMPI DUP1 MLOAD SWAP3 PUSH2 0x3098 PUSH1 0x20 DUP4 ADD MLOAD SWAP4 PUSH1 0x60 PUSH1 0x40 DUP6 ADD MLOAD SWAP5 ADD PUSH2 0x303A JUMP JUMPDEST SWAP1 PUSH1 0x0 DUP3 DUP2 MSTORE PUSH2 0x263 DUP1 PUSH1 0x20 MSTORE PUSH1 0x40 SWAP4 PUSH2 0x3865 DUP6 DUP5 KECCAK256 PUSH2 0x31D9 JUMP JUMPDEST SWAP5 PUSH1 0x1 DUP1 PUSH1 0xA0 SHL SUB SWAP6 PUSH2 0x25C SWAP4 DUP6 PUSH1 0xE0 DUP10 DUP8 SLOAD AND PUSH1 0xC4 DUP7 MLOAD DUP1 SWAP5 DUP2 SWAP4 PUSH4 0x883D21CB DUP7 SHL DUP4 MSTORE PUSH2 0x3897 PUSH1 0x4 DUP5 ADD DUP11 PUSH2 0x3233 JUMP JUMPDEST GAS CALL DUP8 SWAP2 DUP3 SWAP2 DUP3 SWAP2 DUP2 PUSH2 0x3AC1 JUMPI JUMPDEST POP PUSH2 0x3A46 JUMPI POP POP POP PUSH2 0x38B5 PUSH2 0x2DBF JUMP JUMPDEST SWAP8 PUSH2 0x38BF DUP10 PUSH2 0x309B JUMP JUMPDEST SWAP6 PUSH1 0x1 PUSH1 0x1 PUSH1 0xE0 SHL SUB NOT DUP8 AND PUSH4 0x6DA41E5 PUSH1 0xE1 SHL DUP2 SUB PUSH2 0x38FF JUMPI POP POP POP POP POP PUSH1 0x0 DUP1 MLOAD PUSH1 0x20 PUSH2 0x4AB1 DUP4 CODECOPY DUP2 MLOAD SWAP2 MSTORE SWAP4 SWAP5 SWAP6 POP PUSH2 0x338E SWAP1 MLOAD SWAP3 DUP4 SWAP3 DUP4 PUSH2 0x3278 JUMP JUMPDEST SWAP7 DUP3 SWAP5 SWAP11 DUP7 SWAP10 SWAP9 PUSH4 0xB63F1A7 PUSH1 0xE0 SWAP10 SWAP9 SWAP7 SWAP10 SHL DUP2 EQ PUSH1 0x0 EQ PUSH2 0x39E5 JUMPI POP POP PUSH2 0x393C PUSH1 0x0 DUP1 MLOAD PUSH1 0x20 PUSH2 0x4AB1 DUP4 CODECOPY DUP2 MLOAD SWAP2 MSTORE SWAP2 DUP6 MLOAD SWAP2 DUP3 SWAP2 DUP10 DUP4 PUSH2 0x3108 JUMP JUMPDEST SUB SWAP1 LOG1 JUMPDEST SLOAD AND SWAP2 PUSH1 0x60 DUP10 ADD MLOAD AND SWAP8 ADD MLOAD SWAP7 DUP2 EXTCODESIZE ISZERO PUSH2 0x39E1 JUMPI DUP6 MLOAD PUSH4 0x58F32DE9 PUSH1 0xE0 SHL DUP2 MSTORE PUSH1 0x1 PUSH1 0x1 PUSH1 0xA0 SHL SUB SWAP2 SWAP1 SWAP2 AND PUSH1 0x4 DUP3 ADD MSTORE PUSH1 0x24 DUP2 ADD SWAP8 SWAP1 SWAP8 MSTORE DUP4 SWAP1 DUP8 SWAP1 PUSH1 0x44 SWAP1 DUP3 SWAP1 DUP5 SWAP1 GAS CALL SWAP6 DUP7 ISZERO PUSH2 0x39D7 JUMPI PUSH2 0x3486 SWAP6 SWAP7 PUSH2 0x39C3 JUMPI JUMPDEST POP JUMPDEST DUP3 MSTORE PUSH1 0x20 MSTORE KECCAK256 PUSH1 0x5 PUSH1 0x0 SWAP2 DUP3 DUP2 SSTORE DUP3 PUSH1 0x1 DUP3 ADD SSTORE DUP3 PUSH1 0x2 DUP3 ADD SSTORE DUP3 PUSH1 0x3 DUP3 ADD SSTORE DUP3 PUSH1 0x4 DUP3 ADD SSTORE ADD SSTORE JUMP JUMPDEST DUP4 PUSH2 0x39D0 SWAP2 SWAP5 SWAP3 SWAP5 PUSH2 0x2915 JUMP JUMPDEST SWAP2 CODESIZE PUSH2 0x3997 JUMP JUMPDEST DUP5 MLOAD RETURNDATASIZE DUP6 DUP3 RETURNDATACOPY RETURNDATASIZE SWAP1 REVERT JUMPDEST DUP5 DUP1 REVERT JUMPDEST PUSH4 0x79121201 PUSH1 0xE0 SHL SUB PUSH2 0x3A1A JUMPI POP PUSH2 0x3A12 PUSH1 0x0 DUP1 MLOAD PUSH1 0x20 PUSH2 0x4AB1 DUP4 CODECOPY DUP2 MLOAD SWAP2 MSTORE SWAP2 DUP6 MLOAD SWAP2 DUP3 SWAP2 DUP10 DUP4 PUSH2 0x30CC JUMP JUMPDEST SUB SWAP1 LOG1 PUSH2 0x3940 JUMP JUMPDEST PUSH1 0x0 DUP1 MLOAD PUSH1 0x20 PUSH2 0x4AD1 DUP4 CODECOPY DUP2 MLOAD SWAP2 MSTORE SWAP2 POP PUSH2 0x3A12 SWAP1 DUP6 MLOAD SWAP2 DUP3 SWAP2 DUP10 DUP4 MSTORE DUP8 PUSH1 0x20 DUP5 ADD MSTORE DUP8 DUP4 ADD SWAP1 PUSH2 0x2EAF JUMP JUMPDEST DUP6 SWAP9 SWAP8 POP SWAP1 PUSH32 0x3E9E02A94D7486426FCF2B05A27E911B8D1B61E2E1DCF103785512F46C84764 SWAP2 PUSH2 0x3AB9 DUP9 DUP8 SWAP6 SWAP7 SWAP10 SWAP9 DUP15 PUSH2 0x3486 SWAP15 SWAP16 SWAP10 MLOAD AND SWAP7 DUP10 PUSH1 0x60 DUP3 ADD MLOAD AND SWAP9 DUP11 PUSH1 0x80 DUP4 ADD MLOAD AND SWAP11 PUSH1 0x20 DUP4 ADD MLOAD SWAP8 DUP3 MLOAD SWAP1 PUSH1 0x20 DUP5 ADD MLOAD SWAP3 PUSH1 0xA0 PUSH1 0x60 DUP9 DUP8 ADD MLOAD SWAP7 ADD MLOAD SWAP7 ADD MLOAD AND SWAP6 MLOAD SWAP10 DUP11 SWAP10 DUP11 PUSH2 0x3AE6 JUMP JUMPDEST SUB SWAP1 LOG4 PUSH2 0x3999 JUMP JUMPDEST SWAP2 POP SWAP3 POP PUSH2 0x3ADD SWAP2 POP PUSH1 0xE0 RETURNDATASIZE DUP2 GT PUSH2 0x1EDC JUMPI PUSH2 0x1EC9 DUP2 DUP4 PUSH2 0x2915 JUMP JUMPDEST SWAP4 SWAP1 POP CODESIZE PUSH2 0x38A5 JUMP JUMPDEST SWAP6 SWAP3 PUSH2 0x100 SWAP8 SWAP5 SWAP2 SWAP11 SWAP10 SWAP9 SWAP6 SWAP3 PUSH2 0x120 DUP9 ADD SWAP12 DUP9 MSTORE PUSH1 0x20 DUP9 ADD MSTORE PUSH1 0x40 DUP8 ADD MSTORE PUSH1 0x60 DUP7 ADD MSTORE PUSH1 0x80 DUP6 ADD MSTORE PUSH1 0xA0 DUP5 ADD MSTORE PUSH1 0xC0 DUP4 ADD MSTORE PUSH1 0x1 DUP1 PUSH1 0xA0 SHL SUB AND PUSH1 0xE0 DUP3 ADD MSTORE ADD MSTORE JUMP JUMPDEST SWAP1 PUSH1 0x40 MLOAD PUSH2 0x3B39 PUSH1 0xE0 DUP3 PUSH2 0x2915 JUMP JUMPDEST DUP3 SLOAD PUSH1 0x1 PUSH1 0x1 PUSH1 0xA0 SHL SUB SWAP1 DUP2 AND DUP3 MSTORE PUSH1 0x1 DUP5 ADD SLOAD PUSH1 0x20 DUP4 ADD MSTORE PUSH1 0x2 DUP5 ADD SLOAD PUSH1 0x40 DUP4 ADD MSTORE PUSH1 0x3 DUP5 ADD SLOAD PUSH1 0x60 DUP4 ADD MSTORE PUSH1 0x4 DUP5 ADD SLOAD DUP2 AND PUSH1 0x80 DUP4 ADD MSTORE PUSH1 0x5 DUP5 ADD SLOAD DUP2 AND PUSH1 0xA0 DUP4 ADD MSTORE PUSH1 0x6 SWAP1 SWAP4 ADD SLOAD SWAP1 SWAP3 AND PUSH1 0xC0 DUP4 ADD MSTORE JUMP JUMPDEST PUSH1 0xC0 SWAP1 DUP2 PUSH1 0x1 DUP1 PUSH1 0xA0 SHL SUB SWAP2 DUP3 DUP2 MLOAD AND DUP6 MSTORE PUSH1 0x20 DUP2 ADD MLOAD PUSH1 0x20 DUP7 ADD MSTORE PUSH1 0x40 DUP2 ADD MLOAD PUSH1 0x40 DUP7 ADD MSTORE PUSH1 0x60 DUP2 ADD MLOAD PUSH1 0x60 DUP7 ADD MSTORE DUP3 PUSH1 0x80 DUP3 ADD MLOAD AND PUSH1 0x80 DUP7 ADD MSTORE DUP3 PUSH1 0xA0 DUP3 ADD MLOAD AND PUSH1 0xA0 DUP7 ADD MSTORE ADD MLOAD AND SWAP2 ADD MSTORE JUMP JUMPDEST SWAP1 PUSH1 0x0 DUP3 DUP2 MSTORE PUSH2 0x264 PUSH1 0x20 SWAP1 DUP1 DUP3 MSTORE PUSH1 0x40 SWAP1 PUSH2 0x3BFB DUP3 DUP6 KECCAK256 PUSH2 0x3B2A JUMP JUMPDEST PUSH2 0x25C DUP1 SLOAD DUP5 MLOAD PUSH4 0x3631A6BB PUSH1 0xE2 SHL DUP2 MSTORE PUSH1 0x1 PUSH1 0x1 PUSH1 0xA0 SHL SUB SWAP7 SWAP4 SWAP3 SWAP2 PUSH1 0xE0 SWAP1 DUP3 SWAP1 PUSH1 0xE4 SWAP1 DUP3 SWAP1 DUP13 SWAP1 DUP13 AND PUSH2 0x3C33 PUSH1 0x4 DUP5 ADD DUP11 PUSH2 0x3B8E JUMP JUMPDEST GAS CALL SWAP1 DUP9 DUP3 DUP11 SWAP3 DUP12 SWAP5 PUSH2 0x3F37 JUMPI JUMPDEST POP PUSH2 0x3EBD JUMPI POP POP POP PUSH2 0x3C51 PUSH2 0x2DBF JUMP JUMPDEST SWAP6 PUSH2 0x3C5B DUP8 PUSH2 0x309B JUMP JUMPDEST SWAP7 PUSH1 0x1 PUSH1 0x1 PUSH1 0xE0 SHL SUB NOT DUP9 AND SWAP1 PUSH4 0x6DA41E5 PUSH1 0xE1 SHL DUP3 SUB PUSH2 0x3C9D JUMPI POP POP POP POP POP POP POP SWAP4 PUSH2 0x338E PUSH1 0x0 DUP1 MLOAD PUSH1 0x20 PUSH2 0x4AB1 DUP4 CODECOPY DUP2 MLOAD SWAP2 MSTORE SWAP4 SWAP5 SWAP6 MLOAD SWAP3 DUP4 SWAP3 DUP4 PUSH2 0x3278 JUMP JUMPDEST PUSH4 0x7A031DA3 PUSH1 0xE1 SWAP11 SWAP10 SWAP3 SWAP4 SWAP5 SWAP6 SWAP7 SWAP8 SWAP9 SWAP11 SHL DUP4 EQ PUSH1 0x0 EQ PUSH2 0x3E2C JUMPI POP POP PUSH1 0xA0 PUSH1 0x0 DUP1 MLOAD PUSH1 0x20 PUSH2 0x4AB1 DUP4 CODECOPY DUP2 MLOAD SWAP2 MSTORE SWAP2 DUP10 MLOAD SWAP1 DUP13 DUP3 MSTORE DUP8 DUP3 ADD MSTORE PUSH1 0x60 DUP11 DUP3 ADD MSTORE PUSH1 0x14 PUSH1 0x60 DUP3 ADD MSTORE PUSH20 0x125B9CDD59999A58DA595B9D081D1C081CD95B9D PUSH1 0x62 SHL PUSH1 0x80 DUP3 ADD MSTORE LOG1 JUMPDEST DUP1 DUP3 SLOAD AND SWAP2 PUSH1 0x80 DUP5 ADD SWAP3 DUP3 DUP5 MLOAD AND SWAP1 DUP4 DUP7 MLOAD AND DUP11 DUP8 ADD MLOAD SWAP3 DUP3 EXTCODESIZE ISZERO PUSH2 0x3E28 JUMPI DUP12 MLOAD PUSH4 0xE2C5E99 PUSH1 0xE4 SHL DUP2 MSTORE PUSH1 0x1 PUSH1 0x1 PUSH1 0xA0 SHL SUB SWAP2 DUP3 AND PUSH1 0x4 DUP3 ADD MSTORE SWAP2 AND PUSH1 0x24 DUP3 ADD MSTORE PUSH1 0x44 DUP2 ADD SWAP3 SWAP1 SWAP3 MSTORE DUP9 SWAP1 DUP3 SWAP1 PUSH1 0x64 SWAP1 DUP3 SWAP1 DUP5 SWAP1 GAS CALL DUP1 ISZERO PUSH2 0x3E1E JUMPI PUSH2 0x3E06 JUMPI JUMPDEST POP SWAP1 DUP1 DUP6 SWAP3 SLOAD AND SWAP3 MLOAD AND SWAP3 ADD MLOAD SWAP2 DUP2 EXTCODESIZE ISZERO PUSH2 0x34A9 JUMPI DUP7 MLOAD PUSH4 0x53B16D17 PUSH1 0xE0 SHL DUP2 MSTORE PUSH1 0x1 PUSH1 0x1 PUSH1 0xA0 SHL SUB SWAP1 SWAP2 AND PUSH1 0x4 DUP3 ADD MSTORE PUSH1 0x24 DUP2 ADD SWAP3 SWAP1 SWAP3 MSTORE DUP5 SWAP1 DUP3 SWAP1 DUP2 DUP4 DUP2 PUSH1 0x44 DUP2 ADD JUMPDEST SUB SWAP3 GAS CALL DUP1 ISZERO PUSH2 0x349F JUMPI PUSH2 0x3DED JUMPI JUMPDEST POP PUSH2 0x3486 SWAP5 SWAP6 JUMPDEST DUP4 MSTORE MSTORE KECCAK256 PUSH1 0x6 PUSH1 0x0 SWAP2 DUP3 DUP2 SSTORE DUP3 PUSH1 0x1 DUP3 ADD SSTORE DUP3 PUSH1 0x2 DUP3 ADD SSTORE DUP3 PUSH1 0x3 DUP3 ADD SSTORE DUP3 PUSH1 0x4 DUP3 ADD SSTORE DUP3 PUSH1 0x5 DUP3 ADD SSTORE ADD SSTORE JUMP JUMPDEST PUSH2 0x3DF8 DUP5 DUP1 SWAP3 PUSH2 0x2915 JUMP JUMPDEST PUSH2 0x3E02 JUMPI CODESIZE PUSH2 0x3DB8 JUMP JUMPDEST DUP3 DUP1 REVERT JUMPDEST SWAP2 DUP8 PUSH2 0x3E15 DUP3 SWAP4 SWAP10 DUP9 SWAP6 PUSH2 0x2915 JUMP JUMPDEST SWAP8 SWAP2 SWAP3 POP PUSH2 0x3D64 JUMP JUMPDEST DUP10 MLOAD RETURNDATASIZE DUP11 DUP3 RETURNDATACOPY RETURNDATASIZE SWAP1 REVERT JUMPDEST DUP11 DUP1 REVERT JUMPDEST SWAP1 SWAP2 PUSH4 0x54CDE313 PUSH1 0xE0 SHL DUP2 SUB PUSH2 0x3E65 JUMPI POP POP PUSH2 0x3E5D PUSH1 0x0 DUP1 MLOAD PUSH1 0x20 PUSH2 0x4AB1 DUP4 CODECOPY DUP2 MLOAD SWAP2 MSTORE SWAP2 DUP10 MLOAD SWAP2 DUP3 SWAP2 DUP14 DUP4 PUSH2 0x318C JUMP JUMPDEST SUB SWAP1 LOG1 PUSH2 0x3D02 JUMP JUMPDEST PUSH4 0x79121201 PUSH1 0xE0 SHL SUB PUSH2 0x3E92 JUMPI POP PUSH2 0x3E5D PUSH1 0x0 DUP1 MLOAD PUSH1 0x20 PUSH2 0x4AB1 DUP4 CODECOPY DUP2 MLOAD SWAP2 MSTORE SWAP2 DUP10 MLOAD SWAP2 DUP3 SWAP2 DUP14 DUP4 PUSH2 0x30CC JUMP JUMPDEST PUSH1 0x0 DUP1 MLOAD PUSH1 0x20 PUSH2 0x4AD1 DUP4 CODECOPY DUP2 MLOAD SWAP2 MSTORE SWAP2 POP PUSH2 0x3E5D SWAP1 DUP10 MLOAD SWAP2 DUP3 SWAP2 DUP14 DUP4 MSTORE DUP12 DUP10 DUP5 ADD MSTORE DUP12 DUP4 ADD SWAP1 PUSH2 0x2EAF JUMP JUMPDEST DUP5 SWAP3 SWAP4 POP SWAP1 PUSH32 0x4D33A2F9C4F66A101333F7CA2AB718582E763C941FF6FC304D2D4408D43A8284 SWAP2 PUSH2 0x3F2F DUP14 DUP11 PUSH2 0x3486 SWAP15 SWAP16 SWAP10 SWAP11 SWAP12 SWAP14 SWAP13 DUP1 SWAP10 MLOAD AND SWAP7 DUP10 PUSH1 0x80 DUP3 ADD MLOAD AND SWAP9 DUP11 PUSH1 0xA0 DUP4 ADD MLOAD AND SWAP11 DUP14 DUP1 DUP5 ADD MLOAD SWAP8 DUP4 MLOAD SWAP2 DUP5 ADD MLOAD SWAP3 PUSH1 0xC0 PUSH1 0x60 DUP9 DUP8 ADD MLOAD SWAP7 ADD MLOAD SWAP7 ADD MLOAD AND SWAP6 MLOAD SWAP10 DUP11 SWAP10 DUP11 PUSH2 0x3AE6 JUMP JUMPDEST SUB SWAP1 LOG4 PUSH2 0x3DBF JUMP JUMPDEST SWAP2 POP SWAP3 POP PUSH2 0x3F53 SWAP2 POP PUSH1 0xE0 RETURNDATASIZE DUP2 GT PUSH2 0x1EDC JUMPI PUSH2 0x1EC9 DUP2 DUP4 PUSH2 0x2915 JUMP JUMPDEST SWAP3 SWAP1 POP SWAP1 SWAP2 SWAP3 CODESIZE PUSH2 0x3C41 JUMP JUMPDEST SWAP1 SWAP2 PUSH1 0xA0 SWAP3 DUP3 MSTORE PUSH4 0xFFFFFFFF PUSH1 0xE0 SHL AND PUSH1 0x20 DUP3 ADD MSTORE PUSH1 0x60 PUSH1 0x40 DUP3 ADD MSTORE PUSH1 0x1A PUSH1 0x60 DUP3 ADD MSTORE PUSH32 0x7154702062656C6F77206D696E696D756D207265717569726564000000000000 PUSH1 0x80 DUP3 ADD MSTORE ADD SWAP1 JUMP JUMPDEST SWAP1 PUSH1 0x0 DUP3 DUP2 MSTORE PUSH2 0x265 PUSH1 0x20 SWAP1 DUP1 DUP3 MSTORE PUSH1 0x40 SWAP1 PUSH2 0x3FC9 DUP3 DUP6 KECCAK256 PUSH2 0x3B2A JUMP JUMPDEST PUSH2 0x25C DUP1 SLOAD DUP5 MLOAD PUSH4 0x12BCE9BF PUSH1 0xE2 SHL DUP2 MSTORE PUSH1 0x1 PUSH1 0x1 PUSH1 0xA0 SHL SUB SWAP7 SWAP4 SWAP3 SWAP2 PUSH1 0xE0 SWAP1 DUP3 SWAP1 PUSH1 0xE4 SWAP1 DUP3 SWAP1 DUP13 SWAP1 DUP13 AND PUSH2 0x4001 PUSH1 0x4 DUP5 ADD DUP11 PUSH2 0x3B8E JUMP JUMPDEST GAS CALL SWAP1 DUP2 DUP10 SWAP2 DUP11 SWAP4 PUSH2 0x4268 JUMPI JUMPDEST POP PUSH2 0x41F7 JUMPI POP POP PUSH2 0x401D PUSH2 0x2DBF JUMP JUMPDEST SWAP6 PUSH2 0x4027 DUP8 PUSH2 0x309B JUMP JUMPDEST SWAP7 PUSH1 0x1 PUSH1 0x1 PUSH1 0xE0 SHL SUB NOT DUP9 AND PUSH4 0x6DA41E5 PUSH1 0xE1 SHL DUP2 SUB PUSH2 0x4068 JUMPI POP POP POP POP POP POP POP SWAP4 PUSH2 0x338E PUSH1 0x0 DUP1 MLOAD PUSH1 0x20 PUSH2 0x4AB1 DUP4 CODECOPY DUP2 MLOAD SWAP2 MSTORE SWAP4 SWAP5 SWAP6 MLOAD SWAP3 DUP4 SWAP3 DUP4 PUSH2 0x3278 JUMP JUMPDEST PUSH4 0xB63F1A7 PUSH1 0xE0 SWAP11 SWAP10 SWAP4 SWAP5 SWAP6 SWAP7 SWAP8 SWAP9 SWAP11 SHL DUP2 EQ PUSH1 0x0 EQ PUSH2 0x4168 JUMPI POP POP PUSH2 0x40A3 PUSH1 0x0 DUP1 MLOAD PUSH1 0x20 PUSH2 0x4AB1 DUP4 CODECOPY DUP2 MLOAD SWAP2 MSTORE SWAP2 DUP10 MLOAD SWAP2 DUP3 SWAP2 DUP14 DUP4 PUSH2 0x3108 JUMP JUMPDEST SUB SWAP1 LOG1 JUMPDEST DUP1 DUP3 SLOAD AND SWAP2 PUSH1 0x80 DUP5 ADD SWAP3 DUP3 DUP5 MLOAD AND SWAP1 DUP7 DUP7 ADD MLOAD SWAP2 DUP2 EXTCODESIZE ISZERO PUSH2 0x4164 JUMPI DUP11 MLOAD PUSH4 0x53B16D17 PUSH1 0xE0 SHL DUP2 MSTORE PUSH1 0x1 PUSH1 0x1 PUSH1 0xA0 SHL SUB SWAP1 SWAP2 AND PUSH1 0x4 DUP3 ADD MSTORE PUSH1 0x24 DUP2 ADD SWAP3 SWAP1 SWAP3 MSTORE DUP9 SWAP1 DUP3 SWAP1 DUP2 DUP4 DUP2 PUSH1 0x44 DUP2 ADD JUMPDEST SUB SWAP3 GAS CALL DUP1 ISZERO PUSH2 0x3E1E JUMPI PUSH2 0x414B JUMPI JUMPDEST POP SWAP1 DUP1 PUSH1 0x60 SWAP3 SLOAD AND SWAP3 MLOAD AND SWAP3 ADD MLOAD SWAP2 DUP2 EXTCODESIZE ISZERO PUSH2 0x34A9 JUMPI DUP7 MLOAD PUSH4 0x58F32DE9 PUSH1 0xE0 SHL DUP2 MSTORE PUSH1 0x1 PUSH1 0x1 PUSH1 0xA0 SHL SUB SWAP1 SWAP2 AND PUSH1 0x4 DUP3 ADD MSTORE PUSH1 0x24 DUP2 ADD SWAP3 SWAP1 SWAP3 MSTORE DUP5 SWAP1 DUP3 SWAP1 DUP2 DUP4 DUP2 PUSH1 0x44 DUP2 ADD PUSH2 0x3DA9 JUMP JUMPDEST SWAP2 DUP8 PUSH2 0x415B DUP3 SWAP4 SWAP10 PUSH1 0x60 SWAP6 PUSH2 0x2915 JUMP JUMPDEST SWAP8 SWAP2 SWAP3 POP PUSH2 0x4101 JUMP JUMPDEST DUP10 DUP1 REVERT JUMPDEST PUSH4 0x272E3F59 PUSH1 0xE2 SHL DUP2 SUB PUSH2 0x419F JUMPI POP POP PUSH2 0x4197 PUSH1 0x0 DUP1 MLOAD PUSH1 0x20 PUSH2 0x4AB1 DUP4 CODECOPY DUP2 MLOAD SWAP2 MSTORE SWAP2 DUP10 MLOAD SWAP2 DUP3 SWAP2 DUP14 DUP4 PUSH2 0x3F5F JUMP JUMPDEST SUB SWAP1 LOG1 PUSH2 0x40A7 JUMP JUMPDEST PUSH4 0x79121201 PUSH1 0xE0 SHL SUB PUSH2 0x41CC JUMPI POP PUSH2 0x4197 PUSH1 0x0 DUP1 MLOAD PUSH1 0x20 PUSH2 0x4AB1 DUP4 CODECOPY DUP2 MLOAD SWAP2 MSTORE SWAP2 DUP10 MLOAD SWAP2 DUP3 SWAP2 DUP14 DUP4 PUSH2 0x30CC JUMP JUMPDEST PUSH1 0x0 DUP1 MLOAD PUSH1 0x20 PUSH2 0x4AD1 DUP4 CODECOPY DUP2 MLOAD SWAP2 MSTORE SWAP2 POP PUSH2 0x4197 SWAP1 DUP10 MLOAD SWAP2 DUP3 SWAP2 DUP14 DUP4 MSTORE DUP12 DUP10 DUP5 ADD MSTORE DUP12 DUP4 ADD SWAP1 PUSH2 0x2EAF JUMP JUMPDEST DUP4 SWAP3 POP PUSH32 0xF8DCB57698D7067DA58AB71C48CD2E3B329B69E7E9853F88630C2C69C2557C78 SWAP1 DUP9 PUSH2 0x3486 SWAP12 SWAP13 SWAP7 SWAP8 SWAP9 SWAP11 SWAP10 SWAP4 SWAP6 MLOAD AND SWAP3 PUSH2 0x3F2F DUP8 DUP13 DUP4 PUSH1 0x80 DUP10 ADD MLOAD AND SWAP8 DUP5 PUSH1 0xA0 DUP3 ADD MLOAD AND SWAP10 DUP13 DUP3 ADD MLOAD SWAP6 DUP14 DUP3 MLOAD SWAP1 DUP4 ADD MLOAD SWAP2 PUSH1 0xC0 PUSH1 0x60 DUP8 DUP7 ADD MLOAD SWAP6 ADD MLOAD SWAP6 ADD MLOAD AND SWAP5 MLOAD SWAP9 DUP10 SWAP9 DUP10 PUSH2 0x314D JUMP JUMPDEST SWAP1 SWAP3 POP PUSH2 0x4283 SWAP2 POP PUSH1 0xE0 RETURNDATASIZE DUP2 GT PUSH2 0x1EDC JUMPI PUSH2 0x1EC9 DUP2 DUP4 PUSH2 0x2915 JUMP JUMPDEST SWAP3 POP POP SWAP1 SWAP2 CODESIZE PUSH2 0x400E JUMP JUMPDEST SWAP1 PUSH1 0x0 DUP3 DUP2 MSTORE PUSH2 0x266 PUSH1 0x20 SWAP1 DUP1 DUP3 MSTORE PUSH1 0x40 SWAP1 PUSH2 0x42AB DUP3 DUP6 KECCAK256 PUSH2 0x3B2A JUMP JUMPDEST PUSH2 0x25C DUP1 SLOAD DUP5 MLOAD PUSH4 0x5E272AD9 PUSH1 0xE1 SHL DUP2 MSTORE PUSH1 0x1 PUSH1 0x1 PUSH1 0xA0 SHL SUB SWAP7 SWAP4 SWAP3 SWAP2 PUSH1 0xE0 SWAP1 DUP3 SWAP1 PUSH1 0xE4 SWAP1 DUP3 SWAP1 DUP13 SWAP1 DUP13 AND PUSH2 0x42E3 PUSH1 0x4 DUP5 ADD DUP11 PUSH2 0x3B8E JUMP JUMPDEST GAS CALL SWAP1 DUP2 DUP10 SWAP2 DUP11 SWAP4 PUSH2 0x451E JUMPI JUMPDEST POP PUSH2 0x44AD JUMPI POP POP PUSH2 0x42FF PUSH2 0x2DBF JUMP JUMPDEST SWAP6 PUSH2 0x4309 DUP8 PUSH2 0x309B JUMP JUMPDEST SWAP7 PUSH1 0x1 PUSH1 0x1 PUSH1 0xE0 SHL SUB NOT DUP9 AND SWAP1 PUSH4 0x6DA41E5 PUSH1 0xE1 SHL DUP3 SUB PUSH2 0x434B JUMPI POP POP POP POP POP POP POP SWAP4 PUSH2 0x338E PUSH1 0x0 DUP1 MLOAD PUSH1 0x20 PUSH2 0x4AB1 DUP4 CODECOPY DUP2 MLOAD SWAP2 MSTORE SWAP4 SWAP5 SWAP6 MLOAD SWAP3 DUP4 SWAP3 DUP4 PUSH2 0x3278 JUMP JUMPDEST PUSH4 0xB63F1A7 PUSH1 0xE0 SWAP11 SWAP10 SWAP3 SWAP4 SWAP5 SWAP6 SWAP7 SWAP8 SWAP9 SWAP11 SHL DUP4 EQ PUSH1 0x0 EQ PUSH2 0x43E6 JUMPI POP PUSH1 0x0 DUP1 MLOAD PUSH1 0x20 PUSH2 0x4AB1 DUP4 CODECOPY DUP2 MLOAD SWAP2 MSTORE SWAP2 POP PUSH2 0x4388 SWAP1 DUP10 MLOAD SWAP2 DUP3 SWAP2 DUP14 DUP4 PUSH2 0x3108 JUMP JUMPDEST SUB SWAP1 LOG1 JUMPDEST DUP1 DUP3 SLOAD AND SWAP2 PUSH1 0x80 DUP5 ADD SWAP3 DUP3 DUP5 MLOAD AND SWAP1 DUP4 DUP7 MLOAD AND DUP8 DUP8 ADD MLOAD SWAP3 DUP3 EXTCODESIZE ISZERO PUSH2 0x3E28 JUMPI DUP12 MLOAD PUSH4 0xE2C5E99 PUSH1 0xE4 SHL DUP2 MSTORE PUSH1 0x1 PUSH1 0x1 PUSH1 0xA0 SHL SUB SWAP2 DUP3 AND PUSH1 0x4 DUP3 ADD MSTORE SWAP2 AND PUSH1 0x24 DUP3 ADD MSTORE PUSH1 0x44 DUP2 ADD SWAP3 SWAP1 SWAP3 MSTORE DUP9 SWAP1 DUP3 SWAP1 DUP2 DUP4 DUP2 PUSH1 0x64 DUP2 ADD PUSH2 0x40F2 JUMP JUMPDEST PUSH4 0xF577BEF5 PUSH1 0xE0 SHL DUP4 SUB PUSH2 0x444B JUMPI POP POP PUSH1 0xA0 PUSH1 0x0 DUP1 MLOAD PUSH1 0x20 PUSH2 0x4AB1 DUP4 CODECOPY DUP2 MLOAD SWAP2 MSTORE SWAP2 DUP10 MLOAD SWAP1 DUP13 DUP3 MSTORE DUP8 DUP3 ADD MSTORE PUSH1 0x60 DUP11 DUP3 ADD MSTORE PUSH1 0x1A PUSH1 0x60 DUP3 ADD MSTORE PUSH32 0x7154632062656C6F77206D696E696D756D207265717569726564000000000000 PUSH1 0x80 DUP3 ADD MSTORE LOG1 PUSH2 0x438C JUMP JUMPDEST SWAP1 SWAP2 PUSH4 0x79121201 PUSH1 0xE0 SHL SUB PUSH2 0x4482 JUMPI POP PUSH2 0x447A PUSH1 0x0 DUP1 MLOAD PUSH1 0x20 PUSH2 0x4AB1 DUP4 CODECOPY DUP2 MLOAD SWAP2 MSTORE SWAP2 DUP10 MLOAD SWAP2 DUP3 SWAP2 DUP14 DUP4 PUSH2 0x30CC JUMP JUMPDEST SUB SWAP1 LOG1 PUSH2 0x438C JUMP JUMPDEST PUSH1 0x0 DUP1 MLOAD PUSH1 0x20 PUSH2 0x4AD1 DUP4 CODECOPY DUP2 MLOAD SWAP2 MSTORE SWAP2 POP PUSH2 0x447A SWAP1 DUP10 MLOAD SWAP2 DUP3 SWAP2 DUP14 DUP4 MSTORE DUP12 DUP10 DUP5 ADD MSTORE DUP12 DUP4 ADD SWAP1 PUSH2 0x2EAF JUMP JUMPDEST DUP4 SWAP3 POP PUSH32 0x8AB42044CE8B230E021E5542EB53688D77443E50EE84CDA7917F6BDD833C697F SWAP1 DUP9 PUSH2 0x3486 SWAP12 SWAP13 SWAP7 SWAP8 SWAP9 SWAP11 SWAP10 SWAP4 SWAP6 MLOAD AND SWAP3 PUSH2 0x3F2F DUP8 DUP13 DUP4 PUSH1 0x80 DUP10 ADD MLOAD AND SWAP8 DUP5 PUSH1 0xA0 DUP3 ADD MLOAD AND SWAP10 DUP13 DUP3 ADD MLOAD SWAP6 DUP14 DUP3 MLOAD SWAP1 DUP4 ADD MLOAD SWAP2 PUSH1 0xC0 PUSH1 0x60 DUP8 DUP7 ADD MLOAD SWAP6 ADD MLOAD SWAP6 ADD MLOAD AND SWAP5 MLOAD SWAP9 DUP10 SWAP9 DUP10 PUSH2 0x314D JUMP JUMPDEST SWAP1 SWAP3 POP PUSH2 0x4539 SWAP2 POP PUSH1 0xE0 RETURNDATASIZE DUP2 GT PUSH2 0x1EDC JUMPI PUSH2 0x1EC9 DUP2 DUP4 PUSH2 0x2915 JUMP JUMPDEST SWAP3 POP POP SWAP1 SWAP2 CODESIZE PUSH2 0x42F0 JUMP JUMPDEST CALLDATALOAD PUSH1 0x1 PUSH1 0x1 PUSH1 0xA0 SHL SUB DUP2 AND DUP2 SUB PUSH2 0x2D4 JUMPI SWAP1 JUMP JUMPDEST DUP2 CALLDATALOAD DUP2 SSTORE PUSH1 0x20 DUP3 ADD CALLDATALOAD PUSH1 0x1 DUP3 ADD SSTORE PUSH1 0x2 DUP2 ADD SWAP1 PUSH1 0x1 PUSH1 0x1 PUSH1 0xA0 SHL SUB SWAP1 PUSH2 0x45C1 SWAP1 PUSH1 0x80 SWAP1 PUSH1 0x4 SWAP1 DUP5 PUSH2 0x458B PUSH1 0x40 DUP10 ADD PUSH2 0x4544 JUMP JUMPDEST AND SWAP6 PUSH1 0x1 PUSH1 0x1 PUSH1 0x60 SHL SUB PUSH1 0xA0 SHL SWAP7 DUP8 DUP3 SLOAD AND OR SWAP1 SSTORE PUSH1 0x3 DUP2 ADD DUP6 PUSH2 0x45B1 PUSH1 0x60 DUP11 ADD PUSH2 0x4544 JUMP JUMPDEST AND DUP8 DUP3 SLOAD AND OR SWAP1 SSTORE ADD SWAP5 ADD PUSH2 0x4544 JUMP JUMPDEST AND SWAP1 DUP3 SLOAD AND OR SWAP1 SSTORE JUMP JUMPDEST PUSH1 0x0 NOT DUP2 EQ PUSH2 0x45DA JUMPI PUSH1 0x1 ADD SWAP1 JUMP JUMPDEST PUSH4 0x4E487B71 PUSH1 0xE0 SHL PUSH1 0x0 MSTORE PUSH1 0x11 PUSH1 0x4 MSTORE PUSH1 0x24 PUSH1 0x0 REVERT JUMPDEST DUP1 PUSH1 0x0 MSTORE PUSH1 0x20 PUSH2 0x193 DUP2 MSTORE PUSH1 0x40 PUSH1 0x0 KECCAK256 CALLER PUSH1 0x0 MSTORE DUP2 MSTORE PUSH1 0xFF PUSH1 0x40 PUSH1 0x0 KECCAK256 SLOAD AND ISZERO PUSH2 0x4618 JUMPI POP POP JUMP JUMPDEST PUSH2 0x46AE PUSH1 0x48 PUSH2 0x4632 DUP4 PUSH2 0x462C PUSH1 0x14 CALLER PUSH2 0x46CF JUMP JUMPDEST SWAP6 PUSH2 0x46CF JUMP JUMPDEST SWAP4 PUSH1 0x40 MLOAD SWAP5 DUP6 SWAP2 PUSH32 0x416363657373436F6E74726F6C3A206163636F756E7420000000000000000000 DUP7 DUP5 ADD MSTORE PUSH2 0x4671 DUP2 MLOAD DUP1 SWAP3 DUP9 PUSH1 0x37 DUP8 ADD SWAP2 ADD PUSH2 0x2E8C JUMP JUMPDEST DUP3 ADD PUSH17 0x1034B99036B4B9B9B4B733903937B6329 PUSH1 0x7D SHL PUSH1 0x37 DUP3 ADD MSTORE PUSH2 0x469F DUP3 MLOAD DUP1 SWAP4 DUP9 DUP8 DUP6 ADD SWAP2 ADD PUSH2 0x2E8C JUMP JUMPDEST ADD SUB PUSH1 0x28 DUP2 ADD DUP6 MSTORE ADD DUP4 PUSH2 0x2915 JUMP JUMPDEST PUSH2 0x2E88 PUSH1 0x40 MLOAD SWAP3 DUP4 SWAP3 PUSH3 0x461BCD PUSH1 0xE5 SHL DUP5 MSTORE PUSH1 0x4 DUP5 ADD MSTORE PUSH1 0x24 DUP4 ADD SWAP1 PUSH2 0x2EAF JUMP JUMPDEST PUSH1 0x1 SWAP2 DUP1 DUP4 SHL SWAP2 SWAP1 PUSH1 0x1 PUSH1 0x1 PUSH1 0xFF SHL SUB DUP2 AND SUB PUSH2 0x45DA JUMPI PUSH1 0x2 DUP3 ADD SWAP3 DUP4 DUP4 GT PUSH2 0x45DA JUMPI PUSH2 0x4714 PUSH2 0x46FE DUP6 PUSH2 0x294D JUMP JUMPDEST SWAP5 PUSH2 0x470C PUSH1 0x40 MLOAD SWAP7 DUP8 PUSH2 0x2915 JUMP JUMPDEST DUP1 DUP7 MSTORE PUSH2 0x294D JUMP JUMPDEST PUSH1 0x20 SWAP4 SWAP1 DUP6 DUP6 ADD SWAP1 PUSH1 0x1F NOT ADD CALLDATASIZE DUP3 CALLDATACOPY DUP6 MLOAD ISZERO PUSH2 0x4810 JUMPI PUSH1 0x30 SWAP1 MSTORE8 DUP5 MLOAD DUP3 LT ISZERO PUSH2 0x4810 JUMPI PUSH1 0x78 PUSH1 0x21 DUP7 ADD MSTORE8 DUP2 DUP2 ADD DUP1 SWAP2 GT PUSH2 0x45DA JUMPI SWAP1 JUMPDEST DUP1 DUP3 GT PUSH2 0x479E JUMPI POP POP PUSH2 0x475B JUMPI POP SWAP1 JUMP JUMPDEST PUSH1 0x64 SWAP1 PUSH1 0x40 MLOAD SWAP1 PUSH3 0x461BCD PUSH1 0xE5 SHL DUP3 MSTORE DUP1 PUSH1 0x4 DUP4 ADD MSTORE PUSH1 0x24 DUP3 ADD MSTORE PUSH32 0x537472696E67733A20686578206C656E67746820696E73756666696369656E74 PUSH1 0x44 DUP3 ADD MSTORE REVERT JUMPDEST SWAP1 SWAP2 PUSH1 0xF DUP2 AND PUSH1 0x10 DUP2 LT ISZERO PUSH2 0x47FB JUMPI DUP6 MLOAD DUP5 LT ISZERO PUSH2 0x47FB JUMPI PUSH16 0x181899199A1A9B1B9C1CB0B131B232B3 PUSH1 0x81 SHL SWAP1 BYTE DUP6 DUP5 ADD DUP6 ADD MSTORE8 PUSH1 0x4 SHR SWAP2 DUP1 ISZERO PUSH2 0x47E6 JUMPI PUSH1 0x0 NOT ADD SWAP1 PUSH2 0x474A JUMP JUMPDEST PUSH1 0x24 PUSH1 0x0 PUSH4 0x4E487B71 PUSH1 0xE0 SHL DUP2 MSTORE PUSH1 0x11 PUSH1 0x4 MSTORE REVERT JUMPDEST PUSH1 0x24 PUSH1 0x0 PUSH4 0x4E487B71 PUSH1 0xE0 SHL DUP2 MSTORE PUSH1 0x32 PUSH1 0x4 MSTORE REVERT JUMPDEST PUSH4 0x4E487B71 PUSH1 0xE0 SHL PUSH1 0x0 MSTORE PUSH1 0x32 PUSH1 0x4 MSTORE PUSH1 0x24 PUSH1 0x0 REVERT JUMPDEST PUSH1 0x1 PUSH1 0x1 PUSH1 0xA0 SHL SUB PUSH2 0x45C1 PUSH1 0xA0 PUSH1 0x5 DUP4 PUSH2 0x483F DUP8 PUSH2 0x4544 JUMP JUMPDEST AND SWAP5 PUSH1 0x1 PUSH1 0x1 PUSH1 0x60 SHL SUB DUP4 SHL SWAP6 DUP7 DUP3 SLOAD AND OR DUP2 SSTORE PUSH1 0x20 DUP8 ADD CALLDATALOAD PUSH1 0x1 DUP3 ADD SSTORE PUSH1 0x40 DUP8 ADD CALLDATALOAD PUSH1 0x2 DUP3 ADD SSTORE PUSH1 0x3 DUP2 ADD DUP6 PUSH2 0x4878 PUSH1 0x60 DUP11 ADD PUSH2 0x4544 JUMP JUMPDEST AND DUP8 DUP3 SLOAD AND OR SWAP1 SSTORE PUSH1 0x4 DUP2 ADD DUP6 PUSH2 0x45B1 PUSH1 0x80 DUP11 ADD PUSH2 0x4544 JUMP JUMPDEST PUSH1 0x1 PUSH1 0x1 PUSH1 0xA0 SHL SUB PUSH2 0x45C1 PUSH1 0xC0 PUSH1 0x6 DUP4 PUSH2 0x48AA DUP8 PUSH2 0x4544 JUMP JUMPDEST AND SWAP5 PUSH1 0x1 PUSH1 0x1 PUSH1 0x60 SHL SUB PUSH1 0xA0 SHL SWAP6 DUP7 DUP3 SLOAD AND OR DUP2 SSTORE PUSH1 0x20 DUP8 ADD CALLDATALOAD PUSH1 0x1 DUP3 ADD SSTORE PUSH1 0x40 DUP8 ADD CALLDATALOAD PUSH1 0x2 DUP3 ADD SSTORE PUSH1 0x60 DUP8 ADD CALLDATALOAD PUSH1 0x3 DUP3 ADD SSTORE PUSH1 0x4 DUP2 ADD DUP6 PUSH2 0x48EE PUSH1 0x80 DUP11 ADD PUSH2 0x4544 JUMP JUMPDEST AND DUP8 DUP3 SLOAD AND OR SWAP1 SSTORE PUSH1 0x5 DUP2 ADD DUP6 PUSH2 0x45B1 PUSH1 0xA0 DUP11 ADD PUSH2 0x4544 JUMP JUMPDEST PUSH2 0x25E SLOAD PUSH2 0x25D SLOAD DUP2 EQ PUSH2 0x4966 JUMPI PUSH1 0x0 MSTORE PUSH2 0x268 PUSH1 0x20 MSTORE PUSH1 0x20 PUSH1 0x40 PUSH1 0x0 KECCAK256 PUSH1 0x40 MLOAD SWAP1 PUSH2 0x4934 PUSH1 0x40 DUP4 PUSH2 0x2915 JUMP JUMPDEST SLOAD PUSH2 0x4942 PUSH1 0xFF DUP3 AND DUP4 PUSH2 0x2FE0 JUMP JUMPDEST PUSH1 0x8 SHR SWAP2 DUP3 SWAP2 ADD MSTORE PUSH1 0x1 PUSH1 0x1 PUSH1 0x80 SHL SUB PUSH2 0x269 SLOAD AND NUMBER SUB SWAP1 NUMBER DUP3 GT PUSH2 0x45DA JUMPI GT ISZERO SWAP1 JUMP JUMPDEST POP PUSH1 0x0 SWAP1 JUMP JUMPDEST SWAP1 PUSH1 0x0 SWAP2 DUP1 DUP4 MSTORE PUSH2 0x193 DUP1 PUSH1 0x20 MSTORE PUSH1 0x40 DUP5 KECCAK256 SWAP3 PUSH1 0x1 DUP1 PUSH1 0xA0 SHL SUB AND SWAP3 DUP4 DUP6 MSTORE PUSH1 0x20 MSTORE PUSH1 0xFF PUSH1 0x40 DUP6 KECCAK256 SLOAD AND ISZERO PUSH2 0x49A1 JUMPI POP POP POP POP JUMP JUMPDEST DUP2 DUP5 MSTORE PUSH1 0x20 MSTORE PUSH1 0x40 DUP4 KECCAK256 DUP3 DUP5 MSTORE PUSH1 0x20 MSTORE PUSH1 0x40 DUP4 KECCAK256 PUSH1 0x1 PUSH1 0xFF NOT DUP3 SLOAD AND OR SWAP1 SSTORE PUSH32 0x2F8788117E7EFF1D82E926EC794901D17C78024A50270940304540A733656F0D CALLER SWAP4 DUP1 LOG4 CODESIZE DUP1 DUP1 DUP1 PUSH2 0x29D2 JUMP JUMPDEST CALLVALUE DUP2 SUB PUSH2 0x2680 JUMPI POP JUMP JUMPDEST PUSH1 0x97 SLOAD PUSH1 0x40 DUP1 MLOAD PUSH4 0xD994D6D5 PUSH1 0xE0 SHL DUP2 MSTORE CALLER PUSH1 0x4 DUP3 ADD MSTORE SWAP1 SWAP3 SWAP2 PUSH1 0x20 SWAP1 DUP3 SWAP1 PUSH1 0x24 SWAP1 DUP3 SWAP1 PUSH1 0x1 PUSH1 0x1 PUSH1 0xA0 SHL SUB AND GAS STATICCALL SWAP1 DUP2 ISZERO PUSH2 0x4AA5 JUMPI PUSH1 0x0 SWAP2 PUSH2 0x4A87 JUMPI JUMPDEST POP ISZERO SWAP1 DUP2 PUSH2 0x4A57 JUMPI JUMPDEST POP PUSH2 0x4A47 JUMPI POP JUMP JUMPDEST MLOAD PUSH4 0x1DD1B1B5 PUSH1 0xE2 SHL DUP2 MSTORE PUSH1 0x4 SWAP1 REVERT JUMPDEST SWAP1 POP PUSH1 0x0 MSTORE PUSH2 0x193 PUSH1 0x20 MSTORE PUSH1 0x1 DUP2 PUSH1 0x0 KECCAK256 ADD SLOAD PUSH1 0x0 MSTORE DUP1 PUSH1 0x0 KECCAK256 CALLER PUSH1 0x0 MSTORE PUSH1 0x20 MSTORE PUSH1 0xFF DUP2 PUSH1 0x0 KECCAK256 SLOAD AND ISZERO CODESIZE PUSH2 0x4A3F JUMP JUMPDEST PUSH2 0x4A9F SWAP2 POP PUSH1 0x20 RETURNDATASIZE DUP2 GT PUSH2 0x2245 JUMPI PUSH2 0x2237 DUP2 DUP4 PUSH2 0x2915 JUMP JUMPDEST CODESIZE PUSH2 0x4A36 JUMP JUMPDEST DUP4 MLOAD RETURNDATASIZE PUSH1 0x0 DUP3 RETURNDATACOPY RETURNDATASIZE SWAP1 REVERT INVALID JUMPDEST 0xBE 0xBB PUSH5 0xD62396F99C 0xAE 0x4B EXTCODESIZE PUSH25 0xD9386CB0F2893AAB6A69F27EB61F8E7C29775E3EA497186958 0xEC PUSH4 0x8834F65E 0xC5 0xA5 PUSH18 0xC2B2E877E5D59A76804EC0448FAC7829BABF 0xA5 0xD4 EXP 0xB5 SWAP6 STATICCALL PUSH2 0x3B17 JUMP PUSH15 0xA5E38A5CAC79A71F09CE1435246DB2 0xE6 DUP1 PC AND 0xC2 PUSH30 0x5E686862EC2250829EB6DEE4A7CB0834865072F135485C874D3BBBE39BDF 0xDB LOG2 PUSH5 0x6970667358 0x22 SLT KECCAK256 CALLDATASIZE SWAP7 0xC1 0xB0 PUSH29 0x3B5D5AD1A082BC550700AFEC44999B5595602954F484DC0E08B6BB6473 PUSH16 0x6C6343000814003360A0806040523461 STOP 0xDC JUMPI ADDRESS PUSH1 0x80 MSTORE PUSH1 0x0 SLOAD SWAP1 PUSH1 0xFF DUP3 PUSH1 0x8 SHR AND PUSH2 0x8A JUMPI POP PUSH1 0xFF DUP1 DUP3 AND SUB PUSH2 0x4F JUMPI JUMPDEST PUSH1 0x40 MLOAD PUSH2 0x21AC SWAP1 DUP2 PUSH2 0xE2 DUP3 CODECOPY PUSH1 0x80 MLOAD DUP2 DUP2 DUP2 PUSH2 0xC9A ADD MSTORE DUP2 DUP2 PUSH2 0xDB5 ADD MSTORE PUSH2 0xF8C ADD MSTORE RETURN JUMPDEST PUSH1 0xFF SWAP1 DUP2 NOT AND OR PUSH1 0x0 SSTORE PUSH32 0x7F26B83FF96E1F2B6A682F133852F6798A09C465DA95921460CEFB3847402498 PUSH1 0x20 PUSH1 0x40 MLOAD PUSH1 0xFF DUP2 MSTORE LOG1 CODESIZE PUSH2 0x29 JUMP JUMPDEST PUSH3 0x461BCD PUSH1 0xE5 SHL DUP2 MSTORE PUSH1 0x20 PUSH1 0x4 DUP3 ADD MSTORE PUSH1 0x27 PUSH1 0x24 DUP3 ADD MSTORE PUSH32 0x496E697469616C697A61626C653A20636F6E747261637420697320696E697469 PUSH1 0x44 DUP3 ADD MSTORE PUSH7 0x616C697A696E67 PUSH1 0xC8 SHL PUSH1 0x64 DUP3 ADD MSTORE PUSH1 0x84 SWAP1 REVERT JUMPDEST PUSH1 0x0 DUP1 REVERT INVALID PUSH1 0x80 PUSH1 0x40 SWAP1 DUP1 DUP3 MSTORE PUSH1 0x4 SWAP1 DUP2 CALLDATASIZE LT ISZERO PUSH2 0x17 JUMPI PUSH1 0x0 DUP1 REVERT JUMPDEST PUSH1 0x0 SWAP3 DUP4 CALLDATALOAD PUSH1 0xE0 SHR SWAP2 DUP3 PUSH4 0x1FFC9A7 EQ PUSH2 0x1310 JUMPI POP DUP2 PUSH4 0x6FDDE03 EQ PUSH2 0x1266 JUMPI DUP2 PUSH4 0x95EA7B3 EQ PUSH2 0x1230 JUMPI DUP2 PUSH4 0xC340A24 EQ PUSH2 0x1206 JUMPI DUP2 PUSH4 0x18160DDD EQ PUSH2 0x11E7 JUMPI DUP2 PUSH4 0x23B872DD EQ PUSH2 0x1113 JUMPI DUP2 PUSH4 0x248A9CA3 EQ PUSH2 0x10E7 JUMPI DUP2 PUSH4 0x2F2FF15D EQ PUSH2 0x10A0 JUMPI DUP2 PUSH4 0x313CE567 EQ PUSH2 0x1084 JUMPI DUP2 PUSH4 0x36568ABE EQ PUSH2 0xFF1 JUMPI DUP4 DUP3 PUSH4 0x3659CFE6 EQ PUSH2 0xF5A JUMPI POP DUP2 PUSH4 0x39509351 EQ PUSH2 0xF08 JUMPI DUP2 PUSH4 0x40C10F19 EQ PUSH2 0xE18 JUMPI DUP2 PUSH4 0x4F1EF286 EQ PUSH2 0xD59 JUMPI DUP2 PUSH4 0x52D1902D EQ PUSH2 0xC85 JUMPI DUP2 PUSH4 0x70A08231 EQ PUSH2 0xC4A JUMPI DUP2 PUSH4 0x83D2230D EQ PUSH2 0xB14 JUMPI DUP2 PUSH4 0x8F15B414 EQ PUSH2 0x63C JUMPI DUP2 PUSH4 0x9010D07C EQ PUSH2 0x5FA JUMPI DUP2 PUSH4 0x91D14854 EQ PUSH2 0x5AE JUMPI DUP2 PUSH4 0x95D89B41 EQ PUSH2 0x4CD JUMPI DUP2 PUSH4 0x9DC29FAC EQ PUSH2 0x37F JUMPI DUP2 PUSH4 0xA217FDDF EQ PUSH2 0x364 JUMPI DUP2 PUSH4 0xA457C2D7 EQ PUSH2 0x2BB JUMPI DUP2 PUSH4 0xA9059CBB EQ PUSH2 0x27B JUMPI DUP2 PUSH4 0xCA15C873 EQ PUSH2 0x252 JUMPI DUP2 PUSH4 0xD547741F EQ PUSH2 0x208 JUMPI DUP2 PUSH4 0xDD62ED3E EQ PUSH2 0x1AE JUMPI POP PUSH4 0xE4C0AAF4 EQ PUSH2 0x167 JUMPI PUSH1 0x0 DUP1 REVERT JUMPDEST CALLVALUE PUSH2 0x1AA JUMPI PUSH1 0x20 CALLDATASIZE PUSH1 0x3 NOT ADD SLT PUSH2 0x1AA JUMPI CALLDATALOAD PUSH1 0x1 PUSH1 0x1 PUSH1 0xA0 SHL SUB DUP2 AND SWAP1 DUP2 SWAP1 SUB PUSH2 0x1AA JUMPI PUSH2 0x193 PUSH2 0x207A JUMP JUMPDEST PUSH2 0x191 DUP1 SLOAD PUSH1 0x1 PUSH1 0x1 PUSH1 0xA0 SHL SUB NOT AND SWAP1 SWAP2 OR SWAP1 SSTORE DUP1 RETURN JUMPDEST POP DUP1 REVERT JUMPDEST SWAP2 SWAP1 POP CALLVALUE PUSH2 0x204 JUMPI DUP2 PUSH1 0x3 NOT CALLDATASIZE ADD SLT PUSH2 0x204 JUMPI PUSH1 0x1 PUSH1 0x1 PUSH1 0xA0 SHL SUB SWAP1 CALLDATALOAD DUP2 DUP2 AND SWAP1 DUP2 SWAP1 SUB PUSH2 0x200 JUMPI PUSH1 0x24 CALLDATALOAD SWAP2 DUP3 AND DUP1 SWAP3 SUB PUSH2 0x200 JUMPI SWAP3 DUP3 SWAP2 PUSH1 0x20 SWAP5 DUP3 MSTORE PUSH1 0xCA DUP6 MSTORE DUP3 DUP3 KECCAK256 SWAP1 DUP3 MSTORE DUP5 MSTORE KECCAK256 SLOAD SWAP1 MLOAD SWAP1 DUP2 MSTORE RETURN JUMPDEST DUP4 DUP1 REVERT JUMPDEST DUP3 DUP1 REVERT JUMPDEST SWAP2 SWAP1 POP CALLVALUE PUSH2 0x204 JUMPI DUP2 PUSH1 0x3 NOT CALLDATASIZE ADD SLT PUSH2 0x204 JUMPI PUSH1 0x24 CALLDATALOAD SWAP1 CALLDATALOAD PUSH1 0x1 PUSH1 0x1 PUSH1 0xA0 SHL SUB DUP3 AND DUP3 SUB PUSH2 0x200 JUMPI PUSH2 0x24A PUSH1 0x1 PUSH2 0x24F SWAP5 DUP4 DUP8 MSTORE PUSH1 0x65 PUSH1 0x20 MSTORE DUP7 KECCAK256 ADD SLOAD PUSH2 0x1508 JUMP JUMPDEST PUSH2 0x15E7 JUMP JUMPDEST DUP1 RETURN JUMPDEST SWAP2 SWAP1 POP CALLVALUE PUSH2 0x204 JUMPI PUSH1 0x20 CALLDATASIZE PUSH1 0x3 NOT ADD SLT PUSH2 0x204 JUMPI PUSH1 0x20 SWAP3 DUP3 SWAP2 CALLDATALOAD DUP2 MSTORE PUSH1 0x97 DUP5 MSTORE KECCAK256 SLOAD SWAP1 MLOAD SWAP1 DUP2 MSTORE RETURN JUMPDEST SWAP2 SWAP1 POP CALLVALUE PUSH2 0x204 JUMPI DUP2 PUSH1 0x3 NOT CALLDATASIZE ADD SLT PUSH2 0x204 JUMPI CALLDATALOAD SWAP2 PUSH1 0x1 PUSH1 0x1 PUSH1 0xA0 SHL SUB DUP4 AND DUP4 SUB PUSH2 0x2B8 JUMPI POP PUSH2 0x2B1 PUSH1 0x20 SWAP3 PUSH1 0x24 CALLDATALOAD SWAP1 CALLER PUSH2 0x1A8E JUMP JUMPDEST MLOAD PUSH1 0x1 DUP2 MSTORE RETURN JUMPDEST DUP1 REVERT JUMPDEST DUP3 DUP5 CALLVALUE PUSH2 0x2B8 JUMPI DUP3 PUSH1 0x3 NOT CALLDATASIZE ADD SLT PUSH2 0x2B8 JUMPI DUP2 CALLDATALOAD SWAP2 PUSH1 0x1 PUSH1 0x1 PUSH1 0xA0 SHL SUB DUP4 AND SWAP2 DUP3 DUP5 SUB PUSH2 0x2B8 JUMPI DUP5 SWAP1 PUSH1 0x24 CALLDATALOAD SWAP4 CALLER DUP3 MSTORE PUSH1 0xCA PUSH1 0x20 MSTORE DUP3 DUP3 KECCAK256 SWAP1 DUP3 MSTORE PUSH1 0x20 MSTORE KECCAK256 SLOAD SWAP1 DUP3 DUP3 LT PUSH2 0x313 JUMPI PUSH1 0x20 DUP6 PUSH2 0x2B1 DUP6 DUP6 SUB DUP8 CALLER PUSH2 0x1BFE JUMP JUMPDEST PUSH1 0x84 SWAP1 PUSH1 0x20 DUP7 MLOAD SWAP2 PUSH3 0x461BCD PUSH1 0xE5 SHL DUP4 MSTORE DUP3 ADD MSTORE PUSH1 0x25 PUSH1 0x24 DUP3 ADD MSTORE PUSH32 0x45524332303A2064656372656173656420616C6C6F77616E63652062656C6F77 PUSH1 0x44 DUP3 ADD MSTORE PUSH5 0x207A65726F PUSH1 0xD8 SHL PUSH1 0x64 DUP3 ADD MSTORE REVERT JUMPDEST DUP4 SWAP1 CALLVALUE PUSH2 0x1AA JUMPI DUP2 PUSH1 0x3 NOT CALLDATASIZE ADD SLT PUSH2 0x1AA JUMPI MLOAD SWAP1 DUP2 MSTORE PUSH1 0x20 SWAP1 RETURN JUMPDEST DUP4 DUP4 CALLVALUE PUSH2 0x1AA JUMPI DUP3 PUSH1 0x3 NOT CALLDATASIZE ADD SLT PUSH2 0x1AA JUMPI DUP1 CALLDATALOAD PUSH1 0x1 PUSH1 0x1 PUSH1 0xA0 SHL SUB DUP2 AND SWAP2 SWAP1 DUP3 SWAP1 SUB PUSH2 0x204 JUMPI PUSH1 0x24 CALLDATALOAD SWAP1 PUSH2 0x3D3 PUSH32 0x3C11D16CBAFFD01DF69CE1C404F6340EE057498F5F00246190EA54220576A848 PUSH2 0x1508 JUMP JUMPDEST DUP3 ISZERO PUSH2 0x480 JUMPI DUP3 DUP5 MSTORE PUSH1 0xC9 PUSH1 0x20 MSTORE DUP5 DUP5 KECCAK256 SLOAD SWAP1 DUP3 DUP3 LT PUSH2 0x432 JUMPI POP DUP2 DUP5 SWAP6 PUSH32 0xDDF252AD1BE2C89B69C2B068FC378DAA952BA7F163C4A11628F55A4DF523B3EF SWAP4 PUSH1 0x20 SWAP4 DUP7 DUP9 MSTORE PUSH1 0xC9 DUP6 MSTORE SUB DUP2 DUP8 KECCAK256 SSTORE DUP2 PUSH1 0xCB SLOAD SUB PUSH1 0xCB SSTORE MLOAD SWAP1 DUP2 MSTORE LOG3 DUP1 RETURN JUMPDEST PUSH1 0x84 SWAP1 PUSH1 0x20 DUP8 MLOAD SWAP2 PUSH3 0x461BCD PUSH1 0xE5 SHL DUP4 MSTORE DUP3 ADD MSTORE PUSH1 0x22 PUSH1 0x24 DUP3 ADD MSTORE PUSH32 0x45524332303A206275726E20616D6F756E7420657863656564732062616C616E PUSH1 0x44 DUP3 ADD MSTORE PUSH2 0x6365 PUSH1 0xF0 SHL PUSH1 0x64 DUP3 ADD MSTORE REVERT JUMPDEST PUSH1 0x84 SWAP1 PUSH1 0x20 DUP7 MLOAD SWAP2 PUSH3 0x461BCD PUSH1 0xE5 SHL DUP4 MSTORE DUP3 ADD MSTORE PUSH1 0x21 PUSH1 0x24 DUP3 ADD MSTORE PUSH32 0x45524332303A206275726E2066726F6D20746865207A65726F20616464726573 PUSH1 0x44 DUP3 ADD MSTORE PUSH1 0x73 PUSH1 0xF8 SHL PUSH1 0x64 DUP3 ADD MSTORE REVERT JUMPDEST DUP4 SWAP1 CALLVALUE PUSH2 0x1AA JUMPI DUP2 PUSH1 0x3 NOT CALLDATASIZE ADD SLT PUSH2 0x1AA JUMPI DUP1 MLOAD SWAP1 DUP3 PUSH1 0xCD SLOAD PUSH2 0x4EF DUP2 PUSH2 0x1A31 JUMP JUMPDEST DUP1 DUP6 MSTORE SWAP2 PUSH1 0x1 SWAP2 DUP1 DUP4 AND SWAP1 DUP2 ISZERO PUSH2 0x586 JUMPI POP PUSH1 0x1 EQ PUSH2 0x529 JUMPI JUMPDEST POP POP POP PUSH2 0x51B DUP3 PUSH2 0x525 SWAP5 SUB DUP4 PUSH2 0x13CD JUMP JUMPDEST MLOAD SWAP2 DUP3 SWAP2 DUP3 PUSH2 0x13A1 JUMP JUMPDEST SUB SWAP1 RETURN JUMPDEST SWAP5 POP PUSH1 0xCD DUP6 MSTORE PUSH32 0x83978B4C69C48DD978AB43FE30F077615294F938FB7F936D9EB340E51EA7DB2E JUMPDEST DUP3 DUP7 LT PUSH2 0x56E JUMPI POP POP POP PUSH2 0x51B DUP3 PUSH1 0x20 PUSH2 0x525 SWAP6 DUP3 ADD ADD SWAP5 PUSH2 0x509 JUMP JUMPDEST DUP1 SLOAD PUSH1 0x20 DUP8 DUP8 ADD DUP2 ADD SWAP2 SWAP1 SWAP2 MSTORE SWAP1 SWAP6 ADD SWAP5 DUP2 ADD PUSH2 0x551 JUMP JUMPDEST PUSH2 0x525 SWAP8 POP DUP7 SWAP4 POP PUSH1 0x20 SWAP3 POP PUSH2 0x51B SWAP5 SWAP2 POP PUSH1 0xFF NOT AND DUP3 DUP5 ADD MSTORE ISZERO ISZERO PUSH1 0x5 SHL DUP3 ADD ADD SWAP5 PUSH2 0x509 JUMP JUMPDEST SWAP2 SWAP1 POP CALLVALUE PUSH2 0x204 JUMPI DUP2 PUSH1 0x3 NOT CALLDATASIZE ADD SLT PUSH2 0x204 JUMPI PUSH1 0x24 CALLDATALOAD PUSH1 0x1 PUSH1 0x1 PUSH1 0xA0 SHL SUB DUP2 AND SWAP2 SWAP1 DUP3 SWAP1 SUB PUSH2 0x200 JUMPI PUSH1 0x20 SWAP4 PUSH1 0xFF SWAP3 DUP5 SWAP3 CALLDATALOAD DUP3 MSTORE PUSH1 0x65 DUP7 MSTORE DUP3 DUP3 KECCAK256 SWAP1 DUP3 MSTORE DUP6 MSTORE KECCAK256 SLOAD AND SWAP1 MLOAD SWAP1 ISZERO ISZERO DUP2 MSTORE RETURN JUMPDEST SWAP2 SWAP1 POP CALLVALUE PUSH2 0x204 JUMPI DUP2 PUSH1 0x3 NOT CALLDATASIZE ADD SLT PUSH2 0x204 JUMPI PUSH1 0x20 SWAP3 PUSH2 0x626 SWAP2 CALLDATALOAD DUP2 MSTORE PUSH1 0x97 DUP5 MSTORE DUP3 PUSH1 0x24 CALLDATALOAD SWAP2 KECCAK256 PUSH2 0x1EE8 JUMP JUMPDEST SWAP1 SLOAD SWAP2 MLOAD SWAP2 PUSH1 0x1 DUP1 PUSH1 0xA0 SHL SUB SWAP2 PUSH1 0x3 SHL SHR AND DUP2 MSTORE RETURN JUMPDEST SWAP1 POP CALLVALUE PUSH2 0x204 JUMPI PUSH1 0x80 CALLDATASIZE PUSH1 0x3 NOT ADD SLT PUSH2 0x204 JUMPI PUSH8 0xFFFFFFFFFFFFFFFF SWAP2 DUP1 CALLDATALOAD DUP4 DUP2 GT PUSH2 0xB10 JUMPI PUSH2 0x66F SWAP1 CALLDATASIZE SWAP1 DUP4 ADD PUSH2 0x145D JUMP JUMPDEST SWAP3 PUSH1 0x24 CALLDATALOAD DUP2 DUP2 GT PUSH2 0xB0C JUMPI PUSH2 0x687 SWAP1 CALLDATASIZE SWAP1 DUP5 ADD PUSH2 0x145D JUMP JUMPDEST SWAP4 PUSH1 0x44 CALLDATALOAD SWAP2 PUSH1 0x1 PUSH1 0x1 PUSH1 0xA0 SHL SUB SWAP2 DUP3 DUP5 AND DUP5 SUB PUSH2 0xB08 JUMPI PUSH1 0x64 CALLDATALOAD SWAP3 DUP4 AND DUP1 SWAP4 SUB PUSH2 0xB08 JUMPI DUP8 SLOAD SWAP7 PUSH1 0xFF DUP9 PUSH1 0x8 SHR AND ISZERO SWAP6 DUP7 DUP1 SWAP8 PUSH2 0xAFB JUMPI JUMPDEST DUP1 ISZERO PUSH2 0xAE4 JUMPI JUMPDEST ISZERO PUSH2 0xA8A JUMPI PUSH1 0x1 SWAP9 DUP8 DUP11 PUSH1 0xFF NOT DUP4 AND OR DUP13 SSTORE PUSH2 0xA79 JUMPI JUMPDEST POP PUSH2 0x700 PUSH1 0xFF DUP12 SLOAD PUSH1 0x8 SHR AND PUSH2 0x6F2 DUP2 PUSH2 0x2116 JUMP JUMPDEST PUSH2 0x6FB DUP2 PUSH2 0x2116 JUMP JUMPDEST PUSH2 0x2116 JUMP JUMPDEST DUP3 MLOAD DUP5 DUP2 GT PUSH2 0xA66 JUMPI DUP1 PUSH2 0x715 PUSH1 0xCC SLOAD PUSH2 0x1A31 JUMP JUMPDEST SWAP5 PUSH1 0x1F SWAP6 DUP7 DUP2 GT PUSH2 0x9F5 JUMPI JUMPDEST POP PUSH1 0x20 SWAP1 DUP14 DUP8 DUP5 GT PUSH1 0x1 EQ PUSH2 0x976 JUMPI SWAP3 PUSH2 0x96B JUMPI JUMPDEST POP POP PUSH1 0x0 NOT PUSH1 0x3 DUP4 SWAP1 SHL SHR NOT AND SWAP1 DUP11 SHL OR PUSH1 0xCC SSTORE JUMPDEST DUP2 MLOAD SWAP4 DUP5 GT PUSH2 0x958 JUMPI POP PUSH2 0x760 PUSH1 0xCD SLOAD PUSH2 0x1A31 JUMP JUMPDEST DUP3 DUP2 GT PUSH2 0x8F5 JUMPI JUMPDEST POP PUSH1 0x20 SWAP2 DUP4 GT PUSH1 0x1 EQ PUSH2 0x870 JUMPI PUSH2 0x824 SWAP5 SWAP4 SWAP3 SWAP2 DUP10 SWAP2 DUP4 PUSH2 0x865 JUMPI JUMPDEST POP POP PUSH1 0x0 NOT PUSH1 0x3 DUP4 SWAP1 SHL SHR NOT AND SWAP1 DUP8 SHL OR PUSH1 0xCD SSTORE JUMPDEST PUSH2 0x7B6 PUSH1 0xFF DUP9 SLOAD PUSH1 0x8 SHR AND PUSH2 0x7AD DUP2 PUSH2 0x2116 JUMP JUMPDEST PUSH2 0x6F2 DUP2 PUSH2 0x2116 JUMP JUMPDEST PUSH2 0x191 DUP1 SLOAD PUSH1 0x1 PUSH1 0x1 PUSH1 0xA0 SHL SUB NOT AND SWAP1 SWAP2 OR SWAP1 SSTORE PUSH2 0x7D4 DUP2 DUP8 PUSH2 0x147B JUMP JUMPDEST PUSH2 0x7FE DUP2 PUSH32 0x9F2DF0FED2C77648DE5860A4CC508CD0818C85B8B8A1AB4CEEEF8D981C8956A6 PUSH2 0x147B JUMP JUMPDEST PUSH32 0x3C11D16CBAFFD01DF69CE1C404F6340EE057498F5F00246190EA54220576A848 PUSH2 0x147B JUMP JUMPDEST PUSH2 0x82C JUMPI DUP3 DUP1 RETURN JUMPDEST DUP3 SLOAD PUSH2 0xFF00 NOT AND DUP4 SSTORE MLOAD SWAP1 DUP2 MSTORE PUSH32 0x7F26B83FF96E1F2B6A682F133852F6798A09C465DA95921460CEFB3847402498 SWAP1 PUSH1 0x20 SWAP1 LOG1 CODESIZE DUP1 DUP3 DUP1 RETURN JUMPDEST ADD MLOAD SWAP1 POP CODESIZE DUP1 PUSH2 0x784 JUMP JUMPDEST PUSH1 0xCD DUP10 MSTORE SWAP4 SWAP3 SWAP2 DUP8 SWAP2 PUSH32 0x83978B4C69C48DD978AB43FE30F077615294F938FB7F936D9EB340E51EA7DB2E SWAP1 PUSH1 0x1F NOT DUP4 AND DUP12 JUMPDEST DUP2 DUP2 LT PUSH2 0x8DD JUMPI POP SWAP7 DUP4 PUSH2 0x824 SWAP9 LT PUSH2 0x8C4 JUMPI JUMPDEST POP POP POP DUP2 SHL ADD PUSH1 0xCD SSTORE PUSH2 0x799 JUMP JUMPDEST ADD MLOAD PUSH1 0x0 NOT PUSH1 0xF8 DUP5 PUSH1 0x3 SHL AND SHR NOT AND SWAP1 SSTORE CODESIZE DUP1 DUP1 PUSH2 0x8B6 JUMP JUMPDEST DUP3 DUP10 ADD MLOAD DUP5 SSTORE DUP12 SWAP6 SWAP1 SWAP4 ADD SWAP3 PUSH1 0x20 SWAP3 DUP4 ADD SWAP3 ADD PUSH2 0x8A2 JUMP JUMPDEST PUSH1 0xCD DUP11 MSTORE PUSH32 0x83978B4C69C48DD978AB43FE30F077615294F938FB7F936D9EB340E51EA7DB2E DUP4 DUP1 DUP7 ADD PUSH1 0x5 SHR DUP3 ADD SWAP3 PUSH1 0x20 DUP8 LT PUSH2 0x94F JUMPI JUMPDEST ADD PUSH1 0x5 SHR ADD SWAP1 DUP10 SWAP1 JUMPDEST DUP3 DUP2 LT PUSH2 0x944 JUMPI POP POP PUSH2 0x768 JUMP JUMPDEST DUP12 DUP2 SSTORE ADD DUP10 SWAP1 PUSH2 0x936 JUMP JUMPDEST SWAP3 POP DUP2 SWAP3 PUSH2 0x92D JUMP JUMPDEST PUSH4 0x4E487B71 PUSH1 0xE0 SHL DUP11 MSTORE PUSH1 0x41 SWAP1 MSTORE PUSH1 0x24 DUP10 REVERT JUMPDEST ADD MLOAD SWAP1 POP CODESIZE DUP1 PUSH2 0x736 JUMP JUMPDEST SWAP2 SWAP1 DUP14 SWAP5 POP PUSH1 0x1F NOT DUP5 AND PUSH1 0xCC DUP5 MSTORE PUSH32 0x47197230E1E4B29FC0BD84D7D78966C0925452AFF72A2A121538B102457E9EBE SWAP4 JUMPDEST DUP2 DUP2 LT PUSH2 0x9DD JUMPI POP DUP5 GT PUSH2 0x9C4 JUMPI JUMPDEST POP POP POP DUP2 SHL ADD PUSH1 0xCC SSTORE PUSH2 0x74B JUMP JUMPDEST ADD MLOAD PUSH1 0x0 NOT PUSH1 0xF8 DUP5 PUSH1 0x3 SHL AND SHR NOT AND SWAP1 SSTORE CODESIZE DUP1 DUP1 PUSH2 0x9B6 JUMP JUMPDEST DUP3 DUP5 ADD MLOAD DUP6 SSTORE DUP16 SWAP7 SWAP1 SWAP5 ADD SWAP4 PUSH1 0x20 SWAP4 DUP5 ADD SWAP4 ADD PUSH2 0x9A7 JUMP JUMPDEST SWAP1 SWAP2 POP PUSH1 0xCC DUP14 MSTORE PUSH32 0x47197230E1E4B29FC0BD84D7D78966C0925452AFF72A2A121538B102457E9EBE DUP7 DUP1 DUP6 ADD PUSH1 0x5 SHR DUP3 ADD SWAP3 PUSH1 0x20 DUP7 LT PUSH2 0xA5D JUMPI JUMPDEST DUP6 SWAP5 SWAP4 SWAP2 ADD PUSH1 0x5 SHR SWAP1 SWAP2 ADD SWAP1 DUP14 SWAP1 DUP16 JUMPDEST DUP4 DUP3 LT PUSH2 0xA4F JUMPI POP POP POP PUSH2 0x721 JUMP JUMPDEST DUP2 SSTORE DUP6 SWAP5 POP DUP15 SWAP2 ADD DUP16 PUSH2 0xA40 JUMP JUMPDEST SWAP3 POP DUP2 SWAP3 PUSH2 0xA30 JUMP JUMPDEST PUSH4 0x4E487B71 PUSH1 0xE0 SHL DUP12 MSTORE PUSH1 0x41 DUP3 MSTORE PUSH1 0x24 DUP12 REVERT JUMPDEST PUSH2 0xFFFF NOT AND PUSH2 0x101 OR DUP11 SSTORE CODESIZE PUSH2 0x6DD JUMP JUMPDEST PUSH1 0x84 SWAP1 PUSH1 0x20 DUP10 MLOAD SWAP2 PUSH3 0x461BCD PUSH1 0xE5 SHL DUP4 MSTORE DUP3 ADD MSTORE PUSH1 0x2E PUSH1 0x24 DUP3 ADD MSTORE PUSH32 0x496E697469616C697A61626C653A20636F6E747261637420697320616C726561 PUSH1 0x44 DUP3 ADD MSTORE PUSH14 0x191E481A5B9A5D1A585B1A5E9959 PUSH1 0x92 SHL PUSH1 0x64 DUP3 ADD MSTORE REVERT JUMPDEST POP ADDRESS EXTCODESIZE ISZERO DUP1 ISZERO PUSH2 0x6C6 JUMPI POP PUSH1 0x1 PUSH1 0xFF DUP11 AND EQ PUSH2 0x6C6 JUMP JUMPDEST POP PUSH1 0x1 PUSH1 0xFF DUP11 AND LT PUSH2 0x6BF JUMP JUMPDEST DUP8 DUP1 REVERT JUMPDEST DUP6 DUP1 REVERT JUMPDEST DUP5 DUP1 REVERT JUMPDEST DUP4 SWAP2 POP CALLVALUE PUSH2 0x1AA JUMPI PUSH1 0x20 CALLDATASIZE PUSH1 0x3 NOT ADD SLT PUSH2 0x1AA JUMPI DUP3 CALLDATALOAD PUSH1 0x1 PUSH1 0x1 PUSH1 0xA0 SHL SUB DUP2 AND DUP2 SUB PUSH2 0x204 JUMPI DUP3 DUP1 MSTORE PUSH1 0x65 PUSH1 0x20 MSTORE PUSH2 0xB51 PUSH1 0x1 DUP4 DUP6 KECCAK256 ADD SLOAD PUSH2 0x1508 JUMP JUMPDEST DUP3 DUP1 MSTORE PUSH1 0x97 PUSH1 0x20 MSTORE PUSH1 0x1 DUP3 DUP5 KECCAK256 SLOAD SUB PUSH2 0xC33 JUMPI PUSH32 0x9F2DF0FED2C77648DE5860A4CC508CD0818C85B8B8A1AB4CEEEF8D981C8956A6 SWAP4 DUP5 DUP5 MSTORE PUSH1 0x97 PUSH1 0x20 MSTORE PUSH1 0x1 DUP4 DUP6 KECCAK256 SLOAD SUB PUSH2 0xC1C JUMPI PUSH32 0x3C11D16CBAFFD01DF69CE1C404F6340EE057498F5F00246190EA54220576A848 SWAP3 DUP4 DUP6 MSTORE PUSH1 0x97 PUSH1 0x20 MSTORE PUSH1 0x1 DUP2 DUP7 KECCAK256 SLOAD SUB PUSH2 0xC06 JUMPI DUP5 PUSH2 0xBFC DUP6 PUSH2 0xBF5 DUP10 PUSH2 0xBF5 DUP9 PUSH2 0xBE5 DUP2 DUP9 PUSH2 0x147B JUMP JUMPDEST PUSH2 0xBEF DUP2 DUP5 PUSH2 0x147B JUMP JUMPDEST DUP5 PUSH2 0x147B JUMP JUMPDEST CALLER SWAP1 PUSH2 0x15E7 JUMP JUMPDEST PUSH2 0x24F CALLER DUP3 PUSH2 0x15E7 JUMP JUMPDEST MLOAD PUSH4 0xE2B37CD PUSH1 0xE4 SHL DUP2 MSTORE SWAP1 DUP2 ADD DUP4 SWAP1 MSTORE PUSH1 0x24 SWAP1 REVERT JUMPDEST DUP3 MLOAD PUSH4 0xE2B37CD PUSH1 0xE4 SHL DUP2 MSTORE SWAP1 DUP2 ADD DUP6 SWAP1 MSTORE PUSH1 0x24 SWAP1 REVERT JUMPDEST DUP2 MLOAD PUSH4 0xE2B37CD PUSH1 0xE4 SHL DUP2 MSTORE DUP1 DUP6 ADD DUP5 SWAP1 MSTORE PUSH1 0x24 SWAP1 REVERT JUMPDEST SWAP2 SWAP1 POP CALLVALUE PUSH2 0x204 JUMPI PUSH1 0x20 CALLDATASIZE PUSH1 0x3 NOT ADD SLT PUSH2 0x204 JUMPI CALLDATALOAD PUSH1 0x1 PUSH1 0x1 PUSH1 0xA0 SHL SUB DUP2 AND SWAP1 DUP2 SWAP1 SUB PUSH2 0x204 JUMPI DUP3 DUP3 SWAP2 PUSH1 0x20 SWAP5 MSTORE PUSH1 0xC9 DUP5 MSTORE KECCAK256 SLOAD SWAP1 MLOAD SWAP1 DUP2 MSTORE RETURN JUMPDEST DUP3 DUP5 CALLVALUE PUSH2 0x2B8 JUMPI DUP1 PUSH1 0x3 NOT CALLDATASIZE ADD SLT PUSH2 0x2B8 JUMPI POP PUSH32 0x0 PUSH1 0x1 PUSH1 0x1 PUSH1 0xA0 SHL SUB AND ADDRESS SUB PUSH2 0xCF1 JUMPI PUSH1 0x20 DUP3 MLOAD PUSH32 0x360894A13BA1A3210667C828492DB98DCA3E2076CC3735A920A3CA505D382BBC DUP2 MSTORE RETURN JUMPDEST PUSH1 0x20 PUSH1 0x84 SWAP3 MLOAD SWAP2 PUSH3 0x461BCD PUSH1 0xE5 SHL DUP4 MSTORE DUP3 ADD MSTORE PUSH1 0x38 PUSH1 0x24 DUP3 ADD MSTORE PUSH32 0x555550535570677261646561626C653A206D757374206E6F742062652063616C PUSH1 0x44 DUP3 ADD MSTORE PUSH32 0x6C6564207468726F7567682064656C656761746563616C6C0000000000000000 PUSH1 0x64 DUP3 ADD MSTORE REVERT JUMPDEST CALLDATASIZE PUSH1 0x3 NOT ADD SLT SWAP1 POP PUSH2 0x1AA JUMPI DUP1 CALLDATALOAD PUSH1 0x1 PUSH1 0x1 PUSH1 0xA0 SHL SUB DUP1 DUP3 AND DUP3 SUB PUSH2 0x200 JUMPI PUSH1 0x24 CALLDATALOAD SWAP2 PUSH8 0xFFFFFFFFFFFFFFFF DUP4 GT PUSH2 0xB10 JUMPI CALLDATASIZE PUSH1 0x23 DUP5 ADD SLT ISZERO PUSH2 0xB10 JUMPI PUSH2 0xE0B PUSH2 0xDB1 PUSH2 0x24F SWAP6 DUP6 PUSH1 0x24 PUSH1 0x1 SWAP8 CALLDATASIZE SWAP4 ADD CALLDATALOAD SWAP2 ADD PUSH2 0x1421 JUMP JUMPDEST SWAP3 DUP1 PUSH32 0x0 AND SWAP1 PUSH2 0xDE2 DUP3 ADDRESS EQ ISZERO PUSH2 0x166D JUMP JUMPDEST PUSH32 0x360894A13BA1A3210667C828492DB98DCA3E2076CC3735A920A3CA505D382BBC SLOAD AND EQ PUSH2 0x16CE JUMP JUMPDEST PUSH2 0xE13 PUSH2 0x207A JUMP JUMPDEST PUSH2 0x172F JUMP JUMPDEST SWAP1 POP DUP3 CALLVALUE PUSH2 0x2B8 JUMPI DUP2 PUSH1 0x3 NOT CALLDATASIZE ADD SLT PUSH2 0x2B8 JUMPI DUP3 CALLDATALOAD PUSH1 0x1 PUSH1 0x1 PUSH1 0xA0 SHL SUB DUP2 AND SWAP2 SWAP1 DUP3 SWAP1 SUB PUSH2 0x2B8 JUMPI PUSH1 0x24 CALLDATALOAD PUSH2 0xE6C PUSH32 0x9F2DF0FED2C77648DE5860A4CC508CD0818C85B8B8A1AB4CEEEF8D981C8956A6 PUSH2 0x1508 JUMP JUMPDEST DUP3 ISZERO PUSH2 0xEC5 JUMPI PUSH1 0x20 DUP1 SWAP6 POP DUP2 PUSH2 0xEA5 PUSH32 0xDDF252AD1BE2C89B69C2B068FC378DAA952BA7F163C4A11628F55A4DF523B3EF SWAP4 PUSH1 0xCB SLOAD PUSH2 0x1A6B JUMP JUMPDEST PUSH1 0xCB SSTORE DUP5 DUP5 MSTORE PUSH1 0xC9 DUP3 MSTORE DUP6 DUP5 KECCAK256 DUP2 DUP2 SLOAD ADD SWAP1 SSTORE DUP6 MLOAD SWAP1 DUP2 MSTORE LOG3 MLOAD PUSH1 0x1 DUP2 MSTORE RETURN JUMPDEST DUP4 MLOAD PUSH3 0x461BCD PUSH1 0xE5 SHL DUP2 MSTORE PUSH1 0x20 DUP2 DUP8 ADD MSTORE PUSH1 0x1F PUSH1 0x24 DUP3 ADD MSTORE PUSH32 0x45524332303A206D696E7420746F20746865207A65726F206164647265737300 PUSH1 0x44 DUP3 ADD MSTORE PUSH1 0x64 SWAP1 REVERT JUMPDEST SWAP2 SWAP1 POP CALLVALUE PUSH2 0x204 JUMPI DUP2 PUSH1 0x3 NOT CALLDATASIZE ADD SLT PUSH2 0x204 JUMPI CALLDATALOAD PUSH1 0x1 PUSH1 0x1 PUSH1 0xA0 SHL SUB DUP2 AND DUP1 DUP3 SUB PUSH2 0x200 JUMPI SWAP1 PUSH2 0xF53 PUSH1 0x20 SWAP5 PUSH2 0x2B1 SWAP4 CALLER DUP3 MSTORE PUSH1 0xCA DUP8 MSTORE DUP6 DUP3 KECCAK256 SWAP1 DUP3 MSTORE DUP7 MSTORE DUP5 PUSH1 0x24 CALLDATALOAD SWAP2 KECCAK256 SLOAD PUSH2 0x1A6B JUMP JUMPDEST SWAP1 CALLER PUSH2 0x1BFE JUMP JUMPDEST SWAP2 POP SWAP2 CALLVALUE PUSH2 0x1AA JUMPI PUSH1 0x20 CALLDATASIZE PUSH1 0x3 NOT ADD SLT PUSH2 0x1AA JUMPI PUSH1 0x1 PUSH1 0x1 PUSH1 0xA0 SHL SUB SWAP3 SWAP1 CALLDATALOAD DUP4 DUP2 AND DUP2 SUB PUSH2 0x204 JUMPI PUSH2 0xFB9 DUP5 PUSH2 0x24F SWAP6 PUSH32 0x0 AND SWAP1 PUSH2 0xDE2 DUP3 ADDRESS EQ ISZERO PUSH2 0x166D JUMP JUMPDEST PUSH2 0xFC1 PUSH2 0x207A JUMP JUMPDEST PUSH2 0xFD6 PUSH2 0xFCD DUP5 PUSH2 0x1405 JUMP JUMPDEST SWAP3 MLOAD SWAP3 DUP4 PUSH2 0x13CD JUMP JUMPDEST DUP3 DUP3 MSTORE PUSH1 0x1F NOT PUSH2 0xFE5 DUP5 PUSH2 0x1405 JUMP JUMPDEST ADD CALLDATASIZE PUSH1 0x20 DUP5 ADD CALLDATACOPY PUSH2 0x172F JUMP JUMPDEST DUP4 DUP4 CALLVALUE PUSH2 0x1AA JUMPI DUP3 PUSH1 0x3 NOT CALLDATASIZE ADD SLT PUSH2 0x1AA JUMPI PUSH1 0x24 CALLDATALOAD SWAP1 PUSH1 0x1 PUSH1 0x1 PUSH1 0xA0 SHL SUB DUP3 AND DUP1 DUP4 SUB PUSH2 0x200 JUMPI CALLER SUB PUSH2 0x1029 JUMPI SWAP1 PUSH2 0x24F SWAP2 CALLDATALOAD PUSH2 0x15E7 JUMP JUMPDEST PUSH1 0x84 SWAP1 PUSH1 0x20 DUP6 MLOAD SWAP2 PUSH3 0x461BCD PUSH1 0xE5 SHL DUP4 MSTORE DUP3 ADD MSTORE PUSH1 0x2F PUSH1 0x24 DUP3 ADD MSTORE PUSH32 0x416363657373436F6E74726F6C3A2063616E206F6E6C792072656E6F756E6365 PUSH1 0x44 DUP3 ADD MSTORE PUSH15 0x103937B632B9903337B91039B2B633 PUSH1 0x89 SHL PUSH1 0x64 DUP3 ADD MSTORE REVERT JUMPDEST DUP4 SWAP1 CALLVALUE PUSH2 0x1AA JUMPI DUP2 PUSH1 0x3 NOT CALLDATASIZE ADD SLT PUSH2 0x1AA JUMPI PUSH1 0x20 SWAP1 MLOAD PUSH1 0x12 DUP2 MSTORE RETURN JUMPDEST SWAP2 SWAP1 POP CALLVALUE PUSH2 0x204 JUMPI DUP2 PUSH1 0x3 NOT CALLDATASIZE ADD SLT PUSH2 0x204 JUMPI PUSH1 0x24 CALLDATALOAD SWAP1 CALLDATALOAD PUSH1 0x1 PUSH1 0x1 PUSH1 0xA0 SHL SUB DUP3 AND DUP3 SUB PUSH2 0x200 JUMPI PUSH2 0x10E2 PUSH1 0x1 PUSH2 0x24F SWAP5 DUP4 DUP8 MSTORE PUSH1 0x65 PUSH1 0x20 MSTORE DUP7 KECCAK256 ADD SLOAD PUSH2 0x1508 JUMP JUMPDEST PUSH2 0x147B JUMP JUMPDEST SWAP2 SWAP1 POP CALLVALUE PUSH2 0x204 JUMPI PUSH1 0x20 CALLDATASIZE PUSH1 0x3 NOT ADD SLT PUSH2 0x204 JUMPI DUP2 PUSH1 0x20 SWAP4 PUSH1 0x1 SWAP3 CALLDATALOAD DUP2 MSTORE PUSH1 0x65 DUP6 MSTORE KECCAK256 ADD SLOAD SWAP1 MLOAD SWAP1 DUP2 MSTORE RETURN JUMPDEST DUP4 DUP4 CALLVALUE PUSH2 0x1AA JUMPI PUSH1 0x60 CALLDATASIZE PUSH1 0x3 NOT ADD SLT PUSH2 0x1AA JUMPI DUP1 CALLDATALOAD PUSH1 0x1 PUSH1 0x1 PUSH1 0xA0 SHL SUB DUP2 DUP2 AND SWAP4 SWAP1 SWAP3 SWAP1 DUP5 DUP4 SUB PUSH2 0x2B8 JUMPI PUSH1 0x24 CALLDATALOAD SWAP4 DUP5 AND DUP5 SUB PUSH2 0x2B8 JUMPI DUP6 SWAP1 PUSH1 0x44 CALLDATALOAD SWAP6 DUP2 MSTORE PUSH1 0xCA PUSH1 0x20 MSTORE DUP2 DUP2 KECCAK256 CALLER DUP3 MSTORE PUSH1 0x20 MSTORE KECCAK256 SLOAD SWAP1 PUSH1 0x0 NOT DUP3 SUB PUSH2 0x117B JUMPI JUMPDEST PUSH1 0x20 DUP7 PUSH2 0x2B1 DUP8 DUP8 DUP8 PUSH2 0x1A8E JUMP JUMPDEST DUP5 DUP3 LT PUSH2 0x11A4 JUMPI POP SWAP2 DUP4 SWAP2 PUSH2 0x1199 PUSH1 0x20 SWAP7 SWAP6 PUSH2 0x2B1 SWAP6 SUB CALLER DUP4 PUSH2 0x1BFE JUMP JUMPDEST SWAP2 SWAP4 SWAP5 DUP2 SWAP4 POP PUSH2 0x116D JUMP JUMPDEST PUSH1 0x64 SWAP1 PUSH1 0x20 DUP8 MLOAD SWAP2 PUSH3 0x461BCD PUSH1 0xE5 SHL DUP4 MSTORE DUP3 ADD MSTORE PUSH1 0x1D PUSH1 0x24 DUP3 ADD MSTORE PUSH32 0x45524332303A20696E73756666696369656E7420616C6C6F77616E6365000000 PUSH1 0x44 DUP3 ADD MSTORE REVERT JUMPDEST DUP4 SWAP1 CALLVALUE PUSH2 0x1AA JUMPI DUP2 PUSH1 0x3 NOT CALLDATASIZE ADD SLT PUSH2 0x1AA JUMPI PUSH1 0x20 SWAP1 PUSH1 0xCB SLOAD SWAP1 MLOAD SWAP1 DUP2 MSTORE RETURN JUMPDEST DUP4 SWAP1 CALLVALUE PUSH2 0x1AA JUMPI DUP2 PUSH1 0x3 NOT CALLDATASIZE ADD SLT PUSH2 0x1AA JUMPI PUSH2 0x191 SLOAD SWAP1 MLOAD PUSH1 0x1 PUSH1 0x1 PUSH1 0xA0 SHL SUB SWAP1 SWAP2 AND DUP2 MSTORE PUSH1 0x20 SWAP1 RETURN JUMPDEST SWAP2 SWAP1 POP CALLVALUE PUSH2 0x204 JUMPI DUP2 PUSH1 0x3 NOT CALLDATASIZE ADD SLT PUSH2 0x204 JUMPI CALLDATALOAD SWAP2 PUSH1 0x1 PUSH1 0x1 PUSH1 0xA0 SHL SUB DUP4 AND DUP4 SUB PUSH2 0x2B8 JUMPI POP PUSH2 0x2B1 PUSH1 0x20 SWAP3 PUSH1 0x24 CALLDATALOAD SWAP1 CALLER PUSH2 0x1BFE JUMP JUMPDEST DUP4 SWAP1 CALLVALUE PUSH2 0x1AA JUMPI DUP2 PUSH1 0x3 NOT CALLDATASIZE ADD SLT PUSH2 0x1AA JUMPI DUP1 MLOAD SWAP1 DUP3 PUSH1 0xCC SLOAD PUSH2 0x1288 DUP2 PUSH2 0x1A31 JUMP JUMPDEST DUP1 DUP6 MSTORE SWAP2 PUSH1 0x1 SWAP2 DUP1 DUP4 AND SWAP1 DUP2 ISZERO PUSH2 0x586 JUMPI POP PUSH1 0x1 EQ PUSH2 0x12B3 JUMPI POP POP POP PUSH2 0x51B DUP3 PUSH2 0x525 SWAP5 SUB DUP4 PUSH2 0x13CD JUMP JUMPDEST SWAP5 POP PUSH1 0xCC DUP6 MSTORE PUSH32 0x47197230E1E4B29FC0BD84D7D78966C0925452AFF72A2A121538B102457E9EBE JUMPDEST DUP3 DUP7 LT PUSH2 0x12F8 JUMPI POP POP POP PUSH2 0x51B DUP3 PUSH1 0x20 PUSH2 0x525 SWAP6 DUP3 ADD ADD SWAP5 PUSH2 0x509 JUMP JUMPDEST DUP1 SLOAD PUSH1 0x20 DUP8 DUP8 ADD DUP2 ADD SWAP2 SWAP1 SWAP2 MSTORE SWAP1 SWAP6 ADD SWAP5 DUP2 ADD PUSH2 0x12DB JUMP JUMPDEST DUP5 SWAP1 DUP5 CALLVALUE PUSH2 0x204 JUMPI PUSH1 0x20 CALLDATASIZE PUSH1 0x3 NOT ADD SLT PUSH2 0x204 JUMPI CALLDATALOAD PUSH4 0xFFFFFFFF PUSH1 0xE0 SHL DUP2 AND DUP1 SWAP2 SUB PUSH2 0x204 JUMPI PUSH1 0x20 SWAP3 POP PUSH4 0x5A05180F PUSH1 0xE0 SHL DUP2 EQ SWAP1 DUP2 ISZERO PUSH2 0x1353 JUMPI JUMPDEST POP ISZERO ISZERO DUP2 MSTORE RETURN JUMPDEST PUSH4 0x7965DB0B PUSH1 0xE0 SHL DUP2 EQ SWAP2 POP DUP2 ISZERO PUSH2 0x136D JUMPI JUMPDEST POP DUP4 PUSH2 0x134C JUMP JUMPDEST PUSH4 0x1FFC9A7 PUSH1 0xE0 SHL EQ SWAP1 POP DUP4 PUSH2 0x1366 JUMP JUMPDEST PUSH1 0x0 JUMPDEST DUP4 DUP2 LT PUSH2 0x1391 JUMPI POP POP PUSH1 0x0 SWAP2 ADD MSTORE JUMP JUMPDEST DUP2 DUP2 ADD MLOAD DUP4 DUP3 ADD MSTORE PUSH1 0x20 ADD PUSH2 0x1381 JUMP JUMPDEST PUSH1 0x40 SWAP2 PUSH1 0x20 DUP3 MSTORE PUSH2 0x13C1 DUP2 MLOAD DUP1 SWAP3 DUP2 PUSH1 0x20 DUP7 ADD MSTORE PUSH1 0x20 DUP7 DUP7 ADD SWAP2 ADD PUSH2 0x137E JUMP JUMPDEST PUSH1 0x1F ADD PUSH1 0x1F NOT AND ADD ADD SWAP1 JUMP JUMPDEST SWAP1 PUSH1 0x1F DUP1 NOT SWAP2 ADD AND DUP2 ADD SWAP1 DUP2 LT PUSH8 0xFFFFFFFFFFFFFFFF DUP3 GT OR PUSH2 0x13EF JUMPI PUSH1 0x40 MSTORE JUMP JUMPDEST PUSH4 0x4E487B71 PUSH1 0xE0 SHL PUSH1 0x0 MSTORE PUSH1 0x41 PUSH1 0x4 MSTORE PUSH1 0x24 PUSH1 0x0 REVERT JUMPDEST PUSH8 0xFFFFFFFFFFFFFFFF DUP2 GT PUSH2 0x13EF JUMPI PUSH1 0x1F ADD PUSH1 0x1F NOT AND PUSH1 0x20 ADD SWAP1 JUMP JUMPDEST SWAP3 SWAP2 SWAP3 PUSH2 0x142D DUP3 PUSH2 0x1405 JUMP JUMPDEST SWAP2 PUSH2 0x143B PUSH1 0x40 MLOAD SWAP4 DUP5 PUSH2 0x13CD JUMP JUMPDEST DUP3 SWAP5 DUP2 DUP5 MSTORE DUP2 DUP4 ADD GT PUSH2 0x1458 JUMPI DUP3 DUP2 PUSH1 0x20 SWAP4 DUP5 PUSH1 0x0 SWAP7 ADD CALLDATACOPY ADD ADD MSTORE JUMP JUMPDEST PUSH1 0x0 DUP1 REVERT JUMPDEST SWAP1 DUP1 PUSH1 0x1F DUP4 ADD SLT ISZERO PUSH2 0x1458 JUMPI DUP2 PUSH1 0x20 PUSH2 0x1478 SWAP4 CALLDATALOAD SWAP2 ADD PUSH2 0x1421 JUMP JUMPDEST SWAP1 JUMP JUMPDEST SWAP1 PUSH1 0x40 PUSH2 0x14BA SWAP3 PUSH1 0x0 SWAP1 DUP1 DUP3 MSTORE PUSH1 0x65 PUSH1 0x20 MSTORE DUP3 DUP3 KECCAK256 SWAP4 PUSH1 0x1 DUP1 PUSH1 0xA0 SHL SUB AND SWAP4 DUP5 DUP4 MSTORE PUSH1 0x20 MSTORE PUSH1 0xFF DUP4 DUP4 KECCAK256 SLOAD AND ISZERO PUSH2 0x14BD JUMPI JUMPDEST DUP2 MSTORE PUSH1 0x97 PUSH1 0x20 MSTORE KECCAK256 PUSH2 0x1F00 JUMP JUMPDEST POP JUMP JUMPDEST DUP1 DUP3 MSTORE PUSH1 0x65 PUSH1 0x20 MSTORE DUP3 DUP3 KECCAK256 DUP5 DUP4 MSTORE PUSH1 0x20 MSTORE DUP3 DUP3 KECCAK256 PUSH1 0x1 PUSH1 0xFF NOT DUP3 SLOAD AND OR SWAP1 SSTORE CALLER DUP5 DUP3 PUSH32 0x2F8788117E7EFF1D82E926EC794901D17C78024A50270940304540A733656F0D DUP6 DUP1 LOG4 PUSH2 0x14AD JUMP JUMPDEST DUP1 PUSH1 0x0 MSTORE PUSH1 0x20 PUSH1 0x65 DUP2 MSTORE PUSH1 0x40 PUSH1 0x0 KECCAK256 CALLER PUSH1 0x0 MSTORE DUP2 MSTORE PUSH1 0xFF PUSH1 0x40 PUSH1 0x0 KECCAK256 SLOAD AND ISZERO PUSH2 0x152F JUMPI POP POP JUMP JUMPDEST PUSH2 0x15CB PUSH1 0x48 PUSH2 0x15E3 SWAP4 DUP4 PUSH2 0x1551 PUSH2 0x15BC SWAP6 PUSH2 0x154B PUSH1 0x14 CALLER PUSH2 0x1D91 JUMP JUMPDEST SWAP4 PUSH2 0x1D91 JUMP JUMPDEST SWAP1 PUSH1 0x40 MLOAD SWAP6 DUP7 SWAP4 PUSH32 0x416363657373436F6E74726F6C3A206163636F756E7420000000000000000000 DUP4 DUP7 ADD MSTORE PUSH2 0x1590 DUP2 MLOAD DUP1 SWAP3 DUP6 PUSH1 0x37 DUP10 ADD SWAP2 ADD PUSH2 0x137E JUMP JUMPDEST DUP5 ADD SWAP2 PUSH17 0x1034B99036B4B9B9B4B733903937B6329 PUSH1 0x7D SHL PUSH1 0x37 DUP5 ADD MSTORE DUP4 MLOAD SWAP4 DUP5 SWAP2 DUP8 DUP6 ADD SWAP2 ADD PUSH2 0x137E JUMP JUMPDEST ADD SUB PUSH1 0x28 DUP2 ADD DUP5 MSTORE ADD DUP3 PUSH2 0x13CD JUMP JUMPDEST PUSH1 0x40 MLOAD PUSH3 0x461BCD PUSH1 0xE5 SHL DUP2 MSTORE SWAP2 DUP3 SWAP2 PUSH1 0x4 DUP4 ADD PUSH2 0x13A1 JUMP JUMPDEST SUB SWAP1 REVERT JUMPDEST SWAP1 PUSH1 0x40 PUSH2 0x14BA SWAP3 PUSH1 0x0 SWAP1 DUP1 DUP3 MSTORE PUSH1 0x65 PUSH1 0x20 MSTORE DUP3 DUP3 KECCAK256 SWAP4 PUSH1 0x1 DUP1 PUSH1 0xA0 SHL SUB AND SWAP4 DUP5 DUP4 MSTORE PUSH1 0x20 MSTORE PUSH1 0xFF DUP4 DUP4 KECCAK256 SLOAD AND PUSH2 0x1625 JUMPI JUMPDEST DUP2 MSTORE PUSH1 0x97 PUSH1 0x20 MSTORE KECCAK256 PUSH2 0x1F8A JUMP JUMPDEST DUP1 DUP3 MSTORE PUSH1 0x65 PUSH1 0x20 MSTORE DUP3 DUP3 KECCAK256 DUP5 DUP4 MSTORE PUSH1 0x20 MSTORE DUP3 DUP3 KECCAK256 PUSH1 0xFF NOT DUP2 SLOAD AND SWAP1 SSTORE CALLER DUP5 DUP3 PUSH32 0xF6391F5C32D9C69D2A47EA670B442974B53935D1EDC7FD64EB21E047A839171B DUP6 DUP1 LOG4 PUSH2 0x1618 JUMP JUMPDEST ISZERO PUSH2 0x1674 JUMPI JUMP JUMPDEST PUSH1 0x40 MLOAD PUSH3 0x461BCD PUSH1 0xE5 SHL DUP2 MSTORE PUSH1 0x20 PUSH1 0x4 DUP3 ADD MSTORE PUSH1 0x2C PUSH1 0x24 DUP3 ADD MSTORE PUSH32 0x46756E6374696F6E206D7573742062652063616C6C6564207468726F75676820 PUSH1 0x44 DUP3 ADD MSTORE PUSH12 0x19195B1959D85D1958D85B1B PUSH1 0xA2 SHL PUSH1 0x64 DUP3 ADD MSTORE PUSH1 0x84 SWAP1 REVERT JUMPDEST ISZERO PUSH2 0x16D5 JUMPI JUMP JUMPDEST PUSH1 0x40 MLOAD PUSH3 0x461BCD PUSH1 0xE5 SHL DUP2 MSTORE PUSH1 0x20 PUSH1 0x4 DUP3 ADD MSTORE PUSH1 0x2C PUSH1 0x24 DUP3 ADD MSTORE PUSH32 0x46756E6374696F6E206D7573742062652063616C6C6564207468726F75676820 PUSH1 0x44 DUP3 ADD MSTORE PUSH12 0x6163746976652070726F7879 PUSH1 0xA0 SHL PUSH1 0x64 DUP3 ADD MSTORE PUSH1 0x84 SWAP1 REVERT JUMPDEST SWAP1 SWAP2 PUSH1 0xFF PUSH32 0x4910FDFA16FED3260ED0E7147F7CC6DA11A60208B5B9406D12A635614FFD9143 SLOAD AND PUSH1 0x0 EQ PUSH2 0x176A JUMPI POP PUSH2 0x1768 SWAP2 POP PUSH2 0x198F JUMP JUMPDEST JUMP JUMPDEST PUSH1 0x40 DUP1 MLOAD PUSH4 0x52D1902D PUSH1 0xE0 SHL DUP2 MSTORE PUSH1 0x20 SWAP5 SWAP2 SWAP4 SWAP3 SWAP1 PUSH1 0x1 PUSH1 0x1 PUSH1 0xA0 SHL SUB DUP5 AND SWAP1 DUP7 DUP2 PUSH1 0x4 DUP2 DUP6 GAS STATICCALL PUSH1 0x0 SWAP2 DUP2 PUSH2 0x1960 JUMPI JUMPDEST POP PUSH2 0x17FB JUMPI DUP6 MLOAD PUSH3 0x461BCD PUSH1 0xE5 SHL DUP2 MSTORE PUSH1 0x4 DUP2 ADD DUP9 SWAP1 MSTORE PUSH1 0x2E PUSH1 0x24 DUP3 ADD MSTORE PUSH32 0x45524331393637557067726164653A206E657720696D706C656D656E74617469 PUSH1 0x44 DUP3 ADD MSTORE PUSH14 0x6F6E206973206E6F742055555053 PUSH1 0x90 SHL PUSH1 0x64 DUP3 ADD MSTORE PUSH1 0x84 SWAP1 REVERT JUMPDEST SWAP4 SWAP6 SWAP3 SWAP5 SWAP3 SWAP4 PUSH32 0xC9F76B5EC45E5CDEF99837D7B6D2467235C1DF8933C8CA56DF5C35AFA2C7D444 ADD PUSH2 0x190A JUMPI PUSH2 0x1830 DUP7 PUSH2 0x198F JUMP JUMPDEST PUSH32 0xBC7CD75A20EE27FD9ADEBAB32041F755214DBC6BFFA90CC0225B39DA2E5C2D3B PUSH1 0x0 DUP1 LOG2 DUP4 MLOAD ISZERO SWAP1 DUP2 ISZERO SWAP2 PUSH2 0x1902 JUMPI JUMPDEST POP PUSH2 0x186D JUMPI JUMPDEST POP POP POP POP JUMP JUMPDEST PUSH2 0x18EE SWAP4 PUSH1 0x0 DUP1 PUSH2 0x187E PUSH1 0x27 PUSH2 0x1405 JUMP JUMPDEST SWAP6 PUSH2 0x188B DUP6 MLOAD SWAP8 DUP9 PUSH2 0x13CD JUMP JUMPDEST PUSH1 0x27 DUP8 MSTORE PUSH32 0x416464726573733A206C6F772D6C6576656C2064656C65676174652063616C6C DUP7 DUP9 ADD MSTORE PUSH7 0x819985A5B1959 PUSH1 0xCA SHL DUP6 DUP9 ADD MSTORE DUP6 DUP2 MLOAD SWAP2 ADD DUP5 GAS DELEGATECALL SWAP2 RETURNDATASIZE ISZERO PUSH2 0x18F8 JUMPI RETURNDATASIZE PUSH2 0x18DF PUSH2 0xFCD DUP3 PUSH2 0x1405 JUMP JUMPDEST DUP2 MSTORE PUSH1 0x0 DUP2 SWAP5 RETURNDATASIZE SWAP3 ADD RETURNDATACOPY PUSH2 0x1D00 JUMP JUMPDEST POP CODESIZE DUP1 DUP1 DUP1 PUSH2 0x1867 JUMP JUMPDEST POP PUSH1 0x60 SWAP3 POP PUSH2 0x1D00 JUMP JUMPDEST SWAP1 POP CODESIZE PUSH2 0x1861 JUMP JUMPDEST DUP3 MLOAD PUSH3 0x461BCD PUSH1 0xE5 SHL DUP2 MSTORE PUSH1 0x4 DUP2 ADD DUP6 SWAP1 MSTORE PUSH1 0x29 PUSH1 0x24 DUP3 ADD MSTORE PUSH32 0x45524331393637557067726164653A20756E737570706F727465642070726F78 PUSH1 0x44 DUP3 ADD MSTORE PUSH9 0x1A58589B1955555251 PUSH1 0xBA SHL PUSH1 0x64 DUP3 ADD MSTORE PUSH1 0x84 SWAP1 REVERT JUMPDEST SWAP1 SWAP2 DUP9 DUP3 DUP2 RETURNDATASIZE DUP4 GT PUSH2 0x1988 JUMPI JUMPDEST PUSH2 0x1977 DUP2 DUP4 PUSH2 0x13CD JUMP JUMPDEST DUP2 ADD SUB SLT PUSH2 0x2B8 JUMPI POP MLOAD SWAP1 CODESIZE PUSH2 0x179B JUMP JUMPDEST POP RETURNDATASIZE PUSH2 0x196D JUMP JUMPDEST DUP1 EXTCODESIZE ISZERO PUSH2 0x19D6 JUMPI PUSH32 0x360894A13BA1A3210667C828492DB98DCA3E2076CC3735A920A3CA505D382BBC DUP1 SLOAD PUSH1 0x1 PUSH1 0x1 PUSH1 0xA0 SHL SUB NOT AND PUSH1 0x1 PUSH1 0x1 PUSH1 0xA0 SHL SUB SWAP1 SWAP3 AND SWAP2 SWAP1 SWAP2 OR SWAP1 SSTORE JUMP JUMPDEST PUSH1 0x40 MLOAD PUSH3 0x461BCD PUSH1 0xE5 SHL DUP2 MSTORE PUSH1 0x20 PUSH1 0x4 DUP3 ADD MSTORE PUSH1 0x2D PUSH1 0x24 DUP3 ADD MSTORE PUSH32 0x455243313936373A206E657720696D706C656D656E746174696F6E206973206E PUSH1 0x44 DUP3 ADD MSTORE PUSH13 0x1BDD08184818DBDB9D1C9858DD PUSH1 0x9A SHL PUSH1 0x64 DUP3 ADD MSTORE PUSH1 0x84 SWAP1 REVERT JUMPDEST SWAP1 PUSH1 0x1 DUP3 DUP2 SHR SWAP3 AND DUP1 ISZERO PUSH2 0x1A61 JUMPI JUMPDEST PUSH1 0x20 DUP4 LT EQ PUSH2 0x1A4B JUMPI JUMP JUMPDEST PUSH4 0x4E487B71 PUSH1 0xE0 SHL PUSH1 0x0 MSTORE PUSH1 0x22 PUSH1 0x4 MSTORE PUSH1 0x24 PUSH1 0x0 REVERT JUMPDEST SWAP2 PUSH1 0x7F AND SWAP2 PUSH2 0x1A40 JUMP JUMPDEST SWAP2 SWAP1 DUP3 ADD DUP1 SWAP3 GT PUSH2 0x1A78 JUMPI JUMP JUMPDEST PUSH4 0x4E487B71 PUSH1 0xE0 SHL PUSH1 0x0 MSTORE PUSH1 0x11 PUSH1 0x4 MSTORE PUSH1 0x24 PUSH1 0x0 REVERT JUMPDEST PUSH1 0x1 PUSH1 0x1 PUSH1 0xA0 SHL SUB SWAP1 DUP2 AND SWAP2 DUP3 ISZERO PUSH2 0x1BAB JUMPI AND SWAP2 DUP3 ISZERO PUSH2 0x1B5A JUMPI PUSH1 0x0 DUP3 DUP2 MSTORE PUSH1 0xC9 PUSH1 0x20 MSTORE PUSH1 0x40 DUP2 KECCAK256 SLOAD SWAP2 DUP1 DUP4 LT PUSH2 0x1B06 JUMPI PUSH1 0x40 DUP3 DUP3 PUSH32 0xDDF252AD1BE2C89B69C2B068FC378DAA952BA7F163C4A11628F55A4DF523B3EF SWAP6 DUP8 PUSH1 0x20 SWAP7 MSTORE PUSH1 0xC9 DUP7 MSTORE SUB DUP3 DUP3 KECCAK256 SSTORE DUP7 DUP2 MSTORE KECCAK256 DUP2 DUP2 SLOAD ADD SWAP1 SSTORE PUSH1 0x40 MLOAD SWAP1 DUP2 MSTORE LOG3 JUMP JUMPDEST PUSH1 0x40 MLOAD PUSH3 0x461BCD PUSH1 0xE5 SHL DUP2 MSTORE PUSH1 0x20 PUSH1 0x4 DUP3 ADD MSTORE PUSH1 0x26 PUSH1 0x24 DUP3 ADD MSTORE PUSH32 0x45524332303A207472616E7366657220616D6F756E7420657863656564732062 PUSH1 0x44 DUP3 ADD MSTORE PUSH6 0x616C616E6365 PUSH1 0xD0 SHL PUSH1 0x64 DUP3 ADD MSTORE PUSH1 0x84 SWAP1 REVERT JUMPDEST PUSH1 0x40 MLOAD PUSH3 0x461BCD PUSH1 0xE5 SHL DUP2 MSTORE PUSH1 0x20 PUSH1 0x4 DUP3 ADD MSTORE PUSH1 0x23 PUSH1 0x24 DUP3 ADD MSTORE PUSH32 0x45524332303A207472616E7366657220746F20746865207A65726F2061646472 PUSH1 0x44 DUP3 ADD MSTORE PUSH3 0x657373 PUSH1 0xE8 SHL PUSH1 0x64 DUP3 ADD MSTORE PUSH1 0x84 SWAP1 REVERT JUMPDEST PUSH1 0x40 MLOAD PUSH3 0x461BCD PUSH1 0xE5 SHL DUP2 MSTORE PUSH1 0x20 PUSH1 0x4 DUP3 ADD MSTORE PUSH1 0x25 PUSH1 0x24 DUP3 ADD MSTORE PUSH32 0x45524332303A207472616E736665722066726F6D20746865207A65726F206164 PUSH1 0x44 DUP3 ADD MSTORE PUSH5 0x6472657373 PUSH1 0xD8 SHL PUSH1 0x64 DUP3 ADD MSTORE PUSH1 0x84 SWAP1 REVERT JUMPDEST PUSH1 0x1 PUSH1 0x1 PUSH1 0xA0 SHL SUB SWAP1 DUP2 AND SWAP2 DUP3 ISZERO PUSH2 0x1CAF JUMPI AND SWAP2 DUP3 ISZERO PUSH2 0x1C5F JUMPI PUSH1 0x20 PUSH32 0x8C5BE1E5EBEC7D5BD14F71427D1E84F3DD0314C0F7B2291E5B200AC8C7C3B925 SWAP2 DUP4 PUSH1 0x0 MSTORE PUSH1 0xCA DUP3 MSTORE PUSH1 0x40 PUSH1 0x0 KECCAK256 DUP6 PUSH1 0x0 MSTORE DUP3 MSTORE DUP1 PUSH1 0x40 PUSH1 0x0 KECCAK256 SSTORE PUSH1 0x40 MLOAD SWAP1 DUP2 MSTORE LOG3 JUMP JUMPDEST PUSH1 0x40 MLOAD PUSH3 0x461BCD PUSH1 0xE5 SHL DUP2 MSTORE PUSH1 0x20 PUSH1 0x4 DUP3 ADD MSTORE PUSH1 0x22 PUSH1 0x24 DUP3 ADD MSTORE PUSH32 0x45524332303A20617070726F766520746F20746865207A65726F206164647265 PUSH1 0x44 DUP3 ADD MSTORE PUSH2 0x7373 PUSH1 0xF0 SHL PUSH1 0x64 DUP3 ADD MSTORE PUSH1 0x84 SWAP1 REVERT JUMPDEST PUSH1 0x40 MLOAD PUSH3 0x461BCD PUSH1 0xE5 SHL DUP2 MSTORE PUSH1 0x20 PUSH1 0x4 DUP3 ADD MSTORE PUSH1 0x24 DUP1 DUP3 ADD MSTORE PUSH32 0x45524332303A20617070726F76652066726F6D20746865207A65726F20616464 PUSH1 0x44 DUP3 ADD MSTORE PUSH4 0x72657373 PUSH1 0xE0 SHL PUSH1 0x64 DUP3 ADD MSTORE PUSH1 0x84 SWAP1 REVERT JUMPDEST SWAP2 SWAP3 SWAP1 ISZERO PUSH2 0x1D62 JUMPI POP DUP2 MLOAD ISZERO PUSH2 0x1D14 JUMPI POP SWAP1 JUMP JUMPDEST EXTCODESIZE ISZERO PUSH2 0x1D1D JUMPI SWAP1 JUMP JUMPDEST PUSH1 0x40 MLOAD PUSH3 0x461BCD PUSH1 0xE5 SHL DUP2 MSTORE PUSH1 0x20 PUSH1 0x4 DUP3 ADD MSTORE PUSH1 0x1D PUSH1 0x24 DUP3 ADD MSTORE PUSH32 0x416464726573733A2063616C6C20746F206E6F6E2D636F6E7472616374000000 PUSH1 0x44 DUP3 ADD MSTORE PUSH1 0x64 SWAP1 REVERT JUMPDEST DUP3 MLOAD SWAP1 SWAP2 POP ISZERO PUSH2 0x1D75 JUMPI POP DUP1 MLOAD SWAP1 PUSH1 0x20 ADD REVERT JUMPDEST PUSH1 0x40 MLOAD PUSH3 0x461BCD PUSH1 0xE5 SHL DUP2 MSTORE SWAP1 DUP2 SWAP1 PUSH2 0x15E3 SWAP1 PUSH1 0x4 DUP4 ADD PUSH2 0x13A1 JUMP JUMPDEST PUSH1 0x1 SWAP2 DUP1 DUP4 SHL SWAP2 SWAP1 PUSH1 0x1 PUSH1 0x1 PUSH1 0xFF SHL SUB DUP2 AND SUB PUSH2 0x1A78 JUMPI PUSH1 0x2 DUP3 ADD SWAP3 DUP4 DUP4 GT PUSH2 0x1A78 JUMPI PUSH2 0x1DD6 PUSH2 0x1DC0 DUP6 PUSH2 0x1405 JUMP JUMPDEST SWAP5 PUSH2 0x1DCE PUSH1 0x40 MLOAD SWAP7 DUP8 PUSH2 0x13CD JUMP JUMPDEST DUP1 DUP7 MSTORE PUSH2 0x1405 JUMP JUMPDEST PUSH1 0x20 SWAP4 SWAP1 DUP6 DUP6 ADD SWAP1 PUSH1 0x1F NOT ADD CALLDATASIZE DUP3 CALLDATACOPY DUP6 MLOAD ISZERO PUSH2 0x1ED2 JUMPI PUSH1 0x30 SWAP1 MSTORE8 DUP5 MLOAD DUP3 LT ISZERO PUSH2 0x1ED2 JUMPI PUSH1 0x78 PUSH1 0x21 DUP7 ADD MSTORE8 DUP2 DUP2 ADD DUP1 SWAP2 GT PUSH2 0x1A78 JUMPI SWAP1 JUMPDEST DUP1 DUP3 GT PUSH2 0x1E60 JUMPI POP POP PUSH2 0x1E1D JUMPI POP SWAP1 JUMP JUMPDEST PUSH1 0x64 SWAP1 PUSH1 0x40 MLOAD SWAP1 PUSH3 0x461BCD PUSH1 0xE5 SHL DUP3 MSTORE DUP1 PUSH1 0x4 DUP4 ADD MSTORE PUSH1 0x24 DUP3 ADD MSTORE PUSH32 0x537472696E67733A20686578206C656E67746820696E73756666696369656E74 PUSH1 0x44 DUP3 ADD MSTORE REVERT JUMPDEST SWAP1 SWAP2 PUSH1 0xF DUP2 AND PUSH1 0x10 DUP2 LT ISZERO PUSH2 0x1EBD JUMPI DUP6 MLOAD DUP5 LT ISZERO PUSH2 0x1EBD JUMPI PUSH16 0x181899199A1A9B1B9C1CB0B131B232B3 PUSH1 0x81 SHL SWAP1 BYTE DUP6 DUP5 ADD DUP6 ADD MSTORE8 PUSH1 0x4 SHR SWAP2 DUP1 ISZERO PUSH2 0x1EA8 JUMPI PUSH1 0x0 NOT ADD SWAP1 PUSH2 0x1E0C JUMP JUMPDEST PUSH1 0x24 PUSH1 0x0 PUSH4 0x4E487B71 PUSH1 0xE0 SHL DUP2 MSTORE PUSH1 0x11 PUSH1 0x4 MSTORE REVERT JUMPDEST PUSH1 0x24 PUSH1 0x0 PUSH4 0x4E487B71 PUSH1 0xE0 SHL DUP2 MSTORE PUSH1 0x32 PUSH1 0x4 MSTORE REVERT JUMPDEST PUSH4 0x4E487B71 PUSH1 0xE0 SHL PUSH1 0x0 MSTORE PUSH1 0x32 PUSH1 0x4 MSTORE PUSH1 0x24 PUSH1 0x0 REVERT JUMPDEST DUP1 SLOAD DUP3 LT ISZERO PUSH2 0x1ED2 JUMPI PUSH1 0x0 MSTORE PUSH1 0x20 PUSH1 0x0 KECCAK256 ADD SWAP1 PUSH1 0x0 SWAP1 JUMP JUMPDEST SWAP2 SWAP1 PUSH1 0x1 DUP4 ADD PUSH1 0x0 SWAP1 DUP3 DUP3 MSTORE DUP1 PUSH1 0x20 MSTORE PUSH1 0x40 DUP3 KECCAK256 SLOAD ISZERO PUSH1 0x0 EQ PUSH2 0x1F84 JUMPI DUP5 SLOAD SWAP5 PUSH9 0x10000000000000000 DUP7 LT ISZERO PUSH2 0x1F70 JUMPI DUP4 PUSH2 0x1F60 PUSH2 0x1F49 DUP9 PUSH1 0x1 PUSH1 0x40 SWAP9 SWAP10 SWAP11 ADD DUP6 SSTORE DUP5 PUSH2 0x1EE8 JUMP JUMPDEST DUP2 SWAP4 SWAP2 SLOAD SWAP1 PUSH1 0x3 SHL SWAP2 DUP3 SHL SWAP2 PUSH1 0x0 NOT SWAP1 SHL NOT AND OR SWAP1 JUMP JUMPDEST SWAP1 SSTORE SLOAD SWAP4 DUP3 MSTORE PUSH1 0x20 MSTORE KECCAK256 SSTORE PUSH1 0x1 SWAP1 JUMP JUMPDEST PUSH4 0x4E487B71 PUSH1 0xE0 SHL DUP4 MSTORE PUSH1 0x41 PUSH1 0x4 MSTORE PUSH1 0x24 DUP4 REVERT JUMPDEST POP SWAP3 POP POP JUMP JUMPDEST SWAP1 PUSH1 0x1 DUP3 ADD SWAP1 PUSH1 0x0 SWAP3 DUP2 DUP5 MSTORE DUP3 PUSH1 0x20 MSTORE PUSH1 0x40 DUP5 KECCAK256 SLOAD SWAP1 DUP2 ISZERO ISZERO PUSH1 0x0 EQ PUSH2 0x2073 JUMPI PUSH1 0x0 NOT SWAP2 DUP1 DUP4 ADD DUP2 DUP2 GT PUSH2 0x205F JUMPI DUP3 SLOAD SWAP1 DUP5 DUP3 ADD SWAP2 DUP3 GT PUSH2 0x204B JUMPI DUP1 DUP3 SUB PUSH2 0x2016 JUMPI JUMPDEST POP POP POP DUP1 SLOAD DUP1 ISZERO PUSH2 0x2002 JUMPI DUP3 ADD SWAP2 PUSH2 0x1FE5 DUP4 DUP4 PUSH2 0x1EE8 JUMP JUMPDEST SWAP1 SWAP2 DUP3 SLOAD SWAP2 PUSH1 0x3 SHL SHL NOT AND SWAP1 SSTORE SSTORE DUP3 MSTORE PUSH1 0x20 MSTORE PUSH1 0x40 DUP2 KECCAK256 SSTORE PUSH1 0x1 SWAP1 JUMP JUMPDEST PUSH4 0x4E487B71 PUSH1 0xE0 SHL DUP7 MSTORE PUSH1 0x31 PUSH1 0x4 MSTORE PUSH1 0x24 DUP7 REVERT JUMPDEST PUSH2 0x2036 PUSH2 0x2026 PUSH2 0x1F49 SWAP4 DUP7 PUSH2 0x1EE8 JUMP JUMPDEST SWAP1 SLOAD SWAP1 PUSH1 0x3 SHL SHR SWAP3 DUP4 SWAP3 DUP7 PUSH2 0x1EE8 JUMP JUMPDEST SWAP1 SSTORE DUP7 MSTORE DUP5 PUSH1 0x20 MSTORE PUSH1 0x40 DUP7 KECCAK256 SSTORE CODESIZE DUP1 DUP1 PUSH2 0x1FCD JUMP JUMPDEST PUSH4 0x4E487B71 PUSH1 0xE0 SHL DUP9 MSTORE PUSH1 0x11 PUSH1 0x4 MSTORE PUSH1 0x24 DUP9 REVERT JUMPDEST PUSH4 0x4E487B71 PUSH1 0xE0 SHL DUP8 MSTORE PUSH1 0x11 PUSH1 0x4 MSTORE PUSH1 0x24 DUP8 REVERT JUMPDEST POP POP POP POP SWAP1 JUMP JUMPDEST PUSH2 0x191 SLOAD PUSH1 0x40 MLOAD PUSH4 0xD994D6D5 PUSH1 0xE0 SHL DUP2 MSTORE CALLER PUSH1 0x4 DUP3 ADD MSTORE SWAP1 PUSH1 0x20 SWAP1 DUP3 SWAP1 PUSH1 0x24 SWAP1 DUP3 SWAP1 PUSH1 0x1 PUSH1 0x1 PUSH1 0xA0 SHL SUB AND GAS STATICCALL SWAP1 DUP2 ISZERO PUSH2 0x210A JUMPI PUSH1 0x0 SWAP2 PUSH2 0x20D0 JUMPI JUMPDEST POP ISZERO PUSH2 0x20BE JUMPI JUMP JUMPDEST PUSH1 0x40 MLOAD PUSH4 0x1DD1B1B5 PUSH1 0xE2 SHL DUP2 MSTORE PUSH1 0x4 SWAP1 REVERT JUMPDEST PUSH1 0x20 DUP2 RETURNDATASIZE DUP3 GT PUSH2 0x2102 JUMPI JUMPDEST DUP2 PUSH2 0x20E8 PUSH1 0x20 SWAP4 DUP4 PUSH2 0x13CD JUMP JUMPDEST DUP2 ADD SUB SLT PUSH2 0x1AA JUMPI MLOAD SWAP1 DUP2 ISZERO ISZERO DUP3 SUB PUSH2 0x2B8 JUMPI POP CODESIZE PUSH2 0x20B6 JUMP JUMPDEST RETURNDATASIZE SWAP2 POP PUSH2 0x20DB JUMP JUMPDEST PUSH1 0x40 MLOAD RETURNDATASIZE PUSH1 0x0 DUP3 RETURNDATACOPY RETURNDATASIZE SWAP1 REVERT JUMPDEST ISZERO PUSH2 0x211D JUMPI JUMP JUMPDEST PUSH1 0x40 MLOAD PUSH3 0x461BCD PUSH1 0xE5 SHL DUP2 MSTORE PUSH1 0x20 PUSH1 0x4 DUP3 ADD MSTORE PUSH1 0x2B PUSH1 0x24 DUP3 ADD MSTORE PUSH32 0x496E697469616C697A61626C653A20636F6E7472616374206973206E6F742069 PUSH1 0x44 DUP3 ADD MSTORE PUSH11 0x6E697469616C697A696E67 PUSH1 0xA8 SHL PUSH1 0x64 DUP3 ADD MSTORE PUSH1 0x84 SWAP1 REVERT INVALID LOG2 PUSH5 0x6970667358 0x22 SLT KECCAK256 DUP13 BLOCKHASH PUSH28 0x9CB91F0DB614C06711DBFCD91D7CC366EC294B38681F3A716270747B GAS PUSH5 0x736F6C6343 STOP ADDMOD EQ STOP CALLER PUSH1 0xA0 PUSH1 0x40 MSTORE CALLVALUE PUSH3 0x49 JUMPI ADDRESS PUSH1 0x80 MSTORE PUSH3 0x18 PUSH3 0x4E JUMP JUMPDEST PUSH3 0x22 PUSH3 0x4E JUMP JUMPDEST PUSH1 0x40 MLOAD PUSH2 0x2402 SWAP1 DUP2 PUSH3 0xF8 DUP3 CODECOPY PUSH1 0x80 MLOAD DUP2 DUP2 DUP2 PUSH2 0xED4 ADD MSTORE DUP2 DUP2 PUSH2 0xFF6 ADD MSTORE PUSH2 0x11E2 ADD MSTORE RETURN JUMPDEST PUSH1 0x0 DUP1 REVERT JUMPDEST PUSH1 0x0 SLOAD PUSH1 0xFF DUP2 PUSH1 0x8 SHR AND PUSH3 0xA2 JUMPI PUSH1 0xFF DUP1 DUP3 AND SUB PUSH3 0x6B JUMPI POP JUMP JUMPDEST PUSH1 0xFF SWAP1 DUP2 NOT AND OR PUSH1 0x0 SSTORE PUSH32 0x7F26B83FF96E1F2B6A682F133852F6798A09C465DA95921460CEFB3847402498 PUSH1 0x20 PUSH1 0x40 MLOAD PUSH1 0xFF DUP2 MSTORE LOG1 JUMP JUMPDEST PUSH1 0x40 MLOAD PUSH3 0x461BCD PUSH1 0xE5 SHL DUP2 MSTORE PUSH1 0x20 PUSH1 0x4 DUP3 ADD MSTORE PUSH1 0x27 PUSH1 0x24 DUP3 ADD MSTORE PUSH32 0x496E697469616C697A61626C653A20636F6E747261637420697320696E697469 PUSH1 0x44 DUP3 ADD MSTORE PUSH7 0x616C697A696E67 PUSH1 0xC8 SHL PUSH1 0x64 DUP3 ADD MSTORE PUSH1 0x84 SWAP1 REVERT INVALID PUSH1 0x80 DUP1 PUSH1 0x40 MSTORE PUSH1 0x4 CALLDATASIZE LT ISZERO PUSH2 0x13 JUMPI PUSH1 0x0 DUP1 REVERT JUMPDEST PUSH1 0x0 CALLDATALOAD PUSH1 0xE0 SHR SWAP1 DUP2 PUSH4 0x1FFC9A7 EQ PUSH2 0x1547 JUMPI POP DUP1 PUSH4 0x6FDDE03 EQ PUSH2 0x14B3 JUMPI DUP1 PUSH4 0x95EA7B3 EQ PUSH2 0x1481 JUMPI DUP1 PUSH4 0xC340A24 EQ PUSH2 0x1457 JUMPI DUP1 PUSH4 0x18160DDD EQ PUSH2 0x1439 JUMPI DUP1 PUSH4 0x23B872DD EQ PUSH2 0x1372 JUMPI DUP1 PUSH4 0x248A9CA3 EQ PUSH2 0x1343 JUMPI DUP1 PUSH4 0x2F2FF15D EQ PUSH2 0x12F9 JUMPI DUP1 PUSH4 0x313CE567 EQ PUSH2 0x12DD JUMPI DUP1 PUSH4 0x36568ABE EQ PUSH2 0x1249 JUMPI DUP1 PUSH4 0x3659CFE6 EQ PUSH2 0x11B0 JUMPI DUP1 PUSH4 0x39509351 EQ PUSH2 0x1159 JUMPI DUP1 PUSH4 0x40C10F19 EQ PUSH2 0x1059 JUMPI DUP1 PUSH4 0x4F1EF286 EQ PUSH2 0xF97 JUMPI DUP1 PUSH4 0x52D1902D EQ PUSH2 0xEC1 JUMPI DUP1 PUSH4 0x5C975ABB EQ PUSH2 0xE9D JUMPI DUP1 PUSH4 0x70A08231 EQ PUSH2 0xE5F JUMPI DUP1 PUSH4 0x83D2230D EQ PUSH2 0xCAA JUMPI DUP1 PUSH4 0x8456CB59 EQ PUSH2 0xBF5 JUMPI DUP1 PUSH4 0x8F15B414 EQ PUSH2 0x6C1 JUMPI DUP1 PUSH4 0x9010D07C EQ PUSH2 0x67A JUMPI DUP1 PUSH4 0x91D14854 EQ PUSH2 0x628 JUMPI DUP1 PUSH4 0x95D89B41 EQ PUSH2 0x54A JUMPI DUP1 PUSH4 0x9DC29FAC EQ PUSH2 0x392 JUMPI DUP1 PUSH4 0xA217FDDF EQ PUSH2 0x376 JUMPI DUP1 PUSH4 0xA457C2D7 EQ PUSH2 0x2CA JUMPI DUP1 PUSH4 0xA9059CBB EQ PUSH2 0x28D JUMPI DUP1 PUSH4 0xCA15C873 EQ PUSH2 0x261 JUMPI DUP1 PUSH4 0xD547741F EQ PUSH2 0x215 JUMPI DUP1 PUSH4 0xDD62ED3E EQ PUSH2 0x1BD JUMPI PUSH4 0xE4C0AAF4 EQ PUSH2 0x174 JUMPI PUSH1 0x0 DUP1 REVERT JUMPDEST CALLVALUE PUSH2 0x1B8 JUMPI PUSH1 0x20 CALLDATASIZE PUSH1 0x3 NOT ADD SLT PUSH2 0x1B8 JUMPI PUSH1 0x4 CALLDATALOAD PUSH1 0x1 PUSH1 0x1 PUSH1 0xA0 SHL SUB DUP2 AND SWAP1 DUP2 SWAP1 SUB PUSH2 0x1B8 JUMPI PUSH2 0x1A2 PUSH2 0x22AC JUMP JUMPDEST PUSH2 0x191 DUP1 SLOAD PUSH1 0x1 PUSH1 0x1 PUSH1 0xA0 SHL SUB NOT AND SWAP1 SWAP2 OR SWAP1 SSTORE STOP JUMPDEST PUSH1 0x0 DUP1 REVERT JUMPDEST CALLVALUE PUSH2 0x1B8 JUMPI PUSH1 0x40 CALLDATASIZE PUSH1 0x3 NOT ADD SLT PUSH2 0x1B8 JUMPI PUSH1 0x1 PUSH1 0x1 PUSH1 0xA0 SHL SUB PUSH1 0x4 CALLDATALOAD DUP2 DUP2 AND SWAP1 DUP2 SWAP1 SUB PUSH2 0x1B8 JUMPI PUSH1 0x24 CALLDATALOAD SWAP2 DUP3 AND DUP1 SWAP3 SUB PUSH2 0x1B8 JUMPI PUSH1 0x0 MSTORE PUSH1 0xCA PUSH1 0x20 MSTORE PUSH1 0x40 PUSH1 0x0 KECCAK256 SWAP1 PUSH1 0x0 MSTORE PUSH1 0x20 MSTORE PUSH1 0x20 PUSH1 0x40 PUSH1 0x0 KECCAK256 SLOAD PUSH1 0x40 MLOAD SWAP1 DUP2 MSTORE RETURN JUMPDEST CALLVALUE PUSH2 0x1B8 JUMPI PUSH1 0x40 CALLDATASIZE PUSH1 0x3 NOT ADD SLT PUSH2 0x1B8 JUMPI PUSH1 0x4 CALLDATALOAD PUSH1 0x24 CALLDATALOAD PUSH1 0x1 PUSH1 0x1 PUSH1 0xA0 SHL SUB DUP2 AND DUP2 SUB PUSH2 0x1B8 JUMPI DUP2 PUSH2 0x25F SWAP3 PUSH1 0x0 MSTORE PUSH1 0x65 PUSH1 0x20 MSTORE PUSH2 0x25A PUSH1 0x1 PUSH1 0x40 PUSH1 0x0 KECCAK256 ADD SLOAD PUSH2 0x1723 JUMP JUMPDEST PUSH2 0x1802 JUMP JUMPDEST STOP JUMPDEST CALLVALUE PUSH2 0x1B8 JUMPI PUSH1 0x20 CALLDATASIZE PUSH1 0x3 NOT ADD SLT PUSH2 0x1B8 JUMPI PUSH1 0x4 CALLDATALOAD PUSH1 0x0 MSTORE PUSH1 0x97 PUSH1 0x20 MSTORE PUSH1 0x20 PUSH1 0x40 PUSH1 0x0 KECCAK256 SLOAD PUSH1 0x40 MLOAD SWAP1 DUP2 MSTORE RETURN JUMPDEST CALLVALUE PUSH2 0x1B8 JUMPI PUSH1 0x40 CALLDATASIZE PUSH1 0x3 NOT ADD SLT PUSH2 0x1B8 JUMPI PUSH1 0x4 CALLDATALOAD PUSH1 0x1 PUSH1 0x1 PUSH1 0xA0 SHL SUB DUP2 AND DUP2 SUB PUSH2 0x1B8 JUMPI PUSH2 0x2BF SWAP1 PUSH1 0x24 CALLDATALOAD SWAP1 CALLER PUSH2 0x1CB5 JUMP JUMPDEST PUSH1 0x20 PUSH1 0x40 MLOAD PUSH1 0x1 DUP2 MSTORE RETURN JUMPDEST CALLVALUE PUSH2 0x1B8 JUMPI PUSH1 0x40 CALLDATASIZE PUSH1 0x3 NOT ADD SLT PUSH2 0x1B8 JUMPI PUSH1 0x4 CALLDATALOAD PUSH1 0x1 PUSH1 0x1 PUSH1 0xA0 SHL SUB DUP2 AND SWAP1 DUP2 DUP2 SUB PUSH2 0x1B8 JUMPI PUSH1 0x24 CALLDATALOAD SWAP2 CALLER PUSH1 0x0 MSTORE PUSH1 0xCA PUSH1 0x20 MSTORE PUSH1 0x40 PUSH1 0x0 KECCAK256 SWAP1 PUSH1 0x0 MSTORE PUSH1 0x20 MSTORE PUSH1 0x40 PUSH1 0x0 KECCAK256 SLOAD SWAP2 DUP1 DUP4 LT PUSH2 0x323 JUMPI PUSH2 0x2BF SWAP3 SUB SWAP1 CALLER PUSH2 0x1E30 JUMP JUMPDEST PUSH1 0x40 MLOAD PUSH3 0x461BCD PUSH1 0xE5 SHL DUP2 MSTORE PUSH1 0x20 PUSH1 0x4 DUP3 ADD MSTORE PUSH1 0x25 PUSH1 0x24 DUP3 ADD MSTORE PUSH32 0x45524332303A2064656372656173656420616C6C6F77616E63652062656C6F77 PUSH1 0x44 DUP3 ADD MSTORE PUSH5 0x207A65726F PUSH1 0xD8 SHL PUSH1 0x64 DUP3 ADD MSTORE PUSH1 0x84 SWAP1 REVERT JUMPDEST CALLVALUE PUSH2 0x1B8 JUMPI PUSH1 0x0 CALLDATASIZE PUSH1 0x3 NOT ADD SLT PUSH2 0x1B8 JUMPI PUSH1 0x20 PUSH1 0x40 MLOAD PUSH1 0x0 DUP2 MSTORE RETURN JUMPDEST CALLVALUE PUSH2 0x1B8 JUMPI PUSH1 0x40 CALLDATASIZE PUSH1 0x3 NOT ADD SLT PUSH2 0x1B8 JUMPI PUSH1 0x4 CALLDATALOAD PUSH1 0x1 PUSH1 0x1 PUSH1 0xA0 SHL SUB DUP2 AND SWAP1 DUP2 SWAP1 SUB PUSH2 0x1B8 JUMPI PUSH1 0x24 CALLDATALOAD SWAP1 PUSH2 0x3E5 PUSH32 0x3C11D16CBAFFD01DF69CE1C404F6340EE057498F5F00246190EA54220576A848 PUSH2 0x1723 JUMP JUMPDEST DUP1 ISZERO PUSH2 0x4FB JUMPI PUSH1 0xFF PUSH2 0x1C4 SLOAD AND PUSH2 0x4A3 JUMPI DUP1 PUSH1 0x0 MSTORE PUSH1 0xC9 PUSH1 0x20 MSTORE PUSH1 0x40 PUSH1 0x0 KECCAK256 SLOAD SWAP2 DUP1 DUP4 LT PUSH2 0x453 JUMPI PUSH1 0x20 DUP2 PUSH32 0xDDF252AD1BE2C89B69C2B068FC378DAA952BA7F163C4A11628F55A4DF523B3EF SWAP3 PUSH1 0x0 SWAP6 DUP6 DUP8 MSTORE PUSH1 0xC9 DUP5 MSTORE SUB PUSH1 0x40 DUP7 KECCAK256 SSTORE DUP1 PUSH1 0xCB SLOAD SUB PUSH1 0xCB SSTORE PUSH1 0x40 MLOAD SWAP1 DUP2 MSTORE LOG3 STOP JUMPDEST PUSH1 0x40 MLOAD PUSH3 0x461BCD PUSH1 0xE5 SHL DUP2 MSTORE PUSH1 0x20 PUSH1 0x4 DUP3 ADD MSTORE PUSH1 0x22 PUSH1 0x24 DUP3 ADD MSTORE PUSH32 0x45524332303A206275726E20616D6F756E7420657863656564732062616C616E PUSH1 0x44 DUP3 ADD MSTORE PUSH2 0x6365 PUSH1 0xF0 SHL PUSH1 0x64 DUP3 ADD MSTORE PUSH1 0x84 SWAP1 REVERT JUMPDEST PUSH1 0x40 MLOAD PUSH3 0x461BCD PUSH1 0xE5 SHL DUP2 MSTORE PUSH1 0x20 PUSH1 0x4 DUP3 ADD MSTORE PUSH1 0x2A PUSH1 0x24 DUP3 ADD MSTORE PUSH32 0x45524332305061757361626C653A20746F6B656E207472616E73666572207768 PUSH1 0x44 DUP3 ADD MSTORE PUSH10 0x1A5B19481C185D5CD959 PUSH1 0xB2 SHL PUSH1 0x64 DUP3 ADD MSTORE PUSH1 0x84 SWAP1 REVERT JUMPDEST PUSH1 0x40 MLOAD PUSH3 0x461BCD PUSH1 0xE5 SHL DUP2 MSTORE PUSH1 0x20 PUSH1 0x4 DUP3 ADD MSTORE PUSH1 0x21 PUSH1 0x24 DUP3 ADD MSTORE PUSH32 0x45524332303A206275726E2066726F6D20746865207A65726F20616464726573 PUSH1 0x44 DUP3 ADD MSTORE PUSH1 0x73 PUSH1 0xF8 SHL PUSH1 0x64 DUP3 ADD MSTORE PUSH1 0x84 SWAP1 REVERT JUMPDEST CALLVALUE PUSH2 0x1B8 JUMPI PUSH1 0x0 CALLDATASIZE PUSH1 0x3 NOT ADD SLT PUSH2 0x1B8 JUMPI PUSH1 0x40 MLOAD PUSH1 0x0 PUSH1 0xCD SLOAD PUSH2 0x56C DUP2 PUSH2 0x1C58 JUMP JUMPDEST DUP1 DUP5 MSTORE SWAP1 PUSH1 0x1 SWAP1 DUP2 DUP2 AND SWAP1 DUP2 ISZERO PUSH2 0x601 JUMPI POP PUSH1 0x1 EQ PUSH2 0x5A6 JUMPI JUMPDEST PUSH2 0x5A2 DUP5 PUSH2 0x596 DUP2 DUP7 SUB DUP3 PUSH2 0x1603 JUMP JUMPDEST PUSH1 0x40 MLOAD SWAP2 DUP3 SWAP2 DUP3 PUSH2 0x15D7 JUMP JUMPDEST SUB SWAP1 RETURN JUMPDEST PUSH1 0xCD PUSH1 0x0 SWAP1 DUP2 MSTORE SWAP3 POP PUSH32 0x83978B4C69C48DD978AB43FE30F077615294F938FB7F936D9EB340E51EA7DB2E JUMPDEST DUP3 DUP5 LT PUSH2 0x5E9 JUMPI POP POP POP DUP2 ADD PUSH1 0x20 ADD PUSH2 0x596 DUP3 PUSH2 0x586 JUMP JUMPDEST DUP1 SLOAD PUSH1 0x20 DUP6 DUP8 ADD DUP2 ADD SWAP2 SWAP1 SWAP2 MSTORE SWAP1 SWAP4 ADD SWAP3 DUP2 ADD PUSH2 0x5D1 JUMP JUMPDEST PUSH1 0xFF NOT AND PUSH1 0x20 DUP1 DUP8 ADD SWAP2 SWAP1 SWAP2 MSTORE SWAP3 ISZERO ISZERO PUSH1 0x5 SHL DUP6 ADD SWAP1 SWAP3 ADD SWAP3 POP PUSH2 0x596 SWAP2 POP DUP4 SWAP1 POP PUSH2 0x586 JUMP JUMPDEST CALLVALUE PUSH2 0x1B8 JUMPI PUSH1 0x40 CALLDATASIZE PUSH1 0x3 NOT ADD SLT PUSH2 0x1B8 JUMPI PUSH1 0x24 CALLDATALOAD PUSH1 0x1 PUSH1 0x1 PUSH1 0xA0 SHL SUB DUP2 AND SWAP1 DUP2 SWAP1 SUB PUSH2 0x1B8 JUMPI PUSH1 0x4 CALLDATALOAD PUSH1 0x0 MSTORE PUSH1 0x65 PUSH1 0x20 MSTORE PUSH1 0x40 PUSH1 0x0 KECCAK256 SWAP1 PUSH1 0x0 MSTORE PUSH1 0x20 MSTORE PUSH1 0x20 PUSH1 0xFF PUSH1 0x40 PUSH1 0x0 KECCAK256 SLOAD AND PUSH1 0x40 MLOAD SWAP1 ISZERO ISZERO DUP2 MSTORE RETURN JUMPDEST CALLVALUE PUSH2 0x1B8 JUMPI PUSH1 0x40 CALLDATASIZE PUSH1 0x3 NOT ADD SLT PUSH2 0x1B8 JUMPI PUSH1 0x4 CALLDATALOAD PUSH1 0x0 MSTORE PUSH1 0x97 PUSH1 0x20 MSTORE PUSH1 0x20 PUSH2 0x6A8 PUSH1 0x24 CALLDATALOAD PUSH1 0x40 PUSH1 0x0 KECCAK256 PUSH2 0x211A JUMP JUMPDEST SWAP1 SLOAD PUSH1 0x40 MLOAD PUSH1 0x3 SWAP3 SWAP1 SWAP3 SHL SHR PUSH1 0x1 PUSH1 0x1 PUSH1 0xA0 SHL SUB AND DUP2 MSTORE RETURN JUMPDEST CALLVALUE PUSH2 0x1B8 JUMPI PUSH1 0x80 CALLDATASIZE PUSH1 0x3 NOT ADD SLT PUSH2 0x1B8 JUMPI PUSH1 0x4 CALLDATALOAD PUSH8 0xFFFFFFFFFFFFFFFF DUP2 GT PUSH2 0x1B8 JUMPI PUSH2 0x6F2 SWAP1 CALLDATASIZE SWAP1 PUSH1 0x4 ADD PUSH2 0x1678 JUMP JUMPDEST PUSH1 0x24 CALLDATALOAD PUSH8 0xFFFFFFFFFFFFFFFF DUP2 GT PUSH2 0x1B8 JUMPI PUSH2 0x712 SWAP1 CALLDATASIZE SWAP1 PUSH1 0x4 ADD PUSH2 0x1678 JUMP JUMPDEST SWAP1 PUSH1 0x1 PUSH1 0x1 PUSH1 0xA0 SHL SUB PUSH1 0x44 CALLDATALOAD DUP1 DUP3 AND SWAP1 SUB PUSH2 0x1B8 JUMPI PUSH1 0x64 CALLDATALOAD SWAP1 DUP1 DUP3 AND DUP3 SUB PUSH2 0x1B8 JUMPI PUSH1 0x0 SLOAD SWAP3 PUSH1 0xFF DUP5 PUSH1 0x8 SHR AND ISZERO SWAP4 DUP5 DUP1 SWAP6 PUSH2 0xBE8 JUMPI JUMPDEST DUP1 ISZERO PUSH2 0xBD1 JUMPI JUMPDEST ISZERO PUSH2 0xB75 JUMPI PUSH1 0xFF NOT DUP2 AND PUSH1 0x1 OR PUSH1 0x0 SSTORE DUP5 PUSH2 0xB63 JUMPI JUMPDEST POP PUSH2 0x78A PUSH1 0xFF PUSH1 0x0 SLOAD PUSH1 0x8 SHR AND PUSH2 0x77C DUP2 PUSH2 0x234C JUMP JUMPDEST PUSH2 0x785 DUP2 PUSH2 0x234C JUMP JUMPDEST PUSH2 0x234C JUMP JUMPDEST DUP1 MLOAD SWAP1 PUSH8 0xFFFFFFFFFFFFFFFF DUP3 GT PUSH2 0xA53 JUMPI DUP2 SWAP1 PUSH2 0x7A9 PUSH1 0xCC SLOAD PUSH2 0x1C58 JUMP JUMPDEST PUSH1 0x1F DUP2 GT PUSH2 0xAEC JUMPI JUMPDEST POP PUSH1 0x20 SWAP1 PUSH1 0x1F DUP4 GT PUSH1 0x1 EQ PUSH2 0xA74 JUMPI PUSH1 0x0 SWAP3 PUSH2 0xA69 JUMPI JUMPDEST POP POP DUP2 PUSH1 0x1 SHL SWAP2 PUSH1 0x0 NOT SWAP1 PUSH1 0x3 SHL SHR NOT AND OR PUSH1 0xCC SSTORE JUMPDEST DUP4 MLOAD PUSH8 0xFFFFFFFFFFFFFFFF DUP2 GT PUSH2 0xA53 JUMPI PUSH2 0x7FB PUSH1 0xCD SLOAD PUSH2 0x1C58 JUMP JUMPDEST PUSH1 0x1F DUP2 GT PUSH2 0x9EE JUMPI JUMPDEST POP PUSH1 0x20 SWAP5 PUSH1 0x1F DUP3 GT PUSH1 0x1 EQ PUSH2 0x96A JUMPI SWAP5 DUP2 SWAP3 SWAP4 SWAP5 SWAP6 PUSH1 0x0 SWAP3 PUSH2 0x95F JUMPI JUMPDEST POP POP DUP2 PUSH1 0x1 SHL SWAP2 PUSH1 0x0 NOT SWAP1 PUSH1 0x3 SHL SHR NOT AND OR PUSH1 0xCD SSTORE JUMPDEST PUSH2 0x855 PUSH1 0xFF PUSH1 0x0 SLOAD PUSH1 0x8 SHR AND PUSH2 0x84C DUP2 PUSH2 0x234C JUMP JUMPDEST PUSH2 0x77C DUP2 PUSH2 0x234C JUMP JUMPDEST PUSH2 0x191 SWAP2 AND PUSH12 0xFFFFFFFFFFFFFFFFFFFFFFFF PUSH1 0xA0 SHL DUP3 SLOAD AND OR SWAP1 SSTORE PUSH2 0x87D PUSH1 0x44 CALLDATALOAD PUSH1 0x0 PUSH2 0x1696 JUMP JUMPDEST PUSH2 0x8A9 PUSH1 0x44 CALLDATALOAD PUSH32 0x9F2DF0FED2C77648DE5860A4CC508CD0818C85B8B8A1AB4CEEEF8D981C8956A6 PUSH2 0x1696 JUMP JUMPDEST PUSH2 0x8D5 PUSH1 0x44 CALLDATALOAD PUSH32 0x3C11D16CBAFFD01DF69CE1C404F6340EE057498F5F00246190EA54220576A848 PUSH2 0x1696 JUMP JUMPDEST PUSH2 0x8EA PUSH1 0xFF PUSH1 0x0 SLOAD PUSH1 0x8 SHR AND PUSH2 0x785 DUP2 PUSH2 0x234C JUMP JUMPDEST PUSH2 0x1C4 DUP1 SLOAD PUSH1 0xFF NOT AND SWAP1 SSTORE PUSH2 0x921 PUSH1 0x44 CALLDATALOAD PUSH32 0x65D7A28E3265B37A6474929F336521B332C1681B933F6CB9F3376673440D862A PUSH2 0x1696 JUMP JUMPDEST PUSH2 0x927 JUMPI STOP JUMPDEST PUSH2 0xFF00 NOT PUSH1 0x0 SLOAD AND PUSH1 0x0 SSTORE PUSH32 0x7F26B83FF96E1F2B6A682F133852F6798A09C465DA95921460CEFB3847402498 PUSH1 0x20 PUSH1 0x40 MLOAD PUSH1 0x1 DUP2 MSTORE LOG1 STOP JUMPDEST ADD MLOAD SWAP1 POP DUP6 DUP1 PUSH2 0x821 JUMP JUMPDEST PUSH1 0x1F NOT DUP3 AND SWAP6 PUSH1 0xCD PUSH1 0x0 MSTORE PUSH32 0x83978B4C69C48DD978AB43FE30F077615294F938FB7F936D9EB340E51EA7DB2E SWAP2 PUSH1 0x0 JUMPDEST DUP9 DUP2 LT PUSH2 0x9D6 JUMPI POP DUP4 PUSH1 0x1 SWAP6 SWAP7 SWAP8 SWAP9 LT PUSH2 0x9BD JUMPI JUMPDEST POP POP POP DUP2 SHL ADD PUSH1 0xCD SSTORE PUSH2 0x837 JUMP JUMPDEST ADD MLOAD PUSH1 0x0 NOT PUSH1 0xF8 DUP5 PUSH1 0x3 SHL AND SHR NOT AND SWAP1 SSTORE DUP6 DUP1 DUP1 PUSH2 0x9AF JUMP JUMPDEST SWAP2 SWAP3 PUSH1 0x20 PUSH1 0x1 DUP2 SWAP3 DUP7 DUP6 ADD MLOAD DUP2 SSTORE ADD SWAP5 ADD SWAP3 ADD PUSH2 0x99A JUMP JUMPDEST PUSH1 0xCD PUSH1 0x0 MSTORE PUSH32 0x83978B4C69C48DD978AB43FE30F077615294F938FB7F936D9EB340E51EA7DB2E PUSH1 0x1F DUP4 ADD PUSH1 0x5 SHR DUP2 ADD SWAP2 PUSH1 0x20 DUP5 LT PUSH2 0xA49 JUMPI JUMPDEST PUSH1 0x1F ADD PUSH1 0x5 SHR ADD SWAP1 JUMPDEST DUP2 DUP2 LT PUSH2 0xA3D JUMPI POP PUSH2 0x804 JUMP JUMPDEST PUSH1 0x0 DUP2 SSTORE PUSH1 0x1 ADD PUSH2 0xA30 JUMP JUMPDEST SWAP1 SWAP2 POP DUP2 SWAP1 PUSH2 0xA27 JUMP JUMPDEST PUSH4 0x4E487B71 PUSH1 0xE0 SHL PUSH1 0x0 MSTORE PUSH1 0x41 PUSH1 0x4 MSTORE PUSH1 0x24 PUSH1 0x0 REVERT JUMPDEST ADD MLOAD SWAP1 POP DUP7 DUP1 PUSH2 0x7C9 JUMP JUMPDEST SWAP3 POP PUSH1 0xCC PUSH1 0x0 MSTORE PUSH1 0x0 DUP1 MLOAD PUSH1 0x20 PUSH2 0x23AD DUP4 CODECOPY DUP2 MLOAD SWAP2 MSTORE SWAP1 PUSH1 0x0 SWAP4 JUMPDEST PUSH1 0x1F NOT DUP5 AND DUP6 LT PUSH2 0xAD1 JUMPI PUSH1 0x1 SWAP5 POP DUP4 PUSH1 0x1F NOT DUP2 AND LT PUSH2 0xAB8 JUMPI JUMPDEST POP POP POP DUP2 SHL ADD PUSH1 0xCC SSTORE PUSH2 0x7DF JUMP JUMPDEST ADD MLOAD PUSH1 0x0 NOT PUSH1 0xF8 DUP5 PUSH1 0x3 SHL AND SHR NOT AND SWAP1 SSTORE DUP7 DUP1 DUP1 PUSH2 0xAAA JUMP JUMPDEST DUP2 DUP2 ADD MLOAD DUP4 SSTORE PUSH1 0x20 SWAP5 DUP6 ADD SWAP5 PUSH1 0x1 SWAP1 SWAP4 ADD SWAP3 SWAP1 SWAP2 ADD SWAP1 PUSH2 0xA8F JUMP JUMPDEST SWAP1 SWAP2 POP PUSH1 0xCC PUSH1 0x0 MSTORE PUSH1 0x1F DUP4 ADD PUSH1 0x5 SHR PUSH1 0x0 DUP1 MLOAD PUSH1 0x20 PUSH2 0x23AD DUP4 CODECOPY DUP2 MLOAD SWAP2 MSTORE ADD SWAP1 PUSH1 0x20 DUP5 LT PUSH2 0xB4D JUMPI JUMPDEST SWAP1 PUSH1 0x1F DUP5 SWAP4 SWAP3 ADD PUSH1 0x5 SHR PUSH1 0x0 DUP1 MLOAD PUSH1 0x20 PUSH2 0x23AD DUP4 CODECOPY DUP2 MLOAD SWAP2 MSTORE ADD SWAP1 JUMPDEST DUP2 DUP2 LT PUSH2 0xB3E JUMPI POP PUSH2 0x7B2 JUMP JUMPDEST PUSH1 0x0 DUP2 SSTORE DUP5 SWAP4 POP PUSH1 0x1 ADD PUSH2 0xB31 JUMP JUMPDEST PUSH1 0x0 DUP1 MLOAD PUSH1 0x20 PUSH2 0x23AD DUP4 CODECOPY DUP2 MLOAD SWAP2 MSTORE SWAP2 POP PUSH2 0xB15 JUMP JUMPDEST PUSH2 0xFFFF NOT AND PUSH2 0x101 OR PUSH1 0x0 SSTORE DUP6 PUSH2 0x766 JUMP JUMPDEST PUSH1 0x40 MLOAD PUSH3 0x461BCD PUSH1 0xE5 SHL DUP2 MSTORE PUSH1 0x20 PUSH1 0x4 DUP3 ADD MSTORE PUSH1 0x2E PUSH1 0x24 DUP3 ADD MSTORE PUSH32 0x496E697469616C697A61626C653A20636F6E747261637420697320616C726561 PUSH1 0x44 DUP3 ADD MSTORE PUSH14 0x191E481A5B9A5D1A585B1A5E9959 PUSH1 0x92 SHL PUSH1 0x64 DUP3 ADD MSTORE PUSH1 0x84 SWAP1 REVERT JUMPDEST POP ADDRESS EXTCODESIZE ISZERO DUP1 ISZERO PUSH2 0x750 JUMPI POP PUSH1 0x1 PUSH1 0xFF DUP3 AND EQ PUSH2 0x750 JUMP JUMPDEST POP PUSH1 0x1 PUSH1 0xFF DUP3 AND LT PUSH2 0x749 JUMP JUMPDEST CALLVALUE PUSH2 0x1B8 JUMPI PUSH1 0x0 CALLDATASIZE PUSH1 0x3 NOT ADD SLT PUSH2 0x1B8 JUMPI PUSH2 0xC2F PUSH32 0x65D7A28E3265B37A6474929F336521B332C1681B933F6CB9F3376673440D862A PUSH2 0x1723 JUMP JUMPDEST PUSH2 0x1C4 DUP1 SLOAD PUSH1 0xFF DUP2 AND PUSH2 0xC72 JUMPI PUSH1 0x1 SWAP1 PUSH1 0xFF NOT AND OR SWAP1 SSTORE PUSH32 0x62E78CEA01BEE320CD4E420270B5EA74000D11B0C9F74754EBDBFC544B05A258 PUSH1 0x20 PUSH1 0x40 MLOAD CALLER DUP2 MSTORE LOG1 STOP JUMPDEST PUSH1 0x40 MLOAD PUSH3 0x461BCD PUSH1 0xE5 SHL DUP2 MSTORE PUSH1 0x20 PUSH1 0x4 DUP3 ADD MSTORE PUSH1 0x10 PUSH1 0x24 DUP3 ADD MSTORE PUSH16 0x14185D5CD8589B194E881C185D5CD959 PUSH1 0x82 SHL PUSH1 0x44 DUP3 ADD MSTORE PUSH1 0x64 SWAP1 REVERT JUMPDEST CALLVALUE PUSH2 0x1B8 JUMPI PUSH1 0x20 DUP1 PUSH1 0x3 NOT CALLDATASIZE ADD SLT PUSH2 0x1B8 JUMPI PUSH1 0x4 CALLDATALOAD SWAP1 PUSH1 0x1 PUSH1 0x1 PUSH1 0xA0 SHL SUB DUP3 AND DUP3 SUB PUSH2 0x1B8 JUMPI PUSH1 0x0 DUP1 MSTORE PUSH1 0x65 DUP2 MSTORE PUSH1 0x1 SWAP2 PUSH2 0xCEB DUP4 PUSH1 0x40 PUSH1 0x0 KECCAK256 ADD SLOAD PUSH2 0x1723 JUMP JUMPDEST PUSH32 0x65D7A28E3265B37A6474929F336521B332C1681B933F6CB9F3376673440D862A DUP1 PUSH1 0x0 MSTORE PUSH1 0x97 DUP4 MSTORE DUP4 PUSH1 0x40 PUSH1 0x0 KECCAK256 SLOAD SUB PUSH2 0xE47 JUMPI DUP1 PUSH2 0xD2E DUP4 PUSH2 0xD35 SWAP4 PUSH2 0x1696 JUMP JUMPDEST CALLER SWAP1 PUSH2 0x1802 JUMP JUMPDEST PUSH1 0x0 DUP1 MSTORE PUSH1 0x65 DUP3 MSTORE PUSH2 0xD4D DUP4 PUSH1 0x40 PUSH1 0x0 KECCAK256 ADD SLOAD PUSH2 0x1723 JUMP JUMPDEST PUSH1 0x0 DUP1 MSTORE PUSH1 0x97 DUP3 MSTORE DUP3 PUSH1 0x40 PUSH1 0x0 KECCAK256 SLOAD SUB PUSH2 0xE2E JUMPI PUSH32 0x9F2DF0FED2C77648DE5860A4CC508CD0818C85B8B8A1AB4CEEEF8D981C8956A6 SWAP3 DUP4 PUSH1 0x0 MSTORE PUSH1 0x97 DUP4 MSTORE DUP1 PUSH1 0x40 PUSH1 0x0 KECCAK256 SLOAD SUB PUSH2 0xE15 JUMPI PUSH1 0x97 PUSH32 0x3C11D16CBAFFD01DF69CE1C404F6340EE057498F5F00246190EA54220576A848 SWAP4 DUP5 PUSH1 0x0 MSTORE MSTORE PUSH1 0x40 PUSH1 0x0 KECCAK256 SLOAD SUB PUSH2 0xDFC JUMPI PUSH2 0xDF1 SWAP3 PUSH2 0xD2E DUP3 PUSH2 0xDE1 PUSH2 0xD2E SWAP5 PUSH1 0x0 PUSH2 0x1696 JUMP JUMPDEST PUSH2 0xDEB DUP2 DUP5 PUSH2 0x1696 JUMP JUMPDEST DUP5 PUSH2 0x1696 JUMP JUMPDEST PUSH2 0x25F CALLER PUSH1 0x0 PUSH2 0x1802 JUMP JUMPDEST PUSH1 0x40 MLOAD PUSH4 0xE2B37CD PUSH1 0xE4 SHL DUP2 MSTORE PUSH1 0x4 DUP2 ADD DUP4 SWAP1 MSTORE PUSH1 0x24 SWAP1 REVERT JUMPDEST PUSH1 0x40 MLOAD PUSH4 0xE2B37CD PUSH1 0xE4 SHL DUP2 MSTORE PUSH1 0x4 DUP2 ADD DUP6 SWAP1 MSTORE PUSH1 0x24 SWAP1 REVERT JUMPDEST PUSH1 0x40 MLOAD PUSH4 0xE2B37CD PUSH1 0xE4 SHL DUP2 MSTORE PUSH1 0x0 PUSH1 0x4 DUP3 ADD MSTORE PUSH1 0x24 SWAP1 REVERT JUMPDEST PUSH1 0x24 SWAP1 PUSH1 0x40 MLOAD SWAP1 PUSH4 0xE2B37CD PUSH1 0xE4 SHL DUP3 MSTORE PUSH1 0x4 DUP3 ADD MSTORE REVERT JUMPDEST CALLVALUE PUSH2 0x1B8 JUMPI PUSH1 0x20 CALLDATASIZE PUSH1 0x3 NOT ADD SLT PUSH2 0x1B8 JUMPI PUSH1 0x4 CALLDATALOAD PUSH1 0x1 PUSH1 0x1 PUSH1 0xA0 SHL SUB DUP2 AND SWAP1 DUP2 SWAP1 SUB PUSH2 0x1B8 JUMPI PUSH1 0x0 MSTORE PUSH1 0xC9 PUSH1 0x20 MSTORE PUSH1 0x20 PUSH1 0x40 PUSH1 0x0 KECCAK256 SLOAD PUSH1 0x40 MLOAD SWAP1 DUP2 MSTORE RETURN JUMPDEST CALLVALUE PUSH2 0x1B8 JUMPI PUSH1 0x0 CALLDATASIZE PUSH1 0x3 NOT ADD SLT PUSH2 0x1B8 JUMPI PUSH1 0x20 PUSH1 0xFF PUSH2 0x1C4 SLOAD AND PUSH1 0x40 MLOAD SWAP1 ISZERO ISZERO DUP2 MSTORE RETURN JUMPDEST CALLVALUE PUSH2 0x1B8 JUMPI PUSH1 0x0 CALLDATASIZE PUSH1 0x3 NOT ADD SLT PUSH2 0x1B8 JUMPI PUSH32 0x0 PUSH1 0x1 PUSH1 0x1 PUSH1 0xA0 SHL SUB AND ADDRESS SUB PUSH2 0xF2C JUMPI PUSH1 0x20 PUSH1 0x40 MLOAD PUSH32 0x360894A13BA1A3210667C828492DB98DCA3E2076CC3735A920A3CA505D382BBC DUP2 MSTORE RETURN JUMPDEST PUSH1 0x40 MLOAD PUSH3 0x461BCD PUSH1 0xE5 SHL DUP2 MSTORE PUSH1 0x20 PUSH1 0x4 DUP3 ADD MSTORE PUSH1 0x38 PUSH1 0x24 DUP3 ADD MSTORE PUSH32 0x555550535570677261646561626C653A206D757374206E6F742062652063616C PUSH1 0x44 DUP3 ADD MSTORE PUSH32 0x6C6564207468726F7567682064656C656761746563616C6C0000000000000000 PUSH1 0x64 DUP3 ADD MSTORE PUSH1 0x84 SWAP1 REVERT JUMPDEST PUSH1 0x40 CALLDATASIZE PUSH1 0x3 NOT ADD SLT PUSH2 0x1B8 JUMPI PUSH1 0x4 CALLDATALOAD PUSH1 0x1 PUSH1 0x1 PUSH1 0xA0 SHL SUB DUP1 DUP3 AND DUP3 SUB PUSH2 0x1B8 JUMPI PUSH1 0x24 CALLDATALOAD SWAP1 PUSH8 0xFFFFFFFFFFFFFFFF DUP3 GT PUSH2 0x1B8 JUMPI CALLDATASIZE PUSH1 0x23 DUP4 ADD SLT ISZERO PUSH2 0x1B8 JUMPI PUSH2 0x25F SWAP3 PUSH2 0x104C PUSH2 0xFF2 PUSH1 0x1 SWAP5 CALLDATASIZE SWAP1 PUSH1 0x24 DUP2 PUSH1 0x4 ADD CALLDATALOAD SWAP2 ADD PUSH2 0x1641 JUMP JUMPDEST SWAP3 DUP1 PUSH32 0x0 AND SWAP1 PUSH2 0x1023 DUP3 ADDRESS EQ ISZERO PUSH2 0x1888 JUMP JUMPDEST PUSH32 0x360894A13BA1A3210667C828492DB98DCA3E2076CC3735A920A3CA505D382BBC SLOAD AND EQ PUSH2 0x18E9 JUMP JUMPDEST PUSH2 0x1054 PUSH2 0x22AC JUMP JUMPDEST PUSH2 0x194A JUMP JUMPDEST CALLVALUE PUSH2 0x1B8 JUMPI PUSH1 0x40 CALLDATASIZE PUSH1 0x3 NOT ADD SLT PUSH2 0x1B8 JUMPI PUSH1 0x4 CALLDATALOAD PUSH1 0x1 PUSH1 0x1 PUSH1 0xA0 SHL SUB DUP2 AND SWAP1 DUP2 SWAP1 SUB PUSH2 0x1B8 JUMPI PUSH1 0x24 CALLDATALOAD PUSH2 0x10AB PUSH32 0x9F2DF0FED2C77648DE5860A4CC508CD0818C85B8B8A1AB4CEEEF8D981C8956A6 PUSH2 0x1723 JUMP JUMPDEST DUP2 ISZERO PUSH2 0x1114 JUMPI PUSH1 0xFF PUSH2 0x1C4 SLOAD AND PUSH2 0x4A3 JUMPI PUSH32 0xDDF252AD1BE2C89B69C2B068FC378DAA952BA7F163C4A11628F55A4DF523B3EF PUSH1 0x20 DUP3 PUSH2 0x10EE PUSH1 0x0 SWAP5 PUSH1 0xCB SLOAD PUSH2 0x1C92 JUMP JUMPDEST PUSH1 0xCB SSTORE DUP5 DUP5 MSTORE PUSH1 0xC9 DUP3 MSTORE PUSH1 0x40 DUP5 KECCAK256 DUP2 DUP2 SLOAD ADD SWAP1 SSTORE PUSH1 0x40 MLOAD SWAP1 DUP2 MSTORE LOG3 PUSH1 0x20 PUSH1 0x40 MLOAD PUSH1 0x1 DUP2 MSTORE RETURN JUMPDEST PUSH1 0x40 MLOAD PUSH3 0x461BCD PUSH1 0xE5 SHL DUP2 MSTORE PUSH1 0x20 PUSH1 0x4 DUP3 ADD MSTORE PUSH1 0x1F PUSH1 0x24 DUP3 ADD MSTORE PUSH32 0x45524332303A206D696E7420746F20746865207A65726F206164647265737300 PUSH1 0x44 DUP3 ADD MSTORE PUSH1 0x64 SWAP1 REVERT JUMPDEST CALLVALUE PUSH2 0x1B8 JUMPI PUSH1 0x40 CALLDATASIZE PUSH1 0x3 NOT ADD SLT PUSH2 0x1B8 JUMPI PUSH1 0x4 CALLDATALOAD PUSH1 0x1 PUSH1 0x1 PUSH1 0xA0 SHL SUB DUP2 AND SWAP1 DUP2 DUP2 SUB PUSH2 0x1B8 JUMPI PUSH2 0x2BF SWAP2 CALLER PUSH1 0x0 MSTORE PUSH1 0xCA PUSH1 0x20 MSTORE PUSH1 0x40 PUSH1 0x0 KECCAK256 SWAP1 PUSH1 0x0 MSTORE PUSH1 0x20 MSTORE PUSH2 0x11A9 PUSH1 0x24 CALLDATALOAD PUSH1 0x40 PUSH1 0x0 KECCAK256 SLOAD PUSH2 0x1C92 JUMP JUMPDEST SWAP1 CALLER PUSH2 0x1E30 JUMP JUMPDEST CALLVALUE PUSH2 0x1B8 JUMPI PUSH1 0x20 CALLDATASIZE PUSH1 0x3 NOT ADD SLT PUSH2 0x1B8 JUMPI PUSH1 0x4 CALLDATALOAD PUSH1 0x1 PUSH1 0x1 PUSH1 0xA0 SHL SUB DUP1 DUP3 AND DUP3 SUB PUSH2 0x1B8 JUMPI PUSH2 0x25F SWAP2 PUSH2 0x120F DUP3 PUSH1 0x0 SWAP4 PUSH32 0x0 AND SWAP1 PUSH2 0x1023 DUP3 ADDRESS EQ ISZERO PUSH2 0x1888 JUMP JUMPDEST PUSH2 0x1217 PUSH2 0x22AC JUMP JUMPDEST PUSH2 0x1220 DUP3 PUSH2 0x1625 JUMP JUMPDEST SWAP1 PUSH2 0x122E PUSH1 0x40 MLOAD SWAP3 DUP4 PUSH2 0x1603 JUMP JUMPDEST DUP3 DUP3 MSTORE PUSH1 0x1F NOT PUSH2 0x123D DUP5 PUSH2 0x1625 JUMP JUMPDEST ADD CALLDATASIZE PUSH1 0x20 DUP5 ADD CALLDATACOPY PUSH2 0x194A JUMP JUMPDEST CALLVALUE PUSH2 0x1B8 JUMPI PUSH1 0x40 CALLDATASIZE PUSH1 0x3 NOT ADD SLT PUSH2 0x1B8 JUMPI PUSH1 0x24 CALLDATALOAD PUSH1 0x1 PUSH1 0x1 PUSH1 0xA0 SHL SUB DUP2 AND DUP1 DUP3 SUB PUSH2 0x1B8 JUMPI CALLER SUB PUSH2 0x1280 JUMPI PUSH2 0x25F SWAP1 PUSH1 0x4 CALLDATALOAD PUSH2 0x1802 JUMP JUMPDEST PUSH1 0x40 MLOAD PUSH3 0x461BCD PUSH1 0xE5 SHL DUP2 MSTORE PUSH1 0x20 PUSH1 0x4 DUP3 ADD MSTORE PUSH1 0x2F PUSH1 0x24 DUP3 ADD MSTORE PUSH32 0x416363657373436F6E74726F6C3A2063616E206F6E6C792072656E6F756E6365 PUSH1 0x44 DUP3 ADD MSTORE PUSH15 0x103937B632B9903337B91039B2B633 PUSH1 0x89 SHL PUSH1 0x64 DUP3 ADD MSTORE PUSH1 0x84 SWAP1 REVERT JUMPDEST CALLVALUE PUSH2 0x1B8 JUMPI PUSH1 0x0 CALLDATASIZE PUSH1 0x3 NOT ADD SLT PUSH2 0x1B8 JUMPI PUSH1 0x20 PUSH1 0x40 MLOAD PUSH1 0x12 DUP2 MSTORE RETURN JUMPDEST CALLVALUE PUSH2 0x1B8 JUMPI PUSH1 0x40 CALLDATASIZE PUSH1 0x3 NOT ADD SLT PUSH2 0x1B8 JUMPI PUSH1 0x4 CALLDATALOAD PUSH1 0x24 CALLDATALOAD PUSH1 0x1 PUSH1 0x1 PUSH1 0xA0 SHL SUB DUP2 AND DUP2 SUB PUSH2 0x1B8 JUMPI DUP2 PUSH2 0x25F SWAP3 PUSH1 0x0 MSTORE PUSH1 0x65 PUSH1 0x20 MSTORE PUSH2 0x133E PUSH1 0x1 PUSH1 0x40 PUSH1 0x0 KECCAK256 ADD SLOAD PUSH2 0x1723 JUMP JUMPDEST PUSH2 0x1696 JUMP JUMPDEST CALLVALUE PUSH2 0x1B8 JUMPI PUSH1 0x20 CALLDATASIZE PUSH1 0x3 NOT ADD SLT PUSH2 0x1B8 JUMPI PUSH1 0x4 CALLDATALOAD PUSH1 0x0 MSTORE PUSH1 0x65 PUSH1 0x20 MSTORE PUSH1 0x20 PUSH1 0x1 PUSH1 0x40 PUSH1 0x0 KECCAK256 ADD SLOAD PUSH1 0x40 MLOAD SWAP1 DUP2 MSTORE RETURN JUMPDEST CALLVALUE PUSH2 0x1B8 JUMPI PUSH1 0x60 CALLDATASIZE PUSH1 0x3 NOT ADD SLT PUSH2 0x1B8 JUMPI PUSH1 0x4 CALLDATALOAD PUSH1 0x1 PUSH1 0x1 PUSH1 0xA0 SHL SUB DUP1 DUP3 AND SWAP1 DUP2 DUP4 SUB PUSH2 0x1B8 JUMPI PUSH1 0x24 CALLDATALOAD SWAP1 DUP2 AND DUP2 SUB PUSH2 0x1B8 JUMPI PUSH1 0x44 CALLDATALOAD SWAP2 PUSH1 0x0 MSTORE PUSH1 0xCA PUSH1 0x20 MSTORE PUSH1 0x40 PUSH1 0x0 KECCAK256 CALLER PUSH1 0x0 MSTORE PUSH1 0x20 MSTORE PUSH1 0x40 PUSH1 0x0 KECCAK256 SLOAD SWAP3 PUSH1 0x0 NOT DUP5 SUB PUSH2 0x13D8 JUMPI JUMPDEST PUSH2 0x2BF SWAP4 POP PUSH2 0x1CB5 JUMP JUMPDEST DUP3 DUP5 LT PUSH2 0x13F4 JUMPI PUSH2 0x13EF DUP4 PUSH2 0x2BF SWAP6 SUB CALLER DUP4 PUSH2 0x1E30 JUMP JUMPDEST PUSH2 0x13CE JUMP JUMPDEST PUSH1 0x40 MLOAD PUSH3 0x461BCD PUSH1 0xE5 SHL DUP2 MSTORE PUSH1 0x20 PUSH1 0x4 DUP3 ADD MSTORE PUSH1 0x1D PUSH1 0x24 DUP3 ADD MSTORE PUSH32 0x45524332303A20696E73756666696369656E7420616C6C6F77616E6365000000 PUSH1 0x44 DUP3 ADD MSTORE PUSH1 0x64 SWAP1 REVERT JUMPDEST CALLVALUE PUSH2 0x1B8 JUMPI PUSH1 0x0 CALLDATASIZE PUSH1 0x3 NOT ADD SLT PUSH2 0x1B8 JUMPI PUSH1 0x20 PUSH1 0xCB SLOAD PUSH1 0x40 MLOAD SWAP1 DUP2 MSTORE RETURN JUMPDEST CALLVALUE PUSH2 0x1B8 JUMPI PUSH1 0x0 CALLDATASIZE PUSH1 0x3 NOT ADD SLT PUSH2 0x1B8 JUMPI PUSH2 0x191 SLOAD PUSH1 0x40 MLOAD PUSH1 0x1 PUSH1 0x1 PUSH1 0xA0 SHL SUB SWAP1 SWAP2 AND DUP2 MSTORE PUSH1 0x20 SWAP1 RETURN JUMPDEST CALLVALUE PUSH2 0x1B8 JUMPI PUSH1 0x40 CALLDATASIZE PUSH1 0x3 NOT ADD SLT PUSH2 0x1B8 JUMPI PUSH1 0x4 CALLDATALOAD PUSH1 0x1 PUSH1 0x1 PUSH1 0xA0 SHL SUB DUP2 AND DUP2 SUB PUSH2 0x1B8 JUMPI PUSH2 0x2BF SWAP1 PUSH1 0x24 CALLDATALOAD SWAP1 CALLER PUSH2 0x1E30 JUMP JUMPDEST CALLVALUE PUSH2 0x1B8 JUMPI PUSH1 0x0 CALLDATASIZE PUSH1 0x3 NOT ADD SLT PUSH2 0x1B8 JUMPI PUSH1 0x40 MLOAD PUSH1 0x0 PUSH1 0xCC SLOAD PUSH2 0x14D5 DUP2 PUSH2 0x1C58 JUMP JUMPDEST DUP1 DUP5 MSTORE SWAP1 PUSH1 0x1 SWAP1 DUP2 DUP2 AND SWAP1 DUP2 ISZERO PUSH2 0x601 JUMPI POP PUSH1 0x1 EQ PUSH2 0x14FE JUMPI PUSH2 0x5A2 DUP5 PUSH2 0x596 DUP2 DUP7 SUB DUP3 PUSH2 0x1603 JUMP JUMPDEST PUSH1 0xCC PUSH1 0x0 SWAP1 DUP2 MSTORE SWAP3 POP PUSH1 0x0 DUP1 MLOAD PUSH1 0x20 PUSH2 0x23AD DUP4 CODECOPY DUP2 MLOAD SWAP2 MSTORE JUMPDEST DUP3 DUP5 LT PUSH2 0x152F JUMPI POP POP POP DUP2 ADD PUSH1 0x20 ADD PUSH2 0x596 DUP3 PUSH2 0x586 JUMP JUMPDEST DUP1 SLOAD PUSH1 0x20 DUP6 DUP8 ADD DUP2 ADD SWAP2 SWAP1 SWAP2 MSTORE SWAP1 SWAP4 ADD SWAP3 DUP2 ADD PUSH2 0x1517 JUMP JUMPDEST CALLVALUE PUSH2 0x1B8 JUMPI PUSH1 0x20 CALLDATASIZE PUSH1 0x3 NOT ADD SLT PUSH2 0x1B8 JUMPI PUSH1 0x4 CALLDATALOAD SWAP1 PUSH4 0xFFFFFFFF PUSH1 0xE0 SHL DUP3 AND DUP1 SWAP3 SUB PUSH2 0x1B8 JUMPI PUSH1 0x20 SWAP2 PUSH4 0x5A05180F PUSH1 0xE0 SHL DUP2 EQ SWAP1 DUP2 ISZERO PUSH2 0x1589 JUMPI JUMPDEST POP ISZERO ISZERO DUP2 MSTORE RETURN JUMPDEST PUSH4 0x7965DB0B PUSH1 0xE0 SHL DUP2 EQ SWAP2 POP DUP2 ISZERO PUSH2 0x15A3 JUMPI JUMPDEST POP DUP4 PUSH2 0x1582 JUMP JUMPDEST PUSH4 0x1FFC9A7 PUSH1 0xE0 SHL EQ SWAP1 POP DUP4 PUSH2 0x159C JUMP JUMPDEST PUSH1 0x0 JUMPDEST DUP4 DUP2 LT PUSH2 0x15C7 JUMPI POP POP PUSH1 0x0 SWAP2 ADD MSTORE JUMP JUMPDEST DUP2 DUP2 ADD MLOAD DUP4 DUP3 ADD MSTORE PUSH1 0x20 ADD PUSH2 0x15B7 JUMP JUMPDEST PUSH1 0x40 SWAP2 PUSH1 0x20 DUP3 MSTORE PUSH2 0x15F7 DUP2 MLOAD DUP1 SWAP3 DUP2 PUSH1 0x20 DUP7 ADD MSTORE PUSH1 0x20 DUP7 DUP7 ADD SWAP2 ADD PUSH2 0x15B4 JUMP JUMPDEST PUSH1 0x1F ADD PUSH1 0x1F NOT AND ADD ADD SWAP1 JUMP JUMPDEST SWAP1 PUSH1 0x1F DUP1 NOT SWAP2 ADD AND DUP2 ADD SWAP1 DUP2 LT PUSH8 0xFFFFFFFFFFFFFFFF DUP3 GT OR PUSH2 0xA53 JUMPI PUSH1 0x40 MSTORE JUMP JUMPDEST PUSH8 0xFFFFFFFFFFFFFFFF DUP2 GT PUSH2 0xA53 JUMPI PUSH1 0x1F ADD PUSH1 0x1F NOT AND PUSH1 0x20 ADD SWAP1 JUMP JUMPDEST SWAP3 SWAP2 SWAP3 PUSH2 0x164D DUP3 PUSH2 0x1625 JUMP JUMPDEST SWAP2 PUSH2 0x165B PUSH1 0x40 MLOAD SWAP4 DUP5 PUSH2 0x1603 JUMP JUMPDEST DUP3 SWAP5 DUP2 DUP5 MSTORE DUP2 DUP4 ADD GT PUSH2 0x1B8 JUMPI DUP3 DUP2 PUSH1 0x20 SWAP4 DUP5 PUSH1 0x0 SWAP7 ADD CALLDATACOPY ADD ADD MSTORE JUMP JUMPDEST SWAP1 DUP1 PUSH1 0x1F DUP4 ADD SLT ISZERO PUSH2 0x1B8 JUMPI DUP2 PUSH1 0x20 PUSH2 0x1693 SWAP4 CALLDATALOAD SWAP2 ADD PUSH2 0x1641 JUMP JUMPDEST SWAP1 JUMP JUMPDEST SWAP1 PUSH1 0x40 PUSH2 0x16D5 SWAP3 PUSH1 0x0 SWAP1 DUP1 DUP3 MSTORE PUSH1 0x65 PUSH1 0x20 MSTORE DUP3 DUP3 KECCAK256 SWAP4 PUSH1 0x1 DUP1 PUSH1 0xA0 SHL SUB AND SWAP4 DUP5 DUP4 MSTORE PUSH1 0x20 MSTORE PUSH1 0xFF DUP4 DUP4 KECCAK256 SLOAD AND ISZERO PUSH2 0x16D8 JUMPI JUMPDEST DUP2 MSTORE PUSH1 0x97 PUSH1 0x20 MSTORE KECCAK256 PUSH2 0x2132 JUMP JUMPDEST POP JUMP JUMPDEST DUP1 DUP3 MSTORE PUSH1 0x65 PUSH1 0x20 MSTORE DUP3 DUP3 KECCAK256 DUP5 DUP4 MSTORE PUSH1 0x20 MSTORE DUP3 DUP3 KECCAK256 PUSH1 0x1 PUSH1 0xFF NOT DUP3 SLOAD AND OR SWAP1 SSTORE CALLER DUP5 DUP3 PUSH32 0x2F8788117E7EFF1D82E926EC794901D17C78024A50270940304540A733656F0D DUP6 DUP1 LOG4 PUSH2 0x16C8 JUMP JUMPDEST DUP1 PUSH1 0x0 MSTORE PUSH1 0x20 PUSH1 0x65 DUP2 MSTORE PUSH1 0x40 PUSH1 0x0 KECCAK256 CALLER PUSH1 0x0 MSTORE DUP2 MSTORE PUSH1 0xFF PUSH1 0x40 PUSH1 0x0 KECCAK256 SLOAD AND ISZERO PUSH2 0x174A JUMPI POP POP JUMP JUMPDEST PUSH2 0x17E6 PUSH1 0x48 PUSH2 0x17FE SWAP4 DUP4 PUSH2 0x176C PUSH2 0x17D7 SWAP6 PUSH2 0x1766 PUSH1 0x14 CALLER PUSH2 0x1FC3 JUMP JUMPDEST SWAP4 PUSH2 0x1FC3 JUMP JUMPDEST SWAP1 PUSH1 0x40 MLOAD SWAP6 DUP7 SWAP4 PUSH32 0x416363657373436F6E74726F6C3A206163636F756E7420000000000000000000 DUP4 DUP7 ADD MSTORE PUSH2 0x17AB DUP2 MLOAD DUP1 SWAP3 DUP6 PUSH1 0x37 DUP10 ADD SWAP2 ADD PUSH2 0x15B4 JUMP JUMPDEST DUP5 ADD SWAP2 PUSH17 0x1034B99036B4B9B9B4B733903937B6329 PUSH1 0x7D SHL PUSH1 0x37 DUP5 ADD MSTORE DUP4 MLOAD SWAP4 DUP5 SWAP2 DUP8 DUP6 ADD SWAP2 ADD PUSH2 0x15B4 JUMP JUMPDEST ADD SUB PUSH1 0x28 DUP2 ADD DUP5 MSTORE ADD DUP3 PUSH2 0x1603 JUMP JUMPDEST PUSH1 0x40 MLOAD PUSH3 0x461BCD PUSH1 0xE5 SHL DUP2 MSTORE SWAP2 DUP3 SWAP2 PUSH1 0x4 DUP4 ADD PUSH2 0x15D7 JUMP JUMPDEST SUB SWAP1 REVERT JUMPDEST SWAP1 PUSH1 0x40 PUSH2 0x16D5 SWAP3 PUSH1 0x0 SWAP1 DUP1 DUP3 MSTORE PUSH1 0x65 PUSH1 0x20 MSTORE DUP3 DUP3 KECCAK256 SWAP4 PUSH1 0x1 DUP1 PUSH1 0xA0 SHL SUB AND SWAP4 DUP5 DUP4 MSTORE PUSH1 0x20 MSTORE PUSH1 0xFF DUP4 DUP4 KECCAK256 SLOAD AND PUSH2 0x1840 JUMPI JUMPDEST DUP2 MSTORE PUSH1 0x97 PUSH1 0x20 MSTORE KECCAK256 PUSH2 0x21BC JUMP JUMPDEST DUP1 DUP3 MSTORE PUSH1 0x65 PUSH1 0x20 MSTORE DUP3 DUP3 KECCAK256 DUP5 DUP4 MSTORE PUSH1 0x20 MSTORE DUP3 DUP3 KECCAK256 PUSH1 0xFF NOT DUP2 SLOAD AND SWAP1 SSTORE CALLER DUP5 DUP3 PUSH32 0xF6391F5C32D9C69D2A47EA670B442974B53935D1EDC7FD64EB21E047A839171B DUP6 DUP1 LOG4 PUSH2 0x1833 JUMP JUMPDEST ISZERO PUSH2 0x188F JUMPI JUMP JUMPDEST PUSH1 0x40 MLOAD PUSH3 0x461BCD PUSH1 0xE5 SHL DUP2 MSTORE PUSH1 0x20 PUSH1 0x4 DUP3 ADD MSTORE PUSH1 0x2C PUSH1 0x24 DUP3 ADD MSTORE PUSH32 0x46756E6374696F6E206D7573742062652063616C6C6564207468726F75676820 PUSH1 0x44 DUP3 ADD MSTORE PUSH12 0x19195B1959D85D1958D85B1B PUSH1 0xA2 SHL PUSH1 0x64 DUP3 ADD MSTORE PUSH1 0x84 SWAP1 REVERT JUMPDEST ISZERO PUSH2 0x18F0 JUMPI JUMP JUMPDEST PUSH1 0x40 MLOAD PUSH3 0x461BCD PUSH1 0xE5 SHL DUP2 MSTORE PUSH1 0x20 PUSH1 0x4 DUP3 ADD MSTORE PUSH1 0x2C PUSH1 0x24 DUP3 ADD MSTORE PUSH32 0x46756E6374696F6E206D7573742062652063616C6C6564207468726F75676820 PUSH1 0x44 DUP3 ADD MSTORE PUSH12 0x6163746976652070726F7879 PUSH1 0xA0 SHL PUSH1 0x64 DUP3 ADD MSTORE PUSH1 0x84 SWAP1 REVERT JUMPDEST SWAP1 SWAP2 PUSH1 0xFF PUSH32 0x4910FDFA16FED3260ED0E7147F7CC6DA11A60208B5B9406D12A635614FFD9143 SLOAD AND PUSH1 0x0 EQ PUSH2 0x1985 JUMPI POP PUSH2 0x1983 SWAP2 POP PUSH2 0x1BB6 JUMP JUMPDEST JUMP JUMPDEST PUSH1 0x40 DUP1 MLOAD PUSH4 0x52D1902D PUSH1 0xE0 SHL DUP2 MSTORE PUSH1 0x20 SWAP5 SWAP2 SWAP4 SWAP3 SWAP1 PUSH1 0x1 PUSH1 0x1 PUSH1 0xA0 SHL SUB DUP5 AND SWAP1 DUP7 DUP2 PUSH1 0x4 DUP2 DUP6 GAS STATICCALL PUSH1 0x0 SWAP2 DUP2 PUSH2 0x1B84 JUMPI JUMPDEST POP PUSH2 0x1A16 JUMPI DUP6 MLOAD PUSH3 0x461BCD PUSH1 0xE5 SHL DUP2 MSTORE PUSH1 0x4 DUP2 ADD DUP9 SWAP1 MSTORE PUSH1 0x2E PUSH1 0x24 DUP3 ADD MSTORE PUSH32 0x45524331393637557067726164653A206E657720696D706C656D656E74617469 PUSH1 0x44 DUP3 ADD MSTORE PUSH14 0x6F6E206973206E6F742055555053 PUSH1 0x90 SHL PUSH1 0x64 DUP3 ADD MSTORE PUSH1 0x84 SWAP1 REVERT JUMPDEST SWAP4 SWAP6 SWAP3 SWAP5 SWAP3 SWAP4 PUSH32 0xC9F76B5EC45E5CDEF99837D7B6D2467235C1DF8933C8CA56DF5C35AFA2C7D444 ADD PUSH2 0x1B2E JUMPI PUSH2 0x1A4B DUP7 PUSH2 0x1BB6 JUMP JUMPDEST PUSH32 0xBC7CD75A20EE27FD9ADEBAB32041F755214DBC6BFFA90CC0225B39DA2E5C2D3B PUSH1 0x0 DUP1 LOG2 DUP4 MLOAD ISZERO SWAP1 DUP2 ISZERO SWAP2 PUSH2 0x1B26 JUMPI JUMPDEST POP PUSH2 0x1A88 JUMPI JUMPDEST POP POP POP POP JUMP JUMPDEST PUSH2 0x1B12 SWAP4 PUSH1 0x0 DUP1 PUSH2 0x1A99 PUSH1 0x27 PUSH2 0x1625 JUMP JUMPDEST SWAP6 PUSH2 0x1AA6 DUP6 MLOAD SWAP8 DUP9 PUSH2 0x1603 JUMP JUMPDEST PUSH1 0x27 DUP8 MSTORE PUSH32 0x416464726573733A206C6F772D6C6576656C2064656C65676174652063616C6C DUP7 DUP9 ADD MSTORE PUSH7 0x819985A5B1959 PUSH1 0xCA SHL DUP6 DUP9 ADD MSTORE DUP6 DUP2 MLOAD SWAP2 ADD DUP5 GAS DELEGATECALL SWAP2 RETURNDATASIZE ISZERO PUSH2 0x1B1C JUMPI RETURNDATASIZE PUSH2 0x1B03 PUSH2 0x1AFA DUP3 PUSH2 0x1625 JUMP JUMPDEST SWAP3 MLOAD SWAP3 DUP4 PUSH2 0x1603 JUMP JUMPDEST DUP2 MSTORE PUSH1 0x0 DUP2 SWAP5 RETURNDATASIZE SWAP3 ADD RETURNDATACOPY PUSH2 0x1F32 JUMP JUMPDEST POP CODESIZE DUP1 DUP1 DUP1 PUSH2 0x1A82 JUMP JUMPDEST POP PUSH1 0x60 SWAP3 POP PUSH2 0x1F32 JUMP JUMPDEST SWAP1 POP CODESIZE PUSH2 0x1A7C JUMP JUMPDEST DUP3 MLOAD PUSH3 0x461BCD PUSH1 0xE5 SHL DUP2 MSTORE PUSH1 0x4 DUP2 ADD DUP6 SWAP1 MSTORE PUSH1 0x29 PUSH1 0x24 DUP3 ADD MSTORE PUSH32 0x45524331393637557067726164653A20756E737570706F727465642070726F78 PUSH1 0x44 DUP3 ADD MSTORE PUSH9 0x1A58589B1955555251 PUSH1 0xBA SHL PUSH1 0x64 DUP3 ADD MSTORE PUSH1 0x84 SWAP1 REVERT JUMPDEST SWAP1 SWAP2 DUP9 DUP3 DUP2 RETURNDATASIZE DUP4 GT PUSH2 0x1BAF JUMPI JUMPDEST PUSH2 0x1B9B DUP2 DUP4 PUSH2 0x1603 JUMP JUMPDEST DUP2 ADD SUB SLT PUSH2 0x1BAC JUMPI POP MLOAD SWAP1 CODESIZE PUSH2 0x19B6 JUMP JUMPDEST DUP1 REVERT JUMPDEST POP RETURNDATASIZE PUSH2 0x1B91 JUMP JUMPDEST DUP1 EXTCODESIZE ISZERO PUSH2 0x1BFD JUMPI PUSH32 0x360894A13BA1A3210667C828492DB98DCA3E2076CC3735A920A3CA505D382BBC DUP1 SLOAD PUSH1 0x1 PUSH1 0x1 PUSH1 0xA0 SHL SUB NOT AND PUSH1 0x1 PUSH1 0x1 PUSH1 0xA0 SHL SUB SWAP1 SWAP3 AND SWAP2 SWAP1 SWAP2 OR SWAP1 SSTORE JUMP JUMPDEST PUSH1 0x40 MLOAD PUSH3 0x461BCD PUSH1 0xE5 SHL DUP2 MSTORE PUSH1 0x20 PUSH1 0x4 DUP3 ADD MSTORE PUSH1 0x2D PUSH1 0x24 DUP3 ADD MSTORE PUSH32 0x455243313936373A206E657720696D706C656D656E746174696F6E206973206E PUSH1 0x44 DUP3 ADD MSTORE PUSH13 0x1BDD08184818DBDB9D1C9858DD PUSH1 0x9A SHL PUSH1 0x64 DUP3 ADD MSTORE PUSH1 0x84 SWAP1 REVERT JUMPDEST SWAP1 PUSH1 0x1 DUP3 DUP2 SHR SWAP3 AND DUP1 ISZERO PUSH2 0x1C88 JUMPI JUMPDEST PUSH1 0x20 DUP4 LT EQ PUSH2 0x1C72 JUMPI JUMP JUMPDEST PUSH4 0x4E487B71 PUSH1 0xE0 SHL PUSH1 0x0 MSTORE PUSH1 0x22 PUSH1 0x4 MSTORE PUSH1 0x24 PUSH1 0x0 REVERT JUMPDEST SWAP2 PUSH1 0x7F AND SWAP2 PUSH2 0x1C67 JUMP JUMPDEST SWAP2 SWAP1 DUP3 ADD DUP1 SWAP3 GT PUSH2 0x1C9F JUMPI JUMP JUMPDEST PUSH4 0x4E487B71 PUSH1 0xE0 SHL PUSH1 0x0 MSTORE PUSH1 0x11 PUSH1 0x4 MSTORE PUSH1 0x24 PUSH1 0x0 REVERT JUMPDEST PUSH1 0x1 PUSH1 0x1 PUSH1 0xA0 SHL SUB SWAP1 DUP2 AND SWAP2 DUP3 ISZERO PUSH2 0x1DDD JUMPI AND SWAP2 DUP3 ISZERO PUSH2 0x1D8C JUMPI PUSH1 0xFF PUSH2 0x1C4 SLOAD AND PUSH2 0x4A3 JUMPI PUSH1 0x0 DUP3 DUP2 MSTORE PUSH1 0xC9 PUSH1 0x20 MSTORE PUSH1 0x40 DUP2 KECCAK256 SLOAD SWAP2 DUP1 DUP4 LT PUSH2 0x1D38 JUMPI PUSH1 0x40 DUP3 DUP3 PUSH32 0xDDF252AD1BE2C89B69C2B068FC378DAA952BA7F163C4A11628F55A4DF523B3EF SWAP6 DUP8 PUSH1 0x20 SWAP7 MSTORE PUSH1 0xC9 DUP7 MSTORE SUB DUP3 DUP3 KECCAK256 SSTORE DUP7 DUP2 MSTORE KECCAK256 DUP2 DUP2 SLOAD ADD SWAP1 SSTORE PUSH1 0x40 MLOAD SWAP1 DUP2 MSTORE LOG3 JUMP JUMPDEST PUSH1 0x40 MLOAD PUSH3 0x461BCD PUSH1 0xE5 SHL DUP2 MSTORE PUSH1 0x20 PUSH1 0x4 DUP3 ADD MSTORE PUSH1 0x26 PUSH1 0x24 DUP3 ADD MSTORE PUSH32 0x45524332303A207472616E7366657220616D6F756E7420657863656564732062 PUSH1 0x44 DUP3 ADD MSTORE PUSH6 0x616C616E6365 PUSH1 0xD0 SHL PUSH1 0x64 DUP3 ADD MSTORE PUSH1 0x84 SWAP1 REVERT JUMPDEST PUSH1 0x40 MLOAD PUSH3 0x461BCD PUSH1 0xE5 SHL DUP2 MSTORE PUSH1 0x20 PUSH1 0x4 DUP3 ADD MSTORE PUSH1 0x23 PUSH1 0x24 DUP3 ADD MSTORE PUSH32 0x45524332303A207472616E7366657220746F20746865207A65726F2061646472 PUSH1 0x44 DUP3 ADD MSTORE PUSH3 0x657373 PUSH1 0xE8 SHL PUSH1 0x64 DUP3 ADD MSTORE PUSH1 0x84 SWAP1 REVERT JUMPDEST PUSH1 0x40 MLOAD PUSH3 0x461BCD PUSH1 0xE5 SHL DUP2 MSTORE PUSH1 0x20 PUSH1 0x4 DUP3 ADD MSTORE PUSH1 0x25 PUSH1 0x24 DUP3 ADD MSTORE PUSH32 0x45524332303A207472616E736665722066726F6D20746865207A65726F206164 PUSH1 0x44 DUP3 ADD MSTORE PUSH5 0x6472657373 PUSH1 0xD8 SHL PUSH1 0x64 DUP3 ADD MSTORE PUSH1 0x84 SWAP1 REVERT JUMPDEST PUSH1 0x1 PUSH1 0x1 PUSH1 0xA0 SHL SUB SWAP1 DUP2 AND SWAP2 DUP3 ISZERO PUSH2 0x1EE1 JUMPI AND SWAP2 DUP3 ISZERO PUSH2 0x1E91 JUMPI PUSH1 0x20 PUSH32 0x8C5BE1E5EBEC7D5BD14F71427D1E84F3DD0314C0F7B2291E5B200AC8C7C3B925 SWAP2 DUP4 PUSH1 0x0 MSTORE PUSH1 0xCA DUP3 MSTORE PUSH1 0x40 PUSH1 0x0 KECCAK256 DUP6 PUSH1 0x0 MSTORE DUP3 MSTORE DUP1 PUSH1 0x40 PUSH1 0x0 KECCAK256 SSTORE PUSH1 0x40 MLOAD SWAP1 DUP2 MSTORE LOG3 JUMP JUMPDEST PUSH1 0x40 MLOAD PUSH3 0x461BCD PUSH1 0xE5 SHL DUP2 MSTORE PUSH1 0x20 PUSH1 0x4 DUP3 ADD MSTORE PUSH1 0x22 PUSH1 0x24 DUP3 ADD MSTORE PUSH32 0x45524332303A20617070726F766520746F20746865207A65726F206164647265 PUSH1 0x44 DUP3 ADD MSTORE PUSH2 0x7373 PUSH1 0xF0 SHL PUSH1 0x64 DUP3 ADD MSTORE PUSH1 0x84 SWAP1 REVERT JUMPDEST PUSH1 0x40 MLOAD PUSH3 0x461BCD PUSH1 0xE5 SHL DUP2 MSTORE PUSH1 0x20 PUSH1 0x4 DUP3 ADD MSTORE PUSH1 0x24 DUP1 DUP3 ADD MSTORE PUSH32 0x45524332303A20617070726F76652066726F6D20746865207A65726F20616464 PUSH1 0x44 DUP3 ADD MSTORE PUSH4 0x72657373 PUSH1 0xE0 SHL PUSH1 0x64 DUP3 ADD MSTORE PUSH1 0x84 SWAP1 REVERT JUMPDEST SWAP2 SWAP3 SWAP1 ISZERO PUSH2 0x1F94 JUMPI POP DUP2 MLOAD ISZERO PUSH2 0x1F46 JUMPI POP SWAP1 JUMP JUMPDEST EXTCODESIZE ISZERO PUSH2 0x1F4F JUMPI SWAP1 JUMP JUMPDEST PUSH1 0x40 MLOAD PUSH3 0x461BCD PUSH1 0xE5 SHL DUP2 MSTORE PUSH1 0x20 PUSH1 0x4 DUP3 ADD MSTORE PUSH1 0x1D PUSH1 0x24 DUP3 ADD MSTORE PUSH32 0x416464726573733A2063616C6C20746F206E6F6E2D636F6E7472616374000000 PUSH1 0x44 DUP3 ADD MSTORE PUSH1 0x64 SWAP1 REVERT JUMPDEST DUP3 MLOAD SWAP1 SWAP2 POP ISZERO PUSH2 0x1FA7 JUMPI POP DUP1 MLOAD SWAP1 PUSH1 0x20 ADD REVERT JUMPDEST PUSH1 0x40 MLOAD PUSH3 0x461BCD PUSH1 0xE5 SHL DUP2 MSTORE SWAP1 DUP2 SWAP1 PUSH2 0x17FE SWAP1 PUSH1 0x4 DUP4 ADD PUSH2 0x15D7 JUMP JUMPDEST PUSH1 0x1 SWAP2 DUP1 DUP4 SHL SWAP2 SWAP1 PUSH1 0x1 PUSH1 0x1 PUSH1 0xFF SHL SUB DUP2 AND SUB PUSH2 0x1C9F JUMPI PUSH1 0x2 DUP3 ADD SWAP3 DUP4 DUP4 GT PUSH2 0x1C9F JUMPI PUSH2 0x2008 PUSH2 0x1FF2 DUP6 PUSH2 0x1625 JUMP JUMPDEST SWAP5 PUSH2 0x2000 PUSH1 0x40 MLOAD SWAP7 DUP8 PUSH2 0x1603 JUMP JUMPDEST DUP1 DUP7 MSTORE PUSH2 0x1625 JUMP JUMPDEST PUSH1 0x20 SWAP4 SWAP1 DUP6 DUP6 ADD SWAP1 PUSH1 0x1F NOT ADD CALLDATASIZE DUP3 CALLDATACOPY DUP6 MLOAD ISZERO PUSH2 0x2104 JUMPI PUSH1 0x30 SWAP1 MSTORE8 DUP5 MLOAD DUP3 LT ISZERO PUSH2 0x2104 JUMPI PUSH1 0x78 PUSH1 0x21 DUP7 ADD MSTORE8 DUP2 DUP2 ADD DUP1 SWAP2 GT PUSH2 0x1C9F JUMPI SWAP1 JUMPDEST DUP1 DUP3 GT PUSH2 0x2092 JUMPI POP POP PUSH2 0x204F JUMPI POP SWAP1 JUMP JUMPDEST PUSH1 0x64 SWAP1 PUSH1 0x40 MLOAD SWAP1 PUSH3 0x461BCD PUSH1 0xE5 SHL DUP3 MSTORE DUP1 PUSH1 0x4 DUP4 ADD MSTORE PUSH1 0x24 DUP3 ADD MSTORE PUSH32 0x537472696E67733A20686578206C656E67746820696E73756666696369656E74 PUSH1 0x44 DUP3 ADD MSTORE REVERT JUMPDEST SWAP1 SWAP2 PUSH1 0xF DUP2 AND PUSH1 0x10 DUP2 LT ISZERO PUSH2 0x20EF JUMPI DUP6 MLOAD DUP5 LT ISZERO PUSH2 0x20EF JUMPI PUSH16 0x181899199A1A9B1B9C1CB0B131B232B3 PUSH1 0x81 SHL SWAP1 BYTE DUP6 DUP5 ADD DUP6 ADD MSTORE8 PUSH1 0x4 SHR SWAP2 DUP1 ISZERO PUSH2 0x20DA JUMPI PUSH1 0x0 NOT ADD SWAP1 PUSH2 0x203E JUMP JUMPDEST PUSH1 0x24 PUSH1 0x0 PUSH4 0x4E487B71 PUSH1 0xE0 SHL DUP2 MSTORE PUSH1 0x11 PUSH1 0x4 MSTORE REVERT JUMPDEST PUSH1 0x24 PUSH1 0x0 PUSH4 0x4E487B71 PUSH1 0xE0 SHL DUP2 MSTORE PUSH1 0x32 PUSH1 0x4 MSTORE REVERT JUMPDEST PUSH4 0x4E487B71 PUSH1 0xE0 SHL PUSH1 0x0 MSTORE PUSH1 0x32 PUSH1 0x4 MSTORE PUSH1 0x24 PUSH1 0x0 REVERT JUMPDEST DUP1 SLOAD DUP3 LT ISZERO PUSH2 0x2104 JUMPI PUSH1 0x0 MSTORE PUSH1 0x20 PUSH1 0x0 KECCAK256 ADD SWAP1 PUSH1 0x0 SWAP1 JUMP JUMPDEST SWAP2 SWAP1 PUSH1 0x1 DUP4 ADD PUSH1 0x0 SWAP1 DUP3 DUP3 MSTORE DUP1 PUSH1 0x20 MSTORE PUSH1 0x40 DUP3 KECCAK256 SLOAD ISZERO PUSH1 0x0 EQ PUSH2 0x21B6 JUMPI DUP5 SLOAD SWAP5 PUSH9 0x10000000000000000 DUP7 LT ISZERO PUSH2 0x21A2 JUMPI DUP4 PUSH2 0x2192 PUSH2 0x217B DUP9 PUSH1 0x1 PUSH1 0x40 SWAP9 SWAP10 SWAP11 ADD DUP6 SSTORE DUP5 PUSH2 0x211A JUMP JUMPDEST DUP2 SWAP4 SWAP2 SLOAD SWAP1 PUSH1 0x3 SHL SWAP2 DUP3 SHL SWAP2 PUSH1 0x0 NOT SWAP1 SHL NOT AND OR SWAP1 JUMP JUMPDEST SWAP1 SSTORE SLOAD SWAP4 DUP3 MSTORE PUSH1 0x20 MSTORE KECCAK256 SSTORE PUSH1 0x1 SWAP1 JUMP JUMPDEST PUSH4 0x4E487B71 PUSH1 0xE0 SHL DUP4 MSTORE PUSH1 0x41 PUSH1 0x4 MSTORE PUSH1 0x24 DUP4 REVERT JUMPDEST POP SWAP3 POP POP JUMP JUMPDEST SWAP1 PUSH1 0x1 DUP3 ADD SWAP1 PUSH1 0x0 SWAP3 DUP2 DUP5 MSTORE DUP3 PUSH1 0x20 MSTORE PUSH1 0x40 DUP5 KECCAK256 SLOAD SWAP1 DUP2 ISZERO ISZERO PUSH1 0x0 EQ PUSH2 0x22A5 JUMPI PUSH1 0x0 NOT SWAP2 DUP1 DUP4 ADD DUP2 DUP2 GT PUSH2 0x2291 JUMPI DUP3 SLOAD SWAP1 DUP5 DUP3 ADD SWAP2 DUP3 GT PUSH2 0x227D JUMPI DUP1 DUP3 SUB PUSH2 0x2248 JUMPI JUMPDEST POP POP POP DUP1 SLOAD DUP1 ISZERO PUSH2 0x2234 JUMPI DUP3 ADD SWAP2 PUSH2 0x2217 DUP4 DUP4 PUSH2 0x211A JUMP JUMPDEST SWAP1 SWAP2 DUP3 SLOAD SWAP2 PUSH1 0x3 SHL SHL NOT AND SWAP1 SSTORE SSTORE DUP3 MSTORE PUSH1 0x20 MSTORE PUSH1 0x40 DUP2 KECCAK256 SSTORE PUSH1 0x1 SWAP1 JUMP JUMPDEST PUSH4 0x4E487B71 PUSH1 0xE0 SHL DUP7 MSTORE PUSH1 0x31 PUSH1 0x4 MSTORE PUSH1 0x24 DUP7 REVERT JUMPDEST PUSH2 0x2268 PUSH2 0x2258 PUSH2 0x217B SWAP4 DUP7 PUSH2 0x211A JUMP JUMPDEST SWAP1 SLOAD SWAP1 PUSH1 0x3 SHL SHR SWAP3 DUP4 SWAP3 DUP7 PUSH2 0x211A JUMP JUMPDEST SWAP1 SSTORE DUP7 MSTORE DUP5 PUSH1 0x20 MSTORE PUSH1 0x40 DUP7 KECCAK256 SSTORE CODESIZE DUP1 DUP1 PUSH2 0x21FF JUMP JUMPDEST PUSH4 0x4E487B71 PUSH1 0xE0 SHL DUP9 MSTORE PUSH1 0x11 PUSH1 0x4 MSTORE PUSH1 0x24 DUP9 REVERT JUMPDEST PUSH4 0x4E487B71 PUSH1 0xE0 SHL DUP8 MSTORE PUSH1 0x11 PUSH1 0x4 MSTORE PUSH1 0x24 DUP8 REVERT JUMPDEST POP POP POP POP SWAP1 JUMP JUMPDEST PUSH2 0x191 SLOAD PUSH1 0x40 MLOAD PUSH4 0xD994D6D5 PUSH1 0xE0 SHL DUP2 MSTORE CALLER PUSH1 0x4 DUP3 ADD MSTORE SWAP1 PUSH1 0x20 SWAP1 DUP3 SWAP1 PUSH1 0x24 SWAP1 DUP3 SWAP1 PUSH1 0x1 PUSH1 0x1 PUSH1 0xA0 SHL SUB AND GAS STATICCALL SWAP1 DUP2 ISZERO PUSH2 0x2340 JUMPI PUSH1 0x0 SWAP2 PUSH2 0x2302 JUMPI JUMPDEST POP ISZERO PUSH2 0x22F0 JUMPI JUMP JUMPDEST PUSH1 0x40 MLOAD PUSH4 0x1DD1B1B5 PUSH1 0xE2 SHL DUP2 MSTORE PUSH1 0x4 SWAP1 REVERT JUMPDEST PUSH1 0x20 DUP2 RETURNDATASIZE DUP3 GT PUSH2 0x2338 JUMPI JUMPDEST DUP2 PUSH2 0x231A PUSH1 0x20 SWAP4 DUP4 PUSH2 0x1603 JUMP JUMPDEST DUP2 ADD SUB SLT PUSH2 0x2334 JUMPI MLOAD SWAP1 DUP2 ISZERO ISZERO DUP3 SUB PUSH2 0x1BAC JUMPI POP CODESIZE PUSH2 0x22E8 JUMP JUMPDEST POP DUP1 REVERT JUMPDEST RETURNDATASIZE SWAP2 POP PUSH2 0x230D JUMP JUMPDEST PUSH1 0x40 MLOAD RETURNDATASIZE PUSH1 0x0 DUP3 RETURNDATACOPY RETURNDATASIZE SWAP1 REVERT JUMPDEST ISZERO PUSH2 0x2353 JUMPI JUMP JUMPDEST PUSH1 0x40 MLOAD PUSH3 0x461BCD PUSH1 0xE5 SHL DUP2 MSTORE PUSH1 0x20 PUSH1 0x4 DUP3 ADD MSTORE PUSH1 0x2B PUSH1 0x24 DUP3 ADD MSTORE PUSH32 0x496E697469616C697A61626C653A20636F6E7472616374206973206E6F742069 PUSH1 0x44 DUP3 ADD MSTORE PUSH11 0x6E697469616C697A696E67 PUSH1 0xA8 SHL PUSH1 0x64 DUP3 ADD MSTORE PUSH1 0x84 SWAP1 REVERT INVALID SELFBALANCE NOT PUSH19 0x30E1E4B29FC0BD84D7D78966C0925452AFF72A 0x2A SLT ISZERO CODESIZE 0xB1 MUL GASLIMIT PUSH31 0x9EBEA2646970667358221220F28E7B19C2855601ACA0A71A2914510243D2BF CALLER 0x2C DUP7 TIMESTAMP PUSH14 0xC4487B6709F551A764736F6C6343 STOP ADDMOD EQ STOP CALLER PUSH1 0xA0 DUP1 PUSH1 0x40 MSTORE CALLVALUE PUSH2 0xDC JUMPI ADDRESS PUSH1 0x80 MSTORE PUSH1 0x0 SLOAD SWAP1 PUSH1 0xFF DUP3 PUSH1 0x8 SHR AND PUSH2 0x8A JUMPI POP PUSH1 0xFF DUP1 DUP3 AND SUB PUSH2 0x4F JUMPI JUMPDEST PUSH1 0x40 MLOAD PUSH2 0xFCD SWAP1 DUP2 PUSH2 0xE2 DUP3 CODECOPY PUSH1 0x80 MLOAD DUP2 DUP2 DUP2 PUSH2 0x544 ADD MSTORE DUP2 DUP2 PUSH2 0x6AC ADD MSTORE PUSH2 0x840 ADD MSTORE RETURN JUMPDEST PUSH1 0xFF SWAP1 DUP2 NOT AND OR PUSH1 0x0 SSTORE PUSH32 0x7F26B83FF96E1F2B6A682F133852F6798A09C465DA95921460CEFB3847402498 PUSH1 0x20 PUSH1 0x40 MLOAD PUSH1 0xFF DUP2 MSTORE LOG1 CODESIZE PUSH2 0x29 JUMP JUMPDEST PUSH3 0x461BCD PUSH1 0xE5 SHL DUP2 MSTORE PUSH1 0x20 PUSH1 0x4 DUP3 ADD MSTORE PUSH1 0x27 PUSH1 0x24 DUP3 ADD MSTORE PUSH32 0x496E697469616C697A61626C653A20636F6E747261637420697320696E697469 PUSH1 0x44 DUP3 ADD MSTORE PUSH7 0x616C697A696E67 PUSH1 0xC8 SHL PUSH1 0x64 DUP3 ADD MSTORE PUSH1 0x84 SWAP1 REVERT JUMPDEST PUSH1 0x0 DUP1 REVERT INVALID PUSH1 0x40 PUSH1 0x80 DUP2 MSTORE PUSH1 0x4 SWAP1 DUP2 CALLDATASIZE LT ISZERO PUSH2 0x15 JUMPI PUSH1 0x0 DUP1 REVERT JUMPDEST PUSH1 0x0 SWAP2 DUP3 CALLDATALOAD PUSH1 0xE0 SHR DUP1 PUSH4 0x5216F72 EQ PUSH2 0x924 JUMPI DUP1 PUSH4 0xC340A24 EQ PUSH2 0x8FB JUMPI DUP1 PUSH4 0x2D88AF4A EQ PUSH2 0x8A5 JUMPI DUP4 DUP2 PUSH4 0x3659CFE6 EQ PUSH2 0x80E JUMPI POP DUP1 PUSH4 0x3F4BA83A EQ PUSH2 0x713 JUMPI DUP4 DUP2 PUSH4 0x4F1EF286 EQ PUSH2 0x629 JUMPI POP DUP1 PUSH4 0x5210570C EQ PUSH2 0x603 JUMPI DUP1 PUSH4 0x52D1902D EQ PUSH2 0x52F JUMPI DUP1 PUSH4 0x5C975ABB EQ PUSH2 0x508 JUMPI DUP1 PUSH4 0x64A731E9 EQ PUSH2 0x4CE JUMPI DUP1 PUSH4 0x68274357 EQ PUSH2 0x4A2 JUMPI DUP1 PUSH4 0x8456CB59 EQ PUSH2 0x401 JUMPI DUP1 PUSH4 0x8B9789C9 EQ PUSH2 0x3E3 JUMPI DUP1 PUSH4 0x9FD0506D EQ PUSH2 0x3B6 JUMPI DUP1 PUSH4 0xBB4872DE EQ PUSH2 0x392 JUMPI DUP1 PUSH4 0xC0C53B8B EQ PUSH2 0x1CB JUMPI DUP1 PUSH4 0xD6C9858B EQ PUSH2 0x1A1 JUMPI DUP1 PUSH4 0xE4C0AAF4 EQ PUSH2 0x154 JUMPI PUSH4 0xE6FD7096 EQ PUSH2 0xF6 JUMPI PUSH1 0x0 DUP1 REVERT JUMPDEST CALLVALUE PUSH2 0x150 JUMPI DUP2 PUSH1 0x3 NOT CALLDATASIZE ADD SLT PUSH2 0x150 JUMPI DUP1 CALLDATALOAD SWAP2 PUSH1 0x1 PUSH1 0x1 PUSH1 0xA0 SHL SUB DUP1 DUP5 AND DUP5 SUB PUSH2 0x14C JUMPI PUSH2 0x12F SLOAD AND CALLER SUB PUSH2 0x135 JUMPI DUP4 PUSH2 0x132 PUSH1 0x24 CALLDATALOAD DUP6 PUSH2 0xF51 JUMP JUMPDEST DUP1 RETURN JUMPDEST PUSH1 0x24 SWAP3 POP MLOAD SWAP1 PUSH4 0x2976A2F PUSH1 0xE0 SHL DUP3 MSTORE CALLER SWAP1 DUP3 ADD MSTORE REVERT JUMPDEST DUP5 DUP1 REVERT JUMPDEST DUP3 DUP1 REVERT JUMPDEST DUP4 DUP3 CALLVALUE PUSH2 0x19D JUMPI PUSH1 0x20 CALLDATASIZE PUSH1 0x3 NOT ADD SLT PUSH2 0x19D JUMPI CALLDATALOAD PUSH1 0x1 PUSH1 0x1 PUSH1 0xA0 SHL SUB DUP2 AND SWAP1 DUP2 SWAP1 SUB PUSH2 0x19D JUMPI PUSH2 0x182 PUSH2 0xE72 JUMP JUMPDEST PUSH12 0xFFFFFFFFFFFFFFFFFFFFFFFF PUSH1 0xA0 SHL PUSH1 0x97 SLOAD AND OR PUSH1 0x97 SSTORE DUP1 RETURN JUMPDEST POP DUP1 REVERT JUMPDEST POP POP CALLVALUE PUSH2 0x19D JUMPI DUP2 PUSH1 0x3 NOT CALLDATASIZE ADD SLT PUSH2 0x19D JUMPI PUSH2 0x12F SLOAD SWAP1 MLOAD PUSH1 0x1 PUSH1 0x1 PUSH1 0xA0 SHL SUB SWAP1 SWAP2 AND DUP2 MSTORE PUSH1 0x20 SWAP1 RETURN JUMPDEST POP CALLVALUE PUSH2 0x150 JUMPI PUSH1 0x60 CALLDATASIZE PUSH1 0x3 NOT ADD SLT PUSH2 0x150 JUMPI DUP1 CALLDATALOAD PUSH1 0x1 PUSH1 0x1 PUSH1 0xA0 SHL SUB DUP2 DUP2 AND SWAP3 SWAP2 DUP4 SWAP1 SUB PUSH2 0x14C JUMPI PUSH1 0x24 CALLDATALOAD SWAP3 DUP2 DUP5 AND DUP1 SWAP5 SUB PUSH2 0x38E JUMPI PUSH1 0x44 CALLDATALOAD SWAP2 DUP3 AND DUP3 SUB PUSH2 0x38E JUMPI DUP6 SLOAD PUSH1 0xFF DUP2 PUSH1 0x8 SHR AND ISZERO SWAP4 DUP5 DUP1 SWAP6 PUSH2 0x381 JUMPI JUMPDEST DUP1 ISZERO PUSH2 0x36A JUMPI JUMPDEST ISZERO PUSH2 0x310 JUMPI POP PUSH1 0x1 SWAP3 SWAP2 PUSH2 0x29D SWAP2 DUP6 DUP6 PUSH1 0xFF NOT DUP4 AND OR DUP11 SSTORE PUSH2 0x2FF JUMPI JUMPDEST POP PUSH12 0xFFFFFFFFFFFFFFFFFFFFFFFF PUSH1 0xA0 SHL SWAP1 PUSH2 0x12F SWAP1 DUP3 DUP3 SLOAD AND OR SWAP1 SSTORE DUP8 SLOAD SWAP6 PUSH1 0xFF DUP8 PUSH1 0x8 SHR AND SWAP2 PUSH2 0x275 DUP4 PUSH2 0xEF1 JUMP JUMPDEST PUSH2 0x27E DUP4 PUSH2 0xEF1 JUMP JUMPDEST PUSH2 0x287 DUP4 PUSH2 0xEF1 JUMP JUMPDEST PUSH2 0x290 DUP4 PUSH2 0xEF1 JUMP JUMPDEST PUSH1 0x97 SLOAD AND OR PUSH1 0x97 SSTORE PUSH2 0xEF1 JUMP JUMPDEST PUSH1 0xCA SLOAD SWAP1 PUSH3 0x10000 DUP4 PUSH1 0xB0 SHL SUB SWAP1 PUSH1 0x10 SHL AND SWAP1 PUSH2 0xFF01 DUP4 PUSH1 0xB0 SHL SUB NOT AND OR OR PUSH1 0xCA SSTORE PUSH2 0x2C7 JUMPI DUP3 DUP1 RETURN JUMPDEST PUSH2 0xFF00 NOT AND DUP3 SSTORE MLOAD PUSH1 0x1 DUP2 MSTORE PUSH32 0x7F26B83FF96E1F2B6A682F133852F6798A09C465DA95921460CEFB3847402498 SWAP1 PUSH1 0x20 SWAP1 LOG1 CODESIZE DUP1 DUP3 DUP1 RETURN JUMPDEST PUSH2 0xFFFF NOT AND PUSH2 0x101 OR DUP9 SSTORE CODESIZE PUSH2 0x244 JUMP JUMPDEST PUSH1 0x84 SWAP1 PUSH1 0x20 DUP9 MLOAD SWAP2 PUSH3 0x461BCD PUSH1 0xE5 SHL DUP4 MSTORE DUP3 ADD MSTORE PUSH1 0x2E PUSH1 0x24 DUP3 ADD MSTORE PUSH32 0x496E697469616C697A61626C653A20636F6E747261637420697320616C726561 PUSH1 0x44 DUP3 ADD MSTORE PUSH14 0x191E481A5B9A5D1A585B1A5E9959 PUSH1 0x92 SHL PUSH1 0x64 DUP3 ADD MSTORE REVERT JUMPDEST POP ADDRESS EXTCODESIZE ISZERO DUP1 ISZERO PUSH2 0x227 JUMPI POP PUSH1 0x1 PUSH1 0xFF DUP4 AND EQ PUSH2 0x227 JUMP JUMPDEST POP PUSH1 0x1 PUSH1 0xFF DUP4 AND LT PUSH2 0x220 JUMP JUMPDEST DUP6 DUP1 REVERT JUMPDEST POP POP CALLVALUE PUSH2 0x19D JUMPI DUP2 PUSH1 0x3 NOT CALLDATASIZE ADD SLT PUSH2 0x19D JUMPI PUSH1 0x20 SWAP1 PUSH1 0xFF PUSH1 0xCA SLOAD AND SWAP1 MLOAD SWAP1 ISZERO ISZERO DUP2 MSTORE RETURN JUMPDEST POP POP CALLVALUE PUSH2 0x19D JUMPI DUP2 PUSH1 0x3 NOT CALLDATASIZE ADD SLT PUSH2 0x19D JUMPI PUSH1 0xCA SLOAD SWAP1 MLOAD PUSH1 0x10 SWAP2 SWAP1 SWAP2 SHR PUSH1 0x1 PUSH1 0x1 PUSH1 0xA0 SHL SUB AND DUP2 MSTORE PUSH1 0x20 SWAP1 RETURN JUMPDEST DUP4 DUP3 CALLVALUE PUSH2 0x19D JUMPI PUSH1 0x20 CALLDATASIZE PUSH1 0x3 NOT ADD SLT PUSH2 0x19D JUMPI PUSH2 0x132 SWAP1 CALLDATALOAD CALLER PUSH2 0xF51 JUMP JUMPDEST POP CALLVALUE PUSH2 0x150 JUMPI DUP3 PUSH1 0x3 NOT CALLDATASIZE ADD SLT PUSH2 0x150 JUMPI PUSH1 0xCA SLOAD SWAP1 PUSH1 0xFF DUP3 PUSH1 0x8 SHR AND PUSH2 0x494 JUMPI PUSH1 0x10 DUP3 SWAP1 SHR PUSH1 0x1 PUSH1 0x1 PUSH1 0xA0 SHL SUB AND CALLER SUB PUSH2 0x486 JUMPI PUSH1 0xFF DUP3 AND ISZERO PUSH2 0x478 JUMPI POP PUSH2 0xFF00 NOT AND PUSH2 0x100 OR PUSH1 0xCA SSTORE MLOAD CALLER DUP2 MSTORE PUSH32 0x62E78CEA01BEE320CD4E420270B5EA74000D11B0C9F74754EBDBFC544B05A258 SWAP1 PUSH1 0x20 SWAP1 LOG1 DUP1 RETURN JUMPDEST DUP3 MLOAD PUSH4 0x866099C3 PUSH1 0xE0 SHL DUP2 MSTORE REVERT JUMPDEST DUP3 MLOAD PUSH4 0x1D77D477 PUSH1 0xE2 SHL DUP2 MSTORE REVERT JUMPDEST DUP3 MLOAD PUSH4 0x783BB6C9 PUSH1 0xE1 SHL DUP2 MSTORE REVERT JUMPDEST DUP4 CALLVALUE PUSH2 0x4CB JUMPI DUP1 PUSH1 0x3 NOT CALLDATASIZE ADD SLT PUSH2 0x4CB JUMPI PUSH2 0x4BB PUSH2 0xE72 JUMP JUMPDEST PUSH1 0x1 PUSH1 0xFF NOT PUSH1 0xCA SLOAD AND OR PUSH1 0xCA SSTORE DUP1 RETURN JUMPDEST DUP1 REVERT JUMPDEST POP CALLVALUE PUSH2 0x150 JUMPI PUSH1 0x20 CALLDATASIZE PUSH1 0x3 NOT ADD SLT PUSH2 0x150 JUMPI CALLDATALOAD PUSH1 0x1 PUSH1 0x1 PUSH1 0xA0 SHL SUB DUP2 AND SWAP1 DUP2 SWAP1 SUB PUSH2 0x150 JUMPI DUP3 DUP3 SWAP2 PUSH1 0x20 SWAP5 MSTORE PUSH2 0x130 DUP5 MSTORE KECCAK256 SLOAD SWAP1 MLOAD SWAP1 DUP2 MSTORE RETURN JUMPDEST POP POP CALLVALUE PUSH2 0x19D JUMPI DUP2 PUSH1 0x3 NOT CALLDATASIZE ADD SLT PUSH2 0x19D JUMPI PUSH1 0x20 SWAP1 PUSH1 0xFF PUSH1 0xCA SLOAD PUSH1 0x8 SHR AND SWAP1 MLOAD SWAP1 ISZERO ISZERO DUP2 MSTORE RETURN JUMPDEST POP DUP3 CALLVALUE PUSH2 0x4CB JUMPI DUP1 PUSH1 0x3 NOT CALLDATASIZE ADD SLT PUSH2 0x4CB JUMPI POP PUSH32 0x0 PUSH1 0x1 PUSH1 0x1 PUSH1 0xA0 SHL SUB AND ADDRESS SUB PUSH2 0x59B JUMPI PUSH1 0x20 DUP3 MLOAD PUSH32 0x360894A13BA1A3210667C828492DB98DCA3E2076CC3735A920A3CA505D382BBC DUP2 MSTORE RETURN JUMPDEST PUSH1 0x20 PUSH1 0x84 SWAP3 MLOAD SWAP2 PUSH3 0x461BCD PUSH1 0xE5 SHL DUP4 MSTORE DUP3 ADD MSTORE PUSH1 0x38 PUSH1 0x24 DUP3 ADD MSTORE PUSH32 0x555550535570677261646561626C653A206D757374206E6F742062652063616C PUSH1 0x44 DUP3 ADD MSTORE PUSH32 0x6C6564207468726F7567682064656C656761746563616C6C0000000000000000 PUSH1 0x64 DUP3 ADD MSTORE REVERT JUMPDEST DUP4 CALLVALUE PUSH2 0x4CB JUMPI DUP1 PUSH1 0x3 NOT CALLDATASIZE ADD SLT PUSH2 0x4CB JUMPI PUSH2 0x61C PUSH2 0xE72 JUMP JUMPDEST PUSH1 0xFF NOT PUSH1 0xCA SLOAD AND PUSH1 0xCA SSTORE DUP1 RETURN JUMPDEST SWAP3 DUP1 SWAP2 POP PUSH1 0x3 NOT CALLDATASIZE ADD SLT PUSH2 0x70F JUMPI DUP2 CALLDATALOAD PUSH1 0x1 PUSH1 0x1 PUSH1 0xA0 SHL SUB DUP1 DUP3 AND DUP3 SUB PUSH2 0x14C JUMPI PUSH1 0x24 CALLDATALOAD SWAP4 PUSH8 0xFFFFFFFFFFFFFFFF DUP6 GT PUSH2 0x38E JUMPI CALLDATASIZE PUSH1 0x23 DUP7 ADD SLT ISZERO PUSH2 0x38E JUMPI DUP5 ADD CALLDATALOAD SWAP1 PUSH2 0x681 PUSH2 0x678 DUP4 PUSH2 0x9A1 JUMP JUMPDEST SWAP5 MLOAD SWAP5 DUP6 PUSH2 0x969 JUMP JUMPDEST DUP2 DUP5 MSTORE CALLDATASIZE PUSH1 0x24 DUP4 DUP8 ADD ADD GT PUSH2 0x38E JUMPI PUSH2 0x132 SWAP6 PUSH1 0x20 DUP4 PUSH2 0x702 SWAP5 PUSH1 0x24 PUSH1 0x1 SWAP10 ADD DUP4 DUP10 ADD CALLDATACOPY DUP7 ADD ADD MSTORE DUP1 PUSH32 0x0 AND SWAP1 PUSH2 0x6D9 DUP3 ADDRESS EQ ISZERO PUSH2 0x9BD JUMP JUMPDEST PUSH32 0x360894A13BA1A3210667C828492DB98DCA3E2076CC3735A920A3CA505D382BBC SLOAD AND EQ PUSH2 0xA1E JUMP JUMPDEST PUSH2 0x70A PUSH2 0xE72 JUMP JUMPDEST PUSH2 0xA7F JUMP JUMPDEST POP POP REVERT JUMPDEST POP CALLVALUE PUSH2 0x150 JUMPI DUP3 PUSH1 0x3 NOT CALLDATASIZE ADD SLT PUSH2 0x150 JUMPI PUSH1 0xCA SLOAD SWAP1 PUSH1 0xFF DUP3 PUSH1 0x8 SHR AND ISZERO PUSH2 0x800 JUMPI PUSH1 0x1 DUP1 PUSH1 0xA0 SHL SUB DUP1 DUP4 PUSH1 0x10 SHR AND CALLER EQ ISZERO SWAP1 DUP2 PUSH2 0x78F JUMPI JUMPDEST POP PUSH2 0x486 JUMPI PUSH1 0xFF DUP3 AND ISZERO PUSH2 0x478 JUMPI POP PUSH2 0xFF00 NOT AND PUSH1 0xCA SSTORE MLOAD CALLER DUP2 MSTORE PUSH32 0x5DB9EE0A495BF2E6FF9C91A7834C1BA4FDD244A5E8AA4E537BD38AEAE4B073AA SWAP1 PUSH1 0x20 SWAP1 LOG1 DUP1 RETURN JUMPDEST PUSH1 0x97 SLOAD DUP6 MLOAD PUSH4 0xD994D6D5 PUSH1 0xE0 SHL DUP2 MSTORE CALLER DUP6 DUP3 ADD MSTORE SWAP3 POP PUSH1 0x20 SWAP2 DUP4 SWAP2 PUSH1 0x24 SWAP2 DUP4 SWAP2 AND GAS STATICCALL SWAP1 DUP2 ISZERO PUSH2 0x7F6 JUMPI DUP6 SWAP2 PUSH2 0x7C8 JUMPI JUMPDEST POP ISZERO CODESIZE PUSH2 0x74B JUMP JUMPDEST PUSH2 0x7E9 SWAP2 POP PUSH1 0x20 RETURNDATASIZE DUP2 GT PUSH2 0x7EF JUMPI JUMPDEST PUSH2 0x7E1 DUP2 DUP4 PUSH2 0x969 JUMP JUMPDEST DUP2 ADD SWAP1 PUSH2 0xE55 JUMP JUMPDEST CODESIZE PUSH2 0x7C0 JUMP JUMPDEST POP RETURNDATASIZE PUSH2 0x7D7 JUMP JUMPDEST DUP5 MLOAD RETURNDATASIZE DUP8 DUP3 RETURNDATACOPY RETURNDATASIZE SWAP1 REVERT JUMPDEST DUP3 MLOAD PUSH4 0x7C7FD079 PUSH1 0xE0 SHL DUP2 MSTORE REVERT JUMPDEST SWAP2 SWAP1 POP CALLVALUE PUSH2 0x19D JUMPI PUSH1 0x20 CALLDATASIZE PUSH1 0x3 NOT ADD SLT PUSH2 0x19D JUMPI PUSH1 0x1 PUSH1 0x1 PUSH1 0xA0 SHL SUB SWAP3 SWAP1 CALLDATALOAD DUP4 DUP2 AND DUP2 SUB PUSH2 0x150 JUMPI PUSH2 0x86D DUP5 PUSH2 0x132 SWAP6 PUSH32 0x0 AND SWAP1 PUSH2 0x6D9 DUP3 ADDRESS EQ ISZERO PUSH2 0x9BD JUMP JUMPDEST PUSH2 0x875 PUSH2 0xE72 JUMP JUMPDEST PUSH2 0x88A PUSH2 0x881 DUP5 PUSH2 0x9A1 JUMP JUMPDEST SWAP3 MLOAD SWAP3 DUP4 PUSH2 0x969 JUMP JUMPDEST DUP3 DUP3 MSTORE PUSH1 0x1F NOT PUSH2 0x899 DUP5 PUSH2 0x9A1 JUMP JUMPDEST ADD CALLDATASIZE PUSH1 0x20 DUP5 ADD CALLDATACOPY PUSH2 0xA7F JUMP JUMPDEST DUP4 DUP3 CALLVALUE PUSH2 0x19D JUMPI PUSH1 0x20 CALLDATASIZE PUSH1 0x3 NOT ADD SLT PUSH2 0x19D JUMPI CALLDATALOAD PUSH1 0x1 PUSH1 0x1 PUSH1 0xA0 SHL SUB DUP2 AND DUP2 SUB PUSH2 0x19D JUMPI PUSH2 0x8D1 PUSH2 0xE72 JUMP JUMPDEST PUSH1 0xCA DUP1 SLOAD PUSH3 0x10000 PUSH1 0x1 PUSH1 0xB0 SHL SUB NOT AND PUSH1 0x10 SWAP3 SWAP1 SWAP3 SHL PUSH3 0x10000 PUSH1 0x1 PUSH1 0xB0 SHL SUB AND SWAP2 SWAP1 SWAP2 OR SWAP1 SSTORE DUP1 RETURN JUMPDEST POP POP CALLVALUE PUSH2 0x19D JUMPI DUP2 PUSH1 0x3 NOT CALLDATASIZE ADD SLT PUSH2 0x19D JUMPI PUSH1 0x97 SLOAD SWAP1 MLOAD PUSH1 0x1 PUSH1 0x1 PUSH1 0xA0 SHL SUB SWAP1 SWAP2 AND DUP2 MSTORE PUSH1 0x20 SWAP1 RETURN JUMPDEST DUP4 DUP3 CALLVALUE PUSH2 0x19D JUMPI PUSH1 0x20 CALLDATASIZE PUSH1 0x3 NOT ADD SLT PUSH2 0x19D JUMPI CALLDATALOAD PUSH1 0x1 PUSH1 0x1 PUSH1 0xA0 SHL SUB DUP2 AND SWAP1 DUP2 SWAP1 SUB PUSH2 0x19D JUMPI PUSH2 0x952 PUSH2 0xE72 JUMP JUMPDEST PUSH2 0x12F DUP1 SLOAD PUSH1 0x1 PUSH1 0x1 PUSH1 0xA0 SHL SUB NOT AND SWAP1 SWAP2 OR SWAP1 SSTORE DUP1 RETURN JUMPDEST SWAP1 PUSH1 0x1F DUP1 NOT SWAP2 ADD AND DUP2 ADD SWAP1 DUP2 LT PUSH8 0xFFFFFFFFFFFFFFFF DUP3 GT OR PUSH2 0x98B JUMPI PUSH1 0x40 MSTORE JUMP JUMPDEST PUSH4 0x4E487B71 PUSH1 0xE0 SHL PUSH1 0x0 MSTORE PUSH1 0x41 PUSH1 0x4 MSTORE PUSH1 0x24 PUSH1 0x0 REVERT JUMPDEST PUSH8 0xFFFFFFFFFFFFFFFF DUP2 GT PUSH2 0x98B JUMPI PUSH1 0x1F ADD PUSH1 0x1F NOT AND PUSH1 0x20 ADD SWAP1 JUMP JUMPDEST ISZERO PUSH2 0x9C4 JUMPI JUMP JUMPDEST PUSH1 0x40 MLOAD PUSH3 0x461BCD PUSH1 0xE5 SHL DUP2 MSTORE PUSH1 0x20 PUSH1 0x4 DUP3 ADD MSTORE PUSH1 0x2C PUSH1 0x24 DUP3 ADD MSTORE PUSH32 0x46756E6374696F6E206D7573742062652063616C6C6564207468726F75676820 PUSH1 0x44 DUP3 ADD MSTORE PUSH12 0x19195B1959D85D1958D85B1B PUSH1 0xA2 SHL PUSH1 0x64 DUP3 ADD MSTORE PUSH1 0x84 SWAP1 REVERT JUMPDEST ISZERO PUSH2 0xA25 JUMPI JUMP JUMPDEST PUSH1 0x40 MLOAD PUSH3 0x461BCD PUSH1 0xE5 SHL DUP2 MSTORE PUSH1 0x20 PUSH1 0x4 DUP3 ADD MSTORE PUSH1 0x2C PUSH1 0x24 DUP3 ADD MSTORE PUSH32 0x46756E6374696F6E206D7573742062652063616C6C6564207468726F75676820 PUSH1 0x44 DUP3 ADD MSTORE PUSH12 0x6163746976652070726F7879 PUSH1 0xA0 SHL PUSH1 0x64 DUP3 ADD MSTORE PUSH1 0x84 SWAP1 REVERT JUMPDEST SWAP1 SWAP2 PUSH1 0xFF PUSH32 0x4910FDFA16FED3260ED0E7147F7CC6DA11A60208B5B9406D12A635614FFD9143 SLOAD AND PUSH1 0x0 EQ PUSH2 0xABA JUMPI POP PUSH2 0xAB8 SWAP2 POP PUSH2 0xCDF JUMP JUMPDEST JUMP JUMPDEST PUSH1 0x40 DUP1 MLOAD PUSH4 0x52D1902D PUSH1 0xE0 SHL DUP2 MSTORE PUSH1 0x20 SWAP5 SWAP2 SWAP4 SWAP3 SWAP1 PUSH1 0x1 PUSH1 0x1 PUSH1 0xA0 SHL SUB DUP5 AND SWAP1 DUP7 DUP2 PUSH1 0x4 DUP2 DUP6 GAS STATICCALL PUSH1 0x0 SWAP2 DUP2 PUSH2 0xCB0 JUMPI JUMPDEST POP PUSH2 0xB4B JUMPI DUP6 MLOAD PUSH3 0x461BCD PUSH1 0xE5 SHL DUP2 MSTORE PUSH1 0x4 DUP2 ADD DUP9 SWAP1 MSTORE PUSH1 0x2E PUSH1 0x24 DUP3 ADD MSTORE PUSH32 0x45524331393637557067726164653A206E657720696D706C656D656E74617469 PUSH1 0x44 DUP3 ADD MSTORE PUSH14 0x6F6E206973206E6F742055555053 PUSH1 0x90 SHL PUSH1 0x64 DUP3 ADD MSTORE PUSH1 0x84 SWAP1 REVERT JUMPDEST SWAP4 SWAP6 SWAP3 SWAP5 SWAP3 SWAP4 PUSH32 0xC9F76B5EC45E5CDEF99837D7B6D2467235C1DF8933C8CA56DF5C35AFA2C7D444 ADD PUSH2 0xC5A JUMPI PUSH2 0xB80 DUP7 PUSH2 0xCDF JUMP JUMPDEST PUSH32 0xBC7CD75A20EE27FD9ADEBAB32041F755214DBC6BFFA90CC0225B39DA2E5C2D3B PUSH1 0x0 DUP1 LOG2 DUP4 MLOAD ISZERO SWAP1 DUP2 ISZERO SWAP2 PUSH2 0xC52 JUMPI JUMPDEST POP PUSH2 0xBBD JUMPI JUMPDEST POP POP POP POP JUMP JUMPDEST PUSH2 0xC3E SWAP4 PUSH1 0x0 DUP1 PUSH2 0xBCE PUSH1 0x27 PUSH2 0x9A1 JUMP JUMPDEST SWAP6 PUSH2 0xBDB DUP6 MLOAD SWAP8 DUP9 PUSH2 0x969 JUMP JUMPDEST PUSH1 0x27 DUP8 MSTORE PUSH32 0x416464726573733A206C6F772D6C6576656C2064656C65676174652063616C6C DUP7 DUP9 ADD MSTORE PUSH7 0x819985A5B1959 PUSH1 0xCA SHL DUP6 DUP9 ADD MSTORE DUP6 DUP2 MLOAD SWAP2 ADD DUP5 GAS DELEGATECALL SWAP2 RETURNDATASIZE ISZERO PUSH2 0xC48 JUMPI RETURNDATASIZE PUSH2 0xC2F PUSH2 0x881 DUP3 PUSH2 0x9A1 JUMP JUMPDEST DUP2 MSTORE PUSH1 0x0 DUP2 SWAP5 RETURNDATASIZE SWAP3 ADD RETURNDATACOPY PUSH2 0xD81 JUMP JUMPDEST POP CODESIZE DUP1 DUP1 DUP1 PUSH2 0xBB7 JUMP JUMPDEST POP PUSH1 0x60 SWAP3 POP PUSH2 0xD81 JUMP JUMPDEST SWAP1 POP CODESIZE PUSH2 0xBB1 JUMP JUMPDEST DUP3 MLOAD PUSH3 0x461BCD PUSH1 0xE5 SHL DUP2 MSTORE PUSH1 0x4 DUP2 ADD DUP6 SWAP1 MSTORE PUSH1 0x29 PUSH1 0x24 DUP3 ADD MSTORE PUSH32 0x45524331393637557067726164653A20756E737570706F727465642070726F78 PUSH1 0x44 DUP3 ADD MSTORE PUSH9 0x1A58589B1955555251 PUSH1 0xBA SHL PUSH1 0x64 DUP3 ADD MSTORE PUSH1 0x84 SWAP1 REVERT JUMPDEST SWAP1 SWAP2 DUP9 DUP3 DUP2 RETURNDATASIZE DUP4 GT PUSH2 0xCD8 JUMPI JUMPDEST PUSH2 0xCC7 DUP2 DUP4 PUSH2 0x969 JUMP JUMPDEST DUP2 ADD SUB SLT PUSH2 0x4CB JUMPI POP MLOAD SWAP1 CODESIZE PUSH2 0xAEB JUMP JUMPDEST POP RETURNDATASIZE PUSH2 0xCBD JUMP JUMPDEST DUP1 EXTCODESIZE ISZERO PUSH2 0xD26 JUMPI PUSH32 0x360894A13BA1A3210667C828492DB98DCA3E2076CC3735A920A3CA505D382BBC DUP1 SLOAD PUSH1 0x1 PUSH1 0x1 PUSH1 0xA0 SHL SUB NOT AND PUSH1 0x1 PUSH1 0x1 PUSH1 0xA0 SHL SUB SWAP1 SWAP3 AND SWAP2 SWAP1 SWAP2 OR SWAP1 SSTORE JUMP JUMPDEST PUSH1 0x40 MLOAD PUSH3 0x461BCD PUSH1 0xE5 SHL DUP2 MSTORE PUSH1 0x20 PUSH1 0x4 DUP3 ADD MSTORE PUSH1 0x2D PUSH1 0x24 DUP3 ADD MSTORE PUSH32 0x455243313936373A206E657720696D706C656D656E746174696F6E206973206E PUSH1 0x44 DUP3 ADD MSTORE PUSH13 0x1BDD08184818DBDB9D1C9858DD PUSH1 0x9A SHL PUSH1 0x64 DUP3 ADD MSTORE PUSH1 0x84 SWAP1 REVERT JUMPDEST SWAP2 SWAP3 SWAP1 ISZERO PUSH2 0xDE3 JUMPI POP DUP2 MLOAD ISZERO PUSH2 0xD95 JUMPI POP SWAP1 JUMP JUMPDEST EXTCODESIZE ISZERO PUSH2 0xD9E JUMPI SWAP1 JUMP JUMPDEST PUSH1 0x40 MLOAD PUSH3 0x461BCD PUSH1 0xE5 SHL DUP2 MSTORE PUSH1 0x20 PUSH1 0x4 DUP3 ADD MSTORE PUSH1 0x1D PUSH1 0x24 DUP3 ADD MSTORE PUSH32 0x416464726573733A2063616C6C20746F206E6F6E2D636F6E7472616374000000 PUSH1 0x44 DUP3 ADD MSTORE PUSH1 0x64 SWAP1 REVERT JUMPDEST DUP3 MLOAD SWAP1 SWAP2 POP ISZERO PUSH2 0xDF6 JUMPI POP DUP1 MLOAD SWAP1 PUSH1 0x20 ADD REVERT JUMPDEST PUSH1 0x40 MLOAD SWAP1 PUSH3 0x461BCD PUSH1 0xE5 SHL DUP3 MSTORE DUP2 PUSH1 0x20 DUP1 PUSH1 0x4 DUP4 ADD MSTORE DUP3 MLOAD SWAP1 DUP2 PUSH1 0x24 DUP5 ADD MSTORE PUSH1 0x0 SWAP4 JUMPDEST DUP3 DUP6 LT PUSH2 0xE3C JUMPI POP POP PUSH1 0x44 SWAP3 POP PUSH1 0x0 DUP4 DUP3 DUP5 ADD ADD MSTORE PUSH1 0x1F DUP1 NOT SWAP2 ADD AND DUP2 ADD SUB ADD SWAP1 REVERT JUMPDEST DUP5 DUP2 ADD DUP3 ADD MLOAD DUP7 DUP7 ADD PUSH1 0x44 ADD MSTORE SWAP4 DUP2 ADD SWAP4 DUP6 SWAP4 POP PUSH2 0xE19 JUMP JUMPDEST SWAP1 DUP2 PUSH1 0x20 SWAP2 SUB SLT PUSH2 0xE6D JUMPI MLOAD DUP1 ISZERO ISZERO DUP2 SUB PUSH2 0xE6D JUMPI SWAP1 JUMP JUMPDEST PUSH1 0x0 DUP1 REVERT JUMPDEST PUSH1 0x97 SLOAD PUSH1 0x40 MLOAD PUSH4 0xD994D6D5 PUSH1 0xE0 SHL DUP2 MSTORE CALLER PUSH1 0x4 DUP3 ADD MSTORE SWAP1 PUSH1 0x20 SWAP1 DUP3 SWAP1 PUSH1 0x24 SWAP1 DUP3 SWAP1 PUSH1 0x1 PUSH1 0x1 PUSH1 0xA0 SHL SUB AND GAS STATICCALL SWAP1 DUP2 ISZERO PUSH2 0xEE5 JUMPI PUSH1 0x0 SWAP2 PUSH2 0xEC7 JUMPI JUMPDEST POP ISZERO PUSH2 0xEB5 JUMPI JUMP JUMPDEST PUSH1 0x40 MLOAD PUSH4 0x1DD1B1B5 PUSH1 0xE2 SHL DUP2 MSTORE PUSH1 0x4 SWAP1 REVERT JUMPDEST PUSH2 0xEDF SWAP2 POP PUSH1 0x20 RETURNDATASIZE DUP2 GT PUSH2 0x7EF JUMPI PUSH2 0x7E1 DUP2 DUP4 PUSH2 0x969 JUMP JUMPDEST CODESIZE PUSH2 0xEAD JUMP JUMPDEST PUSH1 0x40 MLOAD RETURNDATASIZE PUSH1 0x0 DUP3 RETURNDATACOPY RETURNDATASIZE SWAP1 REVERT JUMPDEST ISZERO PUSH2 0xEF8 JUMPI JUMP JUMPDEST PUSH1 0x40 MLOAD PUSH3 0x461BCD PUSH1 0xE5 SHL DUP2 MSTORE PUSH1 0x20 PUSH1 0x4 DUP3 ADD MSTORE PUSH1 0x2B PUSH1 0x24 DUP3 ADD MSTORE PUSH32 0x496E697469616C697A61626C653A20636F6E7472616374206973206E6F742069 PUSH1 0x44 DUP3 ADD MSTORE PUSH11 0x6E697469616C697A696E67 PUSH1 0xA8 SHL PUSH1 0x64 DUP3 ADD MSTORE PUSH1 0x84 SWAP1 REVERT JUMPDEST PUSH1 0x20 PUSH32 0xEDB810B4A4BA5AB81B2765B443D63011146E0D69F7604EA7205676BAE0995B3 SWAP2 PUSH1 0x1 DUP1 PUSH1 0xA0 SHL SUB AND SWAP3 DUP4 PUSH1 0x0 MSTORE PUSH2 0x130 DUP3 MSTORE DUP1 PUSH1 0x40 PUSH1 0x0 KECCAK256 SSTORE PUSH1 0x40 MLOAD SWAP1 DUP2 MSTORE LOG2 JUMP INVALID LOG2 PUSH5 0x6970667358 0x22 SLT KECCAK256 BASEFEE 0xE2 0x1E PUSH21 0xEF8A404033FE9376AF535734D6F96317786DC3C05C 0xDD 0x2F DUP2 SHL 0xC2 PUSH22 0xEE64736F6C6343000814003300000000000000000000 "
    },
    "gasEstimates": {
      "creation": {
        "codeDepositCost": "572400",
        "executionCost": "infinite",
        "totalCost": "infinite"
      },
      "external": {
        "execute()": "infinite",
        "mintTC(uint256,uint256)": "infinite",
        "mintTP(uint256,uint256)": "infinite",
        "pokePrice(uint96)": "infinite",
        "redeemTC(uint256)": "infinite",
        "redeemTP(uint256)": "infinite"
      },
      "internal": {
        "_addPeggedToken(struct PeggedTokenParams memory,uint96)": "infinite",
        "_deployProxy(address)": "infinite"
      }
    },
    "methodIdentifiers": {
      "execute()": "61461954",
      "mintTC(uint256,uint256)": "0bb7f608",
      "mintTP(uint256,uint256)": "82a5792c",
      "pokePrice(uint96)": "8ff81e54",
      "redeemTC(uint256)": "f4076005",
      "redeemTP(uint256)": "43dbd9dc"
    }
  },
  "storageLayout": {
    "storage": [
      {
        "astId": 18655,
        "contract": "contracts/echidna/EchidnaMocQueueTester.sol:EchidnaMocQueueTester",
        "label": "mocCARC20",
        "offset": 0,
        "slot": "0",
        "type": "t_contract(MocCARC20)9164"
      },
      {
        "astId": 18658,
        "contract": "contracts/echidna/EchidnaMocQueueTester.sol:EchidnaMocQueueTester",
        "label": "mocQueue",
        "offset": 0,
        "slot": "1",
        "type": "t_contract(MocQueue)25159"
      },
      {
        "astId": 18661,
        "contract": "contracts/echidna/EchidnaMocQueueTester.sol:EchidnaMocQueueTester",
        "label": "governor",
        "offset": 0,
        "slot": "2",
        "type": "t_contract(GovernorMock)21957"
      },
      {
        "astId": 18664,
        "contract": "contracts/echidna/EchidnaMocQueueTester.sol:EchidnaMocQueueTester",
        "label": "feeToken",
        "offset": 0,
        "slot": "3",
        "type": "t_contract(ERC20Mock)20630"
      },
      {
        "astId": 18667,
        "contract": "contracts/echidna/EchidnaMocQueueTester.sol:EchidnaMocQueueTester",
        "label": "feeTokenPriceProvider",
        "offset": 0,
        "slot": "4",
        "type": "t_contract(IPriceProvider)20434"
      },
      {
        "astId": 18670,
        "contract": "contracts/echidna/EchidnaMocQueueTester.sol:EchidnaMocQueueTester",
        "label": "fluxCapacitorProvider",
        "offset": 0,
        "slot": "5",
        "type": "t_contract(IDataProvider)20375"
      },
      {
        "astId": 18673,
        "contract": "contracts/echidna/EchidnaMocQueueTester.sol:EchidnaMocQueueTester",
        "label": "tcToken",
        "offset": 0,
        "slot": "6",
        "type": "t_contract(MocTC)25747"
      },
      {
        "astId": 18676,
        "contract": "contracts/echidna/EchidnaMocQueueTester.sol:EchidnaMocQueueTester",
        "label": "acToken",
        "offset": 0,
        "slot": "7",
        "type": "t_contract(ERC20Mock)20630"
      },
      {
        "astId": 18679,
        "contract": "contracts/echidna/EchidnaMocQueueTester.sol:EchidnaMocQueueTester",
        "label": "mocVendors",
        "offset": 0,
        "slot": "8",
        "type": "t_contract(MocVendors)26052"
      },
      {
        "astId": 18681,
        "contract": "contracts/echidna/EchidnaMocQueueTester.sol:EchidnaMocQueueTester",
        "label": "mocCoreExpansion",
        "offset": 0,
        "slot": "9",
        "type": "t_address"
      },
      {
        "astId": 18683,
        "contract": "contracts/echidna/EchidnaMocQueueTester.sol:EchidnaMocQueueTester",
        "label": "mocFeeFlow",
        "offset": 0,
        "slot": "10",
        "type": "t_address"
      },
      {
        "astId": 18685,
        "contract": "contracts/echidna/EchidnaMocQueueTester.sol:EchidnaMocQueueTester",
        "label": "mocAppreciationBeneficiary",
        "offset": 0,
        "slot": "11",
        "type": "t_address"
      },
      {
        "astId": 18687,
        "contract": "contracts/echidna/EchidnaMocQueueTester.sol:EchidnaMocQueueTester",
        "label": "executionFeeRecipient",
        "offset": 0,
        "slot": "12",
        "type": "t_address"
      }
    ],
    "types": {
      "t_address": {
        "encoding": "inplace",
        "label": "address",
        "numberOfBytes": "20"
      },
      "t_contract(ERC20Mock)20630": {
        "encoding": "inplace",
        "label": "contract ERC20Mock",
        "numberOfBytes": "20"
      },
      "t_contract(GovernorMock)21957": {
        "encoding": "inplace",
        "label": "contract GovernorMock",
        "numberOfBytes": "20"
      },
      "t_contract(IDataProvider)20375": {
        "encoding": "inplace",
        "label": "contract IDataProvider",
        "numberOfBytes": "20"
      },
      "t_contract(IPriceProvider)20434": {
        "encoding": "inplace",
        "label": "contract IPriceProvider",
        "numberOfBytes": "20"
      },
      "t_contract(MocCARC20)9164": {
        "encoding": "inplace",
        "label": "contract MocCARC20",
        "numberOfBytes": "20"
      },
      "t_contract(MocQueue)25159": {
        "encoding": "inplace",
        "label": "contract MocQueue",
        "numberOfBytes": "20"
      },
      "t_contract(MocTC)25747": {
        "encoding": "inplace",
        "label": "contract MocTC",
        "numberOfBytes": "20"
      },
      "t_contract(MocVendors)26052": {
        "encoding": "inplace",
        "label": "contract MocVendors",
        "numberOfBytes": "20"
      }
    }
  },
  "userdoc": {
    "kind": "user",
    "methods": {},
    "version": 1
  }
}