{
  "contractName": "EchidnaMocQueueTester",
  "sourceName": "contracts/echidna/EchidnaMocQueueTester.sol",
  "abi": [
    {
      "inputs": [],
      "stateMutability": "payable",
      "type": "constructor"
    },
    {
      "inputs": [],
      "name": "execute",
      "outputs": [],
      "stateMutability": "nonpayable",
      "type": "function"
    },
    {
      "inputs": [
        {
          "internalType": "uint256",
          "name": "qTC_",
          "type": "uint256"
        },
        {
          "internalType": "uint256",
          "name": "qACmax_",
          "type": "uint256"
        }
      ],
      "name": "mintTC",
      "outputs": [],
      "stateMutability": "nonpayable",
      "type": "function"
    },
    {
      "inputs": [
        {
          "internalType": "uint256",
          "name": "qTP_",
          "type": "uint256"
        },
        {
          "internalType": "uint256",
          "name": "qACmax_",
          "type": "uint256"
        }
      ],
      "name": "mintTP",
      "outputs": [],
      "stateMutability": "nonpayable",
      "type": "function"
    },
    {
      "inputs": [
        {
          "internalType": "uint96",
          "name": "price_",
          "type": "uint96"
        }
      ],
      "name": "pokePrice",
      "outputs": [],
      "stateMutability": "nonpayable",
      "type": "function"
    },
    {
      "inputs": [
        {
          "internalType": "uint256",
          "name": "qTC_",
          "type": "uint256"
        }
      ],
      "name": "redeemTC",
      "outputs": [],
      "stateMutability": "nonpayable",
      "type": "function"
    },
    {
      "inputs": [
        {
          "internalType": "uint256",
          "name": "qTP_",
          "type": "uint256"
        }
      ],
      "name": "redeemTP",
      "outputs": [],
      "stateMutability": "nonpayable",
      "type": "function"
    }
  ],
  "bytecode": "0x60806040819052600a80546001600160a01b0319908116600117909155600b805482166002179055600c8054821660031790556000916101c3808201906001600160401b038211838310176200108c579082916200d2358339039083f0801562000ec7576002805483166001600160a01b039290921691909117905560405161103590818101906001600160401b038211818310176200108c57806200c0659284848339039085f08015620010c8576007805485166001600160a01b039290921691909117905560405191808301916001600160401b03831184841017620010b457908392918339039083f0801562000ec7576003805483166001600160a01b039290921691909117905560405161019b81016001600160401b03811182821017620010a0578160209161019b6200d09a8339670de0b6b3a7640000815203019083f0801562000ec7576004805483166001600160a01b039290921691909117905560405161019d808201906001600160401b038211838310176200108c5760209183916200bec88339600019815203019083f0801562000ec7576005805483166001600160a01b03929092169190911790556040516124fc808201906001600160401b038211838310176200108c57908291620142388339039083f0801562000ec7576001600160a01b0390620001f990821662001127565b16816006541617600655604051615e418082019082821060018060401b038311176200108c57908291620020808339039083f0801562000ec7576001600160a01b03906200024990821662001127565b835483169116178255604051614007808201906001600160401b038211838310176200108c5790829162007ec18339039083f0801562000ec7576009805483166001600160a01b039290921691909117905560405161102c808201906001600160401b038211838310176200108c57908291620167348339039083f0801562000ec7576001600160a01b0390620002e290821662001127565b16816008541617600855604051614bad8082019082821060018060401b038311176200108c579082916200d3f88339039083f0801562000ec7576001600160a01b03906200033290821662001127565b60018054909316911617905560085460025482916001600160a01b039081169116813b1562000f4157829160648392604051958693849263c0c53b8b60e01b845233600485015260248401523360448401525af1801562000fce5762001079575b6006546002549192506001600160a01b039081169116813b1562000f41578291610104839260405194859384926323c56d0560e21b84526080600485015260076084850152662a21aa37b5b2b760c91b60a485015260c06024850152600260c485015261544360f01b60e485015230604485015260648401525af1801562000ec75762001060575b50600154600354600454600654600a54600b54600554604051966001600160a01b0391821696938216959282169482169392821692821691166200046261034089620010d3565b875260208701526040860152606085015281608085015260a0840152671bc16d674ec8000060c0840152670de0b6b3a764000060e08401526702c68af0bb14000061010084015266b1a2bc2ec5000061012084015266b1a2bc2ec50000610140840152662386f26fc10000610160840152662386f26fc10000610180840152662386f26fc100006101a084015267011c37937e0800006101c084015267011c37937e0800006101e08401526706f05b59d3b2000061020084015267016345785d8a00006102208401526706f05b59d3b2000061024084015262278d0061026084015261028083015267016345785d8a00006102a083015262093a806102c0830152806102e08301526103008201526102d061032082015260018060a01b036002541660018060a01b036009541660018060a01b03600854169160405193620005ac60c086620010d3565b84526020840152336040840152606083015262015180608083015260a082015260018060a01b036007541660405191620005e8604084620010d3565b8252602082015281546001600160a01b031690813b1562000f4157604080516330500efd60e11b81528251805180516001600160a01b039081166004850152602080830151821660248601528286015182166044860152606080840151831660648701526080808501518416608488015260a080860151851660a489015260c086015160c489015260e086015160e48901526101008601516101048901526101208601516101248901526101408601516101448901526101608601516101648901526101808601516101848901526101a08601516101a48901526101c08601516101c48901526101e08601516101e489015261020086015161020489015261022086015161022489015261024086015161024489015261026086015161026489015261028086015185166102848901526102a08601516102a48901526102c08601516102c48901526102e086015185166102e48901526103008601518516610304890152610320909501516103248801528286015184166103448801529685015183166103648701528401518216610384860152948301516103a485015291015181166103c48301529190920151166103e4820152908290829061040490829084905af1801562000ec75762001047575b506001546002546040516001600160a01b039283169290911690620007e161012082620010d3565b6064815260646020820152606460408201526064606082015260646080820152606460a0820152606460c0820152606460e08201526064610100820152823b1562001042576101a484928361010095604051968795869463db90147760e01b86526004860152336024860152600a6044860152600a606486015280516084860152602081015160a4860152604081015160c4860152606081015160e4860152608081015161010486015260a081015161012486015260c081015161014486015260e081015161016486015201516101848401525af1801562000ec75762001029575b5060015481546001600160a01b039182169116813b1562000f4157829160248392604051948593849263bbe720d960e01b845260048401525af1801562000ec75762001010575b506001546001600160a01b0316803b156200100d57818091604460405180948193632f2ff15d60e01b83527fd8aa0f3194971a2a116679f7c2090f6939c8d4e01a2a8d7e41d55e5351469e6360048401523060248401525af1801562000ec75762000ff4575b5060065481546001600160a01b039182169116813b1562000f415782916024839260405194859384926383d2230d60e01b845260048401525af1801562000ec75762000fdb575b505060405190620009ca60e083620010d3565b808252806020830152674563918244f40000604083015266b1a2bc2ec50000606083015266b1a2bc2ec500006080830152680b7e174cc69ed0000060a083015266b1a2bc2ec5000060c08301526040518061229381011060018060401b036122938301111762000f995761229362011fa58239806122938101039082f0801562000fce576001600160a01b039062000a6490821662001127565b825460025492909116916001600160a01b039182169116823b1562000fca57604051916323c56d0560e21b83526080600484015260076084840152662a282a37b5b2b760c91b60a484015260c06024840152600260c484015261054560f41b60e48401526044830152606482015282816101048183865af1801562000e865790839162000fad575b50508252670de0b6b3a76400006060830151066060830152670de0b6b3a76400006080830151066080830152604051918261019b81011060018060401b0361019b8501111762000f9957819261019b6200d09a8239680cbd47b6eaa8cc000161019b82015260208161019b810103019083f0801562000ec7576001600160a01b03908116602083015282541690813b1562000f415760408051636dbcb03960e11b815282516001600160a01b0390811660048301526020840151166024820152908201516044820152606082015160648201526080820151608482015260a082015160a482015260c09091015160c4820152908290829060e490829084905af1801562000ec75762000f80575b506007546040516318160ddd60e01b81526001600160a01b0390911690602081600481855afa90811562000e8657839162000f45575b50813b1562000f415782916044839260405194859384926340c10f1960e01b84523060048501521960248401525af1801562000ec75762000f25575b5050600754815460405163095ea7b360e01b8082526001600160a01b03928316600483015269065a4da25d3016c00000602483018190529094939092602091839160449183918891165af1801562000e86579160209160649362000f03575b508354604051630176fec160e31b815268a2a15d09519be00000600482015260248101929092529092839160449183916001600160a01b03165af1801562000ec75762000ed2575b5060075481546040519384526001600160a01b039081166004850152683635c9adc5dea00000602485018190529391602091839160449183918791165af1801562000ec75762000e91575b508054604051627c6da160e21b8152600481018390526001600160a01b039091169290602081602481875afa90811562000e8657839162000e38575b5090606460209281604051968794859363484ad7cd60e01b855260018060a01b031660048501526904f9f00373a9efb00000602485015260448401525af190811562000e2c575062000df6575b604051610b009081620011878239f35b602090813d831162000e24575b62000e0f8183620010d3565b8101031262000e1f573862000de6565b600080fd5b503d62000e03565b604051903d90823e3d90fd5b90506020813d60201162000e7d575b8162000e5660209383620010d3565b8101031262000e7957516001600160a01b038116810362000e7957606462000d99565b8280fd5b3d915062000e47565b6040513d85823e3d90fd5b62000eb79060203d60201162000ebf575b62000eae8183620010d3565b8101906200110d565b503862000d5d565b503d62000ea2565b6040513d84823e3d90fd5b602090813d831162000efb575b62000eeb8183620010d3565b8101031262000e1f573862000d12565b503d62000edf565b62000f1d90833d851162000ebf5762000eae8183620010d3565b503862000cca565b8162000f3191620010d3565b62000f3e57803862000c6b565b80fd5b5050fd5b9250506020823d60201162000f77575b8162000f6460209383620010d3565b8101031262000e1f578291513862000c2f565b3d915062000f55565b8162000f8c91620010d3565b62000f3e57803862000bf9565b634e487b7160e01b82526041600452602482fd5b8162000fb991620010d3565b62000fc657813862000aec565b5080fd5b8380fd5b50604051903d90823e3d90fd5b8162000fe791620010d3565b62000f3e578038620009b7565b816200100091620010d3565b62000f3e57803862000970565b50fd5b816200101c91620010d3565b62000f3e5780386200090a565b816200103591620010d3565b62000f3e578038620008c3565b505050fd5b816200105391620010d3565b62000f3e578038620007b9565b816200106c91620010d3565b62000f3e5780386200041b565b6200108491620010d3565b388162000393565b634e487b7160e01b85526041600452602485fd5b634e487b7160e01b84526041600452602484fd5b634e487b7160e01b86526041600452602486fd5b6040513d86823e3d90fd5b601f909101601f19168101906001600160401b03821190821017620010f757604052565b634e487b7160e01b600052604160045260246000fd5b9081602091031262000e1f5751801515810362000e1f5790565b6040516103f9808201906001600160401b03821183831017620010f757606091839162001c87833960018060a01b03809516815260406020820152600060408201520301906000f080156200117a571690565b6040513d6000823e3d90fdfe608080604052600436101561001357600080fd5b600090813560e01c9081630bb7f608146109bc5750806343dbd9dc146108f057806361461954146102fa57806382a5792c1461020e5780638ff81e54146100ee5763f40760051461006357600080fd5b346100eb5760203660031901126100eb576064602060018060a01b03835416604460405180948193639abb14c960e01b835260043560048401528760248401525af180156100e0576100b3575080f35b602090813d81116100d9575b6100c98183610a33565b810103126100d45780f35b600080fd5b503d6100bf565b6040513d84823e3d90fd5b80fd5b50346100eb5760203660031901126100eb57600435906bffffffffffffffffffffffff80831680930361020a578083146101f657819260018060a01b036024604082865416815192838092634b74600160e01b82528960048301525afa9081156101eb5785916101a9575b501690813b156101a4576024600191858094604051968795869463032145f960e41b8652011660048401525af180156100e0576101935750f35b8161019d91610a33565b6100eb5780f35b505050fd5b90506040813d6040116101e3575b816101c460409383610a33565b810103126101df576020015181811681036101df5738610159565b8480fd5b3d91506101b7565b6040513d87823e3d90fd5b634e487b7160e01b82526011600452602482fd5b5080fd5b50346100eb5760403660031901126100d4578054604051627c6da160e21b8152600481018390526020916001600160a01b0390811691908382602481865afa9182156101eb57849260649187916102cd575b5081604051958694859363484ad7cd60e01b8552166004840152600435602484015260243560448401525af180156102c25761029a578280f35b813d83116102bb575b6102ad8183610a33565b810103126100d45738808280f35b503d6102a3565b6040513d85823e3d90fd5b6102ed9150843d86116102f3575b6102e58183610a33565b810190610a6b565b38610260565b503d6102db565b50346100eb57806003193601126100eb57600154604051631a07f9c360e21b81526001600160a01b0390911690602081600481855afa9081156102c25783916108b5575b5061020a57600c546006546040516370a0823160e01b815230600482015293916001600160a01b039081169182319160209187916024918391165afa9384156102c257839461087c575b8354604051627c6da160e21b8152600481018690529650602090879060249082906001600160a01b03165afa9586156108715784959660209160249691610854575b506040516370a0823160e01b815230600482015295869182906001600160a01b03165afa9384156101eb578594610820575b50604051632b99484960e01b815292602084600481855afa9384156106e55786946107ec575b50813b156106d95785916024839260405194859384926325b2724960e11b845260048401525af180156101eb576107d7575b50600c546006546040516370a0823160e01b815230600482015295969495946001600160a01b0392831631949092909160209187916024918391165afa9485156107cc578795610798575b508654604051627c6da160e21b8152600481018990526001600160a01b0390911696906020816024818b5afa908115610770576024916020918b9161077b575b506040516370a0823160e01b815230600482015292839182906001600160a01b03165afa90811561077057899161073e575b50600154604051632b99484960e01b81526001600160a01b039091169790946020866004818c5afa958615610733578b966106ff575b5014918215926106f4575b5050156106f057610567602091600493610a8a565b94604051928380926336ec2da160e21b82525afa9081156106e557869161069b575b50916105a36001600160801b036105a89416851115610aad565b610a8a565b81606402916064830403610687576105c09114610aad565b60405163104df9ab60e31b815290602082600481845afa9182156102c2578392610652575b509060206004926040519384809263198804fd60e21b82525afa9081156102c257839161061c575b61061992501015610aad565b80f35b90506020823d60201161064a575b8161063760209383610a33565b810103126100d45761061991519061060d565b3d915061062a565b91506020823d60201161067f575b8161066d60209383610a33565b810103126100d45790519060206105e5565b3d9150610660565b634e487b7160e01b84526011600452602484fd5b90506020813d6020116106dd575b816106b660209383610a33565b810103126106d95751916001600160801b03831683036106d957916105a3610589565b8580fd5b3d91506106a9565b6040513d88823e3d90fd5b8680fd5b141590503880610552565b9095506020813d60201161072b575b8161071b60209383610a33565b810103126100d457519438610547565b3d915061070e565b6040513d8d823e3d90fd5b90506020813d602011610768575b8161075960209383610a33565b810103126100d4575138610511565b3d915061074c565b6040513d8b823e3d90fd5b6107929150823d84116102f3576102e58183610a33565b386104df565b9094506020813d6020116107c4575b816107b460209383610a33565b810103126100d45751933861049f565b3d91506107a7565b6040513d89823e3d90fd5b936107e58160249596610a33565b9392610454565b9093506020813d602011610818575b8161080860209383610a33565b810103126106d957519238610422565b3d91506107fb565b9093506020813d60201161084c575b8161083c60209383610a33565b810103126101df575192386103fc565b3d915061082f565b61086b9150823d84116102f3576102e58183610a33565b386103ca565b6040513d86823e3d90fd5b93506020853d6020116108ad575b8161089760209383610a33565b810103126108a9576024945193610388565b8280fd5b3d915061088a565b90506020813d6020116108e8575b816108d060209383610a33565b810103126108a9575180151581036108a9573861033e565b3d91506108c3565b50346100eb5760208060031936011261020a578154604051627c6da160e21b8152600481018490526001600160a01b03918216918382602481865afa9182156101eb578492606491879161099f575b5081604051958694859363119ae24d60e21b855216600484015260043560248401528860448401525af180156102c257610977578280f35b813d8311610998575b61098a8183610a33565b810103126100eb5738808280f35b503d610980565b6109b69150843d86116102f3576102e58183610a33565b3861093f565b90503461020a57604036600319011261020a57602081604481606460018060a01b03875416630176fec160e31b8352600435600484015260243560248401525af180156100e057610a0b575080f35b602090813d8111610a2c575b610a218183610a33565b810103126100eb5780f35b503d610a17565b90601f8019910116810190811067ffffffffffffffff821117610a5557604052565b634e487b7160e01b600052604160045260246000fd5b908160209103126100d457516001600160a01b03811681036100d45790565b91908203918211610a9757565b634e487b7160e01b600052601160045260246000fd5b15610ab457565b634e487b7160e01b600052600160045260246000fdfea2646970667358221220486ee6062d15348410243e790832410c51ca907c34667117e6073e07921d3aa264736f6c6343000814003360806040526103f980380380610014816101fb565b9283398101906040818303126101f6578051906001600160a01b0382168083036101f65760208281015190926001600160401b0382116101f657019284601f850112156101f65783519361006f61006a86610236565b6101fb565b94808652848601968582840101116101f657868561008d9301610251565b803b1561019b577f360894a13ba1a3210667c828492db98dca3e2076cc3735a920a3ca505d382bbc80546001600160a01b031916831790556000917fbc7cd75a20ee27fd9adebab32041f755214dbc6bffa90cc0225b39da2e5c2d3b8380a2835115801590610194575b61010a575b60405160d190816103288239f35b818061017f9661011d61006a6027610236565b96602788527f416464726573733a206c6f772d6c6576656c2064656c65676174652063616c6c87890152660819985a5b195960ca1b60408901525190845af4913d1561018a573d9061017161006a83610236565b91825281943d92013e610274565b5038808080806100fc565b5060609250610274565b50816100f7565b60405162461bcd60e51b815260048101849052602d60248201527f455243313936373a206e657720696d706c656d656e746174696f6e206973206e60448201526c1bdd08184818dbdb9d1c9858dd609a1b6064820152608490fd5b600080fd5b6040519190601f01601f191682016001600160401b0381118382101761022057604052565b634e487b7160e01b600052604160045260246000fd5b6001600160401b03811161022057601f01601f191660200190565b60005b8381106102645750506000910152565b8181015183820152602001610254565b919290156102d65750815115610288575090565b3b156102915790565b60405162461bcd60e51b815260206004820152601d60248201527f416464726573733a2063616c6c20746f206e6f6e2d636f6e74726163740000006044820152606490fd5b8251909150156102e95750805190602001fd5b6044604051809262461bcd60e51b8252602060048301526103198151809281602486015260208686019101610251565b601f01601f19168101030190fdfe608060405236156054577f360894a13ba1a3210667c828492db98dca3e2076cc3735a920a3ca505d382bbc54600090819081906001600160a01b0316368280378136915af43d82803e156050573d90f35b3d90fd5b7f360894a13ba1a3210667c828492db98dca3e2076cc3735a920a3ca505d382bbc54600090819081906001600160a01b0316368280378136915af43d82803e156050573d90f3fea2646970667358221220f13d8f5fed5f9bf01cbf42bf0c6d0bb93d7f0fec96dcf048fba5156851d0336a64736f6c6343000814003360a08060405234620000e157306080526000549060ff8260081c166200008f575060ff8082160362000053575b604051615d5a9081620000e78239608051818181612846015281816129b50152612f2c0152f35b60ff90811916176000557f7f26b83ff96e1f2b6a682f133852f6798a09c465da95921460cefb3847402498602060405160ff8152a1386200002c565b62461bcd60e51b815260206004820152602760248201527f496e697469616c697a61626c653a20636f6e747261637420697320696e697469604482015266616c697a696e6760c81b6064820152608490fd5b600080fdfe604060808152600436101561001357600080fd5b600060e0908035821c91826301dde6ef146137c657826301f1b6841461377f5782630579188f146136e6578263073763b9146136c25782630bb7f608146136a35782630c340a241461367a5782630c36d8971461365a5782630d6ac463146136145782630db49656146135f45782630e0a8fd2146135d05782630f1e5e2b1461358a57826313ed7ba51461356057826315266e361461354357826317937f9b1461350c5782631867e2f5146134ec5782631fb0dda0146134c35782631fe6a7ad146134895782632069f75314613465578263235e81cf1461327357826323b98cde1461324b57826324ffaba31461320e57826325bc6c41146131e457826327eab2a11461319e5782632a20d57d1461317e5782632b764fad146131615782632c43bd3b1461313d5782632d88af4a146130e65782632ded50f0146130c6578263333431fd146130a657826333421c3814612fab5782633424686214612f915782633659cfe614612ef75782633915edcb14612ec6578263391bf6cf14612dae5782633bc4ac0a14612d8a5782633cfb09ef14612d445782633dbc50a914612d2a5782633f4ba83a14612caf5782634017936a14612c7e578263407f0e3414612c5e5782634310adc614612c2b57826344719ee914612bf4578263466b893414612bbd578263471a80e314612b8a578263484ad7cd14612b535782634af3a6fc14612ad45782634b74600114612a8a5782634d977e7814612a6a5782634e1f907a14612a405782634f0f27ee14612a205782634f1ef2861461292c5782635210570c1461290657826352d1902d1461283157826352e18f8f14612816578263533a4bea146127e557826353b16d17146127a0578263543aeb481461277c5782635860ee631461275c57826358f32de9146127145782635c616a73146125195782635c975abb146124f25782635cfbe578146124d25782635ece17ef146124b557826360009e0b1461248b57826360a01dfa14611f43578263647846a514611f1957826364ec230a14611ef5578263662013f414611ed85782636827435714611eaf57826368f015df14611e4f5782636b5488df14611e2f5782636f30471f14611e0f5782637071346814611deb578263735d396014611da557826373e28af914611d8157826374873ad314611d645782637554fffd14611d445782637622805514611d245782637750ba0c14611d0057826379f9a91c14611ce05782637a193c3114611cc05782637a4ff1d914611c9c5782637a727fe814611c7c5782637af5758c14611c585782637b21b27414611c3b5782637cba238314611c175782637d8e031414611bd85782637f01c71514611bae5782637f13b99814611b785782637f4a4fe014611b58578263826fcd5814611b35578263842d574814611b1a5782638456cb5914611a8557826385bf959314611a3f578263883d21cb1461197e57826389fd503e146119645782638acc20111461194a5782638cfa42411461192a5782638e2bdb86146119005782638f1a383a146118d85782639853c35a146118ae57826398b2086f146118945782639abb14c9146118755782639ad6659d1461183f5782639bea71a4146117fd5782639cabfc00146117b15782639fd0506d146117845782639fd8ed0e1461176a578263a8e9ac3014611747578263aaf91eff1461172a578263aaf925f61461170f578263ac0c88ab146116f5578263ad4e666d14611516578263aea038dc146114f6578263aeb41e69146114d9578263b4434c321461131b578263b5e9ea8c146112f1578263b85edd65146112d7578263b9fa6413146112b7578263bb4872de14611293578263bc4e55b2146111c5578263becaca6b146111a1578263bfe4262114610fa6578263c00f538d14610f82578263c039cc6914610f40578263c09c30bd14610ef6578263c239fca414610edb578263c84353c914610eb7578263cf351c1d14610e71578263d1a0faa014610e58578263d6af11da14610e1c578263d76dc7fd14610e02578263d87aab6f14610de2578263d8c69aec14610ccc578263d8db6f5a14610c86578263db79607214610c49578263ddb6d19014610c0c578263de8d520a14610bd9578263e23c135c14610bc0578263e2c5e99014610b5f578263e3867eeb14610b41578263e401294514610b0e578263e4c0aaf414610ac9578263e6a683e014610a83578263e6b1627c14610a3f578263e7c2597814610a1a578263e8859a15146109fd578263ea302a97146109e2578263ee1f438f146109b8578263f13f40541461098e578263f26114aa1461092957508163f280877814610906578163f2f9f456146108ec578163f30b5614146108cd578163f375cfba146108ae578163f88b143414610845578163fa6e83bd14610826578163fadda424146107af578163fd80fa7714610794578163fda70f8b1461077157508063fed0ade4146107575763ffe315391461071957600080fd5b606036600319011261075257604435906001600160a01b03821682036107525761074b60209233602435600435614d4a565b9051908152f35b600080fd5b60208261074b610768366004613916565b92919091614d4a565b823461079057816003193601126107905760209061013c549051908152f35b5080fd5b8261074b6020926107a63660046139d9565b939290926154df565b90503461082357602036600319011261082357506001600160a01b036004358181168103610752576107ed6107e5600192614464565b61013761393c565b500154166107fa81614500565b9190911561080c575060209151908152f35b602490835190637f6e4db960e01b82526004820152fd5b80fd5b823461079057816003193601126107905760209061013a549051908152f35b9050346108235760203660031901126108235750600435906001600160a01b03821682036107525761074b6108a0602093610889610881614bf3565b919092614464565b916108a86108978484614163565b51948593614177565b959094614b50565b90614a4d565b8234610790578160031936011261079057602090610141549051908152f35b8234610790578160031936011261079057602090610131549051908152f35b60208361074b6108fd3660046139ac565b92913392614ec5565b346108235760203660031901126108235761091f615c2f565b60043561013c5580f35b83903461098a573660031901126107905761098690610946615c2f565b516379308a5560e11b602082015261097481610966600460248301614959565b03601f198101835282613958565b6101f6546001600160a01b0316614826565b5080f35b8280fd5b5082346107905781600319360112610790576101305490516001600160a01b039091168152602090f35b5082346107905781600319360112610790576101525490516001600160a01b039091168152602090f35b60208461074b846109f43660046139d9565b93929092615145565b50823461079057816003193601126107905760209061074b614b13565b50823461079057816003193601126107905760209060ff61014b541690519015158152f35b5082346107905760203660031901126107905760043561018e8054821015610a7f5790610a6b9161393c565b506001815491015482519182526020820152f35b8380fd5b5034610823576020366003190112610823576004356001600160a01b0381169081900361075257610ab2615c2f565b6101f680546001600160a01b031916909117905580f35b5034610823576020366003190112610823576004356001600160a01b0381169081900361079057610af8615c2f565b6001600160601b0360a01b609754161760975580f35b50826060366003190112610752576044356001600160a01b03811681036107525760209261074b9160243560043561531d565b60208461074b84610b53366004613a0b565b94939093929192614ff8565b838234610823576060366003190112610823576001600160a01b03600435818116810361075257602435918083168303610a7f5761014f54163303610baf5790610bac9160443591615bf6565b80f35b8351631974847760e01b8152600490fd5b5034610823578060031936011261082357610bac61409e565b50823461079057816003193601126107905760209061074b610c01610bfc614566565b614177565b90506101315461407b565b508234610790576020366003190112610790576004356001600160a01b038116908190036107525782829160209452610145845220549051908152f35b83903461098a573660031901126107905761098690610c66615c2f565b51636dbcb03960e11b602082015261097481610966600460248301614959565b5034610823576020366003190112610823576004356001600160a01b0381169081900361075257610cb5615c2f565b61015280546001600160a01b031916909117905580f35b90915034610790573660031901126108235750610ce76155ca565b5061014f546001600160a01b03919082163303610dd257610d9791610d0d366004615b83565b91610d166155ca565b50610d1f614ea3565b610d27615cbd565b610d73610d648251633dad0bd760e11b6020820152610d4960248201876151eb565b60e48152610d5961010482613958565b846101f65416614826565b60208082518301019101615b28565b86848760808498969b95979a015116918860c08160a0840151169201511692615934565b6004359380851680950361075257608435908116810361075257610dce94610dc491886044350391615bf6565b51948594856138d6565b0390f35b51631974847760e01b8152600490fd5b508234610790578160031936011261079057602090610155549051908152f35b60208461074b610e13366004613a4b565b93929092614f7f565b50823461079057816003193601126107905760209061074b610e3e60016145a0565b610e52610e4b82846142bb565b9183614205565b916145e7565b5034610823578060031936011261082357610bac614cb6565b5034610823576020366003190112610823576004356001600160a01b0381169081900361075257610ea0615c2f565b61012f80546001600160a01b031916909117905580f35b503461082357602036600319011261082357610ed1615c2f565b60043561014c5580f35b60208461074b84610eed3660046139ac565b92919091614f7f565b508260a0366003190112610790576001600160a01b03916004359083821682036107525760243593841684036107525760209361074b923391608435916064359160443591614ff8565b50823461079057816003193601126107905760209061074b610f75610f7c610f69610bfc614566565b6101319391935461407b565b918261407b565b90615cde565b503461082357602036600319011261082357610f9c615c2f565b60043561013d5580f35b8382346108235760a036600319011261082357610fc16155ca565b5061014f546001600160a01b03908116330361119057610fe23660046155f1565b91610feb6155ca565b50610ff4614ea3565b610ffc615cbd565b611004614cb6565b61101761100f614bf3565b81929161564e565b909161102682848851936149ee565b818110611173575050670de0b6b3a76400009161104861104e928751926149ba565b90614288565b049182156111625793839481611087950190808251169161107c6080890193878486511661013d5492615691565b96918899919961407b565b9660208a015180891061114557508951906101346110a683825461407b565b90556110b661013191825461407b565b905583610133541690813b1561098a578651632770a7eb60e21b815230600482015260248101919091529082908290604490829084905af1801561113b57611126575b5050968561111c93838060608996610dce9b9c9d51169501511691511692615934565b519384938461386f565b611131828092613958565b61082357806110f9565b86513d84823e3d90fd5b604490898851916354cde31360e01b835260048301526024820152fd5b845163f3e39b5d60e01b8152600490fd5b6044925087519163a5db715d60e01b835260048301526024820152fd5b8251631974847760e01b8152600490fd5b5034610823576020366003190112610823576111bb615c2f565b6004356101395580f35b909150346107905736600319011261082357506111e06155ca565b5061014f546001600160a01b03908116330361128257610dce610dc491611208366004615b83565b936112116155ca565b5061121a614ea3565b611222615cbd565b611244610d64825163f5571e0160e01b6020820152610d4960248201896151eb565b948860608793969599949a0191825161126161014e91825461407b565b905560c06112778b83608086015116955161407b565b920151169180615934565b8151631974847760e01b8152600490fd5b50823461079057816003193601126107905760209060ff60ca541690519015158152f35b50823461079057816003193601126107905760209061015b549051908152f35b60208461074b846112e93660046138ad565b91339361523b565b5082346107905781600319360112610790576101535490516001600160a01b039091168152602090f35b8382346108235760c0366003190112610823576113366155ca565b5061014f546001600160a01b03929083163303610dd2576113d061135b3660046159ed565b916113646155ca565b5061136d614ea3565b611375615cbd565b61137d614cb6565b611385614bf3565b61139487869593955116614464565b936113b46113a28684614163565b51926113ae8488614908565b8261564e565b6020889592950194848651946113ca828b614b50565b90615a56565b8181106114bc5750509480966113ea611422978451615cde565b94606087019061141783835116888a8960a082019888808b51169351168152610144602052205492615691565b9891829b919b614156565b98878101968751808c1161149f57508a1561148e579489969461146982958d9e9f95610dce9e9585608061111c9e9c61145e6114849b86615a6e565b519201511692614848565b865161147961014e91825461407b565b90555116945161407b565b9151169180615934565b885163f3e39b5d60e01b8152600490fd5b6044908c8b5191630b63f1a760e01b835260048301526024820152fd5b6044925084519163c39b739f60e01b835260048301526024820152fd5b60208461074b6114ea3660046139d9565b939291909133936154df565b50823461079057816003193601126107905760209061013d549051908152f35b8382346108235760c0366003190112610823576115316155ca565b5061014f546001600160a01b03908116330361119057906115f4916115573660046159ed565b936115606155ca565b50611569614ea3565b611571615cbd565b611579614566565b9261158683875116614464565b926115a96115948587614163565b51956115a08787614908565b6101495461564e565b50506115ba60208801958651615cde565b91606088019082825116936115e960a08b0195828c87808a511691511686526101456020528986205492615691565b9891839b919b61407b565b9882156116e457878c0151808b106116c75750859161164c9161161860018d615a6e565b51936116268261013761393c565b5061163286825461407b565b905561164261013191825461407b565b90556101356137ea565b90549060031b1c1690813b1561098a578651632770a7eb60e21b815230600482015260248101919091529082908290604490829084905af1801561113b576116b2575b5050968561111c93838060808996610dce9b9c9d51169501511691511692615934565b6116bd828092613958565b610823578061168f565b6044908b8a51916354cde31360e01b835260048301526024820152fd5b875163f3e39b5d60e01b8152600490fd5b60208461074b846117073660046138ad565b913393615145565b60208461074b846117213660046139ac565b92919091614ec5565b60208461074b61173b3660046139d9565b9392919091339361523b565b50823461079057816003193601126107905760209061018f544310159051908152f35b60208461074b61177b366004613a4b565b93929092614ec5565b50823461079057816003193601126107905760ca54905160109190911c6001600160a01b03168152602090f35b838234610823576020366003190112610823576004356001600160a01b038116919082900361075257829181526101366020522060ff6001825492015416825191825215156020820152f35b838234610823578160031936011261082357506001600160a01b039060043582811681036107525760243592831683036107525760209261074b9133906147a4565b508234610790578160031936011261079057602090611868611862610bfc614566565b9061432c565b61014a5410159051908152f35b5082806003193601126107525761074b6020923360243560043561531d565b60208461074b6118a53660046139ac565b92913392614f7f565b5082346107905781600319360112610790576101465490516001600160a01b039091168152602090f35b5082346107905781600319360112610790576020906118f8610bfc614566565b509051908152f35b5082346107905781600319360112610790576101585490516001600160a01b039091168152602090f35b50823461079057816003193601126107905760209061014a549051908152f35b60208461074b61195b3660046139ac565b92913392615410565b60208461074b611975366004613a4b565b93929092615410565b8382346108235760c0366003190112610823575061199a6155ca565b5061014f546001600160a01b03908116330361128257610dce610dc4916119c23660046159ed565b936119cb6155ca565b506119d4614ea3565b6119dc615cbd565b611a0d610d648251637225da8960e11b60208201526119fe6024820189614f3a565b60c48152610d5960e482613958565b9488858793969599949a01918251611a2961014e91825461407b565b905560a06112778b83606086015116955161407b565b5034610823576020366003190112610823576004356001600160a01b0381169081900361075257611a6e615c2f565b61015380546001600160a01b031916909117905580f35b508234610790578160031936011261079057611a9f615cbd565b60ca54601081901c6001600160a01b03163303611b095760ff811615611af85761ff0019166101001760ca55513381527f62e78cea01bee320cd4e420270b5ea74000d11b0c9f74754ebdbfc544b05a25890602090a180f35b815163866099c360e01b8152600490fd5b8151631d77d47760e21b8152600490fd5b60208461074b84611b2c3660046139d9565b9392909261523b565b50823461079057816003193601126107905760209061074b611862610bfc614566565b50823461079057816003193601126107905760209061015a549051908152f35b50823461079057816003193601126107905760209061074b611b9a60016145a0565b610e52611ba78284614205565b91836142bb565b5082346107905781600319360112610790576101c35490516001600160a01b039091168152602090f35b50823461079057602036600319011261079057600435916101489081548410156108235750602092611c09916137ea565b91905490519160031b1c8152f35b503461082357602036600319011261082357611c31615c2f565b6004356101495580f35b60208461074b611c4c366004613a0b565b94939290923394614ff8565b503461082357602036600319011261082357611c72615c2f565b6004356101405580f35b508234610790578160031936011261079057602090610190549051908152f35b503461082357602036600319011261082357611cb6615c2f565b6004356101415580f35b508234610790578160031936011261079057602090610134549051908152f35b508234610790578160031936011261079057602090610142549051908152f35b503461082357602036600319011261082357611d1a615c2f565b60043561013b5580f35b508234610790578160031936011261079057602090610156549051908152f35b508234610790578160031936011261079057602090610139549051908152f35b60208461074b611d753660046139d9565b93929190913393615145565b503461082357602036600319011261082357611d9b615c2f565b6004356101545580f35b5034610823576020366003190112610823576004356001600160a01b0381169081900361075257611dd4615c2f565b61015880546001600160a01b031916909117905580f35b503461082357602036600319011261082357611e05615c2f565b60043561013e5580f35b508234610790578160031936011261079057602090610154549051908152f35b508234610790578160031936011261079057602090610149549051908152f35b9091503660031901126108235750600435906001600160a01b038083168303610752576024359080821682036107525760a43581811681036107525760c43591821682036107525760209461074b93608435916064359160443591614ff8565b5034610823578060031936011261082357611ec8615c2f565b600160ff1960ca54161760ca5580f35b5082346107905781600319360112610790576020906118f8614bf3565b503461082357602036600319011261082357611f0f615c2f565b6004356101595580f35b50823461079057816003193601126107905761012f5490516001600160a01b039091168152602090f35b5082346107905761040036600319011261079057815460ff8160081c16159081809261247e575b8015612467575b1561240c5760ff1981166001178455816123fb575b5060ff835460081c16611f9881614744565b610384356001600160a01b03811690819003610752576101f680546001600160a01b03191690911790556001600160a01b03610344359081169081900361075257610364356001600160a01b038116810361075257600191611ff984614744565b61200284614744565b61200b84614744565b61201484614744565b6001600160601b0360a01b609754161760975561203083614744565b60ca5490620100008360b01b039060101b169061ff018360b01b031916171760ca5561205b81614744565b670de0b6b3a764000060c435106123ea5761207861010435615d02565b61208461012435615d02565b61209061014435615d02565b61209c61016435615d02565b6120a861018435615d02565b6120b46101a435615d02565b6120c06101c435615d02565b6120cc6101e435615d02565b6120d861020435615d02565b6120f06120eb6102443561022435614156565b615d02565b6004356001600160a01b038116908190036107525761014f80546001600160a01b03191690911790556024356001600160a01b03811681036107525761012f80546001600160a01b0319166001600160a01b0392831617905560443590811681036107525761013080546001600160a01b0319166001600160a01b0392831617905560643590811681036107525761013380546001600160a01b0319166001600160a01b0392831617905560843590811681036107525761014680546001600160a01b0319166001600160a01b0392831617905560a43590811681036107525761014780546001600160a01b0319166001600160a01b0392831617905560c4356101495560e43561014a556101043561013b556101243561013c556101443561013d556101643561013e556101843561013f556101a435610140556101c435610141556101e43561014255610204356101435561022435610139556102443561013a556102643561014c8190559061028435908116908190036107525761015880546001600160a01b03191690911790556102a435610159556102c43561015a819055906001600160a01b036102e435908116908190036107525761015280546001600160a01b03191690911790556001600160a01b03610304359081169081900361075257610153906001600160601b0360a01b82541617905561032435610154554361015755430161014d55430161015b5561014b61ffff1981541690556103a43561231d82614744565b80156123d957610190819055430161018f556103c4356001600160a01b03811681036107525761234f61237192614744565b6101c380546001600160a01b0319166001600160a01b03909216919091179055565b6103e4356001600160a01b038116908190036107525761022980546001600160a01b03191690911790556123a3575080f35b60207f7f26b83ff96e1f2b6a682f133852f6798a09c465da95921460cefb38474024989161ff001984541684555160018152a180f35b8351632a9ffab760e21b8152600490fd5b8251632a9ffab760e21b8152600490fd5b61ffff191661010117835583611f86565b825162461bcd60e51b815260206004820152602e60248201527f496e697469616c697a61626c653a20636f6e747261637420697320616c72656160448201526d191e481a5b9a5d1a585b1a5e995960921b6064820152608490fd5b50303b158015611f715750600160ff821614611f71565b50600160ff821610611f6a565b5082346107905781600319360112610790576101335490516001600160a01b039091168152602090f35b60208461074b6124c636600461382c565b949390939291926154df565b50823461079057816003193601126107905760209061014e549051908152f35b50823461079057816003193601126107905760209060ff60ca5460081c1690519015158152f35b508234610790578160031936011261079057612533615cbd565b61014d805443106127035761014c54430190557fd3c59bda47e141a8ec5a33d241b7f71b86e30d359f83a9227d912858b60404fc8280a1610137548261257882614362565b91845b818110612634575050806125ef575b918051928184019084526020918285015282518091528160608501930191855b8281106125db57867fae5116a8119d08673a0f1dfa7546b95da4bd54bb17feda7c61130ac7859152f687870388a180f35b8351855293810193928101926001016125aa565b612606670de0b6b3a7640000916101395490614288565b0461013161261582825461407b565b90556101465461262f9082906001600160a01b0316613f25565b61258a565b61263d8161449f565b6126478183614908565b86610150918661265785856137ea565b90549060031b1c91838313612674575b505050505060010161257b565b946126b9838296996126bf946126b3856126a66126ac6126d69a60019e670de0b6b3a764000093849161013a54614288565b04614288565b0492614163565b52614156565b976137ea565b819391549060031b91821b91600019901b19161790565b90556126f96126e58287614163565b5188848060a01b0361014754169184614848565b9086888681612667565b815163101b685960e01b8152600490fd5b8382346108235781600319360112610823576001600160a01b036004358181168103610752576024359161014f54163303610baf5790610bac9161014e828154039055613f25565b508234610790578160031936011261079057602090610157549051908152f35b503461082357602036600319011261082357612796615c2f565b6004356101435580f35b8382346108235781600319360112610823576001600160a01b036004358181168103610752578161014f54163303610baf5790610bac91602435916101335416615bf6565b5034610823576020366003190112610823576004356001600160a01b038116810361075257610bac9061234f615c2f565b60208461074b846128283660046139ac565b92919091615410565b838234610823578060031936011261082357507f00000000000000000000000000000000000000000000000000000000000000006001600160a01b0316300361289d57602090517f360894a13ba1a3210667c828492db98dca3e2076cc3735a920a3ca505d382bbc8152f35b5162461bcd60e51b815260206004820152603860248201527f555550535570677261646561626c653a206d757374206e6f742062652063616c60448201527f6c6564207468726f7567682064656c656761746563616c6c00000000000000006064820152608490fd5b503461082357806003193601126108235761291f615c2f565b60ff1960ca541660ca5580f35b50828060031936011261079057600435906001600160a01b039081831683036107525783926024359267ffffffffffffffff8411612a1c5736602385011215612a1c5783600401359061298a61298183613990565b94519485613958565b8184523660248387010111612a1857610bac95602083612a0b946024600199018389013786010152807f000000000000000000000000000000000000000000000000000000000000000016906129e282301415613a7d565b7f360894a13ba1a3210667c828492db98dca3e2076cc3735a920a3ca505d382bbc541614613ade565b612a13615c2f565b613b3f565b8580fd5b8480fd5b50823461079057816003193601126107905760209061013b549051908152f35b5082346107905781600319360112610790576101475490516001600160a01b039091168152602090f35b50823461079057816003193601126107905760209061014c549051908152f35b508234610790576020366003190112610790576004356101378054821015610a7f5790612ab69161393c565b50805460019091015482519182526001600160a01b03166020820152f35b90915034610790573660031901126108235750612aef6155ca565b5061014f546001600160a01b03908116330361128257610dce610dc491612b17366004615b83565b93612b206155ca565b50612b29614ea3565b612b31615cbd565b611244610d64825163d9b6c2e560e01b6020820152610d4960248201896151eb565b50826060366003190112610752576004356001600160a01b03811681036107525760209261074b9133906044359060243590614ec5565b83606036600319011261075257604435906001600160a01b03821682036107525761074b6020923360243560043561531d565b50826060366003190112610752576004356001600160a01b03811681036107525760209261074b9133906044359060243590615410565b50826060366003190112610752576004356001600160a01b03811681036107525760209261074b9133906044359060243590614f7f565b50826060366003190112610752576044356001600160a01b03811681036107525760209261074b91602435600435614d4a565b50823461079057816003193601126107905760209061013e549051908152f35b50823461079057816003193601126107905760209061074b612ca9612ca1614bf3565b919091614177565b916149ee565b50823461079057816003193601126107905760ca5460ff8160081c1615612d1957601081901c6001600160a01b03163303611b095761ff00191660ca55513381527f5db9ee0a495bf2e6ff9c91a7834c1ba4fdd244a5e8aa4e537bd38aeae4b073aa90602090a180f35b8151637c7fd07960e01b8152600490fd5b60208461074b612d3b366004613916565b9291909161531d565b5034610823576020366003190112610823576004356001600160a01b0381169081900361075257612d73615c2f565b61014f80546001600160a01b031916909117905580f35b503461082357602036600319011261082357612da4615c2f565b6004356101905580f35b9083346107905761010091826003193601126108235750612dcd6155ca565b5061014f546001600160a01b0392908316330361128257612df082519182613958565b600435838116810361075257815260243583811681036107525760208201526044358282015260643560608201526080810191608435835260a4359084821682036107525760a0830191825260c43585811681036107525760c084015260e4359285841684036107525785610dce95612eac610d64610966610d59866114849d610dc498019a8b52612e806155ca565b50612e89614ea3565b612e91615cbd565b88516370f090ed60e11b6020820152928391602483016150e1565b9892809b8a96939d9299865161147961014e91825461407b565b50823461079057602036600319011261079057600435916101389081548410156108235750602092611c09916137ea565b50823461079057602036600319011261079057600435906001600160a01b0390818316830361075257610bac92612f598386947f000000000000000000000000000000000000000000000000000000000000000016906129e282301415613a7d565b612f61615c2f565b612f76612f6d84613990565b92519283613958565b828252601f19612f8584613990565b01366020840137613b3f565b60208461074b84612fa33660046138ad565b9133936154df565b508234610790578160031936011261079057612fc561409e565b612fcd615cbd565b61014b805460ff811680613098575b8061307e575b612fea578380f35b61ff00191661010017905580519082907f8b77276c97a5709f0d6db52329848a254eb760ce8be80d281799f633bdb69e838280a1610133546001600160a01b0316803b1561098a5783600481858094638456cb5960e01b83525af19081156130735750613063575b505061305c614394565b8180808380f35b61306c91613958565b8181613052565b51913d9150823e3d90fd5b5061308d611862610bfc614566565b61014a541015612fe2565b5060ff8160081c1615612fdc565b50823461079057816003193601126107905760209061013f549051908152f35b508234610790578160031936011261079057602090610143549051908152f35b5034610823576020366003190112610823576004356001600160a01b038116810361079057613113615c2f565b60ca805462010000600160b01b03191660109290921b62010000600160b01b031691909117905580f35b503461082357602036600319011261082357613157615c2f565b60043561014a5580f35b60208461074b61317236600461382c565b9493909392919261523b565b508234610790578160031936011261079057602090610140549051908152f35b5034610823576020366003190112610823576004356001600160a01b03811690819003610790576131cd615c2f565b61014780546001600160a01b031916909117905580f35b5082346107905781600319360112610790576102295490516001600160a01b039091168152602090f35b508234610790576020366003190112610790576004356001600160a01b0381169081900361098a5782829160209452610144845220549051908152f35b50823461079057816003193601126107905760209060ff61014b5460081c1690519015158152f35b5082346107905760a03660031901126107905761328e6155ca565b5061014f546001600160a01b03929083163303611282579061331f916132b53660046155f1565b916132be6155ca565b506132c7614ea3565b6132cf615cbd565b670de0b6b3a76400006132f26110486132e96115a0614566565b875192916149ba565b04948184019080825116916133146080870193898486511661013c5492615691565b96918a999199614156565b9660208101998a51808a116134485750881561343757816020918660606133a29695519301511690610134613355848254614156565b9055613365610131918254614156565b90556101335489516340c10f1960e01b81526001600160a01b03909216600483015260248201929092529384918716908290859082906044820190565b03925af1801561342b576133d5575b50509661111c9282611484888895610dce9a9b9c865161147961014e91825461407b565b6020823d8211613423575b816133ed60209383613958565b8101031261082357509282611484888895610dce9a9b9c9561341161111c99613f7c565b50959c9b5095509850508194506133b1565b3d91506133e0565b508551903d90823e3d90fd5b865163f3e39b5d60e01b8152600490fd5b6044908a895191630b63f1a760e01b835260048301526024820152fd5b50346108235760203660031901126108235761347f615c2f565b6004356101425580f35b503461082357602036600319011261082357600435801515809103610790576134b0615c2f565b61014b9060ff8019835416911617905580f35b50823461079057816003193601126107905760209061074b6134e6610bfc614566565b906149ba565b50823461079057816003193601126107905760209061014d549051908152f35b50823461079057602036600319011261079057600435916001600160a01b0383168303610823575061074b602092339033906147a4565b60208461074b61355436600461382c565b94939093929192615145565b50823461079057816003193601126107905761014f5490516001600160a01b039091168152602090f35b5034610823576020366003190112610823576004356001600160a01b03811690819003610790576135b9615c2f565b61013080546001600160a01b031916909117905580f35b5034610823576020366003190112610823576135ea615c2f565b60043561013f5580f35b508234610790578160031936011261079057602090610159549051908152f35b5034610823576020366003190112610823576004356001600160a01b0381169081900361079057613643615c2f565b61014680546001600160a01b031916909117905580f35b50823461079057816003193601126107905760209061018f549051908152f35b50823461079057816003193601126107905760975490516001600160a01b039091168152602090f35b5082806003193601126107905761074b60209233602435600435614d4a565b5034610823576020366003190112610823576136dc615c2f565b60043561015a5580f35b508234610790578160031936011261079057613700615cbd565b61015b8054431061376e5790610bac9161015a54430190557f0e37fda283839477a1b77e29acf8336c0e13a5daa967913df0fe5ad258c0822f6020670de0b6b3a7640000613755610131546101595490614288565b049251838152a1610158546001600160a01b0316613f25565b815163acce20e560e01b8152600490fd5b508234610790576020366003190112610790576004359161013590815484101561082357506020926137b0916137ea565b905491519160018060a01b039160031b1c168152f35b5034610823576020366003190112610823576137e0615c2f565b60043561013a5580f35b80548210156138025760005260206000200190600090565b634e487b7160e01b600052603260045260246000fd5b35906001600160a01b038216820361075257565b91908260c09103126107525761384182613818565b9160208101359160408201359160608101359161386c60a061386560808501613818565b9301613818565b90565b6040906138ab939594929560c0820196825260208201520190606080918051845260208101516020850152604081015160408501520151910152565b565b9190826080910312610752576138c282613818565b916020810135916060604083013592013590565b6138ab9360609296959360e08301978352602083015260408201520190606080918051845260208101516020850152604081015160408501520151910152565b91908260809103126107525781359160208101359161386c606061386560408501613818565b80548210156138025760005260206000209060011b0190600090565b90601f8019910116810190811067ffffffffffffffff82111761397a57604052565b634e487b7160e01b600052604160045260246000fd5b67ffffffffffffffff811161397a57601f01601f191660200190565b9190826080910312610752576139c182613818565b9160208101359161386c606060408401359301613818565b908160a0910312610752576139ed81613818565b9160208201359160408101359161386c608060608401359301613818565b91908260c091031261075257613a2082613818565b91613a2d60208201613818565b9160408201359160608101359161386c60a060808401359301613818565b908160a091031261075257613a5f81613818565b9160208201359160408101359161386c608061386560608501613818565b15613a8457565b60405162461bcd60e51b815260206004820152602c60248201527f46756e6374696f6e206d7573742062652063616c6c6564207468726f7567682060448201526b19195b1959d85d1958d85b1b60a21b6064820152608490fd5b15613ae557565b60405162461bcd60e51b815260206004820152602c60248201527f46756e6374696f6e206d7573742062652063616c6c6564207468726f7567682060448201526b6163746976652070726f787960a01b6064820152608490fd5b9060ff7f4910fdfa16fed3260ed0e7147f7cc6da11a60208b5b9406d12a635614ffd91435416600014613b7757506138ab9150613d2b565b6040516352d1902d60e01b8152602093919291906001600160a01b038316908581600481855afa60009181613cfc575b50613c085760405162461bcd60e51b815260048101879052602e60248201527f45524331393637557067726164653a206e657720696d706c656d656e7461746960448201526d6f6e206973206e6f74205555505360901b6064820152608490fd5b9394937fc9f76b5ec45e5cdef99837d7b6d2467235c1df8933c8ca56df5c35afa2c7d44401613ca557613c3a83613d2b565b7fbc7cd75a20ee27fd9adebab32041f755214dbc6bffa90cc0225b39da2e5c2d3b600080a283511590811591613c9d575b50613c7557505050565b600080613c9a94613c84613dcd565b9481519101845af4613c94613e21565b91613e51565b50565b905038613c6b565b60405162461bcd60e51b815260048101859052602960248201527f45524331393637557067726164653a20756e737570706f727465642070726f786044820152681a58589b195555525160ba1b6064820152608490fd5b90918782813d8311613d24575b613d138183613958565b810103126108235750519038613ba7565b503d613d09565b803b15613d72577f360894a13ba1a3210667c828492db98dca3e2076cc3735a920a3ca505d382bbc80546001600160a01b0319166001600160a01b03909216919091179055565b60405162461bcd60e51b815260206004820152602d60248201527f455243313936373a206e657720696d706c656d656e746174696f6e206973206e60448201526c1bdd08184818dbdb9d1c9858dd609a1b6064820152608490fd5b613dd76027613990565b90613de56040519283613958565b60278252660819985a5b195960ca1b6040837f416464726573733a206c6f772d6c6576656c2064656c65676174652063616c6c60208201520152565b3d15613e4c573d90613e3282613990565b91613e406040519384613958565b82523d6000602084013e565b606090565b91929015613eb35750815115613e65575090565b3b15613e6e5790565b60405162461bcd60e51b815260206004820152601d60248201527f416464726573733a2063616c6c20746f206e6f6e2d636f6e74726163740000006044820152606490fd5b825190915015613ec65750805190602001fd5b6040519062461bcd60e51b82528160208060048301528251908160248401526000935b828510613f0c575050604492506000838284010152601f80199101168101030190fd5b8481018201518686016044015293810193859350613ee9565b9080613f2f575050565b6102295460405163a9059cbb60e01b60208201526001600160a01b03938416602482015260448101929092526138ab9216613f7782606481015b03601f198101845283613958565b613f89565b5190811515820361075257565b602091613fec916001600160a01b0316600080613fa586613990565b93613fb36040519586613958565b8685527f5361666545524332303a206c6f772d6c6576656c2063616c6c206661696c656487860152868151910182855af1613c94613e21565b805182811591821561405c575b50509050156140055750565b6084906040519062461bcd60e51b82526004820152602a60248201527f5361666545524332303a204552433230206f7065726174696f6e20646964206e6044820152691bdd081cdd58d8d9595960b21b6064820152fd5b838092935001031261075257816140739101613f7c565b808238613ff9565b9190820391821161408857565b634e487b7160e01b600052601160045260246000fd5b6140a7306140db565b610131906140c46140ba8354809361407b565b61014e549061407b565b806140ce57505050565b6140d791614156565b9055565b610229546040516370a0823160e01b81526001600160a01b0392831660048201529160209183916024918391165afa90811561414a5760009161411c575090565b906020823d8211614142575b8161413560209383613958565b8101031261082357505190565b3d9150614128565b6040513d6000823e3d90fd5b9190820180921161408857565b80518210156138025760209160051b010190565b906000916000906101378054906000925b8284106141ae57505050506141aa670de0b6b3a7640000916101395490614288565b0490565b90919293956141fb6141ea6141f56001936141ef6141cc8a88614163565b516141d7818c614221565b95906141e38d8c61393c565b5054614156565b615cde565b90614156565b98614156565b9401929190614188565b9190916000838201938412911290801582169115161761408857565b919060009061424f8160009561424561423c826101506137ea565b939054926142d4565b9160031b1c614205565b6000811361425e575b50509190565b6142809194506126a692508094670de0b6b3a764000093849161013a54614288565b043880614258565b8181029291811591840414171561408857565b81156142a5570490565b634e487b7160e01b600052601260045260246000fd5b8181039291600013801582851316918412161761408857565b6142e08161013761393c565b505490670de0b6b3a7640000918281029281840414901517156140885761386c92614320614313614326936101516137ea565b90549060031b1c8461429b565b9261429b565b906142bb565b8015614342576141ea61386c926101315461407b565b505060001990565b67ffffffffffffffff811161397a5760051b60200190565b9061436c8261434a565b6143796040519182613958565b828152809261438a601f199161434a565b0190602036910137565b610131548015613c9a57610137908154916000906143b184614362565b9082905b85821061442057505060005b8481106143cf575050505050565b6143ec846143e7856143e18587614163565b51614288565b61429b565b906101389182546801000000000000000081101561397a576126bf8160019586614418940181556137ea565b9055016143c1565b909261445c6001916144318661449f565b61443b8787614163565b526141ef614449878661393c565b50546144558888614163565b5190615cde565b9301906143b5565b6001600160a01b0316600090815261013660205260409020600181015460ff161561448d575490565b60405163e6c4247b60e01b8152600490fd5b6144ab9061013761393c565b50600101546001600160a01b03166144c281614500565b919091156144ce575090565b60249060405190637f6e4db960e01b82526004820152fd5b91908260409103126107525761386c602083519301613f7c565b604080516359e02dd760e01b81529291839060049082906001600160a01b03165afa91821561414a57600090819361453757509190565b905061455b91925060403d811161455f575b6145538183613958565b8101906144e6565b9091565b503d614549565b610137549061457482614362565b9160005b818110614583575050565b8061458f60019261449f565b6145998287614163565b5201614578565b906145c1670de0b6b3a764000092836101575461015454924301030261429b565b828110156145de5782039180836101555402049261015654020590565b50600091508190565b90916145f1614649565b92908082101561463f5783916146069161407b565b93111561463a57818110156146325761461e9161407b565b60011c8082101561462d575090565b905090565b505050600090565b505090565b5050505050600090565b61015254604080516359e02dd760e01b80825293929091906001600160a01b039081168284600481845afa8015614739576000948591614716575b50156146ff575061015354169080519485528085600481855afa80156146f45760009586916146d1575b50156146ba5750509190565b6024925051906305e8989360e11b82526004820152fd5b9050816146eb9296503d871161455f576145538183613958565b949094386146ae565b50513d6000823e3d90fd5b6024908351906305e8989360e11b82526004820152fd5b9050614730919450833d851161455f576145538183613958565b93909338614684565b83513d6000823e3d90fd5b1561474b57565b60405162461bcd60e51b815260206004820152602b60248201527f496e697469616c697a61626c653a20636f6e7472616374206973206e6f74206960448201526a6e697469616c697a696e6760a81b6064820152608490fd5b61480a916147b0615cbd565b6147b9306140db565b604051636845c44560e01b60208201526001600160a01b0393841660248201529183166044830152848316606483015260848083019190915281529061480060a483613958565b6101f65416614826565b60208180518101031261075257602061386c9101518092613f25565b9061386c91600080614836613dcd565b93602081519101845af4613c94613e21565b6148b69361487d6000926020956148618261013761393c565b5061486d878254614156565b9055611642610131918254614156565b90546040516340c10f1960e01b81526001600160a01b039093166004840152602483019490945290948593928492909183906044820190565b039360039190911b1c6001600160a01b03165af1801561414a576148d75750565b6020813d8211614900575b816148ef60209383613958565b8101031261075257613c9a90613f7c565b3d91506148e2565b6126bf6140d79161491984826142d4565b61494f614928836101506137ea565b61493b8294925492838360031b1c614205565b919060031b91821b91600019901b19161790565b90556101516137ea565b60e08101929160c09081906001600160a01b038061497683613818565b16855261498560208301613818565b16602085015260408101356040850152606081013560608501526080810135608085015260a081013560a08501520135910152565b90610134549081156149df5761386c926149da6141ea926101315461407b565b61407b565b505050670de0b6b3a764000090565b82826149f992614a16565b9060008213156146325761386c92614a10916149ba565b9061429b565b9091614a25906101315461407b565b90670de0b6b3a7640000918281029281840414901517156140885761386c9261432691614288565b92614a5b9293949194614a16565b81810291600091600160ff1b9183821283821416614aff578185051490151715614aeb57670de0b6b3a763ffff198401938411614aeb57670de0b6b3a764000093848102948186041490151715614aeb578315614ad7578214600019841416614ac357500590565b634e487b7160e01b81526011600452602490fd5b634e487b7160e01b82526012600452602482fd5b634e487b7160e01b82526011600452602482fd5b634e487b7160e01b84526011600452602484fd5b61014d5480431015614b2a5761386c90439061407b565b50600090565b90604051614b3f604082613958565b602060018294805484520154910152565b614b5c816101486137ea565b90549060031b1c9161018e91614b72818461393c565b50549261018f54431015614b98575b50508082101561463a576143e79061386c93614288565b829350614bac614bb79392614bb29261393c565b50614b30565b614bbf565b903880614b81565b602081519101805192670de0b6b3a76400009384039084821161408857614bec6141ef926141aa95614288565b9251614288565b60008061013791825492614c0684614362565b9382915b818310614c33575050508115614c275790614c249161429b565b91565b50506101495460011b91565b90919392614c408561449f565b9081614c4c8789614163565b52614c65614c5a8388614221565b506141e3888661393c565b670de0b6b3a76400009081810291818304149015171561408857614ca7614cad926141ef85614c99600197614ca296615cde565b9485918c614b50565b614288565b95614156565b94019190614c0a565b61018f8054431015614cc55750565b6101375460005b818110614cdf5750506101905443019055565b80807f19156e9379c7bbbce8f646ce5ee30ba860b8f954717405f3d5859a6c1a21ae6060019361018e614d15614bac838361393c565b90614d33614d2b614d258561449f565b84614bbf565b93849261393c565b50555160409182519182526020820152a201614ccc565b9260a4614de79160209394614d5d614ea3565b614d65615cbd565b60405196614d7460a089613958565b87528487018690523360408089019182526001600160a01b0392831660608a0190815293831660808a0190815261014f54915163e97a4d6360e01b81528a5160048201526020909a015160248b01529151831660448a015292518216606489015251811660848801528693849290911690565b34905af191821561414a57600092614e04575b5061386c90614e39565b90916020823d8211614e31575b81614e1e60209383613958565b810103126108235750519061386c614dfa565b3d9150614e11565b6138ab9061014e614e4b828254614156565b905561022954309033906001600160a01b03165b6040516323b872dd60e01b60208201526001600160a01b0392831660248201529290911660448301526064808301939093529181526138ab91613f77608483613958565b60ff61014b5460081c16614eb357565b604051631ca61d7760e01b8152600490fd5b9360209293614de79260c492614ed9614ea3565b614ee1615cbd565b60405197614ef060c08a613958565b60018060a01b03938493848093168b52888b01528860408b01523360608b01521660808901521660a087015261014f5416946040519586938492637e81a82160e01b845260048401905b60a09081600180821b03918281511685526020810151602086015260408101516040860152826060820151166060860152826080820151166080860152015116910152565b9360209293614de79260c492614f93614ea3565b614f9b615cbd565b60405197614faa60c08a613958565b60018060a01b03938493848093168b52888b01528860408b01523360608b01521660808901521660a087015261014f54169460405195869384926323ec24b560e11b84526004840190614f3a565b909294602092949561507f9761500c614ea3565b615014615cbd565b6040519361502461010086613958565b60018060a01b039384938480809416998a8952168888015289604088015260608701528960808701523360a08701521660c08501521660e083015261014f541660405180809881946334975a4160e01b8352600483016150e1565b039134905af193841561414a576000946150ac575b5061386c92916150a79130903390614e5f565b614e39565b90936020823d82116150d9575b816150c660209383613958565b810103126108235750519261386c615094565b3d91506150b9565b91909160e06101008201938160018060a01b03918281511685528260208201511660208601526040810151604086015260608101516060860152608081015160808601528260a08201511660a08601528260c08201511660c0860152015116910152565b60e482602080949697986151c69461515b614ea3565b615163615cbd565b6040519a8b9861517460e08b613958565b60018060a01b03958695868095169b8c8152015260408d01528a60608d01523360808d01521660a08b01521660c089015261014f54169660405197889384926263744760e11b845260048401906151eb565b34905af193841561414a576000946150ac575061386c92916150a79130903390614e5f565b60c0908160018060a01b03918281511685526020810151602086015260408101516040860152606081015160608601528260808201511660808601528260a08201511660a0860152015116910152565b949391909293615249614ea3565b615251615cbd565b6040519561526060e088613958565b60018060a01b039384938480931689528660208a015260408901528660608901523360808901521660a08701521660c085015260206152bd60e48361014f5416966040519788938492636b59c22f60e01b845260048401906151eb565b34905af193841561414a576000946152e8575b5061386c92916150a791610133541630903390614e5f565b90936020823d8211615315575b8161530260209383613958565b810103126108235750519261386c6152d0565b3d91506152f5565b91929092615329614ea3565b615331615cbd565b6040519361534060a086613958565b83855260208086019182523360408088019182526001600160a01b03948516606089019081529585166080890190815261014f54915163fa91a9a560e01b8152985160048a0152935160248901529051841660448801529351831660648701529051821660848601529091849060a4908290851634905af192831561414a576000936153db575b509061386c91610133541630903390614e5f565b90926020823d8211615408575b816153f560209383613958565b810103126108235750519161386c6153c7565b3d91506153e8565b60c46020929461548892615422614ea3565b61542a615cbd565b6040519761543960c08a613958565b60018060a01b0380938180941698898c528a898d015260408c01523360608c01521660808a01521660a088015261014f5416956040519687938492636426c5db60e11b84526004840190614f3a565b34905af192831561414a576000936154aa575b509061386c9130903390614e5f565b90926020823d82116154d7575b816154c460209383613958565b810103126108235750519161386c61549b565b3d91506154b7565b939091936154eb614ea3565b6154f3615cbd565b6040519561550260e088613958565b60018060a01b0380938180941696878a528660208b01528860408b015260608a01523360808a01521660a08801521660c0860152602061556060e48361014f541697604051988993849263e4e1b72960e01b845260048401906151eb565b34905af194851561414a57600095615595575b5061386c93929161558c91610133541630903390614e5f565b30903390614e5f565b90946020823d82116155c2575b816155af60209383613958565b810103126108235750519361386c615573565b3d91506155a2565b604051906155d9608083613958565b60006060838281528260208201528260408201520152565b91908260a09103126107525760405161560b60a082613958565b6080615649818395803585526020810135602086015261562d60408201613818565b604086015261563e60608201613818565b606086015201613818565b910152565b919061565990614177565b919092615666838561432c565b9080821115615673575050565b6044925060405191637912120160e01b835260048301526024820152fd5b9290939160009160009182966156a56155ca565b966001600160a01b039185908316806158b1575b508261012f54168360405193636eb1769f60e11b8552168060048501523060248501526020948585604481865afa9485156158a6578495615877575b5084615756575b505050505086015115615712575b505050929190565b9091925061572a670de0b6b3a7640000928392614288565b0480855290821561574e57615746920490816040860152614156565b38808061570a565b509050615746565b615764906101305416614500565b929092156156fc57909192939b50848b61579e85670de0b6b3a764000061579861578e8d8d614288565b6101435490614288565b0461429b565b81830181815295908b1561586d57506157c9916157bd6060928d61429b565b91829101528551614156565b809d5b109283156157f8575b5050506157e5575b8080806156fc565b81929950528060608801529638806157dd565b909192506024604051809481936370a0823160e01b835260048301525afa90811561586257908b918491615831575b50103884816157d5565b809250858092503d831161585b575b61584a8183613958565b8101031261098a578a905138615827565b503d615840565b6040513d85823e3d90fd5b915050809d6157cc565b9094508581813d831161589f575b61588f8183613958565b81010312610a7f575193386156f5565b503d615885565b6040513d86823e3d90fd5b9095506020836101c35416916024604051809481936364a731e960e01b835260048301525afa80156159295786906158f6575b6158ef915084614288565b94386156b9565b506020813d8211615921575b8161590f60209383613958565b81010312612a18576158ef90516158e4565b3d9150615902565b6040513d88823e3d90fd5b926138ab94919293825115156000146159a45750604061599f92615997670de0b6b3a764000061596961013b54845190614288565b04610131615978828254614156565b905561599160018060a01b03610146541691845161407b565b90613f25565b015190613f25565b613f25565b90606061599f936159c660018060a01b036101465416602083015190866159ca565b0151915b9190816159d657505050565b61012f546138ab93906001600160a01b0316614e5f565b91908260c091031261075257604051615a0760c082613958565b60a0615649818395615a1881613818565b85526020810135602086015260408101356040860152615a3a60608201613818565b6060860152615a4b60808201613818565b608086015201613818565b90615a6394939291614a4d565b60008112614b2a5790565b80615a77614649565b919093615a8460006145a0565b9401938291615b1c575b0193846000808212615b1657505b840391818511615ade575050818111615ac057505061015555610156554361015755565b60449250604051916306da41e560e11b835260048301526024820152fd5b9080859211615b0457604491604051916306da41e560e11b835260048301526024820152fd5b604051630fb4fd3560e11b8152600490fd5b03615a9c565b90508160000390615a8e565b80910360e08112610752578151926020830151926080604082015193605f1901126107525760c060405191615b5e608084613958565b606081015183526080810151602084015260a081015160408401520151606082015290565b91908260e091031261075257604051615b9d60e082613958565b60c0615649818395615bae81613818565b8552602081013560208601526040810135604086015260608101356060860152615bda60808201613818565b6080860152615beb60a08201613818565b60a086015201613818565b60405163a9059cbb60e01b60208201526001600160a01b03909216602483015260448201929092526138ab91613f778260648101613f69565b60975460405163d994d6d560e01b815233600482015290602090829060249082906001600160a01b03165afa90811561414a57600091615c84575b5015615c7257565b604051631dd1b1b560e21b8152600490fd5b906020823d8211615cb5575b81615c9d60209383613958565b810103126108235750615caf90613f7c565b38615c6a565b3d9150615c90565b60ff60ca5460081c16615ccc57565b60405163783bb6c960e11b8152600490fd5b90670de0b6b3a7640000918281029281840414901517156140885761386c9161429b565b670de0b6b3a764000010615d1257565b604051632a9ffab760e21b8152600490fdfea264697066735822122066caea7aeeb5a7b21ba598ea7e5ea2caf825e5faec95cffdc6832c2bb376aa7664736f6c6343000814003360a08060405234620000e157306080526000549060ff8260081c166200008f575060ff8082160362000053575b604051613f209081620000e78239608051818181611edc0152818161204d01526122d30152f35b60ff90811916176000557f7f26b83ff96e1f2b6a682f133852f6798a09c465da95921460cefb3847402498602060405160ff8152a1386200002c565b62461bcd60e51b815260206004820152602760248201527f496e697469616c697a61626c653a20636f6e747261637420697320696e697469604482015266616c697a696e6760c81b6064820152608490fd5b600080fdfe6080604052600436101561001257600080fd5b600060e08135811c90816301dde6ef146127d857816301f1b68414612790578163073763b91461276c5781630c340a24146127435781630c36d897146127245781630d6ac463146126de5781630db49656146126bf5781630e0a8fd21461269b5781630f1e5e2b1461265557816313ed7ba51461262b5781631867e2f51461260c5781631fe6a7ad146125d25781632069f753146125ae57816323b98cde1461258757816324ffaba31461254957816327eab2a1146125035781632a20d57d146124e45781632c43bd3b146124c05781632d88af4a146124695781632ded50f01461244a578163333431fd1461242b57816333421c381461233a5781633659cfe6146122a15781633915edcb146122725781633bc4ac0a1461224e5781633cfb09ef146122085781633f4ba83a1461218d578163407f0e341461216e5781634b746001146121215781634d977e78146121025781634e1f907a146120d85781634f0f27ee146120b95781634f1ef28614611fc55781635210570c14611f9f57816352d1902d14611ec9578163543aeb4814611ea55781635860ee6314611e865781635c975abb14611e605781635cfbe57814611e4157816360009e0b14611e17578163647846a514611ded57816364ec230a14611dc9578163662013f414611da55781636827435714611d7c5781636845c44514611b7d5781636b5488df14611b5e5781636f30471f14611b3f5781637071346814611b1b578163735d396014611ad557816373e28af914611ab15781637554fffd14611a925781637622805514611a735781637750ba0c14611a4f57816379f9a91c14611a305781637a193c3114611a115781637a4ff1d9146119ed5781637a727fe8146119ce5781637af5758c146119aa5781637b5a17ae146117df5781637cba2383146117bb5781637d8e03141461177e5781637f01c715146117545781637f13b998146117205781637f4a4fe0146117015781638456cb591461166a57816385bf9593146116245781638cfa4241146116055781638e2bdb86146115db5781639853c35a146115b15781639ad6659d146115775781639cabfc001461152a5781639fd0506d146114fd578163a8e9ac30146114db578163aea038dc146114bc578163b5e9ea8c14611492578163b9fa641314611473578163bb4872de14611450578163becaca6b1461142c578163c00f538d14611408578163c84353c9146113e4578163cf351c1d1461139e578163d1a0faa014611382578163d6af11da14611340578163d87aab6f14611321578163d8db6f5a146112db578163d9b6c2e514611153578163db79607214610edb578163ddb6d19014610e9d578163e1e121da14610c41578163e44bb51214610a3f578163e4c0aaf4146109fa578163e6b1627c146109b7578163e7c2597814610993578163ee1f438f14610969578163f13f40541461093f578163f26114aa14610750578163f28087781461072c578163f30b56141461070d578163f375cfba146106ee578163f5571e011461054657508063fa6e83bd14610527578063fadda424146104ae5763fda70f8b1461048d57600080fd5b346104ab57806003193601126104ab57602061013c54604051908152f35b80fd5b50346104ab5760203660031901126104ab576001600160a01b036004358181168103610522576104ea6104e2600192613106565b61013761283e565b500154166104f781613185565b9190911561050a57602082604051908152f35b60249060405190637f6e4db960e01b82526004820152fd5b600080fd5b50346104ab57806003193601126104ab57602061013a54604051908152f35b36600319011290506104ab5761055d3660046128ae565b9061056661342d565b5061056f6131e7565b906105f060018060a01b039161058783865116613106565b926105aa6105958587612dc7565b51956105a187876135d8565b61014954613595565b6105ea60208996939601976105e56105c3828b51613ec6565b976105e06105d68c516101345490612eff565b9561013154612fc4565b612fc4565b612eff565b90613ec6565b95604081015180881080156106e6575b6106c8575061062182608083015116858460c08501511661013f5492613658565b96919790956060840151808a116106a957509261065886610662969460a09461065160016106a59d9c9b996138f0565b51906139aa565b015116908761351e565b604051948594859293606091959460c09360e086019786526020860152604085015280518285015260208101516080850152604081015160a08501520151910152565b0390f35b604490895160405191630b63f1a760e01b835260048301526024820152fd5b604490886040519163f577bef560e01b835260048301526024820152fd5b508715610600565b82346104ab57806003193601126104ab57602061014154604051908152f35b82346104ab57806003193601126104ab57602061013154604051908152f35b82346104ab5760203660031901126104ab57610746613e17565b60043561013c5580f35b90503461093b573660031901126104ab576004356001600160a01b0381811691829003610522578183526101366020526040832060ff60016040519261079760408561285a565b8054845201541615801560208301526108ed57519060243590808216809203610522576101379060016107ca858461283e565b500154168203610873575b847f6417e5a3c1e0e5dae98b8fe718c4babdfcb35e0d7b5e1b9641b5914756f5d8e36004858761082661080a836101486127fc565b6044929192359083549060031b91821b91600019901b19161790565b90558085526101446020526064356040862055845261014560205260843560408520556108558161018e61283e565b50600160c43591015561086d604051928392836133c5565b0390a180f35b9190926040516359e02dd760e01b8152604081600481885afa9081156109305786916108ff575b50156108ed577f6417e5a3c1e0e5dae98b8fe718c4babdfcb35e0d7b5e1b9641b5914756f5d8e39360016108d08460049661283e565b5001906001600160601b0360a01b825416179055928192506107d5565b60405163e6c4247b60e01b8152600490fd5b610921915060403d604011610929575b610919818361285a565b81019061316b565b90503861089a565b503d61090f565b6040513d88823e3d90fd5b5080fd5b82346104ab57806003193601126104ab57610130546040516001600160a01b039091168152602090f35b82346104ab57806003193601126104ab57610152546040516001600160a01b039091168152602090f35b82346104ab57806003193601126104ab57602060ff61014b54166040519015158152f35b82346104ab5760203660031901126104ab576004359061018e9081548310156104ab5760406109e6848461283e565b506001815491015482519182526020820152f35b82346104ab5760203660031901126104ab576004356001600160a01b0381169081900361093b57610a29613e17565b6001600160601b0360a01b609754161760975580f35b8260c03660031901126104ab5760405190610a5b60c08361285a565b6001600160a01b039060043582811681036105225783526020830160243581526040840192604435845260643590808216820361052257606086019182526084358181168103610522576080870190815260a4359482861686036105225760a08801958652610ac861342d565b50610add83610ad56131e7565b995116613106565b91610b00610aeb848b612dc7565b5199610af78b866135d8565b61014a54613595565b99610b1788519b610b118388613c22565b93613629565b91670de0b6b3a763ffff198101908111610c2d5781610b39610b3e928e612eff565b612f12565b98670de0b6b3a764000092838b02908b820485148c151715610c1757610b6391612f12565b9b838102938185041490151715610c1757610bae9787610b91610b8a610ba3958397612f12565b809d612ddb565b98899251169251166101425492613658565b989187989198612ddb565b9951808b11610bf957508915610be757610bdd61066296610bd2866106a59c6138f0565b83855116908d61351e565b5191511692613454565b60405163f3e39b5d60e01b8152600490fd5b6044908b60405191630b63f1a760e01b835260048301526024820152fd5b634e487b7160e01b600052601160045260246000fd5b634e487b7160e01b85526011600452602485fd5b905061010080600319360112610e9957610c5e604051918261285a565b6004356001600160a01b03811681036105225781526024356001600160a01b038116810361052257602082019081526044356040830152606082019360643585526080830191608435835260a4359460018060a01b03861686036105225760a0850195865260c4356001600160a01b03811681036105225760c086015260e435906001600160a01b0382168203610522578501908152610cfc61342d565b50845182516001600160a01b03908116911614610e87578451610d3b90610d2b906001600160a01b0316613106565b92516001600160a01b0316613106565b95610d458361312f565b90610d4f8861312f565b610d5983866135d8565b610d63818a6135d8565b610d718360408a0151613ec6565b92610d8481610b398460408d0151612eff565b9a51808c108015610e7f575b610e615750908a8a610dd796959493610db3610dac8584613c22565b918a613c22565b10610e32575b50509051925161013e54936001600160a01b03918216925016613658565b959196909451808811610e1357509160408492610e0b610662956106a59998978c60018060a01b0360c08601511692613454565b0151906139aa565b604490875160405191630b63f1a760e01b835260048301526024820152fd5b610e51610e5993610e41613d83565b610e49613cc5565b819391613595565b949093613a95565b388a8a610db9565b6044908c6040519163272e3f5960e21b835260048301526024820152fd5b508b15610d90565b604051632a9ffab760e21b8152600490fd5b8280fd5b82346104ab5760203660031901126104ab576004356001600160a01b0381169081900361052257816040916020935261014583522054604051908152f35b90503461093b573660031901126104ab576004356001600160a01b03818116918290036105225760248035828116809103610522578385526101369360209085825260019260ff8460408a20015416611141576101359586549785604051610f4460408261285a565b8a815286810192828452868d52875260408c2090518155019051151560ff801983541691161790558654600160401b978882101561112e5790610f8b9187820181556127fc565b81549060031b908386831b921b1916179055604051610fab60408261285a565b8981528481019283526101378054908982101561111b5790610fd191888201815561283e565b91909161110857908691518155019151166001600160601b0360a01b82541617905561100160443561014861301b565b808752610144825260643560408820558652610145815260843560408720556040519061102f60408361285a565b60a4358252810160c435815261018e805490868210156110f5579061105891858201815561283e565b9290926110e25790839151835551910155610150918254938410156110d05750827f6417e5a3c1e0e5dae98b8fe718c4babdfcb35e0d7b5e1b9641b5914756f5d8e394926110ab926004950181556127fc565b50506110c16110b98261312f565b61015161301b565b61086d604051928392836133c5565b634e487b7160e01b8652604160045285fd5b634e487b7160e01b885260048890528488fd5b634e487b7160e01b895260416004528589fd5b634e487b7160e01b8b5260048b9052878bfd5b634e487b7160e01b8c526041600452888cfd5b634e487b7160e01b8b526041600452878bfd5b604051633458f6c560e01b8152600490fd5b36600319011290506104ab5761116a3660046128ae565b9061117361342d565b5061117c613d83565b611184613cc5565b929060018060a01b039261119a84845116613106565b906111ba6111a88388612dc7565b51966111b488856135d8565b84613595565b602086979297019687516111cf838389613bda565b8181106112bd575050906111fb918851670de0b6b3a76400009384916111f58585613629565b90612eff565b04968715610be7576112379361122e6112248d6105e58e516111f5886105e08b61013154612fc4565b6101345490612f12565b049a8b88613a95565b604085015180881061129f575061126081608087015116858360c0890151166101405492613658565b96919790956060830151808a116106a957509260a08593611296858d956112906106629a6106a59e9d9c9a6138f0565b51613a34565b01511692613454565b604490886040519163272e3f5960e21b835260048301526024820152fd5b604492506040519163a5db715d60e01b835260048301526024820152fd5b82346104ab5760203660031901126104ab576004356001600160a01b038116908190036105225761130a613e17565b61015280546001600160a01b031916909117905580f35b82346104ab57806003193601126104ab57602061015554604051908152f35b82346104ab57806003193601126104ab57602061137a6113606001613221565b61137461136d8284612f32565b9183612e76565b91613268565b604051908152f35b82346104ab57806003193601126104ab5761139b613d83565b80f35b82346104ab5760203660031901126104ab576004356001600160a01b03811690819003610522576113cd613e17565b61012f80546001600160a01b031916909117905580f35b82346104ab5760203660031901126104ab576113fe613e17565b60043561014c5580f35b82346104ab5760203660031901126104ab57611422613e17565b60043561013d5580f35b82346104ab5760203660031901126104ab57611446613e17565b6004356101395580f35b82346104ab57806003193601126104ab57602060ff60ca54166040519015158152f35b82346104ab57806003193601126104ab57602061015b54604051908152f35b82346104ab57806003193601126104ab57610153546040516001600160a01b039091168152602090f35b82346104ab57806003193601126104ab57602061013d54604051908152f35b82346104ab57806003193601126104ab57602061018f54431015604051908152f35b82346104ab57806003193601126104ab5760ca5460405160109190911c6001600160a01b03168152602090f35b82346104ab5760203660031901126104ab576004356001600160a01b0381169081900361052257604082819281526101366020522060ff6001825492015416825191825215156020820152f35b82346104ab57806003193601126104ab5760206115a361159d6115986131e7565b612de8565b90612fa6565b61014a541015604051908152f35b82346104ab57806003193601126104ab57610146546040516001600160a01b039091168152602090f35b82346104ab57806003193601126104ab57610158546040516001600160a01b039091168152602090f35b82346104ab57806003193601126104ab57602061014a54604051908152f35b82346104ab5760203660031901126104ab576004356001600160a01b0381169081900361052257611653613e17565b61015380546001600160a01b031916909117905580f35b82346104ab57806003193601126104ab57611683613ea5565b60ca54601081901c6001600160a01b031633036116ef5760ff8116156116dd576101009061ff0019161760ca557f62e78cea01bee320cd4e420270b5ea74000d11b0c9f74754ebdbfc544b05a2586020604051338152a180f35b60405163866099c360e01b8152600490fd5b604051631d77d47760e21b8152600490fd5b82346104ab57806003193601126104ab57602061015a54604051908152f35b82346104ab57806003193601126104ab57602061137a6117406001613221565b61137461174d8284612e76565b9183612f32565b82346104ab57806003193601126104ab576101c3546040516001600160a01b039091168152602090f35b82346104ab5760203660031901126104ab57600435906101489081548310156104ab5760206117ad84846127fc565b90546040519160031b1c8152f35b82346104ab5760203660031901126104ab576117d5613e17565b6004356101495580f35b36600319011290506104ab576117f63660046128ae565b6117fe61342d565b50611807613d83565b61180f613cc5565b82519192916001600160a01b0390611828908216613106565b906118426118368385612dc7565b5193610af785856135d8565b95670de0b6b3a763ffff1990818101908111611996576118629086612eff565b61186c8686613c22565b918201918211611996576118b09493929161188691612f12565b9061189a60208801926105e5838551612eff565b670de0b6b3a76400009586916101345490612f12565b04976040880151808a1161197857506118cb90835192613629565b958589029089820487148a151715610c17576118e691612f12565b908115610be75761190a61192f9661190360609961192494612eff565b0483612ddb565b93848160808b0151169160c08b0151166101415492613658565b979185979197612fc4565b97015180881061195a5750926119558899936106a59899936112906001610662986138f0565b6139aa565b60449088604051916354cde31360e01b835260048301526024820152fd5b6044908a60405191637a031da360e11b835260048301526024820152fd5b634e487b7160e01b89526011600452602489fd5b82346104ab5760203660031901126104ab576119c4613e17565b6004356101405580f35b82346104ab57806003193601126104ab57602061019054604051908152f35b82346104ab5760203660031901126104ab57611a07613e17565b6004356101415580f35b82346104ab57806003193601126104ab57602061013454604051908152f35b82346104ab57806003193601126104ab57602061014254604051908152f35b82346104ab5760203660031901126104ab57611a69613e17565b60043561013b5580f35b82346104ab57806003193601126104ab57602061015654604051908152f35b82346104ab57806003193601126104ab57602061013954604051908152f35b82346104ab5760203660031901126104ab57611acb613e17565b6004356101545580f35b82346104ab5760203660031901126104ab576004356001600160a01b0381169081900361052257611b04613e17565b61015880546001600160a01b031916909117905580f35b82346104ab5760203660031901126104ab57611b35613e17565b60043561013e5580f35b82346104ab57806003193601126104ab57602061015454604051908152f35b82346104ab57806003193601126104ab57602061014954604051908152f35b82346104ab5760803660031901126104ab576004356001600160a01b038181169290838303610522576024358181169182820361052257604435818116809103610522576064359560ff61014b5460081c1615611d6a57611bdd90613106565b90611bea826101356127fc565b95905498604051966370a0823160e01b8852826004890152876024818860209e8f9560031b1c165afa968715611d5f578897611d30575b508615611d1257611c44611c37856101386127fc565b90549060031b1c88613ec6565b98898110611d08575b5090611c8c9392917ffaab3901cd2d6e9b5d0a0c6e34c643b8c844726f3c54de69517e571bf24bbd9260408c8c8251918c8352820152a46101356127fc565b90549060031b1c1690813b15611d0457604051632770a7eb60e21b81526001600160a01b03919091166004820152602481019290925282908290604490829084905af18015611cf957611ce4575b5050604051908152f35b611cef82809261285a565b6104ab5780611cda565b6040513d84823e3d90fd5b8380fd5b9850611c8c611c4d565b60448760405190633fe8c5eb60e01b82528060048301526024820152fd5b9096508981813d8311611d58575b611d48818361285a565b810103126105225751958a611c21565b503d611d3e565b6040513d8a823e3d90fd5b60405163031b0d3560e11b8152600490fd5b82346104ab57806003193601126104ab57611d95613e17565b600160ff1960ca54161760ca5580f35b82346104ab57806003193601126104ab576020611dc0613cc5565b50604051908152f35b82346104ab5760203660031901126104ab57611de3613e17565b6004356101595580f35b82346104ab57806003193601126104ab5761012f546040516001600160a01b039091168152602090f35b82346104ab57806003193601126104ab57610133546040516001600160a01b039091168152602090f35b82346104ab57806003193601126104ab57602061014e54604051908152f35b82346104ab57806003193601126104ab57602060ff60ca5460081c166040519015158152f35b82346104ab57806003193601126104ab57602061015754604051908152f35b82346104ab5760203660031901126104ab57611ebf613e17565b6004356101435580f35b82346104ab57806003193601126104ab577f00000000000000000000000000000000000000000000000000000000000000006001600160a01b03163003611f345760206040517f360894a13ba1a3210667c828492db98dca3e2076cc3735a920a3ca505d382bbc8152f35b60405162461bcd60e51b815260206004820152603860248201527f555550535570677261646561626c653a206d757374206e6f742062652063616c60448201527f6c6564207468726f7567682064656c656761746563616c6c00000000000000006064820152608490fd5b82346104ab57806003193601126104ab57611fb8613e17565b60ff1960ca541660ca5580f35b8260403660031901126104ab576001600160a01b0360043581811681036105225782916024359167ffffffffffffffff83116120b457366023840112156120b457826004013561201481612892565b92612022604051948561285a565b81845236602483870101116120b05761139b956020836120a3946024600199018389013786010152807f0000000000000000000000000000000000000000000000000000000000000000169061207a82301415612926565b7f360894a13ba1a3210667c828492db98dca3e2076cc3735a920a3ca505d382bbc541614612987565b6120ab613e17565b6129e8565b8580fd5b505050fd5b82346104ab57806003193601126104ab57602061013b54604051908152f35b82346104ab57806003193601126104ab57610147546040516001600160a01b039091168152602090f35b82346104ab57806003193601126104ab57602061014c54604051908152f35b82346104ab5760203660031901126104ab57600435906101379081548310156104ab576040612150848461283e565b50805460019091015482519182526001600160a01b03166020820152f35b82346104ab57806003193601126104ab57602061013e54604051908152f35b82346104ab57806003193601126104ab5760ca5460ff8160081c16156121f657601081901c6001600160a01b031633036116ef5761ff00191660ca557f5db9ee0a495bf2e6ff9c91a7834c1ba4fdd244a5e8aa4e537bd38aeae4b073aa6020604051338152a180f35b604051637c7fd07960e01b8152600490fd5b82346104ab5760203660031901126104ab576004356001600160a01b0381169081900361052257612237613e17565b61014f80546001600160a01b031916909117905580f35b82346104ab5760203660031901126104ab57612268613e17565b6004356101905580f35b82346104ab5760203660031901126104ab57600435906101389081548310156104ab5760206117ad84846127fc565b82346104ab5760203660031901126104ab576004356001600160a01b0380821682036105225761139b916123008285937f0000000000000000000000000000000000000000000000000000000000000000169061207a82301415612926565b612308613e17565b61231182612892565b9061231f604051928361285a565b828252601f1961232e84612892565b013660208401376129e8565b82346104ab57806003193601126104ab57612353613ea5565b61014b805460ff81168061241d575b80612403575b612370578280f35b61ff0019166101001790556040517f8b77276c97a5709f0d6db52329848a254eb760ce8be80d281799f633bdb69e838280a16101335482906001600160a01b0316803b1561093b5782600481848094638456cb5960e01b83525af180156123f6576123e6575b50506123e0613058565b81808280f35b6123ef9161285a565b81816123d6565b50604051903d90823e3d90fd5b5061241261159d6115986131e7565b61014a541015612368565b5060ff8160081c1615612362565b82346104ab57806003193601126104ab57602061013f54604051908152f35b82346104ab57806003193601126104ab57602061014354604051908152f35b82346104ab5760203660031901126104ab576004356001600160a01b038116810361093b57612496613e17565b60ca805462010000600160b01b03191660109290921b62010000600160b01b031691909117905580f35b82346104ab5760203660031901126104ab576124da613e17565b60043561014a5580f35b82346104ab57806003193601126104ab57602061014054604051908152f35b82346104ab5760203660031901126104ab576004356001600160a01b0381169081900361093b57612532613e17565b61014780546001600160a01b031916909117905580f35b82346104ab5760203660031901126104ab576004356001600160a01b0381169081900361093b57816040916020935261014483522054604051908152f35b82346104ab57806003193601126104ab57602060ff61014b5460081c166040519015158152f35b82346104ab5760203660031901126104ab576125c8613e17565b6004356101425580f35b82346104ab5760203660031901126104ab5760043580151580910361093b576125f9613e17565b61014b9060ff8019835416911617905580f35b82346104ab57806003193601126104ab57602061014d54604051908152f35b82346104ab57806003193601126104ab5761014f546040516001600160a01b039091168152602090f35b82346104ab5760203660031901126104ab576004356001600160a01b0381169081900361093b57612684613e17565b61013080546001600160a01b031916909117905580f35b82346104ab5760203660031901126104ab576126b5613e17565b60043561013f5580f35b82346104ab57806003193601126104ab57602061015954604051908152f35b82346104ab5760203660031901126104ab576004356001600160a01b0381169081900361093b5761270d613e17565b61014680546001600160a01b031916909117905580f35b82346104ab57806003193601126104ab57602061018f54604051908152f35b82346104ab57806003193601126104ab576097546040516001600160a01b039091168152602090f35b82346104ab5760203660031901126104ab57612786613e17565b60043561015a5580f35b82346104ab5760203660031901126104ab57600435906101359081548310156104ab5760206127bf84846127fc565b905460405160039290921b1c6001600160a01b03168152f35b82346104ab5760203660031901126104ab576127f2613e17565b60043561013a5580f35b80548210156128145760005260206000200190600090565b634e487b7160e01b600052603260045260246000fd5b35906001600160a01b038216820361052257565b80548210156128145760005260206000209060011b0190600090565b90601f8019910116810190811067ffffffffffffffff82111761287c57604052565b634e487b7160e01b600052604160045260246000fd5b67ffffffffffffffff811161287c57601f01601f191660200190565b91908260e0910312610522576040516128c860e08261285a565b60c06129218183956128d98161282a565b85526020810135602086015260408101356040860152606081013560608601526129056080820161282a565b608086015261291660a0820161282a565b60a08601520161282a565b910152565b1561292d57565b60405162461bcd60e51b815260206004820152602c60248201527f46756e6374696f6e206d7573742062652063616c6c6564207468726f7567682060448201526b19195b1959d85d1958d85b1b60a21b6064820152608490fd5b1561298e57565b60405162461bcd60e51b815260206004820152602c60248201527f46756e6374696f6e206d7573742062652063616c6c6564207468726f7567682060448201526b6163746976652070726f787960a01b6064820152608490fd5b909160ff7f4910fdfa16fed3260ed0e7147f7cc6da11a60208b5b9406d12a635614ffd91435416600014612a235750612a219150612c51565b565b604080516352d1902d60e01b8152602094919392906001600160a01b038416908681600481855afa60009181612c22575b50612ab457855162461bcd60e51b815260048101889052602e60248201527f45524331393637557067726164653a206e657720696d706c656d656e7461746960448201526d6f6e206973206e6f74205555505360901b6064820152608490fd5b9395929492937fc9f76b5ec45e5cdef99837d7b6d2467235c1df8933c8ca56df5c35afa2c7d44401612bcc57612ae986612c51565b7fbc7cd75a20ee27fd9adebab32041f755214dbc6bffa90cc0225b39da2e5c2d3b600080a283511590811591612bc4575b50612b26575b50505050565b612bb093600080612b376027612892565b95612b448551978861285a565b602787527f416464726573733a206c6f772d6c6576656c2064656c65676174652063616c6c86880152660819985a5b195960ca1b858801528581519101845af4913d15612bba573d612ba1612b9882612892565b9251928361285a565b8152600081943d92013e612cf3565b5038808080612b20565b5060609250612cf3565b905038612b1a565b825162461bcd60e51b815260048101859052602960248201527f45524331393637557067726164653a20756e737570706f727465642070726f786044820152681a58589b195555525160ba1b6064820152608490fd5b90918882813d8311612c4a575b612c39818361285a565b810103126104ab5750519038612a54565b503d612c2f565b803b15612c98577f360894a13ba1a3210667c828492db98dca3e2076cc3735a920a3ca505d382bbc80546001600160a01b0319166001600160a01b03909216919091179055565b60405162461bcd60e51b815260206004820152602d60248201527f455243313936373a206e657720696d706c656d656e746174696f6e206973206e60448201526c1bdd08184818dbdb9d1c9858dd609a1b6064820152608490fd5b91929015612d555750815115612d07575090565b3b15612d105790565b60405162461bcd60e51b815260206004820152601d60248201527f416464726573733a2063616c6c20746f206e6f6e2d636f6e74726163740000006044820152606490fd5b825190915015612d685750805190602001fd5b6040519062461bcd60e51b82528160208060048301528251908160248401526000935b828510612dae575050604492506000838284010152601f80199101168101030190fd5b8481018201518686016044015293810193859350612d8b565b80518210156128145760209160051b010190565b91908201809211610c1757565b906000916000906101378054906000925b828410612e1f5750505050612e1b670de0b6b3a7640000916101395490612eff565b0490565b9091929395612e6c612e5b612e66600193612e60612e3d8a88612dc7565b51612e48818c612e92565b9590612e548d8c61283e565b5054612ddb565b613ec6565b90612ddb565b98612ddb565b9401929190612df9565b91909160008382019384129112908015821691151617610c1757565b9190600090612ec081600095612eb6612ead826101506127fc565b93905492612f4b565b9160031b1c612e76565b60008113612ecf575b50509190565b612ef7919450612ef192508094670de0b6b3a764000093849161013a54612eff565b04612eff565b043880612ec9565b81810292918115918404141715610c1757565b8115612f1c570490565b634e487b7160e01b600052601260045260246000fd5b81810392916000138015828513169184121617610c1757565b612f578161013761283e565b505490670de0b6b3a764000091828102928184041490151715610c1757612fa392612f97612f8a612f9d936101516127fc565b90549060031b1c84612f12565b92612f12565b90612f32565b90565b8015612fbc57612e5b612fa39261013154612fc4565b505060001990565b91908203918211610c1757565b67ffffffffffffffff811161287c5760051b60200190565b90612ff382612fd1565b613000604051918261285a565b8281528092613011601f1991612fd1565b0190602036910137565b805490600160401b82101561287c578161303d916001613054940181556127fc565b819391549060031b91821b91600019901b19161790565b9055565b610131548015613103576101379081549160009061307584612fe9565b9082905b8582106130bf57505060005b848110613093575050505050565b806130b96130b186610b39876130ab60019789612dc7565b51612eff565b61013861301b565b01613085565b90926130fb6001916130d08661312f565b6130da8787612dc7565b52612e606130e8878661283e565b50546130f48888612dc7565b5190613ec6565b930190613079565b50565b6001600160a01b0316600090815261013660205260409020600181015460ff16156108ed575490565b61313b9061013761283e565b50600101546001600160a01b031661315281613185565b9190911561050a575090565b5190811515820361052257565b919082604091031261052257612fa360208351930161315e565b604080516359e02dd760e01b81529291839060049082906001600160a01b03165afa9182156131db5760009081936131bc57509190565b90506131d791925060403d811161092957610919818361285a565b9091565b6040513d6000823e3d90fd5b61013754906131f582612fe9565b9160005b818110613204575050565b8061321060019261312f565b61321a8287612dc7565b52016131f9565b90613242670de0b6b3a7640000928361015754610154549243010302612f12565b8281101561325f5782039180836101555402049261015654020590565b50600091508190565b90916132726132ca565b9290808210156132c057839161328791612fc4565b9311156132bb57818110156132b35761329f91612fc4565b60011c808210156132ae575090565b905090565b505050600090565b505090565b5050505050600090565b61015254604080516359e02dd760e01b80825293929091906001600160a01b039081168284600481845afa80156133ba576000948591613397575b5015613380575061015354169080519485528085600481855afa8015613375576000958691613352575b501561333b5750509190565b6024925051906305e8989360e11b82526004820152fd5b90508161336c9296503d871161092957610919818361285a565b9490943861332f565b50513d6000823e3d90fd5b6024908351906305e8989360e11b82526004820152fd5b90506133b1919450833d851161092957610919818361285a565b93909338613305565b83513d6000823e3d90fd5b9081526101008101929160e09060c0906001600160a01b03806133e78361282a565b1660208601526133f96020830161282a565b1660408501526040810135606085015260608101356080850152608081013560a085015260a0810135828501520135910152565b6040519061343c60808361285a565b60006060838281528260208201528260408201520152565b6134cc9361349360009260209561346d8261013761283e565b50613479878254612ddb565b9055613489610131918254612ddb565b90556101356127fc565b90546040516340c10f1960e01b81526001600160a01b039093166004840152602483019490945290948593928492909183906044820190565b039360039190911b1c6001600160a01b03165af180156131db576134ed5750565b6020813d8211613516575b816135056020938361285a565b81010312610522576131039061315e565b3d91506134f8565b61358492602092610134613533848254612ddb565b9055613543610131918254612ddb565b9055610133546040516340c10f1960e01b81526001600160a01b03928316600482015260248101939093529193849290911690829060009082906044820190565b03925af180156131db576134ed5750565b91906135a090612de8565b9190926135ad8385612fa6565b90808211156135ba575050565b6044925060405191637912120160e01b835260048301526024820152fd5b61303d613054916135e98482612f4b565b61361f6135f8836101506127fc565b61360b8294925492838360031b1c612e76565b919060031b91821b91600019901b19161790565b90556101516127fc565b906101345490811561364957612fa3926105e0612e5b9261013154612fc4565b505050670de0b6b3a764000090565b92909391600091600091829661366c61342d565b966001600160a01b03918590831680613878575b508261012f54168360405193636eb1769f60e11b8552168060048501523060248501526020948585604481865afa94851561386d57849561383e575b508461371d575b5050505050860151156136d9575b505050929190565b909192506136f1670de0b6b3a7640000928392612eff565b048085529082156137155761370d920490816040860152612ddb565b3880806136d1565b50905061370d565b61372b906101305416613185565b929092156136c357909192939b50848b61376585670de0b6b3a764000061375f6137558d8d612eff565b6101435490612eff565b04612f12565b81830181815295908b156138345750613790916137846060928d612f12565b91829101528551612ddb565b809d5b109283156137bf575b5050506137ac575b8080806136c3565b81929950528060608801529638806137a4565b909192506024604051809481936370a0823160e01b835260048301525afa90811561382957908b9184916137f8575b501038848161379c565b809250858092503d8311613822575b613811818361285a565b81010312610e99578a9051386137ee565b503d613807565b6040513d85823e3d90fd5b915050809d613793565b9094508581813d8311613866575b613856818361285a565b81010312611d04575193386136bc565b503d61384c565b6040513d86823e3d90fd5b9095506020836101c35416916024604051809481936364a731e960e01b835260048301525afa80156109305786906138bd575b6138b6915084612eff565b9438613680565b506020813d82116138e8575b816138d66020938361285a565b810103126120b0576138b690516138ab565b3d91506138c9565b806138f96132ca565b9190936139066000613221565b940193829161399e575b019384600080821261399857505b84039181851161396057505081811161394257505061015555610156554361015755565b60449250604051916306da41e560e11b835260048301526024820152fd5b908085921161398657604491604051916306da41e560e11b835260048301526024820152fd5b604051630fb4fd3560e11b8152600490fd5b0361391e565b90508160000390613910565b6139d791926139bb8261013761283e565b506139c7858254612fc4565b9055613489610131918254612fc4565b905460039190911b1c6001600160a01b0316803b1561052257604051632770a7eb60e21b815230600482015260248101929092526000908290818381604481015b03925af180156131db57613a295750565b6000612a219161285a565b90610134613a43838254612fc4565b9055613a53610131918254612fc4565b9055610133546001600160a01b0316803b1561052257604051632770a7eb60e21b81523060048201526024810192909252600090829081838160448101613a18565b92613aa783613aad9694939795613c22565b90613ad6565b818110613ab8575050565b604492506040519163c39b739f60e01b835260048301526024820152fd5b92613ae392949193613ba3565b60009281810291600160ff1b9185821283821416613b8f578184051490151715613b7b57670de0b6b3a763ffff198301928311613b7b57670de0b6b3a764000092838102938185041490151715613b7b578215613b67578114600019831416613b535705908082126132ae575090565b634e487b7160e01b83526011600452602483fd5b634e487b7160e01b84526012600452602484fd5b634e487b7160e01b84526011600452602484fd5b634e487b7160e01b86526011600452602486fd5b9091613bb29061013154612fc4565b90670de0b6b3a764000091828102928184041490151715610c1757612fa392612f9d91612eff565b8282613be592613ba3565b9060008213156132b357612fa392613bfc91613629565b90612f12565b90604051613c1160408261285a565b602060018294805484520154910152565b613c2e816101486127fc565b90549060031b1c9161018e91613c44818461283e565b50549261018f54431015613c6a575b5050808210156132bb57610b3990612fa393612eff565b829350613c7e613c899392613c849261283e565b50613c02565b613c91565b903880613c53565b602081519101805192670de0b6b3a764000093840390848211610c1757613cbe612e6092612e1b95612eff565b9251612eff565b60008061013791825492613cd884612fe9565b9382915b818310613d05575050508115613cf95790613cf691612f12565b91565b50506101495460011b91565b90919392613d128561312f565b9081613d1e8789612dc7565b52613d37613d2c8388612e92565b50612e54888661283e565b670de0b6b3a764000090818102918183041490151715610c1757613d74613d7a92612e6085613d6b6001976105e596613ec6565b9485918c613c22565b95612ddb565b94019190613cdc565b61018f8054431015613d925750565b6101375460005b818110613dac5750506101905443019055565b80807f19156e9379c7bbbce8f646ce5ee30ba860b8f954717405f3d5859a6c1a21ae6060019361018e613de2613c7e838361283e565b90613e00613df8613df28561312f565b84613c91565b93849261283e565b50555160409182519182526020820152a201613d99565b60975460405163d994d6d560e01b815233600482015290602090829060249082906001600160a01b03165afa9081156131db57600091613e6c575b5015613e5a57565b604051631dd1b1b560e21b8152600490fd5b906020823d8211613e9d575b81613e856020938361285a565b810103126104ab5750613e979061315e565b38613e52565b3d9150613e78565b60ff60ca5460081c16613eb457565b60405163783bb6c960e11b8152600490fd5b90670de0b6b3a764000091828102928184041490151715610c1757612fa391612f1256fea2646970667358221220dcc30054564b01c6d169eb8bd2456f55ebb4d8c821d9d1a1f574158535d7dc1c64736f6c6343000814003360803461005d57601f61019d38819003918201601f19168301916001600160401b038311848410176100625780849260209460405283398101031261005d5751600055600160ff198154161760015560405161012490816100798239f35b600080fd5b634e487b7160e01b600052604160045260246000fdfe6080806040526004361015601257600080fd5b600090813560e01c90816332145f901460d657816359e02dd71460ac5750806373d4a13a146091578063b689d5ac1460705763c62dee0d14605257600080fd5b34606d5780600319360112606d5760ff196001541660015580f35b80fd5b5034606d5780600319360112606d57602060ff600154166040519015158152f35b5034606d5780600319360112606d5760209054604051908152f35b90503460d2578160031936011260d2576040915460ff6001541690825215156020820152f35b5080fd5b8234606d576020366003190112606d57600435815580f3fea26469706673582212204c73b60e8fd9090a929ba12ada6c65edd9019656110671326ad073926191b53a64736f6c63430008140033608060405234620003b65762000014620003bb565b6200001e620003bb565b81519091906001600160401b0390818111620002b6576003918254926001928385811c9516958615620003ab575b6020968787101462000395578190601f968781116200033f575b508790878311600114620002d857600092620002cc575b505060001982841b1c191690841b1781555b8551918211620002b65760049586548481811c91168015620002ab575b8782101462000296578581116200024b575b508590858411600114620001e057938394918492600095620001d4575b50501b92600019911b1c19161783555b601260ff19600554161760055533156200019357506002547b6df37f675ef6eadf5ab9a2072d44268d97df837e6748956e5c6c2117928382018092116200017e57506000917fddf252ad1be2c89b69c2b068fc378daa952ba7f163c4a11628f55a4df523b3ef91600255338352828152604083208481540190556040519384523393a3604051610c439081620003f28239f35b601190634e487b7160e01b6000525260246000fd5b606492916040519262461bcd60e51b845283015260248201527f45524332303a206d696e7420746f20746865207a65726f2061646472657373006044820152fd5b015193503880620000db565b9190601f198416928860005284886000209460005b8a8983831062000233575050501062000218575b50505050811b018355620000eb565b01519060f884600019921b161c191690553880808062000209565b868601518955909701969485019488935001620001f5565b87600052866000208680860160051c8201928987106200028c575b0160051c019085905b8281106200027f575050620000be565b600081550185906200026f565b9250819262000266565b602288634e487b7160e01b6000525260246000fd5b90607f1690620000ac565b634e487b7160e01b600052604160045260246000fd5b0151905038806200007d565b90869350601f1983169185600052896000209260005b8b8282106200032857505084116200030f575b505050811b0181556200008f565b015160001983861b60f8161c1916905538808062000301565b8385015186558a97909501949384019301620002ee565b90915083600052876000208780850160051c8201928a86106200038b575b918891869594930160051c01915b8281106200037b57505062000066565b600081558594508891016200036b565b925081926200035d565b634e487b7160e01b600052602260045260246000fd5b94607f16946200004c565b600080fd5b60408051919082016001600160401b03811183821017620002b657604052600982526845524332304d6f636b60b81b602083015256fe6080604081815260048036101561001557600080fd5b600092833560e01c90816306fdde031461064957508063095ea7b31461061557806318160ddd146105f657806323b872dd146105a8578063313ce56714610140578063395093511461055857806340c10f191461049957806342966c681461047b5780635c2f5e261461044657806370a082311461040e57806379cc6790146103d45780637a1395aa146103a757806395d89b41146102875780639dc29fac14610255578063a457c2d7146101a5578063a9059cbb14610166578063ace28fa5146101405763dd62ed3e146100e957600080fd5b3461013c578160031936011261013c576001600160a01b039035818116908190036101385760243591821680920361013857928291602094825260018552828220908252845220549051908152f35b8380fd5b8280fd5b50503461016257816003193601126101625760209060ff600554169051908152f35b5080fd5b503461013c578160031936011261013c5735916001600160a01b03831683036101a2575061019960209260243590610bb9565b90519015158152f35b80fd5b5082346101a257826003193601126101a2578135916001600160a01b038316918284036101a2578490602435933382526001602052828220908252602052205490828210610204576020856101fd8585038733610918565b5160018152f35b608490602086519162461bcd60e51b8352820152602560248201527f45524332303a2064656372656173656420616c6c6f77616e63652062656c6f77604482015264207a65726f60d81b6064820152fd5b50903461013c5736600319011261016257356001600160a01b0381168103610162576102849060243590610ab2565b80f35b50919034610162578160031936011261016257805190828454600181811c9080831692831561039d575b602093848410811461038a5783885290811561036e5750600114610319575b505050829003601f01601f191682019267ffffffffffffffff841183851017610306575082918261030292528261073e565b0390f35b634e487b7160e01b815260418552602490fd5b8787529192508591837f8a35acfbc15ff81a39ae7d344fd709f28e8600b4aa8c65c6b64bfe7fe36bd19b5b83851061035a57505050508301013880806102d0565b805488860183015293019284908201610344565b60ff1916878501525050151560051b84010190503880806102d0565b634e487b7160e01b895260228a52602489fd5b91607f16916102b1565b838234610162576020366003190112610162573560ff81168091036101625760ff19600554161760055580f35b50903461013c5736600319011261016257356001600160a01b0381168103610162576102849060243590610409823383610a1a565b610ab2565b503461013c57602036600319011261013c57356001600160a01b0381169081900361013c578282916020945280845220549051908152f35b838234610162576020366003190112610162573560038110156101625761ff006005549160081b169061ff0019161760055580f35b83823461016257602036600319011261016257610284903533610ab2565b503461013c578160031936011261013c5780356001600160a01b03811692908390036101385760243591831561051657506020827fddf252ad1be2c89b69c2b068fc378daa952ba7f163c4a11628f55a4df523b3ef926104fc8795600254610787565b60025585855284835280852082815401905551908152a380f35b6020606492519162461bcd60e51b8352820152601f60248201527f45524332303a206d696e7420746f20746865207a65726f2061646472657373006044820152fd5b503461013c578160031936011261013c57356001600160a01b03811680820361013857906105a16020946101fd9333825260018752858220908252865284602435912054610787565b9033610918565b503461013c57606036600319011261013c5735916001600160a01b039081841684036101a25760243591821682036101a257506020926101fd91604435916105f1833383610a1a565b6107aa565b5050346101625781600319360112610162576020906002549051908152f35b503461013c578160031936011261013c5735916001600160a01b03831683036101a257506101fd6020926024359033610918565b849150833461013c578260031936011261013c5782600354600181811c90808316928315610734575b602093848410811461038a5783885290811561071857506001146106c257505050829003601f01601f191682019267ffffffffffffffff841183851017610306575082918261030292528261073e565b600387529192508591837fc2575a0e9e593c00f959f8c92f12db2869c3395a3b0502d05e2516446f71f85b5b83851061070457505050508301018580806102d0565b8054888601830152930192849082016106ee565b60ff1916878501525050151560051b84010190508580806102d0565b91607f1691610672565b6020808252825181830181905290939260005b82811061077357505060409293506000838284010152601f8019910116010190565b818101860151848201604001528501610751565b9190820180921161079457565b634e487b7160e01b600052601160045260246000fd5b6001600160a01b039081169182156108c557169182156108745760008281528060205260408120549180831061082057604082827fddf252ad1be2c89b69c2b068fc378daa952ba7f163c4a11628f55a4df523b3ef958760209652828652038282205586815220818154019055604051908152a3565b60405162461bcd60e51b815260206004820152602660248201527f45524332303a207472616e7366657220616d6f756e7420657863656564732062604482015265616c616e636560d01b6064820152608490fd5b60405162461bcd60e51b815260206004820152602360248201527f45524332303a207472616e7366657220746f20746865207a65726f206164647260448201526265737360e81b6064820152608490fd5b60405162461bcd60e51b815260206004820152602560248201527f45524332303a207472616e736665722066726f6d20746865207a65726f206164604482015264647265737360d81b6064820152608490fd5b6001600160a01b039081169182156109c957169182156109795760207f8c5be1e5ebec7d5bd14f71427d1e84f3dd0314c0f7b2291e5b200ac8c7c3b925918360005260018252604060002085600052825280604060002055604051908152a3565b60405162461bcd60e51b815260206004820152602260248201527f45524332303a20617070726f766520746f20746865207a65726f206164647265604482015261737360f01b6064820152608490fd5b60405162461bcd60e51b8152602060048201526024808201527f45524332303a20617070726f76652066726f6d20746865207a65726f206164646044820152637265737360e01b6064820152608490fd5b9060018060a01b0380831660005260016020526040600020908216600052602052604060002054926000198403610a52575b50505050565b808410610a6d57610a64930391610918565b38808080610a4c565b60405162461bcd60e51b815260206004820152601d60248201527f45524332303a20696e73756666696369656e7420616c6c6f77616e63650000006044820152606490fd5b6001600160a01b03168015610b6a57600091818352826020526040832054818110610b1a57817fddf252ad1be2c89b69c2b068fc378daa952ba7f163c4a11628f55a4df523b3ef926020928587528684520360408620558060025403600255604051908152a3565b60405162461bcd60e51b815260206004820152602260248201527f45524332303a206275726e20616d6f756e7420657863656564732062616c616e604482015261636560f01b6064820152608490fd5b60405162461bcd60e51b815260206004820152602160248201527f45524332303a206275726e2066726f6d20746865207a65726f206164647265736044820152607360f81b6064820152608490fd5b9060ff60055460081c166003811015610bf75760018114610bef57600214610bea57610be591336107aa565b600190565b600080fd5b505050600090565b634e487b7160e01b600052602160045260246000fdfea2646970667358221220a89b8eb205fca4c3b7a0564b3afd2d67b29aefc0cbac4acef874d11a8d593a7264736f6c6343000814003360803461005d57601f61019b38819003918201601f19168301916001600160401b038311848410176100625780849260209460405283398101031261005d5751600055600160ff198154161760015560405161012290816100798239f35b600080fd5b634e487b7160e01b600052604160045260246000fdfe6080806040526004361015601257600080fd5b600090813560e01c9081632a3f43891460d05750806332145f901460b85780635095e3d914609c57806359e02dd71460755763b689d5ac14605257600080fd5b3460725780600319360112607257602060ff600154166040519015158152f35b80fd5b5034607257806003193601126072576040905460ff60015416825191825215156020820152f35b50346072578060031936011260725760ff196001541660015580f35b50346072576020366003190112607257600435815580f35b90503460e8578160031936011260e857602091548152f35b5080fdfea264697066735822122072d2893e184264a56256407bb10b2744402af53807dbe6d8cac8f775960d5c7864736f6c634300081400336080806040523461002357600160ff19600054161760005561019a90816100298239f35b600080fdfe60808060405260048036101561001457600080fd5b600091823560e01c90816357e6c2f41461014557508281638c777e82146100b5575080639e0a8e09146100895763d994d6d51461005057600080fd5b3461008557602036600319011261008557356001600160a01b038116036100825760ff60209154166040519015158152f35b80fd5b5080fd5b503461008557602036600319011261008557358015158091036100855760ff8019835416911617815580f35b8083346101425760203660031901126101425780356001600160a01b0381169081900361013e57803b1561013e5782908260405180958193631851865560e21b83525af1801561013357610107578280f35b67ffffffffffffffff8211610120575060405281808280f35b634e487b7160e01b835260419052602482fd5b6040513d85823e3d90fd5b5050fd5b50fd5b83903461008557816003193601126100855760ff602092541615158152f3fea2646970667358221220db32608f1f6cb45e0039ab366ec4b054a5b78ac7e186da44aee701495bd22f2064736f6c6343000814003360a08060405234620000e157306080526000549060ff8260081c166200008f575060ff8082160362000053575b604051614ac69081620000e78239608051818181610fe70152818161115601526121ac0152f35b60ff90811916176000557f7f26b83ff96e1f2b6a682f133852f6798a09c465da95921460cefb3847402498602060405160ff8152a1386200002c565b62461bcd60e51b815260206004820152602760248201527f496e697469616c697a61626c653a20636f6e747261637420697320696e697469604482015266616c697a696e6760c81b6064820152608490fd5b600080fdfe6080604052600436101561001257600080fd5b60003560e01c8062c6e88e1461269d57806301ffc9a7146126475780630c340a241461261e5780631826ebf0146125ba5780631a0c54401461254c57806324524ea1146124f6578063248a9ca3146124c65780632b994849146124a75780632d88af4a146124525780632f2ff15d1461241957806334975a41146122a757806336568abe146122135780633659cfe61461217a5780633bb4b05c146121375780633cbcf4c4146121125780633f4ba83a14612098578063435c7e371461200e57806347d8496a14611f3d5780634981d04e14611efa5780634b5a9e3d14611ec65780634b64e492146111b95780634f1ef286146110cf5780635210570c146110aa57806352d1902d14610fd45780635c817aa314610f705780635c975abb14610f4a5780635ee1d2bb14610f00578063681fe70c14610edc5780636827435714610eb45780636b59c22f14610de35780636b76333014610d7f57806373e3d08614610d605780637c50b7e414610d1c5780637e81a82114610c4b5780638456cb5914610bb55780638a4737ab14610b565780638b20076c14610af75780638e7e818914610acf57806391d1485414610a7c5780639fd0506d14610a4f578063a217fddf14610a33578063ad16c2de146109c5578063bb4872de146109a2578063bbe720d91461092d578063c84d8bb61461085c578063caeb12b614610832578063d547741f146107f7578063db901477146105d6578063dbb0b684146105b4578063e4c0aaf41461056e578063e4e1b7291461049d578063e97a4d63146103cc578063fa91a9a5146102d55763fb8aafb81461026d57600080fd5b346102d05760203660031901126102d057600435600052610262602052604060002060018060a01b036102cc8183541691600184015493600281015491806003830154169060058160048501541693015416926040519687968761281d565b0390f35b600080fd5b60a03660031901126102d0576102e9612e23565b610300600080516020614a71833981519152612ea4565b61031661031060026101f76127b1565b546148b2565b61025d80546040519161032a6040846127c9565b60028352602083019260018060f81b03431684528260005261026860205260406000209051600a8110156103b65760ff6020958119905160081b16911617905581600052610261835261038260046040600020614668565b604051828152600284820152600080516020614a5183398151915260403392a26103ac81546146db565b9055604051908152f35b634e487b7160e01b600052602160045260246000fd5b60a03660031901126102d0576103e0612e23565b6103f7600080516020614a71833981519152612ea4565b61040761031060016101f76127b1565b61025d80546040519161041b6040846127c9565b60018352602083019260018060f81b03431684528260005261026860205260406000209051600a8110156103b65760ff6020958119905160081b1691161790558160005261025f835261047360046040600020614668565b604051828152600184820152600080516020614a5183398151915260403392a26103ac81546146db565b60e03660031901126102d0576104b1612e23565b6104c8600080516020614a71833981519152612ea4565b6104d861031060066101f76127b1565b61025d8054604051916104ec6040846127c9565b60068352602083019260018060f81b03431684528260005261026860205260406000209051600a8110156103b65760ff6020958119905160081b16911617905581600052610264835261054460046040600020614755565b604051828152600684820152600080516020614a5183398151915260403392a26103ac81546146db565b346102d05760203660031901126102d0576004356001600160a01b038116908190036102d05761059c612da0565b6001600160601b0360a01b6097541617609755600080f35b346102d05760003660031901126102d05760206102695460801c604051908152f35b346102d0576101a03660031901126102d0576001600160a01b03600435818116908190036102d05760243591821682036102d0576044356001600160801b03928382168092036102d05760643593841684036102d0576101203660831901126102d0576000549260ff8460081c1615938480956107ea575b80156107d3575b15610777576106ec92600191868360ff19831617600055610765575b5060ff60005460081c169261068584612e44565b61068e84612e44565b61069784612e44565b6106a084612e44565b6106a984612e44565b6001600160601b0360a01b60975416176097556106c583612e44565b60ca5490620100008360b01b039060101b169061ff018360b01b031916171760ca55612e44565b6106f660846148bc565b6000549261071260ff8560081c1661070d81612e44565b612e44565b600161022a5560801b6001600160801b031916176102695561073057005b61ff0019166000557f7f26b83ff96e1f2b6a682f133852f6798a09c465da95921460cefb3847402498602060405160018152a1005b61ffff19166101011760005587610671565b60405162461bcd60e51b815260206004820152602e60248201527f496e697469616c697a61626c653a20636f6e747261637420697320616c72656160448201526d191e481a5b9a5d1a585b1a5e995960921b6064820152608490fd5b50303b1580156106555750600160ff821614610655565b50600160ff82161061064e565b346102d05760403660031901126102d0576004356024356001600160a01b03811681036102d0578161082b61083093614958565b612857565b005b346102d05760003660031901126102d05761025c546040516001600160a01b039091168152602090f35b60c03660031901126102d057610870612e23565b610887600080516020614a71833981519152612ea4565b61089761031060046101f76127b1565b61025d8054604051916108ab6040846127c9565b60048352602083019260018060f81b03431684528260005261026860205260406000209051600a8110156103b65760ff6020958119905160081b169116179055816000526102628352610903600460406000206146ea565b604051828152600484820152600080516020614a5183398151915260403392a26103ac81546146db565b346102d05760203660031901126102d0576001600160a01b03600435818116908190036102d05761095c612da0565b61025c80549283166109905781610830936001600160601b0360a01b16179055600080516020614a71833981519152614830565b604051630a646b7760e41b8152600490fd5b346102d05760003660031901126102d057602060ff60ca54166040519015158152f35b346102d05760203660031901126102d0576004803560009081526102616020908152604091829020805460018201546002830154600384015493909601548551928352938201526001600160a01b03948516938101939093528316606083015291909116608082015260a090f35b346102d05760003660031901126102d057602060405160008152f35b346102d05760003660031901126102d05760ca5460405160109190911c6001600160a01b03168152602090f35b346102d05760403660031901126102d0576024356001600160a01b038116908190036102d057600435600052610193602052604060002090600052602052602060ff604060002054166040519015158152f35b346102d05760003660031901126102d05760206001600160801b036102695416604051908152f35b346102d05760203660031901126102d057600435600052610263602052604060002060018060a01b036102cc8183541691600184015493600281015491806003830154169060058160048501541693015416926040519687968761281d565b346102d05760203660031901126102d057600435600052610260602052604060002060018060a01b036102cc8183541691600184015493600281015491806003830154169060058160048501541693015416926040519687968761281d565b346102d05760003660031901126102d057610bce612e23565b60ca54601081901c6001600160a01b03163303610c395760ff811615610c27576101009061ff0019161760ca557f62e78cea01bee320cd4e420270b5ea74000d11b0c9f74754ebdbfc544b05a2586020604051338152a1005b60405163866099c360e01b8152600490fd5b604051631d77d47760e21b8152600490fd5b60c03660031901126102d057610c5f612e23565b610c76600080516020614a71833981519152612ea4565b610c8661031060036101f76127b1565b61025d805460405191610c9a6040846127c9565b60038352602083019260018060f81b03431684528260005261026860205260406000209051600a8110156103b65760ff6020958119905160081b169116179055816000526102608352610cf2600460406000206146ea565b604051828152600384820152600080516020614a5183398151915260403392a26103ac81546146db565b346102d05760203660031901126102d05760043560005261026860205260406000205460ff81169060405190600a8310156103b657604092825260081c6020820152f35b346102d05760003660031901126102d057602061025d54604051908152f35b346102d05760203660031901126102d057600435600052610264602052604060002060018060a01b036102cc81835416916001840154936002810154916003820154816004840154169160068160058601541694015416936040519788978861276e565b60e03660031901126102d057610df7612e23565b610e0e600080516020614a71833981519152612ea4565b610e1e61031060076101f76127b1565b61025d805460405191610e326040846127c9565b60078352602083019260018060f81b03431684528260005261026860205260406000209051600a8110156103b65760ff6020958119905160081b169116179055816000526102658352610e8a60046040600020614755565b604051828152600784820152600080516020614a5183398151915260403392a26103ac81546146db565b346102d05760003660031901126102d057610ecd612da0565b60ca805460ff19166001179055005b346102d05760003660031901126102d057602061025e5461025d5414604051908152f35b346102d05760203660031901126102d0576001600160801b0360043581811681036102d057610f2d612da0565b610269805490921660809190911b6001600160801b031916179055005b346102d05760003660031901126102d057602060ff60ca5460081c166040519015158152f35b346102d05760203660031901126102d057600435600052610266602052604060002060018060a01b036102cc81835416916001840154936002810154916003820154816004840154169160068160058601541694015416936040519788978861276e565b346102d05760003660031901126102d0577f00000000000000000000000000000000000000000000000000000000000000006001600160a01b0316300361103f5760206040517f360894a13ba1a3210667c828492db98dca3e2076cc3735a920a3ca505d382bbc8152f35b60405162461bcd60e51b815260206004820152603860248201527f555550535570677261646561626c653a206d757374206e6f742062652063616c60448201527f6c6564207468726f7567682064656c656761746563616c6c00000000000000006064820152608490fd5b346102d05760003660031901126102d0576110c3612da0565b60ca805460ff19169055005b60403660031901126102d0576001600160a01b0360043581811681036102d05760243567ffffffffffffffff81116102d057366023820112156102d05780600401359161111b83612801565b9161112960405193846127c9565b83835236602485830101116102d05761083094600060208660019760246111ac96018389013786010152807f00000000000000000000000000000000000000000000000000000000000000001690611183823014156128d6565b7f360894a13ba1a3210667c828492db98dca3e2076cc3735a920a3ca505d382bbc541614612937565b6111b4612da0565b612998565b346102d05760203660031901126102d0576004356001600160a01b03811690036102d0576111e5612e23565b600261022a5414611e8157600261022a5561121f7fd8aa0f3194971a2a116679f7c2090f6939c8d4e01a2a8d7e41d55e5351469e63612ea4565b61025e54600061025d5461026954908160801c8401808210600014611e765750909291925b818310611291575b505061025e5580611260575b600161022a55005b6000808080936004355af1611273612c73565b501561127f5780611258565b604051638f58940960e01b8152600490fd5b9091600090600091816000526102686020526040600020604051906112b76040836127c9565b546112c560ff8216836130f0565b60081c8060208301526001600160801b03861643031060001461134a575060009250829050805b611334575b1561132d5780600191337fb207e6b6b26274f3764b879e578b4539b8e37f41dff43932ddc87b3e04090974600080a30193019190929192611244565b925061124c565b81600052610268602052600060408120556112f1565b8051600a8110156103b65760010361161957505080915060005261025f60205261137760406000206130fc565b61025c80546040805163235e81cf60e01b81528451600482015260208501516024820152908401516001600160a01b0390811660448301526060850151811660648301526080850151811660848301529091600091168260a48160c09485945af16000928392826115e4575b50506115685750506113f3612c73565b6113fc816131ab565b906001600160e01b03198216630b63f1a760e01b8103611503575050611438600080516020614a11833981519152916040519182918783613218565b0390a15b5460408201516020909201516001600160a01b039182169290911690823b156102d0576040516358f32de960e01b81526001600160a01b039290921660048301526024820152906000908290604490829084905af180156114f7576114e6575b505b8060005261025f6020526114ce604060002060046000918281558260018201558260028201558260038201550155565b600190816114df60016101f76127b1565b54926112ec565b60006114f1916127c9565b8461149c565b6040513d6000823e3d90fd5b637912120160e01b036115395750611531600080516020614a118339815191529160405191829187836131dc565b0390a161143c565b600080516020614a31833981519152915061153190604051918291878352604060208401526040830190612d63565b7f5090a820029acae4d47b64da9af62ce04a5a1bdb546934e5fcfe091ee1f780ee91925060018060a01b03604085015116926115dc86606060018060a01b03818901511697805194805192602082015190604083015192015192608060018060a01b0391015116936040519889988961325d565b0390a361149e565b80919294506116089350903d10611612575b61160081836127c9565b810190613188565b92905089806113e3565b503d6115f6565b8051600a8110156103b65760020361192257505080915060005261026160205261164660406000206130fc565b61025c80546040805163bfe4262160e01b81528451600482015260208501516024820152908401516001600160a01b0390811660448301526060850151811660648301526080850151811660848301529091600091168260a48160c09485945af16000928392826118fd575b50506118815750506116c2612c73565b6116cb816131ab565b6001600160e01b031981169163a5db715d60e01b83036117ea57505060a0600080516020614a1183398151915291604051908682526020820152601960608060408401528201527f496e73756666696369656e7420746320746f2072656465656d000000000000006080820152a15b54604082015191516001600160a01b039182169290911690823b156102d0576040516353b16d1760e01b81526001600160a01b039290921660048301526024820152906000908290604490829084905af180156114f7576117d9575b505b806000526102616020526117c8604060002060046000918281558260018201558260028201558260038201550155565b600190816114df60026101f76127b1565b60006117e4916127c9565b84611796565b90916354cde31360e01b810361182457505061181c600080516020614a1183398151915291604051918291878361329c565b0390a161173a565b637912120160e01b03611852575061181c600080516020614a118339815191529160405191829187836131dc565b600080516020614a31833981519152915061181c90604051918291878352604060208401526040830190612d63565b7f7e7043742f69701e6292386d468d710f2d6e44bf93232a1e52f1641e50a9de1291925060018060a01b03604085015116926118f586606060018060a01b03818901511697805194805192602082015190604083015192015192608060018060a01b0391015116936040519889988961325d565b0390a3611798565b80919294506119189350903d106116125761160081836127c9565b92905089806116b2565b8051600a8110156103b6576003036119505750509050611941816133e2565b90816114df60036101f76127b1565b8051600a8110156103b65760040361197e575050905061196f816136eb565b90816114df60046101f76127b1565b8051600a8110156103b6576005036119ac575050905061199d8161395a565b90816114df60056101f76127b1565b8051600a8110156103b6576006036119da57505090506119cb81613cee565b90816114df60066101f76127b1565b8051600a8110156103b657600703611a0857505090506119f9816140bc565b90816114df60076101f76127b1565b8051600a8110156103b657600803611a365750509050611a278161439e565b90816114df60086101f76127b1565b51600a8110156103b657600914611a4e575b806112ec565b5080915060005261026760205260006040812060405190611a71610100836127c9565b80546001600160a01b039081168352600182015481166020840190815260028301546040808601918252600385015460608701908152600480870154608089019081526005880154871660a08a019081526006890154881660c08b01908152600790990154881660e0808c0191825261025c54965163391bf6cf60e01b81528c518b169581019590955297518916602485015295516044840152925160648301525160848201529051851660a48201529451841660c48601529051831660e48501529294909285926101049284929091165af19182600091600094611e3f575b50611d8957509050611b61612c73565b611b6a816131ab565b906001600160e01b03198216630b63f1a760e01b8103611cf4575050611ba6600080516020614a11833981519152916040519182918683613218565b0390a15b61025c5460a0820151825160408401516001600160a01b039182169392821692909116803b156102d057604051630e2c5e9960e41b81526001600160a01b03938416600482015293909216602484015260448301526000908290606490829084905af180156114f757611ce3575b5061025c5460a08201516080909201516001600160a01b039182169290911690823b156102d0576040516358f32de960e01b81526001600160a01b039290921660048301526024820152906000908290604490829084905af180156114f757611cd2575b505b806000526102676020526000600760408220828155826001820155826002820155826003820155826004820155826005820155826006820155015560019081611cca60096101f76127b1565b549250611a48565b6000611cdd916127c9565b84611c7c565b6000611cee916127c9565b85611c18565b63272e3f5960e21b8103611d2c575050611d24600080516020614a1183398151915291604051918291868361406f565b0390a1611baa565b637912120160e01b03611d5a5750611d24600080516020614a118339815191529160405191829186836131dc565b600080516020614a318339815191529150611d2490604051918291868352604060208401526040830190612d63565b7ff86f4487d2c5541b78f06d2368e28e0f4052e182124def54d5855bf2a01d325861012060018060a01b038451169260018060a01b036020860151169060018060a01b0360a0870151169560018060a01b0360c082015116976040820151928151602083015191606060408501519401519460e060018060a01b039101511695604051978852602088015260408701526060860152608085015260a084015260c083015260e082015286610100820152a4611c7e565b909350611e64915060e03d60e011611e6f575b611e5c81836127c9565b810190613936565b925050909288611b51565b503d611e52565b905090929192611244565b60405162461bcd60e51b815260206004820152601f60248201527f5265656e7472616e637947756172643a207265656e7472616e742063616c6c006044820152606490fd5b346102d05760203660031901126102d057600435600a8110156102d057611ef16020916101f76127b1565b54604051908152f35b346102d0576101203660031901126102d057611f14612da0565b61025e5461025d5403611f2b5761083060046148bc565b6040516315996eab60e01b8152600490fd5b60c03660031901126102d057611f51612e23565b611f68600080516020614a71833981519152612ea4565b611f7861031060056101f76127b1565b61025d805460405191611f8c6040846127c9565b60058352602083019260018060f81b03431684528260005261026860205260406000209051600a8110156103b65760ff6020958119905160081b169116179055816000526102638352611fe4600460406000206146ea565b604051828152600584820152600080516020614a5183398151915260403392a26103ac81546146db565b346102d05760203660031901126102d057600435600052610267602052610100604060002060018060a01b03808254169181600182015416916002820154600383015460048401549183600586015416936007816006880154169601541695604051978852602088015260408701526060860152608085015260a084015260c083015260e0820152f35b346102d05760003660031901126102d05760ca5460ff8160081c161561210057601081901c6001600160a01b03163303610c395761ff00191660ca557f5db9ee0a495bf2e6ff9c91a7834c1ba4fdd244a5e8aa4e537bd38aeae4b073aa6020604051338152a1005b604051637c7fd07960e01b8152600490fd5b346102d05760003660031901126102d057602061212d6147cb565b6040519015158152f35b346102d05760203660031901126102d0576004356001600160801b0381168091036102d057612164612da0565b61026980546001600160801b0319169091179055005b346102d05760203660031901126102d0576004356001600160a01b0380821682036102d057610830916121d9826000937f00000000000000000000000000000000000000000000000000000000000000001690611183823014156128d6565b6121e1612da0565b6121ea82612801565b906121f860405192836127c9565b828252601f1961220784612801565b01366020840137612998565b346102d05760403660031901126102d0576024356001600160a01b0381168082036102d057330361224a5761083090600435612857565b60405162461bcd60e51b815260206004820152602f60248201527f416363657373436f6e74726f6c3a2063616e206f6e6c792072656e6f756e636560448201526e103937b632b9903337b91039b2b63360891b6064820152608490fd5b6101003660031901126102d0576122bc612e23565b6122d3600080516020614a71833981519152612ea4565b6122e361031060096101f76127b1565b61025d80546040516122f66040826127c9565b600981526020810160018060f81b0343168152826000526102686020526040600020915190600a8210156103b6575160ff9190911660089190911b60ff19161790556000818152610267602052604090206001600160a01b036004358181169492908590036102d0576001600160601b0360a01b9485825416178155600181016024358381168091036102d057868254161790556044356002820155606435600382015560843560048201556005810160a4358381168091036102d05786825416179055600681019060c435918383168093036102d05760079287825416179055019060e4359081168091036102d057602094825416179055604051828152600984820152600080516020614a5183398151915260403392a26103ac81546146db565b346102d05760403660031901126102d0576004356024356001600160a01b03811681036102d0578161244d61083093614958565b614830565b346102d05760203660031901126102d0576004356001600160a01b03811681036102d05761247e612da0565b60ca805462010000600160b01b03191660109290921b62010000600160b01b0316919091179055005b346102d05760003660031901126102d057602061025e54604051908152f35b346102d05760203660031901126102d0576004356000526101936020526020600160406000200154604051908152f35b346102d05760403660031901126102d057600435600a8110156102d05761251f906101f76127b1565b54602435811161253457602090604051908152f35b6024906040519063049e6f6960e41b82526004820152fd5b346102d05760203660031901126102d05760048035600090815261025f6020908152604091829020805460018201546002830154600384015493909601548551928352938201526001600160a01b03948516938101939093528316606083015291909116608082015260a090f35b346102d05760203660031901126102d057600435600052610265602052604060002060018060a01b036102cc81835416916001840154936002810154916003820154816004840154169160068160058601541694015416936040519788978861276e565b346102d05760003660031901126102d0576097546040516001600160a01b039091168152602090f35b346102d05760203660031901126102d05760043563ffffffff60e01b81168091036102d057602090637965db0b60e01b811490811561268c575b506040519015158152f35b6301ffc9a760e01b14905082612681565b60e03660031901126102d0576126b1612e23565b6126c8600080516020614a71833981519152612ea4565b6126d861031060086101f76127b1565b61025d8054604051916126ec6040846127c9565b60088352602083019260018060f81b03431684528260005261026860205260406000209051600a8110156103b65760ff6020958119905160081b16911617905581600052610266835261274460046040600020614755565b604051828152600884820152600080516020614a5183398151915260403392a26103ac81546146db565b6001600160a01b039182168152602081019290925260408201929092526060810192909252918216608082015291811660a083015290911660c082015260e00190565b90600a8110156103b657600052602052604060002090565b90601f8019910116810190811067ffffffffffffffff8211176127eb57604052565b634e487b7160e01b600052604160045260246000fd5b67ffffffffffffffff81116127eb57601f01601f191660200190565b6001600160a01b0391821681526020810192909252604082019290925291811660608301529182166080820152911660a082015260c00190565b9060009180835261019380602052604084209260018060a01b03169283855260205260ff60408520541661288c575b50505050565b818452602052604083208284526020526040832060ff1981541690557ff6391f5c32d9c69d2a47ea670b442974b53935d1edc7fd64eb21e047a839171b339380a438808080612886565b156128dd57565b60405162461bcd60e51b815260206004820152602c60248201527f46756e6374696f6e206d7573742062652063616c6c6564207468726f7567682060448201526b19195b1959d85d1958d85b1b60a21b6064820152608490fd5b1561293e57565b60405162461bcd60e51b815260206004820152602c60248201527f46756e6374696f6e206d7573742062652063616c6c6564207468726f7567682060448201526b6163746976652070726f787960a01b6064820152608490fd5b9060ff7f4910fdfa16fed3260ed0e7147f7cc6da11a60208b5b9406d12a635614ffd914354166000146129d257506129d09150612bd1565b565b6040516352d1902d60e01b8152602093919291906001600160a01b038316908581600481855afa60009181612b9f575b50612a635760405162461bcd60e51b815260048101879052602e60248201527f45524331393637557067726164653a206e657720696d706c656d656e7461746960448201526d6f6e206973206e6f74205555505360901b6064820152608490fd5b9394937fc9f76b5ec45e5cdef99837d7b6d2467235c1df8933c8ca56df5c35afa2c7d44401612b4857612a9583612bd1565b7fbc7cd75a20ee27fd9adebab32041f755214dbc6bffa90cc0225b39da2e5c2d3b600080a283511590811591612b40575b50612ad057505050565b600080612b3d94612ae16027612801565b94612aef60405196876127c9565b602786527f416464726573733a206c6f772d6c6576656c2064656c65676174652063616c6c81870152660819985a5b195960ca1b604087015281519101845af4612b37612c73565b91612ca3565b50565b905038612ac6565b60405162461bcd60e51b815260048101859052602960248201527f45524331393637557067726164653a20756e737570706f727465642070726f786044820152681a58589b195555525160ba1b6064820152608490fd5b90918782813d8311612bca575b612bb681836127c9565b81010312612bc75750519038612a02565b80fd5b503d612bac565b803b15612c18577f360894a13ba1a3210667c828492db98dca3e2076cc3735a920a3ca505d382bbc80546001600160a01b0319166001600160a01b03909216919091179055565b60405162461bcd60e51b815260206004820152602d60248201527f455243313936373a206e657720696d706c656d656e746174696f6e206973206e60448201526c1bdd08184818dbdb9d1c9858dd609a1b6064820152608490fd5b3d15612c9e573d90612c8482612801565b91612c9260405193846127c9565b82523d6000602084013e565b606090565b91929015612d055750815115612cb7575090565b3b15612cc05790565b60405162461bcd60e51b815260206004820152601d60248201527f416464726573733a2063616c6c20746f206e6f6e2d636f6e74726163740000006044820152606490fd5b825190915015612d185750805190602001fd5b60405162461bcd60e51b815260206004820152908190612d3c906024830190612d63565b0390fd5b60005b838110612d535750506000910152565b8181015183820152602001612d43565b90602091612d7c81518092818552858086019101612d40565b601f01601f1916010190565b908160209103126102d0575180151581036102d05790565b60975460405163d994d6d560e01b815233600482015290602090829060249082906001600160a01b03165afa9081156114f757600091612df5575b5015612de357565b604051631dd1b1b560e21b8152600490fd5b612e16915060203d8111612e1c575b612e0e81836127c9565b810190612d88565b38612ddb565b503d612e04565b60ff60ca5460081c16612e3257565b60405163783bb6c960e11b8152600490fd5b15612e4b57565b60405162461bcd60e51b815260206004820152602b60248201527f496e697469616c697a61626c653a20636f6e7472616374206973206e6f74206960448201526a6e697469616c697a696e6760a81b6064820152608490fd5b8060005260206101938152604060002033600052815260ff6040600020541615612ecc575050565b612f626048612ee683612ee0601433612f83565b95612f83565b936040519485917f416363657373436f6e74726f6c3a206163636f756e742000000000000000000086840152612f258151809288603787019101612d40565b82017001034b99036b4b9b9b4b733903937b6329607d1b6037820152612f5382518093888785019101612d40565b010360288101855201836127c9565b612d3c60405192839262461bcd60e51b845260048401526024830190612d63565b60019180831b91906001600160ff1b038116036130c45760028201928383116130c457612fc8612fb285612801565b94612fc060405196876127c9565b808652612801565b6020939085850190601f19013682378551156130da576030905384518210156130da57607860218601538181018091116130c457905b80821161305257505061300f575090565b6064906040519062461bcd60e51b825280600483015260248201527f537472696e67733a20686578206c656e67746820696e73756666696369656e746044820152fd5b9091600f811660108110156130af5785518410156130af576f181899199a1a9b1b9c1cb0b131b232b360811b901a85840185015360041c91801561309a576000190190612ffe565b60246000634e487b7160e01b81526011600452fd5b60246000634e487b7160e01b81526032600452fd5b634e487b7160e01b600052601160045260246000fd5b634e487b7160e01b600052603260045260246000fd5b600a8210156103b65752565b9060405161310b60a0826127c9565b825481526001830154602082015260028301546001600160a01b0390811660408301526003840154811660608301526004909301549092166080830152565b91908260809103126102d0576040516131646080826127c9565b60608082948051845260208101516020850152604081015160408501520151910152565b909160c0828403126102d0576131a882519360406020850151940161314a565b90565b906020825192015163ffffffff60e01b9081811693600481106131cd57505050565b60040360031b82901b16169150565b909160a092825263ffffffff60e01b16602082015260606040820152600c60608201526b4c6f7720636f76657261676560a01b60808201520190565b909160a092825263ffffffff60e01b166020820152606060408201526015606082015274125b9cdd59999a58da595b9d081c5858c81cd95b9d605a1b60808201520190565b94919260e0969399989794919961010087019a8752602087015260408601526060850152608084015260a083015260018060a01b031660c08201520152565b909160a092825263ffffffff60e01b16602082015260606040820152601a60608201527f7141432062656c6f77206d696e696d756d20726571756972656400000000000060808201520190565b906040516132f860c0826127c9565b82546001600160a01b039081168252600184015460208301526002840154604083015260038401548116606083015260048401548116608083015260059093015490921660a0830152565b60a09081600180821b03918281511685526020810151602086015260408101516040860152826060820151166060860152826080820151166080860152015116910152565b909160c092825263ffffffff60e01b16602082015260606040820152602460608201527f4d617820666c757820636170616369746f72206f7065726174696f6e2072656160808201526318da195960e21b60a08201520190565b9060008281526102609260209084825260406133ff8185206132e9565b61025c80548351635a21a61960e11b81526001600160a01b039992969160c090829060c49082908c908f16613437600484018b613343565b5af1908189918a936136c7575b5061364e575050613453612c73565b9861345d8a6131ab565b966001600160e01b031988166306da41e560e11b81036134a457505050505050600080516020614a118339815191529394955061349e905192839283613388565b0390a190565b869998839598969c63c39b739f60e09996991b83146000146135bd57505060a0600080516020614a118339815191529185519088825289820152606086820152601760608201527f496e73756666696369656e7420747020746f206d696e740000000000000000006080820152a15b54169160608a01511698015197813b156135b95786516358f32de960e01b81526001600160a01b039091166004820152602481019890985284908890818381604481015b03925af19687156135af57613596969761359b575b505b8352522060056000918281558260018201558260028201558260038201558260048201550155565b600190565b846135a8919592956127c9565b923861356c565b85513d86823e3d90fd5b8580fd5b9091630b63f1a760e01b81036135f65750506135ee600080516020614a118339815191529185519182918983613218565b0390a1613513565b637912120160e01b0361362357506135ee600080516020614a1183398151915291855191829189836131dc565b600080516020614a3183398151915291506135ee908551918291898352878b84015287830190612d63565b8492959897507f125247fdf990b9b419d4b4f895b1bb75bc485e3f8b813cf5557a4a12a56d054d908b6135969b9c939598965116926136bf878c836060890151169784608082015116998c820151958d8251908301519160a06060878601519501519501511694519889988961325d565b0390a461356e565b9092506136e2915060c03d81116116125761160081836127c9565b92905038613444565b90600082815261026260209381855260406137078185206132e9565b61025c8054835163ad4e666d60e01b81526001600160a01b03999296939160c090829060c49082908c908f166137406004840189613343565b5af1908189918a93613912575b506138a157505061375c612c73565b95613766876131ab565b966001600160e01b031988166306da41e560e11b81036137a757505050505050600080516020614a118339815191529394955061349e905192839283613388565b908b9394969998916354cde31360e09997991b81146000146138415750506137e4600080516020614a11833981519152918a51918291888361329c565b0390a15b54169083896060830151169982511691015198823b1561383d578751630e2c5e9960e41b81526001600160a01b0391821660048201529116602482015260448101989098528490889081838160648101613557565b8680fd5b637912120160e01b03613876575061386e600080516020614a11833981519152918a5191829188836131dc565b0390a16137e8565b600080516020614a31833981519152915061386e908a519182918883528c8a8401528c830190612d63565b8a9193959897507f625b9fc283a619f53beb817d79b8ab044d60e307fd2af4bb89fa5e9a24ce4ebc906135969a9b849896985116926136bf878c836060890151169784608082015116998c820151958d8251908301519160a06060878601519501519501511694519889988961325d565b90925061392d915060c03d81116116125761160081836127c9565b9290503861374d565b60e0818303126102d0578051926131a860208301519360606040850151940161314a565b906000828152610263806020526040936139758584206132e9565b9460018060a01b039561025c938560e08987541660c486518094819363883d21cb861b83526139a7600484018a613343565b5af187918291829181613bd1575b50613b56575050506139c5612c73565b976139cf896131ab565b956001600160e01b031987166306da41e560e11b8103613a0f575050505050600080516020614a118339815191529394955061349e905192839283613388565b9682949a869998630b63f1a760e0999896991b8114600014613af5575050613a4c600080516020614a118339815191529185519182918983613218565b0390a15b54169160608901511697015196813b15613af15785516358f32de960e01b81526001600160a01b03919091166004820152602481019790975283908790604490829084905af1958615613ae7576135969596613ad3575b505b82526020522060056000918281558260018201558260028201558260038201558260048201550155565b83613ae0919492946127c9565b9138613aa7565b84513d85823e3d90fd5b8480fd5b637912120160e01b03613b2a5750613b22600080516020614a1183398151915291855191829189836131dc565b0390a1613a50565b600080516020614a318339815191529150613b2290855191829189835287602084015287830190612d63565b85989750907f03e9e02a94d7486426fcf2b05a27e911b8d1b61e2e1dcf103785512f46c8476491613bc98887959699988e6135969e9f9951169689606082015116988a6080830151169a60208301519782519060208401519260a0606088870151960151960151169551998a998a613bf6565b0390a4613aa9565b91509250613bed915060e03d8111611e6f57611e5c81836127c9565b939050386139b5565b95926101009794919a9998959261012088019b8852602088015260408701526060860152608085015260a084015260c083015260018060a01b031660e08201520152565b90604051613c4960e0826127c9565b82546001600160a01b0390811682526001840154602083015260028401546040830152600384015460608301526004840154811660808301526005840154811660a083015260069093015490921660c0830152565b60c0908160018060a01b03918281511685526020810151602086015260408101516040860152606081015160608601528260808201511660808601528260a08201511660a0860152015116910152565b906000828152610264602090808252604090613d0b828520613c3a565b61025c80548451633631a6bb60e21b81526001600160a01b039693929160e090829060e49082908c908c16613d43600484018a613c9e565b5af19088828a928b94614047575b50613fcd57505050613d61612c73565b95613d6b876131ab565b966001600160e01b03198816906306da41e560e11b8203613dad57505050505050509361349e600080516020614a118339815191529394955192839283613388565b637a031da360e19a99929394959697989a1b8314600014613f3c57505060a0600080516020614a11833981519152918951908c82528782015260608a8201526014606082015273125b9cdd59999a58da595b9d081d1c081cd95b9d60621b6080820152a15b808254169160808401928284511690838651168a87015192823b15613f38578b51630e2c5e9960e41b81526001600160a01b03918216600482015291166024820152604481019290925288908290606490829084905af18015613f2e57613f16575b5090808592541692511692015191813b156135b95786516353b16d1760e01b81526001600160a01b039091166004820152602481019290925284908290818381604481015b03925af180156135af57613efd575b5061359694955b8352522060066000918281558260018201558260028201558260038201558260048201558260058201550155565b613f088480926127c9565b613f125738613ec8565b8280fd5b9187613f2582939988956127c9565b97919250613e74565b89513d8a823e3d90fd5b8a80fd5b90916354cde31360e01b8103613f75575050613f6d600080516020614a118339815191529189519182918d8361329c565b0390a1613e12565b637912120160e01b03613fa25750613f6d600080516020614a118339815191529189519182918d836131dc565b600080516020614a318339815191529150613f6d9089519182918d83528b898401528b830190612d63565b84929350907f4d33a2f9c4f66a101333f7ca2ab718582e763c941ff6fc304d2d4408d43a82849161403f8d8a6135969e9f999a9b9d9c809951169689608082015116988a60a0830151169a8d80840151978351918401519260c0606088870151960151960151169551998a998a613bf6565b0390a4613ecf565b91509250614063915060e03d8111611e6f57611e5c81836127c9565b92905090919238613d51565b909160a092825263ffffffff60e01b16602082015260606040820152601a60608201527f7154702062656c6f77206d696e696d756d20726571756972656400000000000060808201520190565b9060008281526102656020908082526040906140d9828520613c3a565b61025c805484516312bce9bf60e21b81526001600160a01b039693929160e090829060e49082908c908c16614111600484018a613c9e565b5af1908189918a93614378575b5061430757505061412d612c73565b95614137876131ab565b966001600160e01b031988166306da41e560e11b810361417857505050505050509361349e600080516020614a118339815191529394955192839283613388565b630b63f1a760e09a999394959697989a1b81146000146142785750506141b3600080516020614a118339815191529189519182918d83613218565b0390a15b8082541691608084019282845116908686015191813b15614274578a516353b16d1760e01b81526001600160a01b039091166004820152602481019290925288908290818381604481015b03925af18015613f2e5761425b575b509080606092541692511692015191813b156135b95786516358f32de960e01b81526001600160a01b03909116600482015260248101929092528490829081838160448101613eb9565b918761426b8293996060956127c9565b97919250614211565b8980fd5b63272e3f5960e21b81036142af5750506142a7600080516020614a118339815191529189519182918d8361406f565b0390a16141b7565b637912120160e01b036142dc57506142a7600080516020614a118339815191529189519182918d836131dc565b600080516020614a3183398151915291506142a79089519182918d83528b898401528b830190612d63565b8392507ff8dcb57698d7067da58ab71c48cd2e3b329b69e7e9853f88630c2c69c2557c7890886135969b9c9697989a99939551169261403f878c83608089015116978460a082015116998c820151958d8251908301519160c06060878601519501519501511694519889988961325d565b909250614393915060e03d8111611e6f57611e5c81836127c9565b92505090913861411e565b9060008281526102666020908082526040906143bb828520613c3a565b61025c80548451635e272ad960e11b81526001600160a01b039693929160e090829060e49082908c908c166143f3600484018a613c9e565b5af1908189918a9361462e575b506145bd57505061440f612c73565b95614419876131ab565b966001600160e01b03198816906306da41e560e11b820361445b57505050505050509361349e600080516020614a118339815191529394955192839283613388565b630b63f1a760e09a99929394959697989a1b83146000146144f65750600080516020614a1183398151915291506144989089519182918d83613218565b0390a15b808254169160808401928284511690838651168787015192823b15613f38578b51630e2c5e9960e41b81526001600160a01b0391821660048201529116602482015260448101929092528890829081838160648101614202565b63f577bef560e01b830361455b57505060a0600080516020614a11833981519152918951908c82528782015260608a820152601a60608201527f7154632062656c6f77206d696e696d756d2072657175697265640000000000006080820152a161449c565b9091637912120160e01b03614592575061458a600080516020614a118339815191529189519182918d836131dc565b0390a161449c565b600080516020614a31833981519152915061458a9089519182918d83528b898401528b830190612d63565b8392507f8ab42044ce8b230e021e5542eb53688d77443e50ee84cda7917f6bdd833c697f90886135969b9c9697989a99939551169261403f878c83608089015116978460a082015116998c820151958d8251908301519160c06060878601519501519501511694519889988961325d565b909250614649915060e03d8111611e6f57611e5c81836127c9565b925050909138614400565b356001600160a01b03811681036102d05790565b813581556020820135600182015560028101906001600160a01b03906146d1906080906004908461469b60408901614654565b16956001600160601b0360a01b968782541617905560038101856146c160608a01614654565b1687825416179055019401614654565b1690825416179055565b60001981146130c45760010190565b6001600160a01b036146d160a060058361470387614654565b16946001600160601b03831b95868254161781556020870135600182015560408701356002820155600381018561473c60608a01614654565b168782541617905560048101856146c160808a01614654565b6001600160a01b036146d160c060068361476e87614654565b16946001600160601b0360a01b958682541617815560208701356001820155604087013560028201556060870135600382015560048101856147b260808a01614654565b168782541617905560058101856146c160a08a01614654565b61025e5461025d54811461482a5760005261026860205260206040600020604051906147f86040836127c9565b5461480660ff8216836130f0565b60081c91829101526001600160801b0361026954164303904382116130c457111590565b50600090565b9060009180835261019380602052604084209260018060a01b03169283855260205260ff604085205416156148655750505050565b8184526020526040832082845260205260408320600160ff198254161790557f2f8788117e7eff1d82e926ec794901d17c78024a50270940304540a733656f0d339380a438808080612886565b3481036125345750565b61495560056101006101f79380356148d56001876127b1565b5560208101356148e66002876127b1565b5560408101356148f76003876127b1565b5560608101356149086004876127b1565b5560808101356149196009876127b1565b5560a081013561492a6008876127b1565b5560c081013561493b6007876127b1565b5560e081013561494c6006876127b1565b550135926127b1565b55565b6097546040805163d994d6d560e01b8152336004820152909291602090829060249082906001600160a01b03165afa908115614a05576000916149e7575b501590816149b7575b506149a75750565b51631dd1b1b560e21b8152600490fd5b90506000526101936020526001816000200154600052806000203360005260205260ff816000205416153861499f565b6149ff915060203d8111612e1c57612e0e81836127c9565b38614996565b83513d6000823e3d90fdfe5bbebb64d62396f99cae4b3b78d9386cb0f2893aab6a69f27eb61f8e7c29775e3ea497186958ec638834f65ec5a571c2b2e877e5d59a76804ec0448fac7829babfa5d40ab595fa613b17566ea5e38a5cac79a71f09ce1435246db2e6805816c27d5e686862ec2250829eb6dee4a7cb0834865072f135485c874d3bbbe39bdfdba2646970667358221220bb214b0db1d83a46793c1fdeb1fedabe9b112762b26c666ceb01054ef928374964736f6c6343000814003360a080604052346100dc57306080526000549060ff8260081c1661008a575060ff8082160361004f575b6040516121b190816100e28239608051818181610c9f01528181610dba0152610f910152f35b60ff90811916176000557f7f26b83ff96e1f2b6a682f133852f6798a09c465da95921460cefb3847402498602060405160ff8152a138610029565b62461bcd60e51b815260206004820152602760248201527f496e697469616c697a61626c653a20636f6e747261637420697320696e697469604482015266616c697a696e6760c81b6064820152608490fd5b600080fdfe60806040908082526004908136101561001757600080fd5b600092833560e01c91826301ffc9a7146113155750816306fdde031461126b578163095ea7b3146112355781630c340a241461120b57816318160ddd146111ec57816323b872dd14611118578163248a9ca3146110ec5781632f2ff15d146110a5578163313ce5671461108957816336568abe14610ff6578382633659cfe614610f5f575081633950935114610f0d57816340c10f1914610e1d5781634f1ef28614610d5e57816352d1902d14610c8a57816370a0823114610c4f57816383d2230d14610b145781638f15b4141461063c5781639010d07c146105fa57816391d14854146105ae57816395d89b41146104cd5781639dc29fac1461037f578163a217fddf14610364578163a457c2d7146102bb578163a9059cbb1461027b578163ca15c87314610252578163d547741f14610208578163dd62ed3e146101ae575063e4c0aaf41461016757600080fd5b346101aa5760203660031901126101aa57356001600160a01b038116908190036101aa5761019361207f565b61019180546001600160a01b031916909117905580f35b5080fd5b919050346102045781600319360112610204576001600160a01b039035818116908190036102005760243591821680920361020057928291602094825260ca8552828220908252845220549051908152f35b8380fd5b8280fd5b9190503461020457816003193601126102045760243590356001600160a01b03821682036102005761024a600161024f9483875260656020528620015461150d565b6115ec565b80f35b919050346102045760203660031901126102045760209282913581526097845220549051908152f35b9190503461020457816003193601126102045735916001600160a01b03831683036102b857506102b16020926024359033611a93565b5160018152f35b80fd5b8284346102b857826003193601126102b8578135916001600160a01b038316918284036102b85784906024359333825260ca602052828220908252602052205490828210610313576020856102b18585038733611c03565b608490602086519162461bcd60e51b8352820152602560248201527f45524332303a2064656372656173656420616c6c6f77616e63652062656c6f77604482015264207a65726f60d81b6064820152fd5b8390346101aa57816003193601126101aa5751908152602090f35b8383346101aa57826003193601126101aa5780356001600160a01b038116919082900361020457602435906103d37f3c11d16cbaffd01df69ce1c404f6340ee057498f5f00246190ea54220576a84861150d565b82156104805782845260c9602052848420549082821061043257508184957fddf252ad1be2c89b69c2b068fc378daa952ba7f163c4a11628f55a4df523b3ef9360209386885260c9855203818720558160cb540360cb5551908152a380f35b608490602087519162461bcd60e51b8352820152602260248201527f45524332303a206275726e20616d6f756e7420657863656564732062616c616e604482015261636560f01b6064820152fd5b608490602086519162461bcd60e51b8352820152602160248201527f45524332303a206275726e2066726f6d20746865207a65726f206164647265736044820152607360f81b6064820152fd5b8390346101aa57816003193601126101aa578051908260cd546104ef81611a36565b808552916001918083169081156105865750600114610529575b50505061051b826105259403836113d2565b51918291826113a6565b0390f35b945060cd85527f83978b4c69c48dd978ab43fe30f077615294f938fb7f936d9eb340e51ea7db2e5b82861061056e5750505061051b8260206105259582010194610509565b80546020878701810191909152909501948101610551565b61052597508693506020925061051b94915060ff191682840152151560051b82010194610509565b919050346102045781600319360112610204576024356001600160a01b03811691908290036102005760209360ff92849235825260658652828220908252855220541690519015158152f35b919050346102045781600319360112610204576020926106269135815260978452826024359120611eed565b905491519160018060a01b039160031b1c168152f35b9050346102045760803660031901126102045767ffffffffffffffff918035838111610b105761066f9036908301611462565b92602435818111610b0c576106879036908401611462565b93604435916001600160a01b03918284168403610b0857606435928316809303610b085787549660ff8860081c161595868097610afb575b8015610ae4575b15610a8a57600198878a60ff198316178c55610a79575b5061070060ff8b5460081c166106f28161211b565b6106fb8161211b565b61211b565b8251848111610a66578061071560cc54611a36565b94601f958681116109f5575b506020908d878411600114610976579261096b575b5050600019600383901b1c1916908a1b1760cc555b8151938411610958575061076060cd54611a36565b8281116108f5575b5060209183116001146108705761082494939291899183610865575b5050600019600383901b1c191690871b1760cd555b6107b660ff885460081c166107ad8161211b565b6106f28161211b565b61019180546001600160a01b03191690911790556107d48187611480565b6107fe817f9f2df0fed2c77648de5860a4cc508cd0818c85b8b8a1ab4ceeef8d981c8956a6611480565b7f3c11d16cbaffd01df69ce1c404f6340ee057498f5f00246190ea54220576a848611480565b61082c578280f35b825461ff0019168355519081527f7f26b83ff96e1f2b6a682f133852f6798a09c465da95921460cefb384740249890602090a138808280f35b015190503880610784565b60cd895293929187917f83978b4c69c48dd978ab43fe30f077615294f938fb7f936d9eb340e51ea7db2e90601f1983168b5b8181106108dd5750968361082498106108c4575b505050811b0160cd55610799565b015160001960f88460031b161c191690553880806108b6565b8289015184558b9590930192602092830192016108a2565b60cd8a527f83978b4c69c48dd978ab43fe30f077615294f938fb7f936d9eb340e51ea7db2e8380860160051c8201926020871061094f575b0160051c019089905b828110610944575050610768565b8b8155018990610936565b9250819261092d565b634e487b7160e01b8a5260419052602489fd5b015190503880610736565b91908d9450601f19841660cc84527f47197230e1e4b29fc0bd84d7d78966c0925452aff72a2a121538b102457e9ebe935b8181106109dd575084116109c4575b505050811b0160cc5561074b565b015160001960f88460031b161c191690553880806109b6565b8284015185558f9690940193602093840193016109a7565b90915060cc8d527f47197230e1e4b29fc0bd84d7d78966c0925452aff72a2a121538b102457e9ebe8680850160051c82019260208610610a5d575b859493910160051c909101908d908f5b838210610a4f57505050610721565b81558594508e91018f610a40565b92508192610a30565b634e487b7160e01b8b526041825260248bfd5b61ffff1916610101178a55386106dd565b608490602089519162461bcd60e51b8352820152602e60248201527f496e697469616c697a61626c653a20636f6e747261637420697320616c72656160448201526d191e481a5b9a5d1a585b1a5e995960921b6064820152fd5b50303b1580156106c65750600160ff8a16146106c6565b50600160ff8a16106106bf565b8780fd5b8580fd5b8480fd5b905034610204576020366003190112610204578135906001600160a01b0382168203610200578380526065602052610b516001828620015461150d565b610b5b8285611480565b7f9f2df0fed2c77648de5860a4cc508cd0818c85b8b8a1ab4ceeef8d981c8956a6610b868382611480565b610bb17f3c11d16cbaffd01df69ce1c404f6340ee057498f5f00246190ea54220576a8489384611480565b610bbb33826115ec565b610bc533846115ec565b610bcf33866115ec565b848052609760205260018286205403610c3857808552609760205260018286205403610c225750818452609760205260018185205403610c0d578380f35b51630e2b37cd60e41b81529182015260249150fd5b83906024925191630e2b37cd60e41b8352820152fd5b8151630e2b37cd60e41b8152808501869052602490fd5b9190503461020457602036600319011261020457356001600160a01b03811690819003610204578282916020945260c9845220549051908152f35b8284346102b857806003193601126102b857507f00000000000000000000000000000000000000000000000000000000000000006001600160a01b03163003610cf657602082517f360894a13ba1a3210667c828492db98dca3e2076cc3735a920a3ca505d382bbc8152f35b6020608492519162461bcd60e51b8352820152603860248201527f555550535570677261646561626c653a206d757374206e6f742062652063616c60448201527f6c6564207468726f7567682064656c656761746563616c6c00000000000000006064820152fd5b36600319011290506101aa5780356001600160a01b038082168203610200576024359167ffffffffffffffff8311610b105736602384011215610b1057610e10610db661024f95856024600197369301359101611426565b92807f00000000000000000000000000000000000000000000000000000000000000001690610de782301415611672565b7f360894a13ba1a3210667c828492db98dca3e2076cc3735a920a3ca505d382bbc5416146116d3565b610e1861207f565b611734565b905082346102b857816003193601126102b85782356001600160a01b03811691908290036102b857602435610e717f9f2df0fed2c77648de5860a4cc508cd0818c85b8b8a1ab4ceeef8d981c8956a661150d565b8215610eca57602080955081610eaa7fddf252ad1be2c89b69c2b068fc378daa952ba7f163c4a11628f55a4df523b3ef9360cb54611a70565b60cb5584845260c982528584208181540190558551908152a35160018152f35b835162461bcd60e51b8152602081870152601f60248201527f45524332303a206d696e7420746f20746865207a65726f2061646472657373006044820152606490fd5b91905034610204578160031936011261020457356001600160a01b0381168082036102005790610f586020946102b19333825260ca8752858220908252865284602435912054611a70565b9033611c03565b915091346101aa5760203660031901126101aa576001600160a01b03929035838116810361020457610fbe8461024f957f00000000000000000000000000000000000000000000000000000000000000001690610de782301415611672565b610fc661207f565b610fdb610fd28461140a565b925192836113d2565b828252601f19610fea8461140a565b01366020840137611734565b8383346101aa57826003193601126101aa57602435906001600160a01b03821680830361020057330361102e579061024f91356115ec565b608490602085519162461bcd60e51b8352820152602f60248201527f416363657373436f6e74726f6c3a2063616e206f6e6c792072656e6f756e636560448201526e103937b632b9903337b91039b2b63360891b6064820152fd5b8390346101aa57816003193601126101aa576020905160128152f35b9190503461020457816003193601126102045760243590356001600160a01b0382168203610200576110e7600161024f9483875260656020528620015461150d565b611480565b919050346102045760203660031901126102045781602093600192358152606585522001549051908152f35b8383346101aa5760603660031901126101aa5780356001600160a01b03818116939092908483036102b85760243593841684036102b857859060443595815260ca6020528181203382526020522054906000198203611180575b6020866102b1878787611a93565b8482106111a9575091839161119e602096956102b195033383611c03565b919394819350611172565b606490602087519162461bcd60e51b8352820152601d60248201527f45524332303a20696e73756666696369656e7420616c6c6f77616e63650000006044820152fd5b8390346101aa57816003193601126101aa5760209060cb549051908152f35b8390346101aa57816003193601126101aa576101915490516001600160a01b039091168152602090f35b9190503461020457816003193601126102045735916001600160a01b03831683036102b857506102b16020926024359033611c03565b8390346101aa57816003193601126101aa578051908260cc5461128d81611a36565b8085529160019180831690811561058657506001146112b85750505061051b826105259403836113d2565b945060cc85527f47197230e1e4b29fc0bd84d7d78966c0925452aff72a2a121538b102457e9ebe5b8286106112fd5750505061051b8260206105259582010194610509565b805460208787018101919091529095019481016112e0565b84908434610204576020366003190112610204573563ffffffff60e01b81168091036102045760209250635a05180f60e01b8114908115611358575b5015158152f35b637965db0b60e01b811491508115611372575b5083611351565b6301ffc9a760e01b1490508361136b565b60005b8381106113965750506000910152565b8181015183820152602001611386565b604091602082526113c68151809281602086015260208686019101611383565b601f01601f1916010190565b90601f8019910116810190811067ffffffffffffffff8211176113f457604052565b634e487b7160e01b600052604160045260246000fd5b67ffffffffffffffff81116113f457601f01601f191660200190565b9291926114328261140a565b9161144060405193846113d2565b82948184528183011161145d578281602093846000960137010152565b600080fd5b9080601f8301121561145d5781602061147d93359101611426565b90565b9060406114bf9260009080825260656020528282209360018060a01b03169384835260205260ff8383205416156114c2575b8152609760205220611f05565b50565b8082526065602052828220848352602052828220600160ff198254161790553384827f2f8788117e7eff1d82e926ec794901d17c78024a50270940304540a733656f0d8580a46114b2565b80600052602060658152604060002033600052815260ff6040600020541615611534575050565b6115d060486115e893836115566115c195611550601433611d96565b93611d96565b906040519586937f416363657373436f6e74726f6c3a206163636f756e7420000000000000000000838601526115958151809285603789019101611383565b8401917001034b99036b4b9b9b4b733903937b6329607d1b603784015283519384918785019101611383565b010360288101845201826113d2565b60405162461bcd60e51b8152918291600483016113a6565b0390fd5b9060406114bf9260009080825260656020528282209360018060a01b03169384835260205260ff838320541661162a575b8152609760205220611f8f565b808252606560205282822084835260205282822060ff1981541690553384827ff6391f5c32d9c69d2a47ea670b442974b53935d1edc7fd64eb21e047a839171b8580a461161d565b1561167957565b60405162461bcd60e51b815260206004820152602c60248201527f46756e6374696f6e206d7573742062652063616c6c6564207468726f7567682060448201526b19195b1959d85d1958d85b1b60a21b6064820152608490fd5b156116da57565b60405162461bcd60e51b815260206004820152602c60248201527f46756e6374696f6e206d7573742062652063616c6c6564207468726f7567682060448201526b6163746976652070726f787960a01b6064820152608490fd5b909160ff7f4910fdfa16fed3260ed0e7147f7cc6da11a60208b5b9406d12a635614ffd9143541660001461176f575061176d9150611994565b565b604080516352d1902d60e01b8152602094919392906001600160a01b038416908681600481855afa60009181611965575b5061180057855162461bcd60e51b815260048101889052602e60248201527f45524331393637557067726164653a206e657720696d706c656d656e7461746960448201526d6f6e206973206e6f74205555505360901b6064820152608490fd5b9395929492937fc9f76b5ec45e5cdef99837d7b6d2467235c1df8933c8ca56df5c35afa2c7d4440161190f5761183586611994565b7fbc7cd75a20ee27fd9adebab32041f755214dbc6bffa90cc0225b39da2e5c2d3b600080a283511590811591611907575b50611872575b50505050565b6118f393600080611883602761140a565b95611890855197886113d2565b602787527f416464726573733a206c6f772d6c6576656c2064656c65676174652063616c6c86880152660819985a5b195960ca1b858801528581519101845af4913d156118fd573d6118e4610fd28261140a565b8152600081943d92013e611d05565b503880808061186c565b5060609250611d05565b905038611866565b825162461bcd60e51b815260048101859052602960248201527f45524331393637557067726164653a20756e737570706f727465642070726f786044820152681a58589b195555525160ba1b6064820152608490fd5b90918882813d831161198d575b61197c81836113d2565b810103126102b857505190386117a0565b503d611972565b803b156119db577f360894a13ba1a3210667c828492db98dca3e2076cc3735a920a3ca505d382bbc80546001600160a01b0319166001600160a01b03909216919091179055565b60405162461bcd60e51b815260206004820152602d60248201527f455243313936373a206e657720696d706c656d656e746174696f6e206973206e60448201526c1bdd08184818dbdb9d1c9858dd609a1b6064820152608490fd5b90600182811c92168015611a66575b6020831014611a5057565b634e487b7160e01b600052602260045260246000fd5b91607f1691611a45565b91908201809211611a7d57565b634e487b7160e01b600052601160045260246000fd5b6001600160a01b03908116918215611bb05716918215611b5f57600082815260c9602052604081205491808310611b0b57604082827fddf252ad1be2c89b69c2b068fc378daa952ba7f163c4a11628f55a4df523b3ef95876020965260c98652038282205586815220818154019055604051908152a3565b60405162461bcd60e51b815260206004820152602660248201527f45524332303a207472616e7366657220616d6f756e7420657863656564732062604482015265616c616e636560d01b6064820152608490fd5b60405162461bcd60e51b815260206004820152602360248201527f45524332303a207472616e7366657220746f20746865207a65726f206164647260448201526265737360e81b6064820152608490fd5b60405162461bcd60e51b815260206004820152602560248201527f45524332303a207472616e736665722066726f6d20746865207a65726f206164604482015264647265737360d81b6064820152608490fd5b6001600160a01b03908116918215611cb45716918215611c645760207f8c5be1e5ebec7d5bd14f71427d1e84f3dd0314c0f7b2291e5b200ac8c7c3b925918360005260ca8252604060002085600052825280604060002055604051908152a3565b60405162461bcd60e51b815260206004820152602260248201527f45524332303a20617070726f766520746f20746865207a65726f206164647265604482015261737360f01b6064820152608490fd5b60405162461bcd60e51b8152602060048201526024808201527f45524332303a20617070726f76652066726f6d20746865207a65726f206164646044820152637265737360e01b6064820152608490fd5b91929015611d675750815115611d19575090565b3b15611d225790565b60405162461bcd60e51b815260206004820152601d60248201527f416464726573733a2063616c6c20746f206e6f6e2d636f6e74726163740000006044820152606490fd5b825190915015611d7a5750805190602001fd5b60405162461bcd60e51b81529081906115e890600483016113a6565b60019180831b91906001600160ff1b03811603611a7d576002820192838311611a7d57611ddb611dc58561140a565b94611dd360405196876113d2565b80865261140a565b6020939085850190601f1901368237855115611ed757603090538451821015611ed75760786021860153818101809111611a7d57905b808211611e65575050611e22575090565b6064906040519062461bcd60e51b825280600483015260248201527f537472696e67733a20686578206c656e67746820696e73756666696369656e746044820152fd5b9091600f81166010811015611ec2578551841015611ec2576f181899199a1a9b1b9c1cb0b131b232b360811b901a85840185015360041c918015611ead576000190190611e11565b60246000634e487b7160e01b81526011600452fd5b60246000634e487b7160e01b81526032600452fd5b634e487b7160e01b600052603260045260246000fd5b8054821015611ed75760005260206000200190600090565b91906001830160009082825280602052604082205415600014611f895784549468010000000000000000861015611f755783611f65611f4e886001604098999a01855584611eed565b819391549060031b91821b91600019901b19161790565b9055549382526020522055600190565b634e487b7160e01b83526041600452602483fd5b50925050565b906001820190600092818452826020526040842054908115156000146120785760001991808301818111612064578254908482019182116120505780820361201b575b5050508054801561200757820191611fea8383611eed565b909182549160031b1b191690555582526020526040812055600190565b634e487b7160e01b86526031600452602486fd5b61203b61202b611f4e9386611eed565b90549060031b1c92839286611eed565b90558652846020526040862055388080611fd2565b634e487b7160e01b88526011600452602488fd5b634e487b7160e01b87526011600452602487fd5b5050505090565b6101915460405163d994d6d560e01b815233600482015290602090829060249082906001600160a01b03165afa90811561210f576000916120d5575b50156120c357565b604051631dd1b1b560e21b8152600490fd5b6020813d8211612107575b816120ed602093836113d2565b810103126101aa57519081151582036102b85750386120bb565b3d91506120e0565b6040513d6000823e3d90fd5b1561212257565b60405162461bcd60e51b815260206004820152602b60248201527f496e697469616c697a61626c653a20636f6e7472616374206973206e6f74206960448201526a6e697469616c697a696e6760a81b6064820152608490fdfea2646970667358221220b4bc45ba66fc54361e79fb085d11164ced6bafe31aa9944a1445336cfdf1e6a764736f6c6343000814003360a060405234620000495730608052620000186200004e565b620000226200004e565b6040516124049081620000f88239608051818181610e2e01528181610f4901526111810152f35b600080fd5b60005460ff8160081c16620000a25760ff808216036200006b5750565b60ff90811916176000557f7f26b83ff96e1f2b6a682f133852f6798a09c465da95921460cefb3847402498602060405160ff8152a1565b60405162461bcd60e51b815260206004820152602760248201527f496e697469616c697a61626c653a20636f6e747261637420697320696e697469604482015266616c697a696e6760c81b6064820152608490fdfe60806040908082526004908136101561001757600080fd5b600092833560e01c91826301ffc9a7146115055750816306fdde031461145b578163095ea7b3146114255781630c340a24146113fb57816318160ddd146113dc57816323b872dd14611308578163248a9ca3146112dc5781632f2ff15d14611295578163313ce5671461127957816336568abe146111e6578382633659cfe61461114f5750816339509351146110fd57816340c10f1914610fac5781634f1ef28614610eed57816352d1902d14610e195781635c975abb14610df457816370a0823114610db957816383d2230d14610c0f5781638456cb5914610b575781638f15b414146106b35781639010d07c1461067157816391d148541461062557816395d89b41146105445781639dc29fac14610395578163a217fddf1461037a578163a457c2d7146102d1578163a9059cbb14610291578163ca15c87314610268578163d547741f1461021e578163dd62ed3e146101c4575063e4c0aaf41461017d57600080fd5b346101c05760203660031901126101c057356001600160a01b038116908190036101c0576101a96122d2565b61019180546001600160a01b031916909117905580f35b5080fd5b9190503461021a578160031936011261021a576001600160a01b039035818116908190036102165760243591821680920361021657928291602094825260ca8552828220908252845220549051908152f35b8380fd5b8280fd5b9190503461021a578160031936011261021a5760243590356001600160a01b0382168203610216576102606001610265948387526065602052862001546116fd565b6117dc565b80f35b9190503461021a57602036600319011261021a5760209282913581526097845220549051908152f35b9190503461021a578160031936011261021a5735916001600160a01b03831683036102ce57506102c76020926024359033611c83565b5160018152f35b80fd5b8284346102ce57826003193601126102ce578135916001600160a01b038316918284036102ce5784906024359333825260ca602052828220908252602052205490828210610329576020856102c78585038733611e56565b608490602086519162461bcd60e51b8352820152602560248201527f45524332303a2064656372656173656420616c6c6f77616e63652062656c6f77604482015264207a65726f60d81b6064820152fd5b8390346101c057816003193601126101c05751908152602090f35b8383346101c057826003193601126101c05780356001600160a01b038116919082900361021a57602435906103e97f3c11d16cbaffd01df69ce1c404f6340ee057498f5f00246190ea54220576a8486116fd565b82156104f75760ff6101c454166104a15782845260c9602052848420549082821061045357508184957fddf252ad1be2c89b69c2b068fc378daa952ba7f163c4a11628f55a4df523b3ef9360209386885260c9855203818720558160cb540360cb5551908152a380f35b608490602087519162461bcd60e51b8352820152602260248201527f45524332303a206275726e20616d6f756e7420657863656564732062616c616e604482015261636560f01b6064820152fd5b608490602086519162461bcd60e51b8352820152602a60248201527f45524332305061757361626c653a20746f6b656e207472616e736665722077686044820152691a5b19481c185d5cd95960b21b6064820152fd5b608490602086519162461bcd60e51b8352820152602160248201527f45524332303a206275726e2066726f6d20746865207a65726f206164647265736044820152607360f81b6064820152fd5b8390346101c057816003193601126101c0578051908260cd5461056681611c26565b808552916001918083169081156105fd57506001146105a0575b5050506105928261059c9403836115c2565b5191829182611596565b0390f35b945060cd85527f83978b4c69c48dd978ab43fe30f077615294f938fb7f936d9eb340e51ea7db2e5b8286106105e55750505061059282602061059c9582010194610580565b805460208787018101919091529095019481016105c8565b61059c97508693506020925061059294915060ff191682840152151560051b82010194610580565b9190503461021a578160031936011261021a576024356001600160a01b03811691908290036102165760209360ff92849235825260658652828220908252855220541690519015158152f35b9190503461021a578160031936011261021a5760209261069d9135815260978452826024359120612140565b905491519160018060a01b039160031b1c168152f35b9190503461021a57608036600319011261021a5767ffffffffffffffff8135818111610b53576106e69036908401611652565b90602435818111610b4f576106fe9036908501611652565b91604435916001600160a01b03918284168403610b4b57606435928316809303610b4b5787549460ff8660081c161596878098610b3e575b8015610b27575b15610acd57600196888860ff198316178c55610abc575b5061077760ff8b5460081c166107698161236e565b6107728161236e565b61236e565b8251848111610aa9578061078c60cc54611c26565b94601f95868111610a38575b506020908d8784116001146109b957926109ae575b5050600019600383901b1c191690881b1760cc555b815193841161099b57506107d760cd54611c26565b828111610938575b5060209183116001146108b357610847949392918991836108a8575b5050600019600383901b1c191690851b1760cd555b61082d60ff885460081c166108248161236e565b6107698161236e565b61019180546001600160a01b031916909117905585611670565b83549161085d60ff8460081c166107728161236e565b6101c4805460ff19169055610870578380f35b7f7f26b83ff96e1f2b6a682f133852f6798a09c465da95921460cefb38474024989260209261ff001916855551908152a13880808380f35b0151905038806107fb565b60cd895293929185917f83978b4c69c48dd978ab43fe30f077615294f938fb7f936d9eb340e51ea7db2e90601f1983168b5b818110610920575096836108479810610907575b505050811b0160cd55610810565b015160001960f88460031b161c191690553880806108f9565b828901518455899590930192602092830192016108e5565b60cd8a527f83978b4c69c48dd978ab43fe30f077615294f938fb7f936d9eb340e51ea7db2e8380860160051c82019260208710610992575b0160051c019087905b8281106109875750506107df565b8b8155018790610979565b92508192610970565b634e487b7160e01b8a5260419052602489fd5b0151905038806107ad565b91908b9450601f19841660cc84527f47197230e1e4b29fc0bd84d7d78966c0925452aff72a2a121538b102457e9ebe935b818110610a2057508411610a07575b505050811b0160cc556107c2565b015160001960f88460031b161c191690553880806109f9565b8284015185558d9690940193602093840193016109ea565b90915060cc8d527f47197230e1e4b29fc0bd84d7d78966c0925452aff72a2a121538b102457e9ebe8680850160051c82019260208610610aa0575b859493910160051c909101908b908f5b838210610a9257505050610798565b81558594508c91018f610a83565b92508192610a73565b634e487b7160e01b8b526041825260248bfd5b61ffff1916610101178a5538610754565b60849060208a519162461bcd60e51b8352820152602e60248201527f496e697469616c697a61626c653a20636f6e747261637420697320616c72656160448201526d191e481a5b9a5d1a585b1a5e995960921b6064820152fd5b50303b15801561073d5750600160ff88161461073d565b50600160ff881610610736565b8780fd5b8580fd5b8480fd5b8383346101c057816003193601126101c057610b927f65d7a28e3265b37a6474929f336521b332c1681b933f6cb9f3376673440d862a6116fd565b6101c49081549060ff8216610bd9575060ff1916600117905581513381527f62e78cea01bee320cd4e420270b5ea74000d11b0c9f74754ebdbfc544b05a25890602090a180f35b606490602086519162461bcd60e51b8352820152601060248201526f14185d5cd8589b194e881c185d5cd95960821b6044820152fd5b90503461021a5760209081600319360112610216578235916001600160a01b0383168303610b535784805260658152600190610c4f8284882001546116fd565b7f65d7a28e3265b37a6474929f336521b332c1681b933f6cb9f3376673440d862a93610c7b8186611670565b610c8533866117dc565b86805260658252610c9a8385892001546116fd565b610ca48188611670565b7f9f2df0fed2c77648de5860a4cc508cd0818c85b8b8a1ab4ceeef8d981c8956a6610ccf8282611670565b610cfa7f3c11d16cbaffd01df69ce1c404f6340ee057498f5f00246190ea54220576a8489283611670565b610d0433826117dc565b610d0e33836117dc565b610d1833896117dc565b87805260978352838589205403610da25780885260978352838589205403610d8c575080875260978252828488205403610d765750609790848752528185205403610d61578380f35b51630e2b37cd60e41b81529182015260249150fd5b85602491855191630e2b37cd60e41b8352820152fd5b86602491865191630e2b37cd60e41b8352820152fd5b8451630e2b37cd60e41b8152808801899052602490fd5b9190503461021a57602036600319011261021a57356001600160a01b0381169081900361021a578282916020945260c9845220549051908152f35b8390346101c057816003193601126101c05760209060ff6101c4541690519015158152f35b8284346102ce57806003193601126102ce57507f00000000000000000000000000000000000000000000000000000000000000006001600160a01b03163003610e8557602082517f360894a13ba1a3210667c828492db98dca3e2076cc3735a920a3ca505d382bbc8152f35b6020608492519162461bcd60e51b8352820152603860248201527f555550535570677261646561626c653a206d757374206e6f742062652063616c60448201527f6c6564207468726f7567682064656c656761746563616c6c00000000000000006064820152fd5b36600319011290506101c05780356001600160a01b038082168203610216576024359167ffffffffffffffff8311610b535736602384011215610b5357610f9f610f4561026595856024600197369301359101611616565b92807f00000000000000000000000000000000000000000000000000000000000000001690610f7682301415611862565b7f360894a13ba1a3210667c828492db98dca3e2076cc3735a920a3ca505d382bbc5416146118c3565b610fa76122d2565b611924565b905082346102ce57816003193601126102ce5782356001600160a01b03811691908290036102ce576024356110007f9f2df0fed2c77648de5860a4cc508cd0818c85b8b8a1ab4ceeef8d981c8956a66116fd565b82156110ba5760ff6101c45416611064576020809550816110447fddf252ad1be2c89b69c2b068fc378daa952ba7f163c4a11628f55a4df523b3ef9360cb54611c60565b60cb5584845260c982528584208181540190558551908152a35160018152f35b835162461bcd60e51b8152602081870152602a60248201527f45524332305061757361626c653a20746f6b656e207472616e736665722077686044820152691a5b19481c185d5cd95960b21b6064820152608490fd5b835162461bcd60e51b8152602081870152601f60248201527f45524332303a206d696e7420746f20746865207a65726f2061646472657373006044820152606490fd5b9190503461021a578160031936011261021a57356001600160a01b03811680820361021657906111486020946102c79333825260ca8752858220908252865284602435912054611c60565b9033611e56565b915091346101c05760203660031901126101c0576001600160a01b03929035838116810361021a576111ae84610265957f00000000000000000000000000000000000000000000000000000000000000001690610f7682301415611862565b6111b66122d2565b6111cb6111c2846115fa565b925192836115c2565b828252601f196111da846115fa565b01366020840137611924565b8383346101c057826003193601126101c057602435906001600160a01b03821680830361021657330361121e579061026591356117dc565b608490602085519162461bcd60e51b8352820152602f60248201527f416363657373436f6e74726f6c3a2063616e206f6e6c792072656e6f756e636560448201526e103937b632b9903337b91039b2b63360891b6064820152fd5b8390346101c057816003193601126101c0576020905160128152f35b9190503461021a578160031936011261021a5760243590356001600160a01b0382168203610216576112d76001610265948387526065602052862001546116fd565b611670565b9190503461021a57602036600319011261021a5781602093600192358152606585522001549051908152f35b8383346101c05760603660031901126101c05780356001600160a01b03818116939092908483036102ce5760243593841684036102ce57859060443595815260ca6020528181203382526020522054906000198203611370575b6020866102c7878787611c83565b848210611399575091839161138e602096956102c795033383611e56565b919394819350611362565b606490602087519162461bcd60e51b8352820152601d60248201527f45524332303a20696e73756666696369656e7420616c6c6f77616e63650000006044820152fd5b8390346101c057816003193601126101c05760209060cb549051908152f35b8390346101c057816003193601126101c0576101915490516001600160a01b039091168152602090f35b9190503461021a578160031936011261021a5735916001600160a01b03831683036102ce57506102c76020926024359033611e56565b8390346101c057816003193601126101c0578051908260cc5461147d81611c26565b808552916001918083169081156105fd57506001146114a8575050506105928261059c9403836115c2565b945060cc85527f47197230e1e4b29fc0bd84d7d78966c0925452aff72a2a121538b102457e9ebe5b8286106114ed5750505061059282602061059c9582010194610580565b805460208787018101919091529095019481016114d0565b8490843461021a57602036600319011261021a573563ffffffff60e01b811680910361021a5760209250635a05180f60e01b8114908115611548575b5015158152f35b637965db0b60e01b811491508115611562575b5083611541565b6301ffc9a760e01b1490508361155b565b60005b8381106115865750506000910152565b8181015183820152602001611576565b604091602082526115b68151809281602086015260208686019101611573565b601f01601f1916010190565b90601f8019910116810190811067ffffffffffffffff8211176115e457604052565b634e487b7160e01b600052604160045260246000fd5b67ffffffffffffffff81116115e457601f01601f191660200190565b929192611622826115fa565b9161163060405193846115c2565b82948184528183011161164d578281602093846000960137010152565b600080fd5b9080601f8301121561164d5781602061166d93359101611616565b90565b9060406116af9260009080825260656020528282209360018060a01b03169384835260205260ff8383205416156116b2575b8152609760205220612158565b50565b8082526065602052828220848352602052828220600160ff198254161790553384827f2f8788117e7eff1d82e926ec794901d17c78024a50270940304540a733656f0d8580a46116a2565b80600052602060658152604060002033600052815260ff6040600020541615611724575050565b6117c060486117d893836117466117b195611740601433611fe9565b93611fe9565b906040519586937f416363657373436f6e74726f6c3a206163636f756e7420000000000000000000838601526117858151809285603789019101611573565b8401917001034b99036b4b9b9b4b733903937b6329607d1b603784015283519384918785019101611573565b010360288101845201826115c2565b60405162461bcd60e51b815291829160048301611596565b0390fd5b9060406116af9260009080825260656020528282209360018060a01b03169384835260205260ff838320541661181a575b81526097602052206121e2565b808252606560205282822084835260205282822060ff1981541690553384827ff6391f5c32d9c69d2a47ea670b442974b53935d1edc7fd64eb21e047a839171b8580a461180d565b1561186957565b60405162461bcd60e51b815260206004820152602c60248201527f46756e6374696f6e206d7573742062652063616c6c6564207468726f7567682060448201526b19195b1959d85d1958d85b1b60a21b6064820152608490fd5b156118ca57565b60405162461bcd60e51b815260206004820152602c60248201527f46756e6374696f6e206d7573742062652063616c6c6564207468726f7567682060448201526b6163746976652070726f787960a01b6064820152608490fd5b909160ff7f4910fdfa16fed3260ed0e7147f7cc6da11a60208b5b9406d12a635614ffd9143541660001461195f575061195d9150611b84565b565b604080516352d1902d60e01b8152602094919392906001600160a01b038416908681600481855afa60009181611b55575b506119f057855162461bcd60e51b815260048101889052602e60248201527f45524331393637557067726164653a206e657720696d706c656d656e7461746960448201526d6f6e206973206e6f74205555505360901b6064820152608490fd5b9395929492937fc9f76b5ec45e5cdef99837d7b6d2467235c1df8933c8ca56df5c35afa2c7d44401611aff57611a2586611b84565b7fbc7cd75a20ee27fd9adebab32041f755214dbc6bffa90cc0225b39da2e5c2d3b600080a283511590811591611af7575b50611a62575b50505050565b611ae393600080611a7360276115fa565b95611a80855197886115c2565b602787527f416464726573733a206c6f772d6c6576656c2064656c65676174652063616c6c86880152660819985a5b195960ca1b858801528581519101845af4913d15611aed573d611ad46111c2826115fa565b8152600081943d92013e611f58565b5038808080611a5c565b5060609250611f58565b905038611a56565b825162461bcd60e51b815260048101859052602960248201527f45524331393637557067726164653a20756e737570706f727465642070726f786044820152681a58589b195555525160ba1b6064820152608490fd5b90918882813d8311611b7d575b611b6c81836115c2565b810103126102ce5750519038611990565b503d611b62565b803b15611bcb577f360894a13ba1a3210667c828492db98dca3e2076cc3735a920a3ca505d382bbc80546001600160a01b0319166001600160a01b03909216919091179055565b60405162461bcd60e51b815260206004820152602d60248201527f455243313936373a206e657720696d706c656d656e746174696f6e206973206e60448201526c1bdd08184818dbdb9d1c9858dd609a1b6064820152608490fd5b90600182811c92168015611c56575b6020831014611c4057565b634e487b7160e01b600052602260045260246000fd5b91607f1691611c35565b91908201809211611c6d57565b634e487b7160e01b600052601160045260246000fd5b6001600160a01b03908116918215611e035716918215611db25760ff6101c45416611d5a57600082815260c9602052604081205491808310611d0657604082827fddf252ad1be2c89b69c2b068fc378daa952ba7f163c4a11628f55a4df523b3ef95876020965260c98652038282205586815220818154019055604051908152a3565b60405162461bcd60e51b815260206004820152602660248201527f45524332303a207472616e7366657220616d6f756e7420657863656564732062604482015265616c616e636560d01b6064820152608490fd5b60405162461bcd60e51b815260206004820152602a60248201527f45524332305061757361626c653a20746f6b656e207472616e736665722077686044820152691a5b19481c185d5cd95960b21b6064820152608490fd5b60405162461bcd60e51b815260206004820152602360248201527f45524332303a207472616e7366657220746f20746865207a65726f206164647260448201526265737360e81b6064820152608490fd5b60405162461bcd60e51b815260206004820152602560248201527f45524332303a207472616e736665722066726f6d20746865207a65726f206164604482015264647265737360d81b6064820152608490fd5b6001600160a01b03908116918215611f075716918215611eb75760207f8c5be1e5ebec7d5bd14f71427d1e84f3dd0314c0f7b2291e5b200ac8c7c3b925918360005260ca8252604060002085600052825280604060002055604051908152a3565b60405162461bcd60e51b815260206004820152602260248201527f45524332303a20617070726f766520746f20746865207a65726f206164647265604482015261737360f01b6064820152608490fd5b60405162461bcd60e51b8152602060048201526024808201527f45524332303a20617070726f76652066726f6d20746865207a65726f206164646044820152637265737360e01b6064820152608490fd5b91929015611fba5750815115611f6c575090565b3b15611f755790565b60405162461bcd60e51b815260206004820152601d60248201527f416464726573733a2063616c6c20746f206e6f6e2d636f6e74726163740000006044820152606490fd5b825190915015611fcd5750805190602001fd5b60405162461bcd60e51b81529081906117d89060048301611596565b60019180831b91906001600160ff1b03811603611c6d576002820192838311611c6d5761202e612018856115fa565b9461202660405196876115c2565b8086526115fa565b6020939085850190601f190136823785511561212a5760309053845182101561212a5760786021860153818101809111611c6d57905b8082116120b8575050612075575090565b6064906040519062461bcd60e51b825280600483015260248201527f537472696e67733a20686578206c656e67746820696e73756666696369656e746044820152fd5b9091600f81166010811015612115578551841015612115576f181899199a1a9b1b9c1cb0b131b232b360811b901a85840185015360041c918015612100576000190190612064565b60246000634e487b7160e01b81526011600452fd5b60246000634e487b7160e01b81526032600452fd5b634e487b7160e01b600052603260045260246000fd5b805482101561212a5760005260206000200190600090565b919060018301600090828252806020526040822054156000146121dc57845494680100000000000000008610156121c857836121b86121a1886001604098999a01855584612140565b819391549060031b91821b91600019901b19161790565b9055549382526020522055600190565b634e487b7160e01b83526041600452602483fd5b50925050565b906001820190600092818452826020526040842054908115156000146122cb57600019918083018181116122b7578254908482019182116122a35780820361226e575b5050508054801561225a5782019161223d8383612140565b909182549160031b1b191690555582526020526040812055600190565b634e487b7160e01b86526031600452602486fd5b61228e61227e6121a19386612140565b90549060031b1c92839286612140565b90558652846020526040862055388080612225565b634e487b7160e01b88526011600452602488fd5b634e487b7160e01b87526011600452602487fd5b5050505090565b6101915460405163d994d6d560e01b815233600482015290602090829060249082906001600160a01b03165afa90811561236257600091612328575b501561231657565b604051631dd1b1b560e21b8152600490fd5b6020813d821161235a575b81612340602093836115c2565b810103126101c057519081151582036102ce57503861230e565b3d9150612333565b6040513d6000823e3d90fd5b1561237557565b60405162461bcd60e51b815260206004820152602b60248201527f496e697469616c697a61626c653a20636f6e7472616374206973206e6f74206960448201526a6e697469616c697a696e6760a81b6064820152608490fdfea2646970667358221220daac95f75b531c75bee714c253b7504c852f4008a3ee371c9af9018fa0d39dfc64736f6c6343000814003360a080604052346100dc57306080526000549060ff8260081c1661008a575060ff8082160361004f575b604051610f4a90816100e28239608051818181610544015281816106ac01526107be0152f35b60ff90811916176000557f7f26b83ff96e1f2b6a682f133852f6798a09c465da95921460cefb3847402498602060405160ff8152a138610029565b62461bcd60e51b815260206004820152602760248201527f496e697469616c697a61626c653a20636f6e747261637420697320696e697469604482015266616c697a696e6760c81b6064820152608490fd5b600080fdfe6040608081526004908136101561001557600080fd5b600091823560e01c806305216f72146108a25780630c340a24146108795780632d88af4a14610823578381633659cfe61461078c575080633f4ba83a14610713578381634f1ef28614610629575080635210570c1461060357806352d1902d1461052f5780635c975abb1461050857806364a731e9146104ce57806368274357146104a25780638456cb59146104015780638b9789c9146103e35780639fd0506d146103b6578063bb4872de14610392578063c0c53b8b146101cb578063d6c9858b146101a1578063e4c0aaf4146101545763e6fd7096146100f657600080fd5b346101505781600319360112610150578035916001600160a01b03808416840361014c5761012f54163303610135578361013260243585610ece565b80f35b6024925051906302976a2f60e01b82523390820152fd5b8480fd5b8280fd5b83823461019d57602036600319011261019d57356001600160a01b0381169081900361019d57610182610dd3565b6bffffffffffffffffffffffff60a01b609754161760975580f35b5080fd5b50503461019d578160031936011261019d5761012f5490516001600160a01b039091168152602090f35b50346101505760603660031901126101505780356001600160a01b03818116929183900361014c576024359281841680940361038e57604435918216820361038e57855460ff8160081c161593848095610381575b801561036a575b1561031057506001929161029d91858560ff198316178a556102ff575b506bffffffffffffffffffffffff60a01b9061012f908282541617905587549560ff8760081c169161027583610e6e565b61027e83610e6e565b61028783610e6e565b61029083610e6e565b6097541617609755610e6e565b60ca5490620100008360b01b039060101b169061ff018360b01b031916171760ca556102c7578280f35b61ff001916825551600181527f7f26b83ff96e1f2b6a682f133852f6798a09c465da95921460cefb384740249890602090a138808280f35b61ffff191661010117885538610244565b608490602088519162461bcd60e51b8352820152602e60248201527f496e697469616c697a61626c653a20636f6e747261637420697320616c72656160448201526d191e481a5b9a5d1a585b1a5e995960921b6064820152fd5b50303b1580156102275750600160ff831614610227565b50600160ff831610610220565b8580fd5b50503461019d578160031936011261019d5760209060ff60ca541690519015158152f35b50503461019d578160031936011261019d5760ca54905160109190911c6001600160a01b03168152602090f35b83823461019d57602036600319011261019d57610132903533610ece565b503461015057826003193601126101505760ca549060ff8260081c1661049457601082901c6001600160a01b031633036104865760ff821615610478575061ff0019166101001760ca55513381527f62e78cea01bee320cd4e420270b5ea74000d11b0c9f74754ebdbfc544b05a25890602090a180f35b825163866099c360e01b8152fd5b8251631d77d47760e21b8152fd5b825163783bb6c960e11b8152fd5b83346104cb57806003193601126104cb576104bb610dd3565b600160ff1960ca54161760ca5580f35b80fd5b503461015057602036600319011261015057356001600160a01b038116908190036101505782829160209452610130845220549051908152f35b50503461019d578160031936011261019d5760209060ff60ca5460081c1690519015158152f35b5082346104cb57806003193601126104cb57507f00000000000000000000000000000000000000000000000000000000000000006001600160a01b0316300361059b57602082517f360894a13ba1a3210667c828492db98dca3e2076cc3735a920a3ca505d382bbc8152f35b6020608492519162461bcd60e51b8352820152603860248201527f555550535570677261646561626c653a206d757374206e6f742062652063616c60448201527f6c6564207468726f7567682064656c656761746563616c6c00000000000000006064820152fd5b83346104cb57806003193601126104cb5761061c610dd3565b60ff1960ca541660ca5580f35b9280915060031936011261070f5781356001600160a01b03808216820361014c576024359367ffffffffffffffff851161038e573660238601121561038e57840135906106816106788361091f565b945194856108e7565b818452366024838701011161038e5761013295602083610702946024600199018389013786010152807f000000000000000000000000000000000000000000000000000000000000000016906106d98230141561093b565b7f360894a13ba1a3210667c828492db98dca3e2076cc3735a920a3ca505d382bbc54161461099c565b61070a610dd3565b6109fd565b5050fd5b503461015057826003193601126101505760ca549060ff8260081c161561077e57601082901c6001600160a01b03163303610486575061ff00191660ca55513381527f5db9ee0a495bf2e6ff9c91a7834c1ba4fdd244a5e8aa4e537bd38aeae4b073aa90602090a180f35b8251637c7fd07960e01b8152fd5b9190503461019d57602036600319011261019d576001600160a01b039290358381168103610150576107eb84610132957f000000000000000000000000000000000000000000000000000000000000000016906106d98230141561093b565b6107f3610dd3565b6108086107ff8461091f565b925192836108e7565b828252601f196108178461091f565b013660208401376109fd565b83823461019d57602036600319011261019d57356001600160a01b038116810361019d5761084f610dd3565b60ca805462010000600160b01b03191660109290921b62010000600160b01b031691909117905580f35b50503461019d578160031936011261019d5760975490516001600160a01b039091168152602090f35b83823461019d57602036600319011261019d57356001600160a01b0381169081900361019d576108d0610dd3565b61012f80546001600160a01b031916909117905580f35b90601f8019910116810190811067ffffffffffffffff82111761090957604052565b634e487b7160e01b600052604160045260246000fd5b67ffffffffffffffff811161090957601f01601f191660200190565b1561094257565b60405162461bcd60e51b815260206004820152602c60248201527f46756e6374696f6e206d7573742062652063616c6c6564207468726f7567682060448201526b19195b1959d85d1958d85b1b60a21b6064820152608490fd5b156109a357565b60405162461bcd60e51b815260206004820152602c60248201527f46756e6374696f6e206d7573742062652063616c6c6564207468726f7567682060448201526b6163746976652070726f787960a01b6064820152608490fd5b909160ff7f4910fdfa16fed3260ed0e7147f7cc6da11a60208b5b9406d12a635614ffd91435416600014610a385750610a369150610c5d565b565b604080516352d1902d60e01b8152602094919392906001600160a01b038416908681600481855afa60009181610c2e575b50610ac957855162461bcd60e51b815260048101889052602e60248201527f45524331393637557067726164653a206e657720696d706c656d656e7461746960448201526d6f6e206973206e6f74205555505360901b6064820152608490fd5b9395929492937fc9f76b5ec45e5cdef99837d7b6d2467235c1df8933c8ca56df5c35afa2c7d44401610bd857610afe86610c5d565b7fbc7cd75a20ee27fd9adebab32041f755214dbc6bffa90cc0225b39da2e5c2d3b600080a283511590811591610bd0575b50610b3b575b50505050565b610bbc93600080610b4c602761091f565b95610b59855197886108e7565b602787527f416464726573733a206c6f772d6c6576656c2064656c65676174652063616c6c86880152660819985a5b195960ca1b858801528581519101845af4913d15610bc6573d610bad6107ff8261091f565b8152600081943d92013e610cff565b5038808080610b35565b5060609250610cff565b905038610b2f565b825162461bcd60e51b815260048101859052602960248201527f45524331393637557067726164653a20756e737570706f727465642070726f786044820152681a58589b195555525160ba1b6064820152608490fd5b90918882813d8311610c56575b610c4581836108e7565b810103126104cb5750519038610a69565b503d610c3b565b803b15610ca4577f360894a13ba1a3210667c828492db98dca3e2076cc3735a920a3ca505d382bbc80546001600160a01b0319166001600160a01b03909216919091179055565b60405162461bcd60e51b815260206004820152602d60248201527f455243313936373a206e657720696d706c656d656e746174696f6e206973206e60448201526c1bdd08184818dbdb9d1c9858dd609a1b6064820152608490fd5b91929015610d615750815115610d13575090565b3b15610d1c5790565b60405162461bcd60e51b815260206004820152601d60248201527f416464726573733a2063616c6c20746f206e6f6e2d636f6e74726163740000006044820152606490fd5b825190915015610d745750805190602001fd5b6040519062461bcd60e51b82528160208060048301528251908160248401526000935b828510610dba575050604492506000838284010152601f80199101168101030190fd5b8481018201518686016044015293810193859350610d97565b60975460405163d994d6d560e01b815233600482015290602090829060249082906001600160a01b03165afa908115610e6257600091610e28575b5015610e1657565b604051631dd1b1b560e21b8152600490fd5b6020813d8211610e5a575b81610e40602093836108e7565b8101031261019d57519081151582036104cb575038610e0e565b3d9150610e33565b6040513d6000823e3d90fd5b15610e7557565b60405162461bcd60e51b815260206004820152602b60248201527f496e697469616c697a61626c653a20636f6e7472616374206973206e6f74206960448201526a6e697469616c697a696e6760a81b6064820152608490fd5b60207f0edb810b4a4ba5ab81b2765b443d63011146e0d69f7604ea7205676bae0995b39160018060a01b03169283600052610130825280604060002055604051908152a256fea2646970667358221220ef656c2e0a4aa91ac2f0d84c04cad84d9a20de523269d4a51eab87c81c77115864736f6c63430008140033",
  "linkReferences": {},
  "deployedLinkReferences": {},
  "devdoc": {
    "kind": "dev",
    "methods": {},
    "version": 1
  },
  "evm": {
    "bytecode": {
      "linkReferences": {},
      "opcodes": "PUSH1 0x80 PUSH1 0x40 DUP2 SWAP1 MSTORE PUSH1 0xA DUP1 SLOAD PUSH1 0x1 PUSH1 0x1 PUSH1 0xA0 SHL SUB NOT SWAP1 DUP2 AND PUSH1 0x1 OR SWAP1 SWAP2 SSTORE PUSH1 0xB DUP1 SLOAD DUP3 AND PUSH1 0x2 OR SWAP1 SSTORE PUSH1 0xC DUP1 SLOAD DUP3 AND PUSH1 0x3 OR SWAP1 SSTORE PUSH1 0x0 SWAP2 PUSH2 0x1C3 DUP1 DUP3 ADD SWAP1 PUSH1 0x1 PUSH1 0x1 PUSH1 0x40 SHL SUB DUP3 GT DUP4 DUP4 LT OR PUSH3 0x108C JUMPI SWAP1 DUP3 SWAP2 PUSH3 0xD235 DUP4 CODECOPY SUB SWAP1 DUP4 CREATE DUP1 ISZERO PUSH3 0xEC7 JUMPI PUSH1 0x2 DUP1 SLOAD DUP4 AND PUSH1 0x1 PUSH1 0x1 PUSH1 0xA0 SHL SUB SWAP3 SWAP1 SWAP3 AND SWAP2 SWAP1 SWAP2 OR SWAP1 SSTORE PUSH1 0x40 MLOAD PUSH2 0x1035 SWAP1 DUP2 DUP2 ADD SWAP1 PUSH1 0x1 PUSH1 0x1 PUSH1 0x40 SHL SUB DUP3 GT DUP2 DUP4 LT OR PUSH3 0x108C JUMPI DUP1 PUSH3 0xC065 SWAP3 DUP5 DUP5 DUP4 CODECOPY SUB SWAP1 DUP6 CREATE DUP1 ISZERO PUSH3 0x10C8 JUMPI PUSH1 0x7 DUP1 SLOAD DUP6 AND PUSH1 0x1 PUSH1 0x1 PUSH1 0xA0 SHL SUB SWAP3 SWAP1 SWAP3 AND SWAP2 SWAP1 SWAP2 OR SWAP1 SSTORE PUSH1 0x40 MLOAD SWAP2 DUP1 DUP4 ADD SWAP2 PUSH1 0x1 PUSH1 0x1 PUSH1 0x40 SHL SUB DUP4 GT DUP5 DUP5 LT OR PUSH3 0x10B4 JUMPI SWAP1 DUP4 SWAP3 SWAP2 DUP4 CODECOPY SUB SWAP1 DUP4 CREATE DUP1 ISZERO PUSH3 0xEC7 JUMPI PUSH1 0x3 DUP1 SLOAD DUP4 AND PUSH1 0x1 PUSH1 0x1 PUSH1 0xA0 SHL SUB SWAP3 SWAP1 SWAP3 AND SWAP2 SWAP1 SWAP2 OR SWAP1 SSTORE PUSH1 0x40 MLOAD PUSH2 0x19B DUP2 ADD PUSH1 0x1 PUSH1 0x1 PUSH1 0x40 SHL SUB DUP2 GT DUP3 DUP3 LT OR PUSH3 0x10A0 JUMPI DUP2 PUSH1 0x20 SWAP2 PUSH2 0x19B PUSH3 0xD09A DUP4 CODECOPY PUSH8 0xDE0B6B3A7640000 DUP2 MSTORE SUB ADD SWAP1 DUP4 CREATE DUP1 ISZERO PUSH3 0xEC7 JUMPI PUSH1 0x4 DUP1 SLOAD DUP4 AND PUSH1 0x1 PUSH1 0x1 PUSH1 0xA0 SHL SUB SWAP3 SWAP1 SWAP3 AND SWAP2 SWAP1 SWAP2 OR SWAP1 SSTORE PUSH1 0x40 MLOAD PUSH2 0x19D DUP1 DUP3 ADD SWAP1 PUSH1 0x1 PUSH1 0x1 PUSH1 0x40 SHL SUB DUP3 GT DUP4 DUP4 LT OR PUSH3 0x108C JUMPI PUSH1 0x20 SWAP2 DUP4 SWAP2 PUSH3 0xBEC8 DUP4 CODECOPY PUSH1 0x0 NOT DUP2 MSTORE SUB ADD SWAP1 DUP4 CREATE DUP1 ISZERO PUSH3 0xEC7 JUMPI PUSH1 0x5 DUP1 SLOAD DUP4 AND PUSH1 0x1 PUSH1 0x1 PUSH1 0xA0 SHL SUB SWAP3 SWAP1 SWAP3 AND SWAP2 SWAP1 SWAP2 OR SWAP1 SSTORE PUSH1 0x40 MLOAD PUSH2 0x24FC DUP1 DUP3 ADD SWAP1 PUSH1 0x1 PUSH1 0x1 PUSH1 0x40 SHL SUB DUP3 GT DUP4 DUP4 LT OR PUSH3 0x108C JUMPI SWAP1 DUP3 SWAP2 PUSH3 0x14238 DUP4 CODECOPY SUB SWAP1 DUP4 CREATE DUP1 ISZERO PUSH3 0xEC7 JUMPI PUSH1 0x1 PUSH1 0x1 PUSH1 0xA0 SHL SUB SWAP1 PUSH3 0x1F9 SWAP1 DUP3 AND PUSH3 0x1127 JUMP JUMPDEST AND DUP2 PUSH1 0x6 SLOAD AND OR PUSH1 0x6 SSTORE PUSH1 0x40 MLOAD PUSH2 0x5E41 DUP1 DUP3 ADD SWAP1 DUP3 DUP3 LT PUSH1 0x1 DUP1 PUSH1 0x40 SHL SUB DUP4 GT OR PUSH3 0x108C JUMPI SWAP1 DUP3 SWAP2 PUSH3 0x2080 DUP4 CODECOPY SUB SWAP1 DUP4 CREATE DUP1 ISZERO PUSH3 0xEC7 JUMPI PUSH1 0x1 PUSH1 0x1 PUSH1 0xA0 SHL SUB SWAP1 PUSH3 0x249 SWAP1 DUP3 AND PUSH3 0x1127 JUMP JUMPDEST DUP4 SLOAD DUP4 AND SWAP2 AND OR DUP3 SSTORE PUSH1 0x40 MLOAD PUSH2 0x4007 DUP1 DUP3 ADD SWAP1 PUSH1 0x1 PUSH1 0x1 PUSH1 0x40 SHL SUB DUP3 GT DUP4 DUP4 LT OR PUSH3 0x108C JUMPI SWAP1 DUP3 SWAP2 PUSH3 0x7EC1 DUP4 CODECOPY SUB SWAP1 DUP4 CREATE DUP1 ISZERO PUSH3 0xEC7 JUMPI PUSH1 0x9 DUP1 SLOAD DUP4 AND PUSH1 0x1 PUSH1 0x1 PUSH1 0xA0 SHL SUB SWAP3 SWAP1 SWAP3 AND SWAP2 SWAP1 SWAP2 OR SWAP1 SSTORE PUSH1 0x40 MLOAD PUSH2 0x102C DUP1 DUP3 ADD SWAP1 PUSH1 0x1 PUSH1 0x1 PUSH1 0x40 SHL SUB DUP3 GT DUP4 DUP4 LT OR PUSH3 0x108C JUMPI SWAP1 DUP3 SWAP2 PUSH3 0x16734 DUP4 CODECOPY SUB SWAP1 DUP4 CREATE DUP1 ISZERO PUSH3 0xEC7 JUMPI PUSH1 0x1 PUSH1 0x1 PUSH1 0xA0 SHL SUB SWAP1 PUSH3 0x2E2 SWAP1 DUP3 AND PUSH3 0x1127 JUMP JUMPDEST AND DUP2 PUSH1 0x8 SLOAD AND OR PUSH1 0x8 SSTORE PUSH1 0x40 MLOAD PUSH2 0x4BAD DUP1 DUP3 ADD SWAP1 DUP3 DUP3 LT PUSH1 0x1 DUP1 PUSH1 0x40 SHL SUB DUP4 GT OR PUSH3 0x108C JUMPI SWAP1 DUP3 SWAP2 PUSH3 0xD3F8 DUP4 CODECOPY SUB SWAP1 DUP4 CREATE DUP1 ISZERO PUSH3 0xEC7 JUMPI PUSH1 0x1 PUSH1 0x1 PUSH1 0xA0 SHL SUB SWAP1 PUSH3 0x332 SWAP1 DUP3 AND PUSH3 0x1127 JUMP JUMPDEST PUSH1 0x1 DUP1 SLOAD SWAP1 SWAP4 AND SWAP2 AND OR SWAP1 SSTORE PUSH1 0x8 SLOAD PUSH1 0x2 SLOAD DUP3 SWAP2 PUSH1 0x1 PUSH1 0x1 PUSH1 0xA0 SHL SUB SWAP1 DUP2 AND SWAP2 AND DUP2 EXTCODESIZE ISZERO PUSH3 0xF41 JUMPI DUP3 SWAP2 PUSH1 0x64 DUP4 SWAP3 PUSH1 0x40 MLOAD SWAP6 DUP7 SWAP4 DUP5 SWAP3 PUSH4 0xC0C53B8B PUSH1 0xE0 SHL DUP5 MSTORE CALLER PUSH1 0x4 DUP6 ADD MSTORE PUSH1 0x24 DUP5 ADD MSTORE CALLER PUSH1 0x44 DUP5 ADD MSTORE GAS CALL DUP1 ISZERO PUSH3 0xFCE JUMPI PUSH3 0x1079 JUMPI JUMPDEST PUSH1 0x6 SLOAD PUSH1 0x2 SLOAD SWAP2 SWAP3 POP PUSH1 0x1 PUSH1 0x1 PUSH1 0xA0 SHL SUB SWAP1 DUP2 AND SWAP2 AND DUP2 EXTCODESIZE ISZERO PUSH3 0xF41 JUMPI DUP3 SWAP2 PUSH2 0x104 DUP4 SWAP3 PUSH1 0x40 MLOAD SWAP5 DUP6 SWAP4 DUP5 SWAP3 PUSH4 0x23C56D05 PUSH1 0xE2 SHL DUP5 MSTORE PUSH1 0x80 PUSH1 0x4 DUP6 ADD MSTORE PUSH1 0x7 PUSH1 0x84 DUP6 ADD MSTORE PUSH7 0x2A21AA37B5B2B7 PUSH1 0xC9 SHL PUSH1 0xA4 DUP6 ADD MSTORE PUSH1 0xC0 PUSH1 0x24 DUP6 ADD MSTORE PUSH1 0x2 PUSH1 0xC4 DUP6 ADD MSTORE PUSH2 0x5443 PUSH1 0xF0 SHL PUSH1 0xE4 DUP6 ADD MSTORE ADDRESS PUSH1 0x44 DUP6 ADD MSTORE PUSH1 0x64 DUP5 ADD MSTORE GAS CALL DUP1 ISZERO PUSH3 0xEC7 JUMPI PUSH3 0x1060 JUMPI JUMPDEST POP PUSH1 0x1 SLOAD PUSH1 0x3 SLOAD PUSH1 0x4 SLOAD PUSH1 0x6 SLOAD PUSH1 0xA SLOAD PUSH1 0xB SLOAD PUSH1 0x5 SLOAD PUSH1 0x40 MLOAD SWAP7 PUSH1 0x1 PUSH1 0x1 PUSH1 0xA0 SHL SUB SWAP2 DUP3 AND SWAP7 SWAP4 DUP3 AND SWAP6 SWAP3 DUP3 AND SWAP5 DUP3 AND SWAP4 SWAP3 DUP3 AND SWAP3 DUP3 AND SWAP2 AND PUSH3 0x462 PUSH2 0x340 DUP10 PUSH3 0x10D3 JUMP JUMPDEST DUP8 MSTORE PUSH1 0x20 DUP8 ADD MSTORE PUSH1 0x40 DUP7 ADD MSTORE PUSH1 0x60 DUP6 ADD MSTORE DUP2 PUSH1 0x80 DUP6 ADD MSTORE PUSH1 0xA0 DUP5 ADD MSTORE PUSH8 0x1BC16D674EC80000 PUSH1 0xC0 DUP5 ADD MSTORE PUSH8 0xDE0B6B3A7640000 PUSH1 0xE0 DUP5 ADD MSTORE PUSH8 0x2C68AF0BB140000 PUSH2 0x100 DUP5 ADD MSTORE PUSH7 0xB1A2BC2EC50000 PUSH2 0x120 DUP5 ADD MSTORE PUSH7 0xB1A2BC2EC50000 PUSH2 0x140 DUP5 ADD MSTORE PUSH7 0x2386F26FC10000 PUSH2 0x160 DUP5 ADD MSTORE PUSH7 0x2386F26FC10000 PUSH2 0x180 DUP5 ADD MSTORE PUSH7 0x2386F26FC10000 PUSH2 0x1A0 DUP5 ADD MSTORE PUSH8 0x11C37937E080000 PUSH2 0x1C0 DUP5 ADD MSTORE PUSH8 0x11C37937E080000 PUSH2 0x1E0 DUP5 ADD MSTORE PUSH8 0x6F05B59D3B20000 PUSH2 0x200 DUP5 ADD MSTORE PUSH8 0x16345785D8A0000 PUSH2 0x220 DUP5 ADD MSTORE PUSH8 0x6F05B59D3B20000 PUSH2 0x240 DUP5 ADD MSTORE PUSH3 0x278D00 PUSH2 0x260 DUP5 ADD MSTORE PUSH2 0x280 DUP4 ADD MSTORE PUSH8 0x16345785D8A0000 PUSH2 0x2A0 DUP4 ADD MSTORE PUSH3 0x93A80 PUSH2 0x2C0 DUP4 ADD MSTORE DUP1 PUSH2 0x2E0 DUP4 ADD MSTORE PUSH2 0x300 DUP3 ADD MSTORE PUSH2 0x2D0 PUSH2 0x320 DUP3 ADD MSTORE PUSH1 0x1 DUP1 PUSH1 0xA0 SHL SUB PUSH1 0x2 SLOAD AND PUSH1 0x1 DUP1 PUSH1 0xA0 SHL SUB PUSH1 0x9 SLOAD AND PUSH1 0x1 DUP1 PUSH1 0xA0 SHL SUB PUSH1 0x8 SLOAD AND SWAP2 PUSH1 0x40 MLOAD SWAP4 PUSH3 0x5AC PUSH1 0xC0 DUP7 PUSH3 0x10D3 JUMP JUMPDEST DUP5 MSTORE PUSH1 0x20 DUP5 ADD MSTORE CALLER PUSH1 0x40 DUP5 ADD MSTORE PUSH1 0x60 DUP4 ADD MSTORE PUSH3 0x15180 PUSH1 0x80 DUP4 ADD MSTORE PUSH1 0xA0 DUP3 ADD MSTORE PUSH1 0x1 DUP1 PUSH1 0xA0 SHL SUB PUSH1 0x7 SLOAD AND PUSH1 0x40 MLOAD SWAP2 PUSH3 0x5E8 PUSH1 0x40 DUP5 PUSH3 0x10D3 JUMP JUMPDEST DUP3 MSTORE PUSH1 0x20 DUP3 ADD MSTORE DUP2 SLOAD PUSH1 0x1 PUSH1 0x1 PUSH1 0xA0 SHL SUB AND SWAP1 DUP2 EXTCODESIZE ISZERO PUSH3 0xF41 JUMPI PUSH1 0x40 DUP1 MLOAD PUSH4 0x30500EFD PUSH1 0xE1 SHL DUP2 MSTORE DUP3 MLOAD DUP1 MLOAD DUP1 MLOAD PUSH1 0x1 PUSH1 0x1 PUSH1 0xA0 SHL SUB SWAP1 DUP2 AND PUSH1 0x4 DUP6 ADD MSTORE PUSH1 0x20 DUP1 DUP4 ADD MLOAD DUP3 AND PUSH1 0x24 DUP7 ADD MSTORE DUP3 DUP7 ADD MLOAD DUP3 AND PUSH1 0x44 DUP7 ADD MSTORE PUSH1 0x60 DUP1 DUP5 ADD MLOAD DUP4 AND PUSH1 0x64 DUP8 ADD MSTORE PUSH1 0x80 DUP1 DUP6 ADD MLOAD DUP5 AND PUSH1 0x84 DUP9 ADD MSTORE PUSH1 0xA0 DUP1 DUP7 ADD MLOAD DUP6 AND PUSH1 0xA4 DUP10 ADD MSTORE PUSH1 0xC0 DUP7 ADD MLOAD PUSH1 0xC4 DUP10 ADD MSTORE PUSH1 0xE0 DUP7 ADD MLOAD PUSH1 0xE4 DUP10 ADD MSTORE PUSH2 0x100 DUP7 ADD MLOAD PUSH2 0x104 DUP10 ADD MSTORE PUSH2 0x120 DUP7 ADD MLOAD PUSH2 0x124 DUP10 ADD MSTORE PUSH2 0x140 DUP7 ADD MLOAD PUSH2 0x144 DUP10 ADD MSTORE PUSH2 0x160 DUP7 ADD MLOAD PUSH2 0x164 DUP10 ADD MSTORE PUSH2 0x180 DUP7 ADD MLOAD PUSH2 0x184 DUP10 ADD MSTORE PUSH2 0x1A0 DUP7 ADD MLOAD PUSH2 0x1A4 DUP10 ADD MSTORE PUSH2 0x1C0 DUP7 ADD MLOAD PUSH2 0x1C4 DUP10 ADD MSTORE PUSH2 0x1E0 DUP7 ADD MLOAD PUSH2 0x1E4 DUP10 ADD MSTORE PUSH2 0x200 DUP7 ADD MLOAD PUSH2 0x204 DUP10 ADD MSTORE PUSH2 0x220 DUP7 ADD MLOAD PUSH2 0x224 DUP10 ADD MSTORE PUSH2 0x240 DUP7 ADD MLOAD PUSH2 0x244 DUP10 ADD MSTORE PUSH2 0x260 DUP7 ADD MLOAD PUSH2 0x264 DUP10 ADD MSTORE PUSH2 0x280 DUP7 ADD MLOAD DUP6 AND PUSH2 0x284 DUP10 ADD MSTORE PUSH2 0x2A0 DUP7 ADD MLOAD PUSH2 0x2A4 DUP10 ADD MSTORE PUSH2 0x2C0 DUP7 ADD MLOAD PUSH2 0x2C4 DUP10 ADD MSTORE PUSH2 0x2E0 DUP7 ADD MLOAD DUP6 AND PUSH2 0x2E4 DUP10 ADD MSTORE PUSH2 0x300 DUP7 ADD MLOAD DUP6 AND PUSH2 0x304 DUP10 ADD MSTORE PUSH2 0x320 SWAP1 SWAP6 ADD MLOAD PUSH2 0x324 DUP9 ADD MSTORE DUP3 DUP7 ADD MLOAD DUP5 AND PUSH2 0x344 DUP9 ADD MSTORE SWAP7 DUP6 ADD MLOAD DUP4 AND PUSH2 0x364 DUP8 ADD MSTORE DUP5 ADD MLOAD DUP3 AND PUSH2 0x384 DUP7 ADD MSTORE SWAP5 DUP4 ADD MLOAD PUSH2 0x3A4 DUP6 ADD MSTORE SWAP2 ADD MLOAD DUP2 AND PUSH2 0x3C4 DUP4 ADD MSTORE SWAP2 SWAP1 SWAP3 ADD MLOAD AND PUSH2 0x3E4 DUP3 ADD MSTORE SWAP1 DUP3 SWAP1 DUP3 SWAP1 PUSH2 0x404 SWAP1 DUP3 SWAP1 DUP5 SWAP1 GAS CALL DUP1 ISZERO PUSH3 0xEC7 JUMPI PUSH3 0x1047 JUMPI JUMPDEST POP PUSH1 0x1 SLOAD PUSH1 0x2 SLOAD PUSH1 0x40 MLOAD PUSH1 0x1 PUSH1 0x1 PUSH1 0xA0 SHL SUB SWAP3 DUP4 AND SWAP3 SWAP1 SWAP2 AND SWAP1 PUSH3 0x7E1 PUSH2 0x120 DUP3 PUSH3 0x10D3 JUMP JUMPDEST PUSH1 0x64 DUP2 MSTORE PUSH1 0x64 PUSH1 0x20 DUP3 ADD MSTORE PUSH1 0x64 PUSH1 0x40 DUP3 ADD MSTORE PUSH1 0x64 PUSH1 0x60 DUP3 ADD MSTORE PUSH1 0x64 PUSH1 0x80 DUP3 ADD MSTORE PUSH1 0x64 PUSH1 0xA0 DUP3 ADD MSTORE PUSH1 0x64 PUSH1 0xC0 DUP3 ADD MSTORE PUSH1 0x64 PUSH1 0xE0 DUP3 ADD MSTORE PUSH1 0x64 PUSH2 0x100 DUP3 ADD MSTORE DUP3 EXTCODESIZE ISZERO PUSH3 0x1042 JUMPI PUSH2 0x1A4 DUP5 SWAP3 DUP4 PUSH2 0x100 SWAP6 PUSH1 0x40 MLOAD SWAP7 DUP8 SWAP6 DUP7 SWAP5 PUSH4 0xDB901477 PUSH1 0xE0 SHL DUP7 MSTORE PUSH1 0x4 DUP7 ADD MSTORE CALLER PUSH1 0x24 DUP7 ADD MSTORE PUSH1 0xA PUSH1 0x44 DUP7 ADD MSTORE PUSH1 0xA PUSH1 0x64 DUP7 ADD MSTORE DUP1 MLOAD PUSH1 0x84 DUP7 ADD MSTORE PUSH1 0x20 DUP2 ADD MLOAD PUSH1 0xA4 DUP7 ADD MSTORE PUSH1 0x40 DUP2 ADD MLOAD PUSH1 0xC4 DUP7 ADD MSTORE PUSH1 0x60 DUP2 ADD MLOAD PUSH1 0xE4 DUP7 ADD MSTORE PUSH1 0x80 DUP2 ADD MLOAD PUSH2 0x104 DUP7 ADD MSTORE PUSH1 0xA0 DUP2 ADD MLOAD PUSH2 0x124 DUP7 ADD MSTORE PUSH1 0xC0 DUP2 ADD MLOAD PUSH2 0x144 DUP7 ADD MSTORE PUSH1 0xE0 DUP2 ADD MLOAD PUSH2 0x164 DUP7 ADD MSTORE ADD MLOAD PUSH2 0x184 DUP5 ADD MSTORE GAS CALL DUP1 ISZERO PUSH3 0xEC7 JUMPI PUSH3 0x1029 JUMPI JUMPDEST POP PUSH1 0x1 SLOAD DUP2 SLOAD PUSH1 0x1 PUSH1 0x1 PUSH1 0xA0 SHL SUB SWAP2 DUP3 AND SWAP2 AND DUP2 EXTCODESIZE ISZERO PUSH3 0xF41 JUMPI DUP3 SWAP2 PUSH1 0x24 DUP4 SWAP3 PUSH1 0x40 MLOAD SWAP5 DUP6 SWAP4 DUP5 SWAP3 PUSH4 0xBBE720D9 PUSH1 0xE0 SHL DUP5 MSTORE PUSH1 0x4 DUP5 ADD MSTORE GAS CALL DUP1 ISZERO PUSH3 0xEC7 JUMPI PUSH3 0x1010 JUMPI JUMPDEST POP PUSH1 0x1 SLOAD PUSH1 0x1 PUSH1 0x1 PUSH1 0xA0 SHL SUB AND DUP1 EXTCODESIZE ISZERO PUSH3 0x100D JUMPI DUP2 DUP1 SWAP2 PUSH1 0x44 PUSH1 0x40 MLOAD DUP1 SWAP5 DUP2 SWAP4 PUSH4 0x2F2FF15D PUSH1 0xE0 SHL DUP4 MSTORE PUSH32 0xD8AA0F3194971A2A116679F7C2090F6939C8D4E01A2A8D7E41D55E5351469E63 PUSH1 0x4 DUP5 ADD MSTORE ADDRESS PUSH1 0x24 DUP5 ADD MSTORE GAS CALL DUP1 ISZERO PUSH3 0xEC7 JUMPI PUSH3 0xFF4 JUMPI JUMPDEST POP PUSH1 0x6 SLOAD DUP2 SLOAD PUSH1 0x1 PUSH1 0x1 PUSH1 0xA0 SHL SUB SWAP2 DUP3 AND SWAP2 AND DUP2 EXTCODESIZE ISZERO PUSH3 0xF41 JUMPI DUP3 SWAP2 PUSH1 0x24 DUP4 SWAP3 PUSH1 0x40 MLOAD SWAP5 DUP6 SWAP4 DUP5 SWAP3 PUSH4 0x83D2230D PUSH1 0xE0 SHL DUP5 MSTORE PUSH1 0x4 DUP5 ADD MSTORE GAS CALL DUP1 ISZERO PUSH3 0xEC7 JUMPI PUSH3 0xFDB JUMPI JUMPDEST POP POP PUSH1 0x40 MLOAD SWAP1 PUSH3 0x9CA PUSH1 0xE0 DUP4 PUSH3 0x10D3 JUMP JUMPDEST DUP1 DUP3 MSTORE DUP1 PUSH1 0x20 DUP4 ADD MSTORE PUSH8 0x4563918244F40000 PUSH1 0x40 DUP4 ADD MSTORE PUSH7 0xB1A2BC2EC50000 PUSH1 0x60 DUP4 ADD MSTORE PUSH7 0xB1A2BC2EC50000 PUSH1 0x80 DUP4 ADD MSTORE PUSH9 0xB7E174CC69ED00000 PUSH1 0xA0 DUP4 ADD MSTORE PUSH7 0xB1A2BC2EC50000 PUSH1 0xC0 DUP4 ADD MSTORE PUSH1 0x40 MLOAD DUP1 PUSH2 0x2293 DUP2 ADD LT PUSH1 0x1 DUP1 PUSH1 0x40 SHL SUB PUSH2 0x2293 DUP4 ADD GT OR PUSH3 0xF99 JUMPI PUSH2 0x2293 PUSH3 0x11FA5 DUP3 CODECOPY DUP1 PUSH2 0x2293 DUP2 ADD SUB SWAP1 DUP3 CREATE DUP1 ISZERO PUSH3 0xFCE JUMPI PUSH1 0x1 PUSH1 0x1 PUSH1 0xA0 SHL SUB SWAP1 PUSH3 0xA64 SWAP1 DUP3 AND PUSH3 0x1127 JUMP JUMPDEST DUP3 SLOAD PUSH1 0x2 SLOAD SWAP3 SWAP1 SWAP2 AND SWAP2 PUSH1 0x1 PUSH1 0x1 PUSH1 0xA0 SHL SUB SWAP2 DUP3 AND SWAP2 AND DUP3 EXTCODESIZE ISZERO PUSH3 0xFCA JUMPI PUSH1 0x40 MLOAD SWAP2 PUSH4 0x23C56D05 PUSH1 0xE2 SHL DUP4 MSTORE PUSH1 0x80 PUSH1 0x4 DUP5 ADD MSTORE PUSH1 0x7 PUSH1 0x84 DUP5 ADD MSTORE PUSH7 0x2A282A37B5B2B7 PUSH1 0xC9 SHL PUSH1 0xA4 DUP5 ADD MSTORE PUSH1 0xC0 PUSH1 0x24 DUP5 ADD MSTORE PUSH1 0x2 PUSH1 0xC4 DUP5 ADD MSTORE PUSH2 0x545 PUSH1 0xF4 SHL PUSH1 0xE4 DUP5 ADD MSTORE PUSH1 0x44 DUP4 ADD MSTORE PUSH1 0x64 DUP3 ADD MSTORE DUP3 DUP2 PUSH2 0x104 DUP2 DUP4 DUP7 GAS CALL DUP1 ISZERO PUSH3 0xE86 JUMPI SWAP1 DUP4 SWAP2 PUSH3 0xFAD JUMPI JUMPDEST POP POP DUP3 MSTORE PUSH8 0xDE0B6B3A7640000 PUSH1 0x60 DUP4 ADD MLOAD MOD PUSH1 0x60 DUP4 ADD MSTORE PUSH8 0xDE0B6B3A7640000 PUSH1 0x80 DUP4 ADD MLOAD MOD PUSH1 0x80 DUP4 ADD MSTORE PUSH1 0x40 MLOAD SWAP2 DUP3 PUSH2 0x19B DUP2 ADD LT PUSH1 0x1 DUP1 PUSH1 0x40 SHL SUB PUSH2 0x19B DUP6 ADD GT OR PUSH3 0xF99 JUMPI DUP2 SWAP3 PUSH2 0x19B PUSH3 0xD09A DUP3 CODECOPY PUSH9 0xCBD47B6EAA8CC0001 PUSH2 0x19B DUP3 ADD MSTORE PUSH1 0x20 DUP2 PUSH2 0x19B DUP2 ADD SUB ADD SWAP1 DUP4 CREATE DUP1 ISZERO PUSH3 0xEC7 JUMPI PUSH1 0x1 PUSH1 0x1 PUSH1 0xA0 SHL SUB SWAP1 DUP2 AND PUSH1 0x20 DUP4 ADD MSTORE DUP3 SLOAD AND SWAP1 DUP2 EXTCODESIZE ISZERO PUSH3 0xF41 JUMPI PUSH1 0x40 DUP1 MLOAD PUSH4 0x6DBCB039 PUSH1 0xE1 SHL DUP2 MSTORE DUP3 MLOAD PUSH1 0x1 PUSH1 0x1 PUSH1 0xA0 SHL SUB SWAP1 DUP2 AND PUSH1 0x4 DUP4 ADD MSTORE PUSH1 0x20 DUP5 ADD MLOAD AND PUSH1 0x24 DUP3 ADD MSTORE SWAP1 DUP3 ADD MLOAD PUSH1 0x44 DUP3 ADD MSTORE PUSH1 0x60 DUP3 ADD MLOAD PUSH1 0x64 DUP3 ADD MSTORE PUSH1 0x80 DUP3 ADD MLOAD PUSH1 0x84 DUP3 ADD MSTORE PUSH1 0xA0 DUP3 ADD MLOAD PUSH1 0xA4 DUP3 ADD MSTORE PUSH1 0xC0 SWAP1 SWAP2 ADD MLOAD PUSH1 0xC4 DUP3 ADD MSTORE SWAP1 DUP3 SWAP1 DUP3 SWAP1 PUSH1 0xE4 SWAP1 DUP3 SWAP1 DUP5 SWAP1 GAS CALL DUP1 ISZERO PUSH3 0xEC7 JUMPI PUSH3 0xF80 JUMPI JUMPDEST POP PUSH1 0x7 SLOAD PUSH1 0x40 MLOAD PUSH4 0x18160DDD PUSH1 0xE0 SHL DUP2 MSTORE PUSH1 0x1 PUSH1 0x1 PUSH1 0xA0 SHL SUB SWAP1 SWAP2 AND SWAP1 PUSH1 0x20 DUP2 PUSH1 0x4 DUP2 DUP6 GAS STATICCALL SWAP1 DUP2 ISZERO PUSH3 0xE86 JUMPI DUP4 SWAP2 PUSH3 0xF45 JUMPI JUMPDEST POP DUP2 EXTCODESIZE ISZERO PUSH3 0xF41 JUMPI DUP3 SWAP2 PUSH1 0x44 DUP4 SWAP3 PUSH1 0x40 MLOAD SWAP5 DUP6 SWAP4 DUP5 SWAP3 PUSH4 0x40C10F19 PUSH1 0xE0 SHL DUP5 MSTORE ADDRESS PUSH1 0x4 DUP6 ADD MSTORE NOT PUSH1 0x24 DUP5 ADD MSTORE GAS CALL DUP1 ISZERO PUSH3 0xEC7 JUMPI PUSH3 0xF25 JUMPI JUMPDEST POP POP PUSH1 0x7 SLOAD DUP2 SLOAD PUSH1 0x40 MLOAD PUSH4 0x95EA7B3 PUSH1 0xE0 SHL DUP1 DUP3 MSTORE PUSH1 0x1 PUSH1 0x1 PUSH1 0xA0 SHL SUB SWAP3 DUP4 AND PUSH1 0x4 DUP4 ADD MSTORE PUSH10 0x65A4DA25D3016C00000 PUSH1 0x24 DUP4 ADD DUP2 SWAP1 MSTORE SWAP1 SWAP5 SWAP4 SWAP1 SWAP3 PUSH1 0x20 SWAP2 DUP4 SWAP2 PUSH1 0x44 SWAP2 DUP4 SWAP2 DUP9 SWAP2 AND GAS CALL DUP1 ISZERO PUSH3 0xE86 JUMPI SWAP2 PUSH1 0x20 SWAP2 PUSH1 0x64 SWAP4 PUSH3 0xF03 JUMPI JUMPDEST POP DUP4 SLOAD PUSH1 0x40 MLOAD PUSH4 0x176FEC1 PUSH1 0xE3 SHL DUP2 MSTORE PUSH9 0xA2A15D09519BE00000 PUSH1 0x4 DUP3 ADD MSTORE PUSH1 0x24 DUP2 ADD SWAP3 SWAP1 SWAP3 MSTORE SWAP1 SWAP3 DUP4 SWAP2 PUSH1 0x44 SWAP2 DUP4 SWAP2 PUSH1 0x1 PUSH1 0x1 PUSH1 0xA0 SHL SUB AND GAS CALL DUP1 ISZERO PUSH3 0xEC7 JUMPI PUSH3 0xED2 JUMPI JUMPDEST POP PUSH1 0x7 SLOAD DUP2 SLOAD PUSH1 0x40 MLOAD SWAP4 DUP5 MSTORE PUSH1 0x1 PUSH1 0x1 PUSH1 0xA0 SHL SUB SWAP1 DUP2 AND PUSH1 0x4 DUP6 ADD MSTORE PUSH9 0x3635C9ADC5DEA00000 PUSH1 0x24 DUP6 ADD DUP2 SWAP1 MSTORE SWAP4 SWAP2 PUSH1 0x20 SWAP2 DUP4 SWAP2 PUSH1 0x44 SWAP2 DUP4 SWAP2 DUP8 SWAP2 AND GAS CALL DUP1 ISZERO PUSH3 0xEC7 JUMPI PUSH3 0xE91 JUMPI JUMPDEST POP DUP1 SLOAD PUSH1 0x40 MLOAD PUSH3 0x7C6DA1 PUSH1 0xE2 SHL DUP2 MSTORE PUSH1 0x4 DUP2 ADD DUP4 SWAP1 MSTORE PUSH1 0x1 PUSH1 0x1 PUSH1 0xA0 SHL SUB SWAP1 SWAP2 AND SWAP3 SWAP1 PUSH1 0x20 DUP2 PUSH1 0x24 DUP2 DUP8 GAS STATICCALL SWAP1 DUP2 ISZERO PUSH3 0xE86 JUMPI DUP4 SWAP2 PUSH3 0xE38 JUMPI JUMPDEST POP SWAP1 PUSH1 0x64 PUSH1 0x20 SWAP3 DUP2 PUSH1 0x40 MLOAD SWAP7 DUP8 SWAP5 DUP6 SWAP4 PUSH4 0x484AD7CD PUSH1 0xE0 SHL DUP6 MSTORE PUSH1 0x1 DUP1 PUSH1 0xA0 SHL SUB AND PUSH1 0x4 DUP6 ADD MSTORE PUSH10 0x4F9F00373A9EFB00000 PUSH1 0x24 DUP6 ADD MSTORE PUSH1 0x44 DUP5 ADD MSTORE GAS CALL SWAP1 DUP2 ISZERO PUSH3 0xE2C JUMPI POP PUSH3 0xDF6 JUMPI JUMPDEST PUSH1 0x40 MLOAD PUSH2 0xB00 SWAP1 DUP2 PUSH3 0x1187 DUP3 CODECOPY RETURN JUMPDEST PUSH1 0x20 SWAP1 DUP2 RETURNDATASIZE DUP4 GT PUSH3 0xE24 JUMPI JUMPDEST PUSH3 0xE0F DUP2 DUP4 PUSH3 0x10D3 JUMP JUMPDEST DUP2 ADD SUB SLT PUSH3 0xE1F JUMPI CODESIZE PUSH3 0xDE6 JUMP JUMPDEST PUSH1 0x0 DUP1 REVERT JUMPDEST POP RETURNDATASIZE PUSH3 0xE03 JUMP JUMPDEST PUSH1 0x40 MLOAD SWAP1 RETURNDATASIZE SWAP1 DUP3 RETURNDATACOPY RETURNDATASIZE SWAP1 REVERT JUMPDEST SWAP1 POP PUSH1 0x20 DUP2 RETURNDATASIZE PUSH1 0x20 GT PUSH3 0xE7D JUMPI JUMPDEST DUP2 PUSH3 0xE56 PUSH1 0x20 SWAP4 DUP4 PUSH3 0x10D3 JUMP JUMPDEST DUP2 ADD SUB SLT PUSH3 0xE79 JUMPI MLOAD PUSH1 0x1 PUSH1 0x1 PUSH1 0xA0 SHL SUB DUP2 AND DUP2 SUB PUSH3 0xE79 JUMPI PUSH1 0x64 PUSH3 0xD99 JUMP JUMPDEST DUP3 DUP1 REVERT JUMPDEST RETURNDATASIZE SWAP2 POP PUSH3 0xE47 JUMP JUMPDEST PUSH1 0x40 MLOAD RETURNDATASIZE DUP6 DUP3 RETURNDATACOPY RETURNDATASIZE SWAP1 REVERT JUMPDEST PUSH3 0xEB7 SWAP1 PUSH1 0x20 RETURNDATASIZE PUSH1 0x20 GT PUSH3 0xEBF JUMPI JUMPDEST PUSH3 0xEAE DUP2 DUP4 PUSH3 0x10D3 JUMP JUMPDEST DUP2 ADD SWAP1 PUSH3 0x110D JUMP JUMPDEST POP CODESIZE PUSH3 0xD5D JUMP JUMPDEST POP RETURNDATASIZE PUSH3 0xEA2 JUMP JUMPDEST PUSH1 0x40 MLOAD RETURNDATASIZE DUP5 DUP3 RETURNDATACOPY RETURNDATASIZE SWAP1 REVERT JUMPDEST PUSH1 0x20 SWAP1 DUP2 RETURNDATASIZE DUP4 GT PUSH3 0xEFB JUMPI JUMPDEST PUSH3 0xEEB DUP2 DUP4 PUSH3 0x10D3 JUMP JUMPDEST DUP2 ADD SUB SLT PUSH3 0xE1F JUMPI CODESIZE PUSH3 0xD12 JUMP JUMPDEST POP RETURNDATASIZE PUSH3 0xEDF JUMP JUMPDEST PUSH3 0xF1D SWAP1 DUP4 RETURNDATASIZE DUP6 GT PUSH3 0xEBF JUMPI PUSH3 0xEAE DUP2 DUP4 PUSH3 0x10D3 JUMP JUMPDEST POP CODESIZE PUSH3 0xCCA JUMP JUMPDEST DUP2 PUSH3 0xF31 SWAP2 PUSH3 0x10D3 JUMP JUMPDEST PUSH3 0xF3E JUMPI DUP1 CODESIZE PUSH3 0xC6B JUMP JUMPDEST DUP1 REVERT JUMPDEST POP POP REVERT JUMPDEST SWAP3 POP POP PUSH1 0x20 DUP3 RETURNDATASIZE PUSH1 0x20 GT PUSH3 0xF77 JUMPI JUMPDEST DUP2 PUSH3 0xF64 PUSH1 0x20 SWAP4 DUP4 PUSH3 0x10D3 JUMP JUMPDEST DUP2 ADD SUB SLT PUSH3 0xE1F JUMPI DUP3 SWAP2 MLOAD CODESIZE PUSH3 0xC2F JUMP JUMPDEST RETURNDATASIZE SWAP2 POP PUSH3 0xF55 JUMP JUMPDEST DUP2 PUSH3 0xF8C SWAP2 PUSH3 0x10D3 JUMP JUMPDEST PUSH3 0xF3E JUMPI DUP1 CODESIZE PUSH3 0xBF9 JUMP JUMPDEST PUSH4 0x4E487B71 PUSH1 0xE0 SHL DUP3 MSTORE PUSH1 0x41 PUSH1 0x4 MSTORE PUSH1 0x24 DUP3 REVERT JUMPDEST DUP2 PUSH3 0xFB9 SWAP2 PUSH3 0x10D3 JUMP JUMPDEST PUSH3 0xFC6 JUMPI DUP2 CODESIZE PUSH3 0xAEC JUMP JUMPDEST POP DUP1 REVERT JUMPDEST DUP4 DUP1 REVERT JUMPDEST POP PUSH1 0x40 MLOAD SWAP1 RETURNDATASIZE SWAP1 DUP3 RETURNDATACOPY RETURNDATASIZE SWAP1 REVERT JUMPDEST DUP2 PUSH3 0xFE7 SWAP2 PUSH3 0x10D3 JUMP JUMPDEST PUSH3 0xF3E JUMPI DUP1 CODESIZE PUSH3 0x9B7 JUMP JUMPDEST DUP2 PUSH3 0x1000 SWAP2 PUSH3 0x10D3 JUMP JUMPDEST PUSH3 0xF3E JUMPI DUP1 CODESIZE PUSH3 0x970 JUMP JUMPDEST POP REVERT JUMPDEST DUP2 PUSH3 0x101C SWAP2 PUSH3 0x10D3 JUMP JUMPDEST PUSH3 0xF3E JUMPI DUP1 CODESIZE PUSH3 0x90A JUMP JUMPDEST DUP2 PUSH3 0x1035 SWAP2 PUSH3 0x10D3 JUMP JUMPDEST PUSH3 0xF3E JUMPI DUP1 CODESIZE PUSH3 0x8C3 JUMP JUMPDEST POP POP POP REVERT JUMPDEST DUP2 PUSH3 0x1053 SWAP2 PUSH3 0x10D3 JUMP JUMPDEST PUSH3 0xF3E JUMPI DUP1 CODESIZE PUSH3 0x7B9 JUMP JUMPDEST DUP2 PUSH3 0x106C SWAP2 PUSH3 0x10D3 JUMP JUMPDEST PUSH3 0xF3E JUMPI DUP1 CODESIZE PUSH3 0x41B JUMP JUMPDEST PUSH3 0x1084 SWAP2 PUSH3 0x10D3 JUMP JUMPDEST CODESIZE DUP2 PUSH3 0x393 JUMP JUMPDEST PUSH4 0x4E487B71 PUSH1 0xE0 SHL DUP6 MSTORE PUSH1 0x41 PUSH1 0x4 MSTORE PUSH1 0x24 DUP6 REVERT JUMPDEST PUSH4 0x4E487B71 PUSH1 0xE0 SHL DUP5 MSTORE PUSH1 0x41 PUSH1 0x4 MSTORE PUSH1 0x24 DUP5 REVERT JUMPDEST PUSH4 0x4E487B71 PUSH1 0xE0 SHL DUP7 MSTORE PUSH1 0x41 PUSH1 0x4 MSTORE PUSH1 0x24 DUP7 REVERT JUMPDEST PUSH1 0x40 MLOAD RETURNDATASIZE DUP7 DUP3 RETURNDATACOPY RETURNDATASIZE SWAP1 REVERT JUMPDEST PUSH1 0x1F SWAP1 SWAP2 ADD PUSH1 0x1F NOT AND DUP2 ADD SWAP1 PUSH1 0x1 PUSH1 0x1 PUSH1 0x40 SHL SUB DUP3 GT SWAP1 DUP3 LT OR PUSH3 0x10F7 JUMPI PUSH1 0x40 MSTORE JUMP JUMPDEST PUSH4 0x4E487B71 PUSH1 0xE0 SHL PUSH1 0x0 MSTORE PUSH1 0x41 PUSH1 0x4 MSTORE PUSH1 0x24 PUSH1 0x0 REVERT JUMPDEST SWAP1 DUP2 PUSH1 0x20 SWAP2 SUB SLT PUSH3 0xE1F JUMPI MLOAD DUP1 ISZERO ISZERO DUP2 SUB PUSH3 0xE1F JUMPI SWAP1 JUMP JUMPDEST PUSH1 0x40 MLOAD PUSH2 0x3F9 DUP1 DUP3 ADD SWAP1 PUSH1 0x1 PUSH1 0x1 PUSH1 0x40 SHL SUB DUP3 GT DUP4 DUP4 LT OR PUSH3 0x10F7 JUMPI PUSH1 0x60 SWAP2 DUP4 SWAP2 PUSH3 0x1C87 DUP4 CODECOPY PUSH1 0x1 DUP1 PUSH1 0xA0 SHL SUB DUP1 SWAP6 AND DUP2 MSTORE PUSH1 0x40 PUSH1 0x20 DUP3 ADD MSTORE PUSH1 0x0 PUSH1 0x40 DUP3 ADD MSTORE SUB ADD SWAP1 PUSH1 0x0 CREATE DUP1 ISZERO PUSH3 0x117A JUMPI AND SWAP1 JUMP JUMPDEST PUSH1 0x40 MLOAD RETURNDATASIZE PUSH1 0x0 DUP3 RETURNDATACOPY RETURNDATASIZE SWAP1 REVERT INVALID PUSH1 0x80 DUP1 PUSH1 0x40 MSTORE PUSH1 0x4 CALLDATASIZE LT ISZERO PUSH2 0x13 JUMPI PUSH1 0x0 DUP1 REVERT JUMPDEST PUSH1 0x0 SWAP1 DUP2 CALLDATALOAD PUSH1 0xE0 SHR SWAP1 DUP2 PUSH4 0xBB7F608 EQ PUSH2 0x9BC JUMPI POP DUP1 PUSH4 0x43DBD9DC EQ PUSH2 0x8F0 JUMPI DUP1 PUSH4 0x61461954 EQ PUSH2 0x2FA JUMPI DUP1 PUSH4 0x82A5792C EQ PUSH2 0x20E JUMPI DUP1 PUSH4 0x8FF81E54 EQ PUSH2 0xEE JUMPI PUSH4 0xF4076005 EQ PUSH2 0x63 JUMPI PUSH1 0x0 DUP1 REVERT JUMPDEST CALLVALUE PUSH2 0xEB JUMPI PUSH1 0x20 CALLDATASIZE PUSH1 0x3 NOT ADD SLT PUSH2 0xEB JUMPI PUSH1 0x64 PUSH1 0x20 PUSH1 0x1 DUP1 PUSH1 0xA0 SHL SUB DUP4 SLOAD AND PUSH1 0x44 PUSH1 0x40 MLOAD DUP1 SWAP5 DUP2 SWAP4 PUSH4 0x9ABB14C9 PUSH1 0xE0 SHL DUP4 MSTORE PUSH1 0x4 CALLDATALOAD PUSH1 0x4 DUP5 ADD MSTORE DUP8 PUSH1 0x24 DUP5 ADD MSTORE GAS CALL DUP1 ISZERO PUSH2 0xE0 JUMPI PUSH2 0xB3 JUMPI POP DUP1 RETURN JUMPDEST PUSH1 0x20 SWAP1 DUP2 RETURNDATASIZE DUP2 GT PUSH2 0xD9 JUMPI JUMPDEST PUSH2 0xC9 DUP2 DUP4 PUSH2 0xA33 JUMP JUMPDEST DUP2 ADD SUB SLT PUSH2 0xD4 JUMPI DUP1 RETURN JUMPDEST PUSH1 0x0 DUP1 REVERT JUMPDEST POP RETURNDATASIZE PUSH2 0xBF JUMP JUMPDEST PUSH1 0x40 MLOAD RETURNDATASIZE DUP5 DUP3 RETURNDATACOPY RETURNDATASIZE SWAP1 REVERT JUMPDEST DUP1 REVERT JUMPDEST POP CALLVALUE PUSH2 0xEB JUMPI PUSH1 0x20 CALLDATASIZE PUSH1 0x3 NOT ADD SLT PUSH2 0xEB JUMPI PUSH1 0x4 CALLDATALOAD SWAP1 PUSH12 0xFFFFFFFFFFFFFFFFFFFFFFFF DUP1 DUP4 AND DUP1 SWAP4 SUB PUSH2 0x20A JUMPI DUP1 DUP4 EQ PUSH2 0x1F6 JUMPI DUP2 SWAP3 PUSH1 0x1 DUP1 PUSH1 0xA0 SHL SUB PUSH1 0x24 PUSH1 0x40 DUP3 DUP7 SLOAD AND DUP2 MLOAD SWAP3 DUP4 DUP1 SWAP3 PUSH4 0x4B746001 PUSH1 0xE0 SHL DUP3 MSTORE DUP10 PUSH1 0x4 DUP4 ADD MSTORE GAS STATICCALL SWAP1 DUP2 ISZERO PUSH2 0x1EB JUMPI DUP6 SWAP2 PUSH2 0x1A9 JUMPI JUMPDEST POP AND SWAP1 DUP2 EXTCODESIZE ISZERO PUSH2 0x1A4 JUMPI PUSH1 0x24 PUSH1 0x1 SWAP2 DUP6 DUP1 SWAP5 PUSH1 0x40 MLOAD SWAP7 DUP8 SWAP6 DUP7 SWAP5 PUSH4 0x32145F9 PUSH1 0xE4 SHL DUP7 MSTORE ADD AND PUSH1 0x4 DUP5 ADD MSTORE GAS CALL DUP1 ISZERO PUSH2 0xE0 JUMPI PUSH2 0x193 JUMPI POP RETURN JUMPDEST DUP2 PUSH2 0x19D SWAP2 PUSH2 0xA33 JUMP JUMPDEST PUSH2 0xEB JUMPI DUP1 RETURN JUMPDEST POP POP POP REVERT JUMPDEST SWAP1 POP PUSH1 0x40 DUP2 RETURNDATASIZE PUSH1 0x40 GT PUSH2 0x1E3 JUMPI JUMPDEST DUP2 PUSH2 0x1C4 PUSH1 0x40 SWAP4 DUP4 PUSH2 0xA33 JUMP JUMPDEST DUP2 ADD SUB SLT PUSH2 0x1DF JUMPI PUSH1 0x20 ADD MLOAD DUP2 DUP2 AND DUP2 SUB PUSH2 0x1DF JUMPI CODESIZE PUSH2 0x159 JUMP JUMPDEST DUP5 DUP1 REVERT JUMPDEST RETURNDATASIZE SWAP2 POP PUSH2 0x1B7 JUMP JUMPDEST PUSH1 0x40 MLOAD RETURNDATASIZE DUP8 DUP3 RETURNDATACOPY RETURNDATASIZE SWAP1 REVERT JUMPDEST PUSH4 0x4E487B71 PUSH1 0xE0 SHL DUP3 MSTORE PUSH1 0x11 PUSH1 0x4 MSTORE PUSH1 0x24 DUP3 REVERT JUMPDEST POP DUP1 REVERT JUMPDEST POP CALLVALUE PUSH2 0xEB JUMPI PUSH1 0x40 CALLDATASIZE PUSH1 0x3 NOT ADD SLT PUSH2 0xD4 JUMPI DUP1 SLOAD PUSH1 0x40 MLOAD PUSH3 0x7C6DA1 PUSH1 0xE2 SHL DUP2 MSTORE PUSH1 0x4 DUP2 ADD DUP4 SWAP1 MSTORE PUSH1 0x20 SWAP2 PUSH1 0x1 PUSH1 0x1 PUSH1 0xA0 SHL SUB SWAP1 DUP2 AND SWAP2 SWAP1 DUP4 DUP3 PUSH1 0x24 DUP2 DUP7 GAS STATICCALL SWAP2 DUP3 ISZERO PUSH2 0x1EB JUMPI DUP5 SWAP3 PUSH1 0x64 SWAP2 DUP8 SWAP2 PUSH2 0x2CD JUMPI JUMPDEST POP DUP2 PUSH1 0x40 MLOAD SWAP6 DUP7 SWAP5 DUP6 SWAP4 PUSH4 0x484AD7CD PUSH1 0xE0 SHL DUP6 MSTORE AND PUSH1 0x4 DUP5 ADD MSTORE PUSH1 0x4 CALLDATALOAD PUSH1 0x24 DUP5 ADD MSTORE PUSH1 0x24 CALLDATALOAD PUSH1 0x44 DUP5 ADD MSTORE GAS CALL DUP1 ISZERO PUSH2 0x2C2 JUMPI PUSH2 0x29A JUMPI DUP3 DUP1 RETURN JUMPDEST DUP2 RETURNDATASIZE DUP4 GT PUSH2 0x2BB JUMPI JUMPDEST PUSH2 0x2AD DUP2 DUP4 PUSH2 0xA33 JUMP JUMPDEST DUP2 ADD SUB SLT PUSH2 0xD4 JUMPI CODESIZE DUP1 DUP3 DUP1 RETURN JUMPDEST POP RETURNDATASIZE PUSH2 0x2A3 JUMP JUMPDEST PUSH1 0x40 MLOAD RETURNDATASIZE DUP6 DUP3 RETURNDATACOPY RETURNDATASIZE SWAP1 REVERT JUMPDEST PUSH2 0x2ED SWAP2 POP DUP5 RETURNDATASIZE DUP7 GT PUSH2 0x2F3 JUMPI JUMPDEST PUSH2 0x2E5 DUP2 DUP4 PUSH2 0xA33 JUMP JUMPDEST DUP2 ADD SWAP1 PUSH2 0xA6B JUMP JUMPDEST CODESIZE PUSH2 0x260 JUMP JUMPDEST POP RETURNDATASIZE PUSH2 0x2DB JUMP JUMPDEST POP CALLVALUE PUSH2 0xEB JUMPI DUP1 PUSH1 0x3 NOT CALLDATASIZE ADD SLT PUSH2 0xEB JUMPI PUSH1 0x1 SLOAD PUSH1 0x40 MLOAD PUSH4 0x1A07F9C3 PUSH1 0xE2 SHL DUP2 MSTORE PUSH1 0x1 PUSH1 0x1 PUSH1 0xA0 SHL SUB SWAP1 SWAP2 AND SWAP1 PUSH1 0x20 DUP2 PUSH1 0x4 DUP2 DUP6 GAS STATICCALL SWAP1 DUP2 ISZERO PUSH2 0x2C2 JUMPI DUP4 SWAP2 PUSH2 0x8B5 JUMPI JUMPDEST POP PUSH2 0x20A JUMPI PUSH1 0xC SLOAD PUSH1 0x6 SLOAD PUSH1 0x40 MLOAD PUSH4 0x70A08231 PUSH1 0xE0 SHL DUP2 MSTORE ADDRESS PUSH1 0x4 DUP3 ADD MSTORE SWAP4 SWAP2 PUSH1 0x1 PUSH1 0x1 PUSH1 0xA0 SHL SUB SWAP1 DUP2 AND SWAP2 DUP3 BALANCE SWAP2 PUSH1 0x20 SWAP2 DUP8 SWAP2 PUSH1 0x24 SWAP2 DUP4 SWAP2 AND GAS STATICCALL SWAP4 DUP5 ISZERO PUSH2 0x2C2 JUMPI DUP4 SWAP5 PUSH2 0x87C JUMPI JUMPDEST DUP4 SLOAD PUSH1 0x40 MLOAD PUSH3 0x7C6DA1 PUSH1 0xE2 SHL DUP2 MSTORE PUSH1 0x4 DUP2 ADD DUP7 SWAP1 MSTORE SWAP7 POP PUSH1 0x20 SWAP1 DUP8 SWAP1 PUSH1 0x24 SWAP1 DUP3 SWAP1 PUSH1 0x1 PUSH1 0x1 PUSH1 0xA0 SHL SUB AND GAS STATICCALL SWAP6 DUP7 ISZERO PUSH2 0x871 JUMPI DUP5 SWAP6 SWAP7 PUSH1 0x20 SWAP2 PUSH1 0x24 SWAP7 SWAP2 PUSH2 0x854 JUMPI JUMPDEST POP PUSH1 0x40 MLOAD PUSH4 0x70A08231 PUSH1 0xE0 SHL DUP2 MSTORE ADDRESS PUSH1 0x4 DUP3 ADD MSTORE SWAP6 DUP7 SWAP2 DUP3 SWAP1 PUSH1 0x1 PUSH1 0x1 PUSH1 0xA0 SHL SUB AND GAS STATICCALL SWAP4 DUP5 ISZERO PUSH2 0x1EB JUMPI DUP6 SWAP5 PUSH2 0x820 JUMPI JUMPDEST POP PUSH1 0x40 MLOAD PUSH4 0x2B994849 PUSH1 0xE0 SHL DUP2 MSTORE SWAP3 PUSH1 0x20 DUP5 PUSH1 0x4 DUP2 DUP6 GAS STATICCALL SWAP4 DUP5 ISZERO PUSH2 0x6E5 JUMPI DUP7 SWAP5 PUSH2 0x7EC JUMPI JUMPDEST POP DUP2 EXTCODESIZE ISZERO PUSH2 0x6D9 JUMPI DUP6 SWAP2 PUSH1 0x24 DUP4 SWAP3 PUSH1 0x40 MLOAD SWAP5 DUP6 SWAP4 DUP5 SWAP3 PUSH4 0x25B27249 PUSH1 0xE1 SHL DUP5 MSTORE PUSH1 0x4 DUP5 ADD MSTORE GAS CALL DUP1 ISZERO PUSH2 0x1EB JUMPI PUSH2 0x7D7 JUMPI JUMPDEST POP PUSH1 0xC SLOAD PUSH1 0x6 SLOAD PUSH1 0x40 MLOAD PUSH4 0x70A08231 PUSH1 0xE0 SHL DUP2 MSTORE ADDRESS PUSH1 0x4 DUP3 ADD MSTORE SWAP6 SWAP7 SWAP5 SWAP6 SWAP5 PUSH1 0x1 PUSH1 0x1 PUSH1 0xA0 SHL SUB SWAP3 DUP4 AND BALANCE SWAP5 SWAP1 SWAP3 SWAP1 SWAP2 PUSH1 0x20 SWAP2 DUP8 SWAP2 PUSH1 0x24 SWAP2 DUP4 SWAP2 AND GAS STATICCALL SWAP5 DUP6 ISZERO PUSH2 0x7CC JUMPI DUP8 SWAP6 PUSH2 0x798 JUMPI JUMPDEST POP DUP7 SLOAD PUSH1 0x40 MLOAD PUSH3 0x7C6DA1 PUSH1 0xE2 SHL DUP2 MSTORE PUSH1 0x4 DUP2 ADD DUP10 SWAP1 MSTORE PUSH1 0x1 PUSH1 0x1 PUSH1 0xA0 SHL SUB SWAP1 SWAP2 AND SWAP7 SWAP1 PUSH1 0x20 DUP2 PUSH1 0x24 DUP2 DUP12 GAS STATICCALL SWAP1 DUP2 ISZERO PUSH2 0x770 JUMPI PUSH1 0x24 SWAP2 PUSH1 0x20 SWAP2 DUP12 SWAP2 PUSH2 0x77B JUMPI JUMPDEST POP PUSH1 0x40 MLOAD PUSH4 0x70A08231 PUSH1 0xE0 SHL DUP2 MSTORE ADDRESS PUSH1 0x4 DUP3 ADD MSTORE SWAP3 DUP4 SWAP2 DUP3 SWAP1 PUSH1 0x1 PUSH1 0x1 PUSH1 0xA0 SHL SUB AND GAS STATICCALL SWAP1 DUP2 ISZERO PUSH2 0x770 JUMPI DUP10 SWAP2 PUSH2 0x73E JUMPI JUMPDEST POP PUSH1 0x1 SLOAD PUSH1 0x40 MLOAD PUSH4 0x2B994849 PUSH1 0xE0 SHL DUP2 MSTORE PUSH1 0x1 PUSH1 0x1 PUSH1 0xA0 SHL SUB SWAP1 SWAP2 AND SWAP8 SWAP1 SWAP5 PUSH1 0x20 DUP7 PUSH1 0x4 DUP2 DUP13 GAS STATICCALL SWAP6 DUP7 ISZERO PUSH2 0x733 JUMPI DUP12 SWAP7 PUSH2 0x6FF JUMPI JUMPDEST POP EQ SWAP2 DUP3 ISZERO SWAP3 PUSH2 0x6F4 JUMPI JUMPDEST POP POP ISZERO PUSH2 0x6F0 JUMPI PUSH2 0x567 PUSH1 0x20 SWAP2 PUSH1 0x4 SWAP4 PUSH2 0xA8A JUMP JUMPDEST SWAP5 PUSH1 0x40 MLOAD SWAP3 DUP4 DUP1 SWAP3 PUSH4 0x36EC2DA1 PUSH1 0xE2 SHL DUP3 MSTORE GAS STATICCALL SWAP1 DUP2 ISZERO PUSH2 0x6E5 JUMPI DUP7 SWAP2 PUSH2 0x69B JUMPI JUMPDEST POP SWAP2 PUSH2 0x5A3 PUSH1 0x1 PUSH1 0x1 PUSH1 0x80 SHL SUB PUSH2 0x5A8 SWAP5 AND DUP6 GT ISZERO PUSH2 0xAAD JUMP JUMPDEST PUSH2 0xA8A JUMP JUMPDEST DUP2 PUSH1 0x64 MUL SWAP2 PUSH1 0x64 DUP4 DIV SUB PUSH2 0x687 JUMPI PUSH2 0x5C0 SWAP2 EQ PUSH2 0xAAD JUMP JUMPDEST PUSH1 0x40 MLOAD PUSH4 0x104DF9AB PUSH1 0xE3 SHL DUP2 MSTORE SWAP1 PUSH1 0x20 DUP3 PUSH1 0x4 DUP2 DUP5 GAS STATICCALL SWAP2 DUP3 ISZERO PUSH2 0x2C2 JUMPI DUP4 SWAP3 PUSH2 0x652 JUMPI JUMPDEST POP SWAP1 PUSH1 0x20 PUSH1 0x4 SWAP3 PUSH1 0x40 MLOAD SWAP4 DUP5 DUP1 SWAP3 PUSH4 0x198804FD PUSH1 0xE2 SHL DUP3 MSTORE GAS STATICCALL SWAP1 DUP2 ISZERO PUSH2 0x2C2 JUMPI DUP4 SWAP2 PUSH2 0x61C JUMPI JUMPDEST PUSH2 0x619 SWAP3 POP LT ISZERO PUSH2 0xAAD JUMP JUMPDEST DUP1 RETURN JUMPDEST SWAP1 POP PUSH1 0x20 DUP3 RETURNDATASIZE PUSH1 0x20 GT PUSH2 0x64A JUMPI JUMPDEST DUP2 PUSH2 0x637 PUSH1 0x20 SWAP4 DUP4 PUSH2 0xA33 JUMP JUMPDEST DUP2 ADD SUB SLT PUSH2 0xD4 JUMPI PUSH2 0x619 SWAP2 MLOAD SWAP1 PUSH2 0x60D JUMP JUMPDEST RETURNDATASIZE SWAP2 POP PUSH2 0x62A JUMP JUMPDEST SWAP2 POP PUSH1 0x20 DUP3 RETURNDATASIZE PUSH1 0x20 GT PUSH2 0x67F JUMPI JUMPDEST DUP2 PUSH2 0x66D PUSH1 0x20 SWAP4 DUP4 PUSH2 0xA33 JUMP JUMPDEST DUP2 ADD SUB SLT PUSH2 0xD4 JUMPI SWAP1 MLOAD SWAP1 PUSH1 0x20 PUSH2 0x5E5 JUMP JUMPDEST RETURNDATASIZE SWAP2 POP PUSH2 0x660 JUMP JUMPDEST PUSH4 0x4E487B71 PUSH1 0xE0 SHL DUP5 MSTORE PUSH1 0x11 PUSH1 0x4 MSTORE PUSH1 0x24 DUP5 REVERT JUMPDEST SWAP1 POP PUSH1 0x20 DUP2 RETURNDATASIZE PUSH1 0x20 GT PUSH2 0x6DD JUMPI JUMPDEST DUP2 PUSH2 0x6B6 PUSH1 0x20 SWAP4 DUP4 PUSH2 0xA33 JUMP JUMPDEST DUP2 ADD SUB SLT PUSH2 0x6D9 JUMPI MLOAD SWAP2 PUSH1 0x1 PUSH1 0x1 PUSH1 0x80 SHL SUB DUP4 AND DUP4 SUB PUSH2 0x6D9 JUMPI SWAP2 PUSH2 0x5A3 PUSH2 0x589 JUMP JUMPDEST DUP6 DUP1 REVERT JUMPDEST RETURNDATASIZE SWAP2 POP PUSH2 0x6A9 JUMP JUMPDEST PUSH1 0x40 MLOAD RETURNDATASIZE DUP9 DUP3 RETURNDATACOPY RETURNDATASIZE SWAP1 REVERT JUMPDEST DUP7 DUP1 REVERT JUMPDEST EQ ISZERO SWAP1 POP CODESIZE DUP1 PUSH2 0x552 JUMP JUMPDEST SWAP1 SWAP6 POP PUSH1 0x20 DUP2 RETURNDATASIZE PUSH1 0x20 GT PUSH2 0x72B JUMPI JUMPDEST DUP2 PUSH2 0x71B PUSH1 0x20 SWAP4 DUP4 PUSH2 0xA33 JUMP JUMPDEST DUP2 ADD SUB SLT PUSH2 0xD4 JUMPI MLOAD SWAP5 CODESIZE PUSH2 0x547 JUMP JUMPDEST RETURNDATASIZE SWAP2 POP PUSH2 0x70E JUMP JUMPDEST PUSH1 0x40 MLOAD RETURNDATASIZE DUP14 DUP3 RETURNDATACOPY RETURNDATASIZE SWAP1 REVERT JUMPDEST SWAP1 POP PUSH1 0x20 DUP2 RETURNDATASIZE PUSH1 0x20 GT PUSH2 0x768 JUMPI JUMPDEST DUP2 PUSH2 0x759 PUSH1 0x20 SWAP4 DUP4 PUSH2 0xA33 JUMP JUMPDEST DUP2 ADD SUB SLT PUSH2 0xD4 JUMPI MLOAD CODESIZE PUSH2 0x511 JUMP JUMPDEST RETURNDATASIZE SWAP2 POP PUSH2 0x74C JUMP JUMPDEST PUSH1 0x40 MLOAD RETURNDATASIZE DUP12 DUP3 RETURNDATACOPY RETURNDATASIZE SWAP1 REVERT JUMPDEST PUSH2 0x792 SWAP2 POP DUP3 RETURNDATASIZE DUP5 GT PUSH2 0x2F3 JUMPI PUSH2 0x2E5 DUP2 DUP4 PUSH2 0xA33 JUMP JUMPDEST CODESIZE PUSH2 0x4DF JUMP JUMPDEST SWAP1 SWAP5 POP PUSH1 0x20 DUP2 RETURNDATASIZE PUSH1 0x20 GT PUSH2 0x7C4 JUMPI JUMPDEST DUP2 PUSH2 0x7B4 PUSH1 0x20 SWAP4 DUP4 PUSH2 0xA33 JUMP JUMPDEST DUP2 ADD SUB SLT PUSH2 0xD4 JUMPI MLOAD SWAP4 CODESIZE PUSH2 0x49F JUMP JUMPDEST RETURNDATASIZE SWAP2 POP PUSH2 0x7A7 JUMP JUMPDEST PUSH1 0x40 MLOAD RETURNDATASIZE DUP10 DUP3 RETURNDATACOPY RETURNDATASIZE SWAP1 REVERT JUMPDEST SWAP4 PUSH2 0x7E5 DUP2 PUSH1 0x24 SWAP6 SWAP7 PUSH2 0xA33 JUMP JUMPDEST SWAP4 SWAP3 PUSH2 0x454 JUMP JUMPDEST SWAP1 SWAP4 POP PUSH1 0x20 DUP2 RETURNDATASIZE PUSH1 0x20 GT PUSH2 0x818 JUMPI JUMPDEST DUP2 PUSH2 0x808 PUSH1 0x20 SWAP4 DUP4 PUSH2 0xA33 JUMP JUMPDEST DUP2 ADD SUB SLT PUSH2 0x6D9 JUMPI MLOAD SWAP3 CODESIZE PUSH2 0x422 JUMP JUMPDEST RETURNDATASIZE SWAP2 POP PUSH2 0x7FB JUMP JUMPDEST SWAP1 SWAP4 POP PUSH1 0x20 DUP2 RETURNDATASIZE PUSH1 0x20 GT PUSH2 0x84C JUMPI JUMPDEST DUP2 PUSH2 0x83C PUSH1 0x20 SWAP4 DUP4 PUSH2 0xA33 JUMP JUMPDEST DUP2 ADD SUB SLT PUSH2 0x1DF JUMPI MLOAD SWAP3 CODESIZE PUSH2 0x3FC JUMP JUMPDEST RETURNDATASIZE SWAP2 POP PUSH2 0x82F JUMP JUMPDEST PUSH2 0x86B SWAP2 POP DUP3 RETURNDATASIZE DUP5 GT PUSH2 0x2F3 JUMPI PUSH2 0x2E5 DUP2 DUP4 PUSH2 0xA33 JUMP JUMPDEST CODESIZE PUSH2 0x3CA JUMP JUMPDEST PUSH1 0x40 MLOAD RETURNDATASIZE DUP7 DUP3 RETURNDATACOPY RETURNDATASIZE SWAP1 REVERT JUMPDEST SWAP4 POP PUSH1 0x20 DUP6 RETURNDATASIZE PUSH1 0x20 GT PUSH2 0x8AD JUMPI JUMPDEST DUP2 PUSH2 0x897 PUSH1 0x20 SWAP4 DUP4 PUSH2 0xA33 JUMP JUMPDEST DUP2 ADD SUB SLT PUSH2 0x8A9 JUMPI PUSH1 0x24 SWAP5 MLOAD SWAP4 PUSH2 0x388 JUMP JUMPDEST DUP3 DUP1 REVERT JUMPDEST RETURNDATASIZE SWAP2 POP PUSH2 0x88A JUMP JUMPDEST SWAP1 POP PUSH1 0x20 DUP2 RETURNDATASIZE PUSH1 0x20 GT PUSH2 0x8E8 JUMPI JUMPDEST DUP2 PUSH2 0x8D0 PUSH1 0x20 SWAP4 DUP4 PUSH2 0xA33 JUMP JUMPDEST DUP2 ADD SUB SLT PUSH2 0x8A9 JUMPI MLOAD DUP1 ISZERO ISZERO DUP2 SUB PUSH2 0x8A9 JUMPI CODESIZE PUSH2 0x33E JUMP JUMPDEST RETURNDATASIZE SWAP2 POP PUSH2 0x8C3 JUMP JUMPDEST POP CALLVALUE PUSH2 0xEB JUMPI PUSH1 0x20 DUP1 PUSH1 0x3 NOT CALLDATASIZE ADD SLT PUSH2 0x20A JUMPI DUP2 SLOAD PUSH1 0x40 MLOAD PUSH3 0x7C6DA1 PUSH1 0xE2 SHL DUP2 MSTORE PUSH1 0x4 DUP2 ADD DUP5 SWAP1 MSTORE PUSH1 0x1 PUSH1 0x1 PUSH1 0xA0 SHL SUB SWAP2 DUP3 AND SWAP2 DUP4 DUP3 PUSH1 0x24 DUP2 DUP7 GAS STATICCALL SWAP2 DUP3 ISZERO PUSH2 0x1EB JUMPI DUP5 SWAP3 PUSH1 0x64 SWAP2 DUP8 SWAP2 PUSH2 0x99F JUMPI JUMPDEST POP DUP2 PUSH1 0x40 MLOAD SWAP6 DUP7 SWAP5 DUP6 SWAP4 PUSH4 0x119AE24D PUSH1 0xE2 SHL DUP6 MSTORE AND PUSH1 0x4 DUP5 ADD MSTORE PUSH1 0x4 CALLDATALOAD PUSH1 0x24 DUP5 ADD MSTORE DUP9 PUSH1 0x44 DUP5 ADD MSTORE GAS CALL DUP1 ISZERO PUSH2 0x2C2 JUMPI PUSH2 0x977 JUMPI DUP3 DUP1 RETURN JUMPDEST DUP2 RETURNDATASIZE DUP4 GT PUSH2 0x998 JUMPI JUMPDEST PUSH2 0x98A DUP2 DUP4 PUSH2 0xA33 JUMP JUMPDEST DUP2 ADD SUB SLT PUSH2 0xEB JUMPI CODESIZE DUP1 DUP3 DUP1 RETURN JUMPDEST POP RETURNDATASIZE PUSH2 0x980 JUMP JUMPDEST PUSH2 0x9B6 SWAP2 POP DUP5 RETURNDATASIZE DUP7 GT PUSH2 0x2F3 JUMPI PUSH2 0x2E5 DUP2 DUP4 PUSH2 0xA33 JUMP JUMPDEST CODESIZE PUSH2 0x93F JUMP JUMPDEST SWAP1 POP CALLVALUE PUSH2 0x20A JUMPI PUSH1 0x40 CALLDATASIZE PUSH1 0x3 NOT ADD SLT PUSH2 0x20A JUMPI PUSH1 0x20 DUP2 PUSH1 0x44 DUP2 PUSH1 0x64 PUSH1 0x1 DUP1 PUSH1 0xA0 SHL SUB DUP8 SLOAD AND PUSH4 0x176FEC1 PUSH1 0xE3 SHL DUP4 MSTORE PUSH1 0x4 CALLDATALOAD PUSH1 0x4 DUP5 ADD MSTORE PUSH1 0x24 CALLDATALOAD PUSH1 0x24 DUP5 ADD MSTORE GAS CALL DUP1 ISZERO PUSH2 0xE0 JUMPI PUSH2 0xA0B JUMPI POP DUP1 RETURN JUMPDEST PUSH1 0x20 SWAP1 DUP2 RETURNDATASIZE DUP2 GT PUSH2 0xA2C JUMPI JUMPDEST PUSH2 0xA21 DUP2 DUP4 PUSH2 0xA33 JUMP JUMPDEST DUP2 ADD SUB SLT PUSH2 0xEB JUMPI DUP1 RETURN JUMPDEST POP RETURNDATASIZE PUSH2 0xA17 JUMP JUMPDEST SWAP1 PUSH1 0x1F DUP1 NOT SWAP2 ADD AND DUP2 ADD SWAP1 DUP2 LT PUSH8 0xFFFFFFFFFFFFFFFF DUP3 GT OR PUSH2 0xA55 JUMPI PUSH1 0x40 MSTORE JUMP JUMPDEST PUSH4 0x4E487B71 PUSH1 0xE0 SHL PUSH1 0x0 MSTORE PUSH1 0x41 PUSH1 0x4 MSTORE PUSH1 0x24 PUSH1 0x0 REVERT JUMPDEST SWAP1 DUP2 PUSH1 0x20 SWAP2 SUB SLT PUSH2 0xD4 JUMPI MLOAD PUSH1 0x1 PUSH1 0x1 PUSH1 0xA0 SHL SUB DUP2 AND DUP2 SUB PUSH2 0xD4 JUMPI SWAP1 JUMP JUMPDEST SWAP2 SWAP1 DUP3 SUB SWAP2 DUP3 GT PUSH2 0xA97 JUMPI JUMP JUMPDEST PUSH4 0x4E487B71 PUSH1 0xE0 SHL PUSH1 0x0 MSTORE PUSH1 0x11 PUSH1 0x4 MSTORE PUSH1 0x24 PUSH1 0x0 REVERT JUMPDEST ISZERO PUSH2 0xAB4 JUMPI JUMP JUMPDEST PUSH4 0x4E487B71 PUSH1 0xE0 SHL PUSH1 0x0 MSTORE PUSH1 0x1 PUSH1 0x4 MSTORE PUSH1 0x24 PUSH1 0x0 REVERT INVALID LOG2 PUSH5 0x6970667358 0x22 SLT KECCAK256 BASEFEE PUSH15 0xE6062D15348410243E790832410C51 0xCA SWAP1 PUSH29 0x34667117E6073E07921D3AA264736F6C63430008140033608060405261 SUB 0xF9 DUP1 CODESIZE SUB DUP1 PUSH2 0x14 DUP2 PUSH2 0x1FB JUMP JUMPDEST SWAP3 DUP4 CODECOPY DUP2 ADD SWAP1 PUSH1 0x40 DUP2 DUP4 SUB SLT PUSH2 0x1F6 JUMPI DUP1 MLOAD SWAP1 PUSH1 0x1 PUSH1 0x1 PUSH1 0xA0 SHL SUB DUP3 AND DUP1 DUP4 SUB PUSH2 0x1F6 JUMPI PUSH1 0x20 DUP3 DUP2 ADD MLOAD SWAP1 SWAP3 PUSH1 0x1 PUSH1 0x1 PUSH1 0x40 SHL SUB DUP3 GT PUSH2 0x1F6 JUMPI ADD SWAP3 DUP5 PUSH1 0x1F DUP6 ADD SLT ISZERO PUSH2 0x1F6 JUMPI DUP4 MLOAD SWAP4 PUSH2 0x6F PUSH2 0x6A DUP7 PUSH2 0x236 JUMP JUMPDEST PUSH2 0x1FB JUMP JUMPDEST SWAP5 DUP1 DUP7 MSTORE DUP5 DUP7 ADD SWAP7 DUP6 DUP3 DUP5 ADD ADD GT PUSH2 0x1F6 JUMPI DUP7 DUP6 PUSH2 0x8D SWAP4 ADD PUSH2 0x251 JUMP JUMPDEST DUP1 EXTCODESIZE ISZERO PUSH2 0x19B JUMPI PUSH32 0x360894A13BA1A3210667C828492DB98DCA3E2076CC3735A920A3CA505D382BBC DUP1 SLOAD PUSH1 0x1 PUSH1 0x1 PUSH1 0xA0 SHL SUB NOT AND DUP4 OR SWAP1 SSTORE PUSH1 0x0 SWAP2 PUSH32 0xBC7CD75A20EE27FD9ADEBAB32041F755214DBC6BFFA90CC0225B39DA2E5C2D3B DUP4 DUP1 LOG2 DUP4 MLOAD ISZERO DUP1 ISZERO SWAP1 PUSH2 0x194 JUMPI JUMPDEST PUSH2 0x10A JUMPI JUMPDEST PUSH1 0x40 MLOAD PUSH1 0xD1 SWAP1 DUP2 PUSH2 0x328 DUP3 CODECOPY RETURN JUMPDEST DUP2 DUP1 PUSH2 0x17F SWAP7 PUSH2 0x11D PUSH2 0x6A PUSH1 0x27 PUSH2 0x236 JUMP JUMPDEST SWAP7 PUSH1 0x27 DUP9 MSTORE PUSH32 0x416464726573733A206C6F772D6C6576656C2064656C65676174652063616C6C DUP8 DUP10 ADD MSTORE PUSH7 0x819985A5B1959 PUSH1 0xCA SHL PUSH1 0x40 DUP10 ADD MSTORE MLOAD SWAP1 DUP5 GAS DELEGATECALL SWAP2 RETURNDATASIZE ISZERO PUSH2 0x18A JUMPI RETURNDATASIZE SWAP1 PUSH2 0x171 PUSH2 0x6A DUP4 PUSH2 0x236 JUMP JUMPDEST SWAP2 DUP3 MSTORE DUP2 SWAP5 RETURNDATASIZE SWAP3 ADD RETURNDATACOPY PUSH2 0x274 JUMP JUMPDEST POP CODESIZE DUP1 DUP1 DUP1 DUP1 PUSH2 0xFC JUMP JUMPDEST POP PUSH1 0x60 SWAP3 POP PUSH2 0x274 JUMP JUMPDEST POP DUP2 PUSH2 0xF7 JUMP JUMPDEST PUSH1 0x40 MLOAD PUSH3 0x461BCD PUSH1 0xE5 SHL DUP2 MSTORE PUSH1 0x4 DUP2 ADD DUP5 SWAP1 MSTORE PUSH1 0x2D PUSH1 0x24 DUP3 ADD MSTORE PUSH32 0x455243313936373A206E657720696D706C656D656E746174696F6E206973206E PUSH1 0x44 DUP3 ADD MSTORE PUSH13 0x1BDD08184818DBDB9D1C9858DD PUSH1 0x9A SHL PUSH1 0x64 DUP3 ADD MSTORE PUSH1 0x84 SWAP1 REVERT JUMPDEST PUSH1 0x0 DUP1 REVERT JUMPDEST PUSH1 0x40 MLOAD SWAP2 SWAP1 PUSH1 0x1F ADD PUSH1 0x1F NOT AND DUP3 ADD PUSH1 0x1 PUSH1 0x1 PUSH1 0x40 SHL SUB DUP2 GT DUP4 DUP3 LT OR PUSH2 0x220 JUMPI PUSH1 0x40 MSTORE JUMP JUMPDEST PUSH4 0x4E487B71 PUSH1 0xE0 SHL PUSH1 0x0 MSTORE PUSH1 0x41 PUSH1 0x4 MSTORE PUSH1 0x24 PUSH1 0x0 REVERT JUMPDEST PUSH1 0x1 PUSH1 0x1 PUSH1 0x40 SHL SUB DUP2 GT PUSH2 0x220 JUMPI PUSH1 0x1F ADD PUSH1 0x1F NOT AND PUSH1 0x20 ADD SWAP1 JUMP JUMPDEST PUSH1 0x0 JUMPDEST DUP4 DUP2 LT PUSH2 0x264 JUMPI POP POP PUSH1 0x0 SWAP2 ADD MSTORE JUMP JUMPDEST DUP2 DUP2 ADD MLOAD DUP4 DUP3 ADD MSTORE PUSH1 0x20 ADD PUSH2 0x254 JUMP JUMPDEST SWAP2 SWAP3 SWAP1 ISZERO PUSH2 0x2D6 JUMPI POP DUP2 MLOAD ISZERO PUSH2 0x288 JUMPI POP SWAP1 JUMP JUMPDEST EXTCODESIZE ISZERO PUSH2 0x291 JUMPI SWAP1 JUMP JUMPDEST PUSH1 0x40 MLOAD PUSH3 0x461BCD PUSH1 0xE5 SHL DUP2 MSTORE PUSH1 0x20 PUSH1 0x4 DUP3 ADD MSTORE PUSH1 0x1D PUSH1 0x24 DUP3 ADD MSTORE PUSH32 0x416464726573733A2063616C6C20746F206E6F6E2D636F6E7472616374000000 PUSH1 0x44 DUP3 ADD MSTORE PUSH1 0x64 SWAP1 REVERT JUMPDEST DUP3 MLOAD SWAP1 SWAP2 POP ISZERO PUSH2 0x2E9 JUMPI POP DUP1 MLOAD SWAP1 PUSH1 0x20 ADD REVERT JUMPDEST PUSH1 0x44 PUSH1 0x40 MLOAD DUP1 SWAP3 PUSH3 0x461BCD PUSH1 0xE5 SHL DUP3 MSTORE PUSH1 0x20 PUSH1 0x4 DUP4 ADD MSTORE PUSH2 0x319 DUP2 MLOAD DUP1 SWAP3 DUP2 PUSH1 0x24 DUP7 ADD MSTORE PUSH1 0x20 DUP7 DUP7 ADD SWAP2 ADD PUSH2 0x251 JUMP JUMPDEST PUSH1 0x1F ADD PUSH1 0x1F NOT AND DUP2 ADD SUB ADD SWAP1 REVERT INVALID PUSH1 0x80 PUSH1 0x40 MSTORE CALLDATASIZE ISZERO PUSH1 0x54 JUMPI PUSH32 0x360894A13BA1A3210667C828492DB98DCA3E2076CC3735A920A3CA505D382BBC SLOAD PUSH1 0x0 SWAP1 DUP2 SWAP1 DUP2 SWAP1 PUSH1 0x1 PUSH1 0x1 PUSH1 0xA0 SHL SUB AND CALLDATASIZE DUP3 DUP1 CALLDATACOPY DUP2 CALLDATASIZE SWAP2 GAS DELEGATECALL RETURNDATASIZE DUP3 DUP1 RETURNDATACOPY ISZERO PUSH1 0x50 JUMPI RETURNDATASIZE SWAP1 RETURN JUMPDEST RETURNDATASIZE SWAP1 REVERT JUMPDEST PUSH32 0x360894A13BA1A3210667C828492DB98DCA3E2076CC3735A920A3CA505D382BBC SLOAD PUSH1 0x0 SWAP1 DUP2 SWAP1 DUP2 SWAP1 PUSH1 0x1 PUSH1 0x1 PUSH1 0xA0 SHL SUB AND CALLDATASIZE DUP3 DUP1 CALLDATACOPY DUP2 CALLDATASIZE SWAP2 GAS DELEGATECALL RETURNDATASIZE DUP3 DUP1 RETURNDATACOPY ISZERO PUSH1 0x50 JUMPI RETURNDATASIZE SWAP1 RETURN INVALID LOG2 PUSH5 0x6970667358 0x22 SLT KECCAK256 CALL RETURNDATASIZE DUP16 PUSH0 0xED PUSH0 SWAP12 CREATE SHR 0xBF TIMESTAMP 0xBF 0xC PUSH14 0xBB93D7F0FEC96DCF048FBA51568 MLOAD 0xD0 CALLER PUSH11 0x64736F6C63430008140033 PUSH1 0xA0 DUP1 PUSH1 0x40 MSTORE CALLVALUE PUSH3 0xE1 JUMPI ADDRESS PUSH1 0x80 MSTORE PUSH1 0x0 SLOAD SWAP1 PUSH1 0xFF DUP3 PUSH1 0x8 SHR AND PUSH3 0x8F JUMPI POP PUSH1 0xFF DUP1 DUP3 AND SUB PUSH3 0x53 JUMPI JUMPDEST PUSH1 0x40 MLOAD PUSH2 0x5D5A SWAP1 DUP2 PUSH3 0xE7 DUP3 CODECOPY PUSH1 0x80 MLOAD DUP2 DUP2 DUP2 PUSH2 0x2846 ADD MSTORE DUP2 DUP2 PUSH2 0x29B5 ADD MSTORE PUSH2 0x2F2C ADD MSTORE RETURN JUMPDEST PUSH1 0xFF SWAP1 DUP2 NOT AND OR PUSH1 0x0 SSTORE PUSH32 0x7F26B83FF96E1F2B6A682F133852F6798A09C465DA95921460CEFB3847402498 PUSH1 0x20 PUSH1 0x40 MLOAD PUSH1 0xFF DUP2 MSTORE LOG1 CODESIZE PUSH3 0x2C JUMP JUMPDEST PUSH3 0x461BCD PUSH1 0xE5 SHL DUP2 MSTORE PUSH1 0x20 PUSH1 0x4 DUP3 ADD MSTORE PUSH1 0x27 PUSH1 0x24 DUP3 ADD MSTORE PUSH32 0x496E697469616C697A61626C653A20636F6E747261637420697320696E697469 PUSH1 0x44 DUP3 ADD MSTORE PUSH7 0x616C697A696E67 PUSH1 0xC8 SHL PUSH1 0x64 DUP3 ADD MSTORE PUSH1 0x84 SWAP1 REVERT JUMPDEST PUSH1 0x0 DUP1 REVERT INVALID PUSH1 0x40 PUSH1 0x80 DUP2 MSTORE PUSH1 0x4 CALLDATASIZE LT ISZERO PUSH2 0x13 JUMPI PUSH1 0x0 DUP1 REVERT JUMPDEST PUSH1 0x0 PUSH1 0xE0 SWAP1 DUP1 CALLDATALOAD DUP3 SHR SWAP2 DUP3 PUSH4 0x1DDE6EF EQ PUSH2 0x37C6 JUMPI DUP3 PUSH4 0x1F1B684 EQ PUSH2 0x377F JUMPI DUP3 PUSH4 0x579188F EQ PUSH2 0x36E6 JUMPI DUP3 PUSH4 0x73763B9 EQ PUSH2 0x36C2 JUMPI DUP3 PUSH4 0xBB7F608 EQ PUSH2 0x36A3 JUMPI DUP3 PUSH4 0xC340A24 EQ PUSH2 0x367A JUMPI DUP3 PUSH4 0xC36D897 EQ PUSH2 0x365A JUMPI DUP3 PUSH4 0xD6AC463 EQ PUSH2 0x3614 JUMPI DUP3 PUSH4 0xDB49656 EQ PUSH2 0x35F4 JUMPI DUP3 PUSH4 0xE0A8FD2 EQ PUSH2 0x35D0 JUMPI DUP3 PUSH4 0xF1E5E2B EQ PUSH2 0x358A JUMPI DUP3 PUSH4 0x13ED7BA5 EQ PUSH2 0x3560 JUMPI DUP3 PUSH4 0x15266E36 EQ PUSH2 0x3543 JUMPI DUP3 PUSH4 0x17937F9B EQ PUSH2 0x350C JUMPI DUP3 PUSH4 0x1867E2F5 EQ PUSH2 0x34EC JUMPI DUP3 PUSH4 0x1FB0DDA0 EQ PUSH2 0x34C3 JUMPI DUP3 PUSH4 0x1FE6A7AD EQ PUSH2 0x3489 JUMPI DUP3 PUSH4 0x2069F753 EQ PUSH2 0x3465 JUMPI DUP3 PUSH4 0x235E81CF EQ PUSH2 0x3273 JUMPI DUP3 PUSH4 0x23B98CDE EQ PUSH2 0x324B JUMPI DUP3 PUSH4 0x24FFABA3 EQ PUSH2 0x320E JUMPI DUP3 PUSH4 0x25BC6C41 EQ PUSH2 0x31E4 JUMPI DUP3 PUSH4 0x27EAB2A1 EQ PUSH2 0x319E JUMPI DUP3 PUSH4 0x2A20D57D EQ PUSH2 0x317E JUMPI DUP3 PUSH4 0x2B764FAD EQ PUSH2 0x3161 JUMPI DUP3 PUSH4 0x2C43BD3B EQ PUSH2 0x313D JUMPI DUP3 PUSH4 0x2D88AF4A EQ PUSH2 0x30E6 JUMPI DUP3 PUSH4 0x2DED50F0 EQ PUSH2 0x30C6 JUMPI DUP3 PUSH4 0x333431FD EQ PUSH2 0x30A6 JUMPI DUP3 PUSH4 0x33421C38 EQ PUSH2 0x2FAB JUMPI DUP3 PUSH4 0x34246862 EQ PUSH2 0x2F91 JUMPI DUP3 PUSH4 0x3659CFE6 EQ PUSH2 0x2EF7 JUMPI DUP3 PUSH4 0x3915EDCB EQ PUSH2 0x2EC6 JUMPI DUP3 PUSH4 0x391BF6CF EQ PUSH2 0x2DAE JUMPI DUP3 PUSH4 0x3BC4AC0A EQ PUSH2 0x2D8A JUMPI DUP3 PUSH4 0x3CFB09EF EQ PUSH2 0x2D44 JUMPI DUP3 PUSH4 0x3DBC50A9 EQ PUSH2 0x2D2A JUMPI DUP3 PUSH4 0x3F4BA83A EQ PUSH2 0x2CAF JUMPI DUP3 PUSH4 0x4017936A EQ PUSH2 0x2C7E JUMPI DUP3 PUSH4 0x407F0E34 EQ PUSH2 0x2C5E JUMPI DUP3 PUSH4 0x4310ADC6 EQ PUSH2 0x2C2B JUMPI DUP3 PUSH4 0x44719EE9 EQ PUSH2 0x2BF4 JUMPI DUP3 PUSH4 0x466B8934 EQ PUSH2 0x2BBD JUMPI DUP3 PUSH4 0x471A80E3 EQ PUSH2 0x2B8A JUMPI DUP3 PUSH4 0x484AD7CD EQ PUSH2 0x2B53 JUMPI DUP3 PUSH4 0x4AF3A6FC EQ PUSH2 0x2AD4 JUMPI DUP3 PUSH4 0x4B746001 EQ PUSH2 0x2A8A JUMPI DUP3 PUSH4 0x4D977E78 EQ PUSH2 0x2A6A JUMPI DUP3 PUSH4 0x4E1F907A EQ PUSH2 0x2A40 JUMPI DUP3 PUSH4 0x4F0F27EE EQ PUSH2 0x2A20 JUMPI DUP3 PUSH4 0x4F1EF286 EQ PUSH2 0x292C JUMPI DUP3 PUSH4 0x5210570C EQ PUSH2 0x2906 JUMPI DUP3 PUSH4 0x52D1902D EQ PUSH2 0x2831 JUMPI DUP3 PUSH4 0x52E18F8F EQ PUSH2 0x2816 JUMPI DUP3 PUSH4 0x533A4BEA EQ PUSH2 0x27E5 JUMPI DUP3 PUSH4 0x53B16D17 EQ PUSH2 0x27A0 JUMPI DUP3 PUSH4 0x543AEB48 EQ PUSH2 0x277C JUMPI DUP3 PUSH4 0x5860EE63 EQ PUSH2 0x275C JUMPI DUP3 PUSH4 0x58F32DE9 EQ PUSH2 0x2714 JUMPI DUP3 PUSH4 0x5C616A73 EQ PUSH2 0x2519 JUMPI DUP3 PUSH4 0x5C975ABB EQ PUSH2 0x24F2 JUMPI DUP3 PUSH4 0x5CFBE578 EQ PUSH2 0x24D2 JUMPI DUP3 PUSH4 0x5ECE17EF EQ PUSH2 0x24B5 JUMPI DUP3 PUSH4 0x60009E0B EQ PUSH2 0x248B JUMPI DUP3 PUSH4 0x60A01DFA EQ PUSH2 0x1F43 JUMPI DUP3 PUSH4 0x647846A5 EQ PUSH2 0x1F19 JUMPI DUP3 PUSH4 0x64EC230A EQ PUSH2 0x1EF5 JUMPI DUP3 PUSH4 0x662013F4 EQ PUSH2 0x1ED8 JUMPI DUP3 PUSH4 0x68274357 EQ PUSH2 0x1EAF JUMPI DUP3 PUSH4 0x68F015DF EQ PUSH2 0x1E4F JUMPI DUP3 PUSH4 0x6B5488DF EQ PUSH2 0x1E2F JUMPI DUP3 PUSH4 0x6F30471F EQ PUSH2 0x1E0F JUMPI DUP3 PUSH4 0x70713468 EQ PUSH2 0x1DEB JUMPI DUP3 PUSH4 0x735D3960 EQ PUSH2 0x1DA5 JUMPI DUP3 PUSH4 0x73E28AF9 EQ PUSH2 0x1D81 JUMPI DUP3 PUSH4 0x74873AD3 EQ PUSH2 0x1D64 JUMPI DUP3 PUSH4 0x7554FFFD EQ PUSH2 0x1D44 JUMPI DUP3 PUSH4 0x76228055 EQ PUSH2 0x1D24 JUMPI DUP3 PUSH4 0x7750BA0C EQ PUSH2 0x1D00 JUMPI DUP3 PUSH4 0x79F9A91C EQ PUSH2 0x1CE0 JUMPI DUP3 PUSH4 0x7A193C31 EQ PUSH2 0x1CC0 JUMPI DUP3 PUSH4 0x7A4FF1D9 EQ PUSH2 0x1C9C JUMPI DUP3 PUSH4 0x7A727FE8 EQ PUSH2 0x1C7C JUMPI DUP3 PUSH4 0x7AF5758C EQ PUSH2 0x1C58 JUMPI DUP3 PUSH4 0x7B21B274 EQ PUSH2 0x1C3B JUMPI DUP3 PUSH4 0x7CBA2383 EQ PUSH2 0x1C17 JUMPI DUP3 PUSH4 0x7D8E0314 EQ PUSH2 0x1BD8 JUMPI DUP3 PUSH4 0x7F01C715 EQ PUSH2 0x1BAE JUMPI DUP3 PUSH4 0x7F13B998 EQ PUSH2 0x1B78 JUMPI DUP3 PUSH4 0x7F4A4FE0 EQ PUSH2 0x1B58 JUMPI DUP3 PUSH4 0x826FCD58 EQ PUSH2 0x1B35 JUMPI DUP3 PUSH4 0x842D5748 EQ PUSH2 0x1B1A JUMPI DUP3 PUSH4 0x8456CB59 EQ PUSH2 0x1A85 JUMPI DUP3 PUSH4 0x85BF9593 EQ PUSH2 0x1A3F JUMPI DUP3 PUSH4 0x883D21CB EQ PUSH2 0x197E JUMPI DUP3 PUSH4 0x89FD503E EQ PUSH2 0x1964 JUMPI DUP3 PUSH4 0x8ACC2011 EQ PUSH2 0x194A JUMPI DUP3 PUSH4 0x8CFA4241 EQ PUSH2 0x192A JUMPI DUP3 PUSH4 0x8E2BDB86 EQ PUSH2 0x1900 JUMPI DUP3 PUSH4 0x8F1A383A EQ PUSH2 0x18D8 JUMPI DUP3 PUSH4 0x9853C35A EQ PUSH2 0x18AE JUMPI DUP3 PUSH4 0x98B2086F EQ PUSH2 0x1894 JUMPI DUP3 PUSH4 0x9ABB14C9 EQ PUSH2 0x1875 JUMPI DUP3 PUSH4 0x9AD6659D EQ PUSH2 0x183F JUMPI DUP3 PUSH4 0x9BEA71A4 EQ PUSH2 0x17FD JUMPI DUP3 PUSH4 0x9CABFC00 EQ PUSH2 0x17B1 JUMPI DUP3 PUSH4 0x9FD0506D EQ PUSH2 0x1784 JUMPI DUP3 PUSH4 0x9FD8ED0E EQ PUSH2 0x176A JUMPI DUP3 PUSH4 0xA8E9AC30 EQ PUSH2 0x1747 JUMPI DUP3 PUSH4 0xAAF91EFF EQ PUSH2 0x172A JUMPI DUP3 PUSH4 0xAAF925F6 EQ PUSH2 0x170F JUMPI DUP3 PUSH4 0xAC0C88AB EQ PUSH2 0x16F5 JUMPI DUP3 PUSH4 0xAD4E666D EQ PUSH2 0x1516 JUMPI DUP3 PUSH4 0xAEA038DC EQ PUSH2 0x14F6 JUMPI DUP3 PUSH4 0xAEB41E69 EQ PUSH2 0x14D9 JUMPI DUP3 PUSH4 0xB4434C32 EQ PUSH2 0x131B JUMPI DUP3 PUSH4 0xB5E9EA8C EQ PUSH2 0x12F1 JUMPI DUP3 PUSH4 0xB85EDD65 EQ PUSH2 0x12D7 JUMPI DUP3 PUSH4 0xB9FA6413 EQ PUSH2 0x12B7 JUMPI DUP3 PUSH4 0xBB4872DE EQ PUSH2 0x1293 JUMPI DUP3 PUSH4 0xBC4E55B2 EQ PUSH2 0x11C5 JUMPI DUP3 PUSH4 0xBECACA6B EQ PUSH2 0x11A1 JUMPI DUP3 PUSH4 0xBFE42621 EQ PUSH2 0xFA6 JUMPI DUP3 PUSH4 0xC00F538D EQ PUSH2 0xF82 JUMPI DUP3 PUSH4 0xC039CC69 EQ PUSH2 0xF40 JUMPI DUP3 PUSH4 0xC09C30BD EQ PUSH2 0xEF6 JUMPI DUP3 PUSH4 0xC239FCA4 EQ PUSH2 0xEDB JUMPI DUP3 PUSH4 0xC84353C9 EQ PUSH2 0xEB7 JUMPI DUP3 PUSH4 0xCF351C1D EQ PUSH2 0xE71 JUMPI DUP3 PUSH4 0xD1A0FAA0 EQ PUSH2 0xE58 JUMPI DUP3 PUSH4 0xD6AF11DA EQ PUSH2 0xE1C JUMPI DUP3 PUSH4 0xD76DC7FD EQ PUSH2 0xE02 JUMPI DUP3 PUSH4 0xD87AAB6F EQ PUSH2 0xDE2 JUMPI DUP3 PUSH4 0xD8C69AEC EQ PUSH2 0xCCC JUMPI DUP3 PUSH4 0xD8DB6F5A EQ PUSH2 0xC86 JUMPI DUP3 PUSH4 0xDB796072 EQ PUSH2 0xC49 JUMPI DUP3 PUSH4 0xDDB6D190 EQ PUSH2 0xC0C JUMPI DUP3 PUSH4 0xDE8D520A EQ PUSH2 0xBD9 JUMPI DUP3 PUSH4 0xE23C135C EQ PUSH2 0xBC0 JUMPI DUP3 PUSH4 0xE2C5E990 EQ PUSH2 0xB5F JUMPI DUP3 PUSH4 0xE3867EEB EQ PUSH2 0xB41 JUMPI DUP3 PUSH4 0xE4012945 EQ PUSH2 0xB0E JUMPI DUP3 PUSH4 0xE4C0AAF4 EQ PUSH2 0xAC9 JUMPI DUP3 PUSH4 0xE6A683E0 EQ PUSH2 0xA83 JUMPI DUP3 PUSH4 0xE6B1627C EQ PUSH2 0xA3F JUMPI DUP3 PUSH4 0xE7C25978 EQ PUSH2 0xA1A JUMPI DUP3 PUSH4 0xE8859A15 EQ PUSH2 0x9FD JUMPI DUP3 PUSH4 0xEA302A97 EQ PUSH2 0x9E2 JUMPI DUP3 PUSH4 0xEE1F438F EQ PUSH2 0x9B8 JUMPI DUP3 PUSH4 0xF13F4054 EQ PUSH2 0x98E JUMPI DUP3 PUSH4 0xF26114AA EQ PUSH2 0x929 JUMPI POP DUP2 PUSH4 0xF2808778 EQ PUSH2 0x906 JUMPI DUP2 PUSH4 0xF2F9F456 EQ PUSH2 0x8EC JUMPI DUP2 PUSH4 0xF30B5614 EQ PUSH2 0x8CD JUMPI DUP2 PUSH4 0xF375CFBA EQ PUSH2 0x8AE JUMPI DUP2 PUSH4 0xF88B1434 EQ PUSH2 0x845 JUMPI DUP2 PUSH4 0xFA6E83BD EQ PUSH2 0x826 JUMPI DUP2 PUSH4 0xFADDA424 EQ PUSH2 0x7AF JUMPI DUP2 PUSH4 0xFD80FA77 EQ PUSH2 0x794 JUMPI DUP2 PUSH4 0xFDA70F8B EQ PUSH2 0x771 JUMPI POP DUP1 PUSH4 0xFED0ADE4 EQ PUSH2 0x757 JUMPI PUSH4 0xFFE31539 EQ PUSH2 0x719 JUMPI PUSH1 0x0 DUP1 REVERT JUMPDEST PUSH1 0x60 CALLDATASIZE PUSH1 0x3 NOT ADD SLT PUSH2 0x752 JUMPI PUSH1 0x44 CALLDATALOAD SWAP1 PUSH1 0x1 PUSH1 0x1 PUSH1 0xA0 SHL SUB DUP3 AND DUP3 SUB PUSH2 0x752 JUMPI PUSH2 0x74B PUSH1 0x20 SWAP3 CALLER PUSH1 0x24 CALLDATALOAD PUSH1 0x4 CALLDATALOAD PUSH2 0x4D4A JUMP JUMPDEST SWAP1 MLOAD SWAP1 DUP2 MSTORE RETURN JUMPDEST PUSH1 0x0 DUP1 REVERT JUMPDEST PUSH1 0x20 DUP3 PUSH2 0x74B PUSH2 0x768 CALLDATASIZE PUSH1 0x4 PUSH2 0x3916 JUMP JUMPDEST SWAP3 SWAP2 SWAP1 SWAP2 PUSH2 0x4D4A JUMP JUMPDEST DUP3 CALLVALUE PUSH2 0x790 JUMPI DUP2 PUSH1 0x3 NOT CALLDATASIZE ADD SLT PUSH2 0x790 JUMPI PUSH1 0x20 SWAP1 PUSH2 0x13C SLOAD SWAP1 MLOAD SWAP1 DUP2 MSTORE RETURN JUMPDEST POP DUP1 REVERT JUMPDEST DUP3 PUSH2 0x74B PUSH1 0x20 SWAP3 PUSH2 0x7A6 CALLDATASIZE PUSH1 0x4 PUSH2 0x39D9 JUMP JUMPDEST SWAP4 SWAP3 SWAP1 SWAP3 PUSH2 0x54DF JUMP JUMPDEST SWAP1 POP CALLVALUE PUSH2 0x823 JUMPI PUSH1 0x20 CALLDATASIZE PUSH1 0x3 NOT ADD SLT PUSH2 0x823 JUMPI POP PUSH1 0x1 PUSH1 0x1 PUSH1 0xA0 SHL SUB PUSH1 0x4 CALLDATALOAD DUP2 DUP2 AND DUP2 SUB PUSH2 0x752 JUMPI PUSH2 0x7ED PUSH2 0x7E5 PUSH1 0x1 SWAP3 PUSH2 0x4464 JUMP JUMPDEST PUSH2 0x137 PUSH2 0x393C JUMP JUMPDEST POP ADD SLOAD AND PUSH2 0x7FA DUP2 PUSH2 0x4500 JUMP JUMPDEST SWAP2 SWAP1 SWAP2 ISZERO PUSH2 0x80C JUMPI POP PUSH1 0x20 SWAP2 MLOAD SWAP1 DUP2 MSTORE RETURN JUMPDEST PUSH1 0x24 SWAP1 DUP4 MLOAD SWAP1 PUSH4 0x7F6E4DB9 PUSH1 0xE0 SHL DUP3 MSTORE PUSH1 0x4 DUP3 ADD MSTORE REVERT JUMPDEST DUP1 REVERT JUMPDEST DUP3 CALLVALUE PUSH2 0x790 JUMPI DUP2 PUSH1 0x3 NOT CALLDATASIZE ADD SLT PUSH2 0x790 JUMPI PUSH1 0x20 SWAP1 PUSH2 0x13A SLOAD SWAP1 MLOAD SWAP1 DUP2 MSTORE RETURN JUMPDEST SWAP1 POP CALLVALUE PUSH2 0x823 JUMPI PUSH1 0x20 CALLDATASIZE PUSH1 0x3 NOT ADD SLT PUSH2 0x823 JUMPI POP PUSH1 0x4 CALLDATALOAD SWAP1 PUSH1 0x1 PUSH1 0x1 PUSH1 0xA0 SHL SUB DUP3 AND DUP3 SUB PUSH2 0x752 JUMPI PUSH2 0x74B PUSH2 0x8A0 PUSH1 0x20 SWAP4 PUSH2 0x889 PUSH2 0x881 PUSH2 0x4BF3 JUMP JUMPDEST SWAP2 SWAP1 SWAP3 PUSH2 0x4464 JUMP JUMPDEST SWAP2 PUSH2 0x8A8 PUSH2 0x897 DUP5 DUP5 PUSH2 0x4163 JUMP JUMPDEST MLOAD SWAP5 DUP6 SWAP4 PUSH2 0x4177 JUMP JUMPDEST SWAP6 SWAP1 SWAP5 PUSH2 0x4B50 JUMP JUMPDEST SWAP1 PUSH2 0x4A4D JUMP JUMPDEST DUP3 CALLVALUE PUSH2 0x790 JUMPI DUP2 PUSH1 0x3 NOT CALLDATASIZE ADD SLT PUSH2 0x790 JUMPI PUSH1 0x20 SWAP1 PUSH2 0x141 SLOAD SWAP1 MLOAD SWAP1 DUP2 MSTORE RETURN JUMPDEST DUP3 CALLVALUE PUSH2 0x790 JUMPI DUP2 PUSH1 0x3 NOT CALLDATASIZE ADD SLT PUSH2 0x790 JUMPI PUSH1 0x20 SWAP1 PUSH2 0x131 SLOAD SWAP1 MLOAD SWAP1 DUP2 MSTORE RETURN JUMPDEST PUSH1 0x20 DUP4 PUSH2 0x74B PUSH2 0x8FD CALLDATASIZE PUSH1 0x4 PUSH2 0x39AC JUMP JUMPDEST SWAP3 SWAP2 CALLER SWAP3 PUSH2 0x4EC5 JUMP JUMPDEST CALLVALUE PUSH2 0x823 JUMPI PUSH1 0x20 CALLDATASIZE PUSH1 0x3 NOT ADD SLT PUSH2 0x823 JUMPI PUSH2 0x91F PUSH2 0x5C2F JUMP JUMPDEST PUSH1 0x4 CALLDATALOAD PUSH2 0x13C SSTORE DUP1 RETURN JUMPDEST DUP4 SWAP1 CALLVALUE PUSH2 0x98A JUMPI CALLDATASIZE PUSH1 0x3 NOT ADD SLT PUSH2 0x790 JUMPI PUSH2 0x986 SWAP1 PUSH2 0x946 PUSH2 0x5C2F JUMP JUMPDEST MLOAD PUSH4 0x79308A55 PUSH1 0xE1 SHL PUSH1 0x20 DUP3 ADD MSTORE PUSH2 0x974 DUP2 PUSH2 0x966 PUSH1 0x4 PUSH1 0x24 DUP4 ADD PUSH2 0x4959 JUMP JUMPDEST SUB PUSH1 0x1F NOT DUP2 ADD DUP4 MSTORE DUP3 PUSH2 0x3958 JUMP JUMPDEST PUSH2 0x1F6 SLOAD PUSH1 0x1 PUSH1 0x1 PUSH1 0xA0 SHL SUB AND PUSH2 0x4826 JUMP JUMPDEST POP DUP1 RETURN JUMPDEST DUP3 DUP1 REVERT JUMPDEST POP DUP3 CALLVALUE PUSH2 0x790 JUMPI DUP2 PUSH1 0x3 NOT CALLDATASIZE ADD SLT PUSH2 0x790 JUMPI PUSH2 0x130 SLOAD SWAP1 MLOAD PUSH1 0x1 PUSH1 0x1 PUSH1 0xA0 SHL SUB SWAP1 SWAP2 AND DUP2 MSTORE PUSH1 0x20 SWAP1 RETURN JUMPDEST POP DUP3 CALLVALUE PUSH2 0x790 JUMPI DUP2 PUSH1 0x3 NOT CALLDATASIZE ADD SLT PUSH2 0x790 JUMPI PUSH2 0x152 SLOAD SWAP1 MLOAD PUSH1 0x1 PUSH1 0x1 PUSH1 0xA0 SHL SUB SWAP1 SWAP2 AND DUP2 MSTORE PUSH1 0x20 SWAP1 RETURN JUMPDEST PUSH1 0x20 DUP5 PUSH2 0x74B DUP5 PUSH2 0x9F4 CALLDATASIZE PUSH1 0x4 PUSH2 0x39D9 JUMP JUMPDEST SWAP4 SWAP3 SWAP1 SWAP3 PUSH2 0x5145 JUMP JUMPDEST POP DUP3 CALLVALUE PUSH2 0x790 JUMPI DUP2 PUSH1 0x3 NOT CALLDATASIZE ADD SLT PUSH2 0x790 JUMPI PUSH1 0x20 SWAP1 PUSH2 0x74B PUSH2 0x4B13 JUMP JUMPDEST POP DUP3 CALLVALUE PUSH2 0x790 JUMPI DUP2 PUSH1 0x3 NOT CALLDATASIZE ADD SLT PUSH2 0x790 JUMPI PUSH1 0x20 SWAP1 PUSH1 0xFF PUSH2 0x14B SLOAD AND SWAP1 MLOAD SWAP1 ISZERO ISZERO DUP2 MSTORE RETURN JUMPDEST POP DUP3 CALLVALUE PUSH2 0x790 JUMPI PUSH1 0x20 CALLDATASIZE PUSH1 0x3 NOT ADD SLT PUSH2 0x790 JUMPI PUSH1 0x4 CALLDATALOAD PUSH2 0x18E DUP1 SLOAD DUP3 LT ISZERO PUSH2 0xA7F JUMPI SWAP1 PUSH2 0xA6B SWAP2 PUSH2 0x393C JUMP JUMPDEST POP PUSH1 0x1 DUP2 SLOAD SWAP2 ADD SLOAD DUP3 MLOAD SWAP2 DUP3 MSTORE PUSH1 0x20 DUP3 ADD MSTORE RETURN JUMPDEST DUP4 DUP1 REVERT JUMPDEST POP CALLVALUE PUSH2 0x823 JUMPI PUSH1 0x20 CALLDATASIZE PUSH1 0x3 NOT ADD SLT PUSH2 0x823 JUMPI PUSH1 0x4 CALLDATALOAD PUSH1 0x1 PUSH1 0x1 PUSH1 0xA0 SHL SUB DUP2 AND SWAP1 DUP2 SWAP1 SUB PUSH2 0x752 JUMPI PUSH2 0xAB2 PUSH2 0x5C2F JUMP JUMPDEST PUSH2 0x1F6 DUP1 SLOAD PUSH1 0x1 PUSH1 0x1 PUSH1 0xA0 SHL SUB NOT AND SWAP1 SWAP2 OR SWAP1 SSTORE DUP1 RETURN JUMPDEST POP CALLVALUE PUSH2 0x823 JUMPI PUSH1 0x20 CALLDATASIZE PUSH1 0x3 NOT ADD SLT PUSH2 0x823 JUMPI PUSH1 0x4 CALLDATALOAD PUSH1 0x1 PUSH1 0x1 PUSH1 0xA0 SHL SUB DUP2 AND SWAP1 DUP2 SWAP1 SUB PUSH2 0x790 JUMPI PUSH2 0xAF8 PUSH2 0x5C2F JUMP JUMPDEST PUSH1 0x1 PUSH1 0x1 PUSH1 0x60 SHL SUB PUSH1 0xA0 SHL PUSH1 0x97 SLOAD AND OR PUSH1 0x97 SSTORE DUP1 RETURN JUMPDEST POP DUP3 PUSH1 0x60 CALLDATASIZE PUSH1 0x3 NOT ADD SLT PUSH2 0x752 JUMPI PUSH1 0x44 CALLDATALOAD PUSH1 0x1 PUSH1 0x1 PUSH1 0xA0 SHL SUB DUP2 AND DUP2 SUB PUSH2 0x752 JUMPI PUSH1 0x20 SWAP3 PUSH2 0x74B SWAP2 PUSH1 0x24 CALLDATALOAD PUSH1 0x4 CALLDATALOAD PUSH2 0x531D JUMP JUMPDEST PUSH1 0x20 DUP5 PUSH2 0x74B DUP5 PUSH2 0xB53 CALLDATASIZE PUSH1 0x4 PUSH2 0x3A0B JUMP JUMPDEST SWAP5 SWAP4 SWAP1 SWAP4 SWAP3 SWAP2 SWAP3 PUSH2 0x4FF8 JUMP JUMPDEST DUP4 DUP3 CALLVALUE PUSH2 0x823 JUMPI PUSH1 0x60 CALLDATASIZE PUSH1 0x3 NOT ADD SLT PUSH2 0x823 JUMPI PUSH1 0x1 PUSH1 0x1 PUSH1 0xA0 SHL SUB PUSH1 0x4 CALLDATALOAD DUP2 DUP2 AND DUP2 SUB PUSH2 0x752 JUMPI PUSH1 0x24 CALLDATALOAD SWAP2 DUP1 DUP4 AND DUP4 SUB PUSH2 0xA7F JUMPI PUSH2 0x14F SLOAD AND CALLER SUB PUSH2 0xBAF JUMPI SWAP1 PUSH2 0xBAC SWAP2 PUSH1 0x44 CALLDATALOAD SWAP2 PUSH2 0x5BF6 JUMP JUMPDEST DUP1 RETURN JUMPDEST DUP4 MLOAD PUSH4 0x19748477 PUSH1 0xE0 SHL DUP2 MSTORE PUSH1 0x4 SWAP1 REVERT JUMPDEST POP CALLVALUE PUSH2 0x823 JUMPI DUP1 PUSH1 0x3 NOT CALLDATASIZE ADD SLT PUSH2 0x823 JUMPI PUSH2 0xBAC PUSH2 0x409E JUMP JUMPDEST POP DUP3 CALLVALUE PUSH2 0x790 JUMPI DUP2 PUSH1 0x3 NOT CALLDATASIZE ADD SLT PUSH2 0x790 JUMPI PUSH1 0x20 SWAP1 PUSH2 0x74B PUSH2 0xC01 PUSH2 0xBFC PUSH2 0x4566 JUMP JUMPDEST PUSH2 0x4177 JUMP JUMPDEST SWAP1 POP PUSH2 0x131 SLOAD PUSH2 0x407B JUMP JUMPDEST POP DUP3 CALLVALUE PUSH2 0x790 JUMPI PUSH1 0x20 CALLDATASIZE PUSH1 0x3 NOT ADD SLT PUSH2 0x790 JUMPI PUSH1 0x4 CALLDATALOAD PUSH1 0x1 PUSH1 0x1 PUSH1 0xA0 SHL SUB DUP2 AND SWAP1 DUP2 SWAP1 SUB PUSH2 0x752 JUMPI DUP3 DUP3 SWAP2 PUSH1 0x20 SWAP5 MSTORE PUSH2 0x145 DUP5 MSTORE KECCAK256 SLOAD SWAP1 MLOAD SWAP1 DUP2 MSTORE RETURN JUMPDEST DUP4 SWAP1 CALLVALUE PUSH2 0x98A JUMPI CALLDATASIZE PUSH1 0x3 NOT ADD SLT PUSH2 0x790 JUMPI PUSH2 0x986 SWAP1 PUSH2 0xC66 PUSH2 0x5C2F JUMP JUMPDEST MLOAD PUSH4 0x6DBCB039 PUSH1 0xE1 SHL PUSH1 0x20 DUP3 ADD MSTORE PUSH2 0x974 DUP2 PUSH2 0x966 PUSH1 0x4 PUSH1 0x24 DUP4 ADD PUSH2 0x4959 JUMP JUMPDEST POP CALLVALUE PUSH2 0x823 JUMPI PUSH1 0x20 CALLDATASIZE PUSH1 0x3 NOT ADD SLT PUSH2 0x823 JUMPI PUSH1 0x4 CALLDATALOAD PUSH1 0x1 PUSH1 0x1 PUSH1 0xA0 SHL SUB DUP2 AND SWAP1 DUP2 SWAP1 SUB PUSH2 0x752 JUMPI PUSH2 0xCB5 PUSH2 0x5C2F JUMP JUMPDEST PUSH2 0x152 DUP1 SLOAD PUSH1 0x1 PUSH1 0x1 PUSH1 0xA0 SHL SUB NOT AND SWAP1 SWAP2 OR SWAP1 SSTORE DUP1 RETURN JUMPDEST SWAP1 SWAP2 POP CALLVALUE PUSH2 0x790 JUMPI CALLDATASIZE PUSH1 0x3 NOT ADD SLT PUSH2 0x823 JUMPI POP PUSH2 0xCE7 PUSH2 0x55CA JUMP JUMPDEST POP PUSH2 0x14F SLOAD PUSH1 0x1 PUSH1 0x1 PUSH1 0xA0 SHL SUB SWAP2 SWAP1 DUP3 AND CALLER SUB PUSH2 0xDD2 JUMPI PUSH2 0xD97 SWAP2 PUSH2 0xD0D CALLDATASIZE PUSH1 0x4 PUSH2 0x5B83 JUMP JUMPDEST SWAP2 PUSH2 0xD16 PUSH2 0x55CA JUMP JUMPDEST POP PUSH2 0xD1F PUSH2 0x4EA3 JUMP JUMPDEST PUSH2 0xD27 PUSH2 0x5CBD JUMP JUMPDEST PUSH2 0xD73 PUSH2 0xD64 DUP3 MLOAD PUSH4 0x3DAD0BD7 PUSH1 0xE1 SHL PUSH1 0x20 DUP3 ADD MSTORE PUSH2 0xD49 PUSH1 0x24 DUP3 ADD DUP8 PUSH2 0x51EB JUMP JUMPDEST PUSH1 0xE4 DUP2 MSTORE PUSH2 0xD59 PUSH2 0x104 DUP3 PUSH2 0x3958 JUMP JUMPDEST DUP5 PUSH2 0x1F6 SLOAD AND PUSH2 0x4826 JUMP JUMPDEST PUSH1 0x20 DUP1 DUP3 MLOAD DUP4 ADD ADD SWAP2 ADD PUSH2 0x5B28 JUMP JUMPDEST DUP7 DUP5 DUP8 PUSH1 0x80 DUP5 SWAP9 SWAP7 SWAP12 SWAP6 SWAP8 SWAP11 ADD MLOAD AND SWAP2 DUP9 PUSH1 0xC0 DUP2 PUSH1 0xA0 DUP5 ADD MLOAD AND SWAP3 ADD MLOAD AND SWAP3 PUSH2 0x5934 JUMP JUMPDEST PUSH1 0x4 CALLDATALOAD SWAP4 DUP1 DUP6 AND DUP1 SWAP6 SUB PUSH2 0x752 JUMPI PUSH1 0x84 CALLDATALOAD SWAP1 DUP2 AND DUP2 SUB PUSH2 0x752 JUMPI PUSH2 0xDCE SWAP5 PUSH2 0xDC4 SWAP2 DUP9 PUSH1 0x44 CALLDATALOAD SUB SWAP2 PUSH2 0x5BF6 JUMP JUMPDEST MLOAD SWAP5 DUP6 SWAP5 DUP6 PUSH2 0x38D6 JUMP JUMPDEST SUB SWAP1 RETURN JUMPDEST MLOAD PUSH4 0x19748477 PUSH1 0xE0 SHL DUP2 MSTORE PUSH1 0x4 SWAP1 REVERT JUMPDEST POP DUP3 CALLVALUE PUSH2 0x790 JUMPI DUP2 PUSH1 0x3 NOT CALLDATASIZE ADD SLT PUSH2 0x790 JUMPI PUSH1 0x20 SWAP1 PUSH2 0x155 SLOAD SWAP1 MLOAD SWAP1 DUP2 MSTORE RETURN JUMPDEST PUSH1 0x20 DUP5 PUSH2 0x74B PUSH2 0xE13 CALLDATASIZE PUSH1 0x4 PUSH2 0x3A4B JUMP JUMPDEST SWAP4 SWAP3 SWAP1 SWAP3 PUSH2 0x4F7F JUMP JUMPDEST POP DUP3 CALLVALUE PUSH2 0x790 JUMPI DUP2 PUSH1 0x3 NOT CALLDATASIZE ADD SLT PUSH2 0x790 JUMPI PUSH1 0x20 SWAP1 PUSH2 0x74B PUSH2 0xE3E PUSH1 0x1 PUSH2 0x45A0 JUMP JUMPDEST PUSH2 0xE52 PUSH2 0xE4B DUP3 DUP5 PUSH2 0x42BB JUMP JUMPDEST SWAP2 DUP4 PUSH2 0x4205 JUMP JUMPDEST SWAP2 PUSH2 0x45E7 JUMP JUMPDEST POP CALLVALUE PUSH2 0x823 JUMPI DUP1 PUSH1 0x3 NOT CALLDATASIZE ADD SLT PUSH2 0x823 JUMPI PUSH2 0xBAC PUSH2 0x4CB6 JUMP JUMPDEST POP CALLVALUE PUSH2 0x823 JUMPI PUSH1 0x20 CALLDATASIZE PUSH1 0x3 NOT ADD SLT PUSH2 0x823 JUMPI PUSH1 0x4 CALLDATALOAD PUSH1 0x1 PUSH1 0x1 PUSH1 0xA0 SHL SUB DUP2 AND SWAP1 DUP2 SWAP1 SUB PUSH2 0x752 JUMPI PUSH2 0xEA0 PUSH2 0x5C2F JUMP JUMPDEST PUSH2 0x12F DUP1 SLOAD PUSH1 0x1 PUSH1 0x1 PUSH1 0xA0 SHL SUB NOT AND SWAP1 SWAP2 OR SWAP1 SSTORE DUP1 RETURN JUMPDEST POP CALLVALUE PUSH2 0x823 JUMPI PUSH1 0x20 CALLDATASIZE PUSH1 0x3 NOT ADD SLT PUSH2 0x823 JUMPI PUSH2 0xED1 PUSH2 0x5C2F JUMP JUMPDEST PUSH1 0x4 CALLDATALOAD PUSH2 0x14C SSTORE DUP1 RETURN JUMPDEST PUSH1 0x20 DUP5 PUSH2 0x74B DUP5 PUSH2 0xEED CALLDATASIZE PUSH1 0x4 PUSH2 0x39AC JUMP JUMPDEST SWAP3 SWAP2 SWAP1 SWAP2 PUSH2 0x4F7F JUMP JUMPDEST POP DUP3 PUSH1 0xA0 CALLDATASIZE PUSH1 0x3 NOT ADD SLT PUSH2 0x790 JUMPI PUSH1 0x1 PUSH1 0x1 PUSH1 0xA0 SHL SUB SWAP2 PUSH1 0x4 CALLDATALOAD SWAP1 DUP4 DUP3 AND DUP3 SUB PUSH2 0x752 JUMPI PUSH1 0x24 CALLDATALOAD SWAP4 DUP5 AND DUP5 SUB PUSH2 0x752 JUMPI PUSH1 0x20 SWAP4 PUSH2 0x74B SWAP3 CALLER SWAP2 PUSH1 0x84 CALLDATALOAD SWAP2 PUSH1 0x64 CALLDATALOAD SWAP2 PUSH1 0x44 CALLDATALOAD SWAP2 PUSH2 0x4FF8 JUMP JUMPDEST POP DUP3 CALLVALUE PUSH2 0x790 JUMPI DUP2 PUSH1 0x3 NOT CALLDATASIZE ADD SLT PUSH2 0x790 JUMPI PUSH1 0x20 SWAP1 PUSH2 0x74B PUSH2 0xF75 PUSH2 0xF7C PUSH2 0xF69 PUSH2 0xBFC PUSH2 0x4566 JUMP JUMPDEST PUSH2 0x131 SWAP4 SWAP2 SWAP4 SLOAD PUSH2 0x407B JUMP JUMPDEST SWAP2 DUP3 PUSH2 0x407B JUMP JUMPDEST SWAP1 PUSH2 0x5CDE JUMP JUMPDEST POP CALLVALUE PUSH2 0x823 JUMPI PUSH1 0x20 CALLDATASIZE PUSH1 0x3 NOT ADD SLT PUSH2 0x823 JUMPI PUSH2 0xF9C PUSH2 0x5C2F JUMP JUMPDEST PUSH1 0x4 CALLDATALOAD PUSH2 0x13D SSTORE DUP1 RETURN JUMPDEST DUP4 DUP3 CALLVALUE PUSH2 0x823 JUMPI PUSH1 0xA0 CALLDATASIZE PUSH1 0x3 NOT ADD SLT PUSH2 0x823 JUMPI PUSH2 0xFC1 PUSH2 0x55CA JUMP JUMPDEST POP PUSH2 0x14F SLOAD PUSH1 0x1 PUSH1 0x1 PUSH1 0xA0 SHL SUB SWAP1 DUP2 AND CALLER SUB PUSH2 0x1190 JUMPI PUSH2 0xFE2 CALLDATASIZE PUSH1 0x4 PUSH2 0x55F1 JUMP JUMPDEST SWAP2 PUSH2 0xFEB PUSH2 0x55CA JUMP JUMPDEST POP PUSH2 0xFF4 PUSH2 0x4EA3 JUMP JUMPDEST PUSH2 0xFFC PUSH2 0x5CBD JUMP JUMPDEST PUSH2 0x1004 PUSH2 0x4CB6 JUMP JUMPDEST PUSH2 0x1017 PUSH2 0x100F PUSH2 0x4BF3 JUMP JUMPDEST DUP2 SWAP3 SWAP2 PUSH2 0x564E JUMP JUMPDEST SWAP1 SWAP2 PUSH2 0x1026 DUP3 DUP5 DUP9 MLOAD SWAP4 PUSH2 0x49EE JUMP JUMPDEST DUP2 DUP2 LT PUSH2 0x1173 JUMPI POP POP PUSH8 0xDE0B6B3A7640000 SWAP2 PUSH2 0x1048 PUSH2 0x104E SWAP3 DUP8 MLOAD SWAP3 PUSH2 0x49BA JUMP JUMPDEST SWAP1 PUSH2 0x4288 JUMP JUMPDEST DIV SWAP2 DUP3 ISZERO PUSH2 0x1162 JUMPI SWAP4 DUP4 SWAP5 DUP2 PUSH2 0x1087 SWAP6 ADD SWAP1 DUP1 DUP3 MLOAD AND SWAP2 PUSH2 0x107C PUSH1 0x80 DUP10 ADD SWAP4 DUP8 DUP5 DUP7 MLOAD AND PUSH2 0x13D SLOAD SWAP3 PUSH2 0x5691 JUMP JUMPDEST SWAP7 SWAP2 DUP9 SWAP10 SWAP2 SWAP10 PUSH2 0x407B JUMP JUMPDEST SWAP7 PUSH1 0x20 DUP11 ADD MLOAD DUP1 DUP10 LT PUSH2 0x1145 JUMPI POP DUP10 MLOAD SWAP1 PUSH2 0x134 PUSH2 0x10A6 DUP4 DUP3 SLOAD PUSH2 0x407B JUMP JUMPDEST SWAP1 SSTORE PUSH2 0x10B6 PUSH2 0x131 SWAP2 DUP3 SLOAD PUSH2 0x407B JUMP JUMPDEST SWAP1 SSTORE DUP4 PUSH2 0x133 SLOAD AND SWAP1 DUP2 EXTCODESIZE ISZERO PUSH2 0x98A JUMPI DUP7 MLOAD PUSH4 0x2770A7EB PUSH1 0xE2 SHL DUP2 MSTORE ADDRESS PUSH1 0x4 DUP3 ADD MSTORE PUSH1 0x24 DUP2 ADD SWAP2 SWAP1 SWAP2 MSTORE SWAP1 DUP3 SWAP1 DUP3 SWAP1 PUSH1 0x44 SWAP1 DUP3 SWAP1 DUP5 SWAP1 GAS CALL DUP1 ISZERO PUSH2 0x113B JUMPI PUSH2 0x1126 JUMPI JUMPDEST POP POP SWAP7 DUP6 PUSH2 0x111C SWAP4 DUP4 DUP1 PUSH1 0x60 DUP10 SWAP7 PUSH2 0xDCE SWAP12 SWAP13 SWAP14 MLOAD AND SWAP6 ADD MLOAD AND SWAP2 MLOAD AND SWAP3 PUSH2 0x5934 JUMP JUMPDEST MLOAD SWAP4 DUP5 SWAP4 DUP5 PUSH2 0x386F JUMP JUMPDEST PUSH2 0x1131 DUP3 DUP1 SWAP3 PUSH2 0x3958 JUMP JUMPDEST PUSH2 0x823 JUMPI DUP1 PUSH2 0x10F9 JUMP JUMPDEST DUP7 MLOAD RETURNDATASIZE DUP5 DUP3 RETURNDATACOPY RETURNDATASIZE SWAP1 REVERT JUMPDEST PUSH1 0x44 SWAP1 DUP10 DUP9 MLOAD SWAP2 PUSH4 0x54CDE313 PUSH1 0xE0 SHL DUP4 MSTORE PUSH1 0x4 DUP4 ADD MSTORE PUSH1 0x24 DUP3 ADD MSTORE REVERT JUMPDEST DUP5 MLOAD PUSH4 0xF3E39B5D PUSH1 0xE0 SHL DUP2 MSTORE PUSH1 0x4 SWAP1 REVERT JUMPDEST PUSH1 0x44 SWAP3 POP DUP8 MLOAD SWAP2 PUSH4 0xA5DB715D PUSH1 0xE0 SHL DUP4 MSTORE PUSH1 0x4 DUP4 ADD MSTORE PUSH1 0x24 DUP3 ADD MSTORE REVERT JUMPDEST DUP3 MLOAD PUSH4 0x19748477 PUSH1 0xE0 SHL DUP2 MSTORE PUSH1 0x4 SWAP1 REVERT JUMPDEST POP CALLVALUE PUSH2 0x823 JUMPI PUSH1 0x20 CALLDATASIZE PUSH1 0x3 NOT ADD SLT PUSH2 0x823 JUMPI PUSH2 0x11BB PUSH2 0x5C2F JUMP JUMPDEST PUSH1 0x4 CALLDATALOAD PUSH2 0x139 SSTORE DUP1 RETURN JUMPDEST SWAP1 SWAP2 POP CALLVALUE PUSH2 0x790 JUMPI CALLDATASIZE PUSH1 0x3 NOT ADD SLT PUSH2 0x823 JUMPI POP PUSH2 0x11E0 PUSH2 0x55CA JUMP JUMPDEST POP PUSH2 0x14F SLOAD PUSH1 0x1 PUSH1 0x1 PUSH1 0xA0 SHL SUB SWAP1 DUP2 AND CALLER SUB PUSH2 0x1282 JUMPI PUSH2 0xDCE PUSH2 0xDC4 SWAP2 PUSH2 0x1208 CALLDATASIZE PUSH1 0x4 PUSH2 0x5B83 JUMP JUMPDEST SWAP4 PUSH2 0x1211 PUSH2 0x55CA JUMP JUMPDEST POP PUSH2 0x121A PUSH2 0x4EA3 JUMP JUMPDEST PUSH2 0x1222 PUSH2 0x5CBD JUMP JUMPDEST PUSH2 0x1244 PUSH2 0xD64 DUP3 MLOAD PUSH4 0xF5571E01 PUSH1 0xE0 SHL PUSH1 0x20 DUP3 ADD MSTORE PUSH2 0xD49 PUSH1 0x24 DUP3 ADD DUP10 PUSH2 0x51EB JUMP JUMPDEST SWAP5 DUP9 PUSH1 0x60 DUP8 SWAP4 SWAP7 SWAP6 SWAP10 SWAP5 SWAP11 ADD SWAP2 DUP3 MLOAD PUSH2 0x1261 PUSH2 0x14E SWAP2 DUP3 SLOAD PUSH2 0x407B JUMP JUMPDEST SWAP1 SSTORE PUSH1 0xC0 PUSH2 0x1277 DUP12 DUP4 PUSH1 0x80 DUP7 ADD MLOAD AND SWAP6 MLOAD PUSH2 0x407B JUMP JUMPDEST SWAP3 ADD MLOAD AND SWAP2 DUP1 PUSH2 0x5934 JUMP JUMPDEST DUP2 MLOAD PUSH4 0x19748477 PUSH1 0xE0 SHL DUP2 MSTORE PUSH1 0x4 SWAP1 REVERT JUMPDEST POP DUP3 CALLVALUE PUSH2 0x790 JUMPI DUP2 PUSH1 0x3 NOT CALLDATASIZE ADD SLT PUSH2 0x790 JUMPI PUSH1 0x20 SWAP1 PUSH1 0xFF PUSH1 0xCA SLOAD AND SWAP1 MLOAD SWAP1 ISZERO ISZERO DUP2 MSTORE RETURN JUMPDEST POP DUP3 CALLVALUE PUSH2 0x790 JUMPI DUP2 PUSH1 0x3 NOT CALLDATASIZE ADD SLT PUSH2 0x790 JUMPI PUSH1 0x20 SWAP1 PUSH2 0x15B SLOAD SWAP1 MLOAD SWAP1 DUP2 MSTORE RETURN JUMPDEST PUSH1 0x20 DUP5 PUSH2 0x74B DUP5 PUSH2 0x12E9 CALLDATASIZE PUSH1 0x4 PUSH2 0x38AD JUMP JUMPDEST SWAP2 CALLER SWAP4 PUSH2 0x523B JUMP JUMPDEST POP DUP3 CALLVALUE PUSH2 0x790 JUMPI DUP2 PUSH1 0x3 NOT CALLDATASIZE ADD SLT PUSH2 0x790 JUMPI PUSH2 0x153 SLOAD SWAP1 MLOAD PUSH1 0x1 PUSH1 0x1 PUSH1 0xA0 SHL SUB SWAP1 SWAP2 AND DUP2 MSTORE PUSH1 0x20 SWAP1 RETURN JUMPDEST DUP4 DUP3 CALLVALUE PUSH2 0x823 JUMPI PUSH1 0xC0 CALLDATASIZE PUSH1 0x3 NOT ADD SLT PUSH2 0x823 JUMPI PUSH2 0x1336 PUSH2 0x55CA JUMP JUMPDEST POP PUSH2 0x14F SLOAD PUSH1 0x1 PUSH1 0x1 PUSH1 0xA0 SHL SUB SWAP3 SWAP1 DUP4 AND CALLER SUB PUSH2 0xDD2 JUMPI PUSH2 0x13D0 PUSH2 0x135B CALLDATASIZE PUSH1 0x4 PUSH2 0x59ED JUMP JUMPDEST SWAP2 PUSH2 0x1364 PUSH2 0x55CA JUMP JUMPDEST POP PUSH2 0x136D PUSH2 0x4EA3 JUMP JUMPDEST PUSH2 0x1375 PUSH2 0x5CBD JUMP JUMPDEST PUSH2 0x137D PUSH2 0x4CB6 JUMP JUMPDEST PUSH2 0x1385 PUSH2 0x4BF3 JUMP JUMPDEST PUSH2 0x1394 DUP8 DUP7 SWAP6 SWAP4 SWAP6 MLOAD AND PUSH2 0x4464 JUMP JUMPDEST SWAP4 PUSH2 0x13B4 PUSH2 0x13A2 DUP7 DUP5 PUSH2 0x4163 JUMP JUMPDEST MLOAD SWAP3 PUSH2 0x13AE DUP5 DUP9 PUSH2 0x4908 JUMP JUMPDEST DUP3 PUSH2 0x564E JUMP JUMPDEST PUSH1 0x20 DUP9 SWAP6 SWAP3 SWAP6 ADD SWAP5 DUP5 DUP7 MLOAD SWAP5 PUSH2 0x13CA DUP3 DUP12 PUSH2 0x4B50 JUMP JUMPDEST SWAP1 PUSH2 0x5A56 JUMP JUMPDEST DUP2 DUP2 LT PUSH2 0x14BC JUMPI POP POP SWAP5 DUP1 SWAP7 PUSH2 0x13EA PUSH2 0x1422 SWAP8 DUP5 MLOAD PUSH2 0x5CDE JUMP JUMPDEST SWAP5 PUSH1 0x60 DUP8 ADD SWAP1 PUSH2 0x1417 DUP4 DUP4 MLOAD AND DUP9 DUP11 DUP10 PUSH1 0xA0 DUP3 ADD SWAP9 DUP9 DUP1 DUP12 MLOAD AND SWAP4 MLOAD AND DUP2 MSTORE PUSH2 0x144 PUSH1 0x20 MSTORE KECCAK256 SLOAD SWAP3 PUSH2 0x5691 JUMP JUMPDEST SWAP9 SWAP2 DUP3 SWAP12 SWAP2 SWAP12 PUSH2 0x4156 JUMP JUMPDEST SWAP9 DUP8 DUP2 ADD SWAP7 DUP8 MLOAD DUP1 DUP13 GT PUSH2 0x149F JUMPI POP DUP11 ISZERO PUSH2 0x148E JUMPI SWAP5 DUP10 SWAP7 SWAP5 PUSH2 0x1469 DUP3 SWAP6 DUP14 SWAP15 SWAP16 SWAP6 PUSH2 0xDCE SWAP15 SWAP6 DUP6 PUSH1 0x80 PUSH2 0x111C SWAP15 SWAP13 PUSH2 0x145E PUSH2 0x1484 SWAP12 DUP7 PUSH2 0x5A6E JUMP JUMPDEST MLOAD SWAP3 ADD MLOAD AND SWAP3 PUSH2 0x4848 JUMP JUMPDEST DUP7 MLOAD PUSH2 0x1479 PUSH2 0x14E SWAP2 DUP3 SLOAD PUSH2 0x407B JUMP JUMPDEST SWAP1 SSTORE MLOAD AND SWAP5 MLOAD PUSH2 0x407B JUMP JUMPDEST SWAP2 MLOAD AND SWAP2 DUP1 PUSH2 0x5934 JUMP JUMPDEST DUP9 MLOAD PUSH4 0xF3E39B5D PUSH1 0xE0 SHL DUP2 MSTORE PUSH1 0x4 SWAP1 REVERT JUMPDEST PUSH1 0x44 SWAP1 DUP13 DUP12 MLOAD SWAP2 PUSH4 0xB63F1A7 PUSH1 0xE0 SHL DUP4 MSTORE PUSH1 0x4 DUP4 ADD MSTORE PUSH1 0x24 DUP3 ADD MSTORE REVERT JUMPDEST PUSH1 0x44 SWAP3 POP DUP5 MLOAD SWAP2 PUSH4 0xC39B739F PUSH1 0xE0 SHL DUP4 MSTORE PUSH1 0x4 DUP4 ADD MSTORE PUSH1 0x24 DUP3 ADD MSTORE REVERT JUMPDEST PUSH1 0x20 DUP5 PUSH2 0x74B PUSH2 0x14EA CALLDATASIZE PUSH1 0x4 PUSH2 0x39D9 JUMP JUMPDEST SWAP4 SWAP3 SWAP2 SWAP1 SWAP2 CALLER SWAP4 PUSH2 0x54DF JUMP JUMPDEST POP DUP3 CALLVALUE PUSH2 0x790 JUMPI DUP2 PUSH1 0x3 NOT CALLDATASIZE ADD SLT PUSH2 0x790 JUMPI PUSH1 0x20 SWAP1 PUSH2 0x13D SLOAD SWAP1 MLOAD SWAP1 DUP2 MSTORE RETURN JUMPDEST DUP4 DUP3 CALLVALUE PUSH2 0x823 JUMPI PUSH1 0xC0 CALLDATASIZE PUSH1 0x3 NOT ADD SLT PUSH2 0x823 JUMPI PUSH2 0x1531 PUSH2 0x55CA JUMP JUMPDEST POP PUSH2 0x14F SLOAD PUSH1 0x1 PUSH1 0x1 PUSH1 0xA0 SHL SUB SWAP1 DUP2 AND CALLER SUB PUSH2 0x1190 JUMPI SWAP1 PUSH2 0x15F4 SWAP2 PUSH2 0x1557 CALLDATASIZE PUSH1 0x4 PUSH2 0x59ED JUMP JUMPDEST SWAP4 PUSH2 0x1560 PUSH2 0x55CA JUMP JUMPDEST POP PUSH2 0x1569 PUSH2 0x4EA3 JUMP JUMPDEST PUSH2 0x1571 PUSH2 0x5CBD JUMP JUMPDEST PUSH2 0x1579 PUSH2 0x4566 JUMP JUMPDEST SWAP3 PUSH2 0x1586 DUP4 DUP8 MLOAD AND PUSH2 0x4464 JUMP JUMPDEST SWAP3 PUSH2 0x15A9 PUSH2 0x1594 DUP6 DUP8 PUSH2 0x4163 JUMP JUMPDEST MLOAD SWAP6 PUSH2 0x15A0 DUP8 DUP8 PUSH2 0x4908 JUMP JUMPDEST PUSH2 0x149 SLOAD PUSH2 0x564E JUMP JUMPDEST POP POP PUSH2 0x15BA PUSH1 0x20 DUP9 ADD SWAP6 DUP7 MLOAD PUSH2 0x5CDE JUMP JUMPDEST SWAP2 PUSH1 0x60 DUP9 ADD SWAP1 DUP3 DUP3 MLOAD AND SWAP4 PUSH2 0x15E9 PUSH1 0xA0 DUP12 ADD SWAP6 DUP3 DUP13 DUP8 DUP1 DUP11 MLOAD AND SWAP2 MLOAD AND DUP7 MSTORE PUSH2 0x145 PUSH1 0x20 MSTORE DUP10 DUP7 KECCAK256 SLOAD SWAP3 PUSH2 0x5691 JUMP JUMPDEST SWAP9 SWAP2 DUP4 SWAP12 SWAP2 SWAP12 PUSH2 0x407B JUMP JUMPDEST SWAP9 DUP3 ISZERO PUSH2 0x16E4 JUMPI DUP8 DUP13 ADD MLOAD DUP1 DUP12 LT PUSH2 0x16C7 JUMPI POP DUP6 SWAP2 PUSH2 0x164C SWAP2 PUSH2 0x1618 PUSH1 0x1 DUP14 PUSH2 0x5A6E JUMP JUMPDEST MLOAD SWAP4 PUSH2 0x1626 DUP3 PUSH2 0x137 PUSH2 0x393C JUMP JUMPDEST POP PUSH2 0x1632 DUP7 DUP3 SLOAD PUSH2 0x407B JUMP JUMPDEST SWAP1 SSTORE PUSH2 0x1642 PUSH2 0x131 SWAP2 DUP3 SLOAD PUSH2 0x407B JUMP JUMPDEST SWAP1 SSTORE PUSH2 0x135 PUSH2 0x37EA JUMP JUMPDEST SWAP1 SLOAD SWAP1 PUSH1 0x3 SHL SHR AND SWAP1 DUP2 EXTCODESIZE ISZERO PUSH2 0x98A JUMPI DUP7 MLOAD PUSH4 0x2770A7EB PUSH1 0xE2 SHL DUP2 MSTORE ADDRESS PUSH1 0x4 DUP3 ADD MSTORE PUSH1 0x24 DUP2 ADD SWAP2 SWAP1 SWAP2 MSTORE SWAP1 DUP3 SWAP1 DUP3 SWAP1 PUSH1 0x44 SWAP1 DUP3 SWAP1 DUP5 SWAP1 GAS CALL DUP1 ISZERO PUSH2 0x113B JUMPI PUSH2 0x16B2 JUMPI JUMPDEST POP POP SWAP7 DUP6 PUSH2 0x111C SWAP4 DUP4 DUP1 PUSH1 0x80 DUP10 SWAP7 PUSH2 0xDCE SWAP12 SWAP13 SWAP14 MLOAD AND SWAP6 ADD MLOAD AND SWAP2 MLOAD AND SWAP3 PUSH2 0x5934 JUMP JUMPDEST PUSH2 0x16BD DUP3 DUP1 SWAP3 PUSH2 0x3958 JUMP JUMPDEST PUSH2 0x823 JUMPI DUP1 PUSH2 0x168F JUMP JUMPDEST PUSH1 0x44 SWAP1 DUP12 DUP11 MLOAD SWAP2 PUSH4 0x54CDE313 PUSH1 0xE0 SHL DUP4 MSTORE PUSH1 0x4 DUP4 ADD MSTORE PUSH1 0x24 DUP3 ADD MSTORE REVERT JUMPDEST DUP8 MLOAD PUSH4 0xF3E39B5D PUSH1 0xE0 SHL DUP2 MSTORE PUSH1 0x4 SWAP1 REVERT JUMPDEST PUSH1 0x20 DUP5 PUSH2 0x74B DUP5 PUSH2 0x1707 CALLDATASIZE PUSH1 0x4 PUSH2 0x38AD JUMP JUMPDEST SWAP2 CALLER SWAP4 PUSH2 0x5145 JUMP JUMPDEST PUSH1 0x20 DUP5 PUSH2 0x74B DUP5 PUSH2 0x1721 CALLDATASIZE PUSH1 0x4 PUSH2 0x39AC JUMP JUMPDEST SWAP3 SWAP2 SWAP1 SWAP2 PUSH2 0x4EC5 JUMP JUMPDEST PUSH1 0x20 DUP5 PUSH2 0x74B PUSH2 0x173B CALLDATASIZE PUSH1 0x4 PUSH2 0x39D9 JUMP JUMPDEST SWAP4 SWAP3 SWAP2 SWAP1 SWAP2 CALLER SWAP4 PUSH2 0x523B JUMP JUMPDEST POP DUP3 CALLVALUE PUSH2 0x790 JUMPI DUP2 PUSH1 0x3 NOT CALLDATASIZE ADD SLT PUSH2 0x790 JUMPI PUSH1 0x20 SWAP1 PUSH2 0x18F SLOAD NUMBER LT ISZERO SWAP1 MLOAD SWAP1 DUP2 MSTORE RETURN JUMPDEST PUSH1 0x20 DUP5 PUSH2 0x74B PUSH2 0x177B CALLDATASIZE PUSH1 0x4 PUSH2 0x3A4B JUMP JUMPDEST SWAP4 SWAP3 SWAP1 SWAP3 PUSH2 0x4EC5 JUMP JUMPDEST POP DUP3 CALLVALUE PUSH2 0x790 JUMPI DUP2 PUSH1 0x3 NOT CALLDATASIZE ADD SLT PUSH2 0x790 JUMPI PUSH1 0xCA SLOAD SWAP1 MLOAD PUSH1 0x10 SWAP2 SWAP1 SWAP2 SHR PUSH1 0x1 PUSH1 0x1 PUSH1 0xA0 SHL SUB AND DUP2 MSTORE PUSH1 0x20 SWAP1 RETURN JUMPDEST DUP4 DUP3 CALLVALUE PUSH2 0x823 JUMPI PUSH1 0x20 CALLDATASIZE PUSH1 0x3 NOT ADD SLT PUSH2 0x823 JUMPI PUSH1 0x4 CALLDATALOAD PUSH1 0x1 PUSH1 0x1 PUSH1 0xA0 SHL SUB DUP2 AND SWAP2 SWAP1 DUP3 SWAP1 SUB PUSH2 0x752 JUMPI DUP3 SWAP2 DUP2 MSTORE PUSH2 0x136 PUSH1 0x20 MSTORE KECCAK256 PUSH1 0xFF PUSH1 0x1 DUP3 SLOAD SWAP3 ADD SLOAD AND DUP3 MLOAD SWAP2 DUP3 MSTORE ISZERO ISZERO PUSH1 0x20 DUP3 ADD MSTORE RETURN JUMPDEST DUP4 DUP3 CALLVALUE PUSH2 0x823 JUMPI DUP2 PUSH1 0x3 NOT CALLDATASIZE ADD SLT PUSH2 0x823 JUMPI POP PUSH1 0x1 PUSH1 0x1 PUSH1 0xA0 SHL SUB SWAP1 PUSH1 0x4 CALLDATALOAD DUP3 DUP2 AND DUP2 SUB PUSH2 0x752 JUMPI PUSH1 0x24 CALLDATALOAD SWAP3 DUP4 AND DUP4 SUB PUSH2 0x752 JUMPI PUSH1 0x20 SWAP3 PUSH2 0x74B SWAP2 CALLER SWAP1 PUSH2 0x47A4 JUMP JUMPDEST POP DUP3 CALLVALUE PUSH2 0x790 JUMPI DUP2 PUSH1 0x3 NOT CALLDATASIZE ADD SLT PUSH2 0x790 JUMPI PUSH1 0x20 SWAP1 PUSH2 0x1868 PUSH2 0x1862 PUSH2 0xBFC PUSH2 0x4566 JUMP JUMPDEST SWAP1 PUSH2 0x432C JUMP JUMPDEST PUSH2 0x14A SLOAD LT ISZERO SWAP1 MLOAD SWAP1 DUP2 MSTORE RETURN JUMPDEST POP DUP3 DUP1 PUSH1 0x3 NOT CALLDATASIZE ADD SLT PUSH2 0x752 JUMPI PUSH2 0x74B PUSH1 0x20 SWAP3 CALLER PUSH1 0x24 CALLDATALOAD PUSH1 0x4 CALLDATALOAD PUSH2 0x531D JUMP JUMPDEST PUSH1 0x20 DUP5 PUSH2 0x74B PUSH2 0x18A5 CALLDATASIZE PUSH1 0x4 PUSH2 0x39AC JUMP JUMPDEST SWAP3 SWAP2 CALLER SWAP3 PUSH2 0x4F7F JUMP JUMPDEST POP DUP3 CALLVALUE PUSH2 0x790 JUMPI DUP2 PUSH1 0x3 NOT CALLDATASIZE ADD SLT PUSH2 0x790 JUMPI PUSH2 0x146 SLOAD SWAP1 MLOAD PUSH1 0x1 PUSH1 0x1 PUSH1 0xA0 SHL SUB SWAP1 SWAP2 AND DUP2 MSTORE PUSH1 0x20 SWAP1 RETURN JUMPDEST POP DUP3 CALLVALUE PUSH2 0x790 JUMPI DUP2 PUSH1 0x3 NOT CALLDATASIZE ADD SLT PUSH2 0x790 JUMPI PUSH1 0x20 SWAP1 PUSH2 0x18F8 PUSH2 0xBFC PUSH2 0x4566 JUMP JUMPDEST POP SWAP1 MLOAD SWAP1 DUP2 MSTORE RETURN JUMPDEST POP DUP3 CALLVALUE PUSH2 0x790 JUMPI DUP2 PUSH1 0x3 NOT CALLDATASIZE ADD SLT PUSH2 0x790 JUMPI PUSH2 0x158 SLOAD SWAP1 MLOAD PUSH1 0x1 PUSH1 0x1 PUSH1 0xA0 SHL SUB SWAP1 SWAP2 AND DUP2 MSTORE PUSH1 0x20 SWAP1 RETURN JUMPDEST POP DUP3 CALLVALUE PUSH2 0x790 JUMPI DUP2 PUSH1 0x3 NOT CALLDATASIZE ADD SLT PUSH2 0x790 JUMPI PUSH1 0x20 SWAP1 PUSH2 0x14A SLOAD SWAP1 MLOAD SWAP1 DUP2 MSTORE RETURN JUMPDEST PUSH1 0x20 DUP5 PUSH2 0x74B PUSH2 0x195B CALLDATASIZE PUSH1 0x4 PUSH2 0x39AC JUMP JUMPDEST SWAP3 SWAP2 CALLER SWAP3 PUSH2 0x5410 JUMP JUMPDEST PUSH1 0x20 DUP5 PUSH2 0x74B PUSH2 0x1975 CALLDATASIZE PUSH1 0x4 PUSH2 0x3A4B JUMP JUMPDEST SWAP4 SWAP3 SWAP1 SWAP3 PUSH2 0x5410 JUMP JUMPDEST DUP4 DUP3 CALLVALUE PUSH2 0x823 JUMPI PUSH1 0xC0 CALLDATASIZE PUSH1 0x3 NOT ADD SLT PUSH2 0x823 JUMPI POP PUSH2 0x199A PUSH2 0x55CA JUMP JUMPDEST POP PUSH2 0x14F SLOAD PUSH1 0x1 PUSH1 0x1 PUSH1 0xA0 SHL SUB SWAP1 DUP2 AND CALLER SUB PUSH2 0x1282 JUMPI PUSH2 0xDCE PUSH2 0xDC4 SWAP2 PUSH2 0x19C2 CALLDATASIZE PUSH1 0x4 PUSH2 0x59ED JUMP JUMPDEST SWAP4 PUSH2 0x19CB PUSH2 0x55CA JUMP JUMPDEST POP PUSH2 0x19D4 PUSH2 0x4EA3 JUMP JUMPDEST PUSH2 0x19DC PUSH2 0x5CBD JUMP JUMPDEST PUSH2 0x1A0D PUSH2 0xD64 DUP3 MLOAD PUSH4 0x7225DA89 PUSH1 0xE1 SHL PUSH1 0x20 DUP3 ADD MSTORE PUSH2 0x19FE PUSH1 0x24 DUP3 ADD DUP10 PUSH2 0x4F3A JUMP JUMPDEST PUSH1 0xC4 DUP2 MSTORE PUSH2 0xD59 PUSH1 0xE4 DUP3 PUSH2 0x3958 JUMP JUMPDEST SWAP5 DUP9 DUP6 DUP8 SWAP4 SWAP7 SWAP6 SWAP10 SWAP5 SWAP11 ADD SWAP2 DUP3 MLOAD PUSH2 0x1A29 PUSH2 0x14E SWAP2 DUP3 SLOAD PUSH2 0x407B JUMP JUMPDEST SWAP1 SSTORE PUSH1 0xA0 PUSH2 0x1277 DUP12 DUP4 PUSH1 0x60 DUP7 ADD MLOAD AND SWAP6 MLOAD PUSH2 0x407B JUMP JUMPDEST POP CALLVALUE PUSH2 0x823 JUMPI PUSH1 0x20 CALLDATASIZE PUSH1 0x3 NOT ADD SLT PUSH2 0x823 JUMPI PUSH1 0x4 CALLDATALOAD PUSH1 0x1 PUSH1 0x1 PUSH1 0xA0 SHL SUB DUP2 AND SWAP1 DUP2 SWAP1 SUB PUSH2 0x752 JUMPI PUSH2 0x1A6E PUSH2 0x5C2F JUMP JUMPDEST PUSH2 0x153 DUP1 SLOAD PUSH1 0x1 PUSH1 0x1 PUSH1 0xA0 SHL SUB NOT AND SWAP1 SWAP2 OR SWAP1 SSTORE DUP1 RETURN JUMPDEST POP DUP3 CALLVALUE PUSH2 0x790 JUMPI DUP2 PUSH1 0x3 NOT CALLDATASIZE ADD SLT PUSH2 0x790 JUMPI PUSH2 0x1A9F PUSH2 0x5CBD JUMP JUMPDEST PUSH1 0xCA SLOAD PUSH1 0x10 DUP2 SWAP1 SHR PUSH1 0x1 PUSH1 0x1 PUSH1 0xA0 SHL SUB AND CALLER SUB PUSH2 0x1B09 JUMPI PUSH1 0xFF DUP2 AND ISZERO PUSH2 0x1AF8 JUMPI PUSH2 0xFF00 NOT AND PUSH2 0x100 OR PUSH1 0xCA SSTORE MLOAD CALLER DUP2 MSTORE PUSH32 0x62E78CEA01BEE320CD4E420270B5EA74000D11B0C9F74754EBDBFC544B05A258 SWAP1 PUSH1 0x20 SWAP1 LOG1 DUP1 RETURN JUMPDEST DUP2 MLOAD PUSH4 0x866099C3 PUSH1 0xE0 SHL DUP2 MSTORE PUSH1 0x4 SWAP1 REVERT JUMPDEST DUP2 MLOAD PUSH4 0x1D77D477 PUSH1 0xE2 SHL DUP2 MSTORE PUSH1 0x4 SWAP1 REVERT JUMPDEST PUSH1 0x20 DUP5 PUSH2 0x74B DUP5 PUSH2 0x1B2C CALLDATASIZE PUSH1 0x4 PUSH2 0x39D9 JUMP JUMPDEST SWAP4 SWAP3 SWAP1 SWAP3 PUSH2 0x523B JUMP JUMPDEST POP DUP3 CALLVALUE PUSH2 0x790 JUMPI DUP2 PUSH1 0x3 NOT CALLDATASIZE ADD SLT PUSH2 0x790 JUMPI PUSH1 0x20 SWAP1 PUSH2 0x74B PUSH2 0x1862 PUSH2 0xBFC PUSH2 0x4566 JUMP JUMPDEST POP DUP3 CALLVALUE PUSH2 0x790 JUMPI DUP2 PUSH1 0x3 NOT CALLDATASIZE ADD SLT PUSH2 0x790 JUMPI PUSH1 0x20 SWAP1 PUSH2 0x15A SLOAD SWAP1 MLOAD SWAP1 DUP2 MSTORE RETURN JUMPDEST POP DUP3 CALLVALUE PUSH2 0x790 JUMPI DUP2 PUSH1 0x3 NOT CALLDATASIZE ADD SLT PUSH2 0x790 JUMPI PUSH1 0x20 SWAP1 PUSH2 0x74B PUSH2 0x1B9A PUSH1 0x1 PUSH2 0x45A0 JUMP JUMPDEST PUSH2 0xE52 PUSH2 0x1BA7 DUP3 DUP5 PUSH2 0x4205 JUMP JUMPDEST SWAP2 DUP4 PUSH2 0x42BB JUMP JUMPDEST POP DUP3 CALLVALUE PUSH2 0x790 JUMPI DUP2 PUSH1 0x3 NOT CALLDATASIZE ADD SLT PUSH2 0x790 JUMPI PUSH2 0x1C3 SLOAD SWAP1 MLOAD PUSH1 0x1 PUSH1 0x1 PUSH1 0xA0 SHL SUB SWAP1 SWAP2 AND DUP2 MSTORE PUSH1 0x20 SWAP1 RETURN JUMPDEST POP DUP3 CALLVALUE PUSH2 0x790 JUMPI PUSH1 0x20 CALLDATASIZE PUSH1 0x3 NOT ADD SLT PUSH2 0x790 JUMPI PUSH1 0x4 CALLDATALOAD SWAP2 PUSH2 0x148 SWAP1 DUP2 SLOAD DUP5 LT ISZERO PUSH2 0x823 JUMPI POP PUSH1 0x20 SWAP3 PUSH2 0x1C09 SWAP2 PUSH2 0x37EA JUMP JUMPDEST SWAP2 SWAP1 SLOAD SWAP1 MLOAD SWAP2 PUSH1 0x3 SHL SHR DUP2 MSTORE RETURN JUMPDEST POP CALLVALUE PUSH2 0x823 JUMPI PUSH1 0x20 CALLDATASIZE PUSH1 0x3 NOT ADD SLT PUSH2 0x823 JUMPI PUSH2 0x1C31 PUSH2 0x5C2F JUMP JUMPDEST PUSH1 0x4 CALLDATALOAD PUSH2 0x149 SSTORE DUP1 RETURN JUMPDEST PUSH1 0x20 DUP5 PUSH2 0x74B PUSH2 0x1C4C CALLDATASIZE PUSH1 0x4 PUSH2 0x3A0B JUMP JUMPDEST SWAP5 SWAP4 SWAP3 SWAP1 SWAP3 CALLER SWAP5 PUSH2 0x4FF8 JUMP JUMPDEST POP CALLVALUE PUSH2 0x823 JUMPI PUSH1 0x20 CALLDATASIZE PUSH1 0x3 NOT ADD SLT PUSH2 0x823 JUMPI PUSH2 0x1C72 PUSH2 0x5C2F JUMP JUMPDEST PUSH1 0x4 CALLDATALOAD PUSH2 0x140 SSTORE DUP1 RETURN JUMPDEST POP DUP3 CALLVALUE PUSH2 0x790 JUMPI DUP2 PUSH1 0x3 NOT CALLDATASIZE ADD SLT PUSH2 0x790 JUMPI PUSH1 0x20 SWAP1 PUSH2 0x190 SLOAD SWAP1 MLOAD SWAP1 DUP2 MSTORE RETURN JUMPDEST POP CALLVALUE PUSH2 0x823 JUMPI PUSH1 0x20 CALLDATASIZE PUSH1 0x3 NOT ADD SLT PUSH2 0x823 JUMPI PUSH2 0x1CB6 PUSH2 0x5C2F JUMP JUMPDEST PUSH1 0x4 CALLDATALOAD PUSH2 0x141 SSTORE DUP1 RETURN JUMPDEST POP DUP3 CALLVALUE PUSH2 0x790 JUMPI DUP2 PUSH1 0x3 NOT CALLDATASIZE ADD SLT PUSH2 0x790 JUMPI PUSH1 0x20 SWAP1 PUSH2 0x134 SLOAD SWAP1 MLOAD SWAP1 DUP2 MSTORE RETURN JUMPDEST POP DUP3 CALLVALUE PUSH2 0x790 JUMPI DUP2 PUSH1 0x3 NOT CALLDATASIZE ADD SLT PUSH2 0x790 JUMPI PUSH1 0x20 SWAP1 PUSH2 0x142 SLOAD SWAP1 MLOAD SWAP1 DUP2 MSTORE RETURN JUMPDEST POP CALLVALUE PUSH2 0x823 JUMPI PUSH1 0x20 CALLDATASIZE PUSH1 0x3 NOT ADD SLT PUSH2 0x823 JUMPI PUSH2 0x1D1A PUSH2 0x5C2F JUMP JUMPDEST PUSH1 0x4 CALLDATALOAD PUSH2 0x13B SSTORE DUP1 RETURN JUMPDEST POP DUP3 CALLVALUE PUSH2 0x790 JUMPI DUP2 PUSH1 0x3 NOT CALLDATASIZE ADD SLT PUSH2 0x790 JUMPI PUSH1 0x20 SWAP1 PUSH2 0x156 SLOAD SWAP1 MLOAD SWAP1 DUP2 MSTORE RETURN JUMPDEST POP DUP3 CALLVALUE PUSH2 0x790 JUMPI DUP2 PUSH1 0x3 NOT CALLDATASIZE ADD SLT PUSH2 0x790 JUMPI PUSH1 0x20 SWAP1 PUSH2 0x139 SLOAD SWAP1 MLOAD SWAP1 DUP2 MSTORE RETURN JUMPDEST PUSH1 0x20 DUP5 PUSH2 0x74B PUSH2 0x1D75 CALLDATASIZE PUSH1 0x4 PUSH2 0x39D9 JUMP JUMPDEST SWAP4 SWAP3 SWAP2 SWAP1 SWAP2 CALLER SWAP4 PUSH2 0x5145 JUMP JUMPDEST POP CALLVALUE PUSH2 0x823 JUMPI PUSH1 0x20 CALLDATASIZE PUSH1 0x3 NOT ADD SLT PUSH2 0x823 JUMPI PUSH2 0x1D9B PUSH2 0x5C2F JUMP JUMPDEST PUSH1 0x4 CALLDATALOAD PUSH2 0x154 SSTORE DUP1 RETURN JUMPDEST POP CALLVALUE PUSH2 0x823 JUMPI PUSH1 0x20 CALLDATASIZE PUSH1 0x3 NOT ADD SLT PUSH2 0x823 JUMPI PUSH1 0x4 CALLDATALOAD PUSH1 0x1 PUSH1 0x1 PUSH1 0xA0 SHL SUB DUP2 AND SWAP1 DUP2 SWAP1 SUB PUSH2 0x752 JUMPI PUSH2 0x1DD4 PUSH2 0x5C2F JUMP JUMPDEST PUSH2 0x158 DUP1 SLOAD PUSH1 0x1 PUSH1 0x1 PUSH1 0xA0 SHL SUB NOT AND SWAP1 SWAP2 OR SWAP1 SSTORE DUP1 RETURN JUMPDEST POP CALLVALUE PUSH2 0x823 JUMPI PUSH1 0x20 CALLDATASIZE PUSH1 0x3 NOT ADD SLT PUSH2 0x823 JUMPI PUSH2 0x1E05 PUSH2 0x5C2F JUMP JUMPDEST PUSH1 0x4 CALLDATALOAD PUSH2 0x13E SSTORE DUP1 RETURN JUMPDEST POP DUP3 CALLVALUE PUSH2 0x790 JUMPI DUP2 PUSH1 0x3 NOT CALLDATASIZE ADD SLT PUSH2 0x790 JUMPI PUSH1 0x20 SWAP1 PUSH2 0x154 SLOAD SWAP1 MLOAD SWAP1 DUP2 MSTORE RETURN JUMPDEST POP DUP3 CALLVALUE PUSH2 0x790 JUMPI DUP2 PUSH1 0x3 NOT CALLDATASIZE ADD SLT PUSH2 0x790 JUMPI PUSH1 0x20 SWAP1 PUSH2 0x149 SLOAD SWAP1 MLOAD SWAP1 DUP2 MSTORE RETURN JUMPDEST SWAP1 SWAP2 POP CALLDATASIZE PUSH1 0x3 NOT ADD SLT PUSH2 0x823 JUMPI POP PUSH1 0x4 CALLDATALOAD SWAP1 PUSH1 0x1 PUSH1 0x1 PUSH1 0xA0 SHL SUB DUP1 DUP4 AND DUP4 SUB PUSH2 0x752 JUMPI PUSH1 0x24 CALLDATALOAD SWAP1 DUP1 DUP3 AND DUP3 SUB PUSH2 0x752 JUMPI PUSH1 0xA4 CALLDATALOAD DUP2 DUP2 AND DUP2 SUB PUSH2 0x752 JUMPI PUSH1 0xC4 CALLDATALOAD SWAP2 DUP3 AND DUP3 SUB PUSH2 0x752 JUMPI PUSH1 0x20 SWAP5 PUSH2 0x74B SWAP4 PUSH1 0x84 CALLDATALOAD SWAP2 PUSH1 0x64 CALLDATALOAD SWAP2 PUSH1 0x44 CALLDATALOAD SWAP2 PUSH2 0x4FF8 JUMP JUMPDEST POP CALLVALUE PUSH2 0x823 JUMPI DUP1 PUSH1 0x3 NOT CALLDATASIZE ADD SLT PUSH2 0x823 JUMPI PUSH2 0x1EC8 PUSH2 0x5C2F JUMP JUMPDEST PUSH1 0x1 PUSH1 0xFF NOT PUSH1 0xCA SLOAD AND OR PUSH1 0xCA SSTORE DUP1 RETURN JUMPDEST POP DUP3 CALLVALUE PUSH2 0x790 JUMPI DUP2 PUSH1 0x3 NOT CALLDATASIZE ADD SLT PUSH2 0x790 JUMPI PUSH1 0x20 SWAP1 PUSH2 0x18F8 PUSH2 0x4BF3 JUMP JUMPDEST POP CALLVALUE PUSH2 0x823 JUMPI PUSH1 0x20 CALLDATASIZE PUSH1 0x3 NOT ADD SLT PUSH2 0x823 JUMPI PUSH2 0x1F0F PUSH2 0x5C2F JUMP JUMPDEST PUSH1 0x4 CALLDATALOAD PUSH2 0x159 SSTORE DUP1 RETURN JUMPDEST POP DUP3 CALLVALUE PUSH2 0x790 JUMPI DUP2 PUSH1 0x3 NOT CALLDATASIZE ADD SLT PUSH2 0x790 JUMPI PUSH2 0x12F SLOAD SWAP1 MLOAD PUSH1 0x1 PUSH1 0x1 PUSH1 0xA0 SHL SUB SWAP1 SWAP2 AND DUP2 MSTORE PUSH1 0x20 SWAP1 RETURN JUMPDEST POP DUP3 CALLVALUE PUSH2 0x790 JUMPI PUSH2 0x400 CALLDATASIZE PUSH1 0x3 NOT ADD SLT PUSH2 0x790 JUMPI DUP2 SLOAD PUSH1 0xFF DUP2 PUSH1 0x8 SHR AND ISZERO SWAP1 DUP2 DUP1 SWAP3 PUSH2 0x247E JUMPI JUMPDEST DUP1 ISZERO PUSH2 0x2467 JUMPI JUMPDEST ISZERO PUSH2 0x240C JUMPI PUSH1 0xFF NOT DUP2 AND PUSH1 0x1 OR DUP5 SSTORE DUP2 PUSH2 0x23FB JUMPI JUMPDEST POP PUSH1 0xFF DUP4 SLOAD PUSH1 0x8 SHR AND PUSH2 0x1F98 DUP2 PUSH2 0x4744 JUMP JUMPDEST PUSH2 0x384 CALLDATALOAD PUSH1 0x1 PUSH1 0x1 PUSH1 0xA0 SHL SUB DUP2 AND SWAP1 DUP2 SWAP1 SUB PUSH2 0x752 JUMPI PUSH2 0x1F6 DUP1 SLOAD PUSH1 0x1 PUSH1 0x1 PUSH1 0xA0 SHL SUB NOT AND SWAP1 SWAP2 OR SWAP1 SSTORE PUSH1 0x1 PUSH1 0x1 PUSH1 0xA0 SHL SUB PUSH2 0x344 CALLDATALOAD SWAP1 DUP2 AND SWAP1 DUP2 SWAP1 SUB PUSH2 0x752 JUMPI PUSH2 0x364 CALLDATALOAD PUSH1 0x1 PUSH1 0x1 PUSH1 0xA0 SHL SUB DUP2 AND DUP2 SUB PUSH2 0x752 JUMPI PUSH1 0x1 SWAP2 PUSH2 0x1FF9 DUP5 PUSH2 0x4744 JUMP JUMPDEST PUSH2 0x2002 DUP5 PUSH2 0x4744 JUMP JUMPDEST PUSH2 0x200B DUP5 PUSH2 0x4744 JUMP JUMPDEST PUSH2 0x2014 DUP5 PUSH2 0x4744 JUMP JUMPDEST PUSH1 0x1 PUSH1 0x1 PUSH1 0x60 SHL SUB PUSH1 0xA0 SHL PUSH1 0x97 SLOAD AND OR PUSH1 0x97 SSTORE PUSH2 0x2030 DUP4 PUSH2 0x4744 JUMP JUMPDEST PUSH1 0xCA SLOAD SWAP1 PUSH3 0x10000 DUP4 PUSH1 0xB0 SHL SUB SWAP1 PUSH1 0x10 SHL AND SWAP1 PUSH2 0xFF01 DUP4 PUSH1 0xB0 SHL SUB NOT AND OR OR PUSH1 0xCA SSTORE PUSH2 0x205B DUP2 PUSH2 0x4744 JUMP JUMPDEST PUSH8 0xDE0B6B3A7640000 PUSH1 0xC4 CALLDATALOAD LT PUSH2 0x23EA JUMPI PUSH2 0x2078 PUSH2 0x104 CALLDATALOAD PUSH2 0x5D02 JUMP JUMPDEST PUSH2 0x2084 PUSH2 0x124 CALLDATALOAD PUSH2 0x5D02 JUMP JUMPDEST PUSH2 0x2090 PUSH2 0x144 CALLDATALOAD PUSH2 0x5D02 JUMP JUMPDEST PUSH2 0x209C PUSH2 0x164 CALLDATALOAD PUSH2 0x5D02 JUMP JUMPDEST PUSH2 0x20A8 PUSH2 0x184 CALLDATALOAD PUSH2 0x5D02 JUMP JUMPDEST PUSH2 0x20B4 PUSH2 0x1A4 CALLDATALOAD PUSH2 0x5D02 JUMP JUMPDEST PUSH2 0x20C0 PUSH2 0x1C4 CALLDATALOAD PUSH2 0x5D02 JUMP JUMPDEST PUSH2 0x20CC PUSH2 0x1E4 CALLDATALOAD PUSH2 0x5D02 JUMP JUMPDEST PUSH2 0x20D8 PUSH2 0x204 CALLDATALOAD PUSH2 0x5D02 JUMP JUMPDEST PUSH2 0x20F0 PUSH2 0x20EB PUSH2 0x244 CALLDATALOAD PUSH2 0x224 CALLDATALOAD PUSH2 0x4156 JUMP JUMPDEST PUSH2 0x5D02 JUMP JUMPDEST PUSH1 0x4 CALLDATALOAD PUSH1 0x1 PUSH1 0x1 PUSH1 0xA0 SHL SUB DUP2 AND SWAP1 DUP2 SWAP1 SUB PUSH2 0x752 JUMPI PUSH2 0x14F DUP1 SLOAD PUSH1 0x1 PUSH1 0x1 PUSH1 0xA0 SHL SUB NOT AND SWAP1 SWAP2 OR SWAP1 SSTORE PUSH1 0x24 CALLDATALOAD PUSH1 0x1 PUSH1 0x1 PUSH1 0xA0 SHL SUB DUP2 AND DUP2 SUB PUSH2 0x752 JUMPI PUSH2 0x12F DUP1 SLOAD PUSH1 0x1 PUSH1 0x1 PUSH1 0xA0 SHL SUB NOT AND PUSH1 0x1 PUSH1 0x1 PUSH1 0xA0 SHL SUB SWAP3 DUP4 AND OR SWAP1 SSTORE PUSH1 0x44 CALLDATALOAD SWAP1 DUP2 AND DUP2 SUB PUSH2 0x752 JUMPI PUSH2 0x130 DUP1 SLOAD PUSH1 0x1 PUSH1 0x1 PUSH1 0xA0 SHL SUB NOT AND PUSH1 0x1 PUSH1 0x1 PUSH1 0xA0 SHL SUB SWAP3 DUP4 AND OR SWAP1 SSTORE PUSH1 0x64 CALLDATALOAD SWAP1 DUP2 AND DUP2 SUB PUSH2 0x752 JUMPI PUSH2 0x133 DUP1 SLOAD PUSH1 0x1 PUSH1 0x1 PUSH1 0xA0 SHL SUB NOT AND PUSH1 0x1 PUSH1 0x1 PUSH1 0xA0 SHL SUB SWAP3 DUP4 AND OR SWAP1 SSTORE PUSH1 0x84 CALLDATALOAD SWAP1 DUP2 AND DUP2 SUB PUSH2 0x752 JUMPI PUSH2 0x146 DUP1 SLOAD PUSH1 0x1 PUSH1 0x1 PUSH1 0xA0 SHL SUB NOT AND PUSH1 0x1 PUSH1 0x1 PUSH1 0xA0 SHL SUB SWAP3 DUP4 AND OR SWAP1 SSTORE PUSH1 0xA4 CALLDATALOAD SWAP1 DUP2 AND DUP2 SUB PUSH2 0x752 JUMPI PUSH2 0x147 DUP1 SLOAD PUSH1 0x1 PUSH1 0x1 PUSH1 0xA0 SHL SUB NOT AND PUSH1 0x1 PUSH1 0x1 PUSH1 0xA0 SHL SUB SWAP3 DUP4 AND OR SWAP1 SSTORE PUSH1 0xC4 CALLDATALOAD PUSH2 0x149 SSTORE PUSH1 0xE4 CALLDATALOAD PUSH2 0x14A SSTORE PUSH2 0x104 CALLDATALOAD PUSH2 0x13B SSTORE PUSH2 0x124 CALLDATALOAD PUSH2 0x13C SSTORE PUSH2 0x144 CALLDATALOAD PUSH2 0x13D SSTORE PUSH2 0x164 CALLDATALOAD PUSH2 0x13E SSTORE PUSH2 0x184 CALLDATALOAD PUSH2 0x13F SSTORE PUSH2 0x1A4 CALLDATALOAD PUSH2 0x140 SSTORE PUSH2 0x1C4 CALLDATALOAD PUSH2 0x141 SSTORE PUSH2 0x1E4 CALLDATALOAD PUSH2 0x142 SSTORE PUSH2 0x204 CALLDATALOAD PUSH2 0x143 SSTORE PUSH2 0x224 CALLDATALOAD PUSH2 0x139 SSTORE PUSH2 0x244 CALLDATALOAD PUSH2 0x13A SSTORE PUSH2 0x264 CALLDATALOAD PUSH2 0x14C DUP2 SWAP1 SSTORE SWAP1 PUSH2 0x284 CALLDATALOAD SWAP1 DUP2 AND SWAP1 DUP2 SWAP1 SUB PUSH2 0x752 JUMPI PUSH2 0x158 DUP1 SLOAD PUSH1 0x1 PUSH1 0x1 PUSH1 0xA0 SHL SUB NOT AND SWAP1 SWAP2 OR SWAP1 SSTORE PUSH2 0x2A4 CALLDATALOAD PUSH2 0x159 SSTORE PUSH2 0x2C4 CALLDATALOAD PUSH2 0x15A DUP2 SWAP1 SSTORE SWAP1 PUSH1 0x1 PUSH1 0x1 PUSH1 0xA0 SHL SUB PUSH2 0x2E4 CALLDATALOAD SWAP1 DUP2 AND SWAP1 DUP2 SWAP1 SUB PUSH2 0x752 JUMPI PUSH2 0x152 DUP1 SLOAD PUSH1 0x1 PUSH1 0x1 PUSH1 0xA0 SHL SUB NOT AND SWAP1 SWAP2 OR SWAP1 SSTORE PUSH1 0x1 PUSH1 0x1 PUSH1 0xA0 SHL SUB PUSH2 0x304 CALLDATALOAD SWAP1 DUP2 AND SWAP1 DUP2 SWAP1 SUB PUSH2 0x752 JUMPI PUSH2 0x153 SWAP1 PUSH1 0x1 PUSH1 0x1 PUSH1 0x60 SHL SUB PUSH1 0xA0 SHL DUP3 SLOAD AND OR SWAP1 SSTORE PUSH2 0x324 CALLDATALOAD PUSH2 0x154 SSTORE NUMBER PUSH2 0x157 SSTORE NUMBER ADD PUSH2 0x14D SSTORE NUMBER ADD PUSH2 0x15B SSTORE PUSH2 0x14B PUSH2 0xFFFF NOT DUP2 SLOAD AND SWAP1 SSTORE PUSH2 0x3A4 CALLDATALOAD PUSH2 0x231D DUP3 PUSH2 0x4744 JUMP JUMPDEST DUP1 ISZERO PUSH2 0x23D9 JUMPI PUSH2 0x190 DUP2 SWAP1 SSTORE NUMBER ADD PUSH2 0x18F SSTORE PUSH2 0x3C4 CALLDATALOAD PUSH1 0x1 PUSH1 0x1 PUSH1 0xA0 SHL SUB DUP2 AND DUP2 SUB PUSH2 0x752 JUMPI PUSH2 0x234F PUSH2 0x2371 SWAP3 PUSH2 0x4744 JUMP JUMPDEST PUSH2 0x1C3 DUP1 SLOAD PUSH1 0x1 PUSH1 0x1 PUSH1 0xA0 SHL SUB NOT AND PUSH1 0x1 PUSH1 0x1 PUSH1 0xA0 SHL SUB SWAP1 SWAP3 AND SWAP2 SWAP1 SWAP2 OR SWAP1 SSTORE JUMP JUMPDEST PUSH2 0x3E4 CALLDATALOAD PUSH1 0x1 PUSH1 0x1 PUSH1 0xA0 SHL SUB DUP2 AND SWAP1 DUP2 SWAP1 SUB PUSH2 0x752 JUMPI PUSH2 0x229 DUP1 SLOAD PUSH1 0x1 PUSH1 0x1 PUSH1 0xA0 SHL SUB NOT AND SWAP1 SWAP2 OR SWAP1 SSTORE PUSH2 0x23A3 JUMPI POP DUP1 RETURN JUMPDEST PUSH1 0x20 PUSH32 0x7F26B83FF96E1F2B6A682F133852F6798A09C465DA95921460CEFB3847402498 SWAP2 PUSH2 0xFF00 NOT DUP5 SLOAD AND DUP5 SSTORE MLOAD PUSH1 0x1 DUP2 MSTORE LOG1 DUP1 RETURN JUMPDEST DUP4 MLOAD PUSH4 0x2A9FFAB7 PUSH1 0xE2 SHL DUP2 MSTORE PUSH1 0x4 SWAP1 REVERT JUMPDEST DUP3 MLOAD PUSH4 0x2A9FFAB7 PUSH1 0xE2 SHL DUP2 MSTORE PUSH1 0x4 SWAP1 REVERT JUMPDEST PUSH2 0xFFFF NOT AND PUSH2 0x101 OR DUP4 SSTORE DUP4 PUSH2 0x1F86 JUMP JUMPDEST DUP3 MLOAD PUSH3 0x461BCD PUSH1 0xE5 SHL DUP2 MSTORE PUSH1 0x20 PUSH1 0x4 DUP3 ADD MSTORE PUSH1 0x2E PUSH1 0x24 DUP3 ADD MSTORE PUSH32 0x496E697469616C697A61626C653A20636F6E747261637420697320616C726561 PUSH1 0x44 DUP3 ADD MSTORE PUSH14 0x191E481A5B9A5D1A585B1A5E9959 PUSH1 0x92 SHL PUSH1 0x64 DUP3 ADD MSTORE PUSH1 0x84 SWAP1 REVERT JUMPDEST POP ADDRESS EXTCODESIZE ISZERO DUP1 ISZERO PUSH2 0x1F71 JUMPI POP PUSH1 0x1 PUSH1 0xFF DUP3 AND EQ PUSH2 0x1F71 JUMP JUMPDEST POP PUSH1 0x1 PUSH1 0xFF DUP3 AND LT PUSH2 0x1F6A JUMP JUMPDEST POP DUP3 CALLVALUE PUSH2 0x790 JUMPI DUP2 PUSH1 0x3 NOT CALLDATASIZE ADD SLT PUSH2 0x790 JUMPI PUSH2 0x133 SLOAD SWAP1 MLOAD PUSH1 0x1 PUSH1 0x1 PUSH1 0xA0 SHL SUB SWAP1 SWAP2 AND DUP2 MSTORE PUSH1 0x20 SWAP1 RETURN JUMPDEST PUSH1 0x20 DUP5 PUSH2 0x74B PUSH2 0x24C6 CALLDATASIZE PUSH1 0x4 PUSH2 0x382C JUMP JUMPDEST SWAP5 SWAP4 SWAP1 SWAP4 SWAP3 SWAP2 SWAP3 PUSH2 0x54DF JUMP JUMPDEST POP DUP3 CALLVALUE PUSH2 0x790 JUMPI DUP2 PUSH1 0x3 NOT CALLDATASIZE ADD SLT PUSH2 0x790 JUMPI PUSH1 0x20 SWAP1 PUSH2 0x14E SLOAD SWAP1 MLOAD SWAP1 DUP2 MSTORE RETURN JUMPDEST POP DUP3 CALLVALUE PUSH2 0x790 JUMPI DUP2 PUSH1 0x3 NOT CALLDATASIZE ADD SLT PUSH2 0x790 JUMPI PUSH1 0x20 SWAP1 PUSH1 0xFF PUSH1 0xCA SLOAD PUSH1 0x8 SHR AND SWAP1 MLOAD SWAP1 ISZERO ISZERO DUP2 MSTORE RETURN JUMPDEST POP DUP3 CALLVALUE PUSH2 0x790 JUMPI DUP2 PUSH1 0x3 NOT CALLDATASIZE ADD SLT PUSH2 0x790 JUMPI PUSH2 0x2533 PUSH2 0x5CBD JUMP JUMPDEST PUSH2 0x14D DUP1 SLOAD NUMBER LT PUSH2 0x2703 JUMPI PUSH2 0x14C SLOAD NUMBER ADD SWAP1 SSTORE PUSH32 0xD3C59BDA47E141A8EC5A33D241B7F71B86E30D359F83A9227D912858B60404FC DUP3 DUP1 LOG1 PUSH2 0x137 SLOAD DUP3 PUSH2 0x2578 DUP3 PUSH2 0x4362 JUMP JUMPDEST SWAP2 DUP5 JUMPDEST DUP2 DUP2 LT PUSH2 0x2634 JUMPI POP POP DUP1 PUSH2 0x25EF JUMPI JUMPDEST SWAP2 DUP1 MLOAD SWAP3 DUP2 DUP5 ADD SWAP1 DUP5 MSTORE PUSH1 0x20 SWAP2 DUP3 DUP6 ADD MSTORE DUP3 MLOAD DUP1 SWAP2 MSTORE DUP2 PUSH1 0x60 DUP6 ADD SWAP4 ADD SWAP2 DUP6 JUMPDEST DUP3 DUP2 LT PUSH2 0x25DB JUMPI DUP7 PUSH32 0xAE5116A8119D08673A0F1DFA7546B95DA4BD54BB17FEDA7C61130AC7859152F6 DUP8 DUP8 SUB DUP9 LOG1 DUP1 RETURN JUMPDEST DUP4 MLOAD DUP6 MSTORE SWAP4 DUP2 ADD SWAP4 SWAP3 DUP2 ADD SWAP3 PUSH1 0x1 ADD PUSH2 0x25AA JUMP JUMPDEST PUSH2 0x2606 PUSH8 0xDE0B6B3A7640000 SWAP2 PUSH2 0x139 SLOAD SWAP1 PUSH2 0x4288 JUMP JUMPDEST DIV PUSH2 0x131 PUSH2 0x2615 DUP3 DUP3 SLOAD PUSH2 0x407B JUMP JUMPDEST SWAP1 SSTORE PUSH2 0x146 SLOAD PUSH2 0x262F SWAP1 DUP3 SWAP1 PUSH1 0x1 PUSH1 0x1 PUSH1 0xA0 SHL SUB AND PUSH2 0x3F25 JUMP JUMPDEST PUSH2 0x258A JUMP JUMPDEST PUSH2 0x263D DUP2 PUSH2 0x449F JUMP JUMPDEST PUSH2 0x2647 DUP2 DUP4 PUSH2 0x4908 JUMP JUMPDEST DUP7 PUSH2 0x150 SWAP2 DUP7 PUSH2 0x2657 DUP6 DUP6 PUSH2 0x37EA JUMP JUMPDEST SWAP1 SLOAD SWAP1 PUSH1 0x3 SHL SHR SWAP2 DUP4 DUP4 SGT PUSH2 0x2674 JUMPI JUMPDEST POP POP POP POP POP PUSH1 0x1 ADD PUSH2 0x257B JUMP JUMPDEST SWAP5 PUSH2 0x26B9 DUP4 DUP3 SWAP7 SWAP10 PUSH2 0x26BF SWAP5 PUSH2 0x26B3 DUP6 PUSH2 0x26A6 PUSH2 0x26AC PUSH2 0x26D6 SWAP11 PUSH1 0x1 SWAP15 PUSH8 0xDE0B6B3A7640000 SWAP4 DUP5 SWAP2 PUSH2 0x13A SLOAD PUSH2 0x4288 JUMP JUMPDEST DIV PUSH2 0x4288 JUMP JUMPDEST DIV SWAP3 PUSH2 0x4163 JUMP JUMPDEST MSTORE PUSH2 0x4156 JUMP JUMPDEST SWAP8 PUSH2 0x37EA JUMP JUMPDEST DUP2 SWAP4 SWAP2 SLOAD SWAP1 PUSH1 0x3 SHL SWAP2 DUP3 SHL SWAP2 PUSH1 0x0 NOT SWAP1 SHL NOT AND OR SWAP1 JUMP JUMPDEST SWAP1 SSTORE PUSH2 0x26F9 PUSH2 0x26E5 DUP3 DUP8 PUSH2 0x4163 JUMP JUMPDEST MLOAD DUP9 DUP5 DUP1 PUSH1 0xA0 SHL SUB PUSH2 0x147 SLOAD AND SWAP2 DUP5 PUSH2 0x4848 JUMP JUMPDEST SWAP1 DUP7 DUP9 DUP7 DUP2 PUSH2 0x2667 JUMP JUMPDEST DUP2 MLOAD PUSH4 0x101B6859 PUSH1 0xE0 SHL DUP2 MSTORE PUSH1 0x4 SWAP1 REVERT JUMPDEST DUP4 DUP3 CALLVALUE PUSH2 0x823 JUMPI DUP2 PUSH1 0x3 NOT CALLDATASIZE ADD SLT PUSH2 0x823 JUMPI PUSH1 0x1 PUSH1 0x1 PUSH1 0xA0 SHL SUB PUSH1 0x4 CALLDATALOAD DUP2 DUP2 AND DUP2 SUB PUSH2 0x752 JUMPI PUSH1 0x24 CALLDATALOAD SWAP2 PUSH2 0x14F SLOAD AND CALLER SUB PUSH2 0xBAF JUMPI SWAP1 PUSH2 0xBAC SWAP2 PUSH2 0x14E DUP3 DUP2 SLOAD SUB SWAP1 SSTORE PUSH2 0x3F25 JUMP JUMPDEST POP DUP3 CALLVALUE PUSH2 0x790 JUMPI DUP2 PUSH1 0x3 NOT CALLDATASIZE ADD SLT PUSH2 0x790 JUMPI PUSH1 0x20 SWAP1 PUSH2 0x157 SLOAD SWAP1 MLOAD SWAP1 DUP2 MSTORE RETURN JUMPDEST POP CALLVALUE PUSH2 0x823 JUMPI PUSH1 0x20 CALLDATASIZE PUSH1 0x3 NOT ADD SLT PUSH2 0x823 JUMPI PUSH2 0x2796 PUSH2 0x5C2F JUMP JUMPDEST PUSH1 0x4 CALLDATALOAD PUSH2 0x143 SSTORE DUP1 RETURN JUMPDEST DUP4 DUP3 CALLVALUE PUSH2 0x823 JUMPI DUP2 PUSH1 0x3 NOT CALLDATASIZE ADD SLT PUSH2 0x823 JUMPI PUSH1 0x1 PUSH1 0x1 PUSH1 0xA0 SHL SUB PUSH1 0x4 CALLDATALOAD DUP2 DUP2 AND DUP2 SUB PUSH2 0x752 JUMPI DUP2 PUSH2 0x14F SLOAD AND CALLER SUB PUSH2 0xBAF JUMPI SWAP1 PUSH2 0xBAC SWAP2 PUSH1 0x24 CALLDATALOAD SWAP2 PUSH2 0x133 SLOAD AND PUSH2 0x5BF6 JUMP JUMPDEST POP CALLVALUE PUSH2 0x823 JUMPI PUSH1 0x20 CALLDATASIZE PUSH1 0x3 NOT ADD SLT PUSH2 0x823 JUMPI PUSH1 0x4 CALLDATALOAD PUSH1 0x1 PUSH1 0x1 PUSH1 0xA0 SHL SUB DUP2 AND DUP2 SUB PUSH2 0x752 JUMPI PUSH2 0xBAC SWAP1 PUSH2 0x234F PUSH2 0x5C2F JUMP JUMPDEST PUSH1 0x20 DUP5 PUSH2 0x74B DUP5 PUSH2 0x2828 CALLDATASIZE PUSH1 0x4 PUSH2 0x39AC JUMP JUMPDEST SWAP3 SWAP2 SWAP1 SWAP2 PUSH2 0x5410 JUMP JUMPDEST DUP4 DUP3 CALLVALUE PUSH2 0x823 JUMPI DUP1 PUSH1 0x3 NOT CALLDATASIZE ADD SLT PUSH2 0x823 JUMPI POP PUSH32 0x0 PUSH1 0x1 PUSH1 0x1 PUSH1 0xA0 SHL SUB AND ADDRESS SUB PUSH2 0x289D JUMPI PUSH1 0x20 SWAP1 MLOAD PUSH32 0x360894A13BA1A3210667C828492DB98DCA3E2076CC3735A920A3CA505D382BBC DUP2 MSTORE RETURN JUMPDEST MLOAD PUSH3 0x461BCD PUSH1 0xE5 SHL DUP2 MSTORE PUSH1 0x20 PUSH1 0x4 DUP3 ADD MSTORE PUSH1 0x38 PUSH1 0x24 DUP3 ADD MSTORE PUSH32 0x555550535570677261646561626C653A206D757374206E6F742062652063616C PUSH1 0x44 DUP3 ADD MSTORE PUSH32 0x6C6564207468726F7567682064656C656761746563616C6C0000000000000000 PUSH1 0x64 DUP3 ADD MSTORE PUSH1 0x84 SWAP1 REVERT JUMPDEST POP CALLVALUE PUSH2 0x823 JUMPI DUP1 PUSH1 0x3 NOT CALLDATASIZE ADD SLT PUSH2 0x823 JUMPI PUSH2 0x291F PUSH2 0x5C2F JUMP JUMPDEST PUSH1 0xFF NOT PUSH1 0xCA SLOAD AND PUSH1 0xCA SSTORE DUP1 RETURN JUMPDEST POP DUP3 DUP1 PUSH1 0x3 NOT CALLDATASIZE ADD SLT PUSH2 0x790 JUMPI PUSH1 0x4 CALLDATALOAD SWAP1 PUSH1 0x1 PUSH1 0x1 PUSH1 0xA0 SHL SUB SWAP1 DUP2 DUP4 AND DUP4 SUB PUSH2 0x752 JUMPI DUP4 SWAP3 PUSH1 0x24 CALLDATALOAD SWAP3 PUSH8 0xFFFFFFFFFFFFFFFF DUP5 GT PUSH2 0x2A1C JUMPI CALLDATASIZE PUSH1 0x23 DUP6 ADD SLT ISZERO PUSH2 0x2A1C JUMPI DUP4 PUSH1 0x4 ADD CALLDATALOAD SWAP1 PUSH2 0x298A PUSH2 0x2981 DUP4 PUSH2 0x3990 JUMP JUMPDEST SWAP5 MLOAD SWAP5 DUP6 PUSH2 0x3958 JUMP JUMPDEST DUP2 DUP5 MSTORE CALLDATASIZE PUSH1 0x24 DUP4 DUP8 ADD ADD GT PUSH2 0x2A18 JUMPI PUSH2 0xBAC SWAP6 PUSH1 0x20 DUP4 PUSH2 0x2A0B SWAP5 PUSH1 0x24 PUSH1 0x1 SWAP10 ADD DUP4 DUP10 ADD CALLDATACOPY DUP7 ADD ADD MSTORE DUP1 PUSH32 0x0 AND SWAP1 PUSH2 0x29E2 DUP3 ADDRESS EQ ISZERO PUSH2 0x3A7D JUMP JUMPDEST PUSH32 0x360894A13BA1A3210667C828492DB98DCA3E2076CC3735A920A3CA505D382BBC SLOAD AND EQ PUSH2 0x3ADE JUMP JUMPDEST PUSH2 0x2A13 PUSH2 0x5C2F JUMP JUMPDEST PUSH2 0x3B3F JUMP JUMPDEST DUP6 DUP1 REVERT JUMPDEST DUP5 DUP1 REVERT JUMPDEST POP DUP3 CALLVALUE PUSH2 0x790 JUMPI DUP2 PUSH1 0x3 NOT CALLDATASIZE ADD SLT PUSH2 0x790 JUMPI PUSH1 0x20 SWAP1 PUSH2 0x13B SLOAD SWAP1 MLOAD SWAP1 DUP2 MSTORE RETURN JUMPDEST POP DUP3 CALLVALUE PUSH2 0x790 JUMPI DUP2 PUSH1 0x3 NOT CALLDATASIZE ADD SLT PUSH2 0x790 JUMPI PUSH2 0x147 SLOAD SWAP1 MLOAD PUSH1 0x1 PUSH1 0x1 PUSH1 0xA0 SHL SUB SWAP1 SWAP2 AND DUP2 MSTORE PUSH1 0x20 SWAP1 RETURN JUMPDEST POP DUP3 CALLVALUE PUSH2 0x790 JUMPI DUP2 PUSH1 0x3 NOT CALLDATASIZE ADD SLT PUSH2 0x790 JUMPI PUSH1 0x20 SWAP1 PUSH2 0x14C SLOAD SWAP1 MLOAD SWAP1 DUP2 MSTORE RETURN JUMPDEST POP DUP3 CALLVALUE PUSH2 0x790 JUMPI PUSH1 0x20 CALLDATASIZE PUSH1 0x3 NOT ADD SLT PUSH2 0x790 JUMPI PUSH1 0x4 CALLDATALOAD PUSH2 0x137 DUP1 SLOAD DUP3 LT ISZERO PUSH2 0xA7F JUMPI SWAP1 PUSH2 0x2AB6 SWAP2 PUSH2 0x393C JUMP JUMPDEST POP DUP1 SLOAD PUSH1 0x1 SWAP1 SWAP2 ADD SLOAD DUP3 MLOAD SWAP2 DUP3 MSTORE PUSH1 0x1 PUSH1 0x1 PUSH1 0xA0 SHL SUB AND PUSH1 0x20 DUP3 ADD MSTORE RETURN JUMPDEST SWAP1 SWAP2 POP CALLVALUE PUSH2 0x790 JUMPI CALLDATASIZE PUSH1 0x3 NOT ADD SLT PUSH2 0x823 JUMPI POP PUSH2 0x2AEF PUSH2 0x55CA JUMP JUMPDEST POP PUSH2 0x14F SLOAD PUSH1 0x1 PUSH1 0x1 PUSH1 0xA0 SHL SUB SWAP1 DUP2 AND CALLER SUB PUSH2 0x1282 JUMPI PUSH2 0xDCE PUSH2 0xDC4 SWAP2 PUSH2 0x2B17 CALLDATASIZE PUSH1 0x4 PUSH2 0x5B83 JUMP JUMPDEST SWAP4 PUSH2 0x2B20 PUSH2 0x55CA JUMP JUMPDEST POP PUSH2 0x2B29 PUSH2 0x4EA3 JUMP JUMPDEST PUSH2 0x2B31 PUSH2 0x5CBD JUMP JUMPDEST PUSH2 0x1244 PUSH2 0xD64 DUP3 MLOAD PUSH4 0xD9B6C2E5 PUSH1 0xE0 SHL PUSH1 0x20 DUP3 ADD MSTORE PUSH2 0xD49 PUSH1 0x24 DUP3 ADD DUP10 PUSH2 0x51EB JUMP JUMPDEST POP DUP3 PUSH1 0x60 CALLDATASIZE PUSH1 0x3 NOT ADD SLT PUSH2 0x752 JUMPI PUSH1 0x4 CALLDATALOAD PUSH1 0x1 PUSH1 0x1 PUSH1 0xA0 SHL SUB DUP2 AND DUP2 SUB PUSH2 0x752 JUMPI PUSH1 0x20 SWAP3 PUSH2 0x74B SWAP2 CALLER SWAP1 PUSH1 0x44 CALLDATALOAD SWAP1 PUSH1 0x24 CALLDATALOAD SWAP1 PUSH2 0x4EC5 JUMP JUMPDEST DUP4 PUSH1 0x60 CALLDATASIZE PUSH1 0x3 NOT ADD SLT PUSH2 0x752 JUMPI PUSH1 0x44 CALLDATALOAD SWAP1 PUSH1 0x1 PUSH1 0x1 PUSH1 0xA0 SHL SUB DUP3 AND DUP3 SUB PUSH2 0x752 JUMPI PUSH2 0x74B PUSH1 0x20 SWAP3 CALLER PUSH1 0x24 CALLDATALOAD PUSH1 0x4 CALLDATALOAD PUSH2 0x531D JUMP JUMPDEST POP DUP3 PUSH1 0x60 CALLDATASIZE PUSH1 0x3 NOT ADD SLT PUSH2 0x752 JUMPI PUSH1 0x4 CALLDATALOAD PUSH1 0x1 PUSH1 0x1 PUSH1 0xA0 SHL SUB DUP2 AND DUP2 SUB PUSH2 0x752 JUMPI PUSH1 0x20 SWAP3 PUSH2 0x74B SWAP2 CALLER SWAP1 PUSH1 0x44 CALLDATALOAD SWAP1 PUSH1 0x24 CALLDATALOAD SWAP1 PUSH2 0x5410 JUMP JUMPDEST POP DUP3 PUSH1 0x60 CALLDATASIZE PUSH1 0x3 NOT ADD SLT PUSH2 0x752 JUMPI PUSH1 0x4 CALLDATALOAD PUSH1 0x1 PUSH1 0x1 PUSH1 0xA0 SHL SUB DUP2 AND DUP2 SUB PUSH2 0x752 JUMPI PUSH1 0x20 SWAP3 PUSH2 0x74B SWAP2 CALLER SWAP1 PUSH1 0x44 CALLDATALOAD SWAP1 PUSH1 0x24 CALLDATALOAD SWAP1 PUSH2 0x4F7F JUMP JUMPDEST POP DUP3 PUSH1 0x60 CALLDATASIZE PUSH1 0x3 NOT ADD SLT PUSH2 0x752 JUMPI PUSH1 0x44 CALLDATALOAD PUSH1 0x1 PUSH1 0x1 PUSH1 0xA0 SHL SUB DUP2 AND DUP2 SUB PUSH2 0x752 JUMPI PUSH1 0x20 SWAP3 PUSH2 0x74B SWAP2 PUSH1 0x24 CALLDATALOAD PUSH1 0x4 CALLDATALOAD PUSH2 0x4D4A JUMP JUMPDEST POP DUP3 CALLVALUE PUSH2 0x790 JUMPI DUP2 PUSH1 0x3 NOT CALLDATASIZE ADD SLT PUSH2 0x790 JUMPI PUSH1 0x20 SWAP1 PUSH2 0x13E SLOAD SWAP1 MLOAD SWAP1 DUP2 MSTORE RETURN JUMPDEST POP DUP3 CALLVALUE PUSH2 0x790 JUMPI DUP2 PUSH1 0x3 NOT CALLDATASIZE ADD SLT PUSH2 0x790 JUMPI PUSH1 0x20 SWAP1 PUSH2 0x74B PUSH2 0x2CA9 PUSH2 0x2CA1 PUSH2 0x4BF3 JUMP JUMPDEST SWAP2 SWAP1 SWAP2 PUSH2 0x4177 JUMP JUMPDEST SWAP2 PUSH2 0x49EE JUMP JUMPDEST POP DUP3 CALLVALUE PUSH2 0x790 JUMPI DUP2 PUSH1 0x3 NOT CALLDATASIZE ADD SLT PUSH2 0x790 JUMPI PUSH1 0xCA SLOAD PUSH1 0xFF DUP2 PUSH1 0x8 SHR AND ISZERO PUSH2 0x2D19 JUMPI PUSH1 0x10 DUP2 SWAP1 SHR PUSH1 0x1 PUSH1 0x1 PUSH1 0xA0 SHL SUB AND CALLER SUB PUSH2 0x1B09 JUMPI PUSH2 0xFF00 NOT AND PUSH1 0xCA SSTORE MLOAD CALLER DUP2 MSTORE PUSH32 0x5DB9EE0A495BF2E6FF9C91A7834C1BA4FDD244A5E8AA4E537BD38AEAE4B073AA SWAP1 PUSH1 0x20 SWAP1 LOG1 DUP1 RETURN JUMPDEST DUP2 MLOAD PUSH4 0x7C7FD079 PUSH1 0xE0 SHL DUP2 MSTORE PUSH1 0x4 SWAP1 REVERT JUMPDEST PUSH1 0x20 DUP5 PUSH2 0x74B PUSH2 0x2D3B CALLDATASIZE PUSH1 0x4 PUSH2 0x3916 JUMP JUMPDEST SWAP3 SWAP2 SWAP1 SWAP2 PUSH2 0x531D JUMP JUMPDEST POP CALLVALUE PUSH2 0x823 JUMPI PUSH1 0x20 CALLDATASIZE PUSH1 0x3 NOT ADD SLT PUSH2 0x823 JUMPI PUSH1 0x4 CALLDATALOAD PUSH1 0x1 PUSH1 0x1 PUSH1 0xA0 SHL SUB DUP2 AND SWAP1 DUP2 SWAP1 SUB PUSH2 0x752 JUMPI PUSH2 0x2D73 PUSH2 0x5C2F JUMP JUMPDEST PUSH2 0x14F DUP1 SLOAD PUSH1 0x1 PUSH1 0x1 PUSH1 0xA0 SHL SUB NOT AND SWAP1 SWAP2 OR SWAP1 SSTORE DUP1 RETURN JUMPDEST POP CALLVALUE PUSH2 0x823 JUMPI PUSH1 0x20 CALLDATASIZE PUSH1 0x3 NOT ADD SLT PUSH2 0x823 JUMPI PUSH2 0x2DA4 PUSH2 0x5C2F JUMP JUMPDEST PUSH1 0x4 CALLDATALOAD PUSH2 0x190 SSTORE DUP1 RETURN JUMPDEST SWAP1 DUP4 CALLVALUE PUSH2 0x790 JUMPI PUSH2 0x100 SWAP2 DUP3 PUSH1 0x3 NOT CALLDATASIZE ADD SLT PUSH2 0x823 JUMPI POP PUSH2 0x2DCD PUSH2 0x55CA JUMP JUMPDEST POP PUSH2 0x14F SLOAD PUSH1 0x1 PUSH1 0x1 PUSH1 0xA0 SHL SUB SWAP3 SWAP1 DUP4 AND CALLER SUB PUSH2 0x1282 JUMPI PUSH2 0x2DF0 DUP3 MLOAD SWAP2 DUP3 PUSH2 0x3958 JUMP JUMPDEST PUSH1 0x4 CALLDATALOAD DUP4 DUP2 AND DUP2 SUB PUSH2 0x752 JUMPI DUP2 MSTORE PUSH1 0x24 CALLDATALOAD DUP4 DUP2 AND DUP2 SUB PUSH2 0x752 JUMPI PUSH1 0x20 DUP3 ADD MSTORE PUSH1 0x44 CALLDATALOAD DUP3 DUP3 ADD MSTORE PUSH1 0x64 CALLDATALOAD PUSH1 0x60 DUP3 ADD MSTORE PUSH1 0x80 DUP2 ADD SWAP2 PUSH1 0x84 CALLDATALOAD DUP4 MSTORE PUSH1 0xA4 CALLDATALOAD SWAP1 DUP5 DUP3 AND DUP3 SUB PUSH2 0x752 JUMPI PUSH1 0xA0 DUP4 ADD SWAP2 DUP3 MSTORE PUSH1 0xC4 CALLDATALOAD DUP6 DUP2 AND DUP2 SUB PUSH2 0x752 JUMPI PUSH1 0xC0 DUP5 ADD MSTORE PUSH1 0xE4 CALLDATALOAD SWAP3 DUP6 DUP5 AND DUP5 SUB PUSH2 0x752 JUMPI DUP6 PUSH2 0xDCE SWAP6 PUSH2 0x2EAC PUSH2 0xD64 PUSH2 0x966 PUSH2 0xD59 DUP7 PUSH2 0x1484 SWAP14 PUSH2 0xDC4 SWAP9 ADD SWAP11 DUP12 MSTORE PUSH2 0x2E80 PUSH2 0x55CA JUMP JUMPDEST POP PUSH2 0x2E89 PUSH2 0x4EA3 JUMP JUMPDEST PUSH2 0x2E91 PUSH2 0x5CBD JUMP JUMPDEST DUP9 MLOAD PUSH4 0x70F090ED PUSH1 0xE1 SHL PUSH1 0x20 DUP3 ADD MSTORE SWAP3 DUP4 SWAP2 PUSH1 0x24 DUP4 ADD PUSH2 0x50E1 JUMP JUMPDEST SWAP9 SWAP3 DUP1 SWAP12 DUP11 SWAP7 SWAP4 SWAP14 SWAP3 SWAP10 DUP7 MLOAD PUSH2 0x1479 PUSH2 0x14E SWAP2 DUP3 SLOAD PUSH2 0x407B JUMP JUMPDEST POP DUP3 CALLVALUE PUSH2 0x790 JUMPI PUSH1 0x20 CALLDATASIZE PUSH1 0x3 NOT ADD SLT PUSH2 0x790 JUMPI PUSH1 0x4 CALLDATALOAD SWAP2 PUSH2 0x138 SWAP1 DUP2 SLOAD DUP5 LT ISZERO PUSH2 0x823 JUMPI POP PUSH1 0x20 SWAP3 PUSH2 0x1C09 SWAP2 PUSH2 0x37EA JUMP JUMPDEST POP DUP3 CALLVALUE PUSH2 0x790 JUMPI PUSH1 0x20 CALLDATASIZE PUSH1 0x3 NOT ADD SLT PUSH2 0x790 JUMPI PUSH1 0x4 CALLDATALOAD SWAP1 PUSH1 0x1 PUSH1 0x1 PUSH1 0xA0 SHL SUB SWAP1 DUP2 DUP4 AND DUP4 SUB PUSH2 0x752 JUMPI PUSH2 0xBAC SWAP3 PUSH2 0x2F59 DUP4 DUP7 SWAP5 PUSH32 0x0 AND SWAP1 PUSH2 0x29E2 DUP3 ADDRESS EQ ISZERO PUSH2 0x3A7D JUMP JUMPDEST PUSH2 0x2F61 PUSH2 0x5C2F JUMP JUMPDEST PUSH2 0x2F76 PUSH2 0x2F6D DUP5 PUSH2 0x3990 JUMP JUMPDEST SWAP3 MLOAD SWAP3 DUP4 PUSH2 0x3958 JUMP JUMPDEST DUP3 DUP3 MSTORE PUSH1 0x1F NOT PUSH2 0x2F85 DUP5 PUSH2 0x3990 JUMP JUMPDEST ADD CALLDATASIZE PUSH1 0x20 DUP5 ADD CALLDATACOPY PUSH2 0x3B3F JUMP JUMPDEST PUSH1 0x20 DUP5 PUSH2 0x74B DUP5 PUSH2 0x2FA3 CALLDATASIZE PUSH1 0x4 PUSH2 0x38AD JUMP JUMPDEST SWAP2 CALLER SWAP4 PUSH2 0x54DF JUMP JUMPDEST POP DUP3 CALLVALUE PUSH2 0x790 JUMPI DUP2 PUSH1 0x3 NOT CALLDATASIZE ADD SLT PUSH2 0x790 JUMPI PUSH2 0x2FC5 PUSH2 0x409E JUMP JUMPDEST PUSH2 0x2FCD PUSH2 0x5CBD JUMP JUMPDEST PUSH2 0x14B DUP1 SLOAD PUSH1 0xFF DUP2 AND DUP1 PUSH2 0x3098 JUMPI JUMPDEST DUP1 PUSH2 0x307E JUMPI JUMPDEST PUSH2 0x2FEA JUMPI DUP4 DUP1 RETURN JUMPDEST PUSH2 0xFF00 NOT AND PUSH2 0x100 OR SWAP1 SSTORE DUP1 MLOAD SWAP1 DUP3 SWAP1 PUSH32 0x8B77276C97A5709F0D6DB52329848A254EB760CE8BE80D281799F633BDB69E83 DUP3 DUP1 LOG1 PUSH2 0x133 SLOAD PUSH1 0x1 PUSH1 0x1 PUSH1 0xA0 SHL SUB AND DUP1 EXTCODESIZE ISZERO PUSH2 0x98A JUMPI DUP4 PUSH1 0x4 DUP2 DUP6 DUP1 SWAP5 PUSH4 0x8456CB59 PUSH1 0xE0 SHL DUP4 MSTORE GAS CALL SWAP1 DUP2 ISZERO PUSH2 0x3073 JUMPI POP PUSH2 0x3063 JUMPI JUMPDEST POP POP PUSH2 0x305C PUSH2 0x4394 JUMP JUMPDEST DUP2 DUP1 DUP1 DUP4 DUP1 RETURN JUMPDEST PUSH2 0x306C SWAP2 PUSH2 0x3958 JUMP JUMPDEST DUP2 DUP2 PUSH2 0x3052 JUMP JUMPDEST MLOAD SWAP2 RETURNDATASIZE SWAP2 POP DUP3 RETURNDATACOPY RETURNDATASIZE SWAP1 REVERT JUMPDEST POP PUSH2 0x308D PUSH2 0x1862 PUSH2 0xBFC PUSH2 0x4566 JUMP JUMPDEST PUSH2 0x14A SLOAD LT ISZERO PUSH2 0x2FE2 JUMP JUMPDEST POP PUSH1 0xFF DUP2 PUSH1 0x8 SHR AND ISZERO PUSH2 0x2FDC JUMP JUMPDEST POP DUP3 CALLVALUE PUSH2 0x790 JUMPI DUP2 PUSH1 0x3 NOT CALLDATASIZE ADD SLT PUSH2 0x790 JUMPI PUSH1 0x20 SWAP1 PUSH2 0x13F SLOAD SWAP1 MLOAD SWAP1 DUP2 MSTORE RETURN JUMPDEST POP DUP3 CALLVALUE PUSH2 0x790 JUMPI DUP2 PUSH1 0x3 NOT CALLDATASIZE ADD SLT PUSH2 0x790 JUMPI PUSH1 0x20 SWAP1 PUSH2 0x143 SLOAD SWAP1 MLOAD SWAP1 DUP2 MSTORE RETURN JUMPDEST POP CALLVALUE PUSH2 0x823 JUMPI PUSH1 0x20 CALLDATASIZE PUSH1 0x3 NOT ADD SLT PUSH2 0x823 JUMPI PUSH1 0x4 CALLDATALOAD PUSH1 0x1 PUSH1 0x1 PUSH1 0xA0 SHL SUB DUP2 AND DUP2 SUB PUSH2 0x790 JUMPI PUSH2 0x3113 PUSH2 0x5C2F JUMP JUMPDEST PUSH1 0xCA DUP1 SLOAD PUSH3 0x10000 PUSH1 0x1 PUSH1 0xB0 SHL SUB NOT AND PUSH1 0x10 SWAP3 SWAP1 SWAP3 SHL PUSH3 0x10000 PUSH1 0x1 PUSH1 0xB0 SHL SUB AND SWAP2 SWAP1 SWAP2 OR SWAP1 SSTORE DUP1 RETURN JUMPDEST POP CALLVALUE PUSH2 0x823 JUMPI PUSH1 0x20 CALLDATASIZE PUSH1 0x3 NOT ADD SLT PUSH2 0x823 JUMPI PUSH2 0x3157 PUSH2 0x5C2F JUMP JUMPDEST PUSH1 0x4 CALLDATALOAD PUSH2 0x14A SSTORE DUP1 RETURN JUMPDEST PUSH1 0x20 DUP5 PUSH2 0x74B PUSH2 0x3172 CALLDATASIZE PUSH1 0x4 PUSH2 0x382C JUMP JUMPDEST SWAP5 SWAP4 SWAP1 SWAP4 SWAP3 SWAP2 SWAP3 PUSH2 0x523B JUMP JUMPDEST POP DUP3 CALLVALUE PUSH2 0x790 JUMPI DUP2 PUSH1 0x3 NOT CALLDATASIZE ADD SLT PUSH2 0x790 JUMPI PUSH1 0x20 SWAP1 PUSH2 0x140 SLOAD SWAP1 MLOAD SWAP1 DUP2 MSTORE RETURN JUMPDEST POP CALLVALUE PUSH2 0x823 JUMPI PUSH1 0x20 CALLDATASIZE PUSH1 0x3 NOT ADD SLT PUSH2 0x823 JUMPI PUSH1 0x4 CALLDATALOAD PUSH1 0x1 PUSH1 0x1 PUSH1 0xA0 SHL SUB DUP2 AND SWAP1 DUP2 SWAP1 SUB PUSH2 0x790 JUMPI PUSH2 0x31CD PUSH2 0x5C2F JUMP JUMPDEST PUSH2 0x147 DUP1 SLOAD PUSH1 0x1 PUSH1 0x1 PUSH1 0xA0 SHL SUB NOT AND SWAP1 SWAP2 OR SWAP1 SSTORE DUP1 RETURN JUMPDEST POP DUP3 CALLVALUE PUSH2 0x790 JUMPI DUP2 PUSH1 0x3 NOT CALLDATASIZE ADD SLT PUSH2 0x790 JUMPI PUSH2 0x229 SLOAD SWAP1 MLOAD PUSH1 0x1 PUSH1 0x1 PUSH1 0xA0 SHL SUB SWAP1 SWAP2 AND DUP2 MSTORE PUSH1 0x20 SWAP1 RETURN JUMPDEST POP DUP3 CALLVALUE PUSH2 0x790 JUMPI PUSH1 0x20 CALLDATASIZE PUSH1 0x3 NOT ADD SLT PUSH2 0x790 JUMPI PUSH1 0x4 CALLDATALOAD PUSH1 0x1 PUSH1 0x1 PUSH1 0xA0 SHL SUB DUP2 AND SWAP1 DUP2 SWAP1 SUB PUSH2 0x98A JUMPI DUP3 DUP3 SWAP2 PUSH1 0x20 SWAP5 MSTORE PUSH2 0x144 DUP5 MSTORE KECCAK256 SLOAD SWAP1 MLOAD SWAP1 DUP2 MSTORE RETURN JUMPDEST POP DUP3 CALLVALUE PUSH2 0x790 JUMPI DUP2 PUSH1 0x3 NOT CALLDATASIZE ADD SLT PUSH2 0x790 JUMPI PUSH1 0x20 SWAP1 PUSH1 0xFF PUSH2 0x14B SLOAD PUSH1 0x8 SHR AND SWAP1 MLOAD SWAP1 ISZERO ISZERO DUP2 MSTORE RETURN JUMPDEST POP DUP3 CALLVALUE PUSH2 0x790 JUMPI PUSH1 0xA0 CALLDATASIZE PUSH1 0x3 NOT ADD SLT PUSH2 0x790 JUMPI PUSH2 0x328E PUSH2 0x55CA JUMP JUMPDEST POP PUSH2 0x14F SLOAD PUSH1 0x1 PUSH1 0x1 PUSH1 0xA0 SHL SUB SWAP3 SWAP1 DUP4 AND CALLER SUB PUSH2 0x1282 JUMPI SWAP1 PUSH2 0x331F SWAP2 PUSH2 0x32B5 CALLDATASIZE PUSH1 0x4 PUSH2 0x55F1 JUMP JUMPDEST SWAP2 PUSH2 0x32BE PUSH2 0x55CA JUMP JUMPDEST POP PUSH2 0x32C7 PUSH2 0x4EA3 JUMP JUMPDEST PUSH2 0x32CF PUSH2 0x5CBD JUMP JUMPDEST PUSH8 0xDE0B6B3A7640000 PUSH2 0x32F2 PUSH2 0x1048 PUSH2 0x32E9 PUSH2 0x15A0 PUSH2 0x4566 JUMP JUMPDEST DUP8 MLOAD SWAP3 SWAP2 PUSH2 0x49BA JUMP JUMPDEST DIV SWAP5 DUP2 DUP5 ADD SWAP1 DUP1 DUP3 MLOAD AND SWAP2 PUSH2 0x3314 PUSH1 0x80 DUP8 ADD SWAP4 DUP10 DUP5 DUP7 MLOAD AND PUSH2 0x13C SLOAD SWAP3 PUSH2 0x5691 JUMP JUMPDEST SWAP7 SWAP2 DUP11 SWAP10 SWAP2 SWAP10 PUSH2 0x4156 JUMP JUMPDEST SWAP7 PUSH1 0x20 DUP2 ADD SWAP10 DUP11 MLOAD DUP1 DUP11 GT PUSH2 0x3448 JUMPI POP DUP9 ISZERO PUSH2 0x3437 JUMPI DUP2 PUSH1 0x20 SWAP2 DUP7 PUSH1 0x60 PUSH2 0x33A2 SWAP7 SWAP6 MLOAD SWAP4 ADD MLOAD AND SWAP1 PUSH2 0x134 PUSH2 0x3355 DUP5 DUP3 SLOAD PUSH2 0x4156 JUMP JUMPDEST SWAP1 SSTORE PUSH2 0x3365 PUSH2 0x131 SWAP2 DUP3 SLOAD PUSH2 0x4156 JUMP JUMPDEST SWAP1 SSTORE PUSH2 0x133 SLOAD DUP10 MLOAD PUSH4 0x40C10F19 PUSH1 0xE0 SHL DUP2 MSTORE PUSH1 0x1 PUSH1 0x1 PUSH1 0xA0 SHL SUB SWAP1 SWAP3 AND PUSH1 0x4 DUP4 ADD MSTORE PUSH1 0x24 DUP3 ADD SWAP3 SWAP1 SWAP3 MSTORE SWAP4 DUP5 SWAP2 DUP8 AND SWAP1 DUP3 SWAP1 DUP6 SWAP1 DUP3 SWAP1 PUSH1 0x44 DUP3 ADD SWAP1 JUMP JUMPDEST SUB SWAP3 GAS CALL DUP1 ISZERO PUSH2 0x342B JUMPI PUSH2 0x33D5 JUMPI JUMPDEST POP POP SWAP7 PUSH2 0x111C SWAP3 DUP3 PUSH2 0x1484 DUP9 DUP9 SWAP6 PUSH2 0xDCE SWAP11 SWAP12 SWAP13 DUP7 MLOAD PUSH2 0x1479 PUSH2 0x14E SWAP2 DUP3 SLOAD PUSH2 0x407B JUMP JUMPDEST PUSH1 0x20 DUP3 RETURNDATASIZE DUP3 GT PUSH2 0x3423 JUMPI JUMPDEST DUP2 PUSH2 0x33ED PUSH1 0x20 SWAP4 DUP4 PUSH2 0x3958 JUMP JUMPDEST DUP2 ADD SUB SLT PUSH2 0x823 JUMPI POP SWAP3 DUP3 PUSH2 0x1484 DUP9 DUP9 SWAP6 PUSH2 0xDCE SWAP11 SWAP12 SWAP13 SWAP6 PUSH2 0x3411 PUSH2 0x111C SWAP10 PUSH2 0x3F7C JUMP JUMPDEST POP SWAP6 SWAP13 SWAP12 POP SWAP6 POP SWAP9 POP POP DUP2 SWAP5 POP PUSH2 0x33B1 JUMP JUMPDEST RETURNDATASIZE SWAP2 POP PUSH2 0x33E0 JUMP JUMPDEST POP DUP6 MLOAD SWAP1 RETURNDATASIZE SWAP1 DUP3 RETURNDATACOPY RETURNDATASIZE SWAP1 REVERT JUMPDEST DUP7 MLOAD PUSH4 0xF3E39B5D PUSH1 0xE0 SHL DUP2 MSTORE PUSH1 0x4 SWAP1 REVERT JUMPDEST PUSH1 0x44 SWAP1 DUP11 DUP10 MLOAD SWAP2 PUSH4 0xB63F1A7 PUSH1 0xE0 SHL DUP4 MSTORE PUSH1 0x4 DUP4 ADD MSTORE PUSH1 0x24 DUP3 ADD MSTORE REVERT JUMPDEST POP CALLVALUE PUSH2 0x823 JUMPI PUSH1 0x20 CALLDATASIZE PUSH1 0x3 NOT ADD SLT PUSH2 0x823 JUMPI PUSH2 0x347F PUSH2 0x5C2F JUMP JUMPDEST PUSH1 0x4 CALLDATALOAD PUSH2 0x142 SSTORE DUP1 RETURN JUMPDEST POP CALLVALUE PUSH2 0x823 JUMPI PUSH1 0x20 CALLDATASIZE PUSH1 0x3 NOT ADD SLT PUSH2 0x823 JUMPI PUSH1 0x4 CALLDATALOAD DUP1 ISZERO ISZERO DUP1 SWAP2 SUB PUSH2 0x790 JUMPI PUSH2 0x34B0 PUSH2 0x5C2F JUMP JUMPDEST PUSH2 0x14B SWAP1 PUSH1 0xFF DUP1 NOT DUP4 SLOAD AND SWAP2 AND OR SWAP1 SSTORE DUP1 RETURN JUMPDEST POP DUP3 CALLVALUE PUSH2 0x790 JUMPI DUP2 PUSH1 0x3 NOT CALLDATASIZE ADD SLT PUSH2 0x790 JUMPI PUSH1 0x20 SWAP1 PUSH2 0x74B PUSH2 0x34E6 PUSH2 0xBFC PUSH2 0x4566 JUMP JUMPDEST SWAP1 PUSH2 0x49BA JUMP JUMPDEST POP DUP3 CALLVALUE PUSH2 0x790 JUMPI DUP2 PUSH1 0x3 NOT CALLDATASIZE ADD SLT PUSH2 0x790 JUMPI PUSH1 0x20 SWAP1 PUSH2 0x14D SLOAD SWAP1 MLOAD SWAP1 DUP2 MSTORE RETURN JUMPDEST POP DUP3 CALLVALUE PUSH2 0x790 JUMPI PUSH1 0x20 CALLDATASIZE PUSH1 0x3 NOT ADD SLT PUSH2 0x790 JUMPI PUSH1 0x4 CALLDATALOAD SWAP2 PUSH1 0x1 PUSH1 0x1 PUSH1 0xA0 SHL SUB DUP4 AND DUP4 SUB PUSH2 0x823 JUMPI POP PUSH2 0x74B PUSH1 0x20 SWAP3 CALLER SWAP1 CALLER SWAP1 PUSH2 0x47A4 JUMP JUMPDEST PUSH1 0x20 DUP5 PUSH2 0x74B PUSH2 0x3554 CALLDATASIZE PUSH1 0x4 PUSH2 0x382C JUMP JUMPDEST SWAP5 SWAP4 SWAP1 SWAP4 SWAP3 SWAP2 SWAP3 PUSH2 0x5145 JUMP JUMPDEST POP DUP3 CALLVALUE PUSH2 0x790 JUMPI DUP2 PUSH1 0x3 NOT CALLDATASIZE ADD SLT PUSH2 0x790 JUMPI PUSH2 0x14F SLOAD SWAP1 MLOAD PUSH1 0x1 PUSH1 0x1 PUSH1 0xA0 SHL SUB SWAP1 SWAP2 AND DUP2 MSTORE PUSH1 0x20 SWAP1 RETURN JUMPDEST POP CALLVALUE PUSH2 0x823 JUMPI PUSH1 0x20 CALLDATASIZE PUSH1 0x3 NOT ADD SLT PUSH2 0x823 JUMPI PUSH1 0x4 CALLDATALOAD PUSH1 0x1 PUSH1 0x1 PUSH1 0xA0 SHL SUB DUP2 AND SWAP1 DUP2 SWAP1 SUB PUSH2 0x790 JUMPI PUSH2 0x35B9 PUSH2 0x5C2F JUMP JUMPDEST PUSH2 0x130 DUP1 SLOAD PUSH1 0x1 PUSH1 0x1 PUSH1 0xA0 SHL SUB NOT AND SWAP1 SWAP2 OR SWAP1 SSTORE DUP1 RETURN JUMPDEST POP CALLVALUE PUSH2 0x823 JUMPI PUSH1 0x20 CALLDATASIZE PUSH1 0x3 NOT ADD SLT PUSH2 0x823 JUMPI PUSH2 0x35EA PUSH2 0x5C2F JUMP JUMPDEST PUSH1 0x4 CALLDATALOAD PUSH2 0x13F SSTORE DUP1 RETURN JUMPDEST POP DUP3 CALLVALUE PUSH2 0x790 JUMPI DUP2 PUSH1 0x3 NOT CALLDATASIZE ADD SLT PUSH2 0x790 JUMPI PUSH1 0x20 SWAP1 PUSH2 0x159 SLOAD SWAP1 MLOAD SWAP1 DUP2 MSTORE RETURN JUMPDEST POP CALLVALUE PUSH2 0x823 JUMPI PUSH1 0x20 CALLDATASIZE PUSH1 0x3 NOT ADD SLT PUSH2 0x823 JUMPI PUSH1 0x4 CALLDATALOAD PUSH1 0x1 PUSH1 0x1 PUSH1 0xA0 SHL SUB DUP2 AND SWAP1 DUP2 SWAP1 SUB PUSH2 0x790 JUMPI PUSH2 0x3643 PUSH2 0x5C2F JUMP JUMPDEST PUSH2 0x146 DUP1 SLOAD PUSH1 0x1 PUSH1 0x1 PUSH1 0xA0 SHL SUB NOT AND SWAP1 SWAP2 OR SWAP1 SSTORE DUP1 RETURN JUMPDEST POP DUP3 CALLVALUE PUSH2 0x790 JUMPI DUP2 PUSH1 0x3 NOT CALLDATASIZE ADD SLT PUSH2 0x790 JUMPI PUSH1 0x20 SWAP1 PUSH2 0x18F SLOAD SWAP1 MLOAD SWAP1 DUP2 MSTORE RETURN JUMPDEST POP DUP3 CALLVALUE PUSH2 0x790 JUMPI DUP2 PUSH1 0x3 NOT CALLDATASIZE ADD SLT PUSH2 0x790 JUMPI PUSH1 0x97 SLOAD SWAP1 MLOAD PUSH1 0x1 PUSH1 0x1 PUSH1 0xA0 SHL SUB SWAP1 SWAP2 AND DUP2 MSTORE PUSH1 0x20 SWAP1 RETURN JUMPDEST POP DUP3 DUP1 PUSH1 0x3 NOT CALLDATASIZE ADD SLT PUSH2 0x790 JUMPI PUSH2 0x74B PUSH1 0x20 SWAP3 CALLER PUSH1 0x24 CALLDATALOAD PUSH1 0x4 CALLDATALOAD PUSH2 0x4D4A JUMP JUMPDEST POP CALLVALUE PUSH2 0x823 JUMPI PUSH1 0x20 CALLDATASIZE PUSH1 0x3 NOT ADD SLT PUSH2 0x823 JUMPI PUSH2 0x36DC PUSH2 0x5C2F JUMP JUMPDEST PUSH1 0x4 CALLDATALOAD PUSH2 0x15A SSTORE DUP1 RETURN JUMPDEST POP DUP3 CALLVALUE PUSH2 0x790 JUMPI DUP2 PUSH1 0x3 NOT CALLDATASIZE ADD SLT PUSH2 0x790 JUMPI PUSH2 0x3700 PUSH2 0x5CBD JUMP JUMPDEST PUSH2 0x15B DUP1 SLOAD NUMBER LT PUSH2 0x376E JUMPI SWAP1 PUSH2 0xBAC SWAP2 PUSH2 0x15A SLOAD NUMBER ADD SWAP1 SSTORE PUSH32 0xE37FDA283839477A1B77E29ACF8336C0E13A5DAA967913DF0FE5AD258C0822F PUSH1 0x20 PUSH8 0xDE0B6B3A7640000 PUSH2 0x3755 PUSH2 0x131 SLOAD PUSH2 0x159 SLOAD SWAP1 PUSH2 0x4288 JUMP JUMPDEST DIV SWAP3 MLOAD DUP4 DUP2 MSTORE LOG1 PUSH2 0x158 SLOAD PUSH1 0x1 PUSH1 0x1 PUSH1 0xA0 SHL SUB AND PUSH2 0x3F25 JUMP JUMPDEST DUP2 MLOAD PUSH4 0xACCE20E5 PUSH1 0xE0 SHL DUP2 MSTORE PUSH1 0x4 SWAP1 REVERT JUMPDEST POP DUP3 CALLVALUE PUSH2 0x790 JUMPI PUSH1 0x20 CALLDATASIZE PUSH1 0x3 NOT ADD SLT PUSH2 0x790 JUMPI PUSH1 0x4 CALLDATALOAD SWAP2 PUSH2 0x135 SWAP1 DUP2 SLOAD DUP5 LT ISZERO PUSH2 0x823 JUMPI POP PUSH1 0x20 SWAP3 PUSH2 0x37B0 SWAP2 PUSH2 0x37EA JUMP JUMPDEST SWAP1 SLOAD SWAP2 MLOAD SWAP2 PUSH1 0x1 DUP1 PUSH1 0xA0 SHL SUB SWAP2 PUSH1 0x3 SHL SHR AND DUP2 MSTORE RETURN JUMPDEST POP CALLVALUE PUSH2 0x823 JUMPI PUSH1 0x20 CALLDATASIZE PUSH1 0x3 NOT ADD SLT PUSH2 0x823 JUMPI PUSH2 0x37E0 PUSH2 0x5C2F JUMP JUMPDEST PUSH1 0x4 CALLDATALOAD PUSH2 0x13A SSTORE DUP1 RETURN JUMPDEST DUP1 SLOAD DUP3 LT ISZERO PUSH2 0x3802 JUMPI PUSH1 0x0 MSTORE PUSH1 0x20 PUSH1 0x0 KECCAK256 ADD SWAP1 PUSH1 0x0 SWAP1 JUMP JUMPDEST PUSH4 0x4E487B71 PUSH1 0xE0 SHL PUSH1 0x0 MSTORE PUSH1 0x32 PUSH1 0x4 MSTORE PUSH1 0x24 PUSH1 0x0 REVERT JUMPDEST CALLDATALOAD SWAP1 PUSH1 0x1 PUSH1 0x1 PUSH1 0xA0 SHL SUB DUP3 AND DUP3 SUB PUSH2 0x752 JUMPI JUMP JUMPDEST SWAP2 SWAP1 DUP3 PUSH1 0xC0 SWAP2 SUB SLT PUSH2 0x752 JUMPI PUSH2 0x3841 DUP3 PUSH2 0x3818 JUMP JUMPDEST SWAP2 PUSH1 0x20 DUP2 ADD CALLDATALOAD SWAP2 PUSH1 0x40 DUP3 ADD CALLDATALOAD SWAP2 PUSH1 0x60 DUP2 ADD CALLDATALOAD SWAP2 PUSH2 0x386C PUSH1 0xA0 PUSH2 0x3865 PUSH1 0x80 DUP6 ADD PUSH2 0x3818 JUMP JUMPDEST SWAP4 ADD PUSH2 0x3818 JUMP JUMPDEST SWAP1 JUMP JUMPDEST PUSH1 0x40 SWAP1 PUSH2 0x38AB SWAP4 SWAP6 SWAP5 SWAP3 SWAP6 PUSH1 0xC0 DUP3 ADD SWAP7 DUP3 MSTORE PUSH1 0x20 DUP3 ADD MSTORE ADD SWAP1 PUSH1 0x60 DUP1 SWAP2 DUP1 MLOAD DUP5 MSTORE PUSH1 0x20 DUP2 ADD MLOAD PUSH1 0x20 DUP6 ADD MSTORE PUSH1 0x40 DUP2 ADD MLOAD PUSH1 0x40 DUP6 ADD MSTORE ADD MLOAD SWAP2 ADD MSTORE JUMP JUMPDEST JUMP JUMPDEST SWAP2 SWAP1 DUP3 PUSH1 0x80 SWAP2 SUB SLT PUSH2 0x752 JUMPI PUSH2 0x38C2 DUP3 PUSH2 0x3818 JUMP JUMPDEST SWAP2 PUSH1 0x20 DUP2 ADD CALLDATALOAD SWAP2 PUSH1 0x60 PUSH1 0x40 DUP4 ADD CALLDATALOAD SWAP3 ADD CALLDATALOAD SWAP1 JUMP JUMPDEST PUSH2 0x38AB SWAP4 PUSH1 0x60 SWAP3 SWAP7 SWAP6 SWAP4 PUSH1 0xE0 DUP4 ADD SWAP8 DUP4 MSTORE PUSH1 0x20 DUP4 ADD MSTORE PUSH1 0x40 DUP3 ADD MSTORE ADD SWAP1 PUSH1 0x60 DUP1 SWAP2 DUP1 MLOAD DUP5 MSTORE PUSH1 0x20 DUP2 ADD MLOAD PUSH1 0x20 DUP6 ADD MSTORE PUSH1 0x40 DUP2 ADD MLOAD PUSH1 0x40 DUP6 ADD MSTORE ADD MLOAD SWAP2 ADD MSTORE JUMP JUMPDEST SWAP2 SWAP1 DUP3 PUSH1 0x80 SWAP2 SUB SLT PUSH2 0x752 JUMPI DUP2 CALLDATALOAD SWAP2 PUSH1 0x20 DUP2 ADD CALLDATALOAD SWAP2 PUSH2 0x386C PUSH1 0x60 PUSH2 0x3865 PUSH1 0x40 DUP6 ADD PUSH2 0x3818 JUMP JUMPDEST DUP1 SLOAD DUP3 LT ISZERO PUSH2 0x3802 JUMPI PUSH1 0x0 MSTORE PUSH1 0x20 PUSH1 0x0 KECCAK256 SWAP1 PUSH1 0x1 SHL ADD SWAP1 PUSH1 0x0 SWAP1 JUMP JUMPDEST SWAP1 PUSH1 0x1F DUP1 NOT SWAP2 ADD AND DUP2 ADD SWAP1 DUP2 LT PUSH8 0xFFFFFFFFFFFFFFFF DUP3 GT OR PUSH2 0x397A JUMPI PUSH1 0x40 MSTORE JUMP JUMPDEST PUSH4 0x4E487B71 PUSH1 0xE0 SHL PUSH1 0x0 MSTORE PUSH1 0x41 PUSH1 0x4 MSTORE PUSH1 0x24 PUSH1 0x0 REVERT JUMPDEST PUSH8 0xFFFFFFFFFFFFFFFF DUP2 GT PUSH2 0x397A JUMPI PUSH1 0x1F ADD PUSH1 0x1F NOT AND PUSH1 0x20 ADD SWAP1 JUMP JUMPDEST SWAP2 SWAP1 DUP3 PUSH1 0x80 SWAP2 SUB SLT PUSH2 0x752 JUMPI PUSH2 0x39C1 DUP3 PUSH2 0x3818 JUMP JUMPDEST SWAP2 PUSH1 0x20 DUP2 ADD CALLDATALOAD SWAP2 PUSH2 0x386C PUSH1 0x60 PUSH1 0x40 DUP5 ADD CALLDATALOAD SWAP4 ADD PUSH2 0x3818 JUMP JUMPDEST SWAP1 DUP2 PUSH1 0xA0 SWAP2 SUB SLT PUSH2 0x752 JUMPI PUSH2 0x39ED DUP2 PUSH2 0x3818 JUMP JUMPDEST SWAP2 PUSH1 0x20 DUP3 ADD CALLDATALOAD SWAP2 PUSH1 0x40 DUP2 ADD CALLDATALOAD SWAP2 PUSH2 0x386C PUSH1 0x80 PUSH1 0x60 DUP5 ADD CALLDATALOAD SWAP4 ADD PUSH2 0x3818 JUMP JUMPDEST SWAP2 SWAP1 DUP3 PUSH1 0xC0 SWAP2 SUB SLT PUSH2 0x752 JUMPI PUSH2 0x3A20 DUP3 PUSH2 0x3818 JUMP JUMPDEST SWAP2 PUSH2 0x3A2D PUSH1 0x20 DUP3 ADD PUSH2 0x3818 JUMP JUMPDEST SWAP2 PUSH1 0x40 DUP3 ADD CALLDATALOAD SWAP2 PUSH1 0x60 DUP2 ADD CALLDATALOAD SWAP2 PUSH2 0x386C PUSH1 0xA0 PUSH1 0x80 DUP5 ADD CALLDATALOAD SWAP4 ADD PUSH2 0x3818 JUMP JUMPDEST SWAP1 DUP2 PUSH1 0xA0 SWAP2 SUB SLT PUSH2 0x752 JUMPI PUSH2 0x3A5F DUP2 PUSH2 0x3818 JUMP JUMPDEST SWAP2 PUSH1 0x20 DUP3 ADD CALLDATALOAD SWAP2 PUSH1 0x40 DUP2 ADD CALLDATALOAD SWAP2 PUSH2 0x386C PUSH1 0x80 PUSH2 0x3865 PUSH1 0x60 DUP6 ADD PUSH2 0x3818 JUMP JUMPDEST ISZERO PUSH2 0x3A84 JUMPI JUMP JUMPDEST PUSH1 0x40 MLOAD PUSH3 0x461BCD PUSH1 0xE5 SHL DUP2 MSTORE PUSH1 0x20 PUSH1 0x4 DUP3 ADD MSTORE PUSH1 0x2C PUSH1 0x24 DUP3 ADD MSTORE PUSH32 0x46756E6374696F6E206D7573742062652063616C6C6564207468726F75676820 PUSH1 0x44 DUP3 ADD MSTORE PUSH12 0x19195B1959D85D1958D85B1B PUSH1 0xA2 SHL PUSH1 0x64 DUP3 ADD MSTORE PUSH1 0x84 SWAP1 REVERT JUMPDEST ISZERO PUSH2 0x3AE5 JUMPI JUMP JUMPDEST PUSH1 0x40 MLOAD PUSH3 0x461BCD PUSH1 0xE5 SHL DUP2 MSTORE PUSH1 0x20 PUSH1 0x4 DUP3 ADD MSTORE PUSH1 0x2C PUSH1 0x24 DUP3 ADD MSTORE PUSH32 0x46756E6374696F6E206D7573742062652063616C6C6564207468726F75676820 PUSH1 0x44 DUP3 ADD MSTORE PUSH12 0x6163746976652070726F7879 PUSH1 0xA0 SHL PUSH1 0x64 DUP3 ADD MSTORE PUSH1 0x84 SWAP1 REVERT JUMPDEST SWAP1 PUSH1 0xFF PUSH32 0x4910FDFA16FED3260ED0E7147F7CC6DA11A60208B5B9406D12A635614FFD9143 SLOAD AND PUSH1 0x0 EQ PUSH2 0x3B77 JUMPI POP PUSH2 0x38AB SWAP2 POP PUSH2 0x3D2B JUMP JUMPDEST PUSH1 0x40 MLOAD PUSH4 0x52D1902D PUSH1 0xE0 SHL DUP2 MSTORE PUSH1 0x20 SWAP4 SWAP2 SWAP3 SWAP2 SWAP1 PUSH1 0x1 PUSH1 0x1 PUSH1 0xA0 SHL SUB DUP4 AND SWAP1 DUP6 DUP2 PUSH1 0x4 DUP2 DUP6 GAS STATICCALL PUSH1 0x0 SWAP2 DUP2 PUSH2 0x3CFC JUMPI JUMPDEST POP PUSH2 0x3C08 JUMPI PUSH1 0x40 MLOAD PUSH3 0x461BCD PUSH1 0xE5 SHL DUP2 MSTORE PUSH1 0x4 DUP2 ADD DUP8 SWAP1 MSTORE PUSH1 0x2E PUSH1 0x24 DUP3 ADD MSTORE PUSH32 0x45524331393637557067726164653A206E657720696D706C656D656E74617469 PUSH1 0x44 DUP3 ADD MSTORE PUSH14 0x6F6E206973206E6F742055555053 PUSH1 0x90 SHL PUSH1 0x64 DUP3 ADD MSTORE PUSH1 0x84 SWAP1 REVERT JUMPDEST SWAP4 SWAP5 SWAP4 PUSH32 0xC9F76B5EC45E5CDEF99837D7B6D2467235C1DF8933C8CA56DF5C35AFA2C7D444 ADD PUSH2 0x3CA5 JUMPI PUSH2 0x3C3A DUP4 PUSH2 0x3D2B JUMP JUMPDEST PUSH32 0xBC7CD75A20EE27FD9ADEBAB32041F755214DBC6BFFA90CC0225B39DA2E5C2D3B PUSH1 0x0 DUP1 LOG2 DUP4 MLOAD ISZERO SWAP1 DUP2 ISZERO SWAP2 PUSH2 0x3C9D JUMPI JUMPDEST POP PUSH2 0x3C75 JUMPI POP POP POP JUMP JUMPDEST PUSH1 0x0 DUP1 PUSH2 0x3C9A SWAP5 PUSH2 0x3C84 PUSH2 0x3DCD JUMP JUMPDEST SWAP5 DUP2 MLOAD SWAP2 ADD DUP5 GAS DELEGATECALL PUSH2 0x3C94 PUSH2 0x3E21 JUMP JUMPDEST SWAP2 PUSH2 0x3E51 JUMP JUMPDEST POP JUMP JUMPDEST SWAP1 POP CODESIZE PUSH2 0x3C6B JUMP JUMPDEST PUSH1 0x40 MLOAD PUSH3 0x461BCD PUSH1 0xE5 SHL DUP2 MSTORE PUSH1 0x4 DUP2 ADD DUP6 SWAP1 MSTORE PUSH1 0x29 PUSH1 0x24 DUP3 ADD MSTORE PUSH32 0x45524331393637557067726164653A20756E737570706F727465642070726F78 PUSH1 0x44 DUP3 ADD MSTORE PUSH9 0x1A58589B1955555251 PUSH1 0xBA SHL PUSH1 0x64 DUP3 ADD MSTORE PUSH1 0x84 SWAP1 REVERT JUMPDEST SWAP1 SWAP2 DUP8 DUP3 DUP2 RETURNDATASIZE DUP4 GT PUSH2 0x3D24 JUMPI JUMPDEST PUSH2 0x3D13 DUP2 DUP4 PUSH2 0x3958 JUMP JUMPDEST DUP2 ADD SUB SLT PUSH2 0x823 JUMPI POP MLOAD SWAP1 CODESIZE PUSH2 0x3BA7 JUMP JUMPDEST POP RETURNDATASIZE PUSH2 0x3D09 JUMP JUMPDEST DUP1 EXTCODESIZE ISZERO PUSH2 0x3D72 JUMPI PUSH32 0x360894A13BA1A3210667C828492DB98DCA3E2076CC3735A920A3CA505D382BBC DUP1 SLOAD PUSH1 0x1 PUSH1 0x1 PUSH1 0xA0 SHL SUB NOT AND PUSH1 0x1 PUSH1 0x1 PUSH1 0xA0 SHL SUB SWAP1 SWAP3 AND SWAP2 SWAP1 SWAP2 OR SWAP1 SSTORE JUMP JUMPDEST PUSH1 0x40 MLOAD PUSH3 0x461BCD PUSH1 0xE5 SHL DUP2 MSTORE PUSH1 0x20 PUSH1 0x4 DUP3 ADD MSTORE PUSH1 0x2D PUSH1 0x24 DUP3 ADD MSTORE PUSH32 0x455243313936373A206E657720696D706C656D656E746174696F6E206973206E PUSH1 0x44 DUP3 ADD MSTORE PUSH13 0x1BDD08184818DBDB9D1C9858DD PUSH1 0x9A SHL PUSH1 0x64 DUP3 ADD MSTORE PUSH1 0x84 SWAP1 REVERT JUMPDEST PUSH2 0x3DD7 PUSH1 0x27 PUSH2 0x3990 JUMP JUMPDEST SWAP1 PUSH2 0x3DE5 PUSH1 0x40 MLOAD SWAP3 DUP4 PUSH2 0x3958 JUMP JUMPDEST PUSH1 0x27 DUP3 MSTORE PUSH7 0x819985A5B1959 PUSH1 0xCA SHL PUSH1 0x40 DUP4 PUSH32 0x416464726573733A206C6F772D6C6576656C2064656C65676174652063616C6C PUSH1 0x20 DUP3 ADD MSTORE ADD MSTORE JUMP JUMPDEST RETURNDATASIZE ISZERO PUSH2 0x3E4C JUMPI RETURNDATASIZE SWAP1 PUSH2 0x3E32 DUP3 PUSH2 0x3990 JUMP JUMPDEST SWAP2 PUSH2 0x3E40 PUSH1 0x40 MLOAD SWAP4 DUP5 PUSH2 0x3958 JUMP JUMPDEST DUP3 MSTORE RETURNDATASIZE PUSH1 0x0 PUSH1 0x20 DUP5 ADD RETURNDATACOPY JUMP JUMPDEST PUSH1 0x60 SWAP1 JUMP JUMPDEST SWAP2 SWAP3 SWAP1 ISZERO PUSH2 0x3EB3 JUMPI POP DUP2 MLOAD ISZERO PUSH2 0x3E65 JUMPI POP SWAP1 JUMP JUMPDEST EXTCODESIZE ISZERO PUSH2 0x3E6E JUMPI SWAP1 JUMP JUMPDEST PUSH1 0x40 MLOAD PUSH3 0x461BCD PUSH1 0xE5 SHL DUP2 MSTORE PUSH1 0x20 PUSH1 0x4 DUP3 ADD MSTORE PUSH1 0x1D PUSH1 0x24 DUP3 ADD MSTORE PUSH32 0x416464726573733A2063616C6C20746F206E6F6E2D636F6E7472616374000000 PUSH1 0x44 DUP3 ADD MSTORE PUSH1 0x64 SWAP1 REVERT JUMPDEST DUP3 MLOAD SWAP1 SWAP2 POP ISZERO PUSH2 0x3EC6 JUMPI POP DUP1 MLOAD SWAP1 PUSH1 0x20 ADD REVERT JUMPDEST PUSH1 0x40 MLOAD SWAP1 PUSH3 0x461BCD PUSH1 0xE5 SHL DUP3 MSTORE DUP2 PUSH1 0x20 DUP1 PUSH1 0x4 DUP4 ADD MSTORE DUP3 MLOAD SWAP1 DUP2 PUSH1 0x24 DUP5 ADD MSTORE PUSH1 0x0 SWAP4 JUMPDEST DUP3 DUP6 LT PUSH2 0x3F0C JUMPI POP POP PUSH1 0x44 SWAP3 POP PUSH1 0x0 DUP4 DUP3 DUP5 ADD ADD MSTORE PUSH1 0x1F DUP1 NOT SWAP2 ADD AND DUP2 ADD SUB ADD SWAP1 REVERT JUMPDEST DUP5 DUP2 ADD DUP3 ADD MLOAD DUP7 DUP7 ADD PUSH1 0x44 ADD MSTORE SWAP4 DUP2 ADD SWAP4 DUP6 SWAP4 POP PUSH2 0x3EE9 JUMP JUMPDEST SWAP1 DUP1 PUSH2 0x3F2F JUMPI POP POP JUMP JUMPDEST PUSH2 0x229 SLOAD PUSH1 0x40 MLOAD PUSH4 0xA9059CBB PUSH1 0xE0 SHL PUSH1 0x20 DUP3 ADD MSTORE PUSH1 0x1 PUSH1 0x1 PUSH1 0xA0 SHL SUB SWAP4 DUP5 AND PUSH1 0x24 DUP3 ADD MSTORE PUSH1 0x44 DUP2 ADD SWAP3 SWAP1 SWAP3 MSTORE PUSH2 0x38AB SWAP3 AND PUSH2 0x3F77 DUP3 PUSH1 0x64 DUP2 ADD JUMPDEST SUB PUSH1 0x1F NOT DUP2 ADD DUP5 MSTORE DUP4 PUSH2 0x3958 JUMP JUMPDEST PUSH2 0x3F89 JUMP JUMPDEST MLOAD SWAP1 DUP2 ISZERO ISZERO DUP3 SUB PUSH2 0x752 JUMPI JUMP JUMPDEST PUSH1 0x20 SWAP2 PUSH2 0x3FEC SWAP2 PUSH1 0x1 PUSH1 0x1 PUSH1 0xA0 SHL SUB AND PUSH1 0x0 DUP1 PUSH2 0x3FA5 DUP7 PUSH2 0x3990 JUMP JUMPDEST SWAP4 PUSH2 0x3FB3 PUSH1 0x40 MLOAD SWAP6 DUP7 PUSH2 0x3958 JUMP JUMPDEST DUP7 DUP6 MSTORE PUSH32 0x5361666545524332303A206C6F772D6C6576656C2063616C6C206661696C6564 DUP8 DUP7 ADD MSTORE DUP7 DUP2 MLOAD SWAP2 ADD DUP3 DUP6 GAS CALL PUSH2 0x3C94 PUSH2 0x3E21 JUMP JUMPDEST DUP1 MLOAD DUP3 DUP2 ISZERO SWAP2 DUP3 ISZERO PUSH2 0x405C JUMPI JUMPDEST POP POP SWAP1 POP ISZERO PUSH2 0x4005 JUMPI POP JUMP JUMPDEST PUSH1 0x84 SWAP1 PUSH1 0x40 MLOAD SWAP1 PUSH3 0x461BCD PUSH1 0xE5 SHL DUP3 MSTORE PUSH1 0x4 DUP3 ADD MSTORE PUSH1 0x2A PUSH1 0x24 DUP3 ADD MSTORE PUSH32 0x5361666545524332303A204552433230206F7065726174696F6E20646964206E PUSH1 0x44 DUP3 ADD MSTORE PUSH10 0x1BDD081CDD58D8D95959 PUSH1 0xB2 SHL PUSH1 0x64 DUP3 ADD MSTORE REVERT JUMPDEST DUP4 DUP1 SWAP3 SWAP4 POP ADD SUB SLT PUSH2 0x752 JUMPI DUP2 PUSH2 0x4073 SWAP2 ADD PUSH2 0x3F7C JUMP JUMPDEST DUP1 DUP3 CODESIZE PUSH2 0x3FF9 JUMP JUMPDEST SWAP2 SWAP1 DUP3 SUB SWAP2 DUP3 GT PUSH2 0x4088 JUMPI JUMP JUMPDEST PUSH4 0x4E487B71 PUSH1 0xE0 SHL PUSH1 0x0 MSTORE PUSH1 0x11 PUSH1 0x4 MSTORE PUSH1 0x24 PUSH1 0x0 REVERT JUMPDEST PUSH2 0x40A7 ADDRESS PUSH2 0x40DB JUMP JUMPDEST PUSH2 0x131 SWAP1 PUSH2 0x40C4 PUSH2 0x40BA DUP4 SLOAD DUP1 SWAP4 PUSH2 0x407B JUMP JUMPDEST PUSH2 0x14E SLOAD SWAP1 PUSH2 0x407B JUMP JUMPDEST DUP1 PUSH2 0x40CE JUMPI POP POP POP JUMP JUMPDEST PUSH2 0x40D7 SWAP2 PUSH2 0x4156 JUMP JUMPDEST SWAP1 SSTORE JUMP JUMPDEST PUSH2 0x229 SLOAD PUSH1 0x40 MLOAD PUSH4 0x70A08231 PUSH1 0xE0 SHL DUP2 MSTORE PUSH1 0x1 PUSH1 0x1 PUSH1 0xA0 SHL SUB SWAP3 DUP4 AND PUSH1 0x4 DUP3 ADD MSTORE SWAP2 PUSH1 0x20 SWAP2 DUP4 SWAP2 PUSH1 0x24 SWAP2 DUP4 SWAP2 AND GAS STATICCALL SWAP1 DUP2 ISZERO PUSH2 0x414A JUMPI PUSH1 0x0 SWAP2 PUSH2 0x411C JUMPI POP SWAP1 JUMP JUMPDEST SWAP1 PUSH1 0x20 DUP3 RETURNDATASIZE DUP3 GT PUSH2 0x4142 JUMPI JUMPDEST DUP2 PUSH2 0x4135 PUSH1 0x20 SWAP4 DUP4 PUSH2 0x3958 JUMP JUMPDEST DUP2 ADD SUB SLT PUSH2 0x823 JUMPI POP MLOAD SWAP1 JUMP JUMPDEST RETURNDATASIZE SWAP2 POP PUSH2 0x4128 JUMP JUMPDEST PUSH1 0x40 MLOAD RETURNDATASIZE PUSH1 0x0 DUP3 RETURNDATACOPY RETURNDATASIZE SWAP1 REVERT JUMPDEST SWAP2 SWAP1 DUP3 ADD DUP1 SWAP3 GT PUSH2 0x4088 JUMPI JUMP JUMPDEST DUP1 MLOAD DUP3 LT ISZERO PUSH2 0x3802 JUMPI PUSH1 0x20 SWAP2 PUSH1 0x5 SHL ADD ADD SWAP1 JUMP JUMPDEST SWAP1 PUSH1 0x0 SWAP2 PUSH1 0x0 SWAP1 PUSH2 0x137 DUP1 SLOAD SWAP1 PUSH1 0x0 SWAP3 JUMPDEST DUP3 DUP5 LT PUSH2 0x41AE JUMPI POP POP POP POP PUSH2 0x41AA PUSH8 0xDE0B6B3A7640000 SWAP2 PUSH2 0x139 SLOAD SWAP1 PUSH2 0x4288 JUMP JUMPDEST DIV SWAP1 JUMP JUMPDEST SWAP1 SWAP2 SWAP3 SWAP4 SWAP6 PUSH2 0x41FB PUSH2 0x41EA PUSH2 0x41F5 PUSH1 0x1 SWAP4 PUSH2 0x41EF PUSH2 0x41CC DUP11 DUP9 PUSH2 0x4163 JUMP JUMPDEST MLOAD PUSH2 0x41D7 DUP2 DUP13 PUSH2 0x4221 JUMP JUMPDEST SWAP6 SWAP1 PUSH2 0x41E3 DUP14 DUP13 PUSH2 0x393C JUMP JUMPDEST POP SLOAD PUSH2 0x4156 JUMP JUMPDEST PUSH2 0x5CDE JUMP JUMPDEST SWAP1 PUSH2 0x4156 JUMP JUMPDEST SWAP9 PUSH2 0x4156 JUMP JUMPDEST SWAP5 ADD SWAP3 SWAP2 SWAP1 PUSH2 0x4188 JUMP JUMPDEST SWAP2 SWAP1 SWAP2 PUSH1 0x0 DUP4 DUP3 ADD SWAP4 DUP5 SLT SWAP2 SLT SWAP1 DUP1 ISZERO DUP3 AND SWAP2 ISZERO AND OR PUSH2 0x4088 JUMPI JUMP JUMPDEST SWAP2 SWAP1 PUSH1 0x0 SWAP1 PUSH2 0x424F DUP2 PUSH1 0x0 SWAP6 PUSH2 0x4245 PUSH2 0x423C DUP3 PUSH2 0x150 PUSH2 0x37EA JUMP JUMPDEST SWAP4 SWAP1 SLOAD SWAP3 PUSH2 0x42D4 JUMP JUMPDEST SWAP2 PUSH1 0x3 SHL SHR PUSH2 0x4205 JUMP JUMPDEST PUSH1 0x0 DUP2 SGT PUSH2 0x425E JUMPI JUMPDEST POP POP SWAP2 SWAP1 JUMP JUMPDEST PUSH2 0x4280 SWAP2 SWAP5 POP PUSH2 0x26A6 SWAP3 POP DUP1 SWAP5 PUSH8 0xDE0B6B3A7640000 SWAP4 DUP5 SWAP2 PUSH2 0x13A SLOAD PUSH2 0x4288 JUMP JUMPDEST DIV CODESIZE DUP1 PUSH2 0x4258 JUMP JUMPDEST DUP2 DUP2 MUL SWAP3 SWAP2 DUP2 ISZERO SWAP2 DUP5 DIV EQ OR ISZERO PUSH2 0x4088 JUMPI JUMP JUMPDEST DUP2 ISZERO PUSH2 0x42A5 JUMPI DIV SWAP1 JUMP JUMPDEST PUSH4 0x4E487B71 PUSH1 0xE0 SHL PUSH1 0x0 MSTORE PUSH1 0x12 PUSH1 0x4 MSTORE PUSH1 0x24 PUSH1 0x0 REVERT JUMPDEST DUP2 DUP2 SUB SWAP3 SWAP2 PUSH1 0x0 SGT DUP1 ISZERO DUP3 DUP6 SGT AND SWAP2 DUP5 SLT AND OR PUSH2 0x4088 JUMPI JUMP JUMPDEST PUSH2 0x42E0 DUP2 PUSH2 0x137 PUSH2 0x393C JUMP JUMPDEST POP SLOAD SWAP1 PUSH8 0xDE0B6B3A7640000 SWAP2 DUP3 DUP2 MUL SWAP3 DUP2 DUP5 DIV EQ SWAP1 ISZERO OR ISZERO PUSH2 0x4088 JUMPI PUSH2 0x386C SWAP3 PUSH2 0x4320 PUSH2 0x4313 PUSH2 0x4326 SWAP4 PUSH2 0x151 PUSH2 0x37EA JUMP JUMPDEST SWAP1 SLOAD SWAP1 PUSH1 0x3 SHL SHR DUP5 PUSH2 0x429B JUMP JUMPDEST SWAP3 PUSH2 0x429B JUMP JUMPDEST SWAP1 PUSH2 0x42BB JUMP JUMPDEST DUP1 ISZERO PUSH2 0x4342 JUMPI PUSH2 0x41EA PUSH2 0x386C SWAP3 PUSH2 0x131 SLOAD PUSH2 0x407B JUMP JUMPDEST POP POP PUSH1 0x0 NOT SWAP1 JUMP JUMPDEST PUSH8 0xFFFFFFFFFFFFFFFF DUP2 GT PUSH2 0x397A JUMPI PUSH1 0x5 SHL PUSH1 0x20 ADD SWAP1 JUMP JUMPDEST SWAP1 PUSH2 0x436C DUP3 PUSH2 0x434A JUMP JUMPDEST PUSH2 0x4379 PUSH1 0x40 MLOAD SWAP2 DUP3 PUSH2 0x3958 JUMP JUMPDEST DUP3 DUP2 MSTORE DUP1 SWAP3 PUSH2 0x438A PUSH1 0x1F NOT SWAP2 PUSH2 0x434A JUMP JUMPDEST ADD SWAP1 PUSH1 0x20 CALLDATASIZE SWAP2 ADD CALLDATACOPY JUMP JUMPDEST PUSH2 0x131 SLOAD DUP1 ISZERO PUSH2 0x3C9A JUMPI PUSH2 0x137 SWAP1 DUP2 SLOAD SWAP2 PUSH1 0x0 SWAP1 PUSH2 0x43B1 DUP5 PUSH2 0x4362 JUMP JUMPDEST SWAP1 DUP3 SWAP1 JUMPDEST DUP6 DUP3 LT PUSH2 0x4420 JUMPI POP POP PUSH1 0x0 JUMPDEST DUP5 DUP2 LT PUSH2 0x43CF JUMPI POP POP POP POP POP JUMP JUMPDEST PUSH2 0x43EC DUP5 PUSH2 0x43E7 DUP6 PUSH2 0x43E1 DUP6 DUP8 PUSH2 0x4163 JUMP JUMPDEST MLOAD PUSH2 0x4288 JUMP JUMPDEST PUSH2 0x429B JUMP JUMPDEST SWAP1 PUSH2 0x138 SWAP2 DUP3 SLOAD PUSH9 0x10000000000000000 DUP2 LT ISZERO PUSH2 0x397A JUMPI PUSH2 0x26BF DUP2 PUSH1 0x1 SWAP6 DUP7 PUSH2 0x4418 SWAP5 ADD DUP2 SSTORE PUSH2 0x37EA JUMP JUMPDEST SWAP1 SSTORE ADD PUSH2 0x43C1 JUMP JUMPDEST SWAP1 SWAP3 PUSH2 0x445C PUSH1 0x1 SWAP2 PUSH2 0x4431 DUP7 PUSH2 0x449F JUMP JUMPDEST PUSH2 0x443B DUP8 DUP8 PUSH2 0x4163 JUMP JUMPDEST MSTORE PUSH2 0x41EF PUSH2 0x4449 DUP8 DUP7 PUSH2 0x393C JUMP JUMPDEST POP SLOAD PUSH2 0x4455 DUP9 DUP9 PUSH2 0x4163 JUMP JUMPDEST MLOAD SWAP1 PUSH2 0x5CDE JUMP JUMPDEST SWAP4 ADD SWAP1 PUSH2 0x43B5 JUMP JUMPDEST PUSH1 0x1 PUSH1 0x1 PUSH1 0xA0 SHL SUB AND PUSH1 0x0 SWAP1 DUP2 MSTORE PUSH2 0x136 PUSH1 0x20 MSTORE PUSH1 0x40 SWAP1 KECCAK256 PUSH1 0x1 DUP2 ADD SLOAD PUSH1 0xFF AND ISZERO PUSH2 0x448D JUMPI SLOAD SWAP1 JUMP JUMPDEST PUSH1 0x40 MLOAD PUSH4 0xE6C4247B PUSH1 0xE0 SHL DUP2 MSTORE PUSH1 0x4 SWAP1 REVERT JUMPDEST PUSH2 0x44AB SWAP1 PUSH2 0x137 PUSH2 0x393C JUMP JUMPDEST POP PUSH1 0x1 ADD SLOAD PUSH1 0x1 PUSH1 0x1 PUSH1 0xA0 SHL SUB AND PUSH2 0x44C2 DUP2 PUSH2 0x4500 JUMP JUMPDEST SWAP2 SWAP1 SWAP2 ISZERO PUSH2 0x44CE JUMPI POP SWAP1 JUMP JUMPDEST PUSH1 0x24 SWAP1 PUSH1 0x40 MLOAD SWAP1 PUSH4 0x7F6E4DB9 PUSH1 0xE0 SHL DUP3 MSTORE PUSH1 0x4 DUP3 ADD MSTORE REVERT JUMPDEST SWAP2 SWAP1 DUP3 PUSH1 0x40 SWAP2 SUB SLT PUSH2 0x752 JUMPI PUSH2 0x386C PUSH1 0x20 DUP4 MLOAD SWAP4 ADD PUSH2 0x3F7C JUMP JUMPDEST PUSH1 0x40 DUP1 MLOAD PUSH4 0x59E02DD7 PUSH1 0xE0 SHL DUP2 MSTORE SWAP3 SWAP2 DUP4 SWAP1 PUSH1 0x4 SWAP1 DUP3 SWAP1 PUSH1 0x1 PUSH1 0x1 PUSH1 0xA0 SHL SUB AND GAS STATICCALL SWAP2 DUP3 ISZERO PUSH2 0x414A JUMPI PUSH1 0x0 SWAP1 DUP2 SWAP4 PUSH2 0x4537 JUMPI POP SWAP2 SWAP1 JUMP JUMPDEST SWAP1 POP PUSH2 0x455B SWAP2 SWAP3 POP PUSH1 0x40 RETURNDATASIZE DUP2 GT PUSH2 0x455F JUMPI JUMPDEST PUSH2 0x4553 DUP2 DUP4 PUSH2 0x3958 JUMP JUMPDEST DUP2 ADD SWAP1 PUSH2 0x44E6 JUMP JUMPDEST SWAP1 SWAP2 JUMP JUMPDEST POP RETURNDATASIZE PUSH2 0x4549 JUMP JUMPDEST PUSH2 0x137 SLOAD SWAP1 PUSH2 0x4574 DUP3 PUSH2 0x4362 JUMP JUMPDEST SWAP2 PUSH1 0x0 JUMPDEST DUP2 DUP2 LT PUSH2 0x4583 JUMPI POP POP JUMP JUMPDEST DUP1 PUSH2 0x458F PUSH1 0x1 SWAP3 PUSH2 0x449F JUMP JUMPDEST PUSH2 0x4599 DUP3 DUP8 PUSH2 0x4163 JUMP JUMPDEST MSTORE ADD PUSH2 0x4578 JUMP JUMPDEST SWAP1 PUSH2 0x45C1 PUSH8 0xDE0B6B3A7640000 SWAP3 DUP4 PUSH2 0x157 SLOAD PUSH2 0x154 SLOAD SWAP3 NUMBER ADD SUB MUL PUSH2 0x429B JUMP JUMPDEST DUP3 DUP2 LT ISZERO PUSH2 0x45DE JUMPI DUP3 SUB SWAP2 DUP1 DUP4 PUSH2 0x155 SLOAD MUL DIV SWAP3 PUSH2 0x156 SLOAD MUL SDIV SWAP1 JUMP JUMPDEST POP PUSH1 0x0 SWAP2 POP DUP2 SWAP1 JUMP JUMPDEST SWAP1 SWAP2 PUSH2 0x45F1 PUSH2 0x4649 JUMP JUMPDEST SWAP3 SWAP1 DUP1 DUP3 LT ISZERO PUSH2 0x463F JUMPI DUP4 SWAP2 PUSH2 0x4606 SWAP2 PUSH2 0x407B JUMP JUMPDEST SWAP4 GT ISZERO PUSH2 0x463A JUMPI DUP2 DUP2 LT ISZERO PUSH2 0x4632 JUMPI PUSH2 0x461E SWAP2 PUSH2 0x407B JUMP JUMPDEST PUSH1 0x1 SHR DUP1 DUP3 LT ISZERO PUSH2 0x462D JUMPI POP SWAP1 JUMP JUMPDEST SWAP1 POP SWAP1 JUMP JUMPDEST POP POP POP PUSH1 0x0 SWAP1 JUMP JUMPDEST POP POP SWAP1 JUMP JUMPDEST POP POP POP POP POP PUSH1 0x0 SWAP1 JUMP JUMPDEST PUSH2 0x152 SLOAD PUSH1 0x40 DUP1 MLOAD PUSH4 0x59E02DD7 PUSH1 0xE0 SHL DUP1 DUP3 MSTORE SWAP4 SWAP3 SWAP1 SWAP2 SWAP1 PUSH1 0x1 PUSH1 0x1 PUSH1 0xA0 SHL SUB SWAP1 DUP2 AND DUP3 DUP5 PUSH1 0x4 DUP2 DUP5 GAS STATICCALL DUP1 ISZERO PUSH2 0x4739 JUMPI PUSH1 0x0 SWAP5 DUP6 SWAP2 PUSH2 0x4716 JUMPI JUMPDEST POP ISZERO PUSH2 0x46FF JUMPI POP PUSH2 0x153 SLOAD AND SWAP1 DUP1 MLOAD SWAP5 DUP6 MSTORE DUP1 DUP6 PUSH1 0x4 DUP2 DUP6 GAS STATICCALL DUP1 ISZERO PUSH2 0x46F4 JUMPI PUSH1 0x0 SWAP6 DUP7 SWAP2 PUSH2 0x46D1 JUMPI JUMPDEST POP ISZERO PUSH2 0x46BA JUMPI POP POP SWAP2 SWAP1 JUMP JUMPDEST PUSH1 0x24 SWAP3 POP MLOAD SWAP1 PUSH4 0x5E89893 PUSH1 0xE1 SHL DUP3 MSTORE PUSH1 0x4 DUP3 ADD MSTORE REVERT JUMPDEST SWAP1 POP DUP2 PUSH2 0x46EB SWAP3 SWAP7 POP RETURNDATASIZE DUP8 GT PUSH2 0x455F JUMPI PUSH2 0x4553 DUP2 DUP4 PUSH2 0x3958 JUMP JUMPDEST SWAP5 SWAP1 SWAP5 CODESIZE PUSH2 0x46AE JUMP JUMPDEST POP MLOAD RETURNDATASIZE PUSH1 0x0 DUP3 RETURNDATACOPY RETURNDATASIZE SWAP1 REVERT JUMPDEST PUSH1 0x24 SWAP1 DUP4 MLOAD SWAP1 PUSH4 0x5E89893 PUSH1 0xE1 SHL DUP3 MSTORE PUSH1 0x4 DUP3 ADD MSTORE REVERT JUMPDEST SWAP1 POP PUSH2 0x4730 SWAP2 SWAP5 POP DUP4 RETURNDATASIZE DUP6 GT PUSH2 0x455F JUMPI PUSH2 0x4553 DUP2 DUP4 PUSH2 0x3958 JUMP JUMPDEST SWAP4 SWAP1 SWAP4 CODESIZE PUSH2 0x4684 JUMP JUMPDEST DUP4 MLOAD RETURNDATASIZE PUSH1 0x0 DUP3 RETURNDATACOPY RETURNDATASIZE SWAP1 REVERT JUMPDEST ISZERO PUSH2 0x474B JUMPI JUMP JUMPDEST PUSH1 0x40 MLOAD PUSH3 0x461BCD PUSH1 0xE5 SHL DUP2 MSTORE PUSH1 0x20 PUSH1 0x4 DUP3 ADD MSTORE PUSH1 0x2B PUSH1 0x24 DUP3 ADD MSTORE PUSH32 0x496E697469616C697A61626C653A20636F6E7472616374206973206E6F742069 PUSH1 0x44 DUP3 ADD MSTORE PUSH11 0x6E697469616C697A696E67 PUSH1 0xA8 SHL PUSH1 0x64 DUP3 ADD MSTORE PUSH1 0x84 SWAP1 REVERT JUMPDEST PUSH2 0x480A SWAP2 PUSH2 0x47B0 PUSH2 0x5CBD JUMP JUMPDEST PUSH2 0x47B9 ADDRESS PUSH2 0x40DB JUMP JUMPDEST PUSH1 0x40 MLOAD PUSH4 0x6845C445 PUSH1 0xE0 SHL PUSH1 0x20 DUP3 ADD MSTORE PUSH1 0x1 PUSH1 0x1 PUSH1 0xA0 SHL SUB SWAP4 DUP5 AND PUSH1 0x24 DUP3 ADD MSTORE SWAP2 DUP4 AND PUSH1 0x44 DUP4 ADD MSTORE DUP5 DUP4 AND PUSH1 0x64 DUP4 ADD MSTORE PUSH1 0x84 DUP1 DUP4 ADD SWAP2 SWAP1 SWAP2 MSTORE DUP2 MSTORE SWAP1 PUSH2 0x4800 PUSH1 0xA4 DUP4 PUSH2 0x3958 JUMP JUMPDEST PUSH2 0x1F6 SLOAD AND PUSH2 0x4826 JUMP JUMPDEST PUSH1 0x20 DUP2 DUP1 MLOAD DUP2 ADD SUB SLT PUSH2 0x752 JUMPI PUSH1 0x20 PUSH2 0x386C SWAP2 ADD MLOAD DUP1 SWAP3 PUSH2 0x3F25 JUMP JUMPDEST SWAP1 PUSH2 0x386C SWAP2 PUSH1 0x0 DUP1 PUSH2 0x4836 PUSH2 0x3DCD JUMP JUMPDEST SWAP4 PUSH1 0x20 DUP2 MLOAD SWAP2 ADD DUP5 GAS DELEGATECALL PUSH2 0x3C94 PUSH2 0x3E21 JUMP JUMPDEST PUSH2 0x48B6 SWAP4 PUSH2 0x487D PUSH1 0x0 SWAP3 PUSH1 0x20 SWAP6 PUSH2 0x4861 DUP3 PUSH2 0x137 PUSH2 0x393C JUMP JUMPDEST POP PUSH2 0x486D DUP8 DUP3 SLOAD PUSH2 0x4156 JUMP JUMPDEST SWAP1 SSTORE PUSH2 0x1642 PUSH2 0x131 SWAP2 DUP3 SLOAD PUSH2 0x4156 JUMP JUMPDEST SWAP1 SLOAD PUSH1 0x40 MLOAD PUSH4 0x40C10F19 PUSH1 0xE0 SHL DUP2 MSTORE PUSH1 0x1 PUSH1 0x1 PUSH1 0xA0 SHL SUB SWAP1 SWAP4 AND PUSH1 0x4 DUP5 ADD MSTORE PUSH1 0x24 DUP4 ADD SWAP5 SWAP1 SWAP5 MSTORE SWAP1 SWAP5 DUP6 SWAP4 SWAP3 DUP5 SWAP3 SWAP1 SWAP2 DUP4 SWAP1 PUSH1 0x44 DUP3 ADD SWAP1 JUMP JUMPDEST SUB SWAP4 PUSH1 0x3 SWAP2 SWAP1 SWAP2 SHL SHR PUSH1 0x1 PUSH1 0x1 PUSH1 0xA0 SHL SUB AND GAS CALL DUP1 ISZERO PUSH2 0x414A JUMPI PUSH2 0x48D7 JUMPI POP JUMP JUMPDEST PUSH1 0x20 DUP2 RETURNDATASIZE DUP3 GT PUSH2 0x4900 JUMPI JUMPDEST DUP2 PUSH2 0x48EF PUSH1 0x20 SWAP4 DUP4 PUSH2 0x3958 JUMP JUMPDEST DUP2 ADD SUB SLT PUSH2 0x752 JUMPI PUSH2 0x3C9A SWAP1 PUSH2 0x3F7C JUMP JUMPDEST RETURNDATASIZE SWAP2 POP PUSH2 0x48E2 JUMP JUMPDEST PUSH2 0x26BF PUSH2 0x40D7 SWAP2 PUSH2 0x4919 DUP5 DUP3 PUSH2 0x42D4 JUMP JUMPDEST PUSH2 0x494F PUSH2 0x4928 DUP4 PUSH2 0x150 PUSH2 0x37EA JUMP JUMPDEST PUSH2 0x493B DUP3 SWAP5 SWAP3 SLOAD SWAP3 DUP4 DUP4 PUSH1 0x3 SHL SHR PUSH2 0x4205 JUMP JUMPDEST SWAP2 SWAP1 PUSH1 0x3 SHL SWAP2 DUP3 SHL SWAP2 PUSH1 0x0 NOT SWAP1 SHL NOT AND OR SWAP1 JUMP JUMPDEST SWAP1 SSTORE PUSH2 0x151 PUSH2 0x37EA JUMP JUMPDEST PUSH1 0xE0 DUP2 ADD SWAP3 SWAP2 PUSH1 0xC0 SWAP1 DUP2 SWAP1 PUSH1 0x1 PUSH1 0x1 PUSH1 0xA0 SHL SUB DUP1 PUSH2 0x4976 DUP4 PUSH2 0x3818 JUMP JUMPDEST AND DUP6 MSTORE PUSH2 0x4985 PUSH1 0x20 DUP4 ADD PUSH2 0x3818 JUMP JUMPDEST AND PUSH1 0x20 DUP6 ADD MSTORE PUSH1 0x40 DUP2 ADD CALLDATALOAD PUSH1 0x40 DUP6 ADD MSTORE PUSH1 0x60 DUP2 ADD CALLDATALOAD PUSH1 0x60 DUP6 ADD MSTORE PUSH1 0x80 DUP2 ADD CALLDATALOAD PUSH1 0x80 DUP6 ADD MSTORE PUSH1 0xA0 DUP2 ADD CALLDATALOAD PUSH1 0xA0 DUP6 ADD MSTORE ADD CALLDATALOAD SWAP2 ADD MSTORE JUMP JUMPDEST SWAP1 PUSH2 0x134 SLOAD SWAP1 DUP2 ISZERO PUSH2 0x49DF JUMPI PUSH2 0x386C SWAP3 PUSH2 0x49DA PUSH2 0x41EA SWAP3 PUSH2 0x131 SLOAD PUSH2 0x407B JUMP JUMPDEST PUSH2 0x407B JUMP JUMPDEST POP POP POP PUSH8 0xDE0B6B3A7640000 SWAP1 JUMP JUMPDEST DUP3 DUP3 PUSH2 0x49F9 SWAP3 PUSH2 0x4A16 JUMP JUMPDEST SWAP1 PUSH1 0x0 DUP3 SGT ISZERO PUSH2 0x4632 JUMPI PUSH2 0x386C SWAP3 PUSH2 0x4A10 SWAP2 PUSH2 0x49BA JUMP JUMPDEST SWAP1 PUSH2 0x429B JUMP JUMPDEST SWAP1 SWAP2 PUSH2 0x4A25 SWAP1 PUSH2 0x131 SLOAD PUSH2 0x407B JUMP JUMPDEST SWAP1 PUSH8 0xDE0B6B3A7640000 SWAP2 DUP3 DUP2 MUL SWAP3 DUP2 DUP5 DIV EQ SWAP1 ISZERO OR ISZERO PUSH2 0x4088 JUMPI PUSH2 0x386C SWAP3 PUSH2 0x4326 SWAP2 PUSH2 0x4288 JUMP JUMPDEST SWAP3 PUSH2 0x4A5B SWAP3 SWAP4 SWAP5 SWAP2 SWAP5 PUSH2 0x4A16 JUMP JUMPDEST DUP2 DUP2 MUL SWAP2 PUSH1 0x0 SWAP2 PUSH1 0x1 PUSH1 0xFF SHL SWAP2 DUP4 DUP3 SLT DUP4 DUP3 EQ AND PUSH2 0x4AFF JUMPI DUP2 DUP6 SDIV EQ SWAP1 ISZERO OR ISZERO PUSH2 0x4AEB JUMPI PUSH8 0xDE0B6B3A763FFFF NOT DUP5 ADD SWAP4 DUP5 GT PUSH2 0x4AEB JUMPI PUSH8 0xDE0B6B3A7640000 SWAP4 DUP5 DUP2 MUL SWAP5 DUP2 DUP7 DIV EQ SWAP1 ISZERO OR ISZERO PUSH2 0x4AEB JUMPI DUP4 ISZERO PUSH2 0x4AD7 JUMPI DUP3 EQ PUSH1 0x0 NOT DUP5 EQ AND PUSH2 0x4AC3 JUMPI POP SDIV SWAP1 JUMP JUMPDEST PUSH4 0x4E487B71 PUSH1 0xE0 SHL DUP2 MSTORE PUSH1 0x11 PUSH1 0x4 MSTORE PUSH1 0x24 SWAP1 REVERT JUMPDEST PUSH4 0x4E487B71 PUSH1 0xE0 SHL DUP3 MSTORE PUSH1 0x12 PUSH1 0x4 MSTORE PUSH1 0x24 DUP3 REVERT JUMPDEST PUSH4 0x4E487B71 PUSH1 0xE0 SHL DUP3 MSTORE PUSH1 0x11 PUSH1 0x4 MSTORE PUSH1 0x24 DUP3 REVERT JUMPDEST PUSH4 0x4E487B71 PUSH1 0xE0 SHL DUP5 MSTORE PUSH1 0x11 PUSH1 0x4 MSTORE PUSH1 0x24 DUP5 REVERT JUMPDEST PUSH2 0x14D SLOAD DUP1 NUMBER LT ISZERO PUSH2 0x4B2A JUMPI PUSH2 0x386C SWAP1 NUMBER SWAP1 PUSH2 0x407B JUMP JUMPDEST POP PUSH1 0x0 SWAP1 JUMP JUMPDEST SWAP1 PUSH1 0x40 MLOAD PUSH2 0x4B3F PUSH1 0x40 DUP3 PUSH2 0x3958 JUMP JUMPDEST PUSH1 0x20 PUSH1 0x1 DUP3 SWAP5 DUP1 SLOAD DUP5 MSTORE ADD SLOAD SWAP2 ADD MSTORE JUMP JUMPDEST PUSH2 0x4B5C DUP2 PUSH2 0x148 PUSH2 0x37EA JUMP JUMPDEST SWAP1 SLOAD SWAP1 PUSH1 0x3 SHL SHR SWAP2 PUSH2 0x18E SWAP2 PUSH2 0x4B72 DUP2 DUP5 PUSH2 0x393C JUMP JUMPDEST POP SLOAD SWAP3 PUSH2 0x18F SLOAD NUMBER LT ISZERO PUSH2 0x4B98 JUMPI JUMPDEST POP POP DUP1 DUP3 LT ISZERO PUSH2 0x463A JUMPI PUSH2 0x43E7 SWAP1 PUSH2 0x386C SWAP4 PUSH2 0x4288 JUMP JUMPDEST DUP3 SWAP4 POP PUSH2 0x4BAC PUSH2 0x4BB7 SWAP4 SWAP3 PUSH2 0x4BB2 SWAP3 PUSH2 0x393C JUMP JUMPDEST POP PUSH2 0x4B30 JUMP JUMPDEST PUSH2 0x4BBF JUMP JUMPDEST SWAP1 CODESIZE DUP1 PUSH2 0x4B81 JUMP JUMPDEST PUSH1 0x20 DUP2 MLOAD SWAP2 ADD DUP1 MLOAD SWAP3 PUSH8 0xDE0B6B3A7640000 SWAP4 DUP5 SUB SWAP1 DUP5 DUP3 GT PUSH2 0x4088 JUMPI PUSH2 0x4BEC PUSH2 0x41EF SWAP3 PUSH2 0x41AA SWAP6 PUSH2 0x4288 JUMP JUMPDEST SWAP3 MLOAD PUSH2 0x4288 JUMP JUMPDEST PUSH1 0x0 DUP1 PUSH2 0x137 SWAP2 DUP3 SLOAD SWAP3 PUSH2 0x4C06 DUP5 PUSH2 0x4362 JUMP JUMPDEST SWAP4 DUP3 SWAP2 JUMPDEST DUP2 DUP4 LT PUSH2 0x4C33 JUMPI POP POP POP DUP2 ISZERO PUSH2 0x4C27 JUMPI SWAP1 PUSH2 0x4C24 SWAP2 PUSH2 0x429B JUMP JUMPDEST SWAP2 JUMP JUMPDEST POP POP PUSH2 0x149 SLOAD PUSH1 0x1 SHL SWAP2 JUMP JUMPDEST SWAP1 SWAP2 SWAP4 SWAP3 PUSH2 0x4C40 DUP6 PUSH2 0x449F JUMP JUMPDEST SWAP1 DUP2 PUSH2 0x4C4C DUP8 DUP10 PUSH2 0x4163 JUMP JUMPDEST MSTORE PUSH2 0x4C65 PUSH2 0x4C5A DUP4 DUP9 PUSH2 0x4221 JUMP JUMPDEST POP PUSH2 0x41E3 DUP9 DUP7 PUSH2 0x393C JUMP JUMPDEST PUSH8 0xDE0B6B3A7640000 SWAP1 DUP2 DUP2 MUL SWAP2 DUP2 DUP4 DIV EQ SWAP1 ISZERO OR ISZERO PUSH2 0x4088 JUMPI PUSH2 0x4CA7 PUSH2 0x4CAD SWAP3 PUSH2 0x41EF DUP6 PUSH2 0x4C99 PUSH1 0x1 SWAP8 PUSH2 0x4CA2 SWAP7 PUSH2 0x5CDE JUMP JUMPDEST SWAP5 DUP6 SWAP2 DUP13 PUSH2 0x4B50 JUMP JUMPDEST PUSH2 0x4288 JUMP JUMPDEST SWAP6 PUSH2 0x4156 JUMP JUMPDEST SWAP5 ADD SWAP2 SWAP1 PUSH2 0x4C0A JUMP JUMPDEST PUSH2 0x18F DUP1 SLOAD NUMBER LT ISZERO PUSH2 0x4CC5 JUMPI POP JUMP JUMPDEST PUSH2 0x137 SLOAD PUSH1 0x0 JUMPDEST DUP2 DUP2 LT PUSH2 0x4CDF JUMPI POP POP PUSH2 0x190 SLOAD NUMBER ADD SWAP1 SSTORE JUMP JUMPDEST DUP1 DUP1 PUSH32 0x19156E9379C7BBBCE8F646CE5EE30BA860B8F954717405F3D5859A6C1A21AE60 PUSH1 0x1 SWAP4 PUSH2 0x18E PUSH2 0x4D15 PUSH2 0x4BAC DUP4 DUP4 PUSH2 0x393C JUMP JUMPDEST SWAP1 PUSH2 0x4D33 PUSH2 0x4D2B PUSH2 0x4D25 DUP6 PUSH2 0x449F JUMP JUMPDEST DUP5 PUSH2 0x4BBF JUMP JUMPDEST SWAP4 DUP5 SWAP3 PUSH2 0x393C JUMP JUMPDEST POP SSTORE MLOAD PUSH1 0x40 SWAP2 DUP3 MLOAD SWAP2 DUP3 MSTORE PUSH1 0x20 DUP3 ADD MSTORE LOG2 ADD PUSH2 0x4CCC JUMP JUMPDEST SWAP3 PUSH1 0xA4 PUSH2 0x4DE7 SWAP2 PUSH1 0x20 SWAP4 SWAP5 PUSH2 0x4D5D PUSH2 0x4EA3 JUMP JUMPDEST PUSH2 0x4D65 PUSH2 0x5CBD JUMP JUMPDEST PUSH1 0x40 MLOAD SWAP7 PUSH2 0x4D74 PUSH1 0xA0 DUP10 PUSH2 0x3958 JUMP JUMPDEST DUP8 MSTORE DUP5 DUP8 ADD DUP7 SWAP1 MSTORE CALLER PUSH1 0x40 DUP1 DUP10 ADD SWAP2 DUP3 MSTORE PUSH1 0x1 PUSH1 0x1 PUSH1 0xA0 SHL SUB SWAP3 DUP4 AND PUSH1 0x60 DUP11 ADD SWAP1 DUP2 MSTORE SWAP4 DUP4 AND PUSH1 0x80 DUP11 ADD SWAP1 DUP2 MSTORE PUSH2 0x14F SLOAD SWAP2 MLOAD PUSH4 0xE97A4D63 PUSH1 0xE0 SHL DUP2 MSTORE DUP11 MLOAD PUSH1 0x4 DUP3 ADD MSTORE PUSH1 0x20 SWAP1 SWAP11 ADD MLOAD PUSH1 0x24 DUP12 ADD MSTORE SWAP2 MLOAD DUP4 AND PUSH1 0x44 DUP11 ADD MSTORE SWAP3 MLOAD DUP3 AND PUSH1 0x64 DUP10 ADD MSTORE MLOAD DUP2 AND PUSH1 0x84 DUP9 ADD MSTORE DUP7 SWAP4 DUP5 SWAP3 SWAP1 SWAP2 AND SWAP1 JUMP JUMPDEST CALLVALUE SWAP1 GAS CALL SWAP2 DUP3 ISZERO PUSH2 0x414A JUMPI PUSH1 0x0 SWAP3 PUSH2 0x4E04 JUMPI JUMPDEST POP PUSH2 0x386C SWAP1 PUSH2 0x4E39 JUMP JUMPDEST SWAP1 SWAP2 PUSH1 0x20 DUP3 RETURNDATASIZE DUP3 GT PUSH2 0x4E31 JUMPI JUMPDEST DUP2 PUSH2 0x4E1E PUSH1 0x20 SWAP4 DUP4 PUSH2 0x3958 JUMP JUMPDEST DUP2 ADD SUB SLT PUSH2 0x823 JUMPI POP MLOAD SWAP1 PUSH2 0x386C PUSH2 0x4DFA JUMP JUMPDEST RETURNDATASIZE SWAP2 POP PUSH2 0x4E11 JUMP JUMPDEST PUSH2 0x38AB SWAP1 PUSH2 0x14E PUSH2 0x4E4B DUP3 DUP3 SLOAD PUSH2 0x4156 JUMP JUMPDEST SWAP1 SSTORE PUSH2 0x229 SLOAD ADDRESS SWAP1 CALLER SWAP1 PUSH1 0x1 PUSH1 0x1 PUSH1 0xA0 SHL SUB AND JUMPDEST PUSH1 0x40 MLOAD PUSH4 0x23B872DD PUSH1 0xE0 SHL PUSH1 0x20 DUP3 ADD MSTORE PUSH1 0x1 PUSH1 0x1 PUSH1 0xA0 SHL SUB SWAP3 DUP4 AND PUSH1 0x24 DUP3 ADD MSTORE SWAP3 SWAP1 SWAP2 AND PUSH1 0x44 DUP4 ADD MSTORE PUSH1 0x64 DUP1 DUP4 ADD SWAP4 SWAP1 SWAP4 MSTORE SWAP2 DUP2 MSTORE PUSH2 0x38AB SWAP2 PUSH2 0x3F77 PUSH1 0x84 DUP4 PUSH2 0x3958 JUMP JUMPDEST PUSH1 0xFF PUSH2 0x14B SLOAD PUSH1 0x8 SHR AND PUSH2 0x4EB3 JUMPI JUMP JUMPDEST PUSH1 0x40 MLOAD PUSH4 0x1CA61D77 PUSH1 0xE0 SHL DUP2 MSTORE PUSH1 0x4 SWAP1 REVERT JUMPDEST SWAP4 PUSH1 0x20 SWAP3 SWAP4 PUSH2 0x4DE7 SWAP3 PUSH1 0xC4 SWAP3 PUSH2 0x4ED9 PUSH2 0x4EA3 JUMP JUMPDEST PUSH2 0x4EE1 PUSH2 0x5CBD JUMP JUMPDEST PUSH1 0x40 MLOAD SWAP8 PUSH2 0x4EF0 PUSH1 0xC0 DUP11 PUSH2 0x3958 JUMP JUMPDEST PUSH1 0x1 DUP1 PUSH1 0xA0 SHL SUB SWAP4 DUP5 SWAP4 DUP5 DUP1 SWAP4 AND DUP12 MSTORE DUP9 DUP12 ADD MSTORE DUP9 PUSH1 0x40 DUP12 ADD MSTORE CALLER PUSH1 0x60 DUP12 ADD MSTORE AND PUSH1 0x80 DUP10 ADD MSTORE AND PUSH1 0xA0 DUP8 ADD MSTORE PUSH2 0x14F SLOAD AND SWAP5 PUSH1 0x40 MLOAD SWAP6 DUP7 SWAP4 DUP5 SWAP3 PUSH4 0x7E81A821 PUSH1 0xE0 SHL DUP5 MSTORE PUSH1 0x4 DUP5 ADD SWAP1 JUMPDEST PUSH1 0xA0 SWAP1 DUP2 PUSH1 0x1 DUP1 DUP3 SHL SUB SWAP2 DUP3 DUP2 MLOAD AND DUP6 MSTORE PUSH1 0x20 DUP2 ADD MLOAD PUSH1 0x20 DUP7 ADD MSTORE PUSH1 0x40 DUP2 ADD MLOAD PUSH1 0x40 DUP7 ADD MSTORE DUP3 PUSH1 0x60 DUP3 ADD MLOAD AND PUSH1 0x60 DUP7 ADD MSTORE DUP3 PUSH1 0x80 DUP3 ADD MLOAD AND PUSH1 0x80 DUP7 ADD MSTORE ADD MLOAD AND SWAP2 ADD MSTORE JUMP JUMPDEST SWAP4 PUSH1 0x20 SWAP3 SWAP4 PUSH2 0x4DE7 SWAP3 PUSH1 0xC4 SWAP3 PUSH2 0x4F93 PUSH2 0x4EA3 JUMP JUMPDEST PUSH2 0x4F9B PUSH2 0x5CBD JUMP JUMPDEST PUSH1 0x40 MLOAD SWAP8 PUSH2 0x4FAA PUSH1 0xC0 DUP11 PUSH2 0x3958 JUMP JUMPDEST PUSH1 0x1 DUP1 PUSH1 0xA0 SHL SUB SWAP4 DUP5 SWAP4 DUP5 DUP1 SWAP4 AND DUP12 MSTORE DUP9 DUP12 ADD MSTORE DUP9 PUSH1 0x40 DUP12 ADD MSTORE CALLER PUSH1 0x60 DUP12 ADD MSTORE AND PUSH1 0x80 DUP10 ADD MSTORE AND PUSH1 0xA0 DUP8 ADD MSTORE PUSH2 0x14F SLOAD AND SWAP5 PUSH1 0x40 MLOAD SWAP6 DUP7 SWAP4 DUP5 SWAP3 PUSH4 0x23EC24B5 PUSH1 0xE1 SHL DUP5 MSTORE PUSH1 0x4 DUP5 ADD SWAP1 PUSH2 0x4F3A JUMP JUMPDEST SWAP1 SWAP3 SWAP5 PUSH1 0x20 SWAP3 SWAP5 SWAP6 PUSH2 0x507F SWAP8 PUSH2 0x500C PUSH2 0x4EA3 JUMP JUMPDEST PUSH2 0x5014 PUSH2 0x5CBD JUMP JUMPDEST PUSH1 0x40 MLOAD SWAP4 PUSH2 0x5024 PUSH2 0x100 DUP7 PUSH2 0x3958 JUMP JUMPDEST PUSH1 0x1 DUP1 PUSH1 0xA0 SHL SUB SWAP4 DUP5 SWAP4 DUP5 DUP1 DUP1 SWAP5 AND SWAP10 DUP11 DUP10 MSTORE AND DUP9 DUP9 ADD MSTORE DUP10 PUSH1 0x40 DUP9 ADD MSTORE PUSH1 0x60 DUP8 ADD MSTORE DUP10 PUSH1 0x80 DUP8 ADD MSTORE CALLER PUSH1 0xA0 DUP8 ADD MSTORE AND PUSH1 0xC0 DUP6 ADD MSTORE AND PUSH1 0xE0 DUP4 ADD MSTORE PUSH2 0x14F SLOAD AND PUSH1 0x40 MLOAD DUP1 DUP1 SWAP9 DUP2 SWAP5 PUSH4 0x34975A41 PUSH1 0xE0 SHL DUP4 MSTORE PUSH1 0x4 DUP4 ADD PUSH2 0x50E1 JUMP JUMPDEST SUB SWAP2 CALLVALUE SWAP1 GAS CALL SWAP4 DUP5 ISZERO PUSH2 0x414A JUMPI PUSH1 0x0 SWAP5 PUSH2 0x50AC JUMPI JUMPDEST POP PUSH2 0x386C SWAP3 SWAP2 PUSH2 0x50A7 SWAP2 ADDRESS SWAP1 CALLER SWAP1 PUSH2 0x4E5F JUMP JUMPDEST PUSH2 0x4E39 JUMP JUMPDEST SWAP1 SWAP4 PUSH1 0x20 DUP3 RETURNDATASIZE DUP3 GT PUSH2 0x50D9 JUMPI JUMPDEST DUP2 PUSH2 0x50C6 PUSH1 0x20 SWAP4 DUP4 PUSH2 0x3958 JUMP JUMPDEST DUP2 ADD SUB SLT PUSH2 0x823 JUMPI POP MLOAD SWAP3 PUSH2 0x386C PUSH2 0x5094 JUMP JUMPDEST RETURNDATASIZE SWAP2 POP PUSH2 0x50B9 JUMP JUMPDEST SWAP2 SWAP1 SWAP2 PUSH1 0xE0 PUSH2 0x100 DUP3 ADD SWAP4 DUP2 PUSH1 0x1 DUP1 PUSH1 0xA0 SHL SUB SWAP2 DUP3 DUP2 MLOAD AND DUP6 MSTORE DUP3 PUSH1 0x20 DUP3 ADD MLOAD AND PUSH1 0x20 DUP7 ADD MSTORE PUSH1 0x40 DUP2 ADD MLOAD PUSH1 0x40 DUP7 ADD MSTORE PUSH1 0x60 DUP2 ADD MLOAD PUSH1 0x60 DUP7 ADD MSTORE PUSH1 0x80 DUP2 ADD MLOAD PUSH1 0x80 DUP7 ADD MSTORE DUP3 PUSH1 0xA0 DUP3 ADD MLOAD AND PUSH1 0xA0 DUP7 ADD MSTORE DUP3 PUSH1 0xC0 DUP3 ADD MLOAD AND PUSH1 0xC0 DUP7 ADD MSTORE ADD MLOAD AND SWAP2 ADD MSTORE JUMP JUMPDEST PUSH1 0xE4 DUP3 PUSH1 0x20 DUP1 SWAP5 SWAP7 SWAP8 SWAP9 PUSH2 0x51C6 SWAP5 PUSH2 0x515B PUSH2 0x4EA3 JUMP JUMPDEST PUSH2 0x5163 PUSH2 0x5CBD JUMP JUMPDEST PUSH1 0x40 MLOAD SWAP11 DUP12 SWAP9 PUSH2 0x5174 PUSH1 0xE0 DUP12 PUSH2 0x3958 JUMP JUMPDEST PUSH1 0x1 DUP1 PUSH1 0xA0 SHL SUB SWAP6 DUP7 SWAP6 DUP7 DUP1 SWAP6 AND SWAP12 DUP13 DUP2 MSTORE ADD MSTORE PUSH1 0x40 DUP14 ADD MSTORE DUP11 PUSH1 0x60 DUP14 ADD MSTORE CALLER PUSH1 0x80 DUP14 ADD MSTORE AND PUSH1 0xA0 DUP12 ADD MSTORE AND PUSH1 0xC0 DUP10 ADD MSTORE PUSH2 0x14F SLOAD AND SWAP7 PUSH1 0x40 MLOAD SWAP8 DUP9 SWAP4 DUP5 SWAP3 PUSH3 0x637447 PUSH1 0xE1 SHL DUP5 MSTORE PUSH1 0x4 DUP5 ADD SWAP1 PUSH2 0x51EB JUMP JUMPDEST CALLVALUE SWAP1 GAS CALL SWAP4 DUP5 ISZERO PUSH2 0x414A JUMPI PUSH1 0x0 SWAP5 PUSH2 0x50AC JUMPI POP PUSH2 0x386C SWAP3 SWAP2 PUSH2 0x50A7 SWAP2 ADDRESS SWAP1 CALLER SWAP1 PUSH2 0x4E5F JUMP JUMPDEST PUSH1 0xC0 SWAP1 DUP2 PUSH1 0x1 DUP1 PUSH1 0xA0 SHL SUB SWAP2 DUP3 DUP2 MLOAD AND DUP6 MSTORE PUSH1 0x20 DUP2 ADD MLOAD PUSH1 0x20 DUP7 ADD MSTORE PUSH1 0x40 DUP2 ADD MLOAD PUSH1 0x40 DUP7 ADD MSTORE PUSH1 0x60 DUP2 ADD MLOAD PUSH1 0x60 DUP7 ADD MSTORE DUP3 PUSH1 0x80 DUP3 ADD MLOAD AND PUSH1 0x80 DUP7 ADD MSTORE DUP3 PUSH1 0xA0 DUP3 ADD MLOAD AND PUSH1 0xA0 DUP7 ADD MSTORE ADD MLOAD AND SWAP2 ADD MSTORE JUMP JUMPDEST SWAP5 SWAP4 SWAP2 SWAP1 SWAP3 SWAP4 PUSH2 0x5249 PUSH2 0x4EA3 JUMP JUMPDEST PUSH2 0x5251 PUSH2 0x5CBD JUMP JUMPDEST PUSH1 0x40 MLOAD SWAP6 PUSH2 0x5260 PUSH1 0xE0 DUP9 PUSH2 0x3958 JUMP JUMPDEST PUSH1 0x1 DUP1 PUSH1 0xA0 SHL SUB SWAP4 DUP5 SWAP4 DUP5 DUP1 SWAP4 AND DUP10 MSTORE DUP7 PUSH1 0x20 DUP11 ADD MSTORE PUSH1 0x40 DUP10 ADD MSTORE DUP7 PUSH1 0x60 DUP10 ADD MSTORE CALLER PUSH1 0x80 DUP10 ADD MSTORE AND PUSH1 0xA0 DUP8 ADD MSTORE AND PUSH1 0xC0 DUP6 ADD MSTORE PUSH1 0x20 PUSH2 0x52BD PUSH1 0xE4 DUP4 PUSH2 0x14F SLOAD AND SWAP7 PUSH1 0x40 MLOAD SWAP8 DUP9 SWAP4 DUP5 SWAP3 PUSH4 0x6B59C22F PUSH1 0xE0 SHL DUP5 MSTORE PUSH1 0x4 DUP5 ADD SWAP1 PUSH2 0x51EB JUMP JUMPDEST CALLVALUE SWAP1 GAS CALL SWAP4 DUP5 ISZERO PUSH2 0x414A JUMPI PUSH1 0x0 SWAP5 PUSH2 0x52E8 JUMPI JUMPDEST POP PUSH2 0x386C SWAP3 SWAP2 PUSH2 0x50A7 SWAP2 PUSH2 0x133 SLOAD AND ADDRESS SWAP1 CALLER SWAP1 PUSH2 0x4E5F JUMP JUMPDEST SWAP1 SWAP4 PUSH1 0x20 DUP3 RETURNDATASIZE DUP3 GT PUSH2 0x5315 JUMPI JUMPDEST DUP2 PUSH2 0x5302 PUSH1 0x20 SWAP4 DUP4 PUSH2 0x3958 JUMP JUMPDEST DUP2 ADD SUB SLT PUSH2 0x823 JUMPI POP MLOAD SWAP3 PUSH2 0x386C PUSH2 0x52D0 JUMP JUMPDEST RETURNDATASIZE SWAP2 POP PUSH2 0x52F5 JUMP JUMPDEST SWAP2 SWAP3 SWAP1 SWAP3 PUSH2 0x5329 PUSH2 0x4EA3 JUMP JUMPDEST PUSH2 0x5331 PUSH2 0x5CBD JUMP JUMPDEST PUSH1 0x40 MLOAD SWAP4 PUSH2 0x5340 PUSH1 0xA0 DUP7 PUSH2 0x3958 JUMP JUMPDEST DUP4 DUP6 MSTORE PUSH1 0x20 DUP1 DUP7 ADD SWAP2 DUP3 MSTORE CALLER PUSH1 0x40 DUP1 DUP9 ADD SWAP2 DUP3 MSTORE PUSH1 0x1 PUSH1 0x1 PUSH1 0xA0 SHL SUB SWAP5 DUP6 AND PUSH1 0x60 DUP10 ADD SWAP1 DUP2 MSTORE SWAP6 DUP6 AND PUSH1 0x80 DUP10 ADD SWAP1 DUP2 MSTORE PUSH2 0x14F SLOAD SWAP2 MLOAD PUSH4 0xFA91A9A5 PUSH1 0xE0 SHL DUP2 MSTORE SWAP9 MLOAD PUSH1 0x4 DUP11 ADD MSTORE SWAP4 MLOAD PUSH1 0x24 DUP10 ADD MSTORE SWAP1 MLOAD DUP5 AND PUSH1 0x44 DUP9 ADD MSTORE SWAP4 MLOAD DUP4 AND PUSH1 0x64 DUP8 ADD MSTORE SWAP1 MLOAD DUP3 AND PUSH1 0x84 DUP7 ADD MSTORE SWAP1 SWAP2 DUP5 SWAP1 PUSH1 0xA4 SWAP1 DUP3 SWAP1 DUP6 AND CALLVALUE SWAP1 GAS CALL SWAP3 DUP4 ISZERO PUSH2 0x414A JUMPI PUSH1 0x0 SWAP4 PUSH2 0x53DB JUMPI JUMPDEST POP SWAP1 PUSH2 0x386C SWAP2 PUSH2 0x133 SLOAD AND ADDRESS SWAP1 CALLER SWAP1 PUSH2 0x4E5F JUMP JUMPDEST SWAP1 SWAP3 PUSH1 0x20 DUP3 RETURNDATASIZE DUP3 GT PUSH2 0x5408 JUMPI JUMPDEST DUP2 PUSH2 0x53F5 PUSH1 0x20 SWAP4 DUP4 PUSH2 0x3958 JUMP JUMPDEST DUP2 ADD SUB SLT PUSH2 0x823 JUMPI POP MLOAD SWAP2 PUSH2 0x386C PUSH2 0x53C7 JUMP JUMPDEST RETURNDATASIZE SWAP2 POP PUSH2 0x53E8 JUMP JUMPDEST PUSH1 0xC4 PUSH1 0x20 SWAP3 SWAP5 PUSH2 0x5488 SWAP3 PUSH2 0x5422 PUSH2 0x4EA3 JUMP JUMPDEST PUSH2 0x542A PUSH2 0x5CBD JUMP JUMPDEST PUSH1 0x40 MLOAD SWAP8 PUSH2 0x5439 PUSH1 0xC0 DUP11 PUSH2 0x3958 JUMP JUMPDEST PUSH1 0x1 DUP1 PUSH1 0xA0 SHL SUB DUP1 SWAP4 DUP2 DUP1 SWAP5 AND SWAP9 DUP10 DUP13 MSTORE DUP11 DUP10 DUP14 ADD MSTORE PUSH1 0x40 DUP13 ADD MSTORE CALLER PUSH1 0x60 DUP13 ADD MSTORE AND PUSH1 0x80 DUP11 ADD MSTORE AND PUSH1 0xA0 DUP9 ADD MSTORE PUSH2 0x14F SLOAD AND SWAP6 PUSH1 0x40 MLOAD SWAP7 DUP8 SWAP4 DUP5 SWAP3 PUSH4 0x6426C5DB PUSH1 0xE1 SHL DUP5 MSTORE PUSH1 0x4 DUP5 ADD SWAP1 PUSH2 0x4F3A JUMP JUMPDEST CALLVALUE SWAP1 GAS CALL SWAP3 DUP4 ISZERO PUSH2 0x414A JUMPI PUSH1 0x0 SWAP4 PUSH2 0x54AA JUMPI JUMPDEST POP SWAP1 PUSH2 0x386C SWAP2 ADDRESS SWAP1 CALLER SWAP1 PUSH2 0x4E5F JUMP JUMPDEST SWAP1 SWAP3 PUSH1 0x20 DUP3 RETURNDATASIZE DUP3 GT PUSH2 0x54D7 JUMPI JUMPDEST DUP2 PUSH2 0x54C4 PUSH1 0x20 SWAP4 DUP4 PUSH2 0x3958 JUMP JUMPDEST DUP2 ADD SUB SLT PUSH2 0x823 JUMPI POP MLOAD SWAP2 PUSH2 0x386C PUSH2 0x549B JUMP JUMPDEST RETURNDATASIZE SWAP2 POP PUSH2 0x54B7 JUMP JUMPDEST SWAP4 SWAP1 SWAP2 SWAP4 PUSH2 0x54EB PUSH2 0x4EA3 JUMP JUMPDEST PUSH2 0x54F3 PUSH2 0x5CBD JUMP JUMPDEST PUSH1 0x40 MLOAD SWAP6 PUSH2 0x5502 PUSH1 0xE0 DUP9 PUSH2 0x3958 JUMP JUMPDEST PUSH1 0x1 DUP1 PUSH1 0xA0 SHL SUB DUP1 SWAP4 DUP2 DUP1 SWAP5 AND SWAP7 DUP8 DUP11 MSTORE DUP7 PUSH1 0x20 DUP12 ADD MSTORE DUP9 PUSH1 0x40 DUP12 ADD MSTORE PUSH1 0x60 DUP11 ADD MSTORE CALLER PUSH1 0x80 DUP11 ADD MSTORE AND PUSH1 0xA0 DUP9 ADD MSTORE AND PUSH1 0xC0 DUP7 ADD MSTORE PUSH1 0x20 PUSH2 0x5560 PUSH1 0xE4 DUP4 PUSH2 0x14F SLOAD AND SWAP8 PUSH1 0x40 MLOAD SWAP9 DUP10 SWAP4 DUP5 SWAP3 PUSH4 0xE4E1B729 PUSH1 0xE0 SHL DUP5 MSTORE PUSH1 0x4 DUP5 ADD SWAP1 PUSH2 0x51EB JUMP JUMPDEST CALLVALUE SWAP1 GAS CALL SWAP5 DUP6 ISZERO PUSH2 0x414A JUMPI PUSH1 0x0 SWAP6 PUSH2 0x5595 JUMPI JUMPDEST POP PUSH2 0x386C SWAP4 SWAP3 SWAP2 PUSH2 0x558C SWAP2 PUSH2 0x133 SLOAD AND ADDRESS SWAP1 CALLER SWAP1 PUSH2 0x4E5F JUMP JUMPDEST ADDRESS SWAP1 CALLER SWAP1 PUSH2 0x4E5F JUMP JUMPDEST SWAP1 SWAP5 PUSH1 0x20 DUP3 RETURNDATASIZE DUP3 GT PUSH2 0x55C2 JUMPI JUMPDEST DUP2 PUSH2 0x55AF PUSH1 0x20 SWAP4 DUP4 PUSH2 0x3958 JUMP JUMPDEST DUP2 ADD SUB SLT PUSH2 0x823 JUMPI POP MLOAD SWAP4 PUSH2 0x386C PUSH2 0x5573 JUMP JUMPDEST RETURNDATASIZE SWAP2 POP PUSH2 0x55A2 JUMP JUMPDEST PUSH1 0x40 MLOAD SWAP1 PUSH2 0x55D9 PUSH1 0x80 DUP4 PUSH2 0x3958 JUMP JUMPDEST PUSH1 0x0 PUSH1 0x60 DUP4 DUP3 DUP2 MSTORE DUP3 PUSH1 0x20 DUP3 ADD MSTORE DUP3 PUSH1 0x40 DUP3 ADD MSTORE ADD MSTORE JUMP JUMPDEST SWAP2 SWAP1 DUP3 PUSH1 0xA0 SWAP2 SUB SLT PUSH2 0x752 JUMPI PUSH1 0x40 MLOAD PUSH2 0x560B PUSH1 0xA0 DUP3 PUSH2 0x3958 JUMP JUMPDEST PUSH1 0x80 PUSH2 0x5649 DUP2 DUP4 SWAP6 DUP1 CALLDATALOAD DUP6 MSTORE PUSH1 0x20 DUP2 ADD CALLDATALOAD PUSH1 0x20 DUP7 ADD MSTORE PUSH2 0x562D PUSH1 0x40 DUP3 ADD PUSH2 0x3818 JUMP JUMPDEST PUSH1 0x40 DUP7 ADD MSTORE PUSH2 0x563E PUSH1 0x60 DUP3 ADD PUSH2 0x3818 JUMP JUMPDEST PUSH1 0x60 DUP7 ADD MSTORE ADD PUSH2 0x3818 JUMP JUMPDEST SWAP2 ADD MSTORE JUMP JUMPDEST SWAP2 SWAP1 PUSH2 0x5659 SWAP1 PUSH2 0x4177 JUMP JUMPDEST SWAP2 SWAP1 SWAP3 PUSH2 0x5666 DUP4 DUP6 PUSH2 0x432C JUMP JUMPDEST SWAP1 DUP1 DUP3 GT ISZERO PUSH2 0x5673 JUMPI POP POP JUMP JUMPDEST PUSH1 0x44 SWAP3 POP PUSH1 0x40 MLOAD SWAP2 PUSH4 0x79121201 PUSH1 0xE0 SHL DUP4 MSTORE PUSH1 0x4 DUP4 ADD MSTORE PUSH1 0x24 DUP3 ADD MSTORE REVERT JUMPDEST SWAP3 SWAP1 SWAP4 SWAP2 PUSH1 0x0 SWAP2 PUSH1 0x0 SWAP2 DUP3 SWAP7 PUSH2 0x56A5 PUSH2 0x55CA JUMP JUMPDEST SWAP7 PUSH1 0x1 PUSH1 0x1 PUSH1 0xA0 SHL SUB SWAP2 DUP6 SWAP1 DUP4 AND DUP1 PUSH2 0x58B1 JUMPI JUMPDEST POP DUP3 PUSH2 0x12F SLOAD AND DUP4 PUSH1 0x40 MLOAD SWAP4 PUSH4 0x6EB1769F PUSH1 0xE1 SHL DUP6 MSTORE AND DUP1 PUSH1 0x4 DUP6 ADD MSTORE ADDRESS PUSH1 0x24 DUP6 ADD MSTORE PUSH1 0x20 SWAP5 DUP6 DUP6 PUSH1 0x44 DUP2 DUP7 GAS STATICCALL SWAP5 DUP6 ISZERO PUSH2 0x58A6 JUMPI DUP5 SWAP6 PUSH2 0x5877 JUMPI JUMPDEST POP DUP5 PUSH2 0x5756 JUMPI JUMPDEST POP POP POP POP POP DUP7 ADD MLOAD ISZERO PUSH2 0x5712 JUMPI JUMPDEST POP POP POP SWAP3 SWAP2 SWAP1 JUMP JUMPDEST SWAP1 SWAP2 SWAP3 POP PUSH2 0x572A PUSH8 0xDE0B6B3A7640000 SWAP3 DUP4 SWAP3 PUSH2 0x4288 JUMP JUMPDEST DIV DUP1 DUP6 MSTORE SWAP1 DUP3 ISZERO PUSH2 0x574E JUMPI PUSH2 0x5746 SWAP3 DIV SWAP1 DUP2 PUSH1 0x40 DUP7 ADD MSTORE PUSH2 0x4156 JUMP JUMPDEST CODESIZE DUP1 DUP1 PUSH2 0x570A JUMP JUMPDEST POP SWAP1 POP PUSH2 0x5746 JUMP JUMPDEST PUSH2 0x5764 SWAP1 PUSH2 0x130 SLOAD AND PUSH2 0x4500 JUMP JUMPDEST SWAP3 SWAP1 SWAP3 ISZERO PUSH2 0x56FC JUMPI SWAP1 SWAP2 SWAP3 SWAP4 SWAP12 POP DUP5 DUP12 PUSH2 0x579E DUP6 PUSH8 0xDE0B6B3A7640000 PUSH2 0x5798 PUSH2 0x578E DUP14 DUP14 PUSH2 0x4288 JUMP JUMPDEST PUSH2 0x143 SLOAD SWAP1 PUSH2 0x4288 JUMP JUMPDEST DIV PUSH2 0x429B JUMP JUMPDEST DUP2 DUP4 ADD DUP2 DUP2 MSTORE SWAP6 SWAP1 DUP12 ISZERO PUSH2 0x586D JUMPI POP PUSH2 0x57C9 SWAP2 PUSH2 0x57BD PUSH1 0x60 SWAP3 DUP14 PUSH2 0x429B JUMP JUMPDEST SWAP2 DUP3 SWAP2 ADD MSTORE DUP6 MLOAD PUSH2 0x4156 JUMP JUMPDEST DUP1 SWAP14 JUMPDEST LT SWAP3 DUP4 ISZERO PUSH2 0x57F8 JUMPI JUMPDEST POP POP POP PUSH2 0x57E5 JUMPI JUMPDEST DUP1 DUP1 DUP1 PUSH2 0x56FC JUMP JUMPDEST DUP2 SWAP3 SWAP10 POP MSTORE DUP1 PUSH1 0x60 DUP9 ADD MSTORE SWAP7 CODESIZE DUP1 PUSH2 0x57DD JUMP JUMPDEST SWAP1 SWAP2 SWAP3 POP PUSH1 0x24 PUSH1 0x40 MLOAD DUP1 SWAP5 DUP2 SWAP4 PUSH4 0x70A08231 PUSH1 0xE0 SHL DUP4 MSTORE PUSH1 0x4 DUP4 ADD MSTORE GAS STATICCALL SWAP1 DUP2 ISZERO PUSH2 0x5862 JUMPI SWAP1 DUP12 SWAP2 DUP5 SWAP2 PUSH2 0x5831 JUMPI JUMPDEST POP LT CODESIZE DUP5 DUP2 PUSH2 0x57D5 JUMP JUMPDEST DUP1 SWAP3 POP DUP6 DUP1 SWAP3 POP RETURNDATASIZE DUP4 GT PUSH2 0x585B JUMPI JUMPDEST PUSH2 0x584A DUP2 DUP4 PUSH2 0x3958 JUMP JUMPDEST DUP2 ADD SUB SLT PUSH2 0x98A JUMPI DUP11 SWAP1 MLOAD CODESIZE PUSH2 0x5827 JUMP JUMPDEST POP RETURNDATASIZE PUSH2 0x5840 JUMP JUMPDEST PUSH1 0x40 MLOAD RETURNDATASIZE DUP6 DUP3 RETURNDATACOPY RETURNDATASIZE SWAP1 REVERT JUMPDEST SWAP2 POP POP DUP1 SWAP14 PUSH2 0x57CC JUMP JUMPDEST SWAP1 SWAP5 POP DUP6 DUP2 DUP2 RETURNDATASIZE DUP4 GT PUSH2 0x589F JUMPI JUMPDEST PUSH2 0x588F DUP2 DUP4 PUSH2 0x3958 JUMP JUMPDEST DUP2 ADD SUB SLT PUSH2 0xA7F JUMPI MLOAD SWAP4 CODESIZE PUSH2 0x56F5 JUMP JUMPDEST POP RETURNDATASIZE PUSH2 0x5885 JUMP JUMPDEST PUSH1 0x40 MLOAD RETURNDATASIZE DUP7 DUP3 RETURNDATACOPY RETURNDATASIZE SWAP1 REVERT JUMPDEST SWAP1 SWAP6 POP PUSH1 0x20 DUP4 PUSH2 0x1C3 SLOAD AND SWAP2 PUSH1 0x24 PUSH1 0x40 MLOAD DUP1 SWAP5 DUP2 SWAP4 PUSH4 0x64A731E9 PUSH1 0xE0 SHL DUP4 MSTORE PUSH1 0x4 DUP4 ADD MSTORE GAS STATICCALL DUP1 ISZERO PUSH2 0x5929 JUMPI DUP7 SWAP1 PUSH2 0x58F6 JUMPI JUMPDEST PUSH2 0x58EF SWAP2 POP DUP5 PUSH2 0x4288 JUMP JUMPDEST SWAP5 CODESIZE PUSH2 0x56B9 JUMP JUMPDEST POP PUSH1 0x20 DUP2 RETURNDATASIZE DUP3 GT PUSH2 0x5921 JUMPI JUMPDEST DUP2 PUSH2 0x590F PUSH1 0x20 SWAP4 DUP4 PUSH2 0x3958 JUMP JUMPDEST DUP2 ADD SUB SLT PUSH2 0x2A18 JUMPI PUSH2 0x58EF SWAP1 MLOAD PUSH2 0x58E4 JUMP JUMPDEST RETURNDATASIZE SWAP2 POP PUSH2 0x5902 JUMP JUMPDEST PUSH1 0x40 MLOAD RETURNDATASIZE DUP9 DUP3 RETURNDATACOPY RETURNDATASIZE SWAP1 REVERT JUMPDEST SWAP3 PUSH2 0x38AB SWAP5 SWAP2 SWAP3 SWAP4 DUP3 MLOAD ISZERO ISZERO PUSH1 0x0 EQ PUSH2 0x59A4 JUMPI POP PUSH1 0x40 PUSH2 0x599F SWAP3 PUSH2 0x5997 PUSH8 0xDE0B6B3A7640000 PUSH2 0x5969 PUSH2 0x13B SLOAD DUP5 MLOAD SWAP1 PUSH2 0x4288 JUMP JUMPDEST DIV PUSH2 0x131 PUSH2 0x5978 DUP3 DUP3 SLOAD PUSH2 0x4156 JUMP JUMPDEST SWAP1 SSTORE PUSH2 0x5991 PUSH1 0x1 DUP1 PUSH1 0xA0 SHL SUB PUSH2 0x146 SLOAD AND SWAP2 DUP5 MLOAD PUSH2 0x407B JUMP JUMPDEST SWAP1 PUSH2 0x3F25 JUMP JUMPDEST ADD MLOAD SWAP1 PUSH2 0x3F25 JUMP JUMPDEST PUSH2 0x3F25 JUMP JUMPDEST SWAP1 PUSH1 0x60 PUSH2 0x599F SWAP4 PUSH2 0x59C6 PUSH1 0x1 DUP1 PUSH1 0xA0 SHL SUB PUSH2 0x146 SLOAD AND PUSH1 0x20 DUP4 ADD MLOAD SWAP1 DUP7 PUSH2 0x59CA JUMP JUMPDEST ADD MLOAD SWAP2 JUMPDEST SWAP2 SWAP1 DUP2 PUSH2 0x59D6 JUMPI POP POP POP JUMP JUMPDEST PUSH2 0x12F SLOAD PUSH2 0x38AB SWAP4 SWAP1 PUSH1 0x1 PUSH1 0x1 PUSH1 0xA0 SHL SUB AND PUSH2 0x4E5F JUMP JUMPDEST SWAP2 SWAP1 DUP3 PUSH1 0xC0 SWAP2 SUB SLT PUSH2 0x752 JUMPI PUSH1 0x40 MLOAD PUSH2 0x5A07 PUSH1 0xC0 DUP3 PUSH2 0x3958 JUMP JUMPDEST PUSH1 0xA0 PUSH2 0x5649 DUP2 DUP4 SWAP6 PUSH2 0x5A18 DUP2 PUSH2 0x3818 JUMP JUMPDEST DUP6 MSTORE PUSH1 0x20 DUP2 ADD CALLDATALOAD PUSH1 0x20 DUP7 ADD MSTORE PUSH1 0x40 DUP2 ADD CALLDATALOAD PUSH1 0x40 DUP7 ADD MSTORE PUSH2 0x5A3A PUSH1 0x60 DUP3 ADD PUSH2 0x3818 JUMP JUMPDEST PUSH1 0x60 DUP7 ADD MSTORE PUSH2 0x5A4B PUSH1 0x80 DUP3 ADD PUSH2 0x3818 JUMP JUMPDEST PUSH1 0x80 DUP7 ADD MSTORE ADD PUSH2 0x3818 JUMP JUMPDEST SWAP1 PUSH2 0x5A63 SWAP5 SWAP4 SWAP3 SWAP2 PUSH2 0x4A4D JUMP JUMPDEST PUSH1 0x0 DUP2 SLT PUSH2 0x4B2A JUMPI SWAP1 JUMP JUMPDEST DUP1 PUSH2 0x5A77 PUSH2 0x4649 JUMP JUMPDEST SWAP2 SWAP1 SWAP4 PUSH2 0x5A84 PUSH1 0x0 PUSH2 0x45A0 JUMP JUMPDEST SWAP5 ADD SWAP4 DUP3 SWAP2 PUSH2 0x5B1C JUMPI JUMPDEST ADD SWAP4 DUP5 PUSH1 0x0 DUP1 DUP3 SLT PUSH2 0x5B16 JUMPI POP JUMPDEST DUP5 SUB SWAP2 DUP2 DUP6 GT PUSH2 0x5ADE JUMPI POP POP DUP2 DUP2 GT PUSH2 0x5AC0 JUMPI POP POP PUSH2 0x155 SSTORE PUSH2 0x156 SSTORE NUMBER PUSH2 0x157 SSTORE JUMP JUMPDEST PUSH1 0x44 SWAP3 POP PUSH1 0x40 MLOAD SWAP2 PUSH4 0x6DA41E5 PUSH1 0xE1 SHL DUP4 MSTORE PUSH1 0x4 DUP4 ADD MSTORE PUSH1 0x24 DUP3 ADD MSTORE REVERT JUMPDEST SWAP1 DUP1 DUP6 SWAP3 GT PUSH2 0x5B04 JUMPI PUSH1 0x44 SWAP2 PUSH1 0x40 MLOAD SWAP2 PUSH4 0x6DA41E5 PUSH1 0xE1 SHL DUP4 MSTORE PUSH1 0x4 DUP4 ADD MSTORE PUSH1 0x24 DUP3 ADD MSTORE REVERT JUMPDEST PUSH1 0x40 MLOAD PUSH4 0xFB4FD35 PUSH1 0xE1 SHL DUP2 MSTORE PUSH1 0x4 SWAP1 REVERT JUMPDEST SUB PUSH2 0x5A9C JUMP JUMPDEST SWAP1 POP DUP2 PUSH1 0x0 SUB SWAP1 PUSH2 0x5A8E JUMP JUMPDEST DUP1 SWAP2 SUB PUSH1 0xE0 DUP2 SLT PUSH2 0x752 JUMPI DUP2 MLOAD SWAP3 PUSH1 0x20 DUP4 ADD MLOAD SWAP3 PUSH1 0x80 PUSH1 0x40 DUP3 ADD MLOAD SWAP4 PUSH1 0x5F NOT ADD SLT PUSH2 0x752 JUMPI PUSH1 0xC0 PUSH1 0x40 MLOAD SWAP2 PUSH2 0x5B5E PUSH1 0x80 DUP5 PUSH2 0x3958 JUMP JUMPDEST PUSH1 0x60 DUP2 ADD MLOAD DUP4 MSTORE PUSH1 0x80 DUP2 ADD MLOAD PUSH1 0x20 DUP5 ADD MSTORE PUSH1 0xA0 DUP2 ADD MLOAD PUSH1 0x40 DUP5 ADD MSTORE ADD MLOAD PUSH1 0x60 DUP3 ADD MSTORE SWAP1 JUMP JUMPDEST SWAP2 SWAP1 DUP3 PUSH1 0xE0 SWAP2 SUB SLT PUSH2 0x752 JUMPI PUSH1 0x40 MLOAD PUSH2 0x5B9D PUSH1 0xE0 DUP3 PUSH2 0x3958 JUMP JUMPDEST PUSH1 0xC0 PUSH2 0x5649 DUP2 DUP4 SWAP6 PUSH2 0x5BAE DUP2 PUSH2 0x3818 JUMP JUMPDEST DUP6 MSTORE PUSH1 0x20 DUP2 ADD CALLDATALOAD PUSH1 0x20 DUP7 ADD MSTORE PUSH1 0x40 DUP2 ADD CALLDATALOAD PUSH1 0x40 DUP7 ADD MSTORE PUSH1 0x60 DUP2 ADD CALLDATALOAD PUSH1 0x60 DUP7 ADD MSTORE PUSH2 0x5BDA PUSH1 0x80 DUP3 ADD PUSH2 0x3818 JUMP JUMPDEST PUSH1 0x80 DUP7 ADD MSTORE PUSH2 0x5BEB PUSH1 0xA0 DUP3 ADD PUSH2 0x3818 JUMP JUMPDEST PUSH1 0xA0 DUP7 ADD MSTORE ADD PUSH2 0x3818 JUMP JUMPDEST PUSH1 0x40 MLOAD PUSH4 0xA9059CBB PUSH1 0xE0 SHL PUSH1 0x20 DUP3 ADD MSTORE PUSH1 0x1 PUSH1 0x1 PUSH1 0xA0 SHL SUB SWAP1 SWAP3 AND PUSH1 0x24 DUP4 ADD MSTORE PUSH1 0x44 DUP3 ADD SWAP3 SWAP1 SWAP3 MSTORE PUSH2 0x38AB SWAP2 PUSH2 0x3F77 DUP3 PUSH1 0x64 DUP2 ADD PUSH2 0x3F69 JUMP JUMPDEST PUSH1 0x97 SLOAD PUSH1 0x40 MLOAD PUSH4 0xD994D6D5 PUSH1 0xE0 SHL DUP2 MSTORE CALLER PUSH1 0x4 DUP3 ADD MSTORE SWAP1 PUSH1 0x20 SWAP1 DUP3 SWAP1 PUSH1 0x24 SWAP1 DUP3 SWAP1 PUSH1 0x1 PUSH1 0x1 PUSH1 0xA0 SHL SUB AND GAS STATICCALL SWAP1 DUP2 ISZERO PUSH2 0x414A JUMPI PUSH1 0x0 SWAP2 PUSH2 0x5C84 JUMPI JUMPDEST POP ISZERO PUSH2 0x5C72 JUMPI JUMP JUMPDEST PUSH1 0x40 MLOAD PUSH4 0x1DD1B1B5 PUSH1 0xE2 SHL DUP2 MSTORE PUSH1 0x4 SWAP1 REVERT JUMPDEST SWAP1 PUSH1 0x20 DUP3 RETURNDATASIZE DUP3 GT PUSH2 0x5CB5 JUMPI JUMPDEST DUP2 PUSH2 0x5C9D PUSH1 0x20 SWAP4 DUP4 PUSH2 0x3958 JUMP JUMPDEST DUP2 ADD SUB SLT PUSH2 0x823 JUMPI POP PUSH2 0x5CAF SWAP1 PUSH2 0x3F7C JUMP JUMPDEST CODESIZE PUSH2 0x5C6A JUMP JUMPDEST RETURNDATASIZE SWAP2 POP PUSH2 0x5C90 JUMP JUMPDEST PUSH1 0xFF PUSH1 0xCA SLOAD PUSH1 0x8 SHR AND PUSH2 0x5CCC JUMPI JUMP JUMPDEST PUSH1 0x40 MLOAD PUSH4 0x783BB6C9 PUSH1 0xE1 SHL DUP2 MSTORE PUSH1 0x4 SWAP1 REVERT JUMPDEST SWAP1 PUSH8 0xDE0B6B3A7640000 SWAP2 DUP3 DUP2 MUL SWAP3 DUP2 DUP5 DIV EQ SWAP1 ISZERO OR ISZERO PUSH2 0x4088 JUMPI PUSH2 0x386C SWAP2 PUSH2 0x429B JUMP JUMPDEST PUSH8 0xDE0B6B3A7640000 LT PUSH2 0x5D12 JUMPI JUMP JUMPDEST PUSH1 0x40 MLOAD PUSH4 0x2A9FFAB7 PUSH1 0xE2 SHL DUP2 MSTORE PUSH1 0x4 SWAP1 REVERT INVALID LOG2 PUSH5 0x6970667358 0x22 SLT KECCAK256 PUSH7 0xCAEA7AEEB5A7B2 SHL 0xA5 SWAP9 0xEA PUSH31 0x5EA2CAF825E5FAEC95CFFDC6832C2BB376AA7664736F6C6343000814003360 LOG0 DUP1 PUSH1 0x40 MSTORE CALLVALUE PUSH3 0xE1 JUMPI ADDRESS PUSH1 0x80 MSTORE PUSH1 0x0 SLOAD SWAP1 PUSH1 0xFF DUP3 PUSH1 0x8 SHR AND PUSH3 0x8F JUMPI POP PUSH1 0xFF DUP1 DUP3 AND SUB PUSH3 0x53 JUMPI JUMPDEST PUSH1 0x40 MLOAD PUSH2 0x3F20 SWAP1 DUP2 PUSH3 0xE7 DUP3 CODECOPY PUSH1 0x80 MLOAD DUP2 DUP2 DUP2 PUSH2 0x1EDC ADD MSTORE DUP2 DUP2 PUSH2 0x204D ADD MSTORE PUSH2 0x22D3 ADD MSTORE RETURN JUMPDEST PUSH1 0xFF SWAP1 DUP2 NOT AND OR PUSH1 0x0 SSTORE PUSH32 0x7F26B83FF96E1F2B6A682F133852F6798A09C465DA95921460CEFB3847402498 PUSH1 0x20 PUSH1 0x40 MLOAD PUSH1 0xFF DUP2 MSTORE LOG1 CODESIZE PUSH3 0x2C JUMP JUMPDEST PUSH3 0x461BCD PUSH1 0xE5 SHL DUP2 MSTORE PUSH1 0x20 PUSH1 0x4 DUP3 ADD MSTORE PUSH1 0x27 PUSH1 0x24 DUP3 ADD MSTORE PUSH32 0x496E697469616C697A61626C653A20636F6E747261637420697320696E697469 PUSH1 0x44 DUP3 ADD MSTORE PUSH7 0x616C697A696E67 PUSH1 0xC8 SHL PUSH1 0x64 DUP3 ADD MSTORE PUSH1 0x84 SWAP1 REVERT JUMPDEST PUSH1 0x0 DUP1 REVERT INVALID PUSH1 0x80 PUSH1 0x40 MSTORE PUSH1 0x4 CALLDATASIZE LT ISZERO PUSH2 0x12 JUMPI PUSH1 0x0 DUP1 REVERT JUMPDEST PUSH1 0x0 PUSH1 0xE0 DUP2 CALLDATALOAD DUP2 SHR SWAP1 DUP2 PUSH4 0x1DDE6EF EQ PUSH2 0x27D8 JUMPI DUP2 PUSH4 0x1F1B684 EQ PUSH2 0x2790 JUMPI DUP2 PUSH4 0x73763B9 EQ PUSH2 0x276C JUMPI DUP2 PUSH4 0xC340A24 EQ PUSH2 0x2743 JUMPI DUP2 PUSH4 0xC36D897 EQ PUSH2 0x2724 JUMPI DUP2 PUSH4 0xD6AC463 EQ PUSH2 0x26DE JUMPI DUP2 PUSH4 0xDB49656 EQ PUSH2 0x26BF JUMPI DUP2 PUSH4 0xE0A8FD2 EQ PUSH2 0x269B JUMPI DUP2 PUSH4 0xF1E5E2B EQ PUSH2 0x2655 JUMPI DUP2 PUSH4 0x13ED7BA5 EQ PUSH2 0x262B JUMPI DUP2 PUSH4 0x1867E2F5 EQ PUSH2 0x260C JUMPI DUP2 PUSH4 0x1FE6A7AD EQ PUSH2 0x25D2 JUMPI DUP2 PUSH4 0x2069F753 EQ PUSH2 0x25AE JUMPI DUP2 PUSH4 0x23B98CDE EQ PUSH2 0x2587 JUMPI DUP2 PUSH4 0x24FFABA3 EQ PUSH2 0x2549 JUMPI DUP2 PUSH4 0x27EAB2A1 EQ PUSH2 0x2503 JUMPI DUP2 PUSH4 0x2A20D57D EQ PUSH2 0x24E4 JUMPI DUP2 PUSH4 0x2C43BD3B EQ PUSH2 0x24C0 JUMPI DUP2 PUSH4 0x2D88AF4A EQ PUSH2 0x2469 JUMPI DUP2 PUSH4 0x2DED50F0 EQ PUSH2 0x244A JUMPI DUP2 PUSH4 0x333431FD EQ PUSH2 0x242B JUMPI DUP2 PUSH4 0x33421C38 EQ PUSH2 0x233A JUMPI DUP2 PUSH4 0x3659CFE6 EQ PUSH2 0x22A1 JUMPI DUP2 PUSH4 0x3915EDCB EQ PUSH2 0x2272 JUMPI DUP2 PUSH4 0x3BC4AC0A EQ PUSH2 0x224E JUMPI DUP2 PUSH4 0x3CFB09EF EQ PUSH2 0x2208 JUMPI DUP2 PUSH4 0x3F4BA83A EQ PUSH2 0x218D JUMPI DUP2 PUSH4 0x407F0E34 EQ PUSH2 0x216E JUMPI DUP2 PUSH4 0x4B746001 EQ PUSH2 0x2121 JUMPI DUP2 PUSH4 0x4D977E78 EQ PUSH2 0x2102 JUMPI DUP2 PUSH4 0x4E1F907A EQ PUSH2 0x20D8 JUMPI DUP2 PUSH4 0x4F0F27EE EQ PUSH2 0x20B9 JUMPI DUP2 PUSH4 0x4F1EF286 EQ PUSH2 0x1FC5 JUMPI DUP2 PUSH4 0x5210570C EQ PUSH2 0x1F9F JUMPI DUP2 PUSH4 0x52D1902D EQ PUSH2 0x1EC9 JUMPI DUP2 PUSH4 0x543AEB48 EQ PUSH2 0x1EA5 JUMPI DUP2 PUSH4 0x5860EE63 EQ PUSH2 0x1E86 JUMPI DUP2 PUSH4 0x5C975ABB EQ PUSH2 0x1E60 JUMPI DUP2 PUSH4 0x5CFBE578 EQ PUSH2 0x1E41 JUMPI DUP2 PUSH4 0x60009E0B EQ PUSH2 0x1E17 JUMPI DUP2 PUSH4 0x647846A5 EQ PUSH2 0x1DED JUMPI DUP2 PUSH4 0x64EC230A EQ PUSH2 0x1DC9 JUMPI DUP2 PUSH4 0x662013F4 EQ PUSH2 0x1DA5 JUMPI DUP2 PUSH4 0x68274357 EQ PUSH2 0x1D7C JUMPI DUP2 PUSH4 0x6845C445 EQ PUSH2 0x1B7D JUMPI DUP2 PUSH4 0x6B5488DF EQ PUSH2 0x1B5E JUMPI DUP2 PUSH4 0x6F30471F EQ PUSH2 0x1B3F JUMPI DUP2 PUSH4 0x70713468 EQ PUSH2 0x1B1B JUMPI DUP2 PUSH4 0x735D3960 EQ PUSH2 0x1AD5 JUMPI DUP2 PUSH4 0x73E28AF9 EQ PUSH2 0x1AB1 JUMPI DUP2 PUSH4 0x7554FFFD EQ PUSH2 0x1A92 JUMPI DUP2 PUSH4 0x76228055 EQ PUSH2 0x1A73 JUMPI DUP2 PUSH4 0x7750BA0C EQ PUSH2 0x1A4F JUMPI DUP2 PUSH4 0x79F9A91C EQ PUSH2 0x1A30 JUMPI DUP2 PUSH4 0x7A193C31 EQ PUSH2 0x1A11 JUMPI DUP2 PUSH4 0x7A4FF1D9 EQ PUSH2 0x19ED JUMPI DUP2 PUSH4 0x7A727FE8 EQ PUSH2 0x19CE JUMPI DUP2 PUSH4 0x7AF5758C EQ PUSH2 0x19AA JUMPI DUP2 PUSH4 0x7B5A17AE EQ PUSH2 0x17DF JUMPI DUP2 PUSH4 0x7CBA2383 EQ PUSH2 0x17BB JUMPI DUP2 PUSH4 0x7D8E0314 EQ PUSH2 0x177E JUMPI DUP2 PUSH4 0x7F01C715 EQ PUSH2 0x1754 JUMPI DUP2 PUSH4 0x7F13B998 EQ PUSH2 0x1720 JUMPI DUP2 PUSH4 0x7F4A4FE0 EQ PUSH2 0x1701 JUMPI DUP2 PUSH4 0x8456CB59 EQ PUSH2 0x166A JUMPI DUP2 PUSH4 0x85BF9593 EQ PUSH2 0x1624 JUMPI DUP2 PUSH4 0x8CFA4241 EQ PUSH2 0x1605 JUMPI DUP2 PUSH4 0x8E2BDB86 EQ PUSH2 0x15DB JUMPI DUP2 PUSH4 0x9853C35A EQ PUSH2 0x15B1 JUMPI DUP2 PUSH4 0x9AD6659D EQ PUSH2 0x1577 JUMPI DUP2 PUSH4 0x9CABFC00 EQ PUSH2 0x152A JUMPI DUP2 PUSH4 0x9FD0506D EQ PUSH2 0x14FD JUMPI DUP2 PUSH4 0xA8E9AC30 EQ PUSH2 0x14DB JUMPI DUP2 PUSH4 0xAEA038DC EQ PUSH2 0x14BC JUMPI DUP2 PUSH4 0xB5E9EA8C EQ PUSH2 0x1492 JUMPI DUP2 PUSH4 0xB9FA6413 EQ PUSH2 0x1473 JUMPI DUP2 PUSH4 0xBB4872DE EQ PUSH2 0x1450 JUMPI DUP2 PUSH4 0xBECACA6B EQ PUSH2 0x142C JUMPI DUP2 PUSH4 0xC00F538D EQ PUSH2 0x1408 JUMPI DUP2 PUSH4 0xC84353C9 EQ PUSH2 0x13E4 JUMPI DUP2 PUSH4 0xCF351C1D EQ PUSH2 0x139E JUMPI DUP2 PUSH4 0xD1A0FAA0 EQ PUSH2 0x1382 JUMPI DUP2 PUSH4 0xD6AF11DA EQ PUSH2 0x1340 JUMPI DUP2 PUSH4 0xD87AAB6F EQ PUSH2 0x1321 JUMPI DUP2 PUSH4 0xD8DB6F5A EQ PUSH2 0x12DB JUMPI DUP2 PUSH4 0xD9B6C2E5 EQ PUSH2 0x1153 JUMPI DUP2 PUSH4 0xDB796072 EQ PUSH2 0xEDB JUMPI DUP2 PUSH4 0xDDB6D190 EQ PUSH2 0xE9D JUMPI DUP2 PUSH4 0xE1E121DA EQ PUSH2 0xC41 JUMPI DUP2 PUSH4 0xE44BB512 EQ PUSH2 0xA3F JUMPI DUP2 PUSH4 0xE4C0AAF4 EQ PUSH2 0x9FA JUMPI DUP2 PUSH4 0xE6B1627C EQ PUSH2 0x9B7 JUMPI DUP2 PUSH4 0xE7C25978 EQ PUSH2 0x993 JUMPI DUP2 PUSH4 0xEE1F438F EQ PUSH2 0x969 JUMPI DUP2 PUSH4 0xF13F4054 EQ PUSH2 0x93F JUMPI DUP2 PUSH4 0xF26114AA EQ PUSH2 0x750 JUMPI DUP2 PUSH4 0xF2808778 EQ PUSH2 0x72C JUMPI DUP2 PUSH4 0xF30B5614 EQ PUSH2 0x70D JUMPI DUP2 PUSH4 0xF375CFBA EQ PUSH2 0x6EE JUMPI DUP2 PUSH4 0xF5571E01 EQ PUSH2 0x546 JUMPI POP DUP1 PUSH4 0xFA6E83BD EQ PUSH2 0x527 JUMPI DUP1 PUSH4 0xFADDA424 EQ PUSH2 0x4AE JUMPI PUSH4 0xFDA70F8B EQ PUSH2 0x48D JUMPI PUSH1 0x0 DUP1 REVERT JUMPDEST CALLVALUE PUSH2 0x4AB JUMPI DUP1 PUSH1 0x3 NOT CALLDATASIZE ADD SLT PUSH2 0x4AB JUMPI PUSH1 0x20 PUSH2 0x13C SLOAD PUSH1 0x40 MLOAD SWAP1 DUP2 MSTORE RETURN JUMPDEST DUP1 REVERT JUMPDEST POP CALLVALUE PUSH2 0x4AB JUMPI PUSH1 0x20 CALLDATASIZE PUSH1 0x3 NOT ADD SLT PUSH2 0x4AB JUMPI PUSH1 0x1 PUSH1 0x1 PUSH1 0xA0 SHL SUB PUSH1 0x4 CALLDATALOAD DUP2 DUP2 AND DUP2 SUB PUSH2 0x522 JUMPI PUSH2 0x4EA PUSH2 0x4E2 PUSH1 0x1 SWAP3 PUSH2 0x3106 JUMP JUMPDEST PUSH2 0x137 PUSH2 0x283E JUMP JUMPDEST POP ADD SLOAD AND PUSH2 0x4F7 DUP2 PUSH2 0x3185 JUMP JUMPDEST SWAP2 SWAP1 SWAP2 ISZERO PUSH2 0x50A JUMPI PUSH1 0x20 DUP3 PUSH1 0x40 MLOAD SWAP1 DUP2 MSTORE RETURN JUMPDEST PUSH1 0x24 SWAP1 PUSH1 0x40 MLOAD SWAP1 PUSH4 0x7F6E4DB9 PUSH1 0xE0 SHL DUP3 MSTORE PUSH1 0x4 DUP3 ADD MSTORE REVERT JUMPDEST PUSH1 0x0 DUP1 REVERT JUMPDEST POP CALLVALUE PUSH2 0x4AB JUMPI DUP1 PUSH1 0x3 NOT CALLDATASIZE ADD SLT PUSH2 0x4AB JUMPI PUSH1 0x20 PUSH2 0x13A SLOAD PUSH1 0x40 MLOAD SWAP1 DUP2 MSTORE RETURN JUMPDEST CALLDATASIZE PUSH1 0x3 NOT ADD SLT SWAP1 POP PUSH2 0x4AB JUMPI PUSH2 0x55D CALLDATASIZE PUSH1 0x4 PUSH2 0x28AE JUMP JUMPDEST SWAP1 PUSH2 0x566 PUSH2 0x342D JUMP JUMPDEST POP PUSH2 0x56F PUSH2 0x31E7 JUMP JUMPDEST SWAP1 PUSH2 0x5F0 PUSH1 0x1 DUP1 PUSH1 0xA0 SHL SUB SWAP2 PUSH2 0x587 DUP4 DUP7 MLOAD AND PUSH2 0x3106 JUMP JUMPDEST SWAP3 PUSH2 0x5AA PUSH2 0x595 DUP6 DUP8 PUSH2 0x2DC7 JUMP JUMPDEST MLOAD SWAP6 PUSH2 0x5A1 DUP8 DUP8 PUSH2 0x35D8 JUMP JUMPDEST PUSH2 0x149 SLOAD PUSH2 0x3595 JUMP JUMPDEST PUSH2 0x5EA PUSH1 0x20 DUP10 SWAP7 SWAP4 SWAP7 ADD SWAP8 PUSH2 0x5E5 PUSH2 0x5C3 DUP3 DUP12 MLOAD PUSH2 0x3EC6 JUMP JUMPDEST SWAP8 PUSH2 0x5E0 PUSH2 0x5D6 DUP13 MLOAD PUSH2 0x134 SLOAD SWAP1 PUSH2 0x2EFF JUMP JUMPDEST SWAP6 PUSH2 0x131 SLOAD PUSH2 0x2FC4 JUMP JUMPDEST PUSH2 0x2FC4 JUMP JUMPDEST PUSH2 0x2EFF JUMP JUMPDEST SWAP1 PUSH2 0x3EC6 JUMP JUMPDEST SWAP6 PUSH1 0x40 DUP2 ADD MLOAD DUP1 DUP9 LT DUP1 ISZERO PUSH2 0x6E6 JUMPI JUMPDEST PUSH2 0x6C8 JUMPI POP PUSH2 0x621 DUP3 PUSH1 0x80 DUP4 ADD MLOAD AND DUP6 DUP5 PUSH1 0xC0 DUP6 ADD MLOAD AND PUSH2 0x13F SLOAD SWAP3 PUSH2 0x3658 JUMP JUMPDEST SWAP7 SWAP2 SWAP8 SWAP1 SWAP6 PUSH1 0x60 DUP5 ADD MLOAD DUP1 DUP11 GT PUSH2 0x6A9 JUMPI POP SWAP3 PUSH2 0x658 DUP7 PUSH2 0x662 SWAP7 SWAP5 PUSH1 0xA0 SWAP5 PUSH2 0x651 PUSH1 0x1 PUSH2 0x6A5 SWAP14 SWAP13 SWAP12 SWAP10 PUSH2 0x38F0 JUMP JUMPDEST MLOAD SWAP1 PUSH2 0x39AA JUMP JUMPDEST ADD MLOAD AND SWAP1 DUP8 PUSH2 0x351E JUMP JUMPDEST PUSH1 0x40 MLOAD SWAP5 DUP6 SWAP5 DUP6 SWAP3 SWAP4 PUSH1 0x60 SWAP2 SWAP6 SWAP5 PUSH1 0xC0 SWAP4 PUSH1 0xE0 DUP7 ADD SWAP8 DUP7 MSTORE PUSH1 0x20 DUP7 ADD MSTORE PUSH1 0x40 DUP6 ADD MSTORE DUP1 MLOAD DUP3 DUP6 ADD MSTORE PUSH1 0x20 DUP2 ADD MLOAD PUSH1 0x80 DUP6 ADD MSTORE PUSH1 0x40 DUP2 ADD MLOAD PUSH1 0xA0 DUP6 ADD MSTORE ADD MLOAD SWAP2 ADD MSTORE JUMP JUMPDEST SUB SWAP1 RETURN JUMPDEST PUSH1 0x44 SWAP1 DUP10 MLOAD PUSH1 0x40 MLOAD SWAP2 PUSH4 0xB63F1A7 PUSH1 0xE0 SHL DUP4 MSTORE PUSH1 0x4 DUP4 ADD MSTORE PUSH1 0x24 DUP3 ADD MSTORE REVERT JUMPDEST PUSH1 0x44 SWAP1 DUP9 PUSH1 0x40 MLOAD SWAP2 PUSH4 0xF577BEF5 PUSH1 0xE0 SHL DUP4 MSTORE PUSH1 0x4 DUP4 ADD MSTORE PUSH1 0x24 DUP3 ADD MSTORE REVERT JUMPDEST POP DUP8 ISZERO PUSH2 0x600 JUMP JUMPDEST DUP3 CALLVALUE PUSH2 0x4AB JUMPI DUP1 PUSH1 0x3 NOT CALLDATASIZE ADD SLT PUSH2 0x4AB JUMPI PUSH1 0x20 PUSH2 0x141 SLOAD PUSH1 0x40 MLOAD SWAP1 DUP2 MSTORE RETURN JUMPDEST DUP3 CALLVALUE PUSH2 0x4AB JUMPI DUP1 PUSH1 0x3 NOT CALLDATASIZE ADD SLT PUSH2 0x4AB JUMPI PUSH1 0x20 PUSH2 0x131 SLOAD PUSH1 0x40 MLOAD SWAP1 DUP2 MSTORE RETURN JUMPDEST DUP3 CALLVALUE PUSH2 0x4AB JUMPI PUSH1 0x20 CALLDATASIZE PUSH1 0x3 NOT ADD SLT PUSH2 0x4AB JUMPI PUSH2 0x746 PUSH2 0x3E17 JUMP JUMPDEST PUSH1 0x4 CALLDATALOAD PUSH2 0x13C SSTORE DUP1 RETURN JUMPDEST SWAP1 POP CALLVALUE PUSH2 0x93B JUMPI CALLDATASIZE PUSH1 0x3 NOT ADD SLT PUSH2 0x4AB JUMPI PUSH1 0x4 CALLDATALOAD PUSH1 0x1 PUSH1 0x1 PUSH1 0xA0 SHL SUB DUP2 DUP2 AND SWAP2 DUP3 SWAP1 SUB PUSH2 0x522 JUMPI DUP2 DUP4 MSTORE PUSH2 0x136 PUSH1 0x20 MSTORE PUSH1 0x40 DUP4 KECCAK256 PUSH1 0xFF PUSH1 0x1 PUSH1 0x40 MLOAD SWAP3 PUSH2 0x797 PUSH1 0x40 DUP6 PUSH2 0x285A JUMP JUMPDEST DUP1 SLOAD DUP5 MSTORE ADD SLOAD AND ISZERO DUP1 ISZERO PUSH1 0x20 DUP4 ADD MSTORE PUSH2 0x8ED JUMPI MLOAD SWAP1 PUSH1 0x24 CALLDATALOAD SWAP1 DUP1 DUP3 AND DUP1 SWAP3 SUB PUSH2 0x522 JUMPI PUSH2 0x137 SWAP1 PUSH1 0x1 PUSH2 0x7CA DUP6 DUP5 PUSH2 0x283E JUMP JUMPDEST POP ADD SLOAD AND DUP3 SUB PUSH2 0x873 JUMPI JUMPDEST DUP5 PUSH32 0x6417E5A3C1E0E5DAE98B8FE718C4BABDFCB35E0D7B5E1B9641B5914756F5D8E3 PUSH1 0x4 DUP6 DUP8 PUSH2 0x826 PUSH2 0x80A DUP4 PUSH2 0x148 PUSH2 0x27FC JUMP JUMPDEST PUSH1 0x44 SWAP3 SWAP2 SWAP3 CALLDATALOAD SWAP1 DUP4 SLOAD SWAP1 PUSH1 0x3 SHL SWAP2 DUP3 SHL SWAP2 PUSH1 0x0 NOT SWAP1 SHL NOT AND OR SWAP1 JUMP JUMPDEST SWAP1 SSTORE DUP1 DUP6 MSTORE PUSH2 0x144 PUSH1 0x20 MSTORE PUSH1 0x64 CALLDATALOAD PUSH1 0x40 DUP7 KECCAK256 SSTORE DUP5 MSTORE PUSH2 0x145 PUSH1 0x20 MSTORE PUSH1 0x84 CALLDATALOAD PUSH1 0x40 DUP6 KECCAK256 SSTORE PUSH2 0x855 DUP2 PUSH2 0x18E PUSH2 0x283E JUMP JUMPDEST POP PUSH1 0x1 PUSH1 0xC4 CALLDATALOAD SWAP2 ADD SSTORE PUSH2 0x86D PUSH1 0x40 MLOAD SWAP3 DUP4 SWAP3 DUP4 PUSH2 0x33C5 JUMP JUMPDEST SUB SWAP1 LOG1 DUP1 RETURN JUMPDEST SWAP2 SWAP1 SWAP3 PUSH1 0x40 MLOAD PUSH4 0x59E02DD7 PUSH1 0xE0 SHL DUP2 MSTORE PUSH1 0x40 DUP2 PUSH1 0x4 DUP2 DUP9 GAS STATICCALL SWAP1 DUP2 ISZERO PUSH2 0x930 JUMPI DUP7 SWAP2 PUSH2 0x8FF JUMPI JUMPDEST POP ISZERO PUSH2 0x8ED JUMPI PUSH32 0x6417E5A3C1E0E5DAE98B8FE718C4BABDFCB35E0D7B5E1B9641B5914756F5D8E3 SWAP4 PUSH1 0x1 PUSH2 0x8D0 DUP5 PUSH1 0x4 SWAP7 PUSH2 0x283E JUMP JUMPDEST POP ADD SWAP1 PUSH1 0x1 PUSH1 0x1 PUSH1 0x60 SHL SUB PUSH1 0xA0 SHL DUP3 SLOAD AND OR SWAP1 SSTORE SWAP3 DUP2 SWAP3 POP PUSH2 0x7D5 JUMP JUMPDEST PUSH1 0x40 MLOAD PUSH4 0xE6C4247B PUSH1 0xE0 SHL DUP2 MSTORE PUSH1 0x4 SWAP1 REVERT JUMPDEST PUSH2 0x921 SWAP2 POP PUSH1 0x40 RETURNDATASIZE PUSH1 0x40 GT PUSH2 0x929 JUMPI JUMPDEST PUSH2 0x919 DUP2 DUP4 PUSH2 0x285A JUMP JUMPDEST DUP2 ADD SWAP1 PUSH2 0x316B JUMP JUMPDEST SWAP1 POP CODESIZE PUSH2 0x89A JUMP JUMPDEST POP RETURNDATASIZE PUSH2 0x90F JUMP JUMPDEST PUSH1 0x40 MLOAD RETURNDATASIZE DUP9 DUP3 RETURNDATACOPY RETURNDATASIZE SWAP1 REVERT JUMPDEST POP DUP1 REVERT JUMPDEST DUP3 CALLVALUE PUSH2 0x4AB JUMPI DUP1 PUSH1 0x3 NOT CALLDATASIZE ADD SLT PUSH2 0x4AB JUMPI PUSH2 0x130 SLOAD PUSH1 0x40 MLOAD PUSH1 0x1 PUSH1 0x1 PUSH1 0xA0 SHL SUB SWAP1 SWAP2 AND DUP2 MSTORE PUSH1 0x20 SWAP1 RETURN JUMPDEST DUP3 CALLVALUE PUSH2 0x4AB JUMPI DUP1 PUSH1 0x3 NOT CALLDATASIZE ADD SLT PUSH2 0x4AB JUMPI PUSH2 0x152 SLOAD PUSH1 0x40 MLOAD PUSH1 0x1 PUSH1 0x1 PUSH1 0xA0 SHL SUB SWAP1 SWAP2 AND DUP2 MSTORE PUSH1 0x20 SWAP1 RETURN JUMPDEST DUP3 CALLVALUE PUSH2 0x4AB JUMPI DUP1 PUSH1 0x3 NOT CALLDATASIZE ADD SLT PUSH2 0x4AB JUMPI PUSH1 0x20 PUSH1 0xFF PUSH2 0x14B SLOAD AND PUSH1 0x40 MLOAD SWAP1 ISZERO ISZERO DUP2 MSTORE RETURN JUMPDEST DUP3 CALLVALUE PUSH2 0x4AB JUMPI PUSH1 0x20 CALLDATASIZE PUSH1 0x3 NOT ADD SLT PUSH2 0x4AB JUMPI PUSH1 0x4 CALLDATALOAD SWAP1 PUSH2 0x18E SWAP1 DUP2 SLOAD DUP4 LT ISZERO PUSH2 0x4AB JUMPI PUSH1 0x40 PUSH2 0x9E6 DUP5 DUP5 PUSH2 0x283E JUMP JUMPDEST POP PUSH1 0x1 DUP2 SLOAD SWAP2 ADD SLOAD DUP3 MLOAD SWAP2 DUP3 MSTORE PUSH1 0x20 DUP3 ADD MSTORE RETURN JUMPDEST DUP3 CALLVALUE PUSH2 0x4AB JUMPI PUSH1 0x20 CALLDATASIZE PUSH1 0x3 NOT ADD SLT PUSH2 0x4AB JUMPI PUSH1 0x4 CALLDATALOAD PUSH1 0x1 PUSH1 0x1 PUSH1 0xA0 SHL SUB DUP2 AND SWAP1 DUP2 SWAP1 SUB PUSH2 0x93B JUMPI PUSH2 0xA29 PUSH2 0x3E17 JUMP JUMPDEST PUSH1 0x1 PUSH1 0x1 PUSH1 0x60 SHL SUB PUSH1 0xA0 SHL PUSH1 0x97 SLOAD AND OR PUSH1 0x97 SSTORE DUP1 RETURN JUMPDEST DUP3 PUSH1 0xC0 CALLDATASIZE PUSH1 0x3 NOT ADD SLT PUSH2 0x4AB JUMPI PUSH1 0x40 MLOAD SWAP1 PUSH2 0xA5B PUSH1 0xC0 DUP4 PUSH2 0x285A JUMP JUMPDEST PUSH1 0x1 PUSH1 0x1 PUSH1 0xA0 SHL SUB SWAP1 PUSH1 0x4 CALLDATALOAD DUP3 DUP2 AND DUP2 SUB PUSH2 0x522 JUMPI DUP4 MSTORE PUSH1 0x20 DUP4 ADD PUSH1 0x24 CALLDATALOAD DUP2 MSTORE PUSH1 0x40 DUP5 ADD SWAP3 PUSH1 0x44 CALLDATALOAD DUP5 MSTORE PUSH1 0x64 CALLDATALOAD SWAP1 DUP1 DUP3 AND DUP3 SUB PUSH2 0x522 JUMPI PUSH1 0x60 DUP7 ADD SWAP2 DUP3 MSTORE PUSH1 0x84 CALLDATALOAD DUP2 DUP2 AND DUP2 SUB PUSH2 0x522 JUMPI PUSH1 0x80 DUP8 ADD SWAP1 DUP2 MSTORE PUSH1 0xA4 CALLDATALOAD SWAP5 DUP3 DUP7 AND DUP7 SUB PUSH2 0x522 JUMPI PUSH1 0xA0 DUP9 ADD SWAP6 DUP7 MSTORE PUSH2 0xAC8 PUSH2 0x342D JUMP JUMPDEST POP PUSH2 0xADD DUP4 PUSH2 0xAD5 PUSH2 0x31E7 JUMP JUMPDEST SWAP10 MLOAD AND PUSH2 0x3106 JUMP JUMPDEST SWAP2 PUSH2 0xB00 PUSH2 0xAEB DUP5 DUP12 PUSH2 0x2DC7 JUMP JUMPDEST MLOAD SWAP10 PUSH2 0xAF7 DUP12 DUP7 PUSH2 0x35D8 JUMP JUMPDEST PUSH2 0x14A SLOAD PUSH2 0x3595 JUMP JUMPDEST SWAP10 PUSH2 0xB17 DUP9 MLOAD SWAP12 PUSH2 0xB11 DUP4 DUP9 PUSH2 0x3C22 JUMP JUMPDEST SWAP4 PUSH2 0x3629 JUMP JUMPDEST SWAP2 PUSH8 0xDE0B6B3A763FFFF NOT DUP2 ADD SWAP1 DUP2 GT PUSH2 0xC2D JUMPI DUP2 PUSH2 0xB39 PUSH2 0xB3E SWAP3 DUP15 PUSH2 0x2EFF JUMP JUMPDEST PUSH2 0x2F12 JUMP JUMPDEST SWAP9 PUSH8 0xDE0B6B3A7640000 SWAP3 DUP4 DUP12 MUL SWAP1 DUP12 DUP3 DIV DUP6 EQ DUP13 ISZERO OR ISZERO PUSH2 0xC17 JUMPI PUSH2 0xB63 SWAP2 PUSH2 0x2F12 JUMP JUMPDEST SWAP12 DUP4 DUP2 MUL SWAP4 DUP2 DUP6 DIV EQ SWAP1 ISZERO OR ISZERO PUSH2 0xC17 JUMPI PUSH2 0xBAE SWAP8 DUP8 PUSH2 0xB91 PUSH2 0xB8A PUSH2 0xBA3 SWAP6 DUP4 SWAP8 PUSH2 0x2F12 JUMP JUMPDEST DUP1 SWAP14 PUSH2 0x2DDB JUMP JUMPDEST SWAP9 DUP10 SWAP3 MLOAD AND SWAP3 MLOAD AND PUSH2 0x142 SLOAD SWAP3 PUSH2 0x3658 JUMP JUMPDEST SWAP9 SWAP2 DUP8 SWAP9 SWAP2 SWAP9 PUSH2 0x2DDB JUMP JUMPDEST SWAP10 MLOAD DUP1 DUP12 GT PUSH2 0xBF9 JUMPI POP DUP10 ISZERO PUSH2 0xBE7 JUMPI PUSH2 0xBDD PUSH2 0x662 SWAP7 PUSH2 0xBD2 DUP7 PUSH2 0x6A5 SWAP13 PUSH2 0x38F0 JUMP JUMPDEST DUP4 DUP6 MLOAD AND SWAP1 DUP14 PUSH2 0x351E JUMP JUMPDEST MLOAD SWAP2 MLOAD AND SWAP3 PUSH2 0x3454 JUMP JUMPDEST PUSH1 0x40 MLOAD PUSH4 0xF3E39B5D PUSH1 0xE0 SHL DUP2 MSTORE PUSH1 0x4 SWAP1 REVERT JUMPDEST PUSH1 0x44 SWAP1 DUP12 PUSH1 0x40 MLOAD SWAP2 PUSH4 0xB63F1A7 PUSH1 0xE0 SHL DUP4 MSTORE PUSH1 0x4 DUP4 ADD MSTORE PUSH1 0x24 DUP3 ADD MSTORE REVERT JUMPDEST PUSH4 0x4E487B71 PUSH1 0xE0 SHL PUSH1 0x0 MSTORE PUSH1 0x11 PUSH1 0x4 MSTORE PUSH1 0x24 PUSH1 0x0 REVERT JUMPDEST PUSH4 0x4E487B71 PUSH1 0xE0 SHL DUP6 MSTORE PUSH1 0x11 PUSH1 0x4 MSTORE PUSH1 0x24 DUP6 REVERT JUMPDEST SWAP1 POP PUSH2 0x100 DUP1 PUSH1 0x3 NOT CALLDATASIZE ADD SLT PUSH2 0xE99 JUMPI PUSH2 0xC5E PUSH1 0x40 MLOAD SWAP2 DUP3 PUSH2 0x285A JUMP JUMPDEST PUSH1 0x4 CALLDATALOAD PUSH1 0x1 PUSH1 0x1 PUSH1 0xA0 SHL SUB DUP2 AND DUP2 SUB PUSH2 0x522 JUMPI DUP2 MSTORE PUSH1 0x24 CALLDATALOAD PUSH1 0x1 PUSH1 0x1 PUSH1 0xA0 SHL SUB DUP2 AND DUP2 SUB PUSH2 0x522 JUMPI PUSH1 0x20 DUP3 ADD SWAP1 DUP2 MSTORE PUSH1 0x44 CALLDATALOAD PUSH1 0x40 DUP4 ADD MSTORE PUSH1 0x60 DUP3 ADD SWAP4 PUSH1 0x64 CALLDATALOAD DUP6 MSTORE PUSH1 0x80 DUP4 ADD SWAP2 PUSH1 0x84 CALLDATALOAD DUP4 MSTORE PUSH1 0xA4 CALLDATALOAD SWAP5 PUSH1 0x1 DUP1 PUSH1 0xA0 SHL SUB DUP7 AND DUP7 SUB PUSH2 0x522 JUMPI PUSH1 0xA0 DUP6 ADD SWAP6 DUP7 MSTORE PUSH1 0xC4 CALLDATALOAD PUSH1 0x1 PUSH1 0x1 PUSH1 0xA0 SHL SUB DUP2 AND DUP2 SUB PUSH2 0x522 JUMPI PUSH1 0xC0 DUP7 ADD MSTORE PUSH1 0xE4 CALLDATALOAD SWAP1 PUSH1 0x1 PUSH1 0x1 PUSH1 0xA0 SHL SUB DUP3 AND DUP3 SUB PUSH2 0x522 JUMPI DUP6 ADD SWAP1 DUP2 MSTORE PUSH2 0xCFC PUSH2 0x342D JUMP JUMPDEST POP DUP5 MLOAD DUP3 MLOAD PUSH1 0x1 PUSH1 0x1 PUSH1 0xA0 SHL SUB SWAP1 DUP2 AND SWAP2 AND EQ PUSH2 0xE87 JUMPI DUP5 MLOAD PUSH2 0xD3B SWAP1 PUSH2 0xD2B SWAP1 PUSH1 0x1 PUSH1 0x1 PUSH1 0xA0 SHL SUB AND PUSH2 0x3106 JUMP JUMPDEST SWAP3 MLOAD PUSH1 0x1 PUSH1 0x1 PUSH1 0xA0 SHL SUB AND PUSH2 0x3106 JUMP JUMPDEST SWAP6 PUSH2 0xD45 DUP4 PUSH2 0x312F JUMP JUMPDEST SWAP1 PUSH2 0xD4F DUP9 PUSH2 0x312F JUMP JUMPDEST PUSH2 0xD59 DUP4 DUP7 PUSH2 0x35D8 JUMP JUMPDEST PUSH2 0xD63 DUP2 DUP11 PUSH2 0x35D8 JUMP JUMPDEST PUSH2 0xD71 DUP4 PUSH1 0x40 DUP11 ADD MLOAD PUSH2 0x3EC6 JUMP JUMPDEST SWAP3 PUSH2 0xD84 DUP2 PUSH2 0xB39 DUP5 PUSH1 0x40 DUP14 ADD MLOAD PUSH2 0x2EFF JUMP JUMPDEST SWAP11 MLOAD DUP1 DUP13 LT DUP1 ISZERO PUSH2 0xE7F JUMPI JUMPDEST PUSH2 0xE61 JUMPI POP SWAP1 DUP11 DUP11 PUSH2 0xDD7 SWAP7 SWAP6 SWAP5 SWAP4 PUSH2 0xDB3 PUSH2 0xDAC DUP6 DUP5 PUSH2 0x3C22 JUMP JUMPDEST SWAP2 DUP11 PUSH2 0x3C22 JUMP JUMPDEST LT PUSH2 0xE32 JUMPI JUMPDEST POP POP SWAP1 MLOAD SWAP3 MLOAD PUSH2 0x13E SLOAD SWAP4 PUSH1 0x1 PUSH1 0x1 PUSH1 0xA0 SHL SUB SWAP2 DUP3 AND SWAP3 POP AND PUSH2 0x3658 JUMP JUMPDEST SWAP6 SWAP2 SWAP7 SWAP1 SWAP5 MLOAD DUP1 DUP9 GT PUSH2 0xE13 JUMPI POP SWAP2 PUSH1 0x40 DUP5 SWAP3 PUSH2 0xE0B PUSH2 0x662 SWAP6 PUSH2 0x6A5 SWAP10 SWAP9 SWAP8 DUP13 PUSH1 0x1 DUP1 PUSH1 0xA0 SHL SUB PUSH1 0xC0 DUP7 ADD MLOAD AND SWAP3 PUSH2 0x3454 JUMP JUMPDEST ADD MLOAD SWAP1 PUSH2 0x39AA JUMP JUMPDEST PUSH1 0x44 SWAP1 DUP8 MLOAD PUSH1 0x40 MLOAD SWAP2 PUSH4 0xB63F1A7 PUSH1 0xE0 SHL DUP4 MSTORE PUSH1 0x4 DUP4 ADD MSTORE PUSH1 0x24 DUP3 ADD MSTORE REVERT JUMPDEST PUSH2 0xE51 PUSH2 0xE59 SWAP4 PUSH2 0xE41 PUSH2 0x3D83 JUMP JUMPDEST PUSH2 0xE49 PUSH2 0x3CC5 JUMP JUMPDEST DUP2 SWAP4 SWAP2 PUSH2 0x3595 JUMP JUMPDEST SWAP5 SWAP1 SWAP4 PUSH2 0x3A95 JUMP JUMPDEST CODESIZE DUP11 DUP11 PUSH2 0xDB9 JUMP JUMPDEST PUSH1 0x44 SWAP1 DUP13 PUSH1 0x40 MLOAD SWAP2 PUSH4 0x272E3F59 PUSH1 0xE2 SHL DUP4 MSTORE PUSH1 0x4 DUP4 ADD MSTORE PUSH1 0x24 DUP3 ADD MSTORE REVERT JUMPDEST POP DUP12 ISZERO PUSH2 0xD90 JUMP JUMPDEST PUSH1 0x40 MLOAD PUSH4 0x2A9FFAB7 PUSH1 0xE2 SHL DUP2 MSTORE PUSH1 0x4 SWAP1 REVERT JUMPDEST DUP3 DUP1 REVERT JUMPDEST DUP3 CALLVALUE PUSH2 0x4AB JUMPI PUSH1 0x20 CALLDATASIZE PUSH1 0x3 NOT ADD SLT PUSH2 0x4AB JUMPI PUSH1 0x4 CALLDATALOAD PUSH1 0x1 PUSH1 0x1 PUSH1 0xA0 SHL SUB DUP2 AND SWAP1 DUP2 SWAP1 SUB PUSH2 0x522 JUMPI DUP2 PUSH1 0x40 SWAP2 PUSH1 0x20 SWAP4 MSTORE PUSH2 0x145 DUP4 MSTORE KECCAK256 SLOAD PUSH1 0x40 MLOAD SWAP1 DUP2 MSTORE RETURN JUMPDEST SWAP1 POP CALLVALUE PUSH2 0x93B JUMPI CALLDATASIZE PUSH1 0x3 NOT ADD SLT PUSH2 0x4AB JUMPI PUSH1 0x4 CALLDATALOAD PUSH1 0x1 PUSH1 0x1 PUSH1 0xA0 SHL SUB DUP2 DUP2 AND SWAP2 DUP3 SWAP1 SUB PUSH2 0x522 JUMPI PUSH1 0x24 DUP1 CALLDATALOAD DUP3 DUP2 AND DUP1 SWAP2 SUB PUSH2 0x522 JUMPI DUP4 DUP6 MSTORE PUSH2 0x136 SWAP4 PUSH1 0x20 SWAP1 DUP6 DUP3 MSTORE PUSH1 0x1 SWAP3 PUSH1 0xFF DUP5 PUSH1 0x40 DUP11 KECCAK256 ADD SLOAD AND PUSH2 0x1141 JUMPI PUSH2 0x135 SWAP6 DUP7 SLOAD SWAP8 DUP6 PUSH1 0x40 MLOAD PUSH2 0xF44 PUSH1 0x40 DUP3 PUSH2 0x285A JUMP JUMPDEST DUP11 DUP2 MSTORE DUP7 DUP2 ADD SWAP3 DUP3 DUP5 MSTORE DUP7 DUP14 MSTORE DUP8 MSTORE PUSH1 0x40 DUP13 KECCAK256 SWAP1 MLOAD DUP2 SSTORE ADD SWAP1 MLOAD ISZERO ISZERO PUSH1 0xFF DUP1 NOT DUP4 SLOAD AND SWAP2 AND OR SWAP1 SSTORE DUP7 SLOAD PUSH1 0x1 PUSH1 0x40 SHL SWAP8 DUP9 DUP3 LT ISZERO PUSH2 0x112E JUMPI SWAP1 PUSH2 0xF8B SWAP2 DUP8 DUP3 ADD DUP2 SSTORE PUSH2 0x27FC JUMP JUMPDEST DUP2 SLOAD SWAP1 PUSH1 0x3 SHL SWAP1 DUP4 DUP7 DUP4 SHL SWAP3 SHL NOT AND OR SWAP1 SSTORE PUSH1 0x40 MLOAD PUSH2 0xFAB PUSH1 0x40 DUP3 PUSH2 0x285A JUMP JUMPDEST DUP10 DUP2 MSTORE DUP5 DUP2 ADD SWAP3 DUP4 MSTORE PUSH2 0x137 DUP1 SLOAD SWAP1 DUP10 DUP3 LT ISZERO PUSH2 0x111B JUMPI SWAP1 PUSH2 0xFD1 SWAP2 DUP9 DUP3 ADD DUP2 SSTORE PUSH2 0x283E JUMP JUMPDEST SWAP2 SWAP1 SWAP2 PUSH2 0x1108 JUMPI SWAP1 DUP7 SWAP2 MLOAD DUP2 SSTORE ADD SWAP2 MLOAD AND PUSH1 0x1 PUSH1 0x1 PUSH1 0x60 SHL SUB PUSH1 0xA0 SHL DUP3 SLOAD AND OR SWAP1 SSTORE PUSH2 0x1001 PUSH1 0x44 CALLDATALOAD PUSH2 0x148 PUSH2 0x301B JUMP JUMPDEST DUP1 DUP8 MSTORE PUSH2 0x144 DUP3 MSTORE PUSH1 0x64 CALLDATALOAD PUSH1 0x40 DUP9 KECCAK256 SSTORE DUP7 MSTORE PUSH2 0x145 DUP2 MSTORE PUSH1 0x84 CALLDATALOAD PUSH1 0x40 DUP8 KECCAK256 SSTORE PUSH1 0x40 MLOAD SWAP1 PUSH2 0x102F PUSH1 0x40 DUP4 PUSH2 0x285A JUMP JUMPDEST PUSH1 0xA4 CALLDATALOAD DUP3 MSTORE DUP2 ADD PUSH1 0xC4 CALLDATALOAD DUP2 MSTORE PUSH2 0x18E DUP1 SLOAD SWAP1 DUP7 DUP3 LT ISZERO PUSH2 0x10F5 JUMPI SWAP1 PUSH2 0x1058 SWAP2 DUP6 DUP3 ADD DUP2 SSTORE PUSH2 0x283E JUMP JUMPDEST SWAP3 SWAP1 SWAP3 PUSH2 0x10E2 JUMPI SWAP1 DUP4 SWAP2 MLOAD DUP4 SSTORE MLOAD SWAP2 ADD SSTORE PUSH2 0x150 SWAP2 DUP3 SLOAD SWAP4 DUP5 LT ISZERO PUSH2 0x10D0 JUMPI POP DUP3 PUSH32 0x6417E5A3C1E0E5DAE98B8FE718C4BABDFCB35E0D7B5E1B9641B5914756F5D8E3 SWAP5 SWAP3 PUSH2 0x10AB SWAP3 PUSH1 0x4 SWAP6 ADD DUP2 SSTORE PUSH2 0x27FC JUMP JUMPDEST POP POP PUSH2 0x10C1 PUSH2 0x10B9 DUP3 PUSH2 0x312F JUMP JUMPDEST PUSH2 0x151 PUSH2 0x301B JUMP JUMPDEST PUSH2 0x86D PUSH1 0x40 MLOAD SWAP3 DUP4 SWAP3 DUP4 PUSH2 0x33C5 JUMP JUMPDEST PUSH4 0x4E487B71 PUSH1 0xE0 SHL DUP7 MSTORE PUSH1 0x41 PUSH1 0x4 MSTORE DUP6 REVERT JUMPDEST PUSH4 0x4E487B71 PUSH1 0xE0 SHL DUP9 MSTORE PUSH1 0x4 DUP9 SWAP1 MSTORE DUP5 DUP9 REVERT JUMPDEST PUSH4 0x4E487B71 PUSH1 0xE0 SHL DUP10 MSTORE PUSH1 0x41 PUSH1 0x4 MSTORE DUP6 DUP10 REVERT JUMPDEST PUSH4 0x4E487B71 PUSH1 0xE0 SHL DUP12 MSTORE PUSH1 0x4 DUP12 SWAP1 MSTORE DUP8 DUP12 REVERT JUMPDEST PUSH4 0x4E487B71 PUSH1 0xE0 SHL DUP13 MSTORE PUSH1 0x41 PUSH1 0x4 MSTORE DUP9 DUP13 REVERT JUMPDEST PUSH4 0x4E487B71 PUSH1 0xE0 SHL DUP12 MSTORE PUSH1 0x41 PUSH1 0x4 MSTORE DUP8 DUP12 REVERT JUMPDEST PUSH1 0x40 MLOAD PUSH4 0x3458F6C5 PUSH1 0xE0 SHL DUP2 MSTORE PUSH1 0x4 SWAP1 REVERT JUMPDEST CALLDATASIZE PUSH1 0x3 NOT ADD SLT SWAP1 POP PUSH2 0x4AB JUMPI PUSH2 0x116A CALLDATASIZE PUSH1 0x4 PUSH2 0x28AE JUMP JUMPDEST SWAP1 PUSH2 0x1173 PUSH2 0x342D JUMP JUMPDEST POP PUSH2 0x117C PUSH2 0x3D83 JUMP JUMPDEST PUSH2 0x1184 PUSH2 0x3CC5 JUMP JUMPDEST SWAP3 SWAP1 PUSH1 0x1 DUP1 PUSH1 0xA0 SHL SUB SWAP3 PUSH2 0x119A DUP5 DUP5 MLOAD AND PUSH2 0x3106 JUMP JUMPDEST SWAP1 PUSH2 0x11BA PUSH2 0x11A8 DUP4 DUP9 PUSH2 0x2DC7 JUMP JUMPDEST MLOAD SWAP7 PUSH2 0x11B4 DUP9 DUP6 PUSH2 0x35D8 JUMP JUMPDEST DUP5 PUSH2 0x3595 JUMP JUMPDEST PUSH1 0x20 DUP7 SWAP8 SWAP3 SWAP8 ADD SWAP7 DUP8 MLOAD PUSH2 0x11CF DUP4 DUP4 DUP10 PUSH2 0x3BDA JUMP JUMPDEST DUP2 DUP2 LT PUSH2 0x12BD JUMPI POP POP SWAP1 PUSH2 0x11FB SWAP2 DUP9 MLOAD PUSH8 0xDE0B6B3A7640000 SWAP4 DUP5 SWAP2 PUSH2 0x11F5 DUP6 DUP6 PUSH2 0x3629 JUMP JUMPDEST SWAP1 PUSH2 0x2EFF JUMP JUMPDEST DIV SWAP7 DUP8 ISZERO PUSH2 0xBE7 JUMPI PUSH2 0x1237 SWAP4 PUSH2 0x122E PUSH2 0x1224 DUP14 PUSH2 0x5E5 DUP15 MLOAD PUSH2 0x11F5 DUP9 PUSH2 0x5E0 DUP12 PUSH2 0x131 SLOAD PUSH2 0x2FC4 JUMP JUMPDEST PUSH2 0x134 SLOAD SWAP1 PUSH2 0x2F12 JUMP JUMPDEST DIV SWAP11 DUP12 DUP9 PUSH2 0x3A95 JUMP JUMPDEST PUSH1 0x40 DUP6 ADD MLOAD DUP1 DUP9 LT PUSH2 0x129F JUMPI POP PUSH2 0x1260 DUP2 PUSH1 0x80 DUP8 ADD MLOAD AND DUP6 DUP4 PUSH1 0xC0 DUP10 ADD MLOAD AND PUSH2 0x140 SLOAD SWAP3 PUSH2 0x3658 JUMP JUMPDEST SWAP7 SWAP2 SWAP8 SWAP1 SWAP6 PUSH1 0x60 DUP4 ADD MLOAD DUP1 DUP11 GT PUSH2 0x6A9 JUMPI POP SWAP3 PUSH1 0xA0 DUP6 SWAP4 PUSH2 0x1296 DUP6 DUP14 SWAP6 PUSH2 0x1290 PUSH2 0x662 SWAP11 PUSH2 0x6A5 SWAP15 SWAP14 SWAP13 SWAP11 PUSH2 0x38F0 JUMP JUMPDEST MLOAD PUSH2 0x3A34 JUMP JUMPDEST ADD MLOAD AND SWAP3 PUSH2 0x3454 JUMP JUMPDEST PUSH1 0x44 SWAP1 DUP9 PUSH1 0x40 MLOAD SWAP2 PUSH4 0x272E3F59 PUSH1 0xE2 SHL DUP4 MSTORE PUSH1 0x4 DUP4 ADD MSTORE PUSH1 0x24 DUP3 ADD MSTORE REVERT JUMPDEST PUSH1 0x44 SWAP3 POP PUSH1 0x40 MLOAD SWAP2 PUSH4 0xA5DB715D PUSH1 0xE0 SHL DUP4 MSTORE PUSH1 0x4 DUP4 ADD MSTORE PUSH1 0x24 DUP3 ADD MSTORE REVERT JUMPDEST DUP3 CALLVALUE PUSH2 0x4AB JUMPI PUSH1 0x20 CALLDATASIZE PUSH1 0x3 NOT ADD SLT PUSH2 0x4AB JUMPI PUSH1 0x4 CALLDATALOAD PUSH1 0x1 PUSH1 0x1 PUSH1 0xA0 SHL SUB DUP2 AND SWAP1 DUP2 SWAP1 SUB PUSH2 0x522 JUMPI PUSH2 0x130A PUSH2 0x3E17 JUMP JUMPDEST PUSH2 0x152 DUP1 SLOAD PUSH1 0x1 PUSH1 0x1 PUSH1 0xA0 SHL SUB NOT AND SWAP1 SWAP2 OR SWAP1 SSTORE DUP1 RETURN JUMPDEST DUP3 CALLVALUE PUSH2 0x4AB JUMPI DUP1 PUSH1 0x3 NOT CALLDATASIZE ADD SLT PUSH2 0x4AB JUMPI PUSH1 0x20 PUSH2 0x155 SLOAD PUSH1 0x40 MLOAD SWAP1 DUP2 MSTORE RETURN JUMPDEST DUP3 CALLVALUE PUSH2 0x4AB JUMPI DUP1 PUSH1 0x3 NOT CALLDATASIZE ADD SLT PUSH2 0x4AB JUMPI PUSH1 0x20 PUSH2 0x137A PUSH2 0x1360 PUSH1 0x1 PUSH2 0x3221 JUMP JUMPDEST PUSH2 0x1374 PUSH2 0x136D DUP3 DUP5 PUSH2 0x2F32 JUMP JUMPDEST SWAP2 DUP4 PUSH2 0x2E76 JUMP JUMPDEST SWAP2 PUSH2 0x3268 JUMP JUMPDEST PUSH1 0x40 MLOAD SWAP1 DUP2 MSTORE RETURN JUMPDEST DUP3 CALLVALUE PUSH2 0x4AB JUMPI DUP1 PUSH1 0x3 NOT CALLDATASIZE ADD SLT PUSH2 0x4AB JUMPI PUSH2 0x139B PUSH2 0x3D83 JUMP JUMPDEST DUP1 RETURN JUMPDEST DUP3 CALLVALUE PUSH2 0x4AB JUMPI PUSH1 0x20 CALLDATASIZE PUSH1 0x3 NOT ADD SLT PUSH2 0x4AB JUMPI PUSH1 0x4 CALLDATALOAD PUSH1 0x1 PUSH1 0x1 PUSH1 0xA0 SHL SUB DUP2 AND SWAP1 DUP2 SWAP1 SUB PUSH2 0x522 JUMPI PUSH2 0x13CD PUSH2 0x3E17 JUMP JUMPDEST PUSH2 0x12F DUP1 SLOAD PUSH1 0x1 PUSH1 0x1 PUSH1 0xA0 SHL SUB NOT AND SWAP1 SWAP2 OR SWAP1 SSTORE DUP1 RETURN JUMPDEST DUP3 CALLVALUE PUSH2 0x4AB JUMPI PUSH1 0x20 CALLDATASIZE PUSH1 0x3 NOT ADD SLT PUSH2 0x4AB JUMPI PUSH2 0x13FE PUSH2 0x3E17 JUMP JUMPDEST PUSH1 0x4 CALLDATALOAD PUSH2 0x14C SSTORE DUP1 RETURN JUMPDEST DUP3 CALLVALUE PUSH2 0x4AB JUMPI PUSH1 0x20 CALLDATASIZE PUSH1 0x3 NOT ADD SLT PUSH2 0x4AB JUMPI PUSH2 0x1422 PUSH2 0x3E17 JUMP JUMPDEST PUSH1 0x4 CALLDATALOAD PUSH2 0x13D SSTORE DUP1 RETURN JUMPDEST DUP3 CALLVALUE PUSH2 0x4AB JUMPI PUSH1 0x20 CALLDATASIZE PUSH1 0x3 NOT ADD SLT PUSH2 0x4AB JUMPI PUSH2 0x1446 PUSH2 0x3E17 JUMP JUMPDEST PUSH1 0x4 CALLDATALOAD PUSH2 0x139 SSTORE DUP1 RETURN JUMPDEST DUP3 CALLVALUE PUSH2 0x4AB JUMPI DUP1 PUSH1 0x3 NOT CALLDATASIZE ADD SLT PUSH2 0x4AB JUMPI PUSH1 0x20 PUSH1 0xFF PUSH1 0xCA SLOAD AND PUSH1 0x40 MLOAD SWAP1 ISZERO ISZERO DUP2 MSTORE RETURN JUMPDEST DUP3 CALLVALUE PUSH2 0x4AB JUMPI DUP1 PUSH1 0x3 NOT CALLDATASIZE ADD SLT PUSH2 0x4AB JUMPI PUSH1 0x20 PUSH2 0x15B SLOAD PUSH1 0x40 MLOAD SWAP1 DUP2 MSTORE RETURN JUMPDEST DUP3 CALLVALUE PUSH2 0x4AB JUMPI DUP1 PUSH1 0x3 NOT CALLDATASIZE ADD SLT PUSH2 0x4AB JUMPI PUSH2 0x153 SLOAD PUSH1 0x40 MLOAD PUSH1 0x1 PUSH1 0x1 PUSH1 0xA0 SHL SUB SWAP1 SWAP2 AND DUP2 MSTORE PUSH1 0x20 SWAP1 RETURN JUMPDEST DUP3 CALLVALUE PUSH2 0x4AB JUMPI DUP1 PUSH1 0x3 NOT CALLDATASIZE ADD SLT PUSH2 0x4AB JUMPI PUSH1 0x20 PUSH2 0x13D SLOAD PUSH1 0x40 MLOAD SWAP1 DUP2 MSTORE RETURN JUMPDEST DUP3 CALLVALUE PUSH2 0x4AB JUMPI DUP1 PUSH1 0x3 NOT CALLDATASIZE ADD SLT PUSH2 0x4AB JUMPI PUSH1 0x20 PUSH2 0x18F SLOAD NUMBER LT ISZERO PUSH1 0x40 MLOAD SWAP1 DUP2 MSTORE RETURN JUMPDEST DUP3 CALLVALUE PUSH2 0x4AB JUMPI DUP1 PUSH1 0x3 NOT CALLDATASIZE ADD SLT PUSH2 0x4AB JUMPI PUSH1 0xCA SLOAD PUSH1 0x40 MLOAD PUSH1 0x10 SWAP2 SWAP1 SWAP2 SHR PUSH1 0x1 PUSH1 0x1 PUSH1 0xA0 SHL SUB AND DUP2 MSTORE PUSH1 0x20 SWAP1 RETURN JUMPDEST DUP3 CALLVALUE PUSH2 0x4AB JUMPI PUSH1 0x20 CALLDATASIZE PUSH1 0x3 NOT ADD SLT PUSH2 0x4AB JUMPI PUSH1 0x4 CALLDATALOAD PUSH1 0x1 PUSH1 0x1 PUSH1 0xA0 SHL SUB DUP2 AND SWAP1 DUP2 SWAP1 SUB PUSH2 0x522 JUMPI PUSH1 0x40 DUP3 DUP2 SWAP3 DUP2 MSTORE PUSH2 0x136 PUSH1 0x20 MSTORE KECCAK256 PUSH1 0xFF PUSH1 0x1 DUP3 SLOAD SWAP3 ADD SLOAD AND DUP3 MLOAD SWAP2 DUP3 MSTORE ISZERO ISZERO PUSH1 0x20 DUP3 ADD MSTORE RETURN JUMPDEST DUP3 CALLVALUE PUSH2 0x4AB JUMPI DUP1 PUSH1 0x3 NOT CALLDATASIZE ADD SLT PUSH2 0x4AB JUMPI PUSH1 0x20 PUSH2 0x15A3 PUSH2 0x159D PUSH2 0x1598 PUSH2 0x31E7 JUMP JUMPDEST PUSH2 0x2DE8 JUMP JUMPDEST SWAP1 PUSH2 0x2FA6 JUMP JUMPDEST PUSH2 0x14A SLOAD LT ISZERO PUSH1 0x40 MLOAD SWAP1 DUP2 MSTORE RETURN JUMPDEST DUP3 CALLVALUE PUSH2 0x4AB JUMPI DUP1 PUSH1 0x3 NOT CALLDATASIZE ADD SLT PUSH2 0x4AB JUMPI PUSH2 0x146 SLOAD PUSH1 0x40 MLOAD PUSH1 0x1 PUSH1 0x1 PUSH1 0xA0 SHL SUB SWAP1 SWAP2 AND DUP2 MSTORE PUSH1 0x20 SWAP1 RETURN JUMPDEST DUP3 CALLVALUE PUSH2 0x4AB JUMPI DUP1 PUSH1 0x3 NOT CALLDATASIZE ADD SLT PUSH2 0x4AB JUMPI PUSH2 0x158 SLOAD PUSH1 0x40 MLOAD PUSH1 0x1 PUSH1 0x1 PUSH1 0xA0 SHL SUB SWAP1 SWAP2 AND DUP2 MSTORE PUSH1 0x20 SWAP1 RETURN JUMPDEST DUP3 CALLVALUE PUSH2 0x4AB JUMPI DUP1 PUSH1 0x3 NOT CALLDATASIZE ADD SLT PUSH2 0x4AB JUMPI PUSH1 0x20 PUSH2 0x14A SLOAD PUSH1 0x40 MLOAD SWAP1 DUP2 MSTORE RETURN JUMPDEST DUP3 CALLVALUE PUSH2 0x4AB JUMPI PUSH1 0x20 CALLDATASIZE PUSH1 0x3 NOT ADD SLT PUSH2 0x4AB JUMPI PUSH1 0x4 CALLDATALOAD PUSH1 0x1 PUSH1 0x1 PUSH1 0xA0 SHL SUB DUP2 AND SWAP1 DUP2 SWAP1 SUB PUSH2 0x522 JUMPI PUSH2 0x1653 PUSH2 0x3E17 JUMP JUMPDEST PUSH2 0x153 DUP1 SLOAD PUSH1 0x1 PUSH1 0x1 PUSH1 0xA0 SHL SUB NOT AND SWAP1 SWAP2 OR SWAP1 SSTORE DUP1 RETURN JUMPDEST DUP3 CALLVALUE PUSH2 0x4AB JUMPI DUP1 PUSH1 0x3 NOT CALLDATASIZE ADD SLT PUSH2 0x4AB JUMPI PUSH2 0x1683 PUSH2 0x3EA5 JUMP JUMPDEST PUSH1 0xCA SLOAD PUSH1 0x10 DUP2 SWAP1 SHR PUSH1 0x1 PUSH1 0x1 PUSH1 0xA0 SHL SUB AND CALLER SUB PUSH2 0x16EF JUMPI PUSH1 0xFF DUP2 AND ISZERO PUSH2 0x16DD JUMPI PUSH2 0x100 SWAP1 PUSH2 0xFF00 NOT AND OR PUSH1 0xCA SSTORE PUSH32 0x62E78CEA01BEE320CD4E420270B5EA74000D11B0C9F74754EBDBFC544B05A258 PUSH1 0x20 PUSH1 0x40 MLOAD CALLER DUP2 MSTORE LOG1 DUP1 RETURN JUMPDEST PUSH1 0x40 MLOAD PUSH4 0x866099C3 PUSH1 0xE0 SHL DUP2 MSTORE PUSH1 0x4 SWAP1 REVERT JUMPDEST PUSH1 0x40 MLOAD PUSH4 0x1D77D477 PUSH1 0xE2 SHL DUP2 MSTORE PUSH1 0x4 SWAP1 REVERT JUMPDEST DUP3 CALLVALUE PUSH2 0x4AB JUMPI DUP1 PUSH1 0x3 NOT CALLDATASIZE ADD SLT PUSH2 0x4AB JUMPI PUSH1 0x20 PUSH2 0x15A SLOAD PUSH1 0x40 MLOAD SWAP1 DUP2 MSTORE RETURN JUMPDEST DUP3 CALLVALUE PUSH2 0x4AB JUMPI DUP1 PUSH1 0x3 NOT CALLDATASIZE ADD SLT PUSH2 0x4AB JUMPI PUSH1 0x20 PUSH2 0x137A PUSH2 0x1740 PUSH1 0x1 PUSH2 0x3221 JUMP JUMPDEST PUSH2 0x1374 PUSH2 0x174D DUP3 DUP5 PUSH2 0x2E76 JUMP JUMPDEST SWAP2 DUP4 PUSH2 0x2F32 JUMP JUMPDEST DUP3 CALLVALUE PUSH2 0x4AB JUMPI DUP1 PUSH1 0x3 NOT CALLDATASIZE ADD SLT PUSH2 0x4AB JUMPI PUSH2 0x1C3 SLOAD PUSH1 0x40 MLOAD PUSH1 0x1 PUSH1 0x1 PUSH1 0xA0 SHL SUB SWAP1 SWAP2 AND DUP2 MSTORE PUSH1 0x20 SWAP1 RETURN JUMPDEST DUP3 CALLVALUE PUSH2 0x4AB JUMPI PUSH1 0x20 CALLDATASIZE PUSH1 0x3 NOT ADD SLT PUSH2 0x4AB JUMPI PUSH1 0x4 CALLDATALOAD SWAP1 PUSH2 0x148 SWAP1 DUP2 SLOAD DUP4 LT ISZERO PUSH2 0x4AB JUMPI PUSH1 0x20 PUSH2 0x17AD DUP5 DUP5 PUSH2 0x27FC JUMP JUMPDEST SWAP1 SLOAD PUSH1 0x40 MLOAD SWAP2 PUSH1 0x3 SHL SHR DUP2 MSTORE RETURN JUMPDEST DUP3 CALLVALUE PUSH2 0x4AB JUMPI PUSH1 0x20 CALLDATASIZE PUSH1 0x3 NOT ADD SLT PUSH2 0x4AB JUMPI PUSH2 0x17D5 PUSH2 0x3E17 JUMP JUMPDEST PUSH1 0x4 CALLDATALOAD PUSH2 0x149 SSTORE DUP1 RETURN JUMPDEST CALLDATASIZE PUSH1 0x3 NOT ADD SLT SWAP1 POP PUSH2 0x4AB JUMPI PUSH2 0x17F6 CALLDATASIZE PUSH1 0x4 PUSH2 0x28AE JUMP JUMPDEST PUSH2 0x17FE PUSH2 0x342D JUMP JUMPDEST POP PUSH2 0x1807 PUSH2 0x3D83 JUMP JUMPDEST PUSH2 0x180F PUSH2 0x3CC5 JUMP JUMPDEST DUP3 MLOAD SWAP2 SWAP3 SWAP2 PUSH1 0x1 PUSH1 0x1 PUSH1 0xA0 SHL SUB SWAP1 PUSH2 0x1828 SWAP1 DUP3 AND PUSH2 0x3106 JUMP JUMPDEST SWAP1 PUSH2 0x1842 PUSH2 0x1836 DUP4 DUP6 PUSH2 0x2DC7 JUMP JUMPDEST MLOAD SWAP4 PUSH2 0xAF7 DUP6 DUP6 PUSH2 0x35D8 JUMP JUMPDEST SWAP6 PUSH8 0xDE0B6B3A763FFFF NOT SWAP1 DUP2 DUP2 ADD SWAP1 DUP2 GT PUSH2 0x1996 JUMPI PUSH2 0x1862 SWAP1 DUP7 PUSH2 0x2EFF JUMP JUMPDEST PUSH2 0x186C DUP7 DUP7 PUSH2 0x3C22 JUMP JUMPDEST SWAP2 DUP3 ADD SWAP2 DUP3 GT PUSH2 0x1996 JUMPI PUSH2 0x18B0 SWAP5 SWAP4 SWAP3 SWAP2 PUSH2 0x1886 SWAP2 PUSH2 0x2F12 JUMP JUMPDEST SWAP1 PUSH2 0x189A PUSH1 0x20 DUP9 ADD SWAP3 PUSH2 0x5E5 DUP4 DUP6 MLOAD PUSH2 0x2EFF JUMP JUMPDEST PUSH8 0xDE0B6B3A7640000 SWAP6 DUP7 SWAP2 PUSH2 0x134 SLOAD SWAP1 PUSH2 0x2F12 JUMP JUMPDEST DIV SWAP8 PUSH1 0x40 DUP9 ADD MLOAD DUP1 DUP11 GT PUSH2 0x1978 JUMPI POP PUSH2 0x18CB SWAP1 DUP4 MLOAD SWAP3 PUSH2 0x3629 JUMP JUMPDEST SWAP6 DUP6 DUP10 MUL SWAP1 DUP10 DUP3 DIV DUP8 EQ DUP11 ISZERO OR ISZERO PUSH2 0xC17 JUMPI PUSH2 0x18E6 SWAP2 PUSH2 0x2F12 JUMP JUMPDEST SWAP1 DUP2 ISZERO PUSH2 0xBE7 JUMPI PUSH2 0x190A PUSH2 0x192F SWAP7 PUSH2 0x1903 PUSH1 0x60 SWAP10 PUSH2 0x1924 SWAP5 PUSH2 0x2EFF JUMP JUMPDEST DIV DUP4 PUSH2 0x2DDB JUMP JUMPDEST SWAP4 DUP5 DUP2 PUSH1 0x80 DUP12 ADD MLOAD AND SWAP2 PUSH1 0xC0 DUP12 ADD MLOAD AND PUSH2 0x141 SLOAD SWAP3 PUSH2 0x3658 JUMP JUMPDEST SWAP8 SWAP2 DUP6 SWAP8 SWAP2 SWAP8 PUSH2 0x2FC4 JUMP JUMPDEST SWAP8 ADD MLOAD DUP1 DUP9 LT PUSH2 0x195A JUMPI POP SWAP3 PUSH2 0x1955 DUP9 SWAP10 SWAP4 PUSH2 0x6A5 SWAP9 SWAP10 SWAP4 PUSH2 0x1290 PUSH1 0x1 PUSH2 0x662 SWAP9 PUSH2 0x38F0 JUMP JUMPDEST PUSH2 0x39AA JUMP JUMPDEST PUSH1 0x44 SWAP1 DUP9 PUSH1 0x40 MLOAD SWAP2 PUSH4 0x54CDE313 PUSH1 0xE0 SHL DUP4 MSTORE PUSH1 0x4 DUP4 ADD MSTORE PUSH1 0x24 DUP3 ADD MSTORE REVERT JUMPDEST PUSH1 0x44 SWAP1 DUP11 PUSH1 0x40 MLOAD SWAP2 PUSH4 0x7A031DA3 PUSH1 0xE1 SHL DUP4 MSTORE PUSH1 0x4 DUP4 ADD MSTORE PUSH1 0x24 DUP3 ADD MSTORE REVERT JUMPDEST PUSH4 0x4E487B71 PUSH1 0xE0 SHL DUP10 MSTORE PUSH1 0x11 PUSH1 0x4 MSTORE PUSH1 0x24 DUP10 REVERT JUMPDEST DUP3 CALLVALUE PUSH2 0x4AB JUMPI PUSH1 0x20 CALLDATASIZE PUSH1 0x3 NOT ADD SLT PUSH2 0x4AB JUMPI PUSH2 0x19C4 PUSH2 0x3E17 JUMP JUMPDEST PUSH1 0x4 CALLDATALOAD PUSH2 0x140 SSTORE DUP1 RETURN JUMPDEST DUP3 CALLVALUE PUSH2 0x4AB JUMPI DUP1 PUSH1 0x3 NOT CALLDATASIZE ADD SLT PUSH2 0x4AB JUMPI PUSH1 0x20 PUSH2 0x190 SLOAD PUSH1 0x40 MLOAD SWAP1 DUP2 MSTORE RETURN JUMPDEST DUP3 CALLVALUE PUSH2 0x4AB JUMPI PUSH1 0x20 CALLDATASIZE PUSH1 0x3 NOT ADD SLT PUSH2 0x4AB JUMPI PUSH2 0x1A07 PUSH2 0x3E17 JUMP JUMPDEST PUSH1 0x4 CALLDATALOAD PUSH2 0x141 SSTORE DUP1 RETURN JUMPDEST DUP3 CALLVALUE PUSH2 0x4AB JUMPI DUP1 PUSH1 0x3 NOT CALLDATASIZE ADD SLT PUSH2 0x4AB JUMPI PUSH1 0x20 PUSH2 0x134 SLOAD PUSH1 0x40 MLOAD SWAP1 DUP2 MSTORE RETURN JUMPDEST DUP3 CALLVALUE PUSH2 0x4AB JUMPI DUP1 PUSH1 0x3 NOT CALLDATASIZE ADD SLT PUSH2 0x4AB JUMPI PUSH1 0x20 PUSH2 0x142 SLOAD PUSH1 0x40 MLOAD SWAP1 DUP2 MSTORE RETURN JUMPDEST DUP3 CALLVALUE PUSH2 0x4AB JUMPI PUSH1 0x20 CALLDATASIZE PUSH1 0x3 NOT ADD SLT PUSH2 0x4AB JUMPI PUSH2 0x1A69 PUSH2 0x3E17 JUMP JUMPDEST PUSH1 0x4 CALLDATALOAD PUSH2 0x13B SSTORE DUP1 RETURN JUMPDEST DUP3 CALLVALUE PUSH2 0x4AB JUMPI DUP1 PUSH1 0x3 NOT CALLDATASIZE ADD SLT PUSH2 0x4AB JUMPI PUSH1 0x20 PUSH2 0x156 SLOAD PUSH1 0x40 MLOAD SWAP1 DUP2 MSTORE RETURN JUMPDEST DUP3 CALLVALUE PUSH2 0x4AB JUMPI DUP1 PUSH1 0x3 NOT CALLDATASIZE ADD SLT PUSH2 0x4AB JUMPI PUSH1 0x20 PUSH2 0x139 SLOAD PUSH1 0x40 MLOAD SWAP1 DUP2 MSTORE RETURN JUMPDEST DUP3 CALLVALUE PUSH2 0x4AB JUMPI PUSH1 0x20 CALLDATASIZE PUSH1 0x3 NOT ADD SLT PUSH2 0x4AB JUMPI PUSH2 0x1ACB PUSH2 0x3E17 JUMP JUMPDEST PUSH1 0x4 CALLDATALOAD PUSH2 0x154 SSTORE DUP1 RETURN JUMPDEST DUP3 CALLVALUE PUSH2 0x4AB JUMPI PUSH1 0x20 CALLDATASIZE PUSH1 0x3 NOT ADD SLT PUSH2 0x4AB JUMPI PUSH1 0x4 CALLDATALOAD PUSH1 0x1 PUSH1 0x1 PUSH1 0xA0 SHL SUB DUP2 AND SWAP1 DUP2 SWAP1 SUB PUSH2 0x522 JUMPI PUSH2 0x1B04 PUSH2 0x3E17 JUMP JUMPDEST PUSH2 0x158 DUP1 SLOAD PUSH1 0x1 PUSH1 0x1 PUSH1 0xA0 SHL SUB NOT AND SWAP1 SWAP2 OR SWAP1 SSTORE DUP1 RETURN JUMPDEST DUP3 CALLVALUE PUSH2 0x4AB JUMPI PUSH1 0x20 CALLDATASIZE PUSH1 0x3 NOT ADD SLT PUSH2 0x4AB JUMPI PUSH2 0x1B35 PUSH2 0x3E17 JUMP JUMPDEST PUSH1 0x4 CALLDATALOAD PUSH2 0x13E SSTORE DUP1 RETURN JUMPDEST DUP3 CALLVALUE PUSH2 0x4AB JUMPI DUP1 PUSH1 0x3 NOT CALLDATASIZE ADD SLT PUSH2 0x4AB JUMPI PUSH1 0x20 PUSH2 0x154 SLOAD PUSH1 0x40 MLOAD SWAP1 DUP2 MSTORE RETURN JUMPDEST DUP3 CALLVALUE PUSH2 0x4AB JUMPI DUP1 PUSH1 0x3 NOT CALLDATASIZE ADD SLT PUSH2 0x4AB JUMPI PUSH1 0x20 PUSH2 0x149 SLOAD PUSH1 0x40 MLOAD SWAP1 DUP2 MSTORE RETURN JUMPDEST DUP3 CALLVALUE PUSH2 0x4AB JUMPI PUSH1 0x80 CALLDATASIZE PUSH1 0x3 NOT ADD SLT PUSH2 0x4AB JUMPI PUSH1 0x4 CALLDATALOAD PUSH1 0x1 PUSH1 0x1 PUSH1 0xA0 SHL SUB DUP2 DUP2 AND SWAP3 SWAP1 DUP4 DUP4 SUB PUSH2 0x522 JUMPI PUSH1 0x24 CALLDATALOAD DUP2 DUP2 AND SWAP2 DUP3 DUP3 SUB PUSH2 0x522 JUMPI PUSH1 0x44 CALLDATALOAD DUP2 DUP2 AND DUP1 SWAP2 SUB PUSH2 0x522 JUMPI PUSH1 0x64 CALLDATALOAD SWAP6 PUSH1 0xFF PUSH2 0x14B SLOAD PUSH1 0x8 SHR AND ISZERO PUSH2 0x1D6A JUMPI PUSH2 0x1BDD SWAP1 PUSH2 0x3106 JUMP JUMPDEST SWAP1 PUSH2 0x1BEA DUP3 PUSH2 0x135 PUSH2 0x27FC JUMP JUMPDEST SWAP6 SWAP1 SLOAD SWAP9 PUSH1 0x40 MLOAD SWAP7 PUSH4 0x70A08231 PUSH1 0xE0 SHL DUP9 MSTORE DUP3 PUSH1 0x4 DUP10 ADD MSTORE DUP8 PUSH1 0x24 DUP2 DUP9 PUSH1 0x20 SWAP15 DUP16 SWAP6 PUSH1 0x3 SHL SHR AND GAS STATICCALL SWAP7 DUP8 ISZERO PUSH2 0x1D5F JUMPI DUP9 SWAP8 PUSH2 0x1D30 JUMPI JUMPDEST POP DUP7 ISZERO PUSH2 0x1D12 JUMPI PUSH2 0x1C44 PUSH2 0x1C37 DUP6 PUSH2 0x138 PUSH2 0x27FC JUMP JUMPDEST SWAP1 SLOAD SWAP1 PUSH1 0x3 SHL SHR DUP9 PUSH2 0x3EC6 JUMP JUMPDEST SWAP9 DUP10 DUP2 LT PUSH2 0x1D08 JUMPI JUMPDEST POP SWAP1 PUSH2 0x1C8C SWAP4 SWAP3 SWAP2 PUSH32 0xFAAB3901CD2D6E9B5D0A0C6E34C643B8C844726F3C54DE69517E571BF24BBD92 PUSH1 0x40 DUP13 DUP13 DUP3 MLOAD SWAP2 DUP13 DUP4 MSTORE DUP3 ADD MSTORE LOG4 PUSH2 0x135 PUSH2 0x27FC JUMP JUMPDEST SWAP1 SLOAD SWAP1 PUSH1 0x3 SHL SHR AND SWAP1 DUP2 EXTCODESIZE ISZERO PUSH2 0x1D04 JUMPI PUSH1 0x40 MLOAD PUSH4 0x2770A7EB PUSH1 0xE2 SHL DUP2 MSTORE PUSH1 0x1 PUSH1 0x1 PUSH1 0xA0 SHL SUB SWAP2 SWAP1 SWAP2 AND PUSH1 0x4 DUP3 ADD MSTORE PUSH1 0x24 DUP2 ADD SWAP3 SWAP1 SWAP3 MSTORE DUP3 SWAP1 DUP3 SWAP1 PUSH1 0x44 SWAP1 DUP3 SWAP1 DUP5 SWAP1 GAS CALL DUP1 ISZERO PUSH2 0x1CF9 JUMPI PUSH2 0x1CE4 JUMPI JUMPDEST POP POP PUSH1 0x40 MLOAD SWAP1 DUP2 MSTORE RETURN JUMPDEST PUSH2 0x1CEF DUP3 DUP1 SWAP3 PUSH2 0x285A JUMP JUMPDEST PUSH2 0x4AB JUMPI DUP1 PUSH2 0x1CDA JUMP JUMPDEST PUSH1 0x40 MLOAD RETURNDATASIZE DUP5 DUP3 RETURNDATACOPY RETURNDATASIZE SWAP1 REVERT JUMPDEST DUP4 DUP1 REVERT JUMPDEST SWAP9 POP PUSH2 0x1C8C PUSH2 0x1C4D JUMP JUMPDEST PUSH1 0x44 DUP8 PUSH1 0x40 MLOAD SWAP1 PUSH4 0x3FE8C5EB PUSH1 0xE0 SHL DUP3 MSTORE DUP1 PUSH1 0x4 DUP4 ADD MSTORE PUSH1 0x24 DUP3 ADD MSTORE REVERT JUMPDEST SWAP1 SWAP7 POP DUP10 DUP2 DUP2 RETURNDATASIZE DUP4 GT PUSH2 0x1D58 JUMPI JUMPDEST PUSH2 0x1D48 DUP2 DUP4 PUSH2 0x285A JUMP JUMPDEST DUP2 ADD SUB SLT PUSH2 0x522 JUMPI MLOAD SWAP6 DUP11 PUSH2 0x1C21 JUMP JUMPDEST POP RETURNDATASIZE PUSH2 0x1D3E JUMP JUMPDEST PUSH1 0x40 MLOAD RETURNDATASIZE DUP11 DUP3 RETURNDATACOPY RETURNDATASIZE SWAP1 REVERT JUMPDEST PUSH1 0x40 MLOAD PUSH4 0x31B0D35 PUSH1 0xE1 SHL DUP2 MSTORE PUSH1 0x4 SWAP1 REVERT JUMPDEST DUP3 CALLVALUE PUSH2 0x4AB JUMPI DUP1 PUSH1 0x3 NOT CALLDATASIZE ADD SLT PUSH2 0x4AB JUMPI PUSH2 0x1D95 PUSH2 0x3E17 JUMP JUMPDEST PUSH1 0x1 PUSH1 0xFF NOT PUSH1 0xCA SLOAD AND OR PUSH1 0xCA SSTORE DUP1 RETURN JUMPDEST DUP3 CALLVALUE PUSH2 0x4AB JUMPI DUP1 PUSH1 0x3 NOT CALLDATASIZE ADD SLT PUSH2 0x4AB JUMPI PUSH1 0x20 PUSH2 0x1DC0 PUSH2 0x3CC5 JUMP JUMPDEST POP PUSH1 0x40 MLOAD SWAP1 DUP2 MSTORE RETURN JUMPDEST DUP3 CALLVALUE PUSH2 0x4AB JUMPI PUSH1 0x20 CALLDATASIZE PUSH1 0x3 NOT ADD SLT PUSH2 0x4AB JUMPI PUSH2 0x1DE3 PUSH2 0x3E17 JUMP JUMPDEST PUSH1 0x4 CALLDATALOAD PUSH2 0x159 SSTORE DUP1 RETURN JUMPDEST DUP3 CALLVALUE PUSH2 0x4AB JUMPI DUP1 PUSH1 0x3 NOT CALLDATASIZE ADD SLT PUSH2 0x4AB JUMPI PUSH2 0x12F SLOAD PUSH1 0x40 MLOAD PUSH1 0x1 PUSH1 0x1 PUSH1 0xA0 SHL SUB SWAP1 SWAP2 AND DUP2 MSTORE PUSH1 0x20 SWAP1 RETURN JUMPDEST DUP3 CALLVALUE PUSH2 0x4AB JUMPI DUP1 PUSH1 0x3 NOT CALLDATASIZE ADD SLT PUSH2 0x4AB JUMPI PUSH2 0x133 SLOAD PUSH1 0x40 MLOAD PUSH1 0x1 PUSH1 0x1 PUSH1 0xA0 SHL SUB SWAP1 SWAP2 AND DUP2 MSTORE PUSH1 0x20 SWAP1 RETURN JUMPDEST DUP3 CALLVALUE PUSH2 0x4AB JUMPI DUP1 PUSH1 0x3 NOT CALLDATASIZE ADD SLT PUSH2 0x4AB JUMPI PUSH1 0x20 PUSH2 0x14E SLOAD PUSH1 0x40 MLOAD SWAP1 DUP2 MSTORE RETURN JUMPDEST DUP3 CALLVALUE PUSH2 0x4AB JUMPI DUP1 PUSH1 0x3 NOT CALLDATASIZE ADD SLT PUSH2 0x4AB JUMPI PUSH1 0x20 PUSH1 0xFF PUSH1 0xCA SLOAD PUSH1 0x8 SHR AND PUSH1 0x40 MLOAD SWAP1 ISZERO ISZERO DUP2 MSTORE RETURN JUMPDEST DUP3 CALLVALUE PUSH2 0x4AB JUMPI DUP1 PUSH1 0x3 NOT CALLDATASIZE ADD SLT PUSH2 0x4AB JUMPI PUSH1 0x20 PUSH2 0x157 SLOAD PUSH1 0x40 MLOAD SWAP1 DUP2 MSTORE RETURN JUMPDEST DUP3 CALLVALUE PUSH2 0x4AB JUMPI PUSH1 0x20 CALLDATASIZE PUSH1 0x3 NOT ADD SLT PUSH2 0x4AB JUMPI PUSH2 0x1EBF PUSH2 0x3E17 JUMP JUMPDEST PUSH1 0x4 CALLDATALOAD PUSH2 0x143 SSTORE DUP1 RETURN JUMPDEST DUP3 CALLVALUE PUSH2 0x4AB JUMPI DUP1 PUSH1 0x3 NOT CALLDATASIZE ADD SLT PUSH2 0x4AB JUMPI PUSH32 0x0 PUSH1 0x1 PUSH1 0x1 PUSH1 0xA0 SHL SUB AND ADDRESS SUB PUSH2 0x1F34 JUMPI PUSH1 0x20 PUSH1 0x40 MLOAD PUSH32 0x360894A13BA1A3210667C828492DB98DCA3E2076CC3735A920A3CA505D382BBC DUP2 MSTORE RETURN JUMPDEST PUSH1 0x40 MLOAD PUSH3 0x461BCD PUSH1 0xE5 SHL DUP2 MSTORE PUSH1 0x20 PUSH1 0x4 DUP3 ADD MSTORE PUSH1 0x38 PUSH1 0x24 DUP3 ADD MSTORE PUSH32 0x555550535570677261646561626C653A206D757374206E6F742062652063616C PUSH1 0x44 DUP3 ADD MSTORE PUSH32 0x6C6564207468726F7567682064656C656761746563616C6C0000000000000000 PUSH1 0x64 DUP3 ADD MSTORE PUSH1 0x84 SWAP1 REVERT JUMPDEST DUP3 CALLVALUE PUSH2 0x4AB JUMPI DUP1 PUSH1 0x3 NOT CALLDATASIZE ADD SLT PUSH2 0x4AB JUMPI PUSH2 0x1FB8 PUSH2 0x3E17 JUMP JUMPDEST PUSH1 0xFF NOT PUSH1 0xCA SLOAD AND PUSH1 0xCA SSTORE DUP1 RETURN JUMPDEST DUP3 PUSH1 0x40 CALLDATASIZE PUSH1 0x3 NOT ADD SLT PUSH2 0x4AB JUMPI PUSH1 0x1 PUSH1 0x1 PUSH1 0xA0 SHL SUB PUSH1 0x4 CALLDATALOAD DUP2 DUP2 AND DUP2 SUB PUSH2 0x522 JUMPI DUP3 SWAP2 PUSH1 0x24 CALLDATALOAD SWAP2 PUSH8 0xFFFFFFFFFFFFFFFF DUP4 GT PUSH2 0x20B4 JUMPI CALLDATASIZE PUSH1 0x23 DUP5 ADD SLT ISZERO PUSH2 0x20B4 JUMPI DUP3 PUSH1 0x4 ADD CALLDATALOAD PUSH2 0x2014 DUP2 PUSH2 0x2892 JUMP JUMPDEST SWAP3 PUSH2 0x2022 PUSH1 0x40 MLOAD SWAP5 DUP6 PUSH2 0x285A JUMP JUMPDEST DUP2 DUP5 MSTORE CALLDATASIZE PUSH1 0x24 DUP4 DUP8 ADD ADD GT PUSH2 0x20B0 JUMPI PUSH2 0x139B SWAP6 PUSH1 0x20 DUP4 PUSH2 0x20A3 SWAP5 PUSH1 0x24 PUSH1 0x1 SWAP10 ADD DUP4 DUP10 ADD CALLDATACOPY DUP7 ADD ADD MSTORE DUP1 PUSH32 0x0 AND SWAP1 PUSH2 0x207A DUP3 ADDRESS EQ ISZERO PUSH2 0x2926 JUMP JUMPDEST PUSH32 0x360894A13BA1A3210667C828492DB98DCA3E2076CC3735A920A3CA505D382BBC SLOAD AND EQ PUSH2 0x2987 JUMP JUMPDEST PUSH2 0x20AB PUSH2 0x3E17 JUMP JUMPDEST PUSH2 0x29E8 JUMP JUMPDEST DUP6 DUP1 REVERT JUMPDEST POP POP POP REVERT JUMPDEST DUP3 CALLVALUE PUSH2 0x4AB JUMPI DUP1 PUSH1 0x3 NOT CALLDATASIZE ADD SLT PUSH2 0x4AB JUMPI PUSH1 0x20 PUSH2 0x13B SLOAD PUSH1 0x40 MLOAD SWAP1 DUP2 MSTORE RETURN JUMPDEST DUP3 CALLVALUE PUSH2 0x4AB JUMPI DUP1 PUSH1 0x3 NOT CALLDATASIZE ADD SLT PUSH2 0x4AB JUMPI PUSH2 0x147 SLOAD PUSH1 0x40 MLOAD PUSH1 0x1 PUSH1 0x1 PUSH1 0xA0 SHL SUB SWAP1 SWAP2 AND DUP2 MSTORE PUSH1 0x20 SWAP1 RETURN JUMPDEST DUP3 CALLVALUE PUSH2 0x4AB JUMPI DUP1 PUSH1 0x3 NOT CALLDATASIZE ADD SLT PUSH2 0x4AB JUMPI PUSH1 0x20 PUSH2 0x14C SLOAD PUSH1 0x40 MLOAD SWAP1 DUP2 MSTORE RETURN JUMPDEST DUP3 CALLVALUE PUSH2 0x4AB JUMPI PUSH1 0x20 CALLDATASIZE PUSH1 0x3 NOT ADD SLT PUSH2 0x4AB JUMPI PUSH1 0x4 CALLDATALOAD SWAP1 PUSH2 0x137 SWAP1 DUP2 SLOAD DUP4 LT ISZERO PUSH2 0x4AB JUMPI PUSH1 0x40 PUSH2 0x2150 DUP5 DUP5 PUSH2 0x283E JUMP JUMPDEST POP DUP1 SLOAD PUSH1 0x1 SWAP1 SWAP2 ADD SLOAD DUP3 MLOAD SWAP2 DUP3 MSTORE PUSH1 0x1 PUSH1 0x1 PUSH1 0xA0 SHL SUB AND PUSH1 0x20 DUP3 ADD MSTORE RETURN JUMPDEST DUP3 CALLVALUE PUSH2 0x4AB JUMPI DUP1 PUSH1 0x3 NOT CALLDATASIZE ADD SLT PUSH2 0x4AB JUMPI PUSH1 0x20 PUSH2 0x13E SLOAD PUSH1 0x40 MLOAD SWAP1 DUP2 MSTORE RETURN JUMPDEST DUP3 CALLVALUE PUSH2 0x4AB JUMPI DUP1 PUSH1 0x3 NOT CALLDATASIZE ADD SLT PUSH2 0x4AB JUMPI PUSH1 0xCA SLOAD PUSH1 0xFF DUP2 PUSH1 0x8 SHR AND ISZERO PUSH2 0x21F6 JUMPI PUSH1 0x10 DUP2 SWAP1 SHR PUSH1 0x1 PUSH1 0x1 PUSH1 0xA0 SHL SUB AND CALLER SUB PUSH2 0x16EF JUMPI PUSH2 0xFF00 NOT AND PUSH1 0xCA SSTORE PUSH32 0x5DB9EE0A495BF2E6FF9C91A7834C1BA4FDD244A5E8AA4E537BD38AEAE4B073AA PUSH1 0x20 PUSH1 0x40 MLOAD CALLER DUP2 MSTORE LOG1 DUP1 RETURN JUMPDEST PUSH1 0x40 MLOAD PUSH4 0x7C7FD079 PUSH1 0xE0 SHL DUP2 MSTORE PUSH1 0x4 SWAP1 REVERT JUMPDEST DUP3 CALLVALUE PUSH2 0x4AB JUMPI PUSH1 0x20 CALLDATASIZE PUSH1 0x3 NOT ADD SLT PUSH2 0x4AB JUMPI PUSH1 0x4 CALLDATALOAD PUSH1 0x1 PUSH1 0x1 PUSH1 0xA0 SHL SUB DUP2 AND SWAP1 DUP2 SWAP1 SUB PUSH2 0x522 JUMPI PUSH2 0x2237 PUSH2 0x3E17 JUMP JUMPDEST PUSH2 0x14F DUP1 SLOAD PUSH1 0x1 PUSH1 0x1 PUSH1 0xA0 SHL SUB NOT AND SWAP1 SWAP2 OR SWAP1 SSTORE DUP1 RETURN JUMPDEST DUP3 CALLVALUE PUSH2 0x4AB JUMPI PUSH1 0x20 CALLDATASIZE PUSH1 0x3 NOT ADD SLT PUSH2 0x4AB JUMPI PUSH2 0x2268 PUSH2 0x3E17 JUMP JUMPDEST PUSH1 0x4 CALLDATALOAD PUSH2 0x190 SSTORE DUP1 RETURN JUMPDEST DUP3 CALLVALUE PUSH2 0x4AB JUMPI PUSH1 0x20 CALLDATASIZE PUSH1 0x3 NOT ADD SLT PUSH2 0x4AB JUMPI PUSH1 0x4 CALLDATALOAD SWAP1 PUSH2 0x138 SWAP1 DUP2 SLOAD DUP4 LT ISZERO PUSH2 0x4AB JUMPI PUSH1 0x20 PUSH2 0x17AD DUP5 DUP5 PUSH2 0x27FC JUMP JUMPDEST DUP3 CALLVALUE PUSH2 0x4AB JUMPI PUSH1 0x20 CALLDATASIZE PUSH1 0x3 NOT ADD SLT PUSH2 0x4AB JUMPI PUSH1 0x4 CALLDATALOAD PUSH1 0x1 PUSH1 0x1 PUSH1 0xA0 SHL SUB DUP1 DUP3 AND DUP3 SUB PUSH2 0x522 JUMPI PUSH2 0x139B SWAP2 PUSH2 0x2300 DUP3 DUP6 SWAP4 PUSH32 0x0 AND SWAP1 PUSH2 0x207A DUP3 ADDRESS EQ ISZERO PUSH2 0x2926 JUMP JUMPDEST PUSH2 0x2308 PUSH2 0x3E17 JUMP JUMPDEST PUSH2 0x2311 DUP3 PUSH2 0x2892 JUMP JUMPDEST SWAP1 PUSH2 0x231F PUSH1 0x40 MLOAD SWAP3 DUP4 PUSH2 0x285A JUMP JUMPDEST DUP3 DUP3 MSTORE PUSH1 0x1F NOT PUSH2 0x232E DUP5 PUSH2 0x2892 JUMP JUMPDEST ADD CALLDATASIZE PUSH1 0x20 DUP5 ADD CALLDATACOPY PUSH2 0x29E8 JUMP JUMPDEST DUP3 CALLVALUE PUSH2 0x4AB JUMPI DUP1 PUSH1 0x3 NOT CALLDATASIZE ADD SLT PUSH2 0x4AB JUMPI PUSH2 0x2353 PUSH2 0x3EA5 JUMP JUMPDEST PUSH2 0x14B DUP1 SLOAD PUSH1 0xFF DUP2 AND DUP1 PUSH2 0x241D JUMPI JUMPDEST DUP1 PUSH2 0x2403 JUMPI JUMPDEST PUSH2 0x2370 JUMPI DUP3 DUP1 RETURN JUMPDEST PUSH2 0xFF00 NOT AND PUSH2 0x100 OR SWAP1 SSTORE PUSH1 0x40 MLOAD PUSH32 0x8B77276C97A5709F0D6DB52329848A254EB760CE8BE80D281799F633BDB69E83 DUP3 DUP1 LOG1 PUSH2 0x133 SLOAD DUP3 SWAP1 PUSH1 0x1 PUSH1 0x1 PUSH1 0xA0 SHL SUB AND DUP1 EXTCODESIZE ISZERO PUSH2 0x93B JUMPI DUP3 PUSH1 0x4 DUP2 DUP5 DUP1 SWAP5 PUSH4 0x8456CB59 PUSH1 0xE0 SHL DUP4 MSTORE GAS CALL DUP1 ISZERO PUSH2 0x23F6 JUMPI PUSH2 0x23E6 JUMPI JUMPDEST POP POP PUSH2 0x23E0 PUSH2 0x3058 JUMP JUMPDEST DUP2 DUP1 DUP3 DUP1 RETURN JUMPDEST PUSH2 0x23EF SWAP2 PUSH2 0x285A JUMP JUMPDEST DUP2 DUP2 PUSH2 0x23D6 JUMP JUMPDEST POP PUSH1 0x40 MLOAD SWAP1 RETURNDATASIZE SWAP1 DUP3 RETURNDATACOPY RETURNDATASIZE SWAP1 REVERT JUMPDEST POP PUSH2 0x2412 PUSH2 0x159D PUSH2 0x1598 PUSH2 0x31E7 JUMP JUMPDEST PUSH2 0x14A SLOAD LT ISZERO PUSH2 0x2368 JUMP JUMPDEST POP PUSH1 0xFF DUP2 PUSH1 0x8 SHR AND ISZERO PUSH2 0x2362 JUMP JUMPDEST DUP3 CALLVALUE PUSH2 0x4AB JUMPI DUP1 PUSH1 0x3 NOT CALLDATASIZE ADD SLT PUSH2 0x4AB JUMPI PUSH1 0x20 PUSH2 0x13F SLOAD PUSH1 0x40 MLOAD SWAP1 DUP2 MSTORE RETURN JUMPDEST DUP3 CALLVALUE PUSH2 0x4AB JUMPI DUP1 PUSH1 0x3 NOT CALLDATASIZE ADD SLT PUSH2 0x4AB JUMPI PUSH1 0x20 PUSH2 0x143 SLOAD PUSH1 0x40 MLOAD SWAP1 DUP2 MSTORE RETURN JUMPDEST DUP3 CALLVALUE PUSH2 0x4AB JUMPI PUSH1 0x20 CALLDATASIZE PUSH1 0x3 NOT ADD SLT PUSH2 0x4AB JUMPI PUSH1 0x4 CALLDATALOAD PUSH1 0x1 PUSH1 0x1 PUSH1 0xA0 SHL SUB DUP2 AND DUP2 SUB PUSH2 0x93B JUMPI PUSH2 0x2496 PUSH2 0x3E17 JUMP JUMPDEST PUSH1 0xCA DUP1 SLOAD PUSH3 0x10000 PUSH1 0x1 PUSH1 0xB0 SHL SUB NOT AND PUSH1 0x10 SWAP3 SWAP1 SWAP3 SHL PUSH3 0x10000 PUSH1 0x1 PUSH1 0xB0 SHL SUB AND SWAP2 SWAP1 SWAP2 OR SWAP1 SSTORE DUP1 RETURN JUMPDEST DUP3 CALLVALUE PUSH2 0x4AB JUMPI PUSH1 0x20 CALLDATASIZE PUSH1 0x3 NOT ADD SLT PUSH2 0x4AB JUMPI PUSH2 0x24DA PUSH2 0x3E17 JUMP JUMPDEST PUSH1 0x4 CALLDATALOAD PUSH2 0x14A SSTORE DUP1 RETURN JUMPDEST DUP3 CALLVALUE PUSH2 0x4AB JUMPI DUP1 PUSH1 0x3 NOT CALLDATASIZE ADD SLT PUSH2 0x4AB JUMPI PUSH1 0x20 PUSH2 0x140 SLOAD PUSH1 0x40 MLOAD SWAP1 DUP2 MSTORE RETURN JUMPDEST DUP3 CALLVALUE PUSH2 0x4AB JUMPI PUSH1 0x20 CALLDATASIZE PUSH1 0x3 NOT ADD SLT PUSH2 0x4AB JUMPI PUSH1 0x4 CALLDATALOAD PUSH1 0x1 PUSH1 0x1 PUSH1 0xA0 SHL SUB DUP2 AND SWAP1 DUP2 SWAP1 SUB PUSH2 0x93B JUMPI PUSH2 0x2532 PUSH2 0x3E17 JUMP JUMPDEST PUSH2 0x147 DUP1 SLOAD PUSH1 0x1 PUSH1 0x1 PUSH1 0xA0 SHL SUB NOT AND SWAP1 SWAP2 OR SWAP1 SSTORE DUP1 RETURN JUMPDEST DUP3 CALLVALUE PUSH2 0x4AB JUMPI PUSH1 0x20 CALLDATASIZE PUSH1 0x3 NOT ADD SLT PUSH2 0x4AB JUMPI PUSH1 0x4 CALLDATALOAD PUSH1 0x1 PUSH1 0x1 PUSH1 0xA0 SHL SUB DUP2 AND SWAP1 DUP2 SWAP1 SUB PUSH2 0x93B JUMPI DUP2 PUSH1 0x40 SWAP2 PUSH1 0x20 SWAP4 MSTORE PUSH2 0x144 DUP4 MSTORE KECCAK256 SLOAD PUSH1 0x40 MLOAD SWAP1 DUP2 MSTORE RETURN JUMPDEST DUP3 CALLVALUE PUSH2 0x4AB JUMPI DUP1 PUSH1 0x3 NOT CALLDATASIZE ADD SLT PUSH2 0x4AB JUMPI PUSH1 0x20 PUSH1 0xFF PUSH2 0x14B SLOAD PUSH1 0x8 SHR AND PUSH1 0x40 MLOAD SWAP1 ISZERO ISZERO DUP2 MSTORE RETURN JUMPDEST DUP3 CALLVALUE PUSH2 0x4AB JUMPI PUSH1 0x20 CALLDATASIZE PUSH1 0x3 NOT ADD SLT PUSH2 0x4AB JUMPI PUSH2 0x25C8 PUSH2 0x3E17 JUMP JUMPDEST PUSH1 0x4 CALLDATALOAD PUSH2 0x142 SSTORE DUP1 RETURN JUMPDEST DUP3 CALLVALUE PUSH2 0x4AB JUMPI PUSH1 0x20 CALLDATASIZE PUSH1 0x3 NOT ADD SLT PUSH2 0x4AB JUMPI PUSH1 0x4 CALLDATALOAD DUP1 ISZERO ISZERO DUP1 SWAP2 SUB PUSH2 0x93B JUMPI PUSH2 0x25F9 PUSH2 0x3E17 JUMP JUMPDEST PUSH2 0x14B SWAP1 PUSH1 0xFF DUP1 NOT DUP4 SLOAD AND SWAP2 AND OR SWAP1 SSTORE DUP1 RETURN JUMPDEST DUP3 CALLVALUE PUSH2 0x4AB JUMPI DUP1 PUSH1 0x3 NOT CALLDATASIZE ADD SLT PUSH2 0x4AB JUMPI PUSH1 0x20 PUSH2 0x14D SLOAD PUSH1 0x40 MLOAD SWAP1 DUP2 MSTORE RETURN JUMPDEST DUP3 CALLVALUE PUSH2 0x4AB JUMPI DUP1 PUSH1 0x3 NOT CALLDATASIZE ADD SLT PUSH2 0x4AB JUMPI PUSH2 0x14F SLOAD PUSH1 0x40 MLOAD PUSH1 0x1 PUSH1 0x1 PUSH1 0xA0 SHL SUB SWAP1 SWAP2 AND DUP2 MSTORE PUSH1 0x20 SWAP1 RETURN JUMPDEST DUP3 CALLVALUE PUSH2 0x4AB JUMPI PUSH1 0x20 CALLDATASIZE PUSH1 0x3 NOT ADD SLT PUSH2 0x4AB JUMPI PUSH1 0x4 CALLDATALOAD PUSH1 0x1 PUSH1 0x1 PUSH1 0xA0 SHL SUB DUP2 AND SWAP1 DUP2 SWAP1 SUB PUSH2 0x93B JUMPI PUSH2 0x2684 PUSH2 0x3E17 JUMP JUMPDEST PUSH2 0x130 DUP1 SLOAD PUSH1 0x1 PUSH1 0x1 PUSH1 0xA0 SHL SUB NOT AND SWAP1 SWAP2 OR SWAP1 SSTORE DUP1 RETURN JUMPDEST DUP3 CALLVALUE PUSH2 0x4AB JUMPI PUSH1 0x20 CALLDATASIZE PUSH1 0x3 NOT ADD SLT PUSH2 0x4AB JUMPI PUSH2 0x26B5 PUSH2 0x3E17 JUMP JUMPDEST PUSH1 0x4 CALLDATALOAD PUSH2 0x13F SSTORE DUP1 RETURN JUMPDEST DUP3 CALLVALUE PUSH2 0x4AB JUMPI DUP1 PUSH1 0x3 NOT CALLDATASIZE ADD SLT PUSH2 0x4AB JUMPI PUSH1 0x20 PUSH2 0x159 SLOAD PUSH1 0x40 MLOAD SWAP1 DUP2 MSTORE RETURN JUMPDEST DUP3 CALLVALUE PUSH2 0x4AB JUMPI PUSH1 0x20 CALLDATASIZE PUSH1 0x3 NOT ADD SLT PUSH2 0x4AB JUMPI PUSH1 0x4 CALLDATALOAD PUSH1 0x1 PUSH1 0x1 PUSH1 0xA0 SHL SUB DUP2 AND SWAP1 DUP2 SWAP1 SUB PUSH2 0x93B JUMPI PUSH2 0x270D PUSH2 0x3E17 JUMP JUMPDEST PUSH2 0x146 DUP1 SLOAD PUSH1 0x1 PUSH1 0x1 PUSH1 0xA0 SHL SUB NOT AND SWAP1 SWAP2 OR SWAP1 SSTORE DUP1 RETURN JUMPDEST DUP3 CALLVALUE PUSH2 0x4AB JUMPI DUP1 PUSH1 0x3 NOT CALLDATASIZE ADD SLT PUSH2 0x4AB JUMPI PUSH1 0x20 PUSH2 0x18F SLOAD PUSH1 0x40 MLOAD SWAP1 DUP2 MSTORE RETURN JUMPDEST DUP3 CALLVALUE PUSH2 0x4AB JUMPI DUP1 PUSH1 0x3 NOT CALLDATASIZE ADD SLT PUSH2 0x4AB JUMPI PUSH1 0x97 SLOAD PUSH1 0x40 MLOAD PUSH1 0x1 PUSH1 0x1 PUSH1 0xA0 SHL SUB SWAP1 SWAP2 AND DUP2 MSTORE PUSH1 0x20 SWAP1 RETURN JUMPDEST DUP3 CALLVALUE PUSH2 0x4AB JUMPI PUSH1 0x20 CALLDATASIZE PUSH1 0x3 NOT ADD SLT PUSH2 0x4AB JUMPI PUSH2 0x2786 PUSH2 0x3E17 JUMP JUMPDEST PUSH1 0x4 CALLDATALOAD PUSH2 0x15A SSTORE DUP1 RETURN JUMPDEST DUP3 CALLVALUE PUSH2 0x4AB JUMPI PUSH1 0x20 CALLDATASIZE PUSH1 0x3 NOT ADD SLT PUSH2 0x4AB JUMPI PUSH1 0x4 CALLDATALOAD SWAP1 PUSH2 0x135 SWAP1 DUP2 SLOAD DUP4 LT ISZERO PUSH2 0x4AB JUMPI PUSH1 0x20 PUSH2 0x27BF DUP5 DUP5 PUSH2 0x27FC JUMP JUMPDEST SWAP1 SLOAD PUSH1 0x40 MLOAD PUSH1 0x3 SWAP3 SWAP1 SWAP3 SHL SHR PUSH1 0x1 PUSH1 0x1 PUSH1 0xA0 SHL SUB AND DUP2 MSTORE RETURN JUMPDEST DUP3 CALLVALUE PUSH2 0x4AB JUMPI PUSH1 0x20 CALLDATASIZE PUSH1 0x3 NOT ADD SLT PUSH2 0x4AB JUMPI PUSH2 0x27F2 PUSH2 0x3E17 JUMP JUMPDEST PUSH1 0x4 CALLDATALOAD PUSH2 0x13A SSTORE DUP1 RETURN JUMPDEST DUP1 SLOAD DUP3 LT ISZERO PUSH2 0x2814 JUMPI PUSH1 0x0 MSTORE PUSH1 0x20 PUSH1 0x0 KECCAK256 ADD SWAP1 PUSH1 0x0 SWAP1 JUMP JUMPDEST PUSH4 0x4E487B71 PUSH1 0xE0 SHL PUSH1 0x0 MSTORE PUSH1 0x32 PUSH1 0x4 MSTORE PUSH1 0x24 PUSH1 0x0 REVERT JUMPDEST CALLDATALOAD SWAP1 PUSH1 0x1 PUSH1 0x1 PUSH1 0xA0 SHL SUB DUP3 AND DUP3 SUB PUSH2 0x522 JUMPI JUMP JUMPDEST DUP1 SLOAD DUP3 LT ISZERO PUSH2 0x2814 JUMPI PUSH1 0x0 MSTORE PUSH1 0x20 PUSH1 0x0 KECCAK256 SWAP1 PUSH1 0x1 SHL ADD SWAP1 PUSH1 0x0 SWAP1 JUMP JUMPDEST SWAP1 PUSH1 0x1F DUP1 NOT SWAP2 ADD AND DUP2 ADD SWAP1 DUP2 LT PUSH8 0xFFFFFFFFFFFFFFFF DUP3 GT OR PUSH2 0x287C JUMPI PUSH1 0x40 MSTORE JUMP JUMPDEST PUSH4 0x4E487B71 PUSH1 0xE0 SHL PUSH1 0x0 MSTORE PUSH1 0x41 PUSH1 0x4 MSTORE PUSH1 0x24 PUSH1 0x0 REVERT JUMPDEST PUSH8 0xFFFFFFFFFFFFFFFF DUP2 GT PUSH2 0x287C JUMPI PUSH1 0x1F ADD PUSH1 0x1F NOT AND PUSH1 0x20 ADD SWAP1 JUMP JUMPDEST SWAP2 SWAP1 DUP3 PUSH1 0xE0 SWAP2 SUB SLT PUSH2 0x522 JUMPI PUSH1 0x40 MLOAD PUSH2 0x28C8 PUSH1 0xE0 DUP3 PUSH2 0x285A JUMP JUMPDEST PUSH1 0xC0 PUSH2 0x2921 DUP2 DUP4 SWAP6 PUSH2 0x28D9 DUP2 PUSH2 0x282A JUMP JUMPDEST DUP6 MSTORE PUSH1 0x20 DUP2 ADD CALLDATALOAD PUSH1 0x20 DUP7 ADD MSTORE PUSH1 0x40 DUP2 ADD CALLDATALOAD PUSH1 0x40 DUP7 ADD MSTORE PUSH1 0x60 DUP2 ADD CALLDATALOAD PUSH1 0x60 DUP7 ADD MSTORE PUSH2 0x2905 PUSH1 0x80 DUP3 ADD PUSH2 0x282A JUMP JUMPDEST PUSH1 0x80 DUP7 ADD MSTORE PUSH2 0x2916 PUSH1 0xA0 DUP3 ADD PUSH2 0x282A JUMP JUMPDEST PUSH1 0xA0 DUP7 ADD MSTORE ADD PUSH2 0x282A JUMP JUMPDEST SWAP2 ADD MSTORE JUMP JUMPDEST ISZERO PUSH2 0x292D JUMPI JUMP JUMPDEST PUSH1 0x40 MLOAD PUSH3 0x461BCD PUSH1 0xE5 SHL DUP2 MSTORE PUSH1 0x20 PUSH1 0x4 DUP3 ADD MSTORE PUSH1 0x2C PUSH1 0x24 DUP3 ADD MSTORE PUSH32 0x46756E6374696F6E206D7573742062652063616C6C6564207468726F75676820 PUSH1 0x44 DUP3 ADD MSTORE PUSH12 0x19195B1959D85D1958D85B1B PUSH1 0xA2 SHL PUSH1 0x64 DUP3 ADD MSTORE PUSH1 0x84 SWAP1 REVERT JUMPDEST ISZERO PUSH2 0x298E JUMPI JUMP JUMPDEST PUSH1 0x40 MLOAD PUSH3 0x461BCD PUSH1 0xE5 SHL DUP2 MSTORE PUSH1 0x20 PUSH1 0x4 DUP3 ADD MSTORE PUSH1 0x2C PUSH1 0x24 DUP3 ADD MSTORE PUSH32 0x46756E6374696F6E206D7573742062652063616C6C6564207468726F75676820 PUSH1 0x44 DUP3 ADD MSTORE PUSH12 0x6163746976652070726F7879 PUSH1 0xA0 SHL PUSH1 0x64 DUP3 ADD MSTORE PUSH1 0x84 SWAP1 REVERT JUMPDEST SWAP1 SWAP2 PUSH1 0xFF PUSH32 0x4910FDFA16FED3260ED0E7147F7CC6DA11A60208B5B9406D12A635614FFD9143 SLOAD AND PUSH1 0x0 EQ PUSH2 0x2A23 JUMPI POP PUSH2 0x2A21 SWAP2 POP PUSH2 0x2C51 JUMP JUMPDEST JUMP JUMPDEST PUSH1 0x40 DUP1 MLOAD PUSH4 0x52D1902D PUSH1 0xE0 SHL DUP2 MSTORE PUSH1 0x20 SWAP5 SWAP2 SWAP4 SWAP3 SWAP1 PUSH1 0x1 PUSH1 0x1 PUSH1 0xA0 SHL SUB DUP5 AND SWAP1 DUP7 DUP2 PUSH1 0x4 DUP2 DUP6 GAS STATICCALL PUSH1 0x0 SWAP2 DUP2 PUSH2 0x2C22 JUMPI JUMPDEST POP PUSH2 0x2AB4 JUMPI DUP6 MLOAD PUSH3 0x461BCD PUSH1 0xE5 SHL DUP2 MSTORE PUSH1 0x4 DUP2 ADD DUP9 SWAP1 MSTORE PUSH1 0x2E PUSH1 0x24 DUP3 ADD MSTORE PUSH32 0x45524331393637557067726164653A206E657720696D706C656D656E74617469 PUSH1 0x44 DUP3 ADD MSTORE PUSH14 0x6F6E206973206E6F742055555053 PUSH1 0x90 SHL PUSH1 0x64 DUP3 ADD MSTORE PUSH1 0x84 SWAP1 REVERT JUMPDEST SWAP4 SWAP6 SWAP3 SWAP5 SWAP3 SWAP4 PUSH32 0xC9F76B5EC45E5CDEF99837D7B6D2467235C1DF8933C8CA56DF5C35AFA2C7D444 ADD PUSH2 0x2BCC JUMPI PUSH2 0x2AE9 DUP7 PUSH2 0x2C51 JUMP JUMPDEST PUSH32 0xBC7CD75A20EE27FD9ADEBAB32041F755214DBC6BFFA90CC0225B39DA2E5C2D3B PUSH1 0x0 DUP1 LOG2 DUP4 MLOAD ISZERO SWAP1 DUP2 ISZERO SWAP2 PUSH2 0x2BC4 JUMPI JUMPDEST POP PUSH2 0x2B26 JUMPI JUMPDEST POP POP POP POP JUMP JUMPDEST PUSH2 0x2BB0 SWAP4 PUSH1 0x0 DUP1 PUSH2 0x2B37 PUSH1 0x27 PUSH2 0x2892 JUMP JUMPDEST SWAP6 PUSH2 0x2B44 DUP6 MLOAD SWAP8 DUP9 PUSH2 0x285A JUMP JUMPDEST PUSH1 0x27 DUP8 MSTORE PUSH32 0x416464726573733A206C6F772D6C6576656C2064656C65676174652063616C6C DUP7 DUP9 ADD MSTORE PUSH7 0x819985A5B1959 PUSH1 0xCA SHL DUP6 DUP9 ADD MSTORE DUP6 DUP2 MLOAD SWAP2 ADD DUP5 GAS DELEGATECALL SWAP2 RETURNDATASIZE ISZERO PUSH2 0x2BBA JUMPI RETURNDATASIZE PUSH2 0x2BA1 PUSH2 0x2B98 DUP3 PUSH2 0x2892 JUMP JUMPDEST SWAP3 MLOAD SWAP3 DUP4 PUSH2 0x285A JUMP JUMPDEST DUP2 MSTORE PUSH1 0x0 DUP2 SWAP5 RETURNDATASIZE SWAP3 ADD RETURNDATACOPY PUSH2 0x2CF3 JUMP JUMPDEST POP CODESIZE DUP1 DUP1 DUP1 PUSH2 0x2B20 JUMP JUMPDEST POP PUSH1 0x60 SWAP3 POP PUSH2 0x2CF3 JUMP JUMPDEST SWAP1 POP CODESIZE PUSH2 0x2B1A JUMP JUMPDEST DUP3 MLOAD PUSH3 0x461BCD PUSH1 0xE5 SHL DUP2 MSTORE PUSH1 0x4 DUP2 ADD DUP6 SWAP1 MSTORE PUSH1 0x29 PUSH1 0x24 DUP3 ADD MSTORE PUSH32 0x45524331393637557067726164653A20756E737570706F727465642070726F78 PUSH1 0x44 DUP3 ADD MSTORE PUSH9 0x1A58589B1955555251 PUSH1 0xBA SHL PUSH1 0x64 DUP3 ADD MSTORE PUSH1 0x84 SWAP1 REVERT JUMPDEST SWAP1 SWAP2 DUP9 DUP3 DUP2 RETURNDATASIZE DUP4 GT PUSH2 0x2C4A JUMPI JUMPDEST PUSH2 0x2C39 DUP2 DUP4 PUSH2 0x285A JUMP JUMPDEST DUP2 ADD SUB SLT PUSH2 0x4AB JUMPI POP MLOAD SWAP1 CODESIZE PUSH2 0x2A54 JUMP JUMPDEST POP RETURNDATASIZE PUSH2 0x2C2F JUMP JUMPDEST DUP1 EXTCODESIZE ISZERO PUSH2 0x2C98 JUMPI PUSH32 0x360894A13BA1A3210667C828492DB98DCA3E2076CC3735A920A3CA505D382BBC DUP1 SLOAD PUSH1 0x1 PUSH1 0x1 PUSH1 0xA0 SHL SUB NOT AND PUSH1 0x1 PUSH1 0x1 PUSH1 0xA0 SHL SUB SWAP1 SWAP3 AND SWAP2 SWAP1 SWAP2 OR SWAP1 SSTORE JUMP JUMPDEST PUSH1 0x40 MLOAD PUSH3 0x461BCD PUSH1 0xE5 SHL DUP2 MSTORE PUSH1 0x20 PUSH1 0x4 DUP3 ADD MSTORE PUSH1 0x2D PUSH1 0x24 DUP3 ADD MSTORE PUSH32 0x455243313936373A206E657720696D706C656D656E746174696F6E206973206E PUSH1 0x44 DUP3 ADD MSTORE PUSH13 0x1BDD08184818DBDB9D1C9858DD PUSH1 0x9A SHL PUSH1 0x64 DUP3 ADD MSTORE PUSH1 0x84 SWAP1 REVERT JUMPDEST SWAP2 SWAP3 SWAP1 ISZERO PUSH2 0x2D55 JUMPI POP DUP2 MLOAD ISZERO PUSH2 0x2D07 JUMPI POP SWAP1 JUMP JUMPDEST EXTCODESIZE ISZERO PUSH2 0x2D10 JUMPI SWAP1 JUMP JUMPDEST PUSH1 0x40 MLOAD PUSH3 0x461BCD PUSH1 0xE5 SHL DUP2 MSTORE PUSH1 0x20 PUSH1 0x4 DUP3 ADD MSTORE PUSH1 0x1D PUSH1 0x24 DUP3 ADD MSTORE PUSH32 0x416464726573733A2063616C6C20746F206E6F6E2D636F6E7472616374000000 PUSH1 0x44 DUP3 ADD MSTORE PUSH1 0x64 SWAP1 REVERT JUMPDEST DUP3 MLOAD SWAP1 SWAP2 POP ISZERO PUSH2 0x2D68 JUMPI POP DUP1 MLOAD SWAP1 PUSH1 0x20 ADD REVERT JUMPDEST PUSH1 0x40 MLOAD SWAP1 PUSH3 0x461BCD PUSH1 0xE5 SHL DUP3 MSTORE DUP2 PUSH1 0x20 DUP1 PUSH1 0x4 DUP4 ADD MSTORE DUP3 MLOAD SWAP1 DUP2 PUSH1 0x24 DUP5 ADD MSTORE PUSH1 0x0 SWAP4 JUMPDEST DUP3 DUP6 LT PUSH2 0x2DAE JUMPI POP POP PUSH1 0x44 SWAP3 POP PUSH1 0x0 DUP4 DUP3 DUP5 ADD ADD MSTORE PUSH1 0x1F DUP1 NOT SWAP2 ADD AND DUP2 ADD SUB ADD SWAP1 REVERT JUMPDEST DUP5 DUP2 ADD DUP3 ADD MLOAD DUP7 DUP7 ADD PUSH1 0x44 ADD MSTORE SWAP4 DUP2 ADD SWAP4 DUP6 SWAP4 POP PUSH2 0x2D8B JUMP JUMPDEST DUP1 MLOAD DUP3 LT ISZERO PUSH2 0x2814 JUMPI PUSH1 0x20 SWAP2 PUSH1 0x5 SHL ADD ADD SWAP1 JUMP JUMPDEST SWAP2 SWAP1 DUP3 ADD DUP1 SWAP3 GT PUSH2 0xC17 JUMPI JUMP JUMPDEST SWAP1 PUSH1 0x0 SWAP2 PUSH1 0x0 SWAP1 PUSH2 0x137 DUP1 SLOAD SWAP1 PUSH1 0x0 SWAP3 JUMPDEST DUP3 DUP5 LT PUSH2 0x2E1F JUMPI POP POP POP POP PUSH2 0x2E1B PUSH8 0xDE0B6B3A7640000 SWAP2 PUSH2 0x139 SLOAD SWAP1 PUSH2 0x2EFF JUMP JUMPDEST DIV SWAP1 JUMP JUMPDEST SWAP1 SWAP2 SWAP3 SWAP4 SWAP6 PUSH2 0x2E6C PUSH2 0x2E5B PUSH2 0x2E66 PUSH1 0x1 SWAP4 PUSH2 0x2E60 PUSH2 0x2E3D DUP11 DUP9 PUSH2 0x2DC7 JUMP JUMPDEST MLOAD PUSH2 0x2E48 DUP2 DUP13 PUSH2 0x2E92 JUMP JUMPDEST SWAP6 SWAP1 PUSH2 0x2E54 DUP14 DUP13 PUSH2 0x283E JUMP JUMPDEST POP SLOAD PUSH2 0x2DDB JUMP JUMPDEST PUSH2 0x3EC6 JUMP JUMPDEST SWAP1 PUSH2 0x2DDB JUMP JUMPDEST SWAP9 PUSH2 0x2DDB JUMP JUMPDEST SWAP5 ADD SWAP3 SWAP2 SWAP1 PUSH2 0x2DF9 JUMP JUMPDEST SWAP2 SWAP1 SWAP2 PUSH1 0x0 DUP4 DUP3 ADD SWAP4 DUP5 SLT SWAP2 SLT SWAP1 DUP1 ISZERO DUP3 AND SWAP2 ISZERO AND OR PUSH2 0xC17 JUMPI JUMP JUMPDEST SWAP2 SWAP1 PUSH1 0x0 SWAP1 PUSH2 0x2EC0 DUP2 PUSH1 0x0 SWAP6 PUSH2 0x2EB6 PUSH2 0x2EAD DUP3 PUSH2 0x150 PUSH2 0x27FC JUMP JUMPDEST SWAP4 SWAP1 SLOAD SWAP3 PUSH2 0x2F4B JUMP JUMPDEST SWAP2 PUSH1 0x3 SHL SHR PUSH2 0x2E76 JUMP JUMPDEST PUSH1 0x0 DUP2 SGT PUSH2 0x2ECF JUMPI JUMPDEST POP POP SWAP2 SWAP1 JUMP JUMPDEST PUSH2 0x2EF7 SWAP2 SWAP5 POP PUSH2 0x2EF1 SWAP3 POP DUP1 SWAP5 PUSH8 0xDE0B6B3A7640000 SWAP4 DUP5 SWAP2 PUSH2 0x13A SLOAD PUSH2 0x2EFF JUMP JUMPDEST DIV PUSH2 0x2EFF JUMP JUMPDEST DIV CODESIZE DUP1 PUSH2 0x2EC9 JUMP JUMPDEST DUP2 DUP2 MUL SWAP3 SWAP2 DUP2 ISZERO SWAP2 DUP5 DIV EQ OR ISZERO PUSH2 0xC17 JUMPI JUMP JUMPDEST DUP2 ISZERO PUSH2 0x2F1C JUMPI DIV SWAP1 JUMP JUMPDEST PUSH4 0x4E487B71 PUSH1 0xE0 SHL PUSH1 0x0 MSTORE PUSH1 0x12 PUSH1 0x4 MSTORE PUSH1 0x24 PUSH1 0x0 REVERT JUMPDEST DUP2 DUP2 SUB SWAP3 SWAP2 PUSH1 0x0 SGT DUP1 ISZERO DUP3 DUP6 SGT AND SWAP2 DUP5 SLT AND OR PUSH2 0xC17 JUMPI JUMP JUMPDEST PUSH2 0x2F57 DUP2 PUSH2 0x137 PUSH2 0x283E JUMP JUMPDEST POP SLOAD SWAP1 PUSH8 0xDE0B6B3A7640000 SWAP2 DUP3 DUP2 MUL SWAP3 DUP2 DUP5 DIV EQ SWAP1 ISZERO OR ISZERO PUSH2 0xC17 JUMPI PUSH2 0x2FA3 SWAP3 PUSH2 0x2F97 PUSH2 0x2F8A PUSH2 0x2F9D SWAP4 PUSH2 0x151 PUSH2 0x27FC JUMP JUMPDEST SWAP1 SLOAD SWAP1 PUSH1 0x3 SHL SHR DUP5 PUSH2 0x2F12 JUMP JUMPDEST SWAP3 PUSH2 0x2F12 JUMP JUMPDEST SWAP1 PUSH2 0x2F32 JUMP JUMPDEST SWAP1 JUMP JUMPDEST DUP1 ISZERO PUSH2 0x2FBC JUMPI PUSH2 0x2E5B PUSH2 0x2FA3 SWAP3 PUSH2 0x131 SLOAD PUSH2 0x2FC4 JUMP JUMPDEST POP POP PUSH1 0x0 NOT SWAP1 JUMP JUMPDEST SWAP2 SWAP1 DUP3 SUB SWAP2 DUP3 GT PUSH2 0xC17 JUMPI JUMP JUMPDEST PUSH8 0xFFFFFFFFFFFFFFFF DUP2 GT PUSH2 0x287C JUMPI PUSH1 0x5 SHL PUSH1 0x20 ADD SWAP1 JUMP JUMPDEST SWAP1 PUSH2 0x2FF3 DUP3 PUSH2 0x2FD1 JUMP JUMPDEST PUSH2 0x3000 PUSH1 0x40 MLOAD SWAP2 DUP3 PUSH2 0x285A JUMP JUMPDEST DUP3 DUP2 MSTORE DUP1 SWAP3 PUSH2 0x3011 PUSH1 0x1F NOT SWAP2 PUSH2 0x2FD1 JUMP JUMPDEST ADD SWAP1 PUSH1 0x20 CALLDATASIZE SWAP2 ADD CALLDATACOPY JUMP JUMPDEST DUP1 SLOAD SWAP1 PUSH1 0x1 PUSH1 0x40 SHL DUP3 LT ISZERO PUSH2 0x287C JUMPI DUP2 PUSH2 0x303D SWAP2 PUSH1 0x1 PUSH2 0x3054 SWAP5 ADD DUP2 SSTORE PUSH2 0x27FC JUMP JUMPDEST DUP2 SWAP4 SWAP2 SLOAD SWAP1 PUSH1 0x3 SHL SWAP2 DUP3 SHL SWAP2 PUSH1 0x0 NOT SWAP1 SHL NOT AND OR SWAP1 JUMP JUMPDEST SWAP1 SSTORE JUMP JUMPDEST PUSH2 0x131 SLOAD DUP1 ISZERO PUSH2 0x3103 JUMPI PUSH2 0x137 SWAP1 DUP2 SLOAD SWAP2 PUSH1 0x0 SWAP1 PUSH2 0x3075 DUP5 PUSH2 0x2FE9 JUMP JUMPDEST SWAP1 DUP3 SWAP1 JUMPDEST DUP6 DUP3 LT PUSH2 0x30BF JUMPI POP POP PUSH1 0x0 JUMPDEST DUP5 DUP2 LT PUSH2 0x3093 JUMPI POP POP POP POP POP JUMP JUMPDEST DUP1 PUSH2 0x30B9 PUSH2 0x30B1 DUP7 PUSH2 0xB39 DUP8 PUSH2 0x30AB PUSH1 0x1 SWAP8 DUP10 PUSH2 0x2DC7 JUMP JUMPDEST MLOAD PUSH2 0x2EFF JUMP JUMPDEST PUSH2 0x138 PUSH2 0x301B JUMP JUMPDEST ADD PUSH2 0x3085 JUMP JUMPDEST SWAP1 SWAP3 PUSH2 0x30FB PUSH1 0x1 SWAP2 PUSH2 0x30D0 DUP7 PUSH2 0x312F JUMP JUMPDEST PUSH2 0x30DA DUP8 DUP8 PUSH2 0x2DC7 JUMP JUMPDEST MSTORE PUSH2 0x2E60 PUSH2 0x30E8 DUP8 DUP7 PUSH2 0x283E JUMP JUMPDEST POP SLOAD PUSH2 0x30F4 DUP9 DUP9 PUSH2 0x2DC7 JUMP JUMPDEST MLOAD SWAP1 PUSH2 0x3EC6 JUMP JUMPDEST SWAP4 ADD SWAP1 PUSH2 0x3079 JUMP JUMPDEST POP JUMP JUMPDEST PUSH1 0x1 PUSH1 0x1 PUSH1 0xA0 SHL SUB AND PUSH1 0x0 SWAP1 DUP2 MSTORE PUSH2 0x136 PUSH1 0x20 MSTORE PUSH1 0x40 SWAP1 KECCAK256 PUSH1 0x1 DUP2 ADD SLOAD PUSH1 0xFF AND ISZERO PUSH2 0x8ED JUMPI SLOAD SWAP1 JUMP JUMPDEST PUSH2 0x313B SWAP1 PUSH2 0x137 PUSH2 0x283E JUMP JUMPDEST POP PUSH1 0x1 ADD SLOAD PUSH1 0x1 PUSH1 0x1 PUSH1 0xA0 SHL SUB AND PUSH2 0x3152 DUP2 PUSH2 0x3185 JUMP JUMPDEST SWAP2 SWAP1 SWAP2 ISZERO PUSH2 0x50A JUMPI POP SWAP1 JUMP JUMPDEST MLOAD SWAP1 DUP2 ISZERO ISZERO DUP3 SUB PUSH2 0x522 JUMPI JUMP JUMPDEST SWAP2 SWAP1 DUP3 PUSH1 0x40 SWAP2 SUB SLT PUSH2 0x522 JUMPI PUSH2 0x2FA3 PUSH1 0x20 DUP4 MLOAD SWAP4 ADD PUSH2 0x315E JUMP JUMPDEST PUSH1 0x40 DUP1 MLOAD PUSH4 0x59E02DD7 PUSH1 0xE0 SHL DUP2 MSTORE SWAP3 SWAP2 DUP4 SWAP1 PUSH1 0x4 SWAP1 DUP3 SWAP1 PUSH1 0x1 PUSH1 0x1 PUSH1 0xA0 SHL SUB AND GAS STATICCALL SWAP2 DUP3 ISZERO PUSH2 0x31DB JUMPI PUSH1 0x0 SWAP1 DUP2 SWAP4 PUSH2 0x31BC JUMPI POP SWAP2 SWAP1 JUMP JUMPDEST SWAP1 POP PUSH2 0x31D7 SWAP2 SWAP3 POP PUSH1 0x40 RETURNDATASIZE DUP2 GT PUSH2 0x929 JUMPI PUSH2 0x919 DUP2 DUP4 PUSH2 0x285A JUMP JUMPDEST SWAP1 SWAP2 JUMP JUMPDEST PUSH1 0x40 MLOAD RETURNDATASIZE PUSH1 0x0 DUP3 RETURNDATACOPY RETURNDATASIZE SWAP1 REVERT JUMPDEST PUSH2 0x137 SLOAD SWAP1 PUSH2 0x31F5 DUP3 PUSH2 0x2FE9 JUMP JUMPDEST SWAP2 PUSH1 0x0 JUMPDEST DUP2 DUP2 LT PUSH2 0x3204 JUMPI POP POP JUMP JUMPDEST DUP1 PUSH2 0x3210 PUSH1 0x1 SWAP3 PUSH2 0x312F JUMP JUMPDEST PUSH2 0x321A DUP3 DUP8 PUSH2 0x2DC7 JUMP JUMPDEST MSTORE ADD PUSH2 0x31F9 JUMP JUMPDEST SWAP1 PUSH2 0x3242 PUSH8 0xDE0B6B3A7640000 SWAP3 DUP4 PUSH2 0x157 SLOAD PUSH2 0x154 SLOAD SWAP3 NUMBER ADD SUB MUL PUSH2 0x2F12 JUMP JUMPDEST DUP3 DUP2 LT ISZERO PUSH2 0x325F JUMPI DUP3 SUB SWAP2 DUP1 DUP4 PUSH2 0x155 SLOAD MUL DIV SWAP3 PUSH2 0x156 SLOAD MUL SDIV SWAP1 JUMP JUMPDEST POP PUSH1 0x0 SWAP2 POP DUP2 SWAP1 JUMP JUMPDEST SWAP1 SWAP2 PUSH2 0x3272 PUSH2 0x32CA JUMP JUMPDEST SWAP3 SWAP1 DUP1 DUP3 LT ISZERO PUSH2 0x32C0 JUMPI DUP4 SWAP2 PUSH2 0x3287 SWAP2 PUSH2 0x2FC4 JUMP JUMPDEST SWAP4 GT ISZERO PUSH2 0x32BB JUMPI DUP2 DUP2 LT ISZERO PUSH2 0x32B3 JUMPI PUSH2 0x329F SWAP2 PUSH2 0x2FC4 JUMP JUMPDEST PUSH1 0x1 SHR DUP1 DUP3 LT ISZERO PUSH2 0x32AE JUMPI POP SWAP1 JUMP JUMPDEST SWAP1 POP SWAP1 JUMP JUMPDEST POP POP POP PUSH1 0x0 SWAP1 JUMP JUMPDEST POP POP SWAP1 JUMP JUMPDEST POP POP POP POP POP PUSH1 0x0 SWAP1 JUMP JUMPDEST PUSH2 0x152 SLOAD PUSH1 0x40 DUP1 MLOAD PUSH4 0x59E02DD7 PUSH1 0xE0 SHL DUP1 DUP3 MSTORE SWAP4 SWAP3 SWAP1 SWAP2 SWAP1 PUSH1 0x1 PUSH1 0x1 PUSH1 0xA0 SHL SUB SWAP1 DUP2 AND DUP3 DUP5 PUSH1 0x4 DUP2 DUP5 GAS STATICCALL DUP1 ISZERO PUSH2 0x33BA JUMPI PUSH1 0x0 SWAP5 DUP6 SWAP2 PUSH2 0x3397 JUMPI JUMPDEST POP ISZERO PUSH2 0x3380 JUMPI POP PUSH2 0x153 SLOAD AND SWAP1 DUP1 MLOAD SWAP5 DUP6 MSTORE DUP1 DUP6 PUSH1 0x4 DUP2 DUP6 GAS STATICCALL DUP1 ISZERO PUSH2 0x3375 JUMPI PUSH1 0x0 SWAP6 DUP7 SWAP2 PUSH2 0x3352 JUMPI JUMPDEST POP ISZERO PUSH2 0x333B JUMPI POP POP SWAP2 SWAP1 JUMP JUMPDEST PUSH1 0x24 SWAP3 POP MLOAD SWAP1 PUSH4 0x5E89893 PUSH1 0xE1 SHL DUP3 MSTORE PUSH1 0x4 DUP3 ADD MSTORE REVERT JUMPDEST SWAP1 POP DUP2 PUSH2 0x336C SWAP3 SWAP7 POP RETURNDATASIZE DUP8 GT PUSH2 0x929 JUMPI PUSH2 0x919 DUP2 DUP4 PUSH2 0x285A JUMP JUMPDEST SWAP5 SWAP1 SWAP5 CODESIZE PUSH2 0x332F JUMP JUMPDEST POP MLOAD RETURNDATASIZE PUSH1 0x0 DUP3 RETURNDATACOPY RETURNDATASIZE SWAP1 REVERT JUMPDEST PUSH1 0x24 SWAP1 DUP4 MLOAD SWAP1 PUSH4 0x5E89893 PUSH1 0xE1 SHL DUP3 MSTORE PUSH1 0x4 DUP3 ADD MSTORE REVERT JUMPDEST SWAP1 POP PUSH2 0x33B1 SWAP2 SWAP5 POP DUP4 RETURNDATASIZE DUP6 GT PUSH2 0x929 JUMPI PUSH2 0x919 DUP2 DUP4 PUSH2 0x285A JUMP JUMPDEST SWAP4 SWAP1 SWAP4 CODESIZE PUSH2 0x3305 JUMP JUMPDEST DUP4 MLOAD RETURNDATASIZE PUSH1 0x0 DUP3 RETURNDATACOPY RETURNDATASIZE SWAP1 REVERT JUMPDEST SWAP1 DUP2 MSTORE PUSH2 0x100 DUP2 ADD SWAP3 SWAP2 PUSH1 0xE0 SWAP1 PUSH1 0xC0 SWAP1 PUSH1 0x1 PUSH1 0x1 PUSH1 0xA0 SHL SUB DUP1 PUSH2 0x33E7 DUP4 PUSH2 0x282A JUMP JUMPDEST AND PUSH1 0x20 DUP7 ADD MSTORE PUSH2 0x33F9 PUSH1 0x20 DUP4 ADD PUSH2 0x282A JUMP JUMPDEST AND PUSH1 0x40 DUP6 ADD MSTORE PUSH1 0x40 DUP2 ADD CALLDATALOAD PUSH1 0x60 DUP6 ADD MSTORE PUSH1 0x60 DUP2 ADD CALLDATALOAD PUSH1 0x80 DUP6 ADD MSTORE PUSH1 0x80 DUP2 ADD CALLDATALOAD PUSH1 0xA0 DUP6 ADD MSTORE PUSH1 0xA0 DUP2 ADD CALLDATALOAD DUP3 DUP6 ADD MSTORE ADD CALLDATALOAD SWAP2 ADD MSTORE JUMP JUMPDEST PUSH1 0x40 MLOAD SWAP1 PUSH2 0x343C PUSH1 0x80 DUP4 PUSH2 0x285A JUMP JUMPDEST PUSH1 0x0 PUSH1 0x60 DUP4 DUP3 DUP2 MSTORE DUP3 PUSH1 0x20 DUP3 ADD MSTORE DUP3 PUSH1 0x40 DUP3 ADD MSTORE ADD MSTORE JUMP JUMPDEST PUSH2 0x34CC SWAP4 PUSH2 0x3493 PUSH1 0x0 SWAP3 PUSH1 0x20 SWAP6 PUSH2 0x346D DUP3 PUSH2 0x137 PUSH2 0x283E JUMP JUMPDEST POP PUSH2 0x3479 DUP8 DUP3 SLOAD PUSH2 0x2DDB JUMP JUMPDEST SWAP1 SSTORE PUSH2 0x3489 PUSH2 0x131 SWAP2 DUP3 SLOAD PUSH2 0x2DDB JUMP JUMPDEST SWAP1 SSTORE PUSH2 0x135 PUSH2 0x27FC JUMP JUMPDEST SWAP1 SLOAD PUSH1 0x40 MLOAD PUSH4 0x40C10F19 PUSH1 0xE0 SHL DUP2 MSTORE PUSH1 0x1 PUSH1 0x1 PUSH1 0xA0 SHL SUB SWAP1 SWAP4 AND PUSH1 0x4 DUP5 ADD MSTORE PUSH1 0x24 DUP4 ADD SWAP5 SWAP1 SWAP5 MSTORE SWAP1 SWAP5 DUP6 SWAP4 SWAP3 DUP5 SWAP3 SWAP1 SWAP2 DUP4 SWAP1 PUSH1 0x44 DUP3 ADD SWAP1 JUMP JUMPDEST SUB SWAP4 PUSH1 0x3 SWAP2 SWAP1 SWAP2 SHL SHR PUSH1 0x1 PUSH1 0x1 PUSH1 0xA0 SHL SUB AND GAS CALL DUP1 ISZERO PUSH2 0x31DB JUMPI PUSH2 0x34ED JUMPI POP JUMP JUMPDEST PUSH1 0x20 DUP2 RETURNDATASIZE DUP3 GT PUSH2 0x3516 JUMPI JUMPDEST DUP2 PUSH2 0x3505 PUSH1 0x20 SWAP4 DUP4 PUSH2 0x285A JUMP JUMPDEST DUP2 ADD SUB SLT PUSH2 0x522 JUMPI PUSH2 0x3103 SWAP1 PUSH2 0x315E JUMP JUMPDEST RETURNDATASIZE SWAP2 POP PUSH2 0x34F8 JUMP JUMPDEST PUSH2 0x3584 SWAP3 PUSH1 0x20 SWAP3 PUSH2 0x134 PUSH2 0x3533 DUP5 DUP3 SLOAD PUSH2 0x2DDB JUMP JUMPDEST SWAP1 SSTORE PUSH2 0x3543 PUSH2 0x131 SWAP2 DUP3 SLOAD PUSH2 0x2DDB JUMP JUMPDEST SWAP1 SSTORE PUSH2 0x133 SLOAD PUSH1 0x40 MLOAD PUSH4 0x40C10F19 PUSH1 0xE0 SHL DUP2 MSTORE PUSH1 0x1 PUSH1 0x1 PUSH1 0xA0 SHL SUB SWAP3 DUP4 AND PUSH1 0x4 DUP3 ADD MSTORE PUSH1 0x24 DUP2 ADD SWAP4 SWAP1 SWAP4 MSTORE SWAP2 SWAP4 DUP5 SWAP3 SWAP1 SWAP2 AND SWAP1 DUP3 SWAP1 PUSH1 0x0 SWAP1 DUP3 SWAP1 PUSH1 0x44 DUP3 ADD SWAP1 JUMP JUMPDEST SUB SWAP3 GAS CALL DUP1 ISZERO PUSH2 0x31DB JUMPI PUSH2 0x34ED JUMPI POP JUMP JUMPDEST SWAP2 SWAP1 PUSH2 0x35A0 SWAP1 PUSH2 0x2DE8 JUMP JUMPDEST SWAP2 SWAP1 SWAP3 PUSH2 0x35AD DUP4 DUP6 PUSH2 0x2FA6 JUMP JUMPDEST SWAP1 DUP1 DUP3 GT ISZERO PUSH2 0x35BA JUMPI POP POP JUMP JUMPDEST PUSH1 0x44 SWAP3 POP PUSH1 0x40 MLOAD SWAP2 PUSH4 0x79121201 PUSH1 0xE0 SHL DUP4 MSTORE PUSH1 0x4 DUP4 ADD MSTORE PUSH1 0x24 DUP3 ADD MSTORE REVERT JUMPDEST PUSH2 0x303D PUSH2 0x3054 SWAP2 PUSH2 0x35E9 DUP5 DUP3 PUSH2 0x2F4B JUMP JUMPDEST PUSH2 0x361F PUSH2 0x35F8 DUP4 PUSH2 0x150 PUSH2 0x27FC JUMP JUMPDEST PUSH2 0x360B DUP3 SWAP5 SWAP3 SLOAD SWAP3 DUP4 DUP4 PUSH1 0x3 SHL SHR PUSH2 0x2E76 JUMP JUMPDEST SWAP2 SWAP1 PUSH1 0x3 SHL SWAP2 DUP3 SHL SWAP2 PUSH1 0x0 NOT SWAP1 SHL NOT AND OR SWAP1 JUMP JUMPDEST SWAP1 SSTORE PUSH2 0x151 PUSH2 0x27FC JUMP JUMPDEST SWAP1 PUSH2 0x134 SLOAD SWAP1 DUP2 ISZERO PUSH2 0x3649 JUMPI PUSH2 0x2FA3 SWAP3 PUSH2 0x5E0 PUSH2 0x2E5B SWAP3 PUSH2 0x131 SLOAD PUSH2 0x2FC4 JUMP JUMPDEST POP POP POP PUSH8 0xDE0B6B3A7640000 SWAP1 JUMP JUMPDEST SWAP3 SWAP1 SWAP4 SWAP2 PUSH1 0x0 SWAP2 PUSH1 0x0 SWAP2 DUP3 SWAP7 PUSH2 0x366C PUSH2 0x342D JUMP JUMPDEST SWAP7 PUSH1 0x1 PUSH1 0x1 PUSH1 0xA0 SHL SUB SWAP2 DUP6 SWAP1 DUP4 AND DUP1 PUSH2 0x3878 JUMPI JUMPDEST POP DUP3 PUSH2 0x12F SLOAD AND DUP4 PUSH1 0x40 MLOAD SWAP4 PUSH4 0x6EB1769F PUSH1 0xE1 SHL DUP6 MSTORE AND DUP1 PUSH1 0x4 DUP6 ADD MSTORE ADDRESS PUSH1 0x24 DUP6 ADD MSTORE PUSH1 0x20 SWAP5 DUP6 DUP6 PUSH1 0x44 DUP2 DUP7 GAS STATICCALL SWAP5 DUP6 ISZERO PUSH2 0x386D JUMPI DUP5 SWAP6 PUSH2 0x383E JUMPI JUMPDEST POP DUP5 PUSH2 0x371D JUMPI JUMPDEST POP POP POP POP POP DUP7 ADD MLOAD ISZERO PUSH2 0x36D9 JUMPI JUMPDEST POP POP POP SWAP3 SWAP2 SWAP1 JUMP JUMPDEST SWAP1 SWAP2 SWAP3 POP PUSH2 0x36F1 PUSH8 0xDE0B6B3A7640000 SWAP3 DUP4 SWAP3 PUSH2 0x2EFF JUMP JUMPDEST DIV DUP1 DUP6 MSTORE SWAP1 DUP3 ISZERO PUSH2 0x3715 JUMPI PUSH2 0x370D SWAP3 DIV SWAP1 DUP2 PUSH1 0x40 DUP7 ADD MSTORE PUSH2 0x2DDB JUMP JUMPDEST CODESIZE DUP1 DUP1 PUSH2 0x36D1 JUMP JUMPDEST POP SWAP1 POP PUSH2 0x370D JUMP JUMPDEST PUSH2 0x372B SWAP1 PUSH2 0x130 SLOAD AND PUSH2 0x3185 JUMP JUMPDEST SWAP3 SWAP1 SWAP3 ISZERO PUSH2 0x36C3 JUMPI SWAP1 SWAP2 SWAP3 SWAP4 SWAP12 POP DUP5 DUP12 PUSH2 0x3765 DUP6 PUSH8 0xDE0B6B3A7640000 PUSH2 0x375F PUSH2 0x3755 DUP14 DUP14 PUSH2 0x2EFF JUMP JUMPDEST PUSH2 0x143 SLOAD SWAP1 PUSH2 0x2EFF JUMP JUMPDEST DIV PUSH2 0x2F12 JUMP JUMPDEST DUP2 DUP4 ADD DUP2 DUP2 MSTORE SWAP6 SWAP1 DUP12 ISZERO PUSH2 0x3834 JUMPI POP PUSH2 0x3790 SWAP2 PUSH2 0x3784 PUSH1 0x60 SWAP3 DUP14 PUSH2 0x2F12 JUMP JUMPDEST SWAP2 DUP3 SWAP2 ADD MSTORE DUP6 MLOAD PUSH2 0x2DDB JUMP JUMPDEST DUP1 SWAP14 JUMPDEST LT SWAP3 DUP4 ISZERO PUSH2 0x37BF JUMPI JUMPDEST POP POP POP PUSH2 0x37AC JUMPI JUMPDEST DUP1 DUP1 DUP1 PUSH2 0x36C3 JUMP JUMPDEST DUP2 SWAP3 SWAP10 POP MSTORE DUP1 PUSH1 0x60 DUP9 ADD MSTORE SWAP7 CODESIZE DUP1 PUSH2 0x37A4 JUMP JUMPDEST SWAP1 SWAP2 SWAP3 POP PUSH1 0x24 PUSH1 0x40 MLOAD DUP1 SWAP5 DUP2 SWAP4 PUSH4 0x70A08231 PUSH1 0xE0 SHL DUP4 MSTORE PUSH1 0x4 DUP4 ADD MSTORE GAS STATICCALL SWAP1 DUP2 ISZERO PUSH2 0x3829 JUMPI SWAP1 DUP12 SWAP2 DUP5 SWAP2 PUSH2 0x37F8 JUMPI JUMPDEST POP LT CODESIZE DUP5 DUP2 PUSH2 0x379C JUMP JUMPDEST DUP1 SWAP3 POP DUP6 DUP1 SWAP3 POP RETURNDATASIZE DUP4 GT PUSH2 0x3822 JUMPI JUMPDEST PUSH2 0x3811 DUP2 DUP4 PUSH2 0x285A JUMP JUMPDEST DUP2 ADD SUB SLT PUSH2 0xE99 JUMPI DUP11 SWAP1 MLOAD CODESIZE PUSH2 0x37EE JUMP JUMPDEST POP RETURNDATASIZE PUSH2 0x3807 JUMP JUMPDEST PUSH1 0x40 MLOAD RETURNDATASIZE DUP6 DUP3 RETURNDATACOPY RETURNDATASIZE SWAP1 REVERT JUMPDEST SWAP2 POP POP DUP1 SWAP14 PUSH2 0x3793 JUMP JUMPDEST SWAP1 SWAP5 POP DUP6 DUP2 DUP2 RETURNDATASIZE DUP4 GT PUSH2 0x3866 JUMPI JUMPDEST PUSH2 0x3856 DUP2 DUP4 PUSH2 0x285A JUMP JUMPDEST DUP2 ADD SUB SLT PUSH2 0x1D04 JUMPI MLOAD SWAP4 CODESIZE PUSH2 0x36BC JUMP JUMPDEST POP RETURNDATASIZE PUSH2 0x384C JUMP JUMPDEST PUSH1 0x40 MLOAD RETURNDATASIZE DUP7 DUP3 RETURNDATACOPY RETURNDATASIZE SWAP1 REVERT JUMPDEST SWAP1 SWAP6 POP PUSH1 0x20 DUP4 PUSH2 0x1C3 SLOAD AND SWAP2 PUSH1 0x24 PUSH1 0x40 MLOAD DUP1 SWAP5 DUP2 SWAP4 PUSH4 0x64A731E9 PUSH1 0xE0 SHL DUP4 MSTORE PUSH1 0x4 DUP4 ADD MSTORE GAS STATICCALL DUP1 ISZERO PUSH2 0x930 JUMPI DUP7 SWAP1 PUSH2 0x38BD JUMPI JUMPDEST PUSH2 0x38B6 SWAP2 POP DUP5 PUSH2 0x2EFF JUMP JUMPDEST SWAP5 CODESIZE PUSH2 0x3680 JUMP JUMPDEST POP PUSH1 0x20 DUP2 RETURNDATASIZE DUP3 GT PUSH2 0x38E8 JUMPI JUMPDEST DUP2 PUSH2 0x38D6 PUSH1 0x20 SWAP4 DUP4 PUSH2 0x285A JUMP JUMPDEST DUP2 ADD SUB SLT PUSH2 0x20B0 JUMPI PUSH2 0x38B6 SWAP1 MLOAD PUSH2 0x38AB JUMP JUMPDEST RETURNDATASIZE SWAP2 POP PUSH2 0x38C9 JUMP JUMPDEST DUP1 PUSH2 0x38F9 PUSH2 0x32CA JUMP JUMPDEST SWAP2 SWAP1 SWAP4 PUSH2 0x3906 PUSH1 0x0 PUSH2 0x3221 JUMP JUMPDEST SWAP5 ADD SWAP4 DUP3 SWAP2 PUSH2 0x399E JUMPI JUMPDEST ADD SWAP4 DUP5 PUSH1 0x0 DUP1 DUP3 SLT PUSH2 0x3998 JUMPI POP JUMPDEST DUP5 SUB SWAP2 DUP2 DUP6 GT PUSH2 0x3960 JUMPI POP POP DUP2 DUP2 GT PUSH2 0x3942 JUMPI POP POP PUSH2 0x155 SSTORE PUSH2 0x156 SSTORE NUMBER PUSH2 0x157 SSTORE JUMP JUMPDEST PUSH1 0x44 SWAP3 POP PUSH1 0x40 MLOAD SWAP2 PUSH4 0x6DA41E5 PUSH1 0xE1 SHL DUP4 MSTORE PUSH1 0x4 DUP4 ADD MSTORE PUSH1 0x24 DUP3 ADD MSTORE REVERT JUMPDEST SWAP1 DUP1 DUP6 SWAP3 GT PUSH2 0x3986 JUMPI PUSH1 0x44 SWAP2 PUSH1 0x40 MLOAD SWAP2 PUSH4 0x6DA41E5 PUSH1 0xE1 SHL DUP4 MSTORE PUSH1 0x4 DUP4 ADD MSTORE PUSH1 0x24 DUP3 ADD MSTORE REVERT JUMPDEST PUSH1 0x40 MLOAD PUSH4 0xFB4FD35 PUSH1 0xE1 SHL DUP2 MSTORE PUSH1 0x4 SWAP1 REVERT JUMPDEST SUB PUSH2 0x391E JUMP JUMPDEST SWAP1 POP DUP2 PUSH1 0x0 SUB SWAP1 PUSH2 0x3910 JUMP JUMPDEST PUSH2 0x39D7 SWAP2 SWAP3 PUSH2 0x39BB DUP3 PUSH2 0x137 PUSH2 0x283E JUMP JUMPDEST POP PUSH2 0x39C7 DUP6 DUP3 SLOAD PUSH2 0x2FC4 JUMP JUMPDEST SWAP1 SSTORE PUSH2 0x3489 PUSH2 0x131 SWAP2 DUP3 SLOAD PUSH2 0x2FC4 JUMP JUMPDEST SWAP1 SLOAD PUSH1 0x3 SWAP2 SWAP1 SWAP2 SHL SHR PUSH1 0x1 PUSH1 0x1 PUSH1 0xA0 SHL SUB AND DUP1 EXTCODESIZE ISZERO PUSH2 0x522 JUMPI PUSH1 0x40 MLOAD PUSH4 0x2770A7EB PUSH1 0xE2 SHL DUP2 MSTORE ADDRESS PUSH1 0x4 DUP3 ADD MSTORE PUSH1 0x24 DUP2 ADD SWAP3 SWAP1 SWAP3 MSTORE PUSH1 0x0 SWAP1 DUP3 SWAP1 DUP2 DUP4 DUP2 PUSH1 0x44 DUP2 ADD JUMPDEST SUB SWAP3 GAS CALL DUP1 ISZERO PUSH2 0x31DB JUMPI PUSH2 0x3A29 JUMPI POP JUMP JUMPDEST PUSH1 0x0 PUSH2 0x2A21 SWAP2 PUSH2 0x285A JUMP JUMPDEST SWAP1 PUSH2 0x134 PUSH2 0x3A43 DUP4 DUP3 SLOAD PUSH2 0x2FC4 JUMP JUMPDEST SWAP1 SSTORE PUSH2 0x3A53 PUSH2 0x131 SWAP2 DUP3 SLOAD PUSH2 0x2FC4 JUMP JUMPDEST SWAP1 SSTORE PUSH2 0x133 SLOAD PUSH1 0x1 PUSH1 0x1 PUSH1 0xA0 SHL SUB AND DUP1 EXTCODESIZE ISZERO PUSH2 0x522 JUMPI PUSH1 0x40 MLOAD PUSH4 0x2770A7EB PUSH1 0xE2 SHL DUP2 MSTORE ADDRESS PUSH1 0x4 DUP3 ADD MSTORE PUSH1 0x24 DUP2 ADD SWAP3 SWAP1 SWAP3 MSTORE PUSH1 0x0 SWAP1 DUP3 SWAP1 DUP2 DUP4 DUP2 PUSH1 0x44 DUP2 ADD PUSH2 0x3A18 JUMP JUMPDEST SWAP3 PUSH2 0x3AA7 DUP4 PUSH2 0x3AAD SWAP7 SWAP5 SWAP4 SWAP8 SWAP6 PUSH2 0x3C22 JUMP JUMPDEST SWAP1 PUSH2 0x3AD6 JUMP JUMPDEST DUP2 DUP2 LT PUSH2 0x3AB8 JUMPI POP POP JUMP JUMPDEST PUSH1 0x44 SWAP3 POP PUSH1 0x40 MLOAD SWAP2 PUSH4 0xC39B739F PUSH1 0xE0 SHL DUP4 MSTORE PUSH1 0x4 DUP4 ADD MSTORE PUSH1 0x24 DUP3 ADD MSTORE REVERT JUMPDEST SWAP3 PUSH2 0x3AE3 SWAP3 SWAP5 SWAP2 SWAP4 PUSH2 0x3BA3 JUMP JUMPDEST PUSH1 0x0 SWAP3 DUP2 DUP2 MUL SWAP2 PUSH1 0x1 PUSH1 0xFF SHL SWAP2 DUP6 DUP3 SLT DUP4 DUP3 EQ AND PUSH2 0x3B8F JUMPI DUP2 DUP5 SDIV EQ SWAP1 ISZERO OR ISZERO PUSH2 0x3B7B JUMPI PUSH8 0xDE0B6B3A763FFFF NOT DUP4 ADD SWAP3 DUP4 GT PUSH2 0x3B7B JUMPI PUSH8 0xDE0B6B3A7640000 SWAP3 DUP4 DUP2 MUL SWAP4 DUP2 DUP6 DIV EQ SWAP1 ISZERO OR ISZERO PUSH2 0x3B7B JUMPI DUP3 ISZERO PUSH2 0x3B67 JUMPI DUP2 EQ PUSH1 0x0 NOT DUP4 EQ AND PUSH2 0x3B53 JUMPI SDIV SWAP1 DUP1 DUP3 SLT PUSH2 0x32AE JUMPI POP SWAP1 JUMP JUMPDEST PUSH4 0x4E487B71 PUSH1 0xE0 SHL DUP4 MSTORE PUSH1 0x11 PUSH1 0x4 MSTORE PUSH1 0x24 DUP4 REVERT JUMPDEST PUSH4 0x4E487B71 PUSH1 0xE0 SHL DUP5 MSTORE PUSH1 0x12 PUSH1 0x4 MSTORE PUSH1 0x24 DUP5 REVERT JUMPDEST PUSH4 0x4E487B71 PUSH1 0xE0 SHL DUP5 MSTORE PUSH1 0x11 PUSH1 0x4 MSTORE PUSH1 0x24 DUP5 REVERT JUMPDEST PUSH4 0x4E487B71 PUSH1 0xE0 SHL DUP7 MSTORE PUSH1 0x11 PUSH1 0x4 MSTORE PUSH1 0x24 DUP7 REVERT JUMPDEST SWAP1 SWAP2 PUSH2 0x3BB2 SWAP1 PUSH2 0x131 SLOAD PUSH2 0x2FC4 JUMP JUMPDEST SWAP1 PUSH8 0xDE0B6B3A7640000 SWAP2 DUP3 DUP2 MUL SWAP3 DUP2 DUP5 DIV EQ SWAP1 ISZERO OR ISZERO PUSH2 0xC17 JUMPI PUSH2 0x2FA3 SWAP3 PUSH2 0x2F9D SWAP2 PUSH2 0x2EFF JUMP JUMPDEST DUP3 DUP3 PUSH2 0x3BE5 SWAP3 PUSH2 0x3BA3 JUMP JUMPDEST SWAP1 PUSH1 0x0 DUP3 SGT ISZERO PUSH2 0x32B3 JUMPI PUSH2 0x2FA3 SWAP3 PUSH2 0x3BFC SWAP2 PUSH2 0x3629 JUMP JUMPDEST SWAP1 PUSH2 0x2F12 JUMP JUMPDEST SWAP1 PUSH1 0x40 MLOAD PUSH2 0x3C11 PUSH1 0x40 DUP3 PUSH2 0x285A JUMP JUMPDEST PUSH1 0x20 PUSH1 0x1 DUP3 SWAP5 DUP1 SLOAD DUP5 MSTORE ADD SLOAD SWAP2 ADD MSTORE JUMP JUMPDEST PUSH2 0x3C2E DUP2 PUSH2 0x148 PUSH2 0x27FC JUMP JUMPDEST SWAP1 SLOAD SWAP1 PUSH1 0x3 SHL SHR SWAP2 PUSH2 0x18E SWAP2 PUSH2 0x3C44 DUP2 DUP5 PUSH2 0x283E JUMP JUMPDEST POP SLOAD SWAP3 PUSH2 0x18F SLOAD NUMBER LT ISZERO PUSH2 0x3C6A JUMPI JUMPDEST POP POP DUP1 DUP3 LT ISZERO PUSH2 0x32BB JUMPI PUSH2 0xB39 SWAP1 PUSH2 0x2FA3 SWAP4 PUSH2 0x2EFF JUMP JUMPDEST DUP3 SWAP4 POP PUSH2 0x3C7E PUSH2 0x3C89 SWAP4 SWAP3 PUSH2 0x3C84 SWAP3 PUSH2 0x283E JUMP JUMPDEST POP PUSH2 0x3C02 JUMP JUMPDEST PUSH2 0x3C91 JUMP JUMPDEST SWAP1 CODESIZE DUP1 PUSH2 0x3C53 JUMP JUMPDEST PUSH1 0x20 DUP2 MLOAD SWAP2 ADD DUP1 MLOAD SWAP3 PUSH8 0xDE0B6B3A7640000 SWAP4 DUP5 SUB SWAP1 DUP5 DUP3 GT PUSH2 0xC17 JUMPI PUSH2 0x3CBE PUSH2 0x2E60 SWAP3 PUSH2 0x2E1B SWAP6 PUSH2 0x2EFF JUMP JUMPDEST SWAP3 MLOAD PUSH2 0x2EFF JUMP JUMPDEST PUSH1 0x0 DUP1 PUSH2 0x137 SWAP2 DUP3 SLOAD SWAP3 PUSH2 0x3CD8 DUP5 PUSH2 0x2FE9 JUMP JUMPDEST SWAP4 DUP3 SWAP2 JUMPDEST DUP2 DUP4 LT PUSH2 0x3D05 JUMPI POP POP POP DUP2 ISZERO PUSH2 0x3CF9 JUMPI SWAP1 PUSH2 0x3CF6 SWAP2 PUSH2 0x2F12 JUMP JUMPDEST SWAP2 JUMP JUMPDEST POP POP PUSH2 0x149 SLOAD PUSH1 0x1 SHL SWAP2 JUMP JUMPDEST SWAP1 SWAP2 SWAP4 SWAP3 PUSH2 0x3D12 DUP6 PUSH2 0x312F JUMP JUMPDEST SWAP1 DUP2 PUSH2 0x3D1E DUP8 DUP10 PUSH2 0x2DC7 JUMP JUMPDEST MSTORE PUSH2 0x3D37 PUSH2 0x3D2C DUP4 DUP9 PUSH2 0x2E92 JUMP JUMPDEST POP PUSH2 0x2E54 DUP9 DUP7 PUSH2 0x283E JUMP JUMPDEST PUSH8 0xDE0B6B3A7640000 SWAP1 DUP2 DUP2 MUL SWAP2 DUP2 DUP4 DIV EQ SWAP1 ISZERO OR ISZERO PUSH2 0xC17 JUMPI PUSH2 0x3D74 PUSH2 0x3D7A SWAP3 PUSH2 0x2E60 DUP6 PUSH2 0x3D6B PUSH1 0x1 SWAP8 PUSH2 0x5E5 SWAP7 PUSH2 0x3EC6 JUMP JUMPDEST SWAP5 DUP6 SWAP2 DUP13 PUSH2 0x3C22 JUMP JUMPDEST SWAP6 PUSH2 0x2DDB JUMP JUMPDEST SWAP5 ADD SWAP2 SWAP1 PUSH2 0x3CDC JUMP JUMPDEST PUSH2 0x18F DUP1 SLOAD NUMBER LT ISZERO PUSH2 0x3D92 JUMPI POP JUMP JUMPDEST PUSH2 0x137 SLOAD PUSH1 0x0 JUMPDEST DUP2 DUP2 LT PUSH2 0x3DAC JUMPI POP POP PUSH2 0x190 SLOAD NUMBER ADD SWAP1 SSTORE JUMP JUMPDEST DUP1 DUP1 PUSH32 0x19156E9379C7BBBCE8F646CE5EE30BA860B8F954717405F3D5859A6C1A21AE60 PUSH1 0x1 SWAP4 PUSH2 0x18E PUSH2 0x3DE2 PUSH2 0x3C7E DUP4 DUP4 PUSH2 0x283E JUMP JUMPDEST SWAP1 PUSH2 0x3E00 PUSH2 0x3DF8 PUSH2 0x3DF2 DUP6 PUSH2 0x312F JUMP JUMPDEST DUP5 PUSH2 0x3C91 JUMP JUMPDEST SWAP4 DUP5 SWAP3 PUSH2 0x283E JUMP JUMPDEST POP SSTORE MLOAD PUSH1 0x40 SWAP2 DUP3 MLOAD SWAP2 DUP3 MSTORE PUSH1 0x20 DUP3 ADD MSTORE LOG2 ADD PUSH2 0x3D99 JUMP JUMPDEST PUSH1 0x97 SLOAD PUSH1 0x40 MLOAD PUSH4 0xD994D6D5 PUSH1 0xE0 SHL DUP2 MSTORE CALLER PUSH1 0x4 DUP3 ADD MSTORE SWAP1 PUSH1 0x20 SWAP1 DUP3 SWAP1 PUSH1 0x24 SWAP1 DUP3 SWAP1 PUSH1 0x1 PUSH1 0x1 PUSH1 0xA0 SHL SUB AND GAS STATICCALL SWAP1 DUP2 ISZERO PUSH2 0x31DB JUMPI PUSH1 0x0 SWAP2 PUSH2 0x3E6C JUMPI JUMPDEST POP ISZERO PUSH2 0x3E5A JUMPI JUMP JUMPDEST PUSH1 0x40 MLOAD PUSH4 0x1DD1B1B5 PUSH1 0xE2 SHL DUP2 MSTORE PUSH1 0x4 SWAP1 REVERT JUMPDEST SWAP1 PUSH1 0x20 DUP3 RETURNDATASIZE DUP3 GT PUSH2 0x3E9D JUMPI JUMPDEST DUP2 PUSH2 0x3E85 PUSH1 0x20 SWAP4 DUP4 PUSH2 0x285A JUMP JUMPDEST DUP2 ADD SUB SLT PUSH2 0x4AB JUMPI POP PUSH2 0x3E97 SWAP1 PUSH2 0x315E JUMP JUMPDEST CODESIZE PUSH2 0x3E52 JUMP JUMPDEST RETURNDATASIZE SWAP2 POP PUSH2 0x3E78 JUMP JUMPDEST PUSH1 0xFF PUSH1 0xCA SLOAD PUSH1 0x8 SHR AND PUSH2 0x3EB4 JUMPI JUMP JUMPDEST PUSH1 0x40 MLOAD PUSH4 0x783BB6C9 PUSH1 0xE1 SHL DUP2 MSTORE PUSH1 0x4 SWAP1 REVERT JUMPDEST SWAP1 PUSH8 0xDE0B6B3A7640000 SWAP2 DUP3 DUP2 MUL SWAP3 DUP2 DUP5 DIV EQ SWAP1 ISZERO OR ISZERO PUSH2 0xC17 JUMPI PUSH2 0x2FA3 SWAP2 PUSH2 0x2F12 JUMP INVALID LOG2 PUSH5 0x6970667358 0x22 SLT KECCAK256 0xDC 0xC3 STOP SLOAD JUMP 0x4B ADD 0xC6 0xD1 PUSH10 0xEB8BD2456F55EBB4D8C8 0x21 0xD9 0xD1 LOG1 CREATE2 PUSH21 0x158535D7DC1C64736F6C6343000814003360803461 STOP 0x5D JUMPI PUSH1 0x1F PUSH2 0x19D CODESIZE DUP2 SWAP1 SUB SWAP2 DUP3 ADD PUSH1 0x1F NOT AND DUP4 ADD SWAP2 PUSH1 0x1 PUSH1 0x1 PUSH1 0x40 SHL SUB DUP4 GT DUP5 DUP5 LT OR PUSH2 0x62 JUMPI DUP1 DUP5 SWAP3 PUSH1 0x20 SWAP5 PUSH1 0x40 MSTORE DUP4 CODECOPY DUP2 ADD SUB SLT PUSH2 0x5D JUMPI MLOAD PUSH1 0x0 SSTORE PUSH1 0x1 PUSH1 0xFF NOT DUP2 SLOAD AND OR PUSH1 0x1 SSTORE PUSH1 0x40 MLOAD PUSH2 0x124 SWAP1 DUP2 PUSH2 0x79 DUP3 CODECOPY RETURN JUMPDEST PUSH1 0x0 DUP1 REVERT JUMPDEST PUSH4 0x4E487B71 PUSH1 0xE0 SHL PUSH1 0x0 MSTORE PUSH1 0x41 PUSH1 0x4 MSTORE PUSH1 0x24 PUSH1 0x0 REVERT INVALID PUSH1 0x80 DUP1 PUSH1 0x40 MSTORE PUSH1 0x4 CALLDATASIZE LT ISZERO PUSH1 0x12 JUMPI PUSH1 0x0 DUP1 REVERT JUMPDEST PUSH1 0x0 SWAP1 DUP2 CALLDATALOAD PUSH1 0xE0 SHR SWAP1 DUP2 PUSH4 0x32145F90 EQ PUSH1 0xD6 JUMPI DUP2 PUSH4 0x59E02DD7 EQ PUSH1 0xAC JUMPI POP DUP1 PUSH4 0x73D4A13A EQ PUSH1 0x91 JUMPI DUP1 PUSH4 0xB689D5AC EQ PUSH1 0x70 JUMPI PUSH4 0xC62DEE0D EQ PUSH1 0x52 JUMPI PUSH1 0x0 DUP1 REVERT JUMPDEST CALLVALUE PUSH1 0x6D JUMPI DUP1 PUSH1 0x3 NOT CALLDATASIZE ADD SLT PUSH1 0x6D JUMPI PUSH1 0xFF NOT PUSH1 0x1 SLOAD AND PUSH1 0x1 SSTORE DUP1 RETURN JUMPDEST DUP1 REVERT JUMPDEST POP CALLVALUE PUSH1 0x6D JUMPI DUP1 PUSH1 0x3 NOT CALLDATASIZE ADD SLT PUSH1 0x6D JUMPI PUSH1 0x20 PUSH1 0xFF PUSH1 0x1 SLOAD AND PUSH1 0x40 MLOAD SWAP1 ISZERO ISZERO DUP2 MSTORE RETURN JUMPDEST POP CALLVALUE PUSH1 0x6D JUMPI DUP1 PUSH1 0x3 NOT CALLDATASIZE ADD SLT PUSH1 0x6D JUMPI PUSH1 0x20 SWAP1 SLOAD PUSH1 0x40 MLOAD SWAP1 DUP2 MSTORE RETURN JUMPDEST SWAP1 POP CALLVALUE PUSH1 0xD2 JUMPI DUP2 PUSH1 0x3 NOT CALLDATASIZE ADD SLT PUSH1 0xD2 JUMPI PUSH1 0x40 SWAP2 SLOAD PUSH1 0xFF PUSH1 0x1 SLOAD AND SWAP1 DUP3 MSTORE ISZERO ISZERO PUSH1 0x20 DUP3 ADD MSTORE RETURN JUMPDEST POP DUP1 REVERT JUMPDEST DUP3 CALLVALUE PUSH1 0x6D JUMPI PUSH1 0x20 CALLDATASIZE PUSH1 0x3 NOT ADD SLT PUSH1 0x6D JUMPI PUSH1 0x4 CALLDATALOAD DUP2 SSTORE DUP1 RETURN INVALID LOG2 PUSH5 0x6970667358 0x22 SLT KECCAK256 0x4C PUSH20 0xB60E8FD9090A929BA12ADA6C65EDD90196561106 PUSH18 0x326AD073926191B53A64736F6C6343000814 STOP CALLER PUSH1 0x80 PUSH1 0x40 MSTORE CALLVALUE PUSH3 0x3B6 JUMPI PUSH3 0x14 PUSH3 0x3BB JUMP JUMPDEST PUSH3 0x1E PUSH3 0x3BB JUMP JUMPDEST DUP2 MLOAD SWAP1 SWAP2 SWAP1 PUSH1 0x1 PUSH1 0x1 PUSH1 0x40 SHL SUB SWAP1 DUP2 DUP2 GT PUSH3 0x2B6 JUMPI PUSH1 0x3 SWAP2 DUP3 SLOAD SWAP3 PUSH1 0x1 SWAP3 DUP4 DUP6 DUP2 SHR SWAP6 AND SWAP6 DUP7 ISZERO PUSH3 0x3AB JUMPI JUMPDEST PUSH1 0x20 SWAP7 DUP8 DUP8 LT EQ PUSH3 0x395 JUMPI DUP2 SWAP1 PUSH1 0x1F SWAP7 DUP8 DUP2 GT PUSH3 0x33F JUMPI JUMPDEST POP DUP8 SWAP1 DUP8 DUP4 GT PUSH1 0x1 EQ PUSH3 0x2D8 JUMPI PUSH1 0x0 SWAP3 PUSH3 0x2CC JUMPI JUMPDEST POP POP PUSH1 0x0 NOT DUP3 DUP5 SHL SHR NOT AND SWAP1 DUP5 SHL OR DUP2 SSTORE JUMPDEST DUP6 MLOAD SWAP2 DUP3 GT PUSH3 0x2B6 JUMPI PUSH1 0x4 SWAP6 DUP7 SLOAD DUP5 DUP2 DUP2 SHR SWAP2 AND DUP1 ISZERO PUSH3 0x2AB JUMPI JUMPDEST DUP8 DUP3 LT EQ PUSH3 0x296 JUMPI DUP6 DUP2 GT PUSH3 0x24B JUMPI JUMPDEST POP DUP6 SWAP1 DUP6 DUP5 GT PUSH1 0x1 EQ PUSH3 0x1E0 JUMPI SWAP4 DUP4 SWAP5 SWAP2 DUP5 SWAP3 PUSH1 0x0 SWAP6 PUSH3 0x1D4 JUMPI JUMPDEST POP POP SHL SWAP3 PUSH1 0x0 NOT SWAP2 SHL SHR NOT AND OR DUP4 SSTORE JUMPDEST PUSH1 0x12 PUSH1 0xFF NOT PUSH1 0x5 SLOAD AND OR PUSH1 0x5 SSTORE CALLER ISZERO PUSH3 0x193 JUMPI POP PUSH1 0x2 SLOAD PUSH28 0x6DF37F675EF6EADF5AB9A2072D44268D97DF837E6748956E5C6C2117 SWAP3 DUP4 DUP3 ADD DUP1 SWAP3 GT PUSH3 0x17E JUMPI POP PUSH1 0x0 SWAP2 PUSH32 0xDDF252AD1BE2C89B69C2B068FC378DAA952BA7F163C4A11628F55A4DF523B3EF SWAP2 PUSH1 0x2 SSTORE CALLER DUP4 MSTORE DUP3 DUP2 MSTORE PUSH1 0x40 DUP4 KECCAK256 DUP5 DUP2 SLOAD ADD SWAP1 SSTORE PUSH1 0x40 MLOAD SWAP4 DUP5 MSTORE CALLER SWAP4 LOG3 PUSH1 0x40 MLOAD PUSH2 0xC43 SWAP1 DUP2 PUSH3 0x3F2 DUP3 CODECOPY RETURN JUMPDEST PUSH1 0x11 SWAP1 PUSH4 0x4E487B71 PUSH1 0xE0 SHL PUSH1 0x0 MSTORE MSTORE PUSH1 0x24 PUSH1 0x0 REVERT JUMPDEST PUSH1 0x64 SWAP3 SWAP2 PUSH1 0x40 MLOAD SWAP3 PUSH3 0x461BCD PUSH1 0xE5 SHL DUP5 MSTORE DUP4 ADD MSTORE PUSH1 0x24 DUP3 ADD MSTORE PUSH32 0x45524332303A206D696E7420746F20746865207A65726F206164647265737300 PUSH1 0x44 DUP3 ADD MSTORE REVERT JUMPDEST ADD MLOAD SWAP4 POP CODESIZE DUP1 PUSH3 0xDB JUMP JUMPDEST SWAP2 SWAP1 PUSH1 0x1F NOT DUP5 AND SWAP3 DUP9 PUSH1 0x0 MSTORE DUP5 DUP9 PUSH1 0x0 KECCAK256 SWAP5 PUSH1 0x0 JUMPDEST DUP11 DUP10 DUP4 DUP4 LT PUSH3 0x233 JUMPI POP POP POP LT PUSH3 0x218 JUMPI JUMPDEST POP POP POP POP DUP2 SHL ADD DUP4 SSTORE PUSH3 0xEB JUMP JUMPDEST ADD MLOAD SWAP1 PUSH1 0xF8 DUP5 PUSH1 0x0 NOT SWAP3 SHL AND SHR NOT AND SWAP1 SSTORE CODESIZE DUP1 DUP1 DUP1 PUSH3 0x209 JUMP JUMPDEST DUP7 DUP7 ADD MLOAD DUP10 SSTORE SWAP1 SWAP8 ADD SWAP7 SWAP5 DUP6 ADD SWAP5 DUP9 SWAP4 POP ADD PUSH3 0x1F5 JUMP JUMPDEST DUP8 PUSH1 0x0 MSTORE DUP7 PUSH1 0x0 KECCAK256 DUP7 DUP1 DUP7 ADD PUSH1 0x5 SHR DUP3 ADD SWAP3 DUP10 DUP8 LT PUSH3 0x28C JUMPI JUMPDEST ADD PUSH1 0x5 SHR ADD SWAP1 DUP6 SWAP1 JUMPDEST DUP3 DUP2 LT PUSH3 0x27F JUMPI POP POP PUSH3 0xBE JUMP JUMPDEST PUSH1 0x0 DUP2 SSTORE ADD DUP6 SWAP1 PUSH3 0x26F JUMP JUMPDEST SWAP3 POP DUP2 SWAP3 PUSH3 0x266 JUMP JUMPDEST PUSH1 0x22 DUP9 PUSH4 0x4E487B71 PUSH1 0xE0 SHL PUSH1 0x0 MSTORE MSTORE PUSH1 0x24 PUSH1 0x0 REVERT JUMPDEST SWAP1 PUSH1 0x7F AND SWAP1 PUSH3 0xAC JUMP JUMPDEST PUSH4 0x4E487B71 PUSH1 0xE0 SHL PUSH1 0x0 MSTORE PUSH1 0x41 PUSH1 0x4 MSTORE PUSH1 0x24 PUSH1 0x0 REVERT JUMPDEST ADD MLOAD SWAP1 POP CODESIZE DUP1 PUSH3 0x7D JUMP JUMPDEST SWAP1 DUP7 SWAP4 POP PUSH1 0x1F NOT DUP4 AND SWAP2 DUP6 PUSH1 0x0 MSTORE DUP10 PUSH1 0x0 KECCAK256 SWAP3 PUSH1 0x0 JUMPDEST DUP12 DUP3 DUP3 LT PUSH3 0x328 JUMPI POP POP DUP5 GT PUSH3 0x30F JUMPI JUMPDEST POP POP POP DUP2 SHL ADD DUP2 SSTORE PUSH3 0x8F JUMP JUMPDEST ADD MLOAD PUSH1 0x0 NOT DUP4 DUP7 SHL PUSH1 0xF8 AND SHR NOT AND SWAP1 SSTORE CODESIZE DUP1 DUP1 PUSH3 0x301 JUMP JUMPDEST DUP4 DUP6 ADD MLOAD DUP7 SSTORE DUP11 SWAP8 SWAP1 SWAP6 ADD SWAP5 SWAP4 DUP5 ADD SWAP4 ADD PUSH3 0x2EE JUMP JUMPDEST SWAP1 SWAP2 POP DUP4 PUSH1 0x0 MSTORE DUP8 PUSH1 0x0 KECCAK256 DUP8 DUP1 DUP6 ADD PUSH1 0x5 SHR DUP3 ADD SWAP3 DUP11 DUP7 LT PUSH3 0x38B JUMPI JUMPDEST SWAP2 DUP9 SWAP2 DUP7 SWAP6 SWAP5 SWAP4 ADD PUSH1 0x5 SHR ADD SWAP2 JUMPDEST DUP3 DUP2 LT PUSH3 0x37B JUMPI POP POP PUSH3 0x66 JUMP JUMPDEST PUSH1 0x0 DUP2 SSTORE DUP6 SWAP5 POP DUP9 SWAP2 ADD PUSH3 0x36B JUMP JUMPDEST SWAP3 POP DUP2 SWAP3 PUSH3 0x35D JUMP JUMPDEST PUSH4 0x4E487B71 PUSH1 0xE0 SHL PUSH1 0x0 MSTORE PUSH1 0x22 PUSH1 0x4 MSTORE PUSH1 0x24 PUSH1 0x0 REVERT JUMPDEST SWAP5 PUSH1 0x7F AND SWAP5 PUSH3 0x4C JUMP JUMPDEST PUSH1 0x0 DUP1 REVERT JUMPDEST PUSH1 0x40 DUP1 MLOAD SWAP2 SWAP1 DUP3 ADD PUSH1 0x1 PUSH1 0x1 PUSH1 0x40 SHL SUB DUP2 GT DUP4 DUP3 LT OR PUSH3 0x2B6 JUMPI PUSH1 0x40 MSTORE PUSH1 0x9 DUP3 MSTORE PUSH9 0x45524332304D6F636B PUSH1 0xB8 SHL PUSH1 0x20 DUP4 ADD MSTORE JUMP INVALID PUSH1 0x80 PUSH1 0x40 DUP2 DUP2 MSTORE PUSH1 0x4 DUP1 CALLDATASIZE LT ISZERO PUSH2 0x15 JUMPI PUSH1 0x0 DUP1 REVERT JUMPDEST PUSH1 0x0 SWAP3 DUP4 CALLDATALOAD PUSH1 0xE0 SHR SWAP1 DUP2 PUSH4 0x6FDDE03 EQ PUSH2 0x649 JUMPI POP DUP1 PUSH4 0x95EA7B3 EQ PUSH2 0x615 JUMPI DUP1 PUSH4 0x18160DDD EQ PUSH2 0x5F6 JUMPI DUP1 PUSH4 0x23B872DD EQ PUSH2 0x5A8 JUMPI DUP1 PUSH4 0x313CE567 EQ PUSH2 0x140 JUMPI DUP1 PUSH4 0x39509351 EQ PUSH2 0x558 JUMPI DUP1 PUSH4 0x40C10F19 EQ PUSH2 0x499 JUMPI DUP1 PUSH4 0x42966C68 EQ PUSH2 0x47B JUMPI DUP1 PUSH4 0x5C2F5E26 EQ PUSH2 0x446 JUMPI DUP1 PUSH4 0x70A08231 EQ PUSH2 0x40E JUMPI DUP1 PUSH4 0x79CC6790 EQ PUSH2 0x3D4 JUMPI DUP1 PUSH4 0x7A1395AA EQ PUSH2 0x3A7 JUMPI DUP1 PUSH4 0x95D89B41 EQ PUSH2 0x287 JUMPI DUP1 PUSH4 0x9DC29FAC EQ PUSH2 0x255 JUMPI DUP1 PUSH4 0xA457C2D7 EQ PUSH2 0x1A5 JUMPI DUP1 PUSH4 0xA9059CBB EQ PUSH2 0x166 JUMPI DUP1 PUSH4 0xACE28FA5 EQ PUSH2 0x140 JUMPI PUSH4 0xDD62ED3E EQ PUSH2 0xE9 JUMPI PUSH1 0x0 DUP1 REVERT JUMPDEST CALLVALUE PUSH2 0x13C JUMPI DUP2 PUSH1 0x3 NOT CALLDATASIZE ADD SLT PUSH2 0x13C JUMPI PUSH1 0x1 PUSH1 0x1 PUSH1 0xA0 SHL SUB SWAP1 CALLDATALOAD DUP2 DUP2 AND SWAP1 DUP2 SWAP1 SUB PUSH2 0x138 JUMPI PUSH1 0x24 CALLDATALOAD SWAP2 DUP3 AND DUP1 SWAP3 SUB PUSH2 0x138 JUMPI SWAP3 DUP3 SWAP2 PUSH1 0x20 SWAP5 DUP3 MSTORE PUSH1 0x1 DUP6 MSTORE DUP3 DUP3 KECCAK256 SWAP1 DUP3 MSTORE DUP5 MSTORE KECCAK256 SLOAD SWAP1 MLOAD SWAP1 DUP2 MSTORE RETURN JUMPDEST DUP4 DUP1 REVERT JUMPDEST DUP3 DUP1 REVERT JUMPDEST POP POP CALLVALUE PUSH2 0x162 JUMPI DUP2 PUSH1 0x3 NOT CALLDATASIZE ADD SLT PUSH2 0x162 JUMPI PUSH1 0x20 SWAP1 PUSH1 0xFF PUSH1 0x5 SLOAD AND SWAP1 MLOAD SWAP1 DUP2 MSTORE RETURN JUMPDEST POP DUP1 REVERT JUMPDEST POP CALLVALUE PUSH2 0x13C JUMPI DUP2 PUSH1 0x3 NOT CALLDATASIZE ADD SLT PUSH2 0x13C JUMPI CALLDATALOAD SWAP2 PUSH1 0x1 PUSH1 0x1 PUSH1 0xA0 SHL SUB DUP4 AND DUP4 SUB PUSH2 0x1A2 JUMPI POP PUSH2 0x199 PUSH1 0x20 SWAP3 PUSH1 0x24 CALLDATALOAD SWAP1 PUSH2 0xBB9 JUMP JUMPDEST SWAP1 MLOAD SWAP1 ISZERO ISZERO DUP2 MSTORE RETURN JUMPDEST DUP1 REVERT JUMPDEST POP DUP3 CALLVALUE PUSH2 0x1A2 JUMPI DUP3 PUSH1 0x3 NOT CALLDATASIZE ADD SLT PUSH2 0x1A2 JUMPI DUP2 CALLDATALOAD SWAP2 PUSH1 0x1 PUSH1 0x1 PUSH1 0xA0 SHL SUB DUP4 AND SWAP2 DUP3 DUP5 SUB PUSH2 0x1A2 JUMPI DUP5 SWAP1 PUSH1 0x24 CALLDATALOAD SWAP4 CALLER DUP3 MSTORE PUSH1 0x1 PUSH1 0x20 MSTORE DUP3 DUP3 KECCAK256 SWAP1 DUP3 MSTORE PUSH1 0x20 MSTORE KECCAK256 SLOAD SWAP1 DUP3 DUP3 LT PUSH2 0x204 JUMPI PUSH1 0x20 DUP6 PUSH2 0x1FD DUP6 DUP6 SUB DUP8 CALLER PUSH2 0x918 JUMP JUMPDEST MLOAD PUSH1 0x1 DUP2 MSTORE RETURN JUMPDEST PUSH1 0x84 SWAP1 PUSH1 0x20 DUP7 MLOAD SWAP2 PUSH3 0x461BCD PUSH1 0xE5 SHL DUP4 MSTORE DUP3 ADD MSTORE PUSH1 0x25 PUSH1 0x24 DUP3 ADD MSTORE PUSH32 0x45524332303A2064656372656173656420616C6C6F77616E63652062656C6F77 PUSH1 0x44 DUP3 ADD MSTORE PUSH5 0x207A65726F PUSH1 0xD8 SHL PUSH1 0x64 DUP3 ADD MSTORE REVERT JUMPDEST POP SWAP1 CALLVALUE PUSH2 0x13C JUMPI CALLDATASIZE PUSH1 0x3 NOT ADD SLT PUSH2 0x162 JUMPI CALLDATALOAD PUSH1 0x1 PUSH1 0x1 PUSH1 0xA0 SHL SUB DUP2 AND DUP2 SUB PUSH2 0x162 JUMPI PUSH2 0x284 SWAP1 PUSH1 0x24 CALLDATALOAD SWAP1 PUSH2 0xAB2 JUMP JUMPDEST DUP1 RETURN JUMPDEST POP SWAP2 SWAP1 CALLVALUE PUSH2 0x162 JUMPI DUP2 PUSH1 0x3 NOT CALLDATASIZE ADD SLT PUSH2 0x162 JUMPI DUP1 MLOAD SWAP1 DUP3 DUP5 SLOAD PUSH1 0x1 DUP2 DUP2 SHR SWAP1 DUP1 DUP4 AND SWAP3 DUP4 ISZERO PUSH2 0x39D JUMPI JUMPDEST PUSH1 0x20 SWAP4 DUP5 DUP5 LT DUP2 EQ PUSH2 0x38A JUMPI DUP4 DUP9 MSTORE SWAP1 DUP2 ISZERO PUSH2 0x36E JUMPI POP PUSH1 0x1 EQ PUSH2 0x319 JUMPI JUMPDEST POP POP POP DUP3 SWAP1 SUB PUSH1 0x1F ADD PUSH1 0x1F NOT AND DUP3 ADD SWAP3 PUSH8 0xFFFFFFFFFFFFFFFF DUP5 GT DUP4 DUP6 LT OR PUSH2 0x306 JUMPI POP DUP3 SWAP2 DUP3 PUSH2 0x302 SWAP3 MSTORE DUP3 PUSH2 0x73E JUMP JUMPDEST SUB SWAP1 RETURN JUMPDEST PUSH4 0x4E487B71 PUSH1 0xE0 SHL DUP2 MSTORE PUSH1 0x41 DUP6 MSTORE PUSH1 0x24 SWAP1 REVERT JUMPDEST DUP8 DUP8 MSTORE SWAP2 SWAP3 POP DUP6 SWAP2 DUP4 PUSH32 0x8A35ACFBC15FF81A39AE7D344FD709F28E8600B4AA8C65C6B64BFE7FE36BD19B JUMPDEST DUP4 DUP6 LT PUSH2 0x35A JUMPI POP POP POP POP DUP4 ADD ADD CODESIZE DUP1 DUP1 PUSH2 0x2D0 JUMP JUMPDEST DUP1 SLOAD DUP9 DUP7 ADD DUP4 ADD MSTORE SWAP4 ADD SWAP3 DUP5 SWAP1 DUP3 ADD PUSH2 0x344 JUMP JUMPDEST PUSH1 0xFF NOT AND DUP8 DUP6 ADD MSTORE POP POP ISZERO ISZERO PUSH1 0x5 SHL DUP5 ADD ADD SWAP1 POP CODESIZE DUP1 DUP1 PUSH2 0x2D0 JUMP JUMPDEST PUSH4 0x4E487B71 PUSH1 0xE0 SHL DUP10 MSTORE PUSH1 0x22 DUP11 MSTORE PUSH1 0x24 DUP10 REVERT JUMPDEST SWAP2 PUSH1 0x7F AND SWAP2 PUSH2 0x2B1 JUMP JUMPDEST DUP4 DUP3 CALLVALUE PUSH2 0x162 JUMPI PUSH1 0x20 CALLDATASIZE PUSH1 0x3 NOT ADD SLT PUSH2 0x162 JUMPI CALLDATALOAD PUSH1 0xFF DUP2 AND DUP1 SWAP2 SUB PUSH2 0x162 JUMPI PUSH1 0xFF NOT PUSH1 0x5 SLOAD AND OR PUSH1 0x5 SSTORE DUP1 RETURN JUMPDEST POP SWAP1 CALLVALUE PUSH2 0x13C JUMPI CALLDATASIZE PUSH1 0x3 NOT ADD SLT PUSH2 0x162 JUMPI CALLDATALOAD PUSH1 0x1 PUSH1 0x1 PUSH1 0xA0 SHL SUB DUP2 AND DUP2 SUB PUSH2 0x162 JUMPI PUSH2 0x284 SWAP1 PUSH1 0x24 CALLDATALOAD SWAP1 PUSH2 0x409 DUP3 CALLER DUP4 PUSH2 0xA1A JUMP JUMPDEST PUSH2 0xAB2 JUMP JUMPDEST POP CALLVALUE PUSH2 0x13C JUMPI PUSH1 0x20 CALLDATASIZE PUSH1 0x3 NOT ADD SLT PUSH2 0x13C JUMPI CALLDATALOAD PUSH1 0x1 PUSH1 0x1 PUSH1 0xA0 SHL SUB DUP2 AND SWAP1 DUP2 SWAP1 SUB PUSH2 0x13C JUMPI DUP3 DUP3 SWAP2 PUSH1 0x20 SWAP5 MSTORE DUP1 DUP5 MSTORE KECCAK256 SLOAD SWAP1 MLOAD SWAP1 DUP2 MSTORE RETURN JUMPDEST DUP4 DUP3 CALLVALUE PUSH2 0x162 JUMPI PUSH1 0x20 CALLDATASIZE PUSH1 0x3 NOT ADD SLT PUSH2 0x162 JUMPI CALLDATALOAD PUSH1 0x3 DUP2 LT ISZERO PUSH2 0x162 JUMPI PUSH2 0xFF00 PUSH1 0x5 SLOAD SWAP2 PUSH1 0x8 SHL AND SWAP1 PUSH2 0xFF00 NOT AND OR PUSH1 0x5 SSTORE DUP1 RETURN JUMPDEST DUP4 DUP3 CALLVALUE PUSH2 0x162 JUMPI PUSH1 0x20 CALLDATASIZE PUSH1 0x3 NOT ADD SLT PUSH2 0x162 JUMPI PUSH2 0x284 SWAP1 CALLDATALOAD CALLER PUSH2 0xAB2 JUMP JUMPDEST POP CALLVALUE PUSH2 0x13C JUMPI DUP2 PUSH1 0x3 NOT CALLDATASIZE ADD SLT PUSH2 0x13C JUMPI DUP1 CALLDATALOAD PUSH1 0x1 PUSH1 0x1 PUSH1 0xA0 SHL SUB DUP2 AND SWAP3 SWAP1 DUP4 SWAP1 SUB PUSH2 0x138 JUMPI PUSH1 0x24 CALLDATALOAD SWAP2 DUP4 ISZERO PUSH2 0x516 JUMPI POP PUSH1 0x20 DUP3 PUSH32 0xDDF252AD1BE2C89B69C2B068FC378DAA952BA7F163C4A11628F55A4DF523B3EF SWAP3 PUSH2 0x4FC DUP8 SWAP6 PUSH1 0x2 SLOAD PUSH2 0x787 JUMP JUMPDEST PUSH1 0x2 SSTORE DUP6 DUP6 MSTORE DUP5 DUP4 MSTORE DUP1 DUP6 KECCAK256 DUP3 DUP2 SLOAD ADD SWAP1 SSTORE MLOAD SWAP1 DUP2 MSTORE LOG3 DUP1 RETURN JUMPDEST PUSH1 0x20 PUSH1 0x64 SWAP3 MLOAD SWAP2 PUSH3 0x461BCD PUSH1 0xE5 SHL DUP4 MSTORE DUP3 ADD MSTORE PUSH1 0x1F PUSH1 0x24 DUP3 ADD MSTORE PUSH32 0x45524332303A206D696E7420746F20746865207A65726F206164647265737300 PUSH1 0x44 DUP3 ADD MSTORE REVERT JUMPDEST POP CALLVALUE PUSH2 0x13C JUMPI DUP2 PUSH1 0x3 NOT CALLDATASIZE ADD SLT PUSH2 0x13C JUMPI CALLDATALOAD PUSH1 0x1 PUSH1 0x1 PUSH1 0xA0 SHL SUB DUP2 AND DUP1 DUP3 SUB PUSH2 0x138 JUMPI SWAP1 PUSH2 0x5A1 PUSH1 0x20 SWAP5 PUSH2 0x1FD SWAP4 CALLER DUP3 MSTORE PUSH1 0x1 DUP8 MSTORE DUP6 DUP3 KECCAK256 SWAP1 DUP3 MSTORE DUP7 MSTORE DUP5 PUSH1 0x24 CALLDATALOAD SWAP2 KECCAK256 SLOAD PUSH2 0x787 JUMP JUMPDEST SWAP1 CALLER PUSH2 0x918 JUMP JUMPDEST POP CALLVALUE PUSH2 0x13C JUMPI PUSH1 0x60 CALLDATASIZE PUSH1 0x3 NOT ADD SLT PUSH2 0x13C JUMPI CALLDATALOAD SWAP2 PUSH1 0x1 PUSH1 0x1 PUSH1 0xA0 SHL SUB SWAP1 DUP2 DUP5 AND DUP5 SUB PUSH2 0x1A2 JUMPI PUSH1 0x24 CALLDATALOAD SWAP2 DUP3 AND DUP3 SUB PUSH2 0x1A2 JUMPI POP PUSH1 0x20 SWAP3 PUSH2 0x1FD SWAP2 PUSH1 0x44 CALLDATALOAD SWAP2 PUSH2 0x5F1 DUP4 CALLER DUP4 PUSH2 0xA1A JUMP JUMPDEST PUSH2 0x7AA JUMP JUMPDEST POP POP CALLVALUE PUSH2 0x162 JUMPI DUP2 PUSH1 0x3 NOT CALLDATASIZE ADD SLT PUSH2 0x162 JUMPI PUSH1 0x20 SWAP1 PUSH1 0x2 SLOAD SWAP1 MLOAD SWAP1 DUP2 MSTORE RETURN JUMPDEST POP CALLVALUE PUSH2 0x13C JUMPI DUP2 PUSH1 0x3 NOT CALLDATASIZE ADD SLT PUSH2 0x13C JUMPI CALLDATALOAD SWAP2 PUSH1 0x1 PUSH1 0x1 PUSH1 0xA0 SHL SUB DUP4 AND DUP4 SUB PUSH2 0x1A2 JUMPI POP PUSH2 0x1FD PUSH1 0x20 SWAP3 PUSH1 0x24 CALLDATALOAD SWAP1 CALLER PUSH2 0x918 JUMP JUMPDEST DUP5 SWAP2 POP DUP4 CALLVALUE PUSH2 0x13C JUMPI DUP3 PUSH1 0x3 NOT CALLDATASIZE ADD SLT PUSH2 0x13C JUMPI DUP3 PUSH1 0x3 SLOAD PUSH1 0x1 DUP2 DUP2 SHR SWAP1 DUP1 DUP4 AND SWAP3 DUP4 ISZERO PUSH2 0x734 JUMPI JUMPDEST PUSH1 0x20 SWAP4 DUP5 DUP5 LT DUP2 EQ PUSH2 0x38A JUMPI DUP4 DUP9 MSTORE SWAP1 DUP2 ISZERO PUSH2 0x718 JUMPI POP PUSH1 0x1 EQ PUSH2 0x6C2 JUMPI POP POP POP DUP3 SWAP1 SUB PUSH1 0x1F ADD PUSH1 0x1F NOT AND DUP3 ADD SWAP3 PUSH8 0xFFFFFFFFFFFFFFFF DUP5 GT DUP4 DUP6 LT OR PUSH2 0x306 JUMPI POP DUP3 SWAP2 DUP3 PUSH2 0x302 SWAP3 MSTORE DUP3 PUSH2 0x73E JUMP JUMPDEST PUSH1 0x3 DUP8 MSTORE SWAP2 SWAP3 POP DUP6 SWAP2 DUP4 PUSH32 0xC2575A0E9E593C00F959F8C92F12DB2869C3395A3B0502D05E2516446F71F85B JUMPDEST DUP4 DUP6 LT PUSH2 0x704 JUMPI POP POP POP POP DUP4 ADD ADD DUP6 DUP1 DUP1 PUSH2 0x2D0 JUMP JUMPDEST DUP1 SLOAD DUP9 DUP7 ADD DUP4 ADD MSTORE SWAP4 ADD SWAP3 DUP5 SWAP1 DUP3 ADD PUSH2 0x6EE JUMP JUMPDEST PUSH1 0xFF NOT AND DUP8 DUP6 ADD MSTORE POP POP ISZERO ISZERO PUSH1 0x5 SHL DUP5 ADD ADD SWAP1 POP DUP6 DUP1 DUP1 PUSH2 0x2D0 JUMP JUMPDEST SWAP2 PUSH1 0x7F AND SWAP2 PUSH2 0x672 JUMP JUMPDEST PUSH1 0x20 DUP1 DUP3 MSTORE DUP3 MLOAD DUP2 DUP4 ADD DUP2 SWAP1 MSTORE SWAP1 SWAP4 SWAP3 PUSH1 0x0 JUMPDEST DUP3 DUP2 LT PUSH2 0x773 JUMPI POP POP PUSH1 0x40 SWAP3 SWAP4 POP PUSH1 0x0 DUP4 DUP3 DUP5 ADD ADD MSTORE PUSH1 0x1F DUP1 NOT SWAP2 ADD AND ADD ADD SWAP1 JUMP JUMPDEST DUP2 DUP2 ADD DUP7 ADD MLOAD DUP5 DUP3 ADD PUSH1 0x40 ADD MSTORE DUP6 ADD PUSH2 0x751 JUMP JUMPDEST SWAP2 SWAP1 DUP3 ADD DUP1 SWAP3 GT PUSH2 0x794 JUMPI JUMP JUMPDEST PUSH4 0x4E487B71 PUSH1 0xE0 SHL PUSH1 0x0 MSTORE PUSH1 0x11 PUSH1 0x4 MSTORE PUSH1 0x24 PUSH1 0x0 REVERT JUMPDEST PUSH1 0x1 PUSH1 0x1 PUSH1 0xA0 SHL SUB SWAP1 DUP2 AND SWAP2 DUP3 ISZERO PUSH2 0x8C5 JUMPI AND SWAP2 DUP3 ISZERO PUSH2 0x874 JUMPI PUSH1 0x0 DUP3 DUP2 MSTORE DUP1 PUSH1 0x20 MSTORE PUSH1 0x40 DUP2 KECCAK256 SLOAD SWAP2 DUP1 DUP4 LT PUSH2 0x820 JUMPI PUSH1 0x40 DUP3 DUP3 PUSH32 0xDDF252AD1BE2C89B69C2B068FC378DAA952BA7F163C4A11628F55A4DF523B3EF SWAP6 DUP8 PUSH1 0x20 SWAP7 MSTORE DUP3 DUP7 MSTORE SUB DUP3 DUP3 KECCAK256 SSTORE DUP7 DUP2 MSTORE KECCAK256 DUP2 DUP2 SLOAD ADD SWAP1 SSTORE PUSH1 0x40 MLOAD SWAP1 DUP2 MSTORE LOG3 JUMP JUMPDEST PUSH1 0x40 MLOAD PUSH3 0x461BCD PUSH1 0xE5 SHL DUP2 MSTORE PUSH1 0x20 PUSH1 0x4 DUP3 ADD MSTORE PUSH1 0x26 PUSH1 0x24 DUP3 ADD MSTORE PUSH32 0x45524332303A207472616E7366657220616D6F756E7420657863656564732062 PUSH1 0x44 DUP3 ADD MSTORE PUSH6 0x616C616E6365 PUSH1 0xD0 SHL PUSH1 0x64 DUP3 ADD MSTORE PUSH1 0x84 SWAP1 REVERT JUMPDEST PUSH1 0x40 MLOAD PUSH3 0x461BCD PUSH1 0xE5 SHL DUP2 MSTORE PUSH1 0x20 PUSH1 0x4 DUP3 ADD MSTORE PUSH1 0x23 PUSH1 0x24 DUP3 ADD MSTORE PUSH32 0x45524332303A207472616E7366657220746F20746865207A65726F2061646472 PUSH1 0x44 DUP3 ADD MSTORE PUSH3 0x657373 PUSH1 0xE8 SHL PUSH1 0x64 DUP3 ADD MSTORE PUSH1 0x84 SWAP1 REVERT JUMPDEST PUSH1 0x40 MLOAD PUSH3 0x461BCD PUSH1 0xE5 SHL DUP2 MSTORE PUSH1 0x20 PUSH1 0x4 DUP3 ADD MSTORE PUSH1 0x25 PUSH1 0x24 DUP3 ADD MSTORE PUSH32 0x45524332303A207472616E736665722066726F6D20746865207A65726F206164 PUSH1 0x44 DUP3 ADD MSTORE PUSH5 0x6472657373 PUSH1 0xD8 SHL PUSH1 0x64 DUP3 ADD MSTORE PUSH1 0x84 SWAP1 REVERT JUMPDEST PUSH1 0x1 PUSH1 0x1 PUSH1 0xA0 SHL SUB SWAP1 DUP2 AND SWAP2 DUP3 ISZERO PUSH2 0x9C9 JUMPI AND SWAP2 DUP3 ISZERO PUSH2 0x979 JUMPI PUSH1 0x20 PUSH32 0x8C5BE1E5EBEC7D5BD14F71427D1E84F3DD0314C0F7B2291E5B200AC8C7C3B925 SWAP2 DUP4 PUSH1 0x0 MSTORE PUSH1 0x1 DUP3 MSTORE PUSH1 0x40 PUSH1 0x0 KECCAK256 DUP6 PUSH1 0x0 MSTORE DUP3 MSTORE DUP1 PUSH1 0x40 PUSH1 0x0 KECCAK256 SSTORE PUSH1 0x40 MLOAD SWAP1 DUP2 MSTORE LOG3 JUMP JUMPDEST PUSH1 0x40 MLOAD PUSH3 0x461BCD PUSH1 0xE5 SHL DUP2 MSTORE PUSH1 0x20 PUSH1 0x4 DUP3 ADD MSTORE PUSH1 0x22 PUSH1 0x24 DUP3 ADD MSTORE PUSH32 0x45524332303A20617070726F766520746F20746865207A65726F206164647265 PUSH1 0x44 DUP3 ADD MSTORE PUSH2 0x7373 PUSH1 0xF0 SHL PUSH1 0x64 DUP3 ADD MSTORE PUSH1 0x84 SWAP1 REVERT JUMPDEST PUSH1 0x40 MLOAD PUSH3 0x461BCD PUSH1 0xE5 SHL DUP2 MSTORE PUSH1 0x20 PUSH1 0x4 DUP3 ADD MSTORE PUSH1 0x24 DUP1 DUP3 ADD MSTORE PUSH32 0x45524332303A20617070726F76652066726F6D20746865207A65726F20616464 PUSH1 0x44 DUP3 ADD MSTORE PUSH4 0x72657373 PUSH1 0xE0 SHL PUSH1 0x64 DUP3 ADD MSTORE PUSH1 0x84 SWAP1 REVERT JUMPDEST SWAP1 PUSH1 0x1 DUP1 PUSH1 0xA0 SHL SUB DUP1 DUP4 AND PUSH1 0x0 MSTORE PUSH1 0x1 PUSH1 0x20 MSTORE PUSH1 0x40 PUSH1 0x0 KECCAK256 SWAP1 DUP3 AND PUSH1 0x0 MSTORE PUSH1 0x20 MSTORE PUSH1 0x40 PUSH1 0x0 KECCAK256 SLOAD SWAP3 PUSH1 0x0 NOT DUP5 SUB PUSH2 0xA52 JUMPI JUMPDEST POP POP POP POP JUMP JUMPDEST DUP1 DUP5 LT PUSH2 0xA6D JUMPI PUSH2 0xA64 SWAP4 SUB SWAP2 PUSH2 0x918 JUMP JUMPDEST CODESIZE DUP1 DUP1 DUP1 PUSH2 0xA4C JUMP JUMPDEST PUSH1 0x40 MLOAD PUSH3 0x461BCD PUSH1 0xE5 SHL DUP2 MSTORE PUSH1 0x20 PUSH1 0x4 DUP3 ADD MSTORE PUSH1 0x1D PUSH1 0x24 DUP3 ADD MSTORE PUSH32 0x45524332303A20696E73756666696369656E7420616C6C6F77616E6365000000 PUSH1 0x44 DUP3 ADD MSTORE PUSH1 0x64 SWAP1 REVERT JUMPDEST PUSH1 0x1 PUSH1 0x1 PUSH1 0xA0 SHL SUB AND DUP1 ISZERO PUSH2 0xB6A JUMPI PUSH1 0x0 SWAP2 DUP2 DUP4 MSTORE DUP3 PUSH1 0x20 MSTORE PUSH1 0x40 DUP4 KECCAK256 SLOAD DUP2 DUP2 LT PUSH2 0xB1A JUMPI DUP2 PUSH32 0xDDF252AD1BE2C89B69C2B068FC378DAA952BA7F163C4A11628F55A4DF523B3EF SWAP3 PUSH1 0x20 SWAP3 DUP6 DUP8 MSTORE DUP7 DUP5 MSTORE SUB PUSH1 0x40 DUP7 KECCAK256 SSTORE DUP1 PUSH1 0x2 SLOAD SUB PUSH1 0x2 SSTORE PUSH1 0x40 MLOAD SWAP1 DUP2 MSTORE LOG3 JUMP JUMPDEST PUSH1 0x40 MLOAD PUSH3 0x461BCD PUSH1 0xE5 SHL DUP2 MSTORE PUSH1 0x20 PUSH1 0x4 DUP3 ADD MSTORE PUSH1 0x22 PUSH1 0x24 DUP3 ADD MSTORE PUSH32 0x45524332303A206275726E20616D6F756E7420657863656564732062616C616E PUSH1 0x44 DUP3 ADD MSTORE PUSH2 0x6365 PUSH1 0xF0 SHL PUSH1 0x64 DUP3 ADD MSTORE PUSH1 0x84 SWAP1 REVERT JUMPDEST PUSH1 0x40 MLOAD PUSH3 0x461BCD PUSH1 0xE5 SHL DUP2 MSTORE PUSH1 0x20 PUSH1 0x4 DUP3 ADD MSTORE PUSH1 0x21 PUSH1 0x24 DUP3 ADD MSTORE PUSH32 0x45524332303A206275726E2066726F6D20746865207A65726F20616464726573 PUSH1 0x44 DUP3 ADD MSTORE PUSH1 0x73 PUSH1 0xF8 SHL PUSH1 0x64 DUP3 ADD MSTORE PUSH1 0x84 SWAP1 REVERT JUMPDEST SWAP1 PUSH1 0xFF PUSH1 0x5 SLOAD PUSH1 0x8 SHR AND PUSH1 0x3 DUP2 LT ISZERO PUSH2 0xBF7 JUMPI PUSH1 0x1 DUP2 EQ PUSH2 0xBEF JUMPI PUSH1 0x2 EQ PUSH2 0xBEA JUMPI PUSH2 0xBE5 SWAP2 CALLER PUSH2 0x7AA JUMP JUMPDEST PUSH1 0x1 SWAP1 JUMP JUMPDEST PUSH1 0x0 DUP1 REVERT JUMPDEST POP POP POP PUSH1 0x0 SWAP1 JUMP JUMPDEST PUSH4 0x4E487B71 PUSH1 0xE0 SHL PUSH1 0x0 MSTORE PUSH1 0x21 PUSH1 0x4 MSTORE PUSH1 0x24 PUSH1 0x0 REVERT INVALID LOG2 PUSH5 0x6970667358 0x22 SLT KECCAK256 0xA8 SWAP12 DUP15 0xB2 SDIV 0xFC LOG4 0xC3 0xB7 LOG0 JUMP 0x4B GASPRICE REVERT 0x2D PUSH8 0xB29AEFC0CBAC4ACE 0xF8 PUSH21 0xD11A8D593A7264736F6C6343000814003360803461 STOP 0x5D JUMPI PUSH1 0x1F PUSH2 0x19B CODESIZE DUP2 SWAP1 SUB SWAP2 DUP3 ADD PUSH1 0x1F NOT AND DUP4 ADD SWAP2 PUSH1 0x1 PUSH1 0x1 PUSH1 0x40 SHL SUB DUP4 GT DUP5 DUP5 LT OR PUSH2 0x62 JUMPI DUP1 DUP5 SWAP3 PUSH1 0x20 SWAP5 PUSH1 0x40 MSTORE DUP4 CODECOPY DUP2 ADD SUB SLT PUSH2 0x5D JUMPI MLOAD PUSH1 0x0 SSTORE PUSH1 0x1 PUSH1 0xFF NOT DUP2 SLOAD AND OR PUSH1 0x1 SSTORE PUSH1 0x40 MLOAD PUSH2 0x122 SWAP1 DUP2 PUSH2 0x79 DUP3 CODECOPY RETURN JUMPDEST PUSH1 0x0 DUP1 REVERT JUMPDEST PUSH4 0x4E487B71 PUSH1 0xE0 SHL PUSH1 0x0 MSTORE PUSH1 0x41 PUSH1 0x4 MSTORE PUSH1 0x24 PUSH1 0x0 REVERT INVALID PUSH1 0x80 DUP1 PUSH1 0x40 MSTORE PUSH1 0x4 CALLDATASIZE LT ISZERO PUSH1 0x12 JUMPI PUSH1 0x0 DUP1 REVERT JUMPDEST PUSH1 0x0 SWAP1 DUP2 CALLDATALOAD PUSH1 0xE0 SHR SWAP1 DUP2 PUSH4 0x2A3F4389 EQ PUSH1 0xD0 JUMPI POP DUP1 PUSH4 0x32145F90 EQ PUSH1 0xB8 JUMPI DUP1 PUSH4 0x5095E3D9 EQ PUSH1 0x9C JUMPI DUP1 PUSH4 0x59E02DD7 EQ PUSH1 0x75 JUMPI PUSH4 0xB689D5AC EQ PUSH1 0x52 JUMPI PUSH1 0x0 DUP1 REVERT JUMPDEST CALLVALUE PUSH1 0x72 JUMPI DUP1 PUSH1 0x3 NOT CALLDATASIZE ADD SLT PUSH1 0x72 JUMPI PUSH1 0x20 PUSH1 0xFF PUSH1 0x1 SLOAD AND PUSH1 0x40 MLOAD SWAP1 ISZERO ISZERO DUP2 MSTORE RETURN JUMPDEST DUP1 REVERT JUMPDEST POP CALLVALUE PUSH1 0x72 JUMPI DUP1 PUSH1 0x3 NOT CALLDATASIZE ADD SLT PUSH1 0x72 JUMPI PUSH1 0x40 SWAP1 SLOAD PUSH1 0xFF PUSH1 0x1 SLOAD AND DUP3 MLOAD SWAP2 DUP3 MSTORE ISZERO ISZERO PUSH1 0x20 DUP3 ADD MSTORE RETURN JUMPDEST POP CALLVALUE PUSH1 0x72 JUMPI DUP1 PUSH1 0x3 NOT CALLDATASIZE ADD SLT PUSH1 0x72 JUMPI PUSH1 0xFF NOT PUSH1 0x1 SLOAD AND PUSH1 0x1 SSTORE DUP1 RETURN JUMPDEST POP CALLVALUE PUSH1 0x72 JUMPI PUSH1 0x20 CALLDATASIZE PUSH1 0x3 NOT ADD SLT PUSH1 0x72 JUMPI PUSH1 0x4 CALLDATALOAD DUP2 SSTORE DUP1 RETURN JUMPDEST SWAP1 POP CALLVALUE PUSH1 0xE8 JUMPI DUP2 PUSH1 0x3 NOT CALLDATASIZE ADD SLT PUSH1 0xE8 JUMPI PUSH1 0x20 SWAP2 SLOAD DUP2 MSTORE RETURN JUMPDEST POP DUP1 REVERT INVALID LOG2 PUSH5 0x6970667358 0x22 SLT KECCAK256 PUSH19 0xD2893E184264A56256407BB10B2744402AF538 SMOD 0xDB 0xE6 0xD8 0xCA 0xC8 0xF7 PUSH22 0x960D5C7864736F6C6343000814003360808060405234 PUSH2 0x23 JUMPI PUSH1 0x1 PUSH1 0xFF NOT PUSH1 0x0 SLOAD AND OR PUSH1 0x0 SSTORE PUSH2 0x19A SWAP1 DUP2 PUSH2 0x29 DUP3 CODECOPY RETURN JUMPDEST PUSH1 0x0 DUP1 REVERT INVALID PUSH1 0x80 DUP1 PUSH1 0x40 MSTORE PUSH1 0x4 DUP1 CALLDATASIZE LT ISZERO PUSH2 0x14 JUMPI PUSH1 0x0 DUP1 REVERT JUMPDEST PUSH1 0x0 SWAP2 DUP3 CALLDATALOAD PUSH1 0xE0 SHR SWAP1 DUP2 PUSH4 0x57E6C2F4 EQ PUSH2 0x145 JUMPI POP DUP3 DUP2 PUSH4 0x8C777E82 EQ PUSH2 0xB5 JUMPI POP DUP1 PUSH4 0x9E0A8E09 EQ PUSH2 0x89 JUMPI PUSH4 0xD994D6D5 EQ PUSH2 0x50 JUMPI PUSH1 0x0 DUP1 REVERT JUMPDEST CALLVALUE PUSH2 0x85 JUMPI PUSH1 0x20 CALLDATASIZE PUSH1 0x3 NOT ADD SLT PUSH2 0x85 JUMPI CALLDATALOAD PUSH1 0x1 PUSH1 0x1 PUSH1 0xA0 SHL SUB DUP2 AND SUB PUSH2 0x82 JUMPI PUSH1 0xFF PUSH1 0x20 SWAP2 SLOAD AND PUSH1 0x40 MLOAD SWAP1 ISZERO ISZERO DUP2 MSTORE RETURN JUMPDEST DUP1 REVERT JUMPDEST POP DUP1 REVERT JUMPDEST POP CALLVALUE PUSH2 0x85 JUMPI PUSH1 0x20 CALLDATASIZE PUSH1 0x3 NOT ADD SLT PUSH2 0x85 JUMPI CALLDATALOAD DUP1 ISZERO ISZERO DUP1 SWAP2 SUB PUSH2 0x85 JUMPI PUSH1 0xFF DUP1 NOT DUP4 SLOAD AND SWAP2 AND OR DUP2 SSTORE DUP1 RETURN JUMPDEST DUP1 DUP4 CALLVALUE PUSH2 0x142 JUMPI PUSH1 0x20 CALLDATASIZE PUSH1 0x3 NOT ADD SLT PUSH2 0x142 JUMPI DUP1 CALLDATALOAD PUSH1 0x1 PUSH1 0x1 PUSH1 0xA0 SHL SUB DUP2 AND SWAP1 DUP2 SWAP1 SUB PUSH2 0x13E JUMPI DUP1 EXTCODESIZE ISZERO PUSH2 0x13E JUMPI DUP3 SWAP1 DUP3 PUSH1 0x40 MLOAD DUP1 SWAP6 DUP2 SWAP4 PUSH4 0x18518655 PUSH1 0xE2 SHL DUP4 MSTORE GAS CALL DUP1 ISZERO PUSH2 0x133 JUMPI PUSH2 0x107 JUMPI DUP3 DUP1 RETURN JUMPDEST PUSH8 0xFFFFFFFFFFFFFFFF DUP3 GT PUSH2 0x120 JUMPI POP PUSH1 0x40 MSTORE DUP2 DUP1 DUP3 DUP1 RETURN JUMPDEST PUSH4 0x4E487B71 PUSH1 0xE0 SHL DUP4 MSTORE PUSH1 0x41 SWAP1 MSTORE PUSH1 0x24 DUP3 REVERT JUMPDEST PUSH1 0x40 MLOAD RETURNDATASIZE DUP6 DUP3 RETURNDATACOPY RETURNDATASIZE SWAP1 REVERT JUMPDEST POP POP REVERT JUMPDEST POP REVERT JUMPDEST DUP4 SWAP1 CALLVALUE PUSH2 0x85 JUMPI DUP2 PUSH1 0x3 NOT CALLDATASIZE ADD SLT PUSH2 0x85 JUMPI PUSH1 0xFF PUSH1 0x20 SWAP3 SLOAD AND ISZERO ISZERO DUP2 MSTORE RETURN INVALID LOG2 PUSH5 0x6970667358 0x22 SLT KECCAK256 0xDB ORIGIN PUSH1 0x8F 0x1F PUSH13 0xB45E0039AB366EC4B054A5B78A 0xC7 0xE1 DUP7 0xDA DIFFICULTY 0xAE 0xE7 ADD 0x49 JUMPDEST 0xD2 0x2F KECCAK256 PUSH5 0x736F6C6343 STOP ADDMOD EQ STOP CALLER PUSH1 0xA0 DUP1 PUSH1 0x40 MSTORE CALLVALUE PUSH3 0xE1 JUMPI ADDRESS PUSH1 0x80 MSTORE PUSH1 0x0 SLOAD SWAP1 PUSH1 0xFF DUP3 PUSH1 0x8 SHR AND PUSH3 0x8F JUMPI POP PUSH1 0xFF DUP1 DUP3 AND SUB PUSH3 0x53 JUMPI JUMPDEST PUSH1 0x40 MLOAD PUSH2 0x4AC6 SWAP1 DUP2 PUSH3 0xE7 DUP3 CODECOPY PUSH1 0x80 MLOAD DUP2 DUP2 DUP2 PUSH2 0xFE7 ADD MSTORE DUP2 DUP2 PUSH2 0x1156 ADD MSTORE PUSH2 0x21AC ADD MSTORE RETURN JUMPDEST PUSH1 0xFF SWAP1 DUP2 NOT AND OR PUSH1 0x0 SSTORE PUSH32 0x7F26B83FF96E1F2B6A682F133852F6798A09C465DA95921460CEFB3847402498 PUSH1 0x20 PUSH1 0x40 MLOAD PUSH1 0xFF DUP2 MSTORE LOG1 CODESIZE PUSH3 0x2C JUMP JUMPDEST PUSH3 0x461BCD PUSH1 0xE5 SHL DUP2 MSTORE PUSH1 0x20 PUSH1 0x4 DUP3 ADD MSTORE PUSH1 0x27 PUSH1 0x24 DUP3 ADD MSTORE PUSH32 0x496E697469616C697A61626C653A20636F6E747261637420697320696E697469 PUSH1 0x44 DUP3 ADD MSTORE PUSH7 0x616C697A696E67 PUSH1 0xC8 SHL PUSH1 0x64 DUP3 ADD MSTORE PUSH1 0x84 SWAP1 REVERT JUMPDEST PUSH1 0x0 DUP1 REVERT INVALID PUSH1 0x80 PUSH1 0x40 MSTORE PUSH1 0x4 CALLDATASIZE LT ISZERO PUSH2 0x12 JUMPI PUSH1 0x0 DUP1 REVERT JUMPDEST PUSH1 0x0 CALLDATALOAD PUSH1 0xE0 SHR DUP1 PUSH3 0xC6E88E EQ PUSH2 0x269D JUMPI DUP1 PUSH4 0x1FFC9A7 EQ PUSH2 0x2647 JUMPI DUP1 PUSH4 0xC340A24 EQ PUSH2 0x261E JUMPI DUP1 PUSH4 0x1826EBF0 EQ PUSH2 0x25BA JUMPI DUP1 PUSH4 0x1A0C5440 EQ PUSH2 0x254C JUMPI DUP1 PUSH4 0x24524EA1 EQ PUSH2 0x24F6 JUMPI DUP1 PUSH4 0x248A9CA3 EQ PUSH2 0x24C6 JUMPI DUP1 PUSH4 0x2B994849 EQ PUSH2 0x24A7 JUMPI DUP1 PUSH4 0x2D88AF4A EQ PUSH2 0x2452 JUMPI DUP1 PUSH4 0x2F2FF15D EQ PUSH2 0x2419 JUMPI DUP1 PUSH4 0x34975A41 EQ PUSH2 0x22A7 JUMPI DUP1 PUSH4 0x36568ABE EQ PUSH2 0x2213 JUMPI DUP1 PUSH4 0x3659CFE6 EQ PUSH2 0x217A JUMPI DUP1 PUSH4 0x3BB4B05C EQ PUSH2 0x2137 JUMPI DUP1 PUSH4 0x3CBCF4C4 EQ PUSH2 0x2112 JUMPI DUP1 PUSH4 0x3F4BA83A EQ PUSH2 0x2098 JUMPI DUP1 PUSH4 0x435C7E37 EQ PUSH2 0x200E JUMPI DUP1 PUSH4 0x47D8496A EQ PUSH2 0x1F3D JUMPI DUP1 PUSH4 0x4981D04E EQ PUSH2 0x1EFA JUMPI DUP1 PUSH4 0x4B5A9E3D EQ PUSH2 0x1EC6 JUMPI DUP1 PUSH4 0x4B64E492 EQ PUSH2 0x11B9 JUMPI DUP1 PUSH4 0x4F1EF286 EQ PUSH2 0x10CF JUMPI DUP1 PUSH4 0x5210570C EQ PUSH2 0x10AA JUMPI DUP1 PUSH4 0x52D1902D EQ PUSH2 0xFD4 JUMPI DUP1 PUSH4 0x5C817AA3 EQ PUSH2 0xF70 JUMPI DUP1 PUSH4 0x5C975ABB EQ PUSH2 0xF4A JUMPI DUP1 PUSH4 0x5EE1D2BB EQ PUSH2 0xF00 JUMPI DUP1 PUSH4 0x681FE70C EQ PUSH2 0xEDC JUMPI DUP1 PUSH4 0x68274357 EQ PUSH2 0xEB4 JUMPI DUP1 PUSH4 0x6B59C22F EQ PUSH2 0xDE3 JUMPI DUP1 PUSH4 0x6B763330 EQ PUSH2 0xD7F JUMPI DUP1 PUSH4 0x73E3D086 EQ PUSH2 0xD60 JUMPI DUP1 PUSH4 0x7C50B7E4 EQ PUSH2 0xD1C JUMPI DUP1 PUSH4 0x7E81A821 EQ PUSH2 0xC4B JUMPI DUP1 PUSH4 0x8456CB59 EQ PUSH2 0xBB5 JUMPI DUP1 PUSH4 0x8A4737AB EQ PUSH2 0xB56 JUMPI DUP1 PUSH4 0x8B20076C EQ PUSH2 0xAF7 JUMPI DUP1 PUSH4 0x8E7E8189 EQ PUSH2 0xACF JUMPI DUP1 PUSH4 0x91D14854 EQ PUSH2 0xA7C JUMPI DUP1 PUSH4 0x9FD0506D EQ PUSH2 0xA4F JUMPI DUP1 PUSH4 0xA217FDDF EQ PUSH2 0xA33 JUMPI DUP1 PUSH4 0xAD16C2DE EQ PUSH2 0x9C5 JUMPI DUP1 PUSH4 0xBB4872DE EQ PUSH2 0x9A2 JUMPI DUP1 PUSH4 0xBBE720D9 EQ PUSH2 0x92D JUMPI DUP1 PUSH4 0xC84D8BB6 EQ PUSH2 0x85C JUMPI DUP1 PUSH4 0xCAEB12B6 EQ PUSH2 0x832 JUMPI DUP1 PUSH4 0xD547741F EQ PUSH2 0x7F7 JUMPI DUP1 PUSH4 0xDB901477 EQ PUSH2 0x5D6 JUMPI DUP1 PUSH4 0xDBB0B684 EQ PUSH2 0x5B4 JUMPI DUP1 PUSH4 0xE4C0AAF4 EQ PUSH2 0x56E JUMPI DUP1 PUSH4 0xE4E1B729 EQ PUSH2 0x49D JUMPI DUP1 PUSH4 0xE97A4D63 EQ PUSH2 0x3CC JUMPI DUP1 PUSH4 0xFA91A9A5 EQ PUSH2 0x2D5 JUMPI PUSH4 0xFB8AAFB8 EQ PUSH2 0x26D JUMPI PUSH1 0x0 DUP1 REVERT JUMPDEST CALLVALUE PUSH2 0x2D0 JUMPI PUSH1 0x20 CALLDATASIZE PUSH1 0x3 NOT ADD SLT PUSH2 0x2D0 JUMPI PUSH1 0x4 CALLDATALOAD PUSH1 0x0 MSTORE PUSH2 0x262 PUSH1 0x20 MSTORE PUSH1 0x40 PUSH1 0x0 KECCAK256 PUSH1 0x1 DUP1 PUSH1 0xA0 SHL SUB PUSH2 0x2CC DUP2 DUP4 SLOAD AND SWAP2 PUSH1 0x1 DUP5 ADD SLOAD SWAP4 PUSH1 0x2 DUP2 ADD SLOAD SWAP2 DUP1 PUSH1 0x3 DUP4 ADD SLOAD AND SWAP1 PUSH1 0x5 DUP2 PUSH1 0x4 DUP6 ADD SLOAD AND SWAP4 ADD SLOAD AND SWAP3 PUSH1 0x40 MLOAD SWAP7 DUP8 SWAP7 DUP8 PUSH2 0x281D JUMP JUMPDEST SUB SWAP1 RETURN JUMPDEST PUSH1 0x0 DUP1 REVERT JUMPDEST PUSH1 0xA0 CALLDATASIZE PUSH1 0x3 NOT ADD SLT PUSH2 0x2D0 JUMPI PUSH2 0x2E9 PUSH2 0x2E23 JUMP JUMPDEST PUSH2 0x300 PUSH1 0x0 DUP1 MLOAD PUSH1 0x20 PUSH2 0x4A71 DUP4 CODECOPY DUP2 MLOAD SWAP2 MSTORE PUSH2 0x2EA4 JUMP JUMPDEST PUSH2 0x316 PUSH2 0x310 PUSH1 0x2 PUSH2 0x1F7 PUSH2 0x27B1 JUMP JUMPDEST SLOAD PUSH2 0x48B2 JUMP JUMPDEST PUSH2 0x25D DUP1 SLOAD PUSH1 0x40 MLOAD SWAP2 PUSH2 0x32A PUSH1 0x40 DUP5 PUSH2 0x27C9 JUMP JUMPDEST PUSH1 0x2 DUP4 MSTORE PUSH1 0x20 DUP4 ADD SWAP3 PUSH1 0x1 DUP1 PUSH1 0xF8 SHL SUB NUMBER AND DUP5 MSTORE DUP3 PUSH1 0x0 MSTORE PUSH2 0x268 PUSH1 0x20 MSTORE PUSH1 0x40 PUSH1 0x0 KECCAK256 SWAP1 MLOAD PUSH1 0xA DUP2 LT ISZERO PUSH2 0x3B6 JUMPI PUSH1 0xFF PUSH1 0x20 SWAP6 DUP2 NOT SWAP1 MLOAD PUSH1 0x8 SHL AND SWAP2 AND OR SWAP1 SSTORE DUP2 PUSH1 0x0 MSTORE PUSH2 0x261 DUP4 MSTORE PUSH2 0x382 PUSH1 0x4 PUSH1 0x40 PUSH1 0x0 KECCAK256 PUSH2 0x4668 JUMP JUMPDEST PUSH1 0x40 MLOAD DUP3 DUP2 MSTORE PUSH1 0x2 DUP5 DUP3 ADD MSTORE PUSH1 0x0 DUP1 MLOAD PUSH1 0x20 PUSH2 0x4A51 DUP4 CODECOPY DUP2 MLOAD SWAP2 MSTORE PUSH1 0x40 CALLER SWAP3 LOG2 PUSH2 0x3AC DUP2 SLOAD PUSH2 0x46DB JUMP JUMPDEST SWAP1 SSTORE PUSH1 0x40 MLOAD SWAP1 DUP2 MSTORE RETURN JUMPDEST PUSH4 0x4E487B71 PUSH1 0xE0 SHL PUSH1 0x0 MSTORE PUSH1 0x21 PUSH1 0x4 MSTORE PUSH1 0x24 PUSH1 0x0 REVERT JUMPDEST PUSH1 0xA0 CALLDATASIZE PUSH1 0x3 NOT ADD SLT PUSH2 0x2D0 JUMPI PUSH2 0x3E0 PUSH2 0x2E23 JUMP JUMPDEST PUSH2 0x3F7 PUSH1 0x0 DUP1 MLOAD PUSH1 0x20 PUSH2 0x4A71 DUP4 CODECOPY DUP2 MLOAD SWAP2 MSTORE PUSH2 0x2EA4 JUMP JUMPDEST PUSH2 0x407 PUSH2 0x310 PUSH1 0x1 PUSH2 0x1F7 PUSH2 0x27B1 JUMP JUMPDEST PUSH2 0x25D DUP1 SLOAD PUSH1 0x40 MLOAD SWAP2 PUSH2 0x41B PUSH1 0x40 DUP5 PUSH2 0x27C9 JUMP JUMPDEST PUSH1 0x1 DUP4 MSTORE PUSH1 0x20 DUP4 ADD SWAP3 PUSH1 0x1 DUP1 PUSH1 0xF8 SHL SUB NUMBER AND DUP5 MSTORE DUP3 PUSH1 0x0 MSTORE PUSH2 0x268 PUSH1 0x20 MSTORE PUSH1 0x40 PUSH1 0x0 KECCAK256 SWAP1 MLOAD PUSH1 0xA DUP2 LT ISZERO PUSH2 0x3B6 JUMPI PUSH1 0xFF PUSH1 0x20 SWAP6 DUP2 NOT SWAP1 MLOAD PUSH1 0x8 SHL AND SWAP2 AND OR SWAP1 SSTORE DUP2 PUSH1 0x0 MSTORE PUSH2 0x25F DUP4 MSTORE PUSH2 0x473 PUSH1 0x4 PUSH1 0x40 PUSH1 0x0 KECCAK256 PUSH2 0x4668 JUMP JUMPDEST PUSH1 0x40 MLOAD DUP3 DUP2 MSTORE PUSH1 0x1 DUP5 DUP3 ADD MSTORE PUSH1 0x0 DUP1 MLOAD PUSH1 0x20 PUSH2 0x4A51 DUP4 CODECOPY DUP2 MLOAD SWAP2 MSTORE PUSH1 0x40 CALLER SWAP3 LOG2 PUSH2 0x3AC DUP2 SLOAD PUSH2 0x46DB JUMP JUMPDEST PUSH1 0xE0 CALLDATASIZE PUSH1 0x3 NOT ADD SLT PUSH2 0x2D0 JUMPI PUSH2 0x4B1 PUSH2 0x2E23 JUMP JUMPDEST PUSH2 0x4C8 PUSH1 0x0 DUP1 MLOAD PUSH1 0x20 PUSH2 0x4A71 DUP4 CODECOPY DUP2 MLOAD SWAP2 MSTORE PUSH2 0x2EA4 JUMP JUMPDEST PUSH2 0x4D8 PUSH2 0x310 PUSH1 0x6 PUSH2 0x1F7 PUSH2 0x27B1 JUMP JUMPDEST PUSH2 0x25D DUP1 SLOAD PUSH1 0x40 MLOAD SWAP2 PUSH2 0x4EC PUSH1 0x40 DUP5 PUSH2 0x27C9 JUMP JUMPDEST PUSH1 0x6 DUP4 MSTORE PUSH1 0x20 DUP4 ADD SWAP3 PUSH1 0x1 DUP1 PUSH1 0xF8 SHL SUB NUMBER AND DUP5 MSTORE DUP3 PUSH1 0x0 MSTORE PUSH2 0x268 PUSH1 0x20 MSTORE PUSH1 0x40 PUSH1 0x0 KECCAK256 SWAP1 MLOAD PUSH1 0xA DUP2 LT ISZERO PUSH2 0x3B6 JUMPI PUSH1 0xFF PUSH1 0x20 SWAP6 DUP2 NOT SWAP1 MLOAD PUSH1 0x8 SHL AND SWAP2 AND OR SWAP1 SSTORE DUP2 PUSH1 0x0 MSTORE PUSH2 0x264 DUP4 MSTORE PUSH2 0x544 PUSH1 0x4 PUSH1 0x40 PUSH1 0x0 KECCAK256 PUSH2 0x4755 JUMP JUMPDEST PUSH1 0x40 MLOAD DUP3 DUP2 MSTORE PUSH1 0x6 DUP5 DUP3 ADD MSTORE PUSH1 0x0 DUP1 MLOAD PUSH1 0x20 PUSH2 0x4A51 DUP4 CODECOPY DUP2 MLOAD SWAP2 MSTORE PUSH1 0x40 CALLER SWAP3 LOG2 PUSH2 0x3AC DUP2 SLOAD PUSH2 0x46DB JUMP JUMPDEST CALLVALUE PUSH2 0x2D0 JUMPI PUSH1 0x20 CALLDATASIZE PUSH1 0x3 NOT ADD SLT PUSH2 0x2D0 JUMPI PUSH1 0x4 CALLDATALOAD PUSH1 0x1 PUSH1 0x1 PUSH1 0xA0 SHL SUB DUP2 AND SWAP1 DUP2 SWAP1 SUB PUSH2 0x2D0 JUMPI PUSH2 0x59C PUSH2 0x2DA0 JUMP JUMPDEST PUSH1 0x1 PUSH1 0x1 PUSH1 0x60 SHL SUB PUSH1 0xA0 SHL PUSH1 0x97 SLOAD AND OR PUSH1 0x97 SSTORE PUSH1 0x0 DUP1 RETURN JUMPDEST CALLVALUE PUSH2 0x2D0 JUMPI PUSH1 0x0 CALLDATASIZE PUSH1 0x3 NOT ADD SLT PUSH2 0x2D0 JUMPI PUSH1 0x20 PUSH2 0x269 SLOAD PUSH1 0x80 SHR PUSH1 0x40 MLOAD SWAP1 DUP2 MSTORE RETURN JUMPDEST CALLVALUE PUSH2 0x2D0 JUMPI PUSH2 0x1A0 CALLDATASIZE PUSH1 0x3 NOT ADD SLT PUSH2 0x2D0 JUMPI PUSH1 0x1 PUSH1 0x1 PUSH1 0xA0 SHL SUB PUSH1 0x4 CALLDATALOAD DUP2 DUP2 AND SWAP1 DUP2 SWAP1 SUB PUSH2 0x2D0 JUMPI PUSH1 0x24 CALLDATALOAD SWAP2 DUP3 AND DUP3 SUB PUSH2 0x2D0 JUMPI PUSH1 0x44 CALLDATALOAD PUSH1 0x1 PUSH1 0x1 PUSH1 0x80 SHL SUB SWAP3 DUP4 DUP3 AND DUP1 SWAP3 SUB PUSH2 0x2D0 JUMPI PUSH1 0x64 CALLDATALOAD SWAP4 DUP5 AND DUP5 SUB PUSH2 0x2D0 JUMPI PUSH2 0x120 CALLDATASIZE PUSH1 0x83 NOT ADD SLT PUSH2 0x2D0 JUMPI PUSH1 0x0 SLOAD SWAP3 PUSH1 0xFF DUP5 PUSH1 0x8 SHR AND ISZERO SWAP4 DUP5 DUP1 SWAP6 PUSH2 0x7EA JUMPI JUMPDEST DUP1 ISZERO PUSH2 0x7D3 JUMPI JUMPDEST ISZERO PUSH2 0x777 JUMPI PUSH2 0x6EC SWAP3 PUSH1 0x1 SWAP2 DUP7 DUP4 PUSH1 0xFF NOT DUP4 AND OR PUSH1 0x0 SSTORE PUSH2 0x765 JUMPI JUMPDEST POP PUSH1 0xFF PUSH1 0x0 SLOAD PUSH1 0x8 SHR AND SWAP3 PUSH2 0x685 DUP5 PUSH2 0x2E44 JUMP JUMPDEST PUSH2 0x68E DUP5 PUSH2 0x2E44 JUMP JUMPDEST PUSH2 0x697 DUP5 PUSH2 0x2E44 JUMP JUMPDEST PUSH2 0x6A0 DUP5 PUSH2 0x2E44 JUMP JUMPDEST PUSH2 0x6A9 DUP5 PUSH2 0x2E44 JUMP JUMPDEST PUSH1 0x1 PUSH1 0x1 PUSH1 0x60 SHL SUB PUSH1 0xA0 SHL PUSH1 0x97 SLOAD AND OR PUSH1 0x97 SSTORE PUSH2 0x6C5 DUP4 PUSH2 0x2E44 JUMP JUMPDEST PUSH1 0xCA SLOAD SWAP1 PUSH3 0x10000 DUP4 PUSH1 0xB0 SHL SUB SWAP1 PUSH1 0x10 SHL AND SWAP1 PUSH2 0xFF01 DUP4 PUSH1 0xB0 SHL SUB NOT AND OR OR PUSH1 0xCA SSTORE PUSH2 0x2E44 JUMP JUMPDEST PUSH2 0x6F6 PUSH1 0x84 PUSH2 0x48BC JUMP JUMPDEST PUSH1 0x0 SLOAD SWAP3 PUSH2 0x712 PUSH1 0xFF DUP6 PUSH1 0x8 SHR AND PUSH2 0x70D DUP2 PUSH2 0x2E44 JUMP JUMPDEST PUSH2 0x2E44 JUMP JUMPDEST PUSH1 0x1 PUSH2 0x22A SSTORE PUSH1 0x80 SHL PUSH1 0x1 PUSH1 0x1 PUSH1 0x80 SHL SUB NOT AND OR PUSH2 0x269 SSTORE PUSH2 0x730 JUMPI STOP JUMPDEST PUSH2 0xFF00 NOT AND PUSH1 0x0 SSTORE PUSH32 0x7F26B83FF96E1F2B6A682F133852F6798A09C465DA95921460CEFB3847402498 PUSH1 0x20 PUSH1 0x40 MLOAD PUSH1 0x1 DUP2 MSTORE LOG1 STOP JUMPDEST PUSH2 0xFFFF NOT AND PUSH2 0x101 OR PUSH1 0x0 SSTORE DUP8 PUSH2 0x671 JUMP JUMPDEST PUSH1 0x40 MLOAD PUSH3 0x461BCD PUSH1 0xE5 SHL DUP2 MSTORE PUSH1 0x20 PUSH1 0x4 DUP3 ADD MSTORE PUSH1 0x2E PUSH1 0x24 DUP3 ADD MSTORE PUSH32 0x496E697469616C697A61626C653A20636F6E747261637420697320616C726561 PUSH1 0x44 DUP3 ADD MSTORE PUSH14 0x191E481A5B9A5D1A585B1A5E9959 PUSH1 0x92 SHL PUSH1 0x64 DUP3 ADD MSTORE PUSH1 0x84 SWAP1 REVERT JUMPDEST POP ADDRESS EXTCODESIZE ISZERO DUP1 ISZERO PUSH2 0x655 JUMPI POP PUSH1 0x1 PUSH1 0xFF DUP3 AND EQ PUSH2 0x655 JUMP JUMPDEST POP PUSH1 0x1 PUSH1 0xFF DUP3 AND LT PUSH2 0x64E JUMP JUMPDEST CALLVALUE PUSH2 0x2D0 JUMPI PUSH1 0x40 CALLDATASIZE PUSH1 0x3 NOT ADD SLT PUSH2 0x2D0 JUMPI PUSH1 0x4 CALLDATALOAD PUSH1 0x24 CALLDATALOAD PUSH1 0x1 PUSH1 0x1 PUSH1 0xA0 SHL SUB DUP2 AND DUP2 SUB PUSH2 0x2D0 JUMPI DUP2 PUSH2 0x82B PUSH2 0x830 SWAP4 PUSH2 0x4958 JUMP JUMPDEST PUSH2 0x2857 JUMP JUMPDEST STOP JUMPDEST CALLVALUE PUSH2 0x2D0 JUMPI PUSH1 0x0 CALLDATASIZE PUSH1 0x3 NOT ADD SLT PUSH2 0x2D0 JUMPI PUSH2 0x25C SLOAD PUSH1 0x40 MLOAD PUSH1 0x1 PUSH1 0x1 PUSH1 0xA0 SHL SUB SWAP1 SWAP2 AND DUP2 MSTORE PUSH1 0x20 SWAP1 RETURN JUMPDEST PUSH1 0xC0 CALLDATASIZE PUSH1 0x3 NOT ADD SLT PUSH2 0x2D0 JUMPI PUSH2 0x870 PUSH2 0x2E23 JUMP JUMPDEST PUSH2 0x887 PUSH1 0x0 DUP1 MLOAD PUSH1 0x20 PUSH2 0x4A71 DUP4 CODECOPY DUP2 MLOAD SWAP2 MSTORE PUSH2 0x2EA4 JUMP JUMPDEST PUSH2 0x897 PUSH2 0x310 PUSH1 0x4 PUSH2 0x1F7 PUSH2 0x27B1 JUMP JUMPDEST PUSH2 0x25D DUP1 SLOAD PUSH1 0x40 MLOAD SWAP2 PUSH2 0x8AB PUSH1 0x40 DUP5 PUSH2 0x27C9 JUMP JUMPDEST PUSH1 0x4 DUP4 MSTORE PUSH1 0x20 DUP4 ADD SWAP3 PUSH1 0x1 DUP1 PUSH1 0xF8 SHL SUB NUMBER AND DUP5 MSTORE DUP3 PUSH1 0x0 MSTORE PUSH2 0x268 PUSH1 0x20 MSTORE PUSH1 0x40 PUSH1 0x0 KECCAK256 SWAP1 MLOAD PUSH1 0xA DUP2 LT ISZERO PUSH2 0x3B6 JUMPI PUSH1 0xFF PUSH1 0x20 SWAP6 DUP2 NOT SWAP1 MLOAD PUSH1 0x8 SHL AND SWAP2 AND OR SWAP1 SSTORE DUP2 PUSH1 0x0 MSTORE PUSH2 0x262 DUP4 MSTORE PUSH2 0x903 PUSH1 0x4 PUSH1 0x40 PUSH1 0x0 KECCAK256 PUSH2 0x46EA JUMP JUMPDEST PUSH1 0x40 MLOAD DUP3 DUP2 MSTORE PUSH1 0x4 DUP5 DUP3 ADD MSTORE PUSH1 0x0 DUP1 MLOAD PUSH1 0x20 PUSH2 0x4A51 DUP4 CODECOPY DUP2 MLOAD SWAP2 MSTORE PUSH1 0x40 CALLER SWAP3 LOG2 PUSH2 0x3AC DUP2 SLOAD PUSH2 0x46DB JUMP JUMPDEST CALLVALUE PUSH2 0x2D0 JUMPI PUSH1 0x20 CALLDATASIZE PUSH1 0x3 NOT ADD SLT PUSH2 0x2D0 JUMPI PUSH1 0x1 PUSH1 0x1 PUSH1 0xA0 SHL SUB PUSH1 0x4 CALLDATALOAD DUP2 DUP2 AND SWAP1 DUP2 SWAP1 SUB PUSH2 0x2D0 JUMPI PUSH2 0x95C PUSH2 0x2DA0 JUMP JUMPDEST PUSH2 0x25C DUP1 SLOAD SWAP3 DUP4 AND PUSH2 0x990 JUMPI DUP2 PUSH2 0x830 SWAP4 PUSH1 0x1 PUSH1 0x1 PUSH1 0x60 SHL SUB PUSH1 0xA0 SHL AND OR SWAP1 SSTORE PUSH1 0x0 DUP1 MLOAD PUSH1 0x20 PUSH2 0x4A71 DUP4 CODECOPY DUP2 MLOAD SWAP2 MSTORE PUSH2 0x4830 JUMP JUMPDEST PUSH1 0x40 MLOAD PUSH4 0xA646B77 PUSH1 0xE4 SHL DUP2 MSTORE PUSH1 0x4 SWAP1 REVERT JUMPDEST CALLVALUE PUSH2 0x2D0 JUMPI PUSH1 0x0 CALLDATASIZE PUSH1 0x3 NOT ADD SLT PUSH2 0x2D0 JUMPI PUSH1 0x20 PUSH1 0xFF PUSH1 0xCA SLOAD AND PUSH1 0x40 MLOAD SWAP1 ISZERO ISZERO DUP2 MSTORE RETURN JUMPDEST CALLVALUE PUSH2 0x2D0 JUMPI PUSH1 0x20 CALLDATASIZE PUSH1 0x3 NOT ADD SLT PUSH2 0x2D0 JUMPI PUSH1 0x4 DUP1 CALLDATALOAD PUSH1 0x0 SWAP1 DUP2 MSTORE PUSH2 0x261 PUSH1 0x20 SWAP1 DUP2 MSTORE PUSH1 0x40 SWAP2 DUP3 SWAP1 KECCAK256 DUP1 SLOAD PUSH1 0x1 DUP3 ADD SLOAD PUSH1 0x2 DUP4 ADD SLOAD PUSH1 0x3 DUP5 ADD SLOAD SWAP4 SWAP1 SWAP7 ADD SLOAD DUP6 MLOAD SWAP3 DUP4 MSTORE SWAP4 DUP3 ADD MSTORE PUSH1 0x1 PUSH1 0x1 PUSH1 0xA0 SHL SUB SWAP5 DUP6 AND SWAP4 DUP2 ADD SWAP4 SWAP1 SWAP4 MSTORE DUP4 AND PUSH1 0x60 DUP4 ADD MSTORE SWAP2 SWAP1 SWAP2 AND PUSH1 0x80 DUP3 ADD MSTORE PUSH1 0xA0 SWAP1 RETURN JUMPDEST CALLVALUE PUSH2 0x2D0 JUMPI PUSH1 0x0 CALLDATASIZE PUSH1 0x3 NOT ADD SLT PUSH2 0x2D0 JUMPI PUSH1 0x20 PUSH1 0x40 MLOAD PUSH1 0x0 DUP2 MSTORE RETURN JUMPDEST CALLVALUE PUSH2 0x2D0 JUMPI PUSH1 0x0 CALLDATASIZE PUSH1 0x3 NOT ADD SLT PUSH2 0x2D0 JUMPI PUSH1 0xCA SLOAD PUSH1 0x40 MLOAD PUSH1 0x10 SWAP2 SWAP1 SWAP2 SHR PUSH1 0x1 PUSH1 0x1 PUSH1 0xA0 SHL SUB AND DUP2 MSTORE PUSH1 0x20 SWAP1 RETURN JUMPDEST CALLVALUE PUSH2 0x2D0 JUMPI PUSH1 0x40 CALLDATASIZE PUSH1 0x3 NOT ADD SLT PUSH2 0x2D0 JUMPI PUSH1 0x24 CALLDATALOAD PUSH1 0x1 PUSH1 0x1 PUSH1 0xA0 SHL SUB DUP2 AND SWAP1 DUP2 SWAP1 SUB PUSH2 0x2D0 JUMPI PUSH1 0x4 CALLDATALOAD PUSH1 0x0 MSTORE PUSH2 0x193 PUSH1 0x20 MSTORE PUSH1 0x40 PUSH1 0x0 KECCAK256 SWAP1 PUSH1 0x0 MSTORE PUSH1 0x20 MSTORE PUSH1 0x20 PUSH1 0xFF PUSH1 0x40 PUSH1 0x0 KECCAK256 SLOAD AND PUSH1 0x40 MLOAD SWAP1 ISZERO ISZERO DUP2 MSTORE RETURN JUMPDEST CALLVALUE PUSH2 0x2D0 JUMPI PUSH1 0x0 CALLDATASIZE PUSH1 0x3 NOT ADD SLT PUSH2 0x2D0 JUMPI PUSH1 0x20 PUSH1 0x1 PUSH1 0x1 PUSH1 0x80 SHL SUB PUSH2 0x269 SLOAD AND PUSH1 0x40 MLOAD SWAP1 DUP2 MSTORE RETURN JUMPDEST CALLVALUE PUSH2 0x2D0 JUMPI PUSH1 0x20 CALLDATASIZE PUSH1 0x3 NOT ADD SLT PUSH2 0x2D0 JUMPI PUSH1 0x4 CALLDATALOAD PUSH1 0x0 MSTORE PUSH2 0x263 PUSH1 0x20 MSTORE PUSH1 0x40 PUSH1 0x0 KECCAK256 PUSH1 0x1 DUP1 PUSH1 0xA0 SHL SUB PUSH2 0x2CC DUP2 DUP4 SLOAD AND SWAP2 PUSH1 0x1 DUP5 ADD SLOAD SWAP4 PUSH1 0x2 DUP2 ADD SLOAD SWAP2 DUP1 PUSH1 0x3 DUP4 ADD SLOAD AND SWAP1 PUSH1 0x5 DUP2 PUSH1 0x4 DUP6 ADD SLOAD AND SWAP4 ADD SLOAD AND SWAP3 PUSH1 0x40 MLOAD SWAP7 DUP8 SWAP7 DUP8 PUSH2 0x281D JUMP JUMPDEST CALLVALUE PUSH2 0x2D0 JUMPI PUSH1 0x20 CALLDATASIZE PUSH1 0x3 NOT ADD SLT PUSH2 0x2D0 JUMPI PUSH1 0x4 CALLDATALOAD PUSH1 0x0 MSTORE PUSH2 0x260 PUSH1 0x20 MSTORE PUSH1 0x40 PUSH1 0x0 KECCAK256 PUSH1 0x1 DUP1 PUSH1 0xA0 SHL SUB PUSH2 0x2CC DUP2 DUP4 SLOAD AND SWAP2 PUSH1 0x1 DUP5 ADD SLOAD SWAP4 PUSH1 0x2 DUP2 ADD SLOAD SWAP2 DUP1 PUSH1 0x3 DUP4 ADD SLOAD AND SWAP1 PUSH1 0x5 DUP2 PUSH1 0x4 DUP6 ADD SLOAD AND SWAP4 ADD SLOAD AND SWAP3 PUSH1 0x40 MLOAD SWAP7 DUP8 SWAP7 DUP8 PUSH2 0x281D JUMP JUMPDEST CALLVALUE PUSH2 0x2D0 JUMPI PUSH1 0x0 CALLDATASIZE PUSH1 0x3 NOT ADD SLT PUSH2 0x2D0 JUMPI PUSH2 0xBCE PUSH2 0x2E23 JUMP JUMPDEST PUSH1 0xCA SLOAD PUSH1 0x10 DUP2 SWAP1 SHR PUSH1 0x1 PUSH1 0x1 PUSH1 0xA0 SHL SUB AND CALLER SUB PUSH2 0xC39 JUMPI PUSH1 0xFF DUP2 AND ISZERO PUSH2 0xC27 JUMPI PUSH2 0x100 SWAP1 PUSH2 0xFF00 NOT AND OR PUSH1 0xCA SSTORE PUSH32 0x62E78CEA01BEE320CD4E420270B5EA74000D11B0C9F74754EBDBFC544B05A258 PUSH1 0x20 PUSH1 0x40 MLOAD CALLER DUP2 MSTORE LOG1 STOP JUMPDEST PUSH1 0x40 MLOAD PUSH4 0x866099C3 PUSH1 0xE0 SHL DUP2 MSTORE PUSH1 0x4 SWAP1 REVERT JUMPDEST PUSH1 0x40 MLOAD PUSH4 0x1D77D477 PUSH1 0xE2 SHL DUP2 MSTORE PUSH1 0x4 SWAP1 REVERT JUMPDEST PUSH1 0xC0 CALLDATASIZE PUSH1 0x3 NOT ADD SLT PUSH2 0x2D0 JUMPI PUSH2 0xC5F PUSH2 0x2E23 JUMP JUMPDEST PUSH2 0xC76 PUSH1 0x0 DUP1 MLOAD PUSH1 0x20 PUSH2 0x4A71 DUP4 CODECOPY DUP2 MLOAD SWAP2 MSTORE PUSH2 0x2EA4 JUMP JUMPDEST PUSH2 0xC86 PUSH2 0x310 PUSH1 0x3 PUSH2 0x1F7 PUSH2 0x27B1 JUMP JUMPDEST PUSH2 0x25D DUP1 SLOAD PUSH1 0x40 MLOAD SWAP2 PUSH2 0xC9A PUSH1 0x40 DUP5 PUSH2 0x27C9 JUMP JUMPDEST PUSH1 0x3 DUP4 MSTORE PUSH1 0x20 DUP4 ADD SWAP3 PUSH1 0x1 DUP1 PUSH1 0xF8 SHL SUB NUMBER AND DUP5 MSTORE DUP3 PUSH1 0x0 MSTORE PUSH2 0x268 PUSH1 0x20 MSTORE PUSH1 0x40 PUSH1 0x0 KECCAK256 SWAP1 MLOAD PUSH1 0xA DUP2 LT ISZERO PUSH2 0x3B6 JUMPI PUSH1 0xFF PUSH1 0x20 SWAP6 DUP2 NOT SWAP1 MLOAD PUSH1 0x8 SHL AND SWAP2 AND OR SWAP1 SSTORE DUP2 PUSH1 0x0 MSTORE PUSH2 0x260 DUP4 MSTORE PUSH2 0xCF2 PUSH1 0x4 PUSH1 0x40 PUSH1 0x0 KECCAK256 PUSH2 0x46EA JUMP JUMPDEST PUSH1 0x40 MLOAD DUP3 DUP2 MSTORE PUSH1 0x3 DUP5 DUP3 ADD MSTORE PUSH1 0x0 DUP1 MLOAD PUSH1 0x20 PUSH2 0x4A51 DUP4 CODECOPY DUP2 MLOAD SWAP2 MSTORE PUSH1 0x40 CALLER SWAP3 LOG2 PUSH2 0x3AC DUP2 SLOAD PUSH2 0x46DB JUMP JUMPDEST CALLVALUE PUSH2 0x2D0 JUMPI PUSH1 0x20 CALLDATASIZE PUSH1 0x3 NOT ADD SLT PUSH2 0x2D0 JUMPI PUSH1 0x4 CALLDATALOAD PUSH1 0x0 MSTORE PUSH2 0x268 PUSH1 0x20 MSTORE PUSH1 0x40 PUSH1 0x0 KECCAK256 SLOAD PUSH1 0xFF DUP2 AND SWAP1 PUSH1 0x40 MLOAD SWAP1 PUSH1 0xA DUP4 LT ISZERO PUSH2 0x3B6 JUMPI PUSH1 0x40 SWAP3 DUP3 MSTORE PUSH1 0x8 SHR PUSH1 0x20 DUP3 ADD MSTORE RETURN JUMPDEST CALLVALUE PUSH2 0x2D0 JUMPI PUSH1 0x0 CALLDATASIZE PUSH1 0x3 NOT ADD SLT PUSH2 0x2D0 JUMPI PUSH1 0x20 PUSH2 0x25D SLOAD PUSH1 0x40 MLOAD SWAP1 DUP2 MSTORE RETURN JUMPDEST CALLVALUE PUSH2 0x2D0 JUMPI PUSH1 0x20 CALLDATASIZE PUSH1 0x3 NOT ADD SLT PUSH2 0x2D0 JUMPI PUSH1 0x4 CALLDATALOAD PUSH1 0x0 MSTORE PUSH2 0x264 PUSH1 0x20 MSTORE PUSH1 0x40 PUSH1 0x0 KECCAK256 PUSH1 0x1 DUP1 PUSH1 0xA0 SHL SUB PUSH2 0x2CC DUP2 DUP4 SLOAD AND SWAP2 PUSH1 0x1 DUP5 ADD SLOAD SWAP4 PUSH1 0x2 DUP2 ADD SLOAD SWAP2 PUSH1 0x3 DUP3 ADD SLOAD DUP2 PUSH1 0x4 DUP5 ADD SLOAD AND SWAP2 PUSH1 0x6 DUP2 PUSH1 0x5 DUP7 ADD SLOAD AND SWAP5 ADD SLOAD AND SWAP4 PUSH1 0x40 MLOAD SWAP8 DUP9 SWAP8 DUP9 PUSH2 0x276E JUMP JUMPDEST PUSH1 0xE0 CALLDATASIZE PUSH1 0x3 NOT ADD SLT PUSH2 0x2D0 JUMPI PUSH2 0xDF7 PUSH2 0x2E23 JUMP JUMPDEST PUSH2 0xE0E PUSH1 0x0 DUP1 MLOAD PUSH1 0x20 PUSH2 0x4A71 DUP4 CODECOPY DUP2 MLOAD SWAP2 MSTORE PUSH2 0x2EA4 JUMP JUMPDEST PUSH2 0xE1E PUSH2 0x310 PUSH1 0x7 PUSH2 0x1F7 PUSH2 0x27B1 JUMP JUMPDEST PUSH2 0x25D DUP1 SLOAD PUSH1 0x40 MLOAD SWAP2 PUSH2 0xE32 PUSH1 0x40 DUP5 PUSH2 0x27C9 JUMP JUMPDEST PUSH1 0x7 DUP4 MSTORE PUSH1 0x20 DUP4 ADD SWAP3 PUSH1 0x1 DUP1 PUSH1 0xF8 SHL SUB NUMBER AND DUP5 MSTORE DUP3 PUSH1 0x0 MSTORE PUSH2 0x268 PUSH1 0x20 MSTORE PUSH1 0x40 PUSH1 0x0 KECCAK256 SWAP1 MLOAD PUSH1 0xA DUP2 LT ISZERO PUSH2 0x3B6 JUMPI PUSH1 0xFF PUSH1 0x20 SWAP6 DUP2 NOT SWAP1 MLOAD PUSH1 0x8 SHL AND SWAP2 AND OR SWAP1 SSTORE DUP2 PUSH1 0x0 MSTORE PUSH2 0x265 DUP4 MSTORE PUSH2 0xE8A PUSH1 0x4 PUSH1 0x40 PUSH1 0x0 KECCAK256 PUSH2 0x4755 JUMP JUMPDEST PUSH1 0x40 MLOAD DUP3 DUP2 MSTORE PUSH1 0x7 DUP5 DUP3 ADD MSTORE PUSH1 0x0 DUP1 MLOAD PUSH1 0x20 PUSH2 0x4A51 DUP4 CODECOPY DUP2 MLOAD SWAP2 MSTORE PUSH1 0x40 CALLER SWAP3 LOG2 PUSH2 0x3AC DUP2 SLOAD PUSH2 0x46DB JUMP JUMPDEST CALLVALUE PUSH2 0x2D0 JUMPI PUSH1 0x0 CALLDATASIZE PUSH1 0x3 NOT ADD SLT PUSH2 0x2D0 JUMPI PUSH2 0xECD PUSH2 0x2DA0 JUMP JUMPDEST PUSH1 0xCA DUP1 SLOAD PUSH1 0xFF NOT AND PUSH1 0x1 OR SWAP1 SSTORE STOP JUMPDEST CALLVALUE PUSH2 0x2D0 JUMPI PUSH1 0x0 CALLDATASIZE PUSH1 0x3 NOT ADD SLT PUSH2 0x2D0 JUMPI PUSH1 0x20 PUSH2 0x25E SLOAD PUSH2 0x25D SLOAD EQ PUSH1 0x40 MLOAD SWAP1 DUP2 MSTORE RETURN JUMPDEST CALLVALUE PUSH2 0x2D0 JUMPI PUSH1 0x20 CALLDATASIZE PUSH1 0x3 NOT ADD SLT PUSH2 0x2D0 JUMPI PUSH1 0x1 PUSH1 0x1 PUSH1 0x80 SHL SUB PUSH1 0x4 CALLDATALOAD DUP2 DUP2 AND DUP2 SUB PUSH2 0x2D0 JUMPI PUSH2 0xF2D PUSH2 0x2DA0 JUMP JUMPDEST PUSH2 0x269 DUP1 SLOAD SWAP1 SWAP3 AND PUSH1 0x80 SWAP2 SWAP1 SWAP2 SHL PUSH1 0x1 PUSH1 0x1 PUSH1 0x80 SHL SUB NOT AND OR SWAP1 SSTORE STOP JUMPDEST CALLVALUE PUSH2 0x2D0 JUMPI PUSH1 0x0 CALLDATASIZE PUSH1 0x3 NOT ADD SLT PUSH2 0x2D0 JUMPI PUSH1 0x20 PUSH1 0xFF PUSH1 0xCA SLOAD PUSH1 0x8 SHR AND PUSH1 0x40 MLOAD SWAP1 ISZERO ISZERO DUP2 MSTORE RETURN JUMPDEST CALLVALUE PUSH2 0x2D0 JUMPI PUSH1 0x20 CALLDATASIZE PUSH1 0x3 NOT ADD SLT PUSH2 0x2D0 JUMPI PUSH1 0x4 CALLDATALOAD PUSH1 0x0 MSTORE PUSH2 0x266 PUSH1 0x20 MSTORE PUSH1 0x40 PUSH1 0x0 KECCAK256 PUSH1 0x1 DUP1 PUSH1 0xA0 SHL SUB PUSH2 0x2CC DUP2 DUP4 SLOAD AND SWAP2 PUSH1 0x1 DUP5 ADD SLOAD SWAP4 PUSH1 0x2 DUP2 ADD SLOAD SWAP2 PUSH1 0x3 DUP3 ADD SLOAD DUP2 PUSH1 0x4 DUP5 ADD SLOAD AND SWAP2 PUSH1 0x6 DUP2 PUSH1 0x5 DUP7 ADD SLOAD AND SWAP5 ADD SLOAD AND SWAP4 PUSH1 0x40 MLOAD SWAP8 DUP9 SWAP8 DUP9 PUSH2 0x276E JUMP JUMPDEST CALLVALUE PUSH2 0x2D0 JUMPI PUSH1 0x0 CALLDATASIZE PUSH1 0x3 NOT ADD SLT PUSH2 0x2D0 JUMPI PUSH32 0x0 PUSH1 0x1 PUSH1 0x1 PUSH1 0xA0 SHL SUB AND ADDRESS SUB PUSH2 0x103F JUMPI PUSH1 0x20 PUSH1 0x40 MLOAD PUSH32 0x360894A13BA1A3210667C828492DB98DCA3E2076CC3735A920A3CA505D382BBC DUP2 MSTORE RETURN JUMPDEST PUSH1 0x40 MLOAD PUSH3 0x461BCD PUSH1 0xE5 SHL DUP2 MSTORE PUSH1 0x20 PUSH1 0x4 DUP3 ADD MSTORE PUSH1 0x38 PUSH1 0x24 DUP3 ADD MSTORE PUSH32 0x555550535570677261646561626C653A206D757374206E6F742062652063616C PUSH1 0x44 DUP3 ADD MSTORE PUSH32 0x6C6564207468726F7567682064656C656761746563616C6C0000000000000000 PUSH1 0x64 DUP3 ADD MSTORE PUSH1 0x84 SWAP1 REVERT JUMPDEST CALLVALUE PUSH2 0x2D0 JUMPI PUSH1 0x0 CALLDATASIZE PUSH1 0x3 NOT ADD SLT PUSH2 0x2D0 JUMPI PUSH2 0x10C3 PUSH2 0x2DA0 JUMP JUMPDEST PUSH1 0xCA DUP1 SLOAD PUSH1 0xFF NOT AND SWAP1 SSTORE STOP JUMPDEST PUSH1 0x40 CALLDATASIZE PUSH1 0x3 NOT ADD SLT PUSH2 0x2D0 JUMPI PUSH1 0x1 PUSH1 0x1 PUSH1 0xA0 SHL SUB PUSH1 0x4 CALLDATALOAD DUP2 DUP2 AND DUP2 SUB PUSH2 0x2D0 JUMPI PUSH1 0x24 CALLDATALOAD PUSH8 0xFFFFFFFFFFFFFFFF DUP2 GT PUSH2 0x2D0 JUMPI CALLDATASIZE PUSH1 0x23 DUP3 ADD SLT ISZERO PUSH2 0x2D0 JUMPI DUP1 PUSH1 0x4 ADD CALLDATALOAD SWAP2 PUSH2 0x111B DUP4 PUSH2 0x2801 JUMP JUMPDEST SWAP2 PUSH2 0x1129 PUSH1 0x40 MLOAD SWAP4 DUP5 PUSH2 0x27C9 JUMP JUMPDEST DUP4 DUP4 MSTORE CALLDATASIZE PUSH1 0x24 DUP6 DUP4 ADD ADD GT PUSH2 0x2D0 JUMPI PUSH2 0x830 SWAP5 PUSH1 0x0 PUSH1 0x20 DUP7 PUSH1 0x1 SWAP8 PUSH1 0x24 PUSH2 0x11AC SWAP7 ADD DUP4 DUP10 ADD CALLDATACOPY DUP7 ADD ADD MSTORE DUP1 PUSH32 0x0 AND SWAP1 PUSH2 0x1183 DUP3 ADDRESS EQ ISZERO PUSH2 0x28D6 JUMP JUMPDEST PUSH32 0x360894A13BA1A3210667C828492DB98DCA3E2076CC3735A920A3CA505D382BBC SLOAD AND EQ PUSH2 0x2937 JUMP JUMPDEST PUSH2 0x11B4 PUSH2 0x2DA0 JUMP JUMPDEST PUSH2 0x2998 JUMP JUMPDEST CALLVALUE PUSH2 0x2D0 JUMPI PUSH1 0x20 CALLDATASIZE PUSH1 0x3 NOT ADD SLT PUSH2 0x2D0 JUMPI PUSH1 0x4 CALLDATALOAD PUSH1 0x1 PUSH1 0x1 PUSH1 0xA0 SHL SUB DUP2 AND SWAP1 SUB PUSH2 0x2D0 JUMPI PUSH2 0x11E5 PUSH2 0x2E23 JUMP JUMPDEST PUSH1 0x2 PUSH2 0x22A SLOAD EQ PUSH2 0x1E81 JUMPI PUSH1 0x2 PUSH2 0x22A SSTORE PUSH2 0x121F PUSH32 0xD8AA0F3194971A2A116679F7C2090F6939C8D4E01A2A8D7E41D55E5351469E63 PUSH2 0x2EA4 JUMP JUMPDEST PUSH2 0x25E SLOAD PUSH1 0x0 PUSH2 0x25D SLOAD PUSH2 0x269 SLOAD SWAP1 DUP2 PUSH1 0x80 SHR DUP5 ADD DUP1 DUP3 LT PUSH1 0x0 EQ PUSH2 0x1E76 JUMPI POP SWAP1 SWAP3 SWAP2 SWAP3 JUMPDEST DUP2 DUP4 LT PUSH2 0x1291 JUMPI JUMPDEST POP POP PUSH2 0x25E SSTORE DUP1 PUSH2 0x1260 JUMPI JUMPDEST PUSH1 0x1 PUSH2 0x22A SSTORE STOP JUMPDEST PUSH1 0x0 DUP1 DUP1 DUP1 SWAP4 PUSH1 0x4 CALLDATALOAD GAS CALL PUSH2 0x1273 PUSH2 0x2C73 JUMP JUMPDEST POP ISZERO PUSH2 0x127F JUMPI DUP1 PUSH2 0x1258 JUMP JUMPDEST PUSH1 0x40 MLOAD PUSH4 0x8F589409 PUSH1 0xE0 SHL DUP2 MSTORE PUSH1 0x4 SWAP1 REVERT JUMPDEST SWAP1 SWAP2 PUSH1 0x0 SWAP1 PUSH1 0x0 SWAP2 DUP2 PUSH1 0x0 MSTORE PUSH2 0x268 PUSH1 0x20 MSTORE PUSH1 0x40 PUSH1 0x0 KECCAK256 PUSH1 0x40 MLOAD SWAP1 PUSH2 0x12B7 PUSH1 0x40 DUP4 PUSH2 0x27C9 JUMP JUMPDEST SLOAD PUSH2 0x12C5 PUSH1 0xFF DUP3 AND DUP4 PUSH2 0x30F0 JUMP JUMPDEST PUSH1 0x8 SHR DUP1 PUSH1 0x20 DUP4 ADD MSTORE PUSH1 0x1 PUSH1 0x1 PUSH1 0x80 SHL SUB DUP7 AND NUMBER SUB LT PUSH1 0x0 EQ PUSH2 0x134A JUMPI POP PUSH1 0x0 SWAP3 POP DUP3 SWAP1 POP DUP1 JUMPDEST PUSH2 0x1334 JUMPI JUMPDEST ISZERO PUSH2 0x132D JUMPI DUP1 PUSH1 0x1 SWAP2 CALLER PUSH32 0xB207E6B6B26274F3764B879E578B4539B8E37F41DFF43932DDC87B3E04090974 PUSH1 0x0 DUP1 LOG3 ADD SWAP4 ADD SWAP2 SWAP1 SWAP3 SWAP2 SWAP3 PUSH2 0x1244 JUMP JUMPDEST SWAP3 POP PUSH2 0x124C JUMP JUMPDEST DUP2 PUSH1 0x0 MSTORE PUSH2 0x268 PUSH1 0x20 MSTORE PUSH1 0x0 PUSH1 0x40 DUP2 KECCAK256 SSTORE PUSH2 0x12F1 JUMP JUMPDEST DUP1 MLOAD PUSH1 0xA DUP2 LT ISZERO PUSH2 0x3B6 JUMPI PUSH1 0x1 SUB PUSH2 0x1619 JUMPI POP POP DUP1 SWAP2 POP PUSH1 0x0 MSTORE PUSH2 0x25F PUSH1 0x20 MSTORE PUSH2 0x1377 PUSH1 0x40 PUSH1 0x0 KECCAK256 PUSH2 0x30FC JUMP JUMPDEST PUSH2 0x25C DUP1 SLOAD PUSH1 0x40 DUP1 MLOAD PUSH4 0x235E81CF PUSH1 0xE0 SHL DUP2 MSTORE DUP5 MLOAD PUSH1 0x4 DUP3 ADD MSTORE PUSH1 0x20 DUP6 ADD MLOAD PUSH1 0x24 DUP3 ADD MSTORE SWAP1 DUP5 ADD MLOAD PUSH1 0x1 PUSH1 0x1 PUSH1 0xA0 SHL SUB SWAP1 DUP2 AND PUSH1 0x44 DUP4 ADD MSTORE PUSH1 0x60 DUP6 ADD MLOAD DUP2 AND PUSH1 0x64 DUP4 ADD MSTORE PUSH1 0x80 DUP6 ADD MLOAD DUP2 AND PUSH1 0x84 DUP4 ADD MSTORE SWAP1 SWAP2 PUSH1 0x0 SWAP2 AND DUP3 PUSH1 0xA4 DUP2 PUSH1 0xC0 SWAP5 DUP6 SWAP5 GAS CALL PUSH1 0x0 SWAP3 DUP4 SWAP3 DUP3 PUSH2 0x15E4 JUMPI JUMPDEST POP POP PUSH2 0x1568 JUMPI POP POP PUSH2 0x13F3 PUSH2 0x2C73 JUMP JUMPDEST PUSH2 0x13FC DUP2 PUSH2 0x31AB JUMP JUMPDEST SWAP1 PUSH1 0x1 PUSH1 0x1 PUSH1 0xE0 SHL SUB NOT DUP3 AND PUSH4 0xB63F1A7 PUSH1 0xE0 SHL DUP2 SUB PUSH2 0x1503 JUMPI POP POP PUSH2 0x1438 PUSH1 0x0 DUP1 MLOAD PUSH1 0x20 PUSH2 0x4A11 DUP4 CODECOPY DUP2 MLOAD SWAP2 MSTORE SWAP2 PUSH1 0x40 MLOAD SWAP2 DUP3 SWAP2 DUP8 DUP4 PUSH2 0x3218 JUMP JUMPDEST SUB SWAP1 LOG1 JUMPDEST SLOAD PUSH1 0x40 DUP3 ADD MLOAD PUSH1 0x20 SWAP1 SWAP3 ADD MLOAD PUSH1 0x1 PUSH1 0x1 PUSH1 0xA0 SHL SUB SWAP2 DUP3 AND SWAP3 SWAP1 SWAP2 AND SWAP1 DUP3 EXTCODESIZE ISZERO PUSH2 0x2D0 JUMPI PUSH1 0x40 MLOAD PUSH4 0x58F32DE9 PUSH1 0xE0 SHL DUP2 MSTORE PUSH1 0x1 PUSH1 0x1 PUSH1 0xA0 SHL SUB SWAP3 SWAP1 SWAP3 AND PUSH1 0x4 DUP4 ADD MSTORE PUSH1 0x24 DUP3 ADD MSTORE SWAP1 PUSH1 0x0 SWAP1 DUP3 SWAP1 PUSH1 0x44 SWAP1 DUP3 SWAP1 DUP5 SWAP1 GAS CALL DUP1 ISZERO PUSH2 0x14F7 JUMPI PUSH2 0x14E6 JUMPI JUMPDEST POP JUMPDEST DUP1 PUSH1 0x0 MSTORE PUSH2 0x25F PUSH1 0x20 MSTORE PUSH2 0x14CE PUSH1 0x40 PUSH1 0x0 KECCAK256 PUSH1 0x4 PUSH1 0x0 SWAP2 DUP3 DUP2 SSTORE DUP3 PUSH1 0x1 DUP3 ADD SSTORE DUP3 PUSH1 0x2 DUP3 ADD SSTORE DUP3 PUSH1 0x3 DUP3 ADD SSTORE ADD SSTORE JUMP JUMPDEST PUSH1 0x1 SWAP1 DUP2 PUSH2 0x14DF PUSH1 0x1 PUSH2 0x1F7 PUSH2 0x27B1 JUMP JUMPDEST SLOAD SWAP3 PUSH2 0x12EC JUMP JUMPDEST PUSH1 0x0 PUSH2 0x14F1 SWAP2 PUSH2 0x27C9 JUMP JUMPDEST DUP5 PUSH2 0x149C JUMP JUMPDEST PUSH1 0x40 MLOAD RETURNDATASIZE PUSH1 0x0 DUP3 RETURNDATACOPY RETURNDATASIZE SWAP1 REVERT JUMPDEST PUSH4 0x79121201 PUSH1 0xE0 SHL SUB PUSH2 0x1539 JUMPI POP PUSH2 0x1531 PUSH1 0x0 DUP1 MLOAD PUSH1 0x20 PUSH2 0x4A11 DUP4 CODECOPY DUP2 MLOAD SWAP2 MSTORE SWAP2 PUSH1 0x40 MLOAD SWAP2 DUP3 SWAP2 DUP8 DUP4 PUSH2 0x31DC JUMP JUMPDEST SUB SWAP1 LOG1 PUSH2 0x143C JUMP JUMPDEST PUSH1 0x0 DUP1 MLOAD PUSH1 0x20 PUSH2 0x4A31 DUP4 CODECOPY DUP2 MLOAD SWAP2 MSTORE SWAP2 POP PUSH2 0x1531 SWAP1 PUSH1 0x40 MLOAD SWAP2 DUP3 SWAP2 DUP8 DUP4 MSTORE PUSH1 0x40 PUSH1 0x20 DUP5 ADD MSTORE PUSH1 0x40 DUP4 ADD SWAP1 PUSH2 0x2D63 JUMP JUMPDEST PUSH32 0x5090A820029ACAE4D47B64DA9AF62CE04A5A1BDB546934E5FCFE091EE1F780EE SWAP2 SWAP3 POP PUSH1 0x1 DUP1 PUSH1 0xA0 SHL SUB PUSH1 0x40 DUP6 ADD MLOAD AND SWAP3 PUSH2 0x15DC DUP7 PUSH1 0x60 PUSH1 0x1 DUP1 PUSH1 0xA0 SHL SUB DUP2 DUP10 ADD MLOAD AND SWAP8 DUP1 MLOAD SWAP5 DUP1 MLOAD SWAP3 PUSH1 0x20 DUP3 ADD MLOAD SWAP1 PUSH1 0x40 DUP4 ADD MLOAD SWAP3 ADD MLOAD SWAP3 PUSH1 0x80 PUSH1 0x1 DUP1 PUSH1 0xA0 SHL SUB SWAP2 ADD MLOAD AND SWAP4 PUSH1 0x40 MLOAD SWAP9 DUP10 SWAP9 DUP10 PUSH2 0x325D JUMP JUMPDEST SUB SWAP1 LOG3 PUSH2 0x149E JUMP JUMPDEST DUP1 SWAP2 SWAP3 SWAP5 POP PUSH2 0x1608 SWAP4 POP SWAP1 RETURNDATASIZE LT PUSH2 0x1612 JUMPI JUMPDEST PUSH2 0x1600 DUP2 DUP4 PUSH2 0x27C9 JUMP JUMPDEST DUP2 ADD SWAP1 PUSH2 0x3188 JUMP JUMPDEST SWAP3 SWAP1 POP DUP10 DUP1 PUSH2 0x13E3 JUMP JUMPDEST POP RETURNDATASIZE PUSH2 0x15F6 JUMP JUMPDEST DUP1 MLOAD PUSH1 0xA DUP2 LT ISZERO PUSH2 0x3B6 JUMPI PUSH1 0x2 SUB PUSH2 0x1922 JUMPI POP POP DUP1 SWAP2 POP PUSH1 0x0 MSTORE PUSH2 0x261 PUSH1 0x20 MSTORE PUSH2 0x1646 PUSH1 0x40 PUSH1 0x0 KECCAK256 PUSH2 0x30FC JUMP JUMPDEST PUSH2 0x25C DUP1 SLOAD PUSH1 0x40 DUP1 MLOAD PUSH4 0xBFE42621 PUSH1 0xE0 SHL DUP2 MSTORE DUP5 MLOAD PUSH1 0x4 DUP3 ADD MSTORE PUSH1 0x20 DUP6 ADD MLOAD PUSH1 0x24 DUP3 ADD MSTORE SWAP1 DUP5 ADD MLOAD PUSH1 0x1 PUSH1 0x1 PUSH1 0xA0 SHL SUB SWAP1 DUP2 AND PUSH1 0x44 DUP4 ADD MSTORE PUSH1 0x60 DUP6 ADD MLOAD DUP2 AND PUSH1 0x64 DUP4 ADD MSTORE PUSH1 0x80 DUP6 ADD MLOAD DUP2 AND PUSH1 0x84 DUP4 ADD MSTORE SWAP1 SWAP2 PUSH1 0x0 SWAP2 AND DUP3 PUSH1 0xA4 DUP2 PUSH1 0xC0 SWAP5 DUP6 SWAP5 GAS CALL PUSH1 0x0 SWAP3 DUP4 SWAP3 DUP3 PUSH2 0x18FD JUMPI JUMPDEST POP POP PUSH2 0x1881 JUMPI POP POP PUSH2 0x16C2 PUSH2 0x2C73 JUMP JUMPDEST PUSH2 0x16CB DUP2 PUSH2 0x31AB JUMP JUMPDEST PUSH1 0x1 PUSH1 0x1 PUSH1 0xE0 SHL SUB NOT DUP2 AND SWAP2 PUSH4 0xA5DB715D PUSH1 0xE0 SHL DUP4 SUB PUSH2 0x17EA JUMPI POP POP PUSH1 0xA0 PUSH1 0x0 DUP1 MLOAD PUSH1 0x20 PUSH2 0x4A11 DUP4 CODECOPY DUP2 MLOAD SWAP2 MSTORE SWAP2 PUSH1 0x40 MLOAD SWAP1 DUP7 DUP3 MSTORE PUSH1 0x20 DUP3 ADD MSTORE PUSH1 0x19 PUSH1 0x60 DUP1 PUSH1 0x40 DUP5 ADD MSTORE DUP3 ADD MSTORE PUSH32 0x496E73756666696369656E7420746320746F2072656465656D00000000000000 PUSH1 0x80 DUP3 ADD MSTORE LOG1 JUMPDEST SLOAD PUSH1 0x40 DUP3 ADD MLOAD SWAP2 MLOAD PUSH1 0x1 PUSH1 0x1 PUSH1 0xA0 SHL SUB SWAP2 DUP3 AND SWAP3 SWAP1 SWAP2 AND SWAP1 DUP3 EXTCODESIZE ISZERO PUSH2 0x2D0 JUMPI PUSH1 0x40 MLOAD PUSH4 0x53B16D17 PUSH1 0xE0 SHL DUP2 MSTORE PUSH1 0x1 PUSH1 0x1 PUSH1 0xA0 SHL SUB SWAP3 SWAP1 SWAP3 AND PUSH1 0x4 DUP4 ADD MSTORE PUSH1 0x24 DUP3 ADD MSTORE SWAP1 PUSH1 0x0 SWAP1 DUP3 SWAP1 PUSH1 0x44 SWAP1 DUP3 SWAP1 DUP5 SWAP1 GAS CALL DUP1 ISZERO PUSH2 0x14F7 JUMPI PUSH2 0x17D9 JUMPI JUMPDEST POP JUMPDEST DUP1 PUSH1 0x0 MSTORE PUSH2 0x261 PUSH1 0x20 MSTORE PUSH2 0x17C8 PUSH1 0x40 PUSH1 0x0 KECCAK256 PUSH1 0x4 PUSH1 0x0 SWAP2 DUP3 DUP2 SSTORE DUP3 PUSH1 0x1 DUP3 ADD SSTORE DUP3 PUSH1 0x2 DUP3 ADD SSTORE DUP3 PUSH1 0x3 DUP3 ADD SSTORE ADD SSTORE JUMP JUMPDEST PUSH1 0x1 SWAP1 DUP2 PUSH2 0x14DF PUSH1 0x2 PUSH2 0x1F7 PUSH2 0x27B1 JUMP JUMPDEST PUSH1 0x0 PUSH2 0x17E4 SWAP2 PUSH2 0x27C9 JUMP JUMPDEST DUP5 PUSH2 0x1796 JUMP JUMPDEST SWAP1 SWAP2 PUSH4 0x54CDE313 PUSH1 0xE0 SHL DUP2 SUB PUSH2 0x1824 JUMPI POP POP PUSH2 0x181C PUSH1 0x0 DUP1 MLOAD PUSH1 0x20 PUSH2 0x4A11 DUP4 CODECOPY DUP2 MLOAD SWAP2 MSTORE SWAP2 PUSH1 0x40 MLOAD SWAP2 DUP3 SWAP2 DUP8 DUP4 PUSH2 0x329C JUMP JUMPDEST SUB SWAP1 LOG1 PUSH2 0x173A JUMP JUMPDEST PUSH4 0x79121201 PUSH1 0xE0 SHL SUB PUSH2 0x1852 JUMPI POP PUSH2 0x181C PUSH1 0x0 DUP1 MLOAD PUSH1 0x20 PUSH2 0x4A11 DUP4 CODECOPY DUP2 MLOAD SWAP2 MSTORE SWAP2 PUSH1 0x40 MLOAD SWAP2 DUP3 SWAP2 DUP8 DUP4 PUSH2 0x31DC JUMP JUMPDEST PUSH1 0x0 DUP1 MLOAD PUSH1 0x20 PUSH2 0x4A31 DUP4 CODECOPY DUP2 MLOAD SWAP2 MSTORE SWAP2 POP PUSH2 0x181C SWAP1 PUSH1 0x40 MLOAD SWAP2 DUP3 SWAP2 DUP8 DUP4 MSTORE PUSH1 0x40 PUSH1 0x20 DUP5 ADD MSTORE PUSH1 0x40 DUP4 ADD SWAP1 PUSH2 0x2D63 JUMP JUMPDEST PUSH32 0x7E7043742F69701E6292386D468D710F2D6E44BF93232A1E52F1641E50A9DE12 SWAP2 SWAP3 POP PUSH1 0x1 DUP1 PUSH1 0xA0 SHL SUB PUSH1 0x40 DUP6 ADD MLOAD AND SWAP3 PUSH2 0x18F5 DUP7 PUSH1 0x60 PUSH1 0x1 DUP1 PUSH1 0xA0 SHL SUB DUP2 DUP10 ADD MLOAD AND SWAP8 DUP1 MLOAD SWAP5 DUP1 MLOAD SWAP3 PUSH1 0x20 DUP3 ADD MLOAD SWAP1 PUSH1 0x40 DUP4 ADD MLOAD SWAP3 ADD MLOAD SWAP3 PUSH1 0x80 PUSH1 0x1 DUP1 PUSH1 0xA0 SHL SUB SWAP2 ADD MLOAD AND SWAP4 PUSH1 0x40 MLOAD SWAP9 DUP10 SWAP9 DUP10 PUSH2 0x325D JUMP JUMPDEST SUB SWAP1 LOG3 PUSH2 0x1798 JUMP JUMPDEST DUP1 SWAP2 SWAP3 SWAP5 POP PUSH2 0x1918 SWAP4 POP SWAP1 RETURNDATASIZE LT PUSH2 0x1612 JUMPI PUSH2 0x1600 DUP2 DUP4 PUSH2 0x27C9 JUMP JUMPDEST SWAP3 SWAP1 POP DUP10 DUP1 PUSH2 0x16B2 JUMP JUMPDEST DUP1 MLOAD PUSH1 0xA DUP2 LT ISZERO PUSH2 0x3B6 JUMPI PUSH1 0x3 SUB PUSH2 0x1950 JUMPI POP POP SWAP1 POP PUSH2 0x1941 DUP2 PUSH2 0x33E2 JUMP JUMPDEST SWAP1 DUP2 PUSH2 0x14DF PUSH1 0x3 PUSH2 0x1F7 PUSH2 0x27B1 JUMP JUMPDEST DUP1 MLOAD PUSH1 0xA DUP2 LT ISZERO PUSH2 0x3B6 JUMPI PUSH1 0x4 SUB PUSH2 0x197E JUMPI POP POP SWAP1 POP PUSH2 0x196F DUP2 PUSH2 0x36EB JUMP JUMPDEST SWAP1 DUP2 PUSH2 0x14DF PUSH1 0x4 PUSH2 0x1F7 PUSH2 0x27B1 JUMP JUMPDEST DUP1 MLOAD PUSH1 0xA DUP2 LT ISZERO PUSH2 0x3B6 JUMPI PUSH1 0x5 SUB PUSH2 0x19AC JUMPI POP POP SWAP1 POP PUSH2 0x199D DUP2 PUSH2 0x395A JUMP JUMPDEST SWAP1 DUP2 PUSH2 0x14DF PUSH1 0x5 PUSH2 0x1F7 PUSH2 0x27B1 JUMP JUMPDEST DUP1 MLOAD PUSH1 0xA DUP2 LT ISZERO PUSH2 0x3B6 JUMPI PUSH1 0x6 SUB PUSH2 0x19DA JUMPI POP POP SWAP1 POP PUSH2 0x19CB DUP2 PUSH2 0x3CEE JUMP JUMPDEST SWAP1 DUP2 PUSH2 0x14DF PUSH1 0x6 PUSH2 0x1F7 PUSH2 0x27B1 JUMP JUMPDEST DUP1 MLOAD PUSH1 0xA DUP2 LT ISZERO PUSH2 0x3B6 JUMPI PUSH1 0x7 SUB PUSH2 0x1A08 JUMPI POP POP SWAP1 POP PUSH2 0x19F9 DUP2 PUSH2 0x40BC JUMP JUMPDEST SWAP1 DUP2 PUSH2 0x14DF PUSH1 0x7 PUSH2 0x1F7 PUSH2 0x27B1 JUMP JUMPDEST DUP1 MLOAD PUSH1 0xA DUP2 LT ISZERO PUSH2 0x3B6 JUMPI PUSH1 0x8 SUB PUSH2 0x1A36 JUMPI POP POP SWAP1 POP PUSH2 0x1A27 DUP2 PUSH2 0x439E JUMP JUMPDEST SWAP1 DUP2 PUSH2 0x14DF PUSH1 0x8 PUSH2 0x1F7 PUSH2 0x27B1 JUMP JUMPDEST MLOAD PUSH1 0xA DUP2 LT ISZERO PUSH2 0x3B6 JUMPI PUSH1 0x9 EQ PUSH2 0x1A4E JUMPI JUMPDEST DUP1 PUSH2 0x12EC JUMP JUMPDEST POP DUP1 SWAP2 POP PUSH1 0x0 MSTORE PUSH2 0x267 PUSH1 0x20 MSTORE PUSH1 0x0 PUSH1 0x40 DUP2 KECCAK256 PUSH1 0x40 MLOAD SWAP1 PUSH2 0x1A71 PUSH2 0x100 DUP4 PUSH2 0x27C9 JUMP JUMPDEST DUP1 SLOAD PUSH1 0x1 PUSH1 0x1 PUSH1 0xA0 SHL SUB SWAP1 DUP2 AND DUP4 MSTORE PUSH1 0x1 DUP3 ADD SLOAD DUP2 AND PUSH1 0x20 DUP5 ADD SWAP1 DUP2 MSTORE PUSH1 0x2 DUP4 ADD SLOAD PUSH1 0x40 DUP1 DUP7 ADD SWAP2 DUP3 MSTORE PUSH1 0x3 DUP6 ADD SLOAD PUSH1 0x60 DUP8 ADD SWAP1 DUP2 MSTORE PUSH1 0x4 DUP1 DUP8 ADD SLOAD PUSH1 0x80 DUP10 ADD SWAP1 DUP2 MSTORE PUSH1 0x5 DUP9 ADD SLOAD DUP8 AND PUSH1 0xA0 DUP11 ADD SWAP1 DUP2 MSTORE PUSH1 0x6 DUP10 ADD SLOAD DUP9 AND PUSH1 0xC0 DUP12 ADD SWAP1 DUP2 MSTORE PUSH1 0x7 SWAP1 SWAP10 ADD SLOAD DUP9 AND PUSH1 0xE0 DUP1 DUP13 ADD SWAP2 DUP3 MSTORE PUSH2 0x25C SLOAD SWAP7 MLOAD PUSH4 0x391BF6CF PUSH1 0xE0 SHL DUP2 MSTORE DUP13 MLOAD DUP12 AND SWAP6 DUP2 ADD SWAP6 SWAP1 SWAP6 MSTORE SWAP8 MLOAD DUP10 AND PUSH1 0x24 DUP6 ADD MSTORE SWAP6 MLOAD PUSH1 0x44 DUP5 ADD MSTORE SWAP3 MLOAD PUSH1 0x64 DUP4 ADD MSTORE MLOAD PUSH1 0x84 DUP3 ADD MSTORE SWAP1 MLOAD DUP6 AND PUSH1 0xA4 DUP3 ADD MSTORE SWAP5 MLOAD DUP5 AND PUSH1 0xC4 DUP7 ADD MSTORE SWAP1 MLOAD DUP4 AND PUSH1 0xE4 DUP6 ADD MSTORE SWAP3 SWAP5 SWAP1 SWAP3 DUP6 SWAP3 PUSH2 0x104 SWAP3 DUP5 SWAP3 SWAP1 SWAP2 AND GAS CALL SWAP2 DUP3 PUSH1 0x0 SWAP2 PUSH1 0x0 SWAP5 PUSH2 0x1E3F JUMPI JUMPDEST POP PUSH2 0x1D89 JUMPI POP SWAP1 POP PUSH2 0x1B61 PUSH2 0x2C73 JUMP JUMPDEST PUSH2 0x1B6A DUP2 PUSH2 0x31AB JUMP JUMPDEST SWAP1 PUSH1 0x1 PUSH1 0x1 PUSH1 0xE0 SHL SUB NOT DUP3 AND PUSH4 0xB63F1A7 PUSH1 0xE0 SHL DUP2 SUB PUSH2 0x1CF4 JUMPI POP POP PUSH2 0x1BA6 PUSH1 0x0 DUP1 MLOAD PUSH1 0x20 PUSH2 0x4A11 DUP4 CODECOPY DUP2 MLOAD SWAP2 MSTORE SWAP2 PUSH1 0x40 MLOAD SWAP2 DUP3 SWAP2 DUP7 DUP4 PUSH2 0x3218 JUMP JUMPDEST SUB SWAP1 LOG1 JUMPDEST PUSH2 0x25C SLOAD PUSH1 0xA0 DUP3 ADD MLOAD DUP3 MLOAD PUSH1 0x40 DUP5 ADD MLOAD PUSH1 0x1 PUSH1 0x1 PUSH1 0xA0 SHL SUB SWAP2 DUP3 AND SWAP4 SWAP3 DUP3 AND SWAP3 SWAP1 SWAP2 AND DUP1 EXTCODESIZE ISZERO PUSH2 0x2D0 JUMPI PUSH1 0x40 MLOAD PUSH4 0xE2C5E99 PUSH1 0xE4 SHL DUP2 MSTORE PUSH1 0x1 PUSH1 0x1 PUSH1 0xA0 SHL SUB SWAP4 DUP5 AND PUSH1 0x4 DUP3 ADD MSTORE SWAP4 SWAP1 SWAP3 AND PUSH1 0x24 DUP5 ADD MSTORE PUSH1 0x44 DUP4 ADD MSTORE PUSH1 0x0 SWAP1 DUP3 SWAP1 PUSH1 0x64 SWAP1 DUP3 SWAP1 DUP5 SWAP1 GAS CALL DUP1 ISZERO PUSH2 0x14F7 JUMPI PUSH2 0x1CE3 JUMPI JUMPDEST POP PUSH2 0x25C SLOAD PUSH1 0xA0 DUP3 ADD MLOAD PUSH1 0x80 SWAP1 SWAP3 ADD MLOAD PUSH1 0x1 PUSH1 0x1 PUSH1 0xA0 SHL SUB SWAP2 DUP3 AND SWAP3 SWAP1 SWAP2 AND SWAP1 DUP3 EXTCODESIZE ISZERO PUSH2 0x2D0 JUMPI PUSH1 0x40 MLOAD PUSH4 0x58F32DE9 PUSH1 0xE0 SHL DUP2 MSTORE PUSH1 0x1 PUSH1 0x1 PUSH1 0xA0 SHL SUB SWAP3 SWAP1 SWAP3 AND PUSH1 0x4 DUP4 ADD MSTORE PUSH1 0x24 DUP3 ADD MSTORE SWAP1 PUSH1 0x0 SWAP1 DUP3 SWAP1 PUSH1 0x44 SWAP1 DUP3 SWAP1 DUP5 SWAP1 GAS CALL DUP1 ISZERO PUSH2 0x14F7 JUMPI PUSH2 0x1CD2 JUMPI JUMPDEST POP JUMPDEST DUP1 PUSH1 0x0 MSTORE PUSH2 0x267 PUSH1 0x20 MSTORE PUSH1 0x0 PUSH1 0x7 PUSH1 0x40 DUP3 KECCAK256 DUP3 DUP2 SSTORE DUP3 PUSH1 0x1 DUP3 ADD SSTORE DUP3 PUSH1 0x2 DUP3 ADD SSTORE DUP3 PUSH1 0x3 DUP3 ADD SSTORE DUP3 PUSH1 0x4 DUP3 ADD SSTORE DUP3 PUSH1 0x5 DUP3 ADD SSTORE DUP3 PUSH1 0x6 DUP3 ADD SSTORE ADD SSTORE PUSH1 0x1 SWAP1 DUP2 PUSH2 0x1CCA PUSH1 0x9 PUSH2 0x1F7 PUSH2 0x27B1 JUMP JUMPDEST SLOAD SWAP3 POP PUSH2 0x1A48 JUMP JUMPDEST PUSH1 0x0 PUSH2 0x1CDD SWAP2 PUSH2 0x27C9 JUMP JUMPDEST DUP5 PUSH2 0x1C7C JUMP JUMPDEST PUSH1 0x0 PUSH2 0x1CEE SWAP2 PUSH2 0x27C9 JUMP JUMPDEST DUP6 PUSH2 0x1C18 JUMP JUMPDEST PUSH4 0x272E3F59 PUSH1 0xE2 SHL DUP2 SUB PUSH2 0x1D2C JUMPI POP POP PUSH2 0x1D24 PUSH1 0x0 DUP1 MLOAD PUSH1 0x20 PUSH2 0x4A11 DUP4 CODECOPY DUP2 MLOAD SWAP2 MSTORE SWAP2 PUSH1 0x40 MLOAD SWAP2 DUP3 SWAP2 DUP7 DUP4 PUSH2 0x406F JUMP JUMPDEST SUB SWAP1 LOG1 PUSH2 0x1BAA JUMP JUMPDEST PUSH4 0x79121201 PUSH1 0xE0 SHL SUB PUSH2 0x1D5A JUMPI POP PUSH2 0x1D24 PUSH1 0x0 DUP1 MLOAD PUSH1 0x20 PUSH2 0x4A11 DUP4 CODECOPY DUP2 MLOAD SWAP2 MSTORE SWAP2 PUSH1 0x40 MLOAD SWAP2 DUP3 SWAP2 DUP7 DUP4 PUSH2 0x31DC JUMP JUMPDEST PUSH1 0x0 DUP1 MLOAD PUSH1 0x20 PUSH2 0x4A31 DUP4 CODECOPY DUP2 MLOAD SWAP2 MSTORE SWAP2 POP PUSH2 0x1D24 SWAP1 PUSH1 0x40 MLOAD SWAP2 DUP3 SWAP2 DUP7 DUP4 MSTORE PUSH1 0x40 PUSH1 0x20 DUP5 ADD MSTORE PUSH1 0x40 DUP4 ADD SWAP1 PUSH2 0x2D63 JUMP JUMPDEST PUSH32 0xF86F4487D2C5541B78F06D2368E28E0F4052E182124DEF54D5855BF2A01D3258 PUSH2 0x120 PUSH1 0x1 DUP1 PUSH1 0xA0 SHL SUB DUP5 MLOAD AND SWAP3 PUSH1 0x1 DUP1 PUSH1 0xA0 SHL SUB PUSH1 0x20 DUP7 ADD MLOAD AND SWAP1 PUSH1 0x1 DUP1 PUSH1 0xA0 SHL SUB PUSH1 0xA0 DUP8 ADD MLOAD AND SWAP6 PUSH1 0x1 DUP1 PUSH1 0xA0 SHL SUB PUSH1 0xC0 DUP3 ADD MLOAD AND SWAP8 PUSH1 0x40 DUP3 ADD MLOAD SWAP3 DUP2 MLOAD PUSH1 0x20 DUP4 ADD MLOAD SWAP2 PUSH1 0x60 PUSH1 0x40 DUP6 ADD MLOAD SWAP5 ADD MLOAD SWAP5 PUSH1 0xE0 PUSH1 0x1 DUP1 PUSH1 0xA0 SHL SUB SWAP2 ADD MLOAD AND SWAP6 PUSH1 0x40 MLOAD SWAP8 DUP9 MSTORE PUSH1 0x20 DUP9 ADD MSTORE PUSH1 0x40 DUP8 ADD MSTORE PUSH1 0x60 DUP7 ADD MSTORE PUSH1 0x80 DUP6 ADD MSTORE PUSH1 0xA0 DUP5 ADD MSTORE PUSH1 0xC0 DUP4 ADD MSTORE PUSH1 0xE0 DUP3 ADD MSTORE DUP7 PUSH2 0x100 DUP3 ADD MSTORE LOG4 PUSH2 0x1C7E JUMP JUMPDEST SWAP1 SWAP4 POP PUSH2 0x1E64 SWAP2 POP PUSH1 0xE0 RETURNDATASIZE PUSH1 0xE0 GT PUSH2 0x1E6F JUMPI JUMPDEST PUSH2 0x1E5C DUP2 DUP4 PUSH2 0x27C9 JUMP JUMPDEST DUP2 ADD SWAP1 PUSH2 0x3936 JUMP JUMPDEST SWAP3 POP POP SWAP1 SWAP3 DUP9 PUSH2 0x1B51 JUMP JUMPDEST POP RETURNDATASIZE PUSH2 0x1E52 JUMP JUMPDEST SWAP1 POP SWAP1 SWAP3 SWAP2 SWAP3 PUSH2 0x1244 JUMP JUMPDEST PUSH1 0x40 MLOAD PUSH3 0x461BCD PUSH1 0xE5 SHL DUP2 MSTORE PUSH1 0x20 PUSH1 0x4 DUP3 ADD MSTORE PUSH1 0x1F PUSH1 0x24 DUP3 ADD MSTORE PUSH32 0x5265656E7472616E637947756172643A207265656E7472616E742063616C6C00 PUSH1 0x44 DUP3 ADD MSTORE PUSH1 0x64 SWAP1 REVERT JUMPDEST CALLVALUE PUSH2 0x2D0 JUMPI PUSH1 0x20 CALLDATASIZE PUSH1 0x3 NOT ADD SLT PUSH2 0x2D0 JUMPI PUSH1 0x4 CALLDATALOAD PUSH1 0xA DUP2 LT ISZERO PUSH2 0x2D0 JUMPI PUSH2 0x1EF1 PUSH1 0x20 SWAP2 PUSH2 0x1F7 PUSH2 0x27B1 JUMP JUMPDEST SLOAD PUSH1 0x40 MLOAD SWAP1 DUP2 MSTORE RETURN JUMPDEST CALLVALUE PUSH2 0x2D0 JUMPI PUSH2 0x120 CALLDATASIZE PUSH1 0x3 NOT ADD SLT PUSH2 0x2D0 JUMPI PUSH2 0x1F14 PUSH2 0x2DA0 JUMP JUMPDEST PUSH2 0x25E SLOAD PUSH2 0x25D SLOAD SUB PUSH2 0x1F2B JUMPI PUSH2 0x830 PUSH1 0x4 PUSH2 0x48BC JUMP JUMPDEST PUSH1 0x40 MLOAD PUSH4 0x15996EAB PUSH1 0xE0 SHL DUP2 MSTORE PUSH1 0x4 SWAP1 REVERT JUMPDEST PUSH1 0xC0 CALLDATASIZE PUSH1 0x3 NOT ADD SLT PUSH2 0x2D0 JUMPI PUSH2 0x1F51 PUSH2 0x2E23 JUMP JUMPDEST PUSH2 0x1F68 PUSH1 0x0 DUP1 MLOAD PUSH1 0x20 PUSH2 0x4A71 DUP4 CODECOPY DUP2 MLOAD SWAP2 MSTORE PUSH2 0x2EA4 JUMP JUMPDEST PUSH2 0x1F78 PUSH2 0x310 PUSH1 0x5 PUSH2 0x1F7 PUSH2 0x27B1 JUMP JUMPDEST PUSH2 0x25D DUP1 SLOAD PUSH1 0x40 MLOAD SWAP2 PUSH2 0x1F8C PUSH1 0x40 DUP5 PUSH2 0x27C9 JUMP JUMPDEST PUSH1 0x5 DUP4 MSTORE PUSH1 0x20 DUP4 ADD SWAP3 PUSH1 0x1 DUP1 PUSH1 0xF8 SHL SUB NUMBER AND DUP5 MSTORE DUP3 PUSH1 0x0 MSTORE PUSH2 0x268 PUSH1 0x20 MSTORE PUSH1 0x40 PUSH1 0x0 KECCAK256 SWAP1 MLOAD PUSH1 0xA DUP2 LT ISZERO PUSH2 0x3B6 JUMPI PUSH1 0xFF PUSH1 0x20 SWAP6 DUP2 NOT SWAP1 MLOAD PUSH1 0x8 SHL AND SWAP2 AND OR SWAP1 SSTORE DUP2 PUSH1 0x0 MSTORE PUSH2 0x263 DUP4 MSTORE PUSH2 0x1FE4 PUSH1 0x4 PUSH1 0x40 PUSH1 0x0 KECCAK256 PUSH2 0x46EA JUMP JUMPDEST PUSH1 0x40 MLOAD DUP3 DUP2 MSTORE PUSH1 0x5 DUP5 DUP3 ADD MSTORE PUSH1 0x0 DUP1 MLOAD PUSH1 0x20 PUSH2 0x4A51 DUP4 CODECOPY DUP2 MLOAD SWAP2 MSTORE PUSH1 0x40 CALLER SWAP3 LOG2 PUSH2 0x3AC DUP2 SLOAD PUSH2 0x46DB JUMP JUMPDEST CALLVALUE PUSH2 0x2D0 JUMPI PUSH1 0x20 CALLDATASIZE PUSH1 0x3 NOT ADD SLT PUSH2 0x2D0 JUMPI PUSH1 0x4 CALLDATALOAD PUSH1 0x0 MSTORE PUSH2 0x267 PUSH1 0x20 MSTORE PUSH2 0x100 PUSH1 0x40 PUSH1 0x0 KECCAK256 PUSH1 0x1 DUP1 PUSH1 0xA0 SHL SUB DUP1 DUP3 SLOAD AND SWAP2 DUP2 PUSH1 0x1 DUP3 ADD SLOAD AND SWAP2 PUSH1 0x2 DUP3 ADD SLOAD PUSH1 0x3 DUP4 ADD SLOAD PUSH1 0x4 DUP5 ADD SLOAD SWAP2 DUP4 PUSH1 0x5 DUP7 ADD SLOAD AND SWAP4 PUSH1 0x7 DUP2 PUSH1 0x6 DUP9 ADD SLOAD AND SWAP7 ADD SLOAD AND SWAP6 PUSH1 0x40 MLOAD SWAP8 DUP9 MSTORE PUSH1 0x20 DUP9 ADD MSTORE PUSH1 0x40 DUP8 ADD MSTORE PUSH1 0x60 DUP7 ADD MSTORE PUSH1 0x80 DUP6 ADD MSTORE PUSH1 0xA0 DUP5 ADD MSTORE PUSH1 0xC0 DUP4 ADD MSTORE PUSH1 0xE0 DUP3 ADD MSTORE RETURN JUMPDEST CALLVALUE PUSH2 0x2D0 JUMPI PUSH1 0x0 CALLDATASIZE PUSH1 0x3 NOT ADD SLT PUSH2 0x2D0 JUMPI PUSH1 0xCA SLOAD PUSH1 0xFF DUP2 PUSH1 0x8 SHR AND ISZERO PUSH2 0x2100 JUMPI PUSH1 0x10 DUP2 SWAP1 SHR PUSH1 0x1 PUSH1 0x1 PUSH1 0xA0 SHL SUB AND CALLER SUB PUSH2 0xC39 JUMPI PUSH2 0xFF00 NOT AND PUSH1 0xCA SSTORE PUSH32 0x5DB9EE0A495BF2E6FF9C91A7834C1BA4FDD244A5E8AA4E537BD38AEAE4B073AA PUSH1 0x20 PUSH1 0x40 MLOAD CALLER DUP2 MSTORE LOG1 STOP JUMPDEST PUSH1 0x40 MLOAD PUSH4 0x7C7FD079 PUSH1 0xE0 SHL DUP2 MSTORE PUSH1 0x4 SWAP1 REVERT JUMPDEST CALLVALUE PUSH2 0x2D0 JUMPI PUSH1 0x0 CALLDATASIZE PUSH1 0x3 NOT ADD SLT PUSH2 0x2D0 JUMPI PUSH1 0x20 PUSH2 0x212D PUSH2 0x47CB JUMP JUMPDEST PUSH1 0x40 MLOAD SWAP1 ISZERO ISZERO DUP2 MSTORE RETURN JUMPDEST CALLVALUE PUSH2 0x2D0 JUMPI PUSH1 0x20 CALLDATASIZE PUSH1 0x3 NOT ADD SLT PUSH2 0x2D0 JUMPI PUSH1 0x4 CALLDATALOAD PUSH1 0x1 PUSH1 0x1 PUSH1 0x80 SHL SUB DUP2 AND DUP1 SWAP2 SUB PUSH2 0x2D0 JUMPI PUSH2 0x2164 PUSH2 0x2DA0 JUMP JUMPDEST PUSH2 0x269 DUP1 SLOAD PUSH1 0x1 PUSH1 0x1 PUSH1 0x80 SHL SUB NOT AND SWAP1 SWAP2 OR SWAP1 SSTORE STOP JUMPDEST CALLVALUE PUSH2 0x2D0 JUMPI PUSH1 0x20 CALLDATASIZE PUSH1 0x3 NOT ADD SLT PUSH2 0x2D0 JUMPI PUSH1 0x4 CALLDATALOAD PUSH1 0x1 PUSH1 0x1 PUSH1 0xA0 SHL SUB DUP1 DUP3 AND DUP3 SUB PUSH2 0x2D0 JUMPI PUSH2 0x830 SWAP2 PUSH2 0x21D9 DUP3 PUSH1 0x0 SWAP4 PUSH32 0x0 AND SWAP1 PUSH2 0x1183 DUP3 ADDRESS EQ ISZERO PUSH2 0x28D6 JUMP JUMPDEST PUSH2 0x21E1 PUSH2 0x2DA0 JUMP JUMPDEST PUSH2 0x21EA DUP3 PUSH2 0x2801 JUMP JUMPDEST SWAP1 PUSH2 0x21F8 PUSH1 0x40 MLOAD SWAP3 DUP4 PUSH2 0x27C9 JUMP JUMPDEST DUP3 DUP3 MSTORE PUSH1 0x1F NOT PUSH2 0x2207 DUP5 PUSH2 0x2801 JUMP JUMPDEST ADD CALLDATASIZE PUSH1 0x20 DUP5 ADD CALLDATACOPY PUSH2 0x2998 JUMP JUMPDEST CALLVALUE PUSH2 0x2D0 JUMPI PUSH1 0x40 CALLDATASIZE PUSH1 0x3 NOT ADD SLT PUSH2 0x2D0 JUMPI PUSH1 0x24 CALLDATALOAD PUSH1 0x1 PUSH1 0x1 PUSH1 0xA0 SHL SUB DUP2 AND DUP1 DUP3 SUB PUSH2 0x2D0 JUMPI CALLER SUB PUSH2 0x224A JUMPI PUSH2 0x830 SWAP1 PUSH1 0x4 CALLDATALOAD PUSH2 0x2857 JUMP JUMPDEST PUSH1 0x40 MLOAD PUSH3 0x461BCD PUSH1 0xE5 SHL DUP2 MSTORE PUSH1 0x20 PUSH1 0x4 DUP3 ADD MSTORE PUSH1 0x2F PUSH1 0x24 DUP3 ADD MSTORE PUSH32 0x416363657373436F6E74726F6C3A2063616E206F6E6C792072656E6F756E6365 PUSH1 0x44 DUP3 ADD MSTORE PUSH15 0x103937B632B9903337B91039B2B633 PUSH1 0x89 SHL PUSH1 0x64 DUP3 ADD MSTORE PUSH1 0x84 SWAP1 REVERT JUMPDEST PUSH2 0x100 CALLDATASIZE PUSH1 0x3 NOT ADD SLT PUSH2 0x2D0 JUMPI PUSH2 0x22BC PUSH2 0x2E23 JUMP JUMPDEST PUSH2 0x22D3 PUSH1 0x0 DUP1 MLOAD PUSH1 0x20 PUSH2 0x4A71 DUP4 CODECOPY DUP2 MLOAD SWAP2 MSTORE PUSH2 0x2EA4 JUMP JUMPDEST PUSH2 0x22E3 PUSH2 0x310 PUSH1 0x9 PUSH2 0x1F7 PUSH2 0x27B1 JUMP JUMPDEST PUSH2 0x25D DUP1 SLOAD PUSH1 0x40 MLOAD PUSH2 0x22F6 PUSH1 0x40 DUP3 PUSH2 0x27C9 JUMP JUMPDEST PUSH1 0x9 DUP2 MSTORE PUSH1 0x20 DUP2 ADD PUSH1 0x1 DUP1 PUSH1 0xF8 SHL SUB NUMBER AND DUP2 MSTORE DUP3 PUSH1 0x0 MSTORE PUSH2 0x268 PUSH1 0x20 MSTORE PUSH1 0x40 PUSH1 0x0 KECCAK256 SWAP2 MLOAD SWAP1 PUSH1 0xA DUP3 LT ISZERO PUSH2 0x3B6 JUMPI MLOAD PUSH1 0xFF SWAP2 SWAP1 SWAP2 AND PUSH1 0x8 SWAP2 SWAP1 SWAP2 SHL PUSH1 0xFF NOT AND OR SWAP1 SSTORE PUSH1 0x0 DUP2 DUP2 MSTORE PUSH2 0x267 PUSH1 0x20 MSTORE PUSH1 0x40 SWAP1 KECCAK256 PUSH1 0x1 PUSH1 0x1 PUSH1 0xA0 SHL SUB PUSH1 0x4 CALLDATALOAD DUP2 DUP2 AND SWAP5 SWAP3 SWAP1 DUP6 SWAP1 SUB PUSH2 0x2D0 JUMPI PUSH1 0x1 PUSH1 0x1 PUSH1 0x60 SHL SUB PUSH1 0xA0 SHL SWAP5 DUP6 DUP3 SLOAD AND OR DUP2 SSTORE PUSH1 0x1 DUP2 ADD PUSH1 0x24 CALLDATALOAD DUP4 DUP2 AND DUP1 SWAP2 SUB PUSH2 0x2D0 JUMPI DUP7 DUP3 SLOAD AND OR SWAP1 SSTORE PUSH1 0x44 CALLDATALOAD PUSH1 0x2 DUP3 ADD SSTORE PUSH1 0x64 CALLDATALOAD PUSH1 0x3 DUP3 ADD SSTORE PUSH1 0x84 CALLDATALOAD PUSH1 0x4 DUP3 ADD SSTORE PUSH1 0x5 DUP2 ADD PUSH1 0xA4 CALLDATALOAD DUP4 DUP2 AND DUP1 SWAP2 SUB PUSH2 0x2D0 JUMPI DUP7 DUP3 SLOAD AND OR SWAP1 SSTORE PUSH1 0x6 DUP2 ADD SWAP1 PUSH1 0xC4 CALLDATALOAD SWAP2 DUP4 DUP4 AND DUP1 SWAP4 SUB PUSH2 0x2D0 JUMPI PUSH1 0x7 SWAP3 DUP8 DUP3 SLOAD AND OR SWAP1 SSTORE ADD SWAP1 PUSH1 0xE4 CALLDATALOAD SWAP1 DUP2 AND DUP1 SWAP2 SUB PUSH2 0x2D0 JUMPI PUSH1 0x20 SWAP5 DUP3 SLOAD AND OR SWAP1 SSTORE PUSH1 0x40 MLOAD DUP3 DUP2 MSTORE PUSH1 0x9 DUP5 DUP3 ADD MSTORE PUSH1 0x0 DUP1 MLOAD PUSH1 0x20 PUSH2 0x4A51 DUP4 CODECOPY DUP2 MLOAD SWAP2 MSTORE PUSH1 0x40 CALLER SWAP3 LOG2 PUSH2 0x3AC DUP2 SLOAD PUSH2 0x46DB JUMP JUMPDEST CALLVALUE PUSH2 0x2D0 JUMPI PUSH1 0x40 CALLDATASIZE PUSH1 0x3 NOT ADD SLT PUSH2 0x2D0 JUMPI PUSH1 0x4 CALLDATALOAD PUSH1 0x24 CALLDATALOAD PUSH1 0x1 PUSH1 0x1 PUSH1 0xA0 SHL SUB DUP2 AND DUP2 SUB PUSH2 0x2D0 JUMPI DUP2 PUSH2 0x244D PUSH2 0x830 SWAP4 PUSH2 0x4958 JUMP JUMPDEST PUSH2 0x4830 JUMP JUMPDEST CALLVALUE PUSH2 0x2D0 JUMPI PUSH1 0x20 CALLDATASIZE PUSH1 0x3 NOT ADD SLT PUSH2 0x2D0 JUMPI PUSH1 0x4 CALLDATALOAD PUSH1 0x1 PUSH1 0x1 PUSH1 0xA0 SHL SUB DUP2 AND DUP2 SUB PUSH2 0x2D0 JUMPI PUSH2 0x247E PUSH2 0x2DA0 JUMP JUMPDEST PUSH1 0xCA DUP1 SLOAD PUSH3 0x10000 PUSH1 0x1 PUSH1 0xB0 SHL SUB NOT AND PUSH1 0x10 SWAP3 SWAP1 SWAP3 SHL PUSH3 0x10000 PUSH1 0x1 PUSH1 0xB0 SHL SUB AND SWAP2 SWAP1 SWAP2 OR SWAP1 SSTORE STOP JUMPDEST CALLVALUE PUSH2 0x2D0 JUMPI PUSH1 0x0 CALLDATASIZE PUSH1 0x3 NOT ADD SLT PUSH2 0x2D0 JUMPI PUSH1 0x20 PUSH2 0x25E SLOAD PUSH1 0x40 MLOAD SWAP1 DUP2 MSTORE RETURN JUMPDEST CALLVALUE PUSH2 0x2D0 JUMPI PUSH1 0x20 CALLDATASIZE PUSH1 0x3 NOT ADD SLT PUSH2 0x2D0 JUMPI PUSH1 0x4 CALLDATALOAD PUSH1 0x0 MSTORE PUSH2 0x193 PUSH1 0x20 MSTORE PUSH1 0x20 PUSH1 0x1 PUSH1 0x40 PUSH1 0x0 KECCAK256 ADD SLOAD PUSH1 0x40 MLOAD SWAP1 DUP2 MSTORE RETURN JUMPDEST CALLVALUE PUSH2 0x2D0 JUMPI PUSH1 0x40 CALLDATASIZE PUSH1 0x3 NOT ADD SLT PUSH2 0x2D0 JUMPI PUSH1 0x4 CALLDATALOAD PUSH1 0xA DUP2 LT ISZERO PUSH2 0x2D0 JUMPI PUSH2 0x251F SWAP1 PUSH2 0x1F7 PUSH2 0x27B1 JUMP JUMPDEST SLOAD PUSH1 0x24 CALLDATALOAD DUP2 GT PUSH2 0x2534 JUMPI PUSH1 0x20 SWAP1 PUSH1 0x40 MLOAD SWAP1 DUP2 MSTORE RETURN JUMPDEST PUSH1 0x24 SWAP1 PUSH1 0x40 MLOAD SWAP1 PUSH4 0x49E6F69 PUSH1 0xE4 SHL DUP3 MSTORE PUSH1 0x4 DUP3 ADD MSTORE REVERT JUMPDEST CALLVALUE PUSH2 0x2D0 JUMPI PUSH1 0x20 CALLDATASIZE PUSH1 0x3 NOT ADD SLT PUSH2 0x2D0 JUMPI PUSH1 0x4 DUP1 CALLDATALOAD PUSH1 0x0 SWAP1 DUP2 MSTORE PUSH2 0x25F PUSH1 0x20 SWAP1 DUP2 MSTORE PUSH1 0x40 SWAP2 DUP3 SWAP1 KECCAK256 DUP1 SLOAD PUSH1 0x1 DUP3 ADD SLOAD PUSH1 0x2 DUP4 ADD SLOAD PUSH1 0x3 DUP5 ADD SLOAD SWAP4 SWAP1 SWAP7 ADD SLOAD DUP6 MLOAD SWAP3 DUP4 MSTORE SWAP4 DUP3 ADD MSTORE PUSH1 0x1 PUSH1 0x1 PUSH1 0xA0 SHL SUB SWAP5 DUP6 AND SWAP4 DUP2 ADD SWAP4 SWAP1 SWAP4 MSTORE DUP4 AND PUSH1 0x60 DUP4 ADD MSTORE SWAP2 SWAP1 SWAP2 AND PUSH1 0x80 DUP3 ADD MSTORE PUSH1 0xA0 SWAP1 RETURN JUMPDEST CALLVALUE PUSH2 0x2D0 JUMPI PUSH1 0x20 CALLDATASIZE PUSH1 0x3 NOT ADD SLT PUSH2 0x2D0 JUMPI PUSH1 0x4 CALLDATALOAD PUSH1 0x0 MSTORE PUSH2 0x265 PUSH1 0x20 MSTORE PUSH1 0x40 PUSH1 0x0 KECCAK256 PUSH1 0x1 DUP1 PUSH1 0xA0 SHL SUB PUSH2 0x2CC DUP2 DUP4 SLOAD AND SWAP2 PUSH1 0x1 DUP5 ADD SLOAD SWAP4 PUSH1 0x2 DUP2 ADD SLOAD SWAP2 PUSH1 0x3 DUP3 ADD SLOAD DUP2 PUSH1 0x4 DUP5 ADD SLOAD AND SWAP2 PUSH1 0x6 DUP2 PUSH1 0x5 DUP7 ADD SLOAD AND SWAP5 ADD SLOAD AND SWAP4 PUSH1 0x40 MLOAD SWAP8 DUP9 SWAP8 DUP9 PUSH2 0x276E JUMP JUMPDEST CALLVALUE PUSH2 0x2D0 JUMPI PUSH1 0x0 CALLDATASIZE PUSH1 0x3 NOT ADD SLT PUSH2 0x2D0 JUMPI PUSH1 0x97 SLOAD PUSH1 0x40 MLOAD PUSH1 0x1 PUSH1 0x1 PUSH1 0xA0 SHL SUB SWAP1 SWAP2 AND DUP2 MSTORE PUSH1 0x20 SWAP1 RETURN JUMPDEST CALLVALUE PUSH2 0x2D0 JUMPI PUSH1 0x20 CALLDATASIZE PUSH1 0x3 NOT ADD SLT PUSH2 0x2D0 JUMPI PUSH1 0x4 CALLDATALOAD PUSH4 0xFFFFFFFF PUSH1 0xE0 SHL DUP2 AND DUP1 SWAP2 SUB PUSH2 0x2D0 JUMPI PUSH1 0x20 SWAP1 PUSH4 0x7965DB0B PUSH1 0xE0 SHL DUP2 EQ SWAP1 DUP2 ISZERO PUSH2 0x268C JUMPI JUMPDEST POP PUSH1 0x40 MLOAD SWAP1 ISZERO ISZERO DUP2 MSTORE RETURN JUMPDEST PUSH4 0x1FFC9A7 PUSH1 0xE0 SHL EQ SWAP1 POP DUP3 PUSH2 0x2681 JUMP JUMPDEST PUSH1 0xE0 CALLDATASIZE PUSH1 0x3 NOT ADD SLT PUSH2 0x2D0 JUMPI PUSH2 0x26B1 PUSH2 0x2E23 JUMP JUMPDEST PUSH2 0x26C8 PUSH1 0x0 DUP1 MLOAD PUSH1 0x20 PUSH2 0x4A71 DUP4 CODECOPY DUP2 MLOAD SWAP2 MSTORE PUSH2 0x2EA4 JUMP JUMPDEST PUSH2 0x26D8 PUSH2 0x310 PUSH1 0x8 PUSH2 0x1F7 PUSH2 0x27B1 JUMP JUMPDEST PUSH2 0x25D DUP1 SLOAD PUSH1 0x40 MLOAD SWAP2 PUSH2 0x26EC PUSH1 0x40 DUP5 PUSH2 0x27C9 JUMP JUMPDEST PUSH1 0x8 DUP4 MSTORE PUSH1 0x20 DUP4 ADD SWAP3 PUSH1 0x1 DUP1 PUSH1 0xF8 SHL SUB NUMBER AND DUP5 MSTORE DUP3 PUSH1 0x0 MSTORE PUSH2 0x268 PUSH1 0x20 MSTORE PUSH1 0x40 PUSH1 0x0 KECCAK256 SWAP1 MLOAD PUSH1 0xA DUP2 LT ISZERO PUSH2 0x3B6 JUMPI PUSH1 0xFF PUSH1 0x20 SWAP6 DUP2 NOT SWAP1 MLOAD PUSH1 0x8 SHL AND SWAP2 AND OR SWAP1 SSTORE DUP2 PUSH1 0x0 MSTORE PUSH2 0x266 DUP4 MSTORE PUSH2 0x2744 PUSH1 0x4 PUSH1 0x40 PUSH1 0x0 KECCAK256 PUSH2 0x4755 JUMP JUMPDEST PUSH1 0x40 MLOAD DUP3 DUP2 MSTORE PUSH1 0x8 DUP5 DUP3 ADD MSTORE PUSH1 0x0 DUP1 MLOAD PUSH1 0x20 PUSH2 0x4A51 DUP4 CODECOPY DUP2 MLOAD SWAP2 MSTORE PUSH1 0x40 CALLER SWAP3 LOG2 PUSH2 0x3AC DUP2 SLOAD PUSH2 0x46DB JUMP JUMPDEST PUSH1 0x1 PUSH1 0x1 PUSH1 0xA0 SHL SUB SWAP2 DUP3 AND DUP2 MSTORE PUSH1 0x20 DUP2 ADD SWAP3 SWAP1 SWAP3 MSTORE PUSH1 0x40 DUP3 ADD SWAP3 SWAP1 SWAP3 MSTORE PUSH1 0x60 DUP2 ADD SWAP3 SWAP1 SWAP3 MSTORE SWAP2 DUP3 AND PUSH1 0x80 DUP3 ADD MSTORE SWAP2 DUP2 AND PUSH1 0xA0 DUP4 ADD MSTORE SWAP1 SWAP2 AND PUSH1 0xC0 DUP3 ADD MSTORE PUSH1 0xE0 ADD SWAP1 JUMP JUMPDEST SWAP1 PUSH1 0xA DUP2 LT ISZERO PUSH2 0x3B6 JUMPI PUSH1 0x0 MSTORE PUSH1 0x20 MSTORE PUSH1 0x40 PUSH1 0x0 KECCAK256 SWAP1 JUMP JUMPDEST SWAP1 PUSH1 0x1F DUP1 NOT SWAP2 ADD AND DUP2 ADD SWAP1 DUP2 LT PUSH8 0xFFFFFFFFFFFFFFFF DUP3 GT OR PUSH2 0x27EB JUMPI PUSH1 0x40 MSTORE JUMP JUMPDEST PUSH4 0x4E487B71 PUSH1 0xE0 SHL PUSH1 0x0 MSTORE PUSH1 0x41 PUSH1 0x4 MSTORE PUSH1 0x24 PUSH1 0x0 REVERT JUMPDEST PUSH8 0xFFFFFFFFFFFFFFFF DUP2 GT PUSH2 0x27EB JUMPI PUSH1 0x1F ADD PUSH1 0x1F NOT AND PUSH1 0x20 ADD SWAP1 JUMP JUMPDEST PUSH1 0x1 PUSH1 0x1 PUSH1 0xA0 SHL SUB SWAP2 DUP3 AND DUP2 MSTORE PUSH1 0x20 DUP2 ADD SWAP3 SWAP1 SWAP3 MSTORE PUSH1 0x40 DUP3 ADD SWAP3 SWAP1 SWAP3 MSTORE SWAP2 DUP2 AND PUSH1 0x60 DUP4 ADD MSTORE SWAP2 DUP3 AND PUSH1 0x80 DUP3 ADD MSTORE SWAP2 AND PUSH1 0xA0 DUP3 ADD MSTORE PUSH1 0xC0 ADD SWAP1 JUMP JUMPDEST SWAP1 PUSH1 0x0 SWAP2 DUP1 DUP4 MSTORE PUSH2 0x193 DUP1 PUSH1 0x20 MSTORE PUSH1 0x40 DUP5 KECCAK256 SWAP3 PUSH1 0x1 DUP1 PUSH1 0xA0 SHL SUB AND SWAP3 DUP4 DUP6 MSTORE PUSH1 0x20 MSTORE PUSH1 0xFF PUSH1 0x40 DUP6 KECCAK256 SLOAD AND PUSH2 0x288C JUMPI JUMPDEST POP POP POP POP JUMP JUMPDEST DUP2 DUP5 MSTORE PUSH1 0x20 MSTORE PUSH1 0x40 DUP4 KECCAK256 DUP3 DUP5 MSTORE PUSH1 0x20 MSTORE PUSH1 0x40 DUP4 KECCAK256 PUSH1 0xFF NOT DUP2 SLOAD AND SWAP1 SSTORE PUSH32 0xF6391F5C32D9C69D2A47EA670B442974B53935D1EDC7FD64EB21E047A839171B CALLER SWAP4 DUP1 LOG4 CODESIZE DUP1 DUP1 DUP1 PUSH2 0x2886 JUMP JUMPDEST ISZERO PUSH2 0x28DD JUMPI JUMP JUMPDEST PUSH1 0x40 MLOAD PUSH3 0x461BCD PUSH1 0xE5 SHL DUP2 MSTORE PUSH1 0x20 PUSH1 0x4 DUP3 ADD MSTORE PUSH1 0x2C PUSH1 0x24 DUP3 ADD MSTORE PUSH32 0x46756E6374696F6E206D7573742062652063616C6C6564207468726F75676820 PUSH1 0x44 DUP3 ADD MSTORE PUSH12 0x19195B1959D85D1958D85B1B PUSH1 0xA2 SHL PUSH1 0x64 DUP3 ADD MSTORE PUSH1 0x84 SWAP1 REVERT JUMPDEST ISZERO PUSH2 0x293E JUMPI JUMP JUMPDEST PUSH1 0x40 MLOAD PUSH3 0x461BCD PUSH1 0xE5 SHL DUP2 MSTORE PUSH1 0x20 PUSH1 0x4 DUP3 ADD MSTORE PUSH1 0x2C PUSH1 0x24 DUP3 ADD MSTORE PUSH32 0x46756E6374696F6E206D7573742062652063616C6C6564207468726F75676820 PUSH1 0x44 DUP3 ADD MSTORE PUSH12 0x6163746976652070726F7879 PUSH1 0xA0 SHL PUSH1 0x64 DUP3 ADD MSTORE PUSH1 0x84 SWAP1 REVERT JUMPDEST SWAP1 PUSH1 0xFF PUSH32 0x4910FDFA16FED3260ED0E7147F7CC6DA11A60208B5B9406D12A635614FFD9143 SLOAD AND PUSH1 0x0 EQ PUSH2 0x29D2 JUMPI POP PUSH2 0x29D0 SWAP2 POP PUSH2 0x2BD1 JUMP JUMPDEST JUMP JUMPDEST PUSH1 0x40 MLOAD PUSH4 0x52D1902D PUSH1 0xE0 SHL DUP2 MSTORE PUSH1 0x20 SWAP4 SWAP2 SWAP3 SWAP2 SWAP1 PUSH1 0x1 PUSH1 0x1 PUSH1 0xA0 SHL SUB DUP4 AND SWAP1 DUP6 DUP2 PUSH1 0x4 DUP2 DUP6 GAS STATICCALL PUSH1 0x0 SWAP2 DUP2 PUSH2 0x2B9F JUMPI JUMPDEST POP PUSH2 0x2A63 JUMPI PUSH1 0x40 MLOAD PUSH3 0x461BCD PUSH1 0xE5 SHL DUP2 MSTORE PUSH1 0x4 DUP2 ADD DUP8 SWAP1 MSTORE PUSH1 0x2E PUSH1 0x24 DUP3 ADD MSTORE PUSH32 0x45524331393637557067726164653A206E657720696D706C656D656E74617469 PUSH1 0x44 DUP3 ADD MSTORE PUSH14 0x6F6E206973206E6F742055555053 PUSH1 0x90 SHL PUSH1 0x64 DUP3 ADD MSTORE PUSH1 0x84 SWAP1 REVERT JUMPDEST SWAP4 SWAP5 SWAP4 PUSH32 0xC9F76B5EC45E5CDEF99837D7B6D2467235C1DF8933C8CA56DF5C35AFA2C7D444 ADD PUSH2 0x2B48 JUMPI PUSH2 0x2A95 DUP4 PUSH2 0x2BD1 JUMP JUMPDEST PUSH32 0xBC7CD75A20EE27FD9ADEBAB32041F755214DBC6BFFA90CC0225B39DA2E5C2D3B PUSH1 0x0 DUP1 LOG2 DUP4 MLOAD ISZERO SWAP1 DUP2 ISZERO SWAP2 PUSH2 0x2B40 JUMPI JUMPDEST POP PUSH2 0x2AD0 JUMPI POP POP POP JUMP JUMPDEST PUSH1 0x0 DUP1 PUSH2 0x2B3D SWAP5 PUSH2 0x2AE1 PUSH1 0x27 PUSH2 0x2801 JUMP JUMPDEST SWAP5 PUSH2 0x2AEF PUSH1 0x40 MLOAD SWAP7 DUP8 PUSH2 0x27C9 JUMP JUMPDEST PUSH1 0x27 DUP7 MSTORE PUSH32 0x416464726573733A206C6F772D6C6576656C2064656C65676174652063616C6C DUP2 DUP8 ADD MSTORE PUSH7 0x819985A5B1959 PUSH1 0xCA SHL PUSH1 0x40 DUP8 ADD MSTORE DUP2 MLOAD SWAP2 ADD DUP5 GAS DELEGATECALL PUSH2 0x2B37 PUSH2 0x2C73 JUMP JUMPDEST SWAP2 PUSH2 0x2CA3 JUMP JUMPDEST POP JUMP JUMPDEST SWAP1 POP CODESIZE PUSH2 0x2AC6 JUMP JUMPDEST PUSH1 0x40 MLOAD PUSH3 0x461BCD PUSH1 0xE5 SHL DUP2 MSTORE PUSH1 0x4 DUP2 ADD DUP6 SWAP1 MSTORE PUSH1 0x29 PUSH1 0x24 DUP3 ADD MSTORE PUSH32 0x45524331393637557067726164653A20756E737570706F727465642070726F78 PUSH1 0x44 DUP3 ADD MSTORE PUSH9 0x1A58589B1955555251 PUSH1 0xBA SHL PUSH1 0x64 DUP3 ADD MSTORE PUSH1 0x84 SWAP1 REVERT JUMPDEST SWAP1 SWAP2 DUP8 DUP3 DUP2 RETURNDATASIZE DUP4 GT PUSH2 0x2BCA JUMPI JUMPDEST PUSH2 0x2BB6 DUP2 DUP4 PUSH2 0x27C9 JUMP JUMPDEST DUP2 ADD SUB SLT PUSH2 0x2BC7 JUMPI POP MLOAD SWAP1 CODESIZE PUSH2 0x2A02 JUMP JUMPDEST DUP1 REVERT JUMPDEST POP RETURNDATASIZE PUSH2 0x2BAC JUMP JUMPDEST DUP1 EXTCODESIZE ISZERO PUSH2 0x2C18 JUMPI PUSH32 0x360894A13BA1A3210667C828492DB98DCA3E2076CC3735A920A3CA505D382BBC DUP1 SLOAD PUSH1 0x1 PUSH1 0x1 PUSH1 0xA0 SHL SUB NOT AND PUSH1 0x1 PUSH1 0x1 PUSH1 0xA0 SHL SUB SWAP1 SWAP3 AND SWAP2 SWAP1 SWAP2 OR SWAP1 SSTORE JUMP JUMPDEST PUSH1 0x40 MLOAD PUSH3 0x461BCD PUSH1 0xE5 SHL DUP2 MSTORE PUSH1 0x20 PUSH1 0x4 DUP3 ADD MSTORE PUSH1 0x2D PUSH1 0x24 DUP3 ADD MSTORE PUSH32 0x455243313936373A206E657720696D706C656D656E746174696F6E206973206E PUSH1 0x44 DUP3 ADD MSTORE PUSH13 0x1BDD08184818DBDB9D1C9858DD PUSH1 0x9A SHL PUSH1 0x64 DUP3 ADD MSTORE PUSH1 0x84 SWAP1 REVERT JUMPDEST RETURNDATASIZE ISZERO PUSH2 0x2C9E JUMPI RETURNDATASIZE SWAP1 PUSH2 0x2C84 DUP3 PUSH2 0x2801 JUMP JUMPDEST SWAP2 PUSH2 0x2C92 PUSH1 0x40 MLOAD SWAP4 DUP5 PUSH2 0x27C9 JUMP JUMPDEST DUP3 MSTORE RETURNDATASIZE PUSH1 0x0 PUSH1 0x20 DUP5 ADD RETURNDATACOPY JUMP JUMPDEST PUSH1 0x60 SWAP1 JUMP JUMPDEST SWAP2 SWAP3 SWAP1 ISZERO PUSH2 0x2D05 JUMPI POP DUP2 MLOAD ISZERO PUSH2 0x2CB7 JUMPI POP SWAP1 JUMP JUMPDEST EXTCODESIZE ISZERO PUSH2 0x2CC0 JUMPI SWAP1 JUMP JUMPDEST PUSH1 0x40 MLOAD PUSH3 0x461BCD PUSH1 0xE5 SHL DUP2 MSTORE PUSH1 0x20 PUSH1 0x4 DUP3 ADD MSTORE PUSH1 0x1D PUSH1 0x24 DUP3 ADD MSTORE PUSH32 0x416464726573733A2063616C6C20746F206E6F6E2D636F6E7472616374000000 PUSH1 0x44 DUP3 ADD MSTORE PUSH1 0x64 SWAP1 REVERT JUMPDEST DUP3 MLOAD SWAP1 SWAP2 POP ISZERO PUSH2 0x2D18 JUMPI POP DUP1 MLOAD SWAP1 PUSH1 0x20 ADD REVERT JUMPDEST PUSH1 0x40 MLOAD PUSH3 0x461BCD PUSH1 0xE5 SHL DUP2 MSTORE PUSH1 0x20 PUSH1 0x4 DUP3 ADD MSTORE SWAP1 DUP2 SWAP1 PUSH2 0x2D3C SWAP1 PUSH1 0x24 DUP4 ADD SWAP1 PUSH2 0x2D63 JUMP JUMPDEST SUB SWAP1 REVERT JUMPDEST PUSH1 0x0 JUMPDEST DUP4 DUP2 LT PUSH2 0x2D53 JUMPI POP POP PUSH1 0x0 SWAP2 ADD MSTORE JUMP JUMPDEST DUP2 DUP2 ADD MLOAD DUP4 DUP3 ADD MSTORE PUSH1 0x20 ADD PUSH2 0x2D43 JUMP JUMPDEST SWAP1 PUSH1 0x20 SWAP2 PUSH2 0x2D7C DUP2 MLOAD DUP1 SWAP3 DUP2 DUP6 MSTORE DUP6 DUP1 DUP7 ADD SWAP2 ADD PUSH2 0x2D40 JUMP JUMPDEST PUSH1 0x1F ADD PUSH1 0x1F NOT AND ADD ADD SWAP1 JUMP JUMPDEST SWAP1 DUP2 PUSH1 0x20 SWAP2 SUB SLT PUSH2 0x2D0 JUMPI MLOAD DUP1 ISZERO ISZERO DUP2 SUB PUSH2 0x2D0 JUMPI SWAP1 JUMP JUMPDEST PUSH1 0x97 SLOAD PUSH1 0x40 MLOAD PUSH4 0xD994D6D5 PUSH1 0xE0 SHL DUP2 MSTORE CALLER PUSH1 0x4 DUP3 ADD MSTORE SWAP1 PUSH1 0x20 SWAP1 DUP3 SWAP1 PUSH1 0x24 SWAP1 DUP3 SWAP1 PUSH1 0x1 PUSH1 0x1 PUSH1 0xA0 SHL SUB AND GAS STATICCALL SWAP1 DUP2 ISZERO PUSH2 0x14F7 JUMPI PUSH1 0x0 SWAP2 PUSH2 0x2DF5 JUMPI JUMPDEST POP ISZERO PUSH2 0x2DE3 JUMPI JUMP JUMPDEST PUSH1 0x40 MLOAD PUSH4 0x1DD1B1B5 PUSH1 0xE2 SHL DUP2 MSTORE PUSH1 0x4 SWAP1 REVERT JUMPDEST PUSH2 0x2E16 SWAP2 POP PUSH1 0x20 RETURNDATASIZE DUP2 GT PUSH2 0x2E1C JUMPI JUMPDEST PUSH2 0x2E0E DUP2 DUP4 PUSH2 0x27C9 JUMP JUMPDEST DUP2 ADD SWAP1 PUSH2 0x2D88 JUMP JUMPDEST CODESIZE PUSH2 0x2DDB JUMP JUMPDEST POP RETURNDATASIZE PUSH2 0x2E04 JUMP JUMPDEST PUSH1 0xFF PUSH1 0xCA SLOAD PUSH1 0x8 SHR AND PUSH2 0x2E32 JUMPI JUMP JUMPDEST PUSH1 0x40 MLOAD PUSH4 0x783BB6C9 PUSH1 0xE1 SHL DUP2 MSTORE PUSH1 0x4 SWAP1 REVERT JUMPDEST ISZERO PUSH2 0x2E4B JUMPI JUMP JUMPDEST PUSH1 0x40 MLOAD PUSH3 0x461BCD PUSH1 0xE5 SHL DUP2 MSTORE PUSH1 0x20 PUSH1 0x4 DUP3 ADD MSTORE PUSH1 0x2B PUSH1 0x24 DUP3 ADD MSTORE PUSH32 0x496E697469616C697A61626C653A20636F6E7472616374206973206E6F742069 PUSH1 0x44 DUP3 ADD MSTORE PUSH11 0x6E697469616C697A696E67 PUSH1 0xA8 SHL PUSH1 0x64 DUP3 ADD MSTORE PUSH1 0x84 SWAP1 REVERT JUMPDEST DUP1 PUSH1 0x0 MSTORE PUSH1 0x20 PUSH2 0x193 DUP2 MSTORE PUSH1 0x40 PUSH1 0x0 KECCAK256 CALLER PUSH1 0x0 MSTORE DUP2 MSTORE PUSH1 0xFF PUSH1 0x40 PUSH1 0x0 KECCAK256 SLOAD AND ISZERO PUSH2 0x2ECC JUMPI POP POP JUMP JUMPDEST PUSH2 0x2F62 PUSH1 0x48 PUSH2 0x2EE6 DUP4 PUSH2 0x2EE0 PUSH1 0x14 CALLER PUSH2 0x2F83 JUMP JUMPDEST SWAP6 PUSH2 0x2F83 JUMP JUMPDEST SWAP4 PUSH1 0x40 MLOAD SWAP5 DUP6 SWAP2 PUSH32 0x416363657373436F6E74726F6C3A206163636F756E7420000000000000000000 DUP7 DUP5 ADD MSTORE PUSH2 0x2F25 DUP2 MLOAD DUP1 SWAP3 DUP9 PUSH1 0x37 DUP8 ADD SWAP2 ADD PUSH2 0x2D40 JUMP JUMPDEST DUP3 ADD PUSH17 0x1034B99036B4B9B9B4B733903937B6329 PUSH1 0x7D SHL PUSH1 0x37 DUP3 ADD MSTORE PUSH2 0x2F53 DUP3 MLOAD DUP1 SWAP4 DUP9 DUP8 DUP6 ADD SWAP2 ADD PUSH2 0x2D40 JUMP JUMPDEST ADD SUB PUSH1 0x28 DUP2 ADD DUP6 MSTORE ADD DUP4 PUSH2 0x27C9 JUMP JUMPDEST PUSH2 0x2D3C PUSH1 0x40 MLOAD SWAP3 DUP4 SWAP3 PUSH3 0x461BCD PUSH1 0xE5 SHL DUP5 MSTORE PUSH1 0x4 DUP5 ADD MSTORE PUSH1 0x24 DUP4 ADD SWAP1 PUSH2 0x2D63 JUMP JUMPDEST PUSH1 0x1 SWAP2 DUP1 DUP4 SHL SWAP2 SWAP1 PUSH1 0x1 PUSH1 0x1 PUSH1 0xFF SHL SUB DUP2 AND SUB PUSH2 0x30C4 JUMPI PUSH1 0x2 DUP3 ADD SWAP3 DUP4 DUP4 GT PUSH2 0x30C4 JUMPI PUSH2 0x2FC8 PUSH2 0x2FB2 DUP6 PUSH2 0x2801 JUMP JUMPDEST SWAP5 PUSH2 0x2FC0 PUSH1 0x40 MLOAD SWAP7 DUP8 PUSH2 0x27C9 JUMP JUMPDEST DUP1 DUP7 MSTORE PUSH2 0x2801 JUMP JUMPDEST PUSH1 0x20 SWAP4 SWAP1 DUP6 DUP6 ADD SWAP1 PUSH1 0x1F NOT ADD CALLDATASIZE DUP3 CALLDATACOPY DUP6 MLOAD ISZERO PUSH2 0x30DA JUMPI PUSH1 0x30 SWAP1 MSTORE8 DUP5 MLOAD DUP3 LT ISZERO PUSH2 0x30DA JUMPI PUSH1 0x78 PUSH1 0x21 DUP7 ADD MSTORE8 DUP2 DUP2 ADD DUP1 SWAP2 GT PUSH2 0x30C4 JUMPI SWAP1 JUMPDEST DUP1 DUP3 GT PUSH2 0x3052 JUMPI POP POP PUSH2 0x300F JUMPI POP SWAP1 JUMP JUMPDEST PUSH1 0x64 SWAP1 PUSH1 0x40 MLOAD SWAP1 PUSH3 0x461BCD PUSH1 0xE5 SHL DUP3 MSTORE DUP1 PUSH1 0x4 DUP4 ADD MSTORE PUSH1 0x24 DUP3 ADD MSTORE PUSH32 0x537472696E67733A20686578206C656E67746820696E73756666696369656E74 PUSH1 0x44 DUP3 ADD MSTORE REVERT JUMPDEST SWAP1 SWAP2 PUSH1 0xF DUP2 AND PUSH1 0x10 DUP2 LT ISZERO PUSH2 0x30AF JUMPI DUP6 MLOAD DUP5 LT ISZERO PUSH2 0x30AF JUMPI PUSH16 0x181899199A1A9B1B9C1CB0B131B232B3 PUSH1 0x81 SHL SWAP1 BYTE DUP6 DUP5 ADD DUP6 ADD MSTORE8 PUSH1 0x4 SHR SWAP2 DUP1 ISZERO PUSH2 0x309A JUMPI PUSH1 0x0 NOT ADD SWAP1 PUSH2 0x2FFE JUMP JUMPDEST PUSH1 0x24 PUSH1 0x0 PUSH4 0x4E487B71 PUSH1 0xE0 SHL DUP2 MSTORE PUSH1 0x11 PUSH1 0x4 MSTORE REVERT JUMPDEST PUSH1 0x24 PUSH1 0x0 PUSH4 0x4E487B71 PUSH1 0xE0 SHL DUP2 MSTORE PUSH1 0x32 PUSH1 0x4 MSTORE REVERT JUMPDEST PUSH4 0x4E487B71 PUSH1 0xE0 SHL PUSH1 0x0 MSTORE PUSH1 0x11 PUSH1 0x4 MSTORE PUSH1 0x24 PUSH1 0x0 REVERT JUMPDEST PUSH4 0x4E487B71 PUSH1 0xE0 SHL PUSH1 0x0 MSTORE PUSH1 0x32 PUSH1 0x4 MSTORE PUSH1 0x24 PUSH1 0x0 REVERT JUMPDEST PUSH1 0xA DUP3 LT ISZERO PUSH2 0x3B6 JUMPI MSTORE JUMP JUMPDEST SWAP1 PUSH1 0x40 MLOAD PUSH2 0x310B PUSH1 0xA0 DUP3 PUSH2 0x27C9 JUMP JUMPDEST DUP3 SLOAD DUP2 MSTORE PUSH1 0x1 DUP4 ADD SLOAD PUSH1 0x20 DUP3 ADD MSTORE PUSH1 0x2 DUP4 ADD SLOAD PUSH1 0x1 PUSH1 0x1 PUSH1 0xA0 SHL SUB SWAP1 DUP2 AND PUSH1 0x40 DUP4 ADD MSTORE PUSH1 0x3 DUP5 ADD SLOAD DUP2 AND PUSH1 0x60 DUP4 ADD MSTORE PUSH1 0x4 SWAP1 SWAP4 ADD SLOAD SWAP1 SWAP3 AND PUSH1 0x80 DUP4 ADD MSTORE JUMP JUMPDEST SWAP2 SWAP1 DUP3 PUSH1 0x80 SWAP2 SUB SLT PUSH2 0x2D0 JUMPI PUSH1 0x40 MLOAD PUSH2 0x3164 PUSH1 0x80 DUP3 PUSH2 0x27C9 JUMP JUMPDEST PUSH1 0x60 DUP1 DUP3 SWAP5 DUP1 MLOAD DUP5 MSTORE PUSH1 0x20 DUP2 ADD MLOAD PUSH1 0x20 DUP6 ADD MSTORE PUSH1 0x40 DUP2 ADD MLOAD PUSH1 0x40 DUP6 ADD MSTORE ADD MLOAD SWAP2 ADD MSTORE JUMP JUMPDEST SWAP1 SWAP2 PUSH1 0xC0 DUP3 DUP5 SUB SLT PUSH2 0x2D0 JUMPI PUSH2 0x31A8 DUP3 MLOAD SWAP4 PUSH1 0x40 PUSH1 0x20 DUP6 ADD MLOAD SWAP5 ADD PUSH2 0x314A JUMP JUMPDEST SWAP1 JUMP JUMPDEST SWAP1 PUSH1 0x20 DUP3 MLOAD SWAP3 ADD MLOAD PUSH4 0xFFFFFFFF PUSH1 0xE0 SHL SWAP1 DUP2 DUP2 AND SWAP4 PUSH1 0x4 DUP2 LT PUSH2 0x31CD JUMPI POP POP POP JUMP JUMPDEST PUSH1 0x4 SUB PUSH1 0x3 SHL DUP3 SWAP1 SHL AND AND SWAP2 POP JUMP JUMPDEST SWAP1 SWAP2 PUSH1 0xA0 SWAP3 DUP3 MSTORE PUSH4 0xFFFFFFFF PUSH1 0xE0 SHL AND PUSH1 0x20 DUP3 ADD MSTORE PUSH1 0x60 PUSH1 0x40 DUP3 ADD MSTORE PUSH1 0xC PUSH1 0x60 DUP3 ADD MSTORE PUSH12 0x4C6F7720636F766572616765 PUSH1 0xA0 SHL PUSH1 0x80 DUP3 ADD MSTORE ADD SWAP1 JUMP JUMPDEST SWAP1 SWAP2 PUSH1 0xA0 SWAP3 DUP3 MSTORE PUSH4 0xFFFFFFFF PUSH1 0xE0 SHL AND PUSH1 0x20 DUP3 ADD MSTORE PUSH1 0x60 PUSH1 0x40 DUP3 ADD MSTORE PUSH1 0x15 PUSH1 0x60 DUP3 ADD MSTORE PUSH21 0x125B9CDD59999A58DA595B9D081C5858C81CD95B9D PUSH1 0x5A SHL PUSH1 0x80 DUP3 ADD MSTORE ADD SWAP1 JUMP JUMPDEST SWAP5 SWAP2 SWAP3 PUSH1 0xE0 SWAP7 SWAP4 SWAP10 SWAP9 SWAP8 SWAP5 SWAP2 SWAP10 PUSH2 0x100 DUP8 ADD SWAP11 DUP8 MSTORE PUSH1 0x20 DUP8 ADD MSTORE PUSH1 0x40 DUP7 ADD MSTORE PUSH1 0x60 DUP6 ADD MSTORE PUSH1 0x80 DUP5 ADD MSTORE PUSH1 0xA0 DUP4 ADD MSTORE PUSH1 0x1 DUP1 PUSH1 0xA0 SHL SUB AND PUSH1 0xC0 DUP3 ADD MSTORE ADD MSTORE JUMP JUMPDEST SWAP1 SWAP2 PUSH1 0xA0 SWAP3 DUP3 MSTORE PUSH4 0xFFFFFFFF PUSH1 0xE0 SHL AND PUSH1 0x20 DUP3 ADD MSTORE PUSH1 0x60 PUSH1 0x40 DUP3 ADD MSTORE PUSH1 0x1A PUSH1 0x60 DUP3 ADD MSTORE PUSH32 0x7141432062656C6F77206D696E696D756D207265717569726564000000000000 PUSH1 0x80 DUP3 ADD MSTORE ADD SWAP1 JUMP JUMPDEST SWAP1 PUSH1 0x40 MLOAD PUSH2 0x32F8 PUSH1 0xC0 DUP3 PUSH2 0x27C9 JUMP JUMPDEST DUP3 SLOAD PUSH1 0x1 PUSH1 0x1 PUSH1 0xA0 SHL SUB SWAP1 DUP2 AND DUP3 MSTORE PUSH1 0x1 DUP5 ADD SLOAD PUSH1 0x20 DUP4 ADD MSTORE PUSH1 0x2 DUP5 ADD SLOAD PUSH1 0x40 DUP4 ADD MSTORE PUSH1 0x3 DUP5 ADD SLOAD DUP2 AND PUSH1 0x60 DUP4 ADD MSTORE PUSH1 0x4 DUP5 ADD SLOAD DUP2 AND PUSH1 0x80 DUP4 ADD MSTORE PUSH1 0x5 SWAP1 SWAP4 ADD SLOAD SWAP1 SWAP3 AND PUSH1 0xA0 DUP4 ADD MSTORE JUMP JUMPDEST PUSH1 0xA0 SWAP1 DUP2 PUSH1 0x1 DUP1 DUP3 SHL SUB SWAP2 DUP3 DUP2 MLOAD AND DUP6 MSTORE PUSH1 0x20 DUP2 ADD MLOAD PUSH1 0x20 DUP7 ADD MSTORE PUSH1 0x40 DUP2 ADD MLOAD PUSH1 0x40 DUP7 ADD MSTORE DUP3 PUSH1 0x60 DUP3 ADD MLOAD AND PUSH1 0x60 DUP7 ADD MSTORE DUP3 PUSH1 0x80 DUP3 ADD MLOAD AND PUSH1 0x80 DUP7 ADD MSTORE ADD MLOAD AND SWAP2 ADD MSTORE JUMP JUMPDEST SWAP1 SWAP2 PUSH1 0xC0 SWAP3 DUP3 MSTORE PUSH4 0xFFFFFFFF PUSH1 0xE0 SHL AND PUSH1 0x20 DUP3 ADD MSTORE PUSH1 0x60 PUSH1 0x40 DUP3 ADD MSTORE PUSH1 0x24 PUSH1 0x60 DUP3 ADD MSTORE PUSH32 0x4D617820666C757820636170616369746F72206F7065726174696F6E20726561 PUSH1 0x80 DUP3 ADD MSTORE PUSH4 0x18DA1959 PUSH1 0xE2 SHL PUSH1 0xA0 DUP3 ADD MSTORE ADD SWAP1 JUMP JUMPDEST SWAP1 PUSH1 0x0 DUP3 DUP2 MSTORE PUSH2 0x260 SWAP3 PUSH1 0x20 SWAP1 DUP5 DUP3 MSTORE PUSH1 0x40 PUSH2 0x33FF DUP2 DUP6 KECCAK256 PUSH2 0x32E9 JUMP JUMPDEST PUSH2 0x25C DUP1 SLOAD DUP4 MLOAD PUSH4 0x5A21A619 PUSH1 0xE1 SHL DUP2 MSTORE PUSH1 0x1 PUSH1 0x1 PUSH1 0xA0 SHL SUB SWAP10 SWAP3 SWAP7 SWAP2 PUSH1 0xC0 SWAP1 DUP3 SWAP1 PUSH1 0xC4 SWAP1 DUP3 SWAP1 DUP13 SWAP1 DUP16 AND PUSH2 0x3437 PUSH1 0x4 DUP5 ADD DUP12 PUSH2 0x3343 JUMP JUMPDEST GAS CALL SWAP1 DUP2 DUP10 SWAP2 DUP11 SWAP4 PUSH2 0x36C7 JUMPI JUMPDEST POP PUSH2 0x364E JUMPI POP POP PUSH2 0x3453 PUSH2 0x2C73 JUMP JUMPDEST SWAP9 PUSH2 0x345D DUP11 PUSH2 0x31AB JUMP JUMPDEST SWAP7 PUSH1 0x1 PUSH1 0x1 PUSH1 0xE0 SHL SUB NOT DUP9 AND PUSH4 0x6DA41E5 PUSH1 0xE1 SHL DUP2 SUB PUSH2 0x34A4 JUMPI POP POP POP POP POP POP PUSH1 0x0 DUP1 MLOAD PUSH1 0x20 PUSH2 0x4A11 DUP4 CODECOPY DUP2 MLOAD SWAP2 MSTORE SWAP4 SWAP5 SWAP6 POP PUSH2 0x349E SWAP1 MLOAD SWAP3 DUP4 SWAP3 DUP4 PUSH2 0x3388 JUMP JUMPDEST SUB SWAP1 LOG1 SWAP1 JUMP JUMPDEST DUP7 SWAP10 SWAP9 DUP4 SWAP6 SWAP9 SWAP7 SWAP13 PUSH4 0xC39B739F PUSH1 0xE0 SWAP10 SWAP7 SWAP10 SHL DUP4 EQ PUSH1 0x0 EQ PUSH2 0x35BD JUMPI POP POP PUSH1 0xA0 PUSH1 0x0 DUP1 MLOAD PUSH1 0x20 PUSH2 0x4A11 DUP4 CODECOPY DUP2 MLOAD SWAP2 MSTORE SWAP2 DUP6 MLOAD SWAP1 DUP9 DUP3 MSTORE DUP10 DUP3 ADD MSTORE PUSH1 0x60 DUP7 DUP3 ADD MSTORE PUSH1 0x17 PUSH1 0x60 DUP3 ADD MSTORE PUSH32 0x496E73756666696369656E7420747020746F206D696E74000000000000000000 PUSH1 0x80 DUP3 ADD MSTORE LOG1 JUMPDEST SLOAD AND SWAP2 PUSH1 0x60 DUP11 ADD MLOAD AND SWAP9 ADD MLOAD SWAP8 DUP2 EXTCODESIZE ISZERO PUSH2 0x35B9 JUMPI DUP7 MLOAD PUSH4 0x58F32DE9 PUSH1 0xE0 SHL DUP2 MSTORE PUSH1 0x1 PUSH1 0x1 PUSH1 0xA0 SHL SUB SWAP1 SWAP2 AND PUSH1 0x4 DUP3 ADD MSTORE PUSH1 0x24 DUP2 ADD SWAP9 SWAP1 SWAP9 MSTORE DUP5 SWAP1 DUP9 SWAP1 DUP2 DUP4 DUP2 PUSH1 0x44 DUP2 ADD JUMPDEST SUB SWAP3 GAS CALL SWAP7 DUP8 ISZERO PUSH2 0x35AF JUMPI PUSH2 0x3596 SWAP7 SWAP8 PUSH2 0x359B JUMPI JUMPDEST POP JUMPDEST DUP4 MSTORE MSTORE KECCAK256 PUSH1 0x5 PUSH1 0x0 SWAP2 DUP3 DUP2 SSTORE DUP3 PUSH1 0x1 DUP3 ADD SSTORE DUP3 PUSH1 0x2 DUP3 ADD SSTORE DUP3 PUSH1 0x3 DUP3 ADD SSTORE DUP3 PUSH1 0x4 DUP3 ADD SSTORE ADD SSTORE JUMP JUMPDEST PUSH1 0x1 SWAP1 JUMP JUMPDEST DUP5 PUSH2 0x35A8 SWAP2 SWAP6 SWAP3 SWAP6 PUSH2 0x27C9 JUMP JUMPDEST SWAP3 CODESIZE PUSH2 0x356C JUMP JUMPDEST DUP6 MLOAD RETURNDATASIZE DUP7 DUP3 RETURNDATACOPY RETURNDATASIZE SWAP1 REVERT JUMPDEST DUP6 DUP1 REVERT JUMPDEST SWAP1 SWAP2 PUSH4 0xB63F1A7 PUSH1 0xE0 SHL DUP2 SUB PUSH2 0x35F6 JUMPI POP POP PUSH2 0x35EE PUSH1 0x0 DUP1 MLOAD PUSH1 0x20 PUSH2 0x4A11 DUP4 CODECOPY DUP2 MLOAD SWAP2 MSTORE SWAP2 DUP6 MLOAD SWAP2 DUP3 SWAP2 DUP10 DUP4 PUSH2 0x3218 JUMP JUMPDEST SUB SWAP1 LOG1 PUSH2 0x3513 JUMP JUMPDEST PUSH4 0x79121201 PUSH1 0xE0 SHL SUB PUSH2 0x3623 JUMPI POP PUSH2 0x35EE PUSH1 0x0 DUP1 MLOAD PUSH1 0x20 PUSH2 0x4A11 DUP4 CODECOPY DUP2 MLOAD SWAP2 MSTORE SWAP2 DUP6 MLOAD SWAP2 DUP3 SWAP2 DUP10 DUP4 PUSH2 0x31DC JUMP JUMPDEST PUSH1 0x0 DUP1 MLOAD PUSH1 0x20 PUSH2 0x4A31 DUP4 CODECOPY DUP2 MLOAD SWAP2 MSTORE SWAP2 POP PUSH2 0x35EE SWAP1 DUP6 MLOAD SWAP2 DUP3 SWAP2 DUP10 DUP4 MSTORE DUP8 DUP12 DUP5 ADD MSTORE DUP8 DUP4 ADD SWAP1 PUSH2 0x2D63 JUMP JUMPDEST DUP5 SWAP3 SWAP6 SWAP9 SWAP8 POP PUSH32 0x125247FDF990B9B419D4B4F895B1BB75BC485E3F8B813CF5557A4A12A56D054D SWAP1 DUP12 PUSH2 0x3596 SWAP12 SWAP13 SWAP4 SWAP6 SWAP9 SWAP7 MLOAD AND SWAP3 PUSH2 0x36BF DUP8 DUP13 DUP4 PUSH1 0x60 DUP10 ADD MLOAD AND SWAP8 DUP5 PUSH1 0x80 DUP3 ADD MLOAD AND SWAP10 DUP13 DUP3 ADD MLOAD SWAP6 DUP14 DUP3 MLOAD SWAP1 DUP4 ADD MLOAD SWAP2 PUSH1 0xA0 PUSH1 0x60 DUP8 DUP7 ADD MLOAD SWAP6 ADD MLOAD SWAP6 ADD MLOAD AND SWAP5 MLOAD SWAP9 DUP10 SWAP9 DUP10 PUSH2 0x325D JUMP JUMPDEST SUB SWAP1 LOG4 PUSH2 0x356E JUMP JUMPDEST SWAP1 SWAP3 POP PUSH2 0x36E2 SWAP2 POP PUSH1 0xC0 RETURNDATASIZE DUP2 GT PUSH2 0x1612 JUMPI PUSH2 0x1600 DUP2 DUP4 PUSH2 0x27C9 JUMP JUMPDEST SWAP3 SWAP1 POP CODESIZE PUSH2 0x3444 JUMP JUMPDEST SWAP1 PUSH1 0x0 DUP3 DUP2 MSTORE PUSH2 0x262 PUSH1 0x20 SWAP4 DUP2 DUP6 MSTORE PUSH1 0x40 PUSH2 0x3707 DUP2 DUP6 KECCAK256 PUSH2 0x32E9 JUMP JUMPDEST PUSH2 0x25C DUP1 SLOAD DUP4 MLOAD PUSH4 0xAD4E666D PUSH1 0xE0 SHL DUP2 MSTORE PUSH1 0x1 PUSH1 0x1 PUSH1 0xA0 SHL SUB SWAP10 SWAP3 SWAP7 SWAP4 SWAP2 PUSH1 0xC0 SWAP1 DUP3 SWAP1 PUSH1 0xC4 SWAP1 DUP3 SWAP1 DUP13 SWAP1 DUP16 AND PUSH2 0x3740 PUSH1 0x4 DUP5 ADD DUP10 PUSH2 0x3343 JUMP JUMPDEST GAS CALL SWAP1 DUP2 DUP10 SWAP2 DUP11 SWAP4 PUSH2 0x3912 JUMPI JUMPDEST POP PUSH2 0x38A1 JUMPI POP POP PUSH2 0x375C PUSH2 0x2C73 JUMP JUMPDEST SWAP6 PUSH2 0x3766 DUP8 PUSH2 0x31AB JUMP JUMPDEST SWAP7 PUSH1 0x1 PUSH1 0x1 PUSH1 0xE0 SHL SUB NOT DUP9 AND PUSH4 0x6DA41E5 PUSH1 0xE1 SHL DUP2 SUB PUSH2 0x37A7 JUMPI POP POP POP POP POP POP PUSH1 0x0 DUP1 MLOAD PUSH1 0x20 PUSH2 0x4A11 DUP4 CODECOPY DUP2 MLOAD SWAP2 MSTORE SWAP4 SWAP5 SWAP6 POP PUSH2 0x349E SWAP1 MLOAD SWAP3 DUP4 SWAP3 DUP4 PUSH2 0x3388 JUMP JUMPDEST SWAP1 DUP12 SWAP4 SWAP5 SWAP7 SWAP10 SWAP9 SWAP2 PUSH4 0x54CDE313 PUSH1 0xE0 SWAP10 SWAP8 SWAP10 SHL DUP2 EQ PUSH1 0x0 EQ PUSH2 0x3841 JUMPI POP POP PUSH2 0x37E4 PUSH1 0x0 DUP1 MLOAD PUSH1 0x20 PUSH2 0x4A11 DUP4 CODECOPY DUP2 MLOAD SWAP2 MSTORE SWAP2 DUP11 MLOAD SWAP2 DUP3 SWAP2 DUP9 DUP4 PUSH2 0x329C JUMP JUMPDEST SUB SWAP1 LOG1 JUMPDEST SLOAD AND SWAP1 DUP4 DUP10 PUSH1 0x60 DUP4 ADD MLOAD AND SWAP10 DUP3 MLOAD AND SWAP2 ADD MLOAD SWAP9 DUP3 EXTCODESIZE ISZERO PUSH2 0x383D JUMPI DUP8 MLOAD PUSH4 0xE2C5E99 PUSH1 0xE4 SHL DUP2 MSTORE PUSH1 0x1 PUSH1 0x1 PUSH1 0xA0 SHL SUB SWAP2 DUP3 AND PUSH1 0x4 DUP3 ADD MSTORE SWAP2 AND PUSH1 0x24 DUP3 ADD MSTORE PUSH1 0x44 DUP2 ADD SWAP9 SWAP1 SWAP9 MSTORE DUP5 SWAP1 DUP9 SWAP1 DUP2 DUP4 DUP2 PUSH1 0x64 DUP2 ADD PUSH2 0x3557 JUMP JUMPDEST DUP7 DUP1 REVERT JUMPDEST PUSH4 0x79121201 PUSH1 0xE0 SHL SUB PUSH2 0x3876 JUMPI POP PUSH2 0x386E PUSH1 0x0 DUP1 MLOAD PUSH1 0x20 PUSH2 0x4A11 DUP4 CODECOPY DUP2 MLOAD SWAP2 MSTORE SWAP2 DUP11 MLOAD SWAP2 DUP3 SWAP2 DUP9 DUP4 PUSH2 0x31DC JUMP JUMPDEST SUB SWAP1 LOG1 PUSH2 0x37E8 JUMP JUMPDEST PUSH1 0x0 DUP1 MLOAD PUSH1 0x20 PUSH2 0x4A31 DUP4 CODECOPY DUP2 MLOAD SWAP2 MSTORE SWAP2 POP PUSH2 0x386E SWAP1 DUP11 MLOAD SWAP2 DUP3 SWAP2 DUP9 DUP4 MSTORE DUP13 DUP11 DUP5 ADD MSTORE DUP13 DUP4 ADD SWAP1 PUSH2 0x2D63 JUMP JUMPDEST DUP11 SWAP2 SWAP4 SWAP6 SWAP9 SWAP8 POP PUSH32 0x625B9FC283A619F53BEB817D79B8AB044D60E307FD2AF4BB89FA5E9A24CE4EBC SWAP1 PUSH2 0x3596 SWAP11 SWAP12 DUP5 SWAP9 SWAP7 SWAP9 MLOAD AND SWAP3 PUSH2 0x36BF DUP8 DUP13 DUP4 PUSH1 0x60 DUP10 ADD MLOAD AND SWAP8 DUP5 PUSH1 0x80 DUP3 ADD MLOAD AND SWAP10 DUP13 DUP3 ADD MLOAD SWAP6 DUP14 DUP3 MLOAD SWAP1 DUP4 ADD MLOAD SWAP2 PUSH1 0xA0 PUSH1 0x60 DUP8 DUP7 ADD MLOAD SWAP6 ADD MLOAD SWAP6 ADD MLOAD AND SWAP5 MLOAD SWAP9 DUP10 SWAP9 DUP10 PUSH2 0x325D JUMP JUMPDEST SWAP1 SWAP3 POP PUSH2 0x392D SWAP2 POP PUSH1 0xC0 RETURNDATASIZE DUP2 GT PUSH2 0x1612 JUMPI PUSH2 0x1600 DUP2 DUP4 PUSH2 0x27C9 JUMP JUMPDEST SWAP3 SWAP1 POP CODESIZE PUSH2 0x374D JUMP JUMPDEST PUSH1 0xE0 DUP2 DUP4 SUB SLT PUSH2 0x2D0 JUMPI DUP1 MLOAD SWAP3 PUSH2 0x31A8 PUSH1 0x20 DUP4 ADD MLOAD SWAP4 PUSH1 0x60 PUSH1 0x40 DUP6 ADD MLOAD SWAP5 ADD PUSH2 0x314A JUMP JUMPDEST SWAP1 PUSH1 0x0 DUP3 DUP2 MSTORE PUSH2 0x263 DUP1 PUSH1 0x20 MSTORE PUSH1 0x40 SWAP4 PUSH2 0x3975 DUP6 DUP5 KECCAK256 PUSH2 0x32E9 JUMP JUMPDEST SWAP5 PUSH1 0x1 DUP1 PUSH1 0xA0 SHL SUB SWAP6 PUSH2 0x25C SWAP4 DUP6 PUSH1 0xE0 DUP10 DUP8 SLOAD AND PUSH1 0xC4 DUP7 MLOAD DUP1 SWAP5 DUP2 SWAP4 PUSH4 0x883D21CB DUP7 SHL DUP4 MSTORE PUSH2 0x39A7 PUSH1 0x4 DUP5 ADD DUP11 PUSH2 0x3343 JUMP JUMPDEST GAS CALL DUP8 SWAP2 DUP3 SWAP2 DUP3 SWAP2 DUP2 PUSH2 0x3BD1 JUMPI JUMPDEST POP PUSH2 0x3B56 JUMPI POP POP POP PUSH2 0x39C5 PUSH2 0x2C73 JUMP JUMPDEST SWAP8 PUSH2 0x39CF DUP10 PUSH2 0x31AB JUMP JUMPDEST SWAP6 PUSH1 0x1 PUSH1 0x1 PUSH1 0xE0 SHL SUB NOT DUP8 AND PUSH4 0x6DA41E5 PUSH1 0xE1 SHL DUP2 SUB PUSH2 0x3A0F JUMPI POP POP POP POP POP PUSH1 0x0 DUP1 MLOAD PUSH1 0x20 PUSH2 0x4A11 DUP4 CODECOPY DUP2 MLOAD SWAP2 MSTORE SWAP4 SWAP5 SWAP6 POP PUSH2 0x349E SWAP1 MLOAD SWAP3 DUP4 SWAP3 DUP4 PUSH2 0x3388 JUMP JUMPDEST SWAP7 DUP3 SWAP5 SWAP11 DUP7 SWAP10 SWAP9 PUSH4 0xB63F1A7 PUSH1 0xE0 SWAP10 SWAP9 SWAP7 SWAP10 SHL DUP2 EQ PUSH1 0x0 EQ PUSH2 0x3AF5 JUMPI POP POP PUSH2 0x3A4C PUSH1 0x0 DUP1 MLOAD PUSH1 0x20 PUSH2 0x4A11 DUP4 CODECOPY DUP2 MLOAD SWAP2 MSTORE SWAP2 DUP6 MLOAD SWAP2 DUP3 SWAP2 DUP10 DUP4 PUSH2 0x3218 JUMP JUMPDEST SUB SWAP1 LOG1 JUMPDEST SLOAD AND SWAP2 PUSH1 0x60 DUP10 ADD MLOAD AND SWAP8 ADD MLOAD SWAP7 DUP2 EXTCODESIZE ISZERO PUSH2 0x3AF1 JUMPI DUP6 MLOAD PUSH4 0x58F32DE9 PUSH1 0xE0 SHL DUP2 MSTORE PUSH1 0x1 PUSH1 0x1 PUSH1 0xA0 SHL SUB SWAP2 SWAP1 SWAP2 AND PUSH1 0x4 DUP3 ADD MSTORE PUSH1 0x24 DUP2 ADD SWAP8 SWAP1 SWAP8 MSTORE DUP4 SWAP1 DUP8 SWAP1 PUSH1 0x44 SWAP1 DUP3 SWAP1 DUP5 SWAP1 GAS CALL SWAP6 DUP7 ISZERO PUSH2 0x3AE7 JUMPI PUSH2 0x3596 SWAP6 SWAP7 PUSH2 0x3AD3 JUMPI JUMPDEST POP JUMPDEST DUP3 MSTORE PUSH1 0x20 MSTORE KECCAK256 PUSH1 0x5 PUSH1 0x0 SWAP2 DUP3 DUP2 SSTORE DUP3 PUSH1 0x1 DUP3 ADD SSTORE DUP3 PUSH1 0x2 DUP3 ADD SSTORE DUP3 PUSH1 0x3 DUP3 ADD SSTORE DUP3 PUSH1 0x4 DUP3 ADD SSTORE ADD SSTORE JUMP JUMPDEST DUP4 PUSH2 0x3AE0 SWAP2 SWAP5 SWAP3 SWAP5 PUSH2 0x27C9 JUMP JUMPDEST SWAP2 CODESIZE PUSH2 0x3AA7 JUMP JUMPDEST DUP5 MLOAD RETURNDATASIZE DUP6 DUP3 RETURNDATACOPY RETURNDATASIZE SWAP1 REVERT JUMPDEST DUP5 DUP1 REVERT JUMPDEST PUSH4 0x79121201 PUSH1 0xE0 SHL SUB PUSH2 0x3B2A JUMPI POP PUSH2 0x3B22 PUSH1 0x0 DUP1 MLOAD PUSH1 0x20 PUSH2 0x4A11 DUP4 CODECOPY DUP2 MLOAD SWAP2 MSTORE SWAP2 DUP6 MLOAD SWAP2 DUP3 SWAP2 DUP10 DUP4 PUSH2 0x31DC JUMP JUMPDEST SUB SWAP1 LOG1 PUSH2 0x3A50 JUMP JUMPDEST PUSH1 0x0 DUP1 MLOAD PUSH1 0x20 PUSH2 0x4A31 DUP4 CODECOPY DUP2 MLOAD SWAP2 MSTORE SWAP2 POP PUSH2 0x3B22 SWAP1 DUP6 MLOAD SWAP2 DUP3 SWAP2 DUP10 DUP4 MSTORE DUP8 PUSH1 0x20 DUP5 ADD MSTORE DUP8 DUP4 ADD SWAP1 PUSH2 0x2D63 JUMP JUMPDEST DUP6 SWAP9 SWAP8 POP SWAP1 PUSH32 0x3E9E02A94D7486426FCF2B05A27E911B8D1B61E2E1DCF103785512F46C84764 SWAP2 PUSH2 0x3BC9 DUP9 DUP8 SWAP6 SWAP7 SWAP10 SWAP9 DUP15 PUSH2 0x3596 SWAP15 SWAP16 SWAP10 MLOAD AND SWAP7 DUP10 PUSH1 0x60 DUP3 ADD MLOAD AND SWAP9 DUP11 PUSH1 0x80 DUP4 ADD MLOAD AND SWAP11 PUSH1 0x20 DUP4 ADD MLOAD SWAP8 DUP3 MLOAD SWAP1 PUSH1 0x20 DUP5 ADD MLOAD SWAP3 PUSH1 0xA0 PUSH1 0x60 DUP9 DUP8 ADD MLOAD SWAP7 ADD MLOAD SWAP7 ADD MLOAD AND SWAP6 MLOAD SWAP10 DUP11 SWAP10 DUP11 PUSH2 0x3BF6 JUMP JUMPDEST SUB SWAP1 LOG4 PUSH2 0x3AA9 JUMP JUMPDEST SWAP2 POP SWAP3 POP PUSH2 0x3BED SWAP2 POP PUSH1 0xE0 RETURNDATASIZE DUP2 GT PUSH2 0x1E6F JUMPI PUSH2 0x1E5C DUP2 DUP4 PUSH2 0x27C9 JUMP JUMPDEST SWAP4 SWAP1 POP CODESIZE PUSH2 0x39B5 JUMP JUMPDEST SWAP6 SWAP3 PUSH2 0x100 SWAP8 SWAP5 SWAP2 SWAP11 SWAP10 SWAP9 SWAP6 SWAP3 PUSH2 0x120 DUP9 ADD SWAP12 DUP9 MSTORE PUSH1 0x20 DUP9 ADD MSTORE PUSH1 0x40 DUP8 ADD MSTORE PUSH1 0x60 DUP7 ADD MSTORE PUSH1 0x80 DUP6 ADD MSTORE PUSH1 0xA0 DUP5 ADD MSTORE PUSH1 0xC0 DUP4 ADD MSTORE PUSH1 0x1 DUP1 PUSH1 0xA0 SHL SUB AND PUSH1 0xE0 DUP3 ADD MSTORE ADD MSTORE JUMP JUMPDEST SWAP1 PUSH1 0x40 MLOAD PUSH2 0x3C49 PUSH1 0xE0 DUP3 PUSH2 0x27C9 JUMP JUMPDEST DUP3 SLOAD PUSH1 0x1 PUSH1 0x1 PUSH1 0xA0 SHL SUB SWAP1 DUP2 AND DUP3 MSTORE PUSH1 0x1 DUP5 ADD SLOAD PUSH1 0x20 DUP4 ADD MSTORE PUSH1 0x2 DUP5 ADD SLOAD PUSH1 0x40 DUP4 ADD MSTORE PUSH1 0x3 DUP5 ADD SLOAD PUSH1 0x60 DUP4 ADD MSTORE PUSH1 0x4 DUP5 ADD SLOAD DUP2 AND PUSH1 0x80 DUP4 ADD MSTORE PUSH1 0x5 DUP5 ADD SLOAD DUP2 AND PUSH1 0xA0 DUP4 ADD MSTORE PUSH1 0x6 SWAP1 SWAP4 ADD SLOAD SWAP1 SWAP3 AND PUSH1 0xC0 DUP4 ADD MSTORE JUMP JUMPDEST PUSH1 0xC0 SWAP1 DUP2 PUSH1 0x1 DUP1 PUSH1 0xA0 SHL SUB SWAP2 DUP3 DUP2 MLOAD AND DUP6 MSTORE PUSH1 0x20 DUP2 ADD MLOAD PUSH1 0x20 DUP7 ADD MSTORE PUSH1 0x40 DUP2 ADD MLOAD PUSH1 0x40 DUP7 ADD MSTORE PUSH1 0x60 DUP2 ADD MLOAD PUSH1 0x60 DUP7 ADD MSTORE DUP3 PUSH1 0x80 DUP3 ADD MLOAD AND PUSH1 0x80 DUP7 ADD MSTORE DUP3 PUSH1 0xA0 DUP3 ADD MLOAD AND PUSH1 0xA0 DUP7 ADD MSTORE ADD MLOAD AND SWAP2 ADD MSTORE JUMP JUMPDEST SWAP1 PUSH1 0x0 DUP3 DUP2 MSTORE PUSH2 0x264 PUSH1 0x20 SWAP1 DUP1 DUP3 MSTORE PUSH1 0x40 SWAP1 PUSH2 0x3D0B DUP3 DUP6 KECCAK256 PUSH2 0x3C3A JUMP JUMPDEST PUSH2 0x25C DUP1 SLOAD DUP5 MLOAD PUSH4 0x3631A6BB PUSH1 0xE2 SHL DUP2 MSTORE PUSH1 0x1 PUSH1 0x1 PUSH1 0xA0 SHL SUB SWAP7 SWAP4 SWAP3 SWAP2 PUSH1 0xE0 SWAP1 DUP3 SWAP1 PUSH1 0xE4 SWAP1 DUP3 SWAP1 DUP13 SWAP1 DUP13 AND PUSH2 0x3D43 PUSH1 0x4 DUP5 ADD DUP11 PUSH2 0x3C9E JUMP JUMPDEST GAS CALL SWAP1 DUP9 DUP3 DUP11 SWAP3 DUP12 SWAP5 PUSH2 0x4047 JUMPI JUMPDEST POP PUSH2 0x3FCD JUMPI POP POP POP PUSH2 0x3D61 PUSH2 0x2C73 JUMP JUMPDEST SWAP6 PUSH2 0x3D6B DUP8 PUSH2 0x31AB JUMP JUMPDEST SWAP7 PUSH1 0x1 PUSH1 0x1 PUSH1 0xE0 SHL SUB NOT DUP9 AND SWAP1 PUSH4 0x6DA41E5 PUSH1 0xE1 SHL DUP3 SUB PUSH2 0x3DAD JUMPI POP POP POP POP POP POP POP SWAP4 PUSH2 0x349E PUSH1 0x0 DUP1 MLOAD PUSH1 0x20 PUSH2 0x4A11 DUP4 CODECOPY DUP2 MLOAD SWAP2 MSTORE SWAP4 SWAP5 SWAP6 MLOAD SWAP3 DUP4 SWAP3 DUP4 PUSH2 0x3388 JUMP JUMPDEST PUSH4 0x7A031DA3 PUSH1 0xE1 SWAP11 SWAP10 SWAP3 SWAP4 SWAP5 SWAP6 SWAP7 SWAP8 SWAP9 SWAP11 SHL DUP4 EQ PUSH1 0x0 EQ PUSH2 0x3F3C JUMPI POP POP PUSH1 0xA0 PUSH1 0x0 DUP1 MLOAD PUSH1 0x20 PUSH2 0x4A11 DUP4 CODECOPY DUP2 MLOAD SWAP2 MSTORE SWAP2 DUP10 MLOAD SWAP1 DUP13 DUP3 MSTORE DUP8 DUP3 ADD MSTORE PUSH1 0x60 DUP11 DUP3 ADD MSTORE PUSH1 0x14 PUSH1 0x60 DUP3 ADD MSTORE PUSH20 0x125B9CDD59999A58DA595B9D081D1C081CD95B9D PUSH1 0x62 SHL PUSH1 0x80 DUP3 ADD MSTORE LOG1 JUMPDEST DUP1 DUP3 SLOAD AND SWAP2 PUSH1 0x80 DUP5 ADD SWAP3 DUP3 DUP5 MLOAD AND SWAP1 DUP4 DUP7 MLOAD AND DUP11 DUP8 ADD MLOAD SWAP3 DUP3 EXTCODESIZE ISZERO PUSH2 0x3F38 JUMPI DUP12 MLOAD PUSH4 0xE2C5E99 PUSH1 0xE4 SHL DUP2 MSTORE PUSH1 0x1 PUSH1 0x1 PUSH1 0xA0 SHL SUB SWAP2 DUP3 AND PUSH1 0x4 DUP3 ADD MSTORE SWAP2 AND PUSH1 0x24 DUP3 ADD MSTORE PUSH1 0x44 DUP2 ADD SWAP3 SWAP1 SWAP3 MSTORE DUP9 SWAP1 DUP3 SWAP1 PUSH1 0x64 SWAP1 DUP3 SWAP1 DUP5 SWAP1 GAS CALL DUP1 ISZERO PUSH2 0x3F2E JUMPI PUSH2 0x3F16 JUMPI JUMPDEST POP SWAP1 DUP1 DUP6 SWAP3 SLOAD AND SWAP3 MLOAD AND SWAP3 ADD MLOAD SWAP2 DUP2 EXTCODESIZE ISZERO PUSH2 0x35B9 JUMPI DUP7 MLOAD PUSH4 0x53B16D17 PUSH1 0xE0 SHL DUP2 MSTORE PUSH1 0x1 PUSH1 0x1 PUSH1 0xA0 SHL SUB SWAP1 SWAP2 AND PUSH1 0x4 DUP3 ADD MSTORE PUSH1 0x24 DUP2 ADD SWAP3 SWAP1 SWAP3 MSTORE DUP5 SWAP1 DUP3 SWAP1 DUP2 DUP4 DUP2 PUSH1 0x44 DUP2 ADD JUMPDEST SUB SWAP3 GAS CALL DUP1 ISZERO PUSH2 0x35AF JUMPI PUSH2 0x3EFD JUMPI JUMPDEST POP PUSH2 0x3596 SWAP5 SWAP6 JUMPDEST DUP4 MSTORE MSTORE KECCAK256 PUSH1 0x6 PUSH1 0x0 SWAP2 DUP3 DUP2 SSTORE DUP3 PUSH1 0x1 DUP3 ADD SSTORE DUP3 PUSH1 0x2 DUP3 ADD SSTORE DUP3 PUSH1 0x3 DUP3 ADD SSTORE DUP3 PUSH1 0x4 DUP3 ADD SSTORE DUP3 PUSH1 0x5 DUP3 ADD SSTORE ADD SSTORE JUMP JUMPDEST PUSH2 0x3F08 DUP5 DUP1 SWAP3 PUSH2 0x27C9 JUMP JUMPDEST PUSH2 0x3F12 JUMPI CODESIZE PUSH2 0x3EC8 JUMP JUMPDEST DUP3 DUP1 REVERT JUMPDEST SWAP2 DUP8 PUSH2 0x3F25 DUP3 SWAP4 SWAP10 DUP9 SWAP6 PUSH2 0x27C9 JUMP JUMPDEST SWAP8 SWAP2 SWAP3 POP PUSH2 0x3E74 JUMP JUMPDEST DUP10 MLOAD RETURNDATASIZE DUP11 DUP3 RETURNDATACOPY RETURNDATASIZE SWAP1 REVERT JUMPDEST DUP11 DUP1 REVERT JUMPDEST SWAP1 SWAP2 PUSH4 0x54CDE313 PUSH1 0xE0 SHL DUP2 SUB PUSH2 0x3F75 JUMPI POP POP PUSH2 0x3F6D PUSH1 0x0 DUP1 MLOAD PUSH1 0x20 PUSH2 0x4A11 DUP4 CODECOPY DUP2 MLOAD SWAP2 MSTORE SWAP2 DUP10 MLOAD SWAP2 DUP3 SWAP2 DUP14 DUP4 PUSH2 0x329C JUMP JUMPDEST SUB SWAP1 LOG1 PUSH2 0x3E12 JUMP JUMPDEST PUSH4 0x79121201 PUSH1 0xE0 SHL SUB PUSH2 0x3FA2 JUMPI POP PUSH2 0x3F6D PUSH1 0x0 DUP1 MLOAD PUSH1 0x20 PUSH2 0x4A11 DUP4 CODECOPY DUP2 MLOAD SWAP2 MSTORE SWAP2 DUP10 MLOAD SWAP2 DUP3 SWAP2 DUP14 DUP4 PUSH2 0x31DC JUMP JUMPDEST PUSH1 0x0 DUP1 MLOAD PUSH1 0x20 PUSH2 0x4A31 DUP4 CODECOPY DUP2 MLOAD SWAP2 MSTORE SWAP2 POP PUSH2 0x3F6D SWAP1 DUP10 MLOAD SWAP2 DUP3 SWAP2 DUP14 DUP4 MSTORE DUP12 DUP10 DUP5 ADD MSTORE DUP12 DUP4 ADD SWAP1 PUSH2 0x2D63 JUMP JUMPDEST DUP5 SWAP3 SWAP4 POP SWAP1 PUSH32 0x4D33A2F9C4F66A101333F7CA2AB718582E763C941FF6FC304D2D4408D43A8284 SWAP2 PUSH2 0x403F DUP14 DUP11 PUSH2 0x3596 SWAP15 SWAP16 SWAP10 SWAP11 SWAP12 SWAP14 SWAP13 DUP1 SWAP10 MLOAD AND SWAP7 DUP10 PUSH1 0x80 DUP3 ADD MLOAD AND SWAP9 DUP11 PUSH1 0xA0 DUP4 ADD MLOAD AND SWAP11 DUP14 DUP1 DUP5 ADD MLOAD SWAP8 DUP4 MLOAD SWAP2 DUP5 ADD MLOAD SWAP3 PUSH1 0xC0 PUSH1 0x60 DUP9 DUP8 ADD MLOAD SWAP7 ADD MLOAD SWAP7 ADD MLOAD AND SWAP6 MLOAD SWAP10 DUP11 SWAP10 DUP11 PUSH2 0x3BF6 JUMP JUMPDEST SUB SWAP1 LOG4 PUSH2 0x3ECF JUMP JUMPDEST SWAP2 POP SWAP3 POP PUSH2 0x4063 SWAP2 POP PUSH1 0xE0 RETURNDATASIZE DUP2 GT PUSH2 0x1E6F JUMPI PUSH2 0x1E5C DUP2 DUP4 PUSH2 0x27C9 JUMP JUMPDEST SWAP3 SWAP1 POP SWAP1 SWAP2 SWAP3 CODESIZE PUSH2 0x3D51 JUMP JUMPDEST SWAP1 SWAP2 PUSH1 0xA0 SWAP3 DUP3 MSTORE PUSH4 0xFFFFFFFF PUSH1 0xE0 SHL AND PUSH1 0x20 DUP3 ADD MSTORE PUSH1 0x60 PUSH1 0x40 DUP3 ADD MSTORE PUSH1 0x1A PUSH1 0x60 DUP3 ADD MSTORE PUSH32 0x7154702062656C6F77206D696E696D756D207265717569726564000000000000 PUSH1 0x80 DUP3 ADD MSTORE ADD SWAP1 JUMP JUMPDEST SWAP1 PUSH1 0x0 DUP3 DUP2 MSTORE PUSH2 0x265 PUSH1 0x20 SWAP1 DUP1 DUP3 MSTORE PUSH1 0x40 SWAP1 PUSH2 0x40D9 DUP3 DUP6 KECCAK256 PUSH2 0x3C3A JUMP JUMPDEST PUSH2 0x25C DUP1 SLOAD DUP5 MLOAD PUSH4 0x12BCE9BF PUSH1 0xE2 SHL DUP2 MSTORE PUSH1 0x1 PUSH1 0x1 PUSH1 0xA0 SHL SUB SWAP7 SWAP4 SWAP3 SWAP2 PUSH1 0xE0 SWAP1 DUP3 SWAP1 PUSH1 0xE4 SWAP1 DUP3 SWAP1 DUP13 SWAP1 DUP13 AND PUSH2 0x4111 PUSH1 0x4 DUP5 ADD DUP11 PUSH2 0x3C9E JUMP JUMPDEST GAS CALL SWAP1 DUP2 DUP10 SWAP2 DUP11 SWAP4 PUSH2 0x4378 JUMPI JUMPDEST POP PUSH2 0x4307 JUMPI POP POP PUSH2 0x412D PUSH2 0x2C73 JUMP JUMPDEST SWAP6 PUSH2 0x4137 DUP8 PUSH2 0x31AB JUMP JUMPDEST SWAP7 PUSH1 0x1 PUSH1 0x1 PUSH1 0xE0 SHL SUB NOT DUP9 AND PUSH4 0x6DA41E5 PUSH1 0xE1 SHL DUP2 SUB PUSH2 0x4178 JUMPI POP POP POP POP POP POP POP SWAP4 PUSH2 0x349E PUSH1 0x0 DUP1 MLOAD PUSH1 0x20 PUSH2 0x4A11 DUP4 CODECOPY DUP2 MLOAD SWAP2 MSTORE SWAP4 SWAP5 SWAP6 MLOAD SWAP3 DUP4 SWAP3 DUP4 PUSH2 0x3388 JUMP JUMPDEST PUSH4 0xB63F1A7 PUSH1 0xE0 SWAP11 SWAP10 SWAP4 SWAP5 SWAP6 SWAP7 SWAP8 SWAP9 SWAP11 SHL DUP2 EQ PUSH1 0x0 EQ PUSH2 0x4278 JUMPI POP POP PUSH2 0x41B3 PUSH1 0x0 DUP1 MLOAD PUSH1 0x20 PUSH2 0x4A11 DUP4 CODECOPY DUP2 MLOAD SWAP2 MSTORE SWAP2 DUP10 MLOAD SWAP2 DUP3 SWAP2 DUP14 DUP4 PUSH2 0x3218 JUMP JUMPDEST SUB SWAP1 LOG1 JUMPDEST DUP1 DUP3 SLOAD AND SWAP2 PUSH1 0x80 DUP5 ADD SWAP3 DUP3 DUP5 MLOAD AND SWAP1 DUP7 DUP7 ADD MLOAD SWAP2 DUP2 EXTCODESIZE ISZERO PUSH2 0x4274 JUMPI DUP11 MLOAD PUSH4 0x53B16D17 PUSH1 0xE0 SHL DUP2 MSTORE PUSH1 0x1 PUSH1 0x1 PUSH1 0xA0 SHL SUB SWAP1 SWAP2 AND PUSH1 0x4 DUP3 ADD MSTORE PUSH1 0x24 DUP2 ADD SWAP3 SWAP1 SWAP3 MSTORE DUP9 SWAP1 DUP3 SWAP1 DUP2 DUP4 DUP2 PUSH1 0x44 DUP2 ADD JUMPDEST SUB SWAP3 GAS CALL DUP1 ISZERO PUSH2 0x3F2E JUMPI PUSH2 0x425B JUMPI JUMPDEST POP SWAP1 DUP1 PUSH1 0x60 SWAP3 SLOAD AND SWAP3 MLOAD AND SWAP3 ADD MLOAD SWAP2 DUP2 EXTCODESIZE ISZERO PUSH2 0x35B9 JUMPI DUP7 MLOAD PUSH4 0x58F32DE9 PUSH1 0xE0 SHL DUP2 MSTORE PUSH1 0x1 PUSH1 0x1 PUSH1 0xA0 SHL SUB SWAP1 SWAP2 AND PUSH1 0x4 DUP3 ADD MSTORE PUSH1 0x24 DUP2 ADD SWAP3 SWAP1 SWAP3 MSTORE DUP5 SWAP1 DUP3 SWAP1 DUP2 DUP4 DUP2 PUSH1 0x44 DUP2 ADD PUSH2 0x3EB9 JUMP JUMPDEST SWAP2 DUP8 PUSH2 0x426B DUP3 SWAP4 SWAP10 PUSH1 0x60 SWAP6 PUSH2 0x27C9 JUMP JUMPDEST SWAP8 SWAP2 SWAP3 POP PUSH2 0x4211 JUMP JUMPDEST DUP10 DUP1 REVERT JUMPDEST PUSH4 0x272E3F59 PUSH1 0xE2 SHL DUP2 SUB PUSH2 0x42AF JUMPI POP POP PUSH2 0x42A7 PUSH1 0x0 DUP1 MLOAD PUSH1 0x20 PUSH2 0x4A11 DUP4 CODECOPY DUP2 MLOAD SWAP2 MSTORE SWAP2 DUP10 MLOAD SWAP2 DUP3 SWAP2 DUP14 DUP4 PUSH2 0x406F JUMP JUMPDEST SUB SWAP1 LOG1 PUSH2 0x41B7 JUMP JUMPDEST PUSH4 0x79121201 PUSH1 0xE0 SHL SUB PUSH2 0x42DC JUMPI POP PUSH2 0x42A7 PUSH1 0x0 DUP1 MLOAD PUSH1 0x20 PUSH2 0x4A11 DUP4 CODECOPY DUP2 MLOAD SWAP2 MSTORE SWAP2 DUP10 MLOAD SWAP2 DUP3 SWAP2 DUP14 DUP4 PUSH2 0x31DC JUMP JUMPDEST PUSH1 0x0 DUP1 MLOAD PUSH1 0x20 PUSH2 0x4A31 DUP4 CODECOPY DUP2 MLOAD SWAP2 MSTORE SWAP2 POP PUSH2 0x42A7 SWAP1 DUP10 MLOAD SWAP2 DUP3 SWAP2 DUP14 DUP4 MSTORE DUP12 DUP10 DUP5 ADD MSTORE DUP12 DUP4 ADD SWAP1 PUSH2 0x2D63 JUMP JUMPDEST DUP4 SWAP3 POP PUSH32 0xF8DCB57698D7067DA58AB71C48CD2E3B329B69E7E9853F88630C2C69C2557C78 SWAP1 DUP9 PUSH2 0x3596 SWAP12 SWAP13 SWAP7 SWAP8 SWAP9 SWAP11 SWAP10 SWAP4 SWAP6 MLOAD AND SWAP3 PUSH2 0x403F DUP8 DUP13 DUP4 PUSH1 0x80 DUP10 ADD MLOAD AND SWAP8 DUP5 PUSH1 0xA0 DUP3 ADD MLOAD AND SWAP10 DUP13 DUP3 ADD MLOAD SWAP6 DUP14 DUP3 MLOAD SWAP1 DUP4 ADD MLOAD SWAP2 PUSH1 0xC0 PUSH1 0x60 DUP8 DUP7 ADD MLOAD SWAP6 ADD MLOAD SWAP6 ADD MLOAD AND SWAP5 MLOAD SWAP9 DUP10 SWAP9 DUP10 PUSH2 0x325D JUMP JUMPDEST SWAP1 SWAP3 POP PUSH2 0x4393 SWAP2 POP PUSH1 0xE0 RETURNDATASIZE DUP2 GT PUSH2 0x1E6F JUMPI PUSH2 0x1E5C DUP2 DUP4 PUSH2 0x27C9 JUMP JUMPDEST SWAP3 POP POP SWAP1 SWAP2 CODESIZE PUSH2 0x411E JUMP JUMPDEST SWAP1 PUSH1 0x0 DUP3 DUP2 MSTORE PUSH2 0x266 PUSH1 0x20 SWAP1 DUP1 DUP3 MSTORE PUSH1 0x40 SWAP1 PUSH2 0x43BB DUP3 DUP6 KECCAK256 PUSH2 0x3C3A JUMP JUMPDEST PUSH2 0x25C DUP1 SLOAD DUP5 MLOAD PUSH4 0x5E272AD9 PUSH1 0xE1 SHL DUP2 MSTORE PUSH1 0x1 PUSH1 0x1 PUSH1 0xA0 SHL SUB SWAP7 SWAP4 SWAP3 SWAP2 PUSH1 0xE0 SWAP1 DUP3 SWAP1 PUSH1 0xE4 SWAP1 DUP3 SWAP1 DUP13 SWAP1 DUP13 AND PUSH2 0x43F3 PUSH1 0x4 DUP5 ADD DUP11 PUSH2 0x3C9E JUMP JUMPDEST GAS CALL SWAP1 DUP2 DUP10 SWAP2 DUP11 SWAP4 PUSH2 0x462E JUMPI JUMPDEST POP PUSH2 0x45BD JUMPI POP POP PUSH2 0x440F PUSH2 0x2C73 JUMP JUMPDEST SWAP6 PUSH2 0x4419 DUP8 PUSH2 0x31AB JUMP JUMPDEST SWAP7 PUSH1 0x1 PUSH1 0x1 PUSH1 0xE0 SHL SUB NOT DUP9 AND SWAP1 PUSH4 0x6DA41E5 PUSH1 0xE1 SHL DUP3 SUB PUSH2 0x445B JUMPI POP POP POP POP POP POP POP SWAP4 PUSH2 0x349E PUSH1 0x0 DUP1 MLOAD PUSH1 0x20 PUSH2 0x4A11 DUP4 CODECOPY DUP2 MLOAD SWAP2 MSTORE SWAP4 SWAP5 SWAP6 MLOAD SWAP3 DUP4 SWAP3 DUP4 PUSH2 0x3388 JUMP JUMPDEST PUSH4 0xB63F1A7 PUSH1 0xE0 SWAP11 SWAP10 SWAP3 SWAP4 SWAP5 SWAP6 SWAP7 SWAP8 SWAP9 SWAP11 SHL DUP4 EQ PUSH1 0x0 EQ PUSH2 0x44F6 JUMPI POP PUSH1 0x0 DUP1 MLOAD PUSH1 0x20 PUSH2 0x4A11 DUP4 CODECOPY DUP2 MLOAD SWAP2 MSTORE SWAP2 POP PUSH2 0x4498 SWAP1 DUP10 MLOAD SWAP2 DUP3 SWAP2 DUP14 DUP4 PUSH2 0x3218 JUMP JUMPDEST SUB SWAP1 LOG1 JUMPDEST DUP1 DUP3 SLOAD AND SWAP2 PUSH1 0x80 DUP5 ADD SWAP3 DUP3 DUP5 MLOAD AND SWAP1 DUP4 DUP7 MLOAD AND DUP8 DUP8 ADD MLOAD SWAP3 DUP3 EXTCODESIZE ISZERO PUSH2 0x3F38 JUMPI DUP12 MLOAD PUSH4 0xE2C5E99 PUSH1 0xE4 SHL DUP2 MSTORE PUSH1 0x1 PUSH1 0x1 PUSH1 0xA0 SHL SUB SWAP2 DUP3 AND PUSH1 0x4 DUP3 ADD MSTORE SWAP2 AND PUSH1 0x24 DUP3 ADD MSTORE PUSH1 0x44 DUP2 ADD SWAP3 SWAP1 SWAP3 MSTORE DUP9 SWAP1 DUP3 SWAP1 DUP2 DUP4 DUP2 PUSH1 0x64 DUP2 ADD PUSH2 0x4202 JUMP JUMPDEST PUSH4 0xF577BEF5 PUSH1 0xE0 SHL DUP4 SUB PUSH2 0x455B JUMPI POP POP PUSH1 0xA0 PUSH1 0x0 DUP1 MLOAD PUSH1 0x20 PUSH2 0x4A11 DUP4 CODECOPY DUP2 MLOAD SWAP2 MSTORE SWAP2 DUP10 MLOAD SWAP1 DUP13 DUP3 MSTORE DUP8 DUP3 ADD MSTORE PUSH1 0x60 DUP11 DUP3 ADD MSTORE PUSH1 0x1A PUSH1 0x60 DUP3 ADD MSTORE PUSH32 0x7154632062656C6F77206D696E696D756D207265717569726564000000000000 PUSH1 0x80 DUP3 ADD MSTORE LOG1 PUSH2 0x449C JUMP JUMPDEST SWAP1 SWAP2 PUSH4 0x79121201 PUSH1 0xE0 SHL SUB PUSH2 0x4592 JUMPI POP PUSH2 0x458A PUSH1 0x0 DUP1 MLOAD PUSH1 0x20 PUSH2 0x4A11 DUP4 CODECOPY DUP2 MLOAD SWAP2 MSTORE SWAP2 DUP10 MLOAD SWAP2 DUP3 SWAP2 DUP14 DUP4 PUSH2 0x31DC JUMP JUMPDEST SUB SWAP1 LOG1 PUSH2 0x449C JUMP JUMPDEST PUSH1 0x0 DUP1 MLOAD PUSH1 0x20 PUSH2 0x4A31 DUP4 CODECOPY DUP2 MLOAD SWAP2 MSTORE SWAP2 POP PUSH2 0x458A SWAP1 DUP10 MLOAD SWAP2 DUP3 SWAP2 DUP14 DUP4 MSTORE DUP12 DUP10 DUP5 ADD MSTORE DUP12 DUP4 ADD SWAP1 PUSH2 0x2D63 JUMP JUMPDEST DUP4 SWAP3 POP PUSH32 0x8AB42044CE8B230E021E5542EB53688D77443E50EE84CDA7917F6BDD833C697F SWAP1 DUP9 PUSH2 0x3596 SWAP12 SWAP13 SWAP7 SWAP8 SWAP9 SWAP11 SWAP10 SWAP4 SWAP6 MLOAD AND SWAP3 PUSH2 0x403F DUP8 DUP13 DUP4 PUSH1 0x80 DUP10 ADD MLOAD AND SWAP8 DUP5 PUSH1 0xA0 DUP3 ADD MLOAD AND SWAP10 DUP13 DUP3 ADD MLOAD SWAP6 DUP14 DUP3 MLOAD SWAP1 DUP4 ADD MLOAD SWAP2 PUSH1 0xC0 PUSH1 0x60 DUP8 DUP7 ADD MLOAD SWAP6 ADD MLOAD SWAP6 ADD MLOAD AND SWAP5 MLOAD SWAP9 DUP10 SWAP9 DUP10 PUSH2 0x325D JUMP JUMPDEST SWAP1 SWAP3 POP PUSH2 0x4649 SWAP2 POP PUSH1 0xE0 RETURNDATASIZE DUP2 GT PUSH2 0x1E6F JUMPI PUSH2 0x1E5C DUP2 DUP4 PUSH2 0x27C9 JUMP JUMPDEST SWAP3 POP POP SWAP1 SWAP2 CODESIZE PUSH2 0x4400 JUMP JUMPDEST CALLDATALOAD PUSH1 0x1 PUSH1 0x1 PUSH1 0xA0 SHL SUB DUP2 AND DUP2 SUB PUSH2 0x2D0 JUMPI SWAP1 JUMP JUMPDEST DUP2 CALLDATALOAD DUP2 SSTORE PUSH1 0x20 DUP3 ADD CALLDATALOAD PUSH1 0x1 DUP3 ADD SSTORE PUSH1 0x2 DUP2 ADD SWAP1 PUSH1 0x1 PUSH1 0x1 PUSH1 0xA0 SHL SUB SWAP1 PUSH2 0x46D1 SWAP1 PUSH1 0x80 SWAP1 PUSH1 0x4 SWAP1 DUP5 PUSH2 0x469B PUSH1 0x40 DUP10 ADD PUSH2 0x4654 JUMP JUMPDEST AND SWAP6 PUSH1 0x1 PUSH1 0x1 PUSH1 0x60 SHL SUB PUSH1 0xA0 SHL SWAP7 DUP8 DUP3 SLOAD AND OR SWAP1 SSTORE PUSH1 0x3 DUP2 ADD DUP6 PUSH2 0x46C1 PUSH1 0x60 DUP11 ADD PUSH2 0x4654 JUMP JUMPDEST AND DUP8 DUP3 SLOAD AND OR SWAP1 SSTORE ADD SWAP5 ADD PUSH2 0x4654 JUMP JUMPDEST AND SWAP1 DUP3 SLOAD AND OR SWAP1 SSTORE JUMP JUMPDEST PUSH1 0x0 NOT DUP2 EQ PUSH2 0x30C4 JUMPI PUSH1 0x1 ADD SWAP1 JUMP JUMPDEST PUSH1 0x1 PUSH1 0x1 PUSH1 0xA0 SHL SUB PUSH2 0x46D1 PUSH1 0xA0 PUSH1 0x5 DUP4 PUSH2 0x4703 DUP8 PUSH2 0x4654 JUMP JUMPDEST AND SWAP5 PUSH1 0x1 PUSH1 0x1 PUSH1 0x60 SHL SUB DUP4 SHL SWAP6 DUP7 DUP3 SLOAD AND OR DUP2 SSTORE PUSH1 0x20 DUP8 ADD CALLDATALOAD PUSH1 0x1 DUP3 ADD SSTORE PUSH1 0x40 DUP8 ADD CALLDATALOAD PUSH1 0x2 DUP3 ADD SSTORE PUSH1 0x3 DUP2 ADD DUP6 PUSH2 0x473C PUSH1 0x60 DUP11 ADD PUSH2 0x4654 JUMP JUMPDEST AND DUP8 DUP3 SLOAD AND OR SWAP1 SSTORE PUSH1 0x4 DUP2 ADD DUP6 PUSH2 0x46C1 PUSH1 0x80 DUP11 ADD PUSH2 0x4654 JUMP JUMPDEST PUSH1 0x1 PUSH1 0x1 PUSH1 0xA0 SHL SUB PUSH2 0x46D1 PUSH1 0xC0 PUSH1 0x6 DUP4 PUSH2 0x476E DUP8 PUSH2 0x4654 JUMP JUMPDEST AND SWAP5 PUSH1 0x1 PUSH1 0x1 PUSH1 0x60 SHL SUB PUSH1 0xA0 SHL SWAP6 DUP7 DUP3 SLOAD AND OR DUP2 SSTORE PUSH1 0x20 DUP8 ADD CALLDATALOAD PUSH1 0x1 DUP3 ADD SSTORE PUSH1 0x40 DUP8 ADD CALLDATALOAD PUSH1 0x2 DUP3 ADD SSTORE PUSH1 0x60 DUP8 ADD CALLDATALOAD PUSH1 0x3 DUP3 ADD SSTORE PUSH1 0x4 DUP2 ADD DUP6 PUSH2 0x47B2 PUSH1 0x80 DUP11 ADD PUSH2 0x4654 JUMP JUMPDEST AND DUP8 DUP3 SLOAD AND OR SWAP1 SSTORE PUSH1 0x5 DUP2 ADD DUP6 PUSH2 0x46C1 PUSH1 0xA0 DUP11 ADD PUSH2 0x4654 JUMP JUMPDEST PUSH2 0x25E SLOAD PUSH2 0x25D SLOAD DUP2 EQ PUSH2 0x482A JUMPI PUSH1 0x0 MSTORE PUSH2 0x268 PUSH1 0x20 MSTORE PUSH1 0x20 PUSH1 0x40 PUSH1 0x0 KECCAK256 PUSH1 0x40 MLOAD SWAP1 PUSH2 0x47F8 PUSH1 0x40 DUP4 PUSH2 0x27C9 JUMP JUMPDEST SLOAD PUSH2 0x4806 PUSH1 0xFF DUP3 AND DUP4 PUSH2 0x30F0 JUMP JUMPDEST PUSH1 0x8 SHR SWAP2 DUP3 SWAP2 ADD MSTORE PUSH1 0x1 PUSH1 0x1 PUSH1 0x80 SHL SUB PUSH2 0x269 SLOAD AND NUMBER SUB SWAP1 NUMBER DUP3 GT PUSH2 0x30C4 JUMPI GT ISZERO SWAP1 JUMP JUMPDEST POP PUSH1 0x0 SWAP1 JUMP JUMPDEST SWAP1 PUSH1 0x0 SWAP2 DUP1 DUP4 MSTORE PUSH2 0x193 DUP1 PUSH1 0x20 MSTORE PUSH1 0x40 DUP5 KECCAK256 SWAP3 PUSH1 0x1 DUP1 PUSH1 0xA0 SHL SUB AND SWAP3 DUP4 DUP6 MSTORE PUSH1 0x20 MSTORE PUSH1 0xFF PUSH1 0x40 DUP6 KECCAK256 SLOAD AND ISZERO PUSH2 0x4865 JUMPI POP POP POP POP JUMP JUMPDEST DUP2 DUP5 MSTORE PUSH1 0x20 MSTORE PUSH1 0x40 DUP4 KECCAK256 DUP3 DUP5 MSTORE PUSH1 0x20 MSTORE PUSH1 0x40 DUP4 KECCAK256 PUSH1 0x1 PUSH1 0xFF NOT DUP3 SLOAD AND OR SWAP1 SSTORE PUSH32 0x2F8788117E7EFF1D82E926EC794901D17C78024A50270940304540A733656F0D CALLER SWAP4 DUP1 LOG4 CODESIZE DUP1 DUP1 DUP1 PUSH2 0x2886 JUMP JUMPDEST CALLVALUE DUP2 SUB PUSH2 0x2534 JUMPI POP JUMP JUMPDEST PUSH2 0x4955 PUSH1 0x5 PUSH2 0x100 PUSH2 0x1F7 SWAP4 DUP1 CALLDATALOAD PUSH2 0x48D5 PUSH1 0x1 DUP8 PUSH2 0x27B1 JUMP JUMPDEST SSTORE PUSH1 0x20 DUP2 ADD CALLDATALOAD PUSH2 0x48E6 PUSH1 0x2 DUP8 PUSH2 0x27B1 JUMP JUMPDEST SSTORE PUSH1 0x40 DUP2 ADD CALLDATALOAD PUSH2 0x48F7 PUSH1 0x3 DUP8 PUSH2 0x27B1 JUMP JUMPDEST SSTORE PUSH1 0x60 DUP2 ADD CALLDATALOAD PUSH2 0x4908 PUSH1 0x4 DUP8 PUSH2 0x27B1 JUMP JUMPDEST SSTORE PUSH1 0x80 DUP2 ADD CALLDATALOAD PUSH2 0x4919 PUSH1 0x9 DUP8 PUSH2 0x27B1 JUMP JUMPDEST SSTORE PUSH1 0xA0 DUP2 ADD CALLDATALOAD PUSH2 0x492A PUSH1 0x8 DUP8 PUSH2 0x27B1 JUMP JUMPDEST SSTORE PUSH1 0xC0 DUP2 ADD CALLDATALOAD PUSH2 0x493B PUSH1 0x7 DUP8 PUSH2 0x27B1 JUMP JUMPDEST SSTORE PUSH1 0xE0 DUP2 ADD CALLDATALOAD PUSH2 0x494C PUSH1 0x6 DUP8 PUSH2 0x27B1 JUMP JUMPDEST SSTORE ADD CALLDATALOAD SWAP3 PUSH2 0x27B1 JUMP JUMPDEST SSTORE JUMP JUMPDEST PUSH1 0x97 SLOAD PUSH1 0x40 DUP1 MLOAD PUSH4 0xD994D6D5 PUSH1 0xE0 SHL DUP2 MSTORE CALLER PUSH1 0x4 DUP3 ADD MSTORE SWAP1 SWAP3 SWAP2 PUSH1 0x20 SWAP1 DUP3 SWAP1 PUSH1 0x24 SWAP1 DUP3 SWAP1 PUSH1 0x1 PUSH1 0x1 PUSH1 0xA0 SHL SUB AND GAS STATICCALL SWAP1 DUP2 ISZERO PUSH2 0x4A05 JUMPI PUSH1 0x0 SWAP2 PUSH2 0x49E7 JUMPI JUMPDEST POP ISZERO SWAP1 DUP2 PUSH2 0x49B7 JUMPI JUMPDEST POP PUSH2 0x49A7 JUMPI POP JUMP JUMPDEST MLOAD PUSH4 0x1DD1B1B5 PUSH1 0xE2 SHL DUP2 MSTORE PUSH1 0x4 SWAP1 REVERT JUMPDEST SWAP1 POP PUSH1 0x0 MSTORE PUSH2 0x193 PUSH1 0x20 MSTORE PUSH1 0x1 DUP2 PUSH1 0x0 KECCAK256 ADD SLOAD PUSH1 0x0 MSTORE DUP1 PUSH1 0x0 KECCAK256 CALLER PUSH1 0x0 MSTORE PUSH1 0x20 MSTORE PUSH1 0xFF DUP2 PUSH1 0x0 KECCAK256 SLOAD AND ISZERO CODESIZE PUSH2 0x499F JUMP JUMPDEST PUSH2 0x49FF SWAP2 POP PUSH1 0x20 RETURNDATASIZE DUP2 GT PUSH2 0x2E1C JUMPI PUSH2 0x2E0E DUP2 DUP4 PUSH2 0x27C9 JUMP JUMPDEST CODESIZE PUSH2 0x4996 JUMP JUMPDEST DUP4 MLOAD RETURNDATASIZE PUSH1 0x0 DUP3 RETURNDATACOPY RETURNDATASIZE SWAP1 REVERT INVALID JUMPDEST 0xBE 0xBB PUSH5 0xD62396F99C 0xAE 0x4B EXTCODESIZE PUSH25 0xD9386CB0F2893AAB6A69F27EB61F8E7C29775E3EA497186958 0xEC PUSH4 0x8834F65E 0xC5 0xA5 PUSH18 0xC2B2E877E5D59A76804EC0448FAC7829BABF 0xA5 0xD4 EXP 0xB5 SWAP6 STATICCALL PUSH2 0x3B17 JUMP PUSH15 0xA5E38A5CAC79A71F09CE1435246DB2 0xE6 DUP1 PC AND 0xC2 PUSH30 0x5E686862EC2250829EB6DEE4A7CB0834865072F135485C874D3BBBE39BDF 0xDB LOG2 PUSH5 0x6970667358 0x22 SLT KECCAK256 0xBB 0x21 0x4B 0xD 0xB1 0xD8 GASPRICE CHAINID PUSH26 0x3C1FDEB1FEDABE9B112762B26C666CEB01054EF928374964736F PUSH13 0x6343000814003360A080604052 CALLVALUE PUSH2 0xDC JUMPI ADDRESS PUSH1 0x80 MSTORE PUSH1 0x0 SLOAD SWAP1 PUSH1 0xFF DUP3 PUSH1 0x8 SHR AND PUSH2 0x8A JUMPI POP PUSH1 0xFF DUP1 DUP3 AND SUB PUSH2 0x4F JUMPI JUMPDEST PUSH1 0x40 MLOAD PUSH2 0x21B1 SWAP1 DUP2 PUSH2 0xE2 DUP3 CODECOPY PUSH1 0x80 MLOAD DUP2 DUP2 DUP2 PUSH2 0xC9F ADD MSTORE DUP2 DUP2 PUSH2 0xDBA ADD MSTORE PUSH2 0xF91 ADD MSTORE RETURN JUMPDEST PUSH1 0xFF SWAP1 DUP2 NOT AND OR PUSH1 0x0 SSTORE PUSH32 0x7F26B83FF96E1F2B6A682F133852F6798A09C465DA95921460CEFB3847402498 PUSH1 0x20 PUSH1 0x40 MLOAD PUSH1 0xFF DUP2 MSTORE LOG1 CODESIZE PUSH2 0x29 JUMP JUMPDEST PUSH3 0x461BCD PUSH1 0xE5 SHL DUP2 MSTORE PUSH1 0x20 PUSH1 0x4 DUP3 ADD MSTORE PUSH1 0x27 PUSH1 0x24 DUP3 ADD MSTORE PUSH32 0x496E697469616C697A61626C653A20636F6E747261637420697320696E697469 PUSH1 0x44 DUP3 ADD MSTORE PUSH7 0x616C697A696E67 PUSH1 0xC8 SHL PUSH1 0x64 DUP3 ADD MSTORE PUSH1 0x84 SWAP1 REVERT JUMPDEST PUSH1 0x0 DUP1 REVERT INVALID PUSH1 0x80 PUSH1 0x40 SWAP1 DUP1 DUP3 MSTORE PUSH1 0x4 SWAP1 DUP2 CALLDATASIZE LT ISZERO PUSH2 0x17 JUMPI PUSH1 0x0 DUP1 REVERT JUMPDEST PUSH1 0x0 SWAP3 DUP4 CALLDATALOAD PUSH1 0xE0 SHR SWAP2 DUP3 PUSH4 0x1FFC9A7 EQ PUSH2 0x1315 JUMPI POP DUP2 PUSH4 0x6FDDE03 EQ PUSH2 0x126B JUMPI DUP2 PUSH4 0x95EA7B3 EQ PUSH2 0x1235 JUMPI DUP2 PUSH4 0xC340A24 EQ PUSH2 0x120B JUMPI DUP2 PUSH4 0x18160DDD EQ PUSH2 0x11EC JUMPI DUP2 PUSH4 0x23B872DD EQ PUSH2 0x1118 JUMPI DUP2 PUSH4 0x248A9CA3 EQ PUSH2 0x10EC JUMPI DUP2 PUSH4 0x2F2FF15D EQ PUSH2 0x10A5 JUMPI DUP2 PUSH4 0x313CE567 EQ PUSH2 0x1089 JUMPI DUP2 PUSH4 0x36568ABE EQ PUSH2 0xFF6 JUMPI DUP4 DUP3 PUSH4 0x3659CFE6 EQ PUSH2 0xF5F JUMPI POP DUP2 PUSH4 0x39509351 EQ PUSH2 0xF0D JUMPI DUP2 PUSH4 0x40C10F19 EQ PUSH2 0xE1D JUMPI DUP2 PUSH4 0x4F1EF286 EQ PUSH2 0xD5E JUMPI DUP2 PUSH4 0x52D1902D EQ PUSH2 0xC8A JUMPI DUP2 PUSH4 0x70A08231 EQ PUSH2 0xC4F JUMPI DUP2 PUSH4 0x83D2230D EQ PUSH2 0xB14 JUMPI DUP2 PUSH4 0x8F15B414 EQ PUSH2 0x63C JUMPI DUP2 PUSH4 0x9010D07C EQ PUSH2 0x5FA JUMPI DUP2 PUSH4 0x91D14854 EQ PUSH2 0x5AE JUMPI DUP2 PUSH4 0x95D89B41 EQ PUSH2 0x4CD JUMPI DUP2 PUSH4 0x9DC29FAC EQ PUSH2 0x37F JUMPI DUP2 PUSH4 0xA217FDDF EQ PUSH2 0x364 JUMPI DUP2 PUSH4 0xA457C2D7 EQ PUSH2 0x2BB JUMPI DUP2 PUSH4 0xA9059CBB EQ PUSH2 0x27B JUMPI DUP2 PUSH4 0xCA15C873 EQ PUSH2 0x252 JUMPI DUP2 PUSH4 0xD547741F EQ PUSH2 0x208 JUMPI DUP2 PUSH4 0xDD62ED3E EQ PUSH2 0x1AE JUMPI POP PUSH4 0xE4C0AAF4 EQ PUSH2 0x167 JUMPI PUSH1 0x0 DUP1 REVERT JUMPDEST CALLVALUE PUSH2 0x1AA JUMPI PUSH1 0x20 CALLDATASIZE PUSH1 0x3 NOT ADD SLT PUSH2 0x1AA JUMPI CALLDATALOAD PUSH1 0x1 PUSH1 0x1 PUSH1 0xA0 SHL SUB DUP2 AND SWAP1 DUP2 SWAP1 SUB PUSH2 0x1AA JUMPI PUSH2 0x193 PUSH2 0x207F JUMP JUMPDEST PUSH2 0x191 DUP1 SLOAD PUSH1 0x1 PUSH1 0x1 PUSH1 0xA0 SHL SUB NOT AND SWAP1 SWAP2 OR SWAP1 SSTORE DUP1 RETURN JUMPDEST POP DUP1 REVERT JUMPDEST SWAP2 SWAP1 POP CALLVALUE PUSH2 0x204 JUMPI DUP2 PUSH1 0x3 NOT CALLDATASIZE ADD SLT PUSH2 0x204 JUMPI PUSH1 0x1 PUSH1 0x1 PUSH1 0xA0 SHL SUB SWAP1 CALLDATALOAD DUP2 DUP2 AND SWAP1 DUP2 SWAP1 SUB PUSH2 0x200 JUMPI PUSH1 0x24 CALLDATALOAD SWAP2 DUP3 AND DUP1 SWAP3 SUB PUSH2 0x200 JUMPI SWAP3 DUP3 SWAP2 PUSH1 0x20 SWAP5 DUP3 MSTORE PUSH1 0xCA DUP6 MSTORE DUP3 DUP3 KECCAK256 SWAP1 DUP3 MSTORE DUP5 MSTORE KECCAK256 SLOAD SWAP1 MLOAD SWAP1 DUP2 MSTORE RETURN JUMPDEST DUP4 DUP1 REVERT JUMPDEST DUP3 DUP1 REVERT JUMPDEST SWAP2 SWAP1 POP CALLVALUE PUSH2 0x204 JUMPI DUP2 PUSH1 0x3 NOT CALLDATASIZE ADD SLT PUSH2 0x204 JUMPI PUSH1 0x24 CALLDATALOAD SWAP1 CALLDATALOAD PUSH1 0x1 PUSH1 0x1 PUSH1 0xA0 SHL SUB DUP3 AND DUP3 SUB PUSH2 0x200 JUMPI PUSH2 0x24A PUSH1 0x1 PUSH2 0x24F SWAP5 DUP4 DUP8 MSTORE PUSH1 0x65 PUSH1 0x20 MSTORE DUP7 KECCAK256 ADD SLOAD PUSH2 0x150D JUMP JUMPDEST PUSH2 0x15EC JUMP JUMPDEST DUP1 RETURN JUMPDEST SWAP2 SWAP1 POP CALLVALUE PUSH2 0x204 JUMPI PUSH1 0x20 CALLDATASIZE PUSH1 0x3 NOT ADD SLT PUSH2 0x204 JUMPI PUSH1 0x20 SWAP3 DUP3 SWAP2 CALLDATALOAD DUP2 MSTORE PUSH1 0x97 DUP5 MSTORE KECCAK256 SLOAD SWAP1 MLOAD SWAP1 DUP2 MSTORE RETURN JUMPDEST SWAP2 SWAP1 POP CALLVALUE PUSH2 0x204 JUMPI DUP2 PUSH1 0x3 NOT CALLDATASIZE ADD SLT PUSH2 0x204 JUMPI CALLDATALOAD SWAP2 PUSH1 0x1 PUSH1 0x1 PUSH1 0xA0 SHL SUB DUP4 AND DUP4 SUB PUSH2 0x2B8 JUMPI POP PUSH2 0x2B1 PUSH1 0x20 SWAP3 PUSH1 0x24 CALLDATALOAD SWAP1 CALLER PUSH2 0x1A93 JUMP JUMPDEST MLOAD PUSH1 0x1 DUP2 MSTORE RETURN JUMPDEST DUP1 REVERT JUMPDEST DUP3 DUP5 CALLVALUE PUSH2 0x2B8 JUMPI DUP3 PUSH1 0x3 NOT CALLDATASIZE ADD SLT PUSH2 0x2B8 JUMPI DUP2 CALLDATALOAD SWAP2 PUSH1 0x1 PUSH1 0x1 PUSH1 0xA0 SHL SUB DUP4 AND SWAP2 DUP3 DUP5 SUB PUSH2 0x2B8 JUMPI DUP5 SWAP1 PUSH1 0x24 CALLDATALOAD SWAP4 CALLER DUP3 MSTORE PUSH1 0xCA PUSH1 0x20 MSTORE DUP3 DUP3 KECCAK256 SWAP1 DUP3 MSTORE PUSH1 0x20 MSTORE KECCAK256 SLOAD SWAP1 DUP3 DUP3 LT PUSH2 0x313 JUMPI PUSH1 0x20 DUP6 PUSH2 0x2B1 DUP6 DUP6 SUB DUP8 CALLER PUSH2 0x1C03 JUMP JUMPDEST PUSH1 0x84 SWAP1 PUSH1 0x20 DUP7 MLOAD SWAP2 PUSH3 0x461BCD PUSH1 0xE5 SHL DUP4 MSTORE DUP3 ADD MSTORE PUSH1 0x25 PUSH1 0x24 DUP3 ADD MSTORE PUSH32 0x45524332303A2064656372656173656420616C6C6F77616E63652062656C6F77 PUSH1 0x44 DUP3 ADD MSTORE PUSH5 0x207A65726F PUSH1 0xD8 SHL PUSH1 0x64 DUP3 ADD MSTORE REVERT JUMPDEST DUP4 SWAP1 CALLVALUE PUSH2 0x1AA JUMPI DUP2 PUSH1 0x3 NOT CALLDATASIZE ADD SLT PUSH2 0x1AA JUMPI MLOAD SWAP1 DUP2 MSTORE PUSH1 0x20 SWAP1 RETURN JUMPDEST DUP4 DUP4 CALLVALUE PUSH2 0x1AA JUMPI DUP3 PUSH1 0x3 NOT CALLDATASIZE ADD SLT PUSH2 0x1AA JUMPI DUP1 CALLDATALOAD PUSH1 0x1 PUSH1 0x1 PUSH1 0xA0 SHL SUB DUP2 AND SWAP2 SWAP1 DUP3 SWAP1 SUB PUSH2 0x204 JUMPI PUSH1 0x24 CALLDATALOAD SWAP1 PUSH2 0x3D3 PUSH32 0x3C11D16CBAFFD01DF69CE1C404F6340EE057498F5F00246190EA54220576A848 PUSH2 0x150D JUMP JUMPDEST DUP3 ISZERO PUSH2 0x480 JUMPI DUP3 DUP5 MSTORE PUSH1 0xC9 PUSH1 0x20 MSTORE DUP5 DUP5 KECCAK256 SLOAD SWAP1 DUP3 DUP3 LT PUSH2 0x432 JUMPI POP DUP2 DUP5 SWAP6 PUSH32 0xDDF252AD1BE2C89B69C2B068FC378DAA952BA7F163C4A11628F55A4DF523B3EF SWAP4 PUSH1 0x20 SWAP4 DUP7 DUP9 MSTORE PUSH1 0xC9 DUP6 MSTORE SUB DUP2 DUP8 KECCAK256 SSTORE DUP2 PUSH1 0xCB SLOAD SUB PUSH1 0xCB SSTORE MLOAD SWAP1 DUP2 MSTORE LOG3 DUP1 RETURN JUMPDEST PUSH1 0x84 SWAP1 PUSH1 0x20 DUP8 MLOAD SWAP2 PUSH3 0x461BCD PUSH1 0xE5 SHL DUP4 MSTORE DUP3 ADD MSTORE PUSH1 0x22 PUSH1 0x24 DUP3 ADD MSTORE PUSH32 0x45524332303A206275726E20616D6F756E7420657863656564732062616C616E PUSH1 0x44 DUP3 ADD MSTORE PUSH2 0x6365 PUSH1 0xF0 SHL PUSH1 0x64 DUP3 ADD MSTORE REVERT JUMPDEST PUSH1 0x84 SWAP1 PUSH1 0x20 DUP7 MLOAD SWAP2 PUSH3 0x461BCD PUSH1 0xE5 SHL DUP4 MSTORE DUP3 ADD MSTORE PUSH1 0x21 PUSH1 0x24 DUP3 ADD MSTORE PUSH32 0x45524332303A206275726E2066726F6D20746865207A65726F20616464726573 PUSH1 0x44 DUP3 ADD MSTORE PUSH1 0x73 PUSH1 0xF8 SHL PUSH1 0x64 DUP3 ADD MSTORE REVERT JUMPDEST DUP4 SWAP1 CALLVALUE PUSH2 0x1AA JUMPI DUP2 PUSH1 0x3 NOT CALLDATASIZE ADD SLT PUSH2 0x1AA JUMPI DUP1 MLOAD SWAP1 DUP3 PUSH1 0xCD SLOAD PUSH2 0x4EF DUP2 PUSH2 0x1A36 JUMP JUMPDEST DUP1 DUP6 MSTORE SWAP2 PUSH1 0x1 SWAP2 DUP1 DUP4 AND SWAP1 DUP2 ISZERO PUSH2 0x586 JUMPI POP PUSH1 0x1 EQ PUSH2 0x529 JUMPI JUMPDEST POP POP POP PUSH2 0x51B DUP3 PUSH2 0x525 SWAP5 SUB DUP4 PUSH2 0x13D2 JUMP JUMPDEST MLOAD SWAP2 DUP3 SWAP2 DUP3 PUSH2 0x13A6 JUMP JUMPDEST SUB SWAP1 RETURN JUMPDEST SWAP5 POP PUSH1 0xCD DUP6 MSTORE PUSH32 0x83978B4C69C48DD978AB43FE30F077615294F938FB7F936D9EB340E51EA7DB2E JUMPDEST DUP3 DUP7 LT PUSH2 0x56E JUMPI POP POP POP PUSH2 0x51B DUP3 PUSH1 0x20 PUSH2 0x525 SWAP6 DUP3 ADD ADD SWAP5 PUSH2 0x509 JUMP JUMPDEST DUP1 SLOAD PUSH1 0x20 DUP8 DUP8 ADD DUP2 ADD SWAP2 SWAP1 SWAP2 MSTORE SWAP1 SWAP6 ADD SWAP5 DUP2 ADD PUSH2 0x551 JUMP JUMPDEST PUSH2 0x525 SWAP8 POP DUP7 SWAP4 POP PUSH1 0x20 SWAP3 POP PUSH2 0x51B SWAP5 SWAP2 POP PUSH1 0xFF NOT AND DUP3 DUP5 ADD MSTORE ISZERO ISZERO PUSH1 0x5 SHL DUP3 ADD ADD SWAP5 PUSH2 0x509 JUMP JUMPDEST SWAP2 SWAP1 POP CALLVALUE PUSH2 0x204 JUMPI DUP2 PUSH1 0x3 NOT CALLDATASIZE ADD SLT PUSH2 0x204 JUMPI PUSH1 0x24 CALLDATALOAD PUSH1 0x1 PUSH1 0x1 PUSH1 0xA0 SHL SUB DUP2 AND SWAP2 SWAP1 DUP3 SWAP1 SUB PUSH2 0x200 JUMPI PUSH1 0x20 SWAP4 PUSH1 0xFF SWAP3 DUP5 SWAP3 CALLDATALOAD DUP3 MSTORE PUSH1 0x65 DUP7 MSTORE DUP3 DUP3 KECCAK256 SWAP1 DUP3 MSTORE DUP6 MSTORE KECCAK256 SLOAD AND SWAP1 MLOAD SWAP1 ISZERO ISZERO DUP2 MSTORE RETURN JUMPDEST SWAP2 SWAP1 POP CALLVALUE PUSH2 0x204 JUMPI DUP2 PUSH1 0x3 NOT CALLDATASIZE ADD SLT PUSH2 0x204 JUMPI PUSH1 0x20 SWAP3 PUSH2 0x626 SWAP2 CALLDATALOAD DUP2 MSTORE PUSH1 0x97 DUP5 MSTORE DUP3 PUSH1 0x24 CALLDATALOAD SWAP2 KECCAK256 PUSH2 0x1EED JUMP JUMPDEST SWAP1 SLOAD SWAP2 MLOAD SWAP2 PUSH1 0x1 DUP1 PUSH1 0xA0 SHL SUB SWAP2 PUSH1 0x3 SHL SHR AND DUP2 MSTORE RETURN JUMPDEST SWAP1 POP CALLVALUE PUSH2 0x204 JUMPI PUSH1 0x80 CALLDATASIZE PUSH1 0x3 NOT ADD SLT PUSH2 0x204 JUMPI PUSH8 0xFFFFFFFFFFFFFFFF SWAP2 DUP1 CALLDATALOAD DUP4 DUP2 GT PUSH2 0xB10 JUMPI PUSH2 0x66F SWAP1 CALLDATASIZE SWAP1 DUP4 ADD PUSH2 0x1462 JUMP JUMPDEST SWAP3 PUSH1 0x24 CALLDATALOAD DUP2 DUP2 GT PUSH2 0xB0C JUMPI PUSH2 0x687 SWAP1 CALLDATASIZE SWAP1 DUP5 ADD PUSH2 0x1462 JUMP JUMPDEST SWAP4 PUSH1 0x44 CALLDATALOAD SWAP2 PUSH1 0x1 PUSH1 0x1 PUSH1 0xA0 SHL SUB SWAP2 DUP3 DUP5 AND DUP5 SUB PUSH2 0xB08 JUMPI PUSH1 0x64 CALLDATALOAD SWAP3 DUP4 AND DUP1 SWAP4 SUB PUSH2 0xB08 JUMPI DUP8 SLOAD SWAP7 PUSH1 0xFF DUP9 PUSH1 0x8 SHR AND ISZERO SWAP6 DUP7 DUP1 SWAP8 PUSH2 0xAFB JUMPI JUMPDEST DUP1 ISZERO PUSH2 0xAE4 JUMPI JUMPDEST ISZERO PUSH2 0xA8A JUMPI PUSH1 0x1 SWAP9 DUP8 DUP11 PUSH1 0xFF NOT DUP4 AND OR DUP13 SSTORE PUSH2 0xA79 JUMPI JUMPDEST POP PUSH2 0x700 PUSH1 0xFF DUP12 SLOAD PUSH1 0x8 SHR AND PUSH2 0x6F2 DUP2 PUSH2 0x211B JUMP JUMPDEST PUSH2 0x6FB DUP2 PUSH2 0x211B JUMP JUMPDEST PUSH2 0x211B JUMP JUMPDEST DUP3 MLOAD DUP5 DUP2 GT PUSH2 0xA66 JUMPI DUP1 PUSH2 0x715 PUSH1 0xCC SLOAD PUSH2 0x1A36 JUMP JUMPDEST SWAP5 PUSH1 0x1F SWAP6 DUP7 DUP2 GT PUSH2 0x9F5 JUMPI JUMPDEST POP PUSH1 0x20 SWAP1 DUP14 DUP8 DUP5 GT PUSH1 0x1 EQ PUSH2 0x976 JUMPI SWAP3 PUSH2 0x96B JUMPI JUMPDEST POP POP PUSH1 0x0 NOT PUSH1 0x3 DUP4 SWAP1 SHL SHR NOT AND SWAP1 DUP11 SHL OR PUSH1 0xCC SSTORE JUMPDEST DUP2 MLOAD SWAP4 DUP5 GT PUSH2 0x958 JUMPI POP PUSH2 0x760 PUSH1 0xCD SLOAD PUSH2 0x1A36 JUMP JUMPDEST DUP3 DUP2 GT PUSH2 0x8F5 JUMPI JUMPDEST POP PUSH1 0x20 SWAP2 DUP4 GT PUSH1 0x1 EQ PUSH2 0x870 JUMPI PUSH2 0x824 SWAP5 SWAP4 SWAP3 SWAP2 DUP10 SWAP2 DUP4 PUSH2 0x865 JUMPI JUMPDEST POP POP PUSH1 0x0 NOT PUSH1 0x3 DUP4 SWAP1 SHL SHR NOT AND SWAP1 DUP8 SHL OR PUSH1 0xCD SSTORE JUMPDEST PUSH2 0x7B6 PUSH1 0xFF DUP9 SLOAD PUSH1 0x8 SHR AND PUSH2 0x7AD DUP2 PUSH2 0x211B JUMP JUMPDEST PUSH2 0x6F2 DUP2 PUSH2 0x211B JUMP JUMPDEST PUSH2 0x191 DUP1 SLOAD PUSH1 0x1 PUSH1 0x1 PUSH1 0xA0 SHL SUB NOT AND SWAP1 SWAP2 OR SWAP1 SSTORE PUSH2 0x7D4 DUP2 DUP8 PUSH2 0x1480 JUMP JUMPDEST PUSH2 0x7FE DUP2 PUSH32 0x9F2DF0FED2C77648DE5860A4CC508CD0818C85B8B8A1AB4CEEEF8D981C8956A6 PUSH2 0x1480 JUMP JUMPDEST PUSH32 0x3C11D16CBAFFD01DF69CE1C404F6340EE057498F5F00246190EA54220576A848 PUSH2 0x1480 JUMP JUMPDEST PUSH2 0x82C JUMPI DUP3 DUP1 RETURN JUMPDEST DUP3 SLOAD PUSH2 0xFF00 NOT AND DUP4 SSTORE MLOAD SWAP1 DUP2 MSTORE PUSH32 0x7F26B83FF96E1F2B6A682F133852F6798A09C465DA95921460CEFB3847402498 SWAP1 PUSH1 0x20 SWAP1 LOG1 CODESIZE DUP1 DUP3 DUP1 RETURN JUMPDEST ADD MLOAD SWAP1 POP CODESIZE DUP1 PUSH2 0x784 JUMP JUMPDEST PUSH1 0xCD DUP10 MSTORE SWAP4 SWAP3 SWAP2 DUP8 SWAP2 PUSH32 0x83978B4C69C48DD978AB43FE30F077615294F938FB7F936D9EB340E51EA7DB2E SWAP1 PUSH1 0x1F NOT DUP4 AND DUP12 JUMPDEST DUP2 DUP2 LT PUSH2 0x8DD JUMPI POP SWAP7 DUP4 PUSH2 0x824 SWAP9 LT PUSH2 0x8C4 JUMPI JUMPDEST POP POP POP DUP2 SHL ADD PUSH1 0xCD SSTORE PUSH2 0x799 JUMP JUMPDEST ADD MLOAD PUSH1 0x0 NOT PUSH1 0xF8 DUP5 PUSH1 0x3 SHL AND SHR NOT AND SWAP1 SSTORE CODESIZE DUP1 DUP1 PUSH2 0x8B6 JUMP JUMPDEST DUP3 DUP10 ADD MLOAD DUP5 SSTORE DUP12 SWAP6 SWAP1 SWAP4 ADD SWAP3 PUSH1 0x20 SWAP3 DUP4 ADD SWAP3 ADD PUSH2 0x8A2 JUMP JUMPDEST PUSH1 0xCD DUP11 MSTORE PUSH32 0x83978B4C69C48DD978AB43FE30F077615294F938FB7F936D9EB340E51EA7DB2E DUP4 DUP1 DUP7 ADD PUSH1 0x5 SHR DUP3 ADD SWAP3 PUSH1 0x20 DUP8 LT PUSH2 0x94F JUMPI JUMPDEST ADD PUSH1 0x5 SHR ADD SWAP1 DUP10 SWAP1 JUMPDEST DUP3 DUP2 LT PUSH2 0x944 JUMPI POP POP PUSH2 0x768 JUMP JUMPDEST DUP12 DUP2 SSTORE ADD DUP10 SWAP1 PUSH2 0x936 JUMP JUMPDEST SWAP3 POP DUP2 SWAP3 PUSH2 0x92D JUMP JUMPDEST PUSH4 0x4E487B71 PUSH1 0xE0 SHL DUP11 MSTORE PUSH1 0x41 SWAP1 MSTORE PUSH1 0x24 DUP10 REVERT JUMPDEST ADD MLOAD SWAP1 POP CODESIZE DUP1 PUSH2 0x736 JUMP JUMPDEST SWAP2 SWAP1 DUP14 SWAP5 POP PUSH1 0x1F NOT DUP5 AND PUSH1 0xCC DUP5 MSTORE PUSH32 0x47197230E1E4B29FC0BD84D7D78966C0925452AFF72A2A121538B102457E9EBE SWAP4 JUMPDEST DUP2 DUP2 LT PUSH2 0x9DD JUMPI POP DUP5 GT PUSH2 0x9C4 JUMPI JUMPDEST POP POP POP DUP2 SHL ADD PUSH1 0xCC SSTORE PUSH2 0x74B JUMP JUMPDEST ADD MLOAD PUSH1 0x0 NOT PUSH1 0xF8 DUP5 PUSH1 0x3 SHL AND SHR NOT AND SWAP1 SSTORE CODESIZE DUP1 DUP1 PUSH2 0x9B6 JUMP JUMPDEST DUP3 DUP5 ADD MLOAD DUP6 SSTORE DUP16 SWAP7 SWAP1 SWAP5 ADD SWAP4 PUSH1 0x20 SWAP4 DUP5 ADD SWAP4 ADD PUSH2 0x9A7 JUMP JUMPDEST SWAP1 SWAP2 POP PUSH1 0xCC DUP14 MSTORE PUSH32 0x47197230E1E4B29FC0BD84D7D78966C0925452AFF72A2A121538B102457E9EBE DUP7 DUP1 DUP6 ADD PUSH1 0x5 SHR DUP3 ADD SWAP3 PUSH1 0x20 DUP7 LT PUSH2 0xA5D JUMPI JUMPDEST DUP6 SWAP5 SWAP4 SWAP2 ADD PUSH1 0x5 SHR SWAP1 SWAP2 ADD SWAP1 DUP14 SWAP1 DUP16 JUMPDEST DUP4 DUP3 LT PUSH2 0xA4F JUMPI POP POP POP PUSH2 0x721 JUMP JUMPDEST DUP2 SSTORE DUP6 SWAP5 POP DUP15 SWAP2 ADD DUP16 PUSH2 0xA40 JUMP JUMPDEST SWAP3 POP DUP2 SWAP3 PUSH2 0xA30 JUMP JUMPDEST PUSH4 0x4E487B71 PUSH1 0xE0 SHL DUP12 MSTORE PUSH1 0x41 DUP3 MSTORE PUSH1 0x24 DUP12 REVERT JUMPDEST PUSH2 0xFFFF NOT AND PUSH2 0x101 OR DUP11 SSTORE CODESIZE PUSH2 0x6DD JUMP JUMPDEST PUSH1 0x84 SWAP1 PUSH1 0x20 DUP10 MLOAD SWAP2 PUSH3 0x461BCD PUSH1 0xE5 SHL DUP4 MSTORE DUP3 ADD MSTORE PUSH1 0x2E PUSH1 0x24 DUP3 ADD MSTORE PUSH32 0x496E697469616C697A61626C653A20636F6E747261637420697320616C726561 PUSH1 0x44 DUP3 ADD MSTORE PUSH14 0x191E481A5B9A5D1A585B1A5E9959 PUSH1 0x92 SHL PUSH1 0x64 DUP3 ADD MSTORE REVERT JUMPDEST POP ADDRESS EXTCODESIZE ISZERO DUP1 ISZERO PUSH2 0x6C6 JUMPI POP PUSH1 0x1 PUSH1 0xFF DUP11 AND EQ PUSH2 0x6C6 JUMP JUMPDEST POP PUSH1 0x1 PUSH1 0xFF DUP11 AND LT PUSH2 0x6BF JUMP JUMPDEST DUP8 DUP1 REVERT JUMPDEST DUP6 DUP1 REVERT JUMPDEST DUP5 DUP1 REVERT JUMPDEST SWAP1 POP CALLVALUE PUSH2 0x204 JUMPI PUSH1 0x20 CALLDATASIZE PUSH1 0x3 NOT ADD SLT PUSH2 0x204 JUMPI DUP2 CALLDATALOAD SWAP1 PUSH1 0x1 PUSH1 0x1 PUSH1 0xA0 SHL SUB DUP3 AND DUP3 SUB PUSH2 0x200 JUMPI DUP4 DUP1 MSTORE PUSH1 0x65 PUSH1 0x20 MSTORE PUSH2 0xB51 PUSH1 0x1 DUP3 DUP7 KECCAK256 ADD SLOAD PUSH2 0x150D JUMP JUMPDEST PUSH2 0xB5B DUP3 DUP6 PUSH2 0x1480 JUMP JUMPDEST PUSH32 0x9F2DF0FED2C77648DE5860A4CC508CD0818C85B8B8A1AB4CEEEF8D981C8956A6 PUSH2 0xB86 DUP4 DUP3 PUSH2 0x1480 JUMP JUMPDEST PUSH2 0xBB1 PUSH32 0x3C11D16CBAFFD01DF69CE1C404F6340EE057498F5F00246190EA54220576A848 SWAP4 DUP5 PUSH2 0x1480 JUMP JUMPDEST PUSH2 0xBBB CALLER DUP3 PUSH2 0x15EC JUMP JUMPDEST PUSH2 0xBC5 CALLER DUP5 PUSH2 0x15EC JUMP JUMPDEST PUSH2 0xBCF CALLER DUP7 PUSH2 0x15EC JUMP JUMPDEST DUP5 DUP1 MSTORE PUSH1 0x97 PUSH1 0x20 MSTORE PUSH1 0x1 DUP3 DUP7 KECCAK256 SLOAD SUB PUSH2 0xC38 JUMPI DUP1 DUP6 MSTORE PUSH1 0x97 PUSH1 0x20 MSTORE PUSH1 0x1 DUP3 DUP7 KECCAK256 SLOAD SUB PUSH2 0xC22 JUMPI POP DUP2 DUP5 MSTORE PUSH1 0x97 PUSH1 0x20 MSTORE PUSH1 0x1 DUP2 DUP6 KECCAK256 SLOAD SUB PUSH2 0xC0D JUMPI DUP4 DUP1 RETURN JUMPDEST MLOAD PUSH4 0xE2B37CD PUSH1 0xE4 SHL DUP2 MSTORE SWAP2 DUP3 ADD MSTORE PUSH1 0x24 SWAP2 POP REVERT JUMPDEST DUP4 SWAP1 PUSH1 0x24 SWAP3 MLOAD SWAP2 PUSH4 0xE2B37CD PUSH1 0xE4 SHL DUP4 MSTORE DUP3 ADD MSTORE REVERT JUMPDEST DUP2 MLOAD PUSH4 0xE2B37CD PUSH1 0xE4 SHL DUP2 MSTORE DUP1 DUP6 ADD DUP7 SWAP1 MSTORE PUSH1 0x24 SWAP1 REVERT JUMPDEST SWAP2 SWAP1 POP CALLVALUE PUSH2 0x204 JUMPI PUSH1 0x20 CALLDATASIZE PUSH1 0x3 NOT ADD SLT PUSH2 0x204 JUMPI CALLDATALOAD PUSH1 0x1 PUSH1 0x1 PUSH1 0xA0 SHL SUB DUP2 AND SWAP1 DUP2 SWAP1 SUB PUSH2 0x204 JUMPI DUP3 DUP3 SWAP2 PUSH1 0x20 SWAP5 MSTORE PUSH1 0xC9 DUP5 MSTORE KECCAK256 SLOAD SWAP1 MLOAD SWAP1 DUP2 MSTORE RETURN JUMPDEST DUP3 DUP5 CALLVALUE PUSH2 0x2B8 JUMPI DUP1 PUSH1 0x3 NOT CALLDATASIZE ADD SLT PUSH2 0x2B8 JUMPI POP PUSH32 0x0 PUSH1 0x1 PUSH1 0x1 PUSH1 0xA0 SHL SUB AND ADDRESS SUB PUSH2 0xCF6 JUMPI PUSH1 0x20 DUP3 MLOAD PUSH32 0x360894A13BA1A3210667C828492DB98DCA3E2076CC3735A920A3CA505D382BBC DUP2 MSTORE RETURN JUMPDEST PUSH1 0x20 PUSH1 0x84 SWAP3 MLOAD SWAP2 PUSH3 0x461BCD PUSH1 0xE5 SHL DUP4 MSTORE DUP3 ADD MSTORE PUSH1 0x38 PUSH1 0x24 DUP3 ADD MSTORE PUSH32 0x555550535570677261646561626C653A206D757374206E6F742062652063616C PUSH1 0x44 DUP3 ADD MSTORE PUSH32 0x6C6564207468726F7567682064656C656761746563616C6C0000000000000000 PUSH1 0x64 DUP3 ADD MSTORE REVERT JUMPDEST CALLDATASIZE PUSH1 0x3 NOT ADD SLT SWAP1 POP PUSH2 0x1AA JUMPI DUP1 CALLDATALOAD PUSH1 0x1 PUSH1 0x1 PUSH1 0xA0 SHL SUB DUP1 DUP3 AND DUP3 SUB PUSH2 0x200 JUMPI PUSH1 0x24 CALLDATALOAD SWAP2 PUSH8 0xFFFFFFFFFFFFFFFF DUP4 GT PUSH2 0xB10 JUMPI CALLDATASIZE PUSH1 0x23 DUP5 ADD SLT ISZERO PUSH2 0xB10 JUMPI PUSH2 0xE10 PUSH2 0xDB6 PUSH2 0x24F SWAP6 DUP6 PUSH1 0x24 PUSH1 0x1 SWAP8 CALLDATASIZE SWAP4 ADD CALLDATALOAD SWAP2 ADD PUSH2 0x1426 JUMP JUMPDEST SWAP3 DUP1 PUSH32 0x0 AND SWAP1 PUSH2 0xDE7 DUP3 ADDRESS EQ ISZERO PUSH2 0x1672 JUMP JUMPDEST PUSH32 0x360894A13BA1A3210667C828492DB98DCA3E2076CC3735A920A3CA505D382BBC SLOAD AND EQ PUSH2 0x16D3 JUMP JUMPDEST PUSH2 0xE18 PUSH2 0x207F JUMP JUMPDEST PUSH2 0x1734 JUMP JUMPDEST SWAP1 POP DUP3 CALLVALUE PUSH2 0x2B8 JUMPI DUP2 PUSH1 0x3 NOT CALLDATASIZE ADD SLT PUSH2 0x2B8 JUMPI DUP3 CALLDATALOAD PUSH1 0x1 PUSH1 0x1 PUSH1 0xA0 SHL SUB DUP2 AND SWAP2 SWAP1 DUP3 SWAP1 SUB PUSH2 0x2B8 JUMPI PUSH1 0x24 CALLDATALOAD PUSH2 0xE71 PUSH32 0x9F2DF0FED2C77648DE5860A4CC508CD0818C85B8B8A1AB4CEEEF8D981C8956A6 PUSH2 0x150D JUMP JUMPDEST DUP3 ISZERO PUSH2 0xECA JUMPI PUSH1 0x20 DUP1 SWAP6 POP DUP2 PUSH2 0xEAA PUSH32 0xDDF252AD1BE2C89B69C2B068FC378DAA952BA7F163C4A11628F55A4DF523B3EF SWAP4 PUSH1 0xCB SLOAD PUSH2 0x1A70 JUMP JUMPDEST PUSH1 0xCB SSTORE DUP5 DUP5 MSTORE PUSH1 0xC9 DUP3 MSTORE DUP6 DUP5 KECCAK256 DUP2 DUP2 SLOAD ADD SWAP1 SSTORE DUP6 MLOAD SWAP1 DUP2 MSTORE LOG3 MLOAD PUSH1 0x1 DUP2 MSTORE RETURN JUMPDEST DUP4 MLOAD PUSH3 0x461BCD PUSH1 0xE5 SHL DUP2 MSTORE PUSH1 0x20 DUP2 DUP8 ADD MSTORE PUSH1 0x1F PUSH1 0x24 DUP3 ADD MSTORE PUSH32 0x45524332303A206D696E7420746F20746865207A65726F206164647265737300 PUSH1 0x44 DUP3 ADD MSTORE PUSH1 0x64 SWAP1 REVERT JUMPDEST SWAP2 SWAP1 POP CALLVALUE PUSH2 0x204 JUMPI DUP2 PUSH1 0x3 NOT CALLDATASIZE ADD SLT PUSH2 0x204 JUMPI CALLDATALOAD PUSH1 0x1 PUSH1 0x1 PUSH1 0xA0 SHL SUB DUP2 AND DUP1 DUP3 SUB PUSH2 0x200 JUMPI SWAP1 PUSH2 0xF58 PUSH1 0x20 SWAP5 PUSH2 0x2B1 SWAP4 CALLER DUP3 MSTORE PUSH1 0xCA DUP8 MSTORE DUP6 DUP3 KECCAK256 SWAP1 DUP3 MSTORE DUP7 MSTORE DUP5 PUSH1 0x24 CALLDATALOAD SWAP2 KECCAK256 SLOAD PUSH2 0x1A70 JUMP JUMPDEST SWAP1 CALLER PUSH2 0x1C03 JUMP JUMPDEST SWAP2 POP SWAP2 CALLVALUE PUSH2 0x1AA JUMPI PUSH1 0x20 CALLDATASIZE PUSH1 0x3 NOT ADD SLT PUSH2 0x1AA JUMPI PUSH1 0x1 PUSH1 0x1 PUSH1 0xA0 SHL SUB SWAP3 SWAP1 CALLDATALOAD DUP4 DUP2 AND DUP2 SUB PUSH2 0x204 JUMPI PUSH2 0xFBE DUP5 PUSH2 0x24F SWAP6 PUSH32 0x0 AND SWAP1 PUSH2 0xDE7 DUP3 ADDRESS EQ ISZERO PUSH2 0x1672 JUMP JUMPDEST PUSH2 0xFC6 PUSH2 0x207F JUMP JUMPDEST PUSH2 0xFDB PUSH2 0xFD2 DUP5 PUSH2 0x140A JUMP JUMPDEST SWAP3 MLOAD SWAP3 DUP4 PUSH2 0x13D2 JUMP JUMPDEST DUP3 DUP3 MSTORE PUSH1 0x1F NOT PUSH2 0xFEA DUP5 PUSH2 0x140A JUMP JUMPDEST ADD CALLDATASIZE PUSH1 0x20 DUP5 ADD CALLDATACOPY PUSH2 0x1734 JUMP JUMPDEST DUP4 DUP4 CALLVALUE PUSH2 0x1AA JUMPI DUP3 PUSH1 0x3 NOT CALLDATASIZE ADD SLT PUSH2 0x1AA JUMPI PUSH1 0x24 CALLDATALOAD SWAP1 PUSH1 0x1 PUSH1 0x1 PUSH1 0xA0 SHL SUB DUP3 AND DUP1 DUP4 SUB PUSH2 0x200 JUMPI CALLER SUB PUSH2 0x102E JUMPI SWAP1 PUSH2 0x24F SWAP2 CALLDATALOAD PUSH2 0x15EC JUMP JUMPDEST PUSH1 0x84 SWAP1 PUSH1 0x20 DUP6 MLOAD SWAP2 PUSH3 0x461BCD PUSH1 0xE5 SHL DUP4 MSTORE DUP3 ADD MSTORE PUSH1 0x2F PUSH1 0x24 DUP3 ADD MSTORE PUSH32 0x416363657373436F6E74726F6C3A2063616E206F6E6C792072656E6F756E6365 PUSH1 0x44 DUP3 ADD MSTORE PUSH15 0x103937B632B9903337B91039B2B633 PUSH1 0x89 SHL PUSH1 0x64 DUP3 ADD MSTORE REVERT JUMPDEST DUP4 SWAP1 CALLVALUE PUSH2 0x1AA JUMPI DUP2 PUSH1 0x3 NOT CALLDATASIZE ADD SLT PUSH2 0x1AA JUMPI PUSH1 0x20 SWAP1 MLOAD PUSH1 0x12 DUP2 MSTORE RETURN JUMPDEST SWAP2 SWAP1 POP CALLVALUE PUSH2 0x204 JUMPI DUP2 PUSH1 0x3 NOT CALLDATASIZE ADD SLT PUSH2 0x204 JUMPI PUSH1 0x24 CALLDATALOAD SWAP1 CALLDATALOAD PUSH1 0x1 PUSH1 0x1 PUSH1 0xA0 SHL SUB DUP3 AND DUP3 SUB PUSH2 0x200 JUMPI PUSH2 0x10E7 PUSH1 0x1 PUSH2 0x24F SWAP5 DUP4 DUP8 MSTORE PUSH1 0x65 PUSH1 0x20 MSTORE DUP7 KECCAK256 ADD SLOAD PUSH2 0x150D JUMP JUMPDEST PUSH2 0x1480 JUMP JUMPDEST SWAP2 SWAP1 POP CALLVALUE PUSH2 0x204 JUMPI PUSH1 0x20 CALLDATASIZE PUSH1 0x3 NOT ADD SLT PUSH2 0x204 JUMPI DUP2 PUSH1 0x20 SWAP4 PUSH1 0x1 SWAP3 CALLDATALOAD DUP2 MSTORE PUSH1 0x65 DUP6 MSTORE KECCAK256 ADD SLOAD SWAP1 MLOAD SWAP1 DUP2 MSTORE RETURN JUMPDEST DUP4 DUP4 CALLVALUE PUSH2 0x1AA JUMPI PUSH1 0x60 CALLDATASIZE PUSH1 0x3 NOT ADD SLT PUSH2 0x1AA JUMPI DUP1 CALLDATALOAD PUSH1 0x1 PUSH1 0x1 PUSH1 0xA0 SHL SUB DUP2 DUP2 AND SWAP4 SWAP1 SWAP3 SWAP1 DUP5 DUP4 SUB PUSH2 0x2B8 JUMPI PUSH1 0x24 CALLDATALOAD SWAP4 DUP5 AND DUP5 SUB PUSH2 0x2B8 JUMPI DUP6 SWAP1 PUSH1 0x44 CALLDATALOAD SWAP6 DUP2 MSTORE PUSH1 0xCA PUSH1 0x20 MSTORE DUP2 DUP2 KECCAK256 CALLER DUP3 MSTORE PUSH1 0x20 MSTORE KECCAK256 SLOAD SWAP1 PUSH1 0x0 NOT DUP3 SUB PUSH2 0x1180 JUMPI JUMPDEST PUSH1 0x20 DUP7 PUSH2 0x2B1 DUP8 DUP8 DUP8 PUSH2 0x1A93 JUMP JUMPDEST DUP5 DUP3 LT PUSH2 0x11A9 JUMPI POP SWAP2 DUP4 SWAP2 PUSH2 0x119E PUSH1 0x20 SWAP7 SWAP6 PUSH2 0x2B1 SWAP6 SUB CALLER DUP4 PUSH2 0x1C03 JUMP JUMPDEST SWAP2 SWAP4 SWAP5 DUP2 SWAP4 POP PUSH2 0x1172 JUMP JUMPDEST PUSH1 0x64 SWAP1 PUSH1 0x20 DUP8 MLOAD SWAP2 PUSH3 0x461BCD PUSH1 0xE5 SHL DUP4 MSTORE DUP3 ADD MSTORE PUSH1 0x1D PUSH1 0x24 DUP3 ADD MSTORE PUSH32 0x45524332303A20696E73756666696369656E7420616C6C6F77616E6365000000 PUSH1 0x44 DUP3 ADD MSTORE REVERT JUMPDEST DUP4 SWAP1 CALLVALUE PUSH2 0x1AA JUMPI DUP2 PUSH1 0x3 NOT CALLDATASIZE ADD SLT PUSH2 0x1AA JUMPI PUSH1 0x20 SWAP1 PUSH1 0xCB SLOAD SWAP1 MLOAD SWAP1 DUP2 MSTORE RETURN JUMPDEST DUP4 SWAP1 CALLVALUE PUSH2 0x1AA JUMPI DUP2 PUSH1 0x3 NOT CALLDATASIZE ADD SLT PUSH2 0x1AA JUMPI PUSH2 0x191 SLOAD SWAP1 MLOAD PUSH1 0x1 PUSH1 0x1 PUSH1 0xA0 SHL SUB SWAP1 SWAP2 AND DUP2 MSTORE PUSH1 0x20 SWAP1 RETURN JUMPDEST SWAP2 SWAP1 POP CALLVALUE PUSH2 0x204 JUMPI DUP2 PUSH1 0x3 NOT CALLDATASIZE ADD SLT PUSH2 0x204 JUMPI CALLDATALOAD SWAP2 PUSH1 0x1 PUSH1 0x1 PUSH1 0xA0 SHL SUB DUP4 AND DUP4 SUB PUSH2 0x2B8 JUMPI POP PUSH2 0x2B1 PUSH1 0x20 SWAP3 PUSH1 0x24 CALLDATALOAD SWAP1 CALLER PUSH2 0x1C03 JUMP JUMPDEST DUP4 SWAP1 CALLVALUE PUSH2 0x1AA JUMPI DUP2 PUSH1 0x3 NOT CALLDATASIZE ADD SLT PUSH2 0x1AA JUMPI DUP1 MLOAD SWAP1 DUP3 PUSH1 0xCC SLOAD PUSH2 0x128D DUP2 PUSH2 0x1A36 JUMP JUMPDEST DUP1 DUP6 MSTORE SWAP2 PUSH1 0x1 SWAP2 DUP1 DUP4 AND SWAP1 DUP2 ISZERO PUSH2 0x586 JUMPI POP PUSH1 0x1 EQ PUSH2 0x12B8 JUMPI POP POP POP PUSH2 0x51B DUP3 PUSH2 0x525 SWAP5 SUB DUP4 PUSH2 0x13D2 JUMP JUMPDEST SWAP5 POP PUSH1 0xCC DUP6 MSTORE PUSH32 0x47197230E1E4B29FC0BD84D7D78966C0925452AFF72A2A121538B102457E9EBE JUMPDEST DUP3 DUP7 LT PUSH2 0x12FD JUMPI POP POP POP PUSH2 0x51B DUP3 PUSH1 0x20 PUSH2 0x525 SWAP6 DUP3 ADD ADD SWAP5 PUSH2 0x509 JUMP JUMPDEST DUP1 SLOAD PUSH1 0x20 DUP8 DUP8 ADD DUP2 ADD SWAP2 SWAP1 SWAP2 MSTORE SWAP1 SWAP6 ADD SWAP5 DUP2 ADD PUSH2 0x12E0 JUMP JUMPDEST DUP5 SWAP1 DUP5 CALLVALUE PUSH2 0x204 JUMPI PUSH1 0x20 CALLDATASIZE PUSH1 0x3 NOT ADD SLT PUSH2 0x204 JUMPI CALLDATALOAD PUSH4 0xFFFFFFFF PUSH1 0xE0 SHL DUP2 AND DUP1 SWAP2 SUB PUSH2 0x204 JUMPI PUSH1 0x20 SWAP3 POP PUSH4 0x5A05180F PUSH1 0xE0 SHL DUP2 EQ SWAP1 DUP2 ISZERO PUSH2 0x1358 JUMPI JUMPDEST POP ISZERO ISZERO DUP2 MSTORE RETURN JUMPDEST PUSH4 0x7965DB0B PUSH1 0xE0 SHL DUP2 EQ SWAP2 POP DUP2 ISZERO PUSH2 0x1372 JUMPI JUMPDEST POP DUP4 PUSH2 0x1351 JUMP JUMPDEST PUSH4 0x1FFC9A7 PUSH1 0xE0 SHL EQ SWAP1 POP DUP4 PUSH2 0x136B JUMP JUMPDEST PUSH1 0x0 JUMPDEST DUP4 DUP2 LT PUSH2 0x1396 JUMPI POP POP PUSH1 0x0 SWAP2 ADD MSTORE JUMP JUMPDEST DUP2 DUP2 ADD MLOAD DUP4 DUP3 ADD MSTORE PUSH1 0x20 ADD PUSH2 0x1386 JUMP JUMPDEST PUSH1 0x40 SWAP2 PUSH1 0x20 DUP3 MSTORE PUSH2 0x13C6 DUP2 MLOAD DUP1 SWAP3 DUP2 PUSH1 0x20 DUP7 ADD MSTORE PUSH1 0x20 DUP7 DUP7 ADD SWAP2 ADD PUSH2 0x1383 JUMP JUMPDEST PUSH1 0x1F ADD PUSH1 0x1F NOT AND ADD ADD SWAP1 JUMP JUMPDEST SWAP1 PUSH1 0x1F DUP1 NOT SWAP2 ADD AND DUP2 ADD SWAP1 DUP2 LT PUSH8 0xFFFFFFFFFFFFFFFF DUP3 GT OR PUSH2 0x13F4 JUMPI PUSH1 0x40 MSTORE JUMP JUMPDEST PUSH4 0x4E487B71 PUSH1 0xE0 SHL PUSH1 0x0 MSTORE PUSH1 0x41 PUSH1 0x4 MSTORE PUSH1 0x24 PUSH1 0x0 REVERT JUMPDEST PUSH8 0xFFFFFFFFFFFFFFFF DUP2 GT PUSH2 0x13F4 JUMPI PUSH1 0x1F ADD PUSH1 0x1F NOT AND PUSH1 0x20 ADD SWAP1 JUMP JUMPDEST SWAP3 SWAP2 SWAP3 PUSH2 0x1432 DUP3 PUSH2 0x140A JUMP JUMPDEST SWAP2 PUSH2 0x1440 PUSH1 0x40 MLOAD SWAP4 DUP5 PUSH2 0x13D2 JUMP JUMPDEST DUP3 SWAP5 DUP2 DUP5 MSTORE DUP2 DUP4 ADD GT PUSH2 0x145D JUMPI DUP3 DUP2 PUSH1 0x20 SWAP4 DUP5 PUSH1 0x0 SWAP7 ADD CALLDATACOPY ADD ADD MSTORE JUMP JUMPDEST PUSH1 0x0 DUP1 REVERT JUMPDEST SWAP1 DUP1 PUSH1 0x1F DUP4 ADD SLT ISZERO PUSH2 0x145D JUMPI DUP2 PUSH1 0x20 PUSH2 0x147D SWAP4 CALLDATALOAD SWAP2 ADD PUSH2 0x1426 JUMP JUMPDEST SWAP1 JUMP JUMPDEST SWAP1 PUSH1 0x40 PUSH2 0x14BF SWAP3 PUSH1 0x0 SWAP1 DUP1 DUP3 MSTORE PUSH1 0x65 PUSH1 0x20 MSTORE DUP3 DUP3 KECCAK256 SWAP4 PUSH1 0x1 DUP1 PUSH1 0xA0 SHL SUB AND SWAP4 DUP5 DUP4 MSTORE PUSH1 0x20 MSTORE PUSH1 0xFF DUP4 DUP4 KECCAK256 SLOAD AND ISZERO PUSH2 0x14C2 JUMPI JUMPDEST DUP2 MSTORE PUSH1 0x97 PUSH1 0x20 MSTORE KECCAK256 PUSH2 0x1F05 JUMP JUMPDEST POP JUMP JUMPDEST DUP1 DUP3 MSTORE PUSH1 0x65 PUSH1 0x20 MSTORE DUP3 DUP3 KECCAK256 DUP5 DUP4 MSTORE PUSH1 0x20 MSTORE DUP3 DUP3 KECCAK256 PUSH1 0x1 PUSH1 0xFF NOT DUP3 SLOAD AND OR SWAP1 SSTORE CALLER DUP5 DUP3 PUSH32 0x2F8788117E7EFF1D82E926EC794901D17C78024A50270940304540A733656F0D DUP6 DUP1 LOG4 PUSH2 0x14B2 JUMP JUMPDEST DUP1 PUSH1 0x0 MSTORE PUSH1 0x20 PUSH1 0x65 DUP2 MSTORE PUSH1 0x40 PUSH1 0x0 KECCAK256 CALLER PUSH1 0x0 MSTORE DUP2 MSTORE PUSH1 0xFF PUSH1 0x40 PUSH1 0x0 KECCAK256 SLOAD AND ISZERO PUSH2 0x1534 JUMPI POP POP JUMP JUMPDEST PUSH2 0x15D0 PUSH1 0x48 PUSH2 0x15E8 SWAP4 DUP4 PUSH2 0x1556 PUSH2 0x15C1 SWAP6 PUSH2 0x1550 PUSH1 0x14 CALLER PUSH2 0x1D96 JUMP JUMPDEST SWAP4 PUSH2 0x1D96 JUMP JUMPDEST SWAP1 PUSH1 0x40 MLOAD SWAP6 DUP7 SWAP4 PUSH32 0x416363657373436F6E74726F6C3A206163636F756E7420000000000000000000 DUP4 DUP7 ADD MSTORE PUSH2 0x1595 DUP2 MLOAD DUP1 SWAP3 DUP6 PUSH1 0x37 DUP10 ADD SWAP2 ADD PUSH2 0x1383 JUMP JUMPDEST DUP5 ADD SWAP2 PUSH17 0x1034B99036B4B9B9B4B733903937B6329 PUSH1 0x7D SHL PUSH1 0x37 DUP5 ADD MSTORE DUP4 MLOAD SWAP4 DUP5 SWAP2 DUP8 DUP6 ADD SWAP2 ADD PUSH2 0x1383 JUMP JUMPDEST ADD SUB PUSH1 0x28 DUP2 ADD DUP5 MSTORE ADD DUP3 PUSH2 0x13D2 JUMP JUMPDEST PUSH1 0x40 MLOAD PUSH3 0x461BCD PUSH1 0xE5 SHL DUP2 MSTORE SWAP2 DUP3 SWAP2 PUSH1 0x4 DUP4 ADD PUSH2 0x13A6 JUMP JUMPDEST SUB SWAP1 REVERT JUMPDEST SWAP1 PUSH1 0x40 PUSH2 0x14BF SWAP3 PUSH1 0x0 SWAP1 DUP1 DUP3 MSTORE PUSH1 0x65 PUSH1 0x20 MSTORE DUP3 DUP3 KECCAK256 SWAP4 PUSH1 0x1 DUP1 PUSH1 0xA0 SHL SUB AND SWAP4 DUP5 DUP4 MSTORE PUSH1 0x20 MSTORE PUSH1 0xFF DUP4 DUP4 KECCAK256 SLOAD AND PUSH2 0x162A JUMPI JUMPDEST DUP2 MSTORE PUSH1 0x97 PUSH1 0x20 MSTORE KECCAK256 PUSH2 0x1F8F JUMP JUMPDEST DUP1 DUP3 MSTORE PUSH1 0x65 PUSH1 0x20 MSTORE DUP3 DUP3 KECCAK256 DUP5 DUP4 MSTORE PUSH1 0x20 MSTORE DUP3 DUP3 KECCAK256 PUSH1 0xFF NOT DUP2 SLOAD AND SWAP1 SSTORE CALLER DUP5 DUP3 PUSH32 0xF6391F5C32D9C69D2A47EA670B442974B53935D1EDC7FD64EB21E047A839171B DUP6 DUP1 LOG4 PUSH2 0x161D JUMP JUMPDEST ISZERO PUSH2 0x1679 JUMPI JUMP JUMPDEST PUSH1 0x40 MLOAD PUSH3 0x461BCD PUSH1 0xE5 SHL DUP2 MSTORE PUSH1 0x20 PUSH1 0x4 DUP3 ADD MSTORE PUSH1 0x2C PUSH1 0x24 DUP3 ADD MSTORE PUSH32 0x46756E6374696F6E206D7573742062652063616C6C6564207468726F75676820 PUSH1 0x44 DUP3 ADD MSTORE PUSH12 0x19195B1959D85D1958D85B1B PUSH1 0xA2 SHL PUSH1 0x64 DUP3 ADD MSTORE PUSH1 0x84 SWAP1 REVERT JUMPDEST ISZERO PUSH2 0x16DA JUMPI JUMP JUMPDEST PUSH1 0x40 MLOAD PUSH3 0x461BCD PUSH1 0xE5 SHL DUP2 MSTORE PUSH1 0x20 PUSH1 0x4 DUP3 ADD MSTORE PUSH1 0x2C PUSH1 0x24 DUP3 ADD MSTORE PUSH32 0x46756E6374696F6E206D7573742062652063616C6C6564207468726F75676820 PUSH1 0x44 DUP3 ADD MSTORE PUSH12 0x6163746976652070726F7879 PUSH1 0xA0 SHL PUSH1 0x64 DUP3 ADD MSTORE PUSH1 0x84 SWAP1 REVERT JUMPDEST SWAP1 SWAP2 PUSH1 0xFF PUSH32 0x4910FDFA16FED3260ED0E7147F7CC6DA11A60208B5B9406D12A635614FFD9143 SLOAD AND PUSH1 0x0 EQ PUSH2 0x176F JUMPI POP PUSH2 0x176D SWAP2 POP PUSH2 0x1994 JUMP JUMPDEST JUMP JUMPDEST PUSH1 0x40 DUP1 MLOAD PUSH4 0x52D1902D PUSH1 0xE0 SHL DUP2 MSTORE PUSH1 0x20 SWAP5 SWAP2 SWAP4 SWAP3 SWAP1 PUSH1 0x1 PUSH1 0x1 PUSH1 0xA0 SHL SUB DUP5 AND SWAP1 DUP7 DUP2 PUSH1 0x4 DUP2 DUP6 GAS STATICCALL PUSH1 0x0 SWAP2 DUP2 PUSH2 0x1965 JUMPI JUMPDEST POP PUSH2 0x1800 JUMPI DUP6 MLOAD PUSH3 0x461BCD PUSH1 0xE5 SHL DUP2 MSTORE PUSH1 0x4 DUP2 ADD DUP9 SWAP1 MSTORE PUSH1 0x2E PUSH1 0x24 DUP3 ADD MSTORE PUSH32 0x45524331393637557067726164653A206E657720696D706C656D656E74617469 PUSH1 0x44 DUP3 ADD MSTORE PUSH14 0x6F6E206973206E6F742055555053 PUSH1 0x90 SHL PUSH1 0x64 DUP3 ADD MSTORE PUSH1 0x84 SWAP1 REVERT JUMPDEST SWAP4 SWAP6 SWAP3 SWAP5 SWAP3 SWAP4 PUSH32 0xC9F76B5EC45E5CDEF99837D7B6D2467235C1DF8933C8CA56DF5C35AFA2C7D444 ADD PUSH2 0x190F JUMPI PUSH2 0x1835 DUP7 PUSH2 0x1994 JUMP JUMPDEST PUSH32 0xBC7CD75A20EE27FD9ADEBAB32041F755214DBC6BFFA90CC0225B39DA2E5C2D3B PUSH1 0x0 DUP1 LOG2 DUP4 MLOAD ISZERO SWAP1 DUP2 ISZERO SWAP2 PUSH2 0x1907 JUMPI JUMPDEST POP PUSH2 0x1872 JUMPI JUMPDEST POP POP POP POP JUMP JUMPDEST PUSH2 0x18F3 SWAP4 PUSH1 0x0 DUP1 PUSH2 0x1883 PUSH1 0x27 PUSH2 0x140A JUMP JUMPDEST SWAP6 PUSH2 0x1890 DUP6 MLOAD SWAP8 DUP9 PUSH2 0x13D2 JUMP JUMPDEST PUSH1 0x27 DUP8 MSTORE PUSH32 0x416464726573733A206C6F772D6C6576656C2064656C65676174652063616C6C DUP7 DUP9 ADD MSTORE PUSH7 0x819985A5B1959 PUSH1 0xCA SHL DUP6 DUP9 ADD MSTORE DUP6 DUP2 MLOAD SWAP2 ADD DUP5 GAS DELEGATECALL SWAP2 RETURNDATASIZE ISZERO PUSH2 0x18FD JUMPI RETURNDATASIZE PUSH2 0x18E4 PUSH2 0xFD2 DUP3 PUSH2 0x140A JUMP JUMPDEST DUP2 MSTORE PUSH1 0x0 DUP2 SWAP5 RETURNDATASIZE SWAP3 ADD RETURNDATACOPY PUSH2 0x1D05 JUMP JUMPDEST POP CODESIZE DUP1 DUP1 DUP1 PUSH2 0x186C JUMP JUMPDEST POP PUSH1 0x60 SWAP3 POP PUSH2 0x1D05 JUMP JUMPDEST SWAP1 POP CODESIZE PUSH2 0x1866 JUMP JUMPDEST DUP3 MLOAD PUSH3 0x461BCD PUSH1 0xE5 SHL DUP2 MSTORE PUSH1 0x4 DUP2 ADD DUP6 SWAP1 MSTORE PUSH1 0x29 PUSH1 0x24 DUP3 ADD MSTORE PUSH32 0x45524331393637557067726164653A20756E737570706F727465642070726F78 PUSH1 0x44 DUP3 ADD MSTORE PUSH9 0x1A58589B1955555251 PUSH1 0xBA SHL PUSH1 0x64 DUP3 ADD MSTORE PUSH1 0x84 SWAP1 REVERT JUMPDEST SWAP1 SWAP2 DUP9 DUP3 DUP2 RETURNDATASIZE DUP4 GT PUSH2 0x198D JUMPI JUMPDEST PUSH2 0x197C DUP2 DUP4 PUSH2 0x13D2 JUMP JUMPDEST DUP2 ADD SUB SLT PUSH2 0x2B8 JUMPI POP MLOAD SWAP1 CODESIZE PUSH2 0x17A0 JUMP JUMPDEST POP RETURNDATASIZE PUSH2 0x1972 JUMP JUMPDEST DUP1 EXTCODESIZE ISZERO PUSH2 0x19DB JUMPI PUSH32 0x360894A13BA1A3210667C828492DB98DCA3E2076CC3735A920A3CA505D382BBC DUP1 SLOAD PUSH1 0x1 PUSH1 0x1 PUSH1 0xA0 SHL SUB NOT AND PUSH1 0x1 PUSH1 0x1 PUSH1 0xA0 SHL SUB SWAP1 SWAP3 AND SWAP2 SWAP1 SWAP2 OR SWAP1 SSTORE JUMP JUMPDEST PUSH1 0x40 MLOAD PUSH3 0x461BCD PUSH1 0xE5 SHL DUP2 MSTORE PUSH1 0x20 PUSH1 0x4 DUP3 ADD MSTORE PUSH1 0x2D PUSH1 0x24 DUP3 ADD MSTORE PUSH32 0x455243313936373A206E657720696D706C656D656E746174696F6E206973206E PUSH1 0x44 DUP3 ADD MSTORE PUSH13 0x1BDD08184818DBDB9D1C9858DD PUSH1 0x9A SHL PUSH1 0x64 DUP3 ADD MSTORE PUSH1 0x84 SWAP1 REVERT JUMPDEST SWAP1 PUSH1 0x1 DUP3 DUP2 SHR SWAP3 AND DUP1 ISZERO PUSH2 0x1A66 JUMPI JUMPDEST PUSH1 0x20 DUP4 LT EQ PUSH2 0x1A50 JUMPI JUMP JUMPDEST PUSH4 0x4E487B71 PUSH1 0xE0 SHL PUSH1 0x0 MSTORE PUSH1 0x22 PUSH1 0x4 MSTORE PUSH1 0x24 PUSH1 0x0 REVERT JUMPDEST SWAP2 PUSH1 0x7F AND SWAP2 PUSH2 0x1A45 JUMP JUMPDEST SWAP2 SWAP1 DUP3 ADD DUP1 SWAP3 GT PUSH2 0x1A7D JUMPI JUMP JUMPDEST PUSH4 0x4E487B71 PUSH1 0xE0 SHL PUSH1 0x0 MSTORE PUSH1 0x11 PUSH1 0x4 MSTORE PUSH1 0x24 PUSH1 0x0 REVERT JUMPDEST PUSH1 0x1 PUSH1 0x1 PUSH1 0xA0 SHL SUB SWAP1 DUP2 AND SWAP2 DUP3 ISZERO PUSH2 0x1BB0 JUMPI AND SWAP2 DUP3 ISZERO PUSH2 0x1B5F JUMPI PUSH1 0x0 DUP3 DUP2 MSTORE PUSH1 0xC9 PUSH1 0x20 MSTORE PUSH1 0x40 DUP2 KECCAK256 SLOAD SWAP2 DUP1 DUP4 LT PUSH2 0x1B0B JUMPI PUSH1 0x40 DUP3 DUP3 PUSH32 0xDDF252AD1BE2C89B69C2B068FC378DAA952BA7F163C4A11628F55A4DF523B3EF SWAP6 DUP8 PUSH1 0x20 SWAP7 MSTORE PUSH1 0xC9 DUP7 MSTORE SUB DUP3 DUP3 KECCAK256 SSTORE DUP7 DUP2 MSTORE KECCAK256 DUP2 DUP2 SLOAD ADD SWAP1 SSTORE PUSH1 0x40 MLOAD SWAP1 DUP2 MSTORE LOG3 JUMP JUMPDEST PUSH1 0x40 MLOAD PUSH3 0x461BCD PUSH1 0xE5 SHL DUP2 MSTORE PUSH1 0x20 PUSH1 0x4 DUP3 ADD MSTORE PUSH1 0x26 PUSH1 0x24 DUP3 ADD MSTORE PUSH32 0x45524332303A207472616E7366657220616D6F756E7420657863656564732062 PUSH1 0x44 DUP3 ADD MSTORE PUSH6 0x616C616E6365 PUSH1 0xD0 SHL PUSH1 0x64 DUP3 ADD MSTORE PUSH1 0x84 SWAP1 REVERT JUMPDEST PUSH1 0x40 MLOAD PUSH3 0x461BCD PUSH1 0xE5 SHL DUP2 MSTORE PUSH1 0x20 PUSH1 0x4 DUP3 ADD MSTORE PUSH1 0x23 PUSH1 0x24 DUP3 ADD MSTORE PUSH32 0x45524332303A207472616E7366657220746F20746865207A65726F2061646472 PUSH1 0x44 DUP3 ADD MSTORE PUSH3 0x657373 PUSH1 0xE8 SHL PUSH1 0x64 DUP3 ADD MSTORE PUSH1 0x84 SWAP1 REVERT JUMPDEST PUSH1 0x40 MLOAD PUSH3 0x461BCD PUSH1 0xE5 SHL DUP2 MSTORE PUSH1 0x20 PUSH1 0x4 DUP3 ADD MSTORE PUSH1 0x25 PUSH1 0x24 DUP3 ADD MSTORE PUSH32 0x45524332303A207472616E736665722066726F6D20746865207A65726F206164 PUSH1 0x44 DUP3 ADD MSTORE PUSH5 0x6472657373 PUSH1 0xD8 SHL PUSH1 0x64 DUP3 ADD MSTORE PUSH1 0x84 SWAP1 REVERT JUMPDEST PUSH1 0x1 PUSH1 0x1 PUSH1 0xA0 SHL SUB SWAP1 DUP2 AND SWAP2 DUP3 ISZERO PUSH2 0x1CB4 JUMPI AND SWAP2 DUP3 ISZERO PUSH2 0x1C64 JUMPI PUSH1 0x20 PUSH32 0x8C5BE1E5EBEC7D5BD14F71427D1E84F3DD0314C0F7B2291E5B200AC8C7C3B925 SWAP2 DUP4 PUSH1 0x0 MSTORE PUSH1 0xCA DUP3 MSTORE PUSH1 0x40 PUSH1 0x0 KECCAK256 DUP6 PUSH1 0x0 MSTORE DUP3 MSTORE DUP1 PUSH1 0x40 PUSH1 0x0 KECCAK256 SSTORE PUSH1 0x40 MLOAD SWAP1 DUP2 MSTORE LOG3 JUMP JUMPDEST PUSH1 0x40 MLOAD PUSH3 0x461BCD PUSH1 0xE5 SHL DUP2 MSTORE PUSH1 0x20 PUSH1 0x4 DUP3 ADD MSTORE PUSH1 0x22 PUSH1 0x24 DUP3 ADD MSTORE PUSH32 0x45524332303A20617070726F766520746F20746865207A65726F206164647265 PUSH1 0x44 DUP3 ADD MSTORE PUSH2 0x7373 PUSH1 0xF0 SHL PUSH1 0x64 DUP3 ADD MSTORE PUSH1 0x84 SWAP1 REVERT JUMPDEST PUSH1 0x40 MLOAD PUSH3 0x461BCD PUSH1 0xE5 SHL DUP2 MSTORE PUSH1 0x20 PUSH1 0x4 DUP3 ADD MSTORE PUSH1 0x24 DUP1 DUP3 ADD MSTORE PUSH32 0x45524332303A20617070726F76652066726F6D20746865207A65726F20616464 PUSH1 0x44 DUP3 ADD MSTORE PUSH4 0x72657373 PUSH1 0xE0 SHL PUSH1 0x64 DUP3 ADD MSTORE PUSH1 0x84 SWAP1 REVERT JUMPDEST SWAP2 SWAP3 SWAP1 ISZERO PUSH2 0x1D67 JUMPI POP DUP2 MLOAD ISZERO PUSH2 0x1D19 JUMPI POP SWAP1 JUMP JUMPDEST EXTCODESIZE ISZERO PUSH2 0x1D22 JUMPI SWAP1 JUMP JUMPDEST PUSH1 0x40 MLOAD PUSH3 0x461BCD PUSH1 0xE5 SHL DUP2 MSTORE PUSH1 0x20 PUSH1 0x4 DUP3 ADD MSTORE PUSH1 0x1D PUSH1 0x24 DUP3 ADD MSTORE PUSH32 0x416464726573733A2063616C6C20746F206E6F6E2D636F6E7472616374000000 PUSH1 0x44 DUP3 ADD MSTORE PUSH1 0x64 SWAP1 REVERT JUMPDEST DUP3 MLOAD SWAP1 SWAP2 POP ISZERO PUSH2 0x1D7A JUMPI POP DUP1 MLOAD SWAP1 PUSH1 0x20 ADD REVERT JUMPDEST PUSH1 0x40 MLOAD PUSH3 0x461BCD PUSH1 0xE5 SHL DUP2 MSTORE SWAP1 DUP2 SWAP1 PUSH2 0x15E8 SWAP1 PUSH1 0x4 DUP4 ADD PUSH2 0x13A6 JUMP JUMPDEST PUSH1 0x1 SWAP2 DUP1 DUP4 SHL SWAP2 SWAP1 PUSH1 0x1 PUSH1 0x1 PUSH1 0xFF SHL SUB DUP2 AND SUB PUSH2 0x1A7D JUMPI PUSH1 0x2 DUP3 ADD SWAP3 DUP4 DUP4 GT PUSH2 0x1A7D JUMPI PUSH2 0x1DDB PUSH2 0x1DC5 DUP6 PUSH2 0x140A JUMP JUMPDEST SWAP5 PUSH2 0x1DD3 PUSH1 0x40 MLOAD SWAP7 DUP8 PUSH2 0x13D2 JUMP JUMPDEST DUP1 DUP7 MSTORE PUSH2 0x140A JUMP JUMPDEST PUSH1 0x20 SWAP4 SWAP1 DUP6 DUP6 ADD SWAP1 PUSH1 0x1F NOT ADD CALLDATASIZE DUP3 CALLDATACOPY DUP6 MLOAD ISZERO PUSH2 0x1ED7 JUMPI PUSH1 0x30 SWAP1 MSTORE8 DUP5 MLOAD DUP3 LT ISZERO PUSH2 0x1ED7 JUMPI PUSH1 0x78 PUSH1 0x21 DUP7 ADD MSTORE8 DUP2 DUP2 ADD DUP1 SWAP2 GT PUSH2 0x1A7D JUMPI SWAP1 JUMPDEST DUP1 DUP3 GT PUSH2 0x1E65 JUMPI POP POP PUSH2 0x1E22 JUMPI POP SWAP1 JUMP JUMPDEST PUSH1 0x64 SWAP1 PUSH1 0x40 MLOAD SWAP1 PUSH3 0x461BCD PUSH1 0xE5 SHL DUP3 MSTORE DUP1 PUSH1 0x4 DUP4 ADD MSTORE PUSH1 0x24 DUP3 ADD MSTORE PUSH32 0x537472696E67733A20686578206C656E67746820696E73756666696369656E74 PUSH1 0x44 DUP3 ADD MSTORE REVERT JUMPDEST SWAP1 SWAP2 PUSH1 0xF DUP2 AND PUSH1 0x10 DUP2 LT ISZERO PUSH2 0x1EC2 JUMPI DUP6 MLOAD DUP5 LT ISZERO PUSH2 0x1EC2 JUMPI PUSH16 0x181899199A1A9B1B9C1CB0B131B232B3 PUSH1 0x81 SHL SWAP1 BYTE DUP6 DUP5 ADD DUP6 ADD MSTORE8 PUSH1 0x4 SHR SWAP2 DUP1 ISZERO PUSH2 0x1EAD JUMPI PUSH1 0x0 NOT ADD SWAP1 PUSH2 0x1E11 JUMP JUMPDEST PUSH1 0x24 PUSH1 0x0 PUSH4 0x4E487B71 PUSH1 0xE0 SHL DUP2 MSTORE PUSH1 0x11 PUSH1 0x4 MSTORE REVERT JUMPDEST PUSH1 0x24 PUSH1 0x0 PUSH4 0x4E487B71 PUSH1 0xE0 SHL DUP2 MSTORE PUSH1 0x32 PUSH1 0x4 MSTORE REVERT JUMPDEST PUSH4 0x4E487B71 PUSH1 0xE0 SHL PUSH1 0x0 MSTORE PUSH1 0x32 PUSH1 0x4 MSTORE PUSH1 0x24 PUSH1 0x0 REVERT JUMPDEST DUP1 SLOAD DUP3 LT ISZERO PUSH2 0x1ED7 JUMPI PUSH1 0x0 MSTORE PUSH1 0x20 PUSH1 0x0 KECCAK256 ADD SWAP1 PUSH1 0x0 SWAP1 JUMP JUMPDEST SWAP2 SWAP1 PUSH1 0x1 DUP4 ADD PUSH1 0x0 SWAP1 DUP3 DUP3 MSTORE DUP1 PUSH1 0x20 MSTORE PUSH1 0x40 DUP3 KECCAK256 SLOAD ISZERO PUSH1 0x0 EQ PUSH2 0x1F89 JUMPI DUP5 SLOAD SWAP5 PUSH9 0x10000000000000000 DUP7 LT ISZERO PUSH2 0x1F75 JUMPI DUP4 PUSH2 0x1F65 PUSH2 0x1F4E DUP9 PUSH1 0x1 PUSH1 0x40 SWAP9 SWAP10 SWAP11 ADD DUP6 SSTORE DUP5 PUSH2 0x1EED JUMP JUMPDEST DUP2 SWAP4 SWAP2 SLOAD SWAP1 PUSH1 0x3 SHL SWAP2 DUP3 SHL SWAP2 PUSH1 0x0 NOT SWAP1 SHL NOT AND OR SWAP1 JUMP JUMPDEST SWAP1 SSTORE SLOAD SWAP4 DUP3 MSTORE PUSH1 0x20 MSTORE KECCAK256 SSTORE PUSH1 0x1 SWAP1 JUMP JUMPDEST PUSH4 0x4E487B71 PUSH1 0xE0 SHL DUP4 MSTORE PUSH1 0x41 PUSH1 0x4 MSTORE PUSH1 0x24 DUP4 REVERT JUMPDEST POP SWAP3 POP POP JUMP JUMPDEST SWAP1 PUSH1 0x1 DUP3 ADD SWAP1 PUSH1 0x0 SWAP3 DUP2 DUP5 MSTORE DUP3 PUSH1 0x20 MSTORE PUSH1 0x40 DUP5 KECCAK256 SLOAD SWAP1 DUP2 ISZERO ISZERO PUSH1 0x0 EQ PUSH2 0x2078 JUMPI PUSH1 0x0 NOT SWAP2 DUP1 DUP4 ADD DUP2 DUP2 GT PUSH2 0x2064 JUMPI DUP3 SLOAD SWAP1 DUP5 DUP3 ADD SWAP2 DUP3 GT PUSH2 0x2050 JUMPI DUP1 DUP3 SUB PUSH2 0x201B JUMPI JUMPDEST POP POP POP DUP1 SLOAD DUP1 ISZERO PUSH2 0x2007 JUMPI DUP3 ADD SWAP2 PUSH2 0x1FEA DUP4 DUP4 PUSH2 0x1EED JUMP JUMPDEST SWAP1 SWAP2 DUP3 SLOAD SWAP2 PUSH1 0x3 SHL SHL NOT AND SWAP1 SSTORE SSTORE DUP3 MSTORE PUSH1 0x20 MSTORE PUSH1 0x40 DUP2 KECCAK256 SSTORE PUSH1 0x1 SWAP1 JUMP JUMPDEST PUSH4 0x4E487B71 PUSH1 0xE0 SHL DUP7 MSTORE PUSH1 0x31 PUSH1 0x4 MSTORE PUSH1 0x24 DUP7 REVERT JUMPDEST PUSH2 0x203B PUSH2 0x202B PUSH2 0x1F4E SWAP4 DUP7 PUSH2 0x1EED JUMP JUMPDEST SWAP1 SLOAD SWAP1 PUSH1 0x3 SHL SHR SWAP3 DUP4 SWAP3 DUP7 PUSH2 0x1EED JUMP JUMPDEST SWAP1 SSTORE DUP7 MSTORE DUP5 PUSH1 0x20 MSTORE PUSH1 0x40 DUP7 KECCAK256 SSTORE CODESIZE DUP1 DUP1 PUSH2 0x1FD2 JUMP JUMPDEST PUSH4 0x4E487B71 PUSH1 0xE0 SHL DUP9 MSTORE PUSH1 0x11 PUSH1 0x4 MSTORE PUSH1 0x24 DUP9 REVERT JUMPDEST PUSH4 0x4E487B71 PUSH1 0xE0 SHL DUP8 MSTORE PUSH1 0x11 PUSH1 0x4 MSTORE PUSH1 0x24 DUP8 REVERT JUMPDEST POP POP POP POP SWAP1 JUMP JUMPDEST PUSH2 0x191 SLOAD PUSH1 0x40 MLOAD PUSH4 0xD994D6D5 PUSH1 0xE0 SHL DUP2 MSTORE CALLER PUSH1 0x4 DUP3 ADD MSTORE SWAP1 PUSH1 0x20 SWAP1 DUP3 SWAP1 PUSH1 0x24 SWAP1 DUP3 SWAP1 PUSH1 0x1 PUSH1 0x1 PUSH1 0xA0 SHL SUB AND GAS STATICCALL SWAP1 DUP2 ISZERO PUSH2 0x210F JUMPI PUSH1 0x0 SWAP2 PUSH2 0x20D5 JUMPI JUMPDEST POP ISZERO PUSH2 0x20C3 JUMPI JUMP JUMPDEST PUSH1 0x40 MLOAD PUSH4 0x1DD1B1B5 PUSH1 0xE2 SHL DUP2 MSTORE PUSH1 0x4 SWAP1 REVERT JUMPDEST PUSH1 0x20 DUP2 RETURNDATASIZE DUP3 GT PUSH2 0x2107 JUMPI JUMPDEST DUP2 PUSH2 0x20ED PUSH1 0x20 SWAP4 DUP4 PUSH2 0x13D2 JUMP JUMPDEST DUP2 ADD SUB SLT PUSH2 0x1AA JUMPI MLOAD SWAP1 DUP2 ISZERO ISZERO DUP3 SUB PUSH2 0x2B8 JUMPI POP CODESIZE PUSH2 0x20BB JUMP JUMPDEST RETURNDATASIZE SWAP2 POP PUSH2 0x20E0 JUMP JUMPDEST PUSH1 0x40 MLOAD RETURNDATASIZE PUSH1 0x0 DUP3 RETURNDATACOPY RETURNDATASIZE SWAP1 REVERT JUMPDEST ISZERO PUSH2 0x2122 JUMPI JUMP JUMPDEST PUSH1 0x40 MLOAD PUSH3 0x461BCD PUSH1 0xE5 SHL DUP2 MSTORE PUSH1 0x20 PUSH1 0x4 DUP3 ADD MSTORE PUSH1 0x2B PUSH1 0x24 DUP3 ADD MSTORE PUSH32 0x496E697469616C697A61626C653A20636F6E7472616374206973206E6F742069 PUSH1 0x44 DUP3 ADD MSTORE PUSH11 0x6E697469616C697A696E67 PUSH1 0xA8 SHL PUSH1 0x64 DUP3 ADD MSTORE PUSH1 0x84 SWAP1 REVERT INVALID LOG2 PUSH5 0x6970667358 0x22 SLT KECCAK256 0xB4 0xBC GASLIMIT 0xBA PUSH7 0xFC54361E79FB08 0x5D GT AND 0x4C 0xED PUSH12 0xAFE31AA9944A1445336CFDF1 0xE6 0xA7 PUSH5 0x736F6C6343 STOP ADDMOD EQ STOP CALLER PUSH1 0xA0 PUSH1 0x40 MSTORE CALLVALUE PUSH3 0x49 JUMPI ADDRESS PUSH1 0x80 MSTORE PUSH3 0x18 PUSH3 0x4E JUMP JUMPDEST PUSH3 0x22 PUSH3 0x4E JUMP JUMPDEST PUSH1 0x40 MLOAD PUSH2 0x2404 SWAP1 DUP2 PUSH3 0xF8 DUP3 CODECOPY PUSH1 0x80 MLOAD DUP2 DUP2 DUP2 PUSH2 0xE2E ADD MSTORE DUP2 DUP2 PUSH2 0xF49 ADD MSTORE PUSH2 0x1181 ADD MSTORE RETURN JUMPDEST PUSH1 0x0 DUP1 REVERT JUMPDEST PUSH1 0x0 SLOAD PUSH1 0xFF DUP2 PUSH1 0x8 SHR AND PUSH3 0xA2 JUMPI PUSH1 0xFF DUP1 DUP3 AND SUB PUSH3 0x6B JUMPI POP JUMP JUMPDEST PUSH1 0xFF SWAP1 DUP2 NOT AND OR PUSH1 0x0 SSTORE PUSH32 0x7F26B83FF96E1F2B6A682F133852F6798A09C465DA95921460CEFB3847402498 PUSH1 0x20 PUSH1 0x40 MLOAD PUSH1 0xFF DUP2 MSTORE LOG1 JUMP JUMPDEST PUSH1 0x40 MLOAD PUSH3 0x461BCD PUSH1 0xE5 SHL DUP2 MSTORE PUSH1 0x20 PUSH1 0x4 DUP3 ADD MSTORE PUSH1 0x27 PUSH1 0x24 DUP3 ADD MSTORE PUSH32 0x496E697469616C697A61626C653A20636F6E747261637420697320696E697469 PUSH1 0x44 DUP3 ADD MSTORE PUSH7 0x616C697A696E67 PUSH1 0xC8 SHL PUSH1 0x64 DUP3 ADD MSTORE PUSH1 0x84 SWAP1 REVERT INVALID PUSH1 0x80 PUSH1 0x40 SWAP1 DUP1 DUP3 MSTORE PUSH1 0x4 SWAP1 DUP2 CALLDATASIZE LT ISZERO PUSH2 0x17 JUMPI PUSH1 0x0 DUP1 REVERT JUMPDEST PUSH1 0x0 SWAP3 DUP4 CALLDATALOAD PUSH1 0xE0 SHR SWAP2 DUP3 PUSH4 0x1FFC9A7 EQ PUSH2 0x1505 JUMPI POP DUP2 PUSH4 0x6FDDE03 EQ PUSH2 0x145B JUMPI DUP2 PUSH4 0x95EA7B3 EQ PUSH2 0x1425 JUMPI DUP2 PUSH4 0xC340A24 EQ PUSH2 0x13FB JUMPI DUP2 PUSH4 0x18160DDD EQ PUSH2 0x13DC JUMPI DUP2 PUSH4 0x23B872DD EQ PUSH2 0x1308 JUMPI DUP2 PUSH4 0x248A9CA3 EQ PUSH2 0x12DC JUMPI DUP2 PUSH4 0x2F2FF15D EQ PUSH2 0x1295 JUMPI DUP2 PUSH4 0x313CE567 EQ PUSH2 0x1279 JUMPI DUP2 PUSH4 0x36568ABE EQ PUSH2 0x11E6 JUMPI DUP4 DUP3 PUSH4 0x3659CFE6 EQ PUSH2 0x114F JUMPI POP DUP2 PUSH4 0x39509351 EQ PUSH2 0x10FD JUMPI DUP2 PUSH4 0x40C10F19 EQ PUSH2 0xFAC JUMPI DUP2 PUSH4 0x4F1EF286 EQ PUSH2 0xEED JUMPI DUP2 PUSH4 0x52D1902D EQ PUSH2 0xE19 JUMPI DUP2 PUSH4 0x5C975ABB EQ PUSH2 0xDF4 JUMPI DUP2 PUSH4 0x70A08231 EQ PUSH2 0xDB9 JUMPI DUP2 PUSH4 0x83D2230D EQ PUSH2 0xC0F JUMPI DUP2 PUSH4 0x8456CB59 EQ PUSH2 0xB57 JUMPI DUP2 PUSH4 0x8F15B414 EQ PUSH2 0x6B3 JUMPI DUP2 PUSH4 0x9010D07C EQ PUSH2 0x671 JUMPI DUP2 PUSH4 0x91D14854 EQ PUSH2 0x625 JUMPI DUP2 PUSH4 0x95D89B41 EQ PUSH2 0x544 JUMPI DUP2 PUSH4 0x9DC29FAC EQ PUSH2 0x395 JUMPI DUP2 PUSH4 0xA217FDDF EQ PUSH2 0x37A JUMPI DUP2 PUSH4 0xA457C2D7 EQ PUSH2 0x2D1 JUMPI DUP2 PUSH4 0xA9059CBB EQ PUSH2 0x291 JUMPI DUP2 PUSH4 0xCA15C873 EQ PUSH2 0x268 JUMPI DUP2 PUSH4 0xD547741F EQ PUSH2 0x21E JUMPI DUP2 PUSH4 0xDD62ED3E EQ PUSH2 0x1C4 JUMPI POP PUSH4 0xE4C0AAF4 EQ PUSH2 0x17D JUMPI PUSH1 0x0 DUP1 REVERT JUMPDEST CALLVALUE PUSH2 0x1C0 JUMPI PUSH1 0x20 CALLDATASIZE PUSH1 0x3 NOT ADD SLT PUSH2 0x1C0 JUMPI CALLDATALOAD PUSH1 0x1 PUSH1 0x1 PUSH1 0xA0 SHL SUB DUP2 AND SWAP1 DUP2 SWAP1 SUB PUSH2 0x1C0 JUMPI PUSH2 0x1A9 PUSH2 0x22D2 JUMP JUMPDEST PUSH2 0x191 DUP1 SLOAD PUSH1 0x1 PUSH1 0x1 PUSH1 0xA0 SHL SUB NOT AND SWAP1 SWAP2 OR SWAP1 SSTORE DUP1 RETURN JUMPDEST POP DUP1 REVERT JUMPDEST SWAP2 SWAP1 POP CALLVALUE PUSH2 0x21A JUMPI DUP2 PUSH1 0x3 NOT CALLDATASIZE ADD SLT PUSH2 0x21A JUMPI PUSH1 0x1 PUSH1 0x1 PUSH1 0xA0 SHL SUB SWAP1 CALLDATALOAD DUP2 DUP2 AND SWAP1 DUP2 SWAP1 SUB PUSH2 0x216 JUMPI PUSH1 0x24 CALLDATALOAD SWAP2 DUP3 AND DUP1 SWAP3 SUB PUSH2 0x216 JUMPI SWAP3 DUP3 SWAP2 PUSH1 0x20 SWAP5 DUP3 MSTORE PUSH1 0xCA DUP6 MSTORE DUP3 DUP3 KECCAK256 SWAP1 DUP3 MSTORE DUP5 MSTORE KECCAK256 SLOAD SWAP1 MLOAD SWAP1 DUP2 MSTORE RETURN JUMPDEST DUP4 DUP1 REVERT JUMPDEST DUP3 DUP1 REVERT JUMPDEST SWAP2 SWAP1 POP CALLVALUE PUSH2 0x21A JUMPI DUP2 PUSH1 0x3 NOT CALLDATASIZE ADD SLT PUSH2 0x21A JUMPI PUSH1 0x24 CALLDATALOAD SWAP1 CALLDATALOAD PUSH1 0x1 PUSH1 0x1 PUSH1 0xA0 SHL SUB DUP3 AND DUP3 SUB PUSH2 0x216 JUMPI PUSH2 0x260 PUSH1 0x1 PUSH2 0x265 SWAP5 DUP4 DUP8 MSTORE PUSH1 0x65 PUSH1 0x20 MSTORE DUP7 KECCAK256 ADD SLOAD PUSH2 0x16FD JUMP JUMPDEST PUSH2 0x17DC JUMP JUMPDEST DUP1 RETURN JUMPDEST SWAP2 SWAP1 POP CALLVALUE PUSH2 0x21A JUMPI PUSH1 0x20 CALLDATASIZE PUSH1 0x3 NOT ADD SLT PUSH2 0x21A JUMPI PUSH1 0x20 SWAP3 DUP3 SWAP2 CALLDATALOAD DUP2 MSTORE PUSH1 0x97 DUP5 MSTORE KECCAK256 SLOAD SWAP1 MLOAD SWAP1 DUP2 MSTORE RETURN JUMPDEST SWAP2 SWAP1 POP CALLVALUE PUSH2 0x21A JUMPI DUP2 PUSH1 0x3 NOT CALLDATASIZE ADD SLT PUSH2 0x21A JUMPI CALLDATALOAD SWAP2 PUSH1 0x1 PUSH1 0x1 PUSH1 0xA0 SHL SUB DUP4 AND DUP4 SUB PUSH2 0x2CE JUMPI POP PUSH2 0x2C7 PUSH1 0x20 SWAP3 PUSH1 0x24 CALLDATALOAD SWAP1 CALLER PUSH2 0x1C83 JUMP JUMPDEST MLOAD PUSH1 0x1 DUP2 MSTORE RETURN JUMPDEST DUP1 REVERT JUMPDEST DUP3 DUP5 CALLVALUE PUSH2 0x2CE JUMPI DUP3 PUSH1 0x3 NOT CALLDATASIZE ADD SLT PUSH2 0x2CE JUMPI DUP2 CALLDATALOAD SWAP2 PUSH1 0x1 PUSH1 0x1 PUSH1 0xA0 SHL SUB DUP4 AND SWAP2 DUP3 DUP5 SUB PUSH2 0x2CE JUMPI DUP5 SWAP1 PUSH1 0x24 CALLDATALOAD SWAP4 CALLER DUP3 MSTORE PUSH1 0xCA PUSH1 0x20 MSTORE DUP3 DUP3 KECCAK256 SWAP1 DUP3 MSTORE PUSH1 0x20 MSTORE KECCAK256 SLOAD SWAP1 DUP3 DUP3 LT PUSH2 0x329 JUMPI PUSH1 0x20 DUP6 PUSH2 0x2C7 DUP6 DUP6 SUB DUP8 CALLER PUSH2 0x1E56 JUMP JUMPDEST PUSH1 0x84 SWAP1 PUSH1 0x20 DUP7 MLOAD SWAP2 PUSH3 0x461BCD PUSH1 0xE5 SHL DUP4 MSTORE DUP3 ADD MSTORE PUSH1 0x25 PUSH1 0x24 DUP3 ADD MSTORE PUSH32 0x45524332303A2064656372656173656420616C6C6F77616E63652062656C6F77 PUSH1 0x44 DUP3 ADD MSTORE PUSH5 0x207A65726F PUSH1 0xD8 SHL PUSH1 0x64 DUP3 ADD MSTORE REVERT JUMPDEST DUP4 SWAP1 CALLVALUE PUSH2 0x1C0 JUMPI DUP2 PUSH1 0x3 NOT CALLDATASIZE ADD SLT PUSH2 0x1C0 JUMPI MLOAD SWAP1 DUP2 MSTORE PUSH1 0x20 SWAP1 RETURN JUMPDEST DUP4 DUP4 CALLVALUE PUSH2 0x1C0 JUMPI DUP3 PUSH1 0x3 NOT CALLDATASIZE ADD SLT PUSH2 0x1C0 JUMPI DUP1 CALLDATALOAD PUSH1 0x1 PUSH1 0x1 PUSH1 0xA0 SHL SUB DUP2 AND SWAP2 SWAP1 DUP3 SWAP1 SUB PUSH2 0x21A JUMPI PUSH1 0x24 CALLDATALOAD SWAP1 PUSH2 0x3E9 PUSH32 0x3C11D16CBAFFD01DF69CE1C404F6340EE057498F5F00246190EA54220576A848 PUSH2 0x16FD JUMP JUMPDEST DUP3 ISZERO PUSH2 0x4F7 JUMPI PUSH1 0xFF PUSH2 0x1C4 SLOAD AND PUSH2 0x4A1 JUMPI DUP3 DUP5 MSTORE PUSH1 0xC9 PUSH1 0x20 MSTORE DUP5 DUP5 KECCAK256 SLOAD SWAP1 DUP3 DUP3 LT PUSH2 0x453 JUMPI POP DUP2 DUP5 SWAP6 PUSH32 0xDDF252AD1BE2C89B69C2B068FC378DAA952BA7F163C4A11628F55A4DF523B3EF SWAP4 PUSH1 0x20 SWAP4 DUP7 DUP9 MSTORE PUSH1 0xC9 DUP6 MSTORE SUB DUP2 DUP8 KECCAK256 SSTORE DUP2 PUSH1 0xCB SLOAD SUB PUSH1 0xCB SSTORE MLOAD SWAP1 DUP2 MSTORE LOG3 DUP1 RETURN JUMPDEST PUSH1 0x84 SWAP1 PUSH1 0x20 DUP8 MLOAD SWAP2 PUSH3 0x461BCD PUSH1 0xE5 SHL DUP4 MSTORE DUP3 ADD MSTORE PUSH1 0x22 PUSH1 0x24 DUP3 ADD MSTORE PUSH32 0x45524332303A206275726E20616D6F756E7420657863656564732062616C616E PUSH1 0x44 DUP3 ADD MSTORE PUSH2 0x6365 PUSH1 0xF0 SHL PUSH1 0x64 DUP3 ADD MSTORE REVERT JUMPDEST PUSH1 0x84 SWAP1 PUSH1 0x20 DUP7 MLOAD SWAP2 PUSH3 0x461BCD PUSH1 0xE5 SHL DUP4 MSTORE DUP3 ADD MSTORE PUSH1 0x2A PUSH1 0x24 DUP3 ADD MSTORE PUSH32 0x45524332305061757361626C653A20746F6B656E207472616E73666572207768 PUSH1 0x44 DUP3 ADD MSTORE PUSH10 0x1A5B19481C185D5CD959 PUSH1 0xB2 SHL PUSH1 0x64 DUP3 ADD MSTORE REVERT JUMPDEST PUSH1 0x84 SWAP1 PUSH1 0x20 DUP7 MLOAD SWAP2 PUSH3 0x461BCD PUSH1 0xE5 SHL DUP4 MSTORE DUP3 ADD MSTORE PUSH1 0x21 PUSH1 0x24 DUP3 ADD MSTORE PUSH32 0x45524332303A206275726E2066726F6D20746865207A65726F20616464726573 PUSH1 0x44 DUP3 ADD MSTORE PUSH1 0x73 PUSH1 0xF8 SHL PUSH1 0x64 DUP3 ADD MSTORE REVERT JUMPDEST DUP4 SWAP1 CALLVALUE PUSH2 0x1C0 JUMPI DUP2 PUSH1 0x3 NOT CALLDATASIZE ADD SLT PUSH2 0x1C0 JUMPI DUP1 MLOAD SWAP1 DUP3 PUSH1 0xCD SLOAD PUSH2 0x566 DUP2 PUSH2 0x1C26 JUMP JUMPDEST DUP1 DUP6 MSTORE SWAP2 PUSH1 0x1 SWAP2 DUP1 DUP4 AND SWAP1 DUP2 ISZERO PUSH2 0x5FD JUMPI POP PUSH1 0x1 EQ PUSH2 0x5A0 JUMPI JUMPDEST POP POP POP PUSH2 0x592 DUP3 PUSH2 0x59C SWAP5 SUB DUP4 PUSH2 0x15C2 JUMP JUMPDEST MLOAD SWAP2 DUP3 SWAP2 DUP3 PUSH2 0x1596 JUMP JUMPDEST SUB SWAP1 RETURN JUMPDEST SWAP5 POP PUSH1 0xCD DUP6 MSTORE PUSH32 0x83978B4C69C48DD978AB43FE30F077615294F938FB7F936D9EB340E51EA7DB2E JUMPDEST DUP3 DUP7 LT PUSH2 0x5E5 JUMPI POP POP POP PUSH2 0x592 DUP3 PUSH1 0x20 PUSH2 0x59C SWAP6 DUP3 ADD ADD SWAP5 PUSH2 0x580 JUMP JUMPDEST DUP1 SLOAD PUSH1 0x20 DUP8 DUP8 ADD DUP2 ADD SWAP2 SWAP1 SWAP2 MSTORE SWAP1 SWAP6 ADD SWAP5 DUP2 ADD PUSH2 0x5C8 JUMP JUMPDEST PUSH2 0x59C SWAP8 POP DUP7 SWAP4 POP PUSH1 0x20 SWAP3 POP PUSH2 0x592 SWAP5 SWAP2 POP PUSH1 0xFF NOT AND DUP3 DUP5 ADD MSTORE ISZERO ISZERO PUSH1 0x5 SHL DUP3 ADD ADD SWAP5 PUSH2 0x580 JUMP JUMPDEST SWAP2 SWAP1 POP CALLVALUE PUSH2 0x21A JUMPI DUP2 PUSH1 0x3 NOT CALLDATASIZE ADD SLT PUSH2 0x21A JUMPI PUSH1 0x24 CALLDATALOAD PUSH1 0x1 PUSH1 0x1 PUSH1 0xA0 SHL SUB DUP2 AND SWAP2 SWAP1 DUP3 SWAP1 SUB PUSH2 0x216 JUMPI PUSH1 0x20 SWAP4 PUSH1 0xFF SWAP3 DUP5 SWAP3 CALLDATALOAD DUP3 MSTORE PUSH1 0x65 DUP7 MSTORE DUP3 DUP3 KECCAK256 SWAP1 DUP3 MSTORE DUP6 MSTORE KECCAK256 SLOAD AND SWAP1 MLOAD SWAP1 ISZERO ISZERO DUP2 MSTORE RETURN JUMPDEST SWAP2 SWAP1 POP CALLVALUE PUSH2 0x21A JUMPI DUP2 PUSH1 0x3 NOT CALLDATASIZE ADD SLT PUSH2 0x21A JUMPI PUSH1 0x20 SWAP3 PUSH2 0x69D SWAP2 CALLDATALOAD DUP2 MSTORE PUSH1 0x97 DUP5 MSTORE DUP3 PUSH1 0x24 CALLDATALOAD SWAP2 KECCAK256 PUSH2 0x2140 JUMP JUMPDEST SWAP1 SLOAD SWAP2 MLOAD SWAP2 PUSH1 0x1 DUP1 PUSH1 0xA0 SHL SUB SWAP2 PUSH1 0x3 SHL SHR AND DUP2 MSTORE RETURN JUMPDEST SWAP2 SWAP1 POP CALLVALUE PUSH2 0x21A JUMPI PUSH1 0x80 CALLDATASIZE PUSH1 0x3 NOT ADD SLT PUSH2 0x21A JUMPI PUSH8 0xFFFFFFFFFFFFFFFF DUP2 CALLDATALOAD DUP2 DUP2 GT PUSH2 0xB53 JUMPI PUSH2 0x6E6 SWAP1 CALLDATASIZE SWAP1 DUP5 ADD PUSH2 0x1652 JUMP JUMPDEST SWAP1 PUSH1 0x24 CALLDATALOAD DUP2 DUP2 GT PUSH2 0xB4F JUMPI PUSH2 0x6FE SWAP1 CALLDATASIZE SWAP1 DUP6 ADD PUSH2 0x1652 JUMP JUMPDEST SWAP2 PUSH1 0x44 CALLDATALOAD SWAP2 PUSH1 0x1 PUSH1 0x1 PUSH1 0xA0 SHL SUB SWAP2 DUP3 DUP5 AND DUP5 SUB PUSH2 0xB4B JUMPI PUSH1 0x64 CALLDATALOAD SWAP3 DUP4 AND DUP1 SWAP4 SUB PUSH2 0xB4B JUMPI DUP8 SLOAD SWAP5 PUSH1 0xFF DUP7 PUSH1 0x8 SHR AND ISZERO SWAP7 DUP8 DUP1 SWAP9 PUSH2 0xB3E JUMPI JUMPDEST DUP1 ISZERO PUSH2 0xB27 JUMPI JUMPDEST ISZERO PUSH2 0xACD JUMPI PUSH1 0x1 SWAP7 DUP9 DUP9 PUSH1 0xFF NOT DUP4 AND OR DUP13 SSTORE PUSH2 0xABC JUMPI JUMPDEST POP PUSH2 0x777 PUSH1 0xFF DUP12 SLOAD PUSH1 0x8 SHR AND PUSH2 0x769 DUP2 PUSH2 0x236E JUMP JUMPDEST PUSH2 0x772 DUP2 PUSH2 0x236E JUMP JUMPDEST PUSH2 0x236E JUMP JUMPDEST DUP3 MLOAD DUP5 DUP2 GT PUSH2 0xAA9 JUMPI DUP1 PUSH2 0x78C PUSH1 0xCC SLOAD PUSH2 0x1C26 JUMP JUMPDEST SWAP5 PUSH1 0x1F SWAP6 DUP7 DUP2 GT PUSH2 0xA38 JUMPI JUMPDEST POP PUSH1 0x20 SWAP1 DUP14 DUP8 DUP5 GT PUSH1 0x1 EQ PUSH2 0x9B9 JUMPI SWAP3 PUSH2 0x9AE JUMPI JUMPDEST POP POP PUSH1 0x0 NOT PUSH1 0x3 DUP4 SWAP1 SHL SHR NOT AND SWAP1 DUP9 SHL OR PUSH1 0xCC SSTORE JUMPDEST DUP2 MLOAD SWAP4 DUP5 GT PUSH2 0x99B JUMPI POP PUSH2 0x7D7 PUSH1 0xCD SLOAD PUSH2 0x1C26 JUMP JUMPDEST DUP3 DUP2 GT PUSH2 0x938 JUMPI JUMPDEST POP PUSH1 0x20 SWAP2 DUP4 GT PUSH1 0x1 EQ PUSH2 0x8B3 JUMPI PUSH2 0x847 SWAP5 SWAP4 SWAP3 SWAP2 DUP10 SWAP2 DUP4 PUSH2 0x8A8 JUMPI JUMPDEST POP POP PUSH1 0x0 NOT PUSH1 0x3 DUP4 SWAP1 SHL SHR NOT AND SWAP1 DUP6 SHL OR PUSH1 0xCD SSTORE JUMPDEST PUSH2 0x82D PUSH1 0xFF DUP9 SLOAD PUSH1 0x8 SHR AND PUSH2 0x824 DUP2 PUSH2 0x236E JUMP JUMPDEST PUSH2 0x769 DUP2 PUSH2 0x236E JUMP JUMPDEST PUSH2 0x191 DUP1 SLOAD PUSH1 0x1 PUSH1 0x1 PUSH1 0xA0 SHL SUB NOT AND SWAP1 SWAP2 OR SWAP1 SSTORE DUP6 PUSH2 0x1670 JUMP JUMPDEST DUP4 SLOAD SWAP2 PUSH2 0x85D PUSH1 0xFF DUP5 PUSH1 0x8 SHR AND PUSH2 0x772 DUP2 PUSH2 0x236E JUMP JUMPDEST PUSH2 0x1C4 DUP1 SLOAD PUSH1 0xFF NOT AND SWAP1 SSTORE PUSH2 0x870 JUMPI DUP4 DUP1 RETURN JUMPDEST PUSH32 0x7F26B83FF96E1F2B6A682F133852F6798A09C465DA95921460CEFB3847402498 SWAP3 PUSH1 0x20 SWAP3 PUSH2 0xFF00 NOT AND DUP6 SSTORE MLOAD SWAP1 DUP2 MSTORE LOG1 CODESIZE DUP1 DUP1 DUP4 DUP1 RETURN JUMPDEST ADD MLOAD SWAP1 POP CODESIZE DUP1 PUSH2 0x7FB JUMP JUMPDEST PUSH1 0xCD DUP10 MSTORE SWAP4 SWAP3 SWAP2 DUP6 SWAP2 PUSH32 0x83978B4C69C48DD978AB43FE30F077615294F938FB7F936D9EB340E51EA7DB2E SWAP1 PUSH1 0x1F NOT DUP4 AND DUP12 JUMPDEST DUP2 DUP2 LT PUSH2 0x920 JUMPI POP SWAP7 DUP4 PUSH2 0x847 SWAP9 LT PUSH2 0x907 JUMPI JUMPDEST POP POP POP DUP2 SHL ADD PUSH1 0xCD SSTORE PUSH2 0x810 JUMP JUMPDEST ADD MLOAD PUSH1 0x0 NOT PUSH1 0xF8 DUP5 PUSH1 0x3 SHL AND SHR NOT AND SWAP1 SSTORE CODESIZE DUP1 DUP1 PUSH2 0x8F9 JUMP JUMPDEST DUP3 DUP10 ADD MLOAD DUP5 SSTORE DUP10 SWAP6 SWAP1 SWAP4 ADD SWAP3 PUSH1 0x20 SWAP3 DUP4 ADD SWAP3 ADD PUSH2 0x8E5 JUMP JUMPDEST PUSH1 0xCD DUP11 MSTORE PUSH32 0x83978B4C69C48DD978AB43FE30F077615294F938FB7F936D9EB340E51EA7DB2E DUP4 DUP1 DUP7 ADD PUSH1 0x5 SHR DUP3 ADD SWAP3 PUSH1 0x20 DUP8 LT PUSH2 0x992 JUMPI JUMPDEST ADD PUSH1 0x5 SHR ADD SWAP1 DUP8 SWAP1 JUMPDEST DUP3 DUP2 LT PUSH2 0x987 JUMPI POP POP PUSH2 0x7DF JUMP JUMPDEST DUP12 DUP2 SSTORE ADD DUP8 SWAP1 PUSH2 0x979 JUMP JUMPDEST SWAP3 POP DUP2 SWAP3 PUSH2 0x970 JUMP JUMPDEST PUSH4 0x4E487B71 PUSH1 0xE0 SHL DUP11 MSTORE PUSH1 0x41 SWAP1 MSTORE PUSH1 0x24 DUP10 REVERT JUMPDEST ADD MLOAD SWAP1 POP CODESIZE DUP1 PUSH2 0x7AD JUMP JUMPDEST SWAP2 SWAP1 DUP12 SWAP5 POP PUSH1 0x1F NOT DUP5 AND PUSH1 0xCC DUP5 MSTORE PUSH32 0x47197230E1E4B29FC0BD84D7D78966C0925452AFF72A2A121538B102457E9EBE SWAP4 JUMPDEST DUP2 DUP2 LT PUSH2 0xA20 JUMPI POP DUP5 GT PUSH2 0xA07 JUMPI JUMPDEST POP POP POP DUP2 SHL ADD PUSH1 0xCC SSTORE PUSH2 0x7C2 JUMP JUMPDEST ADD MLOAD PUSH1 0x0 NOT PUSH1 0xF8 DUP5 PUSH1 0x3 SHL AND SHR NOT AND SWAP1 SSTORE CODESIZE DUP1 DUP1 PUSH2 0x9F9 JUMP JUMPDEST DUP3 DUP5 ADD MLOAD DUP6 SSTORE DUP14 SWAP7 SWAP1 SWAP5 ADD SWAP4 PUSH1 0x20 SWAP4 DUP5 ADD SWAP4 ADD PUSH2 0x9EA JUMP JUMPDEST SWAP1 SWAP2 POP PUSH1 0xCC DUP14 MSTORE PUSH32 0x47197230E1E4B29FC0BD84D7D78966C0925452AFF72A2A121538B102457E9EBE DUP7 DUP1 DUP6 ADD PUSH1 0x5 SHR DUP3 ADD SWAP3 PUSH1 0x20 DUP7 LT PUSH2 0xAA0 JUMPI JUMPDEST DUP6 SWAP5 SWAP4 SWAP2 ADD PUSH1 0x5 SHR SWAP1 SWAP2 ADD SWAP1 DUP12 SWAP1 DUP16 JUMPDEST DUP4 DUP3 LT PUSH2 0xA92 JUMPI POP POP POP PUSH2 0x798 JUMP JUMPDEST DUP2 SSTORE DUP6 SWAP5 POP DUP13 SWAP2 ADD DUP16 PUSH2 0xA83 JUMP JUMPDEST SWAP3 POP DUP2 SWAP3 PUSH2 0xA73 JUMP JUMPDEST PUSH4 0x4E487B71 PUSH1 0xE0 SHL DUP12 MSTORE PUSH1 0x41 DUP3 MSTORE PUSH1 0x24 DUP12 REVERT JUMPDEST PUSH2 0xFFFF NOT AND PUSH2 0x101 OR DUP11 SSTORE CODESIZE PUSH2 0x754 JUMP JUMPDEST PUSH1 0x84 SWAP1 PUSH1 0x20 DUP11 MLOAD SWAP2 PUSH3 0x461BCD PUSH1 0xE5 SHL DUP4 MSTORE DUP3 ADD MSTORE PUSH1 0x2E PUSH1 0x24 DUP3 ADD MSTORE PUSH32 0x496E697469616C697A61626C653A20636F6E747261637420697320616C726561 PUSH1 0x44 DUP3 ADD MSTORE PUSH14 0x191E481A5B9A5D1A585B1A5E9959 PUSH1 0x92 SHL PUSH1 0x64 DUP3 ADD MSTORE REVERT JUMPDEST POP ADDRESS EXTCODESIZE ISZERO DUP1 ISZERO PUSH2 0x73D JUMPI POP PUSH1 0x1 PUSH1 0xFF DUP9 AND EQ PUSH2 0x73D JUMP JUMPDEST POP PUSH1 0x1 PUSH1 0xFF DUP9 AND LT PUSH2 0x736 JUMP JUMPDEST DUP8 DUP1 REVERT JUMPDEST DUP6 DUP1 REVERT JUMPDEST DUP5 DUP1 REVERT JUMPDEST DUP4 DUP4 CALLVALUE PUSH2 0x1C0 JUMPI DUP2 PUSH1 0x3 NOT CALLDATASIZE ADD SLT PUSH2 0x1C0 JUMPI PUSH2 0xB92 PUSH32 0x65D7A28E3265B37A6474929F336521B332C1681B933F6CB9F3376673440D862A PUSH2 0x16FD JUMP JUMPDEST PUSH2 0x1C4 SWAP1 DUP2 SLOAD SWAP1 PUSH1 0xFF DUP3 AND PUSH2 0xBD9 JUMPI POP PUSH1 0xFF NOT AND PUSH1 0x1 OR SWAP1 SSTORE DUP2 MLOAD CALLER DUP2 MSTORE PUSH32 0x62E78CEA01BEE320CD4E420270B5EA74000D11B0C9F74754EBDBFC544B05A258 SWAP1 PUSH1 0x20 SWAP1 LOG1 DUP1 RETURN JUMPDEST PUSH1 0x64 SWAP1 PUSH1 0x20 DUP7 MLOAD SWAP2 PUSH3 0x461BCD PUSH1 0xE5 SHL DUP4 MSTORE DUP3 ADD MSTORE PUSH1 0x10 PUSH1 0x24 DUP3 ADD MSTORE PUSH16 0x14185D5CD8589B194E881C185D5CD959 PUSH1 0x82 SHL PUSH1 0x44 DUP3 ADD MSTORE REVERT JUMPDEST SWAP1 POP CALLVALUE PUSH2 0x21A JUMPI PUSH1 0x20 SWAP1 DUP2 PUSH1 0x3 NOT CALLDATASIZE ADD SLT PUSH2 0x216 JUMPI DUP3 CALLDATALOAD SWAP2 PUSH1 0x1 PUSH1 0x1 PUSH1 0xA0 SHL SUB DUP4 AND DUP4 SUB PUSH2 0xB53 JUMPI DUP5 DUP1 MSTORE PUSH1 0x65 DUP2 MSTORE PUSH1 0x1 SWAP1 PUSH2 0xC4F DUP3 DUP5 DUP9 KECCAK256 ADD SLOAD PUSH2 0x16FD JUMP JUMPDEST PUSH32 0x65D7A28E3265B37A6474929F336521B332C1681B933F6CB9F3376673440D862A SWAP4 PUSH2 0xC7B DUP2 DUP7 PUSH2 0x1670 JUMP JUMPDEST PUSH2 0xC85 CALLER DUP7 PUSH2 0x17DC JUMP JUMPDEST DUP7 DUP1 MSTORE PUSH1 0x65 DUP3 MSTORE PUSH2 0xC9A DUP4 DUP6 DUP10 KECCAK256 ADD SLOAD PUSH2 0x16FD JUMP JUMPDEST PUSH2 0xCA4 DUP2 DUP9 PUSH2 0x1670 JUMP JUMPDEST PUSH32 0x9F2DF0FED2C77648DE5860A4CC508CD0818C85B8B8A1AB4CEEEF8D981C8956A6 PUSH2 0xCCF DUP3 DUP3 PUSH2 0x1670 JUMP JUMPDEST PUSH2 0xCFA PUSH32 0x3C11D16CBAFFD01DF69CE1C404F6340EE057498F5F00246190EA54220576A848 SWAP3 DUP4 PUSH2 0x1670 JUMP JUMPDEST PUSH2 0xD04 CALLER DUP3 PUSH2 0x17DC JUMP JUMPDEST PUSH2 0xD0E CALLER DUP4 PUSH2 0x17DC JUMP JUMPDEST PUSH2 0xD18 CALLER DUP10 PUSH2 0x17DC JUMP JUMPDEST DUP8 DUP1 MSTORE PUSH1 0x97 DUP4 MSTORE DUP4 DUP6 DUP10 KECCAK256 SLOAD SUB PUSH2 0xDA2 JUMPI DUP1 DUP9 MSTORE PUSH1 0x97 DUP4 MSTORE DUP4 DUP6 DUP10 KECCAK256 SLOAD SUB PUSH2 0xD8C JUMPI POP DUP1 DUP8 MSTORE PUSH1 0x97 DUP3 MSTORE DUP3 DUP5 DUP9 KECCAK256 SLOAD SUB PUSH2 0xD76 JUMPI POP PUSH1 0x97 SWAP1 DUP5 DUP8 MSTORE MSTORE DUP2 DUP6 KECCAK256 SLOAD SUB PUSH2 0xD61 JUMPI DUP4 DUP1 RETURN JUMPDEST MLOAD PUSH4 0xE2B37CD PUSH1 0xE4 SHL DUP2 MSTORE SWAP2 DUP3 ADD MSTORE PUSH1 0x24 SWAP2 POP REVERT JUMPDEST DUP6 PUSH1 0x24 SWAP2 DUP6 MLOAD SWAP2 PUSH4 0xE2B37CD PUSH1 0xE4 SHL DUP4 MSTORE DUP3 ADD MSTORE REVERT JUMPDEST DUP7 PUSH1 0x24 SWAP2 DUP7 MLOAD SWAP2 PUSH4 0xE2B37CD PUSH1 0xE4 SHL DUP4 MSTORE DUP3 ADD MSTORE REVERT JUMPDEST DUP5 MLOAD PUSH4 0xE2B37CD PUSH1 0xE4 SHL DUP2 MSTORE DUP1 DUP9 ADD DUP10 SWAP1 MSTORE PUSH1 0x24 SWAP1 REVERT JUMPDEST SWAP2 SWAP1 POP CALLVALUE PUSH2 0x21A JUMPI PUSH1 0x20 CALLDATASIZE PUSH1 0x3 NOT ADD SLT PUSH2 0x21A JUMPI CALLDATALOAD PUSH1 0x1 PUSH1 0x1 PUSH1 0xA0 SHL SUB DUP2 AND SWAP1 DUP2 SWAP1 SUB PUSH2 0x21A JUMPI DUP3 DUP3 SWAP2 PUSH1 0x20 SWAP5 MSTORE PUSH1 0xC9 DUP5 MSTORE KECCAK256 SLOAD SWAP1 MLOAD SWAP1 DUP2 MSTORE RETURN JUMPDEST DUP4 SWAP1 CALLVALUE PUSH2 0x1C0 JUMPI DUP2 PUSH1 0x3 NOT CALLDATASIZE ADD SLT PUSH2 0x1C0 JUMPI PUSH1 0x20 SWAP1 PUSH1 0xFF PUSH2 0x1C4 SLOAD AND SWAP1 MLOAD SWAP1 ISZERO ISZERO DUP2 MSTORE RETURN JUMPDEST DUP3 DUP5 CALLVALUE PUSH2 0x2CE JUMPI DUP1 PUSH1 0x3 NOT CALLDATASIZE ADD SLT PUSH2 0x2CE JUMPI POP PUSH32 0x0 PUSH1 0x1 PUSH1 0x1 PUSH1 0xA0 SHL SUB AND ADDRESS SUB PUSH2 0xE85 JUMPI PUSH1 0x20 DUP3 MLOAD PUSH32 0x360894A13BA1A3210667C828492DB98DCA3E2076CC3735A920A3CA505D382BBC DUP2 MSTORE RETURN JUMPDEST PUSH1 0x20 PUSH1 0x84 SWAP3 MLOAD SWAP2 PUSH3 0x461BCD PUSH1 0xE5 SHL DUP4 MSTORE DUP3 ADD MSTORE PUSH1 0x38 PUSH1 0x24 DUP3 ADD MSTORE PUSH32 0x555550535570677261646561626C653A206D757374206E6F742062652063616C PUSH1 0x44 DUP3 ADD MSTORE PUSH32 0x6C6564207468726F7567682064656C656761746563616C6C0000000000000000 PUSH1 0x64 DUP3 ADD MSTORE REVERT JUMPDEST CALLDATASIZE PUSH1 0x3 NOT ADD SLT SWAP1 POP PUSH2 0x1C0 JUMPI DUP1 CALLDATALOAD PUSH1 0x1 PUSH1 0x1 PUSH1 0xA0 SHL SUB DUP1 DUP3 AND DUP3 SUB PUSH2 0x216 JUMPI PUSH1 0x24 CALLDATALOAD SWAP2 PUSH8 0xFFFFFFFFFFFFFFFF DUP4 GT PUSH2 0xB53 JUMPI CALLDATASIZE PUSH1 0x23 DUP5 ADD SLT ISZERO PUSH2 0xB53 JUMPI PUSH2 0xF9F PUSH2 0xF45 PUSH2 0x265 SWAP6 DUP6 PUSH1 0x24 PUSH1 0x1 SWAP8 CALLDATASIZE SWAP4 ADD CALLDATALOAD SWAP2 ADD PUSH2 0x1616 JUMP JUMPDEST SWAP3 DUP1 PUSH32 0x0 AND SWAP1 PUSH2 0xF76 DUP3 ADDRESS EQ ISZERO PUSH2 0x1862 JUMP JUMPDEST PUSH32 0x360894A13BA1A3210667C828492DB98DCA3E2076CC3735A920A3CA505D382BBC SLOAD AND EQ PUSH2 0x18C3 JUMP JUMPDEST PUSH2 0xFA7 PUSH2 0x22D2 JUMP JUMPDEST PUSH2 0x1924 JUMP JUMPDEST SWAP1 POP DUP3 CALLVALUE PUSH2 0x2CE JUMPI DUP2 PUSH1 0x3 NOT CALLDATASIZE ADD SLT PUSH2 0x2CE JUMPI DUP3 CALLDATALOAD PUSH1 0x1 PUSH1 0x1 PUSH1 0xA0 SHL SUB DUP2 AND SWAP2 SWAP1 DUP3 SWAP1 SUB PUSH2 0x2CE JUMPI PUSH1 0x24 CALLDATALOAD PUSH2 0x1000 PUSH32 0x9F2DF0FED2C77648DE5860A4CC508CD0818C85B8B8A1AB4CEEEF8D981C8956A6 PUSH2 0x16FD JUMP JUMPDEST DUP3 ISZERO PUSH2 0x10BA JUMPI PUSH1 0xFF PUSH2 0x1C4 SLOAD AND PUSH2 0x1064 JUMPI PUSH1 0x20 DUP1 SWAP6 POP DUP2 PUSH2 0x1044 PUSH32 0xDDF252AD1BE2C89B69C2B068FC378DAA952BA7F163C4A11628F55A4DF523B3EF SWAP4 PUSH1 0xCB SLOAD PUSH2 0x1C60 JUMP JUMPDEST PUSH1 0xCB SSTORE DUP5 DUP5 MSTORE PUSH1 0xC9 DUP3 MSTORE DUP6 DUP5 KECCAK256 DUP2 DUP2 SLOAD ADD SWAP1 SSTORE DUP6 MLOAD SWAP1 DUP2 MSTORE LOG3 MLOAD PUSH1 0x1 DUP2 MSTORE RETURN JUMPDEST DUP4 MLOAD PUSH3 0x461BCD PUSH1 0xE5 SHL DUP2 MSTORE PUSH1 0x20 DUP2 DUP8 ADD MSTORE PUSH1 0x2A PUSH1 0x24 DUP3 ADD MSTORE PUSH32 0x45524332305061757361626C653A20746F6B656E207472616E73666572207768 PUSH1 0x44 DUP3 ADD MSTORE PUSH10 0x1A5B19481C185D5CD959 PUSH1 0xB2 SHL PUSH1 0x64 DUP3 ADD MSTORE PUSH1 0x84 SWAP1 REVERT JUMPDEST DUP4 MLOAD PUSH3 0x461BCD PUSH1 0xE5 SHL DUP2 MSTORE PUSH1 0x20 DUP2 DUP8 ADD MSTORE PUSH1 0x1F PUSH1 0x24 DUP3 ADD MSTORE PUSH32 0x45524332303A206D696E7420746F20746865207A65726F206164647265737300 PUSH1 0x44 DUP3 ADD MSTORE PUSH1 0x64 SWAP1 REVERT JUMPDEST SWAP2 SWAP1 POP CALLVALUE PUSH2 0x21A JUMPI DUP2 PUSH1 0x3 NOT CALLDATASIZE ADD SLT PUSH2 0x21A JUMPI CALLDATALOAD PUSH1 0x1 PUSH1 0x1 PUSH1 0xA0 SHL SUB DUP2 AND DUP1 DUP3 SUB PUSH2 0x216 JUMPI SWAP1 PUSH2 0x1148 PUSH1 0x20 SWAP5 PUSH2 0x2C7 SWAP4 CALLER DUP3 MSTORE PUSH1 0xCA DUP8 MSTORE DUP6 DUP3 KECCAK256 SWAP1 DUP3 MSTORE DUP7 MSTORE DUP5 PUSH1 0x24 CALLDATALOAD SWAP2 KECCAK256 SLOAD PUSH2 0x1C60 JUMP JUMPDEST SWAP1 CALLER PUSH2 0x1E56 JUMP JUMPDEST SWAP2 POP SWAP2 CALLVALUE PUSH2 0x1C0 JUMPI PUSH1 0x20 CALLDATASIZE PUSH1 0x3 NOT ADD SLT PUSH2 0x1C0 JUMPI PUSH1 0x1 PUSH1 0x1 PUSH1 0xA0 SHL SUB SWAP3 SWAP1 CALLDATALOAD DUP4 DUP2 AND DUP2 SUB PUSH2 0x21A JUMPI PUSH2 0x11AE DUP5 PUSH2 0x265 SWAP6 PUSH32 0x0 AND SWAP1 PUSH2 0xF76 DUP3 ADDRESS EQ ISZERO PUSH2 0x1862 JUMP JUMPDEST PUSH2 0x11B6 PUSH2 0x22D2 JUMP JUMPDEST PUSH2 0x11CB PUSH2 0x11C2 DUP5 PUSH2 0x15FA JUMP JUMPDEST SWAP3 MLOAD SWAP3 DUP4 PUSH2 0x15C2 JUMP JUMPDEST DUP3 DUP3 MSTORE PUSH1 0x1F NOT PUSH2 0x11DA DUP5 PUSH2 0x15FA JUMP JUMPDEST ADD CALLDATASIZE PUSH1 0x20 DUP5 ADD CALLDATACOPY PUSH2 0x1924 JUMP JUMPDEST DUP4 DUP4 CALLVALUE PUSH2 0x1C0 JUMPI DUP3 PUSH1 0x3 NOT CALLDATASIZE ADD SLT PUSH2 0x1C0 JUMPI PUSH1 0x24 CALLDATALOAD SWAP1 PUSH1 0x1 PUSH1 0x1 PUSH1 0xA0 SHL SUB DUP3 AND DUP1 DUP4 SUB PUSH2 0x216 JUMPI CALLER SUB PUSH2 0x121E JUMPI SWAP1 PUSH2 0x265 SWAP2 CALLDATALOAD PUSH2 0x17DC JUMP JUMPDEST PUSH1 0x84 SWAP1 PUSH1 0x20 DUP6 MLOAD SWAP2 PUSH3 0x461BCD PUSH1 0xE5 SHL DUP4 MSTORE DUP3 ADD MSTORE PUSH1 0x2F PUSH1 0x24 DUP3 ADD MSTORE PUSH32 0x416363657373436F6E74726F6C3A2063616E206F6E6C792072656E6F756E6365 PUSH1 0x44 DUP3 ADD MSTORE PUSH15 0x103937B632B9903337B91039B2B633 PUSH1 0x89 SHL PUSH1 0x64 DUP3 ADD MSTORE REVERT JUMPDEST DUP4 SWAP1 CALLVALUE PUSH2 0x1C0 JUMPI DUP2 PUSH1 0x3 NOT CALLDATASIZE ADD SLT PUSH2 0x1C0 JUMPI PUSH1 0x20 SWAP1 MLOAD PUSH1 0x12 DUP2 MSTORE RETURN JUMPDEST SWAP2 SWAP1 POP CALLVALUE PUSH2 0x21A JUMPI DUP2 PUSH1 0x3 NOT CALLDATASIZE ADD SLT PUSH2 0x21A JUMPI PUSH1 0x24 CALLDATALOAD SWAP1 CALLDATALOAD PUSH1 0x1 PUSH1 0x1 PUSH1 0xA0 SHL SUB DUP3 AND DUP3 SUB PUSH2 0x216 JUMPI PUSH2 0x12D7 PUSH1 0x1 PUSH2 0x265 SWAP5 DUP4 DUP8 MSTORE PUSH1 0x65 PUSH1 0x20 MSTORE DUP7 KECCAK256 ADD SLOAD PUSH2 0x16FD JUMP JUMPDEST PUSH2 0x1670 JUMP JUMPDEST SWAP2 SWAP1 POP CALLVALUE PUSH2 0x21A JUMPI PUSH1 0x20 CALLDATASIZE PUSH1 0x3 NOT ADD SLT PUSH2 0x21A JUMPI DUP2 PUSH1 0x20 SWAP4 PUSH1 0x1 SWAP3 CALLDATALOAD DUP2 MSTORE PUSH1 0x65 DUP6 MSTORE KECCAK256 ADD SLOAD SWAP1 MLOAD SWAP1 DUP2 MSTORE RETURN JUMPDEST DUP4 DUP4 CALLVALUE PUSH2 0x1C0 JUMPI PUSH1 0x60 CALLDATASIZE PUSH1 0x3 NOT ADD SLT PUSH2 0x1C0 JUMPI DUP1 CALLDATALOAD PUSH1 0x1 PUSH1 0x1 PUSH1 0xA0 SHL SUB DUP2 DUP2 AND SWAP4 SWAP1 SWAP3 SWAP1 DUP5 DUP4 SUB PUSH2 0x2CE JUMPI PUSH1 0x24 CALLDATALOAD SWAP4 DUP5 AND DUP5 SUB PUSH2 0x2CE JUMPI DUP6 SWAP1 PUSH1 0x44 CALLDATALOAD SWAP6 DUP2 MSTORE PUSH1 0xCA PUSH1 0x20 MSTORE DUP2 DUP2 KECCAK256 CALLER DUP3 MSTORE PUSH1 0x20 MSTORE KECCAK256 SLOAD SWAP1 PUSH1 0x0 NOT DUP3 SUB PUSH2 0x1370 JUMPI JUMPDEST PUSH1 0x20 DUP7 PUSH2 0x2C7 DUP8 DUP8 DUP8 PUSH2 0x1C83 JUMP JUMPDEST DUP5 DUP3 LT PUSH2 0x1399 JUMPI POP SWAP2 DUP4 SWAP2 PUSH2 0x138E PUSH1 0x20 SWAP7 SWAP6 PUSH2 0x2C7 SWAP6 SUB CALLER DUP4 PUSH2 0x1E56 JUMP JUMPDEST SWAP2 SWAP4 SWAP5 DUP2 SWAP4 POP PUSH2 0x1362 JUMP JUMPDEST PUSH1 0x64 SWAP1 PUSH1 0x20 DUP8 MLOAD SWAP2 PUSH3 0x461BCD PUSH1 0xE5 SHL DUP4 MSTORE DUP3 ADD MSTORE PUSH1 0x1D PUSH1 0x24 DUP3 ADD MSTORE PUSH32 0x45524332303A20696E73756666696369656E7420616C6C6F77616E6365000000 PUSH1 0x44 DUP3 ADD MSTORE REVERT JUMPDEST DUP4 SWAP1 CALLVALUE PUSH2 0x1C0 JUMPI DUP2 PUSH1 0x3 NOT CALLDATASIZE ADD SLT PUSH2 0x1C0 JUMPI PUSH1 0x20 SWAP1 PUSH1 0xCB SLOAD SWAP1 MLOAD SWAP1 DUP2 MSTORE RETURN JUMPDEST DUP4 SWAP1 CALLVALUE PUSH2 0x1C0 JUMPI DUP2 PUSH1 0x3 NOT CALLDATASIZE ADD SLT PUSH2 0x1C0 JUMPI PUSH2 0x191 SLOAD SWAP1 MLOAD PUSH1 0x1 PUSH1 0x1 PUSH1 0xA0 SHL SUB SWAP1 SWAP2 AND DUP2 MSTORE PUSH1 0x20 SWAP1 RETURN JUMPDEST SWAP2 SWAP1 POP CALLVALUE PUSH2 0x21A JUMPI DUP2 PUSH1 0x3 NOT CALLDATASIZE ADD SLT PUSH2 0x21A JUMPI CALLDATALOAD SWAP2 PUSH1 0x1 PUSH1 0x1 PUSH1 0xA0 SHL SUB DUP4 AND DUP4 SUB PUSH2 0x2CE JUMPI POP PUSH2 0x2C7 PUSH1 0x20 SWAP3 PUSH1 0x24 CALLDATALOAD SWAP1 CALLER PUSH2 0x1E56 JUMP JUMPDEST DUP4 SWAP1 CALLVALUE PUSH2 0x1C0 JUMPI DUP2 PUSH1 0x3 NOT CALLDATASIZE ADD SLT PUSH2 0x1C0 JUMPI DUP1 MLOAD SWAP1 DUP3 PUSH1 0xCC SLOAD PUSH2 0x147D DUP2 PUSH2 0x1C26 JUMP JUMPDEST DUP1 DUP6 MSTORE SWAP2 PUSH1 0x1 SWAP2 DUP1 DUP4 AND SWAP1 DUP2 ISZERO PUSH2 0x5FD JUMPI POP PUSH1 0x1 EQ PUSH2 0x14A8 JUMPI POP POP POP PUSH2 0x592 DUP3 PUSH2 0x59C SWAP5 SUB DUP4 PUSH2 0x15C2 JUMP JUMPDEST SWAP5 POP PUSH1 0xCC DUP6 MSTORE PUSH32 0x47197230E1E4B29FC0BD84D7D78966C0925452AFF72A2A121538B102457E9EBE JUMPDEST DUP3 DUP7 LT PUSH2 0x14ED JUMPI POP POP POP PUSH2 0x592 DUP3 PUSH1 0x20 PUSH2 0x59C SWAP6 DUP3 ADD ADD SWAP5 PUSH2 0x580 JUMP JUMPDEST DUP1 SLOAD PUSH1 0x20 DUP8 DUP8 ADD DUP2 ADD SWAP2 SWAP1 SWAP2 MSTORE SWAP1 SWAP6 ADD SWAP5 DUP2 ADD PUSH2 0x14D0 JUMP JUMPDEST DUP5 SWAP1 DUP5 CALLVALUE PUSH2 0x21A JUMPI PUSH1 0x20 CALLDATASIZE PUSH1 0x3 NOT ADD SLT PUSH2 0x21A JUMPI CALLDATALOAD PUSH4 0xFFFFFFFF PUSH1 0xE0 SHL DUP2 AND DUP1 SWAP2 SUB PUSH2 0x21A JUMPI PUSH1 0x20 SWAP3 POP PUSH4 0x5A05180F PUSH1 0xE0 SHL DUP2 EQ SWAP1 DUP2 ISZERO PUSH2 0x1548 JUMPI JUMPDEST POP ISZERO ISZERO DUP2 MSTORE RETURN JUMPDEST PUSH4 0x7965DB0B PUSH1 0xE0 SHL DUP2 EQ SWAP2 POP DUP2 ISZERO PUSH2 0x1562 JUMPI JUMPDEST POP DUP4 PUSH2 0x1541 JUMP JUMPDEST PUSH4 0x1FFC9A7 PUSH1 0xE0 SHL EQ SWAP1 POP DUP4 PUSH2 0x155B JUMP JUMPDEST PUSH1 0x0 JUMPDEST DUP4 DUP2 LT PUSH2 0x1586 JUMPI POP POP PUSH1 0x0 SWAP2 ADD MSTORE JUMP JUMPDEST DUP2 DUP2 ADD MLOAD DUP4 DUP3 ADD MSTORE PUSH1 0x20 ADD PUSH2 0x1576 JUMP JUMPDEST PUSH1 0x40 SWAP2 PUSH1 0x20 DUP3 MSTORE PUSH2 0x15B6 DUP2 MLOAD DUP1 SWAP3 DUP2 PUSH1 0x20 DUP7 ADD MSTORE PUSH1 0x20 DUP7 DUP7 ADD SWAP2 ADD PUSH2 0x1573 JUMP JUMPDEST PUSH1 0x1F ADD PUSH1 0x1F NOT AND ADD ADD SWAP1 JUMP JUMPDEST SWAP1 PUSH1 0x1F DUP1 NOT SWAP2 ADD AND DUP2 ADD SWAP1 DUP2 LT PUSH8 0xFFFFFFFFFFFFFFFF DUP3 GT OR PUSH2 0x15E4 JUMPI PUSH1 0x40 MSTORE JUMP JUMPDEST PUSH4 0x4E487B71 PUSH1 0xE0 SHL PUSH1 0x0 MSTORE PUSH1 0x41 PUSH1 0x4 MSTORE PUSH1 0x24 PUSH1 0x0 REVERT JUMPDEST PUSH8 0xFFFFFFFFFFFFFFFF DUP2 GT PUSH2 0x15E4 JUMPI PUSH1 0x1F ADD PUSH1 0x1F NOT AND PUSH1 0x20 ADD SWAP1 JUMP JUMPDEST SWAP3 SWAP2 SWAP3 PUSH2 0x1622 DUP3 PUSH2 0x15FA JUMP JUMPDEST SWAP2 PUSH2 0x1630 PUSH1 0x40 MLOAD SWAP4 DUP5 PUSH2 0x15C2 JUMP JUMPDEST DUP3 SWAP5 DUP2 DUP5 MSTORE DUP2 DUP4 ADD GT PUSH2 0x164D JUMPI DUP3 DUP2 PUSH1 0x20 SWAP4 DUP5 PUSH1 0x0 SWAP7 ADD CALLDATACOPY ADD ADD MSTORE JUMP JUMPDEST PUSH1 0x0 DUP1 REVERT JUMPDEST SWAP1 DUP1 PUSH1 0x1F DUP4 ADD SLT ISZERO PUSH2 0x164D JUMPI DUP2 PUSH1 0x20 PUSH2 0x166D SWAP4 CALLDATALOAD SWAP2 ADD PUSH2 0x1616 JUMP JUMPDEST SWAP1 JUMP JUMPDEST SWAP1 PUSH1 0x40 PUSH2 0x16AF SWAP3 PUSH1 0x0 SWAP1 DUP1 DUP3 MSTORE PUSH1 0x65 PUSH1 0x20 MSTORE DUP3 DUP3 KECCAK256 SWAP4 PUSH1 0x1 DUP1 PUSH1 0xA0 SHL SUB AND SWAP4 DUP5 DUP4 MSTORE PUSH1 0x20 MSTORE PUSH1 0xFF DUP4 DUP4 KECCAK256 SLOAD AND ISZERO PUSH2 0x16B2 JUMPI JUMPDEST DUP2 MSTORE PUSH1 0x97 PUSH1 0x20 MSTORE KECCAK256 PUSH2 0x2158 JUMP JUMPDEST POP JUMP JUMPDEST DUP1 DUP3 MSTORE PUSH1 0x65 PUSH1 0x20 MSTORE DUP3 DUP3 KECCAK256 DUP5 DUP4 MSTORE PUSH1 0x20 MSTORE DUP3 DUP3 KECCAK256 PUSH1 0x1 PUSH1 0xFF NOT DUP3 SLOAD AND OR SWAP1 SSTORE CALLER DUP5 DUP3 PUSH32 0x2F8788117E7EFF1D82E926EC794901D17C78024A50270940304540A733656F0D DUP6 DUP1 LOG4 PUSH2 0x16A2 JUMP JUMPDEST DUP1 PUSH1 0x0 MSTORE PUSH1 0x20 PUSH1 0x65 DUP2 MSTORE PUSH1 0x40 PUSH1 0x0 KECCAK256 CALLER PUSH1 0x0 MSTORE DUP2 MSTORE PUSH1 0xFF PUSH1 0x40 PUSH1 0x0 KECCAK256 SLOAD AND ISZERO PUSH2 0x1724 JUMPI POP POP JUMP JUMPDEST PUSH2 0x17C0 PUSH1 0x48 PUSH2 0x17D8 SWAP4 DUP4 PUSH2 0x1746 PUSH2 0x17B1 SWAP6 PUSH2 0x1740 PUSH1 0x14 CALLER PUSH2 0x1FE9 JUMP JUMPDEST SWAP4 PUSH2 0x1FE9 JUMP JUMPDEST SWAP1 PUSH1 0x40 MLOAD SWAP6 DUP7 SWAP4 PUSH32 0x416363657373436F6E74726F6C3A206163636F756E7420000000000000000000 DUP4 DUP7 ADD MSTORE PUSH2 0x1785 DUP2 MLOAD DUP1 SWAP3 DUP6 PUSH1 0x37 DUP10 ADD SWAP2 ADD PUSH2 0x1573 JUMP JUMPDEST DUP5 ADD SWAP2 PUSH17 0x1034B99036B4B9B9B4B733903937B6329 PUSH1 0x7D SHL PUSH1 0x37 DUP5 ADD MSTORE DUP4 MLOAD SWAP4 DUP5 SWAP2 DUP8 DUP6 ADD SWAP2 ADD PUSH2 0x1573 JUMP JUMPDEST ADD SUB PUSH1 0x28 DUP2 ADD DUP5 MSTORE ADD DUP3 PUSH2 0x15C2 JUMP JUMPDEST PUSH1 0x40 MLOAD PUSH3 0x461BCD PUSH1 0xE5 SHL DUP2 MSTORE SWAP2 DUP3 SWAP2 PUSH1 0x4 DUP4 ADD PUSH2 0x1596 JUMP JUMPDEST SUB SWAP1 REVERT JUMPDEST SWAP1 PUSH1 0x40 PUSH2 0x16AF SWAP3 PUSH1 0x0 SWAP1 DUP1 DUP3 MSTORE PUSH1 0x65 PUSH1 0x20 MSTORE DUP3 DUP3 KECCAK256 SWAP4 PUSH1 0x1 DUP1 PUSH1 0xA0 SHL SUB AND SWAP4 DUP5 DUP4 MSTORE PUSH1 0x20 MSTORE PUSH1 0xFF DUP4 DUP4 KECCAK256 SLOAD AND PUSH2 0x181A JUMPI JUMPDEST DUP2 MSTORE PUSH1 0x97 PUSH1 0x20 MSTORE KECCAK256 PUSH2 0x21E2 JUMP JUMPDEST DUP1 DUP3 MSTORE PUSH1 0x65 PUSH1 0x20 MSTORE DUP3 DUP3 KECCAK256 DUP5 DUP4 MSTORE PUSH1 0x20 MSTORE DUP3 DUP3 KECCAK256 PUSH1 0xFF NOT DUP2 SLOAD AND SWAP1 SSTORE CALLER DUP5 DUP3 PUSH32 0xF6391F5C32D9C69D2A47EA670B442974B53935D1EDC7FD64EB21E047A839171B DUP6 DUP1 LOG4 PUSH2 0x180D JUMP JUMPDEST ISZERO PUSH2 0x1869 JUMPI JUMP JUMPDEST PUSH1 0x40 MLOAD PUSH3 0x461BCD PUSH1 0xE5 SHL DUP2 MSTORE PUSH1 0x20 PUSH1 0x4 DUP3 ADD MSTORE PUSH1 0x2C PUSH1 0x24 DUP3 ADD MSTORE PUSH32 0x46756E6374696F6E206D7573742062652063616C6C6564207468726F75676820 PUSH1 0x44 DUP3 ADD MSTORE PUSH12 0x19195B1959D85D1958D85B1B PUSH1 0xA2 SHL PUSH1 0x64 DUP3 ADD MSTORE PUSH1 0x84 SWAP1 REVERT JUMPDEST ISZERO PUSH2 0x18CA JUMPI JUMP JUMPDEST PUSH1 0x40 MLOAD PUSH3 0x461BCD PUSH1 0xE5 SHL DUP2 MSTORE PUSH1 0x20 PUSH1 0x4 DUP3 ADD MSTORE PUSH1 0x2C PUSH1 0x24 DUP3 ADD MSTORE PUSH32 0x46756E6374696F6E206D7573742062652063616C6C6564207468726F75676820 PUSH1 0x44 DUP3 ADD MSTORE PUSH12 0x6163746976652070726F7879 PUSH1 0xA0 SHL PUSH1 0x64 DUP3 ADD MSTORE PUSH1 0x84 SWAP1 REVERT JUMPDEST SWAP1 SWAP2 PUSH1 0xFF PUSH32 0x4910FDFA16FED3260ED0E7147F7CC6DA11A60208B5B9406D12A635614FFD9143 SLOAD AND PUSH1 0x0 EQ PUSH2 0x195F JUMPI POP PUSH2 0x195D SWAP2 POP PUSH2 0x1B84 JUMP JUMPDEST JUMP JUMPDEST PUSH1 0x40 DUP1 MLOAD PUSH4 0x52D1902D PUSH1 0xE0 SHL DUP2 MSTORE PUSH1 0x20 SWAP5 SWAP2 SWAP4 SWAP3 SWAP1 PUSH1 0x1 PUSH1 0x1 PUSH1 0xA0 SHL SUB DUP5 AND SWAP1 DUP7 DUP2 PUSH1 0x4 DUP2 DUP6 GAS STATICCALL PUSH1 0x0 SWAP2 DUP2 PUSH2 0x1B55 JUMPI JUMPDEST POP PUSH2 0x19F0 JUMPI DUP6 MLOAD PUSH3 0x461BCD PUSH1 0xE5 SHL DUP2 MSTORE PUSH1 0x4 DUP2 ADD DUP9 SWAP1 MSTORE PUSH1 0x2E PUSH1 0x24 DUP3 ADD MSTORE PUSH32 0x45524331393637557067726164653A206E657720696D706C656D656E74617469 PUSH1 0x44 DUP3 ADD MSTORE PUSH14 0x6F6E206973206E6F742055555053 PUSH1 0x90 SHL PUSH1 0x64 DUP3 ADD MSTORE PUSH1 0x84 SWAP1 REVERT JUMPDEST SWAP4 SWAP6 SWAP3 SWAP5 SWAP3 SWAP4 PUSH32 0xC9F76B5EC45E5CDEF99837D7B6D2467235C1DF8933C8CA56DF5C35AFA2C7D444 ADD PUSH2 0x1AFF JUMPI PUSH2 0x1A25 DUP7 PUSH2 0x1B84 JUMP JUMPDEST PUSH32 0xBC7CD75A20EE27FD9ADEBAB32041F755214DBC6BFFA90CC0225B39DA2E5C2D3B PUSH1 0x0 DUP1 LOG2 DUP4 MLOAD ISZERO SWAP1 DUP2 ISZERO SWAP2 PUSH2 0x1AF7 JUMPI JUMPDEST POP PUSH2 0x1A62 JUMPI JUMPDEST POP POP POP POP JUMP JUMPDEST PUSH2 0x1AE3 SWAP4 PUSH1 0x0 DUP1 PUSH2 0x1A73 PUSH1 0x27 PUSH2 0x15FA JUMP JUMPDEST SWAP6 PUSH2 0x1A80 DUP6 MLOAD SWAP8 DUP9 PUSH2 0x15C2 JUMP JUMPDEST PUSH1 0x27 DUP8 MSTORE PUSH32 0x416464726573733A206C6F772D6C6576656C2064656C65676174652063616C6C DUP7 DUP9 ADD MSTORE PUSH7 0x819985A5B1959 PUSH1 0xCA SHL DUP6 DUP9 ADD MSTORE DUP6 DUP2 MLOAD SWAP2 ADD DUP5 GAS DELEGATECALL SWAP2 RETURNDATASIZE ISZERO PUSH2 0x1AED JUMPI RETURNDATASIZE PUSH2 0x1AD4 PUSH2 0x11C2 DUP3 PUSH2 0x15FA JUMP JUMPDEST DUP2 MSTORE PUSH1 0x0 DUP2 SWAP5 RETURNDATASIZE SWAP3 ADD RETURNDATACOPY PUSH2 0x1F58 JUMP JUMPDEST POP CODESIZE DUP1 DUP1 DUP1 PUSH2 0x1A5C JUMP JUMPDEST POP PUSH1 0x60 SWAP3 POP PUSH2 0x1F58 JUMP JUMPDEST SWAP1 POP CODESIZE PUSH2 0x1A56 JUMP JUMPDEST DUP3 MLOAD PUSH3 0x461BCD PUSH1 0xE5 SHL DUP2 MSTORE PUSH1 0x4 DUP2 ADD DUP6 SWAP1 MSTORE PUSH1 0x29 PUSH1 0x24 DUP3 ADD MSTORE PUSH32 0x45524331393637557067726164653A20756E737570706F727465642070726F78 PUSH1 0x44 DUP3 ADD MSTORE PUSH9 0x1A58589B1955555251 PUSH1 0xBA SHL PUSH1 0x64 DUP3 ADD MSTORE PUSH1 0x84 SWAP1 REVERT JUMPDEST SWAP1 SWAP2 DUP9 DUP3 DUP2 RETURNDATASIZE DUP4 GT PUSH2 0x1B7D JUMPI JUMPDEST PUSH2 0x1B6C DUP2 DUP4 PUSH2 0x15C2 JUMP JUMPDEST DUP2 ADD SUB SLT PUSH2 0x2CE JUMPI POP MLOAD SWAP1 CODESIZE PUSH2 0x1990 JUMP JUMPDEST POP RETURNDATASIZE PUSH2 0x1B62 JUMP JUMPDEST DUP1 EXTCODESIZE ISZERO PUSH2 0x1BCB JUMPI PUSH32 0x360894A13BA1A3210667C828492DB98DCA3E2076CC3735A920A3CA505D382BBC DUP1 SLOAD PUSH1 0x1 PUSH1 0x1 PUSH1 0xA0 SHL SUB NOT AND PUSH1 0x1 PUSH1 0x1 PUSH1 0xA0 SHL SUB SWAP1 SWAP3 AND SWAP2 SWAP1 SWAP2 OR SWAP1 SSTORE JUMP JUMPDEST PUSH1 0x40 MLOAD PUSH3 0x461BCD PUSH1 0xE5 SHL DUP2 MSTORE PUSH1 0x20 PUSH1 0x4 DUP3 ADD MSTORE PUSH1 0x2D PUSH1 0x24 DUP3 ADD MSTORE PUSH32 0x455243313936373A206E657720696D706C656D656E746174696F6E206973206E PUSH1 0x44 DUP3 ADD MSTORE PUSH13 0x1BDD08184818DBDB9D1C9858DD PUSH1 0x9A SHL PUSH1 0x64 DUP3 ADD MSTORE PUSH1 0x84 SWAP1 REVERT JUMPDEST SWAP1 PUSH1 0x1 DUP3 DUP2 SHR SWAP3 AND DUP1 ISZERO PUSH2 0x1C56 JUMPI JUMPDEST PUSH1 0x20 DUP4 LT EQ PUSH2 0x1C40 JUMPI JUMP JUMPDEST PUSH4 0x4E487B71 PUSH1 0xE0 SHL PUSH1 0x0 MSTORE PUSH1 0x22 PUSH1 0x4 MSTORE PUSH1 0x24 PUSH1 0x0 REVERT JUMPDEST SWAP2 PUSH1 0x7F AND SWAP2 PUSH2 0x1C35 JUMP JUMPDEST SWAP2 SWAP1 DUP3 ADD DUP1 SWAP3 GT PUSH2 0x1C6D JUMPI JUMP JUMPDEST PUSH4 0x4E487B71 PUSH1 0xE0 SHL PUSH1 0x0 MSTORE PUSH1 0x11 PUSH1 0x4 MSTORE PUSH1 0x24 PUSH1 0x0 REVERT JUMPDEST PUSH1 0x1 PUSH1 0x1 PUSH1 0xA0 SHL SUB SWAP1 DUP2 AND SWAP2 DUP3 ISZERO PUSH2 0x1E03 JUMPI AND SWAP2 DUP3 ISZERO PUSH2 0x1DB2 JUMPI PUSH1 0xFF PUSH2 0x1C4 SLOAD AND PUSH2 0x1D5A JUMPI PUSH1 0x0 DUP3 DUP2 MSTORE PUSH1 0xC9 PUSH1 0x20 MSTORE PUSH1 0x40 DUP2 KECCAK256 SLOAD SWAP2 DUP1 DUP4 LT PUSH2 0x1D06 JUMPI PUSH1 0x40 DUP3 DUP3 PUSH32 0xDDF252AD1BE2C89B69C2B068FC378DAA952BA7F163C4A11628F55A4DF523B3EF SWAP6 DUP8 PUSH1 0x20 SWAP7 MSTORE PUSH1 0xC9 DUP7 MSTORE SUB DUP3 DUP3 KECCAK256 SSTORE DUP7 DUP2 MSTORE KECCAK256 DUP2 DUP2 SLOAD ADD SWAP1 SSTORE PUSH1 0x40 MLOAD SWAP1 DUP2 MSTORE LOG3 JUMP JUMPDEST PUSH1 0x40 MLOAD PUSH3 0x461BCD PUSH1 0xE5 SHL DUP2 MSTORE PUSH1 0x20 PUSH1 0x4 DUP3 ADD MSTORE PUSH1 0x26 PUSH1 0x24 DUP3 ADD MSTORE PUSH32 0x45524332303A207472616E7366657220616D6F756E7420657863656564732062 PUSH1 0x44 DUP3 ADD MSTORE PUSH6 0x616C616E6365 PUSH1 0xD0 SHL PUSH1 0x64 DUP3 ADD MSTORE PUSH1 0x84 SWAP1 REVERT JUMPDEST PUSH1 0x40 MLOAD PUSH3 0x461BCD PUSH1 0xE5 SHL DUP2 MSTORE PUSH1 0x20 PUSH1 0x4 DUP3 ADD MSTORE PUSH1 0x2A PUSH1 0x24 DUP3 ADD MSTORE PUSH32 0x45524332305061757361626C653A20746F6B656E207472616E73666572207768 PUSH1 0x44 DUP3 ADD MSTORE PUSH10 0x1A5B19481C185D5CD959 PUSH1 0xB2 SHL PUSH1 0x64 DUP3 ADD MSTORE PUSH1 0x84 SWAP1 REVERT JUMPDEST PUSH1 0x40 MLOAD PUSH3 0x461BCD PUSH1 0xE5 SHL DUP2 MSTORE PUSH1 0x20 PUSH1 0x4 DUP3 ADD MSTORE PUSH1 0x23 PUSH1 0x24 DUP3 ADD MSTORE PUSH32 0x45524332303A207472616E7366657220746F20746865207A65726F2061646472 PUSH1 0x44 DUP3 ADD MSTORE PUSH3 0x657373 PUSH1 0xE8 SHL PUSH1 0x64 DUP3 ADD MSTORE PUSH1 0x84 SWAP1 REVERT JUMPDEST PUSH1 0x40 MLOAD PUSH3 0x461BCD PUSH1 0xE5 SHL DUP2 MSTORE PUSH1 0x20 PUSH1 0x4 DUP3 ADD MSTORE PUSH1 0x25 PUSH1 0x24 DUP3 ADD MSTORE PUSH32 0x45524332303A207472616E736665722066726F6D20746865207A65726F206164 PUSH1 0x44 DUP3 ADD MSTORE PUSH5 0x6472657373 PUSH1 0xD8 SHL PUSH1 0x64 DUP3 ADD MSTORE PUSH1 0x84 SWAP1 REVERT JUMPDEST PUSH1 0x1 PUSH1 0x1 PUSH1 0xA0 SHL SUB SWAP1 DUP2 AND SWAP2 DUP3 ISZERO PUSH2 0x1F07 JUMPI AND SWAP2 DUP3 ISZERO PUSH2 0x1EB7 JUMPI PUSH1 0x20 PUSH32 0x8C5BE1E5EBEC7D5BD14F71427D1E84F3DD0314C0F7B2291E5B200AC8C7C3B925 SWAP2 DUP4 PUSH1 0x0 MSTORE PUSH1 0xCA DUP3 MSTORE PUSH1 0x40 PUSH1 0x0 KECCAK256 DUP6 PUSH1 0x0 MSTORE DUP3 MSTORE DUP1 PUSH1 0x40 PUSH1 0x0 KECCAK256 SSTORE PUSH1 0x40 MLOAD SWAP1 DUP2 MSTORE LOG3 JUMP JUMPDEST PUSH1 0x40 MLOAD PUSH3 0x461BCD PUSH1 0xE5 SHL DUP2 MSTORE PUSH1 0x20 PUSH1 0x4 DUP3 ADD MSTORE PUSH1 0x22 PUSH1 0x24 DUP3 ADD MSTORE PUSH32 0x45524332303A20617070726F766520746F20746865207A65726F206164647265 PUSH1 0x44 DUP3 ADD MSTORE PUSH2 0x7373 PUSH1 0xF0 SHL PUSH1 0x64 DUP3 ADD MSTORE PUSH1 0x84 SWAP1 REVERT JUMPDEST PUSH1 0x40 MLOAD PUSH3 0x461BCD PUSH1 0xE5 SHL DUP2 MSTORE PUSH1 0x20 PUSH1 0x4 DUP3 ADD MSTORE PUSH1 0x24 DUP1 DUP3 ADD MSTORE PUSH32 0x45524332303A20617070726F76652066726F6D20746865207A65726F20616464 PUSH1 0x44 DUP3 ADD MSTORE PUSH4 0x72657373 PUSH1 0xE0 SHL PUSH1 0x64 DUP3 ADD MSTORE PUSH1 0x84 SWAP1 REVERT JUMPDEST SWAP2 SWAP3 SWAP1 ISZERO PUSH2 0x1FBA JUMPI POP DUP2 MLOAD ISZERO PUSH2 0x1F6C JUMPI POP SWAP1 JUMP JUMPDEST EXTCODESIZE ISZERO PUSH2 0x1F75 JUMPI SWAP1 JUMP JUMPDEST PUSH1 0x40 MLOAD PUSH3 0x461BCD PUSH1 0xE5 SHL DUP2 MSTORE PUSH1 0x20 PUSH1 0x4 DUP3 ADD MSTORE PUSH1 0x1D PUSH1 0x24 DUP3 ADD MSTORE PUSH32 0x416464726573733A2063616C6C20746F206E6F6E2D636F6E7472616374000000 PUSH1 0x44 DUP3 ADD MSTORE PUSH1 0x64 SWAP1 REVERT JUMPDEST DUP3 MLOAD SWAP1 SWAP2 POP ISZERO PUSH2 0x1FCD JUMPI POP DUP1 MLOAD SWAP1 PUSH1 0x20 ADD REVERT JUMPDEST PUSH1 0x40 MLOAD PUSH3 0x461BCD PUSH1 0xE5 SHL DUP2 MSTORE SWAP1 DUP2 SWAP1 PUSH2 0x17D8 SWAP1 PUSH1 0x4 DUP4 ADD PUSH2 0x1596 JUMP JUMPDEST PUSH1 0x1 SWAP2 DUP1 DUP4 SHL SWAP2 SWAP1 PUSH1 0x1 PUSH1 0x1 PUSH1 0xFF SHL SUB DUP2 AND SUB PUSH2 0x1C6D JUMPI PUSH1 0x2 DUP3 ADD SWAP3 DUP4 DUP4 GT PUSH2 0x1C6D JUMPI PUSH2 0x202E PUSH2 0x2018 DUP6 PUSH2 0x15FA JUMP JUMPDEST SWAP5 PUSH2 0x2026 PUSH1 0x40 MLOAD SWAP7 DUP8 PUSH2 0x15C2 JUMP JUMPDEST DUP1 DUP7 MSTORE PUSH2 0x15FA JUMP JUMPDEST PUSH1 0x20 SWAP4 SWAP1 DUP6 DUP6 ADD SWAP1 PUSH1 0x1F NOT ADD CALLDATASIZE DUP3 CALLDATACOPY DUP6 MLOAD ISZERO PUSH2 0x212A JUMPI PUSH1 0x30 SWAP1 MSTORE8 DUP5 MLOAD DUP3 LT ISZERO PUSH2 0x212A JUMPI PUSH1 0x78 PUSH1 0x21 DUP7 ADD MSTORE8 DUP2 DUP2 ADD DUP1 SWAP2 GT PUSH2 0x1C6D JUMPI SWAP1 JUMPDEST DUP1 DUP3 GT PUSH2 0x20B8 JUMPI POP POP PUSH2 0x2075 JUMPI POP SWAP1 JUMP JUMPDEST PUSH1 0x64 SWAP1 PUSH1 0x40 MLOAD SWAP1 PUSH3 0x461BCD PUSH1 0xE5 SHL DUP3 MSTORE DUP1 PUSH1 0x4 DUP4 ADD MSTORE PUSH1 0x24 DUP3 ADD MSTORE PUSH32 0x537472696E67733A20686578206C656E67746820696E73756666696369656E74 PUSH1 0x44 DUP3 ADD MSTORE REVERT JUMPDEST SWAP1 SWAP2 PUSH1 0xF DUP2 AND PUSH1 0x10 DUP2 LT ISZERO PUSH2 0x2115 JUMPI DUP6 MLOAD DUP5 LT ISZERO PUSH2 0x2115 JUMPI PUSH16 0x181899199A1A9B1B9C1CB0B131B232B3 PUSH1 0x81 SHL SWAP1 BYTE DUP6 DUP5 ADD DUP6 ADD MSTORE8 PUSH1 0x4 SHR SWAP2 DUP1 ISZERO PUSH2 0x2100 JUMPI PUSH1 0x0 NOT ADD SWAP1 PUSH2 0x2064 JUMP JUMPDEST PUSH1 0x24 PUSH1 0x0 PUSH4 0x4E487B71 PUSH1 0xE0 SHL DUP2 MSTORE PUSH1 0x11 PUSH1 0x4 MSTORE REVERT JUMPDEST PUSH1 0x24 PUSH1 0x0 PUSH4 0x4E487B71 PUSH1 0xE0 SHL DUP2 MSTORE PUSH1 0x32 PUSH1 0x4 MSTORE REVERT JUMPDEST PUSH4 0x4E487B71 PUSH1 0xE0 SHL PUSH1 0x0 MSTORE PUSH1 0x32 PUSH1 0x4 MSTORE PUSH1 0x24 PUSH1 0x0 REVERT JUMPDEST DUP1 SLOAD DUP3 LT ISZERO PUSH2 0x212A JUMPI PUSH1 0x0 MSTORE PUSH1 0x20 PUSH1 0x0 KECCAK256 ADD SWAP1 PUSH1 0x0 SWAP1 JUMP JUMPDEST SWAP2 SWAP1 PUSH1 0x1 DUP4 ADD PUSH1 0x0 SWAP1 DUP3 DUP3 MSTORE DUP1 PUSH1 0x20 MSTORE PUSH1 0x40 DUP3 KECCAK256 SLOAD ISZERO PUSH1 0x0 EQ PUSH2 0x21DC JUMPI DUP5 SLOAD SWAP5 PUSH9 0x10000000000000000 DUP7 LT ISZERO PUSH2 0x21C8 JUMPI DUP4 PUSH2 0x21B8 PUSH2 0x21A1 DUP9 PUSH1 0x1 PUSH1 0x40 SWAP9 SWAP10 SWAP11 ADD DUP6 SSTORE DUP5 PUSH2 0x2140 JUMP JUMPDEST DUP2 SWAP4 SWAP2 SLOAD SWAP1 PUSH1 0x3 SHL SWAP2 DUP3 SHL SWAP2 PUSH1 0x0 NOT SWAP1 SHL NOT AND OR SWAP1 JUMP JUMPDEST SWAP1 SSTORE SLOAD SWAP4 DUP3 MSTORE PUSH1 0x20 MSTORE KECCAK256 SSTORE PUSH1 0x1 SWAP1 JUMP JUMPDEST PUSH4 0x4E487B71 PUSH1 0xE0 SHL DUP4 MSTORE PUSH1 0x41 PUSH1 0x4 MSTORE PUSH1 0x24 DUP4 REVERT JUMPDEST POP SWAP3 POP POP JUMP JUMPDEST SWAP1 PUSH1 0x1 DUP3 ADD SWAP1 PUSH1 0x0 SWAP3 DUP2 DUP5 MSTORE DUP3 PUSH1 0x20 MSTORE PUSH1 0x40 DUP5 KECCAK256 SLOAD SWAP1 DUP2 ISZERO ISZERO PUSH1 0x0 EQ PUSH2 0x22CB JUMPI PUSH1 0x0 NOT SWAP2 DUP1 DUP4 ADD DUP2 DUP2 GT PUSH2 0x22B7 JUMPI DUP3 SLOAD SWAP1 DUP5 DUP3 ADD SWAP2 DUP3 GT PUSH2 0x22A3 JUMPI DUP1 DUP3 SUB PUSH2 0x226E JUMPI JUMPDEST POP POP POP DUP1 SLOAD DUP1 ISZERO PUSH2 0x225A JUMPI DUP3 ADD SWAP2 PUSH2 0x223D DUP4 DUP4 PUSH2 0x2140 JUMP JUMPDEST SWAP1 SWAP2 DUP3 SLOAD SWAP2 PUSH1 0x3 SHL SHL NOT AND SWAP1 SSTORE SSTORE DUP3 MSTORE PUSH1 0x20 MSTORE PUSH1 0x40 DUP2 KECCAK256 SSTORE PUSH1 0x1 SWAP1 JUMP JUMPDEST PUSH4 0x4E487B71 PUSH1 0xE0 SHL DUP7 MSTORE PUSH1 0x31 PUSH1 0x4 MSTORE PUSH1 0x24 DUP7 REVERT JUMPDEST PUSH2 0x228E PUSH2 0x227E PUSH2 0x21A1 SWAP4 DUP7 PUSH2 0x2140 JUMP JUMPDEST SWAP1 SLOAD SWAP1 PUSH1 0x3 SHL SHR SWAP3 DUP4 SWAP3 DUP7 PUSH2 0x2140 JUMP JUMPDEST SWAP1 SSTORE DUP7 MSTORE DUP5 PUSH1 0x20 MSTORE PUSH1 0x40 DUP7 KECCAK256 SSTORE CODESIZE DUP1 DUP1 PUSH2 0x2225 JUMP JUMPDEST PUSH4 0x4E487B71 PUSH1 0xE0 SHL DUP9 MSTORE PUSH1 0x11 PUSH1 0x4 MSTORE PUSH1 0x24 DUP9 REVERT JUMPDEST PUSH4 0x4E487B71 PUSH1 0xE0 SHL DUP8 MSTORE PUSH1 0x11 PUSH1 0x4 MSTORE PUSH1 0x24 DUP8 REVERT JUMPDEST POP POP POP POP SWAP1 JUMP JUMPDEST PUSH2 0x191 SLOAD PUSH1 0x40 MLOAD PUSH4 0xD994D6D5 PUSH1 0xE0 SHL DUP2 MSTORE CALLER PUSH1 0x4 DUP3 ADD MSTORE SWAP1 PUSH1 0x20 SWAP1 DUP3 SWAP1 PUSH1 0x24 SWAP1 DUP3 SWAP1 PUSH1 0x1 PUSH1 0x1 PUSH1 0xA0 SHL SUB AND GAS STATICCALL SWAP1 DUP2 ISZERO PUSH2 0x2362 JUMPI PUSH1 0x0 SWAP2 PUSH2 0x2328 JUMPI JUMPDEST POP ISZERO PUSH2 0x2316 JUMPI JUMP JUMPDEST PUSH1 0x40 MLOAD PUSH4 0x1DD1B1B5 PUSH1 0xE2 SHL DUP2 MSTORE PUSH1 0x4 SWAP1 REVERT JUMPDEST PUSH1 0x20 DUP2 RETURNDATASIZE DUP3 GT PUSH2 0x235A JUMPI JUMPDEST DUP2 PUSH2 0x2340 PUSH1 0x20 SWAP4 DUP4 PUSH2 0x15C2 JUMP JUMPDEST DUP2 ADD SUB SLT PUSH2 0x1C0 JUMPI MLOAD SWAP1 DUP2 ISZERO ISZERO DUP3 SUB PUSH2 0x2CE JUMPI POP CODESIZE PUSH2 0x230E JUMP JUMPDEST RETURNDATASIZE SWAP2 POP PUSH2 0x2333 JUMP JUMPDEST PUSH1 0x40 MLOAD RETURNDATASIZE PUSH1 0x0 DUP3 RETURNDATACOPY RETURNDATASIZE SWAP1 REVERT JUMPDEST ISZERO PUSH2 0x2375 JUMPI JUMP JUMPDEST PUSH1 0x40 MLOAD PUSH3 0x461BCD PUSH1 0xE5 SHL DUP2 MSTORE PUSH1 0x20 PUSH1 0x4 DUP3 ADD MSTORE PUSH1 0x2B PUSH1 0x24 DUP3 ADD MSTORE PUSH32 0x496E697469616C697A61626C653A20636F6E7472616374206973206E6F742069 PUSH1 0x44 DUP3 ADD MSTORE PUSH11 0x6E697469616C697A696E67 PUSH1 0xA8 SHL PUSH1 0x64 DUP3 ADD MSTORE PUSH1 0x84 SWAP1 REVERT INVALID LOG2 PUSH5 0x6970667358 0x22 SLT KECCAK256 0xDA 0xAC SWAP6 0xF7 JUMPDEST MSTORE8 SHR PUSH22 0xBEE714C253B7504C852F4008A3EE371C9AF9018FA0D3 SWAP14 0xFC PUSH5 0x736F6C6343 STOP ADDMOD EQ STOP CALLER PUSH1 0xA0 DUP1 PUSH1 0x40 MSTORE CALLVALUE PUSH2 0xDC JUMPI ADDRESS PUSH1 0x80 MSTORE PUSH1 0x0 SLOAD SWAP1 PUSH1 0xFF DUP3 PUSH1 0x8 SHR AND PUSH2 0x8A JUMPI POP PUSH1 0xFF DUP1 DUP3 AND SUB PUSH2 0x4F JUMPI JUMPDEST PUSH1 0x40 MLOAD PUSH2 0xF4A SWAP1 DUP2 PUSH2 0xE2 DUP3 CODECOPY PUSH1 0x80 MLOAD DUP2 DUP2 DUP2 PUSH2 0x544 ADD MSTORE DUP2 DUP2 PUSH2 0x6AC ADD MSTORE PUSH2 0x7BE ADD MSTORE RETURN JUMPDEST PUSH1 0xFF SWAP1 DUP2 NOT AND OR PUSH1 0x0 SSTORE PUSH32 0x7F26B83FF96E1F2B6A682F133852F6798A09C465DA95921460CEFB3847402498 PUSH1 0x20 PUSH1 0x40 MLOAD PUSH1 0xFF DUP2 MSTORE LOG1 CODESIZE PUSH2 0x29 JUMP JUMPDEST PUSH3 0x461BCD PUSH1 0xE5 SHL DUP2 MSTORE PUSH1 0x20 PUSH1 0x4 DUP3 ADD MSTORE PUSH1 0x27 PUSH1 0x24 DUP3 ADD MSTORE PUSH32 0x496E697469616C697A61626C653A20636F6E747261637420697320696E697469 PUSH1 0x44 DUP3 ADD MSTORE PUSH7 0x616C697A696E67 PUSH1 0xC8 SHL PUSH1 0x64 DUP3 ADD MSTORE PUSH1 0x84 SWAP1 REVERT JUMPDEST PUSH1 0x0 DUP1 REVERT INVALID PUSH1 0x40 PUSH1 0x80 DUP2 MSTORE PUSH1 0x4 SWAP1 DUP2 CALLDATASIZE LT ISZERO PUSH2 0x15 JUMPI PUSH1 0x0 DUP1 REVERT JUMPDEST PUSH1 0x0 SWAP2 DUP3 CALLDATALOAD PUSH1 0xE0 SHR DUP1 PUSH4 0x5216F72 EQ PUSH2 0x8A2 JUMPI DUP1 PUSH4 0xC340A24 EQ PUSH2 0x879 JUMPI DUP1 PUSH4 0x2D88AF4A EQ PUSH2 0x823 JUMPI DUP4 DUP2 PUSH4 0x3659CFE6 EQ PUSH2 0x78C JUMPI POP DUP1 PUSH4 0x3F4BA83A EQ PUSH2 0x713 JUMPI DUP4 DUP2 PUSH4 0x4F1EF286 EQ PUSH2 0x629 JUMPI POP DUP1 PUSH4 0x5210570C EQ PUSH2 0x603 JUMPI DUP1 PUSH4 0x52D1902D EQ PUSH2 0x52F JUMPI DUP1 PUSH4 0x5C975ABB EQ PUSH2 0x508 JUMPI DUP1 PUSH4 0x64A731E9 EQ PUSH2 0x4CE JUMPI DUP1 PUSH4 0x68274357 EQ PUSH2 0x4A2 JUMPI DUP1 PUSH4 0x8456CB59 EQ PUSH2 0x401 JUMPI DUP1 PUSH4 0x8B9789C9 EQ PUSH2 0x3E3 JUMPI DUP1 PUSH4 0x9FD0506D EQ PUSH2 0x3B6 JUMPI DUP1 PUSH4 0xBB4872DE EQ PUSH2 0x392 JUMPI DUP1 PUSH4 0xC0C53B8B EQ PUSH2 0x1CB JUMPI DUP1 PUSH4 0xD6C9858B EQ PUSH2 0x1A1 JUMPI DUP1 PUSH4 0xE4C0AAF4 EQ PUSH2 0x154 JUMPI PUSH4 0xE6FD7096 EQ PUSH2 0xF6 JUMPI PUSH1 0x0 DUP1 REVERT JUMPDEST CALLVALUE PUSH2 0x150 JUMPI DUP2 PUSH1 0x3 NOT CALLDATASIZE ADD SLT PUSH2 0x150 JUMPI DUP1 CALLDATALOAD SWAP2 PUSH1 0x1 PUSH1 0x1 PUSH1 0xA0 SHL SUB DUP1 DUP5 AND DUP5 SUB PUSH2 0x14C JUMPI PUSH2 0x12F SLOAD AND CALLER SUB PUSH2 0x135 JUMPI DUP4 PUSH2 0x132 PUSH1 0x24 CALLDATALOAD DUP6 PUSH2 0xECE JUMP JUMPDEST DUP1 RETURN JUMPDEST PUSH1 0x24 SWAP3 POP MLOAD SWAP1 PUSH4 0x2976A2F PUSH1 0xE0 SHL DUP3 MSTORE CALLER SWAP1 DUP3 ADD MSTORE REVERT JUMPDEST DUP5 DUP1 REVERT JUMPDEST DUP3 DUP1 REVERT JUMPDEST DUP4 DUP3 CALLVALUE PUSH2 0x19D JUMPI PUSH1 0x20 CALLDATASIZE PUSH1 0x3 NOT ADD SLT PUSH2 0x19D JUMPI CALLDATALOAD PUSH1 0x1 PUSH1 0x1 PUSH1 0xA0 SHL SUB DUP2 AND SWAP1 DUP2 SWAP1 SUB PUSH2 0x19D JUMPI PUSH2 0x182 PUSH2 0xDD3 JUMP JUMPDEST PUSH12 0xFFFFFFFFFFFFFFFFFFFFFFFF PUSH1 0xA0 SHL PUSH1 0x97 SLOAD AND OR PUSH1 0x97 SSTORE DUP1 RETURN JUMPDEST POP DUP1 REVERT JUMPDEST POP POP CALLVALUE PUSH2 0x19D JUMPI DUP2 PUSH1 0x3 NOT CALLDATASIZE ADD SLT PUSH2 0x19D JUMPI PUSH2 0x12F SLOAD SWAP1 MLOAD PUSH1 0x1 PUSH1 0x1 PUSH1 0xA0 SHL SUB SWAP1 SWAP2 AND DUP2 MSTORE PUSH1 0x20 SWAP1 RETURN JUMPDEST POP CALLVALUE PUSH2 0x150 JUMPI PUSH1 0x60 CALLDATASIZE PUSH1 0x3 NOT ADD SLT PUSH2 0x150 JUMPI DUP1 CALLDATALOAD PUSH1 0x1 PUSH1 0x1 PUSH1 0xA0 SHL SUB DUP2 DUP2 AND SWAP3 SWAP2 DUP4 SWAP1 SUB PUSH2 0x14C JUMPI PUSH1 0x24 CALLDATALOAD SWAP3 DUP2 DUP5 AND DUP1 SWAP5 SUB PUSH2 0x38E JUMPI PUSH1 0x44 CALLDATALOAD SWAP2 DUP3 AND DUP3 SUB PUSH2 0x38E JUMPI DUP6 SLOAD PUSH1 0xFF DUP2 PUSH1 0x8 SHR AND ISZERO SWAP4 DUP5 DUP1 SWAP6 PUSH2 0x381 JUMPI JUMPDEST DUP1 ISZERO PUSH2 0x36A JUMPI JUMPDEST ISZERO PUSH2 0x310 JUMPI POP PUSH1 0x1 SWAP3 SWAP2 PUSH2 0x29D SWAP2 DUP6 DUP6 PUSH1 0xFF NOT DUP4 AND OR DUP11 SSTORE PUSH2 0x2FF JUMPI JUMPDEST POP PUSH12 0xFFFFFFFFFFFFFFFFFFFFFFFF PUSH1 0xA0 SHL SWAP1 PUSH2 0x12F SWAP1 DUP3 DUP3 SLOAD AND OR SWAP1 SSTORE DUP8 SLOAD SWAP6 PUSH1 0xFF DUP8 PUSH1 0x8 SHR AND SWAP2 PUSH2 0x275 DUP4 PUSH2 0xE6E JUMP JUMPDEST PUSH2 0x27E DUP4 PUSH2 0xE6E JUMP JUMPDEST PUSH2 0x287 DUP4 PUSH2 0xE6E JUMP JUMPDEST PUSH2 0x290 DUP4 PUSH2 0xE6E JUMP JUMPDEST PUSH1 0x97 SLOAD AND OR PUSH1 0x97 SSTORE PUSH2 0xE6E JUMP JUMPDEST PUSH1 0xCA SLOAD SWAP1 PUSH3 0x10000 DUP4 PUSH1 0xB0 SHL SUB SWAP1 PUSH1 0x10 SHL AND SWAP1 PUSH2 0xFF01 DUP4 PUSH1 0xB0 SHL SUB NOT AND OR OR PUSH1 0xCA SSTORE PUSH2 0x2C7 JUMPI DUP3 DUP1 RETURN JUMPDEST PUSH2 0xFF00 NOT AND DUP3 SSTORE MLOAD PUSH1 0x1 DUP2 MSTORE PUSH32 0x7F26B83FF96E1F2B6A682F133852F6798A09C465DA95921460CEFB3847402498 SWAP1 PUSH1 0x20 SWAP1 LOG1 CODESIZE DUP1 DUP3 DUP1 RETURN JUMPDEST PUSH2 0xFFFF NOT AND PUSH2 0x101 OR DUP9 SSTORE CODESIZE PUSH2 0x244 JUMP JUMPDEST PUSH1 0x84 SWAP1 PUSH1 0x20 DUP9 MLOAD SWAP2 PUSH3 0x461BCD PUSH1 0xE5 SHL DUP4 MSTORE DUP3 ADD MSTORE PUSH1 0x2E PUSH1 0x24 DUP3 ADD MSTORE PUSH32 0x496E697469616C697A61626C653A20636F6E747261637420697320616C726561 PUSH1 0x44 DUP3 ADD MSTORE PUSH14 0x191E481A5B9A5D1A585B1A5E9959 PUSH1 0x92 SHL PUSH1 0x64 DUP3 ADD MSTORE REVERT JUMPDEST POP ADDRESS EXTCODESIZE ISZERO DUP1 ISZERO PUSH2 0x227 JUMPI POP PUSH1 0x1 PUSH1 0xFF DUP4 AND EQ PUSH2 0x227 JUMP JUMPDEST POP PUSH1 0x1 PUSH1 0xFF DUP4 AND LT PUSH2 0x220 JUMP JUMPDEST DUP6 DUP1 REVERT JUMPDEST POP POP CALLVALUE PUSH2 0x19D JUMPI DUP2 PUSH1 0x3 NOT CALLDATASIZE ADD SLT PUSH2 0x19D JUMPI PUSH1 0x20 SWAP1 PUSH1 0xFF PUSH1 0xCA SLOAD AND SWAP1 MLOAD SWAP1 ISZERO ISZERO DUP2 MSTORE RETURN JUMPDEST POP POP CALLVALUE PUSH2 0x19D JUMPI DUP2 PUSH1 0x3 NOT CALLDATASIZE ADD SLT PUSH2 0x19D JUMPI PUSH1 0xCA SLOAD SWAP1 MLOAD PUSH1 0x10 SWAP2 SWAP1 SWAP2 SHR PUSH1 0x1 PUSH1 0x1 PUSH1 0xA0 SHL SUB AND DUP2 MSTORE PUSH1 0x20 SWAP1 RETURN JUMPDEST DUP4 DUP3 CALLVALUE PUSH2 0x19D JUMPI PUSH1 0x20 CALLDATASIZE PUSH1 0x3 NOT ADD SLT PUSH2 0x19D JUMPI PUSH2 0x132 SWAP1 CALLDATALOAD CALLER PUSH2 0xECE JUMP JUMPDEST POP CALLVALUE PUSH2 0x150 JUMPI DUP3 PUSH1 0x3 NOT CALLDATASIZE ADD SLT PUSH2 0x150 JUMPI PUSH1 0xCA SLOAD SWAP1 PUSH1 0xFF DUP3 PUSH1 0x8 SHR AND PUSH2 0x494 JUMPI PUSH1 0x10 DUP3 SWAP1 SHR PUSH1 0x1 PUSH1 0x1 PUSH1 0xA0 SHL SUB AND CALLER SUB PUSH2 0x486 JUMPI PUSH1 0xFF DUP3 AND ISZERO PUSH2 0x478 JUMPI POP PUSH2 0xFF00 NOT AND PUSH2 0x100 OR PUSH1 0xCA SSTORE MLOAD CALLER DUP2 MSTORE PUSH32 0x62E78CEA01BEE320CD4E420270B5EA74000D11B0C9F74754EBDBFC544B05A258 SWAP1 PUSH1 0x20 SWAP1 LOG1 DUP1 RETURN JUMPDEST DUP3 MLOAD PUSH4 0x866099C3 PUSH1 0xE0 SHL DUP2 MSTORE REVERT JUMPDEST DUP3 MLOAD PUSH4 0x1D77D477 PUSH1 0xE2 SHL DUP2 MSTORE REVERT JUMPDEST DUP3 MLOAD PUSH4 0x783BB6C9 PUSH1 0xE1 SHL DUP2 MSTORE REVERT JUMPDEST DUP4 CALLVALUE PUSH2 0x4CB JUMPI DUP1 PUSH1 0x3 NOT CALLDATASIZE ADD SLT PUSH2 0x4CB JUMPI PUSH2 0x4BB PUSH2 0xDD3 JUMP JUMPDEST PUSH1 0x1 PUSH1 0xFF NOT PUSH1 0xCA SLOAD AND OR PUSH1 0xCA SSTORE DUP1 RETURN JUMPDEST DUP1 REVERT JUMPDEST POP CALLVALUE PUSH2 0x150 JUMPI PUSH1 0x20 CALLDATASIZE PUSH1 0x3 NOT ADD SLT PUSH2 0x150 JUMPI CALLDATALOAD PUSH1 0x1 PUSH1 0x1 PUSH1 0xA0 SHL SUB DUP2 AND SWAP1 DUP2 SWAP1 SUB PUSH2 0x150 JUMPI DUP3 DUP3 SWAP2 PUSH1 0x20 SWAP5 MSTORE PUSH2 0x130 DUP5 MSTORE KECCAK256 SLOAD SWAP1 MLOAD SWAP1 DUP2 MSTORE RETURN JUMPDEST POP POP CALLVALUE PUSH2 0x19D JUMPI DUP2 PUSH1 0x3 NOT CALLDATASIZE ADD SLT PUSH2 0x19D JUMPI PUSH1 0x20 SWAP1 PUSH1 0xFF PUSH1 0xCA SLOAD PUSH1 0x8 SHR AND SWAP1 MLOAD SWAP1 ISZERO ISZERO DUP2 MSTORE RETURN JUMPDEST POP DUP3 CALLVALUE PUSH2 0x4CB JUMPI DUP1 PUSH1 0x3 NOT CALLDATASIZE ADD SLT PUSH2 0x4CB JUMPI POP PUSH32 0x0 PUSH1 0x1 PUSH1 0x1 PUSH1 0xA0 SHL SUB AND ADDRESS SUB PUSH2 0x59B JUMPI PUSH1 0x20 DUP3 MLOAD PUSH32 0x360894A13BA1A3210667C828492DB98DCA3E2076CC3735A920A3CA505D382BBC DUP2 MSTORE RETURN JUMPDEST PUSH1 0x20 PUSH1 0x84 SWAP3 MLOAD SWAP2 PUSH3 0x461BCD PUSH1 0xE5 SHL DUP4 MSTORE DUP3 ADD MSTORE PUSH1 0x38 PUSH1 0x24 DUP3 ADD MSTORE PUSH32 0x555550535570677261646561626C653A206D757374206E6F742062652063616C PUSH1 0x44 DUP3 ADD MSTORE PUSH32 0x6C6564207468726F7567682064656C656761746563616C6C0000000000000000 PUSH1 0x64 DUP3 ADD MSTORE REVERT JUMPDEST DUP4 CALLVALUE PUSH2 0x4CB JUMPI DUP1 PUSH1 0x3 NOT CALLDATASIZE ADD SLT PUSH2 0x4CB JUMPI PUSH2 0x61C PUSH2 0xDD3 JUMP JUMPDEST PUSH1 0xFF NOT PUSH1 0xCA SLOAD AND PUSH1 0xCA SSTORE DUP1 RETURN JUMPDEST SWAP3 DUP1 SWAP2 POP PUSH1 0x3 NOT CALLDATASIZE ADD SLT PUSH2 0x70F JUMPI DUP2 CALLDATALOAD PUSH1 0x1 PUSH1 0x1 PUSH1 0xA0 SHL SUB DUP1 DUP3 AND DUP3 SUB PUSH2 0x14C JUMPI PUSH1 0x24 CALLDATALOAD SWAP4 PUSH8 0xFFFFFFFFFFFFFFFF DUP6 GT PUSH2 0x38E JUMPI CALLDATASIZE PUSH1 0x23 DUP7 ADD SLT ISZERO PUSH2 0x38E JUMPI DUP5 ADD CALLDATALOAD SWAP1 PUSH2 0x681 PUSH2 0x678 DUP4 PUSH2 0x91F JUMP JUMPDEST SWAP5 MLOAD SWAP5 DUP6 PUSH2 0x8E7 JUMP JUMPDEST DUP2 DUP5 MSTORE CALLDATASIZE PUSH1 0x24 DUP4 DUP8 ADD ADD GT PUSH2 0x38E JUMPI PUSH2 0x132 SWAP6 PUSH1 0x20 DUP4 PUSH2 0x702 SWAP5 PUSH1 0x24 PUSH1 0x1 SWAP10 ADD DUP4 DUP10 ADD CALLDATACOPY DUP7 ADD ADD MSTORE DUP1 PUSH32 0x0 AND SWAP1 PUSH2 0x6D9 DUP3 ADDRESS EQ ISZERO PUSH2 0x93B JUMP JUMPDEST PUSH32 0x360894A13BA1A3210667C828492DB98DCA3E2076CC3735A920A3CA505D382BBC SLOAD AND EQ PUSH2 0x99C JUMP JUMPDEST PUSH2 0x70A PUSH2 0xDD3 JUMP JUMPDEST PUSH2 0x9FD JUMP JUMPDEST POP POP REVERT JUMPDEST POP CALLVALUE PUSH2 0x150 JUMPI DUP3 PUSH1 0x3 NOT CALLDATASIZE ADD SLT PUSH2 0x150 JUMPI PUSH1 0xCA SLOAD SWAP1 PUSH1 0xFF DUP3 PUSH1 0x8 SHR AND ISZERO PUSH2 0x77E JUMPI PUSH1 0x10 DUP3 SWAP1 SHR PUSH1 0x1 PUSH1 0x1 PUSH1 0xA0 SHL SUB AND CALLER SUB PUSH2 0x486 JUMPI POP PUSH2 0xFF00 NOT AND PUSH1 0xCA SSTORE MLOAD CALLER DUP2 MSTORE PUSH32 0x5DB9EE0A495BF2E6FF9C91A7834C1BA4FDD244A5E8AA4E537BD38AEAE4B073AA SWAP1 PUSH1 0x20 SWAP1 LOG1 DUP1 RETURN JUMPDEST DUP3 MLOAD PUSH4 0x7C7FD079 PUSH1 0xE0 SHL DUP2 MSTORE REVERT JUMPDEST SWAP2 SWAP1 POP CALLVALUE PUSH2 0x19D JUMPI PUSH1 0x20 CALLDATASIZE PUSH1 0x3 NOT ADD SLT PUSH2 0x19D JUMPI PUSH1 0x1 PUSH1 0x1 PUSH1 0xA0 SHL SUB SWAP3 SWAP1 CALLDATALOAD DUP4 DUP2 AND DUP2 SUB PUSH2 0x150 JUMPI PUSH2 0x7EB DUP5 PUSH2 0x132 SWAP6 PUSH32 0x0 AND SWAP1 PUSH2 0x6D9 DUP3 ADDRESS EQ ISZERO PUSH2 0x93B JUMP JUMPDEST PUSH2 0x7F3 PUSH2 0xDD3 JUMP JUMPDEST PUSH2 0x808 PUSH2 0x7FF DUP5 PUSH2 0x91F JUMP JUMPDEST SWAP3 MLOAD SWAP3 DUP4 PUSH2 0x8E7 JUMP JUMPDEST DUP3 DUP3 MSTORE PUSH1 0x1F NOT PUSH2 0x817 DUP5 PUSH2 0x91F JUMP JUMPDEST ADD CALLDATASIZE PUSH1 0x20 DUP5 ADD CALLDATACOPY PUSH2 0x9FD JUMP JUMPDEST DUP4 DUP3 CALLVALUE PUSH2 0x19D JUMPI PUSH1 0x20 CALLDATASIZE PUSH1 0x3 NOT ADD SLT PUSH2 0x19D JUMPI CALLDATALOAD PUSH1 0x1 PUSH1 0x1 PUSH1 0xA0 SHL SUB DUP2 AND DUP2 SUB PUSH2 0x19D JUMPI PUSH2 0x84F PUSH2 0xDD3 JUMP JUMPDEST PUSH1 0xCA DUP1 SLOAD PUSH3 0x10000 PUSH1 0x1 PUSH1 0xB0 SHL SUB NOT AND PUSH1 0x10 SWAP3 SWAP1 SWAP3 SHL PUSH3 0x10000 PUSH1 0x1 PUSH1 0xB0 SHL SUB AND SWAP2 SWAP1 SWAP2 OR SWAP1 SSTORE DUP1 RETURN JUMPDEST POP POP CALLVALUE PUSH2 0x19D JUMPI DUP2 PUSH1 0x3 NOT CALLDATASIZE ADD SLT PUSH2 0x19D JUMPI PUSH1 0x97 SLOAD SWAP1 MLOAD PUSH1 0x1 PUSH1 0x1 PUSH1 0xA0 SHL SUB SWAP1 SWAP2 AND DUP2 MSTORE PUSH1 0x20 SWAP1 RETURN JUMPDEST DUP4 DUP3 CALLVALUE PUSH2 0x19D JUMPI PUSH1 0x20 CALLDATASIZE PUSH1 0x3 NOT ADD SLT PUSH2 0x19D JUMPI CALLDATALOAD PUSH1 0x1 PUSH1 0x1 PUSH1 0xA0 SHL SUB DUP2 AND SWAP1 DUP2 SWAP1 SUB PUSH2 0x19D JUMPI PUSH2 0x8D0 PUSH2 0xDD3 JUMP JUMPDEST PUSH2 0x12F DUP1 SLOAD PUSH1 0x1 PUSH1 0x1 PUSH1 0xA0 SHL SUB NOT AND SWAP1 SWAP2 OR SWAP1 SSTORE DUP1 RETURN JUMPDEST SWAP1 PUSH1 0x1F DUP1 NOT SWAP2 ADD AND DUP2 ADD SWAP1 DUP2 LT PUSH8 0xFFFFFFFFFFFFFFFF DUP3 GT OR PUSH2 0x909 JUMPI PUSH1 0x40 MSTORE JUMP JUMPDEST PUSH4 0x4E487B71 PUSH1 0xE0 SHL PUSH1 0x0 MSTORE PUSH1 0x41 PUSH1 0x4 MSTORE PUSH1 0x24 PUSH1 0x0 REVERT JUMPDEST PUSH8 0xFFFFFFFFFFFFFFFF DUP2 GT PUSH2 0x909 JUMPI PUSH1 0x1F ADD PUSH1 0x1F NOT AND PUSH1 0x20 ADD SWAP1 JUMP JUMPDEST ISZERO PUSH2 0x942 JUMPI JUMP JUMPDEST PUSH1 0x40 MLOAD PUSH3 0x461BCD PUSH1 0xE5 SHL DUP2 MSTORE PUSH1 0x20 PUSH1 0x4 DUP3 ADD MSTORE PUSH1 0x2C PUSH1 0x24 DUP3 ADD MSTORE PUSH32 0x46756E6374696F6E206D7573742062652063616C6C6564207468726F75676820 PUSH1 0x44 DUP3 ADD MSTORE PUSH12 0x19195B1959D85D1958D85B1B PUSH1 0xA2 SHL PUSH1 0x64 DUP3 ADD MSTORE PUSH1 0x84 SWAP1 REVERT JUMPDEST ISZERO PUSH2 0x9A3 JUMPI JUMP JUMPDEST PUSH1 0x40 MLOAD PUSH3 0x461BCD PUSH1 0xE5 SHL DUP2 MSTORE PUSH1 0x20 PUSH1 0x4 DUP3 ADD MSTORE PUSH1 0x2C PUSH1 0x24 DUP3 ADD MSTORE PUSH32 0x46756E6374696F6E206D7573742062652063616C6C6564207468726F75676820 PUSH1 0x44 DUP3 ADD MSTORE PUSH12 0x6163746976652070726F7879 PUSH1 0xA0 SHL PUSH1 0x64 DUP3 ADD MSTORE PUSH1 0x84 SWAP1 REVERT JUMPDEST SWAP1 SWAP2 PUSH1 0xFF PUSH32 0x4910FDFA16FED3260ED0E7147F7CC6DA11A60208B5B9406D12A635614FFD9143 SLOAD AND PUSH1 0x0 EQ PUSH2 0xA38 JUMPI POP PUSH2 0xA36 SWAP2 POP PUSH2 0xC5D JUMP JUMPDEST JUMP JUMPDEST PUSH1 0x40 DUP1 MLOAD PUSH4 0x52D1902D PUSH1 0xE0 SHL DUP2 MSTORE PUSH1 0x20 SWAP5 SWAP2 SWAP4 SWAP3 SWAP1 PUSH1 0x1 PUSH1 0x1 PUSH1 0xA0 SHL SUB DUP5 AND SWAP1 DUP7 DUP2 PUSH1 0x4 DUP2 DUP6 GAS STATICCALL PUSH1 0x0 SWAP2 DUP2 PUSH2 0xC2E JUMPI JUMPDEST POP PUSH2 0xAC9 JUMPI DUP6 MLOAD PUSH3 0x461BCD PUSH1 0xE5 SHL DUP2 MSTORE PUSH1 0x4 DUP2 ADD DUP9 SWAP1 MSTORE PUSH1 0x2E PUSH1 0x24 DUP3 ADD MSTORE PUSH32 0x45524331393637557067726164653A206E657720696D706C656D656E74617469 PUSH1 0x44 DUP3 ADD MSTORE PUSH14 0x6F6E206973206E6F742055555053 PUSH1 0x90 SHL PUSH1 0x64 DUP3 ADD MSTORE PUSH1 0x84 SWAP1 REVERT JUMPDEST SWAP4 SWAP6 SWAP3 SWAP5 SWAP3 SWAP4 PUSH32 0xC9F76B5EC45E5CDEF99837D7B6D2467235C1DF8933C8CA56DF5C35AFA2C7D444 ADD PUSH2 0xBD8 JUMPI PUSH2 0xAFE DUP7 PUSH2 0xC5D JUMP JUMPDEST PUSH32 0xBC7CD75A20EE27FD9ADEBAB32041F755214DBC6BFFA90CC0225B39DA2E5C2D3B PUSH1 0x0 DUP1 LOG2 DUP4 MLOAD ISZERO SWAP1 DUP2 ISZERO SWAP2 PUSH2 0xBD0 JUMPI JUMPDEST POP PUSH2 0xB3B JUMPI JUMPDEST POP POP POP POP JUMP JUMPDEST PUSH2 0xBBC SWAP4 PUSH1 0x0 DUP1 PUSH2 0xB4C PUSH1 0x27 PUSH2 0x91F JUMP JUMPDEST SWAP6 PUSH2 0xB59 DUP6 MLOAD SWAP8 DUP9 PUSH2 0x8E7 JUMP JUMPDEST PUSH1 0x27 DUP8 MSTORE PUSH32 0x416464726573733A206C6F772D6C6576656C2064656C65676174652063616C6C DUP7 DUP9 ADD MSTORE PUSH7 0x819985A5B1959 PUSH1 0xCA SHL DUP6 DUP9 ADD MSTORE DUP6 DUP2 MLOAD SWAP2 ADD DUP5 GAS DELEGATECALL SWAP2 RETURNDATASIZE ISZERO PUSH2 0xBC6 JUMPI RETURNDATASIZE PUSH2 0xBAD PUSH2 0x7FF DUP3 PUSH2 0x91F JUMP JUMPDEST DUP2 MSTORE PUSH1 0x0 DUP2 SWAP5 RETURNDATASIZE SWAP3 ADD RETURNDATACOPY PUSH2 0xCFF JUMP JUMPDEST POP CODESIZE DUP1 DUP1 DUP1 PUSH2 0xB35 JUMP JUMPDEST POP PUSH1 0x60 SWAP3 POP PUSH2 0xCFF JUMP JUMPDEST SWAP1 POP CODESIZE PUSH2 0xB2F JUMP JUMPDEST DUP3 MLOAD PUSH3 0x461BCD PUSH1 0xE5 SHL DUP2 MSTORE PUSH1 0x4 DUP2 ADD DUP6 SWAP1 MSTORE PUSH1 0x29 PUSH1 0x24 DUP3 ADD MSTORE PUSH32 0x45524331393637557067726164653A20756E737570706F727465642070726F78 PUSH1 0x44 DUP3 ADD MSTORE PUSH9 0x1A58589B1955555251 PUSH1 0xBA SHL PUSH1 0x64 DUP3 ADD MSTORE PUSH1 0x84 SWAP1 REVERT JUMPDEST SWAP1 SWAP2 DUP9 DUP3 DUP2 RETURNDATASIZE DUP4 GT PUSH2 0xC56 JUMPI JUMPDEST PUSH2 0xC45 DUP2 DUP4 PUSH2 0x8E7 JUMP JUMPDEST DUP2 ADD SUB SLT PUSH2 0x4CB JUMPI POP MLOAD SWAP1 CODESIZE PUSH2 0xA69 JUMP JUMPDEST POP RETURNDATASIZE PUSH2 0xC3B JUMP JUMPDEST DUP1 EXTCODESIZE ISZERO PUSH2 0xCA4 JUMPI PUSH32 0x360894A13BA1A3210667C828492DB98DCA3E2076CC3735A920A3CA505D382BBC DUP1 SLOAD PUSH1 0x1 PUSH1 0x1 PUSH1 0xA0 SHL SUB NOT AND PUSH1 0x1 PUSH1 0x1 PUSH1 0xA0 SHL SUB SWAP1 SWAP3 AND SWAP2 SWAP1 SWAP2 OR SWAP1 SSTORE JUMP JUMPDEST PUSH1 0x40 MLOAD PUSH3 0x461BCD PUSH1 0xE5 SHL DUP2 MSTORE PUSH1 0x20 PUSH1 0x4 DUP3 ADD MSTORE PUSH1 0x2D PUSH1 0x24 DUP3 ADD MSTORE PUSH32 0x455243313936373A206E657720696D706C656D656E746174696F6E206973206E PUSH1 0x44 DUP3 ADD MSTORE PUSH13 0x1BDD08184818DBDB9D1C9858DD PUSH1 0x9A SHL PUSH1 0x64 DUP3 ADD MSTORE PUSH1 0x84 SWAP1 REVERT JUMPDEST SWAP2 SWAP3 SWAP1 ISZERO PUSH2 0xD61 JUMPI POP DUP2 MLOAD ISZERO PUSH2 0xD13 JUMPI POP SWAP1 JUMP JUMPDEST EXTCODESIZE ISZERO PUSH2 0xD1C JUMPI SWAP1 JUMP JUMPDEST PUSH1 0x40 MLOAD PUSH3 0x461BCD PUSH1 0xE5 SHL DUP2 MSTORE PUSH1 0x20 PUSH1 0x4 DUP3 ADD MSTORE PUSH1 0x1D PUSH1 0x24 DUP3 ADD MSTORE PUSH32 0x416464726573733A2063616C6C20746F206E6F6E2D636F6E7472616374000000 PUSH1 0x44 DUP3 ADD MSTORE PUSH1 0x64 SWAP1 REVERT JUMPDEST DUP3 MLOAD SWAP1 SWAP2 POP ISZERO PUSH2 0xD74 JUMPI POP DUP1 MLOAD SWAP1 PUSH1 0x20 ADD REVERT JUMPDEST PUSH1 0x40 MLOAD SWAP1 PUSH3 0x461BCD PUSH1 0xE5 SHL DUP3 MSTORE DUP2 PUSH1 0x20 DUP1 PUSH1 0x4 DUP4 ADD MSTORE DUP3 MLOAD SWAP1 DUP2 PUSH1 0x24 DUP5 ADD MSTORE PUSH1 0x0 SWAP4 JUMPDEST DUP3 DUP6 LT PUSH2 0xDBA JUMPI POP POP PUSH1 0x44 SWAP3 POP PUSH1 0x0 DUP4 DUP3 DUP5 ADD ADD MSTORE PUSH1 0x1F DUP1 NOT SWAP2 ADD AND DUP2 ADD SUB ADD SWAP1 REVERT JUMPDEST DUP5 DUP2 ADD DUP3 ADD MLOAD DUP7 DUP7 ADD PUSH1 0x44 ADD MSTORE SWAP4 DUP2 ADD SWAP4 DUP6 SWAP4 POP PUSH2 0xD97 JUMP JUMPDEST PUSH1 0x97 SLOAD PUSH1 0x40 MLOAD PUSH4 0xD994D6D5 PUSH1 0xE0 SHL DUP2 MSTORE CALLER PUSH1 0x4 DUP3 ADD MSTORE SWAP1 PUSH1 0x20 SWAP1 DUP3 SWAP1 PUSH1 0x24 SWAP1 DUP3 SWAP1 PUSH1 0x1 PUSH1 0x1 PUSH1 0xA0 SHL SUB AND GAS STATICCALL SWAP1 DUP2 ISZERO PUSH2 0xE62 JUMPI PUSH1 0x0 SWAP2 PUSH2 0xE28 JUMPI JUMPDEST POP ISZERO PUSH2 0xE16 JUMPI JUMP JUMPDEST PUSH1 0x40 MLOAD PUSH4 0x1DD1B1B5 PUSH1 0xE2 SHL DUP2 MSTORE PUSH1 0x4 SWAP1 REVERT JUMPDEST PUSH1 0x20 DUP2 RETURNDATASIZE DUP3 GT PUSH2 0xE5A JUMPI JUMPDEST DUP2 PUSH2 0xE40 PUSH1 0x20 SWAP4 DUP4 PUSH2 0x8E7 JUMP JUMPDEST DUP2 ADD SUB SLT PUSH2 0x19D JUMPI MLOAD SWAP1 DUP2 ISZERO ISZERO DUP3 SUB PUSH2 0x4CB JUMPI POP CODESIZE PUSH2 0xE0E JUMP JUMPDEST RETURNDATASIZE SWAP2 POP PUSH2 0xE33 JUMP JUMPDEST PUSH1 0x40 MLOAD RETURNDATASIZE PUSH1 0x0 DUP3 RETURNDATACOPY RETURNDATASIZE SWAP1 REVERT JUMPDEST ISZERO PUSH2 0xE75 JUMPI JUMP JUMPDEST PUSH1 0x40 MLOAD PUSH3 0x461BCD PUSH1 0xE5 SHL DUP2 MSTORE PUSH1 0x20 PUSH1 0x4 DUP3 ADD MSTORE PUSH1 0x2B PUSH1 0x24 DUP3 ADD MSTORE PUSH32 0x496E697469616C697A61626C653A20636F6E7472616374206973206E6F742069 PUSH1 0x44 DUP3 ADD MSTORE PUSH11 0x6E697469616C697A696E67 PUSH1 0xA8 SHL PUSH1 0x64 DUP3 ADD MSTORE PUSH1 0x84 SWAP1 REVERT JUMPDEST PUSH1 0x20 PUSH32 0xEDB810B4A4BA5AB81B2765B443D63011146E0D69F7604EA7205676BAE0995B3 SWAP2 PUSH1 0x1 DUP1 PUSH1 0xA0 SHL SUB AND SWAP3 DUP4 PUSH1 0x0 MSTORE PUSH2 0x130 DUP3 MSTORE DUP1 PUSH1 0x40 PUSH1 0x0 KECCAK256 SSTORE PUSH1 0x40 MLOAD SWAP1 DUP2 MSTORE LOG2 JUMP INVALID LOG2 PUSH5 0x6970667358 0x22 SLT KECCAK256 0xEF PUSH6 0x6C2E0A4AA91A 0xC2 CREATE 0xD8 0x4C DIV 0xCA 0xD8 0x4D SWAP11 KECCAK256 0xDE MSTORE ORIGIN PUSH10 0xD4A51EAB87C81C771158 PUSH5 0x736F6C6343 STOP ADDMOD EQ STOP CALLER "
    },
    "gasEstimates": {
      "creation": {
        "codeDepositCost": "563200",
        "executionCost": "infinite",
        "totalCost": "infinite"
      },
      "external": {
        "execute()": "infinite",
        "mintTC(uint256,uint256)": "infinite",
        "mintTP(uint256,uint256)": "infinite",
        "pokePrice(uint96)": "infinite",
        "redeemTC(uint256)": "infinite",
        "redeemTP(uint256)": "infinite"
      },
      "internal": {
        "_addPeggedToken(struct PeggedTokenParams memory,uint96)": "infinite",
        "_deployProxy(address)": "infinite"
      }
    },
    "methodIdentifiers": {
      "execute()": "61461954",
      "mintTC(uint256,uint256)": "0bb7f608",
      "mintTP(uint256,uint256)": "82a5792c",
      "pokePrice(uint96)": "8ff81e54",
      "redeemTC(uint256)": "f4076005",
      "redeemTP(uint256)": "43dbd9dc"
    }
  },
  "storageLayout": {
    "storage": [
      {
        "astId": 19738,
        "contract": "contracts/echidna/EchidnaMocQueueTester.sol:EchidnaMocQueueTester",
        "label": "mocCARC20",
        "offset": 0,
        "slot": "0",
        "type": "t_contract(MocCARC20)10100"
      },
      {
        "astId": 19741,
        "contract": "contracts/echidna/EchidnaMocQueueTester.sol:EchidnaMocQueueTester",
        "label": "mocQueue",
        "offset": 0,
        "slot": "1",
        "type": "t_contract(MocQueue)27249"
      },
      {
        "astId": 19744,
        "contract": "contracts/echidna/EchidnaMocQueueTester.sol:EchidnaMocQueueTester",
        "label": "governor",
        "offset": 0,
        "slot": "2",
        "type": "t_contract(GovernorMock)24093"
      },
      {
        "astId": 19747,
        "contract": "contracts/echidna/EchidnaMocQueueTester.sol:EchidnaMocQueueTester",
        "label": "feeToken",
        "offset": 0,
        "slot": "3",
        "type": "t_contract(ERC20Mock)21610"
      },
      {
        "astId": 19750,
        "contract": "contracts/echidna/EchidnaMocQueueTester.sol:EchidnaMocQueueTester",
        "label": "feeTokenPriceProvider",
        "offset": 0,
        "slot": "4",
        "type": "t_contract(IPriceProvider)21414"
      },
      {
        "astId": 19753,
        "contract": "contracts/echidna/EchidnaMocQueueTester.sol:EchidnaMocQueueTester",
        "label": "fluxCapacitorProvider",
        "offset": 0,
        "slot": "5",
        "type": "t_contract(IDataProvider)21355"
      },
      {
        "astId": 19756,
        "contract": "contracts/echidna/EchidnaMocQueueTester.sol:EchidnaMocQueueTester",
        "label": "tcToken",
        "offset": 0,
        "slot": "6",
        "type": "t_contract(MocTC)27844"
      },
      {
        "astId": 19759,
        "contract": "contracts/echidna/EchidnaMocQueueTester.sol:EchidnaMocQueueTester",
        "label": "acToken",
        "offset": 0,
        "slot": "7",
        "type": "t_contract(ERC20Mock)21610"
      },
      {
        "astId": 19762,
        "contract": "contracts/echidna/EchidnaMocQueueTester.sol:EchidnaMocQueueTester",
        "label": "mocVendors",
        "offset": 0,
        "slot": "8",
        "type": "t_contract(MocVendors)28149"
      },
      {
        "astId": 19764,
        "contract": "contracts/echidna/EchidnaMocQueueTester.sol:EchidnaMocQueueTester",
        "label": "mocCoreExpansion",
        "offset": 0,
        "slot": "9",
        "type": "t_address"
      },
      {
        "astId": 19766,
        "contract": "contracts/echidna/EchidnaMocQueueTester.sol:EchidnaMocQueueTester",
        "label": "mocFeeFlow",
        "offset": 0,
        "slot": "10",
        "type": "t_address"
      },
      {
        "astId": 19768,
        "contract": "contracts/echidna/EchidnaMocQueueTester.sol:EchidnaMocQueueTester",
        "label": "mocAppreciationBeneficiary",
        "offset": 0,
        "slot": "11",
        "type": "t_address"
      },
      {
        "astId": 19770,
        "contract": "contracts/echidna/EchidnaMocQueueTester.sol:EchidnaMocQueueTester",
        "label": "executionFeeRecipient",
        "offset": 0,
        "slot": "12",
        "type": "t_address"
      }
    ],
    "types": {
      "t_address": {
        "encoding": "inplace",
        "label": "address",
        "numberOfBytes": "20"
      },
      "t_contract(ERC20Mock)21610": {
        "encoding": "inplace",
        "label": "contract ERC20Mock",
        "numberOfBytes": "20"
      },
      "t_contract(GovernorMock)24093": {
        "encoding": "inplace",
        "label": "contract GovernorMock",
        "numberOfBytes": "20"
      },
      "t_contract(IDataProvider)21355": {
        "encoding": "inplace",
        "label": "contract IDataProvider",
        "numberOfBytes": "20"
      },
      "t_contract(IPriceProvider)21414": {
        "encoding": "inplace",
        "label": "contract IPriceProvider",
        "numberOfBytes": "20"
      },
      "t_contract(MocCARC20)10100": {
        "encoding": "inplace",
        "label": "contract MocCARC20",
        "numberOfBytes": "20"
      },
      "t_contract(MocQueue)27249": {
        "encoding": "inplace",
        "label": "contract MocQueue",
        "numberOfBytes": "20"
      },
      "t_contract(MocTC)27844": {
        "encoding": "inplace",
        "label": "contract MocTC",
        "numberOfBytes": "20"
      },
      "t_contract(MocVendors)28149": {
        "encoding": "inplace",
        "label": "contract MocVendors",
        "numberOfBytes": "20"
      }
    }
  },
  "userdoc": {
    "kind": "user",
    "methods": {},
    "version": 1
  }
}