{
  "contractName": "PriceProviderShifter",
  "sourceName": "contracts/utils/PriceProviderShifter.sol",
  "abi": [
    {
      "inputs": [
        {
          "internalType": "contract IPriceProvider",
          "name": "priceProvider_",
          "type": "address"
        },
        {
          "internalType": "int8",
          "name": "shift_",
          "type": "int8"
        }
      ],
      "stateMutability": "nonpayable",
      "type": "constructor"
    },
    {
      "inputs": [],
      "name": "peek",
      "outputs": [
        {
          "internalType": "bytes32",
          "name": "price",
          "type": "bytes32"
        },
        {
          "internalType": "bool",
          "name": "hasPrice",
          "type": "bool"
        }
      ],
      "stateMutability": "view",
      "type": "function"
    },
    {
      "inputs": [],
      "name": "priceProvider",
      "outputs": [
        {
          "internalType": "contract IPriceProvider",
          "name": "",
          "type": "address"
        }
      ],
      "stateMutability": "view",
      "type": "function"
    },
    {
      "inputs": [],
      "name": "shift",
      "outputs": [
        {
          "internalType": "int8",
          "name": "",
          "type": "int8"
        }
      ],
      "stateMutability": "view",
      "type": "function"
    }
  ],
  "bytecode": "0x608060405234801561001057600080fd5b5060405161043c38038061043c83398101604081905261002f91610061565b6000805460ff909216600160a01b026001600160a81b03199092166001600160a01b03909316929092171790556100ae565b6000806040838503121561007457600080fd5b82516001600160a01b038116811461008b57600080fd5b8092505060208301518060000b81146100a357600080fd5b809150509250929050565b61037f806100bd6000396000f3fe608060405234801561001057600080fd5b50600436106100415760003560e01c806312fc41ca1461004657806359e02dd714610073578063b888879e14610090575b600080fd5b6000805461005b91600160a01b909104900b81565b60405160009190910b81526020015b60405180910390f35b61007b6100bb565b6040805192835290151560208301520161006a565b6000546100a3906001600160a01b031681565b6040516001600160a01b03909116815260200161006a565b60008054604080516359e02dd760e01b8152815184936001600160a01b0316926359e02dd792600480820193918290030181865afa158015610101573d6000803e3d6000fd5b505050506040513d601f19601f8201168201806040525081019061012591906101ab565b60008054929450909250600160a01b909104810b1315610168576000805461015891600160a01b909104900b600a6102dc565b61016290836102f2565b91509091565b60008054600160a01b9004810b12156101a7576000805461019291600160a01b909104900b610309565b61019d90600a6102dc565b6101629083610327565b9091565b600080604083850312156101be57600080fd5b82519150602083015180151581146101d557600080fd5b809150509250929050565b634e487b7160e01b600052601160045260246000fd5b600181815b80851115610231578160001904821115610217576102176101e0565b8085161561022457918102915b93841c93908002906101fb565b509250929050565b600082610248575060016102d6565b81610255575060006102d6565b816001811461026b576002811461027557610291565b60019150506102d6565b60ff841115610286576102866101e0565b50506001821b6102d6565b5060208310610133831016604e8410600b84101617156102b4575081810a6102d6565b6102be83836101f6565b80600019048211156102d2576102d26101e0565b0290505b92915050565b60006102eb60ff841683610239565b9392505050565b80820281158282048414176102d6576102d66101e0565b600081810b6080810161031e5761031e6101e0565b60000392915050565b60008261034457634e487b7160e01b600052601260045260246000fd5b50049056fea264697066735822122043180cbe397369638af36cf919d218d540e2198fe4bcb2ed08e81dee8b4830f764736f6c63430008110033",
  "linkReferences": {},
  "deployedLinkReferences": {},
  "devdoc": {
    "details": "This simple contract, wraps a IPriceProvider and shift the returned price value in either direction.",
    "kind": "dev",
    "methods": {
      "peek()": {
        "params": {
          "price": "assetPrice",
          "valid": "true if the price is valid"
        }
      }
    },
    "title": "PriceProviderShifter",
    "version": 1
  },
  "evm": {
    "bytecode": {
      "linkReferences": {},
      "opcodes": "PUSH1 0x80 PUSH1 0x40 MSTORE CALLVALUE DUP1 ISZERO PUSH2 0x10 JUMPI PUSH1 0x0 DUP1 REVERT JUMPDEST POP PUSH1 0x40 MLOAD PUSH2 0x43C CODESIZE SUB DUP1 PUSH2 0x43C DUP4 CODECOPY DUP2 ADD PUSH1 0x40 DUP2 SWAP1 MSTORE PUSH2 0x2F SWAP2 PUSH2 0x61 JUMP JUMPDEST PUSH1 0x0 DUP1 SLOAD PUSH1 0xFF SWAP1 SWAP3 AND PUSH1 0x1 PUSH1 0xA0 SHL MUL PUSH1 0x1 PUSH1 0x1 PUSH1 0xA8 SHL SUB NOT SWAP1 SWAP3 AND PUSH1 0x1 PUSH1 0x1 PUSH1 0xA0 SHL SUB SWAP1 SWAP4 AND SWAP3 SWAP1 SWAP3 OR OR SWAP1 SSTORE PUSH2 0xAE JUMP JUMPDEST PUSH1 0x0 DUP1 PUSH1 0x40 DUP4 DUP6 SUB SLT ISZERO PUSH2 0x74 JUMPI PUSH1 0x0 DUP1 REVERT JUMPDEST DUP3 MLOAD PUSH1 0x1 PUSH1 0x1 PUSH1 0xA0 SHL SUB DUP2 AND DUP2 EQ PUSH2 0x8B JUMPI PUSH1 0x0 DUP1 REVERT JUMPDEST DUP1 SWAP3 POP POP PUSH1 0x20 DUP4 ADD MLOAD DUP1 PUSH1 0x0 SIGNEXTEND DUP2 EQ PUSH2 0xA3 JUMPI PUSH1 0x0 DUP1 REVERT JUMPDEST DUP1 SWAP2 POP POP SWAP3 POP SWAP3 SWAP1 POP JUMP JUMPDEST PUSH2 0x37F DUP1 PUSH2 0xBD PUSH1 0x0 CODECOPY PUSH1 0x0 RETURN INVALID PUSH1 0x80 PUSH1 0x40 MSTORE CALLVALUE DUP1 ISZERO PUSH2 0x10 JUMPI PUSH1 0x0 DUP1 REVERT JUMPDEST POP PUSH1 0x4 CALLDATASIZE LT PUSH2 0x41 JUMPI PUSH1 0x0 CALLDATALOAD PUSH1 0xE0 SHR DUP1 PUSH4 0x12FC41CA EQ PUSH2 0x46 JUMPI DUP1 PUSH4 0x59E02DD7 EQ PUSH2 0x73 JUMPI DUP1 PUSH4 0xB888879E EQ PUSH2 0x90 JUMPI JUMPDEST PUSH1 0x0 DUP1 REVERT JUMPDEST PUSH1 0x0 DUP1 SLOAD PUSH2 0x5B SWAP2 PUSH1 0x1 PUSH1 0xA0 SHL SWAP1 SWAP2 DIV SWAP1 SIGNEXTEND DUP2 JUMP JUMPDEST PUSH1 0x40 MLOAD PUSH1 0x0 SWAP2 SWAP1 SWAP2 SIGNEXTEND DUP2 MSTORE PUSH1 0x20 ADD JUMPDEST PUSH1 0x40 MLOAD DUP1 SWAP2 SUB SWAP1 RETURN JUMPDEST PUSH2 0x7B PUSH2 0xBB JUMP JUMPDEST PUSH1 0x40 DUP1 MLOAD SWAP3 DUP4 MSTORE SWAP1 ISZERO ISZERO PUSH1 0x20 DUP4 ADD MSTORE ADD PUSH2 0x6A JUMP JUMPDEST PUSH1 0x0 SLOAD PUSH2 0xA3 SWAP1 PUSH1 0x1 PUSH1 0x1 PUSH1 0xA0 SHL SUB AND DUP2 JUMP JUMPDEST PUSH1 0x40 MLOAD PUSH1 0x1 PUSH1 0x1 PUSH1 0xA0 SHL SUB SWAP1 SWAP2 AND DUP2 MSTORE PUSH1 0x20 ADD PUSH2 0x6A JUMP JUMPDEST PUSH1 0x0 DUP1 SLOAD PUSH1 0x40 DUP1 MLOAD PUSH4 0x59E02DD7 PUSH1 0xE0 SHL DUP2 MSTORE DUP2 MLOAD DUP5 SWAP4 PUSH1 0x1 PUSH1 0x1 PUSH1 0xA0 SHL SUB AND SWAP3 PUSH4 0x59E02DD7 SWAP3 PUSH1 0x4 DUP1 DUP3 ADD SWAP4 SWAP2 DUP3 SWAP1 SUB ADD DUP2 DUP7 GAS STATICCALL ISZERO DUP1 ISZERO PUSH2 0x101 JUMPI RETURNDATASIZE PUSH1 0x0 DUP1 RETURNDATACOPY RETURNDATASIZE PUSH1 0x0 REVERT JUMPDEST POP POP POP POP PUSH1 0x40 MLOAD RETURNDATASIZE PUSH1 0x1F NOT PUSH1 0x1F DUP3 ADD AND DUP3 ADD DUP1 PUSH1 0x40 MSTORE POP DUP2 ADD SWAP1 PUSH2 0x125 SWAP2 SWAP1 PUSH2 0x1AB JUMP JUMPDEST PUSH1 0x0 DUP1 SLOAD SWAP3 SWAP5 POP SWAP1 SWAP3 POP PUSH1 0x1 PUSH1 0xA0 SHL SWAP1 SWAP2 DIV DUP2 SIGNEXTEND SGT ISZERO PUSH2 0x168 JUMPI PUSH1 0x0 DUP1 SLOAD PUSH2 0x158 SWAP2 PUSH1 0x1 PUSH1 0xA0 SHL SWAP1 SWAP2 DIV SWAP1 SIGNEXTEND PUSH1 0xA PUSH2 0x2DC JUMP JUMPDEST PUSH2 0x162 SWAP1 DUP4 PUSH2 0x2F2 JUMP JUMPDEST SWAP2 POP SWAP1 SWAP2 JUMP JUMPDEST PUSH1 0x0 DUP1 SLOAD PUSH1 0x1 PUSH1 0xA0 SHL SWAP1 DIV DUP2 SIGNEXTEND SLT ISZERO PUSH2 0x1A7 JUMPI PUSH1 0x0 DUP1 SLOAD PUSH2 0x192 SWAP2 PUSH1 0x1 PUSH1 0xA0 SHL SWAP1 SWAP2 DIV SWAP1 SIGNEXTEND PUSH2 0x309 JUMP JUMPDEST PUSH2 0x19D SWAP1 PUSH1 0xA PUSH2 0x2DC JUMP JUMPDEST PUSH2 0x162 SWAP1 DUP4 PUSH2 0x327 JUMP JUMPDEST SWAP1 SWAP2 JUMP JUMPDEST PUSH1 0x0 DUP1 PUSH1 0x40 DUP4 DUP6 SUB SLT ISZERO PUSH2 0x1BE JUMPI PUSH1 0x0 DUP1 REVERT JUMPDEST DUP3 MLOAD SWAP2 POP PUSH1 0x20 DUP4 ADD MLOAD DUP1 ISZERO ISZERO DUP2 EQ PUSH2 0x1D5 JUMPI PUSH1 0x0 DUP1 REVERT JUMPDEST DUP1 SWAP2 POP POP SWAP3 POP SWAP3 SWAP1 POP JUMP JUMPDEST PUSH4 0x4E487B71 PUSH1 0xE0 SHL PUSH1 0x0 MSTORE PUSH1 0x11 PUSH1 0x4 MSTORE PUSH1 0x24 PUSH1 0x0 REVERT JUMPDEST PUSH1 0x1 DUP2 DUP2 JUMPDEST DUP1 DUP6 GT ISZERO PUSH2 0x231 JUMPI DUP2 PUSH1 0x0 NOT DIV DUP3 GT ISZERO PUSH2 0x217 JUMPI PUSH2 0x217 PUSH2 0x1E0 JUMP JUMPDEST DUP1 DUP6 AND ISZERO PUSH2 0x224 JUMPI SWAP2 DUP2 MUL SWAP2 JUMPDEST SWAP4 DUP5 SHR SWAP4 SWAP1 DUP1 MUL SWAP1 PUSH2 0x1FB JUMP JUMPDEST POP SWAP3 POP SWAP3 SWAP1 POP JUMP JUMPDEST PUSH1 0x0 DUP3 PUSH2 0x248 JUMPI POP PUSH1 0x1 PUSH2 0x2D6 JUMP JUMPDEST DUP2 PUSH2 0x255 JUMPI POP PUSH1 0x0 PUSH2 0x2D6 JUMP JUMPDEST DUP2 PUSH1 0x1 DUP2 EQ PUSH2 0x26B JUMPI PUSH1 0x2 DUP2 EQ PUSH2 0x275 JUMPI PUSH2 0x291 JUMP JUMPDEST PUSH1 0x1 SWAP2 POP POP PUSH2 0x2D6 JUMP JUMPDEST PUSH1 0xFF DUP5 GT ISZERO PUSH2 0x286 JUMPI PUSH2 0x286 PUSH2 0x1E0 JUMP JUMPDEST POP POP PUSH1 0x1 DUP3 SHL PUSH2 0x2D6 JUMP JUMPDEST POP PUSH1 0x20 DUP4 LT PUSH2 0x133 DUP4 LT AND PUSH1 0x4E DUP5 LT PUSH1 0xB DUP5 LT AND OR ISZERO PUSH2 0x2B4 JUMPI POP DUP2 DUP2 EXP PUSH2 0x2D6 JUMP JUMPDEST PUSH2 0x2BE DUP4 DUP4 PUSH2 0x1F6 JUMP JUMPDEST DUP1 PUSH1 0x0 NOT DIV DUP3 GT ISZERO PUSH2 0x2D2 JUMPI PUSH2 0x2D2 PUSH2 0x1E0 JUMP JUMPDEST MUL SWAP1 POP JUMPDEST SWAP3 SWAP2 POP POP JUMP JUMPDEST PUSH1 0x0 PUSH2 0x2EB PUSH1 0xFF DUP5 AND DUP4 PUSH2 0x239 JUMP JUMPDEST SWAP4 SWAP3 POP POP POP JUMP JUMPDEST DUP1 DUP3 MUL DUP2 ISZERO DUP3 DUP3 DIV DUP5 EQ OR PUSH2 0x2D6 JUMPI PUSH2 0x2D6 PUSH2 0x1E0 JUMP JUMPDEST PUSH1 0x0 DUP2 DUP2 SIGNEXTEND PUSH1 0x80 DUP2 ADD PUSH2 0x31E JUMPI PUSH2 0x31E PUSH2 0x1E0 JUMP JUMPDEST PUSH1 0x0 SUB SWAP3 SWAP2 POP POP JUMP JUMPDEST PUSH1 0x0 DUP3 PUSH2 0x344 JUMPI PUSH4 0x4E487B71 PUSH1 0xE0 SHL PUSH1 0x0 MSTORE PUSH1 0x12 PUSH1 0x4 MSTORE PUSH1 0x24 PUSH1 0x0 REVERT JUMPDEST POP DIV SWAP1 JUMP INVALID LOG2 PUSH5 0x6970667358 0x22 SLT KECCAK256 NUMBER XOR 0xC 0xBE CODECOPY PUSH20 0x69638AF36CF919D218D540E2198FE4BCB2ED08E8 SAR 0xEE DUP12 BASEFEE ADDRESS 0xF7 PUSH5 0x736F6C6343 STOP ADDMOD GT STOP CALLER "
    },
    "gasEstimates": {
      "creation": {
        "codeDepositCost": "179000",
        "executionCost": "infinite",
        "totalCost": "infinite"
      },
      "external": {
        "peek()": "infinite",
        "priceProvider()": "2359",
        "shift()": "2310"
      }
    },
    "methodIdentifiers": {
      "peek()": "59e02dd7",
      "priceProvider()": "b888879e",
      "shift()": "12fc41ca"
    }
  },
  "storageLayout": {
    "storage": [
      {
        "astId": 19752,
        "contract": "contracts/utils/PriceProviderShifter.sol:PriceProviderShifter",
        "label": "priceProvider",
        "offset": 0,
        "slot": "0",
        "type": "t_contract(IPriceProvider)18655"
      },
      {
        "astId": 19754,
        "contract": "contracts/utils/PriceProviderShifter.sol:PriceProviderShifter",
        "label": "shift",
        "offset": 20,
        "slot": "0",
        "type": "t_int8"
      }
    ],
    "types": {
      "t_contract(IPriceProvider)18655": {
        "encoding": "inplace",
        "label": "contract IPriceProvider",
        "numberOfBytes": "20"
      },
      "t_int8": {
        "encoding": "inplace",
        "label": "int8",
        "numberOfBytes": "1"
      }
    }
  },
  "userdoc": {
    "kind": "user",
    "methods": {
      "constructor": {
        "notice": "constructor"
      },
      "peek()": {
        "notice": "returns the given `price` for the asset if `valid`"
      }
    },
    "version": 1
  }
}