{
  "contractName": "MocCARC20WithExpansionMock",
  "sourceName": "contracts/mocks/upgradeability/MocExpansionMocks.sol",
  "abi": [
    {
      "inputs": [
        {
          "internalType": "uint256",
          "name": "qACsent_",
          "type": "uint256"
        },
        {
          "internalType": "uint256",
          "name": "qACNeeded_",
          "type": "uint256"
        }
      ],
      "name": "InsufficientQacSent",
      "type": "error"
    },
    {
      "inputs": [
        {
          "internalType": "uint256",
          "name": "qTPsent_",
          "type": "uint256"
        },
        {
          "internalType": "uint256",
          "name": "qTPNeeded_",
          "type": "uint256"
        }
      ],
      "name": "InsufficientQtpSent",
      "type": "error"
    },
    {
      "inputs": [
        {
          "internalType": "uint256",
          "name": "qTC_",
          "type": "uint256"
        },
        {
          "internalType": "uint256",
          "name": "tcAvailableToRedeem_",
          "type": "uint256"
        }
      ],
      "name": "InsufficientTCtoRedeem",
      "type": "error"
    },
    {
      "inputs": [
        {
          "internalType": "uint256",
          "name": "qTP_",
          "type": "uint256"
        },
        {
          "internalType": "uint256",
          "name": "tpAvailableToMint_",
          "type": "uint256"
        }
      ],
      "name": "InsufficientTPtoMint",
      "type": "error"
    },
    {
      "inputs": [
        {
          "internalType": "uint256",
          "name": "qTP_",
          "type": "uint256"
        },
        {
          "internalType": "uint256",
          "name": "tpAvailableToRedeem_",
          "type": "uint256"
        }
      ],
      "name": "InsufficientTPtoRedeem",
      "type": "error"
    },
    {
      "inputs": [],
      "name": "InvalidAddress",
      "type": "error"
    },
    {
      "inputs": [],
      "name": "InvalidFluxCapacitorOperation",
      "type": "error"
    },
    {
      "inputs": [],
      "name": "InvalidValue",
      "type": "error"
    },
    {
      "inputs": [],
      "name": "Liquidated",
      "type": "error"
    },
    {
      "inputs": [
        {
          "internalType": "uint256",
          "name": "cglb_",
          "type": "uint256"
        },
        {
          "internalType": "uint256",
          "name": "covThrld_",
          "type": "uint256"
        }
      ],
      "name": "LowCoverage",
      "type": "error"
    },
    {
      "inputs": [
        {
          "internalType": "uint256",
          "name": "max_",
          "type": "uint256"
        },
        {
          "internalType": "uint256",
          "name": "new_",
          "type": "uint256"
        }
      ],
      "name": "MaxFluxCapacitorOperationReached",
      "type": "error"
    },
    {
      "inputs": [],
      "name": "MissingBlocksToSettlement",
      "type": "error"
    },
    {
      "inputs": [],
      "name": "MissingBlocksToTCInterestPayment",
      "type": "error"
    },
    {
      "inputs": [
        {
          "internalType": "address",
          "name": "dataProviderAddress_",
          "type": "address"
        }
      ],
      "name": "MissingProviderData",
      "type": "error"
    },
    {
      "inputs": [
        {
          "internalType": "address",
          "name": "priceProviderAddress_",
          "type": "address"
        }
      ],
      "name": "MissingProviderPrice",
      "type": "error"
    },
    {
      "inputs": [],
      "name": "NotAuthorizedChanger",
      "type": "error"
    },
    {
      "inputs": [],
      "name": "NotWhenPaused",
      "type": "error"
    },
    {
      "inputs": [],
      "name": "OnlyPauser",
      "type": "error"
    },
    {
      "inputs": [],
      "name": "OnlyQueue",
      "type": "error"
    },
    {
      "inputs": [],
      "name": "OnlyWhenLiquidated",
      "type": "error"
    },
    {
      "inputs": [],
      "name": "OnlyWhilePaused",
      "type": "error"
    },
    {
      "inputs": [],
      "name": "PeggedTokenAlreadyAdded",
      "type": "error"
    },
    {
      "inputs": [
        {
          "internalType": "uint256",
          "name": "qACmin_",
          "type": "uint256"
        },
        {
          "internalType": "uint256",
          "name": "qACtoRedeem_",
          "type": "uint256"
        }
      ],
      "name": "QacBelowMinimumRequired",
      "type": "error"
    },
    {
      "inputs": [],
      "name": "QacNeededMustBeGreaterThanZero",
      "type": "error"
    },
    {
      "inputs": [
        {
          "internalType": "uint256",
          "name": "qTCmin_",
          "type": "uint256"
        },
        {
          "internalType": "uint256",
          "name": "qTC_",
          "type": "uint256"
        }
      ],
      "name": "QtcBelowMinimumRequired",
      "type": "error"
    },
    {
      "inputs": [
        {
          "internalType": "uint256",
          "name": "qTPmin_",
          "type": "uint256"
        },
        {
          "internalType": "uint256",
          "name": "qTP_",
          "type": "uint256"
        }
      ],
      "name": "QtpBelowMinimumRequired",
      "type": "error"
    },
    {
      "inputs": [],
      "name": "RecipientMustBeSender",
      "type": "error"
    },
    {
      "inputs": [],
      "name": "TransferFailed",
      "type": "error"
    },
    {
      "inputs": [],
      "name": "Unstoppable",
      "type": "error"
    },
    {
      "anonymous": false,
      "inputs": [
        {
          "indexed": false,
          "internalType": "address",
          "name": "previousAdmin",
          "type": "address"
        },
        {
          "indexed": false,
          "internalType": "address",
          "name": "newAdmin",
          "type": "address"
        }
      ],
      "name": "AdminChanged",
      "type": "event"
    },
    {
      "anonymous": false,
      "inputs": [
        {
          "indexed": true,
          "internalType": "address",
          "name": "beacon",
          "type": "address"
        }
      ],
      "name": "BeaconUpgraded",
      "type": "event"
    },
    {
      "anonymous": false,
      "inputs": [],
      "name": "ContractLiquidated",
      "type": "event"
    },
    {
      "anonymous": false,
      "inputs": [
        {
          "indexed": false,
          "internalType": "uint8",
          "name": "version",
          "type": "uint8"
        }
      ],
      "name": "Initialized",
      "type": "event"
    },
    {
      "anonymous": false,
      "inputs": [
        {
          "indexed": true,
          "internalType": "address",
          "name": "tp_",
          "type": "address"
        },
        {
          "indexed": true,
          "internalType": "address",
          "name": "sender_",
          "type": "address"
        },
        {
          "indexed": true,
          "internalType": "address",
          "name": "recipient_",
          "type": "address"
        },
        {
          "indexed": false,
          "internalType": "uint256",
          "name": "qTP_",
          "type": "uint256"
        },
        {
          "indexed": false,
          "internalType": "uint256",
          "name": "qAC_",
          "type": "uint256"
        }
      ],
      "name": "LiqTPRedeemed",
      "type": "event"
    },
    {
      "anonymous": false,
      "inputs": [
        {
          "indexed": false,
          "internalType": "address",
          "name": "account",
          "type": "address"
        }
      ],
      "name": "Paused",
      "type": "event"
    },
    {
      "anonymous": false,
      "inputs": [
        {
          "indexed": false,
          "internalType": "uint256",
          "name": "i_",
          "type": "uint256"
        },
        {
          "components": [
            {
              "internalType": "address",
              "name": "tpTokenAddress",
              "type": "address"
            },
            {
              "internalType": "address",
              "name": "priceProviderAddress",
              "type": "address"
            },
            {
              "internalType": "uint256",
              "name": "tpCtarg",
              "type": "uint256"
            },
            {
              "internalType": "uint256",
              "name": "tpMintFee",
              "type": "uint256"
            },
            {
              "internalType": "uint256",
              "name": "tpRedeemFee",
              "type": "uint256"
            },
            {
              "internalType": "uint256",
              "name": "tpEma",
              "type": "uint256"
            },
            {
              "internalType": "uint256",
              "name": "tpEmaSf",
              "type": "uint256"
            }
          ],
          "indexed": false,
          "internalType": "struct PeggedTokenParams",
          "name": "peggedTokenParams_",
          "type": "tuple"
        }
      ],
      "name": "PeggedTokenChange",
      "type": "event"
    },
    {
      "anonymous": false,
      "inputs": [],
      "name": "SettlementExecuted",
      "type": "event"
    },
    {
      "anonymous": false,
      "inputs": [
        {
          "indexed": false,
          "internalType": "uint256",
          "name": "mocGain_",
          "type": "uint256"
        },
        {
          "indexed": false,
          "internalType": "uint256[]",
          "name": "tpGain_",
          "type": "uint256[]"
        }
      ],
      "name": "SuccessFeeDistributed",
      "type": "event"
    },
    {
      "anonymous": false,
      "inputs": [
        {
          "indexed": false,
          "internalType": "uint256",
          "name": "interestAmount_",
          "type": "uint256"
        }
      ],
      "name": "TCInterestPayment",
      "type": "event"
    },
    {
      "anonymous": false,
      "inputs": [
        {
          "indexed": true,
          "internalType": "uint256",
          "name": "i_",
          "type": "uint256"
        },
        {
          "indexed": false,
          "internalType": "uint256",
          "name": "oldTPema_",
          "type": "uint256"
        },
        {
          "indexed": false,
          "internalType": "uint256",
          "name": "newTPema_",
          "type": "uint256"
        }
      ],
      "name": "TPemaUpdated",
      "type": "event"
    },
    {
      "anonymous": false,
      "inputs": [
        {
          "indexed": false,
          "internalType": "address",
          "name": "account",
          "type": "address"
        }
      ],
      "name": "Unpaused",
      "type": "event"
    },
    {
      "anonymous": false,
      "inputs": [
        {
          "indexed": true,
          "internalType": "address",
          "name": "implementation",
          "type": "address"
        }
      ],
      "name": "Upgraded",
      "type": "event"
    },
    {
      "inputs": [],
      "name": "absoluteAccumulator",
      "outputs": [
        {
          "internalType": "uint256",
          "name": "",
          "type": "uint256"
        }
      ],
      "stateMutability": "view",
      "type": "function"
    },
    {
      "inputs": [],
      "name": "acToken",
      "outputs": [
        {
          "internalType": "contract IERC20",
          "name": "",
          "type": "address"
        }
      ],
      "stateMutability": "view",
      "type": "function"
    },
    {
      "inputs": [
        {
          "components": [
            {
              "internalType": "address",
              "name": "tpTokenAddress",
              "type": "address"
            },
            {
              "internalType": "address",
              "name": "priceProviderAddress",
              "type": "address"
            },
            {
              "internalType": "uint256",
              "name": "tpCtarg",
              "type": "uint256"
            },
            {
              "internalType": "uint256",
              "name": "tpMintFee",
              "type": "uint256"
            },
            {
              "internalType": "uint256",
              "name": "tpRedeemFee",
              "type": "uint256"
            },
            {
              "internalType": "uint256",
              "name": "tpEma",
              "type": "uint256"
            },
            {
              "internalType": "uint256",
              "name": "tpEmaSf",
              "type": "uint256"
            }
          ],
          "internalType": "struct PeggedTokenParams",
          "name": "peggedTokenParams_",
          "type": "tuple"
        }
      ],
      "name": "addPeggedToken",
      "outputs": [],
      "stateMutability": "nonpayable",
      "type": "function"
    },
    {
      "inputs": [],
      "name": "allowDifferentRecipient",
      "outputs": [
        {
          "internalType": "bool",
          "name": "",
          "type": "bool"
        }
      ],
      "stateMutability": "view",
      "type": "function"
    },
    {
      "inputs": [],
      "name": "appreciationFactor",
      "outputs": [
        {
          "internalType": "uint256",
          "name": "",
          "type": "uint256"
        }
      ],
      "stateMutability": "view",
      "type": "function"
    },
    {
      "inputs": [],
      "name": "bes",
      "outputs": [
        {
          "internalType": "uint256",
          "name": "",
          "type": "uint256"
        }
      ],
      "stateMutability": "view",
      "type": "function"
    },
    {
      "inputs": [],
      "name": "bns",
      "outputs": [
        {
          "internalType": "uint256",
          "name": "",
          "type": "uint256"
        }
      ],
      "stateMutability": "view",
      "type": "function"
    },
    {
      "inputs": [],
      "name": "calcCtargemaCA",
      "outputs": [
        {
          "internalType": "uint256",
          "name": "ctargemaCA",
          "type": "uint256"
        }
      ],
      "stateMutability": "view",
      "type": "function"
    },
    {
      "inputs": [
        {
          "internalType": "contract IGovernor",
          "name": "newGovernor_",
          "type": "address"
        }
      ],
      "name": "changeGovernor",
      "outputs": [],
      "stateMutability": "nonpayable",
      "type": "function"
    },
    {
      "inputs": [],
      "name": "decayBlockSpan",
      "outputs": [
        {
          "internalType": "uint256",
          "name": "",
          "type": "uint256"
        }
      ],
      "stateMutability": "view",
      "type": "function"
    },
    {
      "inputs": [],
      "name": "differentialAccumulator",
      "outputs": [
        {
          "internalType": "int256",
          "name": "",
          "type": "int256"
        }
      ],
      "stateMutability": "view",
      "type": "function"
    },
    {
      "inputs": [
        {
          "components": [
            {
              "internalType": "address",
              "name": "tpTokenAddress",
              "type": "address"
            },
            {
              "internalType": "address",
              "name": "priceProviderAddress",
              "type": "address"
            },
            {
              "internalType": "uint256",
              "name": "tpCtarg",
              "type": "uint256"
            },
            {
              "internalType": "uint256",
              "name": "tpMintFee",
              "type": "uint256"
            },
            {
              "internalType": "uint256",
              "name": "tpRedeemFee",
              "type": "uint256"
            },
            {
              "internalType": "uint256",
              "name": "tpEma",
              "type": "uint256"
            },
            {
              "internalType": "uint256",
              "name": "tpEmaSf",
              "type": "uint256"
            }
          ],
          "internalType": "struct PeggedTokenParams",
          "name": "peggedTokenParams_",
          "type": "tuple"
        }
      ],
      "name": "editPeggedToken",
      "outputs": [],
      "stateMutability": "nonpayable",
      "type": "function"
    },
    {
      "inputs": [],
      "name": "emaCalculationBlockSpan",
      "outputs": [
        {
          "internalType": "uint256",
          "name": "",
          "type": "uint256"
        }
      ],
      "stateMutability": "view",
      "type": "function"
    },
    {
      "inputs": [],
      "name": "evalLiquidation",
      "outputs": [],
      "stateMutability": "nonpayable",
      "type": "function"
    },
    {
      "inputs": [
        {
          "components": [
            {
              "internalType": "uint256",
              "name": "qTC",
              "type": "uint256"
            },
            {
              "internalType": "uint256",
              "name": "qACmax",
              "type": "uint256"
            },
            {
              "internalType": "address",
              "name": "sender",
              "type": "address"
            },
            {
              "internalType": "address",
              "name": "recipient",
              "type": "address"
            },
            {
              "internalType": "address",
              "name": "vendor",
              "type": "address"
            }
          ],
          "internalType": "struct MocCore.MintTCParams",
          "name": "params_",
          "type": "tuple"
        }
      ],
      "name": "execMintTC",
      "outputs": [
        {
          "internalType": "uint256",
          "name": "qACtotalNeeded",
          "type": "uint256"
        },
        {
          "internalType": "uint256",
          "name": "qFeeTokenTotalNeeded",
          "type": "uint256"
        },
        {
          "components": [
            {
              "internalType": "uint256",
              "name": "qACFee",
              "type": "uint256"
            },
            {
              "internalType": "uint256",
              "name": "qFeeToken",
              "type": "uint256"
            },
            {
              "internalType": "uint256",
              "name": "qACVendorMarkup",
              "type": "uint256"
            },
            {
              "internalType": "uint256",
              "name": "qFeeTokenVendorMarkup",
              "type": "uint256"
            }
          ],
          "internalType": "struct MocCommons.FeeCalcs",
          "name": "feeCalcs",
          "type": "tuple"
        }
      ],
      "stateMutability": "nonpayable",
      "type": "function"
    },
    {
      "inputs": [
        {
          "components": [
            {
              "internalType": "address",
              "name": "tp",
              "type": "address"
            },
            {
              "internalType": "uint256",
              "name": "qTP",
              "type": "uint256"
            },
            {
              "internalType": "uint256",
              "name": "qACmax",
              "type": "uint256"
            },
            {
              "internalType": "address",
              "name": "sender",
              "type": "address"
            },
            {
              "internalType": "address",
              "name": "recipient",
              "type": "address"
            },
            {
              "internalType": "address",
              "name": "vendor",
              "type": "address"
            }
          ],
          "internalType": "struct MocCommons.MintTCandTPParams",
          "name": "params_",
          "type": "tuple"
        }
      ],
      "name": "execMintTCandTP",
      "outputs": [
        {
          "internalType": "uint256",
          "name": "qACtotalNeeded",
          "type": "uint256"
        },
        {
          "internalType": "uint256",
          "name": "qTCMinted",
          "type": "uint256"
        },
        {
          "internalType": "uint256",
          "name": "qFeeTokenTotalNeeded",
          "type": "uint256"
        },
        {
          "components": [
            {
              "internalType": "uint256",
              "name": "qACFee",
              "type": "uint256"
            },
            {
              "internalType": "uint256",
              "name": "qFeeToken",
              "type": "uint256"
            },
            {
              "internalType": "uint256",
              "name": "qACVendorMarkup",
              "type": "uint256"
            },
            {
              "internalType": "uint256",
              "name": "qFeeTokenVendorMarkup",
              "type": "uint256"
            }
          ],
          "internalType": "struct MocCommons.FeeCalcs",
          "name": "feeCalcs",
          "type": "tuple"
        }
      ],
      "stateMutability": "nonpayable",
      "type": "function"
    },
    {
      "inputs": [
        {
          "components": [
            {
              "internalType": "address",
              "name": "tp",
              "type": "address"
            },
            {
              "internalType": "uint256",
              "name": "qTP",
              "type": "uint256"
            },
            {
              "internalType": "uint256",
              "name": "qACmax",
              "type": "uint256"
            },
            {
              "internalType": "address",
              "name": "sender",
              "type": "address"
            },
            {
              "internalType": "address",
              "name": "recipient",
              "type": "address"
            },
            {
              "internalType": "address",
              "name": "vendor",
              "type": "address"
            }
          ],
          "internalType": "struct MocCore.MintTPParams",
          "name": "params_",
          "type": "tuple"
        }
      ],
      "name": "execMintTP",
      "outputs": [
        {
          "internalType": "uint256",
          "name": "qACtotalNeeded",
          "type": "uint256"
        },
        {
          "internalType": "uint256",
          "name": "qFeeTokenTotalNeeded",
          "type": "uint256"
        },
        {
          "components": [
            {
              "internalType": "uint256",
              "name": "qACFee",
              "type": "uint256"
            },
            {
              "internalType": "uint256",
              "name": "qFeeToken",
              "type": "uint256"
            },
            {
              "internalType": "uint256",
              "name": "qACVendorMarkup",
              "type": "uint256"
            },
            {
              "internalType": "uint256",
              "name": "qFeeTokenVendorMarkup",
              "type": "uint256"
            }
          ],
          "internalType": "struct MocCommons.FeeCalcs",
          "name": "feeCalcs",
          "type": "tuple"
        }
      ],
      "stateMutability": "nonpayable",
      "type": "function"
    },
    {
      "inputs": [
        {
          "components": [
            {
              "internalType": "uint256",
              "name": "qTC",
              "type": "uint256"
            },
            {
              "internalType": "uint256",
              "name": "qACmin",
              "type": "uint256"
            },
            {
              "internalType": "address",
              "name": "sender",
              "type": "address"
            },
            {
              "internalType": "address",
              "name": "recipient",
              "type": "address"
            },
            {
              "internalType": "address",
              "name": "vendor",
              "type": "address"
            }
          ],
          "internalType": "struct MocCore.RedeemTCParams",
          "name": "params_",
          "type": "tuple"
        }
      ],
      "name": "execRedeemTC",
      "outputs": [
        {
          "internalType": "uint256",
          "name": "qACtoRedeem",
          "type": "uint256"
        },
        {
          "internalType": "uint256",
          "name": "qFeeTokenTotalNeeded",
          "type": "uint256"
        },
        {
          "components": [
            {
              "internalType": "uint256",
              "name": "qACFee",
              "type": "uint256"
            },
            {
              "internalType": "uint256",
              "name": "qFeeToken",
              "type": "uint256"
            },
            {
              "internalType": "uint256",
              "name": "qACVendorMarkup",
              "type": "uint256"
            },
            {
              "internalType": "uint256",
              "name": "qFeeTokenVendorMarkup",
              "type": "uint256"
            }
          ],
          "internalType": "struct MocCommons.FeeCalcs",
          "name": "feeCalcs",
          "type": "tuple"
        }
      ],
      "stateMutability": "nonpayable",
      "type": "function"
    },
    {
      "inputs": [
        {
          "components": [
            {
              "internalType": "address",
              "name": "tp",
              "type": "address"
            },
            {
              "internalType": "uint256",
              "name": "qTC",
              "type": "uint256"
            },
            {
              "internalType": "uint256",
              "name": "qTP",
              "type": "uint256"
            },
            {
              "internalType": "uint256",
              "name": "qACmin",
              "type": "uint256"
            },
            {
              "internalType": "address",
              "name": "sender",
              "type": "address"
            },
            {
              "internalType": "address",
              "name": "recipient",
              "type": "address"
            },
            {
              "internalType": "address",
              "name": "vendor",
              "type": "address"
            }
          ],
          "internalType": "struct MocCommons.RedeemTCandTPParams",
          "name": "params_",
          "type": "tuple"
        }
      ],
      "name": "execRedeemTCandTP",
      "outputs": [
        {
          "internalType": "uint256",
          "name": "qACtoRedeem",
          "type": "uint256"
        },
        {
          "internalType": "uint256",
          "name": "qTPRedeemed",
          "type": "uint256"
        },
        {
          "internalType": "uint256",
          "name": "qFeeTokenTotalNeeded",
          "type": "uint256"
        },
        {
          "components": [
            {
              "internalType": "uint256",
              "name": "qACFee",
              "type": "uint256"
            },
            {
              "internalType": "uint256",
              "name": "qFeeToken",
              "type": "uint256"
            },
            {
              "internalType": "uint256",
              "name": "qACVendorMarkup",
              "type": "uint256"
            },
            {
              "internalType": "uint256",
              "name": "qFeeTokenVendorMarkup",
              "type": "uint256"
            }
          ],
          "internalType": "struct MocCommons.FeeCalcs",
          "name": "feeCalcs",
          "type": "tuple"
        }
      ],
      "stateMutability": "nonpayable",
      "type": "function"
    },
    {
      "inputs": [
        {
          "components": [
            {
              "internalType": "address",
              "name": "tp",
              "type": "address"
            },
            {
              "internalType": "uint256",
              "name": "qTP",
              "type": "uint256"
            },
            {
              "internalType": "uint256",
              "name": "qACmin",
              "type": "uint256"
            },
            {
              "internalType": "address",
              "name": "sender",
              "type": "address"
            },
            {
              "internalType": "address",
              "name": "recipient",
              "type": "address"
            },
            {
              "internalType": "address",
              "name": "vendor",
              "type": "address"
            }
          ],
          "internalType": "struct MocCommons.RedeemTPParams",
          "name": "params_",
          "type": "tuple"
        }
      ],
      "name": "execRedeemTP",
      "outputs": [
        {
          "internalType": "uint256",
          "name": "qACtoRedeem",
          "type": "uint256"
        },
        {
          "internalType": "uint256",
          "name": "qFeeTokenTotalNeeded",
          "type": "uint256"
        },
        {
          "components": [
            {
              "internalType": "uint256",
              "name": "qACFee",
              "type": "uint256"
            },
            {
              "internalType": "uint256",
              "name": "qFeeToken",
              "type": "uint256"
            },
            {
              "internalType": "uint256",
              "name": "qACVendorMarkup",
              "type": "uint256"
            },
            {
              "internalType": "uint256",
              "name": "qFeeTokenVendorMarkup",
              "type": "uint256"
            }
          ],
          "internalType": "struct MocCommons.FeeCalcs",
          "name": "feeCalcs",
          "type": "tuple"
        }
      ],
      "stateMutability": "nonpayable",
      "type": "function"
    },
    {
      "inputs": [],
      "name": "execSettlement",
      "outputs": [],
      "stateMutability": "nonpayable",
      "type": "function"
    },
    {
      "inputs": [
        {
          "components": [
            {
              "internalType": "address",
              "name": "tp",
              "type": "address"
            },
            {
              "internalType": "uint256",
              "name": "qTC",
              "type": "uint256"
            },
            {
              "internalType": "uint256",
              "name": "qTPmin",
              "type": "uint256"
            },
            {
              "internalType": "uint256",
              "name": "qACmax",
              "type": "uint256"
            },
            {
              "internalType": "address",
              "name": "sender",
              "type": "address"
            },
            {
              "internalType": "address",
              "name": "recipient",
              "type": "address"
            },
            {
              "internalType": "address",
              "name": "vendor",
              "type": "address"
            }
          ],
          "internalType": "struct MocCommons.SwapTCforTPParams",
          "name": "params_",
          "type": "tuple"
        }
      ],
      "name": "execSwapTCforTP",
      "outputs": [
        {
          "internalType": "uint256",
          "name": "qACSurcharges",
          "type": "uint256"
        },
        {
          "internalType": "uint256",
          "name": "qTPMinted",
          "type": "uint256"
        },
        {
          "internalType": "uint256",
          "name": "qFeeTokenTotalNeeded",
          "type": "uint256"
        },
        {
          "components": [
            {
              "internalType": "uint256",
              "name": "qACFee",
              "type": "uint256"
            },
            {
              "internalType": "uint256",
              "name": "qFeeToken",
              "type": "uint256"
            },
            {
              "internalType": "uint256",
              "name": "qACVendorMarkup",
              "type": "uint256"
            },
            {
              "internalType": "uint256",
              "name": "qFeeTokenVendorMarkup",
              "type": "uint256"
            }
          ],
          "internalType": "struct MocCommons.FeeCalcs",
          "name": "feeCalcs",
          "type": "tuple"
        }
      ],
      "stateMutability": "nonpayable",
      "type": "function"
    },
    {
      "inputs": [
        {
          "components": [
            {
              "internalType": "address",
              "name": "tp",
              "type": "address"
            },
            {
              "internalType": "uint256",
              "name": "qTP",
              "type": "uint256"
            },
            {
              "internalType": "uint256",
              "name": "qTCmin",
              "type": "uint256"
            },
            {
              "internalType": "uint256",
              "name": "qACmax",
              "type": "uint256"
            },
            {
              "internalType": "address",
              "name": "sender",
              "type": "address"
            },
            {
              "internalType": "address",
              "name": "recipient",
              "type": "address"
            },
            {
              "internalType": "address",
              "name": "vendor",
              "type": "address"
            }
          ],
          "internalType": "struct MocCommons.SwapTPforTCParams",
          "name": "params_",
          "type": "tuple"
        }
      ],
      "name": "execSwapTPforTC",
      "outputs": [
        {
          "internalType": "uint256",
          "name": "qACSurcharges",
          "type": "uint256"
        },
        {
          "internalType": "uint256",
          "name": "qTCMinted",
          "type": "uint256"
        },
        {
          "internalType": "uint256",
          "name": "qFeeTokenTotalNeeded",
          "type": "uint256"
        },
        {
          "components": [
            {
              "internalType": "uint256",
              "name": "qACFee",
              "type": "uint256"
            },
            {
              "internalType": "uint256",
              "name": "qFeeToken",
              "type": "uint256"
            },
            {
              "internalType": "uint256",
              "name": "qACVendorMarkup",
              "type": "uint256"
            },
            {
              "internalType": "uint256",
              "name": "qFeeTokenVendorMarkup",
              "type": "uint256"
            }
          ],
          "internalType": "struct MocCommons.FeeCalcs",
          "name": "feeCalcs",
          "type": "tuple"
        }
      ],
      "stateMutability": "nonpayable",
      "type": "function"
    },
    {
      "inputs": [
        {
          "components": [
            {
              "internalType": "address",
              "name": "tpFrom",
              "type": "address"
            },
            {
              "internalType": "address",
              "name": "tpTo",
              "type": "address"
            },
            {
              "internalType": "uint256",
              "name": "qTP",
              "type": "uint256"
            },
            {
              "internalType": "uint256",
              "name": "qTPmin",
              "type": "uint256"
            },
            {
              "internalType": "uint256",
              "name": "qACmax",
              "type": "uint256"
            },
            {
              "internalType": "address",
              "name": "sender",
              "type": "address"
            },
            {
              "internalType": "address",
              "name": "recipient",
              "type": "address"
            },
            {
              "internalType": "address",
              "name": "vendor",
              "type": "address"
            }
          ],
          "internalType": "struct MocCommons.SwapTPforTPParams",
          "name": "params_",
          "type": "tuple"
        }
      ],
      "name": "execSwapTPforTP",
      "outputs": [
        {
          "internalType": "uint256",
          "name": "qACSurcharges",
          "type": "uint256"
        },
        {
          "internalType": "uint256",
          "name": "qTPMinted",
          "type": "uint256"
        },
        {
          "internalType": "uint256",
          "name": "qFeeTokenTotalNeeded",
          "type": "uint256"
        },
        {
          "components": [
            {
              "internalType": "uint256",
              "name": "qACFee",
              "type": "uint256"
            },
            {
              "internalType": "uint256",
              "name": "qFeeToken",
              "type": "uint256"
            },
            {
              "internalType": "uint256",
              "name": "qACVendorMarkup",
              "type": "uint256"
            },
            {
              "internalType": "uint256",
              "name": "qFeeTokenVendorMarkup",
              "type": "uint256"
            }
          ],
          "internalType": "struct MocCommons.FeeCalcs",
          "name": "feeCalcs",
          "type": "tuple"
        }
      ],
      "stateMutability": "nonpayable",
      "type": "function"
    },
    {
      "inputs": [],
      "name": "feeRetainer",
      "outputs": [
        {
          "internalType": "uint256",
          "name": "",
          "type": "uint256"
        }
      ],
      "stateMutability": "view",
      "type": "function"
    },
    {
      "inputs": [],
      "name": "feeToken",
      "outputs": [
        {
          "internalType": "contract IERC20",
          "name": "",
          "type": "address"
        }
      ],
      "stateMutability": "view",
      "type": "function"
    },
    {
      "inputs": [],
      "name": "feeTokenPct",
      "outputs": [
        {
          "internalType": "uint256",
          "name": "",
          "type": "uint256"
        }
      ],
      "stateMutability": "view",
      "type": "function"
    },
    {
      "inputs": [],
      "name": "feeTokenPriceProvider",
      "outputs": [
        {
          "internalType": "contract IPriceProvider",
          "name": "",
          "type": "address"
        }
      ],
      "stateMutability": "view",
      "type": "function"
    },
    {
      "inputs": [],
      "name": "getBts",
      "outputs": [
        {
          "internalType": "uint256",
          "name": "",
          "type": "uint256"
        }
      ],
      "stateMutability": "view",
      "type": "function"
    },
    {
      "inputs": [],
      "name": "getCglb",
      "outputs": [
        {
          "internalType": "uint256",
          "name": "cglob",
          "type": "uint256"
        }
      ],
      "stateMutability": "view",
      "type": "function"
    },
    {
      "inputs": [],
      "name": "getCustomMockValue",
      "outputs": [
        {
          "internalType": "uint256",
          "name": "",
          "type": "uint256"
        }
      ],
      "stateMutability": "view",
      "type": "function"
    },
    {
      "inputs": [],
      "name": "getExpansionCustomMockValue",
      "outputs": [
        {
          "internalType": "uint256",
          "name": "",
          "type": "uint256"
        }
      ],
      "stateMutability": "nonpayable",
      "type": "function"
    },
    {
      "inputs": [],
      "name": "getLckAC",
      "outputs": [
        {
          "internalType": "uint256",
          "name": "lckAC",
          "type": "uint256"
        }
      ],
      "stateMutability": "view",
      "type": "function"
    },
    {
      "inputs": [],
      "name": "getLeverageTC",
      "outputs": [
        {
          "internalType": "uint256",
          "name": "leverageTC",
          "type": "uint256"
        }
      ],
      "stateMutability": "view",
      "type": "function"
    },
    {
      "inputs": [
        {
          "internalType": "address",
          "name": "tp_",
          "type": "address"
        }
      ],
      "name": "getPACtp",
      "outputs": [
        {
          "internalType": "uint256",
          "name": "",
          "type": "uint256"
        }
      ],
      "stateMutability": "view",
      "type": "function"
    },
    {
      "inputs": [],
      "name": "getPTCac",
      "outputs": [
        {
          "internalType": "uint256",
          "name": "pTCac",
          "type": "uint256"
        }
      ],
      "stateMutability": "view",
      "type": "function"
    },
    {
      "inputs": [],
      "name": "getTCAvailableToRedeem",
      "outputs": [
        {
          "internalType": "uint256",
          "name": "tcAvailableToRedeem",
          "type": "uint256"
        }
      ],
      "stateMutability": "view",
      "type": "function"
    },
    {
      "inputs": [
        {
          "internalType": "address",
          "name": "tp_",
          "type": "address"
        }
      ],
      "name": "getTPAvailableToMint",
      "outputs": [
        {
          "internalType": "int256",
          "name": "tpAvailableToMint",
          "type": "int256"
        }
      ],
      "stateMutability": "view",
      "type": "function"
    },
    {
      "inputs": [],
      "name": "getTotalACavailable",
      "outputs": [
        {
          "internalType": "uint256",
          "name": "totalACavailable",
          "type": "uint256"
        }
      ],
      "stateMutability": "view",
      "type": "function"
    },
    {
      "inputs": [],
      "name": "getTpAmount",
      "outputs": [
        {
          "internalType": "uint256",
          "name": "",
          "type": "uint256"
        }
      ],
      "stateMutability": "view",
      "type": "function"
    },
    {
      "inputs": [],
      "name": "governor",
      "outputs": [
        {
          "internalType": "contract IGovernor",
          "name": "",
          "type": "address"
        }
      ],
      "stateMutability": "view",
      "type": "function"
    },
    {
      "inputs": [
        {
          "components": [
            {
              "components": [
                {
                  "components": [
                    {
                      "internalType": "address payable",
                      "name": "mocQueueAddress",
                      "type": "address"
                    },
                    {
                      "internalType": "address",
                      "name": "feeTokenAddress",
                      "type": "address"
                    },
                    {
                      "internalType": "address",
                      "name": "feeTokenPriceProviderAddress",
                      "type": "address"
                    },
                    {
                      "internalType": "address",
                      "name": "tcTokenAddress",
                      "type": "address"
                    },
                    {
                      "internalType": "address",
                      "name": "mocFeeFlowAddress",
                      "type": "address"
                    },
                    {
                      "internalType": "address",
                      "name": "mocAppreciationBeneficiaryAddress",
                      "type": "address"
                    },
                    {
                      "internalType": "uint256",
                      "name": "protThrld",
                      "type": "uint256"
                    },
                    {
                      "internalType": "uint256",
                      "name": "liqThrld",
                      "type": "uint256"
                    },
                    {
                      "internalType": "uint256",
                      "name": "feeRetainer",
                      "type": "uint256"
                    },
                    {
                      "internalType": "uint256",
                      "name": "tcMintFee",
                      "type": "uint256"
                    },
                    {
                      "internalType": "uint256",
                      "name": "tcRedeemFee",
                      "type": "uint256"
                    },
                    {
                      "internalType": "uint256",
                      "name": "swapTPforTPFee",
                      "type": "uint256"
                    },
                    {
                      "internalType": "uint256",
                      "name": "swapTPforTCFee",
                      "type": "uint256"
                    },
                    {
                      "internalType": "uint256",
                      "name": "swapTCforTPFee",
                      "type": "uint256"
                    },
                    {
                      "internalType": "uint256",
                      "name": "redeemTCandTPFee",
                      "type": "uint256"
                    },
                    {
                      "internalType": "uint256",
                      "name": "mintTCandTPFee",
                      "type": "uint256"
                    },
                    {
                      "internalType": "uint256",
                      "name": "feeTokenPct",
                      "type": "uint256"
                    },
                    {
                      "internalType": "uint256",
                      "name": "successFee",
                      "type": "uint256"
                    },
                    {
                      "internalType": "uint256",
                      "name": "appreciationFactor",
                      "type": "uint256"
                    },
                    {
                      "internalType": "uint256",
                      "name": "bes",
                      "type": "uint256"
                    },
                    {
                      "internalType": "address",
                      "name": "tcInterestCollectorAddress",
                      "type": "address"
                    },
                    {
                      "internalType": "uint256",
                      "name": "tcInterestRate",
                      "type": "uint256"
                    },
                    {
                      "internalType": "uint256",
                      "name": "tcInterestPaymentBlockSpan",
                      "type": "uint256"
                    },
                    {
                      "internalType": "address",
                      "name": "maxAbsoluteOpProviderAddress",
                      "type": "address"
                    },
                    {
                      "internalType": "address",
                      "name": "maxOpDiffProviderAddress",
                      "type": "address"
                    },
                    {
                      "internalType": "uint256",
                      "name": "decayBlockSpan",
                      "type": "uint256"
                    },
                    {
                      "internalType": "bool",
                      "name": "allowDifferentRecipient",
                      "type": "bool"
                    }
                  ],
                  "internalType": "struct MocBaseBucket.InitializeBaseBucketParams",
                  "name": "initializeBaseBucketParams",
                  "type": "tuple"
                },
                {
                  "internalType": "address",
                  "name": "governorAddress",
                  "type": "address"
                },
                {
                  "internalType": "address",
                  "name": "pauserAddress",
                  "type": "address"
                },
                {
                  "internalType": "address",
                  "name": "mocCoreExpansion",
                  "type": "address"
                },
                {
                  "internalType": "uint256",
                  "name": "emaCalculationBlockSpan",
                  "type": "uint256"
                },
                {
                  "internalType": "address",
                  "name": "mocVendors",
                  "type": "address"
                }
              ],
              "internalType": "struct MocCore.InitializeCoreParams",
              "name": "initializeCoreParams",
              "type": "tuple"
            },
            {
              "internalType": "address",
              "name": "acTokenAddress",
              "type": "address"
            }
          ],
          "internalType": "struct MocCARC20.InitializeParams",
          "name": "initializeParams_",
          "type": "tuple"
        }
      ],
      "name": "initialize",
      "outputs": [],
      "stateMutability": "nonpayable",
      "type": "function"
    },
    {
      "inputs": [],
      "name": "initializeMock",
      "outputs": [],
      "stateMutability": "nonpayable",
      "type": "function"
    },
    {
      "inputs": [],
      "name": "isLiquidationReached",
      "outputs": [
        {
          "internalType": "bool",
          "name": "",
          "type": "bool"
        }
      ],
      "stateMutability": "view",
      "type": "function"
    },
    {
      "inputs": [],
      "name": "lastOperationBlockNumber",
      "outputs": [
        {
          "internalType": "uint256",
          "name": "",
          "type": "uint256"
        }
      ],
      "stateMutability": "view",
      "type": "function"
    },
    {
      "inputs": [],
      "name": "liqEnabled",
      "outputs": [
        {
          "internalType": "bool",
          "name": "",
          "type": "bool"
        }
      ],
      "stateMutability": "view",
      "type": "function"
    },
    {
      "inputs": [
        {
          "internalType": "address",
          "name": "tp_",
          "type": "address"
        },
        {
          "internalType": "address",
          "name": "recipient_",
          "type": "address"
        }
      ],
      "name": "liqRedeemTP",
      "outputs": [
        {
          "internalType": "uint256",
          "name": "qACRedeemed",
          "type": "uint256"
        }
      ],
      "stateMutability": "nonpayable",
      "type": "function"
    },
    {
      "inputs": [],
      "name": "liqThrld",
      "outputs": [
        {
          "internalType": "uint256",
          "name": "",
          "type": "uint256"
        }
      ],
      "stateMutability": "view",
      "type": "function"
    },
    {
      "inputs": [],
      "name": "liquidated",
      "outputs": [
        {
          "internalType": "bool",
          "name": "",
          "type": "bool"
        }
      ],
      "stateMutability": "view",
      "type": "function"
    },
    {
      "inputs": [],
      "name": "makeStoppable",
      "outputs": [],
      "stateMutability": "nonpayable",
      "type": "function"
    },
    {
      "inputs": [],
      "name": "makeUnstoppable",
      "outputs": [],
      "stateMutability": "nonpayable",
      "type": "function"
    },
    {
      "inputs": [],
      "name": "maxAbsoluteOpProvider",
      "outputs": [
        {
          "internalType": "contract IDataProvider",
          "name": "",
          "type": "address"
        }
      ],
      "stateMutability": "view",
      "type": "function"
    },
    {
      "inputs": [],
      "name": "maxOpDiffProvider",
      "outputs": [
        {
          "internalType": "contract IDataProvider",
          "name": "",
          "type": "address"
        }
      ],
      "stateMutability": "view",
      "type": "function"
    },
    {
      "inputs": [],
      "name": "maxQACToMintTP",
      "outputs": [
        {
          "internalType": "uint256",
          "name": "maxQAC",
          "type": "uint256"
        }
      ],
      "stateMutability": "view",
      "type": "function"
    },
    {
      "inputs": [],
      "name": "maxQACToRedeemTP",
      "outputs": [
        {
          "internalType": "uint256",
          "name": "maxQAC",
          "type": "uint256"
        }
      ],
      "stateMutability": "view",
      "type": "function"
    },
    {
      "inputs": [
        {
          "internalType": "uint256",
          "name": "qTC_",
          "type": "uint256"
        },
        {
          "internalType": "uint256",
          "name": "qACmax_",
          "type": "uint256"
        },
        {
          "internalType": "address",
          "name": "recipient_",
          "type": "address"
        },
        {
          "internalType": "address",
          "name": "vendor_",
          "type": "address"
        }
      ],
      "name": "mintTC",
      "outputs": [
        {
          "internalType": "uint256",
          "name": "operId",
          "type": "uint256"
        }
      ],
      "stateMutability": "payable",
      "type": "function"
    },
    {
      "inputs": [
        {
          "internalType": "address",
          "name": "tp_",
          "type": "address"
        },
        {
          "internalType": "uint256",
          "name": "qTP_",
          "type": "uint256"
        },
        {
          "internalType": "uint256",
          "name": "qACmax_",
          "type": "uint256"
        },
        {
          "internalType": "address",
          "name": "recipient_",
          "type": "address"
        },
        {
          "internalType": "address",
          "name": "vendor_",
          "type": "address"
        }
      ],
      "name": "mintTCandTP",
      "outputs": [
        {
          "internalType": "uint256",
          "name": "operId",
          "type": "uint256"
        }
      ],
      "stateMutability": "payable",
      "type": "function"
    },
    {
      "inputs": [],
      "name": "mintTCandTPFee",
      "outputs": [
        {
          "internalType": "uint256",
          "name": "",
          "type": "uint256"
        }
      ],
      "stateMutability": "view",
      "type": "function"
    },
    {
      "inputs": [
        {
          "internalType": "address",
          "name": "tp_",
          "type": "address"
        },
        {
          "internalType": "uint256",
          "name": "qTP_",
          "type": "uint256"
        },
        {
          "internalType": "uint256",
          "name": "qACmax_",
          "type": "uint256"
        },
        {
          "internalType": "address",
          "name": "recipient_",
          "type": "address"
        },
        {
          "internalType": "address",
          "name": "vendor_",
          "type": "address"
        }
      ],
      "name": "mintTP",
      "outputs": [
        {
          "internalType": "uint256",
          "name": "operId",
          "type": "uint256"
        }
      ],
      "stateMutability": "payable",
      "type": "function"
    },
    {
      "inputs": [],
      "name": "mocAppreciationBeneficiaryAddress",
      "outputs": [
        {
          "internalType": "address",
          "name": "",
          "type": "address"
        }
      ],
      "stateMutability": "view",
      "type": "function"
    },
    {
      "inputs": [],
      "name": "mocFeeFlowAddress",
      "outputs": [
        {
          "internalType": "address",
          "name": "",
          "type": "address"
        }
      ],
      "stateMutability": "view",
      "type": "function"
    },
    {
      "inputs": [],
      "name": "mocQueue",
      "outputs": [
        {
          "internalType": "address payable",
          "name": "",
          "type": "address"
        }
      ],
      "stateMutability": "view",
      "type": "function"
    },
    {
      "inputs": [],
      "name": "mocVendors",
      "outputs": [
        {
          "internalType": "contract MocVendors",
          "name": "",
          "type": "address"
        }
      ],
      "stateMutability": "view",
      "type": "function"
    },
    {
      "inputs": [],
      "name": "nACcb",
      "outputs": [
        {
          "internalType": "uint256",
          "name": "",
          "type": "uint256"
        }
      ],
      "stateMutability": "view",
      "type": "function"
    },
    {
      "inputs": [],
      "name": "nTCcb",
      "outputs": [
        {
          "internalType": "uint256",
          "name": "",
          "type": "uint256"
        }
      ],
      "stateMutability": "view",
      "type": "function"
    },
    {
      "inputs": [],
      "name": "newVariable",
      "outputs": [
        {
          "internalType": "uint256",
          "name": "",
          "type": "uint256"
        }
      ],
      "stateMutability": "view",
      "type": "function"
    },
    {
      "inputs": [],
      "name": "nextEmaCalculation",
      "outputs": [
        {
          "internalType": "uint256",
          "name": "",
          "type": "uint256"
        }
      ],
      "stateMutability": "view",
      "type": "function"
    },
    {
      "inputs": [],
      "name": "nextTCInterestPayment",
      "outputs": [
        {
          "internalType": "uint256",
          "name": "",
          "type": "uint256"
        }
      ],
      "stateMutability": "view",
      "type": "function"
    },
    {
      "inputs": [],
      "name": "pause",
      "outputs": [],
      "stateMutability": "nonpayable",
      "type": "function"
    },
    {
      "inputs": [],
      "name": "paused",
      "outputs": [
        {
          "internalType": "bool",
          "name": "",
          "type": "bool"
        }
      ],
      "stateMutability": "view",
      "type": "function"
    },
    {
      "inputs": [],
      "name": "pauser",
      "outputs": [
        {
          "internalType": "address",
          "name": "",
          "type": "address"
        }
      ],
      "stateMutability": "view",
      "type": "function"
    },
    {
      "inputs": [
        {
          "internalType": "uint256",
          "name": "",
          "type": "uint256"
        }
      ],
      "name": "pegContainer",
      "outputs": [
        {
          "internalType": "uint256",
          "name": "nTP",
          "type": "uint256"
        },
        {
          "internalType": "contract IPriceProvider",
          "name": "priceProvider",
          "type": "address"
        }
      ],
      "stateMutability": "view",
      "type": "function"
    },
    {
      "inputs": [
        {
          "internalType": "address",
          "name": "",
          "type": "address"
        }
      ],
      "name": "peggedTokenIndex",
      "outputs": [
        {
          "internalType": "uint256",
          "name": "index",
          "type": "uint256"
        },
        {
          "internalType": "bool",
          "name": "exists",
          "type": "bool"
        }
      ],
      "stateMutability": "view",
      "type": "function"
    },
    {
      "inputs": [],
      "name": "protThrld",
      "outputs": [
        {
          "internalType": "uint256",
          "name": "",
          "type": "uint256"
        }
      ],
      "stateMutability": "view",
      "type": "function"
    },
    {
      "inputs": [],
      "name": "proxiableUUID",
      "outputs": [
        {
          "internalType": "bytes32",
          "name": "",
          "type": "bytes32"
        }
      ],
      "stateMutability": "view",
      "type": "function"
    },
    {
      "inputs": [],
      "name": "qACLockedInPending",
      "outputs": [
        {
          "internalType": "uint256",
          "name": "",
          "type": "uint256"
        }
      ],
      "stateMutability": "view",
      "type": "function"
    },
    {
      "inputs": [
        {
          "internalType": "uint256",
          "name": "qTC_",
          "type": "uint256"
        },
        {
          "internalType": "uint256",
          "name": "qACmin_",
          "type": "uint256"
        },
        {
          "internalType": "address",
          "name": "recipient_",
          "type": "address"
        },
        {
          "internalType": "address",
          "name": "vendor_",
          "type": "address"
        }
      ],
      "name": "redeemTC",
      "outputs": [
        {
          "internalType": "uint256",
          "name": "operId",
          "type": "uint256"
        }
      ],
      "stateMutability": "payable",
      "type": "function"
    },
    {
      "inputs": [
        {
          "internalType": "address",
          "name": "tp_",
          "type": "address"
        },
        {
          "internalType": "uint256",
          "name": "qTC_",
          "type": "uint256"
        },
        {
          "internalType": "uint256",
          "name": "qTP_",
          "type": "uint256"
        },
        {
          "internalType": "uint256",
          "name": "qACmin_",
          "type": "uint256"
        },
        {
          "internalType": "address",
          "name": "recipient_",
          "type": "address"
        },
        {
          "internalType": "address",
          "name": "vendor_",
          "type": "address"
        }
      ],
      "name": "redeemTCandTP",
      "outputs": [
        {
          "internalType": "uint256",
          "name": "operId",
          "type": "uint256"
        }
      ],
      "stateMutability": "payable",
      "type": "function"
    },
    {
      "inputs": [],
      "name": "redeemTCandTPFee",
      "outputs": [
        {
          "internalType": "uint256",
          "name": "",
          "type": "uint256"
        }
      ],
      "stateMutability": "view",
      "type": "function"
    },
    {
      "inputs": [
        {
          "internalType": "address",
          "name": "tp_",
          "type": "address"
        },
        {
          "internalType": "uint256",
          "name": "qTP_",
          "type": "uint256"
        },
        {
          "internalType": "uint256",
          "name": "qACmin_",
          "type": "uint256"
        },
        {
          "internalType": "address",
          "name": "recipient_",
          "type": "address"
        },
        {
          "internalType": "address",
          "name": "vendor_",
          "type": "address"
        }
      ],
      "name": "redeemTP",
      "outputs": [
        {
          "internalType": "uint256",
          "name": "operId",
          "type": "uint256"
        }
      ],
      "stateMutability": "payable",
      "type": "function"
    },
    {
      "inputs": [],
      "name": "refreshACBalance",
      "outputs": [],
      "stateMutability": "nonpayable",
      "type": "function"
    },
    {
      "inputs": [
        {
          "internalType": "bool",
          "name": "allowDifferentRecipient_",
          "type": "bool"
        }
      ],
      "name": "setAllowDifferentRecipient",
      "outputs": [],
      "stateMutability": "nonpayable",
      "type": "function"
    },
    {
      "inputs": [
        {
          "internalType": "uint256",
          "name": "appreciationFactor_",
          "type": "uint256"
        }
      ],
      "name": "setAppreciationFactor",
      "outputs": [],
      "stateMutability": "nonpayable",
      "type": "function"
    },
    {
      "inputs": [
        {
          "internalType": "uint256",
          "name": "bes_",
          "type": "uint256"
        }
      ],
      "name": "setBes",
      "outputs": [],
      "stateMutability": "nonpayable",
      "type": "function"
    },
    {
      "inputs": [
        {
          "internalType": "uint256",
          "name": "decayBlockSpan_",
          "type": "uint256"
        }
      ],
      "name": "setDecayBlockSpan",
      "outputs": [],
      "stateMutability": "nonpayable",
      "type": "function"
    },
    {
      "inputs": [
        {
          "internalType": "uint256",
          "name": "blockSpan_",
          "type": "uint256"
        }
      ],
      "name": "setEmaCalculationBlockSpan",
      "outputs": [],
      "stateMutability": "nonpayable",
      "type": "function"
    },
    {
      "inputs": [
        {
          "internalType": "uint256",
          "name": "feeRetainer_",
          "type": "uint256"
        }
      ],
      "name": "setFeeRetainer",
      "outputs": [],
      "stateMutability": "nonpayable",
      "type": "function"
    },
    {
      "inputs": [
        {
          "internalType": "address",
          "name": "mocFeeTokenAddress_",
          "type": "address"
        }
      ],
      "name": "setFeeTokenAddress",
      "outputs": [],
      "stateMutability": "nonpayable",
      "type": "function"
    },
    {
      "inputs": [
        {
          "internalType": "uint256",
          "name": "feeTokenPct_",
          "type": "uint256"
        }
      ],
      "name": "setFeeTokenPct",
      "outputs": [],
      "stateMutability": "nonpayable",
      "type": "function"
    },
    {
      "inputs": [
        {
          "internalType": "address",
          "name": "mocFeeTokenPriceProviderAddress_",
          "type": "address"
        }
      ],
      "name": "setFeeTokenPriceProviderAddress",
      "outputs": [],
      "stateMutability": "nonpayable",
      "type": "function"
    },
    {
      "inputs": [
        {
          "internalType": "bool",
          "name": "liqEnabled_",
          "type": "bool"
        }
      ],
      "name": "setLiqEnabled",
      "outputs": [],
      "stateMutability": "nonpayable",
      "type": "function"
    },
    {
      "inputs": [
        {
          "internalType": "uint256",
          "name": "liqThrld_",
          "type": "uint256"
        }
      ],
      "name": "setLiqThrld",
      "outputs": [],
      "stateMutability": "nonpayable",
      "type": "function"
    },
    {
      "inputs": [
        {
          "internalType": "address",
          "name": "maxAbsoluteOpProviderAddress_",
          "type": "address"
        }
      ],
      "name": "setMaxAbsoluteOpProviderAddress",
      "outputs": [],
      "stateMutability": "nonpayable",
      "type": "function"
    },
    {
      "inputs": [
        {
          "internalType": "address",
          "name": "maxOpDiffProviderAddress_",
          "type": "address"
        }
      ],
      "name": "setMaxOpDiffProviderAddress",
      "outputs": [],
      "stateMutability": "nonpayable",
      "type": "function"
    },
    {
      "inputs": [
        {
          "internalType": "uint256",
          "name": "mintTCandTPFee_",
          "type": "uint256"
        }
      ],
      "name": "setMintTCandTPFee",
      "outputs": [],
      "stateMutability": "nonpayable",
      "type": "function"
    },
    {
      "inputs": [
        {
          "internalType": "address",
          "name": "mocAppreciationBeneficiaryAddress_",
          "type": "address"
        }
      ],
      "name": "setMocAppreciationBeneficiaryAddress",
      "outputs": [],
      "stateMutability": "nonpayable",
      "type": "function"
    },
    {
      "inputs": [
        {
          "internalType": "address",
          "name": "mocCoreExpansion_",
          "type": "address"
        }
      ],
      "name": "setMocCoreExpansion",
      "outputs": [],
      "stateMutability": "nonpayable",
      "type": "function"
    },
    {
      "inputs": [
        {
          "internalType": "address",
          "name": "mocFeeFlowAddress_",
          "type": "address"
        }
      ],
      "name": "setMocFeeFlowAddress",
      "outputs": [],
      "stateMutability": "nonpayable",
      "type": "function"
    },
    {
      "inputs": [
        {
          "internalType": "address payable",
          "name": "mocQueueAddress_",
          "type": "address"
        }
      ],
      "name": "setMocQueue",
      "outputs": [],
      "stateMutability": "nonpayable",
      "type": "function"
    },
    {
      "inputs": [
        {
          "internalType": "address",
          "name": "mocVendors_",
          "type": "address"
        }
      ],
      "name": "setMocVendors",
      "outputs": [],
      "stateMutability": "nonpayable",
      "type": "function"
    },
    {
      "inputs": [
        {
          "internalType": "address",
          "name": "newPauser_",
          "type": "address"
        }
      ],
      "name": "setPauser",
      "outputs": [],
      "stateMutability": "nonpayable",
      "type": "function"
    },
    {
      "inputs": [
        {
          "internalType": "uint256",
          "name": "protThrld_",
          "type": "uint256"
        }
      ],
      "name": "setProtThrld",
      "outputs": [],
      "stateMutability": "nonpayable",
      "type": "function"
    },
    {
      "inputs": [
        {
          "internalType": "uint256",
          "name": "redeemTCandTPFee_",
          "type": "uint256"
        }
      ],
      "name": "setRedeemTCandTPFee",
      "outputs": [],
      "stateMutability": "nonpayable",
      "type": "function"
    },
    {
      "inputs": [
        {
          "internalType": "uint256",
          "name": "successFee_",
          "type": "uint256"
        }
      ],
      "name": "setSuccessFee",
      "outputs": [],
      "stateMutability": "nonpayable",
      "type": "function"
    },
    {
      "inputs": [
        {
          "internalType": "uint256",
          "name": "swapTCforTPFee_",
          "type": "uint256"
        }
      ],
      "name": "setSwapTCforTPFee",
      "outputs": [],
      "stateMutability": "nonpayable",
      "type": "function"
    },
    {
      "inputs": [
        {
          "internalType": "uint256",
          "name": "swapTPforTCFee_",
          "type": "uint256"
        }
      ],
      "name": "setSwapTPforTCFee",
      "outputs": [],
      "stateMutability": "nonpayable",
      "type": "function"
    },
    {
      "inputs": [
        {
          "internalType": "uint256",
          "name": "swapTPforTPFee_",
          "type": "uint256"
        }
      ],
      "name": "setSwapTPforTPFee",
      "outputs": [],
      "stateMutability": "nonpayable",
      "type": "function"
    },
    {
      "inputs": [
        {
          "internalType": "address",
          "name": "tcInterestCollectorAddress_",
          "type": "address"
        }
      ],
      "name": "setTCInterestCollectorAddress",
      "outputs": [],
      "stateMutability": "nonpayable",
      "type": "function"
    },
    {
      "inputs": [
        {
          "internalType": "uint256",
          "name": "tcInterestPaymentBlockSpan_",
          "type": "uint256"
        }
      ],
      "name": "setTCInterestPaymentBlockSpan",
      "outputs": [],
      "stateMutability": "nonpayable",
      "type": "function"
    },
    {
      "inputs": [
        {
          "internalType": "uint256",
          "name": "tcInterestRate_",
          "type": "uint256"
        }
      ],
      "name": "setTCInterestRate",
      "outputs": [],
      "stateMutability": "nonpayable",
      "type": "function"
    },
    {
      "inputs": [
        {
          "internalType": "uint256",
          "name": "tcMintFee_",
          "type": "uint256"
        }
      ],
      "name": "setTcMintFee",
      "outputs": [],
      "stateMutability": "nonpayable",
      "type": "function"
    },
    {
      "inputs": [
        {
          "internalType": "uint256",
          "name": "tcRedeemFee_",
          "type": "uint256"
        }
      ],
      "name": "setTcRedeemFee",
      "outputs": [],
      "stateMutability": "nonpayable",
      "type": "function"
    },
    {
      "inputs": [],
      "name": "shouldCalculateEma",
      "outputs": [
        {
          "internalType": "bool",
          "name": "",
          "type": "bool"
        }
      ],
      "stateMutability": "view",
      "type": "function"
    },
    {
      "inputs": [],
      "name": "stoppable",
      "outputs": [
        {
          "internalType": "bool",
          "name": "",
          "type": "bool"
        }
      ],
      "stateMutability": "view",
      "type": "function"
    },
    {
      "inputs": [],
      "name": "successFee",
      "outputs": [
        {
          "internalType": "uint256",
          "name": "",
          "type": "uint256"
        }
      ],
      "stateMutability": "view",
      "type": "function"
    },
    {
      "inputs": [
        {
          "internalType": "address",
          "name": "tp_",
          "type": "address"
        },
        {
          "internalType": "uint256",
          "name": "qTC_",
          "type": "uint256"
        },
        {
          "internalType": "uint256",
          "name": "qTPmin_",
          "type": "uint256"
        },
        {
          "internalType": "uint256",
          "name": "qACmax_",
          "type": "uint256"
        },
        {
          "internalType": "address",
          "name": "recipient_",
          "type": "address"
        },
        {
          "internalType": "address",
          "name": "vendor_",
          "type": "address"
        }
      ],
      "name": "swapTCforTP",
      "outputs": [
        {
          "internalType": "uint256",
          "name": "operId",
          "type": "uint256"
        }
      ],
      "stateMutability": "payable",
      "type": "function"
    },
    {
      "inputs": [],
      "name": "swapTCforTPFee",
      "outputs": [
        {
          "internalType": "uint256",
          "name": "",
          "type": "uint256"
        }
      ],
      "stateMutability": "view",
      "type": "function"
    },
    {
      "inputs": [
        {
          "internalType": "address",
          "name": "tp_",
          "type": "address"
        },
        {
          "internalType": "uint256",
          "name": "qTP_",
          "type": "uint256"
        },
        {
          "internalType": "uint256",
          "name": "qTCmin_",
          "type": "uint256"
        },
        {
          "internalType": "uint256",
          "name": "qACmax_",
          "type": "uint256"
        },
        {
          "internalType": "address",
          "name": "recipient_",
          "type": "address"
        },
        {
          "internalType": "address",
          "name": "vendor_",
          "type": "address"
        }
      ],
      "name": "swapTPforTC",
      "outputs": [
        {
          "internalType": "uint256",
          "name": "operId",
          "type": "uint256"
        }
      ],
      "stateMutability": "payable",
      "type": "function"
    },
    {
      "inputs": [],
      "name": "swapTPforTCFee",
      "outputs": [
        {
          "internalType": "uint256",
          "name": "",
          "type": "uint256"
        }
      ],
      "stateMutability": "view",
      "type": "function"
    },
    {
      "inputs": [
        {
          "internalType": "address",
          "name": "tpFrom_",
          "type": "address"
        },
        {
          "internalType": "address",
          "name": "tpTo_",
          "type": "address"
        },
        {
          "internalType": "uint256",
          "name": "qTP_",
          "type": "uint256"
        },
        {
          "internalType": "uint256",
          "name": "qTPmin_",
          "type": "uint256"
        },
        {
          "internalType": "uint256",
          "name": "qACmax_",
          "type": "uint256"
        },
        {
          "internalType": "address",
          "name": "recipient_",
          "type": "address"
        },
        {
          "internalType": "address",
          "name": "vendor_",
          "type": "address"
        }
      ],
      "name": "swapTPforTP",
      "outputs": [
        {
          "internalType": "uint256",
          "name": "operId",
          "type": "uint256"
        }
      ],
      "stateMutability": "payable",
      "type": "function"
    },
    {
      "inputs": [],
      "name": "swapTPforTPFee",
      "outputs": [
        {
          "internalType": "uint256",
          "name": "",
          "type": "uint256"
        }
      ],
      "stateMutability": "view",
      "type": "function"
    },
    {
      "inputs": [],
      "name": "tcHoldersInterestPayment",
      "outputs": [],
      "stateMutability": "nonpayable",
      "type": "function"
    },
    {
      "inputs": [],
      "name": "tcInterestCollectorAddress",
      "outputs": [
        {
          "internalType": "address",
          "name": "",
          "type": "address"
        }
      ],
      "stateMutability": "view",
      "type": "function"
    },
    {
      "inputs": [],
      "name": "tcInterestPaymentBlockSpan",
      "outputs": [
        {
          "internalType": "uint256",
          "name": "",
          "type": "uint256"
        }
      ],
      "stateMutability": "view",
      "type": "function"
    },
    {
      "inputs": [],
      "name": "tcInterestRate",
      "outputs": [
        {
          "internalType": "uint256",
          "name": "",
          "type": "uint256"
        }
      ],
      "stateMutability": "view",
      "type": "function"
    },
    {
      "inputs": [],
      "name": "tcMintFee",
      "outputs": [
        {
          "internalType": "uint256",
          "name": "",
          "type": "uint256"
        }
      ],
      "stateMutability": "view",
      "type": "function"
    },
    {
      "inputs": [],
      "name": "tcRedeemFee",
      "outputs": [
        {
          "internalType": "uint256",
          "name": "",
          "type": "uint256"
        }
      ],
      "stateMutability": "view",
      "type": "function"
    },
    {
      "inputs": [],
      "name": "tcToken",
      "outputs": [
        {
          "internalType": "contract MocTC",
          "name": "",
          "type": "address"
        }
      ],
      "stateMutability": "view",
      "type": "function"
    },
    {
      "inputs": [
        {
          "internalType": "uint256",
          "name": "",
          "type": "uint256"
        }
      ],
      "name": "tpCtarg",
      "outputs": [
        {
          "internalType": "uint256",
          "name": "",
          "type": "uint256"
        }
      ],
      "stateMutability": "view",
      "type": "function"
    },
    {
      "inputs": [
        {
          "internalType": "uint256",
          "name": "",
          "type": "uint256"
        }
      ],
      "name": "tpEma",
      "outputs": [
        {
          "internalType": "uint256",
          "name": "ema",
          "type": "uint256"
        },
        {
          "internalType": "uint256",
          "name": "sf",
          "type": "uint256"
        }
      ],
      "stateMutability": "view",
      "type": "function"
    },
    {
      "inputs": [
        {
          "internalType": "uint256",
          "name": "",
          "type": "uint256"
        }
      ],
      "name": "tpLiqPrices",
      "outputs": [
        {
          "internalType": "uint256",
          "name": "",
          "type": "uint256"
        }
      ],
      "stateMutability": "view",
      "type": "function"
    },
    {
      "inputs": [
        {
          "internalType": "address",
          "name": "",
          "type": "address"
        }
      ],
      "name": "tpMintFees",
      "outputs": [
        {
          "internalType": "uint256",
          "name": "",
          "type": "uint256"
        }
      ],
      "stateMutability": "view",
      "type": "function"
    },
    {
      "inputs": [
        {
          "internalType": "address",
          "name": "",
          "type": "address"
        }
      ],
      "name": "tpRedeemFees",
      "outputs": [
        {
          "internalType": "uint256",
          "name": "",
          "type": "uint256"
        }
      ],
      "stateMutability": "view",
      "type": "function"
    },
    {
      "inputs": [
        {
          "internalType": "uint256",
          "name": "",
          "type": "uint256"
        }
      ],
      "name": "tpTokens",
      "outputs": [
        {
          "internalType": "contract IMocRC20",
          "name": "",
          "type": "address"
        }
      ],
      "stateMutability": "view",
      "type": "function"
    },
    {
      "inputs": [
        {
          "internalType": "address",
          "name": "owner_",
          "type": "address"
        },
        {
          "internalType": "uint256",
          "name": "qACToUnlock_",
          "type": "uint256"
        }
      ],
      "name": "unlockACInPending",
      "outputs": [],
      "stateMutability": "nonpayable",
      "type": "function"
    },
    {
      "inputs": [
        {
          "internalType": "address",
          "name": "owner_",
          "type": "address"
        },
        {
          "internalType": "uint256",
          "name": "qTCToUnlock_",
          "type": "uint256"
        }
      ],
      "name": "unlockTCInPending",
      "outputs": [],
      "stateMutability": "nonpayable",
      "type": "function"
    },
    {
      "inputs": [
        {
          "internalType": "address",
          "name": "owner_",
          "type": "address"
        },
        {
          "internalType": "contract IERC20Upgradeable",
          "name": "tpToken_",
          "type": "address"
        },
        {
          "internalType": "uint256",
          "name": "qTPToUnlock_",
          "type": "uint256"
        }
      ],
      "name": "unlockTPInPending",
      "outputs": [],
      "stateMutability": "nonpayable",
      "type": "function"
    },
    {
      "inputs": [],
      "name": "unpause",
      "outputs": [],
      "stateMutability": "nonpayable",
      "type": "function"
    },
    {
      "inputs": [],
      "name": "updateEmas",
      "outputs": [],
      "stateMutability": "nonpayable",
      "type": "function"
    },
    {
      "inputs": [
        {
          "internalType": "address",
          "name": "newImplementation",
          "type": "address"
        }
      ],
      "name": "upgradeTo",
      "outputs": [],
      "stateMutability": "nonpayable",
      "type": "function"
    },
    {
      "inputs": [
        {
          "internalType": "address",
          "name": "newImplementation",
          "type": "address"
        },
        {
          "internalType": "bytes",
          "name": "data",
          "type": "bytes"
        }
      ],
      "name": "upgradeToAndCall",
      "outputs": [],
      "stateMutability": "payable",
      "type": "function"
    }
  ],
  "bytecode": "0x60a08060405234620000e157306080526000549060ff8260081c166200008f575060ff8082160362000053575b6040516159a09081620000e78239608051818181612888015281816129f70152612f8a0152f35b60ff90811916176000557f7f26b83ff96e1f2b6a682f133852f6798a09c465da95921460cefb3847402498602060405160ff8152a1386200002c565b62461bcd60e51b815260206004820152602760248201527f496e697469616c697a61626c653a20636f6e747261637420697320696e697469604482015266616c697a696e6760c81b6064820152608490fd5b600080fdfe604060808152600436101561001357600080fd5b60009060e08235811c90816301dde6ef14613c0c57816301f1b68414613bc55781630579188f14613b1e5781630716487914613abe578163073763b914613a9a57816307b00d0414613a575781630c340a2414613a2e5781630c36d89714613a0e5781630d6ac463146139c85781630db49656146139a85781630e0a8fd2146139845781630f1e5e2b1461393e57816313ed7ba51461391457816314b4906d146138595781631867e2f5146138395781631fb0dda0146138105781631fe6a7ad146137d65781632069f753146137b2578163235e81cf146135c057816323b98cde1461359857816324ffaba31461355b57816325bc6c411461353157816327eab2a1146134eb5781632a20d57d146134cb5781632c43bd3b146134a75781632d88af4a146134505781632ded50f0146134305781632eccb11c1461334a5781632ed35ca114613213578163333431fd146131f357816333421c38146130f857816334d70ffa14612fef5781633659cfe614612f555781633915edcb14612f24578163391bf6cf14612e0c5781633bc4ac0a14612de85781633cfb09ef14612da25781633f4ba83a14612c965781634017936a14612c65578163407f0e3414612c4557816347dda6af14612b915781634af3a6fc14612b125781634b74600114612ac85781634d977e7814612aa85781634e1f907a14612a7e5781634f0f27ee14612a5e5781634f1ef2861461296e5781635210570c1461294857816352d1902d14612873578163533a4bea1461284257816353b16d17146127fd578163543aeb48146127d957816357271f4d146127a95781635860ee631461278957816358f32de9146127415781635c616a73146125465781635c975abb1461251f5781635cfbe578146124ff5781635e2a6065146124e557816360009e0b146124bb57816360ef07bf1461240a578163647846a5146123e057816364ec230a146123bc578163662013f41461239f57816368274357146123765781636b5488df146123565781636f30471f146123365781637071346814612312578163735d3960146122cc57816373e28af9146122a85781637554fffd1461228857816376228055146122685781637750ba0c14612244578163797709ca1461214b57816379f9a91c1461212b5781637a193c311461210b5781637a4ff1d9146120e75781637a727fe8146120c75781637af5758c146120a35781637cba23831461207f5781637d8e0314146120405781637f01c715146120165781637f13b99814611fe05781637f4a4fe014611fc0578163826fcd5814611f9d5781638456cb5914611f0857816385bf959314611ec2578163883d21cb14611e015781638cfa424114611de15781638d7a72f314611dc15781638e2bdb8614611d975781638f1a383a14611d6f578163938c3e65146118045781639853c35a146117da5781639ad6659d146117a45781639cabfc00146117585781639fd0506d1461172b578163a8e9ac3014611708578163ad4e666d14611528578163aea038dc14611508578163b03e11a0146113f4578163b4434c3214611236578163b5e9ea8c1461120c578163b9fa6413146111ec578163bb4872de146111c8578163bc4e55b2146110fa578163becaca6b146110d6578163bfe4262114610edb578163c00f538d14610eb7578163c039cc6914610e75578163c84353c914610e51578163cf351c1d14610e0b578163d1a0faa014610df2578163d2dc25a514610d63578163d6af11da14610d27578163d87aab6f14610d07578163d8c69aec14610bf1578163d8db6f5a14610bab578163db79607214610b6e578163ddb6d19014610b31578163de8d520a14610afe578163e23c135c14610ae5578163e2c5e99014610a84578163e4c0aaf414610a3f578163e6a683e0146109f9578163e6b1627c146109b5578163e7c2597814610990578163e8859a1514610973578163ee1f438f14610949578163eee2002714610921578163f13f4054146108f7578163f26114aa1461089257508063f28087781461086e578063f30b56141461084f578063f375cfba14610830578063f88b1434146107c7578063fa6e83bd146107a8578063fadda42414610763578063fda70f8b14610744578063fdcdc11e146106535763fe6b92c11461063157600080fd5b3461064f578160031936011261064f57602090610135549051908152f35b5080fd5b6106e2838360c4610665366004613cf3565b6106729892959198615029565b61067a615837565b6106848933614a74565b86519461069260c087613d81565b60018060a01b03918280921687528160209b8c97888a0152898b8a01523360608a01521660808801521660a086015261014f541693865194859384926323ec24b560e11b8452600484019061504b565b34905af19384156107395793610703575b506106fd90614fbf565b51908152f35b9092508381813d8311610732575b61071b8183613d81565b8101031261072d5751916106fd6106f3565b600080fd5b503d610711565b8351903d90823e3d90fd5b503461064f578160031936011261064f5760209061013c549051908152f35b5090346107a55760203660031901126107a55750600435906001600160a01b038216820361072d5761079e6107996020936146c8565b614703565b9051908152f35b80fd5b503461064f578160031936011261064f5760209061013a549051908152f35b5090346107a55760203660031901126107a55750600435906001600160a01b038216820361072d5761079e61082260209361080b610803614e68565b9190926146c8565b9161082a61081984846144e1565b519485936144f5565b959094614dc0565b90614cbd565b503461064f578160031936011261064f57602090610141549051908152f35b503461064f578160031936011261064f57602090610131549051908152f35b82346107a55760203660031901126107a5576108886157a9565b60043561013c5580f35b9050346108f35736600319011261064f576108ef906108af6157a9565b516379308a5560e11b60208201526108dd816108cf600460248301614bc9565b03601f198101835282613d81565b6101f7546001600160a01b0316614a52565b5080f35b8280fd5b50503461064f578160031936011261064f576101305490516001600160a01b039091168152602090f35b50503461064f578160031936011261064f5760209060ff61014b5460101c1690519015158152f35b50503461064f578160031936011261064f576101525490516001600160a01b039091168152602090f35b50503461064f578160031936011261064f5760209061079e614d83565b50503461064f578160031936011261064f5760209060ff61014b541690519015158152f35b50503461064f57602036600319011261064f5760043561018e80548210156109f557906109e191613d65565b506001815491015482519182526020820152f35b8380fd5b83346107a55760203660031901126107a5576004356001600160a01b0381169081900361072d57610a286157a9565b6101f780546001600160a01b031916909117905580f35b83346107a55760203660031901126107a5576004356001600160a01b0381169081900361064f57610a6e6157a9565b6001600160601b0360a01b609754161760975580f35b8284346107a55760603660031901126107a5576001600160a01b03600435818116810361072d576024359180831683036109f55761014f54163303610ad45790610ad19160443591615770565b80f35b8351631974847760e01b8152600490fd5b83346107a557806003193601126107a557610ad161441c565b50503461064f578160031936011261064f5760209061079e610b26610b21614814565b6144f5565b9050610131546143f9565b50503461064f57602036600319011261064f576004356001600160a01b0381169081900361072d5782829160209452610145845220549051908152f35b9050346108f35736600319011261064f576108ef90610b8b6157a9565b51636dbcb03960e11b60208201526108dd816108cf600460248301614bc9565b83346107a55760203660031901126107a5576004356001600160a01b0381169081900361072d57610bda6157a9565b61015280546001600160a01b031916909117905580f35b8391503461064f573660031901126107a55750610c0c615144565b5061014f546001600160a01b03919082163303610cf757610cbc91610c323660046156fd565b91610c3b615144565b50610c44615029565b610c4c615837565b610c98610c898251633dad0bd760e11b6020820152610c6e60248201876150f4565b60e48152610c7e61010482613d81565b846101f75416614a52565b602080825183010191016156a2565b86848760808498969b95979a015116918860c08160a08401511692015116926154ae565b6004359380851680950361072d57608435908116810361072d57610cf394610ce991886044350391615770565b5194859485613d25565b0390f35b51631974847760e01b8152600490fd5b50503461064f578160031936011261064f57602090610155549051908152f35b50503461064f578160031936011261064f5760209061079e610d49600161484e565b610d5d610d568284614639565b9183614583565b91614895565b6106e2848460c4610d75366004613cf3565b610d829892959198615029565b610d8a615837565b610d948933614a74565b865194610da260c087613d81565b60018060a01b03918280921687528160209b8c97888a0152898b8a01523360608a01521660808801521660a086015261014f54169386519485938492637e81a82160e01b8452600484019061504b565b83346107a557806003193601126107a557610ad1614f2b565b83346107a55760203660031901126107a5576004356001600160a01b0381169081900361072d57610e3a6157a9565b61012f80546001600160a01b031916909117905580f35b83346107a55760203660031901126107a557610e6b6157a9565b60043561014c5580f35b50503461064f578160031936011261064f5760209061079e610eaa610eb1610e9e610b21614814565b610131939193546143f9565b91826143f9565b90615923565b83346107a55760203660031901126107a557610ed16157a9565b60043561013d5580f35b8284346107a55760a03660031901126107a557610ef6615144565b5061014f546001600160a01b0390811633036110c557610f1736600461516b565b91610f20615144565b50610f29615029565b610f31615837565b610f39614f2b565b610f4c610f44614e68565b8192916151c8565b9091610f5b8284885193614c5e565b8181106110a8575050670de0b6b3a764000091610f7d610f8392875192614c2a565b90614606565b049182156110975793839481610fbc9501908082511691610fb16080890193878486511661013d549261520b565b9691889991996143f9565b9660208a015180891061107a5750895190610134610fdb8382546143f9565b9055610feb6101319182546143f9565b905583610133541690813b156108f3578651632770a7eb60e21b815230600482015260248101919091529082908290604490829084905af180156110705761105b575b5050968561105193838060608996610cf39b9c9d511695015116915116926154ae565b5193849384613cb5565b611066828092613d81565b6107a5578061102e565b86513d84823e3d90fd5b604490898851916354cde31360e01b835260048301526024820152fd5b845163f3e39b5d60e01b8152600490fd5b6044925087519163a5db715d60e01b835260048301526024820152fd5b8251631974847760e01b8152600490fd5b83346107a55760203660031901126107a5576110f06157a9565b6004356101395580f35b8391503461064f573660031901126107a55750611115615144565b5061014f546001600160a01b0390811633036111b757610cf3610ce99161113d3660046156fd565b93611146615144565b5061114f615029565b611157615837565b611179610c89825163f5571e0160e01b6020820152610c6e60248201896150f4565b948860608793969599949a0191825161119661014e9182546143f9565b905560c06111ac8b8360808601511695516143f9565b9201511691806154ae565b8151631974847760e01b8152600490fd5b50503461064f578160031936011261064f5760209060ff60ca541690519015158152f35b50503461064f578160031936011261064f5760209061015b549051908152f35b50503461064f578160031936011261064f576101535490516001600160a01b039091168152602090f35b8284346107a55760c03660031901126107a557611251615144565b5061014f546001600160a01b03929083163303610cf7576112eb611276366004615567565b9161127f615144565b50611288615029565b611290615837565b611298614f2b565b6112a0614e68565b6112af878695939551166146c8565b936112cf6112bd86846144e1565b51926112c98488614b78565b826151c8565b6020889592950194848651946112e5828b614dc0565b906155d0565b8181106113d757505094809661130561133d978451615923565b94606087019061133283835116888a8960a082019888808b5116935116815261014460205220549261520b565b9891829b919b6144d4565b98878101968751808c116113ba57508a156113a9579489969461138482958d9e9f95610cf39e958560806110519e9c61137961139f9b866155e8565b519201511692614ab8565b865161139461014e9182546143f9565b9055511694516143f9565b91511691806154ae565b885163f3e39b5d60e01b8152600490fd5b6044908c8b5191630b63f1a760e01b835260048301526024820152fd5b6044925084519163c39b739f60e01b835260048301526024820152fd5b8284611401366004613dd5565b9061140e95939295615029565b611416615837565b6114208133614a74565b83519061142e60a083613d81565b838252602080830197885233868401526001600160a01b03918216606084019081529382166080840190815261014f54875163fa91a9a560e01b815285516004820152995160248b0152604090940151831660448a01529351821660648901529251811660848801529195908690829060a4908290861634905af19485156114fd57946114ca575b50906106fd91610133541630903390614fe5565b919093508482813d83116114f6575b6114e38183613d81565b8101031261072d579051926106fd6114b6565b503d6114d9565b8451903d90823e3d90fd5b50503461064f578160031936011261064f5760209061013d549051908152f35b50503461064f5760c036600319011261064f57611543615144565b5061014f546001600160a01b03919082163303610cf757611565366004615567565b9161156e615144565b50611577615029565b61157f615837565b611587614814565b91611594828551166146c8565b916115b76115a284866144e1565b51946115ae8686614b78565b610149546151c8565b50506115c860208601948551615923565b9081156116f7578596606061160d970190828251169361160260a08b0195828c87808a51169151168652610145602052898620549261520b565b9891839b919b6143f9565b98878c0151808b106116da5750859161165f9161162b60018d6155e8565b519361163982610137613d65565b506116458682546143f9565b90556116556101319182546143f9565b9055610135613c30565b90549060031b1c1690813b156108f3578651632770a7eb60e21b815230600482015260248101919091529082908290604490829084905af18015611070576116c5575b5050968561105193838060808996610cf39b9c9d511695015116915116926154ae565b6116d0828092613d81565b6107a557806116a2565b6044908b8a51916354cde31360e01b835260048301526024820152fd5b825163f3e39b5d60e01b8152600490fd5b50503461064f578160031936011261064f5760209061018f544310159051908152f35b50503461064f578160031936011261064f5760ca54905160109190911c6001600160a01b03168152602090f35b8284346107a55760203660031901126107a5576004356001600160a01b038116919082900361072d57829181526101366020522060ff6001825492015416825191825215156020820152f35b50503461064f578160031936011261064f576020906117cd6117c7610b21614814565b906146aa565b61014a5410159051908152f35b50503461064f578160031936011261064f576101465490516001600160a01b039091168152602090f35b50503461064f5761042036600319011261064f57815460ff8160081c161590818092611d62575b8015611d4b575b15611cf05760ff198116600117845581611cdf575b5060ff835460081c16611859816149f2565b6103a4356001600160a01b0381169081900361072d576101f780546001600160a01b03191690911790556001600160a01b03610364359081169081900361072d57610384356001600160a01b038116810361072d576001916118ba846149f2565b6118c3846149f2565b6118cc846149f2565b6118d5846149f2565b6001600160601b0360a01b60975416176097556118f1836149f2565b60ca5490620100008360b01b039060101b169061ff018360b01b031916171760ca5561191c816149f2565b670de0b6b3a764000060c4351115611cce5761193a61010435615947565b61194661012435615947565b61195261014435615947565b61195e61016435615947565b61196a61018435615947565b6119766101a435615947565b6119826101c435615947565b61198e6101e435615947565b61199a61020435615947565b6119b26119ad61024435610224356144d4565b615947565b6004356001600160a01b03811690819003611cca5761014f80546001600160a01b03191690911790556024356001600160a01b038116810361072d5761012f80546001600160a01b0319166001600160a01b03928316179055604435908116810361072d5761013080546001600160a01b0319166001600160a01b03928316179055606435908116810361072d5761013380546001600160a01b0319166001600160a01b03928316179055608435908116810361072d5761014680546001600160a01b0319166001600160a01b0392831617905560a435908116810361072d5761014780546001600160a01b0319166001600160a01b0392831617905560c4356101495560e43561014a556101043561013b556101243561013c556101443561013d556101643561013e556101843561013f556101a435610140556101c435610141556101e43561014255610204356101435561022435610139556102443561013a556102643561014c81905590610284359081169081900361072d5761015880546001600160a01b03191690911790556102a435610159556102c43561015a819055906001600160a01b036102e4359081169081900361072d5761015280546001600160a01b03191690911790556001600160a01b03610304359081169081900361072d57610153906001600160601b0360a01b82541617905561032435610154554361015755430161014d55430161015b5561014b805461034435801515809103611cc65762ff00009060101b169062ffffff19161790556103c435611bf9826149f2565b8015611cb557610190819055430161018f556103e4356001600160a01b038116810361072d57611c2b611c4d926149f2565b6101c380546001600160a01b0319166001600160a01b03909216919091179055565b610404356001600160a01b0381169081900361072d5761022a80546001600160a01b0319169091179055611c7f575080f35b60207f7f26b83ff96e1f2b6a682f133852f6798a09c465da95921460cefb38474024989161ff001984541684555160018152a180f35b8351632a9ffab760e21b8152600490fd5b8680fd5b8480fd5b8251632a9ffab760e21b8152600490fd5b61ffff191661010117835538611847565b825162461bcd60e51b815260206004820152602e60248201527f496e697469616c697a61626c653a20636f6e747261637420697320616c72656160448201526d191e481a5b9a5d1a585b1a5e995960921b6064820152608490fd5b50303b1580156118325750600160ff821614611832565b50600160ff82161061182b565b50503461064f578160031936011261064f57602090611d8f610b21614814565b509051908152f35b50503461064f578160031936011261064f576101585490516001600160a01b039091168152602090f35b50503461064f578160031936011261064f576020906101f6549051908152f35b50503461064f578160031936011261064f5760209061014a549051908152f35b8284346107a55760c03660031901126107a55750611e1d615144565b5061014f546001600160a01b0390811633036111b757610cf3610ce991611e45366004615567565b93611e4e615144565b50611e57615029565b611e5f615837565b611e90610c898251637225da8960e11b6020820152611e81602482018961504b565b60c48152610c7e60e482613d81565b9488858793969599949a01918251611eac61014e9182546143f9565b905560a06111ac8b8360608601511695516143f9565b83346107a55760203660031901126107a5576004356001600160a01b0381169081900361072d57611ef16157a9565b61015380546001600160a01b031916909117905580f35b50503461064f578160031936011261064f57611f22615837565b60ca54601081901c6001600160a01b03163303611f8c5760ff811615611f7b5761ff0019166101001760ca55513381527f62e78cea01bee320cd4e420270b5ea74000d11b0c9f74754ebdbfc544b05a25890602090a180f35b815163866099c360e01b8152600490fd5b8151631d77d47760e21b8152600490fd5b50503461064f578160031936011261064f5760209061079e6117c7610b21614814565b50503461064f578160031936011261064f5760209061015a549051908152f35b50503461064f578160031936011261064f5760209061079e612002600161484e565b610d5d61200f8284614583565b9183614639565b50503461064f578160031936011261064f576101c35490516001600160a01b039091168152602090f35b50503461064f57602036600319011261064f57600435916101489081548410156107a5575060209261207191613c30565b91905490519160031b1c8152f35b83346107a55760203660031901126107a5576120996157a9565b6004356101495580f35b83346107a55760203660031901126107a5576120bd6157a9565b6004356101405580f35b50503461064f578160031936011261064f57602090610190549051908152f35b83346107a55760203660031901126107a5576121016157a9565b6004356101415580f35b50503461064f578160031936011261064f57602090610134549051908152f35b50503461064f578160031936011261064f57602090610142549051908152f35b905082612159366004613c72565b6121699895919792949398615029565b612171615837565b61217b8833614a74565b61218786519384613d81565b60018060a01b03809881809416855260209a868c870152888601528660608601523360808601521660a08401521660c0820152866121e260e48861014f54169387519485938492636b59c22f60e01b845260048401906150f4565b34905af19485156114fd5794612211575b5061220c906106fd939495610133541630903390614fe5565b614fbf565b909293508581813d831161223d575b61222a8183613d81565b8101031261072d5751929161220c6121f3565b503d612220565b83346107a55760203660031901126107a55761225e6157a9565b60043561013b5580f35b50503461064f578160031936011261064f57602090610156549051908152f35b50503461064f578160031936011261064f57602090610139549051908152f35b83346107a55760203660031901126107a5576122c26157a9565b6004356101545580f35b83346107a55760203660031901126107a5576004356001600160a01b0381169081900361072d576122fb6157a9565b61015880546001600160a01b031916909117905580f35b83346107a55760203660031901126107a55761232c6157a9565b60043561013e5580f35b50503461064f578160031936011261064f57602090610154549051908152f35b50503461064f578160031936011261064f57602090610149549051908152f35b83346107a557806003193601126107a55761238f6157a9565b600160ff1960ca54161760ca5580f35b50503461064f578160031936011261064f57602090611d8f614e68565b83346107a55760203660031901126107a5576123d66157a9565b6004356101595580f35b50503461064f578160031936011261064f5761012f5490516001600160a01b039091168152602090f35b8284612417366004613dd5565b949290612422615029565b61242a615837565b6124348133614a74565b83519161244260a084613d81565b8252602080830184815233868501526001600160a01b03928316606085019081529783166080850190815261014f54875163e97a4d6360e01b815286516004820152925160248401526040909501518416604483015297518316606482015296518216608488015295918691839160a4918391166106e2565b50503461064f578160031936011261064f576101335490516001600160a01b039091168152602090f35b83346107a557806003193601126107a55760346101f65580f35b50503461064f578160031936011261064f5760209061014e549051908152f35b50503461064f578160031936011261064f5760209060ff60ca5460081c1690519015158152f35b50503461064f578160031936011261064f57612560615837565b61014d805443106127305761014c54430190557fd3c59bda47e141a8ec5a33d241b7f71b86e30d359f83a9227d912858b60404fc8280a161013754826125a5826147e2565b91845b8181106126615750508061261c575b918051928184019084526020918285015282518091528160608501930191855b82811061260857867fae5116a8119d08673a0f1dfa7546b95da4bd54bb17feda7c61130ac7859152f687870388a180f35b8351855293810193928101926001016125d7565b612633670de0b6b3a7640000916101395490614606565b046101316126428282546143f9565b90556101465461265c9082906001600160a01b03166142a3565b6125b7565b61266a81614703565b6126748183614b78565b8661015091866126848585613c30565b90549060031b1c918383136126a1575b50505050506001016125a8565b946126e6838296996126ec946126e0856126d36126d96127039a60019e670de0b6b3a764000093849161013a54614606565b04614606565b04926144e1565b526144d4565b97613c30565b819391549060031b91821b91600019901b19161790565b905561272661271282876144e1565b5188848060a01b0361014754169184614ab8565b9086388681612694565b815163101b685960e01b8152600490fd5b8284346107a557816003193601126107a5576001600160a01b03600435818116810361072d576024359161014f54163303610ad45790610ad19161014e8281540390556142a3565b50503461064f578160031936011261064f57602090610157549051908152f35b50503461064f578160031936011261064f5760209061079e6101f654670de0b6b3a76400006101495404906144d4565b83346107a55760203660031901126107a5576127f36157a9565b6004356101435580f35b8284346107a557816003193601126107a5576001600160a01b03600435818116810361072d578161014f54163303610ad45790610ad191602435916101335416615770565b83346107a55760203660031901126107a5576004356001600160a01b038116810361072d57610ad190611c2b6157a9565b8284346107a557806003193601126107a557507f00000000000000000000000000000000000000000000000000000000000000006001600160a01b031630036128df57602090517f360894a13ba1a3210667c828492db98dca3e2076cc3735a920a3ca505d382bbc8152f35b5162461bcd60e51b815260206004820152603860248201527f555550535570677261646561626c653a206d757374206e6f742062652063616c60448201527f6c6564207468726f7567682064656c656761746563616c6c00000000000000006064820152608490fd5b83346107a557806003193601126107a5576129616157a9565b60ff1960ca541660ca5580f35b50508060031936011261064f57600435906001600160a01b0390818316830361072d5783926024359267ffffffffffffffff8411611cca5736602385011215611cca578360040135906129cc6129c383613db9565b94519485613d81565b8184523660248387010111612a5a57610ad195602083612a4d946024600199018389013786010152807f00000000000000000000000000000000000000000000000000000000000000001690612a2482301415613dfb565b7f360894a13ba1a3210667c828492db98dca3e2076cc3735a920a3ca505d382bbc541614613e5c565b612a556157a9565b613ebd565b8580fd5b50503461064f578160031936011261064f5760209061013b549051908152f35b50503461064f578160031936011261064f576101475490516001600160a01b039091168152602090f35b50503461064f578160031936011261064f5760209061014c549051908152f35b50503461064f57602036600319011261064f5760043561013780548210156109f55790612af491613d65565b50805460019091015482519182526001600160a01b03166020820152f35b8391503461064f573660031901126107a55750612b2d615144565b5061014f546001600160a01b0390811633036111b757610cf3610ce991612b553660046156fd565b93612b5e615144565b50612b67615029565b612b6f615837565b611179610c89825163d9b6c2e560e01b6020820152610c6e60248201896150f4565b8284346107a557816003193601126107a557506004356001600160a01b038181169182900361072d57602435918183169182840361072d57612c2792612bd5615837565b612bdf8533614a74565b612be830614459565b90865193632ab7831f60e01b602086015260248501523360448501526064840152608483015260848252612c1d60a483613d81565b6101f75416614a52565b9160208380518101031261072d576106fd60208094015180936142a3565b50503461064f578160031936011261064f5760209061013e549051908152f35b50503461064f578160031936011261064f5760209061079e612c90612c88614e68565b9190916144f5565b91614c5e565b50503461064f578160031936011261064f5760ca5460ff8160081c1615612d915760018060a01b03808260101c163314159081612d11575b50611f8c5760ff811615611f7b5761ff00191660ca55513381527f5db9ee0a495bf2e6ff9c91a7834c1ba4fdd244a5e8aa4e537bd38aeae4b073aa90602090a180f35b609754845163d994d6d560e01b8152336004820152925060209183916024918391165afa908115612d84578491612d4b575b501538612cce565b90506020813d8211612d7c575b81612d6560209383613d81565b810103126109f557612d76906142fa565b38612d43565b3d9150612d58565b50505051903d90823e3d90fd5b8151637c7fd07960e01b8152600490fd5b83346107a55760203660031901126107a5576004356001600160a01b0381169081900361064f57612dd16157a9565b61014f80546001600160a01b031916909117905580f35b83346107a55760203660031901126107a557612e026157a9565b6004356101905580f35b83833461064f5761010091826003193601126107a55750612e2b615144565b5061014f546001600160a01b039290831633036111b757612e4e82519182613d81565b600435838116810361072d578152602435838116810361072d5760208201526044358282015260643560608201526080810191608435835260a43590848216820361072d5760a0830191825260c435858116810361072d5760c084015260e43592858416840361072d5785610cf395612f0a610c896108cf610c7e8661139f9d610ce998019a8b52612ede615144565b50612ee7615029565b612eef615837565b88516370f090ed60e11b602082015292839160248301615090565b9892809b8a96939d9299865161139461014e9182546143f9565b50503461064f57602036600319011261064f57600435916101389081548410156107a5575060209261207191613c30565b50503461064f57602036600319011261064f57600435906001600160a01b0390818316830361072d57610ad192612fb78386947f00000000000000000000000000000000000000000000000000000000000000001690612a2482301415613dfb565b612fbf6157a9565b612fd4612fcb84613db9565b92519283613d81565b828252601f19612fe384613db9565b01366020840137613ebd565b8284612ffc366004613c72565b969461300c989193949298615029565b613014615837565b61301e8433614a74565b61302a86519283613d81565b60018060a01b039788808093169586855260209b868d870152888a87015260608601523360808601521660a08401521660c08201528761308760e48961014f5416938851948593849263e4e1b72960e01b845260048401906150f4565b34905af19586156130ed57956130ba575b506130b1906106fd949596610133541630903390614fe5565b30903390614fe5565b909394508681813d83116130e6575b6130d38183613d81565b8101031261072d575193926130b1613098565b503d6130c9565b8551903d90823e3d90fd5b50503461064f578160031936011261064f5761311261441c565b61311a615837565b61014b805460ff8116806131e5575b806131cb575b613137578380f35b61ff00191661010017905580519082907f8b77276c97a5709f0d6db52329848a254eb760ce8be80d281799f633bdb69e838280a1610133546001600160a01b0316803b156108f35783600481858094638456cb5960e01b83525af19081156131c057506131b0575b50506131a9615858565b3880808380f35b6131b991613d81565b388161319f565b51913d9150823e3d90fd5b506131da6117c7610b21614814565b61014a54101561312f565b5060ff8160081c1615613129565b50503461064f578160031936011261064f5760209061013f549051908152f35b83838260031936011261064f576001600160a01b0392600435848116908190036109f55760243590858216809203611cca57604435916084359360a43597808916988981036133465760c43590828216809203613342579061328b6132e69594939261327d615029565b613285615837565b33614a74565b88519261329a61010085613d81565b86845260209b8c9586860152888b86015260643560608601528960808601523360a086015260c085015283015261014f5416875180809581946334975a4160e01b835260048301615090565b039134905af19586156130ed57809661330e575b50506106fd929161220c9130903390614fe5565b909195508682813d831161333b575b6133278183613d81565b810103126107a5575051938161220c6132fa565b503d61331d565b8980fd5b8880fd5b8284613357366004613cf3565b9161336496949196615029565b61336c615837565b6133768733614a74565b6133da60c486519361338960c086613d81565b60018060a01b0380809216968787528160209c8d978b898b01528c8a01523360608a01521660808801521660a086015261014f54169387519485938492636426c5db60e11b8452600484019061504b565b34905af19485156114fd5780956133fc575b5050906106fd9130903390614fe5565b909194508582813d8311613429575b6134158183613d81565b810103126107a5575051926106fd866133ec565b503d61340b565b50503461064f578160031936011261064f57602090610143549051908152f35b83346107a55760203660031901126107a5576004356001600160a01b038116810361064f5761347d6157a9565b60ca805462010000600160b01b03191660109290921b62010000600160b01b031691909117905580f35b83346107a55760203660031901126107a5576134c16157a9565b60043561014a5580f35b50503461064f578160031936011261064f57602090610140549051908152f35b83346107a55760203660031901126107a5576004356001600160a01b0381169081900361064f5761351a6157a9565b61014780546001600160a01b031916909117905580f35b50503461064f578160031936011261064f5761022a5490516001600160a01b039091168152602090f35b50503461064f57602036600319011261064f576004356001600160a01b038116908190036108f35782829160209452610144845220549051908152f35b50503461064f578160031936011261064f5760209060ff61014b5460081c1690519015158152f35b50503461064f5760a036600319011261064f576135db615144565b5061014f546001600160a01b039290831633036111b7579061366c9161360236600461516b565b9161360b615144565b50613614615029565b61361c615837565b670de0b6b3a764000061363f610f7d6136366115ae614814565b87519291614c2a565b04948184019080825116916136616080870193898486511661013c549261520b565b96918a9991996144d4565b9660208101998a51808a116137955750881561378457816020918660606136ef96955193015116906101346136a28482546144d4565b90556136b26101319182546144d4565b90556101335489516340c10f1960e01b81526001600160a01b03909216600483015260248201929092529384918716908290859082906044820190565b03925af1801561377857613722575b505096611051928261139f888895610cf39a9b9c865161139461014e9182546143f9565b6020823d8211613770575b8161373a60209383613d81565b810103126107a55750928261139f888895610cf39a9b9c9561375e611051996142fa565b50959c9b5095509850508194506136fe565b3d915061372d565b508551903d90823e3d90fd5b865163f3e39b5d60e01b8152600490fd5b6044908a895191630b63f1a760e01b835260048301526024820152fd5b83346107a55760203660031901126107a5576137cc6157a9565b6004356101425580f35b83346107a55760203660031901126107a55760043580151580910361064f576137fd6157a9565b61014b9060ff8019835416911617905580f35b50503461064f578160031936011261064f5760209061079e613833610b21614814565b90614c2a565b50503461064f578160031936011261064f5760209061014d549051908152f35b838360e46138ef61386b366004613c72565b9461387b9a94969297919a615029565b613883615837565b61388d8b33614a74565b61389989519586613d81565b60018060a01b0380809216968787528160209d8e978b898b01528d8a01528b60608a01523360808a01521660a08801521660c086015261014f541693885194859384926263744760e11b845260048401906150f4565b34905af19586156130ed57809661330e5750506106fd929161220c9130903390614fe5565b50503461064f578160031936011261064f5761014f5490516001600160a01b039091168152602090f35b83346107a55760203660031901126107a5576004356001600160a01b0381169081900361064f5761396d6157a9565b61013080546001600160a01b031916909117905580f35b83346107a55760203660031901126107a55761399e6157a9565b60043561013f5580f35b50503461064f578160031936011261064f57602090610159549051908152f35b83346107a55760203660031901126107a5576004356001600160a01b0381169081900361064f576139f76157a9565b61014680546001600160a01b031916909117905580f35b50503461064f578160031936011261064f5760209061018f549051908152f35b50503461064f578160031936011261064f5760975490516001600160a01b039091168152602090f35b83346107a55760203660031901126107a55760043580151580910361064f57613a7e6157a9565b61014b9062ff000082549160101b169062ff0000191617905580f35b83346107a55760203660031901126107a557613ab46157a9565b60043561015a5580f35b50503461064f578160031936011261064f578051630716487960e01b602082015260048152613af2906108dd602482613d81565b916020838051810103126107a5575061079e602080930151670de0b6b3a76400006101495404906144d4565b50503461064f578160031936011261064f57613b38615837565b61015b80544310613bb457610ad19160209161015a5443019055613ba06101319182547f0e37fda283839477a1b77e29acf8336c0e13a5daa967913df0fe5ad258c0822f670de0b6b3a7640000613b926101595484614606565b0495869351848152a16143f9565b9055610158546001600160a01b03166142a3565b815163acce20e560e01b8152600490fd5b50503461064f57602036600319011261064f57600435916101359081548410156107a55750602092613bf691613c30565b905491519160018060a01b039160031b1c168152f35b83346107a55760203660031901126107a557613c266157a9565b60043561013a5580f35b8054821015613c485760005260206000200190600090565b634e487b7160e01b600052603260045260246000fd5b35906001600160a01b038216820361072d57565b91908260c091031261072d57613c8782613c5e565b91602081013591604082013591606081013591613cb260a0613cab60808501613c5e565b9301613c5e565b90565b604090613cf1939594929560c0820196825260208201520190606080918051845260208101516020850152604081015160408501520151910152565b565b908160a091031261072d57613d0781613c5e565b91602082013591604081013591613cb26080613cab60608501613c5e565b613cf19360609296959360e08301978352602083015260408201520190606080918051845260208101516020850152604081015160408501520151910152565b8054821015613c485760005260206000209060011b0190600090565b90601f8019910116810190811067ffffffffffffffff821117613da357604052565b634e487b7160e01b600052604160045260246000fd5b67ffffffffffffffff8111613da357601f01601f191660200190565b919082608091031261072d57813591602081013591613cb26060613cab60408501613c5e565b15613e0257565b60405162461bcd60e51b815260206004820152602c60248201527f46756e6374696f6e206d7573742062652063616c6c6564207468726f7567682060448201526b19195b1959d85d1958d85b1b60a21b6064820152608490fd5b15613e6357565b60405162461bcd60e51b815260206004820152602c60248201527f46756e6374696f6e206d7573742062652063616c6c6564207468726f7567682060448201526b6163746976652070726f787960a01b6064820152608490fd5b9060ff7f4910fdfa16fed3260ed0e7147f7cc6da11a60208b5b9406d12a635614ffd91435416600014613ef55750613cf191506140a9565b6040516352d1902d60e01b8152602093919291906001600160a01b038316908581600481855afa6000918161407a575b50613f865760405162461bcd60e51b815260048101879052602e60248201527f45524331393637557067726164653a206e657720696d706c656d656e7461746960448201526d6f6e206973206e6f74205555505360901b6064820152608490fd5b9394937fc9f76b5ec45e5cdef99837d7b6d2467235c1df8933c8ca56df5c35afa2c7d4440161402357613fb8836140a9565b7fbc7cd75a20ee27fd9adebab32041f755214dbc6bffa90cc0225b39da2e5c2d3b600080a28351159081159161401b575b50613ff357505050565b6000806140189461400261414b565b9481519101845af461401261419f565b916141cf565b50565b905038613fe9565b60405162461bcd60e51b815260048101859052602960248201527f45524331393637557067726164653a20756e737570706f727465642070726f786044820152681a58589b195555525160ba1b6064820152608490fd5b90918782813d83116140a2575b6140918183613d81565b810103126107a55750519038613f25565b503d614087565b803b156140f0577f360894a13ba1a3210667c828492db98dca3e2076cc3735a920a3ca505d382bbc80546001600160a01b0319166001600160a01b03909216919091179055565b60405162461bcd60e51b815260206004820152602d60248201527f455243313936373a206e657720696d706c656d656e746174696f6e206973206e60448201526c1bdd08184818dbdb9d1c9858dd609a1b6064820152608490fd5b6141556027613db9565b906141636040519283613d81565b60278252660819985a5b195960ca1b6040837f416464726573733a206c6f772d6c6576656c2064656c65676174652063616c6c60208201520152565b3d156141ca573d906141b082613db9565b916141be6040519384613d81565b82523d6000602084013e565b606090565b9192901561423157508151156141e3575090565b3b156141ec5790565b60405162461bcd60e51b815260206004820152601d60248201527f416464726573733a2063616c6c20746f206e6f6e2d636f6e74726163740000006044820152606490fd5b8251909150156142445750805190602001fd5b6040519062461bcd60e51b82528160208060048301528251908160248401526000935b82851061428a575050604492506000838284010152601f80199101168101030190fd5b8481018201518686016044015293810193859350614267565b90806142ad575050565b61022a5460405163a9059cbb60e01b60208201526001600160a01b0393841660248201526044810192909252613cf192166142f582606481015b03601f198101845283613d81565b614307565b5190811515820361072d57565b60209161436a916001600160a01b031660008061432386613db9565b936143316040519586613d81565b8685527f5361666545524332303a206c6f772d6c6576656c2063616c6c206661696c656487860152868151910182855af161401261419f565b80518281159182156143da575b50509050156143835750565b6084906040519062461bcd60e51b82526004820152602a60248201527f5361666545524332303a204552433230206f7065726174696f6e20646964206e6044820152691bdd081cdd58d8d9595960b21b6064820152fd5b838092935001031261072d57816143f191016142fa565b808238614377565b9190820391821161440657565b634e487b7160e01b600052601160045260246000fd5b61442530614459565b61013190614442614438835480936143f9565b61014e54906143f9565b8061444c57505050565b614455916144d4565b9055565b61022a546040516370a0823160e01b81526001600160a01b0392831660048201529160209183916024918391165afa9081156144c85760009161449a575090565b906020823d82116144c0575b816144b360209383613d81565b810103126107a557505190565b3d91506144a6565b6040513d6000823e3d90fd5b9190820180921161440657565b8051821015613c485760209160051b010190565b906000916000906101378054906000925b82841061452c5750505050614528670de0b6b3a7640000916101395490614606565b0490565b909192939561457961456861457360019361456d61454a8a886144e1565b51614555818c61459f565b95906145618d8c613d65565b50546144d4565b615923565b906144d4565b986144d4565b9401929190614506565b9190916000838201938412911290801582169115161761440657565b91906000906145cd816000956145c36145ba82610150613c30565b93905492614652565b9160031b1c614583565b600081136145dc575b50509190565b6145fe9194506126d392508094670de0b6b3a764000093849161013a54614606565b0438806145d6565b8181029291811591840414171561440657565b8115614623570490565b634e487b7160e01b600052601260045260246000fd5b8181039291600013801582851316918412161761440657565b61465e81610137613d65565b505490670de0b6b3a76400009182810292818404149015171561440657613cb29261469e6146916146a493610151613c30565b90549060031b1c84614619565b92614619565b90614639565b80156146c057614568613cb292610131546143f9565b505060001990565b6001600160a01b0316600090815261013660205260409020600181015460ff16156146f1575490565b60405163e6c4247b60e01b8152600490fd5b61470f90610137613d65565b50600101546001600160a01b031661472681614764565b91909115614732575090565b60249060405190637f6e4db960e01b82526004820152fd5b919082604091031261072d57613cb26020835193016142fa565b604080516359e02dd760e01b81529291839060049082906001600160a01b03165afa9182156144c857600090819361479b57509190565b90506147bf91925060403d81116147c3575b6147b78183613d81565b81019061474a565b9091565b503d6147ad565b67ffffffffffffffff8111613da35760051b60200190565b906147ec826147ca565b6147f96040519182613d81565b828152809261480a601f19916147ca565b0190602036910137565b6101375490614822826147e2565b9160005b818110614831575050565b8061483d600192614703565b61484782876144e1565b5201614826565b9061486f670de0b6b3a7640000928361015754610154549243010302614619565b8281101561488c5782039180836101555402049261015654020590565b50600091508190565b909161489f6148f7565b9290808210156148ed5783916148b4916143f9565b9311156148e857818110156148e0576148cc916143f9565b60011c808210156148db575090565b905090565b505050600090565b505090565b5050505050600090565b61015254604080516359e02dd760e01b80825293929091906001600160a01b039081168284600481845afa80156149e75760009485916149c4575b50156149ad575061015354169080519485528085600481855afa80156149a257600095869161497f575b50156149685750509190565b6024925051906305e8989360e11b82526004820152fd5b9050816149999296503d87116147c3576147b78183613d81565b9490943861495c565b50513d6000823e3d90fd5b6024908351906305e8989360e11b82526004820152fd5b90506149de919450833d85116147c3576147b78183613d81565b93909338614932565b83513d6000823e3d90fd5b156149f957565b60405162461bcd60e51b815260206004820152602b60248201527f496e697469616c697a61626c653a20636f6e7472616374206973206e6f74206960448201526a6e697469616c697a696e6760a81b6064820152608490fd5b90613cb291600080614a6261414b565b93602081519101845af461401261419f565b60ff61014b5460101c16159182614aa0575b5050614a8e57565b604051636f97b88360e01b8152600490fd5b6001600160a01b039182169116141590503880614a86565b614b2693614aed600092602095614ad182610137613d65565b50614add8782546144d4565b90556116556101319182546144d4565b90546040516340c10f1960e01b81526001600160a01b039093166004840152602483019490945290948593928492909183906044820190565b039360039190911b1c6001600160a01b03165af180156144c857614b475750565b6020813d8211614b70575b81614b5f60209383613d81565b8101031261072d57614018906142fa565b3d9150614b52565b6126ec61445591614b898482614652565b614bbf614b9883610150613c30565b614bab8294925492838360031b1c614583565b919060031b91821b91600019901b19161790565b9055610151613c30565b60e08101929160c09081906001600160a01b0380614be683613c5e565b168552614bf560208301613c5e565b16602085015260408101356040850152606081013560608501526080810135608085015260a081013560a08501520135910152565b9061013454908115614c4f57613cb292614c4a61456892610131546143f9565b6143f9565b505050670de0b6b3a764000090565b8282614c6992614c86565b9060008213156148e057613cb292614c8091614c2a565b90614619565b9091614c9590610131546143f9565b90670de0b6b3a76400009182810292818404149015171561440657613cb2926146a491614606565b92614ccb9293949194614c86565b81810291600091600160ff1b9183821283821416614d6f578185051490151715614d5b57670de0b6b3a763ffff198401938411614d5b57670de0b6b3a764000093848102948186041490151715614d5b578315614d47578214600019841416614d3357500590565b634e487b7160e01b81526011600452602490fd5b634e487b7160e01b82526012600452602482fd5b634e487b7160e01b82526011600452602482fd5b634e487b7160e01b84526011600452602484fd5b61014d5480431015614d9a57613cb29043906143f9565b50600090565b90604051614daf604082613d81565b602060018294805484520154910152565b614dcc81610148613c30565b90549060031b1c9161018e91614de28184613d65565b50549261018f54431015614e0d575b5050808210156148e857614e0890613cb293614606565b614619565b829350614e21614e2c9392614e2792613d65565b50614da0565b614e34565b903880614df1565b602081519101805192670de0b6b3a76400009384039084821161440657614e6161456d9261452895614606565b9251614606565b60008061013791825492614e7b846147e2565b9382915b818310614ea8575050508115614e9c5790614e9991614619565b91565b50506101495460011b91565b90919392614eb585614703565b9081614ec187896144e1565b52614eda614ecf838861459f565b506145618886613d65565b670de0b6b3a76400009081810291818304149015171561440657614f1c614f229261456d85614f0e600197614f1796615923565b9485918c614dc0565b614606565b956144d4565b94019190614e7f565b61018f8054431015614f3a5750565b6101375460005b818110614f545750506101905443019055565b80807f19156e9379c7bbbce8f646ce5ee30ba860b8f954717405f3d5859a6c1a21ae6060019361018e614f8a614e218383613d65565b90614fa8614fa0614f9a85614703565b84614e34565b938492613d65565b50555160409182519182526020820152a201614f41565b613cf19061014e614fd18282546144d4565b905561022a54309033906001600160a01b03165b6040516323b872dd60e01b60208201526001600160a01b039283166024820152929091166044830152606480830193909352918152613cf1916142f5608483613d81565b60ff61014b5460081c1661503957565b604051631ca61d7760e01b8152600490fd5b60a09081600180821b03918281511685526020810151602086015260408101516040860152826060820151166060860152826080820151166080860152015116910152565b91909160e06101008201938160018060a01b03918281511685528260208201511660208601526040810151604086015260608101516060860152608081015160808601528260a08201511660a08601528260c08201511660c0860152015116910152565b60c0908160018060a01b03918281511685526020810151602086015260408101516040860152606081015160608601528260808201511660808601528260a08201511660a0860152015116910152565b60405190615153608083613d81565b60006060838281528260208201528260408201520152565b91908260a091031261072d5760405161518560a082613d81565b60806151c381839580358552602081013560208601526151a760408201613c5e565b60408601526151b860608201613c5e565b606086015201613c5e565b910152565b91906151d3906144f5565b9190926151e083856146aa565b90808211156151ed575050565b6044925060405191637912120160e01b835260048301526024820152fd5b92909391600091600091829661521f615144565b966001600160a01b0391859083168061542b575b508261012f54168360405193636eb1769f60e11b8552168060048501523060248501526020948585604481865afa9485156154205784956153f1575b50846152d0575b50505050508601511561528c575b505050929190565b909192506152a4670de0b6b3a7640000928392614606565b048085529082156152c8576152c09204908160408601526144d4565b388080615284565b5090506152c0565b6152de906101305416614764565b9290921561527657909192939b50848b61531885670de0b6b3a76400006153126153088d8d614606565b6101435490614606565b04614619565b81830181815295908b156153e75750615343916153376060928d614619565b918291015285516144d4565b809d5b10928315615372575b50505061535f575b808080615276565b8192995052806060880152963880615357565b909192506024604051809481936370a0823160e01b835260048301525afa9081156153dc57908b9184916153ab575b501038848161534f565b809250858092503d83116153d5575b6153c48183613d81565b810103126108f3578a9051386153a1565b503d6153ba565b6040513d85823e3d90fd5b915050809d615346565b9094508581813d8311615419575b6154098183613d81565b810103126109f55751933861526f565b503d6153ff565b6040513d86823e3d90fd5b9095506020836101c35416916024604051809481936364a731e960e01b835260048301525afa80156154a3578690615470575b615469915084614606565b9438615233565b506020813d821161549b575b8161548960209383613d81565b81010312612a5a57615469905161545e565b3d915061547c565b6040513d88823e3d90fd5b92613cf1949192938251151560001461551e5750604061551992615511670de0b6b3a76400006154e361013b54845190614606565b046101316154f28282546144d4565b905561550b60018060a01b0361014654169184516143f9565b906142a3565b0151906142a3565b6142a3565b9060606155199361554060018060a01b03610146541660208301519086615544565b0151915b91908161555057505050565b61012f54613cf193906001600160a01b0316614fe5565b91908260c091031261072d5760405161558160c082613d81565b60a06151c381839561559281613c5e565b855260208101356020860152604081013560408601526155b460608201613c5e565b60608601526155c560808201613c5e565b608086015201613c5e565b906155dd94939291614cbd565b60008112614d9a5790565b806155f16148f7565b9190936155fe600061484e565b9401938291615696575b019384600080821261569057505b84039181851161565857505081811161563a57505061015555610156554361015755565b60449250604051916306da41e560e11b835260048301526024820152fd5b908085921161567e57604491604051916306da41e560e11b835260048301526024820152fd5b604051630fb4fd3560e11b8152600490fd5b03615616565b90508160000390615608565b80910360e0811261072d578151926020830151926080604082015193605f19011261072d5760c0604051916156d8608084613d81565b606081015183526080810151602084015260a081015160408401520151606082015290565b91908260e091031261072d5760405161571760e082613d81565b60c06151c381839561572881613c5e565b855260208101356020860152604081013560408601526060810135606086015261575460808201613c5e565b608086015261576560a08201613c5e565b60a086015201613c5e565b60405163a9059cbb60e01b60208201526001600160a01b0390921660248301526044820192909252613cf1916142f582606481016142e7565b60975460405163d994d6d560e01b815233600482015290602090829060249082906001600160a01b03165afa9081156144c8576000916157fe575b50156157ec57565b604051631dd1b1b560e21b8152600490fd5b906020823d821161582f575b8161581760209383613d81565b810103126107a55750615829906142fa565b386157e4565b3d915061580a565b60ff60ca5460081c1661584657565b60405163783bb6c960e11b8152600490fd5b6101315480156140185761013790815491600090615875846147e2565b9082905b8582106158df57505060005b848110615893575050505050565b6158ab84614e08856158a585876144e1565b51614606565b9061013891825468010000000000000000811015613da3576126ec81600195866158d794018155613c30565b905501615885565b909261591b6001916158f086614703565b6158fa87876144e1565b5261456d6159088786613d65565b505461591488886144e1565b5190615923565b930190615879565b90670de0b6b3a76400009182810292818404149015171561440657613cb291614619565b670de0b6b3a7640000111561595857565b604051632a9ffab760e21b8152600490fdfea264697066735822122097d196e00633c90652e51532203ae7c401da30a4961effb1cb9ea93df3d9951e64736f6c63430008140033",
  "linkReferences": {},
  "deployedLinkReferences": {},
  "devdoc": {
    "details": "Only for upgradeability testing purposes. Extends MocCARC20Mock adding a new variable.",
    "events": {
      "AdminChanged(address,address)": {
        "details": "Emitted when the admin account has changed."
      },
      "BeaconUpgraded(address)": {
        "details": "Emitted when the beacon is changed."
      },
      "Initialized(uint8)": {
        "details": "Triggered when the contract has been initialized or reinitialized."
      },
      "Upgraded(address)": {
        "details": "Emitted when the implementation is upgraded."
      }
    },
    "kind": "dev",
    "methods": {
      "addPeggedToken((address,address,uint256,uint256,uint256,uint256,uint256))": {
        "details": "Note that the ema value, should consider `nextEmaCalculation`  This function is implemented in MocCoreExpansion but with this contract contexttpTokenAddress Pegged Token contract address to add      priceProviderAddress Pegged Token price provider contract address      tpCtarg Pegged Token target coverage [PREC]      tpMintFee additional fee pct applied on mint [PREC]      tpRedeemFee additional fee pct applied on redeem [PREC]      tpEma initial Pegged Token exponential moving average [PREC]      tpEmaSf Pegged Token smoothing factor [PREC]  Requirements: - the caller must have governance authorization. - tpTokenAddress must be a MocRC20, with mint, burn roles already settled  for this contract",
        "params": {
          "peggedTokenParams_": "params of Pegged Token to add"
        }
      },
      "calcCtargemaCA()": {
        "details": "qAC = nTP / pACtp      ctargemaCA = (ctargemaTP * qAC) / (qAC)",
        "returns": {
          "ctargemaCA": "[PREC]"
        }
      },
      "changeGovernor(address)": {
        "params": {
          "newGovernor_": "New governor address"
        }
      },
      "editPeggedToken((address,address,uint256,uint256,uint256,uint256,uint256))": {
        "details": "Note that the ema value, should consider `nextEmaCalculation`  This function is implemented in MocCoreExpansion but with this contract contexttpTokenAddress Pegged Token contract address to identify the token to edit      priceProviderAddress Pegged Token price provider contract address      tpCtarg Pegged Token target coverage [PREC]      tpMintFee additional fee pct applied on mint [PREC]      tpRedeemFee additional fee pct applied on redeem [PREC]      tpEma initial Pegged Token exponential moving average [PREC]      tpEmaSf Pegged Token smoothing factor [PREC]  Requirements: - the caller must have governance authorization. - the tpTokenAddress must exists",
        "params": {
          "peggedTokenParams_": "params of Pegged Token to add"
        }
      },
      "getCglb()": {
        "returns": {
          "cglob": "[PREC]"
        }
      },
      "getLckAC()": {
        "returns": {
          "lckAC": "[PREC]"
        }
      },
      "getLeverageTC()": {
        "returns": {
          "leverageTC": "[PREC]"
        }
      },
      "getPACtp(address)": {
        "params": {
          "tp_": "Pegged Token address"
        },
        "returns": {
          "_0": "price [PREC]"
        }
      },
      "getPTCac()": {
        "returns": {
          "pTCac": "[PREC]"
        }
      },
      "getTCAvailableToRedeem()": {
        "details": "because it is a view function we are not calculating the new ema,  since we are using the last ema calculation, this may differ a little from the real amount  of TC available to redeem. Consider it an approximation.",
        "returns": {
          "tcAvailableToRedeem": "[N]"
        }
      },
      "getTPAvailableToMint(address)": {
        "details": "because it is a view function we are not calculating the new ema,  since we are using the last ema calculation, this may differ a little from the real amount  of TP available to mint. Consider it an approximation.",
        "params": {
          "tp_": "Pegged Token address"
        },
        "returns": {
          "tpAvailableToMint": "[N]"
        }
      },
      "getTotalACavailable()": {
        "returns": {
          "totalACavailable": "[N]"
        }
      },
      "initialize((((address,address,address,address,address,address,uint256,uint256,uint256,uint256,uint256,uint256,uint256,uint256,uint256,uint256,uint256,uint256,uint256,uint256,address,uint256,uint256,address,address,uint256,bool),address,address,address,uint256,address),address))": {
        "details": "governorAddress The address that will define when a change contract is authorized      pauserAddress The address that is authorized to pause this contract      acTokenAddress Collateral Asset Token contract address      tcTokenAddress Collateral Token contract address      mocFeeFlowAddress Moc Fee Flow contract address      mocAppreciationBeneficiaryAddress Moc appreciation beneficiary address      protThrld protected state threshold [PREC]      liqThrld liquidation coverage threshold [PREC]      feeRetainer pct retain on fees to be re-injected as Collateral, while paying fees with AC [PREC]      tcMintFee additional fee pct applied on mint Collateral Tokens operations [PREC]      tcRedeemFee additional fee pct applied on redeem Collateral Tokens operations [PREC]      successFee pct of the gain because Pegged Tokens devaluation that is transferred        in Collateral Asset to Moc Fee Flow during the settlement [PREC]      appreciationFactor pct of the gain because Pegged Tokens devaluation that is returned        in Pegged Tokens to appreciation beneficiary during the settlement [PREC]      bes number of blocks between settlements      tcInterestCollectorAddress TC interest collector address      tcInterestRate pct interest charged to TC holders on the total collateral in the protocol [PREC]      tcInterestPaymentBlockSpan amount of blocks to wait for next TC interest payment      maxAbsoluteOpProviderAddress max absolute operation provider address      maxOpDiffProviderAddress max operation difference provider address      decayBlockSpan number of blocks that have to elapse for the linear decay factor to be 0      emaCalculationBlockSpan amount of blocks to wait between Pegged ema calculation      mocVendors address for MocVendors contract      mocQueueAddress address for MocQueue contract",
        "params": {
          "initializeParams_": "contract initializer params"
        }
      },
      "isLiquidationReached()": {
        "returns": {
          "_0": "true if liquidation state is reached, false otherwise"
        }
      },
      "liqRedeemTP(address,address)": {
        "params": {
          "recipient_": "address who receives the AC",
          "tp_": "Pegged Token address"
        },
        "returns": {
          "qACRedeemed": "amount of AC sent to `recipient_`"
        }
      },
      "makeStoppable()": {
        "details": "Should be called through governance"
      },
      "makeUnstoppable()": {
        "details": "Should be called through governance"
      },
      "maxQACToMintTP()": {
        "returns": {
          "maxQAC": "minimum regarding maxAbsoluteOperation and maxOperationalDifference"
        }
      },
      "maxQACToRedeemTP()": {
        "returns": {
          "maxQAC": "minimum regarding maxAbsoluteOperation and maxOperationalDifference"
        }
      },
      "mintTC(uint256,uint256,address,address)": {
        "params": {
          "qACmax_": "maximum amount of Collateral Asset that can be spent",
          "qTC_": "amount of Collateral Token to mint",
          "recipient_": "address who receives the Collateral Token",
          "vendor_": "address who receives a markup, `0x0` if not using a vendor, `0x0` if not using a vendor"
        },
        "returns": {
          "operId": "Identifier to track the Operation lifecycle"
        }
      },
      "mintTCandTP(address,uint256,uint256,address,address)": {
        "params": {
          "qACmax_": "maximum amount of Collateral Asset that can be spent",
          "qTP_": "amount of Pegged Token to mint",
          "recipient_": "address who receives the Collateral Token and Pegged Token",
          "tp_": "Pegged Token address",
          "vendor_": "address who receives a markup, `0x0` if not using a vendor"
        },
        "returns": {
          "operId": "Identifier to track the Operation lifecycle"
        }
      },
      "mintTP(address,uint256,uint256,address,address)": {
        "params": {
          "qACmax_": "maximum amount of Collateral Asset that can be spent",
          "qTP_": "amount of Pegged Token to mint",
          "recipient_": "address who receives the Pegged Token",
          "tp_": "Pegged Token address to mint",
          "vendor_": "address who receives a markup, `0x0` if not using a vendor"
        },
        "returns": {
          "operId": "Identifier to track the Operation lifecycle"
        }
      },
      "pause()": {
        "details": "Should only be called by the pauser and when it is stoppable"
      },
      "proxiableUUID()": {
        "details": "Implementation of the ERC1822 {proxiableUUID} function. This returns the storage slot used by the implementation. It is used to validate the implementation's compatibility when performing an upgrade. IMPORTANT: A proxy pointing at a proxiable contract should not be considered proxiable itself, because this risks bricking a proxy that upgrades to it, by delegating to itself until out of gas. Thus it is critical that this function revert if invoked through a proxy. This is guaranteed by the `notDelegated` modifier."
      },
      "redeemTC(uint256,uint256,address,address)": {
        "params": {
          "qACmin_": "minimum amount of Collateral Asset that `recipient_` expects to receive",
          "qTC_": "amount of Collateral Token to redeem",
          "recipient_": "address who receives the Collateral Asset",
          "vendor_": "address who receives a markup, `0x0` if not using a vendor"
        },
        "returns": {
          "operId": "Identifier to track the Operation lifecycle"
        }
      },
      "redeemTCandTP(address,uint256,uint256,uint256,address,address)": {
        "params": {
          "qACmin_": "Minimum amount of Collateral Asset that `recipient_` expects to receive",
          "qTC_": "Maximum amount of Collateral Token to redeem",
          "qTP_": "Maximum amount of Pegged Token to redeem",
          "recipient_": "Address who receives the Collateral Asset",
          "tp_": "Pegged Token address",
          "vendor_": "address who receives a markup, `0x0` if not using a vendor"
        },
        "returns": {
          "operId": "Identifier to track the Operation lifecycle"
        }
      },
      "redeemTP(address,uint256,uint256,address,address)": {
        "params": {
          "qACmin_": "minimum amount of Collateral Asset that `recipient_` expects to receive",
          "qTP_": "amount of Pegged Token to redeem",
          "recipient_": "address who receives the Collateral Asset",
          "tp_": "Pegged Token address to redeem",
          "vendor_": "address who receives a markup, `0x0` if not using a vendor"
        },
        "returns": {
          "operId": "Identifier to track the Operation lifecycle"
        }
      },
      "refreshACBalance()": {
        "details": "Intended to be use as notification after an RC20 AC transfer to this contract"
      },
      "setAllowDifferentRecipient(bool)": {
        "details": "sets allowDifferentRecipient param",
        "params": {
          "allowDifferentRecipient_": "allows users operate using another address as the recipient of the tokens"
        }
      },
      "setAppreciationFactor(uint256)": {
        "details": "sets appreciation Factor value.",
        "params": {
          "appreciationFactor_": "pct of the gain because Pegged Tokens devaluation that is returned in Pegged Tokens to appreciation beneficiary during the settlement [PREC]"
        }
      },
      "setBes(uint256)": {
        "details": "bns is not automatically updated, you have to wait until next settlement to be made : bns = block.number + bes*",
        "params": {
          "bes_": "number of blocks between settlements"
        }
      },
      "setDecayBlockSpan(uint256)": {
        "details": "sets flux capacitor decay block span",
        "params": {
          "decayBlockSpan_": "flux capacitor decay block span"
        }
      },
      "setEmaCalculationBlockSpan(uint256)": {
        "details": "nextEmaCalculation is not automatically updated, you have to wait until next  EMA calculation to be made : nextEmaCalculation = block.number + emaCalculationBlockSpan*",
        "params": {
          "blockSpan_": "Defines how many blocks should pass between EMA calculations"
        }
      },
      "setFeeRetainer(uint256)": {
        "details": "sets the fee pct to be retainer on AC fees payments as AC re-injection.",
        "params": {
          "feeRetainer_": "pct retain on fees to be re-injected as Collateral, while paying fees with AC [PREC] 0% = 0; 1% = 10 ** 16; 100% = 10 ** 18"
        }
      },
      "setFeeTokenAddress(address)": {
        "details": "sets Fee Token contract address",
        "params": {
          "mocFeeTokenAddress_": "Fee Token new contract address"
        }
      },
      "setFeeTokenPct(uint256)": {
        "details": "sets the fee applied on the top of the operation`s fee when using Fee Token as fee payment method.",
        "params": {
          "feeTokenPct_": "pct applied on the top of the operation`s fee when using Fee Token  as fee payment method [PREC]  e.g. if tcMintFee = 1%, FeeTokenPct = 50% => qFeeToken = 0.5%  0% = 0; 1% = 10 ** 16; 100% = 10 ** 18"
        }
      },
      "setFeeTokenPriceProviderAddress(address)": {
        "details": "sets Fee Token price provider contract address",
        "params": {
          "mocFeeTokenPriceProviderAddress_": "Fee Token price provider new contract address"
        }
      },
      "setLiqEnabled(bool)": {
        "details": "enables and disables the liquidation mechanism.",
        "params": {
          "liqEnabled_": "is liquidation enabled"
        }
      },
      "setLiqThrld(uint256)": {
        "details": "sets the value of the liq threshold configuration param",
        "params": {
          "liqThrld_": "liquidation threshold"
        }
      },
      "setMaxAbsoluteOpProviderAddress(address)": {
        "details": "sets max absolute operation provider address",
        "params": {
          "maxAbsoluteOpProviderAddress_": "max absolute operation provider address"
        }
      },
      "setMaxOpDiffProviderAddress(address)": {
        "details": "sets max operation difference provider address",
        "params": {
          "maxOpDiffProviderAddress_": "max operation difference provider address"
        }
      },
      "setMintTCandTPFee(uint256)": {
        "details": "sets the fee charged when mint Collateral Token and Pegged Token in one operation.",
        "params": {
          "mintTCandTPFee_": "additional fee pct applied on mint Collateral Token and Pegged Token [PREC] 0% = 0; 1% = 10 ** 16; 100% = 10 ** 18"
        }
      },
      "setMocAppreciationBeneficiaryAddress(address)": {
        "details": "sets Moc Appreciation Beneficiary Address",
        "params": {
          "mocAppreciationBeneficiaryAddress_": "moc Appreciation Beneficiary new address"
        }
      },
      "setMocCoreExpansion(address)": {
        "details": "sets Moc Core Expansion contract address",
        "params": {
          "mocCoreExpansion_": "moc core expansion new contract address"
        }
      },
      "setMocFeeFlowAddress(address)": {
        "details": "sets Moc Fee Flow contract address",
        "params": {
          "mocFeeFlowAddress_": "moc Fee Flow new contract address"
        }
      },
      "setMocQueue(address)": {
        "details": "sets Moc Queue contract address",
        "params": {
          "mocQueueAddress_": "moc queue new contract address"
        }
      },
      "setMocVendors(address)": {
        "details": "sets Moc Vendors contract address",
        "params": {
          "mocVendors_": "moc Vendors new contract address"
        }
      },
      "setPauser(address)": {
        "details": "Should be called through governance",
        "params": {
          "newPauser_": "Address of the new pauser"
        }
      },
      "setProtThrld(uint256)": {
        "details": "sets the value of the protected threshold configuration param",
        "params": {
          "protThrld_": "coverage protected state threshold [PREC]"
        }
      },
      "setRedeemTCandTPFee(uint256)": {
        "details": "sets the fee charged when redeem Collateral Token and Pegged Token in one operation.",
        "params": {
          "redeemTCandTPFee_": "additional fee pct applied on redeem Collateral Token and Pegged Token [PREC] 0% = 0; 1% = 10 ** 16; 100% = 10 ** 18"
        }
      },
      "setSuccessFee(uint256)": {
        "details": "sets success Fee value.",
        "params": {
          "successFee_": "pct of the gain because Pegged Tokens devaluation that is transferred in Collateral Asset to Moc Fee Flow during the settlement [PREC]"
        }
      },
      "setSwapTCforTPFee(uint256)": {
        "details": "sets the fee charged when swap Collateral Token for a Pegged Token.",
        "params": {
          "swapTCforTPFee_": "additional fee pct applied on swap Collateral Token for a Pegged Token [PREC] 0% = 0; 1% = 10 ** 16; 100% = 10 ** 18"
        }
      },
      "setSwapTPforTCFee(uint256)": {
        "details": "sets the fee charged when swap a Pegged Token for Collateral Token.",
        "params": {
          "swapTPforTCFee_": "additional fee pct applied on swap a Pegged Token for Collateral Token [PREC] 0% = 0; 1% = 10 ** 16; 100% = 10 ** 18"
        }
      },
      "setSwapTPforTPFee(uint256)": {
        "details": "sets the fee charged when swap a Pegged Token for another Pegged Token.",
        "params": {
          "swapTPforTPFee_": "additional fee pct applied on swap a Pegged Token for another Pegged Token [PREC] 0% = 0; 1% = 10 ** 16; 100% = 10 ** 18"
        }
      },
      "setTCInterestCollectorAddress(address)": {
        "details": "sets TC interest collector address",
        "params": {
          "tcInterestCollectorAddress_": "TC interest collector address"
        }
      },
      "setTCInterestPaymentBlockSpan(uint256)": {
        "details": "sets TC interest payment block spannextTCInterestPayment is not automatically updated, you have to wait until next  interest payment to be made : nextTCInterestPayment = block.number + tcInterestPaymentBlockSpan",
        "params": {
          "tcInterestPaymentBlockSpan_": "amount of blocks to wait for next TC interest payment"
        }
      },
      "setTCInterestRate(uint256)": {
        "details": "sets TC interest rate",
        "params": {
          "tcInterestRate_": "pct interest charged to TC holders on the total collateral in the protocol [PREC]"
        }
      },
      "setTcMintFee(uint256)": {
        "details": "sets the fee charged on Token Collateral mint.",
        "params": {
          "tcMintFee_": "addition fee pct applied on Collateral Tokens mint [PREC] 0% = 0; 1% = 10 ** 16; 100% = 10 ** 18"
        }
      },
      "setTcRedeemFee(uint256)": {
        "details": "sets the fee charged on Token Collateral redeem.",
        "params": {
          "tcRedeemFee_": "addition fee pct applied on Collateral Tokens redeem [PREC] 0% = 0; 1% = 10 ** 16; 100% = 10 ** 18"
        }
      },
      "swapTCforTP(address,uint256,uint256,uint256,address,address)": {
        "params": {
          "qACmax_": "Maximum amount of Collateral Asset that can be spent in fees",
          "qTC_": "Amount of owned Collateral Token to swap",
          "qTPmin_": "Minimum amount of Pegged Token that `recipient_` expects to receive",
          "recipient_": "Address who receives the Pegged Token",
          "tp_": "Pegged Token address",
          "vendor_": "address who receives a markup, `0x0` if not using a vendor"
        },
        "returns": {
          "operId": "Identifier to track the Operation lifecycle"
        }
      },
      "swapTPforTC(address,uint256,uint256,uint256,address,address)": {
        "params": {
          "qACmax_": "maximum amount of Collateral Asset that can be spent in fees",
          "qTCmin_": "minimum amount of Collateral Token that `recipient_` expects to receive",
          "qTP_": "amount of owned Pegged Token to swap",
          "recipient_": "address who receives the Collateral Token",
          "tp_": "Pegged Token address",
          "vendor_": "address who receives a markup, `0x0` if not using a vendor"
        },
        "returns": {
          "operId": "Identifier to track the Operation lifecycle"
        }
      },
      "swapTPforTP(address,address,uint256,uint256,uint256,address,address)": {
        "params": {
          "qACmax_": "maximum amount of Collateral Asset that can be spent in fees",
          "qTP_": "amount of owned Pegged Token to swap",
          "qTPmin_": "minimum amount of target Pegged Token that `recipient_` expects to receive",
          "recipient_": "address who receives the target Pegged Token",
          "tpFrom_": "owned Pegged Token address",
          "tpTo_": "target Pegged Token address",
          "vendor_": "address who receives a markup, `0x0` if not using a vendor"
        },
        "returns": {
          "operId": "Identifier to track the Operation lifecycle"
        }
      },
      "tcHoldersInterestPayment()": {
        "details": "-   The amount is not differential, it's a snapshot of the moment it's executed  -   It does not check coverage"
      },
      "unlockACInPending(address,uint256)": {
        "details": "this function must be overridden by the AC implementation",
        "params": {
          "owner_": "funds owner, address to be returned to",
          "qACToUnlock_": "AC amount to be unlocked"
        }
      },
      "unlockTCInPending(address,uint256)": {
        "params": {
          "owner_": "funds owner, address to be returned to",
          "qTCToUnlock_": "TC amount to be unlocked"
        }
      },
      "unlockTPInPending(address,address,uint256)": {
        "params": {
          "owner_": "funds owner, address to be returned to",
          "qTPToUnlock_": "TP amount to be unlocked",
          "tpToken_": "TP to be unlocked"
        }
      },
      "unpause()": {
        "details": "Should only be called by the pauser and when it is stoppable"
      },
      "updateEmas()": {
        "details": "All price provider prices must be available, fails if not"
      },
      "upgradeTo(address)": {
        "custom:oz-upgrades-unsafe-allow-reachable": "delegatecall",
        "details": "Upgrade the implementation of the proxy to `newImplementation`. Calls {_authorizeUpgrade}. Emits an {Upgraded} event."
      },
      "upgradeToAndCall(address,bytes)": {
        "custom:oz-upgrades-unsafe-allow-reachable": "delegatecall",
        "details": "Upgrade the implementation of the proxy to `newImplementation`, and subsequently execute the function call encoded in `data`. Calls {_authorizeUpgrade}. Emits an {Upgraded} event."
      }
    },
    "title": "MocCARC20WithExpansionMock",
    "version": 1
  },
  "evm": {
    "bytecode": {
      "linkReferences": {},
      "opcodes": "PUSH1 0xA0 DUP1 PUSH1 0x40 MSTORE CALLVALUE PUSH3 0xE1 JUMPI ADDRESS PUSH1 0x80 MSTORE PUSH1 0x0 SLOAD SWAP1 PUSH1 0xFF DUP3 PUSH1 0x8 SHR AND PUSH3 0x8F JUMPI POP PUSH1 0xFF DUP1 DUP3 AND SUB PUSH3 0x53 JUMPI JUMPDEST PUSH1 0x40 MLOAD PUSH2 0x59A0 SWAP1 DUP2 PUSH3 0xE7 DUP3 CODECOPY PUSH1 0x80 MLOAD DUP2 DUP2 DUP2 PUSH2 0x2888 ADD MSTORE DUP2 DUP2 PUSH2 0x29F7 ADD MSTORE PUSH2 0x2F8A ADD MSTORE RETURN JUMPDEST PUSH1 0xFF SWAP1 DUP2 NOT AND OR PUSH1 0x0 SSTORE PUSH32 0x7F26B83FF96E1F2B6A682F133852F6798A09C465DA95921460CEFB3847402498 PUSH1 0x20 PUSH1 0x40 MLOAD PUSH1 0xFF DUP2 MSTORE LOG1 CODESIZE PUSH3 0x2C JUMP JUMPDEST PUSH3 0x461BCD PUSH1 0xE5 SHL DUP2 MSTORE PUSH1 0x20 PUSH1 0x4 DUP3 ADD MSTORE PUSH1 0x27 PUSH1 0x24 DUP3 ADD MSTORE PUSH32 0x496E697469616C697A61626C653A20636F6E747261637420697320696E697469 PUSH1 0x44 DUP3 ADD MSTORE PUSH7 0x616C697A696E67 PUSH1 0xC8 SHL PUSH1 0x64 DUP3 ADD MSTORE PUSH1 0x84 SWAP1 REVERT JUMPDEST PUSH1 0x0 DUP1 REVERT INVALID PUSH1 0x40 PUSH1 0x80 DUP2 MSTORE PUSH1 0x4 CALLDATASIZE LT ISZERO PUSH2 0x13 JUMPI PUSH1 0x0 DUP1 REVERT JUMPDEST PUSH1 0x0 SWAP1 PUSH1 0xE0 DUP3 CALLDATALOAD DUP2 SHR SWAP1 DUP2 PUSH4 0x1DDE6EF EQ PUSH2 0x3C0C JUMPI DUP2 PUSH4 0x1F1B684 EQ PUSH2 0x3BC5 JUMPI DUP2 PUSH4 0x579188F EQ PUSH2 0x3B1E JUMPI DUP2 PUSH4 0x7164879 EQ PUSH2 0x3ABE JUMPI DUP2 PUSH4 0x73763B9 EQ PUSH2 0x3A9A JUMPI DUP2 PUSH4 0x7B00D04 EQ PUSH2 0x3A57 JUMPI DUP2 PUSH4 0xC340A24 EQ PUSH2 0x3A2E JUMPI DUP2 PUSH4 0xC36D897 EQ PUSH2 0x3A0E JUMPI DUP2 PUSH4 0xD6AC463 EQ PUSH2 0x39C8 JUMPI DUP2 PUSH4 0xDB49656 EQ PUSH2 0x39A8 JUMPI DUP2 PUSH4 0xE0A8FD2 EQ PUSH2 0x3984 JUMPI DUP2 PUSH4 0xF1E5E2B EQ PUSH2 0x393E JUMPI DUP2 PUSH4 0x13ED7BA5 EQ PUSH2 0x3914 JUMPI DUP2 PUSH4 0x14B4906D EQ PUSH2 0x3859 JUMPI DUP2 PUSH4 0x1867E2F5 EQ PUSH2 0x3839 JUMPI DUP2 PUSH4 0x1FB0DDA0 EQ PUSH2 0x3810 JUMPI DUP2 PUSH4 0x1FE6A7AD EQ PUSH2 0x37D6 JUMPI DUP2 PUSH4 0x2069F753 EQ PUSH2 0x37B2 JUMPI DUP2 PUSH4 0x235E81CF EQ PUSH2 0x35C0 JUMPI DUP2 PUSH4 0x23B98CDE EQ PUSH2 0x3598 JUMPI DUP2 PUSH4 0x24FFABA3 EQ PUSH2 0x355B JUMPI DUP2 PUSH4 0x25BC6C41 EQ PUSH2 0x3531 JUMPI DUP2 PUSH4 0x27EAB2A1 EQ PUSH2 0x34EB JUMPI DUP2 PUSH4 0x2A20D57D EQ PUSH2 0x34CB JUMPI DUP2 PUSH4 0x2C43BD3B EQ PUSH2 0x34A7 JUMPI DUP2 PUSH4 0x2D88AF4A EQ PUSH2 0x3450 JUMPI DUP2 PUSH4 0x2DED50F0 EQ PUSH2 0x3430 JUMPI DUP2 PUSH4 0x2ECCB11C EQ PUSH2 0x334A JUMPI DUP2 PUSH4 0x2ED35CA1 EQ PUSH2 0x3213 JUMPI DUP2 PUSH4 0x333431FD EQ PUSH2 0x31F3 JUMPI DUP2 PUSH4 0x33421C38 EQ PUSH2 0x30F8 JUMPI DUP2 PUSH4 0x34D70FFA EQ PUSH2 0x2FEF JUMPI DUP2 PUSH4 0x3659CFE6 EQ PUSH2 0x2F55 JUMPI DUP2 PUSH4 0x3915EDCB EQ PUSH2 0x2F24 JUMPI DUP2 PUSH4 0x391BF6CF EQ PUSH2 0x2E0C JUMPI DUP2 PUSH4 0x3BC4AC0A EQ PUSH2 0x2DE8 JUMPI DUP2 PUSH4 0x3CFB09EF EQ PUSH2 0x2DA2 JUMPI DUP2 PUSH4 0x3F4BA83A EQ PUSH2 0x2C96 JUMPI DUP2 PUSH4 0x4017936A EQ PUSH2 0x2C65 JUMPI DUP2 PUSH4 0x407F0E34 EQ PUSH2 0x2C45 JUMPI DUP2 PUSH4 0x47DDA6AF EQ PUSH2 0x2B91 JUMPI DUP2 PUSH4 0x4AF3A6FC EQ PUSH2 0x2B12 JUMPI DUP2 PUSH4 0x4B746001 EQ PUSH2 0x2AC8 JUMPI DUP2 PUSH4 0x4D977E78 EQ PUSH2 0x2AA8 JUMPI DUP2 PUSH4 0x4E1F907A EQ PUSH2 0x2A7E JUMPI DUP2 PUSH4 0x4F0F27EE EQ PUSH2 0x2A5E JUMPI DUP2 PUSH4 0x4F1EF286 EQ PUSH2 0x296E JUMPI DUP2 PUSH4 0x5210570C EQ PUSH2 0x2948 JUMPI DUP2 PUSH4 0x52D1902D EQ PUSH2 0x2873 JUMPI DUP2 PUSH4 0x533A4BEA EQ PUSH2 0x2842 JUMPI DUP2 PUSH4 0x53B16D17 EQ PUSH2 0x27FD JUMPI DUP2 PUSH4 0x543AEB48 EQ PUSH2 0x27D9 JUMPI DUP2 PUSH4 0x57271F4D EQ PUSH2 0x27A9 JUMPI DUP2 PUSH4 0x5860EE63 EQ PUSH2 0x2789 JUMPI DUP2 PUSH4 0x58F32DE9 EQ PUSH2 0x2741 JUMPI DUP2 PUSH4 0x5C616A73 EQ PUSH2 0x2546 JUMPI DUP2 PUSH4 0x5C975ABB EQ PUSH2 0x251F JUMPI DUP2 PUSH4 0x5CFBE578 EQ PUSH2 0x24FF JUMPI DUP2 PUSH4 0x5E2A6065 EQ PUSH2 0x24E5 JUMPI DUP2 PUSH4 0x60009E0B EQ PUSH2 0x24BB JUMPI DUP2 PUSH4 0x60EF07BF EQ PUSH2 0x240A JUMPI DUP2 PUSH4 0x647846A5 EQ PUSH2 0x23E0 JUMPI DUP2 PUSH4 0x64EC230A EQ PUSH2 0x23BC JUMPI DUP2 PUSH4 0x662013F4 EQ PUSH2 0x239F JUMPI DUP2 PUSH4 0x68274357 EQ PUSH2 0x2376 JUMPI DUP2 PUSH4 0x6B5488DF EQ PUSH2 0x2356 JUMPI DUP2 PUSH4 0x6F30471F EQ PUSH2 0x2336 JUMPI DUP2 PUSH4 0x70713468 EQ PUSH2 0x2312 JUMPI DUP2 PUSH4 0x735D3960 EQ PUSH2 0x22CC JUMPI DUP2 PUSH4 0x73E28AF9 EQ PUSH2 0x22A8 JUMPI DUP2 PUSH4 0x7554FFFD EQ PUSH2 0x2288 JUMPI DUP2 PUSH4 0x76228055 EQ PUSH2 0x2268 JUMPI DUP2 PUSH4 0x7750BA0C EQ PUSH2 0x2244 JUMPI DUP2 PUSH4 0x797709CA EQ PUSH2 0x214B JUMPI DUP2 PUSH4 0x79F9A91C EQ PUSH2 0x212B JUMPI DUP2 PUSH4 0x7A193C31 EQ PUSH2 0x210B JUMPI DUP2 PUSH4 0x7A4FF1D9 EQ PUSH2 0x20E7 JUMPI DUP2 PUSH4 0x7A727FE8 EQ PUSH2 0x20C7 JUMPI DUP2 PUSH4 0x7AF5758C EQ PUSH2 0x20A3 JUMPI DUP2 PUSH4 0x7CBA2383 EQ PUSH2 0x207F JUMPI DUP2 PUSH4 0x7D8E0314 EQ PUSH2 0x2040 JUMPI DUP2 PUSH4 0x7F01C715 EQ PUSH2 0x2016 JUMPI DUP2 PUSH4 0x7F13B998 EQ PUSH2 0x1FE0 JUMPI DUP2 PUSH4 0x7F4A4FE0 EQ PUSH2 0x1FC0 JUMPI DUP2 PUSH4 0x826FCD58 EQ PUSH2 0x1F9D JUMPI DUP2 PUSH4 0x8456CB59 EQ PUSH2 0x1F08 JUMPI DUP2 PUSH4 0x85BF9593 EQ PUSH2 0x1EC2 JUMPI DUP2 PUSH4 0x883D21CB EQ PUSH2 0x1E01 JUMPI DUP2 PUSH4 0x8CFA4241 EQ PUSH2 0x1DE1 JUMPI DUP2 PUSH4 0x8D7A72F3 EQ PUSH2 0x1DC1 JUMPI DUP2 PUSH4 0x8E2BDB86 EQ PUSH2 0x1D97 JUMPI DUP2 PUSH4 0x8F1A383A EQ PUSH2 0x1D6F JUMPI DUP2 PUSH4 0x938C3E65 EQ PUSH2 0x1804 JUMPI DUP2 PUSH4 0x9853C35A EQ PUSH2 0x17DA JUMPI DUP2 PUSH4 0x9AD6659D EQ PUSH2 0x17A4 JUMPI DUP2 PUSH4 0x9CABFC00 EQ PUSH2 0x1758 JUMPI DUP2 PUSH4 0x9FD0506D EQ PUSH2 0x172B JUMPI DUP2 PUSH4 0xA8E9AC30 EQ PUSH2 0x1708 JUMPI DUP2 PUSH4 0xAD4E666D EQ PUSH2 0x1528 JUMPI DUP2 PUSH4 0xAEA038DC EQ PUSH2 0x1508 JUMPI DUP2 PUSH4 0xB03E11A0 EQ PUSH2 0x13F4 JUMPI DUP2 PUSH4 0xB4434C32 EQ PUSH2 0x1236 JUMPI DUP2 PUSH4 0xB5E9EA8C EQ PUSH2 0x120C JUMPI DUP2 PUSH4 0xB9FA6413 EQ PUSH2 0x11EC JUMPI DUP2 PUSH4 0xBB4872DE EQ PUSH2 0x11C8 JUMPI DUP2 PUSH4 0xBC4E55B2 EQ PUSH2 0x10FA JUMPI DUP2 PUSH4 0xBECACA6B EQ PUSH2 0x10D6 JUMPI DUP2 PUSH4 0xBFE42621 EQ PUSH2 0xEDB JUMPI DUP2 PUSH4 0xC00F538D EQ PUSH2 0xEB7 JUMPI DUP2 PUSH4 0xC039CC69 EQ PUSH2 0xE75 JUMPI DUP2 PUSH4 0xC84353C9 EQ PUSH2 0xE51 JUMPI DUP2 PUSH4 0xCF351C1D EQ PUSH2 0xE0B JUMPI DUP2 PUSH4 0xD1A0FAA0 EQ PUSH2 0xDF2 JUMPI DUP2 PUSH4 0xD2DC25A5 EQ PUSH2 0xD63 JUMPI DUP2 PUSH4 0xD6AF11DA EQ PUSH2 0xD27 JUMPI DUP2 PUSH4 0xD87AAB6F EQ PUSH2 0xD07 JUMPI DUP2 PUSH4 0xD8C69AEC EQ PUSH2 0xBF1 JUMPI DUP2 PUSH4 0xD8DB6F5A EQ PUSH2 0xBAB JUMPI DUP2 PUSH4 0xDB796072 EQ PUSH2 0xB6E JUMPI DUP2 PUSH4 0xDDB6D190 EQ PUSH2 0xB31 JUMPI DUP2 PUSH4 0xDE8D520A EQ PUSH2 0xAFE JUMPI DUP2 PUSH4 0xE23C135C EQ PUSH2 0xAE5 JUMPI DUP2 PUSH4 0xE2C5E990 EQ PUSH2 0xA84 JUMPI DUP2 PUSH4 0xE4C0AAF4 EQ PUSH2 0xA3F JUMPI DUP2 PUSH4 0xE6A683E0 EQ PUSH2 0x9F9 JUMPI DUP2 PUSH4 0xE6B1627C EQ PUSH2 0x9B5 JUMPI DUP2 PUSH4 0xE7C25978 EQ PUSH2 0x990 JUMPI DUP2 PUSH4 0xE8859A15 EQ PUSH2 0x973 JUMPI DUP2 PUSH4 0xEE1F438F EQ PUSH2 0x949 JUMPI DUP2 PUSH4 0xEEE20027 EQ PUSH2 0x921 JUMPI DUP2 PUSH4 0xF13F4054 EQ PUSH2 0x8F7 JUMPI DUP2 PUSH4 0xF26114AA EQ PUSH2 0x892 JUMPI POP DUP1 PUSH4 0xF2808778 EQ PUSH2 0x86E JUMPI DUP1 PUSH4 0xF30B5614 EQ PUSH2 0x84F JUMPI DUP1 PUSH4 0xF375CFBA EQ PUSH2 0x830 JUMPI DUP1 PUSH4 0xF88B1434 EQ PUSH2 0x7C7 JUMPI DUP1 PUSH4 0xFA6E83BD EQ PUSH2 0x7A8 JUMPI DUP1 PUSH4 0xFADDA424 EQ PUSH2 0x763 JUMPI DUP1 PUSH4 0xFDA70F8B EQ PUSH2 0x744 JUMPI DUP1 PUSH4 0xFDCDC11E EQ PUSH2 0x653 JUMPI PUSH4 0xFE6B92C1 EQ PUSH2 0x631 JUMPI PUSH1 0x0 DUP1 REVERT JUMPDEST CALLVALUE PUSH2 0x64F JUMPI DUP2 PUSH1 0x3 NOT CALLDATASIZE ADD SLT PUSH2 0x64F JUMPI PUSH1 0x20 SWAP1 PUSH2 0x135 SLOAD SWAP1 MLOAD SWAP1 DUP2 MSTORE RETURN JUMPDEST POP DUP1 REVERT JUMPDEST PUSH2 0x6E2 DUP4 DUP4 PUSH1 0xC4 PUSH2 0x665 CALLDATASIZE PUSH1 0x4 PUSH2 0x3CF3 JUMP JUMPDEST PUSH2 0x672 SWAP9 SWAP3 SWAP6 SWAP2 SWAP9 PUSH2 0x5029 JUMP JUMPDEST PUSH2 0x67A PUSH2 0x5837 JUMP JUMPDEST PUSH2 0x684 DUP10 CALLER PUSH2 0x4A74 JUMP JUMPDEST DUP7 MLOAD SWAP5 PUSH2 0x692 PUSH1 0xC0 DUP8 PUSH2 0x3D81 JUMP JUMPDEST PUSH1 0x1 DUP1 PUSH1 0xA0 SHL SUB SWAP2 DUP3 DUP1 SWAP3 AND DUP8 MSTORE DUP2 PUSH1 0x20 SWAP12 DUP13 SWAP8 DUP9 DUP11 ADD MSTORE DUP10 DUP12 DUP11 ADD MSTORE CALLER PUSH1 0x60 DUP11 ADD MSTORE AND PUSH1 0x80 DUP9 ADD MSTORE AND PUSH1 0xA0 DUP7 ADD MSTORE PUSH2 0x14F SLOAD AND SWAP4 DUP7 MLOAD SWAP5 DUP6 SWAP4 DUP5 SWAP3 PUSH4 0x23EC24B5 PUSH1 0xE1 SHL DUP5 MSTORE PUSH1 0x4 DUP5 ADD SWAP1 PUSH2 0x504B JUMP JUMPDEST CALLVALUE SWAP1 GAS CALL SWAP4 DUP5 ISZERO PUSH2 0x739 JUMPI SWAP4 PUSH2 0x703 JUMPI JUMPDEST POP PUSH2 0x6FD SWAP1 PUSH2 0x4FBF JUMP JUMPDEST MLOAD SWAP1 DUP2 MSTORE RETURN JUMPDEST SWAP1 SWAP3 POP DUP4 DUP2 DUP2 RETURNDATASIZE DUP4 GT PUSH2 0x732 JUMPI JUMPDEST PUSH2 0x71B DUP2 DUP4 PUSH2 0x3D81 JUMP JUMPDEST DUP2 ADD SUB SLT PUSH2 0x72D JUMPI MLOAD SWAP2 PUSH2 0x6FD PUSH2 0x6F3 JUMP JUMPDEST PUSH1 0x0 DUP1 REVERT JUMPDEST POP RETURNDATASIZE PUSH2 0x711 JUMP JUMPDEST DUP4 MLOAD SWAP1 RETURNDATASIZE SWAP1 DUP3 RETURNDATACOPY RETURNDATASIZE SWAP1 REVERT JUMPDEST POP CALLVALUE PUSH2 0x64F JUMPI DUP2 PUSH1 0x3 NOT CALLDATASIZE ADD SLT PUSH2 0x64F JUMPI PUSH1 0x20 SWAP1 PUSH2 0x13C SLOAD SWAP1 MLOAD SWAP1 DUP2 MSTORE RETURN JUMPDEST POP SWAP1 CALLVALUE PUSH2 0x7A5 JUMPI PUSH1 0x20 CALLDATASIZE PUSH1 0x3 NOT ADD SLT PUSH2 0x7A5 JUMPI POP PUSH1 0x4 CALLDATALOAD SWAP1 PUSH1 0x1 PUSH1 0x1 PUSH1 0xA0 SHL SUB DUP3 AND DUP3 SUB PUSH2 0x72D JUMPI PUSH2 0x79E PUSH2 0x799 PUSH1 0x20 SWAP4 PUSH2 0x46C8 JUMP JUMPDEST PUSH2 0x4703 JUMP JUMPDEST SWAP1 MLOAD SWAP1 DUP2 MSTORE RETURN JUMPDEST DUP1 REVERT JUMPDEST POP CALLVALUE PUSH2 0x64F JUMPI DUP2 PUSH1 0x3 NOT CALLDATASIZE ADD SLT PUSH2 0x64F JUMPI PUSH1 0x20 SWAP1 PUSH2 0x13A SLOAD SWAP1 MLOAD SWAP1 DUP2 MSTORE RETURN JUMPDEST POP SWAP1 CALLVALUE PUSH2 0x7A5 JUMPI PUSH1 0x20 CALLDATASIZE PUSH1 0x3 NOT ADD SLT PUSH2 0x7A5 JUMPI POP PUSH1 0x4 CALLDATALOAD SWAP1 PUSH1 0x1 PUSH1 0x1 PUSH1 0xA0 SHL SUB DUP3 AND DUP3 SUB PUSH2 0x72D JUMPI PUSH2 0x79E PUSH2 0x822 PUSH1 0x20 SWAP4 PUSH2 0x80B PUSH2 0x803 PUSH2 0x4E68 JUMP JUMPDEST SWAP2 SWAP1 SWAP3 PUSH2 0x46C8 JUMP JUMPDEST SWAP2 PUSH2 0x82A PUSH2 0x819 DUP5 DUP5 PUSH2 0x44E1 JUMP JUMPDEST MLOAD SWAP5 DUP6 SWAP4 PUSH2 0x44F5 JUMP JUMPDEST SWAP6 SWAP1 SWAP5 PUSH2 0x4DC0 JUMP JUMPDEST SWAP1 PUSH2 0x4CBD JUMP JUMPDEST POP CALLVALUE PUSH2 0x64F JUMPI DUP2 PUSH1 0x3 NOT CALLDATASIZE ADD SLT PUSH2 0x64F JUMPI PUSH1 0x20 SWAP1 PUSH2 0x141 SLOAD SWAP1 MLOAD SWAP1 DUP2 MSTORE RETURN JUMPDEST POP CALLVALUE PUSH2 0x64F JUMPI DUP2 PUSH1 0x3 NOT CALLDATASIZE ADD SLT PUSH2 0x64F JUMPI PUSH1 0x20 SWAP1 PUSH2 0x131 SLOAD SWAP1 MLOAD SWAP1 DUP2 MSTORE RETURN JUMPDEST DUP3 CALLVALUE PUSH2 0x7A5 JUMPI PUSH1 0x20 CALLDATASIZE PUSH1 0x3 NOT ADD SLT PUSH2 0x7A5 JUMPI PUSH2 0x888 PUSH2 0x57A9 JUMP JUMPDEST PUSH1 0x4 CALLDATALOAD PUSH2 0x13C SSTORE DUP1 RETURN JUMPDEST SWAP1 POP CALLVALUE PUSH2 0x8F3 JUMPI CALLDATASIZE PUSH1 0x3 NOT ADD SLT PUSH2 0x64F JUMPI PUSH2 0x8EF SWAP1 PUSH2 0x8AF PUSH2 0x57A9 JUMP JUMPDEST MLOAD PUSH4 0x79308A55 PUSH1 0xE1 SHL PUSH1 0x20 DUP3 ADD MSTORE PUSH2 0x8DD DUP2 PUSH2 0x8CF PUSH1 0x4 PUSH1 0x24 DUP4 ADD PUSH2 0x4BC9 JUMP JUMPDEST SUB PUSH1 0x1F NOT DUP2 ADD DUP4 MSTORE DUP3 PUSH2 0x3D81 JUMP JUMPDEST PUSH2 0x1F7 SLOAD PUSH1 0x1 PUSH1 0x1 PUSH1 0xA0 SHL SUB AND PUSH2 0x4A52 JUMP JUMPDEST POP DUP1 RETURN JUMPDEST DUP3 DUP1 REVERT JUMPDEST POP POP CALLVALUE PUSH2 0x64F JUMPI DUP2 PUSH1 0x3 NOT CALLDATASIZE ADD SLT PUSH2 0x64F JUMPI PUSH2 0x130 SLOAD SWAP1 MLOAD PUSH1 0x1 PUSH1 0x1 PUSH1 0xA0 SHL SUB SWAP1 SWAP2 AND DUP2 MSTORE PUSH1 0x20 SWAP1 RETURN JUMPDEST POP POP CALLVALUE PUSH2 0x64F JUMPI DUP2 PUSH1 0x3 NOT CALLDATASIZE ADD SLT PUSH2 0x64F JUMPI PUSH1 0x20 SWAP1 PUSH1 0xFF PUSH2 0x14B SLOAD PUSH1 0x10 SHR AND SWAP1 MLOAD SWAP1 ISZERO ISZERO DUP2 MSTORE RETURN JUMPDEST POP POP CALLVALUE PUSH2 0x64F JUMPI DUP2 PUSH1 0x3 NOT CALLDATASIZE ADD SLT PUSH2 0x64F JUMPI PUSH2 0x152 SLOAD SWAP1 MLOAD PUSH1 0x1 PUSH1 0x1 PUSH1 0xA0 SHL SUB SWAP1 SWAP2 AND DUP2 MSTORE PUSH1 0x20 SWAP1 RETURN JUMPDEST POP POP CALLVALUE PUSH2 0x64F JUMPI DUP2 PUSH1 0x3 NOT CALLDATASIZE ADD SLT PUSH2 0x64F JUMPI PUSH1 0x20 SWAP1 PUSH2 0x79E PUSH2 0x4D83 JUMP JUMPDEST POP POP CALLVALUE PUSH2 0x64F JUMPI DUP2 PUSH1 0x3 NOT CALLDATASIZE ADD SLT PUSH2 0x64F JUMPI PUSH1 0x20 SWAP1 PUSH1 0xFF PUSH2 0x14B SLOAD AND SWAP1 MLOAD SWAP1 ISZERO ISZERO DUP2 MSTORE RETURN JUMPDEST POP POP CALLVALUE PUSH2 0x64F JUMPI PUSH1 0x20 CALLDATASIZE PUSH1 0x3 NOT ADD SLT PUSH2 0x64F JUMPI PUSH1 0x4 CALLDATALOAD PUSH2 0x18E DUP1 SLOAD DUP3 LT ISZERO PUSH2 0x9F5 JUMPI SWAP1 PUSH2 0x9E1 SWAP2 PUSH2 0x3D65 JUMP JUMPDEST POP PUSH1 0x1 DUP2 SLOAD SWAP2 ADD SLOAD DUP3 MLOAD SWAP2 DUP3 MSTORE PUSH1 0x20 DUP3 ADD MSTORE RETURN JUMPDEST DUP4 DUP1 REVERT JUMPDEST DUP4 CALLVALUE PUSH2 0x7A5 JUMPI PUSH1 0x20 CALLDATASIZE PUSH1 0x3 NOT ADD SLT PUSH2 0x7A5 JUMPI PUSH1 0x4 CALLDATALOAD PUSH1 0x1 PUSH1 0x1 PUSH1 0xA0 SHL SUB DUP2 AND SWAP1 DUP2 SWAP1 SUB PUSH2 0x72D JUMPI PUSH2 0xA28 PUSH2 0x57A9 JUMP JUMPDEST PUSH2 0x1F7 DUP1 SLOAD PUSH1 0x1 PUSH1 0x1 PUSH1 0xA0 SHL SUB NOT AND SWAP1 SWAP2 OR SWAP1 SSTORE DUP1 RETURN JUMPDEST DUP4 CALLVALUE PUSH2 0x7A5 JUMPI PUSH1 0x20 CALLDATASIZE PUSH1 0x3 NOT ADD SLT PUSH2 0x7A5 JUMPI PUSH1 0x4 CALLDATALOAD PUSH1 0x1 PUSH1 0x1 PUSH1 0xA0 SHL SUB DUP2 AND SWAP1 DUP2 SWAP1 SUB PUSH2 0x64F JUMPI PUSH2 0xA6E PUSH2 0x57A9 JUMP JUMPDEST PUSH1 0x1 PUSH1 0x1 PUSH1 0x60 SHL SUB PUSH1 0xA0 SHL PUSH1 0x97 SLOAD AND OR PUSH1 0x97 SSTORE DUP1 RETURN JUMPDEST DUP3 DUP5 CALLVALUE PUSH2 0x7A5 JUMPI PUSH1 0x60 CALLDATASIZE PUSH1 0x3 NOT ADD SLT PUSH2 0x7A5 JUMPI PUSH1 0x1 PUSH1 0x1 PUSH1 0xA0 SHL SUB PUSH1 0x4 CALLDATALOAD DUP2 DUP2 AND DUP2 SUB PUSH2 0x72D JUMPI PUSH1 0x24 CALLDATALOAD SWAP2 DUP1 DUP4 AND DUP4 SUB PUSH2 0x9F5 JUMPI PUSH2 0x14F SLOAD AND CALLER SUB PUSH2 0xAD4 JUMPI SWAP1 PUSH2 0xAD1 SWAP2 PUSH1 0x44 CALLDATALOAD SWAP2 PUSH2 0x5770 JUMP JUMPDEST DUP1 RETURN JUMPDEST DUP4 MLOAD PUSH4 0x19748477 PUSH1 0xE0 SHL DUP2 MSTORE PUSH1 0x4 SWAP1 REVERT JUMPDEST DUP4 CALLVALUE PUSH2 0x7A5 JUMPI DUP1 PUSH1 0x3 NOT CALLDATASIZE ADD SLT PUSH2 0x7A5 JUMPI PUSH2 0xAD1 PUSH2 0x441C JUMP JUMPDEST POP POP CALLVALUE PUSH2 0x64F JUMPI DUP2 PUSH1 0x3 NOT CALLDATASIZE ADD SLT PUSH2 0x64F JUMPI PUSH1 0x20 SWAP1 PUSH2 0x79E PUSH2 0xB26 PUSH2 0xB21 PUSH2 0x4814 JUMP JUMPDEST PUSH2 0x44F5 JUMP JUMPDEST SWAP1 POP PUSH2 0x131 SLOAD PUSH2 0x43F9 JUMP JUMPDEST POP POP CALLVALUE PUSH2 0x64F JUMPI PUSH1 0x20 CALLDATASIZE PUSH1 0x3 NOT ADD SLT PUSH2 0x64F JUMPI PUSH1 0x4 CALLDATALOAD PUSH1 0x1 PUSH1 0x1 PUSH1 0xA0 SHL SUB DUP2 AND SWAP1 DUP2 SWAP1 SUB PUSH2 0x72D JUMPI DUP3 DUP3 SWAP2 PUSH1 0x20 SWAP5 MSTORE PUSH2 0x145 DUP5 MSTORE KECCAK256 SLOAD SWAP1 MLOAD SWAP1 DUP2 MSTORE RETURN JUMPDEST SWAP1 POP CALLVALUE PUSH2 0x8F3 JUMPI CALLDATASIZE PUSH1 0x3 NOT ADD SLT PUSH2 0x64F JUMPI PUSH2 0x8EF SWAP1 PUSH2 0xB8B PUSH2 0x57A9 JUMP JUMPDEST MLOAD PUSH4 0x6DBCB039 PUSH1 0xE1 SHL PUSH1 0x20 DUP3 ADD MSTORE PUSH2 0x8DD DUP2 PUSH2 0x8CF PUSH1 0x4 PUSH1 0x24 DUP4 ADD PUSH2 0x4BC9 JUMP JUMPDEST DUP4 CALLVALUE PUSH2 0x7A5 JUMPI PUSH1 0x20 CALLDATASIZE PUSH1 0x3 NOT ADD SLT PUSH2 0x7A5 JUMPI PUSH1 0x4 CALLDATALOAD PUSH1 0x1 PUSH1 0x1 PUSH1 0xA0 SHL SUB DUP2 AND SWAP1 DUP2 SWAP1 SUB PUSH2 0x72D JUMPI PUSH2 0xBDA PUSH2 0x57A9 JUMP JUMPDEST PUSH2 0x152 DUP1 SLOAD PUSH1 0x1 PUSH1 0x1 PUSH1 0xA0 SHL SUB NOT AND SWAP1 SWAP2 OR SWAP1 SSTORE DUP1 RETURN JUMPDEST DUP4 SWAP2 POP CALLVALUE PUSH2 0x64F JUMPI CALLDATASIZE PUSH1 0x3 NOT ADD SLT PUSH2 0x7A5 JUMPI POP PUSH2 0xC0C PUSH2 0x5144 JUMP JUMPDEST POP PUSH2 0x14F SLOAD PUSH1 0x1 PUSH1 0x1 PUSH1 0xA0 SHL SUB SWAP2 SWAP1 DUP3 AND CALLER SUB PUSH2 0xCF7 JUMPI PUSH2 0xCBC SWAP2 PUSH2 0xC32 CALLDATASIZE PUSH1 0x4 PUSH2 0x56FD JUMP JUMPDEST SWAP2 PUSH2 0xC3B PUSH2 0x5144 JUMP JUMPDEST POP PUSH2 0xC44 PUSH2 0x5029 JUMP JUMPDEST PUSH2 0xC4C PUSH2 0x5837 JUMP JUMPDEST PUSH2 0xC98 PUSH2 0xC89 DUP3 MLOAD PUSH4 0x3DAD0BD7 PUSH1 0xE1 SHL PUSH1 0x20 DUP3 ADD MSTORE PUSH2 0xC6E PUSH1 0x24 DUP3 ADD DUP8 PUSH2 0x50F4 JUMP JUMPDEST PUSH1 0xE4 DUP2 MSTORE PUSH2 0xC7E PUSH2 0x104 DUP3 PUSH2 0x3D81 JUMP JUMPDEST DUP5 PUSH2 0x1F7 SLOAD AND PUSH2 0x4A52 JUMP JUMPDEST PUSH1 0x20 DUP1 DUP3 MLOAD DUP4 ADD ADD SWAP2 ADD PUSH2 0x56A2 JUMP JUMPDEST DUP7 DUP5 DUP8 PUSH1 0x80 DUP5 SWAP9 SWAP7 SWAP12 SWAP6 SWAP8 SWAP11 ADD MLOAD AND SWAP2 DUP9 PUSH1 0xC0 DUP2 PUSH1 0xA0 DUP5 ADD MLOAD AND SWAP3 ADD MLOAD AND SWAP3 PUSH2 0x54AE JUMP JUMPDEST PUSH1 0x4 CALLDATALOAD SWAP4 DUP1 DUP6 AND DUP1 SWAP6 SUB PUSH2 0x72D JUMPI PUSH1 0x84 CALLDATALOAD SWAP1 DUP2 AND DUP2 SUB PUSH2 0x72D JUMPI PUSH2 0xCF3 SWAP5 PUSH2 0xCE9 SWAP2 DUP9 PUSH1 0x44 CALLDATALOAD SUB SWAP2 PUSH2 0x5770 JUMP JUMPDEST MLOAD SWAP5 DUP6 SWAP5 DUP6 PUSH2 0x3D25 JUMP JUMPDEST SUB SWAP1 RETURN JUMPDEST MLOAD PUSH4 0x19748477 PUSH1 0xE0 SHL DUP2 MSTORE PUSH1 0x4 SWAP1 REVERT JUMPDEST POP POP CALLVALUE PUSH2 0x64F JUMPI DUP2 PUSH1 0x3 NOT CALLDATASIZE ADD SLT PUSH2 0x64F JUMPI PUSH1 0x20 SWAP1 PUSH2 0x155 SLOAD SWAP1 MLOAD SWAP1 DUP2 MSTORE RETURN JUMPDEST POP POP CALLVALUE PUSH2 0x64F JUMPI DUP2 PUSH1 0x3 NOT CALLDATASIZE ADD SLT PUSH2 0x64F JUMPI PUSH1 0x20 SWAP1 PUSH2 0x79E PUSH2 0xD49 PUSH1 0x1 PUSH2 0x484E JUMP JUMPDEST PUSH2 0xD5D PUSH2 0xD56 DUP3 DUP5 PUSH2 0x4639 JUMP JUMPDEST SWAP2 DUP4 PUSH2 0x4583 JUMP JUMPDEST SWAP2 PUSH2 0x4895 JUMP JUMPDEST PUSH2 0x6E2 DUP5 DUP5 PUSH1 0xC4 PUSH2 0xD75 CALLDATASIZE PUSH1 0x4 PUSH2 0x3CF3 JUMP JUMPDEST PUSH2 0xD82 SWAP9 SWAP3 SWAP6 SWAP2 SWAP9 PUSH2 0x5029 JUMP JUMPDEST PUSH2 0xD8A PUSH2 0x5837 JUMP JUMPDEST PUSH2 0xD94 DUP10 CALLER PUSH2 0x4A74 JUMP JUMPDEST DUP7 MLOAD SWAP5 PUSH2 0xDA2 PUSH1 0xC0 DUP8 PUSH2 0x3D81 JUMP JUMPDEST PUSH1 0x1 DUP1 PUSH1 0xA0 SHL SUB SWAP2 DUP3 DUP1 SWAP3 AND DUP8 MSTORE DUP2 PUSH1 0x20 SWAP12 DUP13 SWAP8 DUP9 DUP11 ADD MSTORE DUP10 DUP12 DUP11 ADD MSTORE CALLER PUSH1 0x60 DUP11 ADD MSTORE AND PUSH1 0x80 DUP9 ADD MSTORE AND PUSH1 0xA0 DUP7 ADD MSTORE PUSH2 0x14F SLOAD AND SWAP4 DUP7 MLOAD SWAP5 DUP6 SWAP4 DUP5 SWAP3 PUSH4 0x7E81A821 PUSH1 0xE0 SHL DUP5 MSTORE PUSH1 0x4 DUP5 ADD SWAP1 PUSH2 0x504B JUMP JUMPDEST DUP4 CALLVALUE PUSH2 0x7A5 JUMPI DUP1 PUSH1 0x3 NOT CALLDATASIZE ADD SLT PUSH2 0x7A5 JUMPI PUSH2 0xAD1 PUSH2 0x4F2B JUMP JUMPDEST DUP4 CALLVALUE PUSH2 0x7A5 JUMPI PUSH1 0x20 CALLDATASIZE PUSH1 0x3 NOT ADD SLT PUSH2 0x7A5 JUMPI PUSH1 0x4 CALLDATALOAD PUSH1 0x1 PUSH1 0x1 PUSH1 0xA0 SHL SUB DUP2 AND SWAP1 DUP2 SWAP1 SUB PUSH2 0x72D JUMPI PUSH2 0xE3A PUSH2 0x57A9 JUMP JUMPDEST PUSH2 0x12F DUP1 SLOAD PUSH1 0x1 PUSH1 0x1 PUSH1 0xA0 SHL SUB NOT AND SWAP1 SWAP2 OR SWAP1 SSTORE DUP1 RETURN JUMPDEST DUP4 CALLVALUE PUSH2 0x7A5 JUMPI PUSH1 0x20 CALLDATASIZE PUSH1 0x3 NOT ADD SLT PUSH2 0x7A5 JUMPI PUSH2 0xE6B PUSH2 0x57A9 JUMP JUMPDEST PUSH1 0x4 CALLDATALOAD PUSH2 0x14C SSTORE DUP1 RETURN JUMPDEST POP POP CALLVALUE PUSH2 0x64F JUMPI DUP2 PUSH1 0x3 NOT CALLDATASIZE ADD SLT PUSH2 0x64F JUMPI PUSH1 0x20 SWAP1 PUSH2 0x79E PUSH2 0xEAA PUSH2 0xEB1 PUSH2 0xE9E PUSH2 0xB21 PUSH2 0x4814 JUMP JUMPDEST PUSH2 0x131 SWAP4 SWAP2 SWAP4 SLOAD PUSH2 0x43F9 JUMP JUMPDEST SWAP2 DUP3 PUSH2 0x43F9 JUMP JUMPDEST SWAP1 PUSH2 0x5923 JUMP JUMPDEST DUP4 CALLVALUE PUSH2 0x7A5 JUMPI PUSH1 0x20 CALLDATASIZE PUSH1 0x3 NOT ADD SLT PUSH2 0x7A5 JUMPI PUSH2 0xED1 PUSH2 0x57A9 JUMP JUMPDEST PUSH1 0x4 CALLDATALOAD PUSH2 0x13D SSTORE DUP1 RETURN JUMPDEST DUP3 DUP5 CALLVALUE PUSH2 0x7A5 JUMPI PUSH1 0xA0 CALLDATASIZE PUSH1 0x3 NOT ADD SLT PUSH2 0x7A5 JUMPI PUSH2 0xEF6 PUSH2 0x5144 JUMP JUMPDEST POP PUSH2 0x14F SLOAD PUSH1 0x1 PUSH1 0x1 PUSH1 0xA0 SHL SUB SWAP1 DUP2 AND CALLER SUB PUSH2 0x10C5 JUMPI PUSH2 0xF17 CALLDATASIZE PUSH1 0x4 PUSH2 0x516B JUMP JUMPDEST SWAP2 PUSH2 0xF20 PUSH2 0x5144 JUMP JUMPDEST POP PUSH2 0xF29 PUSH2 0x5029 JUMP JUMPDEST PUSH2 0xF31 PUSH2 0x5837 JUMP JUMPDEST PUSH2 0xF39 PUSH2 0x4F2B JUMP JUMPDEST PUSH2 0xF4C PUSH2 0xF44 PUSH2 0x4E68 JUMP JUMPDEST DUP2 SWAP3 SWAP2 PUSH2 0x51C8 JUMP JUMPDEST SWAP1 SWAP2 PUSH2 0xF5B DUP3 DUP5 DUP9 MLOAD SWAP4 PUSH2 0x4C5E JUMP JUMPDEST DUP2 DUP2 LT PUSH2 0x10A8 JUMPI POP POP PUSH8 0xDE0B6B3A7640000 SWAP2 PUSH2 0xF7D PUSH2 0xF83 SWAP3 DUP8 MLOAD SWAP3 PUSH2 0x4C2A JUMP JUMPDEST SWAP1 PUSH2 0x4606 JUMP JUMPDEST DIV SWAP2 DUP3 ISZERO PUSH2 0x1097 JUMPI SWAP4 DUP4 SWAP5 DUP2 PUSH2 0xFBC SWAP6 ADD SWAP1 DUP1 DUP3 MLOAD AND SWAP2 PUSH2 0xFB1 PUSH1 0x80 DUP10 ADD SWAP4 DUP8 DUP5 DUP7 MLOAD AND PUSH2 0x13D SLOAD SWAP3 PUSH2 0x520B JUMP JUMPDEST SWAP7 SWAP2 DUP9 SWAP10 SWAP2 SWAP10 PUSH2 0x43F9 JUMP JUMPDEST SWAP7 PUSH1 0x20 DUP11 ADD MLOAD DUP1 DUP10 LT PUSH2 0x107A JUMPI POP DUP10 MLOAD SWAP1 PUSH2 0x134 PUSH2 0xFDB DUP4 DUP3 SLOAD PUSH2 0x43F9 JUMP JUMPDEST SWAP1 SSTORE PUSH2 0xFEB PUSH2 0x131 SWAP2 DUP3 SLOAD PUSH2 0x43F9 JUMP JUMPDEST SWAP1 SSTORE DUP4 PUSH2 0x133 SLOAD AND SWAP1 DUP2 EXTCODESIZE ISZERO PUSH2 0x8F3 JUMPI DUP7 MLOAD PUSH4 0x2770A7EB PUSH1 0xE2 SHL DUP2 MSTORE ADDRESS PUSH1 0x4 DUP3 ADD MSTORE PUSH1 0x24 DUP2 ADD SWAP2 SWAP1 SWAP2 MSTORE SWAP1 DUP3 SWAP1 DUP3 SWAP1 PUSH1 0x44 SWAP1 DUP3 SWAP1 DUP5 SWAP1 GAS CALL DUP1 ISZERO PUSH2 0x1070 JUMPI PUSH2 0x105B JUMPI JUMPDEST POP POP SWAP7 DUP6 PUSH2 0x1051 SWAP4 DUP4 DUP1 PUSH1 0x60 DUP10 SWAP7 PUSH2 0xCF3 SWAP12 SWAP13 SWAP14 MLOAD AND SWAP6 ADD MLOAD AND SWAP2 MLOAD AND SWAP3 PUSH2 0x54AE JUMP JUMPDEST MLOAD SWAP4 DUP5 SWAP4 DUP5 PUSH2 0x3CB5 JUMP JUMPDEST PUSH2 0x1066 DUP3 DUP1 SWAP3 PUSH2 0x3D81 JUMP JUMPDEST PUSH2 0x7A5 JUMPI DUP1 PUSH2 0x102E JUMP JUMPDEST DUP7 MLOAD RETURNDATASIZE DUP5 DUP3 RETURNDATACOPY RETURNDATASIZE SWAP1 REVERT JUMPDEST PUSH1 0x44 SWAP1 DUP10 DUP9 MLOAD SWAP2 PUSH4 0x54CDE313 PUSH1 0xE0 SHL DUP4 MSTORE PUSH1 0x4 DUP4 ADD MSTORE PUSH1 0x24 DUP3 ADD MSTORE REVERT JUMPDEST DUP5 MLOAD PUSH4 0xF3E39B5D PUSH1 0xE0 SHL DUP2 MSTORE PUSH1 0x4 SWAP1 REVERT JUMPDEST PUSH1 0x44 SWAP3 POP DUP8 MLOAD SWAP2 PUSH4 0xA5DB715D PUSH1 0xE0 SHL DUP4 MSTORE PUSH1 0x4 DUP4 ADD MSTORE PUSH1 0x24 DUP3 ADD MSTORE REVERT JUMPDEST DUP3 MLOAD PUSH4 0x19748477 PUSH1 0xE0 SHL DUP2 MSTORE PUSH1 0x4 SWAP1 REVERT JUMPDEST DUP4 CALLVALUE PUSH2 0x7A5 JUMPI PUSH1 0x20 CALLDATASIZE PUSH1 0x3 NOT ADD SLT PUSH2 0x7A5 JUMPI PUSH2 0x10F0 PUSH2 0x57A9 JUMP JUMPDEST PUSH1 0x4 CALLDATALOAD PUSH2 0x139 SSTORE DUP1 RETURN JUMPDEST DUP4 SWAP2 POP CALLVALUE PUSH2 0x64F JUMPI CALLDATASIZE PUSH1 0x3 NOT ADD SLT PUSH2 0x7A5 JUMPI POP PUSH2 0x1115 PUSH2 0x5144 JUMP JUMPDEST POP PUSH2 0x14F SLOAD PUSH1 0x1 PUSH1 0x1 PUSH1 0xA0 SHL SUB SWAP1 DUP2 AND CALLER SUB PUSH2 0x11B7 JUMPI PUSH2 0xCF3 PUSH2 0xCE9 SWAP2 PUSH2 0x113D CALLDATASIZE PUSH1 0x4 PUSH2 0x56FD JUMP JUMPDEST SWAP4 PUSH2 0x1146 PUSH2 0x5144 JUMP JUMPDEST POP PUSH2 0x114F PUSH2 0x5029 JUMP JUMPDEST PUSH2 0x1157 PUSH2 0x5837 JUMP JUMPDEST PUSH2 0x1179 PUSH2 0xC89 DUP3 MLOAD PUSH4 0xF5571E01 PUSH1 0xE0 SHL PUSH1 0x20 DUP3 ADD MSTORE PUSH2 0xC6E PUSH1 0x24 DUP3 ADD DUP10 PUSH2 0x50F4 JUMP JUMPDEST SWAP5 DUP9 PUSH1 0x60 DUP8 SWAP4 SWAP7 SWAP6 SWAP10 SWAP5 SWAP11 ADD SWAP2 DUP3 MLOAD PUSH2 0x1196 PUSH2 0x14E SWAP2 DUP3 SLOAD PUSH2 0x43F9 JUMP JUMPDEST SWAP1 SSTORE PUSH1 0xC0 PUSH2 0x11AC DUP12 DUP4 PUSH1 0x80 DUP7 ADD MLOAD AND SWAP6 MLOAD PUSH2 0x43F9 JUMP JUMPDEST SWAP3 ADD MLOAD AND SWAP2 DUP1 PUSH2 0x54AE JUMP JUMPDEST DUP2 MLOAD PUSH4 0x19748477 PUSH1 0xE0 SHL DUP2 MSTORE PUSH1 0x4 SWAP1 REVERT JUMPDEST POP POP CALLVALUE PUSH2 0x64F JUMPI DUP2 PUSH1 0x3 NOT CALLDATASIZE ADD SLT PUSH2 0x64F JUMPI PUSH1 0x20 SWAP1 PUSH1 0xFF PUSH1 0xCA SLOAD AND SWAP1 MLOAD SWAP1 ISZERO ISZERO DUP2 MSTORE RETURN JUMPDEST POP POP CALLVALUE PUSH2 0x64F JUMPI DUP2 PUSH1 0x3 NOT CALLDATASIZE ADD SLT PUSH2 0x64F JUMPI PUSH1 0x20 SWAP1 PUSH2 0x15B SLOAD SWAP1 MLOAD SWAP1 DUP2 MSTORE RETURN JUMPDEST POP POP CALLVALUE PUSH2 0x64F JUMPI DUP2 PUSH1 0x3 NOT CALLDATASIZE ADD SLT PUSH2 0x64F JUMPI PUSH2 0x153 SLOAD SWAP1 MLOAD PUSH1 0x1 PUSH1 0x1 PUSH1 0xA0 SHL SUB SWAP1 SWAP2 AND DUP2 MSTORE PUSH1 0x20 SWAP1 RETURN JUMPDEST DUP3 DUP5 CALLVALUE PUSH2 0x7A5 JUMPI PUSH1 0xC0 CALLDATASIZE PUSH1 0x3 NOT ADD SLT PUSH2 0x7A5 JUMPI PUSH2 0x1251 PUSH2 0x5144 JUMP JUMPDEST POP PUSH2 0x14F SLOAD PUSH1 0x1 PUSH1 0x1 PUSH1 0xA0 SHL SUB SWAP3 SWAP1 DUP4 AND CALLER SUB PUSH2 0xCF7 JUMPI PUSH2 0x12EB PUSH2 0x1276 CALLDATASIZE PUSH1 0x4 PUSH2 0x5567 JUMP JUMPDEST SWAP2 PUSH2 0x127F PUSH2 0x5144 JUMP JUMPDEST POP PUSH2 0x1288 PUSH2 0x5029 JUMP JUMPDEST PUSH2 0x1290 PUSH2 0x5837 JUMP JUMPDEST PUSH2 0x1298 PUSH2 0x4F2B JUMP JUMPDEST PUSH2 0x12A0 PUSH2 0x4E68 JUMP JUMPDEST PUSH2 0x12AF DUP8 DUP7 SWAP6 SWAP4 SWAP6 MLOAD AND PUSH2 0x46C8 JUMP JUMPDEST SWAP4 PUSH2 0x12CF PUSH2 0x12BD DUP7 DUP5 PUSH2 0x44E1 JUMP JUMPDEST MLOAD SWAP3 PUSH2 0x12C9 DUP5 DUP9 PUSH2 0x4B78 JUMP JUMPDEST DUP3 PUSH2 0x51C8 JUMP JUMPDEST PUSH1 0x20 DUP9 SWAP6 SWAP3 SWAP6 ADD SWAP5 DUP5 DUP7 MLOAD SWAP5 PUSH2 0x12E5 DUP3 DUP12 PUSH2 0x4DC0 JUMP JUMPDEST SWAP1 PUSH2 0x55D0 JUMP JUMPDEST DUP2 DUP2 LT PUSH2 0x13D7 JUMPI POP POP SWAP5 DUP1 SWAP7 PUSH2 0x1305 PUSH2 0x133D SWAP8 DUP5 MLOAD PUSH2 0x5923 JUMP JUMPDEST SWAP5 PUSH1 0x60 DUP8 ADD SWAP1 PUSH2 0x1332 DUP4 DUP4 MLOAD AND DUP9 DUP11 DUP10 PUSH1 0xA0 DUP3 ADD SWAP9 DUP9 DUP1 DUP12 MLOAD AND SWAP4 MLOAD AND DUP2 MSTORE PUSH2 0x144 PUSH1 0x20 MSTORE KECCAK256 SLOAD SWAP3 PUSH2 0x520B JUMP JUMPDEST SWAP9 SWAP2 DUP3 SWAP12 SWAP2 SWAP12 PUSH2 0x44D4 JUMP JUMPDEST SWAP9 DUP8 DUP2 ADD SWAP7 DUP8 MLOAD DUP1 DUP13 GT PUSH2 0x13BA JUMPI POP DUP11 ISZERO PUSH2 0x13A9 JUMPI SWAP5 DUP10 SWAP7 SWAP5 PUSH2 0x1384 DUP3 SWAP6 DUP14 SWAP15 SWAP16 SWAP6 PUSH2 0xCF3 SWAP15 SWAP6 DUP6 PUSH1 0x80 PUSH2 0x1051 SWAP15 SWAP13 PUSH2 0x1379 PUSH2 0x139F SWAP12 DUP7 PUSH2 0x55E8 JUMP JUMPDEST MLOAD SWAP3 ADD MLOAD AND SWAP3 PUSH2 0x4AB8 JUMP JUMPDEST DUP7 MLOAD PUSH2 0x1394 PUSH2 0x14E SWAP2 DUP3 SLOAD PUSH2 0x43F9 JUMP JUMPDEST SWAP1 SSTORE MLOAD AND SWAP5 MLOAD PUSH2 0x43F9 JUMP JUMPDEST SWAP2 MLOAD AND SWAP2 DUP1 PUSH2 0x54AE JUMP JUMPDEST DUP9 MLOAD PUSH4 0xF3E39B5D PUSH1 0xE0 SHL DUP2 MSTORE PUSH1 0x4 SWAP1 REVERT JUMPDEST PUSH1 0x44 SWAP1 DUP13 DUP12 MLOAD SWAP2 PUSH4 0xB63F1A7 PUSH1 0xE0 SHL DUP4 MSTORE PUSH1 0x4 DUP4 ADD MSTORE PUSH1 0x24 DUP3 ADD MSTORE REVERT JUMPDEST PUSH1 0x44 SWAP3 POP DUP5 MLOAD SWAP2 PUSH4 0xC39B739F PUSH1 0xE0 SHL DUP4 MSTORE PUSH1 0x4 DUP4 ADD MSTORE PUSH1 0x24 DUP3 ADD MSTORE REVERT JUMPDEST DUP3 DUP5 PUSH2 0x1401 CALLDATASIZE PUSH1 0x4 PUSH2 0x3DD5 JUMP JUMPDEST SWAP1 PUSH2 0x140E SWAP6 SWAP4 SWAP3 SWAP6 PUSH2 0x5029 JUMP JUMPDEST PUSH2 0x1416 PUSH2 0x5837 JUMP JUMPDEST PUSH2 0x1420 DUP2 CALLER PUSH2 0x4A74 JUMP JUMPDEST DUP4 MLOAD SWAP1 PUSH2 0x142E PUSH1 0xA0 DUP4 PUSH2 0x3D81 JUMP JUMPDEST DUP4 DUP3 MSTORE PUSH1 0x20 DUP1 DUP4 ADD SWAP8 DUP9 MSTORE CALLER DUP7 DUP5 ADD MSTORE PUSH1 0x1 PUSH1 0x1 PUSH1 0xA0 SHL SUB SWAP2 DUP3 AND PUSH1 0x60 DUP5 ADD SWAP1 DUP2 MSTORE SWAP4 DUP3 AND PUSH1 0x80 DUP5 ADD SWAP1 DUP2 MSTORE PUSH2 0x14F SLOAD DUP8 MLOAD PUSH4 0xFA91A9A5 PUSH1 0xE0 SHL DUP2 MSTORE DUP6 MLOAD PUSH1 0x4 DUP3 ADD MSTORE SWAP10 MLOAD PUSH1 0x24 DUP12 ADD MSTORE PUSH1 0x40 SWAP1 SWAP5 ADD MLOAD DUP4 AND PUSH1 0x44 DUP11 ADD MSTORE SWAP4 MLOAD DUP3 AND PUSH1 0x64 DUP10 ADD MSTORE SWAP3 MLOAD DUP2 AND PUSH1 0x84 DUP9 ADD MSTORE SWAP2 SWAP6 SWAP1 DUP7 SWAP1 DUP3 SWAP1 PUSH1 0xA4 SWAP1 DUP3 SWAP1 DUP7 AND CALLVALUE SWAP1 GAS CALL SWAP5 DUP6 ISZERO PUSH2 0x14FD JUMPI SWAP5 PUSH2 0x14CA JUMPI JUMPDEST POP SWAP1 PUSH2 0x6FD SWAP2 PUSH2 0x133 SLOAD AND ADDRESS SWAP1 CALLER SWAP1 PUSH2 0x4FE5 JUMP JUMPDEST SWAP2 SWAP1 SWAP4 POP DUP5 DUP3 DUP2 RETURNDATASIZE DUP4 GT PUSH2 0x14F6 JUMPI JUMPDEST PUSH2 0x14E3 DUP2 DUP4 PUSH2 0x3D81 JUMP JUMPDEST DUP2 ADD SUB SLT PUSH2 0x72D JUMPI SWAP1 MLOAD SWAP3 PUSH2 0x6FD PUSH2 0x14B6 JUMP JUMPDEST POP RETURNDATASIZE PUSH2 0x14D9 JUMP JUMPDEST DUP5 MLOAD SWAP1 RETURNDATASIZE SWAP1 DUP3 RETURNDATACOPY RETURNDATASIZE SWAP1 REVERT JUMPDEST POP POP CALLVALUE PUSH2 0x64F JUMPI DUP2 PUSH1 0x3 NOT CALLDATASIZE ADD SLT PUSH2 0x64F JUMPI PUSH1 0x20 SWAP1 PUSH2 0x13D SLOAD SWAP1 MLOAD SWAP1 DUP2 MSTORE RETURN JUMPDEST POP POP CALLVALUE PUSH2 0x64F JUMPI PUSH1 0xC0 CALLDATASIZE PUSH1 0x3 NOT ADD SLT PUSH2 0x64F JUMPI PUSH2 0x1543 PUSH2 0x5144 JUMP JUMPDEST POP PUSH2 0x14F SLOAD PUSH1 0x1 PUSH1 0x1 PUSH1 0xA0 SHL SUB SWAP2 SWAP1 DUP3 AND CALLER SUB PUSH2 0xCF7 JUMPI PUSH2 0x1565 CALLDATASIZE PUSH1 0x4 PUSH2 0x5567 JUMP JUMPDEST SWAP2 PUSH2 0x156E PUSH2 0x5144 JUMP JUMPDEST POP PUSH2 0x1577 PUSH2 0x5029 JUMP JUMPDEST PUSH2 0x157F PUSH2 0x5837 JUMP JUMPDEST PUSH2 0x1587 PUSH2 0x4814 JUMP JUMPDEST SWAP2 PUSH2 0x1594 DUP3 DUP6 MLOAD AND PUSH2 0x46C8 JUMP JUMPDEST SWAP2 PUSH2 0x15B7 PUSH2 0x15A2 DUP5 DUP7 PUSH2 0x44E1 JUMP JUMPDEST MLOAD SWAP5 PUSH2 0x15AE DUP7 DUP7 PUSH2 0x4B78 JUMP JUMPDEST PUSH2 0x149 SLOAD PUSH2 0x51C8 JUMP JUMPDEST POP POP PUSH2 0x15C8 PUSH1 0x20 DUP7 ADD SWAP5 DUP6 MLOAD PUSH2 0x5923 JUMP JUMPDEST SWAP1 DUP2 ISZERO PUSH2 0x16F7 JUMPI DUP6 SWAP7 PUSH1 0x60 PUSH2 0x160D SWAP8 ADD SWAP1 DUP3 DUP3 MLOAD AND SWAP4 PUSH2 0x1602 PUSH1 0xA0 DUP12 ADD SWAP6 DUP3 DUP13 DUP8 DUP1 DUP11 MLOAD AND SWAP2 MLOAD AND DUP7 MSTORE PUSH2 0x145 PUSH1 0x20 MSTORE DUP10 DUP7 KECCAK256 SLOAD SWAP3 PUSH2 0x520B JUMP JUMPDEST SWAP9 SWAP2 DUP4 SWAP12 SWAP2 SWAP12 PUSH2 0x43F9 JUMP JUMPDEST SWAP9 DUP8 DUP13 ADD MLOAD DUP1 DUP12 LT PUSH2 0x16DA JUMPI POP DUP6 SWAP2 PUSH2 0x165F SWAP2 PUSH2 0x162B PUSH1 0x1 DUP14 PUSH2 0x55E8 JUMP JUMPDEST MLOAD SWAP4 PUSH2 0x1639 DUP3 PUSH2 0x137 PUSH2 0x3D65 JUMP JUMPDEST POP PUSH2 0x1645 DUP7 DUP3 SLOAD PUSH2 0x43F9 JUMP JUMPDEST SWAP1 SSTORE PUSH2 0x1655 PUSH2 0x131 SWAP2 DUP3 SLOAD PUSH2 0x43F9 JUMP JUMPDEST SWAP1 SSTORE PUSH2 0x135 PUSH2 0x3C30 JUMP JUMPDEST SWAP1 SLOAD SWAP1 PUSH1 0x3 SHL SHR AND SWAP1 DUP2 EXTCODESIZE ISZERO PUSH2 0x8F3 JUMPI DUP7 MLOAD PUSH4 0x2770A7EB PUSH1 0xE2 SHL DUP2 MSTORE ADDRESS PUSH1 0x4 DUP3 ADD MSTORE PUSH1 0x24 DUP2 ADD SWAP2 SWAP1 SWAP2 MSTORE SWAP1 DUP3 SWAP1 DUP3 SWAP1 PUSH1 0x44 SWAP1 DUP3 SWAP1 DUP5 SWAP1 GAS CALL DUP1 ISZERO PUSH2 0x1070 JUMPI PUSH2 0x16C5 JUMPI JUMPDEST POP POP SWAP7 DUP6 PUSH2 0x1051 SWAP4 DUP4 DUP1 PUSH1 0x80 DUP10 SWAP7 PUSH2 0xCF3 SWAP12 SWAP13 SWAP14 MLOAD AND SWAP6 ADD MLOAD AND SWAP2 MLOAD AND SWAP3 PUSH2 0x54AE JUMP JUMPDEST PUSH2 0x16D0 DUP3 DUP1 SWAP3 PUSH2 0x3D81 JUMP JUMPDEST PUSH2 0x7A5 JUMPI DUP1 PUSH2 0x16A2 JUMP JUMPDEST PUSH1 0x44 SWAP1 DUP12 DUP11 MLOAD SWAP2 PUSH4 0x54CDE313 PUSH1 0xE0 SHL DUP4 MSTORE PUSH1 0x4 DUP4 ADD MSTORE PUSH1 0x24 DUP3 ADD MSTORE REVERT JUMPDEST DUP3 MLOAD PUSH4 0xF3E39B5D PUSH1 0xE0 SHL DUP2 MSTORE PUSH1 0x4 SWAP1 REVERT JUMPDEST POP POP CALLVALUE PUSH2 0x64F JUMPI DUP2 PUSH1 0x3 NOT CALLDATASIZE ADD SLT PUSH2 0x64F JUMPI PUSH1 0x20 SWAP1 PUSH2 0x18F SLOAD NUMBER LT ISZERO SWAP1 MLOAD SWAP1 DUP2 MSTORE RETURN JUMPDEST POP POP CALLVALUE PUSH2 0x64F JUMPI DUP2 PUSH1 0x3 NOT CALLDATASIZE ADD SLT PUSH2 0x64F JUMPI PUSH1 0xCA SLOAD SWAP1 MLOAD PUSH1 0x10 SWAP2 SWAP1 SWAP2 SHR PUSH1 0x1 PUSH1 0x1 PUSH1 0xA0 SHL SUB AND DUP2 MSTORE PUSH1 0x20 SWAP1 RETURN JUMPDEST DUP3 DUP5 CALLVALUE PUSH2 0x7A5 JUMPI PUSH1 0x20 CALLDATASIZE PUSH1 0x3 NOT ADD SLT PUSH2 0x7A5 JUMPI PUSH1 0x4 CALLDATALOAD PUSH1 0x1 PUSH1 0x1 PUSH1 0xA0 SHL SUB DUP2 AND SWAP2 SWAP1 DUP3 SWAP1 SUB PUSH2 0x72D JUMPI DUP3 SWAP2 DUP2 MSTORE PUSH2 0x136 PUSH1 0x20 MSTORE KECCAK256 PUSH1 0xFF PUSH1 0x1 DUP3 SLOAD SWAP3 ADD SLOAD AND DUP3 MLOAD SWAP2 DUP3 MSTORE ISZERO ISZERO PUSH1 0x20 DUP3 ADD MSTORE RETURN JUMPDEST POP POP CALLVALUE PUSH2 0x64F JUMPI DUP2 PUSH1 0x3 NOT CALLDATASIZE ADD SLT PUSH2 0x64F JUMPI PUSH1 0x20 SWAP1 PUSH2 0x17CD PUSH2 0x17C7 PUSH2 0xB21 PUSH2 0x4814 JUMP JUMPDEST SWAP1 PUSH2 0x46AA JUMP JUMPDEST PUSH2 0x14A SLOAD LT ISZERO SWAP1 MLOAD SWAP1 DUP2 MSTORE RETURN JUMPDEST POP POP CALLVALUE PUSH2 0x64F JUMPI DUP2 PUSH1 0x3 NOT CALLDATASIZE ADD SLT PUSH2 0x64F JUMPI PUSH2 0x146 SLOAD SWAP1 MLOAD PUSH1 0x1 PUSH1 0x1 PUSH1 0xA0 SHL SUB SWAP1 SWAP2 AND DUP2 MSTORE PUSH1 0x20 SWAP1 RETURN JUMPDEST POP POP CALLVALUE PUSH2 0x64F JUMPI PUSH2 0x420 CALLDATASIZE PUSH1 0x3 NOT ADD SLT PUSH2 0x64F JUMPI DUP2 SLOAD PUSH1 0xFF DUP2 PUSH1 0x8 SHR AND ISZERO SWAP1 DUP2 DUP1 SWAP3 PUSH2 0x1D62 JUMPI JUMPDEST DUP1 ISZERO PUSH2 0x1D4B JUMPI JUMPDEST ISZERO PUSH2 0x1CF0 JUMPI PUSH1 0xFF NOT DUP2 AND PUSH1 0x1 OR DUP5 SSTORE DUP2 PUSH2 0x1CDF JUMPI JUMPDEST POP PUSH1 0xFF DUP4 SLOAD PUSH1 0x8 SHR AND PUSH2 0x1859 DUP2 PUSH2 0x49F2 JUMP JUMPDEST PUSH2 0x3A4 CALLDATALOAD PUSH1 0x1 PUSH1 0x1 PUSH1 0xA0 SHL SUB DUP2 AND SWAP1 DUP2 SWAP1 SUB PUSH2 0x72D JUMPI PUSH2 0x1F7 DUP1 SLOAD PUSH1 0x1 PUSH1 0x1 PUSH1 0xA0 SHL SUB NOT AND SWAP1 SWAP2 OR SWAP1 SSTORE PUSH1 0x1 PUSH1 0x1 PUSH1 0xA0 SHL SUB PUSH2 0x364 CALLDATALOAD SWAP1 DUP2 AND SWAP1 DUP2 SWAP1 SUB PUSH2 0x72D JUMPI PUSH2 0x384 CALLDATALOAD PUSH1 0x1 PUSH1 0x1 PUSH1 0xA0 SHL SUB DUP2 AND DUP2 SUB PUSH2 0x72D JUMPI PUSH1 0x1 SWAP2 PUSH2 0x18BA DUP5 PUSH2 0x49F2 JUMP JUMPDEST PUSH2 0x18C3 DUP5 PUSH2 0x49F2 JUMP JUMPDEST PUSH2 0x18CC DUP5 PUSH2 0x49F2 JUMP JUMPDEST PUSH2 0x18D5 DUP5 PUSH2 0x49F2 JUMP JUMPDEST PUSH1 0x1 PUSH1 0x1 PUSH1 0x60 SHL SUB PUSH1 0xA0 SHL PUSH1 0x97 SLOAD AND OR PUSH1 0x97 SSTORE PUSH2 0x18F1 DUP4 PUSH2 0x49F2 JUMP JUMPDEST PUSH1 0xCA SLOAD SWAP1 PUSH3 0x10000 DUP4 PUSH1 0xB0 SHL SUB SWAP1 PUSH1 0x10 SHL AND SWAP1 PUSH2 0xFF01 DUP4 PUSH1 0xB0 SHL SUB NOT AND OR OR PUSH1 0xCA SSTORE PUSH2 0x191C DUP2 PUSH2 0x49F2 JUMP JUMPDEST PUSH8 0xDE0B6B3A7640000 PUSH1 0xC4 CALLDATALOAD GT ISZERO PUSH2 0x1CCE JUMPI PUSH2 0x193A PUSH2 0x104 CALLDATALOAD PUSH2 0x5947 JUMP JUMPDEST PUSH2 0x1946 PUSH2 0x124 CALLDATALOAD PUSH2 0x5947 JUMP JUMPDEST PUSH2 0x1952 PUSH2 0x144 CALLDATALOAD PUSH2 0x5947 JUMP JUMPDEST PUSH2 0x195E PUSH2 0x164 CALLDATALOAD PUSH2 0x5947 JUMP JUMPDEST PUSH2 0x196A PUSH2 0x184 CALLDATALOAD PUSH2 0x5947 JUMP JUMPDEST PUSH2 0x1976 PUSH2 0x1A4 CALLDATALOAD PUSH2 0x5947 JUMP JUMPDEST PUSH2 0x1982 PUSH2 0x1C4 CALLDATALOAD PUSH2 0x5947 JUMP JUMPDEST PUSH2 0x198E PUSH2 0x1E4 CALLDATALOAD PUSH2 0x5947 JUMP JUMPDEST PUSH2 0x199A PUSH2 0x204 CALLDATALOAD PUSH2 0x5947 JUMP JUMPDEST PUSH2 0x19B2 PUSH2 0x19AD PUSH2 0x244 CALLDATALOAD PUSH2 0x224 CALLDATALOAD PUSH2 0x44D4 JUMP JUMPDEST PUSH2 0x5947 JUMP JUMPDEST PUSH1 0x4 CALLDATALOAD PUSH1 0x1 PUSH1 0x1 PUSH1 0xA0 SHL SUB DUP2 AND SWAP1 DUP2 SWAP1 SUB PUSH2 0x1CCA JUMPI PUSH2 0x14F DUP1 SLOAD PUSH1 0x1 PUSH1 0x1 PUSH1 0xA0 SHL SUB NOT AND SWAP1 SWAP2 OR SWAP1 SSTORE PUSH1 0x24 CALLDATALOAD PUSH1 0x1 PUSH1 0x1 PUSH1 0xA0 SHL SUB DUP2 AND DUP2 SUB PUSH2 0x72D JUMPI PUSH2 0x12F DUP1 SLOAD PUSH1 0x1 PUSH1 0x1 PUSH1 0xA0 SHL SUB NOT AND PUSH1 0x1 PUSH1 0x1 PUSH1 0xA0 SHL SUB SWAP3 DUP4 AND OR SWAP1 SSTORE PUSH1 0x44 CALLDATALOAD SWAP1 DUP2 AND DUP2 SUB PUSH2 0x72D JUMPI PUSH2 0x130 DUP1 SLOAD PUSH1 0x1 PUSH1 0x1 PUSH1 0xA0 SHL SUB NOT AND PUSH1 0x1 PUSH1 0x1 PUSH1 0xA0 SHL SUB SWAP3 DUP4 AND OR SWAP1 SSTORE PUSH1 0x64 CALLDATALOAD SWAP1 DUP2 AND DUP2 SUB PUSH2 0x72D JUMPI PUSH2 0x133 DUP1 SLOAD PUSH1 0x1 PUSH1 0x1 PUSH1 0xA0 SHL SUB NOT AND PUSH1 0x1 PUSH1 0x1 PUSH1 0xA0 SHL SUB SWAP3 DUP4 AND OR SWAP1 SSTORE PUSH1 0x84 CALLDATALOAD SWAP1 DUP2 AND DUP2 SUB PUSH2 0x72D JUMPI PUSH2 0x146 DUP1 SLOAD PUSH1 0x1 PUSH1 0x1 PUSH1 0xA0 SHL SUB NOT AND PUSH1 0x1 PUSH1 0x1 PUSH1 0xA0 SHL SUB SWAP3 DUP4 AND OR SWAP1 SSTORE PUSH1 0xA4 CALLDATALOAD SWAP1 DUP2 AND DUP2 SUB PUSH2 0x72D JUMPI PUSH2 0x147 DUP1 SLOAD PUSH1 0x1 PUSH1 0x1 PUSH1 0xA0 SHL SUB NOT AND PUSH1 0x1 PUSH1 0x1 PUSH1 0xA0 SHL SUB SWAP3 DUP4 AND OR SWAP1 SSTORE PUSH1 0xC4 CALLDATALOAD PUSH2 0x149 SSTORE PUSH1 0xE4 CALLDATALOAD PUSH2 0x14A SSTORE PUSH2 0x104 CALLDATALOAD PUSH2 0x13B SSTORE PUSH2 0x124 CALLDATALOAD PUSH2 0x13C SSTORE PUSH2 0x144 CALLDATALOAD PUSH2 0x13D SSTORE PUSH2 0x164 CALLDATALOAD PUSH2 0x13E SSTORE PUSH2 0x184 CALLDATALOAD PUSH2 0x13F SSTORE PUSH2 0x1A4 CALLDATALOAD PUSH2 0x140 SSTORE PUSH2 0x1C4 CALLDATALOAD PUSH2 0x141 SSTORE PUSH2 0x1E4 CALLDATALOAD PUSH2 0x142 SSTORE PUSH2 0x204 CALLDATALOAD PUSH2 0x143 SSTORE PUSH2 0x224 CALLDATALOAD PUSH2 0x139 SSTORE PUSH2 0x244 CALLDATALOAD PUSH2 0x13A SSTORE PUSH2 0x264 CALLDATALOAD PUSH2 0x14C DUP2 SWAP1 SSTORE SWAP1 PUSH2 0x284 CALLDATALOAD SWAP1 DUP2 AND SWAP1 DUP2 SWAP1 SUB PUSH2 0x72D JUMPI PUSH2 0x158 DUP1 SLOAD PUSH1 0x1 PUSH1 0x1 PUSH1 0xA0 SHL SUB NOT AND SWAP1 SWAP2 OR SWAP1 SSTORE PUSH2 0x2A4 CALLDATALOAD PUSH2 0x159 SSTORE PUSH2 0x2C4 CALLDATALOAD PUSH2 0x15A DUP2 SWAP1 SSTORE SWAP1 PUSH1 0x1 PUSH1 0x1 PUSH1 0xA0 SHL SUB PUSH2 0x2E4 CALLDATALOAD SWAP1 DUP2 AND SWAP1 DUP2 SWAP1 SUB PUSH2 0x72D JUMPI PUSH2 0x152 DUP1 SLOAD PUSH1 0x1 PUSH1 0x1 PUSH1 0xA0 SHL SUB NOT AND SWAP1 SWAP2 OR SWAP1 SSTORE PUSH1 0x1 PUSH1 0x1 PUSH1 0xA0 SHL SUB PUSH2 0x304 CALLDATALOAD SWAP1 DUP2 AND SWAP1 DUP2 SWAP1 SUB PUSH2 0x72D JUMPI PUSH2 0x153 SWAP1 PUSH1 0x1 PUSH1 0x1 PUSH1 0x60 SHL SUB PUSH1 0xA0 SHL DUP3 SLOAD AND OR SWAP1 SSTORE PUSH2 0x324 CALLDATALOAD PUSH2 0x154 SSTORE NUMBER PUSH2 0x157 SSTORE NUMBER ADD PUSH2 0x14D SSTORE NUMBER ADD PUSH2 0x15B SSTORE PUSH2 0x14B DUP1 SLOAD PUSH2 0x344 CALLDATALOAD DUP1 ISZERO ISZERO DUP1 SWAP2 SUB PUSH2 0x1CC6 JUMPI PUSH3 0xFF0000 SWAP1 PUSH1 0x10 SHL AND SWAP1 PUSH3 0xFFFFFF NOT AND OR SWAP1 SSTORE PUSH2 0x3C4 CALLDATALOAD PUSH2 0x1BF9 DUP3 PUSH2 0x49F2 JUMP JUMPDEST DUP1 ISZERO PUSH2 0x1CB5 JUMPI PUSH2 0x190 DUP2 SWAP1 SSTORE NUMBER ADD PUSH2 0x18F SSTORE PUSH2 0x3E4 CALLDATALOAD PUSH1 0x1 PUSH1 0x1 PUSH1 0xA0 SHL SUB DUP2 AND DUP2 SUB PUSH2 0x72D JUMPI PUSH2 0x1C2B PUSH2 0x1C4D SWAP3 PUSH2 0x49F2 JUMP JUMPDEST PUSH2 0x1C3 DUP1 SLOAD PUSH1 0x1 PUSH1 0x1 PUSH1 0xA0 SHL SUB NOT AND PUSH1 0x1 PUSH1 0x1 PUSH1 0xA0 SHL SUB SWAP1 SWAP3 AND SWAP2 SWAP1 SWAP2 OR SWAP1 SSTORE JUMP JUMPDEST PUSH2 0x404 CALLDATALOAD PUSH1 0x1 PUSH1 0x1 PUSH1 0xA0 SHL SUB DUP2 AND SWAP1 DUP2 SWAP1 SUB PUSH2 0x72D JUMPI PUSH2 0x22A DUP1 SLOAD PUSH1 0x1 PUSH1 0x1 PUSH1 0xA0 SHL SUB NOT AND SWAP1 SWAP2 OR SWAP1 SSTORE PUSH2 0x1C7F JUMPI POP DUP1 RETURN JUMPDEST PUSH1 0x20 PUSH32 0x7F26B83FF96E1F2B6A682F133852F6798A09C465DA95921460CEFB3847402498 SWAP2 PUSH2 0xFF00 NOT DUP5 SLOAD AND DUP5 SSTORE MLOAD PUSH1 0x1 DUP2 MSTORE LOG1 DUP1 RETURN JUMPDEST DUP4 MLOAD PUSH4 0x2A9FFAB7 PUSH1 0xE2 SHL DUP2 MSTORE PUSH1 0x4 SWAP1 REVERT JUMPDEST DUP7 DUP1 REVERT JUMPDEST DUP5 DUP1 REVERT JUMPDEST DUP3 MLOAD PUSH4 0x2A9FFAB7 PUSH1 0xE2 SHL DUP2 MSTORE PUSH1 0x4 SWAP1 REVERT JUMPDEST PUSH2 0xFFFF NOT AND PUSH2 0x101 OR DUP4 SSTORE CODESIZE PUSH2 0x1847 JUMP JUMPDEST DUP3 MLOAD PUSH3 0x461BCD PUSH1 0xE5 SHL DUP2 MSTORE PUSH1 0x20 PUSH1 0x4 DUP3 ADD MSTORE PUSH1 0x2E PUSH1 0x24 DUP3 ADD MSTORE PUSH32 0x496E697469616C697A61626C653A20636F6E747261637420697320616C726561 PUSH1 0x44 DUP3 ADD MSTORE PUSH14 0x191E481A5B9A5D1A585B1A5E9959 PUSH1 0x92 SHL PUSH1 0x64 DUP3 ADD MSTORE PUSH1 0x84 SWAP1 REVERT JUMPDEST POP ADDRESS EXTCODESIZE ISZERO DUP1 ISZERO PUSH2 0x1832 JUMPI POP PUSH1 0x1 PUSH1 0xFF DUP3 AND EQ PUSH2 0x1832 JUMP JUMPDEST POP PUSH1 0x1 PUSH1 0xFF DUP3 AND LT PUSH2 0x182B JUMP JUMPDEST POP POP CALLVALUE PUSH2 0x64F JUMPI DUP2 PUSH1 0x3 NOT CALLDATASIZE ADD SLT PUSH2 0x64F JUMPI PUSH1 0x20 SWAP1 PUSH2 0x1D8F PUSH2 0xB21 PUSH2 0x4814 JUMP JUMPDEST POP SWAP1 MLOAD SWAP1 DUP2 MSTORE RETURN JUMPDEST POP POP CALLVALUE PUSH2 0x64F JUMPI DUP2 PUSH1 0x3 NOT CALLDATASIZE ADD SLT PUSH2 0x64F JUMPI PUSH2 0x158 SLOAD SWAP1 MLOAD PUSH1 0x1 PUSH1 0x1 PUSH1 0xA0 SHL SUB SWAP1 SWAP2 AND DUP2 MSTORE PUSH1 0x20 SWAP1 RETURN JUMPDEST POP POP CALLVALUE PUSH2 0x64F JUMPI DUP2 PUSH1 0x3 NOT CALLDATASIZE ADD SLT PUSH2 0x64F JUMPI PUSH1 0x20 SWAP1 PUSH2 0x1F6 SLOAD SWAP1 MLOAD SWAP1 DUP2 MSTORE RETURN JUMPDEST POP POP CALLVALUE PUSH2 0x64F JUMPI DUP2 PUSH1 0x3 NOT CALLDATASIZE ADD SLT PUSH2 0x64F JUMPI PUSH1 0x20 SWAP1 PUSH2 0x14A SLOAD SWAP1 MLOAD SWAP1 DUP2 MSTORE RETURN JUMPDEST DUP3 DUP5 CALLVALUE PUSH2 0x7A5 JUMPI PUSH1 0xC0 CALLDATASIZE PUSH1 0x3 NOT ADD SLT PUSH2 0x7A5 JUMPI POP PUSH2 0x1E1D PUSH2 0x5144 JUMP JUMPDEST POP PUSH2 0x14F SLOAD PUSH1 0x1 PUSH1 0x1 PUSH1 0xA0 SHL SUB SWAP1 DUP2 AND CALLER SUB PUSH2 0x11B7 JUMPI PUSH2 0xCF3 PUSH2 0xCE9 SWAP2 PUSH2 0x1E45 CALLDATASIZE PUSH1 0x4 PUSH2 0x5567 JUMP JUMPDEST SWAP4 PUSH2 0x1E4E PUSH2 0x5144 JUMP JUMPDEST POP PUSH2 0x1E57 PUSH2 0x5029 JUMP JUMPDEST PUSH2 0x1E5F PUSH2 0x5837 JUMP JUMPDEST PUSH2 0x1E90 PUSH2 0xC89 DUP3 MLOAD PUSH4 0x7225DA89 PUSH1 0xE1 SHL PUSH1 0x20 DUP3 ADD MSTORE PUSH2 0x1E81 PUSH1 0x24 DUP3 ADD DUP10 PUSH2 0x504B JUMP JUMPDEST PUSH1 0xC4 DUP2 MSTORE PUSH2 0xC7E PUSH1 0xE4 DUP3 PUSH2 0x3D81 JUMP JUMPDEST SWAP5 DUP9 DUP6 DUP8 SWAP4 SWAP7 SWAP6 SWAP10 SWAP5 SWAP11 ADD SWAP2 DUP3 MLOAD PUSH2 0x1EAC PUSH2 0x14E SWAP2 DUP3 SLOAD PUSH2 0x43F9 JUMP JUMPDEST SWAP1 SSTORE PUSH1 0xA0 PUSH2 0x11AC DUP12 DUP4 PUSH1 0x60 DUP7 ADD MLOAD AND SWAP6 MLOAD PUSH2 0x43F9 JUMP JUMPDEST DUP4 CALLVALUE PUSH2 0x7A5 JUMPI PUSH1 0x20 CALLDATASIZE PUSH1 0x3 NOT ADD SLT PUSH2 0x7A5 JUMPI PUSH1 0x4 CALLDATALOAD PUSH1 0x1 PUSH1 0x1 PUSH1 0xA0 SHL SUB DUP2 AND SWAP1 DUP2 SWAP1 SUB PUSH2 0x72D JUMPI PUSH2 0x1EF1 PUSH2 0x57A9 JUMP JUMPDEST PUSH2 0x153 DUP1 SLOAD PUSH1 0x1 PUSH1 0x1 PUSH1 0xA0 SHL SUB NOT AND SWAP1 SWAP2 OR SWAP1 SSTORE DUP1 RETURN JUMPDEST POP POP CALLVALUE PUSH2 0x64F JUMPI DUP2 PUSH1 0x3 NOT CALLDATASIZE ADD SLT PUSH2 0x64F JUMPI PUSH2 0x1F22 PUSH2 0x5837 JUMP JUMPDEST PUSH1 0xCA SLOAD PUSH1 0x10 DUP2 SWAP1 SHR PUSH1 0x1 PUSH1 0x1 PUSH1 0xA0 SHL SUB AND CALLER SUB PUSH2 0x1F8C JUMPI PUSH1 0xFF DUP2 AND ISZERO PUSH2 0x1F7B JUMPI PUSH2 0xFF00 NOT AND PUSH2 0x100 OR PUSH1 0xCA SSTORE MLOAD CALLER DUP2 MSTORE PUSH32 0x62E78CEA01BEE320CD4E420270B5EA74000D11B0C9F74754EBDBFC544B05A258 SWAP1 PUSH1 0x20 SWAP1 LOG1 DUP1 RETURN JUMPDEST DUP2 MLOAD PUSH4 0x866099C3 PUSH1 0xE0 SHL DUP2 MSTORE PUSH1 0x4 SWAP1 REVERT JUMPDEST DUP2 MLOAD PUSH4 0x1D77D477 PUSH1 0xE2 SHL DUP2 MSTORE PUSH1 0x4 SWAP1 REVERT JUMPDEST POP POP CALLVALUE PUSH2 0x64F JUMPI DUP2 PUSH1 0x3 NOT CALLDATASIZE ADD SLT PUSH2 0x64F JUMPI PUSH1 0x20 SWAP1 PUSH2 0x79E PUSH2 0x17C7 PUSH2 0xB21 PUSH2 0x4814 JUMP JUMPDEST POP POP CALLVALUE PUSH2 0x64F JUMPI DUP2 PUSH1 0x3 NOT CALLDATASIZE ADD SLT PUSH2 0x64F JUMPI PUSH1 0x20 SWAP1 PUSH2 0x15A SLOAD SWAP1 MLOAD SWAP1 DUP2 MSTORE RETURN JUMPDEST POP POP CALLVALUE PUSH2 0x64F JUMPI DUP2 PUSH1 0x3 NOT CALLDATASIZE ADD SLT PUSH2 0x64F JUMPI PUSH1 0x20 SWAP1 PUSH2 0x79E PUSH2 0x2002 PUSH1 0x1 PUSH2 0x484E JUMP JUMPDEST PUSH2 0xD5D PUSH2 0x200F DUP3 DUP5 PUSH2 0x4583 JUMP JUMPDEST SWAP2 DUP4 PUSH2 0x4639 JUMP JUMPDEST POP POP CALLVALUE PUSH2 0x64F JUMPI DUP2 PUSH1 0x3 NOT CALLDATASIZE ADD SLT PUSH2 0x64F JUMPI PUSH2 0x1C3 SLOAD SWAP1 MLOAD PUSH1 0x1 PUSH1 0x1 PUSH1 0xA0 SHL SUB SWAP1 SWAP2 AND DUP2 MSTORE PUSH1 0x20 SWAP1 RETURN JUMPDEST POP POP CALLVALUE PUSH2 0x64F JUMPI PUSH1 0x20 CALLDATASIZE PUSH1 0x3 NOT ADD SLT PUSH2 0x64F JUMPI PUSH1 0x4 CALLDATALOAD SWAP2 PUSH2 0x148 SWAP1 DUP2 SLOAD DUP5 LT ISZERO PUSH2 0x7A5 JUMPI POP PUSH1 0x20 SWAP3 PUSH2 0x2071 SWAP2 PUSH2 0x3C30 JUMP JUMPDEST SWAP2 SWAP1 SLOAD SWAP1 MLOAD SWAP2 PUSH1 0x3 SHL SHR DUP2 MSTORE RETURN JUMPDEST DUP4 CALLVALUE PUSH2 0x7A5 JUMPI PUSH1 0x20 CALLDATASIZE PUSH1 0x3 NOT ADD SLT PUSH2 0x7A5 JUMPI PUSH2 0x2099 PUSH2 0x57A9 JUMP JUMPDEST PUSH1 0x4 CALLDATALOAD PUSH2 0x149 SSTORE DUP1 RETURN JUMPDEST DUP4 CALLVALUE PUSH2 0x7A5 JUMPI PUSH1 0x20 CALLDATASIZE PUSH1 0x3 NOT ADD SLT PUSH2 0x7A5 JUMPI PUSH2 0x20BD PUSH2 0x57A9 JUMP JUMPDEST PUSH1 0x4 CALLDATALOAD PUSH2 0x140 SSTORE DUP1 RETURN JUMPDEST POP POP CALLVALUE PUSH2 0x64F JUMPI DUP2 PUSH1 0x3 NOT CALLDATASIZE ADD SLT PUSH2 0x64F JUMPI PUSH1 0x20 SWAP1 PUSH2 0x190 SLOAD SWAP1 MLOAD SWAP1 DUP2 MSTORE RETURN JUMPDEST DUP4 CALLVALUE PUSH2 0x7A5 JUMPI PUSH1 0x20 CALLDATASIZE PUSH1 0x3 NOT ADD SLT PUSH2 0x7A5 JUMPI PUSH2 0x2101 PUSH2 0x57A9 JUMP JUMPDEST PUSH1 0x4 CALLDATALOAD PUSH2 0x141 SSTORE DUP1 RETURN JUMPDEST POP POP CALLVALUE PUSH2 0x64F JUMPI DUP2 PUSH1 0x3 NOT CALLDATASIZE ADD SLT PUSH2 0x64F JUMPI PUSH1 0x20 SWAP1 PUSH2 0x134 SLOAD SWAP1 MLOAD SWAP1 DUP2 MSTORE RETURN JUMPDEST POP POP CALLVALUE PUSH2 0x64F JUMPI DUP2 PUSH1 0x3 NOT CALLDATASIZE ADD SLT PUSH2 0x64F JUMPI PUSH1 0x20 SWAP1 PUSH2 0x142 SLOAD SWAP1 MLOAD SWAP1 DUP2 MSTORE RETURN JUMPDEST SWAP1 POP DUP3 PUSH2 0x2159 CALLDATASIZE PUSH1 0x4 PUSH2 0x3C72 JUMP JUMPDEST PUSH2 0x2169 SWAP9 SWAP6 SWAP2 SWAP8 SWAP3 SWAP5 SWAP4 SWAP9 PUSH2 0x5029 JUMP JUMPDEST PUSH2 0x2171 PUSH2 0x5837 JUMP JUMPDEST PUSH2 0x217B DUP9 CALLER PUSH2 0x4A74 JUMP JUMPDEST PUSH2 0x2187 DUP7 MLOAD SWAP4 DUP5 PUSH2 0x3D81 JUMP JUMPDEST PUSH1 0x1 DUP1 PUSH1 0xA0 SHL SUB DUP1 SWAP9 DUP2 DUP1 SWAP5 AND DUP6 MSTORE PUSH1 0x20 SWAP11 DUP7 DUP13 DUP8 ADD MSTORE DUP9 DUP7 ADD MSTORE DUP7 PUSH1 0x60 DUP7 ADD MSTORE CALLER PUSH1 0x80 DUP7 ADD MSTORE AND PUSH1 0xA0 DUP5 ADD MSTORE AND PUSH1 0xC0 DUP3 ADD MSTORE DUP7 PUSH2 0x21E2 PUSH1 0xE4 DUP9 PUSH2 0x14F SLOAD AND SWAP4 DUP8 MLOAD SWAP5 DUP6 SWAP4 DUP5 SWAP3 PUSH4 0x6B59C22F PUSH1 0xE0 SHL DUP5 MSTORE PUSH1 0x4 DUP5 ADD SWAP1 PUSH2 0x50F4 JUMP JUMPDEST CALLVALUE SWAP1 GAS CALL SWAP5 DUP6 ISZERO PUSH2 0x14FD JUMPI SWAP5 PUSH2 0x2211 JUMPI JUMPDEST POP PUSH2 0x220C SWAP1 PUSH2 0x6FD SWAP4 SWAP5 SWAP6 PUSH2 0x133 SLOAD AND ADDRESS SWAP1 CALLER SWAP1 PUSH2 0x4FE5 JUMP JUMPDEST PUSH2 0x4FBF JUMP JUMPDEST SWAP1 SWAP3 SWAP4 POP DUP6 DUP2 DUP2 RETURNDATASIZE DUP4 GT PUSH2 0x223D JUMPI JUMPDEST PUSH2 0x222A DUP2 DUP4 PUSH2 0x3D81 JUMP JUMPDEST DUP2 ADD SUB SLT PUSH2 0x72D JUMPI MLOAD SWAP3 SWAP2 PUSH2 0x220C PUSH2 0x21F3 JUMP JUMPDEST POP RETURNDATASIZE PUSH2 0x2220 JUMP JUMPDEST DUP4 CALLVALUE PUSH2 0x7A5 JUMPI PUSH1 0x20 CALLDATASIZE PUSH1 0x3 NOT ADD SLT PUSH2 0x7A5 JUMPI PUSH2 0x225E PUSH2 0x57A9 JUMP JUMPDEST PUSH1 0x4 CALLDATALOAD PUSH2 0x13B SSTORE DUP1 RETURN JUMPDEST POP POP CALLVALUE PUSH2 0x64F JUMPI DUP2 PUSH1 0x3 NOT CALLDATASIZE ADD SLT PUSH2 0x64F JUMPI PUSH1 0x20 SWAP1 PUSH2 0x156 SLOAD SWAP1 MLOAD SWAP1 DUP2 MSTORE RETURN JUMPDEST POP POP CALLVALUE PUSH2 0x64F JUMPI DUP2 PUSH1 0x3 NOT CALLDATASIZE ADD SLT PUSH2 0x64F JUMPI PUSH1 0x20 SWAP1 PUSH2 0x139 SLOAD SWAP1 MLOAD SWAP1 DUP2 MSTORE RETURN JUMPDEST DUP4 CALLVALUE PUSH2 0x7A5 JUMPI PUSH1 0x20 CALLDATASIZE PUSH1 0x3 NOT ADD SLT PUSH2 0x7A5 JUMPI PUSH2 0x22C2 PUSH2 0x57A9 JUMP JUMPDEST PUSH1 0x4 CALLDATALOAD PUSH2 0x154 SSTORE DUP1 RETURN JUMPDEST DUP4 CALLVALUE PUSH2 0x7A5 JUMPI PUSH1 0x20 CALLDATASIZE PUSH1 0x3 NOT ADD SLT PUSH2 0x7A5 JUMPI PUSH1 0x4 CALLDATALOAD PUSH1 0x1 PUSH1 0x1 PUSH1 0xA0 SHL SUB DUP2 AND SWAP1 DUP2 SWAP1 SUB PUSH2 0x72D JUMPI PUSH2 0x22FB PUSH2 0x57A9 JUMP JUMPDEST PUSH2 0x158 DUP1 SLOAD PUSH1 0x1 PUSH1 0x1 PUSH1 0xA0 SHL SUB NOT AND SWAP1 SWAP2 OR SWAP1 SSTORE DUP1 RETURN JUMPDEST DUP4 CALLVALUE PUSH2 0x7A5 JUMPI PUSH1 0x20 CALLDATASIZE PUSH1 0x3 NOT ADD SLT PUSH2 0x7A5 JUMPI PUSH2 0x232C PUSH2 0x57A9 JUMP JUMPDEST PUSH1 0x4 CALLDATALOAD PUSH2 0x13E SSTORE DUP1 RETURN JUMPDEST POP POP CALLVALUE PUSH2 0x64F JUMPI DUP2 PUSH1 0x3 NOT CALLDATASIZE ADD SLT PUSH2 0x64F JUMPI PUSH1 0x20 SWAP1 PUSH2 0x154 SLOAD SWAP1 MLOAD SWAP1 DUP2 MSTORE RETURN JUMPDEST POP POP CALLVALUE PUSH2 0x64F JUMPI DUP2 PUSH1 0x3 NOT CALLDATASIZE ADD SLT PUSH2 0x64F JUMPI PUSH1 0x20 SWAP1 PUSH2 0x149 SLOAD SWAP1 MLOAD SWAP1 DUP2 MSTORE RETURN JUMPDEST DUP4 CALLVALUE PUSH2 0x7A5 JUMPI DUP1 PUSH1 0x3 NOT CALLDATASIZE ADD SLT PUSH2 0x7A5 JUMPI PUSH2 0x238F PUSH2 0x57A9 JUMP JUMPDEST PUSH1 0x1 PUSH1 0xFF NOT PUSH1 0xCA SLOAD AND OR PUSH1 0xCA SSTORE DUP1 RETURN JUMPDEST POP POP CALLVALUE PUSH2 0x64F JUMPI DUP2 PUSH1 0x3 NOT CALLDATASIZE ADD SLT PUSH2 0x64F JUMPI PUSH1 0x20 SWAP1 PUSH2 0x1D8F PUSH2 0x4E68 JUMP JUMPDEST DUP4 CALLVALUE PUSH2 0x7A5 JUMPI PUSH1 0x20 CALLDATASIZE PUSH1 0x3 NOT ADD SLT PUSH2 0x7A5 JUMPI PUSH2 0x23D6 PUSH2 0x57A9 JUMP JUMPDEST PUSH1 0x4 CALLDATALOAD PUSH2 0x159 SSTORE DUP1 RETURN JUMPDEST POP POP CALLVALUE PUSH2 0x64F JUMPI DUP2 PUSH1 0x3 NOT CALLDATASIZE ADD SLT PUSH2 0x64F JUMPI PUSH2 0x12F SLOAD SWAP1 MLOAD PUSH1 0x1 PUSH1 0x1 PUSH1 0xA0 SHL SUB SWAP1 SWAP2 AND DUP2 MSTORE PUSH1 0x20 SWAP1 RETURN JUMPDEST DUP3 DUP5 PUSH2 0x2417 CALLDATASIZE PUSH1 0x4 PUSH2 0x3DD5 JUMP JUMPDEST SWAP5 SWAP3 SWAP1 PUSH2 0x2422 PUSH2 0x5029 JUMP JUMPDEST PUSH2 0x242A PUSH2 0x5837 JUMP JUMPDEST PUSH2 0x2434 DUP2 CALLER PUSH2 0x4A74 JUMP JUMPDEST DUP4 MLOAD SWAP2 PUSH2 0x2442 PUSH1 0xA0 DUP5 PUSH2 0x3D81 JUMP JUMPDEST DUP3 MSTORE PUSH1 0x20 DUP1 DUP4 ADD DUP5 DUP2 MSTORE CALLER DUP7 DUP6 ADD MSTORE PUSH1 0x1 PUSH1 0x1 PUSH1 0xA0 SHL SUB SWAP3 DUP4 AND PUSH1 0x60 DUP6 ADD SWAP1 DUP2 MSTORE SWAP8 DUP4 AND PUSH1 0x80 DUP6 ADD SWAP1 DUP2 MSTORE PUSH2 0x14F SLOAD DUP8 MLOAD PUSH4 0xE97A4D63 PUSH1 0xE0 SHL DUP2 MSTORE DUP7 MLOAD PUSH1 0x4 DUP3 ADD MSTORE SWAP3 MLOAD PUSH1 0x24 DUP5 ADD MSTORE PUSH1 0x40 SWAP1 SWAP6 ADD MLOAD DUP5 AND PUSH1 0x44 DUP4 ADD MSTORE SWAP8 MLOAD DUP4 AND PUSH1 0x64 DUP3 ADD MSTORE SWAP7 MLOAD DUP3 AND PUSH1 0x84 DUP9 ADD MSTORE SWAP6 SWAP2 DUP7 SWAP2 DUP4 SWAP2 PUSH1 0xA4 SWAP2 DUP4 SWAP2 AND PUSH2 0x6E2 JUMP JUMPDEST POP POP CALLVALUE PUSH2 0x64F JUMPI DUP2 PUSH1 0x3 NOT CALLDATASIZE ADD SLT PUSH2 0x64F JUMPI PUSH2 0x133 SLOAD SWAP1 MLOAD PUSH1 0x1 PUSH1 0x1 PUSH1 0xA0 SHL SUB SWAP1 SWAP2 AND DUP2 MSTORE PUSH1 0x20 SWAP1 RETURN JUMPDEST DUP4 CALLVALUE PUSH2 0x7A5 JUMPI DUP1 PUSH1 0x3 NOT CALLDATASIZE ADD SLT PUSH2 0x7A5 JUMPI PUSH1 0x34 PUSH2 0x1F6 SSTORE DUP1 RETURN JUMPDEST POP POP CALLVALUE PUSH2 0x64F JUMPI DUP2 PUSH1 0x3 NOT CALLDATASIZE ADD SLT PUSH2 0x64F JUMPI PUSH1 0x20 SWAP1 PUSH2 0x14E SLOAD SWAP1 MLOAD SWAP1 DUP2 MSTORE RETURN JUMPDEST POP POP CALLVALUE PUSH2 0x64F JUMPI DUP2 PUSH1 0x3 NOT CALLDATASIZE ADD SLT PUSH2 0x64F JUMPI PUSH1 0x20 SWAP1 PUSH1 0xFF PUSH1 0xCA SLOAD PUSH1 0x8 SHR AND SWAP1 MLOAD SWAP1 ISZERO ISZERO DUP2 MSTORE RETURN JUMPDEST POP POP CALLVALUE PUSH2 0x64F JUMPI DUP2 PUSH1 0x3 NOT CALLDATASIZE ADD SLT PUSH2 0x64F JUMPI PUSH2 0x2560 PUSH2 0x5837 JUMP JUMPDEST PUSH2 0x14D DUP1 SLOAD NUMBER LT PUSH2 0x2730 JUMPI PUSH2 0x14C SLOAD NUMBER ADD SWAP1 SSTORE PUSH32 0xD3C59BDA47E141A8EC5A33D241B7F71B86E30D359F83A9227D912858B60404FC DUP3 DUP1 LOG1 PUSH2 0x137 SLOAD DUP3 PUSH2 0x25A5 DUP3 PUSH2 0x47E2 JUMP JUMPDEST SWAP2 DUP5 JUMPDEST DUP2 DUP2 LT PUSH2 0x2661 JUMPI POP POP DUP1 PUSH2 0x261C JUMPI JUMPDEST SWAP2 DUP1 MLOAD SWAP3 DUP2 DUP5 ADD SWAP1 DUP5 MSTORE PUSH1 0x20 SWAP2 DUP3 DUP6 ADD MSTORE DUP3 MLOAD DUP1 SWAP2 MSTORE DUP2 PUSH1 0x60 DUP6 ADD SWAP4 ADD SWAP2 DUP6 JUMPDEST DUP3 DUP2 LT PUSH2 0x2608 JUMPI DUP7 PUSH32 0xAE5116A8119D08673A0F1DFA7546B95DA4BD54BB17FEDA7C61130AC7859152F6 DUP8 DUP8 SUB DUP9 LOG1 DUP1 RETURN JUMPDEST DUP4 MLOAD DUP6 MSTORE SWAP4 DUP2 ADD SWAP4 SWAP3 DUP2 ADD SWAP3 PUSH1 0x1 ADD PUSH2 0x25D7 JUMP JUMPDEST PUSH2 0x2633 PUSH8 0xDE0B6B3A7640000 SWAP2 PUSH2 0x139 SLOAD SWAP1 PUSH2 0x4606 JUMP JUMPDEST DIV PUSH2 0x131 PUSH2 0x2642 DUP3 DUP3 SLOAD PUSH2 0x43F9 JUMP JUMPDEST SWAP1 SSTORE PUSH2 0x146 SLOAD PUSH2 0x265C SWAP1 DUP3 SWAP1 PUSH1 0x1 PUSH1 0x1 PUSH1 0xA0 SHL SUB AND PUSH2 0x42A3 JUMP JUMPDEST PUSH2 0x25B7 JUMP JUMPDEST PUSH2 0x266A DUP2 PUSH2 0x4703 JUMP JUMPDEST PUSH2 0x2674 DUP2 DUP4 PUSH2 0x4B78 JUMP JUMPDEST DUP7 PUSH2 0x150 SWAP2 DUP7 PUSH2 0x2684 DUP6 DUP6 PUSH2 0x3C30 JUMP JUMPDEST SWAP1 SLOAD SWAP1 PUSH1 0x3 SHL SHR SWAP2 DUP4 DUP4 SGT PUSH2 0x26A1 JUMPI JUMPDEST POP POP POP POP POP PUSH1 0x1 ADD PUSH2 0x25A8 JUMP JUMPDEST SWAP5 PUSH2 0x26E6 DUP4 DUP3 SWAP7 SWAP10 PUSH2 0x26EC SWAP5 PUSH2 0x26E0 DUP6 PUSH2 0x26D3 PUSH2 0x26D9 PUSH2 0x2703 SWAP11 PUSH1 0x1 SWAP15 PUSH8 0xDE0B6B3A7640000 SWAP4 DUP5 SWAP2 PUSH2 0x13A SLOAD PUSH2 0x4606 JUMP JUMPDEST DIV PUSH2 0x4606 JUMP JUMPDEST DIV SWAP3 PUSH2 0x44E1 JUMP JUMPDEST MSTORE PUSH2 0x44D4 JUMP JUMPDEST SWAP8 PUSH2 0x3C30 JUMP JUMPDEST DUP2 SWAP4 SWAP2 SLOAD SWAP1 PUSH1 0x3 SHL SWAP2 DUP3 SHL SWAP2 PUSH1 0x0 NOT SWAP1 SHL NOT AND OR SWAP1 JUMP JUMPDEST SWAP1 SSTORE PUSH2 0x2726 PUSH2 0x2712 DUP3 DUP8 PUSH2 0x44E1 JUMP JUMPDEST MLOAD DUP9 DUP5 DUP1 PUSH1 0xA0 SHL SUB PUSH2 0x147 SLOAD AND SWAP2 DUP5 PUSH2 0x4AB8 JUMP JUMPDEST SWAP1 DUP7 CODESIZE DUP7 DUP2 PUSH2 0x2694 JUMP JUMPDEST DUP2 MLOAD PUSH4 0x101B6859 PUSH1 0xE0 SHL DUP2 MSTORE PUSH1 0x4 SWAP1 REVERT JUMPDEST DUP3 DUP5 CALLVALUE PUSH2 0x7A5 JUMPI DUP2 PUSH1 0x3 NOT CALLDATASIZE ADD SLT PUSH2 0x7A5 JUMPI PUSH1 0x1 PUSH1 0x1 PUSH1 0xA0 SHL SUB PUSH1 0x4 CALLDATALOAD DUP2 DUP2 AND DUP2 SUB PUSH2 0x72D JUMPI PUSH1 0x24 CALLDATALOAD SWAP2 PUSH2 0x14F SLOAD AND CALLER SUB PUSH2 0xAD4 JUMPI SWAP1 PUSH2 0xAD1 SWAP2 PUSH2 0x14E DUP3 DUP2 SLOAD SUB SWAP1 SSTORE PUSH2 0x42A3 JUMP JUMPDEST POP POP CALLVALUE PUSH2 0x64F JUMPI DUP2 PUSH1 0x3 NOT CALLDATASIZE ADD SLT PUSH2 0x64F JUMPI PUSH1 0x20 SWAP1 PUSH2 0x157 SLOAD SWAP1 MLOAD SWAP1 DUP2 MSTORE RETURN JUMPDEST POP POP CALLVALUE PUSH2 0x64F JUMPI DUP2 PUSH1 0x3 NOT CALLDATASIZE ADD SLT PUSH2 0x64F JUMPI PUSH1 0x20 SWAP1 PUSH2 0x79E PUSH2 0x1F6 SLOAD PUSH8 0xDE0B6B3A7640000 PUSH2 0x149 SLOAD DIV SWAP1 PUSH2 0x44D4 JUMP JUMPDEST DUP4 CALLVALUE PUSH2 0x7A5 JUMPI PUSH1 0x20 CALLDATASIZE PUSH1 0x3 NOT ADD SLT PUSH2 0x7A5 JUMPI PUSH2 0x27F3 PUSH2 0x57A9 JUMP JUMPDEST PUSH1 0x4 CALLDATALOAD PUSH2 0x143 SSTORE DUP1 RETURN JUMPDEST DUP3 DUP5 CALLVALUE PUSH2 0x7A5 JUMPI DUP2 PUSH1 0x3 NOT CALLDATASIZE ADD SLT PUSH2 0x7A5 JUMPI PUSH1 0x1 PUSH1 0x1 PUSH1 0xA0 SHL SUB PUSH1 0x4 CALLDATALOAD DUP2 DUP2 AND DUP2 SUB PUSH2 0x72D JUMPI DUP2 PUSH2 0x14F SLOAD AND CALLER SUB PUSH2 0xAD4 JUMPI SWAP1 PUSH2 0xAD1 SWAP2 PUSH1 0x24 CALLDATALOAD SWAP2 PUSH2 0x133 SLOAD AND PUSH2 0x5770 JUMP JUMPDEST DUP4 CALLVALUE PUSH2 0x7A5 JUMPI PUSH1 0x20 CALLDATASIZE PUSH1 0x3 NOT ADD SLT PUSH2 0x7A5 JUMPI PUSH1 0x4 CALLDATALOAD PUSH1 0x1 PUSH1 0x1 PUSH1 0xA0 SHL SUB DUP2 AND DUP2 SUB PUSH2 0x72D JUMPI PUSH2 0xAD1 SWAP1 PUSH2 0x1C2B PUSH2 0x57A9 JUMP JUMPDEST DUP3 DUP5 CALLVALUE PUSH2 0x7A5 JUMPI DUP1 PUSH1 0x3 NOT CALLDATASIZE ADD SLT PUSH2 0x7A5 JUMPI POP PUSH32 0x0 PUSH1 0x1 PUSH1 0x1 PUSH1 0xA0 SHL SUB AND ADDRESS SUB PUSH2 0x28DF JUMPI PUSH1 0x20 SWAP1 MLOAD PUSH32 0x360894A13BA1A3210667C828492DB98DCA3E2076CC3735A920A3CA505D382BBC DUP2 MSTORE RETURN JUMPDEST MLOAD PUSH3 0x461BCD PUSH1 0xE5 SHL DUP2 MSTORE PUSH1 0x20 PUSH1 0x4 DUP3 ADD MSTORE PUSH1 0x38 PUSH1 0x24 DUP3 ADD MSTORE PUSH32 0x555550535570677261646561626C653A206D757374206E6F742062652063616C PUSH1 0x44 DUP3 ADD MSTORE PUSH32 0x6C6564207468726F7567682064656C656761746563616C6C0000000000000000 PUSH1 0x64 DUP3 ADD MSTORE PUSH1 0x84 SWAP1 REVERT JUMPDEST DUP4 CALLVALUE PUSH2 0x7A5 JUMPI DUP1 PUSH1 0x3 NOT CALLDATASIZE ADD SLT PUSH2 0x7A5 JUMPI PUSH2 0x2961 PUSH2 0x57A9 JUMP JUMPDEST PUSH1 0xFF NOT PUSH1 0xCA SLOAD AND PUSH1 0xCA SSTORE DUP1 RETURN JUMPDEST POP POP DUP1 PUSH1 0x3 NOT CALLDATASIZE ADD SLT PUSH2 0x64F JUMPI PUSH1 0x4 CALLDATALOAD SWAP1 PUSH1 0x1 PUSH1 0x1 PUSH1 0xA0 SHL SUB SWAP1 DUP2 DUP4 AND DUP4 SUB PUSH2 0x72D JUMPI DUP4 SWAP3 PUSH1 0x24 CALLDATALOAD SWAP3 PUSH8 0xFFFFFFFFFFFFFFFF DUP5 GT PUSH2 0x1CCA JUMPI CALLDATASIZE PUSH1 0x23 DUP6 ADD SLT ISZERO PUSH2 0x1CCA JUMPI DUP4 PUSH1 0x4 ADD CALLDATALOAD SWAP1 PUSH2 0x29CC PUSH2 0x29C3 DUP4 PUSH2 0x3DB9 JUMP JUMPDEST SWAP5 MLOAD SWAP5 DUP6 PUSH2 0x3D81 JUMP JUMPDEST DUP2 DUP5 MSTORE CALLDATASIZE PUSH1 0x24 DUP4 DUP8 ADD ADD GT PUSH2 0x2A5A JUMPI PUSH2 0xAD1 SWAP6 PUSH1 0x20 DUP4 PUSH2 0x2A4D SWAP5 PUSH1 0x24 PUSH1 0x1 SWAP10 ADD DUP4 DUP10 ADD CALLDATACOPY DUP7 ADD ADD MSTORE DUP1 PUSH32 0x0 AND SWAP1 PUSH2 0x2A24 DUP3 ADDRESS EQ ISZERO PUSH2 0x3DFB JUMP JUMPDEST PUSH32 0x360894A13BA1A3210667C828492DB98DCA3E2076CC3735A920A3CA505D382BBC SLOAD AND EQ PUSH2 0x3E5C JUMP JUMPDEST PUSH2 0x2A55 PUSH2 0x57A9 JUMP JUMPDEST PUSH2 0x3EBD JUMP JUMPDEST DUP6 DUP1 REVERT JUMPDEST POP POP CALLVALUE PUSH2 0x64F JUMPI DUP2 PUSH1 0x3 NOT CALLDATASIZE ADD SLT PUSH2 0x64F JUMPI PUSH1 0x20 SWAP1 PUSH2 0x13B SLOAD SWAP1 MLOAD SWAP1 DUP2 MSTORE RETURN JUMPDEST POP POP CALLVALUE PUSH2 0x64F JUMPI DUP2 PUSH1 0x3 NOT CALLDATASIZE ADD SLT PUSH2 0x64F JUMPI PUSH2 0x147 SLOAD SWAP1 MLOAD PUSH1 0x1 PUSH1 0x1 PUSH1 0xA0 SHL SUB SWAP1 SWAP2 AND DUP2 MSTORE PUSH1 0x20 SWAP1 RETURN JUMPDEST POP POP CALLVALUE PUSH2 0x64F JUMPI DUP2 PUSH1 0x3 NOT CALLDATASIZE ADD SLT PUSH2 0x64F JUMPI PUSH1 0x20 SWAP1 PUSH2 0x14C SLOAD SWAP1 MLOAD SWAP1 DUP2 MSTORE RETURN JUMPDEST POP POP CALLVALUE PUSH2 0x64F JUMPI PUSH1 0x20 CALLDATASIZE PUSH1 0x3 NOT ADD SLT PUSH2 0x64F JUMPI PUSH1 0x4 CALLDATALOAD PUSH2 0x137 DUP1 SLOAD DUP3 LT ISZERO PUSH2 0x9F5 JUMPI SWAP1 PUSH2 0x2AF4 SWAP2 PUSH2 0x3D65 JUMP JUMPDEST POP DUP1 SLOAD PUSH1 0x1 SWAP1 SWAP2 ADD SLOAD DUP3 MLOAD SWAP2 DUP3 MSTORE PUSH1 0x1 PUSH1 0x1 PUSH1 0xA0 SHL SUB AND PUSH1 0x20 DUP3 ADD MSTORE RETURN JUMPDEST DUP4 SWAP2 POP CALLVALUE PUSH2 0x64F JUMPI CALLDATASIZE PUSH1 0x3 NOT ADD SLT PUSH2 0x7A5 JUMPI POP PUSH2 0x2B2D PUSH2 0x5144 JUMP JUMPDEST POP PUSH2 0x14F SLOAD PUSH1 0x1 PUSH1 0x1 PUSH1 0xA0 SHL SUB SWAP1 DUP2 AND CALLER SUB PUSH2 0x11B7 JUMPI PUSH2 0xCF3 PUSH2 0xCE9 SWAP2 PUSH2 0x2B55 CALLDATASIZE PUSH1 0x4 PUSH2 0x56FD JUMP JUMPDEST SWAP4 PUSH2 0x2B5E PUSH2 0x5144 JUMP JUMPDEST POP PUSH2 0x2B67 PUSH2 0x5029 JUMP JUMPDEST PUSH2 0x2B6F PUSH2 0x5837 JUMP JUMPDEST PUSH2 0x1179 PUSH2 0xC89 DUP3 MLOAD PUSH4 0xD9B6C2E5 PUSH1 0xE0 SHL PUSH1 0x20 DUP3 ADD MSTORE PUSH2 0xC6E PUSH1 0x24 DUP3 ADD DUP10 PUSH2 0x50F4 JUMP JUMPDEST DUP3 DUP5 CALLVALUE PUSH2 0x7A5 JUMPI DUP2 PUSH1 0x3 NOT CALLDATASIZE ADD SLT PUSH2 0x7A5 JUMPI POP PUSH1 0x4 CALLDATALOAD PUSH1 0x1 PUSH1 0x1 PUSH1 0xA0 SHL SUB DUP2 DUP2 AND SWAP2 DUP3 SWAP1 SUB PUSH2 0x72D JUMPI PUSH1 0x24 CALLDATALOAD SWAP2 DUP2 DUP4 AND SWAP2 DUP3 DUP5 SUB PUSH2 0x72D JUMPI PUSH2 0x2C27 SWAP3 PUSH2 0x2BD5 PUSH2 0x5837 JUMP JUMPDEST PUSH2 0x2BDF DUP6 CALLER PUSH2 0x4A74 JUMP JUMPDEST PUSH2 0x2BE8 ADDRESS PUSH2 0x4459 JUMP JUMPDEST SWAP1 DUP7 MLOAD SWAP4 PUSH4 0x2AB7831F PUSH1 0xE0 SHL PUSH1 0x20 DUP7 ADD MSTORE PUSH1 0x24 DUP6 ADD MSTORE CALLER PUSH1 0x44 DUP6 ADD MSTORE PUSH1 0x64 DUP5 ADD MSTORE PUSH1 0x84 DUP4 ADD MSTORE PUSH1 0x84 DUP3 MSTORE PUSH2 0x2C1D PUSH1 0xA4 DUP4 PUSH2 0x3D81 JUMP JUMPDEST PUSH2 0x1F7 SLOAD AND PUSH2 0x4A52 JUMP JUMPDEST SWAP2 PUSH1 0x20 DUP4 DUP1 MLOAD DUP2 ADD SUB SLT PUSH2 0x72D JUMPI PUSH2 0x6FD PUSH1 0x20 DUP1 SWAP5 ADD MLOAD DUP1 SWAP4 PUSH2 0x42A3 JUMP JUMPDEST POP POP CALLVALUE PUSH2 0x64F JUMPI DUP2 PUSH1 0x3 NOT CALLDATASIZE ADD SLT PUSH2 0x64F JUMPI PUSH1 0x20 SWAP1 PUSH2 0x13E SLOAD SWAP1 MLOAD SWAP1 DUP2 MSTORE RETURN JUMPDEST POP POP CALLVALUE PUSH2 0x64F JUMPI DUP2 PUSH1 0x3 NOT CALLDATASIZE ADD SLT PUSH2 0x64F JUMPI PUSH1 0x20 SWAP1 PUSH2 0x79E PUSH2 0x2C90 PUSH2 0x2C88 PUSH2 0x4E68 JUMP JUMPDEST SWAP2 SWAP1 SWAP2 PUSH2 0x44F5 JUMP JUMPDEST SWAP2 PUSH2 0x4C5E JUMP JUMPDEST POP POP CALLVALUE PUSH2 0x64F JUMPI DUP2 PUSH1 0x3 NOT CALLDATASIZE ADD SLT PUSH2 0x64F JUMPI PUSH1 0xCA SLOAD PUSH1 0xFF DUP2 PUSH1 0x8 SHR AND ISZERO PUSH2 0x2D91 JUMPI PUSH1 0x1 DUP1 PUSH1 0xA0 SHL SUB DUP1 DUP3 PUSH1 0x10 SHR AND CALLER EQ ISZERO SWAP1 DUP2 PUSH2 0x2D11 JUMPI JUMPDEST POP PUSH2 0x1F8C JUMPI PUSH1 0xFF DUP2 AND ISZERO PUSH2 0x1F7B JUMPI PUSH2 0xFF00 NOT AND PUSH1 0xCA SSTORE MLOAD CALLER DUP2 MSTORE PUSH32 0x5DB9EE0A495BF2E6FF9C91A7834C1BA4FDD244A5E8AA4E537BD38AEAE4B073AA SWAP1 PUSH1 0x20 SWAP1 LOG1 DUP1 RETURN JUMPDEST PUSH1 0x97 SLOAD DUP5 MLOAD PUSH4 0xD994D6D5 PUSH1 0xE0 SHL DUP2 MSTORE CALLER PUSH1 0x4 DUP3 ADD MSTORE SWAP3 POP PUSH1 0x20 SWAP2 DUP4 SWAP2 PUSH1 0x24 SWAP2 DUP4 SWAP2 AND GAS STATICCALL SWAP1 DUP2 ISZERO PUSH2 0x2D84 JUMPI DUP5 SWAP2 PUSH2 0x2D4B JUMPI JUMPDEST POP ISZERO CODESIZE PUSH2 0x2CCE JUMP JUMPDEST SWAP1 POP PUSH1 0x20 DUP2 RETURNDATASIZE DUP3 GT PUSH2 0x2D7C JUMPI JUMPDEST DUP2 PUSH2 0x2D65 PUSH1 0x20 SWAP4 DUP4 PUSH2 0x3D81 JUMP JUMPDEST DUP2 ADD SUB SLT PUSH2 0x9F5 JUMPI PUSH2 0x2D76 SWAP1 PUSH2 0x42FA JUMP JUMPDEST CODESIZE PUSH2 0x2D43 JUMP JUMPDEST RETURNDATASIZE SWAP2 POP PUSH2 0x2D58 JUMP JUMPDEST POP POP POP MLOAD SWAP1 RETURNDATASIZE SWAP1 DUP3 RETURNDATACOPY RETURNDATASIZE SWAP1 REVERT JUMPDEST DUP2 MLOAD PUSH4 0x7C7FD079 PUSH1 0xE0 SHL DUP2 MSTORE PUSH1 0x4 SWAP1 REVERT JUMPDEST DUP4 CALLVALUE PUSH2 0x7A5 JUMPI PUSH1 0x20 CALLDATASIZE PUSH1 0x3 NOT ADD SLT PUSH2 0x7A5 JUMPI PUSH1 0x4 CALLDATALOAD PUSH1 0x1 PUSH1 0x1 PUSH1 0xA0 SHL SUB DUP2 AND SWAP1 DUP2 SWAP1 SUB PUSH2 0x64F JUMPI PUSH2 0x2DD1 PUSH2 0x57A9 JUMP JUMPDEST PUSH2 0x14F DUP1 SLOAD PUSH1 0x1 PUSH1 0x1 PUSH1 0xA0 SHL SUB NOT AND SWAP1 SWAP2 OR SWAP1 SSTORE DUP1 RETURN JUMPDEST DUP4 CALLVALUE PUSH2 0x7A5 JUMPI PUSH1 0x20 CALLDATASIZE PUSH1 0x3 NOT ADD SLT PUSH2 0x7A5 JUMPI PUSH2 0x2E02 PUSH2 0x57A9 JUMP JUMPDEST PUSH1 0x4 CALLDATALOAD PUSH2 0x190 SSTORE DUP1 RETURN JUMPDEST DUP4 DUP4 CALLVALUE PUSH2 0x64F JUMPI PUSH2 0x100 SWAP2 DUP3 PUSH1 0x3 NOT CALLDATASIZE ADD SLT PUSH2 0x7A5 JUMPI POP PUSH2 0x2E2B PUSH2 0x5144 JUMP JUMPDEST POP PUSH2 0x14F SLOAD PUSH1 0x1 PUSH1 0x1 PUSH1 0xA0 SHL SUB SWAP3 SWAP1 DUP4 AND CALLER SUB PUSH2 0x11B7 JUMPI PUSH2 0x2E4E DUP3 MLOAD SWAP2 DUP3 PUSH2 0x3D81 JUMP JUMPDEST PUSH1 0x4 CALLDATALOAD DUP4 DUP2 AND DUP2 SUB PUSH2 0x72D JUMPI DUP2 MSTORE PUSH1 0x24 CALLDATALOAD DUP4 DUP2 AND DUP2 SUB PUSH2 0x72D JUMPI PUSH1 0x20 DUP3 ADD MSTORE PUSH1 0x44 CALLDATALOAD DUP3 DUP3 ADD MSTORE PUSH1 0x64 CALLDATALOAD PUSH1 0x60 DUP3 ADD MSTORE PUSH1 0x80 DUP2 ADD SWAP2 PUSH1 0x84 CALLDATALOAD DUP4 MSTORE PUSH1 0xA4 CALLDATALOAD SWAP1 DUP5 DUP3 AND DUP3 SUB PUSH2 0x72D JUMPI PUSH1 0xA0 DUP4 ADD SWAP2 DUP3 MSTORE PUSH1 0xC4 CALLDATALOAD DUP6 DUP2 AND DUP2 SUB PUSH2 0x72D JUMPI PUSH1 0xC0 DUP5 ADD MSTORE PUSH1 0xE4 CALLDATALOAD SWAP3 DUP6 DUP5 AND DUP5 SUB PUSH2 0x72D JUMPI DUP6 PUSH2 0xCF3 SWAP6 PUSH2 0x2F0A PUSH2 0xC89 PUSH2 0x8CF PUSH2 0xC7E DUP7 PUSH2 0x139F SWAP14 PUSH2 0xCE9 SWAP9 ADD SWAP11 DUP12 MSTORE PUSH2 0x2EDE PUSH2 0x5144 JUMP JUMPDEST POP PUSH2 0x2EE7 PUSH2 0x5029 JUMP JUMPDEST PUSH2 0x2EEF PUSH2 0x5837 JUMP JUMPDEST DUP9 MLOAD PUSH4 0x70F090ED PUSH1 0xE1 SHL PUSH1 0x20 DUP3 ADD MSTORE SWAP3 DUP4 SWAP2 PUSH1 0x24 DUP4 ADD PUSH2 0x5090 JUMP JUMPDEST SWAP9 SWAP3 DUP1 SWAP12 DUP11 SWAP7 SWAP4 SWAP14 SWAP3 SWAP10 DUP7 MLOAD PUSH2 0x1394 PUSH2 0x14E SWAP2 DUP3 SLOAD PUSH2 0x43F9 JUMP JUMPDEST POP POP CALLVALUE PUSH2 0x64F JUMPI PUSH1 0x20 CALLDATASIZE PUSH1 0x3 NOT ADD SLT PUSH2 0x64F JUMPI PUSH1 0x4 CALLDATALOAD SWAP2 PUSH2 0x138 SWAP1 DUP2 SLOAD DUP5 LT ISZERO PUSH2 0x7A5 JUMPI POP PUSH1 0x20 SWAP3 PUSH2 0x2071 SWAP2 PUSH2 0x3C30 JUMP JUMPDEST POP POP CALLVALUE PUSH2 0x64F JUMPI PUSH1 0x20 CALLDATASIZE PUSH1 0x3 NOT ADD SLT PUSH2 0x64F JUMPI PUSH1 0x4 CALLDATALOAD SWAP1 PUSH1 0x1 PUSH1 0x1 PUSH1 0xA0 SHL SUB SWAP1 DUP2 DUP4 AND DUP4 SUB PUSH2 0x72D JUMPI PUSH2 0xAD1 SWAP3 PUSH2 0x2FB7 DUP4 DUP7 SWAP5 PUSH32 0x0 AND SWAP1 PUSH2 0x2A24 DUP3 ADDRESS EQ ISZERO PUSH2 0x3DFB JUMP JUMPDEST PUSH2 0x2FBF PUSH2 0x57A9 JUMP JUMPDEST PUSH2 0x2FD4 PUSH2 0x2FCB DUP5 PUSH2 0x3DB9 JUMP JUMPDEST SWAP3 MLOAD SWAP3 DUP4 PUSH2 0x3D81 JUMP JUMPDEST DUP3 DUP3 MSTORE PUSH1 0x1F NOT PUSH2 0x2FE3 DUP5 PUSH2 0x3DB9 JUMP JUMPDEST ADD CALLDATASIZE PUSH1 0x20 DUP5 ADD CALLDATACOPY PUSH2 0x3EBD JUMP JUMPDEST DUP3 DUP5 PUSH2 0x2FFC CALLDATASIZE PUSH1 0x4 PUSH2 0x3C72 JUMP JUMPDEST SWAP7 SWAP5 PUSH2 0x300C SWAP9 SWAP2 SWAP4 SWAP5 SWAP3 SWAP9 PUSH2 0x5029 JUMP JUMPDEST PUSH2 0x3014 PUSH2 0x5837 JUMP JUMPDEST PUSH2 0x301E DUP5 CALLER PUSH2 0x4A74 JUMP JUMPDEST PUSH2 0x302A DUP7 MLOAD SWAP3 DUP4 PUSH2 0x3D81 JUMP JUMPDEST PUSH1 0x1 DUP1 PUSH1 0xA0 SHL SUB SWAP8 DUP9 DUP1 DUP1 SWAP4 AND SWAP6 DUP7 DUP6 MSTORE PUSH1 0x20 SWAP12 DUP7 DUP14 DUP8 ADD MSTORE DUP9 DUP11 DUP8 ADD MSTORE PUSH1 0x60 DUP7 ADD MSTORE CALLER PUSH1 0x80 DUP7 ADD MSTORE AND PUSH1 0xA0 DUP5 ADD MSTORE AND PUSH1 0xC0 DUP3 ADD MSTORE DUP8 PUSH2 0x3087 PUSH1 0xE4 DUP10 PUSH2 0x14F SLOAD AND SWAP4 DUP9 MLOAD SWAP5 DUP6 SWAP4 DUP5 SWAP3 PUSH4 0xE4E1B729 PUSH1 0xE0 SHL DUP5 MSTORE PUSH1 0x4 DUP5 ADD SWAP1 PUSH2 0x50F4 JUMP JUMPDEST CALLVALUE SWAP1 GAS CALL SWAP6 DUP7 ISZERO PUSH2 0x30ED JUMPI SWAP6 PUSH2 0x30BA JUMPI JUMPDEST POP PUSH2 0x30B1 SWAP1 PUSH2 0x6FD SWAP5 SWAP6 SWAP7 PUSH2 0x133 SLOAD AND ADDRESS SWAP1 CALLER SWAP1 PUSH2 0x4FE5 JUMP JUMPDEST ADDRESS SWAP1 CALLER SWAP1 PUSH2 0x4FE5 JUMP JUMPDEST SWAP1 SWAP4 SWAP5 POP DUP7 DUP2 DUP2 RETURNDATASIZE DUP4 GT PUSH2 0x30E6 JUMPI JUMPDEST PUSH2 0x30D3 DUP2 DUP4 PUSH2 0x3D81 JUMP JUMPDEST DUP2 ADD SUB SLT PUSH2 0x72D JUMPI MLOAD SWAP4 SWAP3 PUSH2 0x30B1 PUSH2 0x3098 JUMP JUMPDEST POP RETURNDATASIZE PUSH2 0x30C9 JUMP JUMPDEST DUP6 MLOAD SWAP1 RETURNDATASIZE SWAP1 DUP3 RETURNDATACOPY RETURNDATASIZE SWAP1 REVERT JUMPDEST POP POP CALLVALUE PUSH2 0x64F JUMPI DUP2 PUSH1 0x3 NOT CALLDATASIZE ADD SLT PUSH2 0x64F JUMPI PUSH2 0x3112 PUSH2 0x441C JUMP JUMPDEST PUSH2 0x311A PUSH2 0x5837 JUMP JUMPDEST PUSH2 0x14B DUP1 SLOAD PUSH1 0xFF DUP2 AND DUP1 PUSH2 0x31E5 JUMPI JUMPDEST DUP1 PUSH2 0x31CB JUMPI JUMPDEST PUSH2 0x3137 JUMPI DUP4 DUP1 RETURN JUMPDEST PUSH2 0xFF00 NOT AND PUSH2 0x100 OR SWAP1 SSTORE DUP1 MLOAD SWAP1 DUP3 SWAP1 PUSH32 0x8B77276C97A5709F0D6DB52329848A254EB760CE8BE80D281799F633BDB69E83 DUP3 DUP1 LOG1 PUSH2 0x133 SLOAD PUSH1 0x1 PUSH1 0x1 PUSH1 0xA0 SHL SUB AND DUP1 EXTCODESIZE ISZERO PUSH2 0x8F3 JUMPI DUP4 PUSH1 0x4 DUP2 DUP6 DUP1 SWAP5 PUSH4 0x8456CB59 PUSH1 0xE0 SHL DUP4 MSTORE GAS CALL SWAP1 DUP2 ISZERO PUSH2 0x31C0 JUMPI POP PUSH2 0x31B0 JUMPI JUMPDEST POP POP PUSH2 0x31A9 PUSH2 0x5858 JUMP JUMPDEST CODESIZE DUP1 DUP1 DUP4 DUP1 RETURN JUMPDEST PUSH2 0x31B9 SWAP2 PUSH2 0x3D81 JUMP JUMPDEST CODESIZE DUP2 PUSH2 0x319F JUMP JUMPDEST MLOAD SWAP2 RETURNDATASIZE SWAP2 POP DUP3 RETURNDATACOPY RETURNDATASIZE SWAP1 REVERT JUMPDEST POP PUSH2 0x31DA PUSH2 0x17C7 PUSH2 0xB21 PUSH2 0x4814 JUMP JUMPDEST PUSH2 0x14A SLOAD LT ISZERO PUSH2 0x312F JUMP JUMPDEST POP PUSH1 0xFF DUP2 PUSH1 0x8 SHR AND ISZERO PUSH2 0x3129 JUMP JUMPDEST POP POP CALLVALUE PUSH2 0x64F JUMPI DUP2 PUSH1 0x3 NOT CALLDATASIZE ADD SLT PUSH2 0x64F JUMPI PUSH1 0x20 SWAP1 PUSH2 0x13F SLOAD SWAP1 MLOAD SWAP1 DUP2 MSTORE RETURN JUMPDEST DUP4 DUP4 DUP3 PUSH1 0x3 NOT CALLDATASIZE ADD SLT PUSH2 0x64F JUMPI PUSH1 0x1 PUSH1 0x1 PUSH1 0xA0 SHL SUB SWAP3 PUSH1 0x4 CALLDATALOAD DUP5 DUP2 AND SWAP1 DUP2 SWAP1 SUB PUSH2 0x9F5 JUMPI PUSH1 0x24 CALLDATALOAD SWAP1 DUP6 DUP3 AND DUP1 SWAP3 SUB PUSH2 0x1CCA JUMPI PUSH1 0x44 CALLDATALOAD SWAP2 PUSH1 0x84 CALLDATALOAD SWAP4 PUSH1 0xA4 CALLDATALOAD SWAP8 DUP1 DUP10 AND SWAP9 DUP10 DUP2 SUB PUSH2 0x3346 JUMPI PUSH1 0xC4 CALLDATALOAD SWAP1 DUP3 DUP3 AND DUP1 SWAP3 SUB PUSH2 0x3342 JUMPI SWAP1 PUSH2 0x328B PUSH2 0x32E6 SWAP6 SWAP5 SWAP4 SWAP3 PUSH2 0x327D PUSH2 0x5029 JUMP JUMPDEST PUSH2 0x3285 PUSH2 0x5837 JUMP JUMPDEST CALLER PUSH2 0x4A74 JUMP JUMPDEST DUP9 MLOAD SWAP3 PUSH2 0x329A PUSH2 0x100 DUP6 PUSH2 0x3D81 JUMP JUMPDEST DUP7 DUP5 MSTORE PUSH1 0x20 SWAP12 DUP13 SWAP6 DUP7 DUP7 ADD MSTORE DUP9 DUP12 DUP7 ADD MSTORE PUSH1 0x64 CALLDATALOAD PUSH1 0x60 DUP7 ADD MSTORE DUP10 PUSH1 0x80 DUP7 ADD MSTORE CALLER PUSH1 0xA0 DUP7 ADD MSTORE PUSH1 0xC0 DUP6 ADD MSTORE DUP4 ADD MSTORE PUSH2 0x14F SLOAD AND DUP8 MLOAD DUP1 DUP1 SWAP6 DUP2 SWAP5 PUSH4 0x34975A41 PUSH1 0xE0 SHL DUP4 MSTORE PUSH1 0x4 DUP4 ADD PUSH2 0x5090 JUMP JUMPDEST SUB SWAP2 CALLVALUE SWAP1 GAS CALL SWAP6 DUP7 ISZERO PUSH2 0x30ED JUMPI DUP1 SWAP7 PUSH2 0x330E JUMPI JUMPDEST POP POP PUSH2 0x6FD SWAP3 SWAP2 PUSH2 0x220C SWAP2 ADDRESS SWAP1 CALLER SWAP1 PUSH2 0x4FE5 JUMP JUMPDEST SWAP1 SWAP2 SWAP6 POP DUP7 DUP3 DUP2 RETURNDATASIZE DUP4 GT PUSH2 0x333B JUMPI JUMPDEST PUSH2 0x3327 DUP2 DUP4 PUSH2 0x3D81 JUMP JUMPDEST DUP2 ADD SUB SLT PUSH2 0x7A5 JUMPI POP MLOAD SWAP4 DUP2 PUSH2 0x220C PUSH2 0x32FA JUMP JUMPDEST POP RETURNDATASIZE PUSH2 0x331D JUMP JUMPDEST DUP10 DUP1 REVERT JUMPDEST DUP9 DUP1 REVERT JUMPDEST DUP3 DUP5 PUSH2 0x3357 CALLDATASIZE PUSH1 0x4 PUSH2 0x3CF3 JUMP JUMPDEST SWAP2 PUSH2 0x3364 SWAP7 SWAP5 SWAP2 SWAP7 PUSH2 0x5029 JUMP JUMPDEST PUSH2 0x336C PUSH2 0x5837 JUMP JUMPDEST PUSH2 0x3376 DUP8 CALLER PUSH2 0x4A74 JUMP JUMPDEST PUSH2 0x33DA PUSH1 0xC4 DUP7 MLOAD SWAP4 PUSH2 0x3389 PUSH1 0xC0 DUP7 PUSH2 0x3D81 JUMP JUMPDEST PUSH1 0x1 DUP1 PUSH1 0xA0 SHL SUB DUP1 DUP1 SWAP3 AND SWAP7 DUP8 DUP8 MSTORE DUP2 PUSH1 0x20 SWAP13 DUP14 SWAP8 DUP12 DUP10 DUP12 ADD MSTORE DUP13 DUP11 ADD MSTORE CALLER PUSH1 0x60 DUP11 ADD MSTORE AND PUSH1 0x80 DUP9 ADD MSTORE AND PUSH1 0xA0 DUP7 ADD MSTORE PUSH2 0x14F SLOAD AND SWAP4 DUP8 MLOAD SWAP5 DUP6 SWAP4 DUP5 SWAP3 PUSH4 0x6426C5DB PUSH1 0xE1 SHL DUP5 MSTORE PUSH1 0x4 DUP5 ADD SWAP1 PUSH2 0x504B JUMP JUMPDEST CALLVALUE SWAP1 GAS CALL SWAP5 DUP6 ISZERO PUSH2 0x14FD JUMPI DUP1 SWAP6 PUSH2 0x33FC JUMPI JUMPDEST POP POP SWAP1 PUSH2 0x6FD SWAP2 ADDRESS SWAP1 CALLER SWAP1 PUSH2 0x4FE5 JUMP JUMPDEST SWAP1 SWAP2 SWAP5 POP DUP6 DUP3 DUP2 RETURNDATASIZE DUP4 GT PUSH2 0x3429 JUMPI JUMPDEST PUSH2 0x3415 DUP2 DUP4 PUSH2 0x3D81 JUMP JUMPDEST DUP2 ADD SUB SLT PUSH2 0x7A5 JUMPI POP MLOAD SWAP3 PUSH2 0x6FD DUP7 PUSH2 0x33EC JUMP JUMPDEST POP RETURNDATASIZE PUSH2 0x340B JUMP JUMPDEST POP POP CALLVALUE PUSH2 0x64F JUMPI DUP2 PUSH1 0x3 NOT CALLDATASIZE ADD SLT PUSH2 0x64F JUMPI PUSH1 0x20 SWAP1 PUSH2 0x143 SLOAD SWAP1 MLOAD SWAP1 DUP2 MSTORE RETURN JUMPDEST DUP4 CALLVALUE PUSH2 0x7A5 JUMPI PUSH1 0x20 CALLDATASIZE PUSH1 0x3 NOT ADD SLT PUSH2 0x7A5 JUMPI PUSH1 0x4 CALLDATALOAD PUSH1 0x1 PUSH1 0x1 PUSH1 0xA0 SHL SUB DUP2 AND DUP2 SUB PUSH2 0x64F JUMPI PUSH2 0x347D PUSH2 0x57A9 JUMP JUMPDEST PUSH1 0xCA DUP1 SLOAD PUSH3 0x10000 PUSH1 0x1 PUSH1 0xB0 SHL SUB NOT AND PUSH1 0x10 SWAP3 SWAP1 SWAP3 SHL PUSH3 0x10000 PUSH1 0x1 PUSH1 0xB0 SHL SUB AND SWAP2 SWAP1 SWAP2 OR SWAP1 SSTORE DUP1 RETURN JUMPDEST DUP4 CALLVALUE PUSH2 0x7A5 JUMPI PUSH1 0x20 CALLDATASIZE PUSH1 0x3 NOT ADD SLT PUSH2 0x7A5 JUMPI PUSH2 0x34C1 PUSH2 0x57A9 JUMP JUMPDEST PUSH1 0x4 CALLDATALOAD PUSH2 0x14A SSTORE DUP1 RETURN JUMPDEST POP POP CALLVALUE PUSH2 0x64F JUMPI DUP2 PUSH1 0x3 NOT CALLDATASIZE ADD SLT PUSH2 0x64F JUMPI PUSH1 0x20 SWAP1 PUSH2 0x140 SLOAD SWAP1 MLOAD SWAP1 DUP2 MSTORE RETURN JUMPDEST DUP4 CALLVALUE PUSH2 0x7A5 JUMPI PUSH1 0x20 CALLDATASIZE PUSH1 0x3 NOT ADD SLT PUSH2 0x7A5 JUMPI PUSH1 0x4 CALLDATALOAD PUSH1 0x1 PUSH1 0x1 PUSH1 0xA0 SHL SUB DUP2 AND SWAP1 DUP2 SWAP1 SUB PUSH2 0x64F JUMPI PUSH2 0x351A PUSH2 0x57A9 JUMP JUMPDEST PUSH2 0x147 DUP1 SLOAD PUSH1 0x1 PUSH1 0x1 PUSH1 0xA0 SHL SUB NOT AND SWAP1 SWAP2 OR SWAP1 SSTORE DUP1 RETURN JUMPDEST POP POP CALLVALUE PUSH2 0x64F JUMPI DUP2 PUSH1 0x3 NOT CALLDATASIZE ADD SLT PUSH2 0x64F JUMPI PUSH2 0x22A SLOAD SWAP1 MLOAD PUSH1 0x1 PUSH1 0x1 PUSH1 0xA0 SHL SUB SWAP1 SWAP2 AND DUP2 MSTORE PUSH1 0x20 SWAP1 RETURN JUMPDEST POP POP CALLVALUE PUSH2 0x64F JUMPI PUSH1 0x20 CALLDATASIZE PUSH1 0x3 NOT ADD SLT PUSH2 0x64F JUMPI PUSH1 0x4 CALLDATALOAD PUSH1 0x1 PUSH1 0x1 PUSH1 0xA0 SHL SUB DUP2 AND SWAP1 DUP2 SWAP1 SUB PUSH2 0x8F3 JUMPI DUP3 DUP3 SWAP2 PUSH1 0x20 SWAP5 MSTORE PUSH2 0x144 DUP5 MSTORE KECCAK256 SLOAD SWAP1 MLOAD SWAP1 DUP2 MSTORE RETURN JUMPDEST POP POP CALLVALUE PUSH2 0x64F JUMPI DUP2 PUSH1 0x3 NOT CALLDATASIZE ADD SLT PUSH2 0x64F JUMPI PUSH1 0x20 SWAP1 PUSH1 0xFF PUSH2 0x14B SLOAD PUSH1 0x8 SHR AND SWAP1 MLOAD SWAP1 ISZERO ISZERO DUP2 MSTORE RETURN JUMPDEST POP POP CALLVALUE PUSH2 0x64F JUMPI PUSH1 0xA0 CALLDATASIZE PUSH1 0x3 NOT ADD SLT PUSH2 0x64F JUMPI PUSH2 0x35DB PUSH2 0x5144 JUMP JUMPDEST POP PUSH2 0x14F SLOAD PUSH1 0x1 PUSH1 0x1 PUSH1 0xA0 SHL SUB SWAP3 SWAP1 DUP4 AND CALLER SUB PUSH2 0x11B7 JUMPI SWAP1 PUSH2 0x366C SWAP2 PUSH2 0x3602 CALLDATASIZE PUSH1 0x4 PUSH2 0x516B JUMP JUMPDEST SWAP2 PUSH2 0x360B PUSH2 0x5144 JUMP JUMPDEST POP PUSH2 0x3614 PUSH2 0x5029 JUMP JUMPDEST PUSH2 0x361C PUSH2 0x5837 JUMP JUMPDEST PUSH8 0xDE0B6B3A7640000 PUSH2 0x363F PUSH2 0xF7D PUSH2 0x3636 PUSH2 0x15AE PUSH2 0x4814 JUMP JUMPDEST DUP8 MLOAD SWAP3 SWAP2 PUSH2 0x4C2A JUMP JUMPDEST DIV SWAP5 DUP2 DUP5 ADD SWAP1 DUP1 DUP3 MLOAD AND SWAP2 PUSH2 0x3661 PUSH1 0x80 DUP8 ADD SWAP4 DUP10 DUP5 DUP7 MLOAD AND PUSH2 0x13C SLOAD SWAP3 PUSH2 0x520B JUMP JUMPDEST SWAP7 SWAP2 DUP11 SWAP10 SWAP2 SWAP10 PUSH2 0x44D4 JUMP JUMPDEST SWAP7 PUSH1 0x20 DUP2 ADD SWAP10 DUP11 MLOAD DUP1 DUP11 GT PUSH2 0x3795 JUMPI POP DUP9 ISZERO PUSH2 0x3784 JUMPI DUP2 PUSH1 0x20 SWAP2 DUP7 PUSH1 0x60 PUSH2 0x36EF SWAP7 SWAP6 MLOAD SWAP4 ADD MLOAD AND SWAP1 PUSH2 0x134 PUSH2 0x36A2 DUP5 DUP3 SLOAD PUSH2 0x44D4 JUMP JUMPDEST SWAP1 SSTORE PUSH2 0x36B2 PUSH2 0x131 SWAP2 DUP3 SLOAD PUSH2 0x44D4 JUMP JUMPDEST SWAP1 SSTORE PUSH2 0x133 SLOAD DUP10 MLOAD PUSH4 0x40C10F19 PUSH1 0xE0 SHL DUP2 MSTORE PUSH1 0x1 PUSH1 0x1 PUSH1 0xA0 SHL SUB SWAP1 SWAP3 AND PUSH1 0x4 DUP4 ADD MSTORE PUSH1 0x24 DUP3 ADD SWAP3 SWAP1 SWAP3 MSTORE SWAP4 DUP5 SWAP2 DUP8 AND SWAP1 DUP3 SWAP1 DUP6 SWAP1 DUP3 SWAP1 PUSH1 0x44 DUP3 ADD SWAP1 JUMP JUMPDEST SUB SWAP3 GAS CALL DUP1 ISZERO PUSH2 0x3778 JUMPI PUSH2 0x3722 JUMPI JUMPDEST POP POP SWAP7 PUSH2 0x1051 SWAP3 DUP3 PUSH2 0x139F DUP9 DUP9 SWAP6 PUSH2 0xCF3 SWAP11 SWAP12 SWAP13 DUP7 MLOAD PUSH2 0x1394 PUSH2 0x14E SWAP2 DUP3 SLOAD PUSH2 0x43F9 JUMP JUMPDEST PUSH1 0x20 DUP3 RETURNDATASIZE DUP3 GT PUSH2 0x3770 JUMPI JUMPDEST DUP2 PUSH2 0x373A PUSH1 0x20 SWAP4 DUP4 PUSH2 0x3D81 JUMP JUMPDEST DUP2 ADD SUB SLT PUSH2 0x7A5 JUMPI POP SWAP3 DUP3 PUSH2 0x139F DUP9 DUP9 SWAP6 PUSH2 0xCF3 SWAP11 SWAP12 SWAP13 SWAP6 PUSH2 0x375E PUSH2 0x1051 SWAP10 PUSH2 0x42FA JUMP JUMPDEST POP SWAP6 SWAP13 SWAP12 POP SWAP6 POP SWAP9 POP POP DUP2 SWAP5 POP PUSH2 0x36FE JUMP JUMPDEST RETURNDATASIZE SWAP2 POP PUSH2 0x372D JUMP JUMPDEST POP DUP6 MLOAD SWAP1 RETURNDATASIZE SWAP1 DUP3 RETURNDATACOPY RETURNDATASIZE SWAP1 REVERT JUMPDEST DUP7 MLOAD PUSH4 0xF3E39B5D PUSH1 0xE0 SHL DUP2 MSTORE PUSH1 0x4 SWAP1 REVERT JUMPDEST PUSH1 0x44 SWAP1 DUP11 DUP10 MLOAD SWAP2 PUSH4 0xB63F1A7 PUSH1 0xE0 SHL DUP4 MSTORE PUSH1 0x4 DUP4 ADD MSTORE PUSH1 0x24 DUP3 ADD MSTORE REVERT JUMPDEST DUP4 CALLVALUE PUSH2 0x7A5 JUMPI PUSH1 0x20 CALLDATASIZE PUSH1 0x3 NOT ADD SLT PUSH2 0x7A5 JUMPI PUSH2 0x37CC PUSH2 0x57A9 JUMP JUMPDEST PUSH1 0x4 CALLDATALOAD PUSH2 0x142 SSTORE DUP1 RETURN JUMPDEST DUP4 CALLVALUE PUSH2 0x7A5 JUMPI PUSH1 0x20 CALLDATASIZE PUSH1 0x3 NOT ADD SLT PUSH2 0x7A5 JUMPI PUSH1 0x4 CALLDATALOAD DUP1 ISZERO ISZERO DUP1 SWAP2 SUB PUSH2 0x64F JUMPI PUSH2 0x37FD PUSH2 0x57A9 JUMP JUMPDEST PUSH2 0x14B SWAP1 PUSH1 0xFF DUP1 NOT DUP4 SLOAD AND SWAP2 AND OR SWAP1 SSTORE DUP1 RETURN JUMPDEST POP POP CALLVALUE PUSH2 0x64F JUMPI DUP2 PUSH1 0x3 NOT CALLDATASIZE ADD SLT PUSH2 0x64F JUMPI PUSH1 0x20 SWAP1 PUSH2 0x79E PUSH2 0x3833 PUSH2 0xB21 PUSH2 0x4814 JUMP JUMPDEST SWAP1 PUSH2 0x4C2A JUMP JUMPDEST POP POP CALLVALUE PUSH2 0x64F JUMPI DUP2 PUSH1 0x3 NOT CALLDATASIZE ADD SLT PUSH2 0x64F JUMPI PUSH1 0x20 SWAP1 PUSH2 0x14D SLOAD SWAP1 MLOAD SWAP1 DUP2 MSTORE RETURN JUMPDEST DUP4 DUP4 PUSH1 0xE4 PUSH2 0x38EF PUSH2 0x386B CALLDATASIZE PUSH1 0x4 PUSH2 0x3C72 JUMP JUMPDEST SWAP5 PUSH2 0x387B SWAP11 SWAP5 SWAP7 SWAP3 SWAP8 SWAP2 SWAP11 PUSH2 0x5029 JUMP JUMPDEST PUSH2 0x3883 PUSH2 0x5837 JUMP JUMPDEST PUSH2 0x388D DUP12 CALLER PUSH2 0x4A74 JUMP JUMPDEST PUSH2 0x3899 DUP10 MLOAD SWAP6 DUP7 PUSH2 0x3D81 JUMP JUMPDEST PUSH1 0x1 DUP1 PUSH1 0xA0 SHL SUB DUP1 DUP1 SWAP3 AND SWAP7 DUP8 DUP8 MSTORE DUP2 PUSH1 0x20 SWAP14 DUP15 SWAP8 DUP12 DUP10 DUP12 ADD MSTORE DUP14 DUP11 ADD MSTORE DUP12 PUSH1 0x60 DUP11 ADD MSTORE CALLER PUSH1 0x80 DUP11 ADD MSTORE AND PUSH1 0xA0 DUP9 ADD MSTORE AND PUSH1 0xC0 DUP7 ADD MSTORE PUSH2 0x14F SLOAD AND SWAP4 DUP9 MLOAD SWAP5 DUP6 SWAP4 DUP5 SWAP3 PUSH3 0x637447 PUSH1 0xE1 SHL DUP5 MSTORE PUSH1 0x4 DUP5 ADD SWAP1 PUSH2 0x50F4 JUMP JUMPDEST CALLVALUE SWAP1 GAS CALL SWAP6 DUP7 ISZERO PUSH2 0x30ED JUMPI DUP1 SWAP7 PUSH2 0x330E JUMPI POP POP PUSH2 0x6FD SWAP3 SWAP2 PUSH2 0x220C SWAP2 ADDRESS SWAP1 CALLER SWAP1 PUSH2 0x4FE5 JUMP JUMPDEST POP POP CALLVALUE PUSH2 0x64F JUMPI DUP2 PUSH1 0x3 NOT CALLDATASIZE ADD SLT PUSH2 0x64F JUMPI PUSH2 0x14F SLOAD SWAP1 MLOAD PUSH1 0x1 PUSH1 0x1 PUSH1 0xA0 SHL SUB SWAP1 SWAP2 AND DUP2 MSTORE PUSH1 0x20 SWAP1 RETURN JUMPDEST DUP4 CALLVALUE PUSH2 0x7A5 JUMPI PUSH1 0x20 CALLDATASIZE PUSH1 0x3 NOT ADD SLT PUSH2 0x7A5 JUMPI PUSH1 0x4 CALLDATALOAD PUSH1 0x1 PUSH1 0x1 PUSH1 0xA0 SHL SUB DUP2 AND SWAP1 DUP2 SWAP1 SUB PUSH2 0x64F JUMPI PUSH2 0x396D PUSH2 0x57A9 JUMP JUMPDEST PUSH2 0x130 DUP1 SLOAD PUSH1 0x1 PUSH1 0x1 PUSH1 0xA0 SHL SUB NOT AND SWAP1 SWAP2 OR SWAP1 SSTORE DUP1 RETURN JUMPDEST DUP4 CALLVALUE PUSH2 0x7A5 JUMPI PUSH1 0x20 CALLDATASIZE PUSH1 0x3 NOT ADD SLT PUSH2 0x7A5 JUMPI PUSH2 0x399E PUSH2 0x57A9 JUMP JUMPDEST PUSH1 0x4 CALLDATALOAD PUSH2 0x13F SSTORE DUP1 RETURN JUMPDEST POP POP CALLVALUE PUSH2 0x64F JUMPI DUP2 PUSH1 0x3 NOT CALLDATASIZE ADD SLT PUSH2 0x64F JUMPI PUSH1 0x20 SWAP1 PUSH2 0x159 SLOAD SWAP1 MLOAD SWAP1 DUP2 MSTORE RETURN JUMPDEST DUP4 CALLVALUE PUSH2 0x7A5 JUMPI PUSH1 0x20 CALLDATASIZE PUSH1 0x3 NOT ADD SLT PUSH2 0x7A5 JUMPI PUSH1 0x4 CALLDATALOAD PUSH1 0x1 PUSH1 0x1 PUSH1 0xA0 SHL SUB DUP2 AND SWAP1 DUP2 SWAP1 SUB PUSH2 0x64F JUMPI PUSH2 0x39F7 PUSH2 0x57A9 JUMP JUMPDEST PUSH2 0x146 DUP1 SLOAD PUSH1 0x1 PUSH1 0x1 PUSH1 0xA0 SHL SUB NOT AND SWAP1 SWAP2 OR SWAP1 SSTORE DUP1 RETURN JUMPDEST POP POP CALLVALUE PUSH2 0x64F JUMPI DUP2 PUSH1 0x3 NOT CALLDATASIZE ADD SLT PUSH2 0x64F JUMPI PUSH1 0x20 SWAP1 PUSH2 0x18F SLOAD SWAP1 MLOAD SWAP1 DUP2 MSTORE RETURN JUMPDEST POP POP CALLVALUE PUSH2 0x64F JUMPI DUP2 PUSH1 0x3 NOT CALLDATASIZE ADD SLT PUSH2 0x64F JUMPI PUSH1 0x97 SLOAD SWAP1 MLOAD PUSH1 0x1 PUSH1 0x1 PUSH1 0xA0 SHL SUB SWAP1 SWAP2 AND DUP2 MSTORE PUSH1 0x20 SWAP1 RETURN JUMPDEST DUP4 CALLVALUE PUSH2 0x7A5 JUMPI PUSH1 0x20 CALLDATASIZE PUSH1 0x3 NOT ADD SLT PUSH2 0x7A5 JUMPI PUSH1 0x4 CALLDATALOAD DUP1 ISZERO ISZERO DUP1 SWAP2 SUB PUSH2 0x64F JUMPI PUSH2 0x3A7E PUSH2 0x57A9 JUMP JUMPDEST PUSH2 0x14B SWAP1 PUSH3 0xFF0000 DUP3 SLOAD SWAP2 PUSH1 0x10 SHL AND SWAP1 PUSH3 0xFF0000 NOT AND OR SWAP1 SSTORE DUP1 RETURN JUMPDEST DUP4 CALLVALUE PUSH2 0x7A5 JUMPI PUSH1 0x20 CALLDATASIZE PUSH1 0x3 NOT ADD SLT PUSH2 0x7A5 JUMPI PUSH2 0x3AB4 PUSH2 0x57A9 JUMP JUMPDEST PUSH1 0x4 CALLDATALOAD PUSH2 0x15A SSTORE DUP1 RETURN JUMPDEST POP POP CALLVALUE PUSH2 0x64F JUMPI DUP2 PUSH1 0x3 NOT CALLDATASIZE ADD SLT PUSH2 0x64F JUMPI DUP1 MLOAD PUSH4 0x7164879 PUSH1 0xE0 SHL PUSH1 0x20 DUP3 ADD MSTORE PUSH1 0x4 DUP2 MSTORE PUSH2 0x3AF2 SWAP1 PUSH2 0x8DD PUSH1 0x24 DUP3 PUSH2 0x3D81 JUMP JUMPDEST SWAP2 PUSH1 0x20 DUP4 DUP1 MLOAD DUP2 ADD SUB SLT PUSH2 0x7A5 JUMPI POP PUSH2 0x79E PUSH1 0x20 DUP1 SWAP4 ADD MLOAD PUSH8 0xDE0B6B3A7640000 PUSH2 0x149 SLOAD DIV SWAP1 PUSH2 0x44D4 JUMP JUMPDEST POP POP CALLVALUE PUSH2 0x64F JUMPI DUP2 PUSH1 0x3 NOT CALLDATASIZE ADD SLT PUSH2 0x64F JUMPI PUSH2 0x3B38 PUSH2 0x5837 JUMP JUMPDEST PUSH2 0x15B DUP1 SLOAD NUMBER LT PUSH2 0x3BB4 JUMPI PUSH2 0xAD1 SWAP2 PUSH1 0x20 SWAP2 PUSH2 0x15A SLOAD NUMBER ADD SWAP1 SSTORE PUSH2 0x3BA0 PUSH2 0x131 SWAP2 DUP3 SLOAD PUSH32 0xE37FDA283839477A1B77E29ACF8336C0E13A5DAA967913DF0FE5AD258C0822F PUSH8 0xDE0B6B3A7640000 PUSH2 0x3B92 PUSH2 0x159 SLOAD DUP5 PUSH2 0x4606 JUMP JUMPDEST DIV SWAP6 DUP7 SWAP4 MLOAD DUP5 DUP2 MSTORE LOG1 PUSH2 0x43F9 JUMP JUMPDEST SWAP1 SSTORE PUSH2 0x158 SLOAD PUSH1 0x1 PUSH1 0x1 PUSH1 0xA0 SHL SUB AND PUSH2 0x42A3 JUMP JUMPDEST DUP2 MLOAD PUSH4 0xACCE20E5 PUSH1 0xE0 SHL DUP2 MSTORE PUSH1 0x4 SWAP1 REVERT JUMPDEST POP POP CALLVALUE PUSH2 0x64F JUMPI PUSH1 0x20 CALLDATASIZE PUSH1 0x3 NOT ADD SLT PUSH2 0x64F JUMPI PUSH1 0x4 CALLDATALOAD SWAP2 PUSH2 0x135 SWAP1 DUP2 SLOAD DUP5 LT ISZERO PUSH2 0x7A5 JUMPI POP PUSH1 0x20 SWAP3 PUSH2 0x3BF6 SWAP2 PUSH2 0x3C30 JUMP JUMPDEST SWAP1 SLOAD SWAP2 MLOAD SWAP2 PUSH1 0x1 DUP1 PUSH1 0xA0 SHL SUB SWAP2 PUSH1 0x3 SHL SHR AND DUP2 MSTORE RETURN JUMPDEST DUP4 CALLVALUE PUSH2 0x7A5 JUMPI PUSH1 0x20 CALLDATASIZE PUSH1 0x3 NOT ADD SLT PUSH2 0x7A5 JUMPI PUSH2 0x3C26 PUSH2 0x57A9 JUMP JUMPDEST PUSH1 0x4 CALLDATALOAD PUSH2 0x13A SSTORE DUP1 RETURN JUMPDEST DUP1 SLOAD DUP3 LT ISZERO PUSH2 0x3C48 JUMPI PUSH1 0x0 MSTORE PUSH1 0x20 PUSH1 0x0 KECCAK256 ADD SWAP1 PUSH1 0x0 SWAP1 JUMP JUMPDEST PUSH4 0x4E487B71 PUSH1 0xE0 SHL PUSH1 0x0 MSTORE PUSH1 0x32 PUSH1 0x4 MSTORE PUSH1 0x24 PUSH1 0x0 REVERT JUMPDEST CALLDATALOAD SWAP1 PUSH1 0x1 PUSH1 0x1 PUSH1 0xA0 SHL SUB DUP3 AND DUP3 SUB PUSH2 0x72D JUMPI JUMP JUMPDEST SWAP2 SWAP1 DUP3 PUSH1 0xC0 SWAP2 SUB SLT PUSH2 0x72D JUMPI PUSH2 0x3C87 DUP3 PUSH2 0x3C5E JUMP JUMPDEST SWAP2 PUSH1 0x20 DUP2 ADD CALLDATALOAD SWAP2 PUSH1 0x40 DUP3 ADD CALLDATALOAD SWAP2 PUSH1 0x60 DUP2 ADD CALLDATALOAD SWAP2 PUSH2 0x3CB2 PUSH1 0xA0 PUSH2 0x3CAB PUSH1 0x80 DUP6 ADD PUSH2 0x3C5E JUMP JUMPDEST SWAP4 ADD PUSH2 0x3C5E JUMP JUMPDEST SWAP1 JUMP JUMPDEST PUSH1 0x40 SWAP1 PUSH2 0x3CF1 SWAP4 SWAP6 SWAP5 SWAP3 SWAP6 PUSH1 0xC0 DUP3 ADD SWAP7 DUP3 MSTORE PUSH1 0x20 DUP3 ADD MSTORE ADD SWAP1 PUSH1 0x60 DUP1 SWAP2 DUP1 MLOAD DUP5 MSTORE PUSH1 0x20 DUP2 ADD MLOAD PUSH1 0x20 DUP6 ADD MSTORE PUSH1 0x40 DUP2 ADD MLOAD PUSH1 0x40 DUP6 ADD MSTORE ADD MLOAD SWAP2 ADD MSTORE JUMP JUMPDEST JUMP JUMPDEST SWAP1 DUP2 PUSH1 0xA0 SWAP2 SUB SLT PUSH2 0x72D JUMPI PUSH2 0x3D07 DUP2 PUSH2 0x3C5E JUMP JUMPDEST SWAP2 PUSH1 0x20 DUP3 ADD CALLDATALOAD SWAP2 PUSH1 0x40 DUP2 ADD CALLDATALOAD SWAP2 PUSH2 0x3CB2 PUSH1 0x80 PUSH2 0x3CAB PUSH1 0x60 DUP6 ADD PUSH2 0x3C5E JUMP JUMPDEST PUSH2 0x3CF1 SWAP4 PUSH1 0x60 SWAP3 SWAP7 SWAP6 SWAP4 PUSH1 0xE0 DUP4 ADD SWAP8 DUP4 MSTORE PUSH1 0x20 DUP4 ADD MSTORE PUSH1 0x40 DUP3 ADD MSTORE ADD SWAP1 PUSH1 0x60 DUP1 SWAP2 DUP1 MLOAD DUP5 MSTORE PUSH1 0x20 DUP2 ADD MLOAD PUSH1 0x20 DUP6 ADD MSTORE PUSH1 0x40 DUP2 ADD MLOAD PUSH1 0x40 DUP6 ADD MSTORE ADD MLOAD SWAP2 ADD MSTORE JUMP JUMPDEST DUP1 SLOAD DUP3 LT ISZERO PUSH2 0x3C48 JUMPI PUSH1 0x0 MSTORE PUSH1 0x20 PUSH1 0x0 KECCAK256 SWAP1 PUSH1 0x1 SHL ADD SWAP1 PUSH1 0x0 SWAP1 JUMP JUMPDEST SWAP1 PUSH1 0x1F DUP1 NOT SWAP2 ADD AND DUP2 ADD SWAP1 DUP2 LT PUSH8 0xFFFFFFFFFFFFFFFF DUP3 GT OR PUSH2 0x3DA3 JUMPI PUSH1 0x40 MSTORE JUMP JUMPDEST PUSH4 0x4E487B71 PUSH1 0xE0 SHL PUSH1 0x0 MSTORE PUSH1 0x41 PUSH1 0x4 MSTORE PUSH1 0x24 PUSH1 0x0 REVERT JUMPDEST PUSH8 0xFFFFFFFFFFFFFFFF DUP2 GT PUSH2 0x3DA3 JUMPI PUSH1 0x1F ADD PUSH1 0x1F NOT AND PUSH1 0x20 ADD SWAP1 JUMP JUMPDEST SWAP2 SWAP1 DUP3 PUSH1 0x80 SWAP2 SUB SLT PUSH2 0x72D JUMPI DUP2 CALLDATALOAD SWAP2 PUSH1 0x20 DUP2 ADD CALLDATALOAD SWAP2 PUSH2 0x3CB2 PUSH1 0x60 PUSH2 0x3CAB PUSH1 0x40 DUP6 ADD PUSH2 0x3C5E JUMP JUMPDEST ISZERO PUSH2 0x3E02 JUMPI JUMP JUMPDEST PUSH1 0x40 MLOAD PUSH3 0x461BCD PUSH1 0xE5 SHL DUP2 MSTORE PUSH1 0x20 PUSH1 0x4 DUP3 ADD MSTORE PUSH1 0x2C PUSH1 0x24 DUP3 ADD MSTORE PUSH32 0x46756E6374696F6E206D7573742062652063616C6C6564207468726F75676820 PUSH1 0x44 DUP3 ADD MSTORE PUSH12 0x19195B1959D85D1958D85B1B PUSH1 0xA2 SHL PUSH1 0x64 DUP3 ADD MSTORE PUSH1 0x84 SWAP1 REVERT JUMPDEST ISZERO PUSH2 0x3E63 JUMPI JUMP JUMPDEST PUSH1 0x40 MLOAD PUSH3 0x461BCD PUSH1 0xE5 SHL DUP2 MSTORE PUSH1 0x20 PUSH1 0x4 DUP3 ADD MSTORE PUSH1 0x2C PUSH1 0x24 DUP3 ADD MSTORE PUSH32 0x46756E6374696F6E206D7573742062652063616C6C6564207468726F75676820 PUSH1 0x44 DUP3 ADD MSTORE PUSH12 0x6163746976652070726F7879 PUSH1 0xA0 SHL PUSH1 0x64 DUP3 ADD MSTORE PUSH1 0x84 SWAP1 REVERT JUMPDEST SWAP1 PUSH1 0xFF PUSH32 0x4910FDFA16FED3260ED0E7147F7CC6DA11A60208B5B9406D12A635614FFD9143 SLOAD AND PUSH1 0x0 EQ PUSH2 0x3EF5 JUMPI POP PUSH2 0x3CF1 SWAP2 POP PUSH2 0x40A9 JUMP JUMPDEST PUSH1 0x40 MLOAD PUSH4 0x52D1902D PUSH1 0xE0 SHL DUP2 MSTORE PUSH1 0x20 SWAP4 SWAP2 SWAP3 SWAP2 SWAP1 PUSH1 0x1 PUSH1 0x1 PUSH1 0xA0 SHL SUB DUP4 AND SWAP1 DUP6 DUP2 PUSH1 0x4 DUP2 DUP6 GAS STATICCALL PUSH1 0x0 SWAP2 DUP2 PUSH2 0x407A JUMPI JUMPDEST POP PUSH2 0x3F86 JUMPI PUSH1 0x40 MLOAD PUSH3 0x461BCD PUSH1 0xE5 SHL DUP2 MSTORE PUSH1 0x4 DUP2 ADD DUP8 SWAP1 MSTORE PUSH1 0x2E PUSH1 0x24 DUP3 ADD MSTORE PUSH32 0x45524331393637557067726164653A206E657720696D706C656D656E74617469 PUSH1 0x44 DUP3 ADD MSTORE PUSH14 0x6F6E206973206E6F742055555053 PUSH1 0x90 SHL PUSH1 0x64 DUP3 ADD MSTORE PUSH1 0x84 SWAP1 REVERT JUMPDEST SWAP4 SWAP5 SWAP4 PUSH32 0xC9F76B5EC45E5CDEF99837D7B6D2467235C1DF8933C8CA56DF5C35AFA2C7D444 ADD PUSH2 0x4023 JUMPI PUSH2 0x3FB8 DUP4 PUSH2 0x40A9 JUMP JUMPDEST PUSH32 0xBC7CD75A20EE27FD9ADEBAB32041F755214DBC6BFFA90CC0225B39DA2E5C2D3B PUSH1 0x0 DUP1 LOG2 DUP4 MLOAD ISZERO SWAP1 DUP2 ISZERO SWAP2 PUSH2 0x401B JUMPI JUMPDEST POP PUSH2 0x3FF3 JUMPI POP POP POP JUMP JUMPDEST PUSH1 0x0 DUP1 PUSH2 0x4018 SWAP5 PUSH2 0x4002 PUSH2 0x414B JUMP JUMPDEST SWAP5 DUP2 MLOAD SWAP2 ADD DUP5 GAS DELEGATECALL PUSH2 0x4012 PUSH2 0x419F JUMP JUMPDEST SWAP2 PUSH2 0x41CF JUMP JUMPDEST POP JUMP JUMPDEST SWAP1 POP CODESIZE PUSH2 0x3FE9 JUMP JUMPDEST PUSH1 0x40 MLOAD PUSH3 0x461BCD PUSH1 0xE5 SHL DUP2 MSTORE PUSH1 0x4 DUP2 ADD DUP6 SWAP1 MSTORE PUSH1 0x29 PUSH1 0x24 DUP3 ADD MSTORE PUSH32 0x45524331393637557067726164653A20756E737570706F727465642070726F78 PUSH1 0x44 DUP3 ADD MSTORE PUSH9 0x1A58589B1955555251 PUSH1 0xBA SHL PUSH1 0x64 DUP3 ADD MSTORE PUSH1 0x84 SWAP1 REVERT JUMPDEST SWAP1 SWAP2 DUP8 DUP3 DUP2 RETURNDATASIZE DUP4 GT PUSH2 0x40A2 JUMPI JUMPDEST PUSH2 0x4091 DUP2 DUP4 PUSH2 0x3D81 JUMP JUMPDEST DUP2 ADD SUB SLT PUSH2 0x7A5 JUMPI POP MLOAD SWAP1 CODESIZE PUSH2 0x3F25 JUMP JUMPDEST POP RETURNDATASIZE PUSH2 0x4087 JUMP JUMPDEST DUP1 EXTCODESIZE ISZERO PUSH2 0x40F0 JUMPI PUSH32 0x360894A13BA1A3210667C828492DB98DCA3E2076CC3735A920A3CA505D382BBC DUP1 SLOAD PUSH1 0x1 PUSH1 0x1 PUSH1 0xA0 SHL SUB NOT AND PUSH1 0x1 PUSH1 0x1 PUSH1 0xA0 SHL SUB SWAP1 SWAP3 AND SWAP2 SWAP1 SWAP2 OR SWAP1 SSTORE JUMP JUMPDEST PUSH1 0x40 MLOAD PUSH3 0x461BCD PUSH1 0xE5 SHL DUP2 MSTORE PUSH1 0x20 PUSH1 0x4 DUP3 ADD MSTORE PUSH1 0x2D PUSH1 0x24 DUP3 ADD MSTORE PUSH32 0x455243313936373A206E657720696D706C656D656E746174696F6E206973206E PUSH1 0x44 DUP3 ADD MSTORE PUSH13 0x1BDD08184818DBDB9D1C9858DD PUSH1 0x9A SHL PUSH1 0x64 DUP3 ADD MSTORE PUSH1 0x84 SWAP1 REVERT JUMPDEST PUSH2 0x4155 PUSH1 0x27 PUSH2 0x3DB9 JUMP JUMPDEST SWAP1 PUSH2 0x4163 PUSH1 0x40 MLOAD SWAP3 DUP4 PUSH2 0x3D81 JUMP JUMPDEST PUSH1 0x27 DUP3 MSTORE PUSH7 0x819985A5B1959 PUSH1 0xCA SHL PUSH1 0x40 DUP4 PUSH32 0x416464726573733A206C6F772D6C6576656C2064656C65676174652063616C6C PUSH1 0x20 DUP3 ADD MSTORE ADD MSTORE JUMP JUMPDEST RETURNDATASIZE ISZERO PUSH2 0x41CA JUMPI RETURNDATASIZE SWAP1 PUSH2 0x41B0 DUP3 PUSH2 0x3DB9 JUMP JUMPDEST SWAP2 PUSH2 0x41BE PUSH1 0x40 MLOAD SWAP4 DUP5 PUSH2 0x3D81 JUMP JUMPDEST DUP3 MSTORE RETURNDATASIZE PUSH1 0x0 PUSH1 0x20 DUP5 ADD RETURNDATACOPY JUMP JUMPDEST PUSH1 0x60 SWAP1 JUMP JUMPDEST SWAP2 SWAP3 SWAP1 ISZERO PUSH2 0x4231 JUMPI POP DUP2 MLOAD ISZERO PUSH2 0x41E3 JUMPI POP SWAP1 JUMP JUMPDEST EXTCODESIZE ISZERO PUSH2 0x41EC JUMPI SWAP1 JUMP JUMPDEST PUSH1 0x40 MLOAD PUSH3 0x461BCD PUSH1 0xE5 SHL DUP2 MSTORE PUSH1 0x20 PUSH1 0x4 DUP3 ADD MSTORE PUSH1 0x1D PUSH1 0x24 DUP3 ADD MSTORE PUSH32 0x416464726573733A2063616C6C20746F206E6F6E2D636F6E7472616374000000 PUSH1 0x44 DUP3 ADD MSTORE PUSH1 0x64 SWAP1 REVERT JUMPDEST DUP3 MLOAD SWAP1 SWAP2 POP ISZERO PUSH2 0x4244 JUMPI POP DUP1 MLOAD SWAP1 PUSH1 0x20 ADD REVERT JUMPDEST PUSH1 0x40 MLOAD SWAP1 PUSH3 0x461BCD PUSH1 0xE5 SHL DUP3 MSTORE DUP2 PUSH1 0x20 DUP1 PUSH1 0x4 DUP4 ADD MSTORE DUP3 MLOAD SWAP1 DUP2 PUSH1 0x24 DUP5 ADD MSTORE PUSH1 0x0 SWAP4 JUMPDEST DUP3 DUP6 LT PUSH2 0x428A JUMPI POP POP PUSH1 0x44 SWAP3 POP PUSH1 0x0 DUP4 DUP3 DUP5 ADD ADD MSTORE PUSH1 0x1F DUP1 NOT SWAP2 ADD AND DUP2 ADD SUB ADD SWAP1 REVERT JUMPDEST DUP5 DUP2 ADD DUP3 ADD MLOAD DUP7 DUP7 ADD PUSH1 0x44 ADD MSTORE SWAP4 DUP2 ADD SWAP4 DUP6 SWAP4 POP PUSH2 0x4267 JUMP JUMPDEST SWAP1 DUP1 PUSH2 0x42AD JUMPI POP POP JUMP JUMPDEST PUSH2 0x22A SLOAD PUSH1 0x40 MLOAD PUSH4 0xA9059CBB PUSH1 0xE0 SHL PUSH1 0x20 DUP3 ADD MSTORE PUSH1 0x1 PUSH1 0x1 PUSH1 0xA0 SHL SUB SWAP4 DUP5 AND PUSH1 0x24 DUP3 ADD MSTORE PUSH1 0x44 DUP2 ADD SWAP3 SWAP1 SWAP3 MSTORE PUSH2 0x3CF1 SWAP3 AND PUSH2 0x42F5 DUP3 PUSH1 0x64 DUP2 ADD JUMPDEST SUB PUSH1 0x1F NOT DUP2 ADD DUP5 MSTORE DUP4 PUSH2 0x3D81 JUMP JUMPDEST PUSH2 0x4307 JUMP JUMPDEST MLOAD SWAP1 DUP2 ISZERO ISZERO DUP3 SUB PUSH2 0x72D JUMPI JUMP JUMPDEST PUSH1 0x20 SWAP2 PUSH2 0x436A SWAP2 PUSH1 0x1 PUSH1 0x1 PUSH1 0xA0 SHL SUB AND PUSH1 0x0 DUP1 PUSH2 0x4323 DUP7 PUSH2 0x3DB9 JUMP JUMPDEST SWAP4 PUSH2 0x4331 PUSH1 0x40 MLOAD SWAP6 DUP7 PUSH2 0x3D81 JUMP JUMPDEST DUP7 DUP6 MSTORE PUSH32 0x5361666545524332303A206C6F772D6C6576656C2063616C6C206661696C6564 DUP8 DUP7 ADD MSTORE DUP7 DUP2 MLOAD SWAP2 ADD DUP3 DUP6 GAS CALL PUSH2 0x4012 PUSH2 0x419F JUMP JUMPDEST DUP1 MLOAD DUP3 DUP2 ISZERO SWAP2 DUP3 ISZERO PUSH2 0x43DA JUMPI JUMPDEST POP POP SWAP1 POP ISZERO PUSH2 0x4383 JUMPI POP JUMP JUMPDEST PUSH1 0x84 SWAP1 PUSH1 0x40 MLOAD SWAP1 PUSH3 0x461BCD PUSH1 0xE5 SHL DUP3 MSTORE PUSH1 0x4 DUP3 ADD MSTORE PUSH1 0x2A PUSH1 0x24 DUP3 ADD MSTORE PUSH32 0x5361666545524332303A204552433230206F7065726174696F6E20646964206E PUSH1 0x44 DUP3 ADD MSTORE PUSH10 0x1BDD081CDD58D8D95959 PUSH1 0xB2 SHL PUSH1 0x64 DUP3 ADD MSTORE REVERT JUMPDEST DUP4 DUP1 SWAP3 SWAP4 POP ADD SUB SLT PUSH2 0x72D JUMPI DUP2 PUSH2 0x43F1 SWAP2 ADD PUSH2 0x42FA JUMP JUMPDEST DUP1 DUP3 CODESIZE PUSH2 0x4377 JUMP JUMPDEST SWAP2 SWAP1 DUP3 SUB SWAP2 DUP3 GT PUSH2 0x4406 JUMPI JUMP JUMPDEST PUSH4 0x4E487B71 PUSH1 0xE0 SHL PUSH1 0x0 MSTORE PUSH1 0x11 PUSH1 0x4 MSTORE PUSH1 0x24 PUSH1 0x0 REVERT JUMPDEST PUSH2 0x4425 ADDRESS PUSH2 0x4459 JUMP JUMPDEST PUSH2 0x131 SWAP1 PUSH2 0x4442 PUSH2 0x4438 DUP4 SLOAD DUP1 SWAP4 PUSH2 0x43F9 JUMP JUMPDEST PUSH2 0x14E SLOAD SWAP1 PUSH2 0x43F9 JUMP JUMPDEST DUP1 PUSH2 0x444C JUMPI POP POP POP JUMP JUMPDEST PUSH2 0x4455 SWAP2 PUSH2 0x44D4 JUMP JUMPDEST SWAP1 SSTORE JUMP JUMPDEST PUSH2 0x22A SLOAD PUSH1 0x40 MLOAD PUSH4 0x70A08231 PUSH1 0xE0 SHL DUP2 MSTORE PUSH1 0x1 PUSH1 0x1 PUSH1 0xA0 SHL SUB SWAP3 DUP4 AND PUSH1 0x4 DUP3 ADD MSTORE SWAP2 PUSH1 0x20 SWAP2 DUP4 SWAP2 PUSH1 0x24 SWAP2 DUP4 SWAP2 AND GAS STATICCALL SWAP1 DUP2 ISZERO PUSH2 0x44C8 JUMPI PUSH1 0x0 SWAP2 PUSH2 0x449A JUMPI POP SWAP1 JUMP JUMPDEST SWAP1 PUSH1 0x20 DUP3 RETURNDATASIZE DUP3 GT PUSH2 0x44C0 JUMPI JUMPDEST DUP2 PUSH2 0x44B3 PUSH1 0x20 SWAP4 DUP4 PUSH2 0x3D81 JUMP JUMPDEST DUP2 ADD SUB SLT PUSH2 0x7A5 JUMPI POP MLOAD SWAP1 JUMP JUMPDEST RETURNDATASIZE SWAP2 POP PUSH2 0x44A6 JUMP JUMPDEST PUSH1 0x40 MLOAD RETURNDATASIZE PUSH1 0x0 DUP3 RETURNDATACOPY RETURNDATASIZE SWAP1 REVERT JUMPDEST SWAP2 SWAP1 DUP3 ADD DUP1 SWAP3 GT PUSH2 0x4406 JUMPI JUMP JUMPDEST DUP1 MLOAD DUP3 LT ISZERO PUSH2 0x3C48 JUMPI PUSH1 0x20 SWAP2 PUSH1 0x5 SHL ADD ADD SWAP1 JUMP JUMPDEST SWAP1 PUSH1 0x0 SWAP2 PUSH1 0x0 SWAP1 PUSH2 0x137 DUP1 SLOAD SWAP1 PUSH1 0x0 SWAP3 JUMPDEST DUP3 DUP5 LT PUSH2 0x452C JUMPI POP POP POP POP PUSH2 0x4528 PUSH8 0xDE0B6B3A7640000 SWAP2 PUSH2 0x139 SLOAD SWAP1 PUSH2 0x4606 JUMP JUMPDEST DIV SWAP1 JUMP JUMPDEST SWAP1 SWAP2 SWAP3 SWAP4 SWAP6 PUSH2 0x4579 PUSH2 0x4568 PUSH2 0x4573 PUSH1 0x1 SWAP4 PUSH2 0x456D PUSH2 0x454A DUP11 DUP9 PUSH2 0x44E1 JUMP JUMPDEST MLOAD PUSH2 0x4555 DUP2 DUP13 PUSH2 0x459F JUMP JUMPDEST SWAP6 SWAP1 PUSH2 0x4561 DUP14 DUP13 PUSH2 0x3D65 JUMP JUMPDEST POP SLOAD PUSH2 0x44D4 JUMP JUMPDEST PUSH2 0x5923 JUMP JUMPDEST SWAP1 PUSH2 0x44D4 JUMP JUMPDEST SWAP9 PUSH2 0x44D4 JUMP JUMPDEST SWAP5 ADD SWAP3 SWAP2 SWAP1 PUSH2 0x4506 JUMP JUMPDEST SWAP2 SWAP1 SWAP2 PUSH1 0x0 DUP4 DUP3 ADD SWAP4 DUP5 SLT SWAP2 SLT SWAP1 DUP1 ISZERO DUP3 AND SWAP2 ISZERO AND OR PUSH2 0x4406 JUMPI JUMP JUMPDEST SWAP2 SWAP1 PUSH1 0x0 SWAP1 PUSH2 0x45CD DUP2 PUSH1 0x0 SWAP6 PUSH2 0x45C3 PUSH2 0x45BA DUP3 PUSH2 0x150 PUSH2 0x3C30 JUMP JUMPDEST SWAP4 SWAP1 SLOAD SWAP3 PUSH2 0x4652 JUMP JUMPDEST SWAP2 PUSH1 0x3 SHL SHR PUSH2 0x4583 JUMP JUMPDEST PUSH1 0x0 DUP2 SGT PUSH2 0x45DC JUMPI JUMPDEST POP POP SWAP2 SWAP1 JUMP JUMPDEST PUSH2 0x45FE SWAP2 SWAP5 POP PUSH2 0x26D3 SWAP3 POP DUP1 SWAP5 PUSH8 0xDE0B6B3A7640000 SWAP4 DUP5 SWAP2 PUSH2 0x13A SLOAD PUSH2 0x4606 JUMP JUMPDEST DIV CODESIZE DUP1 PUSH2 0x45D6 JUMP JUMPDEST DUP2 DUP2 MUL SWAP3 SWAP2 DUP2 ISZERO SWAP2 DUP5 DIV EQ OR ISZERO PUSH2 0x4406 JUMPI JUMP JUMPDEST DUP2 ISZERO PUSH2 0x4623 JUMPI DIV SWAP1 JUMP JUMPDEST PUSH4 0x4E487B71 PUSH1 0xE0 SHL PUSH1 0x0 MSTORE PUSH1 0x12 PUSH1 0x4 MSTORE PUSH1 0x24 PUSH1 0x0 REVERT JUMPDEST DUP2 DUP2 SUB SWAP3 SWAP2 PUSH1 0x0 SGT DUP1 ISZERO DUP3 DUP6 SGT AND SWAP2 DUP5 SLT AND OR PUSH2 0x4406 JUMPI JUMP JUMPDEST PUSH2 0x465E DUP2 PUSH2 0x137 PUSH2 0x3D65 JUMP JUMPDEST POP SLOAD SWAP1 PUSH8 0xDE0B6B3A7640000 SWAP2 DUP3 DUP2 MUL SWAP3 DUP2 DUP5 DIV EQ SWAP1 ISZERO OR ISZERO PUSH2 0x4406 JUMPI PUSH2 0x3CB2 SWAP3 PUSH2 0x469E PUSH2 0x4691 PUSH2 0x46A4 SWAP4 PUSH2 0x151 PUSH2 0x3C30 JUMP JUMPDEST SWAP1 SLOAD SWAP1 PUSH1 0x3 SHL SHR DUP5 PUSH2 0x4619 JUMP JUMPDEST SWAP3 PUSH2 0x4619 JUMP JUMPDEST SWAP1 PUSH2 0x4639 JUMP JUMPDEST DUP1 ISZERO PUSH2 0x46C0 JUMPI PUSH2 0x4568 PUSH2 0x3CB2 SWAP3 PUSH2 0x131 SLOAD PUSH2 0x43F9 JUMP JUMPDEST POP POP PUSH1 0x0 NOT SWAP1 JUMP JUMPDEST PUSH1 0x1 PUSH1 0x1 PUSH1 0xA0 SHL SUB AND PUSH1 0x0 SWAP1 DUP2 MSTORE PUSH2 0x136 PUSH1 0x20 MSTORE PUSH1 0x40 SWAP1 KECCAK256 PUSH1 0x1 DUP2 ADD SLOAD PUSH1 0xFF AND ISZERO PUSH2 0x46F1 JUMPI SLOAD SWAP1 JUMP JUMPDEST PUSH1 0x40 MLOAD PUSH4 0xE6C4247B PUSH1 0xE0 SHL DUP2 MSTORE PUSH1 0x4 SWAP1 REVERT JUMPDEST PUSH2 0x470F SWAP1 PUSH2 0x137 PUSH2 0x3D65 JUMP JUMPDEST POP PUSH1 0x1 ADD SLOAD PUSH1 0x1 PUSH1 0x1 PUSH1 0xA0 SHL SUB AND PUSH2 0x4726 DUP2 PUSH2 0x4764 JUMP JUMPDEST SWAP2 SWAP1 SWAP2 ISZERO PUSH2 0x4732 JUMPI POP SWAP1 JUMP JUMPDEST PUSH1 0x24 SWAP1 PUSH1 0x40 MLOAD SWAP1 PUSH4 0x7F6E4DB9 PUSH1 0xE0 SHL DUP3 MSTORE PUSH1 0x4 DUP3 ADD MSTORE REVERT JUMPDEST SWAP2 SWAP1 DUP3 PUSH1 0x40 SWAP2 SUB SLT PUSH2 0x72D JUMPI PUSH2 0x3CB2 PUSH1 0x20 DUP4 MLOAD SWAP4 ADD PUSH2 0x42FA JUMP JUMPDEST PUSH1 0x40 DUP1 MLOAD PUSH4 0x59E02DD7 PUSH1 0xE0 SHL DUP2 MSTORE SWAP3 SWAP2 DUP4 SWAP1 PUSH1 0x4 SWAP1 DUP3 SWAP1 PUSH1 0x1 PUSH1 0x1 PUSH1 0xA0 SHL SUB AND GAS STATICCALL SWAP2 DUP3 ISZERO PUSH2 0x44C8 JUMPI PUSH1 0x0 SWAP1 DUP2 SWAP4 PUSH2 0x479B JUMPI POP SWAP2 SWAP1 JUMP JUMPDEST SWAP1 POP PUSH2 0x47BF SWAP2 SWAP3 POP PUSH1 0x40 RETURNDATASIZE DUP2 GT PUSH2 0x47C3 JUMPI JUMPDEST PUSH2 0x47B7 DUP2 DUP4 PUSH2 0x3D81 JUMP JUMPDEST DUP2 ADD SWAP1 PUSH2 0x474A JUMP JUMPDEST SWAP1 SWAP2 JUMP JUMPDEST POP RETURNDATASIZE PUSH2 0x47AD JUMP JUMPDEST PUSH8 0xFFFFFFFFFFFFFFFF DUP2 GT PUSH2 0x3DA3 JUMPI PUSH1 0x5 SHL PUSH1 0x20 ADD SWAP1 JUMP JUMPDEST SWAP1 PUSH2 0x47EC DUP3 PUSH2 0x47CA JUMP JUMPDEST PUSH2 0x47F9 PUSH1 0x40 MLOAD SWAP2 DUP3 PUSH2 0x3D81 JUMP JUMPDEST DUP3 DUP2 MSTORE DUP1 SWAP3 PUSH2 0x480A PUSH1 0x1F NOT SWAP2 PUSH2 0x47CA JUMP JUMPDEST ADD SWAP1 PUSH1 0x20 CALLDATASIZE SWAP2 ADD CALLDATACOPY JUMP JUMPDEST PUSH2 0x137 SLOAD SWAP1 PUSH2 0x4822 DUP3 PUSH2 0x47E2 JUMP JUMPDEST SWAP2 PUSH1 0x0 JUMPDEST DUP2 DUP2 LT PUSH2 0x4831 JUMPI POP POP JUMP JUMPDEST DUP1 PUSH2 0x483D PUSH1 0x1 SWAP3 PUSH2 0x4703 JUMP JUMPDEST PUSH2 0x4847 DUP3 DUP8 PUSH2 0x44E1 JUMP JUMPDEST MSTORE ADD PUSH2 0x4826 JUMP JUMPDEST SWAP1 PUSH2 0x486F PUSH8 0xDE0B6B3A7640000 SWAP3 DUP4 PUSH2 0x157 SLOAD PUSH2 0x154 SLOAD SWAP3 NUMBER ADD SUB MUL PUSH2 0x4619 JUMP JUMPDEST DUP3 DUP2 LT ISZERO PUSH2 0x488C JUMPI DUP3 SUB SWAP2 DUP1 DUP4 PUSH2 0x155 SLOAD MUL DIV SWAP3 PUSH2 0x156 SLOAD MUL SDIV SWAP1 JUMP JUMPDEST POP PUSH1 0x0 SWAP2 POP DUP2 SWAP1 JUMP JUMPDEST SWAP1 SWAP2 PUSH2 0x489F PUSH2 0x48F7 JUMP JUMPDEST SWAP3 SWAP1 DUP1 DUP3 LT ISZERO PUSH2 0x48ED JUMPI DUP4 SWAP2 PUSH2 0x48B4 SWAP2 PUSH2 0x43F9 JUMP JUMPDEST SWAP4 GT ISZERO PUSH2 0x48E8 JUMPI DUP2 DUP2 LT ISZERO PUSH2 0x48E0 JUMPI PUSH2 0x48CC SWAP2 PUSH2 0x43F9 JUMP JUMPDEST PUSH1 0x1 SHR DUP1 DUP3 LT ISZERO PUSH2 0x48DB JUMPI POP SWAP1 JUMP JUMPDEST SWAP1 POP SWAP1 JUMP JUMPDEST POP POP POP PUSH1 0x0 SWAP1 JUMP JUMPDEST POP POP SWAP1 JUMP JUMPDEST POP POP POP POP POP PUSH1 0x0 SWAP1 JUMP JUMPDEST PUSH2 0x152 SLOAD PUSH1 0x40 DUP1 MLOAD PUSH4 0x59E02DD7 PUSH1 0xE0 SHL DUP1 DUP3 MSTORE SWAP4 SWAP3 SWAP1 SWAP2 SWAP1 PUSH1 0x1 PUSH1 0x1 PUSH1 0xA0 SHL SUB SWAP1 DUP2 AND DUP3 DUP5 PUSH1 0x4 DUP2 DUP5 GAS STATICCALL DUP1 ISZERO PUSH2 0x49E7 JUMPI PUSH1 0x0 SWAP5 DUP6 SWAP2 PUSH2 0x49C4 JUMPI JUMPDEST POP ISZERO PUSH2 0x49AD JUMPI POP PUSH2 0x153 SLOAD AND SWAP1 DUP1 MLOAD SWAP5 DUP6 MSTORE DUP1 DUP6 PUSH1 0x4 DUP2 DUP6 GAS STATICCALL DUP1 ISZERO PUSH2 0x49A2 JUMPI PUSH1 0x0 SWAP6 DUP7 SWAP2 PUSH2 0x497F JUMPI JUMPDEST POP ISZERO PUSH2 0x4968 JUMPI POP POP SWAP2 SWAP1 JUMP JUMPDEST PUSH1 0x24 SWAP3 POP MLOAD SWAP1 PUSH4 0x5E89893 PUSH1 0xE1 SHL DUP3 MSTORE PUSH1 0x4 DUP3 ADD MSTORE REVERT JUMPDEST SWAP1 POP DUP2 PUSH2 0x4999 SWAP3 SWAP7 POP RETURNDATASIZE DUP8 GT PUSH2 0x47C3 JUMPI PUSH2 0x47B7 DUP2 DUP4 PUSH2 0x3D81 JUMP JUMPDEST SWAP5 SWAP1 SWAP5 CODESIZE PUSH2 0x495C JUMP JUMPDEST POP MLOAD RETURNDATASIZE PUSH1 0x0 DUP3 RETURNDATACOPY RETURNDATASIZE SWAP1 REVERT JUMPDEST PUSH1 0x24 SWAP1 DUP4 MLOAD SWAP1 PUSH4 0x5E89893 PUSH1 0xE1 SHL DUP3 MSTORE PUSH1 0x4 DUP3 ADD MSTORE REVERT JUMPDEST SWAP1 POP PUSH2 0x49DE SWAP2 SWAP5 POP DUP4 RETURNDATASIZE DUP6 GT PUSH2 0x47C3 JUMPI PUSH2 0x47B7 DUP2 DUP4 PUSH2 0x3D81 JUMP JUMPDEST SWAP4 SWAP1 SWAP4 CODESIZE PUSH2 0x4932 JUMP JUMPDEST DUP4 MLOAD RETURNDATASIZE PUSH1 0x0 DUP3 RETURNDATACOPY RETURNDATASIZE SWAP1 REVERT JUMPDEST ISZERO PUSH2 0x49F9 JUMPI JUMP JUMPDEST PUSH1 0x40 MLOAD PUSH3 0x461BCD PUSH1 0xE5 SHL DUP2 MSTORE PUSH1 0x20 PUSH1 0x4 DUP3 ADD MSTORE PUSH1 0x2B PUSH1 0x24 DUP3 ADD MSTORE PUSH32 0x496E697469616C697A61626C653A20636F6E7472616374206973206E6F742069 PUSH1 0x44 DUP3 ADD MSTORE PUSH11 0x6E697469616C697A696E67 PUSH1 0xA8 SHL PUSH1 0x64 DUP3 ADD MSTORE PUSH1 0x84 SWAP1 REVERT JUMPDEST SWAP1 PUSH2 0x3CB2 SWAP2 PUSH1 0x0 DUP1 PUSH2 0x4A62 PUSH2 0x414B JUMP JUMPDEST SWAP4 PUSH1 0x20 DUP2 MLOAD SWAP2 ADD DUP5 GAS DELEGATECALL PUSH2 0x4012 PUSH2 0x419F JUMP JUMPDEST PUSH1 0xFF PUSH2 0x14B SLOAD PUSH1 0x10 SHR AND ISZERO SWAP2 DUP3 PUSH2 0x4AA0 JUMPI JUMPDEST POP POP PUSH2 0x4A8E JUMPI JUMP JUMPDEST PUSH1 0x40 MLOAD PUSH4 0x6F97B883 PUSH1 0xE0 SHL DUP2 MSTORE PUSH1 0x4 SWAP1 REVERT JUMPDEST PUSH1 0x1 PUSH1 0x1 PUSH1 0xA0 SHL SUB SWAP2 DUP3 AND SWAP2 AND EQ ISZERO SWAP1 POP CODESIZE DUP1 PUSH2 0x4A86 JUMP JUMPDEST PUSH2 0x4B26 SWAP4 PUSH2 0x4AED PUSH1 0x0 SWAP3 PUSH1 0x20 SWAP6 PUSH2 0x4AD1 DUP3 PUSH2 0x137 PUSH2 0x3D65 JUMP JUMPDEST POP PUSH2 0x4ADD DUP8 DUP3 SLOAD PUSH2 0x44D4 JUMP JUMPDEST SWAP1 SSTORE PUSH2 0x1655 PUSH2 0x131 SWAP2 DUP3 SLOAD PUSH2 0x44D4 JUMP JUMPDEST SWAP1 SLOAD PUSH1 0x40 MLOAD PUSH4 0x40C10F19 PUSH1 0xE0 SHL DUP2 MSTORE PUSH1 0x1 PUSH1 0x1 PUSH1 0xA0 SHL SUB SWAP1 SWAP4 AND PUSH1 0x4 DUP5 ADD MSTORE PUSH1 0x24 DUP4 ADD SWAP5 SWAP1 SWAP5 MSTORE SWAP1 SWAP5 DUP6 SWAP4 SWAP3 DUP5 SWAP3 SWAP1 SWAP2 DUP4 SWAP1 PUSH1 0x44 DUP3 ADD SWAP1 JUMP JUMPDEST SUB SWAP4 PUSH1 0x3 SWAP2 SWAP1 SWAP2 SHL SHR PUSH1 0x1 PUSH1 0x1 PUSH1 0xA0 SHL SUB AND GAS CALL DUP1 ISZERO PUSH2 0x44C8 JUMPI PUSH2 0x4B47 JUMPI POP JUMP JUMPDEST PUSH1 0x20 DUP2 RETURNDATASIZE DUP3 GT PUSH2 0x4B70 JUMPI JUMPDEST DUP2 PUSH2 0x4B5F PUSH1 0x20 SWAP4 DUP4 PUSH2 0x3D81 JUMP JUMPDEST DUP2 ADD SUB SLT PUSH2 0x72D JUMPI PUSH2 0x4018 SWAP1 PUSH2 0x42FA JUMP JUMPDEST RETURNDATASIZE SWAP2 POP PUSH2 0x4B52 JUMP JUMPDEST PUSH2 0x26EC PUSH2 0x4455 SWAP2 PUSH2 0x4B89 DUP5 DUP3 PUSH2 0x4652 JUMP JUMPDEST PUSH2 0x4BBF PUSH2 0x4B98 DUP4 PUSH2 0x150 PUSH2 0x3C30 JUMP JUMPDEST PUSH2 0x4BAB DUP3 SWAP5 SWAP3 SLOAD SWAP3 DUP4 DUP4 PUSH1 0x3 SHL SHR PUSH2 0x4583 JUMP JUMPDEST SWAP2 SWAP1 PUSH1 0x3 SHL SWAP2 DUP3 SHL SWAP2 PUSH1 0x0 NOT SWAP1 SHL NOT AND OR SWAP1 JUMP JUMPDEST SWAP1 SSTORE PUSH2 0x151 PUSH2 0x3C30 JUMP JUMPDEST PUSH1 0xE0 DUP2 ADD SWAP3 SWAP2 PUSH1 0xC0 SWAP1 DUP2 SWAP1 PUSH1 0x1 PUSH1 0x1 PUSH1 0xA0 SHL SUB DUP1 PUSH2 0x4BE6 DUP4 PUSH2 0x3C5E JUMP JUMPDEST AND DUP6 MSTORE PUSH2 0x4BF5 PUSH1 0x20 DUP4 ADD PUSH2 0x3C5E JUMP JUMPDEST AND PUSH1 0x20 DUP6 ADD MSTORE PUSH1 0x40 DUP2 ADD CALLDATALOAD PUSH1 0x40 DUP6 ADD MSTORE PUSH1 0x60 DUP2 ADD CALLDATALOAD PUSH1 0x60 DUP6 ADD MSTORE PUSH1 0x80 DUP2 ADD CALLDATALOAD PUSH1 0x80 DUP6 ADD MSTORE PUSH1 0xA0 DUP2 ADD CALLDATALOAD PUSH1 0xA0 DUP6 ADD MSTORE ADD CALLDATALOAD SWAP2 ADD MSTORE JUMP JUMPDEST SWAP1 PUSH2 0x134 SLOAD SWAP1 DUP2 ISZERO PUSH2 0x4C4F JUMPI PUSH2 0x3CB2 SWAP3 PUSH2 0x4C4A PUSH2 0x4568 SWAP3 PUSH2 0x131 SLOAD PUSH2 0x43F9 JUMP JUMPDEST PUSH2 0x43F9 JUMP JUMPDEST POP POP POP PUSH8 0xDE0B6B3A7640000 SWAP1 JUMP JUMPDEST DUP3 DUP3 PUSH2 0x4C69 SWAP3 PUSH2 0x4C86 JUMP JUMPDEST SWAP1 PUSH1 0x0 DUP3 SGT ISZERO PUSH2 0x48E0 JUMPI PUSH2 0x3CB2 SWAP3 PUSH2 0x4C80 SWAP2 PUSH2 0x4C2A JUMP JUMPDEST SWAP1 PUSH2 0x4619 JUMP JUMPDEST SWAP1 SWAP2 PUSH2 0x4C95 SWAP1 PUSH2 0x131 SLOAD PUSH2 0x43F9 JUMP JUMPDEST SWAP1 PUSH8 0xDE0B6B3A7640000 SWAP2 DUP3 DUP2 MUL SWAP3 DUP2 DUP5 DIV EQ SWAP1 ISZERO OR ISZERO PUSH2 0x4406 JUMPI PUSH2 0x3CB2 SWAP3 PUSH2 0x46A4 SWAP2 PUSH2 0x4606 JUMP JUMPDEST SWAP3 PUSH2 0x4CCB SWAP3 SWAP4 SWAP5 SWAP2 SWAP5 PUSH2 0x4C86 JUMP JUMPDEST DUP2 DUP2 MUL SWAP2 PUSH1 0x0 SWAP2 PUSH1 0x1 PUSH1 0xFF SHL SWAP2 DUP4 DUP3 SLT DUP4 DUP3 EQ AND PUSH2 0x4D6F JUMPI DUP2 DUP6 SDIV EQ SWAP1 ISZERO OR ISZERO PUSH2 0x4D5B JUMPI PUSH8 0xDE0B6B3A763FFFF NOT DUP5 ADD SWAP4 DUP5 GT PUSH2 0x4D5B JUMPI PUSH8 0xDE0B6B3A7640000 SWAP4 DUP5 DUP2 MUL SWAP5 DUP2 DUP7 DIV EQ SWAP1 ISZERO OR ISZERO PUSH2 0x4D5B JUMPI DUP4 ISZERO PUSH2 0x4D47 JUMPI DUP3 EQ PUSH1 0x0 NOT DUP5 EQ AND PUSH2 0x4D33 JUMPI POP SDIV SWAP1 JUMP JUMPDEST PUSH4 0x4E487B71 PUSH1 0xE0 SHL DUP2 MSTORE PUSH1 0x11 PUSH1 0x4 MSTORE PUSH1 0x24 SWAP1 REVERT JUMPDEST PUSH4 0x4E487B71 PUSH1 0xE0 SHL DUP3 MSTORE PUSH1 0x12 PUSH1 0x4 MSTORE PUSH1 0x24 DUP3 REVERT JUMPDEST PUSH4 0x4E487B71 PUSH1 0xE0 SHL DUP3 MSTORE PUSH1 0x11 PUSH1 0x4 MSTORE PUSH1 0x24 DUP3 REVERT JUMPDEST PUSH4 0x4E487B71 PUSH1 0xE0 SHL DUP5 MSTORE PUSH1 0x11 PUSH1 0x4 MSTORE PUSH1 0x24 DUP5 REVERT JUMPDEST PUSH2 0x14D SLOAD DUP1 NUMBER LT ISZERO PUSH2 0x4D9A JUMPI PUSH2 0x3CB2 SWAP1 NUMBER SWAP1 PUSH2 0x43F9 JUMP JUMPDEST POP PUSH1 0x0 SWAP1 JUMP JUMPDEST SWAP1 PUSH1 0x40 MLOAD PUSH2 0x4DAF PUSH1 0x40 DUP3 PUSH2 0x3D81 JUMP JUMPDEST PUSH1 0x20 PUSH1 0x1 DUP3 SWAP5 DUP1 SLOAD DUP5 MSTORE ADD SLOAD SWAP2 ADD MSTORE JUMP JUMPDEST PUSH2 0x4DCC DUP2 PUSH2 0x148 PUSH2 0x3C30 JUMP JUMPDEST SWAP1 SLOAD SWAP1 PUSH1 0x3 SHL SHR SWAP2 PUSH2 0x18E SWAP2 PUSH2 0x4DE2 DUP2 DUP5 PUSH2 0x3D65 JUMP JUMPDEST POP SLOAD SWAP3 PUSH2 0x18F SLOAD NUMBER LT ISZERO PUSH2 0x4E0D JUMPI JUMPDEST POP POP DUP1 DUP3 LT ISZERO PUSH2 0x48E8 JUMPI PUSH2 0x4E08 SWAP1 PUSH2 0x3CB2 SWAP4 PUSH2 0x4606 JUMP JUMPDEST PUSH2 0x4619 JUMP JUMPDEST DUP3 SWAP4 POP PUSH2 0x4E21 PUSH2 0x4E2C SWAP4 SWAP3 PUSH2 0x4E27 SWAP3 PUSH2 0x3D65 JUMP JUMPDEST POP PUSH2 0x4DA0 JUMP JUMPDEST PUSH2 0x4E34 JUMP JUMPDEST SWAP1 CODESIZE DUP1 PUSH2 0x4DF1 JUMP JUMPDEST PUSH1 0x20 DUP2 MLOAD SWAP2 ADD DUP1 MLOAD SWAP3 PUSH8 0xDE0B6B3A7640000 SWAP4 DUP5 SUB SWAP1 DUP5 DUP3 GT PUSH2 0x4406 JUMPI PUSH2 0x4E61 PUSH2 0x456D SWAP3 PUSH2 0x4528 SWAP6 PUSH2 0x4606 JUMP JUMPDEST SWAP3 MLOAD PUSH2 0x4606 JUMP JUMPDEST PUSH1 0x0 DUP1 PUSH2 0x137 SWAP2 DUP3 SLOAD SWAP3 PUSH2 0x4E7B DUP5 PUSH2 0x47E2 JUMP JUMPDEST SWAP4 DUP3 SWAP2 JUMPDEST DUP2 DUP4 LT PUSH2 0x4EA8 JUMPI POP POP POP DUP2 ISZERO PUSH2 0x4E9C JUMPI SWAP1 PUSH2 0x4E99 SWAP2 PUSH2 0x4619 JUMP JUMPDEST SWAP2 JUMP JUMPDEST POP POP PUSH2 0x149 SLOAD PUSH1 0x1 SHL SWAP2 JUMP JUMPDEST SWAP1 SWAP2 SWAP4 SWAP3 PUSH2 0x4EB5 DUP6 PUSH2 0x4703 JUMP JUMPDEST SWAP1 DUP2 PUSH2 0x4EC1 DUP8 DUP10 PUSH2 0x44E1 JUMP JUMPDEST MSTORE PUSH2 0x4EDA PUSH2 0x4ECF DUP4 DUP9 PUSH2 0x459F JUMP JUMPDEST POP PUSH2 0x4561 DUP9 DUP7 PUSH2 0x3D65 JUMP JUMPDEST PUSH8 0xDE0B6B3A7640000 SWAP1 DUP2 DUP2 MUL SWAP2 DUP2 DUP4 DIV EQ SWAP1 ISZERO OR ISZERO PUSH2 0x4406 JUMPI PUSH2 0x4F1C PUSH2 0x4F22 SWAP3 PUSH2 0x456D DUP6 PUSH2 0x4F0E PUSH1 0x1 SWAP8 PUSH2 0x4F17 SWAP7 PUSH2 0x5923 JUMP JUMPDEST SWAP5 DUP6 SWAP2 DUP13 PUSH2 0x4DC0 JUMP JUMPDEST PUSH2 0x4606 JUMP JUMPDEST SWAP6 PUSH2 0x44D4 JUMP JUMPDEST SWAP5 ADD SWAP2 SWAP1 PUSH2 0x4E7F JUMP JUMPDEST PUSH2 0x18F DUP1 SLOAD NUMBER LT ISZERO PUSH2 0x4F3A JUMPI POP JUMP JUMPDEST PUSH2 0x137 SLOAD PUSH1 0x0 JUMPDEST DUP2 DUP2 LT PUSH2 0x4F54 JUMPI POP POP PUSH2 0x190 SLOAD NUMBER ADD SWAP1 SSTORE JUMP JUMPDEST DUP1 DUP1 PUSH32 0x19156E9379C7BBBCE8F646CE5EE30BA860B8F954717405F3D5859A6C1A21AE60 PUSH1 0x1 SWAP4 PUSH2 0x18E PUSH2 0x4F8A PUSH2 0x4E21 DUP4 DUP4 PUSH2 0x3D65 JUMP JUMPDEST SWAP1 PUSH2 0x4FA8 PUSH2 0x4FA0 PUSH2 0x4F9A DUP6 PUSH2 0x4703 JUMP JUMPDEST DUP5 PUSH2 0x4E34 JUMP JUMPDEST SWAP4 DUP5 SWAP3 PUSH2 0x3D65 JUMP JUMPDEST POP SSTORE MLOAD PUSH1 0x40 SWAP2 DUP3 MLOAD SWAP2 DUP3 MSTORE PUSH1 0x20 DUP3 ADD MSTORE LOG2 ADD PUSH2 0x4F41 JUMP JUMPDEST PUSH2 0x3CF1 SWAP1 PUSH2 0x14E PUSH2 0x4FD1 DUP3 DUP3 SLOAD PUSH2 0x44D4 JUMP JUMPDEST SWAP1 SSTORE PUSH2 0x22A SLOAD ADDRESS SWAP1 CALLER SWAP1 PUSH1 0x1 PUSH1 0x1 PUSH1 0xA0 SHL SUB AND JUMPDEST PUSH1 0x40 MLOAD PUSH4 0x23B872DD PUSH1 0xE0 SHL PUSH1 0x20 DUP3 ADD MSTORE PUSH1 0x1 PUSH1 0x1 PUSH1 0xA0 SHL SUB SWAP3 DUP4 AND PUSH1 0x24 DUP3 ADD MSTORE SWAP3 SWAP1 SWAP2 AND PUSH1 0x44 DUP4 ADD MSTORE PUSH1 0x64 DUP1 DUP4 ADD SWAP4 SWAP1 SWAP4 MSTORE SWAP2 DUP2 MSTORE PUSH2 0x3CF1 SWAP2 PUSH2 0x42F5 PUSH1 0x84 DUP4 PUSH2 0x3D81 JUMP JUMPDEST PUSH1 0xFF PUSH2 0x14B SLOAD PUSH1 0x8 SHR AND PUSH2 0x5039 JUMPI JUMP JUMPDEST PUSH1 0x40 MLOAD PUSH4 0x1CA61D77 PUSH1 0xE0 SHL DUP2 MSTORE PUSH1 0x4 SWAP1 REVERT JUMPDEST PUSH1 0xA0 SWAP1 DUP2 PUSH1 0x1 DUP1 DUP3 SHL SUB SWAP2 DUP3 DUP2 MLOAD AND DUP6 MSTORE PUSH1 0x20 DUP2 ADD MLOAD PUSH1 0x20 DUP7 ADD MSTORE PUSH1 0x40 DUP2 ADD MLOAD PUSH1 0x40 DUP7 ADD MSTORE DUP3 PUSH1 0x60 DUP3 ADD MLOAD AND PUSH1 0x60 DUP7 ADD MSTORE DUP3 PUSH1 0x80 DUP3 ADD MLOAD AND PUSH1 0x80 DUP7 ADD MSTORE ADD MLOAD AND SWAP2 ADD MSTORE JUMP JUMPDEST SWAP2 SWAP1 SWAP2 PUSH1 0xE0 PUSH2 0x100 DUP3 ADD SWAP4 DUP2 PUSH1 0x1 DUP1 PUSH1 0xA0 SHL SUB SWAP2 DUP3 DUP2 MLOAD AND DUP6 MSTORE DUP3 PUSH1 0x20 DUP3 ADD MLOAD AND PUSH1 0x20 DUP7 ADD MSTORE PUSH1 0x40 DUP2 ADD MLOAD PUSH1 0x40 DUP7 ADD MSTORE PUSH1 0x60 DUP2 ADD MLOAD PUSH1 0x60 DUP7 ADD MSTORE PUSH1 0x80 DUP2 ADD MLOAD PUSH1 0x80 DUP7 ADD MSTORE DUP3 PUSH1 0xA0 DUP3 ADD MLOAD AND PUSH1 0xA0 DUP7 ADD MSTORE DUP3 PUSH1 0xC0 DUP3 ADD MLOAD AND PUSH1 0xC0 DUP7 ADD MSTORE ADD MLOAD AND SWAP2 ADD MSTORE JUMP JUMPDEST PUSH1 0xC0 SWAP1 DUP2 PUSH1 0x1 DUP1 PUSH1 0xA0 SHL SUB SWAP2 DUP3 DUP2 MLOAD AND DUP6 MSTORE PUSH1 0x20 DUP2 ADD MLOAD PUSH1 0x20 DUP7 ADD MSTORE PUSH1 0x40 DUP2 ADD MLOAD PUSH1 0x40 DUP7 ADD MSTORE PUSH1 0x60 DUP2 ADD MLOAD PUSH1 0x60 DUP7 ADD MSTORE DUP3 PUSH1 0x80 DUP3 ADD MLOAD AND PUSH1 0x80 DUP7 ADD MSTORE DUP3 PUSH1 0xA0 DUP3 ADD MLOAD AND PUSH1 0xA0 DUP7 ADD MSTORE ADD MLOAD AND SWAP2 ADD MSTORE JUMP JUMPDEST PUSH1 0x40 MLOAD SWAP1 PUSH2 0x5153 PUSH1 0x80 DUP4 PUSH2 0x3D81 JUMP JUMPDEST PUSH1 0x0 PUSH1 0x60 DUP4 DUP3 DUP2 MSTORE DUP3 PUSH1 0x20 DUP3 ADD MSTORE DUP3 PUSH1 0x40 DUP3 ADD MSTORE ADD MSTORE JUMP JUMPDEST SWAP2 SWAP1 DUP3 PUSH1 0xA0 SWAP2 SUB SLT PUSH2 0x72D JUMPI PUSH1 0x40 MLOAD PUSH2 0x5185 PUSH1 0xA0 DUP3 PUSH2 0x3D81 JUMP JUMPDEST PUSH1 0x80 PUSH2 0x51C3 DUP2 DUP4 SWAP6 DUP1 CALLDATALOAD DUP6 MSTORE PUSH1 0x20 DUP2 ADD CALLDATALOAD PUSH1 0x20 DUP7 ADD MSTORE PUSH2 0x51A7 PUSH1 0x40 DUP3 ADD PUSH2 0x3C5E JUMP JUMPDEST PUSH1 0x40 DUP7 ADD MSTORE PUSH2 0x51B8 PUSH1 0x60 DUP3 ADD PUSH2 0x3C5E JUMP JUMPDEST PUSH1 0x60 DUP7 ADD MSTORE ADD PUSH2 0x3C5E JUMP JUMPDEST SWAP2 ADD MSTORE JUMP JUMPDEST SWAP2 SWAP1 PUSH2 0x51D3 SWAP1 PUSH2 0x44F5 JUMP JUMPDEST SWAP2 SWAP1 SWAP3 PUSH2 0x51E0 DUP4 DUP6 PUSH2 0x46AA JUMP JUMPDEST SWAP1 DUP1 DUP3 GT ISZERO PUSH2 0x51ED JUMPI POP POP JUMP JUMPDEST PUSH1 0x44 SWAP3 POP PUSH1 0x40 MLOAD SWAP2 PUSH4 0x79121201 PUSH1 0xE0 SHL DUP4 MSTORE PUSH1 0x4 DUP4 ADD MSTORE PUSH1 0x24 DUP3 ADD MSTORE REVERT JUMPDEST SWAP3 SWAP1 SWAP4 SWAP2 PUSH1 0x0 SWAP2 PUSH1 0x0 SWAP2 DUP3 SWAP7 PUSH2 0x521F PUSH2 0x5144 JUMP JUMPDEST SWAP7 PUSH1 0x1 PUSH1 0x1 PUSH1 0xA0 SHL SUB SWAP2 DUP6 SWAP1 DUP4 AND DUP1 PUSH2 0x542B JUMPI JUMPDEST POP DUP3 PUSH2 0x12F SLOAD AND DUP4 PUSH1 0x40 MLOAD SWAP4 PUSH4 0x6EB1769F PUSH1 0xE1 SHL DUP6 MSTORE AND DUP1 PUSH1 0x4 DUP6 ADD MSTORE ADDRESS PUSH1 0x24 DUP6 ADD MSTORE PUSH1 0x20 SWAP5 DUP6 DUP6 PUSH1 0x44 DUP2 DUP7 GAS STATICCALL SWAP5 DUP6 ISZERO PUSH2 0x5420 JUMPI DUP5 SWAP6 PUSH2 0x53F1 JUMPI JUMPDEST POP DUP5 PUSH2 0x52D0 JUMPI JUMPDEST POP POP POP POP POP DUP7 ADD MLOAD ISZERO PUSH2 0x528C JUMPI JUMPDEST POP POP POP SWAP3 SWAP2 SWAP1 JUMP JUMPDEST SWAP1 SWAP2 SWAP3 POP PUSH2 0x52A4 PUSH8 0xDE0B6B3A7640000 SWAP3 DUP4 SWAP3 PUSH2 0x4606 JUMP JUMPDEST DIV DUP1 DUP6 MSTORE SWAP1 DUP3 ISZERO PUSH2 0x52C8 JUMPI PUSH2 0x52C0 SWAP3 DIV SWAP1 DUP2 PUSH1 0x40 DUP7 ADD MSTORE PUSH2 0x44D4 JUMP JUMPDEST CODESIZE DUP1 DUP1 PUSH2 0x5284 JUMP JUMPDEST POP SWAP1 POP PUSH2 0x52C0 JUMP JUMPDEST PUSH2 0x52DE SWAP1 PUSH2 0x130 SLOAD AND PUSH2 0x4764 JUMP JUMPDEST SWAP3 SWAP1 SWAP3 ISZERO PUSH2 0x5276 JUMPI SWAP1 SWAP2 SWAP3 SWAP4 SWAP12 POP DUP5 DUP12 PUSH2 0x5318 DUP6 PUSH8 0xDE0B6B3A7640000 PUSH2 0x5312 PUSH2 0x5308 DUP14 DUP14 PUSH2 0x4606 JUMP JUMPDEST PUSH2 0x143 SLOAD SWAP1 PUSH2 0x4606 JUMP JUMPDEST DIV PUSH2 0x4619 JUMP JUMPDEST DUP2 DUP4 ADD DUP2 DUP2 MSTORE SWAP6 SWAP1 DUP12 ISZERO PUSH2 0x53E7 JUMPI POP PUSH2 0x5343 SWAP2 PUSH2 0x5337 PUSH1 0x60 SWAP3 DUP14 PUSH2 0x4619 JUMP JUMPDEST SWAP2 DUP3 SWAP2 ADD MSTORE DUP6 MLOAD PUSH2 0x44D4 JUMP JUMPDEST DUP1 SWAP14 JUMPDEST LT SWAP3 DUP4 ISZERO PUSH2 0x5372 JUMPI JUMPDEST POP POP POP PUSH2 0x535F JUMPI JUMPDEST DUP1 DUP1 DUP1 PUSH2 0x5276 JUMP JUMPDEST DUP2 SWAP3 SWAP10 POP MSTORE DUP1 PUSH1 0x60 DUP9 ADD MSTORE SWAP7 CODESIZE DUP1 PUSH2 0x5357 JUMP JUMPDEST SWAP1 SWAP2 SWAP3 POP PUSH1 0x24 PUSH1 0x40 MLOAD DUP1 SWAP5 DUP2 SWAP4 PUSH4 0x70A08231 PUSH1 0xE0 SHL DUP4 MSTORE PUSH1 0x4 DUP4 ADD MSTORE GAS STATICCALL SWAP1 DUP2 ISZERO PUSH2 0x53DC JUMPI SWAP1 DUP12 SWAP2 DUP5 SWAP2 PUSH2 0x53AB JUMPI JUMPDEST POP LT CODESIZE DUP5 DUP2 PUSH2 0x534F JUMP JUMPDEST DUP1 SWAP3 POP DUP6 DUP1 SWAP3 POP RETURNDATASIZE DUP4 GT PUSH2 0x53D5 JUMPI JUMPDEST PUSH2 0x53C4 DUP2 DUP4 PUSH2 0x3D81 JUMP JUMPDEST DUP2 ADD SUB SLT PUSH2 0x8F3 JUMPI DUP11 SWAP1 MLOAD CODESIZE PUSH2 0x53A1 JUMP JUMPDEST POP RETURNDATASIZE PUSH2 0x53BA JUMP JUMPDEST PUSH1 0x40 MLOAD RETURNDATASIZE DUP6 DUP3 RETURNDATACOPY RETURNDATASIZE SWAP1 REVERT JUMPDEST SWAP2 POP POP DUP1 SWAP14 PUSH2 0x5346 JUMP JUMPDEST SWAP1 SWAP5 POP DUP6 DUP2 DUP2 RETURNDATASIZE DUP4 GT PUSH2 0x5419 JUMPI JUMPDEST PUSH2 0x5409 DUP2 DUP4 PUSH2 0x3D81 JUMP JUMPDEST DUP2 ADD SUB SLT PUSH2 0x9F5 JUMPI MLOAD SWAP4 CODESIZE PUSH2 0x526F JUMP JUMPDEST POP RETURNDATASIZE PUSH2 0x53FF JUMP JUMPDEST PUSH1 0x40 MLOAD RETURNDATASIZE DUP7 DUP3 RETURNDATACOPY RETURNDATASIZE SWAP1 REVERT JUMPDEST SWAP1 SWAP6 POP PUSH1 0x20 DUP4 PUSH2 0x1C3 SLOAD AND SWAP2 PUSH1 0x24 PUSH1 0x40 MLOAD DUP1 SWAP5 DUP2 SWAP4 PUSH4 0x64A731E9 PUSH1 0xE0 SHL DUP4 MSTORE PUSH1 0x4 DUP4 ADD MSTORE GAS STATICCALL DUP1 ISZERO PUSH2 0x54A3 JUMPI DUP7 SWAP1 PUSH2 0x5470 JUMPI JUMPDEST PUSH2 0x5469 SWAP2 POP DUP5 PUSH2 0x4606 JUMP JUMPDEST SWAP5 CODESIZE PUSH2 0x5233 JUMP JUMPDEST POP PUSH1 0x20 DUP2 RETURNDATASIZE DUP3 GT PUSH2 0x549B JUMPI JUMPDEST DUP2 PUSH2 0x5489 PUSH1 0x20 SWAP4 DUP4 PUSH2 0x3D81 JUMP JUMPDEST DUP2 ADD SUB SLT PUSH2 0x2A5A JUMPI PUSH2 0x5469 SWAP1 MLOAD PUSH2 0x545E JUMP JUMPDEST RETURNDATASIZE SWAP2 POP PUSH2 0x547C JUMP JUMPDEST PUSH1 0x40 MLOAD RETURNDATASIZE DUP9 DUP3 RETURNDATACOPY RETURNDATASIZE SWAP1 REVERT JUMPDEST SWAP3 PUSH2 0x3CF1 SWAP5 SWAP2 SWAP3 SWAP4 DUP3 MLOAD ISZERO ISZERO PUSH1 0x0 EQ PUSH2 0x551E JUMPI POP PUSH1 0x40 PUSH2 0x5519 SWAP3 PUSH2 0x5511 PUSH8 0xDE0B6B3A7640000 PUSH2 0x54E3 PUSH2 0x13B SLOAD DUP5 MLOAD SWAP1 PUSH2 0x4606 JUMP JUMPDEST DIV PUSH2 0x131 PUSH2 0x54F2 DUP3 DUP3 SLOAD PUSH2 0x44D4 JUMP JUMPDEST SWAP1 SSTORE PUSH2 0x550B PUSH1 0x1 DUP1 PUSH1 0xA0 SHL SUB PUSH2 0x146 SLOAD AND SWAP2 DUP5 MLOAD PUSH2 0x43F9 JUMP JUMPDEST SWAP1 PUSH2 0x42A3 JUMP JUMPDEST ADD MLOAD SWAP1 PUSH2 0x42A3 JUMP JUMPDEST PUSH2 0x42A3 JUMP JUMPDEST SWAP1 PUSH1 0x60 PUSH2 0x5519 SWAP4 PUSH2 0x5540 PUSH1 0x1 DUP1 PUSH1 0xA0 SHL SUB PUSH2 0x146 SLOAD AND PUSH1 0x20 DUP4 ADD MLOAD SWAP1 DUP7 PUSH2 0x5544 JUMP JUMPDEST ADD MLOAD SWAP2 JUMPDEST SWAP2 SWAP1 DUP2 PUSH2 0x5550 JUMPI POP POP POP JUMP JUMPDEST PUSH2 0x12F SLOAD PUSH2 0x3CF1 SWAP4 SWAP1 PUSH1 0x1 PUSH1 0x1 PUSH1 0xA0 SHL SUB AND PUSH2 0x4FE5 JUMP JUMPDEST SWAP2 SWAP1 DUP3 PUSH1 0xC0 SWAP2 SUB SLT PUSH2 0x72D JUMPI PUSH1 0x40 MLOAD PUSH2 0x5581 PUSH1 0xC0 DUP3 PUSH2 0x3D81 JUMP JUMPDEST PUSH1 0xA0 PUSH2 0x51C3 DUP2 DUP4 SWAP6 PUSH2 0x5592 DUP2 PUSH2 0x3C5E JUMP JUMPDEST DUP6 MSTORE PUSH1 0x20 DUP2 ADD CALLDATALOAD PUSH1 0x20 DUP7 ADD MSTORE PUSH1 0x40 DUP2 ADD CALLDATALOAD PUSH1 0x40 DUP7 ADD MSTORE PUSH2 0x55B4 PUSH1 0x60 DUP3 ADD PUSH2 0x3C5E JUMP JUMPDEST PUSH1 0x60 DUP7 ADD MSTORE PUSH2 0x55C5 PUSH1 0x80 DUP3 ADD PUSH2 0x3C5E JUMP JUMPDEST PUSH1 0x80 DUP7 ADD MSTORE ADD PUSH2 0x3C5E JUMP JUMPDEST SWAP1 PUSH2 0x55DD SWAP5 SWAP4 SWAP3 SWAP2 PUSH2 0x4CBD JUMP JUMPDEST PUSH1 0x0 DUP2 SLT PUSH2 0x4D9A JUMPI SWAP1 JUMP JUMPDEST DUP1 PUSH2 0x55F1 PUSH2 0x48F7 JUMP JUMPDEST SWAP2 SWAP1 SWAP4 PUSH2 0x55FE PUSH1 0x0 PUSH2 0x484E JUMP JUMPDEST SWAP5 ADD SWAP4 DUP3 SWAP2 PUSH2 0x5696 JUMPI JUMPDEST ADD SWAP4 DUP5 PUSH1 0x0 DUP1 DUP3 SLT PUSH2 0x5690 JUMPI POP JUMPDEST DUP5 SUB SWAP2 DUP2 DUP6 GT PUSH2 0x5658 JUMPI POP POP DUP2 DUP2 GT PUSH2 0x563A JUMPI POP POP PUSH2 0x155 SSTORE PUSH2 0x156 SSTORE NUMBER PUSH2 0x157 SSTORE JUMP JUMPDEST PUSH1 0x44 SWAP3 POP PUSH1 0x40 MLOAD SWAP2 PUSH4 0x6DA41E5 PUSH1 0xE1 SHL DUP4 MSTORE PUSH1 0x4 DUP4 ADD MSTORE PUSH1 0x24 DUP3 ADD MSTORE REVERT JUMPDEST SWAP1 DUP1 DUP6 SWAP3 GT PUSH2 0x567E JUMPI PUSH1 0x44 SWAP2 PUSH1 0x40 MLOAD SWAP2 PUSH4 0x6DA41E5 PUSH1 0xE1 SHL DUP4 MSTORE PUSH1 0x4 DUP4 ADD MSTORE PUSH1 0x24 DUP3 ADD MSTORE REVERT JUMPDEST PUSH1 0x40 MLOAD PUSH4 0xFB4FD35 PUSH1 0xE1 SHL DUP2 MSTORE PUSH1 0x4 SWAP1 REVERT JUMPDEST SUB PUSH2 0x5616 JUMP JUMPDEST SWAP1 POP DUP2 PUSH1 0x0 SUB SWAP1 PUSH2 0x5608 JUMP JUMPDEST DUP1 SWAP2 SUB PUSH1 0xE0 DUP2 SLT PUSH2 0x72D JUMPI DUP2 MLOAD SWAP3 PUSH1 0x20 DUP4 ADD MLOAD SWAP3 PUSH1 0x80 PUSH1 0x40 DUP3 ADD MLOAD SWAP4 PUSH1 0x5F NOT ADD SLT PUSH2 0x72D JUMPI PUSH1 0xC0 PUSH1 0x40 MLOAD SWAP2 PUSH2 0x56D8 PUSH1 0x80 DUP5 PUSH2 0x3D81 JUMP JUMPDEST PUSH1 0x60 DUP2 ADD MLOAD DUP4 MSTORE PUSH1 0x80 DUP2 ADD MLOAD PUSH1 0x20 DUP5 ADD MSTORE PUSH1 0xA0 DUP2 ADD MLOAD PUSH1 0x40 DUP5 ADD MSTORE ADD MLOAD PUSH1 0x60 DUP3 ADD MSTORE SWAP1 JUMP JUMPDEST SWAP2 SWAP1 DUP3 PUSH1 0xE0 SWAP2 SUB SLT PUSH2 0x72D JUMPI PUSH1 0x40 MLOAD PUSH2 0x5717 PUSH1 0xE0 DUP3 PUSH2 0x3D81 JUMP JUMPDEST PUSH1 0xC0 PUSH2 0x51C3 DUP2 DUP4 SWAP6 PUSH2 0x5728 DUP2 PUSH2 0x3C5E JUMP JUMPDEST DUP6 MSTORE PUSH1 0x20 DUP2 ADD CALLDATALOAD PUSH1 0x20 DUP7 ADD MSTORE PUSH1 0x40 DUP2 ADD CALLDATALOAD PUSH1 0x40 DUP7 ADD MSTORE PUSH1 0x60 DUP2 ADD CALLDATALOAD PUSH1 0x60 DUP7 ADD MSTORE PUSH2 0x5754 PUSH1 0x80 DUP3 ADD PUSH2 0x3C5E JUMP JUMPDEST PUSH1 0x80 DUP7 ADD MSTORE PUSH2 0x5765 PUSH1 0xA0 DUP3 ADD PUSH2 0x3C5E JUMP JUMPDEST PUSH1 0xA0 DUP7 ADD MSTORE ADD PUSH2 0x3C5E JUMP JUMPDEST PUSH1 0x40 MLOAD PUSH4 0xA9059CBB PUSH1 0xE0 SHL PUSH1 0x20 DUP3 ADD MSTORE PUSH1 0x1 PUSH1 0x1 PUSH1 0xA0 SHL SUB SWAP1 SWAP3 AND PUSH1 0x24 DUP4 ADD MSTORE PUSH1 0x44 DUP3 ADD SWAP3 SWAP1 SWAP3 MSTORE PUSH2 0x3CF1 SWAP2 PUSH2 0x42F5 DUP3 PUSH1 0x64 DUP2 ADD PUSH2 0x42E7 JUMP JUMPDEST PUSH1 0x97 SLOAD PUSH1 0x40 MLOAD PUSH4 0xD994D6D5 PUSH1 0xE0 SHL DUP2 MSTORE CALLER PUSH1 0x4 DUP3 ADD MSTORE SWAP1 PUSH1 0x20 SWAP1 DUP3 SWAP1 PUSH1 0x24 SWAP1 DUP3 SWAP1 PUSH1 0x1 PUSH1 0x1 PUSH1 0xA0 SHL SUB AND GAS STATICCALL SWAP1 DUP2 ISZERO PUSH2 0x44C8 JUMPI PUSH1 0x0 SWAP2 PUSH2 0x57FE JUMPI JUMPDEST POP ISZERO PUSH2 0x57EC JUMPI JUMP JUMPDEST PUSH1 0x40 MLOAD PUSH4 0x1DD1B1B5 PUSH1 0xE2 SHL DUP2 MSTORE PUSH1 0x4 SWAP1 REVERT JUMPDEST SWAP1 PUSH1 0x20 DUP3 RETURNDATASIZE DUP3 GT PUSH2 0x582F JUMPI JUMPDEST DUP2 PUSH2 0x5817 PUSH1 0x20 SWAP4 DUP4 PUSH2 0x3D81 JUMP JUMPDEST DUP2 ADD SUB SLT PUSH2 0x7A5 JUMPI POP PUSH2 0x5829 SWAP1 PUSH2 0x42FA JUMP JUMPDEST CODESIZE PUSH2 0x57E4 JUMP JUMPDEST RETURNDATASIZE SWAP2 POP PUSH2 0x580A JUMP JUMPDEST PUSH1 0xFF PUSH1 0xCA SLOAD PUSH1 0x8 SHR AND PUSH2 0x5846 JUMPI JUMP JUMPDEST PUSH1 0x40 MLOAD PUSH4 0x783BB6C9 PUSH1 0xE1 SHL DUP2 MSTORE PUSH1 0x4 SWAP1 REVERT JUMPDEST PUSH2 0x131 SLOAD DUP1 ISZERO PUSH2 0x4018 JUMPI PUSH2 0x137 SWAP1 DUP2 SLOAD SWAP2 PUSH1 0x0 SWAP1 PUSH2 0x5875 DUP5 PUSH2 0x47E2 JUMP JUMPDEST SWAP1 DUP3 SWAP1 JUMPDEST DUP6 DUP3 LT PUSH2 0x58DF JUMPI POP POP PUSH1 0x0 JUMPDEST DUP5 DUP2 LT PUSH2 0x5893 JUMPI POP POP POP POP POP JUMP JUMPDEST PUSH2 0x58AB DUP5 PUSH2 0x4E08 DUP6 PUSH2 0x58A5 DUP6 DUP8 PUSH2 0x44E1 JUMP JUMPDEST MLOAD PUSH2 0x4606 JUMP JUMPDEST SWAP1 PUSH2 0x138 SWAP2 DUP3 SLOAD PUSH9 0x10000000000000000 DUP2 LT ISZERO PUSH2 0x3DA3 JUMPI PUSH2 0x26EC DUP2 PUSH1 0x1 SWAP6 DUP7 PUSH2 0x58D7 SWAP5 ADD DUP2 SSTORE PUSH2 0x3C30 JUMP JUMPDEST SWAP1 SSTORE ADD PUSH2 0x5885 JUMP JUMPDEST SWAP1 SWAP3 PUSH2 0x591B PUSH1 0x1 SWAP2 PUSH2 0x58F0 DUP7 PUSH2 0x4703 JUMP JUMPDEST PUSH2 0x58FA DUP8 DUP8 PUSH2 0x44E1 JUMP JUMPDEST MSTORE PUSH2 0x456D PUSH2 0x5908 DUP8 DUP7 PUSH2 0x3D65 JUMP JUMPDEST POP SLOAD PUSH2 0x5914 DUP9 DUP9 PUSH2 0x44E1 JUMP JUMPDEST MLOAD SWAP1 PUSH2 0x5923 JUMP JUMPDEST SWAP4 ADD SWAP1 PUSH2 0x5879 JUMP JUMPDEST SWAP1 PUSH8 0xDE0B6B3A7640000 SWAP2 DUP3 DUP2 MUL SWAP3 DUP2 DUP5 DIV EQ SWAP1 ISZERO OR ISZERO PUSH2 0x4406 JUMPI PUSH2 0x3CB2 SWAP2 PUSH2 0x4619 JUMP JUMPDEST PUSH8 0xDE0B6B3A7640000 GT ISZERO PUSH2 0x5958 JUMPI JUMP JUMPDEST PUSH1 0x40 MLOAD PUSH4 0x2A9FFAB7 PUSH1 0xE2 SHL DUP2 MSTORE PUSH1 0x4 SWAP1 REVERT INVALID LOG2 PUSH5 0x6970667358 0x22 SLT KECCAK256 SWAP8 0xD1 SWAP7 0xE0 MOD CALLER 0xC9 MOD MSTORE 0xE5 ISZERO ORIGIN KECCAK256 GASPRICE 0xE7 0xC4 ADD 0xDA ADDRESS LOG4 SWAP7 0x1E SELFDESTRUCT 0xB1 0xCB SWAP15 0xA9 RETURNDATASIZE RETURN 0xD9 SWAP6 0x1E PUSH5 0x736F6C6343 STOP ADDMOD EQ STOP CALLER "
    },
    "gasEstimates": {
      "creation": {
        "codeDepositCost": "4588800",
        "executionCost": "infinite",
        "totalCost": "infinite"
      },
      "external": {
        "absoluteAccumulator()": "4802",
        "acToken()": "2755",
        "addPeggedToken((address,address,uint256,uint256,uint256,uint256,uint256))": "infinite",
        "allowDifferentRecipient()": "5128",
        "appreciationFactor()": "5264",
        "bes()": "3218",
        "bns()": "2580",
        "calcCtargemaCA()": "infinite",
        "changeGovernor(address)": "infinite",
        "decayBlockSpan()": "3724",
        "differentialAccumulator()": "3834",
        "editPeggedToken((address,address,uint256,uint256,uint256,uint256,uint256))": "infinite",
        "emaCalculationBlockSpan()": "3966",
        "evalLiquidation()": "infinite",
        "execMintTC((uint256,uint256,address,address,address))": "infinite",
        "execMintTCandTP((address,uint256,uint256,address,address,address))": "infinite",
        "execMintTP((address,uint256,uint256,address,address,address))": "infinite",
        "execRedeemTC((uint256,uint256,address,address,address))": "infinite",
        "execRedeemTCandTP((address,uint256,uint256,uint256,address,address,address))": "infinite",
        "execRedeemTP((address,uint256,uint256,address,address,address))": "infinite",
        "execSettlement()": "infinite",
        "execSwapTCforTP((address,uint256,uint256,uint256,address,address,address))": "infinite",
        "execSwapTPforTC((address,uint256,uint256,uint256,address,address,address))": "infinite",
        "execSwapTPforTP((address,address,uint256,uint256,uint256,address,address,address))": "infinite",
        "feeRetainer()": "3262",
        "feeToken()": "3635",
        "feeTokenPct()": "2844",
        "feeTokenPriceProvider()": "5153",
        "getBts()": "5183",
        "getCglb()": "infinite",
        "getCustomMockValue()": "5589",
        "getExpansionCustomMockValue()": "infinite",
        "getLckAC()": "infinite",
        "getLeverageTC()": "infinite",
        "getPACtp(address)": "infinite",
        "getPTCac()": "infinite",
        "getTCAvailableToRedeem()": "infinite",
        "getTPAvailableToMint(address)": "infinite",
        "getTotalACavailable()": "infinite",
        "getTpAmount()": "5347",
        "governor()": "2425",
        "initialize((((address,address,address,address,address,address,uint256,uint256,uint256,uint256,uint256,uint256,uint256,uint256,uint256,uint256,uint256,uint256,uint256,uint256,address,uint256,uint256,address,address,uint256,bool),address,address,address,uint256,address),address))": "infinite",
        "initializeMock()": "23526",
        "isLiquidationReached()": "infinite",
        "lastOperationBlockNumber()": "3438",
        "liqEnabled()": "5056",
        "liqRedeemTP(address,address)": "infinite",
        "liqThrld()": "4208",
        "liquidated()": "2708",
        "makeStoppable()": "infinite",
        "makeUnstoppable()": "infinite",
        "maxAbsoluteOpProvider()": "5109",
        "maxOpDiffProvider()": "4537",
        "maxQACToMintTP()": "infinite",
        "maxQACToRedeemTP()": "infinite",
        "mintTC(uint256,uint256,address,address)": "infinite",
        "mintTCandTP(address,uint256,uint256,address,address)": "infinite",
        "mintTCandTPFee()": "3900",
        "mintTP(address,uint256,uint256,address,address)": "infinite",
        "mocAppreciationBeneficiaryAddress()": "3261",
        "mocFeeFlowAddress()": "4339",
        "mocQueue()": "2557",
        "mocVendors()": "4075",
        "nACcb()": "5198",
        "nTCcb()": "3922",
        "newVariable()": "4230",
        "nextEmaCalculation()": "2426",
        "nextTCInterestPayment()": "4538",
        "pause()": "29496",
        "paused()": "3522",
        "pauser()": "4414",
        "pegContainer(uint256)": "9695",
        "peggedTokenIndex(address)": "6612",
        "protThrld()": "3702",
        "proxiableUUID()": "infinite",
        "qACLockedInPending()": "3526",
        "redeemTC(uint256,uint256,address,address)": "infinite",
        "redeemTCandTP(address,uint256,uint256,uint256,address,address)": "infinite",
        "redeemTCandTPFee()": "5220",
        "redeemTP(address,uint256,uint256,address,address)": "infinite",
        "refreshACBalance()": "infinite",
        "setAllowDifferentRecipient(bool)": "infinite",
        "setAppreciationFactor(uint256)": "infinite",
        "setBes(uint256)": "infinite",
        "setDecayBlockSpan(uint256)": "infinite",
        "setEmaCalculationBlockSpan(uint256)": "infinite",
        "setFeeRetainer(uint256)": "infinite",
        "setFeeTokenAddress(address)": "infinite",
        "setFeeTokenPct(uint256)": "infinite",
        "setFeeTokenPriceProviderAddress(address)": "infinite",
        "setLiqEnabled(bool)": "infinite",
        "setLiqThrld(uint256)": "infinite",
        "setMaxAbsoluteOpProviderAddress(address)": "infinite",
        "setMaxOpDiffProviderAddress(address)": "infinite",
        "setMintTCandTPFee(uint256)": "infinite",
        "setMocAppreciationBeneficiaryAddress(address)": "infinite",
        "setMocCoreExpansion(address)": "infinite",
        "setMocFeeFlowAddress(address)": "infinite",
        "setMocQueue(address)": "infinite",
        "setMocVendors(address)": "infinite",
        "setPauser(address)": "infinite",
        "setProtThrld(uint256)": "infinite",
        "setRedeemTCandTPFee(uint256)": "infinite",
        "setSuccessFee(uint256)": "infinite",
        "setSwapTCforTPFee(uint256)": "infinite",
        "setSwapTPforTCFee(uint256)": "infinite",
        "setSwapTPforTPFee(uint256)": "infinite",
        "setTCInterestCollectorAddress(address)": "infinite",
        "setTCInterestPaymentBlockSpan(uint256)": "infinite",
        "setTCInterestRate(uint256)": "infinite",
        "setTcMintFee(uint256)": "infinite",
        "setTcRedeemFee(uint256)": "infinite",
        "shouldCalculateEma()": "4414",
        "stoppable()": "4572",
        "successFee()": "3812",
        "swapTCforTP(address,uint256,uint256,uint256,address,address)": "infinite",
        "swapTCforTPFee()": "2778",
        "swapTPforTC(address,uint256,uint256,uint256,address,address)": "infinite",
        "swapTPforTCFee()": "2910",
        "swapTPforTP(address,address,uint256,uint256,uint256,address,address)": "infinite",
        "swapTPforTPFee()": "3130",
        "tcHoldersInterestPayment()": "infinite",
        "tcInterestCollectorAddress()": "4273",
        "tcInterestPaymentBlockSpan()": "4098",
        "tcInterestRate()": "2470",
        "tcMintFee()": "5308",
        "tcRedeemFee()": "4450",
        "tcToken()": "3591",
        "tpCtarg(uint256)": "8398",
        "tpEma(uint256)": "11500",
        "tpLiqPrices(uint256)": "7364",
        "tpMintFees(address)": "2824",
        "tpRedeemFees(address)": "5002",
        "tpTokens(uint256)": "6678",
        "unlockACInPending(address,uint256)": "infinite",
        "unlockTCInPending(address,uint256)": "infinite",
        "unlockTPInPending(address,address,uint256)": "infinite",
        "unpause()": "infinite",
        "updateEmas()": "infinite",
        "upgradeTo(address)": "infinite",
        "upgradeToAndCall(address,bytes)": "infinite"
      }
    },
    "methodIdentifiers": {
      "absoluteAccumulator()": "d87aab6f",
      "acToken()": "25bc6c41",
      "addPeggedToken((address,address,uint256,uint256,uint256,uint256,uint256))": "db796072",
      "allowDifferentRecipient()": "eee20027",
      "appreciationFactor()": "fa6e83bd",
      "bes()": "4d977e78",
      "bns()": "1867e2f5",
      "calcCtargemaCA()": "662013f4",
      "changeGovernor(address)": "e4c0aaf4",
      "decayBlockSpan()": "6f30471f",
      "differentialAccumulator()": "76228055",
      "editPeggedToken((address,address,uint256,uint256,uint256,uint256,uint256))": "f26114aa",
      "emaCalculationBlockSpan()": "7a727fe8",
      "evalLiquidation()": "33421c38",
      "execMintTC((uint256,uint256,address,address,address))": "235e81cf",
      "execMintTCandTP((address,uint256,uint256,address,address,address))": "883d21cb",
      "execMintTP((address,uint256,uint256,address,address,address))": "b4434c32",
      "execRedeemTC((uint256,uint256,address,address,address))": "bfe42621",
      "execRedeemTCandTP((address,uint256,uint256,uint256,address,address,address))": "d8c69aec",
      "execRedeemTP((address,uint256,uint256,address,address,address))": "ad4e666d",
      "execSettlement()": "5c616a73",
      "execSwapTCforTP((address,uint256,uint256,uint256,address,address,address))": "4af3a6fc",
      "execSwapTPforTC((address,uint256,uint256,uint256,address,address,address))": "bc4e55b2",
      "execSwapTPforTP((address,address,uint256,uint256,uint256,address,address,address))": "391bf6cf",
      "feeRetainer()": "4f0f27ee",
      "feeToken()": "647846a5",
      "feeTokenPct()": "2ded50f0",
      "feeTokenPriceProvider()": "f13f4054",
      "getBts()": "e8859a15",
      "getCglb()": "826fcd58",
      "getCustomMockValue()": "57271f4d",
      "getExpansionCustomMockValue()": "07164879",
      "getLckAC()": "8f1a383a",
      "getLeverageTC()": "c039cc69",
      "getPACtp(address)": "fadda424",
      "getPTCac()": "1fb0dda0",
      "getTCAvailableToRedeem()": "4017936a",
      "getTPAvailableToMint(address)": "f88b1434",
      "getTotalACavailable()": "de8d520a",
      "getTpAmount()": "fe6b92c1",
      "governor()": "0c340a24",
      "initialize((((address,address,address,address,address,address,uint256,uint256,uint256,uint256,uint256,uint256,uint256,uint256,uint256,uint256,uint256,uint256,uint256,uint256,address,uint256,uint256,address,address,uint256,bool),address,address,address,uint256,address),address))": "938c3e65",
      "initializeMock()": "5e2a6065",
      "isLiquidationReached()": "9ad6659d",
      "lastOperationBlockNumber()": "5860ee63",
      "liqEnabled()": "e7c25978",
      "liqRedeemTP(address,address)": "47dda6af",
      "liqThrld()": "8cfa4241",
      "liquidated()": "23b98cde",
      "makeStoppable()": "68274357",
      "makeUnstoppable()": "5210570c",
      "maxAbsoluteOpProvider()": "ee1f438f",
      "maxOpDiffProvider()": "b5e9ea8c",
      "maxQACToMintTP()": "d6af11da",
      "maxQACToRedeemTP()": "7f13b998",
      "mintTC(uint256,uint256,address,address)": "60ef07bf",
      "mintTCandTP(address,uint256,uint256,address,address)": "fdcdc11e",
      "mintTCandTPFee()": "79f9a91c",
      "mintTP(address,uint256,uint256,address,address)": "d2dc25a5",
      "mocAppreciationBeneficiaryAddress()": "4e1f907a",
      "mocFeeFlowAddress()": "9853c35a",
      "mocQueue()": "13ed7ba5",
      "mocVendors()": "7f01c715",
      "nACcb()": "f30b5614",
      "nTCcb()": "7a193c31",
      "newVariable()": "8d7a72f3",
      "nextEmaCalculation()": "0c36d897",
      "nextTCInterestPayment()": "b9fa6413",
      "pause()": "8456cb59",
      "paused()": "5c975abb",
      "pauser()": "9fd0506d",
      "pegContainer(uint256)": "4b746001",
      "peggedTokenIndex(address)": "9cabfc00",
      "protThrld()": "6b5488df",
      "proxiableUUID()": "52d1902d",
      "qACLockedInPending()": "5cfbe578",
      "redeemTC(uint256,uint256,address,address)": "b03e11a0",
      "redeemTCandTP(address,uint256,uint256,uint256,address,address)": "34d70ffa",
      "redeemTCandTPFee()": "f375cfba",
      "redeemTP(address,uint256,uint256,address,address)": "2eccb11c",
      "refreshACBalance()": "e23c135c",
      "setAllowDifferentRecipient(bool)": "07b00d04",
      "setAppreciationFactor(uint256)": "01dde6ef",
      "setBes(uint256)": "c84353c9",
      "setDecayBlockSpan(uint256)": "73e28af9",
      "setEmaCalculationBlockSpan(uint256)": "3bc4ac0a",
      "setFeeRetainer(uint256)": "7750ba0c",
      "setFeeTokenAddress(address)": "cf351c1d",
      "setFeeTokenPct(uint256)": "543aeb48",
      "setFeeTokenPriceProviderAddress(address)": "0f1e5e2b",
      "setLiqEnabled(bool)": "1fe6a7ad",
      "setLiqThrld(uint256)": "2c43bd3b",
      "setMaxAbsoluteOpProviderAddress(address)": "d8db6f5a",
      "setMaxOpDiffProviderAddress(address)": "85bf9593",
      "setMintTCandTPFee(uint256)": "2069f753",
      "setMocAppreciationBeneficiaryAddress(address)": "27eab2a1",
      "setMocCoreExpansion(address)": "e6a683e0",
      "setMocFeeFlowAddress(address)": "0d6ac463",
      "setMocQueue(address)": "3cfb09ef",
      "setMocVendors(address)": "533a4bea",
      "setPauser(address)": "2d88af4a",
      "setProtThrld(uint256)": "7cba2383",
      "setRedeemTCandTPFee(uint256)": "7a4ff1d9",
      "setSuccessFee(uint256)": "becaca6b",
      "setSwapTCforTPFee(uint256)": "7af5758c",
      "setSwapTPforTCFee(uint256)": "0e0a8fd2",
      "setSwapTPforTPFee(uint256)": "70713468",
      "setTCInterestCollectorAddress(address)": "735d3960",
      "setTCInterestPaymentBlockSpan(uint256)": "073763b9",
      "setTCInterestRate(uint256)": "64ec230a",
      "setTcMintFee(uint256)": "f2808778",
      "setTcRedeemFee(uint256)": "c00f538d",
      "shouldCalculateEma()": "a8e9ac30",
      "stoppable()": "bb4872de",
      "successFee()": "7554fffd",
      "swapTCforTP(address,uint256,uint256,uint256,address,address)": "797709ca",
      "swapTCforTPFee()": "2a20d57d",
      "swapTPforTC(address,uint256,uint256,uint256,address,address)": "14b4906d",
      "swapTPforTCFee()": "333431fd",
      "swapTPforTP(address,address,uint256,uint256,uint256,address,address)": "2ed35ca1",
      "swapTPforTPFee()": "407f0e34",
      "tcHoldersInterestPayment()": "0579188f",
      "tcInterestCollectorAddress()": "8e2bdb86",
      "tcInterestPaymentBlockSpan()": "7f4a4fe0",
      "tcInterestRate()": "0db49656",
      "tcMintFee()": "fda70f8b",
      "tcRedeemFee()": "aea038dc",
      "tcToken()": "60009e0b",
      "tpCtarg(uint256)": "7d8e0314",
      "tpEma(uint256)": "e6b1627c",
      "tpLiqPrices(uint256)": "3915edcb",
      "tpMintFees(address)": "24ffaba3",
      "tpRedeemFees(address)": "ddb6d190",
      "tpTokens(uint256)": "01f1b684",
      "unlockACInPending(address,uint256)": "58f32de9",
      "unlockTCInPending(address,uint256)": "53b16d17",
      "unlockTPInPending(address,address,uint256)": "e2c5e990",
      "unpause()": "3f4ba83a",
      "updateEmas()": "d1a0faa0",
      "upgradeTo(address)": "3659cfe6",
      "upgradeToAndCall(address,bytes)": "4f1ef286"
    }
  },
  "storageLayout": {
    "storage": [
      {
        "astId": 950,
        "contract": "contracts/mocks/upgradeability/MocExpansionMocks.sol:MocCARC20WithExpansionMock",
        "label": "_initialized",
        "offset": 0,
        "slot": "0",
        "type": "t_uint8"
      },
      {
        "astId": 953,
        "contract": "contracts/mocks/upgradeability/MocExpansionMocks.sol:MocCARC20WithExpansionMock",
        "label": "_initializing",
        "offset": 1,
        "slot": "0",
        "type": "t_bool"
      },
      {
        "astId": 932,
        "contract": "contracts/mocks/upgradeability/MocExpansionMocks.sol:MocCARC20WithExpansionMock",
        "label": "__gap",
        "offset": 0,
        "slot": "1",
        "type": "t_array(t_uint256)50_storage"
      },
      {
        "astId": 1247,
        "contract": "contracts/mocks/upgradeability/MocExpansionMocks.sol:MocCARC20WithExpansionMock",
        "label": "__gap",
        "offset": 0,
        "slot": "51",
        "type": "t_array(t_uint256)50_storage"
      },
      {
        "astId": 25923,
        "contract": "contracts/mocks/upgradeability/MocExpansionMocks.sol:MocCARC20WithExpansionMock",
        "label": "__gap",
        "offset": 0,
        "slot": "101",
        "type": "t_array(t_uint256)50_storage"
      },
      {
        "astId": 19647,
        "contract": "contracts/mocks/upgradeability/MocExpansionMocks.sol:MocCARC20WithExpansionMock",
        "label": "governor",
        "offset": 0,
        "slot": "151",
        "type": "t_contract(IGovernor)20435"
      },
      {
        "astId": 19718,
        "contract": "contracts/mocks/upgradeability/MocExpansionMocks.sol:MocCARC20WithExpansionMock",
        "label": "__gap",
        "offset": 0,
        "slot": "152",
        "type": "t_array(t_uint256)50_storage"
      },
      {
        "astId": 19787,
        "contract": "contracts/mocks/upgradeability/MocExpansionMocks.sol:MocCARC20WithExpansionMock",
        "label": "stoppable",
        "offset": 0,
        "slot": "202",
        "type": "t_bool"
      },
      {
        "astId": 19789,
        "contract": "contracts/mocks/upgradeability/MocExpansionMocks.sol:MocCARC20WithExpansionMock",
        "label": "_paused",
        "offset": 1,
        "slot": "202",
        "type": "t_bool"
      },
      {
        "astId": 19791,
        "contract": "contracts/mocks/upgradeability/MocExpansionMocks.sol:MocCARC20WithExpansionMock",
        "label": "pauser",
        "offset": 2,
        "slot": "202",
        "type": "t_address"
      },
      {
        "astId": 19963,
        "contract": "contracts/mocks/upgradeability/MocExpansionMocks.sol:MocCARC20WithExpansionMock",
        "label": "__gap",
        "offset": 0,
        "slot": "203",
        "type": "t_array(t_uint256)50_storage"
      },
      {
        "astId": 19769,
        "contract": "contracts/mocks/upgradeability/MocExpansionMocks.sol:MocCARC20WithExpansionMock",
        "label": "__gap",
        "offset": 0,
        "slot": "253",
        "type": "t_array(t_uint256)50_storage"
      },
      {
        "astId": 9265,
        "contract": "contracts/mocks/upgradeability/MocExpansionMocks.sol:MocCARC20WithExpansionMock",
        "label": "feeToken",
        "offset": 0,
        "slot": "303",
        "type": "t_contract(IERC20)6209"
      },
      {
        "astId": 9268,
        "contract": "contracts/mocks/upgradeability/MocExpansionMocks.sol:MocCARC20WithExpansionMock",
        "label": "feeTokenPriceProvider",
        "offset": 0,
        "slot": "304",
        "type": "t_contract(IPriceProvider)20473"
      },
      {
        "astId": 9270,
        "contract": "contracts/mocks/upgradeability/MocExpansionMocks.sol:MocCARC20WithExpansionMock",
        "label": "nACcb",
        "offset": 0,
        "slot": "305",
        "type": "t_uint256"
      },
      {
        "astId": 9272,
        "contract": "contracts/mocks/upgradeability/MocExpansionMocks.sol:MocCARC20WithExpansionMock",
        "label": "nACioucb",
        "offset": 0,
        "slot": "306",
        "type": "t_uint256"
      },
      {
        "astId": 9275,
        "contract": "contracts/mocks/upgradeability/MocExpansionMocks.sol:MocCARC20WithExpansionMock",
        "label": "tcToken",
        "offset": 0,
        "slot": "307",
        "type": "t_contract(MocTC)25748"
      },
      {
        "astId": 9277,
        "contract": "contracts/mocks/upgradeability/MocExpansionMocks.sol:MocCARC20WithExpansionMock",
        "label": "nTCcb",
        "offset": 0,
        "slot": "308",
        "type": "t_uint256"
      },
      {
        "astId": 9281,
        "contract": "contracts/mocks/upgradeability/MocExpansionMocks.sol:MocCARC20WithExpansionMock",
        "label": "tpTokens",
        "offset": 0,
        "slot": "309",
        "type": "t_array(t_contract(IMocRC20)20461)dyn_storage"
      },
      {
        "astId": 9286,
        "contract": "contracts/mocks/upgradeability/MocExpansionMocks.sol:MocCARC20WithExpansionMock",
        "label": "peggedTokenIndex",
        "offset": 0,
        "slot": "310",
        "type": "t_mapping(t_address,t_struct(PeggedTokenIndex)9207_storage)"
      },
      {
        "astId": 9290,
        "contract": "contracts/mocks/upgradeability/MocExpansionMocks.sol:MocCARC20WithExpansionMock",
        "label": "pegContainer",
        "offset": 0,
        "slot": "311",
        "type": "t_array(t_struct(PegContainerItem)9202_storage)dyn_storage"
      },
      {
        "astId": 9293,
        "contract": "contracts/mocks/upgradeability/MocExpansionMocks.sol:MocCARC20WithExpansionMock",
        "label": "tpLiqPrices",
        "offset": 0,
        "slot": "312",
        "type": "t_array(t_uint256)dyn_storage"
      },
      {
        "astId": 9295,
        "contract": "contracts/mocks/upgradeability/MocExpansionMocks.sol:MocCARC20WithExpansionMock",
        "label": "successFee",
        "offset": 0,
        "slot": "313",
        "type": "t_uint256"
      },
      {
        "astId": 9297,
        "contract": "contracts/mocks/upgradeability/MocExpansionMocks.sol:MocCARC20WithExpansionMock",
        "label": "appreciationFactor",
        "offset": 0,
        "slot": "314",
        "type": "t_uint256"
      },
      {
        "astId": 9299,
        "contract": "contracts/mocks/upgradeability/MocExpansionMocks.sol:MocCARC20WithExpansionMock",
        "label": "feeRetainer",
        "offset": 0,
        "slot": "315",
        "type": "t_uint256"
      },
      {
        "astId": 9301,
        "contract": "contracts/mocks/upgradeability/MocExpansionMocks.sol:MocCARC20WithExpansionMock",
        "label": "tcMintFee",
        "offset": 0,
        "slot": "316",
        "type": "t_uint256"
      },
      {
        "astId": 9303,
        "contract": "contracts/mocks/upgradeability/MocExpansionMocks.sol:MocCARC20WithExpansionMock",
        "label": "tcRedeemFee",
        "offset": 0,
        "slot": "317",
        "type": "t_uint256"
      },
      {
        "astId": 9305,
        "contract": "contracts/mocks/upgradeability/MocExpansionMocks.sol:MocCARC20WithExpansionMock",
        "label": "swapTPforTPFee",
        "offset": 0,
        "slot": "318",
        "type": "t_uint256"
      },
      {
        "astId": 9307,
        "contract": "contracts/mocks/upgradeability/MocExpansionMocks.sol:MocCARC20WithExpansionMock",
        "label": "swapTPforTCFee",
        "offset": 0,
        "slot": "319",
        "type": "t_uint256"
      },
      {
        "astId": 9309,
        "contract": "contracts/mocks/upgradeability/MocExpansionMocks.sol:MocCARC20WithExpansionMock",
        "label": "swapTCforTPFee",
        "offset": 0,
        "slot": "320",
        "type": "t_uint256"
      },
      {
        "astId": 9311,
        "contract": "contracts/mocks/upgradeability/MocExpansionMocks.sol:MocCARC20WithExpansionMock",
        "label": "redeemTCandTPFee",
        "offset": 0,
        "slot": "321",
        "type": "t_uint256"
      },
      {
        "astId": 9313,
        "contract": "contracts/mocks/upgradeability/MocExpansionMocks.sol:MocCARC20WithExpansionMock",
        "label": "mintTCandTPFee",
        "offset": 0,
        "slot": "322",
        "type": "t_uint256"
      },
      {
        "astId": 9315,
        "contract": "contracts/mocks/upgradeability/MocExpansionMocks.sol:MocCARC20WithExpansionMock",
        "label": "feeTokenPct",
        "offset": 0,
        "slot": "323",
        "type": "t_uint256"
      },
      {
        "astId": 9319,
        "contract": "contracts/mocks/upgradeability/MocExpansionMocks.sol:MocCARC20WithExpansionMock",
        "label": "tpMintFees",
        "offset": 0,
        "slot": "324",
        "type": "t_mapping(t_address,t_uint256)"
      },
      {
        "astId": 9323,
        "contract": "contracts/mocks/upgradeability/MocExpansionMocks.sol:MocCARC20WithExpansionMock",
        "label": "tpRedeemFees",
        "offset": 0,
        "slot": "325",
        "type": "t_mapping(t_address,t_uint256)"
      },
      {
        "astId": 9325,
        "contract": "contracts/mocks/upgradeability/MocExpansionMocks.sol:MocCARC20WithExpansionMock",
        "label": "mocFeeFlowAddress",
        "offset": 0,
        "slot": "326",
        "type": "t_address"
      },
      {
        "astId": 9327,
        "contract": "contracts/mocks/upgradeability/MocExpansionMocks.sol:MocCARC20WithExpansionMock",
        "label": "mocAppreciationBeneficiaryAddress",
        "offset": 0,
        "slot": "327",
        "type": "t_address"
      },
      {
        "astId": 9330,
        "contract": "contracts/mocks/upgradeability/MocExpansionMocks.sol:MocCARC20WithExpansionMock",
        "label": "tpCtarg",
        "offset": 0,
        "slot": "328",
        "type": "t_array(t_uint256)dyn_storage"
      },
      {
        "astId": 9332,
        "contract": "contracts/mocks/upgradeability/MocExpansionMocks.sol:MocCARC20WithExpansionMock",
        "label": "protThrld",
        "offset": 0,
        "slot": "329",
        "type": "t_uint256"
      },
      {
        "astId": 9334,
        "contract": "contracts/mocks/upgradeability/MocExpansionMocks.sol:MocCARC20WithExpansionMock",
        "label": "liqThrld",
        "offset": 0,
        "slot": "330",
        "type": "t_uint256"
      },
      {
        "astId": 9336,
        "contract": "contracts/mocks/upgradeability/MocExpansionMocks.sol:MocCARC20WithExpansionMock",
        "label": "liqEnabled",
        "offset": 0,
        "slot": "331",
        "type": "t_bool"
      },
      {
        "astId": 9338,
        "contract": "contracts/mocks/upgradeability/MocExpansionMocks.sol:MocCARC20WithExpansionMock",
        "label": "liquidated",
        "offset": 1,
        "slot": "331",
        "type": "t_bool"
      },
      {
        "astId": 9340,
        "contract": "contracts/mocks/upgradeability/MocExpansionMocks.sol:MocCARC20WithExpansionMock",
        "label": "allowDifferentRecipient",
        "offset": 2,
        "slot": "331",
        "type": "t_bool"
      },
      {
        "astId": 9342,
        "contract": "contracts/mocks/upgradeability/MocExpansionMocks.sol:MocCARC20WithExpansionMock",
        "label": "bes",
        "offset": 0,
        "slot": "332",
        "type": "t_uint256"
      },
      {
        "astId": 9344,
        "contract": "contracts/mocks/upgradeability/MocExpansionMocks.sol:MocCARC20WithExpansionMock",
        "label": "bns",
        "offset": 0,
        "slot": "333",
        "type": "t_uint256"
      },
      {
        "astId": 9346,
        "contract": "contracts/mocks/upgradeability/MocExpansionMocks.sol:MocCARC20WithExpansionMock",
        "label": "qACLockedInPending",
        "offset": 0,
        "slot": "334",
        "type": "t_uint256"
      },
      {
        "astId": 9348,
        "contract": "contracts/mocks/upgradeability/MocExpansionMocks.sol:MocCARC20WithExpansionMock",
        "label": "mocQueue",
        "offset": 0,
        "slot": "335",
        "type": "t_address_payable"
      },
      {
        "astId": 9351,
        "contract": "contracts/mocks/upgradeability/MocExpansionMocks.sol:MocCARC20WithExpansionMock",
        "label": "tpiou",
        "offset": 0,
        "slot": "336",
        "type": "t_array(t_int256)dyn_storage"
      },
      {
        "astId": 9354,
        "contract": "contracts/mocks/upgradeability/MocExpansionMocks.sol:MocCARC20WithExpansionMock",
        "label": "pACtpLstop",
        "offset": 0,
        "slot": "337",
        "type": "t_array(t_uint256)dyn_storage"
      },
      {
        "astId": 9357,
        "contract": "contracts/mocks/upgradeability/MocExpansionMocks.sol:MocCARC20WithExpansionMock",
        "label": "maxAbsoluteOpProvider",
        "offset": 0,
        "slot": "338",
        "type": "t_contract(IDataProvider)20414"
      },
      {
        "astId": 9360,
        "contract": "contracts/mocks/upgradeability/MocExpansionMocks.sol:MocCARC20WithExpansionMock",
        "label": "maxOpDiffProvider",
        "offset": 0,
        "slot": "339",
        "type": "t_contract(IDataProvider)20414"
      },
      {
        "astId": 9362,
        "contract": "contracts/mocks/upgradeability/MocExpansionMocks.sol:MocCARC20WithExpansionMock",
        "label": "decayBlockSpan",
        "offset": 0,
        "slot": "340",
        "type": "t_uint256"
      },
      {
        "astId": 9364,
        "contract": "contracts/mocks/upgradeability/MocExpansionMocks.sol:MocCARC20WithExpansionMock",
        "label": "absoluteAccumulator",
        "offset": 0,
        "slot": "341",
        "type": "t_uint256"
      },
      {
        "astId": 9366,
        "contract": "contracts/mocks/upgradeability/MocExpansionMocks.sol:MocCARC20WithExpansionMock",
        "label": "differentialAccumulator",
        "offset": 0,
        "slot": "342",
        "type": "t_int256"
      },
      {
        "astId": 9368,
        "contract": "contracts/mocks/upgradeability/MocExpansionMocks.sol:MocCARC20WithExpansionMock",
        "label": "lastOperationBlockNumber",
        "offset": 0,
        "slot": "343",
        "type": "t_uint256"
      },
      {
        "astId": 9370,
        "contract": "contracts/mocks/upgradeability/MocExpansionMocks.sol:MocCARC20WithExpansionMock",
        "label": "tcInterestCollectorAddress",
        "offset": 0,
        "slot": "344",
        "type": "t_address"
      },
      {
        "astId": 9372,
        "contract": "contracts/mocks/upgradeability/MocExpansionMocks.sol:MocCARC20WithExpansionMock",
        "label": "tcInterestRate",
        "offset": 0,
        "slot": "345",
        "type": "t_uint256"
      },
      {
        "astId": 9374,
        "contract": "contracts/mocks/upgradeability/MocExpansionMocks.sol:MocCARC20WithExpansionMock",
        "label": "tcInterestPaymentBlockSpan",
        "offset": 0,
        "slot": "346",
        "type": "t_uint256"
      },
      {
        "astId": 9376,
        "contract": "contracts/mocks/upgradeability/MocExpansionMocks.sol:MocCARC20WithExpansionMock",
        "label": "nextTCInterestPayment",
        "offset": 0,
        "slot": "347",
        "type": "t_uint256"
      },
      {
        "astId": 11016,
        "contract": "contracts/mocks/upgradeability/MocExpansionMocks.sol:MocCARC20WithExpansionMock",
        "label": "__gap",
        "offset": 0,
        "slot": "348",
        "type": "t_array(t_uint256)50_storage"
      },
      {
        "astId": 14806,
        "contract": "contracts/mocks/upgradeability/MocExpansionMocks.sol:MocCARC20WithExpansionMock",
        "label": "tpEma",
        "offset": 0,
        "slot": "398",
        "type": "t_array(t_struct(EmaItem)14802_storage)dyn_storage"
      },
      {
        "astId": 14808,
        "contract": "contracts/mocks/upgradeability/MocExpansionMocks.sol:MocCARC20WithExpansionMock",
        "label": "nextEmaCalculation",
        "offset": 0,
        "slot": "399",
        "type": "t_uint256"
      },
      {
        "astId": 14810,
        "contract": "contracts/mocks/upgradeability/MocExpansionMocks.sol:MocCARC20WithExpansionMock",
        "label": "emaCalculationBlockSpan",
        "offset": 0,
        "slot": "400",
        "type": "t_uint256"
      },
      {
        "astId": 15182,
        "contract": "contracts/mocks/upgradeability/MocExpansionMocks.sol:MocCARC20WithExpansionMock",
        "label": "__gap",
        "offset": 0,
        "slot": "401",
        "type": "t_array(t_uint256)50_storage"
      },
      {
        "astId": 11050,
        "contract": "contracts/mocks/upgradeability/MocExpansionMocks.sol:MocCARC20WithExpansionMock",
        "label": "mocVendors",
        "offset": 0,
        "slot": "451",
        "type": "t_contract(MocVendors)26053"
      },
      {
        "astId": 11923,
        "contract": "contracts/mocks/upgradeability/MocExpansionMocks.sol:MocCARC20WithExpansionMock",
        "label": "__gap",
        "offset": 0,
        "slot": "452",
        "type": "t_array(t_uint256)50_storage"
      },
      {
        "astId": 22017,
        "contract": "contracts/mocks/upgradeability/MocExpansionMocks.sol:MocCARC20WithExpansionMock",
        "label": "newVariable",
        "offset": 0,
        "slot": "502",
        "type": "t_uint256"
      },
      {
        "astId": 11972,
        "contract": "contracts/mocks/upgradeability/MocExpansionMocks.sol:MocCARC20WithExpansionMock",
        "label": "mocCoreExpansion",
        "offset": 0,
        "slot": "503",
        "type": "t_address"
      },
      {
        "astId": 13569,
        "contract": "contracts/mocks/upgradeability/MocExpansionMocks.sol:MocCARC20WithExpansionMock",
        "label": "__gap",
        "offset": 0,
        "slot": "504",
        "type": "t_array(t_uint256)50_storage"
      },
      {
        "astId": 8822,
        "contract": "contracts/mocks/upgradeability/MocExpansionMocks.sol:MocCARC20WithExpansionMock",
        "label": "acToken",
        "offset": 0,
        "slot": "554",
        "type": "t_contract(IERC20)6209"
      },
      {
        "astId": 9163,
        "contract": "contracts/mocks/upgradeability/MocExpansionMocks.sol:MocCARC20WithExpansionMock",
        "label": "__gap",
        "offset": 0,
        "slot": "555",
        "type": "t_array(t_uint256)50_storage"
      }
    ],
    "types": {
      "t_address": {
        "encoding": "inplace",
        "label": "address",
        "numberOfBytes": "20"
      },
      "t_address_payable": {
        "encoding": "inplace",
        "label": "address payable",
        "numberOfBytes": "20"
      },
      "t_array(t_contract(IMocRC20)20461)dyn_storage": {
        "base": "t_contract(IMocRC20)20461",
        "encoding": "dynamic_array",
        "label": "contract IMocRC20[]",
        "numberOfBytes": "32"
      },
      "t_array(t_int256)dyn_storage": {
        "base": "t_int256",
        "encoding": "dynamic_array",
        "label": "int256[]",
        "numberOfBytes": "32"
      },
      "t_array(t_struct(EmaItem)14802_storage)dyn_storage": {
        "base": "t_struct(EmaItem)14802_storage",
        "encoding": "dynamic_array",
        "label": "struct MocEma.EmaItem[]",
        "numberOfBytes": "32"
      },
      "t_array(t_struct(PegContainerItem)9202_storage)dyn_storage": {
        "base": "t_struct(PegContainerItem)9202_storage",
        "encoding": "dynamic_array",
        "label": "struct MocBaseBucket.PegContainerItem[]",
        "numberOfBytes": "32"
      },
      "t_array(t_uint256)50_storage": {
        "base": "t_uint256",
        "encoding": "inplace",
        "label": "uint256[50]",
        "numberOfBytes": "1600"
      },
      "t_array(t_uint256)dyn_storage": {
        "base": "t_uint256",
        "encoding": "dynamic_array",
        "label": "uint256[]",
        "numberOfBytes": "32"
      },
      "t_bool": {
        "encoding": "inplace",
        "label": "bool",
        "numberOfBytes": "1"
      },
      "t_contract(IDataProvider)20414": {
        "encoding": "inplace",
        "label": "contract IDataProvider",
        "numberOfBytes": "20"
      },
      "t_contract(IERC20)6209": {
        "encoding": "inplace",
        "label": "contract IERC20",
        "numberOfBytes": "20"
      },
      "t_contract(IGovernor)20435": {
        "encoding": "inplace",
        "label": "contract IGovernor",
        "numberOfBytes": "20"
      },
      "t_contract(IMocRC20)20461": {
        "encoding": "inplace",
        "label": "contract IMocRC20",
        "numberOfBytes": "20"
      },
      "t_contract(IPriceProvider)20473": {
        "encoding": "inplace",
        "label": "contract IPriceProvider",
        "numberOfBytes": "20"
      },
      "t_contract(MocTC)25748": {
        "encoding": "inplace",
        "label": "contract MocTC",
        "numberOfBytes": "20"
      },
      "t_contract(MocVendors)26053": {
        "encoding": "inplace",
        "label": "contract MocVendors",
        "numberOfBytes": "20"
      },
      "t_int256": {
        "encoding": "inplace",
        "label": "int256",
        "numberOfBytes": "32"
      },
      "t_mapping(t_address,t_struct(PeggedTokenIndex)9207_storage)": {
        "encoding": "mapping",
        "key": "t_address",
        "label": "mapping(address => struct MocBaseBucket.PeggedTokenIndex)",
        "numberOfBytes": "32",
        "value": "t_struct(PeggedTokenIndex)9207_storage"
      },
      "t_mapping(t_address,t_uint256)": {
        "encoding": "mapping",
        "key": "t_address",
        "label": "mapping(address => uint256)",
        "numberOfBytes": "32",
        "value": "t_uint256"
      },
      "t_struct(EmaItem)14802_storage": {
        "encoding": "inplace",
        "label": "struct MocEma.EmaItem",
        "members": [
          {
            "astId": 14799,
            "contract": "contracts/mocks/upgradeability/MocExpansionMocks.sol:MocCARC20WithExpansionMock",
            "label": "ema",
            "offset": 0,
            "slot": "0",
            "type": "t_uint256"
          },
          {
            "astId": 14801,
            "contract": "contracts/mocks/upgradeability/MocExpansionMocks.sol:MocCARC20WithExpansionMock",
            "label": "sf",
            "offset": 0,
            "slot": "1",
            "type": "t_uint256"
          }
        ],
        "numberOfBytes": "64"
      },
      "t_struct(PegContainerItem)9202_storage": {
        "encoding": "inplace",
        "label": "struct MocBaseBucket.PegContainerItem",
        "members": [
          {
            "astId": 9198,
            "contract": "contracts/mocks/upgradeability/MocExpansionMocks.sol:MocCARC20WithExpansionMock",
            "label": "nTP",
            "offset": 0,
            "slot": "0",
            "type": "t_uint256"
          },
          {
            "astId": 9201,
            "contract": "contracts/mocks/upgradeability/MocExpansionMocks.sol:MocCARC20WithExpansionMock",
            "label": "priceProvider",
            "offset": 0,
            "slot": "1",
            "type": "t_contract(IPriceProvider)20473"
          }
        ],
        "numberOfBytes": "64"
      },
      "t_struct(PeggedTokenIndex)9207_storage": {
        "encoding": "inplace",
        "label": "struct MocBaseBucket.PeggedTokenIndex",
        "members": [
          {
            "astId": 9204,
            "contract": "contracts/mocks/upgradeability/MocExpansionMocks.sol:MocCARC20WithExpansionMock",
            "label": "index",
            "offset": 0,
            "slot": "0",
            "type": "t_uint256"
          },
          {
            "astId": 9206,
            "contract": "contracts/mocks/upgradeability/MocExpansionMocks.sol:MocCARC20WithExpansionMock",
            "label": "exists",
            "offset": 0,
            "slot": "1",
            "type": "t_bool"
          }
        ],
        "numberOfBytes": "64"
      },
      "t_uint256": {
        "encoding": "inplace",
        "label": "uint256",
        "numberOfBytes": "32"
      },
      "t_uint8": {
        "encoding": "inplace",
        "label": "uint8",
        "numberOfBytes": "1"
      }
    }
  },
  "userdoc": {
    "kind": "user",
    "methods": {
      "addPeggedToken((address,address,uint256,uint256,uint256,uint256,uint256))": {
        "notice": "add a Pegged Token to the protocol"
      },
      "calcCtargemaCA()": {
        "notice": "calculates target coverage adjusted by all Pegged Token's to Collateral Asset rate moving average"
      },
      "changeGovernor(address)": {
        "notice": "Change the contract's governor. Should be called through the old governance system"
      },
      "editPeggedToken((address,address,uint256,uint256,uint256,uint256,uint256))": {
        "notice": "modifies a Pegged Token of the protocol"
      },
      "execMintTC((uint256,uint256,address,address,address))": {
        "notice": "executes Operation based on params, only mocQueue allowed see MocCore _mintTCto for details"
      },
      "execMintTCandTP((address,uint256,uint256,address,address,address))": {
        "notice": "executes Operation based on params, only mocQueue allowed see MocCore _mintTCandTPto for details"
      },
      "execMintTP((address,uint256,uint256,address,address,address))": {
        "notice": "executes Operation based on params, only mocQueue allowed see MocCore _mintTPto for details"
      },
      "execRedeemTC((uint256,uint256,address,address,address))": {
        "notice": "executes Operation based on params, only mocQueue allowed see MocCore _redeemTCto for details"
      },
      "execRedeemTCandTP((address,uint256,uint256,uint256,address,address,address))": {
        "notice": "executes Operation based on params, only mocQueue allowed see MocCore _redeemTCandTPto for details"
      },
      "execRedeemTP((address,uint256,uint256,address,address,address))": {
        "notice": "executes Operation based on params, only mocQueue allowed see MocCore _redeemTPto for details"
      },
      "execSettlement()": {
        "notice": "this function is executed during settlement.  stores amount of locked AC by Pegged Tokens at this moment and distribute success fee"
      },
      "execSwapTCforTP((address,uint256,uint256,uint256,address,address,address))": {
        "notice": "executes Operation based on params, only mocQueue allowed see MocCore _swapTCforTPto for details"
      },
      "execSwapTPforTC((address,uint256,uint256,uint256,address,address,address))": {
        "notice": "executes Operation based on params, only mocQueue allowed see MocCore _swapTPforTCto for details"
      },
      "execSwapTPforTP((address,address,uint256,uint256,uint256,address,address,address))": {
        "notice": "executes Operation based on params, only mocQueue allowed see MocCore _swapTPforTPto for details"
      },
      "getBts()": {
        "notice": "get the number of blocks remaining for settlement"
      },
      "getCglb()": {
        "notice": "get bucket global coverage"
      },
      "getLckAC()": {
        "notice": "get amount of Collateral Asset locked by Pegged Token"
      },
      "getLeverageTC()": {
        "notice": "get Collateral Token leverage"
      },
      "getPACtp(address)": {
        "notice": "get how many Pegged Token equal 1 Collateral Asset"
      },
      "getPTCac()": {
        "notice": "get Collateral Token price"
      },
      "getTCAvailableToRedeem()": {
        "notice": "get amount of Collateral Token available to redeem"
      },
      "getTPAvailableToMint(address)": {
        "notice": "get amount of Pegged Token available to mint"
      },
      "getTotalACavailable()": {
        "notice": "get total Collateral Asset available"
      },
      "getTpAmount()": {
        "notice": "return current amount of Tps"
      },
      "governor()": {
        "notice": "The address of the contract which governs this one"
      },
      "initialize((((address,address,address,address,address,address,uint256,uint256,uint256,uint256,uint256,uint256,uint256,uint256,uint256,uint256,uint256,uint256,uint256,uint256,address,uint256,uint256,address,address,uint256,bool),address,address,address,uint256,address),address))": {
        "notice": "contract initializer"
      },
      "isLiquidationReached()": {
        "notice": "If liquidation is enabled, verifies if forced liquidation has been reached, checking if globalCoverage <= liquidation"
      },
      "liqRedeemTP(address,address)": {
        "notice": "Allow redeem on liquidation state, user Peg balance gets burned and he receives the equivalent AC given the liquidation frozen price."
      },
      "makeStoppable()": {
        "notice": "Switches ON the stoppability of the contract. It can be paused or unpaused  Doesn't change the pause state, if the contract was already paused it cannot be operated"
      },
      "makeUnstoppable()": {
        "notice": "Switches OFF the stoppability of the contract. It cannot be paused or unpaused Doesn't change the pause state, if the contract was already paused it cannot be operated"
      },
      "maxQACToMintTP()": {
        "notice": "gets the max amount of AC allowed to operate to mint TP with, restricted by accumulators // TODO: move this function to a MocView contract"
      },
      "maxQACToRedeemTP()": {
        "notice": "gets the max amount of AC allowed to operate to redeem TP with, restricted by accumulators // TODO: move this function to a MocView contract"
      },
      "mintTC(uint256,uint256,address,address)": {
        "notice": "caller sends Collateral Asset and recipient receives Collateral Token  `vendor_` receives a markup in Fee Token if possible or in qAC if not   Requires prior sender approval of Collateral Asset to this contract"
      },
      "mintTCandTP(address,uint256,uint256,address,address)": {
        "notice": "caller sends Collateral Asset and recipient receives Collateral Token and Pegged Token  `vendor_` receives a markup in Fee Token if possible or in qAC if not  Requires prior sender approval of Collateral Asset to this contract  This operation is done without checking coverage  Collateral Token and Pegged Token are minted in equivalent proportions so that its price  and global coverage are not modified.  Reverts if qAC sent are insufficient."
      },
      "mintTP(address,uint256,uint256,address,address)": {
        "notice": "caller sends Collateral Asset and recipient receives Pegged Token  `vendor_` receives a markup in Fee Token if possible or in qAC if not   Requires prior sender approval of Collateral Asset to this contract"
      },
      "pause()": {
        "notice": "Called by the owner to pause, triggers stopped state"
      },
      "paused()": {
        "notice": "Returns true if paused"
      },
      "redeemTC(uint256,uint256,address,address)": {
        "notice": "caller sends Collateral Token and recipient receives Collateral Asset  `vendor_` receives a markup in Fee Token if possible or in qAC if not"
      },
      "redeemTCandTP(address,uint256,uint256,uint256,address,address)": {
        "notice": "Caller sends Collateral Token and Pegged Token and recipient receives Collateral Asset.  `vendor_` receives a markup in Fee Token if possible or in Collateral Asset if not  This operation is done without checking coverage  Collateral Token and Pegged Token are redeemed in equivalent proportions so that their price  and global coverage are not modified.  Reverts if qTP sent are insufficient."
      },
      "redeemTP(address,uint256,uint256,address,address)": {
        "notice": "caller sends Pegged Token and recipient receives Collateral Asset  `vendor_` receives a markup in Fee Token if possible or in qAC if not"
      },
      "refreshACBalance()": {
        "notice": "Refreshes the AC holdings for the Bucket"
      },
      "setPauser(address)": {
        "notice": "Changes the address which is enable to pause this contract"
      },
      "shouldCalculateEma()": {
        "notice": "true if the necessary span has pass since last ema update"
      },
      "swapTCforTP(address,uint256,uint256,uint256,address,address)": {
        "notice": "Caller sends a Collateral Token and recipient receives Pegged Token.  `vendor_` receives a markup in Fee Token if possible or in qAC if not."
      },
      "swapTPforTC(address,uint256,uint256,uint256,address,address)": {
        "notice": "caller sends a Pegged Token and recipient receives Collateral Token  `vendor_` receives a markup in Fee Token if possible or in qAC if not"
      },
      "swapTPforTP(address,address,uint256,uint256,uint256,address,address)": {
        "notice": "caller sends a Pegged Token and recipient receives another one  `vendor_` receives a markup in Fee Token if possible or in qAC if not"
      },
      "tcHoldersInterestPayment()": {
        "notice": "executes the interest payment of the TC holders  can only be executed after a block span"
      },
      "unlockACInPending(address,uint256)": {
        "notice": "while executing a pending Operation, if it fails we need to unlock user's funds"
      },
      "unlockTCInPending(address,uint256)": {
        "notice": "while executing a pending Operation, if it fails we need to unlock user's tokens"
      },
      "unlockTPInPending(address,address,uint256)": {
        "notice": "while executing a pending Operation, if it fails we need to unlock user's tokens"
      },
      "unpause()": {
        "notice": "Called by the owner to unpause, returns to normal state"
      },
      "updateEmas()": {
        "notice": "If time, calculates the EMA for all the Pegged Token prices."
      }
    },
    "version": 1
  }
}