{
  "contractName": "MocCoinbaseWithExpansionMock",
  "sourceName": "contracts/mocks/upgradeability/MocExpansionMocks.sol",
  "abi": [
    {
      "inputs": [
        {
          "internalType": "uint256",
          "name": "qACsent_",
          "type": "uint256"
        },
        {
          "internalType": "uint256",
          "name": "qACNeeded_",
          "type": "uint256"
        }
      ],
      "name": "InsufficientQacSent",
      "type": "error"
    },
    {
      "inputs": [
        {
          "internalType": "uint256",
          "name": "qTPsent_",
          "type": "uint256"
        },
        {
          "internalType": "uint256",
          "name": "qTPNeeded_",
          "type": "uint256"
        }
      ],
      "name": "InsufficientQtpSent",
      "type": "error"
    },
    {
      "inputs": [
        {
          "internalType": "uint256",
          "name": "qTC_",
          "type": "uint256"
        },
        {
          "internalType": "uint256",
          "name": "tcAvailableToRedeem_",
          "type": "uint256"
        }
      ],
      "name": "InsufficientTCtoRedeem",
      "type": "error"
    },
    {
      "inputs": [
        {
          "internalType": "uint256",
          "name": "qTP_",
          "type": "uint256"
        },
        {
          "internalType": "uint256",
          "name": "tpAvailableToMint_",
          "type": "uint256"
        }
      ],
      "name": "InsufficientTPtoMint",
      "type": "error"
    },
    {
      "inputs": [
        {
          "internalType": "uint256",
          "name": "qTP_",
          "type": "uint256"
        },
        {
          "internalType": "uint256",
          "name": "tpAvailableToRedeem_",
          "type": "uint256"
        }
      ],
      "name": "InsufficientTPtoRedeem",
      "type": "error"
    },
    {
      "inputs": [],
      "name": "InvalidAddress",
      "type": "error"
    },
    {
      "inputs": [],
      "name": "InvalidFluxCapacitorOperation",
      "type": "error"
    },
    {
      "inputs": [],
      "name": "InvalidValue",
      "type": "error"
    },
    {
      "inputs": [],
      "name": "Liquidated",
      "type": "error"
    },
    {
      "inputs": [
        {
          "internalType": "uint256",
          "name": "cglb_",
          "type": "uint256"
        },
        {
          "internalType": "uint256",
          "name": "covThrld_",
          "type": "uint256"
        }
      ],
      "name": "LowCoverage",
      "type": "error"
    },
    {
      "inputs": [
        {
          "internalType": "uint256",
          "name": "max_",
          "type": "uint256"
        },
        {
          "internalType": "uint256",
          "name": "new_",
          "type": "uint256"
        }
      ],
      "name": "MaxFluxCapacitorOperationReached",
      "type": "error"
    },
    {
      "inputs": [],
      "name": "MissingBlocksToSettlement",
      "type": "error"
    },
    {
      "inputs": [],
      "name": "MissingBlocksToTCInterestPayment",
      "type": "error"
    },
    {
      "inputs": [
        {
          "internalType": "address",
          "name": "dataProviderAddress_",
          "type": "address"
        }
      ],
      "name": "MissingProviderData",
      "type": "error"
    },
    {
      "inputs": [
        {
          "internalType": "address",
          "name": "priceProviderAddress_",
          "type": "address"
        }
      ],
      "name": "MissingProviderPrice",
      "type": "error"
    },
    {
      "inputs": [],
      "name": "NotAuthorizedChanger",
      "type": "error"
    },
    {
      "inputs": [],
      "name": "NotWhenPaused",
      "type": "error"
    },
    {
      "inputs": [],
      "name": "OnlyPauser",
      "type": "error"
    },
    {
      "inputs": [],
      "name": "OnlyQueue",
      "type": "error"
    },
    {
      "inputs": [],
      "name": "OnlyWhenLiquidated",
      "type": "error"
    },
    {
      "inputs": [],
      "name": "OnlyWhilePaused",
      "type": "error"
    },
    {
      "inputs": [],
      "name": "PeggedTokenAlreadyAdded",
      "type": "error"
    },
    {
      "inputs": [
        {
          "internalType": "uint256",
          "name": "qACmin_",
          "type": "uint256"
        },
        {
          "internalType": "uint256",
          "name": "qACtoRedeem_",
          "type": "uint256"
        }
      ],
      "name": "QacBelowMinimumRequired",
      "type": "error"
    },
    {
      "inputs": [],
      "name": "QacNeededMustBeGreaterThanZero",
      "type": "error"
    },
    {
      "inputs": [
        {
          "internalType": "uint256",
          "name": "qTCmin_",
          "type": "uint256"
        },
        {
          "internalType": "uint256",
          "name": "qTC_",
          "type": "uint256"
        }
      ],
      "name": "QtcBelowMinimumRequired",
      "type": "error"
    },
    {
      "inputs": [
        {
          "internalType": "uint256",
          "name": "qTPmin_",
          "type": "uint256"
        },
        {
          "internalType": "uint256",
          "name": "qTP_",
          "type": "uint256"
        }
      ],
      "name": "QtpBelowMinimumRequired",
      "type": "error"
    },
    {
      "inputs": [],
      "name": "TransferFailed",
      "type": "error"
    },
    {
      "inputs": [],
      "name": "Unstoppable",
      "type": "error"
    },
    {
      "anonymous": false,
      "inputs": [
        {
          "indexed": false,
          "internalType": "address",
          "name": "previousAdmin",
          "type": "address"
        },
        {
          "indexed": false,
          "internalType": "address",
          "name": "newAdmin",
          "type": "address"
        }
      ],
      "name": "AdminChanged",
      "type": "event"
    },
    {
      "anonymous": false,
      "inputs": [
        {
          "indexed": true,
          "internalType": "address",
          "name": "beacon",
          "type": "address"
        }
      ],
      "name": "BeaconUpgraded",
      "type": "event"
    },
    {
      "anonymous": false,
      "inputs": [],
      "name": "ContractLiquidated",
      "type": "event"
    },
    {
      "anonymous": false,
      "inputs": [
        {
          "indexed": false,
          "internalType": "uint8",
          "name": "version",
          "type": "uint8"
        }
      ],
      "name": "Initialized",
      "type": "event"
    },
    {
      "anonymous": false,
      "inputs": [
        {
          "indexed": true,
          "internalType": "address",
          "name": "tp_",
          "type": "address"
        },
        {
          "indexed": true,
          "internalType": "address",
          "name": "sender_",
          "type": "address"
        },
        {
          "indexed": true,
          "internalType": "address",
          "name": "recipient_",
          "type": "address"
        },
        {
          "indexed": false,
          "internalType": "uint256",
          "name": "qTP_",
          "type": "uint256"
        },
        {
          "indexed": false,
          "internalType": "uint256",
          "name": "qAC_",
          "type": "uint256"
        }
      ],
      "name": "LiqTPRedeemed",
      "type": "event"
    },
    {
      "anonymous": false,
      "inputs": [
        {
          "indexed": false,
          "internalType": "address",
          "name": "account",
          "type": "address"
        }
      ],
      "name": "Paused",
      "type": "event"
    },
    {
      "anonymous": false,
      "inputs": [
        {
          "indexed": false,
          "internalType": "uint256",
          "name": "i_",
          "type": "uint256"
        },
        {
          "components": [
            {
              "internalType": "address",
              "name": "tpTokenAddress",
              "type": "address"
            },
            {
              "internalType": "address",
              "name": "priceProviderAddress",
              "type": "address"
            },
            {
              "internalType": "uint256",
              "name": "tpCtarg",
              "type": "uint256"
            },
            {
              "internalType": "uint256",
              "name": "tpMintFee",
              "type": "uint256"
            },
            {
              "internalType": "uint256",
              "name": "tpRedeemFee",
              "type": "uint256"
            },
            {
              "internalType": "uint256",
              "name": "tpEma",
              "type": "uint256"
            },
            {
              "internalType": "uint256",
              "name": "tpEmaSf",
              "type": "uint256"
            }
          ],
          "indexed": false,
          "internalType": "struct PeggedTokenParams",
          "name": "peggedTokenParams_",
          "type": "tuple"
        }
      ],
      "name": "PeggedTokenChange",
      "type": "event"
    },
    {
      "anonymous": false,
      "inputs": [],
      "name": "SettlementExecuted",
      "type": "event"
    },
    {
      "anonymous": false,
      "inputs": [
        {
          "indexed": false,
          "internalType": "uint256",
          "name": "mocGain_",
          "type": "uint256"
        },
        {
          "indexed": false,
          "internalType": "uint256[]",
          "name": "tpGain_",
          "type": "uint256[]"
        }
      ],
      "name": "SuccessFeeDistributed",
      "type": "event"
    },
    {
      "anonymous": false,
      "inputs": [
        {
          "indexed": false,
          "internalType": "uint256",
          "name": "interestAmount_",
          "type": "uint256"
        }
      ],
      "name": "TCInterestPayment",
      "type": "event"
    },
    {
      "anonymous": false,
      "inputs": [
        {
          "indexed": true,
          "internalType": "uint256",
          "name": "i_",
          "type": "uint256"
        },
        {
          "indexed": false,
          "internalType": "uint256",
          "name": "oldTPema_",
          "type": "uint256"
        },
        {
          "indexed": false,
          "internalType": "uint256",
          "name": "newTPema_",
          "type": "uint256"
        }
      ],
      "name": "TPemaUpdated",
      "type": "event"
    },
    {
      "anonymous": false,
      "inputs": [
        {
          "indexed": false,
          "internalType": "address",
          "name": "account",
          "type": "address"
        }
      ],
      "name": "Unpaused",
      "type": "event"
    },
    {
      "anonymous": false,
      "inputs": [
        {
          "indexed": true,
          "internalType": "address",
          "name": "implementation",
          "type": "address"
        }
      ],
      "name": "Upgraded",
      "type": "event"
    },
    {
      "inputs": [],
      "name": "absoluteAccumulator",
      "outputs": [
        {
          "internalType": "uint256",
          "name": "",
          "type": "uint256"
        }
      ],
      "stateMutability": "view",
      "type": "function"
    },
    {
      "inputs": [
        {
          "components": [
            {
              "internalType": "address",
              "name": "tpTokenAddress",
              "type": "address"
            },
            {
              "internalType": "address",
              "name": "priceProviderAddress",
              "type": "address"
            },
            {
              "internalType": "uint256",
              "name": "tpCtarg",
              "type": "uint256"
            },
            {
              "internalType": "uint256",
              "name": "tpMintFee",
              "type": "uint256"
            },
            {
              "internalType": "uint256",
              "name": "tpRedeemFee",
              "type": "uint256"
            },
            {
              "internalType": "uint256",
              "name": "tpEma",
              "type": "uint256"
            },
            {
              "internalType": "uint256",
              "name": "tpEmaSf",
              "type": "uint256"
            }
          ],
          "internalType": "struct PeggedTokenParams",
          "name": "peggedTokenParams_",
          "type": "tuple"
        }
      ],
      "name": "addPeggedToken",
      "outputs": [],
      "stateMutability": "nonpayable",
      "type": "function"
    },
    {
      "inputs": [],
      "name": "appreciationFactor",
      "outputs": [
        {
          "internalType": "uint256",
          "name": "",
          "type": "uint256"
        }
      ],
      "stateMutability": "view",
      "type": "function"
    },
    {
      "inputs": [],
      "name": "bes",
      "outputs": [
        {
          "internalType": "uint256",
          "name": "",
          "type": "uint256"
        }
      ],
      "stateMutability": "view",
      "type": "function"
    },
    {
      "inputs": [],
      "name": "bns",
      "outputs": [
        {
          "internalType": "uint256",
          "name": "",
          "type": "uint256"
        }
      ],
      "stateMutability": "view",
      "type": "function"
    },
    {
      "inputs": [],
      "name": "calcCtargemaCA",
      "outputs": [
        {
          "internalType": "uint256",
          "name": "ctargemaCA",
          "type": "uint256"
        }
      ],
      "stateMutability": "view",
      "type": "function"
    },
    {
      "inputs": [
        {
          "internalType": "contract IGovernor",
          "name": "newGovernor_",
          "type": "address"
        }
      ],
      "name": "changeGovernor",
      "outputs": [],
      "stateMutability": "nonpayable",
      "type": "function"
    },
    {
      "inputs": [],
      "name": "coinbaseFailedTransferFallback",
      "outputs": [
        {
          "internalType": "address",
          "name": "",
          "type": "address"
        }
      ],
      "stateMutability": "view",
      "type": "function"
    },
    {
      "inputs": [],
      "name": "decayBlockSpan",
      "outputs": [
        {
          "internalType": "uint256",
          "name": "",
          "type": "uint256"
        }
      ],
      "stateMutability": "view",
      "type": "function"
    },
    {
      "inputs": [],
      "name": "differentialAccumulator",
      "outputs": [
        {
          "internalType": "int256",
          "name": "",
          "type": "int256"
        }
      ],
      "stateMutability": "view",
      "type": "function"
    },
    {
      "inputs": [
        {
          "components": [
            {
              "internalType": "address",
              "name": "tpTokenAddress",
              "type": "address"
            },
            {
              "internalType": "address",
              "name": "priceProviderAddress",
              "type": "address"
            },
            {
              "internalType": "uint256",
              "name": "tpCtarg",
              "type": "uint256"
            },
            {
              "internalType": "uint256",
              "name": "tpMintFee",
              "type": "uint256"
            },
            {
              "internalType": "uint256",
              "name": "tpRedeemFee",
              "type": "uint256"
            },
            {
              "internalType": "uint256",
              "name": "tpEma",
              "type": "uint256"
            },
            {
              "internalType": "uint256",
              "name": "tpEmaSf",
              "type": "uint256"
            }
          ],
          "internalType": "struct PeggedTokenParams",
          "name": "peggedTokenParams_",
          "type": "tuple"
        }
      ],
      "name": "editPeggedToken",
      "outputs": [],
      "stateMutability": "nonpayable",
      "type": "function"
    },
    {
      "inputs": [],
      "name": "emaCalculationBlockSpan",
      "outputs": [
        {
          "internalType": "uint256",
          "name": "",
          "type": "uint256"
        }
      ],
      "stateMutability": "view",
      "type": "function"
    },
    {
      "inputs": [],
      "name": "evalLiquidation",
      "outputs": [],
      "stateMutability": "nonpayable",
      "type": "function"
    },
    {
      "inputs": [
        {
          "components": [
            {
              "internalType": "uint256",
              "name": "qTC",
              "type": "uint256"
            },
            {
              "internalType": "uint256",
              "name": "qACmax",
              "type": "uint256"
            },
            {
              "internalType": "address",
              "name": "sender",
              "type": "address"
            },
            {
              "internalType": "address",
              "name": "recipient",
              "type": "address"
            },
            {
              "internalType": "address",
              "name": "vendor",
              "type": "address"
            }
          ],
          "internalType": "struct MocCore.MintTCParams",
          "name": "params_",
          "type": "tuple"
        }
      ],
      "name": "execMintTC",
      "outputs": [
        {
          "internalType": "uint256",
          "name": "qACtotalNeeded",
          "type": "uint256"
        },
        {
          "internalType": "uint256",
          "name": "qFeeTokenTotalNeeded",
          "type": "uint256"
        },
        {
          "components": [
            {
              "internalType": "uint256",
              "name": "qACFee",
              "type": "uint256"
            },
            {
              "internalType": "uint256",
              "name": "qFeeToken",
              "type": "uint256"
            },
            {
              "internalType": "uint256",
              "name": "qACVendorMarkup",
              "type": "uint256"
            },
            {
              "internalType": "uint256",
              "name": "qFeeTokenVendorMarkup",
              "type": "uint256"
            }
          ],
          "internalType": "struct MocCommons.FeeCalcs",
          "name": "feeCalcs",
          "type": "tuple"
        }
      ],
      "stateMutability": "nonpayable",
      "type": "function"
    },
    {
      "inputs": [
        {
          "components": [
            {
              "internalType": "address",
              "name": "tp",
              "type": "address"
            },
            {
              "internalType": "uint256",
              "name": "qTP",
              "type": "uint256"
            },
            {
              "internalType": "uint256",
              "name": "qACmax",
              "type": "uint256"
            },
            {
              "internalType": "address",
              "name": "sender",
              "type": "address"
            },
            {
              "internalType": "address",
              "name": "recipient",
              "type": "address"
            },
            {
              "internalType": "address",
              "name": "vendor",
              "type": "address"
            }
          ],
          "internalType": "struct MocCommons.MintTCandTPParams",
          "name": "params_",
          "type": "tuple"
        }
      ],
      "name": "execMintTCandTP",
      "outputs": [
        {
          "internalType": "uint256",
          "name": "qACtotalNeeded",
          "type": "uint256"
        },
        {
          "internalType": "uint256",
          "name": "qTCMinted",
          "type": "uint256"
        },
        {
          "internalType": "uint256",
          "name": "qFeeTokenTotalNeeded",
          "type": "uint256"
        },
        {
          "components": [
            {
              "internalType": "uint256",
              "name": "qACFee",
              "type": "uint256"
            },
            {
              "internalType": "uint256",
              "name": "qFeeToken",
              "type": "uint256"
            },
            {
              "internalType": "uint256",
              "name": "qACVendorMarkup",
              "type": "uint256"
            },
            {
              "internalType": "uint256",
              "name": "qFeeTokenVendorMarkup",
              "type": "uint256"
            }
          ],
          "internalType": "struct MocCommons.FeeCalcs",
          "name": "feeCalcs",
          "type": "tuple"
        }
      ],
      "stateMutability": "nonpayable",
      "type": "function"
    },
    {
      "inputs": [
        {
          "components": [
            {
              "internalType": "address",
              "name": "tp",
              "type": "address"
            },
            {
              "internalType": "uint256",
              "name": "qTP",
              "type": "uint256"
            },
            {
              "internalType": "uint256",
              "name": "qACmax",
              "type": "uint256"
            },
            {
              "internalType": "address",
              "name": "sender",
              "type": "address"
            },
            {
              "internalType": "address",
              "name": "recipient",
              "type": "address"
            },
            {
              "internalType": "address",
              "name": "vendor",
              "type": "address"
            }
          ],
          "internalType": "struct MocCore.MintTPParams",
          "name": "params_",
          "type": "tuple"
        }
      ],
      "name": "execMintTP",
      "outputs": [
        {
          "internalType": "uint256",
          "name": "qACtotalNeeded",
          "type": "uint256"
        },
        {
          "internalType": "uint256",
          "name": "qFeeTokenTotalNeeded",
          "type": "uint256"
        },
        {
          "components": [
            {
              "internalType": "uint256",
              "name": "qACFee",
              "type": "uint256"
            },
            {
              "internalType": "uint256",
              "name": "qFeeToken",
              "type": "uint256"
            },
            {
              "internalType": "uint256",
              "name": "qACVendorMarkup",
              "type": "uint256"
            },
            {
              "internalType": "uint256",
              "name": "qFeeTokenVendorMarkup",
              "type": "uint256"
            }
          ],
          "internalType": "struct MocCommons.FeeCalcs",
          "name": "feeCalcs",
          "type": "tuple"
        }
      ],
      "stateMutability": "nonpayable",
      "type": "function"
    },
    {
      "inputs": [
        {
          "components": [
            {
              "internalType": "uint256",
              "name": "qTC",
              "type": "uint256"
            },
            {
              "internalType": "uint256",
              "name": "qACmin",
              "type": "uint256"
            },
            {
              "internalType": "address",
              "name": "sender",
              "type": "address"
            },
            {
              "internalType": "address",
              "name": "recipient",
              "type": "address"
            },
            {
              "internalType": "address",
              "name": "vendor",
              "type": "address"
            }
          ],
          "internalType": "struct MocCore.RedeemTCParams",
          "name": "params_",
          "type": "tuple"
        }
      ],
      "name": "execRedeemTC",
      "outputs": [
        {
          "internalType": "uint256",
          "name": "qACtoRedeem",
          "type": "uint256"
        },
        {
          "internalType": "uint256",
          "name": "qFeeTokenTotalNeeded",
          "type": "uint256"
        },
        {
          "components": [
            {
              "internalType": "uint256",
              "name": "qACFee",
              "type": "uint256"
            },
            {
              "internalType": "uint256",
              "name": "qFeeToken",
              "type": "uint256"
            },
            {
              "internalType": "uint256",
              "name": "qACVendorMarkup",
              "type": "uint256"
            },
            {
              "internalType": "uint256",
              "name": "qFeeTokenVendorMarkup",
              "type": "uint256"
            }
          ],
          "internalType": "struct MocCommons.FeeCalcs",
          "name": "feeCalcs",
          "type": "tuple"
        }
      ],
      "stateMutability": "nonpayable",
      "type": "function"
    },
    {
      "inputs": [
        {
          "components": [
            {
              "internalType": "address",
              "name": "tp",
              "type": "address"
            },
            {
              "internalType": "uint256",
              "name": "qTC",
              "type": "uint256"
            },
            {
              "internalType": "uint256",
              "name": "qTP",
              "type": "uint256"
            },
            {
              "internalType": "uint256",
              "name": "qACmin",
              "type": "uint256"
            },
            {
              "internalType": "address",
              "name": "sender",
              "type": "address"
            },
            {
              "internalType": "address",
              "name": "recipient",
              "type": "address"
            },
            {
              "internalType": "address",
              "name": "vendor",
              "type": "address"
            }
          ],
          "internalType": "struct MocCommons.RedeemTCandTPParams",
          "name": "params_",
          "type": "tuple"
        }
      ],
      "name": "execRedeemTCandTP",
      "outputs": [
        {
          "internalType": "uint256",
          "name": "qACtoRedeem",
          "type": "uint256"
        },
        {
          "internalType": "uint256",
          "name": "qTPRedeemed",
          "type": "uint256"
        },
        {
          "internalType": "uint256",
          "name": "qFeeTokenTotalNeeded",
          "type": "uint256"
        },
        {
          "components": [
            {
              "internalType": "uint256",
              "name": "qACFee",
              "type": "uint256"
            },
            {
              "internalType": "uint256",
              "name": "qFeeToken",
              "type": "uint256"
            },
            {
              "internalType": "uint256",
              "name": "qACVendorMarkup",
              "type": "uint256"
            },
            {
              "internalType": "uint256",
              "name": "qFeeTokenVendorMarkup",
              "type": "uint256"
            }
          ],
          "internalType": "struct MocCommons.FeeCalcs",
          "name": "feeCalcs",
          "type": "tuple"
        }
      ],
      "stateMutability": "nonpayable",
      "type": "function"
    },
    {
      "inputs": [
        {
          "components": [
            {
              "internalType": "address",
              "name": "tp",
              "type": "address"
            },
            {
              "internalType": "uint256",
              "name": "qTP",
              "type": "uint256"
            },
            {
              "internalType": "uint256",
              "name": "qACmin",
              "type": "uint256"
            },
            {
              "internalType": "address",
              "name": "sender",
              "type": "address"
            },
            {
              "internalType": "address",
              "name": "recipient",
              "type": "address"
            },
            {
              "internalType": "address",
              "name": "vendor",
              "type": "address"
            }
          ],
          "internalType": "struct MocCommons.RedeemTPParams",
          "name": "params_",
          "type": "tuple"
        }
      ],
      "name": "execRedeemTP",
      "outputs": [
        {
          "internalType": "uint256",
          "name": "qACtoRedeem",
          "type": "uint256"
        },
        {
          "internalType": "uint256",
          "name": "qFeeTokenTotalNeeded",
          "type": "uint256"
        },
        {
          "components": [
            {
              "internalType": "uint256",
              "name": "qACFee",
              "type": "uint256"
            },
            {
              "internalType": "uint256",
              "name": "qFeeToken",
              "type": "uint256"
            },
            {
              "internalType": "uint256",
              "name": "qACVendorMarkup",
              "type": "uint256"
            },
            {
              "internalType": "uint256",
              "name": "qFeeTokenVendorMarkup",
              "type": "uint256"
            }
          ],
          "internalType": "struct MocCommons.FeeCalcs",
          "name": "feeCalcs",
          "type": "tuple"
        }
      ],
      "stateMutability": "nonpayable",
      "type": "function"
    },
    {
      "inputs": [],
      "name": "execSettlement",
      "outputs": [],
      "stateMutability": "nonpayable",
      "type": "function"
    },
    {
      "inputs": [
        {
          "components": [
            {
              "internalType": "address",
              "name": "tp",
              "type": "address"
            },
            {
              "internalType": "uint256",
              "name": "qTC",
              "type": "uint256"
            },
            {
              "internalType": "uint256",
              "name": "qTPmin",
              "type": "uint256"
            },
            {
              "internalType": "uint256",
              "name": "qACmax",
              "type": "uint256"
            },
            {
              "internalType": "address",
              "name": "sender",
              "type": "address"
            },
            {
              "internalType": "address",
              "name": "recipient",
              "type": "address"
            },
            {
              "internalType": "address",
              "name": "vendor",
              "type": "address"
            }
          ],
          "internalType": "struct MocCommons.SwapTCforTPParams",
          "name": "params_",
          "type": "tuple"
        }
      ],
      "name": "execSwapTCforTP",
      "outputs": [
        {
          "internalType": "uint256",
          "name": "qACSurcharges",
          "type": "uint256"
        },
        {
          "internalType": "uint256",
          "name": "qTPMinted",
          "type": "uint256"
        },
        {
          "internalType": "uint256",
          "name": "qFeeTokenTotalNeeded",
          "type": "uint256"
        },
        {
          "components": [
            {
              "internalType": "uint256",
              "name": "qACFee",
              "type": "uint256"
            },
            {
              "internalType": "uint256",
              "name": "qFeeToken",
              "type": "uint256"
            },
            {
              "internalType": "uint256",
              "name": "qACVendorMarkup",
              "type": "uint256"
            },
            {
              "internalType": "uint256",
              "name": "qFeeTokenVendorMarkup",
              "type": "uint256"
            }
          ],
          "internalType": "struct MocCommons.FeeCalcs",
          "name": "feeCalcs",
          "type": "tuple"
        }
      ],
      "stateMutability": "nonpayable",
      "type": "function"
    },
    {
      "inputs": [
        {
          "components": [
            {
              "internalType": "address",
              "name": "tp",
              "type": "address"
            },
            {
              "internalType": "uint256",
              "name": "qTP",
              "type": "uint256"
            },
            {
              "internalType": "uint256",
              "name": "qTCmin",
              "type": "uint256"
            },
            {
              "internalType": "uint256",
              "name": "qACmax",
              "type": "uint256"
            },
            {
              "internalType": "address",
              "name": "sender",
              "type": "address"
            },
            {
              "internalType": "address",
              "name": "recipient",
              "type": "address"
            },
            {
              "internalType": "address",
              "name": "vendor",
              "type": "address"
            }
          ],
          "internalType": "struct MocCommons.SwapTPforTCParams",
          "name": "params_",
          "type": "tuple"
        }
      ],
      "name": "execSwapTPforTC",
      "outputs": [
        {
          "internalType": "uint256",
          "name": "qACSurcharges",
          "type": "uint256"
        },
        {
          "internalType": "uint256",
          "name": "qTCMinted",
          "type": "uint256"
        },
        {
          "internalType": "uint256",
          "name": "qFeeTokenTotalNeeded",
          "type": "uint256"
        },
        {
          "components": [
            {
              "internalType": "uint256",
              "name": "qACFee",
              "type": "uint256"
            },
            {
              "internalType": "uint256",
              "name": "qFeeToken",
              "type": "uint256"
            },
            {
              "internalType": "uint256",
              "name": "qACVendorMarkup",
              "type": "uint256"
            },
            {
              "internalType": "uint256",
              "name": "qFeeTokenVendorMarkup",
              "type": "uint256"
            }
          ],
          "internalType": "struct MocCommons.FeeCalcs",
          "name": "feeCalcs",
          "type": "tuple"
        }
      ],
      "stateMutability": "nonpayable",
      "type": "function"
    },
    {
      "inputs": [
        {
          "components": [
            {
              "internalType": "address",
              "name": "tpFrom",
              "type": "address"
            },
            {
              "internalType": "address",
              "name": "tpTo",
              "type": "address"
            },
            {
              "internalType": "uint256",
              "name": "qTP",
              "type": "uint256"
            },
            {
              "internalType": "uint256",
              "name": "qTPmin",
              "type": "uint256"
            },
            {
              "internalType": "uint256",
              "name": "qACmax",
              "type": "uint256"
            },
            {
              "internalType": "address",
              "name": "sender",
              "type": "address"
            },
            {
              "internalType": "address",
              "name": "recipient",
              "type": "address"
            },
            {
              "internalType": "address",
              "name": "vendor",
              "type": "address"
            }
          ],
          "internalType": "struct MocCommons.SwapTPforTPParams",
          "name": "params_",
          "type": "tuple"
        }
      ],
      "name": "execSwapTPforTP",
      "outputs": [
        {
          "internalType": "uint256",
          "name": "qACSurcharges",
          "type": "uint256"
        },
        {
          "internalType": "uint256",
          "name": "qTPMinted",
          "type": "uint256"
        },
        {
          "internalType": "uint256",
          "name": "qFeeTokenTotalNeeded",
          "type": "uint256"
        },
        {
          "components": [
            {
              "internalType": "uint256",
              "name": "qACFee",
              "type": "uint256"
            },
            {
              "internalType": "uint256",
              "name": "qFeeToken",
              "type": "uint256"
            },
            {
              "internalType": "uint256",
              "name": "qACVendorMarkup",
              "type": "uint256"
            },
            {
              "internalType": "uint256",
              "name": "qFeeTokenVendorMarkup",
              "type": "uint256"
            }
          ],
          "internalType": "struct MocCommons.FeeCalcs",
          "name": "feeCalcs",
          "type": "tuple"
        }
      ],
      "stateMutability": "nonpayable",
      "type": "function"
    },
    {
      "inputs": [],
      "name": "feeRetainer",
      "outputs": [
        {
          "internalType": "uint256",
          "name": "",
          "type": "uint256"
        }
      ],
      "stateMutability": "view",
      "type": "function"
    },
    {
      "inputs": [],
      "name": "feeToken",
      "outputs": [
        {
          "internalType": "contract IERC20",
          "name": "",
          "type": "address"
        }
      ],
      "stateMutability": "view",
      "type": "function"
    },
    {
      "inputs": [],
      "name": "feeTokenPct",
      "outputs": [
        {
          "internalType": "uint256",
          "name": "",
          "type": "uint256"
        }
      ],
      "stateMutability": "view",
      "type": "function"
    },
    {
      "inputs": [],
      "name": "feeTokenPriceProvider",
      "outputs": [
        {
          "internalType": "contract IPriceProvider",
          "name": "",
          "type": "address"
        }
      ],
      "stateMutability": "view",
      "type": "function"
    },
    {
      "inputs": [],
      "name": "getBts",
      "outputs": [
        {
          "internalType": "uint256",
          "name": "",
          "type": "uint256"
        }
      ],
      "stateMutability": "view",
      "type": "function"
    },
    {
      "inputs": [],
      "name": "getCglb",
      "outputs": [
        {
          "internalType": "uint256",
          "name": "cglob",
          "type": "uint256"
        }
      ],
      "stateMutability": "view",
      "type": "function"
    },
    {
      "inputs": [],
      "name": "getCustomMockValue",
      "outputs": [
        {
          "internalType": "uint256",
          "name": "",
          "type": "uint256"
        }
      ],
      "stateMutability": "view",
      "type": "function"
    },
    {
      "inputs": [],
      "name": "getExpansionCustomMockValue",
      "outputs": [
        {
          "internalType": "uint256",
          "name": "",
          "type": "uint256"
        }
      ],
      "stateMutability": "nonpayable",
      "type": "function"
    },
    {
      "inputs": [],
      "name": "getLckAC",
      "outputs": [
        {
          "internalType": "uint256",
          "name": "lckAC",
          "type": "uint256"
        }
      ],
      "stateMutability": "view",
      "type": "function"
    },
    {
      "inputs": [],
      "name": "getLeverageTC",
      "outputs": [
        {
          "internalType": "uint256",
          "name": "leverageTC",
          "type": "uint256"
        }
      ],
      "stateMutability": "view",
      "type": "function"
    },
    {
      "inputs": [
        {
          "internalType": "address",
          "name": "tp_",
          "type": "address"
        }
      ],
      "name": "getPACtp",
      "outputs": [
        {
          "internalType": "uint256",
          "name": "",
          "type": "uint256"
        }
      ],
      "stateMutability": "view",
      "type": "function"
    },
    {
      "inputs": [],
      "name": "getPTCac",
      "outputs": [
        {
          "internalType": "uint256",
          "name": "pTCac",
          "type": "uint256"
        }
      ],
      "stateMutability": "view",
      "type": "function"
    },
    {
      "inputs": [],
      "name": "getTCAvailableToRedeem",
      "outputs": [
        {
          "internalType": "uint256",
          "name": "tcAvailableToRedeem",
          "type": "uint256"
        }
      ],
      "stateMutability": "view",
      "type": "function"
    },
    {
      "inputs": [
        {
          "internalType": "address",
          "name": "tp_",
          "type": "address"
        }
      ],
      "name": "getTPAvailableToMint",
      "outputs": [
        {
          "internalType": "int256",
          "name": "tpAvailableToMint",
          "type": "int256"
        }
      ],
      "stateMutability": "view",
      "type": "function"
    },
    {
      "inputs": [],
      "name": "getTotalACavailable",
      "outputs": [
        {
          "internalType": "uint256",
          "name": "totalACavailable",
          "type": "uint256"
        }
      ],
      "stateMutability": "view",
      "type": "function"
    },
    {
      "inputs": [],
      "name": "getTpAmount",
      "outputs": [
        {
          "internalType": "uint256",
          "name": "",
          "type": "uint256"
        }
      ],
      "stateMutability": "view",
      "type": "function"
    },
    {
      "inputs": [],
      "name": "governor",
      "outputs": [
        {
          "internalType": "contract IGovernor",
          "name": "",
          "type": "address"
        }
      ],
      "stateMutability": "view",
      "type": "function"
    },
    {
      "inputs": [
        {
          "components": [
            {
              "components": [
                {
                  "components": [
                    {
                      "internalType": "address",
                      "name": "mocQueueAddress",
                      "type": "address"
                    },
                    {
                      "internalType": "address",
                      "name": "feeTokenAddress",
                      "type": "address"
                    },
                    {
                      "internalType": "address",
                      "name": "feeTokenPriceProviderAddress",
                      "type": "address"
                    },
                    {
                      "internalType": "address",
                      "name": "tcTokenAddress",
                      "type": "address"
                    },
                    {
                      "internalType": "address",
                      "name": "mocFeeFlowAddress",
                      "type": "address"
                    },
                    {
                      "internalType": "address",
                      "name": "mocAppreciationBeneficiaryAddress",
                      "type": "address"
                    },
                    {
                      "internalType": "uint256",
                      "name": "protThrld",
                      "type": "uint256"
                    },
                    {
                      "internalType": "uint256",
                      "name": "liqThrld",
                      "type": "uint256"
                    },
                    {
                      "internalType": "uint256",
                      "name": "feeRetainer",
                      "type": "uint256"
                    },
                    {
                      "internalType": "uint256",
                      "name": "tcMintFee",
                      "type": "uint256"
                    },
                    {
                      "internalType": "uint256",
                      "name": "tcRedeemFee",
                      "type": "uint256"
                    },
                    {
                      "internalType": "uint256",
                      "name": "swapTPforTPFee",
                      "type": "uint256"
                    },
                    {
                      "internalType": "uint256",
                      "name": "swapTPforTCFee",
                      "type": "uint256"
                    },
                    {
                      "internalType": "uint256",
                      "name": "swapTCforTPFee",
                      "type": "uint256"
                    },
                    {
                      "internalType": "uint256",
                      "name": "redeemTCandTPFee",
                      "type": "uint256"
                    },
                    {
                      "internalType": "uint256",
                      "name": "mintTCandTPFee",
                      "type": "uint256"
                    },
                    {
                      "internalType": "uint256",
                      "name": "feeTokenPct",
                      "type": "uint256"
                    },
                    {
                      "internalType": "uint256",
                      "name": "successFee",
                      "type": "uint256"
                    },
                    {
                      "internalType": "uint256",
                      "name": "appreciationFactor",
                      "type": "uint256"
                    },
                    {
                      "internalType": "uint256",
                      "name": "bes",
                      "type": "uint256"
                    },
                    {
                      "internalType": "address",
                      "name": "tcInterestCollectorAddress",
                      "type": "address"
                    },
                    {
                      "internalType": "uint256",
                      "name": "tcInterestRate",
                      "type": "uint256"
                    },
                    {
                      "internalType": "uint256",
                      "name": "tcInterestPaymentBlockSpan",
                      "type": "uint256"
                    },
                    {
                      "internalType": "address",
                      "name": "maxAbsoluteOpProviderAddress",
                      "type": "address"
                    },
                    {
                      "internalType": "address",
                      "name": "maxOpDiffProviderAddress",
                      "type": "address"
                    },
                    {
                      "internalType": "uint256",
                      "name": "decayBlockSpan",
                      "type": "uint256"
                    }
                  ],
                  "internalType": "struct MocBaseBucket.InitializeBaseBucketParams",
                  "name": "initializeBaseBucketParams",
                  "type": "tuple"
                },
                {
                  "internalType": "address",
                  "name": "governorAddress",
                  "type": "address"
                },
                {
                  "internalType": "address",
                  "name": "pauserAddress",
                  "type": "address"
                },
                {
                  "internalType": "address",
                  "name": "mocCoreExpansion",
                  "type": "address"
                },
                {
                  "internalType": "uint256",
                  "name": "emaCalculationBlockSpan",
                  "type": "uint256"
                },
                {
                  "internalType": "address",
                  "name": "mocVendors",
                  "type": "address"
                }
              ],
              "internalType": "struct MocCore.InitializeCoreParams",
              "name": "initializeCoreParams",
              "type": "tuple"
            },
            {
              "internalType": "uint256",
              "name": "transferMaxGas",
              "type": "uint256"
            },
            {
              "internalType": "address",
              "name": "coinbaseFailedTransferFallback",
              "type": "address"
            }
          ],
          "internalType": "struct MocCACoinbase.InitializeParams",
          "name": "initializeParams_",
          "type": "tuple"
        }
      ],
      "name": "initialize",
      "outputs": [],
      "stateMutability": "nonpayable",
      "type": "function"
    },
    {
      "inputs": [],
      "name": "initializeMock",
      "outputs": [],
      "stateMutability": "nonpayable",
      "type": "function"
    },
    {
      "inputs": [],
      "name": "isLiquidationReached",
      "outputs": [
        {
          "internalType": "bool",
          "name": "",
          "type": "bool"
        }
      ],
      "stateMutability": "view",
      "type": "function"
    },
    {
      "inputs": [],
      "name": "lastOperationBlockNumber",
      "outputs": [
        {
          "internalType": "uint256",
          "name": "",
          "type": "uint256"
        }
      ],
      "stateMutability": "view",
      "type": "function"
    },
    {
      "inputs": [],
      "name": "liqEnabled",
      "outputs": [
        {
          "internalType": "bool",
          "name": "",
          "type": "bool"
        }
      ],
      "stateMutability": "view",
      "type": "function"
    },
    {
      "inputs": [
        {
          "internalType": "address",
          "name": "tp_",
          "type": "address"
        }
      ],
      "name": "liqRedeemTP",
      "outputs": [
        {
          "internalType": "uint256",
          "name": "qACRedeemed",
          "type": "uint256"
        }
      ],
      "stateMutability": "nonpayable",
      "type": "function"
    },
    {
      "inputs": [
        {
          "internalType": "address",
          "name": "tp_",
          "type": "address"
        },
        {
          "internalType": "address",
          "name": "recipient_",
          "type": "address"
        }
      ],
      "name": "liqRedeemTPto",
      "outputs": [
        {
          "internalType": "uint256",
          "name": "qACRedeemed",
          "type": "uint256"
        }
      ],
      "stateMutability": "nonpayable",
      "type": "function"
    },
    {
      "inputs": [],
      "name": "liqThrld",
      "outputs": [
        {
          "internalType": "uint256",
          "name": "",
          "type": "uint256"
        }
      ],
      "stateMutability": "view",
      "type": "function"
    },
    {
      "inputs": [],
      "name": "liquidated",
      "outputs": [
        {
          "internalType": "bool",
          "name": "",
          "type": "bool"
        }
      ],
      "stateMutability": "view",
      "type": "function"
    },
    {
      "inputs": [],
      "name": "makeStoppable",
      "outputs": [],
      "stateMutability": "nonpayable",
      "type": "function"
    },
    {
      "inputs": [],
      "name": "makeUnstoppable",
      "outputs": [],
      "stateMutability": "nonpayable",
      "type": "function"
    },
    {
      "inputs": [],
      "name": "maxAbsoluteOpProvider",
      "outputs": [
        {
          "internalType": "contract IDataProvider",
          "name": "",
          "type": "address"
        }
      ],
      "stateMutability": "view",
      "type": "function"
    },
    {
      "inputs": [],
      "name": "maxOpDiffProvider",
      "outputs": [
        {
          "internalType": "contract IDataProvider",
          "name": "",
          "type": "address"
        }
      ],
      "stateMutability": "view",
      "type": "function"
    },
    {
      "inputs": [],
      "name": "maxQACToMintTP",
      "outputs": [
        {
          "internalType": "uint256",
          "name": "maxQAC",
          "type": "uint256"
        }
      ],
      "stateMutability": "view",
      "type": "function"
    },
    {
      "inputs": [],
      "name": "maxQACToRedeemTP",
      "outputs": [
        {
          "internalType": "uint256",
          "name": "maxQAC",
          "type": "uint256"
        }
      ],
      "stateMutability": "view",
      "type": "function"
    },
    {
      "inputs": [
        {
          "internalType": "uint256",
          "name": "qTC_",
          "type": "uint256"
        }
      ],
      "name": "mintTC",
      "outputs": [
        {
          "internalType": "uint256",
          "name": "operId",
          "type": "uint256"
        }
      ],
      "stateMutability": "payable",
      "type": "function"
    },
    {
      "inputs": [
        {
          "internalType": "uint256",
          "name": "qTC_",
          "type": "uint256"
        },
        {
          "internalType": "address",
          "name": "vendor_",
          "type": "address"
        }
      ],
      "name": "mintTCViaVendor",
      "outputs": [
        {
          "internalType": "uint256",
          "name": "operId",
          "type": "uint256"
        }
      ],
      "stateMutability": "payable",
      "type": "function"
    },
    {
      "inputs": [
        {
          "internalType": "address",
          "name": "tp_",
          "type": "address"
        },
        {
          "internalType": "uint256",
          "name": "qTP_",
          "type": "uint256"
        }
      ],
      "name": "mintTCandTP",
      "outputs": [
        {
          "internalType": "uint256",
          "name": "operId",
          "type": "uint256"
        }
      ],
      "stateMutability": "payable",
      "type": "function"
    },
    {
      "inputs": [],
      "name": "mintTCandTPFee",
      "outputs": [
        {
          "internalType": "uint256",
          "name": "",
          "type": "uint256"
        }
      ],
      "stateMutability": "view",
      "type": "function"
    },
    {
      "inputs": [
        {
          "internalType": "address",
          "name": "tp_",
          "type": "address"
        },
        {
          "internalType": "uint256",
          "name": "qTP_",
          "type": "uint256"
        },
        {
          "internalType": "address",
          "name": "vendor_",
          "type": "address"
        }
      ],
      "name": "mintTCandTPViaVendor",
      "outputs": [
        {
          "internalType": "uint256",
          "name": "operId",
          "type": "uint256"
        }
      ],
      "stateMutability": "payable",
      "type": "function"
    },
    {
      "inputs": [
        {
          "internalType": "address",
          "name": "tp_",
          "type": "address"
        },
        {
          "internalType": "uint256",
          "name": "qTP_",
          "type": "uint256"
        },
        {
          "internalType": "address",
          "name": "recipient_",
          "type": "address"
        }
      ],
      "name": "mintTCandTPto",
      "outputs": [
        {
          "internalType": "uint256",
          "name": "operId",
          "type": "uint256"
        }
      ],
      "stateMutability": "payable",
      "type": "function"
    },
    {
      "inputs": [
        {
          "internalType": "address",
          "name": "tp_",
          "type": "address"
        },
        {
          "internalType": "uint256",
          "name": "qTP_",
          "type": "uint256"
        },
        {
          "internalType": "address",
          "name": "recipient_",
          "type": "address"
        },
        {
          "internalType": "address",
          "name": "vendor_",
          "type": "address"
        }
      ],
      "name": "mintTCandTPtoViaVendor",
      "outputs": [
        {
          "internalType": "uint256",
          "name": "operId",
          "type": "uint256"
        }
      ],
      "stateMutability": "payable",
      "type": "function"
    },
    {
      "inputs": [
        {
          "internalType": "uint256",
          "name": "qTC_",
          "type": "uint256"
        },
        {
          "internalType": "address",
          "name": "recipient_",
          "type": "address"
        }
      ],
      "name": "mintTCto",
      "outputs": [
        {
          "internalType": "uint256",
          "name": "operId",
          "type": "uint256"
        }
      ],
      "stateMutability": "payable",
      "type": "function"
    },
    {
      "inputs": [
        {
          "internalType": "uint256",
          "name": "qTC_",
          "type": "uint256"
        },
        {
          "internalType": "address",
          "name": "recipient_",
          "type": "address"
        },
        {
          "internalType": "address",
          "name": "vendor_",
          "type": "address"
        }
      ],
      "name": "mintTCtoViaVendor",
      "outputs": [
        {
          "internalType": "uint256",
          "name": "operId",
          "type": "uint256"
        }
      ],
      "stateMutability": "payable",
      "type": "function"
    },
    {
      "inputs": [
        {
          "internalType": "address",
          "name": "tp_",
          "type": "address"
        },
        {
          "internalType": "uint256",
          "name": "qTP_",
          "type": "uint256"
        }
      ],
      "name": "mintTP",
      "outputs": [
        {
          "internalType": "uint256",
          "name": "operId",
          "type": "uint256"
        }
      ],
      "stateMutability": "payable",
      "type": "function"
    },
    {
      "inputs": [
        {
          "internalType": "address",
          "name": "tp_",
          "type": "address"
        },
        {
          "internalType": "uint256",
          "name": "qTP_",
          "type": "uint256"
        },
        {
          "internalType": "address",
          "name": "vendor_",
          "type": "address"
        }
      ],
      "name": "mintTPViaVendor",
      "outputs": [
        {
          "internalType": "uint256",
          "name": "operId",
          "type": "uint256"
        }
      ],
      "stateMutability": "payable",
      "type": "function"
    },
    {
      "inputs": [
        {
          "internalType": "address",
          "name": "tp_",
          "type": "address"
        },
        {
          "internalType": "uint256",
          "name": "qTP_",
          "type": "uint256"
        },
        {
          "internalType": "address",
          "name": "recipient_",
          "type": "address"
        }
      ],
      "name": "mintTPto",
      "outputs": [
        {
          "internalType": "uint256",
          "name": "operId",
          "type": "uint256"
        }
      ],
      "stateMutability": "payable",
      "type": "function"
    },
    {
      "inputs": [
        {
          "internalType": "address",
          "name": "tp_",
          "type": "address"
        },
        {
          "internalType": "uint256",
          "name": "qTP_",
          "type": "uint256"
        },
        {
          "internalType": "address",
          "name": "recipient_",
          "type": "address"
        },
        {
          "internalType": "address",
          "name": "vendor_",
          "type": "address"
        }
      ],
      "name": "mintTPtoViaVendor",
      "outputs": [
        {
          "internalType": "uint256",
          "name": "operId",
          "type": "uint256"
        }
      ],
      "stateMutability": "payable",
      "type": "function"
    },
    {
      "inputs": [],
      "name": "mocAppreciationBeneficiaryAddress",
      "outputs": [
        {
          "internalType": "address",
          "name": "",
          "type": "address"
        }
      ],
      "stateMutability": "view",
      "type": "function"
    },
    {
      "inputs": [],
      "name": "mocFeeFlowAddress",
      "outputs": [
        {
          "internalType": "address",
          "name": "",
          "type": "address"
        }
      ],
      "stateMutability": "view",
      "type": "function"
    },
    {
      "inputs": [],
      "name": "mocQueue",
      "outputs": [
        {
          "internalType": "address",
          "name": "",
          "type": "address"
        }
      ],
      "stateMutability": "view",
      "type": "function"
    },
    {
      "inputs": [],
      "name": "mocVendors",
      "outputs": [
        {
          "internalType": "contract MocVendors",
          "name": "",
          "type": "address"
        }
      ],
      "stateMutability": "view",
      "type": "function"
    },
    {
      "inputs": [],
      "name": "nACcb",
      "outputs": [
        {
          "internalType": "uint256",
          "name": "",
          "type": "uint256"
        }
      ],
      "stateMutability": "view",
      "type": "function"
    },
    {
      "inputs": [],
      "name": "nTCcb",
      "outputs": [
        {
          "internalType": "uint256",
          "name": "",
          "type": "uint256"
        }
      ],
      "stateMutability": "view",
      "type": "function"
    },
    {
      "inputs": [],
      "name": "newVariable",
      "outputs": [
        {
          "internalType": "uint256",
          "name": "",
          "type": "uint256"
        }
      ],
      "stateMutability": "view",
      "type": "function"
    },
    {
      "inputs": [],
      "name": "nextEmaCalculation",
      "outputs": [
        {
          "internalType": "uint256",
          "name": "",
          "type": "uint256"
        }
      ],
      "stateMutability": "view",
      "type": "function"
    },
    {
      "inputs": [],
      "name": "nextTCInterestPayment",
      "outputs": [
        {
          "internalType": "uint256",
          "name": "",
          "type": "uint256"
        }
      ],
      "stateMutability": "view",
      "type": "function"
    },
    {
      "inputs": [],
      "name": "pause",
      "outputs": [],
      "stateMutability": "nonpayable",
      "type": "function"
    },
    {
      "inputs": [],
      "name": "paused",
      "outputs": [
        {
          "internalType": "bool",
          "name": "",
          "type": "bool"
        }
      ],
      "stateMutability": "view",
      "type": "function"
    },
    {
      "inputs": [],
      "name": "pauser",
      "outputs": [
        {
          "internalType": "address",
          "name": "",
          "type": "address"
        }
      ],
      "stateMutability": "view",
      "type": "function"
    },
    {
      "inputs": [
        {
          "internalType": "uint256",
          "name": "",
          "type": "uint256"
        }
      ],
      "name": "pegContainer",
      "outputs": [
        {
          "internalType": "uint256",
          "name": "nTP",
          "type": "uint256"
        },
        {
          "internalType": "contract IPriceProvider",
          "name": "priceProvider",
          "type": "address"
        }
      ],
      "stateMutability": "view",
      "type": "function"
    },
    {
      "inputs": [
        {
          "internalType": "address",
          "name": "",
          "type": "address"
        }
      ],
      "name": "peggedTokenIndex",
      "outputs": [
        {
          "internalType": "uint256",
          "name": "index",
          "type": "uint256"
        },
        {
          "internalType": "bool",
          "name": "exists",
          "type": "bool"
        }
      ],
      "stateMutability": "view",
      "type": "function"
    },
    {
      "inputs": [],
      "name": "protThrld",
      "outputs": [
        {
          "internalType": "uint256",
          "name": "",
          "type": "uint256"
        }
      ],
      "stateMutability": "view",
      "type": "function"
    },
    {
      "inputs": [],
      "name": "proxiableUUID",
      "outputs": [
        {
          "internalType": "bytes32",
          "name": "",
          "type": "bytes32"
        }
      ],
      "stateMutability": "view",
      "type": "function"
    },
    {
      "inputs": [],
      "name": "qACLockedInPending",
      "outputs": [
        {
          "internalType": "uint256",
          "name": "",
          "type": "uint256"
        }
      ],
      "stateMutability": "view",
      "type": "function"
    },
    {
      "inputs": [
        {
          "internalType": "uint256",
          "name": "qTC_",
          "type": "uint256"
        },
        {
          "internalType": "uint256",
          "name": "qACmin_",
          "type": "uint256"
        }
      ],
      "name": "redeemTC",
      "outputs": [
        {
          "internalType": "uint256",
          "name": "operId",
          "type": "uint256"
        }
      ],
      "stateMutability": "payable",
      "type": "function"
    },
    {
      "inputs": [
        {
          "internalType": "uint256",
          "name": "qTC_",
          "type": "uint256"
        },
        {
          "internalType": "uint256",
          "name": "qACmin_",
          "type": "uint256"
        },
        {
          "internalType": "address",
          "name": "vendor_",
          "type": "address"
        }
      ],
      "name": "redeemTCViaVendor",
      "outputs": [
        {
          "internalType": "uint256",
          "name": "operId",
          "type": "uint256"
        }
      ],
      "stateMutability": "payable",
      "type": "function"
    },
    {
      "inputs": [
        {
          "internalType": "address",
          "name": "tp_",
          "type": "address"
        },
        {
          "internalType": "uint256",
          "name": "qTC_",
          "type": "uint256"
        },
        {
          "internalType": "uint256",
          "name": "qTP_",
          "type": "uint256"
        },
        {
          "internalType": "uint256",
          "name": "qACmin_",
          "type": "uint256"
        }
      ],
      "name": "redeemTCandTP",
      "outputs": [
        {
          "internalType": "uint256",
          "name": "operId",
          "type": "uint256"
        }
      ],
      "stateMutability": "payable",
      "type": "function"
    },
    {
      "inputs": [],
      "name": "redeemTCandTPFee",
      "outputs": [
        {
          "internalType": "uint256",
          "name": "",
          "type": "uint256"
        }
      ],
      "stateMutability": "view",
      "type": "function"
    },
    {
      "inputs": [
        {
          "internalType": "address",
          "name": "tp_",
          "type": "address"
        },
        {
          "internalType": "uint256",
          "name": "qTC_",
          "type": "uint256"
        },
        {
          "internalType": "uint256",
          "name": "qTP_",
          "type": "uint256"
        },
        {
          "internalType": "uint256",
          "name": "qACmin_",
          "type": "uint256"
        },
        {
          "internalType": "address",
          "name": "vendor_",
          "type": "address"
        }
      ],
      "name": "redeemTCandTPViaVendor",
      "outputs": [
        {
          "internalType": "uint256",
          "name": "operId",
          "type": "uint256"
        }
      ],
      "stateMutability": "payable",
      "type": "function"
    },
    {
      "inputs": [
        {
          "internalType": "address",
          "name": "tp_",
          "type": "address"
        },
        {
          "internalType": "uint256",
          "name": "qTC_",
          "type": "uint256"
        },
        {
          "internalType": "uint256",
          "name": "qTP_",
          "type": "uint256"
        },
        {
          "internalType": "uint256",
          "name": "qACmin_",
          "type": "uint256"
        },
        {
          "internalType": "address",
          "name": "recipient_",
          "type": "address"
        }
      ],
      "name": "redeemTCandTPto",
      "outputs": [
        {
          "internalType": "uint256",
          "name": "operId",
          "type": "uint256"
        }
      ],
      "stateMutability": "payable",
      "type": "function"
    },
    {
      "inputs": [
        {
          "internalType": "address",
          "name": "tp_",
          "type": "address"
        },
        {
          "internalType": "uint256",
          "name": "qTC_",
          "type": "uint256"
        },
        {
          "internalType": "uint256",
          "name": "qTP_",
          "type": "uint256"
        },
        {
          "internalType": "uint256",
          "name": "qACmin_",
          "type": "uint256"
        },
        {
          "internalType": "address",
          "name": "recipient_",
          "type": "address"
        },
        {
          "internalType": "address",
          "name": "vendor_",
          "type": "address"
        }
      ],
      "name": "redeemTCandTPtoViaVendor",
      "outputs": [
        {
          "internalType": "uint256",
          "name": "operId",
          "type": "uint256"
        }
      ],
      "stateMutability": "payable",
      "type": "function"
    },
    {
      "inputs": [
        {
          "internalType": "uint256",
          "name": "qTC_",
          "type": "uint256"
        },
        {
          "internalType": "uint256",
          "name": "qACmin_",
          "type": "uint256"
        },
        {
          "internalType": "address",
          "name": "recipient_",
          "type": "address"
        }
      ],
      "name": "redeemTCto",
      "outputs": [
        {
          "internalType": "uint256",
          "name": "operId",
          "type": "uint256"
        }
      ],
      "stateMutability": "payable",
      "type": "function"
    },
    {
      "inputs": [
        {
          "internalType": "uint256",
          "name": "qTC_",
          "type": "uint256"
        },
        {
          "internalType": "uint256",
          "name": "qACmin_",
          "type": "uint256"
        },
        {
          "internalType": "address",
          "name": "recipient_",
          "type": "address"
        },
        {
          "internalType": "address",
          "name": "vendor_",
          "type": "address"
        }
      ],
      "name": "redeemTCtoViaVendor",
      "outputs": [
        {
          "internalType": "uint256",
          "name": "operId",
          "type": "uint256"
        }
      ],
      "stateMutability": "payable",
      "type": "function"
    },
    {
      "inputs": [
        {
          "internalType": "address",
          "name": "tp_",
          "type": "address"
        },
        {
          "internalType": "uint256",
          "name": "qTP_",
          "type": "uint256"
        },
        {
          "internalType": "uint256",
          "name": "qACmin_",
          "type": "uint256"
        }
      ],
      "name": "redeemTP",
      "outputs": [
        {
          "internalType": "uint256",
          "name": "operId",
          "type": "uint256"
        }
      ],
      "stateMutability": "payable",
      "type": "function"
    },
    {
      "inputs": [
        {
          "internalType": "address",
          "name": "tp_",
          "type": "address"
        },
        {
          "internalType": "uint256",
          "name": "qTP_",
          "type": "uint256"
        },
        {
          "internalType": "uint256",
          "name": "qACmin_",
          "type": "uint256"
        },
        {
          "internalType": "address",
          "name": "vendor_",
          "type": "address"
        }
      ],
      "name": "redeemTPViaVendor",
      "outputs": [
        {
          "internalType": "uint256",
          "name": "operId",
          "type": "uint256"
        }
      ],
      "stateMutability": "payable",
      "type": "function"
    },
    {
      "inputs": [
        {
          "internalType": "address",
          "name": "tp_",
          "type": "address"
        },
        {
          "internalType": "uint256",
          "name": "qTP_",
          "type": "uint256"
        },
        {
          "internalType": "uint256",
          "name": "qACmin_",
          "type": "uint256"
        },
        {
          "internalType": "address",
          "name": "recipient_",
          "type": "address"
        }
      ],
      "name": "redeemTPto",
      "outputs": [
        {
          "internalType": "uint256",
          "name": "operId",
          "type": "uint256"
        }
      ],
      "stateMutability": "payable",
      "type": "function"
    },
    {
      "inputs": [
        {
          "internalType": "address",
          "name": "tp_",
          "type": "address"
        },
        {
          "internalType": "uint256",
          "name": "qTP_",
          "type": "uint256"
        },
        {
          "internalType": "uint256",
          "name": "qACmin_",
          "type": "uint256"
        },
        {
          "internalType": "address",
          "name": "recipient_",
          "type": "address"
        },
        {
          "internalType": "address",
          "name": "vendor_",
          "type": "address"
        }
      ],
      "name": "redeemTPtoViaVendor",
      "outputs": [
        {
          "internalType": "uint256",
          "name": "operId",
          "type": "uint256"
        }
      ],
      "stateMutability": "payable",
      "type": "function"
    },
    {
      "inputs": [
        {
          "internalType": "uint256",
          "name": "appreciationFactor_",
          "type": "uint256"
        }
      ],
      "name": "setAppreciationFactor",
      "outputs": [],
      "stateMutability": "nonpayable",
      "type": "function"
    },
    {
      "inputs": [
        {
          "internalType": "uint256",
          "name": "bes_",
          "type": "uint256"
        }
      ],
      "name": "setBes",
      "outputs": [],
      "stateMutability": "nonpayable",
      "type": "function"
    },
    {
      "inputs": [
        {
          "internalType": "uint256",
          "name": "decayBlockSpan_",
          "type": "uint256"
        }
      ],
      "name": "setDecayBlockSpan",
      "outputs": [],
      "stateMutability": "nonpayable",
      "type": "function"
    },
    {
      "inputs": [
        {
          "internalType": "uint256",
          "name": "blockSpan_",
          "type": "uint256"
        }
      ],
      "name": "setEmaCalculationBlockSpan",
      "outputs": [],
      "stateMutability": "nonpayable",
      "type": "function"
    },
    {
      "inputs": [
        {
          "internalType": "uint256",
          "name": "feeRetainer_",
          "type": "uint256"
        }
      ],
      "name": "setFeeRetainer",
      "outputs": [],
      "stateMutability": "nonpayable",
      "type": "function"
    },
    {
      "inputs": [
        {
          "internalType": "address",
          "name": "mocFeeTokenAddress_",
          "type": "address"
        }
      ],
      "name": "setFeeTokenAddress",
      "outputs": [],
      "stateMutability": "nonpayable",
      "type": "function"
    },
    {
      "inputs": [
        {
          "internalType": "uint256",
          "name": "feeTokenPct_",
          "type": "uint256"
        }
      ],
      "name": "setFeeTokenPct",
      "outputs": [],
      "stateMutability": "nonpayable",
      "type": "function"
    },
    {
      "inputs": [
        {
          "internalType": "address",
          "name": "mocFeeTokenPriceProviderAddress_",
          "type": "address"
        }
      ],
      "name": "setFeeTokenPriceProviderAddress",
      "outputs": [],
      "stateMutability": "nonpayable",
      "type": "function"
    },
    {
      "inputs": [
        {
          "internalType": "bool",
          "name": "liqEnabled_",
          "type": "bool"
        }
      ],
      "name": "setLiqEnabled",
      "outputs": [],
      "stateMutability": "nonpayable",
      "type": "function"
    },
    {
      "inputs": [
        {
          "internalType": "uint256",
          "name": "liqThrld_",
          "type": "uint256"
        }
      ],
      "name": "setLiqThrld",
      "outputs": [],
      "stateMutability": "nonpayable",
      "type": "function"
    },
    {
      "inputs": [
        {
          "internalType": "address",
          "name": "maxAbsoluteOpProviderAddress_",
          "type": "address"
        }
      ],
      "name": "setMaxAbsoluteOpProviderAddress",
      "outputs": [],
      "stateMutability": "nonpayable",
      "type": "function"
    },
    {
      "inputs": [
        {
          "internalType": "address",
          "name": "maxOpDiffProviderAddress_",
          "type": "address"
        }
      ],
      "name": "setMaxOpDiffProviderAddress",
      "outputs": [],
      "stateMutability": "nonpayable",
      "type": "function"
    },
    {
      "inputs": [
        {
          "internalType": "uint256",
          "name": "mintTCandTPFee_",
          "type": "uint256"
        }
      ],
      "name": "setMintTCandTPFee",
      "outputs": [],
      "stateMutability": "nonpayable",
      "type": "function"
    },
    {
      "inputs": [
        {
          "internalType": "address",
          "name": "mocAppreciationBeneficiaryAddress_",
          "type": "address"
        }
      ],
      "name": "setMocAppreciationBeneficiaryAddress",
      "outputs": [],
      "stateMutability": "nonpayable",
      "type": "function"
    },
    {
      "inputs": [
        {
          "internalType": "address",
          "name": "mocCoreExpansion_",
          "type": "address"
        }
      ],
      "name": "setMocCoreExpansion",
      "outputs": [],
      "stateMutability": "nonpayable",
      "type": "function"
    },
    {
      "inputs": [
        {
          "internalType": "address",
          "name": "mocFeeFlowAddress_",
          "type": "address"
        }
      ],
      "name": "setMocFeeFlowAddress",
      "outputs": [],
      "stateMutability": "nonpayable",
      "type": "function"
    },
    {
      "inputs": [
        {
          "internalType": "address",
          "name": "mocQueueAddress_",
          "type": "address"
        }
      ],
      "name": "setMocQueue",
      "outputs": [],
      "stateMutability": "nonpayable",
      "type": "function"
    },
    {
      "inputs": [
        {
          "internalType": "address",
          "name": "mocVendors_",
          "type": "address"
        }
      ],
      "name": "setMocVendors",
      "outputs": [],
      "stateMutability": "nonpayable",
      "type": "function"
    },
    {
      "inputs": [
        {
          "internalType": "address",
          "name": "newPauser_",
          "type": "address"
        }
      ],
      "name": "setPauser",
      "outputs": [],
      "stateMutability": "nonpayable",
      "type": "function"
    },
    {
      "inputs": [
        {
          "internalType": "uint256",
          "name": "protThrld_",
          "type": "uint256"
        }
      ],
      "name": "setProtThrld",
      "outputs": [],
      "stateMutability": "nonpayable",
      "type": "function"
    },
    {
      "inputs": [
        {
          "internalType": "uint256",
          "name": "redeemTCandTPFee_",
          "type": "uint256"
        }
      ],
      "name": "setRedeemTCandTPFee",
      "outputs": [],
      "stateMutability": "nonpayable",
      "type": "function"
    },
    {
      "inputs": [
        {
          "internalType": "uint256",
          "name": "successFee_",
          "type": "uint256"
        }
      ],
      "name": "setSuccessFee",
      "outputs": [],
      "stateMutability": "nonpayable",
      "type": "function"
    },
    {
      "inputs": [
        {
          "internalType": "uint256",
          "name": "swapTCforTPFee_",
          "type": "uint256"
        }
      ],
      "name": "setSwapTCforTPFee",
      "outputs": [],
      "stateMutability": "nonpayable",
      "type": "function"
    },
    {
      "inputs": [
        {
          "internalType": "uint256",
          "name": "swapTPforTCFee_",
          "type": "uint256"
        }
      ],
      "name": "setSwapTPforTCFee",
      "outputs": [],
      "stateMutability": "nonpayable",
      "type": "function"
    },
    {
      "inputs": [
        {
          "internalType": "uint256",
          "name": "swapTPforTPFee_",
          "type": "uint256"
        }
      ],
      "name": "setSwapTPforTPFee",
      "outputs": [],
      "stateMutability": "nonpayable",
      "type": "function"
    },
    {
      "inputs": [
        {
          "internalType": "address",
          "name": "tcInterestCollectorAddress_",
          "type": "address"
        }
      ],
      "name": "setTCInterestCollectorAddress",
      "outputs": [],
      "stateMutability": "nonpayable",
      "type": "function"
    },
    {
      "inputs": [
        {
          "internalType": "uint256",
          "name": "tcInterestPaymentBlockSpan_",
          "type": "uint256"
        }
      ],
      "name": "setTCInterestPaymentBlockSpan",
      "outputs": [],
      "stateMutability": "nonpayable",
      "type": "function"
    },
    {
      "inputs": [
        {
          "internalType": "uint256",
          "name": "tcInterestRate_",
          "type": "uint256"
        }
      ],
      "name": "setTCInterestRate",
      "outputs": [],
      "stateMutability": "nonpayable",
      "type": "function"
    },
    {
      "inputs": [
        {
          "internalType": "uint256",
          "name": "tcMintFee_",
          "type": "uint256"
        }
      ],
      "name": "setTcMintFee",
      "outputs": [],
      "stateMutability": "nonpayable",
      "type": "function"
    },
    {
      "inputs": [
        {
          "internalType": "uint256",
          "name": "tcRedeemFee_",
          "type": "uint256"
        }
      ],
      "name": "setTcRedeemFee",
      "outputs": [],
      "stateMutability": "nonpayable",
      "type": "function"
    },
    {
      "inputs": [
        {
          "internalType": "uint256",
          "name": "transferMaxGas_",
          "type": "uint256"
        }
      ],
      "name": "setTransferMAxGas",
      "outputs": [],
      "stateMutability": "nonpayable",
      "type": "function"
    },
    {
      "inputs": [],
      "name": "shouldCalculateEma",
      "outputs": [
        {
          "internalType": "bool",
          "name": "",
          "type": "bool"
        }
      ],
      "stateMutability": "view",
      "type": "function"
    },
    {
      "inputs": [],
      "name": "stoppable",
      "outputs": [
        {
          "internalType": "bool",
          "name": "",
          "type": "bool"
        }
      ],
      "stateMutability": "view",
      "type": "function"
    },
    {
      "inputs": [],
      "name": "successFee",
      "outputs": [
        {
          "internalType": "uint256",
          "name": "",
          "type": "uint256"
        }
      ],
      "stateMutability": "view",
      "type": "function"
    },
    {
      "inputs": [
        {
          "internalType": "address",
          "name": "tp_",
          "type": "address"
        },
        {
          "internalType": "uint256",
          "name": "qTC_",
          "type": "uint256"
        },
        {
          "internalType": "uint256",
          "name": "qTPmin_",
          "type": "uint256"
        }
      ],
      "name": "swapTCforTP",
      "outputs": [
        {
          "internalType": "uint256",
          "name": "operId",
          "type": "uint256"
        }
      ],
      "stateMutability": "payable",
      "type": "function"
    },
    {
      "inputs": [],
      "name": "swapTCforTPFee",
      "outputs": [
        {
          "internalType": "uint256",
          "name": "",
          "type": "uint256"
        }
      ],
      "stateMutability": "view",
      "type": "function"
    },
    {
      "inputs": [
        {
          "internalType": "address",
          "name": "tp_",
          "type": "address"
        },
        {
          "internalType": "uint256",
          "name": "qTC_",
          "type": "uint256"
        },
        {
          "internalType": "uint256",
          "name": "qTPmin_",
          "type": "uint256"
        },
        {
          "internalType": "address",
          "name": "vendor_",
          "type": "address"
        }
      ],
      "name": "swapTCforTPViaVendor",
      "outputs": [
        {
          "internalType": "uint256",
          "name": "operId",
          "type": "uint256"
        }
      ],
      "stateMutability": "payable",
      "type": "function"
    },
    {
      "inputs": [
        {
          "internalType": "address",
          "name": "tp_",
          "type": "address"
        },
        {
          "internalType": "uint256",
          "name": "qTC_",
          "type": "uint256"
        },
        {
          "internalType": "uint256",
          "name": "qTPmin_",
          "type": "uint256"
        },
        {
          "internalType": "address",
          "name": "recipient_",
          "type": "address"
        }
      ],
      "name": "swapTCforTPto",
      "outputs": [
        {
          "internalType": "uint256",
          "name": "operId",
          "type": "uint256"
        }
      ],
      "stateMutability": "payable",
      "type": "function"
    },
    {
      "inputs": [
        {
          "internalType": "address",
          "name": "tp_",
          "type": "address"
        },
        {
          "internalType": "uint256",
          "name": "qTC_",
          "type": "uint256"
        },
        {
          "internalType": "uint256",
          "name": "qTPmin_",
          "type": "uint256"
        },
        {
          "internalType": "address",
          "name": "recipient_",
          "type": "address"
        },
        {
          "internalType": "address",
          "name": "vendor_",
          "type": "address"
        }
      ],
      "name": "swapTCforTPtoViaVendor",
      "outputs": [
        {
          "internalType": "uint256",
          "name": "operId",
          "type": "uint256"
        }
      ],
      "stateMutability": "payable",
      "type": "function"
    },
    {
      "inputs": [
        {
          "internalType": "address",
          "name": "tp_",
          "type": "address"
        },
        {
          "internalType": "uint256",
          "name": "qTP_",
          "type": "uint256"
        },
        {
          "internalType": "uint256",
          "name": "qTCmin_",
          "type": "uint256"
        }
      ],
      "name": "swapTPforTC",
      "outputs": [
        {
          "internalType": "uint256",
          "name": "operId",
          "type": "uint256"
        }
      ],
      "stateMutability": "payable",
      "type": "function"
    },
    {
      "inputs": [],
      "name": "swapTPforTCFee",
      "outputs": [
        {
          "internalType": "uint256",
          "name": "",
          "type": "uint256"
        }
      ],
      "stateMutability": "view",
      "type": "function"
    },
    {
      "inputs": [
        {
          "internalType": "address",
          "name": "tp_",
          "type": "address"
        },
        {
          "internalType": "uint256",
          "name": "qTP_",
          "type": "uint256"
        },
        {
          "internalType": "uint256",
          "name": "qTCmin_",
          "type": "uint256"
        },
        {
          "internalType": "address",
          "name": "vendor_",
          "type": "address"
        }
      ],
      "name": "swapTPforTCViaVendor",
      "outputs": [
        {
          "internalType": "uint256",
          "name": "operId",
          "type": "uint256"
        }
      ],
      "stateMutability": "payable",
      "type": "function"
    },
    {
      "inputs": [
        {
          "internalType": "address",
          "name": "tp_",
          "type": "address"
        },
        {
          "internalType": "uint256",
          "name": "qTP_",
          "type": "uint256"
        },
        {
          "internalType": "uint256",
          "name": "qTCmin_",
          "type": "uint256"
        },
        {
          "internalType": "address",
          "name": "recipient_",
          "type": "address"
        }
      ],
      "name": "swapTPforTCto",
      "outputs": [
        {
          "internalType": "uint256",
          "name": "operId",
          "type": "uint256"
        }
      ],
      "stateMutability": "payable",
      "type": "function"
    },
    {
      "inputs": [
        {
          "internalType": "address",
          "name": "tp_",
          "type": "address"
        },
        {
          "internalType": "uint256",
          "name": "qTP_",
          "type": "uint256"
        },
        {
          "internalType": "uint256",
          "name": "qTCmin_",
          "type": "uint256"
        },
        {
          "internalType": "address",
          "name": "recipient_",
          "type": "address"
        },
        {
          "internalType": "address",
          "name": "vendor_",
          "type": "address"
        }
      ],
      "name": "swapTPforTCtoViaVendor",
      "outputs": [
        {
          "internalType": "uint256",
          "name": "operId",
          "type": "uint256"
        }
      ],
      "stateMutability": "payable",
      "type": "function"
    },
    {
      "inputs": [
        {
          "internalType": "address",
          "name": "tpFrom_",
          "type": "address"
        },
        {
          "internalType": "address",
          "name": "tpTo_",
          "type": "address"
        },
        {
          "internalType": "uint256",
          "name": "qTP_",
          "type": "uint256"
        },
        {
          "internalType": "uint256",
          "name": "qTPmin_",
          "type": "uint256"
        }
      ],
      "name": "swapTPforTP",
      "outputs": [
        {
          "internalType": "uint256",
          "name": "operId",
          "type": "uint256"
        }
      ],
      "stateMutability": "payable",
      "type": "function"
    },
    {
      "inputs": [],
      "name": "swapTPforTPFee",
      "outputs": [
        {
          "internalType": "uint256",
          "name": "",
          "type": "uint256"
        }
      ],
      "stateMutability": "view",
      "type": "function"
    },
    {
      "inputs": [
        {
          "internalType": "address",
          "name": "tpFrom_",
          "type": "address"
        },
        {
          "internalType": "address",
          "name": "tpTo_",
          "type": "address"
        },
        {
          "internalType": "uint256",
          "name": "qTP_",
          "type": "uint256"
        },
        {
          "internalType": "uint256",
          "name": "qTPmin_",
          "type": "uint256"
        },
        {
          "internalType": "address",
          "name": "vendor_",
          "type": "address"
        }
      ],
      "name": "swapTPforTPViaVendor",
      "outputs": [
        {
          "internalType": "uint256",
          "name": "operId",
          "type": "uint256"
        }
      ],
      "stateMutability": "payable",
      "type": "function"
    },
    {
      "inputs": [
        {
          "internalType": "address",
          "name": "tpFrom_",
          "type": "address"
        },
        {
          "internalType": "address",
          "name": "tpTo_",
          "type": "address"
        },
        {
          "internalType": "uint256",
          "name": "qTP_",
          "type": "uint256"
        },
        {
          "internalType": "uint256",
          "name": "qTPmin_",
          "type": "uint256"
        },
        {
          "internalType": "address",
          "name": "recipient_",
          "type": "address"
        }
      ],
      "name": "swapTPforTPto",
      "outputs": [
        {
          "internalType": "uint256",
          "name": "operId",
          "type": "uint256"
        }
      ],
      "stateMutability": "payable",
      "type": "function"
    },
    {
      "inputs": [
        {
          "internalType": "address",
          "name": "tpFrom_",
          "type": "address"
        },
        {
          "internalType": "address",
          "name": "tpTo_",
          "type": "address"
        },
        {
          "internalType": "uint256",
          "name": "qTP_",
          "type": "uint256"
        },
        {
          "internalType": "uint256",
          "name": "qTPmin_",
          "type": "uint256"
        },
        {
          "internalType": "address",
          "name": "recipient_",
          "type": "address"
        },
        {
          "internalType": "address",
          "name": "vendor_",
          "type": "address"
        }
      ],
      "name": "swapTPforTPtoViaVendor",
      "outputs": [
        {
          "internalType": "uint256",
          "name": "operId",
          "type": "uint256"
        }
      ],
      "stateMutability": "payable",
      "type": "function"
    },
    {
      "inputs": [],
      "name": "tcHoldersInterestPayment",
      "outputs": [],
      "stateMutability": "nonpayable",
      "type": "function"
    },
    {
      "inputs": [],
      "name": "tcInterestCollectorAddress",
      "outputs": [
        {
          "internalType": "address",
          "name": "",
          "type": "address"
        }
      ],
      "stateMutability": "view",
      "type": "function"
    },
    {
      "inputs": [],
      "name": "tcInterestPaymentBlockSpan",
      "outputs": [
        {
          "internalType": "uint256",
          "name": "",
          "type": "uint256"
        }
      ],
      "stateMutability": "view",
      "type": "function"
    },
    {
      "inputs": [],
      "name": "tcInterestRate",
      "outputs": [
        {
          "internalType": "uint256",
          "name": "",
          "type": "uint256"
        }
      ],
      "stateMutability": "view",
      "type": "function"
    },
    {
      "inputs": [],
      "name": "tcMintFee",
      "outputs": [
        {
          "internalType": "uint256",
          "name": "",
          "type": "uint256"
        }
      ],
      "stateMutability": "view",
      "type": "function"
    },
    {
      "inputs": [],
      "name": "tcRedeemFee",
      "outputs": [
        {
          "internalType": "uint256",
          "name": "",
          "type": "uint256"
        }
      ],
      "stateMutability": "view",
      "type": "function"
    },
    {
      "inputs": [],
      "name": "tcToken",
      "outputs": [
        {
          "internalType": "contract MocTC",
          "name": "",
          "type": "address"
        }
      ],
      "stateMutability": "view",
      "type": "function"
    },
    {
      "inputs": [
        {
          "internalType": "uint256",
          "name": "",
          "type": "uint256"
        }
      ],
      "name": "tpCtarg",
      "outputs": [
        {
          "internalType": "uint256",
          "name": "",
          "type": "uint256"
        }
      ],
      "stateMutability": "view",
      "type": "function"
    },
    {
      "inputs": [
        {
          "internalType": "uint256",
          "name": "",
          "type": "uint256"
        }
      ],
      "name": "tpEma",
      "outputs": [
        {
          "internalType": "uint256",
          "name": "ema",
          "type": "uint256"
        },
        {
          "internalType": "uint256",
          "name": "sf",
          "type": "uint256"
        }
      ],
      "stateMutability": "view",
      "type": "function"
    },
    {
      "inputs": [
        {
          "internalType": "uint256",
          "name": "",
          "type": "uint256"
        }
      ],
      "name": "tpLiqPrices",
      "outputs": [
        {
          "internalType": "uint256",
          "name": "",
          "type": "uint256"
        }
      ],
      "stateMutability": "view",
      "type": "function"
    },
    {
      "inputs": [
        {
          "internalType": "address",
          "name": "",
          "type": "address"
        }
      ],
      "name": "tpMintFees",
      "outputs": [
        {
          "internalType": "uint256",
          "name": "",
          "type": "uint256"
        }
      ],
      "stateMutability": "view",
      "type": "function"
    },
    {
      "inputs": [
        {
          "internalType": "address",
          "name": "",
          "type": "address"
        }
      ],
      "name": "tpRedeemFees",
      "outputs": [
        {
          "internalType": "uint256",
          "name": "",
          "type": "uint256"
        }
      ],
      "stateMutability": "view",
      "type": "function"
    },
    {
      "inputs": [
        {
          "internalType": "uint256",
          "name": "",
          "type": "uint256"
        }
      ],
      "name": "tpTokens",
      "outputs": [
        {
          "internalType": "contract IMocRC20",
          "name": "",
          "type": "address"
        }
      ],
      "stateMutability": "view",
      "type": "function"
    },
    {
      "inputs": [],
      "name": "transferMaxGas",
      "outputs": [
        {
          "internalType": "uint256",
          "name": "",
          "type": "uint256"
        }
      ],
      "stateMutability": "view",
      "type": "function"
    },
    {
      "inputs": [
        {
          "internalType": "address",
          "name": "owner_",
          "type": "address"
        },
        {
          "internalType": "uint256",
          "name": "qACToUnlock_",
          "type": "uint256"
        }
      ],
      "name": "unlockACInPending",
      "outputs": [],
      "stateMutability": "nonpayable",
      "type": "function"
    },
    {
      "inputs": [
        {
          "internalType": "address",
          "name": "owner_",
          "type": "address"
        },
        {
          "internalType": "uint256",
          "name": "qTCToUnlock_",
          "type": "uint256"
        }
      ],
      "name": "unlockTCInPending",
      "outputs": [],
      "stateMutability": "nonpayable",
      "type": "function"
    },
    {
      "inputs": [
        {
          "internalType": "address",
          "name": "owner_",
          "type": "address"
        },
        {
          "internalType": "contract IERC20Upgradeable",
          "name": "tpToken_",
          "type": "address"
        },
        {
          "internalType": "uint256",
          "name": "qTPToUnlock_",
          "type": "uint256"
        }
      ],
      "name": "unlockTPInPending",
      "outputs": [],
      "stateMutability": "nonpayable",
      "type": "function"
    },
    {
      "inputs": [],
      "name": "unpause",
      "outputs": [],
      "stateMutability": "nonpayable",
      "type": "function"
    },
    {
      "inputs": [],
      "name": "updateEmas",
      "outputs": [],
      "stateMutability": "nonpayable",
      "type": "function"
    },
    {
      "inputs": [
        {
          "internalType": "address",
          "name": "newImplementation",
          "type": "address"
        }
      ],
      "name": "upgradeTo",
      "outputs": [],
      "stateMutability": "nonpayable",
      "type": "function"
    },
    {
      "inputs": [
        {
          "internalType": "address",
          "name": "newImplementation",
          "type": "address"
        },
        {
          "internalType": "bytes",
          "name": "data",
          "type": "bytes"
        }
      ],
      "name": "upgradeToAndCall",
      "outputs": [],
      "stateMutability": "payable",
      "type": "function"
    },
    {
      "stateMutability": "payable",
      "type": "receive"
    }
  ],
  "bytecode": "0x60a08060405234620000e157306080526000549060ff8260081c166200008f575060ff8082160362000053575b6040516160aa9081620000e782396080518181816129fb01528181612bac015261313c0152f35b60ff90811916176000557f7f26b83ff96e1f2b6a682f133852f6798a09c465da95921460cefb3847402498602060405160ff8152a1386200002c565b62461bcd60e51b815260206004820152602760248201527f496e697469616c697a61626c653a20636f6e747261637420697320696e697469604482015266616c697a696e6760c81b6064820152608490fd5b600080fdfe604060808152600436101561002d575b50361561001b57600080fd5b610131610029348254614229565b9055005b60009060e08235811c90816301dde6ef14613ad457816301f1b68414613a8d5781630579188f146139f45781630716487914613994578163073763b9146139705781630b69640d1461390f5781630c340a24146138e65781630c36d897146138c65781630d10ebe9146138aa5781630d6ac463146138645781630db49656146138445781630e0a8fd2146138205781630f1e5e2b146137da57816313ed7ba5146137b057816317937f9b146137795781631867e2f5146137595781631af4b229146137205781631fb0dda0146136f75781631fe6a7ad146136bd5781632069f75314613699578163235e81cf146134a757816323b98cde1461347f578163243d56a51461344b57816324ffaba31461340e57816327eab2a1146133c85781632a20d57d146133a85781632c43bd3b146133845781632d88af4a1461332d5781632ded50f01461330d57816331f64ec2146132ef578163333431fd146132cf57816333421c38146131dc57816334246862146131a15781633659cfe6146131075781633915edcb146130d6578163391bf6cf14612fbe5781633b0d5fff14612f7c5781633bc4ac0a14612f585781633cfb09ef14612f125781633dbc50a914612ed05781633f4ba83a14612e555781634017936a14612e24578163407f0e3414612e04578163466b893414612dcd578163471a80e314612d9a5781634a58712414612d7e5781634af3a6fc14612cff5781634b74600114612cb55781634c6af8e814612c815781634d977e7814612c615781634e1f907a14612c375781634f0f27ee14612c175781634f1ef28614612b2357816351a9cedc14612ae15781635210570c14612abb57816352d1902d146129e657816352e18f8f146129cb578163533a4bea1461299a57816353b16d1714612955578163543aeb481461293157816357271f4d146129015781635860ee63146128e157816358f32de91461286f5781635c616a73146126745781635c975abb1461264d5781635cfbe5781461262d5781635e2a6065146126135781635ece17ef146125be57816360009e0b14612594578163647846a51461256a57816364ec230a14612546578163662013f414612529578163682743571461250057816368748a42146124e557816368a09e13146124c757816369d9c2f2146124ac5781636b5488df1461248c5781636f30471f1461246c5781637071346814612448578163735d39601461240257816373e28af9146123de5781637554fffd146123be578163762280551461239e5781637636bb09146123825781637750ba0c1461235e57816379873a261461234357816379f9a91c146123235781637a193c31146123035781637a4ff1d9146122df5781637a727fe8146122bf5781637af5758c1461229b5781637cba2383146122775781637d8e0314146122385781637f01c7151461220e5781637f13b998146121d85781637f4a4fe0146121b8578163826fcd58146121955781638456cb591461210057816385bf9593146120ba578163883d21cb14611ff957816389fd503e14611fdf5781638acc201114611fc55781638cfa424114611fa55781638d7a72f314611f855781638e2bdb8614611f5b5781638f1a383a14611f33578163960556f314611ef1578163963dcc98146119a15781639853c35a146119775781639abb14c9146119585781639ad6659d146119225781639bea71a4146118e05781639cabfc00146118945781639fd0506d14611867578163a8e9ac3014611844578163ad4e666d14611665578163aea038dc14611645578163aeb41e6914611628578163b3903b39146115f8578163b4434c321461143a578163b5e9ea8c14611410578163b9fa6413146113f0578163bb4872de146113cc578163bc4e55b2146112fe578163becaca6b146112da578163bf1ad8b1146112be578163bfe42621146110c3578163c00f538d1461109f578163c039cc691461105d578163c0d8e15e14611015578163c4cb376c14610ff1578163c84353c914610fcd578163cc75b04814610fb1578163cf351c1d14610f6b578163d1a0faa014610f52578163d471849b14610f10578163d6af11da14610ed4578163d8233ecc14610ea2578163d87aab6f14610e82578163d8c69aec14610d6c578163d8db6f5a14610d26578163db79607214610ce9578163dd9928d814610cce578163ddb6d19014610c91578163de8d520a14610c5e578163e2c5e99014610bfd578163e401294514610bca578163e4c0aaf414610b85578163e6a683e014610b3f578163e6b1627c14610afb578163e7c2597814610ad6578163e8859a1514610ab9578163ea70b99e14610a99578163ee1f438f14610a6f578163eedd8a4014610a36578163f13f405414610a0c578163f26114aa146109a757508063f280877814610983578063f30b561414610964578063f375cfba14610945578063f37728861461091c578063f88b1434146108b3578063fa6e83bd14610894578063fadda42414610820578063fb3bfcea146107d8578063fd80fa77146107b6578063fda70f8b146107975763fe6b92c114610775575061000f565b34610793578160031936011261079357602090610135549051908152f35b5080fd5b503461079357816003193601126107935760209061013c549051908152f35b506107d16020926107c8366004613cf7565b939290926157d5565b9051908152f35b5090606036600319011261081d57506001600160a01b03906024358281168103610818576044359283168303610818576020926107d19134600435614e43565b600080fd5b80fd5b50903461081d57602036600319011261081d57506001600160a01b0360043581811681036108185761085e61085660019261455a565b610137613c2d565b5001541661086b816145f1565b9190911561087d575060209151908152f35b602490835190637f6e4db960e01b82526004820152fd5b503461079357816003193601126107935760209061013a549051908152f35b50903461081d57602036600319011261081d5750600435906001600160a01b0382168203610818576107d161090e6020936108f76108ef614cec565b91909261455a565b91610916610905848461424c565b51948593614260565b959094614c49565b90614b46565b503461079357816003193601126107935761022b5490516001600160a01b039091168152602090f35b5034610793578160031936011261079357602090610141549051908152f35b5034610793578160031936011261079357602090610131549051908152f35b823461081d57602036600319011261081d5761099d615f7f565b60043561013c5580f35b905034610a085736600319011261079357610a04906109c4615f7f565b516379308a5560e11b60208201526109f2816109e4600460248301614a52565b03601f198101835282613c49565b6101f7546001600160a01b031661491b565b5080f35b8280fd5b5050346107935781600319360112610793576101305490516001600160a01b039091168152602090f35b50506060366003190112610818576004356001600160a01b0381168103610818576020926107d191339034906044359060243590615537565b5050346107935781600319360112610793576101525490516001600160a01b039091168152602090f35b50503461079357816003193601126107935760209061022a549051908152f35b5050346107935781600319360112610793576020906107d1614c0c565b50503461079357816003193601126107935760209060ff61014b541690519015158152f35b5050346107935760203660031901126107935760043561018e8054821015610b3b5790610b2791613c2d565b506001815491015482519182526020820152f35b8380fd5b833461081d57602036600319011261081d576004356001600160a01b0381169081900361081857610b6e615f7f565b6101f780546001600160a01b031916909117905580f35b833461081d57602036600319011261081d576004356001600160a01b0381169081900361079357610bb4615f7f565b6001600160601b0360a01b609754161760975580f35b50506060366003190112610818576044356001600160a01b0381168103610818576020926107d191602435600435615613565b82843461081d57606036600319011261081d576001600160a01b03600435818116810361081857602435918083168303610b3b5761014f54163303610c4d5790610c4a9160443591615f46565b80f35b8351631974847760e01b8152600490fd5b5050346107935781600319360112610793576020906107d1610c86610c81614663565b614260565b905061013154614433565b505034610793576020366003190112610793576004356001600160a01b038116908190036108185782829160209452610145845220549051908152f35b6020836107d1610cdf366004613cca565b9290913491615006565b905034610a085736600319011261079357610a0490610d06615f7f565b51636dbcb03960e11b60208201526109f2816109e4600460248301614a52565b833461081d57602036600319011261081d576004356001600160a01b0381169081900361081857610d55615f7f565b61015280546001600160a01b031916909117905580f35b839150346107935736600319011261081d5750610d876158c0565b5061014f546001600160a01b03919082163303610e7257610e3791610dad366004615ed3565b91610db66158c0565b50610dbf614fe4565b610dc761600d565b610e13610e048251633dad0bd760e11b6020820152610de960248201876154e7565b60e48152610df961010482613c49565b846101f7541661491b565b60208082518301019101615e78565b86848760808498969b95979a015116918860c08160a0840151169201511692615c2a565b6004359380851680950361081857608435908116810361081857610e6e94610e6491886044350391615f46565b5194859485613bb4565b0390f35b51631974847760e01b8152600490fd5b505034610793578160031936011261079357602090610155549051908152f35b82848160031936011261081d5750602435906001600160a01b0382168203610818576107d16020923334600435614e43565b5050346107935781600319360112610793576020906107d1610ef6600161469d565b610f0a610f0382846143a4565b91836142ee565b916146e4565b50506060366003190112610818576001600160a01b0391600435908382168203610818576044359384168403610818576020936107d1923490602435906150c0565b833461081d578060031936011261081d57610c4a614daf565b833461081d57602036600319011261081d576004356001600160a01b0381169081900361081857610f9a615f7f565b61012f80546001600160a01b031916909117905580f35b6020836107d1610fc2366004613c9d565b929033923492615537565b833461081d57602036600319011261081d57610fe7615f7f565b60043561014c5580f35b833461081d57602036600319011261081d5761100b615f7f565b60043561022a5580f35b50506080366003190112610793576001600160a01b0391600435908382168203610818576024359384168403610818576020936107d192339134916064359160443591615139565b5050346107935781600319360112610793576020906107d1611092611099611086610c81614663565b61013193919354614433565b9182614433565b9061602e565b833461081d57602036600319011261081d576110b9615f7f565b60043561013d5580f35b82843461081d5760a036600319011261081d576110de6158c0565b5061014f546001600160a01b0390811633036112ad576110ff3660046158e7565b916111086158c0565b50611111614fe4565b61111961600d565b611121614daf565b61113461112c614cec565b819291615944565b90916111438284885193614ae7565b818110611290575050670de0b6b3a76400009161116561116b92875192614ab3565b90614371565b0491821561127f57938394816111a495019080825116916111996080890193878486511661013d5492615987565b969188999199614433565b9660208a015180891061126257508951906101346111c3838254614433565b90556111d3610131918254614433565b905583610133541690813b15610a08578651632770a7eb60e21b815230600482015260248101919091529082908290604490829084905af1801561125857611243575b5050968561123993838060608996610e6e9b9c9d51169501511691511692615c2a565b5193849384613b76565b61124e828092613c49565b61081d5780611216565b86513d84823e3d90fd5b604490898851916354cde31360e01b835260048301526024820152fd5b845163f3e39b5d60e01b8152600490fd5b6044925087519163a5db715d60e01b835260048301526024820152fd5b8251631974847760e01b8152600490fd5b6020836107d16112cf366004613c9d565b929033923492615449565b833461081d57602036600319011261081d576112f4615f7f565b6004356101395580f35b839150346107935736600319011261081d57506113196158c0565b5061014f546001600160a01b0390811633036113bb57610e6e610e6491611341366004615ed3565b9361134a6158c0565b50611353614fe4565b61135b61600d565b61137d610e04825163f5571e0160e01b6020820152610de960248201896154e7565b948860608793969599949a0191825161139a61014e918254614433565b905560c06113b08b836080860151169551614433565b920151169180615c2a565b8151631974847760e01b8152600490fd5b50503461079357816003193601126107935760209060ff60ca541690519015158152f35b50503461079357816003193601126107935760209061015b549051908152f35b5050346107935781600319360112610793576101535490516001600160a01b039091168152602090f35b82843461081d5760c036600319011261081d576114556158c0565b5061014f546001600160a01b03929083163303610e72576114ef61147a366004615d3d565b916114836158c0565b5061148c614fe4565b61149461600d565b61149c614daf565b6114a4614cec565b6114b38786959395511661455a565b936114d36114c1868461424c565b51926114cd84886149fd565b82615944565b6020889592950194848651946114e9828b614c49565b90615da6565b8181106115db57505094809661150961154197845161602e565b94606087019061153683835116888a8960a082019888808b51169351168152610144602052205492615987565b9891829b919b614229565b98878101968751808c116115be57508a156115ad579489969461158882958d9e9f95610e6e9e958560806112399e9c61157d6115a39b86615dbe565b51920151169261493d565b865161159861014e918254614433565b905551169451614433565b9151169180615c2a565b885163f3e39b5d60e01b8152600490fd5b6044908c8b5191630b63f1a760e01b835260048301526024820152fd5b6044925084519163c39b739f60e01b835260048301526024820152fd5b505080600319360112610793576024356001600160a01b0381168103610818576020926107d19134600435614e43565b6020836107d1611639366004613cf7565b939291909133936157d5565b50503461079357816003193601126107935760209061013d549051908152f35b82843461081d5760c036600319011261081d576116806158c0565b5061014f546001600160a01b0390811633036112ad5790611743916116a6366004615d3d565b936116af6158c0565b506116b8614fe4565b6116c061600d565b6116c8614663565b926116d58387511661455a565b926116f86116e3858761424c565b51956116ef87876149fd565b61014954615944565b50506117096020880195865161602e565b916060880190828251169361173860a08b0195828c87808a511691511686526101456020528986205492615987565b9891839b919b614433565b98821561183357878c0151808b106118165750859161179b9161176760018d615dbe565b519361177582610137613c2d565b50611781868254614433565b9055611791610131918254614433565b9055610135613af8565b90549060031b1c1690813b15610a08578651632770a7eb60e21b815230600482015260248101919091529082908290604490829084905af1801561125857611801575b5050968561123993838060808996610e6e9b9c9d51169501511691511692615c2a565b61180c828092613c49565b61081d57806117de565b6044908b8a51916354cde31360e01b835260048301526024820152fd5b875163f3e39b5d60e01b8152600490fd5b50503461079357816003193601126107935760209061018f544310159051908152f35b50503461079357816003193601126107935760ca54905160109190911c6001600160a01b03168152602090f35b82843461081d57602036600319011261081d576004356001600160a01b038116919082900361081857829181526101366020522060ff6001825492015416825191825215156020820152f35b82843461081d578160031936011261081d57506001600160a01b03906004358281168103610818576024359283168303610818576020926107d19133906148a1565b50503461079357816003193601126107935760209061194b611945610c81614663565b90614415565b61014a5410159051908152f35b505080600319360112610793576107d160209233602435600435615613565b5050346107935781600319360112610793576101465490516001600160a01b039091168152602090f35b5050346107935761042036600319011261079357815460ff8160081c161590818092611ee4575b8015611ecd575b15611e725760ff198116600117845581611e61575b5060ff835460081c166119f681614841565b610384356001600160a01b03811690819003610818576101f780546001600160a01b03191690911790556001600160a01b03610344359081169081900361081857610364356001600160a01b038116810361081857600191611a5784614841565b611a6084614841565b611a6984614841565b611a7284614841565b6001600160601b0360a01b6097541617609755611a8e83614841565b60ca5490620100008360b01b039060101b169061ff018360b01b031916171760ca55611ab981614841565b670de0b6b3a764000060c43510611e5057611ad661010435616052565b611ae261012435616052565b611aee61014435616052565b611afa61016435616052565b611b0661018435616052565b611b126101a435616052565b611b1e6101c435616052565b611b2a6101e435616052565b611b3661020435616052565b611b4e611b496102443561022435614229565b616052565b6004356001600160a01b038116908190036108185761014f80546001600160a01b03191690911790556024356001600160a01b03811681036108185761012f80546001600160a01b0319166001600160a01b0392831617905560443590811681036108185761013080546001600160a01b0319166001600160a01b0392831617905560643590811681036108185761013380546001600160a01b0319166001600160a01b0392831617905560843590811681036108185761014680546001600160a01b0319166001600160a01b0392831617905560a43590811681036108185761014780546001600160a01b0319166001600160a01b0392831617905560c4356101495560e43561014a556101043561013b556101243561013c556101443561013d556101643561013e556101843561013f556101a435610140556101c435610141556101e43561014255610204356101435561022435610139556102443561013a556102643561014c8190559061028435908116908190036108185761015880546001600160a01b03191690911790556102a435610159556102c43561015a819055906001600160a01b036102e435908116908190036108185761015280546001600160a01b03191690911790556001600160a01b03610304359081169081900361081857610153906001600160601b0360a01b82541617905561032435610154554361015755430161014d55430161015b5561014b61ffff1981541690556103a435611d7b82614841565b8015611e3f57610190819055430161018f556103c4356001600160a01b038116810361081857611dad611dcf92614841565b6101c380546001600160a01b0319166001600160a01b03909216919091179055565b6103e43561022a55610404356001600160a01b038116908190036108185761022b80546001600160a01b0319169091179055611e09575080f35b60207f7f26b83ff96e1f2b6a682f133852f6798a09c465da95921460cefb38474024989161ff001984541684555160018152a180f35b8351632a9ffab760e21b8152600490fd5b8251632a9ffab760e21b8152600490fd5b61ffff1916610101178355386119e4565b825162461bcd60e51b815260206004820152602e60248201527f496e697469616c697a61626c653a20636f6e747261637420697320616c72656160448201526d191e481a5b9a5d1a585b1a5e995960921b6064820152608490fd5b50303b1580156119cf5750600160ff8216146119cf565b50600160ff8216106119c8565b826060366003190112610818576001600160a01b03906004358281168103610818576044359283168303610818576020926107d19133903490602435906150c0565b505034610793578160031936011261079357602090611f53610c81614663565b509051908152f35b5050346107935781600319360112610793576101585490516001600160a01b039091168152602090f35b5050346107935781600319360112610793576020906101f6549051908152f35b50503461079357816003193601126107935760209061014a549051908152f35b6020836107d1611fd6366004613c9d565b92913392615706565b6020836107d1611ff0366004613bf4565b93929092615706565b82843461081d5760c036600319011261081d57506120156158c0565b5061014f546001600160a01b0390811633036113bb57610e6e610e649161203d366004615d3d565b936120466158c0565b5061204f614fe4565b61205761600d565b612088610e048251637225da8960e11b6020820152612079602482018961507b565b60c48152610df960e482613c49565b9488858793969599949a019182516120a461014e918254614433565b905560a06113b08b836060860151169551614433565b833461081d57602036600319011261081d576004356001600160a01b03811690819003610818576120e9615f7f565b61015380546001600160a01b031916909117905580f35b50503461079357816003193601126107935761211a61600d565b60ca54601081901c6001600160a01b031633036121845760ff8116156121735761ff0019166101001760ca55513381527f62e78cea01bee320cd4e420270b5ea74000d11b0c9f74754ebdbfc544b05a25890602090a180f35b815163866099c360e01b8152600490fd5b8151631d77d47760e21b8152600490fd5b5050346107935781600319360112610793576020906107d1611945610c81614663565b50503461079357816003193601126107935760209061015a549051908152f35b5050346107935781600319360112610793576020906107d16121fa600161469d565b610f0a61220782846142ee565b91836143a4565b5050346107935781600319360112610793576101c35490516001600160a01b039091168152602090f35b505034610793576020366003190112610793576004359161014890815484101561081d575060209261226991613af8565b91905490519160031b1c8152f35b833461081d57602036600319011261081d57612291615f7f565b6004356101495580f35b833461081d57602036600319011261081d576122b5615f7f565b6004356101405580f35b505034610793578160031936011261079357602090610190549051908152f35b833461081d57602036600319011261081d576122f9615f7f565b6004356101415580f35b505034610793578160031936011261079357602090610134549051908152f35b505034610793578160031936011261079357602090610142549051908152f35b6020836107d1612354366004613cca565b92909134916150c0565b833461081d57602036600319011261081d57612378615f7f565b60043561013b5580f35b6020836107d1612393366004613bf4565b939190923492615537565b505034610793578160031936011261079357602090610156549051908152f35b505034610793578160031936011261079357602090610139549051908152f35b833461081d57602036600319011261081d576123f8615f7f565b6004356101545580f35b833461081d57602036600319011261081d576004356001600160a01b0381169081900361081857612431615f7f565b61015880546001600160a01b031916909117905580f35b833461081d57602036600319011261081d57612462615f7f565b60043561013e5580f35b505034610793578160031936011261079357602090610154549051908152f35b505034610793578160031936011261079357602090610149549051908152f35b6020836107d1866124be366004613c9d565b92913492615537565b6020836107d1866124d9366004613b3a565b93929190913493615139565b6020836107d1866124f7366004613c9d565b92913492615449565b833461081d578060031936011261081d57612519615f7f565b600160ff1960ca54161760ca5580f35b505034610793578160031936011261079357602090611f53614cec565b833461081d57602036600319011261081d57612560615f7f565b6004356101595580f35b50503461079357816003193601126107935761012f5490516001600160a01b039091168152602090f35b5050346107935781600319360112610793576101335490516001600160a01b039091168152602090f35b828460c036600319011261081d57506001600160a01b03906004358281168103610818576084359280841684036108185760a4359081168103610818576020936107d1926064359060443590602435906157d5565b833461081d578060031936011261081d5760346101f65580f35b50503461079357816003193601126107935760209061014e549051908152f35b50503461079357816003193601126107935760209060ff60ca5460081c1690519015158152f35b50503461079357816003193601126107935761268e61600d565b61014d8054431061285e5761014c54430190557fd3c59bda47e141a8ec5a33d241b7f71b86e30d359f83a9227d912858b60404fc8280a161013754826126d382614458565b91845b81811061278f5750508061274a575b918051928184019084526020918285015282518091528160608501930191855b82811061273657867fae5116a8119d08673a0f1dfa7546b95da4bd54bb17feda7c61130ac7859152f687870388a180f35b835185529381019392810192600101612705565b612761670de0b6b3a7640000916101395490614371565b04610131612770828254614433565b90556101465461278a9082906001600160a01b03166141d1565b6126e5565b61279881614583565b6127a281836149fd565b8661015091866127b28585613af8565b90549060031b1c918383136127cf575b50505050506001016126d6565b946128148382969961281a9461280e856128016128076128319a60019e670de0b6b3a764000093849161013a54614371565b04614371565b049261424c565b52614229565b97613af8565b819391549060031b91821b91600019901b19161790565b9055612854612840828761424c565b5188848060a01b036101475416918461493d565b90863886816127c2565b815163101b685960e01b8152600490fd5b5050346107935780600319360112610793576001600160a01b0390600435828116810361081857602435918361014f54163303610e72575083808084819461014e82815403905561022a54f16128c36140cd565b50156128cd578280f35b6128db9161022b54166141d1565b38808280f35b505034610793578160031936011261079357602090610157549051908152f35b5050346107935781600319360112610793576020906107d16101f654670de0b6b3a7640000610149540490614229565b833461081d57602036600319011261081d5761294b615f7f565b6004356101435580f35b82843461081d578160031936011261081d576001600160a01b036004358181168103610818578161014f54163303610c4d5790610c4a91602435916101335416615f46565b833461081d57602036600319011261081d576004356001600160a01b038116810361081857610c4a90611dad615f7f565b6020836107d1866129dd366004613c9d565b92919091615706565b82843461081d578060031936011261081d57507f00000000000000000000000000000000000000000000000000000000000000006001600160a01b03163003612a5257602090517f360894a13ba1a3210667c828492db98dca3e2076cc3735a920a3ca505d382bbc8152f35b5162461bcd60e51b815260206004820152603860248201527f555550535570677261646561626c653a206d757374206e6f742062652063616c60448201527f6c6564207468726f7567682064656c656761746563616c6c00000000000000006064820152608490fd5b833461081d578060031936011261081d57612ad4615f7f565b60ff1960ca541660ca5580f35b50506060366003190112610818576001600160a01b0391600435908382168203610818576044359384168403610818576020936107d192349060243590615006565b50508060031936011261079357600435906001600160a01b039081831683036108185783926024359267ffffffffffffffff8411612c135736602385011215612c1357836004013590612b81612b7883613c81565b94519485613c49565b8184523660248387010111612c0f57610c4a95602083612c02946024600199018389013786010152807f00000000000000000000000000000000000000000000000000000000000000001690612bd982301415613d29565b7f360894a13ba1a3210667c828492db98dca3e2076cc3735a920a3ca505d382bbc541614613d8a565b612c0a615f7f565b613deb565b8580fd5b8480fd5b50503461079357816003193601126107935760209061013b549051908152f35b5050346107935781600319360112610793576101475490516001600160a01b039091168152602090f35b50503461079357816003193601126107935760209061014c549051908152f35b505080600319360112610793576004356001600160a01b0381168103610818576020926107d19133903490602435906150c0565b505034610793576020366003190112610793576004356101378054821015610b3b5790612ce191613c2d565b50805460019091015482519182526001600160a01b03166020820152f35b839150346107935736600319011261081d5750612d1a6158c0565b5061014f546001600160a01b0390811633036113bb57610e6e610e6491612d42366004615ed3565b93612d4b6158c0565b50612d54614fe4565b612d5c61600d565b61137d610e04825163d9b6c2e560e01b6020820152610de960248201896154e7565b6020836107d1612d8f366004613bf4565b939190923492615449565b82606036600319011261081857604435906001600160a01b0382168203610818576107d160209233602435600435615613565b50506060366003190112610818576004356001600160a01b0381168103610818576020926107d19133906044359060243590615706565b50503461079357816003193601126107935760209061013e549051908152f35b5050346107935781600319360112610793576020906107d1612e4f612e47614cec565b919091614260565b91614ae7565b50503461079357816003193601126107935760ca5460ff8160081c1615612ebf57601081901c6001600160a01b031633036121845761ff00191660ca55513381527f5db9ee0a495bf2e6ff9c91a7834c1ba4fdd244a5e8aa4e537bd38aeae4b073aa90602090a180f35b8151637c7fd07960e01b8152600490fd5b8284608036600319011261081d57506001600160a01b03906044358281168103610818576064359283168303610818576020926107d191602435600435615613565b833461081d57602036600319011261081d576004356001600160a01b0381169081900361081857612f41615f7f565b61014f80546001600160a01b031916909117905580f35b833461081d57602036600319011261081d57612f72615f7f565b6004356101905580f35b826060366003190112610818576001600160a01b03906004358281168103610818576044359283168303610818576020926107d1913390349060243590615006565b83833461079357610100918260031936011261081d5750612fdd6158c0565b5061014f546001600160a01b039290831633036113bb5761300082519182613c49565b600435838116810361081857815260243583811681036108185760208201526044358282015260643560608201526080810191608435835260a4359084821682036108185760a0830191825260c43585811681036108185760c084015260e4359285841684036108185785610e6e956130bc610e046109e4610df9866115a39d610e6498019a8b526130906158c0565b50613099614fe4565b6130a161600d565b88516370f090ed60e11b602082015292839160248301615226565b9892809b8a96939d9299865161159861014e918254614433565b505034610793576020366003190112610793576004359161013890815484101561081d575060209261226991613af8565b50503461079357602036600319011261079357600435906001600160a01b0390818316830361081857610c4a926131698386947f00000000000000000000000000000000000000000000000000000000000000001690612bd982301415613d29565b613171615f7f565b61318661317d84613c81565b92519283613c49565b828252601f1961319584613c81565b01366020840137613deb565b50506080366003190112610793576004356001600160a01b0381168103610818576020926107d19133906064359060443590602435906157d5565b5050346107935781600319360112610793576131f661600d565b61014b805460ff8116806132c1575b806132a7575b613213578380f35b61ff00191661010017905580519082907f8b77276c97a5709f0d6db52329848a254eb760ce8be80d281799f633bdb69e838280a1610133546001600160a01b0316803b15610a085783600481858094638456cb5960e01b83525af190811561329c575061328c575b505061328561448a565b3880808380f35b61329591613c49565b388161327b565b51913d9150823e3d90fd5b506132b6611945610c81614663565b61014a54101561320b565b5060ff8160081c1615613205565b50503461079357816003193601126107935760209061013f549051908152f35b50506020366003190112610793576107d16020923334600435614e43565b505034610793578160031936011261079357602090610143549051908152f35b833461081d57602036600319011261081d576004356001600160a01b03811681036107935761335a615f7f565b60ca805462010000600160b01b03191660109290921b62010000600160b01b031691909117905580f35b833461081d57602036600319011261081d5761339e615f7f565b60043561014a5580f35b505034610793578160031936011261079357602090610140549051908152f35b833461081d57602036600319011261081d576004356001600160a01b03811690819003610793576133f7615f7f565b61014780546001600160a01b031916909117905580f35b505034610793576020366003190112610793576004356001600160a01b03811690819003610a085782829160209452610144845220549051908152f35b505080600319360112610793576004356001600160a01b0381168103610a08576020926107d1913390349060243590615006565b50503461079357816003193601126107935760209060ff61014b5460081c1690519015158152f35b5050346107935760a0366003190112610793576134c26158c0565b5061014f546001600160a01b039290831633036113bb5790613553916134e93660046158e7565b916134f26158c0565b506134fb614fe4565b61350361600d565b670de0b6b3a764000061352661116561351d6116ef614663565b87519291614ab3565b04948184019080825116916135486080870193898486511661013c5492615987565b96918a999199614229565b9660208101998a51808a1161367c5750881561366b57816020918660606135d69695519301511690610134613589848254614229565b9055613599610131918254614229565b90556101335489516340c10f1960e01b81526001600160a01b03909216600483015260248201929092529384918716908290859082906044820190565b03925af1801561365f57613609575b50509661123992826115a3888895610e6e9a9b9c865161159861014e918254614433565b6020823d8211613657575b8161362160209383613c49565b8101031261081d575092826115a3888895610e6e9a9b9c95613645611239996145ca565b50959c9b5095509850508194506135e5565b3d9150613614565b508551903d90823e3d90fd5b865163f3e39b5d60e01b8152600490fd5b6044908a895191630b63f1a760e01b835260048301526024820152fd5b833461081d57602036600319011261081d576136b3615f7f565b6004356101425580f35b833461081d57602036600319011261081d57600435801515809103610793576136e4615f7f565b61014b9060ff8019835416911617905580f35b5050346107935781600319360112610793576020906107d161371a610c81614663565b90614ab3565b50506060366003190112610793576004356001600160a01b0381168103610a08576020926107d191339034906044359060243590615449565b50503461079357816003193601126107935760209061014d549051908152f35b50503461079357602036600319011261079357600435916001600160a01b038316830361081d57506107d1602092339033906148a1565b50503461079357816003193601126107935761014f5490516001600160a01b039091168152602090f35b833461081d57602036600319011261081d576004356001600160a01b0381169081900361079357613809615f7f565b61013080546001600160a01b031916909117905580f35b833461081d57602036600319011261081d5761383a615f7f565b60043561013f5580f35b505034610793578160031936011261079357602090610159549051908152f35b833461081d57602036600319011261081d576004356001600160a01b0381169081900361079357613893615f7f565b61014680546001600160a01b031916909117905580f35b6020836107d16138bb366004613b3a565b939133933493615139565b50503461079357816003193601126107935760209061018f549051908152f35b50503461079357816003193601126107935760975490516001600160a01b039091168152602090f35b505060c0366003190112610793576001600160a01b03916004358381168103610793576024358481168103610a085760843592858416840361081d5760a435958616860361081d575091602094916107d19334916064359160443591615139565b833461081d57602036600319011261081d5761398a615f7f565b60043561015a5580f35b5050346107935781600319360112610793578051630716487960e01b6020820152600481526139c8906109f2602482613c49565b9160208380518101031261081d57506107d1602080930151670de0b6b3a7640000610149540490614229565b505034610793578160031936011261079357613a0e61600d565b61015b80544310613a7c5790610c4a9161015a54430190557f0e37fda283839477a1b77e29acf8336c0e13a5daa967913df0fe5ad258c0822f6020670de0b6b3a7640000613a63610131546101595490614371565b049251838152a1610158546001600160a01b03166141d1565b815163acce20e560e01b8152600490fd5b505034610793576020366003190112610793576004359161013590815484101561081d5750602092613abe91613af8565b905491519160018060a01b039160031b1c168152f35b833461081d57602036600319011261081d57613aee615f7f565b60043561013a5580f35b8054821015613b105760005260206000200190600090565b634e487b7160e01b600052603260045260246000fd5b35906001600160a01b038216820361081857565b908160a091031261081857613b4e81613b26565b91613b5b60208301613b26565b91604081013591613b73608060608401359301613b26565b90565b604090613bb2939594929560c0820196825260208201520190606080918051845260208101516020850152604081015160408501520151910152565b565b613bb29360609296959360e08301978352602083015260408201520190606080918051845260208101516020850152604081015160408501520151910152565b908160a091031261081857613c0881613b26565b91602082013591604081013591613b736080613c2660608501613b26565b9301613b26565b8054821015613b105760005260206000209060011b0190600090565b90601f8019910116810190811067ffffffffffffffff821117613c6b57604052565b634e487b7160e01b600052604160045260246000fd5b67ffffffffffffffff8111613c6b57601f01601f191660200190565b919082608091031261081857613cb282613b26565b91602081013591613b73606060408401359301613b26565b919082608091031261081857613cdf82613b26565b91602081013591613b736060613c2660408501613b26565b908160a091031261081857613d0b81613b26565b91602082013591604081013591613b73608060608401359301613b26565b15613d3057565b60405162461bcd60e51b815260206004820152602c60248201527f46756e6374696f6e206d7573742062652063616c6c6564207468726f7567682060448201526b19195b1959d85d1958d85b1b60a21b6064820152608490fd5b15613d9157565b60405162461bcd60e51b815260206004820152602c60248201527f46756e6374696f6e206d7573742062652063616c6c6564207468726f7567682060448201526b6163746976652070726f787960a01b6064820152608490fd5b9060ff7f4910fdfa16fed3260ed0e7147f7cc6da11a60208b5b9406d12a635614ffd91435416600014613e235750613bb29150613fd7565b6040516352d1902d60e01b8152602093919291906001600160a01b038316908581600481855afa60009181613fa8575b50613eb45760405162461bcd60e51b815260048101879052602e60248201527f45524331393637557067726164653a206e657720696d706c656d656e7461746960448201526d6f6e206973206e6f74205555505360901b6064820152608490fd5b9394937fc9f76b5ec45e5cdef99837d7b6d2467235c1df8933c8ca56df5c35afa2c7d44401613f5157613ee683613fd7565b7fbc7cd75a20ee27fd9adebab32041f755214dbc6bffa90cc0225b39da2e5c2d3b600080a283511590811591613f49575b50613f2157505050565b600080613f4694613f30614079565b9481519101845af4613f406140cd565b916140fd565b50565b905038613f17565b60405162461bcd60e51b815260048101859052602960248201527f45524331393637557067726164653a20756e737570706f727465642070726f786044820152681a58589b195555525160ba1b6064820152608490fd5b90918782813d8311613fd0575b613fbf8183613c49565b8101031261081d5750519038613e53565b503d613fb5565b803b1561401e577f360894a13ba1a3210667c828492db98dca3e2076cc3735a920a3ca505d382bbc80546001600160a01b0319166001600160a01b03909216919091179055565b60405162461bcd60e51b815260206004820152602d60248201527f455243313936373a206e657720696d706c656d656e746174696f6e206973206e60448201526c1bdd08184818dbdb9d1c9858dd609a1b6064820152608490fd5b6140836027613c81565b906140916040519283613c49565b60278252660819985a5b195960ca1b6040837f416464726573733a206c6f772d6c6576656c2064656c65676174652063616c6c60208201520152565b3d156140f8573d906140de82613c81565b916140ec6040519384613c49565b82523d6000602084013e565b606090565b9192901561415f5750815115614111575090565b3b1561411a5790565b60405162461bcd60e51b815260206004820152601d60248201527f416464726573733a2063616c6c20746f206e6f6e2d636f6e74726163740000006044820152606490fd5b8251909150156141725750805190602001fd5b6040519062461bcd60e51b82528160208060048301528251908160248401526000935b8285106141b8575050604492506000838284010152601f80199101168101030190fd5b8481018201518686016044015293810193859350614195565b816141da575050565b6001600160a01b03811615614217576000808093819361022a54f16141fd6140cd565b501561420557565b6040516312171d8360e31b8152600490fd5b60405163e6c4247b60e01b8152600490fd5b9190820180921161423657565b634e487b7160e01b600052601160045260246000fd5b8051821015613b105760209160051b010190565b906000916000906101378054906000925b8284106142975750505050614293670de0b6b3a7640000916101395490614371565b0490565b90919293956142e46142d36142de6001936142d86142b58a8861424c565b516142c0818c61430a565b95906142cc8d8c613c2d565b5054614229565b61602e565b90614229565b98614229565b9401929190614271565b9190916000838201938412911290801582169115161761423657565b91906000906143388160009561432e61432582610150613af8565b939054926143bd565b9160031b1c6142ee565b60008113614347575b50509190565b61436991945061280192508094670de0b6b3a764000093849161013a54614371565b043880614341565b8181029291811591840414171561423657565b811561438e570490565b634e487b7160e01b600052601260045260246000fd5b8181039291600013801582851316918412161761423657565b6143c981610137613c2d565b505490670de0b6b3a76400009182810292818404149015171561423657613b73926144096143fc61440f93610151613af8565b90549060031b1c84614384565b92614384565b906143a4565b801561442b576142d3613b739261013154614433565b505060001990565b9190820391821161423657565b67ffffffffffffffff8111613c6b5760051b60200190565b9061446282614440565b61446f6040519182613c49565b8281528092614480601f1991614440565b0190602036910137565b610131548015613f4657610137908154916000906144a784614458565b9082905b85821061451657505060005b8481106144c5575050505050565b6144e2846144dd856144d7858761424c565b51614371565b614384565b9061013891825468010000000000000000811015613c6b5761281a816001958661450e94018155613af8565b9055016144b7565b909261455260019161452786614583565b614531878761424c565b526142d861453f8786613c2d565b505461454b888861424c565b519061602e565b9301906144ab565b6001600160a01b0316600090815261013660205260409020600181015460ff1615614217575490565b61458f90610137613c2d565b50600101546001600160a01b03166145a6816145f1565b919091156145b2575090565b60249060405190637f6e4db960e01b82526004820152fd5b5190811515820361081857565b919082604091031261081857613b736020835193016145ca565b604080516359e02dd760e01b81529291839060049082906001600160a01b03165afa91821561465757600090819361462857509190565b905061464c91925060403d8111614650575b6146448183613c49565b8101906145d7565b9091565b503d61463a565b6040513d6000823e3d90fd5b610137549061467182614458565b9160005b818110614680575050565b8061468c600192614583565b614696828761424c565b5201614675565b906146be670de0b6b3a7640000928361015754610154549243010302614384565b828110156146db5782039180836101555402049261015654020590565b50600091508190565b90916146ee614746565b92908082101561473c57839161470391614433565b931115614737578181101561472f5761471b91614433565b60011c8082101561472a575090565b905090565b505050600090565b505090565b5050505050600090565b61015254604080516359e02dd760e01b80825293929091906001600160a01b039081168284600481845afa8015614836576000948591614813575b50156147fc575061015354169080519485528085600481855afa80156147f15760009586916147ce575b50156147b75750509190565b6024925051906305e8989360e11b82526004820152fd5b9050816147e89296503d8711614650576146448183613c49565b949094386147ab565b50513d6000823e3d90fd5b6024908351906305e8989360e11b82526004820152fd5b905061482d919450833d8511614650576146448183613c49565b93909338614781565b83513d6000823e3d90fd5b1561484857565b60405162461bcd60e51b815260206004820152602b60248201527f496e697469616c697a61626c653a20636f6e7472616374206973206e6f74206960448201526a6e697469616c697a696e6760a81b6064820152608490fd5b6148ff916148ad61600d565b604051636845c44560e01b60208201526001600160a01b03928316602482015290821660448201528382166064820152476084808301919091528152906148f560a483613c49565b6101f7541661491b565b602081805181010312610818576020613b7391015180926141d1565b90613b739160008061492b614079565b93602081519101845af4613f406140cd565b6149ab9361497260009260209561495682610137613c2d565b50614962878254614229565b9055611791610131918254614229565b90546040516340c10f1960e01b81526001600160a01b039093166004840152602483019490945290948593928492909183906044820190565b039360039190911b1c6001600160a01b03165af18015614657576149cc5750565b6020813d82116149f5575b816149e460209383613c49565b8101031261081857613f46906145ca565b3d91506149d7565b61281a614a4e91614a0e84826143bd565b614a44614a1d83610150613af8565b614a308294925492838360031b1c6142ee565b919060031b91821b91600019901b19161790565b9055610151613af8565b9055565b60e08101929160c09081906001600160a01b0380614a6f83613b26565b168552614a7e60208301613b26565b16602085015260408101356040850152606081013560608501526080810135608085015260a081013560a08501520135910152565b9061013454908115614ad857613b7392614ad36142d39261013154614433565b614433565b505050670de0b6b3a764000090565b8282614af292614b0f565b90600082131561472f57613b7392614b0991614ab3565b90614384565b9091614b1e9061013154614433565b90670de0b6b3a76400009182810292818404149015171561423657613b739261440f91614371565b92614b549293949194614b0f565b81810291600091600160ff1b9183821283821416614bf8578185051490151715614be457670de0b6b3a763ffff198401938411614be457670de0b6b3a764000093848102948186041490151715614be4578315614bd0578214600019841416614bbc57500590565b634e487b7160e01b81526011600452602490fd5b634e487b7160e01b82526012600452602482fd5b634e487b7160e01b82526011600452602482fd5b634e487b7160e01b84526011600452602484fd5b61014d5480431015614c2357613b73904390614433565b50600090565b90604051614c38604082613c49565b602060018294805484520154910152565b614c5581610148613af8565b90549060031b1c9161018e91614c6b8184613c2d565b50549261018f54431015614c91575b505080821015614737576144dd90613b7393614371565b829350614ca5614cb09392614cab92613c2d565b50614c29565b614cb8565b903880614c7a565b602081519101805192670de0b6b3a76400009384039084821161423657614ce56142d89261429395614371565b9251614371565b60008061013791825492614cff84614458565b9382915b818310614d2c575050508115614d205790614d1d91614384565b91565b50506101495460011b91565b90919392614d3985614583565b9081614d45878961424c565b52614d5e614d53838861430a565b506142cc8886613c2d565b670de0b6b3a76400009081810291818304149015171561423657614da0614da6926142d885614d92600197614d9b9661602e565b9485918c614c49565b614371565b95614229565b94019190614d03565b61018f8054431015614dbe5750565b6101375460005b818110614dd85750506101905443019055565b80807f19156e9379c7bbbce8f646ce5ee30ba860b8f954717405f3d5859a6c1a21ae6060019361018e614e0e614ca58383613c2d565b90614e2c614e24614e1e85614583565b84614cb8565b938492613c2d565b50555160409182519182526020820152a201614dc5565b60a4614eef91614e666001602095614e59614fe4565b614e6161600d565b614f47565b96909560405192614e7860a085613c49565b83528583018790523360408085019182526001600160a01b03928316606086019081529383166080860190815261014f54915163e97a4d6360e01b81528651600482015260209096015160248701529151831660448601529251821660648501525181166084840152919687948593919290911690565b5af191821561465757600092614f14575b50614f0f61014e918254614229565b905590565b90916020823d8211614f3f575b81614f2e60209383613c49565b8101031261081d5750519038614f00565b3d9150614f21565b61014f546040516324524ea160e01b815293926001600160a01b0390911690600a811015614fce57604485602093819360048301528560248301525afa92831561465757600093614f9b575b508290039190565b90926020823d8211614fc6575b81614fb560209383613c49565b8101031261081d5750519138614f93565b3d9150614fa8565b634e487b7160e01b600052602160045260246000fd5b60ff61014b5460081c16614ff457565b604051631ca61d7760e01b8152600490fd5b60c490614eef92959461501f6003602096614e59614fe4565b9790966040519361503160c086613c49565b60018060a01b03938493848093168752898701528960408701523360608701521660808501521660a083015261014f5416956040519687948593637e81a82160e01b855260048501905b60a09081600180821b03918281511685526020810151602086015260408101516040860152826060820151166060860152826080820151166080860152015116910152565b60c490614eef9295946150d96005602096614e59614fe4565b979096604051936150eb60c086613c49565b60018060a01b03938493848093168752898701528960408701523360608701521660808501521660a083015261014f54169560405196879485936323ec24b560e11b8552600485019061507b565b6151c191939695615151600960209597614e59614fe4565b9890976040519361516461010086613c49565b60018060a01b0393849384808094169a8b895216898801528a604088015260608701528a60808701523360a08701521660c08501521660e083015261014f5416906040519788809481936334975a4160e01b835260048301615226565b03925af1938415614657576000946151f1575b50906151e3913090339061528a565b614f0f61014e918254614229565b90936020823d821161521e575b8161520b60209383613c49565b8101031261081d575051926151e36151d4565b3d91506151fe565b91909160e06101008201938160018060a01b03918281511685528260208201511660208601526040810151604086015260608101516060860152608081015160808601528260a08201511660a08601528260c08201511660c0860152015116910152565b6040516323b872dd60e01b60208201526001600160a01b0392831660248201529290911660448301526064820192909252613bb2916152d682608481015b03601f198101845283613c49565b61537e565b6152e56020613c81565b906152f36040519283613c49565b602082527f5361666545524332303a206c6f772d6c6576656c2063616c6c206661696c65646020830152565b1561532657565b60405162461bcd60e51b815260206004820152602a60248201527f5361666545524332303a204552433230206f7065726174696f6e20646964206e6044820152691bdd081cdd58d8d9595960b21b6064820152608490fd5b6153b491906001600160a01b03166000806153976152db565b936153a260016153ee565b60208151910182855af1613f406140cd565b805180159081156153cb575b50613bb2915061531f565b60209150829081010312610818576153e86020613bb292016145ca565b386153c0565b156153f557565b60405162461bcd60e51b815260206004820152602660248201527f416464726573733a20696e73756666696369656e742062616c616e636520666f6044820152651c8818d85b1b60d21b6064820152608490fd5b939460e46154c891615462600860209597614e59614fe4565b9890976040519261547460e085613c49565b60018060a01b03809381809416998a87528b8a88015260408701528b60608701523360808701521660a08501521660c083015261014f54169760405198899485936263744760e11b855260048501906154e7565b5af1938415614657576000946151f15750906151e3913090339061528a565b60c0908160018060a01b03918281511685526020810151602086015260408101516040860152606081015160608601528260808201511660808601528260a08201511660a0860152015116910152565b60e46155b99161555260076020959799989699614e59614fe4565b9890976040519261556460e085613c49565b60018060a01b039788938480931686528a8987015260408601528a60608601523360808601521660a08401521660c08201528461014f5416976040519889948593636b59c22f60e01b855260048501906154e7565b5af1938415614657576000946155de575b50906151e39161013354163090339061528a565b90936020823d821161560b575b816155f860209383613c49565b8101031261081d575051926151e36155ca565b3d91506155eb565b9192909261561f614fe4565b61562761600d565b6040519361563660a086613c49565b83855260208086019182523360408088019182526001600160a01b03948516606089019081529585166080890190815261014f54915163fa91a9a560e01b8152985160048a0152935160248901529051841660448801529351831660648701529051821660848601529091849060a4908290851634905af1928315614657576000936156d1575b5090613b739161013354163090339061528a565b90926020823d82116156fe575b816156eb60209383613c49565b8101031261081d57505191613b736156bd565b3d91506156de565b60c46020929461577e92615718614fe4565b61572061600d565b6040519761572f60c08a613c49565b60018060a01b0380938180941698898c528a898d015260408c01523360608c01521660808a01521660a088015261014f5416956040519687938492636426c5db60e11b8452600484019061507b565b34905af1928315614657576000936157a0575b5090613b73913090339061528a565b90926020823d82116157cd575b816157ba60209383613c49565b8101031261081d57505191613b73615791565b3d91506157ad565b939091936157e1614fe4565b6157e961600d565b604051956157f860e088613c49565b60018060a01b0380938180941696878a528660208b01528860408b015260608a01523360808a01521660a08801521660c0860152602061585660e48361014f541697604051988993849263e4e1b72960e01b845260048401906154e7565b34905af19485156146575760009561588b575b50613b739392916158829161013354163090339061528a565b3090339061528a565b90946020823d82116158b8575b816158a560209383613c49565b8101031261081d57505193613b73615869565b3d9150615898565b604051906158cf608083613c49565b60006060838281528260208201528260408201520152565b91908260a09103126108185760405161590160a082613c49565b608061593f818395803585526020810135602086015261592360408201613b26565b604086015261593460608201613b26565b606086015201613b26565b910152565b919061594f90614260565b91909261595c8385614415565b9080821115615969575050565b6044925060405191637912120160e01b835260048301526024820152fd5b92909391600091600091829661599b6158c0565b966001600160a01b03918590831680615ba7575b508261012f54168360405193636eb1769f60e11b8552168060048501523060248501526020948585604481865afa948515615b9c578495615b6d575b5084615a4c575b505050505086015115615a08575b505050929190565b90919250615a20670de0b6b3a7640000928392614371565b04808552908215615a4457615a3c920490816040860152614229565b388080615a00565b509050615a3c565b615a5a9061013054166145f1565b929092156159f257909192939b50848b615a9485670de0b6b3a7640000615a8e615a848d8d614371565b6101435490614371565b04614384565b81830181815295908b15615b635750615abf91615ab36060928d614384565b91829101528551614229565b809d5b10928315615aee575b505050615adb575b8080806159f2565b8192995052806060880152963880615ad3565b909192506024604051809481936370a0823160e01b835260048301525afa908115615b5857908b918491615b27575b5010388481615acb565b809250858092503d8311615b51575b615b408183613c49565b81010312610a08578a905138615b1d565b503d615b36565b6040513d85823e3d90fd5b915050809d615ac2565b9094508581813d8311615b95575b615b858183613c49565b81010312610b3b575193386159eb565b503d615b7b565b6040513d86823e3d90fd5b9095506020836101c35416916024604051809481936364a731e960e01b835260048301525afa8015615c1f578690615bec575b615be5915084614371565b94386159af565b506020813d8211615c17575b81615c0560209383613c49565b81010312612c0f57615be59051615bda565b3d9150615bf8565b6040513d88823e3d90fd5b92613bb29491929382511515600014615c9a57506040615c9592615c8d670de0b6b3a7640000615c5f61013b54845190614371565b04610131615c6e828254614229565b9055615c8760018060a01b036101465416918451614433565b906141d1565b0151906141d1565b6141d1565b906060615c9593615cbc60018060a01b03610146541660208301519086615cc0565b0151915b919081615ccc57505050565b61012f546040516323b872dd60e01b602082019081526001600160a01b03958616602483015292851660448201526064808201949094529283526153b49316906000908190615d1c608486613c49565b615d246152db565b94615d2f60016153ee565b519082855af1613f406140cd565b91908260c091031261081857604051615d5760c082613c49565b60a061593f818395615d6881613b26565b85526020810135602086015260408101356040860152615d8a60608201613b26565b6060860152615d9b60808201613b26565b608086015201613b26565b90615db394939291614b46565b60008112614c235790565b80615dc7614746565b919093615dd4600061469d565b9401938291615e6c575b0193846000808212615e6657505b840391818511615e2e575050818111615e1057505061015555610156554361015755565b60449250604051916306da41e560e11b835260048301526024820152fd5b9080859211615e5457604491604051916306da41e560e11b835260048301526024820152fd5b604051630fb4fd3560e11b8152600490fd5b03615dec565b90508160000390615dde565b80910360e08112610818578151926020830151926080604082015193605f1901126108185760c060405191615eae608084613c49565b606081015183526080810151602084015260a081015160408401520151606082015290565b91908260e091031261081857604051615eed60e082613c49565b60c061593f818395615efe81613b26565b8552602081013560208601526040810135604086015260608101356060860152615f2a60808201613b26565b6080860152615f3b60a08201613b26565b60a086015201613b26565b60405163a9059cbb60e01b60208201526001600160a01b0390921660248301526044820192909252613bb2916152d682606481016152c8565b60975460405163d994d6d560e01b815233600482015290602090829060249082906001600160a01b03165afa90811561465757600091615fd4575b5015615fc257565b604051631dd1b1b560e21b8152600490fd5b906020823d8211616005575b81615fed60209383613c49565b8101031261081d5750615fff906145ca565b38615fba565b3d9150615fe0565b60ff60ca5460081c1661601c57565b60405163783bb6c960e11b8152600490fd5b90670de0b6b3a76400009182810292818404149015171561423657613b7391614384565b670de0b6b3a76400001061606257565b604051632a9ffab760e21b8152600490fdfea26469706673582212201b8e0700ef0acd6bb1c7a992b1b64f16992ea3cdfe3ba28603fcb9a71c473e3464736f6c63430008140033",
  "linkReferences": {},
  "deployedLinkReferences": {},
  "devdoc": {
    "details": "Only for upgradeability testing purposes. Extends MocCACoinbase adding a new variable.",
    "events": {
      "AdminChanged(address,address)": {
        "details": "Emitted when the admin account has changed."
      },
      "BeaconUpgraded(address)": {
        "details": "Emitted when the beacon is changed."
      },
      "Initialized(uint8)": {
        "details": "Triggered when the contract has been initialized or reinitialized."
      },
      "Upgraded(address)": {
        "details": "Emitted when the implementation is upgraded."
      }
    },
    "kind": "dev",
    "methods": {
      "addPeggedToken((address,address,uint256,uint256,uint256,uint256,uint256))": {
        "details": "Note that the ema value, should consider `nextEmaCalculation`  This function is implemented in MocCoreExpansion but with this contract contexttpTokenAddress Pegged Token contract address to add      priceProviderAddress Pegged Token price provider contract address      tpCtarg Pegged Token target coverage [PREC]      tpMintFee additional fee pct applied on mint [PREC]      tpRedeemFee additional fee pct applied on redeem [PREC]      tpEma initial Pegged Token exponential moving average [PREC]      tpEmaSf Pegged Token smoothing factor [PREC]  Requirements: - the caller must have governance authorization. - tpTokenAddress must be a MocRC20, with mint, burn roles already settled  for this contract",
        "params": {
          "peggedTokenParams_": "params of Pegged Token to add"
        }
      },
      "calcCtargemaCA()": {
        "details": "qAC = nTP / pACtp      ctargemaCA = (ctargemaTP * qAC) / (qAC)",
        "returns": {
          "ctargemaCA": "[PREC]"
        }
      },
      "changeGovernor(address)": {
        "params": {
          "newGovernor_": "New governor address"
        }
      },
      "editPeggedToken((address,address,uint256,uint256,uint256,uint256,uint256))": {
        "details": "Note that the ema value, should consider `nextEmaCalculation`  This function is implemented in MocCoreExpansion but with this contract contexttpTokenAddress Pegged Token contract address to identify the token to edit      priceProviderAddress Pegged Token price provider contract address      tpCtarg Pegged Token target coverage [PREC]      tpMintFee additional fee pct applied on mint [PREC]      tpRedeemFee additional fee pct applied on redeem [PREC]      tpEma initial Pegged Token exponential moving average [PREC]      tpEmaSf Pegged Token smoothing factor [PREC]  Requirements: - the caller must have governance authorization. - the tpTokenAddress must exists",
        "params": {
          "peggedTokenParams_": "params of Pegged Token to add"
        }
      },
      "getCglb()": {
        "returns": {
          "cglob": "[PREC]"
        }
      },
      "getLckAC()": {
        "returns": {
          "lckAC": "[PREC]"
        }
      },
      "getLeverageTC()": {
        "returns": {
          "leverageTC": "[PREC]"
        }
      },
      "getPACtp(address)": {
        "params": {
          "tp_": "Pegged Token address"
        },
        "returns": {
          "_0": "price [PREC]"
        }
      },
      "getPTCac()": {
        "returns": {
          "pTCac": "[PREC]"
        }
      },
      "getTCAvailableToRedeem()": {
        "details": "because it is a view function we are not calculating the new ema,  since we are using the last ema calculation, this may differ a little from the real amount  of TC available to redeem. Consider it an approximation.",
        "returns": {
          "tcAvailableToRedeem": "[N]"
        }
      },
      "getTPAvailableToMint(address)": {
        "details": "because it is a view function we are not calculating the new ema,  since we are using the last ema calculation, this may differ a little from the real amount  of TP available to mint. Consider it an approximation.",
        "params": {
          "tp_": "Pegged Token address"
        },
        "returns": {
          "tpAvailableToMint": "[N]"
        }
      },
      "getTotalACavailable()": {
        "returns": {
          "totalACavailable": "[N]"
        }
      },
      "initialize((((address,address,address,address,address,address,uint256,uint256,uint256,uint256,uint256,uint256,uint256,uint256,uint256,uint256,uint256,uint256,uint256,uint256,address,uint256,uint256,address,address,uint256),address,address,address,uint256,address),uint256,address))": {
        "details": "governorAddress The address that will define when a change contract is authorized      pauserAddress The address that is authorized to pause this contract      tcTokenAddress Collateral Token contract address      mocFeeFlowAddress Moc Fee Flow contract address      mocAppreciationBeneficiaryAddress Moc appreciation beneficiary address      protThrld protected state threshold [PREC]      liqThrld liquidation coverage threshold [PREC]      feeRetainer pct retain on fees to be re-injected as Collateral, while paying fees with AC [PREC]      tcMintFee additional fee pct applied on mint Collateral Tokens operations [PREC]      tcRedeemFee additional fee pct applied on redeem Collateral Tokens operations [PREC]      successFee pct of the gain because Pegged Tokens devaluation that is transferred        in Collateral Asset to Moc Fee Flow during the settlement [PREC]      appreciationFactor pct of the gain because Pegged Tokens devaluation that is returned        in Pegged Tokens to appreciation beneficiary during the settlement [PREC]      bes number of blocks between settlements      tcInterestCollectorAddress TC interest collector address      tcInterestRate pct interest charged to TC holders on the total collateral in the protocol [PREC]      tcInterestPaymentBlockSpan amount of blocks to wait for next TC interest payment      maxAbsoluteOpProviderAddress max absolute operation provider address      maxOpDiffProviderAddress max operation difference provider address      decayBlockSpan number of blocks that have to elapse for the linear decay factor to be 0      emaCalculationBlockSpan amount of blocks to wait between Pegged ema calculation      mocVendors address for MocVendors contract      mocQueueAddress address for MocQueue contract      transferMaxGas max amount of gas forwarded on AC transfer      coinbaseFailedTransferFallback address who receives the funds when the coinbase unlock fails",
        "params": {
          "initializeParams_": "contract initializer params"
        }
      },
      "isLiquidationReached()": {
        "returns": {
          "_0": "true if liquidation state is reached, false otherwise"
        }
      },
      "liqRedeemTP(address)": {
        "params": {
          "tp_": "Pegged Token address"
        },
        "returns": {
          "qACRedeemed": "amount of AC sent to sender"
        }
      },
      "liqRedeemTPto(address,address)": {
        "params": {
          "recipient_": "address who receives the AC",
          "tp_": "Pegged Token address"
        },
        "returns": {
          "qACRedeemed": "amount of AC sent to `recipient_`"
        }
      },
      "makeStoppable()": {
        "details": "Should be called through governance"
      },
      "makeUnstoppable()": {
        "details": "Should be called through governance"
      },
      "maxQACToMintTP()": {
        "returns": {
          "maxQAC": "minimum regarding maxAbsoluteOperation and maxOperationalDifference"
        }
      },
      "maxQACToRedeemTP()": {
        "returns": {
          "maxQAC": "minimum regarding maxAbsoluteOperation and maxOperationalDifference"
        }
      },
      "mintTC(uint256)": {
        "details": "any extra value, not spent on TC nor fees, will be return to sender",
        "params": {
          "qTC_": "amount of Collateral Token to mint"
        },
        "returns": {
          "operId": "Identifier to track the Operation lifecycle"
        }
      },
      "mintTCViaVendor(uint256,address)": {
        "details": "any extra value, not spent on TC nor fees, will be return to sender",
        "params": {
          "qTC_": "amount of Collateral Token to mint",
          "vendor_": "address who receives a markup"
        },
        "returns": {
          "operId": "Identifier to track the Operation lifecycle"
        }
      },
      "mintTCandTP(address,uint256)": {
        "params": {
          "qTP_": "amount of Pegged Token to mint",
          "tp_": "Pegged Token address"
        },
        "returns": {
          "operId": "Identifier to track the Operation lifecycle"
        }
      },
      "mintTCandTPViaVendor(address,uint256,address)": {
        "params": {
          "qTP_": "amount of Pegged Token to mint",
          "tp_": "Pegged Token address",
          "vendor_": "address who receives a markup"
        },
        "returns": {
          "operId": "Identifier to track the Operation lifecycle"
        }
      },
      "mintTCandTPto(address,uint256,address)": {
        "params": {
          "qTP_": "amount of Pegged Token to mint",
          "recipient_": "address who receives the Collateral Token and Pegged Token",
          "tp_": "Pegged Token address"
        },
        "returns": {
          "operId": "Identifier to track the Operation lifecycle"
        }
      },
      "mintTCandTPtoViaVendor(address,uint256,address,address)": {
        "params": {
          "qTP_": "amount of Pegged Token to mint",
          "recipient_": "address who receives the Collateral Token and Pegged Token",
          "tp_": "Pegged Token address",
          "vendor_": "address who receives a markup"
        },
        "returns": {
          "operId": "Identifier to track the Operation lifecycle"
        }
      },
      "mintTCto(uint256,address)": {
        "details": "any extra value, not spent on TC nor fees, will be return to sender",
        "params": {
          "qTC_": "amount of Collateral Token to mint",
          "recipient_": "address who receives the Collateral Token"
        },
        "returns": {
          "operId": "Identifier to track the Operation lifecycle"
        }
      },
      "mintTCtoViaVendor(uint256,address,address)": {
        "details": "any extra value, not spent on TC nor fees, will be return to sender",
        "params": {
          "qTC_": "amount of Collateral Token to mint",
          "recipient_": "address who receives the Collateral Token",
          "vendor_": "address who receives a markup"
        },
        "returns": {
          "operId": "Identifier to track the Operation lifecycle"
        }
      },
      "mintTP(address,uint256)": {
        "details": "any extra value, not spent on TP nor fees, will be return to sender",
        "params": {
          "qTP_": "amount of Pegged Token to mint",
          "tp_": "Pegged Token address to mint"
        },
        "returns": {
          "operId": "Identifier to track the Operation lifecycle"
        }
      },
      "mintTPViaVendor(address,uint256,address)": {
        "details": "any extra value, not spent on TP nor fees, will be return to sender",
        "params": {
          "qTP_": "amount of Pegged Token to mint",
          "tp_": "Pegged Token address",
          "vendor_": "address who receives a markup"
        },
        "returns": {
          "operId": "Identifier to track the Operation lifecycle"
        }
      },
      "mintTPto(address,uint256,address)": {
        "details": "any extra value, not spent on TP nor fees, will be return to sender",
        "params": {
          "qTP_": "amount of Pegged Token to mint",
          "recipient_": "address who receives the Pegged Token",
          "tp_": "Pegged Token address to mint"
        },
        "returns": {
          "operId": "Identifier to track the Operation lifecycle"
        }
      },
      "mintTPtoViaVendor(address,uint256,address,address)": {
        "details": "any extra value, not spent on TP nor fees, will be return to sender",
        "params": {
          "qTP_": "amount of Pegged Token to mint",
          "recipient_": "address who receives the Pegged Token",
          "tp_": "Pegged Token address to mint",
          "vendor_": "address who receives a markup"
        },
        "returns": {
          "operId": "Identifier to track the Operation lifecycle"
        }
      },
      "pause()": {
        "details": "Should only be called by the pauser and when it is stoppable"
      },
      "proxiableUUID()": {
        "details": "Implementation of the ERC1822 {proxiableUUID} function. This returns the storage slot used by the implementation. It is used to validate the implementation's compatibility when performing an upgrade. IMPORTANT: A proxy pointing at a proxiable contract should not be considered proxiable itself, because this risks bricking a proxy that upgrades to it, by delegating to itself until out of gas. Thus it is critical that this function revert if invoked through a proxy. This is guaranteed by the `notDelegated` modifier."
      },
      "redeemTC(uint256,uint256)": {
        "params": {
          "qACmin_": "minimum amount of Collateral Asset that sender expects to receive",
          "qTC_": "amount of Collateral Token to redeem"
        },
        "returns": {
          "operId": "Identifier to track the Operation lifecycle"
        }
      },
      "redeemTCViaVendor(uint256,uint256,address)": {
        "params": {
          "qACmin_": "minimum amount of Collateral Asset that sender expects to receive",
          "qTC_": "amount of Collateral Token to redeem",
          "vendor_": "address who receives a markup"
        },
        "returns": {
          "operId": "Identifier to track the Operation lifecycle"
        }
      },
      "redeemTCandTP(address,uint256,uint256,uint256)": {
        "params": {
          "qACmin_": "Minimum amount of Collateral Asset that the sender expects to receive",
          "qTC_": "Maximum amount of Collateral Token to redeem",
          "qTP_": "Maximum amount of Pegged Token to redeem",
          "tp_": "Pegged Token address"
        },
        "returns": {
          "operId": "Identifier to track the Operation lifecycle"
        }
      },
      "redeemTCandTPViaVendor(address,uint256,uint256,uint256,address)": {
        "params": {
          "qACmin_": "Minimum amount of Collateral Asset that the sender expects to receive",
          "qTC_": "Maximum amount of Collateral Token to redeem",
          "qTP_": "Maximum amount of Pegged Token to redeem",
          "tp_": "Pegged Token address",
          "vendor_": "Address who receives a markup"
        },
        "returns": {
          "operId": "Identifier to track the Operation lifecycle"
        }
      },
      "redeemTCandTPto(address,uint256,uint256,uint256,address)": {
        "params": {
          "qACmin_": "Minimum amount of Collateral Asset that `recipient_` expects to receive",
          "qTC_": "Maximum amount of Collateral Token to redeem",
          "qTP_": "Maximum amount of Pegged Token to redeem",
          "recipient_": "Address who receives the Collateral Asset",
          "tp_": "Pegged Token address"
        },
        "returns": {
          "operId": "Identifier to track the Operation lifecycle"
        }
      },
      "redeemTCandTPtoViaVendor(address,uint256,uint256,uint256,address,address)": {
        "params": {
          "qACmin_": "Minimum amount of Collateral Asset that `recipient_` expects to receive",
          "qTC_": "Maximum amount of Collateral Token to redeem",
          "qTP_": "Maximum amount of Pegged Token to redeem",
          "recipient_": "Address who receives the Collateral Asset",
          "tp_": "Pegged Token address",
          "vendor_": "Address who receives a markup"
        },
        "returns": {
          "operId": "Identifier to track the Operation lifecycle"
        }
      },
      "redeemTCto(uint256,uint256,address)": {
        "params": {
          "qACmin_": "minimum amount of Collateral Asset that `recipient_` expects to receive",
          "qTC_": "amount of Collateral Token to redeem",
          "recipient_": "address who receives the Collateral Asset"
        },
        "returns": {
          "operId": "Identifier to track the Operation lifecycle"
        }
      },
      "redeemTCtoViaVendor(uint256,uint256,address,address)": {
        "params": {
          "qACmin_": "minimum amount of Collateral Asset that `recipient_` expects to receive",
          "qTC_": "amount of Collateral Token to redeem",
          "recipient_": "address who receives the Collateral Asset",
          "vendor_": "address who receives a markup"
        },
        "returns": {
          "operId": "Identifier to track the Operation lifecycle"
        }
      },
      "redeemTP(address,uint256,uint256)": {
        "params": {
          "qACmin_": "minimum amount of Collateral Asset that sender expects to receive",
          "qTP_": "amount of Pegged Token to redeem",
          "tp_": "Pegged Token address to redeem"
        },
        "returns": {
          "operId": "Identifier to track the Operation lifecycle"
        }
      },
      "redeemTPViaVendor(address,uint256,uint256,address)": {
        "params": {
          "qACmin_": "minimum amount of Collateral Asset that sender expects to receive",
          "qTP_": "amount of Pegged Token to redeem",
          "tp_": "Pegged Token address to redeem",
          "vendor_": "address who receives a markup"
        },
        "returns": {
          "operId": "Identifier to track the Operation lifecycle"
        }
      },
      "redeemTPto(address,uint256,uint256,address)": {
        "params": {
          "qACmin_": "minimum amount of Collateral Asset that `recipient_` expects to receive",
          "qTP_": "amount of Pegged Token to redeem",
          "recipient_": "address who receives the Collateral Asset",
          "tp_": "Pegged Token address to redeem"
        },
        "returns": {
          "operId": "Identifier to track the Operation lifecycle"
        }
      },
      "redeemTPtoViaVendor(address,uint256,uint256,address,address)": {
        "params": {
          "qACmin_": "minimum amount of Collateral Asset that `recipient_` expects to receive",
          "qTP_": "amount of Pegged Token to redeem",
          "recipient_": "address who receives the Collateral Asset",
          "tp_": "Pegged Token address to redeem",
          "vendor_": "address who receives a markup"
        },
        "returns": {
          "operId": "Identifier to track the Operation lifecycle"
        }
      },
      "setAppreciationFactor(uint256)": {
        "details": "sets appreciation Factor value.",
        "params": {
          "appreciationFactor_": "pct of the gain because Pegged Tokens devaluation that is returned in Pegged Tokens to appreciation beneficiary during the settlement [PREC]"
        }
      },
      "setBes(uint256)": {
        "details": "bns is not automatically updated, you have to wait until next settlement to be made : bns = block.number + bes*",
        "params": {
          "bes_": "number of blocks between settlements"
        }
      },
      "setDecayBlockSpan(uint256)": {
        "details": "sets flux capacitor decay block span",
        "params": {
          "decayBlockSpan_": "flux capacitor decay block span"
        }
      },
      "setEmaCalculationBlockSpan(uint256)": {
        "details": "nextEmaCalculation is not automatically updated, you have to wait until next  EMA calculation to be made : nextEmaCalculation = block.number + emaCalculationBlockSpan*",
        "params": {
          "blockSpan_": "Defines how many blocks should pass between EMA calculations"
        }
      },
      "setFeeRetainer(uint256)": {
        "details": "sets the fee pct to be retainer on AC fees payments as AC re-injection.",
        "params": {
          "feeRetainer_": "pct retain on fees to be re-injected as Collateral, while paying fees with AC [PREC] 0% = 0; 1% = 10 ** 16; 100% = 10 ** 18"
        }
      },
      "setFeeTokenAddress(address)": {
        "details": "sets Fee Token contract address",
        "params": {
          "mocFeeTokenAddress_": "Fee Token new contract address"
        }
      },
      "setFeeTokenPct(uint256)": {
        "details": "sets the fee applied on the top of the operation`s fee when using Fee Token as fee payment method.",
        "params": {
          "feeTokenPct_": "pct applied on the top of the operation`s fee when using Fee Token  as fee payment method [PREC]  e.g. if tcMintFee = 1%, FeeTokenPct = 50% => qFeeToken = 0.5%  0% = 0; 1% = 10 ** 16; 100% = 10 ** 18"
        }
      },
      "setFeeTokenPriceProviderAddress(address)": {
        "details": "sets Fee Token price provider contract address",
        "params": {
          "mocFeeTokenPriceProviderAddress_": "Fee Token price provider new contract address"
        }
      },
      "setLiqEnabled(bool)": {
        "details": "enables and disables the liquidation mechanism.",
        "params": {
          "liqEnabled_": "is liquidation enabled"
        }
      },
      "setLiqThrld(uint256)": {
        "details": "sets the value of the liq threshold configuration param",
        "params": {
          "liqThrld_": "liquidation threshold"
        }
      },
      "setMaxAbsoluteOpProviderAddress(address)": {
        "details": "sets max absolute operation provider address",
        "params": {
          "maxAbsoluteOpProviderAddress_": "max absolute operation provider address"
        }
      },
      "setMaxOpDiffProviderAddress(address)": {
        "details": "sets max operation difference provider address",
        "params": {
          "maxOpDiffProviderAddress_": "max operation difference provider address"
        }
      },
      "setMintTCandTPFee(uint256)": {
        "details": "sets the fee charged when mint Collateral Token and Pegged Token in one operation.",
        "params": {
          "mintTCandTPFee_": "additional fee pct applied on mint Collateral Token and Pegged Token [PREC] 0% = 0; 1% = 10 ** 16; 100% = 10 ** 18"
        }
      },
      "setMocAppreciationBeneficiaryAddress(address)": {
        "details": "sets Moc Appreciation Beneficiary Address",
        "params": {
          "mocAppreciationBeneficiaryAddress_": "moc Appreciation Beneficiary new address"
        }
      },
      "setMocCoreExpansion(address)": {
        "details": "sets Moc Core Expansion contract address",
        "params": {
          "mocCoreExpansion_": "moc core expansion new contract address"
        }
      },
      "setMocFeeFlowAddress(address)": {
        "details": "sets Moc Fee Flow contract address",
        "params": {
          "mocFeeFlowAddress_": "moc Fee Flow new contract address"
        }
      },
      "setMocQueue(address)": {
        "details": "sets Moc Queue contract address",
        "params": {
          "mocQueueAddress_": "moc queue new contract address"
        }
      },
      "setMocVendors(address)": {
        "details": "sets Moc Vendors contract address",
        "params": {
          "mocVendors_": "moc Vendors new contract address"
        }
      },
      "setPauser(address)": {
        "details": "Should be called through governance",
        "params": {
          "newPauser_": "Address of the new pauser"
        }
      },
      "setProtThrld(uint256)": {
        "details": "sets the value of the protected threshold configuration param",
        "params": {
          "protThrld_": "coverage protected state threshold [PREC]"
        }
      },
      "setRedeemTCandTPFee(uint256)": {
        "details": "sets the fee charged when redeem Collateral Token and Pegged Token in one operation.",
        "params": {
          "redeemTCandTPFee_": "additional fee pct applied on redeem Collateral Token and Pegged Token [PREC] 0% = 0; 1% = 10 ** 16; 100% = 10 ** 18"
        }
      },
      "setSuccessFee(uint256)": {
        "details": "sets success Fee value.",
        "params": {
          "successFee_": "pct of the gain because Pegged Tokens devaluation that is transferred in Collateral Asset to Moc Fee Flow during the settlement [PREC]"
        }
      },
      "setSwapTCforTPFee(uint256)": {
        "details": "sets the fee charged when swap Collateral Token for a Pegged Token.",
        "params": {
          "swapTCforTPFee_": "additional fee pct applied on swap Collateral Token for a Pegged Token [PREC] 0% = 0; 1% = 10 ** 16; 100% = 10 ** 18"
        }
      },
      "setSwapTPforTCFee(uint256)": {
        "details": "sets the fee charged when swap a Pegged Token for Collateral Token.",
        "params": {
          "swapTPforTCFee_": "additional fee pct applied on swap a Pegged Token for Collateral Token [PREC] 0% = 0; 1% = 10 ** 16; 100% = 10 ** 18"
        }
      },
      "setSwapTPforTPFee(uint256)": {
        "details": "sets the fee charged when swap a Pegged Token for another Pegged Token.",
        "params": {
          "swapTPforTPFee_": "additional fee pct applied on swap a Pegged Token for another Pegged Token [PREC] 0% = 0; 1% = 10 ** 16; 100% = 10 ** 18"
        }
      },
      "setTCInterestCollectorAddress(address)": {
        "details": "sets TC interest collector address",
        "params": {
          "tcInterestCollectorAddress_": "TC interest collector address"
        }
      },
      "setTCInterestPaymentBlockSpan(uint256)": {
        "details": "sets TC interest payment block spannextTCInterestPayment is not automatically updated, you have to wait until next  interest payment to be made : nextTCInterestPayment = block.number + tcInterestPaymentBlockSpan",
        "params": {
          "tcInterestPaymentBlockSpan_": "amount of blocks to wait for next TC interest payment"
        }
      },
      "setTCInterestRate(uint256)": {
        "details": "sets TC interest rate",
        "params": {
          "tcInterestRate_": "pct interest charged to TC holders on the total collateral in the protocol [PREC]"
        }
      },
      "setTcMintFee(uint256)": {
        "details": "sets the fee charged on Token Collateral mint.",
        "params": {
          "tcMintFee_": "addition fee pct applied on Collateral Tokens mint [PREC] 0% = 0; 1% = 10 ** 16; 100% = 10 ** 18"
        }
      },
      "setTcRedeemFee(uint256)": {
        "details": "sets the fee charged on Token Collateral redeem.",
        "params": {
          "tcRedeemFee_": "addition fee pct applied on Collateral Tokens redeem [PREC] 0% = 0; 1% = 10 ** 16; 100% = 10 ** 18"
        }
      },
      "setTransferMAxGas(uint256)": {
        "params": {
          "transferMaxGas_": "new max amount of gas forwarded on AC transfer"
        }
      },
      "swapTCforTP(address,uint256,uint256)": {
        "params": {
          "qTC_": "amount of Collateral Token to swap",
          "qTPmin_": "minimum amount of Pegged Token that the sender expects to receive",
          "tp_": "Pegged Token address"
        },
        "returns": {
          "operId": "Identifier to track the Operation lifecycle"
        }
      },
      "swapTCforTPViaVendor(address,uint256,uint256,address)": {
        "params": {
          "qTC_": "amount of Collateral Token to swap",
          "qTPmin_": "minimum amount of Pegged Token that the sender expects to receive",
          "tp_": "Pegged Token address",
          "vendor_": "address who receives a markup"
        },
        "returns": {
          "operId": "Identifier to track the Operation lifecycle"
        }
      },
      "swapTCforTPto(address,uint256,uint256,address)": {
        "params": {
          "qTC_": "amount of Collateral to swap",
          "qTPmin_": "minimum amount of Pegged Token that `recipient_` expects to receive",
          "recipient_": "address who receives the Pegged Token",
          "tp_": "Pegged Token address"
        },
        "returns": {
          "operId": "Identifier to track the Operation lifecycle"
        }
      },
      "swapTCforTPtoViaVendor(address,uint256,uint256,address,address)": {
        "params": {
          "qTC_": "amount of Collateral to swap",
          "qTPmin_": "minimum amount of Pegged Token that `recipient_` expects to receive",
          "recipient_": "address who receives the Pegged Token",
          "tp_": "Pegged Token address",
          "vendor_": "address who receives a markup"
        },
        "returns": {
          "operId": "Identifier to track the Operation lifecycle"
        }
      },
      "swapTPforTC(address,uint256,uint256)": {
        "params": {
          "qTCmin_": "minimum amount of Collateral Token that the sender expects to receive",
          "qTP_": "amount of owned Pegged Token to swap",
          "tp_": "Pegged Token address"
        },
        "returns": {
          "operId": "Identifier to track the Operation lifecycle"
        }
      },
      "swapTPforTCViaVendor(address,uint256,uint256,address)": {
        "params": {
          "qTCmin_": "minimum amount of Collateral Token that the sender expects to receive",
          "qTP_": "amount of owned Pegged Token to swap",
          "tp_": "Pegged Token address",
          "vendor_": "address who receives a markup"
        },
        "returns": {
          "operId": "Identifier to track the Operation lifecycle"
        }
      },
      "swapTPforTCto(address,uint256,uint256,address)": {
        "params": {
          "qTCmin_": "minimum amount of Collateral Token that `recipient_` expects to receive",
          "qTP_": "amount of owned Pegged Token to swap",
          "recipient_": "address who receives the Collateral Token",
          "tp_": "Pegged Token address"
        },
        "returns": {
          "operId": "Identifier to track the Operation lifecycle"
        }
      },
      "swapTPforTCtoViaVendor(address,uint256,uint256,address,address)": {
        "params": {
          "qTCmin_": "minimum amount of Collateral Token that `recipient_` expects to receive",
          "qTP_": "amount of owned Pegged Token to swap",
          "recipient_": "address who receives the Collateral Token",
          "tp_": "Pegged Token address",
          "vendor_": "address who receives a markup"
        },
        "returns": {
          "operId": "Identifier to track the Operation lifecycle"
        }
      },
      "swapTPforTP(address,address,uint256,uint256)": {
        "params": {
          "qTP_": "amount of owned Pegged Token to swap",
          "qTPmin_": "minimum amount of target Pegged Token that the sender expects to receive",
          "tpFrom_": "owned Pegged Token address",
          "tpTo_": "target Pegged Token address"
        },
        "returns": {
          "operId": "Identifier to track the Operation lifecycle"
        }
      },
      "swapTPforTPViaVendor(address,address,uint256,uint256,address)": {
        "params": {
          "qTP_": "amount of owned Pegged Token to swap",
          "qTPmin_": "minimum amount of target Pegged Token that the sender expects to receive",
          "tpFrom_": "owned Pegged Token address",
          "tpTo_": "target Pegged Token address",
          "vendor_": "address who receives a markup"
        },
        "returns": {
          "operId": "Identifier to track the Operation lifecycle"
        }
      },
      "swapTPforTPto(address,address,uint256,uint256,address)": {
        "params": {
          "qTP_": "amount of owned Pegged Token to swap",
          "qTPmin_": "minimum amount of target Pegged Token that `recipient_` expects to receive",
          "recipient_": "address who receives the target Pegged Token",
          "tpFrom_": "owned Pegged Token address",
          "tpTo_": "target Pegged Token address"
        },
        "returns": {
          "operId": "Identifier to track the Operation lifecycle"
        }
      },
      "swapTPforTPtoViaVendor(address,address,uint256,uint256,address,address)": {
        "params": {
          "qTP_": "amount of owned Pegged Token to swap",
          "qTPmin_": "minimum amount of target Pegged Token that `recipient_` expects to receive",
          "recipient_": "address who receives the target Pegged Token",
          "tpFrom_": "owned Pegged Token address",
          "tpTo_": "target Pegged Token address",
          "vendor_": "address who receives a markup"
        },
        "returns": {
          "operId": "Identifier to track the Operation lifecycle"
        }
      },
      "tcHoldersInterestPayment()": {
        "details": "-   The amount is not differential, it's a snapshot of the moment it's executed  -   It does not check coverage"
      },
      "unlockACInPending(address,uint256)": {
        "details": "this function must be overridden by the AC implementation",
        "params": {
          "owner_": "funds owner, address to be returned to",
          "qACToUnlock_": "AC amount to be unlocked"
        }
      },
      "unlockTCInPending(address,uint256)": {
        "params": {
          "owner_": "funds owner, address to be returned to",
          "qTCToUnlock_": "TC amount to be unlocked"
        }
      },
      "unlockTPInPending(address,address,uint256)": {
        "params": {
          "owner_": "funds owner, address to be returned to",
          "qTPToUnlock_": "TP amount to be unlocked",
          "tpToken_": "TP to be unlocked"
        }
      },
      "updateEmas()": {
        "details": "All price provider prices must be available, fails if not"
      },
      "upgradeTo(address)": {
        "custom:oz-upgrades-unsafe-allow-reachable": "delegatecall",
        "details": "Upgrade the implementation of the proxy to `newImplementation`. Calls {_authorizeUpgrade}. Emits an {Upgraded} event."
      },
      "upgradeToAndCall(address,bytes)": {
        "custom:oz-upgrades-unsafe-allow-reachable": "delegatecall",
        "details": "Upgrade the implementation of the proxy to `newImplementation`, and subsequently execute the function call encoded in `data`. Calls {_authorizeUpgrade}. Emits an {Upgraded} event."
      }
    },
    "title": "MocCoinbaseWithExpansionMock",
    "version": 1
  },
  "evm": {
    "bytecode": {
      "linkReferences": {},
      "opcodes": "PUSH1 0xA0 DUP1 PUSH1 0x40 MSTORE CALLVALUE PUSH3 0xE1 JUMPI ADDRESS PUSH1 0x80 MSTORE PUSH1 0x0 SLOAD SWAP1 PUSH1 0xFF DUP3 PUSH1 0x8 SHR AND PUSH3 0x8F JUMPI POP PUSH1 0xFF DUP1 DUP3 AND SUB PUSH3 0x53 JUMPI JUMPDEST PUSH1 0x40 MLOAD PUSH2 0x60AA SWAP1 DUP2 PUSH3 0xE7 DUP3 CODECOPY PUSH1 0x80 MLOAD DUP2 DUP2 DUP2 PUSH2 0x29FB ADD MSTORE DUP2 DUP2 PUSH2 0x2BAC ADD MSTORE PUSH2 0x313C ADD MSTORE RETURN JUMPDEST PUSH1 0xFF SWAP1 DUP2 NOT AND OR PUSH1 0x0 SSTORE PUSH32 0x7F26B83FF96E1F2B6A682F133852F6798A09C465DA95921460CEFB3847402498 PUSH1 0x20 PUSH1 0x40 MLOAD PUSH1 0xFF DUP2 MSTORE LOG1 CODESIZE PUSH3 0x2C JUMP JUMPDEST PUSH3 0x461BCD PUSH1 0xE5 SHL DUP2 MSTORE PUSH1 0x20 PUSH1 0x4 DUP3 ADD MSTORE PUSH1 0x27 PUSH1 0x24 DUP3 ADD MSTORE PUSH32 0x496E697469616C697A61626C653A20636F6E747261637420697320696E697469 PUSH1 0x44 DUP3 ADD MSTORE PUSH7 0x616C697A696E67 PUSH1 0xC8 SHL PUSH1 0x64 DUP3 ADD MSTORE PUSH1 0x84 SWAP1 REVERT JUMPDEST PUSH1 0x0 DUP1 REVERT INVALID PUSH1 0x40 PUSH1 0x80 DUP2 MSTORE PUSH1 0x4 CALLDATASIZE LT ISZERO PUSH2 0x2D JUMPI JUMPDEST POP CALLDATASIZE ISZERO PUSH2 0x1B JUMPI PUSH1 0x0 DUP1 REVERT JUMPDEST PUSH2 0x131 PUSH2 0x29 CALLVALUE DUP3 SLOAD PUSH2 0x4229 JUMP JUMPDEST SWAP1 SSTORE STOP JUMPDEST PUSH1 0x0 SWAP1 PUSH1 0xE0 DUP3 CALLDATALOAD DUP2 SHR SWAP1 DUP2 PUSH4 0x1DDE6EF EQ PUSH2 0x3AD4 JUMPI DUP2 PUSH4 0x1F1B684 EQ PUSH2 0x3A8D JUMPI DUP2 PUSH4 0x579188F EQ PUSH2 0x39F4 JUMPI DUP2 PUSH4 0x7164879 EQ PUSH2 0x3994 JUMPI DUP2 PUSH4 0x73763B9 EQ PUSH2 0x3970 JUMPI DUP2 PUSH4 0xB69640D EQ PUSH2 0x390F JUMPI DUP2 PUSH4 0xC340A24 EQ PUSH2 0x38E6 JUMPI DUP2 PUSH4 0xC36D897 EQ PUSH2 0x38C6 JUMPI DUP2 PUSH4 0xD10EBE9 EQ PUSH2 0x38AA JUMPI DUP2 PUSH4 0xD6AC463 EQ PUSH2 0x3864 JUMPI DUP2 PUSH4 0xDB49656 EQ PUSH2 0x3844 JUMPI DUP2 PUSH4 0xE0A8FD2 EQ PUSH2 0x3820 JUMPI DUP2 PUSH4 0xF1E5E2B EQ PUSH2 0x37DA JUMPI DUP2 PUSH4 0x13ED7BA5 EQ PUSH2 0x37B0 JUMPI DUP2 PUSH4 0x17937F9B EQ PUSH2 0x3779 JUMPI DUP2 PUSH4 0x1867E2F5 EQ PUSH2 0x3759 JUMPI DUP2 PUSH4 0x1AF4B229 EQ PUSH2 0x3720 JUMPI DUP2 PUSH4 0x1FB0DDA0 EQ PUSH2 0x36F7 JUMPI DUP2 PUSH4 0x1FE6A7AD EQ PUSH2 0x36BD JUMPI DUP2 PUSH4 0x2069F753 EQ PUSH2 0x3699 JUMPI DUP2 PUSH4 0x235E81CF EQ PUSH2 0x34A7 JUMPI DUP2 PUSH4 0x23B98CDE EQ PUSH2 0x347F JUMPI DUP2 PUSH4 0x243D56A5 EQ PUSH2 0x344B JUMPI DUP2 PUSH4 0x24FFABA3 EQ PUSH2 0x340E JUMPI DUP2 PUSH4 0x27EAB2A1 EQ PUSH2 0x33C8 JUMPI DUP2 PUSH4 0x2A20D57D EQ PUSH2 0x33A8 JUMPI DUP2 PUSH4 0x2C43BD3B EQ PUSH2 0x3384 JUMPI DUP2 PUSH4 0x2D88AF4A EQ PUSH2 0x332D JUMPI DUP2 PUSH4 0x2DED50F0 EQ PUSH2 0x330D JUMPI DUP2 PUSH4 0x31F64EC2 EQ PUSH2 0x32EF JUMPI DUP2 PUSH4 0x333431FD EQ PUSH2 0x32CF JUMPI DUP2 PUSH4 0x33421C38 EQ PUSH2 0x31DC JUMPI DUP2 PUSH4 0x34246862 EQ PUSH2 0x31A1 JUMPI DUP2 PUSH4 0x3659CFE6 EQ PUSH2 0x3107 JUMPI DUP2 PUSH4 0x3915EDCB EQ PUSH2 0x30D6 JUMPI DUP2 PUSH4 0x391BF6CF EQ PUSH2 0x2FBE JUMPI DUP2 PUSH4 0x3B0D5FFF EQ PUSH2 0x2F7C JUMPI DUP2 PUSH4 0x3BC4AC0A EQ PUSH2 0x2F58 JUMPI DUP2 PUSH4 0x3CFB09EF EQ PUSH2 0x2F12 JUMPI DUP2 PUSH4 0x3DBC50A9 EQ PUSH2 0x2ED0 JUMPI DUP2 PUSH4 0x3F4BA83A EQ PUSH2 0x2E55 JUMPI DUP2 PUSH4 0x4017936A EQ PUSH2 0x2E24 JUMPI DUP2 PUSH4 0x407F0E34 EQ PUSH2 0x2E04 JUMPI DUP2 PUSH4 0x466B8934 EQ PUSH2 0x2DCD JUMPI DUP2 PUSH4 0x471A80E3 EQ PUSH2 0x2D9A JUMPI DUP2 PUSH4 0x4A587124 EQ PUSH2 0x2D7E JUMPI DUP2 PUSH4 0x4AF3A6FC EQ PUSH2 0x2CFF JUMPI DUP2 PUSH4 0x4B746001 EQ PUSH2 0x2CB5 JUMPI DUP2 PUSH4 0x4C6AF8E8 EQ PUSH2 0x2C81 JUMPI DUP2 PUSH4 0x4D977E78 EQ PUSH2 0x2C61 JUMPI DUP2 PUSH4 0x4E1F907A EQ PUSH2 0x2C37 JUMPI DUP2 PUSH4 0x4F0F27EE EQ PUSH2 0x2C17 JUMPI DUP2 PUSH4 0x4F1EF286 EQ PUSH2 0x2B23 JUMPI DUP2 PUSH4 0x51A9CEDC EQ PUSH2 0x2AE1 JUMPI DUP2 PUSH4 0x5210570C EQ PUSH2 0x2ABB JUMPI DUP2 PUSH4 0x52D1902D EQ PUSH2 0x29E6 JUMPI DUP2 PUSH4 0x52E18F8F EQ PUSH2 0x29CB JUMPI DUP2 PUSH4 0x533A4BEA EQ PUSH2 0x299A JUMPI DUP2 PUSH4 0x53B16D17 EQ PUSH2 0x2955 JUMPI DUP2 PUSH4 0x543AEB48 EQ PUSH2 0x2931 JUMPI DUP2 PUSH4 0x57271F4D EQ PUSH2 0x2901 JUMPI DUP2 PUSH4 0x5860EE63 EQ PUSH2 0x28E1 JUMPI DUP2 PUSH4 0x58F32DE9 EQ PUSH2 0x286F JUMPI DUP2 PUSH4 0x5C616A73 EQ PUSH2 0x2674 JUMPI DUP2 PUSH4 0x5C975ABB EQ PUSH2 0x264D JUMPI DUP2 PUSH4 0x5CFBE578 EQ PUSH2 0x262D JUMPI DUP2 PUSH4 0x5E2A6065 EQ PUSH2 0x2613 JUMPI DUP2 PUSH4 0x5ECE17EF EQ PUSH2 0x25BE JUMPI DUP2 PUSH4 0x60009E0B EQ PUSH2 0x2594 JUMPI DUP2 PUSH4 0x647846A5 EQ PUSH2 0x256A JUMPI DUP2 PUSH4 0x64EC230A EQ PUSH2 0x2546 JUMPI DUP2 PUSH4 0x662013F4 EQ PUSH2 0x2529 JUMPI DUP2 PUSH4 0x68274357 EQ PUSH2 0x2500 JUMPI DUP2 PUSH4 0x68748A42 EQ PUSH2 0x24E5 JUMPI DUP2 PUSH4 0x68A09E13 EQ PUSH2 0x24C7 JUMPI DUP2 PUSH4 0x69D9C2F2 EQ PUSH2 0x24AC JUMPI DUP2 PUSH4 0x6B5488DF EQ PUSH2 0x248C JUMPI DUP2 PUSH4 0x6F30471F EQ PUSH2 0x246C JUMPI DUP2 PUSH4 0x70713468 EQ PUSH2 0x2448 JUMPI DUP2 PUSH4 0x735D3960 EQ PUSH2 0x2402 JUMPI DUP2 PUSH4 0x73E28AF9 EQ PUSH2 0x23DE JUMPI DUP2 PUSH4 0x7554FFFD EQ PUSH2 0x23BE JUMPI DUP2 PUSH4 0x76228055 EQ PUSH2 0x239E JUMPI DUP2 PUSH4 0x7636BB09 EQ PUSH2 0x2382 JUMPI DUP2 PUSH4 0x7750BA0C EQ PUSH2 0x235E JUMPI DUP2 PUSH4 0x79873A26 EQ PUSH2 0x2343 JUMPI DUP2 PUSH4 0x79F9A91C EQ PUSH2 0x2323 JUMPI DUP2 PUSH4 0x7A193C31 EQ PUSH2 0x2303 JUMPI DUP2 PUSH4 0x7A4FF1D9 EQ PUSH2 0x22DF JUMPI DUP2 PUSH4 0x7A727FE8 EQ PUSH2 0x22BF JUMPI DUP2 PUSH4 0x7AF5758C EQ PUSH2 0x229B JUMPI DUP2 PUSH4 0x7CBA2383 EQ PUSH2 0x2277 JUMPI DUP2 PUSH4 0x7D8E0314 EQ PUSH2 0x2238 JUMPI DUP2 PUSH4 0x7F01C715 EQ PUSH2 0x220E JUMPI DUP2 PUSH4 0x7F13B998 EQ PUSH2 0x21D8 JUMPI DUP2 PUSH4 0x7F4A4FE0 EQ PUSH2 0x21B8 JUMPI DUP2 PUSH4 0x826FCD58 EQ PUSH2 0x2195 JUMPI DUP2 PUSH4 0x8456CB59 EQ PUSH2 0x2100 JUMPI DUP2 PUSH4 0x85BF9593 EQ PUSH2 0x20BA JUMPI DUP2 PUSH4 0x883D21CB EQ PUSH2 0x1FF9 JUMPI DUP2 PUSH4 0x89FD503E EQ PUSH2 0x1FDF JUMPI DUP2 PUSH4 0x8ACC2011 EQ PUSH2 0x1FC5 JUMPI DUP2 PUSH4 0x8CFA4241 EQ PUSH2 0x1FA5 JUMPI DUP2 PUSH4 0x8D7A72F3 EQ PUSH2 0x1F85 JUMPI DUP2 PUSH4 0x8E2BDB86 EQ PUSH2 0x1F5B JUMPI DUP2 PUSH4 0x8F1A383A EQ PUSH2 0x1F33 JUMPI DUP2 PUSH4 0x960556F3 EQ PUSH2 0x1EF1 JUMPI DUP2 PUSH4 0x963DCC98 EQ PUSH2 0x19A1 JUMPI DUP2 PUSH4 0x9853C35A EQ PUSH2 0x1977 JUMPI DUP2 PUSH4 0x9ABB14C9 EQ PUSH2 0x1958 JUMPI DUP2 PUSH4 0x9AD6659D EQ PUSH2 0x1922 JUMPI DUP2 PUSH4 0x9BEA71A4 EQ PUSH2 0x18E0 JUMPI DUP2 PUSH4 0x9CABFC00 EQ PUSH2 0x1894 JUMPI DUP2 PUSH4 0x9FD0506D EQ PUSH2 0x1867 JUMPI DUP2 PUSH4 0xA8E9AC30 EQ PUSH2 0x1844 JUMPI DUP2 PUSH4 0xAD4E666D EQ PUSH2 0x1665 JUMPI DUP2 PUSH4 0xAEA038DC EQ PUSH2 0x1645 JUMPI DUP2 PUSH4 0xAEB41E69 EQ PUSH2 0x1628 JUMPI DUP2 PUSH4 0xB3903B39 EQ PUSH2 0x15F8 JUMPI DUP2 PUSH4 0xB4434C32 EQ PUSH2 0x143A JUMPI DUP2 PUSH4 0xB5E9EA8C EQ PUSH2 0x1410 JUMPI DUP2 PUSH4 0xB9FA6413 EQ PUSH2 0x13F0 JUMPI DUP2 PUSH4 0xBB4872DE EQ PUSH2 0x13CC JUMPI DUP2 PUSH4 0xBC4E55B2 EQ PUSH2 0x12FE JUMPI DUP2 PUSH4 0xBECACA6B EQ PUSH2 0x12DA JUMPI DUP2 PUSH4 0xBF1AD8B1 EQ PUSH2 0x12BE JUMPI DUP2 PUSH4 0xBFE42621 EQ PUSH2 0x10C3 JUMPI DUP2 PUSH4 0xC00F538D EQ PUSH2 0x109F JUMPI DUP2 PUSH4 0xC039CC69 EQ PUSH2 0x105D JUMPI DUP2 PUSH4 0xC0D8E15E EQ PUSH2 0x1015 JUMPI DUP2 PUSH4 0xC4CB376C EQ PUSH2 0xFF1 JUMPI DUP2 PUSH4 0xC84353C9 EQ PUSH2 0xFCD JUMPI DUP2 PUSH4 0xCC75B048 EQ PUSH2 0xFB1 JUMPI DUP2 PUSH4 0xCF351C1D EQ PUSH2 0xF6B JUMPI DUP2 PUSH4 0xD1A0FAA0 EQ PUSH2 0xF52 JUMPI DUP2 PUSH4 0xD471849B EQ PUSH2 0xF10 JUMPI DUP2 PUSH4 0xD6AF11DA EQ PUSH2 0xED4 JUMPI DUP2 PUSH4 0xD8233ECC EQ PUSH2 0xEA2 JUMPI DUP2 PUSH4 0xD87AAB6F EQ PUSH2 0xE82 JUMPI DUP2 PUSH4 0xD8C69AEC EQ PUSH2 0xD6C JUMPI DUP2 PUSH4 0xD8DB6F5A EQ PUSH2 0xD26 JUMPI DUP2 PUSH4 0xDB796072 EQ PUSH2 0xCE9 JUMPI DUP2 PUSH4 0xDD9928D8 EQ PUSH2 0xCCE JUMPI DUP2 PUSH4 0xDDB6D190 EQ PUSH2 0xC91 JUMPI DUP2 PUSH4 0xDE8D520A EQ PUSH2 0xC5E JUMPI DUP2 PUSH4 0xE2C5E990 EQ PUSH2 0xBFD JUMPI DUP2 PUSH4 0xE4012945 EQ PUSH2 0xBCA JUMPI DUP2 PUSH4 0xE4C0AAF4 EQ PUSH2 0xB85 JUMPI DUP2 PUSH4 0xE6A683E0 EQ PUSH2 0xB3F JUMPI DUP2 PUSH4 0xE6B1627C EQ PUSH2 0xAFB JUMPI DUP2 PUSH4 0xE7C25978 EQ PUSH2 0xAD6 JUMPI DUP2 PUSH4 0xE8859A15 EQ PUSH2 0xAB9 JUMPI DUP2 PUSH4 0xEA70B99E EQ PUSH2 0xA99 JUMPI DUP2 PUSH4 0xEE1F438F EQ PUSH2 0xA6F JUMPI DUP2 PUSH4 0xEEDD8A40 EQ PUSH2 0xA36 JUMPI DUP2 PUSH4 0xF13F4054 EQ PUSH2 0xA0C JUMPI DUP2 PUSH4 0xF26114AA EQ PUSH2 0x9A7 JUMPI POP DUP1 PUSH4 0xF2808778 EQ PUSH2 0x983 JUMPI DUP1 PUSH4 0xF30B5614 EQ PUSH2 0x964 JUMPI DUP1 PUSH4 0xF375CFBA EQ PUSH2 0x945 JUMPI DUP1 PUSH4 0xF3772886 EQ PUSH2 0x91C JUMPI DUP1 PUSH4 0xF88B1434 EQ PUSH2 0x8B3 JUMPI DUP1 PUSH4 0xFA6E83BD EQ PUSH2 0x894 JUMPI DUP1 PUSH4 0xFADDA424 EQ PUSH2 0x820 JUMPI DUP1 PUSH4 0xFB3BFCEA EQ PUSH2 0x7D8 JUMPI DUP1 PUSH4 0xFD80FA77 EQ PUSH2 0x7B6 JUMPI DUP1 PUSH4 0xFDA70F8B EQ PUSH2 0x797 JUMPI PUSH4 0xFE6B92C1 EQ PUSH2 0x775 JUMPI POP PUSH2 0xF JUMP JUMPDEST CALLVALUE PUSH2 0x793 JUMPI DUP2 PUSH1 0x3 NOT CALLDATASIZE ADD SLT PUSH2 0x793 JUMPI PUSH1 0x20 SWAP1 PUSH2 0x135 SLOAD SWAP1 MLOAD SWAP1 DUP2 MSTORE RETURN JUMPDEST POP DUP1 REVERT JUMPDEST POP CALLVALUE PUSH2 0x793 JUMPI DUP2 PUSH1 0x3 NOT CALLDATASIZE ADD SLT PUSH2 0x793 JUMPI PUSH1 0x20 SWAP1 PUSH2 0x13C SLOAD SWAP1 MLOAD SWAP1 DUP2 MSTORE RETURN JUMPDEST POP PUSH2 0x7D1 PUSH1 0x20 SWAP3 PUSH2 0x7C8 CALLDATASIZE PUSH1 0x4 PUSH2 0x3CF7 JUMP JUMPDEST SWAP4 SWAP3 SWAP1 SWAP3 PUSH2 0x57D5 JUMP JUMPDEST SWAP1 MLOAD SWAP1 DUP2 MSTORE RETURN JUMPDEST POP SWAP1 PUSH1 0x60 CALLDATASIZE PUSH1 0x3 NOT ADD SLT PUSH2 0x81D JUMPI POP PUSH1 0x1 PUSH1 0x1 PUSH1 0xA0 SHL SUB SWAP1 PUSH1 0x24 CALLDATALOAD DUP3 DUP2 AND DUP2 SUB PUSH2 0x818 JUMPI PUSH1 0x44 CALLDATALOAD SWAP3 DUP4 AND DUP4 SUB PUSH2 0x818 JUMPI PUSH1 0x20 SWAP3 PUSH2 0x7D1 SWAP2 CALLVALUE PUSH1 0x4 CALLDATALOAD PUSH2 0x4E43 JUMP JUMPDEST PUSH1 0x0 DUP1 REVERT JUMPDEST DUP1 REVERT JUMPDEST POP SWAP1 CALLVALUE PUSH2 0x81D JUMPI PUSH1 0x20 CALLDATASIZE PUSH1 0x3 NOT ADD SLT PUSH2 0x81D JUMPI POP PUSH1 0x1 PUSH1 0x1 PUSH1 0xA0 SHL SUB PUSH1 0x4 CALLDATALOAD DUP2 DUP2 AND DUP2 SUB PUSH2 0x818 JUMPI PUSH2 0x85E PUSH2 0x856 PUSH1 0x1 SWAP3 PUSH2 0x455A JUMP JUMPDEST PUSH2 0x137 PUSH2 0x3C2D JUMP JUMPDEST POP ADD SLOAD AND PUSH2 0x86B DUP2 PUSH2 0x45F1 JUMP JUMPDEST SWAP2 SWAP1 SWAP2 ISZERO PUSH2 0x87D JUMPI POP PUSH1 0x20 SWAP2 MLOAD SWAP1 DUP2 MSTORE RETURN JUMPDEST PUSH1 0x24 SWAP1 DUP4 MLOAD SWAP1 PUSH4 0x7F6E4DB9 PUSH1 0xE0 SHL DUP3 MSTORE PUSH1 0x4 DUP3 ADD MSTORE REVERT JUMPDEST POP CALLVALUE PUSH2 0x793 JUMPI DUP2 PUSH1 0x3 NOT CALLDATASIZE ADD SLT PUSH2 0x793 JUMPI PUSH1 0x20 SWAP1 PUSH2 0x13A SLOAD SWAP1 MLOAD SWAP1 DUP2 MSTORE RETURN JUMPDEST POP SWAP1 CALLVALUE PUSH2 0x81D JUMPI PUSH1 0x20 CALLDATASIZE PUSH1 0x3 NOT ADD SLT PUSH2 0x81D JUMPI POP PUSH1 0x4 CALLDATALOAD SWAP1 PUSH1 0x1 PUSH1 0x1 PUSH1 0xA0 SHL SUB DUP3 AND DUP3 SUB PUSH2 0x818 JUMPI PUSH2 0x7D1 PUSH2 0x90E PUSH1 0x20 SWAP4 PUSH2 0x8F7 PUSH2 0x8EF PUSH2 0x4CEC JUMP JUMPDEST SWAP2 SWAP1 SWAP3 PUSH2 0x455A JUMP JUMPDEST SWAP2 PUSH2 0x916 PUSH2 0x905 DUP5 DUP5 PUSH2 0x424C JUMP JUMPDEST MLOAD SWAP5 DUP6 SWAP4 PUSH2 0x4260 JUMP JUMPDEST SWAP6 SWAP1 SWAP5 PUSH2 0x4C49 JUMP JUMPDEST SWAP1 PUSH2 0x4B46 JUMP JUMPDEST POP CALLVALUE PUSH2 0x793 JUMPI DUP2 PUSH1 0x3 NOT CALLDATASIZE ADD SLT PUSH2 0x793 JUMPI PUSH2 0x22B SLOAD SWAP1 MLOAD PUSH1 0x1 PUSH1 0x1 PUSH1 0xA0 SHL SUB SWAP1 SWAP2 AND DUP2 MSTORE PUSH1 0x20 SWAP1 RETURN JUMPDEST POP CALLVALUE PUSH2 0x793 JUMPI DUP2 PUSH1 0x3 NOT CALLDATASIZE ADD SLT PUSH2 0x793 JUMPI PUSH1 0x20 SWAP1 PUSH2 0x141 SLOAD SWAP1 MLOAD SWAP1 DUP2 MSTORE RETURN JUMPDEST POP CALLVALUE PUSH2 0x793 JUMPI DUP2 PUSH1 0x3 NOT CALLDATASIZE ADD SLT PUSH2 0x793 JUMPI PUSH1 0x20 SWAP1 PUSH2 0x131 SLOAD SWAP1 MLOAD SWAP1 DUP2 MSTORE RETURN JUMPDEST DUP3 CALLVALUE PUSH2 0x81D JUMPI PUSH1 0x20 CALLDATASIZE PUSH1 0x3 NOT ADD SLT PUSH2 0x81D JUMPI PUSH2 0x99D PUSH2 0x5F7F JUMP JUMPDEST PUSH1 0x4 CALLDATALOAD PUSH2 0x13C SSTORE DUP1 RETURN JUMPDEST SWAP1 POP CALLVALUE PUSH2 0xA08 JUMPI CALLDATASIZE PUSH1 0x3 NOT ADD SLT PUSH2 0x793 JUMPI PUSH2 0xA04 SWAP1 PUSH2 0x9C4 PUSH2 0x5F7F JUMP JUMPDEST MLOAD PUSH4 0x79308A55 PUSH1 0xE1 SHL PUSH1 0x20 DUP3 ADD MSTORE PUSH2 0x9F2 DUP2 PUSH2 0x9E4 PUSH1 0x4 PUSH1 0x24 DUP4 ADD PUSH2 0x4A52 JUMP JUMPDEST SUB PUSH1 0x1F NOT DUP2 ADD DUP4 MSTORE DUP3 PUSH2 0x3C49 JUMP JUMPDEST PUSH2 0x1F7 SLOAD PUSH1 0x1 PUSH1 0x1 PUSH1 0xA0 SHL SUB AND PUSH2 0x491B JUMP JUMPDEST POP DUP1 RETURN JUMPDEST DUP3 DUP1 REVERT JUMPDEST POP POP CALLVALUE PUSH2 0x793 JUMPI DUP2 PUSH1 0x3 NOT CALLDATASIZE ADD SLT PUSH2 0x793 JUMPI PUSH2 0x130 SLOAD SWAP1 MLOAD PUSH1 0x1 PUSH1 0x1 PUSH1 0xA0 SHL SUB SWAP1 SWAP2 AND DUP2 MSTORE PUSH1 0x20 SWAP1 RETURN JUMPDEST POP POP PUSH1 0x60 CALLDATASIZE PUSH1 0x3 NOT ADD SLT PUSH2 0x818 JUMPI PUSH1 0x4 CALLDATALOAD PUSH1 0x1 PUSH1 0x1 PUSH1 0xA0 SHL SUB DUP2 AND DUP2 SUB PUSH2 0x818 JUMPI PUSH1 0x20 SWAP3 PUSH2 0x7D1 SWAP2 CALLER SWAP1 CALLVALUE SWAP1 PUSH1 0x44 CALLDATALOAD SWAP1 PUSH1 0x24 CALLDATALOAD SWAP1 PUSH2 0x5537 JUMP JUMPDEST POP POP CALLVALUE PUSH2 0x793 JUMPI DUP2 PUSH1 0x3 NOT CALLDATASIZE ADD SLT PUSH2 0x793 JUMPI PUSH2 0x152 SLOAD SWAP1 MLOAD PUSH1 0x1 PUSH1 0x1 PUSH1 0xA0 SHL SUB SWAP1 SWAP2 AND DUP2 MSTORE PUSH1 0x20 SWAP1 RETURN JUMPDEST POP POP CALLVALUE PUSH2 0x793 JUMPI DUP2 PUSH1 0x3 NOT CALLDATASIZE ADD SLT PUSH2 0x793 JUMPI PUSH1 0x20 SWAP1 PUSH2 0x22A SLOAD SWAP1 MLOAD SWAP1 DUP2 MSTORE RETURN JUMPDEST POP POP CALLVALUE PUSH2 0x793 JUMPI DUP2 PUSH1 0x3 NOT CALLDATASIZE ADD SLT PUSH2 0x793 JUMPI PUSH1 0x20 SWAP1 PUSH2 0x7D1 PUSH2 0x4C0C JUMP JUMPDEST POP POP CALLVALUE PUSH2 0x793 JUMPI DUP2 PUSH1 0x3 NOT CALLDATASIZE ADD SLT PUSH2 0x793 JUMPI PUSH1 0x20 SWAP1 PUSH1 0xFF PUSH2 0x14B SLOAD AND SWAP1 MLOAD SWAP1 ISZERO ISZERO DUP2 MSTORE RETURN JUMPDEST POP POP CALLVALUE PUSH2 0x793 JUMPI PUSH1 0x20 CALLDATASIZE PUSH1 0x3 NOT ADD SLT PUSH2 0x793 JUMPI PUSH1 0x4 CALLDATALOAD PUSH2 0x18E DUP1 SLOAD DUP3 LT ISZERO PUSH2 0xB3B JUMPI SWAP1 PUSH2 0xB27 SWAP2 PUSH2 0x3C2D JUMP JUMPDEST POP PUSH1 0x1 DUP2 SLOAD SWAP2 ADD SLOAD DUP3 MLOAD SWAP2 DUP3 MSTORE PUSH1 0x20 DUP3 ADD MSTORE RETURN JUMPDEST DUP4 DUP1 REVERT JUMPDEST DUP4 CALLVALUE PUSH2 0x81D JUMPI PUSH1 0x20 CALLDATASIZE PUSH1 0x3 NOT ADD SLT PUSH2 0x81D JUMPI PUSH1 0x4 CALLDATALOAD PUSH1 0x1 PUSH1 0x1 PUSH1 0xA0 SHL SUB DUP2 AND SWAP1 DUP2 SWAP1 SUB PUSH2 0x818 JUMPI PUSH2 0xB6E PUSH2 0x5F7F JUMP JUMPDEST PUSH2 0x1F7 DUP1 SLOAD PUSH1 0x1 PUSH1 0x1 PUSH1 0xA0 SHL SUB NOT AND SWAP1 SWAP2 OR SWAP1 SSTORE DUP1 RETURN JUMPDEST DUP4 CALLVALUE PUSH2 0x81D JUMPI PUSH1 0x20 CALLDATASIZE PUSH1 0x3 NOT ADD SLT PUSH2 0x81D JUMPI PUSH1 0x4 CALLDATALOAD PUSH1 0x1 PUSH1 0x1 PUSH1 0xA0 SHL SUB DUP2 AND SWAP1 DUP2 SWAP1 SUB PUSH2 0x793 JUMPI PUSH2 0xBB4 PUSH2 0x5F7F JUMP JUMPDEST PUSH1 0x1 PUSH1 0x1 PUSH1 0x60 SHL SUB PUSH1 0xA0 SHL PUSH1 0x97 SLOAD AND OR PUSH1 0x97 SSTORE DUP1 RETURN JUMPDEST POP POP PUSH1 0x60 CALLDATASIZE PUSH1 0x3 NOT ADD SLT PUSH2 0x818 JUMPI PUSH1 0x44 CALLDATALOAD PUSH1 0x1 PUSH1 0x1 PUSH1 0xA0 SHL SUB DUP2 AND DUP2 SUB PUSH2 0x818 JUMPI PUSH1 0x20 SWAP3 PUSH2 0x7D1 SWAP2 PUSH1 0x24 CALLDATALOAD PUSH1 0x4 CALLDATALOAD PUSH2 0x5613 JUMP JUMPDEST DUP3 DUP5 CALLVALUE PUSH2 0x81D JUMPI PUSH1 0x60 CALLDATASIZE PUSH1 0x3 NOT ADD SLT PUSH2 0x81D JUMPI PUSH1 0x1 PUSH1 0x1 PUSH1 0xA0 SHL SUB PUSH1 0x4 CALLDATALOAD DUP2 DUP2 AND DUP2 SUB PUSH2 0x818 JUMPI PUSH1 0x24 CALLDATALOAD SWAP2 DUP1 DUP4 AND DUP4 SUB PUSH2 0xB3B JUMPI PUSH2 0x14F SLOAD AND CALLER SUB PUSH2 0xC4D JUMPI SWAP1 PUSH2 0xC4A SWAP2 PUSH1 0x44 CALLDATALOAD SWAP2 PUSH2 0x5F46 JUMP JUMPDEST DUP1 RETURN JUMPDEST DUP4 MLOAD PUSH4 0x19748477 PUSH1 0xE0 SHL DUP2 MSTORE PUSH1 0x4 SWAP1 REVERT JUMPDEST POP POP CALLVALUE PUSH2 0x793 JUMPI DUP2 PUSH1 0x3 NOT CALLDATASIZE ADD SLT PUSH2 0x793 JUMPI PUSH1 0x20 SWAP1 PUSH2 0x7D1 PUSH2 0xC86 PUSH2 0xC81 PUSH2 0x4663 JUMP JUMPDEST PUSH2 0x4260 JUMP JUMPDEST SWAP1 POP PUSH2 0x131 SLOAD PUSH2 0x4433 JUMP JUMPDEST POP POP CALLVALUE PUSH2 0x793 JUMPI PUSH1 0x20 CALLDATASIZE PUSH1 0x3 NOT ADD SLT PUSH2 0x793 JUMPI PUSH1 0x4 CALLDATALOAD PUSH1 0x1 PUSH1 0x1 PUSH1 0xA0 SHL SUB DUP2 AND SWAP1 DUP2 SWAP1 SUB PUSH2 0x818 JUMPI DUP3 DUP3 SWAP2 PUSH1 0x20 SWAP5 MSTORE PUSH2 0x145 DUP5 MSTORE KECCAK256 SLOAD SWAP1 MLOAD SWAP1 DUP2 MSTORE RETURN JUMPDEST PUSH1 0x20 DUP4 PUSH2 0x7D1 PUSH2 0xCDF CALLDATASIZE PUSH1 0x4 PUSH2 0x3CCA JUMP JUMPDEST SWAP3 SWAP1 SWAP2 CALLVALUE SWAP2 PUSH2 0x5006 JUMP JUMPDEST SWAP1 POP CALLVALUE PUSH2 0xA08 JUMPI CALLDATASIZE PUSH1 0x3 NOT ADD SLT PUSH2 0x793 JUMPI PUSH2 0xA04 SWAP1 PUSH2 0xD06 PUSH2 0x5F7F JUMP JUMPDEST MLOAD PUSH4 0x6DBCB039 PUSH1 0xE1 SHL PUSH1 0x20 DUP3 ADD MSTORE PUSH2 0x9F2 DUP2 PUSH2 0x9E4 PUSH1 0x4 PUSH1 0x24 DUP4 ADD PUSH2 0x4A52 JUMP JUMPDEST DUP4 CALLVALUE PUSH2 0x81D JUMPI PUSH1 0x20 CALLDATASIZE PUSH1 0x3 NOT ADD SLT PUSH2 0x81D JUMPI PUSH1 0x4 CALLDATALOAD PUSH1 0x1 PUSH1 0x1 PUSH1 0xA0 SHL SUB DUP2 AND SWAP1 DUP2 SWAP1 SUB PUSH2 0x818 JUMPI PUSH2 0xD55 PUSH2 0x5F7F JUMP JUMPDEST PUSH2 0x152 DUP1 SLOAD PUSH1 0x1 PUSH1 0x1 PUSH1 0xA0 SHL SUB NOT AND SWAP1 SWAP2 OR SWAP1 SSTORE DUP1 RETURN JUMPDEST DUP4 SWAP2 POP CALLVALUE PUSH2 0x793 JUMPI CALLDATASIZE PUSH1 0x3 NOT ADD SLT PUSH2 0x81D JUMPI POP PUSH2 0xD87 PUSH2 0x58C0 JUMP JUMPDEST POP PUSH2 0x14F SLOAD PUSH1 0x1 PUSH1 0x1 PUSH1 0xA0 SHL SUB SWAP2 SWAP1 DUP3 AND CALLER SUB PUSH2 0xE72 JUMPI PUSH2 0xE37 SWAP2 PUSH2 0xDAD CALLDATASIZE PUSH1 0x4 PUSH2 0x5ED3 JUMP JUMPDEST SWAP2 PUSH2 0xDB6 PUSH2 0x58C0 JUMP JUMPDEST POP PUSH2 0xDBF PUSH2 0x4FE4 JUMP JUMPDEST PUSH2 0xDC7 PUSH2 0x600D JUMP JUMPDEST PUSH2 0xE13 PUSH2 0xE04 DUP3 MLOAD PUSH4 0x3DAD0BD7 PUSH1 0xE1 SHL PUSH1 0x20 DUP3 ADD MSTORE PUSH2 0xDE9 PUSH1 0x24 DUP3 ADD DUP8 PUSH2 0x54E7 JUMP JUMPDEST PUSH1 0xE4 DUP2 MSTORE PUSH2 0xDF9 PUSH2 0x104 DUP3 PUSH2 0x3C49 JUMP JUMPDEST DUP5 PUSH2 0x1F7 SLOAD AND PUSH2 0x491B JUMP JUMPDEST PUSH1 0x20 DUP1 DUP3 MLOAD DUP4 ADD ADD SWAP2 ADD PUSH2 0x5E78 JUMP JUMPDEST DUP7 DUP5 DUP8 PUSH1 0x80 DUP5 SWAP9 SWAP7 SWAP12 SWAP6 SWAP8 SWAP11 ADD MLOAD AND SWAP2 DUP9 PUSH1 0xC0 DUP2 PUSH1 0xA0 DUP5 ADD MLOAD AND SWAP3 ADD MLOAD AND SWAP3 PUSH2 0x5C2A JUMP JUMPDEST PUSH1 0x4 CALLDATALOAD SWAP4 DUP1 DUP6 AND DUP1 SWAP6 SUB PUSH2 0x818 JUMPI PUSH1 0x84 CALLDATALOAD SWAP1 DUP2 AND DUP2 SUB PUSH2 0x818 JUMPI PUSH2 0xE6E SWAP5 PUSH2 0xE64 SWAP2 DUP9 PUSH1 0x44 CALLDATALOAD SUB SWAP2 PUSH2 0x5F46 JUMP JUMPDEST MLOAD SWAP5 DUP6 SWAP5 DUP6 PUSH2 0x3BB4 JUMP JUMPDEST SUB SWAP1 RETURN JUMPDEST MLOAD PUSH4 0x19748477 PUSH1 0xE0 SHL DUP2 MSTORE PUSH1 0x4 SWAP1 REVERT JUMPDEST POP POP CALLVALUE PUSH2 0x793 JUMPI DUP2 PUSH1 0x3 NOT CALLDATASIZE ADD SLT PUSH2 0x793 JUMPI PUSH1 0x20 SWAP1 PUSH2 0x155 SLOAD SWAP1 MLOAD SWAP1 DUP2 MSTORE RETURN JUMPDEST DUP3 DUP5 DUP2 PUSH1 0x3 NOT CALLDATASIZE ADD SLT PUSH2 0x81D JUMPI POP PUSH1 0x24 CALLDATALOAD SWAP1 PUSH1 0x1 PUSH1 0x1 PUSH1 0xA0 SHL SUB DUP3 AND DUP3 SUB PUSH2 0x818 JUMPI PUSH2 0x7D1 PUSH1 0x20 SWAP3 CALLER CALLVALUE PUSH1 0x4 CALLDATALOAD PUSH2 0x4E43 JUMP JUMPDEST POP POP CALLVALUE PUSH2 0x793 JUMPI DUP2 PUSH1 0x3 NOT CALLDATASIZE ADD SLT PUSH2 0x793 JUMPI PUSH1 0x20 SWAP1 PUSH2 0x7D1 PUSH2 0xEF6 PUSH1 0x1 PUSH2 0x469D JUMP JUMPDEST PUSH2 0xF0A PUSH2 0xF03 DUP3 DUP5 PUSH2 0x43A4 JUMP JUMPDEST SWAP2 DUP4 PUSH2 0x42EE JUMP JUMPDEST SWAP2 PUSH2 0x46E4 JUMP JUMPDEST POP POP PUSH1 0x60 CALLDATASIZE PUSH1 0x3 NOT ADD SLT PUSH2 0x818 JUMPI PUSH1 0x1 PUSH1 0x1 PUSH1 0xA0 SHL SUB SWAP2 PUSH1 0x4 CALLDATALOAD SWAP1 DUP4 DUP3 AND DUP3 SUB PUSH2 0x818 JUMPI PUSH1 0x44 CALLDATALOAD SWAP4 DUP5 AND DUP5 SUB PUSH2 0x818 JUMPI PUSH1 0x20 SWAP4 PUSH2 0x7D1 SWAP3 CALLVALUE SWAP1 PUSH1 0x24 CALLDATALOAD SWAP1 PUSH2 0x50C0 JUMP JUMPDEST DUP4 CALLVALUE PUSH2 0x81D JUMPI DUP1 PUSH1 0x3 NOT CALLDATASIZE ADD SLT PUSH2 0x81D JUMPI PUSH2 0xC4A PUSH2 0x4DAF JUMP JUMPDEST DUP4 CALLVALUE PUSH2 0x81D JUMPI PUSH1 0x20 CALLDATASIZE PUSH1 0x3 NOT ADD SLT PUSH2 0x81D JUMPI PUSH1 0x4 CALLDATALOAD PUSH1 0x1 PUSH1 0x1 PUSH1 0xA0 SHL SUB DUP2 AND SWAP1 DUP2 SWAP1 SUB PUSH2 0x818 JUMPI PUSH2 0xF9A PUSH2 0x5F7F JUMP JUMPDEST PUSH2 0x12F DUP1 SLOAD PUSH1 0x1 PUSH1 0x1 PUSH1 0xA0 SHL SUB NOT AND SWAP1 SWAP2 OR SWAP1 SSTORE DUP1 RETURN JUMPDEST PUSH1 0x20 DUP4 PUSH2 0x7D1 PUSH2 0xFC2 CALLDATASIZE PUSH1 0x4 PUSH2 0x3C9D JUMP JUMPDEST SWAP3 SWAP1 CALLER SWAP3 CALLVALUE SWAP3 PUSH2 0x5537 JUMP JUMPDEST DUP4 CALLVALUE PUSH2 0x81D JUMPI PUSH1 0x20 CALLDATASIZE PUSH1 0x3 NOT ADD SLT PUSH2 0x81D JUMPI PUSH2 0xFE7 PUSH2 0x5F7F JUMP JUMPDEST PUSH1 0x4 CALLDATALOAD PUSH2 0x14C SSTORE DUP1 RETURN JUMPDEST DUP4 CALLVALUE PUSH2 0x81D JUMPI PUSH1 0x20 CALLDATASIZE PUSH1 0x3 NOT ADD SLT PUSH2 0x81D JUMPI PUSH2 0x100B PUSH2 0x5F7F JUMP JUMPDEST PUSH1 0x4 CALLDATALOAD PUSH2 0x22A SSTORE DUP1 RETURN JUMPDEST POP POP PUSH1 0x80 CALLDATASIZE PUSH1 0x3 NOT ADD SLT PUSH2 0x793 JUMPI PUSH1 0x1 PUSH1 0x1 PUSH1 0xA0 SHL SUB SWAP2 PUSH1 0x4 CALLDATALOAD SWAP1 DUP4 DUP3 AND DUP3 SUB PUSH2 0x818 JUMPI PUSH1 0x24 CALLDATALOAD SWAP4 DUP5 AND DUP5 SUB PUSH2 0x818 JUMPI PUSH1 0x20 SWAP4 PUSH2 0x7D1 SWAP3 CALLER SWAP2 CALLVALUE SWAP2 PUSH1 0x64 CALLDATALOAD SWAP2 PUSH1 0x44 CALLDATALOAD SWAP2 PUSH2 0x5139 JUMP JUMPDEST POP POP CALLVALUE PUSH2 0x793 JUMPI DUP2 PUSH1 0x3 NOT CALLDATASIZE ADD SLT PUSH2 0x793 JUMPI PUSH1 0x20 SWAP1 PUSH2 0x7D1 PUSH2 0x1092 PUSH2 0x1099 PUSH2 0x1086 PUSH2 0xC81 PUSH2 0x4663 JUMP JUMPDEST PUSH2 0x131 SWAP4 SWAP2 SWAP4 SLOAD PUSH2 0x4433 JUMP JUMPDEST SWAP2 DUP3 PUSH2 0x4433 JUMP JUMPDEST SWAP1 PUSH2 0x602E JUMP JUMPDEST DUP4 CALLVALUE PUSH2 0x81D JUMPI PUSH1 0x20 CALLDATASIZE PUSH1 0x3 NOT ADD SLT PUSH2 0x81D JUMPI PUSH2 0x10B9 PUSH2 0x5F7F JUMP JUMPDEST PUSH1 0x4 CALLDATALOAD PUSH2 0x13D SSTORE DUP1 RETURN JUMPDEST DUP3 DUP5 CALLVALUE PUSH2 0x81D JUMPI PUSH1 0xA0 CALLDATASIZE PUSH1 0x3 NOT ADD SLT PUSH2 0x81D JUMPI PUSH2 0x10DE PUSH2 0x58C0 JUMP JUMPDEST POP PUSH2 0x14F SLOAD PUSH1 0x1 PUSH1 0x1 PUSH1 0xA0 SHL SUB SWAP1 DUP2 AND CALLER SUB PUSH2 0x12AD JUMPI PUSH2 0x10FF CALLDATASIZE PUSH1 0x4 PUSH2 0x58E7 JUMP JUMPDEST SWAP2 PUSH2 0x1108 PUSH2 0x58C0 JUMP JUMPDEST POP PUSH2 0x1111 PUSH2 0x4FE4 JUMP JUMPDEST PUSH2 0x1119 PUSH2 0x600D JUMP JUMPDEST PUSH2 0x1121 PUSH2 0x4DAF JUMP JUMPDEST PUSH2 0x1134 PUSH2 0x112C PUSH2 0x4CEC JUMP JUMPDEST DUP2 SWAP3 SWAP2 PUSH2 0x5944 JUMP JUMPDEST SWAP1 SWAP2 PUSH2 0x1143 DUP3 DUP5 DUP9 MLOAD SWAP4 PUSH2 0x4AE7 JUMP JUMPDEST DUP2 DUP2 LT PUSH2 0x1290 JUMPI POP POP PUSH8 0xDE0B6B3A7640000 SWAP2 PUSH2 0x1165 PUSH2 0x116B SWAP3 DUP8 MLOAD SWAP3 PUSH2 0x4AB3 JUMP JUMPDEST SWAP1 PUSH2 0x4371 JUMP JUMPDEST DIV SWAP2 DUP3 ISZERO PUSH2 0x127F JUMPI SWAP4 DUP4 SWAP5 DUP2 PUSH2 0x11A4 SWAP6 ADD SWAP1 DUP1 DUP3 MLOAD AND SWAP2 PUSH2 0x1199 PUSH1 0x80 DUP10 ADD SWAP4 DUP8 DUP5 DUP7 MLOAD AND PUSH2 0x13D SLOAD SWAP3 PUSH2 0x5987 JUMP JUMPDEST SWAP7 SWAP2 DUP9 SWAP10 SWAP2 SWAP10 PUSH2 0x4433 JUMP JUMPDEST SWAP7 PUSH1 0x20 DUP11 ADD MLOAD DUP1 DUP10 LT PUSH2 0x1262 JUMPI POP DUP10 MLOAD SWAP1 PUSH2 0x134 PUSH2 0x11C3 DUP4 DUP3 SLOAD PUSH2 0x4433 JUMP JUMPDEST SWAP1 SSTORE PUSH2 0x11D3 PUSH2 0x131 SWAP2 DUP3 SLOAD PUSH2 0x4433 JUMP JUMPDEST SWAP1 SSTORE DUP4 PUSH2 0x133 SLOAD AND SWAP1 DUP2 EXTCODESIZE ISZERO PUSH2 0xA08 JUMPI DUP7 MLOAD PUSH4 0x2770A7EB PUSH1 0xE2 SHL DUP2 MSTORE ADDRESS PUSH1 0x4 DUP3 ADD MSTORE PUSH1 0x24 DUP2 ADD SWAP2 SWAP1 SWAP2 MSTORE SWAP1 DUP3 SWAP1 DUP3 SWAP1 PUSH1 0x44 SWAP1 DUP3 SWAP1 DUP5 SWAP1 GAS CALL DUP1 ISZERO PUSH2 0x1258 JUMPI PUSH2 0x1243 JUMPI JUMPDEST POP POP SWAP7 DUP6 PUSH2 0x1239 SWAP4 DUP4 DUP1 PUSH1 0x60 DUP10 SWAP7 PUSH2 0xE6E SWAP12 SWAP13 SWAP14 MLOAD AND SWAP6 ADD MLOAD AND SWAP2 MLOAD AND SWAP3 PUSH2 0x5C2A JUMP JUMPDEST MLOAD SWAP4 DUP5 SWAP4 DUP5 PUSH2 0x3B76 JUMP JUMPDEST PUSH2 0x124E DUP3 DUP1 SWAP3 PUSH2 0x3C49 JUMP JUMPDEST PUSH2 0x81D JUMPI DUP1 PUSH2 0x1216 JUMP JUMPDEST DUP7 MLOAD RETURNDATASIZE DUP5 DUP3 RETURNDATACOPY RETURNDATASIZE SWAP1 REVERT JUMPDEST PUSH1 0x44 SWAP1 DUP10 DUP9 MLOAD SWAP2 PUSH4 0x54CDE313 PUSH1 0xE0 SHL DUP4 MSTORE PUSH1 0x4 DUP4 ADD MSTORE PUSH1 0x24 DUP3 ADD MSTORE REVERT JUMPDEST DUP5 MLOAD PUSH4 0xF3E39B5D PUSH1 0xE0 SHL DUP2 MSTORE PUSH1 0x4 SWAP1 REVERT JUMPDEST PUSH1 0x44 SWAP3 POP DUP8 MLOAD SWAP2 PUSH4 0xA5DB715D PUSH1 0xE0 SHL DUP4 MSTORE PUSH1 0x4 DUP4 ADD MSTORE PUSH1 0x24 DUP3 ADD MSTORE REVERT JUMPDEST DUP3 MLOAD PUSH4 0x19748477 PUSH1 0xE0 SHL DUP2 MSTORE PUSH1 0x4 SWAP1 REVERT JUMPDEST PUSH1 0x20 DUP4 PUSH2 0x7D1 PUSH2 0x12CF CALLDATASIZE PUSH1 0x4 PUSH2 0x3C9D JUMP JUMPDEST SWAP3 SWAP1 CALLER SWAP3 CALLVALUE SWAP3 PUSH2 0x5449 JUMP JUMPDEST DUP4 CALLVALUE PUSH2 0x81D JUMPI PUSH1 0x20 CALLDATASIZE PUSH1 0x3 NOT ADD SLT PUSH2 0x81D JUMPI PUSH2 0x12F4 PUSH2 0x5F7F JUMP JUMPDEST PUSH1 0x4 CALLDATALOAD PUSH2 0x139 SSTORE DUP1 RETURN JUMPDEST DUP4 SWAP2 POP CALLVALUE PUSH2 0x793 JUMPI CALLDATASIZE PUSH1 0x3 NOT ADD SLT PUSH2 0x81D JUMPI POP PUSH2 0x1319 PUSH2 0x58C0 JUMP JUMPDEST POP PUSH2 0x14F SLOAD PUSH1 0x1 PUSH1 0x1 PUSH1 0xA0 SHL SUB SWAP1 DUP2 AND CALLER SUB PUSH2 0x13BB JUMPI PUSH2 0xE6E PUSH2 0xE64 SWAP2 PUSH2 0x1341 CALLDATASIZE PUSH1 0x4 PUSH2 0x5ED3 JUMP JUMPDEST SWAP4 PUSH2 0x134A PUSH2 0x58C0 JUMP JUMPDEST POP PUSH2 0x1353 PUSH2 0x4FE4 JUMP JUMPDEST PUSH2 0x135B PUSH2 0x600D JUMP JUMPDEST PUSH2 0x137D PUSH2 0xE04 DUP3 MLOAD PUSH4 0xF5571E01 PUSH1 0xE0 SHL PUSH1 0x20 DUP3 ADD MSTORE PUSH2 0xDE9 PUSH1 0x24 DUP3 ADD DUP10 PUSH2 0x54E7 JUMP JUMPDEST SWAP5 DUP9 PUSH1 0x60 DUP8 SWAP4 SWAP7 SWAP6 SWAP10 SWAP5 SWAP11 ADD SWAP2 DUP3 MLOAD PUSH2 0x139A PUSH2 0x14E SWAP2 DUP3 SLOAD PUSH2 0x4433 JUMP JUMPDEST SWAP1 SSTORE PUSH1 0xC0 PUSH2 0x13B0 DUP12 DUP4 PUSH1 0x80 DUP7 ADD MLOAD AND SWAP6 MLOAD PUSH2 0x4433 JUMP JUMPDEST SWAP3 ADD MLOAD AND SWAP2 DUP1 PUSH2 0x5C2A JUMP JUMPDEST DUP2 MLOAD PUSH4 0x19748477 PUSH1 0xE0 SHL DUP2 MSTORE PUSH1 0x4 SWAP1 REVERT JUMPDEST POP POP CALLVALUE PUSH2 0x793 JUMPI DUP2 PUSH1 0x3 NOT CALLDATASIZE ADD SLT PUSH2 0x793 JUMPI PUSH1 0x20 SWAP1 PUSH1 0xFF PUSH1 0xCA SLOAD AND SWAP1 MLOAD SWAP1 ISZERO ISZERO DUP2 MSTORE RETURN JUMPDEST POP POP CALLVALUE PUSH2 0x793 JUMPI DUP2 PUSH1 0x3 NOT CALLDATASIZE ADD SLT PUSH2 0x793 JUMPI PUSH1 0x20 SWAP1 PUSH2 0x15B SLOAD SWAP1 MLOAD SWAP1 DUP2 MSTORE RETURN JUMPDEST POP POP CALLVALUE PUSH2 0x793 JUMPI DUP2 PUSH1 0x3 NOT CALLDATASIZE ADD SLT PUSH2 0x793 JUMPI PUSH2 0x153 SLOAD SWAP1 MLOAD PUSH1 0x1 PUSH1 0x1 PUSH1 0xA0 SHL SUB SWAP1 SWAP2 AND DUP2 MSTORE PUSH1 0x20 SWAP1 RETURN JUMPDEST DUP3 DUP5 CALLVALUE PUSH2 0x81D JUMPI PUSH1 0xC0 CALLDATASIZE PUSH1 0x3 NOT ADD SLT PUSH2 0x81D JUMPI PUSH2 0x1455 PUSH2 0x58C0 JUMP JUMPDEST POP PUSH2 0x14F SLOAD PUSH1 0x1 PUSH1 0x1 PUSH1 0xA0 SHL SUB SWAP3 SWAP1 DUP4 AND CALLER SUB PUSH2 0xE72 JUMPI PUSH2 0x14EF PUSH2 0x147A CALLDATASIZE PUSH1 0x4 PUSH2 0x5D3D JUMP JUMPDEST SWAP2 PUSH2 0x1483 PUSH2 0x58C0 JUMP JUMPDEST POP PUSH2 0x148C PUSH2 0x4FE4 JUMP JUMPDEST PUSH2 0x1494 PUSH2 0x600D JUMP JUMPDEST PUSH2 0x149C PUSH2 0x4DAF JUMP JUMPDEST PUSH2 0x14A4 PUSH2 0x4CEC JUMP JUMPDEST PUSH2 0x14B3 DUP8 DUP7 SWAP6 SWAP4 SWAP6 MLOAD AND PUSH2 0x455A JUMP JUMPDEST SWAP4 PUSH2 0x14D3 PUSH2 0x14C1 DUP7 DUP5 PUSH2 0x424C JUMP JUMPDEST MLOAD SWAP3 PUSH2 0x14CD DUP5 DUP9 PUSH2 0x49FD JUMP JUMPDEST DUP3 PUSH2 0x5944 JUMP JUMPDEST PUSH1 0x20 DUP9 SWAP6 SWAP3 SWAP6 ADD SWAP5 DUP5 DUP7 MLOAD SWAP5 PUSH2 0x14E9 DUP3 DUP12 PUSH2 0x4C49 JUMP JUMPDEST SWAP1 PUSH2 0x5DA6 JUMP JUMPDEST DUP2 DUP2 LT PUSH2 0x15DB JUMPI POP POP SWAP5 DUP1 SWAP7 PUSH2 0x1509 PUSH2 0x1541 SWAP8 DUP5 MLOAD PUSH2 0x602E JUMP JUMPDEST SWAP5 PUSH1 0x60 DUP8 ADD SWAP1 PUSH2 0x1536 DUP4 DUP4 MLOAD AND DUP9 DUP11 DUP10 PUSH1 0xA0 DUP3 ADD SWAP9 DUP9 DUP1 DUP12 MLOAD AND SWAP4 MLOAD AND DUP2 MSTORE PUSH2 0x144 PUSH1 0x20 MSTORE KECCAK256 SLOAD SWAP3 PUSH2 0x5987 JUMP JUMPDEST SWAP9 SWAP2 DUP3 SWAP12 SWAP2 SWAP12 PUSH2 0x4229 JUMP JUMPDEST SWAP9 DUP8 DUP2 ADD SWAP7 DUP8 MLOAD DUP1 DUP13 GT PUSH2 0x15BE JUMPI POP DUP11 ISZERO PUSH2 0x15AD JUMPI SWAP5 DUP10 SWAP7 SWAP5 PUSH2 0x1588 DUP3 SWAP6 DUP14 SWAP15 SWAP16 SWAP6 PUSH2 0xE6E SWAP15 SWAP6 DUP6 PUSH1 0x80 PUSH2 0x1239 SWAP15 SWAP13 PUSH2 0x157D PUSH2 0x15A3 SWAP12 DUP7 PUSH2 0x5DBE JUMP JUMPDEST MLOAD SWAP3 ADD MLOAD AND SWAP3 PUSH2 0x493D JUMP JUMPDEST DUP7 MLOAD PUSH2 0x1598 PUSH2 0x14E SWAP2 DUP3 SLOAD PUSH2 0x4433 JUMP JUMPDEST SWAP1 SSTORE MLOAD AND SWAP5 MLOAD PUSH2 0x4433 JUMP JUMPDEST SWAP2 MLOAD AND SWAP2 DUP1 PUSH2 0x5C2A JUMP JUMPDEST DUP9 MLOAD PUSH4 0xF3E39B5D PUSH1 0xE0 SHL DUP2 MSTORE PUSH1 0x4 SWAP1 REVERT JUMPDEST PUSH1 0x44 SWAP1 DUP13 DUP12 MLOAD SWAP2 PUSH4 0xB63F1A7 PUSH1 0xE0 SHL DUP4 MSTORE PUSH1 0x4 DUP4 ADD MSTORE PUSH1 0x24 DUP3 ADD MSTORE REVERT JUMPDEST PUSH1 0x44 SWAP3 POP DUP5 MLOAD SWAP2 PUSH4 0xC39B739F PUSH1 0xE0 SHL DUP4 MSTORE PUSH1 0x4 DUP4 ADD MSTORE PUSH1 0x24 DUP3 ADD MSTORE REVERT JUMPDEST POP POP DUP1 PUSH1 0x3 NOT CALLDATASIZE ADD SLT PUSH2 0x793 JUMPI PUSH1 0x24 CALLDATALOAD PUSH1 0x1 PUSH1 0x1 PUSH1 0xA0 SHL SUB DUP2 AND DUP2 SUB PUSH2 0x818 JUMPI PUSH1 0x20 SWAP3 PUSH2 0x7D1 SWAP2 CALLVALUE PUSH1 0x4 CALLDATALOAD PUSH2 0x4E43 JUMP JUMPDEST PUSH1 0x20 DUP4 PUSH2 0x7D1 PUSH2 0x1639 CALLDATASIZE PUSH1 0x4 PUSH2 0x3CF7 JUMP JUMPDEST SWAP4 SWAP3 SWAP2 SWAP1 SWAP2 CALLER SWAP4 PUSH2 0x57D5 JUMP JUMPDEST POP POP CALLVALUE PUSH2 0x793 JUMPI DUP2 PUSH1 0x3 NOT CALLDATASIZE ADD SLT PUSH2 0x793 JUMPI PUSH1 0x20 SWAP1 PUSH2 0x13D SLOAD SWAP1 MLOAD SWAP1 DUP2 MSTORE RETURN JUMPDEST DUP3 DUP5 CALLVALUE PUSH2 0x81D JUMPI PUSH1 0xC0 CALLDATASIZE PUSH1 0x3 NOT ADD SLT PUSH2 0x81D JUMPI PUSH2 0x1680 PUSH2 0x58C0 JUMP JUMPDEST POP PUSH2 0x14F SLOAD PUSH1 0x1 PUSH1 0x1 PUSH1 0xA0 SHL SUB SWAP1 DUP2 AND CALLER SUB PUSH2 0x12AD JUMPI SWAP1 PUSH2 0x1743 SWAP2 PUSH2 0x16A6 CALLDATASIZE PUSH1 0x4 PUSH2 0x5D3D JUMP JUMPDEST SWAP4 PUSH2 0x16AF PUSH2 0x58C0 JUMP JUMPDEST POP PUSH2 0x16B8 PUSH2 0x4FE4 JUMP JUMPDEST PUSH2 0x16C0 PUSH2 0x600D JUMP JUMPDEST PUSH2 0x16C8 PUSH2 0x4663 JUMP JUMPDEST SWAP3 PUSH2 0x16D5 DUP4 DUP8 MLOAD AND PUSH2 0x455A JUMP JUMPDEST SWAP3 PUSH2 0x16F8 PUSH2 0x16E3 DUP6 DUP8 PUSH2 0x424C JUMP JUMPDEST MLOAD SWAP6 PUSH2 0x16EF DUP8 DUP8 PUSH2 0x49FD JUMP JUMPDEST PUSH2 0x149 SLOAD PUSH2 0x5944 JUMP JUMPDEST POP POP PUSH2 0x1709 PUSH1 0x20 DUP9 ADD SWAP6 DUP7 MLOAD PUSH2 0x602E JUMP JUMPDEST SWAP2 PUSH1 0x60 DUP9 ADD SWAP1 DUP3 DUP3 MLOAD AND SWAP4 PUSH2 0x1738 PUSH1 0xA0 DUP12 ADD SWAP6 DUP3 DUP13 DUP8 DUP1 DUP11 MLOAD AND SWAP2 MLOAD AND DUP7 MSTORE PUSH2 0x145 PUSH1 0x20 MSTORE DUP10 DUP7 KECCAK256 SLOAD SWAP3 PUSH2 0x5987 JUMP JUMPDEST SWAP9 SWAP2 DUP4 SWAP12 SWAP2 SWAP12 PUSH2 0x4433 JUMP JUMPDEST SWAP9 DUP3 ISZERO PUSH2 0x1833 JUMPI DUP8 DUP13 ADD MLOAD DUP1 DUP12 LT PUSH2 0x1816 JUMPI POP DUP6 SWAP2 PUSH2 0x179B SWAP2 PUSH2 0x1767 PUSH1 0x1 DUP14 PUSH2 0x5DBE JUMP JUMPDEST MLOAD SWAP4 PUSH2 0x1775 DUP3 PUSH2 0x137 PUSH2 0x3C2D JUMP JUMPDEST POP PUSH2 0x1781 DUP7 DUP3 SLOAD PUSH2 0x4433 JUMP JUMPDEST SWAP1 SSTORE PUSH2 0x1791 PUSH2 0x131 SWAP2 DUP3 SLOAD PUSH2 0x4433 JUMP JUMPDEST SWAP1 SSTORE PUSH2 0x135 PUSH2 0x3AF8 JUMP JUMPDEST SWAP1 SLOAD SWAP1 PUSH1 0x3 SHL SHR AND SWAP1 DUP2 EXTCODESIZE ISZERO PUSH2 0xA08 JUMPI DUP7 MLOAD PUSH4 0x2770A7EB PUSH1 0xE2 SHL DUP2 MSTORE ADDRESS PUSH1 0x4 DUP3 ADD MSTORE PUSH1 0x24 DUP2 ADD SWAP2 SWAP1 SWAP2 MSTORE SWAP1 DUP3 SWAP1 DUP3 SWAP1 PUSH1 0x44 SWAP1 DUP3 SWAP1 DUP5 SWAP1 GAS CALL DUP1 ISZERO PUSH2 0x1258 JUMPI PUSH2 0x1801 JUMPI JUMPDEST POP POP SWAP7 DUP6 PUSH2 0x1239 SWAP4 DUP4 DUP1 PUSH1 0x80 DUP10 SWAP7 PUSH2 0xE6E SWAP12 SWAP13 SWAP14 MLOAD AND SWAP6 ADD MLOAD AND SWAP2 MLOAD AND SWAP3 PUSH2 0x5C2A JUMP JUMPDEST PUSH2 0x180C DUP3 DUP1 SWAP3 PUSH2 0x3C49 JUMP JUMPDEST PUSH2 0x81D JUMPI DUP1 PUSH2 0x17DE JUMP JUMPDEST PUSH1 0x44 SWAP1 DUP12 DUP11 MLOAD SWAP2 PUSH4 0x54CDE313 PUSH1 0xE0 SHL DUP4 MSTORE PUSH1 0x4 DUP4 ADD MSTORE PUSH1 0x24 DUP3 ADD MSTORE REVERT JUMPDEST DUP8 MLOAD PUSH4 0xF3E39B5D PUSH1 0xE0 SHL DUP2 MSTORE PUSH1 0x4 SWAP1 REVERT JUMPDEST POP POP CALLVALUE PUSH2 0x793 JUMPI DUP2 PUSH1 0x3 NOT CALLDATASIZE ADD SLT PUSH2 0x793 JUMPI PUSH1 0x20 SWAP1 PUSH2 0x18F SLOAD NUMBER LT ISZERO SWAP1 MLOAD SWAP1 DUP2 MSTORE RETURN JUMPDEST POP POP CALLVALUE PUSH2 0x793 JUMPI DUP2 PUSH1 0x3 NOT CALLDATASIZE ADD SLT PUSH2 0x793 JUMPI PUSH1 0xCA SLOAD SWAP1 MLOAD PUSH1 0x10 SWAP2 SWAP1 SWAP2 SHR PUSH1 0x1 PUSH1 0x1 PUSH1 0xA0 SHL SUB AND DUP2 MSTORE PUSH1 0x20 SWAP1 RETURN JUMPDEST DUP3 DUP5 CALLVALUE PUSH2 0x81D JUMPI PUSH1 0x20 CALLDATASIZE PUSH1 0x3 NOT ADD SLT PUSH2 0x81D JUMPI PUSH1 0x4 CALLDATALOAD PUSH1 0x1 PUSH1 0x1 PUSH1 0xA0 SHL SUB DUP2 AND SWAP2 SWAP1 DUP3 SWAP1 SUB PUSH2 0x818 JUMPI DUP3 SWAP2 DUP2 MSTORE PUSH2 0x136 PUSH1 0x20 MSTORE KECCAK256 PUSH1 0xFF PUSH1 0x1 DUP3 SLOAD SWAP3 ADD SLOAD AND DUP3 MLOAD SWAP2 DUP3 MSTORE ISZERO ISZERO PUSH1 0x20 DUP3 ADD MSTORE RETURN JUMPDEST DUP3 DUP5 CALLVALUE PUSH2 0x81D JUMPI DUP2 PUSH1 0x3 NOT CALLDATASIZE ADD SLT PUSH2 0x81D JUMPI POP PUSH1 0x1 PUSH1 0x1 PUSH1 0xA0 SHL SUB SWAP1 PUSH1 0x4 CALLDATALOAD DUP3 DUP2 AND DUP2 SUB PUSH2 0x818 JUMPI PUSH1 0x24 CALLDATALOAD SWAP3 DUP4 AND DUP4 SUB PUSH2 0x818 JUMPI PUSH1 0x20 SWAP3 PUSH2 0x7D1 SWAP2 CALLER SWAP1 PUSH2 0x48A1 JUMP JUMPDEST POP POP CALLVALUE PUSH2 0x793 JUMPI DUP2 PUSH1 0x3 NOT CALLDATASIZE ADD SLT PUSH2 0x793 JUMPI PUSH1 0x20 SWAP1 PUSH2 0x194B PUSH2 0x1945 PUSH2 0xC81 PUSH2 0x4663 JUMP JUMPDEST SWAP1 PUSH2 0x4415 JUMP JUMPDEST PUSH2 0x14A SLOAD LT ISZERO SWAP1 MLOAD SWAP1 DUP2 MSTORE RETURN JUMPDEST POP POP DUP1 PUSH1 0x3 NOT CALLDATASIZE ADD SLT PUSH2 0x793 JUMPI PUSH2 0x7D1 PUSH1 0x20 SWAP3 CALLER PUSH1 0x24 CALLDATALOAD PUSH1 0x4 CALLDATALOAD PUSH2 0x5613 JUMP JUMPDEST POP POP CALLVALUE PUSH2 0x793 JUMPI DUP2 PUSH1 0x3 NOT CALLDATASIZE ADD SLT PUSH2 0x793 JUMPI PUSH2 0x146 SLOAD SWAP1 MLOAD PUSH1 0x1 PUSH1 0x1 PUSH1 0xA0 SHL SUB SWAP1 SWAP2 AND DUP2 MSTORE PUSH1 0x20 SWAP1 RETURN JUMPDEST POP POP CALLVALUE PUSH2 0x793 JUMPI PUSH2 0x420 CALLDATASIZE PUSH1 0x3 NOT ADD SLT PUSH2 0x793 JUMPI DUP2 SLOAD PUSH1 0xFF DUP2 PUSH1 0x8 SHR AND ISZERO SWAP1 DUP2 DUP1 SWAP3 PUSH2 0x1EE4 JUMPI JUMPDEST DUP1 ISZERO PUSH2 0x1ECD JUMPI JUMPDEST ISZERO PUSH2 0x1E72 JUMPI PUSH1 0xFF NOT DUP2 AND PUSH1 0x1 OR DUP5 SSTORE DUP2 PUSH2 0x1E61 JUMPI JUMPDEST POP PUSH1 0xFF DUP4 SLOAD PUSH1 0x8 SHR AND PUSH2 0x19F6 DUP2 PUSH2 0x4841 JUMP JUMPDEST PUSH2 0x384 CALLDATALOAD PUSH1 0x1 PUSH1 0x1 PUSH1 0xA0 SHL SUB DUP2 AND SWAP1 DUP2 SWAP1 SUB PUSH2 0x818 JUMPI PUSH2 0x1F7 DUP1 SLOAD PUSH1 0x1 PUSH1 0x1 PUSH1 0xA0 SHL SUB NOT AND SWAP1 SWAP2 OR SWAP1 SSTORE PUSH1 0x1 PUSH1 0x1 PUSH1 0xA0 SHL SUB PUSH2 0x344 CALLDATALOAD SWAP1 DUP2 AND SWAP1 DUP2 SWAP1 SUB PUSH2 0x818 JUMPI PUSH2 0x364 CALLDATALOAD PUSH1 0x1 PUSH1 0x1 PUSH1 0xA0 SHL SUB DUP2 AND DUP2 SUB PUSH2 0x818 JUMPI PUSH1 0x1 SWAP2 PUSH2 0x1A57 DUP5 PUSH2 0x4841 JUMP JUMPDEST PUSH2 0x1A60 DUP5 PUSH2 0x4841 JUMP JUMPDEST PUSH2 0x1A69 DUP5 PUSH2 0x4841 JUMP JUMPDEST PUSH2 0x1A72 DUP5 PUSH2 0x4841 JUMP JUMPDEST PUSH1 0x1 PUSH1 0x1 PUSH1 0x60 SHL SUB PUSH1 0xA0 SHL PUSH1 0x97 SLOAD AND OR PUSH1 0x97 SSTORE PUSH2 0x1A8E DUP4 PUSH2 0x4841 JUMP JUMPDEST PUSH1 0xCA SLOAD SWAP1 PUSH3 0x10000 DUP4 PUSH1 0xB0 SHL SUB SWAP1 PUSH1 0x10 SHL AND SWAP1 PUSH2 0xFF01 DUP4 PUSH1 0xB0 SHL SUB NOT AND OR OR PUSH1 0xCA SSTORE PUSH2 0x1AB9 DUP2 PUSH2 0x4841 JUMP JUMPDEST PUSH8 0xDE0B6B3A7640000 PUSH1 0xC4 CALLDATALOAD LT PUSH2 0x1E50 JUMPI PUSH2 0x1AD6 PUSH2 0x104 CALLDATALOAD PUSH2 0x6052 JUMP JUMPDEST PUSH2 0x1AE2 PUSH2 0x124 CALLDATALOAD PUSH2 0x6052 JUMP JUMPDEST PUSH2 0x1AEE PUSH2 0x144 CALLDATALOAD PUSH2 0x6052 JUMP JUMPDEST PUSH2 0x1AFA PUSH2 0x164 CALLDATALOAD PUSH2 0x6052 JUMP JUMPDEST PUSH2 0x1B06 PUSH2 0x184 CALLDATALOAD PUSH2 0x6052 JUMP JUMPDEST PUSH2 0x1B12 PUSH2 0x1A4 CALLDATALOAD PUSH2 0x6052 JUMP JUMPDEST PUSH2 0x1B1E PUSH2 0x1C4 CALLDATALOAD PUSH2 0x6052 JUMP JUMPDEST PUSH2 0x1B2A PUSH2 0x1E4 CALLDATALOAD PUSH2 0x6052 JUMP JUMPDEST PUSH2 0x1B36 PUSH2 0x204 CALLDATALOAD PUSH2 0x6052 JUMP JUMPDEST PUSH2 0x1B4E PUSH2 0x1B49 PUSH2 0x244 CALLDATALOAD PUSH2 0x224 CALLDATALOAD PUSH2 0x4229 JUMP JUMPDEST PUSH2 0x6052 JUMP JUMPDEST PUSH1 0x4 CALLDATALOAD PUSH1 0x1 PUSH1 0x1 PUSH1 0xA0 SHL SUB DUP2 AND SWAP1 DUP2 SWAP1 SUB PUSH2 0x818 JUMPI PUSH2 0x14F DUP1 SLOAD PUSH1 0x1 PUSH1 0x1 PUSH1 0xA0 SHL SUB NOT AND SWAP1 SWAP2 OR SWAP1 SSTORE PUSH1 0x24 CALLDATALOAD PUSH1 0x1 PUSH1 0x1 PUSH1 0xA0 SHL SUB DUP2 AND DUP2 SUB PUSH2 0x818 JUMPI PUSH2 0x12F DUP1 SLOAD PUSH1 0x1 PUSH1 0x1 PUSH1 0xA0 SHL SUB NOT AND PUSH1 0x1 PUSH1 0x1 PUSH1 0xA0 SHL SUB SWAP3 DUP4 AND OR SWAP1 SSTORE PUSH1 0x44 CALLDATALOAD SWAP1 DUP2 AND DUP2 SUB PUSH2 0x818 JUMPI PUSH2 0x130 DUP1 SLOAD PUSH1 0x1 PUSH1 0x1 PUSH1 0xA0 SHL SUB NOT AND PUSH1 0x1 PUSH1 0x1 PUSH1 0xA0 SHL SUB SWAP3 DUP4 AND OR SWAP1 SSTORE PUSH1 0x64 CALLDATALOAD SWAP1 DUP2 AND DUP2 SUB PUSH2 0x818 JUMPI PUSH2 0x133 DUP1 SLOAD PUSH1 0x1 PUSH1 0x1 PUSH1 0xA0 SHL SUB NOT AND PUSH1 0x1 PUSH1 0x1 PUSH1 0xA0 SHL SUB SWAP3 DUP4 AND OR SWAP1 SSTORE PUSH1 0x84 CALLDATALOAD SWAP1 DUP2 AND DUP2 SUB PUSH2 0x818 JUMPI PUSH2 0x146 DUP1 SLOAD PUSH1 0x1 PUSH1 0x1 PUSH1 0xA0 SHL SUB NOT AND PUSH1 0x1 PUSH1 0x1 PUSH1 0xA0 SHL SUB SWAP3 DUP4 AND OR SWAP1 SSTORE PUSH1 0xA4 CALLDATALOAD SWAP1 DUP2 AND DUP2 SUB PUSH2 0x818 JUMPI PUSH2 0x147 DUP1 SLOAD PUSH1 0x1 PUSH1 0x1 PUSH1 0xA0 SHL SUB NOT AND PUSH1 0x1 PUSH1 0x1 PUSH1 0xA0 SHL SUB SWAP3 DUP4 AND OR SWAP1 SSTORE PUSH1 0xC4 CALLDATALOAD PUSH2 0x149 SSTORE PUSH1 0xE4 CALLDATALOAD PUSH2 0x14A SSTORE PUSH2 0x104 CALLDATALOAD PUSH2 0x13B SSTORE PUSH2 0x124 CALLDATALOAD PUSH2 0x13C SSTORE PUSH2 0x144 CALLDATALOAD PUSH2 0x13D SSTORE PUSH2 0x164 CALLDATALOAD PUSH2 0x13E SSTORE PUSH2 0x184 CALLDATALOAD PUSH2 0x13F SSTORE PUSH2 0x1A4 CALLDATALOAD PUSH2 0x140 SSTORE PUSH2 0x1C4 CALLDATALOAD PUSH2 0x141 SSTORE PUSH2 0x1E4 CALLDATALOAD PUSH2 0x142 SSTORE PUSH2 0x204 CALLDATALOAD PUSH2 0x143 SSTORE PUSH2 0x224 CALLDATALOAD PUSH2 0x139 SSTORE PUSH2 0x244 CALLDATALOAD PUSH2 0x13A SSTORE PUSH2 0x264 CALLDATALOAD PUSH2 0x14C DUP2 SWAP1 SSTORE SWAP1 PUSH2 0x284 CALLDATALOAD SWAP1 DUP2 AND SWAP1 DUP2 SWAP1 SUB PUSH2 0x818 JUMPI PUSH2 0x158 DUP1 SLOAD PUSH1 0x1 PUSH1 0x1 PUSH1 0xA0 SHL SUB NOT AND SWAP1 SWAP2 OR SWAP1 SSTORE PUSH2 0x2A4 CALLDATALOAD PUSH2 0x159 SSTORE PUSH2 0x2C4 CALLDATALOAD PUSH2 0x15A DUP2 SWAP1 SSTORE SWAP1 PUSH1 0x1 PUSH1 0x1 PUSH1 0xA0 SHL SUB PUSH2 0x2E4 CALLDATALOAD SWAP1 DUP2 AND SWAP1 DUP2 SWAP1 SUB PUSH2 0x818 JUMPI PUSH2 0x152 DUP1 SLOAD PUSH1 0x1 PUSH1 0x1 PUSH1 0xA0 SHL SUB NOT AND SWAP1 SWAP2 OR SWAP1 SSTORE PUSH1 0x1 PUSH1 0x1 PUSH1 0xA0 SHL SUB PUSH2 0x304 CALLDATALOAD SWAP1 DUP2 AND SWAP1 DUP2 SWAP1 SUB PUSH2 0x818 JUMPI PUSH2 0x153 SWAP1 PUSH1 0x1 PUSH1 0x1 PUSH1 0x60 SHL SUB PUSH1 0xA0 SHL DUP3 SLOAD AND OR SWAP1 SSTORE PUSH2 0x324 CALLDATALOAD PUSH2 0x154 SSTORE NUMBER PUSH2 0x157 SSTORE NUMBER ADD PUSH2 0x14D SSTORE NUMBER ADD PUSH2 0x15B SSTORE PUSH2 0x14B PUSH2 0xFFFF NOT DUP2 SLOAD AND SWAP1 SSTORE PUSH2 0x3A4 CALLDATALOAD PUSH2 0x1D7B DUP3 PUSH2 0x4841 JUMP JUMPDEST DUP1 ISZERO PUSH2 0x1E3F JUMPI PUSH2 0x190 DUP2 SWAP1 SSTORE NUMBER ADD PUSH2 0x18F SSTORE PUSH2 0x3C4 CALLDATALOAD PUSH1 0x1 PUSH1 0x1 PUSH1 0xA0 SHL SUB DUP2 AND DUP2 SUB PUSH2 0x818 JUMPI PUSH2 0x1DAD PUSH2 0x1DCF SWAP3 PUSH2 0x4841 JUMP JUMPDEST PUSH2 0x1C3 DUP1 SLOAD PUSH1 0x1 PUSH1 0x1 PUSH1 0xA0 SHL SUB NOT AND PUSH1 0x1 PUSH1 0x1 PUSH1 0xA0 SHL SUB SWAP1 SWAP3 AND SWAP2 SWAP1 SWAP2 OR SWAP1 SSTORE JUMP JUMPDEST PUSH2 0x3E4 CALLDATALOAD PUSH2 0x22A SSTORE PUSH2 0x404 CALLDATALOAD PUSH1 0x1 PUSH1 0x1 PUSH1 0xA0 SHL SUB DUP2 AND SWAP1 DUP2 SWAP1 SUB PUSH2 0x818 JUMPI PUSH2 0x22B DUP1 SLOAD PUSH1 0x1 PUSH1 0x1 PUSH1 0xA0 SHL SUB NOT AND SWAP1 SWAP2 OR SWAP1 SSTORE PUSH2 0x1E09 JUMPI POP DUP1 RETURN JUMPDEST PUSH1 0x20 PUSH32 0x7F26B83FF96E1F2B6A682F133852F6798A09C465DA95921460CEFB3847402498 SWAP2 PUSH2 0xFF00 NOT DUP5 SLOAD AND DUP5 SSTORE MLOAD PUSH1 0x1 DUP2 MSTORE LOG1 DUP1 RETURN JUMPDEST DUP4 MLOAD PUSH4 0x2A9FFAB7 PUSH1 0xE2 SHL DUP2 MSTORE PUSH1 0x4 SWAP1 REVERT JUMPDEST DUP3 MLOAD PUSH4 0x2A9FFAB7 PUSH1 0xE2 SHL DUP2 MSTORE PUSH1 0x4 SWAP1 REVERT JUMPDEST PUSH2 0xFFFF NOT AND PUSH2 0x101 OR DUP4 SSTORE CODESIZE PUSH2 0x19E4 JUMP JUMPDEST DUP3 MLOAD PUSH3 0x461BCD PUSH1 0xE5 SHL DUP2 MSTORE PUSH1 0x20 PUSH1 0x4 DUP3 ADD MSTORE PUSH1 0x2E PUSH1 0x24 DUP3 ADD MSTORE PUSH32 0x496E697469616C697A61626C653A20636F6E747261637420697320616C726561 PUSH1 0x44 DUP3 ADD MSTORE PUSH14 0x191E481A5B9A5D1A585B1A5E9959 PUSH1 0x92 SHL PUSH1 0x64 DUP3 ADD MSTORE PUSH1 0x84 SWAP1 REVERT JUMPDEST POP ADDRESS EXTCODESIZE ISZERO DUP1 ISZERO PUSH2 0x19CF JUMPI POP PUSH1 0x1 PUSH1 0xFF DUP3 AND EQ PUSH2 0x19CF JUMP JUMPDEST POP PUSH1 0x1 PUSH1 0xFF DUP3 AND LT PUSH2 0x19C8 JUMP JUMPDEST DUP3 PUSH1 0x60 CALLDATASIZE PUSH1 0x3 NOT ADD SLT PUSH2 0x818 JUMPI PUSH1 0x1 PUSH1 0x1 PUSH1 0xA0 SHL SUB SWAP1 PUSH1 0x4 CALLDATALOAD DUP3 DUP2 AND DUP2 SUB PUSH2 0x818 JUMPI PUSH1 0x44 CALLDATALOAD SWAP3 DUP4 AND DUP4 SUB PUSH2 0x818 JUMPI PUSH1 0x20 SWAP3 PUSH2 0x7D1 SWAP2 CALLER SWAP1 CALLVALUE SWAP1 PUSH1 0x24 CALLDATALOAD SWAP1 PUSH2 0x50C0 JUMP JUMPDEST POP POP CALLVALUE PUSH2 0x793 JUMPI DUP2 PUSH1 0x3 NOT CALLDATASIZE ADD SLT PUSH2 0x793 JUMPI PUSH1 0x20 SWAP1 PUSH2 0x1F53 PUSH2 0xC81 PUSH2 0x4663 JUMP JUMPDEST POP SWAP1 MLOAD SWAP1 DUP2 MSTORE RETURN JUMPDEST POP POP CALLVALUE PUSH2 0x793 JUMPI DUP2 PUSH1 0x3 NOT CALLDATASIZE ADD SLT PUSH2 0x793 JUMPI PUSH2 0x158 SLOAD SWAP1 MLOAD PUSH1 0x1 PUSH1 0x1 PUSH1 0xA0 SHL SUB SWAP1 SWAP2 AND DUP2 MSTORE PUSH1 0x20 SWAP1 RETURN JUMPDEST POP POP CALLVALUE PUSH2 0x793 JUMPI DUP2 PUSH1 0x3 NOT CALLDATASIZE ADD SLT PUSH2 0x793 JUMPI PUSH1 0x20 SWAP1 PUSH2 0x1F6 SLOAD SWAP1 MLOAD SWAP1 DUP2 MSTORE RETURN JUMPDEST POP POP CALLVALUE PUSH2 0x793 JUMPI DUP2 PUSH1 0x3 NOT CALLDATASIZE ADD SLT PUSH2 0x793 JUMPI PUSH1 0x20 SWAP1 PUSH2 0x14A SLOAD SWAP1 MLOAD SWAP1 DUP2 MSTORE RETURN JUMPDEST PUSH1 0x20 DUP4 PUSH2 0x7D1 PUSH2 0x1FD6 CALLDATASIZE PUSH1 0x4 PUSH2 0x3C9D JUMP JUMPDEST SWAP3 SWAP2 CALLER SWAP3 PUSH2 0x5706 JUMP JUMPDEST PUSH1 0x20 DUP4 PUSH2 0x7D1 PUSH2 0x1FF0 CALLDATASIZE PUSH1 0x4 PUSH2 0x3BF4 JUMP JUMPDEST SWAP4 SWAP3 SWAP1 SWAP3 PUSH2 0x5706 JUMP JUMPDEST DUP3 DUP5 CALLVALUE PUSH2 0x81D JUMPI PUSH1 0xC0 CALLDATASIZE PUSH1 0x3 NOT ADD SLT PUSH2 0x81D JUMPI POP PUSH2 0x2015 PUSH2 0x58C0 JUMP JUMPDEST POP PUSH2 0x14F SLOAD PUSH1 0x1 PUSH1 0x1 PUSH1 0xA0 SHL SUB SWAP1 DUP2 AND CALLER SUB PUSH2 0x13BB JUMPI PUSH2 0xE6E PUSH2 0xE64 SWAP2 PUSH2 0x203D CALLDATASIZE PUSH1 0x4 PUSH2 0x5D3D JUMP JUMPDEST SWAP4 PUSH2 0x2046 PUSH2 0x58C0 JUMP JUMPDEST POP PUSH2 0x204F PUSH2 0x4FE4 JUMP JUMPDEST PUSH2 0x2057 PUSH2 0x600D JUMP JUMPDEST PUSH2 0x2088 PUSH2 0xE04 DUP3 MLOAD PUSH4 0x7225DA89 PUSH1 0xE1 SHL PUSH1 0x20 DUP3 ADD MSTORE PUSH2 0x2079 PUSH1 0x24 DUP3 ADD DUP10 PUSH2 0x507B JUMP JUMPDEST PUSH1 0xC4 DUP2 MSTORE PUSH2 0xDF9 PUSH1 0xE4 DUP3 PUSH2 0x3C49 JUMP JUMPDEST SWAP5 DUP9 DUP6 DUP8 SWAP4 SWAP7 SWAP6 SWAP10 SWAP5 SWAP11 ADD SWAP2 DUP3 MLOAD PUSH2 0x20A4 PUSH2 0x14E SWAP2 DUP3 SLOAD PUSH2 0x4433 JUMP JUMPDEST SWAP1 SSTORE PUSH1 0xA0 PUSH2 0x13B0 DUP12 DUP4 PUSH1 0x60 DUP7 ADD MLOAD AND SWAP6 MLOAD PUSH2 0x4433 JUMP JUMPDEST DUP4 CALLVALUE PUSH2 0x81D JUMPI PUSH1 0x20 CALLDATASIZE PUSH1 0x3 NOT ADD SLT PUSH2 0x81D JUMPI PUSH1 0x4 CALLDATALOAD PUSH1 0x1 PUSH1 0x1 PUSH1 0xA0 SHL SUB DUP2 AND SWAP1 DUP2 SWAP1 SUB PUSH2 0x818 JUMPI PUSH2 0x20E9 PUSH2 0x5F7F JUMP JUMPDEST PUSH2 0x153 DUP1 SLOAD PUSH1 0x1 PUSH1 0x1 PUSH1 0xA0 SHL SUB NOT AND SWAP1 SWAP2 OR SWAP1 SSTORE DUP1 RETURN JUMPDEST POP POP CALLVALUE PUSH2 0x793 JUMPI DUP2 PUSH1 0x3 NOT CALLDATASIZE ADD SLT PUSH2 0x793 JUMPI PUSH2 0x211A PUSH2 0x600D JUMP JUMPDEST PUSH1 0xCA SLOAD PUSH1 0x10 DUP2 SWAP1 SHR PUSH1 0x1 PUSH1 0x1 PUSH1 0xA0 SHL SUB AND CALLER SUB PUSH2 0x2184 JUMPI PUSH1 0xFF DUP2 AND ISZERO PUSH2 0x2173 JUMPI PUSH2 0xFF00 NOT AND PUSH2 0x100 OR PUSH1 0xCA SSTORE MLOAD CALLER DUP2 MSTORE PUSH32 0x62E78CEA01BEE320CD4E420270B5EA74000D11B0C9F74754EBDBFC544B05A258 SWAP1 PUSH1 0x20 SWAP1 LOG1 DUP1 RETURN JUMPDEST DUP2 MLOAD PUSH4 0x866099C3 PUSH1 0xE0 SHL DUP2 MSTORE PUSH1 0x4 SWAP1 REVERT JUMPDEST DUP2 MLOAD PUSH4 0x1D77D477 PUSH1 0xE2 SHL DUP2 MSTORE PUSH1 0x4 SWAP1 REVERT JUMPDEST POP POP CALLVALUE PUSH2 0x793 JUMPI DUP2 PUSH1 0x3 NOT CALLDATASIZE ADD SLT PUSH2 0x793 JUMPI PUSH1 0x20 SWAP1 PUSH2 0x7D1 PUSH2 0x1945 PUSH2 0xC81 PUSH2 0x4663 JUMP JUMPDEST POP POP CALLVALUE PUSH2 0x793 JUMPI DUP2 PUSH1 0x3 NOT CALLDATASIZE ADD SLT PUSH2 0x793 JUMPI PUSH1 0x20 SWAP1 PUSH2 0x15A SLOAD SWAP1 MLOAD SWAP1 DUP2 MSTORE RETURN JUMPDEST POP POP CALLVALUE PUSH2 0x793 JUMPI DUP2 PUSH1 0x3 NOT CALLDATASIZE ADD SLT PUSH2 0x793 JUMPI PUSH1 0x20 SWAP1 PUSH2 0x7D1 PUSH2 0x21FA PUSH1 0x1 PUSH2 0x469D JUMP JUMPDEST PUSH2 0xF0A PUSH2 0x2207 DUP3 DUP5 PUSH2 0x42EE JUMP JUMPDEST SWAP2 DUP4 PUSH2 0x43A4 JUMP JUMPDEST POP POP CALLVALUE PUSH2 0x793 JUMPI DUP2 PUSH1 0x3 NOT CALLDATASIZE ADD SLT PUSH2 0x793 JUMPI PUSH2 0x1C3 SLOAD SWAP1 MLOAD PUSH1 0x1 PUSH1 0x1 PUSH1 0xA0 SHL SUB SWAP1 SWAP2 AND DUP2 MSTORE PUSH1 0x20 SWAP1 RETURN JUMPDEST POP POP CALLVALUE PUSH2 0x793 JUMPI PUSH1 0x20 CALLDATASIZE PUSH1 0x3 NOT ADD SLT PUSH2 0x793 JUMPI PUSH1 0x4 CALLDATALOAD SWAP2 PUSH2 0x148 SWAP1 DUP2 SLOAD DUP5 LT ISZERO PUSH2 0x81D JUMPI POP PUSH1 0x20 SWAP3 PUSH2 0x2269 SWAP2 PUSH2 0x3AF8 JUMP JUMPDEST SWAP2 SWAP1 SLOAD SWAP1 MLOAD SWAP2 PUSH1 0x3 SHL SHR DUP2 MSTORE RETURN JUMPDEST DUP4 CALLVALUE PUSH2 0x81D JUMPI PUSH1 0x20 CALLDATASIZE PUSH1 0x3 NOT ADD SLT PUSH2 0x81D JUMPI PUSH2 0x2291 PUSH2 0x5F7F JUMP JUMPDEST PUSH1 0x4 CALLDATALOAD PUSH2 0x149 SSTORE DUP1 RETURN JUMPDEST DUP4 CALLVALUE PUSH2 0x81D JUMPI PUSH1 0x20 CALLDATASIZE PUSH1 0x3 NOT ADD SLT PUSH2 0x81D JUMPI PUSH2 0x22B5 PUSH2 0x5F7F JUMP JUMPDEST PUSH1 0x4 CALLDATALOAD PUSH2 0x140 SSTORE DUP1 RETURN JUMPDEST POP POP CALLVALUE PUSH2 0x793 JUMPI DUP2 PUSH1 0x3 NOT CALLDATASIZE ADD SLT PUSH2 0x793 JUMPI PUSH1 0x20 SWAP1 PUSH2 0x190 SLOAD SWAP1 MLOAD SWAP1 DUP2 MSTORE RETURN JUMPDEST DUP4 CALLVALUE PUSH2 0x81D JUMPI PUSH1 0x20 CALLDATASIZE PUSH1 0x3 NOT ADD SLT PUSH2 0x81D JUMPI PUSH2 0x22F9 PUSH2 0x5F7F JUMP JUMPDEST PUSH1 0x4 CALLDATALOAD PUSH2 0x141 SSTORE DUP1 RETURN JUMPDEST POP POP CALLVALUE PUSH2 0x793 JUMPI DUP2 PUSH1 0x3 NOT CALLDATASIZE ADD SLT PUSH2 0x793 JUMPI PUSH1 0x20 SWAP1 PUSH2 0x134 SLOAD SWAP1 MLOAD SWAP1 DUP2 MSTORE RETURN JUMPDEST POP POP CALLVALUE PUSH2 0x793 JUMPI DUP2 PUSH1 0x3 NOT CALLDATASIZE ADD SLT PUSH2 0x793 JUMPI PUSH1 0x20 SWAP1 PUSH2 0x142 SLOAD SWAP1 MLOAD SWAP1 DUP2 MSTORE RETURN JUMPDEST PUSH1 0x20 DUP4 PUSH2 0x7D1 PUSH2 0x2354 CALLDATASIZE PUSH1 0x4 PUSH2 0x3CCA JUMP JUMPDEST SWAP3 SWAP1 SWAP2 CALLVALUE SWAP2 PUSH2 0x50C0 JUMP JUMPDEST DUP4 CALLVALUE PUSH2 0x81D JUMPI PUSH1 0x20 CALLDATASIZE PUSH1 0x3 NOT ADD SLT PUSH2 0x81D JUMPI PUSH2 0x2378 PUSH2 0x5F7F JUMP JUMPDEST PUSH1 0x4 CALLDATALOAD PUSH2 0x13B SSTORE DUP1 RETURN JUMPDEST PUSH1 0x20 DUP4 PUSH2 0x7D1 PUSH2 0x2393 CALLDATASIZE PUSH1 0x4 PUSH2 0x3BF4 JUMP JUMPDEST SWAP4 SWAP2 SWAP1 SWAP3 CALLVALUE SWAP3 PUSH2 0x5537 JUMP JUMPDEST POP POP CALLVALUE PUSH2 0x793 JUMPI DUP2 PUSH1 0x3 NOT CALLDATASIZE ADD SLT PUSH2 0x793 JUMPI PUSH1 0x20 SWAP1 PUSH2 0x156 SLOAD SWAP1 MLOAD SWAP1 DUP2 MSTORE RETURN JUMPDEST POP POP CALLVALUE PUSH2 0x793 JUMPI DUP2 PUSH1 0x3 NOT CALLDATASIZE ADD SLT PUSH2 0x793 JUMPI PUSH1 0x20 SWAP1 PUSH2 0x139 SLOAD SWAP1 MLOAD SWAP1 DUP2 MSTORE RETURN JUMPDEST DUP4 CALLVALUE PUSH2 0x81D JUMPI PUSH1 0x20 CALLDATASIZE PUSH1 0x3 NOT ADD SLT PUSH2 0x81D JUMPI PUSH2 0x23F8 PUSH2 0x5F7F JUMP JUMPDEST PUSH1 0x4 CALLDATALOAD PUSH2 0x154 SSTORE DUP1 RETURN JUMPDEST DUP4 CALLVALUE PUSH2 0x81D JUMPI PUSH1 0x20 CALLDATASIZE PUSH1 0x3 NOT ADD SLT PUSH2 0x81D JUMPI PUSH1 0x4 CALLDATALOAD PUSH1 0x1 PUSH1 0x1 PUSH1 0xA0 SHL SUB DUP2 AND SWAP1 DUP2 SWAP1 SUB PUSH2 0x818 JUMPI PUSH2 0x2431 PUSH2 0x5F7F JUMP JUMPDEST PUSH2 0x158 DUP1 SLOAD PUSH1 0x1 PUSH1 0x1 PUSH1 0xA0 SHL SUB NOT AND SWAP1 SWAP2 OR SWAP1 SSTORE DUP1 RETURN JUMPDEST DUP4 CALLVALUE PUSH2 0x81D JUMPI PUSH1 0x20 CALLDATASIZE PUSH1 0x3 NOT ADD SLT PUSH2 0x81D JUMPI PUSH2 0x2462 PUSH2 0x5F7F JUMP JUMPDEST PUSH1 0x4 CALLDATALOAD PUSH2 0x13E SSTORE DUP1 RETURN JUMPDEST POP POP CALLVALUE PUSH2 0x793 JUMPI DUP2 PUSH1 0x3 NOT CALLDATASIZE ADD SLT PUSH2 0x793 JUMPI PUSH1 0x20 SWAP1 PUSH2 0x154 SLOAD SWAP1 MLOAD SWAP1 DUP2 MSTORE RETURN JUMPDEST POP POP CALLVALUE PUSH2 0x793 JUMPI DUP2 PUSH1 0x3 NOT CALLDATASIZE ADD SLT PUSH2 0x793 JUMPI PUSH1 0x20 SWAP1 PUSH2 0x149 SLOAD SWAP1 MLOAD SWAP1 DUP2 MSTORE RETURN JUMPDEST PUSH1 0x20 DUP4 PUSH2 0x7D1 DUP7 PUSH2 0x24BE CALLDATASIZE PUSH1 0x4 PUSH2 0x3C9D JUMP JUMPDEST SWAP3 SWAP2 CALLVALUE SWAP3 PUSH2 0x5537 JUMP JUMPDEST PUSH1 0x20 DUP4 PUSH2 0x7D1 DUP7 PUSH2 0x24D9 CALLDATASIZE PUSH1 0x4 PUSH2 0x3B3A JUMP JUMPDEST SWAP4 SWAP3 SWAP2 SWAP1 SWAP2 CALLVALUE SWAP4 PUSH2 0x5139 JUMP JUMPDEST PUSH1 0x20 DUP4 PUSH2 0x7D1 DUP7 PUSH2 0x24F7 CALLDATASIZE PUSH1 0x4 PUSH2 0x3C9D JUMP JUMPDEST SWAP3 SWAP2 CALLVALUE SWAP3 PUSH2 0x5449 JUMP JUMPDEST DUP4 CALLVALUE PUSH2 0x81D JUMPI DUP1 PUSH1 0x3 NOT CALLDATASIZE ADD SLT PUSH2 0x81D JUMPI PUSH2 0x2519 PUSH2 0x5F7F JUMP JUMPDEST PUSH1 0x1 PUSH1 0xFF NOT PUSH1 0xCA SLOAD AND OR PUSH1 0xCA SSTORE DUP1 RETURN JUMPDEST POP POP CALLVALUE PUSH2 0x793 JUMPI DUP2 PUSH1 0x3 NOT CALLDATASIZE ADD SLT PUSH2 0x793 JUMPI PUSH1 0x20 SWAP1 PUSH2 0x1F53 PUSH2 0x4CEC JUMP JUMPDEST DUP4 CALLVALUE PUSH2 0x81D JUMPI PUSH1 0x20 CALLDATASIZE PUSH1 0x3 NOT ADD SLT PUSH2 0x81D JUMPI PUSH2 0x2560 PUSH2 0x5F7F JUMP JUMPDEST PUSH1 0x4 CALLDATALOAD PUSH2 0x159 SSTORE DUP1 RETURN JUMPDEST POP POP CALLVALUE PUSH2 0x793 JUMPI DUP2 PUSH1 0x3 NOT CALLDATASIZE ADD SLT PUSH2 0x793 JUMPI PUSH2 0x12F SLOAD SWAP1 MLOAD PUSH1 0x1 PUSH1 0x1 PUSH1 0xA0 SHL SUB SWAP1 SWAP2 AND DUP2 MSTORE PUSH1 0x20 SWAP1 RETURN JUMPDEST POP POP CALLVALUE PUSH2 0x793 JUMPI DUP2 PUSH1 0x3 NOT CALLDATASIZE ADD SLT PUSH2 0x793 JUMPI PUSH2 0x133 SLOAD SWAP1 MLOAD PUSH1 0x1 PUSH1 0x1 PUSH1 0xA0 SHL SUB SWAP1 SWAP2 AND DUP2 MSTORE PUSH1 0x20 SWAP1 RETURN JUMPDEST DUP3 DUP5 PUSH1 0xC0 CALLDATASIZE PUSH1 0x3 NOT ADD SLT PUSH2 0x81D JUMPI POP PUSH1 0x1 PUSH1 0x1 PUSH1 0xA0 SHL SUB SWAP1 PUSH1 0x4 CALLDATALOAD DUP3 DUP2 AND DUP2 SUB PUSH2 0x818 JUMPI PUSH1 0x84 CALLDATALOAD SWAP3 DUP1 DUP5 AND DUP5 SUB PUSH2 0x818 JUMPI PUSH1 0xA4 CALLDATALOAD SWAP1 DUP2 AND DUP2 SUB PUSH2 0x818 JUMPI PUSH1 0x20 SWAP4 PUSH2 0x7D1 SWAP3 PUSH1 0x64 CALLDATALOAD SWAP1 PUSH1 0x44 CALLDATALOAD SWAP1 PUSH1 0x24 CALLDATALOAD SWAP1 PUSH2 0x57D5 JUMP JUMPDEST DUP4 CALLVALUE PUSH2 0x81D JUMPI DUP1 PUSH1 0x3 NOT CALLDATASIZE ADD SLT PUSH2 0x81D JUMPI PUSH1 0x34 PUSH2 0x1F6 SSTORE DUP1 RETURN JUMPDEST POP POP CALLVALUE PUSH2 0x793 JUMPI DUP2 PUSH1 0x3 NOT CALLDATASIZE ADD SLT PUSH2 0x793 JUMPI PUSH1 0x20 SWAP1 PUSH2 0x14E SLOAD SWAP1 MLOAD SWAP1 DUP2 MSTORE RETURN JUMPDEST POP POP CALLVALUE PUSH2 0x793 JUMPI DUP2 PUSH1 0x3 NOT CALLDATASIZE ADD SLT PUSH2 0x793 JUMPI PUSH1 0x20 SWAP1 PUSH1 0xFF PUSH1 0xCA SLOAD PUSH1 0x8 SHR AND SWAP1 MLOAD SWAP1 ISZERO ISZERO DUP2 MSTORE RETURN JUMPDEST POP POP CALLVALUE PUSH2 0x793 JUMPI DUP2 PUSH1 0x3 NOT CALLDATASIZE ADD SLT PUSH2 0x793 JUMPI PUSH2 0x268E PUSH2 0x600D JUMP JUMPDEST PUSH2 0x14D DUP1 SLOAD NUMBER LT PUSH2 0x285E JUMPI PUSH2 0x14C SLOAD NUMBER ADD SWAP1 SSTORE PUSH32 0xD3C59BDA47E141A8EC5A33D241B7F71B86E30D359F83A9227D912858B60404FC DUP3 DUP1 LOG1 PUSH2 0x137 SLOAD DUP3 PUSH2 0x26D3 DUP3 PUSH2 0x4458 JUMP JUMPDEST SWAP2 DUP5 JUMPDEST DUP2 DUP2 LT PUSH2 0x278F JUMPI POP POP DUP1 PUSH2 0x274A JUMPI JUMPDEST SWAP2 DUP1 MLOAD SWAP3 DUP2 DUP5 ADD SWAP1 DUP5 MSTORE PUSH1 0x20 SWAP2 DUP3 DUP6 ADD MSTORE DUP3 MLOAD DUP1 SWAP2 MSTORE DUP2 PUSH1 0x60 DUP6 ADD SWAP4 ADD SWAP2 DUP6 JUMPDEST DUP3 DUP2 LT PUSH2 0x2736 JUMPI DUP7 PUSH32 0xAE5116A8119D08673A0F1DFA7546B95DA4BD54BB17FEDA7C61130AC7859152F6 DUP8 DUP8 SUB DUP9 LOG1 DUP1 RETURN JUMPDEST DUP4 MLOAD DUP6 MSTORE SWAP4 DUP2 ADD SWAP4 SWAP3 DUP2 ADD SWAP3 PUSH1 0x1 ADD PUSH2 0x2705 JUMP JUMPDEST PUSH2 0x2761 PUSH8 0xDE0B6B3A7640000 SWAP2 PUSH2 0x139 SLOAD SWAP1 PUSH2 0x4371 JUMP JUMPDEST DIV PUSH2 0x131 PUSH2 0x2770 DUP3 DUP3 SLOAD PUSH2 0x4433 JUMP JUMPDEST SWAP1 SSTORE PUSH2 0x146 SLOAD PUSH2 0x278A SWAP1 DUP3 SWAP1 PUSH1 0x1 PUSH1 0x1 PUSH1 0xA0 SHL SUB AND PUSH2 0x41D1 JUMP JUMPDEST PUSH2 0x26E5 JUMP JUMPDEST PUSH2 0x2798 DUP2 PUSH2 0x4583 JUMP JUMPDEST PUSH2 0x27A2 DUP2 DUP4 PUSH2 0x49FD JUMP JUMPDEST DUP7 PUSH2 0x150 SWAP2 DUP7 PUSH2 0x27B2 DUP6 DUP6 PUSH2 0x3AF8 JUMP JUMPDEST SWAP1 SLOAD SWAP1 PUSH1 0x3 SHL SHR SWAP2 DUP4 DUP4 SGT PUSH2 0x27CF JUMPI JUMPDEST POP POP POP POP POP PUSH1 0x1 ADD PUSH2 0x26D6 JUMP JUMPDEST SWAP5 PUSH2 0x2814 DUP4 DUP3 SWAP7 SWAP10 PUSH2 0x281A SWAP5 PUSH2 0x280E DUP6 PUSH2 0x2801 PUSH2 0x2807 PUSH2 0x2831 SWAP11 PUSH1 0x1 SWAP15 PUSH8 0xDE0B6B3A7640000 SWAP4 DUP5 SWAP2 PUSH2 0x13A SLOAD PUSH2 0x4371 JUMP JUMPDEST DIV PUSH2 0x4371 JUMP JUMPDEST DIV SWAP3 PUSH2 0x424C JUMP JUMPDEST MSTORE PUSH2 0x4229 JUMP JUMPDEST SWAP8 PUSH2 0x3AF8 JUMP JUMPDEST DUP2 SWAP4 SWAP2 SLOAD SWAP1 PUSH1 0x3 SHL SWAP2 DUP3 SHL SWAP2 PUSH1 0x0 NOT SWAP1 SHL NOT AND OR SWAP1 JUMP JUMPDEST SWAP1 SSTORE PUSH2 0x2854 PUSH2 0x2840 DUP3 DUP8 PUSH2 0x424C JUMP JUMPDEST MLOAD DUP9 DUP5 DUP1 PUSH1 0xA0 SHL SUB PUSH2 0x147 SLOAD AND SWAP2 DUP5 PUSH2 0x493D JUMP JUMPDEST SWAP1 DUP7 CODESIZE DUP7 DUP2 PUSH2 0x27C2 JUMP JUMPDEST DUP2 MLOAD PUSH4 0x101B6859 PUSH1 0xE0 SHL DUP2 MSTORE PUSH1 0x4 SWAP1 REVERT JUMPDEST POP POP CALLVALUE PUSH2 0x793 JUMPI DUP1 PUSH1 0x3 NOT CALLDATASIZE ADD SLT PUSH2 0x793 JUMPI PUSH1 0x1 PUSH1 0x1 PUSH1 0xA0 SHL SUB SWAP1 PUSH1 0x4 CALLDATALOAD DUP3 DUP2 AND DUP2 SUB PUSH2 0x818 JUMPI PUSH1 0x24 CALLDATALOAD SWAP2 DUP4 PUSH2 0x14F SLOAD AND CALLER SUB PUSH2 0xE72 JUMPI POP DUP4 DUP1 DUP1 DUP5 DUP2 SWAP5 PUSH2 0x14E DUP3 DUP2 SLOAD SUB SWAP1 SSTORE PUSH2 0x22A SLOAD CALL PUSH2 0x28C3 PUSH2 0x40CD JUMP JUMPDEST POP ISZERO PUSH2 0x28CD JUMPI DUP3 DUP1 RETURN JUMPDEST PUSH2 0x28DB SWAP2 PUSH2 0x22B SLOAD AND PUSH2 0x41D1 JUMP JUMPDEST CODESIZE DUP1 DUP3 DUP1 RETURN JUMPDEST POP POP CALLVALUE PUSH2 0x793 JUMPI DUP2 PUSH1 0x3 NOT CALLDATASIZE ADD SLT PUSH2 0x793 JUMPI PUSH1 0x20 SWAP1 PUSH2 0x157 SLOAD SWAP1 MLOAD SWAP1 DUP2 MSTORE RETURN JUMPDEST POP POP CALLVALUE PUSH2 0x793 JUMPI DUP2 PUSH1 0x3 NOT CALLDATASIZE ADD SLT PUSH2 0x793 JUMPI PUSH1 0x20 SWAP1 PUSH2 0x7D1 PUSH2 0x1F6 SLOAD PUSH8 0xDE0B6B3A7640000 PUSH2 0x149 SLOAD DIV SWAP1 PUSH2 0x4229 JUMP JUMPDEST DUP4 CALLVALUE PUSH2 0x81D JUMPI PUSH1 0x20 CALLDATASIZE PUSH1 0x3 NOT ADD SLT PUSH2 0x81D JUMPI PUSH2 0x294B PUSH2 0x5F7F JUMP JUMPDEST PUSH1 0x4 CALLDATALOAD PUSH2 0x143 SSTORE DUP1 RETURN JUMPDEST DUP3 DUP5 CALLVALUE PUSH2 0x81D JUMPI DUP2 PUSH1 0x3 NOT CALLDATASIZE ADD SLT PUSH2 0x81D JUMPI PUSH1 0x1 PUSH1 0x1 PUSH1 0xA0 SHL SUB PUSH1 0x4 CALLDATALOAD DUP2 DUP2 AND DUP2 SUB PUSH2 0x818 JUMPI DUP2 PUSH2 0x14F SLOAD AND CALLER SUB PUSH2 0xC4D JUMPI SWAP1 PUSH2 0xC4A SWAP2 PUSH1 0x24 CALLDATALOAD SWAP2 PUSH2 0x133 SLOAD AND PUSH2 0x5F46 JUMP JUMPDEST DUP4 CALLVALUE PUSH2 0x81D JUMPI PUSH1 0x20 CALLDATASIZE PUSH1 0x3 NOT ADD SLT PUSH2 0x81D JUMPI PUSH1 0x4 CALLDATALOAD PUSH1 0x1 PUSH1 0x1 PUSH1 0xA0 SHL SUB DUP2 AND DUP2 SUB PUSH2 0x818 JUMPI PUSH2 0xC4A SWAP1 PUSH2 0x1DAD PUSH2 0x5F7F JUMP JUMPDEST PUSH1 0x20 DUP4 PUSH2 0x7D1 DUP7 PUSH2 0x29DD CALLDATASIZE PUSH1 0x4 PUSH2 0x3C9D JUMP JUMPDEST SWAP3 SWAP2 SWAP1 SWAP2 PUSH2 0x5706 JUMP JUMPDEST DUP3 DUP5 CALLVALUE PUSH2 0x81D JUMPI DUP1 PUSH1 0x3 NOT CALLDATASIZE ADD SLT PUSH2 0x81D JUMPI POP PUSH32 0x0 PUSH1 0x1 PUSH1 0x1 PUSH1 0xA0 SHL SUB AND ADDRESS SUB PUSH2 0x2A52 JUMPI PUSH1 0x20 SWAP1 MLOAD PUSH32 0x360894A13BA1A3210667C828492DB98DCA3E2076CC3735A920A3CA505D382BBC DUP2 MSTORE RETURN JUMPDEST MLOAD PUSH3 0x461BCD PUSH1 0xE5 SHL DUP2 MSTORE PUSH1 0x20 PUSH1 0x4 DUP3 ADD MSTORE PUSH1 0x38 PUSH1 0x24 DUP3 ADD MSTORE PUSH32 0x555550535570677261646561626C653A206D757374206E6F742062652063616C PUSH1 0x44 DUP3 ADD MSTORE PUSH32 0x6C6564207468726F7567682064656C656761746563616C6C0000000000000000 PUSH1 0x64 DUP3 ADD MSTORE PUSH1 0x84 SWAP1 REVERT JUMPDEST DUP4 CALLVALUE PUSH2 0x81D JUMPI DUP1 PUSH1 0x3 NOT CALLDATASIZE ADD SLT PUSH2 0x81D JUMPI PUSH2 0x2AD4 PUSH2 0x5F7F JUMP JUMPDEST PUSH1 0xFF NOT PUSH1 0xCA SLOAD AND PUSH1 0xCA SSTORE DUP1 RETURN JUMPDEST POP POP PUSH1 0x60 CALLDATASIZE PUSH1 0x3 NOT ADD SLT PUSH2 0x818 JUMPI PUSH1 0x1 PUSH1 0x1 PUSH1 0xA0 SHL SUB SWAP2 PUSH1 0x4 CALLDATALOAD SWAP1 DUP4 DUP3 AND DUP3 SUB PUSH2 0x818 JUMPI PUSH1 0x44 CALLDATALOAD SWAP4 DUP5 AND DUP5 SUB PUSH2 0x818 JUMPI PUSH1 0x20 SWAP4 PUSH2 0x7D1 SWAP3 CALLVALUE SWAP1 PUSH1 0x24 CALLDATALOAD SWAP1 PUSH2 0x5006 JUMP JUMPDEST POP POP DUP1 PUSH1 0x3 NOT CALLDATASIZE ADD SLT PUSH2 0x793 JUMPI PUSH1 0x4 CALLDATALOAD SWAP1 PUSH1 0x1 PUSH1 0x1 PUSH1 0xA0 SHL SUB SWAP1 DUP2 DUP4 AND DUP4 SUB PUSH2 0x818 JUMPI DUP4 SWAP3 PUSH1 0x24 CALLDATALOAD SWAP3 PUSH8 0xFFFFFFFFFFFFFFFF DUP5 GT PUSH2 0x2C13 JUMPI CALLDATASIZE PUSH1 0x23 DUP6 ADD SLT ISZERO PUSH2 0x2C13 JUMPI DUP4 PUSH1 0x4 ADD CALLDATALOAD SWAP1 PUSH2 0x2B81 PUSH2 0x2B78 DUP4 PUSH2 0x3C81 JUMP JUMPDEST SWAP5 MLOAD SWAP5 DUP6 PUSH2 0x3C49 JUMP JUMPDEST DUP2 DUP5 MSTORE CALLDATASIZE PUSH1 0x24 DUP4 DUP8 ADD ADD GT PUSH2 0x2C0F JUMPI PUSH2 0xC4A SWAP6 PUSH1 0x20 DUP4 PUSH2 0x2C02 SWAP5 PUSH1 0x24 PUSH1 0x1 SWAP10 ADD DUP4 DUP10 ADD CALLDATACOPY DUP7 ADD ADD MSTORE DUP1 PUSH32 0x0 AND SWAP1 PUSH2 0x2BD9 DUP3 ADDRESS EQ ISZERO PUSH2 0x3D29 JUMP JUMPDEST PUSH32 0x360894A13BA1A3210667C828492DB98DCA3E2076CC3735A920A3CA505D382BBC SLOAD AND EQ PUSH2 0x3D8A JUMP JUMPDEST PUSH2 0x2C0A PUSH2 0x5F7F JUMP JUMPDEST PUSH2 0x3DEB JUMP JUMPDEST DUP6 DUP1 REVERT JUMPDEST DUP5 DUP1 REVERT JUMPDEST POP POP CALLVALUE PUSH2 0x793 JUMPI DUP2 PUSH1 0x3 NOT CALLDATASIZE ADD SLT PUSH2 0x793 JUMPI PUSH1 0x20 SWAP1 PUSH2 0x13B SLOAD SWAP1 MLOAD SWAP1 DUP2 MSTORE RETURN JUMPDEST POP POP CALLVALUE PUSH2 0x793 JUMPI DUP2 PUSH1 0x3 NOT CALLDATASIZE ADD SLT PUSH2 0x793 JUMPI PUSH2 0x147 SLOAD SWAP1 MLOAD PUSH1 0x1 PUSH1 0x1 PUSH1 0xA0 SHL SUB SWAP1 SWAP2 AND DUP2 MSTORE PUSH1 0x20 SWAP1 RETURN JUMPDEST POP POP CALLVALUE PUSH2 0x793 JUMPI DUP2 PUSH1 0x3 NOT CALLDATASIZE ADD SLT PUSH2 0x793 JUMPI PUSH1 0x20 SWAP1 PUSH2 0x14C SLOAD SWAP1 MLOAD SWAP1 DUP2 MSTORE RETURN JUMPDEST POP POP DUP1 PUSH1 0x3 NOT CALLDATASIZE ADD SLT PUSH2 0x793 JUMPI PUSH1 0x4 CALLDATALOAD PUSH1 0x1 PUSH1 0x1 PUSH1 0xA0 SHL SUB DUP2 AND DUP2 SUB PUSH2 0x818 JUMPI PUSH1 0x20 SWAP3 PUSH2 0x7D1 SWAP2 CALLER SWAP1 CALLVALUE SWAP1 PUSH1 0x24 CALLDATALOAD SWAP1 PUSH2 0x50C0 JUMP JUMPDEST POP POP CALLVALUE PUSH2 0x793 JUMPI PUSH1 0x20 CALLDATASIZE PUSH1 0x3 NOT ADD SLT PUSH2 0x793 JUMPI PUSH1 0x4 CALLDATALOAD PUSH2 0x137 DUP1 SLOAD DUP3 LT ISZERO PUSH2 0xB3B JUMPI SWAP1 PUSH2 0x2CE1 SWAP2 PUSH2 0x3C2D JUMP JUMPDEST POP DUP1 SLOAD PUSH1 0x1 SWAP1 SWAP2 ADD SLOAD DUP3 MLOAD SWAP2 DUP3 MSTORE PUSH1 0x1 PUSH1 0x1 PUSH1 0xA0 SHL SUB AND PUSH1 0x20 DUP3 ADD MSTORE RETURN JUMPDEST DUP4 SWAP2 POP CALLVALUE PUSH2 0x793 JUMPI CALLDATASIZE PUSH1 0x3 NOT ADD SLT PUSH2 0x81D JUMPI POP PUSH2 0x2D1A PUSH2 0x58C0 JUMP JUMPDEST POP PUSH2 0x14F SLOAD PUSH1 0x1 PUSH1 0x1 PUSH1 0xA0 SHL SUB SWAP1 DUP2 AND CALLER SUB PUSH2 0x13BB JUMPI PUSH2 0xE6E PUSH2 0xE64 SWAP2 PUSH2 0x2D42 CALLDATASIZE PUSH1 0x4 PUSH2 0x5ED3 JUMP JUMPDEST SWAP4 PUSH2 0x2D4B PUSH2 0x58C0 JUMP JUMPDEST POP PUSH2 0x2D54 PUSH2 0x4FE4 JUMP JUMPDEST PUSH2 0x2D5C PUSH2 0x600D JUMP JUMPDEST PUSH2 0x137D PUSH2 0xE04 DUP3 MLOAD PUSH4 0xD9B6C2E5 PUSH1 0xE0 SHL PUSH1 0x20 DUP3 ADD MSTORE PUSH2 0xDE9 PUSH1 0x24 DUP3 ADD DUP10 PUSH2 0x54E7 JUMP JUMPDEST PUSH1 0x20 DUP4 PUSH2 0x7D1 PUSH2 0x2D8F CALLDATASIZE PUSH1 0x4 PUSH2 0x3BF4 JUMP JUMPDEST SWAP4 SWAP2 SWAP1 SWAP3 CALLVALUE SWAP3 PUSH2 0x5449 JUMP JUMPDEST DUP3 PUSH1 0x60 CALLDATASIZE PUSH1 0x3 NOT ADD SLT PUSH2 0x818 JUMPI PUSH1 0x44 CALLDATALOAD SWAP1 PUSH1 0x1 PUSH1 0x1 PUSH1 0xA0 SHL SUB DUP3 AND DUP3 SUB PUSH2 0x818 JUMPI PUSH2 0x7D1 PUSH1 0x20 SWAP3 CALLER PUSH1 0x24 CALLDATALOAD PUSH1 0x4 CALLDATALOAD PUSH2 0x5613 JUMP JUMPDEST POP POP PUSH1 0x60 CALLDATASIZE PUSH1 0x3 NOT ADD SLT PUSH2 0x818 JUMPI PUSH1 0x4 CALLDATALOAD PUSH1 0x1 PUSH1 0x1 PUSH1 0xA0 SHL SUB DUP2 AND DUP2 SUB PUSH2 0x818 JUMPI PUSH1 0x20 SWAP3 PUSH2 0x7D1 SWAP2 CALLER SWAP1 PUSH1 0x44 CALLDATALOAD SWAP1 PUSH1 0x24 CALLDATALOAD SWAP1 PUSH2 0x5706 JUMP JUMPDEST POP POP CALLVALUE PUSH2 0x793 JUMPI DUP2 PUSH1 0x3 NOT CALLDATASIZE ADD SLT PUSH2 0x793 JUMPI PUSH1 0x20 SWAP1 PUSH2 0x13E SLOAD SWAP1 MLOAD SWAP1 DUP2 MSTORE RETURN JUMPDEST POP POP CALLVALUE PUSH2 0x793 JUMPI DUP2 PUSH1 0x3 NOT CALLDATASIZE ADD SLT PUSH2 0x793 JUMPI PUSH1 0x20 SWAP1 PUSH2 0x7D1 PUSH2 0x2E4F PUSH2 0x2E47 PUSH2 0x4CEC JUMP JUMPDEST SWAP2 SWAP1 SWAP2 PUSH2 0x4260 JUMP JUMPDEST SWAP2 PUSH2 0x4AE7 JUMP JUMPDEST POP POP CALLVALUE PUSH2 0x793 JUMPI DUP2 PUSH1 0x3 NOT CALLDATASIZE ADD SLT PUSH2 0x793 JUMPI PUSH1 0xCA SLOAD PUSH1 0xFF DUP2 PUSH1 0x8 SHR AND ISZERO PUSH2 0x2EBF JUMPI PUSH1 0x10 DUP2 SWAP1 SHR PUSH1 0x1 PUSH1 0x1 PUSH1 0xA0 SHL SUB AND CALLER SUB PUSH2 0x2184 JUMPI PUSH2 0xFF00 NOT AND PUSH1 0xCA SSTORE MLOAD CALLER DUP2 MSTORE PUSH32 0x5DB9EE0A495BF2E6FF9C91A7834C1BA4FDD244A5E8AA4E537BD38AEAE4B073AA SWAP1 PUSH1 0x20 SWAP1 LOG1 DUP1 RETURN JUMPDEST DUP2 MLOAD PUSH4 0x7C7FD079 PUSH1 0xE0 SHL DUP2 MSTORE PUSH1 0x4 SWAP1 REVERT JUMPDEST DUP3 DUP5 PUSH1 0x80 CALLDATASIZE PUSH1 0x3 NOT ADD SLT PUSH2 0x81D JUMPI POP PUSH1 0x1 PUSH1 0x1 PUSH1 0xA0 SHL SUB SWAP1 PUSH1 0x44 CALLDATALOAD DUP3 DUP2 AND DUP2 SUB PUSH2 0x818 JUMPI PUSH1 0x64 CALLDATALOAD SWAP3 DUP4 AND DUP4 SUB PUSH2 0x818 JUMPI PUSH1 0x20 SWAP3 PUSH2 0x7D1 SWAP2 PUSH1 0x24 CALLDATALOAD PUSH1 0x4 CALLDATALOAD PUSH2 0x5613 JUMP JUMPDEST DUP4 CALLVALUE PUSH2 0x81D JUMPI PUSH1 0x20 CALLDATASIZE PUSH1 0x3 NOT ADD SLT PUSH2 0x81D JUMPI PUSH1 0x4 CALLDATALOAD PUSH1 0x1 PUSH1 0x1 PUSH1 0xA0 SHL SUB DUP2 AND SWAP1 DUP2 SWAP1 SUB PUSH2 0x818 JUMPI PUSH2 0x2F41 PUSH2 0x5F7F JUMP JUMPDEST PUSH2 0x14F DUP1 SLOAD PUSH1 0x1 PUSH1 0x1 PUSH1 0xA0 SHL SUB NOT AND SWAP1 SWAP2 OR SWAP1 SSTORE DUP1 RETURN JUMPDEST DUP4 CALLVALUE PUSH2 0x81D JUMPI PUSH1 0x20 CALLDATASIZE PUSH1 0x3 NOT ADD SLT PUSH2 0x81D JUMPI PUSH2 0x2F72 PUSH2 0x5F7F JUMP JUMPDEST PUSH1 0x4 CALLDATALOAD PUSH2 0x190 SSTORE DUP1 RETURN JUMPDEST DUP3 PUSH1 0x60 CALLDATASIZE PUSH1 0x3 NOT ADD SLT PUSH2 0x818 JUMPI PUSH1 0x1 PUSH1 0x1 PUSH1 0xA0 SHL SUB SWAP1 PUSH1 0x4 CALLDATALOAD DUP3 DUP2 AND DUP2 SUB PUSH2 0x818 JUMPI PUSH1 0x44 CALLDATALOAD SWAP3 DUP4 AND DUP4 SUB PUSH2 0x818 JUMPI PUSH1 0x20 SWAP3 PUSH2 0x7D1 SWAP2 CALLER SWAP1 CALLVALUE SWAP1 PUSH1 0x24 CALLDATALOAD SWAP1 PUSH2 0x5006 JUMP JUMPDEST DUP4 DUP4 CALLVALUE PUSH2 0x793 JUMPI PUSH2 0x100 SWAP2 DUP3 PUSH1 0x3 NOT CALLDATASIZE ADD SLT PUSH2 0x81D JUMPI POP PUSH2 0x2FDD PUSH2 0x58C0 JUMP JUMPDEST POP PUSH2 0x14F SLOAD PUSH1 0x1 PUSH1 0x1 PUSH1 0xA0 SHL SUB SWAP3 SWAP1 DUP4 AND CALLER SUB PUSH2 0x13BB JUMPI PUSH2 0x3000 DUP3 MLOAD SWAP2 DUP3 PUSH2 0x3C49 JUMP JUMPDEST PUSH1 0x4 CALLDATALOAD DUP4 DUP2 AND DUP2 SUB PUSH2 0x818 JUMPI DUP2 MSTORE PUSH1 0x24 CALLDATALOAD DUP4 DUP2 AND DUP2 SUB PUSH2 0x818 JUMPI PUSH1 0x20 DUP3 ADD MSTORE PUSH1 0x44 CALLDATALOAD DUP3 DUP3 ADD MSTORE PUSH1 0x64 CALLDATALOAD PUSH1 0x60 DUP3 ADD MSTORE PUSH1 0x80 DUP2 ADD SWAP2 PUSH1 0x84 CALLDATALOAD DUP4 MSTORE PUSH1 0xA4 CALLDATALOAD SWAP1 DUP5 DUP3 AND DUP3 SUB PUSH2 0x818 JUMPI PUSH1 0xA0 DUP4 ADD SWAP2 DUP3 MSTORE PUSH1 0xC4 CALLDATALOAD DUP6 DUP2 AND DUP2 SUB PUSH2 0x818 JUMPI PUSH1 0xC0 DUP5 ADD MSTORE PUSH1 0xE4 CALLDATALOAD SWAP3 DUP6 DUP5 AND DUP5 SUB PUSH2 0x818 JUMPI DUP6 PUSH2 0xE6E SWAP6 PUSH2 0x30BC PUSH2 0xE04 PUSH2 0x9E4 PUSH2 0xDF9 DUP7 PUSH2 0x15A3 SWAP14 PUSH2 0xE64 SWAP9 ADD SWAP11 DUP12 MSTORE PUSH2 0x3090 PUSH2 0x58C0 JUMP JUMPDEST POP PUSH2 0x3099 PUSH2 0x4FE4 JUMP JUMPDEST PUSH2 0x30A1 PUSH2 0x600D JUMP JUMPDEST DUP9 MLOAD PUSH4 0x70F090ED PUSH1 0xE1 SHL PUSH1 0x20 DUP3 ADD MSTORE SWAP3 DUP4 SWAP2 PUSH1 0x24 DUP4 ADD PUSH2 0x5226 JUMP JUMPDEST SWAP9 SWAP3 DUP1 SWAP12 DUP11 SWAP7 SWAP4 SWAP14 SWAP3 SWAP10 DUP7 MLOAD PUSH2 0x1598 PUSH2 0x14E SWAP2 DUP3 SLOAD PUSH2 0x4433 JUMP JUMPDEST POP POP CALLVALUE PUSH2 0x793 JUMPI PUSH1 0x20 CALLDATASIZE PUSH1 0x3 NOT ADD SLT PUSH2 0x793 JUMPI PUSH1 0x4 CALLDATALOAD SWAP2 PUSH2 0x138 SWAP1 DUP2 SLOAD DUP5 LT ISZERO PUSH2 0x81D JUMPI POP PUSH1 0x20 SWAP3 PUSH2 0x2269 SWAP2 PUSH2 0x3AF8 JUMP JUMPDEST POP POP CALLVALUE PUSH2 0x793 JUMPI PUSH1 0x20 CALLDATASIZE PUSH1 0x3 NOT ADD SLT PUSH2 0x793 JUMPI PUSH1 0x4 CALLDATALOAD SWAP1 PUSH1 0x1 PUSH1 0x1 PUSH1 0xA0 SHL SUB SWAP1 DUP2 DUP4 AND DUP4 SUB PUSH2 0x818 JUMPI PUSH2 0xC4A SWAP3 PUSH2 0x3169 DUP4 DUP7 SWAP5 PUSH32 0x0 AND SWAP1 PUSH2 0x2BD9 DUP3 ADDRESS EQ ISZERO PUSH2 0x3D29 JUMP JUMPDEST PUSH2 0x3171 PUSH2 0x5F7F JUMP JUMPDEST PUSH2 0x3186 PUSH2 0x317D DUP5 PUSH2 0x3C81 JUMP JUMPDEST SWAP3 MLOAD SWAP3 DUP4 PUSH2 0x3C49 JUMP JUMPDEST DUP3 DUP3 MSTORE PUSH1 0x1F NOT PUSH2 0x3195 DUP5 PUSH2 0x3C81 JUMP JUMPDEST ADD CALLDATASIZE PUSH1 0x20 DUP5 ADD CALLDATACOPY PUSH2 0x3DEB JUMP JUMPDEST POP POP PUSH1 0x80 CALLDATASIZE PUSH1 0x3 NOT ADD SLT PUSH2 0x793 JUMPI PUSH1 0x4 CALLDATALOAD PUSH1 0x1 PUSH1 0x1 PUSH1 0xA0 SHL SUB DUP2 AND DUP2 SUB PUSH2 0x818 JUMPI PUSH1 0x20 SWAP3 PUSH2 0x7D1 SWAP2 CALLER SWAP1 PUSH1 0x64 CALLDATALOAD SWAP1 PUSH1 0x44 CALLDATALOAD SWAP1 PUSH1 0x24 CALLDATALOAD SWAP1 PUSH2 0x57D5 JUMP JUMPDEST POP POP CALLVALUE PUSH2 0x793 JUMPI DUP2 PUSH1 0x3 NOT CALLDATASIZE ADD SLT PUSH2 0x793 JUMPI PUSH2 0x31F6 PUSH2 0x600D JUMP JUMPDEST PUSH2 0x14B DUP1 SLOAD PUSH1 0xFF DUP2 AND DUP1 PUSH2 0x32C1 JUMPI JUMPDEST DUP1 PUSH2 0x32A7 JUMPI JUMPDEST PUSH2 0x3213 JUMPI DUP4 DUP1 RETURN JUMPDEST PUSH2 0xFF00 NOT AND PUSH2 0x100 OR SWAP1 SSTORE DUP1 MLOAD SWAP1 DUP3 SWAP1 PUSH32 0x8B77276C97A5709F0D6DB52329848A254EB760CE8BE80D281799F633BDB69E83 DUP3 DUP1 LOG1 PUSH2 0x133 SLOAD PUSH1 0x1 PUSH1 0x1 PUSH1 0xA0 SHL SUB AND DUP1 EXTCODESIZE ISZERO PUSH2 0xA08 JUMPI DUP4 PUSH1 0x4 DUP2 DUP6 DUP1 SWAP5 PUSH4 0x8456CB59 PUSH1 0xE0 SHL DUP4 MSTORE GAS CALL SWAP1 DUP2 ISZERO PUSH2 0x329C JUMPI POP PUSH2 0x328C JUMPI JUMPDEST POP POP PUSH2 0x3285 PUSH2 0x448A JUMP JUMPDEST CODESIZE DUP1 DUP1 DUP4 DUP1 RETURN JUMPDEST PUSH2 0x3295 SWAP2 PUSH2 0x3C49 JUMP JUMPDEST CODESIZE DUP2 PUSH2 0x327B JUMP JUMPDEST MLOAD SWAP2 RETURNDATASIZE SWAP2 POP DUP3 RETURNDATACOPY RETURNDATASIZE SWAP1 REVERT JUMPDEST POP PUSH2 0x32B6 PUSH2 0x1945 PUSH2 0xC81 PUSH2 0x4663 JUMP JUMPDEST PUSH2 0x14A SLOAD LT ISZERO PUSH2 0x320B JUMP JUMPDEST POP PUSH1 0xFF DUP2 PUSH1 0x8 SHR AND ISZERO PUSH2 0x3205 JUMP JUMPDEST POP POP CALLVALUE PUSH2 0x793 JUMPI DUP2 PUSH1 0x3 NOT CALLDATASIZE ADD SLT PUSH2 0x793 JUMPI PUSH1 0x20 SWAP1 PUSH2 0x13F SLOAD SWAP1 MLOAD SWAP1 DUP2 MSTORE RETURN JUMPDEST POP POP PUSH1 0x20 CALLDATASIZE PUSH1 0x3 NOT ADD SLT PUSH2 0x793 JUMPI PUSH2 0x7D1 PUSH1 0x20 SWAP3 CALLER CALLVALUE PUSH1 0x4 CALLDATALOAD PUSH2 0x4E43 JUMP JUMPDEST POP POP CALLVALUE PUSH2 0x793 JUMPI DUP2 PUSH1 0x3 NOT CALLDATASIZE ADD SLT PUSH2 0x793 JUMPI PUSH1 0x20 SWAP1 PUSH2 0x143 SLOAD SWAP1 MLOAD SWAP1 DUP2 MSTORE RETURN JUMPDEST DUP4 CALLVALUE PUSH2 0x81D JUMPI PUSH1 0x20 CALLDATASIZE PUSH1 0x3 NOT ADD SLT PUSH2 0x81D JUMPI PUSH1 0x4 CALLDATALOAD PUSH1 0x1 PUSH1 0x1 PUSH1 0xA0 SHL SUB DUP2 AND DUP2 SUB PUSH2 0x793 JUMPI PUSH2 0x335A PUSH2 0x5F7F JUMP JUMPDEST PUSH1 0xCA DUP1 SLOAD PUSH3 0x10000 PUSH1 0x1 PUSH1 0xB0 SHL SUB NOT AND PUSH1 0x10 SWAP3 SWAP1 SWAP3 SHL PUSH3 0x10000 PUSH1 0x1 PUSH1 0xB0 SHL SUB AND SWAP2 SWAP1 SWAP2 OR SWAP1 SSTORE DUP1 RETURN JUMPDEST DUP4 CALLVALUE PUSH2 0x81D JUMPI PUSH1 0x20 CALLDATASIZE PUSH1 0x3 NOT ADD SLT PUSH2 0x81D JUMPI PUSH2 0x339E PUSH2 0x5F7F JUMP JUMPDEST PUSH1 0x4 CALLDATALOAD PUSH2 0x14A SSTORE DUP1 RETURN JUMPDEST POP POP CALLVALUE PUSH2 0x793 JUMPI DUP2 PUSH1 0x3 NOT CALLDATASIZE ADD SLT PUSH2 0x793 JUMPI PUSH1 0x20 SWAP1 PUSH2 0x140 SLOAD SWAP1 MLOAD SWAP1 DUP2 MSTORE RETURN JUMPDEST DUP4 CALLVALUE PUSH2 0x81D JUMPI PUSH1 0x20 CALLDATASIZE PUSH1 0x3 NOT ADD SLT PUSH2 0x81D JUMPI PUSH1 0x4 CALLDATALOAD PUSH1 0x1 PUSH1 0x1 PUSH1 0xA0 SHL SUB DUP2 AND SWAP1 DUP2 SWAP1 SUB PUSH2 0x793 JUMPI PUSH2 0x33F7 PUSH2 0x5F7F JUMP JUMPDEST PUSH2 0x147 DUP1 SLOAD PUSH1 0x1 PUSH1 0x1 PUSH1 0xA0 SHL SUB NOT AND SWAP1 SWAP2 OR SWAP1 SSTORE DUP1 RETURN JUMPDEST POP POP CALLVALUE PUSH2 0x793 JUMPI PUSH1 0x20 CALLDATASIZE PUSH1 0x3 NOT ADD SLT PUSH2 0x793 JUMPI PUSH1 0x4 CALLDATALOAD PUSH1 0x1 PUSH1 0x1 PUSH1 0xA0 SHL SUB DUP2 AND SWAP1 DUP2 SWAP1 SUB PUSH2 0xA08 JUMPI DUP3 DUP3 SWAP2 PUSH1 0x20 SWAP5 MSTORE PUSH2 0x144 DUP5 MSTORE KECCAK256 SLOAD SWAP1 MLOAD SWAP1 DUP2 MSTORE RETURN JUMPDEST POP POP DUP1 PUSH1 0x3 NOT CALLDATASIZE ADD SLT PUSH2 0x793 JUMPI PUSH1 0x4 CALLDATALOAD PUSH1 0x1 PUSH1 0x1 PUSH1 0xA0 SHL SUB DUP2 AND DUP2 SUB PUSH2 0xA08 JUMPI PUSH1 0x20 SWAP3 PUSH2 0x7D1 SWAP2 CALLER SWAP1 CALLVALUE SWAP1 PUSH1 0x24 CALLDATALOAD SWAP1 PUSH2 0x5006 JUMP JUMPDEST POP POP CALLVALUE PUSH2 0x793 JUMPI DUP2 PUSH1 0x3 NOT CALLDATASIZE ADD SLT PUSH2 0x793 JUMPI PUSH1 0x20 SWAP1 PUSH1 0xFF PUSH2 0x14B SLOAD PUSH1 0x8 SHR AND SWAP1 MLOAD SWAP1 ISZERO ISZERO DUP2 MSTORE RETURN JUMPDEST POP POP CALLVALUE PUSH2 0x793 JUMPI PUSH1 0xA0 CALLDATASIZE PUSH1 0x3 NOT ADD SLT PUSH2 0x793 JUMPI PUSH2 0x34C2 PUSH2 0x58C0 JUMP JUMPDEST POP PUSH2 0x14F SLOAD PUSH1 0x1 PUSH1 0x1 PUSH1 0xA0 SHL SUB SWAP3 SWAP1 DUP4 AND CALLER SUB PUSH2 0x13BB JUMPI SWAP1 PUSH2 0x3553 SWAP2 PUSH2 0x34E9 CALLDATASIZE PUSH1 0x4 PUSH2 0x58E7 JUMP JUMPDEST SWAP2 PUSH2 0x34F2 PUSH2 0x58C0 JUMP JUMPDEST POP PUSH2 0x34FB PUSH2 0x4FE4 JUMP JUMPDEST PUSH2 0x3503 PUSH2 0x600D JUMP JUMPDEST PUSH8 0xDE0B6B3A7640000 PUSH2 0x3526 PUSH2 0x1165 PUSH2 0x351D PUSH2 0x16EF PUSH2 0x4663 JUMP JUMPDEST DUP8 MLOAD SWAP3 SWAP2 PUSH2 0x4AB3 JUMP JUMPDEST DIV SWAP5 DUP2 DUP5 ADD SWAP1 DUP1 DUP3 MLOAD AND SWAP2 PUSH2 0x3548 PUSH1 0x80 DUP8 ADD SWAP4 DUP10 DUP5 DUP7 MLOAD AND PUSH2 0x13C SLOAD SWAP3 PUSH2 0x5987 JUMP JUMPDEST SWAP7 SWAP2 DUP11 SWAP10 SWAP2 SWAP10 PUSH2 0x4229 JUMP JUMPDEST SWAP7 PUSH1 0x20 DUP2 ADD SWAP10 DUP11 MLOAD DUP1 DUP11 GT PUSH2 0x367C JUMPI POP DUP9 ISZERO PUSH2 0x366B JUMPI DUP2 PUSH1 0x20 SWAP2 DUP7 PUSH1 0x60 PUSH2 0x35D6 SWAP7 SWAP6 MLOAD SWAP4 ADD MLOAD AND SWAP1 PUSH2 0x134 PUSH2 0x3589 DUP5 DUP3 SLOAD PUSH2 0x4229 JUMP JUMPDEST SWAP1 SSTORE PUSH2 0x3599 PUSH2 0x131 SWAP2 DUP3 SLOAD PUSH2 0x4229 JUMP JUMPDEST SWAP1 SSTORE PUSH2 0x133 SLOAD DUP10 MLOAD PUSH4 0x40C10F19 PUSH1 0xE0 SHL DUP2 MSTORE PUSH1 0x1 PUSH1 0x1 PUSH1 0xA0 SHL SUB SWAP1 SWAP3 AND PUSH1 0x4 DUP4 ADD MSTORE PUSH1 0x24 DUP3 ADD SWAP3 SWAP1 SWAP3 MSTORE SWAP4 DUP5 SWAP2 DUP8 AND SWAP1 DUP3 SWAP1 DUP6 SWAP1 DUP3 SWAP1 PUSH1 0x44 DUP3 ADD SWAP1 JUMP JUMPDEST SUB SWAP3 GAS CALL DUP1 ISZERO PUSH2 0x365F JUMPI PUSH2 0x3609 JUMPI JUMPDEST POP POP SWAP7 PUSH2 0x1239 SWAP3 DUP3 PUSH2 0x15A3 DUP9 DUP9 SWAP6 PUSH2 0xE6E SWAP11 SWAP12 SWAP13 DUP7 MLOAD PUSH2 0x1598 PUSH2 0x14E SWAP2 DUP3 SLOAD PUSH2 0x4433 JUMP JUMPDEST PUSH1 0x20 DUP3 RETURNDATASIZE DUP3 GT PUSH2 0x3657 JUMPI JUMPDEST DUP2 PUSH2 0x3621 PUSH1 0x20 SWAP4 DUP4 PUSH2 0x3C49 JUMP JUMPDEST DUP2 ADD SUB SLT PUSH2 0x81D JUMPI POP SWAP3 DUP3 PUSH2 0x15A3 DUP9 DUP9 SWAP6 PUSH2 0xE6E SWAP11 SWAP12 SWAP13 SWAP6 PUSH2 0x3645 PUSH2 0x1239 SWAP10 PUSH2 0x45CA JUMP JUMPDEST POP SWAP6 SWAP13 SWAP12 POP SWAP6 POP SWAP9 POP POP DUP2 SWAP5 POP PUSH2 0x35E5 JUMP JUMPDEST RETURNDATASIZE SWAP2 POP PUSH2 0x3614 JUMP JUMPDEST POP DUP6 MLOAD SWAP1 RETURNDATASIZE SWAP1 DUP3 RETURNDATACOPY RETURNDATASIZE SWAP1 REVERT JUMPDEST DUP7 MLOAD PUSH4 0xF3E39B5D PUSH1 0xE0 SHL DUP2 MSTORE PUSH1 0x4 SWAP1 REVERT JUMPDEST PUSH1 0x44 SWAP1 DUP11 DUP10 MLOAD SWAP2 PUSH4 0xB63F1A7 PUSH1 0xE0 SHL DUP4 MSTORE PUSH1 0x4 DUP4 ADD MSTORE PUSH1 0x24 DUP3 ADD MSTORE REVERT JUMPDEST DUP4 CALLVALUE PUSH2 0x81D JUMPI PUSH1 0x20 CALLDATASIZE PUSH1 0x3 NOT ADD SLT PUSH2 0x81D JUMPI PUSH2 0x36B3 PUSH2 0x5F7F JUMP JUMPDEST PUSH1 0x4 CALLDATALOAD PUSH2 0x142 SSTORE DUP1 RETURN JUMPDEST DUP4 CALLVALUE PUSH2 0x81D JUMPI PUSH1 0x20 CALLDATASIZE PUSH1 0x3 NOT ADD SLT PUSH2 0x81D JUMPI PUSH1 0x4 CALLDATALOAD DUP1 ISZERO ISZERO DUP1 SWAP2 SUB PUSH2 0x793 JUMPI PUSH2 0x36E4 PUSH2 0x5F7F JUMP JUMPDEST PUSH2 0x14B SWAP1 PUSH1 0xFF DUP1 NOT DUP4 SLOAD AND SWAP2 AND OR SWAP1 SSTORE DUP1 RETURN JUMPDEST POP POP CALLVALUE PUSH2 0x793 JUMPI DUP2 PUSH1 0x3 NOT CALLDATASIZE ADD SLT PUSH2 0x793 JUMPI PUSH1 0x20 SWAP1 PUSH2 0x7D1 PUSH2 0x371A PUSH2 0xC81 PUSH2 0x4663 JUMP JUMPDEST SWAP1 PUSH2 0x4AB3 JUMP JUMPDEST POP POP PUSH1 0x60 CALLDATASIZE PUSH1 0x3 NOT ADD SLT PUSH2 0x793 JUMPI PUSH1 0x4 CALLDATALOAD PUSH1 0x1 PUSH1 0x1 PUSH1 0xA0 SHL SUB DUP2 AND DUP2 SUB PUSH2 0xA08 JUMPI PUSH1 0x20 SWAP3 PUSH2 0x7D1 SWAP2 CALLER SWAP1 CALLVALUE SWAP1 PUSH1 0x44 CALLDATALOAD SWAP1 PUSH1 0x24 CALLDATALOAD SWAP1 PUSH2 0x5449 JUMP JUMPDEST POP POP CALLVALUE PUSH2 0x793 JUMPI DUP2 PUSH1 0x3 NOT CALLDATASIZE ADD SLT PUSH2 0x793 JUMPI PUSH1 0x20 SWAP1 PUSH2 0x14D SLOAD SWAP1 MLOAD SWAP1 DUP2 MSTORE RETURN JUMPDEST POP POP CALLVALUE PUSH2 0x793 JUMPI PUSH1 0x20 CALLDATASIZE PUSH1 0x3 NOT ADD SLT PUSH2 0x793 JUMPI PUSH1 0x4 CALLDATALOAD SWAP2 PUSH1 0x1 PUSH1 0x1 PUSH1 0xA0 SHL SUB DUP4 AND DUP4 SUB PUSH2 0x81D JUMPI POP PUSH2 0x7D1 PUSH1 0x20 SWAP3 CALLER SWAP1 CALLER SWAP1 PUSH2 0x48A1 JUMP JUMPDEST POP POP CALLVALUE PUSH2 0x793 JUMPI DUP2 PUSH1 0x3 NOT CALLDATASIZE ADD SLT PUSH2 0x793 JUMPI PUSH2 0x14F SLOAD SWAP1 MLOAD PUSH1 0x1 PUSH1 0x1 PUSH1 0xA0 SHL SUB SWAP1 SWAP2 AND DUP2 MSTORE PUSH1 0x20 SWAP1 RETURN JUMPDEST DUP4 CALLVALUE PUSH2 0x81D JUMPI PUSH1 0x20 CALLDATASIZE PUSH1 0x3 NOT ADD SLT PUSH2 0x81D JUMPI PUSH1 0x4 CALLDATALOAD PUSH1 0x1 PUSH1 0x1 PUSH1 0xA0 SHL SUB DUP2 AND SWAP1 DUP2 SWAP1 SUB PUSH2 0x793 JUMPI PUSH2 0x3809 PUSH2 0x5F7F JUMP JUMPDEST PUSH2 0x130 DUP1 SLOAD PUSH1 0x1 PUSH1 0x1 PUSH1 0xA0 SHL SUB NOT AND SWAP1 SWAP2 OR SWAP1 SSTORE DUP1 RETURN JUMPDEST DUP4 CALLVALUE PUSH2 0x81D JUMPI PUSH1 0x20 CALLDATASIZE PUSH1 0x3 NOT ADD SLT PUSH2 0x81D JUMPI PUSH2 0x383A PUSH2 0x5F7F JUMP JUMPDEST PUSH1 0x4 CALLDATALOAD PUSH2 0x13F SSTORE DUP1 RETURN JUMPDEST POP POP CALLVALUE PUSH2 0x793 JUMPI DUP2 PUSH1 0x3 NOT CALLDATASIZE ADD SLT PUSH2 0x793 JUMPI PUSH1 0x20 SWAP1 PUSH2 0x159 SLOAD SWAP1 MLOAD SWAP1 DUP2 MSTORE RETURN JUMPDEST DUP4 CALLVALUE PUSH2 0x81D JUMPI PUSH1 0x20 CALLDATASIZE PUSH1 0x3 NOT ADD SLT PUSH2 0x81D JUMPI PUSH1 0x4 CALLDATALOAD PUSH1 0x1 PUSH1 0x1 PUSH1 0xA0 SHL SUB DUP2 AND SWAP1 DUP2 SWAP1 SUB PUSH2 0x793 JUMPI PUSH2 0x3893 PUSH2 0x5F7F JUMP JUMPDEST PUSH2 0x146 DUP1 SLOAD PUSH1 0x1 PUSH1 0x1 PUSH1 0xA0 SHL SUB NOT AND SWAP1 SWAP2 OR SWAP1 SSTORE DUP1 RETURN JUMPDEST PUSH1 0x20 DUP4 PUSH2 0x7D1 PUSH2 0x38BB CALLDATASIZE PUSH1 0x4 PUSH2 0x3B3A JUMP JUMPDEST SWAP4 SWAP2 CALLER SWAP4 CALLVALUE SWAP4 PUSH2 0x5139 JUMP JUMPDEST POP POP CALLVALUE PUSH2 0x793 JUMPI DUP2 PUSH1 0x3 NOT CALLDATASIZE ADD SLT PUSH2 0x793 JUMPI PUSH1 0x20 SWAP1 PUSH2 0x18F SLOAD SWAP1 MLOAD SWAP1 DUP2 MSTORE RETURN JUMPDEST POP POP CALLVALUE PUSH2 0x793 JUMPI DUP2 PUSH1 0x3 NOT CALLDATASIZE ADD SLT PUSH2 0x793 JUMPI PUSH1 0x97 SLOAD SWAP1 MLOAD PUSH1 0x1 PUSH1 0x1 PUSH1 0xA0 SHL SUB SWAP1 SWAP2 AND DUP2 MSTORE PUSH1 0x20 SWAP1 RETURN JUMPDEST POP POP PUSH1 0xC0 CALLDATASIZE PUSH1 0x3 NOT ADD SLT PUSH2 0x793 JUMPI PUSH1 0x1 PUSH1 0x1 PUSH1 0xA0 SHL SUB SWAP2 PUSH1 0x4 CALLDATALOAD DUP4 DUP2 AND DUP2 SUB PUSH2 0x793 JUMPI PUSH1 0x24 CALLDATALOAD DUP5 DUP2 AND DUP2 SUB PUSH2 0xA08 JUMPI PUSH1 0x84 CALLDATALOAD SWAP3 DUP6 DUP5 AND DUP5 SUB PUSH2 0x81D JUMPI PUSH1 0xA4 CALLDATALOAD SWAP6 DUP7 AND DUP7 SUB PUSH2 0x81D JUMPI POP SWAP2 PUSH1 0x20 SWAP5 SWAP2 PUSH2 0x7D1 SWAP4 CALLVALUE SWAP2 PUSH1 0x64 CALLDATALOAD SWAP2 PUSH1 0x44 CALLDATALOAD SWAP2 PUSH2 0x5139 JUMP JUMPDEST DUP4 CALLVALUE PUSH2 0x81D JUMPI PUSH1 0x20 CALLDATASIZE PUSH1 0x3 NOT ADD SLT PUSH2 0x81D JUMPI PUSH2 0x398A PUSH2 0x5F7F JUMP JUMPDEST PUSH1 0x4 CALLDATALOAD PUSH2 0x15A SSTORE DUP1 RETURN JUMPDEST POP POP CALLVALUE PUSH2 0x793 JUMPI DUP2 PUSH1 0x3 NOT CALLDATASIZE ADD SLT PUSH2 0x793 JUMPI DUP1 MLOAD PUSH4 0x7164879 PUSH1 0xE0 SHL PUSH1 0x20 DUP3 ADD MSTORE PUSH1 0x4 DUP2 MSTORE PUSH2 0x39C8 SWAP1 PUSH2 0x9F2 PUSH1 0x24 DUP3 PUSH2 0x3C49 JUMP JUMPDEST SWAP2 PUSH1 0x20 DUP4 DUP1 MLOAD DUP2 ADD SUB SLT PUSH2 0x81D JUMPI POP PUSH2 0x7D1 PUSH1 0x20 DUP1 SWAP4 ADD MLOAD PUSH8 0xDE0B6B3A7640000 PUSH2 0x149 SLOAD DIV SWAP1 PUSH2 0x4229 JUMP JUMPDEST POP POP CALLVALUE PUSH2 0x793 JUMPI DUP2 PUSH1 0x3 NOT CALLDATASIZE ADD SLT PUSH2 0x793 JUMPI PUSH2 0x3A0E PUSH2 0x600D JUMP JUMPDEST PUSH2 0x15B DUP1 SLOAD NUMBER LT PUSH2 0x3A7C JUMPI SWAP1 PUSH2 0xC4A SWAP2 PUSH2 0x15A SLOAD NUMBER ADD SWAP1 SSTORE PUSH32 0xE37FDA283839477A1B77E29ACF8336C0E13A5DAA967913DF0FE5AD258C0822F PUSH1 0x20 PUSH8 0xDE0B6B3A7640000 PUSH2 0x3A63 PUSH2 0x131 SLOAD PUSH2 0x159 SLOAD SWAP1 PUSH2 0x4371 JUMP JUMPDEST DIV SWAP3 MLOAD DUP4 DUP2 MSTORE LOG1 PUSH2 0x158 SLOAD PUSH1 0x1 PUSH1 0x1 PUSH1 0xA0 SHL SUB AND PUSH2 0x41D1 JUMP JUMPDEST DUP2 MLOAD PUSH4 0xACCE20E5 PUSH1 0xE0 SHL DUP2 MSTORE PUSH1 0x4 SWAP1 REVERT JUMPDEST POP POP CALLVALUE PUSH2 0x793 JUMPI PUSH1 0x20 CALLDATASIZE PUSH1 0x3 NOT ADD SLT PUSH2 0x793 JUMPI PUSH1 0x4 CALLDATALOAD SWAP2 PUSH2 0x135 SWAP1 DUP2 SLOAD DUP5 LT ISZERO PUSH2 0x81D JUMPI POP PUSH1 0x20 SWAP3 PUSH2 0x3ABE SWAP2 PUSH2 0x3AF8 JUMP JUMPDEST SWAP1 SLOAD SWAP2 MLOAD SWAP2 PUSH1 0x1 DUP1 PUSH1 0xA0 SHL SUB SWAP2 PUSH1 0x3 SHL SHR AND DUP2 MSTORE RETURN JUMPDEST DUP4 CALLVALUE PUSH2 0x81D JUMPI PUSH1 0x20 CALLDATASIZE PUSH1 0x3 NOT ADD SLT PUSH2 0x81D JUMPI PUSH2 0x3AEE PUSH2 0x5F7F JUMP JUMPDEST PUSH1 0x4 CALLDATALOAD PUSH2 0x13A SSTORE DUP1 RETURN JUMPDEST DUP1 SLOAD DUP3 LT ISZERO PUSH2 0x3B10 JUMPI PUSH1 0x0 MSTORE PUSH1 0x20 PUSH1 0x0 KECCAK256 ADD SWAP1 PUSH1 0x0 SWAP1 JUMP JUMPDEST PUSH4 0x4E487B71 PUSH1 0xE0 SHL PUSH1 0x0 MSTORE PUSH1 0x32 PUSH1 0x4 MSTORE PUSH1 0x24 PUSH1 0x0 REVERT JUMPDEST CALLDATALOAD SWAP1 PUSH1 0x1 PUSH1 0x1 PUSH1 0xA0 SHL SUB DUP3 AND DUP3 SUB PUSH2 0x818 JUMPI JUMP JUMPDEST SWAP1 DUP2 PUSH1 0xA0 SWAP2 SUB SLT PUSH2 0x818 JUMPI PUSH2 0x3B4E DUP2 PUSH2 0x3B26 JUMP JUMPDEST SWAP2 PUSH2 0x3B5B PUSH1 0x20 DUP4 ADD PUSH2 0x3B26 JUMP JUMPDEST SWAP2 PUSH1 0x40 DUP2 ADD CALLDATALOAD SWAP2 PUSH2 0x3B73 PUSH1 0x80 PUSH1 0x60 DUP5 ADD CALLDATALOAD SWAP4 ADD PUSH2 0x3B26 JUMP JUMPDEST SWAP1 JUMP JUMPDEST PUSH1 0x40 SWAP1 PUSH2 0x3BB2 SWAP4 SWAP6 SWAP5 SWAP3 SWAP6 PUSH1 0xC0 DUP3 ADD SWAP7 DUP3 MSTORE PUSH1 0x20 DUP3 ADD MSTORE ADD SWAP1 PUSH1 0x60 DUP1 SWAP2 DUP1 MLOAD DUP5 MSTORE PUSH1 0x20 DUP2 ADD MLOAD PUSH1 0x20 DUP6 ADD MSTORE PUSH1 0x40 DUP2 ADD MLOAD PUSH1 0x40 DUP6 ADD MSTORE ADD MLOAD SWAP2 ADD MSTORE JUMP JUMPDEST JUMP JUMPDEST PUSH2 0x3BB2 SWAP4 PUSH1 0x60 SWAP3 SWAP7 SWAP6 SWAP4 PUSH1 0xE0 DUP4 ADD SWAP8 DUP4 MSTORE PUSH1 0x20 DUP4 ADD MSTORE PUSH1 0x40 DUP3 ADD MSTORE ADD SWAP1 PUSH1 0x60 DUP1 SWAP2 DUP1 MLOAD DUP5 MSTORE PUSH1 0x20 DUP2 ADD MLOAD PUSH1 0x20 DUP6 ADD MSTORE PUSH1 0x40 DUP2 ADD MLOAD PUSH1 0x40 DUP6 ADD MSTORE ADD MLOAD SWAP2 ADD MSTORE JUMP JUMPDEST SWAP1 DUP2 PUSH1 0xA0 SWAP2 SUB SLT PUSH2 0x818 JUMPI PUSH2 0x3C08 DUP2 PUSH2 0x3B26 JUMP JUMPDEST SWAP2 PUSH1 0x20 DUP3 ADD CALLDATALOAD SWAP2 PUSH1 0x40 DUP2 ADD CALLDATALOAD SWAP2 PUSH2 0x3B73 PUSH1 0x80 PUSH2 0x3C26 PUSH1 0x60 DUP6 ADD PUSH2 0x3B26 JUMP JUMPDEST SWAP4 ADD PUSH2 0x3B26 JUMP JUMPDEST DUP1 SLOAD DUP3 LT ISZERO PUSH2 0x3B10 JUMPI PUSH1 0x0 MSTORE PUSH1 0x20 PUSH1 0x0 KECCAK256 SWAP1 PUSH1 0x1 SHL ADD SWAP1 PUSH1 0x0 SWAP1 JUMP JUMPDEST SWAP1 PUSH1 0x1F DUP1 NOT SWAP2 ADD AND DUP2 ADD SWAP1 DUP2 LT PUSH8 0xFFFFFFFFFFFFFFFF DUP3 GT OR PUSH2 0x3C6B JUMPI PUSH1 0x40 MSTORE JUMP JUMPDEST PUSH4 0x4E487B71 PUSH1 0xE0 SHL PUSH1 0x0 MSTORE PUSH1 0x41 PUSH1 0x4 MSTORE PUSH1 0x24 PUSH1 0x0 REVERT JUMPDEST PUSH8 0xFFFFFFFFFFFFFFFF DUP2 GT PUSH2 0x3C6B JUMPI PUSH1 0x1F ADD PUSH1 0x1F NOT AND PUSH1 0x20 ADD SWAP1 JUMP JUMPDEST SWAP2 SWAP1 DUP3 PUSH1 0x80 SWAP2 SUB SLT PUSH2 0x818 JUMPI PUSH2 0x3CB2 DUP3 PUSH2 0x3B26 JUMP JUMPDEST SWAP2 PUSH1 0x20 DUP2 ADD CALLDATALOAD SWAP2 PUSH2 0x3B73 PUSH1 0x60 PUSH1 0x40 DUP5 ADD CALLDATALOAD SWAP4 ADD PUSH2 0x3B26 JUMP JUMPDEST SWAP2 SWAP1 DUP3 PUSH1 0x80 SWAP2 SUB SLT PUSH2 0x818 JUMPI PUSH2 0x3CDF DUP3 PUSH2 0x3B26 JUMP JUMPDEST SWAP2 PUSH1 0x20 DUP2 ADD CALLDATALOAD SWAP2 PUSH2 0x3B73 PUSH1 0x60 PUSH2 0x3C26 PUSH1 0x40 DUP6 ADD PUSH2 0x3B26 JUMP JUMPDEST SWAP1 DUP2 PUSH1 0xA0 SWAP2 SUB SLT PUSH2 0x818 JUMPI PUSH2 0x3D0B DUP2 PUSH2 0x3B26 JUMP JUMPDEST SWAP2 PUSH1 0x20 DUP3 ADD CALLDATALOAD SWAP2 PUSH1 0x40 DUP2 ADD CALLDATALOAD SWAP2 PUSH2 0x3B73 PUSH1 0x80 PUSH1 0x60 DUP5 ADD CALLDATALOAD SWAP4 ADD PUSH2 0x3B26 JUMP JUMPDEST ISZERO PUSH2 0x3D30 JUMPI JUMP JUMPDEST PUSH1 0x40 MLOAD PUSH3 0x461BCD PUSH1 0xE5 SHL DUP2 MSTORE PUSH1 0x20 PUSH1 0x4 DUP3 ADD MSTORE PUSH1 0x2C PUSH1 0x24 DUP3 ADD MSTORE PUSH32 0x46756E6374696F6E206D7573742062652063616C6C6564207468726F75676820 PUSH1 0x44 DUP3 ADD MSTORE PUSH12 0x19195B1959D85D1958D85B1B PUSH1 0xA2 SHL PUSH1 0x64 DUP3 ADD MSTORE PUSH1 0x84 SWAP1 REVERT JUMPDEST ISZERO PUSH2 0x3D91 JUMPI JUMP JUMPDEST PUSH1 0x40 MLOAD PUSH3 0x461BCD PUSH1 0xE5 SHL DUP2 MSTORE PUSH1 0x20 PUSH1 0x4 DUP3 ADD MSTORE PUSH1 0x2C PUSH1 0x24 DUP3 ADD MSTORE PUSH32 0x46756E6374696F6E206D7573742062652063616C6C6564207468726F75676820 PUSH1 0x44 DUP3 ADD MSTORE PUSH12 0x6163746976652070726F7879 PUSH1 0xA0 SHL PUSH1 0x64 DUP3 ADD MSTORE PUSH1 0x84 SWAP1 REVERT JUMPDEST SWAP1 PUSH1 0xFF PUSH32 0x4910FDFA16FED3260ED0E7147F7CC6DA11A60208B5B9406D12A635614FFD9143 SLOAD AND PUSH1 0x0 EQ PUSH2 0x3E23 JUMPI POP PUSH2 0x3BB2 SWAP2 POP PUSH2 0x3FD7 JUMP JUMPDEST PUSH1 0x40 MLOAD PUSH4 0x52D1902D PUSH1 0xE0 SHL DUP2 MSTORE PUSH1 0x20 SWAP4 SWAP2 SWAP3 SWAP2 SWAP1 PUSH1 0x1 PUSH1 0x1 PUSH1 0xA0 SHL SUB DUP4 AND SWAP1 DUP6 DUP2 PUSH1 0x4 DUP2 DUP6 GAS STATICCALL PUSH1 0x0 SWAP2 DUP2 PUSH2 0x3FA8 JUMPI JUMPDEST POP PUSH2 0x3EB4 JUMPI PUSH1 0x40 MLOAD PUSH3 0x461BCD PUSH1 0xE5 SHL DUP2 MSTORE PUSH1 0x4 DUP2 ADD DUP8 SWAP1 MSTORE PUSH1 0x2E PUSH1 0x24 DUP3 ADD MSTORE PUSH32 0x45524331393637557067726164653A206E657720696D706C656D656E74617469 PUSH1 0x44 DUP3 ADD MSTORE PUSH14 0x6F6E206973206E6F742055555053 PUSH1 0x90 SHL PUSH1 0x64 DUP3 ADD MSTORE PUSH1 0x84 SWAP1 REVERT JUMPDEST SWAP4 SWAP5 SWAP4 PUSH32 0xC9F76B5EC45E5CDEF99837D7B6D2467235C1DF8933C8CA56DF5C35AFA2C7D444 ADD PUSH2 0x3F51 JUMPI PUSH2 0x3EE6 DUP4 PUSH2 0x3FD7 JUMP JUMPDEST PUSH32 0xBC7CD75A20EE27FD9ADEBAB32041F755214DBC6BFFA90CC0225B39DA2E5C2D3B PUSH1 0x0 DUP1 LOG2 DUP4 MLOAD ISZERO SWAP1 DUP2 ISZERO SWAP2 PUSH2 0x3F49 JUMPI JUMPDEST POP PUSH2 0x3F21 JUMPI POP POP POP JUMP JUMPDEST PUSH1 0x0 DUP1 PUSH2 0x3F46 SWAP5 PUSH2 0x3F30 PUSH2 0x4079 JUMP JUMPDEST SWAP5 DUP2 MLOAD SWAP2 ADD DUP5 GAS DELEGATECALL PUSH2 0x3F40 PUSH2 0x40CD JUMP JUMPDEST SWAP2 PUSH2 0x40FD JUMP JUMPDEST POP JUMP JUMPDEST SWAP1 POP CODESIZE PUSH2 0x3F17 JUMP JUMPDEST PUSH1 0x40 MLOAD PUSH3 0x461BCD PUSH1 0xE5 SHL DUP2 MSTORE PUSH1 0x4 DUP2 ADD DUP6 SWAP1 MSTORE PUSH1 0x29 PUSH1 0x24 DUP3 ADD MSTORE PUSH32 0x45524331393637557067726164653A20756E737570706F727465642070726F78 PUSH1 0x44 DUP3 ADD MSTORE PUSH9 0x1A58589B1955555251 PUSH1 0xBA SHL PUSH1 0x64 DUP3 ADD MSTORE PUSH1 0x84 SWAP1 REVERT JUMPDEST SWAP1 SWAP2 DUP8 DUP3 DUP2 RETURNDATASIZE DUP4 GT PUSH2 0x3FD0 JUMPI JUMPDEST PUSH2 0x3FBF DUP2 DUP4 PUSH2 0x3C49 JUMP JUMPDEST DUP2 ADD SUB SLT PUSH2 0x81D JUMPI POP MLOAD SWAP1 CODESIZE PUSH2 0x3E53 JUMP JUMPDEST POP RETURNDATASIZE PUSH2 0x3FB5 JUMP JUMPDEST DUP1 EXTCODESIZE ISZERO PUSH2 0x401E JUMPI PUSH32 0x360894A13BA1A3210667C828492DB98DCA3E2076CC3735A920A3CA505D382BBC DUP1 SLOAD PUSH1 0x1 PUSH1 0x1 PUSH1 0xA0 SHL SUB NOT AND PUSH1 0x1 PUSH1 0x1 PUSH1 0xA0 SHL SUB SWAP1 SWAP3 AND SWAP2 SWAP1 SWAP2 OR SWAP1 SSTORE JUMP JUMPDEST PUSH1 0x40 MLOAD PUSH3 0x461BCD PUSH1 0xE5 SHL DUP2 MSTORE PUSH1 0x20 PUSH1 0x4 DUP3 ADD MSTORE PUSH1 0x2D PUSH1 0x24 DUP3 ADD MSTORE PUSH32 0x455243313936373A206E657720696D706C656D656E746174696F6E206973206E PUSH1 0x44 DUP3 ADD MSTORE PUSH13 0x1BDD08184818DBDB9D1C9858DD PUSH1 0x9A SHL PUSH1 0x64 DUP3 ADD MSTORE PUSH1 0x84 SWAP1 REVERT JUMPDEST PUSH2 0x4083 PUSH1 0x27 PUSH2 0x3C81 JUMP JUMPDEST SWAP1 PUSH2 0x4091 PUSH1 0x40 MLOAD SWAP3 DUP4 PUSH2 0x3C49 JUMP JUMPDEST PUSH1 0x27 DUP3 MSTORE PUSH7 0x819985A5B1959 PUSH1 0xCA SHL PUSH1 0x40 DUP4 PUSH32 0x416464726573733A206C6F772D6C6576656C2064656C65676174652063616C6C PUSH1 0x20 DUP3 ADD MSTORE ADD MSTORE JUMP JUMPDEST RETURNDATASIZE ISZERO PUSH2 0x40F8 JUMPI RETURNDATASIZE SWAP1 PUSH2 0x40DE DUP3 PUSH2 0x3C81 JUMP JUMPDEST SWAP2 PUSH2 0x40EC PUSH1 0x40 MLOAD SWAP4 DUP5 PUSH2 0x3C49 JUMP JUMPDEST DUP3 MSTORE RETURNDATASIZE PUSH1 0x0 PUSH1 0x20 DUP5 ADD RETURNDATACOPY JUMP JUMPDEST PUSH1 0x60 SWAP1 JUMP JUMPDEST SWAP2 SWAP3 SWAP1 ISZERO PUSH2 0x415F JUMPI POP DUP2 MLOAD ISZERO PUSH2 0x4111 JUMPI POP SWAP1 JUMP JUMPDEST EXTCODESIZE ISZERO PUSH2 0x411A JUMPI SWAP1 JUMP JUMPDEST PUSH1 0x40 MLOAD PUSH3 0x461BCD PUSH1 0xE5 SHL DUP2 MSTORE PUSH1 0x20 PUSH1 0x4 DUP3 ADD MSTORE PUSH1 0x1D PUSH1 0x24 DUP3 ADD MSTORE PUSH32 0x416464726573733A2063616C6C20746F206E6F6E2D636F6E7472616374000000 PUSH1 0x44 DUP3 ADD MSTORE PUSH1 0x64 SWAP1 REVERT JUMPDEST DUP3 MLOAD SWAP1 SWAP2 POP ISZERO PUSH2 0x4172 JUMPI POP DUP1 MLOAD SWAP1 PUSH1 0x20 ADD REVERT JUMPDEST PUSH1 0x40 MLOAD SWAP1 PUSH3 0x461BCD PUSH1 0xE5 SHL DUP3 MSTORE DUP2 PUSH1 0x20 DUP1 PUSH1 0x4 DUP4 ADD MSTORE DUP3 MLOAD SWAP1 DUP2 PUSH1 0x24 DUP5 ADD MSTORE PUSH1 0x0 SWAP4 JUMPDEST DUP3 DUP6 LT PUSH2 0x41B8 JUMPI POP POP PUSH1 0x44 SWAP3 POP PUSH1 0x0 DUP4 DUP3 DUP5 ADD ADD MSTORE PUSH1 0x1F DUP1 NOT SWAP2 ADD AND DUP2 ADD SUB ADD SWAP1 REVERT JUMPDEST DUP5 DUP2 ADD DUP3 ADD MLOAD DUP7 DUP7 ADD PUSH1 0x44 ADD MSTORE SWAP4 DUP2 ADD SWAP4 DUP6 SWAP4 POP PUSH2 0x4195 JUMP JUMPDEST DUP2 PUSH2 0x41DA JUMPI POP POP JUMP JUMPDEST PUSH1 0x1 PUSH1 0x1 PUSH1 0xA0 SHL SUB DUP2 AND ISZERO PUSH2 0x4217 JUMPI PUSH1 0x0 DUP1 DUP1 SWAP4 DUP2 SWAP4 PUSH2 0x22A SLOAD CALL PUSH2 0x41FD PUSH2 0x40CD JUMP JUMPDEST POP ISZERO PUSH2 0x4205 JUMPI JUMP JUMPDEST PUSH1 0x40 MLOAD PUSH4 0x12171D83 PUSH1 0xE3 SHL DUP2 MSTORE PUSH1 0x4 SWAP1 REVERT JUMPDEST PUSH1 0x40 MLOAD PUSH4 0xE6C4247B PUSH1 0xE0 SHL DUP2 MSTORE PUSH1 0x4 SWAP1 REVERT JUMPDEST SWAP2 SWAP1 DUP3 ADD DUP1 SWAP3 GT PUSH2 0x4236 JUMPI JUMP JUMPDEST PUSH4 0x4E487B71 PUSH1 0xE0 SHL PUSH1 0x0 MSTORE PUSH1 0x11 PUSH1 0x4 MSTORE PUSH1 0x24 PUSH1 0x0 REVERT JUMPDEST DUP1 MLOAD DUP3 LT ISZERO PUSH2 0x3B10 JUMPI PUSH1 0x20 SWAP2 PUSH1 0x5 SHL ADD ADD SWAP1 JUMP JUMPDEST SWAP1 PUSH1 0x0 SWAP2 PUSH1 0x0 SWAP1 PUSH2 0x137 DUP1 SLOAD SWAP1 PUSH1 0x0 SWAP3 JUMPDEST DUP3 DUP5 LT PUSH2 0x4297 JUMPI POP POP POP POP PUSH2 0x4293 PUSH8 0xDE0B6B3A7640000 SWAP2 PUSH2 0x139 SLOAD SWAP1 PUSH2 0x4371 JUMP JUMPDEST DIV SWAP1 JUMP JUMPDEST SWAP1 SWAP2 SWAP3 SWAP4 SWAP6 PUSH2 0x42E4 PUSH2 0x42D3 PUSH2 0x42DE PUSH1 0x1 SWAP4 PUSH2 0x42D8 PUSH2 0x42B5 DUP11 DUP9 PUSH2 0x424C JUMP JUMPDEST MLOAD PUSH2 0x42C0 DUP2 DUP13 PUSH2 0x430A JUMP JUMPDEST SWAP6 SWAP1 PUSH2 0x42CC DUP14 DUP13 PUSH2 0x3C2D JUMP JUMPDEST POP SLOAD PUSH2 0x4229 JUMP JUMPDEST PUSH2 0x602E JUMP JUMPDEST SWAP1 PUSH2 0x4229 JUMP JUMPDEST SWAP9 PUSH2 0x4229 JUMP JUMPDEST SWAP5 ADD SWAP3 SWAP2 SWAP1 PUSH2 0x4271 JUMP JUMPDEST SWAP2 SWAP1 SWAP2 PUSH1 0x0 DUP4 DUP3 ADD SWAP4 DUP5 SLT SWAP2 SLT SWAP1 DUP1 ISZERO DUP3 AND SWAP2 ISZERO AND OR PUSH2 0x4236 JUMPI JUMP JUMPDEST SWAP2 SWAP1 PUSH1 0x0 SWAP1 PUSH2 0x4338 DUP2 PUSH1 0x0 SWAP6 PUSH2 0x432E PUSH2 0x4325 DUP3 PUSH2 0x150 PUSH2 0x3AF8 JUMP JUMPDEST SWAP4 SWAP1 SLOAD SWAP3 PUSH2 0x43BD JUMP JUMPDEST SWAP2 PUSH1 0x3 SHL SHR PUSH2 0x42EE JUMP JUMPDEST PUSH1 0x0 DUP2 SGT PUSH2 0x4347 JUMPI JUMPDEST POP POP SWAP2 SWAP1 JUMP JUMPDEST PUSH2 0x4369 SWAP2 SWAP5 POP PUSH2 0x2801 SWAP3 POP DUP1 SWAP5 PUSH8 0xDE0B6B3A7640000 SWAP4 DUP5 SWAP2 PUSH2 0x13A SLOAD PUSH2 0x4371 JUMP JUMPDEST DIV CODESIZE DUP1 PUSH2 0x4341 JUMP JUMPDEST DUP2 DUP2 MUL SWAP3 SWAP2 DUP2 ISZERO SWAP2 DUP5 DIV EQ OR ISZERO PUSH2 0x4236 JUMPI JUMP JUMPDEST DUP2 ISZERO PUSH2 0x438E JUMPI DIV SWAP1 JUMP JUMPDEST PUSH4 0x4E487B71 PUSH1 0xE0 SHL PUSH1 0x0 MSTORE PUSH1 0x12 PUSH1 0x4 MSTORE PUSH1 0x24 PUSH1 0x0 REVERT JUMPDEST DUP2 DUP2 SUB SWAP3 SWAP2 PUSH1 0x0 SGT DUP1 ISZERO DUP3 DUP6 SGT AND SWAP2 DUP5 SLT AND OR PUSH2 0x4236 JUMPI JUMP JUMPDEST PUSH2 0x43C9 DUP2 PUSH2 0x137 PUSH2 0x3C2D JUMP JUMPDEST POP SLOAD SWAP1 PUSH8 0xDE0B6B3A7640000 SWAP2 DUP3 DUP2 MUL SWAP3 DUP2 DUP5 DIV EQ SWAP1 ISZERO OR ISZERO PUSH2 0x4236 JUMPI PUSH2 0x3B73 SWAP3 PUSH2 0x4409 PUSH2 0x43FC PUSH2 0x440F SWAP4 PUSH2 0x151 PUSH2 0x3AF8 JUMP JUMPDEST SWAP1 SLOAD SWAP1 PUSH1 0x3 SHL SHR DUP5 PUSH2 0x4384 JUMP JUMPDEST SWAP3 PUSH2 0x4384 JUMP JUMPDEST SWAP1 PUSH2 0x43A4 JUMP JUMPDEST DUP1 ISZERO PUSH2 0x442B JUMPI PUSH2 0x42D3 PUSH2 0x3B73 SWAP3 PUSH2 0x131 SLOAD PUSH2 0x4433 JUMP JUMPDEST POP POP PUSH1 0x0 NOT SWAP1 JUMP JUMPDEST SWAP2 SWAP1 DUP3 SUB SWAP2 DUP3 GT PUSH2 0x4236 JUMPI JUMP JUMPDEST PUSH8 0xFFFFFFFFFFFFFFFF DUP2 GT PUSH2 0x3C6B JUMPI PUSH1 0x5 SHL PUSH1 0x20 ADD SWAP1 JUMP JUMPDEST SWAP1 PUSH2 0x4462 DUP3 PUSH2 0x4440 JUMP JUMPDEST PUSH2 0x446F PUSH1 0x40 MLOAD SWAP2 DUP3 PUSH2 0x3C49 JUMP JUMPDEST DUP3 DUP2 MSTORE DUP1 SWAP3 PUSH2 0x4480 PUSH1 0x1F NOT SWAP2 PUSH2 0x4440 JUMP JUMPDEST ADD SWAP1 PUSH1 0x20 CALLDATASIZE SWAP2 ADD CALLDATACOPY JUMP JUMPDEST PUSH2 0x131 SLOAD DUP1 ISZERO PUSH2 0x3F46 JUMPI PUSH2 0x137 SWAP1 DUP2 SLOAD SWAP2 PUSH1 0x0 SWAP1 PUSH2 0x44A7 DUP5 PUSH2 0x4458 JUMP JUMPDEST SWAP1 DUP3 SWAP1 JUMPDEST DUP6 DUP3 LT PUSH2 0x4516 JUMPI POP POP PUSH1 0x0 JUMPDEST DUP5 DUP2 LT PUSH2 0x44C5 JUMPI POP POP POP POP POP JUMP JUMPDEST PUSH2 0x44E2 DUP5 PUSH2 0x44DD DUP6 PUSH2 0x44D7 DUP6 DUP8 PUSH2 0x424C JUMP JUMPDEST MLOAD PUSH2 0x4371 JUMP JUMPDEST PUSH2 0x4384 JUMP JUMPDEST SWAP1 PUSH2 0x138 SWAP2 DUP3 SLOAD PUSH9 0x10000000000000000 DUP2 LT ISZERO PUSH2 0x3C6B JUMPI PUSH2 0x281A DUP2 PUSH1 0x1 SWAP6 DUP7 PUSH2 0x450E SWAP5 ADD DUP2 SSTORE PUSH2 0x3AF8 JUMP JUMPDEST SWAP1 SSTORE ADD PUSH2 0x44B7 JUMP JUMPDEST SWAP1 SWAP3 PUSH2 0x4552 PUSH1 0x1 SWAP2 PUSH2 0x4527 DUP7 PUSH2 0x4583 JUMP JUMPDEST PUSH2 0x4531 DUP8 DUP8 PUSH2 0x424C JUMP JUMPDEST MSTORE PUSH2 0x42D8 PUSH2 0x453F DUP8 DUP7 PUSH2 0x3C2D JUMP JUMPDEST POP SLOAD PUSH2 0x454B DUP9 DUP9 PUSH2 0x424C JUMP JUMPDEST MLOAD SWAP1 PUSH2 0x602E JUMP JUMPDEST SWAP4 ADD SWAP1 PUSH2 0x44AB JUMP JUMPDEST PUSH1 0x1 PUSH1 0x1 PUSH1 0xA0 SHL SUB AND PUSH1 0x0 SWAP1 DUP2 MSTORE PUSH2 0x136 PUSH1 0x20 MSTORE PUSH1 0x40 SWAP1 KECCAK256 PUSH1 0x1 DUP2 ADD SLOAD PUSH1 0xFF AND ISZERO PUSH2 0x4217 JUMPI SLOAD SWAP1 JUMP JUMPDEST PUSH2 0x458F SWAP1 PUSH2 0x137 PUSH2 0x3C2D JUMP JUMPDEST POP PUSH1 0x1 ADD SLOAD PUSH1 0x1 PUSH1 0x1 PUSH1 0xA0 SHL SUB AND PUSH2 0x45A6 DUP2 PUSH2 0x45F1 JUMP JUMPDEST SWAP2 SWAP1 SWAP2 ISZERO PUSH2 0x45B2 JUMPI POP SWAP1 JUMP JUMPDEST PUSH1 0x24 SWAP1 PUSH1 0x40 MLOAD SWAP1 PUSH4 0x7F6E4DB9 PUSH1 0xE0 SHL DUP3 MSTORE PUSH1 0x4 DUP3 ADD MSTORE REVERT JUMPDEST MLOAD SWAP1 DUP2 ISZERO ISZERO DUP3 SUB PUSH2 0x818 JUMPI JUMP JUMPDEST SWAP2 SWAP1 DUP3 PUSH1 0x40 SWAP2 SUB SLT PUSH2 0x818 JUMPI PUSH2 0x3B73 PUSH1 0x20 DUP4 MLOAD SWAP4 ADD PUSH2 0x45CA JUMP JUMPDEST PUSH1 0x40 DUP1 MLOAD PUSH4 0x59E02DD7 PUSH1 0xE0 SHL DUP2 MSTORE SWAP3 SWAP2 DUP4 SWAP1 PUSH1 0x4 SWAP1 DUP3 SWAP1 PUSH1 0x1 PUSH1 0x1 PUSH1 0xA0 SHL SUB AND GAS STATICCALL SWAP2 DUP3 ISZERO PUSH2 0x4657 JUMPI PUSH1 0x0 SWAP1 DUP2 SWAP4 PUSH2 0x4628 JUMPI POP SWAP2 SWAP1 JUMP JUMPDEST SWAP1 POP PUSH2 0x464C SWAP2 SWAP3 POP PUSH1 0x40 RETURNDATASIZE DUP2 GT PUSH2 0x4650 JUMPI JUMPDEST PUSH2 0x4644 DUP2 DUP4 PUSH2 0x3C49 JUMP JUMPDEST DUP2 ADD SWAP1 PUSH2 0x45D7 JUMP JUMPDEST SWAP1 SWAP2 JUMP JUMPDEST POP RETURNDATASIZE PUSH2 0x463A JUMP JUMPDEST PUSH1 0x40 MLOAD RETURNDATASIZE PUSH1 0x0 DUP3 RETURNDATACOPY RETURNDATASIZE SWAP1 REVERT JUMPDEST PUSH2 0x137 SLOAD SWAP1 PUSH2 0x4671 DUP3 PUSH2 0x4458 JUMP JUMPDEST SWAP2 PUSH1 0x0 JUMPDEST DUP2 DUP2 LT PUSH2 0x4680 JUMPI POP POP JUMP JUMPDEST DUP1 PUSH2 0x468C PUSH1 0x1 SWAP3 PUSH2 0x4583 JUMP JUMPDEST PUSH2 0x4696 DUP3 DUP8 PUSH2 0x424C JUMP JUMPDEST MSTORE ADD PUSH2 0x4675 JUMP JUMPDEST SWAP1 PUSH2 0x46BE PUSH8 0xDE0B6B3A7640000 SWAP3 DUP4 PUSH2 0x157 SLOAD PUSH2 0x154 SLOAD SWAP3 NUMBER ADD SUB MUL PUSH2 0x4384 JUMP JUMPDEST DUP3 DUP2 LT ISZERO PUSH2 0x46DB JUMPI DUP3 SUB SWAP2 DUP1 DUP4 PUSH2 0x155 SLOAD MUL DIV SWAP3 PUSH2 0x156 SLOAD MUL SDIV SWAP1 JUMP JUMPDEST POP PUSH1 0x0 SWAP2 POP DUP2 SWAP1 JUMP JUMPDEST SWAP1 SWAP2 PUSH2 0x46EE PUSH2 0x4746 JUMP JUMPDEST SWAP3 SWAP1 DUP1 DUP3 LT ISZERO PUSH2 0x473C JUMPI DUP4 SWAP2 PUSH2 0x4703 SWAP2 PUSH2 0x4433 JUMP JUMPDEST SWAP4 GT ISZERO PUSH2 0x4737 JUMPI DUP2 DUP2 LT ISZERO PUSH2 0x472F JUMPI PUSH2 0x471B SWAP2 PUSH2 0x4433 JUMP JUMPDEST PUSH1 0x1 SHR DUP1 DUP3 LT ISZERO PUSH2 0x472A JUMPI POP SWAP1 JUMP JUMPDEST SWAP1 POP SWAP1 JUMP JUMPDEST POP POP POP PUSH1 0x0 SWAP1 JUMP JUMPDEST POP POP SWAP1 JUMP JUMPDEST POP POP POP POP POP PUSH1 0x0 SWAP1 JUMP JUMPDEST PUSH2 0x152 SLOAD PUSH1 0x40 DUP1 MLOAD PUSH4 0x59E02DD7 PUSH1 0xE0 SHL DUP1 DUP3 MSTORE SWAP4 SWAP3 SWAP1 SWAP2 SWAP1 PUSH1 0x1 PUSH1 0x1 PUSH1 0xA0 SHL SUB SWAP1 DUP2 AND DUP3 DUP5 PUSH1 0x4 DUP2 DUP5 GAS STATICCALL DUP1 ISZERO PUSH2 0x4836 JUMPI PUSH1 0x0 SWAP5 DUP6 SWAP2 PUSH2 0x4813 JUMPI JUMPDEST POP ISZERO PUSH2 0x47FC JUMPI POP PUSH2 0x153 SLOAD AND SWAP1 DUP1 MLOAD SWAP5 DUP6 MSTORE DUP1 DUP6 PUSH1 0x4 DUP2 DUP6 GAS STATICCALL DUP1 ISZERO PUSH2 0x47F1 JUMPI PUSH1 0x0 SWAP6 DUP7 SWAP2 PUSH2 0x47CE JUMPI JUMPDEST POP ISZERO PUSH2 0x47B7 JUMPI POP POP SWAP2 SWAP1 JUMP JUMPDEST PUSH1 0x24 SWAP3 POP MLOAD SWAP1 PUSH4 0x5E89893 PUSH1 0xE1 SHL DUP3 MSTORE PUSH1 0x4 DUP3 ADD MSTORE REVERT JUMPDEST SWAP1 POP DUP2 PUSH2 0x47E8 SWAP3 SWAP7 POP RETURNDATASIZE DUP8 GT PUSH2 0x4650 JUMPI PUSH2 0x4644 DUP2 DUP4 PUSH2 0x3C49 JUMP JUMPDEST SWAP5 SWAP1 SWAP5 CODESIZE PUSH2 0x47AB JUMP JUMPDEST POP MLOAD RETURNDATASIZE PUSH1 0x0 DUP3 RETURNDATACOPY RETURNDATASIZE SWAP1 REVERT JUMPDEST PUSH1 0x24 SWAP1 DUP4 MLOAD SWAP1 PUSH4 0x5E89893 PUSH1 0xE1 SHL DUP3 MSTORE PUSH1 0x4 DUP3 ADD MSTORE REVERT JUMPDEST SWAP1 POP PUSH2 0x482D SWAP2 SWAP5 POP DUP4 RETURNDATASIZE DUP6 GT PUSH2 0x4650 JUMPI PUSH2 0x4644 DUP2 DUP4 PUSH2 0x3C49 JUMP JUMPDEST SWAP4 SWAP1 SWAP4 CODESIZE PUSH2 0x4781 JUMP JUMPDEST DUP4 MLOAD RETURNDATASIZE PUSH1 0x0 DUP3 RETURNDATACOPY RETURNDATASIZE SWAP1 REVERT JUMPDEST ISZERO PUSH2 0x4848 JUMPI JUMP JUMPDEST PUSH1 0x40 MLOAD PUSH3 0x461BCD PUSH1 0xE5 SHL DUP2 MSTORE PUSH1 0x20 PUSH1 0x4 DUP3 ADD MSTORE PUSH1 0x2B PUSH1 0x24 DUP3 ADD MSTORE PUSH32 0x496E697469616C697A61626C653A20636F6E7472616374206973206E6F742069 PUSH1 0x44 DUP3 ADD MSTORE PUSH11 0x6E697469616C697A696E67 PUSH1 0xA8 SHL PUSH1 0x64 DUP3 ADD MSTORE PUSH1 0x84 SWAP1 REVERT JUMPDEST PUSH2 0x48FF SWAP2 PUSH2 0x48AD PUSH2 0x600D JUMP JUMPDEST PUSH1 0x40 MLOAD PUSH4 0x6845C445 PUSH1 0xE0 SHL PUSH1 0x20 DUP3 ADD MSTORE PUSH1 0x1 PUSH1 0x1 PUSH1 0xA0 SHL SUB SWAP3 DUP4 AND PUSH1 0x24 DUP3 ADD MSTORE SWAP1 DUP3 AND PUSH1 0x44 DUP3 ADD MSTORE DUP4 DUP3 AND PUSH1 0x64 DUP3 ADD MSTORE SELFBALANCE PUSH1 0x84 DUP1 DUP4 ADD SWAP2 SWAP1 SWAP2 MSTORE DUP2 MSTORE SWAP1 PUSH2 0x48F5 PUSH1 0xA4 DUP4 PUSH2 0x3C49 JUMP JUMPDEST PUSH2 0x1F7 SLOAD AND PUSH2 0x491B JUMP JUMPDEST PUSH1 0x20 DUP2 DUP1 MLOAD DUP2 ADD SUB SLT PUSH2 0x818 JUMPI PUSH1 0x20 PUSH2 0x3B73 SWAP2 ADD MLOAD DUP1 SWAP3 PUSH2 0x41D1 JUMP JUMPDEST SWAP1 PUSH2 0x3B73 SWAP2 PUSH1 0x0 DUP1 PUSH2 0x492B PUSH2 0x4079 JUMP JUMPDEST SWAP4 PUSH1 0x20 DUP2 MLOAD SWAP2 ADD DUP5 GAS DELEGATECALL PUSH2 0x3F40 PUSH2 0x40CD JUMP JUMPDEST PUSH2 0x49AB SWAP4 PUSH2 0x4972 PUSH1 0x0 SWAP3 PUSH1 0x20 SWAP6 PUSH2 0x4956 DUP3 PUSH2 0x137 PUSH2 0x3C2D JUMP JUMPDEST POP PUSH2 0x4962 DUP8 DUP3 SLOAD PUSH2 0x4229 JUMP JUMPDEST SWAP1 SSTORE PUSH2 0x1791 PUSH2 0x131 SWAP2 DUP3 SLOAD PUSH2 0x4229 JUMP JUMPDEST SWAP1 SLOAD PUSH1 0x40 MLOAD PUSH4 0x40C10F19 PUSH1 0xE0 SHL DUP2 MSTORE PUSH1 0x1 PUSH1 0x1 PUSH1 0xA0 SHL SUB SWAP1 SWAP4 AND PUSH1 0x4 DUP5 ADD MSTORE PUSH1 0x24 DUP4 ADD SWAP5 SWAP1 SWAP5 MSTORE SWAP1 SWAP5 DUP6 SWAP4 SWAP3 DUP5 SWAP3 SWAP1 SWAP2 DUP4 SWAP1 PUSH1 0x44 DUP3 ADD SWAP1 JUMP JUMPDEST SUB SWAP4 PUSH1 0x3 SWAP2 SWAP1 SWAP2 SHL SHR PUSH1 0x1 PUSH1 0x1 PUSH1 0xA0 SHL SUB AND GAS CALL DUP1 ISZERO PUSH2 0x4657 JUMPI PUSH2 0x49CC JUMPI POP JUMP JUMPDEST PUSH1 0x20 DUP2 RETURNDATASIZE DUP3 GT PUSH2 0x49F5 JUMPI JUMPDEST DUP2 PUSH2 0x49E4 PUSH1 0x20 SWAP4 DUP4 PUSH2 0x3C49 JUMP JUMPDEST DUP2 ADD SUB SLT PUSH2 0x818 JUMPI PUSH2 0x3F46 SWAP1 PUSH2 0x45CA JUMP JUMPDEST RETURNDATASIZE SWAP2 POP PUSH2 0x49D7 JUMP JUMPDEST PUSH2 0x281A PUSH2 0x4A4E SWAP2 PUSH2 0x4A0E DUP5 DUP3 PUSH2 0x43BD JUMP JUMPDEST PUSH2 0x4A44 PUSH2 0x4A1D DUP4 PUSH2 0x150 PUSH2 0x3AF8 JUMP JUMPDEST PUSH2 0x4A30 DUP3 SWAP5 SWAP3 SLOAD SWAP3 DUP4 DUP4 PUSH1 0x3 SHL SHR PUSH2 0x42EE JUMP JUMPDEST SWAP2 SWAP1 PUSH1 0x3 SHL SWAP2 DUP3 SHL SWAP2 PUSH1 0x0 NOT SWAP1 SHL NOT AND OR SWAP1 JUMP JUMPDEST SWAP1 SSTORE PUSH2 0x151 PUSH2 0x3AF8 JUMP JUMPDEST SWAP1 SSTORE JUMP JUMPDEST PUSH1 0xE0 DUP2 ADD SWAP3 SWAP2 PUSH1 0xC0 SWAP1 DUP2 SWAP1 PUSH1 0x1 PUSH1 0x1 PUSH1 0xA0 SHL SUB DUP1 PUSH2 0x4A6F DUP4 PUSH2 0x3B26 JUMP JUMPDEST AND DUP6 MSTORE PUSH2 0x4A7E PUSH1 0x20 DUP4 ADD PUSH2 0x3B26 JUMP JUMPDEST AND PUSH1 0x20 DUP6 ADD MSTORE PUSH1 0x40 DUP2 ADD CALLDATALOAD PUSH1 0x40 DUP6 ADD MSTORE PUSH1 0x60 DUP2 ADD CALLDATALOAD PUSH1 0x60 DUP6 ADD MSTORE PUSH1 0x80 DUP2 ADD CALLDATALOAD PUSH1 0x80 DUP6 ADD MSTORE PUSH1 0xA0 DUP2 ADD CALLDATALOAD PUSH1 0xA0 DUP6 ADD MSTORE ADD CALLDATALOAD SWAP2 ADD MSTORE JUMP JUMPDEST SWAP1 PUSH2 0x134 SLOAD SWAP1 DUP2 ISZERO PUSH2 0x4AD8 JUMPI PUSH2 0x3B73 SWAP3 PUSH2 0x4AD3 PUSH2 0x42D3 SWAP3 PUSH2 0x131 SLOAD PUSH2 0x4433 JUMP JUMPDEST PUSH2 0x4433 JUMP JUMPDEST POP POP POP PUSH8 0xDE0B6B3A7640000 SWAP1 JUMP JUMPDEST DUP3 DUP3 PUSH2 0x4AF2 SWAP3 PUSH2 0x4B0F JUMP JUMPDEST SWAP1 PUSH1 0x0 DUP3 SGT ISZERO PUSH2 0x472F JUMPI PUSH2 0x3B73 SWAP3 PUSH2 0x4B09 SWAP2 PUSH2 0x4AB3 JUMP JUMPDEST SWAP1 PUSH2 0x4384 JUMP JUMPDEST SWAP1 SWAP2 PUSH2 0x4B1E SWAP1 PUSH2 0x131 SLOAD PUSH2 0x4433 JUMP JUMPDEST SWAP1 PUSH8 0xDE0B6B3A7640000 SWAP2 DUP3 DUP2 MUL SWAP3 DUP2 DUP5 DIV EQ SWAP1 ISZERO OR ISZERO PUSH2 0x4236 JUMPI PUSH2 0x3B73 SWAP3 PUSH2 0x440F SWAP2 PUSH2 0x4371 JUMP JUMPDEST SWAP3 PUSH2 0x4B54 SWAP3 SWAP4 SWAP5 SWAP2 SWAP5 PUSH2 0x4B0F JUMP JUMPDEST DUP2 DUP2 MUL SWAP2 PUSH1 0x0 SWAP2 PUSH1 0x1 PUSH1 0xFF SHL SWAP2 DUP4 DUP3 SLT DUP4 DUP3 EQ AND PUSH2 0x4BF8 JUMPI DUP2 DUP6 SDIV EQ SWAP1 ISZERO OR ISZERO PUSH2 0x4BE4 JUMPI PUSH8 0xDE0B6B3A763FFFF NOT DUP5 ADD SWAP4 DUP5 GT PUSH2 0x4BE4 JUMPI PUSH8 0xDE0B6B3A7640000 SWAP4 DUP5 DUP2 MUL SWAP5 DUP2 DUP7 DIV EQ SWAP1 ISZERO OR ISZERO PUSH2 0x4BE4 JUMPI DUP4 ISZERO PUSH2 0x4BD0 JUMPI DUP3 EQ PUSH1 0x0 NOT DUP5 EQ AND PUSH2 0x4BBC JUMPI POP SDIV SWAP1 JUMP JUMPDEST PUSH4 0x4E487B71 PUSH1 0xE0 SHL DUP2 MSTORE PUSH1 0x11 PUSH1 0x4 MSTORE PUSH1 0x24 SWAP1 REVERT JUMPDEST PUSH4 0x4E487B71 PUSH1 0xE0 SHL DUP3 MSTORE PUSH1 0x12 PUSH1 0x4 MSTORE PUSH1 0x24 DUP3 REVERT JUMPDEST PUSH4 0x4E487B71 PUSH1 0xE0 SHL DUP3 MSTORE PUSH1 0x11 PUSH1 0x4 MSTORE PUSH1 0x24 DUP3 REVERT JUMPDEST PUSH4 0x4E487B71 PUSH1 0xE0 SHL DUP5 MSTORE PUSH1 0x11 PUSH1 0x4 MSTORE PUSH1 0x24 DUP5 REVERT JUMPDEST PUSH2 0x14D SLOAD DUP1 NUMBER LT ISZERO PUSH2 0x4C23 JUMPI PUSH2 0x3B73 SWAP1 NUMBER SWAP1 PUSH2 0x4433 JUMP JUMPDEST POP PUSH1 0x0 SWAP1 JUMP JUMPDEST SWAP1 PUSH1 0x40 MLOAD PUSH2 0x4C38 PUSH1 0x40 DUP3 PUSH2 0x3C49 JUMP JUMPDEST PUSH1 0x20 PUSH1 0x1 DUP3 SWAP5 DUP1 SLOAD DUP5 MSTORE ADD SLOAD SWAP2 ADD MSTORE JUMP JUMPDEST PUSH2 0x4C55 DUP2 PUSH2 0x148 PUSH2 0x3AF8 JUMP JUMPDEST SWAP1 SLOAD SWAP1 PUSH1 0x3 SHL SHR SWAP2 PUSH2 0x18E SWAP2 PUSH2 0x4C6B DUP2 DUP5 PUSH2 0x3C2D JUMP JUMPDEST POP SLOAD SWAP3 PUSH2 0x18F SLOAD NUMBER LT ISZERO PUSH2 0x4C91 JUMPI JUMPDEST POP POP DUP1 DUP3 LT ISZERO PUSH2 0x4737 JUMPI PUSH2 0x44DD SWAP1 PUSH2 0x3B73 SWAP4 PUSH2 0x4371 JUMP JUMPDEST DUP3 SWAP4 POP PUSH2 0x4CA5 PUSH2 0x4CB0 SWAP4 SWAP3 PUSH2 0x4CAB SWAP3 PUSH2 0x3C2D JUMP JUMPDEST POP PUSH2 0x4C29 JUMP JUMPDEST PUSH2 0x4CB8 JUMP JUMPDEST SWAP1 CODESIZE DUP1 PUSH2 0x4C7A JUMP JUMPDEST PUSH1 0x20 DUP2 MLOAD SWAP2 ADD DUP1 MLOAD SWAP3 PUSH8 0xDE0B6B3A7640000 SWAP4 DUP5 SUB SWAP1 DUP5 DUP3 GT PUSH2 0x4236 JUMPI PUSH2 0x4CE5 PUSH2 0x42D8 SWAP3 PUSH2 0x4293 SWAP6 PUSH2 0x4371 JUMP JUMPDEST SWAP3 MLOAD PUSH2 0x4371 JUMP JUMPDEST PUSH1 0x0 DUP1 PUSH2 0x137 SWAP2 DUP3 SLOAD SWAP3 PUSH2 0x4CFF DUP5 PUSH2 0x4458 JUMP JUMPDEST SWAP4 DUP3 SWAP2 JUMPDEST DUP2 DUP4 LT PUSH2 0x4D2C JUMPI POP POP POP DUP2 ISZERO PUSH2 0x4D20 JUMPI SWAP1 PUSH2 0x4D1D SWAP2 PUSH2 0x4384 JUMP JUMPDEST SWAP2 JUMP JUMPDEST POP POP PUSH2 0x149 SLOAD PUSH1 0x1 SHL SWAP2 JUMP JUMPDEST SWAP1 SWAP2 SWAP4 SWAP3 PUSH2 0x4D39 DUP6 PUSH2 0x4583 JUMP JUMPDEST SWAP1 DUP2 PUSH2 0x4D45 DUP8 DUP10 PUSH2 0x424C JUMP JUMPDEST MSTORE PUSH2 0x4D5E PUSH2 0x4D53 DUP4 DUP9 PUSH2 0x430A JUMP JUMPDEST POP PUSH2 0x42CC DUP9 DUP7 PUSH2 0x3C2D JUMP JUMPDEST PUSH8 0xDE0B6B3A7640000 SWAP1 DUP2 DUP2 MUL SWAP2 DUP2 DUP4 DIV EQ SWAP1 ISZERO OR ISZERO PUSH2 0x4236 JUMPI PUSH2 0x4DA0 PUSH2 0x4DA6 SWAP3 PUSH2 0x42D8 DUP6 PUSH2 0x4D92 PUSH1 0x1 SWAP8 PUSH2 0x4D9B SWAP7 PUSH2 0x602E JUMP JUMPDEST SWAP5 DUP6 SWAP2 DUP13 PUSH2 0x4C49 JUMP JUMPDEST PUSH2 0x4371 JUMP JUMPDEST SWAP6 PUSH2 0x4229 JUMP JUMPDEST SWAP5 ADD SWAP2 SWAP1 PUSH2 0x4D03 JUMP JUMPDEST PUSH2 0x18F DUP1 SLOAD NUMBER LT ISZERO PUSH2 0x4DBE JUMPI POP JUMP JUMPDEST PUSH2 0x137 SLOAD PUSH1 0x0 JUMPDEST DUP2 DUP2 LT PUSH2 0x4DD8 JUMPI POP POP PUSH2 0x190 SLOAD NUMBER ADD SWAP1 SSTORE JUMP JUMPDEST DUP1 DUP1 PUSH32 0x19156E9379C7BBBCE8F646CE5EE30BA860B8F954717405F3D5859A6C1A21AE60 PUSH1 0x1 SWAP4 PUSH2 0x18E PUSH2 0x4E0E PUSH2 0x4CA5 DUP4 DUP4 PUSH2 0x3C2D JUMP JUMPDEST SWAP1 PUSH2 0x4E2C PUSH2 0x4E24 PUSH2 0x4E1E DUP6 PUSH2 0x4583 JUMP JUMPDEST DUP5 PUSH2 0x4CB8 JUMP JUMPDEST SWAP4 DUP5 SWAP3 PUSH2 0x3C2D JUMP JUMPDEST POP SSTORE MLOAD PUSH1 0x40 SWAP2 DUP3 MLOAD SWAP2 DUP3 MSTORE PUSH1 0x20 DUP3 ADD MSTORE LOG2 ADD PUSH2 0x4DC5 JUMP JUMPDEST PUSH1 0xA4 PUSH2 0x4EEF SWAP2 PUSH2 0x4E66 PUSH1 0x1 PUSH1 0x20 SWAP6 PUSH2 0x4E59 PUSH2 0x4FE4 JUMP JUMPDEST PUSH2 0x4E61 PUSH2 0x600D JUMP JUMPDEST PUSH2 0x4F47 JUMP JUMPDEST SWAP7 SWAP1 SWAP6 PUSH1 0x40 MLOAD SWAP3 PUSH2 0x4E78 PUSH1 0xA0 DUP6 PUSH2 0x3C49 JUMP JUMPDEST DUP4 MSTORE DUP6 DUP4 ADD DUP8 SWAP1 MSTORE CALLER PUSH1 0x40 DUP1 DUP6 ADD SWAP2 DUP3 MSTORE PUSH1 0x1 PUSH1 0x1 PUSH1 0xA0 SHL SUB SWAP3 DUP4 AND PUSH1 0x60 DUP7 ADD SWAP1 DUP2 MSTORE SWAP4 DUP4 AND PUSH1 0x80 DUP7 ADD SWAP1 DUP2 MSTORE PUSH2 0x14F SLOAD SWAP2 MLOAD PUSH4 0xE97A4D63 PUSH1 0xE0 SHL DUP2 MSTORE DUP7 MLOAD PUSH1 0x4 DUP3 ADD MSTORE PUSH1 0x20 SWAP1 SWAP7 ADD MLOAD PUSH1 0x24 DUP8 ADD MSTORE SWAP2 MLOAD DUP4 AND PUSH1 0x44 DUP7 ADD MSTORE SWAP3 MLOAD DUP3 AND PUSH1 0x64 DUP6 ADD MSTORE MLOAD DUP2 AND PUSH1 0x84 DUP5 ADD MSTORE SWAP2 SWAP7 DUP8 SWAP5 DUP6 SWAP4 SWAP2 SWAP3 SWAP1 SWAP2 AND SWAP1 JUMP JUMPDEST GAS CALL SWAP2 DUP3 ISZERO PUSH2 0x4657 JUMPI PUSH1 0x0 SWAP3 PUSH2 0x4F14 JUMPI JUMPDEST POP PUSH2 0x4F0F PUSH2 0x14E SWAP2 DUP3 SLOAD PUSH2 0x4229 JUMP JUMPDEST SWAP1 SSTORE SWAP1 JUMP JUMPDEST SWAP1 SWAP2 PUSH1 0x20 DUP3 RETURNDATASIZE DUP3 GT PUSH2 0x4F3F JUMPI JUMPDEST DUP2 PUSH2 0x4F2E PUSH1 0x20 SWAP4 DUP4 PUSH2 0x3C49 JUMP JUMPDEST DUP2 ADD SUB SLT PUSH2 0x81D JUMPI POP MLOAD SWAP1 CODESIZE PUSH2 0x4F00 JUMP JUMPDEST RETURNDATASIZE SWAP2 POP PUSH2 0x4F21 JUMP JUMPDEST PUSH2 0x14F SLOAD PUSH1 0x40 MLOAD PUSH4 0x24524EA1 PUSH1 0xE0 SHL DUP2 MSTORE SWAP4 SWAP3 PUSH1 0x1 PUSH1 0x1 PUSH1 0xA0 SHL SUB SWAP1 SWAP2 AND SWAP1 PUSH1 0xA DUP2 LT ISZERO PUSH2 0x4FCE JUMPI PUSH1 0x44 DUP6 PUSH1 0x20 SWAP4 DUP2 SWAP4 PUSH1 0x4 DUP4 ADD MSTORE DUP6 PUSH1 0x24 DUP4 ADD MSTORE GAS STATICCALL SWAP3 DUP4 ISZERO PUSH2 0x4657 JUMPI PUSH1 0x0 SWAP4 PUSH2 0x4F9B JUMPI JUMPDEST POP DUP3 SWAP1 SUB SWAP2 SWAP1 JUMP JUMPDEST SWAP1 SWAP3 PUSH1 0x20 DUP3 RETURNDATASIZE DUP3 GT PUSH2 0x4FC6 JUMPI JUMPDEST DUP2 PUSH2 0x4FB5 PUSH1 0x20 SWAP4 DUP4 PUSH2 0x3C49 JUMP JUMPDEST DUP2 ADD SUB SLT PUSH2 0x81D JUMPI POP MLOAD SWAP2 CODESIZE PUSH2 0x4F93 JUMP JUMPDEST RETURNDATASIZE SWAP2 POP PUSH2 0x4FA8 JUMP JUMPDEST PUSH4 0x4E487B71 PUSH1 0xE0 SHL PUSH1 0x0 MSTORE PUSH1 0x21 PUSH1 0x4 MSTORE PUSH1 0x24 PUSH1 0x0 REVERT JUMPDEST PUSH1 0xFF PUSH2 0x14B SLOAD PUSH1 0x8 SHR AND PUSH2 0x4FF4 JUMPI JUMP JUMPDEST PUSH1 0x40 MLOAD PUSH4 0x1CA61D77 PUSH1 0xE0 SHL DUP2 MSTORE PUSH1 0x4 SWAP1 REVERT JUMPDEST PUSH1 0xC4 SWAP1 PUSH2 0x4EEF SWAP3 SWAP6 SWAP5 PUSH2 0x501F PUSH1 0x3 PUSH1 0x20 SWAP7 PUSH2 0x4E59 PUSH2 0x4FE4 JUMP JUMPDEST SWAP8 SWAP1 SWAP7 PUSH1 0x40 MLOAD SWAP4 PUSH2 0x5031 PUSH1 0xC0 DUP7 PUSH2 0x3C49 JUMP JUMPDEST PUSH1 0x1 DUP1 PUSH1 0xA0 SHL SUB SWAP4 DUP5 SWAP4 DUP5 DUP1 SWAP4 AND DUP8 MSTORE DUP10 DUP8 ADD MSTORE DUP10 PUSH1 0x40 DUP8 ADD MSTORE CALLER PUSH1 0x60 DUP8 ADD MSTORE AND PUSH1 0x80 DUP6 ADD MSTORE AND PUSH1 0xA0 DUP4 ADD MSTORE PUSH2 0x14F SLOAD AND SWAP6 PUSH1 0x40 MLOAD SWAP7 DUP8 SWAP5 DUP6 SWAP4 PUSH4 0x7E81A821 PUSH1 0xE0 SHL DUP6 MSTORE PUSH1 0x4 DUP6 ADD SWAP1 JUMPDEST PUSH1 0xA0 SWAP1 DUP2 PUSH1 0x1 DUP1 DUP3 SHL SUB SWAP2 DUP3 DUP2 MLOAD AND DUP6 MSTORE PUSH1 0x20 DUP2 ADD MLOAD PUSH1 0x20 DUP7 ADD MSTORE PUSH1 0x40 DUP2 ADD MLOAD PUSH1 0x40 DUP7 ADD MSTORE DUP3 PUSH1 0x60 DUP3 ADD MLOAD AND PUSH1 0x60 DUP7 ADD MSTORE DUP3 PUSH1 0x80 DUP3 ADD MLOAD AND PUSH1 0x80 DUP7 ADD MSTORE ADD MLOAD AND SWAP2 ADD MSTORE JUMP JUMPDEST PUSH1 0xC4 SWAP1 PUSH2 0x4EEF SWAP3 SWAP6 SWAP5 PUSH2 0x50D9 PUSH1 0x5 PUSH1 0x20 SWAP7 PUSH2 0x4E59 PUSH2 0x4FE4 JUMP JUMPDEST SWAP8 SWAP1 SWAP7 PUSH1 0x40 MLOAD SWAP4 PUSH2 0x50EB PUSH1 0xC0 DUP7 PUSH2 0x3C49 JUMP JUMPDEST PUSH1 0x1 DUP1 PUSH1 0xA0 SHL SUB SWAP4 DUP5 SWAP4 DUP5 DUP1 SWAP4 AND DUP8 MSTORE DUP10 DUP8 ADD MSTORE DUP10 PUSH1 0x40 DUP8 ADD MSTORE CALLER PUSH1 0x60 DUP8 ADD MSTORE AND PUSH1 0x80 DUP6 ADD MSTORE AND PUSH1 0xA0 DUP4 ADD MSTORE PUSH2 0x14F SLOAD AND SWAP6 PUSH1 0x40 MLOAD SWAP7 DUP8 SWAP5 DUP6 SWAP4 PUSH4 0x23EC24B5 PUSH1 0xE1 SHL DUP6 MSTORE PUSH1 0x4 DUP6 ADD SWAP1 PUSH2 0x507B JUMP JUMPDEST PUSH2 0x51C1 SWAP2 SWAP4 SWAP7 SWAP6 PUSH2 0x5151 PUSH1 0x9 PUSH1 0x20 SWAP6 SWAP8 PUSH2 0x4E59 PUSH2 0x4FE4 JUMP JUMPDEST SWAP9 SWAP1 SWAP8 PUSH1 0x40 MLOAD SWAP4 PUSH2 0x5164 PUSH2 0x100 DUP7 PUSH2 0x3C49 JUMP JUMPDEST PUSH1 0x1 DUP1 PUSH1 0xA0 SHL SUB SWAP4 DUP5 SWAP4 DUP5 DUP1 DUP1 SWAP5 AND SWAP11 DUP12 DUP10 MSTORE AND DUP10 DUP9 ADD MSTORE DUP11 PUSH1 0x40 DUP9 ADD MSTORE PUSH1 0x60 DUP8 ADD MSTORE DUP11 PUSH1 0x80 DUP8 ADD MSTORE CALLER PUSH1 0xA0 DUP8 ADD MSTORE AND PUSH1 0xC0 DUP6 ADD MSTORE AND PUSH1 0xE0 DUP4 ADD MSTORE PUSH2 0x14F SLOAD AND SWAP1 PUSH1 0x40 MLOAD SWAP8 DUP9 DUP1 SWAP5 DUP2 SWAP4 PUSH4 0x34975A41 PUSH1 0xE0 SHL DUP4 MSTORE PUSH1 0x4 DUP4 ADD PUSH2 0x5226 JUMP JUMPDEST SUB SWAP3 GAS CALL SWAP4 DUP5 ISZERO PUSH2 0x4657 JUMPI PUSH1 0x0 SWAP5 PUSH2 0x51F1 JUMPI JUMPDEST POP SWAP1 PUSH2 0x51E3 SWAP2 ADDRESS SWAP1 CALLER SWAP1 PUSH2 0x528A JUMP JUMPDEST PUSH2 0x4F0F PUSH2 0x14E SWAP2 DUP3 SLOAD PUSH2 0x4229 JUMP JUMPDEST SWAP1 SWAP4 PUSH1 0x20 DUP3 RETURNDATASIZE DUP3 GT PUSH2 0x521E JUMPI JUMPDEST DUP2 PUSH2 0x520B PUSH1 0x20 SWAP4 DUP4 PUSH2 0x3C49 JUMP JUMPDEST DUP2 ADD SUB SLT PUSH2 0x81D JUMPI POP MLOAD SWAP3 PUSH2 0x51E3 PUSH2 0x51D4 JUMP JUMPDEST RETURNDATASIZE SWAP2 POP PUSH2 0x51FE JUMP JUMPDEST SWAP2 SWAP1 SWAP2 PUSH1 0xE0 PUSH2 0x100 DUP3 ADD SWAP4 DUP2 PUSH1 0x1 DUP1 PUSH1 0xA0 SHL SUB SWAP2 DUP3 DUP2 MLOAD AND DUP6 MSTORE DUP3 PUSH1 0x20 DUP3 ADD MLOAD AND PUSH1 0x20 DUP7 ADD MSTORE PUSH1 0x40 DUP2 ADD MLOAD PUSH1 0x40 DUP7 ADD MSTORE PUSH1 0x60 DUP2 ADD MLOAD PUSH1 0x60 DUP7 ADD MSTORE PUSH1 0x80 DUP2 ADD MLOAD PUSH1 0x80 DUP7 ADD MSTORE DUP3 PUSH1 0xA0 DUP3 ADD MLOAD AND PUSH1 0xA0 DUP7 ADD MSTORE DUP3 PUSH1 0xC0 DUP3 ADD MLOAD AND PUSH1 0xC0 DUP7 ADD MSTORE ADD MLOAD AND SWAP2 ADD MSTORE JUMP JUMPDEST PUSH1 0x40 MLOAD PUSH4 0x23B872DD PUSH1 0xE0 SHL PUSH1 0x20 DUP3 ADD MSTORE PUSH1 0x1 PUSH1 0x1 PUSH1 0xA0 SHL SUB SWAP3 DUP4 AND PUSH1 0x24 DUP3 ADD MSTORE SWAP3 SWAP1 SWAP2 AND PUSH1 0x44 DUP4 ADD MSTORE PUSH1 0x64 DUP3 ADD SWAP3 SWAP1 SWAP3 MSTORE PUSH2 0x3BB2 SWAP2 PUSH2 0x52D6 DUP3 PUSH1 0x84 DUP2 ADD JUMPDEST SUB PUSH1 0x1F NOT DUP2 ADD DUP5 MSTORE DUP4 PUSH2 0x3C49 JUMP JUMPDEST PUSH2 0x537E JUMP JUMPDEST PUSH2 0x52E5 PUSH1 0x20 PUSH2 0x3C81 JUMP JUMPDEST SWAP1 PUSH2 0x52F3 PUSH1 0x40 MLOAD SWAP3 DUP4 PUSH2 0x3C49 JUMP JUMPDEST PUSH1 0x20 DUP3 MSTORE PUSH32 0x5361666545524332303A206C6F772D6C6576656C2063616C6C206661696C6564 PUSH1 0x20 DUP4 ADD MSTORE JUMP JUMPDEST ISZERO PUSH2 0x5326 JUMPI JUMP JUMPDEST PUSH1 0x40 MLOAD PUSH3 0x461BCD PUSH1 0xE5 SHL DUP2 MSTORE PUSH1 0x20 PUSH1 0x4 DUP3 ADD MSTORE PUSH1 0x2A PUSH1 0x24 DUP3 ADD MSTORE PUSH32 0x5361666545524332303A204552433230206F7065726174696F6E20646964206E PUSH1 0x44 DUP3 ADD MSTORE PUSH10 0x1BDD081CDD58D8D95959 PUSH1 0xB2 SHL PUSH1 0x64 DUP3 ADD MSTORE PUSH1 0x84 SWAP1 REVERT JUMPDEST PUSH2 0x53B4 SWAP2 SWAP1 PUSH1 0x1 PUSH1 0x1 PUSH1 0xA0 SHL SUB AND PUSH1 0x0 DUP1 PUSH2 0x5397 PUSH2 0x52DB JUMP JUMPDEST SWAP4 PUSH2 0x53A2 PUSH1 0x1 PUSH2 0x53EE JUMP JUMPDEST PUSH1 0x20 DUP2 MLOAD SWAP2 ADD DUP3 DUP6 GAS CALL PUSH2 0x3F40 PUSH2 0x40CD JUMP JUMPDEST DUP1 MLOAD DUP1 ISZERO SWAP1 DUP2 ISZERO PUSH2 0x53CB JUMPI JUMPDEST POP PUSH2 0x3BB2 SWAP2 POP PUSH2 0x531F JUMP JUMPDEST PUSH1 0x20 SWAP2 POP DUP3 SWAP1 DUP2 ADD SUB SLT PUSH2 0x818 JUMPI PUSH2 0x53E8 PUSH1 0x20 PUSH2 0x3BB2 SWAP3 ADD PUSH2 0x45CA JUMP JUMPDEST CODESIZE PUSH2 0x53C0 JUMP JUMPDEST ISZERO PUSH2 0x53F5 JUMPI JUMP JUMPDEST PUSH1 0x40 MLOAD PUSH3 0x461BCD PUSH1 0xE5 SHL DUP2 MSTORE PUSH1 0x20 PUSH1 0x4 DUP3 ADD MSTORE PUSH1 0x26 PUSH1 0x24 DUP3 ADD MSTORE PUSH32 0x416464726573733A20696E73756666696369656E742062616C616E636520666F PUSH1 0x44 DUP3 ADD MSTORE PUSH6 0x1C8818D85B1B PUSH1 0xD2 SHL PUSH1 0x64 DUP3 ADD MSTORE PUSH1 0x84 SWAP1 REVERT JUMPDEST SWAP4 SWAP5 PUSH1 0xE4 PUSH2 0x54C8 SWAP2 PUSH2 0x5462 PUSH1 0x8 PUSH1 0x20 SWAP6 SWAP8 PUSH2 0x4E59 PUSH2 0x4FE4 JUMP JUMPDEST SWAP9 SWAP1 SWAP8 PUSH1 0x40 MLOAD SWAP3 PUSH2 0x5474 PUSH1 0xE0 DUP6 PUSH2 0x3C49 JUMP JUMPDEST PUSH1 0x1 DUP1 PUSH1 0xA0 SHL SUB DUP1 SWAP4 DUP2 DUP1 SWAP5 AND SWAP10 DUP11 DUP8 MSTORE DUP12 DUP11 DUP9 ADD MSTORE PUSH1 0x40 DUP8 ADD MSTORE DUP12 PUSH1 0x60 DUP8 ADD MSTORE CALLER PUSH1 0x80 DUP8 ADD MSTORE AND PUSH1 0xA0 DUP6 ADD MSTORE AND PUSH1 0xC0 DUP4 ADD MSTORE PUSH2 0x14F SLOAD AND SWAP8 PUSH1 0x40 MLOAD SWAP9 DUP10 SWAP5 DUP6 SWAP4 PUSH3 0x637447 PUSH1 0xE1 SHL DUP6 MSTORE PUSH1 0x4 DUP6 ADD SWAP1 PUSH2 0x54E7 JUMP JUMPDEST GAS CALL SWAP4 DUP5 ISZERO PUSH2 0x4657 JUMPI PUSH1 0x0 SWAP5 PUSH2 0x51F1 JUMPI POP SWAP1 PUSH2 0x51E3 SWAP2 ADDRESS SWAP1 CALLER SWAP1 PUSH2 0x528A JUMP JUMPDEST PUSH1 0xC0 SWAP1 DUP2 PUSH1 0x1 DUP1 PUSH1 0xA0 SHL SUB SWAP2 DUP3 DUP2 MLOAD AND DUP6 MSTORE PUSH1 0x20 DUP2 ADD MLOAD PUSH1 0x20 DUP7 ADD MSTORE PUSH1 0x40 DUP2 ADD MLOAD PUSH1 0x40 DUP7 ADD MSTORE PUSH1 0x60 DUP2 ADD MLOAD PUSH1 0x60 DUP7 ADD MSTORE DUP3 PUSH1 0x80 DUP3 ADD MLOAD AND PUSH1 0x80 DUP7 ADD MSTORE DUP3 PUSH1 0xA0 DUP3 ADD MLOAD AND PUSH1 0xA0 DUP7 ADD MSTORE ADD MLOAD AND SWAP2 ADD MSTORE JUMP JUMPDEST PUSH1 0xE4 PUSH2 0x55B9 SWAP2 PUSH2 0x5552 PUSH1 0x7 PUSH1 0x20 SWAP6 SWAP8 SWAP10 SWAP9 SWAP7 SWAP10 PUSH2 0x4E59 PUSH2 0x4FE4 JUMP JUMPDEST SWAP9 SWAP1 SWAP8 PUSH1 0x40 MLOAD SWAP3 PUSH2 0x5564 PUSH1 0xE0 DUP6 PUSH2 0x3C49 JUMP JUMPDEST PUSH1 0x1 DUP1 PUSH1 0xA0 SHL SUB SWAP8 DUP9 SWAP4 DUP5 DUP1 SWAP4 AND DUP7 MSTORE DUP11 DUP10 DUP8 ADD MSTORE PUSH1 0x40 DUP7 ADD MSTORE DUP11 PUSH1 0x60 DUP7 ADD MSTORE CALLER PUSH1 0x80 DUP7 ADD MSTORE AND PUSH1 0xA0 DUP5 ADD MSTORE AND PUSH1 0xC0 DUP3 ADD MSTORE DUP5 PUSH2 0x14F SLOAD AND SWAP8 PUSH1 0x40 MLOAD SWAP9 DUP10 SWAP5 DUP6 SWAP4 PUSH4 0x6B59C22F PUSH1 0xE0 SHL DUP6 MSTORE PUSH1 0x4 DUP6 ADD SWAP1 PUSH2 0x54E7 JUMP JUMPDEST GAS CALL SWAP4 DUP5 ISZERO PUSH2 0x4657 JUMPI PUSH1 0x0 SWAP5 PUSH2 0x55DE JUMPI JUMPDEST POP SWAP1 PUSH2 0x51E3 SWAP2 PUSH2 0x133 SLOAD AND ADDRESS SWAP1 CALLER SWAP1 PUSH2 0x528A JUMP JUMPDEST SWAP1 SWAP4 PUSH1 0x20 DUP3 RETURNDATASIZE DUP3 GT PUSH2 0x560B JUMPI JUMPDEST DUP2 PUSH2 0x55F8 PUSH1 0x20 SWAP4 DUP4 PUSH2 0x3C49 JUMP JUMPDEST DUP2 ADD SUB SLT PUSH2 0x81D JUMPI POP MLOAD SWAP3 PUSH2 0x51E3 PUSH2 0x55CA JUMP JUMPDEST RETURNDATASIZE SWAP2 POP PUSH2 0x55EB JUMP JUMPDEST SWAP2 SWAP3 SWAP1 SWAP3 PUSH2 0x561F PUSH2 0x4FE4 JUMP JUMPDEST PUSH2 0x5627 PUSH2 0x600D JUMP JUMPDEST PUSH1 0x40 MLOAD SWAP4 PUSH2 0x5636 PUSH1 0xA0 DUP7 PUSH2 0x3C49 JUMP JUMPDEST DUP4 DUP6 MSTORE PUSH1 0x20 DUP1 DUP7 ADD SWAP2 DUP3 MSTORE CALLER PUSH1 0x40 DUP1 DUP9 ADD SWAP2 DUP3 MSTORE PUSH1 0x1 PUSH1 0x1 PUSH1 0xA0 SHL SUB SWAP5 DUP6 AND PUSH1 0x60 DUP10 ADD SWAP1 DUP2 MSTORE SWAP6 DUP6 AND PUSH1 0x80 DUP10 ADD SWAP1 DUP2 MSTORE PUSH2 0x14F SLOAD SWAP2 MLOAD PUSH4 0xFA91A9A5 PUSH1 0xE0 SHL DUP2 MSTORE SWAP9 MLOAD PUSH1 0x4 DUP11 ADD MSTORE SWAP4 MLOAD PUSH1 0x24 DUP10 ADD MSTORE SWAP1 MLOAD DUP5 AND PUSH1 0x44 DUP9 ADD MSTORE SWAP4 MLOAD DUP4 AND PUSH1 0x64 DUP8 ADD MSTORE SWAP1 MLOAD DUP3 AND PUSH1 0x84 DUP7 ADD MSTORE SWAP1 SWAP2 DUP5 SWAP1 PUSH1 0xA4 SWAP1 DUP3 SWAP1 DUP6 AND CALLVALUE SWAP1 GAS CALL SWAP3 DUP4 ISZERO PUSH2 0x4657 JUMPI PUSH1 0x0 SWAP4 PUSH2 0x56D1 JUMPI JUMPDEST POP SWAP1 PUSH2 0x3B73 SWAP2 PUSH2 0x133 SLOAD AND ADDRESS SWAP1 CALLER SWAP1 PUSH2 0x528A JUMP JUMPDEST SWAP1 SWAP3 PUSH1 0x20 DUP3 RETURNDATASIZE DUP3 GT PUSH2 0x56FE JUMPI JUMPDEST DUP2 PUSH2 0x56EB PUSH1 0x20 SWAP4 DUP4 PUSH2 0x3C49 JUMP JUMPDEST DUP2 ADD SUB SLT PUSH2 0x81D JUMPI POP MLOAD SWAP2 PUSH2 0x3B73 PUSH2 0x56BD JUMP JUMPDEST RETURNDATASIZE SWAP2 POP PUSH2 0x56DE JUMP JUMPDEST PUSH1 0xC4 PUSH1 0x20 SWAP3 SWAP5 PUSH2 0x577E SWAP3 PUSH2 0x5718 PUSH2 0x4FE4 JUMP JUMPDEST PUSH2 0x5720 PUSH2 0x600D JUMP JUMPDEST PUSH1 0x40 MLOAD SWAP8 PUSH2 0x572F PUSH1 0xC0 DUP11 PUSH2 0x3C49 JUMP JUMPDEST PUSH1 0x1 DUP1 PUSH1 0xA0 SHL SUB DUP1 SWAP4 DUP2 DUP1 SWAP5 AND SWAP9 DUP10 DUP13 MSTORE DUP11 DUP10 DUP14 ADD MSTORE PUSH1 0x40 DUP13 ADD MSTORE CALLER PUSH1 0x60 DUP13 ADD MSTORE AND PUSH1 0x80 DUP11 ADD MSTORE AND PUSH1 0xA0 DUP9 ADD MSTORE PUSH2 0x14F SLOAD AND SWAP6 PUSH1 0x40 MLOAD SWAP7 DUP8 SWAP4 DUP5 SWAP3 PUSH4 0x6426C5DB PUSH1 0xE1 SHL DUP5 MSTORE PUSH1 0x4 DUP5 ADD SWAP1 PUSH2 0x507B JUMP JUMPDEST CALLVALUE SWAP1 GAS CALL SWAP3 DUP4 ISZERO PUSH2 0x4657 JUMPI PUSH1 0x0 SWAP4 PUSH2 0x57A0 JUMPI JUMPDEST POP SWAP1 PUSH2 0x3B73 SWAP2 ADDRESS SWAP1 CALLER SWAP1 PUSH2 0x528A JUMP JUMPDEST SWAP1 SWAP3 PUSH1 0x20 DUP3 RETURNDATASIZE DUP3 GT PUSH2 0x57CD JUMPI JUMPDEST DUP2 PUSH2 0x57BA PUSH1 0x20 SWAP4 DUP4 PUSH2 0x3C49 JUMP JUMPDEST DUP2 ADD SUB SLT PUSH2 0x81D JUMPI POP MLOAD SWAP2 PUSH2 0x3B73 PUSH2 0x5791 JUMP JUMPDEST RETURNDATASIZE SWAP2 POP PUSH2 0x57AD JUMP JUMPDEST SWAP4 SWAP1 SWAP2 SWAP4 PUSH2 0x57E1 PUSH2 0x4FE4 JUMP JUMPDEST PUSH2 0x57E9 PUSH2 0x600D JUMP JUMPDEST PUSH1 0x40 MLOAD SWAP6 PUSH2 0x57F8 PUSH1 0xE0 DUP9 PUSH2 0x3C49 JUMP JUMPDEST PUSH1 0x1 DUP1 PUSH1 0xA0 SHL SUB DUP1 SWAP4 DUP2 DUP1 SWAP5 AND SWAP7 DUP8 DUP11 MSTORE DUP7 PUSH1 0x20 DUP12 ADD MSTORE DUP9 PUSH1 0x40 DUP12 ADD MSTORE PUSH1 0x60 DUP11 ADD MSTORE CALLER PUSH1 0x80 DUP11 ADD MSTORE AND PUSH1 0xA0 DUP9 ADD MSTORE AND PUSH1 0xC0 DUP7 ADD MSTORE PUSH1 0x20 PUSH2 0x5856 PUSH1 0xE4 DUP4 PUSH2 0x14F SLOAD AND SWAP8 PUSH1 0x40 MLOAD SWAP9 DUP10 SWAP4 DUP5 SWAP3 PUSH4 0xE4E1B729 PUSH1 0xE0 SHL DUP5 MSTORE PUSH1 0x4 DUP5 ADD SWAP1 PUSH2 0x54E7 JUMP JUMPDEST CALLVALUE SWAP1 GAS CALL SWAP5 DUP6 ISZERO PUSH2 0x4657 JUMPI PUSH1 0x0 SWAP6 PUSH2 0x588B JUMPI JUMPDEST POP PUSH2 0x3B73 SWAP4 SWAP3 SWAP2 PUSH2 0x5882 SWAP2 PUSH2 0x133 SLOAD AND ADDRESS SWAP1 CALLER SWAP1 PUSH2 0x528A JUMP JUMPDEST ADDRESS SWAP1 CALLER SWAP1 PUSH2 0x528A JUMP JUMPDEST SWAP1 SWAP5 PUSH1 0x20 DUP3 RETURNDATASIZE DUP3 GT PUSH2 0x58B8 JUMPI JUMPDEST DUP2 PUSH2 0x58A5 PUSH1 0x20 SWAP4 DUP4 PUSH2 0x3C49 JUMP JUMPDEST DUP2 ADD SUB SLT PUSH2 0x81D JUMPI POP MLOAD SWAP4 PUSH2 0x3B73 PUSH2 0x5869 JUMP JUMPDEST RETURNDATASIZE SWAP2 POP PUSH2 0x5898 JUMP JUMPDEST PUSH1 0x40 MLOAD SWAP1 PUSH2 0x58CF PUSH1 0x80 DUP4 PUSH2 0x3C49 JUMP JUMPDEST PUSH1 0x0 PUSH1 0x60 DUP4 DUP3 DUP2 MSTORE DUP3 PUSH1 0x20 DUP3 ADD MSTORE DUP3 PUSH1 0x40 DUP3 ADD MSTORE ADD MSTORE JUMP JUMPDEST SWAP2 SWAP1 DUP3 PUSH1 0xA0 SWAP2 SUB SLT PUSH2 0x818 JUMPI PUSH1 0x40 MLOAD PUSH2 0x5901 PUSH1 0xA0 DUP3 PUSH2 0x3C49 JUMP JUMPDEST PUSH1 0x80 PUSH2 0x593F DUP2 DUP4 SWAP6 DUP1 CALLDATALOAD DUP6 MSTORE PUSH1 0x20 DUP2 ADD CALLDATALOAD PUSH1 0x20 DUP7 ADD MSTORE PUSH2 0x5923 PUSH1 0x40 DUP3 ADD PUSH2 0x3B26 JUMP JUMPDEST PUSH1 0x40 DUP7 ADD MSTORE PUSH2 0x5934 PUSH1 0x60 DUP3 ADD PUSH2 0x3B26 JUMP JUMPDEST PUSH1 0x60 DUP7 ADD MSTORE ADD PUSH2 0x3B26 JUMP JUMPDEST SWAP2 ADD MSTORE JUMP JUMPDEST SWAP2 SWAP1 PUSH2 0x594F SWAP1 PUSH2 0x4260 JUMP JUMPDEST SWAP2 SWAP1 SWAP3 PUSH2 0x595C DUP4 DUP6 PUSH2 0x4415 JUMP JUMPDEST SWAP1 DUP1 DUP3 GT ISZERO PUSH2 0x5969 JUMPI POP POP JUMP JUMPDEST PUSH1 0x44 SWAP3 POP PUSH1 0x40 MLOAD SWAP2 PUSH4 0x79121201 PUSH1 0xE0 SHL DUP4 MSTORE PUSH1 0x4 DUP4 ADD MSTORE PUSH1 0x24 DUP3 ADD MSTORE REVERT JUMPDEST SWAP3 SWAP1 SWAP4 SWAP2 PUSH1 0x0 SWAP2 PUSH1 0x0 SWAP2 DUP3 SWAP7 PUSH2 0x599B PUSH2 0x58C0 JUMP JUMPDEST SWAP7 PUSH1 0x1 PUSH1 0x1 PUSH1 0xA0 SHL SUB SWAP2 DUP6 SWAP1 DUP4 AND DUP1 PUSH2 0x5BA7 JUMPI JUMPDEST POP DUP3 PUSH2 0x12F SLOAD AND DUP4 PUSH1 0x40 MLOAD SWAP4 PUSH4 0x6EB1769F PUSH1 0xE1 SHL DUP6 MSTORE AND DUP1 PUSH1 0x4 DUP6 ADD MSTORE ADDRESS PUSH1 0x24 DUP6 ADD MSTORE PUSH1 0x20 SWAP5 DUP6 DUP6 PUSH1 0x44 DUP2 DUP7 GAS STATICCALL SWAP5 DUP6 ISZERO PUSH2 0x5B9C JUMPI DUP5 SWAP6 PUSH2 0x5B6D JUMPI JUMPDEST POP DUP5 PUSH2 0x5A4C JUMPI JUMPDEST POP POP POP POP POP DUP7 ADD MLOAD ISZERO PUSH2 0x5A08 JUMPI JUMPDEST POP POP POP SWAP3 SWAP2 SWAP1 JUMP JUMPDEST SWAP1 SWAP2 SWAP3 POP PUSH2 0x5A20 PUSH8 0xDE0B6B3A7640000 SWAP3 DUP4 SWAP3 PUSH2 0x4371 JUMP JUMPDEST DIV DUP1 DUP6 MSTORE SWAP1 DUP3 ISZERO PUSH2 0x5A44 JUMPI PUSH2 0x5A3C SWAP3 DIV SWAP1 DUP2 PUSH1 0x40 DUP7 ADD MSTORE PUSH2 0x4229 JUMP JUMPDEST CODESIZE DUP1 DUP1 PUSH2 0x5A00 JUMP JUMPDEST POP SWAP1 POP PUSH2 0x5A3C JUMP JUMPDEST PUSH2 0x5A5A SWAP1 PUSH2 0x130 SLOAD AND PUSH2 0x45F1 JUMP JUMPDEST SWAP3 SWAP1 SWAP3 ISZERO PUSH2 0x59F2 JUMPI SWAP1 SWAP2 SWAP3 SWAP4 SWAP12 POP DUP5 DUP12 PUSH2 0x5A94 DUP6 PUSH8 0xDE0B6B3A7640000 PUSH2 0x5A8E PUSH2 0x5A84 DUP14 DUP14 PUSH2 0x4371 JUMP JUMPDEST PUSH2 0x143 SLOAD SWAP1 PUSH2 0x4371 JUMP JUMPDEST DIV PUSH2 0x4384 JUMP JUMPDEST DUP2 DUP4 ADD DUP2 DUP2 MSTORE SWAP6 SWAP1 DUP12 ISZERO PUSH2 0x5B63 JUMPI POP PUSH2 0x5ABF SWAP2 PUSH2 0x5AB3 PUSH1 0x60 SWAP3 DUP14 PUSH2 0x4384 JUMP JUMPDEST SWAP2 DUP3 SWAP2 ADD MSTORE DUP6 MLOAD PUSH2 0x4229 JUMP JUMPDEST DUP1 SWAP14 JUMPDEST LT SWAP3 DUP4 ISZERO PUSH2 0x5AEE JUMPI JUMPDEST POP POP POP PUSH2 0x5ADB JUMPI JUMPDEST DUP1 DUP1 DUP1 PUSH2 0x59F2 JUMP JUMPDEST DUP2 SWAP3 SWAP10 POP MSTORE DUP1 PUSH1 0x60 DUP9 ADD MSTORE SWAP7 CODESIZE DUP1 PUSH2 0x5AD3 JUMP JUMPDEST SWAP1 SWAP2 SWAP3 POP PUSH1 0x24 PUSH1 0x40 MLOAD DUP1 SWAP5 DUP2 SWAP4 PUSH4 0x70A08231 PUSH1 0xE0 SHL DUP4 MSTORE PUSH1 0x4 DUP4 ADD MSTORE GAS STATICCALL SWAP1 DUP2 ISZERO PUSH2 0x5B58 JUMPI SWAP1 DUP12 SWAP2 DUP5 SWAP2 PUSH2 0x5B27 JUMPI JUMPDEST POP LT CODESIZE DUP5 DUP2 PUSH2 0x5ACB JUMP JUMPDEST DUP1 SWAP3 POP DUP6 DUP1 SWAP3 POP RETURNDATASIZE DUP4 GT PUSH2 0x5B51 JUMPI JUMPDEST PUSH2 0x5B40 DUP2 DUP4 PUSH2 0x3C49 JUMP JUMPDEST DUP2 ADD SUB SLT PUSH2 0xA08 JUMPI DUP11 SWAP1 MLOAD CODESIZE PUSH2 0x5B1D JUMP JUMPDEST POP RETURNDATASIZE PUSH2 0x5B36 JUMP JUMPDEST PUSH1 0x40 MLOAD RETURNDATASIZE DUP6 DUP3 RETURNDATACOPY RETURNDATASIZE SWAP1 REVERT JUMPDEST SWAP2 POP POP DUP1 SWAP14 PUSH2 0x5AC2 JUMP JUMPDEST SWAP1 SWAP5 POP DUP6 DUP2 DUP2 RETURNDATASIZE DUP4 GT PUSH2 0x5B95 JUMPI JUMPDEST PUSH2 0x5B85 DUP2 DUP4 PUSH2 0x3C49 JUMP JUMPDEST DUP2 ADD SUB SLT PUSH2 0xB3B JUMPI MLOAD SWAP4 CODESIZE PUSH2 0x59EB JUMP JUMPDEST POP RETURNDATASIZE PUSH2 0x5B7B JUMP JUMPDEST PUSH1 0x40 MLOAD RETURNDATASIZE DUP7 DUP3 RETURNDATACOPY RETURNDATASIZE SWAP1 REVERT JUMPDEST SWAP1 SWAP6 POP PUSH1 0x20 DUP4 PUSH2 0x1C3 SLOAD AND SWAP2 PUSH1 0x24 PUSH1 0x40 MLOAD DUP1 SWAP5 DUP2 SWAP4 PUSH4 0x64A731E9 PUSH1 0xE0 SHL DUP4 MSTORE PUSH1 0x4 DUP4 ADD MSTORE GAS STATICCALL DUP1 ISZERO PUSH2 0x5C1F JUMPI DUP7 SWAP1 PUSH2 0x5BEC JUMPI JUMPDEST PUSH2 0x5BE5 SWAP2 POP DUP5 PUSH2 0x4371 JUMP JUMPDEST SWAP5 CODESIZE PUSH2 0x59AF JUMP JUMPDEST POP PUSH1 0x20 DUP2 RETURNDATASIZE DUP3 GT PUSH2 0x5C17 JUMPI JUMPDEST DUP2 PUSH2 0x5C05 PUSH1 0x20 SWAP4 DUP4 PUSH2 0x3C49 JUMP JUMPDEST DUP2 ADD SUB SLT PUSH2 0x2C0F JUMPI PUSH2 0x5BE5 SWAP1 MLOAD PUSH2 0x5BDA JUMP JUMPDEST RETURNDATASIZE SWAP2 POP PUSH2 0x5BF8 JUMP JUMPDEST PUSH1 0x40 MLOAD RETURNDATASIZE DUP9 DUP3 RETURNDATACOPY RETURNDATASIZE SWAP1 REVERT JUMPDEST SWAP3 PUSH2 0x3BB2 SWAP5 SWAP2 SWAP3 SWAP4 DUP3 MLOAD ISZERO ISZERO PUSH1 0x0 EQ PUSH2 0x5C9A JUMPI POP PUSH1 0x40 PUSH2 0x5C95 SWAP3 PUSH2 0x5C8D PUSH8 0xDE0B6B3A7640000 PUSH2 0x5C5F PUSH2 0x13B SLOAD DUP5 MLOAD SWAP1 PUSH2 0x4371 JUMP JUMPDEST DIV PUSH2 0x131 PUSH2 0x5C6E DUP3 DUP3 SLOAD PUSH2 0x4229 JUMP JUMPDEST SWAP1 SSTORE PUSH2 0x5C87 PUSH1 0x1 DUP1 PUSH1 0xA0 SHL SUB PUSH2 0x146 SLOAD AND SWAP2 DUP5 MLOAD PUSH2 0x4433 JUMP JUMPDEST SWAP1 PUSH2 0x41D1 JUMP JUMPDEST ADD MLOAD SWAP1 PUSH2 0x41D1 JUMP JUMPDEST PUSH2 0x41D1 JUMP JUMPDEST SWAP1 PUSH1 0x60 PUSH2 0x5C95 SWAP4 PUSH2 0x5CBC PUSH1 0x1 DUP1 PUSH1 0xA0 SHL SUB PUSH2 0x146 SLOAD AND PUSH1 0x20 DUP4 ADD MLOAD SWAP1 DUP7 PUSH2 0x5CC0 JUMP JUMPDEST ADD MLOAD SWAP2 JUMPDEST SWAP2 SWAP1 DUP2 PUSH2 0x5CCC JUMPI POP POP POP JUMP JUMPDEST PUSH2 0x12F SLOAD PUSH1 0x40 MLOAD PUSH4 0x23B872DD PUSH1 0xE0 SHL PUSH1 0x20 DUP3 ADD SWAP1 DUP2 MSTORE PUSH1 0x1 PUSH1 0x1 PUSH1 0xA0 SHL SUB SWAP6 DUP7 AND PUSH1 0x24 DUP4 ADD MSTORE SWAP3 DUP6 AND PUSH1 0x44 DUP3 ADD MSTORE PUSH1 0x64 DUP1 DUP3 ADD SWAP5 SWAP1 SWAP5 MSTORE SWAP3 DUP4 MSTORE PUSH2 0x53B4 SWAP4 AND SWAP1 PUSH1 0x0 SWAP1 DUP2 SWAP1 PUSH2 0x5D1C PUSH1 0x84 DUP7 PUSH2 0x3C49 JUMP JUMPDEST PUSH2 0x5D24 PUSH2 0x52DB JUMP JUMPDEST SWAP5 PUSH2 0x5D2F PUSH1 0x1 PUSH2 0x53EE JUMP JUMPDEST MLOAD SWAP1 DUP3 DUP6 GAS CALL PUSH2 0x3F40 PUSH2 0x40CD JUMP JUMPDEST SWAP2 SWAP1 DUP3 PUSH1 0xC0 SWAP2 SUB SLT PUSH2 0x818 JUMPI PUSH1 0x40 MLOAD PUSH2 0x5D57 PUSH1 0xC0 DUP3 PUSH2 0x3C49 JUMP JUMPDEST PUSH1 0xA0 PUSH2 0x593F DUP2 DUP4 SWAP6 PUSH2 0x5D68 DUP2 PUSH2 0x3B26 JUMP JUMPDEST DUP6 MSTORE PUSH1 0x20 DUP2 ADD CALLDATALOAD PUSH1 0x20 DUP7 ADD MSTORE PUSH1 0x40 DUP2 ADD CALLDATALOAD PUSH1 0x40 DUP7 ADD MSTORE PUSH2 0x5D8A PUSH1 0x60 DUP3 ADD PUSH2 0x3B26 JUMP JUMPDEST PUSH1 0x60 DUP7 ADD MSTORE PUSH2 0x5D9B PUSH1 0x80 DUP3 ADD PUSH2 0x3B26 JUMP JUMPDEST PUSH1 0x80 DUP7 ADD MSTORE ADD PUSH2 0x3B26 JUMP JUMPDEST SWAP1 PUSH2 0x5DB3 SWAP5 SWAP4 SWAP3 SWAP2 PUSH2 0x4B46 JUMP JUMPDEST PUSH1 0x0 DUP2 SLT PUSH2 0x4C23 JUMPI SWAP1 JUMP JUMPDEST DUP1 PUSH2 0x5DC7 PUSH2 0x4746 JUMP JUMPDEST SWAP2 SWAP1 SWAP4 PUSH2 0x5DD4 PUSH1 0x0 PUSH2 0x469D JUMP JUMPDEST SWAP5 ADD SWAP4 DUP3 SWAP2 PUSH2 0x5E6C JUMPI JUMPDEST ADD SWAP4 DUP5 PUSH1 0x0 DUP1 DUP3 SLT PUSH2 0x5E66 JUMPI POP JUMPDEST DUP5 SUB SWAP2 DUP2 DUP6 GT PUSH2 0x5E2E JUMPI POP POP DUP2 DUP2 GT PUSH2 0x5E10 JUMPI POP POP PUSH2 0x155 SSTORE PUSH2 0x156 SSTORE NUMBER PUSH2 0x157 SSTORE JUMP JUMPDEST PUSH1 0x44 SWAP3 POP PUSH1 0x40 MLOAD SWAP2 PUSH4 0x6DA41E5 PUSH1 0xE1 SHL DUP4 MSTORE PUSH1 0x4 DUP4 ADD MSTORE PUSH1 0x24 DUP3 ADD MSTORE REVERT JUMPDEST SWAP1 DUP1 DUP6 SWAP3 GT PUSH2 0x5E54 JUMPI PUSH1 0x44 SWAP2 PUSH1 0x40 MLOAD SWAP2 PUSH4 0x6DA41E5 PUSH1 0xE1 SHL DUP4 MSTORE PUSH1 0x4 DUP4 ADD MSTORE PUSH1 0x24 DUP3 ADD MSTORE REVERT JUMPDEST PUSH1 0x40 MLOAD PUSH4 0xFB4FD35 PUSH1 0xE1 SHL DUP2 MSTORE PUSH1 0x4 SWAP1 REVERT JUMPDEST SUB PUSH2 0x5DEC JUMP JUMPDEST SWAP1 POP DUP2 PUSH1 0x0 SUB SWAP1 PUSH2 0x5DDE JUMP JUMPDEST DUP1 SWAP2 SUB PUSH1 0xE0 DUP2 SLT PUSH2 0x818 JUMPI DUP2 MLOAD SWAP3 PUSH1 0x20 DUP4 ADD MLOAD SWAP3 PUSH1 0x80 PUSH1 0x40 DUP3 ADD MLOAD SWAP4 PUSH1 0x5F NOT ADD SLT PUSH2 0x818 JUMPI PUSH1 0xC0 PUSH1 0x40 MLOAD SWAP2 PUSH2 0x5EAE PUSH1 0x80 DUP5 PUSH2 0x3C49 JUMP JUMPDEST PUSH1 0x60 DUP2 ADD MLOAD DUP4 MSTORE PUSH1 0x80 DUP2 ADD MLOAD PUSH1 0x20 DUP5 ADD MSTORE PUSH1 0xA0 DUP2 ADD MLOAD PUSH1 0x40 DUP5 ADD MSTORE ADD MLOAD PUSH1 0x60 DUP3 ADD MSTORE SWAP1 JUMP JUMPDEST SWAP2 SWAP1 DUP3 PUSH1 0xE0 SWAP2 SUB SLT PUSH2 0x818 JUMPI PUSH1 0x40 MLOAD PUSH2 0x5EED PUSH1 0xE0 DUP3 PUSH2 0x3C49 JUMP JUMPDEST PUSH1 0xC0 PUSH2 0x593F DUP2 DUP4 SWAP6 PUSH2 0x5EFE DUP2 PUSH2 0x3B26 JUMP JUMPDEST DUP6 MSTORE PUSH1 0x20 DUP2 ADD CALLDATALOAD PUSH1 0x20 DUP7 ADD MSTORE PUSH1 0x40 DUP2 ADD CALLDATALOAD PUSH1 0x40 DUP7 ADD MSTORE PUSH1 0x60 DUP2 ADD CALLDATALOAD PUSH1 0x60 DUP7 ADD MSTORE PUSH2 0x5F2A PUSH1 0x80 DUP3 ADD PUSH2 0x3B26 JUMP JUMPDEST PUSH1 0x80 DUP7 ADD MSTORE PUSH2 0x5F3B PUSH1 0xA0 DUP3 ADD PUSH2 0x3B26 JUMP JUMPDEST PUSH1 0xA0 DUP7 ADD MSTORE ADD PUSH2 0x3B26 JUMP JUMPDEST PUSH1 0x40 MLOAD PUSH4 0xA9059CBB PUSH1 0xE0 SHL PUSH1 0x20 DUP3 ADD MSTORE PUSH1 0x1 PUSH1 0x1 PUSH1 0xA0 SHL SUB SWAP1 SWAP3 AND PUSH1 0x24 DUP4 ADD MSTORE PUSH1 0x44 DUP3 ADD SWAP3 SWAP1 SWAP3 MSTORE PUSH2 0x3BB2 SWAP2 PUSH2 0x52D6 DUP3 PUSH1 0x64 DUP2 ADD PUSH2 0x52C8 JUMP JUMPDEST PUSH1 0x97 SLOAD PUSH1 0x40 MLOAD PUSH4 0xD994D6D5 PUSH1 0xE0 SHL DUP2 MSTORE CALLER PUSH1 0x4 DUP3 ADD MSTORE SWAP1 PUSH1 0x20 SWAP1 DUP3 SWAP1 PUSH1 0x24 SWAP1 DUP3 SWAP1 PUSH1 0x1 PUSH1 0x1 PUSH1 0xA0 SHL SUB AND GAS STATICCALL SWAP1 DUP2 ISZERO PUSH2 0x4657 JUMPI PUSH1 0x0 SWAP2 PUSH2 0x5FD4 JUMPI JUMPDEST POP ISZERO PUSH2 0x5FC2 JUMPI JUMP JUMPDEST PUSH1 0x40 MLOAD PUSH4 0x1DD1B1B5 PUSH1 0xE2 SHL DUP2 MSTORE PUSH1 0x4 SWAP1 REVERT JUMPDEST SWAP1 PUSH1 0x20 DUP3 RETURNDATASIZE DUP3 GT PUSH2 0x6005 JUMPI JUMPDEST DUP2 PUSH2 0x5FED PUSH1 0x20 SWAP4 DUP4 PUSH2 0x3C49 JUMP JUMPDEST DUP2 ADD SUB SLT PUSH2 0x81D JUMPI POP PUSH2 0x5FFF SWAP1 PUSH2 0x45CA JUMP JUMPDEST CODESIZE PUSH2 0x5FBA JUMP JUMPDEST RETURNDATASIZE SWAP2 POP PUSH2 0x5FE0 JUMP JUMPDEST PUSH1 0xFF PUSH1 0xCA SLOAD PUSH1 0x8 SHR AND PUSH2 0x601C JUMPI JUMP JUMPDEST PUSH1 0x40 MLOAD PUSH4 0x783BB6C9 PUSH1 0xE1 SHL DUP2 MSTORE PUSH1 0x4 SWAP1 REVERT JUMPDEST SWAP1 PUSH8 0xDE0B6B3A7640000 SWAP2 DUP3 DUP2 MUL SWAP3 DUP2 DUP5 DIV EQ SWAP1 ISZERO OR ISZERO PUSH2 0x4236 JUMPI PUSH2 0x3B73 SWAP2 PUSH2 0x4384 JUMP JUMPDEST PUSH8 0xDE0B6B3A7640000 LT PUSH2 0x6062 JUMPI JUMP JUMPDEST PUSH1 0x40 MLOAD PUSH4 0x2A9FFAB7 PUSH1 0xE2 SHL DUP2 MSTORE PUSH1 0x4 SWAP1 REVERT INVALID LOG2 PUSH5 0x6970667358 0x22 SLT KECCAK256 SHL DUP15 SMOD STOP 0xEF EXP 0xCD PUSH12 0xB1C7A992B1B64F16992EA3CD INVALID EXTCODESIZE LOG2 DUP7 SUB 0xFC 0xB9 0xA7 SHR SELFBALANCE RETURNDATACOPY CALLVALUE PUSH5 0x736F6C6343 STOP ADDMOD EQ STOP CALLER "
    },
    "gasEstimates": {
      "creation": {
        "codeDepositCost": "4949200",
        "executionCost": "infinite",
        "totalCost": "infinite"
      },
      "external": {
        "absoluteAccumulator()": "5308",
        "addPeggedToken((address,address,uint256,uint256,uint256,uint256,uint256))": "infinite",
        "appreciationFactor()": "5836",
        "bes()": "3350",
        "bns()": "2602",
        "calcCtargemaCA()": "infinite",
        "changeGovernor(address)": "infinite",
        "coinbaseFailedTransferFallback()": "5813",
        "decayBlockSpan()": "3966",
        "differentialAccumulator()": "4076",
        "editPeggedToken((address,address,uint256,uint256,uint256,uint256,uint256))": "infinite",
        "emaCalculationBlockSpan()": "4230",
        "evalLiquidation()": "infinite",
        "execMintTC((uint256,uint256,address,address,address))": "infinite",
        "execMintTCandTP((address,uint256,uint256,address,address,address))": "infinite",
        "execMintTP((address,uint256,uint256,address,address,address))": "infinite",
        "execRedeemTC((uint256,uint256,address,address,address))": "infinite",
        "execRedeemTCandTP((address,uint256,uint256,uint256,address,address,address))": "infinite",
        "execRedeemTP((address,uint256,uint256,address,address,address))": "infinite",
        "execSettlement()": "infinite",
        "execSwapTCforTP((address,uint256,uint256,uint256,address,address,address))": "infinite",
        "execSwapTPforTC((address,uint256,uint256,uint256,address,address,address))": "infinite",
        "execSwapTPforTP((address,address,uint256,uint256,uint256,address,address,address))": "infinite",
        "feeRetainer()": "3394",
        "feeToken()": "3811",
        "feeTokenPct()": "2888",
        "feeTokenPriceProvider()": "5703",
        "getBts()": "5711",
        "getCglb()": "infinite",
        "getCustomMockValue()": "5765",
        "getExpansionCustomMockValue()": "infinite",
        "getLckAC()": "infinite",
        "getLeverageTC()": "infinite",
        "getPACtp(address)": "infinite",
        "getPTCac()": "infinite",
        "getTCAvailableToRedeem()": "infinite",
        "getTPAvailableToMint(address)": "infinite",
        "getTotalACavailable()": "infinite",
        "getTpAmount()": "5941",
        "governor()": "2425",
        "initialize((((address,address,address,address,address,address,uint256,uint256,uint256,uint256,uint256,uint256,uint256,uint256,uint256,uint256,uint256,uint256,uint256,uint256,address,uint256,uint256,address,address,uint256),address,address,address,uint256,address),uint256,address))": "infinite",
        "initializeMock()": "23702",
        "isLiquidationReached()": "infinite",
        "lastOperationBlockNumber()": "3614",
        "liqEnabled()": "5584",
        "liqRedeemTP(address)": "infinite",
        "liqRedeemTPto(address,address)": "infinite",
        "liqThrld()": "4516",
        "liquidated()": "2752",
        "makeStoppable()": "infinite",
        "makeUnstoppable()": "infinite",
        "maxAbsoluteOpProvider()": "5659",
        "maxOpDiffProvider()": "4933",
        "maxQACToMintTP()": "infinite",
        "maxQACToRedeemTP()": "infinite",
        "mintTC(uint256)": "infinite",
        "mintTCViaVendor(uint256,address)": "infinite",
        "mintTCandTP(address,uint256)": "infinite",
        "mintTCandTPFee()": "4164",
        "mintTCandTPViaVendor(address,uint256,address)": "infinite",
        "mintTCandTPto(address,uint256,address)": "infinite",
        "mintTCandTPtoViaVendor(address,uint256,address,address)": "infinite",
        "mintTCto(uint256,address)": "infinite",
        "mintTCtoViaVendor(uint256,address,address)": "infinite",
        "mintTP(address,uint256)": "infinite",
        "mintTPViaVendor(address,uint256,address)": "infinite",
        "mintTPto(address,uint256,address)": "infinite",
        "mintTPtoViaVendor(address,uint256,address,address)": "infinite",
        "mocAppreciationBeneficiaryAddress()": "3393",
        "mocFeeFlowAddress()": "4669",
        "mocQueue()": "2579",
        "mocVendors()": "4339",
        "nACcb()": "5748",
        "nTCcb()": "4186",
        "newVariable()": "4538",
        "nextEmaCalculation()": "2426",
        "nextTCInterestPayment()": "4934",
        "pause()": "29760",
        "paused()": "3698",
        "pauser()": "4788",
        "pegContainer(uint256)": "9805",
        "peggedTokenIndex(address)": "6986",
        "protThrld()": "3944",
        "proxiableUUID()": "infinite",
        "qACLockedInPending()": "3702",
        "redeemTC(uint256,uint256)": "infinite",
        "redeemTCViaVendor(uint256,uint256,address)": "infinite",
        "redeemTCandTP(address,uint256,uint256,uint256)": "infinite",
        "redeemTCandTPFee()": "5770",
        "redeemTCandTPViaVendor(address,uint256,uint256,uint256,address)": "infinite",
        "redeemTCandTPto(address,uint256,uint256,uint256,address)": "infinite",
        "redeemTCandTPtoViaVendor(address,uint256,uint256,uint256,address,address)": "infinite",
        "redeemTCto(uint256,uint256,address)": "infinite",
        "redeemTCtoViaVendor(uint256,uint256,address,address)": "infinite",
        "redeemTP(address,uint256,uint256)": "infinite",
        "redeemTPViaVendor(address,uint256,uint256,address)": "infinite",
        "redeemTPto(address,uint256,uint256,address)": "infinite",
        "redeemTPtoViaVendor(address,uint256,uint256,address,address)": "infinite",
        "setAppreciationFactor(uint256)": "infinite",
        "setBes(uint256)": "infinite",
        "setDecayBlockSpan(uint256)": "infinite",
        "setEmaCalculationBlockSpan(uint256)": "infinite",
        "setFeeRetainer(uint256)": "infinite",
        "setFeeTokenAddress(address)": "infinite",
        "setFeeTokenPct(uint256)": "infinite",
        "setFeeTokenPriceProviderAddress(address)": "infinite",
        "setLiqEnabled(bool)": "infinite",
        "setLiqThrld(uint256)": "infinite",
        "setMaxAbsoluteOpProviderAddress(address)": "infinite",
        "setMaxOpDiffProviderAddress(address)": "infinite",
        "setMintTCandTPFee(uint256)": "infinite",
        "setMocAppreciationBeneficiaryAddress(address)": "infinite",
        "setMocCoreExpansion(address)": "infinite",
        "setMocFeeFlowAddress(address)": "infinite",
        "setMocQueue(address)": "infinite",
        "setMocVendors(address)": "infinite",
        "setPauser(address)": "infinite",
        "setProtThrld(uint256)": "infinite",
        "setRedeemTCandTPFee(uint256)": "infinite",
        "setSuccessFee(uint256)": "infinite",
        "setSwapTCforTPFee(uint256)": "infinite",
        "setSwapTPforTCFee(uint256)": "infinite",
        "setSwapTPforTPFee(uint256)": "infinite",
        "setTCInterestCollectorAddress(address)": "infinite",
        "setTCInterestPaymentBlockSpan(uint256)": "infinite",
        "setTCInterestRate(uint256)": "infinite",
        "setTcMintFee(uint256)": "infinite",
        "setTcRedeemFee(uint256)": "infinite",
        "setTransferMAxGas(uint256)": "infinite",
        "shouldCalculateEma()": "4788",
        "stoppable()": "4968",
        "successFee()": "4054",
        "swapTCforTP(address,uint256,uint256)": "infinite",
        "swapTCforTPFee()": "2822",
        "swapTCforTPViaVendor(address,uint256,uint256,address)": "infinite",
        "swapTCforTPto(address,uint256,uint256,address)": "infinite",
        "swapTCforTPtoViaVendor(address,uint256,uint256,address,address)": "infinite",
        "swapTPforTC(address,uint256,uint256)": "infinite",
        "swapTPforTCFee()": "2932",
        "swapTPforTCViaVendor(address,uint256,uint256,address)": "infinite",
        "swapTPforTCto(address,uint256,uint256,address)": "infinite",
        "swapTPforTCtoViaVendor(address,uint256,uint256,address,address)": "infinite",
        "swapTPforTP(address,address,uint256,uint256)": "infinite",
        "swapTPforTPFee()": "3196",
        "swapTPforTPViaVendor(address,address,uint256,uint256,address)": "infinite",
        "swapTPforTPto(address,address,uint256,uint256,address)": "infinite",
        "swapTPforTPtoViaVendor(address,address,uint256,uint256,address,address)": "infinite",
        "tcHoldersInterestPayment()": "infinite",
        "tcInterestCollectorAddress()": "4581",
        "tcInterestPaymentBlockSpan()": "4362",
        "tcInterestRate()": "2492",
        "tcMintFee()": "5924",
        "tcRedeemFee()": "4824",
        "tcToken()": "3789",
        "tpCtarg(uint256)": "8662",
        "tpEma(uint256)": "12028",
        "tpLiqPrices(uint256)": "7386",
        "tpMintFees(address)": "2890",
        "tpRedeemFees(address)": "5530",
        "tpTokens(uint256)": "6678",
        "transferMaxGas()": "5616",
        "unlockACInPending(address,uint256)": "infinite",
        "unlockTCInPending(address,uint256)": "infinite",
        "unlockTPInPending(address,address,uint256)": "infinite",
        "unpause()": "26354",
        "updateEmas()": "infinite",
        "upgradeTo(address)": "infinite",
        "upgradeToAndCall(address,bytes)": "infinite"
      }
    },
    "methodIdentifiers": {
      "absoluteAccumulator()": "d87aab6f",
      "addPeggedToken((address,address,uint256,uint256,uint256,uint256,uint256))": "db796072",
      "appreciationFactor()": "fa6e83bd",
      "bes()": "4d977e78",
      "bns()": "1867e2f5",
      "calcCtargemaCA()": "662013f4",
      "changeGovernor(address)": "e4c0aaf4",
      "coinbaseFailedTransferFallback()": "f3772886",
      "decayBlockSpan()": "6f30471f",
      "differentialAccumulator()": "76228055",
      "editPeggedToken((address,address,uint256,uint256,uint256,uint256,uint256))": "f26114aa",
      "emaCalculationBlockSpan()": "7a727fe8",
      "evalLiquidation()": "33421c38",
      "execMintTC((uint256,uint256,address,address,address))": "235e81cf",
      "execMintTCandTP((address,uint256,uint256,address,address,address))": "883d21cb",
      "execMintTP((address,uint256,uint256,address,address,address))": "b4434c32",
      "execRedeemTC((uint256,uint256,address,address,address))": "bfe42621",
      "execRedeemTCandTP((address,uint256,uint256,uint256,address,address,address))": "d8c69aec",
      "execRedeemTP((address,uint256,uint256,address,address,address))": "ad4e666d",
      "execSettlement()": "5c616a73",
      "execSwapTCforTP((address,uint256,uint256,uint256,address,address,address))": "4af3a6fc",
      "execSwapTPforTC((address,uint256,uint256,uint256,address,address,address))": "bc4e55b2",
      "execSwapTPforTP((address,address,uint256,uint256,uint256,address,address,address))": "391bf6cf",
      "feeRetainer()": "4f0f27ee",
      "feeToken()": "647846a5",
      "feeTokenPct()": "2ded50f0",
      "feeTokenPriceProvider()": "f13f4054",
      "getBts()": "e8859a15",
      "getCglb()": "826fcd58",
      "getCustomMockValue()": "57271f4d",
      "getExpansionCustomMockValue()": "07164879",
      "getLckAC()": "8f1a383a",
      "getLeverageTC()": "c039cc69",
      "getPACtp(address)": "fadda424",
      "getPTCac()": "1fb0dda0",
      "getTCAvailableToRedeem()": "4017936a",
      "getTPAvailableToMint(address)": "f88b1434",
      "getTotalACavailable()": "de8d520a",
      "getTpAmount()": "fe6b92c1",
      "governor()": "0c340a24",
      "initialize((((address,address,address,address,address,address,uint256,uint256,uint256,uint256,uint256,uint256,uint256,uint256,uint256,uint256,uint256,uint256,uint256,uint256,address,uint256,uint256,address,address,uint256),address,address,address,uint256,address),uint256,address))": "963dcc98",
      "initializeMock()": "5e2a6065",
      "isLiquidationReached()": "9ad6659d",
      "lastOperationBlockNumber()": "5860ee63",
      "liqEnabled()": "e7c25978",
      "liqRedeemTP(address)": "17937f9b",
      "liqRedeemTPto(address,address)": "9bea71a4",
      "liqThrld()": "8cfa4241",
      "liquidated()": "23b98cde",
      "makeStoppable()": "68274357",
      "makeUnstoppable()": "5210570c",
      "maxAbsoluteOpProvider()": "ee1f438f",
      "maxOpDiffProvider()": "b5e9ea8c",
      "maxQACToMintTP()": "d6af11da",
      "maxQACToRedeemTP()": "7f13b998",
      "mintTC(uint256)": "31f64ec2",
      "mintTCViaVendor(uint256,address)": "d8233ecc",
      "mintTCandTP(address,uint256)": "4c6af8e8",
      "mintTCandTPFee()": "79f9a91c",
      "mintTCandTPViaVendor(address,uint256,address)": "960556f3",
      "mintTCandTPto(address,uint256,address)": "d471849b",
      "mintTCandTPtoViaVendor(address,uint256,address,address)": "79873a26",
      "mintTCto(uint256,address)": "b3903b39",
      "mintTCtoViaVendor(uint256,address,address)": "fb3bfcea",
      "mintTP(address,uint256)": "243d56a5",
      "mintTPViaVendor(address,uint256,address)": "3b0d5fff",
      "mintTPto(address,uint256,address)": "51a9cedc",
      "mintTPtoViaVendor(address,uint256,address,address)": "dd9928d8",
      "mocAppreciationBeneficiaryAddress()": "4e1f907a",
      "mocFeeFlowAddress()": "9853c35a",
      "mocQueue()": "13ed7ba5",
      "mocVendors()": "7f01c715",
      "nACcb()": "f30b5614",
      "nTCcb()": "7a193c31",
      "newVariable()": "8d7a72f3",
      "nextEmaCalculation()": "0c36d897",
      "nextTCInterestPayment()": "b9fa6413",
      "pause()": "8456cb59",
      "paused()": "5c975abb",
      "pauser()": "9fd0506d",
      "pegContainer(uint256)": "4b746001",
      "peggedTokenIndex(address)": "9cabfc00",
      "protThrld()": "6b5488df",
      "proxiableUUID()": "52d1902d",
      "qACLockedInPending()": "5cfbe578",
      "redeemTC(uint256,uint256)": "9abb14c9",
      "redeemTCViaVendor(uint256,uint256,address)": "471a80e3",
      "redeemTCandTP(address,uint256,uint256,uint256)": "34246862",
      "redeemTCandTPFee()": "f375cfba",
      "redeemTCandTPViaVendor(address,uint256,uint256,uint256,address)": "aeb41e69",
      "redeemTCandTPto(address,uint256,uint256,uint256,address)": "fd80fa77",
      "redeemTCandTPtoViaVendor(address,uint256,uint256,uint256,address,address)": "5ece17ef",
      "redeemTCto(uint256,uint256,address)": "e4012945",
      "redeemTCtoViaVendor(uint256,uint256,address,address)": "3dbc50a9",
      "redeemTP(address,uint256,uint256)": "466b8934",
      "redeemTPViaVendor(address,uint256,uint256,address)": "8acc2011",
      "redeemTPto(address,uint256,uint256,address)": "52e18f8f",
      "redeemTPtoViaVendor(address,uint256,uint256,address,address)": "89fd503e",
      "setAppreciationFactor(uint256)": "01dde6ef",
      "setBes(uint256)": "c84353c9",
      "setDecayBlockSpan(uint256)": "73e28af9",
      "setEmaCalculationBlockSpan(uint256)": "3bc4ac0a",
      "setFeeRetainer(uint256)": "7750ba0c",
      "setFeeTokenAddress(address)": "cf351c1d",
      "setFeeTokenPct(uint256)": "543aeb48",
      "setFeeTokenPriceProviderAddress(address)": "0f1e5e2b",
      "setLiqEnabled(bool)": "1fe6a7ad",
      "setLiqThrld(uint256)": "2c43bd3b",
      "setMaxAbsoluteOpProviderAddress(address)": "d8db6f5a",
      "setMaxOpDiffProviderAddress(address)": "85bf9593",
      "setMintTCandTPFee(uint256)": "2069f753",
      "setMocAppreciationBeneficiaryAddress(address)": "27eab2a1",
      "setMocCoreExpansion(address)": "e6a683e0",
      "setMocFeeFlowAddress(address)": "0d6ac463",
      "setMocQueue(address)": "3cfb09ef",
      "setMocVendors(address)": "533a4bea",
      "setPauser(address)": "2d88af4a",
      "setProtThrld(uint256)": "7cba2383",
      "setRedeemTCandTPFee(uint256)": "7a4ff1d9",
      "setSuccessFee(uint256)": "becaca6b",
      "setSwapTCforTPFee(uint256)": "7af5758c",
      "setSwapTPforTCFee(uint256)": "0e0a8fd2",
      "setSwapTPforTPFee(uint256)": "70713468",
      "setTCInterestCollectorAddress(address)": "735d3960",
      "setTCInterestPaymentBlockSpan(uint256)": "073763b9",
      "setTCInterestRate(uint256)": "64ec230a",
      "setTcMintFee(uint256)": "f2808778",
      "setTcRedeemFee(uint256)": "c00f538d",
      "setTransferMAxGas(uint256)": "c4cb376c",
      "shouldCalculateEma()": "a8e9ac30",
      "stoppable()": "bb4872de",
      "successFee()": "7554fffd",
      "swapTCforTP(address,uint256,uint256)": "eedd8a40",
      "swapTCforTPFee()": "2a20d57d",
      "swapTCforTPViaVendor(address,uint256,uint256,address)": "cc75b048",
      "swapTCforTPto(address,uint256,uint256,address)": "69d9c2f2",
      "swapTCforTPtoViaVendor(address,uint256,uint256,address,address)": "7636bb09",
      "swapTPforTC(address,uint256,uint256)": "1af4b229",
      "swapTPforTCFee()": "333431fd",
      "swapTPforTCViaVendor(address,uint256,uint256,address)": "bf1ad8b1",
      "swapTPforTCto(address,uint256,uint256,address)": "68748a42",
      "swapTPforTCtoViaVendor(address,uint256,uint256,address,address)": "4a587124",
      "swapTPforTP(address,address,uint256,uint256)": "c0d8e15e",
      "swapTPforTPFee()": "407f0e34",
      "swapTPforTPViaVendor(address,address,uint256,uint256,address)": "0d10ebe9",
      "swapTPforTPto(address,address,uint256,uint256,address)": "68a09e13",
      "swapTPforTPtoViaVendor(address,address,uint256,uint256,address,address)": "0b69640d",
      "tcHoldersInterestPayment()": "0579188f",
      "tcInterestCollectorAddress()": "8e2bdb86",
      "tcInterestPaymentBlockSpan()": "7f4a4fe0",
      "tcInterestRate()": "0db49656",
      "tcMintFee()": "fda70f8b",
      "tcRedeemFee()": "aea038dc",
      "tcToken()": "60009e0b",
      "tpCtarg(uint256)": "7d8e0314",
      "tpEma(uint256)": "e6b1627c",
      "tpLiqPrices(uint256)": "3915edcb",
      "tpMintFees(address)": "24ffaba3",
      "tpRedeemFees(address)": "ddb6d190",
      "tpTokens(uint256)": "01f1b684",
      "transferMaxGas()": "ea70b99e",
      "unlockACInPending(address,uint256)": "58f32de9",
      "unlockTCInPending(address,uint256)": "53b16d17",
      "unlockTPInPending(address,address,uint256)": "e2c5e990",
      "unpause()": "3f4ba83a",
      "updateEmas()": "d1a0faa0",
      "upgradeTo(address)": "3659cfe6",
      "upgradeToAndCall(address,bytes)": "4f1ef286"
    }
  },
  "storageLayout": {
    "storage": [
      {
        "astId": 950,
        "contract": "contracts/mocks/upgradeability/MocExpansionMocks.sol:MocCoinbaseWithExpansionMock",
        "label": "_initialized",
        "offset": 0,
        "slot": "0",
        "type": "t_uint8"
      },
      {
        "astId": 953,
        "contract": "contracts/mocks/upgradeability/MocExpansionMocks.sol:MocCoinbaseWithExpansionMock",
        "label": "_initializing",
        "offset": 1,
        "slot": "0",
        "type": "t_bool"
      },
      {
        "astId": 932,
        "contract": "contracts/mocks/upgradeability/MocExpansionMocks.sol:MocCoinbaseWithExpansionMock",
        "label": "__gap",
        "offset": 0,
        "slot": "1",
        "type": "t_array(t_uint256)50_storage"
      },
      {
        "astId": 1247,
        "contract": "contracts/mocks/upgradeability/MocExpansionMocks.sol:MocCoinbaseWithExpansionMock",
        "label": "__gap",
        "offset": 0,
        "slot": "51",
        "type": "t_array(t_uint256)50_storage"
      },
      {
        "astId": 29903,
        "contract": "contracts/mocks/upgradeability/MocExpansionMocks.sol:MocCoinbaseWithExpansionMock",
        "label": "__gap",
        "offset": 0,
        "slot": "101",
        "type": "t_array(t_uint256)50_storage"
      },
      {
        "astId": 22000,
        "contract": "contracts/mocks/upgradeability/MocExpansionMocks.sol:MocCoinbaseWithExpansionMock",
        "label": "governor",
        "offset": 0,
        "slot": "151",
        "type": "t_contract(IGovernor)22849"
      },
      {
        "astId": 22071,
        "contract": "contracts/mocks/upgradeability/MocExpansionMocks.sol:MocCoinbaseWithExpansionMock",
        "label": "__gap",
        "offset": 0,
        "slot": "152",
        "type": "t_array(t_uint256)50_storage"
      },
      {
        "astId": 22140,
        "contract": "contracts/mocks/upgradeability/MocExpansionMocks.sol:MocCoinbaseWithExpansionMock",
        "label": "stoppable",
        "offset": 0,
        "slot": "202",
        "type": "t_bool"
      },
      {
        "astId": 22142,
        "contract": "contracts/mocks/upgradeability/MocExpansionMocks.sol:MocCoinbaseWithExpansionMock",
        "label": "_paused",
        "offset": 1,
        "slot": "202",
        "type": "t_bool"
      },
      {
        "astId": 22144,
        "contract": "contracts/mocks/upgradeability/MocExpansionMocks.sol:MocCoinbaseWithExpansionMock",
        "label": "pauser",
        "offset": 2,
        "slot": "202",
        "type": "t_address"
      },
      {
        "astId": 22303,
        "contract": "contracts/mocks/upgradeability/MocExpansionMocks.sol:MocCoinbaseWithExpansionMock",
        "label": "__gap",
        "offset": 0,
        "slot": "203",
        "type": "t_array(t_uint256)50_storage"
      },
      {
        "astId": 22122,
        "contract": "contracts/mocks/upgradeability/MocExpansionMocks.sol:MocCoinbaseWithExpansionMock",
        "label": "__gap",
        "offset": 0,
        "slot": "253",
        "type": "t_array(t_uint256)50_storage"
      },
      {
        "astId": 11581,
        "contract": "contracts/mocks/upgradeability/MocExpansionMocks.sol:MocCoinbaseWithExpansionMock",
        "label": "feeToken",
        "offset": 0,
        "slot": "303",
        "type": "t_contract(IERC20)6209"
      },
      {
        "astId": 11584,
        "contract": "contracts/mocks/upgradeability/MocExpansionMocks.sol:MocCoinbaseWithExpansionMock",
        "label": "feeTokenPriceProvider",
        "offset": 0,
        "slot": "304",
        "type": "t_contract(IPriceProvider)22887"
      },
      {
        "astId": 11586,
        "contract": "contracts/mocks/upgradeability/MocExpansionMocks.sol:MocCoinbaseWithExpansionMock",
        "label": "nACcb",
        "offset": 0,
        "slot": "305",
        "type": "t_uint256"
      },
      {
        "astId": 11588,
        "contract": "contracts/mocks/upgradeability/MocExpansionMocks.sol:MocCoinbaseWithExpansionMock",
        "label": "nACioucb",
        "offset": 0,
        "slot": "306",
        "type": "t_uint256"
      },
      {
        "astId": 11591,
        "contract": "contracts/mocks/upgradeability/MocExpansionMocks.sol:MocCoinbaseWithExpansionMock",
        "label": "tcToken",
        "offset": 0,
        "slot": "307",
        "type": "t_contract(MocTC)29728"
      },
      {
        "astId": 11593,
        "contract": "contracts/mocks/upgradeability/MocExpansionMocks.sol:MocCoinbaseWithExpansionMock",
        "label": "nTCcb",
        "offset": 0,
        "slot": "308",
        "type": "t_uint256"
      },
      {
        "astId": 11597,
        "contract": "contracts/mocks/upgradeability/MocExpansionMocks.sol:MocCoinbaseWithExpansionMock",
        "label": "tpTokens",
        "offset": 0,
        "slot": "309",
        "type": "t_array(t_contract(IMocRC20)22875)dyn_storage"
      },
      {
        "astId": 11602,
        "contract": "contracts/mocks/upgradeability/MocExpansionMocks.sol:MocCoinbaseWithExpansionMock",
        "label": "peggedTokenIndex",
        "offset": 0,
        "slot": "310",
        "type": "t_mapping(t_address,t_struct(PeggedTokenIndex)11525_storage)"
      },
      {
        "astId": 11606,
        "contract": "contracts/mocks/upgradeability/MocExpansionMocks.sol:MocCoinbaseWithExpansionMock",
        "label": "pegContainer",
        "offset": 0,
        "slot": "311",
        "type": "t_array(t_struct(PegContainerItem)11520_storage)dyn_storage"
      },
      {
        "astId": 11609,
        "contract": "contracts/mocks/upgradeability/MocExpansionMocks.sol:MocCoinbaseWithExpansionMock",
        "label": "tpLiqPrices",
        "offset": 0,
        "slot": "312",
        "type": "t_array(t_uint256)dyn_storage"
      },
      {
        "astId": 11611,
        "contract": "contracts/mocks/upgradeability/MocExpansionMocks.sol:MocCoinbaseWithExpansionMock",
        "label": "successFee",
        "offset": 0,
        "slot": "313",
        "type": "t_uint256"
      },
      {
        "astId": 11613,
        "contract": "contracts/mocks/upgradeability/MocExpansionMocks.sol:MocCoinbaseWithExpansionMock",
        "label": "appreciationFactor",
        "offset": 0,
        "slot": "314",
        "type": "t_uint256"
      },
      {
        "astId": 11615,
        "contract": "contracts/mocks/upgradeability/MocExpansionMocks.sol:MocCoinbaseWithExpansionMock",
        "label": "feeRetainer",
        "offset": 0,
        "slot": "315",
        "type": "t_uint256"
      },
      {
        "astId": 11617,
        "contract": "contracts/mocks/upgradeability/MocExpansionMocks.sol:MocCoinbaseWithExpansionMock",
        "label": "tcMintFee",
        "offset": 0,
        "slot": "316",
        "type": "t_uint256"
      },
      {
        "astId": 11619,
        "contract": "contracts/mocks/upgradeability/MocExpansionMocks.sol:MocCoinbaseWithExpansionMock",
        "label": "tcRedeemFee",
        "offset": 0,
        "slot": "317",
        "type": "t_uint256"
      },
      {
        "astId": 11621,
        "contract": "contracts/mocks/upgradeability/MocExpansionMocks.sol:MocCoinbaseWithExpansionMock",
        "label": "swapTPforTPFee",
        "offset": 0,
        "slot": "318",
        "type": "t_uint256"
      },
      {
        "astId": 11623,
        "contract": "contracts/mocks/upgradeability/MocExpansionMocks.sol:MocCoinbaseWithExpansionMock",
        "label": "swapTPforTCFee",
        "offset": 0,
        "slot": "319",
        "type": "t_uint256"
      },
      {
        "astId": 11625,
        "contract": "contracts/mocks/upgradeability/MocExpansionMocks.sol:MocCoinbaseWithExpansionMock",
        "label": "swapTCforTPFee",
        "offset": 0,
        "slot": "320",
        "type": "t_uint256"
      },
      {
        "astId": 11627,
        "contract": "contracts/mocks/upgradeability/MocExpansionMocks.sol:MocCoinbaseWithExpansionMock",
        "label": "redeemTCandTPFee",
        "offset": 0,
        "slot": "321",
        "type": "t_uint256"
      },
      {
        "astId": 11629,
        "contract": "contracts/mocks/upgradeability/MocExpansionMocks.sol:MocCoinbaseWithExpansionMock",
        "label": "mintTCandTPFee",
        "offset": 0,
        "slot": "322",
        "type": "t_uint256"
      },
      {
        "astId": 11631,
        "contract": "contracts/mocks/upgradeability/MocExpansionMocks.sol:MocCoinbaseWithExpansionMock",
        "label": "feeTokenPct",
        "offset": 0,
        "slot": "323",
        "type": "t_uint256"
      },
      {
        "astId": 11635,
        "contract": "contracts/mocks/upgradeability/MocExpansionMocks.sol:MocCoinbaseWithExpansionMock",
        "label": "tpMintFees",
        "offset": 0,
        "slot": "324",
        "type": "t_mapping(t_address,t_uint256)"
      },
      {
        "astId": 11639,
        "contract": "contracts/mocks/upgradeability/MocExpansionMocks.sol:MocCoinbaseWithExpansionMock",
        "label": "tpRedeemFees",
        "offset": 0,
        "slot": "325",
        "type": "t_mapping(t_address,t_uint256)"
      },
      {
        "astId": 11641,
        "contract": "contracts/mocks/upgradeability/MocExpansionMocks.sol:MocCoinbaseWithExpansionMock",
        "label": "mocFeeFlowAddress",
        "offset": 0,
        "slot": "326",
        "type": "t_address"
      },
      {
        "astId": 11643,
        "contract": "contracts/mocks/upgradeability/MocExpansionMocks.sol:MocCoinbaseWithExpansionMock",
        "label": "mocAppreciationBeneficiaryAddress",
        "offset": 0,
        "slot": "327",
        "type": "t_address"
      },
      {
        "astId": 11646,
        "contract": "contracts/mocks/upgradeability/MocExpansionMocks.sol:MocCoinbaseWithExpansionMock",
        "label": "tpCtarg",
        "offset": 0,
        "slot": "328",
        "type": "t_array(t_uint256)dyn_storage"
      },
      {
        "astId": 11648,
        "contract": "contracts/mocks/upgradeability/MocExpansionMocks.sol:MocCoinbaseWithExpansionMock",
        "label": "protThrld",
        "offset": 0,
        "slot": "329",
        "type": "t_uint256"
      },
      {
        "astId": 11650,
        "contract": "contracts/mocks/upgradeability/MocExpansionMocks.sol:MocCoinbaseWithExpansionMock",
        "label": "liqThrld",
        "offset": 0,
        "slot": "330",
        "type": "t_uint256"
      },
      {
        "astId": 11652,
        "contract": "contracts/mocks/upgradeability/MocExpansionMocks.sol:MocCoinbaseWithExpansionMock",
        "label": "liqEnabled",
        "offset": 0,
        "slot": "331",
        "type": "t_bool"
      },
      {
        "astId": 11654,
        "contract": "contracts/mocks/upgradeability/MocExpansionMocks.sol:MocCoinbaseWithExpansionMock",
        "label": "liquidated",
        "offset": 1,
        "slot": "331",
        "type": "t_bool"
      },
      {
        "astId": 11656,
        "contract": "contracts/mocks/upgradeability/MocExpansionMocks.sol:MocCoinbaseWithExpansionMock",
        "label": "bes",
        "offset": 0,
        "slot": "332",
        "type": "t_uint256"
      },
      {
        "astId": 11658,
        "contract": "contracts/mocks/upgradeability/MocExpansionMocks.sol:MocCoinbaseWithExpansionMock",
        "label": "bns",
        "offset": 0,
        "slot": "333",
        "type": "t_uint256"
      },
      {
        "astId": 11660,
        "contract": "contracts/mocks/upgradeability/MocExpansionMocks.sol:MocCoinbaseWithExpansionMock",
        "label": "qACLockedInPending",
        "offset": 0,
        "slot": "334",
        "type": "t_uint256"
      },
      {
        "astId": 11662,
        "contract": "contracts/mocks/upgradeability/MocExpansionMocks.sol:MocCoinbaseWithExpansionMock",
        "label": "mocQueue",
        "offset": 0,
        "slot": "335",
        "type": "t_address"
      },
      {
        "astId": 11665,
        "contract": "contracts/mocks/upgradeability/MocExpansionMocks.sol:MocCoinbaseWithExpansionMock",
        "label": "tpiou",
        "offset": 0,
        "slot": "336",
        "type": "t_array(t_int256)dyn_storage"
      },
      {
        "astId": 11668,
        "contract": "contracts/mocks/upgradeability/MocExpansionMocks.sol:MocCoinbaseWithExpansionMock",
        "label": "pACtpLstop",
        "offset": 0,
        "slot": "337",
        "type": "t_array(t_uint256)dyn_storage"
      },
      {
        "astId": 11671,
        "contract": "contracts/mocks/upgradeability/MocExpansionMocks.sol:MocCoinbaseWithExpansionMock",
        "label": "maxAbsoluteOpProvider",
        "offset": 0,
        "slot": "338",
        "type": "t_contract(IDataProvider)22803"
      },
      {
        "astId": 11674,
        "contract": "contracts/mocks/upgradeability/MocExpansionMocks.sol:MocCoinbaseWithExpansionMock",
        "label": "maxOpDiffProvider",
        "offset": 0,
        "slot": "339",
        "type": "t_contract(IDataProvider)22803"
      },
      {
        "astId": 11676,
        "contract": "contracts/mocks/upgradeability/MocExpansionMocks.sol:MocCoinbaseWithExpansionMock",
        "label": "decayBlockSpan",
        "offset": 0,
        "slot": "340",
        "type": "t_uint256"
      },
      {
        "astId": 11678,
        "contract": "contracts/mocks/upgradeability/MocExpansionMocks.sol:MocCoinbaseWithExpansionMock",
        "label": "absoluteAccumulator",
        "offset": 0,
        "slot": "341",
        "type": "t_uint256"
      },
      {
        "astId": 11680,
        "contract": "contracts/mocks/upgradeability/MocExpansionMocks.sol:MocCoinbaseWithExpansionMock",
        "label": "differentialAccumulator",
        "offset": 0,
        "slot": "342",
        "type": "t_int256"
      },
      {
        "astId": 11682,
        "contract": "contracts/mocks/upgradeability/MocExpansionMocks.sol:MocCoinbaseWithExpansionMock",
        "label": "lastOperationBlockNumber",
        "offset": 0,
        "slot": "343",
        "type": "t_uint256"
      },
      {
        "astId": 11684,
        "contract": "contracts/mocks/upgradeability/MocExpansionMocks.sol:MocCoinbaseWithExpansionMock",
        "label": "tcInterestCollectorAddress",
        "offset": 0,
        "slot": "344",
        "type": "t_address"
      },
      {
        "astId": 11686,
        "contract": "contracts/mocks/upgradeability/MocExpansionMocks.sol:MocCoinbaseWithExpansionMock",
        "label": "tcInterestRate",
        "offset": 0,
        "slot": "345",
        "type": "t_uint256"
      },
      {
        "astId": 11688,
        "contract": "contracts/mocks/upgradeability/MocExpansionMocks.sol:MocCoinbaseWithExpansionMock",
        "label": "tcInterestPaymentBlockSpan",
        "offset": 0,
        "slot": "346",
        "type": "t_uint256"
      },
      {
        "astId": 11690,
        "contract": "contracts/mocks/upgradeability/MocExpansionMocks.sol:MocCoinbaseWithExpansionMock",
        "label": "nextTCInterestPayment",
        "offset": 0,
        "slot": "347",
        "type": "t_uint256"
      },
      {
        "astId": 13303,
        "contract": "contracts/mocks/upgradeability/MocExpansionMocks.sol:MocCoinbaseWithExpansionMock",
        "label": "__gap",
        "offset": 0,
        "slot": "348",
        "type": "t_array(t_uint256)50_storage"
      },
      {
        "astId": 17097,
        "contract": "contracts/mocks/upgradeability/MocExpansionMocks.sol:MocCoinbaseWithExpansionMock",
        "label": "tpEma",
        "offset": 0,
        "slot": "398",
        "type": "t_array(t_struct(EmaItem)17093_storage)dyn_storage"
      },
      {
        "astId": 17099,
        "contract": "contracts/mocks/upgradeability/MocExpansionMocks.sol:MocCoinbaseWithExpansionMock",
        "label": "nextEmaCalculation",
        "offset": 0,
        "slot": "399",
        "type": "t_uint256"
      },
      {
        "astId": 17101,
        "contract": "contracts/mocks/upgradeability/MocExpansionMocks.sol:MocCoinbaseWithExpansionMock",
        "label": "emaCalculationBlockSpan",
        "offset": 0,
        "slot": "400",
        "type": "t_uint256"
      },
      {
        "astId": 17473,
        "contract": "contracts/mocks/upgradeability/MocExpansionMocks.sol:MocCoinbaseWithExpansionMock",
        "label": "__gap",
        "offset": 0,
        "slot": "401",
        "type": "t_array(t_uint256)50_storage"
      },
      {
        "astId": 13337,
        "contract": "contracts/mocks/upgradeability/MocExpansionMocks.sol:MocCoinbaseWithExpansionMock",
        "label": "mocVendors",
        "offset": 0,
        "slot": "451",
        "type": "t_contract(MocVendors)30033"
      },
      {
        "astId": 14210,
        "contract": "contracts/mocks/upgradeability/MocExpansionMocks.sol:MocCoinbaseWithExpansionMock",
        "label": "__gap",
        "offset": 0,
        "slot": "452",
        "type": "t_array(t_uint256)50_storage"
      },
      {
        "astId": 25960,
        "contract": "contracts/mocks/upgradeability/MocExpansionMocks.sol:MocCoinbaseWithExpansionMock",
        "label": "newVariable",
        "offset": 0,
        "slot": "502",
        "type": "t_uint256"
      },
      {
        "astId": 14259,
        "contract": "contracts/mocks/upgradeability/MocExpansionMocks.sol:MocCoinbaseWithExpansionMock",
        "label": "mocCoreExpansion",
        "offset": 0,
        "slot": "503",
        "type": "t_address"
      },
      {
        "astId": 15865,
        "contract": "contracts/mocks/upgradeability/MocExpansionMocks.sol:MocCoinbaseWithExpansionMock",
        "label": "__gap",
        "offset": 0,
        "slot": "504",
        "type": "t_array(t_uint256)50_storage"
      },
      {
        "astId": 9842,
        "contract": "contracts/mocks/upgradeability/MocExpansionMocks.sol:MocCoinbaseWithExpansionMock",
        "label": "transferMaxGas",
        "offset": 0,
        "slot": "554",
        "type": "t_uint256"
      },
      {
        "astId": 9844,
        "contract": "contracts/mocks/upgradeability/MocExpansionMocks.sol:MocCoinbaseWithExpansionMock",
        "label": "coinbaseFailedTransferFallback",
        "offset": 0,
        "slot": "555",
        "type": "t_address"
      },
      {
        "astId": 10638,
        "contract": "contracts/mocks/upgradeability/MocExpansionMocks.sol:MocCoinbaseWithExpansionMock",
        "label": "__gap",
        "offset": 0,
        "slot": "556",
        "type": "t_array(t_uint256)50_storage"
      }
    ],
    "types": {
      "t_address": {
        "encoding": "inplace",
        "label": "address",
        "numberOfBytes": "20"
      },
      "t_array(t_contract(IMocRC20)22875)dyn_storage": {
        "base": "t_contract(IMocRC20)22875",
        "encoding": "dynamic_array",
        "label": "contract IMocRC20[]",
        "numberOfBytes": "32"
      },
      "t_array(t_int256)dyn_storage": {
        "base": "t_int256",
        "encoding": "dynamic_array",
        "label": "int256[]",
        "numberOfBytes": "32"
      },
      "t_array(t_struct(EmaItem)17093_storage)dyn_storage": {
        "base": "t_struct(EmaItem)17093_storage",
        "encoding": "dynamic_array",
        "label": "struct MocEma.EmaItem[]",
        "numberOfBytes": "32"
      },
      "t_array(t_struct(PegContainerItem)11520_storage)dyn_storage": {
        "base": "t_struct(PegContainerItem)11520_storage",
        "encoding": "dynamic_array",
        "label": "struct MocBaseBucket.PegContainerItem[]",
        "numberOfBytes": "32"
      },
      "t_array(t_uint256)50_storage": {
        "base": "t_uint256",
        "encoding": "inplace",
        "label": "uint256[50]",
        "numberOfBytes": "1600"
      },
      "t_array(t_uint256)dyn_storage": {
        "base": "t_uint256",
        "encoding": "dynamic_array",
        "label": "uint256[]",
        "numberOfBytes": "32"
      },
      "t_bool": {
        "encoding": "inplace",
        "label": "bool",
        "numberOfBytes": "1"
      },
      "t_contract(IDataProvider)22803": {
        "encoding": "inplace",
        "label": "contract IDataProvider",
        "numberOfBytes": "20"
      },
      "t_contract(IERC20)6209": {
        "encoding": "inplace",
        "label": "contract IERC20",
        "numberOfBytes": "20"
      },
      "t_contract(IGovernor)22849": {
        "encoding": "inplace",
        "label": "contract IGovernor",
        "numberOfBytes": "20"
      },
      "t_contract(IMocRC20)22875": {
        "encoding": "inplace",
        "label": "contract IMocRC20",
        "numberOfBytes": "20"
      },
      "t_contract(IPriceProvider)22887": {
        "encoding": "inplace",
        "label": "contract IPriceProvider",
        "numberOfBytes": "20"
      },
      "t_contract(MocTC)29728": {
        "encoding": "inplace",
        "label": "contract MocTC",
        "numberOfBytes": "20"
      },
      "t_contract(MocVendors)30033": {
        "encoding": "inplace",
        "label": "contract MocVendors",
        "numberOfBytes": "20"
      },
      "t_int256": {
        "encoding": "inplace",
        "label": "int256",
        "numberOfBytes": "32"
      },
      "t_mapping(t_address,t_struct(PeggedTokenIndex)11525_storage)": {
        "encoding": "mapping",
        "key": "t_address",
        "label": "mapping(address => struct MocBaseBucket.PeggedTokenIndex)",
        "numberOfBytes": "32",
        "value": "t_struct(PeggedTokenIndex)11525_storage"
      },
      "t_mapping(t_address,t_uint256)": {
        "encoding": "mapping",
        "key": "t_address",
        "label": "mapping(address => uint256)",
        "numberOfBytes": "32",
        "value": "t_uint256"
      },
      "t_struct(EmaItem)17093_storage": {
        "encoding": "inplace",
        "label": "struct MocEma.EmaItem",
        "members": [
          {
            "astId": 17090,
            "contract": "contracts/mocks/upgradeability/MocExpansionMocks.sol:MocCoinbaseWithExpansionMock",
            "label": "ema",
            "offset": 0,
            "slot": "0",
            "type": "t_uint256"
          },
          {
            "astId": 17092,
            "contract": "contracts/mocks/upgradeability/MocExpansionMocks.sol:MocCoinbaseWithExpansionMock",
            "label": "sf",
            "offset": 0,
            "slot": "1",
            "type": "t_uint256"
          }
        ],
        "numberOfBytes": "64"
      },
      "t_struct(PegContainerItem)11520_storage": {
        "encoding": "inplace",
        "label": "struct MocBaseBucket.PegContainerItem",
        "members": [
          {
            "astId": 11516,
            "contract": "contracts/mocks/upgradeability/MocExpansionMocks.sol:MocCoinbaseWithExpansionMock",
            "label": "nTP",
            "offset": 0,
            "slot": "0",
            "type": "t_uint256"
          },
          {
            "astId": 11519,
            "contract": "contracts/mocks/upgradeability/MocExpansionMocks.sol:MocCoinbaseWithExpansionMock",
            "label": "priceProvider",
            "offset": 0,
            "slot": "1",
            "type": "t_contract(IPriceProvider)22887"
          }
        ],
        "numberOfBytes": "64"
      },
      "t_struct(PeggedTokenIndex)11525_storage": {
        "encoding": "inplace",
        "label": "struct MocBaseBucket.PeggedTokenIndex",
        "members": [
          {
            "astId": 11522,
            "contract": "contracts/mocks/upgradeability/MocExpansionMocks.sol:MocCoinbaseWithExpansionMock",
            "label": "index",
            "offset": 0,
            "slot": "0",
            "type": "t_uint256"
          },
          {
            "astId": 11524,
            "contract": "contracts/mocks/upgradeability/MocExpansionMocks.sol:MocCoinbaseWithExpansionMock",
            "label": "exists",
            "offset": 0,
            "slot": "1",
            "type": "t_bool"
          }
        ],
        "numberOfBytes": "64"
      },
      "t_uint256": {
        "encoding": "inplace",
        "label": "uint256",
        "numberOfBytes": "32"
      },
      "t_uint8": {
        "encoding": "inplace",
        "label": "uint8",
        "numberOfBytes": "1"
      }
    }
  },
  "userdoc": {
    "kind": "user",
    "methods": {
      "addPeggedToken((address,address,uint256,uint256,uint256,uint256,uint256))": {
        "notice": "add a Pegged Token to the protocol"
      },
      "calcCtargemaCA()": {
        "notice": "calculates target coverage adjusted by all Pegged Token's to Collateral Asset rate moving average"
      },
      "changeGovernor(address)": {
        "notice": "Change the contract's governor. Should be called through the old governance system"
      },
      "editPeggedToken((address,address,uint256,uint256,uint256,uint256,uint256))": {
        "notice": "modifies a Pegged Token of the protocol"
      },
      "evalLiquidation()": {
        "notice": "evaluates if liquidation threshold has been reached and liq is Enabled. If so forces contracts liquidation, blocking all mint & redeem operations. May emit a {ContractLiquidated} event."
      },
      "execMintTC((uint256,uint256,address,address,address))": {
        "notice": "executes Operation based on params, only mocQueue allowed see MocCore _mintTCto for details"
      },
      "execMintTCandTP((address,uint256,uint256,address,address,address))": {
        "notice": "executes Operation based on params, only mocQueue allowed see MocCore _mintTCandTPto for details"
      },
      "execMintTP((address,uint256,uint256,address,address,address))": {
        "notice": "executes Operation based on params, only mocQueue allowed see MocCore _mintTPto for details"
      },
      "execRedeemTC((uint256,uint256,address,address,address))": {
        "notice": "executes Operation based on params, only mocQueue allowed see MocCore _redeemTCto for details"
      },
      "execRedeemTCandTP((address,uint256,uint256,uint256,address,address,address))": {
        "notice": "executes Operation based on params, only mocQueue allowed see MocCore _redeemTCandTPto for details"
      },
      "execRedeemTP((address,uint256,uint256,address,address,address))": {
        "notice": "executes Operation based on params, only mocQueue allowed see MocCore _redeemTPto for details"
      },
      "execSettlement()": {
        "notice": "this function is executed during settlement.  stores amount of locked AC by Pegged Tokens at this moment and distribute success fee"
      },
      "execSwapTCforTP((address,uint256,uint256,uint256,address,address,address))": {
        "notice": "executes Operation based on params, only mocQueue allowed see MocCore _swapTCforTPto for details"
      },
      "execSwapTPforTC((address,uint256,uint256,uint256,address,address,address))": {
        "notice": "executes Operation based on params, only mocQueue allowed see MocCore _swapTPforTCto for details"
      },
      "execSwapTPforTP((address,address,uint256,uint256,uint256,address,address,address))": {
        "notice": "executes Operation based on params, only mocQueue allowed see MocCore _swapTPforTPto for details"
      },
      "getBts()": {
        "notice": "get the number of blocks remaining for settlement"
      },
      "getCglb()": {
        "notice": "get bucket global coverage"
      },
      "getLckAC()": {
        "notice": "get amount of Collateral Asset locked by Pegged Token"
      },
      "getLeverageTC()": {
        "notice": "get Collateral Token leverage"
      },
      "getPACtp(address)": {
        "notice": "get how many Pegged Token equal 1 Collateral Asset"
      },
      "getPTCac()": {
        "notice": "get Collateral Token price"
      },
      "getTCAvailableToRedeem()": {
        "notice": "get amount of Collateral Token available to redeem"
      },
      "getTPAvailableToMint(address)": {
        "notice": "get amount of Pegged Token available to mint"
      },
      "getTotalACavailable()": {
        "notice": "get total Collateral Asset available"
      },
      "getTpAmount()": {
        "notice": "return current amount of Tps"
      },
      "governor()": {
        "notice": "The address of the contract which governs this one"
      },
      "initialize((((address,address,address,address,address,address,uint256,uint256,uint256,uint256,uint256,uint256,uint256,uint256,uint256,uint256,uint256,uint256,uint256,uint256,address,uint256,uint256,address,address,uint256),address,address,address,uint256,address),uint256,address))": {
        "notice": "contract initializer"
      },
      "isLiquidationReached()": {
        "notice": "If liquidation is enabled, verifies if forced liquidation has been reached, checking if globalCoverage <= liquidation"
      },
      "liqRedeemTP(address)": {
        "notice": "Allow redeem on liquidation state, user Peg balance gets burned and he receives the equivalent AC given the liquidation frozen price."
      },
      "liqRedeemTPto(address,address)": {
        "notice": "Allow redeem on liquidation state, user Peg balance gets burned and he receives the equivalent AC given the liquidation frozen price."
      },
      "makeStoppable()": {
        "notice": "Switches ON the stoppability of the contract; if the contract was paused before making it unstoppable it will be paused again after calling this function"
      },
      "makeUnstoppable()": {
        "notice": "Switches OFF the stoppability of the contract; if the contract was paused it will no longer be so"
      },
      "maxQACToMintTP()": {
        "notice": "gets the max amount of AC allowed to operate to mint TP with, restricted by accumulators // TODO: move this function to a MocView contract"
      },
      "maxQACToRedeemTP()": {
        "notice": "gets the max amount of AC allowed to operate to redeem TP with, restricted by accumulators // TODO: move this function to a MocView contract"
      },
      "mintTC(uint256)": {
        "notice": "caller sends coinbase as Collateral Asset and receives Collateral Token"
      },
      "mintTCViaVendor(uint256,address)": {
        "notice": "caller sends coinbase as Collateral Asset and receives Collateral Token  `vendor_` receives a markup in Fee Token if possible or in qAC if not"
      },
      "mintTCandTP(address,uint256)": {
        "notice": "caller sends coinbase as Collateral Asset and receives Collateral Token and Pegged Token  This operation is done without checking coverage  Collateral Token and Pegged Token are minted in equivalent proportions so that its price  and global coverage are not modified.  Reverts if qAC sent are insufficient."
      },
      "mintTCandTPViaVendor(address,uint256,address)": {
        "notice": "caller sends coinbase as Collateral Asset and receives Collateral Token and Pegged Token  `vendor_` receives a markup in Fee Token if possible or in qAC if not  This operation is done without checking coverage  Collateral Token and Pegged Token are minted in equivalent proportions so that its price  and global coverage are not modified.  Reverts if qAC sent are insufficient."
      },
      "mintTCandTPto(address,uint256,address)": {
        "notice": "caller sends coinbase as Collateral Asset and recipient receives Collateral Token and Pegged Token  This operation is done without checking coverage  Collateral Token and Pegged Token are minted in equivalent proportions so that its price  and global coverage are not modified.  Reverts if qAC sent are insufficient."
      },
      "mintTCandTPtoViaVendor(address,uint256,address,address)": {
        "notice": "caller sends coinbase as Collateral Asset and recipient receives Collateral Token and Pegged Token  `vendor_` receives a markup in Fee Token if possible or in qAC if not  This operation is done without checking coverage  Collateral Token and Pegged Token are minted in equivalent proportions so that its price  and global coverage are not modified.  Reverts if qAC sent are insufficient."
      },
      "mintTCto(uint256,address)": {
        "notice": "caller sends coinbase as Collateral Asset and recipient receives Collateral Token"
      },
      "mintTCtoViaVendor(uint256,address,address)": {
        "notice": "caller sends coinbase as Collateral Asset and recipient receives Collateral Token  `vendor_` receives a markup in Fee Token if possible or in qAC if not"
      },
      "mintTP(address,uint256)": {
        "notice": "caller sends coinbase as Collateral Asset and receives Pegged Token"
      },
      "mintTPViaVendor(address,uint256,address)": {
        "notice": "caller sends coinbase as Collateral Asset and receives Pegged Token  `vendor_` receives a markup in Fee Token if possible or in qAC if not"
      },
      "mintTPto(address,uint256,address)": {
        "notice": "caller sends coinbase as Collateral Asset and recipient receives Pegged Token"
      },
      "mintTPtoViaVendor(address,uint256,address,address)": {
        "notice": "caller sends coinbase as Collateral Asset and recipient receives Pegged Token  `vendor_` receives a markup in Fee Token if possible or in qAC if not"
      },
      "pause()": {
        "notice": "Called by the owner to pause, triggers stopped state"
      },
      "paused()": {
        "notice": "Returns true if paused"
      },
      "redeemTC(uint256,uint256)": {
        "notice": "caller sends Collateral Token and receives Collateral Asset"
      },
      "redeemTCViaVendor(uint256,uint256,address)": {
        "notice": "caller sends Collateral Token and receives Collateral Asset  `vendor_` receives a markup in Fee Token if possible or in qAC if not"
      },
      "redeemTCandTP(address,uint256,uint256,uint256)": {
        "notice": "Caller sends Collateral Token and Pegged Token and receives Collateral Asset.  This operation is done without checking coverage  Collateral Token and Pegged Token are redeemed in equivalent proportions so that their price  and global coverage are not modified.  Reverts if qTP sent are insufficient."
      },
      "redeemTCandTPViaVendor(address,uint256,uint256,uint256,address)": {
        "notice": "Caller sends Collateral Token and Pegged Token and receives Collateral Asset.  `vendor_` receives a markup in Fee Token if possible or in Collateral Asset if not  This operation is done without checking coverage  Collateral Token and Pegged Token are redeemed in equivalent proportions so that their price  and global coverage are not modified.  Reverts if qTP sent are insufficient."
      },
      "redeemTCandTPto(address,uint256,uint256,uint256,address)": {
        "notice": "Caller sends Collateral Token and Pegged Token and recipient receives Collateral Asset.  This operation is done without checking coverage  Collateral Token and Pegged Token are redeemed in equivalent proportions so that their price  and global coverage are not modified.  Reverts if qTP sent are insufficient."
      },
      "redeemTCandTPtoViaVendor(address,uint256,uint256,uint256,address,address)": {
        "notice": "Caller sends Collateral Token and Pegged Token and recipient receives Collateral Asset.  `vendor_` receives a markup in Fee Token if possible or in Collateral Asset if not  This operation is done without checking coverage  Collateral Token and Pegged Token are redeemed in equivalent proportions so that their price  and global coverage are not modified.  Reverts if qTP sent are insufficient."
      },
      "redeemTCto(uint256,uint256,address)": {
        "notice": "caller sends Collateral Token and recipient receives Collateral Asset"
      },
      "redeemTCtoViaVendor(uint256,uint256,address,address)": {
        "notice": "caller sends Collateral Token and recipient receives Collateral Asset  `vendor_` receives a markup in Fee Token if possible or in qAC if not"
      },
      "redeemTP(address,uint256,uint256)": {
        "notice": "caller sends Pegged Token and receives Collateral Asset"
      },
      "redeemTPViaVendor(address,uint256,uint256,address)": {
        "notice": "caller sends Pegged Token and receives Collateral Asset  `vendor_` receives a markup in Fee Token if possible or in qAC if not"
      },
      "redeemTPto(address,uint256,uint256,address)": {
        "notice": "caller sends Pegged Token and recipient receives Collateral Asset"
      },
      "redeemTPtoViaVendor(address,uint256,uint256,address,address)": {
        "notice": "caller sends Pegged Token and recipient receives Collateral Asset  `vendor_` receives a markup in Fee Token if possible or in qAC if not"
      },
      "setPauser(address)": {
        "notice": "Changes the address which is enable to pause this contract"
      },
      "setTransferMAxGas(uint256)": {
        "notice": "sets max amount of gas forwarded on AC transfer"
      },
      "shouldCalculateEma()": {
        "notice": "true if the necessary span has pass since last ema update"
      },
      "swapTCforTP(address,uint256,uint256)": {
        "notice": "caller sends Collateral Token and receives Pegged Token"
      },
      "swapTCforTPViaVendor(address,uint256,uint256,address)": {
        "notice": "caller sends Collateral Token and receives Pegged Token  `vendor_` receives a markup in Fee Token if possible or in qAC if not"
      },
      "swapTCforTPto(address,uint256,uint256,address)": {
        "notice": "caller sends Collateral Token and recipient receives Pegged Token"
      },
      "swapTCforTPtoViaVendor(address,uint256,uint256,address,address)": {
        "notice": "caller sends Collateral Token and recipient receives Pegged Token  `vendor_` receives a markup in Fee Token if possible or in qAC if not"
      },
      "swapTPforTC(address,uint256,uint256)": {
        "notice": "caller sends a Pegged Token and receives Collateral Token"
      },
      "swapTPforTCViaVendor(address,uint256,uint256,address)": {
        "notice": "caller sends a Pegged Token and receives Collateral Token  `vendor_` receives a markup in Fee Token if possible or in qAC if not"
      },
      "swapTPforTCto(address,uint256,uint256,address)": {
        "notice": "caller sends a Pegged Token and recipient receives Collateral Token"
      },
      "swapTPforTCtoViaVendor(address,uint256,uint256,address,address)": {
        "notice": "caller sends a Pegged Token and recipient receives Collateral Token  `vendor_` receives a markup in Fee Token if possible or in qAC if not"
      },
      "swapTPforTP(address,address,uint256,uint256)": {
        "notice": "caller sends a Pegged Token and receives another one"
      },
      "swapTPforTPViaVendor(address,address,uint256,uint256,address)": {
        "notice": "caller sends a Pegged Token and receives another one  `vendor_` receives a markup in Fee Token if possible or in qAC if not"
      },
      "swapTPforTPto(address,address,uint256,uint256,address)": {
        "notice": "caller sends a Pegged Token and recipient receives another one"
      },
      "swapTPforTPtoViaVendor(address,address,uint256,uint256,address,address)": {
        "notice": "caller sends a Pegged Token and recipient receives another one  `vendor_` receives a markup in Fee Token if possible or in qAC if not"
      },
      "tcHoldersInterestPayment()": {
        "notice": "executes the interest payment of the TC holders  can only be executed after a block span"
      },
      "unlockACInPending(address,uint256)": {
        "notice": "while executing a pending Operation, if it fails we need to unlock user's funds"
      },
      "unlockTCInPending(address,uint256)": {
        "notice": "while executing a pending Operation, if it fails we need to unlock user's tokens"
      },
      "unlockTPInPending(address,address,uint256)": {
        "notice": "while executing a pending Operation, if it fails we need to unlock user's tokens"
      },
      "unpause()": {
        "notice": "Called by the owner to unpause, returns to normal state"
      },
      "updateEmas()": {
        "notice": "If time, calculates the EMA for all the Pegged Token prices."
      }
    },
    "version": 1
  }
}