{
  "contractName": "MocCARC20WithExpansionMock",
  "sourceName": "contracts/mocks/upgradeability/MocExpansionMocks.sol",
  "abi": [
    {
      "inputs": [
        {
          "internalType": "uint256",
          "name": "qACsent_",
          "type": "uint256"
        },
        {
          "internalType": "uint256",
          "name": "qACNeeded_",
          "type": "uint256"
        }
      ],
      "name": "InsufficientQacSent",
      "type": "error"
    },
    {
      "inputs": [
        {
          "internalType": "uint256",
          "name": "qTPsent_",
          "type": "uint256"
        },
        {
          "internalType": "uint256",
          "name": "qTPNeeded_",
          "type": "uint256"
        }
      ],
      "name": "InsufficientQtpSent",
      "type": "error"
    },
    {
      "inputs": [
        {
          "internalType": "uint256",
          "name": "qTC_",
          "type": "uint256"
        },
        {
          "internalType": "uint256",
          "name": "tcAvailableToRedeem_",
          "type": "uint256"
        }
      ],
      "name": "InsufficientTCtoRedeem",
      "type": "error"
    },
    {
      "inputs": [
        {
          "internalType": "uint256",
          "name": "qTP_",
          "type": "uint256"
        },
        {
          "internalType": "uint256",
          "name": "tpAvailableToMint_",
          "type": "uint256"
        }
      ],
      "name": "InsufficientTPtoMint",
      "type": "error"
    },
    {
      "inputs": [
        {
          "internalType": "uint256",
          "name": "qTP_",
          "type": "uint256"
        },
        {
          "internalType": "uint256",
          "name": "tpAvailableToRedeem_",
          "type": "uint256"
        }
      ],
      "name": "InsufficientTPtoRedeem",
      "type": "error"
    },
    {
      "inputs": [],
      "name": "InvalidAddress",
      "type": "error"
    },
    {
      "inputs": [],
      "name": "InvalidFluxCapacitorOperation",
      "type": "error"
    },
    {
      "inputs": [],
      "name": "InvalidValue",
      "type": "error"
    },
    {
      "inputs": [],
      "name": "Liquidated",
      "type": "error"
    },
    {
      "inputs": [
        {
          "internalType": "uint256",
          "name": "cglb_",
          "type": "uint256"
        },
        {
          "internalType": "uint256",
          "name": "covThrld_",
          "type": "uint256"
        }
      ],
      "name": "LowCoverage",
      "type": "error"
    },
    {
      "inputs": [
        {
          "internalType": "uint256",
          "name": "max_",
          "type": "uint256"
        },
        {
          "internalType": "uint256",
          "name": "new_",
          "type": "uint256"
        }
      ],
      "name": "MaxFluxCapacitorOperationReached",
      "type": "error"
    },
    {
      "inputs": [],
      "name": "MissingBlocksToSettlement",
      "type": "error"
    },
    {
      "inputs": [],
      "name": "MissingBlocksToTCInterestPayment",
      "type": "error"
    },
    {
      "inputs": [
        {
          "internalType": "address",
          "name": "dataProviderAddress_",
          "type": "address"
        }
      ],
      "name": "MissingProviderData",
      "type": "error"
    },
    {
      "inputs": [
        {
          "internalType": "address",
          "name": "priceProviderAddress_",
          "type": "address"
        }
      ],
      "name": "MissingProviderPrice",
      "type": "error"
    },
    {
      "inputs": [],
      "name": "NotAuthorizedChanger",
      "type": "error"
    },
    {
      "inputs": [],
      "name": "NotWhenPaused",
      "type": "error"
    },
    {
      "inputs": [],
      "name": "OnlyPauser",
      "type": "error"
    },
    {
      "inputs": [],
      "name": "OnlyQueue",
      "type": "error"
    },
    {
      "inputs": [],
      "name": "OnlyWhenLiquidated",
      "type": "error"
    },
    {
      "inputs": [],
      "name": "OnlyWhilePaused",
      "type": "error"
    },
    {
      "inputs": [],
      "name": "PeggedTokenAlreadyAdded",
      "type": "error"
    },
    {
      "inputs": [
        {
          "internalType": "uint256",
          "name": "qACmin_",
          "type": "uint256"
        },
        {
          "internalType": "uint256",
          "name": "qACtoRedeem_",
          "type": "uint256"
        }
      ],
      "name": "QacBelowMinimumRequired",
      "type": "error"
    },
    {
      "inputs": [],
      "name": "QacNeededMustBeGreaterThanZero",
      "type": "error"
    },
    {
      "inputs": [
        {
          "internalType": "uint256",
          "name": "qTCmin_",
          "type": "uint256"
        },
        {
          "internalType": "uint256",
          "name": "qTC_",
          "type": "uint256"
        }
      ],
      "name": "QtcBelowMinimumRequired",
      "type": "error"
    },
    {
      "inputs": [
        {
          "internalType": "uint256",
          "name": "qTPmin_",
          "type": "uint256"
        },
        {
          "internalType": "uint256",
          "name": "qTP_",
          "type": "uint256"
        }
      ],
      "name": "QtpBelowMinimumRequired",
      "type": "error"
    },
    {
      "inputs": [],
      "name": "TransferFailed",
      "type": "error"
    },
    {
      "inputs": [],
      "name": "Unstoppable",
      "type": "error"
    },
    {
      "anonymous": false,
      "inputs": [
        {
          "indexed": false,
          "internalType": "address",
          "name": "previousAdmin",
          "type": "address"
        },
        {
          "indexed": false,
          "internalType": "address",
          "name": "newAdmin",
          "type": "address"
        }
      ],
      "name": "AdminChanged",
      "type": "event"
    },
    {
      "anonymous": false,
      "inputs": [
        {
          "indexed": true,
          "internalType": "address",
          "name": "beacon",
          "type": "address"
        }
      ],
      "name": "BeaconUpgraded",
      "type": "event"
    },
    {
      "anonymous": false,
      "inputs": [],
      "name": "ContractLiquidated",
      "type": "event"
    },
    {
      "anonymous": false,
      "inputs": [
        {
          "indexed": false,
          "internalType": "uint8",
          "name": "version",
          "type": "uint8"
        }
      ],
      "name": "Initialized",
      "type": "event"
    },
    {
      "anonymous": false,
      "inputs": [
        {
          "indexed": true,
          "internalType": "address",
          "name": "tp_",
          "type": "address"
        },
        {
          "indexed": true,
          "internalType": "address",
          "name": "sender_",
          "type": "address"
        },
        {
          "indexed": true,
          "internalType": "address",
          "name": "recipient_",
          "type": "address"
        },
        {
          "indexed": false,
          "internalType": "uint256",
          "name": "qTP_",
          "type": "uint256"
        },
        {
          "indexed": false,
          "internalType": "uint256",
          "name": "qAC_",
          "type": "uint256"
        }
      ],
      "name": "LiqTPRedeemed",
      "type": "event"
    },
    {
      "anonymous": false,
      "inputs": [
        {
          "indexed": false,
          "internalType": "address",
          "name": "account",
          "type": "address"
        }
      ],
      "name": "Paused",
      "type": "event"
    },
    {
      "anonymous": false,
      "inputs": [
        {
          "indexed": false,
          "internalType": "uint256",
          "name": "i_",
          "type": "uint256"
        },
        {
          "components": [
            {
              "internalType": "address",
              "name": "tpTokenAddress",
              "type": "address"
            },
            {
              "internalType": "address",
              "name": "priceProviderAddress",
              "type": "address"
            },
            {
              "internalType": "uint256",
              "name": "tpCtarg",
              "type": "uint256"
            },
            {
              "internalType": "uint256",
              "name": "tpMintFee",
              "type": "uint256"
            },
            {
              "internalType": "uint256",
              "name": "tpRedeemFee",
              "type": "uint256"
            },
            {
              "internalType": "uint256",
              "name": "tpEma",
              "type": "uint256"
            },
            {
              "internalType": "uint256",
              "name": "tpEmaSf",
              "type": "uint256"
            }
          ],
          "indexed": false,
          "internalType": "struct PeggedTokenParams",
          "name": "peggedTokenParams_",
          "type": "tuple"
        }
      ],
      "name": "PeggedTokenChange",
      "type": "event"
    },
    {
      "anonymous": false,
      "inputs": [],
      "name": "SettlementExecuted",
      "type": "event"
    },
    {
      "anonymous": false,
      "inputs": [
        {
          "indexed": false,
          "internalType": "uint256",
          "name": "mocGain_",
          "type": "uint256"
        },
        {
          "indexed": false,
          "internalType": "uint256[]",
          "name": "tpGain_",
          "type": "uint256[]"
        }
      ],
      "name": "SuccessFeeDistributed",
      "type": "event"
    },
    {
      "anonymous": false,
      "inputs": [
        {
          "indexed": false,
          "internalType": "uint256",
          "name": "interestAmount_",
          "type": "uint256"
        }
      ],
      "name": "TCInterestPayment",
      "type": "event"
    },
    {
      "anonymous": false,
      "inputs": [
        {
          "indexed": true,
          "internalType": "uint256",
          "name": "i_",
          "type": "uint256"
        },
        {
          "indexed": false,
          "internalType": "uint256",
          "name": "oldTPema_",
          "type": "uint256"
        },
        {
          "indexed": false,
          "internalType": "uint256",
          "name": "newTPema_",
          "type": "uint256"
        }
      ],
      "name": "TPemaUpdated",
      "type": "event"
    },
    {
      "anonymous": false,
      "inputs": [
        {
          "indexed": false,
          "internalType": "address",
          "name": "account",
          "type": "address"
        }
      ],
      "name": "Unpaused",
      "type": "event"
    },
    {
      "anonymous": false,
      "inputs": [
        {
          "indexed": true,
          "internalType": "address",
          "name": "implementation",
          "type": "address"
        }
      ],
      "name": "Upgraded",
      "type": "event"
    },
    {
      "inputs": [],
      "name": "absoluteAccumulator",
      "outputs": [
        {
          "internalType": "uint256",
          "name": "",
          "type": "uint256"
        }
      ],
      "stateMutability": "view",
      "type": "function"
    },
    {
      "inputs": [],
      "name": "acToken",
      "outputs": [
        {
          "internalType": "contract IERC20",
          "name": "",
          "type": "address"
        }
      ],
      "stateMutability": "view",
      "type": "function"
    },
    {
      "inputs": [
        {
          "components": [
            {
              "internalType": "address",
              "name": "tpTokenAddress",
              "type": "address"
            },
            {
              "internalType": "address",
              "name": "priceProviderAddress",
              "type": "address"
            },
            {
              "internalType": "uint256",
              "name": "tpCtarg",
              "type": "uint256"
            },
            {
              "internalType": "uint256",
              "name": "tpMintFee",
              "type": "uint256"
            },
            {
              "internalType": "uint256",
              "name": "tpRedeemFee",
              "type": "uint256"
            },
            {
              "internalType": "uint256",
              "name": "tpEma",
              "type": "uint256"
            },
            {
              "internalType": "uint256",
              "name": "tpEmaSf",
              "type": "uint256"
            }
          ],
          "internalType": "struct PeggedTokenParams",
          "name": "peggedTokenParams_",
          "type": "tuple"
        }
      ],
      "name": "addPeggedToken",
      "outputs": [],
      "stateMutability": "nonpayable",
      "type": "function"
    },
    {
      "inputs": [],
      "name": "appreciationFactor",
      "outputs": [
        {
          "internalType": "uint256",
          "name": "",
          "type": "uint256"
        }
      ],
      "stateMutability": "view",
      "type": "function"
    },
    {
      "inputs": [],
      "name": "bes",
      "outputs": [
        {
          "internalType": "uint256",
          "name": "",
          "type": "uint256"
        }
      ],
      "stateMutability": "view",
      "type": "function"
    },
    {
      "inputs": [],
      "name": "bns",
      "outputs": [
        {
          "internalType": "uint256",
          "name": "",
          "type": "uint256"
        }
      ],
      "stateMutability": "view",
      "type": "function"
    },
    {
      "inputs": [],
      "name": "calcCtargemaCA",
      "outputs": [
        {
          "internalType": "uint256",
          "name": "ctargemaCA",
          "type": "uint256"
        }
      ],
      "stateMutability": "view",
      "type": "function"
    },
    {
      "inputs": [
        {
          "internalType": "contract IGovernor",
          "name": "newGovernor_",
          "type": "address"
        }
      ],
      "name": "changeGovernor",
      "outputs": [],
      "stateMutability": "nonpayable",
      "type": "function"
    },
    {
      "inputs": [],
      "name": "decayBlockSpan",
      "outputs": [
        {
          "internalType": "uint256",
          "name": "",
          "type": "uint256"
        }
      ],
      "stateMutability": "view",
      "type": "function"
    },
    {
      "inputs": [],
      "name": "differentialAccumulator",
      "outputs": [
        {
          "internalType": "int256",
          "name": "",
          "type": "int256"
        }
      ],
      "stateMutability": "view",
      "type": "function"
    },
    {
      "inputs": [
        {
          "components": [
            {
              "internalType": "address",
              "name": "tpTokenAddress",
              "type": "address"
            },
            {
              "internalType": "address",
              "name": "priceProviderAddress",
              "type": "address"
            },
            {
              "internalType": "uint256",
              "name": "tpCtarg",
              "type": "uint256"
            },
            {
              "internalType": "uint256",
              "name": "tpMintFee",
              "type": "uint256"
            },
            {
              "internalType": "uint256",
              "name": "tpRedeemFee",
              "type": "uint256"
            },
            {
              "internalType": "uint256",
              "name": "tpEma",
              "type": "uint256"
            },
            {
              "internalType": "uint256",
              "name": "tpEmaSf",
              "type": "uint256"
            }
          ],
          "internalType": "struct PeggedTokenParams",
          "name": "peggedTokenParams_",
          "type": "tuple"
        }
      ],
      "name": "editPeggedToken",
      "outputs": [],
      "stateMutability": "nonpayable",
      "type": "function"
    },
    {
      "inputs": [],
      "name": "emaCalculationBlockSpan",
      "outputs": [
        {
          "internalType": "uint256",
          "name": "",
          "type": "uint256"
        }
      ],
      "stateMutability": "view",
      "type": "function"
    },
    {
      "inputs": [],
      "name": "evalLiquidation",
      "outputs": [],
      "stateMutability": "nonpayable",
      "type": "function"
    },
    {
      "inputs": [
        {
          "components": [
            {
              "internalType": "uint256",
              "name": "qTC",
              "type": "uint256"
            },
            {
              "internalType": "uint256",
              "name": "qACmax",
              "type": "uint256"
            },
            {
              "internalType": "address",
              "name": "sender",
              "type": "address"
            },
            {
              "internalType": "address",
              "name": "recipient",
              "type": "address"
            },
            {
              "internalType": "address",
              "name": "vendor",
              "type": "address"
            }
          ],
          "internalType": "struct MocCore.MintTCParams",
          "name": "params_",
          "type": "tuple"
        }
      ],
      "name": "execMintTC",
      "outputs": [
        {
          "internalType": "uint256",
          "name": "qACtotalNeeded",
          "type": "uint256"
        },
        {
          "internalType": "uint256",
          "name": "qFeeTokenTotalNeeded",
          "type": "uint256"
        },
        {
          "components": [
            {
              "internalType": "uint256",
              "name": "qACFee",
              "type": "uint256"
            },
            {
              "internalType": "uint256",
              "name": "qFeeToken",
              "type": "uint256"
            },
            {
              "internalType": "uint256",
              "name": "qACVendorMarkup",
              "type": "uint256"
            },
            {
              "internalType": "uint256",
              "name": "qFeeTokenVendorMarkup",
              "type": "uint256"
            }
          ],
          "internalType": "struct MocCommons.FeeCalcs",
          "name": "feeCalcs",
          "type": "tuple"
        }
      ],
      "stateMutability": "nonpayable",
      "type": "function"
    },
    {
      "inputs": [
        {
          "components": [
            {
              "internalType": "address",
              "name": "tp",
              "type": "address"
            },
            {
              "internalType": "uint256",
              "name": "qTP",
              "type": "uint256"
            },
            {
              "internalType": "uint256",
              "name": "qACmax",
              "type": "uint256"
            },
            {
              "internalType": "address",
              "name": "sender",
              "type": "address"
            },
            {
              "internalType": "address",
              "name": "recipient",
              "type": "address"
            },
            {
              "internalType": "address",
              "name": "vendor",
              "type": "address"
            }
          ],
          "internalType": "struct MocCommons.MintTCandTPParams",
          "name": "params_",
          "type": "tuple"
        }
      ],
      "name": "execMintTCandTP",
      "outputs": [
        {
          "internalType": "uint256",
          "name": "qACtotalNeeded",
          "type": "uint256"
        },
        {
          "internalType": "uint256",
          "name": "qTCMinted",
          "type": "uint256"
        },
        {
          "internalType": "uint256",
          "name": "qFeeTokenTotalNeeded",
          "type": "uint256"
        },
        {
          "components": [
            {
              "internalType": "uint256",
              "name": "qACFee",
              "type": "uint256"
            },
            {
              "internalType": "uint256",
              "name": "qFeeToken",
              "type": "uint256"
            },
            {
              "internalType": "uint256",
              "name": "qACVendorMarkup",
              "type": "uint256"
            },
            {
              "internalType": "uint256",
              "name": "qFeeTokenVendorMarkup",
              "type": "uint256"
            }
          ],
          "internalType": "struct MocCommons.FeeCalcs",
          "name": "feeCalcs",
          "type": "tuple"
        }
      ],
      "stateMutability": "nonpayable",
      "type": "function"
    },
    {
      "inputs": [
        {
          "components": [
            {
              "internalType": "address",
              "name": "tp",
              "type": "address"
            },
            {
              "internalType": "uint256",
              "name": "qTP",
              "type": "uint256"
            },
            {
              "internalType": "uint256",
              "name": "qACmax",
              "type": "uint256"
            },
            {
              "internalType": "address",
              "name": "sender",
              "type": "address"
            },
            {
              "internalType": "address",
              "name": "recipient",
              "type": "address"
            },
            {
              "internalType": "address",
              "name": "vendor",
              "type": "address"
            }
          ],
          "internalType": "struct MocCore.MintTPParams",
          "name": "params_",
          "type": "tuple"
        }
      ],
      "name": "execMintTP",
      "outputs": [
        {
          "internalType": "uint256",
          "name": "qACtotalNeeded",
          "type": "uint256"
        },
        {
          "internalType": "uint256",
          "name": "qFeeTokenTotalNeeded",
          "type": "uint256"
        },
        {
          "components": [
            {
              "internalType": "uint256",
              "name": "qACFee",
              "type": "uint256"
            },
            {
              "internalType": "uint256",
              "name": "qFeeToken",
              "type": "uint256"
            },
            {
              "internalType": "uint256",
              "name": "qACVendorMarkup",
              "type": "uint256"
            },
            {
              "internalType": "uint256",
              "name": "qFeeTokenVendorMarkup",
              "type": "uint256"
            }
          ],
          "internalType": "struct MocCommons.FeeCalcs",
          "name": "feeCalcs",
          "type": "tuple"
        }
      ],
      "stateMutability": "nonpayable",
      "type": "function"
    },
    {
      "inputs": [
        {
          "components": [
            {
              "internalType": "uint256",
              "name": "qTC",
              "type": "uint256"
            },
            {
              "internalType": "uint256",
              "name": "qACmin",
              "type": "uint256"
            },
            {
              "internalType": "address",
              "name": "sender",
              "type": "address"
            },
            {
              "internalType": "address",
              "name": "recipient",
              "type": "address"
            },
            {
              "internalType": "address",
              "name": "vendor",
              "type": "address"
            }
          ],
          "internalType": "struct MocCore.RedeemTCParams",
          "name": "params_",
          "type": "tuple"
        }
      ],
      "name": "execRedeemTC",
      "outputs": [
        {
          "internalType": "uint256",
          "name": "qACtoRedeem",
          "type": "uint256"
        },
        {
          "internalType": "uint256",
          "name": "qFeeTokenTotalNeeded",
          "type": "uint256"
        },
        {
          "components": [
            {
              "internalType": "uint256",
              "name": "qACFee",
              "type": "uint256"
            },
            {
              "internalType": "uint256",
              "name": "qFeeToken",
              "type": "uint256"
            },
            {
              "internalType": "uint256",
              "name": "qACVendorMarkup",
              "type": "uint256"
            },
            {
              "internalType": "uint256",
              "name": "qFeeTokenVendorMarkup",
              "type": "uint256"
            }
          ],
          "internalType": "struct MocCommons.FeeCalcs",
          "name": "feeCalcs",
          "type": "tuple"
        }
      ],
      "stateMutability": "nonpayable",
      "type": "function"
    },
    {
      "inputs": [
        {
          "components": [
            {
              "internalType": "address",
              "name": "tp",
              "type": "address"
            },
            {
              "internalType": "uint256",
              "name": "qTC",
              "type": "uint256"
            },
            {
              "internalType": "uint256",
              "name": "qTP",
              "type": "uint256"
            },
            {
              "internalType": "uint256",
              "name": "qACmin",
              "type": "uint256"
            },
            {
              "internalType": "address",
              "name": "sender",
              "type": "address"
            },
            {
              "internalType": "address",
              "name": "recipient",
              "type": "address"
            },
            {
              "internalType": "address",
              "name": "vendor",
              "type": "address"
            }
          ],
          "internalType": "struct MocCommons.RedeemTCandTPParams",
          "name": "params_",
          "type": "tuple"
        }
      ],
      "name": "execRedeemTCandTP",
      "outputs": [
        {
          "internalType": "uint256",
          "name": "qACtoRedeem",
          "type": "uint256"
        },
        {
          "internalType": "uint256",
          "name": "qTPRedeemed",
          "type": "uint256"
        },
        {
          "internalType": "uint256",
          "name": "qFeeTokenTotalNeeded",
          "type": "uint256"
        },
        {
          "components": [
            {
              "internalType": "uint256",
              "name": "qACFee",
              "type": "uint256"
            },
            {
              "internalType": "uint256",
              "name": "qFeeToken",
              "type": "uint256"
            },
            {
              "internalType": "uint256",
              "name": "qACVendorMarkup",
              "type": "uint256"
            },
            {
              "internalType": "uint256",
              "name": "qFeeTokenVendorMarkup",
              "type": "uint256"
            }
          ],
          "internalType": "struct MocCommons.FeeCalcs",
          "name": "feeCalcs",
          "type": "tuple"
        }
      ],
      "stateMutability": "nonpayable",
      "type": "function"
    },
    {
      "inputs": [
        {
          "components": [
            {
              "internalType": "address",
              "name": "tp",
              "type": "address"
            },
            {
              "internalType": "uint256",
              "name": "qTP",
              "type": "uint256"
            },
            {
              "internalType": "uint256",
              "name": "qACmin",
              "type": "uint256"
            },
            {
              "internalType": "address",
              "name": "sender",
              "type": "address"
            },
            {
              "internalType": "address",
              "name": "recipient",
              "type": "address"
            },
            {
              "internalType": "address",
              "name": "vendor",
              "type": "address"
            }
          ],
          "internalType": "struct MocCommons.RedeemTPParams",
          "name": "params_",
          "type": "tuple"
        }
      ],
      "name": "execRedeemTP",
      "outputs": [
        {
          "internalType": "uint256",
          "name": "qACtoRedeem",
          "type": "uint256"
        },
        {
          "internalType": "uint256",
          "name": "qFeeTokenTotalNeeded",
          "type": "uint256"
        },
        {
          "components": [
            {
              "internalType": "uint256",
              "name": "qACFee",
              "type": "uint256"
            },
            {
              "internalType": "uint256",
              "name": "qFeeToken",
              "type": "uint256"
            },
            {
              "internalType": "uint256",
              "name": "qACVendorMarkup",
              "type": "uint256"
            },
            {
              "internalType": "uint256",
              "name": "qFeeTokenVendorMarkup",
              "type": "uint256"
            }
          ],
          "internalType": "struct MocCommons.FeeCalcs",
          "name": "feeCalcs",
          "type": "tuple"
        }
      ],
      "stateMutability": "nonpayable",
      "type": "function"
    },
    {
      "inputs": [],
      "name": "execSettlement",
      "outputs": [],
      "stateMutability": "nonpayable",
      "type": "function"
    },
    {
      "inputs": [
        {
          "components": [
            {
              "internalType": "address",
              "name": "tp",
              "type": "address"
            },
            {
              "internalType": "uint256",
              "name": "qTC",
              "type": "uint256"
            },
            {
              "internalType": "uint256",
              "name": "qTPmin",
              "type": "uint256"
            },
            {
              "internalType": "uint256",
              "name": "qACmax",
              "type": "uint256"
            },
            {
              "internalType": "address",
              "name": "sender",
              "type": "address"
            },
            {
              "internalType": "address",
              "name": "recipient",
              "type": "address"
            },
            {
              "internalType": "address",
              "name": "vendor",
              "type": "address"
            }
          ],
          "internalType": "struct MocCommons.SwapTCforTPParams",
          "name": "params_",
          "type": "tuple"
        }
      ],
      "name": "execSwapTCforTP",
      "outputs": [
        {
          "internalType": "uint256",
          "name": "qACSurcharges",
          "type": "uint256"
        },
        {
          "internalType": "uint256",
          "name": "qTPMinted",
          "type": "uint256"
        },
        {
          "internalType": "uint256",
          "name": "qFeeTokenTotalNeeded",
          "type": "uint256"
        },
        {
          "components": [
            {
              "internalType": "uint256",
              "name": "qACFee",
              "type": "uint256"
            },
            {
              "internalType": "uint256",
              "name": "qFeeToken",
              "type": "uint256"
            },
            {
              "internalType": "uint256",
              "name": "qACVendorMarkup",
              "type": "uint256"
            },
            {
              "internalType": "uint256",
              "name": "qFeeTokenVendorMarkup",
              "type": "uint256"
            }
          ],
          "internalType": "struct MocCommons.FeeCalcs",
          "name": "feeCalcs",
          "type": "tuple"
        }
      ],
      "stateMutability": "nonpayable",
      "type": "function"
    },
    {
      "inputs": [
        {
          "components": [
            {
              "internalType": "address",
              "name": "tp",
              "type": "address"
            },
            {
              "internalType": "uint256",
              "name": "qTP",
              "type": "uint256"
            },
            {
              "internalType": "uint256",
              "name": "qTCmin",
              "type": "uint256"
            },
            {
              "internalType": "uint256",
              "name": "qACmax",
              "type": "uint256"
            },
            {
              "internalType": "address",
              "name": "sender",
              "type": "address"
            },
            {
              "internalType": "address",
              "name": "recipient",
              "type": "address"
            },
            {
              "internalType": "address",
              "name": "vendor",
              "type": "address"
            }
          ],
          "internalType": "struct MocCommons.SwapTPforTCParams",
          "name": "params_",
          "type": "tuple"
        }
      ],
      "name": "execSwapTPforTC",
      "outputs": [
        {
          "internalType": "uint256",
          "name": "qACSurcharges",
          "type": "uint256"
        },
        {
          "internalType": "uint256",
          "name": "qTCMinted",
          "type": "uint256"
        },
        {
          "internalType": "uint256",
          "name": "qFeeTokenTotalNeeded",
          "type": "uint256"
        },
        {
          "components": [
            {
              "internalType": "uint256",
              "name": "qACFee",
              "type": "uint256"
            },
            {
              "internalType": "uint256",
              "name": "qFeeToken",
              "type": "uint256"
            },
            {
              "internalType": "uint256",
              "name": "qACVendorMarkup",
              "type": "uint256"
            },
            {
              "internalType": "uint256",
              "name": "qFeeTokenVendorMarkup",
              "type": "uint256"
            }
          ],
          "internalType": "struct MocCommons.FeeCalcs",
          "name": "feeCalcs",
          "type": "tuple"
        }
      ],
      "stateMutability": "nonpayable",
      "type": "function"
    },
    {
      "inputs": [
        {
          "components": [
            {
              "internalType": "address",
              "name": "tpFrom",
              "type": "address"
            },
            {
              "internalType": "address",
              "name": "tpTo",
              "type": "address"
            },
            {
              "internalType": "uint256",
              "name": "qTP",
              "type": "uint256"
            },
            {
              "internalType": "uint256",
              "name": "qTPmin",
              "type": "uint256"
            },
            {
              "internalType": "uint256",
              "name": "qACmax",
              "type": "uint256"
            },
            {
              "internalType": "address",
              "name": "sender",
              "type": "address"
            },
            {
              "internalType": "address",
              "name": "recipient",
              "type": "address"
            },
            {
              "internalType": "address",
              "name": "vendor",
              "type": "address"
            }
          ],
          "internalType": "struct MocCommons.SwapTPforTPParams",
          "name": "params_",
          "type": "tuple"
        }
      ],
      "name": "execSwapTPforTP",
      "outputs": [
        {
          "internalType": "uint256",
          "name": "qACSurcharges",
          "type": "uint256"
        },
        {
          "internalType": "uint256",
          "name": "qTPMinted",
          "type": "uint256"
        },
        {
          "internalType": "uint256",
          "name": "qFeeTokenTotalNeeded",
          "type": "uint256"
        },
        {
          "components": [
            {
              "internalType": "uint256",
              "name": "qACFee",
              "type": "uint256"
            },
            {
              "internalType": "uint256",
              "name": "qFeeToken",
              "type": "uint256"
            },
            {
              "internalType": "uint256",
              "name": "qACVendorMarkup",
              "type": "uint256"
            },
            {
              "internalType": "uint256",
              "name": "qFeeTokenVendorMarkup",
              "type": "uint256"
            }
          ],
          "internalType": "struct MocCommons.FeeCalcs",
          "name": "feeCalcs",
          "type": "tuple"
        }
      ],
      "stateMutability": "nonpayable",
      "type": "function"
    },
    {
      "inputs": [],
      "name": "feeRetainer",
      "outputs": [
        {
          "internalType": "uint256",
          "name": "",
          "type": "uint256"
        }
      ],
      "stateMutability": "view",
      "type": "function"
    },
    {
      "inputs": [],
      "name": "feeToken",
      "outputs": [
        {
          "internalType": "contract IERC20",
          "name": "",
          "type": "address"
        }
      ],
      "stateMutability": "view",
      "type": "function"
    },
    {
      "inputs": [],
      "name": "feeTokenPct",
      "outputs": [
        {
          "internalType": "uint256",
          "name": "",
          "type": "uint256"
        }
      ],
      "stateMutability": "view",
      "type": "function"
    },
    {
      "inputs": [],
      "name": "feeTokenPriceProvider",
      "outputs": [
        {
          "internalType": "contract IPriceProvider",
          "name": "",
          "type": "address"
        }
      ],
      "stateMutability": "view",
      "type": "function"
    },
    {
      "inputs": [],
      "name": "getBts",
      "outputs": [
        {
          "internalType": "uint256",
          "name": "",
          "type": "uint256"
        }
      ],
      "stateMutability": "view",
      "type": "function"
    },
    {
      "inputs": [],
      "name": "getCglb",
      "outputs": [
        {
          "internalType": "uint256",
          "name": "cglob",
          "type": "uint256"
        }
      ],
      "stateMutability": "view",
      "type": "function"
    },
    {
      "inputs": [],
      "name": "getCustomMockValue",
      "outputs": [
        {
          "internalType": "uint256",
          "name": "",
          "type": "uint256"
        }
      ],
      "stateMutability": "view",
      "type": "function"
    },
    {
      "inputs": [],
      "name": "getExpansionCustomMockValue",
      "outputs": [
        {
          "internalType": "uint256",
          "name": "",
          "type": "uint256"
        }
      ],
      "stateMutability": "nonpayable",
      "type": "function"
    },
    {
      "inputs": [],
      "name": "getLckAC",
      "outputs": [
        {
          "internalType": "uint256",
          "name": "lckAC",
          "type": "uint256"
        }
      ],
      "stateMutability": "view",
      "type": "function"
    },
    {
      "inputs": [],
      "name": "getLeverageTC",
      "outputs": [
        {
          "internalType": "uint256",
          "name": "leverageTC",
          "type": "uint256"
        }
      ],
      "stateMutability": "view",
      "type": "function"
    },
    {
      "inputs": [
        {
          "internalType": "address",
          "name": "tp_",
          "type": "address"
        }
      ],
      "name": "getPACtp",
      "outputs": [
        {
          "internalType": "uint256",
          "name": "",
          "type": "uint256"
        }
      ],
      "stateMutability": "view",
      "type": "function"
    },
    {
      "inputs": [],
      "name": "getPTCac",
      "outputs": [
        {
          "internalType": "uint256",
          "name": "pTCac",
          "type": "uint256"
        }
      ],
      "stateMutability": "view",
      "type": "function"
    },
    {
      "inputs": [],
      "name": "getTCAvailableToRedeem",
      "outputs": [
        {
          "internalType": "uint256",
          "name": "tcAvailableToRedeem",
          "type": "uint256"
        }
      ],
      "stateMutability": "view",
      "type": "function"
    },
    {
      "inputs": [
        {
          "internalType": "address",
          "name": "tp_",
          "type": "address"
        }
      ],
      "name": "getTPAvailableToMint",
      "outputs": [
        {
          "internalType": "int256",
          "name": "tpAvailableToMint",
          "type": "int256"
        }
      ],
      "stateMutability": "view",
      "type": "function"
    },
    {
      "inputs": [],
      "name": "getTotalACavailable",
      "outputs": [
        {
          "internalType": "uint256",
          "name": "totalACavailable",
          "type": "uint256"
        }
      ],
      "stateMutability": "view",
      "type": "function"
    },
    {
      "inputs": [],
      "name": "getTpAmount",
      "outputs": [
        {
          "internalType": "uint256",
          "name": "",
          "type": "uint256"
        }
      ],
      "stateMutability": "view",
      "type": "function"
    },
    {
      "inputs": [],
      "name": "governor",
      "outputs": [
        {
          "internalType": "contract IGovernor",
          "name": "",
          "type": "address"
        }
      ],
      "stateMutability": "view",
      "type": "function"
    },
    {
      "inputs": [
        {
          "components": [
            {
              "components": [
                {
                  "components": [
                    {
                      "internalType": "address payable",
                      "name": "mocQueueAddress",
                      "type": "address"
                    },
                    {
                      "internalType": "address",
                      "name": "feeTokenAddress",
                      "type": "address"
                    },
                    {
                      "internalType": "address",
                      "name": "feeTokenPriceProviderAddress",
                      "type": "address"
                    },
                    {
                      "internalType": "address",
                      "name": "tcTokenAddress",
                      "type": "address"
                    },
                    {
                      "internalType": "address",
                      "name": "mocFeeFlowAddress",
                      "type": "address"
                    },
                    {
                      "internalType": "address",
                      "name": "mocAppreciationBeneficiaryAddress",
                      "type": "address"
                    },
                    {
                      "internalType": "uint256",
                      "name": "protThrld",
                      "type": "uint256"
                    },
                    {
                      "internalType": "uint256",
                      "name": "liqThrld",
                      "type": "uint256"
                    },
                    {
                      "internalType": "uint256",
                      "name": "feeRetainer",
                      "type": "uint256"
                    },
                    {
                      "internalType": "uint256",
                      "name": "tcMintFee",
                      "type": "uint256"
                    },
                    {
                      "internalType": "uint256",
                      "name": "tcRedeemFee",
                      "type": "uint256"
                    },
                    {
                      "internalType": "uint256",
                      "name": "swapTPforTPFee",
                      "type": "uint256"
                    },
                    {
                      "internalType": "uint256",
                      "name": "swapTPforTCFee",
                      "type": "uint256"
                    },
                    {
                      "internalType": "uint256",
                      "name": "swapTCforTPFee",
                      "type": "uint256"
                    },
                    {
                      "internalType": "uint256",
                      "name": "redeemTCandTPFee",
                      "type": "uint256"
                    },
                    {
                      "internalType": "uint256",
                      "name": "mintTCandTPFee",
                      "type": "uint256"
                    },
                    {
                      "internalType": "uint256",
                      "name": "feeTokenPct",
                      "type": "uint256"
                    },
                    {
                      "internalType": "uint256",
                      "name": "successFee",
                      "type": "uint256"
                    },
                    {
                      "internalType": "uint256",
                      "name": "appreciationFactor",
                      "type": "uint256"
                    },
                    {
                      "internalType": "uint256",
                      "name": "bes",
                      "type": "uint256"
                    },
                    {
                      "internalType": "address",
                      "name": "tcInterestCollectorAddress",
                      "type": "address"
                    },
                    {
                      "internalType": "uint256",
                      "name": "tcInterestRate",
                      "type": "uint256"
                    },
                    {
                      "internalType": "uint256",
                      "name": "tcInterestPaymentBlockSpan",
                      "type": "uint256"
                    },
                    {
                      "internalType": "address",
                      "name": "maxAbsoluteOpProviderAddress",
                      "type": "address"
                    },
                    {
                      "internalType": "address",
                      "name": "maxOpDiffProviderAddress",
                      "type": "address"
                    },
                    {
                      "internalType": "uint256",
                      "name": "decayBlockSpan",
                      "type": "uint256"
                    }
                  ],
                  "internalType": "struct MocBaseBucket.InitializeBaseBucketParams",
                  "name": "initializeBaseBucketParams",
                  "type": "tuple"
                },
                {
                  "internalType": "address",
                  "name": "governorAddress",
                  "type": "address"
                },
                {
                  "internalType": "address",
                  "name": "pauserAddress",
                  "type": "address"
                },
                {
                  "internalType": "address",
                  "name": "mocCoreExpansion",
                  "type": "address"
                },
                {
                  "internalType": "uint256",
                  "name": "emaCalculationBlockSpan",
                  "type": "uint256"
                },
                {
                  "internalType": "address",
                  "name": "mocVendors",
                  "type": "address"
                }
              ],
              "internalType": "struct MocCore.InitializeCoreParams",
              "name": "initializeCoreParams",
              "type": "tuple"
            },
            {
              "internalType": "address",
              "name": "acTokenAddress",
              "type": "address"
            }
          ],
          "internalType": "struct MocCARC20.InitializeParams",
          "name": "initializeParams_",
          "type": "tuple"
        }
      ],
      "name": "initialize",
      "outputs": [],
      "stateMutability": "nonpayable",
      "type": "function"
    },
    {
      "inputs": [],
      "name": "initializeMock",
      "outputs": [],
      "stateMutability": "nonpayable",
      "type": "function"
    },
    {
      "inputs": [],
      "name": "isLiquidationReached",
      "outputs": [
        {
          "internalType": "bool",
          "name": "",
          "type": "bool"
        }
      ],
      "stateMutability": "view",
      "type": "function"
    },
    {
      "inputs": [],
      "name": "lastOperationBlockNumber",
      "outputs": [
        {
          "internalType": "uint256",
          "name": "",
          "type": "uint256"
        }
      ],
      "stateMutability": "view",
      "type": "function"
    },
    {
      "inputs": [],
      "name": "liqEnabled",
      "outputs": [
        {
          "internalType": "bool",
          "name": "",
          "type": "bool"
        }
      ],
      "stateMutability": "view",
      "type": "function"
    },
    {
      "inputs": [
        {
          "internalType": "address",
          "name": "tp_",
          "type": "address"
        },
        {
          "internalType": "address",
          "name": "recipient_",
          "type": "address"
        }
      ],
      "name": "liqRedeemTP",
      "outputs": [
        {
          "internalType": "uint256",
          "name": "qACRedeemed",
          "type": "uint256"
        }
      ],
      "stateMutability": "nonpayable",
      "type": "function"
    },
    {
      "inputs": [],
      "name": "liqThrld",
      "outputs": [
        {
          "internalType": "uint256",
          "name": "",
          "type": "uint256"
        }
      ],
      "stateMutability": "view",
      "type": "function"
    },
    {
      "inputs": [],
      "name": "liquidated",
      "outputs": [
        {
          "internalType": "bool",
          "name": "",
          "type": "bool"
        }
      ],
      "stateMutability": "view",
      "type": "function"
    },
    {
      "inputs": [],
      "name": "makeStoppable",
      "outputs": [],
      "stateMutability": "nonpayable",
      "type": "function"
    },
    {
      "inputs": [],
      "name": "makeUnstoppable",
      "outputs": [],
      "stateMutability": "nonpayable",
      "type": "function"
    },
    {
      "inputs": [],
      "name": "maxAbsoluteOpProvider",
      "outputs": [
        {
          "internalType": "contract IDataProvider",
          "name": "",
          "type": "address"
        }
      ],
      "stateMutability": "view",
      "type": "function"
    },
    {
      "inputs": [],
      "name": "maxOpDiffProvider",
      "outputs": [
        {
          "internalType": "contract IDataProvider",
          "name": "",
          "type": "address"
        }
      ],
      "stateMutability": "view",
      "type": "function"
    },
    {
      "inputs": [],
      "name": "maxQACToMintTP",
      "outputs": [
        {
          "internalType": "uint256",
          "name": "maxQAC",
          "type": "uint256"
        }
      ],
      "stateMutability": "view",
      "type": "function"
    },
    {
      "inputs": [],
      "name": "maxQACToRedeemTP",
      "outputs": [
        {
          "internalType": "uint256",
          "name": "maxQAC",
          "type": "uint256"
        }
      ],
      "stateMutability": "view",
      "type": "function"
    },
    {
      "inputs": [
        {
          "internalType": "uint256",
          "name": "qTC_",
          "type": "uint256"
        },
        {
          "internalType": "uint256",
          "name": "qACmax_",
          "type": "uint256"
        },
        {
          "internalType": "address",
          "name": "recipient_",
          "type": "address"
        },
        {
          "internalType": "address",
          "name": "vendor_",
          "type": "address"
        }
      ],
      "name": "mintTC",
      "outputs": [
        {
          "internalType": "uint256",
          "name": "operId",
          "type": "uint256"
        }
      ],
      "stateMutability": "payable",
      "type": "function"
    },
    {
      "inputs": [
        {
          "internalType": "address",
          "name": "tp_",
          "type": "address"
        },
        {
          "internalType": "uint256",
          "name": "qTP_",
          "type": "uint256"
        },
        {
          "internalType": "uint256",
          "name": "qACmax_",
          "type": "uint256"
        },
        {
          "internalType": "address",
          "name": "recipient_",
          "type": "address"
        },
        {
          "internalType": "address",
          "name": "vendor_",
          "type": "address"
        }
      ],
      "name": "mintTCandTP",
      "outputs": [
        {
          "internalType": "uint256",
          "name": "operId",
          "type": "uint256"
        }
      ],
      "stateMutability": "payable",
      "type": "function"
    },
    {
      "inputs": [],
      "name": "mintTCandTPFee",
      "outputs": [
        {
          "internalType": "uint256",
          "name": "",
          "type": "uint256"
        }
      ],
      "stateMutability": "view",
      "type": "function"
    },
    {
      "inputs": [
        {
          "internalType": "address",
          "name": "tp_",
          "type": "address"
        },
        {
          "internalType": "uint256",
          "name": "qTP_",
          "type": "uint256"
        },
        {
          "internalType": "uint256",
          "name": "qACmax_",
          "type": "uint256"
        },
        {
          "internalType": "address",
          "name": "recipient_",
          "type": "address"
        },
        {
          "internalType": "address",
          "name": "vendor_",
          "type": "address"
        }
      ],
      "name": "mintTP",
      "outputs": [
        {
          "internalType": "uint256",
          "name": "operId",
          "type": "uint256"
        }
      ],
      "stateMutability": "payable",
      "type": "function"
    },
    {
      "inputs": [],
      "name": "mocAppreciationBeneficiaryAddress",
      "outputs": [
        {
          "internalType": "address",
          "name": "",
          "type": "address"
        }
      ],
      "stateMutability": "view",
      "type": "function"
    },
    {
      "inputs": [],
      "name": "mocFeeFlowAddress",
      "outputs": [
        {
          "internalType": "address",
          "name": "",
          "type": "address"
        }
      ],
      "stateMutability": "view",
      "type": "function"
    },
    {
      "inputs": [],
      "name": "mocQueue",
      "outputs": [
        {
          "internalType": "address payable",
          "name": "",
          "type": "address"
        }
      ],
      "stateMutability": "view",
      "type": "function"
    },
    {
      "inputs": [],
      "name": "mocVendors",
      "outputs": [
        {
          "internalType": "contract MocVendors",
          "name": "",
          "type": "address"
        }
      ],
      "stateMutability": "view",
      "type": "function"
    },
    {
      "inputs": [],
      "name": "nACcb",
      "outputs": [
        {
          "internalType": "uint256",
          "name": "",
          "type": "uint256"
        }
      ],
      "stateMutability": "view",
      "type": "function"
    },
    {
      "inputs": [],
      "name": "nTCcb",
      "outputs": [
        {
          "internalType": "uint256",
          "name": "",
          "type": "uint256"
        }
      ],
      "stateMutability": "view",
      "type": "function"
    },
    {
      "inputs": [],
      "name": "newVariable",
      "outputs": [
        {
          "internalType": "uint256",
          "name": "",
          "type": "uint256"
        }
      ],
      "stateMutability": "view",
      "type": "function"
    },
    {
      "inputs": [],
      "name": "nextEmaCalculation",
      "outputs": [
        {
          "internalType": "uint256",
          "name": "",
          "type": "uint256"
        }
      ],
      "stateMutability": "view",
      "type": "function"
    },
    {
      "inputs": [],
      "name": "nextTCInterestPayment",
      "outputs": [
        {
          "internalType": "uint256",
          "name": "",
          "type": "uint256"
        }
      ],
      "stateMutability": "view",
      "type": "function"
    },
    {
      "inputs": [],
      "name": "pause",
      "outputs": [],
      "stateMutability": "nonpayable",
      "type": "function"
    },
    {
      "inputs": [],
      "name": "paused",
      "outputs": [
        {
          "internalType": "bool",
          "name": "",
          "type": "bool"
        }
      ],
      "stateMutability": "view",
      "type": "function"
    },
    {
      "inputs": [],
      "name": "pauser",
      "outputs": [
        {
          "internalType": "address",
          "name": "",
          "type": "address"
        }
      ],
      "stateMutability": "view",
      "type": "function"
    },
    {
      "inputs": [
        {
          "internalType": "uint256",
          "name": "",
          "type": "uint256"
        }
      ],
      "name": "pegContainer",
      "outputs": [
        {
          "internalType": "uint256",
          "name": "nTP",
          "type": "uint256"
        },
        {
          "internalType": "contract IPriceProvider",
          "name": "priceProvider",
          "type": "address"
        }
      ],
      "stateMutability": "view",
      "type": "function"
    },
    {
      "inputs": [
        {
          "internalType": "address",
          "name": "",
          "type": "address"
        }
      ],
      "name": "peggedTokenIndex",
      "outputs": [
        {
          "internalType": "uint256",
          "name": "index",
          "type": "uint256"
        },
        {
          "internalType": "bool",
          "name": "exists",
          "type": "bool"
        }
      ],
      "stateMutability": "view",
      "type": "function"
    },
    {
      "inputs": [],
      "name": "protThrld",
      "outputs": [
        {
          "internalType": "uint256",
          "name": "",
          "type": "uint256"
        }
      ],
      "stateMutability": "view",
      "type": "function"
    },
    {
      "inputs": [],
      "name": "proxiableUUID",
      "outputs": [
        {
          "internalType": "bytes32",
          "name": "",
          "type": "bytes32"
        }
      ],
      "stateMutability": "view",
      "type": "function"
    },
    {
      "inputs": [],
      "name": "qACLockedInPending",
      "outputs": [
        {
          "internalType": "uint256",
          "name": "",
          "type": "uint256"
        }
      ],
      "stateMutability": "view",
      "type": "function"
    },
    {
      "inputs": [
        {
          "internalType": "uint256",
          "name": "qTC_",
          "type": "uint256"
        },
        {
          "internalType": "uint256",
          "name": "qACmin_",
          "type": "uint256"
        },
        {
          "internalType": "address",
          "name": "recipient_",
          "type": "address"
        },
        {
          "internalType": "address",
          "name": "vendor_",
          "type": "address"
        }
      ],
      "name": "redeemTC",
      "outputs": [
        {
          "internalType": "uint256",
          "name": "operId",
          "type": "uint256"
        }
      ],
      "stateMutability": "payable",
      "type": "function"
    },
    {
      "inputs": [
        {
          "internalType": "address",
          "name": "tp_",
          "type": "address"
        },
        {
          "internalType": "uint256",
          "name": "qTC_",
          "type": "uint256"
        },
        {
          "internalType": "uint256",
          "name": "qTP_",
          "type": "uint256"
        },
        {
          "internalType": "uint256",
          "name": "qACmin_",
          "type": "uint256"
        },
        {
          "internalType": "address",
          "name": "recipient_",
          "type": "address"
        },
        {
          "internalType": "address",
          "name": "vendor_",
          "type": "address"
        }
      ],
      "name": "redeemTCandTP",
      "outputs": [
        {
          "internalType": "uint256",
          "name": "operId",
          "type": "uint256"
        }
      ],
      "stateMutability": "payable",
      "type": "function"
    },
    {
      "inputs": [],
      "name": "redeemTCandTPFee",
      "outputs": [
        {
          "internalType": "uint256",
          "name": "",
          "type": "uint256"
        }
      ],
      "stateMutability": "view",
      "type": "function"
    },
    {
      "inputs": [
        {
          "internalType": "address",
          "name": "tp_",
          "type": "address"
        },
        {
          "internalType": "uint256",
          "name": "qTP_",
          "type": "uint256"
        },
        {
          "internalType": "uint256",
          "name": "qACmin_",
          "type": "uint256"
        },
        {
          "internalType": "address",
          "name": "recipient_",
          "type": "address"
        },
        {
          "internalType": "address",
          "name": "vendor_",
          "type": "address"
        }
      ],
      "name": "redeemTP",
      "outputs": [
        {
          "internalType": "uint256",
          "name": "operId",
          "type": "uint256"
        }
      ],
      "stateMutability": "payable",
      "type": "function"
    },
    {
      "inputs": [],
      "name": "refreshACBalance",
      "outputs": [],
      "stateMutability": "nonpayable",
      "type": "function"
    },
    {
      "inputs": [
        {
          "internalType": "uint256",
          "name": "appreciationFactor_",
          "type": "uint256"
        }
      ],
      "name": "setAppreciationFactor",
      "outputs": [],
      "stateMutability": "nonpayable",
      "type": "function"
    },
    {
      "inputs": [
        {
          "internalType": "uint256",
          "name": "bes_",
          "type": "uint256"
        }
      ],
      "name": "setBes",
      "outputs": [],
      "stateMutability": "nonpayable",
      "type": "function"
    },
    {
      "inputs": [
        {
          "internalType": "uint256",
          "name": "decayBlockSpan_",
          "type": "uint256"
        }
      ],
      "name": "setDecayBlockSpan",
      "outputs": [],
      "stateMutability": "nonpayable",
      "type": "function"
    },
    {
      "inputs": [
        {
          "internalType": "uint256",
          "name": "blockSpan_",
          "type": "uint256"
        }
      ],
      "name": "setEmaCalculationBlockSpan",
      "outputs": [],
      "stateMutability": "nonpayable",
      "type": "function"
    },
    {
      "inputs": [
        {
          "internalType": "uint256",
          "name": "feeRetainer_",
          "type": "uint256"
        }
      ],
      "name": "setFeeRetainer",
      "outputs": [],
      "stateMutability": "nonpayable",
      "type": "function"
    },
    {
      "inputs": [
        {
          "internalType": "address",
          "name": "mocFeeTokenAddress_",
          "type": "address"
        }
      ],
      "name": "setFeeTokenAddress",
      "outputs": [],
      "stateMutability": "nonpayable",
      "type": "function"
    },
    {
      "inputs": [
        {
          "internalType": "uint256",
          "name": "feeTokenPct_",
          "type": "uint256"
        }
      ],
      "name": "setFeeTokenPct",
      "outputs": [],
      "stateMutability": "nonpayable",
      "type": "function"
    },
    {
      "inputs": [
        {
          "internalType": "address",
          "name": "mocFeeTokenPriceProviderAddress_",
          "type": "address"
        }
      ],
      "name": "setFeeTokenPriceProviderAddress",
      "outputs": [],
      "stateMutability": "nonpayable",
      "type": "function"
    },
    {
      "inputs": [
        {
          "internalType": "bool",
          "name": "liqEnabled_",
          "type": "bool"
        }
      ],
      "name": "setLiqEnabled",
      "outputs": [],
      "stateMutability": "nonpayable",
      "type": "function"
    },
    {
      "inputs": [
        {
          "internalType": "uint256",
          "name": "liqThrld_",
          "type": "uint256"
        }
      ],
      "name": "setLiqThrld",
      "outputs": [],
      "stateMutability": "nonpayable",
      "type": "function"
    },
    {
      "inputs": [
        {
          "internalType": "address",
          "name": "maxAbsoluteOpProviderAddress_",
          "type": "address"
        }
      ],
      "name": "setMaxAbsoluteOpProviderAddress",
      "outputs": [],
      "stateMutability": "nonpayable",
      "type": "function"
    },
    {
      "inputs": [
        {
          "internalType": "address",
          "name": "maxOpDiffProviderAddress_",
          "type": "address"
        }
      ],
      "name": "setMaxOpDiffProviderAddress",
      "outputs": [],
      "stateMutability": "nonpayable",
      "type": "function"
    },
    {
      "inputs": [
        {
          "internalType": "uint256",
          "name": "mintTCandTPFee_",
          "type": "uint256"
        }
      ],
      "name": "setMintTCandTPFee",
      "outputs": [],
      "stateMutability": "nonpayable",
      "type": "function"
    },
    {
      "inputs": [
        {
          "internalType": "address",
          "name": "mocAppreciationBeneficiaryAddress_",
          "type": "address"
        }
      ],
      "name": "setMocAppreciationBeneficiaryAddress",
      "outputs": [],
      "stateMutability": "nonpayable",
      "type": "function"
    },
    {
      "inputs": [
        {
          "internalType": "address",
          "name": "mocCoreExpansion_",
          "type": "address"
        }
      ],
      "name": "setMocCoreExpansion",
      "outputs": [],
      "stateMutability": "nonpayable",
      "type": "function"
    },
    {
      "inputs": [
        {
          "internalType": "address",
          "name": "mocFeeFlowAddress_",
          "type": "address"
        }
      ],
      "name": "setMocFeeFlowAddress",
      "outputs": [],
      "stateMutability": "nonpayable",
      "type": "function"
    },
    {
      "inputs": [
        {
          "internalType": "address payable",
          "name": "mocQueueAddress_",
          "type": "address"
        }
      ],
      "name": "setMocQueue",
      "outputs": [],
      "stateMutability": "nonpayable",
      "type": "function"
    },
    {
      "inputs": [
        {
          "internalType": "address",
          "name": "mocVendors_",
          "type": "address"
        }
      ],
      "name": "setMocVendors",
      "outputs": [],
      "stateMutability": "nonpayable",
      "type": "function"
    },
    {
      "inputs": [
        {
          "internalType": "address",
          "name": "newPauser_",
          "type": "address"
        }
      ],
      "name": "setPauser",
      "outputs": [],
      "stateMutability": "nonpayable",
      "type": "function"
    },
    {
      "inputs": [
        {
          "internalType": "uint256",
          "name": "protThrld_",
          "type": "uint256"
        }
      ],
      "name": "setProtThrld",
      "outputs": [],
      "stateMutability": "nonpayable",
      "type": "function"
    },
    {
      "inputs": [
        {
          "internalType": "uint256",
          "name": "redeemTCandTPFee_",
          "type": "uint256"
        }
      ],
      "name": "setRedeemTCandTPFee",
      "outputs": [],
      "stateMutability": "nonpayable",
      "type": "function"
    },
    {
      "inputs": [
        {
          "internalType": "uint256",
          "name": "successFee_",
          "type": "uint256"
        }
      ],
      "name": "setSuccessFee",
      "outputs": [],
      "stateMutability": "nonpayable",
      "type": "function"
    },
    {
      "inputs": [
        {
          "internalType": "uint256",
          "name": "swapTCforTPFee_",
          "type": "uint256"
        }
      ],
      "name": "setSwapTCforTPFee",
      "outputs": [],
      "stateMutability": "nonpayable",
      "type": "function"
    },
    {
      "inputs": [
        {
          "internalType": "uint256",
          "name": "swapTPforTCFee_",
          "type": "uint256"
        }
      ],
      "name": "setSwapTPforTCFee",
      "outputs": [],
      "stateMutability": "nonpayable",
      "type": "function"
    },
    {
      "inputs": [
        {
          "internalType": "uint256",
          "name": "swapTPforTPFee_",
          "type": "uint256"
        }
      ],
      "name": "setSwapTPforTPFee",
      "outputs": [],
      "stateMutability": "nonpayable",
      "type": "function"
    },
    {
      "inputs": [
        {
          "internalType": "address",
          "name": "tcInterestCollectorAddress_",
          "type": "address"
        }
      ],
      "name": "setTCInterestCollectorAddress",
      "outputs": [],
      "stateMutability": "nonpayable",
      "type": "function"
    },
    {
      "inputs": [
        {
          "internalType": "uint256",
          "name": "tcInterestPaymentBlockSpan_",
          "type": "uint256"
        }
      ],
      "name": "setTCInterestPaymentBlockSpan",
      "outputs": [],
      "stateMutability": "nonpayable",
      "type": "function"
    },
    {
      "inputs": [
        {
          "internalType": "uint256",
          "name": "tcInterestRate_",
          "type": "uint256"
        }
      ],
      "name": "setTCInterestRate",
      "outputs": [],
      "stateMutability": "nonpayable",
      "type": "function"
    },
    {
      "inputs": [
        {
          "internalType": "uint256",
          "name": "tcMintFee_",
          "type": "uint256"
        }
      ],
      "name": "setTcMintFee",
      "outputs": [],
      "stateMutability": "nonpayable",
      "type": "function"
    },
    {
      "inputs": [
        {
          "internalType": "uint256",
          "name": "tcRedeemFee_",
          "type": "uint256"
        }
      ],
      "name": "setTcRedeemFee",
      "outputs": [],
      "stateMutability": "nonpayable",
      "type": "function"
    },
    {
      "inputs": [],
      "name": "shouldCalculateEma",
      "outputs": [
        {
          "internalType": "bool",
          "name": "",
          "type": "bool"
        }
      ],
      "stateMutability": "view",
      "type": "function"
    },
    {
      "inputs": [],
      "name": "stoppable",
      "outputs": [
        {
          "internalType": "bool",
          "name": "",
          "type": "bool"
        }
      ],
      "stateMutability": "view",
      "type": "function"
    },
    {
      "inputs": [],
      "name": "successFee",
      "outputs": [
        {
          "internalType": "uint256",
          "name": "",
          "type": "uint256"
        }
      ],
      "stateMutability": "view",
      "type": "function"
    },
    {
      "inputs": [
        {
          "internalType": "address",
          "name": "tp_",
          "type": "address"
        },
        {
          "internalType": "uint256",
          "name": "qTC_",
          "type": "uint256"
        },
        {
          "internalType": "uint256",
          "name": "qTPmin_",
          "type": "uint256"
        },
        {
          "internalType": "uint256",
          "name": "qACmax_",
          "type": "uint256"
        },
        {
          "internalType": "address",
          "name": "recipient_",
          "type": "address"
        },
        {
          "internalType": "address",
          "name": "vendor_",
          "type": "address"
        }
      ],
      "name": "swapTCforTP",
      "outputs": [
        {
          "internalType": "uint256",
          "name": "operId",
          "type": "uint256"
        }
      ],
      "stateMutability": "payable",
      "type": "function"
    },
    {
      "inputs": [],
      "name": "swapTCforTPFee",
      "outputs": [
        {
          "internalType": "uint256",
          "name": "",
          "type": "uint256"
        }
      ],
      "stateMutability": "view",
      "type": "function"
    },
    {
      "inputs": [
        {
          "internalType": "address",
          "name": "tp_",
          "type": "address"
        },
        {
          "internalType": "uint256",
          "name": "qTP_",
          "type": "uint256"
        },
        {
          "internalType": "uint256",
          "name": "qTCmin_",
          "type": "uint256"
        },
        {
          "internalType": "uint256",
          "name": "qACmax_",
          "type": "uint256"
        },
        {
          "internalType": "address",
          "name": "recipient_",
          "type": "address"
        },
        {
          "internalType": "address",
          "name": "vendor_",
          "type": "address"
        }
      ],
      "name": "swapTPforTC",
      "outputs": [
        {
          "internalType": "uint256",
          "name": "operId",
          "type": "uint256"
        }
      ],
      "stateMutability": "payable",
      "type": "function"
    },
    {
      "inputs": [],
      "name": "swapTPforTCFee",
      "outputs": [
        {
          "internalType": "uint256",
          "name": "",
          "type": "uint256"
        }
      ],
      "stateMutability": "view",
      "type": "function"
    },
    {
      "inputs": [
        {
          "internalType": "address",
          "name": "tpFrom_",
          "type": "address"
        },
        {
          "internalType": "address",
          "name": "tpTo_",
          "type": "address"
        },
        {
          "internalType": "uint256",
          "name": "qTP_",
          "type": "uint256"
        },
        {
          "internalType": "uint256",
          "name": "qTPmin_",
          "type": "uint256"
        },
        {
          "internalType": "uint256",
          "name": "qACmax_",
          "type": "uint256"
        },
        {
          "internalType": "address",
          "name": "recipient_",
          "type": "address"
        },
        {
          "internalType": "address",
          "name": "vendor_",
          "type": "address"
        }
      ],
      "name": "swapTPforTP",
      "outputs": [
        {
          "internalType": "uint256",
          "name": "operId",
          "type": "uint256"
        }
      ],
      "stateMutability": "payable",
      "type": "function"
    },
    {
      "inputs": [],
      "name": "swapTPforTPFee",
      "outputs": [
        {
          "internalType": "uint256",
          "name": "",
          "type": "uint256"
        }
      ],
      "stateMutability": "view",
      "type": "function"
    },
    {
      "inputs": [],
      "name": "tcHoldersInterestPayment",
      "outputs": [],
      "stateMutability": "nonpayable",
      "type": "function"
    },
    {
      "inputs": [],
      "name": "tcInterestCollectorAddress",
      "outputs": [
        {
          "internalType": "address",
          "name": "",
          "type": "address"
        }
      ],
      "stateMutability": "view",
      "type": "function"
    },
    {
      "inputs": [],
      "name": "tcInterestPaymentBlockSpan",
      "outputs": [
        {
          "internalType": "uint256",
          "name": "",
          "type": "uint256"
        }
      ],
      "stateMutability": "view",
      "type": "function"
    },
    {
      "inputs": [],
      "name": "tcInterestRate",
      "outputs": [
        {
          "internalType": "uint256",
          "name": "",
          "type": "uint256"
        }
      ],
      "stateMutability": "view",
      "type": "function"
    },
    {
      "inputs": [],
      "name": "tcMintFee",
      "outputs": [
        {
          "internalType": "uint256",
          "name": "",
          "type": "uint256"
        }
      ],
      "stateMutability": "view",
      "type": "function"
    },
    {
      "inputs": [],
      "name": "tcRedeemFee",
      "outputs": [
        {
          "internalType": "uint256",
          "name": "",
          "type": "uint256"
        }
      ],
      "stateMutability": "view",
      "type": "function"
    },
    {
      "inputs": [],
      "name": "tcToken",
      "outputs": [
        {
          "internalType": "contract MocTC",
          "name": "",
          "type": "address"
        }
      ],
      "stateMutability": "view",
      "type": "function"
    },
    {
      "inputs": [
        {
          "internalType": "uint256",
          "name": "",
          "type": "uint256"
        }
      ],
      "name": "tpCtarg",
      "outputs": [
        {
          "internalType": "uint256",
          "name": "",
          "type": "uint256"
        }
      ],
      "stateMutability": "view",
      "type": "function"
    },
    {
      "inputs": [
        {
          "internalType": "uint256",
          "name": "",
          "type": "uint256"
        }
      ],
      "name": "tpEma",
      "outputs": [
        {
          "internalType": "uint256",
          "name": "ema",
          "type": "uint256"
        },
        {
          "internalType": "uint256",
          "name": "sf",
          "type": "uint256"
        }
      ],
      "stateMutability": "view",
      "type": "function"
    },
    {
      "inputs": [
        {
          "internalType": "uint256",
          "name": "",
          "type": "uint256"
        }
      ],
      "name": "tpLiqPrices",
      "outputs": [
        {
          "internalType": "uint256",
          "name": "",
          "type": "uint256"
        }
      ],
      "stateMutability": "view",
      "type": "function"
    },
    {
      "inputs": [
        {
          "internalType": "address",
          "name": "",
          "type": "address"
        }
      ],
      "name": "tpMintFees",
      "outputs": [
        {
          "internalType": "uint256",
          "name": "",
          "type": "uint256"
        }
      ],
      "stateMutability": "view",
      "type": "function"
    },
    {
      "inputs": [
        {
          "internalType": "address",
          "name": "",
          "type": "address"
        }
      ],
      "name": "tpRedeemFees",
      "outputs": [
        {
          "internalType": "uint256",
          "name": "",
          "type": "uint256"
        }
      ],
      "stateMutability": "view",
      "type": "function"
    },
    {
      "inputs": [
        {
          "internalType": "uint256",
          "name": "",
          "type": "uint256"
        }
      ],
      "name": "tpTokens",
      "outputs": [
        {
          "internalType": "contract IMocRC20",
          "name": "",
          "type": "address"
        }
      ],
      "stateMutability": "view",
      "type": "function"
    },
    {
      "inputs": [
        {
          "internalType": "address",
          "name": "owner_",
          "type": "address"
        },
        {
          "internalType": "uint256",
          "name": "qACToUnlock_",
          "type": "uint256"
        }
      ],
      "name": "unlockACInPending",
      "outputs": [],
      "stateMutability": "nonpayable",
      "type": "function"
    },
    {
      "inputs": [
        {
          "internalType": "address",
          "name": "owner_",
          "type": "address"
        },
        {
          "internalType": "uint256",
          "name": "qTCToUnlock_",
          "type": "uint256"
        }
      ],
      "name": "unlockTCInPending",
      "outputs": [],
      "stateMutability": "nonpayable",
      "type": "function"
    },
    {
      "inputs": [
        {
          "internalType": "address",
          "name": "owner_",
          "type": "address"
        },
        {
          "internalType": "contract IERC20Upgradeable",
          "name": "tpToken_",
          "type": "address"
        },
        {
          "internalType": "uint256",
          "name": "qTPToUnlock_",
          "type": "uint256"
        }
      ],
      "name": "unlockTPInPending",
      "outputs": [],
      "stateMutability": "nonpayable",
      "type": "function"
    },
    {
      "inputs": [],
      "name": "unpause",
      "outputs": [],
      "stateMutability": "nonpayable",
      "type": "function"
    },
    {
      "inputs": [],
      "name": "updateEmas",
      "outputs": [],
      "stateMutability": "nonpayable",
      "type": "function"
    },
    {
      "inputs": [
        {
          "internalType": "address",
          "name": "newImplementation",
          "type": "address"
        }
      ],
      "name": "upgradeTo",
      "outputs": [],
      "stateMutability": "nonpayable",
      "type": "function"
    },
    {
      "inputs": [
        {
          "internalType": "address",
          "name": "newImplementation",
          "type": "address"
        },
        {
          "internalType": "bytes",
          "name": "data",
          "type": "bytes"
        }
      ],
      "name": "upgradeToAndCall",
      "outputs": [],
      "stateMutability": "payable",
      "type": "function"
    }
  ],
  "bytecode": "0x60a08060405234620000e157306080526000549060ff8260081c166200008f575060ff8082160362000053575b6040516158829081620000e78239608051818181612833015281816129a20152612f2b0152f35b60ff90811916176000557f7f26b83ff96e1f2b6a682f133852f6798a09c465da95921460cefb3847402498602060405160ff8152a1386200002c565b62461bcd60e51b815260206004820152602760248201527f496e697469616c697a61626c653a20636f6e747261637420697320696e697469604482015266616c697a696e6760c81b6064820152608490fd5b600080fdfe604060808152600436101561001357600080fd5b60009060e08235811c90816301dde6ef14613b3257816301f1b68414613aeb5781630579188f14613a5257816307164879146139f2578163073763b9146139ce5781630c340a24146139a55781630c36d897146139855781630d6ac4631461393f5781630db496561461391f5781630e0a8fd2146138fb5781630f1e5e2b146138b557816313ed7ba51461388b57816314b4906d146137da5781631867e2f5146137ba5781631fb0dda0146137915781631fe6a7ad146137575781632069f75314613733578163235e81cf1461354157816323b98cde1461351957816324ffaba3146134dc57816325bc6c41146134b257816327eab2a11461346c5781632a20d57d1461344c5781632c43bd3b146134285781632d88af4a146133d15781632ded50f0146133b15781632eccb11c146132d55781632ed35ca1146131aa578163333431fd1461318a57816333421c381461308f57816334d70ffa14612f905781633659cfe614612ef65781633915edcb14612ec5578163391bf6cf14612dad5781633bc4ac0a14612d895781633cfb09ef14612d435781633f4ba83a14612c375781634017936a14612c06578163407f0e3414612be657816347dda6af14612b3c5781634af3a6fc14612abd5781634b74600114612a735781634d977e7814612a535781634e1f907a14612a295781634f0f27ee14612a095781634f1ef286146129195781635210570c146128f357816352d1902d1461281e578163533a4bea146127ed57816353b16d17146127a8578163543aeb481461278457816357271f4d146127545781635860ee631461273457816358f32de9146126ec5781635c616a73146124f15781635c975abb146124ca5781635cfbe578146124aa5781635e2a60651461249057816360009e0b1461246657816360a01dfa14611f1957816360ef07bf14611e72578163647846a514611e4857816364ec230a14611e24578163662013f414611e075781636827435714611dde5781636b5488df14611dbe5781636f30471f14611d9e5781637071346814611d7a578163735d396014611d3457816373e28af914611d105781637554fffd14611cf05781637622805514611cd05781637750ba0c14611cac578163797709ca14611bbd57816379f9a91c14611b9d5781637a193c3114611b7d5781637a4ff1d914611b595781637a727fe814611b395781637af5758c14611b155781637cba238314611af15781637d8e031414611ab25781637f01c71514611a885781637f13b99814611a525781637f4a4fe014611a32578163826fcd5814611a0f5781638456cb591461197a57816385bf959314611934578163883d21cb146118735781638cfa4241146118535781638d7a72f3146118335781638e2bdb86146118095781638f1a383a146117e15781639853c35a146117b75781639ad6659d146117815781639cabfc00146117355781639fd0506d14611708578163a8e9ac30146116e5578163ad4e666d14611505578163aea038dc146114e5578163b03e11a0146113db578163b4434c321461121d578163b5e9ea8c146111f3578163b9fa6413146111d3578163bb4872de146111af578163bc4e55b2146110e1578163becaca6b146110bd578163bfe4262114610ec2578163c00f538d14610e9e578163c039cc6914610e5c578163c84353c914610e38578163cf351c1d14610df2578163d1a0faa014610dd9578163d2dc25a514610d54578163d6af11da14610d18578163d87aab6f14610cf8578163d8c69aec14610be2578163d8db6f5a14610b9c578163db79607214610b5f578163ddb6d19014610b22578163de8d520a14610aef578163e23c135c14610ad6578163e2c5e99014610a75578163e4c0aaf414610a30578163e6a683e0146109ea578163e6b1627c146109a6578163e7c2597814610981578163e8859a1514610964578163ee1f438f1461093a578163f13f405414610910578163f26114aa146108ab57508063f280877814610887578063f30b561414610868578063f375cfba14610849578063f88b1434146107d9578063fa6e83bd146107ba578063fadda42414610743578063fda70f8b14610724578063fdcdc11e1461063d5763fe6b92c11461061b57600080fd5b34610639578160031936011261063957602090610135549051908152f35b5080fd5b6106c2838360c461064f366004613c19565b61065c9892959198614f0b565b610664615719565b86519461067260c087613ca7565b60018060a01b03918280921687528160209b8c97888a0152898b8a01523360608a01521660808801521660a086015261014f541693865194859384926323ec24b560e11b84526004840190614f2d565b34905af193841561071957936106e3575b506106dd90614ea1565b51908152f35b9092508381813d8311610712575b6106fb8183613ca7565b8101031261070d5751916106dd6106d3565b600080fd5b503d6106f1565b8351903d90823e3d90fd5b503461063957816003193601126106395760209061013c549051908152f35b5090346107b75760203660031901126107b757506001600160a01b03600435818116810361070d576107816107796001926145ee565b610137613c8b565b5001541661078e81614643565b919091156107a0575060209151908152f35b602490835190637f6e4db960e01b82526004820152fd5b80fd5b503461063957816003193601126106395760209061013a549051908152f35b5090346107b75760203660031901126107b75750600435906001600160a01b038216820361070d5761084261083460209361081d610815614d4a565b9190926145ee565b9161083c61082b8484614407565b5194859361441b565b959094614ca2565b90614b9f565b9051908152f35b5034610639578160031936011261063957602090610141549051908152f35b5034610639578160031936011261063957602090610131549051908152f35b82346107b75760203660031901126107b7576108a161568b565b60043561013c5580f35b90503461090c5736600319011261063957610908906108c861568b565b516379308a5560e11b60208201526108f6816108e8600460248301614aab565b03601f198101835282613ca7565b6101f7546001600160a01b0316614978565b5080f35b8280fd5b5050346106395781600319360112610639576101305490516001600160a01b039091168152602090f35b5050346106395781600319360112610639576101525490516001600160a01b039091168152602090f35b505034610639578160031936011261063957602090610842614c65565b50503461063957816003193601126106395760209060ff61014b541690519015158152f35b5050346106395760203660031901126106395760043561018e80548210156109e657906109d291613c8b565b506001815491015482519182526020820152f35b8380fd5b83346107b75760203660031901126107b7576004356001600160a01b0381169081900361070d57610a1961568b565b6101f780546001600160a01b031916909117905580f35b83346107b75760203660031901126107b7576004356001600160a01b0381169081900361063957610a5f61568b565b6001600160601b0360a01b609754161760975580f35b8284346107b75760603660031901126107b7576001600160a01b03600435818116810361070d576024359180831683036109e65761014f54163303610ac55790610ac29160443591615652565b80f35b8351631974847760e01b8152600490fd5b83346107b757806003193601126107b757610ac2614342565b505034610639578160031936011261063957602090610842610b17610b126146f3565b61441b565b90506101315461431f565b505034610639576020366003190112610639576004356001600160a01b0381169081900361070d5782829160209452610145845220549051908152f35b90503461090c573660031901126106395761090890610b7c61568b565b51636dbcb03960e11b60208201526108f6816108e8600460248301614aab565b83346107b75760203660031901126107b7576004356001600160a01b0381169081900361070d57610bcb61568b565b61015280546001600160a01b031916909117905580f35b83915034610639573660031901126107b75750610bfd615026565b5061014f546001600160a01b03919082163303610ce857610cad91610c233660046155df565b91610c2c615026565b50610c35614f0b565b610c3d615719565b610c89610c7a8251633dad0bd760e11b6020820152610c5f6024820187614fd6565b60e48152610c6f61010482613ca7565b846101f75416614978565b60208082518301019101615584565b86848760808498969b95979a015116918860c08160a0840151169201511692615390565b6004359380851680950361070d57608435908116810361070d57610ce494610cda91886044350391615652565b5194859485613c4b565b0390f35b51631974847760e01b8152600490fd5b505034610639578160031936011261063957602090610155549051908152f35b505034610639578160031936011261063957602090610842610d3a6001614774565b610d4e610d47828461455f565b91836144a9565b916147bb565b6106c2848460c4610d66366004613c19565b610d739892959198614f0b565b610d7b615719565b865194610d8960c087613ca7565b60018060a01b03918280921687528160209b8c97888a0152898b8a01523360608a01521660808801521660a086015261014f54169386519485938492637e81a82160e01b84526004840190614f2d565b83346107b757806003193601126107b757610ac2614e0d565b83346107b75760203660031901126107b7576004356001600160a01b0381169081900361070d57610e2161568b565b61012f80546001600160a01b031916909117905580f35b83346107b75760203660031901126107b757610e5261568b565b60043561014c5580f35b505034610639578160031936011261063957602090610842610e91610e98610e85610b126146f3565b6101319391935461431f565b918261431f565b90615805565b83346107b75760203660031901126107b757610eb861568b565b60043561013d5580f35b8284346107b75760a03660031901126107b757610edd615026565b5061014f546001600160a01b0390811633036110ac57610efe36600461504d565b91610f07615026565b50610f10614f0b565b610f18615719565b610f20614e0d565b610f33610f2b614d4a565b8192916150aa565b9091610f428284885193614b40565b81811061108f575050670de0b6b3a764000091610f64610f6a92875192614b0c565b9061452c565b0491821561107e5793839481610fa39501908082511691610f986080890193878486511661013d54926150ed565b96918899919961431f565b9660208a01518089106110615750895190610134610fc283825461431f565b9055610fd261013191825461431f565b905583610133541690813b1561090c578651632770a7eb60e21b815230600482015260248101919091529082908290604490829084905af1801561105757611042575b5050968561103893838060608996610ce49b9c9d51169501511691511692615390565b5193849384613bdb565b61104d828092613ca7565b6107b75780611015565b86513d84823e3d90fd5b604490898851916354cde31360e01b835260048301526024820152fd5b845163f3e39b5d60e01b8152600490fd5b6044925087519163a5db715d60e01b835260048301526024820152fd5b8251631974847760e01b8152600490fd5b83346107b75760203660031901126107b7576110d761568b565b6004356101395580f35b83915034610639573660031901126107b757506110fc615026565b5061014f546001600160a01b03908116330361119e57610ce4610cda916111243660046155df565b9361112d615026565b50611136614f0b565b61113e615719565b611160610c7a825163f5571e0160e01b6020820152610c5f6024820189614fd6565b948860608793969599949a0191825161117d61014e91825461431f565b905560c06111938b83608086015116955161431f565b920151169180615390565b8151631974847760e01b8152600490fd5b50503461063957816003193601126106395760209060ff60ca541690519015158152f35b50503461063957816003193601126106395760209061015b549051908152f35b5050346106395781600319360112610639576101535490516001600160a01b039091168152602090f35b8284346107b75760c03660031901126107b757611238615026565b5061014f546001600160a01b03929083163303610ce8576112d261125d366004615449565b91611266615026565b5061126f614f0b565b611277615719565b61127f614e0d565b611287614d4a565b611296878695939551166145ee565b936112b66112a48684614407565b51926112b08488614a5a565b826150aa565b6020889592950194848651946112cc828b614ca2565b906154b2565b8181106113be5750509480966112ec611324978451615805565b94606087019061131983835116888a8960a082019888808b511693511681526101446020522054926150ed565b9891829b919b6143fa565b98878101968751808c116113a157508a15611390579489969461136b82958d9e9f95610ce49e958560806110389e9c6113606113869b866154ca565b51920151169261499a565b865161137b61014e91825461431f565b90555116945161431f565b9151169180615390565b885163f3e39b5d60e01b8152600490fd5b6044908c8b5191630b63f1a760e01b835260048301526024820152fd5b6044925084519163c39b739f60e01b835260048301526024820152fd5b82846113e8366004613cfb565b906113f595939295614f0b565b6113fd615719565b83519061140b60a083613ca7565b838252602080830197885233868401526001600160a01b03918216606084019081529382166080840190815261014f54875163fa91a9a560e01b815285516004820152995160248b0152604090940151831660448a01529351821660648901529251811660848801529195908690829060a4908290861634905af19485156114da57946114a7575b50906106dd91610133541630903390614ec7565b919093508482813d83116114d3575b6114c08183613ca7565b8101031261070d579051926106dd611493565b503d6114b6565b8451903d90823e3d90fd5b50503461063957816003193601126106395760209061013d549051908152f35b5050346106395760c036600319011261063957611520615026565b5061014f546001600160a01b03919082163303610ce857611542366004615449565b9161154b615026565b50611554614f0b565b61155c615719565b6115646146f3565b91611571828551166145ee565b9161159461157f8486614407565b519461158b8686614a5a565b610149546150aa565b50506115a560208601948551615805565b9081156116d457859660606115ea97019082825116936115df60a08b0195828c87808a5116915116865261014560205289862054926150ed565b9891839b919b61431f565b98878c0151808b106116b75750859161163c9161160860018d6154ca565b519361161682610137613c8b565b5061162286825461431f565b905561163261013191825461431f565b9055610135613b56565b90549060031b1c1690813b1561090c578651632770a7eb60e21b815230600482015260248101919091529082908290604490829084905af18015611057576116a2575b5050968561103893838060808996610ce49b9c9d51169501511691511692615390565b6116ad828092613ca7565b6107b7578061167f565b6044908b8a51916354cde31360e01b835260048301526024820152fd5b825163f3e39b5d60e01b8152600490fd5b50503461063957816003193601126106395760209061018f544310159051908152f35b50503461063957816003193601126106395760ca54905160109190911c6001600160a01b03168152602090f35b8284346107b75760203660031901126107b7576004356001600160a01b038116919082900361070d57829181526101366020522060ff6001825492015416825191825215156020820152f35b5050346106395781600319360112610639576020906117aa6117a4610b126146f3565b906145d0565b61014a5410159051908152f35b5050346106395781600319360112610639576101465490516001600160a01b039091168152602090f35b505034610639578160031936011261063957602090611801610b126146f3565b509051908152f35b5050346106395781600319360112610639576101585490516001600160a01b039091168152602090f35b5050346106395781600319360112610639576020906101f6549051908152f35b50503461063957816003193601126106395760209061014a549051908152f35b8284346107b75760c03660031901126107b7575061188f615026565b5061014f546001600160a01b03908116330361119e57610ce4610cda916118b7366004615449565b936118c0615026565b506118c9614f0b565b6118d1615719565b611902610c7a8251637225da8960e11b60208201526118f36024820189614f2d565b60c48152610c6f60e482613ca7565b9488858793969599949a0191825161191e61014e91825461431f565b905560a06111938b83606086015116955161431f565b83346107b75760203660031901126107b7576004356001600160a01b0381169081900361070d5761196361568b565b61015380546001600160a01b031916909117905580f35b505034610639578160031936011261063957611994615719565b60ca54601081901c6001600160a01b031633036119fe5760ff8116156119ed5761ff0019166101001760ca55513381527f62e78cea01bee320cd4e420270b5ea74000d11b0c9f74754ebdbfc544b05a25890602090a180f35b815163866099c360e01b8152600490fd5b8151631d77d47760e21b8152600490fd5b5050346106395781600319360112610639576020906108426117a4610b126146f3565b50503461063957816003193601126106395760209061015a549051908152f35b505034610639578160031936011261063957602090610842611a746001614774565b610d4e611a8182846144a9565b918361455f565b5050346106395781600319360112610639576101c35490516001600160a01b039091168152602090f35b50503461063957602036600319011261063957600435916101489081548410156107b75750602092611ae391613b56565b91905490519160031b1c8152f35b83346107b75760203660031901126107b757611b0b61568b565b6004356101495580f35b83346107b75760203660031901126107b757611b2f61568b565b6004356101405580f35b505034610639578160031936011261063957602090610190549051908152f35b83346107b75760203660031901126107b757611b7361568b565b6004356101415580f35b505034610639578160031936011261063957602090610134549051908152f35b505034610639578160031936011261063957602090610142549051908152f35b905082611bcb366004613b98565b611bdb9895919792949398614f0b565b611be3615719565b611bef86519384613ca7565b60018060a01b03809881809416855260209a868c870152888601528660608601523360808601521660a08401521660c082015286611c4a60e48861014f54169387519485938492636b59c22f60e01b84526004840190614fd6565b34905af19485156114da5794611c79575b50611c74906106dd939495610133541630903390614ec7565b614ea1565b909293508581813d8311611ca5575b611c928183613ca7565b8101031261070d57519291611c74611c5b565b503d611c88565b83346107b75760203660031901126107b757611cc661568b565b60043561013b5580f35b505034610639578160031936011261063957602090610156549051908152f35b505034610639578160031936011261063957602090610139549051908152f35b83346107b75760203660031901126107b757611d2a61568b565b6004356101545580f35b83346107b75760203660031901126107b7576004356001600160a01b0381169081900361070d57611d6361568b565b61015880546001600160a01b031916909117905580f35b83346107b75760203660031901126107b757611d9461568b565b60043561013e5580f35b505034610639578160031936011261063957602090610154549051908152f35b505034610639578160031936011261063957602090610149549051908152f35b83346107b757806003193601126107b757611df761568b565b600160ff1960ca54161760ca5580f35b505034610639578160031936011261063957602090611801614d4a565b83346107b75760203660031901126107b757611e3e61568b565b6004356101595580f35b50503461063957816003193601126106395761012f5490516001600160a01b039091168152602090f35b8284611e7f366004613cfb565b949290611e8a614f0b565b611e92615719565b835191611ea060a084613ca7565b8252602080830184815233868501526001600160a01b03928316606085019081529783166080850190815261014f54875163e97a4d6360e01b815286516004820152925160248401526040909501518416604483015297518316606482015296518216608488015295918691839160a4918391166106c2565b5050346106395761040036600319011261063957815460ff8160081c161590818092612459575b8015612442575b156123e75760ff1981166001178455816123d6575b5060ff835460081c16611f6e81614918565b610384356001600160a01b0381169081900361070d576101f780546001600160a01b03191690911790556001600160a01b03610344359081169081900361070d57610364356001600160a01b038116810361070d57600191611fcf84614918565b611fd884614918565b611fe184614918565b611fea84614918565b6001600160601b0360a01b609754161760975561200683614918565b60ca5490620100008360b01b039060101b169061ff018360b01b031916171760ca5561203181614918565b670de0b6b3a764000060c43511156123c55761204f61010435615829565b61205b61012435615829565b61206761014435615829565b61207361016435615829565b61207f61018435615829565b61208b6101a435615829565b6120976101c435615829565b6120a36101e435615829565b6120af61020435615829565b6120c76120c261024435610224356143fa565b615829565b6004356001600160a01b038116908190036123c15761014f80546001600160a01b03191690911790556024356001600160a01b038116810361070d5761012f80546001600160a01b0319166001600160a01b03928316179055604435908116810361070d5761013080546001600160a01b0319166001600160a01b03928316179055606435908116810361070d5761013380546001600160a01b0319166001600160a01b03928316179055608435908116810361070d5761014680546001600160a01b0319166001600160a01b0392831617905560a435908116810361070d5761014780546001600160a01b0319166001600160a01b0392831617905560c4356101495560e43561014a556101043561013b556101243561013c556101443561013d556101643561013e556101843561013f556101a435610140556101c435610141556101e43561014255610204356101435561022435610139556102443561013a556102643561014c81905590610284359081169081900361070d5761015880546001600160a01b03191690911790556102a435610159556102c43561015a819055906001600160a01b036102e4359081169081900361070d5761015280546001600160a01b03191690911790556001600160a01b03610304359081169081900361070d57610153906001600160601b0360a01b82541617905561032435610154554361015755430161014d55430161015b5561014b61ffff1981541690556103a4356122f482614918565b80156123b057610190819055430161018f556103c4356001600160a01b038116810361070d5761232661234892614918565b6101c380546001600160a01b0319166001600160a01b03909216919091179055565b6103e4356001600160a01b0381169081900361070d5761022a80546001600160a01b031916909117905561237a575080f35b60207f7f26b83ff96e1f2b6a682f133852f6798a09c465da95921460cefb38474024989161ff001984541684555160018152a180f35b8351632a9ffab760e21b8152600490fd5b8480fd5b8251632a9ffab760e21b8152600490fd5b61ffff191661010117835538611f5c565b825162461bcd60e51b815260206004820152602e60248201527f496e697469616c697a61626c653a20636f6e747261637420697320616c72656160448201526d191e481a5b9a5d1a585b1a5e995960921b6064820152608490fd5b50303b158015611f475750600160ff821614611f47565b50600160ff821610611f40565b5050346106395781600319360112610639576101335490516001600160a01b039091168152602090f35b83346107b757806003193601126107b75760346101f65580f35b50503461063957816003193601126106395760209061014e549051908152f35b50503461063957816003193601126106395760209060ff60ca5460081c1690519015158152f35b50503461063957816003193601126106395761250b615719565b61014d805443106126db5761014c54430190557fd3c59bda47e141a8ec5a33d241b7f71b86e30d359f83a9227d912858b60404fc8280a16101375482612550826146c1565b91845b81811061260c575050806125c7575b918051928184019084526020918285015282518091528160608501930191855b8281106125b357867fae5116a8119d08673a0f1dfa7546b95da4bd54bb17feda7c61130ac7859152f687870388a180f35b835185529381019392810192600101612582565b6125de670de0b6b3a764000091610139549061452c565b046101316125ed82825461431f565b9055610146546126079082906001600160a01b03166141c9565b612562565b6126158161472d565b61261f8183614a5a565b86610150918661262f8585613b56565b90549060031b1c9183831361264c575b5050505050600101612553565b94612691838296996126979461268b8561267e6126846126ae9a60019e670de0b6b3a764000093849161013a5461452c565b0461452c565b0492614407565b526143fa565b97613b56565b819391549060031b91821b91600019901b19161790565b90556126d16126bd8287614407565b5188848060a01b036101475416918461499a565b908638868161263f565b815163101b685960e01b8152600490fd5b8284346107b757816003193601126107b7576001600160a01b03600435818116810361070d576024359161014f54163303610ac55790610ac29161014e8281540390556141c9565b505034610639578160031936011261063957602090610157549051908152f35b5050346106395781600319360112610639576020906108426101f654670de0b6b3a76400006101495404906143fa565b83346107b75760203660031901126107b75761279e61568b565b6004356101435580f35b8284346107b757816003193601126107b7576001600160a01b03600435818116810361070d578161014f54163303610ac55790610ac291602435916101335416615652565b83346107b75760203660031901126107b7576004356001600160a01b038116810361070d57610ac29061232661568b565b8284346107b757806003193601126107b757507f00000000000000000000000000000000000000000000000000000000000000006001600160a01b0316300361288a57602090517f360894a13ba1a3210667c828492db98dca3e2076cc3735a920a3ca505d382bbc8152f35b5162461bcd60e51b815260206004820152603860248201527f555550535570677261646561626c653a206d757374206e6f742062652063616c60448201527f6c6564207468726f7567682064656c656761746563616c6c00000000000000006064820152608490fd5b83346107b757806003193601126107b75761290c61568b565b60ff1960ca541660ca5580f35b50508060031936011261063957600435906001600160a01b0390818316830361070d5783926024359267ffffffffffffffff84116123c157366023850112156123c15783600401359061297761296e83613cdf565b94519485613ca7565b8184523660248387010111612a0557610ac2956020836129f8946024600199018389013786010152807f000000000000000000000000000000000000000000000000000000000000000016906129cf82301415613d21565b7f360894a13ba1a3210667c828492db98dca3e2076cc3735a920a3ca505d382bbc541614613d82565b612a0061568b565b613de3565b8580fd5b50503461063957816003193601126106395760209061013b549051908152f35b5050346106395781600319360112610639576101475490516001600160a01b039091168152602090f35b50503461063957816003193601126106395760209061014c549051908152f35b5050346106395760203660031901126106395760043561013780548210156109e65790612a9f91613c8b565b50805460019091015482519182526001600160a01b03166020820152f35b83915034610639573660031901126107b75750612ad8615026565b5061014f546001600160a01b03908116330361119e57610ce4610cda91612b003660046155df565b93612b09615026565b50612b12614f0b565b612b1a615719565b611160610c7a825163d9b6c2e560e01b6020820152610c5f6024820189614fd6565b8284346107b757816003193601126107b757506004356001600160a01b038181169182900361070d57602435918183169182840361070d57612bc892612b80615719565b612b893061437f565b90865193632ab7831f60e01b602086015260248501523360448501526064840152608483015260848252612bbe60a483613ca7565b6101f75416614978565b9160208380518101031261070d576106dd60208094015180936141c9565b50503461063957816003193601126106395760209061013e549051908152f35b505034610639578160031936011261063957602090610842612c31612c29614d4a565b91909161441b565b91614b40565b50503461063957816003193601126106395760ca5460ff8160081c1615612d325760018060a01b03808260101c163314159081612cb2575b506119fe5760ff8116156119ed5761ff00191660ca55513381527f5db9ee0a495bf2e6ff9c91a7834c1ba4fdd244a5e8aa4e537bd38aeae4b073aa90602090a180f35b609754845163d994d6d560e01b8152336004820152925060209183916024918391165afa908115612d25578491612cec575b501538612c6f565b90506020813d8211612d1d575b81612d0660209383613ca7565b810103126109e657612d1790614220565b38612ce4565b3d9150612cf9565b50505051903d90823e3d90fd5b8151637c7fd07960e01b8152600490fd5b83346107b75760203660031901126107b7576004356001600160a01b0381169081900361063957612d7261568b565b61014f80546001600160a01b031916909117905580f35b83346107b75760203660031901126107b757612da361568b565b6004356101905580f35b8383346106395761010091826003193601126107b75750612dcc615026565b5061014f546001600160a01b0392908316330361119e57612def82519182613ca7565b600435838116810361070d578152602435838116810361070d5760208201526044358282015260643560608201526080810191608435835260a43590848216820361070d5760a0830191825260c435858116810361070d5760c084015260e43592858416840361070d5785610ce495612eab610c7a6108e8610c6f866113869d610cda98019a8b52612e7f615026565b50612e88614f0b565b612e90615719565b88516370f090ed60e11b602082015292839160248301614f72565b9892809b8a96939d9299865161137b61014e91825461431f565b50503461063957602036600319011261063957600435916101389081548410156107b75750602092611ae391613b56565b50503461063957602036600319011261063957600435906001600160a01b0390818316830361070d57610ac292612f588386947f000000000000000000000000000000000000000000000000000000000000000016906129cf82301415613d21565b612f6061568b565b612f75612f6c84613cdf565b92519283613ca7565b828252601f19612f8484613cdf565b01366020840137613de3565b8284612f9d366004613b98565b9694612fad989193949298614f0b565b612fb5615719565b612fc186519283613ca7565b60018060a01b039788808093169586855260209b868d870152888a87015260608601523360808601521660a08401521660c08201528761301e60e48961014f5416938851948593849263e4e1b72960e01b84526004840190614fd6565b34905af19586156130845795613051575b50613048906106dd949596610133541630903390614ec7565b30903390614ec7565b909394508681813d831161307d575b61306a8183613ca7565b8101031261070d5751939261304861302f565b503d613060565b8551903d90823e3d90fd5b5050346106395781600319360112610639576130a9614342565b6130b1615719565b61014b805460ff81168061317c575b80613162575b6130ce578380f35b61ff00191661010017905580519082907f8b77276c97a5709f0d6db52329848a254eb760ce8be80d281799f633bdb69e838280a1610133546001600160a01b0316803b1561090c5783600481858094638456cb5960e01b83525af19081156131575750613147575b505061314061573a565b3880808380f35b61315091613ca7565b3881613136565b51913d9150823e3d90fd5b506131716117a4610b126146f3565b61014a5410156130c6565b5060ff8160081c16156130c0565b50503461063957816003193601126106395760209061013f549051908152f35b838382600319360112610639576001600160a01b0392600435848116908190036109e657602435908582168092036123c157604435916084359360a435978089168099036132d15760c4358181168091036132cd579061327193929161320e614f0b565b613216615719565b88519261322561010085613ca7565b86845260209b8c9586860152888b86015260643560608601528960808601523360a086015260c085015283015261014f5416875180809581946334975a4160e01b835260048301614f72565b039134905af1958615613084578096613299575b50506106dd9291611c749130903390614ec7565b909195508682813d83116132c6575b6132b28183613ca7565b810103126107b75750519381611c74613285565b503d6132a8565b8880fd5b8780fd5b82846132e2366004613c19565b916132ef96949196614f0b565b6132f7615719565b61335b60c486519361330a60c086613ca7565b60018060a01b0380809216968787528160209c8d978b898b01528c8a01523360608a01521660808801521660a086015261014f54169387519485938492636426c5db60e11b84526004840190614f2d565b34905af19485156114da57809561337d575b5050906106dd9130903390614ec7565b909194508582813d83116133aa575b6133968183613ca7565b810103126107b7575051926106dd8661336d565b503d61338c565b505034610639578160031936011261063957602090610143549051908152f35b83346107b75760203660031901126107b7576004356001600160a01b0381168103610639576133fe61568b565b60ca805462010000600160b01b03191660109290921b62010000600160b01b031691909117905580f35b83346107b75760203660031901126107b75761344261568b565b60043561014a5580f35b505034610639578160031936011261063957602090610140549051908152f35b83346107b75760203660031901126107b7576004356001600160a01b038116908190036106395761349b61568b565b61014780546001600160a01b031916909117905580f35b50503461063957816003193601126106395761022a5490516001600160a01b039091168152602090f35b505034610639576020366003190112610639576004356001600160a01b0381169081900361090c5782829160209452610144845220549051908152f35b50503461063957816003193601126106395760209060ff61014b5460081c1690519015158152f35b5050346106395760a03660031901126106395761355c615026565b5061014f546001600160a01b0392908316330361119e57906135ed9161358336600461504d565b9161358c615026565b50613595614f0b565b61359d615719565b670de0b6b3a76400006135c0610f646135b761158b6146f3565b87519291614b0c565b04948184019080825116916135e26080870193898486511661013c54926150ed565b96918a9991996143fa565b9660208101998a51808a1161371657508815613705578160209186606061367096955193015116906101346136238482546143fa565b90556136336101319182546143fa565b90556101335489516340c10f1960e01b81526001600160a01b03909216600483015260248201929092529384918716908290859082906044820190565b03925af180156136f9576136a3575b5050966110389282611386888895610ce49a9b9c865161137b61014e91825461431f565b6020823d82116136f1575b816136bb60209383613ca7565b810103126107b757509282611386888895610ce49a9b9c956136df61103899614220565b50959c9b50955098505081945061367f565b3d91506136ae565b508551903d90823e3d90fd5b865163f3e39b5d60e01b8152600490fd5b6044908a895191630b63f1a760e01b835260048301526024820152fd5b83346107b75760203660031901126107b75761374d61568b565b6004356101425580f35b83346107b75760203660031901126107b7576004358015158091036106395761377e61568b565b61014b9060ff8019835416911617905580f35b5050346106395781600319360112610639576020906108426137b4610b126146f3565b90614b0c565b50503461063957816003193601126106395760209061014d549051908152f35b838360e46138666137ec366004613b98565b946137fc9a94969297919a614f0b565b613804615719565b61381089519586613ca7565b60018060a01b0380809216968787528160209d8e978b898b01528d8a01528b60608a01523360808a01521660a08801521660c086015261014f541693885194859384926263744760e11b84526004840190614fd6565b34905af19586156130845780966132995750506106dd9291611c749130903390614ec7565b50503461063957816003193601126106395761014f5490516001600160a01b039091168152602090f35b83346107b75760203660031901126107b7576004356001600160a01b03811690819003610639576138e461568b565b61013080546001600160a01b031916909117905580f35b83346107b75760203660031901126107b75761391561568b565b60043561013f5580f35b505034610639578160031936011261063957602090610159549051908152f35b83346107b75760203660031901126107b7576004356001600160a01b038116908190036106395761396e61568b565b61014680546001600160a01b031916909117905580f35b50503461063957816003193601126106395760209061018f549051908152f35b50503461063957816003193601126106395760975490516001600160a01b039091168152602090f35b83346107b75760203660031901126107b7576139e861568b565b60043561015a5580f35b5050346106395781600319360112610639578051630716487960e01b602082015260048152613a26906108f6602482613ca7565b916020838051810103126107b75750610842602080930151670de0b6b3a76400006101495404906143fa565b505034610639578160031936011261063957613a6c615719565b61015b80544310613ada5790610ac29161015a54430190557f0e37fda283839477a1b77e29acf8336c0e13a5daa967913df0fe5ad258c0822f6020670de0b6b3a7640000613ac161013154610159549061452c565b049251838152a1610158546001600160a01b03166141c9565b815163acce20e560e01b8152600490fd5b50503461063957602036600319011261063957600435916101359081548410156107b75750602092613b1c91613b56565b905491519160018060a01b039160031b1c168152f35b83346107b75760203660031901126107b757613b4c61568b565b60043561013a5580f35b8054821015613b6e5760005260206000200190600090565b634e487b7160e01b600052603260045260246000fd5b35906001600160a01b038216820361070d57565b91908260c091031261070d57613bad82613b84565b91602081013591604082013591606081013591613bd860a0613bd160808501613b84565b9301613b84565b90565b604090613c17939594929560c0820196825260208201520190606080918051845260208101516020850152604081015160408501520151910152565b565b908160a091031261070d57613c2d81613b84565b91602082013591604081013591613bd86080613bd160608501613b84565b613c179360609296959360e08301978352602083015260408201520190606080918051845260208101516020850152604081015160408501520151910152565b8054821015613b6e5760005260206000209060011b0190600090565b90601f8019910116810190811067ffffffffffffffff821117613cc957604052565b634e487b7160e01b600052604160045260246000fd5b67ffffffffffffffff8111613cc957601f01601f191660200190565b919082608091031261070d57813591602081013591613bd86060613bd160408501613b84565b15613d2857565b60405162461bcd60e51b815260206004820152602c60248201527f46756e6374696f6e206d7573742062652063616c6c6564207468726f7567682060448201526b19195b1959d85d1958d85b1b60a21b6064820152608490fd5b15613d8957565b60405162461bcd60e51b815260206004820152602c60248201527f46756e6374696f6e206d7573742062652063616c6c6564207468726f7567682060448201526b6163746976652070726f787960a01b6064820152608490fd5b9060ff7f4910fdfa16fed3260ed0e7147f7cc6da11a60208b5b9406d12a635614ffd91435416600014613e1b5750613c179150613fcf565b6040516352d1902d60e01b8152602093919291906001600160a01b038316908581600481855afa60009181613fa0575b50613eac5760405162461bcd60e51b815260048101879052602e60248201527f45524331393637557067726164653a206e657720696d706c656d656e7461746960448201526d6f6e206973206e6f74205555505360901b6064820152608490fd5b9394937fc9f76b5ec45e5cdef99837d7b6d2467235c1df8933c8ca56df5c35afa2c7d44401613f4957613ede83613fcf565b7fbc7cd75a20ee27fd9adebab32041f755214dbc6bffa90cc0225b39da2e5c2d3b600080a283511590811591613f41575b50613f1957505050565b600080613f3e94613f28614071565b9481519101845af4613f386140c5565b916140f5565b50565b905038613f0f565b60405162461bcd60e51b815260048101859052602960248201527f45524331393637557067726164653a20756e737570706f727465642070726f786044820152681a58589b195555525160ba1b6064820152608490fd5b90918782813d8311613fc8575b613fb78183613ca7565b810103126107b75750519038613e4b565b503d613fad565b803b15614016577f360894a13ba1a3210667c828492db98dca3e2076cc3735a920a3ca505d382bbc80546001600160a01b0319166001600160a01b03909216919091179055565b60405162461bcd60e51b815260206004820152602d60248201527f455243313936373a206e657720696d706c656d656e746174696f6e206973206e60448201526c1bdd08184818dbdb9d1c9858dd609a1b6064820152608490fd5b61407b6027613cdf565b906140896040519283613ca7565b60278252660819985a5b195960ca1b6040837f416464726573733a206c6f772d6c6576656c2064656c65676174652063616c6c60208201520152565b3d156140f0573d906140d682613cdf565b916140e46040519384613ca7565b82523d6000602084013e565b606090565b919290156141575750815115614109575090565b3b156141125790565b60405162461bcd60e51b815260206004820152601d60248201527f416464726573733a2063616c6c20746f206e6f6e2d636f6e74726163740000006044820152606490fd5b82519091501561416a5750805190602001fd5b6040519062461bcd60e51b82528160208060048301528251908160248401526000935b8285106141b0575050604492506000838284010152601f80199101168101030190fd5b848101820151868601604401529381019385935061418d565b90806141d3575050565b61022a5460405163a9059cbb60e01b60208201526001600160a01b0393841660248201526044810192909252613c17921661421b82606481015b03601f198101845283613ca7565b61422d565b5190811515820361070d57565b602091614290916001600160a01b031660008061424986613cdf565b936142576040519586613ca7565b8685527f5361666545524332303a206c6f772d6c6576656c2063616c6c206661696c656487860152868151910182855af1613f386140c5565b8051828115918215614300575b50509050156142a95750565b6084906040519062461bcd60e51b82526004820152602a60248201527f5361666545524332303a204552433230206f7065726174696f6e20646964206e6044820152691bdd081cdd58d8d9595960b21b6064820152fd5b838092935001031261070d57816143179101614220565b80823861429d565b9190820391821161432c57565b634e487b7160e01b600052601160045260246000fd5b61434b3061437f565b6101319061436861435e8354809361431f565b61014e549061431f565b8061437257505050565b61437b916143fa565b9055565b61022a546040516370a0823160e01b81526001600160a01b0392831660048201529160209183916024918391165afa9081156143ee576000916143c0575090565b906020823d82116143e6575b816143d960209383613ca7565b810103126107b757505190565b3d91506143cc565b6040513d6000823e3d90fd5b9190820180921161432c57565b8051821015613b6e5760209160051b010190565b906000916000906101378054906000925b828410614452575050505061444e670de0b6b3a764000091610139549061452c565b0490565b909192939561449f61448e6144996001936144936144708a88614407565b5161447b818c6144c5565b95906144878d8c613c8b565b50546143fa565b615805565b906143fa565b986143fa565b940192919061442c565b9190916000838201938412911290801582169115161761432c57565b91906000906144f3816000956144e96144e082610150613b56565b93905492614578565b9160031b1c6144a9565b60008113614502575b50509190565b61452491945061267e92508094670de0b6b3a764000093849161013a5461452c565b0438806144fc565b8181029291811591840414171561432c57565b8115614549570490565b634e487b7160e01b600052601260045260246000fd5b8181039291600013801582851316918412161761432c57565b61458481610137613c8b565b505490670de0b6b3a76400009182810292818404149015171561432c57613bd8926145c46145b76145ca93610151613b56565b90549060031b1c8461453f565b9261453f565b9061455f565b80156145e65761448e613bd8926101315461431f565b505060001990565b6001600160a01b0316600090815261013660205260409020600181015460ff1615614617575490565b60405163e6c4247b60e01b8152600490fd5b919082604091031261070d57613bd8602083519301614220565b604080516359e02dd760e01b81529291839060049082906001600160a01b03165afa9182156143ee57600090819361467a57509190565b905061469e91925060403d81116146a2575b6146968183613ca7565b810190614629565b9091565b503d61468c565b67ffffffffffffffff8111613cc95760051b60200190565b906146cb826146a9565b6146d86040519182613ca7565b82815280926146e9601f19916146a9565b0190602036910137565b6101375490614701826146c1565b9160005b818110614710575050565b8061471c60019261472d565b6147268287614407565b5201614705565b61473990610137613c8b565b50600101546001600160a01b031661475081614643565b9190911561475c575090565b60249060405190637f6e4db960e01b82526004820152fd5b90614795670de0b6b3a764000092836101575461015454924301030261453f565b828110156147b25782039180836101555402049261015654020590565b50600091508190565b90916147c561481d565b9290808210156148135783916147da9161431f565b93111561480e5781811015614806576147f29161431f565b60011c80821015614801575090565b905090565b505050600090565b505090565b5050505050600090565b61015254604080516359e02dd760e01b80825293929091906001600160a01b039081168284600481845afa801561490d5760009485916148ea575b50156148d3575061015354169080519485528085600481855afa80156148c85760009586916148a5575b501561488e5750509190565b6024925051906305e8989360e11b82526004820152fd5b9050816148bf9296503d87116146a2576146968183613ca7565b94909438614882565b50513d6000823e3d90fd5b6024908351906305e8989360e11b82526004820152fd5b9050614904919450833d85116146a2576146968183613ca7565b93909338614858565b83513d6000823e3d90fd5b1561491f57565b60405162461bcd60e51b815260206004820152602b60248201527f496e697469616c697a61626c653a20636f6e7472616374206973206e6f74206960448201526a6e697469616c697a696e6760a81b6064820152608490fd5b90613bd891600080614988614071565b93602081519101845af4613f386140c5565b614a08936149cf6000926020956149b382610137613c8b565b506149bf8782546143fa565b90556116326101319182546143fa565b90546040516340c10f1960e01b81526001600160a01b039093166004840152602483019490945290948593928492909183906044820190565b039360039190911b1c6001600160a01b03165af180156143ee57614a295750565b6020813d8211614a52575b81614a4160209383613ca7565b8101031261070d57613f3e90614220565b3d9150614a34565b61269761437b91614a6b8482614578565b614aa1614a7a83610150613b56565b614a8d8294925492838360031b1c6144a9565b919060031b91821b91600019901b19161790565b9055610151613b56565b60e08101929160c09081906001600160a01b0380614ac883613b84565b168552614ad760208301613b84565b16602085015260408101356040850152606081013560608501526080810135608085015260a081013560a08501520135910152565b9061013454908115614b3157613bd892614b2c61448e926101315461431f565b61431f565b505050670de0b6b3a764000090565b8282614b4b92614b68565b90600082131561480657613bd892614b6291614b0c565b9061453f565b9091614b77906101315461431f565b90670de0b6b3a76400009182810292818404149015171561432c57613bd8926145ca9161452c565b92614bad9293949194614b68565b81810291600091600160ff1b9183821283821416614c51578185051490151715614c3d57670de0b6b3a763ffff198401938411614c3d57670de0b6b3a764000093848102948186041490151715614c3d578315614c29578214600019841416614c1557500590565b634e487b7160e01b81526011600452602490fd5b634e487b7160e01b82526012600452602482fd5b634e487b7160e01b82526011600452602482fd5b634e487b7160e01b84526011600452602484fd5b61014d5480431015614c7c57613bd890439061431f565b50600090565b90604051614c91604082613ca7565b602060018294805484520154910152565b614cae81610148613b56565b90549060031b1c9161018e91614cc48184613c8b565b50549261018f54431015614cef575b50508082101561480e57614cea90613bd89361452c565b61453f565b829350614d03614d0e9392614d0992613c8b565b50614c82565b614d16565b903880614cd3565b602081519101805192670de0b6b3a76400009384039084821161432c57614d436144939261444e9561452c565b925161452c565b60008061013791825492614d5d846146c1565b9382915b818310614d8a575050508115614d7e5790614d7b9161453f565b91565b50506101495460011b91565b90919392614d978561472d565b9081614da38789614407565b52614dbc614db183886144c5565b506144878886613c8b565b670de0b6b3a76400009081810291818304149015171561432c57614dfe614e049261449385614df0600197614df996615805565b9485918c614ca2565b61452c565b956143fa565b94019190614d61565b61018f8054431015614e1c5750565b6101375460005b818110614e365750506101905443019055565b80807f19156e9379c7bbbce8f646ce5ee30ba860b8f954717405f3d5859a6c1a21ae6060019361018e614e6c614d038383613c8b565b90614e8a614e82614e7c8561472d565b84614d16565b938492613c8b565b50555160409182519182526020820152a201614e23565b613c179061014e614eb38282546143fa565b905561022a54309033906001600160a01b03165b6040516323b872dd60e01b60208201526001600160a01b039283166024820152929091166044830152606480830193909352918152613c179161421b608483613ca7565b60ff61014b5460081c16614f1b57565b604051631ca61d7760e01b8152600490fd5b60a09081600180821b03918281511685526020810151602086015260408101516040860152826060820151166060860152826080820151166080860152015116910152565b91909160e06101008201938160018060a01b03918281511685528260208201511660208601526040810151604086015260608101516060860152608081015160808601528260a08201511660a08601528260c08201511660c0860152015116910152565b60c0908160018060a01b03918281511685526020810151602086015260408101516040860152606081015160608601528260808201511660808601528260a08201511660a0860152015116910152565b60405190615035608083613ca7565b60006060838281528260208201528260408201520152565b91908260a091031261070d5760405161506760a082613ca7565b60806150a5818395803585526020810135602086015261508960408201613b84565b604086015261509a60608201613b84565b606086015201613b84565b910152565b91906150b59061441b565b9190926150c283856145d0565b90808211156150cf575050565b6044925060405191637912120160e01b835260048301526024820152fd5b929093916000916000918296615101615026565b966001600160a01b0391859083168061530d575b508261012f54168360405193636eb1769f60e11b8552168060048501523060248501526020948585604481865afa9485156153025784956152d3575b50846151b2575b50505050508601511561516e575b505050929190565b90919250615186670de0b6b3a764000092839261452c565b048085529082156151aa576151a29204908160408601526143fa565b388080615166565b5090506151a2565b6151c0906101305416614643565b9290921561515857909192939b50848b6151fa85670de0b6b3a76400006151f46151ea8d8d61452c565b610143549061452c565b0461453f565b81830181815295908b156152c95750615225916152196060928d61453f565b918291015285516143fa565b809d5b10928315615254575b505050615241575b808080615158565b8192995052806060880152963880615239565b909192506024604051809481936370a0823160e01b835260048301525afa9081156152be57908b91849161528d575b5010388481615231565b809250858092503d83116152b7575b6152a68183613ca7565b8101031261090c578a905138615283565b503d61529c565b6040513d85823e3d90fd5b915050809d615228565b9094508581813d83116152fb575b6152eb8183613ca7565b810103126109e657519338615151565b503d6152e1565b6040513d86823e3d90fd5b9095506020836101c35416916024604051809481936364a731e960e01b835260048301525afa8015615385578690615352575b61534b91508461452c565b9438615115565b506020813d821161537d575b8161536b60209383613ca7565b81010312612a055761534b9051615340565b3d915061535e565b6040513d88823e3d90fd5b92613c179491929382511515600014615400575060406153fb926153f3670de0b6b3a76400006153c561013b5484519061452c565b046101316153d48282546143fa565b90556153ed60018060a01b03610146541691845161431f565b906141c9565b0151906141c9565b6141c9565b9060606153fb9361542260018060a01b03610146541660208301519086615426565b0151915b91908161543257505050565b61012f54613c1793906001600160a01b0316614ec7565b91908260c091031261070d5760405161546360c082613ca7565b60a06150a581839561547481613b84565b8552602081013560208601526040810135604086015261549660608201613b84565b60608601526154a760808201613b84565b608086015201613b84565b906154bf94939291614b9f565b60008112614c7c5790565b806154d361481d565b9190936154e06000614774565b9401938291615578575b019384600080821261557257505b84039181851161553a57505081811161551c57505061015555610156554361015755565b60449250604051916306da41e560e11b835260048301526024820152fd5b908085921161556057604491604051916306da41e560e11b835260048301526024820152fd5b604051630fb4fd3560e11b8152600490fd5b036154f8565b905081600003906154ea565b80910360e0811261070d578151926020830151926080604082015193605f19011261070d5760c0604051916155ba608084613ca7565b606081015183526080810151602084015260a081015160408401520151606082015290565b91908260e091031261070d576040516155f960e082613ca7565b60c06150a581839561560a81613b84565b855260208101356020860152604081013560408601526060810135606086015261563660808201613b84565b608086015261564760a08201613b84565b60a086015201613b84565b60405163a9059cbb60e01b60208201526001600160a01b0390921660248301526044820192909252613c179161421b826064810161420d565b60975460405163d994d6d560e01b815233600482015290602090829060249082906001600160a01b03165afa9081156143ee576000916156e0575b50156156ce57565b604051631dd1b1b560e21b8152600490fd5b906020823d8211615711575b816156f960209383613ca7565b810103126107b7575061570b90614220565b386156c6565b3d91506156ec565b60ff60ca5460081c1661572857565b60405163783bb6c960e11b8152600490fd5b610131548015613f3e5761013790815491600090615757846146c1565b9082905b8582106157c157505060005b848110615775575050505050565b61578d84614cea856157878587614407565b5161452c565b9061013891825468010000000000000000811015613cc95761269781600195866157b994018155613b56565b905501615767565b90926157fd6001916157d28661472d565b6157dc8787614407565b526144936157ea8786613c8b565b50546157f68888614407565b5190615805565b93019061575b565b90670de0b6b3a76400009182810292818404149015171561432c57613bd89161453f565b670de0b6b3a7640000111561583a57565b604051632a9ffab760e21b8152600490fdfea264697066735822122065dff425ec8e55a5430181878508506e1e432e6cf74da06e41898b91a0e20c9064736f6c63430008140033",
  "linkReferences": {},
  "deployedLinkReferences": {},
  "devdoc": {
    "details": "Only for upgradeability testing purposes. Extends MocCARC20Mock adding a new variable.",
    "events": {
      "AdminChanged(address,address)": {
        "details": "Emitted when the admin account has changed."
      },
      "BeaconUpgraded(address)": {
        "details": "Emitted when the beacon is changed."
      },
      "Initialized(uint8)": {
        "details": "Triggered when the contract has been initialized or reinitialized."
      },
      "Upgraded(address)": {
        "details": "Emitted when the implementation is upgraded."
      }
    },
    "kind": "dev",
    "methods": {
      "addPeggedToken((address,address,uint256,uint256,uint256,uint256,uint256))": {
        "details": "Note that the ema value, should consider `nextEmaCalculation`  This function is implemented in MocCoreExpansion but with this contract contexttpTokenAddress Pegged Token contract address to add      priceProviderAddress Pegged Token price provider contract address      tpCtarg Pegged Token target coverage [PREC]      tpMintFee additional fee pct applied on mint [PREC]      tpRedeemFee additional fee pct applied on redeem [PREC]      tpEma initial Pegged Token exponential moving average [PREC]      tpEmaSf Pegged Token smoothing factor [PREC]  Requirements: - the caller must have governance authorization. - tpTokenAddress must be a MocRC20, with mint, burn roles already settled  for this contract",
        "params": {
          "peggedTokenParams_": "params of Pegged Token to add"
        }
      },
      "calcCtargemaCA()": {
        "details": "qAC = nTP / pACtp      ctargemaCA = (ctargemaTP * qAC) / (qAC)",
        "returns": {
          "ctargemaCA": "[PREC]"
        }
      },
      "changeGovernor(address)": {
        "params": {
          "newGovernor_": "New governor address"
        }
      },
      "editPeggedToken((address,address,uint256,uint256,uint256,uint256,uint256))": {
        "details": "Note that the ema value, should consider `nextEmaCalculation`  This function is implemented in MocCoreExpansion but with this contract contexttpTokenAddress Pegged Token contract address to identify the token to edit      priceProviderAddress Pegged Token price provider contract address      tpCtarg Pegged Token target coverage [PREC]      tpMintFee additional fee pct applied on mint [PREC]      tpRedeemFee additional fee pct applied on redeem [PREC]      tpEma initial Pegged Token exponential moving average [PREC]      tpEmaSf Pegged Token smoothing factor [PREC]  Requirements: - the caller must have governance authorization. - the tpTokenAddress must exists",
        "params": {
          "peggedTokenParams_": "params of Pegged Token to add"
        }
      },
      "getCglb()": {
        "returns": {
          "cglob": "[PREC]"
        }
      },
      "getLckAC()": {
        "returns": {
          "lckAC": "[PREC]"
        }
      },
      "getLeverageTC()": {
        "returns": {
          "leverageTC": "[PREC]"
        }
      },
      "getPACtp(address)": {
        "params": {
          "tp_": "Pegged Token address"
        },
        "returns": {
          "_0": "price [PREC]"
        }
      },
      "getPTCac()": {
        "returns": {
          "pTCac": "[PREC]"
        }
      },
      "getTCAvailableToRedeem()": {
        "details": "because it is a view function we are not calculating the new ema,  since we are using the last ema calculation, this may differ a little from the real amount  of TC available to redeem. Consider it an approximation.",
        "returns": {
          "tcAvailableToRedeem": "[N]"
        }
      },
      "getTPAvailableToMint(address)": {
        "details": "because it is a view function we are not calculating the new ema,  since we are using the last ema calculation, this may differ a little from the real amount  of TP available to mint. Consider it an approximation.",
        "params": {
          "tp_": "Pegged Token address"
        },
        "returns": {
          "tpAvailableToMint": "[N]"
        }
      },
      "getTotalACavailable()": {
        "returns": {
          "totalACavailable": "[N]"
        }
      },
      "initialize((((address,address,address,address,address,address,uint256,uint256,uint256,uint256,uint256,uint256,uint256,uint256,uint256,uint256,uint256,uint256,uint256,uint256,address,uint256,uint256,address,address,uint256),address,address,address,uint256,address),address))": {
        "details": "governorAddress The address that will define when a change contract is authorized      pauserAddress The address that is authorized to pause this contract      acTokenAddress Collateral Asset Token contract address      tcTokenAddress Collateral Token contract address      mocFeeFlowAddress Moc Fee Flow contract address      mocAppreciationBeneficiaryAddress Moc appreciation beneficiary address      protThrld protected state threshold [PREC]      liqThrld liquidation coverage threshold [PREC]      feeRetainer pct retain on fees to be re-injected as Collateral, while paying fees with AC [PREC]      tcMintFee additional fee pct applied on mint Collateral Tokens operations [PREC]      tcRedeemFee additional fee pct applied on redeem Collateral Tokens operations [PREC]      successFee pct of the gain because Pegged Tokens devaluation that is transferred        in Collateral Asset to Moc Fee Flow during the settlement [PREC]      appreciationFactor pct of the gain because Pegged Tokens devaluation that is returned        in Pegged Tokens to appreciation beneficiary during the settlement [PREC]      bes number of blocks between settlements      tcInterestCollectorAddress TC interest collector address      tcInterestRate pct interest charged to TC holders on the total collateral in the protocol [PREC]      tcInterestPaymentBlockSpan amount of blocks to wait for next TC interest payment      maxAbsoluteOpProviderAddress max absolute operation provider address      maxOpDiffProviderAddress max operation difference provider address      decayBlockSpan number of blocks that have to elapse for the linear decay factor to be 0      emaCalculationBlockSpan amount of blocks to wait between Pegged ema calculation      mocVendors address for MocVendors contract      mocQueueAddress address for MocQueue contract",
        "params": {
          "initializeParams_": "contract initializer params"
        }
      },
      "isLiquidationReached()": {
        "returns": {
          "_0": "true if liquidation state is reached, false otherwise"
        }
      },
      "liqRedeemTP(address,address)": {
        "params": {
          "recipient_": "address who receives the AC",
          "tp_": "Pegged Token address"
        },
        "returns": {
          "qACRedeemed": "amount of AC sent to `recipient_`"
        }
      },
      "makeStoppable()": {
        "details": "Should be called through governance"
      },
      "makeUnstoppable()": {
        "details": "Should be called through governance"
      },
      "maxQACToMintTP()": {
        "returns": {
          "maxQAC": "minimum regarding maxAbsoluteOperation and maxOperationalDifference"
        }
      },
      "maxQACToRedeemTP()": {
        "returns": {
          "maxQAC": "minimum regarding maxAbsoluteOperation and maxOperationalDifference"
        }
      },
      "mintTC(uint256,uint256,address,address)": {
        "params": {
          "qACmax_": "maximum amount of Collateral Asset that can be spent",
          "qTC_": "amount of Collateral Token to mint",
          "recipient_": "address who receives the Collateral Token",
          "vendor_": "address who receives a markup, `0x0` if not using a vendor, `0x0` if not using a vendor"
        },
        "returns": {
          "operId": "Identifier to track the Operation lifecycle"
        }
      },
      "mintTCandTP(address,uint256,uint256,address,address)": {
        "params": {
          "qACmax_": "maximum amount of Collateral Asset that can be spent",
          "qTP_": "amount of Pegged Token to mint",
          "recipient_": "address who receives the Collateral Token and Pegged Token",
          "tp_": "Pegged Token address",
          "vendor_": "address who receives a markup, `0x0` if not using a vendor"
        },
        "returns": {
          "operId": "Identifier to track the Operation lifecycle"
        }
      },
      "mintTP(address,uint256,uint256,address,address)": {
        "params": {
          "qACmax_": "maximum amount of Collateral Asset that can be spent",
          "qTP_": "amount of Pegged Token to mint",
          "recipient_": "address who receives the Pegged Token",
          "tp_": "Pegged Token address to mint",
          "vendor_": "address who receives a markup, `0x0` if not using a vendor"
        },
        "returns": {
          "operId": "Identifier to track the Operation lifecycle"
        }
      },
      "pause()": {
        "details": "Should only be called by the pauser and when it is stoppable"
      },
      "proxiableUUID()": {
        "details": "Implementation of the ERC1822 {proxiableUUID} function. This returns the storage slot used by the implementation. It is used to validate the implementation's compatibility when performing an upgrade. IMPORTANT: A proxy pointing at a proxiable contract should not be considered proxiable itself, because this risks bricking a proxy that upgrades to it, by delegating to itself until out of gas. Thus it is critical that this function revert if invoked through a proxy. This is guaranteed by the `notDelegated` modifier."
      },
      "redeemTC(uint256,uint256,address,address)": {
        "params": {
          "qACmin_": "minimum amount of Collateral Asset that `recipient_` expects to receive",
          "qTC_": "amount of Collateral Token to redeem",
          "recipient_": "address who receives the Collateral Asset",
          "vendor_": "address who receives a markup, `0x0` if not using a vendor"
        },
        "returns": {
          "operId": "Identifier to track the Operation lifecycle"
        }
      },
      "redeemTCandTP(address,uint256,uint256,uint256,address,address)": {
        "params": {
          "qACmin_": "Minimum amount of Collateral Asset that `recipient_` expects to receive",
          "qTC_": "Maximum amount of Collateral Token to redeem",
          "qTP_": "Maximum amount of Pegged Token to redeem",
          "recipient_": "Address who receives the Collateral Asset",
          "tp_": "Pegged Token address",
          "vendor_": "address who receives a markup, `0x0` if not using a vendor"
        },
        "returns": {
          "operId": "Identifier to track the Operation lifecycle"
        }
      },
      "redeemTP(address,uint256,uint256,address,address)": {
        "params": {
          "qACmin_": "minimum amount of Collateral Asset that `recipient_` expects to receive",
          "qTP_": "amount of Pegged Token to redeem",
          "recipient_": "address who receives the Collateral Asset",
          "tp_": "Pegged Token address to redeem",
          "vendor_": "address who receives a markup, `0x0` if not using a vendor"
        },
        "returns": {
          "operId": "Identifier to track the Operation lifecycle"
        }
      },
      "refreshACBalance()": {
        "details": "Intended to be use as notification after an RC20 AC transfer to this contract"
      },
      "setAppreciationFactor(uint256)": {
        "details": "sets appreciation Factor value.",
        "params": {
          "appreciationFactor_": "pct of the gain because Pegged Tokens devaluation that is returned in Pegged Tokens to appreciation beneficiary during the settlement [PREC]"
        }
      },
      "setBes(uint256)": {
        "details": "bns is not automatically updated, you have to wait until next settlement to be made : bns = block.number + bes*",
        "params": {
          "bes_": "number of blocks between settlements"
        }
      },
      "setDecayBlockSpan(uint256)": {
        "details": "sets flux capacitor decay block span",
        "params": {
          "decayBlockSpan_": "flux capacitor decay block span"
        }
      },
      "setEmaCalculationBlockSpan(uint256)": {
        "details": "nextEmaCalculation is not automatically updated, you have to wait until next  EMA calculation to be made : nextEmaCalculation = block.number + emaCalculationBlockSpan*",
        "params": {
          "blockSpan_": "Defines how many blocks should pass between EMA calculations"
        }
      },
      "setFeeRetainer(uint256)": {
        "details": "sets the fee pct to be retainer on AC fees payments as AC re-injection.",
        "params": {
          "feeRetainer_": "pct retain on fees to be re-injected as Collateral, while paying fees with AC [PREC] 0% = 0; 1% = 10 ** 16; 100% = 10 ** 18"
        }
      },
      "setFeeTokenAddress(address)": {
        "details": "sets Fee Token contract address",
        "params": {
          "mocFeeTokenAddress_": "Fee Token new contract address"
        }
      },
      "setFeeTokenPct(uint256)": {
        "details": "sets the fee applied on the top of the operation`s fee when using Fee Token as fee payment method.",
        "params": {
          "feeTokenPct_": "pct applied on the top of the operation`s fee when using Fee Token  as fee payment method [PREC]  e.g. if tcMintFee = 1%, FeeTokenPct = 50% => qFeeToken = 0.5%  0% = 0; 1% = 10 ** 16; 100% = 10 ** 18"
        }
      },
      "setFeeTokenPriceProviderAddress(address)": {
        "details": "sets Fee Token price provider contract address",
        "params": {
          "mocFeeTokenPriceProviderAddress_": "Fee Token price provider new contract address"
        }
      },
      "setLiqEnabled(bool)": {
        "details": "enables and disables the liquidation mechanism.",
        "params": {
          "liqEnabled_": "is liquidation enabled"
        }
      },
      "setLiqThrld(uint256)": {
        "details": "sets the value of the liq threshold configuration param",
        "params": {
          "liqThrld_": "liquidation threshold"
        }
      },
      "setMaxAbsoluteOpProviderAddress(address)": {
        "details": "sets max absolute operation provider address",
        "params": {
          "maxAbsoluteOpProviderAddress_": "max absolute operation provider address"
        }
      },
      "setMaxOpDiffProviderAddress(address)": {
        "details": "sets max operation difference provider address",
        "params": {
          "maxOpDiffProviderAddress_": "max operation difference provider address"
        }
      },
      "setMintTCandTPFee(uint256)": {
        "details": "sets the fee charged when mint Collateral Token and Pegged Token in one operation.",
        "params": {
          "mintTCandTPFee_": "additional fee pct applied on mint Collateral Token and Pegged Token [PREC] 0% = 0; 1% = 10 ** 16; 100% = 10 ** 18"
        }
      },
      "setMocAppreciationBeneficiaryAddress(address)": {
        "details": "sets Moc Appreciation Beneficiary Address",
        "params": {
          "mocAppreciationBeneficiaryAddress_": "moc Appreciation Beneficiary new address"
        }
      },
      "setMocCoreExpansion(address)": {
        "details": "sets Moc Core Expansion contract address",
        "params": {
          "mocCoreExpansion_": "moc core expansion new contract address"
        }
      },
      "setMocFeeFlowAddress(address)": {
        "details": "sets Moc Fee Flow contract address",
        "params": {
          "mocFeeFlowAddress_": "moc Fee Flow new contract address"
        }
      },
      "setMocQueue(address)": {
        "details": "sets Moc Queue contract address",
        "params": {
          "mocQueueAddress_": "moc queue new contract address"
        }
      },
      "setMocVendors(address)": {
        "details": "sets Moc Vendors contract address",
        "params": {
          "mocVendors_": "moc Vendors new contract address"
        }
      },
      "setPauser(address)": {
        "details": "Should be called through governance",
        "params": {
          "newPauser_": "Address of the new pauser"
        }
      },
      "setProtThrld(uint256)": {
        "details": "sets the value of the protected threshold configuration param",
        "params": {
          "protThrld_": "coverage protected state threshold [PREC]"
        }
      },
      "setRedeemTCandTPFee(uint256)": {
        "details": "sets the fee charged when redeem Collateral Token and Pegged Token in one operation.",
        "params": {
          "redeemTCandTPFee_": "additional fee pct applied on redeem Collateral Token and Pegged Token [PREC] 0% = 0; 1% = 10 ** 16; 100% = 10 ** 18"
        }
      },
      "setSuccessFee(uint256)": {
        "details": "sets success Fee value.",
        "params": {
          "successFee_": "pct of the gain because Pegged Tokens devaluation that is transferred in Collateral Asset to Moc Fee Flow during the settlement [PREC]"
        }
      },
      "setSwapTCforTPFee(uint256)": {
        "details": "sets the fee charged when swap Collateral Token for a Pegged Token.",
        "params": {
          "swapTCforTPFee_": "additional fee pct applied on swap Collateral Token for a Pegged Token [PREC] 0% = 0; 1% = 10 ** 16; 100% = 10 ** 18"
        }
      },
      "setSwapTPforTCFee(uint256)": {
        "details": "sets the fee charged when swap a Pegged Token for Collateral Token.",
        "params": {
          "swapTPforTCFee_": "additional fee pct applied on swap a Pegged Token for Collateral Token [PREC] 0% = 0; 1% = 10 ** 16; 100% = 10 ** 18"
        }
      },
      "setSwapTPforTPFee(uint256)": {
        "details": "sets the fee charged when swap a Pegged Token for another Pegged Token.",
        "params": {
          "swapTPforTPFee_": "additional fee pct applied on swap a Pegged Token for another Pegged Token [PREC] 0% = 0; 1% = 10 ** 16; 100% = 10 ** 18"
        }
      },
      "setTCInterestCollectorAddress(address)": {
        "details": "sets TC interest collector address",
        "params": {
          "tcInterestCollectorAddress_": "TC interest collector address"
        }
      },
      "setTCInterestPaymentBlockSpan(uint256)": {
        "details": "sets TC interest payment block spannextTCInterestPayment is not automatically updated, you have to wait until next  interest payment to be made : nextTCInterestPayment = block.number + tcInterestPaymentBlockSpan",
        "params": {
          "tcInterestPaymentBlockSpan_": "amount of blocks to wait for next TC interest payment"
        }
      },
      "setTCInterestRate(uint256)": {
        "details": "sets TC interest rate",
        "params": {
          "tcInterestRate_": "pct interest charged to TC holders on the total collateral in the protocol [PREC]"
        }
      },
      "setTcMintFee(uint256)": {
        "details": "sets the fee charged on Token Collateral mint.",
        "params": {
          "tcMintFee_": "addition fee pct applied on Collateral Tokens mint [PREC] 0% = 0; 1% = 10 ** 16; 100% = 10 ** 18"
        }
      },
      "setTcRedeemFee(uint256)": {
        "details": "sets the fee charged on Token Collateral redeem.",
        "params": {
          "tcRedeemFee_": "addition fee pct applied on Collateral Tokens redeem [PREC] 0% = 0; 1% = 10 ** 16; 100% = 10 ** 18"
        }
      },
      "swapTCforTP(address,uint256,uint256,uint256,address,address)": {
        "params": {
          "qACmax_": "Maximum amount of Collateral Asset that can be spent in fees",
          "qTC_": "Amount of owned Collateral Token to swap",
          "qTPmin_": "Minimum amount of Pegged Token that `recipient_` expects to receive",
          "recipient_": "Address who receives the Pegged Token",
          "tp_": "Pegged Token address",
          "vendor_": "address who receives a markup, `0x0` if not using a vendor"
        },
        "returns": {
          "operId": "Identifier to track the Operation lifecycle"
        }
      },
      "swapTPforTC(address,uint256,uint256,uint256,address,address)": {
        "params": {
          "qACmax_": "maximum amount of Collateral Asset that can be spent in fees",
          "qTCmin_": "minimum amount of Collateral Token that `recipient_` expects to receive",
          "qTP_": "amount of owned Pegged Token to swap",
          "recipient_": "address who receives the Collateral Token",
          "tp_": "Pegged Token address",
          "vendor_": "address who receives a markup, `0x0` if not using a vendor"
        },
        "returns": {
          "operId": "Identifier to track the Operation lifecycle"
        }
      },
      "swapTPforTP(address,address,uint256,uint256,uint256,address,address)": {
        "params": {
          "qACmax_": "maximum amount of Collateral Asset that can be spent in fees",
          "qTP_": "amount of owned Pegged Token to swap",
          "qTPmin_": "minimum amount of target Pegged Token that `recipient_` expects to receive",
          "recipient_": "address who receives the target Pegged Token",
          "tpFrom_": "owned Pegged Token address",
          "tpTo_": "target Pegged Token address",
          "vendor_": "address who receives a markup, `0x0` if not using a vendor"
        },
        "returns": {
          "operId": "Identifier to track the Operation lifecycle"
        }
      },
      "tcHoldersInterestPayment()": {
        "details": "-   The amount is not differential, it's a snapshot of the moment it's executed  -   It does not check coverage"
      },
      "unlockACInPending(address,uint256)": {
        "details": "this function must be overridden by the AC implementation",
        "params": {
          "owner_": "funds owner, address to be returned to",
          "qACToUnlock_": "AC amount to be unlocked"
        }
      },
      "unlockTCInPending(address,uint256)": {
        "params": {
          "owner_": "funds owner, address to be returned to",
          "qTCToUnlock_": "TC amount to be unlocked"
        }
      },
      "unlockTPInPending(address,address,uint256)": {
        "params": {
          "owner_": "funds owner, address to be returned to",
          "qTPToUnlock_": "TP amount to be unlocked",
          "tpToken_": "TP to be unlocked"
        }
      },
      "unpause()": {
        "details": "Should only be called by the pauser and when it is stoppable"
      },
      "updateEmas()": {
        "details": "All price provider prices must be available, fails if not"
      },
      "upgradeTo(address)": {
        "custom:oz-upgrades-unsafe-allow-reachable": "delegatecall",
        "details": "Upgrade the implementation of the proxy to `newImplementation`. Calls {_authorizeUpgrade}. Emits an {Upgraded} event."
      },
      "upgradeToAndCall(address,bytes)": {
        "custom:oz-upgrades-unsafe-allow-reachable": "delegatecall",
        "details": "Upgrade the implementation of the proxy to `newImplementation`, and subsequently execute the function call encoded in `data`. Calls {_authorizeUpgrade}. Emits an {Upgraded} event."
      }
    },
    "title": "MocCARC20WithExpansionMock",
    "version": 1
  },
  "evm": {
    "bytecode": {
      "linkReferences": {},
      "opcodes": "PUSH1 0xA0 DUP1 PUSH1 0x40 MSTORE CALLVALUE PUSH3 0xE1 JUMPI ADDRESS PUSH1 0x80 MSTORE PUSH1 0x0 SLOAD SWAP1 PUSH1 0xFF DUP3 PUSH1 0x8 SHR AND PUSH3 0x8F JUMPI POP PUSH1 0xFF DUP1 DUP3 AND SUB PUSH3 0x53 JUMPI JUMPDEST PUSH1 0x40 MLOAD PUSH2 0x5882 SWAP1 DUP2 PUSH3 0xE7 DUP3 CODECOPY PUSH1 0x80 MLOAD DUP2 DUP2 DUP2 PUSH2 0x2833 ADD MSTORE DUP2 DUP2 PUSH2 0x29A2 ADD MSTORE PUSH2 0x2F2B ADD MSTORE RETURN JUMPDEST PUSH1 0xFF SWAP1 DUP2 NOT AND OR PUSH1 0x0 SSTORE PUSH32 0x7F26B83FF96E1F2B6A682F133852F6798A09C465DA95921460CEFB3847402498 PUSH1 0x20 PUSH1 0x40 MLOAD PUSH1 0xFF DUP2 MSTORE LOG1 CODESIZE PUSH3 0x2C JUMP JUMPDEST PUSH3 0x461BCD PUSH1 0xE5 SHL DUP2 MSTORE PUSH1 0x20 PUSH1 0x4 DUP3 ADD MSTORE PUSH1 0x27 PUSH1 0x24 DUP3 ADD MSTORE PUSH32 0x496E697469616C697A61626C653A20636F6E747261637420697320696E697469 PUSH1 0x44 DUP3 ADD MSTORE PUSH7 0x616C697A696E67 PUSH1 0xC8 SHL PUSH1 0x64 DUP3 ADD MSTORE PUSH1 0x84 SWAP1 REVERT JUMPDEST PUSH1 0x0 DUP1 REVERT INVALID PUSH1 0x40 PUSH1 0x80 DUP2 MSTORE PUSH1 0x4 CALLDATASIZE LT ISZERO PUSH2 0x13 JUMPI PUSH1 0x0 DUP1 REVERT JUMPDEST PUSH1 0x0 SWAP1 PUSH1 0xE0 DUP3 CALLDATALOAD DUP2 SHR SWAP1 DUP2 PUSH4 0x1DDE6EF EQ PUSH2 0x3B32 JUMPI DUP2 PUSH4 0x1F1B684 EQ PUSH2 0x3AEB JUMPI DUP2 PUSH4 0x579188F EQ PUSH2 0x3A52 JUMPI DUP2 PUSH4 0x7164879 EQ PUSH2 0x39F2 JUMPI DUP2 PUSH4 0x73763B9 EQ PUSH2 0x39CE JUMPI DUP2 PUSH4 0xC340A24 EQ PUSH2 0x39A5 JUMPI DUP2 PUSH4 0xC36D897 EQ PUSH2 0x3985 JUMPI DUP2 PUSH4 0xD6AC463 EQ PUSH2 0x393F JUMPI DUP2 PUSH4 0xDB49656 EQ PUSH2 0x391F JUMPI DUP2 PUSH4 0xE0A8FD2 EQ PUSH2 0x38FB JUMPI DUP2 PUSH4 0xF1E5E2B EQ PUSH2 0x38B5 JUMPI DUP2 PUSH4 0x13ED7BA5 EQ PUSH2 0x388B JUMPI DUP2 PUSH4 0x14B4906D EQ PUSH2 0x37DA JUMPI DUP2 PUSH4 0x1867E2F5 EQ PUSH2 0x37BA JUMPI DUP2 PUSH4 0x1FB0DDA0 EQ PUSH2 0x3791 JUMPI DUP2 PUSH4 0x1FE6A7AD EQ PUSH2 0x3757 JUMPI DUP2 PUSH4 0x2069F753 EQ PUSH2 0x3733 JUMPI DUP2 PUSH4 0x235E81CF EQ PUSH2 0x3541 JUMPI DUP2 PUSH4 0x23B98CDE EQ PUSH2 0x3519 JUMPI DUP2 PUSH4 0x24FFABA3 EQ PUSH2 0x34DC JUMPI DUP2 PUSH4 0x25BC6C41 EQ PUSH2 0x34B2 JUMPI DUP2 PUSH4 0x27EAB2A1 EQ PUSH2 0x346C JUMPI DUP2 PUSH4 0x2A20D57D EQ PUSH2 0x344C JUMPI DUP2 PUSH4 0x2C43BD3B EQ PUSH2 0x3428 JUMPI DUP2 PUSH4 0x2D88AF4A EQ PUSH2 0x33D1 JUMPI DUP2 PUSH4 0x2DED50F0 EQ PUSH2 0x33B1 JUMPI DUP2 PUSH4 0x2ECCB11C EQ PUSH2 0x32D5 JUMPI DUP2 PUSH4 0x2ED35CA1 EQ PUSH2 0x31AA JUMPI DUP2 PUSH4 0x333431FD EQ PUSH2 0x318A JUMPI DUP2 PUSH4 0x33421C38 EQ PUSH2 0x308F JUMPI DUP2 PUSH4 0x34D70FFA EQ PUSH2 0x2F90 JUMPI DUP2 PUSH4 0x3659CFE6 EQ PUSH2 0x2EF6 JUMPI DUP2 PUSH4 0x3915EDCB EQ PUSH2 0x2EC5 JUMPI DUP2 PUSH4 0x391BF6CF EQ PUSH2 0x2DAD JUMPI DUP2 PUSH4 0x3BC4AC0A EQ PUSH2 0x2D89 JUMPI DUP2 PUSH4 0x3CFB09EF EQ PUSH2 0x2D43 JUMPI DUP2 PUSH4 0x3F4BA83A EQ PUSH2 0x2C37 JUMPI DUP2 PUSH4 0x4017936A EQ PUSH2 0x2C06 JUMPI DUP2 PUSH4 0x407F0E34 EQ PUSH2 0x2BE6 JUMPI DUP2 PUSH4 0x47DDA6AF EQ PUSH2 0x2B3C JUMPI DUP2 PUSH4 0x4AF3A6FC EQ PUSH2 0x2ABD JUMPI DUP2 PUSH4 0x4B746001 EQ PUSH2 0x2A73 JUMPI DUP2 PUSH4 0x4D977E78 EQ PUSH2 0x2A53 JUMPI DUP2 PUSH4 0x4E1F907A EQ PUSH2 0x2A29 JUMPI DUP2 PUSH4 0x4F0F27EE EQ PUSH2 0x2A09 JUMPI DUP2 PUSH4 0x4F1EF286 EQ PUSH2 0x2919 JUMPI DUP2 PUSH4 0x5210570C EQ PUSH2 0x28F3 JUMPI DUP2 PUSH4 0x52D1902D EQ PUSH2 0x281E JUMPI DUP2 PUSH4 0x533A4BEA EQ PUSH2 0x27ED JUMPI DUP2 PUSH4 0x53B16D17 EQ PUSH2 0x27A8 JUMPI DUP2 PUSH4 0x543AEB48 EQ PUSH2 0x2784 JUMPI DUP2 PUSH4 0x57271F4D EQ PUSH2 0x2754 JUMPI DUP2 PUSH4 0x5860EE63 EQ PUSH2 0x2734 JUMPI DUP2 PUSH4 0x58F32DE9 EQ PUSH2 0x26EC JUMPI DUP2 PUSH4 0x5C616A73 EQ PUSH2 0x24F1 JUMPI DUP2 PUSH4 0x5C975ABB EQ PUSH2 0x24CA JUMPI DUP2 PUSH4 0x5CFBE578 EQ PUSH2 0x24AA JUMPI DUP2 PUSH4 0x5E2A6065 EQ PUSH2 0x2490 JUMPI DUP2 PUSH4 0x60009E0B EQ PUSH2 0x2466 JUMPI DUP2 PUSH4 0x60A01DFA EQ PUSH2 0x1F19 JUMPI DUP2 PUSH4 0x60EF07BF EQ PUSH2 0x1E72 JUMPI DUP2 PUSH4 0x647846A5 EQ PUSH2 0x1E48 JUMPI DUP2 PUSH4 0x64EC230A EQ PUSH2 0x1E24 JUMPI DUP2 PUSH4 0x662013F4 EQ PUSH2 0x1E07 JUMPI DUP2 PUSH4 0x68274357 EQ PUSH2 0x1DDE JUMPI DUP2 PUSH4 0x6B5488DF EQ PUSH2 0x1DBE JUMPI DUP2 PUSH4 0x6F30471F EQ PUSH2 0x1D9E JUMPI DUP2 PUSH4 0x70713468 EQ PUSH2 0x1D7A JUMPI DUP2 PUSH4 0x735D3960 EQ PUSH2 0x1D34 JUMPI DUP2 PUSH4 0x73E28AF9 EQ PUSH2 0x1D10 JUMPI DUP2 PUSH4 0x7554FFFD EQ PUSH2 0x1CF0 JUMPI DUP2 PUSH4 0x76228055 EQ PUSH2 0x1CD0 JUMPI DUP2 PUSH4 0x7750BA0C EQ PUSH2 0x1CAC JUMPI DUP2 PUSH4 0x797709CA EQ PUSH2 0x1BBD JUMPI DUP2 PUSH4 0x79F9A91C EQ PUSH2 0x1B9D JUMPI DUP2 PUSH4 0x7A193C31 EQ PUSH2 0x1B7D JUMPI DUP2 PUSH4 0x7A4FF1D9 EQ PUSH2 0x1B59 JUMPI DUP2 PUSH4 0x7A727FE8 EQ PUSH2 0x1B39 JUMPI DUP2 PUSH4 0x7AF5758C EQ PUSH2 0x1B15 JUMPI DUP2 PUSH4 0x7CBA2383 EQ PUSH2 0x1AF1 JUMPI DUP2 PUSH4 0x7D8E0314 EQ PUSH2 0x1AB2 JUMPI DUP2 PUSH4 0x7F01C715 EQ PUSH2 0x1A88 JUMPI DUP2 PUSH4 0x7F13B998 EQ PUSH2 0x1A52 JUMPI DUP2 PUSH4 0x7F4A4FE0 EQ PUSH2 0x1A32 JUMPI DUP2 PUSH4 0x826FCD58 EQ PUSH2 0x1A0F JUMPI DUP2 PUSH4 0x8456CB59 EQ PUSH2 0x197A JUMPI DUP2 PUSH4 0x85BF9593 EQ PUSH2 0x1934 JUMPI DUP2 PUSH4 0x883D21CB EQ PUSH2 0x1873 JUMPI DUP2 PUSH4 0x8CFA4241 EQ PUSH2 0x1853 JUMPI DUP2 PUSH4 0x8D7A72F3 EQ PUSH2 0x1833 JUMPI DUP2 PUSH4 0x8E2BDB86 EQ PUSH2 0x1809 JUMPI DUP2 PUSH4 0x8F1A383A EQ PUSH2 0x17E1 JUMPI DUP2 PUSH4 0x9853C35A EQ PUSH2 0x17B7 JUMPI DUP2 PUSH4 0x9AD6659D EQ PUSH2 0x1781 JUMPI DUP2 PUSH4 0x9CABFC00 EQ PUSH2 0x1735 JUMPI DUP2 PUSH4 0x9FD0506D EQ PUSH2 0x1708 JUMPI DUP2 PUSH4 0xA8E9AC30 EQ PUSH2 0x16E5 JUMPI DUP2 PUSH4 0xAD4E666D EQ PUSH2 0x1505 JUMPI DUP2 PUSH4 0xAEA038DC EQ PUSH2 0x14E5 JUMPI DUP2 PUSH4 0xB03E11A0 EQ PUSH2 0x13DB JUMPI DUP2 PUSH4 0xB4434C32 EQ PUSH2 0x121D JUMPI DUP2 PUSH4 0xB5E9EA8C EQ PUSH2 0x11F3 JUMPI DUP2 PUSH4 0xB9FA6413 EQ PUSH2 0x11D3 JUMPI DUP2 PUSH4 0xBB4872DE EQ PUSH2 0x11AF JUMPI DUP2 PUSH4 0xBC4E55B2 EQ PUSH2 0x10E1 JUMPI DUP2 PUSH4 0xBECACA6B EQ PUSH2 0x10BD JUMPI DUP2 PUSH4 0xBFE42621 EQ PUSH2 0xEC2 JUMPI DUP2 PUSH4 0xC00F538D EQ PUSH2 0xE9E JUMPI DUP2 PUSH4 0xC039CC69 EQ PUSH2 0xE5C JUMPI DUP2 PUSH4 0xC84353C9 EQ PUSH2 0xE38 JUMPI DUP2 PUSH4 0xCF351C1D EQ PUSH2 0xDF2 JUMPI DUP2 PUSH4 0xD1A0FAA0 EQ PUSH2 0xDD9 JUMPI DUP2 PUSH4 0xD2DC25A5 EQ PUSH2 0xD54 JUMPI DUP2 PUSH4 0xD6AF11DA EQ PUSH2 0xD18 JUMPI DUP2 PUSH4 0xD87AAB6F EQ PUSH2 0xCF8 JUMPI DUP2 PUSH4 0xD8C69AEC EQ PUSH2 0xBE2 JUMPI DUP2 PUSH4 0xD8DB6F5A EQ PUSH2 0xB9C JUMPI DUP2 PUSH4 0xDB796072 EQ PUSH2 0xB5F JUMPI DUP2 PUSH4 0xDDB6D190 EQ PUSH2 0xB22 JUMPI DUP2 PUSH4 0xDE8D520A EQ PUSH2 0xAEF JUMPI DUP2 PUSH4 0xE23C135C EQ PUSH2 0xAD6 JUMPI DUP2 PUSH4 0xE2C5E990 EQ PUSH2 0xA75 JUMPI DUP2 PUSH4 0xE4C0AAF4 EQ PUSH2 0xA30 JUMPI DUP2 PUSH4 0xE6A683E0 EQ PUSH2 0x9EA JUMPI DUP2 PUSH4 0xE6B1627C EQ PUSH2 0x9A6 JUMPI DUP2 PUSH4 0xE7C25978 EQ PUSH2 0x981 JUMPI DUP2 PUSH4 0xE8859A15 EQ PUSH2 0x964 JUMPI DUP2 PUSH4 0xEE1F438F EQ PUSH2 0x93A JUMPI DUP2 PUSH4 0xF13F4054 EQ PUSH2 0x910 JUMPI DUP2 PUSH4 0xF26114AA EQ PUSH2 0x8AB JUMPI POP DUP1 PUSH4 0xF2808778 EQ PUSH2 0x887 JUMPI DUP1 PUSH4 0xF30B5614 EQ PUSH2 0x868 JUMPI DUP1 PUSH4 0xF375CFBA EQ PUSH2 0x849 JUMPI DUP1 PUSH4 0xF88B1434 EQ PUSH2 0x7D9 JUMPI DUP1 PUSH4 0xFA6E83BD EQ PUSH2 0x7BA JUMPI DUP1 PUSH4 0xFADDA424 EQ PUSH2 0x743 JUMPI DUP1 PUSH4 0xFDA70F8B EQ PUSH2 0x724 JUMPI DUP1 PUSH4 0xFDCDC11E EQ PUSH2 0x63D JUMPI PUSH4 0xFE6B92C1 EQ PUSH2 0x61B JUMPI PUSH1 0x0 DUP1 REVERT JUMPDEST CALLVALUE PUSH2 0x639 JUMPI DUP2 PUSH1 0x3 NOT CALLDATASIZE ADD SLT PUSH2 0x639 JUMPI PUSH1 0x20 SWAP1 PUSH2 0x135 SLOAD SWAP1 MLOAD SWAP1 DUP2 MSTORE RETURN JUMPDEST POP DUP1 REVERT JUMPDEST PUSH2 0x6C2 DUP4 DUP4 PUSH1 0xC4 PUSH2 0x64F CALLDATASIZE PUSH1 0x4 PUSH2 0x3C19 JUMP JUMPDEST PUSH2 0x65C SWAP9 SWAP3 SWAP6 SWAP2 SWAP9 PUSH2 0x4F0B JUMP JUMPDEST PUSH2 0x664 PUSH2 0x5719 JUMP JUMPDEST DUP7 MLOAD SWAP5 PUSH2 0x672 PUSH1 0xC0 DUP8 PUSH2 0x3CA7 JUMP JUMPDEST PUSH1 0x1 DUP1 PUSH1 0xA0 SHL SUB SWAP2 DUP3 DUP1 SWAP3 AND DUP8 MSTORE DUP2 PUSH1 0x20 SWAP12 DUP13 SWAP8 DUP9 DUP11 ADD MSTORE DUP10 DUP12 DUP11 ADD MSTORE CALLER PUSH1 0x60 DUP11 ADD MSTORE AND PUSH1 0x80 DUP9 ADD MSTORE AND PUSH1 0xA0 DUP7 ADD MSTORE PUSH2 0x14F SLOAD AND SWAP4 DUP7 MLOAD SWAP5 DUP6 SWAP4 DUP5 SWAP3 PUSH4 0x23EC24B5 PUSH1 0xE1 SHL DUP5 MSTORE PUSH1 0x4 DUP5 ADD SWAP1 PUSH2 0x4F2D JUMP JUMPDEST CALLVALUE SWAP1 GAS CALL SWAP4 DUP5 ISZERO PUSH2 0x719 JUMPI SWAP4 PUSH2 0x6E3 JUMPI JUMPDEST POP PUSH2 0x6DD SWAP1 PUSH2 0x4EA1 JUMP JUMPDEST MLOAD SWAP1 DUP2 MSTORE RETURN JUMPDEST SWAP1 SWAP3 POP DUP4 DUP2 DUP2 RETURNDATASIZE DUP4 GT PUSH2 0x712 JUMPI JUMPDEST PUSH2 0x6FB DUP2 DUP4 PUSH2 0x3CA7 JUMP JUMPDEST DUP2 ADD SUB SLT PUSH2 0x70D JUMPI MLOAD SWAP2 PUSH2 0x6DD PUSH2 0x6D3 JUMP JUMPDEST PUSH1 0x0 DUP1 REVERT JUMPDEST POP RETURNDATASIZE PUSH2 0x6F1 JUMP JUMPDEST DUP4 MLOAD SWAP1 RETURNDATASIZE SWAP1 DUP3 RETURNDATACOPY RETURNDATASIZE SWAP1 REVERT JUMPDEST POP CALLVALUE PUSH2 0x639 JUMPI DUP2 PUSH1 0x3 NOT CALLDATASIZE ADD SLT PUSH2 0x639 JUMPI PUSH1 0x20 SWAP1 PUSH2 0x13C SLOAD SWAP1 MLOAD SWAP1 DUP2 MSTORE RETURN JUMPDEST POP SWAP1 CALLVALUE PUSH2 0x7B7 JUMPI PUSH1 0x20 CALLDATASIZE PUSH1 0x3 NOT ADD SLT PUSH2 0x7B7 JUMPI POP PUSH1 0x1 PUSH1 0x1 PUSH1 0xA0 SHL SUB PUSH1 0x4 CALLDATALOAD DUP2 DUP2 AND DUP2 SUB PUSH2 0x70D JUMPI PUSH2 0x781 PUSH2 0x779 PUSH1 0x1 SWAP3 PUSH2 0x45EE JUMP JUMPDEST PUSH2 0x137 PUSH2 0x3C8B JUMP JUMPDEST POP ADD SLOAD AND PUSH2 0x78E DUP2 PUSH2 0x4643 JUMP JUMPDEST SWAP2 SWAP1 SWAP2 ISZERO PUSH2 0x7A0 JUMPI POP PUSH1 0x20 SWAP2 MLOAD SWAP1 DUP2 MSTORE RETURN JUMPDEST PUSH1 0x24 SWAP1 DUP4 MLOAD SWAP1 PUSH4 0x7F6E4DB9 PUSH1 0xE0 SHL DUP3 MSTORE PUSH1 0x4 DUP3 ADD MSTORE REVERT JUMPDEST DUP1 REVERT JUMPDEST POP CALLVALUE PUSH2 0x639 JUMPI DUP2 PUSH1 0x3 NOT CALLDATASIZE ADD SLT PUSH2 0x639 JUMPI PUSH1 0x20 SWAP1 PUSH2 0x13A SLOAD SWAP1 MLOAD SWAP1 DUP2 MSTORE RETURN JUMPDEST POP SWAP1 CALLVALUE PUSH2 0x7B7 JUMPI PUSH1 0x20 CALLDATASIZE PUSH1 0x3 NOT ADD SLT PUSH2 0x7B7 JUMPI POP PUSH1 0x4 CALLDATALOAD SWAP1 PUSH1 0x1 PUSH1 0x1 PUSH1 0xA0 SHL SUB DUP3 AND DUP3 SUB PUSH2 0x70D JUMPI PUSH2 0x842 PUSH2 0x834 PUSH1 0x20 SWAP4 PUSH2 0x81D PUSH2 0x815 PUSH2 0x4D4A JUMP JUMPDEST SWAP2 SWAP1 SWAP3 PUSH2 0x45EE JUMP JUMPDEST SWAP2 PUSH2 0x83C PUSH2 0x82B DUP5 DUP5 PUSH2 0x4407 JUMP JUMPDEST MLOAD SWAP5 DUP6 SWAP4 PUSH2 0x441B JUMP JUMPDEST SWAP6 SWAP1 SWAP5 PUSH2 0x4CA2 JUMP JUMPDEST SWAP1 PUSH2 0x4B9F JUMP JUMPDEST SWAP1 MLOAD SWAP1 DUP2 MSTORE RETURN JUMPDEST POP CALLVALUE PUSH2 0x639 JUMPI DUP2 PUSH1 0x3 NOT CALLDATASIZE ADD SLT PUSH2 0x639 JUMPI PUSH1 0x20 SWAP1 PUSH2 0x141 SLOAD SWAP1 MLOAD SWAP1 DUP2 MSTORE RETURN JUMPDEST POP CALLVALUE PUSH2 0x639 JUMPI DUP2 PUSH1 0x3 NOT CALLDATASIZE ADD SLT PUSH2 0x639 JUMPI PUSH1 0x20 SWAP1 PUSH2 0x131 SLOAD SWAP1 MLOAD SWAP1 DUP2 MSTORE RETURN JUMPDEST DUP3 CALLVALUE PUSH2 0x7B7 JUMPI PUSH1 0x20 CALLDATASIZE PUSH1 0x3 NOT ADD SLT PUSH2 0x7B7 JUMPI PUSH2 0x8A1 PUSH2 0x568B JUMP JUMPDEST PUSH1 0x4 CALLDATALOAD PUSH2 0x13C SSTORE DUP1 RETURN JUMPDEST SWAP1 POP CALLVALUE PUSH2 0x90C JUMPI CALLDATASIZE PUSH1 0x3 NOT ADD SLT PUSH2 0x639 JUMPI PUSH2 0x908 SWAP1 PUSH2 0x8C8 PUSH2 0x568B JUMP JUMPDEST MLOAD PUSH4 0x79308A55 PUSH1 0xE1 SHL PUSH1 0x20 DUP3 ADD MSTORE PUSH2 0x8F6 DUP2 PUSH2 0x8E8 PUSH1 0x4 PUSH1 0x24 DUP4 ADD PUSH2 0x4AAB JUMP JUMPDEST SUB PUSH1 0x1F NOT DUP2 ADD DUP4 MSTORE DUP3 PUSH2 0x3CA7 JUMP JUMPDEST PUSH2 0x1F7 SLOAD PUSH1 0x1 PUSH1 0x1 PUSH1 0xA0 SHL SUB AND PUSH2 0x4978 JUMP JUMPDEST POP DUP1 RETURN JUMPDEST DUP3 DUP1 REVERT JUMPDEST POP POP CALLVALUE PUSH2 0x639 JUMPI DUP2 PUSH1 0x3 NOT CALLDATASIZE ADD SLT PUSH2 0x639 JUMPI PUSH2 0x130 SLOAD SWAP1 MLOAD PUSH1 0x1 PUSH1 0x1 PUSH1 0xA0 SHL SUB SWAP1 SWAP2 AND DUP2 MSTORE PUSH1 0x20 SWAP1 RETURN JUMPDEST POP POP CALLVALUE PUSH2 0x639 JUMPI DUP2 PUSH1 0x3 NOT CALLDATASIZE ADD SLT PUSH2 0x639 JUMPI PUSH2 0x152 SLOAD SWAP1 MLOAD PUSH1 0x1 PUSH1 0x1 PUSH1 0xA0 SHL SUB SWAP1 SWAP2 AND DUP2 MSTORE PUSH1 0x20 SWAP1 RETURN JUMPDEST POP POP CALLVALUE PUSH2 0x639 JUMPI DUP2 PUSH1 0x3 NOT CALLDATASIZE ADD SLT PUSH2 0x639 JUMPI PUSH1 0x20 SWAP1 PUSH2 0x842 PUSH2 0x4C65 JUMP JUMPDEST POP POP CALLVALUE PUSH2 0x639 JUMPI DUP2 PUSH1 0x3 NOT CALLDATASIZE ADD SLT PUSH2 0x639 JUMPI PUSH1 0x20 SWAP1 PUSH1 0xFF PUSH2 0x14B SLOAD AND SWAP1 MLOAD SWAP1 ISZERO ISZERO DUP2 MSTORE RETURN JUMPDEST POP POP CALLVALUE PUSH2 0x639 JUMPI PUSH1 0x20 CALLDATASIZE PUSH1 0x3 NOT ADD SLT PUSH2 0x639 JUMPI PUSH1 0x4 CALLDATALOAD PUSH2 0x18E DUP1 SLOAD DUP3 LT ISZERO PUSH2 0x9E6 JUMPI SWAP1 PUSH2 0x9D2 SWAP2 PUSH2 0x3C8B JUMP JUMPDEST POP PUSH1 0x1 DUP2 SLOAD SWAP2 ADD SLOAD DUP3 MLOAD SWAP2 DUP3 MSTORE PUSH1 0x20 DUP3 ADD MSTORE RETURN JUMPDEST DUP4 DUP1 REVERT JUMPDEST DUP4 CALLVALUE PUSH2 0x7B7 JUMPI PUSH1 0x20 CALLDATASIZE PUSH1 0x3 NOT ADD SLT PUSH2 0x7B7 JUMPI PUSH1 0x4 CALLDATALOAD PUSH1 0x1 PUSH1 0x1 PUSH1 0xA0 SHL SUB DUP2 AND SWAP1 DUP2 SWAP1 SUB PUSH2 0x70D JUMPI PUSH2 0xA19 PUSH2 0x568B JUMP JUMPDEST PUSH2 0x1F7 DUP1 SLOAD PUSH1 0x1 PUSH1 0x1 PUSH1 0xA0 SHL SUB NOT AND SWAP1 SWAP2 OR SWAP1 SSTORE DUP1 RETURN JUMPDEST DUP4 CALLVALUE PUSH2 0x7B7 JUMPI PUSH1 0x20 CALLDATASIZE PUSH1 0x3 NOT ADD SLT PUSH2 0x7B7 JUMPI PUSH1 0x4 CALLDATALOAD PUSH1 0x1 PUSH1 0x1 PUSH1 0xA0 SHL SUB DUP2 AND SWAP1 DUP2 SWAP1 SUB PUSH2 0x639 JUMPI PUSH2 0xA5F PUSH2 0x568B JUMP JUMPDEST PUSH1 0x1 PUSH1 0x1 PUSH1 0x60 SHL SUB PUSH1 0xA0 SHL PUSH1 0x97 SLOAD AND OR PUSH1 0x97 SSTORE DUP1 RETURN JUMPDEST DUP3 DUP5 CALLVALUE PUSH2 0x7B7 JUMPI PUSH1 0x60 CALLDATASIZE PUSH1 0x3 NOT ADD SLT PUSH2 0x7B7 JUMPI PUSH1 0x1 PUSH1 0x1 PUSH1 0xA0 SHL SUB PUSH1 0x4 CALLDATALOAD DUP2 DUP2 AND DUP2 SUB PUSH2 0x70D JUMPI PUSH1 0x24 CALLDATALOAD SWAP2 DUP1 DUP4 AND DUP4 SUB PUSH2 0x9E6 JUMPI PUSH2 0x14F SLOAD AND CALLER SUB PUSH2 0xAC5 JUMPI SWAP1 PUSH2 0xAC2 SWAP2 PUSH1 0x44 CALLDATALOAD SWAP2 PUSH2 0x5652 JUMP JUMPDEST DUP1 RETURN JUMPDEST DUP4 MLOAD PUSH4 0x19748477 PUSH1 0xE0 SHL DUP2 MSTORE PUSH1 0x4 SWAP1 REVERT JUMPDEST DUP4 CALLVALUE PUSH2 0x7B7 JUMPI DUP1 PUSH1 0x3 NOT CALLDATASIZE ADD SLT PUSH2 0x7B7 JUMPI PUSH2 0xAC2 PUSH2 0x4342 JUMP JUMPDEST POP POP CALLVALUE PUSH2 0x639 JUMPI DUP2 PUSH1 0x3 NOT CALLDATASIZE ADD SLT PUSH2 0x639 JUMPI PUSH1 0x20 SWAP1 PUSH2 0x842 PUSH2 0xB17 PUSH2 0xB12 PUSH2 0x46F3 JUMP JUMPDEST PUSH2 0x441B JUMP JUMPDEST SWAP1 POP PUSH2 0x131 SLOAD PUSH2 0x431F JUMP JUMPDEST POP POP CALLVALUE PUSH2 0x639 JUMPI PUSH1 0x20 CALLDATASIZE PUSH1 0x3 NOT ADD SLT PUSH2 0x639 JUMPI PUSH1 0x4 CALLDATALOAD PUSH1 0x1 PUSH1 0x1 PUSH1 0xA0 SHL SUB DUP2 AND SWAP1 DUP2 SWAP1 SUB PUSH2 0x70D JUMPI DUP3 DUP3 SWAP2 PUSH1 0x20 SWAP5 MSTORE PUSH2 0x145 DUP5 MSTORE KECCAK256 SLOAD SWAP1 MLOAD SWAP1 DUP2 MSTORE RETURN JUMPDEST SWAP1 POP CALLVALUE PUSH2 0x90C JUMPI CALLDATASIZE PUSH1 0x3 NOT ADD SLT PUSH2 0x639 JUMPI PUSH2 0x908 SWAP1 PUSH2 0xB7C PUSH2 0x568B JUMP JUMPDEST MLOAD PUSH4 0x6DBCB039 PUSH1 0xE1 SHL PUSH1 0x20 DUP3 ADD MSTORE PUSH2 0x8F6 DUP2 PUSH2 0x8E8 PUSH1 0x4 PUSH1 0x24 DUP4 ADD PUSH2 0x4AAB JUMP JUMPDEST DUP4 CALLVALUE PUSH2 0x7B7 JUMPI PUSH1 0x20 CALLDATASIZE PUSH1 0x3 NOT ADD SLT PUSH2 0x7B7 JUMPI PUSH1 0x4 CALLDATALOAD PUSH1 0x1 PUSH1 0x1 PUSH1 0xA0 SHL SUB DUP2 AND SWAP1 DUP2 SWAP1 SUB PUSH2 0x70D JUMPI PUSH2 0xBCB PUSH2 0x568B JUMP JUMPDEST PUSH2 0x152 DUP1 SLOAD PUSH1 0x1 PUSH1 0x1 PUSH1 0xA0 SHL SUB NOT AND SWAP1 SWAP2 OR SWAP1 SSTORE DUP1 RETURN JUMPDEST DUP4 SWAP2 POP CALLVALUE PUSH2 0x639 JUMPI CALLDATASIZE PUSH1 0x3 NOT ADD SLT PUSH2 0x7B7 JUMPI POP PUSH2 0xBFD PUSH2 0x5026 JUMP JUMPDEST POP PUSH2 0x14F SLOAD PUSH1 0x1 PUSH1 0x1 PUSH1 0xA0 SHL SUB SWAP2 SWAP1 DUP3 AND CALLER SUB PUSH2 0xCE8 JUMPI PUSH2 0xCAD SWAP2 PUSH2 0xC23 CALLDATASIZE PUSH1 0x4 PUSH2 0x55DF JUMP JUMPDEST SWAP2 PUSH2 0xC2C PUSH2 0x5026 JUMP JUMPDEST POP PUSH2 0xC35 PUSH2 0x4F0B JUMP JUMPDEST PUSH2 0xC3D PUSH2 0x5719 JUMP JUMPDEST PUSH2 0xC89 PUSH2 0xC7A DUP3 MLOAD PUSH4 0x3DAD0BD7 PUSH1 0xE1 SHL PUSH1 0x20 DUP3 ADD MSTORE PUSH2 0xC5F PUSH1 0x24 DUP3 ADD DUP8 PUSH2 0x4FD6 JUMP JUMPDEST PUSH1 0xE4 DUP2 MSTORE PUSH2 0xC6F PUSH2 0x104 DUP3 PUSH2 0x3CA7 JUMP JUMPDEST DUP5 PUSH2 0x1F7 SLOAD AND PUSH2 0x4978 JUMP JUMPDEST PUSH1 0x20 DUP1 DUP3 MLOAD DUP4 ADD ADD SWAP2 ADD PUSH2 0x5584 JUMP JUMPDEST DUP7 DUP5 DUP8 PUSH1 0x80 DUP5 SWAP9 SWAP7 SWAP12 SWAP6 SWAP8 SWAP11 ADD MLOAD AND SWAP2 DUP9 PUSH1 0xC0 DUP2 PUSH1 0xA0 DUP5 ADD MLOAD AND SWAP3 ADD MLOAD AND SWAP3 PUSH2 0x5390 JUMP JUMPDEST PUSH1 0x4 CALLDATALOAD SWAP4 DUP1 DUP6 AND DUP1 SWAP6 SUB PUSH2 0x70D JUMPI PUSH1 0x84 CALLDATALOAD SWAP1 DUP2 AND DUP2 SUB PUSH2 0x70D JUMPI PUSH2 0xCE4 SWAP5 PUSH2 0xCDA SWAP2 DUP9 PUSH1 0x44 CALLDATALOAD SUB SWAP2 PUSH2 0x5652 JUMP JUMPDEST MLOAD SWAP5 DUP6 SWAP5 DUP6 PUSH2 0x3C4B JUMP JUMPDEST SUB SWAP1 RETURN JUMPDEST MLOAD PUSH4 0x19748477 PUSH1 0xE0 SHL DUP2 MSTORE PUSH1 0x4 SWAP1 REVERT JUMPDEST POP POP CALLVALUE PUSH2 0x639 JUMPI DUP2 PUSH1 0x3 NOT CALLDATASIZE ADD SLT PUSH2 0x639 JUMPI PUSH1 0x20 SWAP1 PUSH2 0x155 SLOAD SWAP1 MLOAD SWAP1 DUP2 MSTORE RETURN JUMPDEST POP POP CALLVALUE PUSH2 0x639 JUMPI DUP2 PUSH1 0x3 NOT CALLDATASIZE ADD SLT PUSH2 0x639 JUMPI PUSH1 0x20 SWAP1 PUSH2 0x842 PUSH2 0xD3A PUSH1 0x1 PUSH2 0x4774 JUMP JUMPDEST PUSH2 0xD4E PUSH2 0xD47 DUP3 DUP5 PUSH2 0x455F JUMP JUMPDEST SWAP2 DUP4 PUSH2 0x44A9 JUMP JUMPDEST SWAP2 PUSH2 0x47BB JUMP JUMPDEST PUSH2 0x6C2 DUP5 DUP5 PUSH1 0xC4 PUSH2 0xD66 CALLDATASIZE PUSH1 0x4 PUSH2 0x3C19 JUMP JUMPDEST PUSH2 0xD73 SWAP9 SWAP3 SWAP6 SWAP2 SWAP9 PUSH2 0x4F0B JUMP JUMPDEST PUSH2 0xD7B PUSH2 0x5719 JUMP JUMPDEST DUP7 MLOAD SWAP5 PUSH2 0xD89 PUSH1 0xC0 DUP8 PUSH2 0x3CA7 JUMP JUMPDEST PUSH1 0x1 DUP1 PUSH1 0xA0 SHL SUB SWAP2 DUP3 DUP1 SWAP3 AND DUP8 MSTORE DUP2 PUSH1 0x20 SWAP12 DUP13 SWAP8 DUP9 DUP11 ADD MSTORE DUP10 DUP12 DUP11 ADD MSTORE CALLER PUSH1 0x60 DUP11 ADD MSTORE AND PUSH1 0x80 DUP9 ADD MSTORE AND PUSH1 0xA0 DUP7 ADD MSTORE PUSH2 0x14F SLOAD AND SWAP4 DUP7 MLOAD SWAP5 DUP6 SWAP4 DUP5 SWAP3 PUSH4 0x7E81A821 PUSH1 0xE0 SHL DUP5 MSTORE PUSH1 0x4 DUP5 ADD SWAP1 PUSH2 0x4F2D JUMP JUMPDEST DUP4 CALLVALUE PUSH2 0x7B7 JUMPI DUP1 PUSH1 0x3 NOT CALLDATASIZE ADD SLT PUSH2 0x7B7 JUMPI PUSH2 0xAC2 PUSH2 0x4E0D JUMP JUMPDEST DUP4 CALLVALUE PUSH2 0x7B7 JUMPI PUSH1 0x20 CALLDATASIZE PUSH1 0x3 NOT ADD SLT PUSH2 0x7B7 JUMPI PUSH1 0x4 CALLDATALOAD PUSH1 0x1 PUSH1 0x1 PUSH1 0xA0 SHL SUB DUP2 AND SWAP1 DUP2 SWAP1 SUB PUSH2 0x70D JUMPI PUSH2 0xE21 PUSH2 0x568B JUMP JUMPDEST PUSH2 0x12F DUP1 SLOAD PUSH1 0x1 PUSH1 0x1 PUSH1 0xA0 SHL SUB NOT AND SWAP1 SWAP2 OR SWAP1 SSTORE DUP1 RETURN JUMPDEST DUP4 CALLVALUE PUSH2 0x7B7 JUMPI PUSH1 0x20 CALLDATASIZE PUSH1 0x3 NOT ADD SLT PUSH2 0x7B7 JUMPI PUSH2 0xE52 PUSH2 0x568B JUMP JUMPDEST PUSH1 0x4 CALLDATALOAD PUSH2 0x14C SSTORE DUP1 RETURN JUMPDEST POP POP CALLVALUE PUSH2 0x639 JUMPI DUP2 PUSH1 0x3 NOT CALLDATASIZE ADD SLT PUSH2 0x639 JUMPI PUSH1 0x20 SWAP1 PUSH2 0x842 PUSH2 0xE91 PUSH2 0xE98 PUSH2 0xE85 PUSH2 0xB12 PUSH2 0x46F3 JUMP JUMPDEST PUSH2 0x131 SWAP4 SWAP2 SWAP4 SLOAD PUSH2 0x431F JUMP JUMPDEST SWAP2 DUP3 PUSH2 0x431F JUMP JUMPDEST SWAP1 PUSH2 0x5805 JUMP JUMPDEST DUP4 CALLVALUE PUSH2 0x7B7 JUMPI PUSH1 0x20 CALLDATASIZE PUSH1 0x3 NOT ADD SLT PUSH2 0x7B7 JUMPI PUSH2 0xEB8 PUSH2 0x568B JUMP JUMPDEST PUSH1 0x4 CALLDATALOAD PUSH2 0x13D SSTORE DUP1 RETURN JUMPDEST DUP3 DUP5 CALLVALUE PUSH2 0x7B7 JUMPI PUSH1 0xA0 CALLDATASIZE PUSH1 0x3 NOT ADD SLT PUSH2 0x7B7 JUMPI PUSH2 0xEDD PUSH2 0x5026 JUMP JUMPDEST POP PUSH2 0x14F SLOAD PUSH1 0x1 PUSH1 0x1 PUSH1 0xA0 SHL SUB SWAP1 DUP2 AND CALLER SUB PUSH2 0x10AC JUMPI PUSH2 0xEFE CALLDATASIZE PUSH1 0x4 PUSH2 0x504D JUMP JUMPDEST SWAP2 PUSH2 0xF07 PUSH2 0x5026 JUMP JUMPDEST POP PUSH2 0xF10 PUSH2 0x4F0B JUMP JUMPDEST PUSH2 0xF18 PUSH2 0x5719 JUMP JUMPDEST PUSH2 0xF20 PUSH2 0x4E0D JUMP JUMPDEST PUSH2 0xF33 PUSH2 0xF2B PUSH2 0x4D4A JUMP JUMPDEST DUP2 SWAP3 SWAP2 PUSH2 0x50AA JUMP JUMPDEST SWAP1 SWAP2 PUSH2 0xF42 DUP3 DUP5 DUP9 MLOAD SWAP4 PUSH2 0x4B40 JUMP JUMPDEST DUP2 DUP2 LT PUSH2 0x108F JUMPI POP POP PUSH8 0xDE0B6B3A7640000 SWAP2 PUSH2 0xF64 PUSH2 0xF6A SWAP3 DUP8 MLOAD SWAP3 PUSH2 0x4B0C JUMP JUMPDEST SWAP1 PUSH2 0x452C JUMP JUMPDEST DIV SWAP2 DUP3 ISZERO PUSH2 0x107E JUMPI SWAP4 DUP4 SWAP5 DUP2 PUSH2 0xFA3 SWAP6 ADD SWAP1 DUP1 DUP3 MLOAD AND SWAP2 PUSH2 0xF98 PUSH1 0x80 DUP10 ADD SWAP4 DUP8 DUP5 DUP7 MLOAD AND PUSH2 0x13D SLOAD SWAP3 PUSH2 0x50ED JUMP JUMPDEST SWAP7 SWAP2 DUP9 SWAP10 SWAP2 SWAP10 PUSH2 0x431F JUMP JUMPDEST SWAP7 PUSH1 0x20 DUP11 ADD MLOAD DUP1 DUP10 LT PUSH2 0x1061 JUMPI POP DUP10 MLOAD SWAP1 PUSH2 0x134 PUSH2 0xFC2 DUP4 DUP3 SLOAD PUSH2 0x431F JUMP JUMPDEST SWAP1 SSTORE PUSH2 0xFD2 PUSH2 0x131 SWAP2 DUP3 SLOAD PUSH2 0x431F JUMP JUMPDEST SWAP1 SSTORE DUP4 PUSH2 0x133 SLOAD AND SWAP1 DUP2 EXTCODESIZE ISZERO PUSH2 0x90C JUMPI DUP7 MLOAD PUSH4 0x2770A7EB PUSH1 0xE2 SHL DUP2 MSTORE ADDRESS PUSH1 0x4 DUP3 ADD MSTORE PUSH1 0x24 DUP2 ADD SWAP2 SWAP1 SWAP2 MSTORE SWAP1 DUP3 SWAP1 DUP3 SWAP1 PUSH1 0x44 SWAP1 DUP3 SWAP1 DUP5 SWAP1 GAS CALL DUP1 ISZERO PUSH2 0x1057 JUMPI PUSH2 0x1042 JUMPI JUMPDEST POP POP SWAP7 DUP6 PUSH2 0x1038 SWAP4 DUP4 DUP1 PUSH1 0x60 DUP10 SWAP7 PUSH2 0xCE4 SWAP12 SWAP13 SWAP14 MLOAD AND SWAP6 ADD MLOAD AND SWAP2 MLOAD AND SWAP3 PUSH2 0x5390 JUMP JUMPDEST MLOAD SWAP4 DUP5 SWAP4 DUP5 PUSH2 0x3BDB JUMP JUMPDEST PUSH2 0x104D DUP3 DUP1 SWAP3 PUSH2 0x3CA7 JUMP JUMPDEST PUSH2 0x7B7 JUMPI DUP1 PUSH2 0x1015 JUMP JUMPDEST DUP7 MLOAD RETURNDATASIZE DUP5 DUP3 RETURNDATACOPY RETURNDATASIZE SWAP1 REVERT JUMPDEST PUSH1 0x44 SWAP1 DUP10 DUP9 MLOAD SWAP2 PUSH4 0x54CDE313 PUSH1 0xE0 SHL DUP4 MSTORE PUSH1 0x4 DUP4 ADD MSTORE PUSH1 0x24 DUP3 ADD MSTORE REVERT JUMPDEST DUP5 MLOAD PUSH4 0xF3E39B5D PUSH1 0xE0 SHL DUP2 MSTORE PUSH1 0x4 SWAP1 REVERT JUMPDEST PUSH1 0x44 SWAP3 POP DUP8 MLOAD SWAP2 PUSH4 0xA5DB715D PUSH1 0xE0 SHL DUP4 MSTORE PUSH1 0x4 DUP4 ADD MSTORE PUSH1 0x24 DUP3 ADD MSTORE REVERT JUMPDEST DUP3 MLOAD PUSH4 0x19748477 PUSH1 0xE0 SHL DUP2 MSTORE PUSH1 0x4 SWAP1 REVERT JUMPDEST DUP4 CALLVALUE PUSH2 0x7B7 JUMPI PUSH1 0x20 CALLDATASIZE PUSH1 0x3 NOT ADD SLT PUSH2 0x7B7 JUMPI PUSH2 0x10D7 PUSH2 0x568B JUMP JUMPDEST PUSH1 0x4 CALLDATALOAD PUSH2 0x139 SSTORE DUP1 RETURN JUMPDEST DUP4 SWAP2 POP CALLVALUE PUSH2 0x639 JUMPI CALLDATASIZE PUSH1 0x3 NOT ADD SLT PUSH2 0x7B7 JUMPI POP PUSH2 0x10FC PUSH2 0x5026 JUMP JUMPDEST POP PUSH2 0x14F SLOAD PUSH1 0x1 PUSH1 0x1 PUSH1 0xA0 SHL SUB SWAP1 DUP2 AND CALLER SUB PUSH2 0x119E JUMPI PUSH2 0xCE4 PUSH2 0xCDA SWAP2 PUSH2 0x1124 CALLDATASIZE PUSH1 0x4 PUSH2 0x55DF JUMP JUMPDEST SWAP4 PUSH2 0x112D PUSH2 0x5026 JUMP JUMPDEST POP PUSH2 0x1136 PUSH2 0x4F0B JUMP JUMPDEST PUSH2 0x113E PUSH2 0x5719 JUMP JUMPDEST PUSH2 0x1160 PUSH2 0xC7A DUP3 MLOAD PUSH4 0xF5571E01 PUSH1 0xE0 SHL PUSH1 0x20 DUP3 ADD MSTORE PUSH2 0xC5F PUSH1 0x24 DUP3 ADD DUP10 PUSH2 0x4FD6 JUMP JUMPDEST SWAP5 DUP9 PUSH1 0x60 DUP8 SWAP4 SWAP7 SWAP6 SWAP10 SWAP5 SWAP11 ADD SWAP2 DUP3 MLOAD PUSH2 0x117D PUSH2 0x14E SWAP2 DUP3 SLOAD PUSH2 0x431F JUMP JUMPDEST SWAP1 SSTORE PUSH1 0xC0 PUSH2 0x1193 DUP12 DUP4 PUSH1 0x80 DUP7 ADD MLOAD AND SWAP6 MLOAD PUSH2 0x431F JUMP JUMPDEST SWAP3 ADD MLOAD AND SWAP2 DUP1 PUSH2 0x5390 JUMP JUMPDEST DUP2 MLOAD PUSH4 0x19748477 PUSH1 0xE0 SHL DUP2 MSTORE PUSH1 0x4 SWAP1 REVERT JUMPDEST POP POP CALLVALUE PUSH2 0x639 JUMPI DUP2 PUSH1 0x3 NOT CALLDATASIZE ADD SLT PUSH2 0x639 JUMPI PUSH1 0x20 SWAP1 PUSH1 0xFF PUSH1 0xCA SLOAD AND SWAP1 MLOAD SWAP1 ISZERO ISZERO DUP2 MSTORE RETURN JUMPDEST POP POP CALLVALUE PUSH2 0x639 JUMPI DUP2 PUSH1 0x3 NOT CALLDATASIZE ADD SLT PUSH2 0x639 JUMPI PUSH1 0x20 SWAP1 PUSH2 0x15B SLOAD SWAP1 MLOAD SWAP1 DUP2 MSTORE RETURN JUMPDEST POP POP CALLVALUE PUSH2 0x639 JUMPI DUP2 PUSH1 0x3 NOT CALLDATASIZE ADD SLT PUSH2 0x639 JUMPI PUSH2 0x153 SLOAD SWAP1 MLOAD PUSH1 0x1 PUSH1 0x1 PUSH1 0xA0 SHL SUB SWAP1 SWAP2 AND DUP2 MSTORE PUSH1 0x20 SWAP1 RETURN JUMPDEST DUP3 DUP5 CALLVALUE PUSH2 0x7B7 JUMPI PUSH1 0xC0 CALLDATASIZE PUSH1 0x3 NOT ADD SLT PUSH2 0x7B7 JUMPI PUSH2 0x1238 PUSH2 0x5026 JUMP JUMPDEST POP PUSH2 0x14F SLOAD PUSH1 0x1 PUSH1 0x1 PUSH1 0xA0 SHL SUB SWAP3 SWAP1 DUP4 AND CALLER SUB PUSH2 0xCE8 JUMPI PUSH2 0x12D2 PUSH2 0x125D CALLDATASIZE PUSH1 0x4 PUSH2 0x5449 JUMP JUMPDEST SWAP2 PUSH2 0x1266 PUSH2 0x5026 JUMP JUMPDEST POP PUSH2 0x126F PUSH2 0x4F0B JUMP JUMPDEST PUSH2 0x1277 PUSH2 0x5719 JUMP JUMPDEST PUSH2 0x127F PUSH2 0x4E0D JUMP JUMPDEST PUSH2 0x1287 PUSH2 0x4D4A JUMP JUMPDEST PUSH2 0x1296 DUP8 DUP7 SWAP6 SWAP4 SWAP6 MLOAD AND PUSH2 0x45EE JUMP JUMPDEST SWAP4 PUSH2 0x12B6 PUSH2 0x12A4 DUP7 DUP5 PUSH2 0x4407 JUMP JUMPDEST MLOAD SWAP3 PUSH2 0x12B0 DUP5 DUP9 PUSH2 0x4A5A JUMP JUMPDEST DUP3 PUSH2 0x50AA JUMP JUMPDEST PUSH1 0x20 DUP9 SWAP6 SWAP3 SWAP6 ADD SWAP5 DUP5 DUP7 MLOAD SWAP5 PUSH2 0x12CC DUP3 DUP12 PUSH2 0x4CA2 JUMP JUMPDEST SWAP1 PUSH2 0x54B2 JUMP JUMPDEST DUP2 DUP2 LT PUSH2 0x13BE JUMPI POP POP SWAP5 DUP1 SWAP7 PUSH2 0x12EC PUSH2 0x1324 SWAP8 DUP5 MLOAD PUSH2 0x5805 JUMP JUMPDEST SWAP5 PUSH1 0x60 DUP8 ADD SWAP1 PUSH2 0x1319 DUP4 DUP4 MLOAD AND DUP9 DUP11 DUP10 PUSH1 0xA0 DUP3 ADD SWAP9 DUP9 DUP1 DUP12 MLOAD AND SWAP4 MLOAD AND DUP2 MSTORE PUSH2 0x144 PUSH1 0x20 MSTORE KECCAK256 SLOAD SWAP3 PUSH2 0x50ED JUMP JUMPDEST SWAP9 SWAP2 DUP3 SWAP12 SWAP2 SWAP12 PUSH2 0x43FA JUMP JUMPDEST SWAP9 DUP8 DUP2 ADD SWAP7 DUP8 MLOAD DUP1 DUP13 GT PUSH2 0x13A1 JUMPI POP DUP11 ISZERO PUSH2 0x1390 JUMPI SWAP5 DUP10 SWAP7 SWAP5 PUSH2 0x136B DUP3 SWAP6 DUP14 SWAP15 SWAP16 SWAP6 PUSH2 0xCE4 SWAP15 SWAP6 DUP6 PUSH1 0x80 PUSH2 0x1038 SWAP15 SWAP13 PUSH2 0x1360 PUSH2 0x1386 SWAP12 DUP7 PUSH2 0x54CA JUMP JUMPDEST MLOAD SWAP3 ADD MLOAD AND SWAP3 PUSH2 0x499A JUMP JUMPDEST DUP7 MLOAD PUSH2 0x137B PUSH2 0x14E SWAP2 DUP3 SLOAD PUSH2 0x431F JUMP JUMPDEST SWAP1 SSTORE MLOAD AND SWAP5 MLOAD PUSH2 0x431F JUMP JUMPDEST SWAP2 MLOAD AND SWAP2 DUP1 PUSH2 0x5390 JUMP JUMPDEST DUP9 MLOAD PUSH4 0xF3E39B5D PUSH1 0xE0 SHL DUP2 MSTORE PUSH1 0x4 SWAP1 REVERT JUMPDEST PUSH1 0x44 SWAP1 DUP13 DUP12 MLOAD SWAP2 PUSH4 0xB63F1A7 PUSH1 0xE0 SHL DUP4 MSTORE PUSH1 0x4 DUP4 ADD MSTORE PUSH1 0x24 DUP3 ADD MSTORE REVERT JUMPDEST PUSH1 0x44 SWAP3 POP DUP5 MLOAD SWAP2 PUSH4 0xC39B739F PUSH1 0xE0 SHL DUP4 MSTORE PUSH1 0x4 DUP4 ADD MSTORE PUSH1 0x24 DUP3 ADD MSTORE REVERT JUMPDEST DUP3 DUP5 PUSH2 0x13E8 CALLDATASIZE PUSH1 0x4 PUSH2 0x3CFB JUMP JUMPDEST SWAP1 PUSH2 0x13F5 SWAP6 SWAP4 SWAP3 SWAP6 PUSH2 0x4F0B JUMP JUMPDEST PUSH2 0x13FD PUSH2 0x5719 JUMP JUMPDEST DUP4 MLOAD SWAP1 PUSH2 0x140B PUSH1 0xA0 DUP4 PUSH2 0x3CA7 JUMP JUMPDEST DUP4 DUP3 MSTORE PUSH1 0x20 DUP1 DUP4 ADD SWAP8 DUP9 MSTORE CALLER DUP7 DUP5 ADD MSTORE PUSH1 0x1 PUSH1 0x1 PUSH1 0xA0 SHL SUB SWAP2 DUP3 AND PUSH1 0x60 DUP5 ADD SWAP1 DUP2 MSTORE SWAP4 DUP3 AND PUSH1 0x80 DUP5 ADD SWAP1 DUP2 MSTORE PUSH2 0x14F SLOAD DUP8 MLOAD PUSH4 0xFA91A9A5 PUSH1 0xE0 SHL DUP2 MSTORE DUP6 MLOAD PUSH1 0x4 DUP3 ADD MSTORE SWAP10 MLOAD PUSH1 0x24 DUP12 ADD MSTORE PUSH1 0x40 SWAP1 SWAP5 ADD MLOAD DUP4 AND PUSH1 0x44 DUP11 ADD MSTORE SWAP4 MLOAD DUP3 AND PUSH1 0x64 DUP10 ADD MSTORE SWAP3 MLOAD DUP2 AND PUSH1 0x84 DUP9 ADD MSTORE SWAP2 SWAP6 SWAP1 DUP7 SWAP1 DUP3 SWAP1 PUSH1 0xA4 SWAP1 DUP3 SWAP1 DUP7 AND CALLVALUE SWAP1 GAS CALL SWAP5 DUP6 ISZERO PUSH2 0x14DA JUMPI SWAP5 PUSH2 0x14A7 JUMPI JUMPDEST POP SWAP1 PUSH2 0x6DD SWAP2 PUSH2 0x133 SLOAD AND ADDRESS SWAP1 CALLER SWAP1 PUSH2 0x4EC7 JUMP JUMPDEST SWAP2 SWAP1 SWAP4 POP DUP5 DUP3 DUP2 RETURNDATASIZE DUP4 GT PUSH2 0x14D3 JUMPI JUMPDEST PUSH2 0x14C0 DUP2 DUP4 PUSH2 0x3CA7 JUMP JUMPDEST DUP2 ADD SUB SLT PUSH2 0x70D JUMPI SWAP1 MLOAD SWAP3 PUSH2 0x6DD PUSH2 0x1493 JUMP JUMPDEST POP RETURNDATASIZE PUSH2 0x14B6 JUMP JUMPDEST DUP5 MLOAD SWAP1 RETURNDATASIZE SWAP1 DUP3 RETURNDATACOPY RETURNDATASIZE SWAP1 REVERT JUMPDEST POP POP CALLVALUE PUSH2 0x639 JUMPI DUP2 PUSH1 0x3 NOT CALLDATASIZE ADD SLT PUSH2 0x639 JUMPI PUSH1 0x20 SWAP1 PUSH2 0x13D SLOAD SWAP1 MLOAD SWAP1 DUP2 MSTORE RETURN JUMPDEST POP POP CALLVALUE PUSH2 0x639 JUMPI PUSH1 0xC0 CALLDATASIZE PUSH1 0x3 NOT ADD SLT PUSH2 0x639 JUMPI PUSH2 0x1520 PUSH2 0x5026 JUMP JUMPDEST POP PUSH2 0x14F SLOAD PUSH1 0x1 PUSH1 0x1 PUSH1 0xA0 SHL SUB SWAP2 SWAP1 DUP3 AND CALLER SUB PUSH2 0xCE8 JUMPI PUSH2 0x1542 CALLDATASIZE PUSH1 0x4 PUSH2 0x5449 JUMP JUMPDEST SWAP2 PUSH2 0x154B PUSH2 0x5026 JUMP JUMPDEST POP PUSH2 0x1554 PUSH2 0x4F0B JUMP JUMPDEST PUSH2 0x155C PUSH2 0x5719 JUMP JUMPDEST PUSH2 0x1564 PUSH2 0x46F3 JUMP JUMPDEST SWAP2 PUSH2 0x1571 DUP3 DUP6 MLOAD AND PUSH2 0x45EE JUMP JUMPDEST SWAP2 PUSH2 0x1594 PUSH2 0x157F DUP5 DUP7 PUSH2 0x4407 JUMP JUMPDEST MLOAD SWAP5 PUSH2 0x158B DUP7 DUP7 PUSH2 0x4A5A JUMP JUMPDEST PUSH2 0x149 SLOAD PUSH2 0x50AA JUMP JUMPDEST POP POP PUSH2 0x15A5 PUSH1 0x20 DUP7 ADD SWAP5 DUP6 MLOAD PUSH2 0x5805 JUMP JUMPDEST SWAP1 DUP2 ISZERO PUSH2 0x16D4 JUMPI DUP6 SWAP7 PUSH1 0x60 PUSH2 0x15EA SWAP8 ADD SWAP1 DUP3 DUP3 MLOAD AND SWAP4 PUSH2 0x15DF PUSH1 0xA0 DUP12 ADD SWAP6 DUP3 DUP13 DUP8 DUP1 DUP11 MLOAD AND SWAP2 MLOAD AND DUP7 MSTORE PUSH2 0x145 PUSH1 0x20 MSTORE DUP10 DUP7 KECCAK256 SLOAD SWAP3 PUSH2 0x50ED JUMP JUMPDEST SWAP9 SWAP2 DUP4 SWAP12 SWAP2 SWAP12 PUSH2 0x431F JUMP JUMPDEST SWAP9 DUP8 DUP13 ADD MLOAD DUP1 DUP12 LT PUSH2 0x16B7 JUMPI POP DUP6 SWAP2 PUSH2 0x163C SWAP2 PUSH2 0x1608 PUSH1 0x1 DUP14 PUSH2 0x54CA JUMP JUMPDEST MLOAD SWAP4 PUSH2 0x1616 DUP3 PUSH2 0x137 PUSH2 0x3C8B JUMP JUMPDEST POP PUSH2 0x1622 DUP7 DUP3 SLOAD PUSH2 0x431F JUMP JUMPDEST SWAP1 SSTORE PUSH2 0x1632 PUSH2 0x131 SWAP2 DUP3 SLOAD PUSH2 0x431F JUMP JUMPDEST SWAP1 SSTORE PUSH2 0x135 PUSH2 0x3B56 JUMP JUMPDEST SWAP1 SLOAD SWAP1 PUSH1 0x3 SHL SHR AND SWAP1 DUP2 EXTCODESIZE ISZERO PUSH2 0x90C JUMPI DUP7 MLOAD PUSH4 0x2770A7EB PUSH1 0xE2 SHL DUP2 MSTORE ADDRESS PUSH1 0x4 DUP3 ADD MSTORE PUSH1 0x24 DUP2 ADD SWAP2 SWAP1 SWAP2 MSTORE SWAP1 DUP3 SWAP1 DUP3 SWAP1 PUSH1 0x44 SWAP1 DUP3 SWAP1 DUP5 SWAP1 GAS CALL DUP1 ISZERO PUSH2 0x1057 JUMPI PUSH2 0x16A2 JUMPI JUMPDEST POP POP SWAP7 DUP6 PUSH2 0x1038 SWAP4 DUP4 DUP1 PUSH1 0x80 DUP10 SWAP7 PUSH2 0xCE4 SWAP12 SWAP13 SWAP14 MLOAD AND SWAP6 ADD MLOAD AND SWAP2 MLOAD AND SWAP3 PUSH2 0x5390 JUMP JUMPDEST PUSH2 0x16AD DUP3 DUP1 SWAP3 PUSH2 0x3CA7 JUMP JUMPDEST PUSH2 0x7B7 JUMPI DUP1 PUSH2 0x167F JUMP JUMPDEST PUSH1 0x44 SWAP1 DUP12 DUP11 MLOAD SWAP2 PUSH4 0x54CDE313 PUSH1 0xE0 SHL DUP4 MSTORE PUSH1 0x4 DUP4 ADD MSTORE PUSH1 0x24 DUP3 ADD MSTORE REVERT JUMPDEST DUP3 MLOAD PUSH4 0xF3E39B5D PUSH1 0xE0 SHL DUP2 MSTORE PUSH1 0x4 SWAP1 REVERT JUMPDEST POP POP CALLVALUE PUSH2 0x639 JUMPI DUP2 PUSH1 0x3 NOT CALLDATASIZE ADD SLT PUSH2 0x639 JUMPI PUSH1 0x20 SWAP1 PUSH2 0x18F SLOAD NUMBER LT ISZERO SWAP1 MLOAD SWAP1 DUP2 MSTORE RETURN JUMPDEST POP POP CALLVALUE PUSH2 0x639 JUMPI DUP2 PUSH1 0x3 NOT CALLDATASIZE ADD SLT PUSH2 0x639 JUMPI PUSH1 0xCA SLOAD SWAP1 MLOAD PUSH1 0x10 SWAP2 SWAP1 SWAP2 SHR PUSH1 0x1 PUSH1 0x1 PUSH1 0xA0 SHL SUB AND DUP2 MSTORE PUSH1 0x20 SWAP1 RETURN JUMPDEST DUP3 DUP5 CALLVALUE PUSH2 0x7B7 JUMPI PUSH1 0x20 CALLDATASIZE PUSH1 0x3 NOT ADD SLT PUSH2 0x7B7 JUMPI PUSH1 0x4 CALLDATALOAD PUSH1 0x1 PUSH1 0x1 PUSH1 0xA0 SHL SUB DUP2 AND SWAP2 SWAP1 DUP3 SWAP1 SUB PUSH2 0x70D JUMPI DUP3 SWAP2 DUP2 MSTORE PUSH2 0x136 PUSH1 0x20 MSTORE KECCAK256 PUSH1 0xFF PUSH1 0x1 DUP3 SLOAD SWAP3 ADD SLOAD AND DUP3 MLOAD SWAP2 DUP3 MSTORE ISZERO ISZERO PUSH1 0x20 DUP3 ADD MSTORE RETURN JUMPDEST POP POP CALLVALUE PUSH2 0x639 JUMPI DUP2 PUSH1 0x3 NOT CALLDATASIZE ADD SLT PUSH2 0x639 JUMPI PUSH1 0x20 SWAP1 PUSH2 0x17AA PUSH2 0x17A4 PUSH2 0xB12 PUSH2 0x46F3 JUMP JUMPDEST SWAP1 PUSH2 0x45D0 JUMP JUMPDEST PUSH2 0x14A SLOAD LT ISZERO SWAP1 MLOAD SWAP1 DUP2 MSTORE RETURN JUMPDEST POP POP CALLVALUE PUSH2 0x639 JUMPI DUP2 PUSH1 0x3 NOT CALLDATASIZE ADD SLT PUSH2 0x639 JUMPI PUSH2 0x146 SLOAD SWAP1 MLOAD PUSH1 0x1 PUSH1 0x1 PUSH1 0xA0 SHL SUB SWAP1 SWAP2 AND DUP2 MSTORE PUSH1 0x20 SWAP1 RETURN JUMPDEST POP POP CALLVALUE PUSH2 0x639 JUMPI DUP2 PUSH1 0x3 NOT CALLDATASIZE ADD SLT PUSH2 0x639 JUMPI PUSH1 0x20 SWAP1 PUSH2 0x1801 PUSH2 0xB12 PUSH2 0x46F3 JUMP JUMPDEST POP SWAP1 MLOAD SWAP1 DUP2 MSTORE RETURN JUMPDEST POP POP CALLVALUE PUSH2 0x639 JUMPI DUP2 PUSH1 0x3 NOT CALLDATASIZE ADD SLT PUSH2 0x639 JUMPI PUSH2 0x158 SLOAD SWAP1 MLOAD PUSH1 0x1 PUSH1 0x1 PUSH1 0xA0 SHL SUB SWAP1 SWAP2 AND DUP2 MSTORE PUSH1 0x20 SWAP1 RETURN JUMPDEST POP POP CALLVALUE PUSH2 0x639 JUMPI DUP2 PUSH1 0x3 NOT CALLDATASIZE ADD SLT PUSH2 0x639 JUMPI PUSH1 0x20 SWAP1 PUSH2 0x1F6 SLOAD SWAP1 MLOAD SWAP1 DUP2 MSTORE RETURN JUMPDEST POP POP CALLVALUE PUSH2 0x639 JUMPI DUP2 PUSH1 0x3 NOT CALLDATASIZE ADD SLT PUSH2 0x639 JUMPI PUSH1 0x20 SWAP1 PUSH2 0x14A SLOAD SWAP1 MLOAD SWAP1 DUP2 MSTORE RETURN JUMPDEST DUP3 DUP5 CALLVALUE PUSH2 0x7B7 JUMPI PUSH1 0xC0 CALLDATASIZE PUSH1 0x3 NOT ADD SLT PUSH2 0x7B7 JUMPI POP PUSH2 0x188F PUSH2 0x5026 JUMP JUMPDEST POP PUSH2 0x14F SLOAD PUSH1 0x1 PUSH1 0x1 PUSH1 0xA0 SHL SUB SWAP1 DUP2 AND CALLER SUB PUSH2 0x119E JUMPI PUSH2 0xCE4 PUSH2 0xCDA SWAP2 PUSH2 0x18B7 CALLDATASIZE PUSH1 0x4 PUSH2 0x5449 JUMP JUMPDEST SWAP4 PUSH2 0x18C0 PUSH2 0x5026 JUMP JUMPDEST POP PUSH2 0x18C9 PUSH2 0x4F0B JUMP JUMPDEST PUSH2 0x18D1 PUSH2 0x5719 JUMP JUMPDEST PUSH2 0x1902 PUSH2 0xC7A DUP3 MLOAD PUSH4 0x7225DA89 PUSH1 0xE1 SHL PUSH1 0x20 DUP3 ADD MSTORE PUSH2 0x18F3 PUSH1 0x24 DUP3 ADD DUP10 PUSH2 0x4F2D JUMP JUMPDEST PUSH1 0xC4 DUP2 MSTORE PUSH2 0xC6F PUSH1 0xE4 DUP3 PUSH2 0x3CA7 JUMP JUMPDEST SWAP5 DUP9 DUP6 DUP8 SWAP4 SWAP7 SWAP6 SWAP10 SWAP5 SWAP11 ADD SWAP2 DUP3 MLOAD PUSH2 0x191E PUSH2 0x14E SWAP2 DUP3 SLOAD PUSH2 0x431F JUMP JUMPDEST SWAP1 SSTORE PUSH1 0xA0 PUSH2 0x1193 DUP12 DUP4 PUSH1 0x60 DUP7 ADD MLOAD AND SWAP6 MLOAD PUSH2 0x431F JUMP JUMPDEST DUP4 CALLVALUE PUSH2 0x7B7 JUMPI PUSH1 0x20 CALLDATASIZE PUSH1 0x3 NOT ADD SLT PUSH2 0x7B7 JUMPI PUSH1 0x4 CALLDATALOAD PUSH1 0x1 PUSH1 0x1 PUSH1 0xA0 SHL SUB DUP2 AND SWAP1 DUP2 SWAP1 SUB PUSH2 0x70D JUMPI PUSH2 0x1963 PUSH2 0x568B JUMP JUMPDEST PUSH2 0x153 DUP1 SLOAD PUSH1 0x1 PUSH1 0x1 PUSH1 0xA0 SHL SUB NOT AND SWAP1 SWAP2 OR SWAP1 SSTORE DUP1 RETURN JUMPDEST POP POP CALLVALUE PUSH2 0x639 JUMPI DUP2 PUSH1 0x3 NOT CALLDATASIZE ADD SLT PUSH2 0x639 JUMPI PUSH2 0x1994 PUSH2 0x5719 JUMP JUMPDEST PUSH1 0xCA SLOAD PUSH1 0x10 DUP2 SWAP1 SHR PUSH1 0x1 PUSH1 0x1 PUSH1 0xA0 SHL SUB AND CALLER SUB PUSH2 0x19FE JUMPI PUSH1 0xFF DUP2 AND ISZERO PUSH2 0x19ED JUMPI PUSH2 0xFF00 NOT AND PUSH2 0x100 OR PUSH1 0xCA SSTORE MLOAD CALLER DUP2 MSTORE PUSH32 0x62E78CEA01BEE320CD4E420270B5EA74000D11B0C9F74754EBDBFC544B05A258 SWAP1 PUSH1 0x20 SWAP1 LOG1 DUP1 RETURN JUMPDEST DUP2 MLOAD PUSH4 0x866099C3 PUSH1 0xE0 SHL DUP2 MSTORE PUSH1 0x4 SWAP1 REVERT JUMPDEST DUP2 MLOAD PUSH4 0x1D77D477 PUSH1 0xE2 SHL DUP2 MSTORE PUSH1 0x4 SWAP1 REVERT JUMPDEST POP POP CALLVALUE PUSH2 0x639 JUMPI DUP2 PUSH1 0x3 NOT CALLDATASIZE ADD SLT PUSH2 0x639 JUMPI PUSH1 0x20 SWAP1 PUSH2 0x842 PUSH2 0x17A4 PUSH2 0xB12 PUSH2 0x46F3 JUMP JUMPDEST POP POP CALLVALUE PUSH2 0x639 JUMPI DUP2 PUSH1 0x3 NOT CALLDATASIZE ADD SLT PUSH2 0x639 JUMPI PUSH1 0x20 SWAP1 PUSH2 0x15A SLOAD SWAP1 MLOAD SWAP1 DUP2 MSTORE RETURN JUMPDEST POP POP CALLVALUE PUSH2 0x639 JUMPI DUP2 PUSH1 0x3 NOT CALLDATASIZE ADD SLT PUSH2 0x639 JUMPI PUSH1 0x20 SWAP1 PUSH2 0x842 PUSH2 0x1A74 PUSH1 0x1 PUSH2 0x4774 JUMP JUMPDEST PUSH2 0xD4E PUSH2 0x1A81 DUP3 DUP5 PUSH2 0x44A9 JUMP JUMPDEST SWAP2 DUP4 PUSH2 0x455F JUMP JUMPDEST POP POP CALLVALUE PUSH2 0x639 JUMPI DUP2 PUSH1 0x3 NOT CALLDATASIZE ADD SLT PUSH2 0x639 JUMPI PUSH2 0x1C3 SLOAD SWAP1 MLOAD PUSH1 0x1 PUSH1 0x1 PUSH1 0xA0 SHL SUB SWAP1 SWAP2 AND DUP2 MSTORE PUSH1 0x20 SWAP1 RETURN JUMPDEST POP POP CALLVALUE PUSH2 0x639 JUMPI PUSH1 0x20 CALLDATASIZE PUSH1 0x3 NOT ADD SLT PUSH2 0x639 JUMPI PUSH1 0x4 CALLDATALOAD SWAP2 PUSH2 0x148 SWAP1 DUP2 SLOAD DUP5 LT ISZERO PUSH2 0x7B7 JUMPI POP PUSH1 0x20 SWAP3 PUSH2 0x1AE3 SWAP2 PUSH2 0x3B56 JUMP JUMPDEST SWAP2 SWAP1 SLOAD SWAP1 MLOAD SWAP2 PUSH1 0x3 SHL SHR DUP2 MSTORE RETURN JUMPDEST DUP4 CALLVALUE PUSH2 0x7B7 JUMPI PUSH1 0x20 CALLDATASIZE PUSH1 0x3 NOT ADD SLT PUSH2 0x7B7 JUMPI PUSH2 0x1B0B PUSH2 0x568B JUMP JUMPDEST PUSH1 0x4 CALLDATALOAD PUSH2 0x149 SSTORE DUP1 RETURN JUMPDEST DUP4 CALLVALUE PUSH2 0x7B7 JUMPI PUSH1 0x20 CALLDATASIZE PUSH1 0x3 NOT ADD SLT PUSH2 0x7B7 JUMPI PUSH2 0x1B2F PUSH2 0x568B JUMP JUMPDEST PUSH1 0x4 CALLDATALOAD PUSH2 0x140 SSTORE DUP1 RETURN JUMPDEST POP POP CALLVALUE PUSH2 0x639 JUMPI DUP2 PUSH1 0x3 NOT CALLDATASIZE ADD SLT PUSH2 0x639 JUMPI PUSH1 0x20 SWAP1 PUSH2 0x190 SLOAD SWAP1 MLOAD SWAP1 DUP2 MSTORE RETURN JUMPDEST DUP4 CALLVALUE PUSH2 0x7B7 JUMPI PUSH1 0x20 CALLDATASIZE PUSH1 0x3 NOT ADD SLT PUSH2 0x7B7 JUMPI PUSH2 0x1B73 PUSH2 0x568B JUMP JUMPDEST PUSH1 0x4 CALLDATALOAD PUSH2 0x141 SSTORE DUP1 RETURN JUMPDEST POP POP CALLVALUE PUSH2 0x639 JUMPI DUP2 PUSH1 0x3 NOT CALLDATASIZE ADD SLT PUSH2 0x639 JUMPI PUSH1 0x20 SWAP1 PUSH2 0x134 SLOAD SWAP1 MLOAD SWAP1 DUP2 MSTORE RETURN JUMPDEST POP POP CALLVALUE PUSH2 0x639 JUMPI DUP2 PUSH1 0x3 NOT CALLDATASIZE ADD SLT PUSH2 0x639 JUMPI PUSH1 0x20 SWAP1 PUSH2 0x142 SLOAD SWAP1 MLOAD SWAP1 DUP2 MSTORE RETURN JUMPDEST SWAP1 POP DUP3 PUSH2 0x1BCB CALLDATASIZE PUSH1 0x4 PUSH2 0x3B98 JUMP JUMPDEST PUSH2 0x1BDB SWAP9 SWAP6 SWAP2 SWAP8 SWAP3 SWAP5 SWAP4 SWAP9 PUSH2 0x4F0B JUMP JUMPDEST PUSH2 0x1BE3 PUSH2 0x5719 JUMP JUMPDEST PUSH2 0x1BEF DUP7 MLOAD SWAP4 DUP5 PUSH2 0x3CA7 JUMP JUMPDEST PUSH1 0x1 DUP1 PUSH1 0xA0 SHL SUB DUP1 SWAP9 DUP2 DUP1 SWAP5 AND DUP6 MSTORE PUSH1 0x20 SWAP11 DUP7 DUP13 DUP8 ADD MSTORE DUP9 DUP7 ADD MSTORE DUP7 PUSH1 0x60 DUP7 ADD MSTORE CALLER PUSH1 0x80 DUP7 ADD MSTORE AND PUSH1 0xA0 DUP5 ADD MSTORE AND PUSH1 0xC0 DUP3 ADD MSTORE DUP7 PUSH2 0x1C4A PUSH1 0xE4 DUP9 PUSH2 0x14F SLOAD AND SWAP4 DUP8 MLOAD SWAP5 DUP6 SWAP4 DUP5 SWAP3 PUSH4 0x6B59C22F PUSH1 0xE0 SHL DUP5 MSTORE PUSH1 0x4 DUP5 ADD SWAP1 PUSH2 0x4FD6 JUMP JUMPDEST CALLVALUE SWAP1 GAS CALL SWAP5 DUP6 ISZERO PUSH2 0x14DA JUMPI SWAP5 PUSH2 0x1C79 JUMPI JUMPDEST POP PUSH2 0x1C74 SWAP1 PUSH2 0x6DD SWAP4 SWAP5 SWAP6 PUSH2 0x133 SLOAD AND ADDRESS SWAP1 CALLER SWAP1 PUSH2 0x4EC7 JUMP JUMPDEST PUSH2 0x4EA1 JUMP JUMPDEST SWAP1 SWAP3 SWAP4 POP DUP6 DUP2 DUP2 RETURNDATASIZE DUP4 GT PUSH2 0x1CA5 JUMPI JUMPDEST PUSH2 0x1C92 DUP2 DUP4 PUSH2 0x3CA7 JUMP JUMPDEST DUP2 ADD SUB SLT PUSH2 0x70D JUMPI MLOAD SWAP3 SWAP2 PUSH2 0x1C74 PUSH2 0x1C5B JUMP JUMPDEST POP RETURNDATASIZE PUSH2 0x1C88 JUMP JUMPDEST DUP4 CALLVALUE PUSH2 0x7B7 JUMPI PUSH1 0x20 CALLDATASIZE PUSH1 0x3 NOT ADD SLT PUSH2 0x7B7 JUMPI PUSH2 0x1CC6 PUSH2 0x568B JUMP JUMPDEST PUSH1 0x4 CALLDATALOAD PUSH2 0x13B SSTORE DUP1 RETURN JUMPDEST POP POP CALLVALUE PUSH2 0x639 JUMPI DUP2 PUSH1 0x3 NOT CALLDATASIZE ADD SLT PUSH2 0x639 JUMPI PUSH1 0x20 SWAP1 PUSH2 0x156 SLOAD SWAP1 MLOAD SWAP1 DUP2 MSTORE RETURN JUMPDEST POP POP CALLVALUE PUSH2 0x639 JUMPI DUP2 PUSH1 0x3 NOT CALLDATASIZE ADD SLT PUSH2 0x639 JUMPI PUSH1 0x20 SWAP1 PUSH2 0x139 SLOAD SWAP1 MLOAD SWAP1 DUP2 MSTORE RETURN JUMPDEST DUP4 CALLVALUE PUSH2 0x7B7 JUMPI PUSH1 0x20 CALLDATASIZE PUSH1 0x3 NOT ADD SLT PUSH2 0x7B7 JUMPI PUSH2 0x1D2A PUSH2 0x568B JUMP JUMPDEST PUSH1 0x4 CALLDATALOAD PUSH2 0x154 SSTORE DUP1 RETURN JUMPDEST DUP4 CALLVALUE PUSH2 0x7B7 JUMPI PUSH1 0x20 CALLDATASIZE PUSH1 0x3 NOT ADD SLT PUSH2 0x7B7 JUMPI PUSH1 0x4 CALLDATALOAD PUSH1 0x1 PUSH1 0x1 PUSH1 0xA0 SHL SUB DUP2 AND SWAP1 DUP2 SWAP1 SUB PUSH2 0x70D JUMPI PUSH2 0x1D63 PUSH2 0x568B JUMP JUMPDEST PUSH2 0x158 DUP1 SLOAD PUSH1 0x1 PUSH1 0x1 PUSH1 0xA0 SHL SUB NOT AND SWAP1 SWAP2 OR SWAP1 SSTORE DUP1 RETURN JUMPDEST DUP4 CALLVALUE PUSH2 0x7B7 JUMPI PUSH1 0x20 CALLDATASIZE PUSH1 0x3 NOT ADD SLT PUSH2 0x7B7 JUMPI PUSH2 0x1D94 PUSH2 0x568B JUMP JUMPDEST PUSH1 0x4 CALLDATALOAD PUSH2 0x13E SSTORE DUP1 RETURN JUMPDEST POP POP CALLVALUE PUSH2 0x639 JUMPI DUP2 PUSH1 0x3 NOT CALLDATASIZE ADD SLT PUSH2 0x639 JUMPI PUSH1 0x20 SWAP1 PUSH2 0x154 SLOAD SWAP1 MLOAD SWAP1 DUP2 MSTORE RETURN JUMPDEST POP POP CALLVALUE PUSH2 0x639 JUMPI DUP2 PUSH1 0x3 NOT CALLDATASIZE ADD SLT PUSH2 0x639 JUMPI PUSH1 0x20 SWAP1 PUSH2 0x149 SLOAD SWAP1 MLOAD SWAP1 DUP2 MSTORE RETURN JUMPDEST DUP4 CALLVALUE PUSH2 0x7B7 JUMPI DUP1 PUSH1 0x3 NOT CALLDATASIZE ADD SLT PUSH2 0x7B7 JUMPI PUSH2 0x1DF7 PUSH2 0x568B JUMP JUMPDEST PUSH1 0x1 PUSH1 0xFF NOT PUSH1 0xCA SLOAD AND OR PUSH1 0xCA SSTORE DUP1 RETURN JUMPDEST POP POP CALLVALUE PUSH2 0x639 JUMPI DUP2 PUSH1 0x3 NOT CALLDATASIZE ADD SLT PUSH2 0x639 JUMPI PUSH1 0x20 SWAP1 PUSH2 0x1801 PUSH2 0x4D4A JUMP JUMPDEST DUP4 CALLVALUE PUSH2 0x7B7 JUMPI PUSH1 0x20 CALLDATASIZE PUSH1 0x3 NOT ADD SLT PUSH2 0x7B7 JUMPI PUSH2 0x1E3E PUSH2 0x568B JUMP JUMPDEST PUSH1 0x4 CALLDATALOAD PUSH2 0x159 SSTORE DUP1 RETURN JUMPDEST POP POP CALLVALUE PUSH2 0x639 JUMPI DUP2 PUSH1 0x3 NOT CALLDATASIZE ADD SLT PUSH2 0x639 JUMPI PUSH2 0x12F SLOAD SWAP1 MLOAD PUSH1 0x1 PUSH1 0x1 PUSH1 0xA0 SHL SUB SWAP1 SWAP2 AND DUP2 MSTORE PUSH1 0x20 SWAP1 RETURN JUMPDEST DUP3 DUP5 PUSH2 0x1E7F CALLDATASIZE PUSH1 0x4 PUSH2 0x3CFB JUMP JUMPDEST SWAP5 SWAP3 SWAP1 PUSH2 0x1E8A PUSH2 0x4F0B JUMP JUMPDEST PUSH2 0x1E92 PUSH2 0x5719 JUMP JUMPDEST DUP4 MLOAD SWAP2 PUSH2 0x1EA0 PUSH1 0xA0 DUP5 PUSH2 0x3CA7 JUMP JUMPDEST DUP3 MSTORE PUSH1 0x20 DUP1 DUP4 ADD DUP5 DUP2 MSTORE CALLER DUP7 DUP6 ADD MSTORE PUSH1 0x1 PUSH1 0x1 PUSH1 0xA0 SHL SUB SWAP3 DUP4 AND PUSH1 0x60 DUP6 ADD SWAP1 DUP2 MSTORE SWAP8 DUP4 AND PUSH1 0x80 DUP6 ADD SWAP1 DUP2 MSTORE PUSH2 0x14F SLOAD DUP8 MLOAD PUSH4 0xE97A4D63 PUSH1 0xE0 SHL DUP2 MSTORE DUP7 MLOAD PUSH1 0x4 DUP3 ADD MSTORE SWAP3 MLOAD PUSH1 0x24 DUP5 ADD MSTORE PUSH1 0x40 SWAP1 SWAP6 ADD MLOAD DUP5 AND PUSH1 0x44 DUP4 ADD MSTORE SWAP8 MLOAD DUP4 AND PUSH1 0x64 DUP3 ADD MSTORE SWAP7 MLOAD DUP3 AND PUSH1 0x84 DUP9 ADD MSTORE SWAP6 SWAP2 DUP7 SWAP2 DUP4 SWAP2 PUSH1 0xA4 SWAP2 DUP4 SWAP2 AND PUSH2 0x6C2 JUMP JUMPDEST POP POP CALLVALUE PUSH2 0x639 JUMPI PUSH2 0x400 CALLDATASIZE PUSH1 0x3 NOT ADD SLT PUSH2 0x639 JUMPI DUP2 SLOAD PUSH1 0xFF DUP2 PUSH1 0x8 SHR AND ISZERO SWAP1 DUP2 DUP1 SWAP3 PUSH2 0x2459 JUMPI JUMPDEST DUP1 ISZERO PUSH2 0x2442 JUMPI JUMPDEST ISZERO PUSH2 0x23E7 JUMPI PUSH1 0xFF NOT DUP2 AND PUSH1 0x1 OR DUP5 SSTORE DUP2 PUSH2 0x23D6 JUMPI JUMPDEST POP PUSH1 0xFF DUP4 SLOAD PUSH1 0x8 SHR AND PUSH2 0x1F6E DUP2 PUSH2 0x4918 JUMP JUMPDEST PUSH2 0x384 CALLDATALOAD PUSH1 0x1 PUSH1 0x1 PUSH1 0xA0 SHL SUB DUP2 AND SWAP1 DUP2 SWAP1 SUB PUSH2 0x70D JUMPI PUSH2 0x1F7 DUP1 SLOAD PUSH1 0x1 PUSH1 0x1 PUSH1 0xA0 SHL SUB NOT AND SWAP1 SWAP2 OR SWAP1 SSTORE PUSH1 0x1 PUSH1 0x1 PUSH1 0xA0 SHL SUB PUSH2 0x344 CALLDATALOAD SWAP1 DUP2 AND SWAP1 DUP2 SWAP1 SUB PUSH2 0x70D JUMPI PUSH2 0x364 CALLDATALOAD PUSH1 0x1 PUSH1 0x1 PUSH1 0xA0 SHL SUB DUP2 AND DUP2 SUB PUSH2 0x70D JUMPI PUSH1 0x1 SWAP2 PUSH2 0x1FCF DUP5 PUSH2 0x4918 JUMP JUMPDEST PUSH2 0x1FD8 DUP5 PUSH2 0x4918 JUMP JUMPDEST PUSH2 0x1FE1 DUP5 PUSH2 0x4918 JUMP JUMPDEST PUSH2 0x1FEA DUP5 PUSH2 0x4918 JUMP JUMPDEST PUSH1 0x1 PUSH1 0x1 PUSH1 0x60 SHL SUB PUSH1 0xA0 SHL PUSH1 0x97 SLOAD AND OR PUSH1 0x97 SSTORE PUSH2 0x2006 DUP4 PUSH2 0x4918 JUMP JUMPDEST PUSH1 0xCA SLOAD SWAP1 PUSH3 0x10000 DUP4 PUSH1 0xB0 SHL SUB SWAP1 PUSH1 0x10 SHL AND SWAP1 PUSH2 0xFF01 DUP4 PUSH1 0xB0 SHL SUB NOT AND OR OR PUSH1 0xCA SSTORE PUSH2 0x2031 DUP2 PUSH2 0x4918 JUMP JUMPDEST PUSH8 0xDE0B6B3A7640000 PUSH1 0xC4 CALLDATALOAD GT ISZERO PUSH2 0x23C5 JUMPI PUSH2 0x204F PUSH2 0x104 CALLDATALOAD PUSH2 0x5829 JUMP JUMPDEST PUSH2 0x205B PUSH2 0x124 CALLDATALOAD PUSH2 0x5829 JUMP JUMPDEST PUSH2 0x2067 PUSH2 0x144 CALLDATALOAD PUSH2 0x5829 JUMP JUMPDEST PUSH2 0x2073 PUSH2 0x164 CALLDATALOAD PUSH2 0x5829 JUMP JUMPDEST PUSH2 0x207F PUSH2 0x184 CALLDATALOAD PUSH2 0x5829 JUMP JUMPDEST PUSH2 0x208B PUSH2 0x1A4 CALLDATALOAD PUSH2 0x5829 JUMP JUMPDEST PUSH2 0x2097 PUSH2 0x1C4 CALLDATALOAD PUSH2 0x5829 JUMP JUMPDEST PUSH2 0x20A3 PUSH2 0x1E4 CALLDATALOAD PUSH2 0x5829 JUMP JUMPDEST PUSH2 0x20AF PUSH2 0x204 CALLDATALOAD PUSH2 0x5829 JUMP JUMPDEST PUSH2 0x20C7 PUSH2 0x20C2 PUSH2 0x244 CALLDATALOAD PUSH2 0x224 CALLDATALOAD PUSH2 0x43FA JUMP JUMPDEST PUSH2 0x5829 JUMP JUMPDEST PUSH1 0x4 CALLDATALOAD PUSH1 0x1 PUSH1 0x1 PUSH1 0xA0 SHL SUB DUP2 AND SWAP1 DUP2 SWAP1 SUB PUSH2 0x23C1 JUMPI PUSH2 0x14F DUP1 SLOAD PUSH1 0x1 PUSH1 0x1 PUSH1 0xA0 SHL SUB NOT AND SWAP1 SWAP2 OR SWAP1 SSTORE PUSH1 0x24 CALLDATALOAD PUSH1 0x1 PUSH1 0x1 PUSH1 0xA0 SHL SUB DUP2 AND DUP2 SUB PUSH2 0x70D JUMPI PUSH2 0x12F DUP1 SLOAD PUSH1 0x1 PUSH1 0x1 PUSH1 0xA0 SHL SUB NOT AND PUSH1 0x1 PUSH1 0x1 PUSH1 0xA0 SHL SUB SWAP3 DUP4 AND OR SWAP1 SSTORE PUSH1 0x44 CALLDATALOAD SWAP1 DUP2 AND DUP2 SUB PUSH2 0x70D JUMPI PUSH2 0x130 DUP1 SLOAD PUSH1 0x1 PUSH1 0x1 PUSH1 0xA0 SHL SUB NOT AND PUSH1 0x1 PUSH1 0x1 PUSH1 0xA0 SHL SUB SWAP3 DUP4 AND OR SWAP1 SSTORE PUSH1 0x64 CALLDATALOAD SWAP1 DUP2 AND DUP2 SUB PUSH2 0x70D JUMPI PUSH2 0x133 DUP1 SLOAD PUSH1 0x1 PUSH1 0x1 PUSH1 0xA0 SHL SUB NOT AND PUSH1 0x1 PUSH1 0x1 PUSH1 0xA0 SHL SUB SWAP3 DUP4 AND OR SWAP1 SSTORE PUSH1 0x84 CALLDATALOAD SWAP1 DUP2 AND DUP2 SUB PUSH2 0x70D JUMPI PUSH2 0x146 DUP1 SLOAD PUSH1 0x1 PUSH1 0x1 PUSH1 0xA0 SHL SUB NOT AND PUSH1 0x1 PUSH1 0x1 PUSH1 0xA0 SHL SUB SWAP3 DUP4 AND OR SWAP1 SSTORE PUSH1 0xA4 CALLDATALOAD SWAP1 DUP2 AND DUP2 SUB PUSH2 0x70D JUMPI PUSH2 0x147 DUP1 SLOAD PUSH1 0x1 PUSH1 0x1 PUSH1 0xA0 SHL SUB NOT AND PUSH1 0x1 PUSH1 0x1 PUSH1 0xA0 SHL SUB SWAP3 DUP4 AND OR SWAP1 SSTORE PUSH1 0xC4 CALLDATALOAD PUSH2 0x149 SSTORE PUSH1 0xE4 CALLDATALOAD PUSH2 0x14A SSTORE PUSH2 0x104 CALLDATALOAD PUSH2 0x13B SSTORE PUSH2 0x124 CALLDATALOAD PUSH2 0x13C SSTORE PUSH2 0x144 CALLDATALOAD PUSH2 0x13D SSTORE PUSH2 0x164 CALLDATALOAD PUSH2 0x13E SSTORE PUSH2 0x184 CALLDATALOAD PUSH2 0x13F SSTORE PUSH2 0x1A4 CALLDATALOAD PUSH2 0x140 SSTORE PUSH2 0x1C4 CALLDATALOAD PUSH2 0x141 SSTORE PUSH2 0x1E4 CALLDATALOAD PUSH2 0x142 SSTORE PUSH2 0x204 CALLDATALOAD PUSH2 0x143 SSTORE PUSH2 0x224 CALLDATALOAD PUSH2 0x139 SSTORE PUSH2 0x244 CALLDATALOAD PUSH2 0x13A SSTORE PUSH2 0x264 CALLDATALOAD PUSH2 0x14C DUP2 SWAP1 SSTORE SWAP1 PUSH2 0x284 CALLDATALOAD SWAP1 DUP2 AND SWAP1 DUP2 SWAP1 SUB PUSH2 0x70D JUMPI PUSH2 0x158 DUP1 SLOAD PUSH1 0x1 PUSH1 0x1 PUSH1 0xA0 SHL SUB NOT AND SWAP1 SWAP2 OR SWAP1 SSTORE PUSH2 0x2A4 CALLDATALOAD PUSH2 0x159 SSTORE PUSH2 0x2C4 CALLDATALOAD PUSH2 0x15A DUP2 SWAP1 SSTORE SWAP1 PUSH1 0x1 PUSH1 0x1 PUSH1 0xA0 SHL SUB PUSH2 0x2E4 CALLDATALOAD SWAP1 DUP2 AND SWAP1 DUP2 SWAP1 SUB PUSH2 0x70D JUMPI PUSH2 0x152 DUP1 SLOAD PUSH1 0x1 PUSH1 0x1 PUSH1 0xA0 SHL SUB NOT AND SWAP1 SWAP2 OR SWAP1 SSTORE PUSH1 0x1 PUSH1 0x1 PUSH1 0xA0 SHL SUB PUSH2 0x304 CALLDATALOAD SWAP1 DUP2 AND SWAP1 DUP2 SWAP1 SUB PUSH2 0x70D JUMPI PUSH2 0x153 SWAP1 PUSH1 0x1 PUSH1 0x1 PUSH1 0x60 SHL SUB PUSH1 0xA0 SHL DUP3 SLOAD AND OR SWAP1 SSTORE PUSH2 0x324 CALLDATALOAD PUSH2 0x154 SSTORE NUMBER PUSH2 0x157 SSTORE NUMBER ADD PUSH2 0x14D SSTORE NUMBER ADD PUSH2 0x15B SSTORE PUSH2 0x14B PUSH2 0xFFFF NOT DUP2 SLOAD AND SWAP1 SSTORE PUSH2 0x3A4 CALLDATALOAD PUSH2 0x22F4 DUP3 PUSH2 0x4918 JUMP JUMPDEST DUP1 ISZERO PUSH2 0x23B0 JUMPI PUSH2 0x190 DUP2 SWAP1 SSTORE NUMBER ADD PUSH2 0x18F SSTORE PUSH2 0x3C4 CALLDATALOAD PUSH1 0x1 PUSH1 0x1 PUSH1 0xA0 SHL SUB DUP2 AND DUP2 SUB PUSH2 0x70D JUMPI PUSH2 0x2326 PUSH2 0x2348 SWAP3 PUSH2 0x4918 JUMP JUMPDEST PUSH2 0x1C3 DUP1 SLOAD PUSH1 0x1 PUSH1 0x1 PUSH1 0xA0 SHL SUB NOT AND PUSH1 0x1 PUSH1 0x1 PUSH1 0xA0 SHL SUB SWAP1 SWAP3 AND SWAP2 SWAP1 SWAP2 OR SWAP1 SSTORE JUMP JUMPDEST PUSH2 0x3E4 CALLDATALOAD PUSH1 0x1 PUSH1 0x1 PUSH1 0xA0 SHL SUB DUP2 AND SWAP1 DUP2 SWAP1 SUB PUSH2 0x70D JUMPI PUSH2 0x22A DUP1 SLOAD PUSH1 0x1 PUSH1 0x1 PUSH1 0xA0 SHL SUB NOT AND SWAP1 SWAP2 OR SWAP1 SSTORE PUSH2 0x237A JUMPI POP DUP1 RETURN JUMPDEST PUSH1 0x20 PUSH32 0x7F26B83FF96E1F2B6A682F133852F6798A09C465DA95921460CEFB3847402498 SWAP2 PUSH2 0xFF00 NOT DUP5 SLOAD AND DUP5 SSTORE MLOAD PUSH1 0x1 DUP2 MSTORE LOG1 DUP1 RETURN JUMPDEST DUP4 MLOAD PUSH4 0x2A9FFAB7 PUSH1 0xE2 SHL DUP2 MSTORE PUSH1 0x4 SWAP1 REVERT JUMPDEST DUP5 DUP1 REVERT JUMPDEST DUP3 MLOAD PUSH4 0x2A9FFAB7 PUSH1 0xE2 SHL DUP2 MSTORE PUSH1 0x4 SWAP1 REVERT JUMPDEST PUSH2 0xFFFF NOT AND PUSH2 0x101 OR DUP4 SSTORE CODESIZE PUSH2 0x1F5C JUMP JUMPDEST DUP3 MLOAD PUSH3 0x461BCD PUSH1 0xE5 SHL DUP2 MSTORE PUSH1 0x20 PUSH1 0x4 DUP3 ADD MSTORE PUSH1 0x2E PUSH1 0x24 DUP3 ADD MSTORE PUSH32 0x496E697469616C697A61626C653A20636F6E747261637420697320616C726561 PUSH1 0x44 DUP3 ADD MSTORE PUSH14 0x191E481A5B9A5D1A585B1A5E9959 PUSH1 0x92 SHL PUSH1 0x64 DUP3 ADD MSTORE PUSH1 0x84 SWAP1 REVERT JUMPDEST POP ADDRESS EXTCODESIZE ISZERO DUP1 ISZERO PUSH2 0x1F47 JUMPI POP PUSH1 0x1 PUSH1 0xFF DUP3 AND EQ PUSH2 0x1F47 JUMP JUMPDEST POP PUSH1 0x1 PUSH1 0xFF DUP3 AND LT PUSH2 0x1F40 JUMP JUMPDEST POP POP CALLVALUE PUSH2 0x639 JUMPI DUP2 PUSH1 0x3 NOT CALLDATASIZE ADD SLT PUSH2 0x639 JUMPI PUSH2 0x133 SLOAD SWAP1 MLOAD PUSH1 0x1 PUSH1 0x1 PUSH1 0xA0 SHL SUB SWAP1 SWAP2 AND DUP2 MSTORE PUSH1 0x20 SWAP1 RETURN JUMPDEST DUP4 CALLVALUE PUSH2 0x7B7 JUMPI DUP1 PUSH1 0x3 NOT CALLDATASIZE ADD SLT PUSH2 0x7B7 JUMPI PUSH1 0x34 PUSH2 0x1F6 SSTORE DUP1 RETURN JUMPDEST POP POP CALLVALUE PUSH2 0x639 JUMPI DUP2 PUSH1 0x3 NOT CALLDATASIZE ADD SLT PUSH2 0x639 JUMPI PUSH1 0x20 SWAP1 PUSH2 0x14E SLOAD SWAP1 MLOAD SWAP1 DUP2 MSTORE RETURN JUMPDEST POP POP CALLVALUE PUSH2 0x639 JUMPI DUP2 PUSH1 0x3 NOT CALLDATASIZE ADD SLT PUSH2 0x639 JUMPI PUSH1 0x20 SWAP1 PUSH1 0xFF PUSH1 0xCA SLOAD PUSH1 0x8 SHR AND SWAP1 MLOAD SWAP1 ISZERO ISZERO DUP2 MSTORE RETURN JUMPDEST POP POP CALLVALUE PUSH2 0x639 JUMPI DUP2 PUSH1 0x3 NOT CALLDATASIZE ADD SLT PUSH2 0x639 JUMPI PUSH2 0x250B PUSH2 0x5719 JUMP JUMPDEST PUSH2 0x14D DUP1 SLOAD NUMBER LT PUSH2 0x26DB JUMPI PUSH2 0x14C SLOAD NUMBER ADD SWAP1 SSTORE PUSH32 0xD3C59BDA47E141A8EC5A33D241B7F71B86E30D359F83A9227D912858B60404FC DUP3 DUP1 LOG1 PUSH2 0x137 SLOAD DUP3 PUSH2 0x2550 DUP3 PUSH2 0x46C1 JUMP JUMPDEST SWAP2 DUP5 JUMPDEST DUP2 DUP2 LT PUSH2 0x260C JUMPI POP POP DUP1 PUSH2 0x25C7 JUMPI JUMPDEST SWAP2 DUP1 MLOAD SWAP3 DUP2 DUP5 ADD SWAP1 DUP5 MSTORE PUSH1 0x20 SWAP2 DUP3 DUP6 ADD MSTORE DUP3 MLOAD DUP1 SWAP2 MSTORE DUP2 PUSH1 0x60 DUP6 ADD SWAP4 ADD SWAP2 DUP6 JUMPDEST DUP3 DUP2 LT PUSH2 0x25B3 JUMPI DUP7 PUSH32 0xAE5116A8119D08673A0F1DFA7546B95DA4BD54BB17FEDA7C61130AC7859152F6 DUP8 DUP8 SUB DUP9 LOG1 DUP1 RETURN JUMPDEST DUP4 MLOAD DUP6 MSTORE SWAP4 DUP2 ADD SWAP4 SWAP3 DUP2 ADD SWAP3 PUSH1 0x1 ADD PUSH2 0x2582 JUMP JUMPDEST PUSH2 0x25DE PUSH8 0xDE0B6B3A7640000 SWAP2 PUSH2 0x139 SLOAD SWAP1 PUSH2 0x452C JUMP JUMPDEST DIV PUSH2 0x131 PUSH2 0x25ED DUP3 DUP3 SLOAD PUSH2 0x431F JUMP JUMPDEST SWAP1 SSTORE PUSH2 0x146 SLOAD PUSH2 0x2607 SWAP1 DUP3 SWAP1 PUSH1 0x1 PUSH1 0x1 PUSH1 0xA0 SHL SUB AND PUSH2 0x41C9 JUMP JUMPDEST PUSH2 0x2562 JUMP JUMPDEST PUSH2 0x2615 DUP2 PUSH2 0x472D JUMP JUMPDEST PUSH2 0x261F DUP2 DUP4 PUSH2 0x4A5A JUMP JUMPDEST DUP7 PUSH2 0x150 SWAP2 DUP7 PUSH2 0x262F DUP6 DUP6 PUSH2 0x3B56 JUMP JUMPDEST SWAP1 SLOAD SWAP1 PUSH1 0x3 SHL SHR SWAP2 DUP4 DUP4 SGT PUSH2 0x264C JUMPI JUMPDEST POP POP POP POP POP PUSH1 0x1 ADD PUSH2 0x2553 JUMP JUMPDEST SWAP5 PUSH2 0x2691 DUP4 DUP3 SWAP7 SWAP10 PUSH2 0x2697 SWAP5 PUSH2 0x268B DUP6 PUSH2 0x267E PUSH2 0x2684 PUSH2 0x26AE SWAP11 PUSH1 0x1 SWAP15 PUSH8 0xDE0B6B3A7640000 SWAP4 DUP5 SWAP2 PUSH2 0x13A SLOAD PUSH2 0x452C JUMP JUMPDEST DIV PUSH2 0x452C JUMP JUMPDEST DIV SWAP3 PUSH2 0x4407 JUMP JUMPDEST MSTORE PUSH2 0x43FA JUMP JUMPDEST SWAP8 PUSH2 0x3B56 JUMP JUMPDEST DUP2 SWAP4 SWAP2 SLOAD SWAP1 PUSH1 0x3 SHL SWAP2 DUP3 SHL SWAP2 PUSH1 0x0 NOT SWAP1 SHL NOT AND OR SWAP1 JUMP JUMPDEST SWAP1 SSTORE PUSH2 0x26D1 PUSH2 0x26BD DUP3 DUP8 PUSH2 0x4407 JUMP JUMPDEST MLOAD DUP9 DUP5 DUP1 PUSH1 0xA0 SHL SUB PUSH2 0x147 SLOAD AND SWAP2 DUP5 PUSH2 0x499A JUMP JUMPDEST SWAP1 DUP7 CODESIZE DUP7 DUP2 PUSH2 0x263F JUMP JUMPDEST DUP2 MLOAD PUSH4 0x101B6859 PUSH1 0xE0 SHL DUP2 MSTORE PUSH1 0x4 SWAP1 REVERT JUMPDEST DUP3 DUP5 CALLVALUE PUSH2 0x7B7 JUMPI DUP2 PUSH1 0x3 NOT CALLDATASIZE ADD SLT PUSH2 0x7B7 JUMPI PUSH1 0x1 PUSH1 0x1 PUSH1 0xA0 SHL SUB PUSH1 0x4 CALLDATALOAD DUP2 DUP2 AND DUP2 SUB PUSH2 0x70D JUMPI PUSH1 0x24 CALLDATALOAD SWAP2 PUSH2 0x14F SLOAD AND CALLER SUB PUSH2 0xAC5 JUMPI SWAP1 PUSH2 0xAC2 SWAP2 PUSH2 0x14E DUP3 DUP2 SLOAD SUB SWAP1 SSTORE PUSH2 0x41C9 JUMP JUMPDEST POP POP CALLVALUE PUSH2 0x639 JUMPI DUP2 PUSH1 0x3 NOT CALLDATASIZE ADD SLT PUSH2 0x639 JUMPI PUSH1 0x20 SWAP1 PUSH2 0x157 SLOAD SWAP1 MLOAD SWAP1 DUP2 MSTORE RETURN JUMPDEST POP POP CALLVALUE PUSH2 0x639 JUMPI DUP2 PUSH1 0x3 NOT CALLDATASIZE ADD SLT PUSH2 0x639 JUMPI PUSH1 0x20 SWAP1 PUSH2 0x842 PUSH2 0x1F6 SLOAD PUSH8 0xDE0B6B3A7640000 PUSH2 0x149 SLOAD DIV SWAP1 PUSH2 0x43FA JUMP JUMPDEST DUP4 CALLVALUE PUSH2 0x7B7 JUMPI PUSH1 0x20 CALLDATASIZE PUSH1 0x3 NOT ADD SLT PUSH2 0x7B7 JUMPI PUSH2 0x279E PUSH2 0x568B JUMP JUMPDEST PUSH1 0x4 CALLDATALOAD PUSH2 0x143 SSTORE DUP1 RETURN JUMPDEST DUP3 DUP5 CALLVALUE PUSH2 0x7B7 JUMPI DUP2 PUSH1 0x3 NOT CALLDATASIZE ADD SLT PUSH2 0x7B7 JUMPI PUSH1 0x1 PUSH1 0x1 PUSH1 0xA0 SHL SUB PUSH1 0x4 CALLDATALOAD DUP2 DUP2 AND DUP2 SUB PUSH2 0x70D JUMPI DUP2 PUSH2 0x14F SLOAD AND CALLER SUB PUSH2 0xAC5 JUMPI SWAP1 PUSH2 0xAC2 SWAP2 PUSH1 0x24 CALLDATALOAD SWAP2 PUSH2 0x133 SLOAD AND PUSH2 0x5652 JUMP JUMPDEST DUP4 CALLVALUE PUSH2 0x7B7 JUMPI PUSH1 0x20 CALLDATASIZE PUSH1 0x3 NOT ADD SLT PUSH2 0x7B7 JUMPI PUSH1 0x4 CALLDATALOAD PUSH1 0x1 PUSH1 0x1 PUSH1 0xA0 SHL SUB DUP2 AND DUP2 SUB PUSH2 0x70D JUMPI PUSH2 0xAC2 SWAP1 PUSH2 0x2326 PUSH2 0x568B JUMP JUMPDEST DUP3 DUP5 CALLVALUE PUSH2 0x7B7 JUMPI DUP1 PUSH1 0x3 NOT CALLDATASIZE ADD SLT PUSH2 0x7B7 JUMPI POP PUSH32 0x0 PUSH1 0x1 PUSH1 0x1 PUSH1 0xA0 SHL SUB AND ADDRESS SUB PUSH2 0x288A JUMPI PUSH1 0x20 SWAP1 MLOAD PUSH32 0x360894A13BA1A3210667C828492DB98DCA3E2076CC3735A920A3CA505D382BBC DUP2 MSTORE RETURN JUMPDEST MLOAD PUSH3 0x461BCD PUSH1 0xE5 SHL DUP2 MSTORE PUSH1 0x20 PUSH1 0x4 DUP3 ADD MSTORE PUSH1 0x38 PUSH1 0x24 DUP3 ADD MSTORE PUSH32 0x555550535570677261646561626C653A206D757374206E6F742062652063616C PUSH1 0x44 DUP3 ADD MSTORE PUSH32 0x6C6564207468726F7567682064656C656761746563616C6C0000000000000000 PUSH1 0x64 DUP3 ADD MSTORE PUSH1 0x84 SWAP1 REVERT JUMPDEST DUP4 CALLVALUE PUSH2 0x7B7 JUMPI DUP1 PUSH1 0x3 NOT CALLDATASIZE ADD SLT PUSH2 0x7B7 JUMPI PUSH2 0x290C PUSH2 0x568B JUMP JUMPDEST PUSH1 0xFF NOT PUSH1 0xCA SLOAD AND PUSH1 0xCA SSTORE DUP1 RETURN JUMPDEST POP POP DUP1 PUSH1 0x3 NOT CALLDATASIZE ADD SLT PUSH2 0x639 JUMPI PUSH1 0x4 CALLDATALOAD SWAP1 PUSH1 0x1 PUSH1 0x1 PUSH1 0xA0 SHL SUB SWAP1 DUP2 DUP4 AND DUP4 SUB PUSH2 0x70D JUMPI DUP4 SWAP3 PUSH1 0x24 CALLDATALOAD SWAP3 PUSH8 0xFFFFFFFFFFFFFFFF DUP5 GT PUSH2 0x23C1 JUMPI CALLDATASIZE PUSH1 0x23 DUP6 ADD SLT ISZERO PUSH2 0x23C1 JUMPI DUP4 PUSH1 0x4 ADD CALLDATALOAD SWAP1 PUSH2 0x2977 PUSH2 0x296E DUP4 PUSH2 0x3CDF JUMP JUMPDEST SWAP5 MLOAD SWAP5 DUP6 PUSH2 0x3CA7 JUMP JUMPDEST DUP2 DUP5 MSTORE CALLDATASIZE PUSH1 0x24 DUP4 DUP8 ADD ADD GT PUSH2 0x2A05 JUMPI PUSH2 0xAC2 SWAP6 PUSH1 0x20 DUP4 PUSH2 0x29F8 SWAP5 PUSH1 0x24 PUSH1 0x1 SWAP10 ADD DUP4 DUP10 ADD CALLDATACOPY DUP7 ADD ADD MSTORE DUP1 PUSH32 0x0 AND SWAP1 PUSH2 0x29CF DUP3 ADDRESS EQ ISZERO PUSH2 0x3D21 JUMP JUMPDEST PUSH32 0x360894A13BA1A3210667C828492DB98DCA3E2076CC3735A920A3CA505D382BBC SLOAD AND EQ PUSH2 0x3D82 JUMP JUMPDEST PUSH2 0x2A00 PUSH2 0x568B JUMP JUMPDEST PUSH2 0x3DE3 JUMP JUMPDEST DUP6 DUP1 REVERT JUMPDEST POP POP CALLVALUE PUSH2 0x639 JUMPI DUP2 PUSH1 0x3 NOT CALLDATASIZE ADD SLT PUSH2 0x639 JUMPI PUSH1 0x20 SWAP1 PUSH2 0x13B SLOAD SWAP1 MLOAD SWAP1 DUP2 MSTORE RETURN JUMPDEST POP POP CALLVALUE PUSH2 0x639 JUMPI DUP2 PUSH1 0x3 NOT CALLDATASIZE ADD SLT PUSH2 0x639 JUMPI PUSH2 0x147 SLOAD SWAP1 MLOAD PUSH1 0x1 PUSH1 0x1 PUSH1 0xA0 SHL SUB SWAP1 SWAP2 AND DUP2 MSTORE PUSH1 0x20 SWAP1 RETURN JUMPDEST POP POP CALLVALUE PUSH2 0x639 JUMPI DUP2 PUSH1 0x3 NOT CALLDATASIZE ADD SLT PUSH2 0x639 JUMPI PUSH1 0x20 SWAP1 PUSH2 0x14C SLOAD SWAP1 MLOAD SWAP1 DUP2 MSTORE RETURN JUMPDEST POP POP CALLVALUE PUSH2 0x639 JUMPI PUSH1 0x20 CALLDATASIZE PUSH1 0x3 NOT ADD SLT PUSH2 0x639 JUMPI PUSH1 0x4 CALLDATALOAD PUSH2 0x137 DUP1 SLOAD DUP3 LT ISZERO PUSH2 0x9E6 JUMPI SWAP1 PUSH2 0x2A9F SWAP2 PUSH2 0x3C8B JUMP JUMPDEST POP DUP1 SLOAD PUSH1 0x1 SWAP1 SWAP2 ADD SLOAD DUP3 MLOAD SWAP2 DUP3 MSTORE PUSH1 0x1 PUSH1 0x1 PUSH1 0xA0 SHL SUB AND PUSH1 0x20 DUP3 ADD MSTORE RETURN JUMPDEST DUP4 SWAP2 POP CALLVALUE PUSH2 0x639 JUMPI CALLDATASIZE PUSH1 0x3 NOT ADD SLT PUSH2 0x7B7 JUMPI POP PUSH2 0x2AD8 PUSH2 0x5026 JUMP JUMPDEST POP PUSH2 0x14F SLOAD PUSH1 0x1 PUSH1 0x1 PUSH1 0xA0 SHL SUB SWAP1 DUP2 AND CALLER SUB PUSH2 0x119E JUMPI PUSH2 0xCE4 PUSH2 0xCDA SWAP2 PUSH2 0x2B00 CALLDATASIZE PUSH1 0x4 PUSH2 0x55DF JUMP JUMPDEST SWAP4 PUSH2 0x2B09 PUSH2 0x5026 JUMP JUMPDEST POP PUSH2 0x2B12 PUSH2 0x4F0B JUMP JUMPDEST PUSH2 0x2B1A PUSH2 0x5719 JUMP JUMPDEST PUSH2 0x1160 PUSH2 0xC7A DUP3 MLOAD PUSH4 0xD9B6C2E5 PUSH1 0xE0 SHL PUSH1 0x20 DUP3 ADD MSTORE PUSH2 0xC5F PUSH1 0x24 DUP3 ADD DUP10 PUSH2 0x4FD6 JUMP JUMPDEST DUP3 DUP5 CALLVALUE PUSH2 0x7B7 JUMPI DUP2 PUSH1 0x3 NOT CALLDATASIZE ADD SLT PUSH2 0x7B7 JUMPI POP PUSH1 0x4 CALLDATALOAD PUSH1 0x1 PUSH1 0x1 PUSH1 0xA0 SHL SUB DUP2 DUP2 AND SWAP2 DUP3 SWAP1 SUB PUSH2 0x70D JUMPI PUSH1 0x24 CALLDATALOAD SWAP2 DUP2 DUP4 AND SWAP2 DUP3 DUP5 SUB PUSH2 0x70D JUMPI PUSH2 0x2BC8 SWAP3 PUSH2 0x2B80 PUSH2 0x5719 JUMP JUMPDEST PUSH2 0x2B89 ADDRESS PUSH2 0x437F JUMP JUMPDEST SWAP1 DUP7 MLOAD SWAP4 PUSH4 0x2AB7831F PUSH1 0xE0 SHL PUSH1 0x20 DUP7 ADD MSTORE PUSH1 0x24 DUP6 ADD MSTORE CALLER PUSH1 0x44 DUP6 ADD MSTORE PUSH1 0x64 DUP5 ADD MSTORE PUSH1 0x84 DUP4 ADD MSTORE PUSH1 0x84 DUP3 MSTORE PUSH2 0x2BBE PUSH1 0xA4 DUP4 PUSH2 0x3CA7 JUMP JUMPDEST PUSH2 0x1F7 SLOAD AND PUSH2 0x4978 JUMP JUMPDEST SWAP2 PUSH1 0x20 DUP4 DUP1 MLOAD DUP2 ADD SUB SLT PUSH2 0x70D JUMPI PUSH2 0x6DD PUSH1 0x20 DUP1 SWAP5 ADD MLOAD DUP1 SWAP4 PUSH2 0x41C9 JUMP JUMPDEST POP POP CALLVALUE PUSH2 0x639 JUMPI DUP2 PUSH1 0x3 NOT CALLDATASIZE ADD SLT PUSH2 0x639 JUMPI PUSH1 0x20 SWAP1 PUSH2 0x13E SLOAD SWAP1 MLOAD SWAP1 DUP2 MSTORE RETURN JUMPDEST POP POP CALLVALUE PUSH2 0x639 JUMPI DUP2 PUSH1 0x3 NOT CALLDATASIZE ADD SLT PUSH2 0x639 JUMPI PUSH1 0x20 SWAP1 PUSH2 0x842 PUSH2 0x2C31 PUSH2 0x2C29 PUSH2 0x4D4A JUMP JUMPDEST SWAP2 SWAP1 SWAP2 PUSH2 0x441B JUMP JUMPDEST SWAP2 PUSH2 0x4B40 JUMP JUMPDEST POP POP CALLVALUE PUSH2 0x639 JUMPI DUP2 PUSH1 0x3 NOT CALLDATASIZE ADD SLT PUSH2 0x639 JUMPI PUSH1 0xCA SLOAD PUSH1 0xFF DUP2 PUSH1 0x8 SHR AND ISZERO PUSH2 0x2D32 JUMPI PUSH1 0x1 DUP1 PUSH1 0xA0 SHL SUB DUP1 DUP3 PUSH1 0x10 SHR AND CALLER EQ ISZERO SWAP1 DUP2 PUSH2 0x2CB2 JUMPI JUMPDEST POP PUSH2 0x19FE JUMPI PUSH1 0xFF DUP2 AND ISZERO PUSH2 0x19ED JUMPI PUSH2 0xFF00 NOT AND PUSH1 0xCA SSTORE MLOAD CALLER DUP2 MSTORE PUSH32 0x5DB9EE0A495BF2E6FF9C91A7834C1BA4FDD244A5E8AA4E537BD38AEAE4B073AA SWAP1 PUSH1 0x20 SWAP1 LOG1 DUP1 RETURN JUMPDEST PUSH1 0x97 SLOAD DUP5 MLOAD PUSH4 0xD994D6D5 PUSH1 0xE0 SHL DUP2 MSTORE CALLER PUSH1 0x4 DUP3 ADD MSTORE SWAP3 POP PUSH1 0x20 SWAP2 DUP4 SWAP2 PUSH1 0x24 SWAP2 DUP4 SWAP2 AND GAS STATICCALL SWAP1 DUP2 ISZERO PUSH2 0x2D25 JUMPI DUP5 SWAP2 PUSH2 0x2CEC JUMPI JUMPDEST POP ISZERO CODESIZE PUSH2 0x2C6F JUMP JUMPDEST SWAP1 POP PUSH1 0x20 DUP2 RETURNDATASIZE DUP3 GT PUSH2 0x2D1D JUMPI JUMPDEST DUP2 PUSH2 0x2D06 PUSH1 0x20 SWAP4 DUP4 PUSH2 0x3CA7 JUMP JUMPDEST DUP2 ADD SUB SLT PUSH2 0x9E6 JUMPI PUSH2 0x2D17 SWAP1 PUSH2 0x4220 JUMP JUMPDEST CODESIZE PUSH2 0x2CE4 JUMP JUMPDEST RETURNDATASIZE SWAP2 POP PUSH2 0x2CF9 JUMP JUMPDEST POP POP POP MLOAD SWAP1 RETURNDATASIZE SWAP1 DUP3 RETURNDATACOPY RETURNDATASIZE SWAP1 REVERT JUMPDEST DUP2 MLOAD PUSH4 0x7C7FD079 PUSH1 0xE0 SHL DUP2 MSTORE PUSH1 0x4 SWAP1 REVERT JUMPDEST DUP4 CALLVALUE PUSH2 0x7B7 JUMPI PUSH1 0x20 CALLDATASIZE PUSH1 0x3 NOT ADD SLT PUSH2 0x7B7 JUMPI PUSH1 0x4 CALLDATALOAD PUSH1 0x1 PUSH1 0x1 PUSH1 0xA0 SHL SUB DUP2 AND SWAP1 DUP2 SWAP1 SUB PUSH2 0x639 JUMPI PUSH2 0x2D72 PUSH2 0x568B JUMP JUMPDEST PUSH2 0x14F DUP1 SLOAD PUSH1 0x1 PUSH1 0x1 PUSH1 0xA0 SHL SUB NOT AND SWAP1 SWAP2 OR SWAP1 SSTORE DUP1 RETURN JUMPDEST DUP4 CALLVALUE PUSH2 0x7B7 JUMPI PUSH1 0x20 CALLDATASIZE PUSH1 0x3 NOT ADD SLT PUSH2 0x7B7 JUMPI PUSH2 0x2DA3 PUSH2 0x568B JUMP JUMPDEST PUSH1 0x4 CALLDATALOAD PUSH2 0x190 SSTORE DUP1 RETURN JUMPDEST DUP4 DUP4 CALLVALUE PUSH2 0x639 JUMPI PUSH2 0x100 SWAP2 DUP3 PUSH1 0x3 NOT CALLDATASIZE ADD SLT PUSH2 0x7B7 JUMPI POP PUSH2 0x2DCC PUSH2 0x5026 JUMP JUMPDEST POP PUSH2 0x14F SLOAD PUSH1 0x1 PUSH1 0x1 PUSH1 0xA0 SHL SUB SWAP3 SWAP1 DUP4 AND CALLER SUB PUSH2 0x119E JUMPI PUSH2 0x2DEF DUP3 MLOAD SWAP2 DUP3 PUSH2 0x3CA7 JUMP JUMPDEST PUSH1 0x4 CALLDATALOAD DUP4 DUP2 AND DUP2 SUB PUSH2 0x70D JUMPI DUP2 MSTORE PUSH1 0x24 CALLDATALOAD DUP4 DUP2 AND DUP2 SUB PUSH2 0x70D JUMPI PUSH1 0x20 DUP3 ADD MSTORE PUSH1 0x44 CALLDATALOAD DUP3 DUP3 ADD MSTORE PUSH1 0x64 CALLDATALOAD PUSH1 0x60 DUP3 ADD MSTORE PUSH1 0x80 DUP2 ADD SWAP2 PUSH1 0x84 CALLDATALOAD DUP4 MSTORE PUSH1 0xA4 CALLDATALOAD SWAP1 DUP5 DUP3 AND DUP3 SUB PUSH2 0x70D JUMPI PUSH1 0xA0 DUP4 ADD SWAP2 DUP3 MSTORE PUSH1 0xC4 CALLDATALOAD DUP6 DUP2 AND DUP2 SUB PUSH2 0x70D JUMPI PUSH1 0xC0 DUP5 ADD MSTORE PUSH1 0xE4 CALLDATALOAD SWAP3 DUP6 DUP5 AND DUP5 SUB PUSH2 0x70D JUMPI DUP6 PUSH2 0xCE4 SWAP6 PUSH2 0x2EAB PUSH2 0xC7A PUSH2 0x8E8 PUSH2 0xC6F DUP7 PUSH2 0x1386 SWAP14 PUSH2 0xCDA SWAP9 ADD SWAP11 DUP12 MSTORE PUSH2 0x2E7F PUSH2 0x5026 JUMP JUMPDEST POP PUSH2 0x2E88 PUSH2 0x4F0B JUMP JUMPDEST PUSH2 0x2E90 PUSH2 0x5719 JUMP JUMPDEST DUP9 MLOAD PUSH4 0x70F090ED PUSH1 0xE1 SHL PUSH1 0x20 DUP3 ADD MSTORE SWAP3 DUP4 SWAP2 PUSH1 0x24 DUP4 ADD PUSH2 0x4F72 JUMP JUMPDEST SWAP9 SWAP3 DUP1 SWAP12 DUP11 SWAP7 SWAP4 SWAP14 SWAP3 SWAP10 DUP7 MLOAD PUSH2 0x137B PUSH2 0x14E SWAP2 DUP3 SLOAD PUSH2 0x431F JUMP JUMPDEST POP POP CALLVALUE PUSH2 0x639 JUMPI PUSH1 0x20 CALLDATASIZE PUSH1 0x3 NOT ADD SLT PUSH2 0x639 JUMPI PUSH1 0x4 CALLDATALOAD SWAP2 PUSH2 0x138 SWAP1 DUP2 SLOAD DUP5 LT ISZERO PUSH2 0x7B7 JUMPI POP PUSH1 0x20 SWAP3 PUSH2 0x1AE3 SWAP2 PUSH2 0x3B56 JUMP JUMPDEST POP POP CALLVALUE PUSH2 0x639 JUMPI PUSH1 0x20 CALLDATASIZE PUSH1 0x3 NOT ADD SLT PUSH2 0x639 JUMPI PUSH1 0x4 CALLDATALOAD SWAP1 PUSH1 0x1 PUSH1 0x1 PUSH1 0xA0 SHL SUB SWAP1 DUP2 DUP4 AND DUP4 SUB PUSH2 0x70D JUMPI PUSH2 0xAC2 SWAP3 PUSH2 0x2F58 DUP4 DUP7 SWAP5 PUSH32 0x0 AND SWAP1 PUSH2 0x29CF DUP3 ADDRESS EQ ISZERO PUSH2 0x3D21 JUMP JUMPDEST PUSH2 0x2F60 PUSH2 0x568B JUMP JUMPDEST PUSH2 0x2F75 PUSH2 0x2F6C DUP5 PUSH2 0x3CDF JUMP JUMPDEST SWAP3 MLOAD SWAP3 DUP4 PUSH2 0x3CA7 JUMP JUMPDEST DUP3 DUP3 MSTORE PUSH1 0x1F NOT PUSH2 0x2F84 DUP5 PUSH2 0x3CDF JUMP JUMPDEST ADD CALLDATASIZE PUSH1 0x20 DUP5 ADD CALLDATACOPY PUSH2 0x3DE3 JUMP JUMPDEST DUP3 DUP5 PUSH2 0x2F9D CALLDATASIZE PUSH1 0x4 PUSH2 0x3B98 JUMP JUMPDEST SWAP7 SWAP5 PUSH2 0x2FAD SWAP9 SWAP2 SWAP4 SWAP5 SWAP3 SWAP9 PUSH2 0x4F0B JUMP JUMPDEST PUSH2 0x2FB5 PUSH2 0x5719 JUMP JUMPDEST PUSH2 0x2FC1 DUP7 MLOAD SWAP3 DUP4 PUSH2 0x3CA7 JUMP JUMPDEST PUSH1 0x1 DUP1 PUSH1 0xA0 SHL SUB SWAP8 DUP9 DUP1 DUP1 SWAP4 AND SWAP6 DUP7 DUP6 MSTORE PUSH1 0x20 SWAP12 DUP7 DUP14 DUP8 ADD MSTORE DUP9 DUP11 DUP8 ADD MSTORE PUSH1 0x60 DUP7 ADD MSTORE CALLER PUSH1 0x80 DUP7 ADD MSTORE AND PUSH1 0xA0 DUP5 ADD MSTORE AND PUSH1 0xC0 DUP3 ADD MSTORE DUP8 PUSH2 0x301E PUSH1 0xE4 DUP10 PUSH2 0x14F SLOAD AND SWAP4 DUP9 MLOAD SWAP5 DUP6 SWAP4 DUP5 SWAP3 PUSH4 0xE4E1B729 PUSH1 0xE0 SHL DUP5 MSTORE PUSH1 0x4 DUP5 ADD SWAP1 PUSH2 0x4FD6 JUMP JUMPDEST CALLVALUE SWAP1 GAS CALL SWAP6 DUP7 ISZERO PUSH2 0x3084 JUMPI SWAP6 PUSH2 0x3051 JUMPI JUMPDEST POP PUSH2 0x3048 SWAP1 PUSH2 0x6DD SWAP5 SWAP6 SWAP7 PUSH2 0x133 SLOAD AND ADDRESS SWAP1 CALLER SWAP1 PUSH2 0x4EC7 JUMP JUMPDEST ADDRESS SWAP1 CALLER SWAP1 PUSH2 0x4EC7 JUMP JUMPDEST SWAP1 SWAP4 SWAP5 POP DUP7 DUP2 DUP2 RETURNDATASIZE DUP4 GT PUSH2 0x307D JUMPI JUMPDEST PUSH2 0x306A DUP2 DUP4 PUSH2 0x3CA7 JUMP JUMPDEST DUP2 ADD SUB SLT PUSH2 0x70D JUMPI MLOAD SWAP4 SWAP3 PUSH2 0x3048 PUSH2 0x302F JUMP JUMPDEST POP RETURNDATASIZE PUSH2 0x3060 JUMP JUMPDEST DUP6 MLOAD SWAP1 RETURNDATASIZE SWAP1 DUP3 RETURNDATACOPY RETURNDATASIZE SWAP1 REVERT JUMPDEST POP POP CALLVALUE PUSH2 0x639 JUMPI DUP2 PUSH1 0x3 NOT CALLDATASIZE ADD SLT PUSH2 0x639 JUMPI PUSH2 0x30A9 PUSH2 0x4342 JUMP JUMPDEST PUSH2 0x30B1 PUSH2 0x5719 JUMP JUMPDEST PUSH2 0x14B DUP1 SLOAD PUSH1 0xFF DUP2 AND DUP1 PUSH2 0x317C JUMPI JUMPDEST DUP1 PUSH2 0x3162 JUMPI JUMPDEST PUSH2 0x30CE JUMPI DUP4 DUP1 RETURN JUMPDEST PUSH2 0xFF00 NOT AND PUSH2 0x100 OR SWAP1 SSTORE DUP1 MLOAD SWAP1 DUP3 SWAP1 PUSH32 0x8B77276C97A5709F0D6DB52329848A254EB760CE8BE80D281799F633BDB69E83 DUP3 DUP1 LOG1 PUSH2 0x133 SLOAD PUSH1 0x1 PUSH1 0x1 PUSH1 0xA0 SHL SUB AND DUP1 EXTCODESIZE ISZERO PUSH2 0x90C JUMPI DUP4 PUSH1 0x4 DUP2 DUP6 DUP1 SWAP5 PUSH4 0x8456CB59 PUSH1 0xE0 SHL DUP4 MSTORE GAS CALL SWAP1 DUP2 ISZERO PUSH2 0x3157 JUMPI POP PUSH2 0x3147 JUMPI JUMPDEST POP POP PUSH2 0x3140 PUSH2 0x573A JUMP JUMPDEST CODESIZE DUP1 DUP1 DUP4 DUP1 RETURN JUMPDEST PUSH2 0x3150 SWAP2 PUSH2 0x3CA7 JUMP JUMPDEST CODESIZE DUP2 PUSH2 0x3136 JUMP JUMPDEST MLOAD SWAP2 RETURNDATASIZE SWAP2 POP DUP3 RETURNDATACOPY RETURNDATASIZE SWAP1 REVERT JUMPDEST POP PUSH2 0x3171 PUSH2 0x17A4 PUSH2 0xB12 PUSH2 0x46F3 JUMP JUMPDEST PUSH2 0x14A SLOAD LT ISZERO PUSH2 0x30C6 JUMP JUMPDEST POP PUSH1 0xFF DUP2 PUSH1 0x8 SHR AND ISZERO PUSH2 0x30C0 JUMP JUMPDEST POP POP CALLVALUE PUSH2 0x639 JUMPI DUP2 PUSH1 0x3 NOT CALLDATASIZE ADD SLT PUSH2 0x639 JUMPI PUSH1 0x20 SWAP1 PUSH2 0x13F SLOAD SWAP1 MLOAD SWAP1 DUP2 MSTORE RETURN JUMPDEST DUP4 DUP4 DUP3 PUSH1 0x3 NOT CALLDATASIZE ADD SLT PUSH2 0x639 JUMPI PUSH1 0x1 PUSH1 0x1 PUSH1 0xA0 SHL SUB SWAP3 PUSH1 0x4 CALLDATALOAD DUP5 DUP2 AND SWAP1 DUP2 SWAP1 SUB PUSH2 0x9E6 JUMPI PUSH1 0x24 CALLDATALOAD SWAP1 DUP6 DUP3 AND DUP1 SWAP3 SUB PUSH2 0x23C1 JUMPI PUSH1 0x44 CALLDATALOAD SWAP2 PUSH1 0x84 CALLDATALOAD SWAP4 PUSH1 0xA4 CALLDATALOAD SWAP8 DUP1 DUP10 AND DUP1 SWAP10 SUB PUSH2 0x32D1 JUMPI PUSH1 0xC4 CALLDATALOAD DUP2 DUP2 AND DUP1 SWAP2 SUB PUSH2 0x32CD JUMPI SWAP1 PUSH2 0x3271 SWAP4 SWAP3 SWAP2 PUSH2 0x320E PUSH2 0x4F0B JUMP JUMPDEST PUSH2 0x3216 PUSH2 0x5719 JUMP JUMPDEST DUP9 MLOAD SWAP3 PUSH2 0x3225 PUSH2 0x100 DUP6 PUSH2 0x3CA7 JUMP JUMPDEST DUP7 DUP5 MSTORE PUSH1 0x20 SWAP12 DUP13 SWAP6 DUP7 DUP7 ADD MSTORE DUP9 DUP12 DUP7 ADD MSTORE PUSH1 0x64 CALLDATALOAD PUSH1 0x60 DUP7 ADD MSTORE DUP10 PUSH1 0x80 DUP7 ADD MSTORE CALLER PUSH1 0xA0 DUP7 ADD MSTORE PUSH1 0xC0 DUP6 ADD MSTORE DUP4 ADD MSTORE PUSH2 0x14F SLOAD AND DUP8 MLOAD DUP1 DUP1 SWAP6 DUP2 SWAP5 PUSH4 0x34975A41 PUSH1 0xE0 SHL DUP4 MSTORE PUSH1 0x4 DUP4 ADD PUSH2 0x4F72 JUMP JUMPDEST SUB SWAP2 CALLVALUE SWAP1 GAS CALL SWAP6 DUP7 ISZERO PUSH2 0x3084 JUMPI DUP1 SWAP7 PUSH2 0x3299 JUMPI JUMPDEST POP POP PUSH2 0x6DD SWAP3 SWAP2 PUSH2 0x1C74 SWAP2 ADDRESS SWAP1 CALLER SWAP1 PUSH2 0x4EC7 JUMP JUMPDEST SWAP1 SWAP2 SWAP6 POP DUP7 DUP3 DUP2 RETURNDATASIZE DUP4 GT PUSH2 0x32C6 JUMPI JUMPDEST PUSH2 0x32B2 DUP2 DUP4 PUSH2 0x3CA7 JUMP JUMPDEST DUP2 ADD SUB SLT PUSH2 0x7B7 JUMPI POP MLOAD SWAP4 DUP2 PUSH2 0x1C74 PUSH2 0x3285 JUMP JUMPDEST POP RETURNDATASIZE PUSH2 0x32A8 JUMP JUMPDEST DUP9 DUP1 REVERT JUMPDEST DUP8 DUP1 REVERT JUMPDEST DUP3 DUP5 PUSH2 0x32E2 CALLDATASIZE PUSH1 0x4 PUSH2 0x3C19 JUMP JUMPDEST SWAP2 PUSH2 0x32EF SWAP7 SWAP5 SWAP2 SWAP7 PUSH2 0x4F0B JUMP JUMPDEST PUSH2 0x32F7 PUSH2 0x5719 JUMP JUMPDEST PUSH2 0x335B PUSH1 0xC4 DUP7 MLOAD SWAP4 PUSH2 0x330A PUSH1 0xC0 DUP7 PUSH2 0x3CA7 JUMP JUMPDEST PUSH1 0x1 DUP1 PUSH1 0xA0 SHL SUB DUP1 DUP1 SWAP3 AND SWAP7 DUP8 DUP8 MSTORE DUP2 PUSH1 0x20 SWAP13 DUP14 SWAP8 DUP12 DUP10 DUP12 ADD MSTORE DUP13 DUP11 ADD MSTORE CALLER PUSH1 0x60 DUP11 ADD MSTORE AND PUSH1 0x80 DUP9 ADD MSTORE AND PUSH1 0xA0 DUP7 ADD MSTORE PUSH2 0x14F SLOAD AND SWAP4 DUP8 MLOAD SWAP5 DUP6 SWAP4 DUP5 SWAP3 PUSH4 0x6426C5DB PUSH1 0xE1 SHL DUP5 MSTORE PUSH1 0x4 DUP5 ADD SWAP1 PUSH2 0x4F2D JUMP JUMPDEST CALLVALUE SWAP1 GAS CALL SWAP5 DUP6 ISZERO PUSH2 0x14DA JUMPI DUP1 SWAP6 PUSH2 0x337D JUMPI JUMPDEST POP POP SWAP1 PUSH2 0x6DD SWAP2 ADDRESS SWAP1 CALLER SWAP1 PUSH2 0x4EC7 JUMP JUMPDEST SWAP1 SWAP2 SWAP5 POP DUP6 DUP3 DUP2 RETURNDATASIZE DUP4 GT PUSH2 0x33AA JUMPI JUMPDEST PUSH2 0x3396 DUP2 DUP4 PUSH2 0x3CA7 JUMP JUMPDEST DUP2 ADD SUB SLT PUSH2 0x7B7 JUMPI POP MLOAD SWAP3 PUSH2 0x6DD DUP7 PUSH2 0x336D JUMP JUMPDEST POP RETURNDATASIZE PUSH2 0x338C JUMP JUMPDEST POP POP CALLVALUE PUSH2 0x639 JUMPI DUP2 PUSH1 0x3 NOT CALLDATASIZE ADD SLT PUSH2 0x639 JUMPI PUSH1 0x20 SWAP1 PUSH2 0x143 SLOAD SWAP1 MLOAD SWAP1 DUP2 MSTORE RETURN JUMPDEST DUP4 CALLVALUE PUSH2 0x7B7 JUMPI PUSH1 0x20 CALLDATASIZE PUSH1 0x3 NOT ADD SLT PUSH2 0x7B7 JUMPI PUSH1 0x4 CALLDATALOAD PUSH1 0x1 PUSH1 0x1 PUSH1 0xA0 SHL SUB DUP2 AND DUP2 SUB PUSH2 0x639 JUMPI PUSH2 0x33FE PUSH2 0x568B JUMP JUMPDEST PUSH1 0xCA DUP1 SLOAD PUSH3 0x10000 PUSH1 0x1 PUSH1 0xB0 SHL SUB NOT AND PUSH1 0x10 SWAP3 SWAP1 SWAP3 SHL PUSH3 0x10000 PUSH1 0x1 PUSH1 0xB0 SHL SUB AND SWAP2 SWAP1 SWAP2 OR SWAP1 SSTORE DUP1 RETURN JUMPDEST DUP4 CALLVALUE PUSH2 0x7B7 JUMPI PUSH1 0x20 CALLDATASIZE PUSH1 0x3 NOT ADD SLT PUSH2 0x7B7 JUMPI PUSH2 0x3442 PUSH2 0x568B JUMP JUMPDEST PUSH1 0x4 CALLDATALOAD PUSH2 0x14A SSTORE DUP1 RETURN JUMPDEST POP POP CALLVALUE PUSH2 0x639 JUMPI DUP2 PUSH1 0x3 NOT CALLDATASIZE ADD SLT PUSH2 0x639 JUMPI PUSH1 0x20 SWAP1 PUSH2 0x140 SLOAD SWAP1 MLOAD SWAP1 DUP2 MSTORE RETURN JUMPDEST DUP4 CALLVALUE PUSH2 0x7B7 JUMPI PUSH1 0x20 CALLDATASIZE PUSH1 0x3 NOT ADD SLT PUSH2 0x7B7 JUMPI PUSH1 0x4 CALLDATALOAD PUSH1 0x1 PUSH1 0x1 PUSH1 0xA0 SHL SUB DUP2 AND SWAP1 DUP2 SWAP1 SUB PUSH2 0x639 JUMPI PUSH2 0x349B PUSH2 0x568B JUMP JUMPDEST PUSH2 0x147 DUP1 SLOAD PUSH1 0x1 PUSH1 0x1 PUSH1 0xA0 SHL SUB NOT AND SWAP1 SWAP2 OR SWAP1 SSTORE DUP1 RETURN JUMPDEST POP POP CALLVALUE PUSH2 0x639 JUMPI DUP2 PUSH1 0x3 NOT CALLDATASIZE ADD SLT PUSH2 0x639 JUMPI PUSH2 0x22A SLOAD SWAP1 MLOAD PUSH1 0x1 PUSH1 0x1 PUSH1 0xA0 SHL SUB SWAP1 SWAP2 AND DUP2 MSTORE PUSH1 0x20 SWAP1 RETURN JUMPDEST POP POP CALLVALUE PUSH2 0x639 JUMPI PUSH1 0x20 CALLDATASIZE PUSH1 0x3 NOT ADD SLT PUSH2 0x639 JUMPI PUSH1 0x4 CALLDATALOAD PUSH1 0x1 PUSH1 0x1 PUSH1 0xA0 SHL SUB DUP2 AND SWAP1 DUP2 SWAP1 SUB PUSH2 0x90C JUMPI DUP3 DUP3 SWAP2 PUSH1 0x20 SWAP5 MSTORE PUSH2 0x144 DUP5 MSTORE KECCAK256 SLOAD SWAP1 MLOAD SWAP1 DUP2 MSTORE RETURN JUMPDEST POP POP CALLVALUE PUSH2 0x639 JUMPI DUP2 PUSH1 0x3 NOT CALLDATASIZE ADD SLT PUSH2 0x639 JUMPI PUSH1 0x20 SWAP1 PUSH1 0xFF PUSH2 0x14B SLOAD PUSH1 0x8 SHR AND SWAP1 MLOAD SWAP1 ISZERO ISZERO DUP2 MSTORE RETURN JUMPDEST POP POP CALLVALUE PUSH2 0x639 JUMPI PUSH1 0xA0 CALLDATASIZE PUSH1 0x3 NOT ADD SLT PUSH2 0x639 JUMPI PUSH2 0x355C PUSH2 0x5026 JUMP JUMPDEST POP PUSH2 0x14F SLOAD PUSH1 0x1 PUSH1 0x1 PUSH1 0xA0 SHL SUB SWAP3 SWAP1 DUP4 AND CALLER SUB PUSH2 0x119E JUMPI SWAP1 PUSH2 0x35ED SWAP2 PUSH2 0x3583 CALLDATASIZE PUSH1 0x4 PUSH2 0x504D JUMP JUMPDEST SWAP2 PUSH2 0x358C PUSH2 0x5026 JUMP JUMPDEST POP PUSH2 0x3595 PUSH2 0x4F0B JUMP JUMPDEST PUSH2 0x359D PUSH2 0x5719 JUMP JUMPDEST PUSH8 0xDE0B6B3A7640000 PUSH2 0x35C0 PUSH2 0xF64 PUSH2 0x35B7 PUSH2 0x158B PUSH2 0x46F3 JUMP JUMPDEST DUP8 MLOAD SWAP3 SWAP2 PUSH2 0x4B0C JUMP JUMPDEST DIV SWAP5 DUP2 DUP5 ADD SWAP1 DUP1 DUP3 MLOAD AND SWAP2 PUSH2 0x35E2 PUSH1 0x80 DUP8 ADD SWAP4 DUP10 DUP5 DUP7 MLOAD AND PUSH2 0x13C SLOAD SWAP3 PUSH2 0x50ED JUMP JUMPDEST SWAP7 SWAP2 DUP11 SWAP10 SWAP2 SWAP10 PUSH2 0x43FA JUMP JUMPDEST SWAP7 PUSH1 0x20 DUP2 ADD SWAP10 DUP11 MLOAD DUP1 DUP11 GT PUSH2 0x3716 JUMPI POP DUP9 ISZERO PUSH2 0x3705 JUMPI DUP2 PUSH1 0x20 SWAP2 DUP7 PUSH1 0x60 PUSH2 0x3670 SWAP7 SWAP6 MLOAD SWAP4 ADD MLOAD AND SWAP1 PUSH2 0x134 PUSH2 0x3623 DUP5 DUP3 SLOAD PUSH2 0x43FA JUMP JUMPDEST SWAP1 SSTORE PUSH2 0x3633 PUSH2 0x131 SWAP2 DUP3 SLOAD PUSH2 0x43FA JUMP JUMPDEST SWAP1 SSTORE PUSH2 0x133 SLOAD DUP10 MLOAD PUSH4 0x40C10F19 PUSH1 0xE0 SHL DUP2 MSTORE PUSH1 0x1 PUSH1 0x1 PUSH1 0xA0 SHL SUB SWAP1 SWAP3 AND PUSH1 0x4 DUP4 ADD MSTORE PUSH1 0x24 DUP3 ADD SWAP3 SWAP1 SWAP3 MSTORE SWAP4 DUP5 SWAP2 DUP8 AND SWAP1 DUP3 SWAP1 DUP6 SWAP1 DUP3 SWAP1 PUSH1 0x44 DUP3 ADD SWAP1 JUMP JUMPDEST SUB SWAP3 GAS CALL DUP1 ISZERO PUSH2 0x36F9 JUMPI PUSH2 0x36A3 JUMPI JUMPDEST POP POP SWAP7 PUSH2 0x1038 SWAP3 DUP3 PUSH2 0x1386 DUP9 DUP9 SWAP6 PUSH2 0xCE4 SWAP11 SWAP12 SWAP13 DUP7 MLOAD PUSH2 0x137B PUSH2 0x14E SWAP2 DUP3 SLOAD PUSH2 0x431F JUMP JUMPDEST PUSH1 0x20 DUP3 RETURNDATASIZE DUP3 GT PUSH2 0x36F1 JUMPI JUMPDEST DUP2 PUSH2 0x36BB PUSH1 0x20 SWAP4 DUP4 PUSH2 0x3CA7 JUMP JUMPDEST DUP2 ADD SUB SLT PUSH2 0x7B7 JUMPI POP SWAP3 DUP3 PUSH2 0x1386 DUP9 DUP9 SWAP6 PUSH2 0xCE4 SWAP11 SWAP12 SWAP13 SWAP6 PUSH2 0x36DF PUSH2 0x1038 SWAP10 PUSH2 0x4220 JUMP JUMPDEST POP SWAP6 SWAP13 SWAP12 POP SWAP6 POP SWAP9 POP POP DUP2 SWAP5 POP PUSH2 0x367F JUMP JUMPDEST RETURNDATASIZE SWAP2 POP PUSH2 0x36AE JUMP JUMPDEST POP DUP6 MLOAD SWAP1 RETURNDATASIZE SWAP1 DUP3 RETURNDATACOPY RETURNDATASIZE SWAP1 REVERT JUMPDEST DUP7 MLOAD PUSH4 0xF3E39B5D PUSH1 0xE0 SHL DUP2 MSTORE PUSH1 0x4 SWAP1 REVERT JUMPDEST PUSH1 0x44 SWAP1 DUP11 DUP10 MLOAD SWAP2 PUSH4 0xB63F1A7 PUSH1 0xE0 SHL DUP4 MSTORE PUSH1 0x4 DUP4 ADD MSTORE PUSH1 0x24 DUP3 ADD MSTORE REVERT JUMPDEST DUP4 CALLVALUE PUSH2 0x7B7 JUMPI PUSH1 0x20 CALLDATASIZE PUSH1 0x3 NOT ADD SLT PUSH2 0x7B7 JUMPI PUSH2 0x374D PUSH2 0x568B JUMP JUMPDEST PUSH1 0x4 CALLDATALOAD PUSH2 0x142 SSTORE DUP1 RETURN JUMPDEST DUP4 CALLVALUE PUSH2 0x7B7 JUMPI PUSH1 0x20 CALLDATASIZE PUSH1 0x3 NOT ADD SLT PUSH2 0x7B7 JUMPI PUSH1 0x4 CALLDATALOAD DUP1 ISZERO ISZERO DUP1 SWAP2 SUB PUSH2 0x639 JUMPI PUSH2 0x377E PUSH2 0x568B JUMP JUMPDEST PUSH2 0x14B SWAP1 PUSH1 0xFF DUP1 NOT DUP4 SLOAD AND SWAP2 AND OR SWAP1 SSTORE DUP1 RETURN JUMPDEST POP POP CALLVALUE PUSH2 0x639 JUMPI DUP2 PUSH1 0x3 NOT CALLDATASIZE ADD SLT PUSH2 0x639 JUMPI PUSH1 0x20 SWAP1 PUSH2 0x842 PUSH2 0x37B4 PUSH2 0xB12 PUSH2 0x46F3 JUMP JUMPDEST SWAP1 PUSH2 0x4B0C JUMP JUMPDEST POP POP CALLVALUE PUSH2 0x639 JUMPI DUP2 PUSH1 0x3 NOT CALLDATASIZE ADD SLT PUSH2 0x639 JUMPI PUSH1 0x20 SWAP1 PUSH2 0x14D SLOAD SWAP1 MLOAD SWAP1 DUP2 MSTORE RETURN JUMPDEST DUP4 DUP4 PUSH1 0xE4 PUSH2 0x3866 PUSH2 0x37EC CALLDATASIZE PUSH1 0x4 PUSH2 0x3B98 JUMP JUMPDEST SWAP5 PUSH2 0x37FC SWAP11 SWAP5 SWAP7 SWAP3 SWAP8 SWAP2 SWAP11 PUSH2 0x4F0B JUMP JUMPDEST PUSH2 0x3804 PUSH2 0x5719 JUMP JUMPDEST PUSH2 0x3810 DUP10 MLOAD SWAP6 DUP7 PUSH2 0x3CA7 JUMP JUMPDEST PUSH1 0x1 DUP1 PUSH1 0xA0 SHL SUB DUP1 DUP1 SWAP3 AND SWAP7 DUP8 DUP8 MSTORE DUP2 PUSH1 0x20 SWAP14 DUP15 SWAP8 DUP12 DUP10 DUP12 ADD MSTORE DUP14 DUP11 ADD MSTORE DUP12 PUSH1 0x60 DUP11 ADD MSTORE CALLER PUSH1 0x80 DUP11 ADD MSTORE AND PUSH1 0xA0 DUP9 ADD MSTORE AND PUSH1 0xC0 DUP7 ADD MSTORE PUSH2 0x14F SLOAD AND SWAP4 DUP9 MLOAD SWAP5 DUP6 SWAP4 DUP5 SWAP3 PUSH3 0x637447 PUSH1 0xE1 SHL DUP5 MSTORE PUSH1 0x4 DUP5 ADD SWAP1 PUSH2 0x4FD6 JUMP JUMPDEST CALLVALUE SWAP1 GAS CALL SWAP6 DUP7 ISZERO PUSH2 0x3084 JUMPI DUP1 SWAP7 PUSH2 0x3299 JUMPI POP POP PUSH2 0x6DD SWAP3 SWAP2 PUSH2 0x1C74 SWAP2 ADDRESS SWAP1 CALLER SWAP1 PUSH2 0x4EC7 JUMP JUMPDEST POP POP CALLVALUE PUSH2 0x639 JUMPI DUP2 PUSH1 0x3 NOT CALLDATASIZE ADD SLT PUSH2 0x639 JUMPI PUSH2 0x14F SLOAD SWAP1 MLOAD PUSH1 0x1 PUSH1 0x1 PUSH1 0xA0 SHL SUB SWAP1 SWAP2 AND DUP2 MSTORE PUSH1 0x20 SWAP1 RETURN JUMPDEST DUP4 CALLVALUE PUSH2 0x7B7 JUMPI PUSH1 0x20 CALLDATASIZE PUSH1 0x3 NOT ADD SLT PUSH2 0x7B7 JUMPI PUSH1 0x4 CALLDATALOAD PUSH1 0x1 PUSH1 0x1 PUSH1 0xA0 SHL SUB DUP2 AND SWAP1 DUP2 SWAP1 SUB PUSH2 0x639 JUMPI PUSH2 0x38E4 PUSH2 0x568B JUMP JUMPDEST PUSH2 0x130 DUP1 SLOAD PUSH1 0x1 PUSH1 0x1 PUSH1 0xA0 SHL SUB NOT AND SWAP1 SWAP2 OR SWAP1 SSTORE DUP1 RETURN JUMPDEST DUP4 CALLVALUE PUSH2 0x7B7 JUMPI PUSH1 0x20 CALLDATASIZE PUSH1 0x3 NOT ADD SLT PUSH2 0x7B7 JUMPI PUSH2 0x3915 PUSH2 0x568B JUMP JUMPDEST PUSH1 0x4 CALLDATALOAD PUSH2 0x13F SSTORE DUP1 RETURN JUMPDEST POP POP CALLVALUE PUSH2 0x639 JUMPI DUP2 PUSH1 0x3 NOT CALLDATASIZE ADD SLT PUSH2 0x639 JUMPI PUSH1 0x20 SWAP1 PUSH2 0x159 SLOAD SWAP1 MLOAD SWAP1 DUP2 MSTORE RETURN JUMPDEST DUP4 CALLVALUE PUSH2 0x7B7 JUMPI PUSH1 0x20 CALLDATASIZE PUSH1 0x3 NOT ADD SLT PUSH2 0x7B7 JUMPI PUSH1 0x4 CALLDATALOAD PUSH1 0x1 PUSH1 0x1 PUSH1 0xA0 SHL SUB DUP2 AND SWAP1 DUP2 SWAP1 SUB PUSH2 0x639 JUMPI PUSH2 0x396E PUSH2 0x568B JUMP JUMPDEST PUSH2 0x146 DUP1 SLOAD PUSH1 0x1 PUSH1 0x1 PUSH1 0xA0 SHL SUB NOT AND SWAP1 SWAP2 OR SWAP1 SSTORE DUP1 RETURN JUMPDEST POP POP CALLVALUE PUSH2 0x639 JUMPI DUP2 PUSH1 0x3 NOT CALLDATASIZE ADD SLT PUSH2 0x639 JUMPI PUSH1 0x20 SWAP1 PUSH2 0x18F SLOAD SWAP1 MLOAD SWAP1 DUP2 MSTORE RETURN JUMPDEST POP POP CALLVALUE PUSH2 0x639 JUMPI DUP2 PUSH1 0x3 NOT CALLDATASIZE ADD SLT PUSH2 0x639 JUMPI PUSH1 0x97 SLOAD SWAP1 MLOAD PUSH1 0x1 PUSH1 0x1 PUSH1 0xA0 SHL SUB SWAP1 SWAP2 AND DUP2 MSTORE PUSH1 0x20 SWAP1 RETURN JUMPDEST DUP4 CALLVALUE PUSH2 0x7B7 JUMPI PUSH1 0x20 CALLDATASIZE PUSH1 0x3 NOT ADD SLT PUSH2 0x7B7 JUMPI PUSH2 0x39E8 PUSH2 0x568B JUMP JUMPDEST PUSH1 0x4 CALLDATALOAD PUSH2 0x15A SSTORE DUP1 RETURN JUMPDEST POP POP CALLVALUE PUSH2 0x639 JUMPI DUP2 PUSH1 0x3 NOT CALLDATASIZE ADD SLT PUSH2 0x639 JUMPI DUP1 MLOAD PUSH4 0x7164879 PUSH1 0xE0 SHL PUSH1 0x20 DUP3 ADD MSTORE PUSH1 0x4 DUP2 MSTORE PUSH2 0x3A26 SWAP1 PUSH2 0x8F6 PUSH1 0x24 DUP3 PUSH2 0x3CA7 JUMP JUMPDEST SWAP2 PUSH1 0x20 DUP4 DUP1 MLOAD DUP2 ADD SUB SLT PUSH2 0x7B7 JUMPI POP PUSH2 0x842 PUSH1 0x20 DUP1 SWAP4 ADD MLOAD PUSH8 0xDE0B6B3A7640000 PUSH2 0x149 SLOAD DIV SWAP1 PUSH2 0x43FA JUMP JUMPDEST POP POP CALLVALUE PUSH2 0x639 JUMPI DUP2 PUSH1 0x3 NOT CALLDATASIZE ADD SLT PUSH2 0x639 JUMPI PUSH2 0x3A6C PUSH2 0x5719 JUMP JUMPDEST PUSH2 0x15B DUP1 SLOAD NUMBER LT PUSH2 0x3ADA JUMPI SWAP1 PUSH2 0xAC2 SWAP2 PUSH2 0x15A SLOAD NUMBER ADD SWAP1 SSTORE PUSH32 0xE37FDA283839477A1B77E29ACF8336C0E13A5DAA967913DF0FE5AD258C0822F PUSH1 0x20 PUSH8 0xDE0B6B3A7640000 PUSH2 0x3AC1 PUSH2 0x131 SLOAD PUSH2 0x159 SLOAD SWAP1 PUSH2 0x452C JUMP JUMPDEST DIV SWAP3 MLOAD DUP4 DUP2 MSTORE LOG1 PUSH2 0x158 SLOAD PUSH1 0x1 PUSH1 0x1 PUSH1 0xA0 SHL SUB AND PUSH2 0x41C9 JUMP JUMPDEST DUP2 MLOAD PUSH4 0xACCE20E5 PUSH1 0xE0 SHL DUP2 MSTORE PUSH1 0x4 SWAP1 REVERT JUMPDEST POP POP CALLVALUE PUSH2 0x639 JUMPI PUSH1 0x20 CALLDATASIZE PUSH1 0x3 NOT ADD SLT PUSH2 0x639 JUMPI PUSH1 0x4 CALLDATALOAD SWAP2 PUSH2 0x135 SWAP1 DUP2 SLOAD DUP5 LT ISZERO PUSH2 0x7B7 JUMPI POP PUSH1 0x20 SWAP3 PUSH2 0x3B1C SWAP2 PUSH2 0x3B56 JUMP JUMPDEST SWAP1 SLOAD SWAP2 MLOAD SWAP2 PUSH1 0x1 DUP1 PUSH1 0xA0 SHL SUB SWAP2 PUSH1 0x3 SHL SHR AND DUP2 MSTORE RETURN JUMPDEST DUP4 CALLVALUE PUSH2 0x7B7 JUMPI PUSH1 0x20 CALLDATASIZE PUSH1 0x3 NOT ADD SLT PUSH2 0x7B7 JUMPI PUSH2 0x3B4C PUSH2 0x568B JUMP JUMPDEST PUSH1 0x4 CALLDATALOAD PUSH2 0x13A SSTORE DUP1 RETURN JUMPDEST DUP1 SLOAD DUP3 LT ISZERO PUSH2 0x3B6E JUMPI PUSH1 0x0 MSTORE PUSH1 0x20 PUSH1 0x0 KECCAK256 ADD SWAP1 PUSH1 0x0 SWAP1 JUMP JUMPDEST PUSH4 0x4E487B71 PUSH1 0xE0 SHL PUSH1 0x0 MSTORE PUSH1 0x32 PUSH1 0x4 MSTORE PUSH1 0x24 PUSH1 0x0 REVERT JUMPDEST CALLDATALOAD SWAP1 PUSH1 0x1 PUSH1 0x1 PUSH1 0xA0 SHL SUB DUP3 AND DUP3 SUB PUSH2 0x70D JUMPI JUMP JUMPDEST SWAP2 SWAP1 DUP3 PUSH1 0xC0 SWAP2 SUB SLT PUSH2 0x70D JUMPI PUSH2 0x3BAD DUP3 PUSH2 0x3B84 JUMP JUMPDEST SWAP2 PUSH1 0x20 DUP2 ADD CALLDATALOAD SWAP2 PUSH1 0x40 DUP3 ADD CALLDATALOAD SWAP2 PUSH1 0x60 DUP2 ADD CALLDATALOAD SWAP2 PUSH2 0x3BD8 PUSH1 0xA0 PUSH2 0x3BD1 PUSH1 0x80 DUP6 ADD PUSH2 0x3B84 JUMP JUMPDEST SWAP4 ADD PUSH2 0x3B84 JUMP JUMPDEST SWAP1 JUMP JUMPDEST PUSH1 0x40 SWAP1 PUSH2 0x3C17 SWAP4 SWAP6 SWAP5 SWAP3 SWAP6 PUSH1 0xC0 DUP3 ADD SWAP7 DUP3 MSTORE PUSH1 0x20 DUP3 ADD MSTORE ADD SWAP1 PUSH1 0x60 DUP1 SWAP2 DUP1 MLOAD DUP5 MSTORE PUSH1 0x20 DUP2 ADD MLOAD PUSH1 0x20 DUP6 ADD MSTORE PUSH1 0x40 DUP2 ADD MLOAD PUSH1 0x40 DUP6 ADD MSTORE ADD MLOAD SWAP2 ADD MSTORE JUMP JUMPDEST JUMP JUMPDEST SWAP1 DUP2 PUSH1 0xA0 SWAP2 SUB SLT PUSH2 0x70D JUMPI PUSH2 0x3C2D DUP2 PUSH2 0x3B84 JUMP JUMPDEST SWAP2 PUSH1 0x20 DUP3 ADD CALLDATALOAD SWAP2 PUSH1 0x40 DUP2 ADD CALLDATALOAD SWAP2 PUSH2 0x3BD8 PUSH1 0x80 PUSH2 0x3BD1 PUSH1 0x60 DUP6 ADD PUSH2 0x3B84 JUMP JUMPDEST PUSH2 0x3C17 SWAP4 PUSH1 0x60 SWAP3 SWAP7 SWAP6 SWAP4 PUSH1 0xE0 DUP4 ADD SWAP8 DUP4 MSTORE PUSH1 0x20 DUP4 ADD MSTORE PUSH1 0x40 DUP3 ADD MSTORE ADD SWAP1 PUSH1 0x60 DUP1 SWAP2 DUP1 MLOAD DUP5 MSTORE PUSH1 0x20 DUP2 ADD MLOAD PUSH1 0x20 DUP6 ADD MSTORE PUSH1 0x40 DUP2 ADD MLOAD PUSH1 0x40 DUP6 ADD MSTORE ADD MLOAD SWAP2 ADD MSTORE JUMP JUMPDEST DUP1 SLOAD DUP3 LT ISZERO PUSH2 0x3B6E JUMPI PUSH1 0x0 MSTORE PUSH1 0x20 PUSH1 0x0 KECCAK256 SWAP1 PUSH1 0x1 SHL ADD SWAP1 PUSH1 0x0 SWAP1 JUMP JUMPDEST SWAP1 PUSH1 0x1F DUP1 NOT SWAP2 ADD AND DUP2 ADD SWAP1 DUP2 LT PUSH8 0xFFFFFFFFFFFFFFFF DUP3 GT OR PUSH2 0x3CC9 JUMPI PUSH1 0x40 MSTORE JUMP JUMPDEST PUSH4 0x4E487B71 PUSH1 0xE0 SHL PUSH1 0x0 MSTORE PUSH1 0x41 PUSH1 0x4 MSTORE PUSH1 0x24 PUSH1 0x0 REVERT JUMPDEST PUSH8 0xFFFFFFFFFFFFFFFF DUP2 GT PUSH2 0x3CC9 JUMPI PUSH1 0x1F ADD PUSH1 0x1F NOT AND PUSH1 0x20 ADD SWAP1 JUMP JUMPDEST SWAP2 SWAP1 DUP3 PUSH1 0x80 SWAP2 SUB SLT PUSH2 0x70D JUMPI DUP2 CALLDATALOAD SWAP2 PUSH1 0x20 DUP2 ADD CALLDATALOAD SWAP2 PUSH2 0x3BD8 PUSH1 0x60 PUSH2 0x3BD1 PUSH1 0x40 DUP6 ADD PUSH2 0x3B84 JUMP JUMPDEST ISZERO PUSH2 0x3D28 JUMPI JUMP JUMPDEST PUSH1 0x40 MLOAD PUSH3 0x461BCD PUSH1 0xE5 SHL DUP2 MSTORE PUSH1 0x20 PUSH1 0x4 DUP3 ADD MSTORE PUSH1 0x2C PUSH1 0x24 DUP3 ADD MSTORE PUSH32 0x46756E6374696F6E206D7573742062652063616C6C6564207468726F75676820 PUSH1 0x44 DUP3 ADD MSTORE PUSH12 0x19195B1959D85D1958D85B1B PUSH1 0xA2 SHL PUSH1 0x64 DUP3 ADD MSTORE PUSH1 0x84 SWAP1 REVERT JUMPDEST ISZERO PUSH2 0x3D89 JUMPI JUMP JUMPDEST PUSH1 0x40 MLOAD PUSH3 0x461BCD PUSH1 0xE5 SHL DUP2 MSTORE PUSH1 0x20 PUSH1 0x4 DUP3 ADD MSTORE PUSH1 0x2C PUSH1 0x24 DUP3 ADD MSTORE PUSH32 0x46756E6374696F6E206D7573742062652063616C6C6564207468726F75676820 PUSH1 0x44 DUP3 ADD MSTORE PUSH12 0x6163746976652070726F7879 PUSH1 0xA0 SHL PUSH1 0x64 DUP3 ADD MSTORE PUSH1 0x84 SWAP1 REVERT JUMPDEST SWAP1 PUSH1 0xFF PUSH32 0x4910FDFA16FED3260ED0E7147F7CC6DA11A60208B5B9406D12A635614FFD9143 SLOAD AND PUSH1 0x0 EQ PUSH2 0x3E1B JUMPI POP PUSH2 0x3C17 SWAP2 POP PUSH2 0x3FCF JUMP JUMPDEST PUSH1 0x40 MLOAD PUSH4 0x52D1902D PUSH1 0xE0 SHL DUP2 MSTORE PUSH1 0x20 SWAP4 SWAP2 SWAP3 SWAP2 SWAP1 PUSH1 0x1 PUSH1 0x1 PUSH1 0xA0 SHL SUB DUP4 AND SWAP1 DUP6 DUP2 PUSH1 0x4 DUP2 DUP6 GAS STATICCALL PUSH1 0x0 SWAP2 DUP2 PUSH2 0x3FA0 JUMPI JUMPDEST POP PUSH2 0x3EAC JUMPI PUSH1 0x40 MLOAD PUSH3 0x461BCD PUSH1 0xE5 SHL DUP2 MSTORE PUSH1 0x4 DUP2 ADD DUP8 SWAP1 MSTORE PUSH1 0x2E PUSH1 0x24 DUP3 ADD MSTORE PUSH32 0x45524331393637557067726164653A206E657720696D706C656D656E74617469 PUSH1 0x44 DUP3 ADD MSTORE PUSH14 0x6F6E206973206E6F742055555053 PUSH1 0x90 SHL PUSH1 0x64 DUP3 ADD MSTORE PUSH1 0x84 SWAP1 REVERT JUMPDEST SWAP4 SWAP5 SWAP4 PUSH32 0xC9F76B5EC45E5CDEF99837D7B6D2467235C1DF8933C8CA56DF5C35AFA2C7D444 ADD PUSH2 0x3F49 JUMPI PUSH2 0x3EDE DUP4 PUSH2 0x3FCF JUMP JUMPDEST PUSH32 0xBC7CD75A20EE27FD9ADEBAB32041F755214DBC6BFFA90CC0225B39DA2E5C2D3B PUSH1 0x0 DUP1 LOG2 DUP4 MLOAD ISZERO SWAP1 DUP2 ISZERO SWAP2 PUSH2 0x3F41 JUMPI JUMPDEST POP PUSH2 0x3F19 JUMPI POP POP POP JUMP JUMPDEST PUSH1 0x0 DUP1 PUSH2 0x3F3E SWAP5 PUSH2 0x3F28 PUSH2 0x4071 JUMP JUMPDEST SWAP5 DUP2 MLOAD SWAP2 ADD DUP5 GAS DELEGATECALL PUSH2 0x3F38 PUSH2 0x40C5 JUMP JUMPDEST SWAP2 PUSH2 0x40F5 JUMP JUMPDEST POP JUMP JUMPDEST SWAP1 POP CODESIZE PUSH2 0x3F0F JUMP JUMPDEST PUSH1 0x40 MLOAD PUSH3 0x461BCD PUSH1 0xE5 SHL DUP2 MSTORE PUSH1 0x4 DUP2 ADD DUP6 SWAP1 MSTORE PUSH1 0x29 PUSH1 0x24 DUP3 ADD MSTORE PUSH32 0x45524331393637557067726164653A20756E737570706F727465642070726F78 PUSH1 0x44 DUP3 ADD MSTORE PUSH9 0x1A58589B1955555251 PUSH1 0xBA SHL PUSH1 0x64 DUP3 ADD MSTORE PUSH1 0x84 SWAP1 REVERT JUMPDEST SWAP1 SWAP2 DUP8 DUP3 DUP2 RETURNDATASIZE DUP4 GT PUSH2 0x3FC8 JUMPI JUMPDEST PUSH2 0x3FB7 DUP2 DUP4 PUSH2 0x3CA7 JUMP JUMPDEST DUP2 ADD SUB SLT PUSH2 0x7B7 JUMPI POP MLOAD SWAP1 CODESIZE PUSH2 0x3E4B JUMP JUMPDEST POP RETURNDATASIZE PUSH2 0x3FAD JUMP JUMPDEST DUP1 EXTCODESIZE ISZERO PUSH2 0x4016 JUMPI PUSH32 0x360894A13BA1A3210667C828492DB98DCA3E2076CC3735A920A3CA505D382BBC DUP1 SLOAD PUSH1 0x1 PUSH1 0x1 PUSH1 0xA0 SHL SUB NOT AND PUSH1 0x1 PUSH1 0x1 PUSH1 0xA0 SHL SUB SWAP1 SWAP3 AND SWAP2 SWAP1 SWAP2 OR SWAP1 SSTORE JUMP JUMPDEST PUSH1 0x40 MLOAD PUSH3 0x461BCD PUSH1 0xE5 SHL DUP2 MSTORE PUSH1 0x20 PUSH1 0x4 DUP3 ADD MSTORE PUSH1 0x2D PUSH1 0x24 DUP3 ADD MSTORE PUSH32 0x455243313936373A206E657720696D706C656D656E746174696F6E206973206E PUSH1 0x44 DUP3 ADD MSTORE PUSH13 0x1BDD08184818DBDB9D1C9858DD PUSH1 0x9A SHL PUSH1 0x64 DUP3 ADD MSTORE PUSH1 0x84 SWAP1 REVERT JUMPDEST PUSH2 0x407B PUSH1 0x27 PUSH2 0x3CDF JUMP JUMPDEST SWAP1 PUSH2 0x4089 PUSH1 0x40 MLOAD SWAP3 DUP4 PUSH2 0x3CA7 JUMP JUMPDEST PUSH1 0x27 DUP3 MSTORE PUSH7 0x819985A5B1959 PUSH1 0xCA SHL PUSH1 0x40 DUP4 PUSH32 0x416464726573733A206C6F772D6C6576656C2064656C65676174652063616C6C PUSH1 0x20 DUP3 ADD MSTORE ADD MSTORE JUMP JUMPDEST RETURNDATASIZE ISZERO PUSH2 0x40F0 JUMPI RETURNDATASIZE SWAP1 PUSH2 0x40D6 DUP3 PUSH2 0x3CDF JUMP JUMPDEST SWAP2 PUSH2 0x40E4 PUSH1 0x40 MLOAD SWAP4 DUP5 PUSH2 0x3CA7 JUMP JUMPDEST DUP3 MSTORE RETURNDATASIZE PUSH1 0x0 PUSH1 0x20 DUP5 ADD RETURNDATACOPY JUMP JUMPDEST PUSH1 0x60 SWAP1 JUMP JUMPDEST SWAP2 SWAP3 SWAP1 ISZERO PUSH2 0x4157 JUMPI POP DUP2 MLOAD ISZERO PUSH2 0x4109 JUMPI POP SWAP1 JUMP JUMPDEST EXTCODESIZE ISZERO PUSH2 0x4112 JUMPI SWAP1 JUMP JUMPDEST PUSH1 0x40 MLOAD PUSH3 0x461BCD PUSH1 0xE5 SHL DUP2 MSTORE PUSH1 0x20 PUSH1 0x4 DUP3 ADD MSTORE PUSH1 0x1D PUSH1 0x24 DUP3 ADD MSTORE PUSH32 0x416464726573733A2063616C6C20746F206E6F6E2D636F6E7472616374000000 PUSH1 0x44 DUP3 ADD MSTORE PUSH1 0x64 SWAP1 REVERT JUMPDEST DUP3 MLOAD SWAP1 SWAP2 POP ISZERO PUSH2 0x416A JUMPI POP DUP1 MLOAD SWAP1 PUSH1 0x20 ADD REVERT JUMPDEST PUSH1 0x40 MLOAD SWAP1 PUSH3 0x461BCD PUSH1 0xE5 SHL DUP3 MSTORE DUP2 PUSH1 0x20 DUP1 PUSH1 0x4 DUP4 ADD MSTORE DUP3 MLOAD SWAP1 DUP2 PUSH1 0x24 DUP5 ADD MSTORE PUSH1 0x0 SWAP4 JUMPDEST DUP3 DUP6 LT PUSH2 0x41B0 JUMPI POP POP PUSH1 0x44 SWAP3 POP PUSH1 0x0 DUP4 DUP3 DUP5 ADD ADD MSTORE PUSH1 0x1F DUP1 NOT SWAP2 ADD AND DUP2 ADD SUB ADD SWAP1 REVERT JUMPDEST DUP5 DUP2 ADD DUP3 ADD MLOAD DUP7 DUP7 ADD PUSH1 0x44 ADD MSTORE SWAP4 DUP2 ADD SWAP4 DUP6 SWAP4 POP PUSH2 0x418D JUMP JUMPDEST SWAP1 DUP1 PUSH2 0x41D3 JUMPI POP POP JUMP JUMPDEST PUSH2 0x22A SLOAD PUSH1 0x40 MLOAD PUSH4 0xA9059CBB PUSH1 0xE0 SHL PUSH1 0x20 DUP3 ADD MSTORE PUSH1 0x1 PUSH1 0x1 PUSH1 0xA0 SHL SUB SWAP4 DUP5 AND PUSH1 0x24 DUP3 ADD MSTORE PUSH1 0x44 DUP2 ADD SWAP3 SWAP1 SWAP3 MSTORE PUSH2 0x3C17 SWAP3 AND PUSH2 0x421B DUP3 PUSH1 0x64 DUP2 ADD JUMPDEST SUB PUSH1 0x1F NOT DUP2 ADD DUP5 MSTORE DUP4 PUSH2 0x3CA7 JUMP JUMPDEST PUSH2 0x422D JUMP JUMPDEST MLOAD SWAP1 DUP2 ISZERO ISZERO DUP3 SUB PUSH2 0x70D JUMPI JUMP JUMPDEST PUSH1 0x20 SWAP2 PUSH2 0x4290 SWAP2 PUSH1 0x1 PUSH1 0x1 PUSH1 0xA0 SHL SUB AND PUSH1 0x0 DUP1 PUSH2 0x4249 DUP7 PUSH2 0x3CDF JUMP JUMPDEST SWAP4 PUSH2 0x4257 PUSH1 0x40 MLOAD SWAP6 DUP7 PUSH2 0x3CA7 JUMP JUMPDEST DUP7 DUP6 MSTORE PUSH32 0x5361666545524332303A206C6F772D6C6576656C2063616C6C206661696C6564 DUP8 DUP7 ADD MSTORE DUP7 DUP2 MLOAD SWAP2 ADD DUP3 DUP6 GAS CALL PUSH2 0x3F38 PUSH2 0x40C5 JUMP JUMPDEST DUP1 MLOAD DUP3 DUP2 ISZERO SWAP2 DUP3 ISZERO PUSH2 0x4300 JUMPI JUMPDEST POP POP SWAP1 POP ISZERO PUSH2 0x42A9 JUMPI POP JUMP JUMPDEST PUSH1 0x84 SWAP1 PUSH1 0x40 MLOAD SWAP1 PUSH3 0x461BCD PUSH1 0xE5 SHL DUP3 MSTORE PUSH1 0x4 DUP3 ADD MSTORE PUSH1 0x2A PUSH1 0x24 DUP3 ADD MSTORE PUSH32 0x5361666545524332303A204552433230206F7065726174696F6E20646964206E PUSH1 0x44 DUP3 ADD MSTORE PUSH10 0x1BDD081CDD58D8D95959 PUSH1 0xB2 SHL PUSH1 0x64 DUP3 ADD MSTORE REVERT JUMPDEST DUP4 DUP1 SWAP3 SWAP4 POP ADD SUB SLT PUSH2 0x70D JUMPI DUP2 PUSH2 0x4317 SWAP2 ADD PUSH2 0x4220 JUMP JUMPDEST DUP1 DUP3 CODESIZE PUSH2 0x429D JUMP JUMPDEST SWAP2 SWAP1 DUP3 SUB SWAP2 DUP3 GT PUSH2 0x432C JUMPI JUMP JUMPDEST PUSH4 0x4E487B71 PUSH1 0xE0 SHL PUSH1 0x0 MSTORE PUSH1 0x11 PUSH1 0x4 MSTORE PUSH1 0x24 PUSH1 0x0 REVERT JUMPDEST PUSH2 0x434B ADDRESS PUSH2 0x437F JUMP JUMPDEST PUSH2 0x131 SWAP1 PUSH2 0x4368 PUSH2 0x435E DUP4 SLOAD DUP1 SWAP4 PUSH2 0x431F JUMP JUMPDEST PUSH2 0x14E SLOAD SWAP1 PUSH2 0x431F JUMP JUMPDEST DUP1 PUSH2 0x4372 JUMPI POP POP POP JUMP JUMPDEST PUSH2 0x437B SWAP2 PUSH2 0x43FA JUMP JUMPDEST SWAP1 SSTORE JUMP JUMPDEST PUSH2 0x22A SLOAD PUSH1 0x40 MLOAD PUSH4 0x70A08231 PUSH1 0xE0 SHL DUP2 MSTORE PUSH1 0x1 PUSH1 0x1 PUSH1 0xA0 SHL SUB SWAP3 DUP4 AND PUSH1 0x4 DUP3 ADD MSTORE SWAP2 PUSH1 0x20 SWAP2 DUP4 SWAP2 PUSH1 0x24 SWAP2 DUP4 SWAP2 AND GAS STATICCALL SWAP1 DUP2 ISZERO PUSH2 0x43EE JUMPI PUSH1 0x0 SWAP2 PUSH2 0x43C0 JUMPI POP SWAP1 JUMP JUMPDEST SWAP1 PUSH1 0x20 DUP3 RETURNDATASIZE DUP3 GT PUSH2 0x43E6 JUMPI JUMPDEST DUP2 PUSH2 0x43D9 PUSH1 0x20 SWAP4 DUP4 PUSH2 0x3CA7 JUMP JUMPDEST DUP2 ADD SUB SLT PUSH2 0x7B7 JUMPI POP MLOAD SWAP1 JUMP JUMPDEST RETURNDATASIZE SWAP2 POP PUSH2 0x43CC JUMP JUMPDEST PUSH1 0x40 MLOAD RETURNDATASIZE PUSH1 0x0 DUP3 RETURNDATACOPY RETURNDATASIZE SWAP1 REVERT JUMPDEST SWAP2 SWAP1 DUP3 ADD DUP1 SWAP3 GT PUSH2 0x432C JUMPI JUMP JUMPDEST DUP1 MLOAD DUP3 LT ISZERO PUSH2 0x3B6E JUMPI PUSH1 0x20 SWAP2 PUSH1 0x5 SHL ADD ADD SWAP1 JUMP JUMPDEST SWAP1 PUSH1 0x0 SWAP2 PUSH1 0x0 SWAP1 PUSH2 0x137 DUP1 SLOAD SWAP1 PUSH1 0x0 SWAP3 JUMPDEST DUP3 DUP5 LT PUSH2 0x4452 JUMPI POP POP POP POP PUSH2 0x444E PUSH8 0xDE0B6B3A7640000 SWAP2 PUSH2 0x139 SLOAD SWAP1 PUSH2 0x452C JUMP JUMPDEST DIV SWAP1 JUMP JUMPDEST SWAP1 SWAP2 SWAP3 SWAP4 SWAP6 PUSH2 0x449F PUSH2 0x448E PUSH2 0x4499 PUSH1 0x1 SWAP4 PUSH2 0x4493 PUSH2 0x4470 DUP11 DUP9 PUSH2 0x4407 JUMP JUMPDEST MLOAD PUSH2 0x447B DUP2 DUP13 PUSH2 0x44C5 JUMP JUMPDEST SWAP6 SWAP1 PUSH2 0x4487 DUP14 DUP13 PUSH2 0x3C8B JUMP JUMPDEST POP SLOAD PUSH2 0x43FA JUMP JUMPDEST PUSH2 0x5805 JUMP JUMPDEST SWAP1 PUSH2 0x43FA JUMP JUMPDEST SWAP9 PUSH2 0x43FA JUMP JUMPDEST SWAP5 ADD SWAP3 SWAP2 SWAP1 PUSH2 0x442C JUMP JUMPDEST SWAP2 SWAP1 SWAP2 PUSH1 0x0 DUP4 DUP3 ADD SWAP4 DUP5 SLT SWAP2 SLT SWAP1 DUP1 ISZERO DUP3 AND SWAP2 ISZERO AND OR PUSH2 0x432C JUMPI JUMP JUMPDEST SWAP2 SWAP1 PUSH1 0x0 SWAP1 PUSH2 0x44F3 DUP2 PUSH1 0x0 SWAP6 PUSH2 0x44E9 PUSH2 0x44E0 DUP3 PUSH2 0x150 PUSH2 0x3B56 JUMP JUMPDEST SWAP4 SWAP1 SLOAD SWAP3 PUSH2 0x4578 JUMP JUMPDEST SWAP2 PUSH1 0x3 SHL SHR PUSH2 0x44A9 JUMP JUMPDEST PUSH1 0x0 DUP2 SGT PUSH2 0x4502 JUMPI JUMPDEST POP POP SWAP2 SWAP1 JUMP JUMPDEST PUSH2 0x4524 SWAP2 SWAP5 POP PUSH2 0x267E SWAP3 POP DUP1 SWAP5 PUSH8 0xDE0B6B3A7640000 SWAP4 DUP5 SWAP2 PUSH2 0x13A SLOAD PUSH2 0x452C JUMP JUMPDEST DIV CODESIZE DUP1 PUSH2 0x44FC JUMP JUMPDEST DUP2 DUP2 MUL SWAP3 SWAP2 DUP2 ISZERO SWAP2 DUP5 DIV EQ OR ISZERO PUSH2 0x432C JUMPI JUMP JUMPDEST DUP2 ISZERO PUSH2 0x4549 JUMPI DIV SWAP1 JUMP JUMPDEST PUSH4 0x4E487B71 PUSH1 0xE0 SHL PUSH1 0x0 MSTORE PUSH1 0x12 PUSH1 0x4 MSTORE PUSH1 0x24 PUSH1 0x0 REVERT JUMPDEST DUP2 DUP2 SUB SWAP3 SWAP2 PUSH1 0x0 SGT DUP1 ISZERO DUP3 DUP6 SGT AND SWAP2 DUP5 SLT AND OR PUSH2 0x432C JUMPI JUMP JUMPDEST PUSH2 0x4584 DUP2 PUSH2 0x137 PUSH2 0x3C8B JUMP JUMPDEST POP SLOAD SWAP1 PUSH8 0xDE0B6B3A7640000 SWAP2 DUP3 DUP2 MUL SWAP3 DUP2 DUP5 DIV EQ SWAP1 ISZERO OR ISZERO PUSH2 0x432C JUMPI PUSH2 0x3BD8 SWAP3 PUSH2 0x45C4 PUSH2 0x45B7 PUSH2 0x45CA SWAP4 PUSH2 0x151 PUSH2 0x3B56 JUMP JUMPDEST SWAP1 SLOAD SWAP1 PUSH1 0x3 SHL SHR DUP5 PUSH2 0x453F JUMP JUMPDEST SWAP3 PUSH2 0x453F JUMP JUMPDEST SWAP1 PUSH2 0x455F JUMP JUMPDEST DUP1 ISZERO PUSH2 0x45E6 JUMPI PUSH2 0x448E PUSH2 0x3BD8 SWAP3 PUSH2 0x131 SLOAD PUSH2 0x431F JUMP JUMPDEST POP POP PUSH1 0x0 NOT SWAP1 JUMP JUMPDEST PUSH1 0x1 PUSH1 0x1 PUSH1 0xA0 SHL SUB AND PUSH1 0x0 SWAP1 DUP2 MSTORE PUSH2 0x136 PUSH1 0x20 MSTORE PUSH1 0x40 SWAP1 KECCAK256 PUSH1 0x1 DUP2 ADD SLOAD PUSH1 0xFF AND ISZERO PUSH2 0x4617 JUMPI SLOAD SWAP1 JUMP JUMPDEST PUSH1 0x40 MLOAD PUSH4 0xE6C4247B PUSH1 0xE0 SHL DUP2 MSTORE PUSH1 0x4 SWAP1 REVERT JUMPDEST SWAP2 SWAP1 DUP3 PUSH1 0x40 SWAP2 SUB SLT PUSH2 0x70D JUMPI PUSH2 0x3BD8 PUSH1 0x20 DUP4 MLOAD SWAP4 ADD PUSH2 0x4220 JUMP JUMPDEST PUSH1 0x40 DUP1 MLOAD PUSH4 0x59E02DD7 PUSH1 0xE0 SHL DUP2 MSTORE SWAP3 SWAP2 DUP4 SWAP1 PUSH1 0x4 SWAP1 DUP3 SWAP1 PUSH1 0x1 PUSH1 0x1 PUSH1 0xA0 SHL SUB AND GAS STATICCALL SWAP2 DUP3 ISZERO PUSH2 0x43EE JUMPI PUSH1 0x0 SWAP1 DUP2 SWAP4 PUSH2 0x467A JUMPI POP SWAP2 SWAP1 JUMP JUMPDEST SWAP1 POP PUSH2 0x469E SWAP2 SWAP3 POP PUSH1 0x40 RETURNDATASIZE DUP2 GT PUSH2 0x46A2 JUMPI JUMPDEST PUSH2 0x4696 DUP2 DUP4 PUSH2 0x3CA7 JUMP JUMPDEST DUP2 ADD SWAP1 PUSH2 0x4629 JUMP JUMPDEST SWAP1 SWAP2 JUMP JUMPDEST POP RETURNDATASIZE PUSH2 0x468C JUMP JUMPDEST PUSH8 0xFFFFFFFFFFFFFFFF DUP2 GT PUSH2 0x3CC9 JUMPI PUSH1 0x5 SHL PUSH1 0x20 ADD SWAP1 JUMP JUMPDEST SWAP1 PUSH2 0x46CB DUP3 PUSH2 0x46A9 JUMP JUMPDEST PUSH2 0x46D8 PUSH1 0x40 MLOAD SWAP2 DUP3 PUSH2 0x3CA7 JUMP JUMPDEST DUP3 DUP2 MSTORE DUP1 SWAP3 PUSH2 0x46E9 PUSH1 0x1F NOT SWAP2 PUSH2 0x46A9 JUMP JUMPDEST ADD SWAP1 PUSH1 0x20 CALLDATASIZE SWAP2 ADD CALLDATACOPY JUMP JUMPDEST PUSH2 0x137 SLOAD SWAP1 PUSH2 0x4701 DUP3 PUSH2 0x46C1 JUMP JUMPDEST SWAP2 PUSH1 0x0 JUMPDEST DUP2 DUP2 LT PUSH2 0x4710 JUMPI POP POP JUMP JUMPDEST DUP1 PUSH2 0x471C PUSH1 0x1 SWAP3 PUSH2 0x472D JUMP JUMPDEST PUSH2 0x4726 DUP3 DUP8 PUSH2 0x4407 JUMP JUMPDEST MSTORE ADD PUSH2 0x4705 JUMP JUMPDEST PUSH2 0x4739 SWAP1 PUSH2 0x137 PUSH2 0x3C8B JUMP JUMPDEST POP PUSH1 0x1 ADD SLOAD PUSH1 0x1 PUSH1 0x1 PUSH1 0xA0 SHL SUB AND PUSH2 0x4750 DUP2 PUSH2 0x4643 JUMP JUMPDEST SWAP2 SWAP1 SWAP2 ISZERO PUSH2 0x475C JUMPI POP SWAP1 JUMP JUMPDEST PUSH1 0x24 SWAP1 PUSH1 0x40 MLOAD SWAP1 PUSH4 0x7F6E4DB9 PUSH1 0xE0 SHL DUP3 MSTORE PUSH1 0x4 DUP3 ADD MSTORE REVERT JUMPDEST SWAP1 PUSH2 0x4795 PUSH8 0xDE0B6B3A7640000 SWAP3 DUP4 PUSH2 0x157 SLOAD PUSH2 0x154 SLOAD SWAP3 NUMBER ADD SUB MUL PUSH2 0x453F JUMP JUMPDEST DUP3 DUP2 LT ISZERO PUSH2 0x47B2 JUMPI DUP3 SUB SWAP2 DUP1 DUP4 PUSH2 0x155 SLOAD MUL DIV SWAP3 PUSH2 0x156 SLOAD MUL SDIV SWAP1 JUMP JUMPDEST POP PUSH1 0x0 SWAP2 POP DUP2 SWAP1 JUMP JUMPDEST SWAP1 SWAP2 PUSH2 0x47C5 PUSH2 0x481D JUMP JUMPDEST SWAP3 SWAP1 DUP1 DUP3 LT ISZERO PUSH2 0x4813 JUMPI DUP4 SWAP2 PUSH2 0x47DA SWAP2 PUSH2 0x431F JUMP JUMPDEST SWAP4 GT ISZERO PUSH2 0x480E JUMPI DUP2 DUP2 LT ISZERO PUSH2 0x4806 JUMPI PUSH2 0x47F2 SWAP2 PUSH2 0x431F JUMP JUMPDEST PUSH1 0x1 SHR DUP1 DUP3 LT ISZERO PUSH2 0x4801 JUMPI POP SWAP1 JUMP JUMPDEST SWAP1 POP SWAP1 JUMP JUMPDEST POP POP POP PUSH1 0x0 SWAP1 JUMP JUMPDEST POP POP SWAP1 JUMP JUMPDEST POP POP POP POP POP PUSH1 0x0 SWAP1 JUMP JUMPDEST PUSH2 0x152 SLOAD PUSH1 0x40 DUP1 MLOAD PUSH4 0x59E02DD7 PUSH1 0xE0 SHL DUP1 DUP3 MSTORE SWAP4 SWAP3 SWAP1 SWAP2 SWAP1 PUSH1 0x1 PUSH1 0x1 PUSH1 0xA0 SHL SUB SWAP1 DUP2 AND DUP3 DUP5 PUSH1 0x4 DUP2 DUP5 GAS STATICCALL DUP1 ISZERO PUSH2 0x490D JUMPI PUSH1 0x0 SWAP5 DUP6 SWAP2 PUSH2 0x48EA JUMPI JUMPDEST POP ISZERO PUSH2 0x48D3 JUMPI POP PUSH2 0x153 SLOAD AND SWAP1 DUP1 MLOAD SWAP5 DUP6 MSTORE DUP1 DUP6 PUSH1 0x4 DUP2 DUP6 GAS STATICCALL DUP1 ISZERO PUSH2 0x48C8 JUMPI PUSH1 0x0 SWAP6 DUP7 SWAP2 PUSH2 0x48A5 JUMPI JUMPDEST POP ISZERO PUSH2 0x488E JUMPI POP POP SWAP2 SWAP1 JUMP JUMPDEST PUSH1 0x24 SWAP3 POP MLOAD SWAP1 PUSH4 0x5E89893 PUSH1 0xE1 SHL DUP3 MSTORE PUSH1 0x4 DUP3 ADD MSTORE REVERT JUMPDEST SWAP1 POP DUP2 PUSH2 0x48BF SWAP3 SWAP7 POP RETURNDATASIZE DUP8 GT PUSH2 0x46A2 JUMPI PUSH2 0x4696 DUP2 DUP4 PUSH2 0x3CA7 JUMP JUMPDEST SWAP5 SWAP1 SWAP5 CODESIZE PUSH2 0x4882 JUMP JUMPDEST POP MLOAD RETURNDATASIZE PUSH1 0x0 DUP3 RETURNDATACOPY RETURNDATASIZE SWAP1 REVERT JUMPDEST PUSH1 0x24 SWAP1 DUP4 MLOAD SWAP1 PUSH4 0x5E89893 PUSH1 0xE1 SHL DUP3 MSTORE PUSH1 0x4 DUP3 ADD MSTORE REVERT JUMPDEST SWAP1 POP PUSH2 0x4904 SWAP2 SWAP5 POP DUP4 RETURNDATASIZE DUP6 GT PUSH2 0x46A2 JUMPI PUSH2 0x4696 DUP2 DUP4 PUSH2 0x3CA7 JUMP JUMPDEST SWAP4 SWAP1 SWAP4 CODESIZE PUSH2 0x4858 JUMP JUMPDEST DUP4 MLOAD RETURNDATASIZE PUSH1 0x0 DUP3 RETURNDATACOPY RETURNDATASIZE SWAP1 REVERT JUMPDEST ISZERO PUSH2 0x491F JUMPI JUMP JUMPDEST PUSH1 0x40 MLOAD PUSH3 0x461BCD PUSH1 0xE5 SHL DUP2 MSTORE PUSH1 0x20 PUSH1 0x4 DUP3 ADD MSTORE PUSH1 0x2B PUSH1 0x24 DUP3 ADD MSTORE PUSH32 0x496E697469616C697A61626C653A20636F6E7472616374206973206E6F742069 PUSH1 0x44 DUP3 ADD MSTORE PUSH11 0x6E697469616C697A696E67 PUSH1 0xA8 SHL PUSH1 0x64 DUP3 ADD MSTORE PUSH1 0x84 SWAP1 REVERT JUMPDEST SWAP1 PUSH2 0x3BD8 SWAP2 PUSH1 0x0 DUP1 PUSH2 0x4988 PUSH2 0x4071 JUMP JUMPDEST SWAP4 PUSH1 0x20 DUP2 MLOAD SWAP2 ADD DUP5 GAS DELEGATECALL PUSH2 0x3F38 PUSH2 0x40C5 JUMP JUMPDEST PUSH2 0x4A08 SWAP4 PUSH2 0x49CF PUSH1 0x0 SWAP3 PUSH1 0x20 SWAP6 PUSH2 0x49B3 DUP3 PUSH2 0x137 PUSH2 0x3C8B JUMP JUMPDEST POP PUSH2 0x49BF DUP8 DUP3 SLOAD PUSH2 0x43FA JUMP JUMPDEST SWAP1 SSTORE PUSH2 0x1632 PUSH2 0x131 SWAP2 DUP3 SLOAD PUSH2 0x43FA JUMP JUMPDEST SWAP1 SLOAD PUSH1 0x40 MLOAD PUSH4 0x40C10F19 PUSH1 0xE0 SHL DUP2 MSTORE PUSH1 0x1 PUSH1 0x1 PUSH1 0xA0 SHL SUB SWAP1 SWAP4 AND PUSH1 0x4 DUP5 ADD MSTORE PUSH1 0x24 DUP4 ADD SWAP5 SWAP1 SWAP5 MSTORE SWAP1 SWAP5 DUP6 SWAP4 SWAP3 DUP5 SWAP3 SWAP1 SWAP2 DUP4 SWAP1 PUSH1 0x44 DUP3 ADD SWAP1 JUMP JUMPDEST SUB SWAP4 PUSH1 0x3 SWAP2 SWAP1 SWAP2 SHL SHR PUSH1 0x1 PUSH1 0x1 PUSH1 0xA0 SHL SUB AND GAS CALL DUP1 ISZERO PUSH2 0x43EE JUMPI PUSH2 0x4A29 JUMPI POP JUMP JUMPDEST PUSH1 0x20 DUP2 RETURNDATASIZE DUP3 GT PUSH2 0x4A52 JUMPI JUMPDEST DUP2 PUSH2 0x4A41 PUSH1 0x20 SWAP4 DUP4 PUSH2 0x3CA7 JUMP JUMPDEST DUP2 ADD SUB SLT PUSH2 0x70D JUMPI PUSH2 0x3F3E SWAP1 PUSH2 0x4220 JUMP JUMPDEST RETURNDATASIZE SWAP2 POP PUSH2 0x4A34 JUMP JUMPDEST PUSH2 0x2697 PUSH2 0x437B SWAP2 PUSH2 0x4A6B DUP5 DUP3 PUSH2 0x4578 JUMP JUMPDEST PUSH2 0x4AA1 PUSH2 0x4A7A DUP4 PUSH2 0x150 PUSH2 0x3B56 JUMP JUMPDEST PUSH2 0x4A8D DUP3 SWAP5 SWAP3 SLOAD SWAP3 DUP4 DUP4 PUSH1 0x3 SHL SHR PUSH2 0x44A9 JUMP JUMPDEST SWAP2 SWAP1 PUSH1 0x3 SHL SWAP2 DUP3 SHL SWAP2 PUSH1 0x0 NOT SWAP1 SHL NOT AND OR SWAP1 JUMP JUMPDEST SWAP1 SSTORE PUSH2 0x151 PUSH2 0x3B56 JUMP JUMPDEST PUSH1 0xE0 DUP2 ADD SWAP3 SWAP2 PUSH1 0xC0 SWAP1 DUP2 SWAP1 PUSH1 0x1 PUSH1 0x1 PUSH1 0xA0 SHL SUB DUP1 PUSH2 0x4AC8 DUP4 PUSH2 0x3B84 JUMP JUMPDEST AND DUP6 MSTORE PUSH2 0x4AD7 PUSH1 0x20 DUP4 ADD PUSH2 0x3B84 JUMP JUMPDEST AND PUSH1 0x20 DUP6 ADD MSTORE PUSH1 0x40 DUP2 ADD CALLDATALOAD PUSH1 0x40 DUP6 ADD MSTORE PUSH1 0x60 DUP2 ADD CALLDATALOAD PUSH1 0x60 DUP6 ADD MSTORE PUSH1 0x80 DUP2 ADD CALLDATALOAD PUSH1 0x80 DUP6 ADD MSTORE PUSH1 0xA0 DUP2 ADD CALLDATALOAD PUSH1 0xA0 DUP6 ADD MSTORE ADD CALLDATALOAD SWAP2 ADD MSTORE JUMP JUMPDEST SWAP1 PUSH2 0x134 SLOAD SWAP1 DUP2 ISZERO PUSH2 0x4B31 JUMPI PUSH2 0x3BD8 SWAP3 PUSH2 0x4B2C PUSH2 0x448E SWAP3 PUSH2 0x131 SLOAD PUSH2 0x431F JUMP JUMPDEST PUSH2 0x431F JUMP JUMPDEST POP POP POP PUSH8 0xDE0B6B3A7640000 SWAP1 JUMP JUMPDEST DUP3 DUP3 PUSH2 0x4B4B SWAP3 PUSH2 0x4B68 JUMP JUMPDEST SWAP1 PUSH1 0x0 DUP3 SGT ISZERO PUSH2 0x4806 JUMPI PUSH2 0x3BD8 SWAP3 PUSH2 0x4B62 SWAP2 PUSH2 0x4B0C JUMP JUMPDEST SWAP1 PUSH2 0x453F JUMP JUMPDEST SWAP1 SWAP2 PUSH2 0x4B77 SWAP1 PUSH2 0x131 SLOAD PUSH2 0x431F JUMP JUMPDEST SWAP1 PUSH8 0xDE0B6B3A7640000 SWAP2 DUP3 DUP2 MUL SWAP3 DUP2 DUP5 DIV EQ SWAP1 ISZERO OR ISZERO PUSH2 0x432C JUMPI PUSH2 0x3BD8 SWAP3 PUSH2 0x45CA SWAP2 PUSH2 0x452C JUMP JUMPDEST SWAP3 PUSH2 0x4BAD SWAP3 SWAP4 SWAP5 SWAP2 SWAP5 PUSH2 0x4B68 JUMP JUMPDEST DUP2 DUP2 MUL SWAP2 PUSH1 0x0 SWAP2 PUSH1 0x1 PUSH1 0xFF SHL SWAP2 DUP4 DUP3 SLT DUP4 DUP3 EQ AND PUSH2 0x4C51 JUMPI DUP2 DUP6 SDIV EQ SWAP1 ISZERO OR ISZERO PUSH2 0x4C3D JUMPI PUSH8 0xDE0B6B3A763FFFF NOT DUP5 ADD SWAP4 DUP5 GT PUSH2 0x4C3D JUMPI PUSH8 0xDE0B6B3A7640000 SWAP4 DUP5 DUP2 MUL SWAP5 DUP2 DUP7 DIV EQ SWAP1 ISZERO OR ISZERO PUSH2 0x4C3D JUMPI DUP4 ISZERO PUSH2 0x4C29 JUMPI DUP3 EQ PUSH1 0x0 NOT DUP5 EQ AND PUSH2 0x4C15 JUMPI POP SDIV SWAP1 JUMP JUMPDEST PUSH4 0x4E487B71 PUSH1 0xE0 SHL DUP2 MSTORE PUSH1 0x11 PUSH1 0x4 MSTORE PUSH1 0x24 SWAP1 REVERT JUMPDEST PUSH4 0x4E487B71 PUSH1 0xE0 SHL DUP3 MSTORE PUSH1 0x12 PUSH1 0x4 MSTORE PUSH1 0x24 DUP3 REVERT JUMPDEST PUSH4 0x4E487B71 PUSH1 0xE0 SHL DUP3 MSTORE PUSH1 0x11 PUSH1 0x4 MSTORE PUSH1 0x24 DUP3 REVERT JUMPDEST PUSH4 0x4E487B71 PUSH1 0xE0 SHL DUP5 MSTORE PUSH1 0x11 PUSH1 0x4 MSTORE PUSH1 0x24 DUP5 REVERT JUMPDEST PUSH2 0x14D SLOAD DUP1 NUMBER LT ISZERO PUSH2 0x4C7C JUMPI PUSH2 0x3BD8 SWAP1 NUMBER SWAP1 PUSH2 0x431F JUMP JUMPDEST POP PUSH1 0x0 SWAP1 JUMP JUMPDEST SWAP1 PUSH1 0x40 MLOAD PUSH2 0x4C91 PUSH1 0x40 DUP3 PUSH2 0x3CA7 JUMP JUMPDEST PUSH1 0x20 PUSH1 0x1 DUP3 SWAP5 DUP1 SLOAD DUP5 MSTORE ADD SLOAD SWAP2 ADD MSTORE JUMP JUMPDEST PUSH2 0x4CAE DUP2 PUSH2 0x148 PUSH2 0x3B56 JUMP JUMPDEST SWAP1 SLOAD SWAP1 PUSH1 0x3 SHL SHR SWAP2 PUSH2 0x18E SWAP2 PUSH2 0x4CC4 DUP2 DUP5 PUSH2 0x3C8B JUMP JUMPDEST POP SLOAD SWAP3 PUSH2 0x18F SLOAD NUMBER LT ISZERO PUSH2 0x4CEF JUMPI JUMPDEST POP POP DUP1 DUP3 LT ISZERO PUSH2 0x480E JUMPI PUSH2 0x4CEA SWAP1 PUSH2 0x3BD8 SWAP4 PUSH2 0x452C JUMP JUMPDEST PUSH2 0x453F JUMP JUMPDEST DUP3 SWAP4 POP PUSH2 0x4D03 PUSH2 0x4D0E SWAP4 SWAP3 PUSH2 0x4D09 SWAP3 PUSH2 0x3C8B JUMP JUMPDEST POP PUSH2 0x4C82 JUMP JUMPDEST PUSH2 0x4D16 JUMP JUMPDEST SWAP1 CODESIZE DUP1 PUSH2 0x4CD3 JUMP JUMPDEST PUSH1 0x20 DUP2 MLOAD SWAP2 ADD DUP1 MLOAD SWAP3 PUSH8 0xDE0B6B3A7640000 SWAP4 DUP5 SUB SWAP1 DUP5 DUP3 GT PUSH2 0x432C JUMPI PUSH2 0x4D43 PUSH2 0x4493 SWAP3 PUSH2 0x444E SWAP6 PUSH2 0x452C JUMP JUMPDEST SWAP3 MLOAD PUSH2 0x452C JUMP JUMPDEST PUSH1 0x0 DUP1 PUSH2 0x137 SWAP2 DUP3 SLOAD SWAP3 PUSH2 0x4D5D DUP5 PUSH2 0x46C1 JUMP JUMPDEST SWAP4 DUP3 SWAP2 JUMPDEST DUP2 DUP4 LT PUSH2 0x4D8A JUMPI POP POP POP DUP2 ISZERO PUSH2 0x4D7E JUMPI SWAP1 PUSH2 0x4D7B SWAP2 PUSH2 0x453F JUMP JUMPDEST SWAP2 JUMP JUMPDEST POP POP PUSH2 0x149 SLOAD PUSH1 0x1 SHL SWAP2 JUMP JUMPDEST SWAP1 SWAP2 SWAP4 SWAP3 PUSH2 0x4D97 DUP6 PUSH2 0x472D JUMP JUMPDEST SWAP1 DUP2 PUSH2 0x4DA3 DUP8 DUP10 PUSH2 0x4407 JUMP JUMPDEST MSTORE PUSH2 0x4DBC PUSH2 0x4DB1 DUP4 DUP9 PUSH2 0x44C5 JUMP JUMPDEST POP PUSH2 0x4487 DUP9 DUP7 PUSH2 0x3C8B JUMP JUMPDEST PUSH8 0xDE0B6B3A7640000 SWAP1 DUP2 DUP2 MUL SWAP2 DUP2 DUP4 DIV EQ SWAP1 ISZERO OR ISZERO PUSH2 0x432C JUMPI PUSH2 0x4DFE PUSH2 0x4E04 SWAP3 PUSH2 0x4493 DUP6 PUSH2 0x4DF0 PUSH1 0x1 SWAP8 PUSH2 0x4DF9 SWAP7 PUSH2 0x5805 JUMP JUMPDEST SWAP5 DUP6 SWAP2 DUP13 PUSH2 0x4CA2 JUMP JUMPDEST PUSH2 0x452C JUMP JUMPDEST SWAP6 PUSH2 0x43FA JUMP JUMPDEST SWAP5 ADD SWAP2 SWAP1 PUSH2 0x4D61 JUMP JUMPDEST PUSH2 0x18F DUP1 SLOAD NUMBER LT ISZERO PUSH2 0x4E1C JUMPI POP JUMP JUMPDEST PUSH2 0x137 SLOAD PUSH1 0x0 JUMPDEST DUP2 DUP2 LT PUSH2 0x4E36 JUMPI POP POP PUSH2 0x190 SLOAD NUMBER ADD SWAP1 SSTORE JUMP JUMPDEST DUP1 DUP1 PUSH32 0x19156E9379C7BBBCE8F646CE5EE30BA860B8F954717405F3D5859A6C1A21AE60 PUSH1 0x1 SWAP4 PUSH2 0x18E PUSH2 0x4E6C PUSH2 0x4D03 DUP4 DUP4 PUSH2 0x3C8B JUMP JUMPDEST SWAP1 PUSH2 0x4E8A PUSH2 0x4E82 PUSH2 0x4E7C DUP6 PUSH2 0x472D JUMP JUMPDEST DUP5 PUSH2 0x4D16 JUMP JUMPDEST SWAP4 DUP5 SWAP3 PUSH2 0x3C8B JUMP JUMPDEST POP SSTORE MLOAD PUSH1 0x40 SWAP2 DUP3 MLOAD SWAP2 DUP3 MSTORE PUSH1 0x20 DUP3 ADD MSTORE LOG2 ADD PUSH2 0x4E23 JUMP JUMPDEST PUSH2 0x3C17 SWAP1 PUSH2 0x14E PUSH2 0x4EB3 DUP3 DUP3 SLOAD PUSH2 0x43FA JUMP JUMPDEST SWAP1 SSTORE PUSH2 0x22A SLOAD ADDRESS SWAP1 CALLER SWAP1 PUSH1 0x1 PUSH1 0x1 PUSH1 0xA0 SHL SUB AND JUMPDEST PUSH1 0x40 MLOAD PUSH4 0x23B872DD PUSH1 0xE0 SHL PUSH1 0x20 DUP3 ADD MSTORE PUSH1 0x1 PUSH1 0x1 PUSH1 0xA0 SHL SUB SWAP3 DUP4 AND PUSH1 0x24 DUP3 ADD MSTORE SWAP3 SWAP1 SWAP2 AND PUSH1 0x44 DUP4 ADD MSTORE PUSH1 0x64 DUP1 DUP4 ADD SWAP4 SWAP1 SWAP4 MSTORE SWAP2 DUP2 MSTORE PUSH2 0x3C17 SWAP2 PUSH2 0x421B PUSH1 0x84 DUP4 PUSH2 0x3CA7 JUMP JUMPDEST PUSH1 0xFF PUSH2 0x14B SLOAD PUSH1 0x8 SHR AND PUSH2 0x4F1B JUMPI JUMP JUMPDEST PUSH1 0x40 MLOAD PUSH4 0x1CA61D77 PUSH1 0xE0 SHL DUP2 MSTORE PUSH1 0x4 SWAP1 REVERT JUMPDEST PUSH1 0xA0 SWAP1 DUP2 PUSH1 0x1 DUP1 DUP3 SHL SUB SWAP2 DUP3 DUP2 MLOAD AND DUP6 MSTORE PUSH1 0x20 DUP2 ADD MLOAD PUSH1 0x20 DUP7 ADD MSTORE PUSH1 0x40 DUP2 ADD MLOAD PUSH1 0x40 DUP7 ADD MSTORE DUP3 PUSH1 0x60 DUP3 ADD MLOAD AND PUSH1 0x60 DUP7 ADD MSTORE DUP3 PUSH1 0x80 DUP3 ADD MLOAD AND PUSH1 0x80 DUP7 ADD MSTORE ADD MLOAD AND SWAP2 ADD MSTORE JUMP JUMPDEST SWAP2 SWAP1 SWAP2 PUSH1 0xE0 PUSH2 0x100 DUP3 ADD SWAP4 DUP2 PUSH1 0x1 DUP1 PUSH1 0xA0 SHL SUB SWAP2 DUP3 DUP2 MLOAD AND DUP6 MSTORE DUP3 PUSH1 0x20 DUP3 ADD MLOAD AND PUSH1 0x20 DUP7 ADD MSTORE PUSH1 0x40 DUP2 ADD MLOAD PUSH1 0x40 DUP7 ADD MSTORE PUSH1 0x60 DUP2 ADD MLOAD PUSH1 0x60 DUP7 ADD MSTORE PUSH1 0x80 DUP2 ADD MLOAD PUSH1 0x80 DUP7 ADD MSTORE DUP3 PUSH1 0xA0 DUP3 ADD MLOAD AND PUSH1 0xA0 DUP7 ADD MSTORE DUP3 PUSH1 0xC0 DUP3 ADD MLOAD AND PUSH1 0xC0 DUP7 ADD MSTORE ADD MLOAD AND SWAP2 ADD MSTORE JUMP JUMPDEST PUSH1 0xC0 SWAP1 DUP2 PUSH1 0x1 DUP1 PUSH1 0xA0 SHL SUB SWAP2 DUP3 DUP2 MLOAD AND DUP6 MSTORE PUSH1 0x20 DUP2 ADD MLOAD PUSH1 0x20 DUP7 ADD MSTORE PUSH1 0x40 DUP2 ADD MLOAD PUSH1 0x40 DUP7 ADD MSTORE PUSH1 0x60 DUP2 ADD MLOAD PUSH1 0x60 DUP7 ADD MSTORE DUP3 PUSH1 0x80 DUP3 ADD MLOAD AND PUSH1 0x80 DUP7 ADD MSTORE DUP3 PUSH1 0xA0 DUP3 ADD MLOAD AND PUSH1 0xA0 DUP7 ADD MSTORE ADD MLOAD AND SWAP2 ADD MSTORE JUMP JUMPDEST PUSH1 0x40 MLOAD SWAP1 PUSH2 0x5035 PUSH1 0x80 DUP4 PUSH2 0x3CA7 JUMP JUMPDEST PUSH1 0x0 PUSH1 0x60 DUP4 DUP3 DUP2 MSTORE DUP3 PUSH1 0x20 DUP3 ADD MSTORE DUP3 PUSH1 0x40 DUP3 ADD MSTORE ADD MSTORE JUMP JUMPDEST SWAP2 SWAP1 DUP3 PUSH1 0xA0 SWAP2 SUB SLT PUSH2 0x70D JUMPI PUSH1 0x40 MLOAD PUSH2 0x5067 PUSH1 0xA0 DUP3 PUSH2 0x3CA7 JUMP JUMPDEST PUSH1 0x80 PUSH2 0x50A5 DUP2 DUP4 SWAP6 DUP1 CALLDATALOAD DUP6 MSTORE PUSH1 0x20 DUP2 ADD CALLDATALOAD PUSH1 0x20 DUP7 ADD MSTORE PUSH2 0x5089 PUSH1 0x40 DUP3 ADD PUSH2 0x3B84 JUMP JUMPDEST PUSH1 0x40 DUP7 ADD MSTORE PUSH2 0x509A PUSH1 0x60 DUP3 ADD PUSH2 0x3B84 JUMP JUMPDEST PUSH1 0x60 DUP7 ADD MSTORE ADD PUSH2 0x3B84 JUMP JUMPDEST SWAP2 ADD MSTORE JUMP JUMPDEST SWAP2 SWAP1 PUSH2 0x50B5 SWAP1 PUSH2 0x441B JUMP JUMPDEST SWAP2 SWAP1 SWAP3 PUSH2 0x50C2 DUP4 DUP6 PUSH2 0x45D0 JUMP JUMPDEST SWAP1 DUP1 DUP3 GT ISZERO PUSH2 0x50CF JUMPI POP POP JUMP JUMPDEST PUSH1 0x44 SWAP3 POP PUSH1 0x40 MLOAD SWAP2 PUSH4 0x79121201 PUSH1 0xE0 SHL DUP4 MSTORE PUSH1 0x4 DUP4 ADD MSTORE PUSH1 0x24 DUP3 ADD MSTORE REVERT JUMPDEST SWAP3 SWAP1 SWAP4 SWAP2 PUSH1 0x0 SWAP2 PUSH1 0x0 SWAP2 DUP3 SWAP7 PUSH2 0x5101 PUSH2 0x5026 JUMP JUMPDEST SWAP7 PUSH1 0x1 PUSH1 0x1 PUSH1 0xA0 SHL SUB SWAP2 DUP6 SWAP1 DUP4 AND DUP1 PUSH2 0x530D JUMPI JUMPDEST POP DUP3 PUSH2 0x12F SLOAD AND DUP4 PUSH1 0x40 MLOAD SWAP4 PUSH4 0x6EB1769F PUSH1 0xE1 SHL DUP6 MSTORE AND DUP1 PUSH1 0x4 DUP6 ADD MSTORE ADDRESS PUSH1 0x24 DUP6 ADD MSTORE PUSH1 0x20 SWAP5 DUP6 DUP6 PUSH1 0x44 DUP2 DUP7 GAS STATICCALL SWAP5 DUP6 ISZERO PUSH2 0x5302 JUMPI DUP5 SWAP6 PUSH2 0x52D3 JUMPI JUMPDEST POP DUP5 PUSH2 0x51B2 JUMPI JUMPDEST POP POP POP POP POP DUP7 ADD MLOAD ISZERO PUSH2 0x516E JUMPI JUMPDEST POP POP POP SWAP3 SWAP2 SWAP1 JUMP JUMPDEST SWAP1 SWAP2 SWAP3 POP PUSH2 0x5186 PUSH8 0xDE0B6B3A7640000 SWAP3 DUP4 SWAP3 PUSH2 0x452C JUMP JUMPDEST DIV DUP1 DUP6 MSTORE SWAP1 DUP3 ISZERO PUSH2 0x51AA JUMPI PUSH2 0x51A2 SWAP3 DIV SWAP1 DUP2 PUSH1 0x40 DUP7 ADD MSTORE PUSH2 0x43FA JUMP JUMPDEST CODESIZE DUP1 DUP1 PUSH2 0x5166 JUMP JUMPDEST POP SWAP1 POP PUSH2 0x51A2 JUMP JUMPDEST PUSH2 0x51C0 SWAP1 PUSH2 0x130 SLOAD AND PUSH2 0x4643 JUMP JUMPDEST SWAP3 SWAP1 SWAP3 ISZERO PUSH2 0x5158 JUMPI SWAP1 SWAP2 SWAP3 SWAP4 SWAP12 POP DUP5 DUP12 PUSH2 0x51FA DUP6 PUSH8 0xDE0B6B3A7640000 PUSH2 0x51F4 PUSH2 0x51EA DUP14 DUP14 PUSH2 0x452C JUMP JUMPDEST PUSH2 0x143 SLOAD SWAP1 PUSH2 0x452C JUMP JUMPDEST DIV PUSH2 0x453F JUMP JUMPDEST DUP2 DUP4 ADD DUP2 DUP2 MSTORE SWAP6 SWAP1 DUP12 ISZERO PUSH2 0x52C9 JUMPI POP PUSH2 0x5225 SWAP2 PUSH2 0x5219 PUSH1 0x60 SWAP3 DUP14 PUSH2 0x453F JUMP JUMPDEST SWAP2 DUP3 SWAP2 ADD MSTORE DUP6 MLOAD PUSH2 0x43FA JUMP JUMPDEST DUP1 SWAP14 JUMPDEST LT SWAP3 DUP4 ISZERO PUSH2 0x5254 JUMPI JUMPDEST POP POP POP PUSH2 0x5241 JUMPI JUMPDEST DUP1 DUP1 DUP1 PUSH2 0x5158 JUMP JUMPDEST DUP2 SWAP3 SWAP10 POP MSTORE DUP1 PUSH1 0x60 DUP9 ADD MSTORE SWAP7 CODESIZE DUP1 PUSH2 0x5239 JUMP JUMPDEST SWAP1 SWAP2 SWAP3 POP PUSH1 0x24 PUSH1 0x40 MLOAD DUP1 SWAP5 DUP2 SWAP4 PUSH4 0x70A08231 PUSH1 0xE0 SHL DUP4 MSTORE PUSH1 0x4 DUP4 ADD MSTORE GAS STATICCALL SWAP1 DUP2 ISZERO PUSH2 0x52BE JUMPI SWAP1 DUP12 SWAP2 DUP5 SWAP2 PUSH2 0x528D JUMPI JUMPDEST POP LT CODESIZE DUP5 DUP2 PUSH2 0x5231 JUMP JUMPDEST DUP1 SWAP3 POP DUP6 DUP1 SWAP3 POP RETURNDATASIZE DUP4 GT PUSH2 0x52B7 JUMPI JUMPDEST PUSH2 0x52A6 DUP2 DUP4 PUSH2 0x3CA7 JUMP JUMPDEST DUP2 ADD SUB SLT PUSH2 0x90C JUMPI DUP11 SWAP1 MLOAD CODESIZE PUSH2 0x5283 JUMP JUMPDEST POP RETURNDATASIZE PUSH2 0x529C JUMP JUMPDEST PUSH1 0x40 MLOAD RETURNDATASIZE DUP6 DUP3 RETURNDATACOPY RETURNDATASIZE SWAP1 REVERT JUMPDEST SWAP2 POP POP DUP1 SWAP14 PUSH2 0x5228 JUMP JUMPDEST SWAP1 SWAP5 POP DUP6 DUP2 DUP2 RETURNDATASIZE DUP4 GT PUSH2 0x52FB JUMPI JUMPDEST PUSH2 0x52EB DUP2 DUP4 PUSH2 0x3CA7 JUMP JUMPDEST DUP2 ADD SUB SLT PUSH2 0x9E6 JUMPI MLOAD SWAP4 CODESIZE PUSH2 0x5151 JUMP JUMPDEST POP RETURNDATASIZE PUSH2 0x52E1 JUMP JUMPDEST PUSH1 0x40 MLOAD RETURNDATASIZE DUP7 DUP3 RETURNDATACOPY RETURNDATASIZE SWAP1 REVERT JUMPDEST SWAP1 SWAP6 POP PUSH1 0x20 DUP4 PUSH2 0x1C3 SLOAD AND SWAP2 PUSH1 0x24 PUSH1 0x40 MLOAD DUP1 SWAP5 DUP2 SWAP4 PUSH4 0x64A731E9 PUSH1 0xE0 SHL DUP4 MSTORE PUSH1 0x4 DUP4 ADD MSTORE GAS STATICCALL DUP1 ISZERO PUSH2 0x5385 JUMPI DUP7 SWAP1 PUSH2 0x5352 JUMPI JUMPDEST PUSH2 0x534B SWAP2 POP DUP5 PUSH2 0x452C JUMP JUMPDEST SWAP5 CODESIZE PUSH2 0x5115 JUMP JUMPDEST POP PUSH1 0x20 DUP2 RETURNDATASIZE DUP3 GT PUSH2 0x537D JUMPI JUMPDEST DUP2 PUSH2 0x536B PUSH1 0x20 SWAP4 DUP4 PUSH2 0x3CA7 JUMP JUMPDEST DUP2 ADD SUB SLT PUSH2 0x2A05 JUMPI PUSH2 0x534B SWAP1 MLOAD PUSH2 0x5340 JUMP JUMPDEST RETURNDATASIZE SWAP2 POP PUSH2 0x535E JUMP JUMPDEST PUSH1 0x40 MLOAD RETURNDATASIZE DUP9 DUP3 RETURNDATACOPY RETURNDATASIZE SWAP1 REVERT JUMPDEST SWAP3 PUSH2 0x3C17 SWAP5 SWAP2 SWAP3 SWAP4 DUP3 MLOAD ISZERO ISZERO PUSH1 0x0 EQ PUSH2 0x5400 JUMPI POP PUSH1 0x40 PUSH2 0x53FB SWAP3 PUSH2 0x53F3 PUSH8 0xDE0B6B3A7640000 PUSH2 0x53C5 PUSH2 0x13B SLOAD DUP5 MLOAD SWAP1 PUSH2 0x452C JUMP JUMPDEST DIV PUSH2 0x131 PUSH2 0x53D4 DUP3 DUP3 SLOAD PUSH2 0x43FA JUMP JUMPDEST SWAP1 SSTORE PUSH2 0x53ED PUSH1 0x1 DUP1 PUSH1 0xA0 SHL SUB PUSH2 0x146 SLOAD AND SWAP2 DUP5 MLOAD PUSH2 0x431F JUMP JUMPDEST SWAP1 PUSH2 0x41C9 JUMP JUMPDEST ADD MLOAD SWAP1 PUSH2 0x41C9 JUMP JUMPDEST PUSH2 0x41C9 JUMP JUMPDEST SWAP1 PUSH1 0x60 PUSH2 0x53FB SWAP4 PUSH2 0x5422 PUSH1 0x1 DUP1 PUSH1 0xA0 SHL SUB PUSH2 0x146 SLOAD AND PUSH1 0x20 DUP4 ADD MLOAD SWAP1 DUP7 PUSH2 0x5426 JUMP JUMPDEST ADD MLOAD SWAP2 JUMPDEST SWAP2 SWAP1 DUP2 PUSH2 0x5432 JUMPI POP POP POP JUMP JUMPDEST PUSH2 0x12F SLOAD PUSH2 0x3C17 SWAP4 SWAP1 PUSH1 0x1 PUSH1 0x1 PUSH1 0xA0 SHL SUB AND PUSH2 0x4EC7 JUMP JUMPDEST SWAP2 SWAP1 DUP3 PUSH1 0xC0 SWAP2 SUB SLT PUSH2 0x70D JUMPI PUSH1 0x40 MLOAD PUSH2 0x5463 PUSH1 0xC0 DUP3 PUSH2 0x3CA7 JUMP JUMPDEST PUSH1 0xA0 PUSH2 0x50A5 DUP2 DUP4 SWAP6 PUSH2 0x5474 DUP2 PUSH2 0x3B84 JUMP JUMPDEST DUP6 MSTORE PUSH1 0x20 DUP2 ADD CALLDATALOAD PUSH1 0x20 DUP7 ADD MSTORE PUSH1 0x40 DUP2 ADD CALLDATALOAD PUSH1 0x40 DUP7 ADD MSTORE PUSH2 0x5496 PUSH1 0x60 DUP3 ADD PUSH2 0x3B84 JUMP JUMPDEST PUSH1 0x60 DUP7 ADD MSTORE PUSH2 0x54A7 PUSH1 0x80 DUP3 ADD PUSH2 0x3B84 JUMP JUMPDEST PUSH1 0x80 DUP7 ADD MSTORE ADD PUSH2 0x3B84 JUMP JUMPDEST SWAP1 PUSH2 0x54BF SWAP5 SWAP4 SWAP3 SWAP2 PUSH2 0x4B9F JUMP JUMPDEST PUSH1 0x0 DUP2 SLT PUSH2 0x4C7C JUMPI SWAP1 JUMP JUMPDEST DUP1 PUSH2 0x54D3 PUSH2 0x481D JUMP JUMPDEST SWAP2 SWAP1 SWAP4 PUSH2 0x54E0 PUSH1 0x0 PUSH2 0x4774 JUMP JUMPDEST SWAP5 ADD SWAP4 DUP3 SWAP2 PUSH2 0x5578 JUMPI JUMPDEST ADD SWAP4 DUP5 PUSH1 0x0 DUP1 DUP3 SLT PUSH2 0x5572 JUMPI POP JUMPDEST DUP5 SUB SWAP2 DUP2 DUP6 GT PUSH2 0x553A JUMPI POP POP DUP2 DUP2 GT PUSH2 0x551C JUMPI POP POP PUSH2 0x155 SSTORE PUSH2 0x156 SSTORE NUMBER PUSH2 0x157 SSTORE JUMP JUMPDEST PUSH1 0x44 SWAP3 POP PUSH1 0x40 MLOAD SWAP2 PUSH4 0x6DA41E5 PUSH1 0xE1 SHL DUP4 MSTORE PUSH1 0x4 DUP4 ADD MSTORE PUSH1 0x24 DUP3 ADD MSTORE REVERT JUMPDEST SWAP1 DUP1 DUP6 SWAP3 GT PUSH2 0x5560 JUMPI PUSH1 0x44 SWAP2 PUSH1 0x40 MLOAD SWAP2 PUSH4 0x6DA41E5 PUSH1 0xE1 SHL DUP4 MSTORE PUSH1 0x4 DUP4 ADD MSTORE PUSH1 0x24 DUP3 ADD MSTORE REVERT JUMPDEST PUSH1 0x40 MLOAD PUSH4 0xFB4FD35 PUSH1 0xE1 SHL DUP2 MSTORE PUSH1 0x4 SWAP1 REVERT JUMPDEST SUB PUSH2 0x54F8 JUMP JUMPDEST SWAP1 POP DUP2 PUSH1 0x0 SUB SWAP1 PUSH2 0x54EA JUMP JUMPDEST DUP1 SWAP2 SUB PUSH1 0xE0 DUP2 SLT PUSH2 0x70D JUMPI DUP2 MLOAD SWAP3 PUSH1 0x20 DUP4 ADD MLOAD SWAP3 PUSH1 0x80 PUSH1 0x40 DUP3 ADD MLOAD SWAP4 PUSH1 0x5F NOT ADD SLT PUSH2 0x70D JUMPI PUSH1 0xC0 PUSH1 0x40 MLOAD SWAP2 PUSH2 0x55BA PUSH1 0x80 DUP5 PUSH2 0x3CA7 JUMP JUMPDEST PUSH1 0x60 DUP2 ADD MLOAD DUP4 MSTORE PUSH1 0x80 DUP2 ADD MLOAD PUSH1 0x20 DUP5 ADD MSTORE PUSH1 0xA0 DUP2 ADD MLOAD PUSH1 0x40 DUP5 ADD MSTORE ADD MLOAD PUSH1 0x60 DUP3 ADD MSTORE SWAP1 JUMP JUMPDEST SWAP2 SWAP1 DUP3 PUSH1 0xE0 SWAP2 SUB SLT PUSH2 0x70D JUMPI PUSH1 0x40 MLOAD PUSH2 0x55F9 PUSH1 0xE0 DUP3 PUSH2 0x3CA7 JUMP JUMPDEST PUSH1 0xC0 PUSH2 0x50A5 DUP2 DUP4 SWAP6 PUSH2 0x560A DUP2 PUSH2 0x3B84 JUMP JUMPDEST DUP6 MSTORE PUSH1 0x20 DUP2 ADD CALLDATALOAD PUSH1 0x20 DUP7 ADD MSTORE PUSH1 0x40 DUP2 ADD CALLDATALOAD PUSH1 0x40 DUP7 ADD MSTORE PUSH1 0x60 DUP2 ADD CALLDATALOAD PUSH1 0x60 DUP7 ADD MSTORE PUSH2 0x5636 PUSH1 0x80 DUP3 ADD PUSH2 0x3B84 JUMP JUMPDEST PUSH1 0x80 DUP7 ADD MSTORE PUSH2 0x5647 PUSH1 0xA0 DUP3 ADD PUSH2 0x3B84 JUMP JUMPDEST PUSH1 0xA0 DUP7 ADD MSTORE ADD PUSH2 0x3B84 JUMP JUMPDEST PUSH1 0x40 MLOAD PUSH4 0xA9059CBB PUSH1 0xE0 SHL PUSH1 0x20 DUP3 ADD MSTORE PUSH1 0x1 PUSH1 0x1 PUSH1 0xA0 SHL SUB SWAP1 SWAP3 AND PUSH1 0x24 DUP4 ADD MSTORE PUSH1 0x44 DUP3 ADD SWAP3 SWAP1 SWAP3 MSTORE PUSH2 0x3C17 SWAP2 PUSH2 0x421B DUP3 PUSH1 0x64 DUP2 ADD PUSH2 0x420D JUMP JUMPDEST PUSH1 0x97 SLOAD PUSH1 0x40 MLOAD PUSH4 0xD994D6D5 PUSH1 0xE0 SHL DUP2 MSTORE CALLER PUSH1 0x4 DUP3 ADD MSTORE SWAP1 PUSH1 0x20 SWAP1 DUP3 SWAP1 PUSH1 0x24 SWAP1 DUP3 SWAP1 PUSH1 0x1 PUSH1 0x1 PUSH1 0xA0 SHL SUB AND GAS STATICCALL SWAP1 DUP2 ISZERO PUSH2 0x43EE JUMPI PUSH1 0x0 SWAP2 PUSH2 0x56E0 JUMPI JUMPDEST POP ISZERO PUSH2 0x56CE JUMPI JUMP JUMPDEST PUSH1 0x40 MLOAD PUSH4 0x1DD1B1B5 PUSH1 0xE2 SHL DUP2 MSTORE PUSH1 0x4 SWAP1 REVERT JUMPDEST SWAP1 PUSH1 0x20 DUP3 RETURNDATASIZE DUP3 GT PUSH2 0x5711 JUMPI JUMPDEST DUP2 PUSH2 0x56F9 PUSH1 0x20 SWAP4 DUP4 PUSH2 0x3CA7 JUMP JUMPDEST DUP2 ADD SUB SLT PUSH2 0x7B7 JUMPI POP PUSH2 0x570B SWAP1 PUSH2 0x4220 JUMP JUMPDEST CODESIZE PUSH2 0x56C6 JUMP JUMPDEST RETURNDATASIZE SWAP2 POP PUSH2 0x56EC JUMP JUMPDEST PUSH1 0xFF PUSH1 0xCA SLOAD PUSH1 0x8 SHR AND PUSH2 0x5728 JUMPI JUMP JUMPDEST PUSH1 0x40 MLOAD PUSH4 0x783BB6C9 PUSH1 0xE1 SHL DUP2 MSTORE PUSH1 0x4 SWAP1 REVERT JUMPDEST PUSH2 0x131 SLOAD DUP1 ISZERO PUSH2 0x3F3E JUMPI PUSH2 0x137 SWAP1 DUP2 SLOAD SWAP2 PUSH1 0x0 SWAP1 PUSH2 0x5757 DUP5 PUSH2 0x46C1 JUMP JUMPDEST SWAP1 DUP3 SWAP1 JUMPDEST DUP6 DUP3 LT PUSH2 0x57C1 JUMPI POP POP PUSH1 0x0 JUMPDEST DUP5 DUP2 LT PUSH2 0x5775 JUMPI POP POP POP POP POP JUMP JUMPDEST PUSH2 0x578D DUP5 PUSH2 0x4CEA DUP6 PUSH2 0x5787 DUP6 DUP8 PUSH2 0x4407 JUMP JUMPDEST MLOAD PUSH2 0x452C JUMP JUMPDEST SWAP1 PUSH2 0x138 SWAP2 DUP3 SLOAD PUSH9 0x10000000000000000 DUP2 LT ISZERO PUSH2 0x3CC9 JUMPI PUSH2 0x2697 DUP2 PUSH1 0x1 SWAP6 DUP7 PUSH2 0x57B9 SWAP5 ADD DUP2 SSTORE PUSH2 0x3B56 JUMP JUMPDEST SWAP1 SSTORE ADD PUSH2 0x5767 JUMP JUMPDEST SWAP1 SWAP3 PUSH2 0x57FD PUSH1 0x1 SWAP2 PUSH2 0x57D2 DUP7 PUSH2 0x472D JUMP JUMPDEST PUSH2 0x57DC DUP8 DUP8 PUSH2 0x4407 JUMP JUMPDEST MSTORE PUSH2 0x4493 PUSH2 0x57EA DUP8 DUP7 PUSH2 0x3C8B JUMP JUMPDEST POP SLOAD PUSH2 0x57F6 DUP9 DUP9 PUSH2 0x4407 JUMP JUMPDEST MLOAD SWAP1 PUSH2 0x5805 JUMP JUMPDEST SWAP4 ADD SWAP1 PUSH2 0x575B JUMP JUMPDEST SWAP1 PUSH8 0xDE0B6B3A7640000 SWAP2 DUP3 DUP2 MUL SWAP3 DUP2 DUP5 DIV EQ SWAP1 ISZERO OR ISZERO PUSH2 0x432C JUMPI PUSH2 0x3BD8 SWAP2 PUSH2 0x453F JUMP JUMPDEST PUSH8 0xDE0B6B3A7640000 GT ISZERO PUSH2 0x583A JUMPI JUMP JUMPDEST PUSH1 0x40 MLOAD PUSH4 0x2A9FFAB7 PUSH1 0xE2 SHL DUP2 MSTORE PUSH1 0x4 SWAP1 REVERT INVALID LOG2 PUSH5 0x6970667358 0x22 SLT KECCAK256 PUSH6 0xDFF425EC8E55 0xA5 NUMBER ADD DUP2 DUP8 DUP6 ADDMOD POP PUSH15 0x1E432E6CF74DA06E41898B91A0E20C SWAP1 PUSH5 0x736F6C6343 STOP ADDMOD EQ STOP CALLER "
    },
    "gasEstimates": {
      "creation": {
        "codeDepositCost": "4531600",
        "executionCost": "infinite",
        "totalCost": "infinite"
      },
      "external": {
        "absoluteAccumulator()": "4780",
        "acToken()": "2733",
        "addPeggedToken((address,address,uint256,uint256,uint256,uint256,uint256))": "infinite",
        "appreciationFactor()": "5220",
        "bes()": "3196",
        "bns()": "2558",
        "calcCtargemaCA()": "infinite",
        "changeGovernor(address)": "infinite",
        "decayBlockSpan()": "3724",
        "differentialAccumulator()": "3834",
        "editPeggedToken((address,address,uint256,uint256,uint256,uint256,uint256))": "infinite",
        "emaCalculationBlockSpan()": "3966",
        "evalLiquidation()": "infinite",
        "execMintTC((uint256,uint256,address,address,address))": "infinite",
        "execMintTCandTP((address,uint256,uint256,address,address,address))": "infinite",
        "execMintTP((address,uint256,uint256,address,address,address))": "infinite",
        "execRedeemTC((uint256,uint256,address,address,address))": "infinite",
        "execRedeemTCandTP((address,uint256,uint256,uint256,address,address,address))": "infinite",
        "execRedeemTP((address,uint256,uint256,address,address,address))": "infinite",
        "execSettlement()": "infinite",
        "execSwapTCforTP((address,uint256,uint256,uint256,address,address,address))": "infinite",
        "execSwapTPforTC((address,uint256,uint256,uint256,address,address,address))": "infinite",
        "execSwapTPforTP((address,address,uint256,uint256,uint256,address,address,address))": "infinite",
        "feeRetainer()": "3240",
        "feeToken()": "3635",
        "feeTokenPct()": "2822",
        "feeTokenPriceProvider()": "5109",
        "getBts()": "5161",
        "getCglb()": "infinite",
        "getCustomMockValue()": "5567",
        "getExpansionCustomMockValue()": "infinite",
        "getLckAC()": "infinite",
        "getLeverageTC()": "infinite",
        "getPACtp(address)": "infinite",
        "getPTCac()": "infinite",
        "getTCAvailableToRedeem()": "infinite",
        "getTPAvailableToMint(address)": "infinite",
        "getTotalACavailable()": "infinite",
        "getTpAmount()": "5303",
        "governor()": "2403",
        "initialize((((address,address,address,address,address,address,uint256,uint256,uint256,uint256,uint256,uint256,uint256,uint256,uint256,uint256,uint256,uint256,uint256,uint256,address,uint256,uint256,address,address,uint256),address,address,address,uint256,address),address))": "infinite",
        "initializeMock()": "23504",
        "isLiquidationReached()": "infinite",
        "lastOperationBlockNumber()": "3416",
        "liqEnabled()": "5034",
        "liqRedeemTP(address,address)": "infinite",
        "liqThrld()": "4208",
        "liquidated()": "2686",
        "makeStoppable()": "infinite",
        "makeUnstoppable()": "infinite",
        "maxAbsoluteOpProvider()": "5087",
        "maxOpDiffProvider()": "4515",
        "maxQACToMintTP()": "infinite",
        "maxQACToRedeemTP()": "infinite",
        "mintTC(uint256,uint256,address,address)": "infinite",
        "mintTCandTP(address,uint256,uint256,address,address)": "infinite",
        "mintTCandTPFee()": "3900",
        "mintTP(address,uint256,uint256,address,address)": "infinite",
        "mocAppreciationBeneficiaryAddress()": "3239",
        "mocFeeFlowAddress()": "4317",
        "mocQueue()": "2535",
        "mocVendors()": "4075",
        "nACcb()": "5154",
        "nTCcb()": "3922",
        "newVariable()": "4230",
        "nextEmaCalculation()": "2404",
        "nextTCInterestPayment()": "4516",
        "pause()": "29496",
        "paused()": "3500",
        "pauser()": "4392",
        "pegContainer(uint256)": "9673",
        "peggedTokenIndex(address)": "6590",
        "protThrld()": "3702",
        "proxiableUUID()": "infinite",
        "qACLockedInPending()": "3504",
        "redeemTC(uint256,uint256,address,address)": "infinite",
        "redeemTCandTP(address,uint256,uint256,uint256,address,address)": "infinite",
        "redeemTCandTPFee()": "5176",
        "redeemTP(address,uint256,uint256,address,address)": "infinite",
        "refreshACBalance()": "infinite",
        "setAppreciationFactor(uint256)": "infinite",
        "setBes(uint256)": "infinite",
        "setDecayBlockSpan(uint256)": "infinite",
        "setEmaCalculationBlockSpan(uint256)": "infinite",
        "setFeeRetainer(uint256)": "infinite",
        "setFeeTokenAddress(address)": "infinite",
        "setFeeTokenPct(uint256)": "infinite",
        "setFeeTokenPriceProviderAddress(address)": "infinite",
        "setLiqEnabled(bool)": "infinite",
        "setLiqThrld(uint256)": "infinite",
        "setMaxAbsoluteOpProviderAddress(address)": "infinite",
        "setMaxOpDiffProviderAddress(address)": "infinite",
        "setMintTCandTPFee(uint256)": "infinite",
        "setMocAppreciationBeneficiaryAddress(address)": "infinite",
        "setMocCoreExpansion(address)": "infinite",
        "setMocFeeFlowAddress(address)": "infinite",
        "setMocQueue(address)": "infinite",
        "setMocVendors(address)": "infinite",
        "setPauser(address)": "infinite",
        "setProtThrld(uint256)": "infinite",
        "setRedeemTCandTPFee(uint256)": "infinite",
        "setSuccessFee(uint256)": "infinite",
        "setSwapTCforTPFee(uint256)": "infinite",
        "setSwapTPforTCFee(uint256)": "infinite",
        "setSwapTPforTPFee(uint256)": "infinite",
        "setTCInterestCollectorAddress(address)": "infinite",
        "setTCInterestPaymentBlockSpan(uint256)": "infinite",
        "setTCInterestRate(uint256)": "infinite",
        "setTcMintFee(uint256)": "infinite",
        "setTcRedeemFee(uint256)": "infinite",
        "shouldCalculateEma()": "4392",
        "stoppable()": "4550",
        "successFee()": "3812",
        "swapTCforTP(address,uint256,uint256,uint256,address,address)": "infinite",
        "swapTCforTPFee()": "2756",
        "swapTPforTC(address,uint256,uint256,uint256,address,address)": "infinite",
        "swapTPforTCFee()": "2888",
        "swapTPforTP(address,address,uint256,uint256,uint256,address,address)": "infinite",
        "swapTPforTPFee()": "3108",
        "tcHoldersInterestPayment()": "infinite",
        "tcInterestCollectorAddress()": "4273",
        "tcInterestPaymentBlockSpan()": "4098",
        "tcInterestRate()": "2448",
        "tcMintFee()": "5264",
        "tcRedeemFee()": "4428",
        "tcToken()": "3569",
        "tpCtarg(uint256)": "8398",
        "tpEma(uint256)": "11478",
        "tpLiqPrices(uint256)": "7342",
        "tpMintFees(address)": "2802",
        "tpRedeemFees(address)": "4980",
        "tpTokens(uint256)": "6678",
        "unlockACInPending(address,uint256)": "infinite",
        "unlockTCInPending(address,uint256)": "infinite",
        "unlockTPInPending(address,address,uint256)": "infinite",
        "unpause()": "infinite",
        "updateEmas()": "infinite",
        "upgradeTo(address)": "infinite",
        "upgradeToAndCall(address,bytes)": "infinite"
      }
    },
    "methodIdentifiers": {
      "absoluteAccumulator()": "d87aab6f",
      "acToken()": "25bc6c41",
      "addPeggedToken((address,address,uint256,uint256,uint256,uint256,uint256))": "db796072",
      "appreciationFactor()": "fa6e83bd",
      "bes()": "4d977e78",
      "bns()": "1867e2f5",
      "calcCtargemaCA()": "662013f4",
      "changeGovernor(address)": "e4c0aaf4",
      "decayBlockSpan()": "6f30471f",
      "differentialAccumulator()": "76228055",
      "editPeggedToken((address,address,uint256,uint256,uint256,uint256,uint256))": "f26114aa",
      "emaCalculationBlockSpan()": "7a727fe8",
      "evalLiquidation()": "33421c38",
      "execMintTC((uint256,uint256,address,address,address))": "235e81cf",
      "execMintTCandTP((address,uint256,uint256,address,address,address))": "883d21cb",
      "execMintTP((address,uint256,uint256,address,address,address))": "b4434c32",
      "execRedeemTC((uint256,uint256,address,address,address))": "bfe42621",
      "execRedeemTCandTP((address,uint256,uint256,uint256,address,address,address))": "d8c69aec",
      "execRedeemTP((address,uint256,uint256,address,address,address))": "ad4e666d",
      "execSettlement()": "5c616a73",
      "execSwapTCforTP((address,uint256,uint256,uint256,address,address,address))": "4af3a6fc",
      "execSwapTPforTC((address,uint256,uint256,uint256,address,address,address))": "bc4e55b2",
      "execSwapTPforTP((address,address,uint256,uint256,uint256,address,address,address))": "391bf6cf",
      "feeRetainer()": "4f0f27ee",
      "feeToken()": "647846a5",
      "feeTokenPct()": "2ded50f0",
      "feeTokenPriceProvider()": "f13f4054",
      "getBts()": "e8859a15",
      "getCglb()": "826fcd58",
      "getCustomMockValue()": "57271f4d",
      "getExpansionCustomMockValue()": "07164879",
      "getLckAC()": "8f1a383a",
      "getLeverageTC()": "c039cc69",
      "getPACtp(address)": "fadda424",
      "getPTCac()": "1fb0dda0",
      "getTCAvailableToRedeem()": "4017936a",
      "getTPAvailableToMint(address)": "f88b1434",
      "getTotalACavailable()": "de8d520a",
      "getTpAmount()": "fe6b92c1",
      "governor()": "0c340a24",
      "initialize((((address,address,address,address,address,address,uint256,uint256,uint256,uint256,uint256,uint256,uint256,uint256,uint256,uint256,uint256,uint256,uint256,uint256,address,uint256,uint256,address,address,uint256),address,address,address,uint256,address),address))": "60a01dfa",
      "initializeMock()": "5e2a6065",
      "isLiquidationReached()": "9ad6659d",
      "lastOperationBlockNumber()": "5860ee63",
      "liqEnabled()": "e7c25978",
      "liqRedeemTP(address,address)": "47dda6af",
      "liqThrld()": "8cfa4241",
      "liquidated()": "23b98cde",
      "makeStoppable()": "68274357",
      "makeUnstoppable()": "5210570c",
      "maxAbsoluteOpProvider()": "ee1f438f",
      "maxOpDiffProvider()": "b5e9ea8c",
      "maxQACToMintTP()": "d6af11da",
      "maxQACToRedeemTP()": "7f13b998",
      "mintTC(uint256,uint256,address,address)": "60ef07bf",
      "mintTCandTP(address,uint256,uint256,address,address)": "fdcdc11e",
      "mintTCandTPFee()": "79f9a91c",
      "mintTP(address,uint256,uint256,address,address)": "d2dc25a5",
      "mocAppreciationBeneficiaryAddress()": "4e1f907a",
      "mocFeeFlowAddress()": "9853c35a",
      "mocQueue()": "13ed7ba5",
      "mocVendors()": "7f01c715",
      "nACcb()": "f30b5614",
      "nTCcb()": "7a193c31",
      "newVariable()": "8d7a72f3",
      "nextEmaCalculation()": "0c36d897",
      "nextTCInterestPayment()": "b9fa6413",
      "pause()": "8456cb59",
      "paused()": "5c975abb",
      "pauser()": "9fd0506d",
      "pegContainer(uint256)": "4b746001",
      "peggedTokenIndex(address)": "9cabfc00",
      "protThrld()": "6b5488df",
      "proxiableUUID()": "52d1902d",
      "qACLockedInPending()": "5cfbe578",
      "redeemTC(uint256,uint256,address,address)": "b03e11a0",
      "redeemTCandTP(address,uint256,uint256,uint256,address,address)": "34d70ffa",
      "redeemTCandTPFee()": "f375cfba",
      "redeemTP(address,uint256,uint256,address,address)": "2eccb11c",
      "refreshACBalance()": "e23c135c",
      "setAppreciationFactor(uint256)": "01dde6ef",
      "setBes(uint256)": "c84353c9",
      "setDecayBlockSpan(uint256)": "73e28af9",
      "setEmaCalculationBlockSpan(uint256)": "3bc4ac0a",
      "setFeeRetainer(uint256)": "7750ba0c",
      "setFeeTokenAddress(address)": "cf351c1d",
      "setFeeTokenPct(uint256)": "543aeb48",
      "setFeeTokenPriceProviderAddress(address)": "0f1e5e2b",
      "setLiqEnabled(bool)": "1fe6a7ad",
      "setLiqThrld(uint256)": "2c43bd3b",
      "setMaxAbsoluteOpProviderAddress(address)": "d8db6f5a",
      "setMaxOpDiffProviderAddress(address)": "85bf9593",
      "setMintTCandTPFee(uint256)": "2069f753",
      "setMocAppreciationBeneficiaryAddress(address)": "27eab2a1",
      "setMocCoreExpansion(address)": "e6a683e0",
      "setMocFeeFlowAddress(address)": "0d6ac463",
      "setMocQueue(address)": "3cfb09ef",
      "setMocVendors(address)": "533a4bea",
      "setPauser(address)": "2d88af4a",
      "setProtThrld(uint256)": "7cba2383",
      "setRedeemTCandTPFee(uint256)": "7a4ff1d9",
      "setSuccessFee(uint256)": "becaca6b",
      "setSwapTCforTPFee(uint256)": "7af5758c",
      "setSwapTPforTCFee(uint256)": "0e0a8fd2",
      "setSwapTPforTPFee(uint256)": "70713468",
      "setTCInterestCollectorAddress(address)": "735d3960",
      "setTCInterestPaymentBlockSpan(uint256)": "073763b9",
      "setTCInterestRate(uint256)": "64ec230a",
      "setTcMintFee(uint256)": "f2808778",
      "setTcRedeemFee(uint256)": "c00f538d",
      "shouldCalculateEma()": "a8e9ac30",
      "stoppable()": "bb4872de",
      "successFee()": "7554fffd",
      "swapTCforTP(address,uint256,uint256,uint256,address,address)": "797709ca",
      "swapTCforTPFee()": "2a20d57d",
      "swapTPforTC(address,uint256,uint256,uint256,address,address)": "14b4906d",
      "swapTPforTCFee()": "333431fd",
      "swapTPforTP(address,address,uint256,uint256,uint256,address,address)": "2ed35ca1",
      "swapTPforTPFee()": "407f0e34",
      "tcHoldersInterestPayment()": "0579188f",
      "tcInterestCollectorAddress()": "8e2bdb86",
      "tcInterestPaymentBlockSpan()": "7f4a4fe0",
      "tcInterestRate()": "0db49656",
      "tcMintFee()": "fda70f8b",
      "tcRedeemFee()": "aea038dc",
      "tcToken()": "60009e0b",
      "tpCtarg(uint256)": "7d8e0314",
      "tpEma(uint256)": "e6b1627c",
      "tpLiqPrices(uint256)": "3915edcb",
      "tpMintFees(address)": "24ffaba3",
      "tpRedeemFees(address)": "ddb6d190",
      "tpTokens(uint256)": "01f1b684",
      "unlockACInPending(address,uint256)": "58f32de9",
      "unlockTCInPending(address,uint256)": "53b16d17",
      "unlockTPInPending(address,address,uint256)": "e2c5e990",
      "unpause()": "3f4ba83a",
      "updateEmas()": "d1a0faa0",
      "upgradeTo(address)": "3659cfe6",
      "upgradeToAndCall(address,bytes)": "4f1ef286"
    }
  },
  "storageLayout": {
    "storage": [
      {
        "astId": 950,
        "contract": "contracts/mocks/upgradeability/MocExpansionMocks.sol:MocCARC20WithExpansionMock",
        "label": "_initialized",
        "offset": 0,
        "slot": "0",
        "type": "t_uint8"
      },
      {
        "astId": 953,
        "contract": "contracts/mocks/upgradeability/MocExpansionMocks.sol:MocCARC20WithExpansionMock",
        "label": "_initializing",
        "offset": 1,
        "slot": "0",
        "type": "t_bool"
      },
      {
        "astId": 932,
        "contract": "contracts/mocks/upgradeability/MocExpansionMocks.sol:MocCARC20WithExpansionMock",
        "label": "__gap",
        "offset": 0,
        "slot": "1",
        "type": "t_array(t_uint256)50_storage"
      },
      {
        "astId": 1247,
        "contract": "contracts/mocks/upgradeability/MocExpansionMocks.sol:MocCARC20WithExpansionMock",
        "label": "__gap",
        "offset": 0,
        "slot": "51",
        "type": "t_array(t_uint256)50_storage"
      },
      {
        "astId": 25922,
        "contract": "contracts/mocks/upgradeability/MocExpansionMocks.sol:MocCARC20WithExpansionMock",
        "label": "__gap",
        "offset": 0,
        "slot": "101",
        "type": "t_array(t_uint256)50_storage"
      },
      {
        "astId": 19559,
        "contract": "contracts/mocks/upgradeability/MocExpansionMocks.sol:MocCARC20WithExpansionMock",
        "label": "governor",
        "offset": 0,
        "slot": "151",
        "type": "t_contract(IGovernor)20396"
      },
      {
        "astId": 19630,
        "contract": "contracts/mocks/upgradeability/MocExpansionMocks.sol:MocCARC20WithExpansionMock",
        "label": "__gap",
        "offset": 0,
        "slot": "152",
        "type": "t_array(t_uint256)50_storage"
      },
      {
        "astId": 19699,
        "contract": "contracts/mocks/upgradeability/MocExpansionMocks.sol:MocCARC20WithExpansionMock",
        "label": "stoppable",
        "offset": 0,
        "slot": "202",
        "type": "t_bool"
      },
      {
        "astId": 19701,
        "contract": "contracts/mocks/upgradeability/MocExpansionMocks.sol:MocCARC20WithExpansionMock",
        "label": "_paused",
        "offset": 1,
        "slot": "202",
        "type": "t_bool"
      },
      {
        "astId": 19703,
        "contract": "contracts/mocks/upgradeability/MocExpansionMocks.sol:MocCARC20WithExpansionMock",
        "label": "pauser",
        "offset": 2,
        "slot": "202",
        "type": "t_address"
      },
      {
        "astId": 19875,
        "contract": "contracts/mocks/upgradeability/MocExpansionMocks.sol:MocCARC20WithExpansionMock",
        "label": "__gap",
        "offset": 0,
        "slot": "203",
        "type": "t_array(t_uint256)50_storage"
      },
      {
        "astId": 19681,
        "contract": "contracts/mocks/upgradeability/MocExpansionMocks.sol:MocCARC20WithExpansionMock",
        "label": "__gap",
        "offset": 0,
        "slot": "253",
        "type": "t_array(t_uint256)50_storage"
      },
      {
        "astId": 9261,
        "contract": "contracts/mocks/upgradeability/MocExpansionMocks.sol:MocCARC20WithExpansionMock",
        "label": "feeToken",
        "offset": 0,
        "slot": "303",
        "type": "t_contract(IERC20)6209"
      },
      {
        "astId": 9264,
        "contract": "contracts/mocks/upgradeability/MocExpansionMocks.sol:MocCARC20WithExpansionMock",
        "label": "feeTokenPriceProvider",
        "offset": 0,
        "slot": "304",
        "type": "t_contract(IPriceProvider)20434"
      },
      {
        "astId": 9266,
        "contract": "contracts/mocks/upgradeability/MocExpansionMocks.sol:MocCARC20WithExpansionMock",
        "label": "nACcb",
        "offset": 0,
        "slot": "305",
        "type": "t_uint256"
      },
      {
        "astId": 9268,
        "contract": "contracts/mocks/upgradeability/MocExpansionMocks.sol:MocCARC20WithExpansionMock",
        "label": "nACioucb",
        "offset": 0,
        "slot": "306",
        "type": "t_uint256"
      },
      {
        "astId": 9271,
        "contract": "contracts/mocks/upgradeability/MocExpansionMocks.sol:MocCARC20WithExpansionMock",
        "label": "tcToken",
        "offset": 0,
        "slot": "307",
        "type": "t_contract(MocTC)25747"
      },
      {
        "astId": 9273,
        "contract": "contracts/mocks/upgradeability/MocExpansionMocks.sol:MocCARC20WithExpansionMock",
        "label": "nTCcb",
        "offset": 0,
        "slot": "308",
        "type": "t_uint256"
      },
      {
        "astId": 9277,
        "contract": "contracts/mocks/upgradeability/MocExpansionMocks.sol:MocCARC20WithExpansionMock",
        "label": "tpTokens",
        "offset": 0,
        "slot": "309",
        "type": "t_array(t_contract(IMocRC20)20422)dyn_storage"
      },
      {
        "astId": 9282,
        "contract": "contracts/mocks/upgradeability/MocExpansionMocks.sol:MocCARC20WithExpansionMock",
        "label": "peggedTokenIndex",
        "offset": 0,
        "slot": "310",
        "type": "t_mapping(t_address,t_struct(PeggedTokenIndex)9205_storage)"
      },
      {
        "astId": 9286,
        "contract": "contracts/mocks/upgradeability/MocExpansionMocks.sol:MocCARC20WithExpansionMock",
        "label": "pegContainer",
        "offset": 0,
        "slot": "311",
        "type": "t_array(t_struct(PegContainerItem)9200_storage)dyn_storage"
      },
      {
        "astId": 9289,
        "contract": "contracts/mocks/upgradeability/MocExpansionMocks.sol:MocCARC20WithExpansionMock",
        "label": "tpLiqPrices",
        "offset": 0,
        "slot": "312",
        "type": "t_array(t_uint256)dyn_storage"
      },
      {
        "astId": 9291,
        "contract": "contracts/mocks/upgradeability/MocExpansionMocks.sol:MocCARC20WithExpansionMock",
        "label": "successFee",
        "offset": 0,
        "slot": "313",
        "type": "t_uint256"
      },
      {
        "astId": 9293,
        "contract": "contracts/mocks/upgradeability/MocExpansionMocks.sol:MocCARC20WithExpansionMock",
        "label": "appreciationFactor",
        "offset": 0,
        "slot": "314",
        "type": "t_uint256"
      },
      {
        "astId": 9295,
        "contract": "contracts/mocks/upgradeability/MocExpansionMocks.sol:MocCARC20WithExpansionMock",
        "label": "feeRetainer",
        "offset": 0,
        "slot": "315",
        "type": "t_uint256"
      },
      {
        "astId": 9297,
        "contract": "contracts/mocks/upgradeability/MocExpansionMocks.sol:MocCARC20WithExpansionMock",
        "label": "tcMintFee",
        "offset": 0,
        "slot": "316",
        "type": "t_uint256"
      },
      {
        "astId": 9299,
        "contract": "contracts/mocks/upgradeability/MocExpansionMocks.sol:MocCARC20WithExpansionMock",
        "label": "tcRedeemFee",
        "offset": 0,
        "slot": "317",
        "type": "t_uint256"
      },
      {
        "astId": 9301,
        "contract": "contracts/mocks/upgradeability/MocExpansionMocks.sol:MocCARC20WithExpansionMock",
        "label": "swapTPforTPFee",
        "offset": 0,
        "slot": "318",
        "type": "t_uint256"
      },
      {
        "astId": 9303,
        "contract": "contracts/mocks/upgradeability/MocExpansionMocks.sol:MocCARC20WithExpansionMock",
        "label": "swapTPforTCFee",
        "offset": 0,
        "slot": "319",
        "type": "t_uint256"
      },
      {
        "astId": 9305,
        "contract": "contracts/mocks/upgradeability/MocExpansionMocks.sol:MocCARC20WithExpansionMock",
        "label": "swapTCforTPFee",
        "offset": 0,
        "slot": "320",
        "type": "t_uint256"
      },
      {
        "astId": 9307,
        "contract": "contracts/mocks/upgradeability/MocExpansionMocks.sol:MocCARC20WithExpansionMock",
        "label": "redeemTCandTPFee",
        "offset": 0,
        "slot": "321",
        "type": "t_uint256"
      },
      {
        "astId": 9309,
        "contract": "contracts/mocks/upgradeability/MocExpansionMocks.sol:MocCARC20WithExpansionMock",
        "label": "mintTCandTPFee",
        "offset": 0,
        "slot": "322",
        "type": "t_uint256"
      },
      {
        "astId": 9311,
        "contract": "contracts/mocks/upgradeability/MocExpansionMocks.sol:MocCARC20WithExpansionMock",
        "label": "feeTokenPct",
        "offset": 0,
        "slot": "323",
        "type": "t_uint256"
      },
      {
        "astId": 9315,
        "contract": "contracts/mocks/upgradeability/MocExpansionMocks.sol:MocCARC20WithExpansionMock",
        "label": "tpMintFees",
        "offset": 0,
        "slot": "324",
        "type": "t_mapping(t_address,t_uint256)"
      },
      {
        "astId": 9319,
        "contract": "contracts/mocks/upgradeability/MocExpansionMocks.sol:MocCARC20WithExpansionMock",
        "label": "tpRedeemFees",
        "offset": 0,
        "slot": "325",
        "type": "t_mapping(t_address,t_uint256)"
      },
      {
        "astId": 9321,
        "contract": "contracts/mocks/upgradeability/MocExpansionMocks.sol:MocCARC20WithExpansionMock",
        "label": "mocFeeFlowAddress",
        "offset": 0,
        "slot": "326",
        "type": "t_address"
      },
      {
        "astId": 9323,
        "contract": "contracts/mocks/upgradeability/MocExpansionMocks.sol:MocCARC20WithExpansionMock",
        "label": "mocAppreciationBeneficiaryAddress",
        "offset": 0,
        "slot": "327",
        "type": "t_address"
      },
      {
        "astId": 9326,
        "contract": "contracts/mocks/upgradeability/MocExpansionMocks.sol:MocCARC20WithExpansionMock",
        "label": "tpCtarg",
        "offset": 0,
        "slot": "328",
        "type": "t_array(t_uint256)dyn_storage"
      },
      {
        "astId": 9328,
        "contract": "contracts/mocks/upgradeability/MocExpansionMocks.sol:MocCARC20WithExpansionMock",
        "label": "protThrld",
        "offset": 0,
        "slot": "329",
        "type": "t_uint256"
      },
      {
        "astId": 9330,
        "contract": "contracts/mocks/upgradeability/MocExpansionMocks.sol:MocCARC20WithExpansionMock",
        "label": "liqThrld",
        "offset": 0,
        "slot": "330",
        "type": "t_uint256"
      },
      {
        "astId": 9332,
        "contract": "contracts/mocks/upgradeability/MocExpansionMocks.sol:MocCARC20WithExpansionMock",
        "label": "liqEnabled",
        "offset": 0,
        "slot": "331",
        "type": "t_bool"
      },
      {
        "astId": 9334,
        "contract": "contracts/mocks/upgradeability/MocExpansionMocks.sol:MocCARC20WithExpansionMock",
        "label": "liquidated",
        "offset": 1,
        "slot": "331",
        "type": "t_bool"
      },
      {
        "astId": 9336,
        "contract": "contracts/mocks/upgradeability/MocExpansionMocks.sol:MocCARC20WithExpansionMock",
        "label": "bes",
        "offset": 0,
        "slot": "332",
        "type": "t_uint256"
      },
      {
        "astId": 9338,
        "contract": "contracts/mocks/upgradeability/MocExpansionMocks.sol:MocCARC20WithExpansionMock",
        "label": "bns",
        "offset": 0,
        "slot": "333",
        "type": "t_uint256"
      },
      {
        "astId": 9340,
        "contract": "contracts/mocks/upgradeability/MocExpansionMocks.sol:MocCARC20WithExpansionMock",
        "label": "qACLockedInPending",
        "offset": 0,
        "slot": "334",
        "type": "t_uint256"
      },
      {
        "astId": 9342,
        "contract": "contracts/mocks/upgradeability/MocExpansionMocks.sol:MocCARC20WithExpansionMock",
        "label": "mocQueue",
        "offset": 0,
        "slot": "335",
        "type": "t_address_payable"
      },
      {
        "astId": 9345,
        "contract": "contracts/mocks/upgradeability/MocExpansionMocks.sol:MocCARC20WithExpansionMock",
        "label": "tpiou",
        "offset": 0,
        "slot": "336",
        "type": "t_array(t_int256)dyn_storage"
      },
      {
        "astId": 9348,
        "contract": "contracts/mocks/upgradeability/MocExpansionMocks.sol:MocCARC20WithExpansionMock",
        "label": "pACtpLstop",
        "offset": 0,
        "slot": "337",
        "type": "t_array(t_uint256)dyn_storage"
      },
      {
        "astId": 9351,
        "contract": "contracts/mocks/upgradeability/MocExpansionMocks.sol:MocCARC20WithExpansionMock",
        "label": "maxAbsoluteOpProvider",
        "offset": 0,
        "slot": "338",
        "type": "t_contract(IDataProvider)20375"
      },
      {
        "astId": 9354,
        "contract": "contracts/mocks/upgradeability/MocExpansionMocks.sol:MocCARC20WithExpansionMock",
        "label": "maxOpDiffProvider",
        "offset": 0,
        "slot": "339",
        "type": "t_contract(IDataProvider)20375"
      },
      {
        "astId": 9356,
        "contract": "contracts/mocks/upgradeability/MocExpansionMocks.sol:MocCARC20WithExpansionMock",
        "label": "decayBlockSpan",
        "offset": 0,
        "slot": "340",
        "type": "t_uint256"
      },
      {
        "astId": 9358,
        "contract": "contracts/mocks/upgradeability/MocExpansionMocks.sol:MocCARC20WithExpansionMock",
        "label": "absoluteAccumulator",
        "offset": 0,
        "slot": "341",
        "type": "t_uint256"
      },
      {
        "astId": 9360,
        "contract": "contracts/mocks/upgradeability/MocExpansionMocks.sol:MocCARC20WithExpansionMock",
        "label": "differentialAccumulator",
        "offset": 0,
        "slot": "342",
        "type": "t_int256"
      },
      {
        "astId": 9362,
        "contract": "contracts/mocks/upgradeability/MocExpansionMocks.sol:MocCARC20WithExpansionMock",
        "label": "lastOperationBlockNumber",
        "offset": 0,
        "slot": "343",
        "type": "t_uint256"
      },
      {
        "astId": 9364,
        "contract": "contracts/mocks/upgradeability/MocExpansionMocks.sol:MocCARC20WithExpansionMock",
        "label": "tcInterestCollectorAddress",
        "offset": 0,
        "slot": "344",
        "type": "t_address"
      },
      {
        "astId": 9366,
        "contract": "contracts/mocks/upgradeability/MocExpansionMocks.sol:MocCARC20WithExpansionMock",
        "label": "tcInterestRate",
        "offset": 0,
        "slot": "345",
        "type": "t_uint256"
      },
      {
        "astId": 9368,
        "contract": "contracts/mocks/upgradeability/MocExpansionMocks.sol:MocCARC20WithExpansionMock",
        "label": "tcInterestPaymentBlockSpan",
        "offset": 0,
        "slot": "346",
        "type": "t_uint256"
      },
      {
        "astId": 9370,
        "contract": "contracts/mocks/upgradeability/MocExpansionMocks.sol:MocCARC20WithExpansionMock",
        "label": "nextTCInterestPayment",
        "offset": 0,
        "slot": "347",
        "type": "t_uint256"
      },
      {
        "astId": 10983,
        "contract": "contracts/mocks/upgradeability/MocExpansionMocks.sol:MocCARC20WithExpansionMock",
        "label": "__gap",
        "offset": 0,
        "slot": "348",
        "type": "t_array(t_uint256)50_storage"
      },
      {
        "astId": 14765,
        "contract": "contracts/mocks/upgradeability/MocExpansionMocks.sol:MocCARC20WithExpansionMock",
        "label": "tpEma",
        "offset": 0,
        "slot": "398",
        "type": "t_array(t_struct(EmaItem)14761_storage)dyn_storage"
      },
      {
        "astId": 14767,
        "contract": "contracts/mocks/upgradeability/MocExpansionMocks.sol:MocCARC20WithExpansionMock",
        "label": "nextEmaCalculation",
        "offset": 0,
        "slot": "399",
        "type": "t_uint256"
      },
      {
        "astId": 14769,
        "contract": "contracts/mocks/upgradeability/MocExpansionMocks.sol:MocCARC20WithExpansionMock",
        "label": "emaCalculationBlockSpan",
        "offset": 0,
        "slot": "400",
        "type": "t_uint256"
      },
      {
        "astId": 15141,
        "contract": "contracts/mocks/upgradeability/MocExpansionMocks.sol:MocCARC20WithExpansionMock",
        "label": "__gap",
        "offset": 0,
        "slot": "401",
        "type": "t_array(t_uint256)50_storage"
      },
      {
        "astId": 11017,
        "contract": "contracts/mocks/upgradeability/MocExpansionMocks.sol:MocCARC20WithExpansionMock",
        "label": "mocVendors",
        "offset": 0,
        "slot": "451",
        "type": "t_contract(MocVendors)26052"
      },
      {
        "astId": 11890,
        "contract": "contracts/mocks/upgradeability/MocExpansionMocks.sol:MocCARC20WithExpansionMock",
        "label": "__gap",
        "offset": 0,
        "slot": "452",
        "type": "t_array(t_uint256)50_storage"
      },
      {
        "astId": 21978,
        "contract": "contracts/mocks/upgradeability/MocExpansionMocks.sol:MocCARC20WithExpansionMock",
        "label": "newVariable",
        "offset": 0,
        "slot": "502",
        "type": "t_uint256"
      },
      {
        "astId": 11939,
        "contract": "contracts/mocks/upgradeability/MocExpansionMocks.sol:MocCARC20WithExpansionMock",
        "label": "mocCoreExpansion",
        "offset": 0,
        "slot": "503",
        "type": "t_address"
      },
      {
        "astId": 13528,
        "contract": "contracts/mocks/upgradeability/MocExpansionMocks.sol:MocCARC20WithExpansionMock",
        "label": "__gap",
        "offset": 0,
        "slot": "504",
        "type": "t_array(t_uint256)50_storage"
      },
      {
        "astId": 8822,
        "contract": "contracts/mocks/upgradeability/MocExpansionMocks.sol:MocCARC20WithExpansionMock",
        "label": "acToken",
        "offset": 0,
        "slot": "554",
        "type": "t_contract(IERC20)6209"
      },
      {
        "astId": 9163,
        "contract": "contracts/mocks/upgradeability/MocExpansionMocks.sol:MocCARC20WithExpansionMock",
        "label": "__gap",
        "offset": 0,
        "slot": "555",
        "type": "t_array(t_uint256)50_storage"
      }
    ],
    "types": {
      "t_address": {
        "encoding": "inplace",
        "label": "address",
        "numberOfBytes": "20"
      },
      "t_address_payable": {
        "encoding": "inplace",
        "label": "address payable",
        "numberOfBytes": "20"
      },
      "t_array(t_contract(IMocRC20)20422)dyn_storage": {
        "base": "t_contract(IMocRC20)20422",
        "encoding": "dynamic_array",
        "label": "contract IMocRC20[]",
        "numberOfBytes": "32"
      },
      "t_array(t_int256)dyn_storage": {
        "base": "t_int256",
        "encoding": "dynamic_array",
        "label": "int256[]",
        "numberOfBytes": "32"
      },
      "t_array(t_struct(EmaItem)14761_storage)dyn_storage": {
        "base": "t_struct(EmaItem)14761_storage",
        "encoding": "dynamic_array",
        "label": "struct MocEma.EmaItem[]",
        "numberOfBytes": "32"
      },
      "t_array(t_struct(PegContainerItem)9200_storage)dyn_storage": {
        "base": "t_struct(PegContainerItem)9200_storage",
        "encoding": "dynamic_array",
        "label": "struct MocBaseBucket.PegContainerItem[]",
        "numberOfBytes": "32"
      },
      "t_array(t_uint256)50_storage": {
        "base": "t_uint256",
        "encoding": "inplace",
        "label": "uint256[50]",
        "numberOfBytes": "1600"
      },
      "t_array(t_uint256)dyn_storage": {
        "base": "t_uint256",
        "encoding": "dynamic_array",
        "label": "uint256[]",
        "numberOfBytes": "32"
      },
      "t_bool": {
        "encoding": "inplace",
        "label": "bool",
        "numberOfBytes": "1"
      },
      "t_contract(IDataProvider)20375": {
        "encoding": "inplace",
        "label": "contract IDataProvider",
        "numberOfBytes": "20"
      },
      "t_contract(IERC20)6209": {
        "encoding": "inplace",
        "label": "contract IERC20",
        "numberOfBytes": "20"
      },
      "t_contract(IGovernor)20396": {
        "encoding": "inplace",
        "label": "contract IGovernor",
        "numberOfBytes": "20"
      },
      "t_contract(IMocRC20)20422": {
        "encoding": "inplace",
        "label": "contract IMocRC20",
        "numberOfBytes": "20"
      },
      "t_contract(IPriceProvider)20434": {
        "encoding": "inplace",
        "label": "contract IPriceProvider",
        "numberOfBytes": "20"
      },
      "t_contract(MocTC)25747": {
        "encoding": "inplace",
        "label": "contract MocTC",
        "numberOfBytes": "20"
      },
      "t_contract(MocVendors)26052": {
        "encoding": "inplace",
        "label": "contract MocVendors",
        "numberOfBytes": "20"
      },
      "t_int256": {
        "encoding": "inplace",
        "label": "int256",
        "numberOfBytes": "32"
      },
      "t_mapping(t_address,t_struct(PeggedTokenIndex)9205_storage)": {
        "encoding": "mapping",
        "key": "t_address",
        "label": "mapping(address => struct MocBaseBucket.PeggedTokenIndex)",
        "numberOfBytes": "32",
        "value": "t_struct(PeggedTokenIndex)9205_storage"
      },
      "t_mapping(t_address,t_uint256)": {
        "encoding": "mapping",
        "key": "t_address",
        "label": "mapping(address => uint256)",
        "numberOfBytes": "32",
        "value": "t_uint256"
      },
      "t_struct(EmaItem)14761_storage": {
        "encoding": "inplace",
        "label": "struct MocEma.EmaItem",
        "members": [
          {
            "astId": 14758,
            "contract": "contracts/mocks/upgradeability/MocExpansionMocks.sol:MocCARC20WithExpansionMock",
            "label": "ema",
            "offset": 0,
            "slot": "0",
            "type": "t_uint256"
          },
          {
            "astId": 14760,
            "contract": "contracts/mocks/upgradeability/MocExpansionMocks.sol:MocCARC20WithExpansionMock",
            "label": "sf",
            "offset": 0,
            "slot": "1",
            "type": "t_uint256"
          }
        ],
        "numberOfBytes": "64"
      },
      "t_struct(PegContainerItem)9200_storage": {
        "encoding": "inplace",
        "label": "struct MocBaseBucket.PegContainerItem",
        "members": [
          {
            "astId": 9196,
            "contract": "contracts/mocks/upgradeability/MocExpansionMocks.sol:MocCARC20WithExpansionMock",
            "label": "nTP",
            "offset": 0,
            "slot": "0",
            "type": "t_uint256"
          },
          {
            "astId": 9199,
            "contract": "contracts/mocks/upgradeability/MocExpansionMocks.sol:MocCARC20WithExpansionMock",
            "label": "priceProvider",
            "offset": 0,
            "slot": "1",
            "type": "t_contract(IPriceProvider)20434"
          }
        ],
        "numberOfBytes": "64"
      },
      "t_struct(PeggedTokenIndex)9205_storage": {
        "encoding": "inplace",
        "label": "struct MocBaseBucket.PeggedTokenIndex",
        "members": [
          {
            "astId": 9202,
            "contract": "contracts/mocks/upgradeability/MocExpansionMocks.sol:MocCARC20WithExpansionMock",
            "label": "index",
            "offset": 0,
            "slot": "0",
            "type": "t_uint256"
          },
          {
            "astId": 9204,
            "contract": "contracts/mocks/upgradeability/MocExpansionMocks.sol:MocCARC20WithExpansionMock",
            "label": "exists",
            "offset": 0,
            "slot": "1",
            "type": "t_bool"
          }
        ],
        "numberOfBytes": "64"
      },
      "t_uint256": {
        "encoding": "inplace",
        "label": "uint256",
        "numberOfBytes": "32"
      },
      "t_uint8": {
        "encoding": "inplace",
        "label": "uint8",
        "numberOfBytes": "1"
      }
    }
  },
  "userdoc": {
    "kind": "user",
    "methods": {
      "addPeggedToken((address,address,uint256,uint256,uint256,uint256,uint256))": {
        "notice": "add a Pegged Token to the protocol"
      },
      "calcCtargemaCA()": {
        "notice": "calculates target coverage adjusted by all Pegged Token's to Collateral Asset rate moving average"
      },
      "changeGovernor(address)": {
        "notice": "Change the contract's governor. Should be called through the old governance system"
      },
      "editPeggedToken((address,address,uint256,uint256,uint256,uint256,uint256))": {
        "notice": "modifies a Pegged Token of the protocol"
      },
      "execMintTC((uint256,uint256,address,address,address))": {
        "notice": "executes Operation based on params, only mocQueue allowed see MocCore _mintTCto for details"
      },
      "execMintTCandTP((address,uint256,uint256,address,address,address))": {
        "notice": "executes Operation based on params, only mocQueue allowed see MocCore _mintTCandTPto for details"
      },
      "execMintTP((address,uint256,uint256,address,address,address))": {
        "notice": "executes Operation based on params, only mocQueue allowed see MocCore _mintTPto for details"
      },
      "execRedeemTC((uint256,uint256,address,address,address))": {
        "notice": "executes Operation based on params, only mocQueue allowed see MocCore _redeemTCto for details"
      },
      "execRedeemTCandTP((address,uint256,uint256,uint256,address,address,address))": {
        "notice": "executes Operation based on params, only mocQueue allowed see MocCore _redeemTCandTPto for details"
      },
      "execRedeemTP((address,uint256,uint256,address,address,address))": {
        "notice": "executes Operation based on params, only mocQueue allowed see MocCore _redeemTPto for details"
      },
      "execSettlement()": {
        "notice": "this function is executed during settlement.  stores amount of locked AC by Pegged Tokens at this moment and distribute success fee"
      },
      "execSwapTCforTP((address,uint256,uint256,uint256,address,address,address))": {
        "notice": "executes Operation based on params, only mocQueue allowed see MocCore _swapTCforTPto for details"
      },
      "execSwapTPforTC((address,uint256,uint256,uint256,address,address,address))": {
        "notice": "executes Operation based on params, only mocQueue allowed see MocCore _swapTPforTCto for details"
      },
      "execSwapTPforTP((address,address,uint256,uint256,uint256,address,address,address))": {
        "notice": "executes Operation based on params, only mocQueue allowed see MocCore _swapTPforTPto for details"
      },
      "getBts()": {
        "notice": "get the number of blocks remaining for settlement"
      },
      "getCglb()": {
        "notice": "get bucket global coverage"
      },
      "getLckAC()": {
        "notice": "get amount of Collateral Asset locked by Pegged Token"
      },
      "getLeverageTC()": {
        "notice": "get Collateral Token leverage"
      },
      "getPACtp(address)": {
        "notice": "get how many Pegged Token equal 1 Collateral Asset"
      },
      "getPTCac()": {
        "notice": "get Collateral Token price"
      },
      "getTCAvailableToRedeem()": {
        "notice": "get amount of Collateral Token available to redeem"
      },
      "getTPAvailableToMint(address)": {
        "notice": "get amount of Pegged Token available to mint"
      },
      "getTotalACavailable()": {
        "notice": "get total Collateral Asset available"
      },
      "getTpAmount()": {
        "notice": "return current amount of Tps"
      },
      "governor()": {
        "notice": "The address of the contract which governs this one"
      },
      "initialize((((address,address,address,address,address,address,uint256,uint256,uint256,uint256,uint256,uint256,uint256,uint256,uint256,uint256,uint256,uint256,uint256,uint256,address,uint256,uint256,address,address,uint256),address,address,address,uint256,address),address))": {
        "notice": "contract initializer"
      },
      "isLiquidationReached()": {
        "notice": "If liquidation is enabled, verifies if forced liquidation has been reached, checking if globalCoverage <= liquidation"
      },
      "liqRedeemTP(address,address)": {
        "notice": "Allow redeem on liquidation state, user Peg balance gets burned and he receives the equivalent AC given the liquidation frozen price."
      },
      "makeStoppable()": {
        "notice": "Switches ON the stoppability of the contract. It can be paused or unpaused  Doesn't change the pause state, if the contract was already paused it cannot be operated"
      },
      "makeUnstoppable()": {
        "notice": "Switches OFF the stoppability of the contract. It cannot be paused or unpaused Doesn't change the pause state, if the contract was already paused it cannot be operated"
      },
      "maxQACToMintTP()": {
        "notice": "gets the max amount of AC allowed to operate to mint TP with, restricted by accumulators // TODO: move this function to a MocView contract"
      },
      "maxQACToRedeemTP()": {
        "notice": "gets the max amount of AC allowed to operate to redeem TP with, restricted by accumulators // TODO: move this function to a MocView contract"
      },
      "mintTC(uint256,uint256,address,address)": {
        "notice": "caller sends Collateral Asset and recipient receives Collateral Token  `vendor_` receives a markup in Fee Token if possible or in qAC if not   Requires prior sender approval of Collateral Asset to this contract"
      },
      "mintTCandTP(address,uint256,uint256,address,address)": {
        "notice": "caller sends Collateral Asset and recipient receives Collateral Token and Pegged Token  `vendor_` receives a markup in Fee Token if possible or in qAC if not  Requires prior sender approval of Collateral Asset to this contract  This operation is done without checking coverage  Collateral Token and Pegged Token are minted in equivalent proportions so that its price  and global coverage are not modified.  Reverts if qAC sent are insufficient."
      },
      "mintTP(address,uint256,uint256,address,address)": {
        "notice": "caller sends Collateral Asset and recipient receives Pegged Token  `vendor_` receives a markup in Fee Token if possible or in qAC if not   Requires prior sender approval of Collateral Asset to this contract"
      },
      "pause()": {
        "notice": "Called by the owner to pause, triggers stopped state"
      },
      "paused()": {
        "notice": "Returns true if paused"
      },
      "redeemTC(uint256,uint256,address,address)": {
        "notice": "caller sends Collateral Token and recipient receives Collateral Asset  `vendor_` receives a markup in Fee Token if possible or in qAC if not"
      },
      "redeemTCandTP(address,uint256,uint256,uint256,address,address)": {
        "notice": "Caller sends Collateral Token and Pegged Token and recipient receives Collateral Asset.  `vendor_` receives a markup in Fee Token if possible or in Collateral Asset if not  This operation is done without checking coverage  Collateral Token and Pegged Token are redeemed in equivalent proportions so that their price  and global coverage are not modified.  Reverts if qTP sent are insufficient."
      },
      "redeemTP(address,uint256,uint256,address,address)": {
        "notice": "caller sends Pegged Token and recipient receives Collateral Asset  `vendor_` receives a markup in Fee Token if possible or in qAC if not"
      },
      "refreshACBalance()": {
        "notice": "Refreshes the AC holdings for the Bucket"
      },
      "setPauser(address)": {
        "notice": "Changes the address which is enable to pause this contract"
      },
      "shouldCalculateEma()": {
        "notice": "true if the necessary span has pass since last ema update"
      },
      "swapTCforTP(address,uint256,uint256,uint256,address,address)": {
        "notice": "Caller sends a Collateral Token and recipient receives Pegged Token.  `vendor_` receives a markup in Fee Token if possible or in qAC if not."
      },
      "swapTPforTC(address,uint256,uint256,uint256,address,address)": {
        "notice": "caller sends a Pegged Token and recipient receives Collateral Token  `vendor_` receives a markup in Fee Token if possible or in qAC if not"
      },
      "swapTPforTP(address,address,uint256,uint256,uint256,address,address)": {
        "notice": "caller sends a Pegged Token and recipient receives another one  `vendor_` receives a markup in Fee Token if possible or in qAC if not"
      },
      "tcHoldersInterestPayment()": {
        "notice": "executes the interest payment of the TC holders  can only be executed after a block span"
      },
      "unlockACInPending(address,uint256)": {
        "notice": "while executing a pending Operation, if it fails we need to unlock user's funds"
      },
      "unlockTCInPending(address,uint256)": {
        "notice": "while executing a pending Operation, if it fails we need to unlock user's tokens"
      },
      "unlockTPInPending(address,address,uint256)": {
        "notice": "while executing a pending Operation, if it fails we need to unlock user's tokens"
      },
      "unpause()": {
        "notice": "Called by the owner to unpause, returns to normal state"
      },
      "updateEmas()": {
        "notice": "If time, calculates the EMA for all the Pegged Token prices."
      }
    },
    "version": 1
  }
}