{
  "contractName": "MocCoinbaseWithExpansionMock",
  "sourceName": "contracts/mocks/upgradeability/MocExpansionMocks.sol",
  "abi": [
    {
      "inputs": [
        {
          "internalType": "uint256",
          "name": "qACsent_",
          "type": "uint256"
        },
        {
          "internalType": "uint256",
          "name": "qACNeeded_",
          "type": "uint256"
        }
      ],
      "name": "InsufficientQacSent",
      "type": "error"
    },
    {
      "inputs": [
        {
          "internalType": "uint256",
          "name": "qTPsent_",
          "type": "uint256"
        },
        {
          "internalType": "uint256",
          "name": "qTPNeeded_",
          "type": "uint256"
        }
      ],
      "name": "InsufficientQtpSent",
      "type": "error"
    },
    {
      "inputs": [
        {
          "internalType": "uint256",
          "name": "qTC_",
          "type": "uint256"
        },
        {
          "internalType": "uint256",
          "name": "tcAvailableToRedeem_",
          "type": "uint256"
        }
      ],
      "name": "InsufficientTCtoRedeem",
      "type": "error"
    },
    {
      "inputs": [
        {
          "internalType": "uint256",
          "name": "qTP_",
          "type": "uint256"
        },
        {
          "internalType": "uint256",
          "name": "tpAvailableToMint_",
          "type": "uint256"
        }
      ],
      "name": "InsufficientTPtoMint",
      "type": "error"
    },
    {
      "inputs": [
        {
          "internalType": "uint256",
          "name": "qTP_",
          "type": "uint256"
        },
        {
          "internalType": "uint256",
          "name": "tpAvailableToRedeem_",
          "type": "uint256"
        }
      ],
      "name": "InsufficientTPtoRedeem",
      "type": "error"
    },
    {
      "inputs": [],
      "name": "InvalidAddress",
      "type": "error"
    },
    {
      "inputs": [],
      "name": "InvalidValue",
      "type": "error"
    },
    {
      "inputs": [],
      "name": "Liquidated",
      "type": "error"
    },
    {
      "inputs": [
        {
          "internalType": "uint256",
          "name": "cglb_",
          "type": "uint256"
        },
        {
          "internalType": "uint256",
          "name": "covThrld_",
          "type": "uint256"
        }
      ],
      "name": "LowCoverage",
      "type": "error"
    },
    {
      "inputs": [],
      "name": "MissingBlocksToSettlement",
      "type": "error"
    },
    {
      "inputs": [
        {
          "internalType": "address",
          "name": "priceProviderAddress_",
          "type": "address"
        }
      ],
      "name": "MissingProviderPrice",
      "type": "error"
    },
    {
      "inputs": [],
      "name": "NotAuthorizedChanger",
      "type": "error"
    },
    {
      "inputs": [],
      "name": "NotWhenPaused",
      "type": "error"
    },
    {
      "inputs": [],
      "name": "OnlyPauser",
      "type": "error"
    },
    {
      "inputs": [],
      "name": "OnlyWhenLiquidated",
      "type": "error"
    },
    {
      "inputs": [],
      "name": "OnlyWhilePaused",
      "type": "error"
    },
    {
      "inputs": [],
      "name": "PeggedTokenAlreadyAdded",
      "type": "error"
    },
    {
      "inputs": [
        {
          "internalType": "uint256",
          "name": "qACmin_",
          "type": "uint256"
        },
        {
          "internalType": "uint256",
          "name": "qACtoRedeem_",
          "type": "uint256"
        }
      ],
      "name": "QacBelowMinimumRequired",
      "type": "error"
    },
    {
      "inputs": [],
      "name": "QacNeededMustBeGreaterThanZero",
      "type": "error"
    },
    {
      "inputs": [
        {
          "internalType": "uint256",
          "name": "qTCmin_",
          "type": "uint256"
        },
        {
          "internalType": "uint256",
          "name": "qTC_",
          "type": "uint256"
        }
      ],
      "name": "QtcBelowMinimumRequired",
      "type": "error"
    },
    {
      "inputs": [
        {
          "internalType": "uint256",
          "name": "qTPmin_",
          "type": "uint256"
        },
        {
          "internalType": "uint256",
          "name": "qTP_",
          "type": "uint256"
        }
      ],
      "name": "QtpBelowMinimumRequired",
      "type": "error"
    },
    {
      "inputs": [],
      "name": "TransferFailed",
      "type": "error"
    },
    {
      "inputs": [],
      "name": "Unstoppable",
      "type": "error"
    },
    {
      "anonymous": false,
      "inputs": [
        {
          "indexed": false,
          "internalType": "address",
          "name": "previousAdmin",
          "type": "address"
        },
        {
          "indexed": false,
          "internalType": "address",
          "name": "newAdmin",
          "type": "address"
        }
      ],
      "name": "AdminChanged",
      "type": "event"
    },
    {
      "anonymous": false,
      "inputs": [
        {
          "indexed": true,
          "internalType": "address",
          "name": "beacon",
          "type": "address"
        }
      ],
      "name": "BeaconUpgraded",
      "type": "event"
    },
    {
      "anonymous": false,
      "inputs": [],
      "name": "ContractLiquidated",
      "type": "event"
    },
    {
      "anonymous": false,
      "inputs": [
        {
          "indexed": false,
          "internalType": "uint8",
          "name": "version",
          "type": "uint8"
        }
      ],
      "name": "Initialized",
      "type": "event"
    },
    {
      "anonymous": false,
      "inputs": [
        {
          "indexed": false,
          "internalType": "address",
          "name": "account",
          "type": "address"
        }
      ],
      "name": "Paused",
      "type": "event"
    },
    {
      "anonymous": false,
      "inputs": [
        {
          "indexed": true,
          "internalType": "uint256",
          "name": "i_",
          "type": "uint256"
        },
        {
          "components": [
            {
              "internalType": "address",
              "name": "tpTokenAddress",
              "type": "address"
            },
            {
              "internalType": "address",
              "name": "priceProviderAddress",
              "type": "address"
            },
            {
              "internalType": "uint256",
              "name": "tpCtarg",
              "type": "uint256"
            },
            {
              "internalType": "uint256",
              "name": "tpMintFee",
              "type": "uint256"
            },
            {
              "internalType": "uint256",
              "name": "tpRedeemFee",
              "type": "uint256"
            },
            {
              "internalType": "uint256",
              "name": "tpEma",
              "type": "uint256"
            },
            {
              "internalType": "uint256",
              "name": "tpEmaSf",
              "type": "uint256"
            }
          ],
          "indexed": false,
          "internalType": "struct PeggedTokenParams",
          "name": "peggedTokenParams_",
          "type": "tuple"
        }
      ],
      "name": "PeggedTokenChange",
      "type": "event"
    },
    {
      "anonymous": false,
      "inputs": [],
      "name": "SettlementExecuted",
      "type": "event"
    },
    {
      "anonymous": false,
      "inputs": [
        {
          "indexed": false,
          "internalType": "uint256",
          "name": "mocGain_",
          "type": "uint256"
        },
        {
          "indexed": false,
          "internalType": "uint256[]",
          "name": "tpGain_",
          "type": "uint256[]"
        }
      ],
      "name": "SuccessFeeDistributed",
      "type": "event"
    },
    {
      "anonymous": false,
      "inputs": [
        {
          "indexed": true,
          "internalType": "address",
          "name": "sender_",
          "type": "address"
        },
        {
          "indexed": true,
          "internalType": "address",
          "name": "recipient_",
          "type": "address"
        },
        {
          "indexed": false,
          "internalType": "uint256",
          "name": "qTC_",
          "type": "uint256"
        },
        {
          "indexed": false,
          "internalType": "uint256",
          "name": "qAC_",
          "type": "uint256"
        },
        {
          "indexed": false,
          "internalType": "uint256",
          "name": "qACfee_",
          "type": "uint256"
        },
        {
          "indexed": false,
          "internalType": "uint256",
          "name": "qFeeToken_",
          "type": "uint256"
        },
        {
          "indexed": false,
          "internalType": "uint256",
          "name": "qACVendorMarkup_",
          "type": "uint256"
        },
        {
          "indexed": false,
          "internalType": "uint256",
          "name": "qFeeTokenVendorMarkup_",
          "type": "uint256"
        }
      ],
      "name": "TCMinted",
      "type": "event"
    },
    {
      "anonymous": false,
      "inputs": [
        {
          "indexed": true,
          "internalType": "address",
          "name": "sender_",
          "type": "address"
        },
        {
          "indexed": true,
          "internalType": "address",
          "name": "recipient_",
          "type": "address"
        },
        {
          "indexed": false,
          "internalType": "uint256",
          "name": "qTC_",
          "type": "uint256"
        },
        {
          "indexed": false,
          "internalType": "uint256",
          "name": "qAC_",
          "type": "uint256"
        },
        {
          "indexed": false,
          "internalType": "uint256",
          "name": "qACfee_",
          "type": "uint256"
        },
        {
          "indexed": false,
          "internalType": "uint256",
          "name": "qFeeToken_",
          "type": "uint256"
        },
        {
          "indexed": false,
          "internalType": "uint256",
          "name": "qACVendorMarkup_",
          "type": "uint256"
        },
        {
          "indexed": false,
          "internalType": "uint256",
          "name": "qFeeTokenVendorMarkup_",
          "type": "uint256"
        }
      ],
      "name": "TCRedeemed",
      "type": "event"
    },
    {
      "anonymous": false,
      "inputs": [
        {
          "indexed": true,
          "internalType": "uint256",
          "name": "i_",
          "type": "uint256"
        },
        {
          "indexed": true,
          "internalType": "address",
          "name": "sender_",
          "type": "address"
        },
        {
          "indexed": true,
          "internalType": "address",
          "name": "recipient_",
          "type": "address"
        },
        {
          "indexed": false,
          "internalType": "uint256",
          "name": "qTC_",
          "type": "uint256"
        },
        {
          "indexed": false,
          "internalType": "uint256",
          "name": "qTP_",
          "type": "uint256"
        },
        {
          "indexed": false,
          "internalType": "uint256",
          "name": "qACfee_",
          "type": "uint256"
        },
        {
          "indexed": false,
          "internalType": "uint256",
          "name": "qFeeToken_",
          "type": "uint256"
        },
        {
          "indexed": false,
          "internalType": "uint256",
          "name": "qACVendorMarkup_",
          "type": "uint256"
        },
        {
          "indexed": false,
          "internalType": "uint256",
          "name": "qFeeTokenVendorMarkup_",
          "type": "uint256"
        }
      ],
      "name": "TCSwappedForTP",
      "type": "event"
    },
    {
      "anonymous": false,
      "inputs": [
        {
          "indexed": true,
          "internalType": "uint256",
          "name": "i_",
          "type": "uint256"
        },
        {
          "indexed": true,
          "internalType": "address",
          "name": "sender_",
          "type": "address"
        },
        {
          "indexed": true,
          "internalType": "address",
          "name": "recipient_",
          "type": "address"
        },
        {
          "indexed": false,
          "internalType": "uint256",
          "name": "qTC_",
          "type": "uint256"
        },
        {
          "indexed": false,
          "internalType": "uint256",
          "name": "qTP_",
          "type": "uint256"
        },
        {
          "indexed": false,
          "internalType": "uint256",
          "name": "qAC_",
          "type": "uint256"
        },
        {
          "indexed": false,
          "internalType": "uint256",
          "name": "qACfee_",
          "type": "uint256"
        },
        {
          "indexed": false,
          "internalType": "uint256",
          "name": "qFeeToken_",
          "type": "uint256"
        },
        {
          "indexed": false,
          "internalType": "uint256",
          "name": "qACVendorMarkup_",
          "type": "uint256"
        },
        {
          "indexed": false,
          "internalType": "uint256",
          "name": "qFeeTokenVendorMarkup_",
          "type": "uint256"
        }
      ],
      "name": "TCandTPMinted",
      "type": "event"
    },
    {
      "anonymous": false,
      "inputs": [
        {
          "indexed": true,
          "internalType": "uint256",
          "name": "i_",
          "type": "uint256"
        },
        {
          "indexed": true,
          "internalType": "address",
          "name": "sender_",
          "type": "address"
        },
        {
          "indexed": true,
          "internalType": "address",
          "name": "recipient_",
          "type": "address"
        },
        {
          "indexed": false,
          "internalType": "uint256",
          "name": "qTC_",
          "type": "uint256"
        },
        {
          "indexed": false,
          "internalType": "uint256",
          "name": "qTP_",
          "type": "uint256"
        },
        {
          "indexed": false,
          "internalType": "uint256",
          "name": "qAC_",
          "type": "uint256"
        },
        {
          "indexed": false,
          "internalType": "uint256",
          "name": "qACfee_",
          "type": "uint256"
        },
        {
          "indexed": false,
          "internalType": "uint256",
          "name": "qFeeToken_",
          "type": "uint256"
        },
        {
          "indexed": false,
          "internalType": "uint256",
          "name": "qACVendorMarkup_",
          "type": "uint256"
        },
        {
          "indexed": false,
          "internalType": "uint256",
          "name": "qFeeTokenVendorMarkup_",
          "type": "uint256"
        }
      ],
      "name": "TCandTPRedeemed",
      "type": "event"
    },
    {
      "anonymous": false,
      "inputs": [
        {
          "indexed": true,
          "internalType": "uint256",
          "name": "i_",
          "type": "uint256"
        },
        {
          "indexed": true,
          "internalType": "address",
          "name": "sender_",
          "type": "address"
        },
        {
          "indexed": true,
          "internalType": "address",
          "name": "recipient_",
          "type": "address"
        },
        {
          "indexed": false,
          "internalType": "uint256",
          "name": "qTP_",
          "type": "uint256"
        },
        {
          "indexed": false,
          "internalType": "uint256",
          "name": "qAC_",
          "type": "uint256"
        },
        {
          "indexed": false,
          "internalType": "uint256",
          "name": "qACfee_",
          "type": "uint256"
        },
        {
          "indexed": false,
          "internalType": "uint256",
          "name": "qFeeToken_",
          "type": "uint256"
        },
        {
          "indexed": false,
          "internalType": "uint256",
          "name": "qACVendorMarkup_",
          "type": "uint256"
        },
        {
          "indexed": false,
          "internalType": "uint256",
          "name": "qFeeTokenVendorMarkup_",
          "type": "uint256"
        }
      ],
      "name": "TPMinted",
      "type": "event"
    },
    {
      "anonymous": false,
      "inputs": [
        {
          "indexed": true,
          "internalType": "uint256",
          "name": "i_",
          "type": "uint256"
        },
        {
          "indexed": true,
          "internalType": "address",
          "name": "sender_",
          "type": "address"
        },
        {
          "indexed": true,
          "internalType": "address",
          "name": "recipient_",
          "type": "address"
        },
        {
          "indexed": false,
          "internalType": "uint256",
          "name": "qTP_",
          "type": "uint256"
        },
        {
          "indexed": false,
          "internalType": "uint256",
          "name": "qAC_",
          "type": "uint256"
        },
        {
          "indexed": false,
          "internalType": "uint256",
          "name": "qACfee_",
          "type": "uint256"
        },
        {
          "indexed": false,
          "internalType": "uint256",
          "name": "qFeeToken_",
          "type": "uint256"
        },
        {
          "indexed": false,
          "internalType": "uint256",
          "name": "qACVendorMarkup_",
          "type": "uint256"
        },
        {
          "indexed": false,
          "internalType": "uint256",
          "name": "qFeeTokenVendorMarkup_",
          "type": "uint256"
        }
      ],
      "name": "TPRedeemed",
      "type": "event"
    },
    {
      "anonymous": false,
      "inputs": [
        {
          "indexed": true,
          "internalType": "uint256",
          "name": "i_",
          "type": "uint256"
        },
        {
          "indexed": true,
          "internalType": "address",
          "name": "sender_",
          "type": "address"
        },
        {
          "indexed": true,
          "internalType": "address",
          "name": "recipient_",
          "type": "address"
        },
        {
          "indexed": false,
          "internalType": "uint256",
          "name": "qTP_",
          "type": "uint256"
        },
        {
          "indexed": false,
          "internalType": "uint256",
          "name": "qTC_",
          "type": "uint256"
        },
        {
          "indexed": false,
          "internalType": "uint256",
          "name": "qACfee_",
          "type": "uint256"
        },
        {
          "indexed": false,
          "internalType": "uint256",
          "name": "qFeeToken_",
          "type": "uint256"
        },
        {
          "indexed": false,
          "internalType": "uint256",
          "name": "qACVendorMarkup_",
          "type": "uint256"
        },
        {
          "indexed": false,
          "internalType": "uint256",
          "name": "qFeeTokenVendorMarkup_",
          "type": "uint256"
        }
      ],
      "name": "TPSwappedForTC",
      "type": "event"
    },
    {
      "anonymous": false,
      "inputs": [
        {
          "indexed": true,
          "internalType": "uint256",
          "name": "iFrom_",
          "type": "uint256"
        },
        {
          "indexed": false,
          "internalType": "uint256",
          "name": "iTo_",
          "type": "uint256"
        },
        {
          "indexed": true,
          "internalType": "address",
          "name": "sender_",
          "type": "address"
        },
        {
          "indexed": true,
          "internalType": "address",
          "name": "recipient_",
          "type": "address"
        },
        {
          "indexed": false,
          "internalType": "uint256",
          "name": "qTPfrom_",
          "type": "uint256"
        },
        {
          "indexed": false,
          "internalType": "uint256",
          "name": "qTPto_",
          "type": "uint256"
        },
        {
          "indexed": false,
          "internalType": "uint256",
          "name": "qACfee_",
          "type": "uint256"
        },
        {
          "indexed": false,
          "internalType": "uint256",
          "name": "qFeeToken_",
          "type": "uint256"
        },
        {
          "indexed": false,
          "internalType": "uint256",
          "name": "qACVendorMarkup_",
          "type": "uint256"
        },
        {
          "indexed": false,
          "internalType": "uint256",
          "name": "qFeeTokenVendorMarkup_",
          "type": "uint256"
        }
      ],
      "name": "TPSwappedForTP",
      "type": "event"
    },
    {
      "anonymous": false,
      "inputs": [
        {
          "indexed": true,
          "internalType": "uint256",
          "name": "i_",
          "type": "uint256"
        },
        {
          "indexed": false,
          "internalType": "uint256",
          "name": "oldTPema_",
          "type": "uint256"
        },
        {
          "indexed": false,
          "internalType": "uint256",
          "name": "newTPema_",
          "type": "uint256"
        }
      ],
      "name": "TPemaUpdated",
      "type": "event"
    },
    {
      "anonymous": false,
      "inputs": [
        {
          "indexed": false,
          "internalType": "address",
          "name": "account",
          "type": "address"
        }
      ],
      "name": "Unpaused",
      "type": "event"
    },
    {
      "anonymous": false,
      "inputs": [
        {
          "indexed": true,
          "internalType": "address",
          "name": "implementation",
          "type": "address"
        }
      ],
      "name": "Upgraded",
      "type": "event"
    },
    {
      "inputs": [
        {
          "components": [
            {
              "internalType": "address",
              "name": "tpTokenAddress",
              "type": "address"
            },
            {
              "internalType": "address",
              "name": "priceProviderAddress",
              "type": "address"
            },
            {
              "internalType": "uint256",
              "name": "tpCtarg",
              "type": "uint256"
            },
            {
              "internalType": "uint256",
              "name": "tpMintFee",
              "type": "uint256"
            },
            {
              "internalType": "uint256",
              "name": "tpRedeemFee",
              "type": "uint256"
            },
            {
              "internalType": "uint256",
              "name": "tpEma",
              "type": "uint256"
            },
            {
              "internalType": "uint256",
              "name": "tpEmaSf",
              "type": "uint256"
            }
          ],
          "internalType": "struct PeggedTokenParams",
          "name": "peggedTokenParams_",
          "type": "tuple"
        }
      ],
      "name": "addPeggedToken",
      "outputs": [],
      "stateMutability": "nonpayable",
      "type": "function"
    },
    {
      "inputs": [],
      "name": "appreciationFactor",
      "outputs": [
        {
          "internalType": "uint256",
          "name": "",
          "type": "uint256"
        }
      ],
      "stateMutability": "view",
      "type": "function"
    },
    {
      "inputs": [],
      "name": "bes",
      "outputs": [
        {
          "internalType": "uint256",
          "name": "",
          "type": "uint256"
        }
      ],
      "stateMutability": "view",
      "type": "function"
    },
    {
      "inputs": [],
      "name": "bns",
      "outputs": [
        {
          "internalType": "uint256",
          "name": "",
          "type": "uint256"
        }
      ],
      "stateMutability": "view",
      "type": "function"
    },
    {
      "inputs": [],
      "name": "calcCtargemaCA",
      "outputs": [
        {
          "internalType": "uint256",
          "name": "ctargemaCA",
          "type": "uint256"
        }
      ],
      "stateMutability": "view",
      "type": "function"
    },
    {
      "inputs": [
        {
          "internalType": "contract IGovernor",
          "name": "newGovernor_",
          "type": "address"
        }
      ],
      "name": "changeGovernor",
      "outputs": [],
      "stateMutability": "nonpayable",
      "type": "function"
    },
    {
      "inputs": [
        {
          "components": [
            {
              "internalType": "address",
              "name": "tpTokenAddress",
              "type": "address"
            },
            {
              "internalType": "address",
              "name": "priceProviderAddress",
              "type": "address"
            },
            {
              "internalType": "uint256",
              "name": "tpCtarg",
              "type": "uint256"
            },
            {
              "internalType": "uint256",
              "name": "tpMintFee",
              "type": "uint256"
            },
            {
              "internalType": "uint256",
              "name": "tpRedeemFee",
              "type": "uint256"
            },
            {
              "internalType": "uint256",
              "name": "tpEma",
              "type": "uint256"
            },
            {
              "internalType": "uint256",
              "name": "tpEmaSf",
              "type": "uint256"
            }
          ],
          "internalType": "struct PeggedTokenParams",
          "name": "peggedTokenParams_",
          "type": "tuple"
        }
      ],
      "name": "editPeggedToken",
      "outputs": [],
      "stateMutability": "nonpayable",
      "type": "function"
    },
    {
      "inputs": [],
      "name": "emaCalculationBlockSpan",
      "outputs": [
        {
          "internalType": "uint256",
          "name": "",
          "type": "uint256"
        }
      ],
      "stateMutability": "view",
      "type": "function"
    },
    {
      "inputs": [],
      "name": "evalLiquidation",
      "outputs": [],
      "stateMutability": "nonpayable",
      "type": "function"
    },
    {
      "inputs": [],
      "name": "execSettlement",
      "outputs": [],
      "stateMutability": "nonpayable",
      "type": "function"
    },
    {
      "inputs": [],
      "name": "feeRetainer",
      "outputs": [
        {
          "internalType": "uint256",
          "name": "",
          "type": "uint256"
        }
      ],
      "stateMutability": "view",
      "type": "function"
    },
    {
      "inputs": [],
      "name": "feeToken",
      "outputs": [
        {
          "internalType": "contract IERC20",
          "name": "",
          "type": "address"
        }
      ],
      "stateMutability": "view",
      "type": "function"
    },
    {
      "inputs": [],
      "name": "feeTokenPct",
      "outputs": [
        {
          "internalType": "uint256",
          "name": "",
          "type": "uint256"
        }
      ],
      "stateMutability": "view",
      "type": "function"
    },
    {
      "inputs": [],
      "name": "feeTokenPriceProvider",
      "outputs": [
        {
          "internalType": "contract IPriceProvider",
          "name": "",
          "type": "address"
        }
      ],
      "stateMutability": "view",
      "type": "function"
    },
    {
      "inputs": [],
      "name": "getBts",
      "outputs": [
        {
          "internalType": "uint256",
          "name": "",
          "type": "uint256"
        }
      ],
      "stateMutability": "view",
      "type": "function"
    },
    {
      "inputs": [],
      "name": "getCglb",
      "outputs": [
        {
          "internalType": "uint256",
          "name": "cglob",
          "type": "uint256"
        }
      ],
      "stateMutability": "view",
      "type": "function"
    },
    {
      "inputs": [],
      "name": "getCustomMockValue",
      "outputs": [
        {
          "internalType": "uint256",
          "name": "",
          "type": "uint256"
        }
      ],
      "stateMutability": "view",
      "type": "function"
    },
    {
      "inputs": [],
      "name": "getExpansionCustomMockValue",
      "outputs": [
        {
          "internalType": "uint256",
          "name": "",
          "type": "uint256"
        }
      ],
      "stateMutability": "nonpayable",
      "type": "function"
    },
    {
      "inputs": [],
      "name": "getLeverageTC",
      "outputs": [
        {
          "internalType": "uint256",
          "name": "leverageTC",
          "type": "uint256"
        }
      ],
      "stateMutability": "view",
      "type": "function"
    },
    {
      "inputs": [
        {
          "internalType": "uint256",
          "name": "i_",
          "type": "uint256"
        }
      ],
      "name": "getPACtp",
      "outputs": [
        {
          "internalType": "uint256",
          "name": "",
          "type": "uint256"
        }
      ],
      "stateMutability": "view",
      "type": "function"
    },
    {
      "inputs": [],
      "name": "getPTCac",
      "outputs": [
        {
          "internalType": "uint256",
          "name": "pTCac",
          "type": "uint256"
        }
      ],
      "stateMutability": "view",
      "type": "function"
    },
    {
      "inputs": [],
      "name": "getTCAvailableToRedeem",
      "outputs": [
        {
          "internalType": "uint256",
          "name": "tcAvailableToRedeem",
          "type": "uint256"
        }
      ],
      "stateMutability": "view",
      "type": "function"
    },
    {
      "inputs": [
        {
          "internalType": "uint256",
          "name": "i_",
          "type": "uint256"
        }
      ],
      "name": "getTPAvailableToMint",
      "outputs": [
        {
          "internalType": "uint256",
          "name": "tpAvailableToMint",
          "type": "uint256"
        }
      ],
      "stateMutability": "view",
      "type": "function"
    },
    {
      "inputs": [],
      "name": "getTotalACavailable",
      "outputs": [
        {
          "internalType": "uint256",
          "name": "totalACavailable",
          "type": "uint256"
        }
      ],
      "stateMutability": "view",
      "type": "function"
    },
    {
      "inputs": [],
      "name": "governor",
      "outputs": [
        {
          "internalType": "contract IGovernor",
          "name": "",
          "type": "address"
        }
      ],
      "stateMutability": "view",
      "type": "function"
    },
    {
      "inputs": [
        {
          "components": [
            {
              "components": [
                {
                  "internalType": "address",
                  "name": "feeTokenAddress",
                  "type": "address"
                },
                {
                  "internalType": "address",
                  "name": "feeTokenPriceProviderAddress",
                  "type": "address"
                },
                {
                  "internalType": "address",
                  "name": "tcTokenAddress",
                  "type": "address"
                },
                {
                  "internalType": "address",
                  "name": "mocFeeFlowAddress",
                  "type": "address"
                },
                {
                  "internalType": "address",
                  "name": "mocAppreciationBeneficiaryAddress",
                  "type": "address"
                },
                {
                  "internalType": "uint256",
                  "name": "protThrld",
                  "type": "uint256"
                },
                {
                  "internalType": "uint256",
                  "name": "liqThrld",
                  "type": "uint256"
                },
                {
                  "internalType": "uint256",
                  "name": "feeRetainer",
                  "type": "uint256"
                },
                {
                  "internalType": "uint256",
                  "name": "tcMintFee",
                  "type": "uint256"
                },
                {
                  "internalType": "uint256",
                  "name": "tcRedeemFee",
                  "type": "uint256"
                },
                {
                  "internalType": "uint256",
                  "name": "swapTPforTPFee",
                  "type": "uint256"
                },
                {
                  "internalType": "uint256",
                  "name": "swapTPforTCFee",
                  "type": "uint256"
                },
                {
                  "internalType": "uint256",
                  "name": "swapTCforTPFee",
                  "type": "uint256"
                },
                {
                  "internalType": "uint256",
                  "name": "redeemTCandTPFee",
                  "type": "uint256"
                },
                {
                  "internalType": "uint256",
                  "name": "mintTCandTPFee",
                  "type": "uint256"
                },
                {
                  "internalType": "uint256",
                  "name": "feeTokenPct",
                  "type": "uint256"
                },
                {
                  "internalType": "uint256",
                  "name": "successFee",
                  "type": "uint256"
                },
                {
                  "internalType": "uint256",
                  "name": "appreciationFactor",
                  "type": "uint256"
                },
                {
                  "internalType": "uint256",
                  "name": "bes",
                  "type": "uint256"
                }
              ],
              "internalType": "struct MocBaseBucket.InitializeBaseBucketParams",
              "name": "initializeBaseBucketParams",
              "type": "tuple"
            },
            {
              "internalType": "address",
              "name": "governorAddress",
              "type": "address"
            },
            {
              "internalType": "address",
              "name": "pauserAddress",
              "type": "address"
            },
            {
              "internalType": "address",
              "name": "mocCoreExpansion",
              "type": "address"
            },
            {
              "internalType": "uint256",
              "name": "emaCalculationBlockSpan",
              "type": "uint256"
            },
            {
              "internalType": "address",
              "name": "mocVendors",
              "type": "address"
            }
          ],
          "internalType": "struct MocCore.InitializeCoreParams",
          "name": "initializeCoreParams_",
          "type": "tuple"
        }
      ],
      "name": "initialize",
      "outputs": [],
      "stateMutability": "nonpayable",
      "type": "function"
    },
    {
      "inputs": [],
      "name": "initializeMock",
      "outputs": [],
      "stateMutability": "nonpayable",
      "type": "function"
    },
    {
      "inputs": [],
      "name": "isLiquidationReached",
      "outputs": [
        {
          "internalType": "bool",
          "name": "",
          "type": "bool"
        }
      ],
      "stateMutability": "view",
      "type": "function"
    },
    {
      "inputs": [],
      "name": "liqEnabled",
      "outputs": [
        {
          "internalType": "bool",
          "name": "",
          "type": "bool"
        }
      ],
      "stateMutability": "view",
      "type": "function"
    },
    {
      "inputs": [
        {
          "internalType": "uint256",
          "name": "i_",
          "type": "uint256"
        }
      ],
      "name": "liqRedeemTP",
      "outputs": [
        {
          "internalType": "uint256",
          "name": "qACRedeemed",
          "type": "uint256"
        }
      ],
      "stateMutability": "nonpayable",
      "type": "function"
    },
    {
      "inputs": [
        {
          "internalType": "uint256",
          "name": "i_",
          "type": "uint256"
        },
        {
          "internalType": "address",
          "name": "recipient_",
          "type": "address"
        }
      ],
      "name": "liqRedeemTPto",
      "outputs": [
        {
          "internalType": "uint256",
          "name": "qACRedeemed",
          "type": "uint256"
        }
      ],
      "stateMutability": "nonpayable",
      "type": "function"
    },
    {
      "inputs": [],
      "name": "liqThrld",
      "outputs": [
        {
          "internalType": "uint256",
          "name": "",
          "type": "uint256"
        }
      ],
      "stateMutability": "view",
      "type": "function"
    },
    {
      "inputs": [],
      "name": "liquidated",
      "outputs": [
        {
          "internalType": "bool",
          "name": "",
          "type": "bool"
        }
      ],
      "stateMutability": "view",
      "type": "function"
    },
    {
      "inputs": [],
      "name": "makeStoppable",
      "outputs": [],
      "stateMutability": "nonpayable",
      "type": "function"
    },
    {
      "inputs": [],
      "name": "makeUnstoppable",
      "outputs": [],
      "stateMutability": "nonpayable",
      "type": "function"
    },
    {
      "inputs": [
        {
          "internalType": "uint256",
          "name": "qTC_",
          "type": "uint256"
        }
      ],
      "name": "mintTC",
      "outputs": [
        {
          "internalType": "uint256",
          "name": "qACtotalNeeded",
          "type": "uint256"
        },
        {
          "internalType": "uint256",
          "name": "qFeeToken",
          "type": "uint256"
        }
      ],
      "stateMutability": "payable",
      "type": "function"
    },
    {
      "inputs": [
        {
          "internalType": "uint256",
          "name": "qTC_",
          "type": "uint256"
        },
        {
          "internalType": "address",
          "name": "vendor_",
          "type": "address"
        }
      ],
      "name": "mintTCViaVendor",
      "outputs": [
        {
          "internalType": "uint256",
          "name": "qACtotalNeeded",
          "type": "uint256"
        },
        {
          "internalType": "uint256",
          "name": "qFeeToken",
          "type": "uint256"
        }
      ],
      "stateMutability": "payable",
      "type": "function"
    },
    {
      "inputs": [
        {
          "internalType": "uint256",
          "name": "i_",
          "type": "uint256"
        },
        {
          "internalType": "uint256",
          "name": "qTP_",
          "type": "uint256"
        }
      ],
      "name": "mintTCandTP",
      "outputs": [
        {
          "internalType": "uint256",
          "name": "qACtotalNeeded",
          "type": "uint256"
        },
        {
          "internalType": "uint256",
          "name": "qTCtoMint",
          "type": "uint256"
        },
        {
          "internalType": "uint256",
          "name": "qFeeToken",
          "type": "uint256"
        }
      ],
      "stateMutability": "payable",
      "type": "function"
    },
    {
      "inputs": [],
      "name": "mintTCandTPFee",
      "outputs": [
        {
          "internalType": "uint256",
          "name": "",
          "type": "uint256"
        }
      ],
      "stateMutability": "view",
      "type": "function"
    },
    {
      "inputs": [
        {
          "internalType": "uint256",
          "name": "i_",
          "type": "uint256"
        },
        {
          "internalType": "uint256",
          "name": "qTP_",
          "type": "uint256"
        },
        {
          "internalType": "address",
          "name": "vendor_",
          "type": "address"
        }
      ],
      "name": "mintTCandTPViaVendor",
      "outputs": [
        {
          "internalType": "uint256",
          "name": "qACtotalNeeded",
          "type": "uint256"
        },
        {
          "internalType": "uint256",
          "name": "qTCtoMint",
          "type": "uint256"
        },
        {
          "internalType": "uint256",
          "name": "qFeeToken",
          "type": "uint256"
        }
      ],
      "stateMutability": "payable",
      "type": "function"
    },
    {
      "inputs": [
        {
          "internalType": "uint256",
          "name": "i_",
          "type": "uint256"
        },
        {
          "internalType": "uint256",
          "name": "qTP_",
          "type": "uint256"
        },
        {
          "internalType": "address",
          "name": "recipient_",
          "type": "address"
        }
      ],
      "name": "mintTCandTPto",
      "outputs": [
        {
          "internalType": "uint256",
          "name": "qACtotalNeeded",
          "type": "uint256"
        },
        {
          "internalType": "uint256",
          "name": "qTCtoMint",
          "type": "uint256"
        },
        {
          "internalType": "uint256",
          "name": "qFeeToken",
          "type": "uint256"
        }
      ],
      "stateMutability": "payable",
      "type": "function"
    },
    {
      "inputs": [
        {
          "internalType": "uint256",
          "name": "i_",
          "type": "uint256"
        },
        {
          "internalType": "uint256",
          "name": "qTP_",
          "type": "uint256"
        },
        {
          "internalType": "address",
          "name": "recipient_",
          "type": "address"
        },
        {
          "internalType": "address",
          "name": "vendor_",
          "type": "address"
        }
      ],
      "name": "mintTCandTPtoViaVendor",
      "outputs": [
        {
          "internalType": "uint256",
          "name": "qACtotalNeeded",
          "type": "uint256"
        },
        {
          "internalType": "uint256",
          "name": "qTCtoMint",
          "type": "uint256"
        },
        {
          "internalType": "uint256",
          "name": "qFeeToken",
          "type": "uint256"
        }
      ],
      "stateMutability": "payable",
      "type": "function"
    },
    {
      "inputs": [
        {
          "internalType": "uint256",
          "name": "qTC_",
          "type": "uint256"
        },
        {
          "internalType": "address",
          "name": "recipient_",
          "type": "address"
        }
      ],
      "name": "mintTCto",
      "outputs": [
        {
          "internalType": "uint256",
          "name": "qACtotalNeeded",
          "type": "uint256"
        },
        {
          "internalType": "uint256",
          "name": "qFeeToken",
          "type": "uint256"
        }
      ],
      "stateMutability": "payable",
      "type": "function"
    },
    {
      "inputs": [
        {
          "internalType": "uint256",
          "name": "qTC_",
          "type": "uint256"
        },
        {
          "internalType": "address",
          "name": "recipient_",
          "type": "address"
        },
        {
          "internalType": "address",
          "name": "vendor_",
          "type": "address"
        }
      ],
      "name": "mintTCtoViaVendor",
      "outputs": [
        {
          "internalType": "uint256",
          "name": "qACtotalNeeded",
          "type": "uint256"
        },
        {
          "internalType": "uint256",
          "name": "qFeeToken",
          "type": "uint256"
        }
      ],
      "stateMutability": "payable",
      "type": "function"
    },
    {
      "inputs": [
        {
          "internalType": "uint256",
          "name": "i_",
          "type": "uint256"
        },
        {
          "internalType": "uint256",
          "name": "qTP_",
          "type": "uint256"
        }
      ],
      "name": "mintTP",
      "outputs": [
        {
          "internalType": "uint256",
          "name": "qACtotalNeeded",
          "type": "uint256"
        },
        {
          "internalType": "uint256",
          "name": "qFeeToken",
          "type": "uint256"
        }
      ],
      "stateMutability": "payable",
      "type": "function"
    },
    {
      "inputs": [
        {
          "internalType": "uint256",
          "name": "i_",
          "type": "uint256"
        },
        {
          "internalType": "uint256",
          "name": "qTP_",
          "type": "uint256"
        },
        {
          "internalType": "address",
          "name": "vendor_",
          "type": "address"
        }
      ],
      "name": "mintTPViaVendor",
      "outputs": [
        {
          "internalType": "uint256",
          "name": "qACtotalNeeded",
          "type": "uint256"
        },
        {
          "internalType": "uint256",
          "name": "qFeeToken",
          "type": "uint256"
        }
      ],
      "stateMutability": "payable",
      "type": "function"
    },
    {
      "inputs": [
        {
          "internalType": "uint256",
          "name": "i_",
          "type": "uint256"
        },
        {
          "internalType": "uint256",
          "name": "qTP_",
          "type": "uint256"
        },
        {
          "internalType": "address",
          "name": "recipient_",
          "type": "address"
        }
      ],
      "name": "mintTPto",
      "outputs": [
        {
          "internalType": "uint256",
          "name": "qACtotalNeeded",
          "type": "uint256"
        },
        {
          "internalType": "uint256",
          "name": "qFeeToken",
          "type": "uint256"
        }
      ],
      "stateMutability": "payable",
      "type": "function"
    },
    {
      "inputs": [
        {
          "internalType": "uint256",
          "name": "i_",
          "type": "uint256"
        },
        {
          "internalType": "uint256",
          "name": "qTP_",
          "type": "uint256"
        },
        {
          "internalType": "address",
          "name": "recipient_",
          "type": "address"
        },
        {
          "internalType": "address",
          "name": "vendor_",
          "type": "address"
        }
      ],
      "name": "mintTPtoViaVendor",
      "outputs": [
        {
          "internalType": "uint256",
          "name": "qACtotalNeeded",
          "type": "uint256"
        },
        {
          "internalType": "uint256",
          "name": "qFeeToken",
          "type": "uint256"
        }
      ],
      "stateMutability": "payable",
      "type": "function"
    },
    {
      "inputs": [],
      "name": "mocAppreciationBeneficiaryAddress",
      "outputs": [
        {
          "internalType": "address",
          "name": "",
          "type": "address"
        }
      ],
      "stateMutability": "view",
      "type": "function"
    },
    {
      "inputs": [],
      "name": "mocFeeFlowAddress",
      "outputs": [
        {
          "internalType": "address",
          "name": "",
          "type": "address"
        }
      ],
      "stateMutability": "view",
      "type": "function"
    },
    {
      "inputs": [],
      "name": "mocVendors",
      "outputs": [
        {
          "internalType": "contract MocVendors",
          "name": "",
          "type": "address"
        }
      ],
      "stateMutability": "view",
      "type": "function"
    },
    {
      "inputs": [],
      "name": "nACcb",
      "outputs": [
        {
          "internalType": "uint256",
          "name": "",
          "type": "uint256"
        }
      ],
      "stateMutability": "view",
      "type": "function"
    },
    {
      "inputs": [],
      "name": "nTCcb",
      "outputs": [
        {
          "internalType": "uint256",
          "name": "",
          "type": "uint256"
        }
      ],
      "stateMutability": "view",
      "type": "function"
    },
    {
      "inputs": [],
      "name": "newVariable",
      "outputs": [
        {
          "internalType": "uint256",
          "name": "",
          "type": "uint256"
        }
      ],
      "stateMutability": "view",
      "type": "function"
    },
    {
      "inputs": [],
      "name": "nextEmaCalculation",
      "outputs": [
        {
          "internalType": "uint256",
          "name": "",
          "type": "uint256"
        }
      ],
      "stateMutability": "view",
      "type": "function"
    },
    {
      "inputs": [],
      "name": "pause",
      "outputs": [],
      "stateMutability": "nonpayable",
      "type": "function"
    },
    {
      "inputs": [],
      "name": "paused",
      "outputs": [
        {
          "internalType": "bool",
          "name": "",
          "type": "bool"
        }
      ],
      "stateMutability": "view",
      "type": "function"
    },
    {
      "inputs": [],
      "name": "pauser",
      "outputs": [
        {
          "internalType": "address",
          "name": "",
          "type": "address"
        }
      ],
      "stateMutability": "view",
      "type": "function"
    },
    {
      "inputs": [
        {
          "internalType": "uint256",
          "name": "",
          "type": "uint256"
        }
      ],
      "name": "pegContainer",
      "outputs": [
        {
          "internalType": "uint256",
          "name": "nTP",
          "type": "uint256"
        },
        {
          "internalType": "contract IPriceProvider",
          "name": "priceProvider",
          "type": "address"
        }
      ],
      "stateMutability": "view",
      "type": "function"
    },
    {
      "inputs": [
        {
          "internalType": "address",
          "name": "",
          "type": "address"
        }
      ],
      "name": "peggedTokenIndex",
      "outputs": [
        {
          "internalType": "uint256",
          "name": "index",
          "type": "uint256"
        },
        {
          "internalType": "bool",
          "name": "exists",
          "type": "bool"
        }
      ],
      "stateMutability": "view",
      "type": "function"
    },
    {
      "inputs": [],
      "name": "protThrld",
      "outputs": [
        {
          "internalType": "uint256",
          "name": "",
          "type": "uint256"
        }
      ],
      "stateMutability": "view",
      "type": "function"
    },
    {
      "inputs": [],
      "name": "proxiableUUID",
      "outputs": [
        {
          "internalType": "bytes32",
          "name": "",
          "type": "bytes32"
        }
      ],
      "stateMutability": "view",
      "type": "function"
    },
    {
      "inputs": [
        {
          "internalType": "uint256",
          "name": "qTC_",
          "type": "uint256"
        },
        {
          "internalType": "uint256",
          "name": "qACmin_",
          "type": "uint256"
        }
      ],
      "name": "redeemTC",
      "outputs": [
        {
          "internalType": "uint256",
          "name": "qACRedeemed",
          "type": "uint256"
        },
        {
          "internalType": "uint256",
          "name": "qFeeToken",
          "type": "uint256"
        }
      ],
      "stateMutability": "nonpayable",
      "type": "function"
    },
    {
      "inputs": [
        {
          "internalType": "uint256",
          "name": "qTC_",
          "type": "uint256"
        },
        {
          "internalType": "uint256",
          "name": "qACmin_",
          "type": "uint256"
        },
        {
          "internalType": "address",
          "name": "vendor_",
          "type": "address"
        }
      ],
      "name": "redeemTCViaVendor",
      "outputs": [
        {
          "internalType": "uint256",
          "name": "qACRedeemed",
          "type": "uint256"
        },
        {
          "internalType": "uint256",
          "name": "qFeeToken",
          "type": "uint256"
        }
      ],
      "stateMutability": "nonpayable",
      "type": "function"
    },
    {
      "inputs": [
        {
          "internalType": "uint256",
          "name": "i_",
          "type": "uint256"
        },
        {
          "internalType": "uint256",
          "name": "qTC_",
          "type": "uint256"
        },
        {
          "internalType": "uint256",
          "name": "qTP_",
          "type": "uint256"
        },
        {
          "internalType": "uint256",
          "name": "qACmin_",
          "type": "uint256"
        }
      ],
      "name": "redeemTCandTP",
      "outputs": [
        {
          "internalType": "uint256",
          "name": "qACRedeemed",
          "type": "uint256"
        },
        {
          "internalType": "uint256",
          "name": "qTPRedeemed",
          "type": "uint256"
        },
        {
          "internalType": "uint256",
          "name": "qFeeToken",
          "type": "uint256"
        }
      ],
      "stateMutability": "nonpayable",
      "type": "function"
    },
    {
      "inputs": [],
      "name": "redeemTCandTPFee",
      "outputs": [
        {
          "internalType": "uint256",
          "name": "",
          "type": "uint256"
        }
      ],
      "stateMutability": "view",
      "type": "function"
    },
    {
      "inputs": [
        {
          "internalType": "uint256",
          "name": "i_",
          "type": "uint256"
        },
        {
          "internalType": "uint256",
          "name": "qTC_",
          "type": "uint256"
        },
        {
          "internalType": "uint256",
          "name": "qTP_",
          "type": "uint256"
        },
        {
          "internalType": "uint256",
          "name": "qACmin_",
          "type": "uint256"
        },
        {
          "internalType": "address",
          "name": "vendor_",
          "type": "address"
        }
      ],
      "name": "redeemTCandTPViaVendor",
      "outputs": [
        {
          "internalType": "uint256",
          "name": "qACRedeemed",
          "type": "uint256"
        },
        {
          "internalType": "uint256",
          "name": "qTPRedeemed",
          "type": "uint256"
        },
        {
          "internalType": "uint256",
          "name": "qFeeToken",
          "type": "uint256"
        }
      ],
      "stateMutability": "nonpayable",
      "type": "function"
    },
    {
      "inputs": [
        {
          "internalType": "uint256",
          "name": "i_",
          "type": "uint256"
        },
        {
          "internalType": "uint256",
          "name": "qTC_",
          "type": "uint256"
        },
        {
          "internalType": "uint256",
          "name": "qTP_",
          "type": "uint256"
        },
        {
          "internalType": "uint256",
          "name": "qACmin_",
          "type": "uint256"
        },
        {
          "internalType": "address",
          "name": "recipient_",
          "type": "address"
        }
      ],
      "name": "redeemTCandTPto",
      "outputs": [
        {
          "internalType": "uint256",
          "name": "qACRedeemed",
          "type": "uint256"
        },
        {
          "internalType": "uint256",
          "name": "qTPRedeemed",
          "type": "uint256"
        },
        {
          "internalType": "uint256",
          "name": "qFeeToken",
          "type": "uint256"
        }
      ],
      "stateMutability": "nonpayable",
      "type": "function"
    },
    {
      "inputs": [
        {
          "internalType": "uint256",
          "name": "i_",
          "type": "uint256"
        },
        {
          "internalType": "uint256",
          "name": "qTC_",
          "type": "uint256"
        },
        {
          "internalType": "uint256",
          "name": "qTP_",
          "type": "uint256"
        },
        {
          "internalType": "uint256",
          "name": "qACmin_",
          "type": "uint256"
        },
        {
          "internalType": "address",
          "name": "recipient_",
          "type": "address"
        },
        {
          "internalType": "address",
          "name": "vendor_",
          "type": "address"
        }
      ],
      "name": "redeemTCandTPtoViaVendor",
      "outputs": [
        {
          "internalType": "uint256",
          "name": "qACRedeemed",
          "type": "uint256"
        },
        {
          "internalType": "uint256",
          "name": "qTPRedeemed",
          "type": "uint256"
        },
        {
          "internalType": "uint256",
          "name": "qFeeToken",
          "type": "uint256"
        }
      ],
      "stateMutability": "nonpayable",
      "type": "function"
    },
    {
      "inputs": [
        {
          "internalType": "uint256",
          "name": "qTC_",
          "type": "uint256"
        },
        {
          "internalType": "uint256",
          "name": "qACmin_",
          "type": "uint256"
        },
        {
          "internalType": "address",
          "name": "recipient_",
          "type": "address"
        }
      ],
      "name": "redeemTCto",
      "outputs": [
        {
          "internalType": "uint256",
          "name": "qACRedeemed",
          "type": "uint256"
        },
        {
          "internalType": "uint256",
          "name": "qFeeToken",
          "type": "uint256"
        }
      ],
      "stateMutability": "nonpayable",
      "type": "function"
    },
    {
      "inputs": [
        {
          "internalType": "uint256",
          "name": "qTC_",
          "type": "uint256"
        },
        {
          "internalType": "uint256",
          "name": "qACmin_",
          "type": "uint256"
        },
        {
          "internalType": "address",
          "name": "recipient_",
          "type": "address"
        },
        {
          "internalType": "address",
          "name": "vendor_",
          "type": "address"
        }
      ],
      "name": "redeemTCtoViaVendor",
      "outputs": [
        {
          "internalType": "uint256",
          "name": "qACRedeemed",
          "type": "uint256"
        },
        {
          "internalType": "uint256",
          "name": "qFeeToken",
          "type": "uint256"
        }
      ],
      "stateMutability": "nonpayable",
      "type": "function"
    },
    {
      "inputs": [
        {
          "internalType": "uint256",
          "name": "i_",
          "type": "uint256"
        },
        {
          "internalType": "uint256",
          "name": "qTP_",
          "type": "uint256"
        },
        {
          "internalType": "uint256",
          "name": "qACmin_",
          "type": "uint256"
        }
      ],
      "name": "redeemTP",
      "outputs": [
        {
          "internalType": "uint256",
          "name": "qACRedeemed",
          "type": "uint256"
        },
        {
          "internalType": "uint256",
          "name": "qFeeToken",
          "type": "uint256"
        }
      ],
      "stateMutability": "nonpayable",
      "type": "function"
    },
    {
      "inputs": [
        {
          "internalType": "uint256",
          "name": "i_",
          "type": "uint256"
        },
        {
          "internalType": "uint256",
          "name": "qTP_",
          "type": "uint256"
        },
        {
          "internalType": "uint256",
          "name": "qACmin_",
          "type": "uint256"
        },
        {
          "internalType": "address",
          "name": "vendor_",
          "type": "address"
        }
      ],
      "name": "redeemTPViaVendor",
      "outputs": [
        {
          "internalType": "uint256",
          "name": "qACRedeemed",
          "type": "uint256"
        },
        {
          "internalType": "uint256",
          "name": "qFeeToken",
          "type": "uint256"
        }
      ],
      "stateMutability": "nonpayable",
      "type": "function"
    },
    {
      "inputs": [
        {
          "internalType": "uint256",
          "name": "i_",
          "type": "uint256"
        },
        {
          "internalType": "uint256",
          "name": "qTP_",
          "type": "uint256"
        },
        {
          "internalType": "uint256",
          "name": "qACmin_",
          "type": "uint256"
        },
        {
          "internalType": "address",
          "name": "recipient_",
          "type": "address"
        }
      ],
      "name": "redeemTPto",
      "outputs": [
        {
          "internalType": "uint256",
          "name": "qACRedeemed",
          "type": "uint256"
        },
        {
          "internalType": "uint256",
          "name": "qFeeToken",
          "type": "uint256"
        }
      ],
      "stateMutability": "nonpayable",
      "type": "function"
    },
    {
      "inputs": [
        {
          "internalType": "uint256",
          "name": "i_",
          "type": "uint256"
        },
        {
          "internalType": "uint256",
          "name": "qTP_",
          "type": "uint256"
        },
        {
          "internalType": "uint256",
          "name": "qACmin_",
          "type": "uint256"
        },
        {
          "internalType": "address",
          "name": "recipient_",
          "type": "address"
        },
        {
          "internalType": "address",
          "name": "vendor_",
          "type": "address"
        }
      ],
      "name": "redeemTPtoViaVendor",
      "outputs": [
        {
          "internalType": "uint256",
          "name": "qACRedeemed",
          "type": "uint256"
        },
        {
          "internalType": "uint256",
          "name": "qFeeToken",
          "type": "uint256"
        }
      ],
      "stateMutability": "nonpayable",
      "type": "function"
    },
    {
      "inputs": [
        {
          "internalType": "uint256",
          "name": "appreciationFactor_",
          "type": "uint256"
        }
      ],
      "name": "setAppreciationFactor",
      "outputs": [],
      "stateMutability": "nonpayable",
      "type": "function"
    },
    {
      "inputs": [
        {
          "internalType": "uint256",
          "name": "bes_",
          "type": "uint256"
        }
      ],
      "name": "setBes",
      "outputs": [],
      "stateMutability": "nonpayable",
      "type": "function"
    },
    {
      "inputs": [
        {
          "internalType": "uint256",
          "name": "blockSpan_",
          "type": "uint256"
        }
      ],
      "name": "setEmaCalculationBlockSpan",
      "outputs": [],
      "stateMutability": "nonpayable",
      "type": "function"
    },
    {
      "inputs": [
        {
          "internalType": "uint256",
          "name": "feeRetainer_",
          "type": "uint256"
        }
      ],
      "name": "setFeeRetainer",
      "outputs": [],
      "stateMutability": "nonpayable",
      "type": "function"
    },
    {
      "inputs": [
        {
          "internalType": "address",
          "name": "mocFeeTokenAddress_",
          "type": "address"
        }
      ],
      "name": "setFeeTokenAddress",
      "outputs": [],
      "stateMutability": "nonpayable",
      "type": "function"
    },
    {
      "inputs": [
        {
          "internalType": "uint256",
          "name": "feeTokenPct_",
          "type": "uint256"
        }
      ],
      "name": "setFeeTokenPct",
      "outputs": [],
      "stateMutability": "nonpayable",
      "type": "function"
    },
    {
      "inputs": [
        {
          "internalType": "address",
          "name": "mocFeeTokenPriceProviderAddress_",
          "type": "address"
        }
      ],
      "name": "setFeeTokenPriceProviderAddress",
      "outputs": [],
      "stateMutability": "nonpayable",
      "type": "function"
    },
    {
      "inputs": [
        {
          "internalType": "bool",
          "name": "liqEnabled_",
          "type": "bool"
        }
      ],
      "name": "setLiqEnabled",
      "outputs": [],
      "stateMutability": "nonpayable",
      "type": "function"
    },
    {
      "inputs": [
        {
          "internalType": "uint256",
          "name": "liqThrld_",
          "type": "uint256"
        }
      ],
      "name": "setLiqThrld",
      "outputs": [],
      "stateMutability": "nonpayable",
      "type": "function"
    },
    {
      "inputs": [
        {
          "internalType": "uint256",
          "name": "mintTCandTPFee_",
          "type": "uint256"
        }
      ],
      "name": "setMintTCandTPFee",
      "outputs": [],
      "stateMutability": "nonpayable",
      "type": "function"
    },
    {
      "inputs": [
        {
          "internalType": "address",
          "name": "mocAppreciationBeneficiaryAddress_",
          "type": "address"
        }
      ],
      "name": "setMocAppreciationBeneficiaryAddress",
      "outputs": [],
      "stateMutability": "nonpayable",
      "type": "function"
    },
    {
      "inputs": [
        {
          "internalType": "address",
          "name": "mocCoreExpansion_",
          "type": "address"
        }
      ],
      "name": "setMocCoreExpansion",
      "outputs": [],
      "stateMutability": "nonpayable",
      "type": "function"
    },
    {
      "inputs": [
        {
          "internalType": "address",
          "name": "mocFeeFlowAddress_",
          "type": "address"
        }
      ],
      "name": "setMocFeeFlowAddress",
      "outputs": [],
      "stateMutability": "nonpayable",
      "type": "function"
    },
    {
      "inputs": [
        {
          "internalType": "address",
          "name": "newPauser_",
          "type": "address"
        }
      ],
      "name": "setPauser",
      "outputs": [],
      "stateMutability": "nonpayable",
      "type": "function"
    },
    {
      "inputs": [
        {
          "internalType": "uint256",
          "name": "protThrld_",
          "type": "uint256"
        }
      ],
      "name": "setProtThrld",
      "outputs": [],
      "stateMutability": "nonpayable",
      "type": "function"
    },
    {
      "inputs": [
        {
          "internalType": "uint256",
          "name": "redeemTCandTPFee_",
          "type": "uint256"
        }
      ],
      "name": "setRedeemTCandTPFee",
      "outputs": [],
      "stateMutability": "nonpayable",
      "type": "function"
    },
    {
      "inputs": [
        {
          "internalType": "uint256",
          "name": "successFee_",
          "type": "uint256"
        }
      ],
      "name": "setSuccessFee",
      "outputs": [],
      "stateMutability": "nonpayable",
      "type": "function"
    },
    {
      "inputs": [
        {
          "internalType": "uint256",
          "name": "swapTCforTPFee_",
          "type": "uint256"
        }
      ],
      "name": "setSwapTCforTPFee",
      "outputs": [],
      "stateMutability": "nonpayable",
      "type": "function"
    },
    {
      "inputs": [
        {
          "internalType": "uint256",
          "name": "swapTPforTCFee_",
          "type": "uint256"
        }
      ],
      "name": "setSwapTPforTCFee",
      "outputs": [],
      "stateMutability": "nonpayable",
      "type": "function"
    },
    {
      "inputs": [
        {
          "internalType": "uint256",
          "name": "swapTPforTPFee_",
          "type": "uint256"
        }
      ],
      "name": "setSwapTPforTPFee",
      "outputs": [],
      "stateMutability": "nonpayable",
      "type": "function"
    },
    {
      "inputs": [
        {
          "internalType": "uint256",
          "name": "tcMintFee_",
          "type": "uint256"
        }
      ],
      "name": "setTcMintFee",
      "outputs": [],
      "stateMutability": "nonpayable",
      "type": "function"
    },
    {
      "inputs": [
        {
          "internalType": "uint256",
          "name": "tcRedeemFee_",
          "type": "uint256"
        }
      ],
      "name": "setTcRedeemFee",
      "outputs": [],
      "stateMutability": "nonpayable",
      "type": "function"
    },
    {
      "inputs": [],
      "name": "shouldCalculateEma",
      "outputs": [
        {
          "internalType": "bool",
          "name": "",
          "type": "bool"
        }
      ],
      "stateMutability": "view",
      "type": "function"
    },
    {
      "inputs": [],
      "name": "stoppable",
      "outputs": [
        {
          "internalType": "bool",
          "name": "",
          "type": "bool"
        }
      ],
      "stateMutability": "view",
      "type": "function"
    },
    {
      "inputs": [],
      "name": "successFee",
      "outputs": [
        {
          "internalType": "uint256",
          "name": "",
          "type": "uint256"
        }
      ],
      "stateMutability": "view",
      "type": "function"
    },
    {
      "inputs": [
        {
          "internalType": "uint256",
          "name": "i_",
          "type": "uint256"
        },
        {
          "internalType": "uint256",
          "name": "qTC_",
          "type": "uint256"
        },
        {
          "internalType": "uint256",
          "name": "qTPmin_",
          "type": "uint256"
        }
      ],
      "name": "swapTCforTP",
      "outputs": [
        {
          "internalType": "uint256",
          "name": "qACFee",
          "type": "uint256"
        },
        {
          "internalType": "uint256",
          "name": "qTPMinted",
          "type": "uint256"
        },
        {
          "internalType": "uint256",
          "name": "qFeeToken",
          "type": "uint256"
        }
      ],
      "stateMutability": "payable",
      "type": "function"
    },
    {
      "inputs": [],
      "name": "swapTCforTPFee",
      "outputs": [
        {
          "internalType": "uint256",
          "name": "",
          "type": "uint256"
        }
      ],
      "stateMutability": "view",
      "type": "function"
    },
    {
      "inputs": [
        {
          "internalType": "uint256",
          "name": "i_",
          "type": "uint256"
        },
        {
          "internalType": "uint256",
          "name": "qTC_",
          "type": "uint256"
        },
        {
          "internalType": "uint256",
          "name": "qTPmin_",
          "type": "uint256"
        },
        {
          "internalType": "address",
          "name": "vendor_",
          "type": "address"
        }
      ],
      "name": "swapTCforTPViaVendor",
      "outputs": [
        {
          "internalType": "uint256",
          "name": "qACFee",
          "type": "uint256"
        },
        {
          "internalType": "uint256",
          "name": "qTPMinted",
          "type": "uint256"
        },
        {
          "internalType": "uint256",
          "name": "qFeeToken",
          "type": "uint256"
        }
      ],
      "stateMutability": "payable",
      "type": "function"
    },
    {
      "inputs": [
        {
          "internalType": "uint256",
          "name": "i_",
          "type": "uint256"
        },
        {
          "internalType": "uint256",
          "name": "qTC_",
          "type": "uint256"
        },
        {
          "internalType": "uint256",
          "name": "qTPmin_",
          "type": "uint256"
        },
        {
          "internalType": "address",
          "name": "recipient_",
          "type": "address"
        }
      ],
      "name": "swapTCforTPto",
      "outputs": [
        {
          "internalType": "uint256",
          "name": "qACFee",
          "type": "uint256"
        },
        {
          "internalType": "uint256",
          "name": "qTPMinted",
          "type": "uint256"
        },
        {
          "internalType": "uint256",
          "name": "qFeeToken",
          "type": "uint256"
        }
      ],
      "stateMutability": "payable",
      "type": "function"
    },
    {
      "inputs": [
        {
          "internalType": "uint256",
          "name": "i_",
          "type": "uint256"
        },
        {
          "internalType": "uint256",
          "name": "qTC_",
          "type": "uint256"
        },
        {
          "internalType": "uint256",
          "name": "qTPmin_",
          "type": "uint256"
        },
        {
          "internalType": "address",
          "name": "recipient_",
          "type": "address"
        },
        {
          "internalType": "address",
          "name": "vendor_",
          "type": "address"
        }
      ],
      "name": "swapTCforTPtoViaVendor",
      "outputs": [
        {
          "internalType": "uint256",
          "name": "qACFee",
          "type": "uint256"
        },
        {
          "internalType": "uint256",
          "name": "qTPMinted",
          "type": "uint256"
        },
        {
          "internalType": "uint256",
          "name": "qFeeToken",
          "type": "uint256"
        }
      ],
      "stateMutability": "payable",
      "type": "function"
    },
    {
      "inputs": [
        {
          "internalType": "uint256",
          "name": "i_",
          "type": "uint256"
        },
        {
          "internalType": "uint256",
          "name": "qTP_",
          "type": "uint256"
        },
        {
          "internalType": "uint256",
          "name": "qTCmin_",
          "type": "uint256"
        }
      ],
      "name": "swapTPforTC",
      "outputs": [
        {
          "internalType": "uint256",
          "name": "qACFee",
          "type": "uint256"
        },
        {
          "internalType": "uint256",
          "name": "qTCMinted",
          "type": "uint256"
        },
        {
          "internalType": "uint256",
          "name": "qFeeToken",
          "type": "uint256"
        }
      ],
      "stateMutability": "payable",
      "type": "function"
    },
    {
      "inputs": [],
      "name": "swapTPforTCFee",
      "outputs": [
        {
          "internalType": "uint256",
          "name": "",
          "type": "uint256"
        }
      ],
      "stateMutability": "view",
      "type": "function"
    },
    {
      "inputs": [
        {
          "internalType": "uint256",
          "name": "i_",
          "type": "uint256"
        },
        {
          "internalType": "uint256",
          "name": "qTP_",
          "type": "uint256"
        },
        {
          "internalType": "uint256",
          "name": "qTCmin_",
          "type": "uint256"
        },
        {
          "internalType": "address",
          "name": "vendor_",
          "type": "address"
        }
      ],
      "name": "swapTPforTCViaVendor",
      "outputs": [
        {
          "internalType": "uint256",
          "name": "qACFee",
          "type": "uint256"
        },
        {
          "internalType": "uint256",
          "name": "qTCMinted",
          "type": "uint256"
        },
        {
          "internalType": "uint256",
          "name": "qFeeToken",
          "type": "uint256"
        }
      ],
      "stateMutability": "payable",
      "type": "function"
    },
    {
      "inputs": [
        {
          "internalType": "uint256",
          "name": "i_",
          "type": "uint256"
        },
        {
          "internalType": "uint256",
          "name": "qTP_",
          "type": "uint256"
        },
        {
          "internalType": "uint256",
          "name": "qTCmin_",
          "type": "uint256"
        },
        {
          "internalType": "address",
          "name": "recipient_",
          "type": "address"
        }
      ],
      "name": "swapTPforTCto",
      "outputs": [
        {
          "internalType": "uint256",
          "name": "qACFee",
          "type": "uint256"
        },
        {
          "internalType": "uint256",
          "name": "qTCMinted",
          "type": "uint256"
        },
        {
          "internalType": "uint256",
          "name": "qFeeToken",
          "type": "uint256"
        }
      ],
      "stateMutability": "payable",
      "type": "function"
    },
    {
      "inputs": [
        {
          "internalType": "uint256",
          "name": "i_",
          "type": "uint256"
        },
        {
          "internalType": "uint256",
          "name": "qTP_",
          "type": "uint256"
        },
        {
          "internalType": "uint256",
          "name": "qTCmin_",
          "type": "uint256"
        },
        {
          "internalType": "address",
          "name": "recipient_",
          "type": "address"
        },
        {
          "internalType": "address",
          "name": "vendor_",
          "type": "address"
        }
      ],
      "name": "swapTPforTCtoViaVendor",
      "outputs": [
        {
          "internalType": "uint256",
          "name": "qACFee",
          "type": "uint256"
        },
        {
          "internalType": "uint256",
          "name": "qTCMinted",
          "type": "uint256"
        },
        {
          "internalType": "uint256",
          "name": "qFeeToken",
          "type": "uint256"
        }
      ],
      "stateMutability": "payable",
      "type": "function"
    },
    {
      "inputs": [
        {
          "internalType": "uint256",
          "name": "iFrom_",
          "type": "uint256"
        },
        {
          "internalType": "uint256",
          "name": "iTo_",
          "type": "uint256"
        },
        {
          "internalType": "uint256",
          "name": "qTP_",
          "type": "uint256"
        },
        {
          "internalType": "uint256",
          "name": "qTPmin_",
          "type": "uint256"
        }
      ],
      "name": "swapTPforTP",
      "outputs": [
        {
          "internalType": "uint256",
          "name": "qACFee",
          "type": "uint256"
        },
        {
          "internalType": "uint256",
          "name": "qTPMinted",
          "type": "uint256"
        },
        {
          "internalType": "uint256",
          "name": "qFeeToken",
          "type": "uint256"
        }
      ],
      "stateMutability": "payable",
      "type": "function"
    },
    {
      "inputs": [],
      "name": "swapTPforTPFee",
      "outputs": [
        {
          "internalType": "uint256",
          "name": "",
          "type": "uint256"
        }
      ],
      "stateMutability": "view",
      "type": "function"
    },
    {
      "inputs": [
        {
          "internalType": "uint256",
          "name": "iFrom_",
          "type": "uint256"
        },
        {
          "internalType": "uint256",
          "name": "iTo_",
          "type": "uint256"
        },
        {
          "internalType": "uint256",
          "name": "qTP_",
          "type": "uint256"
        },
        {
          "internalType": "uint256",
          "name": "qTPmin_",
          "type": "uint256"
        },
        {
          "internalType": "address",
          "name": "vendor_",
          "type": "address"
        }
      ],
      "name": "swapTPforTPViaVendor",
      "outputs": [
        {
          "internalType": "uint256",
          "name": "qACFee",
          "type": "uint256"
        },
        {
          "internalType": "uint256",
          "name": "qTPMinted",
          "type": "uint256"
        },
        {
          "internalType": "uint256",
          "name": "qFeeToken",
          "type": "uint256"
        }
      ],
      "stateMutability": "payable",
      "type": "function"
    },
    {
      "inputs": [
        {
          "internalType": "uint256",
          "name": "iFrom_",
          "type": "uint256"
        },
        {
          "internalType": "uint256",
          "name": "iTo_",
          "type": "uint256"
        },
        {
          "internalType": "uint256",
          "name": "qTP_",
          "type": "uint256"
        },
        {
          "internalType": "uint256",
          "name": "qTPmin_",
          "type": "uint256"
        },
        {
          "internalType": "address",
          "name": "recipient_",
          "type": "address"
        }
      ],
      "name": "swapTPforTPto",
      "outputs": [
        {
          "internalType": "uint256",
          "name": "qACFee",
          "type": "uint256"
        },
        {
          "internalType": "uint256",
          "name": "qTPMinted",
          "type": "uint256"
        },
        {
          "internalType": "uint256",
          "name": "qFeeToken",
          "type": "uint256"
        }
      ],
      "stateMutability": "payable",
      "type": "function"
    },
    {
      "inputs": [
        {
          "internalType": "uint256",
          "name": "iFrom_",
          "type": "uint256"
        },
        {
          "internalType": "uint256",
          "name": "iTo_",
          "type": "uint256"
        },
        {
          "internalType": "uint256",
          "name": "qTP_",
          "type": "uint256"
        },
        {
          "internalType": "uint256",
          "name": "qTPmin_",
          "type": "uint256"
        },
        {
          "internalType": "address",
          "name": "recipient_",
          "type": "address"
        },
        {
          "internalType": "address",
          "name": "vendor_",
          "type": "address"
        }
      ],
      "name": "swapTPforTPtoViaVendor",
      "outputs": [
        {
          "internalType": "uint256",
          "name": "qACFee",
          "type": "uint256"
        },
        {
          "internalType": "uint256",
          "name": "qTPMinted",
          "type": "uint256"
        },
        {
          "internalType": "uint256",
          "name": "qFeeToken",
          "type": "uint256"
        }
      ],
      "stateMutability": "payable",
      "type": "function"
    },
    {
      "inputs": [],
      "name": "tcMintFee",
      "outputs": [
        {
          "internalType": "uint256",
          "name": "",
          "type": "uint256"
        }
      ],
      "stateMutability": "view",
      "type": "function"
    },
    {
      "inputs": [],
      "name": "tcRedeemFee",
      "outputs": [
        {
          "internalType": "uint256",
          "name": "",
          "type": "uint256"
        }
      ],
      "stateMutability": "view",
      "type": "function"
    },
    {
      "inputs": [],
      "name": "tcToken",
      "outputs": [
        {
          "internalType": "contract MocTC",
          "name": "",
          "type": "address"
        }
      ],
      "stateMutability": "view",
      "type": "function"
    },
    {
      "inputs": [
        {
          "internalType": "uint256",
          "name": "",
          "type": "uint256"
        }
      ],
      "name": "tpCtarg",
      "outputs": [
        {
          "internalType": "uint256",
          "name": "",
          "type": "uint256"
        }
      ],
      "stateMutability": "view",
      "type": "function"
    },
    {
      "inputs": [
        {
          "internalType": "uint256",
          "name": "",
          "type": "uint256"
        }
      ],
      "name": "tpEma",
      "outputs": [
        {
          "internalType": "uint256",
          "name": "ema",
          "type": "uint256"
        },
        {
          "internalType": "uint256",
          "name": "sf",
          "type": "uint256"
        }
      ],
      "stateMutability": "view",
      "type": "function"
    },
    {
      "inputs": [
        {
          "internalType": "uint256",
          "name": "",
          "type": "uint256"
        }
      ],
      "name": "tpMintFee",
      "outputs": [
        {
          "internalType": "uint256",
          "name": "",
          "type": "uint256"
        }
      ],
      "stateMutability": "view",
      "type": "function"
    },
    {
      "inputs": [
        {
          "internalType": "uint256",
          "name": "",
          "type": "uint256"
        }
      ],
      "name": "tpRedeemFee",
      "outputs": [
        {
          "internalType": "uint256",
          "name": "",
          "type": "uint256"
        }
      ],
      "stateMutability": "view",
      "type": "function"
    },
    {
      "inputs": [
        {
          "internalType": "uint256",
          "name": "",
          "type": "uint256"
        }
      ],
      "name": "tpTokens",
      "outputs": [
        {
          "internalType": "contract IMocRC20",
          "name": "",
          "type": "address"
        }
      ],
      "stateMutability": "view",
      "type": "function"
    },
    {
      "inputs": [],
      "name": "unpause",
      "outputs": [],
      "stateMutability": "nonpayable",
      "type": "function"
    },
    {
      "inputs": [],
      "name": "updateEmas",
      "outputs": [],
      "stateMutability": "nonpayable",
      "type": "function"
    },
    {
      "inputs": [
        {
          "internalType": "address",
          "name": "newImplementation",
          "type": "address"
        }
      ],
      "name": "upgradeTo",
      "outputs": [],
      "stateMutability": "nonpayable",
      "type": "function"
    },
    {
      "inputs": [
        {
          "internalType": "address",
          "name": "newImplementation",
          "type": "address"
        },
        {
          "internalType": "bytes",
          "name": "data",
          "type": "bytes"
        }
      ],
      "name": "upgradeToAndCall",
      "outputs": [],
      "stateMutability": "payable",
      "type": "function"
    },
    {
      "stateMutability": "payable",
      "type": "receive"
    }
  ],
  "bytecode": "0x60a08060405234620000e157306080526000549060ff8260081c166200008f575060ff8082161062000053575b604051615c2b9081620000e782396080518181816131720152818161331401526136270152f35b60ff90811916176000557f7f26b83ff96e1f2b6a682f133852f6798a09c465da95921460cefb3847402498602060405160ff8152a1386200002c565b62461bcd60e51b815260206004820152602760248201527f496e697469616c697a61626c653a20636f6e747261637420697320696e697469604482015266616c697a696e6760c81b6064820152608490fd5b600080fdfe6080604052600436101561002b575b361561001957600080fd5b610163610027348254614901565b9055005b600060e08135811c90816301dde6ef1461426657816301f1b6841461421e57816304856e41146141bd578163071648791461415e5781630ad8c234146140f45781630aed4f88146140935781630be9482d146140265781630c340a2414613ffd5781630c36d89714613fde5781630d6ac46314613f965781630df12a8b14613e8f5781630e0a8fd214613e695781630f1e5e2b14613e215781630f60f39614613d48578163102fefac14613cde57816317574bc514613b4057816317df0ab814613a775781631867e2f514613a585781631f79da55146139ee5781631fb0dda0146139cd5781631fe6a7ad146139915781632069f7531461396b57816323b98cde1461394457816327eab2a1146138fc5781632a20d57d146138dd5781632c43bd3b146138b75781632d88af4a1461385e5781632ded50f01461383f57816331f64ec2146137a2578163333431fd1461378357816333421c381461368e5781633659cfe6146135f55781633bc4ac0a146135cf5781633dbc50a91461357b5781633f4ba83a146134fe5781634017936a146134b9578163407f0e341461349a578163471a80e3146134355781634b746001146133e85781634d977e78146133c95781634e1f907a1461339f5781634f0f27ee146133805781634f1ef2861461328c5781635210570c146132645781635241271c1461323557816352d1902d1461315f578163543aeb481461313957816354a73c62146130d757816357271f4d146130a95781635c616a7314612dff5781635c975abb14612dd95781635d65d04514612da55781635e1e892814612d415781635e2a606514612d2557816360009e0b14612cfb578163647846a514612cd1578163662013f414612cad5781636827435714612c825781636b5488df14612c635781637071346814612c3d57816371820f1214612bd65781637554fffd14612bb75781637750ba0c14612b9157816379f9a91c14612b725781637a193c3114612b535781637a4ff1d914612b2d5781637a727fe814612b0e5781637ad2819c14612a9d5781637af5758c14612a775781637c28799914612a0d5781637cba2383146129e75781637d8e0314146129b85781637dc4e77f146128755781637f01c7151461284b578163826fcd581461282a57816382a5792c146127505781638456cb59146126b75781638cfa4241146126985781638d7a72f314612679578163904aa85b1461265a5781639195c85b1461263957816391f388d8146125cd578163979d9a881461215f5781639839ee8514611f725781639853c35a14611f485781639abb14c914611e7e5781639ad6659d14611e495781639bdd7cce14611c145781639cabfc0014611bc75781639fd0506d14611b9a578163a8e9ac3014611b78578163ac4fc1a814611a48578163aea038dc14611a29578163b3903b39146119f2578163b7aef83714611894578163bad25a211461171c578163bb4872de146116f9578163be22b4e1146115f0578163becaca6b146115ca578163c00f538d146115a4578163c039cc691461155e578163c6e06d8914611375578163c84353c91461134f578163cf351c1d14611307578163d1a0faa0146112e9578163d8233ecc14611289578163db7960721461124a578163de08160f1461120d578163de8d520a146111dc578163e40129451461104c578163e4c0aaf414611005578163e6a683e014610fbd578163e6b1627c14610f7a578163e7c2597814610f56578163e8859a1514610f3b578163ec62967914610d0e578163f13f405414610ce4578163f26114aa14610c7b578163f280877814610c55578163f30b561414610c36578163f375cfba14610c17578163f5319cc81461098d57508063fa6e83bd1461096e578063fa79589e1461091c578063fb3bfcea146107a5578063fcf207d4146105d05763fda70f8b146105af575061000e565b346105cd57806003193601126105cd57602061016e54604051908152f35b80fd5b6106cc6105de3660046143a8565b9391604093919351916105f260c0846143ea565b825260208201908152604082019434865260608301338152608084019560018060a01b0380911687528060a086019316835261062c614df9565b610634615bc4565b61063c615aa2565b61069161067961064a6159e6565b919061066d61065a8a5185614924565b5193610667858c5161528d565b82614ecf565b91848b518b51906152e4565b61068c670de0b6b3a76400008751614a4b565b614a5e565b9361069a614daa565b506106c18284511686848751166106b48a5161017661428c565b90549060031b1c92614f4d565b969182999199614901565b988a51808b11610787575089156107755760409a610756859461075c948d94878d8d6107699f838e9151915116907fb1c19484081f58b25de95eb3695caea3c2167249920a6439ec0253054d343e738b86885116946107478b5191805190602081015160406060908301519201519260405196879687614dd1565b0390a4519351915116926151f4565b51614b09565b9251169251169180615527565b82519182526020820152f35b60405163f3e39b5d60e01b8152600490fd5b6044908b60405191630b63f1a760e01b835260048301526024820152fd5b5060603660031901126105cd576001600160a01b03602435818116908190036109175760443582811680910361091757610877906040516107e760a0826143ea565b60043581526020810191348352604082013381526060830195865260808301918252610811614df9565b610819615bc4565b670de0b6b3a764000061084b61084561083c610833614d10565b61017b54614ecf565b87519291614f12565b90614a4b565b0496610855614daa565b5061086c81835116898386511661016e5492614f4d565b95918a989198614901565b978651808a116108f95750881561077557886107699761075661075c9360409d8780978c828c51167f73ef11a21cabab55ca448e6e2ae4b60bda75ed8109e2496084c92dc17b8334db8985885116936108ec865191805190602081015160406060908301519201519260405196879687614dd1565b0390a35192511691614e1b565b6044908a60405191630b63f1a760e01b835260048301526024820152fd5b600080fd5b50346105cd5760203660031901126105cd5760206109666109586004356109416159e6565b9061096061094f8484614924565b51948593614938565b95909461593e565b9061531f565b604051908152f35b50346105cd57806003193601126105cd57602061016c54604051908152f35b905061099a3660046142ce565b936109ab60409492945196876143ea565b8552602085015260408401523460608401523360808401526001600160a01b0390811660a08401521660c08201526109e1614df9565b6109e9615bc4565b6109f1615aa2565b6109f96159e6565b9290610a4b610a1f610a0c855187614924565b5195610a1987875161528d565b83614ecf565b90610a3082828660208a0151615863565b6020860151670de0b6b3a76400009384916108458585614f12565b0493841561077557610a9593610a8b610a818a610a7c60208c015161084588610a778b61016354614b09565b614b09565b614a4b565b6101665490614a5e565b04978888516152e4565b6040830151808510610bf95750610ad190610aae614daa565b50608084015160c08501516101725492916001600160a01b039182169116614f4d565b919390926060820151808611610bda57509181610b8d610bd69594610bb9945160018060a01b0360808501511660018060a01b0360a086015116917ff4287b96e269f789f166db491b07456566f468352771e466ce088e98d6007a0c8c6020880151610b558a518b6020810151606060408301519201519260405196879687614dd1565b0390a4610b7460208401518260018060a01b03608087015116916154bc565b825160a08401516001600160a01b031691908a906151f4565b610b9b866060830151614b09565b608082015160c0909201516001600160a01b03908116921680615527565b604051938493846040919493926060820195825260208201520152565b0390f35b604490845160405191630b63f1a760e01b835260048301526024820152fd5b604490856040519163272e3f5960e21b835260048301526024820152fd5b82346105cd57806003193601126105cd57602061017354604051908152f35b82346105cd57806003193601126105cd57602061016354604051908152f35b82346105cd5760203660031901126105cd57610c6f615b36565b60043561016e55604051f35b905034610ce0573660031901126105cd57610c94615b36565b6040516379308a5560e11b6020820152610cda90610cc881610cba6004602483016158a0565b03601f1981018352826143ea565b61021d546001600160a01b0316615395565b50604051f35b5080fd5b82346105cd57806003193601126105cd57610162546040516001600160a01b039091168152602090f35b82610d1a3660046143a8565b90929160405192610d2c60c0856143ea565b83526020830190815260408301923484526060810192338452608082019360018060a01b0380971685528660a0840192168252610d67614df9565b610d6f615bc4565b610d77615aa2565b610d7f6159e6565b979098610d8d85518a614924565b5199610d9a8b875161528d565b610da78a61017c54614ecf565b5050610dbd610db788519b614938565b90614f12565b90670de0b6b3a763ffff198101908111610f275790610e0f8c61068c610df18e9f610e409d9e9f610e159761068c91614a4b565b93610e09670de0b6b3a76400009161068c8388614a4b565b9f614a4b565b90614901565b97610e1e614daa565b50610e35838551168a858851166101745492614f4d565b97918b9a919a614901565b9a8051808d11610f0957508b15610775576107568986958f958f95610bd69f90610efd610bb99f998f9361075c9b8f87908f977f3d9b2786930e9c1e492d52af3cc38bd2ffe9405d82b4997053a26a8956056200908f610ef088918c808d51975116975116975193805160208201519060606040840151930151936040519788978893909796959260c0959260e08601998652602086015260408501526060840152608083015260a08201520152565b0390a48486511691614e1b565b519351915116926151f4565b6044908d60405191630b63f1a760e01b835260048301526024820152fd5b634e487b7160e01b83526011600452602483fd5b82346105cd57806003193601126105cd576020610966615901565b82346105cd57806003193601126105cd57602060ff61017d54166040519015158152f35b82346105cd5760203660031901126105cd57600435906101b49081548310156105cd576040610fa984846143ce565b506001815491015482519182526020820152f35b82346105cd5760203660031901126105cd576004356001600160a01b0381169081900361091757610fec615b36565b61021d80546001600160a01b0319169091179055604051f35b82346105cd5760203660031901126105cd576004356001600160a01b03811690819003610ce057611034615b36565b6001600160601b0360a01b6097541617609755604051f35b82346105cd576060366003190112610917576044356001600160a01b038181169291839003610917576040519261108460a0856143ea565b600435845260208401926024358452604085019233845260608601928352608086019182526110b1614df9565b6110b9615bc4565b6110c1615aa2565b670de0b6b3a76400006110fb6110e7610845896110f36110df6159e6565b819591614ecf565b92908095849251615863565b8a5192614f12565b04938415610775576111319461110f614daa565b5061112683835116828587511661016f5492614f4d565b999183989198614b09565b97518089106111be5750928080846111b08c98958a9860409e6107699c8f9a8b88807f96956e9e47738119037532fcf68a81b25d418eaf754281e005f11fa2d33bfffb935116935116936111a1865191805190602081015160406060908301519201519260405196879687614dd1565b0390a3519084845116916154bc565b511694511691511692615527565b60449089604051916354cde31360e01b835260048301526024820152fd5b82346105cd57806003193601126105cd5760206109666112026111fd614d10565b614938565b905061016354614b09565b82346105cd5760203660031901126105cd57600435906101769081548310156105cd57602061123c848461428c565b90546040519160031b1c8152f35b905034610ce0573660031901126105cd57611263615b36565b604051636dbcb03960e11b6020820152610cda90610cc881610cba6004602483016158a0565b8260403660031901126105cd576001600160a01b0360243581811690819003610917576108776040516112bd60a0826143ea565b600435815260208101903482526040810193338552606082019433865260808301918252610811614df9565b82346105cd57806003193601126105cd57611302615aa2565b604051f35b82346105cd5760203660031901126105cd576004356001600160a01b0381169081900361091757611336615b36565b61016180546001600160a01b0319169091179055604051f35b82346105cd5760203660031901126105cd57611369615b36565b60043561017e55604051f35b9050611382366004614303565b91939261139560409692965194856143ea565b835260208301938452604083019485526060830191348352608084019033825260a085019333855260c086019360018060a01b0380931685526113d6614df9565b6113de615bc4565b8761144b610a7c61068c836114458c61140f6113f8614d10565b610833611406845183614924565b5180945161528d565b9590610a7761143b61142f8561068c670de0b6b3a7640000809a51614a4b565b9a516101665490614a4b565b9761016354614b09565b92614a4b565b9951808b108015611556575b611538575061147c90611468614daa565b508486511690858851166101715492614f4d565b97919990988451808c11611519575086946107568d86898f9597610bd69f9e9c61075c98610bb99f9d9b8f92858d61151195829f5183855116907fb8b8e75e42a3102026137da20c1d52f5e60a1b25d6e77ad232404575753e3fe08d868c5116946115028b51918051906020810151606060408301519201519260405196879687614dd1565b0390a451935191511692615428565b511691614e1b565b6044908a5160405191630b63f1a760e01b835260048301526024820152fd5b6044908b6040519163f577bef560e01b835260048301526024820152fd5b508a15611457565b82346105cd57806003193601126105cd57602061096661159d61068c670de0b6b3a76400006114456115916111fd614d10565b61016395919554614b09565b9384614b09565b82346105cd5760203660031901126105cd576115be615b36565b60043561016f55604051f35b82346105cd5760203660031901126105cd576115e4615b36565b60043561016b55604051f35b90506115fd366004614303565b9190949261160e60405195866143ea565b8452602084015260408301938452346060840152336080840181905260a08401526001600160a01b031660c0830152611645614df9565b61164d615bc4565b611655615aa2565b61165d6159e6565b936116ae61168261166f865188614924565b519661167c88885161528d565b84614ecf565b9061169382828760208b0151615863565b6020870151670de0b6b3a76400009384916108458585614f12565b04948515610775576116e4936116da610a818b610a7c60208d015161084588610a778b61016354614b09565b04988989516152e4565b51808510610bf95750610ad190610aae614daa565b82346105cd57806003193601126105cd57602060ff60ca54166040519015158152f35b82346105cd576117ee6117303660046142ce565b9060409593929495519561174560c0886143ea565b8652602086019283526040860194855260608601338152608087019360018060a01b0380931685528260a089019416845261177e614df9565b611786615bc4565b6117c1611791614d10565b6117ac61179f8b5183614924565b5191610833838d5161528d565b505061068c670de0b6b3a76400008451614a4b565b6117c9614daa565b506117e38484511682868851166106b48d5161017761428c565b9a9183999199614b09565b9882156107755751808a106118765750938089946111b08c989583958960409f8d6107699e9c517f94623cc0bdff77f15a945c5f7c85f92e30baeee629058db590ceeba3755ad3be8d8a808b511694511694611866895191805190602081015160406060908301519201519260405196879687614dd1565b0390a45191518585511692615428565b6044908a604051916354cde31360e01b835260048301526024820152fd5b90506119786118a4366004614329565b9490919293604051906118b9610100836143ea565b8152602081019485526040810193845260608101928352608081019534875260a082019333855260c08301903382528984019660018060a01b0398898095168952611902614df9565b61190a615bc4565b611912614daa565b5060405195631c280ce160e01b6020880152516024870152516044860152516064850152516084840152875160a48401528185511660c4840152511660e4820152848451166101049081830152815261196d610124826143ea565b8461021d5416615395565b92838051810103948686126119ee576020850151966040860151986080606088015198605f1901126105cd5750918061075c89610bd699989694610bb99896604051986119c660808b6143ea565b60808101518a5260a081015160208b015260c081015160408b01520151606089015251614b09565b8780fd5b8260403660031901126105cd576001600160a01b0390602435828116919082900361091757610877906040516107e760a0826143ea565b82346105cd57806003193601126105cd57602061016f54604051908152f35b8260403660031901126109175760405190611a6460c0836143ea565b60043582526020820190602435825260408301903482526060840192338452608085019433865260a08101838152611a9a614df9565b611aa2615bc4565b611aaa615aa2565b611ab26159e6565b969097611ac0845189614924565b5198611acd8a865161528d565b611ada8961017c54614ecf565b5050611aea610db787519a614938565b90670de0b6b3a763ffff198101908111611b645790610e0f8b61068c611b1e8d9e61068c610e409d9e9f97611b3c98614a4b565b93611b36670de0b6b3a76400009161068c8388614a4b565b9e614a4b565b96611b45614daa565b5060018060a01b0391610e35838551168a858851166101745492614f4d565b634e487b7160e01b88526011600452602488fd5b82346105cd57806003193601126105cd5760206101b554431015604051908152f35b82346105cd57806003193601126105cd5760ca5460405160109190911c6001600160a01b03168152602090f35b82346105cd5760203660031901126105cd576004356001600160a01b0381169081900361091757604082819281526101686020522060ff6001825492015416825191825215156020820152f35b905034610ce05790611cad91611c2b366004614329565b9293611c3d60409793975196876143ea565b855260208501938452604085019586526060850152608084019233845260a085019060018060a01b03809416825260c08601838152611c7a614df9565b611c82615bc4565b611cd787610a7c611cc1611cb6611c97614d10565b611ca2855182614924565b519e8f80965161528d565b61017c54614ecf565b92819e918851614a4b565b670de0b6b3a76400009384916101665490614a5e565b049a51808c11611e2b575091611d118b611d0b611d439b9c9d9e9461068c85611d05611d18998c5199614f12565b94614a4b565b93614a4b565b0490614901565b94611d21614daa565b50611d388189511687838551166101735492614f4d565b969188999199614b09565b996060810151808c10611e0d57508a1561077557896111b08d8594848f99610bd69f9d611e0191610bb99f8f8f90918f92897f754f66f66f0afcd87e3edd11c0796fef32599efe490000fdb0f014e3ad9560fa918f9e8f80611df2925196511696511696885192805160208201519060606040840151930151936040519788978893909796959260c0959260e08601998652602086015260408501526060840152608083015260a08201520152565b0390a4519088885116916154bc565b51918585511692615428565b6044908c604051916354cde31360e01b835260048301526024820152fd5b6044908c60405191637a031da360e11b835260048301526024820152fd5b82346105cd57806003193601126105cd576020611e70611e6a6111fd614d10565b90614adf565b61017c541015604051908152f35b82346105cd5760403660031901126109175760405190611e9f60a0836143ea565b6004358252602082019060243582526040830190338252606084019033825260808501908152611ecd614df9565b611ed5615bc4565b611edd615aa2565b670de0b6b3a7640000611f16611f02610845611f0e611efa6159e6565b819491614ecf565b81819392958d51615863565b895192614f12565b0480156107755761113193611f29614daa565b5060018060a01b039161112683835116828587511661016f5492614f4d565b82346105cd57806003193601126105cd57610178546040516001600160a01b039091168152602090f35b8260603660031901126109175760405191611f8d90836143ea565b600435825260208201602435815260408301916044358352606084013481526080850133815260a086019433865260c0870192848452611fcb614df9565b611fd3615bc4565b611fdb615aa2565b611fe36159e6565b9790928951611ff2908a614924565b5198898b51906120019161528d565b61200b9085614ecf565b8581838c519261201a93615863565b895191670de0b6b3a764000080936120328484614f12565b61203b91614a4b565b04968715610775578c612072948f9e610a818f91610a7c612068935161084589610a778c61016354614b09565b049e8f90516152e4565b51808a106121415750612083614daa565b506120a260018060a01b03938486511690858851166101725492614f4d565b97919990988451808c116115195750869461075685858f8f959a610bd69f9e9c97612137610bb99f9d998f9b8461075c9c819f9e829f87517ff4287b96e269f789f166db491b07456566f468352771e466ce088e98d6007a0c8b86808a51169451169461212a8751918051906020810151606060408301519201519260405196879687614dd1565b0390a451925116916154bc565b51935116926151f4565b6044908a6040519163272e3f5960e21b835260048301526024820152fd5b82346105cd576103003660031901126105cd57805460ff8160081c1615908180926125c0575b80156125a9575b1561254d5760ff19811660011783558161253c575b508154906121b460ff8360081c16614d4a565b6102a4356001600160a01b038116908190036109175761021d80546001600160a01b03191690911790556001600160a01b03610264359081169081900361091757610284356001600160a01b03811681036109175760019161221b60ff8660081c16614d4a565b61222a60ff8660081c16614d4a565b61223960ff8660081c16614d4a565b61224860ff8660081c16614d4a565b6001600160601b0360a01b609754161760975561226a60ff8560081c16614d4a565b60ca5490620100008360b01b039060101b169061ff018360b01b031916171760ca5561229b60ff8360081c16614d4a565b670de0b6b3a764000060a4351061252a576122b760e435615be5565b6122c361010435615be5565b6122cf61012435615be5565b6122db61014435615be5565b6122e761016435615be5565b6122f361018435615be5565b6122ff6101a435615be5565b61230b6101c435615be5565b6123176101e435615be5565b61232f61232a6102243561020435614901565b615be5565b6004356001600160a01b03811681036109175761016180546001600160a01b0319166001600160a01b0392831617905560243590811681036109175761016280546001600160a01b0319166001600160a01b0392831617905560443590811681036109175761016580546001600160a01b0319166001600160a01b0392831617905560643590811681036109175761017880546001600160a01b0319166001600160a01b039283161790556084359081168103610917576101799060018060a01b03166001600160601b0360a01b82541617905560a43561017b5560c43561017c5560e43561016d556101043561016e556101243561016f556101443561017055610164356101715561018435610172556101a435610173556101c435610174556101e435610175556102043561016b556102243561016c5561247a610244358061017e5543614901565b61017f5561017d61ffff1981541690556102c43561249d60ff8460081c16614d4a565b801561252a576101b681905543016101b5556102e4356001600160a01b03811690819003610917576124d460ff8460081c16614d4a565b6101e980546001600160a01b03191690911790556124f25750604051f35b61ff00191681557f7f26b83ff96e1f2b6a682f133852f6798a09c465da95921460cefb3847402498602060405160018152a181610cda565b604051632a9ffab760e21b8152600490fd5b61ffff1916610101178255826121a1565b60405162461bcd60e51b815260206004820152602e60248201527f496e697469616c697a61626c653a20636f6e747261637420697320616c72656160448201526d191e481a5b9a5d1a585b1a5e995960921b6064820152608490fd5b50303b15801561218c5750600160ff82161461218c565b50600160ff821610612185565b826060366003190112610917576001600160a01b03906044358281169190829003610917576040516106cc9161260460c0836143ea565b600435825260208201906024358252604083019534875260608401903382526080850196875260a0850192835261062c614df9565b82346105cd5760203660031901126105cd57602061096633336004356157ab565b82346105cd5760203660031901126105cd576020610966600435614c3a565b82346105cd57806003193601126105cd57602061021c54604051908152f35b82346105cd57806003193601126105cd57602061017c54604051908152f35b82346105cd57806003193601126105cd576126d0615bc4565b60ca54601081901c6001600160a01b0316330361273e5760ff81161561272c576101009061ff0019161760ca557f62e78cea01bee320cd4e420270b5ea74000d11b0c9f74754ebdbfc544b05a2586020604051338152a1604051f35b60405163866099c360e01b8152600490fd5b604051631d77d47760e21b8152600490fd5b826040366003190112610917576040519061276c60c0836143ea565b60043582526106cc6020830192602435845260408101933485526060820193338552608083019433865260a084019182526127a5614df9565b6127ad615bc4565b6127b5615aa2565b6127ff6127ec6127c36159e6565b91906127e06127d3895185614924565b5193610667858b5161528d565b91848a518a51906152e4565b61068c670de0b6b3a76400008651614a4b565b92612808614daa565b5060018060a01b03906106c18284511686848751166106b48a5161017661428c565b82346105cd57806003193601126105cd576020610966611e6a6111fd614d10565b82346105cd57806003193601126105cd576101e9546040516001600160a01b039091168152602090f35b82612881366004614303565b9391926040519561289290876143ea565b8552602085019283526040850152606084013481526080850133815260a0860194600160a01b60019003809116865260c08701928484526128d1614df9565b6128d9615bc4565b6128e1615aa2565b6128e96159e6565b979089516128f7908a614924565b5198898b51906129069161528d565b6129109082614ecf565b8281838c519261291f93615863565b895191670de0b6b3a764000080936129378484614f12565b61294091614a4b565b04938415610775578c61296d948f9e610a818f91610a7c612068935161084589610a778c61016354614b09565b6040890151808b1061299a57506120a290612986614daa565b508486511690858851166101725492614f4d565b6044908b6040519163272e3f5960e21b835260048301526024820152fd5b82346105cd5760203660031901126105cd576004359061017a9081548310156105cd57602061123c848461428c565b82346105cd5760203660031901126105cd57612a01615b36565b60043561017b55604051f35b905034610ce05790611cad91612a24366004614329565b9293612a3660409793975196876143ea565b855260208501938452604085019586526060850152336080850181815260a086019182526001600160a01b0393841660c08701908152909490611c7a614df9565b82346105cd5760203660031901126105cd57612a91615b36565b60043561017255604051f35b9050611978612aad366004614376565b9394906040969293965191612ac4610100846143ea565b8252602082019586526040820196875260608201938452608082019634885260a083019433865260c084019160018060a01b0398898095168452848c870199168952611902614df9565b82346105cd57806003193601126105cd5760206101b654604051908152f35b82346105cd5760203660031901126105cd57612b47615b36565b60043561017355604051f35b82346105cd57806003193601126105cd57602061016654604051908152f35b82346105cd57806003193601126105cd57602061017454604051908152f35b82346105cd5760203660031901126105cd57612bab615b36565b60043561016d55604051f35b82346105cd57806003193601126105cd57602061016b54604051908152f35b826060366003190112610917576001600160a01b03604435818116908190036109175760405190612c0860c0836143ea565b600435825260208201602435815260408301923484526060810192338452608082019333855260a08301918252610d67614df9565b82346105cd5760203660031901126105cd57612c57615b36565b60043561017055604051f35b82346105cd57806003193601126105cd57602061017b54604051908152f35b82346105cd57806003193601126105cd57612c9b615b36565b600160ff1960ca54161760ca55604051f35b82346105cd57806003193601126105cd576020612cc86159e6565b50604051908152f35b82346105cd57806003193601126105cd57610161546040516001600160a01b039091168152602090f35b82346105cd57806003193601126105cd57610165546040516001600160a01b039091168152602090f35b82346105cd57806003193601126105cd57603461021c55604051f35b82346105cd576117ee612d55366004614303565b9092939160405194612d6860c0876143ea565b855260208501908152604085019384523360608601818152608087019182526001600160a01b0393841660a088019081529193919261177e614df9565b82346105cd5760403660031901126105cd576024356001600160a01b038116810361091757610966602091336004356157ab565b82346105cd57806003193601126105cd57602060ff60ca5460081c166040519015158152f35b82346105cd57806003193601126105cd57612e18615bc4565b61017f8054431061309757612e3061017e5443614901565b90557fd3c59bda47e141a8ec5a33d241b7f71b86e30d359f83a9227d912858b60404fc81604051a18061016954612e6681614b2e565b90835b818110612fca57505081612ee2575b604051916040830190835260209060408285015282518091528160608501930191855b828110612ece57867fae5116a8119d08673a0f1dfa7546b95da4bd54bb17feda7c61130ac7859152f687870388a1604051f35b835185529381019392810192600101612e9b565b90612efa670de0b6b3a76400009161016b5490614a4b565b0490610163612f0a838254614b09565b90556101785461012f805490916001600160a01b031690600214612f85576002825583612f3c575b5060019055612e78565b8015612f73578480809286604051915af1612f556147f5565b5015612f615784612f32565b6040516312171d8360e31b8152600490fd5b60405163e6c4247b60e01b8152600490fd5b60405162461bcd60e51b815260206004820152601f60248201527f5265656e7472616e637947756172643a207265656e7472616e742063616c6c006044820152606490fd5b612fd381614c3a565b612fdd818361528d565b8561018091612fec848461428c565b90549060031b1c90828213613008575b50505050600101612e69565b8461304c83600197969a61303561303b61306b9761305297670de0b6b3a764000093849161016c54614a4b565b04614a4b565b04613046858d614924565b52614901565b9861428c565b819391549060031b600019811b9283911b169119161790565b905561308e61307a8286614924565b5187848060a01b03610179541691846151f4565b90858780612ffc565b60405163101b685960e01b8152600490fd5b82346105cd57806003193601126105cd57602061096661021c54670de0b6b3a764000061017b540490614901565b82346105cd576117ee906130ec366004614303565b60405195919491936130ff60c0886143ea565b8652602086019283526040860194855233606087019081526001600160a01b039182166080880190815260a088019384529361177e614df9565b82346105cd5760203660031901126105cd57613153615b36565b60043561017555604051f35b82346105cd57806003193601126105cd577f00000000000000000000000000000000000000000000000000000000000000006001600160a01b031630036131ca5760206040517f360894a13ba1a3210667c828492db98dca3e2076cc3735a920a3ca505d382bbc8152f35b60405162461bcd60e51b815260206004820152603860248201527f555550535570677261646561626c653a206d757374206e6f742062652063616c60448201527f6c6564207468726f7567682064656c656761746563616c6c00000000000000006064820152608490fd5b82346105cd5760203660031901126105cd57600435906101779081548310156105cd57602061123c848461428c565b82346105cd57806003193601126105cd5761327d615b36565b60ff1960ca541660ca55604051f35b8260403660031901126105cd576001600160a01b0360043581811681036109175782916024359167ffffffffffffffff831161337b573660238401121561337b5782600401356132db81614422565b926132e960405194856143ea565b8184523660248387010111613377576113029560208361336a946024600199018389013786010152807f000000000000000000000000000000000000000000000000000000000000000016906133418230141561443e565b7f360894a13ba1a3210667c828492db98dca3e2076cc3735a920a3ca505d382bbc54161461449f565b613372615b36565b614500565b8580fd5b505050fd5b82346105cd57806003193601126105cd57602061016d54604051908152f35b82346105cd57806003193601126105cd57610179546040516001600160a01b039091168152602090f35b82346105cd57806003193601126105cd57602061017e54604051908152f35b82346105cd5760203660031901126105cd57600435906101699081548310156105cd57604061341784846143ce565b50805460019091015482519182526001600160a01b03166020820152f35b82346105cd576060366003190112610917576044356001600160a01b0381811691829003610917576040519161346c60a0846143ea565b60043583526020830191602435835260408401913383526060850191338352608086019182526110b1614df9565b82346105cd57806003193601126105cd57602061017054604051908152f35b82346105cd57806003193601126105cd5760206109666134e86134f86134f26134e06159e6565b939093614938565b8181939295615354565b92614f12565b90614a5e565b82346105cd57806003193601126105cd5760ca5460ff8160081c161561356957601081901c6001600160a01b0316330361273e5761ff00191660ca557f5db9ee0a495bf2e6ff9c91a7834c1ba4fdd244a5e8aa4e537bd38aeae4b073aa6020604051338152a1604051f35b604051637c7fd07960e01b8152600490fd5b82346105cd5761358c3660046143a8565b906040519361359c60a0866143ea565b8452602084019283526040840191338352606085019160018060a01b0380911683528060808701921682526110b1614df9565b82346105cd5760203660031901126105cd576135e9615b36565b6004356101b655604051f35b82346105cd5760203660031901126105cd576004356001600160a01b03808216820361091757611302916136548285937f000000000000000000000000000000000000000000000000000000000000000016906133418230141561443e565b61365c615b36565b61366582614422565b9061367360405192836143ea565b828252601f1961368284614422565b01366020840137614500565b82346105cd57806003193601126105cd576136a7615bc4565b61017d805460ff811680613775575b8061375b575b6136c7575b82604051f35b61ff0019166101001790556040517f8b77276c97a5709f0d6db52329848a254eb760ce8be80d281799f633bdb69e838282a16101655482906001600160a01b0316803b15610ce05782600481848094638456cb5960e01b83525af1801561374e5761373e575b5050613737614b60565b81806136c1565b613747916143ea565b818161372d565b50604051903d90823e3d90fd5b5061376a611e6a6111fd614d10565b61017c5410156136bc565b5060ff8160081c16156136b6565b82346105cd57806003193601126105cd57602061017154604051908152f35b8260203660031901126105cd57604051906137be60a0836143ea565b60043582526108776020830134815260408401933385526060810193338552608082019081526137ec614df9565b6137f4615bc4565b670de0b6b3a764000061381761084561380e610833614d10565b86519291614f12565b0495613821614daa565b5060018060a01b0361086c81835116898386511661016e5492614f4d565b82346105cd57806003193601126105cd57602061017554604051908152f35b82346105cd5760203660031901126105cd576004356001600160a01b0381168103610ce05761388b615b36565b60ca805462010000600160b01b03191660109290921b62010000600160b01b0316919091179055604051f35b82346105cd5760203660031901126105cd576138d1615b36565b60043561017c55604051f35b82346105cd57806003193601126105cd57602061017254604051908152f35b82346105cd5760203660031901126105cd576004356001600160a01b03811690819003610ce05761392b615b36565b61017980546001600160a01b0319169091179055604051f35b82346105cd57806003193601126105cd57602060ff61017d5460081c166040519015158152f35b82346105cd5760203660031901126105cd57613985615b36565b60043561017455604051f35b82346105cd5760203660031901126105cd57600435801515809103610ce0576139b8615b36565b61017d9060ff80198354169116179055604051f35b82346105cd57806003193601126105cd576020610966610db76111fd614d10565b8260603660031901126105cd576001600160a01b0360443581811690819003613a545760405190613a2060c0836143ea565b60043582526020820160243581526040830192348452606081013381526080820193845260a0820190878252610d67614df9565b8280fd5b82346105cd57806003193601126105cd57602061017f54604051908152f35b82346105cd5760603660031901126105cd5760405190613a9860c0836143ea565b60043582526117ee602083016024358152604084019260443584526060850191338352608086019233845260a08701928352613ad2614df9565b613ada615bc4565b613b15613ae5614d10565b613b00613af38a5183614924565b5191610833838c5161528d565b505061068c670de0b6b3a76400008551614a4b565b91613b1e614daa565b5060018060a01b03926117e38484511682868851166106b48d5161017761428c565b905034610ce057611cb691613b56366004614354565b939192613b6960409692965192836143ea565b8152602081019283526040810194855260608101938452608081019233845260a082019033825260c08301848152613b9f614df9565b613ba7615bc4565b613bd2613bb2614d10565b610a7c611cc1613bc3885184614924565b519c8d93611cad858b5161528d565b049a51808c11611e2b575091611d118b611d0b613c339b9c9d9e9461068c85611d05613c00998c5199614f12565b94613c09614daa565b5060018060a01b0390613c28828a511688848651166101735492614f4d565b9791899a919a614b09565b9a51808c10611e0d57508a1561077557896111b08d8594848f99610bd69f9d611e0191610bb99f8f8f90918f92897f754f66f66f0afcd87e3edd11c0796fef32599efe490000fdb0f014e3ad9560fa918f9e8f80611df2925196511696511696885192805160208201519060606040840151930151936040519788978893909796959260c0959260e08601998652602086015260408501526060840152608083015260a08201520152565b905034610ce05790611cad91613cf5366004614376565b91909394613d0960409894985197886143ea565b865260208601948552604086019687526060860152608085019333855260a086019160018060a01b0380951683528460c0880191168152611c7a614df9565b9050613d55366004614354565b60409291925193613d68610100866143ea565b8452602084019182526040840192835260608401908152611978608085019434865260a081019233845260c0820195338752888301958a8752613da9614df9565b613db1615bc4565b613db9614daa565b50604051631c280ce160e01b602082015293516024850152516044840152516064830152516084820152855160a482015282516001600160a01b0390811660c48301529451851660e48201528351851661010480830191909152815261196d610124826143ea565b82346105cd5760203660031901126105cd576004356001600160a01b03811690819003610ce057613e50615b36565b61016280546001600160a01b0319169091179055604051f35b82346105cd5760203660031901126105cd57613e83615b36565b60043561017155604051f35b90506060366003190112610ce057613eaa60405191826143ea565b600435815260208101906024358252604081019260443584526060820190348252608083013381528460a085019333855260c0860193808552613eeb614df9565b613ef3615bc4565b613f38610a7c61068c856114458b613f0c6113f8614d10565b9590610a7761143b613f2c8561068c670de0b6b3a7640000809a51614a4b565b9c516101665490614a4b565b9851808a108015613f8e575b613f705750613f51614daa565b5061147c60018060a01b03938486511690858851166101715492614f4d565b6044908a6040519163f577bef560e01b835260048301526024820152fd5b508915613f44565b82346105cd5760203660031901126105cd576004356001600160a01b03811690819003610ce057613fc5615b36565b61017880546001600160a01b0319169091179055604051f35b82346105cd57806003193601126105cd5760206101b554604051908152f35b82346105cd57806003193601126105cd576097546040516001600160a01b039091168152602090f35b9050611978614036366004614329565b949091936040519061404a610100836143ea565b8152602081019384526040810194855260608101928352608081019534875260a082019333855260c083019060018060a01b03978880941683528a8501978c8952611902614df9565b90506140a0366004614303565b9193926140b360409692965194856143ea565b835260208301938452604083019485526060830191348352608084019033825260a085019360018060a01b03809216855260c08601938085526113d6614df9565b8260603660031901126105cd576001600160a01b0360443581811692908390036105cd57506106cc60405161412a60c0826143ea565b6004358152602081016024358152604082019434865260608301338152608084019533875260a0850192835261062c614df9565b82346105cd57806003193601126105cd57604051630716487960e01b60208201526004815261419290610cc86024826143ea565b906020828051810103126105cd57602061096681840151670de0b6b3a764000061017b540490614901565b826141c93660046142ce565b9195936141dc60409694965195866143ea565b845260208401948552604084019586526060840190348252608085019133835260a086019460018060a01b0380931686528260c08801951685526113d6614df9565b82346105cd5760203660031901126105cd57600435906101679081548310156105cd57602061424d848461428c565b905460405160039290921b1c6001600160a01b03168152f35b82346105cd5760203660031901126105cd57614280615b36565b60043561016c55604051f35b80548210156142a45760005260206000200190600090565b634e487b7160e01b600052603260045260246000fd5b35906001600160a01b038216820361091757565b908160a09103126109175780359160208201359160408101359161430060806142f9606085016142ba565b93016142ba565b90565b9190826080910312610917578135916020810135916143006060604084013593016142ba565b908160a0910312610917578035916020820135916040810135916143006080606084013593016142ba565b9190826080910312610917578135916020810135916060604083013592013590565b91908260c09103126109175781359160208101359160408201359160608101359161430060a06142f9608085016142ba565b91908260809103126109175781359160208101359161430060606142f9604085016142ba565b80548210156142a45760005260206000209060011b0190600090565b90601f8019910116810190811067ffffffffffffffff82111761440c57604052565b634e487b7160e01b600052604160045260246000fd5b67ffffffffffffffff811161440c57601f01601f191660200190565b1561444557565b60405162461bcd60e51b815260206004820152602c60248201527f46756e6374696f6e206d7573742062652063616c6c6564207468726f7567682060448201526b19195b1959d85d1958d85b1b60a21b6064820152608490fd5b156144a657565b60405162461bcd60e51b815260206004820152602c60248201527f46756e6374696f6e206d7573742062652063616c6c6564207468726f7567682060448201526b6163746976652070726f787960a01b6064820152608490fd5b9060ff7f4910fdfa16fed3260ed0e7147f7cc6da11a60208b5b9406d12a635614ffd9143541660001461453a57506145389150614753565b565b6040516352d1902d60e01b81526020939192916001600160a01b038316918581600481865afa60009181614724575b506145ca5760405162461bcd60e51b815260048101879052602e60248201527f45524331393637557067726164653a206e657720696d706c656d656e7461746960448201526d6f6e206973206e6f74205555505360901b6064820152608490fd5b939492937fc9f76b5ec45e5cdef99837d7b6d2467235c1df8933c8ca56df5c35afa2c7d444016146cd576145fd84614753565b604051917fbc7cd75a20ee27fd9adebab32041f755214dbc6bffa90cc0225b39da2e5c2d3b600084a2845115908115916146c5575b5061463e575b50505050565b823b15614676575082600092839261466c95519201905af461465e6147f5565b614666614825565b91614879565b5038808080614638565b60849162461bcd60e51b82526004820152602660248201527f416464726573733a2064656c65676174652063616c6c20746f206e6f6e2d636f6044820152651b9d1c9858dd60d21b6064820152fd5b905038614632565b60405162461bcd60e51b815260048101849052602960248201527f45524331393637557067726164653a20756e737570706f727465642070726f786044820152681a58589b195555525160ba1b6064820152608490fd5b90918782813d831161474c575b61473b81836143ea565b810103126105cd5750519038614569565b503d614731565b803b1561479a577f360894a13ba1a3210667c828492db98dca3e2076cc3735a920a3ca505d382bbc80546001600160a01b0319166001600160a01b03909216919091179055565b60405162461bcd60e51b815260206004820152602d60248201527f455243313936373a206e657720696d706c656d656e746174696f6e206973206e60448201526c1bdd08184818dbdb9d1c9858dd609a1b6064820152608490fd5b3d15614820573d9061480682614422565b9161481460405193846143ea565b82523d6000602084013e565b606090565b61482f6027614422565b9061483d60405192836143ea565b60278252660819985a5b195960ca1b6040837f416464726573733a206c6f772d6c6576656c2064656c65676174652063616c6c60208201520152565b90916060911561488857505090565b6145389193925b8051909250156148a25750805190602001fd5b6040519062461bcd60e51b82528160208060048301528251908160248401526000935b8285106148e8575050604492506000838284010152601f80199101168101030190fd5b84810182015186860160440152938101938593506148c5565b9190820180921161490e57565b634e487b7160e01b600052601160045260246000fd5b80518210156142a45760209160051b010190565b906000916000906101698054906000925b82841061496f575050505061496b670de0b6b3a76400009161016b5490614a4b565b0490565b90919293956149be856149b8600193610e0f61498b8488614924565b5161068c670de0b6b3a7640000610a7c8b6149b16149a9868b6149e4565b9a90926143ce565b5054614901565b98614901565b9401929190614949565b9190916000838201938412911290801582169115161761490e57565b9190600090614a1281600095614a086149ff8261018061428c565b93905492614a7e565b9160031b1c6149c8565b60008113614a21575b50509190565b614a4391945061303592508094670de0b6b3a764000093849161016c54614a4b565b043880614a1b565b806000190482118115151661490e570290565b8115614a68570490565b634e487b7160e01b600052601260045260246000fd5b90614ac490614abe614ab1614aa8670de0b6b3a7640000614aa1876101696143ce565b5054614a4b565b9461018161428c565b90549060031b1c84614a5e565b92614a5e565b906000828203921281831281169183139015161761490e5790565b8015614b015761068c670de0b6b3a7640000610a7c6143009461016354614b09565b505060001990565b9190820391821161490e57565b67ffffffffffffffff811161440c5760051b60200190565b90614b3882614b16565b614b4560405191826143ea565b8281528092614b56601f1991614b16565b0190602036910137565b610163548015614c375761016990815491600090614b7d84614b2e565b9082905b858210614be757505060005b848110614b9b575050505050565b614bb38461068c85614bad8587614924565b51614a4b565b9061016a9182546801000000000000000081101561440c576130528160019586614bdf9401815561428c565b905501614b8d565b9092614c2f600191614bf886614c3a565b614c028787614924565b52610e0f614c1087866143ce565b505461068c670de0b6b3a7640000614c288a8a614924565b5192614a4b565b930190614b81565b50565b614c46906101696143ce565b50600101546001600160a01b0316614c5d81614c8e565b91909115614c69575090565b60249060405190637f6e4db960e01b82526004820152fd5b5190811515820361091757565b604080516359e02dd760e01b815292918190849060049082906001600160a01b03165afa928315614d05576000918294614cc85750509190565b90809450813d8311614cfe575b614cdf81836143ea565b810103126105cd5750614cf6602083519301614c81565b913880614a1b565b503d614cd5565b50513d6000823e3d90fd5b6101695490614d1e82614b2e565b9160005b818110614d2d575050565b80614d39600192614c3a565b614d438287614924565b5201614d22565b15614d5157565b60405162461bcd60e51b815260206004820152602b60248201527f496e697469616c697a61626c653a20636f6e7472616374206973206e6f74206960448201526a6e697469616c697a696e6760a81b6064820152608490fd5b60405190614db96080836143ea565b60006060838281528260208201528260408201520152565b9260a094919796959260c0850198855260208501526040840152606083015260808201520152565b60ff61017d5460081c16614e0957565b604051631ca61d7760e01b8152600490fd5b614e8192602092610166614e30848254614901565b9055614e40610163918254614901565b9055610165546040516340c10f1960e01b81526001600160a01b03928316600482015260248101939093529193849290911690829060009082906044820190565b03925af18015614ec357614e925750565b6020813d8211614ebb575b81614eaa602093836143ea565b8101031261091757614c3790614c81565b3d9150614e9d565b6040513d6000823e3d90fd5b9190614eda90614938565b919092614ee78385614adf565b9080821115614ef4575050565b6044925060405191637912120160e01b835260048301526024820152fd5b9061016654908115614f3e57670de0b6b3a7640000610a7c61430094610a7761068c9461016354614b09565b505050670de0b6b3a764000090565b929093916000916000918296614f61614daa565b966001600160a01b03918590831680615171575b508261016154168360405193636eb1769f60e11b8552168060048501523060248501526020948585604481865afa948515615166578495615133575b5084615012575b505050505086015115614fce575b505050929190565b90919250614fe6670de0b6b3a7640000928392614a4b565b0480855290821561500a57615002920490816040860152614901565b388080614fc6565b509050615002565b615020906101625416614c8e565b92909215614fb857909192939b50848b61505a85670de0b6b3a764000061505461504a8d8d614a4b565b6101755490614a4b565b04614a5e565b81830181815295908b156151295750615085916150796060928d614a5e565b91829101528551614901565b809d5b109283156150b4575b5050506150a1575b808080614fb8565b8192995052806060880152963880615099565b909192506024604051809481936370a0823160e01b835260048301525afa90811561511e57908b9184916150ed575b5010388481615091565b809250858092503d8311615117575b61510681836143ea565b81010312613a54578a9051386150e3565b503d6150fc565b6040513d85823e3d90fd5b915050809d615088565b9094508581813d831161515f575b61514b81836143ea565b8101031261515b57519338614fb1565b8380fd5b503d615141565b6040513d86823e3d90fd5b9095506020836101e95416916024604051809481936364a731e960e01b835260048301525afa80156151e95786906151b6575b6151af915084614a4b565b9438614f75565b506020813d82116151e1575b816151cf602093836143ea565b81010312613377576151af90516151a4565b3d91506151c2565b6040513d88823e3d90fd5b61526c9361523360009260209561520d826101696143ce565b50615219878254614901565b9055615229610163918254614901565b905561016761428c565b90546040516340c10f1960e01b81526001600160a01b039093166004840152602483019490945290948593928492909183906044820190565b039360039190911b1c6001600160a01b03165af18015614ec357614e925750565b6130526152e09161529e8482614a7e565b6152d66152ad8361018061428c565b6152c08294925492838360031b1c6149c8565b919060031b600019811b9283911b169119161790565b905561018161428c565b9055565b92610960836152f6969493979561593e565b818110615301575050565b604492506040519163c39b739f60e01b835260048301526024820152fd5b9361532e93610a7c9295615354565b670de0b6b3a763ffff19820191821161490e57670de0b6b3a76400009161496b91614a5e565b9091816153618285614adf565b111561538d5761430092611445670de0b6b3a7640000610a7c6153879461016354614b09565b90614b09565b505050600090565b90614300916000806153a5614825565b93602081519101845af46153b76147f5565b926060911561541b5750508151156153cd575090565b3b156153d65790565b60405162461bcd60e51b815260206004820152601d60248201527f416464726573733a2063616c6c20746f206e6f6e2d636f6e74726163740000006044820152606490fd5b909392614538925061488f565b61545691939261543a826101696143ce565b50615446868254614b09565b9055615229610163918254614b09565b905460039190911b1c6001600160a01b031691823b1561091757604051632770a7eb60e21b81526001600160a01b0390921660048301526024820152906000908290818381604481015b03925af18015614ec3576154b15750565b6000614538916143ea565b91906101666154cc848254614b09565b90556154dc610163918254614b09565b9055610165546001600160a01b031691823b1561091757604051632770a7eb60e21b81526001600160a01b0390921660048301526024820152906000908290818381604481016154a0565b84519294939192600091901561564f5750670de0b6b3a764000061555061016d54865190614a4b565b0491610163615560848254614901565b90556101785485516001600160a01b03969187169461557e91614b09565b61012f946002865414612f85576002865581615628575b505060400151919460028455826155fe575b505050600190555b61012f926002845414612f855760028455806155cf575b50505060019055565b6001600160a01b03821615612f735782918291604051915af16155f06147f5565b5015612f61573880806155c6565b811615612f735760008092918192604051915af161561a6147f5565b5015612f61573880806155a7565b8015612f7357848092918192604051915af16156426147f5565b5015612f61573880615595565b610178546020860151929561567f94929360609261567791906001600160a01b031686615684565b015191615684565b6155af565b9190918161569157505050565b61572a9160008060018060a01b03938461016154169360405195602098818a8901946323b872dd60e01b86521660248901521660448701526064860152606485526156dd6084866143ea565b6156e687614422565b946156f460405196876143ea565b8786527f5361666545524332303a206c6f772d6c6576656c2063616c6c206661696c656488870152519082855af16153b76147f5565b80518061573657505050565b81839181010312610917578161574c9101614c81565b156157545750565b6084906040519062461bcd60e51b82526004820152602a60248201527f5361666545524332303a204552433230206f7065726174696f6e20646964206e6044820152691bdd081cdd58d8d9595960b21b6064820152fd5b61580b906157b7615bc4565b60405163e01dce2d60e01b602082015260248101919091526001600160a01b039283166044820152838316606482018190524760848084019190915282529261580160a4836143ea565b61021d5416615395565b60208180518101031261091757602001519161012f916002835414612f8557600283558361583d575b50506001905590565b15612f7357600080809285604051915af16158566147f5565b5015612f61573880615834565b92806134f26134f892856158779695615354565b818110615882575050565b604492506040519163a5db715d60e01b835260048301526024820152fd5b60e08101929160c09081906001600160a01b03806158bd836142ba565b1685526158cc602083016142ba565b16602085015260408101356040850152606081013560608501526080810135608085015260a081013560a08501520135910152565b61017f548043101561591857614300904390614b09565b50600090565b9060405161592d6040826143ea565b602060018294805484520154910152565b61594a8161017a61428c565b90549060031b1c916101b49161596081846143ce565b5054926101b55443101561598b575b5050808210156159865761068c9061430093614a4b565b505090565b82935061599f6159aa93926159a5926143ce565b5061591e565b6159b2565b90388061596f565b602081519101805192670de0b6b3a76400009384039084821161490e576159df610e0f9261496b95614a4b565b9251614a4b565b600080610169918254926159f984614b2e565b9382915b85828410615a2857505050508115615a1c5790615a1991614a5e565b91565b505061017b5460011b91565b610a7c615a93859796610e0f615a62615a8a8961068c89610a7c615a748460019d9e9f9c615a58615a999e614c3a565b9889978892614924565b52615a6d86826149e4565b50936143ce565b50610a7c670de0b6b3a764000093849254614901565b9485918c61593e565b95614901565b940191906159fd565b6101b58054431015615ab15750565b6101695460005b818110615acb5750506101b65443019055565b80807f19156e9379c7bbbce8f646ce5ee30ba860b8f954717405f3d5859a6c1a21ae606001936101b4615b0161599f83836143ce565b90615b1f615b17615b1185614c3a565b846159b2565b9384926143ce565b50555160409182519182526020820152a201615ab8565b60975460405163d994d6d560e01b815233600482015290602090829060249082906001600160a01b03165afa908115614ec357600091615b8b575b5015615b7957565b604051631dd1b1b560e21b8152600490fd5b906020823d8211615bbc575b81615ba4602093836143ea565b810103126105cd5750615bb690614c81565b38615b71565b3d9150615b97565b60ff60ca5460081c16615bd357565b60405163783bb6c960e11b8152600490fd5b670de0b6b3a76400001061252a5756fea2646970667358221220bda7a0db616df3034f04d10bfbde16cb45df969a76f282dd9ef14c321325bcfc64736f6c63430008100033",
  "linkReferences": {},
  "deployedLinkReferences": {},
  "devdoc": {
    "details": "Only for upgradeability testing purposes. Extends MocCACoinbase adding a new variable.",
    "kind": "dev",
    "methods": {
      "addPeggedToken((address,address,uint256,uint256,uint256,uint256,uint256))": {
        "details": "Note that the ema value, should consider `nextEmaCalculation`  This function is implemented in MocCoreExpansion but with this contract contexttpTokenAddress Pegged Token contract address to add      priceProviderAddress Pegged Token price provider contract address      tpCtarg Pegged Token target coverage [PREC]      tpMintFee additional fee pct applied on mint [PREC]      tpRedeemFee additional fee pct applied on redeem [PREC]      tpEma initial Pegged Token exponential moving average [PREC]      tpEmaSf Pegged Token smoothing factor [PREC]  Requirements: - the caller must have governance authorization. - tpTokenAddress must be a MocRC20, with mint, burn roles already settled  for this contract",
        "params": {
          "peggedTokenParams_": "params of Pegged Token to add"
        }
      },
      "calcCtargemaCA()": {
        "details": "qAC = nTP / pACtp      ctargemaCA = (ctargemaTP * qAC) / (qAC)",
        "returns": {
          "ctargemaCA": "[PREC]"
        }
      },
      "changeGovernor(address)": {
        "params": {
          "newGovernor_": "New governor address"
        }
      },
      "editPeggedToken((address,address,uint256,uint256,uint256,uint256,uint256))": {
        "details": "Note that the ema value, should consider `nextEmaCalculation`  This function is implemented in MocCoreExpansion but with this contract contexttpTokenAddress Pegged Token contract address to identify the token to edit      priceProviderAddress Pegged Token price provider contract address      tpCtarg Pegged Token target coverage [PREC]      tpMintFee additional fee pct applied on mint [PREC]      tpRedeemFee additional fee pct applied on redeem [PREC]      tpEma initial Pegged Token exponential moving average [PREC]      tpEmaSf Pegged Token smoothing factor [PREC]  Requirements: - the caller must have governance authorization. - the tpTokenAddress must exists",
        "params": {
          "peggedTokenParams_": "params of Pegged Token to add"
        }
      },
      "getCglb()": {
        "returns": {
          "cglob": "[PREC]"
        }
      },
      "getLeverageTC()": {
        "returns": {
          "leverageTC": "[PREC]"
        }
      },
      "getPACtp(uint256)": {
        "params": {
          "i_": "Pegged Token index"
        },
        "returns": {
          "_0": "price [PREC]"
        }
      },
      "getPTCac()": {
        "returns": {
          "pTCac": "[PREC]"
        }
      },
      "getTCAvailableToRedeem()": {
        "details": "because it is a view function we are not calculating the new ema,  since we are using the last ema calculation, this may differ a little from the real amount  of TC available to redeem. Consider it an approximation.",
        "returns": {
          "tcAvailableToRedeem": "[N]"
        }
      },
      "getTPAvailableToMint(uint256)": {
        "details": "because it is a view function we are not calculating the new ema,  since we are using the last ema calculation, this may differ a little from the real amount  of TP available to mint. Consider it an approximation.",
        "params": {
          "i_": "Pegged Token index"
        },
        "returns": {
          "tpAvailableToMint": "[N]"
        }
      },
      "getTotalACavailable()": {
        "returns": {
          "totalACavailable": "[N]"
        }
      },
      "initialize(((address,address,address,address,address,uint256,uint256,uint256,uint256,uint256,uint256,uint256,uint256,uint256,uint256,uint256,uint256,uint256,uint256),address,address,address,uint256,address))": {
        "details": "governorAddress The address that will define when a change contract is authorized      pauserAddress The address that is authorized to pause this contract      tcTokenAddress Collateral Token contract address      mocFeeFlowAddress Moc Fee Flow contract address      mocAppreciationBeneficiaryAddress Moc appreciation beneficiary address      protThrld protected state threshold [PREC]      liqThrld liquidation coverage threshold [PREC]      feeRetainer pct retain on fees to be re-injected as Collateral, while paying fees with AC [PREC]      tcMintFee additional fee pct applied on mint Collateral Tokens operations [PREC]      tcRedeemFee additional fee pct applied on redeem Collateral Tokens operations [PREC]      successFee pct of the gain because Pegged Tokens devaluation that is transferred        in Collateral Asset to Moc Fee Flow during the settlement [PREC]      appreciationFactor pct of the gain because Pegged Tokens devaluation that is returned        in Pegged Tokens to appreciation beneficiary during the settlement [PREC]      emaCalculationBlockSpan amount of blocks to wait between Pegged ema calculation      bes number of blocks between settlements",
        "params": {
          "initializeCoreParams_": "contract initializer params"
        }
      },
      "isLiquidationReached()": {
        "returns": {
          "_0": "true if liquidation state is reached, false otherwise"
        }
      },
      "liqRedeemTP(uint256)": {
        "params": {
          "i_": "Pegged Token index"
        },
        "returns": {
          "qACRedeemed": "amount of AC sent to sender"
        }
      },
      "liqRedeemTPto(uint256,address)": {
        "params": {
          "i_": "Pegged Token index",
          "recipient_": "address who receives the AC"
        },
        "returns": {
          "qACRedeemed": "amount of AC sent to `recipient_`"
        }
      },
      "makeStoppable()": {
        "details": "Should be called through governance"
      },
      "makeUnstoppable()": {
        "details": "Should be called through governance"
      },
      "mintTC(uint256)": {
        "details": "any extra value, not spent on TC nor fees, will be return to sender",
        "params": {
          "qTC_": "amount of Collateral Token to mint"
        },
        "returns": {
          "qACtotalNeeded": "amount of AC used to mint qTC",
          "qFeeToken": "amount of Fee Token used by sender to pay fees. 0 if qAC is used instead"
        }
      },
      "mintTCViaVendor(uint256,address)": {
        "details": "any extra value, not spent on TC nor fees, will be return to sender",
        "params": {
          "qTC_": "amount of Collateral Token to mint",
          "vendor_": "address who receives a markup"
        },
        "returns": {
          "qACtotalNeeded": "amount of AC used to mint qTC",
          "qFeeToken": "amount of Fee Token used by sender to pay fees. 0 if qAC is used instead"
        }
      },
      "mintTCandTP(uint256,uint256)": {
        "params": {
          "i_": "Pegged Token index",
          "qTP_": "amount of Pegged Token to mint"
        },
        "returns": {
          "qACtotalNeeded": "amount of AC used to mint Collateral Token and Pegged Token",
          "qFeeToken": "amount of Fee Token used by sender to pay fees. 0 if qAC is used instead",
          "qTCtoMint": "amount of Collateral Token minted"
        }
      },
      "mintTCandTPViaVendor(uint256,uint256,address)": {
        "params": {
          "i_": "Pegged Token index",
          "qTP_": "amount of Pegged Token to mint",
          "vendor_": "address who receives a markup"
        },
        "returns": {
          "qACtotalNeeded": "amount of AC used to mint Collateral Token and Pegged Token",
          "qFeeToken": "amount of Fee Token used by sender to pay fees. 0 if qAC is used instead",
          "qTCtoMint": "amount of Collateral Token minted"
        }
      },
      "mintTCandTPto(uint256,uint256,address)": {
        "params": {
          "i_": "Pegged Token index",
          "qTP_": "amount of Pegged Token to mint",
          "recipient_": "address who receives the Collateral Token and Pegged Token"
        },
        "returns": {
          "qACtotalNeeded": "amount of AC used to mint Collateral Token and Pegged Token",
          "qFeeToken": "amount of Fee Token used by sender to pay fees. 0 if qAC is used instead",
          "qTCtoMint": "amount of Collateral Token minted"
        }
      },
      "mintTCandTPtoViaVendor(uint256,uint256,address,address)": {
        "params": {
          "i_": "Pegged Token index",
          "qTP_": "amount of Pegged Token to mint",
          "recipient_": "address who receives the Collateral Token and Pegged Token",
          "vendor_": "address who receives a markup"
        },
        "returns": {
          "qACtotalNeeded": "amount of AC used to mint Collateral Token and Pegged Token",
          "qFeeToken": "amount of Fee Token used by sender to pay fees. 0 if qAC is used instead",
          "qTCtoMint": "amount of Collateral Token minted"
        }
      },
      "mintTCto(uint256,address)": {
        "details": "any extra value, not spent on TC nor fees, will be return to sender",
        "params": {
          "qTC_": "amount of Collateral Token to mint",
          "recipient_": "address who receives the Collateral Token"
        },
        "returns": {
          "qACtotalNeeded": "amount of AC used to mint qTC",
          "qFeeToken": "amount of Fee Token used by sender to pay fees. 0 if qAC is used instead"
        }
      },
      "mintTCtoViaVendor(uint256,address,address)": {
        "details": "any extra value, not spent on TC nor fees, will be return to sender",
        "params": {
          "qTC_": "amount of Collateral Token to mint",
          "recipient_": "address who receives the Collateral Token",
          "vendor_": "address who receives a markup"
        },
        "returns": {
          "qACtotalNeeded": "amount of AC used to mint qTC",
          "qFeeToken": "amount of Fee Token used by sender to pay fees. 0 if qAC is used instead"
        }
      },
      "mintTP(uint256,uint256)": {
        "details": "any extra value, not spent on TP nor fees, will be return to sender",
        "params": {
          "i_": "Pegged Token index to mint",
          "qTP_": "amount of Pegged Token to mint"
        },
        "returns": {
          "qACtotalNeeded": "amount of AC used to mint qTP",
          "qFeeToken": "amount of Fee Token used by sender to pay fees. 0 if qAC is used instead"
        }
      },
      "mintTPViaVendor(uint256,uint256,address)": {
        "details": "any extra value, not spent on TP nor fees, will be return to sender",
        "params": {
          "i_": "Pegged Token index to mint",
          "qTP_": "amount of Pegged Token to mint",
          "vendor_": "address who receives a markup"
        },
        "returns": {
          "qACtotalNeeded": "amount of AC used to mint qTP",
          "qFeeToken": "amount of Fee Token used by sender to pay fees. 0 if qAC is used instead"
        }
      },
      "mintTPto(uint256,uint256,address)": {
        "details": "any extra value, not spent on TP nor fees, will be return to sender",
        "params": {
          "i_": "Pegged Token index to mint",
          "qTP_": "amount of Pegged Token to mint",
          "recipient_": "address who receives the Pegged Token"
        },
        "returns": {
          "qACtotalNeeded": "amount of AC used to mint qTP",
          "qFeeToken": "amount of Fee Token used by sender to pay fees. 0 if qAC is used instead"
        }
      },
      "mintTPtoViaVendor(uint256,uint256,address,address)": {
        "details": "any extra value, not spent on TP nor fees, will be return to sender",
        "params": {
          "i_": "Pegged Token index to mint",
          "qTP_": "amount of Pegged Token to mint",
          "recipient_": "address who receives the Pegged Token",
          "vendor_": "address who receives a markup"
        },
        "returns": {
          "qACtotalNeeded": "amount of AC used to mint qTP",
          "qFeeToken": "amount of Fee Token used by sender to pay fees. 0 if qAC is used instead"
        }
      },
      "pause()": {
        "details": "Should only be called by the pauser and when it is stoppable"
      },
      "proxiableUUID()": {
        "details": "Implementation of the ERC1822 {proxiableUUID} function. This returns the storage slot used by the implementation. It is used to validate the implementation's compatibility when performing an upgrade. IMPORTANT: A proxy pointing at a proxiable contract should not be considered proxiable itself, because this risks bricking a proxy that upgrades to it, by delegating to itself until out of gas. Thus it is critical that this function revert if invoked through a proxy. This is guaranteed by the `notDelegated` modifier."
      },
      "redeemTC(uint256,uint256)": {
        "params": {
          "qACmin_": "minimum amount of Collateral Asset that sender expects to receive",
          "qTC_": "amount of Collateral Token to redeem"
        },
        "returns": {
          "qACRedeemed": "amount of AC sent to sender",
          "qFeeToken": "amount of Fee Token used by sender to pay fees. 0 if qAC is used instead"
        }
      },
      "redeemTCViaVendor(uint256,uint256,address)": {
        "params": {
          "qACmin_": "minimum amount of Collateral Asset that sender expects to receive",
          "qTC_": "amount of Collateral Token to redeem",
          "vendor_": "address who receives a markup"
        },
        "returns": {
          "qACRedeemed": "amount of AC sent to sender",
          "qFeeToken": "amount of Fee Token used by sender to pay fees. 0 if qAC is used instead"
        }
      },
      "redeemTCandTP(uint256,uint256,uint256,uint256)": {
        "params": {
          "i_": "Pegged Token index",
          "qACmin_": "minimum amount of Collateral Asset that the sender expects to receive",
          "qTC_": "maximum amount of Collateral Token to redeem",
          "qTP_": "maximum amount of Pegged Token to redeem"
        },
        "returns": {
          "qACRedeemed": "amount of AC sent to the sender",
          "qFeeToken": "amount of Fee Token used by sender to pay fees. 0 if qAC is used instead",
          "qTPRedeemed": "amount of Pegged Token redeemed"
        }
      },
      "redeemTCandTPViaVendor(uint256,uint256,uint256,uint256,address)": {
        "params": {
          "i_": "Pegged Token index",
          "qACmin_": "minimum amount of Collateral Asset that the sender expects to receive",
          "qTC_": "maximum amount of Collateral Token to redeem",
          "qTP_": "maximum amount of Pegged Token to redeem",
          "vendor_": "address who receives a markup"
        },
        "returns": {
          "qACRedeemed": "amount of AC sent to the sender",
          "qFeeToken": "amount of Fee Token used by sender to pay fees. 0 if qAC is used instead",
          "qTPRedeemed": "amount of Pegged Token redeemed"
        }
      },
      "redeemTCandTPto(uint256,uint256,uint256,uint256,address)": {
        "params": {
          "i_": "Pegged Token index",
          "qACmin_": "minimum amount of Collateral Asset that `recipient_` expects to receive",
          "qTC_": "maximum amount of Collateral Token to redeem",
          "qTP_": "maximum amount of Pegged Token to redeem",
          "recipient_": "address who receives the Collateral Asset"
        },
        "returns": {
          "qACRedeemed": "amount of AC sent to the `recipient_`",
          "qFeeToken": "amount of Fee Token used by sender to pay fees. 0 if qAC is used instead",
          "qTPRedeemed": "amount of Pegged Token redeemed"
        }
      },
      "redeemTCandTPtoViaVendor(uint256,uint256,uint256,uint256,address,address)": {
        "params": {
          "i_": "Pegged Token index",
          "qACmin_": "minimum amount of Collateral Asset that `recipient_` expects to receive",
          "qTC_": "maximum amount of Collateral Token to redeem",
          "qTP_": "maximum amount of Pegged Token to redeem",
          "recipient_": "address who receives the Collateral Asset",
          "vendor_": "address who receives a markup"
        },
        "returns": {
          "qACRedeemed": "amount of AC sent to the `recipient_`",
          "qFeeToken": "amount of Fee Token used by sender to pay fees. 0 if qAC is used instead",
          "qTPRedeemed": "amount of Pegged Token redeemed"
        }
      },
      "redeemTCto(uint256,uint256,address)": {
        "params": {
          "qACmin_": "minimum amount of Collateral Asset that `recipient_` expects to receive",
          "qTC_": "amount of Collateral Token to redeem",
          "recipient_": "address who receives the Collateral Asset"
        },
        "returns": {
          "qACRedeemed": "amount of AC sent to 'recipient_'",
          "qFeeToken": "amount of Fee Token used by sender to pay fees. 0 if qAC is used instead"
        }
      },
      "redeemTCtoViaVendor(uint256,uint256,address,address)": {
        "params": {
          "qACmin_": "minimum amount of Collateral Asset that `recipient_` expects to receive",
          "qTC_": "amount of Collateral Token to redeem",
          "recipient_": "address who receives the Collateral Asset",
          "vendor_": "address who receives a markup"
        },
        "returns": {
          "qACRedeemed": "amount of AC sent to 'recipient_'",
          "qFeeToken": "amount of Fee Token used by sender to pay fees. 0 if qAC is used instead"
        }
      },
      "redeemTP(uint256,uint256,uint256)": {
        "params": {
          "i_": "Pegged Token index to redeem",
          "qACmin_": "minimum amount of Collateral Asset that sender expects to receive",
          "qTP_": "amount of Pegged Token to redeem"
        },
        "returns": {
          "qACRedeemed": "amount of AC sent to sender",
          "qFeeToken": "amount of Fee Token used by sender to pay fees. 0 if qAC is used instead"
        }
      },
      "redeemTPViaVendor(uint256,uint256,uint256,address)": {
        "params": {
          "i_": "Pegged Token index to redeem",
          "qACmin_": "minimum amount of Collateral Asset that sender expects to receive",
          "qTP_": "amount of Pegged Token to redeem",
          "vendor_": "address who receives a markup"
        },
        "returns": {
          "qACRedeemed": "amount of AC sent to sender",
          "qFeeToken": "amount of Fee Token used by sender to pay fees. 0 if qAC is used instead"
        }
      },
      "redeemTPto(uint256,uint256,uint256,address)": {
        "params": {
          "i_": "Pegged Token index to redeem",
          "qACmin_": "minimum amount of Collateral Asset that `recipient_` expects to receive",
          "qTP_": "amount of Pegged Token to redeem",
          "recipient_": "address who receives the Collateral Asset"
        },
        "returns": {
          "qACRedeemed": "amount of AC sent to 'recipient_'",
          "qFeeToken": "amount of Fee Token used by sender to pay fees. 0 if qAC is used instead"
        }
      },
      "redeemTPtoViaVendor(uint256,uint256,uint256,address,address)": {
        "params": {
          "i_": "Pegged Token index to redeem",
          "qACmin_": "minimum amount of Collateral Asset that `recipient_` expects to receive",
          "qTP_": "amount of Pegged Token to redeem",
          "recipient_": "address who receives the Collateral Asset",
          "vendor_": "address who receives a markup"
        },
        "returns": {
          "qACRedeemed": "amount of AC sent to 'recipient_'",
          "qFeeToken": "amount of Fee Token used by sender to pay fees. 0 if qAC is used instead"
        }
      },
      "setAppreciationFactor(uint256)": {
        "details": "sets appreciation Factor value.",
        "params": {
          "appreciationFactor_": "pct of the gain because Pegged Tokens devaluation that is returned in Pegged Tokens to appreciation beneficiary during the settlement [PREC]"
        }
      },
      "setBes(uint256)": {
        "params": {
          "bes_": "number of blocks between settlements*"
        }
      },
      "setEmaCalculationBlockSpan(uint256)": {
        "params": {
          "blockSpan_": "Defines how many blocks should pass between BMA calculations*"
        }
      },
      "setFeeRetainer(uint256)": {
        "details": "sets the fee pct to be retainer on AC fees payments as AC re-injection.",
        "params": {
          "feeRetainer_": "pct retain on fees to be re-injected as Collateral, while paying fees with AC [PREC] 0% = 0; 1% = 10 ** 16; 100% = 10 ** 18"
        }
      },
      "setFeeTokenAddress(address)": {
        "details": "sets Fee Token contract address",
        "params": {
          "mocFeeTokenAddress_": "Fee Token new contract address"
        }
      },
      "setFeeTokenPct(uint256)": {
        "details": "sets the fee applied on the top of the operation`s fee when using Fee Token as fee payment method.",
        "params": {
          "feeTokenPct_": "pct applied on the top of the operation`s fee when using Fee Token  as fee payment method [PREC]  e.g. if tcMintFee = 1%, FeeTokenPct = 50% => qFeeToken = 0.5%  0% = 0; 1% = 10 ** 16; 100% = 10 ** 18"
        }
      },
      "setFeeTokenPriceProviderAddress(address)": {
        "details": "sets Fee Token price provider contract address",
        "params": {
          "mocFeeTokenPriceProviderAddress_": "Fee Token price provider new contract address"
        }
      },
      "setLiqEnabled(bool)": {
        "details": "enables and disables the liquidation mechanism.",
        "params": {
          "liqEnabled_": "is liquidation enabled"
        }
      },
      "setLiqThrld(uint256)": {
        "details": "sets the value of the liq threshold configuration param",
        "params": {
          "liqThrld_": "liquidation threshold"
        }
      },
      "setMintTCandTPFee(uint256)": {
        "details": "sets the fee charged when mint Collateral Token and Pegged Token in one operation.",
        "params": {
          "mintTCandTPFee_": "additional fee pct applied on mint Collateral Token and Pegged Token [PREC] 0% = 0; 1% = 10 ** 16; 100% = 10 ** 18"
        }
      },
      "setMocAppreciationBeneficiaryAddress(address)": {
        "details": "sets Moc Appreciation Beneficiary Address",
        "params": {
          "mocAppreciationBeneficiaryAddress_": "moc Appreciation Beneficiary new address"
        }
      },
      "setMocCoreExpansion(address)": {
        "details": "sets Moc Core Expansion contract address",
        "params": {
          "mocCoreExpansion_": "moc core expansion new contract address"
        }
      },
      "setMocFeeFlowAddress(address)": {
        "details": "sets Moc Fee Flow contract address",
        "params": {
          "mocFeeFlowAddress_": "moc Fee Flow new contract address"
        }
      },
      "setPauser(address)": {
        "details": "Should be called through governance",
        "params": {
          "newPauser_": "Address of the new pauser"
        }
      },
      "setProtThrld(uint256)": {
        "details": "sets the value of the protected threshold configuration param",
        "params": {
          "protThrld_": "coverage protected state threshold [PREC]"
        }
      },
      "setRedeemTCandTPFee(uint256)": {
        "details": "sets the fee charged when redeem Collateral Token and Pegged Token in one operation.",
        "params": {
          "redeemTCandTPFee_": "additional fee pct applied on redeem Collateral Token and Pegged Token [PREC] 0% = 0; 1% = 10 ** 16; 100% = 10 ** 18"
        }
      },
      "setSuccessFee(uint256)": {
        "details": "sets success Fee value.",
        "params": {
          "successFee_": "pct of the gain because Pegged Tokens devaluation that is transferred in Collateral Asset to Moc Fee Flow during the settlement [PREC]"
        }
      },
      "setSwapTCforTPFee(uint256)": {
        "details": "sets the fee charged when swap Collateral Token for a Pegged Token.",
        "params": {
          "swapTCforTPFee_": "additional fee pct applied on swap Collateral Token for a Pegged Token [PREC] 0% = 0; 1% = 10 ** 16; 100% = 10 ** 18"
        }
      },
      "setSwapTPforTCFee(uint256)": {
        "details": "sets the fee charged when swap a Pegged Token for Collateral Token.",
        "params": {
          "swapTPforTCFee_": "additional fee pct applied on swap a Pegged Token for Collateral Token [PREC] 0% = 0; 1% = 10 ** 16; 100% = 10 ** 18"
        }
      },
      "setSwapTPforTPFee(uint256)": {
        "details": "sets the fee charged when swap a Pegged Token for another Pegged Token.",
        "params": {
          "swapTPforTPFee_": "additional fee pct applied on swap a Pegged Token for another Pegged Token [PREC] 0% = 0; 1% = 10 ** 16; 100% = 10 ** 18"
        }
      },
      "setTcMintFee(uint256)": {
        "details": "sets the fee charged on Token Collateral mint.",
        "params": {
          "tcMintFee_": "addition fee pct applied on Collateral Tokens mint [PREC] 0% = 0; 1% = 10 ** 16; 100% = 10 ** 18"
        }
      },
      "setTcRedeemFee(uint256)": {
        "details": "sets the fee charged on Token Collateral redeem.",
        "params": {
          "tcRedeemFee_": "addition fee pct applied on Collateral Tokens redeem [PREC] 0% = 0; 1% = 10 ** 16; 100% = 10 ** 18"
        }
      },
      "swapTCforTP(uint256,uint256,uint256)": {
        "params": {
          "i_": "Pegged Token index",
          "qTC_": "amount of Collateral Token to swap",
          "qTPmin_": "minimum amount of Pegged Token that the sender expects to receive"
        },
        "returns": {
          "qACFee": "amount of AC used to pay fee",
          "qFeeToken": "amount of Fee Token used by sender to pay fees. 0 if qAC is used instead",
          "qTPMinted": "amount of Pegged Token minted"
        }
      },
      "swapTCforTPViaVendor(uint256,uint256,uint256,address)": {
        "params": {
          "i_": "Pegged Token index",
          "qTC_": "amount of Collateral Token to swap",
          "qTPmin_": "minimum amount of Pegged Token that the sender expects to receive",
          "vendor_": "address who receives a markup"
        },
        "returns": {
          "qACFee": "amount of AC used to pay fee",
          "qFeeToken": "amount of Fee Token used by sender to pay fees. 0 if qAC is used instead",
          "qTPMinted": "amount of Pegged Token minted"
        }
      },
      "swapTCforTPto(uint256,uint256,uint256,address)": {
        "params": {
          "i_": "Pegged Token index",
          "qTC_": "amount of Collateral to swap",
          "qTPmin_": "minimum amount of Pegged Token that `recipient_` expects to receive",
          "recipient_": "address who receives the Pegged Token"
        },
        "returns": {
          "qACFee": "amount of AC used to pay fee",
          "qFeeToken": "amount of Fee Token used by sender to pay fees. 0 if qAC is used instead",
          "qTPMinted": "amount of Pegged Token minted"
        }
      },
      "swapTCforTPtoViaVendor(uint256,uint256,uint256,address,address)": {
        "params": {
          "i_": "Pegged Token index",
          "qTC_": "amount of Collateral to swap",
          "qTPmin_": "minimum amount of Pegged Token that `recipient_` expects to receive",
          "recipient_": "address who receives the Pegged Token",
          "vendor_": "address who receives a markup"
        },
        "returns": {
          "qACFee": "amount of AC used to pay fee",
          "qFeeToken": "amount of Fee Token used by sender to pay fees. 0 if qAC is used instead",
          "qTPMinted": "amount of Pegged Token minted"
        }
      },
      "swapTPforTC(uint256,uint256,uint256)": {
        "params": {
          "i_": "Pegged Token index",
          "qTCmin_": "minimum amount of Collateral Token that the sender expects to receive",
          "qTP_": "amount of owned Pegged Token to swap"
        },
        "returns": {
          "qACFee": "amount of AC used to pay fee",
          "qFeeToken": "amount of Fee Token used by sender to pay fees. 0 if qAC is used instead",
          "qTCMinted": "amount of Collateral Token minted"
        }
      },
      "swapTPforTCViaVendor(uint256,uint256,uint256,address)": {
        "params": {
          "i_": "Pegged Token index",
          "qTCmin_": "minimum amount of Collateral Token that the sender expects to receive",
          "qTP_": "amount of owned Pegged Token to swap",
          "vendor_": "address who receives a markup"
        },
        "returns": {
          "qACFee": "amount of AC used to pay fee",
          "qFeeToken": "amount of Fee Token used by sender to pay fees. 0 if qAC is used instead",
          "qTCMinted": "amount of Collateral Token minted"
        }
      },
      "swapTPforTCto(uint256,uint256,uint256,address)": {
        "params": {
          "i_": "Pegged Token index",
          "qTCmin_": "minimum amount of Collateral Token that `recipient_` expects to receive",
          "qTP_": "amount of owned Pegged Token to swap",
          "recipient_": "address who receives the Collateral Token"
        },
        "returns": {
          "qACFee": "amount of AC used to pay fee",
          "qFeeToken": "amount of Fee Token used by sender to pay fees. 0 if qAC is used instead",
          "qTCMinted": "amount of Collateral Token minted"
        }
      },
      "swapTPforTCtoViaVendor(uint256,uint256,uint256,address,address)": {
        "params": {
          "i_": "Pegged Token index",
          "qTCmin_": "minimum amount of Collateral Token that `recipient_` expects to receive",
          "qTP_": "amount of owned Pegged Token to swap",
          "recipient_": "address who receives the Collateral Token",
          "vendor_": "address who receives a markup"
        },
        "returns": {
          "qACFee": "amount of AC used to pay fee",
          "qFeeToken": "amount of Fee Token used by sender to pay fees. 0 if qAC is used instead",
          "qTCMinted": "amount of Collateral Token minted"
        }
      },
      "swapTPforTP(uint256,uint256,uint256,uint256)": {
        "params": {
          "iFrom_": "owned Pegged Token index",
          "iTo_": "target Pegged Token index",
          "qTP_": "amount of owned Pegged Token to swap",
          "qTPmin_": "minimum amount of target Pegged Token that the sender expects to receive"
        },
        "returns": {
          "qACFee": "amount of AC used to pay fee",
          "qFeeToken": "amount of Fee Token used by sender to pay fees. 0 if qAC is used instead",
          "qTPMinted": "amount of Pegged Token minted"
        }
      },
      "swapTPforTPViaVendor(uint256,uint256,uint256,uint256,address)": {
        "params": {
          "iFrom_": "owned Pegged Token index",
          "iTo_": "target Pegged Token index",
          "qTP_": "amount of owned Pegged Token to swap",
          "qTPmin_": "minimum amount of target Pegged Token that the sender expects to receive",
          "vendor_": "address who receives a markup"
        },
        "returns": {
          "qACFee": "amount of AC used to pay fee",
          "qFeeToken": "amount of Fee Token used by sender to pay fees. 0 if qAC is used instead",
          "qTPMinted": "amount of Pegged Token minted"
        }
      },
      "swapTPforTPto(uint256,uint256,uint256,uint256,address)": {
        "params": {
          "iFrom_": "owned Pegged Token index",
          "iTo_": "target Pegged Token index",
          "qTP_": "amount of owned Pegged Token to swap",
          "qTPmin_": "minimum amount of target Pegged Token that `recipient_` expects to receive",
          "recipient_": "address who receives the target Pegged Token"
        },
        "returns": {
          "qACFee": "amount of AC used to pay fee",
          "qFeeToken": "amount of Fee Token used by sender to pay fees. 0 if qAC is used instead",
          "qTPMinted": "amount of Pegged Token minted"
        }
      },
      "swapTPforTPtoViaVendor(uint256,uint256,uint256,uint256,address,address)": {
        "params": {
          "iFrom_": "owned Pegged Token index",
          "iTo_": "target Pegged Token index",
          "qTP_": "amount of owned Pegged Token to swap",
          "qTPmin_": "minimum amount of target Pegged Token that `recipient_` expects to receive",
          "recipient_": "address who receives the target Pegged Token",
          "vendor_": "address who receives a markup"
        },
        "returns": {
          "qACFee": "amount of AC used to pay fee",
          "qFeeToken": "amount of Fee Token used by sender to pay fees. 0 if qAC is used instead",
          "qTPMinted": "amount of Pegged Token minted"
        }
      },
      "updateEmas()": {
        "details": "All price provider prices must be available, fails if not"
      },
      "upgradeTo(address)": {
        "details": "Upgrade the implementation of the proxy to `newImplementation`. Calls {_authorizeUpgrade}. Emits an {Upgraded} event."
      },
      "upgradeToAndCall(address,bytes)": {
        "details": "Upgrade the implementation of the proxy to `newImplementation`, and subsequently execute the function call encoded in `data`. Calls {_authorizeUpgrade}. Emits an {Upgraded} event."
      }
    },
    "title": "MocCoinbaseWithExpansionMock",
    "version": 1
  },
  "evm": {
    "bytecode": {
      "linkReferences": {},
      "opcodes": "PUSH1 0xA0 DUP1 PUSH1 0x40 MSTORE CALLVALUE PUSH3 0xE1 JUMPI ADDRESS PUSH1 0x80 MSTORE PUSH1 0x0 SLOAD SWAP1 PUSH1 0xFF DUP3 PUSH1 0x8 SHR AND PUSH3 0x8F JUMPI POP PUSH1 0xFF DUP1 DUP3 AND LT PUSH3 0x53 JUMPI JUMPDEST PUSH1 0x40 MLOAD PUSH2 0x5C2B SWAP1 DUP2 PUSH3 0xE7 DUP3 CODECOPY PUSH1 0x80 MLOAD DUP2 DUP2 DUP2 PUSH2 0x3172 ADD MSTORE DUP2 DUP2 PUSH2 0x3314 ADD MSTORE PUSH2 0x3627 ADD MSTORE RETURN JUMPDEST PUSH1 0xFF SWAP1 DUP2 NOT AND OR PUSH1 0x0 SSTORE PUSH32 0x7F26B83FF96E1F2B6A682F133852F6798A09C465DA95921460CEFB3847402498 PUSH1 0x20 PUSH1 0x40 MLOAD PUSH1 0xFF DUP2 MSTORE LOG1 CODESIZE PUSH3 0x2C JUMP JUMPDEST PUSH3 0x461BCD PUSH1 0xE5 SHL DUP2 MSTORE PUSH1 0x20 PUSH1 0x4 DUP3 ADD MSTORE PUSH1 0x27 PUSH1 0x24 DUP3 ADD MSTORE PUSH32 0x496E697469616C697A61626C653A20636F6E747261637420697320696E697469 PUSH1 0x44 DUP3 ADD MSTORE PUSH7 0x616C697A696E67 PUSH1 0xC8 SHL PUSH1 0x64 DUP3 ADD MSTORE PUSH1 0x84 SWAP1 REVERT JUMPDEST PUSH1 0x0 DUP1 REVERT INVALID PUSH1 0x80 PUSH1 0x40 MSTORE PUSH1 0x4 CALLDATASIZE LT ISZERO PUSH2 0x2B JUMPI JUMPDEST CALLDATASIZE ISZERO PUSH2 0x19 JUMPI PUSH1 0x0 DUP1 REVERT JUMPDEST PUSH2 0x163 PUSH2 0x27 CALLVALUE DUP3 SLOAD PUSH2 0x4901 JUMP JUMPDEST SWAP1 SSTORE STOP JUMPDEST PUSH1 0x0 PUSH1 0xE0 DUP2 CALLDATALOAD DUP2 SHR SWAP1 DUP2 PUSH4 0x1DDE6EF EQ PUSH2 0x4266 JUMPI DUP2 PUSH4 0x1F1B684 EQ PUSH2 0x421E JUMPI DUP2 PUSH4 0x4856E41 EQ PUSH2 0x41BD JUMPI DUP2 PUSH4 0x7164879 EQ PUSH2 0x415E JUMPI DUP2 PUSH4 0xAD8C234 EQ PUSH2 0x40F4 JUMPI DUP2 PUSH4 0xAED4F88 EQ PUSH2 0x4093 JUMPI DUP2 PUSH4 0xBE9482D EQ PUSH2 0x4026 JUMPI DUP2 PUSH4 0xC340A24 EQ PUSH2 0x3FFD JUMPI DUP2 PUSH4 0xC36D897 EQ PUSH2 0x3FDE JUMPI DUP2 PUSH4 0xD6AC463 EQ PUSH2 0x3F96 JUMPI DUP2 PUSH4 0xDF12A8B EQ PUSH2 0x3E8F JUMPI DUP2 PUSH4 0xE0A8FD2 EQ PUSH2 0x3E69 JUMPI DUP2 PUSH4 0xF1E5E2B EQ PUSH2 0x3E21 JUMPI DUP2 PUSH4 0xF60F396 EQ PUSH2 0x3D48 JUMPI DUP2 PUSH4 0x102FEFAC EQ PUSH2 0x3CDE JUMPI DUP2 PUSH4 0x17574BC5 EQ PUSH2 0x3B40 JUMPI DUP2 PUSH4 0x17DF0AB8 EQ PUSH2 0x3A77 JUMPI DUP2 PUSH4 0x1867E2F5 EQ PUSH2 0x3A58 JUMPI DUP2 PUSH4 0x1F79DA55 EQ PUSH2 0x39EE JUMPI DUP2 PUSH4 0x1FB0DDA0 EQ PUSH2 0x39CD JUMPI DUP2 PUSH4 0x1FE6A7AD EQ PUSH2 0x3991 JUMPI DUP2 PUSH4 0x2069F753 EQ PUSH2 0x396B JUMPI DUP2 PUSH4 0x23B98CDE EQ PUSH2 0x3944 JUMPI DUP2 PUSH4 0x27EAB2A1 EQ PUSH2 0x38FC JUMPI DUP2 PUSH4 0x2A20D57D EQ PUSH2 0x38DD JUMPI DUP2 PUSH4 0x2C43BD3B EQ PUSH2 0x38B7 JUMPI DUP2 PUSH4 0x2D88AF4A EQ PUSH2 0x385E JUMPI DUP2 PUSH4 0x2DED50F0 EQ PUSH2 0x383F JUMPI DUP2 PUSH4 0x31F64EC2 EQ PUSH2 0x37A2 JUMPI DUP2 PUSH4 0x333431FD EQ PUSH2 0x3783 JUMPI DUP2 PUSH4 0x33421C38 EQ PUSH2 0x368E JUMPI DUP2 PUSH4 0x3659CFE6 EQ PUSH2 0x35F5 JUMPI DUP2 PUSH4 0x3BC4AC0A EQ PUSH2 0x35CF JUMPI DUP2 PUSH4 0x3DBC50A9 EQ PUSH2 0x357B JUMPI DUP2 PUSH4 0x3F4BA83A EQ PUSH2 0x34FE JUMPI DUP2 PUSH4 0x4017936A EQ PUSH2 0x34B9 JUMPI DUP2 PUSH4 0x407F0E34 EQ PUSH2 0x349A JUMPI DUP2 PUSH4 0x471A80E3 EQ PUSH2 0x3435 JUMPI DUP2 PUSH4 0x4B746001 EQ PUSH2 0x33E8 JUMPI DUP2 PUSH4 0x4D977E78 EQ PUSH2 0x33C9 JUMPI DUP2 PUSH4 0x4E1F907A EQ PUSH2 0x339F JUMPI DUP2 PUSH4 0x4F0F27EE EQ PUSH2 0x3380 JUMPI DUP2 PUSH4 0x4F1EF286 EQ PUSH2 0x328C JUMPI DUP2 PUSH4 0x5210570C EQ PUSH2 0x3264 JUMPI DUP2 PUSH4 0x5241271C EQ PUSH2 0x3235 JUMPI DUP2 PUSH4 0x52D1902D EQ PUSH2 0x315F JUMPI DUP2 PUSH4 0x543AEB48 EQ PUSH2 0x3139 JUMPI DUP2 PUSH4 0x54A73C62 EQ PUSH2 0x30D7 JUMPI DUP2 PUSH4 0x57271F4D EQ PUSH2 0x30A9 JUMPI DUP2 PUSH4 0x5C616A73 EQ PUSH2 0x2DFF JUMPI DUP2 PUSH4 0x5C975ABB EQ PUSH2 0x2DD9 JUMPI DUP2 PUSH4 0x5D65D045 EQ PUSH2 0x2DA5 JUMPI DUP2 PUSH4 0x5E1E8928 EQ PUSH2 0x2D41 JUMPI DUP2 PUSH4 0x5E2A6065 EQ PUSH2 0x2D25 JUMPI DUP2 PUSH4 0x60009E0B EQ PUSH2 0x2CFB JUMPI DUP2 PUSH4 0x647846A5 EQ PUSH2 0x2CD1 JUMPI DUP2 PUSH4 0x662013F4 EQ PUSH2 0x2CAD JUMPI DUP2 PUSH4 0x68274357 EQ PUSH2 0x2C82 JUMPI DUP2 PUSH4 0x6B5488DF EQ PUSH2 0x2C63 JUMPI DUP2 PUSH4 0x70713468 EQ PUSH2 0x2C3D JUMPI DUP2 PUSH4 0x71820F12 EQ PUSH2 0x2BD6 JUMPI DUP2 PUSH4 0x7554FFFD EQ PUSH2 0x2BB7 JUMPI DUP2 PUSH4 0x7750BA0C EQ PUSH2 0x2B91 JUMPI DUP2 PUSH4 0x79F9A91C EQ PUSH2 0x2B72 JUMPI DUP2 PUSH4 0x7A193C31 EQ PUSH2 0x2B53 JUMPI DUP2 PUSH4 0x7A4FF1D9 EQ PUSH2 0x2B2D JUMPI DUP2 PUSH4 0x7A727FE8 EQ PUSH2 0x2B0E JUMPI DUP2 PUSH4 0x7AD2819C EQ PUSH2 0x2A9D JUMPI DUP2 PUSH4 0x7AF5758C EQ PUSH2 0x2A77 JUMPI DUP2 PUSH4 0x7C287999 EQ PUSH2 0x2A0D JUMPI DUP2 PUSH4 0x7CBA2383 EQ PUSH2 0x29E7 JUMPI DUP2 PUSH4 0x7D8E0314 EQ PUSH2 0x29B8 JUMPI DUP2 PUSH4 0x7DC4E77F EQ PUSH2 0x2875 JUMPI DUP2 PUSH4 0x7F01C715 EQ PUSH2 0x284B JUMPI DUP2 PUSH4 0x826FCD58 EQ PUSH2 0x282A JUMPI DUP2 PUSH4 0x82A5792C EQ PUSH2 0x2750 JUMPI DUP2 PUSH4 0x8456CB59 EQ PUSH2 0x26B7 JUMPI DUP2 PUSH4 0x8CFA4241 EQ PUSH2 0x2698 JUMPI DUP2 PUSH4 0x8D7A72F3 EQ PUSH2 0x2679 JUMPI DUP2 PUSH4 0x904AA85B EQ PUSH2 0x265A JUMPI DUP2 PUSH4 0x9195C85B EQ PUSH2 0x2639 JUMPI DUP2 PUSH4 0x91F388D8 EQ PUSH2 0x25CD JUMPI DUP2 PUSH4 0x979D9A88 EQ PUSH2 0x215F JUMPI DUP2 PUSH4 0x9839EE85 EQ PUSH2 0x1F72 JUMPI DUP2 PUSH4 0x9853C35A EQ PUSH2 0x1F48 JUMPI DUP2 PUSH4 0x9ABB14C9 EQ PUSH2 0x1E7E JUMPI DUP2 PUSH4 0x9AD6659D EQ PUSH2 0x1E49 JUMPI DUP2 PUSH4 0x9BDD7CCE EQ PUSH2 0x1C14 JUMPI DUP2 PUSH4 0x9CABFC00 EQ PUSH2 0x1BC7 JUMPI DUP2 PUSH4 0x9FD0506D EQ PUSH2 0x1B9A JUMPI DUP2 PUSH4 0xA8E9AC30 EQ PUSH2 0x1B78 JUMPI DUP2 PUSH4 0xAC4FC1A8 EQ PUSH2 0x1A48 JUMPI DUP2 PUSH4 0xAEA038DC EQ PUSH2 0x1A29 JUMPI DUP2 PUSH4 0xB3903B39 EQ PUSH2 0x19F2 JUMPI DUP2 PUSH4 0xB7AEF837 EQ PUSH2 0x1894 JUMPI DUP2 PUSH4 0xBAD25A21 EQ PUSH2 0x171C JUMPI DUP2 PUSH4 0xBB4872DE EQ PUSH2 0x16F9 JUMPI DUP2 PUSH4 0xBE22B4E1 EQ PUSH2 0x15F0 JUMPI DUP2 PUSH4 0xBECACA6B EQ PUSH2 0x15CA JUMPI DUP2 PUSH4 0xC00F538D EQ PUSH2 0x15A4 JUMPI DUP2 PUSH4 0xC039CC69 EQ PUSH2 0x155E JUMPI DUP2 PUSH4 0xC6E06D89 EQ PUSH2 0x1375 JUMPI DUP2 PUSH4 0xC84353C9 EQ PUSH2 0x134F JUMPI DUP2 PUSH4 0xCF351C1D EQ PUSH2 0x1307 JUMPI DUP2 PUSH4 0xD1A0FAA0 EQ PUSH2 0x12E9 JUMPI DUP2 PUSH4 0xD8233ECC EQ PUSH2 0x1289 JUMPI DUP2 PUSH4 0xDB796072 EQ PUSH2 0x124A JUMPI DUP2 PUSH4 0xDE08160F EQ PUSH2 0x120D JUMPI DUP2 PUSH4 0xDE8D520A EQ PUSH2 0x11DC JUMPI DUP2 PUSH4 0xE4012945 EQ PUSH2 0x104C JUMPI DUP2 PUSH4 0xE4C0AAF4 EQ PUSH2 0x1005 JUMPI DUP2 PUSH4 0xE6A683E0 EQ PUSH2 0xFBD JUMPI DUP2 PUSH4 0xE6B1627C EQ PUSH2 0xF7A JUMPI DUP2 PUSH4 0xE7C25978 EQ PUSH2 0xF56 JUMPI DUP2 PUSH4 0xE8859A15 EQ PUSH2 0xF3B JUMPI DUP2 PUSH4 0xEC629679 EQ PUSH2 0xD0E JUMPI DUP2 PUSH4 0xF13F4054 EQ PUSH2 0xCE4 JUMPI DUP2 PUSH4 0xF26114AA EQ PUSH2 0xC7B JUMPI DUP2 PUSH4 0xF2808778 EQ PUSH2 0xC55 JUMPI DUP2 PUSH4 0xF30B5614 EQ PUSH2 0xC36 JUMPI DUP2 PUSH4 0xF375CFBA EQ PUSH2 0xC17 JUMPI DUP2 PUSH4 0xF5319CC8 EQ PUSH2 0x98D JUMPI POP DUP1 PUSH4 0xFA6E83BD EQ PUSH2 0x96E JUMPI DUP1 PUSH4 0xFA79589E EQ PUSH2 0x91C JUMPI DUP1 PUSH4 0xFB3BFCEA EQ PUSH2 0x7A5 JUMPI DUP1 PUSH4 0xFCF207D4 EQ PUSH2 0x5D0 JUMPI PUSH4 0xFDA70F8B EQ PUSH2 0x5AF JUMPI POP PUSH2 0xE JUMP JUMPDEST CALLVALUE PUSH2 0x5CD JUMPI DUP1 PUSH1 0x3 NOT CALLDATASIZE ADD SLT PUSH2 0x5CD JUMPI PUSH1 0x20 PUSH2 0x16E SLOAD PUSH1 0x40 MLOAD SWAP1 DUP2 MSTORE RETURN JUMPDEST DUP1 REVERT JUMPDEST PUSH2 0x6CC PUSH2 0x5DE CALLDATASIZE PUSH1 0x4 PUSH2 0x43A8 JUMP JUMPDEST SWAP4 SWAP2 PUSH1 0x40 SWAP4 SWAP2 SWAP4 MLOAD SWAP2 PUSH2 0x5F2 PUSH1 0xC0 DUP5 PUSH2 0x43EA JUMP JUMPDEST DUP3 MSTORE PUSH1 0x20 DUP3 ADD SWAP1 DUP2 MSTORE PUSH1 0x40 DUP3 ADD SWAP5 CALLVALUE DUP7 MSTORE PUSH1 0x60 DUP4 ADD CALLER DUP2 MSTORE PUSH1 0x80 DUP5 ADD SWAP6 PUSH1 0x1 DUP1 PUSH1 0xA0 SHL SUB DUP1 SWAP2 AND DUP8 MSTORE DUP1 PUSH1 0xA0 DUP7 ADD SWAP4 AND DUP4 MSTORE PUSH2 0x62C PUSH2 0x4DF9 JUMP JUMPDEST PUSH2 0x634 PUSH2 0x5BC4 JUMP JUMPDEST PUSH2 0x63C PUSH2 0x5AA2 JUMP JUMPDEST PUSH2 0x691 PUSH2 0x679 PUSH2 0x64A PUSH2 0x59E6 JUMP JUMPDEST SWAP2 SWAP1 PUSH2 0x66D PUSH2 0x65A DUP11 MLOAD DUP6 PUSH2 0x4924 JUMP JUMPDEST MLOAD SWAP4 PUSH2 0x667 DUP6 DUP13 MLOAD PUSH2 0x528D JUMP JUMPDEST DUP3 PUSH2 0x4ECF JUMP JUMPDEST SWAP2 DUP5 DUP12 MLOAD DUP12 MLOAD SWAP1 PUSH2 0x52E4 JUMP JUMPDEST PUSH2 0x68C PUSH8 0xDE0B6B3A7640000 DUP8 MLOAD PUSH2 0x4A4B JUMP JUMPDEST PUSH2 0x4A5E JUMP JUMPDEST SWAP4 PUSH2 0x69A PUSH2 0x4DAA JUMP JUMPDEST POP PUSH2 0x6C1 DUP3 DUP5 MLOAD AND DUP7 DUP5 DUP8 MLOAD AND PUSH2 0x6B4 DUP11 MLOAD PUSH2 0x176 PUSH2 0x428C JUMP JUMPDEST SWAP1 SLOAD SWAP1 PUSH1 0x3 SHL SHR SWAP3 PUSH2 0x4F4D JUMP JUMPDEST SWAP7 SWAP2 DUP3 SWAP10 SWAP2 SWAP10 PUSH2 0x4901 JUMP JUMPDEST SWAP9 DUP11 MLOAD DUP1 DUP12 GT PUSH2 0x787 JUMPI POP DUP10 ISZERO PUSH2 0x775 JUMPI PUSH1 0x40 SWAP11 PUSH2 0x756 DUP6 SWAP5 PUSH2 0x75C SWAP5 DUP14 SWAP5 DUP8 DUP14 DUP14 PUSH2 0x769 SWAP16 DUP4 DUP15 SWAP2 MLOAD SWAP2 MLOAD AND SWAP1 PUSH32 0xB1C19484081F58B25DE95EB3695CAEA3C2167249920A6439EC0253054D343E73 DUP12 DUP7 DUP9 MLOAD AND SWAP5 PUSH2 0x747 DUP12 MLOAD SWAP2 DUP1 MLOAD SWAP1 PUSH1 0x20 DUP2 ADD MLOAD PUSH1 0x40 PUSH1 0x60 SWAP1 DUP4 ADD MLOAD SWAP3 ADD MLOAD SWAP3 PUSH1 0x40 MLOAD SWAP7 DUP8 SWAP7 DUP8 PUSH2 0x4DD1 JUMP JUMPDEST SUB SWAP1 LOG4 MLOAD SWAP4 MLOAD SWAP2 MLOAD AND SWAP3 PUSH2 0x51F4 JUMP JUMPDEST MLOAD PUSH2 0x4B09 JUMP JUMPDEST SWAP3 MLOAD AND SWAP3 MLOAD AND SWAP2 DUP1 PUSH2 0x5527 JUMP JUMPDEST DUP3 MLOAD SWAP2 DUP3 MSTORE PUSH1 0x20 DUP3 ADD MSTORE RETURN JUMPDEST PUSH1 0x40 MLOAD PUSH4 0xF3E39B5D PUSH1 0xE0 SHL DUP2 MSTORE PUSH1 0x4 SWAP1 REVERT JUMPDEST PUSH1 0x44 SWAP1 DUP12 PUSH1 0x40 MLOAD SWAP2 PUSH4 0xB63F1A7 PUSH1 0xE0 SHL DUP4 MSTORE PUSH1 0x4 DUP4 ADD MSTORE PUSH1 0x24 DUP3 ADD MSTORE REVERT JUMPDEST POP PUSH1 0x60 CALLDATASIZE PUSH1 0x3 NOT ADD SLT PUSH2 0x5CD JUMPI PUSH1 0x1 PUSH1 0x1 PUSH1 0xA0 SHL SUB PUSH1 0x24 CALLDATALOAD DUP2 DUP2 AND SWAP1 DUP2 SWAP1 SUB PUSH2 0x917 JUMPI PUSH1 0x44 CALLDATALOAD DUP3 DUP2 AND DUP1 SWAP2 SUB PUSH2 0x917 JUMPI PUSH2 0x877 SWAP1 PUSH1 0x40 MLOAD PUSH2 0x7E7 PUSH1 0xA0 DUP3 PUSH2 0x43EA JUMP JUMPDEST PUSH1 0x4 CALLDATALOAD DUP2 MSTORE PUSH1 0x20 DUP2 ADD SWAP2 CALLVALUE DUP4 MSTORE PUSH1 0x40 DUP3 ADD CALLER DUP2 MSTORE PUSH1 0x60 DUP4 ADD SWAP6 DUP7 MSTORE PUSH1 0x80 DUP4 ADD SWAP2 DUP3 MSTORE PUSH2 0x811 PUSH2 0x4DF9 JUMP JUMPDEST PUSH2 0x819 PUSH2 0x5BC4 JUMP JUMPDEST PUSH8 0xDE0B6B3A7640000 PUSH2 0x84B PUSH2 0x845 PUSH2 0x83C PUSH2 0x833 PUSH2 0x4D10 JUMP JUMPDEST PUSH2 0x17B SLOAD PUSH2 0x4ECF JUMP JUMPDEST DUP8 MLOAD SWAP3 SWAP2 PUSH2 0x4F12 JUMP JUMPDEST SWAP1 PUSH2 0x4A4B JUMP JUMPDEST DIV SWAP7 PUSH2 0x855 PUSH2 0x4DAA JUMP JUMPDEST POP PUSH2 0x86C DUP2 DUP4 MLOAD AND DUP10 DUP4 DUP7 MLOAD AND PUSH2 0x16E SLOAD SWAP3 PUSH2 0x4F4D JUMP JUMPDEST SWAP6 SWAP2 DUP11 SWAP9 SWAP2 SWAP9 PUSH2 0x4901 JUMP JUMPDEST SWAP8 DUP7 MLOAD DUP1 DUP11 GT PUSH2 0x8F9 JUMPI POP DUP9 ISZERO PUSH2 0x775 JUMPI DUP9 PUSH2 0x769 SWAP8 PUSH2 0x756 PUSH2 0x75C SWAP4 PUSH1 0x40 SWAP14 DUP8 DUP1 SWAP8 DUP13 DUP3 DUP13 MLOAD AND PUSH32 0x73EF11A21CABAB55CA448E6E2AE4B60BDA75ED8109E2496084C92DC17B8334DB DUP10 DUP6 DUP9 MLOAD AND SWAP4 PUSH2 0x8EC DUP7 MLOAD SWAP2 DUP1 MLOAD SWAP1 PUSH1 0x20 DUP2 ADD MLOAD PUSH1 0x40 PUSH1 0x60 SWAP1 DUP4 ADD MLOAD SWAP3 ADD MLOAD SWAP3 PUSH1 0x40 MLOAD SWAP7 DUP8 SWAP7 DUP8 PUSH2 0x4DD1 JUMP JUMPDEST SUB SWAP1 LOG3 MLOAD SWAP3 MLOAD AND SWAP2 PUSH2 0x4E1B JUMP JUMPDEST PUSH1 0x44 SWAP1 DUP11 PUSH1 0x40 MLOAD SWAP2 PUSH4 0xB63F1A7 PUSH1 0xE0 SHL DUP4 MSTORE PUSH1 0x4 DUP4 ADD MSTORE PUSH1 0x24 DUP3 ADD MSTORE REVERT JUMPDEST PUSH1 0x0 DUP1 REVERT JUMPDEST POP CALLVALUE PUSH2 0x5CD JUMPI PUSH1 0x20 CALLDATASIZE PUSH1 0x3 NOT ADD SLT PUSH2 0x5CD JUMPI PUSH1 0x20 PUSH2 0x966 PUSH2 0x958 PUSH1 0x4 CALLDATALOAD PUSH2 0x941 PUSH2 0x59E6 JUMP JUMPDEST SWAP1 PUSH2 0x960 PUSH2 0x94F DUP5 DUP5 PUSH2 0x4924 JUMP JUMPDEST MLOAD SWAP5 DUP6 SWAP4 PUSH2 0x4938 JUMP JUMPDEST SWAP6 SWAP1 SWAP5 PUSH2 0x593E JUMP JUMPDEST SWAP1 PUSH2 0x531F JUMP JUMPDEST PUSH1 0x40 MLOAD SWAP1 DUP2 MSTORE RETURN JUMPDEST POP CALLVALUE PUSH2 0x5CD JUMPI DUP1 PUSH1 0x3 NOT CALLDATASIZE ADD SLT PUSH2 0x5CD JUMPI PUSH1 0x20 PUSH2 0x16C SLOAD PUSH1 0x40 MLOAD SWAP1 DUP2 MSTORE RETURN JUMPDEST SWAP1 POP PUSH2 0x99A CALLDATASIZE PUSH1 0x4 PUSH2 0x42CE JUMP JUMPDEST SWAP4 PUSH2 0x9AB PUSH1 0x40 SWAP5 SWAP3 SWAP5 MLOAD SWAP7 DUP8 PUSH2 0x43EA JUMP JUMPDEST DUP6 MSTORE PUSH1 0x20 DUP6 ADD MSTORE PUSH1 0x40 DUP5 ADD MSTORE CALLVALUE PUSH1 0x60 DUP5 ADD MSTORE CALLER PUSH1 0x80 DUP5 ADD MSTORE PUSH1 0x1 PUSH1 0x1 PUSH1 0xA0 SHL SUB SWAP1 DUP2 AND PUSH1 0xA0 DUP5 ADD MSTORE AND PUSH1 0xC0 DUP3 ADD MSTORE PUSH2 0x9E1 PUSH2 0x4DF9 JUMP JUMPDEST PUSH2 0x9E9 PUSH2 0x5BC4 JUMP JUMPDEST PUSH2 0x9F1 PUSH2 0x5AA2 JUMP JUMPDEST PUSH2 0x9F9 PUSH2 0x59E6 JUMP JUMPDEST SWAP3 SWAP1 PUSH2 0xA4B PUSH2 0xA1F PUSH2 0xA0C DUP6 MLOAD DUP8 PUSH2 0x4924 JUMP JUMPDEST MLOAD SWAP6 PUSH2 0xA19 DUP8 DUP8 MLOAD PUSH2 0x528D JUMP JUMPDEST DUP4 PUSH2 0x4ECF JUMP JUMPDEST SWAP1 PUSH2 0xA30 DUP3 DUP3 DUP7 PUSH1 0x20 DUP11 ADD MLOAD PUSH2 0x5863 JUMP JUMPDEST PUSH1 0x20 DUP7 ADD MLOAD PUSH8 0xDE0B6B3A7640000 SWAP4 DUP5 SWAP2 PUSH2 0x845 DUP6 DUP6 PUSH2 0x4F12 JUMP JUMPDEST DIV SWAP4 DUP5 ISZERO PUSH2 0x775 JUMPI PUSH2 0xA95 SWAP4 PUSH2 0xA8B PUSH2 0xA81 DUP11 PUSH2 0xA7C PUSH1 0x20 DUP13 ADD MLOAD PUSH2 0x845 DUP9 PUSH2 0xA77 DUP12 PUSH2 0x163 SLOAD PUSH2 0x4B09 JUMP JUMPDEST PUSH2 0x4B09 JUMP JUMPDEST PUSH2 0x4A4B JUMP JUMPDEST PUSH2 0x166 SLOAD SWAP1 PUSH2 0x4A5E JUMP JUMPDEST DIV SWAP8 DUP9 DUP9 MLOAD PUSH2 0x52E4 JUMP JUMPDEST PUSH1 0x40 DUP4 ADD MLOAD DUP1 DUP6 LT PUSH2 0xBF9 JUMPI POP PUSH2 0xAD1 SWAP1 PUSH2 0xAAE PUSH2 0x4DAA JUMP JUMPDEST POP PUSH1 0x80 DUP5 ADD MLOAD PUSH1 0xC0 DUP6 ADD MLOAD PUSH2 0x172 SLOAD SWAP3 SWAP2 PUSH1 0x1 PUSH1 0x1 PUSH1 0xA0 SHL SUB SWAP2 DUP3 AND SWAP2 AND PUSH2 0x4F4D JUMP JUMPDEST SWAP2 SWAP4 SWAP1 SWAP3 PUSH1 0x60 DUP3 ADD MLOAD DUP1 DUP7 GT PUSH2 0xBDA JUMPI POP SWAP2 DUP2 PUSH2 0xB8D PUSH2 0xBD6 SWAP6 SWAP5 PUSH2 0xBB9 SWAP5 MLOAD PUSH1 0x1 DUP1 PUSH1 0xA0 SHL SUB PUSH1 0x80 DUP6 ADD MLOAD AND PUSH1 0x1 DUP1 PUSH1 0xA0 SHL SUB PUSH1 0xA0 DUP7 ADD MLOAD AND SWAP2 PUSH32 0xF4287B96E269F789F166DB491B07456566F468352771E466CE088E98D6007A0C DUP13 PUSH1 0x20 DUP9 ADD MLOAD PUSH2 0xB55 DUP11 MLOAD DUP12 PUSH1 0x20 DUP2 ADD MLOAD PUSH1 0x60 PUSH1 0x40 DUP4 ADD MLOAD SWAP3 ADD MLOAD SWAP3 PUSH1 0x40 MLOAD SWAP7 DUP8 SWAP7 DUP8 PUSH2 0x4DD1 JUMP JUMPDEST SUB SWAP1 LOG4 PUSH2 0xB74 PUSH1 0x20 DUP5 ADD MLOAD DUP3 PUSH1 0x1 DUP1 PUSH1 0xA0 SHL SUB PUSH1 0x80 DUP8 ADD MLOAD AND SWAP2 PUSH2 0x54BC JUMP JUMPDEST DUP3 MLOAD PUSH1 0xA0 DUP5 ADD MLOAD PUSH1 0x1 PUSH1 0x1 PUSH1 0xA0 SHL SUB AND SWAP2 SWAP1 DUP11 SWAP1 PUSH2 0x51F4 JUMP JUMPDEST PUSH2 0xB9B DUP7 PUSH1 0x60 DUP4 ADD MLOAD PUSH2 0x4B09 JUMP JUMPDEST PUSH1 0x80 DUP3 ADD MLOAD PUSH1 0xC0 SWAP1 SWAP3 ADD MLOAD PUSH1 0x1 PUSH1 0x1 PUSH1 0xA0 SHL SUB SWAP1 DUP2 AND SWAP3 AND DUP1 PUSH2 0x5527 JUMP JUMPDEST PUSH1 0x40 MLOAD SWAP4 DUP5 SWAP4 DUP5 PUSH1 0x40 SWAP2 SWAP5 SWAP4 SWAP3 PUSH1 0x60 DUP3 ADD SWAP6 DUP3 MSTORE PUSH1 0x20 DUP3 ADD MSTORE ADD MSTORE JUMP JUMPDEST SUB SWAP1 RETURN JUMPDEST PUSH1 0x44 SWAP1 DUP5 MLOAD PUSH1 0x40 MLOAD SWAP2 PUSH4 0xB63F1A7 PUSH1 0xE0 SHL DUP4 MSTORE PUSH1 0x4 DUP4 ADD MSTORE PUSH1 0x24 DUP3 ADD MSTORE REVERT JUMPDEST PUSH1 0x44 SWAP1 DUP6 PUSH1 0x40 MLOAD SWAP2 PUSH4 0x272E3F59 PUSH1 0xE2 SHL DUP4 MSTORE PUSH1 0x4 DUP4 ADD MSTORE PUSH1 0x24 DUP3 ADD MSTORE REVERT JUMPDEST DUP3 CALLVALUE PUSH2 0x5CD JUMPI DUP1 PUSH1 0x3 NOT CALLDATASIZE ADD SLT PUSH2 0x5CD JUMPI PUSH1 0x20 PUSH2 0x173 SLOAD PUSH1 0x40 MLOAD SWAP1 DUP2 MSTORE RETURN JUMPDEST DUP3 CALLVALUE PUSH2 0x5CD JUMPI DUP1 PUSH1 0x3 NOT CALLDATASIZE ADD SLT PUSH2 0x5CD JUMPI PUSH1 0x20 PUSH2 0x163 SLOAD PUSH1 0x40 MLOAD SWAP1 DUP2 MSTORE RETURN JUMPDEST DUP3 CALLVALUE PUSH2 0x5CD JUMPI PUSH1 0x20 CALLDATASIZE PUSH1 0x3 NOT ADD SLT PUSH2 0x5CD JUMPI PUSH2 0xC6F PUSH2 0x5B36 JUMP JUMPDEST PUSH1 0x4 CALLDATALOAD PUSH2 0x16E SSTORE PUSH1 0x40 MLOAD RETURN JUMPDEST SWAP1 POP CALLVALUE PUSH2 0xCE0 JUMPI CALLDATASIZE PUSH1 0x3 NOT ADD SLT PUSH2 0x5CD JUMPI PUSH2 0xC94 PUSH2 0x5B36 JUMP JUMPDEST PUSH1 0x40 MLOAD PUSH4 0x79308A55 PUSH1 0xE1 SHL PUSH1 0x20 DUP3 ADD MSTORE PUSH2 0xCDA SWAP1 PUSH2 0xCC8 DUP2 PUSH2 0xCBA PUSH1 0x4 PUSH1 0x24 DUP4 ADD PUSH2 0x58A0 JUMP JUMPDEST SUB PUSH1 0x1F NOT DUP2 ADD DUP4 MSTORE DUP3 PUSH2 0x43EA JUMP JUMPDEST PUSH2 0x21D SLOAD PUSH1 0x1 PUSH1 0x1 PUSH1 0xA0 SHL SUB AND PUSH2 0x5395 JUMP JUMPDEST POP PUSH1 0x40 MLOAD RETURN JUMPDEST POP DUP1 REVERT JUMPDEST DUP3 CALLVALUE PUSH2 0x5CD JUMPI DUP1 PUSH1 0x3 NOT CALLDATASIZE ADD SLT PUSH2 0x5CD JUMPI PUSH2 0x162 SLOAD PUSH1 0x40 MLOAD PUSH1 0x1 PUSH1 0x1 PUSH1 0xA0 SHL SUB SWAP1 SWAP2 AND DUP2 MSTORE PUSH1 0x20 SWAP1 RETURN JUMPDEST DUP3 PUSH2 0xD1A CALLDATASIZE PUSH1 0x4 PUSH2 0x43A8 JUMP JUMPDEST SWAP1 SWAP3 SWAP2 PUSH1 0x40 MLOAD SWAP3 PUSH2 0xD2C PUSH1 0xC0 DUP6 PUSH2 0x43EA JUMP JUMPDEST DUP4 MSTORE PUSH1 0x20 DUP4 ADD SWAP1 DUP2 MSTORE PUSH1 0x40 DUP4 ADD SWAP3 CALLVALUE DUP5 MSTORE PUSH1 0x60 DUP2 ADD SWAP3 CALLER DUP5 MSTORE PUSH1 0x80 DUP3 ADD SWAP4 PUSH1 0x1 DUP1 PUSH1 0xA0 SHL SUB DUP1 SWAP8 AND DUP6 MSTORE DUP7 PUSH1 0xA0 DUP5 ADD SWAP3 AND DUP3 MSTORE PUSH2 0xD67 PUSH2 0x4DF9 JUMP JUMPDEST PUSH2 0xD6F PUSH2 0x5BC4 JUMP JUMPDEST PUSH2 0xD77 PUSH2 0x5AA2 JUMP JUMPDEST PUSH2 0xD7F PUSH2 0x59E6 JUMP JUMPDEST SWAP8 SWAP1 SWAP9 PUSH2 0xD8D DUP6 MLOAD DUP11 PUSH2 0x4924 JUMP JUMPDEST MLOAD SWAP10 PUSH2 0xD9A DUP12 DUP8 MLOAD PUSH2 0x528D JUMP JUMPDEST PUSH2 0xDA7 DUP11 PUSH2 0x17C SLOAD PUSH2 0x4ECF JUMP JUMPDEST POP POP PUSH2 0xDBD PUSH2 0xDB7 DUP9 MLOAD SWAP12 PUSH2 0x4938 JUMP JUMPDEST SWAP1 PUSH2 0x4F12 JUMP JUMPDEST SWAP1 PUSH8 0xDE0B6B3A763FFFF NOT DUP2 ADD SWAP1 DUP2 GT PUSH2 0xF27 JUMPI SWAP1 PUSH2 0xE0F DUP13 PUSH2 0x68C PUSH2 0xDF1 DUP15 SWAP16 PUSH2 0xE40 SWAP14 SWAP15 SWAP16 PUSH2 0xE15 SWAP8 PUSH2 0x68C SWAP2 PUSH2 0x4A4B JUMP JUMPDEST SWAP4 PUSH2 0xE09 PUSH8 0xDE0B6B3A7640000 SWAP2 PUSH2 0x68C DUP4 DUP9 PUSH2 0x4A4B JUMP JUMPDEST SWAP16 PUSH2 0x4A4B JUMP JUMPDEST SWAP1 PUSH2 0x4901 JUMP JUMPDEST SWAP8 PUSH2 0xE1E PUSH2 0x4DAA JUMP JUMPDEST POP PUSH2 0xE35 DUP4 DUP6 MLOAD AND DUP11 DUP6 DUP9 MLOAD AND PUSH2 0x174 SLOAD SWAP3 PUSH2 0x4F4D JUMP JUMPDEST SWAP8 SWAP2 DUP12 SWAP11 SWAP2 SWAP11 PUSH2 0x4901 JUMP JUMPDEST SWAP11 DUP1 MLOAD DUP1 DUP14 GT PUSH2 0xF09 JUMPI POP DUP12 ISZERO PUSH2 0x775 JUMPI PUSH2 0x756 DUP10 DUP7 SWAP6 DUP16 SWAP6 DUP16 SWAP6 PUSH2 0xBD6 SWAP16 SWAP1 PUSH2 0xEFD PUSH2 0xBB9 SWAP16 SWAP10 DUP16 SWAP4 PUSH2 0x75C SWAP12 DUP16 DUP8 SWAP1 DUP16 SWAP8 PUSH32 0x3D9B2786930E9C1E492D52AF3CC38BD2FFE9405D82B4997053A26A8956056200 SWAP1 DUP16 PUSH2 0xEF0 DUP9 SWAP2 DUP13 DUP1 DUP14 MLOAD SWAP8 MLOAD AND SWAP8 MLOAD AND SWAP8 MLOAD SWAP4 DUP1 MLOAD PUSH1 0x20 DUP3 ADD MLOAD SWAP1 PUSH1 0x60 PUSH1 0x40 DUP5 ADD MLOAD SWAP4 ADD MLOAD SWAP4 PUSH1 0x40 MLOAD SWAP8 DUP9 SWAP8 DUP9 SWAP4 SWAP1 SWAP8 SWAP7 SWAP6 SWAP3 PUSH1 0xC0 SWAP6 SWAP3 PUSH1 0xE0 DUP7 ADD SWAP10 DUP7 MSTORE PUSH1 0x20 DUP7 ADD MSTORE PUSH1 0x40 DUP6 ADD MSTORE PUSH1 0x60 DUP5 ADD MSTORE PUSH1 0x80 DUP4 ADD MSTORE PUSH1 0xA0 DUP3 ADD MSTORE ADD MSTORE JUMP JUMPDEST SUB SWAP1 LOG4 DUP5 DUP7 MLOAD AND SWAP2 PUSH2 0x4E1B JUMP JUMPDEST MLOAD SWAP4 MLOAD SWAP2 MLOAD AND SWAP3 PUSH2 0x51F4 JUMP JUMPDEST PUSH1 0x44 SWAP1 DUP14 PUSH1 0x40 MLOAD SWAP2 PUSH4 0xB63F1A7 PUSH1 0xE0 SHL DUP4 MSTORE PUSH1 0x4 DUP4 ADD MSTORE PUSH1 0x24 DUP3 ADD MSTORE REVERT JUMPDEST PUSH4 0x4E487B71 PUSH1 0xE0 SHL DUP4 MSTORE PUSH1 0x11 PUSH1 0x4 MSTORE PUSH1 0x24 DUP4 REVERT JUMPDEST DUP3 CALLVALUE PUSH2 0x5CD JUMPI DUP1 PUSH1 0x3 NOT CALLDATASIZE ADD SLT PUSH2 0x5CD JUMPI PUSH1 0x20 PUSH2 0x966 PUSH2 0x5901 JUMP JUMPDEST DUP3 CALLVALUE PUSH2 0x5CD JUMPI DUP1 PUSH1 0x3 NOT CALLDATASIZE ADD SLT PUSH2 0x5CD JUMPI PUSH1 0x20 PUSH1 0xFF PUSH2 0x17D SLOAD AND PUSH1 0x40 MLOAD SWAP1 ISZERO ISZERO DUP2 MSTORE RETURN JUMPDEST DUP3 CALLVALUE PUSH2 0x5CD JUMPI PUSH1 0x20 CALLDATASIZE PUSH1 0x3 NOT ADD SLT PUSH2 0x5CD JUMPI PUSH1 0x4 CALLDATALOAD SWAP1 PUSH2 0x1B4 SWAP1 DUP2 SLOAD DUP4 LT ISZERO PUSH2 0x5CD JUMPI PUSH1 0x40 PUSH2 0xFA9 DUP5 DUP5 PUSH2 0x43CE JUMP JUMPDEST POP PUSH1 0x1 DUP2 SLOAD SWAP2 ADD SLOAD DUP3 MLOAD SWAP2 DUP3 MSTORE PUSH1 0x20 DUP3 ADD MSTORE RETURN JUMPDEST DUP3 CALLVALUE PUSH2 0x5CD JUMPI PUSH1 0x20 CALLDATASIZE PUSH1 0x3 NOT ADD SLT PUSH2 0x5CD JUMPI PUSH1 0x4 CALLDATALOAD PUSH1 0x1 PUSH1 0x1 PUSH1 0xA0 SHL SUB DUP2 AND SWAP1 DUP2 SWAP1 SUB PUSH2 0x917 JUMPI PUSH2 0xFEC PUSH2 0x5B36 JUMP JUMPDEST PUSH2 0x21D DUP1 SLOAD PUSH1 0x1 PUSH1 0x1 PUSH1 0xA0 SHL SUB NOT AND SWAP1 SWAP2 OR SWAP1 SSTORE PUSH1 0x40 MLOAD RETURN JUMPDEST DUP3 CALLVALUE PUSH2 0x5CD JUMPI PUSH1 0x20 CALLDATASIZE PUSH1 0x3 NOT ADD SLT PUSH2 0x5CD JUMPI PUSH1 0x4 CALLDATALOAD PUSH1 0x1 PUSH1 0x1 PUSH1 0xA0 SHL SUB DUP2 AND SWAP1 DUP2 SWAP1 SUB PUSH2 0xCE0 JUMPI PUSH2 0x1034 PUSH2 0x5B36 JUMP JUMPDEST PUSH1 0x1 PUSH1 0x1 PUSH1 0x60 SHL SUB PUSH1 0xA0 SHL PUSH1 0x97 SLOAD AND OR PUSH1 0x97 SSTORE PUSH1 0x40 MLOAD RETURN JUMPDEST DUP3 CALLVALUE PUSH2 0x5CD JUMPI PUSH1 0x60 CALLDATASIZE PUSH1 0x3 NOT ADD SLT PUSH2 0x917 JUMPI PUSH1 0x44 CALLDATALOAD PUSH1 0x1 PUSH1 0x1 PUSH1 0xA0 SHL SUB DUP2 DUP2 AND SWAP3 SWAP2 DUP4 SWAP1 SUB PUSH2 0x917 JUMPI PUSH1 0x40 MLOAD SWAP3 PUSH2 0x1084 PUSH1 0xA0 DUP6 PUSH2 0x43EA JUMP JUMPDEST PUSH1 0x4 CALLDATALOAD DUP5 MSTORE PUSH1 0x20 DUP5 ADD SWAP3 PUSH1 0x24 CALLDATALOAD DUP5 MSTORE PUSH1 0x40 DUP6 ADD SWAP3 CALLER DUP5 MSTORE PUSH1 0x60 DUP7 ADD SWAP3 DUP4 MSTORE PUSH1 0x80 DUP7 ADD SWAP2 DUP3 MSTORE PUSH2 0x10B1 PUSH2 0x4DF9 JUMP JUMPDEST PUSH2 0x10B9 PUSH2 0x5BC4 JUMP JUMPDEST PUSH2 0x10C1 PUSH2 0x5AA2 JUMP JUMPDEST PUSH8 0xDE0B6B3A7640000 PUSH2 0x10FB PUSH2 0x10E7 PUSH2 0x845 DUP10 PUSH2 0x10F3 PUSH2 0x10DF PUSH2 0x59E6 JUMP JUMPDEST DUP2 SWAP6 SWAP2 PUSH2 0x4ECF JUMP JUMPDEST SWAP3 SWAP1 DUP1 SWAP6 DUP5 SWAP3 MLOAD PUSH2 0x5863 JUMP JUMPDEST DUP11 MLOAD SWAP3 PUSH2 0x4F12 JUMP JUMPDEST DIV SWAP4 DUP5 ISZERO PUSH2 0x775 JUMPI PUSH2 0x1131 SWAP5 PUSH2 0x110F PUSH2 0x4DAA JUMP JUMPDEST POP PUSH2 0x1126 DUP4 DUP4 MLOAD AND DUP3 DUP6 DUP8 MLOAD AND PUSH2 0x16F SLOAD SWAP3 PUSH2 0x4F4D JUMP JUMPDEST SWAP10 SWAP2 DUP4 SWAP9 SWAP2 SWAP9 PUSH2 0x4B09 JUMP JUMPDEST SWAP8 MLOAD DUP1 DUP10 LT PUSH2 0x11BE JUMPI POP SWAP3 DUP1 DUP1 DUP5 PUSH2 0x11B0 DUP13 SWAP9 SWAP6 DUP11 SWAP9 PUSH1 0x40 SWAP15 PUSH2 0x769 SWAP13 DUP16 SWAP11 DUP12 DUP9 DUP1 PUSH32 0x96956E9E47738119037532FCF68A81B25D418EAF754281E005F11FA2D33BFFFB SWAP4 MLOAD AND SWAP4 MLOAD AND SWAP4 PUSH2 0x11A1 DUP7 MLOAD SWAP2 DUP1 MLOAD SWAP1 PUSH1 0x20 DUP2 ADD MLOAD PUSH1 0x40 PUSH1 0x60 SWAP1 DUP4 ADD MLOAD SWAP3 ADD MLOAD SWAP3 PUSH1 0x40 MLOAD SWAP7 DUP8 SWAP7 DUP8 PUSH2 0x4DD1 JUMP JUMPDEST SUB SWAP1 LOG3 MLOAD SWAP1 DUP5 DUP5 MLOAD AND SWAP2 PUSH2 0x54BC JUMP JUMPDEST MLOAD AND SWAP5 MLOAD AND SWAP2 MLOAD AND SWAP3 PUSH2 0x5527 JUMP JUMPDEST PUSH1 0x44 SWAP1 DUP10 PUSH1 0x40 MLOAD SWAP2 PUSH4 0x54CDE313 PUSH1 0xE0 SHL DUP4 MSTORE PUSH1 0x4 DUP4 ADD MSTORE PUSH1 0x24 DUP3 ADD MSTORE REVERT JUMPDEST DUP3 CALLVALUE PUSH2 0x5CD JUMPI DUP1 PUSH1 0x3 NOT CALLDATASIZE ADD SLT PUSH2 0x5CD JUMPI PUSH1 0x20 PUSH2 0x966 PUSH2 0x1202 PUSH2 0x11FD PUSH2 0x4D10 JUMP JUMPDEST PUSH2 0x4938 JUMP JUMPDEST SWAP1 POP PUSH2 0x163 SLOAD PUSH2 0x4B09 JUMP JUMPDEST DUP3 CALLVALUE PUSH2 0x5CD JUMPI PUSH1 0x20 CALLDATASIZE PUSH1 0x3 NOT ADD SLT PUSH2 0x5CD JUMPI PUSH1 0x4 CALLDATALOAD SWAP1 PUSH2 0x176 SWAP1 DUP2 SLOAD DUP4 LT ISZERO PUSH2 0x5CD JUMPI PUSH1 0x20 PUSH2 0x123C DUP5 DUP5 PUSH2 0x428C JUMP JUMPDEST SWAP1 SLOAD PUSH1 0x40 MLOAD SWAP2 PUSH1 0x3 SHL SHR DUP2 MSTORE RETURN JUMPDEST SWAP1 POP CALLVALUE PUSH2 0xCE0 JUMPI CALLDATASIZE PUSH1 0x3 NOT ADD SLT PUSH2 0x5CD JUMPI PUSH2 0x1263 PUSH2 0x5B36 JUMP JUMPDEST PUSH1 0x40 MLOAD PUSH4 0x6DBCB039 PUSH1 0xE1 SHL PUSH1 0x20 DUP3 ADD MSTORE PUSH2 0xCDA SWAP1 PUSH2 0xCC8 DUP2 PUSH2 0xCBA PUSH1 0x4 PUSH1 0x24 DUP4 ADD PUSH2 0x58A0 JUMP JUMPDEST DUP3 PUSH1 0x40 CALLDATASIZE PUSH1 0x3 NOT ADD SLT PUSH2 0x5CD JUMPI PUSH1 0x1 PUSH1 0x1 PUSH1 0xA0 SHL SUB PUSH1 0x24 CALLDATALOAD DUP2 DUP2 AND SWAP1 DUP2 SWAP1 SUB PUSH2 0x917 JUMPI PUSH2 0x877 PUSH1 0x40 MLOAD PUSH2 0x12BD PUSH1 0xA0 DUP3 PUSH2 0x43EA JUMP JUMPDEST PUSH1 0x4 CALLDATALOAD DUP2 MSTORE PUSH1 0x20 DUP2 ADD SWAP1 CALLVALUE DUP3 MSTORE PUSH1 0x40 DUP2 ADD SWAP4 CALLER DUP6 MSTORE PUSH1 0x60 DUP3 ADD SWAP5 CALLER DUP7 MSTORE PUSH1 0x80 DUP4 ADD SWAP2 DUP3 MSTORE PUSH2 0x811 PUSH2 0x4DF9 JUMP JUMPDEST DUP3 CALLVALUE PUSH2 0x5CD JUMPI DUP1 PUSH1 0x3 NOT CALLDATASIZE ADD SLT PUSH2 0x5CD JUMPI PUSH2 0x1302 PUSH2 0x5AA2 JUMP JUMPDEST PUSH1 0x40 MLOAD RETURN JUMPDEST DUP3 CALLVALUE PUSH2 0x5CD JUMPI PUSH1 0x20 CALLDATASIZE PUSH1 0x3 NOT ADD SLT PUSH2 0x5CD JUMPI PUSH1 0x4 CALLDATALOAD PUSH1 0x1 PUSH1 0x1 PUSH1 0xA0 SHL SUB DUP2 AND SWAP1 DUP2 SWAP1 SUB PUSH2 0x917 JUMPI PUSH2 0x1336 PUSH2 0x5B36 JUMP JUMPDEST PUSH2 0x161 DUP1 SLOAD PUSH1 0x1 PUSH1 0x1 PUSH1 0xA0 SHL SUB NOT AND SWAP1 SWAP2 OR SWAP1 SSTORE PUSH1 0x40 MLOAD RETURN JUMPDEST DUP3 CALLVALUE PUSH2 0x5CD JUMPI PUSH1 0x20 CALLDATASIZE PUSH1 0x3 NOT ADD SLT PUSH2 0x5CD JUMPI PUSH2 0x1369 PUSH2 0x5B36 JUMP JUMPDEST PUSH1 0x4 CALLDATALOAD PUSH2 0x17E SSTORE PUSH1 0x40 MLOAD RETURN JUMPDEST SWAP1 POP PUSH2 0x1382 CALLDATASIZE PUSH1 0x4 PUSH2 0x4303 JUMP JUMPDEST SWAP2 SWAP4 SWAP3 PUSH2 0x1395 PUSH1 0x40 SWAP7 SWAP3 SWAP7 MLOAD SWAP5 DUP6 PUSH2 0x43EA JUMP JUMPDEST DUP4 MSTORE PUSH1 0x20 DUP4 ADD SWAP4 DUP5 MSTORE PUSH1 0x40 DUP4 ADD SWAP5 DUP6 MSTORE PUSH1 0x60 DUP4 ADD SWAP2 CALLVALUE DUP4 MSTORE PUSH1 0x80 DUP5 ADD SWAP1 CALLER DUP3 MSTORE PUSH1 0xA0 DUP6 ADD SWAP4 CALLER DUP6 MSTORE PUSH1 0xC0 DUP7 ADD SWAP4 PUSH1 0x1 DUP1 PUSH1 0xA0 SHL SUB DUP1 SWAP4 AND DUP6 MSTORE PUSH2 0x13D6 PUSH2 0x4DF9 JUMP JUMPDEST PUSH2 0x13DE PUSH2 0x5BC4 JUMP JUMPDEST DUP8 PUSH2 0x144B PUSH2 0xA7C PUSH2 0x68C DUP4 PUSH2 0x1445 DUP13 PUSH2 0x140F PUSH2 0x13F8 PUSH2 0x4D10 JUMP JUMPDEST PUSH2 0x833 PUSH2 0x1406 DUP5 MLOAD DUP4 PUSH2 0x4924 JUMP JUMPDEST MLOAD DUP1 SWAP5 MLOAD PUSH2 0x528D JUMP JUMPDEST SWAP6 SWAP1 PUSH2 0xA77 PUSH2 0x143B PUSH2 0x142F DUP6 PUSH2 0x68C PUSH8 0xDE0B6B3A7640000 DUP1 SWAP11 MLOAD PUSH2 0x4A4B JUMP JUMPDEST SWAP11 MLOAD PUSH2 0x166 SLOAD SWAP1 PUSH2 0x4A4B JUMP JUMPDEST SWAP8 PUSH2 0x163 SLOAD PUSH2 0x4B09 JUMP JUMPDEST SWAP3 PUSH2 0x4A4B JUMP JUMPDEST SWAP10 MLOAD DUP1 DUP12 LT DUP1 ISZERO PUSH2 0x1556 JUMPI JUMPDEST PUSH2 0x1538 JUMPI POP PUSH2 0x147C SWAP1 PUSH2 0x1468 PUSH2 0x4DAA JUMP JUMPDEST POP DUP5 DUP7 MLOAD AND SWAP1 DUP6 DUP9 MLOAD AND PUSH2 0x171 SLOAD SWAP3 PUSH2 0x4F4D JUMP JUMPDEST SWAP8 SWAP2 SWAP10 SWAP1 SWAP9 DUP5 MLOAD DUP1 DUP13 GT PUSH2 0x1519 JUMPI POP DUP7 SWAP5 PUSH2 0x756 DUP14 DUP7 DUP10 DUP16 SWAP6 SWAP8 PUSH2 0xBD6 SWAP16 SWAP15 SWAP13 PUSH2 0x75C SWAP9 PUSH2 0xBB9 SWAP16 SWAP14 SWAP12 DUP16 SWAP3 DUP6 DUP14 PUSH2 0x1511 SWAP6 DUP3 SWAP16 MLOAD DUP4 DUP6 MLOAD AND SWAP1 PUSH32 0xB8B8E75E42A3102026137DA20C1D52F5E60A1B25D6E77AD232404575753E3FE0 DUP14 DUP7 DUP13 MLOAD AND SWAP5 PUSH2 0x1502 DUP12 MLOAD SWAP2 DUP1 MLOAD SWAP1 PUSH1 0x20 DUP2 ADD MLOAD PUSH1 0x60 PUSH1 0x40 DUP4 ADD MLOAD SWAP3 ADD MLOAD SWAP3 PUSH1 0x40 MLOAD SWAP7 DUP8 SWAP7 DUP8 PUSH2 0x4DD1 JUMP JUMPDEST SUB SWAP1 LOG4 MLOAD SWAP4 MLOAD SWAP2 MLOAD AND SWAP3 PUSH2 0x5428 JUMP JUMPDEST MLOAD AND SWAP2 PUSH2 0x4E1B JUMP JUMPDEST PUSH1 0x44 SWAP1 DUP11 MLOAD PUSH1 0x40 MLOAD SWAP2 PUSH4 0xB63F1A7 PUSH1 0xE0 SHL DUP4 MSTORE PUSH1 0x4 DUP4 ADD MSTORE PUSH1 0x24 DUP3 ADD MSTORE REVERT JUMPDEST PUSH1 0x44 SWAP1 DUP12 PUSH1 0x40 MLOAD SWAP2 PUSH4 0xF577BEF5 PUSH1 0xE0 SHL DUP4 MSTORE PUSH1 0x4 DUP4 ADD MSTORE PUSH1 0x24 DUP3 ADD MSTORE REVERT JUMPDEST POP DUP11 ISZERO PUSH2 0x1457 JUMP JUMPDEST DUP3 CALLVALUE PUSH2 0x5CD JUMPI DUP1 PUSH1 0x3 NOT CALLDATASIZE ADD SLT PUSH2 0x5CD JUMPI PUSH1 0x20 PUSH2 0x966 PUSH2 0x159D PUSH2 0x68C PUSH8 0xDE0B6B3A7640000 PUSH2 0x1445 PUSH2 0x1591 PUSH2 0x11FD PUSH2 0x4D10 JUMP JUMPDEST PUSH2 0x163 SWAP6 SWAP2 SWAP6 SLOAD PUSH2 0x4B09 JUMP JUMPDEST SWAP4 DUP5 PUSH2 0x4B09 JUMP JUMPDEST DUP3 CALLVALUE PUSH2 0x5CD JUMPI PUSH1 0x20 CALLDATASIZE PUSH1 0x3 NOT ADD SLT PUSH2 0x5CD JUMPI PUSH2 0x15BE PUSH2 0x5B36 JUMP JUMPDEST PUSH1 0x4 CALLDATALOAD PUSH2 0x16F SSTORE PUSH1 0x40 MLOAD RETURN JUMPDEST DUP3 CALLVALUE PUSH2 0x5CD JUMPI PUSH1 0x20 CALLDATASIZE PUSH1 0x3 NOT ADD SLT PUSH2 0x5CD JUMPI PUSH2 0x15E4 PUSH2 0x5B36 JUMP JUMPDEST PUSH1 0x4 CALLDATALOAD PUSH2 0x16B SSTORE PUSH1 0x40 MLOAD RETURN JUMPDEST SWAP1 POP PUSH2 0x15FD CALLDATASIZE PUSH1 0x4 PUSH2 0x4303 JUMP JUMPDEST SWAP2 SWAP1 SWAP5 SWAP3 PUSH2 0x160E PUSH1 0x40 MLOAD SWAP6 DUP7 PUSH2 0x43EA JUMP JUMPDEST DUP5 MSTORE PUSH1 0x20 DUP5 ADD MSTORE PUSH1 0x40 DUP4 ADD SWAP4 DUP5 MSTORE CALLVALUE PUSH1 0x60 DUP5 ADD MSTORE CALLER PUSH1 0x80 DUP5 ADD DUP2 SWAP1 MSTORE PUSH1 0xA0 DUP5 ADD MSTORE PUSH1 0x1 PUSH1 0x1 PUSH1 0xA0 SHL SUB AND PUSH1 0xC0 DUP4 ADD MSTORE PUSH2 0x1645 PUSH2 0x4DF9 JUMP JUMPDEST PUSH2 0x164D PUSH2 0x5BC4 JUMP JUMPDEST PUSH2 0x1655 PUSH2 0x5AA2 JUMP JUMPDEST PUSH2 0x165D PUSH2 0x59E6 JUMP JUMPDEST SWAP4 PUSH2 0x16AE PUSH2 0x1682 PUSH2 0x166F DUP7 MLOAD DUP9 PUSH2 0x4924 JUMP JUMPDEST MLOAD SWAP7 PUSH2 0x167C DUP9 DUP9 MLOAD PUSH2 0x528D JUMP JUMPDEST DUP5 PUSH2 0x4ECF JUMP JUMPDEST SWAP1 PUSH2 0x1693 DUP3 DUP3 DUP8 PUSH1 0x20 DUP12 ADD MLOAD PUSH2 0x5863 JUMP JUMPDEST PUSH1 0x20 DUP8 ADD MLOAD PUSH8 0xDE0B6B3A7640000 SWAP4 DUP5 SWAP2 PUSH2 0x845 DUP6 DUP6 PUSH2 0x4F12 JUMP JUMPDEST DIV SWAP5 DUP6 ISZERO PUSH2 0x775 JUMPI PUSH2 0x16E4 SWAP4 PUSH2 0x16DA PUSH2 0xA81 DUP12 PUSH2 0xA7C PUSH1 0x20 DUP14 ADD MLOAD PUSH2 0x845 DUP9 PUSH2 0xA77 DUP12 PUSH2 0x163 SLOAD PUSH2 0x4B09 JUMP JUMPDEST DIV SWAP9 DUP10 DUP10 MLOAD PUSH2 0x52E4 JUMP JUMPDEST MLOAD DUP1 DUP6 LT PUSH2 0xBF9 JUMPI POP PUSH2 0xAD1 SWAP1 PUSH2 0xAAE PUSH2 0x4DAA JUMP JUMPDEST DUP3 CALLVALUE PUSH2 0x5CD JUMPI DUP1 PUSH1 0x3 NOT CALLDATASIZE ADD SLT PUSH2 0x5CD JUMPI PUSH1 0x20 PUSH1 0xFF PUSH1 0xCA SLOAD AND PUSH1 0x40 MLOAD SWAP1 ISZERO ISZERO DUP2 MSTORE RETURN JUMPDEST DUP3 CALLVALUE PUSH2 0x5CD JUMPI PUSH2 0x17EE PUSH2 0x1730 CALLDATASIZE PUSH1 0x4 PUSH2 0x42CE JUMP JUMPDEST SWAP1 PUSH1 0x40 SWAP6 SWAP4 SWAP3 SWAP5 SWAP6 MLOAD SWAP6 PUSH2 0x1745 PUSH1 0xC0 DUP9 PUSH2 0x43EA JUMP JUMPDEST DUP7 MSTORE PUSH1 0x20 DUP7 ADD SWAP3 DUP4 MSTORE PUSH1 0x40 DUP7 ADD SWAP5 DUP6 MSTORE PUSH1 0x60 DUP7 ADD CALLER DUP2 MSTORE PUSH1 0x80 DUP8 ADD SWAP4 PUSH1 0x1 DUP1 PUSH1 0xA0 SHL SUB DUP1 SWAP4 AND DUP6 MSTORE DUP3 PUSH1 0xA0 DUP10 ADD SWAP5 AND DUP5 MSTORE PUSH2 0x177E PUSH2 0x4DF9 JUMP JUMPDEST PUSH2 0x1786 PUSH2 0x5BC4 JUMP JUMPDEST PUSH2 0x17C1 PUSH2 0x1791 PUSH2 0x4D10 JUMP JUMPDEST PUSH2 0x17AC PUSH2 0x179F DUP12 MLOAD DUP4 PUSH2 0x4924 JUMP JUMPDEST MLOAD SWAP2 PUSH2 0x833 DUP4 DUP14 MLOAD PUSH2 0x528D JUMP JUMPDEST POP POP PUSH2 0x68C PUSH8 0xDE0B6B3A7640000 DUP5 MLOAD PUSH2 0x4A4B JUMP JUMPDEST PUSH2 0x17C9 PUSH2 0x4DAA JUMP JUMPDEST POP PUSH2 0x17E3 DUP5 DUP5 MLOAD AND DUP3 DUP7 DUP9 MLOAD AND PUSH2 0x6B4 DUP14 MLOAD PUSH2 0x177 PUSH2 0x428C JUMP JUMPDEST SWAP11 SWAP2 DUP4 SWAP10 SWAP2 SWAP10 PUSH2 0x4B09 JUMP JUMPDEST SWAP9 DUP3 ISZERO PUSH2 0x775 JUMPI MLOAD DUP1 DUP11 LT PUSH2 0x1876 JUMPI POP SWAP4 DUP1 DUP10 SWAP5 PUSH2 0x11B0 DUP13 SWAP9 SWAP6 DUP4 SWAP6 DUP10 PUSH1 0x40 SWAP16 DUP14 PUSH2 0x769 SWAP15 SWAP13 MLOAD PUSH32 0x94623CC0BDFF77F15A945C5F7C85F92E30BAEEE629058DB590CEEBA3755AD3BE DUP14 DUP11 DUP1 DUP12 MLOAD AND SWAP5 MLOAD AND SWAP5 PUSH2 0x1866 DUP10 MLOAD SWAP2 DUP1 MLOAD SWAP1 PUSH1 0x20 DUP2 ADD MLOAD PUSH1 0x40 PUSH1 0x60 SWAP1 DUP4 ADD MLOAD SWAP3 ADD MLOAD SWAP3 PUSH1 0x40 MLOAD SWAP7 DUP8 SWAP7 DUP8 PUSH2 0x4DD1 JUMP JUMPDEST SUB SWAP1 LOG4 MLOAD SWAP2 MLOAD DUP6 DUP6 MLOAD AND SWAP3 PUSH2 0x5428 JUMP JUMPDEST PUSH1 0x44 SWAP1 DUP11 PUSH1 0x40 MLOAD SWAP2 PUSH4 0x54CDE313 PUSH1 0xE0 SHL DUP4 MSTORE PUSH1 0x4 DUP4 ADD MSTORE PUSH1 0x24 DUP3 ADD MSTORE REVERT JUMPDEST SWAP1 POP PUSH2 0x1978 PUSH2 0x18A4 CALLDATASIZE PUSH1 0x4 PUSH2 0x4329 JUMP JUMPDEST SWAP5 SWAP1 SWAP2 SWAP3 SWAP4 PUSH1 0x40 MLOAD SWAP1 PUSH2 0x18B9 PUSH2 0x100 DUP4 PUSH2 0x43EA JUMP JUMPDEST DUP2 MSTORE PUSH1 0x20 DUP2 ADD SWAP5 DUP6 MSTORE PUSH1 0x40 DUP2 ADD SWAP4 DUP5 MSTORE PUSH1 0x60 DUP2 ADD SWAP3 DUP4 MSTORE PUSH1 0x80 DUP2 ADD SWAP6 CALLVALUE DUP8 MSTORE PUSH1 0xA0 DUP3 ADD SWAP4 CALLER DUP6 MSTORE PUSH1 0xC0 DUP4 ADD SWAP1 CALLER DUP3 MSTORE DUP10 DUP5 ADD SWAP7 PUSH1 0x1 DUP1 PUSH1 0xA0 SHL SUB SWAP9 DUP10 DUP1 SWAP6 AND DUP10 MSTORE PUSH2 0x1902 PUSH2 0x4DF9 JUMP JUMPDEST PUSH2 0x190A PUSH2 0x5BC4 JUMP JUMPDEST PUSH2 0x1912 PUSH2 0x4DAA JUMP JUMPDEST POP PUSH1 0x40 MLOAD SWAP6 PUSH4 0x1C280CE1 PUSH1 0xE0 SHL PUSH1 0x20 DUP9 ADD MSTORE MLOAD PUSH1 0x24 DUP8 ADD MSTORE MLOAD PUSH1 0x44 DUP7 ADD MSTORE MLOAD PUSH1 0x64 DUP6 ADD MSTORE MLOAD PUSH1 0x84 DUP5 ADD MSTORE DUP8 MLOAD PUSH1 0xA4 DUP5 ADD MSTORE DUP2 DUP6 MLOAD AND PUSH1 0xC4 DUP5 ADD MSTORE MLOAD AND PUSH1 0xE4 DUP3 ADD MSTORE DUP5 DUP5 MLOAD AND PUSH2 0x104 SWAP1 DUP2 DUP4 ADD MSTORE DUP2 MSTORE PUSH2 0x196D PUSH2 0x124 DUP3 PUSH2 0x43EA JUMP JUMPDEST DUP5 PUSH2 0x21D SLOAD AND PUSH2 0x5395 JUMP JUMPDEST SWAP3 DUP4 DUP1 MLOAD DUP2 ADD SUB SWAP5 DUP7 DUP7 SLT PUSH2 0x19EE JUMPI PUSH1 0x20 DUP6 ADD MLOAD SWAP7 PUSH1 0x40 DUP7 ADD MLOAD SWAP9 PUSH1 0x80 PUSH1 0x60 DUP9 ADD MLOAD SWAP9 PUSH1 0x5F NOT ADD SLT PUSH2 0x5CD JUMPI POP SWAP2 DUP1 PUSH2 0x75C DUP10 PUSH2 0xBD6 SWAP10 SWAP9 SWAP7 SWAP5 PUSH2 0xBB9 SWAP9 SWAP7 PUSH1 0x40 MLOAD SWAP9 PUSH2 0x19C6 PUSH1 0x80 DUP12 PUSH2 0x43EA JUMP JUMPDEST PUSH1 0x80 DUP2 ADD MLOAD DUP11 MSTORE PUSH1 0xA0 DUP2 ADD MLOAD PUSH1 0x20 DUP12 ADD MSTORE PUSH1 0xC0 DUP2 ADD MLOAD PUSH1 0x40 DUP12 ADD MSTORE ADD MLOAD PUSH1 0x60 DUP10 ADD MSTORE MLOAD PUSH2 0x4B09 JUMP JUMPDEST DUP8 DUP1 REVERT JUMPDEST DUP3 PUSH1 0x40 CALLDATASIZE PUSH1 0x3 NOT ADD SLT PUSH2 0x5CD JUMPI PUSH1 0x1 PUSH1 0x1 PUSH1 0xA0 SHL SUB SWAP1 PUSH1 0x24 CALLDATALOAD DUP3 DUP2 AND SWAP2 SWAP1 DUP3 SWAP1 SUB PUSH2 0x917 JUMPI PUSH2 0x877 SWAP1 PUSH1 0x40 MLOAD PUSH2 0x7E7 PUSH1 0xA0 DUP3 PUSH2 0x43EA JUMP JUMPDEST DUP3 CALLVALUE PUSH2 0x5CD JUMPI DUP1 PUSH1 0x3 NOT CALLDATASIZE ADD SLT PUSH2 0x5CD JUMPI PUSH1 0x20 PUSH2 0x16F SLOAD PUSH1 0x40 MLOAD SWAP1 DUP2 MSTORE RETURN JUMPDEST DUP3 PUSH1 0x40 CALLDATASIZE PUSH1 0x3 NOT ADD SLT PUSH2 0x917 JUMPI PUSH1 0x40 MLOAD SWAP1 PUSH2 0x1A64 PUSH1 0xC0 DUP4 PUSH2 0x43EA JUMP JUMPDEST PUSH1 0x4 CALLDATALOAD DUP3 MSTORE PUSH1 0x20 DUP3 ADD SWAP1 PUSH1 0x24 CALLDATALOAD DUP3 MSTORE PUSH1 0x40 DUP4 ADD SWAP1 CALLVALUE DUP3 MSTORE PUSH1 0x60 DUP5 ADD SWAP3 CALLER DUP5 MSTORE PUSH1 0x80 DUP6 ADD SWAP5 CALLER DUP7 MSTORE PUSH1 0xA0 DUP2 ADD DUP4 DUP2 MSTORE PUSH2 0x1A9A PUSH2 0x4DF9 JUMP JUMPDEST PUSH2 0x1AA2 PUSH2 0x5BC4 JUMP JUMPDEST PUSH2 0x1AAA PUSH2 0x5AA2 JUMP JUMPDEST PUSH2 0x1AB2 PUSH2 0x59E6 JUMP JUMPDEST SWAP7 SWAP1 SWAP8 PUSH2 0x1AC0 DUP5 MLOAD DUP10 PUSH2 0x4924 JUMP JUMPDEST MLOAD SWAP9 PUSH2 0x1ACD DUP11 DUP7 MLOAD PUSH2 0x528D JUMP JUMPDEST PUSH2 0x1ADA DUP10 PUSH2 0x17C SLOAD PUSH2 0x4ECF JUMP JUMPDEST POP POP PUSH2 0x1AEA PUSH2 0xDB7 DUP8 MLOAD SWAP11 PUSH2 0x4938 JUMP JUMPDEST SWAP1 PUSH8 0xDE0B6B3A763FFFF NOT DUP2 ADD SWAP1 DUP2 GT PUSH2 0x1B64 JUMPI SWAP1 PUSH2 0xE0F DUP12 PUSH2 0x68C PUSH2 0x1B1E DUP14 SWAP15 PUSH2 0x68C PUSH2 0xE40 SWAP14 SWAP15 SWAP16 SWAP8 PUSH2 0x1B3C SWAP9 PUSH2 0x4A4B JUMP JUMPDEST SWAP4 PUSH2 0x1B36 PUSH8 0xDE0B6B3A7640000 SWAP2 PUSH2 0x68C DUP4 DUP9 PUSH2 0x4A4B JUMP JUMPDEST SWAP15 PUSH2 0x4A4B JUMP JUMPDEST SWAP7 PUSH2 0x1B45 PUSH2 0x4DAA JUMP JUMPDEST POP PUSH1 0x1 DUP1 PUSH1 0xA0 SHL SUB SWAP2 PUSH2 0xE35 DUP4 DUP6 MLOAD AND DUP11 DUP6 DUP9 MLOAD AND PUSH2 0x174 SLOAD SWAP3 PUSH2 0x4F4D JUMP JUMPDEST PUSH4 0x4E487B71 PUSH1 0xE0 SHL DUP9 MSTORE PUSH1 0x11 PUSH1 0x4 MSTORE PUSH1 0x24 DUP9 REVERT JUMPDEST DUP3 CALLVALUE PUSH2 0x5CD JUMPI DUP1 PUSH1 0x3 NOT CALLDATASIZE ADD SLT PUSH2 0x5CD JUMPI PUSH1 0x20 PUSH2 0x1B5 SLOAD NUMBER LT ISZERO PUSH1 0x40 MLOAD SWAP1 DUP2 MSTORE RETURN JUMPDEST DUP3 CALLVALUE PUSH2 0x5CD JUMPI DUP1 PUSH1 0x3 NOT CALLDATASIZE ADD SLT PUSH2 0x5CD JUMPI PUSH1 0xCA SLOAD PUSH1 0x40 MLOAD PUSH1 0x10 SWAP2 SWAP1 SWAP2 SHR PUSH1 0x1 PUSH1 0x1 PUSH1 0xA0 SHL SUB AND DUP2 MSTORE PUSH1 0x20 SWAP1 RETURN JUMPDEST DUP3 CALLVALUE PUSH2 0x5CD JUMPI PUSH1 0x20 CALLDATASIZE PUSH1 0x3 NOT ADD SLT PUSH2 0x5CD JUMPI PUSH1 0x4 CALLDATALOAD PUSH1 0x1 PUSH1 0x1 PUSH1 0xA0 SHL SUB DUP2 AND SWAP1 DUP2 SWAP1 SUB PUSH2 0x917 JUMPI PUSH1 0x40 DUP3 DUP2 SWAP3 DUP2 MSTORE PUSH2 0x168 PUSH1 0x20 MSTORE KECCAK256 PUSH1 0xFF PUSH1 0x1 DUP3 SLOAD SWAP3 ADD SLOAD AND DUP3 MLOAD SWAP2 DUP3 MSTORE ISZERO ISZERO PUSH1 0x20 DUP3 ADD MSTORE RETURN JUMPDEST SWAP1 POP CALLVALUE PUSH2 0xCE0 JUMPI SWAP1 PUSH2 0x1CAD SWAP2 PUSH2 0x1C2B CALLDATASIZE PUSH1 0x4 PUSH2 0x4329 JUMP JUMPDEST SWAP3 SWAP4 PUSH2 0x1C3D PUSH1 0x40 SWAP8 SWAP4 SWAP8 MLOAD SWAP7 DUP8 PUSH2 0x43EA JUMP JUMPDEST DUP6 MSTORE PUSH1 0x20 DUP6 ADD SWAP4 DUP5 MSTORE PUSH1 0x40 DUP6 ADD SWAP6 DUP7 MSTORE PUSH1 0x60 DUP6 ADD MSTORE PUSH1 0x80 DUP5 ADD SWAP3 CALLER DUP5 MSTORE PUSH1 0xA0 DUP6 ADD SWAP1 PUSH1 0x1 DUP1 PUSH1 0xA0 SHL SUB DUP1 SWAP5 AND DUP3 MSTORE PUSH1 0xC0 DUP7 ADD DUP4 DUP2 MSTORE PUSH2 0x1C7A PUSH2 0x4DF9 JUMP JUMPDEST PUSH2 0x1C82 PUSH2 0x5BC4 JUMP JUMPDEST PUSH2 0x1CD7 DUP8 PUSH2 0xA7C PUSH2 0x1CC1 PUSH2 0x1CB6 PUSH2 0x1C97 PUSH2 0x4D10 JUMP JUMPDEST PUSH2 0x1CA2 DUP6 MLOAD DUP3 PUSH2 0x4924 JUMP JUMPDEST MLOAD SWAP15 DUP16 DUP1 SWAP7 MLOAD PUSH2 0x528D JUMP JUMPDEST PUSH2 0x17C SLOAD PUSH2 0x4ECF JUMP JUMPDEST SWAP3 DUP2 SWAP15 SWAP2 DUP9 MLOAD PUSH2 0x4A4B JUMP JUMPDEST PUSH8 0xDE0B6B3A7640000 SWAP4 DUP5 SWAP2 PUSH2 0x166 SLOAD SWAP1 PUSH2 0x4A5E JUMP JUMPDEST DIV SWAP11 MLOAD DUP1 DUP13 GT PUSH2 0x1E2B JUMPI POP SWAP2 PUSH2 0x1D11 DUP12 PUSH2 0x1D0B PUSH2 0x1D43 SWAP12 SWAP13 SWAP14 SWAP15 SWAP5 PUSH2 0x68C DUP6 PUSH2 0x1D05 PUSH2 0x1D18 SWAP10 DUP13 MLOAD SWAP10 PUSH2 0x4F12 JUMP JUMPDEST SWAP5 PUSH2 0x4A4B JUMP JUMPDEST SWAP4 PUSH2 0x4A4B JUMP JUMPDEST DIV SWAP1 PUSH2 0x4901 JUMP JUMPDEST SWAP5 PUSH2 0x1D21 PUSH2 0x4DAA JUMP JUMPDEST POP PUSH2 0x1D38 DUP2 DUP10 MLOAD AND DUP8 DUP4 DUP6 MLOAD AND PUSH2 0x173 SLOAD SWAP3 PUSH2 0x4F4D JUMP JUMPDEST SWAP7 SWAP2 DUP9 SWAP10 SWAP2 SWAP10 PUSH2 0x4B09 JUMP JUMPDEST SWAP10 PUSH1 0x60 DUP2 ADD MLOAD DUP1 DUP13 LT PUSH2 0x1E0D JUMPI POP DUP11 ISZERO PUSH2 0x775 JUMPI DUP10 PUSH2 0x11B0 DUP14 DUP6 SWAP5 DUP5 DUP16 SWAP10 PUSH2 0xBD6 SWAP16 SWAP14 PUSH2 0x1E01 SWAP2 PUSH2 0xBB9 SWAP16 DUP16 DUP16 SWAP1 SWAP2 DUP16 SWAP3 DUP10 PUSH32 0x754F66F66F0AFCD87E3EDD11C0796FEF32599EFE490000FDB0F014E3AD9560FA SWAP2 DUP16 SWAP15 DUP16 DUP1 PUSH2 0x1DF2 SWAP3 MLOAD SWAP7 MLOAD AND SWAP7 MLOAD AND SWAP7 DUP9 MLOAD SWAP3 DUP1 MLOAD PUSH1 0x20 DUP3 ADD MLOAD SWAP1 PUSH1 0x60 PUSH1 0x40 DUP5 ADD MLOAD SWAP4 ADD MLOAD SWAP4 PUSH1 0x40 MLOAD SWAP8 DUP9 SWAP8 DUP9 SWAP4 SWAP1 SWAP8 SWAP7 SWAP6 SWAP3 PUSH1 0xC0 SWAP6 SWAP3 PUSH1 0xE0 DUP7 ADD SWAP10 DUP7 MSTORE PUSH1 0x20 DUP7 ADD MSTORE PUSH1 0x40 DUP6 ADD MSTORE PUSH1 0x60 DUP5 ADD MSTORE PUSH1 0x80 DUP4 ADD MSTORE PUSH1 0xA0 DUP3 ADD MSTORE ADD MSTORE JUMP JUMPDEST SUB SWAP1 LOG4 MLOAD SWAP1 DUP9 DUP9 MLOAD AND SWAP2 PUSH2 0x54BC JUMP JUMPDEST MLOAD SWAP2 DUP6 DUP6 MLOAD AND SWAP3 PUSH2 0x5428 JUMP JUMPDEST PUSH1 0x44 SWAP1 DUP13 PUSH1 0x40 MLOAD SWAP2 PUSH4 0x54CDE313 PUSH1 0xE0 SHL DUP4 MSTORE PUSH1 0x4 DUP4 ADD MSTORE PUSH1 0x24 DUP3 ADD MSTORE REVERT JUMPDEST PUSH1 0x44 SWAP1 DUP13 PUSH1 0x40 MLOAD SWAP2 PUSH4 0x7A031DA3 PUSH1 0xE1 SHL DUP4 MSTORE PUSH1 0x4 DUP4 ADD MSTORE PUSH1 0x24 DUP3 ADD MSTORE REVERT JUMPDEST DUP3 CALLVALUE PUSH2 0x5CD JUMPI DUP1 PUSH1 0x3 NOT CALLDATASIZE ADD SLT PUSH2 0x5CD JUMPI PUSH1 0x20 PUSH2 0x1E70 PUSH2 0x1E6A PUSH2 0x11FD PUSH2 0x4D10 JUMP JUMPDEST SWAP1 PUSH2 0x4ADF JUMP JUMPDEST PUSH2 0x17C SLOAD LT ISZERO PUSH1 0x40 MLOAD SWAP1 DUP2 MSTORE RETURN JUMPDEST DUP3 CALLVALUE PUSH2 0x5CD JUMPI PUSH1 0x40 CALLDATASIZE PUSH1 0x3 NOT ADD SLT PUSH2 0x917 JUMPI PUSH1 0x40 MLOAD SWAP1 PUSH2 0x1E9F PUSH1 0xA0 DUP4 PUSH2 0x43EA JUMP JUMPDEST PUSH1 0x4 CALLDATALOAD DUP3 MSTORE PUSH1 0x20 DUP3 ADD SWAP1 PUSH1 0x24 CALLDATALOAD DUP3 MSTORE PUSH1 0x40 DUP4 ADD SWAP1 CALLER DUP3 MSTORE PUSH1 0x60 DUP5 ADD SWAP1 CALLER DUP3 MSTORE PUSH1 0x80 DUP6 ADD SWAP1 DUP2 MSTORE PUSH2 0x1ECD PUSH2 0x4DF9 JUMP JUMPDEST PUSH2 0x1ED5 PUSH2 0x5BC4 JUMP JUMPDEST PUSH2 0x1EDD PUSH2 0x5AA2 JUMP JUMPDEST PUSH8 0xDE0B6B3A7640000 PUSH2 0x1F16 PUSH2 0x1F02 PUSH2 0x845 PUSH2 0x1F0E PUSH2 0x1EFA PUSH2 0x59E6 JUMP JUMPDEST DUP2 SWAP5 SWAP2 PUSH2 0x4ECF JUMP JUMPDEST DUP2 DUP2 SWAP4 SWAP3 SWAP6 DUP14 MLOAD PUSH2 0x5863 JUMP JUMPDEST DUP10 MLOAD SWAP3 PUSH2 0x4F12 JUMP JUMPDEST DIV DUP1 ISZERO PUSH2 0x775 JUMPI PUSH2 0x1131 SWAP4 PUSH2 0x1F29 PUSH2 0x4DAA JUMP JUMPDEST POP PUSH1 0x1 DUP1 PUSH1 0xA0 SHL SUB SWAP2 PUSH2 0x1126 DUP4 DUP4 MLOAD AND DUP3 DUP6 DUP8 MLOAD AND PUSH2 0x16F SLOAD SWAP3 PUSH2 0x4F4D JUMP JUMPDEST DUP3 CALLVALUE PUSH2 0x5CD JUMPI DUP1 PUSH1 0x3 NOT CALLDATASIZE ADD SLT PUSH2 0x5CD JUMPI PUSH2 0x178 SLOAD PUSH1 0x40 MLOAD PUSH1 0x1 PUSH1 0x1 PUSH1 0xA0 SHL SUB SWAP1 SWAP2 AND DUP2 MSTORE PUSH1 0x20 SWAP1 RETURN JUMPDEST DUP3 PUSH1 0x60 CALLDATASIZE PUSH1 0x3 NOT ADD SLT PUSH2 0x917 JUMPI PUSH1 0x40 MLOAD SWAP2 PUSH2 0x1F8D SWAP1 DUP4 PUSH2 0x43EA JUMP JUMPDEST PUSH1 0x4 CALLDATALOAD DUP3 MSTORE PUSH1 0x20 DUP3 ADD PUSH1 0x24 CALLDATALOAD DUP2 MSTORE PUSH1 0x40 DUP4 ADD SWAP2 PUSH1 0x44 CALLDATALOAD DUP4 MSTORE PUSH1 0x60 DUP5 ADD CALLVALUE DUP2 MSTORE PUSH1 0x80 DUP6 ADD CALLER DUP2 MSTORE PUSH1 0xA0 DUP7 ADD SWAP5 CALLER DUP7 MSTORE PUSH1 0xC0 DUP8 ADD SWAP3 DUP5 DUP5 MSTORE PUSH2 0x1FCB PUSH2 0x4DF9 JUMP JUMPDEST PUSH2 0x1FD3 PUSH2 0x5BC4 JUMP JUMPDEST PUSH2 0x1FDB PUSH2 0x5AA2 JUMP JUMPDEST PUSH2 0x1FE3 PUSH2 0x59E6 JUMP JUMPDEST SWAP8 SWAP1 SWAP3 DUP10 MLOAD PUSH2 0x1FF2 SWAP1 DUP11 PUSH2 0x4924 JUMP JUMPDEST MLOAD SWAP9 DUP10 DUP12 MLOAD SWAP1 PUSH2 0x2001 SWAP2 PUSH2 0x528D JUMP JUMPDEST PUSH2 0x200B SWAP1 DUP6 PUSH2 0x4ECF JUMP JUMPDEST DUP6 DUP2 DUP4 DUP13 MLOAD SWAP3 PUSH2 0x201A SWAP4 PUSH2 0x5863 JUMP JUMPDEST DUP10 MLOAD SWAP2 PUSH8 0xDE0B6B3A7640000 DUP1 SWAP4 PUSH2 0x2032 DUP5 DUP5 PUSH2 0x4F12 JUMP JUMPDEST PUSH2 0x203B SWAP2 PUSH2 0x4A4B JUMP JUMPDEST DIV SWAP7 DUP8 ISZERO PUSH2 0x775 JUMPI DUP13 PUSH2 0x2072 SWAP5 DUP16 SWAP15 PUSH2 0xA81 DUP16 SWAP2 PUSH2 0xA7C PUSH2 0x2068 SWAP4 MLOAD PUSH2 0x845 DUP10 PUSH2 0xA77 DUP13 PUSH2 0x163 SLOAD PUSH2 0x4B09 JUMP JUMPDEST DIV SWAP15 DUP16 SWAP1 MLOAD PUSH2 0x52E4 JUMP JUMPDEST MLOAD DUP1 DUP11 LT PUSH2 0x2141 JUMPI POP PUSH2 0x2083 PUSH2 0x4DAA JUMP JUMPDEST POP PUSH2 0x20A2 PUSH1 0x1 DUP1 PUSH1 0xA0 SHL SUB SWAP4 DUP5 DUP7 MLOAD AND SWAP1 DUP6 DUP9 MLOAD AND PUSH2 0x172 SLOAD SWAP3 PUSH2 0x4F4D JUMP JUMPDEST SWAP8 SWAP2 SWAP10 SWAP1 SWAP9 DUP5 MLOAD DUP1 DUP13 GT PUSH2 0x1519 JUMPI POP DUP7 SWAP5 PUSH2 0x756 DUP6 DUP6 DUP16 DUP16 SWAP6 SWAP11 PUSH2 0xBD6 SWAP16 SWAP15 SWAP13 SWAP8 PUSH2 0x2137 PUSH2 0xBB9 SWAP16 SWAP14 SWAP10 DUP16 SWAP12 DUP5 PUSH2 0x75C SWAP13 DUP2 SWAP16 SWAP15 DUP3 SWAP16 DUP8 MLOAD PUSH32 0xF4287B96E269F789F166DB491B07456566F468352771E466CE088E98D6007A0C DUP12 DUP7 DUP1 DUP11 MLOAD AND SWAP5 MLOAD AND SWAP5 PUSH2 0x212A DUP8 MLOAD SWAP2 DUP1 MLOAD SWAP1 PUSH1 0x20 DUP2 ADD MLOAD PUSH1 0x60 PUSH1 0x40 DUP4 ADD MLOAD SWAP3 ADD MLOAD SWAP3 PUSH1 0x40 MLOAD SWAP7 DUP8 SWAP7 DUP8 PUSH2 0x4DD1 JUMP JUMPDEST SUB SWAP1 LOG4 MLOAD SWAP3 MLOAD AND SWAP2 PUSH2 0x54BC JUMP JUMPDEST MLOAD SWAP4 MLOAD AND SWAP3 PUSH2 0x51F4 JUMP JUMPDEST PUSH1 0x44 SWAP1 DUP11 PUSH1 0x40 MLOAD SWAP2 PUSH4 0x272E3F59 PUSH1 0xE2 SHL DUP4 MSTORE PUSH1 0x4 DUP4 ADD MSTORE PUSH1 0x24 DUP3 ADD MSTORE REVERT JUMPDEST DUP3 CALLVALUE PUSH2 0x5CD JUMPI PUSH2 0x300 CALLDATASIZE PUSH1 0x3 NOT ADD SLT PUSH2 0x5CD JUMPI DUP1 SLOAD PUSH1 0xFF DUP2 PUSH1 0x8 SHR AND ISZERO SWAP1 DUP2 DUP1 SWAP3 PUSH2 0x25C0 JUMPI JUMPDEST DUP1 ISZERO PUSH2 0x25A9 JUMPI JUMPDEST ISZERO PUSH2 0x254D JUMPI PUSH1 0xFF NOT DUP2 AND PUSH1 0x1 OR DUP4 SSTORE DUP2 PUSH2 0x253C JUMPI JUMPDEST POP DUP2 SLOAD SWAP1 PUSH2 0x21B4 PUSH1 0xFF DUP4 PUSH1 0x8 SHR AND PUSH2 0x4D4A JUMP JUMPDEST PUSH2 0x2A4 CALLDATALOAD PUSH1 0x1 PUSH1 0x1 PUSH1 0xA0 SHL SUB DUP2 AND SWAP1 DUP2 SWAP1 SUB PUSH2 0x917 JUMPI PUSH2 0x21D DUP1 SLOAD PUSH1 0x1 PUSH1 0x1 PUSH1 0xA0 SHL SUB NOT AND SWAP1 SWAP2 OR SWAP1 SSTORE PUSH1 0x1 PUSH1 0x1 PUSH1 0xA0 SHL SUB PUSH2 0x264 CALLDATALOAD SWAP1 DUP2 AND SWAP1 DUP2 SWAP1 SUB PUSH2 0x917 JUMPI PUSH2 0x284 CALLDATALOAD PUSH1 0x1 PUSH1 0x1 PUSH1 0xA0 SHL SUB DUP2 AND DUP2 SUB PUSH2 0x917 JUMPI PUSH1 0x1 SWAP2 PUSH2 0x221B PUSH1 0xFF DUP7 PUSH1 0x8 SHR AND PUSH2 0x4D4A JUMP JUMPDEST PUSH2 0x222A PUSH1 0xFF DUP7 PUSH1 0x8 SHR AND PUSH2 0x4D4A JUMP JUMPDEST PUSH2 0x2239 PUSH1 0xFF DUP7 PUSH1 0x8 SHR AND PUSH2 0x4D4A JUMP JUMPDEST PUSH2 0x2248 PUSH1 0xFF DUP7 PUSH1 0x8 SHR AND PUSH2 0x4D4A JUMP JUMPDEST PUSH1 0x1 PUSH1 0x1 PUSH1 0x60 SHL SUB PUSH1 0xA0 SHL PUSH1 0x97 SLOAD AND OR PUSH1 0x97 SSTORE PUSH2 0x226A PUSH1 0xFF DUP6 PUSH1 0x8 SHR AND PUSH2 0x4D4A JUMP JUMPDEST PUSH1 0xCA SLOAD SWAP1 PUSH3 0x10000 DUP4 PUSH1 0xB0 SHL SUB SWAP1 PUSH1 0x10 SHL AND SWAP1 PUSH2 0xFF01 DUP4 PUSH1 0xB0 SHL SUB NOT AND OR OR PUSH1 0xCA SSTORE PUSH2 0x229B PUSH1 0xFF DUP4 PUSH1 0x8 SHR AND PUSH2 0x4D4A JUMP JUMPDEST PUSH8 0xDE0B6B3A7640000 PUSH1 0xA4 CALLDATALOAD LT PUSH2 0x252A JUMPI PUSH2 0x22B7 PUSH1 0xE4 CALLDATALOAD PUSH2 0x5BE5 JUMP JUMPDEST PUSH2 0x22C3 PUSH2 0x104 CALLDATALOAD PUSH2 0x5BE5 JUMP JUMPDEST PUSH2 0x22CF PUSH2 0x124 CALLDATALOAD PUSH2 0x5BE5 JUMP JUMPDEST PUSH2 0x22DB PUSH2 0x144 CALLDATALOAD PUSH2 0x5BE5 JUMP JUMPDEST PUSH2 0x22E7 PUSH2 0x164 CALLDATALOAD PUSH2 0x5BE5 JUMP JUMPDEST PUSH2 0x22F3 PUSH2 0x184 CALLDATALOAD PUSH2 0x5BE5 JUMP JUMPDEST PUSH2 0x22FF PUSH2 0x1A4 CALLDATALOAD PUSH2 0x5BE5 JUMP JUMPDEST PUSH2 0x230B PUSH2 0x1C4 CALLDATALOAD PUSH2 0x5BE5 JUMP JUMPDEST PUSH2 0x2317 PUSH2 0x1E4 CALLDATALOAD PUSH2 0x5BE5 JUMP JUMPDEST PUSH2 0x232F PUSH2 0x232A PUSH2 0x224 CALLDATALOAD PUSH2 0x204 CALLDATALOAD PUSH2 0x4901 JUMP JUMPDEST PUSH2 0x5BE5 JUMP JUMPDEST PUSH1 0x4 CALLDATALOAD PUSH1 0x1 PUSH1 0x1 PUSH1 0xA0 SHL SUB DUP2 AND DUP2 SUB PUSH2 0x917 JUMPI PUSH2 0x161 DUP1 SLOAD PUSH1 0x1 PUSH1 0x1 PUSH1 0xA0 SHL SUB NOT AND PUSH1 0x1 PUSH1 0x1 PUSH1 0xA0 SHL SUB SWAP3 DUP4 AND OR SWAP1 SSTORE PUSH1 0x24 CALLDATALOAD SWAP1 DUP2 AND DUP2 SUB PUSH2 0x917 JUMPI PUSH2 0x162 DUP1 SLOAD PUSH1 0x1 PUSH1 0x1 PUSH1 0xA0 SHL SUB NOT AND PUSH1 0x1 PUSH1 0x1 PUSH1 0xA0 SHL SUB SWAP3 DUP4 AND OR SWAP1 SSTORE PUSH1 0x44 CALLDATALOAD SWAP1 DUP2 AND DUP2 SUB PUSH2 0x917 JUMPI PUSH2 0x165 DUP1 SLOAD PUSH1 0x1 PUSH1 0x1 PUSH1 0xA0 SHL SUB NOT AND PUSH1 0x1 PUSH1 0x1 PUSH1 0xA0 SHL SUB SWAP3 DUP4 AND OR SWAP1 SSTORE PUSH1 0x64 CALLDATALOAD SWAP1 DUP2 AND DUP2 SUB PUSH2 0x917 JUMPI PUSH2 0x178 DUP1 SLOAD PUSH1 0x1 PUSH1 0x1 PUSH1 0xA0 SHL SUB NOT AND PUSH1 0x1 PUSH1 0x1 PUSH1 0xA0 SHL SUB SWAP3 DUP4 AND OR SWAP1 SSTORE PUSH1 0x84 CALLDATALOAD SWAP1 DUP2 AND DUP2 SUB PUSH2 0x917 JUMPI PUSH2 0x179 SWAP1 PUSH1 0x1 DUP1 PUSH1 0xA0 SHL SUB AND PUSH1 0x1 PUSH1 0x1 PUSH1 0x60 SHL SUB PUSH1 0xA0 SHL DUP3 SLOAD AND OR SWAP1 SSTORE PUSH1 0xA4 CALLDATALOAD PUSH2 0x17B SSTORE PUSH1 0xC4 CALLDATALOAD PUSH2 0x17C SSTORE PUSH1 0xE4 CALLDATALOAD PUSH2 0x16D SSTORE PUSH2 0x104 CALLDATALOAD PUSH2 0x16E SSTORE PUSH2 0x124 CALLDATALOAD PUSH2 0x16F SSTORE PUSH2 0x144 CALLDATALOAD PUSH2 0x170 SSTORE PUSH2 0x164 CALLDATALOAD PUSH2 0x171 SSTORE PUSH2 0x184 CALLDATALOAD PUSH2 0x172 SSTORE PUSH2 0x1A4 CALLDATALOAD PUSH2 0x173 SSTORE PUSH2 0x1C4 CALLDATALOAD PUSH2 0x174 SSTORE PUSH2 0x1E4 CALLDATALOAD PUSH2 0x175 SSTORE PUSH2 0x204 CALLDATALOAD PUSH2 0x16B SSTORE PUSH2 0x224 CALLDATALOAD PUSH2 0x16C SSTORE PUSH2 0x247A PUSH2 0x244 CALLDATALOAD DUP1 PUSH2 0x17E SSTORE NUMBER PUSH2 0x4901 JUMP JUMPDEST PUSH2 0x17F SSTORE PUSH2 0x17D PUSH2 0xFFFF NOT DUP2 SLOAD AND SWAP1 SSTORE PUSH2 0x2C4 CALLDATALOAD PUSH2 0x249D PUSH1 0xFF DUP5 PUSH1 0x8 SHR AND PUSH2 0x4D4A JUMP JUMPDEST DUP1 ISZERO PUSH2 0x252A JUMPI PUSH2 0x1B6 DUP2 SWAP1 SSTORE NUMBER ADD PUSH2 0x1B5 SSTORE PUSH2 0x2E4 CALLDATALOAD PUSH1 0x1 PUSH1 0x1 PUSH1 0xA0 SHL SUB DUP2 AND SWAP1 DUP2 SWAP1 SUB PUSH2 0x917 JUMPI PUSH2 0x24D4 PUSH1 0xFF DUP5 PUSH1 0x8 SHR AND PUSH2 0x4D4A JUMP JUMPDEST PUSH2 0x1E9 DUP1 SLOAD PUSH1 0x1 PUSH1 0x1 PUSH1 0xA0 SHL SUB NOT AND SWAP1 SWAP2 OR SWAP1 SSTORE PUSH2 0x24F2 JUMPI POP PUSH1 0x40 MLOAD RETURN JUMPDEST PUSH2 0xFF00 NOT AND DUP2 SSTORE PUSH32 0x7F26B83FF96E1F2B6A682F133852F6798A09C465DA95921460CEFB3847402498 PUSH1 0x20 PUSH1 0x40 MLOAD PUSH1 0x1 DUP2 MSTORE LOG1 DUP2 PUSH2 0xCDA JUMP JUMPDEST PUSH1 0x40 MLOAD PUSH4 0x2A9FFAB7 PUSH1 0xE2 SHL DUP2 MSTORE PUSH1 0x4 SWAP1 REVERT JUMPDEST PUSH2 0xFFFF NOT AND PUSH2 0x101 OR DUP3 SSTORE DUP3 PUSH2 0x21A1 JUMP JUMPDEST PUSH1 0x40 MLOAD PUSH3 0x461BCD PUSH1 0xE5 SHL DUP2 MSTORE PUSH1 0x20 PUSH1 0x4 DUP3 ADD MSTORE PUSH1 0x2E PUSH1 0x24 DUP3 ADD MSTORE PUSH32 0x496E697469616C697A61626C653A20636F6E747261637420697320616C726561 PUSH1 0x44 DUP3 ADD MSTORE PUSH14 0x191E481A5B9A5D1A585B1A5E9959 PUSH1 0x92 SHL PUSH1 0x64 DUP3 ADD MSTORE PUSH1 0x84 SWAP1 REVERT JUMPDEST POP ADDRESS EXTCODESIZE ISZERO DUP1 ISZERO PUSH2 0x218C JUMPI POP PUSH1 0x1 PUSH1 0xFF DUP3 AND EQ PUSH2 0x218C JUMP JUMPDEST POP PUSH1 0x1 PUSH1 0xFF DUP3 AND LT PUSH2 0x2185 JUMP JUMPDEST DUP3 PUSH1 0x60 CALLDATASIZE PUSH1 0x3 NOT ADD SLT PUSH2 0x917 JUMPI PUSH1 0x1 PUSH1 0x1 PUSH1 0xA0 SHL SUB SWAP1 PUSH1 0x44 CALLDATALOAD DUP3 DUP2 AND SWAP2 SWAP1 DUP3 SWAP1 SUB PUSH2 0x917 JUMPI PUSH1 0x40 MLOAD PUSH2 0x6CC SWAP2 PUSH2 0x2604 PUSH1 0xC0 DUP4 PUSH2 0x43EA JUMP JUMPDEST PUSH1 0x4 CALLDATALOAD DUP3 MSTORE PUSH1 0x20 DUP3 ADD SWAP1 PUSH1 0x24 CALLDATALOAD DUP3 MSTORE PUSH1 0x40 DUP4 ADD SWAP6 CALLVALUE DUP8 MSTORE PUSH1 0x60 DUP5 ADD SWAP1 CALLER DUP3 MSTORE PUSH1 0x80 DUP6 ADD SWAP7 DUP8 MSTORE PUSH1 0xA0 DUP6 ADD SWAP3 DUP4 MSTORE PUSH2 0x62C PUSH2 0x4DF9 JUMP JUMPDEST DUP3 CALLVALUE PUSH2 0x5CD JUMPI PUSH1 0x20 CALLDATASIZE PUSH1 0x3 NOT ADD SLT PUSH2 0x5CD JUMPI PUSH1 0x20 PUSH2 0x966 CALLER CALLER PUSH1 0x4 CALLDATALOAD PUSH2 0x57AB JUMP JUMPDEST DUP3 CALLVALUE PUSH2 0x5CD JUMPI PUSH1 0x20 CALLDATASIZE PUSH1 0x3 NOT ADD SLT PUSH2 0x5CD JUMPI PUSH1 0x20 PUSH2 0x966 PUSH1 0x4 CALLDATALOAD PUSH2 0x4C3A JUMP JUMPDEST DUP3 CALLVALUE PUSH2 0x5CD JUMPI DUP1 PUSH1 0x3 NOT CALLDATASIZE ADD SLT PUSH2 0x5CD JUMPI PUSH1 0x20 PUSH2 0x21C SLOAD PUSH1 0x40 MLOAD SWAP1 DUP2 MSTORE RETURN JUMPDEST DUP3 CALLVALUE PUSH2 0x5CD JUMPI DUP1 PUSH1 0x3 NOT CALLDATASIZE ADD SLT PUSH2 0x5CD JUMPI PUSH1 0x20 PUSH2 0x17C SLOAD PUSH1 0x40 MLOAD SWAP1 DUP2 MSTORE RETURN JUMPDEST DUP3 CALLVALUE PUSH2 0x5CD JUMPI DUP1 PUSH1 0x3 NOT CALLDATASIZE ADD SLT PUSH2 0x5CD JUMPI PUSH2 0x26D0 PUSH2 0x5BC4 JUMP JUMPDEST PUSH1 0xCA SLOAD PUSH1 0x10 DUP2 SWAP1 SHR PUSH1 0x1 PUSH1 0x1 PUSH1 0xA0 SHL SUB AND CALLER SUB PUSH2 0x273E JUMPI PUSH1 0xFF DUP2 AND ISZERO PUSH2 0x272C JUMPI PUSH2 0x100 SWAP1 PUSH2 0xFF00 NOT AND OR PUSH1 0xCA SSTORE PUSH32 0x62E78CEA01BEE320CD4E420270B5EA74000D11B0C9F74754EBDBFC544B05A258 PUSH1 0x20 PUSH1 0x40 MLOAD CALLER DUP2 MSTORE LOG1 PUSH1 0x40 MLOAD RETURN JUMPDEST PUSH1 0x40 MLOAD PUSH4 0x866099C3 PUSH1 0xE0 SHL DUP2 MSTORE PUSH1 0x4 SWAP1 REVERT JUMPDEST PUSH1 0x40 MLOAD PUSH4 0x1D77D477 PUSH1 0xE2 SHL DUP2 MSTORE PUSH1 0x4 SWAP1 REVERT JUMPDEST DUP3 PUSH1 0x40 CALLDATASIZE PUSH1 0x3 NOT ADD SLT PUSH2 0x917 JUMPI PUSH1 0x40 MLOAD SWAP1 PUSH2 0x276C PUSH1 0xC0 DUP4 PUSH2 0x43EA JUMP JUMPDEST PUSH1 0x4 CALLDATALOAD DUP3 MSTORE PUSH2 0x6CC PUSH1 0x20 DUP4 ADD SWAP3 PUSH1 0x24 CALLDATALOAD DUP5 MSTORE PUSH1 0x40 DUP2 ADD SWAP4 CALLVALUE DUP6 MSTORE PUSH1 0x60 DUP3 ADD SWAP4 CALLER DUP6 MSTORE PUSH1 0x80 DUP4 ADD SWAP5 CALLER DUP7 MSTORE PUSH1 0xA0 DUP5 ADD SWAP2 DUP3 MSTORE PUSH2 0x27A5 PUSH2 0x4DF9 JUMP JUMPDEST PUSH2 0x27AD PUSH2 0x5BC4 JUMP JUMPDEST PUSH2 0x27B5 PUSH2 0x5AA2 JUMP JUMPDEST PUSH2 0x27FF PUSH2 0x27EC PUSH2 0x27C3 PUSH2 0x59E6 JUMP JUMPDEST SWAP2 SWAP1 PUSH2 0x27E0 PUSH2 0x27D3 DUP10 MLOAD DUP6 PUSH2 0x4924 JUMP JUMPDEST MLOAD SWAP4 PUSH2 0x667 DUP6 DUP12 MLOAD PUSH2 0x528D JUMP JUMPDEST SWAP2 DUP5 DUP11 MLOAD DUP11 MLOAD SWAP1 PUSH2 0x52E4 JUMP JUMPDEST PUSH2 0x68C PUSH8 0xDE0B6B3A7640000 DUP7 MLOAD PUSH2 0x4A4B JUMP JUMPDEST SWAP3 PUSH2 0x2808 PUSH2 0x4DAA JUMP JUMPDEST POP PUSH1 0x1 DUP1 PUSH1 0xA0 SHL SUB SWAP1 PUSH2 0x6C1 DUP3 DUP5 MLOAD AND DUP7 DUP5 DUP8 MLOAD AND PUSH2 0x6B4 DUP11 MLOAD PUSH2 0x176 PUSH2 0x428C JUMP JUMPDEST DUP3 CALLVALUE PUSH2 0x5CD JUMPI DUP1 PUSH1 0x3 NOT CALLDATASIZE ADD SLT PUSH2 0x5CD JUMPI PUSH1 0x20 PUSH2 0x966 PUSH2 0x1E6A PUSH2 0x11FD PUSH2 0x4D10 JUMP JUMPDEST DUP3 CALLVALUE PUSH2 0x5CD JUMPI DUP1 PUSH1 0x3 NOT CALLDATASIZE ADD SLT PUSH2 0x5CD JUMPI PUSH2 0x1E9 SLOAD PUSH1 0x40 MLOAD PUSH1 0x1 PUSH1 0x1 PUSH1 0xA0 SHL SUB SWAP1 SWAP2 AND DUP2 MSTORE PUSH1 0x20 SWAP1 RETURN JUMPDEST DUP3 PUSH2 0x2881 CALLDATASIZE PUSH1 0x4 PUSH2 0x4303 JUMP JUMPDEST SWAP4 SWAP2 SWAP3 PUSH1 0x40 MLOAD SWAP6 PUSH2 0x2892 SWAP1 DUP8 PUSH2 0x43EA JUMP JUMPDEST DUP6 MSTORE PUSH1 0x20 DUP6 ADD SWAP3 DUP4 MSTORE PUSH1 0x40 DUP6 ADD MSTORE PUSH1 0x60 DUP5 ADD CALLVALUE DUP2 MSTORE PUSH1 0x80 DUP6 ADD CALLER DUP2 MSTORE PUSH1 0xA0 DUP7 ADD SWAP5 PUSH1 0x1 PUSH1 0xA0 SHL PUSH1 0x1 SWAP1 SUB DUP1 SWAP2 AND DUP7 MSTORE PUSH1 0xC0 DUP8 ADD SWAP3 DUP5 DUP5 MSTORE PUSH2 0x28D1 PUSH2 0x4DF9 JUMP JUMPDEST PUSH2 0x28D9 PUSH2 0x5BC4 JUMP JUMPDEST PUSH2 0x28E1 PUSH2 0x5AA2 JUMP JUMPDEST PUSH2 0x28E9 PUSH2 0x59E6 JUMP JUMPDEST SWAP8 SWAP1 DUP10 MLOAD PUSH2 0x28F7 SWAP1 DUP11 PUSH2 0x4924 JUMP JUMPDEST MLOAD SWAP9 DUP10 DUP12 MLOAD SWAP1 PUSH2 0x2906 SWAP2 PUSH2 0x528D JUMP JUMPDEST PUSH2 0x2910 SWAP1 DUP3 PUSH2 0x4ECF JUMP JUMPDEST DUP3 DUP2 DUP4 DUP13 MLOAD SWAP3 PUSH2 0x291F SWAP4 PUSH2 0x5863 JUMP JUMPDEST DUP10 MLOAD SWAP2 PUSH8 0xDE0B6B3A7640000 DUP1 SWAP4 PUSH2 0x2937 DUP5 DUP5 PUSH2 0x4F12 JUMP JUMPDEST PUSH2 0x2940 SWAP2 PUSH2 0x4A4B JUMP JUMPDEST DIV SWAP4 DUP5 ISZERO PUSH2 0x775 JUMPI DUP13 PUSH2 0x296D SWAP5 DUP16 SWAP15 PUSH2 0xA81 DUP16 SWAP2 PUSH2 0xA7C PUSH2 0x2068 SWAP4 MLOAD PUSH2 0x845 DUP10 PUSH2 0xA77 DUP13 PUSH2 0x163 SLOAD PUSH2 0x4B09 JUMP JUMPDEST PUSH1 0x40 DUP10 ADD MLOAD DUP1 DUP12 LT PUSH2 0x299A JUMPI POP PUSH2 0x20A2 SWAP1 PUSH2 0x2986 PUSH2 0x4DAA JUMP JUMPDEST POP DUP5 DUP7 MLOAD AND SWAP1 DUP6 DUP9 MLOAD AND PUSH2 0x172 SLOAD SWAP3 PUSH2 0x4F4D JUMP JUMPDEST PUSH1 0x44 SWAP1 DUP12 PUSH1 0x40 MLOAD SWAP2 PUSH4 0x272E3F59 PUSH1 0xE2 SHL DUP4 MSTORE PUSH1 0x4 DUP4 ADD MSTORE PUSH1 0x24 DUP3 ADD MSTORE REVERT JUMPDEST DUP3 CALLVALUE PUSH2 0x5CD JUMPI PUSH1 0x20 CALLDATASIZE PUSH1 0x3 NOT ADD SLT PUSH2 0x5CD JUMPI PUSH1 0x4 CALLDATALOAD SWAP1 PUSH2 0x17A SWAP1 DUP2 SLOAD DUP4 LT ISZERO PUSH2 0x5CD JUMPI PUSH1 0x20 PUSH2 0x123C DUP5 DUP5 PUSH2 0x428C JUMP JUMPDEST DUP3 CALLVALUE PUSH2 0x5CD JUMPI PUSH1 0x20 CALLDATASIZE PUSH1 0x3 NOT ADD SLT PUSH2 0x5CD JUMPI PUSH2 0x2A01 PUSH2 0x5B36 JUMP JUMPDEST PUSH1 0x4 CALLDATALOAD PUSH2 0x17B SSTORE PUSH1 0x40 MLOAD RETURN JUMPDEST SWAP1 POP CALLVALUE PUSH2 0xCE0 JUMPI SWAP1 PUSH2 0x1CAD SWAP2 PUSH2 0x2A24 CALLDATASIZE PUSH1 0x4 PUSH2 0x4329 JUMP JUMPDEST SWAP3 SWAP4 PUSH2 0x2A36 PUSH1 0x40 SWAP8 SWAP4 SWAP8 MLOAD SWAP7 DUP8 PUSH2 0x43EA JUMP JUMPDEST DUP6 MSTORE PUSH1 0x20 DUP6 ADD SWAP4 DUP5 MSTORE PUSH1 0x40 DUP6 ADD SWAP6 DUP7 MSTORE PUSH1 0x60 DUP6 ADD MSTORE CALLER PUSH1 0x80 DUP6 ADD DUP2 DUP2 MSTORE PUSH1 0xA0 DUP7 ADD SWAP2 DUP3 MSTORE PUSH1 0x1 PUSH1 0x1 PUSH1 0xA0 SHL SUB SWAP4 DUP5 AND PUSH1 0xC0 DUP8 ADD SWAP1 DUP2 MSTORE SWAP1 SWAP5 SWAP1 PUSH2 0x1C7A PUSH2 0x4DF9 JUMP JUMPDEST DUP3 CALLVALUE PUSH2 0x5CD JUMPI PUSH1 0x20 CALLDATASIZE PUSH1 0x3 NOT ADD SLT PUSH2 0x5CD JUMPI PUSH2 0x2A91 PUSH2 0x5B36 JUMP JUMPDEST PUSH1 0x4 CALLDATALOAD PUSH2 0x172 SSTORE PUSH1 0x40 MLOAD RETURN JUMPDEST SWAP1 POP PUSH2 0x1978 PUSH2 0x2AAD CALLDATASIZE PUSH1 0x4 PUSH2 0x4376 JUMP JUMPDEST SWAP4 SWAP5 SWAP1 PUSH1 0x40 SWAP7 SWAP3 SWAP4 SWAP7 MLOAD SWAP2 PUSH2 0x2AC4 PUSH2 0x100 DUP5 PUSH2 0x43EA JUMP JUMPDEST DUP3 MSTORE PUSH1 0x20 DUP3 ADD SWAP6 DUP7 MSTORE PUSH1 0x40 DUP3 ADD SWAP7 DUP8 MSTORE PUSH1 0x60 DUP3 ADD SWAP4 DUP5 MSTORE PUSH1 0x80 DUP3 ADD SWAP7 CALLVALUE DUP9 MSTORE PUSH1 0xA0 DUP4 ADD SWAP5 CALLER DUP7 MSTORE PUSH1 0xC0 DUP5 ADD SWAP2 PUSH1 0x1 DUP1 PUSH1 0xA0 SHL SUB SWAP9 DUP10 DUP1 SWAP6 AND DUP5 MSTORE DUP5 DUP13 DUP8 ADD SWAP10 AND DUP10 MSTORE PUSH2 0x1902 PUSH2 0x4DF9 JUMP JUMPDEST DUP3 CALLVALUE PUSH2 0x5CD JUMPI DUP1 PUSH1 0x3 NOT CALLDATASIZE ADD SLT PUSH2 0x5CD JUMPI PUSH1 0x20 PUSH2 0x1B6 SLOAD PUSH1 0x40 MLOAD SWAP1 DUP2 MSTORE RETURN JUMPDEST DUP3 CALLVALUE PUSH2 0x5CD JUMPI PUSH1 0x20 CALLDATASIZE PUSH1 0x3 NOT ADD SLT PUSH2 0x5CD JUMPI PUSH2 0x2B47 PUSH2 0x5B36 JUMP JUMPDEST PUSH1 0x4 CALLDATALOAD PUSH2 0x173 SSTORE PUSH1 0x40 MLOAD RETURN JUMPDEST DUP3 CALLVALUE PUSH2 0x5CD JUMPI DUP1 PUSH1 0x3 NOT CALLDATASIZE ADD SLT PUSH2 0x5CD JUMPI PUSH1 0x20 PUSH2 0x166 SLOAD PUSH1 0x40 MLOAD SWAP1 DUP2 MSTORE RETURN JUMPDEST DUP3 CALLVALUE PUSH2 0x5CD JUMPI DUP1 PUSH1 0x3 NOT CALLDATASIZE ADD SLT PUSH2 0x5CD JUMPI PUSH1 0x20 PUSH2 0x174 SLOAD PUSH1 0x40 MLOAD SWAP1 DUP2 MSTORE RETURN JUMPDEST DUP3 CALLVALUE PUSH2 0x5CD JUMPI PUSH1 0x20 CALLDATASIZE PUSH1 0x3 NOT ADD SLT PUSH2 0x5CD JUMPI PUSH2 0x2BAB PUSH2 0x5B36 JUMP JUMPDEST PUSH1 0x4 CALLDATALOAD PUSH2 0x16D SSTORE PUSH1 0x40 MLOAD RETURN JUMPDEST DUP3 CALLVALUE PUSH2 0x5CD JUMPI DUP1 PUSH1 0x3 NOT CALLDATASIZE ADD SLT PUSH2 0x5CD JUMPI PUSH1 0x20 PUSH2 0x16B SLOAD PUSH1 0x40 MLOAD SWAP1 DUP2 MSTORE RETURN JUMPDEST DUP3 PUSH1 0x60 CALLDATASIZE PUSH1 0x3 NOT ADD SLT PUSH2 0x917 JUMPI PUSH1 0x1 PUSH1 0x1 PUSH1 0xA0 SHL SUB PUSH1 0x44 CALLDATALOAD DUP2 DUP2 AND SWAP1 DUP2 SWAP1 SUB PUSH2 0x917 JUMPI PUSH1 0x40 MLOAD SWAP1 PUSH2 0x2C08 PUSH1 0xC0 DUP4 PUSH2 0x43EA JUMP JUMPDEST PUSH1 0x4 CALLDATALOAD DUP3 MSTORE PUSH1 0x20 DUP3 ADD PUSH1 0x24 CALLDATALOAD DUP2 MSTORE PUSH1 0x40 DUP4 ADD SWAP3 CALLVALUE DUP5 MSTORE PUSH1 0x60 DUP2 ADD SWAP3 CALLER DUP5 MSTORE PUSH1 0x80 DUP3 ADD SWAP4 CALLER DUP6 MSTORE PUSH1 0xA0 DUP4 ADD SWAP2 DUP3 MSTORE PUSH2 0xD67 PUSH2 0x4DF9 JUMP JUMPDEST DUP3 CALLVALUE PUSH2 0x5CD JUMPI PUSH1 0x20 CALLDATASIZE PUSH1 0x3 NOT ADD SLT PUSH2 0x5CD JUMPI PUSH2 0x2C57 PUSH2 0x5B36 JUMP JUMPDEST PUSH1 0x4 CALLDATALOAD PUSH2 0x170 SSTORE PUSH1 0x40 MLOAD RETURN JUMPDEST DUP3 CALLVALUE PUSH2 0x5CD JUMPI DUP1 PUSH1 0x3 NOT CALLDATASIZE ADD SLT PUSH2 0x5CD JUMPI PUSH1 0x20 PUSH2 0x17B SLOAD PUSH1 0x40 MLOAD SWAP1 DUP2 MSTORE RETURN JUMPDEST DUP3 CALLVALUE PUSH2 0x5CD JUMPI DUP1 PUSH1 0x3 NOT CALLDATASIZE ADD SLT PUSH2 0x5CD JUMPI PUSH2 0x2C9B PUSH2 0x5B36 JUMP JUMPDEST PUSH1 0x1 PUSH1 0xFF NOT PUSH1 0xCA SLOAD AND OR PUSH1 0xCA SSTORE PUSH1 0x40 MLOAD RETURN JUMPDEST DUP3 CALLVALUE PUSH2 0x5CD JUMPI DUP1 PUSH1 0x3 NOT CALLDATASIZE ADD SLT PUSH2 0x5CD JUMPI PUSH1 0x20 PUSH2 0x2CC8 PUSH2 0x59E6 JUMP JUMPDEST POP PUSH1 0x40 MLOAD SWAP1 DUP2 MSTORE RETURN JUMPDEST DUP3 CALLVALUE PUSH2 0x5CD JUMPI DUP1 PUSH1 0x3 NOT CALLDATASIZE ADD SLT PUSH2 0x5CD JUMPI PUSH2 0x161 SLOAD PUSH1 0x40 MLOAD PUSH1 0x1 PUSH1 0x1 PUSH1 0xA0 SHL SUB SWAP1 SWAP2 AND DUP2 MSTORE PUSH1 0x20 SWAP1 RETURN JUMPDEST DUP3 CALLVALUE PUSH2 0x5CD JUMPI DUP1 PUSH1 0x3 NOT CALLDATASIZE ADD SLT PUSH2 0x5CD JUMPI PUSH2 0x165 SLOAD PUSH1 0x40 MLOAD PUSH1 0x1 PUSH1 0x1 PUSH1 0xA0 SHL SUB SWAP1 SWAP2 AND DUP2 MSTORE PUSH1 0x20 SWAP1 RETURN JUMPDEST DUP3 CALLVALUE PUSH2 0x5CD JUMPI DUP1 PUSH1 0x3 NOT CALLDATASIZE ADD SLT PUSH2 0x5CD JUMPI PUSH1 0x34 PUSH2 0x21C SSTORE PUSH1 0x40 MLOAD RETURN JUMPDEST DUP3 CALLVALUE PUSH2 0x5CD JUMPI PUSH2 0x17EE PUSH2 0x2D55 CALLDATASIZE PUSH1 0x4 PUSH2 0x4303 JUMP JUMPDEST SWAP1 SWAP3 SWAP4 SWAP2 PUSH1 0x40 MLOAD SWAP5 PUSH2 0x2D68 PUSH1 0xC0 DUP8 PUSH2 0x43EA JUMP JUMPDEST DUP6 MSTORE PUSH1 0x20 DUP6 ADD SWAP1 DUP2 MSTORE PUSH1 0x40 DUP6 ADD SWAP4 DUP5 MSTORE CALLER PUSH1 0x60 DUP7 ADD DUP2 DUP2 MSTORE PUSH1 0x80 DUP8 ADD SWAP2 DUP3 MSTORE PUSH1 0x1 PUSH1 0x1 PUSH1 0xA0 SHL SUB SWAP4 DUP5 AND PUSH1 0xA0 DUP9 ADD SWAP1 DUP2 MSTORE SWAP2 SWAP4 SWAP2 SWAP3 PUSH2 0x177E PUSH2 0x4DF9 JUMP JUMPDEST DUP3 CALLVALUE PUSH2 0x5CD JUMPI PUSH1 0x40 CALLDATASIZE PUSH1 0x3 NOT ADD SLT PUSH2 0x5CD JUMPI PUSH1 0x24 CALLDATALOAD PUSH1 0x1 PUSH1 0x1 PUSH1 0xA0 SHL SUB DUP2 AND DUP2 SUB PUSH2 0x917 JUMPI PUSH2 0x966 PUSH1 0x20 SWAP2 CALLER PUSH1 0x4 CALLDATALOAD PUSH2 0x57AB JUMP JUMPDEST DUP3 CALLVALUE PUSH2 0x5CD JUMPI DUP1 PUSH1 0x3 NOT CALLDATASIZE ADD SLT PUSH2 0x5CD JUMPI PUSH1 0x20 PUSH1 0xFF PUSH1 0xCA SLOAD PUSH1 0x8 SHR AND PUSH1 0x40 MLOAD SWAP1 ISZERO ISZERO DUP2 MSTORE RETURN JUMPDEST DUP3 CALLVALUE PUSH2 0x5CD JUMPI DUP1 PUSH1 0x3 NOT CALLDATASIZE ADD SLT PUSH2 0x5CD JUMPI PUSH2 0x2E18 PUSH2 0x5BC4 JUMP JUMPDEST PUSH2 0x17F DUP1 SLOAD NUMBER LT PUSH2 0x3097 JUMPI PUSH2 0x2E30 PUSH2 0x17E SLOAD NUMBER PUSH2 0x4901 JUMP JUMPDEST SWAP1 SSTORE PUSH32 0xD3C59BDA47E141A8EC5A33D241B7F71B86E30D359F83A9227D912858B60404FC DUP2 PUSH1 0x40 MLOAD LOG1 DUP1 PUSH2 0x169 SLOAD PUSH2 0x2E66 DUP2 PUSH2 0x4B2E JUMP JUMPDEST SWAP1 DUP4 JUMPDEST DUP2 DUP2 LT PUSH2 0x2FCA JUMPI POP POP DUP2 PUSH2 0x2EE2 JUMPI JUMPDEST PUSH1 0x40 MLOAD SWAP2 PUSH1 0x40 DUP4 ADD SWAP1 DUP4 MSTORE PUSH1 0x20 SWAP1 PUSH1 0x40 DUP3 DUP6 ADD MSTORE DUP3 MLOAD DUP1 SWAP2 MSTORE DUP2 PUSH1 0x60 DUP6 ADD SWAP4 ADD SWAP2 DUP6 JUMPDEST DUP3 DUP2 LT PUSH2 0x2ECE JUMPI DUP7 PUSH32 0xAE5116A8119D08673A0F1DFA7546B95DA4BD54BB17FEDA7C61130AC7859152F6 DUP8 DUP8 SUB DUP9 LOG1 PUSH1 0x40 MLOAD RETURN JUMPDEST DUP4 MLOAD DUP6 MSTORE SWAP4 DUP2 ADD SWAP4 SWAP3 DUP2 ADD SWAP3 PUSH1 0x1 ADD PUSH2 0x2E9B JUMP JUMPDEST SWAP1 PUSH2 0x2EFA PUSH8 0xDE0B6B3A7640000 SWAP2 PUSH2 0x16B SLOAD SWAP1 PUSH2 0x4A4B JUMP JUMPDEST DIV SWAP1 PUSH2 0x163 PUSH2 0x2F0A DUP4 DUP3 SLOAD PUSH2 0x4B09 JUMP JUMPDEST SWAP1 SSTORE PUSH2 0x178 SLOAD PUSH2 0x12F DUP1 SLOAD SWAP1 SWAP2 PUSH1 0x1 PUSH1 0x1 PUSH1 0xA0 SHL SUB AND SWAP1 PUSH1 0x2 EQ PUSH2 0x2F85 JUMPI PUSH1 0x2 DUP3 SSTORE DUP4 PUSH2 0x2F3C JUMPI JUMPDEST POP PUSH1 0x1 SWAP1 SSTORE PUSH2 0x2E78 JUMP JUMPDEST DUP1 ISZERO PUSH2 0x2F73 JUMPI DUP5 DUP1 DUP1 SWAP3 DUP7 PUSH1 0x40 MLOAD SWAP2 GAS CALL PUSH2 0x2F55 PUSH2 0x47F5 JUMP JUMPDEST POP ISZERO PUSH2 0x2F61 JUMPI DUP5 PUSH2 0x2F32 JUMP JUMPDEST PUSH1 0x40 MLOAD PUSH4 0x12171D83 PUSH1 0xE3 SHL DUP2 MSTORE PUSH1 0x4 SWAP1 REVERT JUMPDEST PUSH1 0x40 MLOAD PUSH4 0xE6C4247B PUSH1 0xE0 SHL DUP2 MSTORE PUSH1 0x4 SWAP1 REVERT JUMPDEST PUSH1 0x40 MLOAD PUSH3 0x461BCD PUSH1 0xE5 SHL DUP2 MSTORE PUSH1 0x20 PUSH1 0x4 DUP3 ADD MSTORE PUSH1 0x1F PUSH1 0x24 DUP3 ADD MSTORE PUSH32 0x5265656E7472616E637947756172643A207265656E7472616E742063616C6C00 PUSH1 0x44 DUP3 ADD MSTORE PUSH1 0x64 SWAP1 REVERT JUMPDEST PUSH2 0x2FD3 DUP2 PUSH2 0x4C3A JUMP JUMPDEST PUSH2 0x2FDD DUP2 DUP4 PUSH2 0x528D JUMP JUMPDEST DUP6 PUSH2 0x180 SWAP2 PUSH2 0x2FEC DUP5 DUP5 PUSH2 0x428C JUMP JUMPDEST SWAP1 SLOAD SWAP1 PUSH1 0x3 SHL SHR SWAP1 DUP3 DUP3 SGT PUSH2 0x3008 JUMPI JUMPDEST POP POP POP POP PUSH1 0x1 ADD PUSH2 0x2E69 JUMP JUMPDEST DUP5 PUSH2 0x304C DUP4 PUSH1 0x1 SWAP8 SWAP7 SWAP11 PUSH2 0x3035 PUSH2 0x303B PUSH2 0x306B SWAP8 PUSH2 0x3052 SWAP8 PUSH8 0xDE0B6B3A7640000 SWAP4 DUP5 SWAP2 PUSH2 0x16C SLOAD PUSH2 0x4A4B JUMP JUMPDEST DIV PUSH2 0x4A4B JUMP JUMPDEST DIV PUSH2 0x3046 DUP6 DUP14 PUSH2 0x4924 JUMP JUMPDEST MSTORE PUSH2 0x4901 JUMP JUMPDEST SWAP9 PUSH2 0x428C JUMP JUMPDEST DUP2 SWAP4 SWAP2 SLOAD SWAP1 PUSH1 0x3 SHL PUSH1 0x0 NOT DUP2 SHL SWAP3 DUP4 SWAP2 SHL AND SWAP2 NOT AND OR SWAP1 JUMP JUMPDEST SWAP1 SSTORE PUSH2 0x308E PUSH2 0x307A DUP3 DUP7 PUSH2 0x4924 JUMP JUMPDEST MLOAD DUP8 DUP5 DUP1 PUSH1 0xA0 SHL SUB PUSH2 0x179 SLOAD AND SWAP2 DUP5 PUSH2 0x51F4 JUMP JUMPDEST SWAP1 DUP6 DUP8 DUP1 PUSH2 0x2FFC JUMP JUMPDEST PUSH1 0x40 MLOAD PUSH4 0x101B6859 PUSH1 0xE0 SHL DUP2 MSTORE PUSH1 0x4 SWAP1 REVERT JUMPDEST DUP3 CALLVALUE PUSH2 0x5CD JUMPI DUP1 PUSH1 0x3 NOT CALLDATASIZE ADD SLT PUSH2 0x5CD JUMPI PUSH1 0x20 PUSH2 0x966 PUSH2 0x21C SLOAD PUSH8 0xDE0B6B3A7640000 PUSH2 0x17B SLOAD DIV SWAP1 PUSH2 0x4901 JUMP JUMPDEST DUP3 CALLVALUE PUSH2 0x5CD JUMPI PUSH2 0x17EE SWAP1 PUSH2 0x30EC CALLDATASIZE PUSH1 0x4 PUSH2 0x4303 JUMP JUMPDEST PUSH1 0x40 MLOAD SWAP6 SWAP2 SWAP5 SWAP2 SWAP4 PUSH2 0x30FF PUSH1 0xC0 DUP9 PUSH2 0x43EA JUMP JUMPDEST DUP7 MSTORE PUSH1 0x20 DUP7 ADD SWAP3 DUP4 MSTORE PUSH1 0x40 DUP7 ADD SWAP5 DUP6 MSTORE CALLER PUSH1 0x60 DUP8 ADD SWAP1 DUP2 MSTORE PUSH1 0x1 PUSH1 0x1 PUSH1 0xA0 SHL SUB SWAP2 DUP3 AND PUSH1 0x80 DUP9 ADD SWAP1 DUP2 MSTORE PUSH1 0xA0 DUP9 ADD SWAP4 DUP5 MSTORE SWAP4 PUSH2 0x177E PUSH2 0x4DF9 JUMP JUMPDEST DUP3 CALLVALUE PUSH2 0x5CD JUMPI PUSH1 0x20 CALLDATASIZE PUSH1 0x3 NOT ADD SLT PUSH2 0x5CD JUMPI PUSH2 0x3153 PUSH2 0x5B36 JUMP JUMPDEST PUSH1 0x4 CALLDATALOAD PUSH2 0x175 SSTORE PUSH1 0x40 MLOAD RETURN JUMPDEST DUP3 CALLVALUE PUSH2 0x5CD JUMPI DUP1 PUSH1 0x3 NOT CALLDATASIZE ADD SLT PUSH2 0x5CD JUMPI PUSH32 0x0 PUSH1 0x1 PUSH1 0x1 PUSH1 0xA0 SHL SUB AND ADDRESS SUB PUSH2 0x31CA JUMPI PUSH1 0x20 PUSH1 0x40 MLOAD PUSH32 0x360894A13BA1A3210667C828492DB98DCA3E2076CC3735A920A3CA505D382BBC DUP2 MSTORE RETURN JUMPDEST PUSH1 0x40 MLOAD PUSH3 0x461BCD PUSH1 0xE5 SHL DUP2 MSTORE PUSH1 0x20 PUSH1 0x4 DUP3 ADD MSTORE PUSH1 0x38 PUSH1 0x24 DUP3 ADD MSTORE PUSH32 0x555550535570677261646561626C653A206D757374206E6F742062652063616C PUSH1 0x44 DUP3 ADD MSTORE PUSH32 0x6C6564207468726F7567682064656C656761746563616C6C0000000000000000 PUSH1 0x64 DUP3 ADD MSTORE PUSH1 0x84 SWAP1 REVERT JUMPDEST DUP3 CALLVALUE PUSH2 0x5CD JUMPI PUSH1 0x20 CALLDATASIZE PUSH1 0x3 NOT ADD SLT PUSH2 0x5CD JUMPI PUSH1 0x4 CALLDATALOAD SWAP1 PUSH2 0x177 SWAP1 DUP2 SLOAD DUP4 LT ISZERO PUSH2 0x5CD JUMPI PUSH1 0x20 PUSH2 0x123C DUP5 DUP5 PUSH2 0x428C JUMP JUMPDEST DUP3 CALLVALUE PUSH2 0x5CD JUMPI DUP1 PUSH1 0x3 NOT CALLDATASIZE ADD SLT PUSH2 0x5CD JUMPI PUSH2 0x327D PUSH2 0x5B36 JUMP JUMPDEST PUSH1 0xFF NOT PUSH1 0xCA SLOAD AND PUSH1 0xCA SSTORE PUSH1 0x40 MLOAD RETURN JUMPDEST DUP3 PUSH1 0x40 CALLDATASIZE PUSH1 0x3 NOT ADD SLT PUSH2 0x5CD JUMPI PUSH1 0x1 PUSH1 0x1 PUSH1 0xA0 SHL SUB PUSH1 0x4 CALLDATALOAD DUP2 DUP2 AND DUP2 SUB PUSH2 0x917 JUMPI DUP3 SWAP2 PUSH1 0x24 CALLDATALOAD SWAP2 PUSH8 0xFFFFFFFFFFFFFFFF DUP4 GT PUSH2 0x337B JUMPI CALLDATASIZE PUSH1 0x23 DUP5 ADD SLT ISZERO PUSH2 0x337B JUMPI DUP3 PUSH1 0x4 ADD CALLDATALOAD PUSH2 0x32DB DUP2 PUSH2 0x4422 JUMP JUMPDEST SWAP3 PUSH2 0x32E9 PUSH1 0x40 MLOAD SWAP5 DUP6 PUSH2 0x43EA JUMP JUMPDEST DUP2 DUP5 MSTORE CALLDATASIZE PUSH1 0x24 DUP4 DUP8 ADD ADD GT PUSH2 0x3377 JUMPI PUSH2 0x1302 SWAP6 PUSH1 0x20 DUP4 PUSH2 0x336A SWAP5 PUSH1 0x24 PUSH1 0x1 SWAP10 ADD DUP4 DUP10 ADD CALLDATACOPY DUP7 ADD ADD MSTORE DUP1 PUSH32 0x0 AND SWAP1 PUSH2 0x3341 DUP3 ADDRESS EQ ISZERO PUSH2 0x443E JUMP JUMPDEST PUSH32 0x360894A13BA1A3210667C828492DB98DCA3E2076CC3735A920A3CA505D382BBC SLOAD AND EQ PUSH2 0x449F JUMP JUMPDEST PUSH2 0x3372 PUSH2 0x5B36 JUMP JUMPDEST PUSH2 0x4500 JUMP JUMPDEST DUP6 DUP1 REVERT JUMPDEST POP POP POP REVERT JUMPDEST DUP3 CALLVALUE PUSH2 0x5CD JUMPI DUP1 PUSH1 0x3 NOT CALLDATASIZE ADD SLT PUSH2 0x5CD JUMPI PUSH1 0x20 PUSH2 0x16D SLOAD PUSH1 0x40 MLOAD SWAP1 DUP2 MSTORE RETURN JUMPDEST DUP3 CALLVALUE PUSH2 0x5CD JUMPI DUP1 PUSH1 0x3 NOT CALLDATASIZE ADD SLT PUSH2 0x5CD JUMPI PUSH2 0x179 SLOAD PUSH1 0x40 MLOAD PUSH1 0x1 PUSH1 0x1 PUSH1 0xA0 SHL SUB SWAP1 SWAP2 AND DUP2 MSTORE PUSH1 0x20 SWAP1 RETURN JUMPDEST DUP3 CALLVALUE PUSH2 0x5CD JUMPI DUP1 PUSH1 0x3 NOT CALLDATASIZE ADD SLT PUSH2 0x5CD JUMPI PUSH1 0x20 PUSH2 0x17E SLOAD PUSH1 0x40 MLOAD SWAP1 DUP2 MSTORE RETURN JUMPDEST DUP3 CALLVALUE PUSH2 0x5CD JUMPI PUSH1 0x20 CALLDATASIZE PUSH1 0x3 NOT ADD SLT PUSH2 0x5CD JUMPI PUSH1 0x4 CALLDATALOAD SWAP1 PUSH2 0x169 SWAP1 DUP2 SLOAD DUP4 LT ISZERO PUSH2 0x5CD JUMPI PUSH1 0x40 PUSH2 0x3417 DUP5 DUP5 PUSH2 0x43CE JUMP JUMPDEST POP DUP1 SLOAD PUSH1 0x1 SWAP1 SWAP2 ADD SLOAD DUP3 MLOAD SWAP2 DUP3 MSTORE PUSH1 0x1 PUSH1 0x1 PUSH1 0xA0 SHL SUB AND PUSH1 0x20 DUP3 ADD MSTORE RETURN JUMPDEST DUP3 CALLVALUE PUSH2 0x5CD JUMPI PUSH1 0x60 CALLDATASIZE PUSH1 0x3 NOT ADD SLT PUSH2 0x917 JUMPI PUSH1 0x44 CALLDATALOAD PUSH1 0x1 PUSH1 0x1 PUSH1 0xA0 SHL SUB DUP2 DUP2 AND SWAP2 DUP3 SWAP1 SUB PUSH2 0x917 JUMPI PUSH1 0x40 MLOAD SWAP2 PUSH2 0x346C PUSH1 0xA0 DUP5 PUSH2 0x43EA JUMP JUMPDEST PUSH1 0x4 CALLDATALOAD DUP4 MSTORE PUSH1 0x20 DUP4 ADD SWAP2 PUSH1 0x24 CALLDATALOAD DUP4 MSTORE PUSH1 0x40 DUP5 ADD SWAP2 CALLER DUP4 MSTORE PUSH1 0x60 DUP6 ADD SWAP2 CALLER DUP4 MSTORE PUSH1 0x80 DUP7 ADD SWAP2 DUP3 MSTORE PUSH2 0x10B1 PUSH2 0x4DF9 JUMP JUMPDEST DUP3 CALLVALUE PUSH2 0x5CD JUMPI DUP1 PUSH1 0x3 NOT CALLDATASIZE ADD SLT PUSH2 0x5CD JUMPI PUSH1 0x20 PUSH2 0x170 SLOAD PUSH1 0x40 MLOAD SWAP1 DUP2 MSTORE RETURN JUMPDEST DUP3 CALLVALUE PUSH2 0x5CD JUMPI DUP1 PUSH1 0x3 NOT CALLDATASIZE ADD SLT PUSH2 0x5CD JUMPI PUSH1 0x20 PUSH2 0x966 PUSH2 0x34E8 PUSH2 0x34F8 PUSH2 0x34F2 PUSH2 0x34E0 PUSH2 0x59E6 JUMP JUMPDEST SWAP4 SWAP1 SWAP4 PUSH2 0x4938 JUMP JUMPDEST DUP2 DUP2 SWAP4 SWAP3 SWAP6 PUSH2 0x5354 JUMP JUMPDEST SWAP3 PUSH2 0x4F12 JUMP JUMPDEST SWAP1 PUSH2 0x4A5E JUMP JUMPDEST DUP3 CALLVALUE PUSH2 0x5CD JUMPI DUP1 PUSH1 0x3 NOT CALLDATASIZE ADD SLT PUSH2 0x5CD JUMPI PUSH1 0xCA SLOAD PUSH1 0xFF DUP2 PUSH1 0x8 SHR AND ISZERO PUSH2 0x3569 JUMPI PUSH1 0x10 DUP2 SWAP1 SHR PUSH1 0x1 PUSH1 0x1 PUSH1 0xA0 SHL SUB AND CALLER SUB PUSH2 0x273E JUMPI PUSH2 0xFF00 NOT AND PUSH1 0xCA SSTORE PUSH32 0x5DB9EE0A495BF2E6FF9C91A7834C1BA4FDD244A5E8AA4E537BD38AEAE4B073AA PUSH1 0x20 PUSH1 0x40 MLOAD CALLER DUP2 MSTORE LOG1 PUSH1 0x40 MLOAD RETURN JUMPDEST PUSH1 0x40 MLOAD PUSH4 0x7C7FD079 PUSH1 0xE0 SHL DUP2 MSTORE PUSH1 0x4 SWAP1 REVERT JUMPDEST DUP3 CALLVALUE PUSH2 0x5CD JUMPI PUSH2 0x358C CALLDATASIZE PUSH1 0x4 PUSH2 0x43A8 JUMP JUMPDEST SWAP1 PUSH1 0x40 MLOAD SWAP4 PUSH2 0x359C PUSH1 0xA0 DUP7 PUSH2 0x43EA JUMP JUMPDEST DUP5 MSTORE PUSH1 0x20 DUP5 ADD SWAP3 DUP4 MSTORE PUSH1 0x40 DUP5 ADD SWAP2 CALLER DUP4 MSTORE PUSH1 0x60 DUP6 ADD SWAP2 PUSH1 0x1 DUP1 PUSH1 0xA0 SHL SUB DUP1 SWAP2 AND DUP4 MSTORE DUP1 PUSH1 0x80 DUP8 ADD SWAP3 AND DUP3 MSTORE PUSH2 0x10B1 PUSH2 0x4DF9 JUMP JUMPDEST DUP3 CALLVALUE PUSH2 0x5CD JUMPI PUSH1 0x20 CALLDATASIZE PUSH1 0x3 NOT ADD SLT PUSH2 0x5CD JUMPI PUSH2 0x35E9 PUSH2 0x5B36 JUMP JUMPDEST PUSH1 0x4 CALLDATALOAD PUSH2 0x1B6 SSTORE PUSH1 0x40 MLOAD RETURN JUMPDEST DUP3 CALLVALUE PUSH2 0x5CD JUMPI PUSH1 0x20 CALLDATASIZE PUSH1 0x3 NOT ADD SLT PUSH2 0x5CD JUMPI PUSH1 0x4 CALLDATALOAD PUSH1 0x1 PUSH1 0x1 PUSH1 0xA0 SHL SUB DUP1 DUP3 AND DUP3 SUB PUSH2 0x917 JUMPI PUSH2 0x1302 SWAP2 PUSH2 0x3654 DUP3 DUP6 SWAP4 PUSH32 0x0 AND SWAP1 PUSH2 0x3341 DUP3 ADDRESS EQ ISZERO PUSH2 0x443E JUMP JUMPDEST PUSH2 0x365C PUSH2 0x5B36 JUMP JUMPDEST PUSH2 0x3665 DUP3 PUSH2 0x4422 JUMP JUMPDEST SWAP1 PUSH2 0x3673 PUSH1 0x40 MLOAD SWAP3 DUP4 PUSH2 0x43EA JUMP JUMPDEST DUP3 DUP3 MSTORE PUSH1 0x1F NOT PUSH2 0x3682 DUP5 PUSH2 0x4422 JUMP JUMPDEST ADD CALLDATASIZE PUSH1 0x20 DUP5 ADD CALLDATACOPY PUSH2 0x4500 JUMP JUMPDEST DUP3 CALLVALUE PUSH2 0x5CD JUMPI DUP1 PUSH1 0x3 NOT CALLDATASIZE ADD SLT PUSH2 0x5CD JUMPI PUSH2 0x36A7 PUSH2 0x5BC4 JUMP JUMPDEST PUSH2 0x17D DUP1 SLOAD PUSH1 0xFF DUP2 AND DUP1 PUSH2 0x3775 JUMPI JUMPDEST DUP1 PUSH2 0x375B JUMPI JUMPDEST PUSH2 0x36C7 JUMPI JUMPDEST DUP3 PUSH1 0x40 MLOAD RETURN JUMPDEST PUSH2 0xFF00 NOT AND PUSH2 0x100 OR SWAP1 SSTORE PUSH1 0x40 MLOAD PUSH32 0x8B77276C97A5709F0D6DB52329848A254EB760CE8BE80D281799F633BDB69E83 DUP3 DUP3 LOG1 PUSH2 0x165 SLOAD DUP3 SWAP1 PUSH1 0x1 PUSH1 0x1 PUSH1 0xA0 SHL SUB AND DUP1 EXTCODESIZE ISZERO PUSH2 0xCE0 JUMPI DUP3 PUSH1 0x4 DUP2 DUP5 DUP1 SWAP5 PUSH4 0x8456CB59 PUSH1 0xE0 SHL DUP4 MSTORE GAS CALL DUP1 ISZERO PUSH2 0x374E JUMPI PUSH2 0x373E JUMPI JUMPDEST POP POP PUSH2 0x3737 PUSH2 0x4B60 JUMP JUMPDEST DUP2 DUP1 PUSH2 0x36C1 JUMP JUMPDEST PUSH2 0x3747 SWAP2 PUSH2 0x43EA JUMP JUMPDEST DUP2 DUP2 PUSH2 0x372D JUMP JUMPDEST POP PUSH1 0x40 MLOAD SWAP1 RETURNDATASIZE SWAP1 DUP3 RETURNDATACOPY RETURNDATASIZE SWAP1 REVERT JUMPDEST POP PUSH2 0x376A PUSH2 0x1E6A PUSH2 0x11FD PUSH2 0x4D10 JUMP JUMPDEST PUSH2 0x17C SLOAD LT ISZERO PUSH2 0x36BC JUMP JUMPDEST POP PUSH1 0xFF DUP2 PUSH1 0x8 SHR AND ISZERO PUSH2 0x36B6 JUMP JUMPDEST DUP3 CALLVALUE PUSH2 0x5CD JUMPI DUP1 PUSH1 0x3 NOT CALLDATASIZE ADD SLT PUSH2 0x5CD JUMPI PUSH1 0x20 PUSH2 0x171 SLOAD PUSH1 0x40 MLOAD SWAP1 DUP2 MSTORE RETURN JUMPDEST DUP3 PUSH1 0x20 CALLDATASIZE PUSH1 0x3 NOT ADD SLT PUSH2 0x5CD JUMPI PUSH1 0x40 MLOAD SWAP1 PUSH2 0x37BE PUSH1 0xA0 DUP4 PUSH2 0x43EA JUMP JUMPDEST PUSH1 0x4 CALLDATALOAD DUP3 MSTORE PUSH2 0x877 PUSH1 0x20 DUP4 ADD CALLVALUE DUP2 MSTORE PUSH1 0x40 DUP5 ADD SWAP4 CALLER DUP6 MSTORE PUSH1 0x60 DUP2 ADD SWAP4 CALLER DUP6 MSTORE PUSH1 0x80 DUP3 ADD SWAP1 DUP2 MSTORE PUSH2 0x37EC PUSH2 0x4DF9 JUMP JUMPDEST PUSH2 0x37F4 PUSH2 0x5BC4 JUMP JUMPDEST PUSH8 0xDE0B6B3A7640000 PUSH2 0x3817 PUSH2 0x845 PUSH2 0x380E PUSH2 0x833 PUSH2 0x4D10 JUMP JUMPDEST DUP7 MLOAD SWAP3 SWAP2 PUSH2 0x4F12 JUMP JUMPDEST DIV SWAP6 PUSH2 0x3821 PUSH2 0x4DAA JUMP JUMPDEST POP PUSH1 0x1 DUP1 PUSH1 0xA0 SHL SUB PUSH2 0x86C DUP2 DUP4 MLOAD AND DUP10 DUP4 DUP7 MLOAD AND PUSH2 0x16E SLOAD SWAP3 PUSH2 0x4F4D JUMP JUMPDEST DUP3 CALLVALUE PUSH2 0x5CD JUMPI DUP1 PUSH1 0x3 NOT CALLDATASIZE ADD SLT PUSH2 0x5CD JUMPI PUSH1 0x20 PUSH2 0x175 SLOAD PUSH1 0x40 MLOAD SWAP1 DUP2 MSTORE RETURN JUMPDEST DUP3 CALLVALUE PUSH2 0x5CD JUMPI PUSH1 0x20 CALLDATASIZE PUSH1 0x3 NOT ADD SLT PUSH2 0x5CD JUMPI PUSH1 0x4 CALLDATALOAD PUSH1 0x1 PUSH1 0x1 PUSH1 0xA0 SHL SUB DUP2 AND DUP2 SUB PUSH2 0xCE0 JUMPI PUSH2 0x388B PUSH2 0x5B36 JUMP JUMPDEST PUSH1 0xCA DUP1 SLOAD PUSH3 0x10000 PUSH1 0x1 PUSH1 0xB0 SHL SUB NOT AND PUSH1 0x10 SWAP3 SWAP1 SWAP3 SHL PUSH3 0x10000 PUSH1 0x1 PUSH1 0xB0 SHL SUB AND SWAP2 SWAP1 SWAP2 OR SWAP1 SSTORE PUSH1 0x40 MLOAD RETURN JUMPDEST DUP3 CALLVALUE PUSH2 0x5CD JUMPI PUSH1 0x20 CALLDATASIZE PUSH1 0x3 NOT ADD SLT PUSH2 0x5CD JUMPI PUSH2 0x38D1 PUSH2 0x5B36 JUMP JUMPDEST PUSH1 0x4 CALLDATALOAD PUSH2 0x17C SSTORE PUSH1 0x40 MLOAD RETURN JUMPDEST DUP3 CALLVALUE PUSH2 0x5CD JUMPI DUP1 PUSH1 0x3 NOT CALLDATASIZE ADD SLT PUSH2 0x5CD JUMPI PUSH1 0x20 PUSH2 0x172 SLOAD PUSH1 0x40 MLOAD SWAP1 DUP2 MSTORE RETURN JUMPDEST DUP3 CALLVALUE PUSH2 0x5CD JUMPI PUSH1 0x20 CALLDATASIZE PUSH1 0x3 NOT ADD SLT PUSH2 0x5CD JUMPI PUSH1 0x4 CALLDATALOAD PUSH1 0x1 PUSH1 0x1 PUSH1 0xA0 SHL SUB DUP2 AND SWAP1 DUP2 SWAP1 SUB PUSH2 0xCE0 JUMPI PUSH2 0x392B PUSH2 0x5B36 JUMP JUMPDEST PUSH2 0x179 DUP1 SLOAD PUSH1 0x1 PUSH1 0x1 PUSH1 0xA0 SHL SUB NOT AND SWAP1 SWAP2 OR SWAP1 SSTORE PUSH1 0x40 MLOAD RETURN JUMPDEST DUP3 CALLVALUE PUSH2 0x5CD JUMPI DUP1 PUSH1 0x3 NOT CALLDATASIZE ADD SLT PUSH2 0x5CD JUMPI PUSH1 0x20 PUSH1 0xFF PUSH2 0x17D SLOAD PUSH1 0x8 SHR AND PUSH1 0x40 MLOAD SWAP1 ISZERO ISZERO DUP2 MSTORE RETURN JUMPDEST DUP3 CALLVALUE PUSH2 0x5CD JUMPI PUSH1 0x20 CALLDATASIZE PUSH1 0x3 NOT ADD SLT PUSH2 0x5CD JUMPI PUSH2 0x3985 PUSH2 0x5B36 JUMP JUMPDEST PUSH1 0x4 CALLDATALOAD PUSH2 0x174 SSTORE PUSH1 0x40 MLOAD RETURN JUMPDEST DUP3 CALLVALUE PUSH2 0x5CD JUMPI PUSH1 0x20 CALLDATASIZE PUSH1 0x3 NOT ADD SLT PUSH2 0x5CD JUMPI PUSH1 0x4 CALLDATALOAD DUP1 ISZERO ISZERO DUP1 SWAP2 SUB PUSH2 0xCE0 JUMPI PUSH2 0x39B8 PUSH2 0x5B36 JUMP JUMPDEST PUSH2 0x17D SWAP1 PUSH1 0xFF DUP1 NOT DUP4 SLOAD AND SWAP2 AND OR SWAP1 SSTORE PUSH1 0x40 MLOAD RETURN JUMPDEST DUP3 CALLVALUE PUSH2 0x5CD JUMPI DUP1 PUSH1 0x3 NOT CALLDATASIZE ADD SLT PUSH2 0x5CD JUMPI PUSH1 0x20 PUSH2 0x966 PUSH2 0xDB7 PUSH2 0x11FD PUSH2 0x4D10 JUMP JUMPDEST DUP3 PUSH1 0x60 CALLDATASIZE PUSH1 0x3 NOT ADD SLT PUSH2 0x5CD JUMPI PUSH1 0x1 PUSH1 0x1 PUSH1 0xA0 SHL SUB PUSH1 0x44 CALLDATALOAD DUP2 DUP2 AND SWAP1 DUP2 SWAP1 SUB PUSH2 0x3A54 JUMPI PUSH1 0x40 MLOAD SWAP1 PUSH2 0x3A20 PUSH1 0xC0 DUP4 PUSH2 0x43EA JUMP JUMPDEST PUSH1 0x4 CALLDATALOAD DUP3 MSTORE PUSH1 0x20 DUP3 ADD PUSH1 0x24 CALLDATALOAD DUP2 MSTORE PUSH1 0x40 DUP4 ADD SWAP3 CALLVALUE DUP5 MSTORE PUSH1 0x60 DUP2 ADD CALLER DUP2 MSTORE PUSH1 0x80 DUP3 ADD SWAP4 DUP5 MSTORE PUSH1 0xA0 DUP3 ADD SWAP1 DUP8 DUP3 MSTORE PUSH2 0xD67 PUSH2 0x4DF9 JUMP JUMPDEST DUP3 DUP1 REVERT JUMPDEST DUP3 CALLVALUE PUSH2 0x5CD JUMPI DUP1 PUSH1 0x3 NOT CALLDATASIZE ADD SLT PUSH2 0x5CD JUMPI PUSH1 0x20 PUSH2 0x17F SLOAD PUSH1 0x40 MLOAD SWAP1 DUP2 MSTORE RETURN JUMPDEST DUP3 CALLVALUE PUSH2 0x5CD JUMPI PUSH1 0x60 CALLDATASIZE PUSH1 0x3 NOT ADD SLT PUSH2 0x5CD JUMPI PUSH1 0x40 MLOAD SWAP1 PUSH2 0x3A98 PUSH1 0xC0 DUP4 PUSH2 0x43EA JUMP JUMPDEST PUSH1 0x4 CALLDATALOAD DUP3 MSTORE PUSH2 0x17EE PUSH1 0x20 DUP4 ADD PUSH1 0x24 CALLDATALOAD DUP2 MSTORE PUSH1 0x40 DUP5 ADD SWAP3 PUSH1 0x44 CALLDATALOAD DUP5 MSTORE PUSH1 0x60 DUP6 ADD SWAP2 CALLER DUP4 MSTORE PUSH1 0x80 DUP7 ADD SWAP3 CALLER DUP5 MSTORE PUSH1 0xA0 DUP8 ADD SWAP3 DUP4 MSTORE PUSH2 0x3AD2 PUSH2 0x4DF9 JUMP JUMPDEST PUSH2 0x3ADA PUSH2 0x5BC4 JUMP JUMPDEST PUSH2 0x3B15 PUSH2 0x3AE5 PUSH2 0x4D10 JUMP JUMPDEST PUSH2 0x3B00 PUSH2 0x3AF3 DUP11 MLOAD DUP4 PUSH2 0x4924 JUMP JUMPDEST MLOAD SWAP2 PUSH2 0x833 DUP4 DUP13 MLOAD PUSH2 0x528D JUMP JUMPDEST POP POP PUSH2 0x68C PUSH8 0xDE0B6B3A7640000 DUP6 MLOAD PUSH2 0x4A4B JUMP JUMPDEST SWAP2 PUSH2 0x3B1E PUSH2 0x4DAA JUMP JUMPDEST POP PUSH1 0x1 DUP1 PUSH1 0xA0 SHL SUB SWAP3 PUSH2 0x17E3 DUP5 DUP5 MLOAD AND DUP3 DUP7 DUP9 MLOAD AND PUSH2 0x6B4 DUP14 MLOAD PUSH2 0x177 PUSH2 0x428C JUMP JUMPDEST SWAP1 POP CALLVALUE PUSH2 0xCE0 JUMPI PUSH2 0x1CB6 SWAP2 PUSH2 0x3B56 CALLDATASIZE PUSH1 0x4 PUSH2 0x4354 JUMP JUMPDEST SWAP4 SWAP2 SWAP3 PUSH2 0x3B69 PUSH1 0x40 SWAP7 SWAP3 SWAP7 MLOAD SWAP3 DUP4 PUSH2 0x43EA JUMP JUMPDEST DUP2 MSTORE PUSH1 0x20 DUP2 ADD SWAP3 DUP4 MSTORE PUSH1 0x40 DUP2 ADD SWAP5 DUP6 MSTORE PUSH1 0x60 DUP2 ADD SWAP4 DUP5 MSTORE PUSH1 0x80 DUP2 ADD SWAP3 CALLER DUP5 MSTORE PUSH1 0xA0 DUP3 ADD SWAP1 CALLER DUP3 MSTORE PUSH1 0xC0 DUP4 ADD DUP5 DUP2 MSTORE PUSH2 0x3B9F PUSH2 0x4DF9 JUMP JUMPDEST PUSH2 0x3BA7 PUSH2 0x5BC4 JUMP JUMPDEST PUSH2 0x3BD2 PUSH2 0x3BB2 PUSH2 0x4D10 JUMP JUMPDEST PUSH2 0xA7C PUSH2 0x1CC1 PUSH2 0x3BC3 DUP9 MLOAD DUP5 PUSH2 0x4924 JUMP JUMPDEST MLOAD SWAP13 DUP14 SWAP4 PUSH2 0x1CAD DUP6 DUP12 MLOAD PUSH2 0x528D JUMP JUMPDEST DIV SWAP11 MLOAD DUP1 DUP13 GT PUSH2 0x1E2B JUMPI POP SWAP2 PUSH2 0x1D11 DUP12 PUSH2 0x1D0B PUSH2 0x3C33 SWAP12 SWAP13 SWAP14 SWAP15 SWAP5 PUSH2 0x68C DUP6 PUSH2 0x1D05 PUSH2 0x3C00 SWAP10 DUP13 MLOAD SWAP10 PUSH2 0x4F12 JUMP JUMPDEST SWAP5 PUSH2 0x3C09 PUSH2 0x4DAA JUMP JUMPDEST POP PUSH1 0x1 DUP1 PUSH1 0xA0 SHL SUB SWAP1 PUSH2 0x3C28 DUP3 DUP11 MLOAD AND DUP9 DUP5 DUP7 MLOAD AND PUSH2 0x173 SLOAD SWAP3 PUSH2 0x4F4D JUMP JUMPDEST SWAP8 SWAP2 DUP10 SWAP11 SWAP2 SWAP11 PUSH2 0x4B09 JUMP JUMPDEST SWAP11 MLOAD DUP1 DUP13 LT PUSH2 0x1E0D JUMPI POP DUP11 ISZERO PUSH2 0x775 JUMPI DUP10 PUSH2 0x11B0 DUP14 DUP6 SWAP5 DUP5 DUP16 SWAP10 PUSH2 0xBD6 SWAP16 SWAP14 PUSH2 0x1E01 SWAP2 PUSH2 0xBB9 SWAP16 DUP16 DUP16 SWAP1 SWAP2 DUP16 SWAP3 DUP10 PUSH32 0x754F66F66F0AFCD87E3EDD11C0796FEF32599EFE490000FDB0F014E3AD9560FA SWAP2 DUP16 SWAP15 DUP16 DUP1 PUSH2 0x1DF2 SWAP3 MLOAD SWAP7 MLOAD AND SWAP7 MLOAD AND SWAP7 DUP9 MLOAD SWAP3 DUP1 MLOAD PUSH1 0x20 DUP3 ADD MLOAD SWAP1 PUSH1 0x60 PUSH1 0x40 DUP5 ADD MLOAD SWAP4 ADD MLOAD SWAP4 PUSH1 0x40 MLOAD SWAP8 DUP9 SWAP8 DUP9 SWAP4 SWAP1 SWAP8 SWAP7 SWAP6 SWAP3 PUSH1 0xC0 SWAP6 SWAP3 PUSH1 0xE0 DUP7 ADD SWAP10 DUP7 MSTORE PUSH1 0x20 DUP7 ADD MSTORE PUSH1 0x40 DUP6 ADD MSTORE PUSH1 0x60 DUP5 ADD MSTORE PUSH1 0x80 DUP4 ADD MSTORE PUSH1 0xA0 DUP3 ADD MSTORE ADD MSTORE JUMP JUMPDEST SWAP1 POP CALLVALUE PUSH2 0xCE0 JUMPI SWAP1 PUSH2 0x1CAD SWAP2 PUSH2 0x3CF5 CALLDATASIZE PUSH1 0x4 PUSH2 0x4376 JUMP JUMPDEST SWAP2 SWAP1 SWAP4 SWAP5 PUSH2 0x3D09 PUSH1 0x40 SWAP9 SWAP5 SWAP9 MLOAD SWAP8 DUP9 PUSH2 0x43EA JUMP JUMPDEST DUP7 MSTORE PUSH1 0x20 DUP7 ADD SWAP5 DUP6 MSTORE PUSH1 0x40 DUP7 ADD SWAP7 DUP8 MSTORE PUSH1 0x60 DUP7 ADD MSTORE PUSH1 0x80 DUP6 ADD SWAP4 CALLER DUP6 MSTORE PUSH1 0xA0 DUP7 ADD SWAP2 PUSH1 0x1 DUP1 PUSH1 0xA0 SHL SUB DUP1 SWAP6 AND DUP4 MSTORE DUP5 PUSH1 0xC0 DUP9 ADD SWAP2 AND DUP2 MSTORE PUSH2 0x1C7A PUSH2 0x4DF9 JUMP JUMPDEST SWAP1 POP PUSH2 0x3D55 CALLDATASIZE PUSH1 0x4 PUSH2 0x4354 JUMP JUMPDEST PUSH1 0x40 SWAP3 SWAP2 SWAP3 MLOAD SWAP4 PUSH2 0x3D68 PUSH2 0x100 DUP7 PUSH2 0x43EA JUMP JUMPDEST DUP5 MSTORE PUSH1 0x20 DUP5 ADD SWAP2 DUP3 MSTORE PUSH1 0x40 DUP5 ADD SWAP3 DUP4 MSTORE PUSH1 0x60 DUP5 ADD SWAP1 DUP2 MSTORE PUSH2 0x1978 PUSH1 0x80 DUP6 ADD SWAP5 CALLVALUE DUP7 MSTORE PUSH1 0xA0 DUP2 ADD SWAP3 CALLER DUP5 MSTORE PUSH1 0xC0 DUP3 ADD SWAP6 CALLER DUP8 MSTORE DUP9 DUP4 ADD SWAP6 DUP11 DUP8 MSTORE PUSH2 0x3DA9 PUSH2 0x4DF9 JUMP JUMPDEST PUSH2 0x3DB1 PUSH2 0x5BC4 JUMP JUMPDEST PUSH2 0x3DB9 PUSH2 0x4DAA JUMP JUMPDEST POP PUSH1 0x40 MLOAD PUSH4 0x1C280CE1 PUSH1 0xE0 SHL PUSH1 0x20 DUP3 ADD MSTORE SWAP4 MLOAD PUSH1 0x24 DUP6 ADD MSTORE MLOAD PUSH1 0x44 DUP5 ADD MSTORE MLOAD PUSH1 0x64 DUP4 ADD MSTORE MLOAD PUSH1 0x84 DUP3 ADD MSTORE DUP6 MLOAD PUSH1 0xA4 DUP3 ADD MSTORE DUP3 MLOAD PUSH1 0x1 PUSH1 0x1 PUSH1 0xA0 SHL SUB SWAP1 DUP2 AND PUSH1 0xC4 DUP4 ADD MSTORE SWAP5 MLOAD DUP6 AND PUSH1 0xE4 DUP3 ADD MSTORE DUP4 MLOAD DUP6 AND PUSH2 0x104 DUP1 DUP4 ADD SWAP2 SWAP1 SWAP2 MSTORE DUP2 MSTORE PUSH2 0x196D PUSH2 0x124 DUP3 PUSH2 0x43EA JUMP JUMPDEST DUP3 CALLVALUE PUSH2 0x5CD JUMPI PUSH1 0x20 CALLDATASIZE PUSH1 0x3 NOT ADD SLT PUSH2 0x5CD JUMPI PUSH1 0x4 CALLDATALOAD PUSH1 0x1 PUSH1 0x1 PUSH1 0xA0 SHL SUB DUP2 AND SWAP1 DUP2 SWAP1 SUB PUSH2 0xCE0 JUMPI PUSH2 0x3E50 PUSH2 0x5B36 JUMP JUMPDEST PUSH2 0x162 DUP1 SLOAD PUSH1 0x1 PUSH1 0x1 PUSH1 0xA0 SHL SUB NOT AND SWAP1 SWAP2 OR SWAP1 SSTORE PUSH1 0x40 MLOAD RETURN JUMPDEST DUP3 CALLVALUE PUSH2 0x5CD JUMPI PUSH1 0x20 CALLDATASIZE PUSH1 0x3 NOT ADD SLT PUSH2 0x5CD JUMPI PUSH2 0x3E83 PUSH2 0x5B36 JUMP JUMPDEST PUSH1 0x4 CALLDATALOAD PUSH2 0x171 SSTORE PUSH1 0x40 MLOAD RETURN JUMPDEST SWAP1 POP PUSH1 0x60 CALLDATASIZE PUSH1 0x3 NOT ADD SLT PUSH2 0xCE0 JUMPI PUSH2 0x3EAA PUSH1 0x40 MLOAD SWAP2 DUP3 PUSH2 0x43EA JUMP JUMPDEST PUSH1 0x4 CALLDATALOAD DUP2 MSTORE PUSH1 0x20 DUP2 ADD SWAP1 PUSH1 0x24 CALLDATALOAD DUP3 MSTORE PUSH1 0x40 DUP2 ADD SWAP3 PUSH1 0x44 CALLDATALOAD DUP5 MSTORE PUSH1 0x60 DUP3 ADD SWAP1 CALLVALUE DUP3 MSTORE PUSH1 0x80 DUP4 ADD CALLER DUP2 MSTORE DUP5 PUSH1 0xA0 DUP6 ADD SWAP4 CALLER DUP6 MSTORE PUSH1 0xC0 DUP7 ADD SWAP4 DUP1 DUP6 MSTORE PUSH2 0x3EEB PUSH2 0x4DF9 JUMP JUMPDEST PUSH2 0x3EF3 PUSH2 0x5BC4 JUMP JUMPDEST PUSH2 0x3F38 PUSH2 0xA7C PUSH2 0x68C DUP6 PUSH2 0x1445 DUP12 PUSH2 0x3F0C PUSH2 0x13F8 PUSH2 0x4D10 JUMP JUMPDEST SWAP6 SWAP1 PUSH2 0xA77 PUSH2 0x143B PUSH2 0x3F2C DUP6 PUSH2 0x68C PUSH8 0xDE0B6B3A7640000 DUP1 SWAP11 MLOAD PUSH2 0x4A4B JUMP JUMPDEST SWAP13 MLOAD PUSH2 0x166 SLOAD SWAP1 PUSH2 0x4A4B JUMP JUMPDEST SWAP9 MLOAD DUP1 DUP11 LT DUP1 ISZERO PUSH2 0x3F8E JUMPI JUMPDEST PUSH2 0x3F70 JUMPI POP PUSH2 0x3F51 PUSH2 0x4DAA JUMP JUMPDEST POP PUSH2 0x147C PUSH1 0x1 DUP1 PUSH1 0xA0 SHL SUB SWAP4 DUP5 DUP7 MLOAD AND SWAP1 DUP6 DUP9 MLOAD AND PUSH2 0x171 SLOAD SWAP3 PUSH2 0x4F4D JUMP JUMPDEST PUSH1 0x44 SWAP1 DUP11 PUSH1 0x40 MLOAD SWAP2 PUSH4 0xF577BEF5 PUSH1 0xE0 SHL DUP4 MSTORE PUSH1 0x4 DUP4 ADD MSTORE PUSH1 0x24 DUP3 ADD MSTORE REVERT JUMPDEST POP DUP10 ISZERO PUSH2 0x3F44 JUMP JUMPDEST DUP3 CALLVALUE PUSH2 0x5CD JUMPI PUSH1 0x20 CALLDATASIZE PUSH1 0x3 NOT ADD SLT PUSH2 0x5CD JUMPI PUSH1 0x4 CALLDATALOAD PUSH1 0x1 PUSH1 0x1 PUSH1 0xA0 SHL SUB DUP2 AND SWAP1 DUP2 SWAP1 SUB PUSH2 0xCE0 JUMPI PUSH2 0x3FC5 PUSH2 0x5B36 JUMP JUMPDEST PUSH2 0x178 DUP1 SLOAD PUSH1 0x1 PUSH1 0x1 PUSH1 0xA0 SHL SUB NOT AND SWAP1 SWAP2 OR SWAP1 SSTORE PUSH1 0x40 MLOAD RETURN JUMPDEST DUP3 CALLVALUE PUSH2 0x5CD JUMPI DUP1 PUSH1 0x3 NOT CALLDATASIZE ADD SLT PUSH2 0x5CD JUMPI PUSH1 0x20 PUSH2 0x1B5 SLOAD PUSH1 0x40 MLOAD SWAP1 DUP2 MSTORE RETURN JUMPDEST DUP3 CALLVALUE PUSH2 0x5CD JUMPI DUP1 PUSH1 0x3 NOT CALLDATASIZE ADD SLT PUSH2 0x5CD JUMPI PUSH1 0x97 SLOAD PUSH1 0x40 MLOAD PUSH1 0x1 PUSH1 0x1 PUSH1 0xA0 SHL SUB SWAP1 SWAP2 AND DUP2 MSTORE PUSH1 0x20 SWAP1 RETURN JUMPDEST SWAP1 POP PUSH2 0x1978 PUSH2 0x4036 CALLDATASIZE PUSH1 0x4 PUSH2 0x4329 JUMP JUMPDEST SWAP5 SWAP1 SWAP2 SWAP4 PUSH1 0x40 MLOAD SWAP1 PUSH2 0x404A PUSH2 0x100 DUP4 PUSH2 0x43EA JUMP JUMPDEST DUP2 MSTORE PUSH1 0x20 DUP2 ADD SWAP4 DUP5 MSTORE PUSH1 0x40 DUP2 ADD SWAP5 DUP6 MSTORE PUSH1 0x60 DUP2 ADD SWAP3 DUP4 MSTORE PUSH1 0x80 DUP2 ADD SWAP6 CALLVALUE DUP8 MSTORE PUSH1 0xA0 DUP3 ADD SWAP4 CALLER DUP6 MSTORE PUSH1 0xC0 DUP4 ADD SWAP1 PUSH1 0x1 DUP1 PUSH1 0xA0 SHL SUB SWAP8 DUP9 DUP1 SWAP5 AND DUP4 MSTORE DUP11 DUP6 ADD SWAP8 DUP13 DUP10 MSTORE PUSH2 0x1902 PUSH2 0x4DF9 JUMP JUMPDEST SWAP1 POP PUSH2 0x40A0 CALLDATASIZE PUSH1 0x4 PUSH2 0x4303 JUMP JUMPDEST SWAP2 SWAP4 SWAP3 PUSH2 0x40B3 PUSH1 0x40 SWAP7 SWAP3 SWAP7 MLOAD SWAP5 DUP6 PUSH2 0x43EA JUMP JUMPDEST DUP4 MSTORE PUSH1 0x20 DUP4 ADD SWAP4 DUP5 MSTORE PUSH1 0x40 DUP4 ADD SWAP5 DUP6 MSTORE PUSH1 0x60 DUP4 ADD SWAP2 CALLVALUE DUP4 MSTORE PUSH1 0x80 DUP5 ADD SWAP1 CALLER DUP3 MSTORE PUSH1 0xA0 DUP6 ADD SWAP4 PUSH1 0x1 DUP1 PUSH1 0xA0 SHL SUB DUP1 SWAP3 AND DUP6 MSTORE PUSH1 0xC0 DUP7 ADD SWAP4 DUP1 DUP6 MSTORE PUSH2 0x13D6 PUSH2 0x4DF9 JUMP JUMPDEST DUP3 PUSH1 0x60 CALLDATASIZE PUSH1 0x3 NOT ADD SLT PUSH2 0x5CD JUMPI PUSH1 0x1 PUSH1 0x1 PUSH1 0xA0 SHL SUB PUSH1 0x44 CALLDATALOAD DUP2 DUP2 AND SWAP3 SWAP1 DUP4 SWAP1 SUB PUSH2 0x5CD JUMPI POP PUSH2 0x6CC PUSH1 0x40 MLOAD PUSH2 0x412A PUSH1 0xC0 DUP3 PUSH2 0x43EA JUMP JUMPDEST PUSH1 0x4 CALLDATALOAD DUP2 MSTORE PUSH1 0x20 DUP2 ADD PUSH1 0x24 CALLDATALOAD DUP2 MSTORE PUSH1 0x40 DUP3 ADD SWAP5 CALLVALUE DUP7 MSTORE PUSH1 0x60 DUP4 ADD CALLER DUP2 MSTORE PUSH1 0x80 DUP5 ADD SWAP6 CALLER DUP8 MSTORE PUSH1 0xA0 DUP6 ADD SWAP3 DUP4 MSTORE PUSH2 0x62C PUSH2 0x4DF9 JUMP JUMPDEST DUP3 CALLVALUE PUSH2 0x5CD JUMPI DUP1 PUSH1 0x3 NOT CALLDATASIZE ADD SLT PUSH2 0x5CD JUMPI PUSH1 0x40 MLOAD PUSH4 0x7164879 PUSH1 0xE0 SHL PUSH1 0x20 DUP3 ADD MSTORE PUSH1 0x4 DUP2 MSTORE PUSH2 0x4192 SWAP1 PUSH2 0xCC8 PUSH1 0x24 DUP3 PUSH2 0x43EA JUMP JUMPDEST SWAP1 PUSH1 0x20 DUP3 DUP1 MLOAD DUP2 ADD SUB SLT PUSH2 0x5CD JUMPI PUSH1 0x20 PUSH2 0x966 DUP2 DUP5 ADD MLOAD PUSH8 0xDE0B6B3A7640000 PUSH2 0x17B SLOAD DIV SWAP1 PUSH2 0x4901 JUMP JUMPDEST DUP3 PUSH2 0x41C9 CALLDATASIZE PUSH1 0x4 PUSH2 0x42CE JUMP JUMPDEST SWAP2 SWAP6 SWAP4 PUSH2 0x41DC PUSH1 0x40 SWAP7 SWAP5 SWAP7 MLOAD SWAP6 DUP7 PUSH2 0x43EA JUMP JUMPDEST DUP5 MSTORE PUSH1 0x20 DUP5 ADD SWAP5 DUP6 MSTORE PUSH1 0x40 DUP5 ADD SWAP6 DUP7 MSTORE PUSH1 0x60 DUP5 ADD SWAP1 CALLVALUE DUP3 MSTORE PUSH1 0x80 DUP6 ADD SWAP2 CALLER DUP4 MSTORE PUSH1 0xA0 DUP7 ADD SWAP5 PUSH1 0x1 DUP1 PUSH1 0xA0 SHL SUB DUP1 SWAP4 AND DUP7 MSTORE DUP3 PUSH1 0xC0 DUP9 ADD SWAP6 AND DUP6 MSTORE PUSH2 0x13D6 PUSH2 0x4DF9 JUMP JUMPDEST DUP3 CALLVALUE PUSH2 0x5CD JUMPI PUSH1 0x20 CALLDATASIZE PUSH1 0x3 NOT ADD SLT PUSH2 0x5CD JUMPI PUSH1 0x4 CALLDATALOAD SWAP1 PUSH2 0x167 SWAP1 DUP2 SLOAD DUP4 LT ISZERO PUSH2 0x5CD JUMPI PUSH1 0x20 PUSH2 0x424D DUP5 DUP5 PUSH2 0x428C JUMP JUMPDEST SWAP1 SLOAD PUSH1 0x40 MLOAD PUSH1 0x3 SWAP3 SWAP1 SWAP3 SHL SHR PUSH1 0x1 PUSH1 0x1 PUSH1 0xA0 SHL SUB AND DUP2 MSTORE RETURN JUMPDEST DUP3 CALLVALUE PUSH2 0x5CD JUMPI PUSH1 0x20 CALLDATASIZE PUSH1 0x3 NOT ADD SLT PUSH2 0x5CD JUMPI PUSH2 0x4280 PUSH2 0x5B36 JUMP JUMPDEST PUSH1 0x4 CALLDATALOAD PUSH2 0x16C SSTORE PUSH1 0x40 MLOAD RETURN JUMPDEST DUP1 SLOAD DUP3 LT ISZERO PUSH2 0x42A4 JUMPI PUSH1 0x0 MSTORE PUSH1 0x20 PUSH1 0x0 KECCAK256 ADD SWAP1 PUSH1 0x0 SWAP1 JUMP JUMPDEST PUSH4 0x4E487B71 PUSH1 0xE0 SHL PUSH1 0x0 MSTORE PUSH1 0x32 PUSH1 0x4 MSTORE PUSH1 0x24 PUSH1 0x0 REVERT JUMPDEST CALLDATALOAD SWAP1 PUSH1 0x1 PUSH1 0x1 PUSH1 0xA0 SHL SUB DUP3 AND DUP3 SUB PUSH2 0x917 JUMPI JUMP JUMPDEST SWAP1 DUP2 PUSH1 0xA0 SWAP2 SUB SLT PUSH2 0x917 JUMPI DUP1 CALLDATALOAD SWAP2 PUSH1 0x20 DUP3 ADD CALLDATALOAD SWAP2 PUSH1 0x40 DUP2 ADD CALLDATALOAD SWAP2 PUSH2 0x4300 PUSH1 0x80 PUSH2 0x42F9 PUSH1 0x60 DUP6 ADD PUSH2 0x42BA JUMP JUMPDEST SWAP4 ADD PUSH2 0x42BA JUMP JUMPDEST SWAP1 JUMP JUMPDEST SWAP2 SWAP1 DUP3 PUSH1 0x80 SWAP2 SUB SLT PUSH2 0x917 JUMPI DUP2 CALLDATALOAD SWAP2 PUSH1 0x20 DUP2 ADD CALLDATALOAD SWAP2 PUSH2 0x4300 PUSH1 0x60 PUSH1 0x40 DUP5 ADD CALLDATALOAD SWAP4 ADD PUSH2 0x42BA JUMP JUMPDEST SWAP1 DUP2 PUSH1 0xA0 SWAP2 SUB SLT PUSH2 0x917 JUMPI DUP1 CALLDATALOAD SWAP2 PUSH1 0x20 DUP3 ADD CALLDATALOAD SWAP2 PUSH1 0x40 DUP2 ADD CALLDATALOAD SWAP2 PUSH2 0x4300 PUSH1 0x80 PUSH1 0x60 DUP5 ADD CALLDATALOAD SWAP4 ADD PUSH2 0x42BA JUMP JUMPDEST SWAP2 SWAP1 DUP3 PUSH1 0x80 SWAP2 SUB SLT PUSH2 0x917 JUMPI DUP2 CALLDATALOAD SWAP2 PUSH1 0x20 DUP2 ADD CALLDATALOAD SWAP2 PUSH1 0x60 PUSH1 0x40 DUP4 ADD CALLDATALOAD SWAP3 ADD CALLDATALOAD SWAP1 JUMP JUMPDEST SWAP2 SWAP1 DUP3 PUSH1 0xC0 SWAP2 SUB SLT PUSH2 0x917 JUMPI DUP2 CALLDATALOAD SWAP2 PUSH1 0x20 DUP2 ADD CALLDATALOAD SWAP2 PUSH1 0x40 DUP3 ADD CALLDATALOAD SWAP2 PUSH1 0x60 DUP2 ADD CALLDATALOAD SWAP2 PUSH2 0x4300 PUSH1 0xA0 PUSH2 0x42F9 PUSH1 0x80 DUP6 ADD PUSH2 0x42BA JUMP JUMPDEST SWAP2 SWAP1 DUP3 PUSH1 0x80 SWAP2 SUB SLT PUSH2 0x917 JUMPI DUP2 CALLDATALOAD SWAP2 PUSH1 0x20 DUP2 ADD CALLDATALOAD SWAP2 PUSH2 0x4300 PUSH1 0x60 PUSH2 0x42F9 PUSH1 0x40 DUP6 ADD PUSH2 0x42BA JUMP JUMPDEST DUP1 SLOAD DUP3 LT ISZERO PUSH2 0x42A4 JUMPI PUSH1 0x0 MSTORE PUSH1 0x20 PUSH1 0x0 KECCAK256 SWAP1 PUSH1 0x1 SHL ADD SWAP1 PUSH1 0x0 SWAP1 JUMP JUMPDEST SWAP1 PUSH1 0x1F DUP1 NOT SWAP2 ADD AND DUP2 ADD SWAP1 DUP2 LT PUSH8 0xFFFFFFFFFFFFFFFF DUP3 GT OR PUSH2 0x440C JUMPI PUSH1 0x40 MSTORE JUMP JUMPDEST PUSH4 0x4E487B71 PUSH1 0xE0 SHL PUSH1 0x0 MSTORE PUSH1 0x41 PUSH1 0x4 MSTORE PUSH1 0x24 PUSH1 0x0 REVERT JUMPDEST PUSH8 0xFFFFFFFFFFFFFFFF DUP2 GT PUSH2 0x440C JUMPI PUSH1 0x1F ADD PUSH1 0x1F NOT AND PUSH1 0x20 ADD SWAP1 JUMP JUMPDEST ISZERO PUSH2 0x4445 JUMPI JUMP JUMPDEST PUSH1 0x40 MLOAD PUSH3 0x461BCD PUSH1 0xE5 SHL DUP2 MSTORE PUSH1 0x20 PUSH1 0x4 DUP3 ADD MSTORE PUSH1 0x2C PUSH1 0x24 DUP3 ADD MSTORE PUSH32 0x46756E6374696F6E206D7573742062652063616C6C6564207468726F75676820 PUSH1 0x44 DUP3 ADD MSTORE PUSH12 0x19195B1959D85D1958D85B1B PUSH1 0xA2 SHL PUSH1 0x64 DUP3 ADD MSTORE PUSH1 0x84 SWAP1 REVERT JUMPDEST ISZERO PUSH2 0x44A6 JUMPI JUMP JUMPDEST PUSH1 0x40 MLOAD PUSH3 0x461BCD PUSH1 0xE5 SHL DUP2 MSTORE PUSH1 0x20 PUSH1 0x4 DUP3 ADD MSTORE PUSH1 0x2C PUSH1 0x24 DUP3 ADD MSTORE PUSH32 0x46756E6374696F6E206D7573742062652063616C6C6564207468726F75676820 PUSH1 0x44 DUP3 ADD MSTORE PUSH12 0x6163746976652070726F7879 PUSH1 0xA0 SHL PUSH1 0x64 DUP3 ADD MSTORE PUSH1 0x84 SWAP1 REVERT JUMPDEST SWAP1 PUSH1 0xFF PUSH32 0x4910FDFA16FED3260ED0E7147F7CC6DA11A60208B5B9406D12A635614FFD9143 SLOAD AND PUSH1 0x0 EQ PUSH2 0x453A JUMPI POP PUSH2 0x4538 SWAP2 POP PUSH2 0x4753 JUMP JUMPDEST JUMP JUMPDEST PUSH1 0x40 MLOAD PUSH4 0x52D1902D PUSH1 0xE0 SHL DUP2 MSTORE PUSH1 0x20 SWAP4 SWAP2 SWAP3 SWAP2 PUSH1 0x1 PUSH1 0x1 PUSH1 0xA0 SHL SUB DUP4 AND SWAP2 DUP6 DUP2 PUSH1 0x4 DUP2 DUP7 GAS STATICCALL PUSH1 0x0 SWAP2 DUP2 PUSH2 0x4724 JUMPI JUMPDEST POP PUSH2 0x45CA JUMPI PUSH1 0x40 MLOAD PUSH3 0x461BCD PUSH1 0xE5 SHL DUP2 MSTORE PUSH1 0x4 DUP2 ADD DUP8 SWAP1 MSTORE PUSH1 0x2E PUSH1 0x24 DUP3 ADD MSTORE PUSH32 0x45524331393637557067726164653A206E657720696D706C656D656E74617469 PUSH1 0x44 DUP3 ADD MSTORE PUSH14 0x6F6E206973206E6F742055555053 PUSH1 0x90 SHL PUSH1 0x64 DUP3 ADD MSTORE PUSH1 0x84 SWAP1 REVERT JUMPDEST SWAP4 SWAP5 SWAP3 SWAP4 PUSH32 0xC9F76B5EC45E5CDEF99837D7B6D2467235C1DF8933C8CA56DF5C35AFA2C7D444 ADD PUSH2 0x46CD JUMPI PUSH2 0x45FD DUP5 PUSH2 0x4753 JUMP JUMPDEST PUSH1 0x40 MLOAD SWAP2 PUSH32 0xBC7CD75A20EE27FD9ADEBAB32041F755214DBC6BFFA90CC0225B39DA2E5C2D3B PUSH1 0x0 DUP5 LOG2 DUP5 MLOAD ISZERO SWAP1 DUP2 ISZERO SWAP2 PUSH2 0x46C5 JUMPI JUMPDEST POP PUSH2 0x463E JUMPI JUMPDEST POP POP POP POP JUMP JUMPDEST DUP3 EXTCODESIZE ISZERO PUSH2 0x4676 JUMPI POP DUP3 PUSH1 0x0 SWAP3 DUP4 SWAP3 PUSH2 0x466C SWAP6 MLOAD SWAP3 ADD SWAP1 GAS DELEGATECALL PUSH2 0x465E PUSH2 0x47F5 JUMP JUMPDEST PUSH2 0x4666 PUSH2 0x4825 JUMP JUMPDEST SWAP2 PUSH2 0x4879 JUMP JUMPDEST POP CODESIZE DUP1 DUP1 DUP1 PUSH2 0x4638 JUMP JUMPDEST PUSH1 0x84 SWAP2 PUSH3 0x461BCD PUSH1 0xE5 SHL DUP3 MSTORE PUSH1 0x4 DUP3 ADD MSTORE PUSH1 0x26 PUSH1 0x24 DUP3 ADD MSTORE PUSH32 0x416464726573733A2064656C65676174652063616C6C20746F206E6F6E2D636F PUSH1 0x44 DUP3 ADD MSTORE PUSH6 0x1B9D1C9858DD PUSH1 0xD2 SHL PUSH1 0x64 DUP3 ADD MSTORE REVERT JUMPDEST SWAP1 POP CODESIZE PUSH2 0x4632 JUMP JUMPDEST PUSH1 0x40 MLOAD PUSH3 0x461BCD PUSH1 0xE5 SHL DUP2 MSTORE PUSH1 0x4 DUP2 ADD DUP5 SWAP1 MSTORE PUSH1 0x29 PUSH1 0x24 DUP3 ADD MSTORE PUSH32 0x45524331393637557067726164653A20756E737570706F727465642070726F78 PUSH1 0x44 DUP3 ADD MSTORE PUSH9 0x1A58589B1955555251 PUSH1 0xBA SHL PUSH1 0x64 DUP3 ADD MSTORE PUSH1 0x84 SWAP1 REVERT JUMPDEST SWAP1 SWAP2 DUP8 DUP3 DUP2 RETURNDATASIZE DUP4 GT PUSH2 0x474C JUMPI JUMPDEST PUSH2 0x473B DUP2 DUP4 PUSH2 0x43EA JUMP JUMPDEST DUP2 ADD SUB SLT PUSH2 0x5CD JUMPI POP MLOAD SWAP1 CODESIZE PUSH2 0x4569 JUMP JUMPDEST POP RETURNDATASIZE PUSH2 0x4731 JUMP JUMPDEST DUP1 EXTCODESIZE ISZERO PUSH2 0x479A JUMPI PUSH32 0x360894A13BA1A3210667C828492DB98DCA3E2076CC3735A920A3CA505D382BBC DUP1 SLOAD PUSH1 0x1 PUSH1 0x1 PUSH1 0xA0 SHL SUB NOT AND PUSH1 0x1 PUSH1 0x1 PUSH1 0xA0 SHL SUB SWAP1 SWAP3 AND SWAP2 SWAP1 SWAP2 OR SWAP1 SSTORE JUMP JUMPDEST PUSH1 0x40 MLOAD PUSH3 0x461BCD PUSH1 0xE5 SHL DUP2 MSTORE PUSH1 0x20 PUSH1 0x4 DUP3 ADD MSTORE PUSH1 0x2D PUSH1 0x24 DUP3 ADD MSTORE PUSH32 0x455243313936373A206E657720696D706C656D656E746174696F6E206973206E PUSH1 0x44 DUP3 ADD MSTORE PUSH13 0x1BDD08184818DBDB9D1C9858DD PUSH1 0x9A SHL PUSH1 0x64 DUP3 ADD MSTORE PUSH1 0x84 SWAP1 REVERT JUMPDEST RETURNDATASIZE ISZERO PUSH2 0x4820 JUMPI RETURNDATASIZE SWAP1 PUSH2 0x4806 DUP3 PUSH2 0x4422 JUMP JUMPDEST SWAP2 PUSH2 0x4814 PUSH1 0x40 MLOAD SWAP4 DUP5 PUSH2 0x43EA JUMP JUMPDEST DUP3 MSTORE RETURNDATASIZE PUSH1 0x0 PUSH1 0x20 DUP5 ADD RETURNDATACOPY JUMP JUMPDEST PUSH1 0x60 SWAP1 JUMP JUMPDEST PUSH2 0x482F PUSH1 0x27 PUSH2 0x4422 JUMP JUMPDEST SWAP1 PUSH2 0x483D PUSH1 0x40 MLOAD SWAP3 DUP4 PUSH2 0x43EA JUMP JUMPDEST PUSH1 0x27 DUP3 MSTORE PUSH7 0x819985A5B1959 PUSH1 0xCA SHL PUSH1 0x40 DUP4 PUSH32 0x416464726573733A206C6F772D6C6576656C2064656C65676174652063616C6C PUSH1 0x20 DUP3 ADD MSTORE ADD MSTORE JUMP JUMPDEST SWAP1 SWAP2 PUSH1 0x60 SWAP2 ISZERO PUSH2 0x4888 JUMPI POP POP SWAP1 JUMP JUMPDEST PUSH2 0x4538 SWAP2 SWAP4 SWAP3 JUMPDEST DUP1 MLOAD SWAP1 SWAP3 POP ISZERO PUSH2 0x48A2 JUMPI POP DUP1 MLOAD SWAP1 PUSH1 0x20 ADD REVERT JUMPDEST PUSH1 0x40 MLOAD SWAP1 PUSH3 0x461BCD PUSH1 0xE5 SHL DUP3 MSTORE DUP2 PUSH1 0x20 DUP1 PUSH1 0x4 DUP4 ADD MSTORE DUP3 MLOAD SWAP1 DUP2 PUSH1 0x24 DUP5 ADD MSTORE PUSH1 0x0 SWAP4 JUMPDEST DUP3 DUP6 LT PUSH2 0x48E8 JUMPI POP POP PUSH1 0x44 SWAP3 POP PUSH1 0x0 DUP4 DUP3 DUP5 ADD ADD MSTORE PUSH1 0x1F DUP1 NOT SWAP2 ADD AND DUP2 ADD SUB ADD SWAP1 REVERT JUMPDEST DUP5 DUP2 ADD DUP3 ADD MLOAD DUP7 DUP7 ADD PUSH1 0x44 ADD MSTORE SWAP4 DUP2 ADD SWAP4 DUP6 SWAP4 POP PUSH2 0x48C5 JUMP JUMPDEST SWAP2 SWAP1 DUP3 ADD DUP1 SWAP3 GT PUSH2 0x490E JUMPI JUMP JUMPDEST PUSH4 0x4E487B71 PUSH1 0xE0 SHL PUSH1 0x0 MSTORE PUSH1 0x11 PUSH1 0x4 MSTORE PUSH1 0x24 PUSH1 0x0 REVERT JUMPDEST DUP1 MLOAD DUP3 LT ISZERO PUSH2 0x42A4 JUMPI PUSH1 0x20 SWAP2 PUSH1 0x5 SHL ADD ADD SWAP1 JUMP JUMPDEST SWAP1 PUSH1 0x0 SWAP2 PUSH1 0x0 SWAP1 PUSH2 0x169 DUP1 SLOAD SWAP1 PUSH1 0x0 SWAP3 JUMPDEST DUP3 DUP5 LT PUSH2 0x496F JUMPI POP POP POP POP PUSH2 0x496B PUSH8 0xDE0B6B3A7640000 SWAP2 PUSH2 0x16B SLOAD SWAP1 PUSH2 0x4A4B JUMP JUMPDEST DIV SWAP1 JUMP JUMPDEST SWAP1 SWAP2 SWAP3 SWAP4 SWAP6 PUSH2 0x49BE DUP6 PUSH2 0x49B8 PUSH1 0x1 SWAP4 PUSH2 0xE0F PUSH2 0x498B DUP5 DUP9 PUSH2 0x4924 JUMP JUMPDEST MLOAD PUSH2 0x68C PUSH8 0xDE0B6B3A7640000 PUSH2 0xA7C DUP12 PUSH2 0x49B1 PUSH2 0x49A9 DUP7 DUP12 PUSH2 0x49E4 JUMP JUMPDEST SWAP11 SWAP1 SWAP3 PUSH2 0x43CE JUMP JUMPDEST POP SLOAD PUSH2 0x4901 JUMP JUMPDEST SWAP9 PUSH2 0x4901 JUMP JUMPDEST SWAP5 ADD SWAP3 SWAP2 SWAP1 PUSH2 0x4949 JUMP JUMPDEST SWAP2 SWAP1 SWAP2 PUSH1 0x0 DUP4 DUP3 ADD SWAP4 DUP5 SLT SWAP2 SLT SWAP1 DUP1 ISZERO DUP3 AND SWAP2 ISZERO AND OR PUSH2 0x490E JUMPI JUMP JUMPDEST SWAP2 SWAP1 PUSH1 0x0 SWAP1 PUSH2 0x4A12 DUP2 PUSH1 0x0 SWAP6 PUSH2 0x4A08 PUSH2 0x49FF DUP3 PUSH2 0x180 PUSH2 0x428C JUMP JUMPDEST SWAP4 SWAP1 SLOAD SWAP3 PUSH2 0x4A7E JUMP JUMPDEST SWAP2 PUSH1 0x3 SHL SHR PUSH2 0x49C8 JUMP JUMPDEST PUSH1 0x0 DUP2 SGT PUSH2 0x4A21 JUMPI JUMPDEST POP POP SWAP2 SWAP1 JUMP JUMPDEST PUSH2 0x4A43 SWAP2 SWAP5 POP PUSH2 0x3035 SWAP3 POP DUP1 SWAP5 PUSH8 0xDE0B6B3A7640000 SWAP4 DUP5 SWAP2 PUSH2 0x16C SLOAD PUSH2 0x4A4B JUMP JUMPDEST DIV CODESIZE DUP1 PUSH2 0x4A1B JUMP JUMPDEST DUP1 PUSH1 0x0 NOT DIV DUP3 GT DUP2 ISZERO ISZERO AND PUSH2 0x490E JUMPI MUL SWAP1 JUMP JUMPDEST DUP2 ISZERO PUSH2 0x4A68 JUMPI DIV SWAP1 JUMP JUMPDEST PUSH4 0x4E487B71 PUSH1 0xE0 SHL PUSH1 0x0 MSTORE PUSH1 0x12 PUSH1 0x4 MSTORE PUSH1 0x24 PUSH1 0x0 REVERT JUMPDEST SWAP1 PUSH2 0x4AC4 SWAP1 PUSH2 0x4ABE PUSH2 0x4AB1 PUSH2 0x4AA8 PUSH8 0xDE0B6B3A7640000 PUSH2 0x4AA1 DUP8 PUSH2 0x169 PUSH2 0x43CE JUMP JUMPDEST POP SLOAD PUSH2 0x4A4B JUMP JUMPDEST SWAP5 PUSH2 0x181 PUSH2 0x428C JUMP JUMPDEST SWAP1 SLOAD SWAP1 PUSH1 0x3 SHL SHR DUP5 PUSH2 0x4A5E JUMP JUMPDEST SWAP3 PUSH2 0x4A5E JUMP JUMPDEST SWAP1 PUSH1 0x0 DUP3 DUP3 SUB SWAP3 SLT DUP2 DUP4 SLT DUP2 AND SWAP2 DUP4 SGT SWAP1 ISZERO AND OR PUSH2 0x490E JUMPI SWAP1 JUMP JUMPDEST DUP1 ISZERO PUSH2 0x4B01 JUMPI PUSH2 0x68C PUSH8 0xDE0B6B3A7640000 PUSH2 0xA7C PUSH2 0x4300 SWAP5 PUSH2 0x163 SLOAD PUSH2 0x4B09 JUMP JUMPDEST POP POP PUSH1 0x0 NOT SWAP1 JUMP JUMPDEST SWAP2 SWAP1 DUP3 SUB SWAP2 DUP3 GT PUSH2 0x490E JUMPI JUMP JUMPDEST PUSH8 0xFFFFFFFFFFFFFFFF DUP2 GT PUSH2 0x440C JUMPI PUSH1 0x5 SHL PUSH1 0x20 ADD SWAP1 JUMP JUMPDEST SWAP1 PUSH2 0x4B38 DUP3 PUSH2 0x4B16 JUMP JUMPDEST PUSH2 0x4B45 PUSH1 0x40 MLOAD SWAP2 DUP3 PUSH2 0x43EA JUMP JUMPDEST DUP3 DUP2 MSTORE DUP1 SWAP3 PUSH2 0x4B56 PUSH1 0x1F NOT SWAP2 PUSH2 0x4B16 JUMP JUMPDEST ADD SWAP1 PUSH1 0x20 CALLDATASIZE SWAP2 ADD CALLDATACOPY JUMP JUMPDEST PUSH2 0x163 SLOAD DUP1 ISZERO PUSH2 0x4C37 JUMPI PUSH2 0x169 SWAP1 DUP2 SLOAD SWAP2 PUSH1 0x0 SWAP1 PUSH2 0x4B7D DUP5 PUSH2 0x4B2E JUMP JUMPDEST SWAP1 DUP3 SWAP1 JUMPDEST DUP6 DUP3 LT PUSH2 0x4BE7 JUMPI POP POP PUSH1 0x0 JUMPDEST DUP5 DUP2 LT PUSH2 0x4B9B JUMPI POP POP POP POP POP JUMP JUMPDEST PUSH2 0x4BB3 DUP5 PUSH2 0x68C DUP6 PUSH2 0x4BAD DUP6 DUP8 PUSH2 0x4924 JUMP JUMPDEST MLOAD PUSH2 0x4A4B JUMP JUMPDEST SWAP1 PUSH2 0x16A SWAP2 DUP3 SLOAD PUSH9 0x10000000000000000 DUP2 LT ISZERO PUSH2 0x440C JUMPI PUSH2 0x3052 DUP2 PUSH1 0x1 SWAP6 DUP7 PUSH2 0x4BDF SWAP5 ADD DUP2 SSTORE PUSH2 0x428C JUMP JUMPDEST SWAP1 SSTORE ADD PUSH2 0x4B8D JUMP JUMPDEST SWAP1 SWAP3 PUSH2 0x4C2F PUSH1 0x1 SWAP2 PUSH2 0x4BF8 DUP7 PUSH2 0x4C3A JUMP JUMPDEST PUSH2 0x4C02 DUP8 DUP8 PUSH2 0x4924 JUMP JUMPDEST MSTORE PUSH2 0xE0F PUSH2 0x4C10 DUP8 DUP7 PUSH2 0x43CE JUMP JUMPDEST POP SLOAD PUSH2 0x68C PUSH8 0xDE0B6B3A7640000 PUSH2 0x4C28 DUP11 DUP11 PUSH2 0x4924 JUMP JUMPDEST MLOAD SWAP3 PUSH2 0x4A4B JUMP JUMPDEST SWAP4 ADD SWAP1 PUSH2 0x4B81 JUMP JUMPDEST POP JUMP JUMPDEST PUSH2 0x4C46 SWAP1 PUSH2 0x169 PUSH2 0x43CE JUMP JUMPDEST POP PUSH1 0x1 ADD SLOAD PUSH1 0x1 PUSH1 0x1 PUSH1 0xA0 SHL SUB AND PUSH2 0x4C5D DUP2 PUSH2 0x4C8E JUMP JUMPDEST SWAP2 SWAP1 SWAP2 ISZERO PUSH2 0x4C69 JUMPI POP SWAP1 JUMP JUMPDEST PUSH1 0x24 SWAP1 PUSH1 0x40 MLOAD SWAP1 PUSH4 0x7F6E4DB9 PUSH1 0xE0 SHL DUP3 MSTORE PUSH1 0x4 DUP3 ADD MSTORE REVERT JUMPDEST MLOAD SWAP1 DUP2 ISZERO ISZERO DUP3 SUB PUSH2 0x917 JUMPI JUMP JUMPDEST PUSH1 0x40 DUP1 MLOAD PUSH4 0x59E02DD7 PUSH1 0xE0 SHL DUP2 MSTORE SWAP3 SWAP2 DUP2 SWAP1 DUP5 SWAP1 PUSH1 0x4 SWAP1 DUP3 SWAP1 PUSH1 0x1 PUSH1 0x1 PUSH1 0xA0 SHL SUB AND GAS STATICCALL SWAP3 DUP4 ISZERO PUSH2 0x4D05 JUMPI PUSH1 0x0 SWAP2 DUP3 SWAP5 PUSH2 0x4CC8 JUMPI POP POP SWAP2 SWAP1 JUMP JUMPDEST SWAP1 DUP1 SWAP5 POP DUP2 RETURNDATASIZE DUP4 GT PUSH2 0x4CFE JUMPI JUMPDEST PUSH2 0x4CDF DUP2 DUP4 PUSH2 0x43EA JUMP JUMPDEST DUP2 ADD SUB SLT PUSH2 0x5CD JUMPI POP PUSH2 0x4CF6 PUSH1 0x20 DUP4 MLOAD SWAP4 ADD PUSH2 0x4C81 JUMP JUMPDEST SWAP2 CODESIZE DUP1 PUSH2 0x4A1B JUMP JUMPDEST POP RETURNDATASIZE PUSH2 0x4CD5 JUMP JUMPDEST POP MLOAD RETURNDATASIZE PUSH1 0x0 DUP3 RETURNDATACOPY RETURNDATASIZE SWAP1 REVERT JUMPDEST PUSH2 0x169 SLOAD SWAP1 PUSH2 0x4D1E DUP3 PUSH2 0x4B2E JUMP JUMPDEST SWAP2 PUSH1 0x0 JUMPDEST DUP2 DUP2 LT PUSH2 0x4D2D JUMPI POP POP JUMP JUMPDEST DUP1 PUSH2 0x4D39 PUSH1 0x1 SWAP3 PUSH2 0x4C3A JUMP JUMPDEST PUSH2 0x4D43 DUP3 DUP8 PUSH2 0x4924 JUMP JUMPDEST MSTORE ADD PUSH2 0x4D22 JUMP JUMPDEST ISZERO PUSH2 0x4D51 JUMPI JUMP JUMPDEST PUSH1 0x40 MLOAD PUSH3 0x461BCD PUSH1 0xE5 SHL DUP2 MSTORE PUSH1 0x20 PUSH1 0x4 DUP3 ADD MSTORE PUSH1 0x2B PUSH1 0x24 DUP3 ADD MSTORE PUSH32 0x496E697469616C697A61626C653A20636F6E7472616374206973206E6F742069 PUSH1 0x44 DUP3 ADD MSTORE PUSH11 0x6E697469616C697A696E67 PUSH1 0xA8 SHL PUSH1 0x64 DUP3 ADD MSTORE PUSH1 0x84 SWAP1 REVERT JUMPDEST PUSH1 0x40 MLOAD SWAP1 PUSH2 0x4DB9 PUSH1 0x80 DUP4 PUSH2 0x43EA JUMP JUMPDEST PUSH1 0x0 PUSH1 0x60 DUP4 DUP3 DUP2 MSTORE DUP3 PUSH1 0x20 DUP3 ADD MSTORE DUP3 PUSH1 0x40 DUP3 ADD MSTORE ADD MSTORE JUMP JUMPDEST SWAP3 PUSH1 0xA0 SWAP5 SWAP2 SWAP8 SWAP7 SWAP6 SWAP3 PUSH1 0xC0 DUP6 ADD SWAP9 DUP6 MSTORE PUSH1 0x20 DUP6 ADD MSTORE PUSH1 0x40 DUP5 ADD MSTORE PUSH1 0x60 DUP4 ADD MSTORE PUSH1 0x80 DUP3 ADD MSTORE ADD MSTORE JUMP JUMPDEST PUSH1 0xFF PUSH2 0x17D SLOAD PUSH1 0x8 SHR AND PUSH2 0x4E09 JUMPI JUMP JUMPDEST PUSH1 0x40 MLOAD PUSH4 0x1CA61D77 PUSH1 0xE0 SHL DUP2 MSTORE PUSH1 0x4 SWAP1 REVERT JUMPDEST PUSH2 0x4E81 SWAP3 PUSH1 0x20 SWAP3 PUSH2 0x166 PUSH2 0x4E30 DUP5 DUP3 SLOAD PUSH2 0x4901 JUMP JUMPDEST SWAP1 SSTORE PUSH2 0x4E40 PUSH2 0x163 SWAP2 DUP3 SLOAD PUSH2 0x4901 JUMP JUMPDEST SWAP1 SSTORE PUSH2 0x165 SLOAD PUSH1 0x40 MLOAD PUSH4 0x40C10F19 PUSH1 0xE0 SHL DUP2 MSTORE PUSH1 0x1 PUSH1 0x1 PUSH1 0xA0 SHL SUB SWAP3 DUP4 AND PUSH1 0x4 DUP3 ADD MSTORE PUSH1 0x24 DUP2 ADD SWAP4 SWAP1 SWAP4 MSTORE SWAP2 SWAP4 DUP5 SWAP3 SWAP1 SWAP2 AND SWAP1 DUP3 SWAP1 PUSH1 0x0 SWAP1 DUP3 SWAP1 PUSH1 0x44 DUP3 ADD SWAP1 JUMP JUMPDEST SUB SWAP3 GAS CALL DUP1 ISZERO PUSH2 0x4EC3 JUMPI PUSH2 0x4E92 JUMPI POP JUMP JUMPDEST PUSH1 0x20 DUP2 RETURNDATASIZE DUP3 GT PUSH2 0x4EBB JUMPI JUMPDEST DUP2 PUSH2 0x4EAA PUSH1 0x20 SWAP4 DUP4 PUSH2 0x43EA JUMP JUMPDEST DUP2 ADD SUB SLT PUSH2 0x917 JUMPI PUSH2 0x4C37 SWAP1 PUSH2 0x4C81 JUMP JUMPDEST RETURNDATASIZE SWAP2 POP PUSH2 0x4E9D JUMP JUMPDEST PUSH1 0x40 MLOAD RETURNDATASIZE PUSH1 0x0 DUP3 RETURNDATACOPY RETURNDATASIZE SWAP1 REVERT JUMPDEST SWAP2 SWAP1 PUSH2 0x4EDA SWAP1 PUSH2 0x4938 JUMP JUMPDEST SWAP2 SWAP1 SWAP3 PUSH2 0x4EE7 DUP4 DUP6 PUSH2 0x4ADF JUMP JUMPDEST SWAP1 DUP1 DUP3 GT ISZERO PUSH2 0x4EF4 JUMPI POP POP JUMP JUMPDEST PUSH1 0x44 SWAP3 POP PUSH1 0x40 MLOAD SWAP2 PUSH4 0x79121201 PUSH1 0xE0 SHL DUP4 MSTORE PUSH1 0x4 DUP4 ADD MSTORE PUSH1 0x24 DUP3 ADD MSTORE REVERT JUMPDEST SWAP1 PUSH2 0x166 SLOAD SWAP1 DUP2 ISZERO PUSH2 0x4F3E JUMPI PUSH8 0xDE0B6B3A7640000 PUSH2 0xA7C PUSH2 0x4300 SWAP5 PUSH2 0xA77 PUSH2 0x68C SWAP5 PUSH2 0x163 SLOAD PUSH2 0x4B09 JUMP JUMPDEST POP POP POP PUSH8 0xDE0B6B3A7640000 SWAP1 JUMP JUMPDEST SWAP3 SWAP1 SWAP4 SWAP2 PUSH1 0x0 SWAP2 PUSH1 0x0 SWAP2 DUP3 SWAP7 PUSH2 0x4F61 PUSH2 0x4DAA JUMP JUMPDEST SWAP7 PUSH1 0x1 PUSH1 0x1 PUSH1 0xA0 SHL SUB SWAP2 DUP6 SWAP1 DUP4 AND DUP1 PUSH2 0x5171 JUMPI JUMPDEST POP DUP3 PUSH2 0x161 SLOAD AND DUP4 PUSH1 0x40 MLOAD SWAP4 PUSH4 0x6EB1769F PUSH1 0xE1 SHL DUP6 MSTORE AND DUP1 PUSH1 0x4 DUP6 ADD MSTORE ADDRESS PUSH1 0x24 DUP6 ADD MSTORE PUSH1 0x20 SWAP5 DUP6 DUP6 PUSH1 0x44 DUP2 DUP7 GAS STATICCALL SWAP5 DUP6 ISZERO PUSH2 0x5166 JUMPI DUP5 SWAP6 PUSH2 0x5133 JUMPI JUMPDEST POP DUP5 PUSH2 0x5012 JUMPI JUMPDEST POP POP POP POP POP DUP7 ADD MLOAD ISZERO PUSH2 0x4FCE JUMPI JUMPDEST POP POP POP SWAP3 SWAP2 SWAP1 JUMP JUMPDEST SWAP1 SWAP2 SWAP3 POP PUSH2 0x4FE6 PUSH8 0xDE0B6B3A7640000 SWAP3 DUP4 SWAP3 PUSH2 0x4A4B JUMP JUMPDEST DIV DUP1 DUP6 MSTORE SWAP1 DUP3 ISZERO PUSH2 0x500A JUMPI PUSH2 0x5002 SWAP3 DIV SWAP1 DUP2 PUSH1 0x40 DUP7 ADD MSTORE PUSH2 0x4901 JUMP JUMPDEST CODESIZE DUP1 DUP1 PUSH2 0x4FC6 JUMP JUMPDEST POP SWAP1 POP PUSH2 0x5002 JUMP JUMPDEST PUSH2 0x5020 SWAP1 PUSH2 0x162 SLOAD AND PUSH2 0x4C8E JUMP JUMPDEST SWAP3 SWAP1 SWAP3 ISZERO PUSH2 0x4FB8 JUMPI SWAP1 SWAP2 SWAP3 SWAP4 SWAP12 POP DUP5 DUP12 PUSH2 0x505A DUP6 PUSH8 0xDE0B6B3A7640000 PUSH2 0x5054 PUSH2 0x504A DUP14 DUP14 PUSH2 0x4A4B JUMP JUMPDEST PUSH2 0x175 SLOAD SWAP1 PUSH2 0x4A4B JUMP JUMPDEST DIV PUSH2 0x4A5E JUMP JUMPDEST DUP2 DUP4 ADD DUP2 DUP2 MSTORE SWAP6 SWAP1 DUP12 ISZERO PUSH2 0x5129 JUMPI POP PUSH2 0x5085 SWAP2 PUSH2 0x5079 PUSH1 0x60 SWAP3 DUP14 PUSH2 0x4A5E JUMP JUMPDEST SWAP2 DUP3 SWAP2 ADD MSTORE DUP6 MLOAD PUSH2 0x4901 JUMP JUMPDEST DUP1 SWAP14 JUMPDEST LT SWAP3 DUP4 ISZERO PUSH2 0x50B4 JUMPI JUMPDEST POP POP POP PUSH2 0x50A1 JUMPI JUMPDEST DUP1 DUP1 DUP1 PUSH2 0x4FB8 JUMP JUMPDEST DUP2 SWAP3 SWAP10 POP MSTORE DUP1 PUSH1 0x60 DUP9 ADD MSTORE SWAP7 CODESIZE DUP1 PUSH2 0x5099 JUMP JUMPDEST SWAP1 SWAP2 SWAP3 POP PUSH1 0x24 PUSH1 0x40 MLOAD DUP1 SWAP5 DUP2 SWAP4 PUSH4 0x70A08231 PUSH1 0xE0 SHL DUP4 MSTORE PUSH1 0x4 DUP4 ADD MSTORE GAS STATICCALL SWAP1 DUP2 ISZERO PUSH2 0x511E JUMPI SWAP1 DUP12 SWAP2 DUP5 SWAP2 PUSH2 0x50ED JUMPI JUMPDEST POP LT CODESIZE DUP5 DUP2 PUSH2 0x5091 JUMP JUMPDEST DUP1 SWAP3 POP DUP6 DUP1 SWAP3 POP RETURNDATASIZE DUP4 GT PUSH2 0x5117 JUMPI JUMPDEST PUSH2 0x5106 DUP2 DUP4 PUSH2 0x43EA JUMP JUMPDEST DUP2 ADD SUB SLT PUSH2 0x3A54 JUMPI DUP11 SWAP1 MLOAD CODESIZE PUSH2 0x50E3 JUMP JUMPDEST POP RETURNDATASIZE PUSH2 0x50FC JUMP JUMPDEST PUSH1 0x40 MLOAD RETURNDATASIZE DUP6 DUP3 RETURNDATACOPY RETURNDATASIZE SWAP1 REVERT JUMPDEST SWAP2 POP POP DUP1 SWAP14 PUSH2 0x5088 JUMP JUMPDEST SWAP1 SWAP5 POP DUP6 DUP2 DUP2 RETURNDATASIZE DUP4 GT PUSH2 0x515F JUMPI JUMPDEST PUSH2 0x514B DUP2 DUP4 PUSH2 0x43EA JUMP JUMPDEST DUP2 ADD SUB SLT PUSH2 0x515B JUMPI MLOAD SWAP4 CODESIZE PUSH2 0x4FB1 JUMP JUMPDEST DUP4 DUP1 REVERT JUMPDEST POP RETURNDATASIZE PUSH2 0x5141 JUMP JUMPDEST PUSH1 0x40 MLOAD RETURNDATASIZE DUP7 DUP3 RETURNDATACOPY RETURNDATASIZE SWAP1 REVERT JUMPDEST SWAP1 SWAP6 POP PUSH1 0x20 DUP4 PUSH2 0x1E9 SLOAD AND SWAP2 PUSH1 0x24 PUSH1 0x40 MLOAD DUP1 SWAP5 DUP2 SWAP4 PUSH4 0x64A731E9 PUSH1 0xE0 SHL DUP4 MSTORE PUSH1 0x4 DUP4 ADD MSTORE GAS STATICCALL DUP1 ISZERO PUSH2 0x51E9 JUMPI DUP7 SWAP1 PUSH2 0x51B6 JUMPI JUMPDEST PUSH2 0x51AF SWAP2 POP DUP5 PUSH2 0x4A4B JUMP JUMPDEST SWAP5 CODESIZE PUSH2 0x4F75 JUMP JUMPDEST POP PUSH1 0x20 DUP2 RETURNDATASIZE DUP3 GT PUSH2 0x51E1 JUMPI JUMPDEST DUP2 PUSH2 0x51CF PUSH1 0x20 SWAP4 DUP4 PUSH2 0x43EA JUMP JUMPDEST DUP2 ADD SUB SLT PUSH2 0x3377 JUMPI PUSH2 0x51AF SWAP1 MLOAD PUSH2 0x51A4 JUMP JUMPDEST RETURNDATASIZE SWAP2 POP PUSH2 0x51C2 JUMP JUMPDEST PUSH1 0x40 MLOAD RETURNDATASIZE DUP9 DUP3 RETURNDATACOPY RETURNDATASIZE SWAP1 REVERT JUMPDEST PUSH2 0x526C SWAP4 PUSH2 0x5233 PUSH1 0x0 SWAP3 PUSH1 0x20 SWAP6 PUSH2 0x520D DUP3 PUSH2 0x169 PUSH2 0x43CE JUMP JUMPDEST POP PUSH2 0x5219 DUP8 DUP3 SLOAD PUSH2 0x4901 JUMP JUMPDEST SWAP1 SSTORE PUSH2 0x5229 PUSH2 0x163 SWAP2 DUP3 SLOAD PUSH2 0x4901 JUMP JUMPDEST SWAP1 SSTORE PUSH2 0x167 PUSH2 0x428C JUMP JUMPDEST SWAP1 SLOAD PUSH1 0x40 MLOAD PUSH4 0x40C10F19 PUSH1 0xE0 SHL DUP2 MSTORE PUSH1 0x1 PUSH1 0x1 PUSH1 0xA0 SHL SUB SWAP1 SWAP4 AND PUSH1 0x4 DUP5 ADD MSTORE PUSH1 0x24 DUP4 ADD SWAP5 SWAP1 SWAP5 MSTORE SWAP1 SWAP5 DUP6 SWAP4 SWAP3 DUP5 SWAP3 SWAP1 SWAP2 DUP4 SWAP1 PUSH1 0x44 DUP3 ADD SWAP1 JUMP JUMPDEST SUB SWAP4 PUSH1 0x3 SWAP2 SWAP1 SWAP2 SHL SHR PUSH1 0x1 PUSH1 0x1 PUSH1 0xA0 SHL SUB AND GAS CALL DUP1 ISZERO PUSH2 0x4EC3 JUMPI PUSH2 0x4E92 JUMPI POP JUMP JUMPDEST PUSH2 0x3052 PUSH2 0x52E0 SWAP2 PUSH2 0x529E DUP5 DUP3 PUSH2 0x4A7E JUMP JUMPDEST PUSH2 0x52D6 PUSH2 0x52AD DUP4 PUSH2 0x180 PUSH2 0x428C JUMP JUMPDEST PUSH2 0x52C0 DUP3 SWAP5 SWAP3 SLOAD SWAP3 DUP4 DUP4 PUSH1 0x3 SHL SHR PUSH2 0x49C8 JUMP JUMPDEST SWAP2 SWAP1 PUSH1 0x3 SHL PUSH1 0x0 NOT DUP2 SHL SWAP3 DUP4 SWAP2 SHL AND SWAP2 NOT AND OR SWAP1 JUMP JUMPDEST SWAP1 SSTORE PUSH2 0x181 PUSH2 0x428C JUMP JUMPDEST SWAP1 SSTORE JUMP JUMPDEST SWAP3 PUSH2 0x960 DUP4 PUSH2 0x52F6 SWAP7 SWAP5 SWAP4 SWAP8 SWAP6 PUSH2 0x593E JUMP JUMPDEST DUP2 DUP2 LT PUSH2 0x5301 JUMPI POP POP JUMP JUMPDEST PUSH1 0x44 SWAP3 POP PUSH1 0x40 MLOAD SWAP2 PUSH4 0xC39B739F PUSH1 0xE0 SHL DUP4 MSTORE PUSH1 0x4 DUP4 ADD MSTORE PUSH1 0x24 DUP3 ADD MSTORE REVERT JUMPDEST SWAP4 PUSH2 0x532E SWAP4 PUSH2 0xA7C SWAP3 SWAP6 PUSH2 0x5354 JUMP JUMPDEST PUSH8 0xDE0B6B3A763FFFF NOT DUP3 ADD SWAP2 DUP3 GT PUSH2 0x490E JUMPI PUSH8 0xDE0B6B3A7640000 SWAP2 PUSH2 0x496B SWAP2 PUSH2 0x4A5E JUMP JUMPDEST SWAP1 SWAP2 DUP2 PUSH2 0x5361 DUP3 DUP6 PUSH2 0x4ADF JUMP JUMPDEST GT ISZERO PUSH2 0x538D JUMPI PUSH2 0x4300 SWAP3 PUSH2 0x1445 PUSH8 0xDE0B6B3A7640000 PUSH2 0xA7C PUSH2 0x5387 SWAP5 PUSH2 0x163 SLOAD PUSH2 0x4B09 JUMP JUMPDEST SWAP1 PUSH2 0x4B09 JUMP JUMPDEST POP POP POP PUSH1 0x0 SWAP1 JUMP JUMPDEST SWAP1 PUSH2 0x4300 SWAP2 PUSH1 0x0 DUP1 PUSH2 0x53A5 PUSH2 0x4825 JUMP JUMPDEST SWAP4 PUSH1 0x20 DUP2 MLOAD SWAP2 ADD DUP5 GAS DELEGATECALL PUSH2 0x53B7 PUSH2 0x47F5 JUMP JUMPDEST SWAP3 PUSH1 0x60 SWAP2 ISZERO PUSH2 0x541B JUMPI POP POP DUP2 MLOAD ISZERO PUSH2 0x53CD JUMPI POP SWAP1 JUMP JUMPDEST EXTCODESIZE ISZERO PUSH2 0x53D6 JUMPI SWAP1 JUMP JUMPDEST PUSH1 0x40 MLOAD PUSH3 0x461BCD PUSH1 0xE5 SHL DUP2 MSTORE PUSH1 0x20 PUSH1 0x4 DUP3 ADD MSTORE PUSH1 0x1D PUSH1 0x24 DUP3 ADD MSTORE PUSH32 0x416464726573733A2063616C6C20746F206E6F6E2D636F6E7472616374000000 PUSH1 0x44 DUP3 ADD MSTORE PUSH1 0x64 SWAP1 REVERT JUMPDEST SWAP1 SWAP4 SWAP3 PUSH2 0x4538 SWAP3 POP PUSH2 0x488F JUMP JUMPDEST PUSH2 0x5456 SWAP2 SWAP4 SWAP3 PUSH2 0x543A DUP3 PUSH2 0x169 PUSH2 0x43CE JUMP JUMPDEST POP PUSH2 0x5446 DUP7 DUP3 SLOAD PUSH2 0x4B09 JUMP JUMPDEST SWAP1 SSTORE PUSH2 0x5229 PUSH2 0x163 SWAP2 DUP3 SLOAD PUSH2 0x4B09 JUMP JUMPDEST SWAP1 SLOAD PUSH1 0x3 SWAP2 SWAP1 SWAP2 SHL SHR PUSH1 0x1 PUSH1 0x1 PUSH1 0xA0 SHL SUB AND SWAP2 DUP3 EXTCODESIZE ISZERO PUSH2 0x917 JUMPI PUSH1 0x40 MLOAD PUSH4 0x2770A7EB PUSH1 0xE2 SHL DUP2 MSTORE PUSH1 0x1 PUSH1 0x1 PUSH1 0xA0 SHL SUB SWAP1 SWAP3 AND PUSH1 0x4 DUP4 ADD MSTORE PUSH1 0x24 DUP3 ADD MSTORE SWAP1 PUSH1 0x0 SWAP1 DUP3 SWAP1 DUP2 DUP4 DUP2 PUSH1 0x44 DUP2 ADD JUMPDEST SUB SWAP3 GAS CALL DUP1 ISZERO PUSH2 0x4EC3 JUMPI PUSH2 0x54B1 JUMPI POP JUMP JUMPDEST PUSH1 0x0 PUSH2 0x4538 SWAP2 PUSH2 0x43EA JUMP JUMPDEST SWAP2 SWAP1 PUSH2 0x166 PUSH2 0x54CC DUP5 DUP3 SLOAD PUSH2 0x4B09 JUMP JUMPDEST SWAP1 SSTORE PUSH2 0x54DC PUSH2 0x163 SWAP2 DUP3 SLOAD PUSH2 0x4B09 JUMP JUMPDEST SWAP1 SSTORE PUSH2 0x165 SLOAD PUSH1 0x1 PUSH1 0x1 PUSH1 0xA0 SHL SUB AND SWAP2 DUP3 EXTCODESIZE ISZERO PUSH2 0x917 JUMPI PUSH1 0x40 MLOAD PUSH4 0x2770A7EB PUSH1 0xE2 SHL DUP2 MSTORE PUSH1 0x1 PUSH1 0x1 PUSH1 0xA0 SHL SUB SWAP1 SWAP3 AND PUSH1 0x4 DUP4 ADD MSTORE PUSH1 0x24 DUP3 ADD MSTORE SWAP1 PUSH1 0x0 SWAP1 DUP3 SWAP1 DUP2 DUP4 DUP2 PUSH1 0x44 DUP2 ADD PUSH2 0x54A0 JUMP JUMPDEST DUP5 MLOAD SWAP3 SWAP5 SWAP4 SWAP2 SWAP3 PUSH1 0x0 SWAP2 SWAP1 ISZERO PUSH2 0x564F JUMPI POP PUSH8 0xDE0B6B3A7640000 PUSH2 0x5550 PUSH2 0x16D SLOAD DUP7 MLOAD SWAP1 PUSH2 0x4A4B JUMP JUMPDEST DIV SWAP2 PUSH2 0x163 PUSH2 0x5560 DUP5 DUP3 SLOAD PUSH2 0x4901 JUMP JUMPDEST SWAP1 SSTORE PUSH2 0x178 SLOAD DUP6 MLOAD PUSH1 0x1 PUSH1 0x1 PUSH1 0xA0 SHL SUB SWAP7 SWAP2 DUP8 AND SWAP5 PUSH2 0x557E SWAP2 PUSH2 0x4B09 JUMP JUMPDEST PUSH2 0x12F SWAP5 PUSH1 0x2 DUP7 SLOAD EQ PUSH2 0x2F85 JUMPI PUSH1 0x2 DUP7 SSTORE DUP2 PUSH2 0x5628 JUMPI JUMPDEST POP POP PUSH1 0x40 ADD MLOAD SWAP2 SWAP5 PUSH1 0x2 DUP5 SSTORE DUP3 PUSH2 0x55FE JUMPI JUMPDEST POP POP POP PUSH1 0x1 SWAP1 SSTORE JUMPDEST PUSH2 0x12F SWAP3 PUSH1 0x2 DUP5 SLOAD EQ PUSH2 0x2F85 JUMPI PUSH1 0x2 DUP5 SSTORE DUP1 PUSH2 0x55CF JUMPI JUMPDEST POP POP POP PUSH1 0x1 SWAP1 SSTORE JUMP JUMPDEST PUSH1 0x1 PUSH1 0x1 PUSH1 0xA0 SHL SUB DUP3 AND ISZERO PUSH2 0x2F73 JUMPI DUP3 SWAP2 DUP3 SWAP2 PUSH1 0x40 MLOAD SWAP2 GAS CALL PUSH2 0x55F0 PUSH2 0x47F5 JUMP JUMPDEST POP ISZERO PUSH2 0x2F61 JUMPI CODESIZE DUP1 DUP1 PUSH2 0x55C6 JUMP JUMPDEST DUP2 AND ISZERO PUSH2 0x2F73 JUMPI PUSH1 0x0 DUP1 SWAP3 SWAP2 DUP2 SWAP3 PUSH1 0x40 MLOAD SWAP2 GAS CALL PUSH2 0x561A PUSH2 0x47F5 JUMP JUMPDEST POP ISZERO PUSH2 0x2F61 JUMPI CODESIZE DUP1 DUP1 PUSH2 0x55A7 JUMP JUMPDEST DUP1 ISZERO PUSH2 0x2F73 JUMPI DUP5 DUP1 SWAP3 SWAP2 DUP2 SWAP3 PUSH1 0x40 MLOAD SWAP2 GAS CALL PUSH2 0x5642 PUSH2 0x47F5 JUMP JUMPDEST POP ISZERO PUSH2 0x2F61 JUMPI CODESIZE DUP1 PUSH2 0x5595 JUMP JUMPDEST PUSH2 0x178 SLOAD PUSH1 0x20 DUP7 ADD MLOAD SWAP3 SWAP6 PUSH2 0x567F SWAP5 SWAP3 SWAP4 PUSH1 0x60 SWAP3 PUSH2 0x5677 SWAP2 SWAP1 PUSH1 0x1 PUSH1 0x1 PUSH1 0xA0 SHL SUB AND DUP7 PUSH2 0x5684 JUMP JUMPDEST ADD MLOAD SWAP2 PUSH2 0x5684 JUMP JUMPDEST PUSH2 0x55AF JUMP JUMPDEST SWAP2 SWAP1 SWAP2 DUP2 PUSH2 0x5691 JUMPI POP POP POP JUMP JUMPDEST PUSH2 0x572A SWAP2 PUSH1 0x0 DUP1 PUSH1 0x1 DUP1 PUSH1 0xA0 SHL SUB SWAP4 DUP5 PUSH2 0x161 SLOAD AND SWAP4 PUSH1 0x40 MLOAD SWAP6 PUSH1 0x20 SWAP9 DUP2 DUP11 DUP10 ADD SWAP5 PUSH4 0x23B872DD PUSH1 0xE0 SHL DUP7 MSTORE AND PUSH1 0x24 DUP10 ADD MSTORE AND PUSH1 0x44 DUP8 ADD MSTORE PUSH1 0x64 DUP7 ADD MSTORE PUSH1 0x64 DUP6 MSTORE PUSH2 0x56DD PUSH1 0x84 DUP7 PUSH2 0x43EA JUMP JUMPDEST PUSH2 0x56E6 DUP8 PUSH2 0x4422 JUMP JUMPDEST SWAP5 PUSH2 0x56F4 PUSH1 0x40 MLOAD SWAP7 DUP8 PUSH2 0x43EA JUMP JUMPDEST DUP8 DUP7 MSTORE PUSH32 0x5361666545524332303A206C6F772D6C6576656C2063616C6C206661696C6564 DUP9 DUP8 ADD MSTORE MLOAD SWAP1 DUP3 DUP6 GAS CALL PUSH2 0x53B7 PUSH2 0x47F5 JUMP JUMPDEST DUP1 MLOAD DUP1 PUSH2 0x5736 JUMPI POP POP POP JUMP JUMPDEST DUP2 DUP4 SWAP2 DUP2 ADD SUB SLT PUSH2 0x917 JUMPI DUP2 PUSH2 0x574C SWAP2 ADD PUSH2 0x4C81 JUMP JUMPDEST ISZERO PUSH2 0x5754 JUMPI POP JUMP JUMPDEST PUSH1 0x84 SWAP1 PUSH1 0x40 MLOAD SWAP1 PUSH3 0x461BCD PUSH1 0xE5 SHL DUP3 MSTORE PUSH1 0x4 DUP3 ADD MSTORE PUSH1 0x2A PUSH1 0x24 DUP3 ADD MSTORE PUSH32 0x5361666545524332303A204552433230206F7065726174696F6E20646964206E PUSH1 0x44 DUP3 ADD MSTORE PUSH10 0x1BDD081CDD58D8D95959 PUSH1 0xB2 SHL PUSH1 0x64 DUP3 ADD MSTORE REVERT JUMPDEST PUSH2 0x580B SWAP1 PUSH2 0x57B7 PUSH2 0x5BC4 JUMP JUMPDEST PUSH1 0x40 MLOAD PUSH4 0xE01DCE2D PUSH1 0xE0 SHL PUSH1 0x20 DUP3 ADD MSTORE PUSH1 0x24 DUP2 ADD SWAP2 SWAP1 SWAP2 MSTORE PUSH1 0x1 PUSH1 0x1 PUSH1 0xA0 SHL SUB SWAP3 DUP4 AND PUSH1 0x44 DUP3 ADD MSTORE DUP4 DUP4 AND PUSH1 0x64 DUP3 ADD DUP2 SWAP1 MSTORE SELFBALANCE PUSH1 0x84 DUP1 DUP5 ADD SWAP2 SWAP1 SWAP2 MSTORE DUP3 MSTORE SWAP3 PUSH2 0x5801 PUSH1 0xA4 DUP4 PUSH2 0x43EA JUMP JUMPDEST PUSH2 0x21D SLOAD AND PUSH2 0x5395 JUMP JUMPDEST PUSH1 0x20 DUP2 DUP1 MLOAD DUP2 ADD SUB SLT PUSH2 0x917 JUMPI PUSH1 0x20 ADD MLOAD SWAP2 PUSH2 0x12F SWAP2 PUSH1 0x2 DUP4 SLOAD EQ PUSH2 0x2F85 JUMPI PUSH1 0x2 DUP4 SSTORE DUP4 PUSH2 0x583D JUMPI JUMPDEST POP POP PUSH1 0x1 SWAP1 SSTORE SWAP1 JUMP JUMPDEST ISZERO PUSH2 0x2F73 JUMPI PUSH1 0x0 DUP1 DUP1 SWAP3 DUP6 PUSH1 0x40 MLOAD SWAP2 GAS CALL PUSH2 0x5856 PUSH2 0x47F5 JUMP JUMPDEST POP ISZERO PUSH2 0x2F61 JUMPI CODESIZE DUP1 PUSH2 0x5834 JUMP JUMPDEST SWAP3 DUP1 PUSH2 0x34F2 PUSH2 0x34F8 SWAP3 DUP6 PUSH2 0x5877 SWAP7 SWAP6 PUSH2 0x5354 JUMP JUMPDEST DUP2 DUP2 LT PUSH2 0x5882 JUMPI POP POP JUMP JUMPDEST PUSH1 0x44 SWAP3 POP PUSH1 0x40 MLOAD SWAP2 PUSH4 0xA5DB715D PUSH1 0xE0 SHL DUP4 MSTORE PUSH1 0x4 DUP4 ADD MSTORE PUSH1 0x24 DUP3 ADD MSTORE REVERT JUMPDEST PUSH1 0xE0 DUP2 ADD SWAP3 SWAP2 PUSH1 0xC0 SWAP1 DUP2 SWAP1 PUSH1 0x1 PUSH1 0x1 PUSH1 0xA0 SHL SUB DUP1 PUSH2 0x58BD DUP4 PUSH2 0x42BA JUMP JUMPDEST AND DUP6 MSTORE PUSH2 0x58CC PUSH1 0x20 DUP4 ADD PUSH2 0x42BA JUMP JUMPDEST AND PUSH1 0x20 DUP6 ADD MSTORE PUSH1 0x40 DUP2 ADD CALLDATALOAD PUSH1 0x40 DUP6 ADD MSTORE PUSH1 0x60 DUP2 ADD CALLDATALOAD PUSH1 0x60 DUP6 ADD MSTORE PUSH1 0x80 DUP2 ADD CALLDATALOAD PUSH1 0x80 DUP6 ADD MSTORE PUSH1 0xA0 DUP2 ADD CALLDATALOAD PUSH1 0xA0 DUP6 ADD MSTORE ADD CALLDATALOAD SWAP2 ADD MSTORE JUMP JUMPDEST PUSH2 0x17F SLOAD DUP1 NUMBER LT ISZERO PUSH2 0x5918 JUMPI PUSH2 0x4300 SWAP1 NUMBER SWAP1 PUSH2 0x4B09 JUMP JUMPDEST POP PUSH1 0x0 SWAP1 JUMP JUMPDEST SWAP1 PUSH1 0x40 MLOAD PUSH2 0x592D PUSH1 0x40 DUP3 PUSH2 0x43EA JUMP JUMPDEST PUSH1 0x20 PUSH1 0x1 DUP3 SWAP5 DUP1 SLOAD DUP5 MSTORE ADD SLOAD SWAP2 ADD MSTORE JUMP JUMPDEST PUSH2 0x594A DUP2 PUSH2 0x17A PUSH2 0x428C JUMP JUMPDEST SWAP1 SLOAD SWAP1 PUSH1 0x3 SHL SHR SWAP2 PUSH2 0x1B4 SWAP2 PUSH2 0x5960 DUP2 DUP5 PUSH2 0x43CE JUMP JUMPDEST POP SLOAD SWAP3 PUSH2 0x1B5 SLOAD NUMBER LT ISZERO PUSH2 0x598B JUMPI JUMPDEST POP POP DUP1 DUP3 LT ISZERO PUSH2 0x5986 JUMPI PUSH2 0x68C SWAP1 PUSH2 0x4300 SWAP4 PUSH2 0x4A4B JUMP JUMPDEST POP POP SWAP1 JUMP JUMPDEST DUP3 SWAP4 POP PUSH2 0x599F PUSH2 0x59AA SWAP4 SWAP3 PUSH2 0x59A5 SWAP3 PUSH2 0x43CE JUMP JUMPDEST POP PUSH2 0x591E JUMP JUMPDEST PUSH2 0x59B2 JUMP JUMPDEST SWAP1 CODESIZE DUP1 PUSH2 0x596F JUMP JUMPDEST PUSH1 0x20 DUP2 MLOAD SWAP2 ADD DUP1 MLOAD SWAP3 PUSH8 0xDE0B6B3A7640000 SWAP4 DUP5 SUB SWAP1 DUP5 DUP3 GT PUSH2 0x490E JUMPI PUSH2 0x59DF PUSH2 0xE0F SWAP3 PUSH2 0x496B SWAP6 PUSH2 0x4A4B JUMP JUMPDEST SWAP3 MLOAD PUSH2 0x4A4B JUMP JUMPDEST PUSH1 0x0 DUP1 PUSH2 0x169 SWAP2 DUP3 SLOAD SWAP3 PUSH2 0x59F9 DUP5 PUSH2 0x4B2E JUMP JUMPDEST SWAP4 DUP3 SWAP2 JUMPDEST DUP6 DUP3 DUP5 LT PUSH2 0x5A28 JUMPI POP POP POP POP DUP2 ISZERO PUSH2 0x5A1C JUMPI SWAP1 PUSH2 0x5A19 SWAP2 PUSH2 0x4A5E JUMP JUMPDEST SWAP2 JUMP JUMPDEST POP POP PUSH2 0x17B SLOAD PUSH1 0x1 SHL SWAP2 JUMP JUMPDEST PUSH2 0xA7C PUSH2 0x5A93 DUP6 SWAP8 SWAP7 PUSH2 0xE0F PUSH2 0x5A62 PUSH2 0x5A8A DUP10 PUSH2 0x68C DUP10 PUSH2 0xA7C PUSH2 0x5A74 DUP5 PUSH1 0x1 SWAP14 SWAP15 SWAP16 SWAP13 PUSH2 0x5A58 PUSH2 0x5A99 SWAP15 PUSH2 0x4C3A JUMP JUMPDEST SWAP9 DUP10 SWAP8 DUP9 SWAP3 PUSH2 0x4924 JUMP JUMPDEST MSTORE PUSH2 0x5A6D DUP7 DUP3 PUSH2 0x49E4 JUMP JUMPDEST POP SWAP4 PUSH2 0x43CE JUMP JUMPDEST POP PUSH2 0xA7C PUSH8 0xDE0B6B3A7640000 SWAP4 DUP5 SWAP3 SLOAD PUSH2 0x4901 JUMP JUMPDEST SWAP5 DUP6 SWAP2 DUP13 PUSH2 0x593E JUMP JUMPDEST SWAP6 PUSH2 0x4901 JUMP JUMPDEST SWAP5 ADD SWAP2 SWAP1 PUSH2 0x59FD JUMP JUMPDEST PUSH2 0x1B5 DUP1 SLOAD NUMBER LT ISZERO PUSH2 0x5AB1 JUMPI POP JUMP JUMPDEST PUSH2 0x169 SLOAD PUSH1 0x0 JUMPDEST DUP2 DUP2 LT PUSH2 0x5ACB JUMPI POP POP PUSH2 0x1B6 SLOAD NUMBER ADD SWAP1 SSTORE JUMP JUMPDEST DUP1 DUP1 PUSH32 0x19156E9379C7BBBCE8F646CE5EE30BA860B8F954717405F3D5859A6C1A21AE60 PUSH1 0x1 SWAP4 PUSH2 0x1B4 PUSH2 0x5B01 PUSH2 0x599F DUP4 DUP4 PUSH2 0x43CE JUMP JUMPDEST SWAP1 PUSH2 0x5B1F PUSH2 0x5B17 PUSH2 0x5B11 DUP6 PUSH2 0x4C3A JUMP JUMPDEST DUP5 PUSH2 0x59B2 JUMP JUMPDEST SWAP4 DUP5 SWAP3 PUSH2 0x43CE JUMP JUMPDEST POP SSTORE MLOAD PUSH1 0x40 SWAP2 DUP3 MLOAD SWAP2 DUP3 MSTORE PUSH1 0x20 DUP3 ADD MSTORE LOG2 ADD PUSH2 0x5AB8 JUMP JUMPDEST PUSH1 0x97 SLOAD PUSH1 0x40 MLOAD PUSH4 0xD994D6D5 PUSH1 0xE0 SHL DUP2 MSTORE CALLER PUSH1 0x4 DUP3 ADD MSTORE SWAP1 PUSH1 0x20 SWAP1 DUP3 SWAP1 PUSH1 0x24 SWAP1 DUP3 SWAP1 PUSH1 0x1 PUSH1 0x1 PUSH1 0xA0 SHL SUB AND GAS STATICCALL SWAP1 DUP2 ISZERO PUSH2 0x4EC3 JUMPI PUSH1 0x0 SWAP2 PUSH2 0x5B8B JUMPI JUMPDEST POP ISZERO PUSH2 0x5B79 JUMPI JUMP JUMPDEST PUSH1 0x40 MLOAD PUSH4 0x1DD1B1B5 PUSH1 0xE2 SHL DUP2 MSTORE PUSH1 0x4 SWAP1 REVERT JUMPDEST SWAP1 PUSH1 0x20 DUP3 RETURNDATASIZE DUP3 GT PUSH2 0x5BBC JUMPI JUMPDEST DUP2 PUSH2 0x5BA4 PUSH1 0x20 SWAP4 DUP4 PUSH2 0x43EA JUMP JUMPDEST DUP2 ADD SUB SLT PUSH2 0x5CD JUMPI POP PUSH2 0x5BB6 SWAP1 PUSH2 0x4C81 JUMP JUMPDEST CODESIZE PUSH2 0x5B71 JUMP JUMPDEST RETURNDATASIZE SWAP2 POP PUSH2 0x5B97 JUMP JUMPDEST PUSH1 0xFF PUSH1 0xCA SLOAD PUSH1 0x8 SHR AND PUSH2 0x5BD3 JUMPI JUMP JUMPDEST PUSH1 0x40 MLOAD PUSH4 0x783BB6C9 PUSH1 0xE1 SHL DUP2 MSTORE PUSH1 0x4 SWAP1 REVERT JUMPDEST PUSH8 0xDE0B6B3A7640000 LT PUSH2 0x252A JUMPI JUMP INVALID LOG2 PUSH5 0x6970667358 0x22 SLT KECCAK256 0xBD 0xA7 LOG0 0xDB PUSH2 0x6DF3 SUB 0x4F DIV 0xD1 SIGNEXTEND 0xFB 0xDE AND 0xCB GASLIMIT 0xDF SWAP7 SWAP11 PUSH23 0xF282DD9EF14C321325BCFC64736F6C6343000810003300 "
    },
    "gasEstimates": {
      "creation": {
        "codeDepositCost": "4719000",
        "executionCost": "infinite",
        "totalCost": "infinite"
      },
      "external": {
        "addPeggedToken((address,address,uint256,uint256,uint256,uint256,uint256))": "infinite",
        "appreciationFactor()": "4947",
        "bes()": "3120",
        "bns()": "2636",
        "calcCtargemaCA()": "infinite",
        "changeGovernor(address)": "infinite",
        "editPeggedToken((address,address,uint256,uint256,uint256,uint256,uint256))": "infinite",
        "emaCalculationBlockSpan()": "3714",
        "evalLiquidation()": "infinite",
        "execSettlement()": "infinite",
        "feeRetainer()": "3164",
        "feeToken()": "3496",
        "feeTokenPct()": "2856",
        "feeTokenPriceProvider()": "4838",
        "getBts()": "4887",
        "getCglb()": "infinite",
        "getCustomMockValue()": "5491",
        "getExpansionCustomMockValue()": "infinite",
        "getLeverageTC()": "infinite",
        "getPACtp(uint256)": "infinite",
        "getPTCac()": "infinite",
        "getTCAvailableToRedeem()": "infinite",
        "getTPAvailableToMint(uint256)": "infinite",
        "getTotalACavailable()": "infinite",
        "governor()": "2440",
        "initialize(((address,address,address,address,address,uint256,uint256,uint256,uint256,uint256,uint256,uint256,uint256,uint256,uint256,uint256,uint256,uint256,uint256),address,address,address,uint256,address))": "infinite",
        "initializeMock()": "23413",
        "isLiquidationReached()": "infinite",
        "liqEnabled()": "4760",
        "liqRedeemTP(uint256)": "infinite",
        "liqRedeemTPto(uint256,address)": "infinite",
        "liqThrld()": "3956",
        "liquidated()": "2764",
        "makeStoppable()": "infinite",
        "makeUnstoppable()": "infinite",
        "mintTC(uint256)": "infinite",
        "mintTCViaVendor(uint256,address)": "infinite",
        "mintTCandTP(uint256,uint256)": "infinite",
        "mintTCandTPFee()": "3648",
        "mintTCandTPViaVendor(uint256,uint256,address)": "infinite",
        "mintTCandTPto(uint256,uint256,address)": "infinite",
        "mintTCandTPtoViaVendor(uint256,uint256,address,address)": "infinite",
        "mintTCto(uint256,address)": "infinite",
        "mintTCtoViaVendor(uint256,address,address)": "infinite",
        "mintTP(uint256,uint256)": "infinite",
        "mintTPViaVendor(uint256,uint256,address)": "infinite",
        "mintTPto(uint256,uint256,address)": "infinite",
        "mintTPtoViaVendor(uint256,uint256,address,address)": "infinite",
        "mocAppreciationBeneficiaryAddress()": "3166",
        "mocFeeFlowAddress()": "4134",
        "mocVendors()": "3892",
        "nACcb()": "4880",
        "nTCcb()": "3670",
        "newVariable()": "3978",
        "nextEmaCalculation()": "2438",
        "pause()": "29294",
        "paused()": "3380",
        "pauser()": "4253",
        "pegContainer(uint256)": "9609",
        "peggedTokenIndex(address)": "6452",
        "protThrld()": "3538",
        "proxiableUUID()": "infinite",
        "redeemTC(uint256,uint256)": "infinite",
        "redeemTCViaVendor(uint256,uint256,address)": "infinite",
        "redeemTCandTP(uint256,uint256,uint256,uint256)": "infinite",
        "redeemTCandTPFee()": "4902",
        "redeemTCandTPViaVendor(uint256,uint256,uint256,uint256,address)": "infinite",
        "redeemTCandTPto(uint256,uint256,uint256,uint256,address)": "infinite",
        "redeemTCandTPtoViaVendor(uint256,uint256,uint256,uint256,address,address)": "infinite",
        "redeemTCto(uint256,uint256,address)": "infinite",
        "redeemTCtoViaVendor(uint256,uint256,address,address)": "infinite",
        "redeemTP(uint256,uint256,uint256)": "infinite",
        "redeemTPViaVendor(uint256,uint256,uint256,address)": "infinite",
        "redeemTPto(uint256,uint256,uint256,address)": "infinite",
        "redeemTPtoViaVendor(uint256,uint256,uint256,address,address)": "infinite",
        "setAppreciationFactor(uint256)": "infinite",
        "setBes(uint256)": "infinite",
        "setEmaCalculationBlockSpan(uint256)": "infinite",
        "setFeeRetainer(uint256)": "infinite",
        "setFeeTokenAddress(address)": "infinite",
        "setFeeTokenPct(uint256)": "infinite",
        "setFeeTokenPriceProviderAddress(address)": "infinite",
        "setLiqEnabled(bool)": "infinite",
        "setLiqThrld(uint256)": "infinite",
        "setMintTCandTPFee(uint256)": "infinite",
        "setMocAppreciationBeneficiaryAddress(address)": "infinite",
        "setMocCoreExpansion(address)": "infinite",
        "setMocFeeFlowAddress(address)": "infinite",
        "setPauser(address)": "infinite",
        "setProtThrld(uint256)": "infinite",
        "setRedeemTCandTPFee(uint256)": "infinite",
        "setSuccessFee(uint256)": "infinite",
        "setSwapTCforTPFee(uint256)": "infinite",
        "setSwapTPforTCFee(uint256)": "infinite",
        "setSwapTPforTPFee(uint256)": "infinite",
        "setTcMintFee(uint256)": "infinite",
        "setTcRedeemFee(uint256)": "infinite",
        "shouldCalculateEma()": "4250",
        "stoppable()": "4386",
        "successFee()": "3604",
        "swapTCforTP(uint256,uint256,uint256)": "infinite",
        "swapTCforTPFee()": "2790",
        "swapTCforTPViaVendor(uint256,uint256,uint256,address)": "infinite",
        "swapTCforTPto(uint256,uint256,uint256,address)": "infinite",
        "swapTCforTPtoViaVendor(uint256,uint256,uint256,address,address)": "infinite",
        "swapTPforTC(uint256,uint256,uint256)": "infinite",
        "swapTPforTCFee()": "2900",
        "swapTPforTCViaVendor(uint256,uint256,uint256,address)": "infinite",
        "swapTPforTCto(uint256,uint256,uint256,address)": "infinite",
        "swapTPforTCtoViaVendor(uint256,uint256,uint256,address,address)": "infinite",
        "swapTPforTP(uint256,uint256,uint256,uint256)": "infinite",
        "swapTPforTPFee()": "3054",
        "swapTPforTPViaVendor(uint256,uint256,uint256,uint256,address)": "infinite",
        "swapTPforTPto(uint256,uint256,uint256,uint256,address)": "infinite",
        "swapTPforTPtoViaVendor(uint256,uint256,uint256,uint256,address,address)": "infinite",
        "tcMintFee()": "5030",
        "tcRedeemFee()": "4286",
        "tcToken()": "3474",
        "tpCtarg(uint256)": "8188",
        "tpEma(uint256)": "11216",
        "tpMintFee(uint256)": "8980",
        "tpRedeemFee(uint256)": "7594",
        "tpTokens(uint256)": "6672",
        "unpause()": "26215",
        "updateEmas()": "infinite",
        "upgradeTo(address)": "infinite",
        "upgradeToAndCall(address,bytes)": "infinite"
      }
    },
    "methodIdentifiers": {
      "addPeggedToken((address,address,uint256,uint256,uint256,uint256,uint256))": "db796072",
      "appreciationFactor()": "fa6e83bd",
      "bes()": "4d977e78",
      "bns()": "1867e2f5",
      "calcCtargemaCA()": "662013f4",
      "changeGovernor(address)": "e4c0aaf4",
      "editPeggedToken((address,address,uint256,uint256,uint256,uint256,uint256))": "f26114aa",
      "emaCalculationBlockSpan()": "7a727fe8",
      "evalLiquidation()": "33421c38",
      "execSettlement()": "5c616a73",
      "feeRetainer()": "4f0f27ee",
      "feeToken()": "647846a5",
      "feeTokenPct()": "2ded50f0",
      "feeTokenPriceProvider()": "f13f4054",
      "getBts()": "e8859a15",
      "getCglb()": "826fcd58",
      "getCustomMockValue()": "57271f4d",
      "getExpansionCustomMockValue()": "07164879",
      "getLeverageTC()": "c039cc69",
      "getPACtp(uint256)": "904aa85b",
      "getPTCac()": "1fb0dda0",
      "getTCAvailableToRedeem()": "4017936a",
      "getTPAvailableToMint(uint256)": "fa79589e",
      "getTotalACavailable()": "de8d520a",
      "governor()": "0c340a24",
      "initialize(((address,address,address,address,address,uint256,uint256,uint256,uint256,uint256,uint256,uint256,uint256,uint256,uint256,uint256,uint256,uint256,uint256),address,address,address,uint256,address))": "979d9a88",
      "initializeMock()": "5e2a6065",
      "isLiquidationReached()": "9ad6659d",
      "liqEnabled()": "e7c25978",
      "liqRedeemTP(uint256)": "9195c85b",
      "liqRedeemTPto(uint256,address)": "5d65d045",
      "liqThrld()": "8cfa4241",
      "liquidated()": "23b98cde",
      "makeStoppable()": "68274357",
      "makeUnstoppable()": "5210570c",
      "mintTC(uint256)": "31f64ec2",
      "mintTCViaVendor(uint256,address)": "d8233ecc",
      "mintTCandTP(uint256,uint256)": "ac4fc1a8",
      "mintTCandTPFee()": "79f9a91c",
      "mintTCandTPViaVendor(uint256,uint256,address)": "71820f12",
      "mintTCandTPto(uint256,uint256,address)": "1f79da55",
      "mintTCandTPtoViaVendor(uint256,uint256,address,address)": "ec629679",
      "mintTCto(uint256,address)": "b3903b39",
      "mintTCtoViaVendor(uint256,address,address)": "fb3bfcea",
      "mintTP(uint256,uint256)": "82a5792c",
      "mintTPViaVendor(uint256,uint256,address)": "0ad8c234",
      "mintTPto(uint256,uint256,address)": "91f388d8",
      "mintTPtoViaVendor(uint256,uint256,address,address)": "fcf207d4",
      "mocAppreciationBeneficiaryAddress()": "4e1f907a",
      "mocFeeFlowAddress()": "9853c35a",
      "mocVendors()": "7f01c715",
      "nACcb()": "f30b5614",
      "nTCcb()": "7a193c31",
      "newVariable()": "8d7a72f3",
      "nextEmaCalculation()": "0c36d897",
      "pause()": "8456cb59",
      "paused()": "5c975abb",
      "pauser()": "9fd0506d",
      "pegContainer(uint256)": "4b746001",
      "peggedTokenIndex(address)": "9cabfc00",
      "protThrld()": "6b5488df",
      "proxiableUUID()": "52d1902d",
      "redeemTC(uint256,uint256)": "9abb14c9",
      "redeemTCViaVendor(uint256,uint256,address)": "471a80e3",
      "redeemTCandTP(uint256,uint256,uint256,uint256)": "17574bc5",
      "redeemTCandTPFee()": "f375cfba",
      "redeemTCandTPViaVendor(uint256,uint256,uint256,uint256,address)": "7c287999",
      "redeemTCandTPto(uint256,uint256,uint256,uint256,address)": "9bdd7cce",
      "redeemTCandTPtoViaVendor(uint256,uint256,uint256,uint256,address,address)": "102fefac",
      "redeemTCto(uint256,uint256,address)": "e4012945",
      "redeemTCtoViaVendor(uint256,uint256,address,address)": "3dbc50a9",
      "redeemTP(uint256,uint256,uint256)": "17df0ab8",
      "redeemTPViaVendor(uint256,uint256,uint256,address)": "5e1e8928",
      "redeemTPto(uint256,uint256,uint256,address)": "54a73c62",
      "redeemTPtoViaVendor(uint256,uint256,uint256,address,address)": "bad25a21",
      "setAppreciationFactor(uint256)": "01dde6ef",
      "setBes(uint256)": "c84353c9",
      "setEmaCalculationBlockSpan(uint256)": "3bc4ac0a",
      "setFeeRetainer(uint256)": "7750ba0c",
      "setFeeTokenAddress(address)": "cf351c1d",
      "setFeeTokenPct(uint256)": "543aeb48",
      "setFeeTokenPriceProviderAddress(address)": "0f1e5e2b",
      "setLiqEnabled(bool)": "1fe6a7ad",
      "setLiqThrld(uint256)": "2c43bd3b",
      "setMintTCandTPFee(uint256)": "2069f753",
      "setMocAppreciationBeneficiaryAddress(address)": "27eab2a1",
      "setMocCoreExpansion(address)": "e6a683e0",
      "setMocFeeFlowAddress(address)": "0d6ac463",
      "setPauser(address)": "2d88af4a",
      "setProtThrld(uint256)": "7cba2383",
      "setRedeemTCandTPFee(uint256)": "7a4ff1d9",
      "setSuccessFee(uint256)": "becaca6b",
      "setSwapTCforTPFee(uint256)": "7af5758c",
      "setSwapTPforTCFee(uint256)": "0e0a8fd2",
      "setSwapTPforTPFee(uint256)": "70713468",
      "setTcMintFee(uint256)": "f2808778",
      "setTcRedeemFee(uint256)": "c00f538d",
      "shouldCalculateEma()": "a8e9ac30",
      "stoppable()": "bb4872de",
      "successFee()": "7554fffd",
      "swapTCforTP(uint256,uint256,uint256)": "9839ee85",
      "swapTCforTPFee()": "2a20d57d",
      "swapTCforTPViaVendor(uint256,uint256,uint256,address)": "be22b4e1",
      "swapTCforTPto(uint256,uint256,uint256,address)": "7dc4e77f",
      "swapTCforTPtoViaVendor(uint256,uint256,uint256,address,address)": "f5319cc8",
      "swapTPforTC(uint256,uint256,uint256)": "0df12a8b",
      "swapTPforTCFee()": "333431fd",
      "swapTPforTCViaVendor(uint256,uint256,uint256,address)": "c6e06d89",
      "swapTPforTCto(uint256,uint256,uint256,address)": "0aed4f88",
      "swapTPforTCtoViaVendor(uint256,uint256,uint256,address,address)": "04856e41",
      "swapTPforTP(uint256,uint256,uint256,uint256)": "0f60f396",
      "swapTPforTPFee()": "407f0e34",
      "swapTPforTPViaVendor(uint256,uint256,uint256,uint256,address)": "b7aef837",
      "swapTPforTPto(uint256,uint256,uint256,uint256,address)": "0be9482d",
      "swapTPforTPtoViaVendor(uint256,uint256,uint256,uint256,address,address)": "7ad2819c",
      "tcMintFee()": "fda70f8b",
      "tcRedeemFee()": "aea038dc",
      "tcToken()": "60009e0b",
      "tpCtarg(uint256)": "7d8e0314",
      "tpEma(uint256)": "e6b1627c",
      "tpMintFee(uint256)": "de08160f",
      "tpRedeemFee(uint256)": "5241271c",
      "tpTokens(uint256)": "01f1b684",
      "unpause()": "3f4ba83a",
      "updateEmas()": "d1a0faa0",
      "upgradeTo(address)": "3659cfe6",
      "upgradeToAndCall(address,bytes)": "4f1ef286"
    }
  },
  "storageLayout": {
    "storage": [
      {
        "astId": 974,
        "contract": "contracts/mocks/upgradeability/MocExpansionMocks.sol:MocCoinbaseWithExpansionMock",
        "label": "_initialized",
        "offset": 0,
        "slot": "0",
        "type": "t_uint8"
      },
      {
        "astId": 977,
        "contract": "contracts/mocks/upgradeability/MocExpansionMocks.sol:MocCoinbaseWithExpansionMock",
        "label": "_initializing",
        "offset": 1,
        "slot": "0",
        "type": "t_bool"
      },
      {
        "astId": 956,
        "contract": "contracts/mocks/upgradeability/MocExpansionMocks.sol:MocCoinbaseWithExpansionMock",
        "label": "__gap",
        "offset": 0,
        "slot": "1",
        "type": "t_array(t_uint256)50_storage"
      },
      {
        "astId": 1271,
        "contract": "contracts/mocks/upgradeability/MocExpansionMocks.sol:MocCoinbaseWithExpansionMock",
        "label": "__gap",
        "offset": 0,
        "slot": "51",
        "type": "t_array(t_uint256)50_storage"
      },
      {
        "astId": 24925,
        "contract": "contracts/mocks/upgradeability/MocExpansionMocks.sol:MocCoinbaseWithExpansionMock",
        "label": "__gap",
        "offset": 0,
        "slot": "101",
        "type": "t_array(t_uint256)50_storage"
      },
      {
        "astId": 22812,
        "contract": "contracts/mocks/upgradeability/MocExpansionMocks.sol:MocCoinbaseWithExpansionMock",
        "label": "governor",
        "offset": 0,
        "slot": "151",
        "type": "t_contract(IGovernor)23597"
      },
      {
        "astId": 22883,
        "contract": "contracts/mocks/upgradeability/MocExpansionMocks.sol:MocCoinbaseWithExpansionMock",
        "label": "__gap",
        "offset": 0,
        "slot": "152",
        "type": "t_array(t_uint256)50_storage"
      },
      {
        "astId": 22951,
        "contract": "contracts/mocks/upgradeability/MocExpansionMocks.sol:MocCoinbaseWithExpansionMock",
        "label": "stoppable",
        "offset": 0,
        "slot": "202",
        "type": "t_bool"
      },
      {
        "astId": 22953,
        "contract": "contracts/mocks/upgradeability/MocExpansionMocks.sol:MocCoinbaseWithExpansionMock",
        "label": "_paused",
        "offset": 1,
        "slot": "202",
        "type": "t_bool"
      },
      {
        "astId": 22955,
        "contract": "contracts/mocks/upgradeability/MocExpansionMocks.sol:MocCoinbaseWithExpansionMock",
        "label": "pauser",
        "offset": 2,
        "slot": "202",
        "type": "t_address"
      },
      {
        "astId": 23114,
        "contract": "contracts/mocks/upgradeability/MocExpansionMocks.sol:MocCoinbaseWithExpansionMock",
        "label": "__gap",
        "offset": 0,
        "slot": "203",
        "type": "t_array(t_uint256)50_storage"
      },
      {
        "astId": 22933,
        "contract": "contracts/mocks/upgradeability/MocExpansionMocks.sol:MocCoinbaseWithExpansionMock",
        "label": "__gap",
        "offset": 0,
        "slot": "253",
        "type": "t_array(t_uint256)50_storage"
      },
      {
        "astId": 1413,
        "contract": "contracts/mocks/upgradeability/MocExpansionMocks.sol:MocCoinbaseWithExpansionMock",
        "label": "_status",
        "offset": 0,
        "slot": "303",
        "type": "t_uint256"
      },
      {
        "astId": 1471,
        "contract": "contracts/mocks/upgradeability/MocExpansionMocks.sol:MocCoinbaseWithExpansionMock",
        "label": "__gap",
        "offset": 0,
        "slot": "304",
        "type": "t_array(t_uint256)49_storage"
      },
      {
        "astId": 14508,
        "contract": "contracts/mocks/upgradeability/MocExpansionMocks.sol:MocCoinbaseWithExpansionMock",
        "label": "feeToken",
        "offset": 0,
        "slot": "353",
        "type": "t_contract(IERC20)5864"
      },
      {
        "astId": 14511,
        "contract": "contracts/mocks/upgradeability/MocExpansionMocks.sol:MocCoinbaseWithExpansionMock",
        "label": "feeTokenPriceProvider",
        "offset": 0,
        "slot": "354",
        "type": "t_contract(IPriceProvider)23635"
      },
      {
        "astId": 14513,
        "contract": "contracts/mocks/upgradeability/MocExpansionMocks.sol:MocCoinbaseWithExpansionMock",
        "label": "nACcb",
        "offset": 0,
        "slot": "355",
        "type": "t_uint256"
      },
      {
        "astId": 14515,
        "contract": "contracts/mocks/upgradeability/MocExpansionMocks.sol:MocCoinbaseWithExpansionMock",
        "label": "nACioucb",
        "offset": 0,
        "slot": "356",
        "type": "t_uint256"
      },
      {
        "astId": 14518,
        "contract": "contracts/mocks/upgradeability/MocExpansionMocks.sol:MocCoinbaseWithExpansionMock",
        "label": "tcToken",
        "offset": 0,
        "slot": "357",
        "type": "t_contract(MocTC)24830"
      },
      {
        "astId": 14520,
        "contract": "contracts/mocks/upgradeability/MocExpansionMocks.sol:MocCoinbaseWithExpansionMock",
        "label": "nTCcb",
        "offset": 0,
        "slot": "358",
        "type": "t_uint256"
      },
      {
        "astId": 14524,
        "contract": "contracts/mocks/upgradeability/MocExpansionMocks.sol:MocCoinbaseWithExpansionMock",
        "label": "tpTokens",
        "offset": 0,
        "slot": "359",
        "type": "t_array(t_contract(IMocRC20)23623)dyn_storage"
      },
      {
        "astId": 14529,
        "contract": "contracts/mocks/upgradeability/MocExpansionMocks.sol:MocCoinbaseWithExpansionMock",
        "label": "peggedTokenIndex",
        "offset": 0,
        "slot": "360",
        "type": "t_mapping(t_address,t_struct(PeggedTokenIndex)14466_storage)"
      },
      {
        "astId": 14533,
        "contract": "contracts/mocks/upgradeability/MocExpansionMocks.sol:MocCoinbaseWithExpansionMock",
        "label": "pegContainer",
        "offset": 0,
        "slot": "361",
        "type": "t_array(t_struct(PegContainerItem)14461_storage)dyn_storage"
      },
      {
        "astId": 14536,
        "contract": "contracts/mocks/upgradeability/MocExpansionMocks.sol:MocCoinbaseWithExpansionMock",
        "label": "tpLiqPrices",
        "offset": 0,
        "slot": "362",
        "type": "t_array(t_uint256)dyn_storage"
      },
      {
        "astId": 14538,
        "contract": "contracts/mocks/upgradeability/MocExpansionMocks.sol:MocCoinbaseWithExpansionMock",
        "label": "successFee",
        "offset": 0,
        "slot": "363",
        "type": "t_uint256"
      },
      {
        "astId": 14540,
        "contract": "contracts/mocks/upgradeability/MocExpansionMocks.sol:MocCoinbaseWithExpansionMock",
        "label": "appreciationFactor",
        "offset": 0,
        "slot": "364",
        "type": "t_uint256"
      },
      {
        "astId": 14542,
        "contract": "contracts/mocks/upgradeability/MocExpansionMocks.sol:MocCoinbaseWithExpansionMock",
        "label": "feeRetainer",
        "offset": 0,
        "slot": "365",
        "type": "t_uint256"
      },
      {
        "astId": 14544,
        "contract": "contracts/mocks/upgradeability/MocExpansionMocks.sol:MocCoinbaseWithExpansionMock",
        "label": "tcMintFee",
        "offset": 0,
        "slot": "366",
        "type": "t_uint256"
      },
      {
        "astId": 14546,
        "contract": "contracts/mocks/upgradeability/MocExpansionMocks.sol:MocCoinbaseWithExpansionMock",
        "label": "tcRedeemFee",
        "offset": 0,
        "slot": "367",
        "type": "t_uint256"
      },
      {
        "astId": 14548,
        "contract": "contracts/mocks/upgradeability/MocExpansionMocks.sol:MocCoinbaseWithExpansionMock",
        "label": "swapTPforTPFee",
        "offset": 0,
        "slot": "368",
        "type": "t_uint256"
      },
      {
        "astId": 14550,
        "contract": "contracts/mocks/upgradeability/MocExpansionMocks.sol:MocCoinbaseWithExpansionMock",
        "label": "swapTPforTCFee",
        "offset": 0,
        "slot": "369",
        "type": "t_uint256"
      },
      {
        "astId": 14552,
        "contract": "contracts/mocks/upgradeability/MocExpansionMocks.sol:MocCoinbaseWithExpansionMock",
        "label": "swapTCforTPFee",
        "offset": 0,
        "slot": "370",
        "type": "t_uint256"
      },
      {
        "astId": 14554,
        "contract": "contracts/mocks/upgradeability/MocExpansionMocks.sol:MocCoinbaseWithExpansionMock",
        "label": "redeemTCandTPFee",
        "offset": 0,
        "slot": "371",
        "type": "t_uint256"
      },
      {
        "astId": 14556,
        "contract": "contracts/mocks/upgradeability/MocExpansionMocks.sol:MocCoinbaseWithExpansionMock",
        "label": "mintTCandTPFee",
        "offset": 0,
        "slot": "372",
        "type": "t_uint256"
      },
      {
        "astId": 14558,
        "contract": "contracts/mocks/upgradeability/MocExpansionMocks.sol:MocCoinbaseWithExpansionMock",
        "label": "feeTokenPct",
        "offset": 0,
        "slot": "373",
        "type": "t_uint256"
      },
      {
        "astId": 14561,
        "contract": "contracts/mocks/upgradeability/MocExpansionMocks.sol:MocCoinbaseWithExpansionMock",
        "label": "tpMintFee",
        "offset": 0,
        "slot": "374",
        "type": "t_array(t_uint256)dyn_storage"
      },
      {
        "astId": 14564,
        "contract": "contracts/mocks/upgradeability/MocExpansionMocks.sol:MocCoinbaseWithExpansionMock",
        "label": "tpRedeemFee",
        "offset": 0,
        "slot": "375",
        "type": "t_array(t_uint256)dyn_storage"
      },
      {
        "astId": 14566,
        "contract": "contracts/mocks/upgradeability/MocExpansionMocks.sol:MocCoinbaseWithExpansionMock",
        "label": "mocFeeFlowAddress",
        "offset": 0,
        "slot": "376",
        "type": "t_address"
      },
      {
        "astId": 14568,
        "contract": "contracts/mocks/upgradeability/MocExpansionMocks.sol:MocCoinbaseWithExpansionMock",
        "label": "mocAppreciationBeneficiaryAddress",
        "offset": 0,
        "slot": "377",
        "type": "t_address"
      },
      {
        "astId": 14571,
        "contract": "contracts/mocks/upgradeability/MocExpansionMocks.sol:MocCoinbaseWithExpansionMock",
        "label": "tpCtarg",
        "offset": 0,
        "slot": "378",
        "type": "t_array(t_uint256)dyn_storage"
      },
      {
        "astId": 14573,
        "contract": "contracts/mocks/upgradeability/MocExpansionMocks.sol:MocCoinbaseWithExpansionMock",
        "label": "protThrld",
        "offset": 0,
        "slot": "379",
        "type": "t_uint256"
      },
      {
        "astId": 14575,
        "contract": "contracts/mocks/upgradeability/MocExpansionMocks.sol:MocCoinbaseWithExpansionMock",
        "label": "liqThrld",
        "offset": 0,
        "slot": "380",
        "type": "t_uint256"
      },
      {
        "astId": 14577,
        "contract": "contracts/mocks/upgradeability/MocExpansionMocks.sol:MocCoinbaseWithExpansionMock",
        "label": "liqEnabled",
        "offset": 0,
        "slot": "381",
        "type": "t_bool"
      },
      {
        "astId": 14579,
        "contract": "contracts/mocks/upgradeability/MocExpansionMocks.sol:MocCoinbaseWithExpansionMock",
        "label": "liquidated",
        "offset": 1,
        "slot": "381",
        "type": "t_bool"
      },
      {
        "astId": 14581,
        "contract": "contracts/mocks/upgradeability/MocExpansionMocks.sol:MocCoinbaseWithExpansionMock",
        "label": "bes",
        "offset": 0,
        "slot": "382",
        "type": "t_uint256"
      },
      {
        "astId": 14583,
        "contract": "contracts/mocks/upgradeability/MocExpansionMocks.sol:MocCoinbaseWithExpansionMock",
        "label": "bns",
        "offset": 0,
        "slot": "383",
        "type": "t_uint256"
      },
      {
        "astId": 14586,
        "contract": "contracts/mocks/upgradeability/MocExpansionMocks.sol:MocCoinbaseWithExpansionMock",
        "label": "tpiou",
        "offset": 0,
        "slot": "384",
        "type": "t_array(t_int256)dyn_storage"
      },
      {
        "astId": 14589,
        "contract": "contracts/mocks/upgradeability/MocExpansionMocks.sol:MocCoinbaseWithExpansionMock",
        "label": "pACtpLstop",
        "offset": 0,
        "slot": "385",
        "type": "t_array(t_uint256)dyn_storage"
      },
      {
        "astId": 15912,
        "contract": "contracts/mocks/upgradeability/MocExpansionMocks.sol:MocCoinbaseWithExpansionMock",
        "label": "__gap",
        "offset": 0,
        "slot": "386",
        "type": "t_array(t_uint256)50_storage"
      },
      {
        "astId": 19728,
        "contract": "contracts/mocks/upgradeability/MocExpansionMocks.sol:MocCoinbaseWithExpansionMock",
        "label": "tpEma",
        "offset": 0,
        "slot": "436",
        "type": "t_array(t_struct(EmaItem)19724_storage)dyn_storage"
      },
      {
        "astId": 19730,
        "contract": "contracts/mocks/upgradeability/MocExpansionMocks.sol:MocCoinbaseWithExpansionMock",
        "label": "nextEmaCalculation",
        "offset": 0,
        "slot": "437",
        "type": "t_uint256"
      },
      {
        "astId": 19732,
        "contract": "contracts/mocks/upgradeability/MocExpansionMocks.sol:MocCoinbaseWithExpansionMock",
        "label": "emaCalculationBlockSpan",
        "offset": 0,
        "slot": "438",
        "type": "t_uint256"
      },
      {
        "astId": 20104,
        "contract": "contracts/mocks/upgradeability/MocExpansionMocks.sol:MocCoinbaseWithExpansionMock",
        "label": "__gap",
        "offset": 0,
        "slot": "439",
        "type": "t_array(t_uint256)50_storage"
      },
      {
        "astId": 15940,
        "contract": "contracts/mocks/upgradeability/MocExpansionMocks.sol:MocCoinbaseWithExpansionMock",
        "label": "mocVendors",
        "offset": 0,
        "slot": "489",
        "type": "t_contract(MocVendors)25146"
      },
      {
        "astId": 16290,
        "contract": "contracts/mocks/upgradeability/MocExpansionMocks.sol:MocCoinbaseWithExpansionMock",
        "label": "__gap",
        "offset": 0,
        "slot": "490",
        "type": "t_array(t_uint256)50_storage"
      },
      {
        "astId": 24206,
        "contract": "contracts/mocks/upgradeability/MocExpansionMocks.sol:MocCoinbaseWithExpansionMock",
        "label": "newVariable",
        "offset": 0,
        "slot": "540",
        "type": "t_uint256"
      },
      {
        "astId": 16498,
        "contract": "contracts/mocks/upgradeability/MocExpansionMocks.sol:MocCoinbaseWithExpansionMock",
        "label": "mocCoreExpansion",
        "offset": 0,
        "slot": "541",
        "type": "t_address"
      },
      {
        "astId": 19183,
        "contract": "contracts/mocks/upgradeability/MocExpansionMocks.sol:MocCoinbaseWithExpansionMock",
        "label": "__gap",
        "offset": 0,
        "slot": "542",
        "type": "t_array(t_uint256)50_storage"
      },
      {
        "astId": 9936,
        "contract": "contracts/mocks/upgradeability/MocExpansionMocks.sol:MocCoinbaseWithExpansionMock",
        "label": "__gap",
        "offset": 0,
        "slot": "592",
        "type": "t_array(t_uint256)50_storage"
      }
    ],
    "types": {
      "t_address": {
        "encoding": "inplace",
        "label": "address",
        "numberOfBytes": "20"
      },
      "t_array(t_contract(IMocRC20)23623)dyn_storage": {
        "base": "t_contract(IMocRC20)23623",
        "encoding": "dynamic_array",
        "label": "contract IMocRC20[]",
        "numberOfBytes": "32"
      },
      "t_array(t_int256)dyn_storage": {
        "base": "t_int256",
        "encoding": "dynamic_array",
        "label": "int256[]",
        "numberOfBytes": "32"
      },
      "t_array(t_struct(EmaItem)19724_storage)dyn_storage": {
        "base": "t_struct(EmaItem)19724_storage",
        "encoding": "dynamic_array",
        "label": "struct MocEma.EmaItem[]",
        "numberOfBytes": "32"
      },
      "t_array(t_struct(PegContainerItem)14461_storage)dyn_storage": {
        "base": "t_struct(PegContainerItem)14461_storage",
        "encoding": "dynamic_array",
        "label": "struct MocBaseBucket.PegContainerItem[]",
        "numberOfBytes": "32"
      },
      "t_array(t_uint256)49_storage": {
        "base": "t_uint256",
        "encoding": "inplace",
        "label": "uint256[49]",
        "numberOfBytes": "1568"
      },
      "t_array(t_uint256)50_storage": {
        "base": "t_uint256",
        "encoding": "inplace",
        "label": "uint256[50]",
        "numberOfBytes": "1600"
      },
      "t_array(t_uint256)dyn_storage": {
        "base": "t_uint256",
        "encoding": "dynamic_array",
        "label": "uint256[]",
        "numberOfBytes": "32"
      },
      "t_bool": {
        "encoding": "inplace",
        "label": "bool",
        "numberOfBytes": "1"
      },
      "t_contract(IERC20)5864": {
        "encoding": "inplace",
        "label": "contract IERC20",
        "numberOfBytes": "20"
      },
      "t_contract(IGovernor)23597": {
        "encoding": "inplace",
        "label": "contract IGovernor",
        "numberOfBytes": "20"
      },
      "t_contract(IMocRC20)23623": {
        "encoding": "inplace",
        "label": "contract IMocRC20",
        "numberOfBytes": "20"
      },
      "t_contract(IPriceProvider)23635": {
        "encoding": "inplace",
        "label": "contract IPriceProvider",
        "numberOfBytes": "20"
      },
      "t_contract(MocTC)24830": {
        "encoding": "inplace",
        "label": "contract MocTC",
        "numberOfBytes": "20"
      },
      "t_contract(MocVendors)25146": {
        "encoding": "inplace",
        "label": "contract MocVendors",
        "numberOfBytes": "20"
      },
      "t_int256": {
        "encoding": "inplace",
        "label": "int256",
        "numberOfBytes": "32"
      },
      "t_mapping(t_address,t_struct(PeggedTokenIndex)14466_storage)": {
        "encoding": "mapping",
        "key": "t_address",
        "label": "mapping(address => struct MocBaseBucket.PeggedTokenIndex)",
        "numberOfBytes": "32",
        "value": "t_struct(PeggedTokenIndex)14466_storage"
      },
      "t_struct(EmaItem)19724_storage": {
        "encoding": "inplace",
        "label": "struct MocEma.EmaItem",
        "members": [
          {
            "astId": 19721,
            "contract": "contracts/mocks/upgradeability/MocExpansionMocks.sol:MocCoinbaseWithExpansionMock",
            "label": "ema",
            "offset": 0,
            "slot": "0",
            "type": "t_uint256"
          },
          {
            "astId": 19723,
            "contract": "contracts/mocks/upgradeability/MocExpansionMocks.sol:MocCoinbaseWithExpansionMock",
            "label": "sf",
            "offset": 0,
            "slot": "1",
            "type": "t_uint256"
          }
        ],
        "numberOfBytes": "64"
      },
      "t_struct(PegContainerItem)14461_storage": {
        "encoding": "inplace",
        "label": "struct MocBaseBucket.PegContainerItem",
        "members": [
          {
            "astId": 14457,
            "contract": "contracts/mocks/upgradeability/MocExpansionMocks.sol:MocCoinbaseWithExpansionMock",
            "label": "nTP",
            "offset": 0,
            "slot": "0",
            "type": "t_uint256"
          },
          {
            "astId": 14460,
            "contract": "contracts/mocks/upgradeability/MocExpansionMocks.sol:MocCoinbaseWithExpansionMock",
            "label": "priceProvider",
            "offset": 0,
            "slot": "1",
            "type": "t_contract(IPriceProvider)23635"
          }
        ],
        "numberOfBytes": "64"
      },
      "t_struct(PeggedTokenIndex)14466_storage": {
        "encoding": "inplace",
        "label": "struct MocBaseBucket.PeggedTokenIndex",
        "members": [
          {
            "astId": 14463,
            "contract": "contracts/mocks/upgradeability/MocExpansionMocks.sol:MocCoinbaseWithExpansionMock",
            "label": "index",
            "offset": 0,
            "slot": "0",
            "type": "t_uint256"
          },
          {
            "astId": 14465,
            "contract": "contracts/mocks/upgradeability/MocExpansionMocks.sol:MocCoinbaseWithExpansionMock",
            "label": "exists",
            "offset": 0,
            "slot": "1",
            "type": "t_bool"
          }
        ],
        "numberOfBytes": "64"
      },
      "t_uint256": {
        "encoding": "inplace",
        "label": "uint256",
        "numberOfBytes": "32"
      },
      "t_uint8": {
        "encoding": "inplace",
        "label": "uint8",
        "numberOfBytes": "1"
      }
    }
  },
  "userdoc": {
    "kind": "user",
    "methods": {
      "addPeggedToken((address,address,uint256,uint256,uint256,uint256,uint256))": {
        "notice": "add a Pegged Token to the protocol"
      },
      "calcCtargemaCA()": {
        "notice": "calculates target coverage adjusted by all Pegged Token's to Collateral Asset rate moving average"
      },
      "changeGovernor(address)": {
        "notice": "Change the contract's governor. Should be called through the old governance system"
      },
      "editPeggedToken((address,address,uint256,uint256,uint256,uint256,uint256))": {
        "notice": "modifies a Pegged Token of the protocol"
      },
      "evalLiquidation()": {
        "notice": "evaluates if liquidation threshold has been reached and liq is Enabled. If so forces contracts liquidation, blocking all mint & redeem operations. May emit a {ContractLiquidated} event."
      },
      "execSettlement()": {
        "notice": "this function is executed during settlement.  stores amount of locked AC by Pegged Tokens at this moment and distribute success fee"
      },
      "getBts()": {
        "notice": "get the number of blocks remaining for settlement"
      },
      "getCglb()": {
        "notice": "get bucket global coverage"
      },
      "getLeverageTC()": {
        "notice": "get Collateral Token leverage"
      },
      "getPACtp(uint256)": {
        "notice": "get how many Pegged Token equal 1 Collateral Asset"
      },
      "getPTCac()": {
        "notice": "get Collateral Token price"
      },
      "getTCAvailableToRedeem()": {
        "notice": "get amount of Collateral Token available to redeem"
      },
      "getTPAvailableToMint(uint256)": {
        "notice": "get amount of Pegged Token available to mint"
      },
      "getTotalACavailable()": {
        "notice": "get total Collateral Asset available"
      },
      "governor()": {
        "notice": "The address of the contract which governs this one"
      },
      "initialize(((address,address,address,address,address,uint256,uint256,uint256,uint256,uint256,uint256,uint256,uint256,uint256,uint256,uint256,uint256,uint256,uint256),address,address,address,uint256,address))": {
        "notice": "contract initializer"
      },
      "isLiquidationReached()": {
        "notice": "If liquidation is enabled, verifies if forced liquidation has been reached, checking if globalCoverage <= liquidation"
      },
      "liqRedeemTP(uint256)": {
        "notice": "Allow redeem on liquidation state, user Peg balance gets burned and he receives the equivalent AC given the liquidation frozen price."
      },
      "liqRedeemTPto(uint256,address)": {
        "notice": "Allow redeem on liquidation state, user Peg balance gets burned and he receives the equivalent AC given the liquidation frozen price."
      },
      "makeStoppable()": {
        "notice": "Switches ON the stoppability of the contract; if the contract was paused before making it unstoppable it will be paused again after calling this function"
      },
      "makeUnstoppable()": {
        "notice": "Switches OFF the stoppability of the contract; if the contract was paused it will no longer be so"
      },
      "mintTC(uint256)": {
        "notice": "caller sends coinbase as Collateral Asset and receives Collateral Token"
      },
      "mintTCViaVendor(uint256,address)": {
        "notice": "caller sends coinbase as Collateral Asset and receives Collateral Token  `vendor_` receives a markup in Fee Token if possible or in qAC if not"
      },
      "mintTCandTP(uint256,uint256)": {
        "notice": "caller sends coinbase as Collateral Asset and receives Collateral Token and Pegged Token  This operation is done without checking coverage  Collateral Token and Pegged Token are minted in equivalent proportions so that its price  and global coverage are not modified.  Reverts if qAC sent are insufficient."
      },
      "mintTCandTPViaVendor(uint256,uint256,address)": {
        "notice": "caller sends coinbase as Collateral Asset and receives Collateral Token and Pegged Token  `vendor_` receives a markup in Fee Token if possible or in qAC if not  This operation is done without checking coverage  Collateral Token and Pegged Token are minted in equivalent proportions so that its price  and global coverage are not modified.  Reverts if qAC sent are insufficient."
      },
      "mintTCandTPto(uint256,uint256,address)": {
        "notice": "caller sends coinbase as Collateral Asset and recipient receives Collateral Token and Pegged Token  This operation is done without checking coverage  Collateral Token and Pegged Token are minted in equivalent proportions so that its price  and global coverage are not modified.  Reverts if qAC sent are insufficient."
      },
      "mintTCandTPtoViaVendor(uint256,uint256,address,address)": {
        "notice": "caller sends coinbase as Collateral Asset and recipient receives Collateral Token and Pegged Token  `vendor_` receives a markup in Fee Token if possible or in qAC if not  This operation is done without checking coverage  Collateral Token and Pegged Token are minted in equivalent proportions so that its price  and global coverage are not modified.  Reverts if qAC sent are insufficient."
      },
      "mintTCto(uint256,address)": {
        "notice": "caller sends coinbase as Collateral Asset and recipient receives Collateral Token"
      },
      "mintTCtoViaVendor(uint256,address,address)": {
        "notice": "caller sends coinbase as Collateral Asset and recipient receives Collateral Token  `vendor_` receives a markup in Fee Token if possible or in qAC if not"
      },
      "mintTP(uint256,uint256)": {
        "notice": "caller sends coinbase as Collateral Asset and receives Pegged Token"
      },
      "mintTPViaVendor(uint256,uint256,address)": {
        "notice": "caller sends coinbase as Collateral Asset and receives Pegged Token  `vendor_` receives a markup in Fee Token if possible or in qAC if not"
      },
      "mintTPto(uint256,uint256,address)": {
        "notice": "caller sends coinbase as Collateral Asset and recipient receives Pegged Token"
      },
      "mintTPtoViaVendor(uint256,uint256,address,address)": {
        "notice": "caller sends coinbase as Collateral Asset and recipient receives Pegged Token  `vendor_` receives a markup in Fee Token if possible or in qAC if not"
      },
      "pause()": {
        "notice": "Called by the owner to pause, triggers stopped state"
      },
      "paused()": {
        "notice": "Returns true if paused"
      },
      "redeemTC(uint256,uint256)": {
        "notice": "caller sends Collateral Token and receives Collateral Asset"
      },
      "redeemTCViaVendor(uint256,uint256,address)": {
        "notice": "caller sends Collateral Token and receives Collateral Asset  `vendor_` receives a markup in Fee Token if possible or in qAC if not"
      },
      "redeemTCandTP(uint256,uint256,uint256,uint256)": {
        "notice": "caller sends Collateral Token and Pegged Token and receives coinbase as Collateral Asset  This operation is done without checking coverage  Collateral Token and Pegged Token are redeemed in equivalent proportions so that its price  and global coverage are not modified.  Reverts if qTP sent are insufficient."
      },
      "redeemTCandTPViaVendor(uint256,uint256,uint256,uint256,address)": {
        "notice": "caller sends Collateral Token and Pegged Token and receives coinbase as Collateral Asset  `vendor_` receives a markup in Fee Token if possible or in qAC if not  This operation is done without checking coverage  Collateral Token and Pegged Token are redeemed in equivalent proportions so that its price  and global coverage are not modified.  Reverts if qTP sent are insufficient."
      },
      "redeemTCandTPto(uint256,uint256,uint256,uint256,address)": {
        "notice": "caller sends Collateral Token and Pegged Token and recipient receives Collateral Asset  This operation is done without checking coverage  Collateral Token and Pegged Token are redeemed in equivalent proportions so that its price  and global coverage are not modified.  Reverts if qTP sent are insufficient."
      },
      "redeemTCandTPtoViaVendor(uint256,uint256,uint256,uint256,address,address)": {
        "notice": "caller sends Collateral Token and Pegged Token and recipient receives Collateral Asset  `vendor_` receives a markup in Fee Token if possible or in qAC if not  This operation is done without checking coverage  Collateral Token and Pegged Token are redeemed in equivalent proportions so that its price  and global coverage are not modified.  Reverts if qTP sent are insufficient."
      },
      "redeemTCto(uint256,uint256,address)": {
        "notice": "caller sends Collateral Token and recipient receives Collateral Asset"
      },
      "redeemTCtoViaVendor(uint256,uint256,address,address)": {
        "notice": "caller sends Collateral Token and recipient receives Collateral Asset  `vendor_` receives a markup in Fee Token if possible or in qAC if not"
      },
      "redeemTP(uint256,uint256,uint256)": {
        "notice": "caller sends Pegged Token and receives Collateral Asset"
      },
      "redeemTPViaVendor(uint256,uint256,uint256,address)": {
        "notice": "caller sends Pegged Token and receives Collateral Asset  `vendor_` receives a markup in Fee Token if possible or in qAC if not"
      },
      "redeemTPto(uint256,uint256,uint256,address)": {
        "notice": "caller sends Pegged Token and recipient receives Collateral Asset"
      },
      "redeemTPtoViaVendor(uint256,uint256,uint256,address,address)": {
        "notice": "caller sends Pegged Token and recipient receives Collateral Asset  `vendor_` receives a markup in Fee Token if possible or in qAC if not"
      },
      "setPauser(address)": {
        "notice": "Changes the address which is enable to pause this contract"
      },
      "shouldCalculateEma()": {
        "notice": "true if the necessary span has pass since last ema update"
      },
      "swapTCforTP(uint256,uint256,uint256)": {
        "notice": "caller sends Collateral Token and receives Pegged Token"
      },
      "swapTCforTPViaVendor(uint256,uint256,uint256,address)": {
        "notice": "caller sends Collateral Token and receives Pegged Token  `vendor_` receives a markup in Fee Token if possible or in qAC if not"
      },
      "swapTCforTPto(uint256,uint256,uint256,address)": {
        "notice": "caller sends Collateral Token and recipient receives Pegged Token"
      },
      "swapTCforTPtoViaVendor(uint256,uint256,uint256,address,address)": {
        "notice": "caller sends Collateral Token and recipient receives Pegged Token  `vendor_` receives a markup in Fee Token if possible or in qAC if not"
      },
      "swapTPforTC(uint256,uint256,uint256)": {
        "notice": "caller sends a Pegged Token and receives Collateral Token"
      },
      "swapTPforTCViaVendor(uint256,uint256,uint256,address)": {
        "notice": "caller sends a Pegged Token and receives Collateral Token  `vendor_` receives a markup in Fee Token if possible or in qAC if not"
      },
      "swapTPforTCto(uint256,uint256,uint256,address)": {
        "notice": "caller sends a Pegged Token and recipient receives Collateral Token"
      },
      "swapTPforTCtoViaVendor(uint256,uint256,uint256,address,address)": {
        "notice": "caller sends a Pegged Token and recipient receives Collateral Token  `vendor_` receives a markup in Fee Token if possible or in qAC if not"
      },
      "swapTPforTP(uint256,uint256,uint256,uint256)": {
        "notice": "caller sends a Pegged Token and receives another one"
      },
      "swapTPforTPViaVendor(uint256,uint256,uint256,uint256,address)": {
        "notice": "caller sends a Pegged Token and receives another one  `vendor_` receives a markup in Fee Token if possible or in qAC if not"
      },
      "swapTPforTPto(uint256,uint256,uint256,uint256,address)": {
        "notice": "caller sends a Pegged Token and recipient receives another one"
      },
      "swapTPforTPtoViaVendor(uint256,uint256,uint256,uint256,address,address)": {
        "notice": "caller sends a Pegged Token and recipient receives another one  `vendor_` receives a markup in Fee Token if possible or in qAC if not"
      },
      "unpause()": {
        "notice": "Called by the owner to unpause, returns to normal state"
      },
      "updateEmas()": {
        "notice": "If time, calculates the EMA for all the Pegged Token prices."
      }
    },
    "version": 1
  }
}