{
  "contractName": "MocCACoinbase",
  "sourceName": "contracts/collateral/coinbase/MocCACoinbase.sol",
  "abi": [
    {
      "inputs": [],
      "stateMutability": "nonpayable",
      "type": "constructor"
    },
    {
      "inputs": [
        {
          "internalType": "uint256",
          "name": "qACsent_",
          "type": "uint256"
        },
        {
          "internalType": "uint256",
          "name": "qACNeeded_",
          "type": "uint256"
        }
      ],
      "name": "InsufficientQacSent",
      "type": "error"
    },
    {
      "inputs": [
        {
          "internalType": "uint256",
          "name": "qTPsent_",
          "type": "uint256"
        },
        {
          "internalType": "uint256",
          "name": "qTPNeeded_",
          "type": "uint256"
        }
      ],
      "name": "InsufficientQtpSent",
      "type": "error"
    },
    {
      "inputs": [
        {
          "internalType": "uint256",
          "name": "qTC_",
          "type": "uint256"
        },
        {
          "internalType": "uint256",
          "name": "tcAvailableToRedeem_",
          "type": "uint256"
        }
      ],
      "name": "InsufficientTCtoRedeem",
      "type": "error"
    },
    {
      "inputs": [
        {
          "internalType": "uint256",
          "name": "qTP_",
          "type": "uint256"
        },
        {
          "internalType": "uint256",
          "name": "tpAvailableToMint_",
          "type": "uint256"
        }
      ],
      "name": "InsufficientTPtoMint",
      "type": "error"
    },
    {
      "inputs": [
        {
          "internalType": "uint256",
          "name": "qTP_",
          "type": "uint256"
        },
        {
          "internalType": "uint256",
          "name": "tpAvailableToRedeem_",
          "type": "uint256"
        }
      ],
      "name": "InsufficientTPtoRedeem",
      "type": "error"
    },
    {
      "inputs": [],
      "name": "InvalidAddress",
      "type": "error"
    },
    {
      "inputs": [],
      "name": "InvalidValue",
      "type": "error"
    },
    {
      "inputs": [],
      "name": "Liquidated",
      "type": "error"
    },
    {
      "inputs": [
        {
          "internalType": "uint256",
          "name": "cglb_",
          "type": "uint256"
        },
        {
          "internalType": "uint256",
          "name": "covThrld_",
          "type": "uint256"
        }
      ],
      "name": "LowCoverage",
      "type": "error"
    },
    {
      "inputs": [],
      "name": "MissingBlocksToSettlement",
      "type": "error"
    },
    {
      "inputs": [
        {
          "internalType": "address",
          "name": "priceProviderAddress_",
          "type": "address"
        }
      ],
      "name": "MissingProviderPrice",
      "type": "error"
    },
    {
      "inputs": [],
      "name": "NotAuthorizedChanger",
      "type": "error"
    },
    {
      "inputs": [],
      "name": "NotWhenPaused",
      "type": "error"
    },
    {
      "inputs": [],
      "name": "OnlyPauser",
      "type": "error"
    },
    {
      "inputs": [],
      "name": "OnlyWhenLiquidated",
      "type": "error"
    },
    {
      "inputs": [],
      "name": "OnlyWhilePaused",
      "type": "error"
    },
    {
      "inputs": [],
      "name": "PeggedTokenAlreadyAdded",
      "type": "error"
    },
    {
      "inputs": [
        {
          "internalType": "uint256",
          "name": "qACmin_",
          "type": "uint256"
        },
        {
          "internalType": "uint256",
          "name": "qACtoRedeem_",
          "type": "uint256"
        }
      ],
      "name": "QacBelowMinimumRequired",
      "type": "error"
    },
    {
      "inputs": [],
      "name": "QacNeededMustBeGreaterThanZero",
      "type": "error"
    },
    {
      "inputs": [
        {
          "internalType": "uint256",
          "name": "qTCmin_",
          "type": "uint256"
        },
        {
          "internalType": "uint256",
          "name": "qTC_",
          "type": "uint256"
        }
      ],
      "name": "QtcBelowMinimumRequired",
      "type": "error"
    },
    {
      "inputs": [
        {
          "internalType": "uint256",
          "name": "qTPmin_",
          "type": "uint256"
        },
        {
          "internalType": "uint256",
          "name": "qTP_",
          "type": "uint256"
        }
      ],
      "name": "QtpBelowMinimumRequired",
      "type": "error"
    },
    {
      "inputs": [],
      "name": "TransferFailed",
      "type": "error"
    },
    {
      "inputs": [],
      "name": "Unstoppable",
      "type": "error"
    },
    {
      "anonymous": false,
      "inputs": [
        {
          "indexed": false,
          "internalType": "address",
          "name": "previousAdmin",
          "type": "address"
        },
        {
          "indexed": false,
          "internalType": "address",
          "name": "newAdmin",
          "type": "address"
        }
      ],
      "name": "AdminChanged",
      "type": "event"
    },
    {
      "anonymous": false,
      "inputs": [
        {
          "indexed": true,
          "internalType": "address",
          "name": "beacon",
          "type": "address"
        }
      ],
      "name": "BeaconUpgraded",
      "type": "event"
    },
    {
      "anonymous": false,
      "inputs": [],
      "name": "ContractLiquidated",
      "type": "event"
    },
    {
      "anonymous": false,
      "inputs": [
        {
          "indexed": false,
          "internalType": "uint8",
          "name": "version",
          "type": "uint8"
        }
      ],
      "name": "Initialized",
      "type": "event"
    },
    {
      "anonymous": false,
      "inputs": [
        {
          "indexed": false,
          "internalType": "address",
          "name": "account",
          "type": "address"
        }
      ],
      "name": "Paused",
      "type": "event"
    },
    {
      "anonymous": false,
      "inputs": [
        {
          "indexed": true,
          "internalType": "uint256",
          "name": "i_",
          "type": "uint256"
        },
        {
          "components": [
            {
              "internalType": "address",
              "name": "tpTokenAddress",
              "type": "address"
            },
            {
              "internalType": "address",
              "name": "priceProviderAddress",
              "type": "address"
            },
            {
              "internalType": "uint256",
              "name": "tpCtarg",
              "type": "uint256"
            },
            {
              "internalType": "uint256",
              "name": "tpMintFee",
              "type": "uint256"
            },
            {
              "internalType": "uint256",
              "name": "tpRedeemFee",
              "type": "uint256"
            },
            {
              "internalType": "uint256",
              "name": "tpEma",
              "type": "uint256"
            },
            {
              "internalType": "uint256",
              "name": "tpEmaSf",
              "type": "uint256"
            }
          ],
          "indexed": false,
          "internalType": "struct PeggedTokenParams",
          "name": "peggedTokenParams_",
          "type": "tuple"
        }
      ],
      "name": "PeggedTokenChange",
      "type": "event"
    },
    {
      "anonymous": false,
      "inputs": [],
      "name": "SettlementExecuted",
      "type": "event"
    },
    {
      "anonymous": false,
      "inputs": [
        {
          "indexed": false,
          "internalType": "uint256",
          "name": "mocGain_",
          "type": "uint256"
        },
        {
          "indexed": false,
          "internalType": "uint256[]",
          "name": "tpGain_",
          "type": "uint256[]"
        }
      ],
      "name": "SuccessFeeDistributed",
      "type": "event"
    },
    {
      "anonymous": false,
      "inputs": [
        {
          "indexed": true,
          "internalType": "address",
          "name": "sender_",
          "type": "address"
        },
        {
          "indexed": true,
          "internalType": "address",
          "name": "recipient_",
          "type": "address"
        },
        {
          "indexed": false,
          "internalType": "uint256",
          "name": "qTC_",
          "type": "uint256"
        },
        {
          "indexed": false,
          "internalType": "uint256",
          "name": "qAC_",
          "type": "uint256"
        },
        {
          "indexed": false,
          "internalType": "uint256",
          "name": "qACfee_",
          "type": "uint256"
        },
        {
          "indexed": false,
          "internalType": "uint256",
          "name": "qFeeToken_",
          "type": "uint256"
        },
        {
          "indexed": false,
          "internalType": "uint256",
          "name": "qACVendorMarkup_",
          "type": "uint256"
        },
        {
          "indexed": false,
          "internalType": "uint256",
          "name": "qFeeTokenVendorMarkup_",
          "type": "uint256"
        }
      ],
      "name": "TCMinted",
      "type": "event"
    },
    {
      "anonymous": false,
      "inputs": [
        {
          "indexed": true,
          "internalType": "address",
          "name": "sender_",
          "type": "address"
        },
        {
          "indexed": true,
          "internalType": "address",
          "name": "recipient_",
          "type": "address"
        },
        {
          "indexed": false,
          "internalType": "uint256",
          "name": "qTC_",
          "type": "uint256"
        },
        {
          "indexed": false,
          "internalType": "uint256",
          "name": "qAC_",
          "type": "uint256"
        },
        {
          "indexed": false,
          "internalType": "uint256",
          "name": "qACfee_",
          "type": "uint256"
        },
        {
          "indexed": false,
          "internalType": "uint256",
          "name": "qFeeToken_",
          "type": "uint256"
        },
        {
          "indexed": false,
          "internalType": "uint256",
          "name": "qACVendorMarkup_",
          "type": "uint256"
        },
        {
          "indexed": false,
          "internalType": "uint256",
          "name": "qFeeTokenVendorMarkup_",
          "type": "uint256"
        }
      ],
      "name": "TCRedeemed",
      "type": "event"
    },
    {
      "anonymous": false,
      "inputs": [
        {
          "indexed": true,
          "internalType": "uint256",
          "name": "i_",
          "type": "uint256"
        },
        {
          "indexed": true,
          "internalType": "address",
          "name": "sender_",
          "type": "address"
        },
        {
          "indexed": true,
          "internalType": "address",
          "name": "recipient_",
          "type": "address"
        },
        {
          "indexed": false,
          "internalType": "uint256",
          "name": "qTC_",
          "type": "uint256"
        },
        {
          "indexed": false,
          "internalType": "uint256",
          "name": "qTP_",
          "type": "uint256"
        },
        {
          "indexed": false,
          "internalType": "uint256",
          "name": "qACfee_",
          "type": "uint256"
        },
        {
          "indexed": false,
          "internalType": "uint256",
          "name": "qFeeToken_",
          "type": "uint256"
        },
        {
          "indexed": false,
          "internalType": "uint256",
          "name": "qACVendorMarkup_",
          "type": "uint256"
        },
        {
          "indexed": false,
          "internalType": "uint256",
          "name": "qFeeTokenVendorMarkup_",
          "type": "uint256"
        }
      ],
      "name": "TCSwappedForTP",
      "type": "event"
    },
    {
      "anonymous": false,
      "inputs": [
        {
          "indexed": true,
          "internalType": "uint256",
          "name": "i_",
          "type": "uint256"
        },
        {
          "indexed": true,
          "internalType": "address",
          "name": "sender_",
          "type": "address"
        },
        {
          "indexed": true,
          "internalType": "address",
          "name": "recipient_",
          "type": "address"
        },
        {
          "indexed": false,
          "internalType": "uint256",
          "name": "qTC_",
          "type": "uint256"
        },
        {
          "indexed": false,
          "internalType": "uint256",
          "name": "qTP_",
          "type": "uint256"
        },
        {
          "indexed": false,
          "internalType": "uint256",
          "name": "qAC_",
          "type": "uint256"
        },
        {
          "indexed": false,
          "internalType": "uint256",
          "name": "qACfee_",
          "type": "uint256"
        },
        {
          "indexed": false,
          "internalType": "uint256",
          "name": "qFeeToken_",
          "type": "uint256"
        },
        {
          "indexed": false,
          "internalType": "uint256",
          "name": "qACVendorMarkup_",
          "type": "uint256"
        },
        {
          "indexed": false,
          "internalType": "uint256",
          "name": "qFeeTokenVendorMarkup_",
          "type": "uint256"
        }
      ],
      "name": "TCandTPMinted",
      "type": "event"
    },
    {
      "anonymous": false,
      "inputs": [
        {
          "indexed": true,
          "internalType": "uint256",
          "name": "i_",
          "type": "uint256"
        },
        {
          "indexed": true,
          "internalType": "address",
          "name": "sender_",
          "type": "address"
        },
        {
          "indexed": true,
          "internalType": "address",
          "name": "recipient_",
          "type": "address"
        },
        {
          "indexed": false,
          "internalType": "uint256",
          "name": "qTC_",
          "type": "uint256"
        },
        {
          "indexed": false,
          "internalType": "uint256",
          "name": "qTP_",
          "type": "uint256"
        },
        {
          "indexed": false,
          "internalType": "uint256",
          "name": "qAC_",
          "type": "uint256"
        },
        {
          "indexed": false,
          "internalType": "uint256",
          "name": "qACfee_",
          "type": "uint256"
        },
        {
          "indexed": false,
          "internalType": "uint256",
          "name": "qFeeToken_",
          "type": "uint256"
        },
        {
          "indexed": false,
          "internalType": "uint256",
          "name": "qACVendorMarkup_",
          "type": "uint256"
        },
        {
          "indexed": false,
          "internalType": "uint256",
          "name": "qFeeTokenVendorMarkup_",
          "type": "uint256"
        }
      ],
      "name": "TCandTPRedeemed",
      "type": "event"
    },
    {
      "anonymous": false,
      "inputs": [
        {
          "indexed": true,
          "internalType": "uint256",
          "name": "i_",
          "type": "uint256"
        },
        {
          "indexed": true,
          "internalType": "address",
          "name": "sender_",
          "type": "address"
        },
        {
          "indexed": true,
          "internalType": "address",
          "name": "recipient_",
          "type": "address"
        },
        {
          "indexed": false,
          "internalType": "uint256",
          "name": "qTP_",
          "type": "uint256"
        },
        {
          "indexed": false,
          "internalType": "uint256",
          "name": "qAC_",
          "type": "uint256"
        },
        {
          "indexed": false,
          "internalType": "uint256",
          "name": "qACfee_",
          "type": "uint256"
        },
        {
          "indexed": false,
          "internalType": "uint256",
          "name": "qFeeToken_",
          "type": "uint256"
        },
        {
          "indexed": false,
          "internalType": "uint256",
          "name": "qACVendorMarkup_",
          "type": "uint256"
        },
        {
          "indexed": false,
          "internalType": "uint256",
          "name": "qFeeTokenVendorMarkup_",
          "type": "uint256"
        }
      ],
      "name": "TPMinted",
      "type": "event"
    },
    {
      "anonymous": false,
      "inputs": [
        {
          "indexed": true,
          "internalType": "uint256",
          "name": "i_",
          "type": "uint256"
        },
        {
          "indexed": true,
          "internalType": "address",
          "name": "sender_",
          "type": "address"
        },
        {
          "indexed": true,
          "internalType": "address",
          "name": "recipient_",
          "type": "address"
        },
        {
          "indexed": false,
          "internalType": "uint256",
          "name": "qTP_",
          "type": "uint256"
        },
        {
          "indexed": false,
          "internalType": "uint256",
          "name": "qAC_",
          "type": "uint256"
        },
        {
          "indexed": false,
          "internalType": "uint256",
          "name": "qACfee_",
          "type": "uint256"
        },
        {
          "indexed": false,
          "internalType": "uint256",
          "name": "qFeeToken_",
          "type": "uint256"
        },
        {
          "indexed": false,
          "internalType": "uint256",
          "name": "qACVendorMarkup_",
          "type": "uint256"
        },
        {
          "indexed": false,
          "internalType": "uint256",
          "name": "qFeeTokenVendorMarkup_",
          "type": "uint256"
        }
      ],
      "name": "TPRedeemed",
      "type": "event"
    },
    {
      "anonymous": false,
      "inputs": [
        {
          "indexed": true,
          "internalType": "uint256",
          "name": "i_",
          "type": "uint256"
        },
        {
          "indexed": true,
          "internalType": "address",
          "name": "sender_",
          "type": "address"
        },
        {
          "indexed": true,
          "internalType": "address",
          "name": "recipient_",
          "type": "address"
        },
        {
          "indexed": false,
          "internalType": "uint256",
          "name": "qTP_",
          "type": "uint256"
        },
        {
          "indexed": false,
          "internalType": "uint256",
          "name": "qTC_",
          "type": "uint256"
        },
        {
          "indexed": false,
          "internalType": "uint256",
          "name": "qACfee_",
          "type": "uint256"
        },
        {
          "indexed": false,
          "internalType": "uint256",
          "name": "qFeeToken_",
          "type": "uint256"
        },
        {
          "indexed": false,
          "internalType": "uint256",
          "name": "qACVendorMarkup_",
          "type": "uint256"
        },
        {
          "indexed": false,
          "internalType": "uint256",
          "name": "qFeeTokenVendorMarkup_",
          "type": "uint256"
        }
      ],
      "name": "TPSwappedForTC",
      "type": "event"
    },
    {
      "anonymous": false,
      "inputs": [
        {
          "indexed": true,
          "internalType": "uint256",
          "name": "iFrom_",
          "type": "uint256"
        },
        {
          "indexed": false,
          "internalType": "uint256",
          "name": "iTo_",
          "type": "uint256"
        },
        {
          "indexed": true,
          "internalType": "address",
          "name": "sender_",
          "type": "address"
        },
        {
          "indexed": true,
          "internalType": "address",
          "name": "recipient_",
          "type": "address"
        },
        {
          "indexed": false,
          "internalType": "uint256",
          "name": "qTPfrom_",
          "type": "uint256"
        },
        {
          "indexed": false,
          "internalType": "uint256",
          "name": "qTPto_",
          "type": "uint256"
        },
        {
          "indexed": false,
          "internalType": "uint256",
          "name": "qACfee_",
          "type": "uint256"
        },
        {
          "indexed": false,
          "internalType": "uint256",
          "name": "qFeeToken_",
          "type": "uint256"
        },
        {
          "indexed": false,
          "internalType": "uint256",
          "name": "qACVendorMarkup_",
          "type": "uint256"
        },
        {
          "indexed": false,
          "internalType": "uint256",
          "name": "qFeeTokenVendorMarkup_",
          "type": "uint256"
        }
      ],
      "name": "TPSwappedForTP",
      "type": "event"
    },
    {
      "anonymous": false,
      "inputs": [
        {
          "indexed": true,
          "internalType": "uint256",
          "name": "i_",
          "type": "uint256"
        },
        {
          "indexed": false,
          "internalType": "uint256",
          "name": "oldTPema_",
          "type": "uint256"
        },
        {
          "indexed": false,
          "internalType": "uint256",
          "name": "newTPema_",
          "type": "uint256"
        }
      ],
      "name": "TPemaUpdated",
      "type": "event"
    },
    {
      "anonymous": false,
      "inputs": [
        {
          "indexed": false,
          "internalType": "address",
          "name": "account",
          "type": "address"
        }
      ],
      "name": "Unpaused",
      "type": "event"
    },
    {
      "anonymous": false,
      "inputs": [
        {
          "indexed": true,
          "internalType": "address",
          "name": "implementation",
          "type": "address"
        }
      ],
      "name": "Upgraded",
      "type": "event"
    },
    {
      "inputs": [
        {
          "components": [
            {
              "internalType": "address",
              "name": "tpTokenAddress",
              "type": "address"
            },
            {
              "internalType": "address",
              "name": "priceProviderAddress",
              "type": "address"
            },
            {
              "internalType": "uint256",
              "name": "tpCtarg",
              "type": "uint256"
            },
            {
              "internalType": "uint256",
              "name": "tpMintFee",
              "type": "uint256"
            },
            {
              "internalType": "uint256",
              "name": "tpRedeemFee",
              "type": "uint256"
            },
            {
              "internalType": "uint256",
              "name": "tpEma",
              "type": "uint256"
            },
            {
              "internalType": "uint256",
              "name": "tpEmaSf",
              "type": "uint256"
            }
          ],
          "internalType": "struct PeggedTokenParams",
          "name": "peggedTokenParams_",
          "type": "tuple"
        }
      ],
      "name": "addPeggedToken",
      "outputs": [],
      "stateMutability": "nonpayable",
      "type": "function"
    },
    {
      "inputs": [],
      "name": "appreciationFactor",
      "outputs": [
        {
          "internalType": "uint256",
          "name": "",
          "type": "uint256"
        }
      ],
      "stateMutability": "view",
      "type": "function"
    },
    {
      "inputs": [],
      "name": "bes",
      "outputs": [
        {
          "internalType": "uint256",
          "name": "",
          "type": "uint256"
        }
      ],
      "stateMutability": "view",
      "type": "function"
    },
    {
      "inputs": [],
      "name": "bns",
      "outputs": [
        {
          "internalType": "uint256",
          "name": "",
          "type": "uint256"
        }
      ],
      "stateMutability": "view",
      "type": "function"
    },
    {
      "inputs": [],
      "name": "calcCtargemaCA",
      "outputs": [
        {
          "internalType": "uint256",
          "name": "ctargemaCA",
          "type": "uint256"
        }
      ],
      "stateMutability": "view",
      "type": "function"
    },
    {
      "inputs": [
        {
          "internalType": "contract IGovernor",
          "name": "newGovernor_",
          "type": "address"
        }
      ],
      "name": "changeGovernor",
      "outputs": [],
      "stateMutability": "nonpayable",
      "type": "function"
    },
    {
      "inputs": [
        {
          "components": [
            {
              "internalType": "address",
              "name": "tpTokenAddress",
              "type": "address"
            },
            {
              "internalType": "address",
              "name": "priceProviderAddress",
              "type": "address"
            },
            {
              "internalType": "uint256",
              "name": "tpCtarg",
              "type": "uint256"
            },
            {
              "internalType": "uint256",
              "name": "tpMintFee",
              "type": "uint256"
            },
            {
              "internalType": "uint256",
              "name": "tpRedeemFee",
              "type": "uint256"
            },
            {
              "internalType": "uint256",
              "name": "tpEma",
              "type": "uint256"
            },
            {
              "internalType": "uint256",
              "name": "tpEmaSf",
              "type": "uint256"
            }
          ],
          "internalType": "struct PeggedTokenParams",
          "name": "peggedTokenParams_",
          "type": "tuple"
        }
      ],
      "name": "editPeggedToken",
      "outputs": [],
      "stateMutability": "nonpayable",
      "type": "function"
    },
    {
      "inputs": [],
      "name": "emaCalculationBlockSpan",
      "outputs": [
        {
          "internalType": "uint256",
          "name": "",
          "type": "uint256"
        }
      ],
      "stateMutability": "view",
      "type": "function"
    },
    {
      "inputs": [],
      "name": "evalLiquidation",
      "outputs": [],
      "stateMutability": "nonpayable",
      "type": "function"
    },
    {
      "inputs": [],
      "name": "execSettlement",
      "outputs": [],
      "stateMutability": "nonpayable",
      "type": "function"
    },
    {
      "inputs": [],
      "name": "feeRetainer",
      "outputs": [
        {
          "internalType": "uint256",
          "name": "",
          "type": "uint256"
        }
      ],
      "stateMutability": "view",
      "type": "function"
    },
    {
      "inputs": [],
      "name": "feeToken",
      "outputs": [
        {
          "internalType": "contract IERC20",
          "name": "",
          "type": "address"
        }
      ],
      "stateMutability": "view",
      "type": "function"
    },
    {
      "inputs": [],
      "name": "feeTokenPct",
      "outputs": [
        {
          "internalType": "uint256",
          "name": "",
          "type": "uint256"
        }
      ],
      "stateMutability": "view",
      "type": "function"
    },
    {
      "inputs": [],
      "name": "feeTokenPriceProvider",
      "outputs": [
        {
          "internalType": "contract IPriceProvider",
          "name": "",
          "type": "address"
        }
      ],
      "stateMutability": "view",
      "type": "function"
    },
    {
      "inputs": [],
      "name": "getBts",
      "outputs": [
        {
          "internalType": "uint256",
          "name": "",
          "type": "uint256"
        }
      ],
      "stateMutability": "view",
      "type": "function"
    },
    {
      "inputs": [],
      "name": "getCglb",
      "outputs": [
        {
          "internalType": "uint256",
          "name": "cglob",
          "type": "uint256"
        }
      ],
      "stateMutability": "view",
      "type": "function"
    },
    {
      "inputs": [],
      "name": "getLeverageTC",
      "outputs": [
        {
          "internalType": "uint256",
          "name": "leverageTC",
          "type": "uint256"
        }
      ],
      "stateMutability": "view",
      "type": "function"
    },
    {
      "inputs": [
        {
          "internalType": "uint256",
          "name": "i_",
          "type": "uint256"
        }
      ],
      "name": "getPACtp",
      "outputs": [
        {
          "internalType": "uint256",
          "name": "",
          "type": "uint256"
        }
      ],
      "stateMutability": "view",
      "type": "function"
    },
    {
      "inputs": [],
      "name": "getPTCac",
      "outputs": [
        {
          "internalType": "uint256",
          "name": "pTCac",
          "type": "uint256"
        }
      ],
      "stateMutability": "view",
      "type": "function"
    },
    {
      "inputs": [],
      "name": "getTCAvailableToRedeem",
      "outputs": [
        {
          "internalType": "uint256",
          "name": "tcAvailableToRedeem",
          "type": "uint256"
        }
      ],
      "stateMutability": "view",
      "type": "function"
    },
    {
      "inputs": [
        {
          "internalType": "uint256",
          "name": "i_",
          "type": "uint256"
        }
      ],
      "name": "getTPAvailableToMint",
      "outputs": [
        {
          "internalType": "uint256",
          "name": "tpAvailableToMint",
          "type": "uint256"
        }
      ],
      "stateMutability": "view",
      "type": "function"
    },
    {
      "inputs": [],
      "name": "getTotalACavailable",
      "outputs": [
        {
          "internalType": "uint256",
          "name": "totalACavailable",
          "type": "uint256"
        }
      ],
      "stateMutability": "view",
      "type": "function"
    },
    {
      "inputs": [],
      "name": "governor",
      "outputs": [
        {
          "internalType": "contract IGovernor",
          "name": "",
          "type": "address"
        }
      ],
      "stateMutability": "view",
      "type": "function"
    },
    {
      "inputs": [
        {
          "components": [
            {
              "components": [
                {
                  "internalType": "address",
                  "name": "feeTokenAddress",
                  "type": "address"
                },
                {
                  "internalType": "address",
                  "name": "feeTokenPriceProviderAddress",
                  "type": "address"
                },
                {
                  "internalType": "address",
                  "name": "tcTokenAddress",
                  "type": "address"
                },
                {
                  "internalType": "address",
                  "name": "mocFeeFlowAddress",
                  "type": "address"
                },
                {
                  "internalType": "address",
                  "name": "mocAppreciationBeneficiaryAddress",
                  "type": "address"
                },
                {
                  "internalType": "uint256",
                  "name": "protThrld",
                  "type": "uint256"
                },
                {
                  "internalType": "uint256",
                  "name": "liqThrld",
                  "type": "uint256"
                },
                {
                  "internalType": "uint256",
                  "name": "feeRetainer",
                  "type": "uint256"
                },
                {
                  "internalType": "uint256",
                  "name": "tcMintFee",
                  "type": "uint256"
                },
                {
                  "internalType": "uint256",
                  "name": "tcRedeemFee",
                  "type": "uint256"
                },
                {
                  "internalType": "uint256",
                  "name": "swapTPforTPFee",
                  "type": "uint256"
                },
                {
                  "internalType": "uint256",
                  "name": "swapTPforTCFee",
                  "type": "uint256"
                },
                {
                  "internalType": "uint256",
                  "name": "swapTCforTPFee",
                  "type": "uint256"
                },
                {
                  "internalType": "uint256",
                  "name": "redeemTCandTPFee",
                  "type": "uint256"
                },
                {
                  "internalType": "uint256",
                  "name": "mintTCandTPFee",
                  "type": "uint256"
                },
                {
                  "internalType": "uint256",
                  "name": "feeTokenPct",
                  "type": "uint256"
                },
                {
                  "internalType": "uint256",
                  "name": "successFee",
                  "type": "uint256"
                },
                {
                  "internalType": "uint256",
                  "name": "appreciationFactor",
                  "type": "uint256"
                },
                {
                  "internalType": "uint256",
                  "name": "bes",
                  "type": "uint256"
                }
              ],
              "internalType": "struct MocBaseBucket.InitializeBaseBucketParams",
              "name": "initializeBaseBucketParams",
              "type": "tuple"
            },
            {
              "internalType": "address",
              "name": "governorAddress",
              "type": "address"
            },
            {
              "internalType": "address",
              "name": "pauserAddress",
              "type": "address"
            },
            {
              "internalType": "address",
              "name": "mocCoreExpansion",
              "type": "address"
            },
            {
              "internalType": "uint256",
              "name": "emaCalculationBlockSpan",
              "type": "uint256"
            },
            {
              "internalType": "address",
              "name": "mocVendors",
              "type": "address"
            }
          ],
          "internalType": "struct MocCore.InitializeCoreParams",
          "name": "initializeCoreParams_",
          "type": "tuple"
        }
      ],
      "name": "initialize",
      "outputs": [],
      "stateMutability": "nonpayable",
      "type": "function"
    },
    {
      "inputs": [],
      "name": "isLiquidationReached",
      "outputs": [
        {
          "internalType": "bool",
          "name": "",
          "type": "bool"
        }
      ],
      "stateMutability": "view",
      "type": "function"
    },
    {
      "inputs": [],
      "name": "liqEnabled",
      "outputs": [
        {
          "internalType": "bool",
          "name": "",
          "type": "bool"
        }
      ],
      "stateMutability": "view",
      "type": "function"
    },
    {
      "inputs": [
        {
          "internalType": "uint256",
          "name": "i_",
          "type": "uint256"
        }
      ],
      "name": "liqRedeemTP",
      "outputs": [
        {
          "internalType": "uint256",
          "name": "qACRedeemed",
          "type": "uint256"
        }
      ],
      "stateMutability": "nonpayable",
      "type": "function"
    },
    {
      "inputs": [
        {
          "internalType": "uint256",
          "name": "i_",
          "type": "uint256"
        },
        {
          "internalType": "address",
          "name": "recipient_",
          "type": "address"
        }
      ],
      "name": "liqRedeemTPto",
      "outputs": [
        {
          "internalType": "uint256",
          "name": "qACRedeemed",
          "type": "uint256"
        }
      ],
      "stateMutability": "nonpayable",
      "type": "function"
    },
    {
      "inputs": [],
      "name": "liqThrld",
      "outputs": [
        {
          "internalType": "uint256",
          "name": "",
          "type": "uint256"
        }
      ],
      "stateMutability": "view",
      "type": "function"
    },
    {
      "inputs": [],
      "name": "liquidated",
      "outputs": [
        {
          "internalType": "bool",
          "name": "",
          "type": "bool"
        }
      ],
      "stateMutability": "view",
      "type": "function"
    },
    {
      "inputs": [],
      "name": "makeStoppable",
      "outputs": [],
      "stateMutability": "nonpayable",
      "type": "function"
    },
    {
      "inputs": [],
      "name": "makeUnstoppable",
      "outputs": [],
      "stateMutability": "nonpayable",
      "type": "function"
    },
    {
      "inputs": [
        {
          "internalType": "uint256",
          "name": "qTC_",
          "type": "uint256"
        }
      ],
      "name": "mintTC",
      "outputs": [
        {
          "internalType": "uint256",
          "name": "qACtotalNeeded",
          "type": "uint256"
        },
        {
          "internalType": "uint256",
          "name": "qFeeToken",
          "type": "uint256"
        }
      ],
      "stateMutability": "payable",
      "type": "function"
    },
    {
      "inputs": [
        {
          "internalType": "uint256",
          "name": "qTC_",
          "type": "uint256"
        },
        {
          "internalType": "address",
          "name": "vendor_",
          "type": "address"
        }
      ],
      "name": "mintTCViaVendor",
      "outputs": [
        {
          "internalType": "uint256",
          "name": "qACtotalNeeded",
          "type": "uint256"
        },
        {
          "internalType": "uint256",
          "name": "qFeeToken",
          "type": "uint256"
        }
      ],
      "stateMutability": "payable",
      "type": "function"
    },
    {
      "inputs": [
        {
          "internalType": "uint256",
          "name": "i_",
          "type": "uint256"
        },
        {
          "internalType": "uint256",
          "name": "qTP_",
          "type": "uint256"
        }
      ],
      "name": "mintTCandTP",
      "outputs": [
        {
          "internalType": "uint256",
          "name": "qACtotalNeeded",
          "type": "uint256"
        },
        {
          "internalType": "uint256",
          "name": "qTCtoMint",
          "type": "uint256"
        },
        {
          "internalType": "uint256",
          "name": "qFeeToken",
          "type": "uint256"
        }
      ],
      "stateMutability": "payable",
      "type": "function"
    },
    {
      "inputs": [],
      "name": "mintTCandTPFee",
      "outputs": [
        {
          "internalType": "uint256",
          "name": "",
          "type": "uint256"
        }
      ],
      "stateMutability": "view",
      "type": "function"
    },
    {
      "inputs": [
        {
          "internalType": "uint256",
          "name": "i_",
          "type": "uint256"
        },
        {
          "internalType": "uint256",
          "name": "qTP_",
          "type": "uint256"
        },
        {
          "internalType": "address",
          "name": "vendor_",
          "type": "address"
        }
      ],
      "name": "mintTCandTPViaVendor",
      "outputs": [
        {
          "internalType": "uint256",
          "name": "qACtotalNeeded",
          "type": "uint256"
        },
        {
          "internalType": "uint256",
          "name": "qTCtoMint",
          "type": "uint256"
        },
        {
          "internalType": "uint256",
          "name": "qFeeToken",
          "type": "uint256"
        }
      ],
      "stateMutability": "payable",
      "type": "function"
    },
    {
      "inputs": [
        {
          "internalType": "uint256",
          "name": "i_",
          "type": "uint256"
        },
        {
          "internalType": "uint256",
          "name": "qTP_",
          "type": "uint256"
        },
        {
          "internalType": "address",
          "name": "recipient_",
          "type": "address"
        }
      ],
      "name": "mintTCandTPto",
      "outputs": [
        {
          "internalType": "uint256",
          "name": "qACtotalNeeded",
          "type": "uint256"
        },
        {
          "internalType": "uint256",
          "name": "qTCtoMint",
          "type": "uint256"
        },
        {
          "internalType": "uint256",
          "name": "qFeeToken",
          "type": "uint256"
        }
      ],
      "stateMutability": "payable",
      "type": "function"
    },
    {
      "inputs": [
        {
          "internalType": "uint256",
          "name": "i_",
          "type": "uint256"
        },
        {
          "internalType": "uint256",
          "name": "qTP_",
          "type": "uint256"
        },
        {
          "internalType": "address",
          "name": "recipient_",
          "type": "address"
        },
        {
          "internalType": "address",
          "name": "vendor_",
          "type": "address"
        }
      ],
      "name": "mintTCandTPtoViaVendor",
      "outputs": [
        {
          "internalType": "uint256",
          "name": "qACtotalNeeded",
          "type": "uint256"
        },
        {
          "internalType": "uint256",
          "name": "qTCtoMint",
          "type": "uint256"
        },
        {
          "internalType": "uint256",
          "name": "qFeeToken",
          "type": "uint256"
        }
      ],
      "stateMutability": "payable",
      "type": "function"
    },
    {
      "inputs": [
        {
          "internalType": "uint256",
          "name": "qTC_",
          "type": "uint256"
        },
        {
          "internalType": "address",
          "name": "recipient_",
          "type": "address"
        }
      ],
      "name": "mintTCto",
      "outputs": [
        {
          "internalType": "uint256",
          "name": "qACtotalNeeded",
          "type": "uint256"
        },
        {
          "internalType": "uint256",
          "name": "qFeeToken",
          "type": "uint256"
        }
      ],
      "stateMutability": "payable",
      "type": "function"
    },
    {
      "inputs": [
        {
          "internalType": "uint256",
          "name": "qTC_",
          "type": "uint256"
        },
        {
          "internalType": "address",
          "name": "recipient_",
          "type": "address"
        },
        {
          "internalType": "address",
          "name": "vendor_",
          "type": "address"
        }
      ],
      "name": "mintTCtoViaVendor",
      "outputs": [
        {
          "internalType": "uint256",
          "name": "qACtotalNeeded",
          "type": "uint256"
        },
        {
          "internalType": "uint256",
          "name": "qFeeToken",
          "type": "uint256"
        }
      ],
      "stateMutability": "payable",
      "type": "function"
    },
    {
      "inputs": [
        {
          "internalType": "uint256",
          "name": "i_",
          "type": "uint256"
        },
        {
          "internalType": "uint256",
          "name": "qTP_",
          "type": "uint256"
        }
      ],
      "name": "mintTP",
      "outputs": [
        {
          "internalType": "uint256",
          "name": "qACtotalNeeded",
          "type": "uint256"
        },
        {
          "internalType": "uint256",
          "name": "qFeeToken",
          "type": "uint256"
        }
      ],
      "stateMutability": "payable",
      "type": "function"
    },
    {
      "inputs": [
        {
          "internalType": "uint256",
          "name": "i_",
          "type": "uint256"
        },
        {
          "internalType": "uint256",
          "name": "qTP_",
          "type": "uint256"
        },
        {
          "internalType": "address",
          "name": "vendor_",
          "type": "address"
        }
      ],
      "name": "mintTPViaVendor",
      "outputs": [
        {
          "internalType": "uint256",
          "name": "qACtotalNeeded",
          "type": "uint256"
        },
        {
          "internalType": "uint256",
          "name": "qFeeToken",
          "type": "uint256"
        }
      ],
      "stateMutability": "payable",
      "type": "function"
    },
    {
      "inputs": [
        {
          "internalType": "uint256",
          "name": "i_",
          "type": "uint256"
        },
        {
          "internalType": "uint256",
          "name": "qTP_",
          "type": "uint256"
        },
        {
          "internalType": "address",
          "name": "recipient_",
          "type": "address"
        }
      ],
      "name": "mintTPto",
      "outputs": [
        {
          "internalType": "uint256",
          "name": "qACtotalNeeded",
          "type": "uint256"
        },
        {
          "internalType": "uint256",
          "name": "qFeeToken",
          "type": "uint256"
        }
      ],
      "stateMutability": "payable",
      "type": "function"
    },
    {
      "inputs": [
        {
          "internalType": "uint256",
          "name": "i_",
          "type": "uint256"
        },
        {
          "internalType": "uint256",
          "name": "qTP_",
          "type": "uint256"
        },
        {
          "internalType": "address",
          "name": "recipient_",
          "type": "address"
        },
        {
          "internalType": "address",
          "name": "vendor_",
          "type": "address"
        }
      ],
      "name": "mintTPtoViaVendor",
      "outputs": [
        {
          "internalType": "uint256",
          "name": "qACtotalNeeded",
          "type": "uint256"
        },
        {
          "internalType": "uint256",
          "name": "qFeeToken",
          "type": "uint256"
        }
      ],
      "stateMutability": "payable",
      "type": "function"
    },
    {
      "inputs": [],
      "name": "mocAppreciationBeneficiaryAddress",
      "outputs": [
        {
          "internalType": "address",
          "name": "",
          "type": "address"
        }
      ],
      "stateMutability": "view",
      "type": "function"
    },
    {
      "inputs": [],
      "name": "mocFeeFlowAddress",
      "outputs": [
        {
          "internalType": "address",
          "name": "",
          "type": "address"
        }
      ],
      "stateMutability": "view",
      "type": "function"
    },
    {
      "inputs": [],
      "name": "mocVendors",
      "outputs": [
        {
          "internalType": "contract MocVendors",
          "name": "",
          "type": "address"
        }
      ],
      "stateMutability": "view",
      "type": "function"
    },
    {
      "inputs": [],
      "name": "nACcb",
      "outputs": [
        {
          "internalType": "uint256",
          "name": "",
          "type": "uint256"
        }
      ],
      "stateMutability": "view",
      "type": "function"
    },
    {
      "inputs": [],
      "name": "nTCcb",
      "outputs": [
        {
          "internalType": "uint256",
          "name": "",
          "type": "uint256"
        }
      ],
      "stateMutability": "view",
      "type": "function"
    },
    {
      "inputs": [],
      "name": "nextEmaCalculation",
      "outputs": [
        {
          "internalType": "uint256",
          "name": "",
          "type": "uint256"
        }
      ],
      "stateMutability": "view",
      "type": "function"
    },
    {
      "inputs": [],
      "name": "pause",
      "outputs": [],
      "stateMutability": "nonpayable",
      "type": "function"
    },
    {
      "inputs": [],
      "name": "paused",
      "outputs": [
        {
          "internalType": "bool",
          "name": "",
          "type": "bool"
        }
      ],
      "stateMutability": "view",
      "type": "function"
    },
    {
      "inputs": [],
      "name": "pauser",
      "outputs": [
        {
          "internalType": "address",
          "name": "",
          "type": "address"
        }
      ],
      "stateMutability": "view",
      "type": "function"
    },
    {
      "inputs": [
        {
          "internalType": "uint256",
          "name": "",
          "type": "uint256"
        }
      ],
      "name": "pegContainer",
      "outputs": [
        {
          "internalType": "uint256",
          "name": "nTP",
          "type": "uint256"
        },
        {
          "internalType": "contract IPriceProvider",
          "name": "priceProvider",
          "type": "address"
        }
      ],
      "stateMutability": "view",
      "type": "function"
    },
    {
      "inputs": [
        {
          "internalType": "address",
          "name": "",
          "type": "address"
        }
      ],
      "name": "peggedTokenIndex",
      "outputs": [
        {
          "internalType": "uint256",
          "name": "index",
          "type": "uint256"
        },
        {
          "internalType": "bool",
          "name": "exists",
          "type": "bool"
        }
      ],
      "stateMutability": "view",
      "type": "function"
    },
    {
      "inputs": [],
      "name": "protThrld",
      "outputs": [
        {
          "internalType": "uint256",
          "name": "",
          "type": "uint256"
        }
      ],
      "stateMutability": "view",
      "type": "function"
    },
    {
      "inputs": [],
      "name": "proxiableUUID",
      "outputs": [
        {
          "internalType": "bytes32",
          "name": "",
          "type": "bytes32"
        }
      ],
      "stateMutability": "view",
      "type": "function"
    },
    {
      "inputs": [
        {
          "internalType": "uint256",
          "name": "qTC_",
          "type": "uint256"
        },
        {
          "internalType": "uint256",
          "name": "qACmin_",
          "type": "uint256"
        }
      ],
      "name": "redeemTC",
      "outputs": [
        {
          "internalType": "uint256",
          "name": "qACRedeemed",
          "type": "uint256"
        },
        {
          "internalType": "uint256",
          "name": "qFeeToken",
          "type": "uint256"
        }
      ],
      "stateMutability": "nonpayable",
      "type": "function"
    },
    {
      "inputs": [
        {
          "internalType": "uint256",
          "name": "qTC_",
          "type": "uint256"
        },
        {
          "internalType": "uint256",
          "name": "qACmin_",
          "type": "uint256"
        },
        {
          "internalType": "address",
          "name": "vendor_",
          "type": "address"
        }
      ],
      "name": "redeemTCViaVendor",
      "outputs": [
        {
          "internalType": "uint256",
          "name": "qACRedeemed",
          "type": "uint256"
        },
        {
          "internalType": "uint256",
          "name": "qFeeToken",
          "type": "uint256"
        }
      ],
      "stateMutability": "nonpayable",
      "type": "function"
    },
    {
      "inputs": [
        {
          "internalType": "uint256",
          "name": "i_",
          "type": "uint256"
        },
        {
          "internalType": "uint256",
          "name": "qTC_",
          "type": "uint256"
        },
        {
          "internalType": "uint256",
          "name": "qTP_",
          "type": "uint256"
        },
        {
          "internalType": "uint256",
          "name": "qACmin_",
          "type": "uint256"
        }
      ],
      "name": "redeemTCandTP",
      "outputs": [
        {
          "internalType": "uint256",
          "name": "qACRedeemed",
          "type": "uint256"
        },
        {
          "internalType": "uint256",
          "name": "qTPRedeemed",
          "type": "uint256"
        },
        {
          "internalType": "uint256",
          "name": "qFeeToken",
          "type": "uint256"
        }
      ],
      "stateMutability": "nonpayable",
      "type": "function"
    },
    {
      "inputs": [],
      "name": "redeemTCandTPFee",
      "outputs": [
        {
          "internalType": "uint256",
          "name": "",
          "type": "uint256"
        }
      ],
      "stateMutability": "view",
      "type": "function"
    },
    {
      "inputs": [
        {
          "internalType": "uint256",
          "name": "i_",
          "type": "uint256"
        },
        {
          "internalType": "uint256",
          "name": "qTC_",
          "type": "uint256"
        },
        {
          "internalType": "uint256",
          "name": "qTP_",
          "type": "uint256"
        },
        {
          "internalType": "uint256",
          "name": "qACmin_",
          "type": "uint256"
        },
        {
          "internalType": "address",
          "name": "vendor_",
          "type": "address"
        }
      ],
      "name": "redeemTCandTPViaVendor",
      "outputs": [
        {
          "internalType": "uint256",
          "name": "qACRedeemed",
          "type": "uint256"
        },
        {
          "internalType": "uint256",
          "name": "qTPRedeemed",
          "type": "uint256"
        },
        {
          "internalType": "uint256",
          "name": "qFeeToken",
          "type": "uint256"
        }
      ],
      "stateMutability": "nonpayable",
      "type": "function"
    },
    {
      "inputs": [
        {
          "internalType": "uint256",
          "name": "i_",
          "type": "uint256"
        },
        {
          "internalType": "uint256",
          "name": "qTC_",
          "type": "uint256"
        },
        {
          "internalType": "uint256",
          "name": "qTP_",
          "type": "uint256"
        },
        {
          "internalType": "uint256",
          "name": "qACmin_",
          "type": "uint256"
        },
        {
          "internalType": "address",
          "name": "recipient_",
          "type": "address"
        }
      ],
      "name": "redeemTCandTPto",
      "outputs": [
        {
          "internalType": "uint256",
          "name": "qACRedeemed",
          "type": "uint256"
        },
        {
          "internalType": "uint256",
          "name": "qTPRedeemed",
          "type": "uint256"
        },
        {
          "internalType": "uint256",
          "name": "qFeeToken",
          "type": "uint256"
        }
      ],
      "stateMutability": "nonpayable",
      "type": "function"
    },
    {
      "inputs": [
        {
          "internalType": "uint256",
          "name": "i_",
          "type": "uint256"
        },
        {
          "internalType": "uint256",
          "name": "qTC_",
          "type": "uint256"
        },
        {
          "internalType": "uint256",
          "name": "qTP_",
          "type": "uint256"
        },
        {
          "internalType": "uint256",
          "name": "qACmin_",
          "type": "uint256"
        },
        {
          "internalType": "address",
          "name": "recipient_",
          "type": "address"
        },
        {
          "internalType": "address",
          "name": "vendor_",
          "type": "address"
        }
      ],
      "name": "redeemTCandTPtoViaVendor",
      "outputs": [
        {
          "internalType": "uint256",
          "name": "qACRedeemed",
          "type": "uint256"
        },
        {
          "internalType": "uint256",
          "name": "qTPRedeemed",
          "type": "uint256"
        },
        {
          "internalType": "uint256",
          "name": "qFeeToken",
          "type": "uint256"
        }
      ],
      "stateMutability": "nonpayable",
      "type": "function"
    },
    {
      "inputs": [
        {
          "internalType": "uint256",
          "name": "qTC_",
          "type": "uint256"
        },
        {
          "internalType": "uint256",
          "name": "qACmin_",
          "type": "uint256"
        },
        {
          "internalType": "address",
          "name": "recipient_",
          "type": "address"
        }
      ],
      "name": "redeemTCto",
      "outputs": [
        {
          "internalType": "uint256",
          "name": "qACRedeemed",
          "type": "uint256"
        },
        {
          "internalType": "uint256",
          "name": "qFeeToken",
          "type": "uint256"
        }
      ],
      "stateMutability": "nonpayable",
      "type": "function"
    },
    {
      "inputs": [
        {
          "internalType": "uint256",
          "name": "qTC_",
          "type": "uint256"
        },
        {
          "internalType": "uint256",
          "name": "qACmin_",
          "type": "uint256"
        },
        {
          "internalType": "address",
          "name": "recipient_",
          "type": "address"
        },
        {
          "internalType": "address",
          "name": "vendor_",
          "type": "address"
        }
      ],
      "name": "redeemTCtoViaVendor",
      "outputs": [
        {
          "internalType": "uint256",
          "name": "qACRedeemed",
          "type": "uint256"
        },
        {
          "internalType": "uint256",
          "name": "qFeeToken",
          "type": "uint256"
        }
      ],
      "stateMutability": "nonpayable",
      "type": "function"
    },
    {
      "inputs": [
        {
          "internalType": "uint256",
          "name": "i_",
          "type": "uint256"
        },
        {
          "internalType": "uint256",
          "name": "qTP_",
          "type": "uint256"
        },
        {
          "internalType": "uint256",
          "name": "qACmin_",
          "type": "uint256"
        }
      ],
      "name": "redeemTP",
      "outputs": [
        {
          "internalType": "uint256",
          "name": "qACRedeemed",
          "type": "uint256"
        },
        {
          "internalType": "uint256",
          "name": "qFeeToken",
          "type": "uint256"
        }
      ],
      "stateMutability": "nonpayable",
      "type": "function"
    },
    {
      "inputs": [
        {
          "internalType": "uint256",
          "name": "i_",
          "type": "uint256"
        },
        {
          "internalType": "uint256",
          "name": "qTP_",
          "type": "uint256"
        },
        {
          "internalType": "uint256",
          "name": "qACmin_",
          "type": "uint256"
        },
        {
          "internalType": "address",
          "name": "vendor_",
          "type": "address"
        }
      ],
      "name": "redeemTPViaVendor",
      "outputs": [
        {
          "internalType": "uint256",
          "name": "qACRedeemed",
          "type": "uint256"
        },
        {
          "internalType": "uint256",
          "name": "qFeeToken",
          "type": "uint256"
        }
      ],
      "stateMutability": "nonpayable",
      "type": "function"
    },
    {
      "inputs": [
        {
          "internalType": "uint256",
          "name": "i_",
          "type": "uint256"
        },
        {
          "internalType": "uint256",
          "name": "qTP_",
          "type": "uint256"
        },
        {
          "internalType": "uint256",
          "name": "qACmin_",
          "type": "uint256"
        },
        {
          "internalType": "address",
          "name": "recipient_",
          "type": "address"
        }
      ],
      "name": "redeemTPto",
      "outputs": [
        {
          "internalType": "uint256",
          "name": "qACRedeemed",
          "type": "uint256"
        },
        {
          "internalType": "uint256",
          "name": "qFeeToken",
          "type": "uint256"
        }
      ],
      "stateMutability": "nonpayable",
      "type": "function"
    },
    {
      "inputs": [
        {
          "internalType": "uint256",
          "name": "i_",
          "type": "uint256"
        },
        {
          "internalType": "uint256",
          "name": "qTP_",
          "type": "uint256"
        },
        {
          "internalType": "uint256",
          "name": "qACmin_",
          "type": "uint256"
        },
        {
          "internalType": "address",
          "name": "recipient_",
          "type": "address"
        },
        {
          "internalType": "address",
          "name": "vendor_",
          "type": "address"
        }
      ],
      "name": "redeemTPtoViaVendor",
      "outputs": [
        {
          "internalType": "uint256",
          "name": "qACRedeemed",
          "type": "uint256"
        },
        {
          "internalType": "uint256",
          "name": "qFeeToken",
          "type": "uint256"
        }
      ],
      "stateMutability": "nonpayable",
      "type": "function"
    },
    {
      "inputs": [
        {
          "internalType": "uint256",
          "name": "appreciationFactor_",
          "type": "uint256"
        }
      ],
      "name": "setAppreciationFactor",
      "outputs": [],
      "stateMutability": "nonpayable",
      "type": "function"
    },
    {
      "inputs": [
        {
          "internalType": "uint256",
          "name": "bes_",
          "type": "uint256"
        }
      ],
      "name": "setBes",
      "outputs": [],
      "stateMutability": "nonpayable",
      "type": "function"
    },
    {
      "inputs": [
        {
          "internalType": "uint256",
          "name": "blockSpan_",
          "type": "uint256"
        }
      ],
      "name": "setEmaCalculationBlockSpan",
      "outputs": [],
      "stateMutability": "nonpayable",
      "type": "function"
    },
    {
      "inputs": [
        {
          "internalType": "uint256",
          "name": "feeRetainer_",
          "type": "uint256"
        }
      ],
      "name": "setFeeRetainer",
      "outputs": [],
      "stateMutability": "nonpayable",
      "type": "function"
    },
    {
      "inputs": [
        {
          "internalType": "address",
          "name": "mocFeeTokenAddress_",
          "type": "address"
        }
      ],
      "name": "setFeeTokenAddress",
      "outputs": [],
      "stateMutability": "nonpayable",
      "type": "function"
    },
    {
      "inputs": [
        {
          "internalType": "uint256",
          "name": "feeTokenPct_",
          "type": "uint256"
        }
      ],
      "name": "setFeeTokenPct",
      "outputs": [],
      "stateMutability": "nonpayable",
      "type": "function"
    },
    {
      "inputs": [
        {
          "internalType": "address",
          "name": "mocFeeTokenPriceProviderAddress_",
          "type": "address"
        }
      ],
      "name": "setFeeTokenPriceProviderAddress",
      "outputs": [],
      "stateMutability": "nonpayable",
      "type": "function"
    },
    {
      "inputs": [
        {
          "internalType": "bool",
          "name": "liqEnabled_",
          "type": "bool"
        }
      ],
      "name": "setLiqEnabled",
      "outputs": [],
      "stateMutability": "nonpayable",
      "type": "function"
    },
    {
      "inputs": [
        {
          "internalType": "uint256",
          "name": "liqThrld_",
          "type": "uint256"
        }
      ],
      "name": "setLiqThrld",
      "outputs": [],
      "stateMutability": "nonpayable",
      "type": "function"
    },
    {
      "inputs": [
        {
          "internalType": "uint256",
          "name": "mintTCandTPFee_",
          "type": "uint256"
        }
      ],
      "name": "setMintTCandTPFee",
      "outputs": [],
      "stateMutability": "nonpayable",
      "type": "function"
    },
    {
      "inputs": [
        {
          "internalType": "address",
          "name": "mocAppreciationBeneficiaryAddress_",
          "type": "address"
        }
      ],
      "name": "setMocAppreciationBeneficiaryAddress",
      "outputs": [],
      "stateMutability": "nonpayable",
      "type": "function"
    },
    {
      "inputs": [
        {
          "internalType": "address",
          "name": "mocCoreExpansion_",
          "type": "address"
        }
      ],
      "name": "setMocCoreExpansion",
      "outputs": [],
      "stateMutability": "nonpayable",
      "type": "function"
    },
    {
      "inputs": [
        {
          "internalType": "address",
          "name": "mocFeeFlowAddress_",
          "type": "address"
        }
      ],
      "name": "setMocFeeFlowAddress",
      "outputs": [],
      "stateMutability": "nonpayable",
      "type": "function"
    },
    {
      "inputs": [
        {
          "internalType": "address",
          "name": "newPauser_",
          "type": "address"
        }
      ],
      "name": "setPauser",
      "outputs": [],
      "stateMutability": "nonpayable",
      "type": "function"
    },
    {
      "inputs": [
        {
          "internalType": "uint256",
          "name": "protThrld_",
          "type": "uint256"
        }
      ],
      "name": "setProtThrld",
      "outputs": [],
      "stateMutability": "nonpayable",
      "type": "function"
    },
    {
      "inputs": [
        {
          "internalType": "uint256",
          "name": "redeemTCandTPFee_",
          "type": "uint256"
        }
      ],
      "name": "setRedeemTCandTPFee",
      "outputs": [],
      "stateMutability": "nonpayable",
      "type": "function"
    },
    {
      "inputs": [
        {
          "internalType": "uint256",
          "name": "successFee_",
          "type": "uint256"
        }
      ],
      "name": "setSuccessFee",
      "outputs": [],
      "stateMutability": "nonpayable",
      "type": "function"
    },
    {
      "inputs": [
        {
          "internalType": "uint256",
          "name": "swapTCforTPFee_",
          "type": "uint256"
        }
      ],
      "name": "setSwapTCforTPFee",
      "outputs": [],
      "stateMutability": "nonpayable",
      "type": "function"
    },
    {
      "inputs": [
        {
          "internalType": "uint256",
          "name": "swapTPforTCFee_",
          "type": "uint256"
        }
      ],
      "name": "setSwapTPforTCFee",
      "outputs": [],
      "stateMutability": "nonpayable",
      "type": "function"
    },
    {
      "inputs": [
        {
          "internalType": "uint256",
          "name": "swapTPforTPFee_",
          "type": "uint256"
        }
      ],
      "name": "setSwapTPforTPFee",
      "outputs": [],
      "stateMutability": "nonpayable",
      "type": "function"
    },
    {
      "inputs": [
        {
          "internalType": "uint256",
          "name": "tcMintFee_",
          "type": "uint256"
        }
      ],
      "name": "setTcMintFee",
      "outputs": [],
      "stateMutability": "nonpayable",
      "type": "function"
    },
    {
      "inputs": [
        {
          "internalType": "uint256",
          "name": "tcRedeemFee_",
          "type": "uint256"
        }
      ],
      "name": "setTcRedeemFee",
      "outputs": [],
      "stateMutability": "nonpayable",
      "type": "function"
    },
    {
      "inputs": [],
      "name": "shouldCalculateEma",
      "outputs": [
        {
          "internalType": "bool",
          "name": "",
          "type": "bool"
        }
      ],
      "stateMutability": "view",
      "type": "function"
    },
    {
      "inputs": [],
      "name": "stoppable",
      "outputs": [
        {
          "internalType": "bool",
          "name": "",
          "type": "bool"
        }
      ],
      "stateMutability": "view",
      "type": "function"
    },
    {
      "inputs": [],
      "name": "successFee",
      "outputs": [
        {
          "internalType": "uint256",
          "name": "",
          "type": "uint256"
        }
      ],
      "stateMutability": "view",
      "type": "function"
    },
    {
      "inputs": [
        {
          "internalType": "uint256",
          "name": "i_",
          "type": "uint256"
        },
        {
          "internalType": "uint256",
          "name": "qTC_",
          "type": "uint256"
        },
        {
          "internalType": "uint256",
          "name": "qTPmin_",
          "type": "uint256"
        }
      ],
      "name": "swapTCforTP",
      "outputs": [
        {
          "internalType": "uint256",
          "name": "qACFee",
          "type": "uint256"
        },
        {
          "internalType": "uint256",
          "name": "qTPMinted",
          "type": "uint256"
        },
        {
          "internalType": "uint256",
          "name": "qFeeToken",
          "type": "uint256"
        }
      ],
      "stateMutability": "payable",
      "type": "function"
    },
    {
      "inputs": [],
      "name": "swapTCforTPFee",
      "outputs": [
        {
          "internalType": "uint256",
          "name": "",
          "type": "uint256"
        }
      ],
      "stateMutability": "view",
      "type": "function"
    },
    {
      "inputs": [
        {
          "internalType": "uint256",
          "name": "i_",
          "type": "uint256"
        },
        {
          "internalType": "uint256",
          "name": "qTC_",
          "type": "uint256"
        },
        {
          "internalType": "uint256",
          "name": "qTPmin_",
          "type": "uint256"
        },
        {
          "internalType": "address",
          "name": "vendor_",
          "type": "address"
        }
      ],
      "name": "swapTCforTPViaVendor",
      "outputs": [
        {
          "internalType": "uint256",
          "name": "qACFee",
          "type": "uint256"
        },
        {
          "internalType": "uint256",
          "name": "qTPMinted",
          "type": "uint256"
        },
        {
          "internalType": "uint256",
          "name": "qFeeToken",
          "type": "uint256"
        }
      ],
      "stateMutability": "payable",
      "type": "function"
    },
    {
      "inputs": [
        {
          "internalType": "uint256",
          "name": "i_",
          "type": "uint256"
        },
        {
          "internalType": "uint256",
          "name": "qTC_",
          "type": "uint256"
        },
        {
          "internalType": "uint256",
          "name": "qTPmin_",
          "type": "uint256"
        },
        {
          "internalType": "address",
          "name": "recipient_",
          "type": "address"
        }
      ],
      "name": "swapTCforTPto",
      "outputs": [
        {
          "internalType": "uint256",
          "name": "qACFee",
          "type": "uint256"
        },
        {
          "internalType": "uint256",
          "name": "qTPMinted",
          "type": "uint256"
        },
        {
          "internalType": "uint256",
          "name": "qFeeToken",
          "type": "uint256"
        }
      ],
      "stateMutability": "payable",
      "type": "function"
    },
    {
      "inputs": [
        {
          "internalType": "uint256",
          "name": "i_",
          "type": "uint256"
        },
        {
          "internalType": "uint256",
          "name": "qTC_",
          "type": "uint256"
        },
        {
          "internalType": "uint256",
          "name": "qTPmin_",
          "type": "uint256"
        },
        {
          "internalType": "address",
          "name": "recipient_",
          "type": "address"
        },
        {
          "internalType": "address",
          "name": "vendor_",
          "type": "address"
        }
      ],
      "name": "swapTCforTPtoViaVendor",
      "outputs": [
        {
          "internalType": "uint256",
          "name": "qACFee",
          "type": "uint256"
        },
        {
          "internalType": "uint256",
          "name": "qTPMinted",
          "type": "uint256"
        },
        {
          "internalType": "uint256",
          "name": "qFeeToken",
          "type": "uint256"
        }
      ],
      "stateMutability": "payable",
      "type": "function"
    },
    {
      "inputs": [
        {
          "internalType": "uint256",
          "name": "i_",
          "type": "uint256"
        },
        {
          "internalType": "uint256",
          "name": "qTP_",
          "type": "uint256"
        },
        {
          "internalType": "uint256",
          "name": "qTCmin_",
          "type": "uint256"
        }
      ],
      "name": "swapTPforTC",
      "outputs": [
        {
          "internalType": "uint256",
          "name": "qACFee",
          "type": "uint256"
        },
        {
          "internalType": "uint256",
          "name": "qTCMinted",
          "type": "uint256"
        },
        {
          "internalType": "uint256",
          "name": "qFeeToken",
          "type": "uint256"
        }
      ],
      "stateMutability": "payable",
      "type": "function"
    },
    {
      "inputs": [],
      "name": "swapTPforTCFee",
      "outputs": [
        {
          "internalType": "uint256",
          "name": "",
          "type": "uint256"
        }
      ],
      "stateMutability": "view",
      "type": "function"
    },
    {
      "inputs": [
        {
          "internalType": "uint256",
          "name": "i_",
          "type": "uint256"
        },
        {
          "internalType": "uint256",
          "name": "qTP_",
          "type": "uint256"
        },
        {
          "internalType": "uint256",
          "name": "qTCmin_",
          "type": "uint256"
        },
        {
          "internalType": "address",
          "name": "vendor_",
          "type": "address"
        }
      ],
      "name": "swapTPforTCViaVendor",
      "outputs": [
        {
          "internalType": "uint256",
          "name": "qACFee",
          "type": "uint256"
        },
        {
          "internalType": "uint256",
          "name": "qTCMinted",
          "type": "uint256"
        },
        {
          "internalType": "uint256",
          "name": "qFeeToken",
          "type": "uint256"
        }
      ],
      "stateMutability": "payable",
      "type": "function"
    },
    {
      "inputs": [
        {
          "internalType": "uint256",
          "name": "i_",
          "type": "uint256"
        },
        {
          "internalType": "uint256",
          "name": "qTP_",
          "type": "uint256"
        },
        {
          "internalType": "uint256",
          "name": "qTCmin_",
          "type": "uint256"
        },
        {
          "internalType": "address",
          "name": "recipient_",
          "type": "address"
        }
      ],
      "name": "swapTPforTCto",
      "outputs": [
        {
          "internalType": "uint256",
          "name": "qACFee",
          "type": "uint256"
        },
        {
          "internalType": "uint256",
          "name": "qTCMinted",
          "type": "uint256"
        },
        {
          "internalType": "uint256",
          "name": "qFeeToken",
          "type": "uint256"
        }
      ],
      "stateMutability": "payable",
      "type": "function"
    },
    {
      "inputs": [
        {
          "internalType": "uint256",
          "name": "i_",
          "type": "uint256"
        },
        {
          "internalType": "uint256",
          "name": "qTP_",
          "type": "uint256"
        },
        {
          "internalType": "uint256",
          "name": "qTCmin_",
          "type": "uint256"
        },
        {
          "internalType": "address",
          "name": "recipient_",
          "type": "address"
        },
        {
          "internalType": "address",
          "name": "vendor_",
          "type": "address"
        }
      ],
      "name": "swapTPforTCtoViaVendor",
      "outputs": [
        {
          "internalType": "uint256",
          "name": "qACFee",
          "type": "uint256"
        },
        {
          "internalType": "uint256",
          "name": "qTCMinted",
          "type": "uint256"
        },
        {
          "internalType": "uint256",
          "name": "qFeeToken",
          "type": "uint256"
        }
      ],
      "stateMutability": "payable",
      "type": "function"
    },
    {
      "inputs": [
        {
          "internalType": "uint256",
          "name": "iFrom_",
          "type": "uint256"
        },
        {
          "internalType": "uint256",
          "name": "iTo_",
          "type": "uint256"
        },
        {
          "internalType": "uint256",
          "name": "qTP_",
          "type": "uint256"
        },
        {
          "internalType": "uint256",
          "name": "qTPmin_",
          "type": "uint256"
        }
      ],
      "name": "swapTPforTP",
      "outputs": [
        {
          "internalType": "uint256",
          "name": "qACFee",
          "type": "uint256"
        },
        {
          "internalType": "uint256",
          "name": "qTPMinted",
          "type": "uint256"
        },
        {
          "internalType": "uint256",
          "name": "qFeeToken",
          "type": "uint256"
        }
      ],
      "stateMutability": "payable",
      "type": "function"
    },
    {
      "inputs": [],
      "name": "swapTPforTPFee",
      "outputs": [
        {
          "internalType": "uint256",
          "name": "",
          "type": "uint256"
        }
      ],
      "stateMutability": "view",
      "type": "function"
    },
    {
      "inputs": [
        {
          "internalType": "uint256",
          "name": "iFrom_",
          "type": "uint256"
        },
        {
          "internalType": "uint256",
          "name": "iTo_",
          "type": "uint256"
        },
        {
          "internalType": "uint256",
          "name": "qTP_",
          "type": "uint256"
        },
        {
          "internalType": "uint256",
          "name": "qTPmin_",
          "type": "uint256"
        },
        {
          "internalType": "address",
          "name": "vendor_",
          "type": "address"
        }
      ],
      "name": "swapTPforTPViaVendor",
      "outputs": [
        {
          "internalType": "uint256",
          "name": "qACFee",
          "type": "uint256"
        },
        {
          "internalType": "uint256",
          "name": "qTPMinted",
          "type": "uint256"
        },
        {
          "internalType": "uint256",
          "name": "qFeeToken",
          "type": "uint256"
        }
      ],
      "stateMutability": "payable",
      "type": "function"
    },
    {
      "inputs": [
        {
          "internalType": "uint256",
          "name": "iFrom_",
          "type": "uint256"
        },
        {
          "internalType": "uint256",
          "name": "iTo_",
          "type": "uint256"
        },
        {
          "internalType": "uint256",
          "name": "qTP_",
          "type": "uint256"
        },
        {
          "internalType": "uint256",
          "name": "qTPmin_",
          "type": "uint256"
        },
        {
          "internalType": "address",
          "name": "recipient_",
          "type": "address"
        }
      ],
      "name": "swapTPforTPto",
      "outputs": [
        {
          "internalType": "uint256",
          "name": "qACFee",
          "type": "uint256"
        },
        {
          "internalType": "uint256",
          "name": "qTPMinted",
          "type": "uint256"
        },
        {
          "internalType": "uint256",
          "name": "qFeeToken",
          "type": "uint256"
        }
      ],
      "stateMutability": "payable",
      "type": "function"
    },
    {
      "inputs": [
        {
          "internalType": "uint256",
          "name": "iFrom_",
          "type": "uint256"
        },
        {
          "internalType": "uint256",
          "name": "iTo_",
          "type": "uint256"
        },
        {
          "internalType": "uint256",
          "name": "qTP_",
          "type": "uint256"
        },
        {
          "internalType": "uint256",
          "name": "qTPmin_",
          "type": "uint256"
        },
        {
          "internalType": "address",
          "name": "recipient_",
          "type": "address"
        },
        {
          "internalType": "address",
          "name": "vendor_",
          "type": "address"
        }
      ],
      "name": "swapTPforTPtoViaVendor",
      "outputs": [
        {
          "internalType": "uint256",
          "name": "qACFee",
          "type": "uint256"
        },
        {
          "internalType": "uint256",
          "name": "qTPMinted",
          "type": "uint256"
        },
        {
          "internalType": "uint256",
          "name": "qFeeToken",
          "type": "uint256"
        }
      ],
      "stateMutability": "payable",
      "type": "function"
    },
    {
      "inputs": [],
      "name": "tcMintFee",
      "outputs": [
        {
          "internalType": "uint256",
          "name": "",
          "type": "uint256"
        }
      ],
      "stateMutability": "view",
      "type": "function"
    },
    {
      "inputs": [],
      "name": "tcRedeemFee",
      "outputs": [
        {
          "internalType": "uint256",
          "name": "",
          "type": "uint256"
        }
      ],
      "stateMutability": "view",
      "type": "function"
    },
    {
      "inputs": [],
      "name": "tcToken",
      "outputs": [
        {
          "internalType": "contract MocTC",
          "name": "",
          "type": "address"
        }
      ],
      "stateMutability": "view",
      "type": "function"
    },
    {
      "inputs": [
        {
          "internalType": "uint256",
          "name": "",
          "type": "uint256"
        }
      ],
      "name": "tpCtarg",
      "outputs": [
        {
          "internalType": "uint256",
          "name": "",
          "type": "uint256"
        }
      ],
      "stateMutability": "view",
      "type": "function"
    },
    {
      "inputs": [
        {
          "internalType": "uint256",
          "name": "",
          "type": "uint256"
        }
      ],
      "name": "tpEma",
      "outputs": [
        {
          "internalType": "uint256",
          "name": "ema",
          "type": "uint256"
        },
        {
          "internalType": "uint256",
          "name": "sf",
          "type": "uint256"
        }
      ],
      "stateMutability": "view",
      "type": "function"
    },
    {
      "inputs": [
        {
          "internalType": "uint256",
          "name": "",
          "type": "uint256"
        }
      ],
      "name": "tpMintFee",
      "outputs": [
        {
          "internalType": "uint256",
          "name": "",
          "type": "uint256"
        }
      ],
      "stateMutability": "view",
      "type": "function"
    },
    {
      "inputs": [
        {
          "internalType": "uint256",
          "name": "",
          "type": "uint256"
        }
      ],
      "name": "tpRedeemFee",
      "outputs": [
        {
          "internalType": "uint256",
          "name": "",
          "type": "uint256"
        }
      ],
      "stateMutability": "view",
      "type": "function"
    },
    {
      "inputs": [
        {
          "internalType": "uint256",
          "name": "",
          "type": "uint256"
        }
      ],
      "name": "tpTokens",
      "outputs": [
        {
          "internalType": "contract IMocRC20",
          "name": "",
          "type": "address"
        }
      ],
      "stateMutability": "view",
      "type": "function"
    },
    {
      "inputs": [],
      "name": "unpause",
      "outputs": [],
      "stateMutability": "nonpayable",
      "type": "function"
    },
    {
      "inputs": [],
      "name": "updateEmas",
      "outputs": [],
      "stateMutability": "nonpayable",
      "type": "function"
    },
    {
      "inputs": [
        {
          "internalType": "address",
          "name": "newImplementation",
          "type": "address"
        }
      ],
      "name": "upgradeTo",
      "outputs": [],
      "stateMutability": "nonpayable",
      "type": "function"
    },
    {
      "inputs": [
        {
          "internalType": "address",
          "name": "newImplementation",
          "type": "address"
        },
        {
          "internalType": "bytes",
          "name": "data",
          "type": "bytes"
        }
      ],
      "name": "upgradeToAndCall",
      "outputs": [],
      "stateMutability": "payable",
      "type": "function"
    },
    {
      "stateMutability": "payable",
      "type": "receive"
    }
  ],
  "bytecode": "0x60a08060405234620000e157306080526000549060ff8260081c166200008f575060ff8082161062000053575b604051615b379081620000e782396080518181816130dd0152818161327f01526135920152f35b60ff90811916176000557f7f26b83ff96e1f2b6a682f133852f6798a09c465da95921460cefb3847402498602060405160ff8152a1386200002c565b62461bcd60e51b815260206004820152602760248201527f496e697469616c697a61626c653a20636f6e747261637420697320696e697469604482015266616c697a696e6760c81b6064820152608490fd5b600080fdfe6080604052600436101561002b575b361561001957600080fd5b61016361002734825461480d565b9055005b600060e08135811c90816301dde6ef1461417257816301f1b6841461412a57816304856e41146140c95781630ad8c2341461405f5781630aed4f8814613ffe5781630be9482d14613f915781630c340a2414613f685781630c36d89714613f495781630d6ac46314613f015781630df12a8b14613dfa5781630e0a8fd214613dd45781630f1e5e2b14613d8c5781630f60f39614613cb3578163102fefac14613c4957816317574bc514613aab57816317df0ab8146139e25781631867e2f5146139c35781631f79da55146139595781631fb0dda0146139385781631fe6a7ad146138fc5781632069f753146138d657816323b98cde146138af57816327eab2a1146138675781632a20d57d146138485781632c43bd3b146138225781632d88af4a146137c95781632ded50f0146137aa57816331f64ec21461370d578163333431fd146136ee57816333421c38146135f95781633659cfe6146135605781633bc4ac0a1461353a5781633dbc50a9146134e65781633f4ba83a146134695781634017936a14613424578163407f0e3414613405578163471a80e3146133a05781634b746001146133535781634d977e78146133345781634e1f907a1461330a5781634f0f27ee146132eb5781634f1ef286146131f75781635210570c146131cf5781635241271c146131a057816352d1902d146130ca578163543aeb48146130a457816354a73c62146130425781635c616a7314612d985781635c975abb14612d725781635d65d04514612d3e5781635e1e892814612cda57816360009e0b14612cb0578163647846a514612c86578163662013f414612c625781636827435714612c375781636b5488df14612c185781637071346814612bf257816371820f1214612b8b5781637554fffd14612b6c5781637750ba0c14612b4657816379f9a91c14612b275781637a193c3114612b085781637a4ff1d914612ae25781637a727fe814612ac35781637ad2819c14612a525781637af5758c14612a2c5781637c287999146129c25781637cba23831461299c5781637d8e03141461296d5781637dc4e77f1461282a5781637f01c71514612800578163826fcd58146127df57816382a5792c146127055781638456cb591461266c5781638cfa42411461264d578163904aa85b1461262e5781639195c85b1461260d57816391f388d8146125a1578163979d9a88146121335781639839ee8514611f465781639853c35a14611f1c5781639abb14c914611e525781639ad6659d14611e1d5781639bdd7cce14611be85781639cabfc0014611b9b5781639fd0506d14611b6e578163a8e9ac3014611b4c578163ac4fc1a814611a1c578163aea038dc146119fd578163b3903b39146119c6578163b7aef83714611868578163bad25a21146116f0578163bb4872de146116cd578163be22b4e1146115c4578163becaca6b1461159e578163c00f538d14611578578163c039cc6914611532578163c6e06d8914611349578163c84353c914611323578163cf351c1d146112db578163d1a0faa0146112bd578163d8233ecc1461125d578163db7960721461121e578163de08160f146111e1578163de8d520a146111b0578163e401294514611020578163e4c0aaf414610fd9578163e6a683e014610f91578163e6b1627c14610f4e578163e7c2597814610f2a578163e8859a1514610f0f578163ec62967914610ce2578163f13f405414610cb8578163f26114aa14610c4f578163f280877814610c29578163f30b561414610c0a578163f375cfba14610beb578163f5319cc81461096157508063fa6e83bd14610942578063fa79589e146108f0578063fb3bfcea14610779578063fcf207d4146105a45763fda70f8b14610583575061000e565b346105a157806003193601126105a157602061016e54604051908152f35b80fd5b6106a06105b23660046142b4565b9391604093919351916105c660c0846142f6565b825260208201908152604082019434865260608301338152608084019560018060a01b0380911687528060a0860193168352610600614d05565b610608615ad0565b6106106159ae565b61066561064d61061e6158f2565b919061064161062e8a5185614830565b519361063b858c51615199565b82614ddb565b91848b518b51906151f0565b610660670de0b6b3a76400008751614957565b61496a565b9361066e614cb6565b506106958284511686848751166106888a51610176614198565b90549060031b1c92614e59565b96918299919961480d565b988a51808b1161075b575089156107495760409a61072a8594610730948d94878d8d61073d9f838e9151915116907fb1c19484081f58b25de95eb3695caea3c2167249920a6439ec0253054d343e738b868851169461071b8b5191805190602081015160406060908301519201519260405196879687614cdd565b0390a451935191511692615100565b51614a15565b9251169251169180615433565b82519182526020820152f35b60405163f3e39b5d60e01b8152600490fd5b6044908b60405191630b63f1a760e01b835260048301526024820152fd5b5060603660031901126105a1576001600160a01b03602435818116908190036108eb576044358281168091036108eb5761084b906040516107bb60a0826142f6565b600435815260208101913483526040820133815260608301958652608083019182526107e5614d05565b6107ed615ad0565b670de0b6b3a764000061081f610819610810610807614c1c565b61017b54614ddb565b87519291614e1e565b90614957565b0496610829614cb6565b5061084081835116898386511661016e5492614e59565b95918a98919861480d565b978651808a116108cd57508815610749578861073d9761072a6107309360409d8780978c828c51167f73ef11a21cabab55ca448e6e2ae4b60bda75ed8109e2496084c92dc17b8334db8985885116936108c0865191805190602081015160406060908301519201519260405196879687614cdd565b0390a35192511691614d27565b6044908a60405191630b63f1a760e01b835260048301526024820152fd5b600080fd5b50346105a15760203660031901126105a157602061093a61092c6004356109156158f2565b906109346109238484614830565b51948593614844565b95909461584a565b9061522b565b604051908152f35b50346105a157806003193601126105a157602061016c54604051908152f35b905061096e3660046141da565b9361097f60409492945196876142f6565b8552602085015260408401523460608401523360808401526001600160a01b0390811660a08401521660c08201526109b5614d05565b6109bd615ad0565b6109c56159ae565b6109cd6158f2565b9290610a1f6109f36109e0855187614830565b51956109ed878751615199565b83614ddb565b90610a0482828660208a015161576f565b6020860151670de0b6b3a76400009384916108198585614e1e565b0493841561074957610a6993610a5f610a558a610a5060208c015161081988610a4b8b61016354614a15565b614a15565b614957565b610166549061496a565b04978888516151f0565b6040830151808510610bcd5750610aa590610a82614cb6565b50608084015160c08501516101725492916001600160a01b039182169116614e59565b919390926060820151808611610bae57509181610b61610baa9594610b8d945160018060a01b0360808501511660018060a01b0360a086015116917ff4287b96e269f789f166db491b07456566f468352771e466ce088e98d6007a0c8c6020880151610b298a518b6020810151606060408301519201519260405196879687614cdd565b0390a4610b4860208401518260018060a01b03608087015116916153c8565b825160a08401516001600160a01b031691908a90615100565b610b6f866060830151614a15565b608082015160c0909201516001600160a01b03908116921680615433565b604051938493846040919493926060820195825260208201520152565b0390f35b604490845160405191630b63f1a760e01b835260048301526024820152fd5b604490856040519163272e3f5960e21b835260048301526024820152fd5b82346105a157806003193601126105a157602061017354604051908152f35b82346105a157806003193601126105a157602061016354604051908152f35b82346105a15760203660031901126105a157610c43615a42565b60043561016e55604051f35b905034610cb4573660031901126105a157610c68615a42565b6040516379308a5560e11b6020820152610cae90610c9c81610c8e6004602483016157ac565b03601f1981018352826142f6565b61021c546001600160a01b03166152a1565b50604051f35b5080fd5b82346105a157806003193601126105a157610162546040516001600160a01b039091168152602090f35b82610cee3660046142b4565b90929160405192610d0060c0856142f6565b83526020830190815260408301923484526060810192338452608082019360018060a01b0380971685528660a0840192168252610d3b614d05565b610d43615ad0565b610d4b6159ae565b610d536158f2565b979098610d6185518a614830565b5199610d6e8b8751615199565b610d7b8a61017c54614ddb565b5050610d91610d8b88519b614844565b90614e1e565b90670de0b6b3a763ffff198101908111610efb5790610de38c610660610dc58e9f610e149d9e9f610de99761066091614957565b93610ddd670de0b6b3a7640000916106608388614957565b9f614957565b9061480d565b97610df2614cb6565b50610e09838551168a858851166101745492614e59565b97918b9a919a61480d565b9a8051808d11610edd57508b156107495761072a8986958f958f95610baa9f90610ed1610b8d9f998f936107309b8f87908f977f3d9b2786930e9c1e492d52af3cc38bd2ffe9405d82b4997053a26a8956056200908f610ec488918c808d51975116975116975193805160208201519060606040840151930151936040519788978893909796959260c0959260e08601998652602086015260408501526060840152608083015260a08201520152565b0390a48486511691614d27565b51935191511692615100565b6044908d60405191630b63f1a760e01b835260048301526024820152fd5b634e487b7160e01b83526011600452602483fd5b82346105a157806003193601126105a157602061093a61580d565b82346105a157806003193601126105a157602060ff61017d54166040519015158152f35b82346105a15760203660031901126105a157600435906101b49081548310156105a1576040610f7d84846142da565b506001815491015482519182526020820152f35b82346105a15760203660031901126105a1576004356001600160a01b038116908190036108eb57610fc0615a42565b61021c80546001600160a01b0319169091179055604051f35b82346105a15760203660031901126105a1576004356001600160a01b03811690819003610cb457611008615a42565b6001600160601b0360a01b6097541617609755604051f35b82346105a15760603660031901126108eb576044356001600160a01b0381811692918390036108eb576040519261105860a0856142f6565b60043584526020840192602435845260408501923384526060860192835260808601918252611085614d05565b61108d615ad0565b6110956159ae565b670de0b6b3a76400006110cf6110bb610819896110c76110b36158f2565b819591614ddb565b9290809584925161576f565b8a5192614e1e565b0493841561074957611105946110e3614cb6565b506110fa83835116828587511661016f5492614e59565b999183989198614a15565b97518089106111925750928080846111848c98958a9860409e61073d9c8f9a8b88807f96956e9e47738119037532fcf68a81b25d418eaf754281e005f11fa2d33bfffb93511693511693611175865191805190602081015160406060908301519201519260405196879687614cdd565b0390a3519084845116916153c8565b511694511691511692615433565b60449089604051916354cde31360e01b835260048301526024820152fd5b82346105a157806003193601126105a157602061093a6111d66111d1614c1c565b614844565b905061016354614a15565b82346105a15760203660031901126105a157600435906101769081548310156105a15760206112108484614198565b90546040519160031b1c8152f35b905034610cb4573660031901126105a157611237615a42565b604051636dbcb03960e11b6020820152610cae90610c9c81610c8e6004602483016157ac565b8260403660031901126105a1576001600160a01b03602435818116908190036108eb5761084b60405161129160a0826142f6565b6004358152602081019034825260408101933385526060820194338652608083019182526107e5614d05565b82346105a157806003193601126105a1576112d66159ae565b604051f35b82346105a15760203660031901126105a1576004356001600160a01b038116908190036108eb5761130a615a42565b61016180546001600160a01b0319169091179055604051f35b82346105a15760203660031901126105a15761133d615a42565b60043561017e55604051f35b905061135636600461420f565b91939261136960409692965194856142f6565b835260208301938452604083019485526060830191348352608084019033825260a085019333855260c086019360018060a01b0380931685526113aa614d05565b6113b2615ad0565b8761141f610a50610660836114198c6113e36113cc614c1c565b6108076113da845183614830565b51809451615199565b9590610a4b61140f61140385610660670de0b6b3a7640000809a51614957565b9a516101665490614957565b9761016354614a15565b92614957565b9951808b10801561152a575b61150c57506114509061143c614cb6565b508486511690858851166101715492614e59565b97919990988451808c116114ed5750869461072a8d86898f9597610baa9f9e9c61073098610b8d9f9d9b8f92858d6114e595829f5183855116907fb8b8e75e42a3102026137da20c1d52f5e60a1b25d6e77ad232404575753e3fe08d868c5116946114d68b51918051906020810151606060408301519201519260405196879687614cdd565b0390a451935191511692615334565b511691614d27565b6044908a5160405191630b63f1a760e01b835260048301526024820152fd5b6044908b6040519163f577bef560e01b835260048301526024820152fd5b508a1561142b565b82346105a157806003193601126105a157602061093a611571610660670de0b6b3a76400006114196115656111d1614c1c565b61016395919554614a15565b9384614a15565b82346105a15760203660031901126105a157611592615a42565b60043561016f55604051f35b82346105a15760203660031901126105a1576115b8615a42565b60043561016b55604051f35b90506115d136600461420f565b919094926115e260405195866142f6565b8452602084015260408301938452346060840152336080840181905260a08401526001600160a01b031660c0830152611619614d05565b611621615ad0565b6116296159ae565b6116316158f2565b93611682611656611643865188614830565b5196611650888851615199565b84614ddb565b9061166782828760208b015161576f565b6020870151670de0b6b3a76400009384916108198585614e1e565b04948515610749576116b8936116ae610a558b610a5060208d015161081988610a4b8b61016354614a15565b04988989516151f0565b51808510610bcd5750610aa590610a82614cb6565b82346105a157806003193601126105a157602060ff60ca54166040519015158152f35b82346105a1576117c26117043660046141da565b9060409593929495519561171960c0886142f6565b8652602086019283526040860194855260608601338152608087019360018060a01b0380931685528260a0890194168452611752614d05565b61175a615ad0565b611795611765614c1c565b6117806117738b5183614830565b5191610807838d51615199565b5050610660670de0b6b3a76400008451614957565b61179d614cb6565b506117b78484511682868851166106888d51610177614198565b9a9183999199614a15565b9882156107495751808a1061184a5750938089946111848c989583958960409f8d61073d9e9c517f94623cc0bdff77f15a945c5f7c85f92e30baeee629058db590ceeba3755ad3be8d8a808b51169451169461183a895191805190602081015160406060908301519201519260405196879687614cdd565b0390a45191518585511692615334565b6044908a604051916354cde31360e01b835260048301526024820152fd5b905061194c611878366004614235565b94909192936040519061188d610100836142f6565b8152602081019485526040810193845260608101928352608081019534875260a082019333855260c08301903382528984019660018060a01b03988980951689526118d6614d05565b6118de615ad0565b6118e6614cb6565b5060405195631c280ce160e01b6020880152516024870152516044860152516064850152516084840152875160a48401528185511660c4840152511660e48201528484511661010490818301528152611941610124826142f6565b8461021c54166152a1565b92838051810103948686126119c2576020850151966040860151986080606088015198605f1901126105a15750918061073089610baa99989694610b8d98966040519861199a60808b6142f6565b60808101518a5260a081015160208b015260c081015160408b01520151606089015251614a15565b8780fd5b8260403660031901126105a1576001600160a01b039060243582811691908290036108eb5761084b906040516107bb60a0826142f6565b82346105a157806003193601126105a157602061016f54604051908152f35b8260403660031901126108eb5760405190611a3860c0836142f6565b60043582526020820190602435825260408301903482526060840192338452608085019433865260a08101838152611a6e614d05565b611a76615ad0565b611a7e6159ae565b611a866158f2565b969097611a94845189614830565b5198611aa18a8651615199565b611aae8961017c54614ddb565b5050611abe610d8b87519a614844565b90670de0b6b3a763ffff198101908111611b385790610de38b610660611af28d9e610660610e149d9e9f97611b1098614957565b93611b0a670de0b6b3a7640000916106608388614957565b9e614957565b96611b19614cb6565b5060018060a01b0391610e09838551168a858851166101745492614e59565b634e487b7160e01b88526011600452602488fd5b82346105a157806003193601126105a15760206101b554431015604051908152f35b82346105a157806003193601126105a15760ca5460405160109190911c6001600160a01b03168152602090f35b82346105a15760203660031901126105a1576004356001600160a01b038116908190036108eb57604082819281526101686020522060ff6001825492015416825191825215156020820152f35b905034610cb45790611c8191611bff366004614235565b9293611c1160409793975196876142f6565b855260208501938452604085019586526060850152608084019233845260a085019060018060a01b03809416825260c08601838152611c4e614d05565b611c56615ad0565b611cab87610a50611c95611c8a611c6b614c1c565b611c76855182614830565b519e8f809651615199565b61017c54614ddb565b92819e918851614957565b670de0b6b3a7640000938491610166549061496a565b049a51808c11611dff575091611ce58b611cdf611d179b9c9d9e9461066085611cd9611cec998c5199614e1e565b94614957565b93614957565b049061480d565b94611cf5614cb6565b50611d0c8189511687838551166101735492614e59565b969188999199614a15565b996060810151808c10611de157508a1561074957896111848d8594848f99610baa9f9d611dd591610b8d9f8f8f90918f92897f754f66f66f0afcd87e3edd11c0796fef32599efe490000fdb0f014e3ad9560fa918f9e8f80611dc6925196511696511696885192805160208201519060606040840151930151936040519788978893909796959260c0959260e08601998652602086015260408501526060840152608083015260a08201520152565b0390a4519088885116916153c8565b51918585511692615334565b6044908c604051916354cde31360e01b835260048301526024820152fd5b6044908c60405191637a031da360e11b835260048301526024820152fd5b82346105a157806003193601126105a1576020611e44611e3e6111d1614c1c565b906149eb565b61017c541015604051908152f35b82346105a15760403660031901126108eb5760405190611e7360a0836142f6565b6004358252602082019060243582526040830190338252606084019033825260808501908152611ea1614d05565b611ea9615ad0565b611eb16159ae565b670de0b6b3a7640000611eea611ed6610819611ee2611ece6158f2565b819491614ddb565b81819392958d5161576f565b895192614e1e565b0480156107495761110593611efd614cb6565b5060018060a01b03916110fa83835116828587511661016f5492614e59565b82346105a157806003193601126105a157610178546040516001600160a01b039091168152602090f35b8260603660031901126108eb5760405191611f6190836142f6565b600435825260208201602435815260408301916044358352606084013481526080850133815260a086019433865260c0870192848452611f9f614d05565b611fa7615ad0565b611faf6159ae565b611fb76158f2565b9790928951611fc6908a614830565b5198898b5190611fd591615199565b611fdf9085614ddb565b8581838c5192611fee9361576f565b895191670de0b6b3a764000080936120068484614e1e565b61200f91614957565b04968715610749578c612046948f9e610a558f91610a5061203c935161081989610a4b8c61016354614a15565b049e8f90516151f0565b51808a106121155750612057614cb6565b5061207660018060a01b03938486511690858851166101725492614e59565b97919990988451808c116114ed5750869461072a85858f8f959a610baa9f9e9c9761210b610b8d9f9d998f9b846107309c819f9e829f87517ff4287b96e269f789f166db491b07456566f468352771e466ce088e98d6007a0c8b86808a5116945116946120fe8751918051906020810151606060408301519201519260405196879687614cdd565b0390a451925116916153c8565b5193511692615100565b6044908a6040519163272e3f5960e21b835260048301526024820152fd5b82346105a1576103003660031901126105a157805460ff8160081c161590818092612594575b801561257d575b156125215760ff198116600117835581612510575b5081549061218860ff8360081c16614c56565b6102a4356001600160a01b038116908190036108eb5761021c80546001600160a01b03191690911790556001600160a01b0361026435908116908190036108eb57610284356001600160a01b03811681036108eb576001916121ef60ff8660081c16614c56565b6121fe60ff8660081c16614c56565b61220d60ff8660081c16614c56565b61221c60ff8660081c16614c56565b6001600160601b0360a01b609754161760975561223e60ff8560081c16614c56565b60ca5490620100008360b01b039060101b169061ff018360b01b031916171760ca5561226f60ff8360081c16614c56565b670de0b6b3a764000060a435106124fe5761228b60e435615af1565b61229761010435615af1565b6122a361012435615af1565b6122af61014435615af1565b6122bb61016435615af1565b6122c761018435615af1565b6122d36101a435615af1565b6122df6101c435615af1565b6122eb6101e435615af1565b6123036122fe610224356102043561480d565b615af1565b6004356001600160a01b03811681036108eb5761016180546001600160a01b0319166001600160a01b0392831617905560243590811681036108eb5761016280546001600160a01b0319166001600160a01b0392831617905560443590811681036108eb5761016580546001600160a01b0319166001600160a01b0392831617905560643590811681036108eb5761017880546001600160a01b0319166001600160a01b0392831617905560843590811681036108eb576101799060018060a01b03166001600160601b0360a01b82541617905560a43561017b5560c43561017c5560e43561016d556101043561016e556101243561016f556101443561017055610164356101715561018435610172556101a435610173556101c435610174556101e435610175556102043561016b556102243561016c5561244e610244358061017e554361480d565b61017f5561017d61ffff1981541690556102c43561247160ff8460081c16614c56565b80156124fe576101b681905543016101b5556102e4356001600160a01b038116908190036108eb576124a860ff8460081c16614c56565b6101e980546001600160a01b03191690911790556124c65750604051f35b61ff00191681557f7f26b83ff96e1f2b6a682f133852f6798a09c465da95921460cefb3847402498602060405160018152a181610cae565b604051632a9ffab760e21b8152600490fd5b61ffff191661010117825582612175565b60405162461bcd60e51b815260206004820152602e60248201527f496e697469616c697a61626c653a20636f6e747261637420697320616c72656160448201526d191e481a5b9a5d1a585b1a5e995960921b6064820152608490fd5b50303b1580156121605750600160ff821614612160565b50600160ff821610612159565b8260603660031901126108eb576001600160a01b039060443582811691908290036108eb576040516106a0916125d860c0836142f6565b600435825260208201906024358252604083019534875260608401903382526080850196875260a08501928352610600614d05565b82346105a15760203660031901126105a157602061093a33336004356156b7565b82346105a15760203660031901126105a157602061093a600435614b46565b82346105a157806003193601126105a157602061017c54604051908152f35b82346105a157806003193601126105a157612685615ad0565b60ca54601081901c6001600160a01b031633036126f35760ff8116156126e1576101009061ff0019161760ca557f62e78cea01bee320cd4e420270b5ea74000d11b0c9f74754ebdbfc544b05a2586020604051338152a1604051f35b60405163866099c360e01b8152600490fd5b604051631d77d47760e21b8152600490fd5b8260403660031901126108eb576040519061272160c0836142f6565b60043582526106a06020830192602435845260408101933485526060820193338552608083019433865260a0840191825261275a614d05565b612762615ad0565b61276a6159ae565b6127b46127a16127786158f2565b9190612795612788895185614830565b519361063b858b51615199565b91848a518a51906151f0565b610660670de0b6b3a76400008651614957565b926127bd614cb6565b5060018060a01b03906106958284511686848751166106888a51610176614198565b82346105a157806003193601126105a157602061093a611e3e6111d1614c1c565b82346105a157806003193601126105a1576101e9546040516001600160a01b039091168152602090f35b8261283636600461420f565b9391926040519561284790876142f6565b8552602085019283526040850152606084013481526080850133815260a0860194600160a01b60019003809116865260c0870192848452612886614d05565b61288e615ad0565b6128966159ae565b61289e6158f2565b979089516128ac908a614830565b5198898b51906128bb91615199565b6128c59082614ddb565b8281838c51926128d49361576f565b895191670de0b6b3a764000080936128ec8484614e1e565b6128f591614957565b04938415610749578c612922948f9e610a558f91610a5061203c935161081989610a4b8c61016354614a15565b6040890151808b1061294f57506120769061293b614cb6565b508486511690858851166101725492614e59565b6044908b6040519163272e3f5960e21b835260048301526024820152fd5b82346105a15760203660031901126105a1576004359061017a9081548310156105a15760206112108484614198565b82346105a15760203660031901126105a1576129b6615a42565b60043561017b55604051f35b905034610cb45790611c81916129d9366004614235565b92936129eb60409793975196876142f6565b855260208501938452604085019586526060850152336080850181815260a086019182526001600160a01b0393841660c08701908152909490611c4e614d05565b82346105a15760203660031901126105a157612a46615a42565b60043561017255604051f35b905061194c612a62366004614282565b9394906040969293965191612a79610100846142f6565b8252602082019586526040820196875260608201938452608082019634885260a083019433865260c084019160018060a01b0398898095168452848c8701991689526118d6614d05565b82346105a157806003193601126105a15760206101b654604051908152f35b82346105a15760203660031901126105a157612afc615a42565b60043561017355604051f35b82346105a157806003193601126105a157602061016654604051908152f35b82346105a157806003193601126105a157602061017454604051908152f35b82346105a15760203660031901126105a157612b60615a42565b60043561016d55604051f35b82346105a157806003193601126105a157602061016b54604051908152f35b8260603660031901126108eb576001600160a01b03604435818116908190036108eb5760405190612bbd60c0836142f6565b600435825260208201602435815260408301923484526060810192338452608082019333855260a08301918252610d3b614d05565b82346105a15760203660031901126105a157612c0c615a42565b60043561017055604051f35b82346105a157806003193601126105a157602061017b54604051908152f35b82346105a157806003193601126105a157612c50615a42565b600160ff1960ca54161760ca55604051f35b82346105a157806003193601126105a1576020612c7d6158f2565b50604051908152f35b82346105a157806003193601126105a157610161546040516001600160a01b039091168152602090f35b82346105a157806003193601126105a157610165546040516001600160a01b039091168152602090f35b82346105a1576117c2612cee36600461420f565b9092939160405194612d0160c0876142f6565b855260208501908152604085019384523360608601818152608087019182526001600160a01b0393841660a0880190815291939192611752614d05565b82346105a15760403660031901126105a1576024356001600160a01b03811681036108eb5761093a602091336004356156b7565b82346105a157806003193601126105a157602060ff60ca5460081c166040519015158152f35b82346105a157806003193601126105a157612db1615ad0565b61017f8054431061303057612dc961017e544361480d565b90557fd3c59bda47e141a8ec5a33d241b7f71b86e30d359f83a9227d912858b60404fc81604051a18061016954612dff81614a3a565b90835b818110612f6357505081612e7b575b604051916040830190835260209060408285015282518091528160608501930191855b828110612e6757867fae5116a8119d08673a0f1dfa7546b95da4bd54bb17feda7c61130ac7859152f687870388a1604051f35b835185529381019392810192600101612e34565b90612e93670de0b6b3a76400009161016b5490614957565b0490610163612ea3838254614a15565b90556101785461012f805490916001600160a01b031690600214612f1e576002825583612ed5575b5060019055612e11565b8015612f0c578480809286604051915af1612eee614701565b5015612efa5784612ecb565b6040516312171d8360e31b8152600490fd5b60405163e6c4247b60e01b8152600490fd5b60405162461bcd60e51b815260206004820152601f60248201527f5265656e7472616e637947756172643a207265656e7472616e742063616c6c006044820152606490fd5b612f6c81614b46565b612f768183615199565b8561018091612f858484614198565b90549060031b1c90828213612fa1575b50505050600101612e02565b84612fe583600197969a612fce612fd461300497612feb97670de0b6b3a764000093849161016c54614957565b04614957565b04612fdf858d614830565b5261480d565b98614198565b819391549060031b600019811b9283911b169119161790565b90556130276130138286614830565b5187848060a01b0361017954169184615100565b90858780612f95565b60405163101b685960e01b8152600490fd5b82346105a1576117c29061305736600461420f565b604051959194919361306a60c0886142f6565b8652602086019283526040860194855233606087019081526001600160a01b039182166080880190815260a0880193845293611752614d05565b82346105a15760203660031901126105a1576130be615a42565b60043561017555604051f35b82346105a157806003193601126105a1577f00000000000000000000000000000000000000000000000000000000000000006001600160a01b031630036131355760206040517f360894a13ba1a3210667c828492db98dca3e2076cc3735a920a3ca505d382bbc8152f35b60405162461bcd60e51b815260206004820152603860248201527f555550535570677261646561626c653a206d757374206e6f742062652063616c60448201527f6c6564207468726f7567682064656c656761746563616c6c00000000000000006064820152608490fd5b82346105a15760203660031901126105a157600435906101779081548310156105a15760206112108484614198565b82346105a157806003193601126105a1576131e8615a42565b60ff1960ca541660ca55604051f35b8260403660031901126105a1576001600160a01b0360043581811681036108eb5782916024359167ffffffffffffffff83116132e657366023840112156132e65782600401356132468161432e565b9261325460405194856142f6565b81845236602483870101116132e2576112d6956020836132d5946024600199018389013786010152807f000000000000000000000000000000000000000000000000000000000000000016906132ac8230141561434a565b7f360894a13ba1a3210667c828492db98dca3e2076cc3735a920a3ca505d382bbc5416146143ab565b6132dd615a42565b61440c565b8580fd5b505050fd5b82346105a157806003193601126105a157602061016d54604051908152f35b82346105a157806003193601126105a157610179546040516001600160a01b039091168152602090f35b82346105a157806003193601126105a157602061017e54604051908152f35b82346105a15760203660031901126105a157600435906101699081548310156105a157604061338284846142da565b50805460019091015482519182526001600160a01b03166020820152f35b82346105a15760603660031901126108eb576044356001600160a01b03818116918290036108eb57604051916133d760a0846142f6565b6004358352602083019160243583526040840191338352606085019133835260808601918252611085614d05565b82346105a157806003193601126105a157602061017054604051908152f35b82346105a157806003193601126105a157602061093a61345361346361345d61344b6158f2565b939093614844565b8181939295615260565b92614e1e565b9061496a565b82346105a157806003193601126105a15760ca5460ff8160081c16156134d457601081901c6001600160a01b031633036126f35761ff00191660ca557f5db9ee0a495bf2e6ff9c91a7834c1ba4fdd244a5e8aa4e537bd38aeae4b073aa6020604051338152a1604051f35b604051637c7fd07960e01b8152600490fd5b82346105a1576134f73660046142b4565b906040519361350760a0866142f6565b8452602084019283526040840191338352606085019160018060a01b038091168352806080870192168252611085614d05565b82346105a15760203660031901126105a157613554615a42565b6004356101b655604051f35b82346105a15760203660031901126105a1576004356001600160a01b0380821682036108eb576112d6916135bf8285937f000000000000000000000000000000000000000000000000000000000000000016906132ac8230141561434a565b6135c7615a42565b6135d08261432e565b906135de60405192836142f6565b828252601f196135ed8461432e565b0136602084013761440c565b82346105a157806003193601126105a157613612615ad0565b61017d805460ff8116806136e0575b806136c6575b613632575b82604051f35b61ff0019166101001790556040517f8b77276c97a5709f0d6db52329848a254eb760ce8be80d281799f633bdb69e838282a16101655482906001600160a01b0316803b15610cb45782600481848094638456cb5960e01b83525af180156136b9576136a9575b50506136a2614a6c565b818061362c565b6136b2916142f6565b8181613698565b50604051903d90823e3d90fd5b506136d5611e3e6111d1614c1c565b61017c541015613627565b5060ff8160081c1615613621565b82346105a157806003193601126105a157602061017154604051908152f35b8260203660031901126105a1576040519061372960a0836142f6565b600435825261084b602083013481526040840193338552606081019333855260808201908152613757614d05565b61375f615ad0565b670de0b6b3a7640000613782610819613779610807614c1c565b86519291614e1e565b049561378c614cb6565b5060018060a01b0361084081835116898386511661016e5492614e59565b82346105a157806003193601126105a157602061017554604051908152f35b82346105a15760203660031901126105a1576004356001600160a01b0381168103610cb4576137f6615a42565b60ca805462010000600160b01b03191660109290921b62010000600160b01b0316919091179055604051f35b82346105a15760203660031901126105a15761383c615a42565b60043561017c55604051f35b82346105a157806003193601126105a157602061017254604051908152f35b82346105a15760203660031901126105a1576004356001600160a01b03811690819003610cb457613896615a42565b61017980546001600160a01b0319169091179055604051f35b82346105a157806003193601126105a157602060ff61017d5460081c166040519015158152f35b82346105a15760203660031901126105a1576138f0615a42565b60043561017455604051f35b82346105a15760203660031901126105a157600435801515809103610cb457613923615a42565b61017d9060ff80198354169116179055604051f35b82346105a157806003193601126105a157602061093a610d8b6111d1614c1c565b8260603660031901126105a1576001600160a01b03604435818116908190036139bf576040519061398b60c0836142f6565b60043582526020820160243581526040830192348452606081013381526080820193845260a0820190878252610d3b614d05565b8280fd5b82346105a157806003193601126105a157602061017f54604051908152f35b82346105a15760603660031901126105a15760405190613a0360c0836142f6565b60043582526117c2602083016024358152604084019260443584526060850191338352608086019233845260a08701928352613a3d614d05565b613a45615ad0565b613a80613a50614c1c565b613a6b613a5e8a5183614830565b5191610807838c51615199565b5050610660670de0b6b3a76400008551614957565b91613a89614cb6565b5060018060a01b03926117b78484511682868851166106888d51610177614198565b905034610cb457611c8a91613ac1366004614260565b939192613ad460409692965192836142f6565b8152602081019283526040810194855260608101938452608081019233845260a082019033825260c08301848152613b0a614d05565b613b12615ad0565b613b3d613b1d614c1c565b610a50611c95613b2e885184614830565b519c8d93611c81858b51615199565b049a51808c11611dff575091611ce58b611cdf613b9e9b9c9d9e9461066085611cd9613b6b998c5199614e1e565b94613b74614cb6565b5060018060a01b0390613b93828a511688848651166101735492614e59565b9791899a919a614a15565b9a51808c10611de157508a1561074957896111848d8594848f99610baa9f9d611dd591610b8d9f8f8f90918f92897f754f66f66f0afcd87e3edd11c0796fef32599efe490000fdb0f014e3ad9560fa918f9e8f80611dc6925196511696511696885192805160208201519060606040840151930151936040519788978893909796959260c0959260e08601998652602086015260408501526060840152608083015260a08201520152565b905034610cb45790611c8191613c60366004614282565b91909394613c7460409894985197886142f6565b865260208601948552604086019687526060860152608085019333855260a086019160018060a01b0380951683528460c0880191168152611c4e614d05565b9050613cc0366004614260565b60409291925193613cd3610100866142f6565b845260208401918252604084019283526060840190815261194c608085019434865260a081019233845260c0820195338752888301958a8752613d14614d05565b613d1c615ad0565b613d24614cb6565b50604051631c280ce160e01b602082015293516024850152516044840152516064830152516084820152855160a482015282516001600160a01b0390811660c48301529451851660e482015283518516610104808301919091528152611941610124826142f6565b82346105a15760203660031901126105a1576004356001600160a01b03811690819003610cb457613dbb615a42565b61016280546001600160a01b0319169091179055604051f35b82346105a15760203660031901126105a157613dee615a42565b60043561017155604051f35b90506060366003190112610cb457613e1560405191826142f6565b600435815260208101906024358252604081019260443584526060820190348252608083013381528460a085019333855260c0860193808552613e56614d05565b613e5e615ad0565b613ea3610a50610660856114198b613e776113cc614c1c565b9590610a4b61140f613e9785610660670de0b6b3a7640000809a51614957565b9c516101665490614957565b9851808a108015613ef9575b613edb5750613ebc614cb6565b5061145060018060a01b03938486511690858851166101715492614e59565b6044908a6040519163f577bef560e01b835260048301526024820152fd5b508915613eaf565b82346105a15760203660031901126105a1576004356001600160a01b03811690819003610cb457613f30615a42565b61017880546001600160a01b0319169091179055604051f35b82346105a157806003193601126105a15760206101b554604051908152f35b82346105a157806003193601126105a1576097546040516001600160a01b039091168152602090f35b905061194c613fa1366004614235565b9490919360405190613fb5610100836142f6565b8152602081019384526040810194855260608101928352608081019534875260a082019333855260c083019060018060a01b03978880941683528a8501978c89526118d6614d05565b905061400b36600461420f565b91939261401e60409692965194856142f6565b835260208301938452604083019485526060830191348352608084019033825260a085019360018060a01b03809216855260c08601938085526113aa614d05565b8260603660031901126105a1576001600160a01b0360443581811692908390036105a157506106a060405161409560c0826142f6565b6004358152602081016024358152604082019434865260608301338152608084019533875260a08501928352610600614d05565b826140d53660046141da565b9195936140e860409694965195866142f6565b845260208401948552604084019586526060840190348252608085019133835260a086019460018060a01b0380931686528260c08801951685526113aa614d05565b82346105a15760203660031901126105a157600435906101679081548310156105a15760206141598484614198565b905460405160039290921b1c6001600160a01b03168152f35b82346105a15760203660031901126105a15761418c615a42565b60043561016c55604051f35b80548210156141b05760005260206000200190600090565b634e487b7160e01b600052603260045260246000fd5b35906001600160a01b03821682036108eb57565b908160a09103126108eb5780359160208201359160408101359161420c6080614205606085016141c6565b93016141c6565b90565b91908260809103126108eb5781359160208101359161420c6060604084013593016141c6565b908160a09103126108eb5780359160208201359160408101359161420c6080606084013593016141c6565b91908260809103126108eb578135916020810135916060604083013592013590565b91908260c09103126108eb5781359160208101359160408201359160608101359161420c60a0614205608085016141c6565b91908260809103126108eb5781359160208101359161420c6060614205604085016141c6565b80548210156141b05760005260206000209060011b0190600090565b90601f8019910116810190811067ffffffffffffffff82111761431857604052565b634e487b7160e01b600052604160045260246000fd5b67ffffffffffffffff811161431857601f01601f191660200190565b1561435157565b60405162461bcd60e51b815260206004820152602c60248201527f46756e6374696f6e206d7573742062652063616c6c6564207468726f7567682060448201526b19195b1959d85d1958d85b1b60a21b6064820152608490fd5b156143b257565b60405162461bcd60e51b815260206004820152602c60248201527f46756e6374696f6e206d7573742062652063616c6c6564207468726f7567682060448201526b6163746976652070726f787960a01b6064820152608490fd5b9060ff7f4910fdfa16fed3260ed0e7147f7cc6da11a60208b5b9406d12a635614ffd914354166000146144465750614444915061465f565b565b6040516352d1902d60e01b81526020939192916001600160a01b038316918581600481865afa60009181614630575b506144d65760405162461bcd60e51b815260048101879052602e60248201527f45524331393637557067726164653a206e657720696d706c656d656e7461746960448201526d6f6e206973206e6f74205555505360901b6064820152608490fd5b939492937fc9f76b5ec45e5cdef99837d7b6d2467235c1df8933c8ca56df5c35afa2c7d444016145d9576145098461465f565b604051917fbc7cd75a20ee27fd9adebab32041f755214dbc6bffa90cc0225b39da2e5c2d3b600084a2845115908115916145d1575b5061454a575b50505050565b823b15614582575082600092839261457895519201905af461456a614701565b614572614731565b91614785565b5038808080614544565b60849162461bcd60e51b82526004820152602660248201527f416464726573733a2064656c65676174652063616c6c20746f206e6f6e2d636f6044820152651b9d1c9858dd60d21b6064820152fd5b90503861453e565b60405162461bcd60e51b815260048101849052602960248201527f45524331393637557067726164653a20756e737570706f727465642070726f786044820152681a58589b195555525160ba1b6064820152608490fd5b90918782813d8311614658575b61464781836142f6565b810103126105a15750519038614475565b503d61463d565b803b156146a6577f360894a13ba1a3210667c828492db98dca3e2076cc3735a920a3ca505d382bbc80546001600160a01b0319166001600160a01b03909216919091179055565b60405162461bcd60e51b815260206004820152602d60248201527f455243313936373a206e657720696d706c656d656e746174696f6e206973206e60448201526c1bdd08184818dbdb9d1c9858dd609a1b6064820152608490fd5b3d1561472c573d906147128261432e565b9161472060405193846142f6565b82523d6000602084013e565b606090565b61473b602761432e565b9061474960405192836142f6565b60278252660819985a5b195960ca1b6040837f416464726573733a206c6f772d6c6576656c2064656c65676174652063616c6c60208201520152565b90916060911561479457505090565b6144449193925b8051909250156147ae5750805190602001fd5b6040519062461bcd60e51b82528160208060048301528251908160248401526000935b8285106147f4575050604492506000838284010152601f80199101168101030190fd5b84810182015186860160440152938101938593506147d1565b9190820180921161481a57565b634e487b7160e01b600052601160045260246000fd5b80518210156141b05760209160051b010190565b906000916000906101698054906000925b82841061487b5750505050614877670de0b6b3a76400009161016b5490614957565b0490565b90919293956148ca856148c4600193610de36148978488614830565b51610660670de0b6b3a7640000610a508b6148bd6148b5868b6148f0565b9a90926142da565b505461480d565b9861480d565b9401929190614855565b9190916000838201938412911290801582169115161761481a57565b919060009061491e8160009561491461490b82610180614198565b9390549261498a565b9160031b1c6148d4565b6000811361492d575b50509190565b61494f919450612fce92508094670de0b6b3a764000093849161016c54614957565b043880614927565b806000190482118115151661481a570290565b8115614974570490565b634e487b7160e01b600052601260045260246000fd5b906149d0906149ca6149bd6149b4670de0b6b3a76400006149ad876101696142da565b5054614957565b94610181614198565b90549060031b1c8461496a565b9261496a565b906000828203921281831281169183139015161761481a5790565b8015614a0d57610660670de0b6b3a7640000610a5061420c9461016354614a15565b505060001990565b9190820391821161481a57565b67ffffffffffffffff81116143185760051b60200190565b90614a4482614a22565b614a5160405191826142f6565b8281528092614a62601f1991614a22565b0190602036910137565b610163548015614b435761016990815491600090614a8984614a3a565b9082905b858210614af357505060005b848110614aa7575050505050565b614abf8461066085614ab98587614830565b51614957565b9061016a9182546801000000000000000081101561431857612feb8160019586614aeb94018155614198565b905501614a99565b9092614b3b600191614b0486614b46565b614b0e8787614830565b52610de3614b1c87866142da565b5054610660670de0b6b3a7640000614b348a8a614830565b5192614957565b930190614a8d565b50565b614b52906101696142da565b50600101546001600160a01b0316614b6981614b9a565b91909115614b75575090565b60249060405190637f6e4db960e01b82526004820152fd5b519081151582036108eb57565b604080516359e02dd760e01b815292918190849060049082906001600160a01b03165afa928315614c11576000918294614bd45750509190565b90809450813d8311614c0a575b614beb81836142f6565b810103126105a15750614c02602083519301614b8d565b913880614927565b503d614be1565b50513d6000823e3d90fd5b6101695490614c2a82614a3a565b9160005b818110614c39575050565b80614c45600192614b46565b614c4f8287614830565b5201614c2e565b15614c5d57565b60405162461bcd60e51b815260206004820152602b60248201527f496e697469616c697a61626c653a20636f6e7472616374206973206e6f74206960448201526a6e697469616c697a696e6760a81b6064820152608490fd5b60405190614cc56080836142f6565b60006060838281528260208201528260408201520152565b9260a094919796959260c0850198855260208501526040840152606083015260808201520152565b60ff61017d5460081c16614d1557565b604051631ca61d7760e01b8152600490fd5b614d8d92602092610166614d3c84825461480d565b9055614d4c61016391825461480d565b9055610165546040516340c10f1960e01b81526001600160a01b03928316600482015260248101939093529193849290911690829060009082906044820190565b03925af18015614dcf57614d9e5750565b6020813d8211614dc7575b81614db6602093836142f6565b810103126108eb57614b4390614b8d565b3d9150614da9565b6040513d6000823e3d90fd5b9190614de690614844565b919092614df383856149eb565b9080821115614e00575050565b6044925060405191637912120160e01b835260048301526024820152fd5b9061016654908115614e4a57670de0b6b3a7640000610a5061420c94610a4b6106609461016354614a15565b505050670de0b6b3a764000090565b929093916000916000918296614e6d614cb6565b966001600160a01b0391859083168061507d575b508261016154168360405193636eb1769f60e11b8552168060048501523060248501526020948585604481865afa94851561507257849561503f575b5084614f1e575b505050505086015115614eda575b505050929190565b90919250614ef2670de0b6b3a7640000928392614957565b04808552908215614f1657614f0e92049081604086015261480d565b388080614ed2565b509050614f0e565b614f2c906101625416614b9a565b92909215614ec457909192939b50848b614f6685670de0b6b3a7640000614f60614f568d8d614957565b6101755490614957565b0461496a565b81830181815295908b156150355750614f9191614f856060928d61496a565b9182910152855161480d565b809d5b10928315614fc0575b505050614fad575b808080614ec4565b8192995052806060880152963880614fa5565b909192506024604051809481936370a0823160e01b835260048301525afa90811561502a57908b918491614ff9575b5010388481614f9d565b809250858092503d8311615023575b61501281836142f6565b810103126139bf578a905138614fef565b503d615008565b6040513d85823e3d90fd5b915050809d614f94565b9094508581813d831161506b575b61505781836142f6565b8101031261506757519338614ebd565b8380fd5b503d61504d565b6040513d86823e3d90fd5b9095506020836101e95416916024604051809481936364a731e960e01b835260048301525afa80156150f55786906150c2575b6150bb915084614957565b9438614e81565b506020813d82116150ed575b816150db602093836142f6565b810103126132e2576150bb90516150b0565b3d91506150ce565b6040513d88823e3d90fd5b6151789361513f600092602095615119826101696142da565b5061512587825461480d565b905561513561016391825461480d565b9055610167614198565b90546040516340c10f1960e01b81526001600160a01b039093166004840152602483019490945290948593928492909183906044820190565b039360039190911b1c6001600160a01b03165af18015614dcf57614d9e5750565b612feb6151ec916151aa848261498a565b6151e26151b983610180614198565b6151cc8294925492838360031b1c6148d4565b919060031b600019811b9283911b169119161790565b9055610181614198565b9055565b9261093483615202969493979561584a565b81811061520d575050565b604492506040519163c39b739f60e01b835260048301526024820152fd5b9361523a93610a509295615260565b670de0b6b3a763ffff19820191821161481a57670de0b6b3a7640000916148779161496a565b90918161526d82856149eb565b11156152995761420c92611419670de0b6b3a7640000610a506152939461016354614a15565b90614a15565b505050600090565b9061420c916000806152b1614731565b93602081519101845af46152c3614701565b92606091156153275750508151156152d9575090565b3b156152e25790565b60405162461bcd60e51b815260206004820152601d60248201527f416464726573733a2063616c6c20746f206e6f6e2d636f6e74726163740000006044820152606490fd5b909392614444925061479b565b615362919392615346826101696142da565b50615352868254614a15565b9055615135610163918254614a15565b905460039190911b1c6001600160a01b031691823b156108eb57604051632770a7eb60e21b81526001600160a01b0390921660048301526024820152906000908290818381604481015b03925af18015614dcf576153bd5750565b6000614444916142f6565b91906101666153d8848254614a15565b90556153e8610163918254614a15565b9055610165546001600160a01b031691823b156108eb57604051632770a7eb60e21b81526001600160a01b0390921660048301526024820152906000908290818381604481016153ac565b84519294939192600091901561555b5750670de0b6b3a764000061545c61016d54865190614957565b049161016361546c84825461480d565b90556101785485516001600160a01b03969187169461548a91614a15565b61012f946002865414612f1e576002865581615534575b5050604001519194600284558261550a575b505050600190555b61012f926002845414612f1e5760028455806154db575b50505060019055565b6001600160a01b03821615612f0c5782918291604051915af16154fc614701565b5015612efa573880806154d2565b811615612f0c5760008092918192604051915af1615526614701565b5015612efa573880806154b3565b8015612f0c57848092918192604051915af161554e614701565b5015612efa5738806154a1565b610178546020860151929561558b94929360609261558391906001600160a01b031686615590565b015191615590565b6154bb565b9190918161559d57505050565b6156369160008060018060a01b03938461016154169360405195602098818a8901946323b872dd60e01b86521660248901521660448701526064860152606485526155e96084866142f6565b6155f28761432e565b9461560060405196876142f6565b8786527f5361666545524332303a206c6f772d6c6576656c2063616c6c206661696c656488870152519082855af16152c3614701565b80518061564257505050565b818391810103126108eb57816156589101614b8d565b156156605750565b6084906040519062461bcd60e51b82526004820152602a60248201527f5361666545524332303a204552433230206f7065726174696f6e20646964206e6044820152691bdd081cdd58d8d9595960b21b6064820152fd5b615717906156c3615ad0565b60405163e01dce2d60e01b602082015260248101919091526001600160a01b039283166044820152838316606482018190524760848084019190915282529261570d60a4836142f6565b61021c54166152a1565b6020818051810103126108eb57602001519161012f916002835414612f1e576002835583615749575b50506001905590565b15612f0c57600080809285604051915af1615762614701565b5015612efa573880615740565b928061345d61346392856157839695615260565b81811061578e575050565b604492506040519163a5db715d60e01b835260048301526024820152fd5b60e08101929160c09081906001600160a01b03806157c9836141c6565b1685526157d8602083016141c6565b16602085015260408101356040850152606081013560608501526080810135608085015260a081013560a08501520135910152565b61017f54804310156158245761420c904390614a15565b50600090565b906040516158396040826142f6565b602060018294805484520154910152565b6158568161017a614198565b90549060031b1c916101b49161586c81846142da565b5054926101b554431015615897575b505080821015615892576106609061420c93614957565b505090565b8293506158ab6158b693926158b1926142da565b5061582a565b6158be565b90388061587b565b602081519101805192670de0b6b3a76400009384039084821161481a576158eb610de39261487795614957565b9251614957565b6000806101699182549261590584614a3a565b9382915b858284106159345750505050811561592857906159259161496a565b91565b505061017b5460011b91565b610a5061599f859796610de361596e6159968961066089610a506159808460019d9e9f9c6159646159a59e614b46565b9889978892614830565b5261597986826148f0565b50936142da565b50610a50670de0b6b3a76400009384925461480d565b9485918c61584a565b9561480d565b94019190615909565b6101b580544310156159bd5750565b6101695460005b8181106159d75750506101b65443019055565b80807f19156e9379c7bbbce8f646ce5ee30ba860b8f954717405f3d5859a6c1a21ae606001936101b4615a0d6158ab83836142da565b90615a2b615a23615a1d85614b46565b846158be565b9384926142da565b50555160409182519182526020820152a2016159c4565b60975460405163d994d6d560e01b815233600482015290602090829060249082906001600160a01b03165afa908115614dcf57600091615a97575b5015615a8557565b604051631dd1b1b560e21b8152600490fd5b906020823d8211615ac8575b81615ab0602093836142f6565b810103126105a15750615ac290614b8d565b38615a7d565b3d9150615aa3565b60ff60ca5460081c16615adf57565b60405163783bb6c960e11b8152600490fd5b670de0b6b3a7640000106124fe5756fea26469706673582212205b6be375b46af0333a56acec51efc53808fd96f69e0a8b701ed1bbb23e8e269e64736f6c63430008100033",
  "linkReferences": {},
  "deployedLinkReferences": {},
  "devdoc": {
    "kind": "dev",
    "methods": {
      "addPeggedToken((address,address,uint256,uint256,uint256,uint256,uint256))": {
        "details": "Note that the ema value, should consider `nextEmaCalculation`  This function is implemented in MocCoreExpansion but with this contract contexttpTokenAddress Pegged Token contract address to add      priceProviderAddress Pegged Token price provider contract address      tpCtarg Pegged Token target coverage [PREC]      tpMintFee additional fee pct applied on mint [PREC]      tpRedeemFee additional fee pct applied on redeem [PREC]      tpEma initial Pegged Token exponential moving average [PREC]      tpEmaSf Pegged Token smoothing factor [PREC]  Requirements: - the caller must have governance authorization. - tpTokenAddress must be a MocRC20, with mint, burn roles already settled  for this contract",
        "params": {
          "peggedTokenParams_": "params of Pegged Token to add"
        }
      },
      "calcCtargemaCA()": {
        "details": "qAC = nTP / pACtp      ctargemaCA = (ctargemaTP * qAC) / (qAC)",
        "returns": {
          "ctargemaCA": "[PREC]"
        }
      },
      "changeGovernor(address)": {
        "params": {
          "newGovernor_": "New governor address"
        }
      },
      "constructor": {
        "custom:oz-upgrades-unsafe-allow": "constructor"
      },
      "editPeggedToken((address,address,uint256,uint256,uint256,uint256,uint256))": {
        "details": "Note that the ema value, should consider `nextEmaCalculation`  This function is implemented in MocCoreExpansion but with this contract contexttpTokenAddress Pegged Token contract address to identify the token to edit      priceProviderAddress Pegged Token price provider contract address      tpCtarg Pegged Token target coverage [PREC]      tpMintFee additional fee pct applied on mint [PREC]      tpRedeemFee additional fee pct applied on redeem [PREC]      tpEma initial Pegged Token exponential moving average [PREC]      tpEmaSf Pegged Token smoothing factor [PREC]  Requirements: - the caller must have governance authorization. - the tpTokenAddress must exists",
        "params": {
          "peggedTokenParams_": "params of Pegged Token to add"
        }
      },
      "getCglb()": {
        "returns": {
          "cglob": "[PREC]"
        }
      },
      "getLeverageTC()": {
        "returns": {
          "leverageTC": "[PREC]"
        }
      },
      "getPACtp(uint256)": {
        "params": {
          "i_": "Pegged Token index"
        },
        "returns": {
          "_0": "price [PREC]"
        }
      },
      "getPTCac()": {
        "returns": {
          "pTCac": "[PREC]"
        }
      },
      "getTCAvailableToRedeem()": {
        "details": "because it is a view function we are not calculating the new ema,  since we are using the last ema calculation, this may differ a little from the real amount  of TC available to redeem. Consider it an approximation.",
        "returns": {
          "tcAvailableToRedeem": "[N]"
        }
      },
      "getTPAvailableToMint(uint256)": {
        "details": "because it is a view function we are not calculating the new ema,  since we are using the last ema calculation, this may differ a little from the real amount  of TP available to mint. Consider it an approximation.",
        "params": {
          "i_": "Pegged Token index"
        },
        "returns": {
          "tpAvailableToMint": "[N]"
        }
      },
      "getTotalACavailable()": {
        "returns": {
          "totalACavailable": "[N]"
        }
      },
      "initialize(((address,address,address,address,address,uint256,uint256,uint256,uint256,uint256,uint256,uint256,uint256,uint256,uint256,uint256,uint256,uint256,uint256),address,address,address,uint256,address))": {
        "details": "governorAddress The address that will define when a change contract is authorized      pauserAddress The address that is authorized to pause this contract      tcTokenAddress Collateral Token contract address      mocFeeFlowAddress Moc Fee Flow contract address      mocAppreciationBeneficiaryAddress Moc appreciation beneficiary address      protThrld protected state threshold [PREC]      liqThrld liquidation coverage threshold [PREC]      feeRetainer pct retain on fees to be re-injected as Collateral, while paying fees with AC [PREC]      tcMintFee additional fee pct applied on mint Collateral Tokens operations [PREC]      tcRedeemFee additional fee pct applied on redeem Collateral Tokens operations [PREC]      successFee pct of the gain because Pegged Tokens devaluation that is transferred        in Collateral Asset to Moc Fee Flow during the settlement [PREC]      appreciationFactor pct of the gain because Pegged Tokens devaluation that is returned        in Pegged Tokens to appreciation beneficiary during the settlement [PREC]      emaCalculationBlockSpan amount of blocks to wait between Pegged ema calculation      bes number of blocks between settlements",
        "params": {
          "initializeCoreParams_": "contract initializer params"
        }
      },
      "isLiquidationReached()": {
        "returns": {
          "_0": "true if liquidation state is reached, false otherwise"
        }
      },
      "liqRedeemTP(uint256)": {
        "params": {
          "i_": "Pegged Token index"
        },
        "returns": {
          "qACRedeemed": "amount of AC sent to sender"
        }
      },
      "liqRedeemTPto(uint256,address)": {
        "params": {
          "i_": "Pegged Token index",
          "recipient_": "address who receives the AC"
        },
        "returns": {
          "qACRedeemed": "amount of AC sent to `recipient_`"
        }
      },
      "makeStoppable()": {
        "details": "Should be called through governance"
      },
      "makeUnstoppable()": {
        "details": "Should be called through governance"
      },
      "mintTC(uint256)": {
        "details": "any extra value, not spent on TC nor fees, will be return to sender",
        "params": {
          "qTC_": "amount of Collateral Token to mint"
        },
        "returns": {
          "qACtotalNeeded": "amount of AC used to mint qTC",
          "qFeeToken": "amount of Fee Token used by sender to pay fees. 0 if qAC is used instead"
        }
      },
      "mintTCViaVendor(uint256,address)": {
        "details": "any extra value, not spent on TC nor fees, will be return to sender",
        "params": {
          "qTC_": "amount of Collateral Token to mint",
          "vendor_": "address who receives a markup"
        },
        "returns": {
          "qACtotalNeeded": "amount of AC used to mint qTC",
          "qFeeToken": "amount of Fee Token used by sender to pay fees. 0 if qAC is used instead"
        }
      },
      "mintTCandTP(uint256,uint256)": {
        "params": {
          "i_": "Pegged Token index",
          "qTP_": "amount of Pegged Token to mint"
        },
        "returns": {
          "qACtotalNeeded": "amount of AC used to mint Collateral Token and Pegged Token",
          "qFeeToken": "amount of Fee Token used by sender to pay fees. 0 if qAC is used instead",
          "qTCtoMint": "amount of Collateral Token minted"
        }
      },
      "mintTCandTPViaVendor(uint256,uint256,address)": {
        "params": {
          "i_": "Pegged Token index",
          "qTP_": "amount of Pegged Token to mint",
          "vendor_": "address who receives a markup"
        },
        "returns": {
          "qACtotalNeeded": "amount of AC used to mint Collateral Token and Pegged Token",
          "qFeeToken": "amount of Fee Token used by sender to pay fees. 0 if qAC is used instead",
          "qTCtoMint": "amount of Collateral Token minted"
        }
      },
      "mintTCandTPto(uint256,uint256,address)": {
        "params": {
          "i_": "Pegged Token index",
          "qTP_": "amount of Pegged Token to mint",
          "recipient_": "address who receives the Collateral Token and Pegged Token"
        },
        "returns": {
          "qACtotalNeeded": "amount of AC used to mint Collateral Token and Pegged Token",
          "qFeeToken": "amount of Fee Token used by sender to pay fees. 0 if qAC is used instead",
          "qTCtoMint": "amount of Collateral Token minted"
        }
      },
      "mintTCandTPtoViaVendor(uint256,uint256,address,address)": {
        "params": {
          "i_": "Pegged Token index",
          "qTP_": "amount of Pegged Token to mint",
          "recipient_": "address who receives the Collateral Token and Pegged Token",
          "vendor_": "address who receives a markup"
        },
        "returns": {
          "qACtotalNeeded": "amount of AC used to mint Collateral Token and Pegged Token",
          "qFeeToken": "amount of Fee Token used by sender to pay fees. 0 if qAC is used instead",
          "qTCtoMint": "amount of Collateral Token minted"
        }
      },
      "mintTCto(uint256,address)": {
        "details": "any extra value, not spent on TC nor fees, will be return to sender",
        "params": {
          "qTC_": "amount of Collateral Token to mint",
          "recipient_": "address who receives the Collateral Token"
        },
        "returns": {
          "qACtotalNeeded": "amount of AC used to mint qTC",
          "qFeeToken": "amount of Fee Token used by sender to pay fees. 0 if qAC is used instead"
        }
      },
      "mintTCtoViaVendor(uint256,address,address)": {
        "details": "any extra value, not spent on TC nor fees, will be return to sender",
        "params": {
          "qTC_": "amount of Collateral Token to mint",
          "recipient_": "address who receives the Collateral Token",
          "vendor_": "address who receives a markup"
        },
        "returns": {
          "qACtotalNeeded": "amount of AC used to mint qTC",
          "qFeeToken": "amount of Fee Token used by sender to pay fees. 0 if qAC is used instead"
        }
      },
      "mintTP(uint256,uint256)": {
        "details": "any extra value, not spent on TP nor fees, will be return to sender",
        "params": {
          "i_": "Pegged Token index to mint",
          "qTP_": "amount of Pegged Token to mint"
        },
        "returns": {
          "qACtotalNeeded": "amount of AC used to mint qTP",
          "qFeeToken": "amount of Fee Token used by sender to pay fees. 0 if qAC is used instead"
        }
      },
      "mintTPViaVendor(uint256,uint256,address)": {
        "details": "any extra value, not spent on TP nor fees, will be return to sender",
        "params": {
          "i_": "Pegged Token index to mint",
          "qTP_": "amount of Pegged Token to mint",
          "vendor_": "address who receives a markup"
        },
        "returns": {
          "qACtotalNeeded": "amount of AC used to mint qTP",
          "qFeeToken": "amount of Fee Token used by sender to pay fees. 0 if qAC is used instead"
        }
      },
      "mintTPto(uint256,uint256,address)": {
        "details": "any extra value, not spent on TP nor fees, will be return to sender",
        "params": {
          "i_": "Pegged Token index to mint",
          "qTP_": "amount of Pegged Token to mint",
          "recipient_": "address who receives the Pegged Token"
        },
        "returns": {
          "qACtotalNeeded": "amount of AC used to mint qTP",
          "qFeeToken": "amount of Fee Token used by sender to pay fees. 0 if qAC is used instead"
        }
      },
      "mintTPtoViaVendor(uint256,uint256,address,address)": {
        "details": "any extra value, not spent on TP nor fees, will be return to sender",
        "params": {
          "i_": "Pegged Token index to mint",
          "qTP_": "amount of Pegged Token to mint",
          "recipient_": "address who receives the Pegged Token",
          "vendor_": "address who receives a markup"
        },
        "returns": {
          "qACtotalNeeded": "amount of AC used to mint qTP",
          "qFeeToken": "amount of Fee Token used by sender to pay fees. 0 if qAC is used instead"
        }
      },
      "pause()": {
        "details": "Should only be called by the pauser and when it is stoppable"
      },
      "proxiableUUID()": {
        "details": "Implementation of the ERC1822 {proxiableUUID} function. This returns the storage slot used by the implementation. It is used to validate the implementation's compatibility when performing an upgrade. IMPORTANT: A proxy pointing at a proxiable contract should not be considered proxiable itself, because this risks bricking a proxy that upgrades to it, by delegating to itself until out of gas. Thus it is critical that this function revert if invoked through a proxy. This is guaranteed by the `notDelegated` modifier."
      },
      "redeemTC(uint256,uint256)": {
        "params": {
          "qACmin_": "minimum amount of Collateral Asset that sender expects to receive",
          "qTC_": "amount of Collateral Token to redeem"
        },
        "returns": {
          "qACRedeemed": "amount of AC sent to sender",
          "qFeeToken": "amount of Fee Token used by sender to pay fees. 0 if qAC is used instead"
        }
      },
      "redeemTCViaVendor(uint256,uint256,address)": {
        "params": {
          "qACmin_": "minimum amount of Collateral Asset that sender expects to receive",
          "qTC_": "amount of Collateral Token to redeem",
          "vendor_": "address who receives a markup"
        },
        "returns": {
          "qACRedeemed": "amount of AC sent to sender",
          "qFeeToken": "amount of Fee Token used by sender to pay fees. 0 if qAC is used instead"
        }
      },
      "redeemTCandTP(uint256,uint256,uint256,uint256)": {
        "params": {
          "i_": "Pegged Token index",
          "qACmin_": "minimum amount of Collateral Asset that the sender expects to receive",
          "qTC_": "maximum amount of Collateral Token to redeem",
          "qTP_": "maximum amount of Pegged Token to redeem"
        },
        "returns": {
          "qACRedeemed": "amount of AC sent to the sender",
          "qFeeToken": "amount of Fee Token used by sender to pay fees. 0 if qAC is used instead",
          "qTPRedeemed": "amount of Pegged Token redeemed"
        }
      },
      "redeemTCandTPViaVendor(uint256,uint256,uint256,uint256,address)": {
        "params": {
          "i_": "Pegged Token index",
          "qACmin_": "minimum amount of Collateral Asset that the sender expects to receive",
          "qTC_": "maximum amount of Collateral Token to redeem",
          "qTP_": "maximum amount of Pegged Token to redeem",
          "vendor_": "address who receives a markup"
        },
        "returns": {
          "qACRedeemed": "amount of AC sent to the sender",
          "qFeeToken": "amount of Fee Token used by sender to pay fees. 0 if qAC is used instead",
          "qTPRedeemed": "amount of Pegged Token redeemed"
        }
      },
      "redeemTCandTPto(uint256,uint256,uint256,uint256,address)": {
        "params": {
          "i_": "Pegged Token index",
          "qACmin_": "minimum amount of Collateral Asset that `recipient_` expects to receive",
          "qTC_": "maximum amount of Collateral Token to redeem",
          "qTP_": "maximum amount of Pegged Token to redeem",
          "recipient_": "address who receives the Collateral Asset"
        },
        "returns": {
          "qACRedeemed": "amount of AC sent to the `recipient_`",
          "qFeeToken": "amount of Fee Token used by sender to pay fees. 0 if qAC is used instead",
          "qTPRedeemed": "amount of Pegged Token redeemed"
        }
      },
      "redeemTCandTPtoViaVendor(uint256,uint256,uint256,uint256,address,address)": {
        "params": {
          "i_": "Pegged Token index",
          "qACmin_": "minimum amount of Collateral Asset that `recipient_` expects to receive",
          "qTC_": "maximum amount of Collateral Token to redeem",
          "qTP_": "maximum amount of Pegged Token to redeem",
          "recipient_": "address who receives the Collateral Asset",
          "vendor_": "address who receives a markup"
        },
        "returns": {
          "qACRedeemed": "amount of AC sent to the `recipient_`",
          "qFeeToken": "amount of Fee Token used by sender to pay fees. 0 if qAC is used instead",
          "qTPRedeemed": "amount of Pegged Token redeemed"
        }
      },
      "redeemTCto(uint256,uint256,address)": {
        "params": {
          "qACmin_": "minimum amount of Collateral Asset that `recipient_` expects to receive",
          "qTC_": "amount of Collateral Token to redeem",
          "recipient_": "address who receives the Collateral Asset"
        },
        "returns": {
          "qACRedeemed": "amount of AC sent to 'recipient_'",
          "qFeeToken": "amount of Fee Token used by sender to pay fees. 0 if qAC is used instead"
        }
      },
      "redeemTCtoViaVendor(uint256,uint256,address,address)": {
        "params": {
          "qACmin_": "minimum amount of Collateral Asset that `recipient_` expects to receive",
          "qTC_": "amount of Collateral Token to redeem",
          "recipient_": "address who receives the Collateral Asset",
          "vendor_": "address who receives a markup"
        },
        "returns": {
          "qACRedeemed": "amount of AC sent to 'recipient_'",
          "qFeeToken": "amount of Fee Token used by sender to pay fees. 0 if qAC is used instead"
        }
      },
      "redeemTP(uint256,uint256,uint256)": {
        "params": {
          "i_": "Pegged Token index to redeem",
          "qACmin_": "minimum amount of Collateral Asset that sender expects to receive",
          "qTP_": "amount of Pegged Token to redeem"
        },
        "returns": {
          "qACRedeemed": "amount of AC sent to sender",
          "qFeeToken": "amount of Fee Token used by sender to pay fees. 0 if qAC is used instead"
        }
      },
      "redeemTPViaVendor(uint256,uint256,uint256,address)": {
        "params": {
          "i_": "Pegged Token index to redeem",
          "qACmin_": "minimum amount of Collateral Asset that sender expects to receive",
          "qTP_": "amount of Pegged Token to redeem",
          "vendor_": "address who receives a markup"
        },
        "returns": {
          "qACRedeemed": "amount of AC sent to sender",
          "qFeeToken": "amount of Fee Token used by sender to pay fees. 0 if qAC is used instead"
        }
      },
      "redeemTPto(uint256,uint256,uint256,address)": {
        "params": {
          "i_": "Pegged Token index to redeem",
          "qACmin_": "minimum amount of Collateral Asset that `recipient_` expects to receive",
          "qTP_": "amount of Pegged Token to redeem",
          "recipient_": "address who receives the Collateral Asset"
        },
        "returns": {
          "qACRedeemed": "amount of AC sent to 'recipient_'",
          "qFeeToken": "amount of Fee Token used by sender to pay fees. 0 if qAC is used instead"
        }
      },
      "redeemTPtoViaVendor(uint256,uint256,uint256,address,address)": {
        "params": {
          "i_": "Pegged Token index to redeem",
          "qACmin_": "minimum amount of Collateral Asset that `recipient_` expects to receive",
          "qTP_": "amount of Pegged Token to redeem",
          "recipient_": "address who receives the Collateral Asset",
          "vendor_": "address who receives a markup"
        },
        "returns": {
          "qACRedeemed": "amount of AC sent to 'recipient_'",
          "qFeeToken": "amount of Fee Token used by sender to pay fees. 0 if qAC is used instead"
        }
      },
      "setAppreciationFactor(uint256)": {
        "details": "sets appreciation Factor value.",
        "params": {
          "appreciationFactor_": "pct of the gain because Pegged Tokens devaluation that is returned in Pegged Tokens to appreciation beneficiary during the settlement [PREC]"
        }
      },
      "setBes(uint256)": {
        "params": {
          "bes_": "number of blocks between settlements*"
        }
      },
      "setEmaCalculationBlockSpan(uint256)": {
        "params": {
          "blockSpan_": "Defines how many blocks should pass between BMA calculations*"
        }
      },
      "setFeeRetainer(uint256)": {
        "details": "sets the fee pct to be retainer on AC fees payments as AC re-injection.",
        "params": {
          "feeRetainer_": "pct retain on fees to be re-injected as Collateral, while paying fees with AC [PREC] 0% = 0; 1% = 10 ** 16; 100% = 10 ** 18"
        }
      },
      "setFeeTokenAddress(address)": {
        "details": "sets Fee Token contract address",
        "params": {
          "mocFeeTokenAddress_": "Fee Token new contract address"
        }
      },
      "setFeeTokenPct(uint256)": {
        "details": "sets the fee applied on the top of the operation`s fee when using Fee Token as fee payment method.",
        "params": {
          "feeTokenPct_": "pct applied on the top of the operation`s fee when using Fee Token  as fee payment method [PREC]  e.g. if tcMintFee = 1%, FeeTokenPct = 50% => qFeeToken = 0.5%  0% = 0; 1% = 10 ** 16; 100% = 10 ** 18"
        }
      },
      "setFeeTokenPriceProviderAddress(address)": {
        "details": "sets Fee Token price provider contract address",
        "params": {
          "mocFeeTokenPriceProviderAddress_": "Fee Token price provider new contract address"
        }
      },
      "setLiqEnabled(bool)": {
        "details": "enables and disables the liquidation mechanism.",
        "params": {
          "liqEnabled_": "is liquidation enabled"
        }
      },
      "setLiqThrld(uint256)": {
        "details": "sets the value of the liq threshold configuration param",
        "params": {
          "liqThrld_": "liquidation threshold"
        }
      },
      "setMintTCandTPFee(uint256)": {
        "details": "sets the fee charged when mint Collateral Token and Pegged Token in one operation.",
        "params": {
          "mintTCandTPFee_": "additional fee pct applied on mint Collateral Token and Pegged Token [PREC] 0% = 0; 1% = 10 ** 16; 100% = 10 ** 18"
        }
      },
      "setMocAppreciationBeneficiaryAddress(address)": {
        "details": "sets Moc Appreciation Beneficiary Address",
        "params": {
          "mocAppreciationBeneficiaryAddress_": "moc Appreciation Beneficiary new address"
        }
      },
      "setMocCoreExpansion(address)": {
        "details": "sets Moc Core Expansion contract address",
        "params": {
          "mocCoreExpansion_": "moc core expansion new contract address"
        }
      },
      "setMocFeeFlowAddress(address)": {
        "details": "sets Moc Fee Flow contract address",
        "params": {
          "mocFeeFlowAddress_": "moc Fee Flow new contract address"
        }
      },
      "setPauser(address)": {
        "details": "Should be called through governance",
        "params": {
          "newPauser_": "Address of the new pauser"
        }
      },
      "setProtThrld(uint256)": {
        "details": "sets the value of the protected threshold configuration param",
        "params": {
          "protThrld_": "coverage protected state threshold [PREC]"
        }
      },
      "setRedeemTCandTPFee(uint256)": {
        "details": "sets the fee charged when redeem Collateral Token and Pegged Token in one operation.",
        "params": {
          "redeemTCandTPFee_": "additional fee pct applied on redeem Collateral Token and Pegged Token [PREC] 0% = 0; 1% = 10 ** 16; 100% = 10 ** 18"
        }
      },
      "setSuccessFee(uint256)": {
        "details": "sets success Fee value.",
        "params": {
          "successFee_": "pct of the gain because Pegged Tokens devaluation that is transferred in Collateral Asset to Moc Fee Flow during the settlement [PREC]"
        }
      },
      "setSwapTCforTPFee(uint256)": {
        "details": "sets the fee charged when swap Collateral Token for a Pegged Token.",
        "params": {
          "swapTCforTPFee_": "additional fee pct applied on swap Collateral Token for a Pegged Token [PREC] 0% = 0; 1% = 10 ** 16; 100% = 10 ** 18"
        }
      },
      "setSwapTPforTCFee(uint256)": {
        "details": "sets the fee charged when swap a Pegged Token for Collateral Token.",
        "params": {
          "swapTPforTCFee_": "additional fee pct applied on swap a Pegged Token for Collateral Token [PREC] 0% = 0; 1% = 10 ** 16; 100% = 10 ** 18"
        }
      },
      "setSwapTPforTPFee(uint256)": {
        "details": "sets the fee charged when swap a Pegged Token for another Pegged Token.",
        "params": {
          "swapTPforTPFee_": "additional fee pct applied on swap a Pegged Token for another Pegged Token [PREC] 0% = 0; 1% = 10 ** 16; 100% = 10 ** 18"
        }
      },
      "setTcMintFee(uint256)": {
        "details": "sets the fee charged on Token Collateral mint.",
        "params": {
          "tcMintFee_": "addition fee pct applied on Collateral Tokens mint [PREC] 0% = 0; 1% = 10 ** 16; 100% = 10 ** 18"
        }
      },
      "setTcRedeemFee(uint256)": {
        "details": "sets the fee charged on Token Collateral redeem.",
        "params": {
          "tcRedeemFee_": "addition fee pct applied on Collateral Tokens redeem [PREC] 0% = 0; 1% = 10 ** 16; 100% = 10 ** 18"
        }
      },
      "swapTCforTP(uint256,uint256,uint256)": {
        "params": {
          "i_": "Pegged Token index",
          "qTC_": "amount of Collateral Token to swap",
          "qTPmin_": "minimum amount of Pegged Token that the sender expects to receive"
        },
        "returns": {
          "qACFee": "amount of AC used to pay fee",
          "qFeeToken": "amount of Fee Token used by sender to pay fees. 0 if qAC is used instead",
          "qTPMinted": "amount of Pegged Token minted"
        }
      },
      "swapTCforTPViaVendor(uint256,uint256,uint256,address)": {
        "params": {
          "i_": "Pegged Token index",
          "qTC_": "amount of Collateral Token to swap",
          "qTPmin_": "minimum amount of Pegged Token that the sender expects to receive",
          "vendor_": "address who receives a markup"
        },
        "returns": {
          "qACFee": "amount of AC used to pay fee",
          "qFeeToken": "amount of Fee Token used by sender to pay fees. 0 if qAC is used instead",
          "qTPMinted": "amount of Pegged Token minted"
        }
      },
      "swapTCforTPto(uint256,uint256,uint256,address)": {
        "params": {
          "i_": "Pegged Token index",
          "qTC_": "amount of Collateral to swap",
          "qTPmin_": "minimum amount of Pegged Token that `recipient_` expects to receive",
          "recipient_": "address who receives the Pegged Token"
        },
        "returns": {
          "qACFee": "amount of AC used to pay fee",
          "qFeeToken": "amount of Fee Token used by sender to pay fees. 0 if qAC is used instead",
          "qTPMinted": "amount of Pegged Token minted"
        }
      },
      "swapTCforTPtoViaVendor(uint256,uint256,uint256,address,address)": {
        "params": {
          "i_": "Pegged Token index",
          "qTC_": "amount of Collateral to swap",
          "qTPmin_": "minimum amount of Pegged Token that `recipient_` expects to receive",
          "recipient_": "address who receives the Pegged Token",
          "vendor_": "address who receives a markup"
        },
        "returns": {
          "qACFee": "amount of AC used to pay fee",
          "qFeeToken": "amount of Fee Token used by sender to pay fees. 0 if qAC is used instead",
          "qTPMinted": "amount of Pegged Token minted"
        }
      },
      "swapTPforTC(uint256,uint256,uint256)": {
        "params": {
          "i_": "Pegged Token index",
          "qTCmin_": "minimum amount of Collateral Token that the sender expects to receive",
          "qTP_": "amount of owned Pegged Token to swap"
        },
        "returns": {
          "qACFee": "amount of AC used to pay fee",
          "qFeeToken": "amount of Fee Token used by sender to pay fees. 0 if qAC is used instead",
          "qTCMinted": "amount of Collateral Token minted"
        }
      },
      "swapTPforTCViaVendor(uint256,uint256,uint256,address)": {
        "params": {
          "i_": "Pegged Token index",
          "qTCmin_": "minimum amount of Collateral Token that the sender expects to receive",
          "qTP_": "amount of owned Pegged Token to swap",
          "vendor_": "address who receives a markup"
        },
        "returns": {
          "qACFee": "amount of AC used to pay fee",
          "qFeeToken": "amount of Fee Token used by sender to pay fees. 0 if qAC is used instead",
          "qTCMinted": "amount of Collateral Token minted"
        }
      },
      "swapTPforTCto(uint256,uint256,uint256,address)": {
        "params": {
          "i_": "Pegged Token index",
          "qTCmin_": "minimum amount of Collateral Token that `recipient_` expects to receive",
          "qTP_": "amount of owned Pegged Token to swap",
          "recipient_": "address who receives the Collateral Token"
        },
        "returns": {
          "qACFee": "amount of AC used to pay fee",
          "qFeeToken": "amount of Fee Token used by sender to pay fees. 0 if qAC is used instead",
          "qTCMinted": "amount of Collateral Token minted"
        }
      },
      "swapTPforTCtoViaVendor(uint256,uint256,uint256,address,address)": {
        "params": {
          "i_": "Pegged Token index",
          "qTCmin_": "minimum amount of Collateral Token that `recipient_` expects to receive",
          "qTP_": "amount of owned Pegged Token to swap",
          "recipient_": "address who receives the Collateral Token",
          "vendor_": "address who receives a markup"
        },
        "returns": {
          "qACFee": "amount of AC used to pay fee",
          "qFeeToken": "amount of Fee Token used by sender to pay fees. 0 if qAC is used instead",
          "qTCMinted": "amount of Collateral Token minted"
        }
      },
      "swapTPforTP(uint256,uint256,uint256,uint256)": {
        "params": {
          "iFrom_": "owned Pegged Token index",
          "iTo_": "target Pegged Token index",
          "qTP_": "amount of owned Pegged Token to swap",
          "qTPmin_": "minimum amount of target Pegged Token that the sender expects to receive"
        },
        "returns": {
          "qACFee": "amount of AC used to pay fee",
          "qFeeToken": "amount of Fee Token used by sender to pay fees. 0 if qAC is used instead",
          "qTPMinted": "amount of Pegged Token minted"
        }
      },
      "swapTPforTPViaVendor(uint256,uint256,uint256,uint256,address)": {
        "params": {
          "iFrom_": "owned Pegged Token index",
          "iTo_": "target Pegged Token index",
          "qTP_": "amount of owned Pegged Token to swap",
          "qTPmin_": "minimum amount of target Pegged Token that the sender expects to receive",
          "vendor_": "address who receives a markup"
        },
        "returns": {
          "qACFee": "amount of AC used to pay fee",
          "qFeeToken": "amount of Fee Token used by sender to pay fees. 0 if qAC is used instead",
          "qTPMinted": "amount of Pegged Token minted"
        }
      },
      "swapTPforTPto(uint256,uint256,uint256,uint256,address)": {
        "params": {
          "iFrom_": "owned Pegged Token index",
          "iTo_": "target Pegged Token index",
          "qTP_": "amount of owned Pegged Token to swap",
          "qTPmin_": "minimum amount of target Pegged Token that `recipient_` expects to receive",
          "recipient_": "address who receives the target Pegged Token"
        },
        "returns": {
          "qACFee": "amount of AC used to pay fee",
          "qFeeToken": "amount of Fee Token used by sender to pay fees. 0 if qAC is used instead",
          "qTPMinted": "amount of Pegged Token minted"
        }
      },
      "swapTPforTPtoViaVendor(uint256,uint256,uint256,uint256,address,address)": {
        "params": {
          "iFrom_": "owned Pegged Token index",
          "iTo_": "target Pegged Token index",
          "qTP_": "amount of owned Pegged Token to swap",
          "qTPmin_": "minimum amount of target Pegged Token that `recipient_` expects to receive",
          "recipient_": "address who receives the target Pegged Token",
          "vendor_": "address who receives a markup"
        },
        "returns": {
          "qACFee": "amount of AC used to pay fee",
          "qFeeToken": "amount of Fee Token used by sender to pay fees. 0 if qAC is used instead",
          "qTPMinted": "amount of Pegged Token minted"
        }
      },
      "updateEmas()": {
        "details": "All price provider prices must be available, fails if not"
      },
      "upgradeTo(address)": {
        "details": "Upgrade the implementation of the proxy to `newImplementation`. Calls {_authorizeUpgrade}. Emits an {Upgraded} event."
      },
      "upgradeToAndCall(address,bytes)": {
        "details": "Upgrade the implementation of the proxy to `newImplementation`, and subsequently execute the function call encoded in `data`. Calls {_authorizeUpgrade}. Emits an {Upgraded} event."
      }
    },
    "stateVariables": {
      "__gap": {
        "details": "This empty reserved space is put in place to allow future versions to add new variables without shifting down storage in the inheritance chain. See https://docs.openzeppelin.com/contracts/4.x/upgradeable#storage_gaps"
      }
    },
    "title": "MocCACoinbase: Moc Collateral Asset Coinbase",
    "version": 1
  },
  "evm": {
    "bytecode": {
      "linkReferences": {},
      "opcodes": "PUSH1 0xA0 DUP1 PUSH1 0x40 MSTORE CALLVALUE PUSH3 0xE1 JUMPI ADDRESS PUSH1 0x80 MSTORE PUSH1 0x0 SLOAD SWAP1 PUSH1 0xFF DUP3 PUSH1 0x8 SHR AND PUSH3 0x8F JUMPI POP PUSH1 0xFF DUP1 DUP3 AND LT PUSH3 0x53 JUMPI JUMPDEST PUSH1 0x40 MLOAD PUSH2 0x5B37 SWAP1 DUP2 PUSH3 0xE7 DUP3 CODECOPY PUSH1 0x80 MLOAD DUP2 DUP2 DUP2 PUSH2 0x30DD ADD MSTORE DUP2 DUP2 PUSH2 0x327F ADD MSTORE PUSH2 0x3592 ADD MSTORE RETURN JUMPDEST PUSH1 0xFF SWAP1 DUP2 NOT AND OR PUSH1 0x0 SSTORE PUSH32 0x7F26B83FF96E1F2B6A682F133852F6798A09C465DA95921460CEFB3847402498 PUSH1 0x20 PUSH1 0x40 MLOAD PUSH1 0xFF DUP2 MSTORE LOG1 CODESIZE PUSH3 0x2C JUMP JUMPDEST PUSH3 0x461BCD PUSH1 0xE5 SHL DUP2 MSTORE PUSH1 0x20 PUSH1 0x4 DUP3 ADD MSTORE PUSH1 0x27 PUSH1 0x24 DUP3 ADD MSTORE PUSH32 0x496E697469616C697A61626C653A20636F6E747261637420697320696E697469 PUSH1 0x44 DUP3 ADD MSTORE PUSH7 0x616C697A696E67 PUSH1 0xC8 SHL PUSH1 0x64 DUP3 ADD MSTORE PUSH1 0x84 SWAP1 REVERT JUMPDEST PUSH1 0x0 DUP1 REVERT INVALID PUSH1 0x80 PUSH1 0x40 MSTORE PUSH1 0x4 CALLDATASIZE LT ISZERO PUSH2 0x2B JUMPI JUMPDEST CALLDATASIZE ISZERO PUSH2 0x19 JUMPI PUSH1 0x0 DUP1 REVERT JUMPDEST PUSH2 0x163 PUSH2 0x27 CALLVALUE DUP3 SLOAD PUSH2 0x480D JUMP JUMPDEST SWAP1 SSTORE STOP JUMPDEST PUSH1 0x0 PUSH1 0xE0 DUP2 CALLDATALOAD DUP2 SHR SWAP1 DUP2 PUSH4 0x1DDE6EF EQ PUSH2 0x4172 JUMPI DUP2 PUSH4 0x1F1B684 EQ PUSH2 0x412A JUMPI DUP2 PUSH4 0x4856E41 EQ PUSH2 0x40C9 JUMPI DUP2 PUSH4 0xAD8C234 EQ PUSH2 0x405F JUMPI DUP2 PUSH4 0xAED4F88 EQ PUSH2 0x3FFE JUMPI DUP2 PUSH4 0xBE9482D EQ PUSH2 0x3F91 JUMPI DUP2 PUSH4 0xC340A24 EQ PUSH2 0x3F68 JUMPI DUP2 PUSH4 0xC36D897 EQ PUSH2 0x3F49 JUMPI DUP2 PUSH4 0xD6AC463 EQ PUSH2 0x3F01 JUMPI DUP2 PUSH4 0xDF12A8B EQ PUSH2 0x3DFA JUMPI DUP2 PUSH4 0xE0A8FD2 EQ PUSH2 0x3DD4 JUMPI DUP2 PUSH4 0xF1E5E2B EQ PUSH2 0x3D8C JUMPI DUP2 PUSH4 0xF60F396 EQ PUSH2 0x3CB3 JUMPI DUP2 PUSH4 0x102FEFAC EQ PUSH2 0x3C49 JUMPI DUP2 PUSH4 0x17574BC5 EQ PUSH2 0x3AAB JUMPI DUP2 PUSH4 0x17DF0AB8 EQ PUSH2 0x39E2 JUMPI DUP2 PUSH4 0x1867E2F5 EQ PUSH2 0x39C3 JUMPI DUP2 PUSH4 0x1F79DA55 EQ PUSH2 0x3959 JUMPI DUP2 PUSH4 0x1FB0DDA0 EQ PUSH2 0x3938 JUMPI DUP2 PUSH4 0x1FE6A7AD EQ PUSH2 0x38FC JUMPI DUP2 PUSH4 0x2069F753 EQ PUSH2 0x38D6 JUMPI DUP2 PUSH4 0x23B98CDE EQ PUSH2 0x38AF JUMPI DUP2 PUSH4 0x27EAB2A1 EQ PUSH2 0x3867 JUMPI DUP2 PUSH4 0x2A20D57D EQ PUSH2 0x3848 JUMPI DUP2 PUSH4 0x2C43BD3B EQ PUSH2 0x3822 JUMPI DUP2 PUSH4 0x2D88AF4A EQ PUSH2 0x37C9 JUMPI DUP2 PUSH4 0x2DED50F0 EQ PUSH2 0x37AA JUMPI DUP2 PUSH4 0x31F64EC2 EQ PUSH2 0x370D JUMPI DUP2 PUSH4 0x333431FD EQ PUSH2 0x36EE JUMPI DUP2 PUSH4 0x33421C38 EQ PUSH2 0x35F9 JUMPI DUP2 PUSH4 0x3659CFE6 EQ PUSH2 0x3560 JUMPI DUP2 PUSH4 0x3BC4AC0A EQ PUSH2 0x353A JUMPI DUP2 PUSH4 0x3DBC50A9 EQ PUSH2 0x34E6 JUMPI DUP2 PUSH4 0x3F4BA83A EQ PUSH2 0x3469 JUMPI DUP2 PUSH4 0x4017936A EQ PUSH2 0x3424 JUMPI DUP2 PUSH4 0x407F0E34 EQ PUSH2 0x3405 JUMPI DUP2 PUSH4 0x471A80E3 EQ PUSH2 0x33A0 JUMPI DUP2 PUSH4 0x4B746001 EQ PUSH2 0x3353 JUMPI DUP2 PUSH4 0x4D977E78 EQ PUSH2 0x3334 JUMPI DUP2 PUSH4 0x4E1F907A EQ PUSH2 0x330A JUMPI DUP2 PUSH4 0x4F0F27EE EQ PUSH2 0x32EB JUMPI DUP2 PUSH4 0x4F1EF286 EQ PUSH2 0x31F7 JUMPI DUP2 PUSH4 0x5210570C EQ PUSH2 0x31CF JUMPI DUP2 PUSH4 0x5241271C EQ PUSH2 0x31A0 JUMPI DUP2 PUSH4 0x52D1902D EQ PUSH2 0x30CA JUMPI DUP2 PUSH4 0x543AEB48 EQ PUSH2 0x30A4 JUMPI DUP2 PUSH4 0x54A73C62 EQ PUSH2 0x3042 JUMPI DUP2 PUSH4 0x5C616A73 EQ PUSH2 0x2D98 JUMPI DUP2 PUSH4 0x5C975ABB EQ PUSH2 0x2D72 JUMPI DUP2 PUSH4 0x5D65D045 EQ PUSH2 0x2D3E JUMPI DUP2 PUSH4 0x5E1E8928 EQ PUSH2 0x2CDA JUMPI DUP2 PUSH4 0x60009E0B EQ PUSH2 0x2CB0 JUMPI DUP2 PUSH4 0x647846A5 EQ PUSH2 0x2C86 JUMPI DUP2 PUSH4 0x662013F4 EQ PUSH2 0x2C62 JUMPI DUP2 PUSH4 0x68274357 EQ PUSH2 0x2C37 JUMPI DUP2 PUSH4 0x6B5488DF EQ PUSH2 0x2C18 JUMPI DUP2 PUSH4 0x70713468 EQ PUSH2 0x2BF2 JUMPI DUP2 PUSH4 0x71820F12 EQ PUSH2 0x2B8B JUMPI DUP2 PUSH4 0x7554FFFD EQ PUSH2 0x2B6C JUMPI DUP2 PUSH4 0x7750BA0C EQ PUSH2 0x2B46 JUMPI DUP2 PUSH4 0x79F9A91C EQ PUSH2 0x2B27 JUMPI DUP2 PUSH4 0x7A193C31 EQ PUSH2 0x2B08 JUMPI DUP2 PUSH4 0x7A4FF1D9 EQ PUSH2 0x2AE2 JUMPI DUP2 PUSH4 0x7A727FE8 EQ PUSH2 0x2AC3 JUMPI DUP2 PUSH4 0x7AD2819C EQ PUSH2 0x2A52 JUMPI DUP2 PUSH4 0x7AF5758C EQ PUSH2 0x2A2C JUMPI DUP2 PUSH4 0x7C287999 EQ PUSH2 0x29C2 JUMPI DUP2 PUSH4 0x7CBA2383 EQ PUSH2 0x299C JUMPI DUP2 PUSH4 0x7D8E0314 EQ PUSH2 0x296D JUMPI DUP2 PUSH4 0x7DC4E77F EQ PUSH2 0x282A JUMPI DUP2 PUSH4 0x7F01C715 EQ PUSH2 0x2800 JUMPI DUP2 PUSH4 0x826FCD58 EQ PUSH2 0x27DF JUMPI DUP2 PUSH4 0x82A5792C EQ PUSH2 0x2705 JUMPI DUP2 PUSH4 0x8456CB59 EQ PUSH2 0x266C JUMPI DUP2 PUSH4 0x8CFA4241 EQ PUSH2 0x264D JUMPI DUP2 PUSH4 0x904AA85B EQ PUSH2 0x262E JUMPI DUP2 PUSH4 0x9195C85B EQ PUSH2 0x260D JUMPI DUP2 PUSH4 0x91F388D8 EQ PUSH2 0x25A1 JUMPI DUP2 PUSH4 0x979D9A88 EQ PUSH2 0x2133 JUMPI DUP2 PUSH4 0x9839EE85 EQ PUSH2 0x1F46 JUMPI DUP2 PUSH4 0x9853C35A EQ PUSH2 0x1F1C JUMPI DUP2 PUSH4 0x9ABB14C9 EQ PUSH2 0x1E52 JUMPI DUP2 PUSH4 0x9AD6659D EQ PUSH2 0x1E1D JUMPI DUP2 PUSH4 0x9BDD7CCE EQ PUSH2 0x1BE8 JUMPI DUP2 PUSH4 0x9CABFC00 EQ PUSH2 0x1B9B JUMPI DUP2 PUSH4 0x9FD0506D EQ PUSH2 0x1B6E JUMPI DUP2 PUSH4 0xA8E9AC30 EQ PUSH2 0x1B4C JUMPI DUP2 PUSH4 0xAC4FC1A8 EQ PUSH2 0x1A1C JUMPI DUP2 PUSH4 0xAEA038DC EQ PUSH2 0x19FD JUMPI DUP2 PUSH4 0xB3903B39 EQ PUSH2 0x19C6 JUMPI DUP2 PUSH4 0xB7AEF837 EQ PUSH2 0x1868 JUMPI DUP2 PUSH4 0xBAD25A21 EQ PUSH2 0x16F0 JUMPI DUP2 PUSH4 0xBB4872DE EQ PUSH2 0x16CD JUMPI DUP2 PUSH4 0xBE22B4E1 EQ PUSH2 0x15C4 JUMPI DUP2 PUSH4 0xBECACA6B EQ PUSH2 0x159E JUMPI DUP2 PUSH4 0xC00F538D EQ PUSH2 0x1578 JUMPI DUP2 PUSH4 0xC039CC69 EQ PUSH2 0x1532 JUMPI DUP2 PUSH4 0xC6E06D89 EQ PUSH2 0x1349 JUMPI DUP2 PUSH4 0xC84353C9 EQ PUSH2 0x1323 JUMPI DUP2 PUSH4 0xCF351C1D EQ PUSH2 0x12DB JUMPI DUP2 PUSH4 0xD1A0FAA0 EQ PUSH2 0x12BD JUMPI DUP2 PUSH4 0xD8233ECC EQ PUSH2 0x125D JUMPI DUP2 PUSH4 0xDB796072 EQ PUSH2 0x121E JUMPI DUP2 PUSH4 0xDE08160F EQ PUSH2 0x11E1 JUMPI DUP2 PUSH4 0xDE8D520A EQ PUSH2 0x11B0 JUMPI DUP2 PUSH4 0xE4012945 EQ PUSH2 0x1020 JUMPI DUP2 PUSH4 0xE4C0AAF4 EQ PUSH2 0xFD9 JUMPI DUP2 PUSH4 0xE6A683E0 EQ PUSH2 0xF91 JUMPI DUP2 PUSH4 0xE6B1627C EQ PUSH2 0xF4E JUMPI DUP2 PUSH4 0xE7C25978 EQ PUSH2 0xF2A JUMPI DUP2 PUSH4 0xE8859A15 EQ PUSH2 0xF0F JUMPI DUP2 PUSH4 0xEC629679 EQ PUSH2 0xCE2 JUMPI DUP2 PUSH4 0xF13F4054 EQ PUSH2 0xCB8 JUMPI DUP2 PUSH4 0xF26114AA EQ PUSH2 0xC4F JUMPI DUP2 PUSH4 0xF2808778 EQ PUSH2 0xC29 JUMPI DUP2 PUSH4 0xF30B5614 EQ PUSH2 0xC0A JUMPI DUP2 PUSH4 0xF375CFBA EQ PUSH2 0xBEB JUMPI DUP2 PUSH4 0xF5319CC8 EQ PUSH2 0x961 JUMPI POP DUP1 PUSH4 0xFA6E83BD EQ PUSH2 0x942 JUMPI DUP1 PUSH4 0xFA79589E EQ PUSH2 0x8F0 JUMPI DUP1 PUSH4 0xFB3BFCEA EQ PUSH2 0x779 JUMPI DUP1 PUSH4 0xFCF207D4 EQ PUSH2 0x5A4 JUMPI PUSH4 0xFDA70F8B EQ PUSH2 0x583 JUMPI POP PUSH2 0xE JUMP JUMPDEST CALLVALUE PUSH2 0x5A1 JUMPI DUP1 PUSH1 0x3 NOT CALLDATASIZE ADD SLT PUSH2 0x5A1 JUMPI PUSH1 0x20 PUSH2 0x16E SLOAD PUSH1 0x40 MLOAD SWAP1 DUP2 MSTORE RETURN JUMPDEST DUP1 REVERT JUMPDEST PUSH2 0x6A0 PUSH2 0x5B2 CALLDATASIZE PUSH1 0x4 PUSH2 0x42B4 JUMP JUMPDEST SWAP4 SWAP2 PUSH1 0x40 SWAP4 SWAP2 SWAP4 MLOAD SWAP2 PUSH2 0x5C6 PUSH1 0xC0 DUP5 PUSH2 0x42F6 JUMP JUMPDEST DUP3 MSTORE PUSH1 0x20 DUP3 ADD SWAP1 DUP2 MSTORE PUSH1 0x40 DUP3 ADD SWAP5 CALLVALUE DUP7 MSTORE PUSH1 0x60 DUP4 ADD CALLER DUP2 MSTORE PUSH1 0x80 DUP5 ADD SWAP6 PUSH1 0x1 DUP1 PUSH1 0xA0 SHL SUB DUP1 SWAP2 AND DUP8 MSTORE DUP1 PUSH1 0xA0 DUP7 ADD SWAP4 AND DUP4 MSTORE PUSH2 0x600 PUSH2 0x4D05 JUMP JUMPDEST PUSH2 0x608 PUSH2 0x5AD0 JUMP JUMPDEST PUSH2 0x610 PUSH2 0x59AE JUMP JUMPDEST PUSH2 0x665 PUSH2 0x64D PUSH2 0x61E PUSH2 0x58F2 JUMP JUMPDEST SWAP2 SWAP1 PUSH2 0x641 PUSH2 0x62E DUP11 MLOAD DUP6 PUSH2 0x4830 JUMP JUMPDEST MLOAD SWAP4 PUSH2 0x63B DUP6 DUP13 MLOAD PUSH2 0x5199 JUMP JUMPDEST DUP3 PUSH2 0x4DDB JUMP JUMPDEST SWAP2 DUP5 DUP12 MLOAD DUP12 MLOAD SWAP1 PUSH2 0x51F0 JUMP JUMPDEST PUSH2 0x660 PUSH8 0xDE0B6B3A7640000 DUP8 MLOAD PUSH2 0x4957 JUMP JUMPDEST PUSH2 0x496A JUMP JUMPDEST SWAP4 PUSH2 0x66E PUSH2 0x4CB6 JUMP JUMPDEST POP PUSH2 0x695 DUP3 DUP5 MLOAD AND DUP7 DUP5 DUP8 MLOAD AND PUSH2 0x688 DUP11 MLOAD PUSH2 0x176 PUSH2 0x4198 JUMP JUMPDEST SWAP1 SLOAD SWAP1 PUSH1 0x3 SHL SHR SWAP3 PUSH2 0x4E59 JUMP JUMPDEST SWAP7 SWAP2 DUP3 SWAP10 SWAP2 SWAP10 PUSH2 0x480D JUMP JUMPDEST SWAP9 DUP11 MLOAD DUP1 DUP12 GT PUSH2 0x75B JUMPI POP DUP10 ISZERO PUSH2 0x749 JUMPI PUSH1 0x40 SWAP11 PUSH2 0x72A DUP6 SWAP5 PUSH2 0x730 SWAP5 DUP14 SWAP5 DUP8 DUP14 DUP14 PUSH2 0x73D SWAP16 DUP4 DUP15 SWAP2 MLOAD SWAP2 MLOAD AND SWAP1 PUSH32 0xB1C19484081F58B25DE95EB3695CAEA3C2167249920A6439EC0253054D343E73 DUP12 DUP7 DUP9 MLOAD AND SWAP5 PUSH2 0x71B DUP12 MLOAD SWAP2 DUP1 MLOAD SWAP1 PUSH1 0x20 DUP2 ADD MLOAD PUSH1 0x40 PUSH1 0x60 SWAP1 DUP4 ADD MLOAD SWAP3 ADD MLOAD SWAP3 PUSH1 0x40 MLOAD SWAP7 DUP8 SWAP7 DUP8 PUSH2 0x4CDD JUMP JUMPDEST SUB SWAP1 LOG4 MLOAD SWAP4 MLOAD SWAP2 MLOAD AND SWAP3 PUSH2 0x5100 JUMP JUMPDEST MLOAD PUSH2 0x4A15 JUMP JUMPDEST SWAP3 MLOAD AND SWAP3 MLOAD AND SWAP2 DUP1 PUSH2 0x5433 JUMP JUMPDEST DUP3 MLOAD SWAP2 DUP3 MSTORE PUSH1 0x20 DUP3 ADD MSTORE RETURN JUMPDEST PUSH1 0x40 MLOAD PUSH4 0xF3E39B5D PUSH1 0xE0 SHL DUP2 MSTORE PUSH1 0x4 SWAP1 REVERT JUMPDEST PUSH1 0x44 SWAP1 DUP12 PUSH1 0x40 MLOAD SWAP2 PUSH4 0xB63F1A7 PUSH1 0xE0 SHL DUP4 MSTORE PUSH1 0x4 DUP4 ADD MSTORE PUSH1 0x24 DUP3 ADD MSTORE REVERT JUMPDEST POP PUSH1 0x60 CALLDATASIZE PUSH1 0x3 NOT ADD SLT PUSH2 0x5A1 JUMPI PUSH1 0x1 PUSH1 0x1 PUSH1 0xA0 SHL SUB PUSH1 0x24 CALLDATALOAD DUP2 DUP2 AND SWAP1 DUP2 SWAP1 SUB PUSH2 0x8EB JUMPI PUSH1 0x44 CALLDATALOAD DUP3 DUP2 AND DUP1 SWAP2 SUB PUSH2 0x8EB JUMPI PUSH2 0x84B SWAP1 PUSH1 0x40 MLOAD PUSH2 0x7BB PUSH1 0xA0 DUP3 PUSH2 0x42F6 JUMP JUMPDEST PUSH1 0x4 CALLDATALOAD DUP2 MSTORE PUSH1 0x20 DUP2 ADD SWAP2 CALLVALUE DUP4 MSTORE PUSH1 0x40 DUP3 ADD CALLER DUP2 MSTORE PUSH1 0x60 DUP4 ADD SWAP6 DUP7 MSTORE PUSH1 0x80 DUP4 ADD SWAP2 DUP3 MSTORE PUSH2 0x7E5 PUSH2 0x4D05 JUMP JUMPDEST PUSH2 0x7ED PUSH2 0x5AD0 JUMP JUMPDEST PUSH8 0xDE0B6B3A7640000 PUSH2 0x81F PUSH2 0x819 PUSH2 0x810 PUSH2 0x807 PUSH2 0x4C1C JUMP JUMPDEST PUSH2 0x17B SLOAD PUSH2 0x4DDB JUMP JUMPDEST DUP8 MLOAD SWAP3 SWAP2 PUSH2 0x4E1E JUMP JUMPDEST SWAP1 PUSH2 0x4957 JUMP JUMPDEST DIV SWAP7 PUSH2 0x829 PUSH2 0x4CB6 JUMP JUMPDEST POP PUSH2 0x840 DUP2 DUP4 MLOAD AND DUP10 DUP4 DUP7 MLOAD AND PUSH2 0x16E SLOAD SWAP3 PUSH2 0x4E59 JUMP JUMPDEST SWAP6 SWAP2 DUP11 SWAP9 SWAP2 SWAP9 PUSH2 0x480D JUMP JUMPDEST SWAP8 DUP7 MLOAD DUP1 DUP11 GT PUSH2 0x8CD JUMPI POP DUP9 ISZERO PUSH2 0x749 JUMPI DUP9 PUSH2 0x73D SWAP8 PUSH2 0x72A PUSH2 0x730 SWAP4 PUSH1 0x40 SWAP14 DUP8 DUP1 SWAP8 DUP13 DUP3 DUP13 MLOAD AND PUSH32 0x73EF11A21CABAB55CA448E6E2AE4B60BDA75ED8109E2496084C92DC17B8334DB DUP10 DUP6 DUP9 MLOAD AND SWAP4 PUSH2 0x8C0 DUP7 MLOAD SWAP2 DUP1 MLOAD SWAP1 PUSH1 0x20 DUP2 ADD MLOAD PUSH1 0x40 PUSH1 0x60 SWAP1 DUP4 ADD MLOAD SWAP3 ADD MLOAD SWAP3 PUSH1 0x40 MLOAD SWAP7 DUP8 SWAP7 DUP8 PUSH2 0x4CDD JUMP JUMPDEST SUB SWAP1 LOG3 MLOAD SWAP3 MLOAD AND SWAP2 PUSH2 0x4D27 JUMP JUMPDEST PUSH1 0x44 SWAP1 DUP11 PUSH1 0x40 MLOAD SWAP2 PUSH4 0xB63F1A7 PUSH1 0xE0 SHL DUP4 MSTORE PUSH1 0x4 DUP4 ADD MSTORE PUSH1 0x24 DUP3 ADD MSTORE REVERT JUMPDEST PUSH1 0x0 DUP1 REVERT JUMPDEST POP CALLVALUE PUSH2 0x5A1 JUMPI PUSH1 0x20 CALLDATASIZE PUSH1 0x3 NOT ADD SLT PUSH2 0x5A1 JUMPI PUSH1 0x20 PUSH2 0x93A PUSH2 0x92C PUSH1 0x4 CALLDATALOAD PUSH2 0x915 PUSH2 0x58F2 JUMP JUMPDEST SWAP1 PUSH2 0x934 PUSH2 0x923 DUP5 DUP5 PUSH2 0x4830 JUMP JUMPDEST MLOAD SWAP5 DUP6 SWAP4 PUSH2 0x4844 JUMP JUMPDEST SWAP6 SWAP1 SWAP5 PUSH2 0x584A JUMP JUMPDEST SWAP1 PUSH2 0x522B JUMP JUMPDEST PUSH1 0x40 MLOAD SWAP1 DUP2 MSTORE RETURN JUMPDEST POP CALLVALUE PUSH2 0x5A1 JUMPI DUP1 PUSH1 0x3 NOT CALLDATASIZE ADD SLT PUSH2 0x5A1 JUMPI PUSH1 0x20 PUSH2 0x16C SLOAD PUSH1 0x40 MLOAD SWAP1 DUP2 MSTORE RETURN JUMPDEST SWAP1 POP PUSH2 0x96E CALLDATASIZE PUSH1 0x4 PUSH2 0x41DA JUMP JUMPDEST SWAP4 PUSH2 0x97F PUSH1 0x40 SWAP5 SWAP3 SWAP5 MLOAD SWAP7 DUP8 PUSH2 0x42F6 JUMP JUMPDEST DUP6 MSTORE PUSH1 0x20 DUP6 ADD MSTORE PUSH1 0x40 DUP5 ADD MSTORE CALLVALUE PUSH1 0x60 DUP5 ADD MSTORE CALLER PUSH1 0x80 DUP5 ADD MSTORE PUSH1 0x1 PUSH1 0x1 PUSH1 0xA0 SHL SUB SWAP1 DUP2 AND PUSH1 0xA0 DUP5 ADD MSTORE AND PUSH1 0xC0 DUP3 ADD MSTORE PUSH2 0x9B5 PUSH2 0x4D05 JUMP JUMPDEST PUSH2 0x9BD PUSH2 0x5AD0 JUMP JUMPDEST PUSH2 0x9C5 PUSH2 0x59AE JUMP JUMPDEST PUSH2 0x9CD PUSH2 0x58F2 JUMP JUMPDEST SWAP3 SWAP1 PUSH2 0xA1F PUSH2 0x9F3 PUSH2 0x9E0 DUP6 MLOAD DUP8 PUSH2 0x4830 JUMP JUMPDEST MLOAD SWAP6 PUSH2 0x9ED DUP8 DUP8 MLOAD PUSH2 0x5199 JUMP JUMPDEST DUP4 PUSH2 0x4DDB JUMP JUMPDEST SWAP1 PUSH2 0xA04 DUP3 DUP3 DUP7 PUSH1 0x20 DUP11 ADD MLOAD PUSH2 0x576F JUMP JUMPDEST PUSH1 0x20 DUP7 ADD MLOAD PUSH8 0xDE0B6B3A7640000 SWAP4 DUP5 SWAP2 PUSH2 0x819 DUP6 DUP6 PUSH2 0x4E1E JUMP JUMPDEST DIV SWAP4 DUP5 ISZERO PUSH2 0x749 JUMPI PUSH2 0xA69 SWAP4 PUSH2 0xA5F PUSH2 0xA55 DUP11 PUSH2 0xA50 PUSH1 0x20 DUP13 ADD MLOAD PUSH2 0x819 DUP9 PUSH2 0xA4B DUP12 PUSH2 0x163 SLOAD PUSH2 0x4A15 JUMP JUMPDEST PUSH2 0x4A15 JUMP JUMPDEST PUSH2 0x4957 JUMP JUMPDEST PUSH2 0x166 SLOAD SWAP1 PUSH2 0x496A JUMP JUMPDEST DIV SWAP8 DUP9 DUP9 MLOAD PUSH2 0x51F0 JUMP JUMPDEST PUSH1 0x40 DUP4 ADD MLOAD DUP1 DUP6 LT PUSH2 0xBCD JUMPI POP PUSH2 0xAA5 SWAP1 PUSH2 0xA82 PUSH2 0x4CB6 JUMP JUMPDEST POP PUSH1 0x80 DUP5 ADD MLOAD PUSH1 0xC0 DUP6 ADD MLOAD PUSH2 0x172 SLOAD SWAP3 SWAP2 PUSH1 0x1 PUSH1 0x1 PUSH1 0xA0 SHL SUB SWAP2 DUP3 AND SWAP2 AND PUSH2 0x4E59 JUMP JUMPDEST SWAP2 SWAP4 SWAP1 SWAP3 PUSH1 0x60 DUP3 ADD MLOAD DUP1 DUP7 GT PUSH2 0xBAE JUMPI POP SWAP2 DUP2 PUSH2 0xB61 PUSH2 0xBAA SWAP6 SWAP5 PUSH2 0xB8D SWAP5 MLOAD PUSH1 0x1 DUP1 PUSH1 0xA0 SHL SUB PUSH1 0x80 DUP6 ADD MLOAD AND PUSH1 0x1 DUP1 PUSH1 0xA0 SHL SUB PUSH1 0xA0 DUP7 ADD MLOAD AND SWAP2 PUSH32 0xF4287B96E269F789F166DB491B07456566F468352771E466CE088E98D6007A0C DUP13 PUSH1 0x20 DUP9 ADD MLOAD PUSH2 0xB29 DUP11 MLOAD DUP12 PUSH1 0x20 DUP2 ADD MLOAD PUSH1 0x60 PUSH1 0x40 DUP4 ADD MLOAD SWAP3 ADD MLOAD SWAP3 PUSH1 0x40 MLOAD SWAP7 DUP8 SWAP7 DUP8 PUSH2 0x4CDD JUMP JUMPDEST SUB SWAP1 LOG4 PUSH2 0xB48 PUSH1 0x20 DUP5 ADD MLOAD DUP3 PUSH1 0x1 DUP1 PUSH1 0xA0 SHL SUB PUSH1 0x80 DUP8 ADD MLOAD AND SWAP2 PUSH2 0x53C8 JUMP JUMPDEST DUP3 MLOAD PUSH1 0xA0 DUP5 ADD MLOAD PUSH1 0x1 PUSH1 0x1 PUSH1 0xA0 SHL SUB AND SWAP2 SWAP1 DUP11 SWAP1 PUSH2 0x5100 JUMP JUMPDEST PUSH2 0xB6F DUP7 PUSH1 0x60 DUP4 ADD MLOAD PUSH2 0x4A15 JUMP JUMPDEST PUSH1 0x80 DUP3 ADD MLOAD PUSH1 0xC0 SWAP1 SWAP3 ADD MLOAD PUSH1 0x1 PUSH1 0x1 PUSH1 0xA0 SHL SUB SWAP1 DUP2 AND SWAP3 AND DUP1 PUSH2 0x5433 JUMP JUMPDEST PUSH1 0x40 MLOAD SWAP4 DUP5 SWAP4 DUP5 PUSH1 0x40 SWAP2 SWAP5 SWAP4 SWAP3 PUSH1 0x60 DUP3 ADD SWAP6 DUP3 MSTORE PUSH1 0x20 DUP3 ADD MSTORE ADD MSTORE JUMP JUMPDEST SUB SWAP1 RETURN JUMPDEST PUSH1 0x44 SWAP1 DUP5 MLOAD PUSH1 0x40 MLOAD SWAP2 PUSH4 0xB63F1A7 PUSH1 0xE0 SHL DUP4 MSTORE PUSH1 0x4 DUP4 ADD MSTORE PUSH1 0x24 DUP3 ADD MSTORE REVERT JUMPDEST PUSH1 0x44 SWAP1 DUP6 PUSH1 0x40 MLOAD SWAP2 PUSH4 0x272E3F59 PUSH1 0xE2 SHL DUP4 MSTORE PUSH1 0x4 DUP4 ADD MSTORE PUSH1 0x24 DUP3 ADD MSTORE REVERT JUMPDEST DUP3 CALLVALUE PUSH2 0x5A1 JUMPI DUP1 PUSH1 0x3 NOT CALLDATASIZE ADD SLT PUSH2 0x5A1 JUMPI PUSH1 0x20 PUSH2 0x173 SLOAD PUSH1 0x40 MLOAD SWAP1 DUP2 MSTORE RETURN JUMPDEST DUP3 CALLVALUE PUSH2 0x5A1 JUMPI DUP1 PUSH1 0x3 NOT CALLDATASIZE ADD SLT PUSH2 0x5A1 JUMPI PUSH1 0x20 PUSH2 0x163 SLOAD PUSH1 0x40 MLOAD SWAP1 DUP2 MSTORE RETURN JUMPDEST DUP3 CALLVALUE PUSH2 0x5A1 JUMPI PUSH1 0x20 CALLDATASIZE PUSH1 0x3 NOT ADD SLT PUSH2 0x5A1 JUMPI PUSH2 0xC43 PUSH2 0x5A42 JUMP JUMPDEST PUSH1 0x4 CALLDATALOAD PUSH2 0x16E SSTORE PUSH1 0x40 MLOAD RETURN JUMPDEST SWAP1 POP CALLVALUE PUSH2 0xCB4 JUMPI CALLDATASIZE PUSH1 0x3 NOT ADD SLT PUSH2 0x5A1 JUMPI PUSH2 0xC68 PUSH2 0x5A42 JUMP JUMPDEST PUSH1 0x40 MLOAD PUSH4 0x79308A55 PUSH1 0xE1 SHL PUSH1 0x20 DUP3 ADD MSTORE PUSH2 0xCAE SWAP1 PUSH2 0xC9C DUP2 PUSH2 0xC8E PUSH1 0x4 PUSH1 0x24 DUP4 ADD PUSH2 0x57AC JUMP JUMPDEST SUB PUSH1 0x1F NOT DUP2 ADD DUP4 MSTORE DUP3 PUSH2 0x42F6 JUMP JUMPDEST PUSH2 0x21C SLOAD PUSH1 0x1 PUSH1 0x1 PUSH1 0xA0 SHL SUB AND PUSH2 0x52A1 JUMP JUMPDEST POP PUSH1 0x40 MLOAD RETURN JUMPDEST POP DUP1 REVERT JUMPDEST DUP3 CALLVALUE PUSH2 0x5A1 JUMPI DUP1 PUSH1 0x3 NOT CALLDATASIZE ADD SLT PUSH2 0x5A1 JUMPI PUSH2 0x162 SLOAD PUSH1 0x40 MLOAD PUSH1 0x1 PUSH1 0x1 PUSH1 0xA0 SHL SUB SWAP1 SWAP2 AND DUP2 MSTORE PUSH1 0x20 SWAP1 RETURN JUMPDEST DUP3 PUSH2 0xCEE CALLDATASIZE PUSH1 0x4 PUSH2 0x42B4 JUMP JUMPDEST SWAP1 SWAP3 SWAP2 PUSH1 0x40 MLOAD SWAP3 PUSH2 0xD00 PUSH1 0xC0 DUP6 PUSH2 0x42F6 JUMP JUMPDEST DUP4 MSTORE PUSH1 0x20 DUP4 ADD SWAP1 DUP2 MSTORE PUSH1 0x40 DUP4 ADD SWAP3 CALLVALUE DUP5 MSTORE PUSH1 0x60 DUP2 ADD SWAP3 CALLER DUP5 MSTORE PUSH1 0x80 DUP3 ADD SWAP4 PUSH1 0x1 DUP1 PUSH1 0xA0 SHL SUB DUP1 SWAP8 AND DUP6 MSTORE DUP7 PUSH1 0xA0 DUP5 ADD SWAP3 AND DUP3 MSTORE PUSH2 0xD3B PUSH2 0x4D05 JUMP JUMPDEST PUSH2 0xD43 PUSH2 0x5AD0 JUMP JUMPDEST PUSH2 0xD4B PUSH2 0x59AE JUMP JUMPDEST PUSH2 0xD53 PUSH2 0x58F2 JUMP JUMPDEST SWAP8 SWAP1 SWAP9 PUSH2 0xD61 DUP6 MLOAD DUP11 PUSH2 0x4830 JUMP JUMPDEST MLOAD SWAP10 PUSH2 0xD6E DUP12 DUP8 MLOAD PUSH2 0x5199 JUMP JUMPDEST PUSH2 0xD7B DUP11 PUSH2 0x17C SLOAD PUSH2 0x4DDB JUMP JUMPDEST POP POP PUSH2 0xD91 PUSH2 0xD8B DUP9 MLOAD SWAP12 PUSH2 0x4844 JUMP JUMPDEST SWAP1 PUSH2 0x4E1E JUMP JUMPDEST SWAP1 PUSH8 0xDE0B6B3A763FFFF NOT DUP2 ADD SWAP1 DUP2 GT PUSH2 0xEFB JUMPI SWAP1 PUSH2 0xDE3 DUP13 PUSH2 0x660 PUSH2 0xDC5 DUP15 SWAP16 PUSH2 0xE14 SWAP14 SWAP15 SWAP16 PUSH2 0xDE9 SWAP8 PUSH2 0x660 SWAP2 PUSH2 0x4957 JUMP JUMPDEST SWAP4 PUSH2 0xDDD PUSH8 0xDE0B6B3A7640000 SWAP2 PUSH2 0x660 DUP4 DUP9 PUSH2 0x4957 JUMP JUMPDEST SWAP16 PUSH2 0x4957 JUMP JUMPDEST SWAP1 PUSH2 0x480D JUMP JUMPDEST SWAP8 PUSH2 0xDF2 PUSH2 0x4CB6 JUMP JUMPDEST POP PUSH2 0xE09 DUP4 DUP6 MLOAD AND DUP11 DUP6 DUP9 MLOAD AND PUSH2 0x174 SLOAD SWAP3 PUSH2 0x4E59 JUMP JUMPDEST SWAP8 SWAP2 DUP12 SWAP11 SWAP2 SWAP11 PUSH2 0x480D JUMP JUMPDEST SWAP11 DUP1 MLOAD DUP1 DUP14 GT PUSH2 0xEDD JUMPI POP DUP12 ISZERO PUSH2 0x749 JUMPI PUSH2 0x72A DUP10 DUP7 SWAP6 DUP16 SWAP6 DUP16 SWAP6 PUSH2 0xBAA SWAP16 SWAP1 PUSH2 0xED1 PUSH2 0xB8D SWAP16 SWAP10 DUP16 SWAP4 PUSH2 0x730 SWAP12 DUP16 DUP8 SWAP1 DUP16 SWAP8 PUSH32 0x3D9B2786930E9C1E492D52AF3CC38BD2FFE9405D82B4997053A26A8956056200 SWAP1 DUP16 PUSH2 0xEC4 DUP9 SWAP2 DUP13 DUP1 DUP14 MLOAD SWAP8 MLOAD AND SWAP8 MLOAD AND SWAP8 MLOAD SWAP4 DUP1 MLOAD PUSH1 0x20 DUP3 ADD MLOAD SWAP1 PUSH1 0x60 PUSH1 0x40 DUP5 ADD MLOAD SWAP4 ADD MLOAD SWAP4 PUSH1 0x40 MLOAD SWAP8 DUP9 SWAP8 DUP9 SWAP4 SWAP1 SWAP8 SWAP7 SWAP6 SWAP3 PUSH1 0xC0 SWAP6 SWAP3 PUSH1 0xE0 DUP7 ADD SWAP10 DUP7 MSTORE PUSH1 0x20 DUP7 ADD MSTORE PUSH1 0x40 DUP6 ADD MSTORE PUSH1 0x60 DUP5 ADD MSTORE PUSH1 0x80 DUP4 ADD MSTORE PUSH1 0xA0 DUP3 ADD MSTORE ADD MSTORE JUMP JUMPDEST SUB SWAP1 LOG4 DUP5 DUP7 MLOAD AND SWAP2 PUSH2 0x4D27 JUMP JUMPDEST MLOAD SWAP4 MLOAD SWAP2 MLOAD AND SWAP3 PUSH2 0x5100 JUMP JUMPDEST PUSH1 0x44 SWAP1 DUP14 PUSH1 0x40 MLOAD SWAP2 PUSH4 0xB63F1A7 PUSH1 0xE0 SHL DUP4 MSTORE PUSH1 0x4 DUP4 ADD MSTORE PUSH1 0x24 DUP3 ADD MSTORE REVERT JUMPDEST PUSH4 0x4E487B71 PUSH1 0xE0 SHL DUP4 MSTORE PUSH1 0x11 PUSH1 0x4 MSTORE PUSH1 0x24 DUP4 REVERT JUMPDEST DUP3 CALLVALUE PUSH2 0x5A1 JUMPI DUP1 PUSH1 0x3 NOT CALLDATASIZE ADD SLT PUSH2 0x5A1 JUMPI PUSH1 0x20 PUSH2 0x93A PUSH2 0x580D JUMP JUMPDEST DUP3 CALLVALUE PUSH2 0x5A1 JUMPI DUP1 PUSH1 0x3 NOT CALLDATASIZE ADD SLT PUSH2 0x5A1 JUMPI PUSH1 0x20 PUSH1 0xFF PUSH2 0x17D SLOAD AND PUSH1 0x40 MLOAD SWAP1 ISZERO ISZERO DUP2 MSTORE RETURN JUMPDEST DUP3 CALLVALUE PUSH2 0x5A1 JUMPI PUSH1 0x20 CALLDATASIZE PUSH1 0x3 NOT ADD SLT PUSH2 0x5A1 JUMPI PUSH1 0x4 CALLDATALOAD SWAP1 PUSH2 0x1B4 SWAP1 DUP2 SLOAD DUP4 LT ISZERO PUSH2 0x5A1 JUMPI PUSH1 0x40 PUSH2 0xF7D DUP5 DUP5 PUSH2 0x42DA JUMP JUMPDEST POP PUSH1 0x1 DUP2 SLOAD SWAP2 ADD SLOAD DUP3 MLOAD SWAP2 DUP3 MSTORE PUSH1 0x20 DUP3 ADD MSTORE RETURN JUMPDEST DUP3 CALLVALUE PUSH2 0x5A1 JUMPI PUSH1 0x20 CALLDATASIZE PUSH1 0x3 NOT ADD SLT PUSH2 0x5A1 JUMPI PUSH1 0x4 CALLDATALOAD PUSH1 0x1 PUSH1 0x1 PUSH1 0xA0 SHL SUB DUP2 AND SWAP1 DUP2 SWAP1 SUB PUSH2 0x8EB JUMPI PUSH2 0xFC0 PUSH2 0x5A42 JUMP JUMPDEST PUSH2 0x21C DUP1 SLOAD PUSH1 0x1 PUSH1 0x1 PUSH1 0xA0 SHL SUB NOT AND SWAP1 SWAP2 OR SWAP1 SSTORE PUSH1 0x40 MLOAD RETURN JUMPDEST DUP3 CALLVALUE PUSH2 0x5A1 JUMPI PUSH1 0x20 CALLDATASIZE PUSH1 0x3 NOT ADD SLT PUSH2 0x5A1 JUMPI PUSH1 0x4 CALLDATALOAD PUSH1 0x1 PUSH1 0x1 PUSH1 0xA0 SHL SUB DUP2 AND SWAP1 DUP2 SWAP1 SUB PUSH2 0xCB4 JUMPI PUSH2 0x1008 PUSH2 0x5A42 JUMP JUMPDEST PUSH1 0x1 PUSH1 0x1 PUSH1 0x60 SHL SUB PUSH1 0xA0 SHL PUSH1 0x97 SLOAD AND OR PUSH1 0x97 SSTORE PUSH1 0x40 MLOAD RETURN JUMPDEST DUP3 CALLVALUE PUSH2 0x5A1 JUMPI PUSH1 0x60 CALLDATASIZE PUSH1 0x3 NOT ADD SLT PUSH2 0x8EB JUMPI PUSH1 0x44 CALLDATALOAD PUSH1 0x1 PUSH1 0x1 PUSH1 0xA0 SHL SUB DUP2 DUP2 AND SWAP3 SWAP2 DUP4 SWAP1 SUB PUSH2 0x8EB JUMPI PUSH1 0x40 MLOAD SWAP3 PUSH2 0x1058 PUSH1 0xA0 DUP6 PUSH2 0x42F6 JUMP JUMPDEST PUSH1 0x4 CALLDATALOAD DUP5 MSTORE PUSH1 0x20 DUP5 ADD SWAP3 PUSH1 0x24 CALLDATALOAD DUP5 MSTORE PUSH1 0x40 DUP6 ADD SWAP3 CALLER DUP5 MSTORE PUSH1 0x60 DUP7 ADD SWAP3 DUP4 MSTORE PUSH1 0x80 DUP7 ADD SWAP2 DUP3 MSTORE PUSH2 0x1085 PUSH2 0x4D05 JUMP JUMPDEST PUSH2 0x108D PUSH2 0x5AD0 JUMP JUMPDEST PUSH2 0x1095 PUSH2 0x59AE JUMP JUMPDEST PUSH8 0xDE0B6B3A7640000 PUSH2 0x10CF PUSH2 0x10BB PUSH2 0x819 DUP10 PUSH2 0x10C7 PUSH2 0x10B3 PUSH2 0x58F2 JUMP JUMPDEST DUP2 SWAP6 SWAP2 PUSH2 0x4DDB JUMP JUMPDEST SWAP3 SWAP1 DUP1 SWAP6 DUP5 SWAP3 MLOAD PUSH2 0x576F JUMP JUMPDEST DUP11 MLOAD SWAP3 PUSH2 0x4E1E JUMP JUMPDEST DIV SWAP4 DUP5 ISZERO PUSH2 0x749 JUMPI PUSH2 0x1105 SWAP5 PUSH2 0x10E3 PUSH2 0x4CB6 JUMP JUMPDEST POP PUSH2 0x10FA DUP4 DUP4 MLOAD AND DUP3 DUP6 DUP8 MLOAD AND PUSH2 0x16F SLOAD SWAP3 PUSH2 0x4E59 JUMP JUMPDEST SWAP10 SWAP2 DUP4 SWAP9 SWAP2 SWAP9 PUSH2 0x4A15 JUMP JUMPDEST SWAP8 MLOAD DUP1 DUP10 LT PUSH2 0x1192 JUMPI POP SWAP3 DUP1 DUP1 DUP5 PUSH2 0x1184 DUP13 SWAP9 SWAP6 DUP11 SWAP9 PUSH1 0x40 SWAP15 PUSH2 0x73D SWAP13 DUP16 SWAP11 DUP12 DUP9 DUP1 PUSH32 0x96956E9E47738119037532FCF68A81B25D418EAF754281E005F11FA2D33BFFFB SWAP4 MLOAD AND SWAP4 MLOAD AND SWAP4 PUSH2 0x1175 DUP7 MLOAD SWAP2 DUP1 MLOAD SWAP1 PUSH1 0x20 DUP2 ADD MLOAD PUSH1 0x40 PUSH1 0x60 SWAP1 DUP4 ADD MLOAD SWAP3 ADD MLOAD SWAP3 PUSH1 0x40 MLOAD SWAP7 DUP8 SWAP7 DUP8 PUSH2 0x4CDD JUMP JUMPDEST SUB SWAP1 LOG3 MLOAD SWAP1 DUP5 DUP5 MLOAD AND SWAP2 PUSH2 0x53C8 JUMP JUMPDEST MLOAD AND SWAP5 MLOAD AND SWAP2 MLOAD AND SWAP3 PUSH2 0x5433 JUMP JUMPDEST PUSH1 0x44 SWAP1 DUP10 PUSH1 0x40 MLOAD SWAP2 PUSH4 0x54CDE313 PUSH1 0xE0 SHL DUP4 MSTORE PUSH1 0x4 DUP4 ADD MSTORE PUSH1 0x24 DUP3 ADD MSTORE REVERT JUMPDEST DUP3 CALLVALUE PUSH2 0x5A1 JUMPI DUP1 PUSH1 0x3 NOT CALLDATASIZE ADD SLT PUSH2 0x5A1 JUMPI PUSH1 0x20 PUSH2 0x93A PUSH2 0x11D6 PUSH2 0x11D1 PUSH2 0x4C1C JUMP JUMPDEST PUSH2 0x4844 JUMP JUMPDEST SWAP1 POP PUSH2 0x163 SLOAD PUSH2 0x4A15 JUMP JUMPDEST DUP3 CALLVALUE PUSH2 0x5A1 JUMPI PUSH1 0x20 CALLDATASIZE PUSH1 0x3 NOT ADD SLT PUSH2 0x5A1 JUMPI PUSH1 0x4 CALLDATALOAD SWAP1 PUSH2 0x176 SWAP1 DUP2 SLOAD DUP4 LT ISZERO PUSH2 0x5A1 JUMPI PUSH1 0x20 PUSH2 0x1210 DUP5 DUP5 PUSH2 0x4198 JUMP JUMPDEST SWAP1 SLOAD PUSH1 0x40 MLOAD SWAP2 PUSH1 0x3 SHL SHR DUP2 MSTORE RETURN JUMPDEST SWAP1 POP CALLVALUE PUSH2 0xCB4 JUMPI CALLDATASIZE PUSH1 0x3 NOT ADD SLT PUSH2 0x5A1 JUMPI PUSH2 0x1237 PUSH2 0x5A42 JUMP JUMPDEST PUSH1 0x40 MLOAD PUSH4 0x6DBCB039 PUSH1 0xE1 SHL PUSH1 0x20 DUP3 ADD MSTORE PUSH2 0xCAE SWAP1 PUSH2 0xC9C DUP2 PUSH2 0xC8E PUSH1 0x4 PUSH1 0x24 DUP4 ADD PUSH2 0x57AC JUMP JUMPDEST DUP3 PUSH1 0x40 CALLDATASIZE PUSH1 0x3 NOT ADD SLT PUSH2 0x5A1 JUMPI PUSH1 0x1 PUSH1 0x1 PUSH1 0xA0 SHL SUB PUSH1 0x24 CALLDATALOAD DUP2 DUP2 AND SWAP1 DUP2 SWAP1 SUB PUSH2 0x8EB JUMPI PUSH2 0x84B PUSH1 0x40 MLOAD PUSH2 0x1291 PUSH1 0xA0 DUP3 PUSH2 0x42F6 JUMP JUMPDEST PUSH1 0x4 CALLDATALOAD DUP2 MSTORE PUSH1 0x20 DUP2 ADD SWAP1 CALLVALUE DUP3 MSTORE PUSH1 0x40 DUP2 ADD SWAP4 CALLER DUP6 MSTORE PUSH1 0x60 DUP3 ADD SWAP5 CALLER DUP7 MSTORE PUSH1 0x80 DUP4 ADD SWAP2 DUP3 MSTORE PUSH2 0x7E5 PUSH2 0x4D05 JUMP JUMPDEST DUP3 CALLVALUE PUSH2 0x5A1 JUMPI DUP1 PUSH1 0x3 NOT CALLDATASIZE ADD SLT PUSH2 0x5A1 JUMPI PUSH2 0x12D6 PUSH2 0x59AE JUMP JUMPDEST PUSH1 0x40 MLOAD RETURN JUMPDEST DUP3 CALLVALUE PUSH2 0x5A1 JUMPI PUSH1 0x20 CALLDATASIZE PUSH1 0x3 NOT ADD SLT PUSH2 0x5A1 JUMPI PUSH1 0x4 CALLDATALOAD PUSH1 0x1 PUSH1 0x1 PUSH1 0xA0 SHL SUB DUP2 AND SWAP1 DUP2 SWAP1 SUB PUSH2 0x8EB JUMPI PUSH2 0x130A PUSH2 0x5A42 JUMP JUMPDEST PUSH2 0x161 DUP1 SLOAD PUSH1 0x1 PUSH1 0x1 PUSH1 0xA0 SHL SUB NOT AND SWAP1 SWAP2 OR SWAP1 SSTORE PUSH1 0x40 MLOAD RETURN JUMPDEST DUP3 CALLVALUE PUSH2 0x5A1 JUMPI PUSH1 0x20 CALLDATASIZE PUSH1 0x3 NOT ADD SLT PUSH2 0x5A1 JUMPI PUSH2 0x133D PUSH2 0x5A42 JUMP JUMPDEST PUSH1 0x4 CALLDATALOAD PUSH2 0x17E SSTORE PUSH1 0x40 MLOAD RETURN JUMPDEST SWAP1 POP PUSH2 0x1356 CALLDATASIZE PUSH1 0x4 PUSH2 0x420F JUMP JUMPDEST SWAP2 SWAP4 SWAP3 PUSH2 0x1369 PUSH1 0x40 SWAP7 SWAP3 SWAP7 MLOAD SWAP5 DUP6 PUSH2 0x42F6 JUMP JUMPDEST DUP4 MSTORE PUSH1 0x20 DUP4 ADD SWAP4 DUP5 MSTORE PUSH1 0x40 DUP4 ADD SWAP5 DUP6 MSTORE PUSH1 0x60 DUP4 ADD SWAP2 CALLVALUE DUP4 MSTORE PUSH1 0x80 DUP5 ADD SWAP1 CALLER DUP3 MSTORE PUSH1 0xA0 DUP6 ADD SWAP4 CALLER DUP6 MSTORE PUSH1 0xC0 DUP7 ADD SWAP4 PUSH1 0x1 DUP1 PUSH1 0xA0 SHL SUB DUP1 SWAP4 AND DUP6 MSTORE PUSH2 0x13AA PUSH2 0x4D05 JUMP JUMPDEST PUSH2 0x13B2 PUSH2 0x5AD0 JUMP JUMPDEST DUP8 PUSH2 0x141F PUSH2 0xA50 PUSH2 0x660 DUP4 PUSH2 0x1419 DUP13 PUSH2 0x13E3 PUSH2 0x13CC PUSH2 0x4C1C JUMP JUMPDEST PUSH2 0x807 PUSH2 0x13DA DUP5 MLOAD DUP4 PUSH2 0x4830 JUMP JUMPDEST MLOAD DUP1 SWAP5 MLOAD PUSH2 0x5199 JUMP JUMPDEST SWAP6 SWAP1 PUSH2 0xA4B PUSH2 0x140F PUSH2 0x1403 DUP6 PUSH2 0x660 PUSH8 0xDE0B6B3A7640000 DUP1 SWAP11 MLOAD PUSH2 0x4957 JUMP JUMPDEST SWAP11 MLOAD PUSH2 0x166 SLOAD SWAP1 PUSH2 0x4957 JUMP JUMPDEST SWAP8 PUSH2 0x163 SLOAD PUSH2 0x4A15 JUMP JUMPDEST SWAP3 PUSH2 0x4957 JUMP JUMPDEST SWAP10 MLOAD DUP1 DUP12 LT DUP1 ISZERO PUSH2 0x152A JUMPI JUMPDEST PUSH2 0x150C JUMPI POP PUSH2 0x1450 SWAP1 PUSH2 0x143C PUSH2 0x4CB6 JUMP JUMPDEST POP DUP5 DUP7 MLOAD AND SWAP1 DUP6 DUP9 MLOAD AND PUSH2 0x171 SLOAD SWAP3 PUSH2 0x4E59 JUMP JUMPDEST SWAP8 SWAP2 SWAP10 SWAP1 SWAP9 DUP5 MLOAD DUP1 DUP13 GT PUSH2 0x14ED JUMPI POP DUP7 SWAP5 PUSH2 0x72A DUP14 DUP7 DUP10 DUP16 SWAP6 SWAP8 PUSH2 0xBAA SWAP16 SWAP15 SWAP13 PUSH2 0x730 SWAP9 PUSH2 0xB8D SWAP16 SWAP14 SWAP12 DUP16 SWAP3 DUP6 DUP14 PUSH2 0x14E5 SWAP6 DUP3 SWAP16 MLOAD DUP4 DUP6 MLOAD AND SWAP1 PUSH32 0xB8B8E75E42A3102026137DA20C1D52F5E60A1B25D6E77AD232404575753E3FE0 DUP14 DUP7 DUP13 MLOAD AND SWAP5 PUSH2 0x14D6 DUP12 MLOAD SWAP2 DUP1 MLOAD SWAP1 PUSH1 0x20 DUP2 ADD MLOAD PUSH1 0x60 PUSH1 0x40 DUP4 ADD MLOAD SWAP3 ADD MLOAD SWAP3 PUSH1 0x40 MLOAD SWAP7 DUP8 SWAP7 DUP8 PUSH2 0x4CDD JUMP JUMPDEST SUB SWAP1 LOG4 MLOAD SWAP4 MLOAD SWAP2 MLOAD AND SWAP3 PUSH2 0x5334 JUMP JUMPDEST MLOAD AND SWAP2 PUSH2 0x4D27 JUMP JUMPDEST PUSH1 0x44 SWAP1 DUP11 MLOAD PUSH1 0x40 MLOAD SWAP2 PUSH4 0xB63F1A7 PUSH1 0xE0 SHL DUP4 MSTORE PUSH1 0x4 DUP4 ADD MSTORE PUSH1 0x24 DUP3 ADD MSTORE REVERT JUMPDEST PUSH1 0x44 SWAP1 DUP12 PUSH1 0x40 MLOAD SWAP2 PUSH4 0xF577BEF5 PUSH1 0xE0 SHL DUP4 MSTORE PUSH1 0x4 DUP4 ADD MSTORE PUSH1 0x24 DUP3 ADD MSTORE REVERT JUMPDEST POP DUP11 ISZERO PUSH2 0x142B JUMP JUMPDEST DUP3 CALLVALUE PUSH2 0x5A1 JUMPI DUP1 PUSH1 0x3 NOT CALLDATASIZE ADD SLT PUSH2 0x5A1 JUMPI PUSH1 0x20 PUSH2 0x93A PUSH2 0x1571 PUSH2 0x660 PUSH8 0xDE0B6B3A7640000 PUSH2 0x1419 PUSH2 0x1565 PUSH2 0x11D1 PUSH2 0x4C1C JUMP JUMPDEST PUSH2 0x163 SWAP6 SWAP2 SWAP6 SLOAD PUSH2 0x4A15 JUMP JUMPDEST SWAP4 DUP5 PUSH2 0x4A15 JUMP JUMPDEST DUP3 CALLVALUE PUSH2 0x5A1 JUMPI PUSH1 0x20 CALLDATASIZE PUSH1 0x3 NOT ADD SLT PUSH2 0x5A1 JUMPI PUSH2 0x1592 PUSH2 0x5A42 JUMP JUMPDEST PUSH1 0x4 CALLDATALOAD PUSH2 0x16F SSTORE PUSH1 0x40 MLOAD RETURN JUMPDEST DUP3 CALLVALUE PUSH2 0x5A1 JUMPI PUSH1 0x20 CALLDATASIZE PUSH1 0x3 NOT ADD SLT PUSH2 0x5A1 JUMPI PUSH2 0x15B8 PUSH2 0x5A42 JUMP JUMPDEST PUSH1 0x4 CALLDATALOAD PUSH2 0x16B SSTORE PUSH1 0x40 MLOAD RETURN JUMPDEST SWAP1 POP PUSH2 0x15D1 CALLDATASIZE PUSH1 0x4 PUSH2 0x420F JUMP JUMPDEST SWAP2 SWAP1 SWAP5 SWAP3 PUSH2 0x15E2 PUSH1 0x40 MLOAD SWAP6 DUP7 PUSH2 0x42F6 JUMP JUMPDEST DUP5 MSTORE PUSH1 0x20 DUP5 ADD MSTORE PUSH1 0x40 DUP4 ADD SWAP4 DUP5 MSTORE CALLVALUE PUSH1 0x60 DUP5 ADD MSTORE CALLER PUSH1 0x80 DUP5 ADD DUP2 SWAP1 MSTORE PUSH1 0xA0 DUP5 ADD MSTORE PUSH1 0x1 PUSH1 0x1 PUSH1 0xA0 SHL SUB AND PUSH1 0xC0 DUP4 ADD MSTORE PUSH2 0x1619 PUSH2 0x4D05 JUMP JUMPDEST PUSH2 0x1621 PUSH2 0x5AD0 JUMP JUMPDEST PUSH2 0x1629 PUSH2 0x59AE JUMP JUMPDEST PUSH2 0x1631 PUSH2 0x58F2 JUMP JUMPDEST SWAP4 PUSH2 0x1682 PUSH2 0x1656 PUSH2 0x1643 DUP7 MLOAD DUP9 PUSH2 0x4830 JUMP JUMPDEST MLOAD SWAP7 PUSH2 0x1650 DUP9 DUP9 MLOAD PUSH2 0x5199 JUMP JUMPDEST DUP5 PUSH2 0x4DDB JUMP JUMPDEST SWAP1 PUSH2 0x1667 DUP3 DUP3 DUP8 PUSH1 0x20 DUP12 ADD MLOAD PUSH2 0x576F JUMP JUMPDEST PUSH1 0x20 DUP8 ADD MLOAD PUSH8 0xDE0B6B3A7640000 SWAP4 DUP5 SWAP2 PUSH2 0x819 DUP6 DUP6 PUSH2 0x4E1E JUMP JUMPDEST DIV SWAP5 DUP6 ISZERO PUSH2 0x749 JUMPI PUSH2 0x16B8 SWAP4 PUSH2 0x16AE PUSH2 0xA55 DUP12 PUSH2 0xA50 PUSH1 0x20 DUP14 ADD MLOAD PUSH2 0x819 DUP9 PUSH2 0xA4B DUP12 PUSH2 0x163 SLOAD PUSH2 0x4A15 JUMP JUMPDEST DIV SWAP9 DUP10 DUP10 MLOAD PUSH2 0x51F0 JUMP JUMPDEST MLOAD DUP1 DUP6 LT PUSH2 0xBCD JUMPI POP PUSH2 0xAA5 SWAP1 PUSH2 0xA82 PUSH2 0x4CB6 JUMP JUMPDEST DUP3 CALLVALUE PUSH2 0x5A1 JUMPI DUP1 PUSH1 0x3 NOT CALLDATASIZE ADD SLT PUSH2 0x5A1 JUMPI PUSH1 0x20 PUSH1 0xFF PUSH1 0xCA SLOAD AND PUSH1 0x40 MLOAD SWAP1 ISZERO ISZERO DUP2 MSTORE RETURN JUMPDEST DUP3 CALLVALUE PUSH2 0x5A1 JUMPI PUSH2 0x17C2 PUSH2 0x1704 CALLDATASIZE PUSH1 0x4 PUSH2 0x41DA JUMP JUMPDEST SWAP1 PUSH1 0x40 SWAP6 SWAP4 SWAP3 SWAP5 SWAP6 MLOAD SWAP6 PUSH2 0x1719 PUSH1 0xC0 DUP9 PUSH2 0x42F6 JUMP JUMPDEST DUP7 MSTORE PUSH1 0x20 DUP7 ADD SWAP3 DUP4 MSTORE PUSH1 0x40 DUP7 ADD SWAP5 DUP6 MSTORE PUSH1 0x60 DUP7 ADD CALLER DUP2 MSTORE PUSH1 0x80 DUP8 ADD SWAP4 PUSH1 0x1 DUP1 PUSH1 0xA0 SHL SUB DUP1 SWAP4 AND DUP6 MSTORE DUP3 PUSH1 0xA0 DUP10 ADD SWAP5 AND DUP5 MSTORE PUSH2 0x1752 PUSH2 0x4D05 JUMP JUMPDEST PUSH2 0x175A PUSH2 0x5AD0 JUMP JUMPDEST PUSH2 0x1795 PUSH2 0x1765 PUSH2 0x4C1C JUMP JUMPDEST PUSH2 0x1780 PUSH2 0x1773 DUP12 MLOAD DUP4 PUSH2 0x4830 JUMP JUMPDEST MLOAD SWAP2 PUSH2 0x807 DUP4 DUP14 MLOAD PUSH2 0x5199 JUMP JUMPDEST POP POP PUSH2 0x660 PUSH8 0xDE0B6B3A7640000 DUP5 MLOAD PUSH2 0x4957 JUMP JUMPDEST PUSH2 0x179D PUSH2 0x4CB6 JUMP JUMPDEST POP PUSH2 0x17B7 DUP5 DUP5 MLOAD AND DUP3 DUP7 DUP9 MLOAD AND PUSH2 0x688 DUP14 MLOAD PUSH2 0x177 PUSH2 0x4198 JUMP JUMPDEST SWAP11 SWAP2 DUP4 SWAP10 SWAP2 SWAP10 PUSH2 0x4A15 JUMP JUMPDEST SWAP9 DUP3 ISZERO PUSH2 0x749 JUMPI MLOAD DUP1 DUP11 LT PUSH2 0x184A JUMPI POP SWAP4 DUP1 DUP10 SWAP5 PUSH2 0x1184 DUP13 SWAP9 SWAP6 DUP4 SWAP6 DUP10 PUSH1 0x40 SWAP16 DUP14 PUSH2 0x73D SWAP15 SWAP13 MLOAD PUSH32 0x94623CC0BDFF77F15A945C5F7C85F92E30BAEEE629058DB590CEEBA3755AD3BE DUP14 DUP11 DUP1 DUP12 MLOAD AND SWAP5 MLOAD AND SWAP5 PUSH2 0x183A DUP10 MLOAD SWAP2 DUP1 MLOAD SWAP1 PUSH1 0x20 DUP2 ADD MLOAD PUSH1 0x40 PUSH1 0x60 SWAP1 DUP4 ADD MLOAD SWAP3 ADD MLOAD SWAP3 PUSH1 0x40 MLOAD SWAP7 DUP8 SWAP7 DUP8 PUSH2 0x4CDD JUMP JUMPDEST SUB SWAP1 LOG4 MLOAD SWAP2 MLOAD DUP6 DUP6 MLOAD AND SWAP3 PUSH2 0x5334 JUMP JUMPDEST PUSH1 0x44 SWAP1 DUP11 PUSH1 0x40 MLOAD SWAP2 PUSH4 0x54CDE313 PUSH1 0xE0 SHL DUP4 MSTORE PUSH1 0x4 DUP4 ADD MSTORE PUSH1 0x24 DUP3 ADD MSTORE REVERT JUMPDEST SWAP1 POP PUSH2 0x194C PUSH2 0x1878 CALLDATASIZE PUSH1 0x4 PUSH2 0x4235 JUMP JUMPDEST SWAP5 SWAP1 SWAP2 SWAP3 SWAP4 PUSH1 0x40 MLOAD SWAP1 PUSH2 0x188D PUSH2 0x100 DUP4 PUSH2 0x42F6 JUMP JUMPDEST DUP2 MSTORE PUSH1 0x20 DUP2 ADD SWAP5 DUP6 MSTORE PUSH1 0x40 DUP2 ADD SWAP4 DUP5 MSTORE PUSH1 0x60 DUP2 ADD SWAP3 DUP4 MSTORE PUSH1 0x80 DUP2 ADD SWAP6 CALLVALUE DUP8 MSTORE PUSH1 0xA0 DUP3 ADD SWAP4 CALLER DUP6 MSTORE PUSH1 0xC0 DUP4 ADD SWAP1 CALLER DUP3 MSTORE DUP10 DUP5 ADD SWAP7 PUSH1 0x1 DUP1 PUSH1 0xA0 SHL SUB SWAP9 DUP10 DUP1 SWAP6 AND DUP10 MSTORE PUSH2 0x18D6 PUSH2 0x4D05 JUMP JUMPDEST PUSH2 0x18DE PUSH2 0x5AD0 JUMP JUMPDEST PUSH2 0x18E6 PUSH2 0x4CB6 JUMP JUMPDEST POP PUSH1 0x40 MLOAD SWAP6 PUSH4 0x1C280CE1 PUSH1 0xE0 SHL PUSH1 0x20 DUP9 ADD MSTORE MLOAD PUSH1 0x24 DUP8 ADD MSTORE MLOAD PUSH1 0x44 DUP7 ADD MSTORE MLOAD PUSH1 0x64 DUP6 ADD MSTORE MLOAD PUSH1 0x84 DUP5 ADD MSTORE DUP8 MLOAD PUSH1 0xA4 DUP5 ADD MSTORE DUP2 DUP6 MLOAD AND PUSH1 0xC4 DUP5 ADD MSTORE MLOAD AND PUSH1 0xE4 DUP3 ADD MSTORE DUP5 DUP5 MLOAD AND PUSH2 0x104 SWAP1 DUP2 DUP4 ADD MSTORE DUP2 MSTORE PUSH2 0x1941 PUSH2 0x124 DUP3 PUSH2 0x42F6 JUMP JUMPDEST DUP5 PUSH2 0x21C SLOAD AND PUSH2 0x52A1 JUMP JUMPDEST SWAP3 DUP4 DUP1 MLOAD DUP2 ADD SUB SWAP5 DUP7 DUP7 SLT PUSH2 0x19C2 JUMPI PUSH1 0x20 DUP6 ADD MLOAD SWAP7 PUSH1 0x40 DUP7 ADD MLOAD SWAP9 PUSH1 0x80 PUSH1 0x60 DUP9 ADD MLOAD SWAP9 PUSH1 0x5F NOT ADD SLT PUSH2 0x5A1 JUMPI POP SWAP2 DUP1 PUSH2 0x730 DUP10 PUSH2 0xBAA SWAP10 SWAP9 SWAP7 SWAP5 PUSH2 0xB8D SWAP9 SWAP7 PUSH1 0x40 MLOAD SWAP9 PUSH2 0x199A PUSH1 0x80 DUP12 PUSH2 0x42F6 JUMP JUMPDEST PUSH1 0x80 DUP2 ADD MLOAD DUP11 MSTORE PUSH1 0xA0 DUP2 ADD MLOAD PUSH1 0x20 DUP12 ADD MSTORE PUSH1 0xC0 DUP2 ADD MLOAD PUSH1 0x40 DUP12 ADD MSTORE ADD MLOAD PUSH1 0x60 DUP10 ADD MSTORE MLOAD PUSH2 0x4A15 JUMP JUMPDEST DUP8 DUP1 REVERT JUMPDEST DUP3 PUSH1 0x40 CALLDATASIZE PUSH1 0x3 NOT ADD SLT PUSH2 0x5A1 JUMPI PUSH1 0x1 PUSH1 0x1 PUSH1 0xA0 SHL SUB SWAP1 PUSH1 0x24 CALLDATALOAD DUP3 DUP2 AND SWAP2 SWAP1 DUP3 SWAP1 SUB PUSH2 0x8EB JUMPI PUSH2 0x84B SWAP1 PUSH1 0x40 MLOAD PUSH2 0x7BB PUSH1 0xA0 DUP3 PUSH2 0x42F6 JUMP JUMPDEST DUP3 CALLVALUE PUSH2 0x5A1 JUMPI DUP1 PUSH1 0x3 NOT CALLDATASIZE ADD SLT PUSH2 0x5A1 JUMPI PUSH1 0x20 PUSH2 0x16F SLOAD PUSH1 0x40 MLOAD SWAP1 DUP2 MSTORE RETURN JUMPDEST DUP3 PUSH1 0x40 CALLDATASIZE PUSH1 0x3 NOT ADD SLT PUSH2 0x8EB JUMPI PUSH1 0x40 MLOAD SWAP1 PUSH2 0x1A38 PUSH1 0xC0 DUP4 PUSH2 0x42F6 JUMP JUMPDEST PUSH1 0x4 CALLDATALOAD DUP3 MSTORE PUSH1 0x20 DUP3 ADD SWAP1 PUSH1 0x24 CALLDATALOAD DUP3 MSTORE PUSH1 0x40 DUP4 ADD SWAP1 CALLVALUE DUP3 MSTORE PUSH1 0x60 DUP5 ADD SWAP3 CALLER DUP5 MSTORE PUSH1 0x80 DUP6 ADD SWAP5 CALLER DUP7 MSTORE PUSH1 0xA0 DUP2 ADD DUP4 DUP2 MSTORE PUSH2 0x1A6E PUSH2 0x4D05 JUMP JUMPDEST PUSH2 0x1A76 PUSH2 0x5AD0 JUMP JUMPDEST PUSH2 0x1A7E PUSH2 0x59AE JUMP JUMPDEST PUSH2 0x1A86 PUSH2 0x58F2 JUMP JUMPDEST SWAP7 SWAP1 SWAP8 PUSH2 0x1A94 DUP5 MLOAD DUP10 PUSH2 0x4830 JUMP JUMPDEST MLOAD SWAP9 PUSH2 0x1AA1 DUP11 DUP7 MLOAD PUSH2 0x5199 JUMP JUMPDEST PUSH2 0x1AAE DUP10 PUSH2 0x17C SLOAD PUSH2 0x4DDB JUMP JUMPDEST POP POP PUSH2 0x1ABE PUSH2 0xD8B DUP8 MLOAD SWAP11 PUSH2 0x4844 JUMP JUMPDEST SWAP1 PUSH8 0xDE0B6B3A763FFFF NOT DUP2 ADD SWAP1 DUP2 GT PUSH2 0x1B38 JUMPI SWAP1 PUSH2 0xDE3 DUP12 PUSH2 0x660 PUSH2 0x1AF2 DUP14 SWAP15 PUSH2 0x660 PUSH2 0xE14 SWAP14 SWAP15 SWAP16 SWAP8 PUSH2 0x1B10 SWAP9 PUSH2 0x4957 JUMP JUMPDEST SWAP4 PUSH2 0x1B0A PUSH8 0xDE0B6B3A7640000 SWAP2 PUSH2 0x660 DUP4 DUP9 PUSH2 0x4957 JUMP JUMPDEST SWAP15 PUSH2 0x4957 JUMP JUMPDEST SWAP7 PUSH2 0x1B19 PUSH2 0x4CB6 JUMP JUMPDEST POP PUSH1 0x1 DUP1 PUSH1 0xA0 SHL SUB SWAP2 PUSH2 0xE09 DUP4 DUP6 MLOAD AND DUP11 DUP6 DUP9 MLOAD AND PUSH2 0x174 SLOAD SWAP3 PUSH2 0x4E59 JUMP JUMPDEST PUSH4 0x4E487B71 PUSH1 0xE0 SHL DUP9 MSTORE PUSH1 0x11 PUSH1 0x4 MSTORE PUSH1 0x24 DUP9 REVERT JUMPDEST DUP3 CALLVALUE PUSH2 0x5A1 JUMPI DUP1 PUSH1 0x3 NOT CALLDATASIZE ADD SLT PUSH2 0x5A1 JUMPI PUSH1 0x20 PUSH2 0x1B5 SLOAD NUMBER LT ISZERO PUSH1 0x40 MLOAD SWAP1 DUP2 MSTORE RETURN JUMPDEST DUP3 CALLVALUE PUSH2 0x5A1 JUMPI DUP1 PUSH1 0x3 NOT CALLDATASIZE ADD SLT PUSH2 0x5A1 JUMPI PUSH1 0xCA SLOAD PUSH1 0x40 MLOAD PUSH1 0x10 SWAP2 SWAP1 SWAP2 SHR PUSH1 0x1 PUSH1 0x1 PUSH1 0xA0 SHL SUB AND DUP2 MSTORE PUSH1 0x20 SWAP1 RETURN JUMPDEST DUP3 CALLVALUE PUSH2 0x5A1 JUMPI PUSH1 0x20 CALLDATASIZE PUSH1 0x3 NOT ADD SLT PUSH2 0x5A1 JUMPI PUSH1 0x4 CALLDATALOAD PUSH1 0x1 PUSH1 0x1 PUSH1 0xA0 SHL SUB DUP2 AND SWAP1 DUP2 SWAP1 SUB PUSH2 0x8EB JUMPI PUSH1 0x40 DUP3 DUP2 SWAP3 DUP2 MSTORE PUSH2 0x168 PUSH1 0x20 MSTORE KECCAK256 PUSH1 0xFF PUSH1 0x1 DUP3 SLOAD SWAP3 ADD SLOAD AND DUP3 MLOAD SWAP2 DUP3 MSTORE ISZERO ISZERO PUSH1 0x20 DUP3 ADD MSTORE RETURN JUMPDEST SWAP1 POP CALLVALUE PUSH2 0xCB4 JUMPI SWAP1 PUSH2 0x1C81 SWAP2 PUSH2 0x1BFF CALLDATASIZE PUSH1 0x4 PUSH2 0x4235 JUMP JUMPDEST SWAP3 SWAP4 PUSH2 0x1C11 PUSH1 0x40 SWAP8 SWAP4 SWAP8 MLOAD SWAP7 DUP8 PUSH2 0x42F6 JUMP JUMPDEST DUP6 MSTORE PUSH1 0x20 DUP6 ADD SWAP4 DUP5 MSTORE PUSH1 0x40 DUP6 ADD SWAP6 DUP7 MSTORE PUSH1 0x60 DUP6 ADD MSTORE PUSH1 0x80 DUP5 ADD SWAP3 CALLER DUP5 MSTORE PUSH1 0xA0 DUP6 ADD SWAP1 PUSH1 0x1 DUP1 PUSH1 0xA0 SHL SUB DUP1 SWAP5 AND DUP3 MSTORE PUSH1 0xC0 DUP7 ADD DUP4 DUP2 MSTORE PUSH2 0x1C4E PUSH2 0x4D05 JUMP JUMPDEST PUSH2 0x1C56 PUSH2 0x5AD0 JUMP JUMPDEST PUSH2 0x1CAB DUP8 PUSH2 0xA50 PUSH2 0x1C95 PUSH2 0x1C8A PUSH2 0x1C6B PUSH2 0x4C1C JUMP JUMPDEST PUSH2 0x1C76 DUP6 MLOAD DUP3 PUSH2 0x4830 JUMP JUMPDEST MLOAD SWAP15 DUP16 DUP1 SWAP7 MLOAD PUSH2 0x5199 JUMP JUMPDEST PUSH2 0x17C SLOAD PUSH2 0x4DDB JUMP JUMPDEST SWAP3 DUP2 SWAP15 SWAP2 DUP9 MLOAD PUSH2 0x4957 JUMP JUMPDEST PUSH8 0xDE0B6B3A7640000 SWAP4 DUP5 SWAP2 PUSH2 0x166 SLOAD SWAP1 PUSH2 0x496A JUMP JUMPDEST DIV SWAP11 MLOAD DUP1 DUP13 GT PUSH2 0x1DFF JUMPI POP SWAP2 PUSH2 0x1CE5 DUP12 PUSH2 0x1CDF PUSH2 0x1D17 SWAP12 SWAP13 SWAP14 SWAP15 SWAP5 PUSH2 0x660 DUP6 PUSH2 0x1CD9 PUSH2 0x1CEC SWAP10 DUP13 MLOAD SWAP10 PUSH2 0x4E1E JUMP JUMPDEST SWAP5 PUSH2 0x4957 JUMP JUMPDEST SWAP4 PUSH2 0x4957 JUMP JUMPDEST DIV SWAP1 PUSH2 0x480D JUMP JUMPDEST SWAP5 PUSH2 0x1CF5 PUSH2 0x4CB6 JUMP JUMPDEST POP PUSH2 0x1D0C DUP2 DUP10 MLOAD AND DUP8 DUP4 DUP6 MLOAD AND PUSH2 0x173 SLOAD SWAP3 PUSH2 0x4E59 JUMP JUMPDEST SWAP7 SWAP2 DUP9 SWAP10 SWAP2 SWAP10 PUSH2 0x4A15 JUMP JUMPDEST SWAP10 PUSH1 0x60 DUP2 ADD MLOAD DUP1 DUP13 LT PUSH2 0x1DE1 JUMPI POP DUP11 ISZERO PUSH2 0x749 JUMPI DUP10 PUSH2 0x1184 DUP14 DUP6 SWAP5 DUP5 DUP16 SWAP10 PUSH2 0xBAA SWAP16 SWAP14 PUSH2 0x1DD5 SWAP2 PUSH2 0xB8D SWAP16 DUP16 DUP16 SWAP1 SWAP2 DUP16 SWAP3 DUP10 PUSH32 0x754F66F66F0AFCD87E3EDD11C0796FEF32599EFE490000FDB0F014E3AD9560FA SWAP2 DUP16 SWAP15 DUP16 DUP1 PUSH2 0x1DC6 SWAP3 MLOAD SWAP7 MLOAD AND SWAP7 MLOAD AND SWAP7 DUP9 MLOAD SWAP3 DUP1 MLOAD PUSH1 0x20 DUP3 ADD MLOAD SWAP1 PUSH1 0x60 PUSH1 0x40 DUP5 ADD MLOAD SWAP4 ADD MLOAD SWAP4 PUSH1 0x40 MLOAD SWAP8 DUP9 SWAP8 DUP9 SWAP4 SWAP1 SWAP8 SWAP7 SWAP6 SWAP3 PUSH1 0xC0 SWAP6 SWAP3 PUSH1 0xE0 DUP7 ADD SWAP10 DUP7 MSTORE PUSH1 0x20 DUP7 ADD MSTORE PUSH1 0x40 DUP6 ADD MSTORE PUSH1 0x60 DUP5 ADD MSTORE PUSH1 0x80 DUP4 ADD MSTORE PUSH1 0xA0 DUP3 ADD MSTORE ADD MSTORE JUMP JUMPDEST SUB SWAP1 LOG4 MLOAD SWAP1 DUP9 DUP9 MLOAD AND SWAP2 PUSH2 0x53C8 JUMP JUMPDEST MLOAD SWAP2 DUP6 DUP6 MLOAD AND SWAP3 PUSH2 0x5334 JUMP JUMPDEST PUSH1 0x44 SWAP1 DUP13 PUSH1 0x40 MLOAD SWAP2 PUSH4 0x54CDE313 PUSH1 0xE0 SHL DUP4 MSTORE PUSH1 0x4 DUP4 ADD MSTORE PUSH1 0x24 DUP3 ADD MSTORE REVERT JUMPDEST PUSH1 0x44 SWAP1 DUP13 PUSH1 0x40 MLOAD SWAP2 PUSH4 0x7A031DA3 PUSH1 0xE1 SHL DUP4 MSTORE PUSH1 0x4 DUP4 ADD MSTORE PUSH1 0x24 DUP3 ADD MSTORE REVERT JUMPDEST DUP3 CALLVALUE PUSH2 0x5A1 JUMPI DUP1 PUSH1 0x3 NOT CALLDATASIZE ADD SLT PUSH2 0x5A1 JUMPI PUSH1 0x20 PUSH2 0x1E44 PUSH2 0x1E3E PUSH2 0x11D1 PUSH2 0x4C1C JUMP JUMPDEST SWAP1 PUSH2 0x49EB JUMP JUMPDEST PUSH2 0x17C SLOAD LT ISZERO PUSH1 0x40 MLOAD SWAP1 DUP2 MSTORE RETURN JUMPDEST DUP3 CALLVALUE PUSH2 0x5A1 JUMPI PUSH1 0x40 CALLDATASIZE PUSH1 0x3 NOT ADD SLT PUSH2 0x8EB JUMPI PUSH1 0x40 MLOAD SWAP1 PUSH2 0x1E73 PUSH1 0xA0 DUP4 PUSH2 0x42F6 JUMP JUMPDEST PUSH1 0x4 CALLDATALOAD DUP3 MSTORE PUSH1 0x20 DUP3 ADD SWAP1 PUSH1 0x24 CALLDATALOAD DUP3 MSTORE PUSH1 0x40 DUP4 ADD SWAP1 CALLER DUP3 MSTORE PUSH1 0x60 DUP5 ADD SWAP1 CALLER DUP3 MSTORE PUSH1 0x80 DUP6 ADD SWAP1 DUP2 MSTORE PUSH2 0x1EA1 PUSH2 0x4D05 JUMP JUMPDEST PUSH2 0x1EA9 PUSH2 0x5AD0 JUMP JUMPDEST PUSH2 0x1EB1 PUSH2 0x59AE JUMP JUMPDEST PUSH8 0xDE0B6B3A7640000 PUSH2 0x1EEA PUSH2 0x1ED6 PUSH2 0x819 PUSH2 0x1EE2 PUSH2 0x1ECE PUSH2 0x58F2 JUMP JUMPDEST DUP2 SWAP5 SWAP2 PUSH2 0x4DDB JUMP JUMPDEST DUP2 DUP2 SWAP4 SWAP3 SWAP6 DUP14 MLOAD PUSH2 0x576F JUMP JUMPDEST DUP10 MLOAD SWAP3 PUSH2 0x4E1E JUMP JUMPDEST DIV DUP1 ISZERO PUSH2 0x749 JUMPI PUSH2 0x1105 SWAP4 PUSH2 0x1EFD PUSH2 0x4CB6 JUMP JUMPDEST POP PUSH1 0x1 DUP1 PUSH1 0xA0 SHL SUB SWAP2 PUSH2 0x10FA DUP4 DUP4 MLOAD AND DUP3 DUP6 DUP8 MLOAD AND PUSH2 0x16F SLOAD SWAP3 PUSH2 0x4E59 JUMP JUMPDEST DUP3 CALLVALUE PUSH2 0x5A1 JUMPI DUP1 PUSH1 0x3 NOT CALLDATASIZE ADD SLT PUSH2 0x5A1 JUMPI PUSH2 0x178 SLOAD PUSH1 0x40 MLOAD PUSH1 0x1 PUSH1 0x1 PUSH1 0xA0 SHL SUB SWAP1 SWAP2 AND DUP2 MSTORE PUSH1 0x20 SWAP1 RETURN JUMPDEST DUP3 PUSH1 0x60 CALLDATASIZE PUSH1 0x3 NOT ADD SLT PUSH2 0x8EB JUMPI PUSH1 0x40 MLOAD SWAP2 PUSH2 0x1F61 SWAP1 DUP4 PUSH2 0x42F6 JUMP JUMPDEST PUSH1 0x4 CALLDATALOAD DUP3 MSTORE PUSH1 0x20 DUP3 ADD PUSH1 0x24 CALLDATALOAD DUP2 MSTORE PUSH1 0x40 DUP4 ADD SWAP2 PUSH1 0x44 CALLDATALOAD DUP4 MSTORE PUSH1 0x60 DUP5 ADD CALLVALUE DUP2 MSTORE PUSH1 0x80 DUP6 ADD CALLER DUP2 MSTORE PUSH1 0xA0 DUP7 ADD SWAP5 CALLER DUP7 MSTORE PUSH1 0xC0 DUP8 ADD SWAP3 DUP5 DUP5 MSTORE PUSH2 0x1F9F PUSH2 0x4D05 JUMP JUMPDEST PUSH2 0x1FA7 PUSH2 0x5AD0 JUMP JUMPDEST PUSH2 0x1FAF PUSH2 0x59AE JUMP JUMPDEST PUSH2 0x1FB7 PUSH2 0x58F2 JUMP JUMPDEST SWAP8 SWAP1 SWAP3 DUP10 MLOAD PUSH2 0x1FC6 SWAP1 DUP11 PUSH2 0x4830 JUMP JUMPDEST MLOAD SWAP9 DUP10 DUP12 MLOAD SWAP1 PUSH2 0x1FD5 SWAP2 PUSH2 0x5199 JUMP JUMPDEST PUSH2 0x1FDF SWAP1 DUP6 PUSH2 0x4DDB JUMP JUMPDEST DUP6 DUP2 DUP4 DUP13 MLOAD SWAP3 PUSH2 0x1FEE SWAP4 PUSH2 0x576F JUMP JUMPDEST DUP10 MLOAD SWAP2 PUSH8 0xDE0B6B3A7640000 DUP1 SWAP4 PUSH2 0x2006 DUP5 DUP5 PUSH2 0x4E1E JUMP JUMPDEST PUSH2 0x200F SWAP2 PUSH2 0x4957 JUMP JUMPDEST DIV SWAP7 DUP8 ISZERO PUSH2 0x749 JUMPI DUP13 PUSH2 0x2046 SWAP5 DUP16 SWAP15 PUSH2 0xA55 DUP16 SWAP2 PUSH2 0xA50 PUSH2 0x203C SWAP4 MLOAD PUSH2 0x819 DUP10 PUSH2 0xA4B DUP13 PUSH2 0x163 SLOAD PUSH2 0x4A15 JUMP JUMPDEST DIV SWAP15 DUP16 SWAP1 MLOAD PUSH2 0x51F0 JUMP JUMPDEST MLOAD DUP1 DUP11 LT PUSH2 0x2115 JUMPI POP PUSH2 0x2057 PUSH2 0x4CB6 JUMP JUMPDEST POP PUSH2 0x2076 PUSH1 0x1 DUP1 PUSH1 0xA0 SHL SUB SWAP4 DUP5 DUP7 MLOAD AND SWAP1 DUP6 DUP9 MLOAD AND PUSH2 0x172 SLOAD SWAP3 PUSH2 0x4E59 JUMP JUMPDEST SWAP8 SWAP2 SWAP10 SWAP1 SWAP9 DUP5 MLOAD DUP1 DUP13 GT PUSH2 0x14ED JUMPI POP DUP7 SWAP5 PUSH2 0x72A DUP6 DUP6 DUP16 DUP16 SWAP6 SWAP11 PUSH2 0xBAA SWAP16 SWAP15 SWAP13 SWAP8 PUSH2 0x210B PUSH2 0xB8D SWAP16 SWAP14 SWAP10 DUP16 SWAP12 DUP5 PUSH2 0x730 SWAP13 DUP2 SWAP16 SWAP15 DUP3 SWAP16 DUP8 MLOAD PUSH32 0xF4287B96E269F789F166DB491B07456566F468352771E466CE088E98D6007A0C DUP12 DUP7 DUP1 DUP11 MLOAD AND SWAP5 MLOAD AND SWAP5 PUSH2 0x20FE DUP8 MLOAD SWAP2 DUP1 MLOAD SWAP1 PUSH1 0x20 DUP2 ADD MLOAD PUSH1 0x60 PUSH1 0x40 DUP4 ADD MLOAD SWAP3 ADD MLOAD SWAP3 PUSH1 0x40 MLOAD SWAP7 DUP8 SWAP7 DUP8 PUSH2 0x4CDD JUMP JUMPDEST SUB SWAP1 LOG4 MLOAD SWAP3 MLOAD AND SWAP2 PUSH2 0x53C8 JUMP JUMPDEST MLOAD SWAP4 MLOAD AND SWAP3 PUSH2 0x5100 JUMP JUMPDEST PUSH1 0x44 SWAP1 DUP11 PUSH1 0x40 MLOAD SWAP2 PUSH4 0x272E3F59 PUSH1 0xE2 SHL DUP4 MSTORE PUSH1 0x4 DUP4 ADD MSTORE PUSH1 0x24 DUP3 ADD MSTORE REVERT JUMPDEST DUP3 CALLVALUE PUSH2 0x5A1 JUMPI PUSH2 0x300 CALLDATASIZE PUSH1 0x3 NOT ADD SLT PUSH2 0x5A1 JUMPI DUP1 SLOAD PUSH1 0xFF DUP2 PUSH1 0x8 SHR AND ISZERO SWAP1 DUP2 DUP1 SWAP3 PUSH2 0x2594 JUMPI JUMPDEST DUP1 ISZERO PUSH2 0x257D JUMPI JUMPDEST ISZERO PUSH2 0x2521 JUMPI PUSH1 0xFF NOT DUP2 AND PUSH1 0x1 OR DUP4 SSTORE DUP2 PUSH2 0x2510 JUMPI JUMPDEST POP DUP2 SLOAD SWAP1 PUSH2 0x2188 PUSH1 0xFF DUP4 PUSH1 0x8 SHR AND PUSH2 0x4C56 JUMP JUMPDEST PUSH2 0x2A4 CALLDATALOAD PUSH1 0x1 PUSH1 0x1 PUSH1 0xA0 SHL SUB DUP2 AND SWAP1 DUP2 SWAP1 SUB PUSH2 0x8EB JUMPI PUSH2 0x21C DUP1 SLOAD PUSH1 0x1 PUSH1 0x1 PUSH1 0xA0 SHL SUB NOT AND SWAP1 SWAP2 OR SWAP1 SSTORE PUSH1 0x1 PUSH1 0x1 PUSH1 0xA0 SHL SUB PUSH2 0x264 CALLDATALOAD SWAP1 DUP2 AND SWAP1 DUP2 SWAP1 SUB PUSH2 0x8EB JUMPI PUSH2 0x284 CALLDATALOAD PUSH1 0x1 PUSH1 0x1 PUSH1 0xA0 SHL SUB DUP2 AND DUP2 SUB PUSH2 0x8EB JUMPI PUSH1 0x1 SWAP2 PUSH2 0x21EF PUSH1 0xFF DUP7 PUSH1 0x8 SHR AND PUSH2 0x4C56 JUMP JUMPDEST PUSH2 0x21FE PUSH1 0xFF DUP7 PUSH1 0x8 SHR AND PUSH2 0x4C56 JUMP JUMPDEST PUSH2 0x220D PUSH1 0xFF DUP7 PUSH1 0x8 SHR AND PUSH2 0x4C56 JUMP JUMPDEST PUSH2 0x221C PUSH1 0xFF DUP7 PUSH1 0x8 SHR AND PUSH2 0x4C56 JUMP JUMPDEST PUSH1 0x1 PUSH1 0x1 PUSH1 0x60 SHL SUB PUSH1 0xA0 SHL PUSH1 0x97 SLOAD AND OR PUSH1 0x97 SSTORE PUSH2 0x223E PUSH1 0xFF DUP6 PUSH1 0x8 SHR AND PUSH2 0x4C56 JUMP JUMPDEST PUSH1 0xCA SLOAD SWAP1 PUSH3 0x10000 DUP4 PUSH1 0xB0 SHL SUB SWAP1 PUSH1 0x10 SHL AND SWAP1 PUSH2 0xFF01 DUP4 PUSH1 0xB0 SHL SUB NOT AND OR OR PUSH1 0xCA SSTORE PUSH2 0x226F PUSH1 0xFF DUP4 PUSH1 0x8 SHR AND PUSH2 0x4C56 JUMP JUMPDEST PUSH8 0xDE0B6B3A7640000 PUSH1 0xA4 CALLDATALOAD LT PUSH2 0x24FE JUMPI PUSH2 0x228B PUSH1 0xE4 CALLDATALOAD PUSH2 0x5AF1 JUMP JUMPDEST PUSH2 0x2297 PUSH2 0x104 CALLDATALOAD PUSH2 0x5AF1 JUMP JUMPDEST PUSH2 0x22A3 PUSH2 0x124 CALLDATALOAD PUSH2 0x5AF1 JUMP JUMPDEST PUSH2 0x22AF PUSH2 0x144 CALLDATALOAD PUSH2 0x5AF1 JUMP JUMPDEST PUSH2 0x22BB PUSH2 0x164 CALLDATALOAD PUSH2 0x5AF1 JUMP JUMPDEST PUSH2 0x22C7 PUSH2 0x184 CALLDATALOAD PUSH2 0x5AF1 JUMP JUMPDEST PUSH2 0x22D3 PUSH2 0x1A4 CALLDATALOAD PUSH2 0x5AF1 JUMP JUMPDEST PUSH2 0x22DF PUSH2 0x1C4 CALLDATALOAD PUSH2 0x5AF1 JUMP JUMPDEST PUSH2 0x22EB PUSH2 0x1E4 CALLDATALOAD PUSH2 0x5AF1 JUMP JUMPDEST PUSH2 0x2303 PUSH2 0x22FE PUSH2 0x224 CALLDATALOAD PUSH2 0x204 CALLDATALOAD PUSH2 0x480D JUMP JUMPDEST PUSH2 0x5AF1 JUMP JUMPDEST PUSH1 0x4 CALLDATALOAD PUSH1 0x1 PUSH1 0x1 PUSH1 0xA0 SHL SUB DUP2 AND DUP2 SUB PUSH2 0x8EB JUMPI PUSH2 0x161 DUP1 SLOAD PUSH1 0x1 PUSH1 0x1 PUSH1 0xA0 SHL SUB NOT AND PUSH1 0x1 PUSH1 0x1 PUSH1 0xA0 SHL SUB SWAP3 DUP4 AND OR SWAP1 SSTORE PUSH1 0x24 CALLDATALOAD SWAP1 DUP2 AND DUP2 SUB PUSH2 0x8EB JUMPI PUSH2 0x162 DUP1 SLOAD PUSH1 0x1 PUSH1 0x1 PUSH1 0xA0 SHL SUB NOT AND PUSH1 0x1 PUSH1 0x1 PUSH1 0xA0 SHL SUB SWAP3 DUP4 AND OR SWAP1 SSTORE PUSH1 0x44 CALLDATALOAD SWAP1 DUP2 AND DUP2 SUB PUSH2 0x8EB JUMPI PUSH2 0x165 DUP1 SLOAD PUSH1 0x1 PUSH1 0x1 PUSH1 0xA0 SHL SUB NOT AND PUSH1 0x1 PUSH1 0x1 PUSH1 0xA0 SHL SUB SWAP3 DUP4 AND OR SWAP1 SSTORE PUSH1 0x64 CALLDATALOAD SWAP1 DUP2 AND DUP2 SUB PUSH2 0x8EB JUMPI PUSH2 0x178 DUP1 SLOAD PUSH1 0x1 PUSH1 0x1 PUSH1 0xA0 SHL SUB NOT AND PUSH1 0x1 PUSH1 0x1 PUSH1 0xA0 SHL SUB SWAP3 DUP4 AND OR SWAP1 SSTORE PUSH1 0x84 CALLDATALOAD SWAP1 DUP2 AND DUP2 SUB PUSH2 0x8EB JUMPI PUSH2 0x179 SWAP1 PUSH1 0x1 DUP1 PUSH1 0xA0 SHL SUB AND PUSH1 0x1 PUSH1 0x1 PUSH1 0x60 SHL SUB PUSH1 0xA0 SHL DUP3 SLOAD AND OR SWAP1 SSTORE PUSH1 0xA4 CALLDATALOAD PUSH2 0x17B SSTORE PUSH1 0xC4 CALLDATALOAD PUSH2 0x17C SSTORE PUSH1 0xE4 CALLDATALOAD PUSH2 0x16D SSTORE PUSH2 0x104 CALLDATALOAD PUSH2 0x16E SSTORE PUSH2 0x124 CALLDATALOAD PUSH2 0x16F SSTORE PUSH2 0x144 CALLDATALOAD PUSH2 0x170 SSTORE PUSH2 0x164 CALLDATALOAD PUSH2 0x171 SSTORE PUSH2 0x184 CALLDATALOAD PUSH2 0x172 SSTORE PUSH2 0x1A4 CALLDATALOAD PUSH2 0x173 SSTORE PUSH2 0x1C4 CALLDATALOAD PUSH2 0x174 SSTORE PUSH2 0x1E4 CALLDATALOAD PUSH2 0x175 SSTORE PUSH2 0x204 CALLDATALOAD PUSH2 0x16B SSTORE PUSH2 0x224 CALLDATALOAD PUSH2 0x16C SSTORE PUSH2 0x244E PUSH2 0x244 CALLDATALOAD DUP1 PUSH2 0x17E SSTORE NUMBER PUSH2 0x480D JUMP JUMPDEST PUSH2 0x17F SSTORE PUSH2 0x17D PUSH2 0xFFFF NOT DUP2 SLOAD AND SWAP1 SSTORE PUSH2 0x2C4 CALLDATALOAD PUSH2 0x2471 PUSH1 0xFF DUP5 PUSH1 0x8 SHR AND PUSH2 0x4C56 JUMP JUMPDEST DUP1 ISZERO PUSH2 0x24FE JUMPI PUSH2 0x1B6 DUP2 SWAP1 SSTORE NUMBER ADD PUSH2 0x1B5 SSTORE PUSH2 0x2E4 CALLDATALOAD PUSH1 0x1 PUSH1 0x1 PUSH1 0xA0 SHL SUB DUP2 AND SWAP1 DUP2 SWAP1 SUB PUSH2 0x8EB JUMPI PUSH2 0x24A8 PUSH1 0xFF DUP5 PUSH1 0x8 SHR AND PUSH2 0x4C56 JUMP JUMPDEST PUSH2 0x1E9 DUP1 SLOAD PUSH1 0x1 PUSH1 0x1 PUSH1 0xA0 SHL SUB NOT AND SWAP1 SWAP2 OR SWAP1 SSTORE PUSH2 0x24C6 JUMPI POP PUSH1 0x40 MLOAD RETURN JUMPDEST PUSH2 0xFF00 NOT AND DUP2 SSTORE PUSH32 0x7F26B83FF96E1F2B6A682F133852F6798A09C465DA95921460CEFB3847402498 PUSH1 0x20 PUSH1 0x40 MLOAD PUSH1 0x1 DUP2 MSTORE LOG1 DUP2 PUSH2 0xCAE JUMP JUMPDEST PUSH1 0x40 MLOAD PUSH4 0x2A9FFAB7 PUSH1 0xE2 SHL DUP2 MSTORE PUSH1 0x4 SWAP1 REVERT JUMPDEST PUSH2 0xFFFF NOT AND PUSH2 0x101 OR DUP3 SSTORE DUP3 PUSH2 0x2175 JUMP JUMPDEST PUSH1 0x40 MLOAD PUSH3 0x461BCD PUSH1 0xE5 SHL DUP2 MSTORE PUSH1 0x20 PUSH1 0x4 DUP3 ADD MSTORE PUSH1 0x2E PUSH1 0x24 DUP3 ADD MSTORE PUSH32 0x496E697469616C697A61626C653A20636F6E747261637420697320616C726561 PUSH1 0x44 DUP3 ADD MSTORE PUSH14 0x191E481A5B9A5D1A585B1A5E9959 PUSH1 0x92 SHL PUSH1 0x64 DUP3 ADD MSTORE PUSH1 0x84 SWAP1 REVERT JUMPDEST POP ADDRESS EXTCODESIZE ISZERO DUP1 ISZERO PUSH2 0x2160 JUMPI POP PUSH1 0x1 PUSH1 0xFF DUP3 AND EQ PUSH2 0x2160 JUMP JUMPDEST POP PUSH1 0x1 PUSH1 0xFF DUP3 AND LT PUSH2 0x2159 JUMP JUMPDEST DUP3 PUSH1 0x60 CALLDATASIZE PUSH1 0x3 NOT ADD SLT PUSH2 0x8EB JUMPI PUSH1 0x1 PUSH1 0x1 PUSH1 0xA0 SHL SUB SWAP1 PUSH1 0x44 CALLDATALOAD DUP3 DUP2 AND SWAP2 SWAP1 DUP3 SWAP1 SUB PUSH2 0x8EB JUMPI PUSH1 0x40 MLOAD PUSH2 0x6A0 SWAP2 PUSH2 0x25D8 PUSH1 0xC0 DUP4 PUSH2 0x42F6 JUMP JUMPDEST PUSH1 0x4 CALLDATALOAD DUP3 MSTORE PUSH1 0x20 DUP3 ADD SWAP1 PUSH1 0x24 CALLDATALOAD DUP3 MSTORE PUSH1 0x40 DUP4 ADD SWAP6 CALLVALUE DUP8 MSTORE PUSH1 0x60 DUP5 ADD SWAP1 CALLER DUP3 MSTORE PUSH1 0x80 DUP6 ADD SWAP7 DUP8 MSTORE PUSH1 0xA0 DUP6 ADD SWAP3 DUP4 MSTORE PUSH2 0x600 PUSH2 0x4D05 JUMP JUMPDEST DUP3 CALLVALUE PUSH2 0x5A1 JUMPI PUSH1 0x20 CALLDATASIZE PUSH1 0x3 NOT ADD SLT PUSH2 0x5A1 JUMPI PUSH1 0x20 PUSH2 0x93A CALLER CALLER PUSH1 0x4 CALLDATALOAD PUSH2 0x56B7 JUMP JUMPDEST DUP3 CALLVALUE PUSH2 0x5A1 JUMPI PUSH1 0x20 CALLDATASIZE PUSH1 0x3 NOT ADD SLT PUSH2 0x5A1 JUMPI PUSH1 0x20 PUSH2 0x93A PUSH1 0x4 CALLDATALOAD PUSH2 0x4B46 JUMP JUMPDEST DUP3 CALLVALUE PUSH2 0x5A1 JUMPI DUP1 PUSH1 0x3 NOT CALLDATASIZE ADD SLT PUSH2 0x5A1 JUMPI PUSH1 0x20 PUSH2 0x17C SLOAD PUSH1 0x40 MLOAD SWAP1 DUP2 MSTORE RETURN JUMPDEST DUP3 CALLVALUE PUSH2 0x5A1 JUMPI DUP1 PUSH1 0x3 NOT CALLDATASIZE ADD SLT PUSH2 0x5A1 JUMPI PUSH2 0x2685 PUSH2 0x5AD0 JUMP JUMPDEST PUSH1 0xCA SLOAD PUSH1 0x10 DUP2 SWAP1 SHR PUSH1 0x1 PUSH1 0x1 PUSH1 0xA0 SHL SUB AND CALLER SUB PUSH2 0x26F3 JUMPI PUSH1 0xFF DUP2 AND ISZERO PUSH2 0x26E1 JUMPI PUSH2 0x100 SWAP1 PUSH2 0xFF00 NOT AND OR PUSH1 0xCA SSTORE PUSH32 0x62E78CEA01BEE320CD4E420270B5EA74000D11B0C9F74754EBDBFC544B05A258 PUSH1 0x20 PUSH1 0x40 MLOAD CALLER DUP2 MSTORE LOG1 PUSH1 0x40 MLOAD RETURN JUMPDEST PUSH1 0x40 MLOAD PUSH4 0x866099C3 PUSH1 0xE0 SHL DUP2 MSTORE PUSH1 0x4 SWAP1 REVERT JUMPDEST PUSH1 0x40 MLOAD PUSH4 0x1D77D477 PUSH1 0xE2 SHL DUP2 MSTORE PUSH1 0x4 SWAP1 REVERT JUMPDEST DUP3 PUSH1 0x40 CALLDATASIZE PUSH1 0x3 NOT ADD SLT PUSH2 0x8EB JUMPI PUSH1 0x40 MLOAD SWAP1 PUSH2 0x2721 PUSH1 0xC0 DUP4 PUSH2 0x42F6 JUMP JUMPDEST PUSH1 0x4 CALLDATALOAD DUP3 MSTORE PUSH2 0x6A0 PUSH1 0x20 DUP4 ADD SWAP3 PUSH1 0x24 CALLDATALOAD DUP5 MSTORE PUSH1 0x40 DUP2 ADD SWAP4 CALLVALUE DUP6 MSTORE PUSH1 0x60 DUP3 ADD SWAP4 CALLER DUP6 MSTORE PUSH1 0x80 DUP4 ADD SWAP5 CALLER DUP7 MSTORE PUSH1 0xA0 DUP5 ADD SWAP2 DUP3 MSTORE PUSH2 0x275A PUSH2 0x4D05 JUMP JUMPDEST PUSH2 0x2762 PUSH2 0x5AD0 JUMP JUMPDEST PUSH2 0x276A PUSH2 0x59AE JUMP JUMPDEST PUSH2 0x27B4 PUSH2 0x27A1 PUSH2 0x2778 PUSH2 0x58F2 JUMP JUMPDEST SWAP2 SWAP1 PUSH2 0x2795 PUSH2 0x2788 DUP10 MLOAD DUP6 PUSH2 0x4830 JUMP JUMPDEST MLOAD SWAP4 PUSH2 0x63B DUP6 DUP12 MLOAD PUSH2 0x5199 JUMP JUMPDEST SWAP2 DUP5 DUP11 MLOAD DUP11 MLOAD SWAP1 PUSH2 0x51F0 JUMP JUMPDEST PUSH2 0x660 PUSH8 0xDE0B6B3A7640000 DUP7 MLOAD PUSH2 0x4957 JUMP JUMPDEST SWAP3 PUSH2 0x27BD PUSH2 0x4CB6 JUMP JUMPDEST POP PUSH1 0x1 DUP1 PUSH1 0xA0 SHL SUB SWAP1 PUSH2 0x695 DUP3 DUP5 MLOAD AND DUP7 DUP5 DUP8 MLOAD AND PUSH2 0x688 DUP11 MLOAD PUSH2 0x176 PUSH2 0x4198 JUMP JUMPDEST DUP3 CALLVALUE PUSH2 0x5A1 JUMPI DUP1 PUSH1 0x3 NOT CALLDATASIZE ADD SLT PUSH2 0x5A1 JUMPI PUSH1 0x20 PUSH2 0x93A PUSH2 0x1E3E PUSH2 0x11D1 PUSH2 0x4C1C JUMP JUMPDEST DUP3 CALLVALUE PUSH2 0x5A1 JUMPI DUP1 PUSH1 0x3 NOT CALLDATASIZE ADD SLT PUSH2 0x5A1 JUMPI PUSH2 0x1E9 SLOAD PUSH1 0x40 MLOAD PUSH1 0x1 PUSH1 0x1 PUSH1 0xA0 SHL SUB SWAP1 SWAP2 AND DUP2 MSTORE PUSH1 0x20 SWAP1 RETURN JUMPDEST DUP3 PUSH2 0x2836 CALLDATASIZE PUSH1 0x4 PUSH2 0x420F JUMP JUMPDEST SWAP4 SWAP2 SWAP3 PUSH1 0x40 MLOAD SWAP6 PUSH2 0x2847 SWAP1 DUP8 PUSH2 0x42F6 JUMP JUMPDEST DUP6 MSTORE PUSH1 0x20 DUP6 ADD SWAP3 DUP4 MSTORE PUSH1 0x40 DUP6 ADD MSTORE PUSH1 0x60 DUP5 ADD CALLVALUE DUP2 MSTORE PUSH1 0x80 DUP6 ADD CALLER DUP2 MSTORE PUSH1 0xA0 DUP7 ADD SWAP5 PUSH1 0x1 PUSH1 0xA0 SHL PUSH1 0x1 SWAP1 SUB DUP1 SWAP2 AND DUP7 MSTORE PUSH1 0xC0 DUP8 ADD SWAP3 DUP5 DUP5 MSTORE PUSH2 0x2886 PUSH2 0x4D05 JUMP JUMPDEST PUSH2 0x288E PUSH2 0x5AD0 JUMP JUMPDEST PUSH2 0x2896 PUSH2 0x59AE JUMP JUMPDEST PUSH2 0x289E PUSH2 0x58F2 JUMP JUMPDEST SWAP8 SWAP1 DUP10 MLOAD PUSH2 0x28AC SWAP1 DUP11 PUSH2 0x4830 JUMP JUMPDEST MLOAD SWAP9 DUP10 DUP12 MLOAD SWAP1 PUSH2 0x28BB SWAP2 PUSH2 0x5199 JUMP JUMPDEST PUSH2 0x28C5 SWAP1 DUP3 PUSH2 0x4DDB JUMP JUMPDEST DUP3 DUP2 DUP4 DUP13 MLOAD SWAP3 PUSH2 0x28D4 SWAP4 PUSH2 0x576F JUMP JUMPDEST DUP10 MLOAD SWAP2 PUSH8 0xDE0B6B3A7640000 DUP1 SWAP4 PUSH2 0x28EC DUP5 DUP5 PUSH2 0x4E1E JUMP JUMPDEST PUSH2 0x28F5 SWAP2 PUSH2 0x4957 JUMP JUMPDEST DIV SWAP4 DUP5 ISZERO PUSH2 0x749 JUMPI DUP13 PUSH2 0x2922 SWAP5 DUP16 SWAP15 PUSH2 0xA55 DUP16 SWAP2 PUSH2 0xA50 PUSH2 0x203C SWAP4 MLOAD PUSH2 0x819 DUP10 PUSH2 0xA4B DUP13 PUSH2 0x163 SLOAD PUSH2 0x4A15 JUMP JUMPDEST PUSH1 0x40 DUP10 ADD MLOAD DUP1 DUP12 LT PUSH2 0x294F JUMPI POP PUSH2 0x2076 SWAP1 PUSH2 0x293B PUSH2 0x4CB6 JUMP JUMPDEST POP DUP5 DUP7 MLOAD AND SWAP1 DUP6 DUP9 MLOAD AND PUSH2 0x172 SLOAD SWAP3 PUSH2 0x4E59 JUMP JUMPDEST PUSH1 0x44 SWAP1 DUP12 PUSH1 0x40 MLOAD SWAP2 PUSH4 0x272E3F59 PUSH1 0xE2 SHL DUP4 MSTORE PUSH1 0x4 DUP4 ADD MSTORE PUSH1 0x24 DUP3 ADD MSTORE REVERT JUMPDEST DUP3 CALLVALUE PUSH2 0x5A1 JUMPI PUSH1 0x20 CALLDATASIZE PUSH1 0x3 NOT ADD SLT PUSH2 0x5A1 JUMPI PUSH1 0x4 CALLDATALOAD SWAP1 PUSH2 0x17A SWAP1 DUP2 SLOAD DUP4 LT ISZERO PUSH2 0x5A1 JUMPI PUSH1 0x20 PUSH2 0x1210 DUP5 DUP5 PUSH2 0x4198 JUMP JUMPDEST DUP3 CALLVALUE PUSH2 0x5A1 JUMPI PUSH1 0x20 CALLDATASIZE PUSH1 0x3 NOT ADD SLT PUSH2 0x5A1 JUMPI PUSH2 0x29B6 PUSH2 0x5A42 JUMP JUMPDEST PUSH1 0x4 CALLDATALOAD PUSH2 0x17B SSTORE PUSH1 0x40 MLOAD RETURN JUMPDEST SWAP1 POP CALLVALUE PUSH2 0xCB4 JUMPI SWAP1 PUSH2 0x1C81 SWAP2 PUSH2 0x29D9 CALLDATASIZE PUSH1 0x4 PUSH2 0x4235 JUMP JUMPDEST SWAP3 SWAP4 PUSH2 0x29EB PUSH1 0x40 SWAP8 SWAP4 SWAP8 MLOAD SWAP7 DUP8 PUSH2 0x42F6 JUMP JUMPDEST DUP6 MSTORE PUSH1 0x20 DUP6 ADD SWAP4 DUP5 MSTORE PUSH1 0x40 DUP6 ADD SWAP6 DUP7 MSTORE PUSH1 0x60 DUP6 ADD MSTORE CALLER PUSH1 0x80 DUP6 ADD DUP2 DUP2 MSTORE PUSH1 0xA0 DUP7 ADD SWAP2 DUP3 MSTORE PUSH1 0x1 PUSH1 0x1 PUSH1 0xA0 SHL SUB SWAP4 DUP5 AND PUSH1 0xC0 DUP8 ADD SWAP1 DUP2 MSTORE SWAP1 SWAP5 SWAP1 PUSH2 0x1C4E PUSH2 0x4D05 JUMP JUMPDEST DUP3 CALLVALUE PUSH2 0x5A1 JUMPI PUSH1 0x20 CALLDATASIZE PUSH1 0x3 NOT ADD SLT PUSH2 0x5A1 JUMPI PUSH2 0x2A46 PUSH2 0x5A42 JUMP JUMPDEST PUSH1 0x4 CALLDATALOAD PUSH2 0x172 SSTORE PUSH1 0x40 MLOAD RETURN JUMPDEST SWAP1 POP PUSH2 0x194C PUSH2 0x2A62 CALLDATASIZE PUSH1 0x4 PUSH2 0x4282 JUMP JUMPDEST SWAP4 SWAP5 SWAP1 PUSH1 0x40 SWAP7 SWAP3 SWAP4 SWAP7 MLOAD SWAP2 PUSH2 0x2A79 PUSH2 0x100 DUP5 PUSH2 0x42F6 JUMP JUMPDEST DUP3 MSTORE PUSH1 0x20 DUP3 ADD SWAP6 DUP7 MSTORE PUSH1 0x40 DUP3 ADD SWAP7 DUP8 MSTORE PUSH1 0x60 DUP3 ADD SWAP4 DUP5 MSTORE PUSH1 0x80 DUP3 ADD SWAP7 CALLVALUE DUP9 MSTORE PUSH1 0xA0 DUP4 ADD SWAP5 CALLER DUP7 MSTORE PUSH1 0xC0 DUP5 ADD SWAP2 PUSH1 0x1 DUP1 PUSH1 0xA0 SHL SUB SWAP9 DUP10 DUP1 SWAP6 AND DUP5 MSTORE DUP5 DUP13 DUP8 ADD SWAP10 AND DUP10 MSTORE PUSH2 0x18D6 PUSH2 0x4D05 JUMP JUMPDEST DUP3 CALLVALUE PUSH2 0x5A1 JUMPI DUP1 PUSH1 0x3 NOT CALLDATASIZE ADD SLT PUSH2 0x5A1 JUMPI PUSH1 0x20 PUSH2 0x1B6 SLOAD PUSH1 0x40 MLOAD SWAP1 DUP2 MSTORE RETURN JUMPDEST DUP3 CALLVALUE PUSH2 0x5A1 JUMPI PUSH1 0x20 CALLDATASIZE PUSH1 0x3 NOT ADD SLT PUSH2 0x5A1 JUMPI PUSH2 0x2AFC PUSH2 0x5A42 JUMP JUMPDEST PUSH1 0x4 CALLDATALOAD PUSH2 0x173 SSTORE PUSH1 0x40 MLOAD RETURN JUMPDEST DUP3 CALLVALUE PUSH2 0x5A1 JUMPI DUP1 PUSH1 0x3 NOT CALLDATASIZE ADD SLT PUSH2 0x5A1 JUMPI PUSH1 0x20 PUSH2 0x166 SLOAD PUSH1 0x40 MLOAD SWAP1 DUP2 MSTORE RETURN JUMPDEST DUP3 CALLVALUE PUSH2 0x5A1 JUMPI DUP1 PUSH1 0x3 NOT CALLDATASIZE ADD SLT PUSH2 0x5A1 JUMPI PUSH1 0x20 PUSH2 0x174 SLOAD PUSH1 0x40 MLOAD SWAP1 DUP2 MSTORE RETURN JUMPDEST DUP3 CALLVALUE PUSH2 0x5A1 JUMPI PUSH1 0x20 CALLDATASIZE PUSH1 0x3 NOT ADD SLT PUSH2 0x5A1 JUMPI PUSH2 0x2B60 PUSH2 0x5A42 JUMP JUMPDEST PUSH1 0x4 CALLDATALOAD PUSH2 0x16D SSTORE PUSH1 0x40 MLOAD RETURN JUMPDEST DUP3 CALLVALUE PUSH2 0x5A1 JUMPI DUP1 PUSH1 0x3 NOT CALLDATASIZE ADD SLT PUSH2 0x5A1 JUMPI PUSH1 0x20 PUSH2 0x16B SLOAD PUSH1 0x40 MLOAD SWAP1 DUP2 MSTORE RETURN JUMPDEST DUP3 PUSH1 0x60 CALLDATASIZE PUSH1 0x3 NOT ADD SLT PUSH2 0x8EB JUMPI PUSH1 0x1 PUSH1 0x1 PUSH1 0xA0 SHL SUB PUSH1 0x44 CALLDATALOAD DUP2 DUP2 AND SWAP1 DUP2 SWAP1 SUB PUSH2 0x8EB JUMPI PUSH1 0x40 MLOAD SWAP1 PUSH2 0x2BBD PUSH1 0xC0 DUP4 PUSH2 0x42F6 JUMP JUMPDEST PUSH1 0x4 CALLDATALOAD DUP3 MSTORE PUSH1 0x20 DUP3 ADD PUSH1 0x24 CALLDATALOAD DUP2 MSTORE PUSH1 0x40 DUP4 ADD SWAP3 CALLVALUE DUP5 MSTORE PUSH1 0x60 DUP2 ADD SWAP3 CALLER DUP5 MSTORE PUSH1 0x80 DUP3 ADD SWAP4 CALLER DUP6 MSTORE PUSH1 0xA0 DUP4 ADD SWAP2 DUP3 MSTORE PUSH2 0xD3B PUSH2 0x4D05 JUMP JUMPDEST DUP3 CALLVALUE PUSH2 0x5A1 JUMPI PUSH1 0x20 CALLDATASIZE PUSH1 0x3 NOT ADD SLT PUSH2 0x5A1 JUMPI PUSH2 0x2C0C PUSH2 0x5A42 JUMP JUMPDEST PUSH1 0x4 CALLDATALOAD PUSH2 0x170 SSTORE PUSH1 0x40 MLOAD RETURN JUMPDEST DUP3 CALLVALUE PUSH2 0x5A1 JUMPI DUP1 PUSH1 0x3 NOT CALLDATASIZE ADD SLT PUSH2 0x5A1 JUMPI PUSH1 0x20 PUSH2 0x17B SLOAD PUSH1 0x40 MLOAD SWAP1 DUP2 MSTORE RETURN JUMPDEST DUP3 CALLVALUE PUSH2 0x5A1 JUMPI DUP1 PUSH1 0x3 NOT CALLDATASIZE ADD SLT PUSH2 0x5A1 JUMPI PUSH2 0x2C50 PUSH2 0x5A42 JUMP JUMPDEST PUSH1 0x1 PUSH1 0xFF NOT PUSH1 0xCA SLOAD AND OR PUSH1 0xCA SSTORE PUSH1 0x40 MLOAD RETURN JUMPDEST DUP3 CALLVALUE PUSH2 0x5A1 JUMPI DUP1 PUSH1 0x3 NOT CALLDATASIZE ADD SLT PUSH2 0x5A1 JUMPI PUSH1 0x20 PUSH2 0x2C7D PUSH2 0x58F2 JUMP JUMPDEST POP PUSH1 0x40 MLOAD SWAP1 DUP2 MSTORE RETURN JUMPDEST DUP3 CALLVALUE PUSH2 0x5A1 JUMPI DUP1 PUSH1 0x3 NOT CALLDATASIZE ADD SLT PUSH2 0x5A1 JUMPI PUSH2 0x161 SLOAD PUSH1 0x40 MLOAD PUSH1 0x1 PUSH1 0x1 PUSH1 0xA0 SHL SUB SWAP1 SWAP2 AND DUP2 MSTORE PUSH1 0x20 SWAP1 RETURN JUMPDEST DUP3 CALLVALUE PUSH2 0x5A1 JUMPI DUP1 PUSH1 0x3 NOT CALLDATASIZE ADD SLT PUSH2 0x5A1 JUMPI PUSH2 0x165 SLOAD PUSH1 0x40 MLOAD PUSH1 0x1 PUSH1 0x1 PUSH1 0xA0 SHL SUB SWAP1 SWAP2 AND DUP2 MSTORE PUSH1 0x20 SWAP1 RETURN JUMPDEST DUP3 CALLVALUE PUSH2 0x5A1 JUMPI PUSH2 0x17C2 PUSH2 0x2CEE CALLDATASIZE PUSH1 0x4 PUSH2 0x420F JUMP JUMPDEST SWAP1 SWAP3 SWAP4 SWAP2 PUSH1 0x40 MLOAD SWAP5 PUSH2 0x2D01 PUSH1 0xC0 DUP8 PUSH2 0x42F6 JUMP JUMPDEST DUP6 MSTORE PUSH1 0x20 DUP6 ADD SWAP1 DUP2 MSTORE PUSH1 0x40 DUP6 ADD SWAP4 DUP5 MSTORE CALLER PUSH1 0x60 DUP7 ADD DUP2 DUP2 MSTORE PUSH1 0x80 DUP8 ADD SWAP2 DUP3 MSTORE PUSH1 0x1 PUSH1 0x1 PUSH1 0xA0 SHL SUB SWAP4 DUP5 AND PUSH1 0xA0 DUP9 ADD SWAP1 DUP2 MSTORE SWAP2 SWAP4 SWAP2 SWAP3 PUSH2 0x1752 PUSH2 0x4D05 JUMP JUMPDEST DUP3 CALLVALUE PUSH2 0x5A1 JUMPI PUSH1 0x40 CALLDATASIZE PUSH1 0x3 NOT ADD SLT PUSH2 0x5A1 JUMPI PUSH1 0x24 CALLDATALOAD PUSH1 0x1 PUSH1 0x1 PUSH1 0xA0 SHL SUB DUP2 AND DUP2 SUB PUSH2 0x8EB JUMPI PUSH2 0x93A PUSH1 0x20 SWAP2 CALLER PUSH1 0x4 CALLDATALOAD PUSH2 0x56B7 JUMP JUMPDEST DUP3 CALLVALUE PUSH2 0x5A1 JUMPI DUP1 PUSH1 0x3 NOT CALLDATASIZE ADD SLT PUSH2 0x5A1 JUMPI PUSH1 0x20 PUSH1 0xFF PUSH1 0xCA SLOAD PUSH1 0x8 SHR AND PUSH1 0x40 MLOAD SWAP1 ISZERO ISZERO DUP2 MSTORE RETURN JUMPDEST DUP3 CALLVALUE PUSH2 0x5A1 JUMPI DUP1 PUSH1 0x3 NOT CALLDATASIZE ADD SLT PUSH2 0x5A1 JUMPI PUSH2 0x2DB1 PUSH2 0x5AD0 JUMP JUMPDEST PUSH2 0x17F DUP1 SLOAD NUMBER LT PUSH2 0x3030 JUMPI PUSH2 0x2DC9 PUSH2 0x17E SLOAD NUMBER PUSH2 0x480D JUMP JUMPDEST SWAP1 SSTORE PUSH32 0xD3C59BDA47E141A8EC5A33D241B7F71B86E30D359F83A9227D912858B60404FC DUP2 PUSH1 0x40 MLOAD LOG1 DUP1 PUSH2 0x169 SLOAD PUSH2 0x2DFF DUP2 PUSH2 0x4A3A JUMP JUMPDEST SWAP1 DUP4 JUMPDEST DUP2 DUP2 LT PUSH2 0x2F63 JUMPI POP POP DUP2 PUSH2 0x2E7B JUMPI JUMPDEST PUSH1 0x40 MLOAD SWAP2 PUSH1 0x40 DUP4 ADD SWAP1 DUP4 MSTORE PUSH1 0x20 SWAP1 PUSH1 0x40 DUP3 DUP6 ADD MSTORE DUP3 MLOAD DUP1 SWAP2 MSTORE DUP2 PUSH1 0x60 DUP6 ADD SWAP4 ADD SWAP2 DUP6 JUMPDEST DUP3 DUP2 LT PUSH2 0x2E67 JUMPI DUP7 PUSH32 0xAE5116A8119D08673A0F1DFA7546B95DA4BD54BB17FEDA7C61130AC7859152F6 DUP8 DUP8 SUB DUP9 LOG1 PUSH1 0x40 MLOAD RETURN JUMPDEST DUP4 MLOAD DUP6 MSTORE SWAP4 DUP2 ADD SWAP4 SWAP3 DUP2 ADD SWAP3 PUSH1 0x1 ADD PUSH2 0x2E34 JUMP JUMPDEST SWAP1 PUSH2 0x2E93 PUSH8 0xDE0B6B3A7640000 SWAP2 PUSH2 0x16B SLOAD SWAP1 PUSH2 0x4957 JUMP JUMPDEST DIV SWAP1 PUSH2 0x163 PUSH2 0x2EA3 DUP4 DUP3 SLOAD PUSH2 0x4A15 JUMP JUMPDEST SWAP1 SSTORE PUSH2 0x178 SLOAD PUSH2 0x12F DUP1 SLOAD SWAP1 SWAP2 PUSH1 0x1 PUSH1 0x1 PUSH1 0xA0 SHL SUB AND SWAP1 PUSH1 0x2 EQ PUSH2 0x2F1E JUMPI PUSH1 0x2 DUP3 SSTORE DUP4 PUSH2 0x2ED5 JUMPI JUMPDEST POP PUSH1 0x1 SWAP1 SSTORE PUSH2 0x2E11 JUMP JUMPDEST DUP1 ISZERO PUSH2 0x2F0C JUMPI DUP5 DUP1 DUP1 SWAP3 DUP7 PUSH1 0x40 MLOAD SWAP2 GAS CALL PUSH2 0x2EEE PUSH2 0x4701 JUMP JUMPDEST POP ISZERO PUSH2 0x2EFA JUMPI DUP5 PUSH2 0x2ECB JUMP JUMPDEST PUSH1 0x40 MLOAD PUSH4 0x12171D83 PUSH1 0xE3 SHL DUP2 MSTORE PUSH1 0x4 SWAP1 REVERT JUMPDEST PUSH1 0x40 MLOAD PUSH4 0xE6C4247B PUSH1 0xE0 SHL DUP2 MSTORE PUSH1 0x4 SWAP1 REVERT JUMPDEST PUSH1 0x40 MLOAD PUSH3 0x461BCD PUSH1 0xE5 SHL DUP2 MSTORE PUSH1 0x20 PUSH1 0x4 DUP3 ADD MSTORE PUSH1 0x1F PUSH1 0x24 DUP3 ADD MSTORE PUSH32 0x5265656E7472616E637947756172643A207265656E7472616E742063616C6C00 PUSH1 0x44 DUP3 ADD MSTORE PUSH1 0x64 SWAP1 REVERT JUMPDEST PUSH2 0x2F6C DUP2 PUSH2 0x4B46 JUMP JUMPDEST PUSH2 0x2F76 DUP2 DUP4 PUSH2 0x5199 JUMP JUMPDEST DUP6 PUSH2 0x180 SWAP2 PUSH2 0x2F85 DUP5 DUP5 PUSH2 0x4198 JUMP JUMPDEST SWAP1 SLOAD SWAP1 PUSH1 0x3 SHL SHR SWAP1 DUP3 DUP3 SGT PUSH2 0x2FA1 JUMPI JUMPDEST POP POP POP POP PUSH1 0x1 ADD PUSH2 0x2E02 JUMP JUMPDEST DUP5 PUSH2 0x2FE5 DUP4 PUSH1 0x1 SWAP8 SWAP7 SWAP11 PUSH2 0x2FCE PUSH2 0x2FD4 PUSH2 0x3004 SWAP8 PUSH2 0x2FEB SWAP8 PUSH8 0xDE0B6B3A7640000 SWAP4 DUP5 SWAP2 PUSH2 0x16C SLOAD PUSH2 0x4957 JUMP JUMPDEST DIV PUSH2 0x4957 JUMP JUMPDEST DIV PUSH2 0x2FDF DUP6 DUP14 PUSH2 0x4830 JUMP JUMPDEST MSTORE PUSH2 0x480D JUMP JUMPDEST SWAP9 PUSH2 0x4198 JUMP JUMPDEST DUP2 SWAP4 SWAP2 SLOAD SWAP1 PUSH1 0x3 SHL PUSH1 0x0 NOT DUP2 SHL SWAP3 DUP4 SWAP2 SHL AND SWAP2 NOT AND OR SWAP1 JUMP JUMPDEST SWAP1 SSTORE PUSH2 0x3027 PUSH2 0x3013 DUP3 DUP7 PUSH2 0x4830 JUMP JUMPDEST MLOAD DUP8 DUP5 DUP1 PUSH1 0xA0 SHL SUB PUSH2 0x179 SLOAD AND SWAP2 DUP5 PUSH2 0x5100 JUMP JUMPDEST SWAP1 DUP6 DUP8 DUP1 PUSH2 0x2F95 JUMP JUMPDEST PUSH1 0x40 MLOAD PUSH4 0x101B6859 PUSH1 0xE0 SHL DUP2 MSTORE PUSH1 0x4 SWAP1 REVERT JUMPDEST DUP3 CALLVALUE PUSH2 0x5A1 JUMPI PUSH2 0x17C2 SWAP1 PUSH2 0x3057 CALLDATASIZE PUSH1 0x4 PUSH2 0x420F JUMP JUMPDEST PUSH1 0x40 MLOAD SWAP6 SWAP2 SWAP5 SWAP2 SWAP4 PUSH2 0x306A PUSH1 0xC0 DUP9 PUSH2 0x42F6 JUMP JUMPDEST DUP7 MSTORE PUSH1 0x20 DUP7 ADD SWAP3 DUP4 MSTORE PUSH1 0x40 DUP7 ADD SWAP5 DUP6 MSTORE CALLER PUSH1 0x60 DUP8 ADD SWAP1 DUP2 MSTORE PUSH1 0x1 PUSH1 0x1 PUSH1 0xA0 SHL SUB SWAP2 DUP3 AND PUSH1 0x80 DUP9 ADD SWAP1 DUP2 MSTORE PUSH1 0xA0 DUP9 ADD SWAP4 DUP5 MSTORE SWAP4 PUSH2 0x1752 PUSH2 0x4D05 JUMP JUMPDEST DUP3 CALLVALUE PUSH2 0x5A1 JUMPI PUSH1 0x20 CALLDATASIZE PUSH1 0x3 NOT ADD SLT PUSH2 0x5A1 JUMPI PUSH2 0x30BE PUSH2 0x5A42 JUMP JUMPDEST PUSH1 0x4 CALLDATALOAD PUSH2 0x175 SSTORE PUSH1 0x40 MLOAD RETURN JUMPDEST DUP3 CALLVALUE PUSH2 0x5A1 JUMPI DUP1 PUSH1 0x3 NOT CALLDATASIZE ADD SLT PUSH2 0x5A1 JUMPI PUSH32 0x0 PUSH1 0x1 PUSH1 0x1 PUSH1 0xA0 SHL SUB AND ADDRESS SUB PUSH2 0x3135 JUMPI PUSH1 0x20 PUSH1 0x40 MLOAD PUSH32 0x360894A13BA1A3210667C828492DB98DCA3E2076CC3735A920A3CA505D382BBC DUP2 MSTORE RETURN JUMPDEST PUSH1 0x40 MLOAD PUSH3 0x461BCD PUSH1 0xE5 SHL DUP2 MSTORE PUSH1 0x20 PUSH1 0x4 DUP3 ADD MSTORE PUSH1 0x38 PUSH1 0x24 DUP3 ADD MSTORE PUSH32 0x555550535570677261646561626C653A206D757374206E6F742062652063616C PUSH1 0x44 DUP3 ADD MSTORE PUSH32 0x6C6564207468726F7567682064656C656761746563616C6C0000000000000000 PUSH1 0x64 DUP3 ADD MSTORE PUSH1 0x84 SWAP1 REVERT JUMPDEST DUP3 CALLVALUE PUSH2 0x5A1 JUMPI PUSH1 0x20 CALLDATASIZE PUSH1 0x3 NOT ADD SLT PUSH2 0x5A1 JUMPI PUSH1 0x4 CALLDATALOAD SWAP1 PUSH2 0x177 SWAP1 DUP2 SLOAD DUP4 LT ISZERO PUSH2 0x5A1 JUMPI PUSH1 0x20 PUSH2 0x1210 DUP5 DUP5 PUSH2 0x4198 JUMP JUMPDEST DUP3 CALLVALUE PUSH2 0x5A1 JUMPI DUP1 PUSH1 0x3 NOT CALLDATASIZE ADD SLT PUSH2 0x5A1 JUMPI PUSH2 0x31E8 PUSH2 0x5A42 JUMP JUMPDEST PUSH1 0xFF NOT PUSH1 0xCA SLOAD AND PUSH1 0xCA SSTORE PUSH1 0x40 MLOAD RETURN JUMPDEST DUP3 PUSH1 0x40 CALLDATASIZE PUSH1 0x3 NOT ADD SLT PUSH2 0x5A1 JUMPI PUSH1 0x1 PUSH1 0x1 PUSH1 0xA0 SHL SUB PUSH1 0x4 CALLDATALOAD DUP2 DUP2 AND DUP2 SUB PUSH2 0x8EB JUMPI DUP3 SWAP2 PUSH1 0x24 CALLDATALOAD SWAP2 PUSH8 0xFFFFFFFFFFFFFFFF DUP4 GT PUSH2 0x32E6 JUMPI CALLDATASIZE PUSH1 0x23 DUP5 ADD SLT ISZERO PUSH2 0x32E6 JUMPI DUP3 PUSH1 0x4 ADD CALLDATALOAD PUSH2 0x3246 DUP2 PUSH2 0x432E JUMP JUMPDEST SWAP3 PUSH2 0x3254 PUSH1 0x40 MLOAD SWAP5 DUP6 PUSH2 0x42F6 JUMP JUMPDEST DUP2 DUP5 MSTORE CALLDATASIZE PUSH1 0x24 DUP4 DUP8 ADD ADD GT PUSH2 0x32E2 JUMPI PUSH2 0x12D6 SWAP6 PUSH1 0x20 DUP4 PUSH2 0x32D5 SWAP5 PUSH1 0x24 PUSH1 0x1 SWAP10 ADD DUP4 DUP10 ADD CALLDATACOPY DUP7 ADD ADD MSTORE DUP1 PUSH32 0x0 AND SWAP1 PUSH2 0x32AC DUP3 ADDRESS EQ ISZERO PUSH2 0x434A JUMP JUMPDEST PUSH32 0x360894A13BA1A3210667C828492DB98DCA3E2076CC3735A920A3CA505D382BBC SLOAD AND EQ PUSH2 0x43AB JUMP JUMPDEST PUSH2 0x32DD PUSH2 0x5A42 JUMP JUMPDEST PUSH2 0x440C JUMP JUMPDEST DUP6 DUP1 REVERT JUMPDEST POP POP POP REVERT JUMPDEST DUP3 CALLVALUE PUSH2 0x5A1 JUMPI DUP1 PUSH1 0x3 NOT CALLDATASIZE ADD SLT PUSH2 0x5A1 JUMPI PUSH1 0x20 PUSH2 0x16D SLOAD PUSH1 0x40 MLOAD SWAP1 DUP2 MSTORE RETURN JUMPDEST DUP3 CALLVALUE PUSH2 0x5A1 JUMPI DUP1 PUSH1 0x3 NOT CALLDATASIZE ADD SLT PUSH2 0x5A1 JUMPI PUSH2 0x179 SLOAD PUSH1 0x40 MLOAD PUSH1 0x1 PUSH1 0x1 PUSH1 0xA0 SHL SUB SWAP1 SWAP2 AND DUP2 MSTORE PUSH1 0x20 SWAP1 RETURN JUMPDEST DUP3 CALLVALUE PUSH2 0x5A1 JUMPI DUP1 PUSH1 0x3 NOT CALLDATASIZE ADD SLT PUSH2 0x5A1 JUMPI PUSH1 0x20 PUSH2 0x17E SLOAD PUSH1 0x40 MLOAD SWAP1 DUP2 MSTORE RETURN JUMPDEST DUP3 CALLVALUE PUSH2 0x5A1 JUMPI PUSH1 0x20 CALLDATASIZE PUSH1 0x3 NOT ADD SLT PUSH2 0x5A1 JUMPI PUSH1 0x4 CALLDATALOAD SWAP1 PUSH2 0x169 SWAP1 DUP2 SLOAD DUP4 LT ISZERO PUSH2 0x5A1 JUMPI PUSH1 0x40 PUSH2 0x3382 DUP5 DUP5 PUSH2 0x42DA JUMP JUMPDEST POP DUP1 SLOAD PUSH1 0x1 SWAP1 SWAP2 ADD SLOAD DUP3 MLOAD SWAP2 DUP3 MSTORE PUSH1 0x1 PUSH1 0x1 PUSH1 0xA0 SHL SUB AND PUSH1 0x20 DUP3 ADD MSTORE RETURN JUMPDEST DUP3 CALLVALUE PUSH2 0x5A1 JUMPI PUSH1 0x60 CALLDATASIZE PUSH1 0x3 NOT ADD SLT PUSH2 0x8EB JUMPI PUSH1 0x44 CALLDATALOAD PUSH1 0x1 PUSH1 0x1 PUSH1 0xA0 SHL SUB DUP2 DUP2 AND SWAP2 DUP3 SWAP1 SUB PUSH2 0x8EB JUMPI PUSH1 0x40 MLOAD SWAP2 PUSH2 0x33D7 PUSH1 0xA0 DUP5 PUSH2 0x42F6 JUMP JUMPDEST PUSH1 0x4 CALLDATALOAD DUP4 MSTORE PUSH1 0x20 DUP4 ADD SWAP2 PUSH1 0x24 CALLDATALOAD DUP4 MSTORE PUSH1 0x40 DUP5 ADD SWAP2 CALLER DUP4 MSTORE PUSH1 0x60 DUP6 ADD SWAP2 CALLER DUP4 MSTORE PUSH1 0x80 DUP7 ADD SWAP2 DUP3 MSTORE PUSH2 0x1085 PUSH2 0x4D05 JUMP JUMPDEST DUP3 CALLVALUE PUSH2 0x5A1 JUMPI DUP1 PUSH1 0x3 NOT CALLDATASIZE ADD SLT PUSH2 0x5A1 JUMPI PUSH1 0x20 PUSH2 0x170 SLOAD PUSH1 0x40 MLOAD SWAP1 DUP2 MSTORE RETURN JUMPDEST DUP3 CALLVALUE PUSH2 0x5A1 JUMPI DUP1 PUSH1 0x3 NOT CALLDATASIZE ADD SLT PUSH2 0x5A1 JUMPI PUSH1 0x20 PUSH2 0x93A PUSH2 0x3453 PUSH2 0x3463 PUSH2 0x345D PUSH2 0x344B PUSH2 0x58F2 JUMP JUMPDEST SWAP4 SWAP1 SWAP4 PUSH2 0x4844 JUMP JUMPDEST DUP2 DUP2 SWAP4 SWAP3 SWAP6 PUSH2 0x5260 JUMP JUMPDEST SWAP3 PUSH2 0x4E1E JUMP JUMPDEST SWAP1 PUSH2 0x496A JUMP JUMPDEST DUP3 CALLVALUE PUSH2 0x5A1 JUMPI DUP1 PUSH1 0x3 NOT CALLDATASIZE ADD SLT PUSH2 0x5A1 JUMPI PUSH1 0xCA SLOAD PUSH1 0xFF DUP2 PUSH1 0x8 SHR AND ISZERO PUSH2 0x34D4 JUMPI PUSH1 0x10 DUP2 SWAP1 SHR PUSH1 0x1 PUSH1 0x1 PUSH1 0xA0 SHL SUB AND CALLER SUB PUSH2 0x26F3 JUMPI PUSH2 0xFF00 NOT AND PUSH1 0xCA SSTORE PUSH32 0x5DB9EE0A495BF2E6FF9C91A7834C1BA4FDD244A5E8AA4E537BD38AEAE4B073AA PUSH1 0x20 PUSH1 0x40 MLOAD CALLER DUP2 MSTORE LOG1 PUSH1 0x40 MLOAD RETURN JUMPDEST PUSH1 0x40 MLOAD PUSH4 0x7C7FD079 PUSH1 0xE0 SHL DUP2 MSTORE PUSH1 0x4 SWAP1 REVERT JUMPDEST DUP3 CALLVALUE PUSH2 0x5A1 JUMPI PUSH2 0x34F7 CALLDATASIZE PUSH1 0x4 PUSH2 0x42B4 JUMP JUMPDEST SWAP1 PUSH1 0x40 MLOAD SWAP4 PUSH2 0x3507 PUSH1 0xA0 DUP7 PUSH2 0x42F6 JUMP JUMPDEST DUP5 MSTORE PUSH1 0x20 DUP5 ADD SWAP3 DUP4 MSTORE PUSH1 0x40 DUP5 ADD SWAP2 CALLER DUP4 MSTORE PUSH1 0x60 DUP6 ADD SWAP2 PUSH1 0x1 DUP1 PUSH1 0xA0 SHL SUB DUP1 SWAP2 AND DUP4 MSTORE DUP1 PUSH1 0x80 DUP8 ADD SWAP3 AND DUP3 MSTORE PUSH2 0x1085 PUSH2 0x4D05 JUMP JUMPDEST DUP3 CALLVALUE PUSH2 0x5A1 JUMPI PUSH1 0x20 CALLDATASIZE PUSH1 0x3 NOT ADD SLT PUSH2 0x5A1 JUMPI PUSH2 0x3554 PUSH2 0x5A42 JUMP JUMPDEST PUSH1 0x4 CALLDATALOAD PUSH2 0x1B6 SSTORE PUSH1 0x40 MLOAD RETURN JUMPDEST DUP3 CALLVALUE PUSH2 0x5A1 JUMPI PUSH1 0x20 CALLDATASIZE PUSH1 0x3 NOT ADD SLT PUSH2 0x5A1 JUMPI PUSH1 0x4 CALLDATALOAD PUSH1 0x1 PUSH1 0x1 PUSH1 0xA0 SHL SUB DUP1 DUP3 AND DUP3 SUB PUSH2 0x8EB JUMPI PUSH2 0x12D6 SWAP2 PUSH2 0x35BF DUP3 DUP6 SWAP4 PUSH32 0x0 AND SWAP1 PUSH2 0x32AC DUP3 ADDRESS EQ ISZERO PUSH2 0x434A JUMP JUMPDEST PUSH2 0x35C7 PUSH2 0x5A42 JUMP JUMPDEST PUSH2 0x35D0 DUP3 PUSH2 0x432E JUMP JUMPDEST SWAP1 PUSH2 0x35DE PUSH1 0x40 MLOAD SWAP3 DUP4 PUSH2 0x42F6 JUMP JUMPDEST DUP3 DUP3 MSTORE PUSH1 0x1F NOT PUSH2 0x35ED DUP5 PUSH2 0x432E JUMP JUMPDEST ADD CALLDATASIZE PUSH1 0x20 DUP5 ADD CALLDATACOPY PUSH2 0x440C JUMP JUMPDEST DUP3 CALLVALUE PUSH2 0x5A1 JUMPI DUP1 PUSH1 0x3 NOT CALLDATASIZE ADD SLT PUSH2 0x5A1 JUMPI PUSH2 0x3612 PUSH2 0x5AD0 JUMP JUMPDEST PUSH2 0x17D DUP1 SLOAD PUSH1 0xFF DUP2 AND DUP1 PUSH2 0x36E0 JUMPI JUMPDEST DUP1 PUSH2 0x36C6 JUMPI JUMPDEST PUSH2 0x3632 JUMPI JUMPDEST DUP3 PUSH1 0x40 MLOAD RETURN JUMPDEST PUSH2 0xFF00 NOT AND PUSH2 0x100 OR SWAP1 SSTORE PUSH1 0x40 MLOAD PUSH32 0x8B77276C97A5709F0D6DB52329848A254EB760CE8BE80D281799F633BDB69E83 DUP3 DUP3 LOG1 PUSH2 0x165 SLOAD DUP3 SWAP1 PUSH1 0x1 PUSH1 0x1 PUSH1 0xA0 SHL SUB AND DUP1 EXTCODESIZE ISZERO PUSH2 0xCB4 JUMPI DUP3 PUSH1 0x4 DUP2 DUP5 DUP1 SWAP5 PUSH4 0x8456CB59 PUSH1 0xE0 SHL DUP4 MSTORE GAS CALL DUP1 ISZERO PUSH2 0x36B9 JUMPI PUSH2 0x36A9 JUMPI JUMPDEST POP POP PUSH2 0x36A2 PUSH2 0x4A6C JUMP JUMPDEST DUP2 DUP1 PUSH2 0x362C JUMP JUMPDEST PUSH2 0x36B2 SWAP2 PUSH2 0x42F6 JUMP JUMPDEST DUP2 DUP2 PUSH2 0x3698 JUMP JUMPDEST POP PUSH1 0x40 MLOAD SWAP1 RETURNDATASIZE SWAP1 DUP3 RETURNDATACOPY RETURNDATASIZE SWAP1 REVERT JUMPDEST POP PUSH2 0x36D5 PUSH2 0x1E3E PUSH2 0x11D1 PUSH2 0x4C1C JUMP JUMPDEST PUSH2 0x17C SLOAD LT ISZERO PUSH2 0x3627 JUMP JUMPDEST POP PUSH1 0xFF DUP2 PUSH1 0x8 SHR AND ISZERO PUSH2 0x3621 JUMP JUMPDEST DUP3 CALLVALUE PUSH2 0x5A1 JUMPI DUP1 PUSH1 0x3 NOT CALLDATASIZE ADD SLT PUSH2 0x5A1 JUMPI PUSH1 0x20 PUSH2 0x171 SLOAD PUSH1 0x40 MLOAD SWAP1 DUP2 MSTORE RETURN JUMPDEST DUP3 PUSH1 0x20 CALLDATASIZE PUSH1 0x3 NOT ADD SLT PUSH2 0x5A1 JUMPI PUSH1 0x40 MLOAD SWAP1 PUSH2 0x3729 PUSH1 0xA0 DUP4 PUSH2 0x42F6 JUMP JUMPDEST PUSH1 0x4 CALLDATALOAD DUP3 MSTORE PUSH2 0x84B PUSH1 0x20 DUP4 ADD CALLVALUE DUP2 MSTORE PUSH1 0x40 DUP5 ADD SWAP4 CALLER DUP6 MSTORE PUSH1 0x60 DUP2 ADD SWAP4 CALLER DUP6 MSTORE PUSH1 0x80 DUP3 ADD SWAP1 DUP2 MSTORE PUSH2 0x3757 PUSH2 0x4D05 JUMP JUMPDEST PUSH2 0x375F PUSH2 0x5AD0 JUMP JUMPDEST PUSH8 0xDE0B6B3A7640000 PUSH2 0x3782 PUSH2 0x819 PUSH2 0x3779 PUSH2 0x807 PUSH2 0x4C1C JUMP JUMPDEST DUP7 MLOAD SWAP3 SWAP2 PUSH2 0x4E1E JUMP JUMPDEST DIV SWAP6 PUSH2 0x378C PUSH2 0x4CB6 JUMP JUMPDEST POP PUSH1 0x1 DUP1 PUSH1 0xA0 SHL SUB PUSH2 0x840 DUP2 DUP4 MLOAD AND DUP10 DUP4 DUP7 MLOAD AND PUSH2 0x16E SLOAD SWAP3 PUSH2 0x4E59 JUMP JUMPDEST DUP3 CALLVALUE PUSH2 0x5A1 JUMPI DUP1 PUSH1 0x3 NOT CALLDATASIZE ADD SLT PUSH2 0x5A1 JUMPI PUSH1 0x20 PUSH2 0x175 SLOAD PUSH1 0x40 MLOAD SWAP1 DUP2 MSTORE RETURN JUMPDEST DUP3 CALLVALUE PUSH2 0x5A1 JUMPI PUSH1 0x20 CALLDATASIZE PUSH1 0x3 NOT ADD SLT PUSH2 0x5A1 JUMPI PUSH1 0x4 CALLDATALOAD PUSH1 0x1 PUSH1 0x1 PUSH1 0xA0 SHL SUB DUP2 AND DUP2 SUB PUSH2 0xCB4 JUMPI PUSH2 0x37F6 PUSH2 0x5A42 JUMP JUMPDEST PUSH1 0xCA DUP1 SLOAD PUSH3 0x10000 PUSH1 0x1 PUSH1 0xB0 SHL SUB NOT AND PUSH1 0x10 SWAP3 SWAP1 SWAP3 SHL PUSH3 0x10000 PUSH1 0x1 PUSH1 0xB0 SHL SUB AND SWAP2 SWAP1 SWAP2 OR SWAP1 SSTORE PUSH1 0x40 MLOAD RETURN JUMPDEST DUP3 CALLVALUE PUSH2 0x5A1 JUMPI PUSH1 0x20 CALLDATASIZE PUSH1 0x3 NOT ADD SLT PUSH2 0x5A1 JUMPI PUSH2 0x383C PUSH2 0x5A42 JUMP JUMPDEST PUSH1 0x4 CALLDATALOAD PUSH2 0x17C SSTORE PUSH1 0x40 MLOAD RETURN JUMPDEST DUP3 CALLVALUE PUSH2 0x5A1 JUMPI DUP1 PUSH1 0x3 NOT CALLDATASIZE ADD SLT PUSH2 0x5A1 JUMPI PUSH1 0x20 PUSH2 0x172 SLOAD PUSH1 0x40 MLOAD SWAP1 DUP2 MSTORE RETURN JUMPDEST DUP3 CALLVALUE PUSH2 0x5A1 JUMPI PUSH1 0x20 CALLDATASIZE PUSH1 0x3 NOT ADD SLT PUSH2 0x5A1 JUMPI PUSH1 0x4 CALLDATALOAD PUSH1 0x1 PUSH1 0x1 PUSH1 0xA0 SHL SUB DUP2 AND SWAP1 DUP2 SWAP1 SUB PUSH2 0xCB4 JUMPI PUSH2 0x3896 PUSH2 0x5A42 JUMP JUMPDEST PUSH2 0x179 DUP1 SLOAD PUSH1 0x1 PUSH1 0x1 PUSH1 0xA0 SHL SUB NOT AND SWAP1 SWAP2 OR SWAP1 SSTORE PUSH1 0x40 MLOAD RETURN JUMPDEST DUP3 CALLVALUE PUSH2 0x5A1 JUMPI DUP1 PUSH1 0x3 NOT CALLDATASIZE ADD SLT PUSH2 0x5A1 JUMPI PUSH1 0x20 PUSH1 0xFF PUSH2 0x17D SLOAD PUSH1 0x8 SHR AND PUSH1 0x40 MLOAD SWAP1 ISZERO ISZERO DUP2 MSTORE RETURN JUMPDEST DUP3 CALLVALUE PUSH2 0x5A1 JUMPI PUSH1 0x20 CALLDATASIZE PUSH1 0x3 NOT ADD SLT PUSH2 0x5A1 JUMPI PUSH2 0x38F0 PUSH2 0x5A42 JUMP JUMPDEST PUSH1 0x4 CALLDATALOAD PUSH2 0x174 SSTORE PUSH1 0x40 MLOAD RETURN JUMPDEST DUP3 CALLVALUE PUSH2 0x5A1 JUMPI PUSH1 0x20 CALLDATASIZE PUSH1 0x3 NOT ADD SLT PUSH2 0x5A1 JUMPI PUSH1 0x4 CALLDATALOAD DUP1 ISZERO ISZERO DUP1 SWAP2 SUB PUSH2 0xCB4 JUMPI PUSH2 0x3923 PUSH2 0x5A42 JUMP JUMPDEST PUSH2 0x17D SWAP1 PUSH1 0xFF DUP1 NOT DUP4 SLOAD AND SWAP2 AND OR SWAP1 SSTORE PUSH1 0x40 MLOAD RETURN JUMPDEST DUP3 CALLVALUE PUSH2 0x5A1 JUMPI DUP1 PUSH1 0x3 NOT CALLDATASIZE ADD SLT PUSH2 0x5A1 JUMPI PUSH1 0x20 PUSH2 0x93A PUSH2 0xD8B PUSH2 0x11D1 PUSH2 0x4C1C JUMP JUMPDEST DUP3 PUSH1 0x60 CALLDATASIZE PUSH1 0x3 NOT ADD SLT PUSH2 0x5A1 JUMPI PUSH1 0x1 PUSH1 0x1 PUSH1 0xA0 SHL SUB PUSH1 0x44 CALLDATALOAD DUP2 DUP2 AND SWAP1 DUP2 SWAP1 SUB PUSH2 0x39BF JUMPI PUSH1 0x40 MLOAD SWAP1 PUSH2 0x398B PUSH1 0xC0 DUP4 PUSH2 0x42F6 JUMP JUMPDEST PUSH1 0x4 CALLDATALOAD DUP3 MSTORE PUSH1 0x20 DUP3 ADD PUSH1 0x24 CALLDATALOAD DUP2 MSTORE PUSH1 0x40 DUP4 ADD SWAP3 CALLVALUE DUP5 MSTORE PUSH1 0x60 DUP2 ADD CALLER DUP2 MSTORE PUSH1 0x80 DUP3 ADD SWAP4 DUP5 MSTORE PUSH1 0xA0 DUP3 ADD SWAP1 DUP8 DUP3 MSTORE PUSH2 0xD3B PUSH2 0x4D05 JUMP JUMPDEST DUP3 DUP1 REVERT JUMPDEST DUP3 CALLVALUE PUSH2 0x5A1 JUMPI DUP1 PUSH1 0x3 NOT CALLDATASIZE ADD SLT PUSH2 0x5A1 JUMPI PUSH1 0x20 PUSH2 0x17F SLOAD PUSH1 0x40 MLOAD SWAP1 DUP2 MSTORE RETURN JUMPDEST DUP3 CALLVALUE PUSH2 0x5A1 JUMPI PUSH1 0x60 CALLDATASIZE PUSH1 0x3 NOT ADD SLT PUSH2 0x5A1 JUMPI PUSH1 0x40 MLOAD SWAP1 PUSH2 0x3A03 PUSH1 0xC0 DUP4 PUSH2 0x42F6 JUMP JUMPDEST PUSH1 0x4 CALLDATALOAD DUP3 MSTORE PUSH2 0x17C2 PUSH1 0x20 DUP4 ADD PUSH1 0x24 CALLDATALOAD DUP2 MSTORE PUSH1 0x40 DUP5 ADD SWAP3 PUSH1 0x44 CALLDATALOAD DUP5 MSTORE PUSH1 0x60 DUP6 ADD SWAP2 CALLER DUP4 MSTORE PUSH1 0x80 DUP7 ADD SWAP3 CALLER DUP5 MSTORE PUSH1 0xA0 DUP8 ADD SWAP3 DUP4 MSTORE PUSH2 0x3A3D PUSH2 0x4D05 JUMP JUMPDEST PUSH2 0x3A45 PUSH2 0x5AD0 JUMP JUMPDEST PUSH2 0x3A80 PUSH2 0x3A50 PUSH2 0x4C1C JUMP JUMPDEST PUSH2 0x3A6B PUSH2 0x3A5E DUP11 MLOAD DUP4 PUSH2 0x4830 JUMP JUMPDEST MLOAD SWAP2 PUSH2 0x807 DUP4 DUP13 MLOAD PUSH2 0x5199 JUMP JUMPDEST POP POP PUSH2 0x660 PUSH8 0xDE0B6B3A7640000 DUP6 MLOAD PUSH2 0x4957 JUMP JUMPDEST SWAP2 PUSH2 0x3A89 PUSH2 0x4CB6 JUMP JUMPDEST POP PUSH1 0x1 DUP1 PUSH1 0xA0 SHL SUB SWAP3 PUSH2 0x17B7 DUP5 DUP5 MLOAD AND DUP3 DUP7 DUP9 MLOAD AND PUSH2 0x688 DUP14 MLOAD PUSH2 0x177 PUSH2 0x4198 JUMP JUMPDEST SWAP1 POP CALLVALUE PUSH2 0xCB4 JUMPI PUSH2 0x1C8A SWAP2 PUSH2 0x3AC1 CALLDATASIZE PUSH1 0x4 PUSH2 0x4260 JUMP JUMPDEST SWAP4 SWAP2 SWAP3 PUSH2 0x3AD4 PUSH1 0x40 SWAP7 SWAP3 SWAP7 MLOAD SWAP3 DUP4 PUSH2 0x42F6 JUMP JUMPDEST DUP2 MSTORE PUSH1 0x20 DUP2 ADD SWAP3 DUP4 MSTORE PUSH1 0x40 DUP2 ADD SWAP5 DUP6 MSTORE PUSH1 0x60 DUP2 ADD SWAP4 DUP5 MSTORE PUSH1 0x80 DUP2 ADD SWAP3 CALLER DUP5 MSTORE PUSH1 0xA0 DUP3 ADD SWAP1 CALLER DUP3 MSTORE PUSH1 0xC0 DUP4 ADD DUP5 DUP2 MSTORE PUSH2 0x3B0A PUSH2 0x4D05 JUMP JUMPDEST PUSH2 0x3B12 PUSH2 0x5AD0 JUMP JUMPDEST PUSH2 0x3B3D PUSH2 0x3B1D PUSH2 0x4C1C JUMP JUMPDEST PUSH2 0xA50 PUSH2 0x1C95 PUSH2 0x3B2E DUP9 MLOAD DUP5 PUSH2 0x4830 JUMP JUMPDEST MLOAD SWAP13 DUP14 SWAP4 PUSH2 0x1C81 DUP6 DUP12 MLOAD PUSH2 0x5199 JUMP JUMPDEST DIV SWAP11 MLOAD DUP1 DUP13 GT PUSH2 0x1DFF JUMPI POP SWAP2 PUSH2 0x1CE5 DUP12 PUSH2 0x1CDF PUSH2 0x3B9E SWAP12 SWAP13 SWAP14 SWAP15 SWAP5 PUSH2 0x660 DUP6 PUSH2 0x1CD9 PUSH2 0x3B6B SWAP10 DUP13 MLOAD SWAP10 PUSH2 0x4E1E JUMP JUMPDEST SWAP5 PUSH2 0x3B74 PUSH2 0x4CB6 JUMP JUMPDEST POP PUSH1 0x1 DUP1 PUSH1 0xA0 SHL SUB SWAP1 PUSH2 0x3B93 DUP3 DUP11 MLOAD AND DUP9 DUP5 DUP7 MLOAD AND PUSH2 0x173 SLOAD SWAP3 PUSH2 0x4E59 JUMP JUMPDEST SWAP8 SWAP2 DUP10 SWAP11 SWAP2 SWAP11 PUSH2 0x4A15 JUMP JUMPDEST SWAP11 MLOAD DUP1 DUP13 LT PUSH2 0x1DE1 JUMPI POP DUP11 ISZERO PUSH2 0x749 JUMPI DUP10 PUSH2 0x1184 DUP14 DUP6 SWAP5 DUP5 DUP16 SWAP10 PUSH2 0xBAA SWAP16 SWAP14 PUSH2 0x1DD5 SWAP2 PUSH2 0xB8D SWAP16 DUP16 DUP16 SWAP1 SWAP2 DUP16 SWAP3 DUP10 PUSH32 0x754F66F66F0AFCD87E3EDD11C0796FEF32599EFE490000FDB0F014E3AD9560FA SWAP2 DUP16 SWAP15 DUP16 DUP1 PUSH2 0x1DC6 SWAP3 MLOAD SWAP7 MLOAD AND SWAP7 MLOAD AND SWAP7 DUP9 MLOAD SWAP3 DUP1 MLOAD PUSH1 0x20 DUP3 ADD MLOAD SWAP1 PUSH1 0x60 PUSH1 0x40 DUP5 ADD MLOAD SWAP4 ADD MLOAD SWAP4 PUSH1 0x40 MLOAD SWAP8 DUP9 SWAP8 DUP9 SWAP4 SWAP1 SWAP8 SWAP7 SWAP6 SWAP3 PUSH1 0xC0 SWAP6 SWAP3 PUSH1 0xE0 DUP7 ADD SWAP10 DUP7 MSTORE PUSH1 0x20 DUP7 ADD MSTORE PUSH1 0x40 DUP6 ADD MSTORE PUSH1 0x60 DUP5 ADD MSTORE PUSH1 0x80 DUP4 ADD MSTORE PUSH1 0xA0 DUP3 ADD MSTORE ADD MSTORE JUMP JUMPDEST SWAP1 POP CALLVALUE PUSH2 0xCB4 JUMPI SWAP1 PUSH2 0x1C81 SWAP2 PUSH2 0x3C60 CALLDATASIZE PUSH1 0x4 PUSH2 0x4282 JUMP JUMPDEST SWAP2 SWAP1 SWAP4 SWAP5 PUSH2 0x3C74 PUSH1 0x40 SWAP9 SWAP5 SWAP9 MLOAD SWAP8 DUP9 PUSH2 0x42F6 JUMP JUMPDEST DUP7 MSTORE PUSH1 0x20 DUP7 ADD SWAP5 DUP6 MSTORE PUSH1 0x40 DUP7 ADD SWAP7 DUP8 MSTORE PUSH1 0x60 DUP7 ADD MSTORE PUSH1 0x80 DUP6 ADD SWAP4 CALLER DUP6 MSTORE PUSH1 0xA0 DUP7 ADD SWAP2 PUSH1 0x1 DUP1 PUSH1 0xA0 SHL SUB DUP1 SWAP6 AND DUP4 MSTORE DUP5 PUSH1 0xC0 DUP9 ADD SWAP2 AND DUP2 MSTORE PUSH2 0x1C4E PUSH2 0x4D05 JUMP JUMPDEST SWAP1 POP PUSH2 0x3CC0 CALLDATASIZE PUSH1 0x4 PUSH2 0x4260 JUMP JUMPDEST PUSH1 0x40 SWAP3 SWAP2 SWAP3 MLOAD SWAP4 PUSH2 0x3CD3 PUSH2 0x100 DUP7 PUSH2 0x42F6 JUMP JUMPDEST DUP5 MSTORE PUSH1 0x20 DUP5 ADD SWAP2 DUP3 MSTORE PUSH1 0x40 DUP5 ADD SWAP3 DUP4 MSTORE PUSH1 0x60 DUP5 ADD SWAP1 DUP2 MSTORE PUSH2 0x194C PUSH1 0x80 DUP6 ADD SWAP5 CALLVALUE DUP7 MSTORE PUSH1 0xA0 DUP2 ADD SWAP3 CALLER DUP5 MSTORE PUSH1 0xC0 DUP3 ADD SWAP6 CALLER DUP8 MSTORE DUP9 DUP4 ADD SWAP6 DUP11 DUP8 MSTORE PUSH2 0x3D14 PUSH2 0x4D05 JUMP JUMPDEST PUSH2 0x3D1C PUSH2 0x5AD0 JUMP JUMPDEST PUSH2 0x3D24 PUSH2 0x4CB6 JUMP JUMPDEST POP PUSH1 0x40 MLOAD PUSH4 0x1C280CE1 PUSH1 0xE0 SHL PUSH1 0x20 DUP3 ADD MSTORE SWAP4 MLOAD PUSH1 0x24 DUP6 ADD MSTORE MLOAD PUSH1 0x44 DUP5 ADD MSTORE MLOAD PUSH1 0x64 DUP4 ADD MSTORE MLOAD PUSH1 0x84 DUP3 ADD MSTORE DUP6 MLOAD PUSH1 0xA4 DUP3 ADD MSTORE DUP3 MLOAD PUSH1 0x1 PUSH1 0x1 PUSH1 0xA0 SHL SUB SWAP1 DUP2 AND PUSH1 0xC4 DUP4 ADD MSTORE SWAP5 MLOAD DUP6 AND PUSH1 0xE4 DUP3 ADD MSTORE DUP4 MLOAD DUP6 AND PUSH2 0x104 DUP1 DUP4 ADD SWAP2 SWAP1 SWAP2 MSTORE DUP2 MSTORE PUSH2 0x1941 PUSH2 0x124 DUP3 PUSH2 0x42F6 JUMP JUMPDEST DUP3 CALLVALUE PUSH2 0x5A1 JUMPI PUSH1 0x20 CALLDATASIZE PUSH1 0x3 NOT ADD SLT PUSH2 0x5A1 JUMPI PUSH1 0x4 CALLDATALOAD PUSH1 0x1 PUSH1 0x1 PUSH1 0xA0 SHL SUB DUP2 AND SWAP1 DUP2 SWAP1 SUB PUSH2 0xCB4 JUMPI PUSH2 0x3DBB PUSH2 0x5A42 JUMP JUMPDEST PUSH2 0x162 DUP1 SLOAD PUSH1 0x1 PUSH1 0x1 PUSH1 0xA0 SHL SUB NOT AND SWAP1 SWAP2 OR SWAP1 SSTORE PUSH1 0x40 MLOAD RETURN JUMPDEST DUP3 CALLVALUE PUSH2 0x5A1 JUMPI PUSH1 0x20 CALLDATASIZE PUSH1 0x3 NOT ADD SLT PUSH2 0x5A1 JUMPI PUSH2 0x3DEE PUSH2 0x5A42 JUMP JUMPDEST PUSH1 0x4 CALLDATALOAD PUSH2 0x171 SSTORE PUSH1 0x40 MLOAD RETURN JUMPDEST SWAP1 POP PUSH1 0x60 CALLDATASIZE PUSH1 0x3 NOT ADD SLT PUSH2 0xCB4 JUMPI PUSH2 0x3E15 PUSH1 0x40 MLOAD SWAP2 DUP3 PUSH2 0x42F6 JUMP JUMPDEST PUSH1 0x4 CALLDATALOAD DUP2 MSTORE PUSH1 0x20 DUP2 ADD SWAP1 PUSH1 0x24 CALLDATALOAD DUP3 MSTORE PUSH1 0x40 DUP2 ADD SWAP3 PUSH1 0x44 CALLDATALOAD DUP5 MSTORE PUSH1 0x60 DUP3 ADD SWAP1 CALLVALUE DUP3 MSTORE PUSH1 0x80 DUP4 ADD CALLER DUP2 MSTORE DUP5 PUSH1 0xA0 DUP6 ADD SWAP4 CALLER DUP6 MSTORE PUSH1 0xC0 DUP7 ADD SWAP4 DUP1 DUP6 MSTORE PUSH2 0x3E56 PUSH2 0x4D05 JUMP JUMPDEST PUSH2 0x3E5E PUSH2 0x5AD0 JUMP JUMPDEST PUSH2 0x3EA3 PUSH2 0xA50 PUSH2 0x660 DUP6 PUSH2 0x1419 DUP12 PUSH2 0x3E77 PUSH2 0x13CC PUSH2 0x4C1C JUMP JUMPDEST SWAP6 SWAP1 PUSH2 0xA4B PUSH2 0x140F PUSH2 0x3E97 DUP6 PUSH2 0x660 PUSH8 0xDE0B6B3A7640000 DUP1 SWAP11 MLOAD PUSH2 0x4957 JUMP JUMPDEST SWAP13 MLOAD PUSH2 0x166 SLOAD SWAP1 PUSH2 0x4957 JUMP JUMPDEST SWAP9 MLOAD DUP1 DUP11 LT DUP1 ISZERO PUSH2 0x3EF9 JUMPI JUMPDEST PUSH2 0x3EDB JUMPI POP PUSH2 0x3EBC PUSH2 0x4CB6 JUMP JUMPDEST POP PUSH2 0x1450 PUSH1 0x1 DUP1 PUSH1 0xA0 SHL SUB SWAP4 DUP5 DUP7 MLOAD AND SWAP1 DUP6 DUP9 MLOAD AND PUSH2 0x171 SLOAD SWAP3 PUSH2 0x4E59 JUMP JUMPDEST PUSH1 0x44 SWAP1 DUP11 PUSH1 0x40 MLOAD SWAP2 PUSH4 0xF577BEF5 PUSH1 0xE0 SHL DUP4 MSTORE PUSH1 0x4 DUP4 ADD MSTORE PUSH1 0x24 DUP3 ADD MSTORE REVERT JUMPDEST POP DUP10 ISZERO PUSH2 0x3EAF JUMP JUMPDEST DUP3 CALLVALUE PUSH2 0x5A1 JUMPI PUSH1 0x20 CALLDATASIZE PUSH1 0x3 NOT ADD SLT PUSH2 0x5A1 JUMPI PUSH1 0x4 CALLDATALOAD PUSH1 0x1 PUSH1 0x1 PUSH1 0xA0 SHL SUB DUP2 AND SWAP1 DUP2 SWAP1 SUB PUSH2 0xCB4 JUMPI PUSH2 0x3F30 PUSH2 0x5A42 JUMP JUMPDEST PUSH2 0x178 DUP1 SLOAD PUSH1 0x1 PUSH1 0x1 PUSH1 0xA0 SHL SUB NOT AND SWAP1 SWAP2 OR SWAP1 SSTORE PUSH1 0x40 MLOAD RETURN JUMPDEST DUP3 CALLVALUE PUSH2 0x5A1 JUMPI DUP1 PUSH1 0x3 NOT CALLDATASIZE ADD SLT PUSH2 0x5A1 JUMPI PUSH1 0x20 PUSH2 0x1B5 SLOAD PUSH1 0x40 MLOAD SWAP1 DUP2 MSTORE RETURN JUMPDEST DUP3 CALLVALUE PUSH2 0x5A1 JUMPI DUP1 PUSH1 0x3 NOT CALLDATASIZE ADD SLT PUSH2 0x5A1 JUMPI PUSH1 0x97 SLOAD PUSH1 0x40 MLOAD PUSH1 0x1 PUSH1 0x1 PUSH1 0xA0 SHL SUB SWAP1 SWAP2 AND DUP2 MSTORE PUSH1 0x20 SWAP1 RETURN JUMPDEST SWAP1 POP PUSH2 0x194C PUSH2 0x3FA1 CALLDATASIZE PUSH1 0x4 PUSH2 0x4235 JUMP JUMPDEST SWAP5 SWAP1 SWAP2 SWAP4 PUSH1 0x40 MLOAD SWAP1 PUSH2 0x3FB5 PUSH2 0x100 DUP4 PUSH2 0x42F6 JUMP JUMPDEST DUP2 MSTORE PUSH1 0x20 DUP2 ADD SWAP4 DUP5 MSTORE PUSH1 0x40 DUP2 ADD SWAP5 DUP6 MSTORE PUSH1 0x60 DUP2 ADD SWAP3 DUP4 MSTORE PUSH1 0x80 DUP2 ADD SWAP6 CALLVALUE DUP8 MSTORE PUSH1 0xA0 DUP3 ADD SWAP4 CALLER DUP6 MSTORE PUSH1 0xC0 DUP4 ADD SWAP1 PUSH1 0x1 DUP1 PUSH1 0xA0 SHL SUB SWAP8 DUP9 DUP1 SWAP5 AND DUP4 MSTORE DUP11 DUP6 ADD SWAP8 DUP13 DUP10 MSTORE PUSH2 0x18D6 PUSH2 0x4D05 JUMP JUMPDEST SWAP1 POP PUSH2 0x400B CALLDATASIZE PUSH1 0x4 PUSH2 0x420F JUMP JUMPDEST SWAP2 SWAP4 SWAP3 PUSH2 0x401E PUSH1 0x40 SWAP7 SWAP3 SWAP7 MLOAD SWAP5 DUP6 PUSH2 0x42F6 JUMP JUMPDEST DUP4 MSTORE PUSH1 0x20 DUP4 ADD SWAP4 DUP5 MSTORE PUSH1 0x40 DUP4 ADD SWAP5 DUP6 MSTORE PUSH1 0x60 DUP4 ADD SWAP2 CALLVALUE DUP4 MSTORE PUSH1 0x80 DUP5 ADD SWAP1 CALLER DUP3 MSTORE PUSH1 0xA0 DUP6 ADD SWAP4 PUSH1 0x1 DUP1 PUSH1 0xA0 SHL SUB DUP1 SWAP3 AND DUP6 MSTORE PUSH1 0xC0 DUP7 ADD SWAP4 DUP1 DUP6 MSTORE PUSH2 0x13AA PUSH2 0x4D05 JUMP JUMPDEST DUP3 PUSH1 0x60 CALLDATASIZE PUSH1 0x3 NOT ADD SLT PUSH2 0x5A1 JUMPI PUSH1 0x1 PUSH1 0x1 PUSH1 0xA0 SHL SUB PUSH1 0x44 CALLDATALOAD DUP2 DUP2 AND SWAP3 SWAP1 DUP4 SWAP1 SUB PUSH2 0x5A1 JUMPI POP PUSH2 0x6A0 PUSH1 0x40 MLOAD PUSH2 0x4095 PUSH1 0xC0 DUP3 PUSH2 0x42F6 JUMP JUMPDEST PUSH1 0x4 CALLDATALOAD DUP2 MSTORE PUSH1 0x20 DUP2 ADD PUSH1 0x24 CALLDATALOAD DUP2 MSTORE PUSH1 0x40 DUP3 ADD SWAP5 CALLVALUE DUP7 MSTORE PUSH1 0x60 DUP4 ADD CALLER DUP2 MSTORE PUSH1 0x80 DUP5 ADD SWAP6 CALLER DUP8 MSTORE PUSH1 0xA0 DUP6 ADD SWAP3 DUP4 MSTORE PUSH2 0x600 PUSH2 0x4D05 JUMP JUMPDEST DUP3 PUSH2 0x40D5 CALLDATASIZE PUSH1 0x4 PUSH2 0x41DA JUMP JUMPDEST SWAP2 SWAP6 SWAP4 PUSH2 0x40E8 PUSH1 0x40 SWAP7 SWAP5 SWAP7 MLOAD SWAP6 DUP7 PUSH2 0x42F6 JUMP JUMPDEST DUP5 MSTORE PUSH1 0x20 DUP5 ADD SWAP5 DUP6 MSTORE PUSH1 0x40 DUP5 ADD SWAP6 DUP7 MSTORE PUSH1 0x60 DUP5 ADD SWAP1 CALLVALUE DUP3 MSTORE PUSH1 0x80 DUP6 ADD SWAP2 CALLER DUP4 MSTORE PUSH1 0xA0 DUP7 ADD SWAP5 PUSH1 0x1 DUP1 PUSH1 0xA0 SHL SUB DUP1 SWAP4 AND DUP7 MSTORE DUP3 PUSH1 0xC0 DUP9 ADD SWAP6 AND DUP6 MSTORE PUSH2 0x13AA PUSH2 0x4D05 JUMP JUMPDEST DUP3 CALLVALUE PUSH2 0x5A1 JUMPI PUSH1 0x20 CALLDATASIZE PUSH1 0x3 NOT ADD SLT PUSH2 0x5A1 JUMPI PUSH1 0x4 CALLDATALOAD SWAP1 PUSH2 0x167 SWAP1 DUP2 SLOAD DUP4 LT ISZERO PUSH2 0x5A1 JUMPI PUSH1 0x20 PUSH2 0x4159 DUP5 DUP5 PUSH2 0x4198 JUMP JUMPDEST SWAP1 SLOAD PUSH1 0x40 MLOAD PUSH1 0x3 SWAP3 SWAP1 SWAP3 SHL SHR PUSH1 0x1 PUSH1 0x1 PUSH1 0xA0 SHL SUB AND DUP2 MSTORE RETURN JUMPDEST DUP3 CALLVALUE PUSH2 0x5A1 JUMPI PUSH1 0x20 CALLDATASIZE PUSH1 0x3 NOT ADD SLT PUSH2 0x5A1 JUMPI PUSH2 0x418C PUSH2 0x5A42 JUMP JUMPDEST PUSH1 0x4 CALLDATALOAD PUSH2 0x16C SSTORE PUSH1 0x40 MLOAD RETURN JUMPDEST DUP1 SLOAD DUP3 LT ISZERO PUSH2 0x41B0 JUMPI PUSH1 0x0 MSTORE PUSH1 0x20 PUSH1 0x0 KECCAK256 ADD SWAP1 PUSH1 0x0 SWAP1 JUMP JUMPDEST PUSH4 0x4E487B71 PUSH1 0xE0 SHL PUSH1 0x0 MSTORE PUSH1 0x32 PUSH1 0x4 MSTORE PUSH1 0x24 PUSH1 0x0 REVERT JUMPDEST CALLDATALOAD SWAP1 PUSH1 0x1 PUSH1 0x1 PUSH1 0xA0 SHL SUB DUP3 AND DUP3 SUB PUSH2 0x8EB JUMPI JUMP JUMPDEST SWAP1 DUP2 PUSH1 0xA0 SWAP2 SUB SLT PUSH2 0x8EB JUMPI DUP1 CALLDATALOAD SWAP2 PUSH1 0x20 DUP3 ADD CALLDATALOAD SWAP2 PUSH1 0x40 DUP2 ADD CALLDATALOAD SWAP2 PUSH2 0x420C PUSH1 0x80 PUSH2 0x4205 PUSH1 0x60 DUP6 ADD PUSH2 0x41C6 JUMP JUMPDEST SWAP4 ADD PUSH2 0x41C6 JUMP JUMPDEST SWAP1 JUMP JUMPDEST SWAP2 SWAP1 DUP3 PUSH1 0x80 SWAP2 SUB SLT PUSH2 0x8EB JUMPI DUP2 CALLDATALOAD SWAP2 PUSH1 0x20 DUP2 ADD CALLDATALOAD SWAP2 PUSH2 0x420C PUSH1 0x60 PUSH1 0x40 DUP5 ADD CALLDATALOAD SWAP4 ADD PUSH2 0x41C6 JUMP JUMPDEST SWAP1 DUP2 PUSH1 0xA0 SWAP2 SUB SLT PUSH2 0x8EB JUMPI DUP1 CALLDATALOAD SWAP2 PUSH1 0x20 DUP3 ADD CALLDATALOAD SWAP2 PUSH1 0x40 DUP2 ADD CALLDATALOAD SWAP2 PUSH2 0x420C PUSH1 0x80 PUSH1 0x60 DUP5 ADD CALLDATALOAD SWAP4 ADD PUSH2 0x41C6 JUMP JUMPDEST SWAP2 SWAP1 DUP3 PUSH1 0x80 SWAP2 SUB SLT PUSH2 0x8EB JUMPI DUP2 CALLDATALOAD SWAP2 PUSH1 0x20 DUP2 ADD CALLDATALOAD SWAP2 PUSH1 0x60 PUSH1 0x40 DUP4 ADD CALLDATALOAD SWAP3 ADD CALLDATALOAD SWAP1 JUMP JUMPDEST SWAP2 SWAP1 DUP3 PUSH1 0xC0 SWAP2 SUB SLT PUSH2 0x8EB JUMPI DUP2 CALLDATALOAD SWAP2 PUSH1 0x20 DUP2 ADD CALLDATALOAD SWAP2 PUSH1 0x40 DUP3 ADD CALLDATALOAD SWAP2 PUSH1 0x60 DUP2 ADD CALLDATALOAD SWAP2 PUSH2 0x420C PUSH1 0xA0 PUSH2 0x4205 PUSH1 0x80 DUP6 ADD PUSH2 0x41C6 JUMP JUMPDEST SWAP2 SWAP1 DUP3 PUSH1 0x80 SWAP2 SUB SLT PUSH2 0x8EB JUMPI DUP2 CALLDATALOAD SWAP2 PUSH1 0x20 DUP2 ADD CALLDATALOAD SWAP2 PUSH2 0x420C PUSH1 0x60 PUSH2 0x4205 PUSH1 0x40 DUP6 ADD PUSH2 0x41C6 JUMP JUMPDEST DUP1 SLOAD DUP3 LT ISZERO PUSH2 0x41B0 JUMPI PUSH1 0x0 MSTORE PUSH1 0x20 PUSH1 0x0 KECCAK256 SWAP1 PUSH1 0x1 SHL ADD SWAP1 PUSH1 0x0 SWAP1 JUMP JUMPDEST SWAP1 PUSH1 0x1F DUP1 NOT SWAP2 ADD AND DUP2 ADD SWAP1 DUP2 LT PUSH8 0xFFFFFFFFFFFFFFFF DUP3 GT OR PUSH2 0x4318 JUMPI PUSH1 0x40 MSTORE JUMP JUMPDEST PUSH4 0x4E487B71 PUSH1 0xE0 SHL PUSH1 0x0 MSTORE PUSH1 0x41 PUSH1 0x4 MSTORE PUSH1 0x24 PUSH1 0x0 REVERT JUMPDEST PUSH8 0xFFFFFFFFFFFFFFFF DUP2 GT PUSH2 0x4318 JUMPI PUSH1 0x1F ADD PUSH1 0x1F NOT AND PUSH1 0x20 ADD SWAP1 JUMP JUMPDEST ISZERO PUSH2 0x4351 JUMPI JUMP JUMPDEST PUSH1 0x40 MLOAD PUSH3 0x461BCD PUSH1 0xE5 SHL DUP2 MSTORE PUSH1 0x20 PUSH1 0x4 DUP3 ADD MSTORE PUSH1 0x2C PUSH1 0x24 DUP3 ADD MSTORE PUSH32 0x46756E6374696F6E206D7573742062652063616C6C6564207468726F75676820 PUSH1 0x44 DUP3 ADD MSTORE PUSH12 0x19195B1959D85D1958D85B1B PUSH1 0xA2 SHL PUSH1 0x64 DUP3 ADD MSTORE PUSH1 0x84 SWAP1 REVERT JUMPDEST ISZERO PUSH2 0x43B2 JUMPI JUMP JUMPDEST PUSH1 0x40 MLOAD PUSH3 0x461BCD PUSH1 0xE5 SHL DUP2 MSTORE PUSH1 0x20 PUSH1 0x4 DUP3 ADD MSTORE PUSH1 0x2C PUSH1 0x24 DUP3 ADD MSTORE PUSH32 0x46756E6374696F6E206D7573742062652063616C6C6564207468726F75676820 PUSH1 0x44 DUP3 ADD MSTORE PUSH12 0x6163746976652070726F7879 PUSH1 0xA0 SHL PUSH1 0x64 DUP3 ADD MSTORE PUSH1 0x84 SWAP1 REVERT JUMPDEST SWAP1 PUSH1 0xFF PUSH32 0x4910FDFA16FED3260ED0E7147F7CC6DA11A60208B5B9406D12A635614FFD9143 SLOAD AND PUSH1 0x0 EQ PUSH2 0x4446 JUMPI POP PUSH2 0x4444 SWAP2 POP PUSH2 0x465F JUMP JUMPDEST JUMP JUMPDEST PUSH1 0x40 MLOAD PUSH4 0x52D1902D PUSH1 0xE0 SHL DUP2 MSTORE PUSH1 0x20 SWAP4 SWAP2 SWAP3 SWAP2 PUSH1 0x1 PUSH1 0x1 PUSH1 0xA0 SHL SUB DUP4 AND SWAP2 DUP6 DUP2 PUSH1 0x4 DUP2 DUP7 GAS STATICCALL PUSH1 0x0 SWAP2 DUP2 PUSH2 0x4630 JUMPI JUMPDEST POP PUSH2 0x44D6 JUMPI PUSH1 0x40 MLOAD PUSH3 0x461BCD PUSH1 0xE5 SHL DUP2 MSTORE PUSH1 0x4 DUP2 ADD DUP8 SWAP1 MSTORE PUSH1 0x2E PUSH1 0x24 DUP3 ADD MSTORE PUSH32 0x45524331393637557067726164653A206E657720696D706C656D656E74617469 PUSH1 0x44 DUP3 ADD MSTORE PUSH14 0x6F6E206973206E6F742055555053 PUSH1 0x90 SHL PUSH1 0x64 DUP3 ADD MSTORE PUSH1 0x84 SWAP1 REVERT JUMPDEST SWAP4 SWAP5 SWAP3 SWAP4 PUSH32 0xC9F76B5EC45E5CDEF99837D7B6D2467235C1DF8933C8CA56DF5C35AFA2C7D444 ADD PUSH2 0x45D9 JUMPI PUSH2 0x4509 DUP5 PUSH2 0x465F JUMP JUMPDEST PUSH1 0x40 MLOAD SWAP2 PUSH32 0xBC7CD75A20EE27FD9ADEBAB32041F755214DBC6BFFA90CC0225B39DA2E5C2D3B PUSH1 0x0 DUP5 LOG2 DUP5 MLOAD ISZERO SWAP1 DUP2 ISZERO SWAP2 PUSH2 0x45D1 JUMPI JUMPDEST POP PUSH2 0x454A JUMPI JUMPDEST POP POP POP POP JUMP JUMPDEST DUP3 EXTCODESIZE ISZERO PUSH2 0x4582 JUMPI POP DUP3 PUSH1 0x0 SWAP3 DUP4 SWAP3 PUSH2 0x4578 SWAP6 MLOAD SWAP3 ADD SWAP1 GAS DELEGATECALL PUSH2 0x456A PUSH2 0x4701 JUMP JUMPDEST PUSH2 0x4572 PUSH2 0x4731 JUMP JUMPDEST SWAP2 PUSH2 0x4785 JUMP JUMPDEST POP CODESIZE DUP1 DUP1 DUP1 PUSH2 0x4544 JUMP JUMPDEST PUSH1 0x84 SWAP2 PUSH3 0x461BCD PUSH1 0xE5 SHL DUP3 MSTORE PUSH1 0x4 DUP3 ADD MSTORE PUSH1 0x26 PUSH1 0x24 DUP3 ADD MSTORE PUSH32 0x416464726573733A2064656C65676174652063616C6C20746F206E6F6E2D636F PUSH1 0x44 DUP3 ADD MSTORE PUSH6 0x1B9D1C9858DD PUSH1 0xD2 SHL PUSH1 0x64 DUP3 ADD MSTORE REVERT JUMPDEST SWAP1 POP CODESIZE PUSH2 0x453E JUMP JUMPDEST PUSH1 0x40 MLOAD PUSH3 0x461BCD PUSH1 0xE5 SHL DUP2 MSTORE PUSH1 0x4 DUP2 ADD DUP5 SWAP1 MSTORE PUSH1 0x29 PUSH1 0x24 DUP3 ADD MSTORE PUSH32 0x45524331393637557067726164653A20756E737570706F727465642070726F78 PUSH1 0x44 DUP3 ADD MSTORE PUSH9 0x1A58589B1955555251 PUSH1 0xBA SHL PUSH1 0x64 DUP3 ADD MSTORE PUSH1 0x84 SWAP1 REVERT JUMPDEST SWAP1 SWAP2 DUP8 DUP3 DUP2 RETURNDATASIZE DUP4 GT PUSH2 0x4658 JUMPI JUMPDEST PUSH2 0x4647 DUP2 DUP4 PUSH2 0x42F6 JUMP JUMPDEST DUP2 ADD SUB SLT PUSH2 0x5A1 JUMPI POP MLOAD SWAP1 CODESIZE PUSH2 0x4475 JUMP JUMPDEST POP RETURNDATASIZE PUSH2 0x463D JUMP JUMPDEST DUP1 EXTCODESIZE ISZERO PUSH2 0x46A6 JUMPI PUSH32 0x360894A13BA1A3210667C828492DB98DCA3E2076CC3735A920A3CA505D382BBC DUP1 SLOAD PUSH1 0x1 PUSH1 0x1 PUSH1 0xA0 SHL SUB NOT AND PUSH1 0x1 PUSH1 0x1 PUSH1 0xA0 SHL SUB SWAP1 SWAP3 AND SWAP2 SWAP1 SWAP2 OR SWAP1 SSTORE JUMP JUMPDEST PUSH1 0x40 MLOAD PUSH3 0x461BCD PUSH1 0xE5 SHL DUP2 MSTORE PUSH1 0x20 PUSH1 0x4 DUP3 ADD MSTORE PUSH1 0x2D PUSH1 0x24 DUP3 ADD MSTORE PUSH32 0x455243313936373A206E657720696D706C656D656E746174696F6E206973206E PUSH1 0x44 DUP3 ADD MSTORE PUSH13 0x1BDD08184818DBDB9D1C9858DD PUSH1 0x9A SHL PUSH1 0x64 DUP3 ADD MSTORE PUSH1 0x84 SWAP1 REVERT JUMPDEST RETURNDATASIZE ISZERO PUSH2 0x472C JUMPI RETURNDATASIZE SWAP1 PUSH2 0x4712 DUP3 PUSH2 0x432E JUMP JUMPDEST SWAP2 PUSH2 0x4720 PUSH1 0x40 MLOAD SWAP4 DUP5 PUSH2 0x42F6 JUMP JUMPDEST DUP3 MSTORE RETURNDATASIZE PUSH1 0x0 PUSH1 0x20 DUP5 ADD RETURNDATACOPY JUMP JUMPDEST PUSH1 0x60 SWAP1 JUMP JUMPDEST PUSH2 0x473B PUSH1 0x27 PUSH2 0x432E JUMP JUMPDEST SWAP1 PUSH2 0x4749 PUSH1 0x40 MLOAD SWAP3 DUP4 PUSH2 0x42F6 JUMP JUMPDEST PUSH1 0x27 DUP3 MSTORE PUSH7 0x819985A5B1959 PUSH1 0xCA SHL PUSH1 0x40 DUP4 PUSH32 0x416464726573733A206C6F772D6C6576656C2064656C65676174652063616C6C PUSH1 0x20 DUP3 ADD MSTORE ADD MSTORE JUMP JUMPDEST SWAP1 SWAP2 PUSH1 0x60 SWAP2 ISZERO PUSH2 0x4794 JUMPI POP POP SWAP1 JUMP JUMPDEST PUSH2 0x4444 SWAP2 SWAP4 SWAP3 JUMPDEST DUP1 MLOAD SWAP1 SWAP3 POP ISZERO PUSH2 0x47AE JUMPI POP DUP1 MLOAD SWAP1 PUSH1 0x20 ADD REVERT JUMPDEST PUSH1 0x40 MLOAD SWAP1 PUSH3 0x461BCD PUSH1 0xE5 SHL DUP3 MSTORE DUP2 PUSH1 0x20 DUP1 PUSH1 0x4 DUP4 ADD MSTORE DUP3 MLOAD SWAP1 DUP2 PUSH1 0x24 DUP5 ADD MSTORE PUSH1 0x0 SWAP4 JUMPDEST DUP3 DUP6 LT PUSH2 0x47F4 JUMPI POP POP PUSH1 0x44 SWAP3 POP PUSH1 0x0 DUP4 DUP3 DUP5 ADD ADD MSTORE PUSH1 0x1F DUP1 NOT SWAP2 ADD AND DUP2 ADD SUB ADD SWAP1 REVERT JUMPDEST DUP5 DUP2 ADD DUP3 ADD MLOAD DUP7 DUP7 ADD PUSH1 0x44 ADD MSTORE SWAP4 DUP2 ADD SWAP4 DUP6 SWAP4 POP PUSH2 0x47D1 JUMP JUMPDEST SWAP2 SWAP1 DUP3 ADD DUP1 SWAP3 GT PUSH2 0x481A JUMPI JUMP JUMPDEST PUSH4 0x4E487B71 PUSH1 0xE0 SHL PUSH1 0x0 MSTORE PUSH1 0x11 PUSH1 0x4 MSTORE PUSH1 0x24 PUSH1 0x0 REVERT JUMPDEST DUP1 MLOAD DUP3 LT ISZERO PUSH2 0x41B0 JUMPI PUSH1 0x20 SWAP2 PUSH1 0x5 SHL ADD ADD SWAP1 JUMP JUMPDEST SWAP1 PUSH1 0x0 SWAP2 PUSH1 0x0 SWAP1 PUSH2 0x169 DUP1 SLOAD SWAP1 PUSH1 0x0 SWAP3 JUMPDEST DUP3 DUP5 LT PUSH2 0x487B JUMPI POP POP POP POP PUSH2 0x4877 PUSH8 0xDE0B6B3A7640000 SWAP2 PUSH2 0x16B SLOAD SWAP1 PUSH2 0x4957 JUMP JUMPDEST DIV SWAP1 JUMP JUMPDEST SWAP1 SWAP2 SWAP3 SWAP4 SWAP6 PUSH2 0x48CA DUP6 PUSH2 0x48C4 PUSH1 0x1 SWAP4 PUSH2 0xDE3 PUSH2 0x4897 DUP5 DUP9 PUSH2 0x4830 JUMP JUMPDEST MLOAD PUSH2 0x660 PUSH8 0xDE0B6B3A7640000 PUSH2 0xA50 DUP12 PUSH2 0x48BD PUSH2 0x48B5 DUP7 DUP12 PUSH2 0x48F0 JUMP JUMPDEST SWAP11 SWAP1 SWAP3 PUSH2 0x42DA JUMP JUMPDEST POP SLOAD PUSH2 0x480D JUMP JUMPDEST SWAP9 PUSH2 0x480D JUMP JUMPDEST SWAP5 ADD SWAP3 SWAP2 SWAP1 PUSH2 0x4855 JUMP JUMPDEST SWAP2 SWAP1 SWAP2 PUSH1 0x0 DUP4 DUP3 ADD SWAP4 DUP5 SLT SWAP2 SLT SWAP1 DUP1 ISZERO DUP3 AND SWAP2 ISZERO AND OR PUSH2 0x481A JUMPI JUMP JUMPDEST SWAP2 SWAP1 PUSH1 0x0 SWAP1 PUSH2 0x491E DUP2 PUSH1 0x0 SWAP6 PUSH2 0x4914 PUSH2 0x490B DUP3 PUSH2 0x180 PUSH2 0x4198 JUMP JUMPDEST SWAP4 SWAP1 SLOAD SWAP3 PUSH2 0x498A JUMP JUMPDEST SWAP2 PUSH1 0x3 SHL SHR PUSH2 0x48D4 JUMP JUMPDEST PUSH1 0x0 DUP2 SGT PUSH2 0x492D JUMPI JUMPDEST POP POP SWAP2 SWAP1 JUMP JUMPDEST PUSH2 0x494F SWAP2 SWAP5 POP PUSH2 0x2FCE SWAP3 POP DUP1 SWAP5 PUSH8 0xDE0B6B3A7640000 SWAP4 DUP5 SWAP2 PUSH2 0x16C SLOAD PUSH2 0x4957 JUMP JUMPDEST DIV CODESIZE DUP1 PUSH2 0x4927 JUMP JUMPDEST DUP1 PUSH1 0x0 NOT DIV DUP3 GT DUP2 ISZERO ISZERO AND PUSH2 0x481A JUMPI MUL SWAP1 JUMP JUMPDEST DUP2 ISZERO PUSH2 0x4974 JUMPI DIV SWAP1 JUMP JUMPDEST PUSH4 0x4E487B71 PUSH1 0xE0 SHL PUSH1 0x0 MSTORE PUSH1 0x12 PUSH1 0x4 MSTORE PUSH1 0x24 PUSH1 0x0 REVERT JUMPDEST SWAP1 PUSH2 0x49D0 SWAP1 PUSH2 0x49CA PUSH2 0x49BD PUSH2 0x49B4 PUSH8 0xDE0B6B3A7640000 PUSH2 0x49AD DUP8 PUSH2 0x169 PUSH2 0x42DA JUMP JUMPDEST POP SLOAD PUSH2 0x4957 JUMP JUMPDEST SWAP5 PUSH2 0x181 PUSH2 0x4198 JUMP JUMPDEST SWAP1 SLOAD SWAP1 PUSH1 0x3 SHL SHR DUP5 PUSH2 0x496A JUMP JUMPDEST SWAP3 PUSH2 0x496A JUMP JUMPDEST SWAP1 PUSH1 0x0 DUP3 DUP3 SUB SWAP3 SLT DUP2 DUP4 SLT DUP2 AND SWAP2 DUP4 SGT SWAP1 ISZERO AND OR PUSH2 0x481A JUMPI SWAP1 JUMP JUMPDEST DUP1 ISZERO PUSH2 0x4A0D JUMPI PUSH2 0x660 PUSH8 0xDE0B6B3A7640000 PUSH2 0xA50 PUSH2 0x420C SWAP5 PUSH2 0x163 SLOAD PUSH2 0x4A15 JUMP JUMPDEST POP POP PUSH1 0x0 NOT SWAP1 JUMP JUMPDEST SWAP2 SWAP1 DUP3 SUB SWAP2 DUP3 GT PUSH2 0x481A JUMPI JUMP JUMPDEST PUSH8 0xFFFFFFFFFFFFFFFF DUP2 GT PUSH2 0x4318 JUMPI PUSH1 0x5 SHL PUSH1 0x20 ADD SWAP1 JUMP JUMPDEST SWAP1 PUSH2 0x4A44 DUP3 PUSH2 0x4A22 JUMP JUMPDEST PUSH2 0x4A51 PUSH1 0x40 MLOAD SWAP2 DUP3 PUSH2 0x42F6 JUMP JUMPDEST DUP3 DUP2 MSTORE DUP1 SWAP3 PUSH2 0x4A62 PUSH1 0x1F NOT SWAP2 PUSH2 0x4A22 JUMP JUMPDEST ADD SWAP1 PUSH1 0x20 CALLDATASIZE SWAP2 ADD CALLDATACOPY JUMP JUMPDEST PUSH2 0x163 SLOAD DUP1 ISZERO PUSH2 0x4B43 JUMPI PUSH2 0x169 SWAP1 DUP2 SLOAD SWAP2 PUSH1 0x0 SWAP1 PUSH2 0x4A89 DUP5 PUSH2 0x4A3A JUMP JUMPDEST SWAP1 DUP3 SWAP1 JUMPDEST DUP6 DUP3 LT PUSH2 0x4AF3 JUMPI POP POP PUSH1 0x0 JUMPDEST DUP5 DUP2 LT PUSH2 0x4AA7 JUMPI POP POP POP POP POP JUMP JUMPDEST PUSH2 0x4ABF DUP5 PUSH2 0x660 DUP6 PUSH2 0x4AB9 DUP6 DUP8 PUSH2 0x4830 JUMP JUMPDEST MLOAD PUSH2 0x4957 JUMP JUMPDEST SWAP1 PUSH2 0x16A SWAP2 DUP3 SLOAD PUSH9 0x10000000000000000 DUP2 LT ISZERO PUSH2 0x4318 JUMPI PUSH2 0x2FEB DUP2 PUSH1 0x1 SWAP6 DUP7 PUSH2 0x4AEB SWAP5 ADD DUP2 SSTORE PUSH2 0x4198 JUMP JUMPDEST SWAP1 SSTORE ADD PUSH2 0x4A99 JUMP JUMPDEST SWAP1 SWAP3 PUSH2 0x4B3B PUSH1 0x1 SWAP2 PUSH2 0x4B04 DUP7 PUSH2 0x4B46 JUMP JUMPDEST PUSH2 0x4B0E DUP8 DUP8 PUSH2 0x4830 JUMP JUMPDEST MSTORE PUSH2 0xDE3 PUSH2 0x4B1C DUP8 DUP7 PUSH2 0x42DA JUMP JUMPDEST POP SLOAD PUSH2 0x660 PUSH8 0xDE0B6B3A7640000 PUSH2 0x4B34 DUP11 DUP11 PUSH2 0x4830 JUMP JUMPDEST MLOAD SWAP3 PUSH2 0x4957 JUMP JUMPDEST SWAP4 ADD SWAP1 PUSH2 0x4A8D JUMP JUMPDEST POP JUMP JUMPDEST PUSH2 0x4B52 SWAP1 PUSH2 0x169 PUSH2 0x42DA JUMP JUMPDEST POP PUSH1 0x1 ADD SLOAD PUSH1 0x1 PUSH1 0x1 PUSH1 0xA0 SHL SUB AND PUSH2 0x4B69 DUP2 PUSH2 0x4B9A JUMP JUMPDEST SWAP2 SWAP1 SWAP2 ISZERO PUSH2 0x4B75 JUMPI POP SWAP1 JUMP JUMPDEST PUSH1 0x24 SWAP1 PUSH1 0x40 MLOAD SWAP1 PUSH4 0x7F6E4DB9 PUSH1 0xE0 SHL DUP3 MSTORE PUSH1 0x4 DUP3 ADD MSTORE REVERT JUMPDEST MLOAD SWAP1 DUP2 ISZERO ISZERO DUP3 SUB PUSH2 0x8EB JUMPI JUMP JUMPDEST PUSH1 0x40 DUP1 MLOAD PUSH4 0x59E02DD7 PUSH1 0xE0 SHL DUP2 MSTORE SWAP3 SWAP2 DUP2 SWAP1 DUP5 SWAP1 PUSH1 0x4 SWAP1 DUP3 SWAP1 PUSH1 0x1 PUSH1 0x1 PUSH1 0xA0 SHL SUB AND GAS STATICCALL SWAP3 DUP4 ISZERO PUSH2 0x4C11 JUMPI PUSH1 0x0 SWAP2 DUP3 SWAP5 PUSH2 0x4BD4 JUMPI POP POP SWAP2 SWAP1 JUMP JUMPDEST SWAP1 DUP1 SWAP5 POP DUP2 RETURNDATASIZE DUP4 GT PUSH2 0x4C0A JUMPI JUMPDEST PUSH2 0x4BEB DUP2 DUP4 PUSH2 0x42F6 JUMP JUMPDEST DUP2 ADD SUB SLT PUSH2 0x5A1 JUMPI POP PUSH2 0x4C02 PUSH1 0x20 DUP4 MLOAD SWAP4 ADD PUSH2 0x4B8D JUMP JUMPDEST SWAP2 CODESIZE DUP1 PUSH2 0x4927 JUMP JUMPDEST POP RETURNDATASIZE PUSH2 0x4BE1 JUMP JUMPDEST POP MLOAD RETURNDATASIZE PUSH1 0x0 DUP3 RETURNDATACOPY RETURNDATASIZE SWAP1 REVERT JUMPDEST PUSH2 0x169 SLOAD SWAP1 PUSH2 0x4C2A DUP3 PUSH2 0x4A3A JUMP JUMPDEST SWAP2 PUSH1 0x0 JUMPDEST DUP2 DUP2 LT PUSH2 0x4C39 JUMPI POP POP JUMP JUMPDEST DUP1 PUSH2 0x4C45 PUSH1 0x1 SWAP3 PUSH2 0x4B46 JUMP JUMPDEST PUSH2 0x4C4F DUP3 DUP8 PUSH2 0x4830 JUMP JUMPDEST MSTORE ADD PUSH2 0x4C2E JUMP JUMPDEST ISZERO PUSH2 0x4C5D JUMPI JUMP JUMPDEST PUSH1 0x40 MLOAD PUSH3 0x461BCD PUSH1 0xE5 SHL DUP2 MSTORE PUSH1 0x20 PUSH1 0x4 DUP3 ADD MSTORE PUSH1 0x2B PUSH1 0x24 DUP3 ADD MSTORE PUSH32 0x496E697469616C697A61626C653A20636F6E7472616374206973206E6F742069 PUSH1 0x44 DUP3 ADD MSTORE PUSH11 0x6E697469616C697A696E67 PUSH1 0xA8 SHL PUSH1 0x64 DUP3 ADD MSTORE PUSH1 0x84 SWAP1 REVERT JUMPDEST PUSH1 0x40 MLOAD SWAP1 PUSH2 0x4CC5 PUSH1 0x80 DUP4 PUSH2 0x42F6 JUMP JUMPDEST PUSH1 0x0 PUSH1 0x60 DUP4 DUP3 DUP2 MSTORE DUP3 PUSH1 0x20 DUP3 ADD MSTORE DUP3 PUSH1 0x40 DUP3 ADD MSTORE ADD MSTORE JUMP JUMPDEST SWAP3 PUSH1 0xA0 SWAP5 SWAP2 SWAP8 SWAP7 SWAP6 SWAP3 PUSH1 0xC0 DUP6 ADD SWAP9 DUP6 MSTORE PUSH1 0x20 DUP6 ADD MSTORE PUSH1 0x40 DUP5 ADD MSTORE PUSH1 0x60 DUP4 ADD MSTORE PUSH1 0x80 DUP3 ADD MSTORE ADD MSTORE JUMP JUMPDEST PUSH1 0xFF PUSH2 0x17D SLOAD PUSH1 0x8 SHR AND PUSH2 0x4D15 JUMPI JUMP JUMPDEST PUSH1 0x40 MLOAD PUSH4 0x1CA61D77 PUSH1 0xE0 SHL DUP2 MSTORE PUSH1 0x4 SWAP1 REVERT JUMPDEST PUSH2 0x4D8D SWAP3 PUSH1 0x20 SWAP3 PUSH2 0x166 PUSH2 0x4D3C DUP5 DUP3 SLOAD PUSH2 0x480D JUMP JUMPDEST SWAP1 SSTORE PUSH2 0x4D4C PUSH2 0x163 SWAP2 DUP3 SLOAD PUSH2 0x480D JUMP JUMPDEST SWAP1 SSTORE PUSH2 0x165 SLOAD PUSH1 0x40 MLOAD PUSH4 0x40C10F19 PUSH1 0xE0 SHL DUP2 MSTORE PUSH1 0x1 PUSH1 0x1 PUSH1 0xA0 SHL SUB SWAP3 DUP4 AND PUSH1 0x4 DUP3 ADD MSTORE PUSH1 0x24 DUP2 ADD SWAP4 SWAP1 SWAP4 MSTORE SWAP2 SWAP4 DUP5 SWAP3 SWAP1 SWAP2 AND SWAP1 DUP3 SWAP1 PUSH1 0x0 SWAP1 DUP3 SWAP1 PUSH1 0x44 DUP3 ADD SWAP1 JUMP JUMPDEST SUB SWAP3 GAS CALL DUP1 ISZERO PUSH2 0x4DCF JUMPI PUSH2 0x4D9E JUMPI POP JUMP JUMPDEST PUSH1 0x20 DUP2 RETURNDATASIZE DUP3 GT PUSH2 0x4DC7 JUMPI JUMPDEST DUP2 PUSH2 0x4DB6 PUSH1 0x20 SWAP4 DUP4 PUSH2 0x42F6 JUMP JUMPDEST DUP2 ADD SUB SLT PUSH2 0x8EB JUMPI PUSH2 0x4B43 SWAP1 PUSH2 0x4B8D JUMP JUMPDEST RETURNDATASIZE SWAP2 POP PUSH2 0x4DA9 JUMP JUMPDEST PUSH1 0x40 MLOAD RETURNDATASIZE PUSH1 0x0 DUP3 RETURNDATACOPY RETURNDATASIZE SWAP1 REVERT JUMPDEST SWAP2 SWAP1 PUSH2 0x4DE6 SWAP1 PUSH2 0x4844 JUMP JUMPDEST SWAP2 SWAP1 SWAP3 PUSH2 0x4DF3 DUP4 DUP6 PUSH2 0x49EB JUMP JUMPDEST SWAP1 DUP1 DUP3 GT ISZERO PUSH2 0x4E00 JUMPI POP POP JUMP JUMPDEST PUSH1 0x44 SWAP3 POP PUSH1 0x40 MLOAD SWAP2 PUSH4 0x79121201 PUSH1 0xE0 SHL DUP4 MSTORE PUSH1 0x4 DUP4 ADD MSTORE PUSH1 0x24 DUP3 ADD MSTORE REVERT JUMPDEST SWAP1 PUSH2 0x166 SLOAD SWAP1 DUP2 ISZERO PUSH2 0x4E4A JUMPI PUSH8 0xDE0B6B3A7640000 PUSH2 0xA50 PUSH2 0x420C SWAP5 PUSH2 0xA4B PUSH2 0x660 SWAP5 PUSH2 0x163 SLOAD PUSH2 0x4A15 JUMP JUMPDEST POP POP POP PUSH8 0xDE0B6B3A7640000 SWAP1 JUMP JUMPDEST SWAP3 SWAP1 SWAP4 SWAP2 PUSH1 0x0 SWAP2 PUSH1 0x0 SWAP2 DUP3 SWAP7 PUSH2 0x4E6D PUSH2 0x4CB6 JUMP JUMPDEST SWAP7 PUSH1 0x1 PUSH1 0x1 PUSH1 0xA0 SHL SUB SWAP2 DUP6 SWAP1 DUP4 AND DUP1 PUSH2 0x507D JUMPI JUMPDEST POP DUP3 PUSH2 0x161 SLOAD AND DUP4 PUSH1 0x40 MLOAD SWAP4 PUSH4 0x6EB1769F PUSH1 0xE1 SHL DUP6 MSTORE AND DUP1 PUSH1 0x4 DUP6 ADD MSTORE ADDRESS PUSH1 0x24 DUP6 ADD MSTORE PUSH1 0x20 SWAP5 DUP6 DUP6 PUSH1 0x44 DUP2 DUP7 GAS STATICCALL SWAP5 DUP6 ISZERO PUSH2 0x5072 JUMPI DUP5 SWAP6 PUSH2 0x503F JUMPI JUMPDEST POP DUP5 PUSH2 0x4F1E JUMPI JUMPDEST POP POP POP POP POP DUP7 ADD MLOAD ISZERO PUSH2 0x4EDA JUMPI JUMPDEST POP POP POP SWAP3 SWAP2 SWAP1 JUMP JUMPDEST SWAP1 SWAP2 SWAP3 POP PUSH2 0x4EF2 PUSH8 0xDE0B6B3A7640000 SWAP3 DUP4 SWAP3 PUSH2 0x4957 JUMP JUMPDEST DIV DUP1 DUP6 MSTORE SWAP1 DUP3 ISZERO PUSH2 0x4F16 JUMPI PUSH2 0x4F0E SWAP3 DIV SWAP1 DUP2 PUSH1 0x40 DUP7 ADD MSTORE PUSH2 0x480D JUMP JUMPDEST CODESIZE DUP1 DUP1 PUSH2 0x4ED2 JUMP JUMPDEST POP SWAP1 POP PUSH2 0x4F0E JUMP JUMPDEST PUSH2 0x4F2C SWAP1 PUSH2 0x162 SLOAD AND PUSH2 0x4B9A JUMP JUMPDEST SWAP3 SWAP1 SWAP3 ISZERO PUSH2 0x4EC4 JUMPI SWAP1 SWAP2 SWAP3 SWAP4 SWAP12 POP DUP5 DUP12 PUSH2 0x4F66 DUP6 PUSH8 0xDE0B6B3A7640000 PUSH2 0x4F60 PUSH2 0x4F56 DUP14 DUP14 PUSH2 0x4957 JUMP JUMPDEST PUSH2 0x175 SLOAD SWAP1 PUSH2 0x4957 JUMP JUMPDEST DIV PUSH2 0x496A JUMP JUMPDEST DUP2 DUP4 ADD DUP2 DUP2 MSTORE SWAP6 SWAP1 DUP12 ISZERO PUSH2 0x5035 JUMPI POP PUSH2 0x4F91 SWAP2 PUSH2 0x4F85 PUSH1 0x60 SWAP3 DUP14 PUSH2 0x496A JUMP JUMPDEST SWAP2 DUP3 SWAP2 ADD MSTORE DUP6 MLOAD PUSH2 0x480D JUMP JUMPDEST DUP1 SWAP14 JUMPDEST LT SWAP3 DUP4 ISZERO PUSH2 0x4FC0 JUMPI JUMPDEST POP POP POP PUSH2 0x4FAD JUMPI JUMPDEST DUP1 DUP1 DUP1 PUSH2 0x4EC4 JUMP JUMPDEST DUP2 SWAP3 SWAP10 POP MSTORE DUP1 PUSH1 0x60 DUP9 ADD MSTORE SWAP7 CODESIZE DUP1 PUSH2 0x4FA5 JUMP JUMPDEST SWAP1 SWAP2 SWAP3 POP PUSH1 0x24 PUSH1 0x40 MLOAD DUP1 SWAP5 DUP2 SWAP4 PUSH4 0x70A08231 PUSH1 0xE0 SHL DUP4 MSTORE PUSH1 0x4 DUP4 ADD MSTORE GAS STATICCALL SWAP1 DUP2 ISZERO PUSH2 0x502A JUMPI SWAP1 DUP12 SWAP2 DUP5 SWAP2 PUSH2 0x4FF9 JUMPI JUMPDEST POP LT CODESIZE DUP5 DUP2 PUSH2 0x4F9D JUMP JUMPDEST DUP1 SWAP3 POP DUP6 DUP1 SWAP3 POP RETURNDATASIZE DUP4 GT PUSH2 0x5023 JUMPI JUMPDEST PUSH2 0x5012 DUP2 DUP4 PUSH2 0x42F6 JUMP JUMPDEST DUP2 ADD SUB SLT PUSH2 0x39BF JUMPI DUP11 SWAP1 MLOAD CODESIZE PUSH2 0x4FEF JUMP JUMPDEST POP RETURNDATASIZE PUSH2 0x5008 JUMP JUMPDEST PUSH1 0x40 MLOAD RETURNDATASIZE DUP6 DUP3 RETURNDATACOPY RETURNDATASIZE SWAP1 REVERT JUMPDEST SWAP2 POP POP DUP1 SWAP14 PUSH2 0x4F94 JUMP JUMPDEST SWAP1 SWAP5 POP DUP6 DUP2 DUP2 RETURNDATASIZE DUP4 GT PUSH2 0x506B JUMPI JUMPDEST PUSH2 0x5057 DUP2 DUP4 PUSH2 0x42F6 JUMP JUMPDEST DUP2 ADD SUB SLT PUSH2 0x5067 JUMPI MLOAD SWAP4 CODESIZE PUSH2 0x4EBD JUMP JUMPDEST DUP4 DUP1 REVERT JUMPDEST POP RETURNDATASIZE PUSH2 0x504D JUMP JUMPDEST PUSH1 0x40 MLOAD RETURNDATASIZE DUP7 DUP3 RETURNDATACOPY RETURNDATASIZE SWAP1 REVERT JUMPDEST SWAP1 SWAP6 POP PUSH1 0x20 DUP4 PUSH2 0x1E9 SLOAD AND SWAP2 PUSH1 0x24 PUSH1 0x40 MLOAD DUP1 SWAP5 DUP2 SWAP4 PUSH4 0x64A731E9 PUSH1 0xE0 SHL DUP4 MSTORE PUSH1 0x4 DUP4 ADD MSTORE GAS STATICCALL DUP1 ISZERO PUSH2 0x50F5 JUMPI DUP7 SWAP1 PUSH2 0x50C2 JUMPI JUMPDEST PUSH2 0x50BB SWAP2 POP DUP5 PUSH2 0x4957 JUMP JUMPDEST SWAP5 CODESIZE PUSH2 0x4E81 JUMP JUMPDEST POP PUSH1 0x20 DUP2 RETURNDATASIZE DUP3 GT PUSH2 0x50ED JUMPI JUMPDEST DUP2 PUSH2 0x50DB PUSH1 0x20 SWAP4 DUP4 PUSH2 0x42F6 JUMP JUMPDEST DUP2 ADD SUB SLT PUSH2 0x32E2 JUMPI PUSH2 0x50BB SWAP1 MLOAD PUSH2 0x50B0 JUMP JUMPDEST RETURNDATASIZE SWAP2 POP PUSH2 0x50CE JUMP JUMPDEST PUSH1 0x40 MLOAD RETURNDATASIZE DUP9 DUP3 RETURNDATACOPY RETURNDATASIZE SWAP1 REVERT JUMPDEST PUSH2 0x5178 SWAP4 PUSH2 0x513F PUSH1 0x0 SWAP3 PUSH1 0x20 SWAP6 PUSH2 0x5119 DUP3 PUSH2 0x169 PUSH2 0x42DA JUMP JUMPDEST POP PUSH2 0x5125 DUP8 DUP3 SLOAD PUSH2 0x480D JUMP JUMPDEST SWAP1 SSTORE PUSH2 0x5135 PUSH2 0x163 SWAP2 DUP3 SLOAD PUSH2 0x480D JUMP JUMPDEST SWAP1 SSTORE PUSH2 0x167 PUSH2 0x4198 JUMP JUMPDEST SWAP1 SLOAD PUSH1 0x40 MLOAD PUSH4 0x40C10F19 PUSH1 0xE0 SHL DUP2 MSTORE PUSH1 0x1 PUSH1 0x1 PUSH1 0xA0 SHL SUB SWAP1 SWAP4 AND PUSH1 0x4 DUP5 ADD MSTORE PUSH1 0x24 DUP4 ADD SWAP5 SWAP1 SWAP5 MSTORE SWAP1 SWAP5 DUP6 SWAP4 SWAP3 DUP5 SWAP3 SWAP1 SWAP2 DUP4 SWAP1 PUSH1 0x44 DUP3 ADD SWAP1 JUMP JUMPDEST SUB SWAP4 PUSH1 0x3 SWAP2 SWAP1 SWAP2 SHL SHR PUSH1 0x1 PUSH1 0x1 PUSH1 0xA0 SHL SUB AND GAS CALL DUP1 ISZERO PUSH2 0x4DCF JUMPI PUSH2 0x4D9E JUMPI POP JUMP JUMPDEST PUSH2 0x2FEB PUSH2 0x51EC SWAP2 PUSH2 0x51AA DUP5 DUP3 PUSH2 0x498A JUMP JUMPDEST PUSH2 0x51E2 PUSH2 0x51B9 DUP4 PUSH2 0x180 PUSH2 0x4198 JUMP JUMPDEST PUSH2 0x51CC DUP3 SWAP5 SWAP3 SLOAD SWAP3 DUP4 DUP4 PUSH1 0x3 SHL SHR PUSH2 0x48D4 JUMP JUMPDEST SWAP2 SWAP1 PUSH1 0x3 SHL PUSH1 0x0 NOT DUP2 SHL SWAP3 DUP4 SWAP2 SHL AND SWAP2 NOT AND OR SWAP1 JUMP JUMPDEST SWAP1 SSTORE PUSH2 0x181 PUSH2 0x4198 JUMP JUMPDEST SWAP1 SSTORE JUMP JUMPDEST SWAP3 PUSH2 0x934 DUP4 PUSH2 0x5202 SWAP7 SWAP5 SWAP4 SWAP8 SWAP6 PUSH2 0x584A JUMP JUMPDEST DUP2 DUP2 LT PUSH2 0x520D JUMPI POP POP JUMP JUMPDEST PUSH1 0x44 SWAP3 POP PUSH1 0x40 MLOAD SWAP2 PUSH4 0xC39B739F PUSH1 0xE0 SHL DUP4 MSTORE PUSH1 0x4 DUP4 ADD MSTORE PUSH1 0x24 DUP3 ADD MSTORE REVERT JUMPDEST SWAP4 PUSH2 0x523A SWAP4 PUSH2 0xA50 SWAP3 SWAP6 PUSH2 0x5260 JUMP JUMPDEST PUSH8 0xDE0B6B3A763FFFF NOT DUP3 ADD SWAP2 DUP3 GT PUSH2 0x481A JUMPI PUSH8 0xDE0B6B3A7640000 SWAP2 PUSH2 0x4877 SWAP2 PUSH2 0x496A JUMP JUMPDEST SWAP1 SWAP2 DUP2 PUSH2 0x526D DUP3 DUP6 PUSH2 0x49EB JUMP JUMPDEST GT ISZERO PUSH2 0x5299 JUMPI PUSH2 0x420C SWAP3 PUSH2 0x1419 PUSH8 0xDE0B6B3A7640000 PUSH2 0xA50 PUSH2 0x5293 SWAP5 PUSH2 0x163 SLOAD PUSH2 0x4A15 JUMP JUMPDEST SWAP1 PUSH2 0x4A15 JUMP JUMPDEST POP POP POP PUSH1 0x0 SWAP1 JUMP JUMPDEST SWAP1 PUSH2 0x420C SWAP2 PUSH1 0x0 DUP1 PUSH2 0x52B1 PUSH2 0x4731 JUMP JUMPDEST SWAP4 PUSH1 0x20 DUP2 MLOAD SWAP2 ADD DUP5 GAS DELEGATECALL PUSH2 0x52C3 PUSH2 0x4701 JUMP JUMPDEST SWAP3 PUSH1 0x60 SWAP2 ISZERO PUSH2 0x5327 JUMPI POP POP DUP2 MLOAD ISZERO PUSH2 0x52D9 JUMPI POP SWAP1 JUMP JUMPDEST EXTCODESIZE ISZERO PUSH2 0x52E2 JUMPI SWAP1 JUMP JUMPDEST PUSH1 0x40 MLOAD PUSH3 0x461BCD PUSH1 0xE5 SHL DUP2 MSTORE PUSH1 0x20 PUSH1 0x4 DUP3 ADD MSTORE PUSH1 0x1D PUSH1 0x24 DUP3 ADD MSTORE PUSH32 0x416464726573733A2063616C6C20746F206E6F6E2D636F6E7472616374000000 PUSH1 0x44 DUP3 ADD MSTORE PUSH1 0x64 SWAP1 REVERT JUMPDEST SWAP1 SWAP4 SWAP3 PUSH2 0x4444 SWAP3 POP PUSH2 0x479B JUMP JUMPDEST PUSH2 0x5362 SWAP2 SWAP4 SWAP3 PUSH2 0x5346 DUP3 PUSH2 0x169 PUSH2 0x42DA JUMP JUMPDEST POP PUSH2 0x5352 DUP7 DUP3 SLOAD PUSH2 0x4A15 JUMP JUMPDEST SWAP1 SSTORE PUSH2 0x5135 PUSH2 0x163 SWAP2 DUP3 SLOAD PUSH2 0x4A15 JUMP JUMPDEST SWAP1 SLOAD PUSH1 0x3 SWAP2 SWAP1 SWAP2 SHL SHR PUSH1 0x1 PUSH1 0x1 PUSH1 0xA0 SHL SUB AND SWAP2 DUP3 EXTCODESIZE ISZERO PUSH2 0x8EB JUMPI PUSH1 0x40 MLOAD PUSH4 0x2770A7EB PUSH1 0xE2 SHL DUP2 MSTORE PUSH1 0x1 PUSH1 0x1 PUSH1 0xA0 SHL SUB SWAP1 SWAP3 AND PUSH1 0x4 DUP4 ADD MSTORE PUSH1 0x24 DUP3 ADD MSTORE SWAP1 PUSH1 0x0 SWAP1 DUP3 SWAP1 DUP2 DUP4 DUP2 PUSH1 0x44 DUP2 ADD JUMPDEST SUB SWAP3 GAS CALL DUP1 ISZERO PUSH2 0x4DCF JUMPI PUSH2 0x53BD JUMPI POP JUMP JUMPDEST PUSH1 0x0 PUSH2 0x4444 SWAP2 PUSH2 0x42F6 JUMP JUMPDEST SWAP2 SWAP1 PUSH2 0x166 PUSH2 0x53D8 DUP5 DUP3 SLOAD PUSH2 0x4A15 JUMP JUMPDEST SWAP1 SSTORE PUSH2 0x53E8 PUSH2 0x163 SWAP2 DUP3 SLOAD PUSH2 0x4A15 JUMP JUMPDEST SWAP1 SSTORE PUSH2 0x165 SLOAD PUSH1 0x1 PUSH1 0x1 PUSH1 0xA0 SHL SUB AND SWAP2 DUP3 EXTCODESIZE ISZERO PUSH2 0x8EB JUMPI PUSH1 0x40 MLOAD PUSH4 0x2770A7EB PUSH1 0xE2 SHL DUP2 MSTORE PUSH1 0x1 PUSH1 0x1 PUSH1 0xA0 SHL SUB SWAP1 SWAP3 AND PUSH1 0x4 DUP4 ADD MSTORE PUSH1 0x24 DUP3 ADD MSTORE SWAP1 PUSH1 0x0 SWAP1 DUP3 SWAP1 DUP2 DUP4 DUP2 PUSH1 0x44 DUP2 ADD PUSH2 0x53AC JUMP JUMPDEST DUP5 MLOAD SWAP3 SWAP5 SWAP4 SWAP2 SWAP3 PUSH1 0x0 SWAP2 SWAP1 ISZERO PUSH2 0x555B JUMPI POP PUSH8 0xDE0B6B3A7640000 PUSH2 0x545C PUSH2 0x16D SLOAD DUP7 MLOAD SWAP1 PUSH2 0x4957 JUMP JUMPDEST DIV SWAP2 PUSH2 0x163 PUSH2 0x546C DUP5 DUP3 SLOAD PUSH2 0x480D JUMP JUMPDEST SWAP1 SSTORE PUSH2 0x178 SLOAD DUP6 MLOAD PUSH1 0x1 PUSH1 0x1 PUSH1 0xA0 SHL SUB SWAP7 SWAP2 DUP8 AND SWAP5 PUSH2 0x548A SWAP2 PUSH2 0x4A15 JUMP JUMPDEST PUSH2 0x12F SWAP5 PUSH1 0x2 DUP7 SLOAD EQ PUSH2 0x2F1E JUMPI PUSH1 0x2 DUP7 SSTORE DUP2 PUSH2 0x5534 JUMPI JUMPDEST POP POP PUSH1 0x40 ADD MLOAD SWAP2 SWAP5 PUSH1 0x2 DUP5 SSTORE DUP3 PUSH2 0x550A JUMPI JUMPDEST POP POP POP PUSH1 0x1 SWAP1 SSTORE JUMPDEST PUSH2 0x12F SWAP3 PUSH1 0x2 DUP5 SLOAD EQ PUSH2 0x2F1E JUMPI PUSH1 0x2 DUP5 SSTORE DUP1 PUSH2 0x54DB JUMPI JUMPDEST POP POP POP PUSH1 0x1 SWAP1 SSTORE JUMP JUMPDEST PUSH1 0x1 PUSH1 0x1 PUSH1 0xA0 SHL SUB DUP3 AND ISZERO PUSH2 0x2F0C JUMPI DUP3 SWAP2 DUP3 SWAP2 PUSH1 0x40 MLOAD SWAP2 GAS CALL PUSH2 0x54FC PUSH2 0x4701 JUMP JUMPDEST POP ISZERO PUSH2 0x2EFA JUMPI CODESIZE DUP1 DUP1 PUSH2 0x54D2 JUMP JUMPDEST DUP2 AND ISZERO PUSH2 0x2F0C JUMPI PUSH1 0x0 DUP1 SWAP3 SWAP2 DUP2 SWAP3 PUSH1 0x40 MLOAD SWAP2 GAS CALL PUSH2 0x5526 PUSH2 0x4701 JUMP JUMPDEST POP ISZERO PUSH2 0x2EFA JUMPI CODESIZE DUP1 DUP1 PUSH2 0x54B3 JUMP JUMPDEST DUP1 ISZERO PUSH2 0x2F0C JUMPI DUP5 DUP1 SWAP3 SWAP2 DUP2 SWAP3 PUSH1 0x40 MLOAD SWAP2 GAS CALL PUSH2 0x554E PUSH2 0x4701 JUMP JUMPDEST POP ISZERO PUSH2 0x2EFA JUMPI CODESIZE DUP1 PUSH2 0x54A1 JUMP JUMPDEST PUSH2 0x178 SLOAD PUSH1 0x20 DUP7 ADD MLOAD SWAP3 SWAP6 PUSH2 0x558B SWAP5 SWAP3 SWAP4 PUSH1 0x60 SWAP3 PUSH2 0x5583 SWAP2 SWAP1 PUSH1 0x1 PUSH1 0x1 PUSH1 0xA0 SHL SUB AND DUP7 PUSH2 0x5590 JUMP JUMPDEST ADD MLOAD SWAP2 PUSH2 0x5590 JUMP JUMPDEST PUSH2 0x54BB JUMP JUMPDEST SWAP2 SWAP1 SWAP2 DUP2 PUSH2 0x559D JUMPI POP POP POP JUMP JUMPDEST PUSH2 0x5636 SWAP2 PUSH1 0x0 DUP1 PUSH1 0x1 DUP1 PUSH1 0xA0 SHL SUB SWAP4 DUP5 PUSH2 0x161 SLOAD AND SWAP4 PUSH1 0x40 MLOAD SWAP6 PUSH1 0x20 SWAP9 DUP2 DUP11 DUP10 ADD SWAP5 PUSH4 0x23B872DD PUSH1 0xE0 SHL DUP7 MSTORE AND PUSH1 0x24 DUP10 ADD MSTORE AND PUSH1 0x44 DUP8 ADD MSTORE PUSH1 0x64 DUP7 ADD MSTORE PUSH1 0x64 DUP6 MSTORE PUSH2 0x55E9 PUSH1 0x84 DUP7 PUSH2 0x42F6 JUMP JUMPDEST PUSH2 0x55F2 DUP8 PUSH2 0x432E JUMP JUMPDEST SWAP5 PUSH2 0x5600 PUSH1 0x40 MLOAD SWAP7 DUP8 PUSH2 0x42F6 JUMP JUMPDEST DUP8 DUP7 MSTORE PUSH32 0x5361666545524332303A206C6F772D6C6576656C2063616C6C206661696C6564 DUP9 DUP8 ADD MSTORE MLOAD SWAP1 DUP3 DUP6 GAS CALL PUSH2 0x52C3 PUSH2 0x4701 JUMP JUMPDEST DUP1 MLOAD DUP1 PUSH2 0x5642 JUMPI POP POP POP JUMP JUMPDEST DUP2 DUP4 SWAP2 DUP2 ADD SUB SLT PUSH2 0x8EB JUMPI DUP2 PUSH2 0x5658 SWAP2 ADD PUSH2 0x4B8D JUMP JUMPDEST ISZERO PUSH2 0x5660 JUMPI POP JUMP JUMPDEST PUSH1 0x84 SWAP1 PUSH1 0x40 MLOAD SWAP1 PUSH3 0x461BCD PUSH1 0xE5 SHL DUP3 MSTORE PUSH1 0x4 DUP3 ADD MSTORE PUSH1 0x2A PUSH1 0x24 DUP3 ADD MSTORE PUSH32 0x5361666545524332303A204552433230206F7065726174696F6E20646964206E PUSH1 0x44 DUP3 ADD MSTORE PUSH10 0x1BDD081CDD58D8D95959 PUSH1 0xB2 SHL PUSH1 0x64 DUP3 ADD MSTORE REVERT JUMPDEST PUSH2 0x5717 SWAP1 PUSH2 0x56C3 PUSH2 0x5AD0 JUMP JUMPDEST PUSH1 0x40 MLOAD PUSH4 0xE01DCE2D PUSH1 0xE0 SHL PUSH1 0x20 DUP3 ADD MSTORE PUSH1 0x24 DUP2 ADD SWAP2 SWAP1 SWAP2 MSTORE PUSH1 0x1 PUSH1 0x1 PUSH1 0xA0 SHL SUB SWAP3 DUP4 AND PUSH1 0x44 DUP3 ADD MSTORE DUP4 DUP4 AND PUSH1 0x64 DUP3 ADD DUP2 SWAP1 MSTORE SELFBALANCE PUSH1 0x84 DUP1 DUP5 ADD SWAP2 SWAP1 SWAP2 MSTORE DUP3 MSTORE SWAP3 PUSH2 0x570D PUSH1 0xA4 DUP4 PUSH2 0x42F6 JUMP JUMPDEST PUSH2 0x21C SLOAD AND PUSH2 0x52A1 JUMP JUMPDEST PUSH1 0x20 DUP2 DUP1 MLOAD DUP2 ADD SUB SLT PUSH2 0x8EB JUMPI PUSH1 0x20 ADD MLOAD SWAP2 PUSH2 0x12F SWAP2 PUSH1 0x2 DUP4 SLOAD EQ PUSH2 0x2F1E JUMPI PUSH1 0x2 DUP4 SSTORE DUP4 PUSH2 0x5749 JUMPI JUMPDEST POP POP PUSH1 0x1 SWAP1 SSTORE SWAP1 JUMP JUMPDEST ISZERO PUSH2 0x2F0C JUMPI PUSH1 0x0 DUP1 DUP1 SWAP3 DUP6 PUSH1 0x40 MLOAD SWAP2 GAS CALL PUSH2 0x5762 PUSH2 0x4701 JUMP JUMPDEST POP ISZERO PUSH2 0x2EFA JUMPI CODESIZE DUP1 PUSH2 0x5740 JUMP JUMPDEST SWAP3 DUP1 PUSH2 0x345D PUSH2 0x3463 SWAP3 DUP6 PUSH2 0x5783 SWAP7 SWAP6 PUSH2 0x5260 JUMP JUMPDEST DUP2 DUP2 LT PUSH2 0x578E JUMPI POP POP JUMP JUMPDEST PUSH1 0x44 SWAP3 POP PUSH1 0x40 MLOAD SWAP2 PUSH4 0xA5DB715D PUSH1 0xE0 SHL DUP4 MSTORE PUSH1 0x4 DUP4 ADD MSTORE PUSH1 0x24 DUP3 ADD MSTORE REVERT JUMPDEST PUSH1 0xE0 DUP2 ADD SWAP3 SWAP2 PUSH1 0xC0 SWAP1 DUP2 SWAP1 PUSH1 0x1 PUSH1 0x1 PUSH1 0xA0 SHL SUB DUP1 PUSH2 0x57C9 DUP4 PUSH2 0x41C6 JUMP JUMPDEST AND DUP6 MSTORE PUSH2 0x57D8 PUSH1 0x20 DUP4 ADD PUSH2 0x41C6 JUMP JUMPDEST AND PUSH1 0x20 DUP6 ADD MSTORE PUSH1 0x40 DUP2 ADD CALLDATALOAD PUSH1 0x40 DUP6 ADD MSTORE PUSH1 0x60 DUP2 ADD CALLDATALOAD PUSH1 0x60 DUP6 ADD MSTORE PUSH1 0x80 DUP2 ADD CALLDATALOAD PUSH1 0x80 DUP6 ADD MSTORE PUSH1 0xA0 DUP2 ADD CALLDATALOAD PUSH1 0xA0 DUP6 ADD MSTORE ADD CALLDATALOAD SWAP2 ADD MSTORE JUMP JUMPDEST PUSH2 0x17F SLOAD DUP1 NUMBER LT ISZERO PUSH2 0x5824 JUMPI PUSH2 0x420C SWAP1 NUMBER SWAP1 PUSH2 0x4A15 JUMP JUMPDEST POP PUSH1 0x0 SWAP1 JUMP JUMPDEST SWAP1 PUSH1 0x40 MLOAD PUSH2 0x5839 PUSH1 0x40 DUP3 PUSH2 0x42F6 JUMP JUMPDEST PUSH1 0x20 PUSH1 0x1 DUP3 SWAP5 DUP1 SLOAD DUP5 MSTORE ADD SLOAD SWAP2 ADD MSTORE JUMP JUMPDEST PUSH2 0x5856 DUP2 PUSH2 0x17A PUSH2 0x4198 JUMP JUMPDEST SWAP1 SLOAD SWAP1 PUSH1 0x3 SHL SHR SWAP2 PUSH2 0x1B4 SWAP2 PUSH2 0x586C DUP2 DUP5 PUSH2 0x42DA JUMP JUMPDEST POP SLOAD SWAP3 PUSH2 0x1B5 SLOAD NUMBER LT ISZERO PUSH2 0x5897 JUMPI JUMPDEST POP POP DUP1 DUP3 LT ISZERO PUSH2 0x5892 JUMPI PUSH2 0x660 SWAP1 PUSH2 0x420C SWAP4 PUSH2 0x4957 JUMP JUMPDEST POP POP SWAP1 JUMP JUMPDEST DUP3 SWAP4 POP PUSH2 0x58AB PUSH2 0x58B6 SWAP4 SWAP3 PUSH2 0x58B1 SWAP3 PUSH2 0x42DA JUMP JUMPDEST POP PUSH2 0x582A JUMP JUMPDEST PUSH2 0x58BE JUMP JUMPDEST SWAP1 CODESIZE DUP1 PUSH2 0x587B JUMP JUMPDEST PUSH1 0x20 DUP2 MLOAD SWAP2 ADD DUP1 MLOAD SWAP3 PUSH8 0xDE0B6B3A7640000 SWAP4 DUP5 SUB SWAP1 DUP5 DUP3 GT PUSH2 0x481A JUMPI PUSH2 0x58EB PUSH2 0xDE3 SWAP3 PUSH2 0x4877 SWAP6 PUSH2 0x4957 JUMP JUMPDEST SWAP3 MLOAD PUSH2 0x4957 JUMP JUMPDEST PUSH1 0x0 DUP1 PUSH2 0x169 SWAP2 DUP3 SLOAD SWAP3 PUSH2 0x5905 DUP5 PUSH2 0x4A3A JUMP JUMPDEST SWAP4 DUP3 SWAP2 JUMPDEST DUP6 DUP3 DUP5 LT PUSH2 0x5934 JUMPI POP POP POP POP DUP2 ISZERO PUSH2 0x5928 JUMPI SWAP1 PUSH2 0x5925 SWAP2 PUSH2 0x496A JUMP JUMPDEST SWAP2 JUMP JUMPDEST POP POP PUSH2 0x17B SLOAD PUSH1 0x1 SHL SWAP2 JUMP JUMPDEST PUSH2 0xA50 PUSH2 0x599F DUP6 SWAP8 SWAP7 PUSH2 0xDE3 PUSH2 0x596E PUSH2 0x5996 DUP10 PUSH2 0x660 DUP10 PUSH2 0xA50 PUSH2 0x5980 DUP5 PUSH1 0x1 SWAP14 SWAP15 SWAP16 SWAP13 PUSH2 0x5964 PUSH2 0x59A5 SWAP15 PUSH2 0x4B46 JUMP JUMPDEST SWAP9 DUP10 SWAP8 DUP9 SWAP3 PUSH2 0x4830 JUMP JUMPDEST MSTORE PUSH2 0x5979 DUP7 DUP3 PUSH2 0x48F0 JUMP JUMPDEST POP SWAP4 PUSH2 0x42DA JUMP JUMPDEST POP PUSH2 0xA50 PUSH8 0xDE0B6B3A7640000 SWAP4 DUP5 SWAP3 SLOAD PUSH2 0x480D JUMP JUMPDEST SWAP5 DUP6 SWAP2 DUP13 PUSH2 0x584A JUMP JUMPDEST SWAP6 PUSH2 0x480D JUMP JUMPDEST SWAP5 ADD SWAP2 SWAP1 PUSH2 0x5909 JUMP JUMPDEST PUSH2 0x1B5 DUP1 SLOAD NUMBER LT ISZERO PUSH2 0x59BD JUMPI POP JUMP JUMPDEST PUSH2 0x169 SLOAD PUSH1 0x0 JUMPDEST DUP2 DUP2 LT PUSH2 0x59D7 JUMPI POP POP PUSH2 0x1B6 SLOAD NUMBER ADD SWAP1 SSTORE JUMP JUMPDEST DUP1 DUP1 PUSH32 0x19156E9379C7BBBCE8F646CE5EE30BA860B8F954717405F3D5859A6C1A21AE60 PUSH1 0x1 SWAP4 PUSH2 0x1B4 PUSH2 0x5A0D PUSH2 0x58AB DUP4 DUP4 PUSH2 0x42DA JUMP JUMPDEST SWAP1 PUSH2 0x5A2B PUSH2 0x5A23 PUSH2 0x5A1D DUP6 PUSH2 0x4B46 JUMP JUMPDEST DUP5 PUSH2 0x58BE JUMP JUMPDEST SWAP4 DUP5 SWAP3 PUSH2 0x42DA JUMP JUMPDEST POP SSTORE MLOAD PUSH1 0x40 SWAP2 DUP3 MLOAD SWAP2 DUP3 MSTORE PUSH1 0x20 DUP3 ADD MSTORE LOG2 ADD PUSH2 0x59C4 JUMP JUMPDEST PUSH1 0x97 SLOAD PUSH1 0x40 MLOAD PUSH4 0xD994D6D5 PUSH1 0xE0 SHL DUP2 MSTORE CALLER PUSH1 0x4 DUP3 ADD MSTORE SWAP1 PUSH1 0x20 SWAP1 DUP3 SWAP1 PUSH1 0x24 SWAP1 DUP3 SWAP1 PUSH1 0x1 PUSH1 0x1 PUSH1 0xA0 SHL SUB AND GAS STATICCALL SWAP1 DUP2 ISZERO PUSH2 0x4DCF JUMPI PUSH1 0x0 SWAP2 PUSH2 0x5A97 JUMPI JUMPDEST POP ISZERO PUSH2 0x5A85 JUMPI JUMP JUMPDEST PUSH1 0x40 MLOAD PUSH4 0x1DD1B1B5 PUSH1 0xE2 SHL DUP2 MSTORE PUSH1 0x4 SWAP1 REVERT JUMPDEST SWAP1 PUSH1 0x20 DUP3 RETURNDATASIZE DUP3 GT PUSH2 0x5AC8 JUMPI JUMPDEST DUP2 PUSH2 0x5AB0 PUSH1 0x20 SWAP4 DUP4 PUSH2 0x42F6 JUMP JUMPDEST DUP2 ADD SUB SLT PUSH2 0x5A1 JUMPI POP PUSH2 0x5AC2 SWAP1 PUSH2 0x4B8D JUMP JUMPDEST CODESIZE PUSH2 0x5A7D JUMP JUMPDEST RETURNDATASIZE SWAP2 POP PUSH2 0x5AA3 JUMP JUMPDEST PUSH1 0xFF PUSH1 0xCA SLOAD PUSH1 0x8 SHR AND PUSH2 0x5ADF JUMPI JUMP JUMPDEST PUSH1 0x40 MLOAD PUSH4 0x783BB6C9 PUSH1 0xE1 SHL DUP2 MSTORE PUSH1 0x4 SWAP1 REVERT JUMPDEST PUSH8 0xDE0B6B3A7640000 LT PUSH2 0x24FE JUMPI JUMP INVALID LOG2 PUSH5 0x6970667358 0x22 SLT KECCAK256 JUMPDEST PUSH12 0xE375B46AF0333A56ACEC51EF 0xC5 CODESIZE ADDMOD REVERT SWAP7 0xF6 SWAP15 EXP DUP12 PUSH17 0x1ED1BBB23E8E269E64736F6C6343000810 STOP CALLER "
    },
    "gasEstimates": {
      "creation": {
        "codeDepositCost": "4670200",
        "executionCost": "infinite",
        "totalCost": "infinite"
      },
      "external": {
        "addPeggedToken((address,address,uint256,uint256,uint256,uint256,uint256))": "infinite",
        "appreciationFactor()": "4859",
        "bes()": "3098",
        "bns()": "2614",
        "calcCtargemaCA()": "infinite",
        "changeGovernor(address)": "infinite",
        "editPeggedToken((address,address,uint256,uint256,uint256,uint256,uint256))": "infinite",
        "emaCalculationBlockSpan()": "3648",
        "evalLiquidation()": "infinite",
        "execSettlement()": "infinite",
        "feeRetainer()": "3142",
        "feeToken()": "3430",
        "feeTokenPct()": "2834",
        "feeTokenPriceProvider()": "4750",
        "getBts()": "4799",
        "getCglb()": "infinite",
        "getLeverageTC()": "infinite",
        "getPACtp(uint256)": "infinite",
        "getPTCac()": "infinite",
        "getTCAvailableToRedeem()": "infinite",
        "getTPAvailableToMint(uint256)": "infinite",
        "getTotalACavailable()": "infinite",
        "governor()": "2418",
        "initialize(((address,address,address,address,address,uint256,uint256,uint256,uint256,uint256,uint256,uint256,uint256,uint256,uint256,uint256,uint256,uint256,uint256),address,address,address,uint256,address))": "infinite",
        "isLiquidationReached()": "infinite",
        "liqEnabled()": "4672",
        "liqRedeemTP(uint256)": "infinite",
        "liqRedeemTPto(uint256,address)": "infinite",
        "liqThrld()": "3890",
        "liquidated()": "2742",
        "makeStoppable()": "infinite",
        "makeUnstoppable()": "infinite",
        "mintTC(uint256)": "infinite",
        "mintTCViaVendor(uint256,address)": "infinite",
        "mintTCandTP(uint256,uint256)": "infinite",
        "mintTCandTPFee()": "3582",
        "mintTCandTPViaVendor(uint256,uint256,address)": "infinite",
        "mintTCandTPto(uint256,uint256,address)": "infinite",
        "mintTCandTPtoViaVendor(uint256,uint256,address,address)": "infinite",
        "mintTCto(uint256,address)": "infinite",
        "mintTCtoViaVendor(uint256,address,address)": "infinite",
        "mintTP(uint256,uint256)": "infinite",
        "mintTPViaVendor(uint256,uint256,address)": "infinite",
        "mintTPto(uint256,uint256,address)": "infinite",
        "mintTPtoViaVendor(uint256,uint256,address,address)": "infinite",
        "mocAppreciationBeneficiaryAddress()": "3144",
        "mocFeeFlowAddress()": "4046",
        "mocVendors()": "3826",
        "nACcb()": "4792",
        "nTCcb()": "3604",
        "nextEmaCalculation()": "2416",
        "pause()": "29228",
        "paused()": "3336",
        "pauser()": "4165",
        "pegContainer(uint256)": "9587",
        "peggedTokenIndex(address)": "6364",
        "protThrld()": "3472",
        "proxiableUUID()": "infinite",
        "redeemTC(uint256,uint256)": "infinite",
        "redeemTCViaVendor(uint256,uint256,address)": "infinite",
        "redeemTCandTP(uint256,uint256,uint256,uint256)": "infinite",
        "redeemTCandTPFee()": "4814",
        "redeemTCandTPViaVendor(uint256,uint256,uint256,uint256,address)": "infinite",
        "redeemTCandTPto(uint256,uint256,uint256,uint256,address)": "infinite",
        "redeemTCandTPtoViaVendor(uint256,uint256,uint256,uint256,address,address)": "infinite",
        "redeemTCto(uint256,uint256,address)": "infinite",
        "redeemTCtoViaVendor(uint256,uint256,address,address)": "infinite",
        "redeemTP(uint256,uint256,uint256)": "infinite",
        "redeemTPViaVendor(uint256,uint256,uint256,address)": "infinite",
        "redeemTPto(uint256,uint256,uint256,address)": "infinite",
        "redeemTPtoViaVendor(uint256,uint256,uint256,address,address)": "infinite",
        "setAppreciationFactor(uint256)": "infinite",
        "setBes(uint256)": "infinite",
        "setEmaCalculationBlockSpan(uint256)": "infinite",
        "setFeeRetainer(uint256)": "infinite",
        "setFeeTokenAddress(address)": "infinite",
        "setFeeTokenPct(uint256)": "infinite",
        "setFeeTokenPriceProviderAddress(address)": "infinite",
        "setLiqEnabled(bool)": "infinite",
        "setLiqThrld(uint256)": "infinite",
        "setMintTCandTPFee(uint256)": "infinite",
        "setMocAppreciationBeneficiaryAddress(address)": "infinite",
        "setMocCoreExpansion(address)": "infinite",
        "setMocFeeFlowAddress(address)": "infinite",
        "setPauser(address)": "infinite",
        "setProtThrld(uint256)": "infinite",
        "setRedeemTCandTPFee(uint256)": "infinite",
        "setSuccessFee(uint256)": "infinite",
        "setSwapTCforTPFee(uint256)": "infinite",
        "setSwapTPforTCFee(uint256)": "infinite",
        "setSwapTPforTPFee(uint256)": "infinite",
        "setTcMintFee(uint256)": "infinite",
        "setTcRedeemFee(uint256)": "infinite",
        "shouldCalculateEma()": "4162",
        "stoppable()": "4298",
        "successFee()": "3538",
        "swapTCforTP(uint256,uint256,uint256)": "infinite",
        "swapTCforTPFee()": "2768",
        "swapTCforTPViaVendor(uint256,uint256,uint256,address)": "infinite",
        "swapTCforTPto(uint256,uint256,uint256,address)": "infinite",
        "swapTCforTPtoViaVendor(uint256,uint256,uint256,address,address)": "infinite",
        "swapTPforTC(uint256,uint256,uint256)": "infinite",
        "swapTPforTCFee()": "2878",
        "swapTPforTCViaVendor(uint256,uint256,uint256,address)": "infinite",
        "swapTPforTCto(uint256,uint256,uint256,address)": "infinite",
        "swapTPforTCtoViaVendor(uint256,uint256,uint256,address,address)": "infinite",
        "swapTPforTP(uint256,uint256,uint256,uint256)": "infinite",
        "swapTPforTPFee()": "3032",
        "swapTPforTPViaVendor(uint256,uint256,uint256,uint256,address)": "infinite",
        "swapTPforTPto(uint256,uint256,uint256,uint256,address)": "infinite",
        "swapTPforTPtoViaVendor(uint256,uint256,uint256,uint256,address,address)": "infinite",
        "tcMintFee()": "4942",
        "tcRedeemFee()": "4198",
        "tcToken()": "3408",
        "tpCtarg(uint256)": "8122",
        "tpEma(uint256)": "11128",
        "tpMintFee(uint256)": "8892",
        "tpRedeemFee(uint256)": "7572",
        "tpTokens(uint256)": "6672",
        "unpause()": "26193",
        "updateEmas()": "infinite",
        "upgradeTo(address)": "infinite",
        "upgradeToAndCall(address,bytes)": "infinite"
      },
      "internal": {
        "_onACNeededOperation(uint256,uint256)": "infinite",
        "acBalanceOf(address)": "infinite",
        "acTransfer(address,uint256)": "infinite"
      }
    },
    "methodIdentifiers": {
      "addPeggedToken((address,address,uint256,uint256,uint256,uint256,uint256))": "db796072",
      "appreciationFactor()": "fa6e83bd",
      "bes()": "4d977e78",
      "bns()": "1867e2f5",
      "calcCtargemaCA()": "662013f4",
      "changeGovernor(address)": "e4c0aaf4",
      "editPeggedToken((address,address,uint256,uint256,uint256,uint256,uint256))": "f26114aa",
      "emaCalculationBlockSpan()": "7a727fe8",
      "evalLiquidation()": "33421c38",
      "execSettlement()": "5c616a73",
      "feeRetainer()": "4f0f27ee",
      "feeToken()": "647846a5",
      "feeTokenPct()": "2ded50f0",
      "feeTokenPriceProvider()": "f13f4054",
      "getBts()": "e8859a15",
      "getCglb()": "826fcd58",
      "getLeverageTC()": "c039cc69",
      "getPACtp(uint256)": "904aa85b",
      "getPTCac()": "1fb0dda0",
      "getTCAvailableToRedeem()": "4017936a",
      "getTPAvailableToMint(uint256)": "fa79589e",
      "getTotalACavailable()": "de8d520a",
      "governor()": "0c340a24",
      "initialize(((address,address,address,address,address,uint256,uint256,uint256,uint256,uint256,uint256,uint256,uint256,uint256,uint256,uint256,uint256,uint256,uint256),address,address,address,uint256,address))": "979d9a88",
      "isLiquidationReached()": "9ad6659d",
      "liqEnabled()": "e7c25978",
      "liqRedeemTP(uint256)": "9195c85b",
      "liqRedeemTPto(uint256,address)": "5d65d045",
      "liqThrld()": "8cfa4241",
      "liquidated()": "23b98cde",
      "makeStoppable()": "68274357",
      "makeUnstoppable()": "5210570c",
      "mintTC(uint256)": "31f64ec2",
      "mintTCViaVendor(uint256,address)": "d8233ecc",
      "mintTCandTP(uint256,uint256)": "ac4fc1a8",
      "mintTCandTPFee()": "79f9a91c",
      "mintTCandTPViaVendor(uint256,uint256,address)": "71820f12",
      "mintTCandTPto(uint256,uint256,address)": "1f79da55",
      "mintTCandTPtoViaVendor(uint256,uint256,address,address)": "ec629679",
      "mintTCto(uint256,address)": "b3903b39",
      "mintTCtoViaVendor(uint256,address,address)": "fb3bfcea",
      "mintTP(uint256,uint256)": "82a5792c",
      "mintTPViaVendor(uint256,uint256,address)": "0ad8c234",
      "mintTPto(uint256,uint256,address)": "91f388d8",
      "mintTPtoViaVendor(uint256,uint256,address,address)": "fcf207d4",
      "mocAppreciationBeneficiaryAddress()": "4e1f907a",
      "mocFeeFlowAddress()": "9853c35a",
      "mocVendors()": "7f01c715",
      "nACcb()": "f30b5614",
      "nTCcb()": "7a193c31",
      "nextEmaCalculation()": "0c36d897",
      "pause()": "8456cb59",
      "paused()": "5c975abb",
      "pauser()": "9fd0506d",
      "pegContainer(uint256)": "4b746001",
      "peggedTokenIndex(address)": "9cabfc00",
      "protThrld()": "6b5488df",
      "proxiableUUID()": "52d1902d",
      "redeemTC(uint256,uint256)": "9abb14c9",
      "redeemTCViaVendor(uint256,uint256,address)": "471a80e3",
      "redeemTCandTP(uint256,uint256,uint256,uint256)": "17574bc5",
      "redeemTCandTPFee()": "f375cfba",
      "redeemTCandTPViaVendor(uint256,uint256,uint256,uint256,address)": "7c287999",
      "redeemTCandTPto(uint256,uint256,uint256,uint256,address)": "9bdd7cce",
      "redeemTCandTPtoViaVendor(uint256,uint256,uint256,uint256,address,address)": "102fefac",
      "redeemTCto(uint256,uint256,address)": "e4012945",
      "redeemTCtoViaVendor(uint256,uint256,address,address)": "3dbc50a9",
      "redeemTP(uint256,uint256,uint256)": "17df0ab8",
      "redeemTPViaVendor(uint256,uint256,uint256,address)": "5e1e8928",
      "redeemTPto(uint256,uint256,uint256,address)": "54a73c62",
      "redeemTPtoViaVendor(uint256,uint256,uint256,address,address)": "bad25a21",
      "setAppreciationFactor(uint256)": "01dde6ef",
      "setBes(uint256)": "c84353c9",
      "setEmaCalculationBlockSpan(uint256)": "3bc4ac0a",
      "setFeeRetainer(uint256)": "7750ba0c",
      "setFeeTokenAddress(address)": "cf351c1d",
      "setFeeTokenPct(uint256)": "543aeb48",
      "setFeeTokenPriceProviderAddress(address)": "0f1e5e2b",
      "setLiqEnabled(bool)": "1fe6a7ad",
      "setLiqThrld(uint256)": "2c43bd3b",
      "setMintTCandTPFee(uint256)": "2069f753",
      "setMocAppreciationBeneficiaryAddress(address)": "27eab2a1",
      "setMocCoreExpansion(address)": "e6a683e0",
      "setMocFeeFlowAddress(address)": "0d6ac463",
      "setPauser(address)": "2d88af4a",
      "setProtThrld(uint256)": "7cba2383",
      "setRedeemTCandTPFee(uint256)": "7a4ff1d9",
      "setSuccessFee(uint256)": "becaca6b",
      "setSwapTCforTPFee(uint256)": "7af5758c",
      "setSwapTPforTCFee(uint256)": "0e0a8fd2",
      "setSwapTPforTPFee(uint256)": "70713468",
      "setTcMintFee(uint256)": "f2808778",
      "setTcRedeemFee(uint256)": "c00f538d",
      "shouldCalculateEma()": "a8e9ac30",
      "stoppable()": "bb4872de",
      "successFee()": "7554fffd",
      "swapTCforTP(uint256,uint256,uint256)": "9839ee85",
      "swapTCforTPFee()": "2a20d57d",
      "swapTCforTPViaVendor(uint256,uint256,uint256,address)": "be22b4e1",
      "swapTCforTPto(uint256,uint256,uint256,address)": "7dc4e77f",
      "swapTCforTPtoViaVendor(uint256,uint256,uint256,address,address)": "f5319cc8",
      "swapTPforTC(uint256,uint256,uint256)": "0df12a8b",
      "swapTPforTCFee()": "333431fd",
      "swapTPforTCViaVendor(uint256,uint256,uint256,address)": "c6e06d89",
      "swapTPforTCto(uint256,uint256,uint256,address)": "0aed4f88",
      "swapTPforTCtoViaVendor(uint256,uint256,uint256,address,address)": "04856e41",
      "swapTPforTP(uint256,uint256,uint256,uint256)": "0f60f396",
      "swapTPforTPFee()": "407f0e34",
      "swapTPforTPViaVendor(uint256,uint256,uint256,uint256,address)": "b7aef837",
      "swapTPforTPto(uint256,uint256,uint256,uint256,address)": "0be9482d",
      "swapTPforTPtoViaVendor(uint256,uint256,uint256,uint256,address,address)": "7ad2819c",
      "tcMintFee()": "fda70f8b",
      "tcRedeemFee()": "aea038dc",
      "tcToken()": "60009e0b",
      "tpCtarg(uint256)": "7d8e0314",
      "tpEma(uint256)": "e6b1627c",
      "tpMintFee(uint256)": "de08160f",
      "tpRedeemFee(uint256)": "5241271c",
      "tpTokens(uint256)": "01f1b684",
      "unpause()": "3f4ba83a",
      "updateEmas()": "d1a0faa0",
      "upgradeTo(address)": "3659cfe6",
      "upgradeToAndCall(address,bytes)": "4f1ef286"
    }
  },
  "storageLayout": {
    "storage": [
      {
        "astId": 974,
        "contract": "contracts/collateral/coinbase/MocCACoinbase.sol:MocCACoinbase",
        "label": "_initialized",
        "offset": 0,
        "slot": "0",
        "type": "t_uint8"
      },
      {
        "astId": 977,
        "contract": "contracts/collateral/coinbase/MocCACoinbase.sol:MocCACoinbase",
        "label": "_initializing",
        "offset": 1,
        "slot": "0",
        "type": "t_bool"
      },
      {
        "astId": 956,
        "contract": "contracts/collateral/coinbase/MocCACoinbase.sol:MocCACoinbase",
        "label": "__gap",
        "offset": 0,
        "slot": "1",
        "type": "t_array(t_uint256)50_storage"
      },
      {
        "astId": 1271,
        "contract": "contracts/collateral/coinbase/MocCACoinbase.sol:MocCACoinbase",
        "label": "__gap",
        "offset": 0,
        "slot": "51",
        "type": "t_array(t_uint256)50_storage"
      },
      {
        "astId": 24925,
        "contract": "contracts/collateral/coinbase/MocCACoinbase.sol:MocCACoinbase",
        "label": "__gap",
        "offset": 0,
        "slot": "101",
        "type": "t_array(t_uint256)50_storage"
      },
      {
        "astId": 22812,
        "contract": "contracts/collateral/coinbase/MocCACoinbase.sol:MocCACoinbase",
        "label": "governor",
        "offset": 0,
        "slot": "151",
        "type": "t_contract(IGovernor)23597"
      },
      {
        "astId": 22883,
        "contract": "contracts/collateral/coinbase/MocCACoinbase.sol:MocCACoinbase",
        "label": "__gap",
        "offset": 0,
        "slot": "152",
        "type": "t_array(t_uint256)50_storage"
      },
      {
        "astId": 22951,
        "contract": "contracts/collateral/coinbase/MocCACoinbase.sol:MocCACoinbase",
        "label": "stoppable",
        "offset": 0,
        "slot": "202",
        "type": "t_bool"
      },
      {
        "astId": 22953,
        "contract": "contracts/collateral/coinbase/MocCACoinbase.sol:MocCACoinbase",
        "label": "_paused",
        "offset": 1,
        "slot": "202",
        "type": "t_bool"
      },
      {
        "astId": 22955,
        "contract": "contracts/collateral/coinbase/MocCACoinbase.sol:MocCACoinbase",
        "label": "pauser",
        "offset": 2,
        "slot": "202",
        "type": "t_address"
      },
      {
        "astId": 23114,
        "contract": "contracts/collateral/coinbase/MocCACoinbase.sol:MocCACoinbase",
        "label": "__gap",
        "offset": 0,
        "slot": "203",
        "type": "t_array(t_uint256)50_storage"
      },
      {
        "astId": 22933,
        "contract": "contracts/collateral/coinbase/MocCACoinbase.sol:MocCACoinbase",
        "label": "__gap",
        "offset": 0,
        "slot": "253",
        "type": "t_array(t_uint256)50_storage"
      },
      {
        "astId": 1413,
        "contract": "contracts/collateral/coinbase/MocCACoinbase.sol:MocCACoinbase",
        "label": "_status",
        "offset": 0,
        "slot": "303",
        "type": "t_uint256"
      },
      {
        "astId": 1471,
        "contract": "contracts/collateral/coinbase/MocCACoinbase.sol:MocCACoinbase",
        "label": "__gap",
        "offset": 0,
        "slot": "304",
        "type": "t_array(t_uint256)49_storage"
      },
      {
        "astId": 14508,
        "contract": "contracts/collateral/coinbase/MocCACoinbase.sol:MocCACoinbase",
        "label": "feeToken",
        "offset": 0,
        "slot": "353",
        "type": "t_contract(IERC20)5864"
      },
      {
        "astId": 14511,
        "contract": "contracts/collateral/coinbase/MocCACoinbase.sol:MocCACoinbase",
        "label": "feeTokenPriceProvider",
        "offset": 0,
        "slot": "354",
        "type": "t_contract(IPriceProvider)23635"
      },
      {
        "astId": 14513,
        "contract": "contracts/collateral/coinbase/MocCACoinbase.sol:MocCACoinbase",
        "label": "nACcb",
        "offset": 0,
        "slot": "355",
        "type": "t_uint256"
      },
      {
        "astId": 14515,
        "contract": "contracts/collateral/coinbase/MocCACoinbase.sol:MocCACoinbase",
        "label": "nACioucb",
        "offset": 0,
        "slot": "356",
        "type": "t_uint256"
      },
      {
        "astId": 14518,
        "contract": "contracts/collateral/coinbase/MocCACoinbase.sol:MocCACoinbase",
        "label": "tcToken",
        "offset": 0,
        "slot": "357",
        "type": "t_contract(MocTC)24830"
      },
      {
        "astId": 14520,
        "contract": "contracts/collateral/coinbase/MocCACoinbase.sol:MocCACoinbase",
        "label": "nTCcb",
        "offset": 0,
        "slot": "358",
        "type": "t_uint256"
      },
      {
        "astId": 14524,
        "contract": "contracts/collateral/coinbase/MocCACoinbase.sol:MocCACoinbase",
        "label": "tpTokens",
        "offset": 0,
        "slot": "359",
        "type": "t_array(t_contract(IMocRC20)23623)dyn_storage"
      },
      {
        "astId": 14529,
        "contract": "contracts/collateral/coinbase/MocCACoinbase.sol:MocCACoinbase",
        "label": "peggedTokenIndex",
        "offset": 0,
        "slot": "360",
        "type": "t_mapping(t_address,t_struct(PeggedTokenIndex)14466_storage)"
      },
      {
        "astId": 14533,
        "contract": "contracts/collateral/coinbase/MocCACoinbase.sol:MocCACoinbase",
        "label": "pegContainer",
        "offset": 0,
        "slot": "361",
        "type": "t_array(t_struct(PegContainerItem)14461_storage)dyn_storage"
      },
      {
        "astId": 14536,
        "contract": "contracts/collateral/coinbase/MocCACoinbase.sol:MocCACoinbase",
        "label": "tpLiqPrices",
        "offset": 0,
        "slot": "362",
        "type": "t_array(t_uint256)dyn_storage"
      },
      {
        "astId": 14538,
        "contract": "contracts/collateral/coinbase/MocCACoinbase.sol:MocCACoinbase",
        "label": "successFee",
        "offset": 0,
        "slot": "363",
        "type": "t_uint256"
      },
      {
        "astId": 14540,
        "contract": "contracts/collateral/coinbase/MocCACoinbase.sol:MocCACoinbase",
        "label": "appreciationFactor",
        "offset": 0,
        "slot": "364",
        "type": "t_uint256"
      },
      {
        "astId": 14542,
        "contract": "contracts/collateral/coinbase/MocCACoinbase.sol:MocCACoinbase",
        "label": "feeRetainer",
        "offset": 0,
        "slot": "365",
        "type": "t_uint256"
      },
      {
        "astId": 14544,
        "contract": "contracts/collateral/coinbase/MocCACoinbase.sol:MocCACoinbase",
        "label": "tcMintFee",
        "offset": 0,
        "slot": "366",
        "type": "t_uint256"
      },
      {
        "astId": 14546,
        "contract": "contracts/collateral/coinbase/MocCACoinbase.sol:MocCACoinbase",
        "label": "tcRedeemFee",
        "offset": 0,
        "slot": "367",
        "type": "t_uint256"
      },
      {
        "astId": 14548,
        "contract": "contracts/collateral/coinbase/MocCACoinbase.sol:MocCACoinbase",
        "label": "swapTPforTPFee",
        "offset": 0,
        "slot": "368",
        "type": "t_uint256"
      },
      {
        "astId": 14550,
        "contract": "contracts/collateral/coinbase/MocCACoinbase.sol:MocCACoinbase",
        "label": "swapTPforTCFee",
        "offset": 0,
        "slot": "369",
        "type": "t_uint256"
      },
      {
        "astId": 14552,
        "contract": "contracts/collateral/coinbase/MocCACoinbase.sol:MocCACoinbase",
        "label": "swapTCforTPFee",
        "offset": 0,
        "slot": "370",
        "type": "t_uint256"
      },
      {
        "astId": 14554,
        "contract": "contracts/collateral/coinbase/MocCACoinbase.sol:MocCACoinbase",
        "label": "redeemTCandTPFee",
        "offset": 0,
        "slot": "371",
        "type": "t_uint256"
      },
      {
        "astId": 14556,
        "contract": "contracts/collateral/coinbase/MocCACoinbase.sol:MocCACoinbase",
        "label": "mintTCandTPFee",
        "offset": 0,
        "slot": "372",
        "type": "t_uint256"
      },
      {
        "astId": 14558,
        "contract": "contracts/collateral/coinbase/MocCACoinbase.sol:MocCACoinbase",
        "label": "feeTokenPct",
        "offset": 0,
        "slot": "373",
        "type": "t_uint256"
      },
      {
        "astId": 14561,
        "contract": "contracts/collateral/coinbase/MocCACoinbase.sol:MocCACoinbase",
        "label": "tpMintFee",
        "offset": 0,
        "slot": "374",
        "type": "t_array(t_uint256)dyn_storage"
      },
      {
        "astId": 14564,
        "contract": "contracts/collateral/coinbase/MocCACoinbase.sol:MocCACoinbase",
        "label": "tpRedeemFee",
        "offset": 0,
        "slot": "375",
        "type": "t_array(t_uint256)dyn_storage"
      },
      {
        "astId": 14566,
        "contract": "contracts/collateral/coinbase/MocCACoinbase.sol:MocCACoinbase",
        "label": "mocFeeFlowAddress",
        "offset": 0,
        "slot": "376",
        "type": "t_address"
      },
      {
        "astId": 14568,
        "contract": "contracts/collateral/coinbase/MocCACoinbase.sol:MocCACoinbase",
        "label": "mocAppreciationBeneficiaryAddress",
        "offset": 0,
        "slot": "377",
        "type": "t_address"
      },
      {
        "astId": 14571,
        "contract": "contracts/collateral/coinbase/MocCACoinbase.sol:MocCACoinbase",
        "label": "tpCtarg",
        "offset": 0,
        "slot": "378",
        "type": "t_array(t_uint256)dyn_storage"
      },
      {
        "astId": 14573,
        "contract": "contracts/collateral/coinbase/MocCACoinbase.sol:MocCACoinbase",
        "label": "protThrld",
        "offset": 0,
        "slot": "379",
        "type": "t_uint256"
      },
      {
        "astId": 14575,
        "contract": "contracts/collateral/coinbase/MocCACoinbase.sol:MocCACoinbase",
        "label": "liqThrld",
        "offset": 0,
        "slot": "380",
        "type": "t_uint256"
      },
      {
        "astId": 14577,
        "contract": "contracts/collateral/coinbase/MocCACoinbase.sol:MocCACoinbase",
        "label": "liqEnabled",
        "offset": 0,
        "slot": "381",
        "type": "t_bool"
      },
      {
        "astId": 14579,
        "contract": "contracts/collateral/coinbase/MocCACoinbase.sol:MocCACoinbase",
        "label": "liquidated",
        "offset": 1,
        "slot": "381",
        "type": "t_bool"
      },
      {
        "astId": 14581,
        "contract": "contracts/collateral/coinbase/MocCACoinbase.sol:MocCACoinbase",
        "label": "bes",
        "offset": 0,
        "slot": "382",
        "type": "t_uint256"
      },
      {
        "astId": 14583,
        "contract": "contracts/collateral/coinbase/MocCACoinbase.sol:MocCACoinbase",
        "label": "bns",
        "offset": 0,
        "slot": "383",
        "type": "t_uint256"
      },
      {
        "astId": 14586,
        "contract": "contracts/collateral/coinbase/MocCACoinbase.sol:MocCACoinbase",
        "label": "tpiou",
        "offset": 0,
        "slot": "384",
        "type": "t_array(t_int256)dyn_storage"
      },
      {
        "astId": 14589,
        "contract": "contracts/collateral/coinbase/MocCACoinbase.sol:MocCACoinbase",
        "label": "pACtpLstop",
        "offset": 0,
        "slot": "385",
        "type": "t_array(t_uint256)dyn_storage"
      },
      {
        "astId": 15912,
        "contract": "contracts/collateral/coinbase/MocCACoinbase.sol:MocCACoinbase",
        "label": "__gap",
        "offset": 0,
        "slot": "386",
        "type": "t_array(t_uint256)50_storage"
      },
      {
        "astId": 19728,
        "contract": "contracts/collateral/coinbase/MocCACoinbase.sol:MocCACoinbase",
        "label": "tpEma",
        "offset": 0,
        "slot": "436",
        "type": "t_array(t_struct(EmaItem)19724_storage)dyn_storage"
      },
      {
        "astId": 19730,
        "contract": "contracts/collateral/coinbase/MocCACoinbase.sol:MocCACoinbase",
        "label": "nextEmaCalculation",
        "offset": 0,
        "slot": "437",
        "type": "t_uint256"
      },
      {
        "astId": 19732,
        "contract": "contracts/collateral/coinbase/MocCACoinbase.sol:MocCACoinbase",
        "label": "emaCalculationBlockSpan",
        "offset": 0,
        "slot": "438",
        "type": "t_uint256"
      },
      {
        "astId": 20104,
        "contract": "contracts/collateral/coinbase/MocCACoinbase.sol:MocCACoinbase",
        "label": "__gap",
        "offset": 0,
        "slot": "439",
        "type": "t_array(t_uint256)50_storage"
      },
      {
        "astId": 15940,
        "contract": "contracts/collateral/coinbase/MocCACoinbase.sol:MocCACoinbase",
        "label": "mocVendors",
        "offset": 0,
        "slot": "489",
        "type": "t_contract(MocVendors)25146"
      },
      {
        "astId": 16290,
        "contract": "contracts/collateral/coinbase/MocCACoinbase.sol:MocCACoinbase",
        "label": "__gap",
        "offset": 0,
        "slot": "490",
        "type": "t_array(t_uint256)50_storage"
      },
      {
        "astId": 16498,
        "contract": "contracts/collateral/coinbase/MocCACoinbase.sol:MocCACoinbase",
        "label": "mocCoreExpansion",
        "offset": 0,
        "slot": "540",
        "type": "t_address"
      },
      {
        "astId": 19183,
        "contract": "contracts/collateral/coinbase/MocCACoinbase.sol:MocCACoinbase",
        "label": "__gap",
        "offset": 0,
        "slot": "541",
        "type": "t_array(t_uint256)50_storage"
      },
      {
        "astId": 9936,
        "contract": "contracts/collateral/coinbase/MocCACoinbase.sol:MocCACoinbase",
        "label": "__gap",
        "offset": 0,
        "slot": "591",
        "type": "t_array(t_uint256)50_storage"
      }
    ],
    "types": {
      "t_address": {
        "encoding": "inplace",
        "label": "address",
        "numberOfBytes": "20"
      },
      "t_array(t_contract(IMocRC20)23623)dyn_storage": {
        "base": "t_contract(IMocRC20)23623",
        "encoding": "dynamic_array",
        "label": "contract IMocRC20[]",
        "numberOfBytes": "32"
      },
      "t_array(t_int256)dyn_storage": {
        "base": "t_int256",
        "encoding": "dynamic_array",
        "label": "int256[]",
        "numberOfBytes": "32"
      },
      "t_array(t_struct(EmaItem)19724_storage)dyn_storage": {
        "base": "t_struct(EmaItem)19724_storage",
        "encoding": "dynamic_array",
        "label": "struct MocEma.EmaItem[]",
        "numberOfBytes": "32"
      },
      "t_array(t_struct(PegContainerItem)14461_storage)dyn_storage": {
        "base": "t_struct(PegContainerItem)14461_storage",
        "encoding": "dynamic_array",
        "label": "struct MocBaseBucket.PegContainerItem[]",
        "numberOfBytes": "32"
      },
      "t_array(t_uint256)49_storage": {
        "base": "t_uint256",
        "encoding": "inplace",
        "label": "uint256[49]",
        "numberOfBytes": "1568"
      },
      "t_array(t_uint256)50_storage": {
        "base": "t_uint256",
        "encoding": "inplace",
        "label": "uint256[50]",
        "numberOfBytes": "1600"
      },
      "t_array(t_uint256)dyn_storage": {
        "base": "t_uint256",
        "encoding": "dynamic_array",
        "label": "uint256[]",
        "numberOfBytes": "32"
      },
      "t_bool": {
        "encoding": "inplace",
        "label": "bool",
        "numberOfBytes": "1"
      },
      "t_contract(IERC20)5864": {
        "encoding": "inplace",
        "label": "contract IERC20",
        "numberOfBytes": "20"
      },
      "t_contract(IGovernor)23597": {
        "encoding": "inplace",
        "label": "contract IGovernor",
        "numberOfBytes": "20"
      },
      "t_contract(IMocRC20)23623": {
        "encoding": "inplace",
        "label": "contract IMocRC20",
        "numberOfBytes": "20"
      },
      "t_contract(IPriceProvider)23635": {
        "encoding": "inplace",
        "label": "contract IPriceProvider",
        "numberOfBytes": "20"
      },
      "t_contract(MocTC)24830": {
        "encoding": "inplace",
        "label": "contract MocTC",
        "numberOfBytes": "20"
      },
      "t_contract(MocVendors)25146": {
        "encoding": "inplace",
        "label": "contract MocVendors",
        "numberOfBytes": "20"
      },
      "t_int256": {
        "encoding": "inplace",
        "label": "int256",
        "numberOfBytes": "32"
      },
      "t_mapping(t_address,t_struct(PeggedTokenIndex)14466_storage)": {
        "encoding": "mapping",
        "key": "t_address",
        "label": "mapping(address => struct MocBaseBucket.PeggedTokenIndex)",
        "numberOfBytes": "32",
        "value": "t_struct(PeggedTokenIndex)14466_storage"
      },
      "t_struct(EmaItem)19724_storage": {
        "encoding": "inplace",
        "label": "struct MocEma.EmaItem",
        "members": [
          {
            "astId": 19721,
            "contract": "contracts/collateral/coinbase/MocCACoinbase.sol:MocCACoinbase",
            "label": "ema",
            "offset": 0,
            "slot": "0",
            "type": "t_uint256"
          },
          {
            "astId": 19723,
            "contract": "contracts/collateral/coinbase/MocCACoinbase.sol:MocCACoinbase",
            "label": "sf",
            "offset": 0,
            "slot": "1",
            "type": "t_uint256"
          }
        ],
        "numberOfBytes": "64"
      },
      "t_struct(PegContainerItem)14461_storage": {
        "encoding": "inplace",
        "label": "struct MocBaseBucket.PegContainerItem",
        "members": [
          {
            "astId": 14457,
            "contract": "contracts/collateral/coinbase/MocCACoinbase.sol:MocCACoinbase",
            "label": "nTP",
            "offset": 0,
            "slot": "0",
            "type": "t_uint256"
          },
          {
            "astId": 14460,
            "contract": "contracts/collateral/coinbase/MocCACoinbase.sol:MocCACoinbase",
            "label": "priceProvider",
            "offset": 0,
            "slot": "1",
            "type": "t_contract(IPriceProvider)23635"
          }
        ],
        "numberOfBytes": "64"
      },
      "t_struct(PeggedTokenIndex)14466_storage": {
        "encoding": "inplace",
        "label": "struct MocBaseBucket.PeggedTokenIndex",
        "members": [
          {
            "astId": 14463,
            "contract": "contracts/collateral/coinbase/MocCACoinbase.sol:MocCACoinbase",
            "label": "index",
            "offset": 0,
            "slot": "0",
            "type": "t_uint256"
          },
          {
            "astId": 14465,
            "contract": "contracts/collateral/coinbase/MocCACoinbase.sol:MocCACoinbase",
            "label": "exists",
            "offset": 0,
            "slot": "1",
            "type": "t_bool"
          }
        ],
        "numberOfBytes": "64"
      },
      "t_uint256": {
        "encoding": "inplace",
        "label": "uint256",
        "numberOfBytes": "32"
      },
      "t_uint8": {
        "encoding": "inplace",
        "label": "uint8",
        "numberOfBytes": "1"
      }
    }
  },
  "userdoc": {
    "kind": "user",
    "methods": {
      "addPeggedToken((address,address,uint256,uint256,uint256,uint256,uint256))": {
        "notice": "add a Pegged Token to the protocol"
      },
      "calcCtargemaCA()": {
        "notice": "calculates target coverage adjusted by all Pegged Token's to Collateral Asset rate moving average"
      },
      "changeGovernor(address)": {
        "notice": "Change the contract's governor. Should be called through the old governance system"
      },
      "editPeggedToken((address,address,uint256,uint256,uint256,uint256,uint256))": {
        "notice": "modifies a Pegged Token of the protocol"
      },
      "evalLiquidation()": {
        "notice": "evaluates if liquidation threshold has been reached and liq is Enabled. If so forces contracts liquidation, blocking all mint & redeem operations. May emit a {ContractLiquidated} event."
      },
      "execSettlement()": {
        "notice": "this function is executed during settlement.  stores amount of locked AC by Pegged Tokens at this moment and distribute success fee"
      },
      "getBts()": {
        "notice": "get the number of blocks remaining for settlement"
      },
      "getCglb()": {
        "notice": "get bucket global coverage"
      },
      "getLeverageTC()": {
        "notice": "get Collateral Token leverage"
      },
      "getPACtp(uint256)": {
        "notice": "get how many Pegged Token equal 1 Collateral Asset"
      },
      "getPTCac()": {
        "notice": "get Collateral Token price"
      },
      "getTCAvailableToRedeem()": {
        "notice": "get amount of Collateral Token available to redeem"
      },
      "getTPAvailableToMint(uint256)": {
        "notice": "get amount of Pegged Token available to mint"
      },
      "getTotalACavailable()": {
        "notice": "get total Collateral Asset available"
      },
      "governor()": {
        "notice": "The address of the contract which governs this one"
      },
      "initialize(((address,address,address,address,address,uint256,uint256,uint256,uint256,uint256,uint256,uint256,uint256,uint256,uint256,uint256,uint256,uint256,uint256),address,address,address,uint256,address))": {
        "notice": "contract initializer"
      },
      "isLiquidationReached()": {
        "notice": "If liquidation is enabled, verifies if forced liquidation has been reached, checking if globalCoverage <= liquidation"
      },
      "liqRedeemTP(uint256)": {
        "notice": "Allow redeem on liquidation state, user Peg balance gets burned and he receives the equivalent AC given the liquidation frozen price."
      },
      "liqRedeemTPto(uint256,address)": {
        "notice": "Allow redeem on liquidation state, user Peg balance gets burned and he receives the equivalent AC given the liquidation frozen price."
      },
      "makeStoppable()": {
        "notice": "Switches ON the stoppability of the contract; if the contract was paused before making it unstoppable it will be paused again after calling this function"
      },
      "makeUnstoppable()": {
        "notice": "Switches OFF the stoppability of the contract; if the contract was paused it will no longer be so"
      },
      "mintTC(uint256)": {
        "notice": "caller sends coinbase as Collateral Asset and receives Collateral Token"
      },
      "mintTCViaVendor(uint256,address)": {
        "notice": "caller sends coinbase as Collateral Asset and receives Collateral Token  `vendor_` receives a markup in Fee Token if possible or in qAC if not"
      },
      "mintTCandTP(uint256,uint256)": {
        "notice": "caller sends coinbase as Collateral Asset and receives Collateral Token and Pegged Token  This operation is done without checking coverage  Collateral Token and Pegged Token are minted in equivalent proportions so that its price  and global coverage are not modified.  Reverts if qAC sent are insufficient."
      },
      "mintTCandTPViaVendor(uint256,uint256,address)": {
        "notice": "caller sends coinbase as Collateral Asset and receives Collateral Token and Pegged Token  `vendor_` receives a markup in Fee Token if possible or in qAC if not  This operation is done without checking coverage  Collateral Token and Pegged Token are minted in equivalent proportions so that its price  and global coverage are not modified.  Reverts if qAC sent are insufficient."
      },
      "mintTCandTPto(uint256,uint256,address)": {
        "notice": "caller sends coinbase as Collateral Asset and recipient receives Collateral Token and Pegged Token  This operation is done without checking coverage  Collateral Token and Pegged Token are minted in equivalent proportions so that its price  and global coverage are not modified.  Reverts if qAC sent are insufficient."
      },
      "mintTCandTPtoViaVendor(uint256,uint256,address,address)": {
        "notice": "caller sends coinbase as Collateral Asset and recipient receives Collateral Token and Pegged Token  `vendor_` receives a markup in Fee Token if possible or in qAC if not  This operation is done without checking coverage  Collateral Token and Pegged Token are minted in equivalent proportions so that its price  and global coverage are not modified.  Reverts if qAC sent are insufficient."
      },
      "mintTCto(uint256,address)": {
        "notice": "caller sends coinbase as Collateral Asset and recipient receives Collateral Token"
      },
      "mintTCtoViaVendor(uint256,address,address)": {
        "notice": "caller sends coinbase as Collateral Asset and recipient receives Collateral Token  `vendor_` receives a markup in Fee Token if possible or in qAC if not"
      },
      "mintTP(uint256,uint256)": {
        "notice": "caller sends coinbase as Collateral Asset and receives Pegged Token"
      },
      "mintTPViaVendor(uint256,uint256,address)": {
        "notice": "caller sends coinbase as Collateral Asset and receives Pegged Token  `vendor_` receives a markup in Fee Token if possible or in qAC if not"
      },
      "mintTPto(uint256,uint256,address)": {
        "notice": "caller sends coinbase as Collateral Asset and recipient receives Pegged Token"
      },
      "mintTPtoViaVendor(uint256,uint256,address,address)": {
        "notice": "caller sends coinbase as Collateral Asset and recipient receives Pegged Token  `vendor_` receives a markup in Fee Token if possible or in qAC if not"
      },
      "pause()": {
        "notice": "Called by the owner to pause, triggers stopped state"
      },
      "paused()": {
        "notice": "Returns true if paused"
      },
      "redeemTC(uint256,uint256)": {
        "notice": "caller sends Collateral Token and receives Collateral Asset"
      },
      "redeemTCViaVendor(uint256,uint256,address)": {
        "notice": "caller sends Collateral Token and receives Collateral Asset  `vendor_` receives a markup in Fee Token if possible or in qAC if not"
      },
      "redeemTCandTP(uint256,uint256,uint256,uint256)": {
        "notice": "caller sends Collateral Token and Pegged Token and receives coinbase as Collateral Asset  This operation is done without checking coverage  Collateral Token and Pegged Token are redeemed in equivalent proportions so that its price  and global coverage are not modified.  Reverts if qTP sent are insufficient."
      },
      "redeemTCandTPViaVendor(uint256,uint256,uint256,uint256,address)": {
        "notice": "caller sends Collateral Token and Pegged Token and receives coinbase as Collateral Asset  `vendor_` receives a markup in Fee Token if possible or in qAC if not  This operation is done without checking coverage  Collateral Token and Pegged Token are redeemed in equivalent proportions so that its price  and global coverage are not modified.  Reverts if qTP sent are insufficient."
      },
      "redeemTCandTPto(uint256,uint256,uint256,uint256,address)": {
        "notice": "caller sends Collateral Token and Pegged Token and recipient receives Collateral Asset  This operation is done without checking coverage  Collateral Token and Pegged Token are redeemed in equivalent proportions so that its price  and global coverage are not modified.  Reverts if qTP sent are insufficient."
      },
      "redeemTCandTPtoViaVendor(uint256,uint256,uint256,uint256,address,address)": {
        "notice": "caller sends Collateral Token and Pegged Token and recipient receives Collateral Asset  `vendor_` receives a markup in Fee Token if possible or in qAC if not  This operation is done without checking coverage  Collateral Token and Pegged Token are redeemed in equivalent proportions so that its price  and global coverage are not modified.  Reverts if qTP sent are insufficient."
      },
      "redeemTCto(uint256,uint256,address)": {
        "notice": "caller sends Collateral Token and recipient receives Collateral Asset"
      },
      "redeemTCtoViaVendor(uint256,uint256,address,address)": {
        "notice": "caller sends Collateral Token and recipient receives Collateral Asset  `vendor_` receives a markup in Fee Token if possible or in qAC if not"
      },
      "redeemTP(uint256,uint256,uint256)": {
        "notice": "caller sends Pegged Token and receives Collateral Asset"
      },
      "redeemTPViaVendor(uint256,uint256,uint256,address)": {
        "notice": "caller sends Pegged Token and receives Collateral Asset  `vendor_` receives a markup in Fee Token if possible or in qAC if not"
      },
      "redeemTPto(uint256,uint256,uint256,address)": {
        "notice": "caller sends Pegged Token and recipient receives Collateral Asset"
      },
      "redeemTPtoViaVendor(uint256,uint256,uint256,address,address)": {
        "notice": "caller sends Pegged Token and recipient receives Collateral Asset  `vendor_` receives a markup in Fee Token if possible or in qAC if not"
      },
      "setPauser(address)": {
        "notice": "Changes the address which is enable to pause this contract"
      },
      "shouldCalculateEma()": {
        "notice": "true if the necessary span has pass since last ema update"
      },
      "swapTCforTP(uint256,uint256,uint256)": {
        "notice": "caller sends Collateral Token and receives Pegged Token"
      },
      "swapTCforTPViaVendor(uint256,uint256,uint256,address)": {
        "notice": "caller sends Collateral Token and receives Pegged Token  `vendor_` receives a markup in Fee Token if possible or in qAC if not"
      },
      "swapTCforTPto(uint256,uint256,uint256,address)": {
        "notice": "caller sends Collateral Token and recipient receives Pegged Token"
      },
      "swapTCforTPtoViaVendor(uint256,uint256,uint256,address,address)": {
        "notice": "caller sends Collateral Token and recipient receives Pegged Token  `vendor_` receives a markup in Fee Token if possible or in qAC if not"
      },
      "swapTPforTC(uint256,uint256,uint256)": {
        "notice": "caller sends a Pegged Token and receives Collateral Token"
      },
      "swapTPforTCViaVendor(uint256,uint256,uint256,address)": {
        "notice": "caller sends a Pegged Token and receives Collateral Token  `vendor_` receives a markup in Fee Token if possible or in qAC if not"
      },
      "swapTPforTCto(uint256,uint256,uint256,address)": {
        "notice": "caller sends a Pegged Token and recipient receives Collateral Token"
      },
      "swapTPforTCtoViaVendor(uint256,uint256,uint256,address,address)": {
        "notice": "caller sends a Pegged Token and recipient receives Collateral Token  `vendor_` receives a markup in Fee Token if possible or in qAC if not"
      },
      "swapTPforTP(uint256,uint256,uint256,uint256)": {
        "notice": "caller sends a Pegged Token and receives another one"
      },
      "swapTPforTPViaVendor(uint256,uint256,uint256,uint256,address)": {
        "notice": "caller sends a Pegged Token and receives another one  `vendor_` receives a markup in Fee Token if possible or in qAC if not"
      },
      "swapTPforTPto(uint256,uint256,uint256,uint256,address)": {
        "notice": "caller sends a Pegged Token and recipient receives another one"
      },
      "swapTPforTPtoViaVendor(uint256,uint256,uint256,uint256,address,address)": {
        "notice": "caller sends a Pegged Token and recipient receives another one  `vendor_` receives a markup in Fee Token if possible or in qAC if not"
      },
      "unpause()": {
        "notice": "Called by the owner to unpause, returns to normal state"
      },
      "updateEmas()": {
        "notice": "If time, calculates the EMA for all the Pegged Token prices."
      }
    },
    "notice": "Moc protocol implementation using network Coinbase as Collateral Asset",
    "version": 1
  }
}