{
  "contractName": "MocVendors",
  "sourceName": "contracts/vendors/MocVendors.sol",
  "abi": [
    {
      "inputs": [],
      "stateMutability": "nonpayable",
      "type": "constructor"
    },
    {
      "inputs": [],
      "name": "DelegateRevoked",
      "type": "error"
    },
    {
      "inputs": [],
      "name": "InvalidAddress",
      "type": "error"
    },
    {
      "inputs": [],
      "name": "InvalidValue",
      "type": "error"
    },
    {
      "inputs": [],
      "name": "MarkupTooHigh",
      "type": "error"
    },
    {
      "inputs": [],
      "name": "NotAuthorizedChanger",
      "type": "error"
    },
    {
      "inputs": [
        {
          "internalType": "address",
          "name": "sender_",
          "type": "address"
        }
      ],
      "name": "NotVendorsGuardian",
      "type": "error"
    },
    {
      "inputs": [],
      "name": "NotWhenPaused",
      "type": "error"
    },
    {
      "inputs": [],
      "name": "OnlyPauser",
      "type": "error"
    },
    {
      "inputs": [],
      "name": "OnlyWhilePaused",
      "type": "error"
    },
    {
      "inputs": [],
      "name": "Unstoppable",
      "type": "error"
    },
    {
      "anonymous": false,
      "inputs": [
        {
          "indexed": false,
          "internalType": "address",
          "name": "previousAdmin",
          "type": "address"
        },
        {
          "indexed": false,
          "internalType": "address",
          "name": "newAdmin",
          "type": "address"
        }
      ],
      "name": "AdminChanged",
      "type": "event"
    },
    {
      "anonymous": false,
      "inputs": [
        {
          "indexed": true,
          "internalType": "address",
          "name": "beacon",
          "type": "address"
        }
      ],
      "name": "BeaconUpgraded",
      "type": "event"
    },
    {
      "anonymous": false,
      "inputs": [
        {
          "indexed": false,
          "internalType": "uint8",
          "name": "version",
          "type": "uint8"
        }
      ],
      "name": "Initialized",
      "type": "event"
    },
    {
      "anonymous": false,
      "inputs": [
        {
          "indexed": false,
          "internalType": "address",
          "name": "account",
          "type": "address"
        }
      ],
      "name": "Paused",
      "type": "event"
    },
    {
      "anonymous": false,
      "inputs": [
        {
          "indexed": false,
          "internalType": "address",
          "name": "account",
          "type": "address"
        }
      ],
      "name": "Unpaused",
      "type": "event"
    },
    {
      "anonymous": false,
      "inputs": [
        {
          "indexed": true,
          "internalType": "address",
          "name": "implementation",
          "type": "address"
        }
      ],
      "name": "Upgraded",
      "type": "event"
    },
    {
      "anonymous": false,
      "inputs": [
        {
          "indexed": true,
          "internalType": "address",
          "name": "vendorAddress_",
          "type": "address"
        },
        {
          "indexed": false,
          "internalType": "uint256",
          "name": "newMarkup_",
          "type": "uint256"
        }
      ],
      "name": "VendorMarkupChanged",
      "type": "event"
    },
    {
      "inputs": [],
      "name": "COOLDOWN",
      "outputs": [
        {
          "internalType": "uint128",
          "name": "",
          "type": "uint128"
        }
      ],
      "stateMutability": "view",
      "type": "function"
    },
    {
      "inputs": [
        {
          "internalType": "address",
          "name": "vendorAddress_",
          "type": "address"
        }
      ],
      "name": "_getVendorMarkup",
      "outputs": [
        {
          "internalType": "uint64",
          "name": "",
          "type": "uint64"
        }
      ],
      "stateMutability": "view",
      "type": "function"
    },
    {
      "inputs": [
        {
          "internalType": "contract IGovernor",
          "name": "newGovernor_",
          "type": "address"
        }
      ],
      "name": "changeGovernor",
      "outputs": [],
      "stateMutability": "nonpayable",
      "type": "function"
    },
    {
      "inputs": [
        {
          "internalType": "address",
          "name": "vendor",
          "type": "address"
        }
      ],
      "name": "delegateRevoked",
      "outputs": [
        {
          "internalType": "bool",
          "name": "delegateRevoked",
          "type": "bool"
        }
      ],
      "stateMutability": "view",
      "type": "function"
    },
    {
      "inputs": [],
      "name": "governor",
      "outputs": [
        {
          "internalType": "contract IGovernor",
          "name": "",
          "type": "address"
        }
      ],
      "stateMutability": "view",
      "type": "function"
    },
    {
      "inputs": [
        {
          "internalType": "address",
          "name": "vendorsGuardianAddress_",
          "type": "address"
        },
        {
          "internalType": "address",
          "name": "governorAddress_",
          "type": "address"
        },
        {
          "internalType": "address",
          "name": "pauserAddress_",
          "type": "address"
        },
        {
          "internalType": "uint256",
          "name": "maxMarkup_",
          "type": "uint256"
        }
      ],
      "name": "initialize",
      "outputs": [],
      "stateMutability": "nonpayable",
      "type": "function"
    },
    {
      "inputs": [],
      "name": "makeStoppable",
      "outputs": [],
      "stateMutability": "nonpayable",
      "type": "function"
    },
    {
      "inputs": [],
      "name": "makeUnstoppable",
      "outputs": [],
      "stateMutability": "nonpayable",
      "type": "function"
    },
    {
      "inputs": [],
      "name": "maxMarkup",
      "outputs": [
        {
          "internalType": "uint256",
          "name": "",
          "type": "uint256"
        }
      ],
      "stateMutability": "view",
      "type": "function"
    },
    {
      "inputs": [],
      "name": "pause",
      "outputs": [],
      "stateMutability": "nonpayable",
      "type": "function"
    },
    {
      "inputs": [],
      "name": "paused",
      "outputs": [
        {
          "internalType": "bool",
          "name": "",
          "type": "bool"
        }
      ],
      "stateMutability": "view",
      "type": "function"
    },
    {
      "inputs": [],
      "name": "pauser",
      "outputs": [
        {
          "internalType": "address",
          "name": "",
          "type": "address"
        }
      ],
      "stateMutability": "view",
      "type": "function"
    },
    {
      "inputs": [],
      "name": "proxiableUUID",
      "outputs": [
        {
          "internalType": "bytes32",
          "name": "",
          "type": "bytes32"
        }
      ],
      "stateMutability": "view",
      "type": "function"
    },
    {
      "inputs": [
        {
          "internalType": "uint64",
          "name": "newMarkup_",
          "type": "uint64"
        }
      ],
      "name": "setMarkup",
      "outputs": [],
      "stateMutability": "nonpayable",
      "type": "function"
    },
    {
      "inputs": [
        {
          "internalType": "uint256",
          "name": "maxMarkup_",
          "type": "uint256"
        }
      ],
      "name": "setMaxMarkup",
      "outputs": [],
      "stateMutability": "nonpayable",
      "type": "function"
    },
    {
      "inputs": [
        {
          "internalType": "address",
          "name": "newPauser_",
          "type": "address"
        }
      ],
      "name": "setPauser",
      "outputs": [],
      "stateMutability": "nonpayable",
      "type": "function"
    },
    {
      "inputs": [
        {
          "internalType": "address",
          "name": "vendorAddress_",
          "type": "address"
        },
        {
          "internalType": "uint64",
          "name": "newMarkup_",
          "type": "uint64"
        }
      ],
      "name": "setVendorMarkup",
      "outputs": [],
      "stateMutability": "nonpayable",
      "type": "function"
    },
    {
      "inputs": [
        {
          "internalType": "address",
          "name": "vendorsGuardianAddress_",
          "type": "address"
        }
      ],
      "name": "setVendorsGuardianAddress",
      "outputs": [],
      "stateMutability": "nonpayable",
      "type": "function"
    },
    {
      "inputs": [],
      "name": "stoppable",
      "outputs": [
        {
          "internalType": "bool",
          "name": "",
          "type": "bool"
        }
      ],
      "stateMutability": "view",
      "type": "function"
    },
    {
      "inputs": [],
      "name": "unpause",
      "outputs": [],
      "stateMutability": "nonpayable",
      "type": "function"
    },
    {
      "inputs": [
        {
          "internalType": "address",
          "name": "newImplementation",
          "type": "address"
        }
      ],
      "name": "upgradeTo",
      "outputs": [],
      "stateMutability": "nonpayable",
      "type": "function"
    },
    {
      "inputs": [
        {
          "internalType": "address",
          "name": "newImplementation",
          "type": "address"
        },
        {
          "internalType": "bytes",
          "name": "data",
          "type": "bytes"
        }
      ],
      "name": "upgradeToAndCall",
      "outputs": [],
      "stateMutability": "payable",
      "type": "function"
    },
    {
      "inputs": [
        {
          "internalType": "address",
          "name": "vendorAddress_",
          "type": "address"
        }
      ],
      "name": "vendorMarkup",
      "outputs": [
        {
          "internalType": "uint256",
          "name": "",
          "type": "uint256"
        }
      ],
      "stateMutability": "view",
      "type": "function"
    },
    {
      "inputs": [
        {
          "internalType": "address",
          "name": "vendor",
          "type": "address"
        }
      ],
      "name": "vendorMarkupData",
      "outputs": [
        {
          "internalType": "uint64",
          "name": "previous",
          "type": "uint64"
        },
        {
          "internalType": "uint64",
          "name": "next",
          "type": "uint64"
        },
        {
          "internalType": "uint128",
          "name": "cooldownEndTime",
          "type": "uint128"
        }
      ],
      "stateMutability": "view",
      "type": "function"
    },
    {
      "inputs": [],
      "name": "vendorsGuardianAddress",
      "outputs": [
        {
          "internalType": "address",
          "name": "",
          "type": "address"
        }
      ],
      "stateMutability": "view",
      "type": "function"
    }
  ],
  "bytecode": "0x60a080604052346100dc57306080526000549060ff8260081c1661008a575060ff8082160361004f575b6040516113ef90816100e282396080518181816107d20152818161093b0152610ac20152f35b60ff90811916176000557f7f26b83ff96e1f2b6a682f133852f6798a09c465da95921460cefb3847402498602060405160ff8152a138610029565b62461bcd60e51b815260206004820152602760248201527f496e697469616c697a61626c653a20636f6e747261637420697320696e697469604482015266616c697a696e6760c81b6064820152608490fd5b600080fdfe60406080815260048036101561001457600080fd5b6000803560e01c806305216f7214610ba65780630c340a2414610b7d5780632d88af4a14610b275780633659cfe614610a8f5780633f4ba83a146109a25780634f1ef286146108b75780635210570c1461089157806352d1902d146107be57806357dd585e1461077d5780635a542d30146107235780635c975abb146106fc5780636229fa79146106b957806364a731e914610676578063682743571461064d57806379d05ced1461062d5780638456cb591461058a57806399dc8573146105675780639fd0506d1461053a578063a2724a4d1461051d578063bb4872de146104f9578063c39a8f6a1461049f578063cf756fdf146102cb578063d6c9858b146102a1578063e4c0aaf4146102545763e65dd2681461013257600080fd5b346102515782600319360112610251576001600160a01b0382358181169485820361024d576024359267ffffffffffffffff8416840361024957602494959660208261012f54163314926097541684519788809263d994d6d560e01b8252338d8301525afa95861561023f57879661020f575b50811580610207575b6101f157816101db575b506101cc57506101c993945061122f565b80f35b51637d5b079960e11b81528590fd5b8652506101326020528085205460ff16386101b8565b82516302976a2f60e01b815233818a0152602490fd5b5085156101ae565b61023191965060203d8111610238575b6102298183610beb565b8101906110d7565b94386101a5565b503d61021f565b83513d89823e3d90fd5b8480fd5b8380fd5b80fd5b50903461029d57602036600319011261029d57356001600160a01b0381169081900361029d576102826110f4565b6bffffffffffffffffffffffff60a01b609754161760975580f35b5080fd5b50823461029d578160031936011261029d5761012f5490516001600160a01b039091168152602090f35b5091903461049b57608036600319011261049b5780356001600160a01b038181169291839003610249576024359281841680940361049757604435918216820361049757855460ff8160081c16159384809561048a575b8015610473575b156104195750600192916103a691858560ff198316178a55610408575b506bffffffffffffffffffffffff60a01b9061012f90828254161790556064356101335587549560ff8760081c169161037e83611173565b61038783611173565b61039083611173565b61039983611173565b6097541617609755611173565b60ca5490620100008360b01b039060101b169061ff018360b01b031916171760ca556103d0578280f35b61ff001916825551600181527f7f26b83ff96e1f2b6a682f133852f6798a09c465da95921460cefb384740249890602090a138808280f35b61ffff191661010117885538610346565b608490602088519162461bcd60e51b8352820152602e60248201527f496e697469616c697a61626c653a20636f6e747261637420697320616c72656160448201526d191e481a5b9a5d1a585b1a5e995960921b6064820152fd5b50303b1580156103295750600160ff831614610329565b50600160ff831610610322565b8580fd5b8280fd5b508092913461029d57602036600319011261029d573567ffffffffffffffff8116810361029d576101c9923383526101326020528220805460ff8116156104e9575b50503361122f565b60ff1916600117905538806104e1565b50823461029d578160031936011261029d5760209060ff60ca541690519015158152f35b50823461029d578160031936011261029d5760209051610e108152f35b50823461029d578160031936011261029d5760ca54905160109190911c6001600160a01b03168152602090f35b50903461029d57602036600319011261029d576105826110f4565b356101335580f35b5091903461049b578260031936011261049b5760ca549060ff8260081c1661061f57601082901c6001600160a01b031633036106115760ff821615610603575061ff0019166101001760ca55513381527f62e78cea01bee320cd4e420270b5ea74000d11b0c9f74754ebdbfc544b05a25890602090a180f35b825163866099c360e01b8152fd5b8251631d77d47760e21b8152fd5b825163783bb6c960e11b8152fd5b50823461029d578160031936011261029d57602090610133549051908152f35b50346102515780600319360112610251576106666110f4565b600160ff1960ca54161760ca5580f35b5091903461049b57602036600319011261049b5735916001600160a01b0383168303610251575067ffffffffffffffff6106b16020936111d3565b169051908152f35b5091903461049b57602036600319011261049b5735916001600160a01b0383168303610251575067ffffffffffffffff6106f46020936111d3565b915191168152f35b50823461029d578160031936011261029d5760209060ff60ca5460081c1690519015158152f35b5091903461049b57602036600319011261049b57356001600160a01b0381169081900361049b578282916060945261013160205220549080519167ffffffffffffffff808216845281831c16602084015260801c90820152f35b5091903461049b57602036600319011261049b57356001600160a01b0381169081900361049b57818360ff9260209552610132855220541690519015158152f35b5034610251578060031936011261025157507f00000000000000000000000000000000000000000000000000000000000000006001600160a01b0316300361082957602082517f360894a13ba1a3210667c828492db98dca3e2076cc3735a920a3ca505d382bbc8152f35b6020608492519162461bcd60e51b8352820152603860248201527f555550535570677261646561626c653a206d757374206e6f742062652063616c60448201527f6c6564207468726f7567682064656c656761746563616c6c00000000000000006064820152fd5b50346102515780600319360112610251576108aa6110f4565b60ff1960ca541660ca5580f35b508091838060031936011261099e5781356001600160a01b038082168203610249576024359367ffffffffffffffff85116104975736602386011215610497578401359061091061090783610c23565b94519485610beb565b8184523660248387010111610497576101c995602083610991946024600199018389013786010152807f0000000000000000000000000000000000000000000000000000000000000000169061096882301415610c3f565b7f360894a13ba1a3210667c828492db98dca3e2076cc3735a920a3ca505d382bbc541614610ca0565b6109996110f4565b610d01565b5050fd5b5091903461049b578260031936011261049b5760ca549060ff8260081c1615610a815760018060a01b03808360101c163314159081610a20575b506106115760ff821615610603575061ff00191660ca55513381527f5db9ee0a495bf2e6ff9c91a7834c1ba4fdd244a5e8aa4e537bd38aeae4b073aa90602090a180f35b609754855163d994d6d560e01b81523385820152925060209183916024918391165afa908115610a77578591610a59575b5015386109dc565b610a71915060203d8111610238576102298183610beb565b38610a51565b84513d87823e3d90fd5b8251637c7fd07960e01b8152fd5b508092913461029d57602036600319011261029d576001600160a01b03929035838116810361049b57610aef846101c9957f0000000000000000000000000000000000000000000000000000000000000000169061096882301415610c3f565b610af76110f4565b610b0c610b0384610c23565b92519283610beb565b828252601f19610b1b84610c23565b01366020840137610d01565b50903461029d57602036600319011261029d57356001600160a01b038116810361029d57610b536110f4565b60ca805462010000600160b01b03191660109290921b62010000600160b01b031691909117905580f35b50823461029d578160031936011261029d5760975490516001600160a01b039091168152602090f35b50903461029d57602036600319011261029d57356001600160a01b0381169081900361029d57610bd46110f4565b61012f80546001600160a01b031916909117905580f35b90601f8019910116810190811067ffffffffffffffff821117610c0d57604052565b634e487b7160e01b600052604160045260246000fd5b67ffffffffffffffff8111610c0d57601f01601f191660200190565b15610c4657565b60405162461bcd60e51b815260206004820152602c60248201527f46756e6374696f6e206d7573742062652063616c6c6564207468726f7567682060448201526b19195b1959d85d1958d85b1b60a21b6064820152608490fd5b15610ca757565b60405162461bcd60e51b815260206004820152602c60248201527f46756e6374696f6e206d7573742062652063616c6c6564207468726f7567682060448201526b6163746976652070726f787960a01b6064820152608490fd5b909160ff7f4910fdfa16fed3260ed0e7147f7cc6da11a60208b5b9406d12a635614ffd91435416600014610d3c5750610d3a9150610f61565b565b604080516352d1902d60e01b8152602094919392906001600160a01b038416908681600481855afa60009181610f32575b50610dcd57855162461bcd60e51b815260048101889052602e60248201527f45524331393637557067726164653a206e657720696d706c656d656e7461746960448201526d6f6e206973206e6f74205555505360901b6064820152608490fd5b9395929492937fc9f76b5ec45e5cdef99837d7b6d2467235c1df8933c8ca56df5c35afa2c7d44401610edc57610e0286610f61565b7fbc7cd75a20ee27fd9adebab32041f755214dbc6bffa90cc0225b39da2e5c2d3b600080a283511590811591610ed4575b50610e3f575b50505050565b610ec093600080610e506027610c23565b95610e5d85519788610beb565b602787527f416464726573733a206c6f772d6c6576656c2064656c65676174652063616c6c86880152660819985a5b195960ca1b858801528581519101845af4913d15610eca573d610eb1610b0382610c23565b8152600081943d92013e611003565b5038808080610e39565b5060609250611003565b905038610e33565b825162461bcd60e51b815260048101859052602960248201527f45524331393637557067726164653a20756e737570706f727465642070726f786044820152681a58589b195555525160ba1b6064820152608490fd5b90918882813d8311610f5a575b610f498183610beb565b810103126102515750519038610d6d565b503d610f3f565b803b15610fa8577f360894a13ba1a3210667c828492db98dca3e2076cc3735a920a3ca505d382bbc80546001600160a01b0319166001600160a01b03909216919091179055565b60405162461bcd60e51b815260206004820152602d60248201527f455243313936373a206e657720696d706c656d656e746174696f6e206973206e60448201526c1bdd08184818dbdb9d1c9858dd609a1b6064820152608490fd5b919290156110655750815115611017575090565b3b156110205790565b60405162461bcd60e51b815260206004820152601d60248201527f416464726573733a2063616c6c20746f206e6f6e2d636f6e74726163740000006044820152606490fd5b8251909150156110785750805190602001fd5b6040519062461bcd60e51b82528160208060048301528251908160248401526000935b8285106110be575050604492506000838284010152601f80199101168101030190fd5b848101820151868601604401529381019385935061109b565b908160209103126110ef575180151581036110ef5790565b600080fd5b60975460405163d994d6d560e01b815233600482015290602090829060249082906001600160a01b03165afa90811561116757600091611149575b501561113757565b604051631dd1b1b560e21b8152600490fd5b611161915060203d8111610238576102298183610beb565b3861112f565b6040513d6000823e3d90fd5b1561117a57565b60405162461bcd60e51b815260206004820152602b60248201527f496e697469616c697a61626c653a20636f6e7472616374206973206e6f74206960448201526a6e697469616c697a696e6760a81b6064820152608490fd5b60018060a01b03166000526101316020526040600020604051906111f8606083610beb565b54604067ffffffffffffffff928383169384825283831c169283602083015260801c918291015242101561122a575090565b905090565b610133549167ffffffffffffffff8091169283116113a757670de0b6b3a76400008310156113955760018060a01b03821693600092858452610131928360205260409485812094865195611284606088610beb565b54948386168752836112a9602089019682898c1c1688528a8a019860801c89526111d3565b16875288855215611325578694926020977f0edb810b4a4ba5ab81b2765b443d63011146e0d69f7604ea7205676bae0995b39997959367ffffffffffffffff60401b936001600160801b038042165b1687528c82528a52209451169151851b16916001600160801b0319905160801b16911717905551908152a2565b6001600160801b03610e10814216019081116113815792877f0edb810b4a4ba5ab81b2765b443d63011146e0d69f7604ea7205676bae0995b39997959367ffffffffffffffff60401b936001600160801b0360209b99976112f8565b634e487b7160e01b83526011600452602483fd5b604051632a9ffab760e21b8152600490fd5b604051636cd16edf60e11b8152600490fdfea2646970667358221220fec0067229bd34d6ea8097ae63bbf265c91e6cb04dedaa02b8fa14607434e68164736f6c63430008140033",
  "linkReferences": {},
  "deployedLinkReferences": {},
  "devdoc": {
    "events": {
      "AdminChanged(address,address)": {
        "details": "Emitted when the admin account has changed."
      },
      "BeaconUpgraded(address)": {
        "details": "Emitted when the beacon is changed."
      },
      "Initialized(uint8)": {
        "details": "Triggered when the contract has been initialized or reinitialized."
      },
      "Upgraded(address)": {
        "details": "Emitted when the implementation is upgraded."
      }
    },
    "kind": "dev",
    "methods": {
      "_getVendorMarkup(address)": {
        "params": {
          "vendorAddress_": "vendor address to get markup"
        },
        "returns": {
          "_0": "markup percentage to apply [PREC]"
        }
      },
      "changeGovernor(address)": {
        "params": {
          "newGovernor_": "New governor address"
        }
      },
      "constructor": {
        "custom:oz-upgrades-unsafe-allow": "constructor"
      },
      "initialize(address,address,address,uint256)": {
        "params": {
          "governorAddress_": "The address that will define when a change contract is authorized",
          "maxMarkup_": "Max markup percentage allowed [PREC]",
          "pauserAddress_": "The address that is authorized to pause this contract",
          "vendorsGuardianAddress_": "The address authorized to change a vendor's markup"
        }
      },
      "makeStoppable()": {
        "details": "Should be called through governance"
      },
      "makeUnstoppable()": {
        "details": "Should be called through governance"
      },
      "pause()": {
        "details": "Should only be called by the pauser and when it is stoppable"
      },
      "proxiableUUID()": {
        "details": "Implementation of the ERC1822 {proxiableUUID} function. This returns the storage slot used by the implementation. It is used to validate the implementation's compatibility when performing an upgrade. IMPORTANT: A proxy pointing at a proxiable contract should not be considered proxiable itself, because this risks bricking a proxy that upgrades to it, by delegating to itself until out of gas. Thus it is critical that this function revert if invoked through a proxy. This is guaranteed by the `notDelegated` modifier."
      },
      "setMarkup(uint64)": {
        "details": "revokes the delegate for the vendors guardian to set the markup",
        "params": {
          "newMarkup_": "new markup applied to vendor [PREC]"
        }
      },
      "setMaxMarkup(uint256)": {
        "details": "Sets the max markup percentage allowed.",
        "params": {
          "maxMarkup_": "Max markup percentage allowed [PREC]."
        }
      },
      "setPauser(address)": {
        "details": "Should be called through governance",
        "params": {
          "newPauser_": "Address of the new pauser"
        }
      },
      "setVendorMarkup(address,uint64)": {
        "details": "governor or vendors guardian can set a vendor markup.  Changer updates are applied instantly, while vendors guardian updates use cooldown.  If the vendor has already revoked the delegate for the vendors guardian, it won't be able to set a new markup.",
        "params": {
          "newMarkup_": "new markup applied to vendor [PREC]",
          "vendorAddress_": "vendor address to change markup"
        }
      },
      "setVendorsGuardianAddress(address)": {
        "details": "Sets the address which will be authorized to set a vendor markup.",
        "params": {
          "vendorsGuardianAddress_": "Address which will be authorized to set a vendor markup."
        }
      },
      "unpause()": {
        "details": "Should only be called by the pauser and when it is stoppable"
      },
      "upgradeTo(address)": {
        "custom:oz-upgrades-unsafe-allow-reachable": "delegatecall",
        "details": "Upgrade the implementation of the proxy to `newImplementation`. Calls {_authorizeUpgrade}. Emits an {Upgraded} event."
      },
      "upgradeToAndCall(address,bytes)": {
        "custom:oz-upgrades-unsafe-allow-reachable": "delegatecall",
        "details": "Upgrade the implementation of the proxy to `newImplementation`, and subsequently execute the function call encoded in `data`. Calls {_authorizeUpgrade}. Emits an {Upgraded} event."
      },
      "vendorMarkup(address)": {
        "params": {
          "vendorAddress_": "vendor address to get markup"
        },
        "returns": {
          "_0": "markup percentage to apply [PREC]"
        }
      }
    },
    "stateVariables": {
      "__gap": {
        "details": "This empty reserved space is put in place to allow future versions to add new variables without shifting down storage in the inheritance chain. See https://docs.openzeppelin.com/contracts/4.x/upgradeable#storage_gaps"
      }
    },
    "title": "MocVendors",
    "version": 1
  },
  "evm": {
    "bytecode": {
      "linkReferences": {},
      "opcodes": "PUSH1 0xA0 DUP1 PUSH1 0x40 MSTORE CALLVALUE PUSH2 0xDC JUMPI ADDRESS PUSH1 0x80 MSTORE PUSH1 0x0 SLOAD SWAP1 PUSH1 0xFF DUP3 PUSH1 0x8 SHR AND PUSH2 0x8A JUMPI POP PUSH1 0xFF DUP1 DUP3 AND SUB PUSH2 0x4F JUMPI JUMPDEST PUSH1 0x40 MLOAD PUSH2 0x13EF SWAP1 DUP2 PUSH2 0xE2 DUP3 CODECOPY PUSH1 0x80 MLOAD DUP2 DUP2 DUP2 PUSH2 0x7D2 ADD MSTORE DUP2 DUP2 PUSH2 0x93B ADD MSTORE PUSH2 0xAC2 ADD MSTORE RETURN JUMPDEST PUSH1 0xFF SWAP1 DUP2 NOT AND OR PUSH1 0x0 SSTORE PUSH32 0x7F26B83FF96E1F2B6A682F133852F6798A09C465DA95921460CEFB3847402498 PUSH1 0x20 PUSH1 0x40 MLOAD PUSH1 0xFF DUP2 MSTORE LOG1 CODESIZE PUSH2 0x29 JUMP JUMPDEST PUSH3 0x461BCD PUSH1 0xE5 SHL DUP2 MSTORE PUSH1 0x20 PUSH1 0x4 DUP3 ADD MSTORE PUSH1 0x27 PUSH1 0x24 DUP3 ADD MSTORE PUSH32 0x496E697469616C697A61626C653A20636F6E747261637420697320696E697469 PUSH1 0x44 DUP3 ADD MSTORE PUSH7 0x616C697A696E67 PUSH1 0xC8 SHL PUSH1 0x64 DUP3 ADD MSTORE PUSH1 0x84 SWAP1 REVERT JUMPDEST PUSH1 0x0 DUP1 REVERT INVALID PUSH1 0x40 PUSH1 0x80 DUP2 MSTORE PUSH1 0x4 DUP1 CALLDATASIZE LT ISZERO PUSH2 0x14 JUMPI PUSH1 0x0 DUP1 REVERT JUMPDEST PUSH1 0x0 DUP1 CALLDATALOAD PUSH1 0xE0 SHR DUP1 PUSH4 0x5216F72 EQ PUSH2 0xBA6 JUMPI DUP1 PUSH4 0xC340A24 EQ PUSH2 0xB7D JUMPI DUP1 PUSH4 0x2D88AF4A EQ PUSH2 0xB27 JUMPI DUP1 PUSH4 0x3659CFE6 EQ PUSH2 0xA8F JUMPI DUP1 PUSH4 0x3F4BA83A EQ PUSH2 0x9A2 JUMPI DUP1 PUSH4 0x4F1EF286 EQ PUSH2 0x8B7 JUMPI DUP1 PUSH4 0x5210570C EQ PUSH2 0x891 JUMPI DUP1 PUSH4 0x52D1902D EQ PUSH2 0x7BE JUMPI DUP1 PUSH4 0x57DD585E EQ PUSH2 0x77D JUMPI DUP1 PUSH4 0x5A542D30 EQ PUSH2 0x723 JUMPI DUP1 PUSH4 0x5C975ABB EQ PUSH2 0x6FC JUMPI DUP1 PUSH4 0x6229FA79 EQ PUSH2 0x6B9 JUMPI DUP1 PUSH4 0x64A731E9 EQ PUSH2 0x676 JUMPI DUP1 PUSH4 0x68274357 EQ PUSH2 0x64D JUMPI DUP1 PUSH4 0x79D05CED EQ PUSH2 0x62D JUMPI DUP1 PUSH4 0x8456CB59 EQ PUSH2 0x58A JUMPI DUP1 PUSH4 0x99DC8573 EQ PUSH2 0x567 JUMPI DUP1 PUSH4 0x9FD0506D EQ PUSH2 0x53A JUMPI DUP1 PUSH4 0xA2724A4D EQ PUSH2 0x51D JUMPI DUP1 PUSH4 0xBB4872DE EQ PUSH2 0x4F9 JUMPI DUP1 PUSH4 0xC39A8F6A EQ PUSH2 0x49F JUMPI DUP1 PUSH4 0xCF756FDF EQ PUSH2 0x2CB JUMPI DUP1 PUSH4 0xD6C9858B EQ PUSH2 0x2A1 JUMPI DUP1 PUSH4 0xE4C0AAF4 EQ PUSH2 0x254 JUMPI PUSH4 0xE65DD268 EQ PUSH2 0x132 JUMPI PUSH1 0x0 DUP1 REVERT JUMPDEST CALLVALUE PUSH2 0x251 JUMPI DUP3 PUSH1 0x3 NOT CALLDATASIZE ADD SLT PUSH2 0x251 JUMPI PUSH1 0x1 PUSH1 0x1 PUSH1 0xA0 SHL SUB DUP3 CALLDATALOAD DUP2 DUP2 AND SWAP5 DUP6 DUP3 SUB PUSH2 0x24D JUMPI PUSH1 0x24 CALLDATALOAD SWAP3 PUSH8 0xFFFFFFFFFFFFFFFF DUP5 AND DUP5 SUB PUSH2 0x249 JUMPI PUSH1 0x24 SWAP5 SWAP6 SWAP7 PUSH1 0x20 DUP3 PUSH2 0x12F SLOAD AND CALLER EQ SWAP3 PUSH1 0x97 SLOAD AND DUP5 MLOAD SWAP8 DUP9 DUP1 SWAP3 PUSH4 0xD994D6D5 PUSH1 0xE0 SHL DUP3 MSTORE CALLER DUP14 DUP4 ADD MSTORE GAS STATICCALL SWAP6 DUP7 ISZERO PUSH2 0x23F JUMPI DUP8 SWAP7 PUSH2 0x20F JUMPI JUMPDEST POP DUP2 ISZERO DUP1 PUSH2 0x207 JUMPI JUMPDEST PUSH2 0x1F1 JUMPI DUP2 PUSH2 0x1DB JUMPI JUMPDEST POP PUSH2 0x1CC JUMPI POP PUSH2 0x1C9 SWAP4 SWAP5 POP PUSH2 0x122F JUMP JUMPDEST DUP1 RETURN JUMPDEST MLOAD PUSH4 0x7D5B0799 PUSH1 0xE1 SHL DUP2 MSTORE DUP6 SWAP1 REVERT JUMPDEST DUP7 MSTORE POP PUSH2 0x132 PUSH1 0x20 MSTORE DUP1 DUP6 KECCAK256 SLOAD PUSH1 0xFF AND CODESIZE PUSH2 0x1B8 JUMP JUMPDEST DUP3 MLOAD PUSH4 0x2976A2F PUSH1 0xE0 SHL DUP2 MSTORE CALLER DUP2 DUP11 ADD MSTORE PUSH1 0x24 SWAP1 REVERT JUMPDEST POP DUP6 ISZERO PUSH2 0x1AE JUMP JUMPDEST PUSH2 0x231 SWAP2 SWAP7 POP PUSH1 0x20 RETURNDATASIZE DUP2 GT PUSH2 0x238 JUMPI JUMPDEST PUSH2 0x229 DUP2 DUP4 PUSH2 0xBEB JUMP JUMPDEST DUP2 ADD SWAP1 PUSH2 0x10D7 JUMP JUMPDEST SWAP5 CODESIZE PUSH2 0x1A5 JUMP JUMPDEST POP RETURNDATASIZE PUSH2 0x21F JUMP JUMPDEST DUP4 MLOAD RETURNDATASIZE DUP10 DUP3 RETURNDATACOPY RETURNDATASIZE SWAP1 REVERT JUMPDEST DUP5 DUP1 REVERT JUMPDEST DUP4 DUP1 REVERT JUMPDEST DUP1 REVERT JUMPDEST POP SWAP1 CALLVALUE PUSH2 0x29D JUMPI PUSH1 0x20 CALLDATASIZE PUSH1 0x3 NOT ADD SLT PUSH2 0x29D JUMPI CALLDATALOAD PUSH1 0x1 PUSH1 0x1 PUSH1 0xA0 SHL SUB DUP2 AND SWAP1 DUP2 SWAP1 SUB PUSH2 0x29D JUMPI PUSH2 0x282 PUSH2 0x10F4 JUMP JUMPDEST PUSH12 0xFFFFFFFFFFFFFFFFFFFFFFFF PUSH1 0xA0 SHL PUSH1 0x97 SLOAD AND OR PUSH1 0x97 SSTORE DUP1 RETURN JUMPDEST POP DUP1 REVERT JUMPDEST POP DUP3 CALLVALUE PUSH2 0x29D JUMPI DUP2 PUSH1 0x3 NOT CALLDATASIZE ADD SLT PUSH2 0x29D JUMPI PUSH2 0x12F SLOAD SWAP1 MLOAD PUSH1 0x1 PUSH1 0x1 PUSH1 0xA0 SHL SUB SWAP1 SWAP2 AND DUP2 MSTORE PUSH1 0x20 SWAP1 RETURN JUMPDEST POP SWAP2 SWAP1 CALLVALUE PUSH2 0x49B JUMPI PUSH1 0x80 CALLDATASIZE PUSH1 0x3 NOT ADD SLT PUSH2 0x49B JUMPI DUP1 CALLDATALOAD PUSH1 0x1 PUSH1 0x1 PUSH1 0xA0 SHL SUB DUP2 DUP2 AND SWAP3 SWAP2 DUP4 SWAP1 SUB PUSH2 0x249 JUMPI PUSH1 0x24 CALLDATALOAD SWAP3 DUP2 DUP5 AND DUP1 SWAP5 SUB PUSH2 0x497 JUMPI PUSH1 0x44 CALLDATALOAD SWAP2 DUP3 AND DUP3 SUB PUSH2 0x497 JUMPI DUP6 SLOAD PUSH1 0xFF DUP2 PUSH1 0x8 SHR AND ISZERO SWAP4 DUP5 DUP1 SWAP6 PUSH2 0x48A JUMPI JUMPDEST DUP1 ISZERO PUSH2 0x473 JUMPI JUMPDEST ISZERO PUSH2 0x419 JUMPI POP PUSH1 0x1 SWAP3 SWAP2 PUSH2 0x3A6 SWAP2 DUP6 DUP6 PUSH1 0xFF NOT DUP4 AND OR DUP11 SSTORE PUSH2 0x408 JUMPI JUMPDEST POP PUSH12 0xFFFFFFFFFFFFFFFFFFFFFFFF PUSH1 0xA0 SHL SWAP1 PUSH2 0x12F SWAP1 DUP3 DUP3 SLOAD AND OR SWAP1 SSTORE PUSH1 0x64 CALLDATALOAD PUSH2 0x133 SSTORE DUP8 SLOAD SWAP6 PUSH1 0xFF DUP8 PUSH1 0x8 SHR AND SWAP2 PUSH2 0x37E DUP4 PUSH2 0x1173 JUMP JUMPDEST PUSH2 0x387 DUP4 PUSH2 0x1173 JUMP JUMPDEST PUSH2 0x390 DUP4 PUSH2 0x1173 JUMP JUMPDEST PUSH2 0x399 DUP4 PUSH2 0x1173 JUMP JUMPDEST PUSH1 0x97 SLOAD AND OR PUSH1 0x97 SSTORE PUSH2 0x1173 JUMP JUMPDEST PUSH1 0xCA SLOAD SWAP1 PUSH3 0x10000 DUP4 PUSH1 0xB0 SHL SUB SWAP1 PUSH1 0x10 SHL AND SWAP1 PUSH2 0xFF01 DUP4 PUSH1 0xB0 SHL SUB NOT AND OR OR PUSH1 0xCA SSTORE PUSH2 0x3D0 JUMPI DUP3 DUP1 RETURN JUMPDEST PUSH2 0xFF00 NOT AND DUP3 SSTORE MLOAD PUSH1 0x1 DUP2 MSTORE PUSH32 0x7F26B83FF96E1F2B6A682F133852F6798A09C465DA95921460CEFB3847402498 SWAP1 PUSH1 0x20 SWAP1 LOG1 CODESIZE DUP1 DUP3 DUP1 RETURN JUMPDEST PUSH2 0xFFFF NOT AND PUSH2 0x101 OR DUP9 SSTORE CODESIZE PUSH2 0x346 JUMP JUMPDEST PUSH1 0x84 SWAP1 PUSH1 0x20 DUP9 MLOAD SWAP2 PUSH3 0x461BCD PUSH1 0xE5 SHL DUP4 MSTORE DUP3 ADD MSTORE PUSH1 0x2E PUSH1 0x24 DUP3 ADD MSTORE PUSH32 0x496E697469616C697A61626C653A20636F6E747261637420697320616C726561 PUSH1 0x44 DUP3 ADD MSTORE PUSH14 0x191E481A5B9A5D1A585B1A5E9959 PUSH1 0x92 SHL PUSH1 0x64 DUP3 ADD MSTORE REVERT JUMPDEST POP ADDRESS EXTCODESIZE ISZERO DUP1 ISZERO PUSH2 0x329 JUMPI POP PUSH1 0x1 PUSH1 0xFF DUP4 AND EQ PUSH2 0x329 JUMP JUMPDEST POP PUSH1 0x1 PUSH1 0xFF DUP4 AND LT PUSH2 0x322 JUMP JUMPDEST DUP6 DUP1 REVERT JUMPDEST DUP3 DUP1 REVERT JUMPDEST POP DUP1 SWAP3 SWAP2 CALLVALUE PUSH2 0x29D JUMPI PUSH1 0x20 CALLDATASIZE PUSH1 0x3 NOT ADD SLT PUSH2 0x29D JUMPI CALLDATALOAD PUSH8 0xFFFFFFFFFFFFFFFF DUP2 AND DUP2 SUB PUSH2 0x29D JUMPI PUSH2 0x1C9 SWAP3 CALLER DUP4 MSTORE PUSH2 0x132 PUSH1 0x20 MSTORE DUP3 KECCAK256 DUP1 SLOAD PUSH1 0xFF DUP2 AND ISZERO PUSH2 0x4E9 JUMPI JUMPDEST POP POP CALLER PUSH2 0x122F JUMP JUMPDEST PUSH1 0xFF NOT AND PUSH1 0x1 OR SWAP1 SSTORE CODESIZE DUP1 PUSH2 0x4E1 JUMP JUMPDEST POP DUP3 CALLVALUE PUSH2 0x29D JUMPI DUP2 PUSH1 0x3 NOT CALLDATASIZE ADD SLT PUSH2 0x29D JUMPI PUSH1 0x20 SWAP1 PUSH1 0xFF PUSH1 0xCA SLOAD AND SWAP1 MLOAD SWAP1 ISZERO ISZERO DUP2 MSTORE RETURN JUMPDEST POP DUP3 CALLVALUE PUSH2 0x29D JUMPI DUP2 PUSH1 0x3 NOT CALLDATASIZE ADD SLT PUSH2 0x29D JUMPI PUSH1 0x20 SWAP1 MLOAD PUSH2 0xE10 DUP2 MSTORE RETURN JUMPDEST POP DUP3 CALLVALUE PUSH2 0x29D JUMPI DUP2 PUSH1 0x3 NOT CALLDATASIZE ADD SLT PUSH2 0x29D JUMPI PUSH1 0xCA SLOAD SWAP1 MLOAD PUSH1 0x10 SWAP2 SWAP1 SWAP2 SHR PUSH1 0x1 PUSH1 0x1 PUSH1 0xA0 SHL SUB AND DUP2 MSTORE PUSH1 0x20 SWAP1 RETURN JUMPDEST POP SWAP1 CALLVALUE PUSH2 0x29D JUMPI PUSH1 0x20 CALLDATASIZE PUSH1 0x3 NOT ADD SLT PUSH2 0x29D JUMPI PUSH2 0x582 PUSH2 0x10F4 JUMP JUMPDEST CALLDATALOAD PUSH2 0x133 SSTORE DUP1 RETURN JUMPDEST POP SWAP2 SWAP1 CALLVALUE PUSH2 0x49B JUMPI DUP3 PUSH1 0x3 NOT CALLDATASIZE ADD SLT PUSH2 0x49B JUMPI PUSH1 0xCA SLOAD SWAP1 PUSH1 0xFF DUP3 PUSH1 0x8 SHR AND PUSH2 0x61F JUMPI PUSH1 0x10 DUP3 SWAP1 SHR PUSH1 0x1 PUSH1 0x1 PUSH1 0xA0 SHL SUB AND CALLER SUB PUSH2 0x611 JUMPI PUSH1 0xFF DUP3 AND ISZERO PUSH2 0x603 JUMPI POP PUSH2 0xFF00 NOT AND PUSH2 0x100 OR PUSH1 0xCA SSTORE MLOAD CALLER DUP2 MSTORE PUSH32 0x62E78CEA01BEE320CD4E420270B5EA74000D11B0C9F74754EBDBFC544B05A258 SWAP1 PUSH1 0x20 SWAP1 LOG1 DUP1 RETURN JUMPDEST DUP3 MLOAD PUSH4 0x866099C3 PUSH1 0xE0 SHL DUP2 MSTORE REVERT JUMPDEST DUP3 MLOAD PUSH4 0x1D77D477 PUSH1 0xE2 SHL DUP2 MSTORE REVERT JUMPDEST DUP3 MLOAD PUSH4 0x783BB6C9 PUSH1 0xE1 SHL DUP2 MSTORE REVERT JUMPDEST POP DUP3 CALLVALUE PUSH2 0x29D JUMPI DUP2 PUSH1 0x3 NOT CALLDATASIZE ADD SLT PUSH2 0x29D JUMPI PUSH1 0x20 SWAP1 PUSH2 0x133 SLOAD SWAP1 MLOAD SWAP1 DUP2 MSTORE RETURN JUMPDEST POP CALLVALUE PUSH2 0x251 JUMPI DUP1 PUSH1 0x3 NOT CALLDATASIZE ADD SLT PUSH2 0x251 JUMPI PUSH2 0x666 PUSH2 0x10F4 JUMP JUMPDEST PUSH1 0x1 PUSH1 0xFF NOT PUSH1 0xCA SLOAD AND OR PUSH1 0xCA SSTORE DUP1 RETURN JUMPDEST POP SWAP2 SWAP1 CALLVALUE PUSH2 0x49B JUMPI PUSH1 0x20 CALLDATASIZE PUSH1 0x3 NOT ADD SLT PUSH2 0x49B JUMPI CALLDATALOAD SWAP2 PUSH1 0x1 PUSH1 0x1 PUSH1 0xA0 SHL SUB DUP4 AND DUP4 SUB PUSH2 0x251 JUMPI POP PUSH8 0xFFFFFFFFFFFFFFFF PUSH2 0x6B1 PUSH1 0x20 SWAP4 PUSH2 0x11D3 JUMP JUMPDEST AND SWAP1 MLOAD SWAP1 DUP2 MSTORE RETURN JUMPDEST POP SWAP2 SWAP1 CALLVALUE PUSH2 0x49B JUMPI PUSH1 0x20 CALLDATASIZE PUSH1 0x3 NOT ADD SLT PUSH2 0x49B JUMPI CALLDATALOAD SWAP2 PUSH1 0x1 PUSH1 0x1 PUSH1 0xA0 SHL SUB DUP4 AND DUP4 SUB PUSH2 0x251 JUMPI POP PUSH8 0xFFFFFFFFFFFFFFFF PUSH2 0x6F4 PUSH1 0x20 SWAP4 PUSH2 0x11D3 JUMP JUMPDEST SWAP2 MLOAD SWAP2 AND DUP2 MSTORE RETURN JUMPDEST POP DUP3 CALLVALUE PUSH2 0x29D JUMPI DUP2 PUSH1 0x3 NOT CALLDATASIZE ADD SLT PUSH2 0x29D JUMPI PUSH1 0x20 SWAP1 PUSH1 0xFF PUSH1 0xCA SLOAD PUSH1 0x8 SHR AND SWAP1 MLOAD SWAP1 ISZERO ISZERO DUP2 MSTORE RETURN JUMPDEST POP SWAP2 SWAP1 CALLVALUE PUSH2 0x49B JUMPI PUSH1 0x20 CALLDATASIZE PUSH1 0x3 NOT ADD SLT PUSH2 0x49B JUMPI CALLDATALOAD PUSH1 0x1 PUSH1 0x1 PUSH1 0xA0 SHL SUB DUP2 AND SWAP1 DUP2 SWAP1 SUB PUSH2 0x49B JUMPI DUP3 DUP3 SWAP2 PUSH1 0x60 SWAP5 MSTORE PUSH2 0x131 PUSH1 0x20 MSTORE KECCAK256 SLOAD SWAP1 DUP1 MLOAD SWAP2 PUSH8 0xFFFFFFFFFFFFFFFF DUP1 DUP3 AND DUP5 MSTORE DUP2 DUP4 SHR AND PUSH1 0x20 DUP5 ADD MSTORE PUSH1 0x80 SHR SWAP1 DUP3 ADD MSTORE RETURN JUMPDEST POP SWAP2 SWAP1 CALLVALUE PUSH2 0x49B JUMPI PUSH1 0x20 CALLDATASIZE PUSH1 0x3 NOT ADD SLT PUSH2 0x49B JUMPI CALLDATALOAD PUSH1 0x1 PUSH1 0x1 PUSH1 0xA0 SHL SUB DUP2 AND SWAP1 DUP2 SWAP1 SUB PUSH2 0x49B JUMPI DUP2 DUP4 PUSH1 0xFF SWAP3 PUSH1 0x20 SWAP6 MSTORE PUSH2 0x132 DUP6 MSTORE KECCAK256 SLOAD AND SWAP1 MLOAD SWAP1 ISZERO ISZERO DUP2 MSTORE RETURN JUMPDEST POP CALLVALUE PUSH2 0x251 JUMPI DUP1 PUSH1 0x3 NOT CALLDATASIZE ADD SLT PUSH2 0x251 JUMPI POP PUSH32 0x0 PUSH1 0x1 PUSH1 0x1 PUSH1 0xA0 SHL SUB AND ADDRESS SUB PUSH2 0x829 JUMPI PUSH1 0x20 DUP3 MLOAD PUSH32 0x360894A13BA1A3210667C828492DB98DCA3E2076CC3735A920A3CA505D382BBC DUP2 MSTORE RETURN JUMPDEST PUSH1 0x20 PUSH1 0x84 SWAP3 MLOAD SWAP2 PUSH3 0x461BCD PUSH1 0xE5 SHL DUP4 MSTORE DUP3 ADD MSTORE PUSH1 0x38 PUSH1 0x24 DUP3 ADD MSTORE PUSH32 0x555550535570677261646561626C653A206D757374206E6F742062652063616C PUSH1 0x44 DUP3 ADD MSTORE PUSH32 0x6C6564207468726F7567682064656C656761746563616C6C0000000000000000 PUSH1 0x64 DUP3 ADD MSTORE REVERT JUMPDEST POP CALLVALUE PUSH2 0x251 JUMPI DUP1 PUSH1 0x3 NOT CALLDATASIZE ADD SLT PUSH2 0x251 JUMPI PUSH2 0x8AA PUSH2 0x10F4 JUMP JUMPDEST PUSH1 0xFF NOT PUSH1 0xCA SLOAD AND PUSH1 0xCA SSTORE DUP1 RETURN JUMPDEST POP DUP1 SWAP2 DUP4 DUP1 PUSH1 0x3 NOT CALLDATASIZE ADD SLT PUSH2 0x99E JUMPI DUP2 CALLDATALOAD PUSH1 0x1 PUSH1 0x1 PUSH1 0xA0 SHL SUB DUP1 DUP3 AND DUP3 SUB PUSH2 0x249 JUMPI PUSH1 0x24 CALLDATALOAD SWAP4 PUSH8 0xFFFFFFFFFFFFFFFF DUP6 GT PUSH2 0x497 JUMPI CALLDATASIZE PUSH1 0x23 DUP7 ADD SLT ISZERO PUSH2 0x497 JUMPI DUP5 ADD CALLDATALOAD SWAP1 PUSH2 0x910 PUSH2 0x907 DUP4 PUSH2 0xC23 JUMP JUMPDEST SWAP5 MLOAD SWAP5 DUP6 PUSH2 0xBEB JUMP JUMPDEST DUP2 DUP5 MSTORE CALLDATASIZE PUSH1 0x24 DUP4 DUP8 ADD ADD GT PUSH2 0x497 JUMPI PUSH2 0x1C9 SWAP6 PUSH1 0x20 DUP4 PUSH2 0x991 SWAP5 PUSH1 0x24 PUSH1 0x1 SWAP10 ADD DUP4 DUP10 ADD CALLDATACOPY DUP7 ADD ADD MSTORE DUP1 PUSH32 0x0 AND SWAP1 PUSH2 0x968 DUP3 ADDRESS EQ ISZERO PUSH2 0xC3F JUMP JUMPDEST PUSH32 0x360894A13BA1A3210667C828492DB98DCA3E2076CC3735A920A3CA505D382BBC SLOAD AND EQ PUSH2 0xCA0 JUMP JUMPDEST PUSH2 0x999 PUSH2 0x10F4 JUMP JUMPDEST PUSH2 0xD01 JUMP JUMPDEST POP POP REVERT JUMPDEST POP SWAP2 SWAP1 CALLVALUE PUSH2 0x49B JUMPI DUP3 PUSH1 0x3 NOT CALLDATASIZE ADD SLT PUSH2 0x49B JUMPI PUSH1 0xCA SLOAD SWAP1 PUSH1 0xFF DUP3 PUSH1 0x8 SHR AND ISZERO PUSH2 0xA81 JUMPI PUSH1 0x1 DUP1 PUSH1 0xA0 SHL SUB DUP1 DUP4 PUSH1 0x10 SHR AND CALLER EQ ISZERO SWAP1 DUP2 PUSH2 0xA20 JUMPI JUMPDEST POP PUSH2 0x611 JUMPI PUSH1 0xFF DUP3 AND ISZERO PUSH2 0x603 JUMPI POP PUSH2 0xFF00 NOT AND PUSH1 0xCA SSTORE MLOAD CALLER DUP2 MSTORE PUSH32 0x5DB9EE0A495BF2E6FF9C91A7834C1BA4FDD244A5E8AA4E537BD38AEAE4B073AA SWAP1 PUSH1 0x20 SWAP1 LOG1 DUP1 RETURN JUMPDEST PUSH1 0x97 SLOAD DUP6 MLOAD PUSH4 0xD994D6D5 PUSH1 0xE0 SHL DUP2 MSTORE CALLER DUP6 DUP3 ADD MSTORE SWAP3 POP PUSH1 0x20 SWAP2 DUP4 SWAP2 PUSH1 0x24 SWAP2 DUP4 SWAP2 AND GAS STATICCALL SWAP1 DUP2 ISZERO PUSH2 0xA77 JUMPI DUP6 SWAP2 PUSH2 0xA59 JUMPI JUMPDEST POP ISZERO CODESIZE PUSH2 0x9DC JUMP JUMPDEST PUSH2 0xA71 SWAP2 POP PUSH1 0x20 RETURNDATASIZE DUP2 GT PUSH2 0x238 JUMPI PUSH2 0x229 DUP2 DUP4 PUSH2 0xBEB JUMP JUMPDEST CODESIZE PUSH2 0xA51 JUMP JUMPDEST DUP5 MLOAD RETURNDATASIZE DUP8 DUP3 RETURNDATACOPY RETURNDATASIZE SWAP1 REVERT JUMPDEST DUP3 MLOAD PUSH4 0x7C7FD079 PUSH1 0xE0 SHL DUP2 MSTORE REVERT JUMPDEST POP DUP1 SWAP3 SWAP2 CALLVALUE PUSH2 0x29D JUMPI PUSH1 0x20 CALLDATASIZE PUSH1 0x3 NOT ADD SLT PUSH2 0x29D JUMPI PUSH1 0x1 PUSH1 0x1 PUSH1 0xA0 SHL SUB SWAP3 SWAP1 CALLDATALOAD DUP4 DUP2 AND DUP2 SUB PUSH2 0x49B JUMPI PUSH2 0xAEF DUP5 PUSH2 0x1C9 SWAP6 PUSH32 0x0 AND SWAP1 PUSH2 0x968 DUP3 ADDRESS EQ ISZERO PUSH2 0xC3F JUMP JUMPDEST PUSH2 0xAF7 PUSH2 0x10F4 JUMP JUMPDEST PUSH2 0xB0C PUSH2 0xB03 DUP5 PUSH2 0xC23 JUMP JUMPDEST SWAP3 MLOAD SWAP3 DUP4 PUSH2 0xBEB JUMP JUMPDEST DUP3 DUP3 MSTORE PUSH1 0x1F NOT PUSH2 0xB1B DUP5 PUSH2 0xC23 JUMP JUMPDEST ADD CALLDATASIZE PUSH1 0x20 DUP5 ADD CALLDATACOPY PUSH2 0xD01 JUMP JUMPDEST POP SWAP1 CALLVALUE PUSH2 0x29D JUMPI PUSH1 0x20 CALLDATASIZE PUSH1 0x3 NOT ADD SLT PUSH2 0x29D JUMPI CALLDATALOAD PUSH1 0x1 PUSH1 0x1 PUSH1 0xA0 SHL SUB DUP2 AND DUP2 SUB PUSH2 0x29D JUMPI PUSH2 0xB53 PUSH2 0x10F4 JUMP JUMPDEST PUSH1 0xCA DUP1 SLOAD PUSH3 0x10000 PUSH1 0x1 PUSH1 0xB0 SHL SUB NOT AND PUSH1 0x10 SWAP3 SWAP1 SWAP3 SHL PUSH3 0x10000 PUSH1 0x1 PUSH1 0xB0 SHL SUB AND SWAP2 SWAP1 SWAP2 OR SWAP1 SSTORE DUP1 RETURN JUMPDEST POP DUP3 CALLVALUE PUSH2 0x29D JUMPI DUP2 PUSH1 0x3 NOT CALLDATASIZE ADD SLT PUSH2 0x29D JUMPI PUSH1 0x97 SLOAD SWAP1 MLOAD PUSH1 0x1 PUSH1 0x1 PUSH1 0xA0 SHL SUB SWAP1 SWAP2 AND DUP2 MSTORE PUSH1 0x20 SWAP1 RETURN JUMPDEST POP SWAP1 CALLVALUE PUSH2 0x29D JUMPI PUSH1 0x20 CALLDATASIZE PUSH1 0x3 NOT ADD SLT PUSH2 0x29D JUMPI CALLDATALOAD PUSH1 0x1 PUSH1 0x1 PUSH1 0xA0 SHL SUB DUP2 AND SWAP1 DUP2 SWAP1 SUB PUSH2 0x29D JUMPI PUSH2 0xBD4 PUSH2 0x10F4 JUMP JUMPDEST PUSH2 0x12F DUP1 SLOAD PUSH1 0x1 PUSH1 0x1 PUSH1 0xA0 SHL SUB NOT AND SWAP1 SWAP2 OR SWAP1 SSTORE DUP1 RETURN JUMPDEST SWAP1 PUSH1 0x1F DUP1 NOT SWAP2 ADD AND DUP2 ADD SWAP1 DUP2 LT PUSH8 0xFFFFFFFFFFFFFFFF DUP3 GT OR PUSH2 0xC0D JUMPI PUSH1 0x40 MSTORE JUMP JUMPDEST PUSH4 0x4E487B71 PUSH1 0xE0 SHL PUSH1 0x0 MSTORE PUSH1 0x41 PUSH1 0x4 MSTORE PUSH1 0x24 PUSH1 0x0 REVERT JUMPDEST PUSH8 0xFFFFFFFFFFFFFFFF DUP2 GT PUSH2 0xC0D JUMPI PUSH1 0x1F ADD PUSH1 0x1F NOT AND PUSH1 0x20 ADD SWAP1 JUMP JUMPDEST ISZERO PUSH2 0xC46 JUMPI JUMP JUMPDEST PUSH1 0x40 MLOAD PUSH3 0x461BCD PUSH1 0xE5 SHL DUP2 MSTORE PUSH1 0x20 PUSH1 0x4 DUP3 ADD MSTORE PUSH1 0x2C PUSH1 0x24 DUP3 ADD MSTORE PUSH32 0x46756E6374696F6E206D7573742062652063616C6C6564207468726F75676820 PUSH1 0x44 DUP3 ADD MSTORE PUSH12 0x19195B1959D85D1958D85B1B PUSH1 0xA2 SHL PUSH1 0x64 DUP3 ADD MSTORE PUSH1 0x84 SWAP1 REVERT JUMPDEST ISZERO PUSH2 0xCA7 JUMPI JUMP JUMPDEST PUSH1 0x40 MLOAD PUSH3 0x461BCD PUSH1 0xE5 SHL DUP2 MSTORE PUSH1 0x20 PUSH1 0x4 DUP3 ADD MSTORE PUSH1 0x2C PUSH1 0x24 DUP3 ADD MSTORE PUSH32 0x46756E6374696F6E206D7573742062652063616C6C6564207468726F75676820 PUSH1 0x44 DUP3 ADD MSTORE PUSH12 0x6163746976652070726F7879 PUSH1 0xA0 SHL PUSH1 0x64 DUP3 ADD MSTORE PUSH1 0x84 SWAP1 REVERT JUMPDEST SWAP1 SWAP2 PUSH1 0xFF PUSH32 0x4910FDFA16FED3260ED0E7147F7CC6DA11A60208B5B9406D12A635614FFD9143 SLOAD AND PUSH1 0x0 EQ PUSH2 0xD3C JUMPI POP PUSH2 0xD3A SWAP2 POP PUSH2 0xF61 JUMP JUMPDEST JUMP JUMPDEST PUSH1 0x40 DUP1 MLOAD PUSH4 0x52D1902D PUSH1 0xE0 SHL DUP2 MSTORE PUSH1 0x20 SWAP5 SWAP2 SWAP4 SWAP3 SWAP1 PUSH1 0x1 PUSH1 0x1 PUSH1 0xA0 SHL SUB DUP5 AND SWAP1 DUP7 DUP2 PUSH1 0x4 DUP2 DUP6 GAS STATICCALL PUSH1 0x0 SWAP2 DUP2 PUSH2 0xF32 JUMPI JUMPDEST POP PUSH2 0xDCD JUMPI DUP6 MLOAD PUSH3 0x461BCD PUSH1 0xE5 SHL DUP2 MSTORE PUSH1 0x4 DUP2 ADD DUP9 SWAP1 MSTORE PUSH1 0x2E PUSH1 0x24 DUP3 ADD MSTORE PUSH32 0x45524331393637557067726164653A206E657720696D706C656D656E74617469 PUSH1 0x44 DUP3 ADD MSTORE PUSH14 0x6F6E206973206E6F742055555053 PUSH1 0x90 SHL PUSH1 0x64 DUP3 ADD MSTORE PUSH1 0x84 SWAP1 REVERT JUMPDEST SWAP4 SWAP6 SWAP3 SWAP5 SWAP3 SWAP4 PUSH32 0xC9F76B5EC45E5CDEF99837D7B6D2467235C1DF8933C8CA56DF5C35AFA2C7D444 ADD PUSH2 0xEDC JUMPI PUSH2 0xE02 DUP7 PUSH2 0xF61 JUMP JUMPDEST PUSH32 0xBC7CD75A20EE27FD9ADEBAB32041F755214DBC6BFFA90CC0225B39DA2E5C2D3B PUSH1 0x0 DUP1 LOG2 DUP4 MLOAD ISZERO SWAP1 DUP2 ISZERO SWAP2 PUSH2 0xED4 JUMPI JUMPDEST POP PUSH2 0xE3F JUMPI JUMPDEST POP POP POP POP JUMP JUMPDEST PUSH2 0xEC0 SWAP4 PUSH1 0x0 DUP1 PUSH2 0xE50 PUSH1 0x27 PUSH2 0xC23 JUMP JUMPDEST SWAP6 PUSH2 0xE5D DUP6 MLOAD SWAP8 DUP9 PUSH2 0xBEB JUMP JUMPDEST PUSH1 0x27 DUP8 MSTORE PUSH32 0x416464726573733A206C6F772D6C6576656C2064656C65676174652063616C6C DUP7 DUP9 ADD MSTORE PUSH7 0x819985A5B1959 PUSH1 0xCA SHL DUP6 DUP9 ADD MSTORE DUP6 DUP2 MLOAD SWAP2 ADD DUP5 GAS DELEGATECALL SWAP2 RETURNDATASIZE ISZERO PUSH2 0xECA JUMPI RETURNDATASIZE PUSH2 0xEB1 PUSH2 0xB03 DUP3 PUSH2 0xC23 JUMP JUMPDEST DUP2 MSTORE PUSH1 0x0 DUP2 SWAP5 RETURNDATASIZE SWAP3 ADD RETURNDATACOPY PUSH2 0x1003 JUMP JUMPDEST POP CODESIZE DUP1 DUP1 DUP1 PUSH2 0xE39 JUMP JUMPDEST POP PUSH1 0x60 SWAP3 POP PUSH2 0x1003 JUMP JUMPDEST SWAP1 POP CODESIZE PUSH2 0xE33 JUMP JUMPDEST DUP3 MLOAD PUSH3 0x461BCD PUSH1 0xE5 SHL DUP2 MSTORE PUSH1 0x4 DUP2 ADD DUP6 SWAP1 MSTORE PUSH1 0x29 PUSH1 0x24 DUP3 ADD MSTORE PUSH32 0x45524331393637557067726164653A20756E737570706F727465642070726F78 PUSH1 0x44 DUP3 ADD MSTORE PUSH9 0x1A58589B1955555251 PUSH1 0xBA SHL PUSH1 0x64 DUP3 ADD MSTORE PUSH1 0x84 SWAP1 REVERT JUMPDEST SWAP1 SWAP2 DUP9 DUP3 DUP2 RETURNDATASIZE DUP4 GT PUSH2 0xF5A JUMPI JUMPDEST PUSH2 0xF49 DUP2 DUP4 PUSH2 0xBEB JUMP JUMPDEST DUP2 ADD SUB SLT PUSH2 0x251 JUMPI POP MLOAD SWAP1 CODESIZE PUSH2 0xD6D JUMP JUMPDEST POP RETURNDATASIZE PUSH2 0xF3F JUMP JUMPDEST DUP1 EXTCODESIZE ISZERO PUSH2 0xFA8 JUMPI PUSH32 0x360894A13BA1A3210667C828492DB98DCA3E2076CC3735A920A3CA505D382BBC DUP1 SLOAD PUSH1 0x1 PUSH1 0x1 PUSH1 0xA0 SHL SUB NOT AND PUSH1 0x1 PUSH1 0x1 PUSH1 0xA0 SHL SUB SWAP1 SWAP3 AND SWAP2 SWAP1 SWAP2 OR SWAP1 SSTORE JUMP JUMPDEST PUSH1 0x40 MLOAD PUSH3 0x461BCD PUSH1 0xE5 SHL DUP2 MSTORE PUSH1 0x20 PUSH1 0x4 DUP3 ADD MSTORE PUSH1 0x2D PUSH1 0x24 DUP3 ADD MSTORE PUSH32 0x455243313936373A206E657720696D706C656D656E746174696F6E206973206E PUSH1 0x44 DUP3 ADD MSTORE PUSH13 0x1BDD08184818DBDB9D1C9858DD PUSH1 0x9A SHL PUSH1 0x64 DUP3 ADD MSTORE PUSH1 0x84 SWAP1 REVERT JUMPDEST SWAP2 SWAP3 SWAP1 ISZERO PUSH2 0x1065 JUMPI POP DUP2 MLOAD ISZERO PUSH2 0x1017 JUMPI POP SWAP1 JUMP JUMPDEST EXTCODESIZE ISZERO PUSH2 0x1020 JUMPI SWAP1 JUMP JUMPDEST PUSH1 0x40 MLOAD PUSH3 0x461BCD PUSH1 0xE5 SHL DUP2 MSTORE PUSH1 0x20 PUSH1 0x4 DUP3 ADD MSTORE PUSH1 0x1D PUSH1 0x24 DUP3 ADD MSTORE PUSH32 0x416464726573733A2063616C6C20746F206E6F6E2D636F6E7472616374000000 PUSH1 0x44 DUP3 ADD MSTORE PUSH1 0x64 SWAP1 REVERT JUMPDEST DUP3 MLOAD SWAP1 SWAP2 POP ISZERO PUSH2 0x1078 JUMPI POP DUP1 MLOAD SWAP1 PUSH1 0x20 ADD REVERT JUMPDEST PUSH1 0x40 MLOAD SWAP1 PUSH3 0x461BCD PUSH1 0xE5 SHL DUP3 MSTORE DUP2 PUSH1 0x20 DUP1 PUSH1 0x4 DUP4 ADD MSTORE DUP3 MLOAD SWAP1 DUP2 PUSH1 0x24 DUP5 ADD MSTORE PUSH1 0x0 SWAP4 JUMPDEST DUP3 DUP6 LT PUSH2 0x10BE JUMPI POP POP PUSH1 0x44 SWAP3 POP PUSH1 0x0 DUP4 DUP3 DUP5 ADD ADD MSTORE PUSH1 0x1F DUP1 NOT SWAP2 ADD AND DUP2 ADD SUB ADD SWAP1 REVERT JUMPDEST DUP5 DUP2 ADD DUP3 ADD MLOAD DUP7 DUP7 ADD PUSH1 0x44 ADD MSTORE SWAP4 DUP2 ADD SWAP4 DUP6 SWAP4 POP PUSH2 0x109B JUMP JUMPDEST SWAP1 DUP2 PUSH1 0x20 SWAP2 SUB SLT PUSH2 0x10EF JUMPI MLOAD DUP1 ISZERO ISZERO DUP2 SUB PUSH2 0x10EF JUMPI SWAP1 JUMP JUMPDEST PUSH1 0x0 DUP1 REVERT JUMPDEST PUSH1 0x97 SLOAD PUSH1 0x40 MLOAD PUSH4 0xD994D6D5 PUSH1 0xE0 SHL DUP2 MSTORE CALLER PUSH1 0x4 DUP3 ADD MSTORE SWAP1 PUSH1 0x20 SWAP1 DUP3 SWAP1 PUSH1 0x24 SWAP1 DUP3 SWAP1 PUSH1 0x1 PUSH1 0x1 PUSH1 0xA0 SHL SUB AND GAS STATICCALL SWAP1 DUP2 ISZERO PUSH2 0x1167 JUMPI PUSH1 0x0 SWAP2 PUSH2 0x1149 JUMPI JUMPDEST POP ISZERO PUSH2 0x1137 JUMPI JUMP JUMPDEST PUSH1 0x40 MLOAD PUSH4 0x1DD1B1B5 PUSH1 0xE2 SHL DUP2 MSTORE PUSH1 0x4 SWAP1 REVERT JUMPDEST PUSH2 0x1161 SWAP2 POP PUSH1 0x20 RETURNDATASIZE DUP2 GT PUSH2 0x238 JUMPI PUSH2 0x229 DUP2 DUP4 PUSH2 0xBEB JUMP JUMPDEST CODESIZE PUSH2 0x112F JUMP JUMPDEST PUSH1 0x40 MLOAD RETURNDATASIZE PUSH1 0x0 DUP3 RETURNDATACOPY RETURNDATASIZE SWAP1 REVERT JUMPDEST ISZERO PUSH2 0x117A JUMPI JUMP JUMPDEST PUSH1 0x40 MLOAD PUSH3 0x461BCD PUSH1 0xE5 SHL DUP2 MSTORE PUSH1 0x20 PUSH1 0x4 DUP3 ADD MSTORE PUSH1 0x2B PUSH1 0x24 DUP3 ADD MSTORE PUSH32 0x496E697469616C697A61626C653A20636F6E7472616374206973206E6F742069 PUSH1 0x44 DUP3 ADD MSTORE PUSH11 0x6E697469616C697A696E67 PUSH1 0xA8 SHL PUSH1 0x64 DUP3 ADD MSTORE PUSH1 0x84 SWAP1 REVERT JUMPDEST PUSH1 0x1 DUP1 PUSH1 0xA0 SHL SUB AND PUSH1 0x0 MSTORE PUSH2 0x131 PUSH1 0x20 MSTORE PUSH1 0x40 PUSH1 0x0 KECCAK256 PUSH1 0x40 MLOAD SWAP1 PUSH2 0x11F8 PUSH1 0x60 DUP4 PUSH2 0xBEB JUMP JUMPDEST SLOAD PUSH1 0x40 PUSH8 0xFFFFFFFFFFFFFFFF SWAP3 DUP4 DUP4 AND SWAP4 DUP5 DUP3 MSTORE DUP4 DUP4 SHR AND SWAP3 DUP4 PUSH1 0x20 DUP4 ADD MSTORE PUSH1 0x80 SHR SWAP2 DUP3 SWAP2 ADD MSTORE TIMESTAMP LT ISZERO PUSH2 0x122A JUMPI POP SWAP1 JUMP JUMPDEST SWAP1 POP SWAP1 JUMP JUMPDEST PUSH2 0x133 SLOAD SWAP2 PUSH8 0xFFFFFFFFFFFFFFFF DUP1 SWAP2 AND SWAP3 DUP4 GT PUSH2 0x13A7 JUMPI PUSH8 0xDE0B6B3A7640000 DUP4 LT ISZERO PUSH2 0x1395 JUMPI PUSH1 0x1 DUP1 PUSH1 0xA0 SHL SUB DUP3 AND SWAP4 PUSH1 0x0 SWAP3 DUP6 DUP5 MSTORE PUSH2 0x131 SWAP3 DUP4 PUSH1 0x20 MSTORE PUSH1 0x40 SWAP5 DUP6 DUP2 KECCAK256 SWAP5 DUP7 MLOAD SWAP6 PUSH2 0x1284 PUSH1 0x60 DUP9 PUSH2 0xBEB JUMP JUMPDEST SLOAD SWAP5 DUP4 DUP7 AND DUP8 MSTORE DUP4 PUSH2 0x12A9 PUSH1 0x20 DUP10 ADD SWAP7 DUP3 DUP10 DUP13 SHR AND DUP9 MSTORE DUP11 DUP11 ADD SWAP9 PUSH1 0x80 SHR DUP10 MSTORE PUSH2 0x11D3 JUMP JUMPDEST AND DUP8 MSTORE DUP9 DUP6 MSTORE ISZERO PUSH2 0x1325 JUMPI DUP7 SWAP5 SWAP3 PUSH1 0x20 SWAP8 PUSH32 0xEDB810B4A4BA5AB81B2765B443D63011146E0D69F7604EA7205676BAE0995B3 SWAP10 SWAP8 SWAP6 SWAP4 PUSH8 0xFFFFFFFFFFFFFFFF PUSH1 0x40 SHL SWAP4 PUSH1 0x1 PUSH1 0x1 PUSH1 0x80 SHL SUB DUP1 TIMESTAMP AND JUMPDEST AND DUP8 MSTORE DUP13 DUP3 MSTORE DUP11 MSTORE KECCAK256 SWAP5 MLOAD AND SWAP2 MLOAD DUP6 SHL AND SWAP2 PUSH1 0x1 PUSH1 0x1 PUSH1 0x80 SHL SUB NOT SWAP1 MLOAD PUSH1 0x80 SHL AND SWAP2 OR OR SWAP1 SSTORE MLOAD SWAP1 DUP2 MSTORE LOG2 JUMP JUMPDEST PUSH1 0x1 PUSH1 0x1 PUSH1 0x80 SHL SUB PUSH2 0xE10 DUP2 TIMESTAMP AND ADD SWAP1 DUP2 GT PUSH2 0x1381 JUMPI SWAP3 DUP8 PUSH32 0xEDB810B4A4BA5AB81B2765B443D63011146E0D69F7604EA7205676BAE0995B3 SWAP10 SWAP8 SWAP6 SWAP4 PUSH8 0xFFFFFFFFFFFFFFFF PUSH1 0x40 SHL SWAP4 PUSH1 0x1 PUSH1 0x1 PUSH1 0x80 SHL SUB PUSH1 0x20 SWAP12 SWAP10 SWAP8 PUSH2 0x12F8 JUMP JUMPDEST PUSH4 0x4E487B71 PUSH1 0xE0 SHL DUP4 MSTORE PUSH1 0x11 PUSH1 0x4 MSTORE PUSH1 0x24 DUP4 REVERT JUMPDEST PUSH1 0x40 MLOAD PUSH4 0x2A9FFAB7 PUSH1 0xE2 SHL DUP2 MSTORE PUSH1 0x4 SWAP1 REVERT JUMPDEST PUSH1 0x40 MLOAD PUSH4 0x6CD16EDF PUSH1 0xE1 SHL DUP2 MSTORE PUSH1 0x4 SWAP1 REVERT INVALID LOG2 PUSH5 0x6970667358 0x22 SLT KECCAK256 INVALID 0xC0 MOD PUSH19 0x29BD34D6EA8097AE63BBF265C91E6CB04DEDAA MUL 0xB8 STATICCALL EQ PUSH1 0x74 CALLVALUE 0xE6 DUP2 PUSH5 0x736F6C6343 STOP ADDMOD EQ STOP CALLER "
    },
    "gasEstimates": {
      "creation": {
        "codeDepositCost": "1020600",
        "executionCost": "infinite",
        "totalCost": "infinite"
      },
      "external": {
        "COOLDOWN()": "557",
        "_getVendorMarkup(address)": "2894",
        "changeGovernor(address)": "infinite",
        "delegateRevoked(address)": "2567",
        "governor()": "2310",
        "initialize(address,address,address,uint256)": "infinite",
        "makeStoppable()": "infinite",
        "makeUnstoppable()": "infinite",
        "maxMarkup()": "2575",
        "pause()": "25835",
        "paused()": "2505",
        "pauser()": "2671",
        "proxiableUUID()": "infinite",
        "setMarkup(uint64)": "infinite",
        "setMaxMarkup(uint256)": "infinite",
        "setPauser(address)": "infinite",
        "setVendorMarkup(address,uint64)": "infinite",
        "setVendorsGuardianAddress(address)": "infinite",
        "stoppable()": "2697",
        "unpause()": "infinite",
        "upgradeTo(address)": "infinite",
        "upgradeToAndCall(address,bytes)": "infinite",
        "vendorMarkup(address)": "2916",
        "vendorMarkupData(address)": "2640",
        "vendorsGuardianAddress()": "2772"
      },
      "internal": {
        "_setMarkup(address,uint64,bool)": "infinite"
      }
    },
    "methodIdentifiers": {
      "COOLDOWN()": "a2724a4d",
      "_getVendorMarkup(address)": "6229fa79",
      "changeGovernor(address)": "e4c0aaf4",
      "delegateRevoked(address)": "57dd585e",
      "governor()": "0c340a24",
      "initialize(address,address,address,uint256)": "cf756fdf",
      "makeStoppable()": "68274357",
      "makeUnstoppable()": "5210570c",
      "maxMarkup()": "79d05ced",
      "pause()": "8456cb59",
      "paused()": "5c975abb",
      "pauser()": "9fd0506d",
      "proxiableUUID()": "52d1902d",
      "setMarkup(uint64)": "c39a8f6a",
      "setMaxMarkup(uint256)": "99dc8573",
      "setPauser(address)": "2d88af4a",
      "setVendorMarkup(address,uint64)": "e65dd268",
      "setVendorsGuardianAddress(address)": "05216f72",
      "stoppable()": "bb4872de",
      "unpause()": "3f4ba83a",
      "upgradeTo(address)": "3659cfe6",
      "upgradeToAndCall(address,bytes)": "4f1ef286",
      "vendorMarkup(address)": "64a731e9",
      "vendorMarkupData(address)": "5a542d30",
      "vendorsGuardianAddress()": "d6c9858b"
    }
  },
  "storageLayout": {
    "storage": [
      {
        "astId": 950,
        "contract": "contracts/vendors/MocVendors.sol:MocVendors",
        "label": "_initialized",
        "offset": 0,
        "slot": "0",
        "type": "t_uint8"
      },
      {
        "astId": 953,
        "contract": "contracts/vendors/MocVendors.sol:MocVendors",
        "label": "_initializing",
        "offset": 1,
        "slot": "0",
        "type": "t_bool"
      },
      {
        "astId": 932,
        "contract": "contracts/vendors/MocVendors.sol:MocVendors",
        "label": "__gap",
        "offset": 0,
        "slot": "1",
        "type": "t_array(t_uint256)50_storage"
      },
      {
        "astId": 1247,
        "contract": "contracts/vendors/MocVendors.sol:MocVendors",
        "label": "__gap",
        "offset": 0,
        "slot": "51",
        "type": "t_array(t_uint256)50_storage"
      },
      {
        "astId": 28037,
        "contract": "contracts/vendors/MocVendors.sol:MocVendors",
        "label": "__gap",
        "offset": 0,
        "slot": "101",
        "type": "t_array(t_uint256)50_storage"
      },
      {
        "astId": 21408,
        "contract": "contracts/vendors/MocVendors.sol:MocVendors",
        "label": "governor",
        "offset": 0,
        "slot": "151",
        "type": "t_contract(IGovernor)22270"
      },
      {
        "astId": 21479,
        "contract": "contracts/vendors/MocVendors.sol:MocVendors",
        "label": "__gap",
        "offset": 0,
        "slot": "152",
        "type": "t_array(t_uint256)50_storage"
      },
      {
        "astId": 21548,
        "contract": "contracts/vendors/MocVendors.sol:MocVendors",
        "label": "stoppable",
        "offset": 0,
        "slot": "202",
        "type": "t_bool"
      },
      {
        "astId": 21550,
        "contract": "contracts/vendors/MocVendors.sol:MocVendors",
        "label": "_paused",
        "offset": 1,
        "slot": "202",
        "type": "t_bool"
      },
      {
        "astId": 21552,
        "contract": "contracts/vendors/MocVendors.sol:MocVendors",
        "label": "pauser",
        "offset": 2,
        "slot": "202",
        "type": "t_address"
      },
      {
        "astId": 21724,
        "contract": "contracts/vendors/MocVendors.sol:MocVendors",
        "label": "__gap",
        "offset": 0,
        "slot": "203",
        "type": "t_array(t_uint256)50_storage"
      },
      {
        "astId": 21530,
        "contract": "contracts/vendors/MocVendors.sol:MocVendors",
        "label": "__gap",
        "offset": 0,
        "slot": "253",
        "type": "t_array(t_uint256)50_storage"
      },
      {
        "astId": 28071,
        "contract": "contracts/vendors/MocVendors.sol:MocVendors",
        "label": "vendorsGuardianAddress",
        "offset": 0,
        "slot": "303",
        "type": "t_address"
      },
      {
        "astId": 28075,
        "contract": "contracts/vendors/MocVendors.sol:MocVendors",
        "label": "vendorMarkupDeprecated",
        "offset": 0,
        "slot": "304",
        "type": "t_mapping(t_address,t_uint256)"
      },
      {
        "astId": 28080,
        "contract": "contracts/vendors/MocVendors.sol:MocVendors",
        "label": "vendorMarkupData",
        "offset": 0,
        "slot": "305",
        "type": "t_mapping(t_address,t_struct(MarkupData)28069_storage)"
      },
      {
        "astId": 28084,
        "contract": "contracts/vendors/MocVendors.sol:MocVendors",
        "label": "delegateRevoked",
        "offset": 0,
        "slot": "306",
        "type": "t_mapping(t_address,t_bool)"
      },
      {
        "astId": 28086,
        "contract": "contracts/vendors/MocVendors.sol:MocVendors",
        "label": "maxMarkup",
        "offset": 0,
        "slot": "307",
        "type": "t_uint256"
      },
      {
        "astId": 28348,
        "contract": "contracts/vendors/MocVendors.sol:MocVendors",
        "label": "__gap",
        "offset": 0,
        "slot": "308",
        "type": "t_array(t_uint256)50_storage"
      }
    ],
    "types": {
      "t_address": {
        "encoding": "inplace",
        "label": "address",
        "numberOfBytes": "20"
      },
      "t_array(t_uint256)50_storage": {
        "base": "t_uint256",
        "encoding": "inplace",
        "label": "uint256[50]",
        "numberOfBytes": "1600"
      },
      "t_bool": {
        "encoding": "inplace",
        "label": "bool",
        "numberOfBytes": "1"
      },
      "t_contract(IGovernor)22270": {
        "encoding": "inplace",
        "label": "contract IGovernor",
        "numberOfBytes": "20"
      },
      "t_mapping(t_address,t_bool)": {
        "encoding": "mapping",
        "key": "t_address",
        "label": "mapping(address => bool)",
        "numberOfBytes": "32",
        "value": "t_bool"
      },
      "t_mapping(t_address,t_struct(MarkupData)28069_storage)": {
        "encoding": "mapping",
        "key": "t_address",
        "label": "mapping(address => struct MocVendors.MarkupData)",
        "numberOfBytes": "32",
        "value": "t_struct(MarkupData)28069_storage"
      },
      "t_mapping(t_address,t_uint256)": {
        "encoding": "mapping",
        "key": "t_address",
        "label": "mapping(address => uint256)",
        "numberOfBytes": "32",
        "value": "t_uint256"
      },
      "t_struct(MarkupData)28069_storage": {
        "encoding": "inplace",
        "label": "struct MocVendors.MarkupData",
        "members": [
          {
            "astId": 28064,
            "contract": "contracts/vendors/MocVendors.sol:MocVendors",
            "label": "previous",
            "offset": 0,
            "slot": "0",
            "type": "t_uint64"
          },
          {
            "astId": 28066,
            "contract": "contracts/vendors/MocVendors.sol:MocVendors",
            "label": "next",
            "offset": 8,
            "slot": "0",
            "type": "t_uint64"
          },
          {
            "astId": 28068,
            "contract": "contracts/vendors/MocVendors.sol:MocVendors",
            "label": "cooldownEndTime",
            "offset": 16,
            "slot": "0",
            "type": "t_uint128"
          }
        ],
        "numberOfBytes": "32"
      },
      "t_uint128": {
        "encoding": "inplace",
        "label": "uint128",
        "numberOfBytes": "16"
      },
      "t_uint256": {
        "encoding": "inplace",
        "label": "uint256",
        "numberOfBytes": "32"
      },
      "t_uint64": {
        "encoding": "inplace",
        "label": "uint64",
        "numberOfBytes": "8"
      },
      "t_uint8": {
        "encoding": "inplace",
        "label": "uint8",
        "numberOfBytes": "1"
      }
    }
  },
  "userdoc": {
    "kind": "user",
    "methods": {
      "_getVendorMarkup(address)": {
        "notice": "returns markup percentage to apply.  If there is a new one and cooldown time has expired, apply that one; otherwise, apply the previous one"
      },
      "changeGovernor(address)": {
        "notice": "Change the contract's governor. Should be called through the old governance system"
      },
      "governor()": {
        "notice": "The address of the contract which governs this one"
      },
      "initialize(address,address,address,uint256)": {
        "notice": "contract initializer"
      },
      "makeStoppable()": {
        "notice": "Switches ON the stoppability of the contract. It can be paused or unpaused  Doesn't change the pause state, if the contract was already paused it cannot be operated"
      },
      "makeUnstoppable()": {
        "notice": "Switches OFF the stoppability of the contract. It cannot be paused or unpaused Doesn't change the pause state, if the contract was already paused it cannot be operated"
      },
      "pause()": {
        "notice": "Called by the owner to pause, triggers stopped state"
      },
      "paused()": {
        "notice": "Returns true if paused"
      },
      "setMarkup(uint64)": {
        "notice": "vendor sets its own markup"
      },
      "setPauser(address)": {
        "notice": "Changes the address which is enable to pause this contract"
      },
      "setVendorMarkup(address,uint64)": {
        "notice": "governor or vendors guardian set a vendor markup."
      },
      "unpause()": {
        "notice": "Called by the owner to unpause, returns to normal state"
      },
      "vendorMarkup(address)": {
        "notice": "returns markup percentage to apply.  If there is a new one and cooldown time has expired, apply that one; otherwise, apply the previous one"
      }
    },
    "notice": "MocVendors allows a third-party to add a markup to all operations  A vendor can set a markup themselves or ask vendors guardian to do it on their behalf.  Considerations:  - Theres is not a markup limit or restriction  - The currency that the vendor receives is always the same that is used to pay fees(AC or Fee Token)  - A malicious vendor front running an operation increasing the markup is protected by a cooldown system",
    "version": 1
  }
}