{
  "contractName": "EchidnaMocWrapperTester",
  "sourceName": "contracts/echidna/EchidnaMocWrapperTester.sol",
  "abi": [
    {
      "inputs": [],
      "stateMutability": "payable",
      "type": "constructor"
    },
    {
      "inputs": [
        {
          "internalType": "uint8",
          "name": "decimals_",
          "type": "uint8"
        }
      ],
      "name": "addAsset",
      "outputs": [],
      "stateMutability": "nonpayable",
      "type": "function"
    },
    {
      "inputs": [
        {
          "components": [
            {
              "internalType": "address",
              "name": "tpTokenAddress",
              "type": "address"
            },
            {
              "internalType": "address",
              "name": "priceProviderAddress",
              "type": "address"
            },
            {
              "internalType": "uint256",
              "name": "tpCtarg",
              "type": "uint256"
            },
            {
              "internalType": "uint256",
              "name": "tpMintFee",
              "type": "uint256"
            },
            {
              "internalType": "uint256",
              "name": "tpRedeemFee",
              "type": "uint256"
            },
            {
              "internalType": "uint256",
              "name": "tpEma",
              "type": "uint256"
            },
            {
              "internalType": "uint256",
              "name": "tpEmaSf",
              "type": "uint256"
            }
          ],
          "internalType": "struct MocCore.PeggedTokenParams",
          "name": "peggedTokenParams_",
          "type": "tuple"
        },
        {
          "internalType": "uint96",
          "name": "price_",
          "type": "uint96"
        }
      ],
      "name": "addPeggedToken",
      "outputs": [],
      "stateMutability": "nonpayable",
      "type": "function"
    },
    {
      "inputs": [],
      "name": "echidna_wrappedTokenPrice_always_ONE",
      "outputs": [
        {
          "internalType": "bool",
          "name": "",
          "type": "bool"
        }
      ],
      "stateMutability": "view",
      "type": "function"
    },
    {
      "inputs": [
        {
          "internalType": "uint8",
          "name": "assetIndex_",
          "type": "uint8"
        },
        {
          "internalType": "uint256",
          "name": "qTC_",
          "type": "uint256"
        }
      ],
      "name": "mintTC",
      "outputs": [],
      "stateMutability": "nonpayable",
      "type": "function"
    },
    {
      "inputs": [
        {
          "internalType": "uint256",
          "name": "i_",
          "type": "uint256"
        },
        {
          "internalType": "uint96",
          "name": "price_",
          "type": "uint96"
        }
      ],
      "name": "pokePrice",
      "outputs": [],
      "stateMutability": "nonpayable",
      "type": "function"
    },
    {
      "inputs": [
        {
          "internalType": "uint8",
          "name": "assetIndex_",
          "type": "uint8"
        },
        {
          "internalType": "uint256",
          "name": "qTC_",
          "type": "uint256"
        }
      ],
      "name": "redeemTC",
      "outputs": [],
      "stateMutability": "nonpayable",
      "type": "function"
    }
  ],
  "bytecode": "0x60806040819052600480546001600160a01b0319908116600117909155600580549091166002179055620000339062000be8565b604051809103906000f08015801562000050573d6000803e3d6000fd5b50600180546001600160a01b0319166001600160a01b03929092169190911790556040516200007f9062000bf6565b604051809103906000f0801580156200009c573d6000803e3d6000fd5b50600380546001600160a01b0319166001600160a01b0392909216919091179055604051620000f490620000d09062000c04565b604051809103906000f080158015620000ed573d6000803e3d6000fd5b506200070f565b600280546001600160a01b0319166001600160a01b03929092169190911790556040516200012790620000d09062000c12565b600080546001600160a01b0319166001600160a01b03929092169190911790556040516200015a90620000d09062000c20565b600780546001600160a01b0319166001600160a01b03928316178155600280546000546001546040516323c56d0560e21b8152608060048201526084810195909552662a21aa37b5b2b760c91b60a486015260c0602486015260c485019390935261544360f01b60e485015284166044840152908316606483015290911690638f15b4149061010401600060405180830381600087803b158015620001fe57600080fd5b505af115801562000213573d6000803e3d6000fd5b5050604080516101e081018252600280546001600160a01b03908116835260045481166020840152600554169282019290925260009350915060608201906200026690670de0b6b3a76400009062000c7c565b815260200162000280670de0b6b3a7640000600162000c7c565b8152602001600a6200029c670de0b6b3a7640000600262000c7c565b620002a8919062000cb2565b81526020016064620002c4670de0b6b3a7640000600562000c7c565b620002d0919062000cb2565b81526020016064620002ec670de0b6b3a7640000600562000c7c565b620002f8919062000cb2565b8152602001606462000314670de0b6b3a7640000600162000c7c565b62000320919062000cb2565b815260200160646200033c670de0b6b3a7640000600162000c7c565b62000348919062000cb2565b8152602001606462000364670de0b6b3a7640000600162000c7c565b62000370919062000cb2565b815260200160646200038c670de0b6b3a7640000600862000c7c565b62000398919062000cb2565b81526020016064620003b4670de0b6b3a7640000600862000c7c565b620003c0919062000cb2565b8152602001600a620003dc670de0b6b3a7640000600162000c7c565b620003e8919062000cb2565b8152602001600a62000404670de0b6b3a7640000600562000c7c565b62000410919062000cb2565b90526040805160a0810182528281526001546001600160a01b03908116602080840191909152338385015262015180606084015262278d00608084015283518085018552838152600354831691810191909152600054935163bbba7ed960e01b815294955091939192169063bbba7ed9906200049190849060040162000cc9565b600060405180830381600087803b158015620004ac57600080fd5b505af1158015620004c1573d6000803e3d6000fd5b5050600754600154600054600354604051637c643b2f60e11b81526001600160a01b0393841660048201523360248201529183166044830152821660648201529116925063f8c8765e9150608401600060405180830381600087803b1580156200052a57600080fd5b505af11580156200053f573d6000803e3d6000fd5b50506040805160e08101825260008082526020820181905293509150810162000572670de0b6b3a7640000600562000c7c565b815260200160646200058e670de0b6b3a7640000600562000c7c565b6200059a919062000cb2565b81526020016064620005b6670de0b6b3a7640000600562000c7c565b620005c2919062000cb2565b8152602001620005dc670de0b6b3a764000060d462000c7c565b81526020016064620005f8670de0b6b3a7640000600562000c7c565b62000604919062000cb2565b905290506200061d81680cbd47b6eaa8cc000062000763565b6003546040516370a0823160e01b81523060048201526001600160a01b03909116906342966c689082906370a0823190602401602060405180830381865afa1580156200066e573d6000803e3d6000fd5b505050506040513d601f19601f8201168201806040525081019062000694919062000df4565b6040518263ffffffff1660e01b8152600401620006b391815260200190565b600060405180830381600087803b158015620006ce57600080fd5b505af1158015620006e3573d6000803e3d6000fd5b50505050620006f960126200099060201b60201c565b62000705600662000990565b5050505062000e9c565b600081604051620007209062000c2e565b6001600160a01b039091168152604060208201819052600090820152606001604051809103906000f0801580156200075c573d6000803e3d6000fd5b5092915050565b600560065410620007bb5760405162461bcd60e51b815260206004820152601460248201527f6d617820545020616c726561647920616464656400000000000000000000000060448201526064015b60405180910390fd5b6000620007cf604051620000d09062000c3c565b6000546001546040516323c56d0560e21b81526080600482015260076084820152662a282a37b5b2b760c91b60a482015260c06024820152600260c482015261054560f41b60e48201526001600160a01b0392831660448201529082166064820152919250821690638f15b4149061010401600060405180830381600087803b1580156200085c57600080fd5b505af115801562000871573d6000803e3d6000fd5b5050506001600160a01b038216845250816200088d8162000e0e565b925050816040516200089f9062000c4a565b6001600160601b039091168152602001604051809103906000f080158015620008cc573d6000803e3d6000fd5b506001600160a01b039081166020850190815260005460408051636dbcb03960e11b81528751851660048201529251841660248401528601516044830152606086015160648301526080860151608483015260a086015160a483015260c086015160c48301529091169063db7960729060e401600060405180830381600087803b1580156200095a57600080fd5b505af11580156200096f573d6000803e3d6000fd5b505060068054925090506000620009868362000e3f565b9190505550505050565b600854600511620009e45760405162461bcd60e51b815260206004820152601860248201527f6d61782061737365747320616c726561647920616464656400000000000000006044820152606401620007b2565b6000604051620009f49062000bf6565b604051809103906000f08015801562000a11573d6000803e3d6000fd5b509050600062000a2360188462000e5b565b604051633d09cad560e11b815260ff821660048201529091506001600160a01b03831690637a1395aa90602401600060405180830381600087803b15801562000a6b57600080fd5b505af115801562000a80573d6000803e3d6000fd5b50506007546040516001600160a01b03909116925063966d3f2391508490670de0b6b3a76400009062000ab39062000c4a565b908152602001604051809103906000f08015801562000ad6573d6000803e3d6000fd5b5062000ae485601262000e80565b60405162000af29062000c58565b6001600160a01b03909216825260000b6020820152604001604051809103906000f08015801562000b27573d6000803e3d6000fd5b506040516001600160e01b031960e085901b1681526001600160a01b0392831660048201529116602482015260ff84166044820152606401600060405180830381600087803b15801562000b7a57600080fd5b505af115801562000b8f573d6000803e3d6000fd5b5050600880546001810182556000919091527ff3f7a9fe364faab93b216da50a3214154f22a0a2b415b23a84c8169e8b636ee30180546001600160a01b0319166001600160a01b03959095169490941790935550505050565b6101d78062005f5483390190565b610f9e806200612b83390190565b61289a80620070c983390190565b61570c806200996383390190565b6137bf806200f06f83390190565b610727806201282e83390190565b6125f58062012f5583390190565b610181806201554a83390190565b61043c80620156cb83390190565b634e487b7160e01b600052601160045260246000fd5b808202811582820484141762000c965762000c9662000c66565b92915050565b634e487b7160e01b600052601260045260246000fd5b60008262000cc45762000cc462000c9c565b500490565b8151805180516001600160a01b0316835261028083019190602081015162000cfc60208601826001600160a01b03169052565b50604081015162000d1860408601826001600160a01b03169052565b50606081810151908501526080808201519085015260a0808201519085015260c0808201519085015260e08082015190850152610100808201519085015261012080820151908501526101408082015190850152610160808201519085015261018080820151908501526101a080820151908501526101c0908101519084015260208101516001600160a01b0381166101e08501525060408101516001600160a01b0381166102008501525060608101516102208401526080015161024083015260208301516001600160a01b0381166102608401526200075c565b60006020828403121562000e0757600080fd5b5051919050565b60006001600160601b038281166002600160601b0319810162000e355762000e3562000c66565b6001019392505050565b60006001820162000e545762000e5462000c66565b5060010190565b600060ff83168062000e715762000e7162000c9c565b8060ff84160691505092915050565b60ff828116828216039081111562000c965762000c9662000c66565b6150a88062000eac6000396000f3fe60806040523480156200001157600080fd5b50600436106200006a5760003560e01c806324035d38146200006f5780633295b14f1462000088578063499e3b16146200009f578063a179161714620000b6578063b75205cb14620000cd578063e095545214620000eb575b600080fd5b620000866200008036600462000b19565b62000102565b005b620000866200009936600462000be1565b6200034a565b62000086620000b036600462000c19565b6200044f565b62000086620000c736600462000c19565b620005f4565b620000d762000759565b604051901515815260200160405180910390f35b62000086620000fc36600462000c46565b620007e4565b600560065410620001515760405162461bcd60e51b81526020600482015260146024820152731b585e08151408185b1c9958591e48185919195960621b60448201526064015b60405180910390fd5b600062000189604051620001659062000a90565b604051809103906000f08015801562000182573d6000803e3d6000fd5b5062000a3c565b6000546001546040516323c56d0560e21b81526080600482015260076084820152662a282a37b5b2b760c91b60a482015260c06024820152600260c482015261054560f41b60e48201526001600160a01b0392831660448201529082166064820152919250821690638f15b4149061010401600060405180830381600087803b1580156200021657600080fd5b505af11580156200022b573d6000803e3d6000fd5b5050506001600160a01b03821684525081620002478162000c81565b92505081604051620002599062000a9e565b6001600160601b039091168152602001604051809103906000f08015801562000286573d6000803e3d6000fd5b506001600160a01b039081166020850190815260005460408051636dbcb03960e11b81528751851660048201529251841660248401528601516044830152606086015160648301526080860151608483015260a086015160a483015260c086015160c48301529091169063db7960729060e401600060405180830381600087803b1580156200031457600080fd5b505af115801562000329573d6000803e3d6000fd5b505060068054925090506000620003408362000caa565b9190505550505050565b80620003568162000c81565b600080546006549294509092506001600160a01b031690634b746001906200037f908662000cdc565b6040518263ffffffff1660e01b81526004016200039e91815260200190565b6040805180830381865afa158015620003bb573d6000803e3d6000fd5b505050506040513d601f19601f82011682018060405250810190620003e1919062000cf3565b60405163032145f960e41b81526001600160601b03851660048201529092506001600160a01b03831691506332145f90906024015b600060405180830381600087803b1580156200043157600080fd5b505af115801562000446573d6000803e3d6000fd5b50505050505050565b6008805460009190620004669060ff861662000cdc565b8154811062000479576200047962000d26565b6000918252602090912001546001600160a01b03169050806340c10f1930620004a485600262000d3c565b6040516001600160e01b031960e085901b1681526001600160a01b0390921660048301526024820152604401600060405180830381600087803b158015620004eb57600080fd5b505af115801562000500573d6000803e3d6000fd5b50506007546001600160a01b03808516935063095ea7b39250166200052785600262000d3c565b6040516001600160e01b031960e085901b1681526001600160a01b03909216600483015260248201526044016020604051808303816000875af115801562000573573d6000803e3d6000fd5b505050506040513d601f19601f8201168201806040525081019062000599919062000d5c565b506007546001600160a01b031663c8308a628284620005ba81600262000d3c565b6040516001600160e01b031960e086901b1681526001600160a01b0390931660048401526024830191909152604482015260640162000416565b60088054600091906200060b9060ff861662000cdc565b815481106200061e576200061e62000d26565b60009182526020808320909101549154604080516360009e0b60e01b815290516001600160a01b03948516955091909316926360009e0b9260048083019391928290030181865afa15801562000678573d6000803e3d6000fd5b505050506040513d601f19601f820116820180604052508101906200069e919062000d80565b60075460405163095ea7b360e01b81526001600160a01b0391821660048201526024810185905291169063095ea7b3906044016020604051808303816000875af1158015620006f1573d6000803e3d6000fd5b505050506040513d601f19601f8201168201806040525081019062000717919062000d5c565b50600754604051631298c1ff60e21b81526001600160a01b038381166004830152602482018590526000604483015290911690634a6307fc9060640162000416565b6000670de0b6b3a7640000600760009054906101000a90046001600160a01b03166001600160a01b0316634b94f50e6040518163ffffffff1660e01b8152600401602060405180830381865afa158015620007b8573d6000803e3d6000fd5b505050506040513d601f19601f82011682018060405250810190620007de919062000da0565b14905090565b600854600511620008385760405162461bcd60e51b815260206004820152601860248201527f6d61782061737365747320616c72656164792061646465640000000000000000604482015260640162000148565b6000604051620008489062000aac565b604051809103906000f08015801562000865573d6000803e3d6000fd5b50905060006200087760188462000dba565b604051633d09cad560e11b815260ff821660048201529091506001600160a01b03831690637a1395aa90602401600060405180830381600087803b158015620008bf57600080fd5b505af1158015620008d4573d6000803e3d6000fd5b50506007546040516001600160a01b03909116925063966d3f2391508490670de0b6b3a764000090620009079062000a9e565b908152602001604051809103906000f0801580156200092a573d6000803e3d6000fd5b506200093885601262000ddf565b604051620009469062000aba565b6001600160a01b03909216825260000b6020820152604001604051809103906000f0801580156200097b573d6000803e3d6000fd5b506040516001600160e01b031960e085901b1681526001600160a01b0392831660048201529116602482015260ff84166044820152606401600060405180830381600087803b158015620009ce57600080fd5b505af1158015620009e3573d6000803e3d6000fd5b5050600880546001810182556000919091527ff3f7a9fe364faab93b216da50a3214154f22a0a2b415b23a84c8169e8b636ee30180546001600160a01b0319166001600160a01b03959095169490941790935550505050565b60008160405162000a4d9062000ac8565b6001600160a01b039091168152604060208201819052600090820152606001604051809103906000f08015801562000a89573d6000803e3d6000fd5b5092915050565b6125f58062000dfc83390190565b61018180620033f183390190565b610f9e806200357283390190565b61043c806200451083390190565b610727806200494c83390190565b6001600160a01b038116811462000aec57600080fd5b50565b803562000afc8162000ad6565b919050565b80356001600160601b038116811462000afc57600080fd5b60008082840361010081121562000b2f57600080fd5b60e081121562000b3e57600080fd5b5060405160e0810181811067ffffffffffffffff8211171562000b7157634e487b7160e01b600052604160045260246000fd5b60405262000b7f8462000aef565b815262000b8f6020850162000aef565b602082015260408401356040820152606084013560608201526080840135608082015260a084013560a082015260c084013560c08201528092505062000bd860e0840162000b01565b90509250929050565b6000806040838503121562000bf557600080fd5b8235915062000bd86020840162000b01565b803560ff8116811462000afc57600080fd5b6000806040838503121562000c2d57600080fd5b62000c388362000c07565b946020939093013593505050565b60006020828403121562000c5957600080fd5b62000c648262000c07565b9392505050565b634e487b7160e01b600052601160045260246000fd5b60006001600160601b0380831681810362000ca05762000ca062000c6b565b6001019392505050565b60006001820162000cbf5762000cbf62000c6b565b5060010190565b634e487b7160e01b600052601260045260246000fd5b60008262000cee5762000cee62000cc6565b500690565b6000806040838503121562000d0757600080fd5b82519150602083015162000d1b8162000ad6565b809150509250929050565b634e487b7160e01b600052603260045260246000fd5b808202811582820484141762000d565762000d5662000c6b565b92915050565b60006020828403121562000d6f57600080fd5b8151801515811462000c6457600080fd5b60006020828403121562000d9357600080fd5b815162000c648162000ad6565b60006020828403121562000db357600080fd5b5051919050565b600060ff83168062000dd05762000dd062000cc6565b8060ff84160691505092915050565b60ff828116828216039081111562000d565762000d5662000c6b56fe60a06040523060805234801561001457600080fd5b5061001d610022565b6100e2565b600054610100900460ff161561008e5760405162461bcd60e51b815260206004820152602760248201527f496e697469616c697a61626c653a20636f6e747261637420697320696e697469604482015266616c697a696e6760c81b606482015260840160405180910390fd5b60005460ff90811610156100e0576000805460ff191660ff9081179091556040519081527f7f26b83ff96e1f2b6a682f133852f6798a09c465da95921460cefb38474024989060200160405180910390a15b565b6080516124db6200011a60003960008181610798015281816107d8015281816108bb015281816108fb015261098a01526124db6000f3fe6080604052600436106101d85760003560e01c806352d1902d11610102578063a457c2d711610095578063d547741f11610064578063d547741f14610566578063d55fd84514610586578063dd62ed3e146105a6578063e4c0aaf4146105c657600080fd5b8063a457c2d7146104e4578063a9059cbb14610504578063ca15c87314610524578063d53913931461054457600080fd5b806391d14854116100d157806391d148541461047a57806395d89b411461049a5780639dc29fac146104af578063a217fddf146104cf57600080fd5b806352d1902d146103ef57806370a08231146104045780638f15b4141461043a5780639010d07c1461045a57600080fd5b8063282c51f31161017a5780633659cfe6116101495780633659cfe61461037c578063395093511461039c57806340c10f19146103bc5780634f1ef286146103dc57600080fd5b8063282c51f3146102fc5780632f2ff15d1461031e578063313ce5671461034057806336568abe1461035c57600080fd5b80630c340a24116101b65780630c340a241461025457806318160ddd1461028d57806323b872dd146102ac578063248a9ca3146102cc57600080fd5b806301ffc9a7146101dd57806306fdde0314610212578063095ea7b314610234575b600080fd5b3480156101e957600080fd5b506101fd6101f8366004611d3f565b6105e6565b60405190151581526020015b60405180910390f35b34801561021e57600080fd5b50610227610611565b6040516102099190611d8d565b34801561024057600080fd5b506101fd61024f366004611dd5565b6106a3565b34801561026057600080fd5b5061019154610275906001600160a01b031681565b6040516001600160a01b039091168152602001610209565b34801561029957600080fd5b5060cb545b604051908152602001610209565b3480156102b857600080fd5b506101fd6102c7366004611e01565b6106bb565b3480156102d857600080fd5b5061029e6102e7366004611e42565b60009081526065602052604090206001015490565b34801561030857600080fd5b5061029e60008051602061241f83398151915281565b34801561032a57600080fd5b5061033e610339366004611e5b565b6106e1565b005b34801561034c57600080fd5b5060405160128152602001610209565b34801561036857600080fd5b5061033e610377366004611e5b565b61070b565b34801561038857600080fd5b5061033e610397366004611e8b565b61078e565b3480156103a857600080fd5b506101fd6103b7366004611dd5565b61086d565b3480156103c857600080fd5b5061033e6103d7366004611dd5565b61088f565b61033e6103ea366004611f34565b6108b1565b3480156103fb57600080fd5b5061029e61097d565b34801561041057600080fd5b5061029e61041f366004611e8b565b6001600160a01b0316600090815260c9602052604090205490565b34801561044657600080fd5b5061033e610455366004611fb8565b610a30565b34801561046657600080fd5b50610275610475366004612041565b610b49565b34801561048657600080fd5b506101fd610495366004611e5b565b610b61565b3480156104a657600080fd5b50610227610b8c565b3480156104bb57600080fd5b5061033e6104ca366004611dd5565b610b9b565b3480156104db57600080fd5b5061029e600081565b3480156104f057600080fd5b506101fd6104ff366004611dd5565b610bbd565b34801561051057600080fd5b506101fd61051f366004611dd5565b610c43565b34801561053057600080fd5b5061029e61053f366004611e42565b610c51565b34801561055057600080fd5b5061029e60008051602061248683398151915281565b34801561057257600080fd5b5061033e610581366004611e5b565b610c68565b34801561059257600080fd5b506101fd6105a1366004611e8b565b610c8d565b3480156105b257600080fd5b5061029e6105c1366004612063565b610cd8565b3480156105d257600080fd5b5061033e6105e1366004611e8b565b610d03565b60006001600160e01b03198216635a05180f60e01b148061060b575061060b82610d2e565b92915050565b606060cc805461062090612091565b80601f016020809104026020016040519081016040528092919081815260200182805461064c90612091565b80156106995780601f1061066e57610100808354040283529160200191610699565b820191906000526020600020905b81548152906001019060200180831161067c57829003601f168201915b5050505050905090565b6000336106b1818585610d63565b5060019392505050565b6000336106c9858285610e87565b6106d4858585610f01565b60019150505b9392505050565b6000828152606560205260409020600101546106fc816110ac565b61070683836110b6565b505050565b6001600160a01b03811633146107805760405162461bcd60e51b815260206004820152602f60248201527f416363657373436f6e74726f6c3a2063616e206f6e6c792072656e6f756e636560448201526e103937b632b9903337b91039b2b63360891b60648201526084015b60405180910390fd5b61078a82826110d8565b5050565b6001600160a01b037f00000000000000000000000000000000000000000000000000000000000000001630036107d65760405162461bcd60e51b8152600401610777906120cb565b7f00000000000000000000000000000000000000000000000000000000000000006001600160a01b031661081f60008051602061243f833981519152546001600160a01b031690565b6001600160a01b0316146108455760405162461bcd60e51b815260040161077790612117565b61084e816110fa565b6040805160008082526020820190925261086a91839190611102565b50565b6000336106b18185856108808383610cd8565b61088a9190612179565b610d63565b6000805160206124868339815191526108a7816110ac565b610706838361126d565b6001600160a01b037f00000000000000000000000000000000000000000000000000000000000000001630036108f95760405162461bcd60e51b8152600401610777906120cb565b7f00000000000000000000000000000000000000000000000000000000000000006001600160a01b031661094260008051602061243f833981519152546001600160a01b031690565b6001600160a01b0316146109685760405162461bcd60e51b815260040161077790612117565b610971826110fa565b61078a82826001611102565b6000306001600160a01b037f00000000000000000000000000000000000000000000000000000000000000001614610a1d5760405162461bcd60e51b815260206004820152603860248201527f555550535570677261646561626c653a206d757374206e6f742062652063616c60448201527f6c6564207468726f7567682064656c656761746563616c6c00000000000000006064820152608401610777565b5060008051602061243f83398151915290565b600054610100900460ff1615808015610a505750600054600160ff909116105b80610a6a5750303b158015610a6a575060005460ff166001145b610acd5760405162461bcd60e51b815260206004820152602e60248201527f496e697469616c697a61626c653a20636f6e747261637420697320616c72656160448201526d191e481a5b9a5d1a585b1a5e995960921b6064820152608401610777565b6000805460ff191660011790558015610af0576000805461ff0019166101001790555b610afc8585858561132e565b8015610b42576000805461ff0019169055604051600181527f7f26b83ff96e1f2b6a682f133852f6798a09c465da95921460cefb38474024989060200160405180910390a15b5050505050565b60008281526097602052604081206106da90836113b3565b60009182526065602090815260408084206001600160a01b0393909316845291905290205460ff1690565b606060cd805461062090612091565b60008051602061241f833981519152610bb3816110ac565b61070683836113bf565b60003381610bcb8286610cd8565b905083811015610c2b5760405162461bcd60e51b815260206004820152602560248201527f45524332303a2064656372656173656420616c6c6f77616e63652062656c6f77604482015264207a65726f60d81b6064820152608401610777565b610c388286868403610d63565b506001949350505050565b6000336106b1818585610f01565b600081815260976020526040812061060b906114f3565b600082815260656020526040902060010154610c83816110ac565b61070683836110d8565b6000610ca760008051602061248683398151915283610b61565b8015610cc65750610cc660008051602061241f83398151915283610b61565b801561060b575061060b600083610b61565b6001600160a01b03918216600090815260ca6020908152604080832093909416825291909152205490565b610d0b6114fd565b61019180546001600160a01b0319166001600160a01b0392909216919091179055565b60006001600160e01b03198216637965db0b60e01b148061060b57506301ffc9a760e01b6001600160e01b031983161461060b565b6001600160a01b038316610dc55760405162461bcd60e51b8152602060048201526024808201527f45524332303a20617070726f76652066726f6d20746865207a65726f206164646044820152637265737360e01b6064820152608401610777565b6001600160a01b038216610e265760405162461bcd60e51b815260206004820152602260248201527f45524332303a20617070726f766520746f20746865207a65726f206164647265604482015261737360f01b6064820152608401610777565b6001600160a01b03838116600081815260ca602090815260408083209487168084529482529182902085905590518481527f8c5be1e5ebec7d5bd14f71427d1e84f3dd0314c0f7b2291e5b200ac8c7c3b925910160405180910390a3505050565b6000610e938484610cd8565b90506000198114610efb5781811015610eee5760405162461bcd60e51b815260206004820152601d60248201527f45524332303a20696e73756666696369656e7420616c6c6f77616e63650000006044820152606401610777565b610efb8484848403610d63565b50505050565b6001600160a01b038316610f655760405162461bcd60e51b815260206004820152602560248201527f45524332303a207472616e736665722066726f6d20746865207a65726f206164604482015264647265737360d81b6064820152608401610777565b6001600160a01b038216610fc75760405162461bcd60e51b815260206004820152602360248201527f45524332303a207472616e7366657220746f20746865207a65726f206164647260448201526265737360e81b6064820152608401610777565b6001600160a01b038316600090815260c960205260409020548181101561103f5760405162461bcd60e51b815260206004820152602660248201527f45524332303a207472616e7366657220616d6f756e7420657863656564732062604482015265616c616e636560d01b6064820152608401610777565b6001600160a01b03808516600081815260c9602052604080822086860390559286168082529083902080548601905591517fddf252ad1be2c89b69c2b068fc378daa952ba7f163c4a11628f55a4df523b3ef9061109f9086815260200190565b60405180910390a3610efb565b61086a8133611589565b6110c082826115e2565b60008281526097602052604090206107069082611668565b6110e2828261167d565b600082815260976020526040902061070690826116e4565b61086a6114fd565b7f4910fdfa16fed3260ed0e7147f7cc6da11a60208b5b9406d12a635614ffd91435460ff161561113557610706836116f9565b826001600160a01b03166352d1902d6040518163ffffffff1660e01b8152600401602060405180830381865afa92505050801561118f575060408051601f3d908101601f1916820190925261118c9181019061218c565b60015b6111f25760405162461bcd60e51b815260206004820152602e60248201527f45524331393637557067726164653a206e657720696d706c656d656e7461746960448201526d6f6e206973206e6f74205555505360901b6064820152608401610777565b60008051602061243f83398151915281146112615760405162461bcd60e51b815260206004820152602960248201527f45524331393637557067726164653a20756e737570706f727465642070726f786044820152681a58589b195555525160ba1b6064820152608401610777565b50610706838383611795565b6001600160a01b0382166112c35760405162461bcd60e51b815260206004820152601f60248201527f45524332303a206d696e7420746f20746865207a65726f2061646472657373006044820152606401610777565b8060cb60008282546112d59190612179565b90915550506001600160a01b038216600081815260c960209081526040808320805486019055518481527fddf252ad1be2c89b69c2b068fc378daa952ba7f163c4a11628f55a4df523b3ef910160405180910390a35050565b600054610100900460ff166113555760405162461bcd60e51b8152600401610777906121a5565b61135f84846117ba565b6113676117eb565b61136f6117eb565b61137881611812565b611383600083611842565b61139b60008051602061248683398151915283611842565b610efb60008051602061241f83398151915283611842565b60006106da838361184c565b6001600160a01b03821661141f5760405162461bcd60e51b815260206004820152602160248201527f45524332303a206275726e2066726f6d20746865207a65726f206164647265736044820152607360f81b6064820152608401610777565b6001600160a01b038216600090815260c96020526040902054818110156114935760405162461bcd60e51b815260206004820152602260248201527f45524332303a206275726e20616d6f756e7420657863656564732062616c616e604482015261636560f01b6064820152608401610777565b6001600160a01b038316600081815260c960209081526040808320868603905560cb80548790039055518581529192917fddf252ad1be2c89b69c2b068fc378daa952ba7f163c4a11628f55a4df523b3ef910160405180910390a3505050565b600061060b825490565b6101915460405163d994d6d560e01b81523360048201526001600160a01b039091169063d994d6d590602401602060405180830381865afa158015611546573d6000803e3d6000fd5b505050506040513d601f19601f8201168201806040525081019061156a91906121f0565b61158757604051631dd1b1b560e21b815260040160405180910390fd5b565b6115938282610b61565b61078a576115a081611876565b6115ab836020611888565b6040516020016115bc929190612212565b60408051601f198184030181529082905262461bcd60e51b825261077791600401611d8d565b6115ec8282610b61565b61078a5760008281526065602090815260408083206001600160a01b03851684529091529020805460ff191660011790556116243390565b6001600160a01b0316816001600160a01b0316837f2f8788117e7eff1d82e926ec794901d17c78024a50270940304540a733656f0d60405160405180910390a45050565b60006106da836001600160a01b038416611a24565b6116878282610b61565b1561078a5760008281526065602090815260408083206001600160a01b0385168085529252808320805460ff1916905551339285917ff6391f5c32d9c69d2a47ea670b442974b53935d1edc7fd64eb21e047a839171b9190a45050565b60006106da836001600160a01b038416611a73565b6001600160a01b0381163b6117665760405162461bcd60e51b815260206004820152602d60248201527f455243313936373a206e657720696d706c656d656e746174696f6e206973206e60448201526c1bdd08184818dbdb9d1c9858dd609a1b6064820152608401610777565b60008051602061243f83398151915280546001600160a01b0319166001600160a01b0392909216919091179055565b61179e83611b66565b6000825111806117ab5750805b1561070657610efb8383611ba6565b600054610100900460ff166117e15760405162461bcd60e51b8152600401610777906121a5565b61078a8282611c9a565b600054610100900460ff166115875760405162461bcd60e51b8152600401610777906121a5565b600054610100900460ff166118395760405162461bcd60e51b8152600401610777906121a5565b61086a81611cda565b61078a82826110b6565b600082600001828154811061186357611863612287565b9060005260206000200154905092915050565b606061060b6001600160a01b03831660145b6060600061189783600261229d565b6118a2906002612179565b67ffffffffffffffff8111156118ba576118ba611ea8565b6040519080825280601f01601f1916602001820160405280156118e4576020820181803683370190505b509050600360fc1b816000815181106118ff576118ff612287565b60200101906001600160f81b031916908160001a905350600f60fb1b8160018151811061192e5761192e612287565b60200101906001600160f81b031916908160001a905350600061195284600261229d565b61195d906001612179565b90505b60018111156119d5576f181899199a1a9b1b9c1cb0b131b232b360811b85600f166010811061199157611991612287565b1a60f81b8282815181106119a7576119a7612287565b60200101906001600160f81b031916908160001a90535060049490941c936119ce816122b4565b9050611960565b5083156106da5760405162461bcd60e51b815260206004820181905260248201527f537472696e67733a20686578206c656e67746820696e73756666696369656e746044820152606401610777565b6000818152600183016020526040812054611a6b5750815460018181018455600084815260208082209093018490558454848252828601909352604090209190915561060b565b50600061060b565b60008181526001830160205260408120548015611b5c576000611a976001836122cb565b8554909150600090611aab906001906122cb565b9050818114611b10576000866000018281548110611acb57611acb612287565b9060005260206000200154905080876000018481548110611aee57611aee612287565b6000918252602080832090910192909255918252600188019052604090208390555b8554869080611b2157611b216122de565b60019003818190600052602060002001600090559055856001016000868152602001908152602001600020600090556001935050505061060b565b600091505061060b565b611b6f816116f9565b6040516001600160a01b038216907fbc7cd75a20ee27fd9adebab32041f755214dbc6bffa90cc0225b39da2e5c2d3b90600090a250565b60606001600160a01b0383163b611c0e5760405162461bcd60e51b815260206004820152602660248201527f416464726573733a2064656c65676174652063616c6c20746f206e6f6e2d636f6044820152651b9d1c9858dd60d21b6064820152608401610777565b600080846001600160a01b031684604051611c2991906122f4565b600060405180830381855af49150503d8060008114611c64576040519150601f19603f3d011682016040523d82523d6000602084013e611c69565b606091505b5091509150611c91828260405180606001604052806027815260200161245f60279139611d01565b95945050505050565b600054610100900460ff16611cc15760405162461bcd60e51b8152600401610777906121a5565b60cc611ccd838261235e565b5060cd610706828261235e565b600054610100900460ff16610d0b5760405162461bcd60e51b8152600401610777906121a5565b60608315611d105750816106da565b6106da8383815115611d255781518083602001fd5b8060405162461bcd60e51b81526004016107779190611d8d565b600060208284031215611d5157600080fd5b81356001600160e01b0319811681146106da57600080fd5b60005b83811015611d84578181015183820152602001611d6c565b50506000910152565b6020815260008251806020840152611dac816040850160208701611d69565b601f01601f19169190910160400192915050565b6001600160a01b038116811461086a57600080fd5b60008060408385031215611de857600080fd5b8235611df381611dc0565b946020939093013593505050565b600080600060608486031215611e1657600080fd5b8335611e2181611dc0565b92506020840135611e3181611dc0565b929592945050506040919091013590565b600060208284031215611e5457600080fd5b5035919050565b60008060408385031215611e6e57600080fd5b823591506020830135611e8081611dc0565b809150509250929050565b600060208284031215611e9d57600080fd5b81356106da81611dc0565b634e487b7160e01b600052604160045260246000fd5b600067ffffffffffffffff80841115611ed957611ed9611ea8565b604051601f8501601f19908116603f01168101908282118183101715611f0157611f01611ea8565b81604052809350858152868686011115611f1a57600080fd5b858560208301376000602087830101525050509392505050565b60008060408385031215611f4757600080fd5b8235611f5281611dc0565b9150602083013567ffffffffffffffff811115611f6e57600080fd5b8301601f81018513611f7f57600080fd5b611f8e85823560208401611ebe565b9150509250929050565b600082601f830112611fa957600080fd5b6106da83833560208501611ebe565b60008060008060808587031215611fce57600080fd5b843567ffffffffffffffff80821115611fe657600080fd5b611ff288838901611f98565b9550602087013591508082111561200857600080fd5b5061201587828801611f98565b935050604085013561202681611dc0565b9150606085013561203681611dc0565b939692955090935050565b6000806040838503121561205457600080fd5b50508035926020909101359150565b6000806040838503121561207657600080fd5b823561208181611dc0565b91506020830135611e8081611dc0565b600181811c908216806120a557607f821691505b6020821081036120c557634e487b7160e01b600052602260045260246000fd5b50919050565b6020808252602c908201527f46756e6374696f6e206d7573742062652063616c6c6564207468726f7567682060408201526b19195b1959d85d1958d85b1b60a21b606082015260800190565b6020808252602c908201527f46756e6374696f6e206d7573742062652063616c6c6564207468726f7567682060408201526b6163746976652070726f787960a01b606082015260800190565b634e487b7160e01b600052601160045260246000fd5b8082018082111561060b5761060b612163565b60006020828403121561219e57600080fd5b5051919050565b6020808252602b908201527f496e697469616c697a61626c653a20636f6e7472616374206973206e6f74206960408201526a6e697469616c697a696e6760a81b606082015260800190565b60006020828403121561220257600080fd5b815180151581146106da57600080fd5b7f416363657373436f6e74726f6c3a206163636f756e742000000000000000000081526000835161224a816017850160208801611d69565b7001034b99036b4b9b9b4b733903937b6329607d1b601791840191820152835161227b816028840160208801611d69565b01602801949350505050565b634e487b7160e01b600052603260045260246000fd5b808202811582820484141761060b5761060b612163565b6000816122c3576122c3612163565b506000190190565b8181038181111561060b5761060b612163565b634e487b7160e01b600052603160045260246000fd5b60008251612306818460208701611d69565b9190910192915050565b601f82111561070657600081815260208120601f850160051c810160208610156123375750805b601f850160051c820191505b8181101561235657828155600101612343565b505050505050565b815167ffffffffffffffff81111561237857612378611ea8565b61238c816123868454612091565b84612310565b602080601f8311600181146123c157600084156123a95750858301515b600019600386901b1c1916600185901b178555612356565b600085815260208120601f198616915b828110156123f0578886015182559484019460019091019084016123d1565b508582101561240e5787850151600019600388901b60f8161c191681555b5050505050600190811b0190555056fe3c11d16cbaffd01df69ce1c404f6340ee057498f5f00246190ea54220576a848360894a13ba1a3210667c828492db98dca3e2076cc3735a920a3ca505d382bbc416464726573733a206c6f772d6c6576656c2064656c65676174652063616c6c206661696c65649f2df0fed2c77648de5860a4cc508cd0818c85b8b8a1ab4ceeef8d981c8956a6a26469706673582212209b84d9b09eac16df6f202255a5f965fa421b2997eee492ed4ad4d5a225b8b28c64736f6c63430008110033608060405234801561001057600080fd5b5060405161018138038061018183398101604081905261002f91610043565b6000556001805460ff19168117905561005c565b60006020828403121561005557600080fd5b5051919050565b6101168061006b6000396000f3fe6080604052348015600f57600080fd5b506004361060505760003560e01c80632a3f438914605557806332145f901460705780635095e3d914608257806359e02dd7146090578063b689d5ac1460ad575b600080fd5b605d60005481565b6040519081526020015b60405180910390f35b6080607b36600460c8565b600055565b005b60806001805460ff19169055565b60005460015460ff16604080519283529015156020830152016067565b60015460b99060ff1681565b60405190151581526020016067565b60006020828403121560d957600080fd5b503591905056fea26469706673582212202f32d9766874d6a34191093ea824c1f980a41bb7d175c2d324f81871df97720a64736f6c6343000811003360806040526005805460ff191660121790553480156200001e57600080fd5b5060408051808201825260098082526845524332304d6f636b60b81b602080840182905284518086019095529184529083015290600362000060838262000207565b5060046200006f828262000207565b506200009291503390506200008c6402540be400600019620002d3565b62000098565b6200031e565b6001600160a01b038216620000f35760405162461bcd60e51b815260206004820152601f60248201527f45524332303a206d696e7420746f20746865207a65726f206164647265737300604482015260640160405180910390fd5b8060026000828254620001079190620002f6565b90915550506001600160a01b038216600081815260208181526040808320805486019055518481527fddf252ad1be2c89b69c2b068fc378daa952ba7f163c4a11628f55a4df523b3ef910160405180910390a35050565b505050565b634e487b7160e01b600052604160045260246000fd5b600181811c908216806200018e57607f821691505b602082108103620001af57634e487b7160e01b600052602260045260246000fd5b50919050565b601f8211156200015e57600081815260208120601f850160051c81016020861015620001de5750805b601f850160051c820191505b81811015620001ff57828155600101620001ea565b505050505050565b81516001600160401b0381111562000223576200022362000163565b6200023b8162000234845462000179565b84620001b5565b602080601f8311600181146200027357600084156200025a5750858301515b600019600386901b1c1916600185901b178555620001ff565b600085815260208120601f198616915b82811015620002a45788860151825594840194600190910190840162000283565b5085821015620002c35787850151600019600388901b60f8161c191681555b5050505050600190811b01905550565b600082620002f157634e487b7160e01b600052601260045260246000fd5b500490565b808201808211156200031857634e487b7160e01b600052601160045260246000fd5b92915050565b610c70806200032e6000396000f3fe608060405234801561001057600080fd5b50600436106101165760003560e01c806370a08231116100a25780639dc29fac116100715780639dc29fac14610250578063a457c2d714610263578063a9059cbb14610276578063ace28fa514610289578063dd62ed3e1461029657600080fd5b806370a08231146101e857806379cc6790146102115780637a1395aa1461022457806395d89b411461024857600080fd5b8063313ce567116100e9578063313ce56714610181578063395093511461019a57806340c10f19146101ad57806342966c68146101c25780635c2f5e26146101d557600080fd5b806306fdde031461011b578063095ea7b31461013957806318160ddd1461015c57806323b872dd1461016e575b600080fd5b6101236102a9565b6040516101309190610a4e565b60405180910390f35b61014c610147366004610ab8565b61033b565b6040519015158152602001610130565b6002545b604051908152602001610130565b61014c61017c366004610ae2565b610355565b60055460ff165b60405160ff9091168152602001610130565b61014c6101a8366004610ab8565b610379565b6101c06101bb366004610ab8565b61039b565b005b6101c06101d0366004610b1e565b6103a9565b6101c06101e3366004610b37565b6103b6565b6101606101f6366004610b58565b6001600160a01b031660009081526020819052604090205490565b6101c061021f366004610ab8565b6103df565b6101c0610232366004610b73565b6005805460ff191660ff92909216919091179055565b6101236103f4565b6101c061025e366004610ab8565b6103ea565b61014c610271366004610ab8565b610403565b61014c610284366004610ab8565b610483565b6005546101889060ff1681565b6101606102a4366004610b96565b6104e9565b6060600380546102b890610bc9565b80601f01602080910402602001604051908101604052809291908181526020018280546102e490610bc9565b80156103315780601f1061030657610100808354040283529160200191610331565b820191906000526020600020905b81548152906001019060200180831161031457829003601f168201915b5050505050905090565b600033610349818585610514565b60019150505b92915050565b600033610363858285610639565b61036e8585856106b3565b506001949350505050565b60003361034981858561038c83836104e9565b6103969190610c03565b610514565b6103a58282610857565b5050565b6103b33382610916565b50565b6005805482919061ff0019166101008360028111156103d7576103d7610c24565b021790555050565b6103ea823383610639565b6103a58282610916565b6060600480546102b890610bc9565b6000338161041182866104e9565b9050838110156104765760405162461bcd60e51b815260206004820152602560248201527f45524332303a2064656372656173656420616c6c6f77616e63652062656c6f77604482015264207a65726f60d81b60648201526084015b60405180910390fd5b61036e8286868403610514565b60006001600554610100900460ff1660028111156104a3576104a3610c24565b036104b05750600061034f565b6002600554610100900460ff1660028111156104ce576104ce610c24565b036104d857600080fd5b6104e28383610a40565b9392505050565b6001600160a01b03918216600090815260016020908152604080832093909416825291909152205490565b6001600160a01b0383166105765760405162461bcd60e51b8152602060048201526024808201527f45524332303a20617070726f76652066726f6d20746865207a65726f206164646044820152637265737360e01b606482015260840161046d565b6001600160a01b0382166105d75760405162461bcd60e51b815260206004820152602260248201527f45524332303a20617070726f766520746f20746865207a65726f206164647265604482015261737360f01b606482015260840161046d565b6001600160a01b0383811660008181526001602090815260408083209487168084529482529182902085905590518481527f8c5be1e5ebec7d5bd14f71427d1e84f3dd0314c0f7b2291e5b200ac8c7c3b92591015b60405180910390a3505050565b600061064584846104e9565b905060001981146106ad57818110156106a05760405162461bcd60e51b815260206004820152601d60248201527f45524332303a20696e73756666696369656e7420616c6c6f77616e6365000000604482015260640161046d565b6106ad8484848403610514565b50505050565b6001600160a01b0383166107175760405162461bcd60e51b815260206004820152602560248201527f45524332303a207472616e736665722066726f6d20746865207a65726f206164604482015264647265737360d81b606482015260840161046d565b6001600160a01b0382166107795760405162461bcd60e51b815260206004820152602360248201527f45524332303a207472616e7366657220746f20746865207a65726f206164647260448201526265737360e81b606482015260840161046d565b6001600160a01b038316600090815260208190526040902054818110156107f15760405162461bcd60e51b815260206004820152602660248201527f45524332303a207472616e7366657220616d6f756e7420657863656564732062604482015265616c616e636560d01b606482015260840161046d565b6001600160a01b03848116600081815260208181526040808320878703905593871680835291849020805487019055925185815290927fddf252ad1be2c89b69c2b068fc378daa952ba7f163c4a11628f55a4df523b3ef910160405180910390a36106ad565b6001600160a01b0382166108ad5760405162461bcd60e51b815260206004820152601f60248201527f45524332303a206d696e7420746f20746865207a65726f206164647265737300604482015260640161046d565b80600260008282546108bf9190610c03565b90915550506001600160a01b038216600081815260208181526040808320805486019055518481527fddf252ad1be2c89b69c2b068fc378daa952ba7f163c4a11628f55a4df523b3ef910160405180910390a35050565b6001600160a01b0382166109765760405162461bcd60e51b815260206004820152602160248201527f45524332303a206275726e2066726f6d20746865207a65726f206164647265736044820152607360f81b606482015260840161046d565b6001600160a01b038216600090815260208190526040902054818110156109ea5760405162461bcd60e51b815260206004820152602260248201527f45524332303a206275726e20616d6f756e7420657863656564732062616c616e604482015261636560f01b606482015260840161046d565b6001600160a01b0383166000818152602081815260408083208686039055600280548790039055518581529192917fddf252ad1be2c89b69c2b068fc378daa952ba7f163c4a11628f55a4df523b3ef910161062c565b6000336103498185856106b3565b600060208083528351808285015260005b81811015610a7b57858101830151858201604001528201610a5f565b506000604082860101526040601f19601f8301168501019250505092915050565b80356001600160a01b0381168114610ab357600080fd5b919050565b60008060408385031215610acb57600080fd5b610ad483610a9c565b946020939093013593505050565b600080600060608486031215610af757600080fd5b610b0084610a9c565b9250610b0e60208501610a9c565b9150604084013590509250925092565b600060208284031215610b3057600080fd5b5035919050565b600060208284031215610b4957600080fd5b8135600381106104e257600080fd5b600060208284031215610b6a57600080fd5b6104e282610a9c565b600060208284031215610b8557600080fd5b813560ff811681146104e257600080fd5b60008060408385031215610ba957600080fd5b610bb283610a9c565b9150610bc060208401610a9c565b90509250929050565b600181811c90821680610bdd57607f821691505b602082108103610bfd57634e487b7160e01b600052602260045260246000fd5b50919050565b8082018082111561034f57634e487b7160e01b600052601160045260246000fd5b634e487b7160e01b600052602160045260246000fdfea2646970667358221220f977e1a865fe9881031897d86d1defa0fecde290bd84e65ae67644da6857742964736f6c63430008110033608060405234801561001057600080fd5b5060405161043c38038061043c83398101604081905261002f91610061565b6000805460ff909216600160a01b026001600160a81b03199092166001600160a01b03909316929092171790556100ae565b6000806040838503121561007457600080fd5b82516001600160a01b038116811461008b57600080fd5b8092505060208301518060000b81146100a357600080fd5b809150509250929050565b61037f806100bd6000396000f3fe608060405234801561001057600080fd5b50600436106100415760003560e01c806312fc41ca1461004657806359e02dd714610073578063b888879e14610090575b600080fd5b6000805461005b91600160a01b909104900b81565b60405160009190910b81526020015b60405180910390f35b61007b6100bb565b6040805192835290151560208301520161006a565b6000546100a3906001600160a01b031681565b6040516001600160a01b03909116815260200161006a565b60008054604080516359e02dd760e01b8152815184936001600160a01b0316926359e02dd792600480820193918290030181865afa158015610101573d6000803e3d6000fd5b505050506040513d601f19601f8201168201806040525081019061012591906101ab565b60008054929450909250600160a01b909104810b1315610168576000805461015891600160a01b909104900b600a6102dc565b61016290836102f2565b91509091565b60008054600160a01b9004810b12156101a7576000805461019291600160a01b909104900b610309565b61019d90600a6102dc565b6101629083610327565b9091565b600080604083850312156101be57600080fd5b82519150602083015180151581146101d557600080fd5b809150509250929050565b634e487b7160e01b600052601160045260246000fd5b600181815b80851115610231578160001904821115610217576102176101e0565b8085161561022457918102915b93841c93908002906101fb565b509250929050565b600082610248575060016102d6565b81610255575060006102d6565b816001811461026b576002811461027557610291565b60019150506102d6565b60ff841115610286576102866101e0565b50506001821b6102d6565b5060208310610133831016604e8410600b84101617156102b4575081810a6102d6565b6102be83836101f6565b80600019048211156102d2576102d26101e0565b0290505b92915050565b60006102eb60ff841683610239565b9392505050565b80820281158282048414176102d6576102d66101e0565b600081810b6080810161031e5761031e6101e0565b60000392915050565b60008261034457634e487b7160e01b600052601260045260246000fd5b50049056fea264697066735822122043180cbe397369638af36cf919d218d540e2198fe4bcb2ed08e81dee8b4830f764736f6c63430008110033608060405260405161072738038061072783398101604081905261002291610319565b61002e82826000610035565b5050610436565b61003e8361006b565b60008251118061004b5750805b156100665761006483836100ab60201b6100291760201c565b505b505050565b610074816100d7565b6040516001600160a01b038216907fbc7cd75a20ee27fd9adebab32041f755214dbc6bffa90cc0225b39da2e5c2d3b90600090a250565b60606100d08383604051806060016040528060278152602001610700602791396101a9565b9392505050565b6100ea8161022260201b6100551760201c565b6101515760405162461bcd60e51b815260206004820152602d60248201527f455243313936373a206e657720696d706c656d656e746174696f6e206973206e60448201526c1bdd08184818dbdb9d1c9858dd609a1b60648201526084015b60405180910390fd5b806101887f360894a13ba1a3210667c828492db98dca3e2076cc3735a920a3ca505d382bbc60001b61023160201b6100641760201c565b80546001600160a01b0319166001600160a01b039290921691909117905550565b6060600080856001600160a01b0316856040516101c691906103e7565b600060405180830381855af49150503d8060008114610201576040519150601f19603f3d011682016040523d82523d6000602084013e610206565b606091505b50909250905061021886838387610234565b9695505050505050565b6001600160a01b03163b151590565b90565b606083156102a357825160000361029c576001600160a01b0385163b61029c5760405162461bcd60e51b815260206004820152601d60248201527f416464726573733a2063616c6c20746f206e6f6e2d636f6e74726163740000006044820152606401610148565b50816102ad565b6102ad83836102b5565b949350505050565b8151156102c55781518083602001fd5b8060405162461bcd60e51b81526004016101489190610403565b634e487b7160e01b600052604160045260246000fd5b60005b838110156103105781810151838201526020016102f8565b50506000910152565b6000806040838503121561032c57600080fd5b82516001600160a01b038116811461034357600080fd5b60208401519092506001600160401b038082111561036057600080fd5b818501915085601f83011261037457600080fd5b815181811115610386576103866102df565b604051601f8201601f19908116603f011681019083821181831017156103ae576103ae6102df565b816040528281528860208487010111156103c757600080fd5b6103d88360208301602088016102f5565b80955050505050509250929050565b600082516103f98184602087016102f5565b9190910192915050565b60208152600082518060208401526104228160408501602087016102f5565b601f01601f19169190910160400192915050565b6102bb806104456000396000f3fe60806040523661001357610011610017565b005b6100115b610027610022610067565b61009f565b565b606061004e838360405180606001604052806027815260200161025f602791396100c3565b9392505050565b6001600160a01b03163b151590565b90565b600061009a7f360894a13ba1a3210667c828492db98dca3e2076cc3735a920a3ca505d382bbc546001600160a01b031690565b905090565b3660008037600080366000845af43d6000803e8080156100be573d6000f35b3d6000fd5b6060600080856001600160a01b0316856040516100e0919061020f565b600060405180830381855af49150503d806000811461011b576040519150601f19603f3d011682016040523d82523d6000602084013e610120565b606091505b50915091506101318683838761013b565b9695505050505050565b606083156101af5782516000036101a8576001600160a01b0385163b6101a85760405162461bcd60e51b815260206004820152601d60248201527f416464726573733a2063616c6c20746f206e6f6e2d636f6e747261637400000060448201526064015b60405180910390fd5b50816101b9565b6101b983836101c1565b949350505050565b8151156101d15781518083602001fd5b8060405162461bcd60e51b815260040161019f919061022b565b60005b838110156102065781810151838201526020016101ee565b50506000910152565b600082516102218184602087016101eb565b9190910192915050565b602081526000825180602084015261024a8160408501602087016101eb565b601f01601f1916919091016040019291505056fe416464726573733a206c6f772d6c6576656c2064656c65676174652063616c6c206661696c6564a2646970667358221220687bc65f742577afa32edc32468487a306093fad2f395880fa5ffa4efc5fdd6064736f6c63430008110033416464726573733a206c6f772d6c6576656c2064656c65676174652063616c6c206661696c6564a264697066735822122004e090bda469e04476aba35765c5e2378955d08229dca1ac130ab23ecb0bff6b64736f6c6343000811003360806040526000805460ff1916600117905534801561001d57600080fd5b506101aa8061002d6000396000f3fe608060405234801561001057600080fd5b506004361061004c5760003560e01c806357e6c2f4146100515780638c777e82146100725780639e0a8e0914610087578063d994d6d5146100a8575b600080fd5b60005461005e9060ff1681565b604051901515815260200160405180910390f35b61008561008036600461012e565b6100c0565b005b610085610095366004610152565b6000805460ff1916911515919091179055565b61005e6100b636600461012e565b5060005460ff1690565b806001600160a01b031663614619546040518163ffffffff1660e01b8152600401600060405180830381600087803b1580156100fb57600080fd5b505af115801561010f573d6000803e3d6000fd5b5050505050565b6001600160a01b038116811461012b57600080fd5b50565b60006020828403121561014057600080fd5b813561014b81610116565b9392505050565b60006020828403121561016457600080fd5b8135801515811461014b57600080fdfea26469706673582212208582db8b63122237ccf1fba83d5f171fee83188f8c6314ff94086a187f8d06fd64736f6c6343000811003360806040526005805460ff191660121790553480156200001e57600080fd5b5060408051808201825260098082526845524332304d6f636b60b81b602080840182905284518086019095529184529083015290600362000060838262000207565b5060046200006f828262000207565b506200009291503390506200008c6402540be400600019620002d3565b62000098565b6200031e565b6001600160a01b038216620000f35760405162461bcd60e51b815260206004820152601f60248201527f45524332303a206d696e7420746f20746865207a65726f206164647265737300604482015260640160405180910390fd5b8060026000828254620001079190620002f6565b90915550506001600160a01b038216600081815260208181526040808320805486019055518481527fddf252ad1be2c89b69c2b068fc378daa952ba7f163c4a11628f55a4df523b3ef910160405180910390a35050565b505050565b634e487b7160e01b600052604160045260246000fd5b600181811c908216806200018e57607f821691505b602082108103620001af57634e487b7160e01b600052602260045260246000fd5b50919050565b601f8211156200015e57600081815260208120601f850160051c81016020861015620001de5750805b601f850160051c820191505b81811015620001ff57828155600101620001ea565b505050505050565b81516001600160401b0381111562000223576200022362000163565b6200023b8162000234845462000179565b84620001b5565b602080601f8311600181146200027357600084156200025a5750858301515b600019600386901b1c1916600185901b178555620001ff565b600085815260208120601f198616915b82811015620002a45788860151825594840194600190910190840162000283565b5085821015620002c35787850151600019600388901b60f8161c191681555b5050505050600190811b01905550565b600082620002f157634e487b7160e01b600052601260045260246000fd5b500490565b808201808211156200031857634e487b7160e01b600052601160045260246000fd5b92915050565b610c70806200032e6000396000f3fe608060405234801561001057600080fd5b50600436106101165760003560e01c806370a08231116100a25780639dc29fac116100715780639dc29fac14610250578063a457c2d714610263578063a9059cbb14610276578063ace28fa514610289578063dd62ed3e1461029657600080fd5b806370a08231146101e857806379cc6790146102115780637a1395aa1461022457806395d89b411461024857600080fd5b8063313ce567116100e9578063313ce56714610181578063395093511461019a57806340c10f19146101ad57806342966c68146101c25780635c2f5e26146101d557600080fd5b806306fdde031461011b578063095ea7b31461013957806318160ddd1461015c57806323b872dd1461016e575b600080fd5b6101236102a9565b6040516101309190610a4e565b60405180910390f35b61014c610147366004610ab8565b61033b565b6040519015158152602001610130565b6002545b604051908152602001610130565b61014c61017c366004610ae2565b610355565b60055460ff165b60405160ff9091168152602001610130565b61014c6101a8366004610ab8565b610379565b6101c06101bb366004610ab8565b61039b565b005b6101c06101d0366004610b1e565b6103a9565b6101c06101e3366004610b37565b6103b6565b6101606101f6366004610b58565b6001600160a01b031660009081526020819052604090205490565b6101c061021f366004610ab8565b6103df565b6101c0610232366004610b73565b6005805460ff191660ff92909216919091179055565b6101236103f4565b6101c061025e366004610ab8565b6103ea565b61014c610271366004610ab8565b610403565b61014c610284366004610ab8565b610483565b6005546101889060ff1681565b6101606102a4366004610b96565b6104e9565b6060600380546102b890610bc9565b80601f01602080910402602001604051908101604052809291908181526020018280546102e490610bc9565b80156103315780601f1061030657610100808354040283529160200191610331565b820191906000526020600020905b81548152906001019060200180831161031457829003601f168201915b5050505050905090565b600033610349818585610514565b60019150505b92915050565b600033610363858285610639565b61036e8585856106b3565b506001949350505050565b60003361034981858561038c83836104e9565b6103969190610c03565b610514565b6103a58282610857565b5050565b6103b33382610916565b50565b6005805482919061ff0019166101008360028111156103d7576103d7610c24565b021790555050565b6103ea823383610639565b6103a58282610916565b6060600480546102b890610bc9565b6000338161041182866104e9565b9050838110156104765760405162461bcd60e51b815260206004820152602560248201527f45524332303a2064656372656173656420616c6c6f77616e63652062656c6f77604482015264207a65726f60d81b60648201526084015b60405180910390fd5b61036e8286868403610514565b60006001600554610100900460ff1660028111156104a3576104a3610c24565b036104b05750600061034f565b6002600554610100900460ff1660028111156104ce576104ce610c24565b036104d857600080fd5b6104e28383610a40565b9392505050565b6001600160a01b03918216600090815260016020908152604080832093909416825291909152205490565b6001600160a01b0383166105765760405162461bcd60e51b8152602060048201526024808201527f45524332303a20617070726f76652066726f6d20746865207a65726f206164646044820152637265737360e01b606482015260840161046d565b6001600160a01b0382166105d75760405162461bcd60e51b815260206004820152602260248201527f45524332303a20617070726f766520746f20746865207a65726f206164647265604482015261737360f01b606482015260840161046d565b6001600160a01b0383811660008181526001602090815260408083209487168084529482529182902085905590518481527f8c5be1e5ebec7d5bd14f71427d1e84f3dd0314c0f7b2291e5b200ac8c7c3b92591015b60405180910390a3505050565b600061064584846104e9565b905060001981146106ad57818110156106a05760405162461bcd60e51b815260206004820152601d60248201527f45524332303a20696e73756666696369656e7420616c6c6f77616e6365000000604482015260640161046d565b6106ad8484848403610514565b50505050565b6001600160a01b0383166107175760405162461bcd60e51b815260206004820152602560248201527f45524332303a207472616e736665722066726f6d20746865207a65726f206164604482015264647265737360d81b606482015260840161046d565b6001600160a01b0382166107795760405162461bcd60e51b815260206004820152602360248201527f45524332303a207472616e7366657220746f20746865207a65726f206164647260448201526265737360e81b606482015260840161046d565b6001600160a01b038316600090815260208190526040902054818110156107f15760405162461bcd60e51b815260206004820152602660248201527f45524332303a207472616e7366657220616d6f756e7420657863656564732062604482015265616c616e636560d01b606482015260840161046d565b6001600160a01b03848116600081815260208181526040808320878703905593871680835291849020805487019055925185815290927fddf252ad1be2c89b69c2b068fc378daa952ba7f163c4a11628f55a4df523b3ef910160405180910390a36106ad565b6001600160a01b0382166108ad5760405162461bcd60e51b815260206004820152601f60248201527f45524332303a206d696e7420746f20746865207a65726f206164647265737300604482015260640161046d565b80600260008282546108bf9190610c03565b90915550506001600160a01b038216600081815260208181526040808320805486019055518481527fddf252ad1be2c89b69c2b068fc378daa952ba7f163c4a11628f55a4df523b3ef910160405180910390a35050565b6001600160a01b0382166109765760405162461bcd60e51b815260206004820152602160248201527f45524332303a206275726e2066726f6d20746865207a65726f206164647265736044820152607360f81b606482015260840161046d565b6001600160a01b038216600090815260208190526040902054818110156109ea5760405162461bcd60e51b815260206004820152602260248201527f45524332303a206275726e20616d6f756e7420657863656564732062616c616e604482015261636560f01b606482015260840161046d565b6001600160a01b0383166000818152602081815260408083208686039055600280548790039055518581529192917fddf252ad1be2c89b69c2b068fc378daa952ba7f163c4a11628f55a4df523b3ef910161062c565b6000336103498185856106b3565b600060208083528351808285015260005b81811015610a7b57858101830151858201604001528201610a5f565b506000604082860101526040601f19601f8301168501019250505092915050565b80356001600160a01b0381168114610ab357600080fd5b919050565b60008060408385031215610acb57600080fd5b610ad483610a9c565b946020939093013593505050565b600080600060608486031215610af757600080fd5b610b0084610a9c565b9250610b0e60208501610a9c565b9150604084013590509250925092565b600060208284031215610b3057600080fd5b5035919050565b600060208284031215610b4957600080fd5b8135600381106104e257600080fd5b600060208284031215610b6a57600080fd5b6104e282610a9c565b600060208284031215610b8557600080fd5b813560ff811681146104e257600080fd5b60008060408385031215610ba957600080fd5b610bb283610a9c565b9150610bc060208401610a9c565b90509250929050565b600181811c90821680610bdd57607f821691505b602082108103610bfd57634e487b7160e01b600052602260045260246000fd5b50919050565b8082018082111561034f57634e487b7160e01b600052601160045260246000fd5b634e487b7160e01b600052602160045260246000fdfea2646970667358221220f977e1a865fe9881031897d86d1defa0fecde290bd84e65ae67644da6857742964736f6c6343000811003360a0604052306080523480156200001557600080fd5b506200002062000030565b6200002a62000030565b620000f2565b600054610100900460ff16156200009d5760405162461bcd60e51b815260206004820152602760248201527f496e697469616c697a61626c653a20636f6e747261637420697320696e697469604482015266616c697a696e6760c81b606482015260840160405180910390fd5b60005460ff9081161015620000f0576000805460ff191660ff9081179091556040519081527f7f26b83ff96e1f2b6a682f133852f6798a09c465da95921460cefb38474024989060200160405180910390a15b565b6080516127706200012a60003960008181610809015281816108490152818161092c0152818161096c01526109fb01526127706000f3fe6080604052600436106101f95760003560e01c806370a082311161010d578063a457c2d7116100a0578063d547741f1161006f578063d547741f146105b5578063d55fd845146105d5578063dd62ed3e146105f5578063e4c0aaf414610615578063e63ab1e91461063557600080fd5b8063a457c2d714610533578063a9059cbb14610553578063ca15c87314610573578063d53913931461059357600080fd5b806391d14854116100dc57806391d14854146104c957806395d89b41146104e95780639dc29fac146104fe578063a217fddf1461051e57600080fd5b806370a082311461043e5780638456cb59146104745780638f15b414146104895780639010d07c146104a957600080fd5b80632f2ff15d11610190578063395093511161015f57806339509351146103bd57806340c10f19146103dd5780634f1ef286146103fd57806352d1902d146104105780635c975abb1461042557600080fd5b80632f2ff15d1461033f578063313ce5671461036157806336568abe1461037d5780633659cfe61461039d57600080fd5b806318160ddd116101cc57806318160ddd146102ae57806323b872dd146102cd578063248a9ca3146102ed578063282c51f31461031d57600080fd5b806301ffc9a7146101fe57806306fdde0314610233578063095ea7b3146102555780630c340a2414610275575b600080fd5b34801561020a57600080fd5b5061021e610219366004611fb4565b610657565b60405190151581526020015b60405180910390f35b34801561023f57600080fd5b50610248610682565b60405161022a9190612002565b34801561026157600080fd5b5061021e61027036600461204a565b610714565b34801561028157600080fd5b5061019154610296906001600160a01b031681565b6040516001600160a01b03909116815260200161022a565b3480156102ba57600080fd5b5060cb545b60405190815260200161022a565b3480156102d957600080fd5b5061021e6102e8366004612076565b61072c565b3480156102f957600080fd5b506102bf6103083660046120b7565b60009081526065602052604090206001015490565b34801561032957600080fd5b506102bf60008051602061269483398151915281565b34801561034b57600080fd5b5061035f61035a3660046120d0565b610752565b005b34801561036d57600080fd5b506040516012815260200161022a565b34801561038957600080fd5b5061035f6103983660046120d0565b61077c565b3480156103a957600080fd5b5061035f6103b8366004612100565b6107ff565b3480156103c957600080fd5b5061021e6103d836600461204a565b6108de565b3480156103e957600080fd5b5061035f6103f836600461204a565b610900565b61035f61040b3660046121a9565b610922565b34801561041c57600080fd5b506102bf6109ee565b34801561043157600080fd5b506101c45460ff1661021e565b34801561044a57600080fd5b506102bf610459366004612100565b6001600160a01b0316600090815260c9602052604090205490565b34801561048057600080fd5b5061035f610aa1565b34801561049557600080fd5b5061035f6104a436600461222d565b610ac1565b3480156104b557600080fd5b506102966104c43660046122b6565b610bfa565b3480156104d557600080fd5b5061021e6104e43660046120d0565b610c12565b3480156104f557600080fd5b50610248610c3d565b34801561050a57600080fd5b5061035f61051936600461204a565b610c4c565b34801561052a57600080fd5b506102bf600081565b34801561053f57600080fd5b5061021e61054e36600461204a565b610c6e565b34801561055f57600080fd5b5061021e61056e36600461204a565b610cf4565b34801561057f57600080fd5b506102bf61058e3660046120b7565b610d02565b34801561059f57600080fd5b506102bf60008051602061271b83398151915281565b3480156105c157600080fd5b5061035f6105d03660046120d0565b610d19565b3480156105e157600080fd5b5061021e6105f0366004612100565b610d3e565b34801561060157600080fd5b506102bf6106103660046122d8565b610d68565b34801561062157600080fd5b5061035f610630366004612100565b610d93565b34801561064157600080fd5b506102bf6000805160206126d483398151915281565b60006001600160e01b03198216635a05180f60e01b148061067c575061067c82610dbe565b92915050565b606060cc805461069190612306565b80601f01602080910402602001604051908101604052809291908181526020018280546106bd90612306565b801561070a5780601f106106df5761010080835404028352916020019161070a565b820191906000526020600020905b8154815290600101906020018083116106ed57829003601f168201915b5050505050905090565b600033610722818585610df3565b5060019392505050565b60003361073a858285610f17565b610745858585610f91565b60019150505b9392505050565b60008281526065602052604090206001015461076d81611147565b6107778383611151565b505050565b6001600160a01b03811633146107f15760405162461bcd60e51b815260206004820152602f60248201527f416363657373436f6e74726f6c3a2063616e206f6e6c792072656e6f756e636560448201526e103937b632b9903337b91039b2b63360891b60648201526084015b60405180910390fd5b6107fb8282611173565b5050565b6001600160a01b037f00000000000000000000000000000000000000000000000000000000000000001630036108475760405162461bcd60e51b81526004016107e890612340565b7f00000000000000000000000000000000000000000000000000000000000000006001600160a01b03166108906000805160206126b4833981519152546001600160a01b031690565b6001600160a01b0316146108b65760405162461bcd60e51b81526004016107e89061238c565b6108bf81611195565b604080516000808252602082019092526108db9183919061119d565b50565b6000336107228185856108f18383610d68565b6108fb91906123ee565b610df3565b60008051602061271b83398151915261091881611147565b6107778383611308565b6001600160a01b037f000000000000000000000000000000000000000000000000000000000000000016300361096a5760405162461bcd60e51b81526004016107e890612340565b7f00000000000000000000000000000000000000000000000000000000000000006001600160a01b03166109b36000805160206126b4833981519152546001600160a01b031690565b6001600160a01b0316146109d95760405162461bcd60e51b81526004016107e89061238c565b6109e282611195565b6107fb8282600161119d565b6000306001600160a01b037f00000000000000000000000000000000000000000000000000000000000000001614610a8e5760405162461bcd60e51b815260206004820152603860248201527f555550535570677261646561626c653a206d757374206e6f742062652063616c60448201527f6c6564207468726f7567682064656c656761746563616c6c000000000000000060648201526084016107e8565b506000805160206126b483398151915290565b6000805160206126d4833981519152610ab981611147565b6108db6113d5565b600054610100900460ff1615808015610ae15750600054600160ff909116105b80610afb5750303b158015610afb575060005460ff166001145b610b5e5760405162461bcd60e51b815260206004820152602e60248201527f496e697469616c697a61626c653a20636f6e747261637420697320616c72656160448201526d191e481a5b9a5d1a585b1a5e995960921b60648201526084016107e8565b6000805460ff191660011790558015610b81576000805461ff0019166101001790555b610b8d85858585611430565b610b956114b5565b610bad6000805160206126d4833981519152846114e6565b8015610bf3576000805461ff0019169055604051600181527f7f26b83ff96e1f2b6a682f133852f6798a09c465da95921460cefb38474024989060200160405180910390a15b5050505050565b600082815260976020526040812061074b90836114f0565b60009182526065602090815260408084206001600160a01b0393909316845291905290205460ff1690565b606060cd805461069190612306565b600080516020612694833981519152610c6481611147565b61077783836114fc565b60003381610c7c8286610d68565b905083811015610cdc5760405162461bcd60e51b815260206004820152602560248201527f45524332303a2064656372656173656420616c6c6f77616e63652062656c6f77604482015264207a65726f60d81b60648201526084016107e8565b610ce98286868403610df3565b506001949350505050565b600033610722818585610f91565b600081815260976020526040812061067c9061163c565b600082815260656020526040902060010154610d3481611147565b6107778383611173565b6000610d586000805160206126d483398151915283610c12565b801561067c575061067c82611646565b6001600160a01b03918216600090815260ca6020908152604080832093909416825291909152205490565b610d9b611691565b61019180546001600160a01b0319166001600160a01b0392909216919091179055565b60006001600160e01b03198216637965db0b60e01b148061067c57506301ffc9a760e01b6001600160e01b031983161461067c565b6001600160a01b038316610e555760405162461bcd60e51b8152602060048201526024808201527f45524332303a20617070726f76652066726f6d20746865207a65726f206164646044820152637265737360e01b60648201526084016107e8565b6001600160a01b038216610eb65760405162461bcd60e51b815260206004820152602260248201527f45524332303a20617070726f766520746f20746865207a65726f206164647265604482015261737360f01b60648201526084016107e8565b6001600160a01b03838116600081815260ca602090815260408083209487168084529482529182902085905590518481527f8c5be1e5ebec7d5bd14f71427d1e84f3dd0314c0f7b2291e5b200ac8c7c3b925910160405180910390a3505050565b6000610f238484610d68565b90506000198114610f8b5781811015610f7e5760405162461bcd60e51b815260206004820152601d60248201527f45524332303a20696e73756666696369656e7420616c6c6f77616e636500000060448201526064016107e8565b610f8b8484848403610df3565b50505050565b6001600160a01b038316610ff55760405162461bcd60e51b815260206004820152602560248201527f45524332303a207472616e736665722066726f6d20746865207a65726f206164604482015264647265737360d81b60648201526084016107e8565b6001600160a01b0382166110575760405162461bcd60e51b815260206004820152602360248201527f45524332303a207472616e7366657220746f20746865207a65726f206164647260448201526265737360e81b60648201526084016107e8565b61106283838361171b565b6001600160a01b038316600090815260c96020526040902054818110156110da5760405162461bcd60e51b815260206004820152602660248201527f45524332303a207472616e7366657220616d6f756e7420657863656564732062604482015265616c616e636560d01b60648201526084016107e8565b6001600160a01b03808516600081815260c9602052604080822086860390559286168082529083902080548601905591517fddf252ad1be2c89b69c2b068fc378daa952ba7f163c4a11628f55a4df523b3ef9061113a9086815260200190565b60405180910390a3610f8b565b6108db8133611726565b61115b828261177f565b60008281526097602052604090206107779082611805565b61117d828261181a565b60008281526097602052604090206107779082611881565b6108db611691565b7f4910fdfa16fed3260ed0e7147f7cc6da11a60208b5b9406d12a635614ffd91435460ff16156111d05761077783611896565b826001600160a01b03166352d1902d6040518163ffffffff1660e01b8152600401602060405180830381865afa92505050801561122a575060408051601f3d908101601f1916820190925261122791810190612401565b60015b61128d5760405162461bcd60e51b815260206004820152602e60248201527f45524331393637557067726164653a206e657720696d706c656d656e7461746960448201526d6f6e206973206e6f74205555505360901b60648201526084016107e8565b6000805160206126b483398151915281146112fc5760405162461bcd60e51b815260206004820152602960248201527f45524331393637557067726164653a20756e737570706f727465642070726f786044820152681a58589b195555525160ba1b60648201526084016107e8565b50610777838383611932565b6001600160a01b03821661135e5760405162461bcd60e51b815260206004820152601f60248201527f45524332303a206d696e7420746f20746865207a65726f20616464726573730060448201526064016107e8565b61136a6000838361171b565b8060cb600082825461137c91906123ee565b90915550506001600160a01b038216600081815260c960209081526040808320805486019055518481527fddf252ad1be2c89b69c2b068fc378daa952ba7f163c4a11628f55a4df523b3ef910160405180910390a35050565b6113dd611957565b6101c4805460ff191660011790557f62e78cea01bee320cd4e420270b5ea74000d11b0c9f74754ebdbfc544b05a2586114133390565b6040516001600160a01b03909116815260200160405180910390a1565b600054610100900460ff166114575760405162461bcd60e51b81526004016107e89061241a565b611461848461199e565b6114696119cf565b6114716119cf565b61147a816119f6565b6114856000836114e6565b61149d60008051602061271b833981519152836114e6565b610f8b600080516020612694833981519152836114e6565b600054610100900460ff166114dc5760405162461bcd60e51b81526004016107e89061241a565b6114e4611a26565b565b6107fb8282611151565b600061074b8383611a5a565b6001600160a01b03821661155c5760405162461bcd60e51b815260206004820152602160248201527f45524332303a206275726e2066726f6d20746865207a65726f206164647265736044820152607360f81b60648201526084016107e8565b6115688260008361171b565b6001600160a01b038216600090815260c96020526040902054818110156115dc5760405162461bcd60e51b815260206004820152602260248201527f45524332303a206275726e20616d6f756e7420657863656564732062616c616e604482015261636560f01b60648201526084016107e8565b6001600160a01b038316600081815260c960209081526040808320868603905560cb80548790039055518581529192917fddf252ad1be2c89b69c2b068fc378daa952ba7f163c4a11628f55a4df523b3ef910160405180910390a3505050565b600061067c825490565b600061166060008051602061271b83398151915283610c12565b801561167f575061167f60008051602061269483398151915283610c12565b801561067c575061067c600083610c12565b6101915460405163d994d6d560e01b81523360048201526001600160a01b039091169063d994d6d590602401602060405180830381865afa1580156116da573d6000803e3d6000fd5b505050506040513d601f19601f820116820180604052508101906116fe9190612465565b6114e457604051631dd1b1b560e21b815260040160405180910390fd5b610777838383611a84565b6117308282610c12565b6107fb5761173d81611aeb565b611748836020611afd565b604051602001611759929190612487565b60408051601f198184030181529082905262461bcd60e51b82526107e891600401612002565b6117898282610c12565b6107fb5760008281526065602090815260408083206001600160a01b03851684529091529020805460ff191660011790556117c13390565b6001600160a01b0316816001600160a01b0316837f2f8788117e7eff1d82e926ec794901d17c78024a50270940304540a733656f0d60405160405180910390a45050565b600061074b836001600160a01b038416611c99565b6118248282610c12565b156107fb5760008281526065602090815260408083206001600160a01b0385168085529252808320805460ff1916905551339285917ff6391f5c32d9c69d2a47ea670b442974b53935d1edc7fd64eb21e047a839171b9190a45050565b600061074b836001600160a01b038416611ce8565b6001600160a01b0381163b6119035760405162461bcd60e51b815260206004820152602d60248201527f455243313936373a206e657720696d706c656d656e746174696f6e206973206e60448201526c1bdd08184818dbdb9d1c9858dd609a1b60648201526084016107e8565b6000805160206126b483398151915280546001600160a01b0319166001600160a01b0392909216919091179055565b61193b83611ddb565b6000825111806119485750805b1561077757610f8b8383611e1b565b6101c45460ff16156114e45760405162461bcd60e51b815260206004820152601060248201526f14185d5cd8589b194e881c185d5cd95960821b60448201526064016107e8565b600054610100900460ff166119c55760405162461bcd60e51b81526004016107e89061241a565b6107fb8282611f0f565b600054610100900460ff166114e45760405162461bcd60e51b81526004016107e89061241a565b600054610100900460ff16611a1d5760405162461bcd60e51b81526004016107e89061241a565b6108db81611f4f565b600054610100900460ff16611a4d5760405162461bcd60e51b81526004016107e89061241a565b6101c4805460ff19169055565b6000826000018281548110611a7157611a716124fc565b9060005260206000200154905092915050565b6101c45460ff16156107775760405162461bcd60e51b815260206004820152602a60248201527f45524332305061757361626c653a20746f6b656e207472616e736665722077686044820152691a5b19481c185d5cd95960b21b60648201526084016107e8565b606061067c6001600160a01b03831660145b60606000611b0c836002612512565b611b179060026123ee565b67ffffffffffffffff811115611b2f57611b2f61211d565b6040519080825280601f01601f191660200182016040528015611b59576020820181803683370190505b509050600360fc1b81600081518110611b7457611b746124fc565b60200101906001600160f81b031916908160001a905350600f60fb1b81600181518110611ba357611ba36124fc565b60200101906001600160f81b031916908160001a9053506000611bc7846002612512565b611bd29060016123ee565b90505b6001811115611c4a576f181899199a1a9b1b9c1cb0b131b232b360811b85600f1660108110611c0657611c066124fc565b1a60f81b828281518110611c1c57611c1c6124fc565b60200101906001600160f81b031916908160001a90535060049490941c93611c4381612529565b9050611bd5565b50831561074b5760405162461bcd60e51b815260206004820181905260248201527f537472696e67733a20686578206c656e67746820696e73756666696369656e7460448201526064016107e8565b6000818152600183016020526040812054611ce05750815460018181018455600084815260208082209093018490558454848252828601909352604090209190915561067c565b50600061067c565b60008181526001830160205260408120548015611dd1576000611d0c600183612540565b8554909150600090611d2090600190612540565b9050818114611d85576000866000018281548110611d4057611d406124fc565b9060005260206000200154905080876000018481548110611d6357611d636124fc565b6000918252602080832090910192909255918252600188019052604090208390555b8554869080611d9657611d96612553565b60019003818190600052602060002001600090559055856001016000868152602001908152602001600020600090556001935050505061067c565b600091505061067c565b611de481611896565b6040516001600160a01b038216907fbc7cd75a20ee27fd9adebab32041f755214dbc6bffa90cc0225b39da2e5c2d3b90600090a250565b60606001600160a01b0383163b611e835760405162461bcd60e51b815260206004820152602660248201527f416464726573733a2064656c65676174652063616c6c20746f206e6f6e2d636f6044820152651b9d1c9858dd60d21b60648201526084016107e8565b600080846001600160a01b031684604051611e9e9190612569565b600060405180830381855af49150503d8060008114611ed9576040519150601f19603f3d011682016040523d82523d6000602084013e611ede565b606091505b5091509150611f0682826040518060600160405280602781526020016126f460279139611f76565b95945050505050565b600054610100900460ff16611f365760405162461bcd60e51b81526004016107e89061241a565b60cc611f4283826125d3565b5060cd61077782826125d3565b600054610100900460ff16610d9b5760405162461bcd60e51b81526004016107e89061241a565b60608315611f8557508161074b565b61074b8383815115611f9a5781518083602001fd5b8060405162461bcd60e51b81526004016107e89190612002565b600060208284031215611fc657600080fd5b81356001600160e01b03198116811461074b57600080fd5b60005b83811015611ff9578181015183820152602001611fe1565b50506000910152565b6020815260008251806020840152612021816040850160208701611fde565b601f01601f19169190910160400192915050565b6001600160a01b03811681146108db57600080fd5b6000806040838503121561205d57600080fd5b823561206881612035565b946020939093013593505050565b60008060006060848603121561208b57600080fd5b833561209681612035565b925060208401356120a681612035565b929592945050506040919091013590565b6000602082840312156120c957600080fd5b5035919050565b600080604083850312156120e357600080fd5b8235915060208301356120f581612035565b809150509250929050565b60006020828403121561211257600080fd5b813561074b81612035565b634e487b7160e01b600052604160045260246000fd5b600067ffffffffffffffff8084111561214e5761214e61211d565b604051601f8501601f19908116603f011681019082821181831017156121765761217661211d565b8160405280935085815286868601111561218f57600080fd5b858560208301376000602087830101525050509392505050565b600080604083850312156121bc57600080fd5b82356121c781612035565b9150602083013567ffffffffffffffff8111156121e357600080fd5b8301601f810185136121f457600080fd5b61220385823560208401612133565b9150509250929050565b600082601f83011261221e57600080fd5b61074b83833560208501612133565b6000806000806080858703121561224357600080fd5b843567ffffffffffffffff8082111561225b57600080fd5b6122678883890161220d565b9550602087013591508082111561227d57600080fd5b5061228a8782880161220d565b935050604085013561229b81612035565b915060608501356122ab81612035565b939692955090935050565b600080604083850312156122c957600080fd5b50508035926020909101359150565b600080604083850312156122eb57600080fd5b82356122f681612035565b915060208301356120f581612035565b600181811c9082168061231a57607f821691505b60208210810361233a57634e487b7160e01b600052602260045260246000fd5b50919050565b6020808252602c908201527f46756e6374696f6e206d7573742062652063616c6c6564207468726f7567682060408201526b19195b1959d85d1958d85b1b60a21b606082015260800190565b6020808252602c908201527f46756e6374696f6e206d7573742062652063616c6c6564207468726f7567682060408201526b6163746976652070726f787960a01b606082015260800190565b634e487b7160e01b600052601160045260246000fd5b8082018082111561067c5761067c6123d8565b60006020828403121561241357600080fd5b5051919050565b6020808252602b908201527f496e697469616c697a61626c653a20636f6e7472616374206973206e6f74206960408201526a6e697469616c697a696e6760a81b606082015260800190565b60006020828403121561247757600080fd5b8151801515811461074b57600080fd5b7f416363657373436f6e74726f6c3a206163636f756e74200000000000000000008152600083516124bf816017850160208801611fde565b7001034b99036b4b9b9b4b733903937b6329607d1b60179184019182015283516124f0816028840160208801611fde565b01602801949350505050565b634e487b7160e01b600052603260045260246000fd5b808202811582820484141761067c5761067c6123d8565b600081612538576125386123d8565b506000190190565b8181038181111561067c5761067c6123d8565b634e487b7160e01b600052603160045260246000fd5b6000825161257b818460208701611fde565b9190910192915050565b601f82111561077757600081815260208120601f850160051c810160208610156125ac5750805b601f850160051c820191505b818110156125cb578281556001016125b8565b505050505050565b815167ffffffffffffffff8111156125ed576125ed61211d565b612601816125fb8454612306565b84612585565b602080601f831160018114612636576000841561261e5750858301515b600019600386901b1c1916600185901b1785556125cb565b600085815260208120601f198616915b8281101561266557888601518255948401946001909101908401612646565b50858210156126835787850151600019600388901b60f8161c191681555b5050505050600190811b0190555056fe3c11d16cbaffd01df69ce1c404f6340ee057498f5f00246190ea54220576a848360894a13ba1a3210667c828492db98dca3e2076cc3735a920a3ca505d382bbc65d7a28e3265b37a6474929f336521b332c1681b933f6cb9f3376673440d862a416464726573733a206c6f772d6c6576656c2064656c65676174652063616c6c206661696c65649f2df0fed2c77648de5860a4cc508cd0818c85b8b8a1ab4ceeef8d981c8956a6a26469706673582212201a483e9d73b03ddbb1d36a95e666045e39a3b0288d1700188a6e82487c0ccd2464736f6c6343000811003360a0604052306080523480156200001557600080fd5b506200002062000030565b6200002a62000030565b620000f2565b600054610100900460ff16156200009d5760405162461bcd60e51b815260206004820152602760248201527f496e697469616c697a61626c653a20636f6e747261637420697320696e697469604482015266616c697a696e6760c81b606482015260840160405180910390fd5b60005460ff9081161015620000f0576000805460ff191660ff9081179091556040519081527f7f26b83ff96e1f2b6a682f133852f6798a09c465da95921460cefb38474024989060200160405180910390a15b565b6080516155e26200012a600039600081816113ba01528181611403015281816115de0152818161161e01526116e701526155e26000f3fe6080604052600436106105745760003560e01c806370713468116102d8578063bb4872de11610180578063e4012945116100e7578063f26114aa116100a0578063f375cfba1161007a578063f375cfba14611080578063fa6e83bd14611097578063fa79589e146110ae578063fda70f8b146110ce57600080fd5b8063f26114aa14611029578063f280877814611049578063f30b56141461106957600080fd5b8063e401294514610f86578063e4c0aaf414610fa6578063e6b1627c14610fc6578063e7c2597814610fe6578063e8859a1514611001578063f21fcc001461101657600080fd5b8063ceecc55a11610139578063ceecc55a14610ee7578063d1a0faa014610f07578063db79607214610f1c578063de08160f14610f3c578063de8d520a14610f5c578063e23c135c14610f7157600080fd5b8063bb4872de14610e38578063bbba7ed914610e52578063becaca6b14610e72578063c00f538d14610e92578063c039cc6914610eb2578063c84353c914610ec757600080fd5b80638456cb591161023f5780639ad6659d116101f85780639fd0506d116101d25780639fd0506d14610dc2578063a8e9ac3014610de8578063aea038dc14610e01578063bb2ac78814610e1857600080fd5b80639ad6659d14610d405780639bdd7cce14610d555780639cabfc0014610d7557600080fd5b80638456cb5914610c935780638cfa424114610ca8578063904aa85b14610cbf5780639195c85b14610cdf5780639853c35a14610cff5780639abb14c914610d2057600080fd5b80637a4ff1d9116102915780637a4ff1d914610be75780637a727fe814610c075780637af5758c14610c1e5780637cba238314610c3e5780637d8e031414610c5e578063826fcd5814610c7e57600080fd5b80637071346814610b425780637554fffd14610b625780637750ba0c14610b795780637820a32814610b9957806379f9a91c14610bb95780637a193c3114610bd057600080fd5b806333421c381161043b5780634f0f27ee116103a25780635c616a731161035b57806360009e0b1161033557806360009e0b14610ae0578063662013f414610b015780636827435714610b165780636b5488df14610b2b57600080fd5b80635c616a7314610a8e5780635c975abb14610aa35780635d65d04514610ac057600080fd5b80634f0f27ee146109fa5780634f1ef28614610a115780635210570c14610a245780635241271c14610a3957806352d1902d14610a5957806354a73c6214610a6e57600080fd5b80634310adc6116103f45780634310adc6146109255780634454ae8b146109455780634b746001146109655780634cffbaab146109a25780634d977e78146109c25780634e1f907a146109d957600080fd5b806333421c381461088f5780633659cfe6146108a45780633bc4ac0a146108c45780633f4ba83a146108e45780634017936a146108f9578063407f0e341461090e57600080fd5b80631867e2f5116104df57806323b98cde1161049857806323b98cde146107d157806327eab2a1146108015780632a20d57d146108215780632c43bd3b146108385780632d88af4a14610858578063333431fd1461087857600080fd5b80631867e2f5146107325780631a89b8f2146107495780631f1138a61461075c5780631fb0dda01461077c5780631fe6a7ad146107915780632069f753146107b157600080fd5b80630d6ac463116105315780630d6ac463146106725780630e0a8fd2146106925780631301a8f0146106b257806317574bc5146106d257806317df0ab8146106f2578063181770da1461071257600080fd5b806301cded9c1461057957806301dde6ef146105b357806301f1b684146105d55780630bb7f6081461060d5780630c340a241461063b5780630c36d8971461065b575b600080fd5b34801561058557600080fd5b50610599610594366004614eb2565b6110e5565b604080519283526020830191909152015b60405180910390f35b3480156105bf57600080fd5b506105d36105ce366004614eff565b611104565b005b3480156105e157600080fd5b506105f56105f0366004614eff565b611112565b6040516001600160a01b0390911681526020016105aa565b34801561061957600080fd5b5061062d610628366004614f18565b61113d565b6040519081526020016105aa565b34801561064757600080fd5b506097546105f5906001600160a01b031681565b34801561066757600080fd5b5061062d61017e5481565b34801561067e57600080fd5b506105d361068d366004614f3a565b611154565b34801561069e57600080fd5b506105d36106ad366004614eff565b61117f565b3480156106be57600080fd5b506105996106cd366004614f57565b61118d565b3480156106de57600080fd5b506105996106ed366004614f57565b6111ab565b3480156106fe57600080fd5b5061062d61070d366004614f89565b6111bc565b34801561071e57600080fd5b5061062d61072d366004614f89565b6111d5565b34801561073e57600080fd5b5061062d6101b35481565b610599610757366004614fb5565b6111e4565b34801561076857600080fd5b50610599610777366004614ff6565b6111f4565b34801561078857600080fd5b5061062d611215565b34801561079d57600080fd5b506105d36107ac366004615059565b611237565b3480156107bd57600080fd5b506105d36107cc366004614eff565b611253565b3480156107dd57600080fd5b50610148546107f190610100900460ff1681565b60405190151581526020016105aa565b34801561080d57600080fd5b506105d361081c366004614f3a565b611261565b34801561082d57600080fd5b5061062d61013e5481565b34801561084457600080fd5b506105d3610853366004614eff565b61128c565b34801561086457600080fd5b506105d3610873366004614f3a565b61129a565b34801561088457600080fd5b5061062d61013d5481565b34801561089b57600080fd5b506105d36112cc565b3480156108b057600080fd5b506105d36108bf366004614f3a565b6113b0565b3480156108d057600080fd5b506105d36108df366004614eff565b611498565b3480156108f057600080fd5b506105d36114a6565b34801561090557600080fd5b5061062d611540565b34801561091a57600080fd5b5061062d61013c5481565b34801561093157600080fd5b5061062d610940366004615076565b611563565b34801561095157600080fd5b50610599610960366004614eb2565b611571565b34801561097157600080fd5b50610985610980366004614eff565b611582565b604080519283526001600160a01b039091166020830152016105aa565b3480156109ae57600080fd5b5061062d6109bd366004614fb5565b6115ba565b3480156109ce57600080fd5b5061062d6101b25481565b3480156109e557600080fd5b50610144546105f5906001600160a01b031681565b348015610a0657600080fd5b5061062d6101395481565b6105d3610a1f3660046150c5565b6115d4565b348015610a3057600080fd5b506105d36116a4565b348015610a4557600080fd5b5061062d610a54366004614eff565b6116b8565b348015610a6557600080fd5b5061062d6116da565b348015610a7a57600080fd5b5061062d610a89366004614fb5565b61178d565b348015610a9a57600080fd5b506105d361179c565b348015610aaf57600080fd5b5060ca54610100900460ff166107f1565b348015610acc57600080fd5b5061062d610adb366004615189565b6117f1565b348015610aec57600080fd5b50610131546105f5906001600160a01b031681565b348015610b0d57600080fd5b5061062d6117fe565b348015610b2257600080fd5b506105d3611815565b348015610b3757600080fd5b5061062d6101465481565b348015610b4e57600080fd5b506105d3610b5d366004614eff565b61182c565b348015610b6e57600080fd5b5061062d6101375481565b348015610b8557600080fd5b506105d3610b94366004614eff565b61183a565b348015610ba557600080fd5b50610599610bb4366004614f18565b611848565b348015610bc557600080fd5b5061062d6101405481565b348015610bdc57600080fd5b5061062d6101325481565b348015610bf357600080fd5b506105d3610c02366004614eff565b611869565b348015610c1357600080fd5b5061062d61017f5481565b348015610c2a57600080fd5b506105d3610c39366004614eff565b611877565b348015610c4a57600080fd5b506105d3610c59366004614eff565b611885565b348015610c6a57600080fd5b5061062d610c79366004614eff565b611893565b348015610c8a57600080fd5b5061062d6118a4565b348015610c9f57600080fd5b506105d36118bf565b348015610cb457600080fd5b5061062d6101475481565b348015610ccb57600080fd5b5061062d610cda366004614eff565b61195a565b348015610ceb57600080fd5b5061062d610cfa366004614eff565b611a24565b348015610d0b57600080fd5b50610143546105f5906001600160a01b031681565b348015610d2c57600080fd5b5061062d610d3b366004614f18565b611a31565b348015610d4c57600080fd5b506107f1611a3f565b348015610d6157600080fd5b50610599610d70366004614eb2565b611a6a565b348015610d8157600080fd5b50610dad610d90366004614f3a565b610134602052600090815260409020805460019091015460ff1682565b604080519283529015156020830152016105aa565b348015610dce57600080fd5b5060ca546105f5906201000090046001600160a01b031681565b348015610df457600080fd5b5061017e544310156107f1565b348015610e0d57600080fd5b5061062d61013b5481565b348015610e2457600080fd5b50610599610e33366004614f57565b611a7b565b348015610e4457600080fd5b5060ca546107f19060ff1681565b348015610e5e57600080fd5b506105d3610e6d3660046151b9565b611a8c565b348015610e7e57600080fd5b506105d3610e8d366004614eff565b611bd1565b348015610e9e57600080fd5b506105d3610ead366004614eff565b611bdf565b348015610ebe57600080fd5b5061062d611bed565b348015610ed357600080fd5b506105d3610ee2366004614eff565b611c08565b348015610ef357600080fd5b50610599610f023660046151d2565b611c16565b348015610f1357600080fd5b506105d3611c28565b348015610f2857600080fd5b506105d3610f3736600461520d565b611c62565b348015610f4857600080fd5b5061062d610f57366004614eff565b611fef565b348015610f6857600080fd5b5061062d612000565b348015610f7d57600080fd5b506105d361201d565b348015610f9257600080fd5b5061062d610fa1366004615076565b61205b565b348015610fb257600080fd5b506105d3610fc1366004614f3a565b612069565b348015610fd257600080fd5b50610599610fe1366004614eff565b612093565b348015610ff257600080fd5b50610148546107f19060ff1681565b34801561100d57600080fd5b5061062d6120c2565b610599611024366004614f89565b6120e3565b34801561103557600080fd5b506105d361104436600461520d565b6120ff565b34801561105557600080fd5b506105d3611064366004614eff565b612389565b34801561107557600080fd5b5061062d61012f5481565b34801561108c57600080fd5b5061062d61013f5481565b3480156110a357600080fd5b5061062d6101385481565b3480156110ba57600080fd5b5061062d6110c9366004614eff565b612397565b3480156110da57600080fd5b5061062d61013a5481565b6000806110f68787878733886123da565b915091509550959350505050565b61110c6125b9565b61013855565b610133818154811061112357600080fd5b6000918252602090912001546001600160a01b0316905081565b600061114b83833333612642565b90505b92915050565b61115c6125b9565b61014380546001600160a01b0319166001600160a01b0392909216919091179055565b6111876125b9565b61013d55565b60008061119e868686863333612754565b9150915094509492505050565b60008061119e8686868633336128e2565b60006111cb8484843333612a5f565b90505b9392505050565b60006111cb8484843333612b76565b60008061119e8686863387612cbc565b60008061120688888888883389612df9565b91509150965096945050505050565b6000806000611222612fdd565b915091506112308282613089565b9250505090565b61123f6125b9565b610148805460ff1916911515919091179055565b61125b6125b9565b61014055565b6112696125b9565b61014480546001600160a01b0319166001600160a01b0392909216919091179055565b6112946125b9565b61014755565b6112a26125b9565b60ca80546001600160a01b03909216620100000262010000600160b01b0319909216919091179055565b6112d46130c5565b6101485460ff1680156112f0575061014854610100900460ff16155b80156112ff57506112ff611a3f565b156113ae57610148805461ff0019166101001790556040517f8b77276c97a5709f0d6db52329848a254eb760ce8be80d281799f633bdb69e8390600090a161013160009054906101000a90046001600160a01b03166001600160a01b0316638456cb596040518163ffffffff1660e01b8152600401600060405180830381600087803b15801561138e57600080fd5b505af11580156113a2573d6000803e3d6000fd5b505050506113ae6130ee565b565b6001600160a01b037f00000000000000000000000000000000000000000000000000000000000000001630036114015760405162461bcd60e51b81526004016113f89061521f565b60405180910390fd5b7f00000000000000000000000000000000000000000000000000000000000000006001600160a01b031661144a600080516020615566833981519152546001600160a01b031690565b6001600160a01b0316146114705760405162461bcd60e51b81526004016113f89061526b565b61147981613239565b6040805160008082526020820190925261149591839190613241565b50565b6114a06125b9565b61017f55565b60ca54610100900460ff166114ce57604051637c7fd07960e01b815260040160405180910390fd5b60ca546201000090046001600160a01b031633146114ff57604051631d77d47760e21b815260040160405180910390fd5b60ca805461ff00191690556040513381527f5db9ee0a495bf2e6ff9c91a7834c1ba4fdd244a5e8aa4e537bd38aeae4b073aa906020015b60405180910390a1565b600080600061154d612fdd565b9150915061123061155c6133b1565b8383613498565b60006111cb84843385612642565b6000806110f6878787873388612754565b610135818154811061159357600080fd5b6000918252602090912060029091020180546001909101549091506001600160a01b031682565b60006115c98585853386612b76565b90505b949350505050565b6001600160a01b037f000000000000000000000000000000000000000000000000000000000000000016300361161c5760405162461bcd60e51b81526004016113f89061521f565b7f00000000000000000000000000000000000000000000000000000000000000006001600160a01b0316611665600080516020615566833981519152546001600160a01b031690565b6001600160a01b03161461168b5760405162461bcd60e51b81526004016113f89061526b565b61169482613239565b6116a082826001613241565b5050565b6116ac6125b9565b60ca805460ff19169055565b61014281815481106116c957600080fd5b600091825260209091200154905081565b6000306001600160a01b037f0000000000000000000000000000000000000000000000000000000000000000161461177a5760405162461bcd60e51b815260206004820152603860248201527f555550535570677261646561626c653a206d757374206e6f742062652063616c60448201527f6c6564207468726f7567682064656c656761746563616c6c000000000000000060648201526084016113f8565b5060008051602061556683398151915290565b60006115c98585853386612a5f565b6117a46130c5565b6101b35443106113ae576101b2546117bc90436152cd565b6101b3556040517fd3c59bda47e141a8ec5a33d241b7f71b86e30d359f83a9227d912858b60404fc90600090a16113ae6134bc565b600061114b8333846134c4565b6000611808611c28565b6118106133b1565b905090565b61181d6125b9565b60ca805460ff19166001179055565b6118346125b9565b61013c55565b6118426125b9565b61013955565b60008061185e84846118598761195a565b6136f4565b915091509250929050565b6118716125b9565b61013f55565b61187f6125b9565b61013e55565b61188d6125b9565b61014655565b61014581815481106116c957600080fd5b60008060006118b1612fdd565b915091506112308282613756565b6118c76130c5565b60ca546201000090046001600160a01b031633146118f857604051631d77d47760e21b815260040160405180910390fd5b60ca5460ff1661191b5760405163866099c360e01b815260040160405180910390fd5b60ca805461ff0019166101001790556040513381527f62e78cea01bee320cd4e420270b5ea74000d11b0c9f74754ebdbfc544b05a25890602001611536565b6000806101358381548110611971576119716152e0565b60009182526020822060016002909202010154604080516359e02dd760e01b815281516001600160a01b039093169450839285926359e02dd792600480820193918290030181865afa1580156119cb573d6000803e3d6000fd5b505050506040513d601f19601f820116820180604052508101906119ef91906152f6565b9150915080611a1c5760405163de4f3a0f60e01b81526001600160a01b03841660048201526024016113f8565b509392505050565b600061114e8233336134c4565b600061114b83833333613775565b6000806000611a4c612fdd565b915091506000611a5c8383613756565b610147541015949350505050565b6000806110f68787878733886128e2565b60008061119e8686868633336123da565b600054610100900460ff1615808015611aac5750600054600160ff909116105b80611ac65750303b158015611ac6575060005460ff166001145b611b295760405162461bcd60e51b815260206004820152602e60248201527f496e697469616c697a61626c653a20636f6e747261637420697320616c72656160448201526d191e481a5b9a5d1a585b1a5e995960921b60648201526084016113f8565b6000805460ff191660011790558015611b4c576000805461ff0019166101001790555b611b5e61028083016102608401614f3a565b61024a80546001600160a01b0319166001600160a01b0392909216919091179055611b8882613880565b80156116a0576000805461ff0019169055604051600181527f7f26b83ff96e1f2b6a682f133852f6798a09c465da95921460cefb38474024989060200160405180910390a15050565b611bd96125b9565b61013755565b611be76125b9565b61013b55565b6000806000611bfa612fdd565b9150915061123082826138f8565b611c106125b9565b6101b255565b6000806110f687878787873333612df9565b61017e5443106113ae576101355460005b81811015611c5257611c4a81613914565b600101611c39565b5061149561017f54430161017e55565b611c6a6125b9565b6000611c796020830183614f3a565b60405163d55fd84560e01b81523060048201529091506001600160a01b0382169063d55fd84590602401602060405180830381865afa158015611cc0573d6000803e3d6000fd5b505050506040513d601f19601f82011682018060405250810190611ce4919061531b565b611d015760405163e6c4247b60e01b815260040160405180910390fd5b6000611d136040840160208501614f3a565b6001600160a01b0383166000908152610134602052604090206001015490915060ff1615611d5457604051633458f6c560e01b815260040160405180910390fd5b6101338054604080518082018252828152600160208083018281526001600160a01b03808a1660008181526101348552878120965187559251958501805496151560ff199097169690961790955587548085019098557f92e985329fb94cc1b424ebb0f7f2929b6d27383ca94c0ec71c44fb48bdf96d2c90970180546001600160a01b031990811690951790558451808601865281815288881681840190815261013580548087018255908452915160029283027fdf37d27e88e3bd0b85262482997e409a463f5be0ebb19232abf994dd8474090d81019190915590517fdf37d27e88e3bd0b85262482997e409a463f5be0ebb19232abf994dd8474090e9091018054919099169516949094179096556101458054808401909155898501357fed95984add84c4014c7f9d66a1b73e788e2db64f5763fa861ad52da204f71b2b90910155610141805480840190915560608a01357fb3926254d0163c91fc94bf08f3f8062ff5d48635dfa7dbef8168ad7d4847a75890910155610142805480840190915560808a01357f7917ad5f1bd6fa6d4f9128143f89bcba30c5b503e76ecd2dd7562ddf9706ae1990910155835180850190945260a0890135845260c089013590840190815261017d805480840182559087529351939092027f0f2aec2a8c6072690b3c86d5c08e34587f891268d22d8bdca6e66838c0f2f22d81019390935590517f0f2aec2a8c6072690b3c86d5c08e34587f891268d22d8bdca6e66838c0f2f22e909201919091556101498054909101815590915261014a611f998261195a565b8154600181018355600092835260209092209091015560405181907f6417e5a3c1e0e5dae98b8fe718c4babdfcb35e0d7b5e1b9641b5914756f5d8e390611fe1908790615338565b60405180910390a250505050565b61014181815481106116c957600080fd5b60008061200b612fdd565b91505061201781613a2e565b91505090565b600061012f5461202c30613a3f565b61203691906153a5565b11156113ae576113ae61012f5461204c30613a3f565b61205691906153a5565b613aaf565b60006111cb84843385613775565b6120716125b9565b609780546001600160a01b0319166001600160a01b0392909216919091179055565b61017d81815481106120a457600080fd5b60009182526020909120600290910201805460019091015490915082565b60006101b35443106120d45750600090565b436101b35461181091906153a5565b6000806120f38585853333612cbc565b91509150935093915050565b6121076125b9565b60006101348161211a6020850185614f3a565b6001600160a01b0316815260208082019290925260409081016000208151808301909252805482526001015460ff16151591810182905291506121705760405163e6c4247b60e01b815260040160405180910390fd5b8051610135805482908110612187576121876152e0565b6000918252602091829020600160029092020101546001600160a01b0316906121b69060408601908601614f3a565b6001600160a01b0316146122a95760006121d66040850160208601614f3a565b90506000816001600160a01b03166359e02dd76040518163ffffffff1660e01b81526004016040805180830381865afa158015612217573d6000803e3d6000fd5b505050506040513d601f19601f8201168201806040525081019061223b91906152f6565b9150508061225c5760405163e6c4247b60e01b815260040160405180910390fd5b816101358481548110612271576122716152e0565b906000526020600020906002020160010160006101000a8154816001600160a01b0302191690836001600160a01b0316021790555050505b826040013561014582815481106122c2576122c26152e0565b9060005260206000200181905550826060013561014182815481106122e9576122e96152e0565b906000526020600020018190555082608001356101428281548110612310576123106152e0565b90600052602060002001819055508260c0013561017d8281548110612337576123376152e0565b906000526020600020906002020160010181905550807f6417e5a3c1e0e5dae98b8fe718c4babdfcb35e0d7b5e1b9641b5914756f5d8e38460405161237c9190615338565b60405180910390a2505050565b6123916125b9565b61013a55565b6000806123a38361195a565b90506000806123b0612fdd565b915091506123d16123bf6133b1565b6123c98786613aca565b858585613b3c565b95945050505050565b6000806123e5613b85565b6123ed6130c5565b60006123f88961195a565b90506124048982613baf565b600061240e6117fe565b905060008061241c83613c12565b9150915061242c8b848484613c60565b60006124398c8484613c9a565b5090508060000361245d5760405163f3e39b5d60e01b815260040160405180910390fd5b670de0b6b3a764000061013254868561247586613a2e565b61247f91906153a5565b8f61248a91906153b8565b61249491906153b8565b61249e91906153cf565b6124a891906153cf565b95506124b88d8787878787613ce0565b8a8610156124e35760405163272e3f5960e21b8152600481018c9052602481018790526044016113f8565b6124f08161013e54613d34565b96508987111561251d57604051630b63f1a760e01b8152600481018b9052602481018890526044016113f8565b604080518d8152602081018890529081018890528d908d906001600160a01b03808c1691908d169084907f0b0ee95633545edabb63afd3c3962a133536b36e2372f68c3c2722710ee0cd899060600160405180910390a450506125828c60008b613d53565b61258f8d8760008b613dca565b600061259b8b89613e55565b90506125a88a828a613e7a565b505050505050965096945050505050565b60975460405163d994d6d560e01b81523360048201526001600160a01b039091169063d994d6d590602401602060405180830381865afa158015612601573d6000803e3d6000fd5b505050506040513d601f19601f82011682018060405250810190612625919061531b565b6113ae57604051631dd1b1b560e21b815260040160405180910390fd5b600061264c613b85565b6126546130c5565b60008061266361014654613c12565b91509150600080612675898585613ed3565b909250905061268481836152cd565b9450878511156126b157604051630b63f1a760e01b815260048101899052602481018690526044016113f8565b846000036126d25760405163f3e39b5d60e01b815260040160405180910390fd5b604080518a8152602081018790529081018290526001600160a01b0380881691908916907f62f0126e99b1936535db27571cea2b2d54db14a471b9203b29b31b89c300e4f69060600160405180910390a361272e898388613f14565b600061273a8987613e55565b9050612747888284613e7a565b5050505050949350505050565b60008061275f613b85565b6127676130c5565b60006127728961195a565b905061277e8982613baf565b60008061278d61014654613c12565b91509150600061279e8c8c866136f4565b5090506127d7610132548c6127b391906153b8565b85856127be86613a2e565b6127c891906153a5565b6127d291906153b8565b613f58565b9450898510806127e5575084155b1561280d5760405163f577bef560e01b8152600481018b9052602481018690526044016113f8565b61281a8161013d54613d34565b95508886111561284757604051630b63f1a760e01b8152600481018a9052602481018790526044016113f8565b604080518c8152602081018790529081018790528c908c906001600160a01b03808b1691908c169084907ff77b7563e0c6c33e0b804a715d94c82baea057d2e6f8bfdc211fe04d3c03bad99060600160405180910390a450506128ad8c8c60008b613f6d565b6128b985600089613f14565b60006128c58a88613e55565b90506128d2898289613e7a565b5050505050965096945050505050565b6000806128ed613b85565b6128f56130c5565b60006129008961195a565b905061290c8982613baf565b60008061291b61014754613c12565b91509150670de0b6b3a76400006101325484848d61293991906153b8565b61294391906153b8565b61294d91906153cf565b61295791906153cf565b93508884111561298457604051637a031da360e11b8152600481018a9052602481018590526044016113f8565b60008061299d8d8d88886129988989613089565b613fce565b90925090506129ac81836153a5565b9650898710156129d9576040516354cde31360e01b8152600481018b9052602481018890526044016113f8565b604080518d815260208101889052908101889052606081018290528d908d9089906001600160a01b038c811691908e169085907f879e4419a6544de6ea456f6344b2fcf0c3b9fc0e6738c82fa4026a8789747c539060800160405180910390a4505050612a478c838b613d53565b612a548d8760008c613f6d565b6128d2888883613e7a565b6000612a69613b85565b612a716130c5565b6000612a7c8761195a565b9050612a888782613baf565b612a9461014654613c12565b5050600080612aa48989856136f4565b9150915081600003612ac95760405163f3e39b5d60e01b815260040160405180910390fd5b612ad381836153a5565b935086841015612b00576040516354cde31360e01b815260048101889052602481018590526044016113f8565b60408051898152602081018690529081018290526001600160a01b0380871691908816908b907f4716c9926ce32100e8a5b6ad71af5500ac55514d7b0c8f80f209856c9dfaeb929060600160405180910390a4612b5f89898489613f6d565b612b6a858583613e7a565b50505095945050505050565b6000612b80613b85565b612b886130c5565b6000612b938761195a565b9050612b9f8782613baf565b6000612ba96117fe565b9050600080612bb783613c12565b91509150612bc98a8a86868686613ce0565b600080612bd78c8c8861400e565b9092509050612be681836152cd565b965089871115612c1357604051630b63f1a760e01b8152600481018b9052602481018890526044016113f8565b86600003612c345760405163f3e39b5d60e01b815260040160405180910390fd5b604080518c8152602081018990529081018290526001600160a01b03808a1691908b16908e907f05f8dfb23a03c1f9d37a1860fc8038ffdc6dec3e24db38cdb09cc0176b35453f9060600160405180910390a4612c938c8c848b613dca565b6000612c9f8b89613e55565b9050612cac8a8284613e7a565b5050505050505095945050505050565b600080612cc7613b85565b612ccf6130c5565b6000806000612cdd8a61195a565b9050612ce98a82613baf565b612cf561014754613c12565b5050612d018982614056565b91955093509150612d1282846152cd565b945087851115612d3f57604051630b63f1a760e01b815260048101899052602481018690526044016113f8565b84600003612d605760405163f3e39b5d60e01b815260040160405180910390fd5b60408051858152602081018b9052908101869052606081018390526001600160a01b0380881691908916908c907fcd3821e3a6afec66fdfa7a942b879811bb9919b2f270de090b6e00178cd7eaee9060800160405180910390a4612dc5848488613f14565b612dd28a8a600089613dca565b6000612dde8987613e55565b9050612deb888285613e7a565b505050509550959350505050565b600080612e04613b85565b612e0c6130c5565b878903612e2c57604051632a9ffab760e21b815260040160405180910390fd5b6000612e378a61195a565b90506000612e448a61195a565b9050612e508b83613baf565b612e5a8a82613baf565b6000612e678c8b856136f4565b50905082612e75838c6153b8565b612e7f91906153cf565b935088841080612e8d575083155b15612eb55760405163272e3f5960e21b8152600481018a9052602481018590526044016113f8565b612ebf8c84613aca565b612ec98c84613aca565b1115612efd576000612ed96117fe565b9050600080612ee783613c12565b91509150612ef98e8887868686613ce0565b5050505b612f0a8161013c54613d34565b945087851115612f3757604051630b63f1a760e01b815260048101899052602481018690526044016113f8565b604080518c8152602081018c9052908101859052606081018690528c908c908c906001600160a01b03808b1691908c169085907f77d2223aca09d9ec6e49d1b8cdcb0b40dec540a5f65daf1ecab069c822bff4609060800160405180910390a4505050612fa78b85600089613dca565b612fb48c8b60008a613f6d565b6000612fc08987613e55565b9050612fcd888288613e7a565b5050505097509795505050505050565b610135546000908190815b81811015613074576000612ffb8261195a565b905060008061300a84846140e5565b91509150613048826101358681548110613026576130266152e0565b90600052602060002090600202016000015461304291906152cd565b84613f58565b61305290886152cd565b965061305e81876152cd565b955050505061306d8160010190565b9050612fe8565b506130828261013754613d34565b9150509091565b6000610132546000036130a55750670de0b6b3a764000061114e565b61114b836130b284613a2e565b6130bc91906153a5565b61013254613f58565b60ca54610100900460ff16156113ae5760405163783bb6c960e11b815260040160405180910390fd5b61012f5460008190036130fe5750565b610135546000808267ffffffffffffffff81111561311e5761311e6150af565b604051908082528060200260200182016040528015613147578160200160208202803683370190505b50905060005b838110156131d85761315e8161195a565b828281518110613170576131706152e0565b6020026020010181815250506131c46101358281548110613193576131936152e0565b9060005260206000209060020201600001548383815181106131b7576131b76152e0565b6020026020010151613f58565b6131ce90846152cd565b925060010161314d565b5060005b838110156132325761013685848484815181106131fb576131fb6152e0565b602002602001015161320d91906153b8565b61321791906153cf565b815460018082018455600093845260209093200155016131dc565b5050505050565b6114956125b9565b7f4910fdfa16fed3260ed0e7147f7cc6da11a60208b5b9406d12a635614ffd91435460ff1615613279576132748361414c565b505050565b826001600160a01b03166352d1902d6040518163ffffffff1660e01b8152600401602060405180830381865afa9250505080156132d3575060408051601f3d908101601f191682019092526132d0918101906153f1565b60015b6133365760405162461bcd60e51b815260206004820152602e60248201527f45524331393637557067726164653a206e657720696d706c656d656e7461746960448201526d6f6e206973206e6f74205555505360901b60648201526084016113f8565b60008051602061556683398151915281146133a55760405162461bcd60e51b815260206004820152602960248201527f45524331393637557067726164653a20756e737570706f727465642070726f786044820152681a58589b195555525160ba1b60648201526084016113f8565b506132748383836141e8565b6101355460009081908190815b8181101561346e5760006133d18261195a565b905060006133df83836140e5565b509050600061342b670de0b6b3a7640000836101358781548110613405576134056152e0565b90600052602060002090600202016000015461342191906152cd565b61304291906153b8565b9050806134388585613aca565b61344291906153b8565b61344c90886152cd565b965061345881876152cd565b95505050506134678160010190565b90506133be565b50816000036134865761014654600202935050505090565b61349082846153cf565b935050505090565b6000806134a685858561420d565b90506134b28484613089565b6123d190826153cf565b6113ae614257565b60006134ce6130c5565b61014854610100900460ff166134f75760405163031b0d3560e11b815260040160405180910390fd5b6000610133858154811061350d5761350d6152e0565b6000918252602090912001546040516370a0823160e01b81526001600160a01b038681166004830152909116906370a0823190602401602060405180830381865afa158015613560573d6000803e3d6000fd5b505050506040513d601f19601f8201168201806040525081019061358491906153f1565b9050806000036135b157604051633fe8c5eb60e01b815260048101829052602481018290526044016113f8565b600061013686815481106135c7576135c76152e0565b906000526020600020015490506135de8282613f58565b925061013386815481106135f4576135f46152e0565b600091825260209091200154604051632770a7eb60e21b81526001600160a01b0387811660048301526024820185905290911690639dc29fac90604401600060405180830381600087803b15801561364b57600080fd5b505af115801561365f573d6000803e3d6000fd5b505050508261366d30613a3f565b101561367f5761367c30613a3f565b92505b836001600160a01b0316856001600160a01b0316877f4716c9926ce32100e8a5b6ad71af5500ac55514d7b0c8f80f209856c9dfaeb92858760006040516136d9939291909283526020830191909152604082015260600190565b60405180910390a46136eb8484614418565b50509392505050565b6000808360000361371857604051632a9ffab760e21b815260040160405180910390fd5b6137228484613f58565b915061374c82610142878154811061373c5761373c6152e0565b9060005260206000200154613d34565b9050935093915050565b600082600003613769575060001961114e565b61114b61304283613a2e565b600061377f613b85565b6137876130c5565b60006137916117fe565b905060008061379f83613c12565b915091506137af88848484613c60565b6000806137bd8a8585613c9a565b91509150816000036137e25760405163f3e39b5d60e01b815260040160405180910390fd5b6137ec81836153a5565b955088861015613819576040516354cde31360e01b8152600481018a9052602481018790526044016113f8565b604080518b8152602081018890529081018290526001600160a01b0380891691908a16907f2d184907c04672620e3c88a12a39d6a603dd26373427842aa172eb3e5bfcff079060600160405180910390a36138758a838a613d53565b612747878783613e7a565b600054610100900460ff166138a75760405162461bcd60e51b81526004016113f89061540a565b6138d36138bc61020083016101e08401614f3a565b6138ce61022084016102008501614f3a565b614449565b6138dc8161448c565b6138ea8161022001356146f1565b61149581610240013561474b565b60008061390483613a2e565b90506115cc816127d286826153a5565b600061017d828154811061392a5761392a6152e0565b6000918252602080832060408051808201909152600290930201805483526001015490820152915061395b8361195a565b905060008260200151670de0b6b3a764000061397791906153a5565b835161398391906153b8565b9050600082846020015161399791906153b8565b90506000670de0b6b3a76400006139ae83856152cd565b6139b891906153cf565b90508061017d87815481106139cf576139cf6152e0565b6000918252602090912060029091020155845160405187917f19156e9379c7bbbce8f646ce5ee30ba860b8f954717405f3d5859a6c1a21ae6091613a1e91908590918252602082015260400190565b60405180910390a2505050505050565b60008161012f5461114e91906153a5565b61024a546040516370a0823160e01b81526001600160a01b03838116600483015260009216906370a0823190602401602060405180830381865afa158015613a8b573d6000803e3d6000fd5b505050506040513d601f19601f8201168201806040525081019061114e91906153f1565b8061012f6000828254613ac291906152cd565b909155505050565b6000806101458481548110613ae157613ae16152e0565b90600052602060002001549050600061017d8581548110613b0457613b046152e0565b9060005260206000209060020201600001549050838110613b275750905061114e565b80613b3285846153b8565b6123d191906153cf565b6000670de0b6b3a7640000613b5181876153a5565b85613b5d89878761420d565b613b6791906153b8565b613b7191906153cf565b613b7b91906153cf565b9695505050505050565b61014854610100900460ff16156113ae57604051631ca61d7760e01b815260040160405180910390fd5b613bb98282614789565b6101498381548110613bcd57613bcd6152e0565b906000526020600020016000828254613be69190615455565b925050819055508061014a8381548110613c0257613c026152e0565b6000918252602090912001555050565b600080613c1d612fdd565b90925090506000613c2e8383613756565b9050838111613c5a57604051637912120160e01b815260048101829052602481018590526044016113f8565b50915091565b6000613c6d848484613498565b9050848110156132325760405163a5db715d60e01b815260048101869052602481018290526044016113f8565b60008084600003613cbe57604051632a9ffab760e21b815260040160405180910390fd5b613cd185613ccc8686613089565b613d34565b915061374c8261013b54613d34565b6000613cec8786613aca565b90506000613cfd8583888787613b3c565b905086811015613d2a5760405163c39b739f60e01b815260048101889052602481018290526044016113f8565b5050505050505050565b6000670de0b6b3a7640000613d4983856153b8565b61114b91906153cf565b613d5d8383614805565b61013154604051632770a7eb60e21b81526001600160a01b0383811660048301526024820186905290911690639dc29fac906044015b600060405180830381600087803b158015613dad57600080fd5b505af1158015613dc1573d6000803e3d6000fd5b50505050505050565b613dd584848461483b565b6101338481548110613de957613de96152e0565b6000918252602090912001546040516340c10f1960e01b81526001600160a01b03838116600483015260248201869052909116906340c10f19906044015b600060405180830381600087803b158015613e4157600080fd5b505af1158015613d2a573d6000803e3d6000fd5b61024a54600090613e71906001600160a01b031633308561487f565b50600092915050565b6000613e896101395483613d34565b90508061012f6000828254613e9e91906152cd565b909155505061014354613ec3906001600160a01b0316613ebe83856153a5565b614418565b613ecd8484614418565b50505050565b60008084600003613ef757604051632a9ffab760e21b815260040160405180910390fd5b613f0585613ccc8686613089565b915061374c8261013a54613d34565b613f1e83836148ea565b610131546040516340c10f1960e01b81526001600160a01b03838116600483015260248201869052909116906340c10f1990604401613d93565b600081613d49670de0b6b3a7640000856153b8565b613f7884848461490c565b6101338481548110613f8c57613f8c6152e0565b600091825260209091200154604051632770a7eb60e21b81526001600160a01b0383811660048301526024820186905290911690639dc29fac90604401613e27565b600080613fdc8786866136f4565b509150613fe98684613d34565b613ff390836152cd565b91506140028261013f54613d34565b90509550959350505050565b6000808360000361403257604051632a9ffab760e21b815260040160405180910390fd5b61403c8484613f58565b915061374c82610141878154811061373c5761373c6152e0565b6000806000806000614066612fdd565b9150915060006140768383613089565b905086670de0b6b3a764000061408a6133b1565b61409491906153a5565b61409e908a6153b8565b6140a891906153cf565b94506140b48582613f58565b95506140c08888613f58565b6140ca90866152cd565b94506140d98561014054613d34565b93505050509250925092565b60008060006140f48585614789565b6101498681548110614108576141086152e0565b906000526020600020015461411d9190615455565b905060008113156141445780915061414161413b6101385486613d34565b83613d34565b92505b509250929050565b6001600160a01b0381163b6141b95760405162461bcd60e51b815260206004820152602d60248201527f455243313936373a206e657720696d706c656d656e746174696f6e206973206e60448201526c1bdd08184818dbdb9d1c9858dd609a1b60648201526084016113f8565b60008051602061556683398151915280546001600160a01b0319166001600160a01b0392909216919091179055565b6141f183614965565b6000825111806141fe5750805b1561327457613ecd83836149a5565b60008361421a8484613756565b11614227575060006111ce565b61423183856153b8565b670de0b6b3a764000061424384613a2e565b61424d91906153b8565b6111cb91906153a5565b61013554600090818167ffffffffffffffff811115614278576142786150af565b6040519080825280602002602001820160405280156142a1578160200160208202803683370190505b50905060005b828110156143955760006142ba8261195a565b90506142c68282613baf565b600061014983815481106142dc576142dc6152e0565b90600052602060002001549050600081131561438b576143086143026101385484613d34565b82613d34565b84848151811061431a5761431a6152e0565b602090810291909101015261432f81876152cd565b955060006101498481548110614347576143476152e0565b906000526020600020018190555061438b8385858151811061436b5761436b6152e0565b6020908102919091010151610144546000906001600160a01b0316613dca565b50506001016142a7565b5082156143da576143a98361013754613d34565b92508261012f60008282546143be91906153a5565b9091555050610143546143da906001600160a01b031684614418565b7fae5116a8119d08673a0f1dfa7546b95da4bd54bb17feda7c61130ac7859152f6838260405161440b92919061547d565b60405180910390a1505050565b614420614a90565b801561443e5761024a5461443e906001600160a01b03168383614aeb565b6116a060016101e655565b600054610100900460ff166144705760405162461bcd60e51b81526004016113f89061540a565b614478614b1b565b61448182614b42565b6116a0816001614b72565b600054610100900460ff166144b35760405162461bcd60e51b81526004016113f89061540a565b670de0b6b3a7640000816060013510156144e057604051632a9ffab760e21b815260040160405180910390fd5b6144ed8160a00135614bd5565b6144fa8160c00135614bd5565b6145078160e00135614bd5565b614515816101000135614bd5565b614523816101200135614bd5565b614531816101400135614bd5565b61453f816101600135614bd5565b61454d816101800135614bd5565b6145696145646101c08301356101a08401356152cd565b614bd5565b6145766020820182614f3a565b61013180546001600160a01b0319166001600160a01b0392909216918217905560405163d55fd84560e01b815230600482015263d55fd84590602401602060405180830381865afa1580156145cf573d6000803e3d6000fd5b505050506040513d601f19601f820116820180604052508101906145f3919061531b565b6146105760405163e6c4247b60e01b815260040160405180910390fd5b6146206040820160208301614f3a565b61014380546001600160a01b0319166001600160a01b03929092169190911790556146516060820160408301614f3a565b61014480546001600160a01b0319166001600160a01b039290921691909117905560608101356101465560808101356101475560a08101356101395560c081013561013a5560e081013561013b5561010081013561013c5561012081013561013d556101408082013561013e5561016082013561013f5561018082013590556101a0810135610137556101c0013561013855610148805461ffff19169055565b600054610100900460ff166147185760405162461bcd60e51b81526004016113f89061540a565b8060000361473957604051632a9ffab760e21b815260040160405180910390fd5b61017f81905561149581430161017e55565b600054610100900460ff166147725760405162461bcd60e51b81526004016113f89061540a565b6101b281905561478281436152cd565b6101b35550565b600080670de0b6b3a764000061013585815481106147a9576147a96152e0565b9060005260206000209060020201600001546147c591906153b8565b90506147d183826153cf565b61014a85815481106147e5576147e56152e0565b9060005260206000200154826147fb91906153cf565b6115cc91906154cb565b81610132600082825461481891906153a5565b925050819055508061012f600082825461483291906153a5565b90915550505050565b816101358481548110614850576148506152e0565b9060005260206000209060020201600001600082825461487091906152cd565b90915550613274905081613aaf565b6040516001600160a01b0380851660248301528316604482015260648101829052613ecd9085906323b872dd60e01b906084015b60408051601f198184030181529190526020810180516001600160e01b03166001600160e01b031990931692909217909152614bfe565b8161013260008282546148fd91906152cd565b909155506116a0905081613aaf565b816101358481548110614921576149216152e0565b9060005260206000209060020201600001600082825461494191906153a5565b925050819055508061012f600082825461495b91906153a5565b9091555050505050565b61496e8161414c565b6040516001600160a01b038216907fbc7cd75a20ee27fd9adebab32041f755214dbc6bffa90cc0225b39da2e5c2d3b90600090a250565b60606001600160a01b0383163b614a0d5760405162461bcd60e51b815260206004820152602660248201527f416464726573733a2064656c65676174652063616c6c20746f206e6f6e2d636f6044820152651b9d1c9858dd60d21b60648201526084016113f8565b600080846001600160a01b031684604051614a289190615516565b600060405180830381855af49150503d8060008114614a63576040519150601f19603f3d011682016040523d82523d6000602084013e614a68565b606091505b50915091506123d1828260405180606001604052806027815260200161558660279139614cd0565b60026101e65403614ae35760405162461bcd60e51b815260206004820152601f60248201527f5265656e7472616e637947756172643a207265656e7472616e742063616c6c0060448201526064016113f8565b60026101e655565b6040516001600160a01b03831660248201526044810182905261327490849063a9059cbb60e01b906064016148b3565b600054610100900460ff166113ae5760405162461bcd60e51b81526004016113f89061540a565b600054610100900460ff16614b695760405162461bcd60e51b81526004016113f89061540a565b61149581614ce9565b600054610100900460ff16614b995760405162461bcd60e51b81526004016113f89061540a565b60ca80546001600160a01b03909316620100000262010000600160b01b03199215159290921661ff01600160b01b031990931692909217179055565b670de0b6b3a764000081111561149557604051632a9ffab760e21b815260040160405180910390fd5b6000614c53826040518060400160405280602081526020017f5361666545524332303a206c6f772d6c6576656c2063616c6c206661696c6564815250856001600160a01b0316614d109092919063ffffffff16565b8051909150156132745780806020019051810190614c71919061531b565b6132745760405162461bcd60e51b815260206004820152602a60248201527f5361666545524332303a204552433230206f7065726174696f6e20646964206e6044820152691bdd081cdd58d8d9595960b21b60648201526084016113f8565b60608315614cdf5750816111ce565b6111ce8383614d1f565b600054610100900460ff166120715760405162461bcd60e51b81526004016113f89061540a565b60606111cb8484600085614d49565b815115614d2f5781518083602001fd5b8060405162461bcd60e51b81526004016113f89190615532565b606082471015614daa5760405162461bcd60e51b815260206004820152602660248201527f416464726573733a20696e73756666696369656e742062616c616e636520666f6044820152651c8818d85b1b60d21b60648201526084016113f8565b600080866001600160a01b03168587604051614dc69190615516565b60006040518083038185875af1925050503d8060008114614e03576040519150601f19603f3d011682016040523d82523d6000602084013e614e08565b606091505b5091509150614e1987838387614e24565b979650505050505050565b60608315614e93578251600003614e8c576001600160a01b0385163b614e8c5760405162461bcd60e51b815260206004820152601d60248201527f416464726573733a2063616c6c20746f206e6f6e2d636f6e747261637400000060448201526064016113f8565b50816115cc565b6115cc8383614d1f565b6001600160a01b038116811461149557600080fd5b600080600080600060a08688031215614eca57600080fd5b853594506020860135935060408601359250606086013591506080860135614ef181614e9d565b809150509295509295909350565b600060208284031215614f1157600080fd5b5035919050565b60008060408385031215614f2b57600080fd5b50508035926020909101359150565b600060208284031215614f4c57600080fd5b81356111ce81614e9d565b60008060008060808587031215614f6d57600080fd5b5050823594602084013594506040840135936060013592509050565b600080600060608486031215614f9e57600080fd5b505081359360208301359350604090920135919050565b60008060008060808587031215614fcb57600080fd5b8435935060208501359250604085013591506060850135614feb81614e9d565b939692955090935050565b60008060008060008060c0878903121561500f57600080fd5b863595506020870135945060408701359350606087013592506080870135915060a087013561503d81614e9d565b809150509295509295509295565b801515811461149557600080fd5b60006020828403121561506b57600080fd5b81356111ce8161504b565b60008060006060848603121561508b57600080fd5b833592506020840135915060408401356150a481614e9d565b809150509250925092565b634e487b7160e01b600052604160045260246000fd5b600080604083850312156150d857600080fd5b82356150e381614e9d565b9150602083013567ffffffffffffffff8082111561510057600080fd5b818501915085601f83011261511457600080fd5b813581811115615126576151266150af565b604051601f8201601f19908116603f0116810190838211818310171561514e5761514e6150af565b8160405282815288602084870101111561516757600080fd5b8260208601602083013760006020848301015280955050505050509250929050565b6000806040838503121561519c57600080fd5b8235915060208301356151ae81614e9d565b809150509250929050565b600061028082840312156151cc57600080fd5b50919050565b600080600080600060a086880312156151ea57600080fd5b505083359560208501359550604085013594606081013594506080013592509050565b600060e082840312156151cc57600080fd5b6020808252602c908201527f46756e6374696f6e206d7573742062652063616c6c6564207468726f7567682060408201526b19195b1959d85d1958d85b1b60a21b606082015260800190565b6020808252602c908201527f46756e6374696f6e206d7573742062652063616c6c6564207468726f7567682060408201526b6163746976652070726f787960a01b606082015260800190565b634e487b7160e01b600052601160045260246000fd5b8082018082111561114e5761114e6152b7565b634e487b7160e01b600052603260045260246000fd5b6000806040838503121561530957600080fd5b8251915060208301516151ae8161504b565b60006020828403121561532d57600080fd5b81516111ce8161504b565b60e08101823561534781614e9d565b6001600160a01b03908116835260208401359061536382614e9d565b8082166020850152505060408301356040830152606083013560608301526080830135608083015260a083013560a083015260c083013560c083015292915050565b8181038181111561114e5761114e6152b7565b808202811582820484141761114e5761114e6152b7565b6000826153ec57634e487b7160e01b600052601260045260246000fd5b500490565b60006020828403121561540357600080fd5b5051919050565b6020808252602b908201527f496e697469616c697a61626c653a20636f6e7472616374206973206e6f74206960408201526a6e697469616c697a696e6760a81b606082015260800190565b8082018281126000831280158216821582161715615475576154756152b7565b505092915050565b6000604082018483526020604081850152818551808452606086019150828701935060005b818110156154be578451835293830193918301916001016154a2565b5090979650505050505050565b81810360008312801583831316838312821617156154eb576154eb6152b7565b5092915050565b60005b8381101561550d5781810151838201526020016154f5565b50506000910152565b600082516155288184602087016154f2565b9190910192915050565b60208152600082518060208401526155518160408501602087016154f2565b601f01601f1916919091016040019291505056fe360894a13ba1a3210667c828492db98dca3e2076cc3735a920a3ca505d382bbc416464726573733a206c6f772d6c6576656c2064656c65676174652063616c6c206661696c6564a2646970667358221220c380c622a14c2ae9d114e4cdbf13b921cbdeaf591bc3af60241f46984d31bda764736f6c6343000811003360a0604052306080523480156200001557600080fd5b506200002062000026565b620000e8565b600054610100900460ff1615620000935760405162461bcd60e51b815260206004820152602760248201527f496e697469616c697a61626c653a20636f6e747261637420697320696e697469604482015266616c697a696e6760c81b606482015260840160405180910390fd5b60005460ff9081161015620000e6576000805460ff191660ff9081179091556040519081527f7f26b83ff96e1f2b6a682f133852f6798a09c465da95921460cefb38474024989060200160405180910390a15b565b60805161369f620001206000396000818161071f0152818161076801528181610a6e01528181610aae0152610b55015261369f6000f3fe60806040526004361061021a5760003560e01c80636827435711610123578063bc392847116100ab578063df2b033b1161006f578063df2b033b14610606578063e4c0aaf414610626578063e4d6944d14610646578063f101f26114610666578063f8c8765e1461068657600080fd5b8063bc39284714610566578063c699cfed14610586578063c8308a62146105a6578063cff5c6ec146105c6578063d5ac5a18146105e657600080fd5b80639d72dd4b116100f25780639d72dd4b146104c65780639fd0506d146104e6578063a27b1ab71461050c578063b986cb301461052c578063bb4872de1461054c57600080fd5b8063682743571461045c5780638456cb591461047157806390e3b12614610486578063966d3f23146104a657600080fd5b80634a6307fc116101a657806352d1902d1161017557806352d1902d146103be5780635475b66f146103d35780635abb6418146103f35780635c975abb146104135780635d23b4a41461043c57600080fd5b80634a6307fc146103535780634b94f50e146103735780634f1ef286146103965780635210570c146103a957600080fd5b80632d88af4a116101ed5780632d88af4a146102be5780633659cfe6146102de57806336ba97ed146102fe5780633f4ba83a1461031e5780633ffd03321461033357600080fd5b806309a849c31461021f5780630c340a241461024157806311d32b601461027e5780631e4a7b0a1461029e575b600080fd5b34801561022b57600080fd5b5061023f61023a366004612dcd565b6106a6565b005b34801561024d57600080fd5b50609754610261906001600160a01b031681565b6040516001600160a01b0390911681526020015b60405180910390f35b34801561028a57600080fd5b5061023f610299366004612e19565b6106be565b3480156102aa57600080fd5b5061023f6102b9366004612e77565b6106cd565b3480156102ca57600080fd5b5061023f6102d9366004612ebb565b6106e3565b3480156102ea57600080fd5b5061023f6102f9366004612ebb565b610715565b34801561030a57600080fd5b5061023f610319366004612ed8565b6107fd565b34801561032a57600080fd5b5061023f610831565b34801561033f57600080fd5b5061023f61034e366004612e77565b6108cb565b34801561035f57600080fd5b5061023f61036e366004612f22565b6108da565b34801561037f57600080fd5b506103886108ec565b604051908152602001610275565b61023f6103a4366004612f6d565b610a64565b3480156103b557600080fd5b5061023f610b34565b3480156103ca57600080fd5b50610388610b48565b3480156103df57600080fd5b5061023f6103ee366004613031565b610bfb565b3480156103ff57600080fd5b5061023f61040e366004613087565b610c09565b34801561041f57600080fd5b5060ca54610100900460ff165b6040519015158152602001610275565b34801561044857600080fd5b5061023f610457366004612e77565b610c1d565b34801561046857600080fd5b5061023f610c2c565b34801561047d57600080fd5b5061023f610c43565b34801561049257600080fd5b5061023f6104a13660046130c2565b610cde565b3480156104b257600080fd5b5061023f6104c136600461312b565b610cf7565b3480156104d257600080fd5b5061023f6104e136600461317c565b610ed2565b3480156104f257600080fd5b5060ca54610261906201000090046001600160a01b031681565b34801561051857600080fd5b5061023f610527366004613031565b610ee3565b34801561053857600080fd5b5061023f610547366004613031565b610ef1565b34801561055857600080fd5b5060ca5461042c9060ff1681565b34801561057257600080fd5b5061023f610581366004613087565b610f01565b34801561059257600080fd5b5061023f6105a1366004612ed8565b610f0f565b3480156105b257600080fd5b5061023f6105c1366004612f22565b610f1c565b3480156105d257600080fd5b5061023f6105e1366004612e19565b610f29565b3480156105f257600080fd5b5061023f6106013660046131a8565b610f38565b34801561061257600080fd5b5061023f610621366004613087565b610f49565b34801561063257600080fd5b5061023f610641366004612ebb565b610f59565b34801561065257600080fd5b5061023f610661366004612ed8565b610f83565b34801561067257600080fd5b5061023f610681366004612e19565b610f90565b34801561069257600080fd5b5061023f6106a13660046131df565b610f9f565b6106b686868686868633336110f2565b505050505050565b6106b68686868686338761131b565b6106dc85858585853333611505565b5050505050565b6106eb611747565b60ca80546001600160a01b03909216620100000262010000600160b01b0319909216919091179055565b6001600160a01b037f00000000000000000000000000000000000000000000000000000000000000001630036107665760405162461bcd60e51b815260040161075d90613230565b60405180910390fd5b7f00000000000000000000000000000000000000000000000000000000000000006001600160a01b03166107af600080516020613623833981519152546001600160a01b031690565b6001600160a01b0316146107d55760405162461bcd60e51b815260040161075d9061327c565b6107de816117d2565b604080516000808252602082019092526107fa918391906117da565b50565b8361080781611945565b6108245760405163e6c4247b60e01b815260040160405180910390fd5b6106b68585853386611967565b60ca54610100900460ff1661085957604051637c7fd07960e01b815260040160405180910390fd5b60ca546201000090046001600160a01b0316331461088a57604051631d77d47760e21b815260040160405180910390fd5b60ca805461ff00191690556040513381527f5db9ee0a495bf2e6ff9c91a7834c1ba4fdd244a5e8aa4e537bd38aeae4b073aa906020015b60405180910390a1565b6106dc8585858585333361131b565b6108e78383833333611a30565b505050565b60008061016160009054906101000a90046001600160a01b03166001600160a01b03166318160ddd6040518163ffffffff1660e01b8152600401602060405180830381865afa158015610943573d6000803e3d6000fd5b505050506040513d601f19601f8201168201806040525081019061096791906132c8565b90508060000361098057670de0b6b3a764000091505090565b610163546000805b82811015610a5157600061016382815481106109a6576109a66132e1565b60009182526020822001546040516370a0823160e01b81523060048201526001600160a01b03909116925082906370a0823190602401602060405180830381865afa1580156109f9573d6000803e3d6000fd5b505050506040513d601f19601f82011682018060405250810190610a1d91906132c8565b9050610a2882611bb9565b610a32908261330d565b610a3c9085613324565b93505050610a4a8160010190565b9050610988565b50610a5c8382613337565b935050505090565b6001600160a01b037f0000000000000000000000000000000000000000000000000000000000000000163003610aac5760405162461bcd60e51b815260040161075d90613230565b7f00000000000000000000000000000000000000000000000000000000000000006001600160a01b0316610af5600080516020613623833981519152546001600160a01b031690565b6001600160a01b031614610b1b5760405162461bcd60e51b815260040161075d9061327c565b610b24826117d2565b610b30828260016117da565b5050565b610b3c611747565b60ca805460ff19169055565b6000306001600160a01b037f00000000000000000000000000000000000000000000000000000000000000001614610be85760405162461bcd60e51b815260206004820152603860248201527f555550535570677261646561626c653a206d757374206e6f742062652063616c60448201527f6c6564207468726f7567682064656c656761746563616c6c0000000000000000606482015260840161075d565b5060008051602061362383398151915290565b6106dc858585853386611c80565b610c17848484843333611c80565b50505050565b6106dc85858585853333611dda565b610c34611747565b60ca805460ff19166001179055565b610c4b611fa0565b60ca546201000090046001600160a01b03163314610c7c57604051631d77d47760e21b815260040160405180910390fd5b60ca5460ff16610c9f5760405163866099c360e01b815260040160405180910390fd5b60ca805461ff0019166101001790556040513381527f62e78cea01bee320cd4e420270b5ea74000d11b0c9f74754ebdbfc544b05a258906020016108c1565b610cee87878787878733886110f2565b50505050505050565b610cff611747565b6000826001600160a01b03166359e02dd76040518163ffffffff1660e01b81526004016040805180830381865afa158015610d3e573d6000803e3d6000fd5b505050506040513d601f19601f82011682018060405250810190610d62919061336e565b91505080610d835760405163e6c4247b60e01b815260040160405180910390fd5b6001600160a01b0384166000908152610165602052604090206001015460ff16610e68576040805160608101825261016354815260016020820152908101610dcc84601261339a565b600090810b9091526001600160a01b03861680825261016560209081526040808420855181559185015160019283018054969092015161ffff1990961690151561ff0019161761010060ff9096169590950294909417909355610163805493840181559091527fb0f3e90519fd0de3100ca1a24094c0a25e5cbf467d74a2603172b5a5204555b390910180546001600160a01b03191690911790555b6001600160a01b038481166000818152610164602090815260409182902080546001600160a01b0319169488169485179055905192835290917f20d2581988316d1a188695a19393b9ae4c1c266ddf57ce57a64db1ea06df0f16910160405180910390a250505050565b610b30828260008033336001611fc9565b6106dc85858585338661224d565b6106dc8585858533866000611fc9565b610c1784848484333361224d565b610c178484843385611a30565b6108e7838383333361237b565b6106b686868686863387611dda565b6108e7838360008033866001611fc9565b610c178484848433336000611fc9565b610f61611747565b609780546001600160a01b0319166001600160a01b0392909216919091179055565b610c17848484338561237b565b6106b686868686863387611505565b600054610100900460ff1615808015610fbf5750600054600160ff909116105b80610fd95750303b158015610fd9575060005460ff166001145b61103c5760405162461bcd60e51b815260206004820152602e60248201527f496e697469616c697a61626c653a20636f6e747261637420697320616c72656160448201526d191e481a5b9a5d1a585b1a5e995960921b606482015260840161075d565b6000805460ff19166001179055801561105f576000805461ff0019166101001790555b61106985856124b5565b61016280546001600160a01b038086166001600160a01b031992831617909255610161805492851692909116821790556110a690846000196124f8565b80156106dc576000805461ff0019169055604051600181527f7f26b83ff96e1f2b6a682f133852f6798a09c465da95921460cefb38474024989060200160405180910390a15050505050565b876110fc81611945565b6111195760405163e6c4247b60e01b815260040160405180910390fd5b60006111278a868630612640565b61016254604051627c6da160e21b8152600481018c90529192506000916001600160a01b03909116906301f1b68490602401602060405180830381865afa158015611176573d6000803e3d6000fd5b505050506040513d601f19601f8201168201806040525081019061119a91906133bb565b90506111a88186308b6126c9565b61016254604051630f889c5360e11b8152600481018c9052602481018b9052604481018a905260648101899052608481018490526001600160a01b0386811660a48301526000928392911690631f1138a69060c40160408051808303816000875af115801561121b573d6000803e3d6000fd5b505050506040513d601f19601f8201168201806040525081019061123f91906133d8565b9092509050600061125083866133fc565b905060006112628f836000308d611967565b905060008f905060008f905060008f905060008f90506000858f61128691906133fc565b90508c6001600160a01b03168e6001600160a01b0316857f8b0e6e8789b22fed235ea22bf1ff2085f5d51277cd17d7d4b532bd4296c594018887878e886040516112fd9594939291906001600160a01b03959095168552602085019390935260408401919091526060830152608082015260a00190565b60405180910390a45050505050505050505050505050505050505050565b8661132581611945565b6113425760405163e6c4247b60e01b815260040160405180910390fd5b600061135089868630612640565b9050600061016260009054906101000a90046001600160a01b03166001600160a01b03166360009e0b6040518163ffffffff1660e01b8152600401602060405180830381865afa1580156113a8573d6000803e3d6000fd5b505050506040513d601f19601f820116820180604052508101906113cc91906133bb565b90506113da8186308b6126c9565b6101625460405162737b6760e21b8152600481018b9052602481018a905260448101899052606481018490526001600160a01b03868116608483015260009283929116906301cded9c9060a40160408051808303816000875af1158015611445573d6000803e3d6000fd5b505050506040513d601f19601f8201168201806040525081019061146991906133d8565b9092509050600061147a83866133fc565b9050600061148c8e836000308d611967565b90508d8d8d600061149d858f6133fc565b90508b6001600160a01b03168d6001600160a01b0316847f2b431b3dda86c3d03ff399b5bada914145a869eb3f7ebfefa094ddfe99c0c4a187868c876040516114e9949392919061340f565b60405180910390a4505050505050505050505050505050505050565b8661150f81611945565b61152c5760405163e6c4247b60e01b815260040160405180910390fd5b61016254604080516360009e0b60e01b815290516000926001600160a01b0316916360009e0b9160048083019260209291908290030181865afa158015611577573d6000803e3d6000fd5b505050506040513d601f19601f8201168201806040525081019061159b91906133bb565b61016254604051627c6da160e21b8152600481018b90529192506000916001600160a01b03909116906301f1b68490602401602060405180830381865afa1580156115ea573d6000803e3d6000fd5b505050506040513d601f19601f8201168201806040525081019061160e91906133bb565b905061161c8286308b6126c9565b6116288186308a6126c9565b610162546040516317574bc560e01b8152600481018b9052602481018a9052604481018990526000606482018190529182916001600160a01b03909116906317574bc59060840160408051808303816000875af115801561168d573d6000803e3d6000fd5b505050506040513d601f19601f820116820180604052508101906116b191906133d8565b9150915060006116c48d848b308b611967565b90506116da84896116d5858e6133fc565b612701565b60008d905060008c9050886001600160a01b03168a6001600160a01b03168f7fef4f73043e566578c766f5060597f325dcb82e894199f25bf03e1506beedfa088585898960405161172e949392919061340f565b60405180910390a4505050505050505050505050505050565b60975460405163d994d6d560e01b81523360048201526001600160a01b039091169063d994d6d590602401602060405180830381865afa15801561178f573d6000803e3d6000fd5b505050506040513d601f19601f820116820180604052508101906117b39190613435565b6117d057604051631dd1b1b560e21b815260040160405180910390fd5b565b6107fa611747565b7f4910fdfa16fed3260ed0e7147f7cc6da11a60208b5b9406d12a635614ffd91435460ff161561180d576108e783612731565b826001600160a01b03166352d1902d6040518163ffffffff1660e01b8152600401602060405180830381865afa925050508015611867575060408051601f3d908101601f19168201909252611864918101906132c8565b60015b6118ca5760405162461bcd60e51b815260206004820152602e60248201527f45524331393637557067726164653a206e657720696d706c656d656e7461746960448201526d6f6e206973206e6f74205555505360901b606482015260840161075d565b60008051602061362383398151915281146119395760405162461bcd60e51b815260206004820152602960248201527f45524331393637557067726164653a20756e737570706f727465642070726f786044820152681a58589b195555525160ba1b606482015260840161075d565b506108e78383836127cd565b6001600160a01b03166000908152610165602052604090206001015460ff1690565b60006119716127f2565b61197b868661284d565b95509050838110156119aa576040516354cde31360e01b8152600481018590526024810182905260440161075d565b61016154604051632770a7eb60e21b81526001600160a01b0385811660048301526024820188905290911690639dc29fac90604401600060405180830381600087803b1580156119f957600080fd5b505af1158015611a0d573d6000803e3d6000fd5b50505050611a1c868383612701565b611a27600161012f55565b95945050505050565b84611a3a81611945565b611a575760405163e6c4247b60e01b815260040160405180910390fd5b61016254604080516360009e0b60e01b815290516000926001600160a01b0316916360009e0b9160048083019260209291908290030181865afa158015611aa2573d6000803e3d6000fd5b505050506040513d601f19601f82011682018060405250810190611ac691906133bb565b9050611ad4818530896126c9565b61016254604051639abb14c960e01b815260048101889052600060248201819052916001600160a01b031690639abb14c9906044016020604051808303816000875af1158015611b28573d6000803e3d6000fd5b505050506040513d601f19601f82011682018060405250810190611b4c91906132c8565b90506000611b5d8983893089611967565b9050846001600160a01b0316866001600160a01b03167fc0a29f7e47448a817f6aab7d6420e2b5aebbe7b1b2efb161c8f94ff6c5112f1a8b8b85604051611ba693929190613450565b60405180910390a3505050505050505050565b6001600160a01b03808216600090815261016460205260408082205481516359e02dd760e01b8152825193948594859493909116926359e02dd792600480820193918290030181865afa158015611c14573d6000803e3d6000fd5b505050506040513d601f19601f82011682018060405250810190611c38919061336e565b9150915080611c79576001600160a01b03848116600090815261016460205260409081902054905163de4f3a0f60e01b81529116600482015260240161075d565b5092915050565b85611c8a81611945565b611ca75760405163e6c4247b60e01b815260040160405180910390fd5b6000611cb588868630612640565b61016254604051630d44dc7960e11b8152600481018a905260248101899052604481018390526001600160a01b03868116606483015292935060009283921690631a89b8f29060840160408051808303816000875af1158015611d1c573d6000803e3d6000fd5b505050506040513d601f19601f82011682018060405250810190611d4091906133d8565b90925090506000611d5183856133fc565b90506000611d638c836000308c611967565b90508b8b8b6000611d74858e6133fc565b90508a6001600160a01b03168c6001600160a01b0316847f1561c24cd3f8ad463ca4ff624e29c93575d86a34004f6848abcf37684e2ba601878b8787604051611dc0949392919061340f565b60405180910390a450505050505050505050505050505050565b86611de481611945565b611e015760405163e6c4247b60e01b815260040160405180910390fd5b6000611e0f89868630612640565b61016254604051627c6da160e21b8152600481018b90529192506000916001600160a01b03909116906301f1b68490602401602060405180830381865afa158015611e5e573d6000803e3d6000fd5b505050506040513d601f19601f82011682018060405250810190611e8291906133bb565b9050611e908186308b6126c9565b61016254604051634454ae8b60e01b8152600481018b9052602481018a905260448101899052606481018490526001600160a01b0386811660848301526000928392911690634454ae8b9060a40160408051808303816000875af1158015611efc573d6000803e3d6000fd5b505050506040513d601f19601f82011682018060405250810190611f2091906133d8565b90925090506000611f3183866133fc565b90506000611f438e836000308d611967565b90508d8d8d6000611f54858f6133fc565b90508b6001600160a01b03168d6001600160a01b0316847fd2e2e0c1053bae3647488c151fb84b114c8432e6e9ff648822b045f54e836bf887868c876040516114e9949392919061340f565b60ca54610100900460ff16156117d05760405163783bb6c960e11b815260040160405180910390fd5b86611fd381611945565b611ff05760405163e6c4247b60e01b815260040160405180910390fd5b61016254604051627c6da160e21b8152600481018990526000916001600160a01b0316906301f1b68490602401602060405180830381865afa15801561203a573d6000803e3d6000fd5b505050506040513d601f19601f8201168201806040525081019061205e91906133bb565b905082156120d3576040516370a0823160e01b81526001600160a01b0386811660048301528216906370a0823190602401602060405180830381865afa1580156120ac573d6000803e3d6000fd5b505050506040513d601f19601f820116820180604052508101906120d091906132c8565b96505b6120df8186308a6126c9565b6000831561215e5761016254604051639195c85b60e01b8152600481018b90526001600160a01b0390911690639195c85b906024016020604051808303816000875af1158015612133573d6000803e3d6000fd5b505050506040513d601f19601f8201168201806040525081019061215791906132c8565b90506121df565b610162546040516302fbe15760e31b8152600481018b9052602481018a9052600060448201526001600160a01b03909116906317df0ab8906064016020604051808303816000875af11580156121b8573d6000803e3d6000fd5b505050506040513d601f19601f820116820180604052508101906121dc91906132c8565b90505b60006121ee8b838a308a611967565b9050856001600160a01b0316876001600160a01b03168b7f7ad6609da145d6ee5ad0114ea489bb938c61528354b696f0e99c3a59a0d2e0278e8d8660405161223893929190613450565b60405180910390a45050505050505050505050565b8561225781611945565b6122745760405163e6c4247b60e01b815260040160405180910390fd5b600061228288868630612640565b61016254604051634cffbaab60e01b8152600481018a905260248101899052604481018390526001600160a01b03868116606483015292935060009290911690634cffbaab906084016020604051808303816000875af11580156122ea573d6000803e3d6000fd5b505050506040513d601f19601f8201168201806040525081019061230e91906132c8565b9050600061231c82846133fc565b9050600061232e8b836000308b611967565b90506001600160a01b038087169088168b7fa96382430c9c4bc56996c6e85c0f27e26cfd1f4cbfc2ce9f5ba23f1e51252bc78e8d61236c878f6133fc565b60405161223893929190613450565b8461238581611945565b6123a25760405163e6c4247b60e01b815260040160405180910390fd5b60006123b087868630612640565b6101625460405163218856e360e11b815260048101899052602481018390526001600160a01b03868116604483015292935060009290911690634310adc6906064016020604051808303816000875af1158015612411573d6000803e3d6000fd5b505050506040513d601f19601f8201168201806040525081019061243591906132c8565b9050600061244382846133fc565b905060006124558a836000308b611967565b90506001600160a01b038087169088167f7cee37be28e3f38ae2745b4a7d111a1ea445fda21dfc7079716bdd4affe5d2868c8c612492868e6133fc565b6040516124a193929190613450565b60405180910390a350505050505050505050565b600054610100900460ff166124dc5760405162461bcd60e51b815260040161075d90613471565b6124e4612896565b6124ed826128bd565b610b308160016128ed565b8015806125725750604051636eb1769f60e11b81523060048201526001600160a01b03838116602483015284169063dd62ed3e90604401602060405180830381865afa15801561254c573d6000803e3d6000fd5b505050506040513d601f19601f8201168201806040525081019061257091906132c8565b155b6125dd5760405162461bcd60e51b815260206004820152603660248201527f5361666545524332303a20617070726f76652066726f6d206e6f6e2d7a65726f60448201527520746f206e6f6e2d7a65726f20616c6c6f77616e636560501b606482015260840161075d565b6040516001600160a01b0383166024820152604481018290526108e790849063095ea7b360e01b906064015b60408051601f198184030181529190526020810180516001600160e01b03166001600160e01b031990931692909217909152612950565b600061264c8585612a22565b610161546040516340c10f1960e01b81526001600160a01b038581166004830152602482018490529293509116906340c10f1990604401600060405180830381600087803b15801561269d57600080fd5b505af11580156126b1573d6000803e3d6000fd5b505050506126c1858430876126c9565b949350505050565b6040516001600160a01b0380851660248301528316604482015260648101829052610c179085906323b872dd60e01b90608401612609565b6040516001600160a01b0383166024820152604481018290526108e790849063a9059cbb60e01b90606401612609565b6001600160a01b0381163b61279e5760405162461bcd60e51b815260206004820152602d60248201527f455243313936373a206e657720696d706c656d656e746174696f6e206973206e60448201526c1bdd08184818dbdb9d1c9858dd609a1b606482015260840161075d565b60008051602061362383398151915280546001600160a01b0319166001600160a01b0392909216919091179055565b6127d683612a5b565b6000825111806127e35750805b156108e757610c178383612a9b565b600261012f54036128455760405162461bcd60e51b815260206004820152601f60248201527f5265656e7472616e637947756172643a207265656e7472616e742063616c6c00604482015260640161075d565b600261012f55565b600080600061285a6108ec565b90506000612868858361330d565b905061287386611bb9565b61287d9082613337565b93506128898686612b86565b9396939550929350505050565b600054610100900460ff166117d05760405162461bcd60e51b815260040161075d90613471565b600054610100900460ff166128e45760405162461bcd60e51b815260040161075d90613471565b6107fa81612be1565b600054610100900460ff166129145760405162461bcd60e51b815260040161075d90613471565b60ca80546001600160a01b03909316620100000262010000600160b01b03199215159290921661ff01600160b01b031990931692909217179055565b60006129a5826040518060400160405280602081526020017f5361666545524332303a206c6f772d6c6576656c2063616c6c206661696c6564815250856001600160a01b0316612c089092919063ffffffff16565b8051909150156108e757808060200190518101906129c39190613435565b6108e75760405162461bcd60e51b815260206004820152602a60248201527f5361666545524332303a204552433230206f7065726174696f6e20646964206e6044820152691bdd081cdd58d8d9595960b21b606482015260840161075d565b600080612a2d6108ec565b90506000612a3a85611bb9565b612a44908561330d565b9050612a508282613337565b925050505b92915050565b612a6481612731565b6040516001600160a01b038216907fbc7cd75a20ee27fd9adebab32041f755214dbc6bffa90cc0225b39da2e5c2d3b90600090a250565b60606001600160a01b0383163b612b035760405162461bcd60e51b815260206004820152602660248201527f416464726573733a2064656c65676174652063616c6c20746f206e6f6e2d636f6044820152651b9d1c9858dd60d21b606482015260840161075d565b600080846001600160a01b031684604051612b1e91906134e0565b600060405180830381855af49150503d8060008114612b59576040519150601f19603f3d011682016040523d82523d6000602084013e612b5e565b606091505b5091509150612a50828260405180606001604052806027815260200161364360279139612c21565b6001600160a01b038216600090815261016560205260408120600101548291610100909104810b90811315611c7957612bc081600a6135e0565b612bca9083613337565b9150612bd781600a6135e0565b6126c1908361330d565b600054610100900460ff16610f615760405162461bcd60e51b815260040161075d90613471565b6060612c178484600085612c3a565b90505b9392505050565b60608315612c30575081612c1a565b612c1a8383612d15565b606082471015612c9b5760405162461bcd60e51b815260206004820152602660248201527f416464726573733a20696e73756666696369656e742062616c616e636520666f6044820152651c8818d85b1b60d21b606482015260840161075d565b600080866001600160a01b03168587604051612cb791906134e0565b60006040518083038185875af1925050503d8060008114612cf4576040519150601f19603f3d011682016040523d82523d6000602084013e612cf9565b606091505b5091509150612d0a87838387612d3f565b979650505050505050565b815115612d255781518083602001fd5b8060405162461bcd60e51b815260040161075d91906135ef565b60608315612dae578251600003612da7576001600160a01b0385163b612da75760405162461bcd60e51b815260206004820152601d60248201527f416464726573733a2063616c6c20746f206e6f6e2d636f6e7472616374000000604482015260640161075d565b50816126c1565b6126c18383612d15565b6001600160a01b03811681146107fa57600080fd5b60008060008060008060c08789031215612de657600080fd5b8635612df181612db8565b9860208801359850604088013597606081013597506080810135965060a00135945092505050565b60008060008060008060c08789031215612e3257600080fd5b8635612e3d81612db8565b95506020870135945060408701359350606087013592506080870135915060a0870135612e6981612db8565b809150509295509295509295565b600080600080600060a08688031215612e8f57600080fd5b8535612e9a81612db8565b97602087013597506040870135966060810135965060800135945092505050565b600060208284031215612ecd57600080fd5b8135612c1a81612db8565b60008060008060808587031215612eee57600080fd5b8435612ef981612db8565b935060208501359250604085013591506060850135612f1781612db8565b939692955090935050565b600080600060608486031215612f3757600080fd5b8335612f4281612db8565b95602085013595506040909401359392505050565b634e487b7160e01b600052604160045260246000fd5b60008060408385031215612f8057600080fd5b8235612f8b81612db8565b9150602083013567ffffffffffffffff80821115612fa857600080fd5b818501915085601f830112612fbc57600080fd5b813581811115612fce57612fce612f57565b604051601f8201601f19908116603f01168101908382118183101715612ff657612ff6612f57565b8160405282815288602084870101111561300f57600080fd5b8260208601602083013760006020848301015280955050505050509250929050565b600080600080600060a0868803121561304957600080fd5b853561305481612db8565b9450602086013593506040860135925060608601359150608086013561307981612db8565b809150509295509295909350565b6000806000806080858703121561309d57600080fd5b84356130a881612db8565b966020860135965060408601359560600135945092505050565b600080600080600080600060e0888a0312156130dd57600080fd5b87356130e881612db8565b96506020880135955060408801359450606088013593506080880135925060a0880135915060c088013561311b81612db8565b8091505092959891949750929550565b60008060006060848603121561314057600080fd5b833561314b81612db8565b9250602084013561315b81612db8565b9150604084013560ff8116811461317157600080fd5b809150509250925092565b6000806040838503121561318f57600080fd5b823561319a81612db8565b946020939093013593505050565b6000806000606084860312156131bd57600080fd5b83356131c881612db8565b925060208401359150604084013561317181612db8565b600080600080608085870312156131f557600080fd5b843561320081612db8565b9350602085013561321081612db8565b9250604085013561322081612db8565b91506060850135612f1781612db8565b6020808252602c908201527f46756e6374696f6e206d7573742062652063616c6c6564207468726f7567682060408201526b19195b1959d85d1958d85b1b60a21b606082015260800190565b6020808252602c908201527f46756e6374696f6e206d7573742062652063616c6c6564207468726f7567682060408201526b6163746976652070726f787960a01b606082015260800190565b6000602082840312156132da57600080fd5b5051919050565b634e487b7160e01b600052603260045260246000fd5b634e487b7160e01b600052601160045260246000fd5b8082028115828204841417612a5557612a556132f7565b80820180821115612a5557612a556132f7565b60008261335457634e487b7160e01b600052601260045260246000fd5b500490565b8051801515811461336957600080fd5b919050565b6000806040838503121561338157600080fd5b8251915061339160208401613359565b90509250929050565b600082810b9082900b03607f198112607f82131715612a5557612a556132f7565b6000602082840312156133cd57600080fd5b8151612c1a81612db8565b600080604083850312156133eb57600080fd5b505080516020909101519092909150565b81810381811115612a5557612a556132f7565b6001600160a01b0394909416845260208401929092526040830152606082015260800190565b60006020828403121561344757600080fd5b612c1a82613359565b6001600160a01b039390931683526020830191909152604082015260600190565b6020808252602b908201527f496e697469616c697a61626c653a20636f6e7472616374206973206e6f74206960408201526a6e697469616c697a696e6760a81b606082015260800190565b60005b838110156134d75781810151838201526020016134bf565b50506000910152565b600082516134f28184602087016134bc565b9190910192915050565b600181815b8085111561353757816000190482111561351d5761351d6132f7565b8085161561352a57918102915b93841c9390800290613501565b509250929050565b60008261354e57506001612a55565b8161355b57506000612a55565b8160018114613571576002811461357b57613597565b6001915050612a55565b60ff84111561358c5761358c6132f7565b50506001821b612a55565b5060208310610133831016604e8410600b84101617156135ba575081810a612a55565b6135c483836134fc565b80600019048211156135d8576135d86132f7565b029392505050565b6000612c1a60ff84168361353f565b602081526000825180602084015261360e8160408501602087016134bc565b601f01601f1916919091016040019291505056fe360894a13ba1a3210667c828492db98dca3e2076cc3735a920a3ca505d382bbc416464726573733a206c6f772d6c6576656c2064656c65676174652063616c6c206661696c6564a26469706673582212207d16f5806b28295ad44242dfd8a31b6afeabe70879e7904ebcd29967b2eb51c464736f6c63430008110033608060405260405161072738038061072783398101604081905261002291610319565b61002e82826000610035565b5050610436565b61003e8361006b565b60008251118061004b5750805b156100665761006483836100ab60201b6100291760201c565b505b505050565b610074816100d7565b6040516001600160a01b038216907fbc7cd75a20ee27fd9adebab32041f755214dbc6bffa90cc0225b39da2e5c2d3b90600090a250565b60606100d08383604051806060016040528060278152602001610700602791396101a9565b9392505050565b6100ea8161022260201b6100551760201c565b6101515760405162461bcd60e51b815260206004820152602d60248201527f455243313936373a206e657720696d706c656d656e746174696f6e206973206e60448201526c1bdd08184818dbdb9d1c9858dd609a1b60648201526084015b60405180910390fd5b806101887f360894a13ba1a3210667c828492db98dca3e2076cc3735a920a3ca505d382bbc60001b61023160201b6100641760201c565b80546001600160a01b0319166001600160a01b039290921691909117905550565b6060600080856001600160a01b0316856040516101c691906103e7565b600060405180830381855af49150503d8060008114610201576040519150601f19603f3d011682016040523d82523d6000602084013e610206565b606091505b50909250905061021886838387610234565b9695505050505050565b6001600160a01b03163b151590565b90565b606083156102a357825160000361029c576001600160a01b0385163b61029c5760405162461bcd60e51b815260206004820152601d60248201527f416464726573733a2063616c6c20746f206e6f6e2d636f6e74726163740000006044820152606401610148565b50816102ad565b6102ad83836102b5565b949350505050565b8151156102c55781518083602001fd5b8060405162461bcd60e51b81526004016101489190610403565b634e487b7160e01b600052604160045260246000fd5b60005b838110156103105781810151838201526020016102f8565b50506000910152565b6000806040838503121561032c57600080fd5b82516001600160a01b038116811461034357600080fd5b60208401519092506001600160401b038082111561036057600080fd5b818501915085601f83011261037457600080fd5b815181811115610386576103866102df565b604051601f8201601f19908116603f011681019083821181831017156103ae576103ae6102df565b816040528281528860208487010111156103c757600080fd5b6103d88360208301602088016102f5565b80955050505050509250929050565b600082516103f98184602087016102f5565b9190910192915050565b60208152600082518060208401526104228160408501602087016102f5565b601f01601f19169190910160400192915050565b6102bb806104456000396000f3fe60806040523661001357610011610017565b005b6100115b610027610022610067565b61009f565b565b606061004e838360405180606001604052806027815260200161025f602791396100c3565b9392505050565b6001600160a01b03163b151590565b90565b600061009a7f360894a13ba1a3210667c828492db98dca3e2076cc3735a920a3ca505d382bbc546001600160a01b031690565b905090565b3660008037600080366000845af43d6000803e8080156100be573d6000f35b3d6000fd5b6060600080856001600160a01b0316856040516100e0919061020f565b600060405180830381855af49150503d806000811461011b576040519150601f19603f3d011682016040523d82523d6000602084013e610120565b606091505b50915091506101318683838761013b565b9695505050505050565b606083156101af5782516000036101a8576001600160a01b0385163b6101a85760405162461bcd60e51b815260206004820152601d60248201527f416464726573733a2063616c6c20746f206e6f6e2d636f6e747261637400000060448201526064015b60405180910390fd5b50816101b9565b6101b983836101c1565b949350505050565b8151156101d15781518083602001fd5b8060405162461bcd60e51b815260040161019f919061022b565b60005b838110156102065781810151838201526020016101ee565b50506000910152565b600082516102218184602087016101eb565b9190910192915050565b602081526000825180602084015261024a8160408501602087016101eb565b601f01601f1916919091016040019291505056fe416464726573733a206c6f772d6c6576656c2064656c65676174652063616c6c206661696c6564a2646970667358221220687bc65f742577afa32edc32468487a306093fad2f395880fa5ffa4efc5fdd6064736f6c63430008110033416464726573733a206c6f772d6c6576656c2064656c65676174652063616c6c206661696c656460a06040523060805234801561001457600080fd5b5061001d610022565b6100e2565b600054610100900460ff161561008e5760405162461bcd60e51b815260206004820152602760248201527f496e697469616c697a61626c653a20636f6e747261637420697320696e697469604482015266616c697a696e6760c81b606482015260840160405180910390fd5b60005460ff90811610156100e0576000805460ff191660ff9081179091556040519081527f7f26b83ff96e1f2b6a682f133852f6798a09c465da95921460cefb38474024989060200160405180910390a15b565b6080516124db6200011a60003960008181610798015281816107d8015281816108bb015281816108fb015261098a01526124db6000f3fe6080604052600436106101d85760003560e01c806352d1902d11610102578063a457c2d711610095578063d547741f11610064578063d547741f14610566578063d55fd84514610586578063dd62ed3e146105a6578063e4c0aaf4146105c657600080fd5b8063a457c2d7146104e4578063a9059cbb14610504578063ca15c87314610524578063d53913931461054457600080fd5b806391d14854116100d157806391d148541461047a57806395d89b411461049a5780639dc29fac146104af578063a217fddf146104cf57600080fd5b806352d1902d146103ef57806370a08231146104045780638f15b4141461043a5780639010d07c1461045a57600080fd5b8063282c51f31161017a5780633659cfe6116101495780633659cfe61461037c578063395093511461039c57806340c10f19146103bc5780634f1ef286146103dc57600080fd5b8063282c51f3146102fc5780632f2ff15d1461031e578063313ce5671461034057806336568abe1461035c57600080fd5b80630c340a24116101b65780630c340a241461025457806318160ddd1461028d57806323b872dd146102ac578063248a9ca3146102cc57600080fd5b806301ffc9a7146101dd57806306fdde0314610212578063095ea7b314610234575b600080fd5b3480156101e957600080fd5b506101fd6101f8366004611d3f565b6105e6565b60405190151581526020015b60405180910390f35b34801561021e57600080fd5b50610227610611565b6040516102099190611d8d565b34801561024057600080fd5b506101fd61024f366004611dd5565b6106a3565b34801561026057600080fd5b5061019154610275906001600160a01b031681565b6040516001600160a01b039091168152602001610209565b34801561029957600080fd5b5060cb545b604051908152602001610209565b3480156102b857600080fd5b506101fd6102c7366004611e01565b6106bb565b3480156102d857600080fd5b5061029e6102e7366004611e42565b60009081526065602052604090206001015490565b34801561030857600080fd5b5061029e60008051602061241f83398151915281565b34801561032a57600080fd5b5061033e610339366004611e5b565b6106e1565b005b34801561034c57600080fd5b5060405160128152602001610209565b34801561036857600080fd5b5061033e610377366004611e5b565b61070b565b34801561038857600080fd5b5061033e610397366004611e8b565b61078e565b3480156103a857600080fd5b506101fd6103b7366004611dd5565b61086d565b3480156103c857600080fd5b5061033e6103d7366004611dd5565b61088f565b61033e6103ea366004611f34565b6108b1565b3480156103fb57600080fd5b5061029e61097d565b34801561041057600080fd5b5061029e61041f366004611e8b565b6001600160a01b0316600090815260c9602052604090205490565b34801561044657600080fd5b5061033e610455366004611fb8565b610a30565b34801561046657600080fd5b50610275610475366004612041565b610b49565b34801561048657600080fd5b506101fd610495366004611e5b565b610b61565b3480156104a657600080fd5b50610227610b8c565b3480156104bb57600080fd5b5061033e6104ca366004611dd5565b610b9b565b3480156104db57600080fd5b5061029e600081565b3480156104f057600080fd5b506101fd6104ff366004611dd5565b610bbd565b34801561051057600080fd5b506101fd61051f366004611dd5565b610c43565b34801561053057600080fd5b5061029e61053f366004611e42565b610c51565b34801561055057600080fd5b5061029e60008051602061248683398151915281565b34801561057257600080fd5b5061033e610581366004611e5b565b610c68565b34801561059257600080fd5b506101fd6105a1366004611e8b565b610c8d565b3480156105b257600080fd5b5061029e6105c1366004612063565b610cd8565b3480156105d257600080fd5b5061033e6105e1366004611e8b565b610d03565b60006001600160e01b03198216635a05180f60e01b148061060b575061060b82610d2e565b92915050565b606060cc805461062090612091565b80601f016020809104026020016040519081016040528092919081815260200182805461064c90612091565b80156106995780601f1061066e57610100808354040283529160200191610699565b820191906000526020600020905b81548152906001019060200180831161067c57829003601f168201915b5050505050905090565b6000336106b1818585610d63565b5060019392505050565b6000336106c9858285610e87565b6106d4858585610f01565b60019150505b9392505050565b6000828152606560205260409020600101546106fc816110ac565b61070683836110b6565b505050565b6001600160a01b03811633146107805760405162461bcd60e51b815260206004820152602f60248201527f416363657373436f6e74726f6c3a2063616e206f6e6c792072656e6f756e636560448201526e103937b632b9903337b91039b2b63360891b60648201526084015b60405180910390fd5b61078a82826110d8565b5050565b6001600160a01b037f00000000000000000000000000000000000000000000000000000000000000001630036107d65760405162461bcd60e51b8152600401610777906120cb565b7f00000000000000000000000000000000000000000000000000000000000000006001600160a01b031661081f60008051602061243f833981519152546001600160a01b031690565b6001600160a01b0316146108455760405162461bcd60e51b815260040161077790612117565b61084e816110fa565b6040805160008082526020820190925261086a91839190611102565b50565b6000336106b18185856108808383610cd8565b61088a9190612179565b610d63565b6000805160206124868339815191526108a7816110ac565b610706838361126d565b6001600160a01b037f00000000000000000000000000000000000000000000000000000000000000001630036108f95760405162461bcd60e51b8152600401610777906120cb565b7f00000000000000000000000000000000000000000000000000000000000000006001600160a01b031661094260008051602061243f833981519152546001600160a01b031690565b6001600160a01b0316146109685760405162461bcd60e51b815260040161077790612117565b610971826110fa565b61078a82826001611102565b6000306001600160a01b037f00000000000000000000000000000000000000000000000000000000000000001614610a1d5760405162461bcd60e51b815260206004820152603860248201527f555550535570677261646561626c653a206d757374206e6f742062652063616c60448201527f6c6564207468726f7567682064656c656761746563616c6c00000000000000006064820152608401610777565b5060008051602061243f83398151915290565b600054610100900460ff1615808015610a505750600054600160ff909116105b80610a6a5750303b158015610a6a575060005460ff166001145b610acd5760405162461bcd60e51b815260206004820152602e60248201527f496e697469616c697a61626c653a20636f6e747261637420697320616c72656160448201526d191e481a5b9a5d1a585b1a5e995960921b6064820152608401610777565b6000805460ff191660011790558015610af0576000805461ff0019166101001790555b610afc8585858561132e565b8015610b42576000805461ff0019169055604051600181527f7f26b83ff96e1f2b6a682f133852f6798a09c465da95921460cefb38474024989060200160405180910390a15b5050505050565b60008281526097602052604081206106da90836113b3565b60009182526065602090815260408084206001600160a01b0393909316845291905290205460ff1690565b606060cd805461062090612091565b60008051602061241f833981519152610bb3816110ac565b61070683836113bf565b60003381610bcb8286610cd8565b905083811015610c2b5760405162461bcd60e51b815260206004820152602560248201527f45524332303a2064656372656173656420616c6c6f77616e63652062656c6f77604482015264207a65726f60d81b6064820152608401610777565b610c388286868403610d63565b506001949350505050565b6000336106b1818585610f01565b600081815260976020526040812061060b906114f3565b600082815260656020526040902060010154610c83816110ac565b61070683836110d8565b6000610ca760008051602061248683398151915283610b61565b8015610cc65750610cc660008051602061241f83398151915283610b61565b801561060b575061060b600083610b61565b6001600160a01b03918216600090815260ca6020908152604080832093909416825291909152205490565b610d0b6114fd565b61019180546001600160a01b0319166001600160a01b0392909216919091179055565b60006001600160e01b03198216637965db0b60e01b148061060b57506301ffc9a760e01b6001600160e01b031983161461060b565b6001600160a01b038316610dc55760405162461bcd60e51b8152602060048201526024808201527f45524332303a20617070726f76652066726f6d20746865207a65726f206164646044820152637265737360e01b6064820152608401610777565b6001600160a01b038216610e265760405162461bcd60e51b815260206004820152602260248201527f45524332303a20617070726f766520746f20746865207a65726f206164647265604482015261737360f01b6064820152608401610777565b6001600160a01b03838116600081815260ca602090815260408083209487168084529482529182902085905590518481527f8c5be1e5ebec7d5bd14f71427d1e84f3dd0314c0f7b2291e5b200ac8c7c3b925910160405180910390a3505050565b6000610e938484610cd8565b90506000198114610efb5781811015610eee5760405162461bcd60e51b815260206004820152601d60248201527f45524332303a20696e73756666696369656e7420616c6c6f77616e63650000006044820152606401610777565b610efb8484848403610d63565b50505050565b6001600160a01b038316610f655760405162461bcd60e51b815260206004820152602560248201527f45524332303a207472616e736665722066726f6d20746865207a65726f206164604482015264647265737360d81b6064820152608401610777565b6001600160a01b038216610fc75760405162461bcd60e51b815260206004820152602360248201527f45524332303a207472616e7366657220746f20746865207a65726f206164647260448201526265737360e81b6064820152608401610777565b6001600160a01b038316600090815260c960205260409020548181101561103f5760405162461bcd60e51b815260206004820152602660248201527f45524332303a207472616e7366657220616d6f756e7420657863656564732062604482015265616c616e636560d01b6064820152608401610777565b6001600160a01b03808516600081815260c9602052604080822086860390559286168082529083902080548601905591517fddf252ad1be2c89b69c2b068fc378daa952ba7f163c4a11628f55a4df523b3ef9061109f9086815260200190565b60405180910390a3610efb565b61086a8133611589565b6110c082826115e2565b60008281526097602052604090206107069082611668565b6110e2828261167d565b600082815260976020526040902061070690826116e4565b61086a6114fd565b7f4910fdfa16fed3260ed0e7147f7cc6da11a60208b5b9406d12a635614ffd91435460ff161561113557610706836116f9565b826001600160a01b03166352d1902d6040518163ffffffff1660e01b8152600401602060405180830381865afa92505050801561118f575060408051601f3d908101601f1916820190925261118c9181019061218c565b60015b6111f25760405162461bcd60e51b815260206004820152602e60248201527f45524331393637557067726164653a206e657720696d706c656d656e7461746960448201526d6f6e206973206e6f74205555505360901b6064820152608401610777565b60008051602061243f83398151915281146112615760405162461bcd60e51b815260206004820152602960248201527f45524331393637557067726164653a20756e737570706f727465642070726f786044820152681a58589b195555525160ba1b6064820152608401610777565b50610706838383611795565b6001600160a01b0382166112c35760405162461bcd60e51b815260206004820152601f60248201527f45524332303a206d696e7420746f20746865207a65726f2061646472657373006044820152606401610777565b8060cb60008282546112d59190612179565b90915550506001600160a01b038216600081815260c960209081526040808320805486019055518481527fddf252ad1be2c89b69c2b068fc378daa952ba7f163c4a11628f55a4df523b3ef910160405180910390a35050565b600054610100900460ff166113555760405162461bcd60e51b8152600401610777906121a5565b61135f84846117ba565b6113676117eb565b61136f6117eb565b61137881611812565b611383600083611842565b61139b60008051602061248683398151915283611842565b610efb60008051602061241f83398151915283611842565b60006106da838361184c565b6001600160a01b03821661141f5760405162461bcd60e51b815260206004820152602160248201527f45524332303a206275726e2066726f6d20746865207a65726f206164647265736044820152607360f81b6064820152608401610777565b6001600160a01b038216600090815260c96020526040902054818110156114935760405162461bcd60e51b815260206004820152602260248201527f45524332303a206275726e20616d6f756e7420657863656564732062616c616e604482015261636560f01b6064820152608401610777565b6001600160a01b038316600081815260c960209081526040808320868603905560cb80548790039055518581529192917fddf252ad1be2c89b69c2b068fc378daa952ba7f163c4a11628f55a4df523b3ef910160405180910390a3505050565b600061060b825490565b6101915460405163d994d6d560e01b81523360048201526001600160a01b039091169063d994d6d590602401602060405180830381865afa158015611546573d6000803e3d6000fd5b505050506040513d601f19601f8201168201806040525081019061156a91906121f0565b61158757604051631dd1b1b560e21b815260040160405180910390fd5b565b6115938282610b61565b61078a576115a081611876565b6115ab836020611888565b6040516020016115bc929190612212565b60408051601f198184030181529082905262461bcd60e51b825261077791600401611d8d565b6115ec8282610b61565b61078a5760008281526065602090815260408083206001600160a01b03851684529091529020805460ff191660011790556116243390565b6001600160a01b0316816001600160a01b0316837f2f8788117e7eff1d82e926ec794901d17c78024a50270940304540a733656f0d60405160405180910390a45050565b60006106da836001600160a01b038416611a24565b6116878282610b61565b1561078a5760008281526065602090815260408083206001600160a01b0385168085529252808320805460ff1916905551339285917ff6391f5c32d9c69d2a47ea670b442974b53935d1edc7fd64eb21e047a839171b9190a45050565b60006106da836001600160a01b038416611a73565b6001600160a01b0381163b6117665760405162461bcd60e51b815260206004820152602d60248201527f455243313936373a206e657720696d706c656d656e746174696f6e206973206e60448201526c1bdd08184818dbdb9d1c9858dd609a1b6064820152608401610777565b60008051602061243f83398151915280546001600160a01b0319166001600160a01b0392909216919091179055565b61179e83611b66565b6000825111806117ab5750805b1561070657610efb8383611ba6565b600054610100900460ff166117e15760405162461bcd60e51b8152600401610777906121a5565b61078a8282611c9a565b600054610100900460ff166115875760405162461bcd60e51b8152600401610777906121a5565b600054610100900460ff166118395760405162461bcd60e51b8152600401610777906121a5565b61086a81611cda565b61078a82826110b6565b600082600001828154811061186357611863612287565b9060005260206000200154905092915050565b606061060b6001600160a01b03831660145b6060600061189783600261229d565b6118a2906002612179565b67ffffffffffffffff8111156118ba576118ba611ea8565b6040519080825280601f01601f1916602001820160405280156118e4576020820181803683370190505b509050600360fc1b816000815181106118ff576118ff612287565b60200101906001600160f81b031916908160001a905350600f60fb1b8160018151811061192e5761192e612287565b60200101906001600160f81b031916908160001a905350600061195284600261229d565b61195d906001612179565b90505b60018111156119d5576f181899199a1a9b1b9c1cb0b131b232b360811b85600f166010811061199157611991612287565b1a60f81b8282815181106119a7576119a7612287565b60200101906001600160f81b031916908160001a90535060049490941c936119ce816122b4565b9050611960565b5083156106da5760405162461bcd60e51b815260206004820181905260248201527f537472696e67733a20686578206c656e67746820696e73756666696369656e746044820152606401610777565b6000818152600183016020526040812054611a6b5750815460018181018455600084815260208082209093018490558454848252828601909352604090209190915561060b565b50600061060b565b60008181526001830160205260408120548015611b5c576000611a976001836122cb565b8554909150600090611aab906001906122cb565b9050818114611b10576000866000018281548110611acb57611acb612287565b9060005260206000200154905080876000018481548110611aee57611aee612287565b6000918252602080832090910192909255918252600188019052604090208390555b8554869080611b2157611b216122de565b60019003818190600052602060002001600090559055856001016000868152602001908152602001600020600090556001935050505061060b565b600091505061060b565b611b6f816116f9565b6040516001600160a01b038216907fbc7cd75a20ee27fd9adebab32041f755214dbc6bffa90cc0225b39da2e5c2d3b90600090a250565b60606001600160a01b0383163b611c0e5760405162461bcd60e51b815260206004820152602660248201527f416464726573733a2064656c65676174652063616c6c20746f206e6f6e2d636f6044820152651b9d1c9858dd60d21b6064820152608401610777565b600080846001600160a01b031684604051611c2991906122f4565b600060405180830381855af49150503d8060008114611c64576040519150601f19603f3d011682016040523d82523d6000602084013e611c69565b606091505b5091509150611c91828260405180606001604052806027815260200161245f60279139611d01565b95945050505050565b600054610100900460ff16611cc15760405162461bcd60e51b8152600401610777906121a5565b60cc611ccd838261235e565b5060cd610706828261235e565b600054610100900460ff16610d0b5760405162461bcd60e51b8152600401610777906121a5565b60608315611d105750816106da565b6106da8383815115611d255781518083602001fd5b8060405162461bcd60e51b81526004016107779190611d8d565b600060208284031215611d5157600080fd5b81356001600160e01b0319811681146106da57600080fd5b60005b83811015611d84578181015183820152602001611d6c565b50506000910152565b6020815260008251806020840152611dac816040850160208701611d69565b601f01601f19169190910160400192915050565b6001600160a01b038116811461086a57600080fd5b60008060408385031215611de857600080fd5b8235611df381611dc0565b946020939093013593505050565b600080600060608486031215611e1657600080fd5b8335611e2181611dc0565b92506020840135611e3181611dc0565b929592945050506040919091013590565b600060208284031215611e5457600080fd5b5035919050565b60008060408385031215611e6e57600080fd5b823591506020830135611e8081611dc0565b809150509250929050565b600060208284031215611e9d57600080fd5b81356106da81611dc0565b634e487b7160e01b600052604160045260246000fd5b600067ffffffffffffffff80841115611ed957611ed9611ea8565b604051601f8501601f19908116603f01168101908282118183101715611f0157611f01611ea8565b81604052809350858152868686011115611f1a57600080fd5b858560208301376000602087830101525050509392505050565b60008060408385031215611f4757600080fd5b8235611f5281611dc0565b9150602083013567ffffffffffffffff811115611f6e57600080fd5b8301601f81018513611f7f57600080fd5b611f8e85823560208401611ebe565b9150509250929050565b600082601f830112611fa957600080fd5b6106da83833560208501611ebe565b60008060008060808587031215611fce57600080fd5b843567ffffffffffffffff80821115611fe657600080fd5b611ff288838901611f98565b9550602087013591508082111561200857600080fd5b5061201587828801611f98565b935050604085013561202681611dc0565b9150606085013561203681611dc0565b939692955090935050565b6000806040838503121561205457600080fd5b50508035926020909101359150565b6000806040838503121561207657600080fd5b823561208181611dc0565b91506020830135611e8081611dc0565b600181811c908216806120a557607f821691505b6020821081036120c557634e487b7160e01b600052602260045260246000fd5b50919050565b6020808252602c908201527f46756e6374696f6e206d7573742062652063616c6c6564207468726f7567682060408201526b19195b1959d85d1958d85b1b60a21b606082015260800190565b6020808252602c908201527f46756e6374696f6e206d7573742062652063616c6c6564207468726f7567682060408201526b6163746976652070726f787960a01b606082015260800190565b634e487b7160e01b600052601160045260246000fd5b8082018082111561060b5761060b612163565b60006020828403121561219e57600080fd5b5051919050565b6020808252602b908201527f496e697469616c697a61626c653a20636f6e7472616374206973206e6f74206960408201526a6e697469616c697a696e6760a81b606082015260800190565b60006020828403121561220257600080fd5b815180151581146106da57600080fd5b7f416363657373436f6e74726f6c3a206163636f756e742000000000000000000081526000835161224a816017850160208801611d69565b7001034b99036b4b9b9b4b733903937b6329607d1b601791840191820152835161227b816028840160208801611d69565b01602801949350505050565b634e487b7160e01b600052603260045260246000fd5b808202811582820484141761060b5761060b612163565b6000816122c3576122c3612163565b506000190190565b8181038181111561060b5761060b612163565b634e487b7160e01b600052603160045260246000fd5b60008251612306818460208701611d69565b9190910192915050565b601f82111561070657600081815260208120601f850160051c810160208610156123375750805b601f850160051c820191505b8181101561235657828155600101612343565b505050505050565b815167ffffffffffffffff81111561237857612378611ea8565b61238c816123868454612091565b84612310565b602080601f8311600181146123c157600084156123a95750858301515b600019600386901b1c1916600185901b178555612356565b600085815260208120601f198616915b828110156123f0578886015182559484019460019091019084016123d1565b508582101561240e5787850151600019600388901b60f8161c191681555b5050505050600190811b0190555056fe3c11d16cbaffd01df69ce1c404f6340ee057498f5f00246190ea54220576a848360894a13ba1a3210667c828492db98dca3e2076cc3735a920a3ca505d382bbc416464726573733a206c6f772d6c6576656c2064656c65676174652063616c6c206661696c65649f2df0fed2c77648de5860a4cc508cd0818c85b8b8a1ab4ceeef8d981c8956a6a26469706673582212209b84d9b09eac16df6f202255a5f965fa421b2997eee492ed4ad4d5a225b8b28c64736f6c63430008110033608060405234801561001057600080fd5b5060405161018138038061018183398101604081905261002f91610043565b6000556001805460ff19168117905561005c565b60006020828403121561005557600080fd5b5051919050565b6101168061006b6000396000f3fe6080604052348015600f57600080fd5b506004361060505760003560e01c80632a3f438914605557806332145f901460705780635095e3d914608257806359e02dd7146090578063b689d5ac1460ad575b600080fd5b605d60005481565b6040519081526020015b60405180910390f35b6080607b36600460c8565b600055565b005b60806001805460ff19169055565b60005460015460ff16604080519283529015156020830152016067565b60015460b99060ff1681565b60405190151581526020016067565b60006020828403121560d957600080fd5b503591905056fea26469706673582212202f32d9766874d6a34191093ea824c1f980a41bb7d175c2d324f81871df97720a64736f6c63430008110033608060405234801561001057600080fd5b5060405161043c38038061043c83398101604081905261002f91610061565b6000805460ff909216600160a01b026001600160a81b03199092166001600160a01b03909316929092171790556100ae565b6000806040838503121561007457600080fd5b82516001600160a01b038116811461008b57600080fd5b8092505060208301518060000b81146100a357600080fd5b809150509250929050565b61037f806100bd6000396000f3fe608060405234801561001057600080fd5b50600436106100415760003560e01c806312fc41ca1461004657806359e02dd714610073578063b888879e14610090575b600080fd5b6000805461005b91600160a01b909104900b81565b60405160009190910b81526020015b60405180910390f35b61007b6100bb565b6040805192835290151560208301520161006a565b6000546100a3906001600160a01b031681565b6040516001600160a01b03909116815260200161006a565b60008054604080516359e02dd760e01b8152815184936001600160a01b0316926359e02dd792600480820193918290030181865afa158015610101573d6000803e3d6000fd5b505050506040513d601f19601f8201168201806040525081019061012591906101ab565b60008054929450909250600160a01b909104810b1315610168576000805461015891600160a01b909104900b600a6102dc565b61016290836102f2565b91509091565b60008054600160a01b9004810b12156101a7576000805461019291600160a01b909104900b610309565b61019d90600a6102dc565b6101629083610327565b9091565b600080604083850312156101be57600080fd5b82519150602083015180151581146101d557600080fd5b809150509250929050565b634e487b7160e01b600052601160045260246000fd5b600181815b80851115610231578160001904821115610217576102176101e0565b8085161561022457918102915b93841c93908002906101fb565b509250929050565b600082610248575060016102d6565b81610255575060006102d6565b816001811461026b576002811461027557610291565b60019150506102d6565b60ff841115610286576102866101e0565b50506001821b6102d6565b5060208310610133831016604e8410600b84101617156102b4575081810a6102d6565b6102be83836101f6565b80600019048211156102d2576102d26101e0565b0290505b92915050565b60006102eb60ff841683610239565b9392505050565b80820281158282048414176102d6576102d66101e0565b600081810b6080810161031e5761031e6101e0565b60000392915050565b60008261034457634e487b7160e01b600052601260045260246000fd5b50049056fea264697066735822122043180cbe397369638af36cf919d218d540e2198fe4bcb2ed08e81dee8b4830f764736f6c63430008110033",
  "linkReferences": {},
  "deployedLinkReferences": {},
  "devdoc": {
    "kind": "dev",
    "methods": {},
    "title": "EchidnaMocWrapperTester",
    "version": 1
  },
  "evm": {
    "bytecode": {
      "linkReferences": {},
      "opcodes": "PUSH1 0x80 PUSH1 0x40 DUP2 SWAP1 MSTORE PUSH1 0x4 DUP1 SLOAD PUSH1 0x1 PUSH1 0x1 PUSH1 0xA0 SHL SUB NOT SWAP1 DUP2 AND PUSH1 0x1 OR SWAP1 SWAP2 SSTORE PUSH1 0x5 DUP1 SLOAD SWAP1 SWAP2 AND PUSH1 0x2 OR SWAP1 SSTORE PUSH3 0x33 SWAP1 PUSH3 0xBE8 JUMP JUMPDEST PUSH1 0x40 MLOAD DUP1 SWAP2 SUB SWAP1 PUSH1 0x0 CREATE DUP1 ISZERO DUP1 ISZERO PUSH3 0x50 JUMPI RETURNDATASIZE PUSH1 0x0 DUP1 RETURNDATACOPY RETURNDATASIZE PUSH1 0x0 REVERT JUMPDEST POP PUSH1 0x1 DUP1 SLOAD PUSH1 0x1 PUSH1 0x1 PUSH1 0xA0 SHL SUB NOT AND PUSH1 0x1 PUSH1 0x1 PUSH1 0xA0 SHL SUB SWAP3 SWAP1 SWAP3 AND SWAP2 SWAP1 SWAP2 OR SWAP1 SSTORE PUSH1 0x40 MLOAD PUSH3 0x7F SWAP1 PUSH3 0xBF6 JUMP JUMPDEST PUSH1 0x40 MLOAD DUP1 SWAP2 SUB SWAP1 PUSH1 0x0 CREATE DUP1 ISZERO DUP1 ISZERO PUSH3 0x9C JUMPI RETURNDATASIZE PUSH1 0x0 DUP1 RETURNDATACOPY RETURNDATASIZE PUSH1 0x0 REVERT JUMPDEST POP PUSH1 0x3 DUP1 SLOAD PUSH1 0x1 PUSH1 0x1 PUSH1 0xA0 SHL SUB NOT AND PUSH1 0x1 PUSH1 0x1 PUSH1 0xA0 SHL SUB SWAP3 SWAP1 SWAP3 AND SWAP2 SWAP1 SWAP2 OR SWAP1 SSTORE PUSH1 0x40 MLOAD PUSH3 0xF4 SWAP1 PUSH3 0xD0 SWAP1 PUSH3 0xC04 JUMP JUMPDEST PUSH1 0x40 MLOAD DUP1 SWAP2 SUB SWAP1 PUSH1 0x0 CREATE DUP1 ISZERO DUP1 ISZERO PUSH3 0xED JUMPI RETURNDATASIZE PUSH1 0x0 DUP1 RETURNDATACOPY RETURNDATASIZE PUSH1 0x0 REVERT JUMPDEST POP PUSH3 0x70F JUMP JUMPDEST PUSH1 0x2 DUP1 SLOAD PUSH1 0x1 PUSH1 0x1 PUSH1 0xA0 SHL SUB NOT AND PUSH1 0x1 PUSH1 0x1 PUSH1 0xA0 SHL SUB SWAP3 SWAP1 SWAP3 AND SWAP2 SWAP1 SWAP2 OR SWAP1 SSTORE PUSH1 0x40 MLOAD PUSH3 0x127 SWAP1 PUSH3 0xD0 SWAP1 PUSH3 0xC12 JUMP JUMPDEST PUSH1 0x0 DUP1 SLOAD PUSH1 0x1 PUSH1 0x1 PUSH1 0xA0 SHL SUB NOT AND PUSH1 0x1 PUSH1 0x1 PUSH1 0xA0 SHL SUB SWAP3 SWAP1 SWAP3 AND SWAP2 SWAP1 SWAP2 OR SWAP1 SSTORE PUSH1 0x40 MLOAD PUSH3 0x15A SWAP1 PUSH3 0xD0 SWAP1 PUSH3 0xC20 JUMP JUMPDEST PUSH1 0x7 DUP1 SLOAD PUSH1 0x1 PUSH1 0x1 PUSH1 0xA0 SHL SUB NOT AND PUSH1 0x1 PUSH1 0x1 PUSH1 0xA0 SHL SUB SWAP3 DUP4 AND OR DUP2 SSTORE PUSH1 0x2 DUP1 SLOAD PUSH1 0x0 SLOAD PUSH1 0x1 SLOAD PUSH1 0x40 MLOAD PUSH4 0x23C56D05 PUSH1 0xE2 SHL DUP2 MSTORE PUSH1 0x80 PUSH1 0x4 DUP3 ADD MSTORE PUSH1 0x84 DUP2 ADD SWAP6 SWAP1 SWAP6 MSTORE PUSH7 0x2A21AA37B5B2B7 PUSH1 0xC9 SHL PUSH1 0xA4 DUP7 ADD MSTORE PUSH1 0xC0 PUSH1 0x24 DUP7 ADD MSTORE PUSH1 0xC4 DUP6 ADD SWAP4 SWAP1 SWAP4 MSTORE PUSH2 0x5443 PUSH1 0xF0 SHL PUSH1 0xE4 DUP6 ADD MSTORE DUP5 AND PUSH1 0x44 DUP5 ADD MSTORE SWAP1 DUP4 AND PUSH1 0x64 DUP4 ADD MSTORE SWAP1 SWAP2 AND SWAP1 PUSH4 0x8F15B414 SWAP1 PUSH2 0x104 ADD PUSH1 0x0 PUSH1 0x40 MLOAD DUP1 DUP4 SUB DUP2 PUSH1 0x0 DUP8 DUP1 EXTCODESIZE ISZERO DUP1 ISZERO PUSH3 0x1FE JUMPI PUSH1 0x0 DUP1 REVERT JUMPDEST POP GAS CALL ISZERO DUP1 ISZERO PUSH3 0x213 JUMPI RETURNDATASIZE PUSH1 0x0 DUP1 RETURNDATACOPY RETURNDATASIZE PUSH1 0x0 REVERT JUMPDEST POP POP PUSH1 0x40 DUP1 MLOAD PUSH2 0x1E0 DUP2 ADD DUP3 MSTORE PUSH1 0x2 DUP1 SLOAD PUSH1 0x1 PUSH1 0x1 PUSH1 0xA0 SHL SUB SWAP1 DUP2 AND DUP4 MSTORE PUSH1 0x4 SLOAD DUP2 AND PUSH1 0x20 DUP5 ADD MSTORE PUSH1 0x5 SLOAD AND SWAP3 DUP3 ADD SWAP3 SWAP1 SWAP3 MSTORE PUSH1 0x0 SWAP4 POP SWAP2 POP PUSH1 0x60 DUP3 ADD SWAP1 PUSH3 0x266 SWAP1 PUSH8 0xDE0B6B3A7640000 SWAP1 PUSH3 0xC7C JUMP JUMPDEST DUP2 MSTORE PUSH1 0x20 ADD PUSH3 0x280 PUSH8 0xDE0B6B3A7640000 PUSH1 0x1 PUSH3 0xC7C JUMP JUMPDEST DUP2 MSTORE PUSH1 0x20 ADD PUSH1 0xA PUSH3 0x29C PUSH8 0xDE0B6B3A7640000 PUSH1 0x2 PUSH3 0xC7C JUMP JUMPDEST PUSH3 0x2A8 SWAP2 SWAP1 PUSH3 0xCB2 JUMP JUMPDEST DUP2 MSTORE PUSH1 0x20 ADD PUSH1 0x64 PUSH3 0x2C4 PUSH8 0xDE0B6B3A7640000 PUSH1 0x5 PUSH3 0xC7C JUMP JUMPDEST PUSH3 0x2D0 SWAP2 SWAP1 PUSH3 0xCB2 JUMP JUMPDEST DUP2 MSTORE PUSH1 0x20 ADD PUSH1 0x64 PUSH3 0x2EC PUSH8 0xDE0B6B3A7640000 PUSH1 0x5 PUSH3 0xC7C JUMP JUMPDEST PUSH3 0x2F8 SWAP2 SWAP1 PUSH3 0xCB2 JUMP JUMPDEST DUP2 MSTORE PUSH1 0x20 ADD PUSH1 0x64 PUSH3 0x314 PUSH8 0xDE0B6B3A7640000 PUSH1 0x1 PUSH3 0xC7C JUMP JUMPDEST PUSH3 0x320 SWAP2 SWAP1 PUSH3 0xCB2 JUMP JUMPDEST DUP2 MSTORE PUSH1 0x20 ADD PUSH1 0x64 PUSH3 0x33C PUSH8 0xDE0B6B3A7640000 PUSH1 0x1 PUSH3 0xC7C JUMP JUMPDEST PUSH3 0x348 SWAP2 SWAP1 PUSH3 0xCB2 JUMP JUMPDEST DUP2 MSTORE PUSH1 0x20 ADD PUSH1 0x64 PUSH3 0x364 PUSH8 0xDE0B6B3A7640000 PUSH1 0x1 PUSH3 0xC7C JUMP JUMPDEST PUSH3 0x370 SWAP2 SWAP1 PUSH3 0xCB2 JUMP JUMPDEST DUP2 MSTORE PUSH1 0x20 ADD PUSH1 0x64 PUSH3 0x38C PUSH8 0xDE0B6B3A7640000 PUSH1 0x8 PUSH3 0xC7C JUMP JUMPDEST PUSH3 0x398 SWAP2 SWAP1 PUSH3 0xCB2 JUMP JUMPDEST DUP2 MSTORE PUSH1 0x20 ADD PUSH1 0x64 PUSH3 0x3B4 PUSH8 0xDE0B6B3A7640000 PUSH1 0x8 PUSH3 0xC7C JUMP JUMPDEST PUSH3 0x3C0 SWAP2 SWAP1 PUSH3 0xCB2 JUMP JUMPDEST DUP2 MSTORE PUSH1 0x20 ADD PUSH1 0xA PUSH3 0x3DC PUSH8 0xDE0B6B3A7640000 PUSH1 0x1 PUSH3 0xC7C JUMP JUMPDEST PUSH3 0x3E8 SWAP2 SWAP1 PUSH3 0xCB2 JUMP JUMPDEST DUP2 MSTORE PUSH1 0x20 ADD PUSH1 0xA PUSH3 0x404 PUSH8 0xDE0B6B3A7640000 PUSH1 0x5 PUSH3 0xC7C JUMP JUMPDEST PUSH3 0x410 SWAP2 SWAP1 PUSH3 0xCB2 JUMP JUMPDEST SWAP1 MSTORE PUSH1 0x40 DUP1 MLOAD PUSH1 0xA0 DUP2 ADD DUP3 MSTORE DUP3 DUP2 MSTORE PUSH1 0x1 SLOAD PUSH1 0x1 PUSH1 0x1 PUSH1 0xA0 SHL SUB SWAP1 DUP2 AND PUSH1 0x20 DUP1 DUP5 ADD SWAP2 SWAP1 SWAP2 MSTORE CALLER DUP4 DUP6 ADD MSTORE PUSH3 0x15180 PUSH1 0x60 DUP5 ADD MSTORE PUSH3 0x278D00 PUSH1 0x80 DUP5 ADD MSTORE DUP4 MLOAD DUP1 DUP6 ADD DUP6 MSTORE DUP4 DUP2 MSTORE PUSH1 0x3 SLOAD DUP4 AND SWAP2 DUP2 ADD SWAP2 SWAP1 SWAP2 MSTORE PUSH1 0x0 SLOAD SWAP4 MLOAD PUSH4 0xBBBA7ED9 PUSH1 0xE0 SHL DUP2 MSTORE SWAP5 SWAP6 POP SWAP2 SWAP4 SWAP2 SWAP3 AND SWAP1 PUSH4 0xBBBA7ED9 SWAP1 PUSH3 0x491 SWAP1 DUP5 SWAP1 PUSH1 0x4 ADD PUSH3 0xCC9 JUMP JUMPDEST PUSH1 0x0 PUSH1 0x40 MLOAD DUP1 DUP4 SUB DUP2 PUSH1 0x0 DUP8 DUP1 EXTCODESIZE ISZERO DUP1 ISZERO PUSH3 0x4AC JUMPI PUSH1 0x0 DUP1 REVERT JUMPDEST POP GAS CALL ISZERO DUP1 ISZERO PUSH3 0x4C1 JUMPI RETURNDATASIZE PUSH1 0x0 DUP1 RETURNDATACOPY RETURNDATASIZE PUSH1 0x0 REVERT JUMPDEST POP POP PUSH1 0x7 SLOAD PUSH1 0x1 SLOAD PUSH1 0x0 SLOAD PUSH1 0x3 SLOAD PUSH1 0x40 MLOAD PUSH4 0x7C643B2F PUSH1 0xE1 SHL DUP2 MSTORE PUSH1 0x1 PUSH1 0x1 PUSH1 0xA0 SHL SUB SWAP4 DUP5 AND PUSH1 0x4 DUP3 ADD MSTORE CALLER PUSH1 0x24 DUP3 ADD MSTORE SWAP2 DUP4 AND PUSH1 0x44 DUP4 ADD MSTORE DUP3 AND PUSH1 0x64 DUP3 ADD MSTORE SWAP2 AND SWAP3 POP PUSH4 0xF8C8765E SWAP2 POP PUSH1 0x84 ADD PUSH1 0x0 PUSH1 0x40 MLOAD DUP1 DUP4 SUB DUP2 PUSH1 0x0 DUP8 DUP1 EXTCODESIZE ISZERO DUP1 ISZERO PUSH3 0x52A JUMPI PUSH1 0x0 DUP1 REVERT JUMPDEST POP GAS CALL ISZERO DUP1 ISZERO PUSH3 0x53F JUMPI RETURNDATASIZE PUSH1 0x0 DUP1 RETURNDATACOPY RETURNDATASIZE PUSH1 0x0 REVERT JUMPDEST POP POP PUSH1 0x40 DUP1 MLOAD PUSH1 0xE0 DUP2 ADD DUP3 MSTORE PUSH1 0x0 DUP1 DUP3 MSTORE PUSH1 0x20 DUP3 ADD DUP2 SWAP1 MSTORE SWAP4 POP SWAP2 POP DUP2 ADD PUSH3 0x572 PUSH8 0xDE0B6B3A7640000 PUSH1 0x5 PUSH3 0xC7C JUMP JUMPDEST DUP2 MSTORE PUSH1 0x20 ADD PUSH1 0x64 PUSH3 0x58E PUSH8 0xDE0B6B3A7640000 PUSH1 0x5 PUSH3 0xC7C JUMP JUMPDEST PUSH3 0x59A SWAP2 SWAP1 PUSH3 0xCB2 JUMP JUMPDEST DUP2 MSTORE PUSH1 0x20 ADD PUSH1 0x64 PUSH3 0x5B6 PUSH8 0xDE0B6B3A7640000 PUSH1 0x5 PUSH3 0xC7C JUMP JUMPDEST PUSH3 0x5C2 SWAP2 SWAP1 PUSH3 0xCB2 JUMP JUMPDEST DUP2 MSTORE PUSH1 0x20 ADD PUSH3 0x5DC PUSH8 0xDE0B6B3A7640000 PUSH1 0xD4 PUSH3 0xC7C JUMP JUMPDEST DUP2 MSTORE PUSH1 0x20 ADD PUSH1 0x64 PUSH3 0x5F8 PUSH8 0xDE0B6B3A7640000 PUSH1 0x5 PUSH3 0xC7C JUMP JUMPDEST PUSH3 0x604 SWAP2 SWAP1 PUSH3 0xCB2 JUMP JUMPDEST SWAP1 MSTORE SWAP1 POP PUSH3 0x61D DUP2 PUSH9 0xCBD47B6EAA8CC0000 PUSH3 0x763 JUMP JUMPDEST PUSH1 0x3 SLOAD PUSH1 0x40 MLOAD PUSH4 0x70A08231 PUSH1 0xE0 SHL DUP2 MSTORE ADDRESS PUSH1 0x4 DUP3 ADD MSTORE PUSH1 0x1 PUSH1 0x1 PUSH1 0xA0 SHL SUB SWAP1 SWAP2 AND SWAP1 PUSH4 0x42966C68 SWAP1 DUP3 SWAP1 PUSH4 0x70A08231 SWAP1 PUSH1 0x24 ADD PUSH1 0x20 PUSH1 0x40 MLOAD DUP1 DUP4 SUB DUP2 DUP7 GAS STATICCALL ISZERO DUP1 ISZERO PUSH3 0x66E JUMPI RETURNDATASIZE PUSH1 0x0 DUP1 RETURNDATACOPY RETURNDATASIZE PUSH1 0x0 REVERT JUMPDEST POP POP POP POP PUSH1 0x40 MLOAD RETURNDATASIZE PUSH1 0x1F NOT PUSH1 0x1F DUP3 ADD AND DUP3 ADD DUP1 PUSH1 0x40 MSTORE POP DUP2 ADD SWAP1 PUSH3 0x694 SWAP2 SWAP1 PUSH3 0xDF4 JUMP JUMPDEST PUSH1 0x40 MLOAD DUP3 PUSH4 0xFFFFFFFF AND PUSH1 0xE0 SHL DUP2 MSTORE PUSH1 0x4 ADD PUSH3 0x6B3 SWAP2 DUP2 MSTORE PUSH1 0x20 ADD SWAP1 JUMP JUMPDEST PUSH1 0x0 PUSH1 0x40 MLOAD DUP1 DUP4 SUB DUP2 PUSH1 0x0 DUP8 DUP1 EXTCODESIZE ISZERO DUP1 ISZERO PUSH3 0x6CE JUMPI PUSH1 0x0 DUP1 REVERT JUMPDEST POP GAS CALL ISZERO DUP1 ISZERO PUSH3 0x6E3 JUMPI RETURNDATASIZE PUSH1 0x0 DUP1 RETURNDATACOPY RETURNDATASIZE PUSH1 0x0 REVERT JUMPDEST POP POP POP POP PUSH3 0x6F9 PUSH1 0x12 PUSH3 0x990 PUSH1 0x20 SHL PUSH1 0x20 SHR JUMP JUMPDEST PUSH3 0x705 PUSH1 0x6 PUSH3 0x990 JUMP JUMPDEST POP POP POP POP PUSH3 0xE9C JUMP JUMPDEST PUSH1 0x0 DUP2 PUSH1 0x40 MLOAD PUSH3 0x720 SWAP1 PUSH3 0xC2E JUMP JUMPDEST PUSH1 0x1 PUSH1 0x1 PUSH1 0xA0 SHL SUB SWAP1 SWAP2 AND DUP2 MSTORE PUSH1 0x40 PUSH1 0x20 DUP3 ADD DUP2 SWAP1 MSTORE PUSH1 0x0 SWAP1 DUP3 ADD MSTORE PUSH1 0x60 ADD PUSH1 0x40 MLOAD DUP1 SWAP2 SUB SWAP1 PUSH1 0x0 CREATE DUP1 ISZERO DUP1 ISZERO PUSH3 0x75C JUMPI RETURNDATASIZE PUSH1 0x0 DUP1 RETURNDATACOPY RETURNDATASIZE PUSH1 0x0 REVERT JUMPDEST POP SWAP3 SWAP2 POP POP JUMP JUMPDEST PUSH1 0x5 PUSH1 0x6 SLOAD LT PUSH3 0x7BB JUMPI PUSH1 0x40 MLOAD PUSH3 0x461BCD PUSH1 0xE5 SHL DUP2 MSTORE PUSH1 0x20 PUSH1 0x4 DUP3 ADD MSTORE PUSH1 0x14 PUSH1 0x24 DUP3 ADD MSTORE PUSH32 0x6D617820545020616C7265616479206164646564000000000000000000000000 PUSH1 0x44 DUP3 ADD MSTORE PUSH1 0x64 ADD JUMPDEST PUSH1 0x40 MLOAD DUP1 SWAP2 SUB SWAP1 REVERT JUMPDEST PUSH1 0x0 PUSH3 0x7CF PUSH1 0x40 MLOAD PUSH3 0xD0 SWAP1 PUSH3 0xC3C JUMP JUMPDEST PUSH1 0x0 SLOAD PUSH1 0x1 SLOAD PUSH1 0x40 MLOAD PUSH4 0x23C56D05 PUSH1 0xE2 SHL DUP2 MSTORE PUSH1 0x80 PUSH1 0x4 DUP3 ADD MSTORE PUSH1 0x7 PUSH1 0x84 DUP3 ADD MSTORE PUSH7 0x2A282A37B5B2B7 PUSH1 0xC9 SHL PUSH1 0xA4 DUP3 ADD MSTORE PUSH1 0xC0 PUSH1 0x24 DUP3 ADD MSTORE PUSH1 0x2 PUSH1 0xC4 DUP3 ADD MSTORE PUSH2 0x545 PUSH1 0xF4 SHL PUSH1 0xE4 DUP3 ADD MSTORE PUSH1 0x1 PUSH1 0x1 PUSH1 0xA0 SHL SUB SWAP3 DUP4 AND PUSH1 0x44 DUP3 ADD MSTORE SWAP1 DUP3 AND PUSH1 0x64 DUP3 ADD MSTORE SWAP2 SWAP3 POP DUP3 AND SWAP1 PUSH4 0x8F15B414 SWAP1 PUSH2 0x104 ADD PUSH1 0x0 PUSH1 0x40 MLOAD DUP1 DUP4 SUB DUP2 PUSH1 0x0 DUP8 DUP1 EXTCODESIZE ISZERO DUP1 ISZERO PUSH3 0x85C JUMPI PUSH1 0x0 DUP1 REVERT JUMPDEST POP GAS CALL ISZERO DUP1 ISZERO PUSH3 0x871 JUMPI RETURNDATASIZE PUSH1 0x0 DUP1 RETURNDATACOPY RETURNDATASIZE PUSH1 0x0 REVERT JUMPDEST POP POP POP PUSH1 0x1 PUSH1 0x1 PUSH1 0xA0 SHL SUB DUP3 AND DUP5 MSTORE POP DUP2 PUSH3 0x88D DUP2 PUSH3 0xE0E JUMP JUMPDEST SWAP3 POP POP DUP2 PUSH1 0x40 MLOAD PUSH3 0x89F SWAP1 PUSH3 0xC4A JUMP JUMPDEST PUSH1 0x1 PUSH1 0x1 PUSH1 0x60 SHL SUB SWAP1 SWAP2 AND DUP2 MSTORE PUSH1 0x20 ADD PUSH1 0x40 MLOAD DUP1 SWAP2 SUB SWAP1 PUSH1 0x0 CREATE DUP1 ISZERO DUP1 ISZERO PUSH3 0x8CC JUMPI RETURNDATASIZE PUSH1 0x0 DUP1 RETURNDATACOPY RETURNDATASIZE PUSH1 0x0 REVERT JUMPDEST POP PUSH1 0x1 PUSH1 0x1 PUSH1 0xA0 SHL SUB SWAP1 DUP2 AND PUSH1 0x20 DUP6 ADD SWAP1 DUP2 MSTORE PUSH1 0x0 SLOAD PUSH1 0x40 DUP1 MLOAD PUSH4 0x6DBCB039 PUSH1 0xE1 SHL DUP2 MSTORE DUP8 MLOAD DUP6 AND PUSH1 0x4 DUP3 ADD MSTORE SWAP3 MLOAD DUP5 AND PUSH1 0x24 DUP5 ADD MSTORE DUP7 ADD MLOAD PUSH1 0x44 DUP4 ADD MSTORE PUSH1 0x60 DUP7 ADD MLOAD PUSH1 0x64 DUP4 ADD MSTORE PUSH1 0x80 DUP7 ADD MLOAD PUSH1 0x84 DUP4 ADD MSTORE PUSH1 0xA0 DUP7 ADD MLOAD PUSH1 0xA4 DUP4 ADD MSTORE PUSH1 0xC0 DUP7 ADD MLOAD PUSH1 0xC4 DUP4 ADD MSTORE SWAP1 SWAP2 AND SWAP1 PUSH4 0xDB796072 SWAP1 PUSH1 0xE4 ADD PUSH1 0x0 PUSH1 0x40 MLOAD DUP1 DUP4 SUB DUP2 PUSH1 0x0 DUP8 DUP1 EXTCODESIZE ISZERO DUP1 ISZERO PUSH3 0x95A JUMPI PUSH1 0x0 DUP1 REVERT JUMPDEST POP GAS CALL ISZERO DUP1 ISZERO PUSH3 0x96F JUMPI RETURNDATASIZE PUSH1 0x0 DUP1 RETURNDATACOPY RETURNDATASIZE PUSH1 0x0 REVERT JUMPDEST POP POP PUSH1 0x6 DUP1 SLOAD SWAP3 POP SWAP1 POP PUSH1 0x0 PUSH3 0x986 DUP4 PUSH3 0xE3F JUMP JUMPDEST SWAP2 SWAP1 POP SSTORE POP POP POP POP JUMP JUMPDEST PUSH1 0x8 SLOAD PUSH1 0x5 GT PUSH3 0x9E4 JUMPI PUSH1 0x40 MLOAD PUSH3 0x461BCD PUSH1 0xE5 SHL DUP2 MSTORE PUSH1 0x20 PUSH1 0x4 DUP3 ADD MSTORE PUSH1 0x18 PUSH1 0x24 DUP3 ADD MSTORE PUSH32 0x6D61782061737365747320616C72656164792061646465640000000000000000 PUSH1 0x44 DUP3 ADD MSTORE PUSH1 0x64 ADD PUSH3 0x7B2 JUMP JUMPDEST PUSH1 0x0 PUSH1 0x40 MLOAD PUSH3 0x9F4 SWAP1 PUSH3 0xBF6 JUMP JUMPDEST PUSH1 0x40 MLOAD DUP1 SWAP2 SUB SWAP1 PUSH1 0x0 CREATE DUP1 ISZERO DUP1 ISZERO PUSH3 0xA11 JUMPI RETURNDATASIZE PUSH1 0x0 DUP1 RETURNDATACOPY RETURNDATASIZE PUSH1 0x0 REVERT JUMPDEST POP SWAP1 POP PUSH1 0x0 PUSH3 0xA23 PUSH1 0x18 DUP5 PUSH3 0xE5B JUMP JUMPDEST PUSH1 0x40 MLOAD PUSH4 0x3D09CAD5 PUSH1 0xE1 SHL DUP2 MSTORE PUSH1 0xFF DUP3 AND PUSH1 0x4 DUP3 ADD MSTORE SWAP1 SWAP2 POP PUSH1 0x1 PUSH1 0x1 PUSH1 0xA0 SHL SUB DUP4 AND SWAP1 PUSH4 0x7A1395AA SWAP1 PUSH1 0x24 ADD PUSH1 0x0 PUSH1 0x40 MLOAD DUP1 DUP4 SUB DUP2 PUSH1 0x0 DUP8 DUP1 EXTCODESIZE ISZERO DUP1 ISZERO PUSH3 0xA6B JUMPI PUSH1 0x0 DUP1 REVERT JUMPDEST POP GAS CALL ISZERO DUP1 ISZERO PUSH3 0xA80 JUMPI RETURNDATASIZE PUSH1 0x0 DUP1 RETURNDATACOPY RETURNDATASIZE PUSH1 0x0 REVERT JUMPDEST POP POP PUSH1 0x7 SLOAD PUSH1 0x40 MLOAD PUSH1 0x1 PUSH1 0x1 PUSH1 0xA0 SHL SUB SWAP1 SWAP2 AND SWAP3 POP PUSH4 0x966D3F23 SWAP2 POP DUP5 SWAP1 PUSH8 0xDE0B6B3A7640000 SWAP1 PUSH3 0xAB3 SWAP1 PUSH3 0xC4A JUMP JUMPDEST SWAP1 DUP2 MSTORE PUSH1 0x20 ADD PUSH1 0x40 MLOAD DUP1 SWAP2 SUB SWAP1 PUSH1 0x0 CREATE DUP1 ISZERO DUP1 ISZERO PUSH3 0xAD6 JUMPI RETURNDATASIZE PUSH1 0x0 DUP1 RETURNDATACOPY RETURNDATASIZE PUSH1 0x0 REVERT JUMPDEST POP PUSH3 0xAE4 DUP6 PUSH1 0x12 PUSH3 0xE80 JUMP JUMPDEST PUSH1 0x40 MLOAD PUSH3 0xAF2 SWAP1 PUSH3 0xC58 JUMP JUMPDEST PUSH1 0x1 PUSH1 0x1 PUSH1 0xA0 SHL SUB SWAP1 SWAP3 AND DUP3 MSTORE PUSH1 0x0 SIGNEXTEND PUSH1 0x20 DUP3 ADD MSTORE PUSH1 0x40 ADD PUSH1 0x40 MLOAD DUP1 SWAP2 SUB SWAP1 PUSH1 0x0 CREATE DUP1 ISZERO DUP1 ISZERO PUSH3 0xB27 JUMPI RETURNDATASIZE PUSH1 0x0 DUP1 RETURNDATACOPY RETURNDATASIZE PUSH1 0x0 REVERT JUMPDEST POP PUSH1 0x40 MLOAD PUSH1 0x1 PUSH1 0x1 PUSH1 0xE0 SHL SUB NOT PUSH1 0xE0 DUP6 SWAP1 SHL AND DUP2 MSTORE PUSH1 0x1 PUSH1 0x1 PUSH1 0xA0 SHL SUB SWAP3 DUP4 AND PUSH1 0x4 DUP3 ADD MSTORE SWAP2 AND PUSH1 0x24 DUP3 ADD MSTORE PUSH1 0xFF DUP5 AND PUSH1 0x44 DUP3 ADD MSTORE PUSH1 0x64 ADD PUSH1 0x0 PUSH1 0x40 MLOAD DUP1 DUP4 SUB DUP2 PUSH1 0x0 DUP8 DUP1 EXTCODESIZE ISZERO DUP1 ISZERO PUSH3 0xB7A JUMPI PUSH1 0x0 DUP1 REVERT JUMPDEST POP GAS CALL ISZERO DUP1 ISZERO PUSH3 0xB8F JUMPI RETURNDATASIZE PUSH1 0x0 DUP1 RETURNDATACOPY RETURNDATASIZE PUSH1 0x0 REVERT JUMPDEST POP POP PUSH1 0x8 DUP1 SLOAD PUSH1 0x1 DUP2 ADD DUP3 SSTORE PUSH1 0x0 SWAP2 SWAP1 SWAP2 MSTORE PUSH32 0xF3F7A9FE364FAAB93B216DA50A3214154F22A0A2B415B23A84C8169E8B636EE3 ADD DUP1 SLOAD PUSH1 0x1 PUSH1 0x1 PUSH1 0xA0 SHL SUB NOT AND PUSH1 0x1 PUSH1 0x1 PUSH1 0xA0 SHL SUB SWAP6 SWAP1 SWAP6 AND SWAP5 SWAP1 SWAP5 OR SWAP1 SWAP4 SSTORE POP POP POP POP JUMP JUMPDEST PUSH2 0x1D7 DUP1 PUSH3 0x5F54 DUP4 CODECOPY ADD SWAP1 JUMP JUMPDEST PUSH2 0xF9E DUP1 PUSH3 0x612B DUP4 CODECOPY ADD SWAP1 JUMP JUMPDEST PUSH2 0x289A DUP1 PUSH3 0x70C9 DUP4 CODECOPY ADD SWAP1 JUMP JUMPDEST PUSH2 0x570C DUP1 PUSH3 0x9963 DUP4 CODECOPY ADD SWAP1 JUMP JUMPDEST PUSH2 0x37BF DUP1 PUSH3 0xF06F DUP4 CODECOPY ADD SWAP1 JUMP JUMPDEST PUSH2 0x727 DUP1 PUSH3 0x1282E DUP4 CODECOPY ADD SWAP1 JUMP JUMPDEST PUSH2 0x25F5 DUP1 PUSH3 0x12F55 DUP4 CODECOPY ADD SWAP1 JUMP JUMPDEST PUSH2 0x181 DUP1 PUSH3 0x1554A DUP4 CODECOPY ADD SWAP1 JUMP JUMPDEST PUSH2 0x43C DUP1 PUSH3 0x156CB DUP4 CODECOPY ADD SWAP1 JUMP JUMPDEST PUSH4 0x4E487B71 PUSH1 0xE0 SHL PUSH1 0x0 MSTORE PUSH1 0x11 PUSH1 0x4 MSTORE PUSH1 0x24 PUSH1 0x0 REVERT JUMPDEST DUP1 DUP3 MUL DUP2 ISZERO DUP3 DUP3 DIV DUP5 EQ OR PUSH3 0xC96 JUMPI PUSH3 0xC96 PUSH3 0xC66 JUMP JUMPDEST SWAP3 SWAP2 POP POP JUMP JUMPDEST PUSH4 0x4E487B71 PUSH1 0xE0 SHL PUSH1 0x0 MSTORE PUSH1 0x12 PUSH1 0x4 MSTORE PUSH1 0x24 PUSH1 0x0 REVERT JUMPDEST PUSH1 0x0 DUP3 PUSH3 0xCC4 JUMPI PUSH3 0xCC4 PUSH3 0xC9C JUMP JUMPDEST POP DIV SWAP1 JUMP JUMPDEST DUP2 MLOAD DUP1 MLOAD DUP1 MLOAD PUSH1 0x1 PUSH1 0x1 PUSH1 0xA0 SHL SUB AND DUP4 MSTORE PUSH2 0x280 DUP4 ADD SWAP2 SWAP1 PUSH1 0x20 DUP2 ADD MLOAD PUSH3 0xCFC PUSH1 0x20 DUP7 ADD DUP3 PUSH1 0x1 PUSH1 0x1 PUSH1 0xA0 SHL SUB AND SWAP1 MSTORE JUMP JUMPDEST POP PUSH1 0x40 DUP2 ADD MLOAD PUSH3 0xD18 PUSH1 0x40 DUP7 ADD DUP3 PUSH1 0x1 PUSH1 0x1 PUSH1 0xA0 SHL SUB AND SWAP1 MSTORE JUMP JUMPDEST POP PUSH1 0x60 DUP2 DUP2 ADD MLOAD SWAP1 DUP6 ADD MSTORE PUSH1 0x80 DUP1 DUP3 ADD MLOAD SWAP1 DUP6 ADD MSTORE PUSH1 0xA0 DUP1 DUP3 ADD MLOAD SWAP1 DUP6 ADD MSTORE PUSH1 0xC0 DUP1 DUP3 ADD MLOAD SWAP1 DUP6 ADD MSTORE PUSH1 0xE0 DUP1 DUP3 ADD MLOAD SWAP1 DUP6 ADD MSTORE PUSH2 0x100 DUP1 DUP3 ADD MLOAD SWAP1 DUP6 ADD MSTORE PUSH2 0x120 DUP1 DUP3 ADD MLOAD SWAP1 DUP6 ADD MSTORE PUSH2 0x140 DUP1 DUP3 ADD MLOAD SWAP1 DUP6 ADD MSTORE PUSH2 0x160 DUP1 DUP3 ADD MLOAD SWAP1 DUP6 ADD MSTORE PUSH2 0x180 DUP1 DUP3 ADD MLOAD SWAP1 DUP6 ADD MSTORE PUSH2 0x1A0 DUP1 DUP3 ADD MLOAD SWAP1 DUP6 ADD MSTORE PUSH2 0x1C0 SWAP1 DUP2 ADD MLOAD SWAP1 DUP5 ADD MSTORE PUSH1 0x20 DUP2 ADD MLOAD PUSH1 0x1 PUSH1 0x1 PUSH1 0xA0 SHL SUB DUP2 AND PUSH2 0x1E0 DUP6 ADD MSTORE POP PUSH1 0x40 DUP2 ADD MLOAD PUSH1 0x1 PUSH1 0x1 PUSH1 0xA0 SHL SUB DUP2 AND PUSH2 0x200 DUP6 ADD MSTORE POP PUSH1 0x60 DUP2 ADD MLOAD PUSH2 0x220 DUP5 ADD MSTORE PUSH1 0x80 ADD MLOAD PUSH2 0x240 DUP4 ADD MSTORE PUSH1 0x20 DUP4 ADD MLOAD PUSH1 0x1 PUSH1 0x1 PUSH1 0xA0 SHL SUB DUP2 AND PUSH2 0x260 DUP5 ADD MSTORE PUSH3 0x75C JUMP JUMPDEST PUSH1 0x0 PUSH1 0x20 DUP3 DUP5 SUB SLT ISZERO PUSH3 0xE07 JUMPI PUSH1 0x0 DUP1 REVERT JUMPDEST POP MLOAD SWAP2 SWAP1 POP JUMP JUMPDEST PUSH1 0x0 PUSH1 0x1 PUSH1 0x1 PUSH1 0x60 SHL SUB DUP3 DUP2 AND PUSH1 0x2 PUSH1 0x1 PUSH1 0x60 SHL SUB NOT DUP2 ADD PUSH3 0xE35 JUMPI PUSH3 0xE35 PUSH3 0xC66 JUMP JUMPDEST PUSH1 0x1 ADD SWAP4 SWAP3 POP POP POP JUMP JUMPDEST PUSH1 0x0 PUSH1 0x1 DUP3 ADD PUSH3 0xE54 JUMPI PUSH3 0xE54 PUSH3 0xC66 JUMP JUMPDEST POP PUSH1 0x1 ADD SWAP1 JUMP JUMPDEST PUSH1 0x0 PUSH1 0xFF DUP4 AND DUP1 PUSH3 0xE71 JUMPI PUSH3 0xE71 PUSH3 0xC9C JUMP JUMPDEST DUP1 PUSH1 0xFF DUP5 AND MOD SWAP2 POP POP SWAP3 SWAP2 POP POP JUMP JUMPDEST PUSH1 0xFF DUP3 DUP2 AND DUP3 DUP3 AND SUB SWAP1 DUP2 GT ISZERO PUSH3 0xC96 JUMPI PUSH3 0xC96 PUSH3 0xC66 JUMP JUMPDEST PUSH2 0x50A8 DUP1 PUSH3 0xEAC PUSH1 0x0 CODECOPY PUSH1 0x0 RETURN INVALID PUSH1 0x80 PUSH1 0x40 MSTORE CALLVALUE DUP1 ISZERO PUSH3 0x11 JUMPI PUSH1 0x0 DUP1 REVERT JUMPDEST POP PUSH1 0x4 CALLDATASIZE LT PUSH3 0x6A JUMPI PUSH1 0x0 CALLDATALOAD PUSH1 0xE0 SHR DUP1 PUSH4 0x24035D38 EQ PUSH3 0x6F JUMPI DUP1 PUSH4 0x3295B14F EQ PUSH3 0x88 JUMPI DUP1 PUSH4 0x499E3B16 EQ PUSH3 0x9F JUMPI DUP1 PUSH4 0xA1791617 EQ PUSH3 0xB6 JUMPI DUP1 PUSH4 0xB75205CB EQ PUSH3 0xCD JUMPI DUP1 PUSH4 0xE0955452 EQ PUSH3 0xEB JUMPI JUMPDEST PUSH1 0x0 DUP1 REVERT JUMPDEST PUSH3 0x86 PUSH3 0x80 CALLDATASIZE PUSH1 0x4 PUSH3 0xB19 JUMP JUMPDEST PUSH3 0x102 JUMP JUMPDEST STOP JUMPDEST PUSH3 0x86 PUSH3 0x99 CALLDATASIZE PUSH1 0x4 PUSH3 0xBE1 JUMP JUMPDEST PUSH3 0x34A JUMP JUMPDEST PUSH3 0x86 PUSH3 0xB0 CALLDATASIZE PUSH1 0x4 PUSH3 0xC19 JUMP JUMPDEST PUSH3 0x44F JUMP JUMPDEST PUSH3 0x86 PUSH3 0xC7 CALLDATASIZE PUSH1 0x4 PUSH3 0xC19 JUMP JUMPDEST PUSH3 0x5F4 JUMP JUMPDEST PUSH3 0xD7 PUSH3 0x759 JUMP JUMPDEST PUSH1 0x40 MLOAD SWAP1 ISZERO ISZERO DUP2 MSTORE PUSH1 0x20 ADD PUSH1 0x40 MLOAD DUP1 SWAP2 SUB SWAP1 RETURN JUMPDEST PUSH3 0x86 PUSH3 0xFC CALLDATASIZE PUSH1 0x4 PUSH3 0xC46 JUMP JUMPDEST PUSH3 0x7E4 JUMP JUMPDEST PUSH1 0x5 PUSH1 0x6 SLOAD LT PUSH3 0x151 JUMPI PUSH1 0x40 MLOAD PUSH3 0x461BCD PUSH1 0xE5 SHL DUP2 MSTORE PUSH1 0x20 PUSH1 0x4 DUP3 ADD MSTORE PUSH1 0x14 PUSH1 0x24 DUP3 ADD MSTORE PUSH20 0x1B585E08151408185B1C9958591E481859191959 PUSH1 0x62 SHL PUSH1 0x44 DUP3 ADD MSTORE PUSH1 0x64 ADD JUMPDEST PUSH1 0x40 MLOAD DUP1 SWAP2 SUB SWAP1 REVERT JUMPDEST PUSH1 0x0 PUSH3 0x189 PUSH1 0x40 MLOAD PUSH3 0x165 SWAP1 PUSH3 0xA90 JUMP JUMPDEST PUSH1 0x40 MLOAD DUP1 SWAP2 SUB SWAP1 PUSH1 0x0 CREATE DUP1 ISZERO DUP1 ISZERO PUSH3 0x182 JUMPI RETURNDATASIZE PUSH1 0x0 DUP1 RETURNDATACOPY RETURNDATASIZE PUSH1 0x0 REVERT JUMPDEST POP PUSH3 0xA3C JUMP JUMPDEST PUSH1 0x0 SLOAD PUSH1 0x1 SLOAD PUSH1 0x40 MLOAD PUSH4 0x23C56D05 PUSH1 0xE2 SHL DUP2 MSTORE PUSH1 0x80 PUSH1 0x4 DUP3 ADD MSTORE PUSH1 0x7 PUSH1 0x84 DUP3 ADD MSTORE PUSH7 0x2A282A37B5B2B7 PUSH1 0xC9 SHL PUSH1 0xA4 DUP3 ADD MSTORE PUSH1 0xC0 PUSH1 0x24 DUP3 ADD MSTORE PUSH1 0x2 PUSH1 0xC4 DUP3 ADD MSTORE PUSH2 0x545 PUSH1 0xF4 SHL PUSH1 0xE4 DUP3 ADD MSTORE PUSH1 0x1 PUSH1 0x1 PUSH1 0xA0 SHL SUB SWAP3 DUP4 AND PUSH1 0x44 DUP3 ADD MSTORE SWAP1 DUP3 AND PUSH1 0x64 DUP3 ADD MSTORE SWAP2 SWAP3 POP DUP3 AND SWAP1 PUSH4 0x8F15B414 SWAP1 PUSH2 0x104 ADD PUSH1 0x0 PUSH1 0x40 MLOAD DUP1 DUP4 SUB DUP2 PUSH1 0x0 DUP8 DUP1 EXTCODESIZE ISZERO DUP1 ISZERO PUSH3 0x216 JUMPI PUSH1 0x0 DUP1 REVERT JUMPDEST POP GAS CALL ISZERO DUP1 ISZERO PUSH3 0x22B JUMPI RETURNDATASIZE PUSH1 0x0 DUP1 RETURNDATACOPY RETURNDATASIZE PUSH1 0x0 REVERT JUMPDEST POP POP POP PUSH1 0x1 PUSH1 0x1 PUSH1 0xA0 SHL SUB DUP3 AND DUP5 MSTORE POP DUP2 PUSH3 0x247 DUP2 PUSH3 0xC81 JUMP JUMPDEST SWAP3 POP POP DUP2 PUSH1 0x40 MLOAD PUSH3 0x259 SWAP1 PUSH3 0xA9E JUMP JUMPDEST PUSH1 0x1 PUSH1 0x1 PUSH1 0x60 SHL SUB SWAP1 SWAP2 AND DUP2 MSTORE PUSH1 0x20 ADD PUSH1 0x40 MLOAD DUP1 SWAP2 SUB SWAP1 PUSH1 0x0 CREATE DUP1 ISZERO DUP1 ISZERO PUSH3 0x286 JUMPI RETURNDATASIZE PUSH1 0x0 DUP1 RETURNDATACOPY RETURNDATASIZE PUSH1 0x0 REVERT JUMPDEST POP PUSH1 0x1 PUSH1 0x1 PUSH1 0xA0 SHL SUB SWAP1 DUP2 AND PUSH1 0x20 DUP6 ADD SWAP1 DUP2 MSTORE PUSH1 0x0 SLOAD PUSH1 0x40 DUP1 MLOAD PUSH4 0x6DBCB039 PUSH1 0xE1 SHL DUP2 MSTORE DUP8 MLOAD DUP6 AND PUSH1 0x4 DUP3 ADD MSTORE SWAP3 MLOAD DUP5 AND PUSH1 0x24 DUP5 ADD MSTORE DUP7 ADD MLOAD PUSH1 0x44 DUP4 ADD MSTORE PUSH1 0x60 DUP7 ADD MLOAD PUSH1 0x64 DUP4 ADD MSTORE PUSH1 0x80 DUP7 ADD MLOAD PUSH1 0x84 DUP4 ADD MSTORE PUSH1 0xA0 DUP7 ADD MLOAD PUSH1 0xA4 DUP4 ADD MSTORE PUSH1 0xC0 DUP7 ADD MLOAD PUSH1 0xC4 DUP4 ADD MSTORE SWAP1 SWAP2 AND SWAP1 PUSH4 0xDB796072 SWAP1 PUSH1 0xE4 ADD PUSH1 0x0 PUSH1 0x40 MLOAD DUP1 DUP4 SUB DUP2 PUSH1 0x0 DUP8 DUP1 EXTCODESIZE ISZERO DUP1 ISZERO PUSH3 0x314 JUMPI PUSH1 0x0 DUP1 REVERT JUMPDEST POP GAS CALL ISZERO DUP1 ISZERO PUSH3 0x329 JUMPI RETURNDATASIZE PUSH1 0x0 DUP1 RETURNDATACOPY RETURNDATASIZE PUSH1 0x0 REVERT JUMPDEST POP POP PUSH1 0x6 DUP1 SLOAD SWAP3 POP SWAP1 POP PUSH1 0x0 PUSH3 0x340 DUP4 PUSH3 0xCAA JUMP JUMPDEST SWAP2 SWAP1 POP SSTORE POP POP POP POP JUMP JUMPDEST DUP1 PUSH3 0x356 DUP2 PUSH3 0xC81 JUMP JUMPDEST PUSH1 0x0 DUP1 SLOAD PUSH1 0x6 SLOAD SWAP3 SWAP5 POP SWAP1 SWAP3 POP PUSH1 0x1 PUSH1 0x1 PUSH1 0xA0 SHL SUB AND SWAP1 PUSH4 0x4B746001 SWAP1 PUSH3 0x37F SWAP1 DUP7 PUSH3 0xCDC JUMP JUMPDEST PUSH1 0x40 MLOAD DUP3 PUSH4 0xFFFFFFFF AND PUSH1 0xE0 SHL DUP2 MSTORE PUSH1 0x4 ADD PUSH3 0x39E SWAP2 DUP2 MSTORE PUSH1 0x20 ADD SWAP1 JUMP JUMPDEST PUSH1 0x40 DUP1 MLOAD DUP1 DUP4 SUB DUP2 DUP7 GAS STATICCALL ISZERO DUP1 ISZERO PUSH3 0x3BB JUMPI RETURNDATASIZE PUSH1 0x0 DUP1 RETURNDATACOPY RETURNDATASIZE PUSH1 0x0 REVERT JUMPDEST POP POP POP POP PUSH1 0x40 MLOAD RETURNDATASIZE PUSH1 0x1F NOT PUSH1 0x1F DUP3 ADD AND DUP3 ADD DUP1 PUSH1 0x40 MSTORE POP DUP2 ADD SWAP1 PUSH3 0x3E1 SWAP2 SWAP1 PUSH3 0xCF3 JUMP JUMPDEST PUSH1 0x40 MLOAD PUSH4 0x32145F9 PUSH1 0xE4 SHL DUP2 MSTORE PUSH1 0x1 PUSH1 0x1 PUSH1 0x60 SHL SUB DUP6 AND PUSH1 0x4 DUP3 ADD MSTORE SWAP1 SWAP3 POP PUSH1 0x1 PUSH1 0x1 PUSH1 0xA0 SHL SUB DUP4 AND SWAP2 POP PUSH4 0x32145F90 SWAP1 PUSH1 0x24 ADD JUMPDEST PUSH1 0x0 PUSH1 0x40 MLOAD DUP1 DUP4 SUB DUP2 PUSH1 0x0 DUP8 DUP1 EXTCODESIZE ISZERO DUP1 ISZERO PUSH3 0x431 JUMPI PUSH1 0x0 DUP1 REVERT JUMPDEST POP GAS CALL ISZERO DUP1 ISZERO PUSH3 0x446 JUMPI RETURNDATASIZE PUSH1 0x0 DUP1 RETURNDATACOPY RETURNDATASIZE PUSH1 0x0 REVERT JUMPDEST POP POP POP POP POP POP POP JUMP JUMPDEST PUSH1 0x8 DUP1 SLOAD PUSH1 0x0 SWAP2 SWAP1 PUSH3 0x466 SWAP1 PUSH1 0xFF DUP7 AND PUSH3 0xCDC JUMP JUMPDEST DUP2 SLOAD DUP2 LT PUSH3 0x479 JUMPI PUSH3 0x479 PUSH3 0xD26 JUMP JUMPDEST PUSH1 0x0 SWAP2 DUP3 MSTORE PUSH1 0x20 SWAP1 SWAP2 KECCAK256 ADD SLOAD PUSH1 0x1 PUSH1 0x1 PUSH1 0xA0 SHL SUB AND SWAP1 POP DUP1 PUSH4 0x40C10F19 ADDRESS PUSH3 0x4A4 DUP6 PUSH1 0x2 PUSH3 0xD3C JUMP JUMPDEST PUSH1 0x40 MLOAD PUSH1 0x1 PUSH1 0x1 PUSH1 0xE0 SHL SUB NOT PUSH1 0xE0 DUP6 SWAP1 SHL AND DUP2 MSTORE PUSH1 0x1 PUSH1 0x1 PUSH1 0xA0 SHL SUB SWAP1 SWAP3 AND PUSH1 0x4 DUP4 ADD MSTORE PUSH1 0x24 DUP3 ADD MSTORE PUSH1 0x44 ADD PUSH1 0x0 PUSH1 0x40 MLOAD DUP1 DUP4 SUB DUP2 PUSH1 0x0 DUP8 DUP1 EXTCODESIZE ISZERO DUP1 ISZERO PUSH3 0x4EB JUMPI PUSH1 0x0 DUP1 REVERT JUMPDEST POP GAS CALL ISZERO DUP1 ISZERO PUSH3 0x500 JUMPI RETURNDATASIZE PUSH1 0x0 DUP1 RETURNDATACOPY RETURNDATASIZE PUSH1 0x0 REVERT JUMPDEST POP POP PUSH1 0x7 SLOAD PUSH1 0x1 PUSH1 0x1 PUSH1 0xA0 SHL SUB DUP1 DUP6 AND SWAP4 POP PUSH4 0x95EA7B3 SWAP3 POP AND PUSH3 0x527 DUP6 PUSH1 0x2 PUSH3 0xD3C JUMP JUMPDEST PUSH1 0x40 MLOAD PUSH1 0x1 PUSH1 0x1 PUSH1 0xE0 SHL SUB NOT PUSH1 0xE0 DUP6 SWAP1 SHL AND DUP2 MSTORE PUSH1 0x1 PUSH1 0x1 PUSH1 0xA0 SHL SUB SWAP1 SWAP3 AND PUSH1 0x4 DUP4 ADD MSTORE PUSH1 0x24 DUP3 ADD MSTORE PUSH1 0x44 ADD PUSH1 0x20 PUSH1 0x40 MLOAD DUP1 DUP4 SUB DUP2 PUSH1 0x0 DUP8 GAS CALL ISZERO DUP1 ISZERO PUSH3 0x573 JUMPI RETURNDATASIZE PUSH1 0x0 DUP1 RETURNDATACOPY RETURNDATASIZE PUSH1 0x0 REVERT JUMPDEST POP POP POP POP PUSH1 0x40 MLOAD RETURNDATASIZE PUSH1 0x1F NOT PUSH1 0x1F DUP3 ADD AND DUP3 ADD DUP1 PUSH1 0x40 MSTORE POP DUP2 ADD SWAP1 PUSH3 0x599 SWAP2 SWAP1 PUSH3 0xD5C JUMP JUMPDEST POP PUSH1 0x7 SLOAD PUSH1 0x1 PUSH1 0x1 PUSH1 0xA0 SHL SUB AND PUSH4 0xC8308A62 DUP3 DUP5 PUSH3 0x5BA DUP2 PUSH1 0x2 PUSH3 0xD3C JUMP JUMPDEST PUSH1 0x40 MLOAD PUSH1 0x1 PUSH1 0x1 PUSH1 0xE0 SHL SUB NOT PUSH1 0xE0 DUP7 SWAP1 SHL AND DUP2 MSTORE PUSH1 0x1 PUSH1 0x1 PUSH1 0xA0 SHL SUB SWAP1 SWAP4 AND PUSH1 0x4 DUP5 ADD MSTORE PUSH1 0x24 DUP4 ADD SWAP2 SWAP1 SWAP2 MSTORE PUSH1 0x44 DUP3 ADD MSTORE PUSH1 0x64 ADD PUSH3 0x416 JUMP JUMPDEST PUSH1 0x8 DUP1 SLOAD PUSH1 0x0 SWAP2 SWAP1 PUSH3 0x60B SWAP1 PUSH1 0xFF DUP7 AND PUSH3 0xCDC JUMP JUMPDEST DUP2 SLOAD DUP2 LT PUSH3 0x61E JUMPI PUSH3 0x61E PUSH3 0xD26 JUMP JUMPDEST PUSH1 0x0 SWAP2 DUP3 MSTORE PUSH1 0x20 DUP1 DUP4 KECCAK256 SWAP1 SWAP2 ADD SLOAD SWAP2 SLOAD PUSH1 0x40 DUP1 MLOAD PUSH4 0x60009E0B PUSH1 0xE0 SHL DUP2 MSTORE SWAP1 MLOAD PUSH1 0x1 PUSH1 0x1 PUSH1 0xA0 SHL SUB SWAP5 DUP6 AND SWAP6 POP SWAP2 SWAP1 SWAP4 AND SWAP3 PUSH4 0x60009E0B SWAP3 PUSH1 0x4 DUP1 DUP4 ADD SWAP4 SWAP2 SWAP3 DUP3 SWAP1 SUB ADD DUP2 DUP7 GAS STATICCALL ISZERO DUP1 ISZERO PUSH3 0x678 JUMPI RETURNDATASIZE PUSH1 0x0 DUP1 RETURNDATACOPY RETURNDATASIZE PUSH1 0x0 REVERT JUMPDEST POP POP POP POP PUSH1 0x40 MLOAD RETURNDATASIZE PUSH1 0x1F NOT PUSH1 0x1F DUP3 ADD AND DUP3 ADD DUP1 PUSH1 0x40 MSTORE POP DUP2 ADD SWAP1 PUSH3 0x69E SWAP2 SWAP1 PUSH3 0xD80 JUMP JUMPDEST PUSH1 0x7 SLOAD PUSH1 0x40 MLOAD PUSH4 0x95EA7B3 PUSH1 0xE0 SHL DUP2 MSTORE PUSH1 0x1 PUSH1 0x1 PUSH1 0xA0 SHL SUB SWAP2 DUP3 AND PUSH1 0x4 DUP3 ADD MSTORE PUSH1 0x24 DUP2 ADD DUP6 SWAP1 MSTORE SWAP2 AND SWAP1 PUSH4 0x95EA7B3 SWAP1 PUSH1 0x44 ADD PUSH1 0x20 PUSH1 0x40 MLOAD DUP1 DUP4 SUB DUP2 PUSH1 0x0 DUP8 GAS CALL ISZERO DUP1 ISZERO PUSH3 0x6F1 JUMPI RETURNDATASIZE PUSH1 0x0 DUP1 RETURNDATACOPY RETURNDATASIZE PUSH1 0x0 REVERT JUMPDEST POP POP POP POP PUSH1 0x40 MLOAD RETURNDATASIZE PUSH1 0x1F NOT PUSH1 0x1F DUP3 ADD AND DUP3 ADD DUP1 PUSH1 0x40 MSTORE POP DUP2 ADD SWAP1 PUSH3 0x717 SWAP2 SWAP1 PUSH3 0xD5C JUMP JUMPDEST POP PUSH1 0x7 SLOAD PUSH1 0x40 MLOAD PUSH4 0x1298C1FF PUSH1 0xE2 SHL DUP2 MSTORE PUSH1 0x1 PUSH1 0x1 PUSH1 0xA0 SHL SUB DUP4 DUP2 AND PUSH1 0x4 DUP4 ADD MSTORE PUSH1 0x24 DUP3 ADD DUP6 SWAP1 MSTORE PUSH1 0x0 PUSH1 0x44 DUP4 ADD MSTORE SWAP1 SWAP2 AND SWAP1 PUSH4 0x4A6307FC SWAP1 PUSH1 0x64 ADD PUSH3 0x416 JUMP JUMPDEST PUSH1 0x0 PUSH8 0xDE0B6B3A7640000 PUSH1 0x7 PUSH1 0x0 SWAP1 SLOAD SWAP1 PUSH2 0x100 EXP SWAP1 DIV PUSH1 0x1 PUSH1 0x1 PUSH1 0xA0 SHL SUB AND PUSH1 0x1 PUSH1 0x1 PUSH1 0xA0 SHL SUB AND PUSH4 0x4B94F50E PUSH1 0x40 MLOAD DUP2 PUSH4 0xFFFFFFFF AND PUSH1 0xE0 SHL DUP2 MSTORE PUSH1 0x4 ADD PUSH1 0x20 PUSH1 0x40 MLOAD DUP1 DUP4 SUB DUP2 DUP7 GAS STATICCALL ISZERO DUP1 ISZERO PUSH3 0x7B8 JUMPI RETURNDATASIZE PUSH1 0x0 DUP1 RETURNDATACOPY RETURNDATASIZE PUSH1 0x0 REVERT JUMPDEST POP POP POP POP PUSH1 0x40 MLOAD RETURNDATASIZE PUSH1 0x1F NOT PUSH1 0x1F DUP3 ADD AND DUP3 ADD DUP1 PUSH1 0x40 MSTORE POP DUP2 ADD SWAP1 PUSH3 0x7DE SWAP2 SWAP1 PUSH3 0xDA0 JUMP JUMPDEST EQ SWAP1 POP SWAP1 JUMP JUMPDEST PUSH1 0x8 SLOAD PUSH1 0x5 GT PUSH3 0x838 JUMPI PUSH1 0x40 MLOAD PUSH3 0x461BCD PUSH1 0xE5 SHL DUP2 MSTORE PUSH1 0x20 PUSH1 0x4 DUP3 ADD MSTORE PUSH1 0x18 PUSH1 0x24 DUP3 ADD MSTORE PUSH32 0x6D61782061737365747320616C72656164792061646465640000000000000000 PUSH1 0x44 DUP3 ADD MSTORE PUSH1 0x64 ADD PUSH3 0x148 JUMP JUMPDEST PUSH1 0x0 PUSH1 0x40 MLOAD PUSH3 0x848 SWAP1 PUSH3 0xAAC JUMP JUMPDEST PUSH1 0x40 MLOAD DUP1 SWAP2 SUB SWAP1 PUSH1 0x0 CREATE DUP1 ISZERO DUP1 ISZERO PUSH3 0x865 JUMPI RETURNDATASIZE PUSH1 0x0 DUP1 RETURNDATACOPY RETURNDATASIZE PUSH1 0x0 REVERT JUMPDEST POP SWAP1 POP PUSH1 0x0 PUSH3 0x877 PUSH1 0x18 DUP5 PUSH3 0xDBA JUMP JUMPDEST PUSH1 0x40 MLOAD PUSH4 0x3D09CAD5 PUSH1 0xE1 SHL DUP2 MSTORE PUSH1 0xFF DUP3 AND PUSH1 0x4 DUP3 ADD MSTORE SWAP1 SWAP2 POP PUSH1 0x1 PUSH1 0x1 PUSH1 0xA0 SHL SUB DUP4 AND SWAP1 PUSH4 0x7A1395AA SWAP1 PUSH1 0x24 ADD PUSH1 0x0 PUSH1 0x40 MLOAD DUP1 DUP4 SUB DUP2 PUSH1 0x0 DUP8 DUP1 EXTCODESIZE ISZERO DUP1 ISZERO PUSH3 0x8BF JUMPI PUSH1 0x0 DUP1 REVERT JUMPDEST POP GAS CALL ISZERO DUP1 ISZERO PUSH3 0x8D4 JUMPI RETURNDATASIZE PUSH1 0x0 DUP1 RETURNDATACOPY RETURNDATASIZE PUSH1 0x0 REVERT JUMPDEST POP POP PUSH1 0x7 SLOAD PUSH1 0x40 MLOAD PUSH1 0x1 PUSH1 0x1 PUSH1 0xA0 SHL SUB SWAP1 SWAP2 AND SWAP3 POP PUSH4 0x966D3F23 SWAP2 POP DUP5 SWAP1 PUSH8 0xDE0B6B3A7640000 SWAP1 PUSH3 0x907 SWAP1 PUSH3 0xA9E JUMP JUMPDEST SWAP1 DUP2 MSTORE PUSH1 0x20 ADD PUSH1 0x40 MLOAD DUP1 SWAP2 SUB SWAP1 PUSH1 0x0 CREATE DUP1 ISZERO DUP1 ISZERO PUSH3 0x92A JUMPI RETURNDATASIZE PUSH1 0x0 DUP1 RETURNDATACOPY RETURNDATASIZE PUSH1 0x0 REVERT JUMPDEST POP PUSH3 0x938 DUP6 PUSH1 0x12 PUSH3 0xDDF JUMP JUMPDEST PUSH1 0x40 MLOAD PUSH3 0x946 SWAP1 PUSH3 0xABA JUMP JUMPDEST PUSH1 0x1 PUSH1 0x1 PUSH1 0xA0 SHL SUB SWAP1 SWAP3 AND DUP3 MSTORE PUSH1 0x0 SIGNEXTEND PUSH1 0x20 DUP3 ADD MSTORE PUSH1 0x40 ADD PUSH1 0x40 MLOAD DUP1 SWAP2 SUB SWAP1 PUSH1 0x0 CREATE DUP1 ISZERO DUP1 ISZERO PUSH3 0x97B JUMPI RETURNDATASIZE PUSH1 0x0 DUP1 RETURNDATACOPY RETURNDATASIZE PUSH1 0x0 REVERT JUMPDEST POP PUSH1 0x40 MLOAD PUSH1 0x1 PUSH1 0x1 PUSH1 0xE0 SHL SUB NOT PUSH1 0xE0 DUP6 SWAP1 SHL AND DUP2 MSTORE PUSH1 0x1 PUSH1 0x1 PUSH1 0xA0 SHL SUB SWAP3 DUP4 AND PUSH1 0x4 DUP3 ADD MSTORE SWAP2 AND PUSH1 0x24 DUP3 ADD MSTORE PUSH1 0xFF DUP5 AND PUSH1 0x44 DUP3 ADD MSTORE PUSH1 0x64 ADD PUSH1 0x0 PUSH1 0x40 MLOAD DUP1 DUP4 SUB DUP2 PUSH1 0x0 DUP8 DUP1 EXTCODESIZE ISZERO DUP1 ISZERO PUSH3 0x9CE JUMPI PUSH1 0x0 DUP1 REVERT JUMPDEST POP GAS CALL ISZERO DUP1 ISZERO PUSH3 0x9E3 JUMPI RETURNDATASIZE PUSH1 0x0 DUP1 RETURNDATACOPY RETURNDATASIZE PUSH1 0x0 REVERT JUMPDEST POP POP PUSH1 0x8 DUP1 SLOAD PUSH1 0x1 DUP2 ADD DUP3 SSTORE PUSH1 0x0 SWAP2 SWAP1 SWAP2 MSTORE PUSH32 0xF3F7A9FE364FAAB93B216DA50A3214154F22A0A2B415B23A84C8169E8B636EE3 ADD DUP1 SLOAD PUSH1 0x1 PUSH1 0x1 PUSH1 0xA0 SHL SUB NOT AND PUSH1 0x1 PUSH1 0x1 PUSH1 0xA0 SHL SUB SWAP6 SWAP1 SWAP6 AND SWAP5 SWAP1 SWAP5 OR SWAP1 SWAP4 SSTORE POP POP POP POP JUMP JUMPDEST PUSH1 0x0 DUP2 PUSH1 0x40 MLOAD PUSH3 0xA4D SWAP1 PUSH3 0xAC8 JUMP JUMPDEST PUSH1 0x1 PUSH1 0x1 PUSH1 0xA0 SHL SUB SWAP1 SWAP2 AND DUP2 MSTORE PUSH1 0x40 PUSH1 0x20 DUP3 ADD DUP2 SWAP1 MSTORE PUSH1 0x0 SWAP1 DUP3 ADD MSTORE PUSH1 0x60 ADD PUSH1 0x40 MLOAD DUP1 SWAP2 SUB SWAP1 PUSH1 0x0 CREATE DUP1 ISZERO DUP1 ISZERO PUSH3 0xA89 JUMPI RETURNDATASIZE PUSH1 0x0 DUP1 RETURNDATACOPY RETURNDATASIZE PUSH1 0x0 REVERT JUMPDEST POP SWAP3 SWAP2 POP POP JUMP JUMPDEST PUSH2 0x25F5 DUP1 PUSH3 0xDFC DUP4 CODECOPY ADD SWAP1 JUMP JUMPDEST PUSH2 0x181 DUP1 PUSH3 0x33F1 DUP4 CODECOPY ADD SWAP1 JUMP JUMPDEST PUSH2 0xF9E DUP1 PUSH3 0x3572 DUP4 CODECOPY ADD SWAP1 JUMP JUMPDEST PUSH2 0x43C DUP1 PUSH3 0x4510 DUP4 CODECOPY ADD SWAP1 JUMP JUMPDEST PUSH2 0x727 DUP1 PUSH3 0x494C DUP4 CODECOPY ADD SWAP1 JUMP JUMPDEST PUSH1 0x1 PUSH1 0x1 PUSH1 0xA0 SHL SUB DUP2 AND DUP2 EQ PUSH3 0xAEC JUMPI PUSH1 0x0 DUP1 REVERT JUMPDEST POP JUMP JUMPDEST DUP1 CALLDATALOAD PUSH3 0xAFC DUP2 PUSH3 0xAD6 JUMP JUMPDEST SWAP2 SWAP1 POP JUMP JUMPDEST DUP1 CALLDATALOAD PUSH1 0x1 PUSH1 0x1 PUSH1 0x60 SHL SUB DUP2 AND DUP2 EQ PUSH3 0xAFC JUMPI PUSH1 0x0 DUP1 REVERT JUMPDEST PUSH1 0x0 DUP1 DUP3 DUP5 SUB PUSH2 0x100 DUP2 SLT ISZERO PUSH3 0xB2F JUMPI PUSH1 0x0 DUP1 REVERT JUMPDEST PUSH1 0xE0 DUP2 SLT ISZERO PUSH3 0xB3E JUMPI PUSH1 0x0 DUP1 REVERT JUMPDEST POP PUSH1 0x40 MLOAD PUSH1 0xE0 DUP2 ADD DUP2 DUP2 LT PUSH8 0xFFFFFFFFFFFFFFFF DUP3 GT OR ISZERO PUSH3 0xB71 JUMPI PUSH4 0x4E487B71 PUSH1 0xE0 SHL PUSH1 0x0 MSTORE PUSH1 0x41 PUSH1 0x4 MSTORE PUSH1 0x24 PUSH1 0x0 REVERT JUMPDEST PUSH1 0x40 MSTORE PUSH3 0xB7F DUP5 PUSH3 0xAEF JUMP JUMPDEST DUP2 MSTORE PUSH3 0xB8F PUSH1 0x20 DUP6 ADD PUSH3 0xAEF JUMP JUMPDEST PUSH1 0x20 DUP3 ADD MSTORE PUSH1 0x40 DUP5 ADD CALLDATALOAD PUSH1 0x40 DUP3 ADD MSTORE PUSH1 0x60 DUP5 ADD CALLDATALOAD PUSH1 0x60 DUP3 ADD MSTORE PUSH1 0x80 DUP5 ADD CALLDATALOAD PUSH1 0x80 DUP3 ADD MSTORE PUSH1 0xA0 DUP5 ADD CALLDATALOAD PUSH1 0xA0 DUP3 ADD MSTORE PUSH1 0xC0 DUP5 ADD CALLDATALOAD PUSH1 0xC0 DUP3 ADD MSTORE DUP1 SWAP3 POP POP PUSH3 0xBD8 PUSH1 0xE0 DUP5 ADD PUSH3 0xB01 JUMP JUMPDEST SWAP1 POP SWAP3 POP SWAP3 SWAP1 POP JUMP JUMPDEST PUSH1 0x0 DUP1 PUSH1 0x40 DUP4 DUP6 SUB SLT ISZERO PUSH3 0xBF5 JUMPI PUSH1 0x0 DUP1 REVERT JUMPDEST DUP3 CALLDATALOAD SWAP2 POP PUSH3 0xBD8 PUSH1 0x20 DUP5 ADD PUSH3 0xB01 JUMP JUMPDEST DUP1 CALLDATALOAD PUSH1 0xFF DUP2 AND DUP2 EQ PUSH3 0xAFC JUMPI PUSH1 0x0 DUP1 REVERT JUMPDEST PUSH1 0x0 DUP1 PUSH1 0x40 DUP4 DUP6 SUB SLT ISZERO PUSH3 0xC2D JUMPI PUSH1 0x0 DUP1 REVERT JUMPDEST PUSH3 0xC38 DUP4 PUSH3 0xC07 JUMP JUMPDEST SWAP5 PUSH1 0x20 SWAP4 SWAP1 SWAP4 ADD CALLDATALOAD SWAP4 POP POP POP JUMP JUMPDEST PUSH1 0x0 PUSH1 0x20 DUP3 DUP5 SUB SLT ISZERO PUSH3 0xC59 JUMPI PUSH1 0x0 DUP1 REVERT JUMPDEST PUSH3 0xC64 DUP3 PUSH3 0xC07 JUMP JUMPDEST SWAP4 SWAP3 POP POP POP JUMP JUMPDEST PUSH4 0x4E487B71 PUSH1 0xE0 SHL PUSH1 0x0 MSTORE PUSH1 0x11 PUSH1 0x4 MSTORE PUSH1 0x24 PUSH1 0x0 REVERT JUMPDEST PUSH1 0x0 PUSH1 0x1 PUSH1 0x1 PUSH1 0x60 SHL SUB DUP1 DUP4 AND DUP2 DUP2 SUB PUSH3 0xCA0 JUMPI PUSH3 0xCA0 PUSH3 0xC6B JUMP JUMPDEST PUSH1 0x1 ADD SWAP4 SWAP3 POP POP POP JUMP JUMPDEST PUSH1 0x0 PUSH1 0x1 DUP3 ADD PUSH3 0xCBF JUMPI PUSH3 0xCBF PUSH3 0xC6B JUMP JUMPDEST POP PUSH1 0x1 ADD SWAP1 JUMP JUMPDEST PUSH4 0x4E487B71 PUSH1 0xE0 SHL PUSH1 0x0 MSTORE PUSH1 0x12 PUSH1 0x4 MSTORE PUSH1 0x24 PUSH1 0x0 REVERT JUMPDEST PUSH1 0x0 DUP3 PUSH3 0xCEE JUMPI PUSH3 0xCEE PUSH3 0xCC6 JUMP JUMPDEST POP MOD SWAP1 JUMP JUMPDEST PUSH1 0x0 DUP1 PUSH1 0x40 DUP4 DUP6 SUB SLT ISZERO PUSH3 0xD07 JUMPI PUSH1 0x0 DUP1 REVERT JUMPDEST DUP3 MLOAD SWAP2 POP PUSH1 0x20 DUP4 ADD MLOAD PUSH3 0xD1B DUP2 PUSH3 0xAD6 JUMP JUMPDEST DUP1 SWAP2 POP POP SWAP3 POP SWAP3 SWAP1 POP JUMP JUMPDEST PUSH4 0x4E487B71 PUSH1 0xE0 SHL PUSH1 0x0 MSTORE PUSH1 0x32 PUSH1 0x4 MSTORE PUSH1 0x24 PUSH1 0x0 REVERT JUMPDEST DUP1 DUP3 MUL DUP2 ISZERO DUP3 DUP3 DIV DUP5 EQ OR PUSH3 0xD56 JUMPI PUSH3 0xD56 PUSH3 0xC6B JUMP JUMPDEST SWAP3 SWAP2 POP POP JUMP JUMPDEST PUSH1 0x0 PUSH1 0x20 DUP3 DUP5 SUB SLT ISZERO PUSH3 0xD6F JUMPI PUSH1 0x0 DUP1 REVERT JUMPDEST DUP2 MLOAD DUP1 ISZERO ISZERO DUP2 EQ PUSH3 0xC64 JUMPI PUSH1 0x0 DUP1 REVERT JUMPDEST PUSH1 0x0 PUSH1 0x20 DUP3 DUP5 SUB SLT ISZERO PUSH3 0xD93 JUMPI PUSH1 0x0 DUP1 REVERT JUMPDEST DUP2 MLOAD PUSH3 0xC64 DUP2 PUSH3 0xAD6 JUMP JUMPDEST PUSH1 0x0 PUSH1 0x20 DUP3 DUP5 SUB SLT ISZERO PUSH3 0xDB3 JUMPI PUSH1 0x0 DUP1 REVERT JUMPDEST POP MLOAD SWAP2 SWAP1 POP JUMP JUMPDEST PUSH1 0x0 PUSH1 0xFF DUP4 AND DUP1 PUSH3 0xDD0 JUMPI PUSH3 0xDD0 PUSH3 0xCC6 JUMP JUMPDEST DUP1 PUSH1 0xFF DUP5 AND MOD SWAP2 POP POP SWAP3 SWAP2 POP POP JUMP JUMPDEST PUSH1 0xFF DUP3 DUP2 AND DUP3 DUP3 AND SUB SWAP1 DUP2 GT ISZERO PUSH3 0xD56 JUMPI PUSH3 0xD56 PUSH3 0xC6B JUMP INVALID PUSH1 0xA0 PUSH1 0x40 MSTORE ADDRESS PUSH1 0x80 MSTORE CALLVALUE DUP1 ISZERO PUSH2 0x14 JUMPI PUSH1 0x0 DUP1 REVERT JUMPDEST POP PUSH2 0x1D PUSH2 0x22 JUMP JUMPDEST PUSH2 0xE2 JUMP JUMPDEST PUSH1 0x0 SLOAD PUSH2 0x100 SWAP1 DIV PUSH1 0xFF AND ISZERO PUSH2 0x8E JUMPI PUSH1 0x40 MLOAD PUSH3 0x461BCD PUSH1 0xE5 SHL DUP2 MSTORE PUSH1 0x20 PUSH1 0x4 DUP3 ADD MSTORE PUSH1 0x27 PUSH1 0x24 DUP3 ADD MSTORE PUSH32 0x496E697469616C697A61626C653A20636F6E747261637420697320696E697469 PUSH1 0x44 DUP3 ADD MSTORE PUSH7 0x616C697A696E67 PUSH1 0xC8 SHL PUSH1 0x64 DUP3 ADD MSTORE PUSH1 0x84 ADD PUSH1 0x40 MLOAD DUP1 SWAP2 SUB SWAP1 REVERT JUMPDEST PUSH1 0x0 SLOAD PUSH1 0xFF SWAP1 DUP2 AND LT ISZERO PUSH2 0xE0 JUMPI PUSH1 0x0 DUP1 SLOAD PUSH1 0xFF NOT AND PUSH1 0xFF SWAP1 DUP2 OR SWAP1 SWAP2 SSTORE PUSH1 0x40 MLOAD SWAP1 DUP2 MSTORE PUSH32 0x7F26B83FF96E1F2B6A682F133852F6798A09C465DA95921460CEFB3847402498 SWAP1 PUSH1 0x20 ADD PUSH1 0x40 MLOAD DUP1 SWAP2 SUB SWAP1 LOG1 JUMPDEST JUMP JUMPDEST PUSH1 0x80 MLOAD PUSH2 0x24DB PUSH3 0x11A PUSH1 0x0 CODECOPY PUSH1 0x0 DUP2 DUP2 PUSH2 0x798 ADD MSTORE DUP2 DUP2 PUSH2 0x7D8 ADD MSTORE DUP2 DUP2 PUSH2 0x8BB ADD MSTORE DUP2 DUP2 PUSH2 0x8FB ADD MSTORE PUSH2 0x98A ADD MSTORE PUSH2 0x24DB PUSH1 0x0 RETURN INVALID PUSH1 0x80 PUSH1 0x40 MSTORE PUSH1 0x4 CALLDATASIZE LT PUSH2 0x1D8 JUMPI PUSH1 0x0 CALLDATALOAD PUSH1 0xE0 SHR DUP1 PUSH4 0x52D1902D GT PUSH2 0x102 JUMPI DUP1 PUSH4 0xA457C2D7 GT PUSH2 0x95 JUMPI DUP1 PUSH4 0xD547741F GT PUSH2 0x64 JUMPI DUP1 PUSH4 0xD547741F EQ PUSH2 0x566 JUMPI DUP1 PUSH4 0xD55FD845 EQ PUSH2 0x586 JUMPI DUP1 PUSH4 0xDD62ED3E EQ PUSH2 0x5A6 JUMPI DUP1 PUSH4 0xE4C0AAF4 EQ PUSH2 0x5C6 JUMPI PUSH1 0x0 DUP1 REVERT JUMPDEST DUP1 PUSH4 0xA457C2D7 EQ PUSH2 0x4E4 JUMPI DUP1 PUSH4 0xA9059CBB EQ PUSH2 0x504 JUMPI DUP1 PUSH4 0xCA15C873 EQ PUSH2 0x524 JUMPI DUP1 PUSH4 0xD5391393 EQ PUSH2 0x544 JUMPI PUSH1 0x0 DUP1 REVERT JUMPDEST DUP1 PUSH4 0x91D14854 GT PUSH2 0xD1 JUMPI DUP1 PUSH4 0x91D14854 EQ PUSH2 0x47A JUMPI DUP1 PUSH4 0x95D89B41 EQ PUSH2 0x49A JUMPI DUP1 PUSH4 0x9DC29FAC EQ PUSH2 0x4AF JUMPI DUP1 PUSH4 0xA217FDDF EQ PUSH2 0x4CF JUMPI PUSH1 0x0 DUP1 REVERT JUMPDEST DUP1 PUSH4 0x52D1902D EQ PUSH2 0x3EF JUMPI DUP1 PUSH4 0x70A08231 EQ PUSH2 0x404 JUMPI DUP1 PUSH4 0x8F15B414 EQ PUSH2 0x43A JUMPI DUP1 PUSH4 0x9010D07C EQ PUSH2 0x45A JUMPI PUSH1 0x0 DUP1 REVERT JUMPDEST DUP1 PUSH4 0x282C51F3 GT PUSH2 0x17A JUMPI DUP1 PUSH4 0x3659CFE6 GT PUSH2 0x149 JUMPI DUP1 PUSH4 0x3659CFE6 EQ PUSH2 0x37C JUMPI DUP1 PUSH4 0x39509351 EQ PUSH2 0x39C JUMPI DUP1 PUSH4 0x40C10F19 EQ PUSH2 0x3BC JUMPI DUP1 PUSH4 0x4F1EF286 EQ PUSH2 0x3DC JUMPI PUSH1 0x0 DUP1 REVERT JUMPDEST DUP1 PUSH4 0x282C51F3 EQ PUSH2 0x2FC JUMPI DUP1 PUSH4 0x2F2FF15D EQ PUSH2 0x31E JUMPI DUP1 PUSH4 0x313CE567 EQ PUSH2 0x340 JUMPI DUP1 PUSH4 0x36568ABE EQ PUSH2 0x35C JUMPI PUSH1 0x0 DUP1 REVERT JUMPDEST DUP1 PUSH4 0xC340A24 GT PUSH2 0x1B6 JUMPI DUP1 PUSH4 0xC340A24 EQ PUSH2 0x254 JUMPI DUP1 PUSH4 0x18160DDD EQ PUSH2 0x28D JUMPI DUP1 PUSH4 0x23B872DD EQ PUSH2 0x2AC JUMPI DUP1 PUSH4 0x248A9CA3 EQ PUSH2 0x2CC JUMPI PUSH1 0x0 DUP1 REVERT JUMPDEST DUP1 PUSH4 0x1FFC9A7 EQ PUSH2 0x1DD JUMPI DUP1 PUSH4 0x6FDDE03 EQ PUSH2 0x212 JUMPI DUP1 PUSH4 0x95EA7B3 EQ PUSH2 0x234 JUMPI JUMPDEST PUSH1 0x0 DUP1 REVERT JUMPDEST CALLVALUE DUP1 ISZERO PUSH2 0x1E9 JUMPI PUSH1 0x0 DUP1 REVERT JUMPDEST POP PUSH2 0x1FD PUSH2 0x1F8 CALLDATASIZE PUSH1 0x4 PUSH2 0x1D3F JUMP JUMPDEST PUSH2 0x5E6 JUMP JUMPDEST PUSH1 0x40 MLOAD SWAP1 ISZERO ISZERO DUP2 MSTORE PUSH1 0x20 ADD JUMPDEST PUSH1 0x40 MLOAD DUP1 SWAP2 SUB SWAP1 RETURN JUMPDEST CALLVALUE DUP1 ISZERO PUSH2 0x21E JUMPI PUSH1 0x0 DUP1 REVERT JUMPDEST POP PUSH2 0x227 PUSH2 0x611 JUMP JUMPDEST PUSH1 0x40 MLOAD PUSH2 0x209 SWAP2 SWAP1 PUSH2 0x1D8D JUMP JUMPDEST CALLVALUE DUP1 ISZERO PUSH2 0x240 JUMPI PUSH1 0x0 DUP1 REVERT JUMPDEST POP PUSH2 0x1FD PUSH2 0x24F CALLDATASIZE PUSH1 0x4 PUSH2 0x1DD5 JUMP JUMPDEST PUSH2 0x6A3 JUMP JUMPDEST CALLVALUE DUP1 ISZERO PUSH2 0x260 JUMPI PUSH1 0x0 DUP1 REVERT JUMPDEST POP PUSH2 0x191 SLOAD PUSH2 0x275 SWAP1 PUSH1 0x1 PUSH1 0x1 PUSH1 0xA0 SHL SUB AND DUP2 JUMP JUMPDEST PUSH1 0x40 MLOAD PUSH1 0x1 PUSH1 0x1 PUSH1 0xA0 SHL SUB SWAP1 SWAP2 AND DUP2 MSTORE PUSH1 0x20 ADD PUSH2 0x209 JUMP JUMPDEST CALLVALUE DUP1 ISZERO PUSH2 0x299 JUMPI PUSH1 0x0 DUP1 REVERT JUMPDEST POP PUSH1 0xCB SLOAD JUMPDEST PUSH1 0x40 MLOAD SWAP1 DUP2 MSTORE PUSH1 0x20 ADD PUSH2 0x209 JUMP JUMPDEST CALLVALUE DUP1 ISZERO PUSH2 0x2B8 JUMPI PUSH1 0x0 DUP1 REVERT JUMPDEST POP PUSH2 0x1FD PUSH2 0x2C7 CALLDATASIZE PUSH1 0x4 PUSH2 0x1E01 JUMP JUMPDEST PUSH2 0x6BB JUMP JUMPDEST CALLVALUE DUP1 ISZERO PUSH2 0x2D8 JUMPI PUSH1 0x0 DUP1 REVERT JUMPDEST POP PUSH2 0x29E PUSH2 0x2E7 CALLDATASIZE PUSH1 0x4 PUSH2 0x1E42 JUMP JUMPDEST PUSH1 0x0 SWAP1 DUP2 MSTORE PUSH1 0x65 PUSH1 0x20 MSTORE PUSH1 0x40 SWAP1 KECCAK256 PUSH1 0x1 ADD SLOAD SWAP1 JUMP JUMPDEST CALLVALUE DUP1 ISZERO PUSH2 0x308 JUMPI PUSH1 0x0 DUP1 REVERT JUMPDEST POP PUSH2 0x29E PUSH1 0x0 DUP1 MLOAD PUSH1 0x20 PUSH2 0x241F DUP4 CODECOPY DUP2 MLOAD SWAP2 MSTORE DUP2 JUMP JUMPDEST CALLVALUE DUP1 ISZERO PUSH2 0x32A JUMPI PUSH1 0x0 DUP1 REVERT JUMPDEST POP PUSH2 0x33E PUSH2 0x339 CALLDATASIZE PUSH1 0x4 PUSH2 0x1E5B JUMP JUMPDEST PUSH2 0x6E1 JUMP JUMPDEST STOP JUMPDEST CALLVALUE DUP1 ISZERO PUSH2 0x34C JUMPI PUSH1 0x0 DUP1 REVERT JUMPDEST POP PUSH1 0x40 MLOAD PUSH1 0x12 DUP2 MSTORE PUSH1 0x20 ADD PUSH2 0x209 JUMP JUMPDEST CALLVALUE DUP1 ISZERO PUSH2 0x368 JUMPI PUSH1 0x0 DUP1 REVERT JUMPDEST POP PUSH2 0x33E PUSH2 0x377 CALLDATASIZE PUSH1 0x4 PUSH2 0x1E5B JUMP JUMPDEST PUSH2 0x70B JUMP JUMPDEST CALLVALUE DUP1 ISZERO PUSH2 0x388 JUMPI PUSH1 0x0 DUP1 REVERT JUMPDEST POP PUSH2 0x33E PUSH2 0x397 CALLDATASIZE PUSH1 0x4 PUSH2 0x1E8B JUMP JUMPDEST PUSH2 0x78E JUMP JUMPDEST CALLVALUE DUP1 ISZERO PUSH2 0x3A8 JUMPI PUSH1 0x0 DUP1 REVERT JUMPDEST POP PUSH2 0x1FD PUSH2 0x3B7 CALLDATASIZE PUSH1 0x4 PUSH2 0x1DD5 JUMP JUMPDEST PUSH2 0x86D JUMP JUMPDEST CALLVALUE DUP1 ISZERO PUSH2 0x3C8 JUMPI PUSH1 0x0 DUP1 REVERT JUMPDEST POP PUSH2 0x33E PUSH2 0x3D7 CALLDATASIZE PUSH1 0x4 PUSH2 0x1DD5 JUMP JUMPDEST PUSH2 0x88F JUMP JUMPDEST PUSH2 0x33E PUSH2 0x3EA CALLDATASIZE PUSH1 0x4 PUSH2 0x1F34 JUMP JUMPDEST PUSH2 0x8B1 JUMP JUMPDEST CALLVALUE DUP1 ISZERO PUSH2 0x3FB JUMPI PUSH1 0x0 DUP1 REVERT JUMPDEST POP PUSH2 0x29E PUSH2 0x97D JUMP JUMPDEST CALLVALUE DUP1 ISZERO PUSH2 0x410 JUMPI PUSH1 0x0 DUP1 REVERT JUMPDEST POP PUSH2 0x29E PUSH2 0x41F CALLDATASIZE PUSH1 0x4 PUSH2 0x1E8B JUMP JUMPDEST PUSH1 0x1 PUSH1 0x1 PUSH1 0xA0 SHL SUB AND PUSH1 0x0 SWAP1 DUP2 MSTORE PUSH1 0xC9 PUSH1 0x20 MSTORE PUSH1 0x40 SWAP1 KECCAK256 SLOAD SWAP1 JUMP JUMPDEST CALLVALUE DUP1 ISZERO PUSH2 0x446 JUMPI PUSH1 0x0 DUP1 REVERT JUMPDEST POP PUSH2 0x33E PUSH2 0x455 CALLDATASIZE PUSH1 0x4 PUSH2 0x1FB8 JUMP JUMPDEST PUSH2 0xA30 JUMP JUMPDEST CALLVALUE DUP1 ISZERO PUSH2 0x466 JUMPI PUSH1 0x0 DUP1 REVERT JUMPDEST POP PUSH2 0x275 PUSH2 0x475 CALLDATASIZE PUSH1 0x4 PUSH2 0x2041 JUMP JUMPDEST PUSH2 0xB49 JUMP JUMPDEST CALLVALUE DUP1 ISZERO PUSH2 0x486 JUMPI PUSH1 0x0 DUP1 REVERT JUMPDEST POP PUSH2 0x1FD PUSH2 0x495 CALLDATASIZE PUSH1 0x4 PUSH2 0x1E5B JUMP JUMPDEST PUSH2 0xB61 JUMP JUMPDEST CALLVALUE DUP1 ISZERO PUSH2 0x4A6 JUMPI PUSH1 0x0 DUP1 REVERT JUMPDEST POP PUSH2 0x227 PUSH2 0xB8C JUMP JUMPDEST CALLVALUE DUP1 ISZERO PUSH2 0x4BB JUMPI PUSH1 0x0 DUP1 REVERT JUMPDEST POP PUSH2 0x33E PUSH2 0x4CA CALLDATASIZE PUSH1 0x4 PUSH2 0x1DD5 JUMP JUMPDEST PUSH2 0xB9B JUMP JUMPDEST CALLVALUE DUP1 ISZERO PUSH2 0x4DB JUMPI PUSH1 0x0 DUP1 REVERT JUMPDEST POP PUSH2 0x29E PUSH1 0x0 DUP2 JUMP JUMPDEST CALLVALUE DUP1 ISZERO PUSH2 0x4F0 JUMPI PUSH1 0x0 DUP1 REVERT JUMPDEST POP PUSH2 0x1FD PUSH2 0x4FF CALLDATASIZE PUSH1 0x4 PUSH2 0x1DD5 JUMP JUMPDEST PUSH2 0xBBD JUMP JUMPDEST CALLVALUE DUP1 ISZERO PUSH2 0x510 JUMPI PUSH1 0x0 DUP1 REVERT JUMPDEST POP PUSH2 0x1FD PUSH2 0x51F CALLDATASIZE PUSH1 0x4 PUSH2 0x1DD5 JUMP JUMPDEST PUSH2 0xC43 JUMP JUMPDEST CALLVALUE DUP1 ISZERO PUSH2 0x530 JUMPI PUSH1 0x0 DUP1 REVERT JUMPDEST POP PUSH2 0x29E PUSH2 0x53F CALLDATASIZE PUSH1 0x4 PUSH2 0x1E42 JUMP JUMPDEST PUSH2 0xC51 JUMP JUMPDEST CALLVALUE DUP1 ISZERO PUSH2 0x550 JUMPI PUSH1 0x0 DUP1 REVERT JUMPDEST POP PUSH2 0x29E PUSH1 0x0 DUP1 MLOAD PUSH1 0x20 PUSH2 0x2486 DUP4 CODECOPY DUP2 MLOAD SWAP2 MSTORE DUP2 JUMP JUMPDEST CALLVALUE DUP1 ISZERO PUSH2 0x572 JUMPI PUSH1 0x0 DUP1 REVERT JUMPDEST POP PUSH2 0x33E PUSH2 0x581 CALLDATASIZE PUSH1 0x4 PUSH2 0x1E5B JUMP JUMPDEST PUSH2 0xC68 JUMP JUMPDEST CALLVALUE DUP1 ISZERO PUSH2 0x592 JUMPI PUSH1 0x0 DUP1 REVERT JUMPDEST POP PUSH2 0x1FD PUSH2 0x5A1 CALLDATASIZE PUSH1 0x4 PUSH2 0x1E8B JUMP JUMPDEST PUSH2 0xC8D JUMP JUMPDEST CALLVALUE DUP1 ISZERO PUSH2 0x5B2 JUMPI PUSH1 0x0 DUP1 REVERT JUMPDEST POP PUSH2 0x29E PUSH2 0x5C1 CALLDATASIZE PUSH1 0x4 PUSH2 0x2063 JUMP JUMPDEST PUSH2 0xCD8 JUMP JUMPDEST CALLVALUE DUP1 ISZERO PUSH2 0x5D2 JUMPI PUSH1 0x0 DUP1 REVERT JUMPDEST POP PUSH2 0x33E PUSH2 0x5E1 CALLDATASIZE PUSH1 0x4 PUSH2 0x1E8B JUMP JUMPDEST PUSH2 0xD03 JUMP JUMPDEST PUSH1 0x0 PUSH1 0x1 PUSH1 0x1 PUSH1 0xE0 SHL SUB NOT DUP3 AND PUSH4 0x5A05180F PUSH1 0xE0 SHL EQ DUP1 PUSH2 0x60B JUMPI POP PUSH2 0x60B DUP3 PUSH2 0xD2E JUMP JUMPDEST SWAP3 SWAP2 POP POP JUMP JUMPDEST PUSH1 0x60 PUSH1 0xCC DUP1 SLOAD PUSH2 0x620 SWAP1 PUSH2 0x2091 JUMP JUMPDEST DUP1 PUSH1 0x1F ADD PUSH1 0x20 DUP1 SWAP2 DIV MUL PUSH1 0x20 ADD PUSH1 0x40 MLOAD SWAP1 DUP2 ADD PUSH1 0x40 MSTORE DUP1 SWAP3 SWAP2 SWAP1 DUP2 DUP2 MSTORE PUSH1 0x20 ADD DUP3 DUP1 SLOAD PUSH2 0x64C SWAP1 PUSH2 0x2091 JUMP JUMPDEST DUP1 ISZERO PUSH2 0x699 JUMPI DUP1 PUSH1 0x1F LT PUSH2 0x66E JUMPI PUSH2 0x100 DUP1 DUP4 SLOAD DIV MUL DUP4 MSTORE SWAP2 PUSH1 0x20 ADD SWAP2 PUSH2 0x699 JUMP JUMPDEST DUP3 ADD SWAP2 SWAP1 PUSH1 0x0 MSTORE PUSH1 0x20 PUSH1 0x0 KECCAK256 SWAP1 JUMPDEST DUP2 SLOAD DUP2 MSTORE SWAP1 PUSH1 0x1 ADD SWAP1 PUSH1 0x20 ADD DUP1 DUP4 GT PUSH2 0x67C JUMPI DUP3 SWAP1 SUB PUSH1 0x1F AND DUP3 ADD SWAP2 JUMPDEST POP POP POP POP POP SWAP1 POP SWAP1 JUMP JUMPDEST PUSH1 0x0 CALLER PUSH2 0x6B1 DUP2 DUP6 DUP6 PUSH2 0xD63 JUMP JUMPDEST POP PUSH1 0x1 SWAP4 SWAP3 POP POP POP JUMP JUMPDEST PUSH1 0x0 CALLER PUSH2 0x6C9 DUP6 DUP3 DUP6 PUSH2 0xE87 JUMP JUMPDEST PUSH2 0x6D4 DUP6 DUP6 DUP6 PUSH2 0xF01 JUMP JUMPDEST PUSH1 0x1 SWAP2 POP POP JUMPDEST SWAP4 SWAP3 POP POP POP JUMP JUMPDEST PUSH1 0x0 DUP3 DUP2 MSTORE PUSH1 0x65 PUSH1 0x20 MSTORE PUSH1 0x40 SWAP1 KECCAK256 PUSH1 0x1 ADD SLOAD PUSH2 0x6FC DUP2 PUSH2 0x10AC JUMP JUMPDEST PUSH2 0x706 DUP4 DUP4 PUSH2 0x10B6 JUMP JUMPDEST POP POP POP JUMP JUMPDEST PUSH1 0x1 PUSH1 0x1 PUSH1 0xA0 SHL SUB DUP2 AND CALLER EQ PUSH2 0x780 JUMPI PUSH1 0x40 MLOAD PUSH3 0x461BCD PUSH1 0xE5 SHL DUP2 MSTORE PUSH1 0x20 PUSH1 0x4 DUP3 ADD MSTORE PUSH1 0x2F PUSH1 0x24 DUP3 ADD MSTORE PUSH32 0x416363657373436F6E74726F6C3A2063616E206F6E6C792072656E6F756E6365 PUSH1 0x44 DUP3 ADD MSTORE PUSH15 0x103937B632B9903337B91039B2B633 PUSH1 0x89 SHL PUSH1 0x64 DUP3 ADD MSTORE PUSH1 0x84 ADD JUMPDEST PUSH1 0x40 MLOAD DUP1 SWAP2 SUB SWAP1 REVERT JUMPDEST PUSH2 0x78A DUP3 DUP3 PUSH2 0x10D8 JUMP JUMPDEST POP POP JUMP JUMPDEST PUSH1 0x1 PUSH1 0x1 PUSH1 0xA0 SHL SUB PUSH32 0x0 AND ADDRESS SUB PUSH2 0x7D6 JUMPI PUSH1 0x40 MLOAD PUSH3 0x461BCD PUSH1 0xE5 SHL DUP2 MSTORE PUSH1 0x4 ADD PUSH2 0x777 SWAP1 PUSH2 0x20CB JUMP JUMPDEST PUSH32 0x0 PUSH1 0x1 PUSH1 0x1 PUSH1 0xA0 SHL SUB AND PUSH2 0x81F PUSH1 0x0 DUP1 MLOAD PUSH1 0x20 PUSH2 0x243F DUP4 CODECOPY DUP2 MLOAD SWAP2 MSTORE SLOAD PUSH1 0x1 PUSH1 0x1 PUSH1 0xA0 SHL SUB AND SWAP1 JUMP JUMPDEST PUSH1 0x1 PUSH1 0x1 PUSH1 0xA0 SHL SUB AND EQ PUSH2 0x845 JUMPI PUSH1 0x40 MLOAD PUSH3 0x461BCD PUSH1 0xE5 SHL DUP2 MSTORE PUSH1 0x4 ADD PUSH2 0x777 SWAP1 PUSH2 0x2117 JUMP JUMPDEST PUSH2 0x84E DUP2 PUSH2 0x10FA JUMP JUMPDEST PUSH1 0x40 DUP1 MLOAD PUSH1 0x0 DUP1 DUP3 MSTORE PUSH1 0x20 DUP3 ADD SWAP1 SWAP3 MSTORE PUSH2 0x86A SWAP2 DUP4 SWAP2 SWAP1 PUSH2 0x1102 JUMP JUMPDEST POP JUMP JUMPDEST PUSH1 0x0 CALLER PUSH2 0x6B1 DUP2 DUP6 DUP6 PUSH2 0x880 DUP4 DUP4 PUSH2 0xCD8 JUMP JUMPDEST PUSH2 0x88A SWAP2 SWAP1 PUSH2 0x2179 JUMP JUMPDEST PUSH2 0xD63 JUMP JUMPDEST PUSH1 0x0 DUP1 MLOAD PUSH1 0x20 PUSH2 0x2486 DUP4 CODECOPY DUP2 MLOAD SWAP2 MSTORE PUSH2 0x8A7 DUP2 PUSH2 0x10AC JUMP JUMPDEST PUSH2 0x706 DUP4 DUP4 PUSH2 0x126D JUMP JUMPDEST PUSH1 0x1 PUSH1 0x1 PUSH1 0xA0 SHL SUB PUSH32 0x0 AND ADDRESS SUB PUSH2 0x8F9 JUMPI PUSH1 0x40 MLOAD PUSH3 0x461BCD PUSH1 0xE5 SHL DUP2 MSTORE PUSH1 0x4 ADD PUSH2 0x777 SWAP1 PUSH2 0x20CB JUMP JUMPDEST PUSH32 0x0 PUSH1 0x1 PUSH1 0x1 PUSH1 0xA0 SHL SUB AND PUSH2 0x942 PUSH1 0x0 DUP1 MLOAD PUSH1 0x20 PUSH2 0x243F DUP4 CODECOPY DUP2 MLOAD SWAP2 MSTORE SLOAD PUSH1 0x1 PUSH1 0x1 PUSH1 0xA0 SHL SUB AND SWAP1 JUMP JUMPDEST PUSH1 0x1 PUSH1 0x1 PUSH1 0xA0 SHL SUB AND EQ PUSH2 0x968 JUMPI PUSH1 0x40 MLOAD PUSH3 0x461BCD PUSH1 0xE5 SHL DUP2 MSTORE PUSH1 0x4 ADD PUSH2 0x777 SWAP1 PUSH2 0x2117 JUMP JUMPDEST PUSH2 0x971 DUP3 PUSH2 0x10FA JUMP JUMPDEST PUSH2 0x78A DUP3 DUP3 PUSH1 0x1 PUSH2 0x1102 JUMP JUMPDEST PUSH1 0x0 ADDRESS PUSH1 0x1 PUSH1 0x1 PUSH1 0xA0 SHL SUB PUSH32 0x0 AND EQ PUSH2 0xA1D JUMPI PUSH1 0x40 MLOAD PUSH3 0x461BCD PUSH1 0xE5 SHL DUP2 MSTORE PUSH1 0x20 PUSH1 0x4 DUP3 ADD MSTORE PUSH1 0x38 PUSH1 0x24 DUP3 ADD MSTORE PUSH32 0x555550535570677261646561626C653A206D757374206E6F742062652063616C PUSH1 0x44 DUP3 ADD MSTORE PUSH32 0x6C6564207468726F7567682064656C656761746563616C6C0000000000000000 PUSH1 0x64 DUP3 ADD MSTORE PUSH1 0x84 ADD PUSH2 0x777 JUMP JUMPDEST POP PUSH1 0x0 DUP1 MLOAD PUSH1 0x20 PUSH2 0x243F DUP4 CODECOPY DUP2 MLOAD SWAP2 MSTORE SWAP1 JUMP JUMPDEST PUSH1 0x0 SLOAD PUSH2 0x100 SWAP1 DIV PUSH1 0xFF AND ISZERO DUP1 DUP1 ISZERO PUSH2 0xA50 JUMPI POP PUSH1 0x0 SLOAD PUSH1 0x1 PUSH1 0xFF SWAP1 SWAP2 AND LT JUMPDEST DUP1 PUSH2 0xA6A JUMPI POP ADDRESS EXTCODESIZE ISZERO DUP1 ISZERO PUSH2 0xA6A JUMPI POP PUSH1 0x0 SLOAD PUSH1 0xFF AND PUSH1 0x1 EQ JUMPDEST PUSH2 0xACD JUMPI PUSH1 0x40 MLOAD PUSH3 0x461BCD PUSH1 0xE5 SHL DUP2 MSTORE PUSH1 0x20 PUSH1 0x4 DUP3 ADD MSTORE PUSH1 0x2E PUSH1 0x24 DUP3 ADD MSTORE PUSH32 0x496E697469616C697A61626C653A20636F6E747261637420697320616C726561 PUSH1 0x44 DUP3 ADD MSTORE PUSH14 0x191E481A5B9A5D1A585B1A5E9959 PUSH1 0x92 SHL PUSH1 0x64 DUP3 ADD MSTORE PUSH1 0x84 ADD PUSH2 0x777 JUMP JUMPDEST PUSH1 0x0 DUP1 SLOAD PUSH1 0xFF NOT AND PUSH1 0x1 OR SWAP1 SSTORE DUP1 ISZERO PUSH2 0xAF0 JUMPI PUSH1 0x0 DUP1 SLOAD PUSH2 0xFF00 NOT AND PUSH2 0x100 OR SWAP1 SSTORE JUMPDEST PUSH2 0xAFC DUP6 DUP6 DUP6 DUP6 PUSH2 0x132E JUMP JUMPDEST DUP1 ISZERO PUSH2 0xB42 JUMPI PUSH1 0x0 DUP1 SLOAD PUSH2 0xFF00 NOT AND SWAP1 SSTORE PUSH1 0x40 MLOAD PUSH1 0x1 DUP2 MSTORE PUSH32 0x7F26B83FF96E1F2B6A682F133852F6798A09C465DA95921460CEFB3847402498 SWAP1 PUSH1 0x20 ADD PUSH1 0x40 MLOAD DUP1 SWAP2 SUB SWAP1 LOG1 JUMPDEST POP POP POP POP POP JUMP JUMPDEST PUSH1 0x0 DUP3 DUP2 MSTORE PUSH1 0x97 PUSH1 0x20 MSTORE PUSH1 0x40 DUP2 KECCAK256 PUSH2 0x6DA SWAP1 DUP4 PUSH2 0x13B3 JUMP JUMPDEST PUSH1 0x0 SWAP2 DUP3 MSTORE PUSH1 0x65 PUSH1 0x20 SWAP1 DUP2 MSTORE PUSH1 0x40 DUP1 DUP5 KECCAK256 PUSH1 0x1 PUSH1 0x1 PUSH1 0xA0 SHL SUB SWAP4 SWAP1 SWAP4 AND DUP5 MSTORE SWAP2 SWAP1 MSTORE SWAP1 KECCAK256 SLOAD PUSH1 0xFF AND SWAP1 JUMP JUMPDEST PUSH1 0x60 PUSH1 0xCD DUP1 SLOAD PUSH2 0x620 SWAP1 PUSH2 0x2091 JUMP JUMPDEST PUSH1 0x0 DUP1 MLOAD PUSH1 0x20 PUSH2 0x241F DUP4 CODECOPY DUP2 MLOAD SWAP2 MSTORE PUSH2 0xBB3 DUP2 PUSH2 0x10AC JUMP JUMPDEST PUSH2 0x706 DUP4 DUP4 PUSH2 0x13BF JUMP JUMPDEST PUSH1 0x0 CALLER DUP2 PUSH2 0xBCB DUP3 DUP7 PUSH2 0xCD8 JUMP JUMPDEST SWAP1 POP DUP4 DUP2 LT ISZERO PUSH2 0xC2B JUMPI PUSH1 0x40 MLOAD PUSH3 0x461BCD PUSH1 0xE5 SHL DUP2 MSTORE PUSH1 0x20 PUSH1 0x4 DUP3 ADD MSTORE PUSH1 0x25 PUSH1 0x24 DUP3 ADD MSTORE PUSH32 0x45524332303A2064656372656173656420616C6C6F77616E63652062656C6F77 PUSH1 0x44 DUP3 ADD MSTORE PUSH5 0x207A65726F PUSH1 0xD8 SHL PUSH1 0x64 DUP3 ADD MSTORE PUSH1 0x84 ADD PUSH2 0x777 JUMP JUMPDEST PUSH2 0xC38 DUP3 DUP7 DUP7 DUP5 SUB PUSH2 0xD63 JUMP JUMPDEST POP PUSH1 0x1 SWAP5 SWAP4 POP POP POP POP JUMP JUMPDEST PUSH1 0x0 CALLER PUSH2 0x6B1 DUP2 DUP6 DUP6 PUSH2 0xF01 JUMP JUMPDEST PUSH1 0x0 DUP2 DUP2 MSTORE PUSH1 0x97 PUSH1 0x20 MSTORE PUSH1 0x40 DUP2 KECCAK256 PUSH2 0x60B SWAP1 PUSH2 0x14F3 JUMP JUMPDEST PUSH1 0x0 DUP3 DUP2 MSTORE PUSH1 0x65 PUSH1 0x20 MSTORE PUSH1 0x40 SWAP1 KECCAK256 PUSH1 0x1 ADD SLOAD PUSH2 0xC83 DUP2 PUSH2 0x10AC JUMP JUMPDEST PUSH2 0x706 DUP4 DUP4 PUSH2 0x10D8 JUMP JUMPDEST PUSH1 0x0 PUSH2 0xCA7 PUSH1 0x0 DUP1 MLOAD PUSH1 0x20 PUSH2 0x2486 DUP4 CODECOPY DUP2 MLOAD SWAP2 MSTORE DUP4 PUSH2 0xB61 JUMP JUMPDEST DUP1 ISZERO PUSH2 0xCC6 JUMPI POP PUSH2 0xCC6 PUSH1 0x0 DUP1 MLOAD PUSH1 0x20 PUSH2 0x241F DUP4 CODECOPY DUP2 MLOAD SWAP2 MSTORE DUP4 PUSH2 0xB61 JUMP JUMPDEST DUP1 ISZERO PUSH2 0x60B JUMPI POP PUSH2 0x60B PUSH1 0x0 DUP4 PUSH2 0xB61 JUMP JUMPDEST PUSH1 0x1 PUSH1 0x1 PUSH1 0xA0 SHL SUB SWAP2 DUP3 AND PUSH1 0x0 SWAP1 DUP2 MSTORE PUSH1 0xCA PUSH1 0x20 SWAP1 DUP2 MSTORE PUSH1 0x40 DUP1 DUP4 KECCAK256 SWAP4 SWAP1 SWAP5 AND DUP3 MSTORE SWAP2 SWAP1 SWAP2 MSTORE KECCAK256 SLOAD SWAP1 JUMP JUMPDEST PUSH2 0xD0B PUSH2 0x14FD JUMP JUMPDEST PUSH2 0x191 DUP1 SLOAD PUSH1 0x1 PUSH1 0x1 PUSH1 0xA0 SHL SUB NOT AND PUSH1 0x1 PUSH1 0x1 PUSH1 0xA0 SHL SUB SWAP3 SWAP1 SWAP3 AND SWAP2 SWAP1 SWAP2 OR SWAP1 SSTORE JUMP JUMPDEST PUSH1 0x0 PUSH1 0x1 PUSH1 0x1 PUSH1 0xE0 SHL SUB NOT DUP3 AND PUSH4 0x7965DB0B PUSH1 0xE0 SHL EQ DUP1 PUSH2 0x60B JUMPI POP PUSH4 0x1FFC9A7 PUSH1 0xE0 SHL PUSH1 0x1 PUSH1 0x1 PUSH1 0xE0 SHL SUB NOT DUP4 AND EQ PUSH2 0x60B JUMP JUMPDEST PUSH1 0x1 PUSH1 0x1 PUSH1 0xA0 SHL SUB DUP4 AND PUSH2 0xDC5 JUMPI PUSH1 0x40 MLOAD PUSH3 0x461BCD PUSH1 0xE5 SHL DUP2 MSTORE PUSH1 0x20 PUSH1 0x4 DUP3 ADD MSTORE PUSH1 0x24 DUP1 DUP3 ADD MSTORE PUSH32 0x45524332303A20617070726F76652066726F6D20746865207A65726F20616464 PUSH1 0x44 DUP3 ADD MSTORE PUSH4 0x72657373 PUSH1 0xE0 SHL PUSH1 0x64 DUP3 ADD MSTORE PUSH1 0x84 ADD PUSH2 0x777 JUMP JUMPDEST PUSH1 0x1 PUSH1 0x1 PUSH1 0xA0 SHL SUB DUP3 AND PUSH2 0xE26 JUMPI PUSH1 0x40 MLOAD PUSH3 0x461BCD PUSH1 0xE5 SHL DUP2 MSTORE PUSH1 0x20 PUSH1 0x4 DUP3 ADD MSTORE PUSH1 0x22 PUSH1 0x24 DUP3 ADD MSTORE PUSH32 0x45524332303A20617070726F766520746F20746865207A65726F206164647265 PUSH1 0x44 DUP3 ADD MSTORE PUSH2 0x7373 PUSH1 0xF0 SHL PUSH1 0x64 DUP3 ADD MSTORE PUSH1 0x84 ADD PUSH2 0x777 JUMP JUMPDEST PUSH1 0x1 PUSH1 0x1 PUSH1 0xA0 SHL SUB DUP4 DUP2 AND PUSH1 0x0 DUP2 DUP2 MSTORE PUSH1 0xCA PUSH1 0x20 SWAP1 DUP2 MSTORE PUSH1 0x40 DUP1 DUP4 KECCAK256 SWAP5 DUP8 AND DUP1 DUP5 MSTORE SWAP5 DUP3 MSTORE SWAP2 DUP3 SWAP1 KECCAK256 DUP6 SWAP1 SSTORE SWAP1 MLOAD DUP5 DUP2 MSTORE PUSH32 0x8C5BE1E5EBEC7D5BD14F71427D1E84F3DD0314C0F7B2291E5B200AC8C7C3B925 SWAP2 ADD PUSH1 0x40 MLOAD DUP1 SWAP2 SUB SWAP1 LOG3 POP POP POP JUMP JUMPDEST PUSH1 0x0 PUSH2 0xE93 DUP5 DUP5 PUSH2 0xCD8 JUMP JUMPDEST SWAP1 POP PUSH1 0x0 NOT DUP2 EQ PUSH2 0xEFB JUMPI DUP2 DUP2 LT ISZERO PUSH2 0xEEE JUMPI PUSH1 0x40 MLOAD PUSH3 0x461BCD PUSH1 0xE5 SHL DUP2 MSTORE PUSH1 0x20 PUSH1 0x4 DUP3 ADD MSTORE PUSH1 0x1D PUSH1 0x24 DUP3 ADD MSTORE PUSH32 0x45524332303A20696E73756666696369656E7420616C6C6F77616E6365000000 PUSH1 0x44 DUP3 ADD MSTORE PUSH1 0x64 ADD PUSH2 0x777 JUMP JUMPDEST PUSH2 0xEFB DUP5 DUP5 DUP5 DUP5 SUB PUSH2 0xD63 JUMP JUMPDEST POP POP POP POP JUMP JUMPDEST PUSH1 0x1 PUSH1 0x1 PUSH1 0xA0 SHL SUB DUP4 AND PUSH2 0xF65 JUMPI PUSH1 0x40 MLOAD PUSH3 0x461BCD PUSH1 0xE5 SHL DUP2 MSTORE PUSH1 0x20 PUSH1 0x4 DUP3 ADD MSTORE PUSH1 0x25 PUSH1 0x24 DUP3 ADD MSTORE PUSH32 0x45524332303A207472616E736665722066726F6D20746865207A65726F206164 PUSH1 0x44 DUP3 ADD MSTORE PUSH5 0x6472657373 PUSH1 0xD8 SHL PUSH1 0x64 DUP3 ADD MSTORE PUSH1 0x84 ADD PUSH2 0x777 JUMP JUMPDEST PUSH1 0x1 PUSH1 0x1 PUSH1 0xA0 SHL SUB DUP3 AND PUSH2 0xFC7 JUMPI PUSH1 0x40 MLOAD PUSH3 0x461BCD PUSH1 0xE5 SHL DUP2 MSTORE PUSH1 0x20 PUSH1 0x4 DUP3 ADD MSTORE PUSH1 0x23 PUSH1 0x24 DUP3 ADD MSTORE PUSH32 0x45524332303A207472616E7366657220746F20746865207A65726F2061646472 PUSH1 0x44 DUP3 ADD MSTORE PUSH3 0x657373 PUSH1 0xE8 SHL PUSH1 0x64 DUP3 ADD MSTORE PUSH1 0x84 ADD PUSH2 0x777 JUMP JUMPDEST PUSH1 0x1 PUSH1 0x1 PUSH1 0xA0 SHL SUB DUP4 AND PUSH1 0x0 SWAP1 DUP2 MSTORE PUSH1 0xC9 PUSH1 0x20 MSTORE PUSH1 0x40 SWAP1 KECCAK256 SLOAD DUP2 DUP2 LT ISZERO PUSH2 0x103F JUMPI PUSH1 0x40 MLOAD PUSH3 0x461BCD PUSH1 0xE5 SHL DUP2 MSTORE PUSH1 0x20 PUSH1 0x4 DUP3 ADD MSTORE PUSH1 0x26 PUSH1 0x24 DUP3 ADD MSTORE PUSH32 0x45524332303A207472616E7366657220616D6F756E7420657863656564732062 PUSH1 0x44 DUP3 ADD MSTORE PUSH6 0x616C616E6365 PUSH1 0xD0 SHL PUSH1 0x64 DUP3 ADD MSTORE PUSH1 0x84 ADD PUSH2 0x777 JUMP JUMPDEST PUSH1 0x1 PUSH1 0x1 PUSH1 0xA0 SHL SUB DUP1 DUP6 AND PUSH1 0x0 DUP2 DUP2 MSTORE PUSH1 0xC9 PUSH1 0x20 MSTORE PUSH1 0x40 DUP1 DUP3 KECCAK256 DUP7 DUP7 SUB SWAP1 SSTORE SWAP3 DUP7 AND DUP1 DUP3 MSTORE SWAP1 DUP4 SWAP1 KECCAK256 DUP1 SLOAD DUP7 ADD SWAP1 SSTORE SWAP2 MLOAD PUSH32 0xDDF252AD1BE2C89B69C2B068FC378DAA952BA7F163C4A11628F55A4DF523B3EF SWAP1 PUSH2 0x109F SWAP1 DUP7 DUP2 MSTORE PUSH1 0x20 ADD SWAP1 JUMP JUMPDEST PUSH1 0x40 MLOAD DUP1 SWAP2 SUB SWAP1 LOG3 PUSH2 0xEFB JUMP JUMPDEST PUSH2 0x86A DUP2 CALLER PUSH2 0x1589 JUMP JUMPDEST PUSH2 0x10C0 DUP3 DUP3 PUSH2 0x15E2 JUMP JUMPDEST PUSH1 0x0 DUP3 DUP2 MSTORE PUSH1 0x97 PUSH1 0x20 MSTORE PUSH1 0x40 SWAP1 KECCAK256 PUSH2 0x706 SWAP1 DUP3 PUSH2 0x1668 JUMP JUMPDEST PUSH2 0x10E2 DUP3 DUP3 PUSH2 0x167D JUMP JUMPDEST PUSH1 0x0 DUP3 DUP2 MSTORE PUSH1 0x97 PUSH1 0x20 MSTORE PUSH1 0x40 SWAP1 KECCAK256 PUSH2 0x706 SWAP1 DUP3 PUSH2 0x16E4 JUMP JUMPDEST PUSH2 0x86A PUSH2 0x14FD JUMP JUMPDEST PUSH32 0x4910FDFA16FED3260ED0E7147F7CC6DA11A60208B5B9406D12A635614FFD9143 SLOAD PUSH1 0xFF AND ISZERO PUSH2 0x1135 JUMPI PUSH2 0x706 DUP4 PUSH2 0x16F9 JUMP JUMPDEST DUP3 PUSH1 0x1 PUSH1 0x1 PUSH1 0xA0 SHL SUB AND PUSH4 0x52D1902D PUSH1 0x40 MLOAD DUP2 PUSH4 0xFFFFFFFF AND PUSH1 0xE0 SHL DUP2 MSTORE PUSH1 0x4 ADD PUSH1 0x20 PUSH1 0x40 MLOAD DUP1 DUP4 SUB DUP2 DUP7 GAS STATICCALL SWAP3 POP POP POP DUP1 ISZERO PUSH2 0x118F JUMPI POP PUSH1 0x40 DUP1 MLOAD PUSH1 0x1F RETURNDATASIZE SWAP1 DUP2 ADD PUSH1 0x1F NOT AND DUP3 ADD SWAP1 SWAP3 MSTORE PUSH2 0x118C SWAP2 DUP2 ADD SWAP1 PUSH2 0x218C JUMP JUMPDEST PUSH1 0x1 JUMPDEST PUSH2 0x11F2 JUMPI PUSH1 0x40 MLOAD PUSH3 0x461BCD PUSH1 0xE5 SHL DUP2 MSTORE PUSH1 0x20 PUSH1 0x4 DUP3 ADD MSTORE PUSH1 0x2E PUSH1 0x24 DUP3 ADD MSTORE PUSH32 0x45524331393637557067726164653A206E657720696D706C656D656E74617469 PUSH1 0x44 DUP3 ADD MSTORE PUSH14 0x6F6E206973206E6F742055555053 PUSH1 0x90 SHL PUSH1 0x64 DUP3 ADD MSTORE PUSH1 0x84 ADD PUSH2 0x777 JUMP JUMPDEST PUSH1 0x0 DUP1 MLOAD PUSH1 0x20 PUSH2 0x243F DUP4 CODECOPY DUP2 MLOAD SWAP2 MSTORE DUP2 EQ PUSH2 0x1261 JUMPI PUSH1 0x40 MLOAD PUSH3 0x461BCD PUSH1 0xE5 SHL DUP2 MSTORE PUSH1 0x20 PUSH1 0x4 DUP3 ADD MSTORE PUSH1 0x29 PUSH1 0x24 DUP3 ADD MSTORE PUSH32 0x45524331393637557067726164653A20756E737570706F727465642070726F78 PUSH1 0x44 DUP3 ADD MSTORE PUSH9 0x1A58589B1955555251 PUSH1 0xBA SHL PUSH1 0x64 DUP3 ADD MSTORE PUSH1 0x84 ADD PUSH2 0x777 JUMP JUMPDEST POP PUSH2 0x706 DUP4 DUP4 DUP4 PUSH2 0x1795 JUMP JUMPDEST PUSH1 0x1 PUSH1 0x1 PUSH1 0xA0 SHL SUB DUP3 AND PUSH2 0x12C3 JUMPI PUSH1 0x40 MLOAD PUSH3 0x461BCD PUSH1 0xE5 SHL DUP2 MSTORE PUSH1 0x20 PUSH1 0x4 DUP3 ADD MSTORE PUSH1 0x1F PUSH1 0x24 DUP3 ADD MSTORE PUSH32 0x45524332303A206D696E7420746F20746865207A65726F206164647265737300 PUSH1 0x44 DUP3 ADD MSTORE PUSH1 0x64 ADD PUSH2 0x777 JUMP JUMPDEST DUP1 PUSH1 0xCB PUSH1 0x0 DUP3 DUP3 SLOAD PUSH2 0x12D5 SWAP2 SWAP1 PUSH2 0x2179 JUMP JUMPDEST SWAP1 SWAP2 SSTORE POP POP PUSH1 0x1 PUSH1 0x1 PUSH1 0xA0 SHL SUB DUP3 AND PUSH1 0x0 DUP2 DUP2 MSTORE PUSH1 0xC9 PUSH1 0x20 SWAP1 DUP2 MSTORE PUSH1 0x40 DUP1 DUP4 KECCAK256 DUP1 SLOAD DUP7 ADD SWAP1 SSTORE MLOAD DUP5 DUP2 MSTORE PUSH32 0xDDF252AD1BE2C89B69C2B068FC378DAA952BA7F163C4A11628F55A4DF523B3EF SWAP2 ADD PUSH1 0x40 MLOAD DUP1 SWAP2 SUB SWAP1 LOG3 POP POP JUMP JUMPDEST PUSH1 0x0 SLOAD PUSH2 0x100 SWAP1 DIV PUSH1 0xFF AND PUSH2 0x1355 JUMPI PUSH1 0x40 MLOAD PUSH3 0x461BCD PUSH1 0xE5 SHL DUP2 MSTORE PUSH1 0x4 ADD PUSH2 0x777 SWAP1 PUSH2 0x21A5 JUMP JUMPDEST PUSH2 0x135F DUP5 DUP5 PUSH2 0x17BA JUMP JUMPDEST PUSH2 0x1367 PUSH2 0x17EB JUMP JUMPDEST PUSH2 0x136F PUSH2 0x17EB JUMP JUMPDEST PUSH2 0x1378 DUP2 PUSH2 0x1812 JUMP JUMPDEST PUSH2 0x1383 PUSH1 0x0 DUP4 PUSH2 0x1842 JUMP JUMPDEST PUSH2 0x139B PUSH1 0x0 DUP1 MLOAD PUSH1 0x20 PUSH2 0x2486 DUP4 CODECOPY DUP2 MLOAD SWAP2 MSTORE DUP4 PUSH2 0x1842 JUMP JUMPDEST PUSH2 0xEFB PUSH1 0x0 DUP1 MLOAD PUSH1 0x20 PUSH2 0x241F DUP4 CODECOPY DUP2 MLOAD SWAP2 MSTORE DUP4 PUSH2 0x1842 JUMP JUMPDEST PUSH1 0x0 PUSH2 0x6DA DUP4 DUP4 PUSH2 0x184C JUMP JUMPDEST PUSH1 0x1 PUSH1 0x1 PUSH1 0xA0 SHL SUB DUP3 AND PUSH2 0x141F JUMPI PUSH1 0x40 MLOAD PUSH3 0x461BCD PUSH1 0xE5 SHL DUP2 MSTORE PUSH1 0x20 PUSH1 0x4 DUP3 ADD MSTORE PUSH1 0x21 PUSH1 0x24 DUP3 ADD MSTORE PUSH32 0x45524332303A206275726E2066726F6D20746865207A65726F20616464726573 PUSH1 0x44 DUP3 ADD MSTORE PUSH1 0x73 PUSH1 0xF8 SHL PUSH1 0x64 DUP3 ADD MSTORE PUSH1 0x84 ADD PUSH2 0x777 JUMP JUMPDEST PUSH1 0x1 PUSH1 0x1 PUSH1 0xA0 SHL SUB DUP3 AND PUSH1 0x0 SWAP1 DUP2 MSTORE PUSH1 0xC9 PUSH1 0x20 MSTORE PUSH1 0x40 SWAP1 KECCAK256 SLOAD DUP2 DUP2 LT ISZERO PUSH2 0x1493 JUMPI PUSH1 0x40 MLOAD PUSH3 0x461BCD PUSH1 0xE5 SHL DUP2 MSTORE PUSH1 0x20 PUSH1 0x4 DUP3 ADD MSTORE PUSH1 0x22 PUSH1 0x24 DUP3 ADD MSTORE PUSH32 0x45524332303A206275726E20616D6F756E7420657863656564732062616C616E PUSH1 0x44 DUP3 ADD MSTORE PUSH2 0x6365 PUSH1 0xF0 SHL PUSH1 0x64 DUP3 ADD MSTORE PUSH1 0x84 ADD PUSH2 0x777 JUMP JUMPDEST PUSH1 0x1 PUSH1 0x1 PUSH1 0xA0 SHL SUB DUP4 AND PUSH1 0x0 DUP2 DUP2 MSTORE PUSH1 0xC9 PUSH1 0x20 SWAP1 DUP2 MSTORE PUSH1 0x40 DUP1 DUP4 KECCAK256 DUP7 DUP7 SUB SWAP1 SSTORE PUSH1 0xCB DUP1 SLOAD DUP8 SWAP1 SUB SWAP1 SSTORE MLOAD DUP6 DUP2 MSTORE SWAP2 SWAP3 SWAP2 PUSH32 0xDDF252AD1BE2C89B69C2B068FC378DAA952BA7F163C4A11628F55A4DF523B3EF SWAP2 ADD PUSH1 0x40 MLOAD DUP1 SWAP2 SUB SWAP1 LOG3 POP POP POP JUMP JUMPDEST PUSH1 0x0 PUSH2 0x60B DUP3 SLOAD SWAP1 JUMP JUMPDEST PUSH2 0x191 SLOAD PUSH1 0x40 MLOAD PUSH4 0xD994D6D5 PUSH1 0xE0 SHL DUP2 MSTORE CALLER PUSH1 0x4 DUP3 ADD MSTORE PUSH1 0x1 PUSH1 0x1 PUSH1 0xA0 SHL SUB SWAP1 SWAP2 AND SWAP1 PUSH4 0xD994D6D5 SWAP1 PUSH1 0x24 ADD PUSH1 0x20 PUSH1 0x40 MLOAD DUP1 DUP4 SUB DUP2 DUP7 GAS STATICCALL ISZERO DUP1 ISZERO PUSH2 0x1546 JUMPI RETURNDATASIZE PUSH1 0x0 DUP1 RETURNDATACOPY RETURNDATASIZE PUSH1 0x0 REVERT JUMPDEST POP POP POP POP PUSH1 0x40 MLOAD RETURNDATASIZE PUSH1 0x1F NOT PUSH1 0x1F DUP3 ADD AND DUP3 ADD DUP1 PUSH1 0x40 MSTORE POP DUP2 ADD SWAP1 PUSH2 0x156A SWAP2 SWAP1 PUSH2 0x21F0 JUMP JUMPDEST PUSH2 0x1587 JUMPI PUSH1 0x40 MLOAD PUSH4 0x1DD1B1B5 PUSH1 0xE2 SHL DUP2 MSTORE PUSH1 0x4 ADD PUSH1 0x40 MLOAD DUP1 SWAP2 SUB SWAP1 REVERT JUMPDEST JUMP JUMPDEST PUSH2 0x1593 DUP3 DUP3 PUSH2 0xB61 JUMP JUMPDEST PUSH2 0x78A JUMPI PUSH2 0x15A0 DUP2 PUSH2 0x1876 JUMP JUMPDEST PUSH2 0x15AB DUP4 PUSH1 0x20 PUSH2 0x1888 JUMP JUMPDEST PUSH1 0x40 MLOAD PUSH1 0x20 ADD PUSH2 0x15BC SWAP3 SWAP2 SWAP1 PUSH2 0x2212 JUMP JUMPDEST PUSH1 0x40 DUP1 MLOAD PUSH1 0x1F NOT DUP2 DUP5 SUB ADD DUP2 MSTORE SWAP1 DUP3 SWAP1 MSTORE PUSH3 0x461BCD PUSH1 0xE5 SHL DUP3 MSTORE PUSH2 0x777 SWAP2 PUSH1 0x4 ADD PUSH2 0x1D8D JUMP JUMPDEST PUSH2 0x15EC DUP3 DUP3 PUSH2 0xB61 JUMP JUMPDEST PUSH2 0x78A JUMPI PUSH1 0x0 DUP3 DUP2 MSTORE PUSH1 0x65 PUSH1 0x20 SWAP1 DUP2 MSTORE PUSH1 0x40 DUP1 DUP4 KECCAK256 PUSH1 0x1 PUSH1 0x1 PUSH1 0xA0 SHL SUB DUP6 AND DUP5 MSTORE SWAP1 SWAP2 MSTORE SWAP1 KECCAK256 DUP1 SLOAD PUSH1 0xFF NOT AND PUSH1 0x1 OR SWAP1 SSTORE PUSH2 0x1624 CALLER SWAP1 JUMP JUMPDEST PUSH1 0x1 PUSH1 0x1 PUSH1 0xA0 SHL SUB AND DUP2 PUSH1 0x1 PUSH1 0x1 PUSH1 0xA0 SHL SUB AND DUP4 PUSH32 0x2F8788117E7EFF1D82E926EC794901D17C78024A50270940304540A733656F0D PUSH1 0x40 MLOAD PUSH1 0x40 MLOAD DUP1 SWAP2 SUB SWAP1 LOG4 POP POP JUMP JUMPDEST PUSH1 0x0 PUSH2 0x6DA DUP4 PUSH1 0x1 PUSH1 0x1 PUSH1 0xA0 SHL SUB DUP5 AND PUSH2 0x1A24 JUMP JUMPDEST PUSH2 0x1687 DUP3 DUP3 PUSH2 0xB61 JUMP JUMPDEST ISZERO PUSH2 0x78A JUMPI PUSH1 0x0 DUP3 DUP2 MSTORE PUSH1 0x65 PUSH1 0x20 SWAP1 DUP2 MSTORE PUSH1 0x40 DUP1 DUP4 KECCAK256 PUSH1 0x1 PUSH1 0x1 PUSH1 0xA0 SHL SUB DUP6 AND DUP1 DUP6 MSTORE SWAP3 MSTORE DUP1 DUP4 KECCAK256 DUP1 SLOAD PUSH1 0xFF NOT AND SWAP1 SSTORE MLOAD CALLER SWAP3 DUP6 SWAP2 PUSH32 0xF6391F5C32D9C69D2A47EA670B442974B53935D1EDC7FD64EB21E047A839171B SWAP2 SWAP1 LOG4 POP POP JUMP JUMPDEST PUSH1 0x0 PUSH2 0x6DA DUP4 PUSH1 0x1 PUSH1 0x1 PUSH1 0xA0 SHL SUB DUP5 AND PUSH2 0x1A73 JUMP JUMPDEST PUSH1 0x1 PUSH1 0x1 PUSH1 0xA0 SHL SUB DUP2 AND EXTCODESIZE PUSH2 0x1766 JUMPI PUSH1 0x40 MLOAD PUSH3 0x461BCD PUSH1 0xE5 SHL DUP2 MSTORE PUSH1 0x20 PUSH1 0x4 DUP3 ADD MSTORE PUSH1 0x2D PUSH1 0x24 DUP3 ADD MSTORE PUSH32 0x455243313936373A206E657720696D706C656D656E746174696F6E206973206E PUSH1 0x44 DUP3 ADD MSTORE PUSH13 0x1BDD08184818DBDB9D1C9858DD PUSH1 0x9A SHL PUSH1 0x64 DUP3 ADD MSTORE PUSH1 0x84 ADD PUSH2 0x777 JUMP JUMPDEST PUSH1 0x0 DUP1 MLOAD PUSH1 0x20 PUSH2 0x243F DUP4 CODECOPY DUP2 MLOAD SWAP2 MSTORE DUP1 SLOAD PUSH1 0x1 PUSH1 0x1 PUSH1 0xA0 SHL SUB NOT AND PUSH1 0x1 PUSH1 0x1 PUSH1 0xA0 SHL SUB SWAP3 SWAP1 SWAP3 AND SWAP2 SWAP1 SWAP2 OR SWAP1 SSTORE JUMP JUMPDEST PUSH2 0x179E DUP4 PUSH2 0x1B66 JUMP JUMPDEST PUSH1 0x0 DUP3 MLOAD GT DUP1 PUSH2 0x17AB JUMPI POP DUP1 JUMPDEST ISZERO PUSH2 0x706 JUMPI PUSH2 0xEFB DUP4 DUP4 PUSH2 0x1BA6 JUMP JUMPDEST PUSH1 0x0 SLOAD PUSH2 0x100 SWAP1 DIV PUSH1 0xFF AND PUSH2 0x17E1 JUMPI PUSH1 0x40 MLOAD PUSH3 0x461BCD PUSH1 0xE5 SHL DUP2 MSTORE PUSH1 0x4 ADD PUSH2 0x777 SWAP1 PUSH2 0x21A5 JUMP JUMPDEST PUSH2 0x78A DUP3 DUP3 PUSH2 0x1C9A JUMP JUMPDEST PUSH1 0x0 SLOAD PUSH2 0x100 SWAP1 DIV PUSH1 0xFF AND PUSH2 0x1587 JUMPI PUSH1 0x40 MLOAD PUSH3 0x461BCD PUSH1 0xE5 SHL DUP2 MSTORE PUSH1 0x4 ADD PUSH2 0x777 SWAP1 PUSH2 0x21A5 JUMP JUMPDEST PUSH1 0x0 SLOAD PUSH2 0x100 SWAP1 DIV PUSH1 0xFF AND PUSH2 0x1839 JUMPI PUSH1 0x40 MLOAD PUSH3 0x461BCD PUSH1 0xE5 SHL DUP2 MSTORE PUSH1 0x4 ADD PUSH2 0x777 SWAP1 PUSH2 0x21A5 JUMP JUMPDEST PUSH2 0x86A DUP2 PUSH2 0x1CDA JUMP JUMPDEST PUSH2 0x78A DUP3 DUP3 PUSH2 0x10B6 JUMP JUMPDEST PUSH1 0x0 DUP3 PUSH1 0x0 ADD DUP3 DUP2 SLOAD DUP2 LT PUSH2 0x1863 JUMPI PUSH2 0x1863 PUSH2 0x2287 JUMP JUMPDEST SWAP1 PUSH1 0x0 MSTORE PUSH1 0x20 PUSH1 0x0 KECCAK256 ADD SLOAD SWAP1 POP SWAP3 SWAP2 POP POP JUMP JUMPDEST PUSH1 0x60 PUSH2 0x60B PUSH1 0x1 PUSH1 0x1 PUSH1 0xA0 SHL SUB DUP4 AND PUSH1 0x14 JUMPDEST PUSH1 0x60 PUSH1 0x0 PUSH2 0x1897 DUP4 PUSH1 0x2 PUSH2 0x229D JUMP JUMPDEST PUSH2 0x18A2 SWAP1 PUSH1 0x2 PUSH2 0x2179 JUMP JUMPDEST PUSH8 0xFFFFFFFFFFFFFFFF DUP2 GT ISZERO PUSH2 0x18BA JUMPI PUSH2 0x18BA PUSH2 0x1EA8 JUMP JUMPDEST PUSH1 0x40 MLOAD SWAP1 DUP1 DUP3 MSTORE DUP1 PUSH1 0x1F ADD PUSH1 0x1F NOT AND PUSH1 0x20 ADD DUP3 ADD PUSH1 0x40 MSTORE DUP1 ISZERO PUSH2 0x18E4 JUMPI PUSH1 0x20 DUP3 ADD DUP2 DUP1 CALLDATASIZE DUP4 CALLDATACOPY ADD SWAP1 POP JUMPDEST POP SWAP1 POP PUSH1 0x3 PUSH1 0xFC SHL DUP2 PUSH1 0x0 DUP2 MLOAD DUP2 LT PUSH2 0x18FF JUMPI PUSH2 0x18FF PUSH2 0x2287 JUMP JUMPDEST PUSH1 0x20 ADD ADD SWAP1 PUSH1 0x1 PUSH1 0x1 PUSH1 0xF8 SHL SUB NOT AND SWAP1 DUP2 PUSH1 0x0 BYTE SWAP1 MSTORE8 POP PUSH1 0xF PUSH1 0xFB SHL DUP2 PUSH1 0x1 DUP2 MLOAD DUP2 LT PUSH2 0x192E JUMPI PUSH2 0x192E PUSH2 0x2287 JUMP JUMPDEST PUSH1 0x20 ADD ADD SWAP1 PUSH1 0x1 PUSH1 0x1 PUSH1 0xF8 SHL SUB NOT AND SWAP1 DUP2 PUSH1 0x0 BYTE SWAP1 MSTORE8 POP PUSH1 0x0 PUSH2 0x1952 DUP5 PUSH1 0x2 PUSH2 0x229D JUMP JUMPDEST PUSH2 0x195D SWAP1 PUSH1 0x1 PUSH2 0x2179 JUMP JUMPDEST SWAP1 POP JUMPDEST PUSH1 0x1 DUP2 GT ISZERO PUSH2 0x19D5 JUMPI PUSH16 0x181899199A1A9B1B9C1CB0B131B232B3 PUSH1 0x81 SHL DUP6 PUSH1 0xF AND PUSH1 0x10 DUP2 LT PUSH2 0x1991 JUMPI PUSH2 0x1991 PUSH2 0x2287 JUMP JUMPDEST BYTE PUSH1 0xF8 SHL DUP3 DUP3 DUP2 MLOAD DUP2 LT PUSH2 0x19A7 JUMPI PUSH2 0x19A7 PUSH2 0x2287 JUMP JUMPDEST PUSH1 0x20 ADD ADD SWAP1 PUSH1 0x1 PUSH1 0x1 PUSH1 0xF8 SHL SUB NOT AND SWAP1 DUP2 PUSH1 0x0 BYTE SWAP1 MSTORE8 POP PUSH1 0x4 SWAP5 SWAP1 SWAP5 SHR SWAP4 PUSH2 0x19CE DUP2 PUSH2 0x22B4 JUMP JUMPDEST SWAP1 POP PUSH2 0x1960 JUMP JUMPDEST POP DUP4 ISZERO PUSH2 0x6DA JUMPI PUSH1 0x40 MLOAD PUSH3 0x461BCD PUSH1 0xE5 SHL DUP2 MSTORE PUSH1 0x20 PUSH1 0x4 DUP3 ADD DUP2 SWAP1 MSTORE PUSH1 0x24 DUP3 ADD MSTORE PUSH32 0x537472696E67733A20686578206C656E67746820696E73756666696369656E74 PUSH1 0x44 DUP3 ADD MSTORE PUSH1 0x64 ADD PUSH2 0x777 JUMP JUMPDEST PUSH1 0x0 DUP2 DUP2 MSTORE PUSH1 0x1 DUP4 ADD PUSH1 0x20 MSTORE PUSH1 0x40 DUP2 KECCAK256 SLOAD PUSH2 0x1A6B JUMPI POP DUP2 SLOAD PUSH1 0x1 DUP2 DUP2 ADD DUP5 SSTORE PUSH1 0x0 DUP5 DUP2 MSTORE PUSH1 0x20 DUP1 DUP3 KECCAK256 SWAP1 SWAP4 ADD DUP5 SWAP1 SSTORE DUP5 SLOAD DUP5 DUP3 MSTORE DUP3 DUP7 ADD SWAP1 SWAP4 MSTORE PUSH1 0x40 SWAP1 KECCAK256 SWAP2 SWAP1 SWAP2 SSTORE PUSH2 0x60B JUMP JUMPDEST POP PUSH1 0x0 PUSH2 0x60B JUMP JUMPDEST PUSH1 0x0 DUP2 DUP2 MSTORE PUSH1 0x1 DUP4 ADD PUSH1 0x20 MSTORE PUSH1 0x40 DUP2 KECCAK256 SLOAD DUP1 ISZERO PUSH2 0x1B5C JUMPI PUSH1 0x0 PUSH2 0x1A97 PUSH1 0x1 DUP4 PUSH2 0x22CB JUMP JUMPDEST DUP6 SLOAD SWAP1 SWAP2 POP PUSH1 0x0 SWAP1 PUSH2 0x1AAB SWAP1 PUSH1 0x1 SWAP1 PUSH2 0x22CB JUMP JUMPDEST SWAP1 POP DUP2 DUP2 EQ PUSH2 0x1B10 JUMPI PUSH1 0x0 DUP7 PUSH1 0x0 ADD DUP3 DUP2 SLOAD DUP2 LT PUSH2 0x1ACB JUMPI PUSH2 0x1ACB PUSH2 0x2287 JUMP JUMPDEST SWAP1 PUSH1 0x0 MSTORE PUSH1 0x20 PUSH1 0x0 KECCAK256 ADD SLOAD SWAP1 POP DUP1 DUP8 PUSH1 0x0 ADD DUP5 DUP2 SLOAD DUP2 LT PUSH2 0x1AEE JUMPI PUSH2 0x1AEE PUSH2 0x2287 JUMP JUMPDEST PUSH1 0x0 SWAP2 DUP3 MSTORE PUSH1 0x20 DUP1 DUP4 KECCAK256 SWAP1 SWAP2 ADD SWAP3 SWAP1 SWAP3 SSTORE SWAP2 DUP3 MSTORE PUSH1 0x1 DUP9 ADD SWAP1 MSTORE PUSH1 0x40 SWAP1 KECCAK256 DUP4 SWAP1 SSTORE JUMPDEST DUP6 SLOAD DUP7 SWAP1 DUP1 PUSH2 0x1B21 JUMPI PUSH2 0x1B21 PUSH2 0x22DE JUMP JUMPDEST PUSH1 0x1 SWAP1 SUB DUP2 DUP2 SWAP1 PUSH1 0x0 MSTORE PUSH1 0x20 PUSH1 0x0 KECCAK256 ADD PUSH1 0x0 SWAP1 SSTORE SWAP1 SSTORE DUP6 PUSH1 0x1 ADD PUSH1 0x0 DUP7 DUP2 MSTORE PUSH1 0x20 ADD SWAP1 DUP2 MSTORE PUSH1 0x20 ADD PUSH1 0x0 KECCAK256 PUSH1 0x0 SWAP1 SSTORE PUSH1 0x1 SWAP4 POP POP POP POP PUSH2 0x60B JUMP JUMPDEST PUSH1 0x0 SWAP2 POP POP PUSH2 0x60B JUMP JUMPDEST PUSH2 0x1B6F DUP2 PUSH2 0x16F9 JUMP JUMPDEST PUSH1 0x40 MLOAD PUSH1 0x1 PUSH1 0x1 PUSH1 0xA0 SHL SUB DUP3 AND SWAP1 PUSH32 0xBC7CD75A20EE27FD9ADEBAB32041F755214DBC6BFFA90CC0225B39DA2E5C2D3B SWAP1 PUSH1 0x0 SWAP1 LOG2 POP JUMP JUMPDEST PUSH1 0x60 PUSH1 0x1 PUSH1 0x1 PUSH1 0xA0 SHL SUB DUP4 AND EXTCODESIZE PUSH2 0x1C0E JUMPI PUSH1 0x40 MLOAD PUSH3 0x461BCD PUSH1 0xE5 SHL DUP2 MSTORE PUSH1 0x20 PUSH1 0x4 DUP3 ADD MSTORE PUSH1 0x26 PUSH1 0x24 DUP3 ADD MSTORE PUSH32 0x416464726573733A2064656C65676174652063616C6C20746F206E6F6E2D636F PUSH1 0x44 DUP3 ADD MSTORE PUSH6 0x1B9D1C9858DD PUSH1 0xD2 SHL PUSH1 0x64 DUP3 ADD MSTORE PUSH1 0x84 ADD PUSH2 0x777 JUMP JUMPDEST PUSH1 0x0 DUP1 DUP5 PUSH1 0x1 PUSH1 0x1 PUSH1 0xA0 SHL SUB AND DUP5 PUSH1 0x40 MLOAD PUSH2 0x1C29 SWAP2 SWAP1 PUSH2 0x22F4 JUMP JUMPDEST PUSH1 0x0 PUSH1 0x40 MLOAD DUP1 DUP4 SUB DUP2 DUP6 GAS DELEGATECALL SWAP2 POP POP RETURNDATASIZE DUP1 PUSH1 0x0 DUP2 EQ PUSH2 0x1C64 JUMPI PUSH1 0x40 MLOAD SWAP2 POP PUSH1 0x1F NOT PUSH1 0x3F RETURNDATASIZE ADD AND DUP3 ADD PUSH1 0x40 MSTORE RETURNDATASIZE DUP3 MSTORE RETURNDATASIZE PUSH1 0x0 PUSH1 0x20 DUP5 ADD RETURNDATACOPY PUSH2 0x1C69 JUMP JUMPDEST PUSH1 0x60 SWAP2 POP JUMPDEST POP SWAP2 POP SWAP2 POP PUSH2 0x1C91 DUP3 DUP3 PUSH1 0x40 MLOAD DUP1 PUSH1 0x60 ADD PUSH1 0x40 MSTORE DUP1 PUSH1 0x27 DUP2 MSTORE PUSH1 0x20 ADD PUSH2 0x245F PUSH1 0x27 SWAP2 CODECOPY PUSH2 0x1D01 JUMP JUMPDEST SWAP6 SWAP5 POP POP POP POP POP JUMP JUMPDEST PUSH1 0x0 SLOAD PUSH2 0x100 SWAP1 DIV PUSH1 0xFF AND PUSH2 0x1CC1 JUMPI PUSH1 0x40 MLOAD PUSH3 0x461BCD PUSH1 0xE5 SHL DUP2 MSTORE PUSH1 0x4 ADD PUSH2 0x777 SWAP1 PUSH2 0x21A5 JUMP JUMPDEST PUSH1 0xCC PUSH2 0x1CCD DUP4 DUP3 PUSH2 0x235E JUMP JUMPDEST POP PUSH1 0xCD PUSH2 0x706 DUP3 DUP3 PUSH2 0x235E JUMP JUMPDEST PUSH1 0x0 SLOAD PUSH2 0x100 SWAP1 DIV PUSH1 0xFF AND PUSH2 0xD0B JUMPI PUSH1 0x40 MLOAD PUSH3 0x461BCD PUSH1 0xE5 SHL DUP2 MSTORE PUSH1 0x4 ADD PUSH2 0x777 SWAP1 PUSH2 0x21A5 JUMP JUMPDEST PUSH1 0x60 DUP4 ISZERO PUSH2 0x1D10 JUMPI POP DUP2 PUSH2 0x6DA JUMP JUMPDEST PUSH2 0x6DA DUP4 DUP4 DUP2 MLOAD ISZERO PUSH2 0x1D25 JUMPI DUP2 MLOAD DUP1 DUP4 PUSH1 0x20 ADD REVERT JUMPDEST DUP1 PUSH1 0x40 MLOAD PUSH3 0x461BCD PUSH1 0xE5 SHL DUP2 MSTORE PUSH1 0x4 ADD PUSH2 0x777 SWAP2 SWAP1 PUSH2 0x1D8D JUMP JUMPDEST PUSH1 0x0 PUSH1 0x20 DUP3 DUP5 SUB SLT ISZERO PUSH2 0x1D51 JUMPI PUSH1 0x0 DUP1 REVERT JUMPDEST DUP2 CALLDATALOAD PUSH1 0x1 PUSH1 0x1 PUSH1 0xE0 SHL SUB NOT DUP2 AND DUP2 EQ PUSH2 0x6DA JUMPI PUSH1 0x0 DUP1 REVERT JUMPDEST PUSH1 0x0 JUMPDEST DUP4 DUP2 LT ISZERO PUSH2 0x1D84 JUMPI DUP2 DUP2 ADD MLOAD DUP4 DUP3 ADD MSTORE PUSH1 0x20 ADD PUSH2 0x1D6C JUMP JUMPDEST POP POP PUSH1 0x0 SWAP2 ADD MSTORE JUMP JUMPDEST PUSH1 0x20 DUP2 MSTORE PUSH1 0x0 DUP3 MLOAD DUP1 PUSH1 0x20 DUP5 ADD MSTORE PUSH2 0x1DAC DUP2 PUSH1 0x40 DUP6 ADD PUSH1 0x20 DUP8 ADD PUSH2 0x1D69 JUMP JUMPDEST PUSH1 0x1F ADD PUSH1 0x1F NOT AND SWAP2 SWAP1 SWAP2 ADD PUSH1 0x40 ADD SWAP3 SWAP2 POP POP JUMP JUMPDEST PUSH1 0x1 PUSH1 0x1 PUSH1 0xA0 SHL SUB DUP2 AND DUP2 EQ PUSH2 0x86A JUMPI PUSH1 0x0 DUP1 REVERT JUMPDEST PUSH1 0x0 DUP1 PUSH1 0x40 DUP4 DUP6 SUB SLT ISZERO PUSH2 0x1DE8 JUMPI PUSH1 0x0 DUP1 REVERT JUMPDEST DUP3 CALLDATALOAD PUSH2 0x1DF3 DUP2 PUSH2 0x1DC0 JUMP JUMPDEST SWAP5 PUSH1 0x20 SWAP4 SWAP1 SWAP4 ADD CALLDATALOAD SWAP4 POP POP POP JUMP JUMPDEST PUSH1 0x0 DUP1 PUSH1 0x0 PUSH1 0x60 DUP5 DUP7 SUB SLT ISZERO PUSH2 0x1E16 JUMPI PUSH1 0x0 DUP1 REVERT JUMPDEST DUP4 CALLDATALOAD PUSH2 0x1E21 DUP2 PUSH2 0x1DC0 JUMP JUMPDEST SWAP3 POP PUSH1 0x20 DUP5 ADD CALLDATALOAD PUSH2 0x1E31 DUP2 PUSH2 0x1DC0 JUMP JUMPDEST SWAP3 SWAP6 SWAP3 SWAP5 POP POP POP PUSH1 0x40 SWAP2 SWAP1 SWAP2 ADD CALLDATALOAD SWAP1 JUMP JUMPDEST PUSH1 0x0 PUSH1 0x20 DUP3 DUP5 SUB SLT ISZERO PUSH2 0x1E54 JUMPI PUSH1 0x0 DUP1 REVERT JUMPDEST POP CALLDATALOAD SWAP2 SWAP1 POP JUMP JUMPDEST PUSH1 0x0 DUP1 PUSH1 0x40 DUP4 DUP6 SUB SLT ISZERO PUSH2 0x1E6E JUMPI PUSH1 0x0 DUP1 REVERT JUMPDEST DUP3 CALLDATALOAD SWAP2 POP PUSH1 0x20 DUP4 ADD CALLDATALOAD PUSH2 0x1E80 DUP2 PUSH2 0x1DC0 JUMP JUMPDEST DUP1 SWAP2 POP POP SWAP3 POP SWAP3 SWAP1 POP JUMP JUMPDEST PUSH1 0x0 PUSH1 0x20 DUP3 DUP5 SUB SLT ISZERO PUSH2 0x1E9D JUMPI PUSH1 0x0 DUP1 REVERT JUMPDEST DUP2 CALLDATALOAD PUSH2 0x6DA DUP2 PUSH2 0x1DC0 JUMP JUMPDEST PUSH4 0x4E487B71 PUSH1 0xE0 SHL PUSH1 0x0 MSTORE PUSH1 0x41 PUSH1 0x4 MSTORE PUSH1 0x24 PUSH1 0x0 REVERT JUMPDEST PUSH1 0x0 PUSH8 0xFFFFFFFFFFFFFFFF DUP1 DUP5 GT ISZERO PUSH2 0x1ED9 JUMPI PUSH2 0x1ED9 PUSH2 0x1EA8 JUMP JUMPDEST PUSH1 0x40 MLOAD PUSH1 0x1F DUP6 ADD PUSH1 0x1F NOT SWAP1 DUP2 AND PUSH1 0x3F ADD AND DUP2 ADD SWAP1 DUP3 DUP3 GT DUP2 DUP4 LT OR ISZERO PUSH2 0x1F01 JUMPI PUSH2 0x1F01 PUSH2 0x1EA8 JUMP JUMPDEST DUP2 PUSH1 0x40 MSTORE DUP1 SWAP4 POP DUP6 DUP2 MSTORE DUP7 DUP7 DUP7 ADD GT ISZERO PUSH2 0x1F1A JUMPI PUSH1 0x0 DUP1 REVERT JUMPDEST DUP6 DUP6 PUSH1 0x20 DUP4 ADD CALLDATACOPY PUSH1 0x0 PUSH1 0x20 DUP8 DUP4 ADD ADD MSTORE POP POP POP SWAP4 SWAP3 POP POP POP JUMP JUMPDEST PUSH1 0x0 DUP1 PUSH1 0x40 DUP4 DUP6 SUB SLT ISZERO PUSH2 0x1F47 JUMPI PUSH1 0x0 DUP1 REVERT JUMPDEST DUP3 CALLDATALOAD PUSH2 0x1F52 DUP2 PUSH2 0x1DC0 JUMP JUMPDEST SWAP2 POP PUSH1 0x20 DUP4 ADD CALLDATALOAD PUSH8 0xFFFFFFFFFFFFFFFF DUP2 GT ISZERO PUSH2 0x1F6E JUMPI PUSH1 0x0 DUP1 REVERT JUMPDEST DUP4 ADD PUSH1 0x1F DUP2 ADD DUP6 SGT PUSH2 0x1F7F JUMPI PUSH1 0x0 DUP1 REVERT JUMPDEST PUSH2 0x1F8E DUP6 DUP3 CALLDATALOAD PUSH1 0x20 DUP5 ADD PUSH2 0x1EBE JUMP JUMPDEST SWAP2 POP POP SWAP3 POP SWAP3 SWAP1 POP JUMP JUMPDEST PUSH1 0x0 DUP3 PUSH1 0x1F DUP4 ADD SLT PUSH2 0x1FA9 JUMPI PUSH1 0x0 DUP1 REVERT JUMPDEST PUSH2 0x6DA DUP4 DUP4 CALLDATALOAD PUSH1 0x20 DUP6 ADD PUSH2 0x1EBE JUMP JUMPDEST PUSH1 0x0 DUP1 PUSH1 0x0 DUP1 PUSH1 0x80 DUP6 DUP8 SUB SLT ISZERO PUSH2 0x1FCE JUMPI PUSH1 0x0 DUP1 REVERT JUMPDEST DUP5 CALLDATALOAD PUSH8 0xFFFFFFFFFFFFFFFF DUP1 DUP3 GT ISZERO PUSH2 0x1FE6 JUMPI PUSH1 0x0 DUP1 REVERT JUMPDEST PUSH2 0x1FF2 DUP9 DUP4 DUP10 ADD PUSH2 0x1F98 JUMP JUMPDEST SWAP6 POP PUSH1 0x20 DUP8 ADD CALLDATALOAD SWAP2 POP DUP1 DUP3 GT ISZERO PUSH2 0x2008 JUMPI PUSH1 0x0 DUP1 REVERT JUMPDEST POP PUSH2 0x2015 DUP8 DUP3 DUP9 ADD PUSH2 0x1F98 JUMP JUMPDEST SWAP4 POP POP PUSH1 0x40 DUP6 ADD CALLDATALOAD PUSH2 0x2026 DUP2 PUSH2 0x1DC0 JUMP JUMPDEST SWAP2 POP PUSH1 0x60 DUP6 ADD CALLDATALOAD PUSH2 0x2036 DUP2 PUSH2 0x1DC0 JUMP JUMPDEST SWAP4 SWAP7 SWAP3 SWAP6 POP SWAP1 SWAP4 POP POP JUMP JUMPDEST PUSH1 0x0 DUP1 PUSH1 0x40 DUP4 DUP6 SUB SLT ISZERO PUSH2 0x2054 JUMPI PUSH1 0x0 DUP1 REVERT JUMPDEST POP POP DUP1 CALLDATALOAD SWAP3 PUSH1 0x20 SWAP1 SWAP2 ADD CALLDATALOAD SWAP2 POP JUMP JUMPDEST PUSH1 0x0 DUP1 PUSH1 0x40 DUP4 DUP6 SUB SLT ISZERO PUSH2 0x2076 JUMPI PUSH1 0x0 DUP1 REVERT JUMPDEST DUP3 CALLDATALOAD PUSH2 0x2081 DUP2 PUSH2 0x1DC0 JUMP JUMPDEST SWAP2 POP PUSH1 0x20 DUP4 ADD CALLDATALOAD PUSH2 0x1E80 DUP2 PUSH2 0x1DC0 JUMP JUMPDEST PUSH1 0x1 DUP2 DUP2 SHR SWAP1 DUP3 AND DUP1 PUSH2 0x20A5 JUMPI PUSH1 0x7F DUP3 AND SWAP2 POP JUMPDEST PUSH1 0x20 DUP3 LT DUP2 SUB PUSH2 0x20C5 JUMPI PUSH4 0x4E487B71 PUSH1 0xE0 SHL PUSH1 0x0 MSTORE PUSH1 0x22 PUSH1 0x4 MSTORE PUSH1 0x24 PUSH1 0x0 REVERT JUMPDEST POP SWAP2 SWAP1 POP JUMP JUMPDEST PUSH1 0x20 DUP1 DUP3 MSTORE PUSH1 0x2C SWAP1 DUP3 ADD MSTORE PUSH32 0x46756E6374696F6E206D7573742062652063616C6C6564207468726F75676820 PUSH1 0x40 DUP3 ADD MSTORE PUSH12 0x19195B1959D85D1958D85B1B PUSH1 0xA2 SHL PUSH1 0x60 DUP3 ADD MSTORE PUSH1 0x80 ADD SWAP1 JUMP JUMPDEST PUSH1 0x20 DUP1 DUP3 MSTORE PUSH1 0x2C SWAP1 DUP3 ADD MSTORE PUSH32 0x46756E6374696F6E206D7573742062652063616C6C6564207468726F75676820 PUSH1 0x40 DUP3 ADD MSTORE PUSH12 0x6163746976652070726F7879 PUSH1 0xA0 SHL PUSH1 0x60 DUP3 ADD MSTORE PUSH1 0x80 ADD SWAP1 JUMP JUMPDEST PUSH4 0x4E487B71 PUSH1 0xE0 SHL PUSH1 0x0 MSTORE PUSH1 0x11 PUSH1 0x4 MSTORE PUSH1 0x24 PUSH1 0x0 REVERT JUMPDEST DUP1 DUP3 ADD DUP1 DUP3 GT ISZERO PUSH2 0x60B JUMPI PUSH2 0x60B PUSH2 0x2163 JUMP JUMPDEST PUSH1 0x0 PUSH1 0x20 DUP3 DUP5 SUB SLT ISZERO PUSH2 0x219E JUMPI PUSH1 0x0 DUP1 REVERT JUMPDEST POP MLOAD SWAP2 SWAP1 POP JUMP JUMPDEST PUSH1 0x20 DUP1 DUP3 MSTORE PUSH1 0x2B SWAP1 DUP3 ADD MSTORE PUSH32 0x496E697469616C697A61626C653A20636F6E7472616374206973206E6F742069 PUSH1 0x40 DUP3 ADD MSTORE PUSH11 0x6E697469616C697A696E67 PUSH1 0xA8 SHL PUSH1 0x60 DUP3 ADD MSTORE PUSH1 0x80 ADD SWAP1 JUMP JUMPDEST PUSH1 0x0 PUSH1 0x20 DUP3 DUP5 SUB SLT ISZERO PUSH2 0x2202 JUMPI PUSH1 0x0 DUP1 REVERT JUMPDEST DUP2 MLOAD DUP1 ISZERO ISZERO DUP2 EQ PUSH2 0x6DA JUMPI PUSH1 0x0 DUP1 REVERT JUMPDEST PUSH32 0x416363657373436F6E74726F6C3A206163636F756E7420000000000000000000 DUP2 MSTORE PUSH1 0x0 DUP4 MLOAD PUSH2 0x224A DUP2 PUSH1 0x17 DUP6 ADD PUSH1 0x20 DUP9 ADD PUSH2 0x1D69 JUMP JUMPDEST PUSH17 0x1034B99036B4B9B9B4B733903937B6329 PUSH1 0x7D SHL PUSH1 0x17 SWAP2 DUP5 ADD SWAP2 DUP3 ADD MSTORE DUP4 MLOAD PUSH2 0x227B DUP2 PUSH1 0x28 DUP5 ADD PUSH1 0x20 DUP9 ADD PUSH2 0x1D69 JUMP JUMPDEST ADD PUSH1 0x28 ADD SWAP5 SWAP4 POP POP POP POP JUMP JUMPDEST PUSH4 0x4E487B71 PUSH1 0xE0 SHL PUSH1 0x0 MSTORE PUSH1 0x32 PUSH1 0x4 MSTORE PUSH1 0x24 PUSH1 0x0 REVERT JUMPDEST DUP1 DUP3 MUL DUP2 ISZERO DUP3 DUP3 DIV DUP5 EQ OR PUSH2 0x60B JUMPI PUSH2 0x60B PUSH2 0x2163 JUMP JUMPDEST PUSH1 0x0 DUP2 PUSH2 0x22C3 JUMPI PUSH2 0x22C3 PUSH2 0x2163 JUMP JUMPDEST POP PUSH1 0x0 NOT ADD SWAP1 JUMP JUMPDEST DUP2 DUP2 SUB DUP2 DUP2 GT ISZERO PUSH2 0x60B JUMPI PUSH2 0x60B PUSH2 0x2163 JUMP JUMPDEST PUSH4 0x4E487B71 PUSH1 0xE0 SHL PUSH1 0x0 MSTORE PUSH1 0x31 PUSH1 0x4 MSTORE PUSH1 0x24 PUSH1 0x0 REVERT JUMPDEST PUSH1 0x0 DUP3 MLOAD PUSH2 0x2306 DUP2 DUP5 PUSH1 0x20 DUP8 ADD PUSH2 0x1D69 JUMP JUMPDEST SWAP2 SWAP1 SWAP2 ADD SWAP3 SWAP2 POP POP JUMP JUMPDEST PUSH1 0x1F DUP3 GT ISZERO PUSH2 0x706 JUMPI PUSH1 0x0 DUP2 DUP2 MSTORE PUSH1 0x20 DUP2 KECCAK256 PUSH1 0x1F DUP6 ADD PUSH1 0x5 SHR DUP2 ADD PUSH1 0x20 DUP7 LT ISZERO PUSH2 0x2337 JUMPI POP DUP1 JUMPDEST PUSH1 0x1F DUP6 ADD PUSH1 0x5 SHR DUP3 ADD SWAP2 POP JUMPDEST DUP2 DUP2 LT ISZERO PUSH2 0x2356 JUMPI DUP3 DUP2 SSTORE PUSH1 0x1 ADD PUSH2 0x2343 JUMP JUMPDEST POP POP POP POP POP POP JUMP JUMPDEST DUP2 MLOAD PUSH8 0xFFFFFFFFFFFFFFFF DUP2 GT ISZERO PUSH2 0x2378 JUMPI PUSH2 0x2378 PUSH2 0x1EA8 JUMP JUMPDEST PUSH2 0x238C DUP2 PUSH2 0x2386 DUP5 SLOAD PUSH2 0x2091 JUMP JUMPDEST DUP5 PUSH2 0x2310 JUMP JUMPDEST PUSH1 0x20 DUP1 PUSH1 0x1F DUP4 GT PUSH1 0x1 DUP2 EQ PUSH2 0x23C1 JUMPI PUSH1 0x0 DUP5 ISZERO PUSH2 0x23A9 JUMPI POP DUP6 DUP4 ADD MLOAD JUMPDEST PUSH1 0x0 NOT PUSH1 0x3 DUP7 SWAP1 SHL SHR NOT AND PUSH1 0x1 DUP6 SWAP1 SHL OR DUP6 SSTORE PUSH2 0x2356 JUMP JUMPDEST PUSH1 0x0 DUP6 DUP2 MSTORE PUSH1 0x20 DUP2 KECCAK256 PUSH1 0x1F NOT DUP7 AND SWAP2 JUMPDEST DUP3 DUP2 LT ISZERO PUSH2 0x23F0 JUMPI DUP9 DUP7 ADD MLOAD DUP3 SSTORE SWAP5 DUP5 ADD SWAP5 PUSH1 0x1 SWAP1 SWAP2 ADD SWAP1 DUP5 ADD PUSH2 0x23D1 JUMP JUMPDEST POP DUP6 DUP3 LT ISZERO PUSH2 0x240E JUMPI DUP8 DUP6 ADD MLOAD PUSH1 0x0 NOT PUSH1 0x3 DUP9 SWAP1 SHL PUSH1 0xF8 AND SHR NOT AND DUP2 SSTORE JUMPDEST POP POP POP POP POP PUSH1 0x1 SWAP1 DUP2 SHL ADD SWAP1 SSTORE POP JUMP INVALID EXTCODECOPY GT 0xD1 PUSH13 0xBAFFD01DF69CE1C404F6340EE0 JUMPI 0x49 DUP16 0x5F STOP 0x24 PUSH2 0x90EA SLOAD 0x22 SDIV PUSH23 0xA848360894A13BA1A3210667C828492DB98DCA3E2076CC CALLDATACOPY CALLDATALOAD 0xA9 KECCAK256 LOG3 0xCA POP 0x5D CODESIZE 0x2B 0xBC COINBASE PUSH5 0x6472657373 GASPRICE KECCAK256 PUSH13 0x6F772D6C6576656C2064656C65 PUSH8 0x6174652063616C6C KECCAK256 PUSH7 0x61696C65649F2D CREATE INVALID 0xD2 0xC7 PUSH23 0x48DE5860A4CC508CD0818C85B8B8A1AB4CEEEF8D981C89 JUMP 0xA6 LOG2 PUSH5 0x6970667358 0x22 SLT KECCAK256 SWAP12 DUP5 0xD9 0xB0 SWAP15 0xAC AND 0xDF PUSH16 0x202255A5F965FA421B2997EEE492ED4A 0xD4 0xD5 LOG2 0x25 0xB8 0xB2 DUP13 PUSH5 0x736F6C6343 STOP ADDMOD GT STOP CALLER PUSH1 0x80 PUSH1 0x40 MSTORE CALLVALUE DUP1 ISZERO PUSH2 0x10 JUMPI PUSH1 0x0 DUP1 REVERT JUMPDEST POP PUSH1 0x40 MLOAD PUSH2 0x181 CODESIZE SUB DUP1 PUSH2 0x181 DUP4 CODECOPY DUP2 ADD PUSH1 0x40 DUP2 SWAP1 MSTORE PUSH2 0x2F SWAP2 PUSH2 0x43 JUMP JUMPDEST PUSH1 0x0 SSTORE PUSH1 0x1 DUP1 SLOAD PUSH1 0xFF NOT AND DUP2 OR SWAP1 SSTORE PUSH2 0x5C JUMP JUMPDEST PUSH1 0x0 PUSH1 0x20 DUP3 DUP5 SUB SLT ISZERO PUSH2 0x55 JUMPI PUSH1 0x0 DUP1 REVERT JUMPDEST POP MLOAD SWAP2 SWAP1 POP JUMP JUMPDEST PUSH2 0x116 DUP1 PUSH2 0x6B PUSH1 0x0 CODECOPY PUSH1 0x0 RETURN INVALID PUSH1 0x80 PUSH1 0x40 MSTORE CALLVALUE DUP1 ISZERO PUSH1 0xF JUMPI PUSH1 0x0 DUP1 REVERT JUMPDEST POP PUSH1 0x4 CALLDATASIZE LT PUSH1 0x50 JUMPI PUSH1 0x0 CALLDATALOAD PUSH1 0xE0 SHR DUP1 PUSH4 0x2A3F4389 EQ PUSH1 0x55 JUMPI DUP1 PUSH4 0x32145F90 EQ PUSH1 0x70 JUMPI DUP1 PUSH4 0x5095E3D9 EQ PUSH1 0x82 JUMPI DUP1 PUSH4 0x59E02DD7 EQ PUSH1 0x90 JUMPI DUP1 PUSH4 0xB689D5AC EQ PUSH1 0xAD JUMPI JUMPDEST PUSH1 0x0 DUP1 REVERT JUMPDEST PUSH1 0x5D PUSH1 0x0 SLOAD DUP2 JUMP JUMPDEST PUSH1 0x40 MLOAD SWAP1 DUP2 MSTORE PUSH1 0x20 ADD JUMPDEST PUSH1 0x40 MLOAD DUP1 SWAP2 SUB SWAP1 RETURN JUMPDEST PUSH1 0x80 PUSH1 0x7B CALLDATASIZE PUSH1 0x4 PUSH1 0xC8 JUMP JUMPDEST PUSH1 0x0 SSTORE JUMP JUMPDEST STOP JUMPDEST PUSH1 0x80 PUSH1 0x1 DUP1 SLOAD PUSH1 0xFF NOT AND SWAP1 SSTORE JUMP JUMPDEST PUSH1 0x0 SLOAD PUSH1 0x1 SLOAD PUSH1 0xFF AND PUSH1 0x40 DUP1 MLOAD SWAP3 DUP4 MSTORE SWAP1 ISZERO ISZERO PUSH1 0x20 DUP4 ADD MSTORE ADD PUSH1 0x67 JUMP JUMPDEST PUSH1 0x1 SLOAD PUSH1 0xB9 SWAP1 PUSH1 0xFF AND DUP2 JUMP JUMPDEST PUSH1 0x40 MLOAD SWAP1 ISZERO ISZERO DUP2 MSTORE PUSH1 0x20 ADD PUSH1 0x67 JUMP JUMPDEST PUSH1 0x0 PUSH1 0x20 DUP3 DUP5 SUB SLT ISZERO PUSH1 0xD9 JUMPI PUSH1 0x0 DUP1 REVERT JUMPDEST POP CALLDATALOAD SWAP2 SWAP1 POP JUMP INVALID LOG2 PUSH5 0x6970667358 0x22 SLT KECCAK256 0x2F ORIGIN 0xD9 PUSH23 0x6874D6A34191093EA824C1F980A41BB7D175C2D324F818 PUSH18 0xDF97720A64736F6C63430008110033608060 BLOCKHASH MSTORE PUSH1 0x5 DUP1 SLOAD PUSH1 0xFF NOT AND PUSH1 0x12 OR SWAP1 SSTORE CALLVALUE DUP1 ISZERO PUSH3 0x1E JUMPI PUSH1 0x0 DUP1 REVERT JUMPDEST POP PUSH1 0x40 DUP1 MLOAD DUP1 DUP3 ADD DUP3 MSTORE PUSH1 0x9 DUP1 DUP3 MSTORE PUSH9 0x45524332304D6F636B PUSH1 0xB8 SHL PUSH1 0x20 DUP1 DUP5 ADD DUP3 SWAP1 MSTORE DUP5 MLOAD DUP1 DUP7 ADD SWAP1 SWAP6 MSTORE SWAP2 DUP5 MSTORE SWAP1 DUP4 ADD MSTORE SWAP1 PUSH1 0x3 PUSH3 0x60 DUP4 DUP3 PUSH3 0x207 JUMP JUMPDEST POP PUSH1 0x4 PUSH3 0x6F DUP3 DUP3 PUSH3 0x207 JUMP JUMPDEST POP PUSH3 0x92 SWAP2 POP CALLER SWAP1 POP PUSH3 0x8C PUSH5 0x2540BE400 PUSH1 0x0 NOT PUSH3 0x2D3 JUMP JUMPDEST PUSH3 0x98 JUMP JUMPDEST PUSH3 0x31E JUMP JUMPDEST PUSH1 0x1 PUSH1 0x1 PUSH1 0xA0 SHL SUB DUP3 AND PUSH3 0xF3 JUMPI PUSH1 0x40 MLOAD PUSH3 0x461BCD PUSH1 0xE5 SHL DUP2 MSTORE PUSH1 0x20 PUSH1 0x4 DUP3 ADD MSTORE PUSH1 0x1F PUSH1 0x24 DUP3 ADD MSTORE PUSH32 0x45524332303A206D696E7420746F20746865207A65726F206164647265737300 PUSH1 0x44 DUP3 ADD MSTORE PUSH1 0x64 ADD PUSH1 0x40 MLOAD DUP1 SWAP2 SUB SWAP1 REVERT JUMPDEST DUP1 PUSH1 0x2 PUSH1 0x0 DUP3 DUP3 SLOAD PUSH3 0x107 SWAP2 SWAP1 PUSH3 0x2F6 JUMP JUMPDEST SWAP1 SWAP2 SSTORE POP POP PUSH1 0x1 PUSH1 0x1 PUSH1 0xA0 SHL SUB DUP3 AND PUSH1 0x0 DUP2 DUP2 MSTORE PUSH1 0x20 DUP2 DUP2 MSTORE PUSH1 0x40 DUP1 DUP4 KECCAK256 DUP1 SLOAD DUP7 ADD SWAP1 SSTORE MLOAD DUP5 DUP2 MSTORE PUSH32 0xDDF252AD1BE2C89B69C2B068FC378DAA952BA7F163C4A11628F55A4DF523B3EF SWAP2 ADD PUSH1 0x40 MLOAD DUP1 SWAP2 SUB SWAP1 LOG3 POP POP JUMP JUMPDEST POP POP POP JUMP JUMPDEST PUSH4 0x4E487B71 PUSH1 0xE0 SHL PUSH1 0x0 MSTORE PUSH1 0x41 PUSH1 0x4 MSTORE PUSH1 0x24 PUSH1 0x0 REVERT JUMPDEST PUSH1 0x1 DUP2 DUP2 SHR SWAP1 DUP3 AND DUP1 PUSH3 0x18E JUMPI PUSH1 0x7F DUP3 AND SWAP2 POP JUMPDEST PUSH1 0x20 DUP3 LT DUP2 SUB PUSH3 0x1AF JUMPI PUSH4 0x4E487B71 PUSH1 0xE0 SHL PUSH1 0x0 MSTORE PUSH1 0x22 PUSH1 0x4 MSTORE PUSH1 0x24 PUSH1 0x0 REVERT JUMPDEST POP SWAP2 SWAP1 POP JUMP JUMPDEST PUSH1 0x1F DUP3 GT ISZERO PUSH3 0x15E JUMPI PUSH1 0x0 DUP2 DUP2 MSTORE PUSH1 0x20 DUP2 KECCAK256 PUSH1 0x1F DUP6 ADD PUSH1 0x5 SHR DUP2 ADD PUSH1 0x20 DUP7 LT ISZERO PUSH3 0x1DE JUMPI POP DUP1 JUMPDEST PUSH1 0x1F DUP6 ADD PUSH1 0x5 SHR DUP3 ADD SWAP2 POP JUMPDEST DUP2 DUP2 LT ISZERO PUSH3 0x1FF JUMPI DUP3 DUP2 SSTORE PUSH1 0x1 ADD PUSH3 0x1EA JUMP JUMPDEST POP POP POP POP POP POP JUMP JUMPDEST DUP2 MLOAD PUSH1 0x1 PUSH1 0x1 PUSH1 0x40 SHL SUB DUP2 GT ISZERO PUSH3 0x223 JUMPI PUSH3 0x223 PUSH3 0x163 JUMP JUMPDEST PUSH3 0x23B DUP2 PUSH3 0x234 DUP5 SLOAD PUSH3 0x179 JUMP JUMPDEST DUP5 PUSH3 0x1B5 JUMP JUMPDEST PUSH1 0x20 DUP1 PUSH1 0x1F DUP4 GT PUSH1 0x1 DUP2 EQ PUSH3 0x273 JUMPI PUSH1 0x0 DUP5 ISZERO PUSH3 0x25A JUMPI POP DUP6 DUP4 ADD MLOAD JUMPDEST PUSH1 0x0 NOT PUSH1 0x3 DUP7 SWAP1 SHL SHR NOT AND PUSH1 0x1 DUP6 SWAP1 SHL OR DUP6 SSTORE PUSH3 0x1FF JUMP JUMPDEST PUSH1 0x0 DUP6 DUP2 MSTORE PUSH1 0x20 DUP2 KECCAK256 PUSH1 0x1F NOT DUP7 AND SWAP2 JUMPDEST DUP3 DUP2 LT ISZERO PUSH3 0x2A4 JUMPI DUP9 DUP7 ADD MLOAD DUP3 SSTORE SWAP5 DUP5 ADD SWAP5 PUSH1 0x1 SWAP1 SWAP2 ADD SWAP1 DUP5 ADD PUSH3 0x283 JUMP JUMPDEST POP DUP6 DUP3 LT ISZERO PUSH3 0x2C3 JUMPI DUP8 DUP6 ADD MLOAD PUSH1 0x0 NOT PUSH1 0x3 DUP9 SWAP1 SHL PUSH1 0xF8 AND SHR NOT AND DUP2 SSTORE JUMPDEST POP POP POP POP POP PUSH1 0x1 SWAP1 DUP2 SHL ADD SWAP1 SSTORE POP JUMP JUMPDEST PUSH1 0x0 DUP3 PUSH3 0x2F1 JUMPI PUSH4 0x4E487B71 PUSH1 0xE0 SHL PUSH1 0x0 MSTORE PUSH1 0x12 PUSH1 0x4 MSTORE PUSH1 0x24 PUSH1 0x0 REVERT JUMPDEST POP DIV SWAP1 JUMP JUMPDEST DUP1 DUP3 ADD DUP1 DUP3 GT ISZERO PUSH3 0x318 JUMPI PUSH4 0x4E487B71 PUSH1 0xE0 SHL PUSH1 0x0 MSTORE PUSH1 0x11 PUSH1 0x4 MSTORE PUSH1 0x24 PUSH1 0x0 REVERT JUMPDEST SWAP3 SWAP2 POP POP JUMP JUMPDEST PUSH2 0xC70 DUP1 PUSH3 0x32E PUSH1 0x0 CODECOPY PUSH1 0x0 RETURN INVALID PUSH1 0x80 PUSH1 0x40 MSTORE CALLVALUE DUP1 ISZERO PUSH2 0x10 JUMPI PUSH1 0x0 DUP1 REVERT JUMPDEST POP PUSH1 0x4 CALLDATASIZE LT PUSH2 0x116 JUMPI PUSH1 0x0 CALLDATALOAD PUSH1 0xE0 SHR DUP1 PUSH4 0x70A08231 GT PUSH2 0xA2 JUMPI DUP1 PUSH4 0x9DC29FAC GT PUSH2 0x71 JUMPI DUP1 PUSH4 0x9DC29FAC EQ PUSH2 0x250 JUMPI DUP1 PUSH4 0xA457C2D7 EQ PUSH2 0x263 JUMPI DUP1 PUSH4 0xA9059CBB EQ PUSH2 0x276 JUMPI DUP1 PUSH4 0xACE28FA5 EQ PUSH2 0x289 JUMPI DUP1 PUSH4 0xDD62ED3E EQ PUSH2 0x296 JUMPI PUSH1 0x0 DUP1 REVERT JUMPDEST DUP1 PUSH4 0x70A08231 EQ PUSH2 0x1E8 JUMPI DUP1 PUSH4 0x79CC6790 EQ PUSH2 0x211 JUMPI DUP1 PUSH4 0x7A1395AA EQ PUSH2 0x224 JUMPI DUP1 PUSH4 0x95D89B41 EQ PUSH2 0x248 JUMPI PUSH1 0x0 DUP1 REVERT JUMPDEST DUP1 PUSH4 0x313CE567 GT PUSH2 0xE9 JUMPI DUP1 PUSH4 0x313CE567 EQ PUSH2 0x181 JUMPI DUP1 PUSH4 0x39509351 EQ PUSH2 0x19A JUMPI DUP1 PUSH4 0x40C10F19 EQ PUSH2 0x1AD JUMPI DUP1 PUSH4 0x42966C68 EQ PUSH2 0x1C2 JUMPI DUP1 PUSH4 0x5C2F5E26 EQ PUSH2 0x1D5 JUMPI PUSH1 0x0 DUP1 REVERT JUMPDEST DUP1 PUSH4 0x6FDDE03 EQ PUSH2 0x11B JUMPI DUP1 PUSH4 0x95EA7B3 EQ PUSH2 0x139 JUMPI DUP1 PUSH4 0x18160DDD EQ PUSH2 0x15C JUMPI DUP1 PUSH4 0x23B872DD EQ PUSH2 0x16E JUMPI JUMPDEST PUSH1 0x0 DUP1 REVERT JUMPDEST PUSH2 0x123 PUSH2 0x2A9 JUMP JUMPDEST PUSH1 0x40 MLOAD PUSH2 0x130 SWAP2 SWAP1 PUSH2 0xA4E JUMP JUMPDEST PUSH1 0x40 MLOAD DUP1 SWAP2 SUB SWAP1 RETURN JUMPDEST PUSH2 0x14C PUSH2 0x147 CALLDATASIZE PUSH1 0x4 PUSH2 0xAB8 JUMP JUMPDEST PUSH2 0x33B JUMP JUMPDEST PUSH1 0x40 MLOAD SWAP1 ISZERO ISZERO DUP2 MSTORE PUSH1 0x20 ADD PUSH2 0x130 JUMP JUMPDEST PUSH1 0x2 SLOAD JUMPDEST PUSH1 0x40 MLOAD SWAP1 DUP2 MSTORE PUSH1 0x20 ADD PUSH2 0x130 JUMP JUMPDEST PUSH2 0x14C PUSH2 0x17C CALLDATASIZE PUSH1 0x4 PUSH2 0xAE2 JUMP JUMPDEST PUSH2 0x355 JUMP JUMPDEST PUSH1 0x5 SLOAD PUSH1 0xFF AND JUMPDEST PUSH1 0x40 MLOAD PUSH1 0xFF SWAP1 SWAP2 AND DUP2 MSTORE PUSH1 0x20 ADD PUSH2 0x130 JUMP JUMPDEST PUSH2 0x14C PUSH2 0x1A8 CALLDATASIZE PUSH1 0x4 PUSH2 0xAB8 JUMP JUMPDEST PUSH2 0x379 JUMP JUMPDEST PUSH2 0x1C0 PUSH2 0x1BB CALLDATASIZE PUSH1 0x4 PUSH2 0xAB8 JUMP JUMPDEST PUSH2 0x39B JUMP JUMPDEST STOP JUMPDEST PUSH2 0x1C0 PUSH2 0x1D0 CALLDATASIZE PUSH1 0x4 PUSH2 0xB1E JUMP JUMPDEST PUSH2 0x3A9 JUMP JUMPDEST PUSH2 0x1C0 PUSH2 0x1E3 CALLDATASIZE PUSH1 0x4 PUSH2 0xB37 JUMP JUMPDEST PUSH2 0x3B6 JUMP JUMPDEST PUSH2 0x160 PUSH2 0x1F6 CALLDATASIZE PUSH1 0x4 PUSH2 0xB58 JUMP JUMPDEST PUSH1 0x1 PUSH1 0x1 PUSH1 0xA0 SHL SUB AND PUSH1 0x0 SWAP1 DUP2 MSTORE PUSH1 0x20 DUP2 SWAP1 MSTORE PUSH1 0x40 SWAP1 KECCAK256 SLOAD SWAP1 JUMP JUMPDEST PUSH2 0x1C0 PUSH2 0x21F CALLDATASIZE PUSH1 0x4 PUSH2 0xAB8 JUMP JUMPDEST PUSH2 0x3DF JUMP JUMPDEST PUSH2 0x1C0 PUSH2 0x232 CALLDATASIZE PUSH1 0x4 PUSH2 0xB73 JUMP JUMPDEST PUSH1 0x5 DUP1 SLOAD PUSH1 0xFF NOT AND PUSH1 0xFF SWAP3 SWAP1 SWAP3 AND SWAP2 SWAP1 SWAP2 OR SWAP1 SSTORE JUMP JUMPDEST PUSH2 0x123 PUSH2 0x3F4 JUMP JUMPDEST PUSH2 0x1C0 PUSH2 0x25E CALLDATASIZE PUSH1 0x4 PUSH2 0xAB8 JUMP JUMPDEST PUSH2 0x3EA JUMP JUMPDEST PUSH2 0x14C PUSH2 0x271 CALLDATASIZE PUSH1 0x4 PUSH2 0xAB8 JUMP JUMPDEST PUSH2 0x403 JUMP JUMPDEST PUSH2 0x14C PUSH2 0x284 CALLDATASIZE PUSH1 0x4 PUSH2 0xAB8 JUMP JUMPDEST PUSH2 0x483 JUMP JUMPDEST PUSH1 0x5 SLOAD PUSH2 0x188 SWAP1 PUSH1 0xFF AND DUP2 JUMP JUMPDEST PUSH2 0x160 PUSH2 0x2A4 CALLDATASIZE PUSH1 0x4 PUSH2 0xB96 JUMP JUMPDEST PUSH2 0x4E9 JUMP JUMPDEST PUSH1 0x60 PUSH1 0x3 DUP1 SLOAD PUSH2 0x2B8 SWAP1 PUSH2 0xBC9 JUMP JUMPDEST DUP1 PUSH1 0x1F ADD PUSH1 0x20 DUP1 SWAP2 DIV MUL PUSH1 0x20 ADD PUSH1 0x40 MLOAD SWAP1 DUP2 ADD PUSH1 0x40 MSTORE DUP1 SWAP3 SWAP2 SWAP1 DUP2 DUP2 MSTORE PUSH1 0x20 ADD DUP3 DUP1 SLOAD PUSH2 0x2E4 SWAP1 PUSH2 0xBC9 JUMP JUMPDEST DUP1 ISZERO PUSH2 0x331 JUMPI DUP1 PUSH1 0x1F LT PUSH2 0x306 JUMPI PUSH2 0x100 DUP1 DUP4 SLOAD DIV MUL DUP4 MSTORE SWAP2 PUSH1 0x20 ADD SWAP2 PUSH2 0x331 JUMP JUMPDEST DUP3 ADD SWAP2 SWAP1 PUSH1 0x0 MSTORE PUSH1 0x20 PUSH1 0x0 KECCAK256 SWAP1 JUMPDEST DUP2 SLOAD DUP2 MSTORE SWAP1 PUSH1 0x1 ADD SWAP1 PUSH1 0x20 ADD DUP1 DUP4 GT PUSH2 0x314 JUMPI DUP3 SWAP1 SUB PUSH1 0x1F AND DUP3 ADD SWAP2 JUMPDEST POP POP POP POP POP SWAP1 POP SWAP1 JUMP JUMPDEST PUSH1 0x0 CALLER PUSH2 0x349 DUP2 DUP6 DUP6 PUSH2 0x514 JUMP JUMPDEST PUSH1 0x1 SWAP2 POP POP JUMPDEST SWAP3 SWAP2 POP POP JUMP JUMPDEST PUSH1 0x0 CALLER PUSH2 0x363 DUP6 DUP3 DUP6 PUSH2 0x639 JUMP JUMPDEST PUSH2 0x36E DUP6 DUP6 DUP6 PUSH2 0x6B3 JUMP JUMPDEST POP PUSH1 0x1 SWAP5 SWAP4 POP POP POP POP JUMP JUMPDEST PUSH1 0x0 CALLER PUSH2 0x349 DUP2 DUP6 DUP6 PUSH2 0x38C DUP4 DUP4 PUSH2 0x4E9 JUMP JUMPDEST PUSH2 0x396 SWAP2 SWAP1 PUSH2 0xC03 JUMP JUMPDEST PUSH2 0x514 JUMP JUMPDEST PUSH2 0x3A5 DUP3 DUP3 PUSH2 0x857 JUMP JUMPDEST POP POP JUMP JUMPDEST PUSH2 0x3B3 CALLER DUP3 PUSH2 0x916 JUMP JUMPDEST POP JUMP JUMPDEST PUSH1 0x5 DUP1 SLOAD DUP3 SWAP2 SWAP1 PUSH2 0xFF00 NOT AND PUSH2 0x100 DUP4 PUSH1 0x2 DUP2 GT ISZERO PUSH2 0x3D7 JUMPI PUSH2 0x3D7 PUSH2 0xC24 JUMP JUMPDEST MUL OR SWAP1 SSTORE POP POP JUMP JUMPDEST PUSH2 0x3EA DUP3 CALLER DUP4 PUSH2 0x639 JUMP JUMPDEST PUSH2 0x3A5 DUP3 DUP3 PUSH2 0x916 JUMP JUMPDEST PUSH1 0x60 PUSH1 0x4 DUP1 SLOAD PUSH2 0x2B8 SWAP1 PUSH2 0xBC9 JUMP JUMPDEST PUSH1 0x0 CALLER DUP2 PUSH2 0x411 DUP3 DUP7 PUSH2 0x4E9 JUMP JUMPDEST SWAP1 POP DUP4 DUP2 LT ISZERO PUSH2 0x476 JUMPI PUSH1 0x40 MLOAD PUSH3 0x461BCD PUSH1 0xE5 SHL DUP2 MSTORE PUSH1 0x20 PUSH1 0x4 DUP3 ADD MSTORE PUSH1 0x25 PUSH1 0x24 DUP3 ADD MSTORE PUSH32 0x45524332303A2064656372656173656420616C6C6F77616E63652062656C6F77 PUSH1 0x44 DUP3 ADD MSTORE PUSH5 0x207A65726F PUSH1 0xD8 SHL PUSH1 0x64 DUP3 ADD MSTORE PUSH1 0x84 ADD JUMPDEST PUSH1 0x40 MLOAD DUP1 SWAP2 SUB SWAP1 REVERT JUMPDEST PUSH2 0x36E DUP3 DUP7 DUP7 DUP5 SUB PUSH2 0x514 JUMP JUMPDEST PUSH1 0x0 PUSH1 0x1 PUSH1 0x5 SLOAD PUSH2 0x100 SWAP1 DIV PUSH1 0xFF AND PUSH1 0x2 DUP2 GT ISZERO PUSH2 0x4A3 JUMPI PUSH2 0x4A3 PUSH2 0xC24 JUMP JUMPDEST SUB PUSH2 0x4B0 JUMPI POP PUSH1 0x0 PUSH2 0x34F JUMP JUMPDEST PUSH1 0x2 PUSH1 0x5 SLOAD PUSH2 0x100 SWAP1 DIV PUSH1 0xFF AND PUSH1 0x2 DUP2 GT ISZERO PUSH2 0x4CE JUMPI PUSH2 0x4CE PUSH2 0xC24 JUMP JUMPDEST SUB PUSH2 0x4D8 JUMPI PUSH1 0x0 DUP1 REVERT JUMPDEST PUSH2 0x4E2 DUP4 DUP4 PUSH2 0xA40 JUMP JUMPDEST SWAP4 SWAP3 POP POP POP JUMP JUMPDEST PUSH1 0x1 PUSH1 0x1 PUSH1 0xA0 SHL SUB SWAP2 DUP3 AND PUSH1 0x0 SWAP1 DUP2 MSTORE PUSH1 0x1 PUSH1 0x20 SWAP1 DUP2 MSTORE PUSH1 0x40 DUP1 DUP4 KECCAK256 SWAP4 SWAP1 SWAP5 AND DUP3 MSTORE SWAP2 SWAP1 SWAP2 MSTORE KECCAK256 SLOAD SWAP1 JUMP JUMPDEST PUSH1 0x1 PUSH1 0x1 PUSH1 0xA0 SHL SUB DUP4 AND PUSH2 0x576 JUMPI PUSH1 0x40 MLOAD PUSH3 0x461BCD PUSH1 0xE5 SHL DUP2 MSTORE PUSH1 0x20 PUSH1 0x4 DUP3 ADD MSTORE PUSH1 0x24 DUP1 DUP3 ADD MSTORE PUSH32 0x45524332303A20617070726F76652066726F6D20746865207A65726F20616464 PUSH1 0x44 DUP3 ADD MSTORE PUSH4 0x72657373 PUSH1 0xE0 SHL PUSH1 0x64 DUP3 ADD MSTORE PUSH1 0x84 ADD PUSH2 0x46D JUMP JUMPDEST PUSH1 0x1 PUSH1 0x1 PUSH1 0xA0 SHL SUB DUP3 AND PUSH2 0x5D7 JUMPI PUSH1 0x40 MLOAD PUSH3 0x461BCD PUSH1 0xE5 SHL DUP2 MSTORE PUSH1 0x20 PUSH1 0x4 DUP3 ADD MSTORE PUSH1 0x22 PUSH1 0x24 DUP3 ADD MSTORE PUSH32 0x45524332303A20617070726F766520746F20746865207A65726F206164647265 PUSH1 0x44 DUP3 ADD MSTORE PUSH2 0x7373 PUSH1 0xF0 SHL PUSH1 0x64 DUP3 ADD MSTORE PUSH1 0x84 ADD PUSH2 0x46D JUMP JUMPDEST PUSH1 0x1 PUSH1 0x1 PUSH1 0xA0 SHL SUB DUP4 DUP2 AND PUSH1 0x0 DUP2 DUP2 MSTORE PUSH1 0x1 PUSH1 0x20 SWAP1 DUP2 MSTORE PUSH1 0x40 DUP1 DUP4 KECCAK256 SWAP5 DUP8 AND DUP1 DUP5 MSTORE SWAP5 DUP3 MSTORE SWAP2 DUP3 SWAP1 KECCAK256 DUP6 SWAP1 SSTORE SWAP1 MLOAD DUP5 DUP2 MSTORE PUSH32 0x8C5BE1E5EBEC7D5BD14F71427D1E84F3DD0314C0F7B2291E5B200AC8C7C3B925 SWAP2 ADD JUMPDEST PUSH1 0x40 MLOAD DUP1 SWAP2 SUB SWAP1 LOG3 POP POP POP JUMP JUMPDEST PUSH1 0x0 PUSH2 0x645 DUP5 DUP5 PUSH2 0x4E9 JUMP JUMPDEST SWAP1 POP PUSH1 0x0 NOT DUP2 EQ PUSH2 0x6AD JUMPI DUP2 DUP2 LT ISZERO PUSH2 0x6A0 JUMPI PUSH1 0x40 MLOAD PUSH3 0x461BCD PUSH1 0xE5 SHL DUP2 MSTORE PUSH1 0x20 PUSH1 0x4 DUP3 ADD MSTORE PUSH1 0x1D PUSH1 0x24 DUP3 ADD MSTORE PUSH32 0x45524332303A20696E73756666696369656E7420616C6C6F77616E6365000000 PUSH1 0x44 DUP3 ADD MSTORE PUSH1 0x64 ADD PUSH2 0x46D JUMP JUMPDEST PUSH2 0x6AD DUP5 DUP5 DUP5 DUP5 SUB PUSH2 0x514 JUMP JUMPDEST POP POP POP POP JUMP JUMPDEST PUSH1 0x1 PUSH1 0x1 PUSH1 0xA0 SHL SUB DUP4 AND PUSH2 0x717 JUMPI PUSH1 0x40 MLOAD PUSH3 0x461BCD PUSH1 0xE5 SHL DUP2 MSTORE PUSH1 0x20 PUSH1 0x4 DUP3 ADD MSTORE PUSH1 0x25 PUSH1 0x24 DUP3 ADD MSTORE PUSH32 0x45524332303A207472616E736665722066726F6D20746865207A65726F206164 PUSH1 0x44 DUP3 ADD MSTORE PUSH5 0x6472657373 PUSH1 0xD8 SHL PUSH1 0x64 DUP3 ADD MSTORE PUSH1 0x84 ADD PUSH2 0x46D JUMP JUMPDEST PUSH1 0x1 PUSH1 0x1 PUSH1 0xA0 SHL SUB DUP3 AND PUSH2 0x779 JUMPI PUSH1 0x40 MLOAD PUSH3 0x461BCD PUSH1 0xE5 SHL DUP2 MSTORE PUSH1 0x20 PUSH1 0x4 DUP3 ADD MSTORE PUSH1 0x23 PUSH1 0x24 DUP3 ADD MSTORE PUSH32 0x45524332303A207472616E7366657220746F20746865207A65726F2061646472 PUSH1 0x44 DUP3 ADD MSTORE PUSH3 0x657373 PUSH1 0xE8 SHL PUSH1 0x64 DUP3 ADD MSTORE PUSH1 0x84 ADD PUSH2 0x46D JUMP JUMPDEST PUSH1 0x1 PUSH1 0x1 PUSH1 0xA0 SHL SUB DUP4 AND PUSH1 0x0 SWAP1 DUP2 MSTORE PUSH1 0x20 DUP2 SWAP1 MSTORE PUSH1 0x40 SWAP1 KECCAK256 SLOAD DUP2 DUP2 LT ISZERO PUSH2 0x7F1 JUMPI PUSH1 0x40 MLOAD PUSH3 0x461BCD PUSH1 0xE5 SHL DUP2 MSTORE PUSH1 0x20 PUSH1 0x4 DUP3 ADD MSTORE PUSH1 0x26 PUSH1 0x24 DUP3 ADD MSTORE PUSH32 0x45524332303A207472616E7366657220616D6F756E7420657863656564732062 PUSH1 0x44 DUP3 ADD MSTORE PUSH6 0x616C616E6365 PUSH1 0xD0 SHL PUSH1 0x64 DUP3 ADD MSTORE PUSH1 0x84 ADD PUSH2 0x46D JUMP JUMPDEST PUSH1 0x1 PUSH1 0x1 PUSH1 0xA0 SHL SUB DUP5 DUP2 AND PUSH1 0x0 DUP2 DUP2 MSTORE PUSH1 0x20 DUP2 DUP2 MSTORE PUSH1 0x40 DUP1 DUP4 KECCAK256 DUP8 DUP8 SUB SWAP1 SSTORE SWAP4 DUP8 AND DUP1 DUP4 MSTORE SWAP2 DUP5 SWAP1 KECCAK256 DUP1 SLOAD DUP8 ADD SWAP1 SSTORE SWAP3 MLOAD DUP6 DUP2 MSTORE SWAP1 SWAP3 PUSH32 0xDDF252AD1BE2C89B69C2B068FC378DAA952BA7F163C4A11628F55A4DF523B3EF SWAP2 ADD PUSH1 0x40 MLOAD DUP1 SWAP2 SUB SWAP1 LOG3 PUSH2 0x6AD JUMP JUMPDEST PUSH1 0x1 PUSH1 0x1 PUSH1 0xA0 SHL SUB DUP3 AND PUSH2 0x8AD JUMPI PUSH1 0x40 MLOAD PUSH3 0x461BCD PUSH1 0xE5 SHL DUP2 MSTORE PUSH1 0x20 PUSH1 0x4 DUP3 ADD MSTORE PUSH1 0x1F PUSH1 0x24 DUP3 ADD MSTORE PUSH32 0x45524332303A206D696E7420746F20746865207A65726F206164647265737300 PUSH1 0x44 DUP3 ADD MSTORE PUSH1 0x64 ADD PUSH2 0x46D JUMP JUMPDEST DUP1 PUSH1 0x2 PUSH1 0x0 DUP3 DUP3 SLOAD PUSH2 0x8BF SWAP2 SWAP1 PUSH2 0xC03 JUMP JUMPDEST SWAP1 SWAP2 SSTORE POP POP PUSH1 0x1 PUSH1 0x1 PUSH1 0xA0 SHL SUB DUP3 AND PUSH1 0x0 DUP2 DUP2 MSTORE PUSH1 0x20 DUP2 DUP2 MSTORE PUSH1 0x40 DUP1 DUP4 KECCAK256 DUP1 SLOAD DUP7 ADD SWAP1 SSTORE MLOAD DUP5 DUP2 MSTORE PUSH32 0xDDF252AD1BE2C89B69C2B068FC378DAA952BA7F163C4A11628F55A4DF523B3EF SWAP2 ADD PUSH1 0x40 MLOAD DUP1 SWAP2 SUB SWAP1 LOG3 POP POP JUMP JUMPDEST PUSH1 0x1 PUSH1 0x1 PUSH1 0xA0 SHL SUB DUP3 AND PUSH2 0x976 JUMPI PUSH1 0x40 MLOAD PUSH3 0x461BCD PUSH1 0xE5 SHL DUP2 MSTORE PUSH1 0x20 PUSH1 0x4 DUP3 ADD MSTORE PUSH1 0x21 PUSH1 0x24 DUP3 ADD MSTORE PUSH32 0x45524332303A206275726E2066726F6D20746865207A65726F20616464726573 PUSH1 0x44 DUP3 ADD MSTORE PUSH1 0x73 PUSH1 0xF8 SHL PUSH1 0x64 DUP3 ADD MSTORE PUSH1 0x84 ADD PUSH2 0x46D JUMP JUMPDEST PUSH1 0x1 PUSH1 0x1 PUSH1 0xA0 SHL SUB DUP3 AND PUSH1 0x0 SWAP1 DUP2 MSTORE PUSH1 0x20 DUP2 SWAP1 MSTORE PUSH1 0x40 SWAP1 KECCAK256 SLOAD DUP2 DUP2 LT ISZERO PUSH2 0x9EA JUMPI PUSH1 0x40 MLOAD PUSH3 0x461BCD PUSH1 0xE5 SHL DUP2 MSTORE PUSH1 0x20 PUSH1 0x4 DUP3 ADD MSTORE PUSH1 0x22 PUSH1 0x24 DUP3 ADD MSTORE PUSH32 0x45524332303A206275726E20616D6F756E7420657863656564732062616C616E PUSH1 0x44 DUP3 ADD MSTORE PUSH2 0x6365 PUSH1 0xF0 SHL PUSH1 0x64 DUP3 ADD MSTORE PUSH1 0x84 ADD PUSH2 0x46D JUMP JUMPDEST PUSH1 0x1 PUSH1 0x1 PUSH1 0xA0 SHL SUB DUP4 AND PUSH1 0x0 DUP2 DUP2 MSTORE PUSH1 0x20 DUP2 DUP2 MSTORE PUSH1 0x40 DUP1 DUP4 KECCAK256 DUP7 DUP7 SUB SWAP1 SSTORE PUSH1 0x2 DUP1 SLOAD DUP8 SWAP1 SUB SWAP1 SSTORE MLOAD DUP6 DUP2 MSTORE SWAP2 SWAP3 SWAP2 PUSH32 0xDDF252AD1BE2C89B69C2B068FC378DAA952BA7F163C4A11628F55A4DF523B3EF SWAP2 ADD PUSH2 0x62C JUMP JUMPDEST PUSH1 0x0 CALLER PUSH2 0x349 DUP2 DUP6 DUP6 PUSH2 0x6B3 JUMP JUMPDEST PUSH1 0x0 PUSH1 0x20 DUP1 DUP4 MSTORE DUP4 MLOAD DUP1 DUP3 DUP6 ADD MSTORE PUSH1 0x0 JUMPDEST DUP2 DUP2 LT ISZERO PUSH2 0xA7B JUMPI DUP6 DUP2 ADD DUP4 ADD MLOAD DUP6 DUP3 ADD PUSH1 0x40 ADD MSTORE DUP3 ADD PUSH2 0xA5F JUMP JUMPDEST POP PUSH1 0x0 PUSH1 0x40 DUP3 DUP7 ADD ADD MSTORE PUSH1 0x40 PUSH1 0x1F NOT PUSH1 0x1F DUP4 ADD AND DUP6 ADD ADD SWAP3 POP POP POP SWAP3 SWAP2 POP POP JUMP JUMPDEST DUP1 CALLDATALOAD PUSH1 0x1 PUSH1 0x1 PUSH1 0xA0 SHL SUB DUP2 AND DUP2 EQ PUSH2 0xAB3 JUMPI PUSH1 0x0 DUP1 REVERT JUMPDEST SWAP2 SWAP1 POP JUMP JUMPDEST PUSH1 0x0 DUP1 PUSH1 0x40 DUP4 DUP6 SUB SLT ISZERO PUSH2 0xACB JUMPI PUSH1 0x0 DUP1 REVERT JUMPDEST PUSH2 0xAD4 DUP4 PUSH2 0xA9C JUMP JUMPDEST SWAP5 PUSH1 0x20 SWAP4 SWAP1 SWAP4 ADD CALLDATALOAD SWAP4 POP POP POP JUMP JUMPDEST PUSH1 0x0 DUP1 PUSH1 0x0 PUSH1 0x60 DUP5 DUP7 SUB SLT ISZERO PUSH2 0xAF7 JUMPI PUSH1 0x0 DUP1 REVERT JUMPDEST PUSH2 0xB00 DUP5 PUSH2 0xA9C JUMP JUMPDEST SWAP3 POP PUSH2 0xB0E PUSH1 0x20 DUP6 ADD PUSH2 0xA9C JUMP JUMPDEST SWAP2 POP PUSH1 0x40 DUP5 ADD CALLDATALOAD SWAP1 POP SWAP3 POP SWAP3 POP SWAP3 JUMP JUMPDEST PUSH1 0x0 PUSH1 0x20 DUP3 DUP5 SUB SLT ISZERO PUSH2 0xB30 JUMPI PUSH1 0x0 DUP1 REVERT JUMPDEST POP CALLDATALOAD SWAP2 SWAP1 POP JUMP JUMPDEST PUSH1 0x0 PUSH1 0x20 DUP3 DUP5 SUB SLT ISZERO PUSH2 0xB49 JUMPI PUSH1 0x0 DUP1 REVERT JUMPDEST DUP2 CALLDATALOAD PUSH1 0x3 DUP2 LT PUSH2 0x4E2 JUMPI PUSH1 0x0 DUP1 REVERT JUMPDEST PUSH1 0x0 PUSH1 0x20 DUP3 DUP5 SUB SLT ISZERO PUSH2 0xB6A JUMPI PUSH1 0x0 DUP1 REVERT JUMPDEST PUSH2 0x4E2 DUP3 PUSH2 0xA9C JUMP JUMPDEST PUSH1 0x0 PUSH1 0x20 DUP3 DUP5 SUB SLT ISZERO PUSH2 0xB85 JUMPI PUSH1 0x0 DUP1 REVERT JUMPDEST DUP2 CALLDATALOAD PUSH1 0xFF DUP2 AND DUP2 EQ PUSH2 0x4E2 JUMPI PUSH1 0x0 DUP1 REVERT JUMPDEST PUSH1 0x0 DUP1 PUSH1 0x40 DUP4 DUP6 SUB SLT ISZERO PUSH2 0xBA9 JUMPI PUSH1 0x0 DUP1 REVERT JUMPDEST PUSH2 0xBB2 DUP4 PUSH2 0xA9C JUMP JUMPDEST SWAP2 POP PUSH2 0xBC0 PUSH1 0x20 DUP5 ADD PUSH2 0xA9C JUMP JUMPDEST SWAP1 POP SWAP3 POP SWAP3 SWAP1 POP JUMP JUMPDEST PUSH1 0x1 DUP2 DUP2 SHR SWAP1 DUP3 AND DUP1 PUSH2 0xBDD JUMPI PUSH1 0x7F DUP3 AND SWAP2 POP JUMPDEST PUSH1 0x20 DUP3 LT DUP2 SUB PUSH2 0xBFD JUMPI PUSH4 0x4E487B71 PUSH1 0xE0 SHL PUSH1 0x0 MSTORE PUSH1 0x22 PUSH1 0x4 MSTORE PUSH1 0x24 PUSH1 0x0 REVERT JUMPDEST POP SWAP2 SWAP1 POP JUMP JUMPDEST DUP1 DUP3 ADD DUP1 DUP3 GT ISZERO PUSH2 0x34F JUMPI PUSH4 0x4E487B71 PUSH1 0xE0 SHL PUSH1 0x0 MSTORE PUSH1 0x11 PUSH1 0x4 MSTORE PUSH1 0x24 PUSH1 0x0 REVERT JUMPDEST PUSH4 0x4E487B71 PUSH1 0xE0 SHL PUSH1 0x0 MSTORE PUSH1 0x21 PUSH1 0x4 MSTORE PUSH1 0x24 PUSH1 0x0 REVERT INVALID LOG2 PUSH5 0x6970667358 0x22 SLT KECCAK256 0xF9 PUSH24 0xE1A865FE9881031897D86D1DEFA0FECDE290BD84E65AE676 DIFFICULTY 0xDA PUSH9 0x57742964736F6C6343 STOP ADDMOD GT STOP CALLER PUSH1 0x80 PUSH1 0x40 MSTORE CALLVALUE DUP1 ISZERO PUSH2 0x10 JUMPI PUSH1 0x0 DUP1 REVERT JUMPDEST POP PUSH1 0x40 MLOAD PUSH2 0x43C CODESIZE SUB DUP1 PUSH2 0x43C DUP4 CODECOPY DUP2 ADD PUSH1 0x40 DUP2 SWAP1 MSTORE PUSH2 0x2F SWAP2 PUSH2 0x61 JUMP JUMPDEST PUSH1 0x0 DUP1 SLOAD PUSH1 0xFF SWAP1 SWAP3 AND PUSH1 0x1 PUSH1 0xA0 SHL MUL PUSH1 0x1 PUSH1 0x1 PUSH1 0xA8 SHL SUB NOT SWAP1 SWAP3 AND PUSH1 0x1 PUSH1 0x1 PUSH1 0xA0 SHL SUB SWAP1 SWAP4 AND SWAP3 SWAP1 SWAP3 OR OR SWAP1 SSTORE PUSH2 0xAE JUMP JUMPDEST PUSH1 0x0 DUP1 PUSH1 0x40 DUP4 DUP6 SUB SLT ISZERO PUSH2 0x74 JUMPI PUSH1 0x0 DUP1 REVERT JUMPDEST DUP3 MLOAD PUSH1 0x1 PUSH1 0x1 PUSH1 0xA0 SHL SUB DUP2 AND DUP2 EQ PUSH2 0x8B JUMPI PUSH1 0x0 DUP1 REVERT JUMPDEST DUP1 SWAP3 POP POP PUSH1 0x20 DUP4 ADD MLOAD DUP1 PUSH1 0x0 SIGNEXTEND DUP2 EQ PUSH2 0xA3 JUMPI PUSH1 0x0 DUP1 REVERT JUMPDEST DUP1 SWAP2 POP POP SWAP3 POP SWAP3 SWAP1 POP JUMP JUMPDEST PUSH2 0x37F DUP1 PUSH2 0xBD PUSH1 0x0 CODECOPY PUSH1 0x0 RETURN INVALID PUSH1 0x80 PUSH1 0x40 MSTORE CALLVALUE DUP1 ISZERO PUSH2 0x10 JUMPI PUSH1 0x0 DUP1 REVERT JUMPDEST POP PUSH1 0x4 CALLDATASIZE LT PUSH2 0x41 JUMPI PUSH1 0x0 CALLDATALOAD PUSH1 0xE0 SHR DUP1 PUSH4 0x12FC41CA EQ PUSH2 0x46 JUMPI DUP1 PUSH4 0x59E02DD7 EQ PUSH2 0x73 JUMPI DUP1 PUSH4 0xB888879E EQ PUSH2 0x90 JUMPI JUMPDEST PUSH1 0x0 DUP1 REVERT JUMPDEST PUSH1 0x0 DUP1 SLOAD PUSH2 0x5B SWAP2 PUSH1 0x1 PUSH1 0xA0 SHL SWAP1 SWAP2 DIV SWAP1 SIGNEXTEND DUP2 JUMP JUMPDEST PUSH1 0x40 MLOAD PUSH1 0x0 SWAP2 SWAP1 SWAP2 SIGNEXTEND DUP2 MSTORE PUSH1 0x20 ADD JUMPDEST PUSH1 0x40 MLOAD DUP1 SWAP2 SUB SWAP1 RETURN JUMPDEST PUSH2 0x7B PUSH2 0xBB JUMP JUMPDEST PUSH1 0x40 DUP1 MLOAD SWAP3 DUP4 MSTORE SWAP1 ISZERO ISZERO PUSH1 0x20 DUP4 ADD MSTORE ADD PUSH2 0x6A JUMP JUMPDEST PUSH1 0x0 SLOAD PUSH2 0xA3 SWAP1 PUSH1 0x1 PUSH1 0x1 PUSH1 0xA0 SHL SUB AND DUP2 JUMP JUMPDEST PUSH1 0x40 MLOAD PUSH1 0x1 PUSH1 0x1 PUSH1 0xA0 SHL SUB SWAP1 SWAP2 AND DUP2 MSTORE PUSH1 0x20 ADD PUSH2 0x6A JUMP JUMPDEST PUSH1 0x0 DUP1 SLOAD PUSH1 0x40 DUP1 MLOAD PUSH4 0x59E02DD7 PUSH1 0xE0 SHL DUP2 MSTORE DUP2 MLOAD DUP5 SWAP4 PUSH1 0x1 PUSH1 0x1 PUSH1 0xA0 SHL SUB AND SWAP3 PUSH4 0x59E02DD7 SWAP3 PUSH1 0x4 DUP1 DUP3 ADD SWAP4 SWAP2 DUP3 SWAP1 SUB ADD DUP2 DUP7 GAS STATICCALL ISZERO DUP1 ISZERO PUSH2 0x101 JUMPI RETURNDATASIZE PUSH1 0x0 DUP1 RETURNDATACOPY RETURNDATASIZE PUSH1 0x0 REVERT JUMPDEST POP POP POP POP PUSH1 0x40 MLOAD RETURNDATASIZE PUSH1 0x1F NOT PUSH1 0x1F DUP3 ADD AND DUP3 ADD DUP1 PUSH1 0x40 MSTORE POP DUP2 ADD SWAP1 PUSH2 0x125 SWAP2 SWAP1 PUSH2 0x1AB JUMP JUMPDEST PUSH1 0x0 DUP1 SLOAD SWAP3 SWAP5 POP SWAP1 SWAP3 POP PUSH1 0x1 PUSH1 0xA0 SHL SWAP1 SWAP2 DIV DUP2 SIGNEXTEND SGT ISZERO PUSH2 0x168 JUMPI PUSH1 0x0 DUP1 SLOAD PUSH2 0x158 SWAP2 PUSH1 0x1 PUSH1 0xA0 SHL SWAP1 SWAP2 DIV SWAP1 SIGNEXTEND PUSH1 0xA PUSH2 0x2DC JUMP JUMPDEST PUSH2 0x162 SWAP1 DUP4 PUSH2 0x2F2 JUMP JUMPDEST SWAP2 POP SWAP1 SWAP2 JUMP JUMPDEST PUSH1 0x0 DUP1 SLOAD PUSH1 0x1 PUSH1 0xA0 SHL SWAP1 DIV DUP2 SIGNEXTEND SLT ISZERO PUSH2 0x1A7 JUMPI PUSH1 0x0 DUP1 SLOAD PUSH2 0x192 SWAP2 PUSH1 0x1 PUSH1 0xA0 SHL SWAP1 SWAP2 DIV SWAP1 SIGNEXTEND PUSH2 0x309 JUMP JUMPDEST PUSH2 0x19D SWAP1 PUSH1 0xA PUSH2 0x2DC JUMP JUMPDEST PUSH2 0x162 SWAP1 DUP4 PUSH2 0x327 JUMP JUMPDEST SWAP1 SWAP2 JUMP JUMPDEST PUSH1 0x0 DUP1 PUSH1 0x40 DUP4 DUP6 SUB SLT ISZERO PUSH2 0x1BE JUMPI PUSH1 0x0 DUP1 REVERT JUMPDEST DUP3 MLOAD SWAP2 POP PUSH1 0x20 DUP4 ADD MLOAD DUP1 ISZERO ISZERO DUP2 EQ PUSH2 0x1D5 JUMPI PUSH1 0x0 DUP1 REVERT JUMPDEST DUP1 SWAP2 POP POP SWAP3 POP SWAP3 SWAP1 POP JUMP JUMPDEST PUSH4 0x4E487B71 PUSH1 0xE0 SHL PUSH1 0x0 MSTORE PUSH1 0x11 PUSH1 0x4 MSTORE PUSH1 0x24 PUSH1 0x0 REVERT JUMPDEST PUSH1 0x1 DUP2 DUP2 JUMPDEST DUP1 DUP6 GT ISZERO PUSH2 0x231 JUMPI DUP2 PUSH1 0x0 NOT DIV DUP3 GT ISZERO PUSH2 0x217 JUMPI PUSH2 0x217 PUSH2 0x1E0 JUMP JUMPDEST DUP1 DUP6 AND ISZERO PUSH2 0x224 JUMPI SWAP2 DUP2 MUL SWAP2 JUMPDEST SWAP4 DUP5 SHR SWAP4 SWAP1 DUP1 MUL SWAP1 PUSH2 0x1FB JUMP JUMPDEST POP SWAP3 POP SWAP3 SWAP1 POP JUMP JUMPDEST PUSH1 0x0 DUP3 PUSH2 0x248 JUMPI POP PUSH1 0x1 PUSH2 0x2D6 JUMP JUMPDEST DUP2 PUSH2 0x255 JUMPI POP PUSH1 0x0 PUSH2 0x2D6 JUMP JUMPDEST DUP2 PUSH1 0x1 DUP2 EQ PUSH2 0x26B JUMPI PUSH1 0x2 DUP2 EQ PUSH2 0x275 JUMPI PUSH2 0x291 JUMP JUMPDEST PUSH1 0x1 SWAP2 POP POP PUSH2 0x2D6 JUMP JUMPDEST PUSH1 0xFF DUP5 GT ISZERO PUSH2 0x286 JUMPI PUSH2 0x286 PUSH2 0x1E0 JUMP JUMPDEST POP POP PUSH1 0x1 DUP3 SHL PUSH2 0x2D6 JUMP JUMPDEST POP PUSH1 0x20 DUP4 LT PUSH2 0x133 DUP4 LT AND PUSH1 0x4E DUP5 LT PUSH1 0xB DUP5 LT AND OR ISZERO PUSH2 0x2B4 JUMPI POP DUP2 DUP2 EXP PUSH2 0x2D6 JUMP JUMPDEST PUSH2 0x2BE DUP4 DUP4 PUSH2 0x1F6 JUMP JUMPDEST DUP1 PUSH1 0x0 NOT DIV DUP3 GT ISZERO PUSH2 0x2D2 JUMPI PUSH2 0x2D2 PUSH2 0x1E0 JUMP JUMPDEST MUL SWAP1 POP JUMPDEST SWAP3 SWAP2 POP POP JUMP JUMPDEST PUSH1 0x0 PUSH2 0x2EB PUSH1 0xFF DUP5 AND DUP4 PUSH2 0x239 JUMP JUMPDEST SWAP4 SWAP3 POP POP POP JUMP JUMPDEST DUP1 DUP3 MUL DUP2 ISZERO DUP3 DUP3 DIV DUP5 EQ OR PUSH2 0x2D6 JUMPI PUSH2 0x2D6 PUSH2 0x1E0 JUMP JUMPDEST PUSH1 0x0 DUP2 DUP2 SIGNEXTEND PUSH1 0x80 DUP2 ADD PUSH2 0x31E JUMPI PUSH2 0x31E PUSH2 0x1E0 JUMP JUMPDEST PUSH1 0x0 SUB SWAP3 SWAP2 POP POP JUMP JUMPDEST PUSH1 0x0 DUP3 PUSH2 0x344 JUMPI PUSH4 0x4E487B71 PUSH1 0xE0 SHL PUSH1 0x0 MSTORE PUSH1 0x12 PUSH1 0x4 MSTORE PUSH1 0x24 PUSH1 0x0 REVERT JUMPDEST POP DIV SWAP1 JUMP INVALID LOG2 PUSH5 0x6970667358 0x22 SLT KECCAK256 NUMBER XOR 0xC 0xBE CODECOPY PUSH20 0x69638AF36CF919D218D540E2198FE4BCB2ED08E8 SAR 0xEE DUP12 BASEFEE ADDRESS 0xF7 PUSH5 0x736F6C6343 STOP ADDMOD GT STOP CALLER PUSH1 0x80 PUSH1 0x40 MSTORE PUSH1 0x40 MLOAD PUSH2 0x727 CODESIZE SUB DUP1 PUSH2 0x727 DUP4 CODECOPY DUP2 ADD PUSH1 0x40 DUP2 SWAP1 MSTORE PUSH2 0x22 SWAP2 PUSH2 0x319 JUMP JUMPDEST PUSH2 0x2E DUP3 DUP3 PUSH1 0x0 PUSH2 0x35 JUMP JUMPDEST POP POP PUSH2 0x436 JUMP JUMPDEST PUSH2 0x3E DUP4 PUSH2 0x6B JUMP JUMPDEST PUSH1 0x0 DUP3 MLOAD GT DUP1 PUSH2 0x4B JUMPI POP DUP1 JUMPDEST ISZERO PUSH2 0x66 JUMPI PUSH2 0x64 DUP4 DUP4 PUSH2 0xAB PUSH1 0x20 SHL PUSH2 0x29 OR PUSH1 0x20 SHR JUMP JUMPDEST POP JUMPDEST POP POP POP JUMP JUMPDEST PUSH2 0x74 DUP2 PUSH2 0xD7 JUMP JUMPDEST PUSH1 0x40 MLOAD PUSH1 0x1 PUSH1 0x1 PUSH1 0xA0 SHL SUB DUP3 AND SWAP1 PUSH32 0xBC7CD75A20EE27FD9ADEBAB32041F755214DBC6BFFA90CC0225B39DA2E5C2D3B SWAP1 PUSH1 0x0 SWAP1 LOG2 POP JUMP JUMPDEST PUSH1 0x60 PUSH2 0xD0 DUP4 DUP4 PUSH1 0x40 MLOAD DUP1 PUSH1 0x60 ADD PUSH1 0x40 MSTORE DUP1 PUSH1 0x27 DUP2 MSTORE PUSH1 0x20 ADD PUSH2 0x700 PUSH1 0x27 SWAP2 CODECOPY PUSH2 0x1A9 JUMP JUMPDEST SWAP4 SWAP3 POP POP POP JUMP JUMPDEST PUSH2 0xEA DUP2 PUSH2 0x222 PUSH1 0x20 SHL PUSH2 0x55 OR PUSH1 0x20 SHR JUMP JUMPDEST PUSH2 0x151 JUMPI PUSH1 0x40 MLOAD PUSH3 0x461BCD PUSH1 0xE5 SHL DUP2 MSTORE PUSH1 0x20 PUSH1 0x4 DUP3 ADD MSTORE PUSH1 0x2D PUSH1 0x24 DUP3 ADD MSTORE PUSH32 0x455243313936373A206E657720696D706C656D656E746174696F6E206973206E PUSH1 0x44 DUP3 ADD MSTORE PUSH13 0x1BDD08184818DBDB9D1C9858DD PUSH1 0x9A SHL PUSH1 0x64 DUP3 ADD MSTORE PUSH1 0x84 ADD JUMPDEST PUSH1 0x40 MLOAD DUP1 SWAP2 SUB SWAP1 REVERT JUMPDEST DUP1 PUSH2 0x188 PUSH32 0x360894A13BA1A3210667C828492DB98DCA3E2076CC3735A920A3CA505D382BBC PUSH1 0x0 SHL PUSH2 0x231 PUSH1 0x20 SHL PUSH2 0x64 OR PUSH1 0x20 SHR JUMP JUMPDEST DUP1 SLOAD PUSH1 0x1 PUSH1 0x1 PUSH1 0xA0 SHL SUB NOT AND PUSH1 0x1 PUSH1 0x1 PUSH1 0xA0 SHL SUB SWAP3 SWAP1 SWAP3 AND SWAP2 SWAP1 SWAP2 OR SWAP1 SSTORE POP JUMP JUMPDEST PUSH1 0x60 PUSH1 0x0 DUP1 DUP6 PUSH1 0x1 PUSH1 0x1 PUSH1 0xA0 SHL SUB AND DUP6 PUSH1 0x40 MLOAD PUSH2 0x1C6 SWAP2 SWAP1 PUSH2 0x3E7 JUMP JUMPDEST PUSH1 0x0 PUSH1 0x40 MLOAD DUP1 DUP4 SUB DUP2 DUP6 GAS DELEGATECALL SWAP2 POP POP RETURNDATASIZE DUP1 PUSH1 0x0 DUP2 EQ PUSH2 0x201 JUMPI PUSH1 0x40 MLOAD SWAP2 POP PUSH1 0x1F NOT PUSH1 0x3F RETURNDATASIZE ADD AND DUP3 ADD PUSH1 0x40 MSTORE RETURNDATASIZE DUP3 MSTORE RETURNDATASIZE PUSH1 0x0 PUSH1 0x20 DUP5 ADD RETURNDATACOPY PUSH2 0x206 JUMP JUMPDEST PUSH1 0x60 SWAP2 POP JUMPDEST POP SWAP1 SWAP3 POP SWAP1 POP PUSH2 0x218 DUP7 DUP4 DUP4 DUP8 PUSH2 0x234 JUMP JUMPDEST SWAP7 SWAP6 POP POP POP POP POP POP JUMP JUMPDEST PUSH1 0x1 PUSH1 0x1 PUSH1 0xA0 SHL SUB AND EXTCODESIZE ISZERO ISZERO SWAP1 JUMP JUMPDEST SWAP1 JUMP JUMPDEST PUSH1 0x60 DUP4 ISZERO PUSH2 0x2A3 JUMPI DUP3 MLOAD PUSH1 0x0 SUB PUSH2 0x29C JUMPI PUSH1 0x1 PUSH1 0x1 PUSH1 0xA0 SHL SUB DUP6 AND EXTCODESIZE PUSH2 0x29C JUMPI PUSH1 0x40 MLOAD PUSH3 0x461BCD PUSH1 0xE5 SHL DUP2 MSTORE PUSH1 0x20 PUSH1 0x4 DUP3 ADD MSTORE PUSH1 0x1D PUSH1 0x24 DUP3 ADD MSTORE PUSH32 0x416464726573733A2063616C6C20746F206E6F6E2D636F6E7472616374000000 PUSH1 0x44 DUP3 ADD MSTORE PUSH1 0x64 ADD PUSH2 0x148 JUMP JUMPDEST POP DUP2 PUSH2 0x2AD JUMP JUMPDEST PUSH2 0x2AD DUP4 DUP4 PUSH2 0x2B5 JUMP JUMPDEST SWAP5 SWAP4 POP POP POP POP JUMP JUMPDEST DUP2 MLOAD ISZERO PUSH2 0x2C5 JUMPI DUP2 MLOAD DUP1 DUP4 PUSH1 0x20 ADD REVERT JUMPDEST DUP1 PUSH1 0x40 MLOAD PUSH3 0x461BCD PUSH1 0xE5 SHL DUP2 MSTORE PUSH1 0x4 ADD PUSH2 0x148 SWAP2 SWAP1 PUSH2 0x403 JUMP JUMPDEST PUSH4 0x4E487B71 PUSH1 0xE0 SHL PUSH1 0x0 MSTORE PUSH1 0x41 PUSH1 0x4 MSTORE PUSH1 0x24 PUSH1 0x0 REVERT JUMPDEST PUSH1 0x0 JUMPDEST DUP4 DUP2 LT ISZERO PUSH2 0x310 JUMPI DUP2 DUP2 ADD MLOAD DUP4 DUP3 ADD MSTORE PUSH1 0x20 ADD PUSH2 0x2F8 JUMP JUMPDEST POP POP PUSH1 0x0 SWAP2 ADD MSTORE JUMP JUMPDEST PUSH1 0x0 DUP1 PUSH1 0x40 DUP4 DUP6 SUB SLT ISZERO PUSH2 0x32C JUMPI PUSH1 0x0 DUP1 REVERT JUMPDEST DUP3 MLOAD PUSH1 0x1 PUSH1 0x1 PUSH1 0xA0 SHL SUB DUP2 AND DUP2 EQ PUSH2 0x343 JUMPI PUSH1 0x0 DUP1 REVERT JUMPDEST PUSH1 0x20 DUP5 ADD MLOAD SWAP1 SWAP3 POP PUSH1 0x1 PUSH1 0x1 PUSH1 0x40 SHL SUB DUP1 DUP3 GT ISZERO PUSH2 0x360 JUMPI PUSH1 0x0 DUP1 REVERT JUMPDEST DUP2 DUP6 ADD SWAP2 POP DUP6 PUSH1 0x1F DUP4 ADD SLT PUSH2 0x374 JUMPI PUSH1 0x0 DUP1 REVERT JUMPDEST DUP2 MLOAD DUP2 DUP2 GT ISZERO PUSH2 0x386 JUMPI PUSH2 0x386 PUSH2 0x2DF JUMP JUMPDEST PUSH1 0x40 MLOAD PUSH1 0x1F DUP3 ADD PUSH1 0x1F NOT SWAP1 DUP2 AND PUSH1 0x3F ADD AND DUP2 ADD SWAP1 DUP4 DUP3 GT DUP2 DUP4 LT OR ISZERO PUSH2 0x3AE JUMPI PUSH2 0x3AE PUSH2 0x2DF JUMP JUMPDEST DUP2 PUSH1 0x40 MSTORE DUP3 DUP2 MSTORE DUP9 PUSH1 0x20 DUP5 DUP8 ADD ADD GT ISZERO PUSH2 0x3C7 JUMPI PUSH1 0x0 DUP1 REVERT JUMPDEST PUSH2 0x3D8 DUP4 PUSH1 0x20 DUP4 ADD PUSH1 0x20 DUP9 ADD PUSH2 0x2F5 JUMP JUMPDEST DUP1 SWAP6 POP POP POP POP POP POP SWAP3 POP SWAP3 SWAP1 POP JUMP JUMPDEST PUSH1 0x0 DUP3 MLOAD PUSH2 0x3F9 DUP2 DUP5 PUSH1 0x20 DUP8 ADD PUSH2 0x2F5 JUMP JUMPDEST SWAP2 SWAP1 SWAP2 ADD SWAP3 SWAP2 POP POP JUMP JUMPDEST PUSH1 0x20 DUP2 MSTORE PUSH1 0x0 DUP3 MLOAD DUP1 PUSH1 0x20 DUP5 ADD MSTORE PUSH2 0x422 DUP2 PUSH1 0x40 DUP6 ADD PUSH1 0x20 DUP8 ADD PUSH2 0x2F5 JUMP JUMPDEST PUSH1 0x1F ADD PUSH1 0x1F NOT AND SWAP2 SWAP1 SWAP2 ADD PUSH1 0x40 ADD SWAP3 SWAP2 POP POP JUMP JUMPDEST PUSH2 0x2BB DUP1 PUSH2 0x445 PUSH1 0x0 CODECOPY PUSH1 0x0 RETURN INVALID PUSH1 0x80 PUSH1 0x40 MSTORE CALLDATASIZE PUSH2 0x13 JUMPI PUSH2 0x11 PUSH2 0x17 JUMP JUMPDEST STOP JUMPDEST PUSH2 0x11 JUMPDEST PUSH2 0x27 PUSH2 0x22 PUSH2 0x67 JUMP JUMPDEST PUSH2 0x9F JUMP JUMPDEST JUMP JUMPDEST PUSH1 0x60 PUSH2 0x4E DUP4 DUP4 PUSH1 0x40 MLOAD DUP1 PUSH1 0x60 ADD PUSH1 0x40 MSTORE DUP1 PUSH1 0x27 DUP2 MSTORE PUSH1 0x20 ADD PUSH2 0x25F PUSH1 0x27 SWAP2 CODECOPY PUSH2 0xC3 JUMP JUMPDEST SWAP4 SWAP3 POP POP POP JUMP JUMPDEST PUSH1 0x1 PUSH1 0x1 PUSH1 0xA0 SHL SUB AND EXTCODESIZE ISZERO ISZERO SWAP1 JUMP JUMPDEST SWAP1 JUMP JUMPDEST PUSH1 0x0 PUSH2 0x9A PUSH32 0x360894A13BA1A3210667C828492DB98DCA3E2076CC3735A920A3CA505D382BBC SLOAD PUSH1 0x1 PUSH1 0x1 PUSH1 0xA0 SHL SUB AND SWAP1 JUMP JUMPDEST SWAP1 POP SWAP1 JUMP JUMPDEST CALLDATASIZE PUSH1 0x0 DUP1 CALLDATACOPY PUSH1 0x0 DUP1 CALLDATASIZE PUSH1 0x0 DUP5 GAS DELEGATECALL RETURNDATASIZE PUSH1 0x0 DUP1 RETURNDATACOPY DUP1 DUP1 ISZERO PUSH2 0xBE JUMPI RETURNDATASIZE PUSH1 0x0 RETURN JUMPDEST RETURNDATASIZE PUSH1 0x0 REVERT JUMPDEST PUSH1 0x60 PUSH1 0x0 DUP1 DUP6 PUSH1 0x1 PUSH1 0x1 PUSH1 0xA0 SHL SUB AND DUP6 PUSH1 0x40 MLOAD PUSH2 0xE0 SWAP2 SWAP1 PUSH2 0x20F JUMP JUMPDEST PUSH1 0x0 PUSH1 0x40 MLOAD DUP1 DUP4 SUB DUP2 DUP6 GAS DELEGATECALL SWAP2 POP POP RETURNDATASIZE DUP1 PUSH1 0x0 DUP2 EQ PUSH2 0x11B JUMPI PUSH1 0x40 MLOAD SWAP2 POP PUSH1 0x1F NOT PUSH1 0x3F RETURNDATASIZE ADD AND DUP3 ADD PUSH1 0x40 MSTORE RETURNDATASIZE DUP3 MSTORE RETURNDATASIZE PUSH1 0x0 PUSH1 0x20 DUP5 ADD RETURNDATACOPY PUSH2 0x120 JUMP JUMPDEST PUSH1 0x60 SWAP2 POP JUMPDEST POP SWAP2 POP SWAP2 POP PUSH2 0x131 DUP7 DUP4 DUP4 DUP8 PUSH2 0x13B JUMP JUMPDEST SWAP7 SWAP6 POP POP POP POP POP POP JUMP JUMPDEST PUSH1 0x60 DUP4 ISZERO PUSH2 0x1AF JUMPI DUP3 MLOAD PUSH1 0x0 SUB PUSH2 0x1A8 JUMPI PUSH1 0x1 PUSH1 0x1 PUSH1 0xA0 SHL SUB DUP6 AND EXTCODESIZE PUSH2 0x1A8 JUMPI PUSH1 0x40 MLOAD PUSH3 0x461BCD PUSH1 0xE5 SHL DUP2 MSTORE PUSH1 0x20 PUSH1 0x4 DUP3 ADD MSTORE PUSH1 0x1D PUSH1 0x24 DUP3 ADD MSTORE PUSH32 0x416464726573733A2063616C6C20746F206E6F6E2D636F6E7472616374000000 PUSH1 0x44 DUP3 ADD MSTORE PUSH1 0x64 ADD JUMPDEST PUSH1 0x40 MLOAD DUP1 SWAP2 SUB SWAP1 REVERT JUMPDEST POP DUP2 PUSH2 0x1B9 JUMP JUMPDEST PUSH2 0x1B9 DUP4 DUP4 PUSH2 0x1C1 JUMP JUMPDEST SWAP5 SWAP4 POP POP POP POP JUMP JUMPDEST DUP2 MLOAD ISZERO PUSH2 0x1D1 JUMPI DUP2 MLOAD DUP1 DUP4 PUSH1 0x20 ADD REVERT JUMPDEST DUP1 PUSH1 0x40 MLOAD PUSH3 0x461BCD PUSH1 0xE5 SHL DUP2 MSTORE PUSH1 0x4 ADD PUSH2 0x19F SWAP2 SWAP1 PUSH2 0x22B JUMP JUMPDEST PUSH1 0x0 JUMPDEST DUP4 DUP2 LT ISZERO PUSH2 0x206 JUMPI DUP2 DUP2 ADD MLOAD DUP4 DUP3 ADD MSTORE PUSH1 0x20 ADD PUSH2 0x1EE JUMP JUMPDEST POP POP PUSH1 0x0 SWAP2 ADD MSTORE JUMP JUMPDEST PUSH1 0x0 DUP3 MLOAD PUSH2 0x221 DUP2 DUP5 PUSH1 0x20 DUP8 ADD PUSH2 0x1EB JUMP JUMPDEST SWAP2 SWAP1 SWAP2 ADD SWAP3 SWAP2 POP POP JUMP JUMPDEST PUSH1 0x20 DUP2 MSTORE PUSH1 0x0 DUP3 MLOAD DUP1 PUSH1 0x20 DUP5 ADD MSTORE PUSH2 0x24A DUP2 PUSH1 0x40 DUP6 ADD PUSH1 0x20 DUP8 ADD PUSH2 0x1EB JUMP JUMPDEST PUSH1 0x1F ADD PUSH1 0x1F NOT AND SWAP2 SWAP1 SWAP2 ADD PUSH1 0x40 ADD SWAP3 SWAP2 POP POP JUMP INVALID COINBASE PUSH5 0x6472657373 GASPRICE KECCAK256 PUSH13 0x6F772D6C6576656C2064656C65 PUSH8 0x6174652063616C6C KECCAK256 PUSH7 0x61696C6564A264 PUSH10 0x70667358221220687BC6 0x5F PUSH21 0x2577AFA32EDC32468487A306093FAD2F395880FA5F STATICCALL 0x4E 0xFC 0x5F 0xDD PUSH1 0x64 PUSH20 0x6F6C63430008110033416464726573733A206C6F PUSH24 0x2D6C6576656C2064656C65676174652063616C6C20666169 PUSH13 0x6564A264697066735822122004 0xE0 SWAP1 0xBD LOG4 PUSH10 0xE04476ABA35765C5E237 DUP10 SSTORE 0xD0 DUP3 0x29 0xDC LOG1 0xAC SGT EXP 0xB2 RETURNDATACOPY 0xCB SIGNEXTEND SELFDESTRUCT PUSH12 0x64736F6C6343000811003360 DUP1 PUSH1 0x40 MSTORE PUSH1 0x0 DUP1 SLOAD PUSH1 0xFF NOT AND PUSH1 0x1 OR SWAP1 SSTORE CALLVALUE DUP1 ISZERO PUSH2 0x1D JUMPI PUSH1 0x0 DUP1 REVERT JUMPDEST POP PUSH2 0x1AA DUP1 PUSH2 0x2D PUSH1 0x0 CODECOPY PUSH1 0x0 RETURN INVALID PUSH1 0x80 PUSH1 0x40 MSTORE CALLVALUE DUP1 ISZERO PUSH2 0x10 JUMPI PUSH1 0x0 DUP1 REVERT JUMPDEST POP PUSH1 0x4 CALLDATASIZE LT PUSH2 0x4C JUMPI PUSH1 0x0 CALLDATALOAD PUSH1 0xE0 SHR DUP1 PUSH4 0x57E6C2F4 EQ PUSH2 0x51 JUMPI DUP1 PUSH4 0x8C777E82 EQ PUSH2 0x72 JUMPI DUP1 PUSH4 0x9E0A8E09 EQ PUSH2 0x87 JUMPI DUP1 PUSH4 0xD994D6D5 EQ PUSH2 0xA8 JUMPI JUMPDEST PUSH1 0x0 DUP1 REVERT JUMPDEST PUSH1 0x0 SLOAD PUSH2 0x5E SWAP1 PUSH1 0xFF AND DUP2 JUMP JUMPDEST PUSH1 0x40 MLOAD SWAP1 ISZERO ISZERO DUP2 MSTORE PUSH1 0x20 ADD PUSH1 0x40 MLOAD DUP1 SWAP2 SUB SWAP1 RETURN JUMPDEST PUSH2 0x85 PUSH2 0x80 CALLDATASIZE PUSH1 0x4 PUSH2 0x12E JUMP JUMPDEST PUSH2 0xC0 JUMP JUMPDEST STOP JUMPDEST PUSH2 0x85 PUSH2 0x95 CALLDATASIZE PUSH1 0x4 PUSH2 0x152 JUMP JUMPDEST PUSH1 0x0 DUP1 SLOAD PUSH1 0xFF NOT AND SWAP2 ISZERO ISZERO SWAP2 SWAP1 SWAP2 OR SWAP1 SSTORE JUMP JUMPDEST PUSH2 0x5E PUSH2 0xB6 CALLDATASIZE PUSH1 0x4 PUSH2 0x12E JUMP JUMPDEST POP PUSH1 0x0 SLOAD PUSH1 0xFF AND SWAP1 JUMP JUMPDEST DUP1 PUSH1 0x1 PUSH1 0x1 PUSH1 0xA0 SHL SUB AND PUSH4 0x61461954 PUSH1 0x40 MLOAD DUP2 PUSH4 0xFFFFFFFF AND PUSH1 0xE0 SHL DUP2 MSTORE PUSH1 0x4 ADD PUSH1 0x0 PUSH1 0x40 MLOAD DUP1 DUP4 SUB DUP2 PUSH1 0x0 DUP8 DUP1 EXTCODESIZE ISZERO DUP1 ISZERO PUSH2 0xFB JUMPI PUSH1 0x0 DUP1 REVERT JUMPDEST POP GAS CALL ISZERO DUP1 ISZERO PUSH2 0x10F JUMPI RETURNDATASIZE PUSH1 0x0 DUP1 RETURNDATACOPY RETURNDATASIZE PUSH1 0x0 REVERT JUMPDEST POP POP POP POP POP JUMP JUMPDEST PUSH1 0x1 PUSH1 0x1 PUSH1 0xA0 SHL SUB DUP2 AND DUP2 EQ PUSH2 0x12B JUMPI PUSH1 0x0 DUP1 REVERT JUMPDEST POP JUMP JUMPDEST PUSH1 0x0 PUSH1 0x20 DUP3 DUP5 SUB SLT ISZERO PUSH2 0x140 JUMPI PUSH1 0x0 DUP1 REVERT JUMPDEST DUP2 CALLDATALOAD PUSH2 0x14B DUP2 PUSH2 0x116 JUMP JUMPDEST SWAP4 SWAP3 POP POP POP JUMP JUMPDEST PUSH1 0x0 PUSH1 0x20 DUP3 DUP5 SUB SLT ISZERO PUSH2 0x164 JUMPI PUSH1 0x0 DUP1 REVERT JUMPDEST DUP2 CALLDATALOAD DUP1 ISZERO ISZERO DUP2 EQ PUSH2 0x14B JUMPI PUSH1 0x0 DUP1 REVERT INVALID LOG2 PUSH5 0x6970667358 0x22 SLT KECCAK256 DUP6 DUP3 0xDB DUP12 PUSH4 0x122237CC CALL 0xFB 0xA8 RETURNDATASIZE 0x5F OR 0x1F 0xEE DUP4 XOR DUP16 DUP13 PUSH4 0x14FF9408 PUSH11 0x187F8D06FD64736F6C6343 STOP ADDMOD GT STOP CALLER PUSH1 0x80 PUSH1 0x40 MSTORE PUSH1 0x5 DUP1 SLOAD PUSH1 0xFF NOT AND PUSH1 0x12 OR SWAP1 SSTORE CALLVALUE DUP1 ISZERO PUSH3 0x1E JUMPI PUSH1 0x0 DUP1 REVERT JUMPDEST POP PUSH1 0x40 DUP1 MLOAD DUP1 DUP3 ADD DUP3 MSTORE PUSH1 0x9 DUP1 DUP3 MSTORE PUSH9 0x45524332304D6F636B PUSH1 0xB8 SHL PUSH1 0x20 DUP1 DUP5 ADD DUP3 SWAP1 MSTORE DUP5 MLOAD DUP1 DUP7 ADD SWAP1 SWAP6 MSTORE SWAP2 DUP5 MSTORE SWAP1 DUP4 ADD MSTORE SWAP1 PUSH1 0x3 PUSH3 0x60 DUP4 DUP3 PUSH3 0x207 JUMP JUMPDEST POP PUSH1 0x4 PUSH3 0x6F DUP3 DUP3 PUSH3 0x207 JUMP JUMPDEST POP PUSH3 0x92 SWAP2 POP CALLER SWAP1 POP PUSH3 0x8C PUSH5 0x2540BE400 PUSH1 0x0 NOT PUSH3 0x2D3 JUMP JUMPDEST PUSH3 0x98 JUMP JUMPDEST PUSH3 0x31E JUMP JUMPDEST PUSH1 0x1 PUSH1 0x1 PUSH1 0xA0 SHL SUB DUP3 AND PUSH3 0xF3 JUMPI PUSH1 0x40 MLOAD PUSH3 0x461BCD PUSH1 0xE5 SHL DUP2 MSTORE PUSH1 0x20 PUSH1 0x4 DUP3 ADD MSTORE PUSH1 0x1F PUSH1 0x24 DUP3 ADD MSTORE PUSH32 0x45524332303A206D696E7420746F20746865207A65726F206164647265737300 PUSH1 0x44 DUP3 ADD MSTORE PUSH1 0x64 ADD PUSH1 0x40 MLOAD DUP1 SWAP2 SUB SWAP1 REVERT JUMPDEST DUP1 PUSH1 0x2 PUSH1 0x0 DUP3 DUP3 SLOAD PUSH3 0x107 SWAP2 SWAP1 PUSH3 0x2F6 JUMP JUMPDEST SWAP1 SWAP2 SSTORE POP POP PUSH1 0x1 PUSH1 0x1 PUSH1 0xA0 SHL SUB DUP3 AND PUSH1 0x0 DUP2 DUP2 MSTORE PUSH1 0x20 DUP2 DUP2 MSTORE PUSH1 0x40 DUP1 DUP4 KECCAK256 DUP1 SLOAD DUP7 ADD SWAP1 SSTORE MLOAD DUP5 DUP2 MSTORE PUSH32 0xDDF252AD1BE2C89B69C2B068FC378DAA952BA7F163C4A11628F55A4DF523B3EF SWAP2 ADD PUSH1 0x40 MLOAD DUP1 SWAP2 SUB SWAP1 LOG3 POP POP JUMP JUMPDEST POP POP POP JUMP JUMPDEST PUSH4 0x4E487B71 PUSH1 0xE0 SHL PUSH1 0x0 MSTORE PUSH1 0x41 PUSH1 0x4 MSTORE PUSH1 0x24 PUSH1 0x0 REVERT JUMPDEST PUSH1 0x1 DUP2 DUP2 SHR SWAP1 DUP3 AND DUP1 PUSH3 0x18E JUMPI PUSH1 0x7F DUP3 AND SWAP2 POP JUMPDEST PUSH1 0x20 DUP3 LT DUP2 SUB PUSH3 0x1AF JUMPI PUSH4 0x4E487B71 PUSH1 0xE0 SHL PUSH1 0x0 MSTORE PUSH1 0x22 PUSH1 0x4 MSTORE PUSH1 0x24 PUSH1 0x0 REVERT JUMPDEST POP SWAP2 SWAP1 POP JUMP JUMPDEST PUSH1 0x1F DUP3 GT ISZERO PUSH3 0x15E JUMPI PUSH1 0x0 DUP2 DUP2 MSTORE PUSH1 0x20 DUP2 KECCAK256 PUSH1 0x1F DUP6 ADD PUSH1 0x5 SHR DUP2 ADD PUSH1 0x20 DUP7 LT ISZERO PUSH3 0x1DE JUMPI POP DUP1 JUMPDEST PUSH1 0x1F DUP6 ADD PUSH1 0x5 SHR DUP3 ADD SWAP2 POP JUMPDEST DUP2 DUP2 LT ISZERO PUSH3 0x1FF JUMPI DUP3 DUP2 SSTORE PUSH1 0x1 ADD PUSH3 0x1EA JUMP JUMPDEST POP POP POP POP POP POP JUMP JUMPDEST DUP2 MLOAD PUSH1 0x1 PUSH1 0x1 PUSH1 0x40 SHL SUB DUP2 GT ISZERO PUSH3 0x223 JUMPI PUSH3 0x223 PUSH3 0x163 JUMP JUMPDEST PUSH3 0x23B DUP2 PUSH3 0x234 DUP5 SLOAD PUSH3 0x179 JUMP JUMPDEST DUP5 PUSH3 0x1B5 JUMP JUMPDEST PUSH1 0x20 DUP1 PUSH1 0x1F DUP4 GT PUSH1 0x1 DUP2 EQ PUSH3 0x273 JUMPI PUSH1 0x0 DUP5 ISZERO PUSH3 0x25A JUMPI POP DUP6 DUP4 ADD MLOAD JUMPDEST PUSH1 0x0 NOT PUSH1 0x3 DUP7 SWAP1 SHL SHR NOT AND PUSH1 0x1 DUP6 SWAP1 SHL OR DUP6 SSTORE PUSH3 0x1FF JUMP JUMPDEST PUSH1 0x0 DUP6 DUP2 MSTORE PUSH1 0x20 DUP2 KECCAK256 PUSH1 0x1F NOT DUP7 AND SWAP2 JUMPDEST DUP3 DUP2 LT ISZERO PUSH3 0x2A4 JUMPI DUP9 DUP7 ADD MLOAD DUP3 SSTORE SWAP5 DUP5 ADD SWAP5 PUSH1 0x1 SWAP1 SWAP2 ADD SWAP1 DUP5 ADD PUSH3 0x283 JUMP JUMPDEST POP DUP6 DUP3 LT ISZERO PUSH3 0x2C3 JUMPI DUP8 DUP6 ADD MLOAD PUSH1 0x0 NOT PUSH1 0x3 DUP9 SWAP1 SHL PUSH1 0xF8 AND SHR NOT AND DUP2 SSTORE JUMPDEST POP POP POP POP POP PUSH1 0x1 SWAP1 DUP2 SHL ADD SWAP1 SSTORE POP JUMP JUMPDEST PUSH1 0x0 DUP3 PUSH3 0x2F1 JUMPI PUSH4 0x4E487B71 PUSH1 0xE0 SHL PUSH1 0x0 MSTORE PUSH1 0x12 PUSH1 0x4 MSTORE PUSH1 0x24 PUSH1 0x0 REVERT JUMPDEST POP DIV SWAP1 JUMP JUMPDEST DUP1 DUP3 ADD DUP1 DUP3 GT ISZERO PUSH3 0x318 JUMPI PUSH4 0x4E487B71 PUSH1 0xE0 SHL PUSH1 0x0 MSTORE PUSH1 0x11 PUSH1 0x4 MSTORE PUSH1 0x24 PUSH1 0x0 REVERT JUMPDEST SWAP3 SWAP2 POP POP JUMP JUMPDEST PUSH2 0xC70 DUP1 PUSH3 0x32E PUSH1 0x0 CODECOPY PUSH1 0x0 RETURN INVALID PUSH1 0x80 PUSH1 0x40 MSTORE CALLVALUE DUP1 ISZERO PUSH2 0x10 JUMPI PUSH1 0x0 DUP1 REVERT JUMPDEST POP PUSH1 0x4 CALLDATASIZE LT PUSH2 0x116 JUMPI PUSH1 0x0 CALLDATALOAD PUSH1 0xE0 SHR DUP1 PUSH4 0x70A08231 GT PUSH2 0xA2 JUMPI DUP1 PUSH4 0x9DC29FAC GT PUSH2 0x71 JUMPI DUP1 PUSH4 0x9DC29FAC EQ PUSH2 0x250 JUMPI DUP1 PUSH4 0xA457C2D7 EQ PUSH2 0x263 JUMPI DUP1 PUSH4 0xA9059CBB EQ PUSH2 0x276 JUMPI DUP1 PUSH4 0xACE28FA5 EQ PUSH2 0x289 JUMPI DUP1 PUSH4 0xDD62ED3E EQ PUSH2 0x296 JUMPI PUSH1 0x0 DUP1 REVERT JUMPDEST DUP1 PUSH4 0x70A08231 EQ PUSH2 0x1E8 JUMPI DUP1 PUSH4 0x79CC6790 EQ PUSH2 0x211 JUMPI DUP1 PUSH4 0x7A1395AA EQ PUSH2 0x224 JUMPI DUP1 PUSH4 0x95D89B41 EQ PUSH2 0x248 JUMPI PUSH1 0x0 DUP1 REVERT JUMPDEST DUP1 PUSH4 0x313CE567 GT PUSH2 0xE9 JUMPI DUP1 PUSH4 0x313CE567 EQ PUSH2 0x181 JUMPI DUP1 PUSH4 0x39509351 EQ PUSH2 0x19A JUMPI DUP1 PUSH4 0x40C10F19 EQ PUSH2 0x1AD JUMPI DUP1 PUSH4 0x42966C68 EQ PUSH2 0x1C2 JUMPI DUP1 PUSH4 0x5C2F5E26 EQ PUSH2 0x1D5 JUMPI PUSH1 0x0 DUP1 REVERT JUMPDEST DUP1 PUSH4 0x6FDDE03 EQ PUSH2 0x11B JUMPI DUP1 PUSH4 0x95EA7B3 EQ PUSH2 0x139 JUMPI DUP1 PUSH4 0x18160DDD EQ PUSH2 0x15C JUMPI DUP1 PUSH4 0x23B872DD EQ PUSH2 0x16E JUMPI JUMPDEST PUSH1 0x0 DUP1 REVERT JUMPDEST PUSH2 0x123 PUSH2 0x2A9 JUMP JUMPDEST PUSH1 0x40 MLOAD PUSH2 0x130 SWAP2 SWAP1 PUSH2 0xA4E JUMP JUMPDEST PUSH1 0x40 MLOAD DUP1 SWAP2 SUB SWAP1 RETURN JUMPDEST PUSH2 0x14C PUSH2 0x147 CALLDATASIZE PUSH1 0x4 PUSH2 0xAB8 JUMP JUMPDEST PUSH2 0x33B JUMP JUMPDEST PUSH1 0x40 MLOAD SWAP1 ISZERO ISZERO DUP2 MSTORE PUSH1 0x20 ADD PUSH2 0x130 JUMP JUMPDEST PUSH1 0x2 SLOAD JUMPDEST PUSH1 0x40 MLOAD SWAP1 DUP2 MSTORE PUSH1 0x20 ADD PUSH2 0x130 JUMP JUMPDEST PUSH2 0x14C PUSH2 0x17C CALLDATASIZE PUSH1 0x4 PUSH2 0xAE2 JUMP JUMPDEST PUSH2 0x355 JUMP JUMPDEST PUSH1 0x5 SLOAD PUSH1 0xFF AND JUMPDEST PUSH1 0x40 MLOAD PUSH1 0xFF SWAP1 SWAP2 AND DUP2 MSTORE PUSH1 0x20 ADD PUSH2 0x130 JUMP JUMPDEST PUSH2 0x14C PUSH2 0x1A8 CALLDATASIZE PUSH1 0x4 PUSH2 0xAB8 JUMP JUMPDEST PUSH2 0x379 JUMP JUMPDEST PUSH2 0x1C0 PUSH2 0x1BB CALLDATASIZE PUSH1 0x4 PUSH2 0xAB8 JUMP JUMPDEST PUSH2 0x39B JUMP JUMPDEST STOP JUMPDEST PUSH2 0x1C0 PUSH2 0x1D0 CALLDATASIZE PUSH1 0x4 PUSH2 0xB1E JUMP JUMPDEST PUSH2 0x3A9 JUMP JUMPDEST PUSH2 0x1C0 PUSH2 0x1E3 CALLDATASIZE PUSH1 0x4 PUSH2 0xB37 JUMP JUMPDEST PUSH2 0x3B6 JUMP JUMPDEST PUSH2 0x160 PUSH2 0x1F6 CALLDATASIZE PUSH1 0x4 PUSH2 0xB58 JUMP JUMPDEST PUSH1 0x1 PUSH1 0x1 PUSH1 0xA0 SHL SUB AND PUSH1 0x0 SWAP1 DUP2 MSTORE PUSH1 0x20 DUP2 SWAP1 MSTORE PUSH1 0x40 SWAP1 KECCAK256 SLOAD SWAP1 JUMP JUMPDEST PUSH2 0x1C0 PUSH2 0x21F CALLDATASIZE PUSH1 0x4 PUSH2 0xAB8 JUMP JUMPDEST PUSH2 0x3DF JUMP JUMPDEST PUSH2 0x1C0 PUSH2 0x232 CALLDATASIZE PUSH1 0x4 PUSH2 0xB73 JUMP JUMPDEST PUSH1 0x5 DUP1 SLOAD PUSH1 0xFF NOT AND PUSH1 0xFF SWAP3 SWAP1 SWAP3 AND SWAP2 SWAP1 SWAP2 OR SWAP1 SSTORE JUMP JUMPDEST PUSH2 0x123 PUSH2 0x3F4 JUMP JUMPDEST PUSH2 0x1C0 PUSH2 0x25E CALLDATASIZE PUSH1 0x4 PUSH2 0xAB8 JUMP JUMPDEST PUSH2 0x3EA JUMP JUMPDEST PUSH2 0x14C PUSH2 0x271 CALLDATASIZE PUSH1 0x4 PUSH2 0xAB8 JUMP JUMPDEST PUSH2 0x403 JUMP JUMPDEST PUSH2 0x14C PUSH2 0x284 CALLDATASIZE PUSH1 0x4 PUSH2 0xAB8 JUMP JUMPDEST PUSH2 0x483 JUMP JUMPDEST PUSH1 0x5 SLOAD PUSH2 0x188 SWAP1 PUSH1 0xFF AND DUP2 JUMP JUMPDEST PUSH2 0x160 PUSH2 0x2A4 CALLDATASIZE PUSH1 0x4 PUSH2 0xB96 JUMP JUMPDEST PUSH2 0x4E9 JUMP JUMPDEST PUSH1 0x60 PUSH1 0x3 DUP1 SLOAD PUSH2 0x2B8 SWAP1 PUSH2 0xBC9 JUMP JUMPDEST DUP1 PUSH1 0x1F ADD PUSH1 0x20 DUP1 SWAP2 DIV MUL PUSH1 0x20 ADD PUSH1 0x40 MLOAD SWAP1 DUP2 ADD PUSH1 0x40 MSTORE DUP1 SWAP3 SWAP2 SWAP1 DUP2 DUP2 MSTORE PUSH1 0x20 ADD DUP3 DUP1 SLOAD PUSH2 0x2E4 SWAP1 PUSH2 0xBC9 JUMP JUMPDEST DUP1 ISZERO PUSH2 0x331 JUMPI DUP1 PUSH1 0x1F LT PUSH2 0x306 JUMPI PUSH2 0x100 DUP1 DUP4 SLOAD DIV MUL DUP4 MSTORE SWAP2 PUSH1 0x20 ADD SWAP2 PUSH2 0x331 JUMP JUMPDEST DUP3 ADD SWAP2 SWAP1 PUSH1 0x0 MSTORE PUSH1 0x20 PUSH1 0x0 KECCAK256 SWAP1 JUMPDEST DUP2 SLOAD DUP2 MSTORE SWAP1 PUSH1 0x1 ADD SWAP1 PUSH1 0x20 ADD DUP1 DUP4 GT PUSH2 0x314 JUMPI DUP3 SWAP1 SUB PUSH1 0x1F AND DUP3 ADD SWAP2 JUMPDEST POP POP POP POP POP SWAP1 POP SWAP1 JUMP JUMPDEST PUSH1 0x0 CALLER PUSH2 0x349 DUP2 DUP6 DUP6 PUSH2 0x514 JUMP JUMPDEST PUSH1 0x1 SWAP2 POP POP JUMPDEST SWAP3 SWAP2 POP POP JUMP JUMPDEST PUSH1 0x0 CALLER PUSH2 0x363 DUP6 DUP3 DUP6 PUSH2 0x639 JUMP JUMPDEST PUSH2 0x36E DUP6 DUP6 DUP6 PUSH2 0x6B3 JUMP JUMPDEST POP PUSH1 0x1 SWAP5 SWAP4 POP POP POP POP JUMP JUMPDEST PUSH1 0x0 CALLER PUSH2 0x349 DUP2 DUP6 DUP6 PUSH2 0x38C DUP4 DUP4 PUSH2 0x4E9 JUMP JUMPDEST PUSH2 0x396 SWAP2 SWAP1 PUSH2 0xC03 JUMP JUMPDEST PUSH2 0x514 JUMP JUMPDEST PUSH2 0x3A5 DUP3 DUP3 PUSH2 0x857 JUMP JUMPDEST POP POP JUMP JUMPDEST PUSH2 0x3B3 CALLER DUP3 PUSH2 0x916 JUMP JUMPDEST POP JUMP JUMPDEST PUSH1 0x5 DUP1 SLOAD DUP3 SWAP2 SWAP1 PUSH2 0xFF00 NOT AND PUSH2 0x100 DUP4 PUSH1 0x2 DUP2 GT ISZERO PUSH2 0x3D7 JUMPI PUSH2 0x3D7 PUSH2 0xC24 JUMP JUMPDEST MUL OR SWAP1 SSTORE POP POP JUMP JUMPDEST PUSH2 0x3EA DUP3 CALLER DUP4 PUSH2 0x639 JUMP JUMPDEST PUSH2 0x3A5 DUP3 DUP3 PUSH2 0x916 JUMP JUMPDEST PUSH1 0x60 PUSH1 0x4 DUP1 SLOAD PUSH2 0x2B8 SWAP1 PUSH2 0xBC9 JUMP JUMPDEST PUSH1 0x0 CALLER DUP2 PUSH2 0x411 DUP3 DUP7 PUSH2 0x4E9 JUMP JUMPDEST SWAP1 POP DUP4 DUP2 LT ISZERO PUSH2 0x476 JUMPI PUSH1 0x40 MLOAD PUSH3 0x461BCD PUSH1 0xE5 SHL DUP2 MSTORE PUSH1 0x20 PUSH1 0x4 DUP3 ADD MSTORE PUSH1 0x25 PUSH1 0x24 DUP3 ADD MSTORE PUSH32 0x45524332303A2064656372656173656420616C6C6F77616E63652062656C6F77 PUSH1 0x44 DUP3 ADD MSTORE PUSH5 0x207A65726F PUSH1 0xD8 SHL PUSH1 0x64 DUP3 ADD MSTORE PUSH1 0x84 ADD JUMPDEST PUSH1 0x40 MLOAD DUP1 SWAP2 SUB SWAP1 REVERT JUMPDEST PUSH2 0x36E DUP3 DUP7 DUP7 DUP5 SUB PUSH2 0x514 JUMP JUMPDEST PUSH1 0x0 PUSH1 0x1 PUSH1 0x5 SLOAD PUSH2 0x100 SWAP1 DIV PUSH1 0xFF AND PUSH1 0x2 DUP2 GT ISZERO PUSH2 0x4A3 JUMPI PUSH2 0x4A3 PUSH2 0xC24 JUMP JUMPDEST SUB PUSH2 0x4B0 JUMPI POP PUSH1 0x0 PUSH2 0x34F JUMP JUMPDEST PUSH1 0x2 PUSH1 0x5 SLOAD PUSH2 0x100 SWAP1 DIV PUSH1 0xFF AND PUSH1 0x2 DUP2 GT ISZERO PUSH2 0x4CE JUMPI PUSH2 0x4CE PUSH2 0xC24 JUMP JUMPDEST SUB PUSH2 0x4D8 JUMPI PUSH1 0x0 DUP1 REVERT JUMPDEST PUSH2 0x4E2 DUP4 DUP4 PUSH2 0xA40 JUMP JUMPDEST SWAP4 SWAP3 POP POP POP JUMP JUMPDEST PUSH1 0x1 PUSH1 0x1 PUSH1 0xA0 SHL SUB SWAP2 DUP3 AND PUSH1 0x0 SWAP1 DUP2 MSTORE PUSH1 0x1 PUSH1 0x20 SWAP1 DUP2 MSTORE PUSH1 0x40 DUP1 DUP4 KECCAK256 SWAP4 SWAP1 SWAP5 AND DUP3 MSTORE SWAP2 SWAP1 SWAP2 MSTORE KECCAK256 SLOAD SWAP1 JUMP JUMPDEST PUSH1 0x1 PUSH1 0x1 PUSH1 0xA0 SHL SUB DUP4 AND PUSH2 0x576 JUMPI PUSH1 0x40 MLOAD PUSH3 0x461BCD PUSH1 0xE5 SHL DUP2 MSTORE PUSH1 0x20 PUSH1 0x4 DUP3 ADD MSTORE PUSH1 0x24 DUP1 DUP3 ADD MSTORE PUSH32 0x45524332303A20617070726F76652066726F6D20746865207A65726F20616464 PUSH1 0x44 DUP3 ADD MSTORE PUSH4 0x72657373 PUSH1 0xE0 SHL PUSH1 0x64 DUP3 ADD MSTORE PUSH1 0x84 ADD PUSH2 0x46D JUMP JUMPDEST PUSH1 0x1 PUSH1 0x1 PUSH1 0xA0 SHL SUB DUP3 AND PUSH2 0x5D7 JUMPI PUSH1 0x40 MLOAD PUSH3 0x461BCD PUSH1 0xE5 SHL DUP2 MSTORE PUSH1 0x20 PUSH1 0x4 DUP3 ADD MSTORE PUSH1 0x22 PUSH1 0x24 DUP3 ADD MSTORE PUSH32 0x45524332303A20617070726F766520746F20746865207A65726F206164647265 PUSH1 0x44 DUP3 ADD MSTORE PUSH2 0x7373 PUSH1 0xF0 SHL PUSH1 0x64 DUP3 ADD MSTORE PUSH1 0x84 ADD PUSH2 0x46D JUMP JUMPDEST PUSH1 0x1 PUSH1 0x1 PUSH1 0xA0 SHL SUB DUP4 DUP2 AND PUSH1 0x0 DUP2 DUP2 MSTORE PUSH1 0x1 PUSH1 0x20 SWAP1 DUP2 MSTORE PUSH1 0x40 DUP1 DUP4 KECCAK256 SWAP5 DUP8 AND DUP1 DUP5 MSTORE SWAP5 DUP3 MSTORE SWAP2 DUP3 SWAP1 KECCAK256 DUP6 SWAP1 SSTORE SWAP1 MLOAD DUP5 DUP2 MSTORE PUSH32 0x8C5BE1E5EBEC7D5BD14F71427D1E84F3DD0314C0F7B2291E5B200AC8C7C3B925 SWAP2 ADD JUMPDEST PUSH1 0x40 MLOAD DUP1 SWAP2 SUB SWAP1 LOG3 POP POP POP JUMP JUMPDEST PUSH1 0x0 PUSH2 0x645 DUP5 DUP5 PUSH2 0x4E9 JUMP JUMPDEST SWAP1 POP PUSH1 0x0 NOT DUP2 EQ PUSH2 0x6AD JUMPI DUP2 DUP2 LT ISZERO PUSH2 0x6A0 JUMPI PUSH1 0x40 MLOAD PUSH3 0x461BCD PUSH1 0xE5 SHL DUP2 MSTORE PUSH1 0x20 PUSH1 0x4 DUP3 ADD MSTORE PUSH1 0x1D PUSH1 0x24 DUP3 ADD MSTORE PUSH32 0x45524332303A20696E73756666696369656E7420616C6C6F77616E6365000000 PUSH1 0x44 DUP3 ADD MSTORE PUSH1 0x64 ADD PUSH2 0x46D JUMP JUMPDEST PUSH2 0x6AD DUP5 DUP5 DUP5 DUP5 SUB PUSH2 0x514 JUMP JUMPDEST POP POP POP POP JUMP JUMPDEST PUSH1 0x1 PUSH1 0x1 PUSH1 0xA0 SHL SUB DUP4 AND PUSH2 0x717 JUMPI PUSH1 0x40 MLOAD PUSH3 0x461BCD PUSH1 0xE5 SHL DUP2 MSTORE PUSH1 0x20 PUSH1 0x4 DUP3 ADD MSTORE PUSH1 0x25 PUSH1 0x24 DUP3 ADD MSTORE PUSH32 0x45524332303A207472616E736665722066726F6D20746865207A65726F206164 PUSH1 0x44 DUP3 ADD MSTORE PUSH5 0x6472657373 PUSH1 0xD8 SHL PUSH1 0x64 DUP3 ADD MSTORE PUSH1 0x84 ADD PUSH2 0x46D JUMP JUMPDEST PUSH1 0x1 PUSH1 0x1 PUSH1 0xA0 SHL SUB DUP3 AND PUSH2 0x779 JUMPI PUSH1 0x40 MLOAD PUSH3 0x461BCD PUSH1 0xE5 SHL DUP2 MSTORE PUSH1 0x20 PUSH1 0x4 DUP3 ADD MSTORE PUSH1 0x23 PUSH1 0x24 DUP3 ADD MSTORE PUSH32 0x45524332303A207472616E7366657220746F20746865207A65726F2061646472 PUSH1 0x44 DUP3 ADD MSTORE PUSH3 0x657373 PUSH1 0xE8 SHL PUSH1 0x64 DUP3 ADD MSTORE PUSH1 0x84 ADD PUSH2 0x46D JUMP JUMPDEST PUSH1 0x1 PUSH1 0x1 PUSH1 0xA0 SHL SUB DUP4 AND PUSH1 0x0 SWAP1 DUP2 MSTORE PUSH1 0x20 DUP2 SWAP1 MSTORE PUSH1 0x40 SWAP1 KECCAK256 SLOAD DUP2 DUP2 LT ISZERO PUSH2 0x7F1 JUMPI PUSH1 0x40 MLOAD PUSH3 0x461BCD PUSH1 0xE5 SHL DUP2 MSTORE PUSH1 0x20 PUSH1 0x4 DUP3 ADD MSTORE PUSH1 0x26 PUSH1 0x24 DUP3 ADD MSTORE PUSH32 0x45524332303A207472616E7366657220616D6F756E7420657863656564732062 PUSH1 0x44 DUP3 ADD MSTORE PUSH6 0x616C616E6365 PUSH1 0xD0 SHL PUSH1 0x64 DUP3 ADD MSTORE PUSH1 0x84 ADD PUSH2 0x46D JUMP JUMPDEST PUSH1 0x1 PUSH1 0x1 PUSH1 0xA0 SHL SUB DUP5 DUP2 AND PUSH1 0x0 DUP2 DUP2 MSTORE PUSH1 0x20 DUP2 DUP2 MSTORE PUSH1 0x40 DUP1 DUP4 KECCAK256 DUP8 DUP8 SUB SWAP1 SSTORE SWAP4 DUP8 AND DUP1 DUP4 MSTORE SWAP2 DUP5 SWAP1 KECCAK256 DUP1 SLOAD DUP8 ADD SWAP1 SSTORE SWAP3 MLOAD DUP6 DUP2 MSTORE SWAP1 SWAP3 PUSH32 0xDDF252AD1BE2C89B69C2B068FC378DAA952BA7F163C4A11628F55A4DF523B3EF SWAP2 ADD PUSH1 0x40 MLOAD DUP1 SWAP2 SUB SWAP1 LOG3 PUSH2 0x6AD JUMP JUMPDEST PUSH1 0x1 PUSH1 0x1 PUSH1 0xA0 SHL SUB DUP3 AND PUSH2 0x8AD JUMPI PUSH1 0x40 MLOAD PUSH3 0x461BCD PUSH1 0xE5 SHL DUP2 MSTORE PUSH1 0x20 PUSH1 0x4 DUP3 ADD MSTORE PUSH1 0x1F PUSH1 0x24 DUP3 ADD MSTORE PUSH32 0x45524332303A206D696E7420746F20746865207A65726F206164647265737300 PUSH1 0x44 DUP3 ADD MSTORE PUSH1 0x64 ADD PUSH2 0x46D JUMP JUMPDEST DUP1 PUSH1 0x2 PUSH1 0x0 DUP3 DUP3 SLOAD PUSH2 0x8BF SWAP2 SWAP1 PUSH2 0xC03 JUMP JUMPDEST SWAP1 SWAP2 SSTORE POP POP PUSH1 0x1 PUSH1 0x1 PUSH1 0xA0 SHL SUB DUP3 AND PUSH1 0x0 DUP2 DUP2 MSTORE PUSH1 0x20 DUP2 DUP2 MSTORE PUSH1 0x40 DUP1 DUP4 KECCAK256 DUP1 SLOAD DUP7 ADD SWAP1 SSTORE MLOAD DUP5 DUP2 MSTORE PUSH32 0xDDF252AD1BE2C89B69C2B068FC378DAA952BA7F163C4A11628F55A4DF523B3EF SWAP2 ADD PUSH1 0x40 MLOAD DUP1 SWAP2 SUB SWAP1 LOG3 POP POP JUMP JUMPDEST PUSH1 0x1 PUSH1 0x1 PUSH1 0xA0 SHL SUB DUP3 AND PUSH2 0x976 JUMPI PUSH1 0x40 MLOAD PUSH3 0x461BCD PUSH1 0xE5 SHL DUP2 MSTORE PUSH1 0x20 PUSH1 0x4 DUP3 ADD MSTORE PUSH1 0x21 PUSH1 0x24 DUP3 ADD MSTORE PUSH32 0x45524332303A206275726E2066726F6D20746865207A65726F20616464726573 PUSH1 0x44 DUP3 ADD MSTORE PUSH1 0x73 PUSH1 0xF8 SHL PUSH1 0x64 DUP3 ADD MSTORE PUSH1 0x84 ADD PUSH2 0x46D JUMP JUMPDEST PUSH1 0x1 PUSH1 0x1 PUSH1 0xA0 SHL SUB DUP3 AND PUSH1 0x0 SWAP1 DUP2 MSTORE PUSH1 0x20 DUP2 SWAP1 MSTORE PUSH1 0x40 SWAP1 KECCAK256 SLOAD DUP2 DUP2 LT ISZERO PUSH2 0x9EA JUMPI PUSH1 0x40 MLOAD PUSH3 0x461BCD PUSH1 0xE5 SHL DUP2 MSTORE PUSH1 0x20 PUSH1 0x4 DUP3 ADD MSTORE PUSH1 0x22 PUSH1 0x24 DUP3 ADD MSTORE PUSH32 0x45524332303A206275726E20616D6F756E7420657863656564732062616C616E PUSH1 0x44 DUP3 ADD MSTORE PUSH2 0x6365 PUSH1 0xF0 SHL PUSH1 0x64 DUP3 ADD MSTORE PUSH1 0x84 ADD PUSH2 0x46D JUMP JUMPDEST PUSH1 0x1 PUSH1 0x1 PUSH1 0xA0 SHL SUB DUP4 AND PUSH1 0x0 DUP2 DUP2 MSTORE PUSH1 0x20 DUP2 DUP2 MSTORE PUSH1 0x40 DUP1 DUP4 KECCAK256 DUP7 DUP7 SUB SWAP1 SSTORE PUSH1 0x2 DUP1 SLOAD DUP8 SWAP1 SUB SWAP1 SSTORE MLOAD DUP6 DUP2 MSTORE SWAP2 SWAP3 SWAP2 PUSH32 0xDDF252AD1BE2C89B69C2B068FC378DAA952BA7F163C4A11628F55A4DF523B3EF SWAP2 ADD PUSH2 0x62C JUMP JUMPDEST PUSH1 0x0 CALLER PUSH2 0x349 DUP2 DUP6 DUP6 PUSH2 0x6B3 JUMP JUMPDEST PUSH1 0x0 PUSH1 0x20 DUP1 DUP4 MSTORE DUP4 MLOAD DUP1 DUP3 DUP6 ADD MSTORE PUSH1 0x0 JUMPDEST DUP2 DUP2 LT ISZERO PUSH2 0xA7B JUMPI DUP6 DUP2 ADD DUP4 ADD MLOAD DUP6 DUP3 ADD PUSH1 0x40 ADD MSTORE DUP3 ADD PUSH2 0xA5F JUMP JUMPDEST POP PUSH1 0x0 PUSH1 0x40 DUP3 DUP7 ADD ADD MSTORE PUSH1 0x40 PUSH1 0x1F NOT PUSH1 0x1F DUP4 ADD AND DUP6 ADD ADD SWAP3 POP POP POP SWAP3 SWAP2 POP POP JUMP JUMPDEST DUP1 CALLDATALOAD PUSH1 0x1 PUSH1 0x1 PUSH1 0xA0 SHL SUB DUP2 AND DUP2 EQ PUSH2 0xAB3 JUMPI PUSH1 0x0 DUP1 REVERT JUMPDEST SWAP2 SWAP1 POP JUMP JUMPDEST PUSH1 0x0 DUP1 PUSH1 0x40 DUP4 DUP6 SUB SLT ISZERO PUSH2 0xACB JUMPI PUSH1 0x0 DUP1 REVERT JUMPDEST PUSH2 0xAD4 DUP4 PUSH2 0xA9C JUMP JUMPDEST SWAP5 PUSH1 0x20 SWAP4 SWAP1 SWAP4 ADD CALLDATALOAD SWAP4 POP POP POP JUMP JUMPDEST PUSH1 0x0 DUP1 PUSH1 0x0 PUSH1 0x60 DUP5 DUP7 SUB SLT ISZERO PUSH2 0xAF7 JUMPI PUSH1 0x0 DUP1 REVERT JUMPDEST PUSH2 0xB00 DUP5 PUSH2 0xA9C JUMP JUMPDEST SWAP3 POP PUSH2 0xB0E PUSH1 0x20 DUP6 ADD PUSH2 0xA9C JUMP JUMPDEST SWAP2 POP PUSH1 0x40 DUP5 ADD CALLDATALOAD SWAP1 POP SWAP3 POP SWAP3 POP SWAP3 JUMP JUMPDEST PUSH1 0x0 PUSH1 0x20 DUP3 DUP5 SUB SLT ISZERO PUSH2 0xB30 JUMPI PUSH1 0x0 DUP1 REVERT JUMPDEST POP CALLDATALOAD SWAP2 SWAP1 POP JUMP JUMPDEST PUSH1 0x0 PUSH1 0x20 DUP3 DUP5 SUB SLT ISZERO PUSH2 0xB49 JUMPI PUSH1 0x0 DUP1 REVERT JUMPDEST DUP2 CALLDATALOAD PUSH1 0x3 DUP2 LT PUSH2 0x4E2 JUMPI PUSH1 0x0 DUP1 REVERT JUMPDEST PUSH1 0x0 PUSH1 0x20 DUP3 DUP5 SUB SLT ISZERO PUSH2 0xB6A JUMPI PUSH1 0x0 DUP1 REVERT JUMPDEST PUSH2 0x4E2 DUP3 PUSH2 0xA9C JUMP JUMPDEST PUSH1 0x0 PUSH1 0x20 DUP3 DUP5 SUB SLT ISZERO PUSH2 0xB85 JUMPI PUSH1 0x0 DUP1 REVERT JUMPDEST DUP2 CALLDATALOAD PUSH1 0xFF DUP2 AND DUP2 EQ PUSH2 0x4E2 JUMPI PUSH1 0x0 DUP1 REVERT JUMPDEST PUSH1 0x0 DUP1 PUSH1 0x40 DUP4 DUP6 SUB SLT ISZERO PUSH2 0xBA9 JUMPI PUSH1 0x0 DUP1 REVERT JUMPDEST PUSH2 0xBB2 DUP4 PUSH2 0xA9C JUMP JUMPDEST SWAP2 POP PUSH2 0xBC0 PUSH1 0x20 DUP5 ADD PUSH2 0xA9C JUMP JUMPDEST SWAP1 POP SWAP3 POP SWAP3 SWAP1 POP JUMP JUMPDEST PUSH1 0x1 DUP2 DUP2 SHR SWAP1 DUP3 AND DUP1 PUSH2 0xBDD JUMPI PUSH1 0x7F DUP3 AND SWAP2 POP JUMPDEST PUSH1 0x20 DUP3 LT DUP2 SUB PUSH2 0xBFD JUMPI PUSH4 0x4E487B71 PUSH1 0xE0 SHL PUSH1 0x0 MSTORE PUSH1 0x22 PUSH1 0x4 MSTORE PUSH1 0x24 PUSH1 0x0 REVERT JUMPDEST POP SWAP2 SWAP1 POP JUMP JUMPDEST DUP1 DUP3 ADD DUP1 DUP3 GT ISZERO PUSH2 0x34F JUMPI PUSH4 0x4E487B71 PUSH1 0xE0 SHL PUSH1 0x0 MSTORE PUSH1 0x11 PUSH1 0x4 MSTORE PUSH1 0x24 PUSH1 0x0 REVERT JUMPDEST PUSH4 0x4E487B71 PUSH1 0xE0 SHL PUSH1 0x0 MSTORE PUSH1 0x21 PUSH1 0x4 MSTORE PUSH1 0x24 PUSH1 0x0 REVERT INVALID LOG2 PUSH5 0x6970667358 0x22 SLT KECCAK256 0xF9 PUSH24 0xE1A865FE9881031897D86D1DEFA0FECDE290BD84E65AE676 DIFFICULTY 0xDA PUSH9 0x57742964736F6C6343 STOP ADDMOD GT STOP CALLER PUSH1 0xA0 PUSH1 0x40 MSTORE ADDRESS PUSH1 0x80 MSTORE CALLVALUE DUP1 ISZERO PUSH3 0x15 JUMPI PUSH1 0x0 DUP1 REVERT JUMPDEST POP PUSH3 0x20 PUSH3 0x30 JUMP JUMPDEST PUSH3 0x2A PUSH3 0x30 JUMP JUMPDEST PUSH3 0xF2 JUMP JUMPDEST PUSH1 0x0 SLOAD PUSH2 0x100 SWAP1 DIV PUSH1 0xFF AND ISZERO PUSH3 0x9D JUMPI PUSH1 0x40 MLOAD PUSH3 0x461BCD PUSH1 0xE5 SHL DUP2 MSTORE PUSH1 0x20 PUSH1 0x4 DUP3 ADD MSTORE PUSH1 0x27 PUSH1 0x24 DUP3 ADD MSTORE PUSH32 0x496E697469616C697A61626C653A20636F6E747261637420697320696E697469 PUSH1 0x44 DUP3 ADD MSTORE PUSH7 0x616C697A696E67 PUSH1 0xC8 SHL PUSH1 0x64 DUP3 ADD MSTORE PUSH1 0x84 ADD PUSH1 0x40 MLOAD DUP1 SWAP2 SUB SWAP1 REVERT JUMPDEST PUSH1 0x0 SLOAD PUSH1 0xFF SWAP1 DUP2 AND LT ISZERO PUSH3 0xF0 JUMPI PUSH1 0x0 DUP1 SLOAD PUSH1 0xFF NOT AND PUSH1 0xFF SWAP1 DUP2 OR SWAP1 SWAP2 SSTORE PUSH1 0x40 MLOAD SWAP1 DUP2 MSTORE PUSH32 0x7F26B83FF96E1F2B6A682F133852F6798A09C465DA95921460CEFB3847402498 SWAP1 PUSH1 0x20 ADD PUSH1 0x40 MLOAD DUP1 SWAP2 SUB SWAP1 LOG1 JUMPDEST JUMP JUMPDEST PUSH1 0x80 MLOAD PUSH2 0x2770 PUSH3 0x12A PUSH1 0x0 CODECOPY PUSH1 0x0 DUP2 DUP2 PUSH2 0x809 ADD MSTORE DUP2 DUP2 PUSH2 0x849 ADD MSTORE DUP2 DUP2 PUSH2 0x92C ADD MSTORE DUP2 DUP2 PUSH2 0x96C ADD MSTORE PUSH2 0x9FB ADD MSTORE PUSH2 0x2770 PUSH1 0x0 RETURN INVALID PUSH1 0x80 PUSH1 0x40 MSTORE PUSH1 0x4 CALLDATASIZE LT PUSH2 0x1F9 JUMPI PUSH1 0x0 CALLDATALOAD PUSH1 0xE0 SHR DUP1 PUSH4 0x70A08231 GT PUSH2 0x10D JUMPI DUP1 PUSH4 0xA457C2D7 GT PUSH2 0xA0 JUMPI DUP1 PUSH4 0xD547741F GT PUSH2 0x6F JUMPI DUP1 PUSH4 0xD547741F EQ PUSH2 0x5B5 JUMPI DUP1 PUSH4 0xD55FD845 EQ PUSH2 0x5D5 JUMPI DUP1 PUSH4 0xDD62ED3E EQ PUSH2 0x5F5 JUMPI DUP1 PUSH4 0xE4C0AAF4 EQ PUSH2 0x615 JUMPI DUP1 PUSH4 0xE63AB1E9 EQ PUSH2 0x635 JUMPI PUSH1 0x0 DUP1 REVERT JUMPDEST DUP1 PUSH4 0xA457C2D7 EQ PUSH2 0x533 JUMPI DUP1 PUSH4 0xA9059CBB EQ PUSH2 0x553 JUMPI DUP1 PUSH4 0xCA15C873 EQ PUSH2 0x573 JUMPI DUP1 PUSH4 0xD5391393 EQ PUSH2 0x593 JUMPI PUSH1 0x0 DUP1 REVERT JUMPDEST DUP1 PUSH4 0x91D14854 GT PUSH2 0xDC JUMPI DUP1 PUSH4 0x91D14854 EQ PUSH2 0x4C9 JUMPI DUP1 PUSH4 0x95D89B41 EQ PUSH2 0x4E9 JUMPI DUP1 PUSH4 0x9DC29FAC EQ PUSH2 0x4FE JUMPI DUP1 PUSH4 0xA217FDDF EQ PUSH2 0x51E JUMPI PUSH1 0x0 DUP1 REVERT JUMPDEST DUP1 PUSH4 0x70A08231 EQ PUSH2 0x43E JUMPI DUP1 PUSH4 0x8456CB59 EQ PUSH2 0x474 JUMPI DUP1 PUSH4 0x8F15B414 EQ PUSH2 0x489 JUMPI DUP1 PUSH4 0x9010D07C EQ PUSH2 0x4A9 JUMPI PUSH1 0x0 DUP1 REVERT JUMPDEST DUP1 PUSH4 0x2F2FF15D GT PUSH2 0x190 JUMPI DUP1 PUSH4 0x39509351 GT PUSH2 0x15F JUMPI DUP1 PUSH4 0x39509351 EQ PUSH2 0x3BD JUMPI DUP1 PUSH4 0x40C10F19 EQ PUSH2 0x3DD JUMPI DUP1 PUSH4 0x4F1EF286 EQ PUSH2 0x3FD JUMPI DUP1 PUSH4 0x52D1902D EQ PUSH2 0x410 JUMPI DUP1 PUSH4 0x5C975ABB EQ PUSH2 0x425 JUMPI PUSH1 0x0 DUP1 REVERT JUMPDEST DUP1 PUSH4 0x2F2FF15D EQ PUSH2 0x33F JUMPI DUP1 PUSH4 0x313CE567 EQ PUSH2 0x361 JUMPI DUP1 PUSH4 0x36568ABE EQ PUSH2 0x37D JUMPI DUP1 PUSH4 0x3659CFE6 EQ PUSH2 0x39D JUMPI PUSH1 0x0 DUP1 REVERT JUMPDEST DUP1 PUSH4 0x18160DDD GT PUSH2 0x1CC JUMPI DUP1 PUSH4 0x18160DDD EQ PUSH2 0x2AE JUMPI DUP1 PUSH4 0x23B872DD EQ PUSH2 0x2CD JUMPI DUP1 PUSH4 0x248A9CA3 EQ PUSH2 0x2ED JUMPI DUP1 PUSH4 0x282C51F3 EQ PUSH2 0x31D JUMPI PUSH1 0x0 DUP1 REVERT JUMPDEST DUP1 PUSH4 0x1FFC9A7 EQ PUSH2 0x1FE JUMPI DUP1 PUSH4 0x6FDDE03 EQ PUSH2 0x233 JUMPI DUP1 PUSH4 0x95EA7B3 EQ PUSH2 0x255 JUMPI DUP1 PUSH4 0xC340A24 EQ PUSH2 0x275 JUMPI JUMPDEST PUSH1 0x0 DUP1 REVERT JUMPDEST CALLVALUE DUP1 ISZERO PUSH2 0x20A JUMPI PUSH1 0x0 DUP1 REVERT JUMPDEST POP PUSH2 0x21E PUSH2 0x219 CALLDATASIZE PUSH1 0x4 PUSH2 0x1FB4 JUMP JUMPDEST PUSH2 0x657 JUMP JUMPDEST PUSH1 0x40 MLOAD SWAP1 ISZERO ISZERO DUP2 MSTORE PUSH1 0x20 ADD JUMPDEST PUSH1 0x40 MLOAD DUP1 SWAP2 SUB SWAP1 RETURN JUMPDEST CALLVALUE DUP1 ISZERO PUSH2 0x23F JUMPI PUSH1 0x0 DUP1 REVERT JUMPDEST POP PUSH2 0x248 PUSH2 0x682 JUMP JUMPDEST PUSH1 0x40 MLOAD PUSH2 0x22A SWAP2 SWAP1 PUSH2 0x2002 JUMP JUMPDEST CALLVALUE DUP1 ISZERO PUSH2 0x261 JUMPI PUSH1 0x0 DUP1 REVERT JUMPDEST POP PUSH2 0x21E PUSH2 0x270 CALLDATASIZE PUSH1 0x4 PUSH2 0x204A JUMP JUMPDEST PUSH2 0x714 JUMP JUMPDEST CALLVALUE DUP1 ISZERO PUSH2 0x281 JUMPI PUSH1 0x0 DUP1 REVERT JUMPDEST POP PUSH2 0x191 SLOAD PUSH2 0x296 SWAP1 PUSH1 0x1 PUSH1 0x1 PUSH1 0xA0 SHL SUB AND DUP2 JUMP JUMPDEST PUSH1 0x40 MLOAD PUSH1 0x1 PUSH1 0x1 PUSH1 0xA0 SHL SUB SWAP1 SWAP2 AND DUP2 MSTORE PUSH1 0x20 ADD PUSH2 0x22A JUMP JUMPDEST CALLVALUE DUP1 ISZERO PUSH2 0x2BA JUMPI PUSH1 0x0 DUP1 REVERT JUMPDEST POP PUSH1 0xCB SLOAD JUMPDEST PUSH1 0x40 MLOAD SWAP1 DUP2 MSTORE PUSH1 0x20 ADD PUSH2 0x22A JUMP JUMPDEST CALLVALUE DUP1 ISZERO PUSH2 0x2D9 JUMPI PUSH1 0x0 DUP1 REVERT JUMPDEST POP PUSH2 0x21E PUSH2 0x2E8 CALLDATASIZE PUSH1 0x4 PUSH2 0x2076 JUMP JUMPDEST PUSH2 0x72C JUMP JUMPDEST CALLVALUE DUP1 ISZERO PUSH2 0x2F9 JUMPI PUSH1 0x0 DUP1 REVERT JUMPDEST POP PUSH2 0x2BF PUSH2 0x308 CALLDATASIZE PUSH1 0x4 PUSH2 0x20B7 JUMP JUMPDEST PUSH1 0x0 SWAP1 DUP2 MSTORE PUSH1 0x65 PUSH1 0x20 MSTORE PUSH1 0x40 SWAP1 KECCAK256 PUSH1 0x1 ADD SLOAD SWAP1 JUMP JUMPDEST CALLVALUE DUP1 ISZERO PUSH2 0x329 JUMPI PUSH1 0x0 DUP1 REVERT JUMPDEST POP PUSH2 0x2BF PUSH1 0x0 DUP1 MLOAD PUSH1 0x20 PUSH2 0x2694 DUP4 CODECOPY DUP2 MLOAD SWAP2 MSTORE DUP2 JUMP JUMPDEST CALLVALUE DUP1 ISZERO PUSH2 0x34B JUMPI PUSH1 0x0 DUP1 REVERT JUMPDEST POP PUSH2 0x35F PUSH2 0x35A CALLDATASIZE PUSH1 0x4 PUSH2 0x20D0 JUMP JUMPDEST PUSH2 0x752 JUMP JUMPDEST STOP JUMPDEST CALLVALUE DUP1 ISZERO PUSH2 0x36D JUMPI PUSH1 0x0 DUP1 REVERT JUMPDEST POP PUSH1 0x40 MLOAD PUSH1 0x12 DUP2 MSTORE PUSH1 0x20 ADD PUSH2 0x22A JUMP JUMPDEST CALLVALUE DUP1 ISZERO PUSH2 0x389 JUMPI PUSH1 0x0 DUP1 REVERT JUMPDEST POP PUSH2 0x35F PUSH2 0x398 CALLDATASIZE PUSH1 0x4 PUSH2 0x20D0 JUMP JUMPDEST PUSH2 0x77C JUMP JUMPDEST CALLVALUE DUP1 ISZERO PUSH2 0x3A9 JUMPI PUSH1 0x0 DUP1 REVERT JUMPDEST POP PUSH2 0x35F PUSH2 0x3B8 CALLDATASIZE PUSH1 0x4 PUSH2 0x2100 JUMP JUMPDEST PUSH2 0x7FF JUMP JUMPDEST CALLVALUE DUP1 ISZERO PUSH2 0x3C9 JUMPI PUSH1 0x0 DUP1 REVERT JUMPDEST POP PUSH2 0x21E PUSH2 0x3D8 CALLDATASIZE PUSH1 0x4 PUSH2 0x204A JUMP JUMPDEST PUSH2 0x8DE JUMP JUMPDEST CALLVALUE DUP1 ISZERO PUSH2 0x3E9 JUMPI PUSH1 0x0 DUP1 REVERT JUMPDEST POP PUSH2 0x35F PUSH2 0x3F8 CALLDATASIZE PUSH1 0x4 PUSH2 0x204A JUMP JUMPDEST PUSH2 0x900 JUMP JUMPDEST PUSH2 0x35F PUSH2 0x40B CALLDATASIZE PUSH1 0x4 PUSH2 0x21A9 JUMP JUMPDEST PUSH2 0x922 JUMP JUMPDEST CALLVALUE DUP1 ISZERO PUSH2 0x41C JUMPI PUSH1 0x0 DUP1 REVERT JUMPDEST POP PUSH2 0x2BF PUSH2 0x9EE JUMP JUMPDEST CALLVALUE DUP1 ISZERO PUSH2 0x431 JUMPI PUSH1 0x0 DUP1 REVERT JUMPDEST POP PUSH2 0x1C4 SLOAD PUSH1 0xFF AND PUSH2 0x21E JUMP JUMPDEST CALLVALUE DUP1 ISZERO PUSH2 0x44A JUMPI PUSH1 0x0 DUP1 REVERT JUMPDEST POP PUSH2 0x2BF PUSH2 0x459 CALLDATASIZE PUSH1 0x4 PUSH2 0x2100 JUMP JUMPDEST PUSH1 0x1 PUSH1 0x1 PUSH1 0xA0 SHL SUB AND PUSH1 0x0 SWAP1 DUP2 MSTORE PUSH1 0xC9 PUSH1 0x20 MSTORE PUSH1 0x40 SWAP1 KECCAK256 SLOAD SWAP1 JUMP JUMPDEST CALLVALUE DUP1 ISZERO PUSH2 0x480 JUMPI PUSH1 0x0 DUP1 REVERT JUMPDEST POP PUSH2 0x35F PUSH2 0xAA1 JUMP JUMPDEST CALLVALUE DUP1 ISZERO PUSH2 0x495 JUMPI PUSH1 0x0 DUP1 REVERT JUMPDEST POP PUSH2 0x35F PUSH2 0x4A4 CALLDATASIZE PUSH1 0x4 PUSH2 0x222D JUMP JUMPDEST PUSH2 0xAC1 JUMP JUMPDEST CALLVALUE DUP1 ISZERO PUSH2 0x4B5 JUMPI PUSH1 0x0 DUP1 REVERT JUMPDEST POP PUSH2 0x296 PUSH2 0x4C4 CALLDATASIZE PUSH1 0x4 PUSH2 0x22B6 JUMP JUMPDEST PUSH2 0xBFA JUMP JUMPDEST CALLVALUE DUP1 ISZERO PUSH2 0x4D5 JUMPI PUSH1 0x0 DUP1 REVERT JUMPDEST POP PUSH2 0x21E PUSH2 0x4E4 CALLDATASIZE PUSH1 0x4 PUSH2 0x20D0 JUMP JUMPDEST PUSH2 0xC12 JUMP JUMPDEST CALLVALUE DUP1 ISZERO PUSH2 0x4F5 JUMPI PUSH1 0x0 DUP1 REVERT JUMPDEST POP PUSH2 0x248 PUSH2 0xC3D JUMP JUMPDEST CALLVALUE DUP1 ISZERO PUSH2 0x50A JUMPI PUSH1 0x0 DUP1 REVERT JUMPDEST POP PUSH2 0x35F PUSH2 0x519 CALLDATASIZE PUSH1 0x4 PUSH2 0x204A JUMP JUMPDEST PUSH2 0xC4C JUMP JUMPDEST CALLVALUE DUP1 ISZERO PUSH2 0x52A JUMPI PUSH1 0x0 DUP1 REVERT JUMPDEST POP PUSH2 0x2BF PUSH1 0x0 DUP2 JUMP JUMPDEST CALLVALUE DUP1 ISZERO PUSH2 0x53F JUMPI PUSH1 0x0 DUP1 REVERT JUMPDEST POP PUSH2 0x21E PUSH2 0x54E CALLDATASIZE PUSH1 0x4 PUSH2 0x204A JUMP JUMPDEST PUSH2 0xC6E JUMP JUMPDEST CALLVALUE DUP1 ISZERO PUSH2 0x55F JUMPI PUSH1 0x0 DUP1 REVERT JUMPDEST POP PUSH2 0x21E PUSH2 0x56E CALLDATASIZE PUSH1 0x4 PUSH2 0x204A JUMP JUMPDEST PUSH2 0xCF4 JUMP JUMPDEST CALLVALUE DUP1 ISZERO PUSH2 0x57F JUMPI PUSH1 0x0 DUP1 REVERT JUMPDEST POP PUSH2 0x2BF PUSH2 0x58E CALLDATASIZE PUSH1 0x4 PUSH2 0x20B7 JUMP JUMPDEST PUSH2 0xD02 JUMP JUMPDEST CALLVALUE DUP1 ISZERO PUSH2 0x59F JUMPI PUSH1 0x0 DUP1 REVERT JUMPDEST POP PUSH2 0x2BF PUSH1 0x0 DUP1 MLOAD PUSH1 0x20 PUSH2 0x271B DUP4 CODECOPY DUP2 MLOAD SWAP2 MSTORE DUP2 JUMP JUMPDEST CALLVALUE DUP1 ISZERO PUSH2 0x5C1 JUMPI PUSH1 0x0 DUP1 REVERT JUMPDEST POP PUSH2 0x35F PUSH2 0x5D0 CALLDATASIZE PUSH1 0x4 PUSH2 0x20D0 JUMP JUMPDEST PUSH2 0xD19 JUMP JUMPDEST CALLVALUE DUP1 ISZERO PUSH2 0x5E1 JUMPI PUSH1 0x0 DUP1 REVERT JUMPDEST POP PUSH2 0x21E PUSH2 0x5F0 CALLDATASIZE PUSH1 0x4 PUSH2 0x2100 JUMP JUMPDEST PUSH2 0xD3E JUMP JUMPDEST CALLVALUE DUP1 ISZERO PUSH2 0x601 JUMPI PUSH1 0x0 DUP1 REVERT JUMPDEST POP PUSH2 0x2BF PUSH2 0x610 CALLDATASIZE PUSH1 0x4 PUSH2 0x22D8 JUMP JUMPDEST PUSH2 0xD68 JUMP JUMPDEST CALLVALUE DUP1 ISZERO PUSH2 0x621 JUMPI PUSH1 0x0 DUP1 REVERT JUMPDEST POP PUSH2 0x35F PUSH2 0x630 CALLDATASIZE PUSH1 0x4 PUSH2 0x2100 JUMP JUMPDEST PUSH2 0xD93 JUMP JUMPDEST CALLVALUE DUP1 ISZERO PUSH2 0x641 JUMPI PUSH1 0x0 DUP1 REVERT JUMPDEST POP PUSH2 0x2BF PUSH1 0x0 DUP1 MLOAD PUSH1 0x20 PUSH2 0x26D4 DUP4 CODECOPY DUP2 MLOAD SWAP2 MSTORE DUP2 JUMP JUMPDEST PUSH1 0x0 PUSH1 0x1 PUSH1 0x1 PUSH1 0xE0 SHL SUB NOT DUP3 AND PUSH4 0x5A05180F PUSH1 0xE0 SHL EQ DUP1 PUSH2 0x67C JUMPI POP PUSH2 0x67C DUP3 PUSH2 0xDBE JUMP JUMPDEST SWAP3 SWAP2 POP POP JUMP JUMPDEST PUSH1 0x60 PUSH1 0xCC DUP1 SLOAD PUSH2 0x691 SWAP1 PUSH2 0x2306 JUMP JUMPDEST DUP1 PUSH1 0x1F ADD PUSH1 0x20 DUP1 SWAP2 DIV MUL PUSH1 0x20 ADD PUSH1 0x40 MLOAD SWAP1 DUP2 ADD PUSH1 0x40 MSTORE DUP1 SWAP3 SWAP2 SWAP1 DUP2 DUP2 MSTORE PUSH1 0x20 ADD DUP3 DUP1 SLOAD PUSH2 0x6BD SWAP1 PUSH2 0x2306 JUMP JUMPDEST DUP1 ISZERO PUSH2 0x70A JUMPI DUP1 PUSH1 0x1F LT PUSH2 0x6DF JUMPI PUSH2 0x100 DUP1 DUP4 SLOAD DIV MUL DUP4 MSTORE SWAP2 PUSH1 0x20 ADD SWAP2 PUSH2 0x70A JUMP JUMPDEST DUP3 ADD SWAP2 SWAP1 PUSH1 0x0 MSTORE PUSH1 0x20 PUSH1 0x0 KECCAK256 SWAP1 JUMPDEST DUP2 SLOAD DUP2 MSTORE SWAP1 PUSH1 0x1 ADD SWAP1 PUSH1 0x20 ADD DUP1 DUP4 GT PUSH2 0x6ED JUMPI DUP3 SWAP1 SUB PUSH1 0x1F AND DUP3 ADD SWAP2 JUMPDEST POP POP POP POP POP SWAP1 POP SWAP1 JUMP JUMPDEST PUSH1 0x0 CALLER PUSH2 0x722 DUP2 DUP6 DUP6 PUSH2 0xDF3 JUMP JUMPDEST POP PUSH1 0x1 SWAP4 SWAP3 POP POP POP JUMP JUMPDEST PUSH1 0x0 CALLER PUSH2 0x73A DUP6 DUP3 DUP6 PUSH2 0xF17 JUMP JUMPDEST PUSH2 0x745 DUP6 DUP6 DUP6 PUSH2 0xF91 JUMP JUMPDEST PUSH1 0x1 SWAP2 POP POP JUMPDEST SWAP4 SWAP3 POP POP POP JUMP JUMPDEST PUSH1 0x0 DUP3 DUP2 MSTORE PUSH1 0x65 PUSH1 0x20 MSTORE PUSH1 0x40 SWAP1 KECCAK256 PUSH1 0x1 ADD SLOAD PUSH2 0x76D DUP2 PUSH2 0x1147 JUMP JUMPDEST PUSH2 0x777 DUP4 DUP4 PUSH2 0x1151 JUMP JUMPDEST POP POP POP JUMP JUMPDEST PUSH1 0x1 PUSH1 0x1 PUSH1 0xA0 SHL SUB DUP2 AND CALLER EQ PUSH2 0x7F1 JUMPI PUSH1 0x40 MLOAD PUSH3 0x461BCD PUSH1 0xE5 SHL DUP2 MSTORE PUSH1 0x20 PUSH1 0x4 DUP3 ADD MSTORE PUSH1 0x2F PUSH1 0x24 DUP3 ADD MSTORE PUSH32 0x416363657373436F6E74726F6C3A2063616E206F6E6C792072656E6F756E6365 PUSH1 0x44 DUP3 ADD MSTORE PUSH15 0x103937B632B9903337B91039B2B633 PUSH1 0x89 SHL PUSH1 0x64 DUP3 ADD MSTORE PUSH1 0x84 ADD JUMPDEST PUSH1 0x40 MLOAD DUP1 SWAP2 SUB SWAP1 REVERT JUMPDEST PUSH2 0x7FB DUP3 DUP3 PUSH2 0x1173 JUMP JUMPDEST POP POP JUMP JUMPDEST PUSH1 0x1 PUSH1 0x1 PUSH1 0xA0 SHL SUB PUSH32 0x0 AND ADDRESS SUB PUSH2 0x847 JUMPI PUSH1 0x40 MLOAD PUSH3 0x461BCD PUSH1 0xE5 SHL DUP2 MSTORE PUSH1 0x4 ADD PUSH2 0x7E8 SWAP1 PUSH2 0x2340 JUMP JUMPDEST PUSH32 0x0 PUSH1 0x1 PUSH1 0x1 PUSH1 0xA0 SHL SUB AND PUSH2 0x890 PUSH1 0x0 DUP1 MLOAD PUSH1 0x20 PUSH2 0x26B4 DUP4 CODECOPY DUP2 MLOAD SWAP2 MSTORE SLOAD PUSH1 0x1 PUSH1 0x1 PUSH1 0xA0 SHL SUB AND SWAP1 JUMP JUMPDEST PUSH1 0x1 PUSH1 0x1 PUSH1 0xA0 SHL SUB AND EQ PUSH2 0x8B6 JUMPI PUSH1 0x40 MLOAD PUSH3 0x461BCD PUSH1 0xE5 SHL DUP2 MSTORE PUSH1 0x4 ADD PUSH2 0x7E8 SWAP1 PUSH2 0x238C JUMP JUMPDEST PUSH2 0x8BF DUP2 PUSH2 0x1195 JUMP JUMPDEST PUSH1 0x40 DUP1 MLOAD PUSH1 0x0 DUP1 DUP3 MSTORE PUSH1 0x20 DUP3 ADD SWAP1 SWAP3 MSTORE PUSH2 0x8DB SWAP2 DUP4 SWAP2 SWAP1 PUSH2 0x119D JUMP JUMPDEST POP JUMP JUMPDEST PUSH1 0x0 CALLER PUSH2 0x722 DUP2 DUP6 DUP6 PUSH2 0x8F1 DUP4 DUP4 PUSH2 0xD68 JUMP JUMPDEST PUSH2 0x8FB SWAP2 SWAP1 PUSH2 0x23EE JUMP JUMPDEST PUSH2 0xDF3 JUMP JUMPDEST PUSH1 0x0 DUP1 MLOAD PUSH1 0x20 PUSH2 0x271B DUP4 CODECOPY DUP2 MLOAD SWAP2 MSTORE PUSH2 0x918 DUP2 PUSH2 0x1147 JUMP JUMPDEST PUSH2 0x777 DUP4 DUP4 PUSH2 0x1308 JUMP JUMPDEST PUSH1 0x1 PUSH1 0x1 PUSH1 0xA0 SHL SUB PUSH32 0x0 AND ADDRESS SUB PUSH2 0x96A JUMPI PUSH1 0x40 MLOAD PUSH3 0x461BCD PUSH1 0xE5 SHL DUP2 MSTORE PUSH1 0x4 ADD PUSH2 0x7E8 SWAP1 PUSH2 0x2340 JUMP JUMPDEST PUSH32 0x0 PUSH1 0x1 PUSH1 0x1 PUSH1 0xA0 SHL SUB AND PUSH2 0x9B3 PUSH1 0x0 DUP1 MLOAD PUSH1 0x20 PUSH2 0x26B4 DUP4 CODECOPY DUP2 MLOAD SWAP2 MSTORE SLOAD PUSH1 0x1 PUSH1 0x1 PUSH1 0xA0 SHL SUB AND SWAP1 JUMP JUMPDEST PUSH1 0x1 PUSH1 0x1 PUSH1 0xA0 SHL SUB AND EQ PUSH2 0x9D9 JUMPI PUSH1 0x40 MLOAD PUSH3 0x461BCD PUSH1 0xE5 SHL DUP2 MSTORE PUSH1 0x4 ADD PUSH2 0x7E8 SWAP1 PUSH2 0x238C JUMP JUMPDEST PUSH2 0x9E2 DUP3 PUSH2 0x1195 JUMP JUMPDEST PUSH2 0x7FB DUP3 DUP3 PUSH1 0x1 PUSH2 0x119D JUMP JUMPDEST PUSH1 0x0 ADDRESS PUSH1 0x1 PUSH1 0x1 PUSH1 0xA0 SHL SUB PUSH32 0x0 AND EQ PUSH2 0xA8E JUMPI PUSH1 0x40 MLOAD PUSH3 0x461BCD PUSH1 0xE5 SHL DUP2 MSTORE PUSH1 0x20 PUSH1 0x4 DUP3 ADD MSTORE PUSH1 0x38 PUSH1 0x24 DUP3 ADD MSTORE PUSH32 0x555550535570677261646561626C653A206D757374206E6F742062652063616C PUSH1 0x44 DUP3 ADD MSTORE PUSH32 0x6C6564207468726F7567682064656C656761746563616C6C0000000000000000 PUSH1 0x64 DUP3 ADD MSTORE PUSH1 0x84 ADD PUSH2 0x7E8 JUMP JUMPDEST POP PUSH1 0x0 DUP1 MLOAD PUSH1 0x20 PUSH2 0x26B4 DUP4 CODECOPY DUP2 MLOAD SWAP2 MSTORE SWAP1 JUMP JUMPDEST PUSH1 0x0 DUP1 MLOAD PUSH1 0x20 PUSH2 0x26D4 DUP4 CODECOPY DUP2 MLOAD SWAP2 MSTORE PUSH2 0xAB9 DUP2 PUSH2 0x1147 JUMP JUMPDEST PUSH2 0x8DB PUSH2 0x13D5 JUMP JUMPDEST PUSH1 0x0 SLOAD PUSH2 0x100 SWAP1 DIV PUSH1 0xFF AND ISZERO DUP1 DUP1 ISZERO PUSH2 0xAE1 JUMPI POP PUSH1 0x0 SLOAD PUSH1 0x1 PUSH1 0xFF SWAP1 SWAP2 AND LT JUMPDEST DUP1 PUSH2 0xAFB JUMPI POP ADDRESS EXTCODESIZE ISZERO DUP1 ISZERO PUSH2 0xAFB JUMPI POP PUSH1 0x0 SLOAD PUSH1 0xFF AND PUSH1 0x1 EQ JUMPDEST PUSH2 0xB5E JUMPI PUSH1 0x40 MLOAD PUSH3 0x461BCD PUSH1 0xE5 SHL DUP2 MSTORE PUSH1 0x20 PUSH1 0x4 DUP3 ADD MSTORE PUSH1 0x2E PUSH1 0x24 DUP3 ADD MSTORE PUSH32 0x496E697469616C697A61626C653A20636F6E747261637420697320616C726561 PUSH1 0x44 DUP3 ADD MSTORE PUSH14 0x191E481A5B9A5D1A585B1A5E9959 PUSH1 0x92 SHL PUSH1 0x64 DUP3 ADD MSTORE PUSH1 0x84 ADD PUSH2 0x7E8 JUMP JUMPDEST PUSH1 0x0 DUP1 SLOAD PUSH1 0xFF NOT AND PUSH1 0x1 OR SWAP1 SSTORE DUP1 ISZERO PUSH2 0xB81 JUMPI PUSH1 0x0 DUP1 SLOAD PUSH2 0xFF00 NOT AND PUSH2 0x100 OR SWAP1 SSTORE JUMPDEST PUSH2 0xB8D DUP6 DUP6 DUP6 DUP6 PUSH2 0x1430 JUMP JUMPDEST PUSH2 0xB95 PUSH2 0x14B5 JUMP JUMPDEST PUSH2 0xBAD PUSH1 0x0 DUP1 MLOAD PUSH1 0x20 PUSH2 0x26D4 DUP4 CODECOPY DUP2 MLOAD SWAP2 MSTORE DUP5 PUSH2 0x14E6 JUMP JUMPDEST DUP1 ISZERO PUSH2 0xBF3 JUMPI PUSH1 0x0 DUP1 SLOAD PUSH2 0xFF00 NOT AND SWAP1 SSTORE PUSH1 0x40 MLOAD PUSH1 0x1 DUP2 MSTORE PUSH32 0x7F26B83FF96E1F2B6A682F133852F6798A09C465DA95921460CEFB3847402498 SWAP1 PUSH1 0x20 ADD PUSH1 0x40 MLOAD DUP1 SWAP2 SUB SWAP1 LOG1 JUMPDEST POP POP POP POP POP JUMP JUMPDEST PUSH1 0x0 DUP3 DUP2 MSTORE PUSH1 0x97 PUSH1 0x20 MSTORE PUSH1 0x40 DUP2 KECCAK256 PUSH2 0x74B SWAP1 DUP4 PUSH2 0x14F0 JUMP JUMPDEST PUSH1 0x0 SWAP2 DUP3 MSTORE PUSH1 0x65 PUSH1 0x20 SWAP1 DUP2 MSTORE PUSH1 0x40 DUP1 DUP5 KECCAK256 PUSH1 0x1 PUSH1 0x1 PUSH1 0xA0 SHL SUB SWAP4 SWAP1 SWAP4 AND DUP5 MSTORE SWAP2 SWAP1 MSTORE SWAP1 KECCAK256 SLOAD PUSH1 0xFF AND SWAP1 JUMP JUMPDEST PUSH1 0x60 PUSH1 0xCD DUP1 SLOAD PUSH2 0x691 SWAP1 PUSH2 0x2306 JUMP JUMPDEST PUSH1 0x0 DUP1 MLOAD PUSH1 0x20 PUSH2 0x2694 DUP4 CODECOPY DUP2 MLOAD SWAP2 MSTORE PUSH2 0xC64 DUP2 PUSH2 0x1147 JUMP JUMPDEST PUSH2 0x777 DUP4 DUP4 PUSH2 0x14FC JUMP JUMPDEST PUSH1 0x0 CALLER DUP2 PUSH2 0xC7C DUP3 DUP7 PUSH2 0xD68 JUMP JUMPDEST SWAP1 POP DUP4 DUP2 LT ISZERO PUSH2 0xCDC JUMPI PUSH1 0x40 MLOAD PUSH3 0x461BCD PUSH1 0xE5 SHL DUP2 MSTORE PUSH1 0x20 PUSH1 0x4 DUP3 ADD MSTORE PUSH1 0x25 PUSH1 0x24 DUP3 ADD MSTORE PUSH32 0x45524332303A2064656372656173656420616C6C6F77616E63652062656C6F77 PUSH1 0x44 DUP3 ADD MSTORE PUSH5 0x207A65726F PUSH1 0xD8 SHL PUSH1 0x64 DUP3 ADD MSTORE PUSH1 0x84 ADD PUSH2 0x7E8 JUMP JUMPDEST PUSH2 0xCE9 DUP3 DUP7 DUP7 DUP5 SUB PUSH2 0xDF3 JUMP JUMPDEST POP PUSH1 0x1 SWAP5 SWAP4 POP POP POP POP JUMP JUMPDEST PUSH1 0x0 CALLER PUSH2 0x722 DUP2 DUP6 DUP6 PUSH2 0xF91 JUMP JUMPDEST PUSH1 0x0 DUP2 DUP2 MSTORE PUSH1 0x97 PUSH1 0x20 MSTORE PUSH1 0x40 DUP2 KECCAK256 PUSH2 0x67C SWAP1 PUSH2 0x163C JUMP JUMPDEST PUSH1 0x0 DUP3 DUP2 MSTORE PUSH1 0x65 PUSH1 0x20 MSTORE PUSH1 0x40 SWAP1 KECCAK256 PUSH1 0x1 ADD SLOAD PUSH2 0xD34 DUP2 PUSH2 0x1147 JUMP JUMPDEST PUSH2 0x777 DUP4 DUP4 PUSH2 0x1173 JUMP JUMPDEST PUSH1 0x0 PUSH2 0xD58 PUSH1 0x0 DUP1 MLOAD PUSH1 0x20 PUSH2 0x26D4 DUP4 CODECOPY DUP2 MLOAD SWAP2 MSTORE DUP4 PUSH2 0xC12 JUMP JUMPDEST DUP1 ISZERO PUSH2 0x67C JUMPI POP PUSH2 0x67C DUP3 PUSH2 0x1646 JUMP JUMPDEST PUSH1 0x1 PUSH1 0x1 PUSH1 0xA0 SHL SUB SWAP2 DUP3 AND PUSH1 0x0 SWAP1 DUP2 MSTORE PUSH1 0xCA PUSH1 0x20 SWAP1 DUP2 MSTORE PUSH1 0x40 DUP1 DUP4 KECCAK256 SWAP4 SWAP1 SWAP5 AND DUP3 MSTORE SWAP2 SWAP1 SWAP2 MSTORE KECCAK256 SLOAD SWAP1 JUMP JUMPDEST PUSH2 0xD9B PUSH2 0x1691 JUMP JUMPDEST PUSH2 0x191 DUP1 SLOAD PUSH1 0x1 PUSH1 0x1 PUSH1 0xA0 SHL SUB NOT AND PUSH1 0x1 PUSH1 0x1 PUSH1 0xA0 SHL SUB SWAP3 SWAP1 SWAP3 AND SWAP2 SWAP1 SWAP2 OR SWAP1 SSTORE JUMP JUMPDEST PUSH1 0x0 PUSH1 0x1 PUSH1 0x1 PUSH1 0xE0 SHL SUB NOT DUP3 AND PUSH4 0x7965DB0B PUSH1 0xE0 SHL EQ DUP1 PUSH2 0x67C JUMPI POP PUSH4 0x1FFC9A7 PUSH1 0xE0 SHL PUSH1 0x1 PUSH1 0x1 PUSH1 0xE0 SHL SUB NOT DUP4 AND EQ PUSH2 0x67C JUMP JUMPDEST PUSH1 0x1 PUSH1 0x1 PUSH1 0xA0 SHL SUB DUP4 AND PUSH2 0xE55 JUMPI PUSH1 0x40 MLOAD PUSH3 0x461BCD PUSH1 0xE5 SHL DUP2 MSTORE PUSH1 0x20 PUSH1 0x4 DUP3 ADD MSTORE PUSH1 0x24 DUP1 DUP3 ADD MSTORE PUSH32 0x45524332303A20617070726F76652066726F6D20746865207A65726F20616464 PUSH1 0x44 DUP3 ADD MSTORE PUSH4 0x72657373 PUSH1 0xE0 SHL PUSH1 0x64 DUP3 ADD MSTORE PUSH1 0x84 ADD PUSH2 0x7E8 JUMP JUMPDEST PUSH1 0x1 PUSH1 0x1 PUSH1 0xA0 SHL SUB DUP3 AND PUSH2 0xEB6 JUMPI PUSH1 0x40 MLOAD PUSH3 0x461BCD PUSH1 0xE5 SHL DUP2 MSTORE PUSH1 0x20 PUSH1 0x4 DUP3 ADD MSTORE PUSH1 0x22 PUSH1 0x24 DUP3 ADD MSTORE PUSH32 0x45524332303A20617070726F766520746F20746865207A65726F206164647265 PUSH1 0x44 DUP3 ADD MSTORE PUSH2 0x7373 PUSH1 0xF0 SHL PUSH1 0x64 DUP3 ADD MSTORE PUSH1 0x84 ADD PUSH2 0x7E8 JUMP JUMPDEST PUSH1 0x1 PUSH1 0x1 PUSH1 0xA0 SHL SUB DUP4 DUP2 AND PUSH1 0x0 DUP2 DUP2 MSTORE PUSH1 0xCA PUSH1 0x20 SWAP1 DUP2 MSTORE PUSH1 0x40 DUP1 DUP4 KECCAK256 SWAP5 DUP8 AND DUP1 DUP5 MSTORE SWAP5 DUP3 MSTORE SWAP2 DUP3 SWAP1 KECCAK256 DUP6 SWAP1 SSTORE SWAP1 MLOAD DUP5 DUP2 MSTORE PUSH32 0x8C5BE1E5EBEC7D5BD14F71427D1E84F3DD0314C0F7B2291E5B200AC8C7C3B925 SWAP2 ADD PUSH1 0x40 MLOAD DUP1 SWAP2 SUB SWAP1 LOG3 POP POP POP JUMP JUMPDEST PUSH1 0x0 PUSH2 0xF23 DUP5 DUP5 PUSH2 0xD68 JUMP JUMPDEST SWAP1 POP PUSH1 0x0 NOT DUP2 EQ PUSH2 0xF8B JUMPI DUP2 DUP2 LT ISZERO PUSH2 0xF7E JUMPI PUSH1 0x40 MLOAD PUSH3 0x461BCD PUSH1 0xE5 SHL DUP2 MSTORE PUSH1 0x20 PUSH1 0x4 DUP3 ADD MSTORE PUSH1 0x1D PUSH1 0x24 DUP3 ADD MSTORE PUSH32 0x45524332303A20696E73756666696369656E7420616C6C6F77616E6365000000 PUSH1 0x44 DUP3 ADD MSTORE PUSH1 0x64 ADD PUSH2 0x7E8 JUMP JUMPDEST PUSH2 0xF8B DUP5 DUP5 DUP5 DUP5 SUB PUSH2 0xDF3 JUMP JUMPDEST POP POP POP POP JUMP JUMPDEST PUSH1 0x1 PUSH1 0x1 PUSH1 0xA0 SHL SUB DUP4 AND PUSH2 0xFF5 JUMPI PUSH1 0x40 MLOAD PUSH3 0x461BCD PUSH1 0xE5 SHL DUP2 MSTORE PUSH1 0x20 PUSH1 0x4 DUP3 ADD MSTORE PUSH1 0x25 PUSH1 0x24 DUP3 ADD MSTORE PUSH32 0x45524332303A207472616E736665722066726F6D20746865207A65726F206164 PUSH1 0x44 DUP3 ADD MSTORE PUSH5 0x6472657373 PUSH1 0xD8 SHL PUSH1 0x64 DUP3 ADD MSTORE PUSH1 0x84 ADD PUSH2 0x7E8 JUMP JUMPDEST PUSH1 0x1 PUSH1 0x1 PUSH1 0xA0 SHL SUB DUP3 AND PUSH2 0x1057 JUMPI PUSH1 0x40 MLOAD PUSH3 0x461BCD PUSH1 0xE5 SHL DUP2 MSTORE PUSH1 0x20 PUSH1 0x4 DUP3 ADD MSTORE PUSH1 0x23 PUSH1 0x24 DUP3 ADD MSTORE PUSH32 0x45524332303A207472616E7366657220746F20746865207A65726F2061646472 PUSH1 0x44 DUP3 ADD MSTORE PUSH3 0x657373 PUSH1 0xE8 SHL PUSH1 0x64 DUP3 ADD MSTORE PUSH1 0x84 ADD PUSH2 0x7E8 JUMP JUMPDEST PUSH2 0x1062 DUP4 DUP4 DUP4 PUSH2 0x171B JUMP JUMPDEST PUSH1 0x1 PUSH1 0x1 PUSH1 0xA0 SHL SUB DUP4 AND PUSH1 0x0 SWAP1 DUP2 MSTORE PUSH1 0xC9 PUSH1 0x20 MSTORE PUSH1 0x40 SWAP1 KECCAK256 SLOAD DUP2 DUP2 LT ISZERO PUSH2 0x10DA JUMPI PUSH1 0x40 MLOAD PUSH3 0x461BCD PUSH1 0xE5 SHL DUP2 MSTORE PUSH1 0x20 PUSH1 0x4 DUP3 ADD MSTORE PUSH1 0x26 PUSH1 0x24 DUP3 ADD MSTORE PUSH32 0x45524332303A207472616E7366657220616D6F756E7420657863656564732062 PUSH1 0x44 DUP3 ADD MSTORE PUSH6 0x616C616E6365 PUSH1 0xD0 SHL PUSH1 0x64 DUP3 ADD MSTORE PUSH1 0x84 ADD PUSH2 0x7E8 JUMP JUMPDEST PUSH1 0x1 PUSH1 0x1 PUSH1 0xA0 SHL SUB DUP1 DUP6 AND PUSH1 0x0 DUP2 DUP2 MSTORE PUSH1 0xC9 PUSH1 0x20 MSTORE PUSH1 0x40 DUP1 DUP3 KECCAK256 DUP7 DUP7 SUB SWAP1 SSTORE SWAP3 DUP7 AND DUP1 DUP3 MSTORE SWAP1 DUP4 SWAP1 KECCAK256 DUP1 SLOAD DUP7 ADD SWAP1 SSTORE SWAP2 MLOAD PUSH32 0xDDF252AD1BE2C89B69C2B068FC378DAA952BA7F163C4A11628F55A4DF523B3EF SWAP1 PUSH2 0x113A SWAP1 DUP7 DUP2 MSTORE PUSH1 0x20 ADD SWAP1 JUMP JUMPDEST PUSH1 0x40 MLOAD DUP1 SWAP2 SUB SWAP1 LOG3 PUSH2 0xF8B JUMP JUMPDEST PUSH2 0x8DB DUP2 CALLER PUSH2 0x1726 JUMP JUMPDEST PUSH2 0x115B DUP3 DUP3 PUSH2 0x177F JUMP JUMPDEST PUSH1 0x0 DUP3 DUP2 MSTORE PUSH1 0x97 PUSH1 0x20 MSTORE PUSH1 0x40 SWAP1 KECCAK256 PUSH2 0x777 SWAP1 DUP3 PUSH2 0x1805 JUMP JUMPDEST PUSH2 0x117D DUP3 DUP3 PUSH2 0x181A JUMP JUMPDEST PUSH1 0x0 DUP3 DUP2 MSTORE PUSH1 0x97 PUSH1 0x20 MSTORE PUSH1 0x40 SWAP1 KECCAK256 PUSH2 0x777 SWAP1 DUP3 PUSH2 0x1881 JUMP JUMPDEST PUSH2 0x8DB PUSH2 0x1691 JUMP JUMPDEST PUSH32 0x4910FDFA16FED3260ED0E7147F7CC6DA11A60208B5B9406D12A635614FFD9143 SLOAD PUSH1 0xFF AND ISZERO PUSH2 0x11D0 JUMPI PUSH2 0x777 DUP4 PUSH2 0x1896 JUMP JUMPDEST DUP3 PUSH1 0x1 PUSH1 0x1 PUSH1 0xA0 SHL SUB AND PUSH4 0x52D1902D PUSH1 0x40 MLOAD DUP2 PUSH4 0xFFFFFFFF AND PUSH1 0xE0 SHL DUP2 MSTORE PUSH1 0x4 ADD PUSH1 0x20 PUSH1 0x40 MLOAD DUP1 DUP4 SUB DUP2 DUP7 GAS STATICCALL SWAP3 POP POP POP DUP1 ISZERO PUSH2 0x122A JUMPI POP PUSH1 0x40 DUP1 MLOAD PUSH1 0x1F RETURNDATASIZE SWAP1 DUP2 ADD PUSH1 0x1F NOT AND DUP3 ADD SWAP1 SWAP3 MSTORE PUSH2 0x1227 SWAP2 DUP2 ADD SWAP1 PUSH2 0x2401 JUMP JUMPDEST PUSH1 0x1 JUMPDEST PUSH2 0x128D JUMPI PUSH1 0x40 MLOAD PUSH3 0x461BCD PUSH1 0xE5 SHL DUP2 MSTORE PUSH1 0x20 PUSH1 0x4 DUP3 ADD MSTORE PUSH1 0x2E PUSH1 0x24 DUP3 ADD MSTORE PUSH32 0x45524331393637557067726164653A206E657720696D706C656D656E74617469 PUSH1 0x44 DUP3 ADD MSTORE PUSH14 0x6F6E206973206E6F742055555053 PUSH1 0x90 SHL PUSH1 0x64 DUP3 ADD MSTORE PUSH1 0x84 ADD PUSH2 0x7E8 JUMP JUMPDEST PUSH1 0x0 DUP1 MLOAD PUSH1 0x20 PUSH2 0x26B4 DUP4 CODECOPY DUP2 MLOAD SWAP2 MSTORE DUP2 EQ PUSH2 0x12FC JUMPI PUSH1 0x40 MLOAD PUSH3 0x461BCD PUSH1 0xE5 SHL DUP2 MSTORE PUSH1 0x20 PUSH1 0x4 DUP3 ADD MSTORE PUSH1 0x29 PUSH1 0x24 DUP3 ADD MSTORE PUSH32 0x45524331393637557067726164653A20756E737570706F727465642070726F78 PUSH1 0x44 DUP3 ADD MSTORE PUSH9 0x1A58589B1955555251 PUSH1 0xBA SHL PUSH1 0x64 DUP3 ADD MSTORE PUSH1 0x84 ADD PUSH2 0x7E8 JUMP JUMPDEST POP PUSH2 0x777 DUP4 DUP4 DUP4 PUSH2 0x1932 JUMP JUMPDEST PUSH1 0x1 PUSH1 0x1 PUSH1 0xA0 SHL SUB DUP3 AND PUSH2 0x135E JUMPI PUSH1 0x40 MLOAD PUSH3 0x461BCD PUSH1 0xE5 SHL DUP2 MSTORE PUSH1 0x20 PUSH1 0x4 DUP3 ADD MSTORE PUSH1 0x1F PUSH1 0x24 DUP3 ADD MSTORE PUSH32 0x45524332303A206D696E7420746F20746865207A65726F206164647265737300 PUSH1 0x44 DUP3 ADD MSTORE PUSH1 0x64 ADD PUSH2 0x7E8 JUMP JUMPDEST PUSH2 0x136A PUSH1 0x0 DUP4 DUP4 PUSH2 0x171B JUMP JUMPDEST DUP1 PUSH1 0xCB PUSH1 0x0 DUP3 DUP3 SLOAD PUSH2 0x137C SWAP2 SWAP1 PUSH2 0x23EE JUMP JUMPDEST SWAP1 SWAP2 SSTORE POP POP PUSH1 0x1 PUSH1 0x1 PUSH1 0xA0 SHL SUB DUP3 AND PUSH1 0x0 DUP2 DUP2 MSTORE PUSH1 0xC9 PUSH1 0x20 SWAP1 DUP2 MSTORE PUSH1 0x40 DUP1 DUP4 KECCAK256 DUP1 SLOAD DUP7 ADD SWAP1 SSTORE MLOAD DUP5 DUP2 MSTORE PUSH32 0xDDF252AD1BE2C89B69C2B068FC378DAA952BA7F163C4A11628F55A4DF523B3EF SWAP2 ADD PUSH1 0x40 MLOAD DUP1 SWAP2 SUB SWAP1 LOG3 POP POP JUMP JUMPDEST PUSH2 0x13DD PUSH2 0x1957 JUMP JUMPDEST PUSH2 0x1C4 DUP1 SLOAD PUSH1 0xFF NOT AND PUSH1 0x1 OR SWAP1 SSTORE PUSH32 0x62E78CEA01BEE320CD4E420270B5EA74000D11B0C9F74754EBDBFC544B05A258 PUSH2 0x1413 CALLER SWAP1 JUMP JUMPDEST PUSH1 0x40 MLOAD PUSH1 0x1 PUSH1 0x1 PUSH1 0xA0 SHL SUB SWAP1 SWAP2 AND DUP2 MSTORE PUSH1 0x20 ADD PUSH1 0x40 MLOAD DUP1 SWAP2 SUB SWAP1 LOG1 JUMP JUMPDEST PUSH1 0x0 SLOAD PUSH2 0x100 SWAP1 DIV PUSH1 0xFF AND PUSH2 0x1457 JUMPI PUSH1 0x40 MLOAD PUSH3 0x461BCD PUSH1 0xE5 SHL DUP2 MSTORE PUSH1 0x4 ADD PUSH2 0x7E8 SWAP1 PUSH2 0x241A JUMP JUMPDEST PUSH2 0x1461 DUP5 DUP5 PUSH2 0x199E JUMP JUMPDEST PUSH2 0x1469 PUSH2 0x19CF JUMP JUMPDEST PUSH2 0x1471 PUSH2 0x19CF JUMP JUMPDEST PUSH2 0x147A DUP2 PUSH2 0x19F6 JUMP JUMPDEST PUSH2 0x1485 PUSH1 0x0 DUP4 PUSH2 0x14E6 JUMP JUMPDEST PUSH2 0x149D PUSH1 0x0 DUP1 MLOAD PUSH1 0x20 PUSH2 0x271B DUP4 CODECOPY DUP2 MLOAD SWAP2 MSTORE DUP4 PUSH2 0x14E6 JUMP JUMPDEST PUSH2 0xF8B PUSH1 0x0 DUP1 MLOAD PUSH1 0x20 PUSH2 0x2694 DUP4 CODECOPY DUP2 MLOAD SWAP2 MSTORE DUP4 PUSH2 0x14E6 JUMP JUMPDEST PUSH1 0x0 SLOAD PUSH2 0x100 SWAP1 DIV PUSH1 0xFF AND PUSH2 0x14DC JUMPI PUSH1 0x40 MLOAD PUSH3 0x461BCD PUSH1 0xE5 SHL DUP2 MSTORE PUSH1 0x4 ADD PUSH2 0x7E8 SWAP1 PUSH2 0x241A JUMP JUMPDEST PUSH2 0x14E4 PUSH2 0x1A26 JUMP JUMPDEST JUMP JUMPDEST PUSH2 0x7FB DUP3 DUP3 PUSH2 0x1151 JUMP JUMPDEST PUSH1 0x0 PUSH2 0x74B DUP4 DUP4 PUSH2 0x1A5A JUMP JUMPDEST PUSH1 0x1 PUSH1 0x1 PUSH1 0xA0 SHL SUB DUP3 AND PUSH2 0x155C JUMPI PUSH1 0x40 MLOAD PUSH3 0x461BCD PUSH1 0xE5 SHL DUP2 MSTORE PUSH1 0x20 PUSH1 0x4 DUP3 ADD MSTORE PUSH1 0x21 PUSH1 0x24 DUP3 ADD MSTORE PUSH32 0x45524332303A206275726E2066726F6D20746865207A65726F20616464726573 PUSH1 0x44 DUP3 ADD MSTORE PUSH1 0x73 PUSH1 0xF8 SHL PUSH1 0x64 DUP3 ADD MSTORE PUSH1 0x84 ADD PUSH2 0x7E8 JUMP JUMPDEST PUSH2 0x1568 DUP3 PUSH1 0x0 DUP4 PUSH2 0x171B JUMP JUMPDEST PUSH1 0x1 PUSH1 0x1 PUSH1 0xA0 SHL SUB DUP3 AND PUSH1 0x0 SWAP1 DUP2 MSTORE PUSH1 0xC9 PUSH1 0x20 MSTORE PUSH1 0x40 SWAP1 KECCAK256 SLOAD DUP2 DUP2 LT ISZERO PUSH2 0x15DC JUMPI PUSH1 0x40 MLOAD PUSH3 0x461BCD PUSH1 0xE5 SHL DUP2 MSTORE PUSH1 0x20 PUSH1 0x4 DUP3 ADD MSTORE PUSH1 0x22 PUSH1 0x24 DUP3 ADD MSTORE PUSH32 0x45524332303A206275726E20616D6F756E7420657863656564732062616C616E PUSH1 0x44 DUP3 ADD MSTORE PUSH2 0x6365 PUSH1 0xF0 SHL PUSH1 0x64 DUP3 ADD MSTORE PUSH1 0x84 ADD PUSH2 0x7E8 JUMP JUMPDEST PUSH1 0x1 PUSH1 0x1 PUSH1 0xA0 SHL SUB DUP4 AND PUSH1 0x0 DUP2 DUP2 MSTORE PUSH1 0xC9 PUSH1 0x20 SWAP1 DUP2 MSTORE PUSH1 0x40 DUP1 DUP4 KECCAK256 DUP7 DUP7 SUB SWAP1 SSTORE PUSH1 0xCB DUP1 SLOAD DUP8 SWAP1 SUB SWAP1 SSTORE MLOAD DUP6 DUP2 MSTORE SWAP2 SWAP3 SWAP2 PUSH32 0xDDF252AD1BE2C89B69C2B068FC378DAA952BA7F163C4A11628F55A4DF523B3EF SWAP2 ADD PUSH1 0x40 MLOAD DUP1 SWAP2 SUB SWAP1 LOG3 POP POP POP JUMP JUMPDEST PUSH1 0x0 PUSH2 0x67C DUP3 SLOAD SWAP1 JUMP JUMPDEST PUSH1 0x0 PUSH2 0x1660 PUSH1 0x0 DUP1 MLOAD PUSH1 0x20 PUSH2 0x271B DUP4 CODECOPY DUP2 MLOAD SWAP2 MSTORE DUP4 PUSH2 0xC12 JUMP JUMPDEST DUP1 ISZERO PUSH2 0x167F JUMPI POP PUSH2 0x167F PUSH1 0x0 DUP1 MLOAD PUSH1 0x20 PUSH2 0x2694 DUP4 CODECOPY DUP2 MLOAD SWAP2 MSTORE DUP4 PUSH2 0xC12 JUMP JUMPDEST DUP1 ISZERO PUSH2 0x67C JUMPI POP PUSH2 0x67C PUSH1 0x0 DUP4 PUSH2 0xC12 JUMP JUMPDEST PUSH2 0x191 SLOAD PUSH1 0x40 MLOAD PUSH4 0xD994D6D5 PUSH1 0xE0 SHL DUP2 MSTORE CALLER PUSH1 0x4 DUP3 ADD MSTORE PUSH1 0x1 PUSH1 0x1 PUSH1 0xA0 SHL SUB SWAP1 SWAP2 AND SWAP1 PUSH4 0xD994D6D5 SWAP1 PUSH1 0x24 ADD PUSH1 0x20 PUSH1 0x40 MLOAD DUP1 DUP4 SUB DUP2 DUP7 GAS STATICCALL ISZERO DUP1 ISZERO PUSH2 0x16DA JUMPI RETURNDATASIZE PUSH1 0x0 DUP1 RETURNDATACOPY RETURNDATASIZE PUSH1 0x0 REVERT JUMPDEST POP POP POP POP PUSH1 0x40 MLOAD RETURNDATASIZE PUSH1 0x1F NOT PUSH1 0x1F DUP3 ADD AND DUP3 ADD DUP1 PUSH1 0x40 MSTORE POP DUP2 ADD SWAP1 PUSH2 0x16FE SWAP2 SWAP1 PUSH2 0x2465 JUMP JUMPDEST PUSH2 0x14E4 JUMPI PUSH1 0x40 MLOAD PUSH4 0x1DD1B1B5 PUSH1 0xE2 SHL DUP2 MSTORE PUSH1 0x4 ADD PUSH1 0x40 MLOAD DUP1 SWAP2 SUB SWAP1 REVERT JUMPDEST PUSH2 0x777 DUP4 DUP4 DUP4 PUSH2 0x1A84 JUMP JUMPDEST PUSH2 0x1730 DUP3 DUP3 PUSH2 0xC12 JUMP JUMPDEST PUSH2 0x7FB JUMPI PUSH2 0x173D DUP2 PUSH2 0x1AEB JUMP JUMPDEST PUSH2 0x1748 DUP4 PUSH1 0x20 PUSH2 0x1AFD JUMP JUMPDEST PUSH1 0x40 MLOAD PUSH1 0x20 ADD PUSH2 0x1759 SWAP3 SWAP2 SWAP1 PUSH2 0x2487 JUMP JUMPDEST PUSH1 0x40 DUP1 MLOAD PUSH1 0x1F NOT DUP2 DUP5 SUB ADD DUP2 MSTORE SWAP1 DUP3 SWAP1 MSTORE PUSH3 0x461BCD PUSH1 0xE5 SHL DUP3 MSTORE PUSH2 0x7E8 SWAP2 PUSH1 0x4 ADD PUSH2 0x2002 JUMP JUMPDEST PUSH2 0x1789 DUP3 DUP3 PUSH2 0xC12 JUMP JUMPDEST PUSH2 0x7FB JUMPI PUSH1 0x0 DUP3 DUP2 MSTORE PUSH1 0x65 PUSH1 0x20 SWAP1 DUP2 MSTORE PUSH1 0x40 DUP1 DUP4 KECCAK256 PUSH1 0x1 PUSH1 0x1 PUSH1 0xA0 SHL SUB DUP6 AND DUP5 MSTORE SWAP1 SWAP2 MSTORE SWAP1 KECCAK256 DUP1 SLOAD PUSH1 0xFF NOT AND PUSH1 0x1 OR SWAP1 SSTORE PUSH2 0x17C1 CALLER SWAP1 JUMP JUMPDEST PUSH1 0x1 PUSH1 0x1 PUSH1 0xA0 SHL SUB AND DUP2 PUSH1 0x1 PUSH1 0x1 PUSH1 0xA0 SHL SUB AND DUP4 PUSH32 0x2F8788117E7EFF1D82E926EC794901D17C78024A50270940304540A733656F0D PUSH1 0x40 MLOAD PUSH1 0x40 MLOAD DUP1 SWAP2 SUB SWAP1 LOG4 POP POP JUMP JUMPDEST PUSH1 0x0 PUSH2 0x74B DUP4 PUSH1 0x1 PUSH1 0x1 PUSH1 0xA0 SHL SUB DUP5 AND PUSH2 0x1C99 JUMP JUMPDEST PUSH2 0x1824 DUP3 DUP3 PUSH2 0xC12 JUMP JUMPDEST ISZERO PUSH2 0x7FB JUMPI PUSH1 0x0 DUP3 DUP2 MSTORE PUSH1 0x65 PUSH1 0x20 SWAP1 DUP2 MSTORE PUSH1 0x40 DUP1 DUP4 KECCAK256 PUSH1 0x1 PUSH1 0x1 PUSH1 0xA0 SHL SUB DUP6 AND DUP1 DUP6 MSTORE SWAP3 MSTORE DUP1 DUP4 KECCAK256 DUP1 SLOAD PUSH1 0xFF NOT AND SWAP1 SSTORE MLOAD CALLER SWAP3 DUP6 SWAP2 PUSH32 0xF6391F5C32D9C69D2A47EA670B442974B53935D1EDC7FD64EB21E047A839171B SWAP2 SWAP1 LOG4 POP POP JUMP JUMPDEST PUSH1 0x0 PUSH2 0x74B DUP4 PUSH1 0x1 PUSH1 0x1 PUSH1 0xA0 SHL SUB DUP5 AND PUSH2 0x1CE8 JUMP JUMPDEST PUSH1 0x1 PUSH1 0x1 PUSH1 0xA0 SHL SUB DUP2 AND EXTCODESIZE PUSH2 0x1903 JUMPI PUSH1 0x40 MLOAD PUSH3 0x461BCD PUSH1 0xE5 SHL DUP2 MSTORE PUSH1 0x20 PUSH1 0x4 DUP3 ADD MSTORE PUSH1 0x2D PUSH1 0x24 DUP3 ADD MSTORE PUSH32 0x455243313936373A206E657720696D706C656D656E746174696F6E206973206E PUSH1 0x44 DUP3 ADD MSTORE PUSH13 0x1BDD08184818DBDB9D1C9858DD PUSH1 0x9A SHL PUSH1 0x64 DUP3 ADD MSTORE PUSH1 0x84 ADD PUSH2 0x7E8 JUMP JUMPDEST PUSH1 0x0 DUP1 MLOAD PUSH1 0x20 PUSH2 0x26B4 DUP4 CODECOPY DUP2 MLOAD SWAP2 MSTORE DUP1 SLOAD PUSH1 0x1 PUSH1 0x1 PUSH1 0xA0 SHL SUB NOT AND PUSH1 0x1 PUSH1 0x1 PUSH1 0xA0 SHL SUB SWAP3 SWAP1 SWAP3 AND SWAP2 SWAP1 SWAP2 OR SWAP1 SSTORE JUMP JUMPDEST PUSH2 0x193B DUP4 PUSH2 0x1DDB JUMP JUMPDEST PUSH1 0x0 DUP3 MLOAD GT DUP1 PUSH2 0x1948 JUMPI POP DUP1 JUMPDEST ISZERO PUSH2 0x777 JUMPI PUSH2 0xF8B DUP4 DUP4 PUSH2 0x1E1B JUMP JUMPDEST PUSH2 0x1C4 SLOAD PUSH1 0xFF AND ISZERO PUSH2 0x14E4 JUMPI PUSH1 0x40 MLOAD PUSH3 0x461BCD PUSH1 0xE5 SHL DUP2 MSTORE PUSH1 0x20 PUSH1 0x4 DUP3 ADD MSTORE PUSH1 0x10 PUSH1 0x24 DUP3 ADD MSTORE PUSH16 0x14185D5CD8589B194E881C185D5CD959 PUSH1 0x82 SHL PUSH1 0x44 DUP3 ADD MSTORE PUSH1 0x64 ADD PUSH2 0x7E8 JUMP JUMPDEST PUSH1 0x0 SLOAD PUSH2 0x100 SWAP1 DIV PUSH1 0xFF AND PUSH2 0x19C5 JUMPI PUSH1 0x40 MLOAD PUSH3 0x461BCD PUSH1 0xE5 SHL DUP2 MSTORE PUSH1 0x4 ADD PUSH2 0x7E8 SWAP1 PUSH2 0x241A JUMP JUMPDEST PUSH2 0x7FB DUP3 DUP3 PUSH2 0x1F0F JUMP JUMPDEST PUSH1 0x0 SLOAD PUSH2 0x100 SWAP1 DIV PUSH1 0xFF AND PUSH2 0x14E4 JUMPI PUSH1 0x40 MLOAD PUSH3 0x461BCD PUSH1 0xE5 SHL DUP2 MSTORE PUSH1 0x4 ADD PUSH2 0x7E8 SWAP1 PUSH2 0x241A JUMP JUMPDEST PUSH1 0x0 SLOAD PUSH2 0x100 SWAP1 DIV PUSH1 0xFF AND PUSH2 0x1A1D JUMPI PUSH1 0x40 MLOAD PUSH3 0x461BCD PUSH1 0xE5 SHL DUP2 MSTORE PUSH1 0x4 ADD PUSH2 0x7E8 SWAP1 PUSH2 0x241A JUMP JUMPDEST PUSH2 0x8DB DUP2 PUSH2 0x1F4F JUMP JUMPDEST PUSH1 0x0 SLOAD PUSH2 0x100 SWAP1 DIV PUSH1 0xFF AND PUSH2 0x1A4D JUMPI PUSH1 0x40 MLOAD PUSH3 0x461BCD PUSH1 0xE5 SHL DUP2 MSTORE PUSH1 0x4 ADD PUSH2 0x7E8 SWAP1 PUSH2 0x241A JUMP JUMPDEST PUSH2 0x1C4 DUP1 SLOAD PUSH1 0xFF NOT AND SWAP1 SSTORE JUMP JUMPDEST PUSH1 0x0 DUP3 PUSH1 0x0 ADD DUP3 DUP2 SLOAD DUP2 LT PUSH2 0x1A71 JUMPI PUSH2 0x1A71 PUSH2 0x24FC JUMP JUMPDEST SWAP1 PUSH1 0x0 MSTORE PUSH1 0x20 PUSH1 0x0 KECCAK256 ADD SLOAD SWAP1 POP SWAP3 SWAP2 POP POP JUMP JUMPDEST PUSH2 0x1C4 SLOAD PUSH1 0xFF AND ISZERO PUSH2 0x777 JUMPI PUSH1 0x40 MLOAD PUSH3 0x461BCD PUSH1 0xE5 SHL DUP2 MSTORE PUSH1 0x20 PUSH1 0x4 DUP3 ADD MSTORE PUSH1 0x2A PUSH1 0x24 DUP3 ADD MSTORE PUSH32 0x45524332305061757361626C653A20746F6B656E207472616E73666572207768 PUSH1 0x44 DUP3 ADD MSTORE PUSH10 0x1A5B19481C185D5CD959 PUSH1 0xB2 SHL PUSH1 0x64 DUP3 ADD MSTORE PUSH1 0x84 ADD PUSH2 0x7E8 JUMP JUMPDEST PUSH1 0x60 PUSH2 0x67C PUSH1 0x1 PUSH1 0x1 PUSH1 0xA0 SHL SUB DUP4 AND PUSH1 0x14 JUMPDEST PUSH1 0x60 PUSH1 0x0 PUSH2 0x1B0C DUP4 PUSH1 0x2 PUSH2 0x2512 JUMP JUMPDEST PUSH2 0x1B17 SWAP1 PUSH1 0x2 PUSH2 0x23EE JUMP JUMPDEST PUSH8 0xFFFFFFFFFFFFFFFF DUP2 GT ISZERO PUSH2 0x1B2F JUMPI PUSH2 0x1B2F PUSH2 0x211D JUMP JUMPDEST PUSH1 0x40 MLOAD SWAP1 DUP1 DUP3 MSTORE DUP1 PUSH1 0x1F ADD PUSH1 0x1F NOT AND PUSH1 0x20 ADD DUP3 ADD PUSH1 0x40 MSTORE DUP1 ISZERO PUSH2 0x1B59 JUMPI PUSH1 0x20 DUP3 ADD DUP2 DUP1 CALLDATASIZE DUP4 CALLDATACOPY ADD SWAP1 POP JUMPDEST POP SWAP1 POP PUSH1 0x3 PUSH1 0xFC SHL DUP2 PUSH1 0x0 DUP2 MLOAD DUP2 LT PUSH2 0x1B74 JUMPI PUSH2 0x1B74 PUSH2 0x24FC JUMP JUMPDEST PUSH1 0x20 ADD ADD SWAP1 PUSH1 0x1 PUSH1 0x1 PUSH1 0xF8 SHL SUB NOT AND SWAP1 DUP2 PUSH1 0x0 BYTE SWAP1 MSTORE8 POP PUSH1 0xF PUSH1 0xFB SHL DUP2 PUSH1 0x1 DUP2 MLOAD DUP2 LT PUSH2 0x1BA3 JUMPI PUSH2 0x1BA3 PUSH2 0x24FC JUMP JUMPDEST PUSH1 0x20 ADD ADD SWAP1 PUSH1 0x1 PUSH1 0x1 PUSH1 0xF8 SHL SUB NOT AND SWAP1 DUP2 PUSH1 0x0 BYTE SWAP1 MSTORE8 POP PUSH1 0x0 PUSH2 0x1BC7 DUP5 PUSH1 0x2 PUSH2 0x2512 JUMP JUMPDEST PUSH2 0x1BD2 SWAP1 PUSH1 0x1 PUSH2 0x23EE JUMP JUMPDEST SWAP1 POP JUMPDEST PUSH1 0x1 DUP2 GT ISZERO PUSH2 0x1C4A JUMPI PUSH16 0x181899199A1A9B1B9C1CB0B131B232B3 PUSH1 0x81 SHL DUP6 PUSH1 0xF AND PUSH1 0x10 DUP2 LT PUSH2 0x1C06 JUMPI PUSH2 0x1C06 PUSH2 0x24FC JUMP JUMPDEST BYTE PUSH1 0xF8 SHL DUP3 DUP3 DUP2 MLOAD DUP2 LT PUSH2 0x1C1C JUMPI PUSH2 0x1C1C PUSH2 0x24FC JUMP JUMPDEST PUSH1 0x20 ADD ADD SWAP1 PUSH1 0x1 PUSH1 0x1 PUSH1 0xF8 SHL SUB NOT AND SWAP1 DUP2 PUSH1 0x0 BYTE SWAP1 MSTORE8 POP PUSH1 0x4 SWAP5 SWAP1 SWAP5 SHR SWAP4 PUSH2 0x1C43 DUP2 PUSH2 0x2529 JUMP JUMPDEST SWAP1 POP PUSH2 0x1BD5 JUMP JUMPDEST POP DUP4 ISZERO PUSH2 0x74B JUMPI PUSH1 0x40 MLOAD PUSH3 0x461BCD PUSH1 0xE5 SHL DUP2 MSTORE PUSH1 0x20 PUSH1 0x4 DUP3 ADD DUP2 SWAP1 MSTORE PUSH1 0x24 DUP3 ADD MSTORE PUSH32 0x537472696E67733A20686578206C656E67746820696E73756666696369656E74 PUSH1 0x44 DUP3 ADD MSTORE PUSH1 0x64 ADD PUSH2 0x7E8 JUMP JUMPDEST PUSH1 0x0 DUP2 DUP2 MSTORE PUSH1 0x1 DUP4 ADD PUSH1 0x20 MSTORE PUSH1 0x40 DUP2 KECCAK256 SLOAD PUSH2 0x1CE0 JUMPI POP DUP2 SLOAD PUSH1 0x1 DUP2 DUP2 ADD DUP5 SSTORE PUSH1 0x0 DUP5 DUP2 MSTORE PUSH1 0x20 DUP1 DUP3 KECCAK256 SWAP1 SWAP4 ADD DUP5 SWAP1 SSTORE DUP5 SLOAD DUP5 DUP3 MSTORE DUP3 DUP7 ADD SWAP1 SWAP4 MSTORE PUSH1 0x40 SWAP1 KECCAK256 SWAP2 SWAP1 SWAP2 SSTORE PUSH2 0x67C JUMP JUMPDEST POP PUSH1 0x0 PUSH2 0x67C JUMP JUMPDEST PUSH1 0x0 DUP2 DUP2 MSTORE PUSH1 0x1 DUP4 ADD PUSH1 0x20 MSTORE PUSH1 0x40 DUP2 KECCAK256 SLOAD DUP1 ISZERO PUSH2 0x1DD1 JUMPI PUSH1 0x0 PUSH2 0x1D0C PUSH1 0x1 DUP4 PUSH2 0x2540 JUMP JUMPDEST DUP6 SLOAD SWAP1 SWAP2 POP PUSH1 0x0 SWAP1 PUSH2 0x1D20 SWAP1 PUSH1 0x1 SWAP1 PUSH2 0x2540 JUMP JUMPDEST SWAP1 POP DUP2 DUP2 EQ PUSH2 0x1D85 JUMPI PUSH1 0x0 DUP7 PUSH1 0x0 ADD DUP3 DUP2 SLOAD DUP2 LT PUSH2 0x1D40 JUMPI PUSH2 0x1D40 PUSH2 0x24FC JUMP JUMPDEST SWAP1 PUSH1 0x0 MSTORE PUSH1 0x20 PUSH1 0x0 KECCAK256 ADD SLOAD SWAP1 POP DUP1 DUP8 PUSH1 0x0 ADD DUP5 DUP2 SLOAD DUP2 LT PUSH2 0x1D63 JUMPI PUSH2 0x1D63 PUSH2 0x24FC JUMP JUMPDEST PUSH1 0x0 SWAP2 DUP3 MSTORE PUSH1 0x20 DUP1 DUP4 KECCAK256 SWAP1 SWAP2 ADD SWAP3 SWAP1 SWAP3 SSTORE SWAP2 DUP3 MSTORE PUSH1 0x1 DUP9 ADD SWAP1 MSTORE PUSH1 0x40 SWAP1 KECCAK256 DUP4 SWAP1 SSTORE JUMPDEST DUP6 SLOAD DUP7 SWAP1 DUP1 PUSH2 0x1D96 JUMPI PUSH2 0x1D96 PUSH2 0x2553 JUMP JUMPDEST PUSH1 0x1 SWAP1 SUB DUP2 DUP2 SWAP1 PUSH1 0x0 MSTORE PUSH1 0x20 PUSH1 0x0 KECCAK256 ADD PUSH1 0x0 SWAP1 SSTORE SWAP1 SSTORE DUP6 PUSH1 0x1 ADD PUSH1 0x0 DUP7 DUP2 MSTORE PUSH1 0x20 ADD SWAP1 DUP2 MSTORE PUSH1 0x20 ADD PUSH1 0x0 KECCAK256 PUSH1 0x0 SWAP1 SSTORE PUSH1 0x1 SWAP4 POP POP POP POP PUSH2 0x67C JUMP JUMPDEST PUSH1 0x0 SWAP2 POP POP PUSH2 0x67C JUMP JUMPDEST PUSH2 0x1DE4 DUP2 PUSH2 0x1896 JUMP JUMPDEST PUSH1 0x40 MLOAD PUSH1 0x1 PUSH1 0x1 PUSH1 0xA0 SHL SUB DUP3 AND SWAP1 PUSH32 0xBC7CD75A20EE27FD9ADEBAB32041F755214DBC6BFFA90CC0225B39DA2E5C2D3B SWAP1 PUSH1 0x0 SWAP1 LOG2 POP JUMP JUMPDEST PUSH1 0x60 PUSH1 0x1 PUSH1 0x1 PUSH1 0xA0 SHL SUB DUP4 AND EXTCODESIZE PUSH2 0x1E83 JUMPI PUSH1 0x40 MLOAD PUSH3 0x461BCD PUSH1 0xE5 SHL DUP2 MSTORE PUSH1 0x20 PUSH1 0x4 DUP3 ADD MSTORE PUSH1 0x26 PUSH1 0x24 DUP3 ADD MSTORE PUSH32 0x416464726573733A2064656C65676174652063616C6C20746F206E6F6E2D636F PUSH1 0x44 DUP3 ADD MSTORE PUSH6 0x1B9D1C9858DD PUSH1 0xD2 SHL PUSH1 0x64 DUP3 ADD MSTORE PUSH1 0x84 ADD PUSH2 0x7E8 JUMP JUMPDEST PUSH1 0x0 DUP1 DUP5 PUSH1 0x1 PUSH1 0x1 PUSH1 0xA0 SHL SUB AND DUP5 PUSH1 0x40 MLOAD PUSH2 0x1E9E SWAP2 SWAP1 PUSH2 0x2569 JUMP JUMPDEST PUSH1 0x0 PUSH1 0x40 MLOAD DUP1 DUP4 SUB DUP2 DUP6 GAS DELEGATECALL SWAP2 POP POP RETURNDATASIZE DUP1 PUSH1 0x0 DUP2 EQ PUSH2 0x1ED9 JUMPI PUSH1 0x40 MLOAD SWAP2 POP PUSH1 0x1F NOT PUSH1 0x3F RETURNDATASIZE ADD AND DUP3 ADD PUSH1 0x40 MSTORE RETURNDATASIZE DUP3 MSTORE RETURNDATASIZE PUSH1 0x0 PUSH1 0x20 DUP5 ADD RETURNDATACOPY PUSH2 0x1EDE JUMP JUMPDEST PUSH1 0x60 SWAP2 POP JUMPDEST POP SWAP2 POP SWAP2 POP PUSH2 0x1F06 DUP3 DUP3 PUSH1 0x40 MLOAD DUP1 PUSH1 0x60 ADD PUSH1 0x40 MSTORE DUP1 PUSH1 0x27 DUP2 MSTORE PUSH1 0x20 ADD PUSH2 0x26F4 PUSH1 0x27 SWAP2 CODECOPY PUSH2 0x1F76 JUMP JUMPDEST SWAP6 SWAP5 POP POP POP POP POP JUMP JUMPDEST PUSH1 0x0 SLOAD PUSH2 0x100 SWAP1 DIV PUSH1 0xFF AND PUSH2 0x1F36 JUMPI PUSH1 0x40 MLOAD PUSH3 0x461BCD PUSH1 0xE5 SHL DUP2 MSTORE PUSH1 0x4 ADD PUSH2 0x7E8 SWAP1 PUSH2 0x241A JUMP JUMPDEST PUSH1 0xCC PUSH2 0x1F42 DUP4 DUP3 PUSH2 0x25D3 JUMP JUMPDEST POP PUSH1 0xCD PUSH2 0x777 DUP3 DUP3 PUSH2 0x25D3 JUMP JUMPDEST PUSH1 0x0 SLOAD PUSH2 0x100 SWAP1 DIV PUSH1 0xFF AND PUSH2 0xD9B JUMPI PUSH1 0x40 MLOAD PUSH3 0x461BCD PUSH1 0xE5 SHL DUP2 MSTORE PUSH1 0x4 ADD PUSH2 0x7E8 SWAP1 PUSH2 0x241A JUMP JUMPDEST PUSH1 0x60 DUP4 ISZERO PUSH2 0x1F85 JUMPI POP DUP2 PUSH2 0x74B JUMP JUMPDEST PUSH2 0x74B DUP4 DUP4 DUP2 MLOAD ISZERO PUSH2 0x1F9A JUMPI DUP2 MLOAD DUP1 DUP4 PUSH1 0x20 ADD REVERT JUMPDEST DUP1 PUSH1 0x40 MLOAD PUSH3 0x461BCD PUSH1 0xE5 SHL DUP2 MSTORE PUSH1 0x4 ADD PUSH2 0x7E8 SWAP2 SWAP1 PUSH2 0x2002 JUMP JUMPDEST PUSH1 0x0 PUSH1 0x20 DUP3 DUP5 SUB SLT ISZERO PUSH2 0x1FC6 JUMPI PUSH1 0x0 DUP1 REVERT JUMPDEST DUP2 CALLDATALOAD PUSH1 0x1 PUSH1 0x1 PUSH1 0xE0 SHL SUB NOT DUP2 AND DUP2 EQ PUSH2 0x74B JUMPI PUSH1 0x0 DUP1 REVERT JUMPDEST PUSH1 0x0 JUMPDEST DUP4 DUP2 LT ISZERO PUSH2 0x1FF9 JUMPI DUP2 DUP2 ADD MLOAD DUP4 DUP3 ADD MSTORE PUSH1 0x20 ADD PUSH2 0x1FE1 JUMP JUMPDEST POP POP PUSH1 0x0 SWAP2 ADD MSTORE JUMP JUMPDEST PUSH1 0x20 DUP2 MSTORE PUSH1 0x0 DUP3 MLOAD DUP1 PUSH1 0x20 DUP5 ADD MSTORE PUSH2 0x2021 DUP2 PUSH1 0x40 DUP6 ADD PUSH1 0x20 DUP8 ADD PUSH2 0x1FDE JUMP JUMPDEST PUSH1 0x1F ADD PUSH1 0x1F NOT AND SWAP2 SWAP1 SWAP2 ADD PUSH1 0x40 ADD SWAP3 SWAP2 POP POP JUMP JUMPDEST PUSH1 0x1 PUSH1 0x1 PUSH1 0xA0 SHL SUB DUP2 AND DUP2 EQ PUSH2 0x8DB JUMPI PUSH1 0x0 DUP1 REVERT JUMPDEST PUSH1 0x0 DUP1 PUSH1 0x40 DUP4 DUP6 SUB SLT ISZERO PUSH2 0x205D JUMPI PUSH1 0x0 DUP1 REVERT JUMPDEST DUP3 CALLDATALOAD PUSH2 0x2068 DUP2 PUSH2 0x2035 JUMP JUMPDEST SWAP5 PUSH1 0x20 SWAP4 SWAP1 SWAP4 ADD CALLDATALOAD SWAP4 POP POP POP JUMP JUMPDEST PUSH1 0x0 DUP1 PUSH1 0x0 PUSH1 0x60 DUP5 DUP7 SUB SLT ISZERO PUSH2 0x208B JUMPI PUSH1 0x0 DUP1 REVERT JUMPDEST DUP4 CALLDATALOAD PUSH2 0x2096 DUP2 PUSH2 0x2035 JUMP JUMPDEST SWAP3 POP PUSH1 0x20 DUP5 ADD CALLDATALOAD PUSH2 0x20A6 DUP2 PUSH2 0x2035 JUMP JUMPDEST SWAP3 SWAP6 SWAP3 SWAP5 POP POP POP PUSH1 0x40 SWAP2 SWAP1 SWAP2 ADD CALLDATALOAD SWAP1 JUMP JUMPDEST PUSH1 0x0 PUSH1 0x20 DUP3 DUP5 SUB SLT ISZERO PUSH2 0x20C9 JUMPI PUSH1 0x0 DUP1 REVERT JUMPDEST POP CALLDATALOAD SWAP2 SWAP1 POP JUMP JUMPDEST PUSH1 0x0 DUP1 PUSH1 0x40 DUP4 DUP6 SUB SLT ISZERO PUSH2 0x20E3 JUMPI PUSH1 0x0 DUP1 REVERT JUMPDEST DUP3 CALLDATALOAD SWAP2 POP PUSH1 0x20 DUP4 ADD CALLDATALOAD PUSH2 0x20F5 DUP2 PUSH2 0x2035 JUMP JUMPDEST DUP1 SWAP2 POP POP SWAP3 POP SWAP3 SWAP1 POP JUMP JUMPDEST PUSH1 0x0 PUSH1 0x20 DUP3 DUP5 SUB SLT ISZERO PUSH2 0x2112 JUMPI PUSH1 0x0 DUP1 REVERT JUMPDEST DUP2 CALLDATALOAD PUSH2 0x74B DUP2 PUSH2 0x2035 JUMP JUMPDEST PUSH4 0x4E487B71 PUSH1 0xE0 SHL PUSH1 0x0 MSTORE PUSH1 0x41 PUSH1 0x4 MSTORE PUSH1 0x24 PUSH1 0x0 REVERT JUMPDEST PUSH1 0x0 PUSH8 0xFFFFFFFFFFFFFFFF DUP1 DUP5 GT ISZERO PUSH2 0x214E JUMPI PUSH2 0x214E PUSH2 0x211D JUMP JUMPDEST PUSH1 0x40 MLOAD PUSH1 0x1F DUP6 ADD PUSH1 0x1F NOT SWAP1 DUP2 AND PUSH1 0x3F ADD AND DUP2 ADD SWAP1 DUP3 DUP3 GT DUP2 DUP4 LT OR ISZERO PUSH2 0x2176 JUMPI PUSH2 0x2176 PUSH2 0x211D JUMP JUMPDEST DUP2 PUSH1 0x40 MSTORE DUP1 SWAP4 POP DUP6 DUP2 MSTORE DUP7 DUP7 DUP7 ADD GT ISZERO PUSH2 0x218F JUMPI PUSH1 0x0 DUP1 REVERT JUMPDEST DUP6 DUP6 PUSH1 0x20 DUP4 ADD CALLDATACOPY PUSH1 0x0 PUSH1 0x20 DUP8 DUP4 ADD ADD MSTORE POP POP POP SWAP4 SWAP3 POP POP POP JUMP JUMPDEST PUSH1 0x0 DUP1 PUSH1 0x40 DUP4 DUP6 SUB SLT ISZERO PUSH2 0x21BC JUMPI PUSH1 0x0 DUP1 REVERT JUMPDEST DUP3 CALLDATALOAD PUSH2 0x21C7 DUP2 PUSH2 0x2035 JUMP JUMPDEST SWAP2 POP PUSH1 0x20 DUP4 ADD CALLDATALOAD PUSH8 0xFFFFFFFFFFFFFFFF DUP2 GT ISZERO PUSH2 0x21E3 JUMPI PUSH1 0x0 DUP1 REVERT JUMPDEST DUP4 ADD PUSH1 0x1F DUP2 ADD DUP6 SGT PUSH2 0x21F4 JUMPI PUSH1 0x0 DUP1 REVERT JUMPDEST PUSH2 0x2203 DUP6 DUP3 CALLDATALOAD PUSH1 0x20 DUP5 ADD PUSH2 0x2133 JUMP JUMPDEST SWAP2 POP POP SWAP3 POP SWAP3 SWAP1 POP JUMP JUMPDEST PUSH1 0x0 DUP3 PUSH1 0x1F DUP4 ADD SLT PUSH2 0x221E JUMPI PUSH1 0x0 DUP1 REVERT JUMPDEST PUSH2 0x74B DUP4 DUP4 CALLDATALOAD PUSH1 0x20 DUP6 ADD PUSH2 0x2133 JUMP JUMPDEST PUSH1 0x0 DUP1 PUSH1 0x0 DUP1 PUSH1 0x80 DUP6 DUP8 SUB SLT ISZERO PUSH2 0x2243 JUMPI PUSH1 0x0 DUP1 REVERT JUMPDEST DUP5 CALLDATALOAD PUSH8 0xFFFFFFFFFFFFFFFF DUP1 DUP3 GT ISZERO PUSH2 0x225B JUMPI PUSH1 0x0 DUP1 REVERT JUMPDEST PUSH2 0x2267 DUP9 DUP4 DUP10 ADD PUSH2 0x220D JUMP JUMPDEST SWAP6 POP PUSH1 0x20 DUP8 ADD CALLDATALOAD SWAP2 POP DUP1 DUP3 GT ISZERO PUSH2 0x227D JUMPI PUSH1 0x0 DUP1 REVERT JUMPDEST POP PUSH2 0x228A DUP8 DUP3 DUP9 ADD PUSH2 0x220D JUMP JUMPDEST SWAP4 POP POP PUSH1 0x40 DUP6 ADD CALLDATALOAD PUSH2 0x229B DUP2 PUSH2 0x2035 JUMP JUMPDEST SWAP2 POP PUSH1 0x60 DUP6 ADD CALLDATALOAD PUSH2 0x22AB DUP2 PUSH2 0x2035 JUMP JUMPDEST SWAP4 SWAP7 SWAP3 SWAP6 POP SWAP1 SWAP4 POP POP JUMP JUMPDEST PUSH1 0x0 DUP1 PUSH1 0x40 DUP4 DUP6 SUB SLT ISZERO PUSH2 0x22C9 JUMPI PUSH1 0x0 DUP1 REVERT JUMPDEST POP POP DUP1 CALLDATALOAD SWAP3 PUSH1 0x20 SWAP1 SWAP2 ADD CALLDATALOAD SWAP2 POP JUMP JUMPDEST PUSH1 0x0 DUP1 PUSH1 0x40 DUP4 DUP6 SUB SLT ISZERO PUSH2 0x22EB JUMPI PUSH1 0x0 DUP1 REVERT JUMPDEST DUP3 CALLDATALOAD PUSH2 0x22F6 DUP2 PUSH2 0x2035 JUMP JUMPDEST SWAP2 POP PUSH1 0x20 DUP4 ADD CALLDATALOAD PUSH2 0x20F5 DUP2 PUSH2 0x2035 JUMP JUMPDEST PUSH1 0x1 DUP2 DUP2 SHR SWAP1 DUP3 AND DUP1 PUSH2 0x231A JUMPI PUSH1 0x7F DUP3 AND SWAP2 POP JUMPDEST PUSH1 0x20 DUP3 LT DUP2 SUB PUSH2 0x233A JUMPI PUSH4 0x4E487B71 PUSH1 0xE0 SHL PUSH1 0x0 MSTORE PUSH1 0x22 PUSH1 0x4 MSTORE PUSH1 0x24 PUSH1 0x0 REVERT JUMPDEST POP SWAP2 SWAP1 POP JUMP JUMPDEST PUSH1 0x20 DUP1 DUP3 MSTORE PUSH1 0x2C SWAP1 DUP3 ADD MSTORE PUSH32 0x46756E6374696F6E206D7573742062652063616C6C6564207468726F75676820 PUSH1 0x40 DUP3 ADD MSTORE PUSH12 0x19195B1959D85D1958D85B1B PUSH1 0xA2 SHL PUSH1 0x60 DUP3 ADD MSTORE PUSH1 0x80 ADD SWAP1 JUMP JUMPDEST PUSH1 0x20 DUP1 DUP3 MSTORE PUSH1 0x2C SWAP1 DUP3 ADD MSTORE PUSH32 0x46756E6374696F6E206D7573742062652063616C6C6564207468726F75676820 PUSH1 0x40 DUP3 ADD MSTORE PUSH12 0x6163746976652070726F7879 PUSH1 0xA0 SHL PUSH1 0x60 DUP3 ADD MSTORE PUSH1 0x80 ADD SWAP1 JUMP JUMPDEST PUSH4 0x4E487B71 PUSH1 0xE0 SHL PUSH1 0x0 MSTORE PUSH1 0x11 PUSH1 0x4 MSTORE PUSH1 0x24 PUSH1 0x0 REVERT JUMPDEST DUP1 DUP3 ADD DUP1 DUP3 GT ISZERO PUSH2 0x67C JUMPI PUSH2 0x67C PUSH2 0x23D8 JUMP JUMPDEST PUSH1 0x0 PUSH1 0x20 DUP3 DUP5 SUB SLT ISZERO PUSH2 0x2413 JUMPI PUSH1 0x0 DUP1 REVERT JUMPDEST POP MLOAD SWAP2 SWAP1 POP JUMP JUMPDEST PUSH1 0x20 DUP1 DUP3 MSTORE PUSH1 0x2B SWAP1 DUP3 ADD MSTORE PUSH32 0x496E697469616C697A61626C653A20636F6E7472616374206973206E6F742069 PUSH1 0x40 DUP3 ADD MSTORE PUSH11 0x6E697469616C697A696E67 PUSH1 0xA8 SHL PUSH1 0x60 DUP3 ADD MSTORE PUSH1 0x80 ADD SWAP1 JUMP JUMPDEST PUSH1 0x0 PUSH1 0x20 DUP3 DUP5 SUB SLT ISZERO PUSH2 0x2477 JUMPI PUSH1 0x0 DUP1 REVERT JUMPDEST DUP2 MLOAD DUP1 ISZERO ISZERO DUP2 EQ PUSH2 0x74B JUMPI PUSH1 0x0 DUP1 REVERT JUMPDEST PUSH32 0x416363657373436F6E74726F6C3A206163636F756E7420000000000000000000 DUP2 MSTORE PUSH1 0x0 DUP4 MLOAD PUSH2 0x24BF DUP2 PUSH1 0x17 DUP6 ADD PUSH1 0x20 DUP9 ADD PUSH2 0x1FDE JUMP JUMPDEST PUSH17 0x1034B99036B4B9B9B4B733903937B6329 PUSH1 0x7D SHL PUSH1 0x17 SWAP2 DUP5 ADD SWAP2 DUP3 ADD MSTORE DUP4 MLOAD PUSH2 0x24F0 DUP2 PUSH1 0x28 DUP5 ADD PUSH1 0x20 DUP9 ADD PUSH2 0x1FDE JUMP JUMPDEST ADD PUSH1 0x28 ADD SWAP5 SWAP4 POP POP POP POP JUMP JUMPDEST PUSH4 0x4E487B71 PUSH1 0xE0 SHL PUSH1 0x0 MSTORE PUSH1 0x32 PUSH1 0x4 MSTORE PUSH1 0x24 PUSH1 0x0 REVERT JUMPDEST DUP1 DUP3 MUL DUP2 ISZERO DUP3 DUP3 DIV DUP5 EQ OR PUSH2 0x67C JUMPI PUSH2 0x67C PUSH2 0x23D8 JUMP JUMPDEST PUSH1 0x0 DUP2 PUSH2 0x2538 JUMPI PUSH2 0x2538 PUSH2 0x23D8 JUMP JUMPDEST POP PUSH1 0x0 NOT ADD SWAP1 JUMP JUMPDEST DUP2 DUP2 SUB DUP2 DUP2 GT ISZERO PUSH2 0x67C JUMPI PUSH2 0x67C PUSH2 0x23D8 JUMP JUMPDEST PUSH4 0x4E487B71 PUSH1 0xE0 SHL PUSH1 0x0 MSTORE PUSH1 0x31 PUSH1 0x4 MSTORE PUSH1 0x24 PUSH1 0x0 REVERT JUMPDEST PUSH1 0x0 DUP3 MLOAD PUSH2 0x257B DUP2 DUP5 PUSH1 0x20 DUP8 ADD PUSH2 0x1FDE JUMP JUMPDEST SWAP2 SWAP1 SWAP2 ADD SWAP3 SWAP2 POP POP JUMP JUMPDEST PUSH1 0x1F DUP3 GT ISZERO PUSH2 0x777 JUMPI PUSH1 0x0 DUP2 DUP2 MSTORE PUSH1 0x20 DUP2 KECCAK256 PUSH1 0x1F DUP6 ADD PUSH1 0x5 SHR DUP2 ADD PUSH1 0x20 DUP7 LT ISZERO PUSH2 0x25AC JUMPI POP DUP1 JUMPDEST PUSH1 0x1F DUP6 ADD PUSH1 0x5 SHR DUP3 ADD SWAP2 POP JUMPDEST DUP2 DUP2 LT ISZERO PUSH2 0x25CB JUMPI DUP3 DUP2 SSTORE PUSH1 0x1 ADD PUSH2 0x25B8 JUMP JUMPDEST POP POP POP POP POP POP JUMP JUMPDEST DUP2 MLOAD PUSH8 0xFFFFFFFFFFFFFFFF DUP2 GT ISZERO PUSH2 0x25ED JUMPI PUSH2 0x25ED PUSH2 0x211D JUMP JUMPDEST PUSH2 0x2601 DUP2 PUSH2 0x25FB DUP5 SLOAD PUSH2 0x2306 JUMP JUMPDEST DUP5 PUSH2 0x2585 JUMP JUMPDEST PUSH1 0x20 DUP1 PUSH1 0x1F DUP4 GT PUSH1 0x1 DUP2 EQ PUSH2 0x2636 JUMPI PUSH1 0x0 DUP5 ISZERO PUSH2 0x261E JUMPI POP DUP6 DUP4 ADD MLOAD JUMPDEST PUSH1 0x0 NOT PUSH1 0x3 DUP7 SWAP1 SHL SHR NOT AND PUSH1 0x1 DUP6 SWAP1 SHL OR DUP6 SSTORE PUSH2 0x25CB JUMP JUMPDEST PUSH1 0x0 DUP6 DUP2 MSTORE PUSH1 0x20 DUP2 KECCAK256 PUSH1 0x1F NOT DUP7 AND SWAP2 JUMPDEST DUP3 DUP2 LT ISZERO PUSH2 0x2665 JUMPI DUP9 DUP7 ADD MLOAD DUP3 SSTORE SWAP5 DUP5 ADD SWAP5 PUSH1 0x1 SWAP1 SWAP2 ADD SWAP1 DUP5 ADD PUSH2 0x2646 JUMP JUMPDEST POP DUP6 DUP3 LT ISZERO PUSH2 0x2683 JUMPI DUP8 DUP6 ADD MLOAD PUSH1 0x0 NOT PUSH1 0x3 DUP9 SWAP1 SHL PUSH1 0xF8 AND SHR NOT AND DUP2 SSTORE JUMPDEST POP POP POP POP POP PUSH1 0x1 SWAP1 DUP2 SHL ADD SWAP1 SSTORE POP JUMP INVALID EXTCODECOPY GT 0xD1 PUSH13 0xBAFFD01DF69CE1C404F6340EE0 JUMPI 0x49 DUP16 0x5F STOP 0x24 PUSH2 0x90EA SLOAD 0x22 SDIV PUSH23 0xA848360894A13BA1A3210667C828492DB98DCA3E2076CC CALLDATACOPY CALLDATALOAD 0xA9 KECCAK256 LOG3 0xCA POP 0x5D CODESIZE 0x2B 0xBC PUSH6 0xD7A28E3265B3 PUSH27 0x6474929F336521B332C1681B933F6CB9F3376673440D862A416464 PUSH19 0x6573733A206C6F772D6C6576656C2064656C65 PUSH8 0x6174652063616C6C KECCAK256 PUSH7 0x61696C65649F2D CREATE INVALID 0xD2 0xC7 PUSH23 0x48DE5860A4CC508CD0818C85B8B8A1AB4CEEEF8D981C89 JUMP 0xA6 LOG2 PUSH5 0x6970667358 0x22 SLT KECCAK256 BYTE BASEFEE RETURNDATACOPY SWAP14 PUSH20 0xB03DDBB1D36A95E666045E39A3B0288D1700188A PUSH15 0x82487C0CCD2464736F6C6343000811 STOP CALLER PUSH1 0xA0 PUSH1 0x40 MSTORE ADDRESS PUSH1 0x80 MSTORE CALLVALUE DUP1 ISZERO PUSH3 0x15 JUMPI PUSH1 0x0 DUP1 REVERT JUMPDEST POP PUSH3 0x20 PUSH3 0x30 JUMP JUMPDEST PUSH3 0x2A PUSH3 0x30 JUMP JUMPDEST PUSH3 0xF2 JUMP JUMPDEST PUSH1 0x0 SLOAD PUSH2 0x100 SWAP1 DIV PUSH1 0xFF AND ISZERO PUSH3 0x9D JUMPI PUSH1 0x40 MLOAD PUSH3 0x461BCD PUSH1 0xE5 SHL DUP2 MSTORE PUSH1 0x20 PUSH1 0x4 DUP3 ADD MSTORE PUSH1 0x27 PUSH1 0x24 DUP3 ADD MSTORE PUSH32 0x496E697469616C697A61626C653A20636F6E747261637420697320696E697469 PUSH1 0x44 DUP3 ADD MSTORE PUSH7 0x616C697A696E67 PUSH1 0xC8 SHL PUSH1 0x64 DUP3 ADD MSTORE PUSH1 0x84 ADD PUSH1 0x40 MLOAD DUP1 SWAP2 SUB SWAP1 REVERT JUMPDEST PUSH1 0x0 SLOAD PUSH1 0xFF SWAP1 DUP2 AND LT ISZERO PUSH3 0xF0 JUMPI PUSH1 0x0 DUP1 SLOAD PUSH1 0xFF NOT AND PUSH1 0xFF SWAP1 DUP2 OR SWAP1 SWAP2 SSTORE PUSH1 0x40 MLOAD SWAP1 DUP2 MSTORE PUSH32 0x7F26B83FF96E1F2B6A682F133852F6798A09C465DA95921460CEFB3847402498 SWAP1 PUSH1 0x20 ADD PUSH1 0x40 MLOAD DUP1 SWAP2 SUB SWAP1 LOG1 JUMPDEST JUMP JUMPDEST PUSH1 0x80 MLOAD PUSH2 0x55E2 PUSH3 0x12A PUSH1 0x0 CODECOPY PUSH1 0x0 DUP2 DUP2 PUSH2 0x13BA ADD MSTORE DUP2 DUP2 PUSH2 0x1403 ADD MSTORE DUP2 DUP2 PUSH2 0x15DE ADD MSTORE DUP2 DUP2 PUSH2 0x161E ADD MSTORE PUSH2 0x16E7 ADD MSTORE PUSH2 0x55E2 PUSH1 0x0 RETURN INVALID PUSH1 0x80 PUSH1 0x40 MSTORE PUSH1 0x4 CALLDATASIZE LT PUSH2 0x574 JUMPI PUSH1 0x0 CALLDATALOAD PUSH1 0xE0 SHR DUP1 PUSH4 0x70713468 GT PUSH2 0x2D8 JUMPI DUP1 PUSH4 0xBB4872DE GT PUSH2 0x180 JUMPI DUP1 PUSH4 0xE4012945 GT PUSH2 0xE7 JUMPI DUP1 PUSH4 0xF26114AA GT PUSH2 0xA0 JUMPI DUP1 PUSH4 0xF375CFBA GT PUSH2 0x7A JUMPI DUP1 PUSH4 0xF375CFBA EQ PUSH2 0x1080 JUMPI DUP1 PUSH4 0xFA6E83BD EQ PUSH2 0x1097 JUMPI DUP1 PUSH4 0xFA79589E EQ PUSH2 0x10AE JUMPI DUP1 PUSH4 0xFDA70F8B EQ PUSH2 0x10CE JUMPI PUSH1 0x0 DUP1 REVERT JUMPDEST DUP1 PUSH4 0xF26114AA EQ PUSH2 0x1029 JUMPI DUP1 PUSH4 0xF2808778 EQ PUSH2 0x1049 JUMPI DUP1 PUSH4 0xF30B5614 EQ PUSH2 0x1069 JUMPI PUSH1 0x0 DUP1 REVERT JUMPDEST DUP1 PUSH4 0xE4012945 EQ PUSH2 0xF86 JUMPI DUP1 PUSH4 0xE4C0AAF4 EQ PUSH2 0xFA6 JUMPI DUP1 PUSH4 0xE6B1627C EQ PUSH2 0xFC6 JUMPI DUP1 PUSH4 0xE7C25978 EQ PUSH2 0xFE6 JUMPI DUP1 PUSH4 0xE8859A15 EQ PUSH2 0x1001 JUMPI DUP1 PUSH4 0xF21FCC00 EQ PUSH2 0x1016 JUMPI PUSH1 0x0 DUP1 REVERT JUMPDEST DUP1 PUSH4 0xCEECC55A GT PUSH2 0x139 JUMPI DUP1 PUSH4 0xCEECC55A EQ PUSH2 0xEE7 JUMPI DUP1 PUSH4 0xD1A0FAA0 EQ PUSH2 0xF07 JUMPI DUP1 PUSH4 0xDB796072 EQ PUSH2 0xF1C JUMPI DUP1 PUSH4 0xDE08160F EQ PUSH2 0xF3C JUMPI DUP1 PUSH4 0xDE8D520A EQ PUSH2 0xF5C JUMPI DUP1 PUSH4 0xE23C135C EQ PUSH2 0xF71 JUMPI PUSH1 0x0 DUP1 REVERT JUMPDEST DUP1 PUSH4 0xBB4872DE EQ PUSH2 0xE38 JUMPI DUP1 PUSH4 0xBBBA7ED9 EQ PUSH2 0xE52 JUMPI DUP1 PUSH4 0xBECACA6B EQ PUSH2 0xE72 JUMPI DUP1 PUSH4 0xC00F538D EQ PUSH2 0xE92 JUMPI DUP1 PUSH4 0xC039CC69 EQ PUSH2 0xEB2 JUMPI DUP1 PUSH4 0xC84353C9 EQ PUSH2 0xEC7 JUMPI PUSH1 0x0 DUP1 REVERT JUMPDEST DUP1 PUSH4 0x8456CB59 GT PUSH2 0x23F JUMPI DUP1 PUSH4 0x9AD6659D GT PUSH2 0x1F8 JUMPI DUP1 PUSH4 0x9FD0506D GT PUSH2 0x1D2 JUMPI DUP1 PUSH4 0x9FD0506D EQ PUSH2 0xDC2 JUMPI DUP1 PUSH4 0xA8E9AC30 EQ PUSH2 0xDE8 JUMPI DUP1 PUSH4 0xAEA038DC EQ PUSH2 0xE01 JUMPI DUP1 PUSH4 0xBB2AC788 EQ PUSH2 0xE18 JUMPI PUSH1 0x0 DUP1 REVERT JUMPDEST DUP1 PUSH4 0x9AD6659D EQ PUSH2 0xD40 JUMPI DUP1 PUSH4 0x9BDD7CCE EQ PUSH2 0xD55 JUMPI DUP1 PUSH4 0x9CABFC00 EQ PUSH2 0xD75 JUMPI PUSH1 0x0 DUP1 REVERT JUMPDEST DUP1 PUSH4 0x8456CB59 EQ PUSH2 0xC93 JUMPI DUP1 PUSH4 0x8CFA4241 EQ PUSH2 0xCA8 JUMPI DUP1 PUSH4 0x904AA85B EQ PUSH2 0xCBF JUMPI DUP1 PUSH4 0x9195C85B EQ PUSH2 0xCDF JUMPI DUP1 PUSH4 0x9853C35A EQ PUSH2 0xCFF JUMPI DUP1 PUSH4 0x9ABB14C9 EQ PUSH2 0xD20 JUMPI PUSH1 0x0 DUP1 REVERT JUMPDEST DUP1 PUSH4 0x7A4FF1D9 GT PUSH2 0x291 JUMPI DUP1 PUSH4 0x7A4FF1D9 EQ PUSH2 0xBE7 JUMPI DUP1 PUSH4 0x7A727FE8 EQ PUSH2 0xC07 JUMPI DUP1 PUSH4 0x7AF5758C EQ PUSH2 0xC1E JUMPI DUP1 PUSH4 0x7CBA2383 EQ PUSH2 0xC3E JUMPI DUP1 PUSH4 0x7D8E0314 EQ PUSH2 0xC5E JUMPI DUP1 PUSH4 0x826FCD58 EQ PUSH2 0xC7E JUMPI PUSH1 0x0 DUP1 REVERT JUMPDEST DUP1 PUSH4 0x70713468 EQ PUSH2 0xB42 JUMPI DUP1 PUSH4 0x7554FFFD EQ PUSH2 0xB62 JUMPI DUP1 PUSH4 0x7750BA0C EQ PUSH2 0xB79 JUMPI DUP1 PUSH4 0x7820A328 EQ PUSH2 0xB99 JUMPI DUP1 PUSH4 0x79F9A91C EQ PUSH2 0xBB9 JUMPI DUP1 PUSH4 0x7A193C31 EQ PUSH2 0xBD0 JUMPI PUSH1 0x0 DUP1 REVERT JUMPDEST DUP1 PUSH4 0x33421C38 GT PUSH2 0x43B JUMPI DUP1 PUSH4 0x4F0F27EE GT PUSH2 0x3A2 JUMPI DUP1 PUSH4 0x5C616A73 GT PUSH2 0x35B JUMPI DUP1 PUSH4 0x60009E0B GT PUSH2 0x335 JUMPI DUP1 PUSH4 0x60009E0B EQ PUSH2 0xAE0 JUMPI DUP1 PUSH4 0x662013F4 EQ PUSH2 0xB01 JUMPI DUP1 PUSH4 0x68274357 EQ PUSH2 0xB16 JUMPI DUP1 PUSH4 0x6B5488DF EQ PUSH2 0xB2B JUMPI PUSH1 0x0 DUP1 REVERT JUMPDEST DUP1 PUSH4 0x5C616A73 EQ PUSH2 0xA8E JUMPI DUP1 PUSH4 0x5C975ABB EQ PUSH2 0xAA3 JUMPI DUP1 PUSH4 0x5D65D045 EQ PUSH2 0xAC0 JUMPI PUSH1 0x0 DUP1 REVERT JUMPDEST DUP1 PUSH4 0x4F0F27EE EQ PUSH2 0x9FA JUMPI DUP1 PUSH4 0x4F1EF286 EQ PUSH2 0xA11 JUMPI DUP1 PUSH4 0x5210570C EQ PUSH2 0xA24 JUMPI DUP1 PUSH4 0x5241271C EQ PUSH2 0xA39 JUMPI DUP1 PUSH4 0x52D1902D EQ PUSH2 0xA59 JUMPI DUP1 PUSH4 0x54A73C62 EQ PUSH2 0xA6E JUMPI PUSH1 0x0 DUP1 REVERT JUMPDEST DUP1 PUSH4 0x4310ADC6 GT PUSH2 0x3F4 JUMPI DUP1 PUSH4 0x4310ADC6 EQ PUSH2 0x925 JUMPI DUP1 PUSH4 0x4454AE8B EQ PUSH2 0x945 JUMPI DUP1 PUSH4 0x4B746001 EQ PUSH2 0x965 JUMPI DUP1 PUSH4 0x4CFFBAAB EQ PUSH2 0x9A2 JUMPI DUP1 PUSH4 0x4D977E78 EQ PUSH2 0x9C2 JUMPI DUP1 PUSH4 0x4E1F907A EQ PUSH2 0x9D9 JUMPI PUSH1 0x0 DUP1 REVERT JUMPDEST DUP1 PUSH4 0x33421C38 EQ PUSH2 0x88F JUMPI DUP1 PUSH4 0x3659CFE6 EQ PUSH2 0x8A4 JUMPI DUP1 PUSH4 0x3BC4AC0A EQ PUSH2 0x8C4 JUMPI DUP1 PUSH4 0x3F4BA83A EQ PUSH2 0x8E4 JUMPI DUP1 PUSH4 0x4017936A EQ PUSH2 0x8F9 JUMPI DUP1 PUSH4 0x407F0E34 EQ PUSH2 0x90E JUMPI PUSH1 0x0 DUP1 REVERT JUMPDEST DUP1 PUSH4 0x1867E2F5 GT PUSH2 0x4DF JUMPI DUP1 PUSH4 0x23B98CDE GT PUSH2 0x498 JUMPI DUP1 PUSH4 0x23B98CDE EQ PUSH2 0x7D1 JUMPI DUP1 PUSH4 0x27EAB2A1 EQ PUSH2 0x801 JUMPI DUP1 PUSH4 0x2A20D57D EQ PUSH2 0x821 JUMPI DUP1 PUSH4 0x2C43BD3B EQ PUSH2 0x838 JUMPI DUP1 PUSH4 0x2D88AF4A EQ PUSH2 0x858 JUMPI DUP1 PUSH4 0x333431FD EQ PUSH2 0x878 JUMPI PUSH1 0x0 DUP1 REVERT JUMPDEST DUP1 PUSH4 0x1867E2F5 EQ PUSH2 0x732 JUMPI DUP1 PUSH4 0x1A89B8F2 EQ PUSH2 0x749 JUMPI DUP1 PUSH4 0x1F1138A6 EQ PUSH2 0x75C JUMPI DUP1 PUSH4 0x1FB0DDA0 EQ PUSH2 0x77C JUMPI DUP1 PUSH4 0x1FE6A7AD EQ PUSH2 0x791 JUMPI DUP1 PUSH4 0x2069F753 EQ PUSH2 0x7B1 JUMPI PUSH1 0x0 DUP1 REVERT JUMPDEST DUP1 PUSH4 0xD6AC463 GT PUSH2 0x531 JUMPI DUP1 PUSH4 0xD6AC463 EQ PUSH2 0x672 JUMPI DUP1 PUSH4 0xE0A8FD2 EQ PUSH2 0x692 JUMPI DUP1 PUSH4 0x1301A8F0 EQ PUSH2 0x6B2 JUMPI DUP1 PUSH4 0x17574BC5 EQ PUSH2 0x6D2 JUMPI DUP1 PUSH4 0x17DF0AB8 EQ PUSH2 0x6F2 JUMPI DUP1 PUSH4 0x181770DA EQ PUSH2 0x712 JUMPI PUSH1 0x0 DUP1 REVERT JUMPDEST DUP1 PUSH4 0x1CDED9C EQ PUSH2 0x579 JUMPI DUP1 PUSH4 0x1DDE6EF EQ PUSH2 0x5B3 JUMPI DUP1 PUSH4 0x1F1B684 EQ PUSH2 0x5D5 JUMPI DUP1 PUSH4 0xBB7F608 EQ PUSH2 0x60D JUMPI DUP1 PUSH4 0xC340A24 EQ PUSH2 0x63B JUMPI DUP1 PUSH4 0xC36D897 EQ PUSH2 0x65B JUMPI JUMPDEST PUSH1 0x0 DUP1 REVERT JUMPDEST CALLVALUE DUP1 ISZERO PUSH2 0x585 JUMPI PUSH1 0x0 DUP1 REVERT JUMPDEST POP PUSH2 0x599 PUSH2 0x594 CALLDATASIZE PUSH1 0x4 PUSH2 0x4EB2 JUMP JUMPDEST PUSH2 0x10E5 JUMP JUMPDEST PUSH1 0x40 DUP1 MLOAD SWAP3 DUP4 MSTORE PUSH1 0x20 DUP4 ADD SWAP2 SWAP1 SWAP2 MSTORE ADD JUMPDEST PUSH1 0x40 MLOAD DUP1 SWAP2 SUB SWAP1 RETURN JUMPDEST CALLVALUE DUP1 ISZERO PUSH2 0x5BF JUMPI PUSH1 0x0 DUP1 REVERT JUMPDEST POP PUSH2 0x5D3 PUSH2 0x5CE CALLDATASIZE PUSH1 0x4 PUSH2 0x4EFF JUMP JUMPDEST PUSH2 0x1104 JUMP JUMPDEST STOP JUMPDEST CALLVALUE DUP1 ISZERO PUSH2 0x5E1 JUMPI PUSH1 0x0 DUP1 REVERT JUMPDEST POP PUSH2 0x5F5 PUSH2 0x5F0 CALLDATASIZE PUSH1 0x4 PUSH2 0x4EFF JUMP JUMPDEST PUSH2 0x1112 JUMP JUMPDEST PUSH1 0x40 MLOAD PUSH1 0x1 PUSH1 0x1 PUSH1 0xA0 SHL SUB SWAP1 SWAP2 AND DUP2 MSTORE PUSH1 0x20 ADD PUSH2 0x5AA JUMP JUMPDEST CALLVALUE DUP1 ISZERO PUSH2 0x619 JUMPI PUSH1 0x0 DUP1 REVERT JUMPDEST POP PUSH2 0x62D PUSH2 0x628 CALLDATASIZE PUSH1 0x4 PUSH2 0x4F18 JUMP JUMPDEST PUSH2 0x113D JUMP JUMPDEST PUSH1 0x40 MLOAD SWAP1 DUP2 MSTORE PUSH1 0x20 ADD PUSH2 0x5AA JUMP JUMPDEST CALLVALUE DUP1 ISZERO PUSH2 0x647 JUMPI PUSH1 0x0 DUP1 REVERT JUMPDEST POP PUSH1 0x97 SLOAD PUSH2 0x5F5 SWAP1 PUSH1 0x1 PUSH1 0x1 PUSH1 0xA0 SHL SUB AND DUP2 JUMP JUMPDEST CALLVALUE DUP1 ISZERO PUSH2 0x667 JUMPI PUSH1 0x0 DUP1 REVERT JUMPDEST POP PUSH2 0x62D PUSH2 0x17E SLOAD DUP2 JUMP JUMPDEST CALLVALUE DUP1 ISZERO PUSH2 0x67E JUMPI PUSH1 0x0 DUP1 REVERT JUMPDEST POP PUSH2 0x5D3 PUSH2 0x68D CALLDATASIZE PUSH1 0x4 PUSH2 0x4F3A JUMP JUMPDEST PUSH2 0x1154 JUMP JUMPDEST CALLVALUE DUP1 ISZERO PUSH2 0x69E JUMPI PUSH1 0x0 DUP1 REVERT JUMPDEST POP PUSH2 0x5D3 PUSH2 0x6AD CALLDATASIZE PUSH1 0x4 PUSH2 0x4EFF JUMP JUMPDEST PUSH2 0x117F JUMP JUMPDEST CALLVALUE DUP1 ISZERO PUSH2 0x6BE JUMPI PUSH1 0x0 DUP1 REVERT JUMPDEST POP PUSH2 0x599 PUSH2 0x6CD CALLDATASIZE PUSH1 0x4 PUSH2 0x4F57 JUMP JUMPDEST PUSH2 0x118D JUMP JUMPDEST CALLVALUE DUP1 ISZERO PUSH2 0x6DE JUMPI PUSH1 0x0 DUP1 REVERT JUMPDEST POP PUSH2 0x599 PUSH2 0x6ED CALLDATASIZE PUSH1 0x4 PUSH2 0x4F57 JUMP JUMPDEST PUSH2 0x11AB JUMP JUMPDEST CALLVALUE DUP1 ISZERO PUSH2 0x6FE JUMPI PUSH1 0x0 DUP1 REVERT JUMPDEST POP PUSH2 0x62D PUSH2 0x70D CALLDATASIZE PUSH1 0x4 PUSH2 0x4F89 JUMP JUMPDEST PUSH2 0x11BC JUMP JUMPDEST CALLVALUE DUP1 ISZERO PUSH2 0x71E JUMPI PUSH1 0x0 DUP1 REVERT JUMPDEST POP PUSH2 0x62D PUSH2 0x72D CALLDATASIZE PUSH1 0x4 PUSH2 0x4F89 JUMP JUMPDEST PUSH2 0x11D5 JUMP JUMPDEST CALLVALUE DUP1 ISZERO PUSH2 0x73E JUMPI PUSH1 0x0 DUP1 REVERT JUMPDEST POP PUSH2 0x62D PUSH2 0x1B3 SLOAD DUP2 JUMP JUMPDEST PUSH2 0x599 PUSH2 0x757 CALLDATASIZE PUSH1 0x4 PUSH2 0x4FB5 JUMP JUMPDEST PUSH2 0x11E4 JUMP JUMPDEST CALLVALUE DUP1 ISZERO PUSH2 0x768 JUMPI PUSH1 0x0 DUP1 REVERT JUMPDEST POP PUSH2 0x599 PUSH2 0x777 CALLDATASIZE PUSH1 0x4 PUSH2 0x4FF6 JUMP JUMPDEST PUSH2 0x11F4 JUMP JUMPDEST CALLVALUE DUP1 ISZERO PUSH2 0x788 JUMPI PUSH1 0x0 DUP1 REVERT JUMPDEST POP PUSH2 0x62D PUSH2 0x1215 JUMP JUMPDEST CALLVALUE DUP1 ISZERO PUSH2 0x79D JUMPI PUSH1 0x0 DUP1 REVERT JUMPDEST POP PUSH2 0x5D3 PUSH2 0x7AC CALLDATASIZE PUSH1 0x4 PUSH2 0x5059 JUMP JUMPDEST PUSH2 0x1237 JUMP JUMPDEST CALLVALUE DUP1 ISZERO PUSH2 0x7BD JUMPI PUSH1 0x0 DUP1 REVERT JUMPDEST POP PUSH2 0x5D3 PUSH2 0x7CC CALLDATASIZE PUSH1 0x4 PUSH2 0x4EFF JUMP JUMPDEST PUSH2 0x1253 JUMP JUMPDEST CALLVALUE DUP1 ISZERO PUSH2 0x7DD JUMPI PUSH1 0x0 DUP1 REVERT JUMPDEST POP PUSH2 0x148 SLOAD PUSH2 0x7F1 SWAP1 PUSH2 0x100 SWAP1 DIV PUSH1 0xFF AND DUP2 JUMP JUMPDEST PUSH1 0x40 MLOAD SWAP1 ISZERO ISZERO DUP2 MSTORE PUSH1 0x20 ADD PUSH2 0x5AA JUMP JUMPDEST CALLVALUE DUP1 ISZERO PUSH2 0x80D JUMPI PUSH1 0x0 DUP1 REVERT JUMPDEST POP PUSH2 0x5D3 PUSH2 0x81C CALLDATASIZE PUSH1 0x4 PUSH2 0x4F3A JUMP JUMPDEST PUSH2 0x1261 JUMP JUMPDEST CALLVALUE DUP1 ISZERO PUSH2 0x82D JUMPI PUSH1 0x0 DUP1 REVERT JUMPDEST POP PUSH2 0x62D PUSH2 0x13E SLOAD DUP2 JUMP JUMPDEST CALLVALUE DUP1 ISZERO PUSH2 0x844 JUMPI PUSH1 0x0 DUP1 REVERT JUMPDEST POP PUSH2 0x5D3 PUSH2 0x853 CALLDATASIZE PUSH1 0x4 PUSH2 0x4EFF JUMP JUMPDEST PUSH2 0x128C JUMP JUMPDEST CALLVALUE DUP1 ISZERO PUSH2 0x864 JUMPI PUSH1 0x0 DUP1 REVERT JUMPDEST POP PUSH2 0x5D3 PUSH2 0x873 CALLDATASIZE PUSH1 0x4 PUSH2 0x4F3A JUMP JUMPDEST PUSH2 0x129A JUMP JUMPDEST CALLVALUE DUP1 ISZERO PUSH2 0x884 JUMPI PUSH1 0x0 DUP1 REVERT JUMPDEST POP PUSH2 0x62D PUSH2 0x13D SLOAD DUP2 JUMP JUMPDEST CALLVALUE DUP1 ISZERO PUSH2 0x89B JUMPI PUSH1 0x0 DUP1 REVERT JUMPDEST POP PUSH2 0x5D3 PUSH2 0x12CC JUMP JUMPDEST CALLVALUE DUP1 ISZERO PUSH2 0x8B0 JUMPI PUSH1 0x0 DUP1 REVERT JUMPDEST POP PUSH2 0x5D3 PUSH2 0x8BF CALLDATASIZE PUSH1 0x4 PUSH2 0x4F3A JUMP JUMPDEST PUSH2 0x13B0 JUMP JUMPDEST CALLVALUE DUP1 ISZERO PUSH2 0x8D0 JUMPI PUSH1 0x0 DUP1 REVERT JUMPDEST POP PUSH2 0x5D3 PUSH2 0x8DF CALLDATASIZE PUSH1 0x4 PUSH2 0x4EFF JUMP JUMPDEST PUSH2 0x1498 JUMP JUMPDEST CALLVALUE DUP1 ISZERO PUSH2 0x8F0 JUMPI PUSH1 0x0 DUP1 REVERT JUMPDEST POP PUSH2 0x5D3 PUSH2 0x14A6 JUMP JUMPDEST CALLVALUE DUP1 ISZERO PUSH2 0x905 JUMPI PUSH1 0x0 DUP1 REVERT JUMPDEST POP PUSH2 0x62D PUSH2 0x1540 JUMP JUMPDEST CALLVALUE DUP1 ISZERO PUSH2 0x91A JUMPI PUSH1 0x0 DUP1 REVERT JUMPDEST POP PUSH2 0x62D PUSH2 0x13C SLOAD DUP2 JUMP JUMPDEST CALLVALUE DUP1 ISZERO PUSH2 0x931 JUMPI PUSH1 0x0 DUP1 REVERT JUMPDEST POP PUSH2 0x62D PUSH2 0x940 CALLDATASIZE PUSH1 0x4 PUSH2 0x5076 JUMP JUMPDEST PUSH2 0x1563 JUMP JUMPDEST CALLVALUE DUP1 ISZERO PUSH2 0x951 JUMPI PUSH1 0x0 DUP1 REVERT JUMPDEST POP PUSH2 0x599 PUSH2 0x960 CALLDATASIZE PUSH1 0x4 PUSH2 0x4EB2 JUMP JUMPDEST PUSH2 0x1571 JUMP JUMPDEST CALLVALUE DUP1 ISZERO PUSH2 0x971 JUMPI PUSH1 0x0 DUP1 REVERT JUMPDEST POP PUSH2 0x985 PUSH2 0x980 CALLDATASIZE PUSH1 0x4 PUSH2 0x4EFF JUMP JUMPDEST PUSH2 0x1582 JUMP JUMPDEST PUSH1 0x40 DUP1 MLOAD SWAP3 DUP4 MSTORE PUSH1 0x1 PUSH1 0x1 PUSH1 0xA0 SHL SUB SWAP1 SWAP2 AND PUSH1 0x20 DUP4 ADD MSTORE ADD PUSH2 0x5AA JUMP JUMPDEST CALLVALUE DUP1 ISZERO PUSH2 0x9AE JUMPI PUSH1 0x0 DUP1 REVERT JUMPDEST POP PUSH2 0x62D PUSH2 0x9BD CALLDATASIZE PUSH1 0x4 PUSH2 0x4FB5 JUMP JUMPDEST PUSH2 0x15BA JUMP JUMPDEST CALLVALUE DUP1 ISZERO PUSH2 0x9CE JUMPI PUSH1 0x0 DUP1 REVERT JUMPDEST POP PUSH2 0x62D PUSH2 0x1B2 SLOAD DUP2 JUMP JUMPDEST CALLVALUE DUP1 ISZERO PUSH2 0x9E5 JUMPI PUSH1 0x0 DUP1 REVERT JUMPDEST POP PUSH2 0x144 SLOAD PUSH2 0x5F5 SWAP1 PUSH1 0x1 PUSH1 0x1 PUSH1 0xA0 SHL SUB AND DUP2 JUMP JUMPDEST CALLVALUE DUP1 ISZERO PUSH2 0xA06 JUMPI PUSH1 0x0 DUP1 REVERT JUMPDEST POP PUSH2 0x62D PUSH2 0x139 SLOAD DUP2 JUMP JUMPDEST PUSH2 0x5D3 PUSH2 0xA1F CALLDATASIZE PUSH1 0x4 PUSH2 0x50C5 JUMP JUMPDEST PUSH2 0x15D4 JUMP JUMPDEST CALLVALUE DUP1 ISZERO PUSH2 0xA30 JUMPI PUSH1 0x0 DUP1 REVERT JUMPDEST POP PUSH2 0x5D3 PUSH2 0x16A4 JUMP JUMPDEST CALLVALUE DUP1 ISZERO PUSH2 0xA45 JUMPI PUSH1 0x0 DUP1 REVERT JUMPDEST POP PUSH2 0x62D PUSH2 0xA54 CALLDATASIZE PUSH1 0x4 PUSH2 0x4EFF JUMP JUMPDEST PUSH2 0x16B8 JUMP JUMPDEST CALLVALUE DUP1 ISZERO PUSH2 0xA65 JUMPI PUSH1 0x0 DUP1 REVERT JUMPDEST POP PUSH2 0x62D PUSH2 0x16DA JUMP JUMPDEST CALLVALUE DUP1 ISZERO PUSH2 0xA7A JUMPI PUSH1 0x0 DUP1 REVERT JUMPDEST POP PUSH2 0x62D PUSH2 0xA89 CALLDATASIZE PUSH1 0x4 PUSH2 0x4FB5 JUMP JUMPDEST PUSH2 0x178D JUMP JUMPDEST CALLVALUE DUP1 ISZERO PUSH2 0xA9A JUMPI PUSH1 0x0 DUP1 REVERT JUMPDEST POP PUSH2 0x5D3 PUSH2 0x179C JUMP JUMPDEST CALLVALUE DUP1 ISZERO PUSH2 0xAAF JUMPI PUSH1 0x0 DUP1 REVERT JUMPDEST POP PUSH1 0xCA SLOAD PUSH2 0x100 SWAP1 DIV PUSH1 0xFF AND PUSH2 0x7F1 JUMP JUMPDEST CALLVALUE DUP1 ISZERO PUSH2 0xACC JUMPI PUSH1 0x0 DUP1 REVERT JUMPDEST POP PUSH2 0x62D PUSH2 0xADB CALLDATASIZE PUSH1 0x4 PUSH2 0x5189 JUMP JUMPDEST PUSH2 0x17F1 JUMP JUMPDEST CALLVALUE DUP1 ISZERO PUSH2 0xAEC JUMPI PUSH1 0x0 DUP1 REVERT JUMPDEST POP PUSH2 0x131 SLOAD PUSH2 0x5F5 SWAP1 PUSH1 0x1 PUSH1 0x1 PUSH1 0xA0 SHL SUB AND DUP2 JUMP JUMPDEST CALLVALUE DUP1 ISZERO PUSH2 0xB0D JUMPI PUSH1 0x0 DUP1 REVERT JUMPDEST POP PUSH2 0x62D PUSH2 0x17FE JUMP JUMPDEST CALLVALUE DUP1 ISZERO PUSH2 0xB22 JUMPI PUSH1 0x0 DUP1 REVERT JUMPDEST POP PUSH2 0x5D3 PUSH2 0x1815 JUMP JUMPDEST CALLVALUE DUP1 ISZERO PUSH2 0xB37 JUMPI PUSH1 0x0 DUP1 REVERT JUMPDEST POP PUSH2 0x62D PUSH2 0x146 SLOAD DUP2 JUMP JUMPDEST CALLVALUE DUP1 ISZERO PUSH2 0xB4E JUMPI PUSH1 0x0 DUP1 REVERT JUMPDEST POP PUSH2 0x5D3 PUSH2 0xB5D CALLDATASIZE PUSH1 0x4 PUSH2 0x4EFF JUMP JUMPDEST PUSH2 0x182C JUMP JUMPDEST CALLVALUE DUP1 ISZERO PUSH2 0xB6E JUMPI PUSH1 0x0 DUP1 REVERT JUMPDEST POP PUSH2 0x62D PUSH2 0x137 SLOAD DUP2 JUMP JUMPDEST CALLVALUE DUP1 ISZERO PUSH2 0xB85 JUMPI PUSH1 0x0 DUP1 REVERT JUMPDEST POP PUSH2 0x5D3 PUSH2 0xB94 CALLDATASIZE PUSH1 0x4 PUSH2 0x4EFF JUMP JUMPDEST PUSH2 0x183A JUMP JUMPDEST CALLVALUE DUP1 ISZERO PUSH2 0xBA5 JUMPI PUSH1 0x0 DUP1 REVERT JUMPDEST POP PUSH2 0x599 PUSH2 0xBB4 CALLDATASIZE PUSH1 0x4 PUSH2 0x4F18 JUMP JUMPDEST PUSH2 0x1848 JUMP JUMPDEST CALLVALUE DUP1 ISZERO PUSH2 0xBC5 JUMPI PUSH1 0x0 DUP1 REVERT JUMPDEST POP PUSH2 0x62D PUSH2 0x140 SLOAD DUP2 JUMP JUMPDEST CALLVALUE DUP1 ISZERO PUSH2 0xBDC JUMPI PUSH1 0x0 DUP1 REVERT JUMPDEST POP PUSH2 0x62D PUSH2 0x132 SLOAD DUP2 JUMP JUMPDEST CALLVALUE DUP1 ISZERO PUSH2 0xBF3 JUMPI PUSH1 0x0 DUP1 REVERT JUMPDEST POP PUSH2 0x5D3 PUSH2 0xC02 CALLDATASIZE PUSH1 0x4 PUSH2 0x4EFF JUMP JUMPDEST PUSH2 0x1869 JUMP JUMPDEST CALLVALUE DUP1 ISZERO PUSH2 0xC13 JUMPI PUSH1 0x0 DUP1 REVERT JUMPDEST POP PUSH2 0x62D PUSH2 0x17F SLOAD DUP2 JUMP JUMPDEST CALLVALUE DUP1 ISZERO PUSH2 0xC2A JUMPI PUSH1 0x0 DUP1 REVERT JUMPDEST POP PUSH2 0x5D3 PUSH2 0xC39 CALLDATASIZE PUSH1 0x4 PUSH2 0x4EFF JUMP JUMPDEST PUSH2 0x1877 JUMP JUMPDEST CALLVALUE DUP1 ISZERO PUSH2 0xC4A JUMPI PUSH1 0x0 DUP1 REVERT JUMPDEST POP PUSH2 0x5D3 PUSH2 0xC59 CALLDATASIZE PUSH1 0x4 PUSH2 0x4EFF JUMP JUMPDEST PUSH2 0x1885 JUMP JUMPDEST CALLVALUE DUP1 ISZERO PUSH2 0xC6A JUMPI PUSH1 0x0 DUP1 REVERT JUMPDEST POP PUSH2 0x62D PUSH2 0xC79 CALLDATASIZE PUSH1 0x4 PUSH2 0x4EFF JUMP JUMPDEST PUSH2 0x1893 JUMP JUMPDEST CALLVALUE DUP1 ISZERO PUSH2 0xC8A JUMPI PUSH1 0x0 DUP1 REVERT JUMPDEST POP PUSH2 0x62D PUSH2 0x18A4 JUMP JUMPDEST CALLVALUE DUP1 ISZERO PUSH2 0xC9F JUMPI PUSH1 0x0 DUP1 REVERT JUMPDEST POP PUSH2 0x5D3 PUSH2 0x18BF JUMP JUMPDEST CALLVALUE DUP1 ISZERO PUSH2 0xCB4 JUMPI PUSH1 0x0 DUP1 REVERT JUMPDEST POP PUSH2 0x62D PUSH2 0x147 SLOAD DUP2 JUMP JUMPDEST CALLVALUE DUP1 ISZERO PUSH2 0xCCB JUMPI PUSH1 0x0 DUP1 REVERT JUMPDEST POP PUSH2 0x62D PUSH2 0xCDA CALLDATASIZE PUSH1 0x4 PUSH2 0x4EFF JUMP JUMPDEST PUSH2 0x195A JUMP JUMPDEST CALLVALUE DUP1 ISZERO PUSH2 0xCEB JUMPI PUSH1 0x0 DUP1 REVERT JUMPDEST POP PUSH2 0x62D PUSH2 0xCFA CALLDATASIZE PUSH1 0x4 PUSH2 0x4EFF JUMP JUMPDEST PUSH2 0x1A24 JUMP JUMPDEST CALLVALUE DUP1 ISZERO PUSH2 0xD0B JUMPI PUSH1 0x0 DUP1 REVERT JUMPDEST POP PUSH2 0x143 SLOAD PUSH2 0x5F5 SWAP1 PUSH1 0x1 PUSH1 0x1 PUSH1 0xA0 SHL SUB AND DUP2 JUMP JUMPDEST CALLVALUE DUP1 ISZERO PUSH2 0xD2C JUMPI PUSH1 0x0 DUP1 REVERT JUMPDEST POP PUSH2 0x62D PUSH2 0xD3B CALLDATASIZE PUSH1 0x4 PUSH2 0x4F18 JUMP JUMPDEST PUSH2 0x1A31 JUMP JUMPDEST CALLVALUE DUP1 ISZERO PUSH2 0xD4C JUMPI PUSH1 0x0 DUP1 REVERT JUMPDEST POP PUSH2 0x7F1 PUSH2 0x1A3F JUMP JUMPDEST CALLVALUE DUP1 ISZERO PUSH2 0xD61 JUMPI PUSH1 0x0 DUP1 REVERT JUMPDEST POP PUSH2 0x599 PUSH2 0xD70 CALLDATASIZE PUSH1 0x4 PUSH2 0x4EB2 JUMP JUMPDEST PUSH2 0x1A6A JUMP JUMPDEST CALLVALUE DUP1 ISZERO PUSH2 0xD81 JUMPI PUSH1 0x0 DUP1 REVERT JUMPDEST POP PUSH2 0xDAD PUSH2 0xD90 CALLDATASIZE PUSH1 0x4 PUSH2 0x4F3A JUMP JUMPDEST PUSH2 0x134 PUSH1 0x20 MSTORE PUSH1 0x0 SWAP1 DUP2 MSTORE PUSH1 0x40 SWAP1 KECCAK256 DUP1 SLOAD PUSH1 0x1 SWAP1 SWAP2 ADD SLOAD PUSH1 0xFF AND DUP3 JUMP JUMPDEST PUSH1 0x40 DUP1 MLOAD SWAP3 DUP4 MSTORE SWAP1 ISZERO ISZERO PUSH1 0x20 DUP4 ADD MSTORE ADD PUSH2 0x5AA JUMP JUMPDEST CALLVALUE DUP1 ISZERO PUSH2 0xDCE JUMPI PUSH1 0x0 DUP1 REVERT JUMPDEST POP PUSH1 0xCA SLOAD PUSH2 0x5F5 SWAP1 PUSH3 0x10000 SWAP1 DIV PUSH1 0x1 PUSH1 0x1 PUSH1 0xA0 SHL SUB AND DUP2 JUMP JUMPDEST CALLVALUE DUP1 ISZERO PUSH2 0xDF4 JUMPI PUSH1 0x0 DUP1 REVERT JUMPDEST POP PUSH2 0x17E SLOAD NUMBER LT ISZERO PUSH2 0x7F1 JUMP JUMPDEST CALLVALUE DUP1 ISZERO PUSH2 0xE0D JUMPI PUSH1 0x0 DUP1 REVERT JUMPDEST POP PUSH2 0x62D PUSH2 0x13B SLOAD DUP2 JUMP JUMPDEST CALLVALUE DUP1 ISZERO PUSH2 0xE24 JUMPI PUSH1 0x0 DUP1 REVERT JUMPDEST POP PUSH2 0x599 PUSH2 0xE33 CALLDATASIZE PUSH1 0x4 PUSH2 0x4F57 JUMP JUMPDEST PUSH2 0x1A7B JUMP JUMPDEST CALLVALUE DUP1 ISZERO PUSH2 0xE44 JUMPI PUSH1 0x0 DUP1 REVERT JUMPDEST POP PUSH1 0xCA SLOAD PUSH2 0x7F1 SWAP1 PUSH1 0xFF AND DUP2 JUMP JUMPDEST CALLVALUE DUP1 ISZERO PUSH2 0xE5E JUMPI PUSH1 0x0 DUP1 REVERT JUMPDEST POP PUSH2 0x5D3 PUSH2 0xE6D CALLDATASIZE PUSH1 0x4 PUSH2 0x51B9 JUMP JUMPDEST PUSH2 0x1A8C JUMP JUMPDEST CALLVALUE DUP1 ISZERO PUSH2 0xE7E JUMPI PUSH1 0x0 DUP1 REVERT JUMPDEST POP PUSH2 0x5D3 PUSH2 0xE8D CALLDATASIZE PUSH1 0x4 PUSH2 0x4EFF JUMP JUMPDEST PUSH2 0x1BD1 JUMP JUMPDEST CALLVALUE DUP1 ISZERO PUSH2 0xE9E JUMPI PUSH1 0x0 DUP1 REVERT JUMPDEST POP PUSH2 0x5D3 PUSH2 0xEAD CALLDATASIZE PUSH1 0x4 PUSH2 0x4EFF JUMP JUMPDEST PUSH2 0x1BDF JUMP JUMPDEST CALLVALUE DUP1 ISZERO PUSH2 0xEBE JUMPI PUSH1 0x0 DUP1 REVERT JUMPDEST POP PUSH2 0x62D PUSH2 0x1BED JUMP JUMPDEST CALLVALUE DUP1 ISZERO PUSH2 0xED3 JUMPI PUSH1 0x0 DUP1 REVERT JUMPDEST POP PUSH2 0x5D3 PUSH2 0xEE2 CALLDATASIZE PUSH1 0x4 PUSH2 0x4EFF JUMP JUMPDEST PUSH2 0x1C08 JUMP JUMPDEST CALLVALUE DUP1 ISZERO PUSH2 0xEF3 JUMPI PUSH1 0x0 DUP1 REVERT JUMPDEST POP PUSH2 0x599 PUSH2 0xF02 CALLDATASIZE PUSH1 0x4 PUSH2 0x51D2 JUMP JUMPDEST PUSH2 0x1C16 JUMP JUMPDEST CALLVALUE DUP1 ISZERO PUSH2 0xF13 JUMPI PUSH1 0x0 DUP1 REVERT JUMPDEST POP PUSH2 0x5D3 PUSH2 0x1C28 JUMP JUMPDEST CALLVALUE DUP1 ISZERO PUSH2 0xF28 JUMPI PUSH1 0x0 DUP1 REVERT JUMPDEST POP PUSH2 0x5D3 PUSH2 0xF37 CALLDATASIZE PUSH1 0x4 PUSH2 0x520D JUMP JUMPDEST PUSH2 0x1C62 JUMP JUMPDEST CALLVALUE DUP1 ISZERO PUSH2 0xF48 JUMPI PUSH1 0x0 DUP1 REVERT JUMPDEST POP PUSH2 0x62D PUSH2 0xF57 CALLDATASIZE PUSH1 0x4 PUSH2 0x4EFF JUMP JUMPDEST PUSH2 0x1FEF JUMP JUMPDEST CALLVALUE DUP1 ISZERO PUSH2 0xF68 JUMPI PUSH1 0x0 DUP1 REVERT JUMPDEST POP PUSH2 0x62D PUSH2 0x2000 JUMP JUMPDEST CALLVALUE DUP1 ISZERO PUSH2 0xF7D JUMPI PUSH1 0x0 DUP1 REVERT JUMPDEST POP PUSH2 0x5D3 PUSH2 0x201D JUMP JUMPDEST CALLVALUE DUP1 ISZERO PUSH2 0xF92 JUMPI PUSH1 0x0 DUP1 REVERT JUMPDEST POP PUSH2 0x62D PUSH2 0xFA1 CALLDATASIZE PUSH1 0x4 PUSH2 0x5076 JUMP JUMPDEST PUSH2 0x205B JUMP JUMPDEST CALLVALUE DUP1 ISZERO PUSH2 0xFB2 JUMPI PUSH1 0x0 DUP1 REVERT JUMPDEST POP PUSH2 0x5D3 PUSH2 0xFC1 CALLDATASIZE PUSH1 0x4 PUSH2 0x4F3A JUMP JUMPDEST PUSH2 0x2069 JUMP JUMPDEST CALLVALUE DUP1 ISZERO PUSH2 0xFD2 JUMPI PUSH1 0x0 DUP1 REVERT JUMPDEST POP PUSH2 0x599 PUSH2 0xFE1 CALLDATASIZE PUSH1 0x4 PUSH2 0x4EFF JUMP JUMPDEST PUSH2 0x2093 JUMP JUMPDEST CALLVALUE DUP1 ISZERO PUSH2 0xFF2 JUMPI PUSH1 0x0 DUP1 REVERT JUMPDEST POP PUSH2 0x148 SLOAD PUSH2 0x7F1 SWAP1 PUSH1 0xFF AND DUP2 JUMP JUMPDEST CALLVALUE DUP1 ISZERO PUSH2 0x100D JUMPI PUSH1 0x0 DUP1 REVERT JUMPDEST POP PUSH2 0x62D PUSH2 0x20C2 JUMP JUMPDEST PUSH2 0x599 PUSH2 0x1024 CALLDATASIZE PUSH1 0x4 PUSH2 0x4F89 JUMP JUMPDEST PUSH2 0x20E3 JUMP JUMPDEST CALLVALUE DUP1 ISZERO PUSH2 0x1035 JUMPI PUSH1 0x0 DUP1 REVERT JUMPDEST POP PUSH2 0x5D3 PUSH2 0x1044 CALLDATASIZE PUSH1 0x4 PUSH2 0x520D JUMP JUMPDEST PUSH2 0x20FF JUMP JUMPDEST CALLVALUE DUP1 ISZERO PUSH2 0x1055 JUMPI PUSH1 0x0 DUP1 REVERT JUMPDEST POP PUSH2 0x5D3 PUSH2 0x1064 CALLDATASIZE PUSH1 0x4 PUSH2 0x4EFF JUMP JUMPDEST PUSH2 0x2389 JUMP JUMPDEST CALLVALUE DUP1 ISZERO PUSH2 0x1075 JUMPI PUSH1 0x0 DUP1 REVERT JUMPDEST POP PUSH2 0x62D PUSH2 0x12F SLOAD DUP2 JUMP JUMPDEST CALLVALUE DUP1 ISZERO PUSH2 0x108C JUMPI PUSH1 0x0 DUP1 REVERT JUMPDEST POP PUSH2 0x62D PUSH2 0x13F SLOAD DUP2 JUMP JUMPDEST CALLVALUE DUP1 ISZERO PUSH2 0x10A3 JUMPI PUSH1 0x0 DUP1 REVERT JUMPDEST POP PUSH2 0x62D PUSH2 0x138 SLOAD DUP2 JUMP JUMPDEST CALLVALUE DUP1 ISZERO PUSH2 0x10BA JUMPI PUSH1 0x0 DUP1 REVERT JUMPDEST POP PUSH2 0x62D PUSH2 0x10C9 CALLDATASIZE PUSH1 0x4 PUSH2 0x4EFF JUMP JUMPDEST PUSH2 0x2397 JUMP JUMPDEST CALLVALUE DUP1 ISZERO PUSH2 0x10DA JUMPI PUSH1 0x0 DUP1 REVERT JUMPDEST POP PUSH2 0x62D PUSH2 0x13A SLOAD DUP2 JUMP JUMPDEST PUSH1 0x0 DUP1 PUSH2 0x10F6 DUP8 DUP8 DUP8 DUP8 CALLER DUP9 PUSH2 0x23DA JUMP JUMPDEST SWAP2 POP SWAP2 POP SWAP6 POP SWAP6 SWAP4 POP POP POP POP JUMP JUMPDEST PUSH2 0x110C PUSH2 0x25B9 JUMP JUMPDEST PUSH2 0x138 SSTORE JUMP JUMPDEST PUSH2 0x133 DUP2 DUP2 SLOAD DUP2 LT PUSH2 0x1123 JUMPI PUSH1 0x0 DUP1 REVERT JUMPDEST PUSH1 0x0 SWAP2 DUP3 MSTORE PUSH1 0x20 SWAP1 SWAP2 KECCAK256 ADD SLOAD PUSH1 0x1 PUSH1 0x1 PUSH1 0xA0 SHL SUB AND SWAP1 POP DUP2 JUMP JUMPDEST PUSH1 0x0 PUSH2 0x114B DUP4 DUP4 CALLER CALLER PUSH2 0x2642 JUMP JUMPDEST SWAP1 POP JUMPDEST SWAP3 SWAP2 POP POP JUMP JUMPDEST PUSH2 0x115C PUSH2 0x25B9 JUMP JUMPDEST PUSH2 0x143 DUP1 SLOAD PUSH1 0x1 PUSH1 0x1 PUSH1 0xA0 SHL SUB NOT AND PUSH1 0x1 PUSH1 0x1 PUSH1 0xA0 SHL SUB SWAP3 SWAP1 SWAP3 AND SWAP2 SWAP1 SWAP2 OR SWAP1 SSTORE JUMP JUMPDEST PUSH2 0x1187 PUSH2 0x25B9 JUMP JUMPDEST PUSH2 0x13D SSTORE JUMP JUMPDEST PUSH1 0x0 DUP1 PUSH2 0x119E DUP7 DUP7 DUP7 DUP7 CALLER CALLER PUSH2 0x2754 JUMP JUMPDEST SWAP2 POP SWAP2 POP SWAP5 POP SWAP5 SWAP3 POP POP POP JUMP JUMPDEST PUSH1 0x0 DUP1 PUSH2 0x119E DUP7 DUP7 DUP7 DUP7 CALLER CALLER PUSH2 0x28E2 JUMP JUMPDEST PUSH1 0x0 PUSH2 0x11CB DUP5 DUP5 DUP5 CALLER CALLER PUSH2 0x2A5F JUMP JUMPDEST SWAP1 POP JUMPDEST SWAP4 SWAP3 POP POP POP JUMP JUMPDEST PUSH1 0x0 PUSH2 0x11CB DUP5 DUP5 DUP5 CALLER CALLER PUSH2 0x2B76 JUMP JUMPDEST PUSH1 0x0 DUP1 PUSH2 0x119E DUP7 DUP7 DUP7 CALLER DUP8 PUSH2 0x2CBC JUMP JUMPDEST PUSH1 0x0 DUP1 PUSH2 0x1206 DUP9 DUP9 DUP9 DUP9 DUP9 CALLER DUP10 PUSH2 0x2DF9 JUMP JUMPDEST SWAP2 POP SWAP2 POP SWAP7 POP SWAP7 SWAP5 POP POP POP POP POP JUMP JUMPDEST PUSH1 0x0 DUP1 PUSH1 0x0 PUSH2 0x1222 PUSH2 0x2FDD JUMP JUMPDEST SWAP2 POP SWAP2 POP PUSH2 0x1230 DUP3 DUP3 PUSH2 0x3089 JUMP JUMPDEST SWAP3 POP POP POP SWAP1 JUMP JUMPDEST PUSH2 0x123F PUSH2 0x25B9 JUMP JUMPDEST PUSH2 0x148 DUP1 SLOAD PUSH1 0xFF NOT AND SWAP2 ISZERO ISZERO SWAP2 SWAP1 SWAP2 OR SWAP1 SSTORE JUMP JUMPDEST PUSH2 0x125B PUSH2 0x25B9 JUMP JUMPDEST PUSH2 0x140 SSTORE JUMP JUMPDEST PUSH2 0x1269 PUSH2 0x25B9 JUMP JUMPDEST PUSH2 0x144 DUP1 SLOAD PUSH1 0x1 PUSH1 0x1 PUSH1 0xA0 SHL SUB NOT AND PUSH1 0x1 PUSH1 0x1 PUSH1 0xA0 SHL SUB SWAP3 SWAP1 SWAP3 AND SWAP2 SWAP1 SWAP2 OR SWAP1 SSTORE JUMP JUMPDEST PUSH2 0x1294 PUSH2 0x25B9 JUMP JUMPDEST PUSH2 0x147 SSTORE JUMP JUMPDEST PUSH2 0x12A2 PUSH2 0x25B9 JUMP JUMPDEST PUSH1 0xCA DUP1 SLOAD PUSH1 0x1 PUSH1 0x1 PUSH1 0xA0 SHL SUB SWAP1 SWAP3 AND PUSH3 0x10000 MUL PUSH3 0x10000 PUSH1 0x1 PUSH1 0xB0 SHL SUB NOT SWAP1 SWAP3 AND SWAP2 SWAP1 SWAP2 OR SWAP1 SSTORE JUMP JUMPDEST PUSH2 0x12D4 PUSH2 0x30C5 JUMP JUMPDEST PUSH2 0x148 SLOAD PUSH1 0xFF AND DUP1 ISZERO PUSH2 0x12F0 JUMPI POP PUSH2 0x148 SLOAD PUSH2 0x100 SWAP1 DIV PUSH1 0xFF AND ISZERO JUMPDEST DUP1 ISZERO PUSH2 0x12FF JUMPI POP PUSH2 0x12FF PUSH2 0x1A3F JUMP JUMPDEST ISZERO PUSH2 0x13AE JUMPI PUSH2 0x148 DUP1 SLOAD PUSH2 0xFF00 NOT AND PUSH2 0x100 OR SWAP1 SSTORE PUSH1 0x40 MLOAD PUSH32 0x8B77276C97A5709F0D6DB52329848A254EB760CE8BE80D281799F633BDB69E83 SWAP1 PUSH1 0x0 SWAP1 LOG1 PUSH2 0x131 PUSH1 0x0 SWAP1 SLOAD SWAP1 PUSH2 0x100 EXP SWAP1 DIV PUSH1 0x1 PUSH1 0x1 PUSH1 0xA0 SHL SUB AND PUSH1 0x1 PUSH1 0x1 PUSH1 0xA0 SHL SUB AND PUSH4 0x8456CB59 PUSH1 0x40 MLOAD DUP2 PUSH4 0xFFFFFFFF AND PUSH1 0xE0 SHL DUP2 MSTORE PUSH1 0x4 ADD PUSH1 0x0 PUSH1 0x40 MLOAD DUP1 DUP4 SUB DUP2 PUSH1 0x0 DUP8 DUP1 EXTCODESIZE ISZERO DUP1 ISZERO PUSH2 0x138E JUMPI PUSH1 0x0 DUP1 REVERT JUMPDEST POP GAS CALL ISZERO DUP1 ISZERO PUSH2 0x13A2 JUMPI RETURNDATASIZE PUSH1 0x0 DUP1 RETURNDATACOPY RETURNDATASIZE PUSH1 0x0 REVERT JUMPDEST POP POP POP POP PUSH2 0x13AE PUSH2 0x30EE JUMP JUMPDEST JUMP JUMPDEST PUSH1 0x1 PUSH1 0x1 PUSH1 0xA0 SHL SUB PUSH32 0x0 AND ADDRESS SUB PUSH2 0x1401 JUMPI PUSH1 0x40 MLOAD PUSH3 0x461BCD PUSH1 0xE5 SHL DUP2 MSTORE PUSH1 0x4 ADD PUSH2 0x13F8 SWAP1 PUSH2 0x521F JUMP JUMPDEST PUSH1 0x40 MLOAD DUP1 SWAP2 SUB SWAP1 REVERT JUMPDEST PUSH32 0x0 PUSH1 0x1 PUSH1 0x1 PUSH1 0xA0 SHL SUB AND PUSH2 0x144A PUSH1 0x0 DUP1 MLOAD PUSH1 0x20 PUSH2 0x5566 DUP4 CODECOPY DUP2 MLOAD SWAP2 MSTORE SLOAD PUSH1 0x1 PUSH1 0x1 PUSH1 0xA0 SHL SUB AND SWAP1 JUMP JUMPDEST PUSH1 0x1 PUSH1 0x1 PUSH1 0xA0 SHL SUB AND EQ PUSH2 0x1470 JUMPI PUSH1 0x40 MLOAD PUSH3 0x461BCD PUSH1 0xE5 SHL DUP2 MSTORE PUSH1 0x4 ADD PUSH2 0x13F8 SWAP1 PUSH2 0x526B JUMP JUMPDEST PUSH2 0x1479 DUP2 PUSH2 0x3239 JUMP JUMPDEST PUSH1 0x40 DUP1 MLOAD PUSH1 0x0 DUP1 DUP3 MSTORE PUSH1 0x20 DUP3 ADD SWAP1 SWAP3 MSTORE PUSH2 0x1495 SWAP2 DUP4 SWAP2 SWAP1 PUSH2 0x3241 JUMP JUMPDEST POP JUMP JUMPDEST PUSH2 0x14A0 PUSH2 0x25B9 JUMP JUMPDEST PUSH2 0x17F SSTORE JUMP JUMPDEST PUSH1 0xCA SLOAD PUSH2 0x100 SWAP1 DIV PUSH1 0xFF AND PUSH2 0x14CE JUMPI PUSH1 0x40 MLOAD PUSH4 0x7C7FD079 PUSH1 0xE0 SHL DUP2 MSTORE PUSH1 0x4 ADD PUSH1 0x40 MLOAD DUP1 SWAP2 SUB SWAP1 REVERT JUMPDEST PUSH1 0xCA SLOAD PUSH3 0x10000 SWAP1 DIV PUSH1 0x1 PUSH1 0x1 PUSH1 0xA0 SHL SUB AND CALLER EQ PUSH2 0x14FF JUMPI PUSH1 0x40 MLOAD PUSH4 0x1D77D477 PUSH1 0xE2 SHL DUP2 MSTORE PUSH1 0x4 ADD PUSH1 0x40 MLOAD DUP1 SWAP2 SUB SWAP1 REVERT JUMPDEST PUSH1 0xCA DUP1 SLOAD PUSH2 0xFF00 NOT AND SWAP1 SSTORE PUSH1 0x40 MLOAD CALLER DUP2 MSTORE PUSH32 0x5DB9EE0A495BF2E6FF9C91A7834C1BA4FDD244A5E8AA4E537BD38AEAE4B073AA SWAP1 PUSH1 0x20 ADD JUMPDEST PUSH1 0x40 MLOAD DUP1 SWAP2 SUB SWAP1 LOG1 JUMP JUMPDEST PUSH1 0x0 DUP1 PUSH1 0x0 PUSH2 0x154D PUSH2 0x2FDD JUMP JUMPDEST SWAP2 POP SWAP2 POP PUSH2 0x1230 PUSH2 0x155C PUSH2 0x33B1 JUMP JUMPDEST DUP4 DUP4 PUSH2 0x3498 JUMP JUMPDEST PUSH1 0x0 PUSH2 0x11CB DUP5 DUP5 CALLER DUP6 PUSH2 0x2642 JUMP JUMPDEST PUSH1 0x0 DUP1 PUSH2 0x10F6 DUP8 DUP8 DUP8 DUP8 CALLER DUP9 PUSH2 0x2754 JUMP JUMPDEST PUSH2 0x135 DUP2 DUP2 SLOAD DUP2 LT PUSH2 0x1593 JUMPI PUSH1 0x0 DUP1 REVERT JUMPDEST PUSH1 0x0 SWAP2 DUP3 MSTORE PUSH1 0x20 SWAP1 SWAP2 KECCAK256 PUSH1 0x2 SWAP1 SWAP2 MUL ADD DUP1 SLOAD PUSH1 0x1 SWAP1 SWAP2 ADD SLOAD SWAP1 SWAP2 POP PUSH1 0x1 PUSH1 0x1 PUSH1 0xA0 SHL SUB AND DUP3 JUMP JUMPDEST PUSH1 0x0 PUSH2 0x15C9 DUP6 DUP6 DUP6 CALLER DUP7 PUSH2 0x2B76 JUMP JUMPDEST SWAP1 POP JUMPDEST SWAP5 SWAP4 POP POP POP POP JUMP JUMPDEST PUSH1 0x1 PUSH1 0x1 PUSH1 0xA0 SHL SUB PUSH32 0x0 AND ADDRESS SUB PUSH2 0x161C JUMPI PUSH1 0x40 MLOAD PUSH3 0x461BCD PUSH1 0xE5 SHL DUP2 MSTORE PUSH1 0x4 ADD PUSH2 0x13F8 SWAP1 PUSH2 0x521F JUMP JUMPDEST PUSH32 0x0 PUSH1 0x1 PUSH1 0x1 PUSH1 0xA0 SHL SUB AND PUSH2 0x1665 PUSH1 0x0 DUP1 MLOAD PUSH1 0x20 PUSH2 0x5566 DUP4 CODECOPY DUP2 MLOAD SWAP2 MSTORE SLOAD PUSH1 0x1 PUSH1 0x1 PUSH1 0xA0 SHL SUB AND SWAP1 JUMP JUMPDEST PUSH1 0x1 PUSH1 0x1 PUSH1 0xA0 SHL SUB AND EQ PUSH2 0x168B JUMPI PUSH1 0x40 MLOAD PUSH3 0x461BCD PUSH1 0xE5 SHL DUP2 MSTORE PUSH1 0x4 ADD PUSH2 0x13F8 SWAP1 PUSH2 0x526B JUMP JUMPDEST PUSH2 0x1694 DUP3 PUSH2 0x3239 JUMP JUMPDEST PUSH2 0x16A0 DUP3 DUP3 PUSH1 0x1 PUSH2 0x3241 JUMP JUMPDEST POP POP JUMP JUMPDEST PUSH2 0x16AC PUSH2 0x25B9 JUMP JUMPDEST PUSH1 0xCA DUP1 SLOAD PUSH1 0xFF NOT AND SWAP1 SSTORE JUMP JUMPDEST PUSH2 0x142 DUP2 DUP2 SLOAD DUP2 LT PUSH2 0x16C9 JUMPI PUSH1 0x0 DUP1 REVERT JUMPDEST PUSH1 0x0 SWAP2 DUP3 MSTORE PUSH1 0x20 SWAP1 SWAP2 KECCAK256 ADD SLOAD SWAP1 POP DUP2 JUMP JUMPDEST PUSH1 0x0 ADDRESS PUSH1 0x1 PUSH1 0x1 PUSH1 0xA0 SHL SUB PUSH32 0x0 AND EQ PUSH2 0x177A JUMPI PUSH1 0x40 MLOAD PUSH3 0x461BCD PUSH1 0xE5 SHL DUP2 MSTORE PUSH1 0x20 PUSH1 0x4 DUP3 ADD MSTORE PUSH1 0x38 PUSH1 0x24 DUP3 ADD MSTORE PUSH32 0x555550535570677261646561626C653A206D757374206E6F742062652063616C PUSH1 0x44 DUP3 ADD MSTORE PUSH32 0x6C6564207468726F7567682064656C656761746563616C6C0000000000000000 PUSH1 0x64 DUP3 ADD MSTORE PUSH1 0x84 ADD PUSH2 0x13F8 JUMP JUMPDEST POP PUSH1 0x0 DUP1 MLOAD PUSH1 0x20 PUSH2 0x5566 DUP4 CODECOPY DUP2 MLOAD SWAP2 MSTORE SWAP1 JUMP JUMPDEST PUSH1 0x0 PUSH2 0x15C9 DUP6 DUP6 DUP6 CALLER DUP7 PUSH2 0x2A5F JUMP JUMPDEST PUSH2 0x17A4 PUSH2 0x30C5 JUMP JUMPDEST PUSH2 0x1B3 SLOAD NUMBER LT PUSH2 0x13AE JUMPI PUSH2 0x1B2 SLOAD PUSH2 0x17BC SWAP1 NUMBER PUSH2 0x52CD JUMP JUMPDEST PUSH2 0x1B3 SSTORE PUSH1 0x40 MLOAD PUSH32 0xD3C59BDA47E141A8EC5A33D241B7F71B86E30D359F83A9227D912858B60404FC SWAP1 PUSH1 0x0 SWAP1 LOG1 PUSH2 0x13AE PUSH2 0x34BC JUMP JUMPDEST PUSH1 0x0 PUSH2 0x114B DUP4 CALLER DUP5 PUSH2 0x34C4 JUMP JUMPDEST PUSH1 0x0 PUSH2 0x1808 PUSH2 0x1C28 JUMP JUMPDEST PUSH2 0x1810 PUSH2 0x33B1 JUMP JUMPDEST SWAP1 POP SWAP1 JUMP JUMPDEST PUSH2 0x181D PUSH2 0x25B9 JUMP JUMPDEST PUSH1 0xCA DUP1 SLOAD PUSH1 0xFF NOT AND PUSH1 0x1 OR SWAP1 SSTORE JUMP JUMPDEST PUSH2 0x1834 PUSH2 0x25B9 JUMP JUMPDEST PUSH2 0x13C SSTORE JUMP JUMPDEST PUSH2 0x1842 PUSH2 0x25B9 JUMP JUMPDEST PUSH2 0x139 SSTORE JUMP JUMPDEST PUSH1 0x0 DUP1 PUSH2 0x185E DUP5 DUP5 PUSH2 0x1859 DUP8 PUSH2 0x195A JUMP JUMPDEST PUSH2 0x36F4 JUMP JUMPDEST SWAP2 POP SWAP2 POP SWAP3 POP SWAP3 SWAP1 POP JUMP JUMPDEST PUSH2 0x1871 PUSH2 0x25B9 JUMP JUMPDEST PUSH2 0x13F SSTORE JUMP JUMPDEST PUSH2 0x187F PUSH2 0x25B9 JUMP JUMPDEST PUSH2 0x13E SSTORE JUMP JUMPDEST PUSH2 0x188D PUSH2 0x25B9 JUMP JUMPDEST PUSH2 0x146 SSTORE JUMP JUMPDEST PUSH2 0x145 DUP2 DUP2 SLOAD DUP2 LT PUSH2 0x16C9 JUMPI PUSH1 0x0 DUP1 REVERT JUMPDEST PUSH1 0x0 DUP1 PUSH1 0x0 PUSH2 0x18B1 PUSH2 0x2FDD JUMP JUMPDEST SWAP2 POP SWAP2 POP PUSH2 0x1230 DUP3 DUP3 PUSH2 0x3756 JUMP JUMPDEST PUSH2 0x18C7 PUSH2 0x30C5 JUMP JUMPDEST PUSH1 0xCA SLOAD PUSH3 0x10000 SWAP1 DIV PUSH1 0x1 PUSH1 0x1 PUSH1 0xA0 SHL SUB AND CALLER EQ PUSH2 0x18F8 JUMPI PUSH1 0x40 MLOAD PUSH4 0x1D77D477 PUSH1 0xE2 SHL DUP2 MSTORE PUSH1 0x4 ADD PUSH1 0x40 MLOAD DUP1 SWAP2 SUB SWAP1 REVERT JUMPDEST PUSH1 0xCA SLOAD PUSH1 0xFF AND PUSH2 0x191B JUMPI PUSH1 0x40 MLOAD PUSH4 0x866099C3 PUSH1 0xE0 SHL DUP2 MSTORE PUSH1 0x4 ADD PUSH1 0x40 MLOAD DUP1 SWAP2 SUB SWAP1 REVERT JUMPDEST PUSH1 0xCA DUP1 SLOAD PUSH2 0xFF00 NOT AND PUSH2 0x100 OR SWAP1 SSTORE PUSH1 0x40 MLOAD CALLER DUP2 MSTORE PUSH32 0x62E78CEA01BEE320CD4E420270B5EA74000D11B0C9F74754EBDBFC544B05A258 SWAP1 PUSH1 0x20 ADD PUSH2 0x1536 JUMP JUMPDEST PUSH1 0x0 DUP1 PUSH2 0x135 DUP4 DUP2 SLOAD DUP2 LT PUSH2 0x1971 JUMPI PUSH2 0x1971 PUSH2 0x52E0 JUMP JUMPDEST PUSH1 0x0 SWAP2 DUP3 MSTORE PUSH1 0x20 DUP3 KECCAK256 PUSH1 0x1 PUSH1 0x2 SWAP1 SWAP3 MUL ADD ADD SLOAD PUSH1 0x40 DUP1 MLOAD PUSH4 0x59E02DD7 PUSH1 0xE0 SHL DUP2 MSTORE DUP2 MLOAD PUSH1 0x1 PUSH1 0x1 PUSH1 0xA0 SHL SUB SWAP1 SWAP4 AND SWAP5 POP DUP4 SWAP3 DUP6 SWAP3 PUSH4 0x59E02DD7 SWAP3 PUSH1 0x4 DUP1 DUP3 ADD SWAP4 SWAP2 DUP3 SWAP1 SUB ADD DUP2 DUP7 GAS STATICCALL ISZERO DUP1 ISZERO PUSH2 0x19CB JUMPI RETURNDATASIZE PUSH1 0x0 DUP1 RETURNDATACOPY RETURNDATASIZE PUSH1 0x0 REVERT JUMPDEST POP POP POP POP PUSH1 0x40 MLOAD RETURNDATASIZE PUSH1 0x1F NOT PUSH1 0x1F DUP3 ADD AND DUP3 ADD DUP1 PUSH1 0x40 MSTORE POP DUP2 ADD SWAP1 PUSH2 0x19EF SWAP2 SWAP1 PUSH2 0x52F6 JUMP JUMPDEST SWAP2 POP SWAP2 POP DUP1 PUSH2 0x1A1C JUMPI PUSH1 0x40 MLOAD PUSH4 0xDE4F3A0F PUSH1 0xE0 SHL DUP2 MSTORE PUSH1 0x1 PUSH1 0x1 PUSH1 0xA0 SHL SUB DUP5 AND PUSH1 0x4 DUP3 ADD MSTORE PUSH1 0x24 ADD PUSH2 0x13F8 JUMP JUMPDEST POP SWAP4 SWAP3 POP POP POP JUMP JUMPDEST PUSH1 0x0 PUSH2 0x114E DUP3 CALLER CALLER PUSH2 0x34C4 JUMP JUMPDEST PUSH1 0x0 PUSH2 0x114B DUP4 DUP4 CALLER CALLER PUSH2 0x3775 JUMP JUMPDEST PUSH1 0x0 DUP1 PUSH1 0x0 PUSH2 0x1A4C PUSH2 0x2FDD JUMP JUMPDEST SWAP2 POP SWAP2 POP PUSH1 0x0 PUSH2 0x1A5C DUP4 DUP4 PUSH2 0x3756 JUMP JUMPDEST PUSH2 0x147 SLOAD LT ISZERO SWAP5 SWAP4 POP POP POP POP JUMP JUMPDEST PUSH1 0x0 DUP1 PUSH2 0x10F6 DUP8 DUP8 DUP8 DUP8 CALLER DUP9 PUSH2 0x28E2 JUMP JUMPDEST PUSH1 0x0 DUP1 PUSH2 0x119E DUP7 DUP7 DUP7 DUP7 CALLER CALLER PUSH2 0x23DA JUMP JUMPDEST PUSH1 0x0 SLOAD PUSH2 0x100 SWAP1 DIV PUSH1 0xFF AND ISZERO DUP1 DUP1 ISZERO PUSH2 0x1AAC JUMPI POP PUSH1 0x0 SLOAD PUSH1 0x1 PUSH1 0xFF SWAP1 SWAP2 AND LT JUMPDEST DUP1 PUSH2 0x1AC6 JUMPI POP ADDRESS EXTCODESIZE ISZERO DUP1 ISZERO PUSH2 0x1AC6 JUMPI POP PUSH1 0x0 SLOAD PUSH1 0xFF AND PUSH1 0x1 EQ JUMPDEST PUSH2 0x1B29 JUMPI PUSH1 0x40 MLOAD PUSH3 0x461BCD PUSH1 0xE5 SHL DUP2 MSTORE PUSH1 0x20 PUSH1 0x4 DUP3 ADD MSTORE PUSH1 0x2E PUSH1 0x24 DUP3 ADD MSTORE PUSH32 0x496E697469616C697A61626C653A20636F6E747261637420697320616C726561 PUSH1 0x44 DUP3 ADD MSTORE PUSH14 0x191E481A5B9A5D1A585B1A5E9959 PUSH1 0x92 SHL PUSH1 0x64 DUP3 ADD MSTORE PUSH1 0x84 ADD PUSH2 0x13F8 JUMP JUMPDEST PUSH1 0x0 DUP1 SLOAD PUSH1 0xFF NOT AND PUSH1 0x1 OR SWAP1 SSTORE DUP1 ISZERO PUSH2 0x1B4C JUMPI PUSH1 0x0 DUP1 SLOAD PUSH2 0xFF00 NOT AND PUSH2 0x100 OR SWAP1 SSTORE JUMPDEST PUSH2 0x1B5E PUSH2 0x280 DUP4 ADD PUSH2 0x260 DUP5 ADD PUSH2 0x4F3A JUMP JUMPDEST PUSH2 0x24A DUP1 SLOAD PUSH1 0x1 PUSH1 0x1 PUSH1 0xA0 SHL SUB NOT AND PUSH1 0x1 PUSH1 0x1 PUSH1 0xA0 SHL SUB SWAP3 SWAP1 SWAP3 AND SWAP2 SWAP1 SWAP2 OR SWAP1 SSTORE PUSH2 0x1B88 DUP3 PUSH2 0x3880 JUMP JUMPDEST DUP1 ISZERO PUSH2 0x16A0 JUMPI PUSH1 0x0 DUP1 SLOAD PUSH2 0xFF00 NOT AND SWAP1 SSTORE PUSH1 0x40 MLOAD PUSH1 0x1 DUP2 MSTORE PUSH32 0x7F26B83FF96E1F2B6A682F133852F6798A09C465DA95921460CEFB3847402498 SWAP1 PUSH1 0x20 ADD PUSH1 0x40 MLOAD DUP1 SWAP2 SUB SWAP1 LOG1 POP POP JUMP JUMPDEST PUSH2 0x1BD9 PUSH2 0x25B9 JUMP JUMPDEST PUSH2 0x137 SSTORE JUMP JUMPDEST PUSH2 0x1BE7 PUSH2 0x25B9 JUMP JUMPDEST PUSH2 0x13B SSTORE JUMP JUMPDEST PUSH1 0x0 DUP1 PUSH1 0x0 PUSH2 0x1BFA PUSH2 0x2FDD JUMP JUMPDEST SWAP2 POP SWAP2 POP PUSH2 0x1230 DUP3 DUP3 PUSH2 0x38F8 JUMP JUMPDEST PUSH2 0x1C10 PUSH2 0x25B9 JUMP JUMPDEST PUSH2 0x1B2 SSTORE JUMP JUMPDEST PUSH1 0x0 DUP1 PUSH2 0x10F6 DUP8 DUP8 DUP8 DUP8 DUP8 CALLER CALLER PUSH2 0x2DF9 JUMP JUMPDEST PUSH2 0x17E SLOAD NUMBER LT PUSH2 0x13AE JUMPI PUSH2 0x135 SLOAD PUSH1 0x0 JUMPDEST DUP2 DUP2 LT ISZERO PUSH2 0x1C52 JUMPI PUSH2 0x1C4A DUP2 PUSH2 0x3914 JUMP JUMPDEST PUSH1 0x1 ADD PUSH2 0x1C39 JUMP JUMPDEST POP PUSH2 0x1495 PUSH2 0x17F SLOAD NUMBER ADD PUSH2 0x17E SSTORE JUMP JUMPDEST PUSH2 0x1C6A PUSH2 0x25B9 JUMP JUMPDEST PUSH1 0x0 PUSH2 0x1C79 PUSH1 0x20 DUP4 ADD DUP4 PUSH2 0x4F3A JUMP JUMPDEST PUSH1 0x40 MLOAD PUSH4 0xD55FD845 PUSH1 0xE0 SHL DUP2 MSTORE ADDRESS PUSH1 0x4 DUP3 ADD MSTORE SWAP1 SWAP2 POP PUSH1 0x1 PUSH1 0x1 PUSH1 0xA0 SHL SUB DUP3 AND SWAP1 PUSH4 0xD55FD845 SWAP1 PUSH1 0x24 ADD PUSH1 0x20 PUSH1 0x40 MLOAD DUP1 DUP4 SUB DUP2 DUP7 GAS STATICCALL ISZERO DUP1 ISZERO PUSH2 0x1CC0 JUMPI RETURNDATASIZE PUSH1 0x0 DUP1 RETURNDATACOPY RETURNDATASIZE PUSH1 0x0 REVERT JUMPDEST POP POP POP POP PUSH1 0x40 MLOAD RETURNDATASIZE PUSH1 0x1F NOT PUSH1 0x1F DUP3 ADD AND DUP3 ADD DUP1 PUSH1 0x40 MSTORE POP DUP2 ADD SWAP1 PUSH2 0x1CE4 SWAP2 SWAP1 PUSH2 0x531B JUMP JUMPDEST PUSH2 0x1D01 JUMPI PUSH1 0x40 MLOAD PUSH4 0xE6C4247B PUSH1 0xE0 SHL DUP2 MSTORE PUSH1 0x4 ADD PUSH1 0x40 MLOAD DUP1 SWAP2 SUB SWAP1 REVERT JUMPDEST PUSH1 0x0 PUSH2 0x1D13 PUSH1 0x40 DUP5 ADD PUSH1 0x20 DUP6 ADD PUSH2 0x4F3A JUMP JUMPDEST PUSH1 0x1 PUSH1 0x1 PUSH1 0xA0 SHL SUB DUP4 AND PUSH1 0x0 SWAP1 DUP2 MSTORE PUSH2 0x134 PUSH1 0x20 MSTORE PUSH1 0x40 SWAP1 KECCAK256 PUSH1 0x1 ADD SLOAD SWAP1 SWAP2 POP PUSH1 0xFF AND ISZERO PUSH2 0x1D54 JUMPI PUSH1 0x40 MLOAD PUSH4 0x3458F6C5 PUSH1 0xE0 SHL DUP2 MSTORE PUSH1 0x4 ADD PUSH1 0x40 MLOAD DUP1 SWAP2 SUB SWAP1 REVERT JUMPDEST PUSH2 0x133 DUP1 SLOAD PUSH1 0x40 DUP1 MLOAD DUP1 DUP3 ADD DUP3 MSTORE DUP3 DUP2 MSTORE PUSH1 0x1 PUSH1 0x20 DUP1 DUP4 ADD DUP3 DUP2 MSTORE PUSH1 0x1 PUSH1 0x1 PUSH1 0xA0 SHL SUB DUP1 DUP11 AND PUSH1 0x0 DUP2 DUP2 MSTORE PUSH2 0x134 DUP6 MSTORE DUP8 DUP2 KECCAK256 SWAP7 MLOAD DUP8 SSTORE SWAP3 MLOAD SWAP6 DUP6 ADD DUP1 SLOAD SWAP7 ISZERO ISZERO PUSH1 0xFF NOT SWAP1 SWAP8 AND SWAP7 SWAP1 SWAP7 OR SWAP1 SWAP6 SSTORE DUP8 SLOAD DUP1 DUP6 ADD SWAP1 SWAP9 SSTORE PUSH32 0x92E985329FB94CC1B424EBB0F7F2929B6D27383CA94C0EC71C44FB48BDF96D2C SWAP1 SWAP8 ADD DUP1 SLOAD PUSH1 0x1 PUSH1 0x1 PUSH1 0xA0 SHL SUB NOT SWAP1 DUP2 AND SWAP1 SWAP6 OR SWAP1 SSTORE DUP5 MLOAD DUP1 DUP7 ADD DUP7 MSTORE DUP2 DUP2 MSTORE DUP9 DUP9 AND DUP2 DUP5 ADD SWAP1 DUP2 MSTORE PUSH2 0x135 DUP1 SLOAD DUP1 DUP8 ADD DUP3 SSTORE SWAP1 DUP5 MSTORE SWAP2 MLOAD PUSH1 0x2 SWAP3 DUP4 MUL PUSH32 0xDF37D27E88E3BD0B85262482997E409A463F5BE0EBB19232ABF994DD8474090D DUP2 ADD SWAP2 SWAP1 SWAP2 SSTORE SWAP1 MLOAD PUSH32 0xDF37D27E88E3BD0B85262482997E409A463F5BE0EBB19232ABF994DD8474090E SWAP1 SWAP2 ADD DUP1 SLOAD SWAP2 SWAP1 SWAP10 AND SWAP6 AND SWAP5 SWAP1 SWAP5 OR SWAP1 SWAP7 SSTORE PUSH2 0x145 DUP1 SLOAD DUP1 DUP5 ADD SWAP1 SWAP2 SSTORE DUP10 DUP6 ADD CALLDATALOAD PUSH32 0xED95984ADD84C4014C7F9D66A1B73E788E2DB64F5763FA861AD52DA204F71B2B SWAP1 SWAP2 ADD SSTORE PUSH2 0x141 DUP1 SLOAD DUP1 DUP5 ADD SWAP1 SWAP2 SSTORE PUSH1 0x60 DUP11 ADD CALLDATALOAD PUSH32 0xB3926254D0163C91FC94BF08F3F8062FF5D48635DFA7DBEF8168AD7D4847A758 SWAP1 SWAP2 ADD SSTORE PUSH2 0x142 DUP1 SLOAD DUP1 DUP5 ADD SWAP1 SWAP2 SSTORE PUSH1 0x80 DUP11 ADD CALLDATALOAD PUSH32 0x7917AD5F1BD6FA6D4F9128143F89BCBA30C5B503E76ECD2DD7562DDF9706AE19 SWAP1 SWAP2 ADD SSTORE DUP4 MLOAD DUP1 DUP6 ADD SWAP1 SWAP5 MSTORE PUSH1 0xA0 DUP10 ADD CALLDATALOAD DUP5 MSTORE PUSH1 0xC0 DUP10 ADD CALLDATALOAD SWAP1 DUP5 ADD SWAP1 DUP2 MSTORE PUSH2 0x17D DUP1 SLOAD DUP1 DUP5 ADD DUP3 SSTORE SWAP1 DUP8 MSTORE SWAP4 MLOAD SWAP4 SWAP1 SWAP3 MUL PUSH32 0xF2AEC2A8C6072690B3C86D5C08E34587F891268D22D8BDCA6E66838C0F2F22D DUP2 ADD SWAP4 SWAP1 SWAP4 SSTORE SWAP1 MLOAD PUSH32 0xF2AEC2A8C6072690B3C86D5C08E34587F891268D22D8BDCA6E66838C0F2F22E SWAP1 SWAP3 ADD SWAP2 SWAP1 SWAP2 SSTORE PUSH2 0x149 DUP1 SLOAD SWAP1 SWAP2 ADD DUP2 SSTORE SWAP1 SWAP2 MSTORE PUSH2 0x14A PUSH2 0x1F99 DUP3 PUSH2 0x195A JUMP JUMPDEST DUP2 SLOAD PUSH1 0x1 DUP2 ADD DUP4 SSTORE PUSH1 0x0 SWAP3 DUP4 MSTORE PUSH1 0x20 SWAP1 SWAP3 KECCAK256 SWAP1 SWAP2 ADD SSTORE PUSH1 0x40 MLOAD DUP2 SWAP1 PUSH32 0x6417E5A3C1E0E5DAE98B8FE718C4BABDFCB35E0D7B5E1B9641B5914756F5D8E3 SWAP1 PUSH2 0x1FE1 SWAP1 DUP8 SWAP1 PUSH2 0x5338 JUMP JUMPDEST PUSH1 0x40 MLOAD DUP1 SWAP2 SUB SWAP1 LOG2 POP POP POP POP JUMP JUMPDEST PUSH2 0x141 DUP2 DUP2 SLOAD DUP2 LT PUSH2 0x16C9 JUMPI PUSH1 0x0 DUP1 REVERT JUMPDEST PUSH1 0x0 DUP1 PUSH2 0x200B PUSH2 0x2FDD JUMP JUMPDEST SWAP2 POP POP PUSH2 0x2017 DUP2 PUSH2 0x3A2E JUMP JUMPDEST SWAP2 POP POP SWAP1 JUMP JUMPDEST PUSH1 0x0 PUSH2 0x12F SLOAD PUSH2 0x202C ADDRESS PUSH2 0x3A3F JUMP JUMPDEST PUSH2 0x2036 SWAP2 SWAP1 PUSH2 0x53A5 JUMP JUMPDEST GT ISZERO PUSH2 0x13AE JUMPI PUSH2 0x13AE PUSH2 0x12F SLOAD PUSH2 0x204C ADDRESS PUSH2 0x3A3F JUMP JUMPDEST PUSH2 0x2056 SWAP2 SWAP1 PUSH2 0x53A5 JUMP JUMPDEST PUSH2 0x3AAF JUMP JUMPDEST PUSH1 0x0 PUSH2 0x11CB DUP5 DUP5 CALLER DUP6 PUSH2 0x3775 JUMP JUMPDEST PUSH2 0x2071 PUSH2 0x25B9 JUMP JUMPDEST PUSH1 0x97 DUP1 SLOAD PUSH1 0x1 PUSH1 0x1 PUSH1 0xA0 SHL SUB NOT AND PUSH1 0x1 PUSH1 0x1 PUSH1 0xA0 SHL SUB SWAP3 SWAP1 SWAP3 AND SWAP2 SWAP1 SWAP2 OR SWAP1 SSTORE JUMP JUMPDEST PUSH2 0x17D DUP2 DUP2 SLOAD DUP2 LT PUSH2 0x20A4 JUMPI PUSH1 0x0 DUP1 REVERT JUMPDEST PUSH1 0x0 SWAP2 DUP3 MSTORE PUSH1 0x20 SWAP1 SWAP2 KECCAK256 PUSH1 0x2 SWAP1 SWAP2 MUL ADD DUP1 SLOAD PUSH1 0x1 SWAP1 SWAP2 ADD SLOAD SWAP1 SWAP2 POP DUP3 JUMP JUMPDEST PUSH1 0x0 PUSH2 0x1B3 SLOAD NUMBER LT PUSH2 0x20D4 JUMPI POP PUSH1 0x0 SWAP1 JUMP JUMPDEST NUMBER PUSH2 0x1B3 SLOAD PUSH2 0x1810 SWAP2 SWAP1 PUSH2 0x53A5 JUMP JUMPDEST PUSH1 0x0 DUP1 PUSH2 0x20F3 DUP6 DUP6 DUP6 CALLER CALLER PUSH2 0x2CBC JUMP JUMPDEST SWAP2 POP SWAP2 POP SWAP4 POP SWAP4 SWAP2 POP POP JUMP JUMPDEST PUSH2 0x2107 PUSH2 0x25B9 JUMP JUMPDEST PUSH1 0x0 PUSH2 0x134 DUP2 PUSH2 0x211A PUSH1 0x20 DUP6 ADD DUP6 PUSH2 0x4F3A JUMP JUMPDEST PUSH1 0x1 PUSH1 0x1 PUSH1 0xA0 SHL SUB AND DUP2 MSTORE PUSH1 0x20 DUP1 DUP3 ADD SWAP3 SWAP1 SWAP3 MSTORE PUSH1 0x40 SWAP1 DUP2 ADD PUSH1 0x0 KECCAK256 DUP2 MLOAD DUP1 DUP4 ADD SWAP1 SWAP3 MSTORE DUP1 SLOAD DUP3 MSTORE PUSH1 0x1 ADD SLOAD PUSH1 0xFF AND ISZERO ISZERO SWAP2 DUP2 ADD DUP3 SWAP1 MSTORE SWAP2 POP PUSH2 0x2170 JUMPI PUSH1 0x40 MLOAD PUSH4 0xE6C4247B PUSH1 0xE0 SHL DUP2 MSTORE PUSH1 0x4 ADD PUSH1 0x40 MLOAD DUP1 SWAP2 SUB SWAP1 REVERT JUMPDEST DUP1 MLOAD PUSH2 0x135 DUP1 SLOAD DUP3 SWAP1 DUP2 LT PUSH2 0x2187 JUMPI PUSH2 0x2187 PUSH2 0x52E0 JUMP JUMPDEST PUSH1 0x0 SWAP2 DUP3 MSTORE PUSH1 0x20 SWAP2 DUP3 SWAP1 KECCAK256 PUSH1 0x1 PUSH1 0x2 SWAP1 SWAP3 MUL ADD ADD SLOAD PUSH1 0x1 PUSH1 0x1 PUSH1 0xA0 SHL SUB AND SWAP1 PUSH2 0x21B6 SWAP1 PUSH1 0x40 DUP7 ADD SWAP1 DUP7 ADD PUSH2 0x4F3A JUMP JUMPDEST PUSH1 0x1 PUSH1 0x1 PUSH1 0xA0 SHL SUB AND EQ PUSH2 0x22A9 JUMPI PUSH1 0x0 PUSH2 0x21D6 PUSH1 0x40 DUP6 ADD PUSH1 0x20 DUP7 ADD PUSH2 0x4F3A JUMP JUMPDEST SWAP1 POP PUSH1 0x0 DUP2 PUSH1 0x1 PUSH1 0x1 PUSH1 0xA0 SHL SUB AND PUSH4 0x59E02DD7 PUSH1 0x40 MLOAD DUP2 PUSH4 0xFFFFFFFF AND PUSH1 0xE0 SHL DUP2 MSTORE PUSH1 0x4 ADD PUSH1 0x40 DUP1 MLOAD DUP1 DUP4 SUB DUP2 DUP7 GAS STATICCALL ISZERO DUP1 ISZERO PUSH2 0x2217 JUMPI RETURNDATASIZE PUSH1 0x0 DUP1 RETURNDATACOPY RETURNDATASIZE PUSH1 0x0 REVERT JUMPDEST POP POP POP POP PUSH1 0x40 MLOAD RETURNDATASIZE PUSH1 0x1F NOT PUSH1 0x1F DUP3 ADD AND DUP3 ADD DUP1 PUSH1 0x40 MSTORE POP DUP2 ADD SWAP1 PUSH2 0x223B SWAP2 SWAP1 PUSH2 0x52F6 JUMP JUMPDEST SWAP2 POP POP DUP1 PUSH2 0x225C JUMPI PUSH1 0x40 MLOAD PUSH4 0xE6C4247B PUSH1 0xE0 SHL DUP2 MSTORE PUSH1 0x4 ADD PUSH1 0x40 MLOAD DUP1 SWAP2 SUB SWAP1 REVERT JUMPDEST DUP2 PUSH2 0x135 DUP5 DUP2 SLOAD DUP2 LT PUSH2 0x2271 JUMPI PUSH2 0x2271 PUSH2 0x52E0 JUMP JUMPDEST SWAP1 PUSH1 0x0 MSTORE PUSH1 0x20 PUSH1 0x0 KECCAK256 SWAP1 PUSH1 0x2 MUL ADD PUSH1 0x1 ADD PUSH1 0x0 PUSH2 0x100 EXP DUP2 SLOAD DUP2 PUSH1 0x1 PUSH1 0x1 PUSH1 0xA0 SHL SUB MUL NOT AND SWAP1 DUP4 PUSH1 0x1 PUSH1 0x1 PUSH1 0xA0 SHL SUB AND MUL OR SWAP1 SSTORE POP POP POP JUMPDEST DUP3 PUSH1 0x40 ADD CALLDATALOAD PUSH2 0x145 DUP3 DUP2 SLOAD DUP2 LT PUSH2 0x22C2 JUMPI PUSH2 0x22C2 PUSH2 0x52E0 JUMP JUMPDEST SWAP1 PUSH1 0x0 MSTORE PUSH1 0x20 PUSH1 0x0 KECCAK256 ADD DUP2 SWAP1 SSTORE POP DUP3 PUSH1 0x60 ADD CALLDATALOAD PUSH2 0x141 DUP3 DUP2 SLOAD DUP2 LT PUSH2 0x22E9 JUMPI PUSH2 0x22E9 PUSH2 0x52E0 JUMP JUMPDEST SWAP1 PUSH1 0x0 MSTORE PUSH1 0x20 PUSH1 0x0 KECCAK256 ADD DUP2 SWAP1 SSTORE POP DUP3 PUSH1 0x80 ADD CALLDATALOAD PUSH2 0x142 DUP3 DUP2 SLOAD DUP2 LT PUSH2 0x2310 JUMPI PUSH2 0x2310 PUSH2 0x52E0 JUMP JUMPDEST SWAP1 PUSH1 0x0 MSTORE PUSH1 0x20 PUSH1 0x0 KECCAK256 ADD DUP2 SWAP1 SSTORE POP DUP3 PUSH1 0xC0 ADD CALLDATALOAD PUSH2 0x17D DUP3 DUP2 SLOAD DUP2 LT PUSH2 0x2337 JUMPI PUSH2 0x2337 PUSH2 0x52E0 JUMP JUMPDEST SWAP1 PUSH1 0x0 MSTORE PUSH1 0x20 PUSH1 0x0 KECCAK256 SWAP1 PUSH1 0x2 MUL ADD PUSH1 0x1 ADD DUP2 SWAP1 SSTORE POP DUP1 PUSH32 0x6417E5A3C1E0E5DAE98B8FE718C4BABDFCB35E0D7B5E1B9641B5914756F5D8E3 DUP5 PUSH1 0x40 MLOAD PUSH2 0x237C SWAP2 SWAP1 PUSH2 0x5338 JUMP JUMPDEST PUSH1 0x40 MLOAD DUP1 SWAP2 SUB SWAP1 LOG2 POP POP POP JUMP JUMPDEST PUSH2 0x2391 PUSH2 0x25B9 JUMP JUMPDEST PUSH2 0x13A SSTORE JUMP JUMPDEST PUSH1 0x0 DUP1 PUSH2 0x23A3 DUP4 PUSH2 0x195A JUMP JUMPDEST SWAP1 POP PUSH1 0x0 DUP1 PUSH2 0x23B0 PUSH2 0x2FDD JUMP JUMPDEST SWAP2 POP SWAP2 POP PUSH2 0x23D1 PUSH2 0x23BF PUSH2 0x33B1 JUMP JUMPDEST PUSH2 0x23C9 DUP8 DUP7 PUSH2 0x3ACA JUMP JUMPDEST DUP6 DUP6 DUP6 PUSH2 0x3B3C JUMP JUMPDEST SWAP6 SWAP5 POP POP POP POP POP JUMP JUMPDEST PUSH1 0x0 DUP1 PUSH2 0x23E5 PUSH2 0x3B85 JUMP JUMPDEST PUSH2 0x23ED PUSH2 0x30C5 JUMP JUMPDEST PUSH1 0x0 PUSH2 0x23F8 DUP10 PUSH2 0x195A JUMP JUMPDEST SWAP1 POP PUSH2 0x2404 DUP10 DUP3 PUSH2 0x3BAF JUMP JUMPDEST PUSH1 0x0 PUSH2 0x240E PUSH2 0x17FE JUMP JUMPDEST SWAP1 POP PUSH1 0x0 DUP1 PUSH2 0x241C DUP4 PUSH2 0x3C12 JUMP JUMPDEST SWAP2 POP SWAP2 POP PUSH2 0x242C DUP12 DUP5 DUP5 DUP5 PUSH2 0x3C60 JUMP JUMPDEST PUSH1 0x0 PUSH2 0x2439 DUP13 DUP5 DUP5 PUSH2 0x3C9A JUMP JUMPDEST POP SWAP1 POP DUP1 PUSH1 0x0 SUB PUSH2 0x245D JUMPI PUSH1 0x40 MLOAD PUSH4 0xF3E39B5D PUSH1 0xE0 SHL DUP2 MSTORE PUSH1 0x4 ADD PUSH1 0x40 MLOAD DUP1 SWAP2 SUB SWAP1 REVERT JUMPDEST PUSH8 0xDE0B6B3A7640000 PUSH2 0x132 SLOAD DUP7 DUP6 PUSH2 0x2475 DUP7 PUSH2 0x3A2E JUMP JUMPDEST PUSH2 0x247F SWAP2 SWAP1 PUSH2 0x53A5 JUMP JUMPDEST DUP16 PUSH2 0x248A SWAP2 SWAP1 PUSH2 0x53B8 JUMP JUMPDEST PUSH2 0x2494 SWAP2 SWAP1 PUSH2 0x53B8 JUMP JUMPDEST PUSH2 0x249E SWAP2 SWAP1 PUSH2 0x53CF JUMP JUMPDEST PUSH2 0x24A8 SWAP2 SWAP1 PUSH2 0x53CF JUMP JUMPDEST SWAP6 POP PUSH2 0x24B8 DUP14 DUP8 DUP8 DUP8 DUP8 DUP8 PUSH2 0x3CE0 JUMP JUMPDEST DUP11 DUP7 LT ISZERO PUSH2 0x24E3 JUMPI PUSH1 0x40 MLOAD PUSH4 0x272E3F59 PUSH1 0xE2 SHL DUP2 MSTORE PUSH1 0x4 DUP2 ADD DUP13 SWAP1 MSTORE PUSH1 0x24 DUP2 ADD DUP8 SWAP1 MSTORE PUSH1 0x44 ADD PUSH2 0x13F8 JUMP JUMPDEST PUSH2 0x24F0 DUP2 PUSH2 0x13E SLOAD PUSH2 0x3D34 JUMP JUMPDEST SWAP7 POP DUP10 DUP8 GT ISZERO PUSH2 0x251D JUMPI PUSH1 0x40 MLOAD PUSH4 0xB63F1A7 PUSH1 0xE0 SHL DUP2 MSTORE PUSH1 0x4 DUP2 ADD DUP12 SWAP1 MSTORE PUSH1 0x24 DUP2 ADD DUP9 SWAP1 MSTORE PUSH1 0x44 ADD PUSH2 0x13F8 JUMP JUMPDEST PUSH1 0x40 DUP1 MLOAD DUP14 DUP2 MSTORE PUSH1 0x20 DUP2 ADD DUP9 SWAP1 MSTORE SWAP1 DUP2 ADD DUP9 SWAP1 MSTORE DUP14 SWAP1 DUP14 SWAP1 PUSH1 0x1 PUSH1 0x1 PUSH1 0xA0 SHL SUB DUP1 DUP13 AND SWAP2 SWAP1 DUP14 AND SWAP1 DUP5 SWAP1 PUSH32 0xB0EE95633545EDABB63AFD3C3962A133536B36E2372F68C3C2722710EE0CD89 SWAP1 PUSH1 0x60 ADD PUSH1 0x40 MLOAD DUP1 SWAP2 SUB SWAP1 LOG4 POP POP PUSH2 0x2582 DUP13 PUSH1 0x0 DUP12 PUSH2 0x3D53 JUMP JUMPDEST PUSH2 0x258F DUP14 DUP8 PUSH1 0x0 DUP12 PUSH2 0x3DCA JUMP JUMPDEST PUSH1 0x0 PUSH2 0x259B DUP12 DUP10 PUSH2 0x3E55 JUMP JUMPDEST SWAP1 POP PUSH2 0x25A8 DUP11 DUP3 DUP11 PUSH2 0x3E7A JUMP JUMPDEST POP POP POP POP POP POP SWAP7 POP SWAP7 SWAP5 POP POP POP POP POP JUMP JUMPDEST PUSH1 0x97 SLOAD PUSH1 0x40 MLOAD PUSH4 0xD994D6D5 PUSH1 0xE0 SHL DUP2 MSTORE CALLER PUSH1 0x4 DUP3 ADD MSTORE PUSH1 0x1 PUSH1 0x1 PUSH1 0xA0 SHL SUB SWAP1 SWAP2 AND SWAP1 PUSH4 0xD994D6D5 SWAP1 PUSH1 0x24 ADD PUSH1 0x20 PUSH1 0x40 MLOAD DUP1 DUP4 SUB DUP2 DUP7 GAS STATICCALL ISZERO DUP1 ISZERO PUSH2 0x2601 JUMPI RETURNDATASIZE PUSH1 0x0 DUP1 RETURNDATACOPY RETURNDATASIZE PUSH1 0x0 REVERT JUMPDEST POP POP POP POP PUSH1 0x40 MLOAD RETURNDATASIZE PUSH1 0x1F NOT PUSH1 0x1F DUP3 ADD AND DUP3 ADD DUP1 PUSH1 0x40 MSTORE POP DUP2 ADD SWAP1 PUSH2 0x2625 SWAP2 SWAP1 PUSH2 0x531B JUMP JUMPDEST PUSH2 0x13AE JUMPI PUSH1 0x40 MLOAD PUSH4 0x1DD1B1B5 PUSH1 0xE2 SHL DUP2 MSTORE PUSH1 0x4 ADD PUSH1 0x40 MLOAD DUP1 SWAP2 SUB SWAP1 REVERT JUMPDEST PUSH1 0x0 PUSH2 0x264C PUSH2 0x3B85 JUMP JUMPDEST PUSH2 0x2654 PUSH2 0x30C5 JUMP JUMPDEST PUSH1 0x0 DUP1 PUSH2 0x2663 PUSH2 0x146 SLOAD PUSH2 0x3C12 JUMP JUMPDEST SWAP2 POP SWAP2 POP PUSH1 0x0 DUP1 PUSH2 0x2675 DUP10 DUP6 DUP6 PUSH2 0x3ED3 JUMP JUMPDEST SWAP1 SWAP3 POP SWAP1 POP PUSH2 0x2684 DUP2 DUP4 PUSH2 0x52CD JUMP JUMPDEST SWAP5 POP DUP8 DUP6 GT ISZERO PUSH2 0x26B1 JUMPI PUSH1 0x40 MLOAD PUSH4 0xB63F1A7 PUSH1 0xE0 SHL DUP2 MSTORE PUSH1 0x4 DUP2 ADD DUP10 SWAP1 MSTORE PUSH1 0x24 DUP2 ADD DUP7 SWAP1 MSTORE PUSH1 0x44 ADD PUSH2 0x13F8 JUMP JUMPDEST DUP5 PUSH1 0x0 SUB PUSH2 0x26D2 JUMPI PUSH1 0x40 MLOAD PUSH4 0xF3E39B5D PUSH1 0xE0 SHL DUP2 MSTORE PUSH1 0x4 ADD PUSH1 0x40 MLOAD DUP1 SWAP2 SUB SWAP1 REVERT JUMPDEST PUSH1 0x40 DUP1 MLOAD DUP11 DUP2 MSTORE PUSH1 0x20 DUP2 ADD DUP8 SWAP1 MSTORE SWAP1 DUP2 ADD DUP3 SWAP1 MSTORE PUSH1 0x1 PUSH1 0x1 PUSH1 0xA0 SHL SUB DUP1 DUP9 AND SWAP2 SWAP1 DUP10 AND SWAP1 PUSH32 0x62F0126E99B1936535DB27571CEA2B2D54DB14A471B9203B29B31B89C300E4F6 SWAP1 PUSH1 0x60 ADD PUSH1 0x40 MLOAD DUP1 SWAP2 SUB SWAP1 LOG3 PUSH2 0x272E DUP10 DUP4 DUP9 PUSH2 0x3F14 JUMP JUMPDEST PUSH1 0x0 PUSH2 0x273A DUP10 DUP8 PUSH2 0x3E55 JUMP JUMPDEST SWAP1 POP PUSH2 0x2747 DUP9 DUP3 DUP5 PUSH2 0x3E7A JUMP JUMPDEST POP POP POP POP POP SWAP5 SWAP4 POP POP POP POP JUMP JUMPDEST PUSH1 0x0 DUP1 PUSH2 0x275F PUSH2 0x3B85 JUMP JUMPDEST PUSH2 0x2767 PUSH2 0x30C5 JUMP JUMPDEST PUSH1 0x0 PUSH2 0x2772 DUP10 PUSH2 0x195A JUMP JUMPDEST SWAP1 POP PUSH2 0x277E DUP10 DUP3 PUSH2 0x3BAF JUMP JUMPDEST PUSH1 0x0 DUP1 PUSH2 0x278D PUSH2 0x146 SLOAD PUSH2 0x3C12 JUMP JUMPDEST SWAP2 POP SWAP2 POP PUSH1 0x0 PUSH2 0x279E DUP13 DUP13 DUP7 PUSH2 0x36F4 JUMP JUMPDEST POP SWAP1 POP PUSH2 0x27D7 PUSH2 0x132 SLOAD DUP13 PUSH2 0x27B3 SWAP2 SWAP1 PUSH2 0x53B8 JUMP JUMPDEST DUP6 DUP6 PUSH2 0x27BE DUP7 PUSH2 0x3A2E JUMP JUMPDEST PUSH2 0x27C8 SWAP2 SWAP1 PUSH2 0x53A5 JUMP JUMPDEST PUSH2 0x27D2 SWAP2 SWAP1 PUSH2 0x53B8 JUMP JUMPDEST PUSH2 0x3F58 JUMP JUMPDEST SWAP5 POP DUP10 DUP6 LT DUP1 PUSH2 0x27E5 JUMPI POP DUP5 ISZERO JUMPDEST ISZERO PUSH2 0x280D JUMPI PUSH1 0x40 MLOAD PUSH4 0xF577BEF5 PUSH1 0xE0 SHL DUP2 MSTORE PUSH1 0x4 DUP2 ADD DUP12 SWAP1 MSTORE PUSH1 0x24 DUP2 ADD DUP7 SWAP1 MSTORE PUSH1 0x44 ADD PUSH2 0x13F8 JUMP JUMPDEST PUSH2 0x281A DUP2 PUSH2 0x13D SLOAD PUSH2 0x3D34 JUMP JUMPDEST SWAP6 POP DUP9 DUP7 GT ISZERO PUSH2 0x2847 JUMPI PUSH1 0x40 MLOAD PUSH4 0xB63F1A7 PUSH1 0xE0 SHL DUP2 MSTORE PUSH1 0x4 DUP2 ADD DUP11 SWAP1 MSTORE PUSH1 0x24 DUP2 ADD DUP8 SWAP1 MSTORE PUSH1 0x44 ADD PUSH2 0x13F8 JUMP JUMPDEST PUSH1 0x40 DUP1 MLOAD DUP13 DUP2 MSTORE PUSH1 0x20 DUP2 ADD DUP8 SWAP1 MSTORE SWAP1 DUP2 ADD DUP8 SWAP1 MSTORE DUP13 SWAP1 DUP13 SWAP1 PUSH1 0x1 PUSH1 0x1 PUSH1 0xA0 SHL SUB DUP1 DUP12 AND SWAP2 SWAP1 DUP13 AND SWAP1 DUP5 SWAP1 PUSH32 0xF77B7563E0C6C33E0B804A715D94C82BAEA057D2E6F8BFDC211FE04D3C03BAD9 SWAP1 PUSH1 0x60 ADD PUSH1 0x40 MLOAD DUP1 SWAP2 SUB SWAP1 LOG4 POP POP PUSH2 0x28AD DUP13 DUP13 PUSH1 0x0 DUP12 PUSH2 0x3F6D JUMP JUMPDEST PUSH2 0x28B9 DUP6 PUSH1 0x0 DUP10 PUSH2 0x3F14 JUMP JUMPDEST PUSH1 0x0 PUSH2 0x28C5 DUP11 DUP9 PUSH2 0x3E55 JUMP JUMPDEST SWAP1 POP PUSH2 0x28D2 DUP10 DUP3 DUP10 PUSH2 0x3E7A JUMP JUMPDEST POP POP POP POP POP SWAP7 POP SWAP7 SWAP5 POP POP POP POP POP JUMP JUMPDEST PUSH1 0x0 DUP1 PUSH2 0x28ED PUSH2 0x3B85 JUMP JUMPDEST PUSH2 0x28F5 PUSH2 0x30C5 JUMP JUMPDEST PUSH1 0x0 PUSH2 0x2900 DUP10 PUSH2 0x195A JUMP JUMPDEST SWAP1 POP PUSH2 0x290C DUP10 DUP3 PUSH2 0x3BAF JUMP JUMPDEST PUSH1 0x0 DUP1 PUSH2 0x291B PUSH2 0x147 SLOAD PUSH2 0x3C12 JUMP JUMPDEST SWAP2 POP SWAP2 POP PUSH8 0xDE0B6B3A7640000 PUSH2 0x132 SLOAD DUP5 DUP5 DUP14 PUSH2 0x2939 SWAP2 SWAP1 PUSH2 0x53B8 JUMP JUMPDEST PUSH2 0x2943 SWAP2 SWAP1 PUSH2 0x53B8 JUMP JUMPDEST PUSH2 0x294D SWAP2 SWAP1 PUSH2 0x53CF JUMP JUMPDEST PUSH2 0x2957 SWAP2 SWAP1 PUSH2 0x53CF JUMP JUMPDEST SWAP4 POP DUP9 DUP5 GT ISZERO PUSH2 0x2984 JUMPI PUSH1 0x40 MLOAD PUSH4 0x7A031DA3 PUSH1 0xE1 SHL DUP2 MSTORE PUSH1 0x4 DUP2 ADD DUP11 SWAP1 MSTORE PUSH1 0x24 DUP2 ADD DUP6 SWAP1 MSTORE PUSH1 0x44 ADD PUSH2 0x13F8 JUMP JUMPDEST PUSH1 0x0 DUP1 PUSH2 0x299D DUP14 DUP14 DUP9 DUP9 PUSH2 0x2998 DUP10 DUP10 PUSH2 0x3089 JUMP JUMPDEST PUSH2 0x3FCE JUMP JUMPDEST SWAP1 SWAP3 POP SWAP1 POP PUSH2 0x29AC DUP2 DUP4 PUSH2 0x53A5 JUMP JUMPDEST SWAP7 POP DUP10 DUP8 LT ISZERO PUSH2 0x29D9 JUMPI PUSH1 0x40 MLOAD PUSH4 0x54CDE313 PUSH1 0xE0 SHL DUP2 MSTORE PUSH1 0x4 DUP2 ADD DUP12 SWAP1 MSTORE PUSH1 0x24 DUP2 ADD DUP9 SWAP1 MSTORE PUSH1 0x44 ADD PUSH2 0x13F8 JUMP JUMPDEST PUSH1 0x40 DUP1 MLOAD DUP14 DUP2 MSTORE PUSH1 0x20 DUP2 ADD DUP9 SWAP1 MSTORE SWAP1 DUP2 ADD DUP9 SWAP1 MSTORE PUSH1 0x60 DUP2 ADD DUP3 SWAP1 MSTORE DUP14 SWAP1 DUP14 SWAP1 DUP10 SWAP1 PUSH1 0x1 PUSH1 0x1 PUSH1 0xA0 SHL SUB DUP13 DUP2 AND SWAP2 SWAP1 DUP15 AND SWAP1 DUP6 SWAP1 PUSH32 0x879E4419A6544DE6EA456F6344B2FCF0C3B9FC0E6738C82FA4026A8789747C53 SWAP1 PUSH1 0x80 ADD PUSH1 0x40 MLOAD DUP1 SWAP2 SUB SWAP1 LOG4 POP POP POP PUSH2 0x2A47 DUP13 DUP4 DUP12 PUSH2 0x3D53 JUMP JUMPDEST PUSH2 0x2A54 DUP14 DUP8 PUSH1 0x0 DUP13 PUSH2 0x3F6D JUMP JUMPDEST PUSH2 0x28D2 DUP9 DUP9 DUP4 PUSH2 0x3E7A JUMP JUMPDEST PUSH1 0x0 PUSH2 0x2A69 PUSH2 0x3B85 JUMP JUMPDEST PUSH2 0x2A71 PUSH2 0x30C5 JUMP JUMPDEST PUSH1 0x0 PUSH2 0x2A7C DUP8 PUSH2 0x195A JUMP JUMPDEST SWAP1 POP PUSH2 0x2A88 DUP8 DUP3 PUSH2 0x3BAF JUMP JUMPDEST PUSH2 0x2A94 PUSH2 0x146 SLOAD PUSH2 0x3C12 JUMP JUMPDEST POP POP PUSH1 0x0 DUP1 PUSH2 0x2AA4 DUP10 DUP10 DUP6 PUSH2 0x36F4 JUMP JUMPDEST SWAP2 POP SWAP2 POP DUP2 PUSH1 0x0 SUB PUSH2 0x2AC9 JUMPI PUSH1 0x40 MLOAD PUSH4 0xF3E39B5D PUSH1 0xE0 SHL DUP2 MSTORE PUSH1 0x4 ADD PUSH1 0x40 MLOAD DUP1 SWAP2 SUB SWAP1 REVERT JUMPDEST PUSH2 0x2AD3 DUP2 DUP4 PUSH2 0x53A5 JUMP JUMPDEST SWAP4 POP DUP7 DUP5 LT ISZERO PUSH2 0x2B00 JUMPI PUSH1 0x40 MLOAD PUSH4 0x54CDE313 PUSH1 0xE0 SHL DUP2 MSTORE PUSH1 0x4 DUP2 ADD DUP9 SWAP1 MSTORE PUSH1 0x24 DUP2 ADD DUP6 SWAP1 MSTORE PUSH1 0x44 ADD PUSH2 0x13F8 JUMP JUMPDEST PUSH1 0x40 DUP1 MLOAD DUP10 DUP2 MSTORE PUSH1 0x20 DUP2 ADD DUP7 SWAP1 MSTORE SWAP1 DUP2 ADD DUP3 SWAP1 MSTORE PUSH1 0x1 PUSH1 0x1 PUSH1 0xA0 SHL SUB DUP1 DUP8 AND SWAP2 SWAP1 DUP9 AND SWAP1 DUP12 SWAP1 PUSH32 0x4716C9926CE32100E8A5B6AD71AF5500AC55514D7B0C8F80F209856C9DFAEB92 SWAP1 PUSH1 0x60 ADD PUSH1 0x40 MLOAD DUP1 SWAP2 SUB SWAP1 LOG4 PUSH2 0x2B5F DUP10 DUP10 DUP5 DUP10 PUSH2 0x3F6D JUMP JUMPDEST PUSH2 0x2B6A DUP6 DUP6 DUP4 PUSH2 0x3E7A JUMP JUMPDEST POP POP POP SWAP6 SWAP5 POP POP POP POP POP JUMP JUMPDEST PUSH1 0x0 PUSH2 0x2B80 PUSH2 0x3B85 JUMP JUMPDEST PUSH2 0x2B88 PUSH2 0x30C5 JUMP JUMPDEST PUSH1 0x0 PUSH2 0x2B93 DUP8 PUSH2 0x195A JUMP JUMPDEST SWAP1 POP PUSH2 0x2B9F DUP8 DUP3 PUSH2 0x3BAF JUMP JUMPDEST PUSH1 0x0 PUSH2 0x2BA9 PUSH2 0x17FE JUMP JUMPDEST SWAP1 POP PUSH1 0x0 DUP1 PUSH2 0x2BB7 DUP4 PUSH2 0x3C12 JUMP JUMPDEST SWAP2 POP SWAP2 POP PUSH2 0x2BC9 DUP11 DUP11 DUP7 DUP7 DUP7 DUP7 PUSH2 0x3CE0 JUMP JUMPDEST PUSH1 0x0 DUP1 PUSH2 0x2BD7 DUP13 DUP13 DUP9 PUSH2 0x400E JUMP JUMPDEST SWAP1 SWAP3 POP SWAP1 POP PUSH2 0x2BE6 DUP2 DUP4 PUSH2 0x52CD JUMP JUMPDEST SWAP7 POP DUP10 DUP8 GT ISZERO PUSH2 0x2C13 JUMPI PUSH1 0x40 MLOAD PUSH4 0xB63F1A7 PUSH1 0xE0 SHL DUP2 MSTORE PUSH1 0x4 DUP2 ADD DUP12 SWAP1 MSTORE PUSH1 0x24 DUP2 ADD DUP9 SWAP1 MSTORE PUSH1 0x44 ADD PUSH2 0x13F8 JUMP JUMPDEST DUP7 PUSH1 0x0 SUB PUSH2 0x2C34 JUMPI PUSH1 0x40 MLOAD PUSH4 0xF3E39B5D PUSH1 0xE0 SHL DUP2 MSTORE PUSH1 0x4 ADD PUSH1 0x40 MLOAD DUP1 SWAP2 SUB SWAP1 REVERT JUMPDEST PUSH1 0x40 DUP1 MLOAD DUP13 DUP2 MSTORE PUSH1 0x20 DUP2 ADD DUP10 SWAP1 MSTORE SWAP1 DUP2 ADD DUP3 SWAP1 MSTORE PUSH1 0x1 PUSH1 0x1 PUSH1 0xA0 SHL SUB DUP1 DUP11 AND SWAP2 SWAP1 DUP12 AND SWAP1 DUP15 SWAP1 PUSH32 0x5F8DFB23A03C1F9D37A1860FC8038FFDC6DEC3E24DB38CDB09CC0176B35453F SWAP1 PUSH1 0x60 ADD PUSH1 0x40 MLOAD DUP1 SWAP2 SUB SWAP1 LOG4 PUSH2 0x2C93 DUP13 DUP13 DUP5 DUP12 PUSH2 0x3DCA JUMP JUMPDEST PUSH1 0x0 PUSH2 0x2C9F DUP12 DUP10 PUSH2 0x3E55 JUMP JUMPDEST SWAP1 POP PUSH2 0x2CAC DUP11 DUP3 DUP5 PUSH2 0x3E7A JUMP JUMPDEST POP POP POP POP POP POP POP SWAP6 SWAP5 POP POP POP POP POP JUMP JUMPDEST PUSH1 0x0 DUP1 PUSH2 0x2CC7 PUSH2 0x3B85 JUMP JUMPDEST PUSH2 0x2CCF PUSH2 0x30C5 JUMP JUMPDEST PUSH1 0x0 DUP1 PUSH1 0x0 PUSH2 0x2CDD DUP11 PUSH2 0x195A JUMP JUMPDEST SWAP1 POP PUSH2 0x2CE9 DUP11 DUP3 PUSH2 0x3BAF JUMP JUMPDEST PUSH2 0x2CF5 PUSH2 0x147 SLOAD PUSH2 0x3C12 JUMP JUMPDEST POP POP PUSH2 0x2D01 DUP10 DUP3 PUSH2 0x4056 JUMP JUMPDEST SWAP2 SWAP6 POP SWAP4 POP SWAP2 POP PUSH2 0x2D12 DUP3 DUP5 PUSH2 0x52CD JUMP JUMPDEST SWAP5 POP DUP8 DUP6 GT ISZERO PUSH2 0x2D3F JUMPI PUSH1 0x40 MLOAD PUSH4 0xB63F1A7 PUSH1 0xE0 SHL DUP2 MSTORE PUSH1 0x4 DUP2 ADD DUP10 SWAP1 MSTORE PUSH1 0x24 DUP2 ADD DUP7 SWAP1 MSTORE PUSH1 0x44 ADD PUSH2 0x13F8 JUMP JUMPDEST DUP5 PUSH1 0x0 SUB PUSH2 0x2D60 JUMPI PUSH1 0x40 MLOAD PUSH4 0xF3E39B5D PUSH1 0xE0 SHL DUP2 MSTORE PUSH1 0x4 ADD PUSH1 0x40 MLOAD DUP1 SWAP2 SUB SWAP1 REVERT JUMPDEST PUSH1 0x40 DUP1 MLOAD DUP6 DUP2 MSTORE PUSH1 0x20 DUP2 ADD DUP12 SWAP1 MSTORE SWAP1 DUP2 ADD DUP7 SWAP1 MSTORE PUSH1 0x60 DUP2 ADD DUP4 SWAP1 MSTORE PUSH1 0x1 PUSH1 0x1 PUSH1 0xA0 SHL SUB DUP1 DUP9 AND SWAP2 SWAP1 DUP10 AND SWAP1 DUP13 SWAP1 PUSH32 0xCD3821E3A6AFEC66FDFA7A942B879811BB9919B2F270DE090B6E00178CD7EAEE SWAP1 PUSH1 0x80 ADD PUSH1 0x40 MLOAD DUP1 SWAP2 SUB SWAP1 LOG4 PUSH2 0x2DC5 DUP5 DUP5 DUP9 PUSH2 0x3F14 JUMP JUMPDEST PUSH2 0x2DD2 DUP11 DUP11 PUSH1 0x0 DUP10 PUSH2 0x3DCA JUMP JUMPDEST PUSH1 0x0 PUSH2 0x2DDE DUP10 DUP8 PUSH2 0x3E55 JUMP JUMPDEST SWAP1 POP PUSH2 0x2DEB DUP9 DUP3 DUP6 PUSH2 0x3E7A JUMP JUMPDEST POP POP POP POP SWAP6 POP SWAP6 SWAP4 POP POP POP POP JUMP JUMPDEST PUSH1 0x0 DUP1 PUSH2 0x2E04 PUSH2 0x3B85 JUMP JUMPDEST PUSH2 0x2E0C PUSH2 0x30C5 JUMP JUMPDEST DUP8 DUP10 SUB PUSH2 0x2E2C JUMPI PUSH1 0x40 MLOAD PUSH4 0x2A9FFAB7 PUSH1 0xE2 SHL DUP2 MSTORE PUSH1 0x4 ADD PUSH1 0x40 MLOAD DUP1 SWAP2 SUB SWAP1 REVERT JUMPDEST PUSH1 0x0 PUSH2 0x2E37 DUP11 PUSH2 0x195A JUMP JUMPDEST SWAP1 POP PUSH1 0x0 PUSH2 0x2E44 DUP11 PUSH2 0x195A JUMP JUMPDEST SWAP1 POP PUSH2 0x2E50 DUP12 DUP4 PUSH2 0x3BAF JUMP JUMPDEST PUSH2 0x2E5A DUP11 DUP3 PUSH2 0x3BAF JUMP JUMPDEST PUSH1 0x0 PUSH2 0x2E67 DUP13 DUP12 DUP6 PUSH2 0x36F4 JUMP JUMPDEST POP SWAP1 POP DUP3 PUSH2 0x2E75 DUP4 DUP13 PUSH2 0x53B8 JUMP JUMPDEST PUSH2 0x2E7F SWAP2 SWAP1 PUSH2 0x53CF JUMP JUMPDEST SWAP4 POP DUP9 DUP5 LT DUP1 PUSH2 0x2E8D JUMPI POP DUP4 ISZERO JUMPDEST ISZERO PUSH2 0x2EB5 JUMPI PUSH1 0x40 MLOAD PUSH4 0x272E3F59 PUSH1 0xE2 SHL DUP2 MSTORE PUSH1 0x4 DUP2 ADD DUP11 SWAP1 MSTORE PUSH1 0x24 DUP2 ADD DUP6 SWAP1 MSTORE PUSH1 0x44 ADD PUSH2 0x13F8 JUMP JUMPDEST PUSH2 0x2EBF DUP13 DUP5 PUSH2 0x3ACA JUMP JUMPDEST PUSH2 0x2EC9 DUP13 DUP5 PUSH2 0x3ACA JUMP JUMPDEST GT ISZERO PUSH2 0x2EFD JUMPI PUSH1 0x0 PUSH2 0x2ED9 PUSH2 0x17FE JUMP JUMPDEST SWAP1 POP PUSH1 0x0 DUP1 PUSH2 0x2EE7 DUP4 PUSH2 0x3C12 JUMP JUMPDEST SWAP2 POP SWAP2 POP PUSH2 0x2EF9 DUP15 DUP9 DUP8 DUP7 DUP7 DUP7 PUSH2 0x3CE0 JUMP JUMPDEST POP POP POP JUMPDEST PUSH2 0x2F0A DUP2 PUSH2 0x13C SLOAD PUSH2 0x3D34 JUMP JUMPDEST SWAP5 POP DUP8 DUP6 GT ISZERO PUSH2 0x2F37 JUMPI PUSH1 0x40 MLOAD PUSH4 0xB63F1A7 PUSH1 0xE0 SHL DUP2 MSTORE PUSH1 0x4 DUP2 ADD DUP10 SWAP1 MSTORE PUSH1 0x24 DUP2 ADD DUP7 SWAP1 MSTORE PUSH1 0x44 ADD PUSH2 0x13F8 JUMP JUMPDEST PUSH1 0x40 DUP1 MLOAD DUP13 DUP2 MSTORE PUSH1 0x20 DUP2 ADD DUP13 SWAP1 MSTORE SWAP1 DUP2 ADD DUP6 SWAP1 MSTORE PUSH1 0x60 DUP2 ADD DUP7 SWAP1 MSTORE DUP13 SWAP1 DUP13 SWAP1 DUP13 SWAP1 PUSH1 0x1 PUSH1 0x1 PUSH1 0xA0 SHL SUB DUP1 DUP12 AND SWAP2 SWAP1 DUP13 AND SWAP1 DUP6 SWAP1 PUSH32 0x77D2223ACA09D9EC6E49D1B8CDCB0B40DEC540A5F65DAF1ECAB069C822BFF460 SWAP1 PUSH1 0x80 ADD PUSH1 0x40 MLOAD DUP1 SWAP2 SUB SWAP1 LOG4 POP POP POP PUSH2 0x2FA7 DUP12 DUP6 PUSH1 0x0 DUP10 PUSH2 0x3DCA JUMP JUMPDEST PUSH2 0x2FB4 DUP13 DUP12 PUSH1 0x0 DUP11 PUSH2 0x3F6D JUMP JUMPDEST PUSH1 0x0 PUSH2 0x2FC0 DUP10 DUP8 PUSH2 0x3E55 JUMP JUMPDEST SWAP1 POP PUSH2 0x2FCD DUP9 DUP3 DUP9 PUSH2 0x3E7A JUMP JUMPDEST POP POP POP POP SWAP8 POP SWAP8 SWAP6 POP POP POP POP POP POP JUMP JUMPDEST PUSH2 0x135 SLOAD PUSH1 0x0 SWAP1 DUP2 SWAP1 DUP2 JUMPDEST DUP2 DUP2 LT ISZERO PUSH2 0x3074 JUMPI PUSH1 0x0 PUSH2 0x2FFB DUP3 PUSH2 0x195A JUMP JUMPDEST SWAP1 POP PUSH1 0x0 DUP1 PUSH2 0x300A DUP5 DUP5 PUSH2 0x40E5 JUMP JUMPDEST SWAP2 POP SWAP2 POP PUSH2 0x3048 DUP3 PUSH2 0x135 DUP7 DUP2 SLOAD DUP2 LT PUSH2 0x3026 JUMPI PUSH2 0x3026 PUSH2 0x52E0 JUMP JUMPDEST SWAP1 PUSH1 0x0 MSTORE PUSH1 0x20 PUSH1 0x0 KECCAK256 SWAP1 PUSH1 0x2 MUL ADD PUSH1 0x0 ADD SLOAD PUSH2 0x3042 SWAP2 SWAP1 PUSH2 0x52CD JUMP JUMPDEST DUP5 PUSH2 0x3F58 JUMP JUMPDEST PUSH2 0x3052 SWAP1 DUP9 PUSH2 0x52CD JUMP JUMPDEST SWAP7 POP PUSH2 0x305E DUP2 DUP8 PUSH2 0x52CD JUMP JUMPDEST SWAP6 POP POP POP POP PUSH2 0x306D DUP2 PUSH1 0x1 ADD SWAP1 JUMP JUMPDEST SWAP1 POP PUSH2 0x2FE8 JUMP JUMPDEST POP PUSH2 0x3082 DUP3 PUSH2 0x137 SLOAD PUSH2 0x3D34 JUMP JUMPDEST SWAP2 POP POP SWAP1 SWAP2 JUMP JUMPDEST PUSH1 0x0 PUSH2 0x132 SLOAD PUSH1 0x0 SUB PUSH2 0x30A5 JUMPI POP PUSH8 0xDE0B6B3A7640000 PUSH2 0x114E JUMP JUMPDEST PUSH2 0x114B DUP4 PUSH2 0x30B2 DUP5 PUSH2 0x3A2E JUMP JUMPDEST PUSH2 0x30BC SWAP2 SWAP1 PUSH2 0x53A5 JUMP JUMPDEST PUSH2 0x132 SLOAD PUSH2 0x3F58 JUMP JUMPDEST PUSH1 0xCA SLOAD PUSH2 0x100 SWAP1 DIV PUSH1 0xFF AND ISZERO PUSH2 0x13AE JUMPI PUSH1 0x40 MLOAD PUSH4 0x783BB6C9 PUSH1 0xE1 SHL DUP2 MSTORE PUSH1 0x4 ADD PUSH1 0x40 MLOAD DUP1 SWAP2 SUB SWAP1 REVERT JUMPDEST PUSH2 0x12F SLOAD PUSH1 0x0 DUP2 SWAP1 SUB PUSH2 0x30FE JUMPI POP JUMP JUMPDEST PUSH2 0x135 SLOAD PUSH1 0x0 DUP1 DUP3 PUSH8 0xFFFFFFFFFFFFFFFF DUP2 GT ISZERO PUSH2 0x311E JUMPI PUSH2 0x311E PUSH2 0x50AF JUMP JUMPDEST PUSH1 0x40 MLOAD SWAP1 DUP1 DUP3 MSTORE DUP1 PUSH1 0x20 MUL PUSH1 0x20 ADD DUP3 ADD PUSH1 0x40 MSTORE DUP1 ISZERO PUSH2 0x3147 JUMPI DUP2 PUSH1 0x20 ADD PUSH1 0x20 DUP3 MUL DUP1 CALLDATASIZE DUP4 CALLDATACOPY ADD SWAP1 POP JUMPDEST POP SWAP1 POP PUSH1 0x0 JUMPDEST DUP4 DUP2 LT ISZERO PUSH2 0x31D8 JUMPI PUSH2 0x315E DUP2 PUSH2 0x195A JUMP JUMPDEST DUP3 DUP3 DUP2 MLOAD DUP2 LT PUSH2 0x3170 JUMPI PUSH2 0x3170 PUSH2 0x52E0 JUMP JUMPDEST PUSH1 0x20 MUL PUSH1 0x20 ADD ADD DUP2 DUP2 MSTORE POP POP PUSH2 0x31C4 PUSH2 0x135 DUP3 DUP2 SLOAD DUP2 LT PUSH2 0x3193 JUMPI PUSH2 0x3193 PUSH2 0x52E0 JUMP JUMPDEST SWAP1 PUSH1 0x0 MSTORE PUSH1 0x20 PUSH1 0x0 KECCAK256 SWAP1 PUSH1 0x2 MUL ADD PUSH1 0x0 ADD SLOAD DUP4 DUP4 DUP2 MLOAD DUP2 LT PUSH2 0x31B7 JUMPI PUSH2 0x31B7 PUSH2 0x52E0 JUMP JUMPDEST PUSH1 0x20 MUL PUSH1 0x20 ADD ADD MLOAD PUSH2 0x3F58 JUMP JUMPDEST PUSH2 0x31CE SWAP1 DUP5 PUSH2 0x52CD JUMP JUMPDEST SWAP3 POP PUSH1 0x1 ADD PUSH2 0x314D JUMP JUMPDEST POP PUSH1 0x0 JUMPDEST DUP4 DUP2 LT ISZERO PUSH2 0x3232 JUMPI PUSH2 0x136 DUP6 DUP5 DUP5 DUP5 DUP2 MLOAD DUP2 LT PUSH2 0x31FB JUMPI PUSH2 0x31FB PUSH2 0x52E0 JUMP JUMPDEST PUSH1 0x20 MUL PUSH1 0x20 ADD ADD MLOAD PUSH2 0x320D SWAP2 SWAP1 PUSH2 0x53B8 JUMP JUMPDEST PUSH2 0x3217 SWAP2 SWAP1 PUSH2 0x53CF JUMP JUMPDEST DUP2 SLOAD PUSH1 0x1 DUP1 DUP3 ADD DUP5 SSTORE PUSH1 0x0 SWAP4 DUP5 MSTORE PUSH1 0x20 SWAP1 SWAP4 KECCAK256 ADD SSTORE ADD PUSH2 0x31DC JUMP JUMPDEST POP POP POP POP POP JUMP JUMPDEST PUSH2 0x1495 PUSH2 0x25B9 JUMP JUMPDEST PUSH32 0x4910FDFA16FED3260ED0E7147F7CC6DA11A60208B5B9406D12A635614FFD9143 SLOAD PUSH1 0xFF AND ISZERO PUSH2 0x3279 JUMPI PUSH2 0x3274 DUP4 PUSH2 0x414C JUMP JUMPDEST POP POP POP JUMP JUMPDEST DUP3 PUSH1 0x1 PUSH1 0x1 PUSH1 0xA0 SHL SUB AND PUSH4 0x52D1902D PUSH1 0x40 MLOAD DUP2 PUSH4 0xFFFFFFFF AND PUSH1 0xE0 SHL DUP2 MSTORE PUSH1 0x4 ADD PUSH1 0x20 PUSH1 0x40 MLOAD DUP1 DUP4 SUB DUP2 DUP7 GAS STATICCALL SWAP3 POP POP POP DUP1 ISZERO PUSH2 0x32D3 JUMPI POP PUSH1 0x40 DUP1 MLOAD PUSH1 0x1F RETURNDATASIZE SWAP1 DUP2 ADD PUSH1 0x1F NOT AND DUP3 ADD SWAP1 SWAP3 MSTORE PUSH2 0x32D0 SWAP2 DUP2 ADD SWAP1 PUSH2 0x53F1 JUMP JUMPDEST PUSH1 0x1 JUMPDEST PUSH2 0x3336 JUMPI PUSH1 0x40 MLOAD PUSH3 0x461BCD PUSH1 0xE5 SHL DUP2 MSTORE PUSH1 0x20 PUSH1 0x4 DUP3 ADD MSTORE PUSH1 0x2E PUSH1 0x24 DUP3 ADD MSTORE PUSH32 0x45524331393637557067726164653A206E657720696D706C656D656E74617469 PUSH1 0x44 DUP3 ADD MSTORE PUSH14 0x6F6E206973206E6F742055555053 PUSH1 0x90 SHL PUSH1 0x64 DUP3 ADD MSTORE PUSH1 0x84 ADD PUSH2 0x13F8 JUMP JUMPDEST PUSH1 0x0 DUP1 MLOAD PUSH1 0x20 PUSH2 0x5566 DUP4 CODECOPY DUP2 MLOAD SWAP2 MSTORE DUP2 EQ PUSH2 0x33A5 JUMPI PUSH1 0x40 MLOAD PUSH3 0x461BCD PUSH1 0xE5 SHL DUP2 MSTORE PUSH1 0x20 PUSH1 0x4 DUP3 ADD MSTORE PUSH1 0x29 PUSH1 0x24 DUP3 ADD MSTORE PUSH32 0x45524331393637557067726164653A20756E737570706F727465642070726F78 PUSH1 0x44 DUP3 ADD MSTORE PUSH9 0x1A58589B1955555251 PUSH1 0xBA SHL PUSH1 0x64 DUP3 ADD MSTORE PUSH1 0x84 ADD PUSH2 0x13F8 JUMP JUMPDEST POP PUSH2 0x3274 DUP4 DUP4 DUP4 PUSH2 0x41E8 JUMP JUMPDEST PUSH2 0x135 SLOAD PUSH1 0x0 SWAP1 DUP2 SWAP1 DUP2 SWAP1 DUP2 JUMPDEST DUP2 DUP2 LT ISZERO PUSH2 0x346E JUMPI PUSH1 0x0 PUSH2 0x33D1 DUP3 PUSH2 0x195A JUMP JUMPDEST SWAP1 POP PUSH1 0x0 PUSH2 0x33DF DUP4 DUP4 PUSH2 0x40E5 JUMP JUMPDEST POP SWAP1 POP PUSH1 0x0 PUSH2 0x342B PUSH8 0xDE0B6B3A7640000 DUP4 PUSH2 0x135 DUP8 DUP2 SLOAD DUP2 LT PUSH2 0x3405 JUMPI PUSH2 0x3405 PUSH2 0x52E0 JUMP JUMPDEST SWAP1 PUSH1 0x0 MSTORE PUSH1 0x20 PUSH1 0x0 KECCAK256 SWAP1 PUSH1 0x2 MUL ADD PUSH1 0x0 ADD SLOAD PUSH2 0x3421 SWAP2 SWAP1 PUSH2 0x52CD JUMP JUMPDEST PUSH2 0x3042 SWAP2 SWAP1 PUSH2 0x53B8 JUMP JUMPDEST SWAP1 POP DUP1 PUSH2 0x3438 DUP6 DUP6 PUSH2 0x3ACA JUMP JUMPDEST PUSH2 0x3442 SWAP2 SWAP1 PUSH2 0x53B8 JUMP JUMPDEST PUSH2 0x344C SWAP1 DUP9 PUSH2 0x52CD JUMP JUMPDEST SWAP7 POP PUSH2 0x3458 DUP2 DUP8 PUSH2 0x52CD JUMP JUMPDEST SWAP6 POP POP POP POP PUSH2 0x3467 DUP2 PUSH1 0x1 ADD SWAP1 JUMP JUMPDEST SWAP1 POP PUSH2 0x33BE JUMP JUMPDEST POP DUP2 PUSH1 0x0 SUB PUSH2 0x3486 JUMPI PUSH2 0x146 SLOAD PUSH1 0x2 MUL SWAP4 POP POP POP POP SWAP1 JUMP JUMPDEST PUSH2 0x3490 DUP3 DUP5 PUSH2 0x53CF JUMP JUMPDEST SWAP4 POP POP POP POP SWAP1 JUMP JUMPDEST PUSH1 0x0 DUP1 PUSH2 0x34A6 DUP6 DUP6 DUP6 PUSH2 0x420D JUMP JUMPDEST SWAP1 POP PUSH2 0x34B2 DUP5 DUP5 PUSH2 0x3089 JUMP JUMPDEST PUSH2 0x23D1 SWAP1 DUP3 PUSH2 0x53CF JUMP JUMPDEST PUSH2 0x13AE PUSH2 0x4257 JUMP JUMPDEST PUSH1 0x0 PUSH2 0x34CE PUSH2 0x30C5 JUMP JUMPDEST PUSH2 0x148 SLOAD PUSH2 0x100 SWAP1 DIV PUSH1 0xFF AND PUSH2 0x34F7 JUMPI PUSH1 0x40 MLOAD PUSH4 0x31B0D35 PUSH1 0xE1 SHL DUP2 MSTORE PUSH1 0x4 ADD PUSH1 0x40 MLOAD DUP1 SWAP2 SUB SWAP1 REVERT JUMPDEST PUSH1 0x0 PUSH2 0x133 DUP6 DUP2 SLOAD DUP2 LT PUSH2 0x350D JUMPI PUSH2 0x350D PUSH2 0x52E0 JUMP JUMPDEST PUSH1 0x0 SWAP2 DUP3 MSTORE PUSH1 0x20 SWAP1 SWAP2 KECCAK256 ADD SLOAD PUSH1 0x40 MLOAD PUSH4 0x70A08231 PUSH1 0xE0 SHL DUP2 MSTORE PUSH1 0x1 PUSH1 0x1 PUSH1 0xA0 SHL SUB DUP7 DUP2 AND PUSH1 0x4 DUP4 ADD MSTORE SWAP1 SWAP2 AND SWAP1 PUSH4 0x70A08231 SWAP1 PUSH1 0x24 ADD PUSH1 0x20 PUSH1 0x40 MLOAD DUP1 DUP4 SUB DUP2 DUP7 GAS STATICCALL ISZERO DUP1 ISZERO PUSH2 0x3560 JUMPI RETURNDATASIZE PUSH1 0x0 DUP1 RETURNDATACOPY RETURNDATASIZE PUSH1 0x0 REVERT JUMPDEST POP POP POP POP PUSH1 0x40 MLOAD RETURNDATASIZE PUSH1 0x1F NOT PUSH1 0x1F DUP3 ADD AND DUP3 ADD DUP1 PUSH1 0x40 MSTORE POP DUP2 ADD SWAP1 PUSH2 0x3584 SWAP2 SWAP1 PUSH2 0x53F1 JUMP JUMPDEST SWAP1 POP DUP1 PUSH1 0x0 SUB PUSH2 0x35B1 JUMPI PUSH1 0x40 MLOAD PUSH4 0x3FE8C5EB PUSH1 0xE0 SHL DUP2 MSTORE PUSH1 0x4 DUP2 ADD DUP3 SWAP1 MSTORE PUSH1 0x24 DUP2 ADD DUP3 SWAP1 MSTORE PUSH1 0x44 ADD PUSH2 0x13F8 JUMP JUMPDEST PUSH1 0x0 PUSH2 0x136 DUP7 DUP2 SLOAD DUP2 LT PUSH2 0x35C7 JUMPI PUSH2 0x35C7 PUSH2 0x52E0 JUMP JUMPDEST SWAP1 PUSH1 0x0 MSTORE PUSH1 0x20 PUSH1 0x0 KECCAK256 ADD SLOAD SWAP1 POP PUSH2 0x35DE DUP3 DUP3 PUSH2 0x3F58 JUMP JUMPDEST SWAP3 POP PUSH2 0x133 DUP7 DUP2 SLOAD DUP2 LT PUSH2 0x35F4 JUMPI PUSH2 0x35F4 PUSH2 0x52E0 JUMP JUMPDEST PUSH1 0x0 SWAP2 DUP3 MSTORE PUSH1 0x20 SWAP1 SWAP2 KECCAK256 ADD SLOAD PUSH1 0x40 MLOAD PUSH4 0x2770A7EB PUSH1 0xE2 SHL DUP2 MSTORE PUSH1 0x1 PUSH1 0x1 PUSH1 0xA0 SHL SUB DUP8 DUP2 AND PUSH1 0x4 DUP4 ADD MSTORE PUSH1 0x24 DUP3 ADD DUP6 SWAP1 MSTORE SWAP1 SWAP2 AND SWAP1 PUSH4 0x9DC29FAC SWAP1 PUSH1 0x44 ADD PUSH1 0x0 PUSH1 0x40 MLOAD DUP1 DUP4 SUB DUP2 PUSH1 0x0 DUP8 DUP1 EXTCODESIZE ISZERO DUP1 ISZERO PUSH2 0x364B JUMPI PUSH1 0x0 DUP1 REVERT JUMPDEST POP GAS CALL ISZERO DUP1 ISZERO PUSH2 0x365F JUMPI RETURNDATASIZE PUSH1 0x0 DUP1 RETURNDATACOPY RETURNDATASIZE PUSH1 0x0 REVERT JUMPDEST POP POP POP POP DUP3 PUSH2 0x366D ADDRESS PUSH2 0x3A3F JUMP JUMPDEST LT ISZERO PUSH2 0x367F JUMPI PUSH2 0x367C ADDRESS PUSH2 0x3A3F JUMP JUMPDEST SWAP3 POP JUMPDEST DUP4 PUSH1 0x1 PUSH1 0x1 PUSH1 0xA0 SHL SUB AND DUP6 PUSH1 0x1 PUSH1 0x1 PUSH1 0xA0 SHL SUB AND DUP8 PUSH32 0x4716C9926CE32100E8A5B6AD71AF5500AC55514D7B0C8F80F209856C9DFAEB92 DUP6 DUP8 PUSH1 0x0 PUSH1 0x40 MLOAD PUSH2 0x36D9 SWAP4 SWAP3 SWAP2 SWAP1 SWAP3 DUP4 MSTORE PUSH1 0x20 DUP4 ADD SWAP2 SWAP1 SWAP2 MSTORE PUSH1 0x40 DUP3 ADD MSTORE PUSH1 0x60 ADD SWAP1 JUMP JUMPDEST PUSH1 0x40 MLOAD DUP1 SWAP2 SUB SWAP1 LOG4 PUSH2 0x36EB DUP5 DUP5 PUSH2 0x4418 JUMP JUMPDEST POP POP SWAP4 SWAP3 POP POP POP JUMP JUMPDEST PUSH1 0x0 DUP1 DUP4 PUSH1 0x0 SUB PUSH2 0x3718 JUMPI PUSH1 0x40 MLOAD PUSH4 0x2A9FFAB7 PUSH1 0xE2 SHL DUP2 MSTORE PUSH1 0x4 ADD PUSH1 0x40 MLOAD DUP1 SWAP2 SUB SWAP1 REVERT JUMPDEST PUSH2 0x3722 DUP5 DUP5 PUSH2 0x3F58 JUMP JUMPDEST SWAP2 POP PUSH2 0x374C DUP3 PUSH2 0x142 DUP8 DUP2 SLOAD DUP2 LT PUSH2 0x373C JUMPI PUSH2 0x373C PUSH2 0x52E0 JUMP JUMPDEST SWAP1 PUSH1 0x0 MSTORE PUSH1 0x20 PUSH1 0x0 KECCAK256 ADD SLOAD PUSH2 0x3D34 JUMP JUMPDEST SWAP1 POP SWAP4 POP SWAP4 SWAP2 POP POP JUMP JUMPDEST PUSH1 0x0 DUP3 PUSH1 0x0 SUB PUSH2 0x3769 JUMPI POP PUSH1 0x0 NOT PUSH2 0x114E JUMP JUMPDEST PUSH2 0x114B PUSH2 0x3042 DUP4 PUSH2 0x3A2E JUMP JUMPDEST PUSH1 0x0 PUSH2 0x377F PUSH2 0x3B85 JUMP JUMPDEST PUSH2 0x3787 PUSH2 0x30C5 JUMP JUMPDEST PUSH1 0x0 PUSH2 0x3791 PUSH2 0x17FE JUMP JUMPDEST SWAP1 POP PUSH1 0x0 DUP1 PUSH2 0x379F DUP4 PUSH2 0x3C12 JUMP JUMPDEST SWAP2 POP SWAP2 POP PUSH2 0x37AF DUP9 DUP5 DUP5 DUP5 PUSH2 0x3C60 JUMP JUMPDEST PUSH1 0x0 DUP1 PUSH2 0x37BD DUP11 DUP6 DUP6 PUSH2 0x3C9A JUMP JUMPDEST SWAP2 POP SWAP2 POP DUP2 PUSH1 0x0 SUB PUSH2 0x37E2 JUMPI PUSH1 0x40 MLOAD PUSH4 0xF3E39B5D PUSH1 0xE0 SHL DUP2 MSTORE PUSH1 0x4 ADD PUSH1 0x40 MLOAD DUP1 SWAP2 SUB SWAP1 REVERT JUMPDEST PUSH2 0x37EC DUP2 DUP4 PUSH2 0x53A5 JUMP JUMPDEST SWAP6 POP DUP9 DUP7 LT ISZERO PUSH2 0x3819 JUMPI PUSH1 0x40 MLOAD PUSH4 0x54CDE313 PUSH1 0xE0 SHL DUP2 MSTORE PUSH1 0x4 DUP2 ADD DUP11 SWAP1 MSTORE PUSH1 0x24 DUP2 ADD DUP8 SWAP1 MSTORE PUSH1 0x44 ADD PUSH2 0x13F8 JUMP JUMPDEST PUSH1 0x40 DUP1 MLOAD DUP12 DUP2 MSTORE PUSH1 0x20 DUP2 ADD DUP9 SWAP1 MSTORE SWAP1 DUP2 ADD DUP3 SWAP1 MSTORE PUSH1 0x1 PUSH1 0x1 PUSH1 0xA0 SHL SUB DUP1 DUP10 AND SWAP2 SWAP1 DUP11 AND SWAP1 PUSH32 0x2D184907C04672620E3C88A12A39D6A603DD26373427842AA172EB3E5BFCFF07 SWAP1 PUSH1 0x60 ADD PUSH1 0x40 MLOAD DUP1 SWAP2 SUB SWAP1 LOG3 PUSH2 0x3875 DUP11 DUP4 DUP11 PUSH2 0x3D53 JUMP JUMPDEST PUSH2 0x2747 DUP8 DUP8 DUP4 PUSH2 0x3E7A JUMP JUMPDEST PUSH1 0x0 SLOAD PUSH2 0x100 SWAP1 DIV PUSH1 0xFF AND PUSH2 0x38A7 JUMPI PUSH1 0x40 MLOAD PUSH3 0x461BCD PUSH1 0xE5 SHL DUP2 MSTORE PUSH1 0x4 ADD PUSH2 0x13F8 SWAP1 PUSH2 0x540A JUMP JUMPDEST PUSH2 0x38D3 PUSH2 0x38BC PUSH2 0x200 DUP4 ADD PUSH2 0x1E0 DUP5 ADD PUSH2 0x4F3A JUMP JUMPDEST PUSH2 0x38CE PUSH2 0x220 DUP5 ADD PUSH2 0x200 DUP6 ADD PUSH2 0x4F3A JUMP JUMPDEST PUSH2 0x4449 JUMP JUMPDEST PUSH2 0x38DC DUP2 PUSH2 0x448C JUMP JUMPDEST PUSH2 0x38EA DUP2 PUSH2 0x220 ADD CALLDATALOAD PUSH2 0x46F1 JUMP JUMPDEST PUSH2 0x1495 DUP2 PUSH2 0x240 ADD CALLDATALOAD PUSH2 0x474B JUMP JUMPDEST PUSH1 0x0 DUP1 PUSH2 0x3904 DUP4 PUSH2 0x3A2E JUMP JUMPDEST SWAP1 POP PUSH2 0x15CC DUP2 PUSH2 0x27D2 DUP7 DUP3 PUSH2 0x53A5 JUMP JUMPDEST PUSH1 0x0 PUSH2 0x17D DUP3 DUP2 SLOAD DUP2 LT PUSH2 0x392A JUMPI PUSH2 0x392A PUSH2 0x52E0 JUMP JUMPDEST PUSH1 0x0 SWAP2 DUP3 MSTORE PUSH1 0x20 DUP1 DUP4 KECCAK256 PUSH1 0x40 DUP1 MLOAD DUP1 DUP3 ADD SWAP1 SWAP2 MSTORE PUSH1 0x2 SWAP1 SWAP4 MUL ADD DUP1 SLOAD DUP4 MSTORE PUSH1 0x1 ADD SLOAD SWAP1 DUP3 ADD MSTORE SWAP2 POP PUSH2 0x395B DUP4 PUSH2 0x195A JUMP JUMPDEST SWAP1 POP PUSH1 0x0 DUP3 PUSH1 0x20 ADD MLOAD PUSH8 0xDE0B6B3A7640000 PUSH2 0x3977 SWAP2 SWAP1 PUSH2 0x53A5 JUMP JUMPDEST DUP4 MLOAD PUSH2 0x3983 SWAP2 SWAP1 PUSH2 0x53B8 JUMP JUMPDEST SWAP1 POP PUSH1 0x0 DUP3 DUP5 PUSH1 0x20 ADD MLOAD PUSH2 0x3997 SWAP2 SWAP1 PUSH2 0x53B8 JUMP JUMPDEST SWAP1 POP PUSH1 0x0 PUSH8 0xDE0B6B3A7640000 PUSH2 0x39AE DUP4 DUP6 PUSH2 0x52CD JUMP JUMPDEST PUSH2 0x39B8 SWAP2 SWAP1 PUSH2 0x53CF JUMP JUMPDEST SWAP1 POP DUP1 PUSH2 0x17D DUP8 DUP2 SLOAD DUP2 LT PUSH2 0x39CF JUMPI PUSH2 0x39CF PUSH2 0x52E0 JUMP JUMPDEST PUSH1 0x0 SWAP2 DUP3 MSTORE PUSH1 0x20 SWAP1 SWAP2 KECCAK256 PUSH1 0x2 SWAP1 SWAP2 MUL ADD SSTORE DUP5 MLOAD PUSH1 0x40 MLOAD DUP8 SWAP2 PUSH32 0x19156E9379C7BBBCE8F646CE5EE30BA860B8F954717405F3D5859A6C1A21AE60 SWAP2 PUSH2 0x3A1E SWAP2 SWAP1 DUP6 SWAP1 SWAP2 DUP3 MSTORE PUSH1 0x20 DUP3 ADD MSTORE PUSH1 0x40 ADD SWAP1 JUMP JUMPDEST PUSH1 0x40 MLOAD DUP1 SWAP2 SUB SWAP1 LOG2 POP POP POP POP POP POP JUMP JUMPDEST PUSH1 0x0 DUP2 PUSH2 0x12F SLOAD PUSH2 0x114E SWAP2 SWAP1 PUSH2 0x53A5 JUMP JUMPDEST PUSH2 0x24A SLOAD PUSH1 0x40 MLOAD PUSH4 0x70A08231 PUSH1 0xE0 SHL DUP2 MSTORE PUSH1 0x1 PUSH1 0x1 PUSH1 0xA0 SHL SUB DUP4 DUP2 AND PUSH1 0x4 DUP4 ADD MSTORE PUSH1 0x0 SWAP3 AND SWAP1 PUSH4 0x70A08231 SWAP1 PUSH1 0x24 ADD PUSH1 0x20 PUSH1 0x40 MLOAD DUP1 DUP4 SUB DUP2 DUP7 GAS STATICCALL ISZERO DUP1 ISZERO PUSH2 0x3A8B JUMPI RETURNDATASIZE PUSH1 0x0 DUP1 RETURNDATACOPY RETURNDATASIZE PUSH1 0x0 REVERT JUMPDEST POP POP POP POP PUSH1 0x40 MLOAD RETURNDATASIZE PUSH1 0x1F NOT PUSH1 0x1F DUP3 ADD AND DUP3 ADD DUP1 PUSH1 0x40 MSTORE POP DUP2 ADD SWAP1 PUSH2 0x114E SWAP2 SWAP1 PUSH2 0x53F1 JUMP JUMPDEST DUP1 PUSH2 0x12F PUSH1 0x0 DUP3 DUP3 SLOAD PUSH2 0x3AC2 SWAP2 SWAP1 PUSH2 0x52CD JUMP JUMPDEST SWAP1 SWAP2 SSTORE POP POP POP JUMP JUMPDEST PUSH1 0x0 DUP1 PUSH2 0x145 DUP5 DUP2 SLOAD DUP2 LT PUSH2 0x3AE1 JUMPI PUSH2 0x3AE1 PUSH2 0x52E0 JUMP JUMPDEST SWAP1 PUSH1 0x0 MSTORE PUSH1 0x20 PUSH1 0x0 KECCAK256 ADD SLOAD SWAP1 POP PUSH1 0x0 PUSH2 0x17D DUP6 DUP2 SLOAD DUP2 LT PUSH2 0x3B04 JUMPI PUSH2 0x3B04 PUSH2 0x52E0 JUMP JUMPDEST SWAP1 PUSH1 0x0 MSTORE PUSH1 0x20 PUSH1 0x0 KECCAK256 SWAP1 PUSH1 0x2 MUL ADD PUSH1 0x0 ADD SLOAD SWAP1 POP DUP4 DUP2 LT PUSH2 0x3B27 JUMPI POP SWAP1 POP PUSH2 0x114E JUMP JUMPDEST DUP1 PUSH2 0x3B32 DUP6 DUP5 PUSH2 0x53B8 JUMP JUMPDEST PUSH2 0x23D1 SWAP2 SWAP1 PUSH2 0x53CF JUMP JUMPDEST PUSH1 0x0 PUSH8 0xDE0B6B3A7640000 PUSH2 0x3B51 DUP2 DUP8 PUSH2 0x53A5 JUMP JUMPDEST DUP6 PUSH2 0x3B5D DUP10 DUP8 DUP8 PUSH2 0x420D JUMP JUMPDEST PUSH2 0x3B67 SWAP2 SWAP1 PUSH2 0x53B8 JUMP JUMPDEST PUSH2 0x3B71 SWAP2 SWAP1 PUSH2 0x53CF JUMP JUMPDEST PUSH2 0x3B7B SWAP2 SWAP1 PUSH2 0x53CF JUMP JUMPDEST SWAP7 SWAP6 POP POP POP POP POP POP JUMP JUMPDEST PUSH2 0x148 SLOAD PUSH2 0x100 SWAP1 DIV PUSH1 0xFF AND ISZERO PUSH2 0x13AE JUMPI PUSH1 0x40 MLOAD PUSH4 0x1CA61D77 PUSH1 0xE0 SHL DUP2 MSTORE PUSH1 0x4 ADD PUSH1 0x40 MLOAD DUP1 SWAP2 SUB SWAP1 REVERT JUMPDEST PUSH2 0x3BB9 DUP3 DUP3 PUSH2 0x4789 JUMP JUMPDEST PUSH2 0x149 DUP4 DUP2 SLOAD DUP2 LT PUSH2 0x3BCD JUMPI PUSH2 0x3BCD PUSH2 0x52E0 JUMP JUMPDEST SWAP1 PUSH1 0x0 MSTORE PUSH1 0x20 PUSH1 0x0 KECCAK256 ADD PUSH1 0x0 DUP3 DUP3 SLOAD PUSH2 0x3BE6 SWAP2 SWAP1 PUSH2 0x5455 JUMP JUMPDEST SWAP3 POP POP DUP2 SWAP1 SSTORE POP DUP1 PUSH2 0x14A DUP4 DUP2 SLOAD DUP2 LT PUSH2 0x3C02 JUMPI PUSH2 0x3C02 PUSH2 0x52E0 JUMP JUMPDEST PUSH1 0x0 SWAP2 DUP3 MSTORE PUSH1 0x20 SWAP1 SWAP2 KECCAK256 ADD SSTORE POP POP JUMP JUMPDEST PUSH1 0x0 DUP1 PUSH2 0x3C1D PUSH2 0x2FDD JUMP JUMPDEST SWAP1 SWAP3 POP SWAP1 POP PUSH1 0x0 PUSH2 0x3C2E DUP4 DUP4 PUSH2 0x3756 JUMP JUMPDEST SWAP1 POP DUP4 DUP2 GT PUSH2 0x3C5A JUMPI PUSH1 0x40 MLOAD PUSH4 0x79121201 PUSH1 0xE0 SHL DUP2 MSTORE PUSH1 0x4 DUP2 ADD DUP3 SWAP1 MSTORE PUSH1 0x24 DUP2 ADD DUP6 SWAP1 MSTORE PUSH1 0x44 ADD PUSH2 0x13F8 JUMP JUMPDEST POP SWAP2 POP SWAP2 JUMP JUMPDEST PUSH1 0x0 PUSH2 0x3C6D DUP5 DUP5 DUP5 PUSH2 0x3498 JUMP JUMPDEST SWAP1 POP DUP5 DUP2 LT ISZERO PUSH2 0x3232 JUMPI PUSH1 0x40 MLOAD PUSH4 0xA5DB715D PUSH1 0xE0 SHL DUP2 MSTORE PUSH1 0x4 DUP2 ADD DUP7 SWAP1 MSTORE PUSH1 0x24 DUP2 ADD DUP3 SWAP1 MSTORE PUSH1 0x44 ADD PUSH2 0x13F8 JUMP JUMPDEST PUSH1 0x0 DUP1 DUP5 PUSH1 0x0 SUB PUSH2 0x3CBE JUMPI PUSH1 0x40 MLOAD PUSH4 0x2A9FFAB7 PUSH1 0xE2 SHL DUP2 MSTORE PUSH1 0x4 ADD PUSH1 0x40 MLOAD DUP1 SWAP2 SUB SWAP1 REVERT JUMPDEST PUSH2 0x3CD1 DUP6 PUSH2 0x3CCC DUP7 DUP7 PUSH2 0x3089 JUMP JUMPDEST PUSH2 0x3D34 JUMP JUMPDEST SWAP2 POP PUSH2 0x374C DUP3 PUSH2 0x13B SLOAD PUSH2 0x3D34 JUMP JUMPDEST PUSH1 0x0 PUSH2 0x3CEC DUP8 DUP7 PUSH2 0x3ACA JUMP JUMPDEST SWAP1 POP PUSH1 0x0 PUSH2 0x3CFD DUP6 DUP4 DUP9 DUP8 DUP8 PUSH2 0x3B3C JUMP JUMPDEST SWAP1 POP DUP7 DUP2 LT ISZERO PUSH2 0x3D2A JUMPI PUSH1 0x40 MLOAD PUSH4 0xC39B739F PUSH1 0xE0 SHL DUP2 MSTORE PUSH1 0x4 DUP2 ADD DUP9 SWAP1 MSTORE PUSH1 0x24 DUP2 ADD DUP3 SWAP1 MSTORE PUSH1 0x44 ADD PUSH2 0x13F8 JUMP JUMPDEST POP POP POP POP POP POP POP POP JUMP JUMPDEST PUSH1 0x0 PUSH8 0xDE0B6B3A7640000 PUSH2 0x3D49 DUP4 DUP6 PUSH2 0x53B8 JUMP JUMPDEST PUSH2 0x114B SWAP2 SWAP1 PUSH2 0x53CF JUMP JUMPDEST PUSH2 0x3D5D DUP4 DUP4 PUSH2 0x4805 JUMP JUMPDEST PUSH2 0x131 SLOAD PUSH1 0x40 MLOAD PUSH4 0x2770A7EB PUSH1 0xE2 SHL DUP2 MSTORE PUSH1 0x1 PUSH1 0x1 PUSH1 0xA0 SHL SUB DUP4 DUP2 AND PUSH1 0x4 DUP4 ADD MSTORE PUSH1 0x24 DUP3 ADD DUP7 SWAP1 MSTORE SWAP1 SWAP2 AND SWAP1 PUSH4 0x9DC29FAC SWAP1 PUSH1 0x44 ADD JUMPDEST PUSH1 0x0 PUSH1 0x40 MLOAD DUP1 DUP4 SUB DUP2 PUSH1 0x0 DUP8 DUP1 EXTCODESIZE ISZERO DUP1 ISZERO PUSH2 0x3DAD JUMPI PUSH1 0x0 DUP1 REVERT JUMPDEST POP GAS CALL ISZERO DUP1 ISZERO PUSH2 0x3DC1 JUMPI RETURNDATASIZE PUSH1 0x0 DUP1 RETURNDATACOPY RETURNDATASIZE PUSH1 0x0 REVERT JUMPDEST POP POP POP POP POP POP POP JUMP JUMPDEST PUSH2 0x3DD5 DUP5 DUP5 DUP5 PUSH2 0x483B JUMP JUMPDEST PUSH2 0x133 DUP5 DUP2 SLOAD DUP2 LT PUSH2 0x3DE9 JUMPI PUSH2 0x3DE9 PUSH2 0x52E0 JUMP JUMPDEST PUSH1 0x0 SWAP2 DUP3 MSTORE PUSH1 0x20 SWAP1 SWAP2 KECCAK256 ADD SLOAD PUSH1 0x40 MLOAD PUSH4 0x40C10F19 PUSH1 0xE0 SHL DUP2 MSTORE PUSH1 0x1 PUSH1 0x1 PUSH1 0xA0 SHL SUB DUP4 DUP2 AND PUSH1 0x4 DUP4 ADD MSTORE PUSH1 0x24 DUP3 ADD DUP7 SWAP1 MSTORE SWAP1 SWAP2 AND SWAP1 PUSH4 0x40C10F19 SWAP1 PUSH1 0x44 ADD JUMPDEST PUSH1 0x0 PUSH1 0x40 MLOAD DUP1 DUP4 SUB DUP2 PUSH1 0x0 DUP8 DUP1 EXTCODESIZE ISZERO DUP1 ISZERO PUSH2 0x3E41 JUMPI PUSH1 0x0 DUP1 REVERT JUMPDEST POP GAS CALL ISZERO DUP1 ISZERO PUSH2 0x3D2A JUMPI RETURNDATASIZE PUSH1 0x0 DUP1 RETURNDATACOPY RETURNDATASIZE PUSH1 0x0 REVERT JUMPDEST PUSH2 0x24A SLOAD PUSH1 0x0 SWAP1 PUSH2 0x3E71 SWAP1 PUSH1 0x1 PUSH1 0x1 PUSH1 0xA0 SHL SUB AND CALLER ADDRESS DUP6 PUSH2 0x487F JUMP JUMPDEST POP PUSH1 0x0 SWAP3 SWAP2 POP POP JUMP JUMPDEST PUSH1 0x0 PUSH2 0x3E89 PUSH2 0x139 SLOAD DUP4 PUSH2 0x3D34 JUMP JUMPDEST SWAP1 POP DUP1 PUSH2 0x12F PUSH1 0x0 DUP3 DUP3 SLOAD PUSH2 0x3E9E SWAP2 SWAP1 PUSH2 0x52CD JUMP JUMPDEST SWAP1 SWAP2 SSTORE POP POP PUSH2 0x143 SLOAD PUSH2 0x3EC3 SWAP1 PUSH1 0x1 PUSH1 0x1 PUSH1 0xA0 SHL SUB AND PUSH2 0x3EBE DUP4 DUP6 PUSH2 0x53A5 JUMP JUMPDEST PUSH2 0x4418 JUMP JUMPDEST PUSH2 0x3ECD DUP5 DUP5 PUSH2 0x4418 JUMP JUMPDEST POP POP POP POP JUMP JUMPDEST PUSH1 0x0 DUP1 DUP5 PUSH1 0x0 SUB PUSH2 0x3EF7 JUMPI PUSH1 0x40 MLOAD PUSH4 0x2A9FFAB7 PUSH1 0xE2 SHL DUP2 MSTORE PUSH1 0x4 ADD PUSH1 0x40 MLOAD DUP1 SWAP2 SUB SWAP1 REVERT JUMPDEST PUSH2 0x3F05 DUP6 PUSH2 0x3CCC DUP7 DUP7 PUSH2 0x3089 JUMP JUMPDEST SWAP2 POP PUSH2 0x374C DUP3 PUSH2 0x13A SLOAD PUSH2 0x3D34 JUMP JUMPDEST PUSH2 0x3F1E DUP4 DUP4 PUSH2 0x48EA JUMP JUMPDEST PUSH2 0x131 SLOAD PUSH1 0x40 MLOAD PUSH4 0x40C10F19 PUSH1 0xE0 SHL DUP2 MSTORE PUSH1 0x1 PUSH1 0x1 PUSH1 0xA0 SHL SUB DUP4 DUP2 AND PUSH1 0x4 DUP4 ADD MSTORE PUSH1 0x24 DUP3 ADD DUP7 SWAP1 MSTORE SWAP1 SWAP2 AND SWAP1 PUSH4 0x40C10F19 SWAP1 PUSH1 0x44 ADD PUSH2 0x3D93 JUMP JUMPDEST PUSH1 0x0 DUP2 PUSH2 0x3D49 PUSH8 0xDE0B6B3A7640000 DUP6 PUSH2 0x53B8 JUMP JUMPDEST PUSH2 0x3F78 DUP5 DUP5 DUP5 PUSH2 0x490C JUMP JUMPDEST PUSH2 0x133 DUP5 DUP2 SLOAD DUP2 LT PUSH2 0x3F8C JUMPI PUSH2 0x3F8C PUSH2 0x52E0 JUMP JUMPDEST PUSH1 0x0 SWAP2 DUP3 MSTORE PUSH1 0x20 SWAP1 SWAP2 KECCAK256 ADD SLOAD PUSH1 0x40 MLOAD PUSH4 0x2770A7EB PUSH1 0xE2 SHL DUP2 MSTORE PUSH1 0x1 PUSH1 0x1 PUSH1 0xA0 SHL SUB DUP4 DUP2 AND PUSH1 0x4 DUP4 ADD MSTORE PUSH1 0x24 DUP3 ADD DUP7 SWAP1 MSTORE SWAP1 SWAP2 AND SWAP1 PUSH4 0x9DC29FAC SWAP1 PUSH1 0x44 ADD PUSH2 0x3E27 JUMP JUMPDEST PUSH1 0x0 DUP1 PUSH2 0x3FDC DUP8 DUP7 DUP7 PUSH2 0x36F4 JUMP JUMPDEST POP SWAP2 POP PUSH2 0x3FE9 DUP7 DUP5 PUSH2 0x3D34 JUMP JUMPDEST PUSH2 0x3FF3 SWAP1 DUP4 PUSH2 0x52CD JUMP JUMPDEST SWAP2 POP PUSH2 0x4002 DUP3 PUSH2 0x13F SLOAD PUSH2 0x3D34 JUMP JUMPDEST SWAP1 POP SWAP6 POP SWAP6 SWAP4 POP POP POP POP JUMP JUMPDEST PUSH1 0x0 DUP1 DUP4 PUSH1 0x0 SUB PUSH2 0x4032 JUMPI PUSH1 0x40 MLOAD PUSH4 0x2A9FFAB7 PUSH1 0xE2 SHL DUP2 MSTORE PUSH1 0x4 ADD PUSH1 0x40 MLOAD DUP1 SWAP2 SUB SWAP1 REVERT JUMPDEST PUSH2 0x403C DUP5 DUP5 PUSH2 0x3F58 JUMP JUMPDEST SWAP2 POP PUSH2 0x374C DUP3 PUSH2 0x141 DUP8 DUP2 SLOAD DUP2 LT PUSH2 0x373C JUMPI PUSH2 0x373C PUSH2 0x52E0 JUMP JUMPDEST PUSH1 0x0 DUP1 PUSH1 0x0 DUP1 PUSH1 0x0 PUSH2 0x4066 PUSH2 0x2FDD JUMP JUMPDEST SWAP2 POP SWAP2 POP PUSH1 0x0 PUSH2 0x4076 DUP4 DUP4 PUSH2 0x3089 JUMP JUMPDEST SWAP1 POP DUP7 PUSH8 0xDE0B6B3A7640000 PUSH2 0x408A PUSH2 0x33B1 JUMP JUMPDEST PUSH2 0x4094 SWAP2 SWAP1 PUSH2 0x53A5 JUMP JUMPDEST PUSH2 0x409E SWAP1 DUP11 PUSH2 0x53B8 JUMP JUMPDEST PUSH2 0x40A8 SWAP2 SWAP1 PUSH2 0x53CF JUMP JUMPDEST SWAP5 POP PUSH2 0x40B4 DUP6 DUP3 PUSH2 0x3F58 JUMP JUMPDEST SWAP6 POP PUSH2 0x40C0 DUP9 DUP9 PUSH2 0x3F58 JUMP JUMPDEST PUSH2 0x40CA SWAP1 DUP7 PUSH2 0x52CD JUMP JUMPDEST SWAP5 POP PUSH2 0x40D9 DUP6 PUSH2 0x140 SLOAD PUSH2 0x3D34 JUMP JUMPDEST SWAP4 POP POP POP POP SWAP3 POP SWAP3 POP SWAP3 JUMP JUMPDEST PUSH1 0x0 DUP1 PUSH1 0x0 PUSH2 0x40F4 DUP6 DUP6 PUSH2 0x4789 JUMP JUMPDEST PUSH2 0x149 DUP7 DUP2 SLOAD DUP2 LT PUSH2 0x4108 JUMPI PUSH2 0x4108 PUSH2 0x52E0 JUMP JUMPDEST SWAP1 PUSH1 0x0 MSTORE PUSH1 0x20 PUSH1 0x0 KECCAK256 ADD SLOAD PUSH2 0x411D SWAP2 SWAP1 PUSH2 0x5455 JUMP JUMPDEST SWAP1 POP PUSH1 0x0 DUP2 SGT ISZERO PUSH2 0x4144 JUMPI DUP1 SWAP2 POP PUSH2 0x4141 PUSH2 0x413B PUSH2 0x138 SLOAD DUP7 PUSH2 0x3D34 JUMP JUMPDEST DUP4 PUSH2 0x3D34 JUMP JUMPDEST SWAP3 POP JUMPDEST POP SWAP3 POP SWAP3 SWAP1 POP JUMP JUMPDEST PUSH1 0x1 PUSH1 0x1 PUSH1 0xA0 SHL SUB DUP2 AND EXTCODESIZE PUSH2 0x41B9 JUMPI PUSH1 0x40 MLOAD PUSH3 0x461BCD PUSH1 0xE5 SHL DUP2 MSTORE PUSH1 0x20 PUSH1 0x4 DUP3 ADD MSTORE PUSH1 0x2D PUSH1 0x24 DUP3 ADD MSTORE PUSH32 0x455243313936373A206E657720696D706C656D656E746174696F6E206973206E PUSH1 0x44 DUP3 ADD MSTORE PUSH13 0x1BDD08184818DBDB9D1C9858DD PUSH1 0x9A SHL PUSH1 0x64 DUP3 ADD MSTORE PUSH1 0x84 ADD PUSH2 0x13F8 JUMP JUMPDEST PUSH1 0x0 DUP1 MLOAD PUSH1 0x20 PUSH2 0x5566 DUP4 CODECOPY DUP2 MLOAD SWAP2 MSTORE DUP1 SLOAD PUSH1 0x1 PUSH1 0x1 PUSH1 0xA0 SHL SUB NOT AND PUSH1 0x1 PUSH1 0x1 PUSH1 0xA0 SHL SUB SWAP3 SWAP1 SWAP3 AND SWAP2 SWAP1 SWAP2 OR SWAP1 SSTORE JUMP JUMPDEST PUSH2 0x41F1 DUP4 PUSH2 0x4965 JUMP JUMPDEST PUSH1 0x0 DUP3 MLOAD GT DUP1 PUSH2 0x41FE JUMPI POP DUP1 JUMPDEST ISZERO PUSH2 0x3274 JUMPI PUSH2 0x3ECD DUP4 DUP4 PUSH2 0x49A5 JUMP JUMPDEST PUSH1 0x0 DUP4 PUSH2 0x421A DUP5 DUP5 PUSH2 0x3756 JUMP JUMPDEST GT PUSH2 0x4227 JUMPI POP PUSH1 0x0 PUSH2 0x11CE JUMP JUMPDEST PUSH2 0x4231 DUP4 DUP6 PUSH2 0x53B8 JUMP JUMPDEST PUSH8 0xDE0B6B3A7640000 PUSH2 0x4243 DUP5 PUSH2 0x3A2E JUMP JUMPDEST PUSH2 0x424D SWAP2 SWAP1 PUSH2 0x53B8 JUMP JUMPDEST PUSH2 0x11CB SWAP2 SWAP1 PUSH2 0x53A5 JUMP JUMPDEST PUSH2 0x135 SLOAD PUSH1 0x0 SWAP1 DUP2 DUP2 PUSH8 0xFFFFFFFFFFFFFFFF DUP2 GT ISZERO PUSH2 0x4278 JUMPI PUSH2 0x4278 PUSH2 0x50AF JUMP JUMPDEST PUSH1 0x40 MLOAD SWAP1 DUP1 DUP3 MSTORE DUP1 PUSH1 0x20 MUL PUSH1 0x20 ADD DUP3 ADD PUSH1 0x40 MSTORE DUP1 ISZERO PUSH2 0x42A1 JUMPI DUP2 PUSH1 0x20 ADD PUSH1 0x20 DUP3 MUL DUP1 CALLDATASIZE DUP4 CALLDATACOPY ADD SWAP1 POP JUMPDEST POP SWAP1 POP PUSH1 0x0 JUMPDEST DUP3 DUP2 LT ISZERO PUSH2 0x4395 JUMPI PUSH1 0x0 PUSH2 0x42BA DUP3 PUSH2 0x195A JUMP JUMPDEST SWAP1 POP PUSH2 0x42C6 DUP3 DUP3 PUSH2 0x3BAF JUMP JUMPDEST PUSH1 0x0 PUSH2 0x149 DUP4 DUP2 SLOAD DUP2 LT PUSH2 0x42DC JUMPI PUSH2 0x42DC PUSH2 0x52E0 JUMP JUMPDEST SWAP1 PUSH1 0x0 MSTORE PUSH1 0x20 PUSH1 0x0 KECCAK256 ADD SLOAD SWAP1 POP PUSH1 0x0 DUP2 SGT ISZERO PUSH2 0x438B JUMPI PUSH2 0x4308 PUSH2 0x4302 PUSH2 0x138 SLOAD DUP5 PUSH2 0x3D34 JUMP JUMPDEST DUP3 PUSH2 0x3D34 JUMP JUMPDEST DUP5 DUP5 DUP2 MLOAD DUP2 LT PUSH2 0x431A JUMPI PUSH2 0x431A PUSH2 0x52E0 JUMP JUMPDEST PUSH1 0x20 SWAP1 DUP2 MUL SWAP2 SWAP1 SWAP2 ADD ADD MSTORE PUSH2 0x432F DUP2 DUP8 PUSH2 0x52CD JUMP JUMPDEST SWAP6 POP PUSH1 0x0 PUSH2 0x149 DUP5 DUP2 SLOAD DUP2 LT PUSH2 0x4347 JUMPI PUSH2 0x4347 PUSH2 0x52E0 JUMP JUMPDEST SWAP1 PUSH1 0x0 MSTORE PUSH1 0x20 PUSH1 0x0 KECCAK256 ADD DUP2 SWAP1 SSTORE POP PUSH2 0x438B DUP4 DUP6 DUP6 DUP2 MLOAD DUP2 LT PUSH2 0x436B JUMPI PUSH2 0x436B PUSH2 0x52E0 JUMP JUMPDEST PUSH1 0x20 SWAP1 DUP2 MUL SWAP2 SWAP1 SWAP2 ADD ADD MLOAD PUSH2 0x144 SLOAD PUSH1 0x0 SWAP1 PUSH1 0x1 PUSH1 0x1 PUSH1 0xA0 SHL SUB AND PUSH2 0x3DCA JUMP JUMPDEST POP POP PUSH1 0x1 ADD PUSH2 0x42A7 JUMP JUMPDEST POP DUP3 ISZERO PUSH2 0x43DA JUMPI PUSH2 0x43A9 DUP4 PUSH2 0x137 SLOAD PUSH2 0x3D34 JUMP JUMPDEST SWAP3 POP DUP3 PUSH2 0x12F PUSH1 0x0 DUP3 DUP3 SLOAD PUSH2 0x43BE SWAP2 SWAP1 PUSH2 0x53A5 JUMP JUMPDEST SWAP1 SWAP2 SSTORE POP POP PUSH2 0x143 SLOAD PUSH2 0x43DA SWAP1 PUSH1 0x1 PUSH1 0x1 PUSH1 0xA0 SHL SUB AND DUP5 PUSH2 0x4418 JUMP JUMPDEST PUSH32 0xAE5116A8119D08673A0F1DFA7546B95DA4BD54BB17FEDA7C61130AC7859152F6 DUP4 DUP3 PUSH1 0x40 MLOAD PUSH2 0x440B SWAP3 SWAP2 SWAP1 PUSH2 0x547D JUMP JUMPDEST PUSH1 0x40 MLOAD DUP1 SWAP2 SUB SWAP1 LOG1 POP POP POP JUMP JUMPDEST PUSH2 0x4420 PUSH2 0x4A90 JUMP JUMPDEST DUP1 ISZERO PUSH2 0x443E JUMPI PUSH2 0x24A SLOAD PUSH2 0x443E SWAP1 PUSH1 0x1 PUSH1 0x1 PUSH1 0xA0 SHL SUB AND DUP4 DUP4 PUSH2 0x4AEB JUMP JUMPDEST PUSH2 0x16A0 PUSH1 0x1 PUSH2 0x1E6 SSTORE JUMP JUMPDEST PUSH1 0x0 SLOAD PUSH2 0x100 SWAP1 DIV PUSH1 0xFF AND PUSH2 0x4470 JUMPI PUSH1 0x40 MLOAD PUSH3 0x461BCD PUSH1 0xE5 SHL DUP2 MSTORE PUSH1 0x4 ADD PUSH2 0x13F8 SWAP1 PUSH2 0x540A JUMP JUMPDEST PUSH2 0x4478 PUSH2 0x4B1B JUMP JUMPDEST PUSH2 0x4481 DUP3 PUSH2 0x4B42 JUMP JUMPDEST PUSH2 0x16A0 DUP2 PUSH1 0x1 PUSH2 0x4B72 JUMP JUMPDEST PUSH1 0x0 SLOAD PUSH2 0x100 SWAP1 DIV PUSH1 0xFF AND PUSH2 0x44B3 JUMPI PUSH1 0x40 MLOAD PUSH3 0x461BCD PUSH1 0xE5 SHL DUP2 MSTORE PUSH1 0x4 ADD PUSH2 0x13F8 SWAP1 PUSH2 0x540A JUMP JUMPDEST PUSH8 0xDE0B6B3A7640000 DUP2 PUSH1 0x60 ADD CALLDATALOAD LT ISZERO PUSH2 0x44E0 JUMPI PUSH1 0x40 MLOAD PUSH4 0x2A9FFAB7 PUSH1 0xE2 SHL DUP2 MSTORE PUSH1 0x4 ADD PUSH1 0x40 MLOAD DUP1 SWAP2 SUB SWAP1 REVERT JUMPDEST PUSH2 0x44ED DUP2 PUSH1 0xA0 ADD CALLDATALOAD PUSH2 0x4BD5 JUMP JUMPDEST PUSH2 0x44FA DUP2 PUSH1 0xC0 ADD CALLDATALOAD PUSH2 0x4BD5 JUMP JUMPDEST PUSH2 0x4507 DUP2 PUSH1 0xE0 ADD CALLDATALOAD PUSH2 0x4BD5 JUMP JUMPDEST PUSH2 0x4515 DUP2 PUSH2 0x100 ADD CALLDATALOAD PUSH2 0x4BD5 JUMP JUMPDEST PUSH2 0x4523 DUP2 PUSH2 0x120 ADD CALLDATALOAD PUSH2 0x4BD5 JUMP JUMPDEST PUSH2 0x4531 DUP2 PUSH2 0x140 ADD CALLDATALOAD PUSH2 0x4BD5 JUMP JUMPDEST PUSH2 0x453F DUP2 PUSH2 0x160 ADD CALLDATALOAD PUSH2 0x4BD5 JUMP JUMPDEST PUSH2 0x454D DUP2 PUSH2 0x180 ADD CALLDATALOAD PUSH2 0x4BD5 JUMP JUMPDEST PUSH2 0x4569 PUSH2 0x4564 PUSH2 0x1C0 DUP4 ADD CALLDATALOAD PUSH2 0x1A0 DUP5 ADD CALLDATALOAD PUSH2 0x52CD JUMP JUMPDEST PUSH2 0x4BD5 JUMP JUMPDEST PUSH2 0x4576 PUSH1 0x20 DUP3 ADD DUP3 PUSH2 0x4F3A JUMP JUMPDEST PUSH2 0x131 DUP1 SLOAD PUSH1 0x1 PUSH1 0x1 PUSH1 0xA0 SHL SUB NOT AND PUSH1 0x1 PUSH1 0x1 PUSH1 0xA0 SHL SUB SWAP3 SWAP1 SWAP3 AND SWAP2 DUP3 OR SWAP1 SSTORE PUSH1 0x40 MLOAD PUSH4 0xD55FD845 PUSH1 0xE0 SHL DUP2 MSTORE ADDRESS PUSH1 0x4 DUP3 ADD MSTORE PUSH4 0xD55FD845 SWAP1 PUSH1 0x24 ADD PUSH1 0x20 PUSH1 0x40 MLOAD DUP1 DUP4 SUB DUP2 DUP7 GAS STATICCALL ISZERO DUP1 ISZERO PUSH2 0x45CF JUMPI RETURNDATASIZE PUSH1 0x0 DUP1 RETURNDATACOPY RETURNDATASIZE PUSH1 0x0 REVERT JUMPDEST POP POP POP POP PUSH1 0x40 MLOAD RETURNDATASIZE PUSH1 0x1F NOT PUSH1 0x1F DUP3 ADD AND DUP3 ADD DUP1 PUSH1 0x40 MSTORE POP DUP2 ADD SWAP1 PUSH2 0x45F3 SWAP2 SWAP1 PUSH2 0x531B JUMP JUMPDEST PUSH2 0x4610 JUMPI PUSH1 0x40 MLOAD PUSH4 0xE6C4247B PUSH1 0xE0 SHL DUP2 MSTORE PUSH1 0x4 ADD PUSH1 0x40 MLOAD DUP1 SWAP2 SUB SWAP1 REVERT JUMPDEST PUSH2 0x4620 PUSH1 0x40 DUP3 ADD PUSH1 0x20 DUP4 ADD PUSH2 0x4F3A JUMP JUMPDEST PUSH2 0x143 DUP1 SLOAD PUSH1 0x1 PUSH1 0x1 PUSH1 0xA0 SHL SUB NOT AND PUSH1 0x1 PUSH1 0x1 PUSH1 0xA0 SHL SUB SWAP3 SWAP1 SWAP3 AND SWAP2 SWAP1 SWAP2 OR SWAP1 SSTORE PUSH2 0x4651 PUSH1 0x60 DUP3 ADD PUSH1 0x40 DUP4 ADD PUSH2 0x4F3A JUMP JUMPDEST PUSH2 0x144 DUP1 SLOAD PUSH1 0x1 PUSH1 0x1 PUSH1 0xA0 SHL SUB NOT AND PUSH1 0x1 PUSH1 0x1 PUSH1 0xA0 SHL SUB SWAP3 SWAP1 SWAP3 AND SWAP2 SWAP1 SWAP2 OR SWAP1 SSTORE PUSH1 0x60 DUP2 ADD CALLDATALOAD PUSH2 0x146 SSTORE PUSH1 0x80 DUP2 ADD CALLDATALOAD PUSH2 0x147 SSTORE PUSH1 0xA0 DUP2 ADD CALLDATALOAD PUSH2 0x139 SSTORE PUSH1 0xC0 DUP2 ADD CALLDATALOAD PUSH2 0x13A SSTORE PUSH1 0xE0 DUP2 ADD CALLDATALOAD PUSH2 0x13B SSTORE PUSH2 0x100 DUP2 ADD CALLDATALOAD PUSH2 0x13C SSTORE PUSH2 0x120 DUP2 ADD CALLDATALOAD PUSH2 0x13D SSTORE PUSH2 0x140 DUP1 DUP3 ADD CALLDATALOAD PUSH2 0x13E SSTORE PUSH2 0x160 DUP3 ADD CALLDATALOAD PUSH2 0x13F SSTORE PUSH2 0x180 DUP3 ADD CALLDATALOAD SWAP1 SSTORE PUSH2 0x1A0 DUP2 ADD CALLDATALOAD PUSH2 0x137 SSTORE PUSH2 0x1C0 ADD CALLDATALOAD PUSH2 0x138 SSTORE PUSH2 0x148 DUP1 SLOAD PUSH2 0xFFFF NOT AND SWAP1 SSTORE JUMP JUMPDEST PUSH1 0x0 SLOAD PUSH2 0x100 SWAP1 DIV PUSH1 0xFF AND PUSH2 0x4718 JUMPI PUSH1 0x40 MLOAD PUSH3 0x461BCD PUSH1 0xE5 SHL DUP2 MSTORE PUSH1 0x4 ADD PUSH2 0x13F8 SWAP1 PUSH2 0x540A JUMP JUMPDEST DUP1 PUSH1 0x0 SUB PUSH2 0x4739 JUMPI PUSH1 0x40 MLOAD PUSH4 0x2A9FFAB7 PUSH1 0xE2 SHL DUP2 MSTORE PUSH1 0x4 ADD PUSH1 0x40 MLOAD DUP1 SWAP2 SUB SWAP1 REVERT JUMPDEST PUSH2 0x17F DUP2 SWAP1 SSTORE PUSH2 0x1495 DUP2 NUMBER ADD PUSH2 0x17E SSTORE JUMP JUMPDEST PUSH1 0x0 SLOAD PUSH2 0x100 SWAP1 DIV PUSH1 0xFF AND PUSH2 0x4772 JUMPI PUSH1 0x40 MLOAD PUSH3 0x461BCD PUSH1 0xE5 SHL DUP2 MSTORE PUSH1 0x4 ADD PUSH2 0x13F8 SWAP1 PUSH2 0x540A JUMP JUMPDEST PUSH2 0x1B2 DUP2 SWAP1 SSTORE PUSH2 0x4782 DUP2 NUMBER PUSH2 0x52CD JUMP JUMPDEST PUSH2 0x1B3 SSTORE POP JUMP JUMPDEST PUSH1 0x0 DUP1 PUSH8 0xDE0B6B3A7640000 PUSH2 0x135 DUP6 DUP2 SLOAD DUP2 LT PUSH2 0x47A9 JUMPI PUSH2 0x47A9 PUSH2 0x52E0 JUMP JUMPDEST SWAP1 PUSH1 0x0 MSTORE PUSH1 0x20 PUSH1 0x0 KECCAK256 SWAP1 PUSH1 0x2 MUL ADD PUSH1 0x0 ADD SLOAD PUSH2 0x47C5 SWAP2 SWAP1 PUSH2 0x53B8 JUMP JUMPDEST SWAP1 POP PUSH2 0x47D1 DUP4 DUP3 PUSH2 0x53CF JUMP JUMPDEST PUSH2 0x14A DUP6 DUP2 SLOAD DUP2 LT PUSH2 0x47E5 JUMPI PUSH2 0x47E5 PUSH2 0x52E0 JUMP JUMPDEST SWAP1 PUSH1 0x0 MSTORE PUSH1 0x20 PUSH1 0x0 KECCAK256 ADD SLOAD DUP3 PUSH2 0x47FB SWAP2 SWAP1 PUSH2 0x53CF JUMP JUMPDEST PUSH2 0x15CC SWAP2 SWAP1 PUSH2 0x54CB JUMP JUMPDEST DUP2 PUSH2 0x132 PUSH1 0x0 DUP3 DUP3 SLOAD PUSH2 0x4818 SWAP2 SWAP1 PUSH2 0x53A5 JUMP JUMPDEST SWAP3 POP POP DUP2 SWAP1 SSTORE POP DUP1 PUSH2 0x12F PUSH1 0x0 DUP3 DUP3 SLOAD PUSH2 0x4832 SWAP2 SWAP1 PUSH2 0x53A5 JUMP JUMPDEST SWAP1 SWAP2 SSTORE POP POP POP POP JUMP JUMPDEST DUP2 PUSH2 0x135 DUP5 DUP2 SLOAD DUP2 LT PUSH2 0x4850 JUMPI PUSH2 0x4850 PUSH2 0x52E0 JUMP JUMPDEST SWAP1 PUSH1 0x0 MSTORE PUSH1 0x20 PUSH1 0x0 KECCAK256 SWAP1 PUSH1 0x2 MUL ADD PUSH1 0x0 ADD PUSH1 0x0 DUP3 DUP3 SLOAD PUSH2 0x4870 SWAP2 SWAP1 PUSH2 0x52CD JUMP JUMPDEST SWAP1 SWAP2 SSTORE POP PUSH2 0x3274 SWAP1 POP DUP2 PUSH2 0x3AAF JUMP JUMPDEST PUSH1 0x40 MLOAD PUSH1 0x1 PUSH1 0x1 PUSH1 0xA0 SHL SUB DUP1 DUP6 AND PUSH1 0x24 DUP4 ADD MSTORE DUP4 AND PUSH1 0x44 DUP3 ADD MSTORE PUSH1 0x64 DUP2 ADD DUP3 SWAP1 MSTORE PUSH2 0x3ECD SWAP1 DUP6 SWAP1 PUSH4 0x23B872DD PUSH1 0xE0 SHL SWAP1 PUSH1 0x84 ADD JUMPDEST PUSH1 0x40 DUP1 MLOAD PUSH1 0x1F NOT DUP2 DUP5 SUB ADD DUP2 MSTORE SWAP2 SWAP1 MSTORE PUSH1 0x20 DUP2 ADD DUP1 MLOAD PUSH1 0x1 PUSH1 0x1 PUSH1 0xE0 SHL SUB AND PUSH1 0x1 PUSH1 0x1 PUSH1 0xE0 SHL SUB NOT SWAP1 SWAP4 AND SWAP3 SWAP1 SWAP3 OR SWAP1 SWAP2 MSTORE PUSH2 0x4BFE JUMP JUMPDEST DUP2 PUSH2 0x132 PUSH1 0x0 DUP3 DUP3 SLOAD PUSH2 0x48FD SWAP2 SWAP1 PUSH2 0x52CD JUMP JUMPDEST SWAP1 SWAP2 SSTORE POP PUSH2 0x16A0 SWAP1 POP DUP2 PUSH2 0x3AAF JUMP JUMPDEST DUP2 PUSH2 0x135 DUP5 DUP2 SLOAD DUP2 LT PUSH2 0x4921 JUMPI PUSH2 0x4921 PUSH2 0x52E0 JUMP JUMPDEST SWAP1 PUSH1 0x0 MSTORE PUSH1 0x20 PUSH1 0x0 KECCAK256 SWAP1 PUSH1 0x2 MUL ADD PUSH1 0x0 ADD PUSH1 0x0 DUP3 DUP3 SLOAD PUSH2 0x4941 SWAP2 SWAP1 PUSH2 0x53A5 JUMP JUMPDEST SWAP3 POP POP DUP2 SWAP1 SSTORE POP DUP1 PUSH2 0x12F PUSH1 0x0 DUP3 DUP3 SLOAD PUSH2 0x495B SWAP2 SWAP1 PUSH2 0x53A5 JUMP JUMPDEST SWAP1 SWAP2 SSTORE POP POP POP POP POP JUMP JUMPDEST PUSH2 0x496E DUP2 PUSH2 0x414C JUMP JUMPDEST PUSH1 0x40 MLOAD PUSH1 0x1 PUSH1 0x1 PUSH1 0xA0 SHL SUB DUP3 AND SWAP1 PUSH32 0xBC7CD75A20EE27FD9ADEBAB32041F755214DBC6BFFA90CC0225B39DA2E5C2D3B SWAP1 PUSH1 0x0 SWAP1 LOG2 POP JUMP JUMPDEST PUSH1 0x60 PUSH1 0x1 PUSH1 0x1 PUSH1 0xA0 SHL SUB DUP4 AND EXTCODESIZE PUSH2 0x4A0D JUMPI PUSH1 0x40 MLOAD PUSH3 0x461BCD PUSH1 0xE5 SHL DUP2 MSTORE PUSH1 0x20 PUSH1 0x4 DUP3 ADD MSTORE PUSH1 0x26 PUSH1 0x24 DUP3 ADD MSTORE PUSH32 0x416464726573733A2064656C65676174652063616C6C20746F206E6F6E2D636F PUSH1 0x44 DUP3 ADD MSTORE PUSH6 0x1B9D1C9858DD PUSH1 0xD2 SHL PUSH1 0x64 DUP3 ADD MSTORE PUSH1 0x84 ADD PUSH2 0x13F8 JUMP JUMPDEST PUSH1 0x0 DUP1 DUP5 PUSH1 0x1 PUSH1 0x1 PUSH1 0xA0 SHL SUB AND DUP5 PUSH1 0x40 MLOAD PUSH2 0x4A28 SWAP2 SWAP1 PUSH2 0x5516 JUMP JUMPDEST PUSH1 0x0 PUSH1 0x40 MLOAD DUP1 DUP4 SUB DUP2 DUP6 GAS DELEGATECALL SWAP2 POP POP RETURNDATASIZE DUP1 PUSH1 0x0 DUP2 EQ PUSH2 0x4A63 JUMPI PUSH1 0x40 MLOAD SWAP2 POP PUSH1 0x1F NOT PUSH1 0x3F RETURNDATASIZE ADD AND DUP3 ADD PUSH1 0x40 MSTORE RETURNDATASIZE DUP3 MSTORE RETURNDATASIZE PUSH1 0x0 PUSH1 0x20 DUP5 ADD RETURNDATACOPY PUSH2 0x4A68 JUMP JUMPDEST PUSH1 0x60 SWAP2 POP JUMPDEST POP SWAP2 POP SWAP2 POP PUSH2 0x23D1 DUP3 DUP3 PUSH1 0x40 MLOAD DUP1 PUSH1 0x60 ADD PUSH1 0x40 MSTORE DUP1 PUSH1 0x27 DUP2 MSTORE PUSH1 0x20 ADD PUSH2 0x5586 PUSH1 0x27 SWAP2 CODECOPY PUSH2 0x4CD0 JUMP JUMPDEST PUSH1 0x2 PUSH2 0x1E6 SLOAD SUB PUSH2 0x4AE3 JUMPI PUSH1 0x40 MLOAD PUSH3 0x461BCD PUSH1 0xE5 SHL DUP2 MSTORE PUSH1 0x20 PUSH1 0x4 DUP3 ADD MSTORE PUSH1 0x1F PUSH1 0x24 DUP3 ADD MSTORE PUSH32 0x5265656E7472616E637947756172643A207265656E7472616E742063616C6C00 PUSH1 0x44 DUP3 ADD MSTORE PUSH1 0x64 ADD PUSH2 0x13F8 JUMP JUMPDEST PUSH1 0x2 PUSH2 0x1E6 SSTORE JUMP JUMPDEST PUSH1 0x40 MLOAD PUSH1 0x1 PUSH1 0x1 PUSH1 0xA0 SHL SUB DUP4 AND PUSH1 0x24 DUP3 ADD MSTORE PUSH1 0x44 DUP2 ADD DUP3 SWAP1 MSTORE PUSH2 0x3274 SWAP1 DUP5 SWAP1 PUSH4 0xA9059CBB PUSH1 0xE0 SHL SWAP1 PUSH1 0x64 ADD PUSH2 0x48B3 JUMP JUMPDEST PUSH1 0x0 SLOAD PUSH2 0x100 SWAP1 DIV PUSH1 0xFF AND PUSH2 0x13AE JUMPI PUSH1 0x40 MLOAD PUSH3 0x461BCD PUSH1 0xE5 SHL DUP2 MSTORE PUSH1 0x4 ADD PUSH2 0x13F8 SWAP1 PUSH2 0x540A JUMP JUMPDEST PUSH1 0x0 SLOAD PUSH2 0x100 SWAP1 DIV PUSH1 0xFF AND PUSH2 0x4B69 JUMPI PUSH1 0x40 MLOAD PUSH3 0x461BCD PUSH1 0xE5 SHL DUP2 MSTORE PUSH1 0x4 ADD PUSH2 0x13F8 SWAP1 PUSH2 0x540A JUMP JUMPDEST PUSH2 0x1495 DUP2 PUSH2 0x4CE9 JUMP JUMPDEST PUSH1 0x0 SLOAD PUSH2 0x100 SWAP1 DIV PUSH1 0xFF AND PUSH2 0x4B99 JUMPI PUSH1 0x40 MLOAD PUSH3 0x461BCD PUSH1 0xE5 SHL DUP2 MSTORE PUSH1 0x4 ADD PUSH2 0x13F8 SWAP1 PUSH2 0x540A JUMP JUMPDEST PUSH1 0xCA DUP1 SLOAD PUSH1 0x1 PUSH1 0x1 PUSH1 0xA0 SHL SUB SWAP1 SWAP4 AND PUSH3 0x10000 MUL PUSH3 0x10000 PUSH1 0x1 PUSH1 0xB0 SHL SUB NOT SWAP3 ISZERO ISZERO SWAP3 SWAP1 SWAP3 AND PUSH2 0xFF01 PUSH1 0x1 PUSH1 0xB0 SHL SUB NOT SWAP1 SWAP4 AND SWAP3 SWAP1 SWAP3 OR OR SWAP1 SSTORE JUMP JUMPDEST PUSH8 0xDE0B6B3A7640000 DUP2 GT ISZERO PUSH2 0x1495 JUMPI PUSH1 0x40 MLOAD PUSH4 0x2A9FFAB7 PUSH1 0xE2 SHL DUP2 MSTORE PUSH1 0x4 ADD PUSH1 0x40 MLOAD DUP1 SWAP2 SUB SWAP1 REVERT JUMPDEST PUSH1 0x0 PUSH2 0x4C53 DUP3 PUSH1 0x40 MLOAD DUP1 PUSH1 0x40 ADD PUSH1 0x40 MSTORE DUP1 PUSH1 0x20 DUP2 MSTORE PUSH1 0x20 ADD PUSH32 0x5361666545524332303A206C6F772D6C6576656C2063616C6C206661696C6564 DUP2 MSTORE POP DUP6 PUSH1 0x1 PUSH1 0x1 PUSH1 0xA0 SHL SUB AND PUSH2 0x4D10 SWAP1 SWAP3 SWAP2 SWAP1 PUSH4 0xFFFFFFFF AND JUMP JUMPDEST DUP1 MLOAD SWAP1 SWAP2 POP ISZERO PUSH2 0x3274 JUMPI DUP1 DUP1 PUSH1 0x20 ADD SWAP1 MLOAD DUP2 ADD SWAP1 PUSH2 0x4C71 SWAP2 SWAP1 PUSH2 0x531B JUMP JUMPDEST PUSH2 0x3274 JUMPI PUSH1 0x40 MLOAD PUSH3 0x461BCD PUSH1 0xE5 SHL DUP2 MSTORE PUSH1 0x20 PUSH1 0x4 DUP3 ADD MSTORE PUSH1 0x2A PUSH1 0x24 DUP3 ADD MSTORE PUSH32 0x5361666545524332303A204552433230206F7065726174696F6E20646964206E PUSH1 0x44 DUP3 ADD MSTORE PUSH10 0x1BDD081CDD58D8D95959 PUSH1 0xB2 SHL PUSH1 0x64 DUP3 ADD MSTORE PUSH1 0x84 ADD PUSH2 0x13F8 JUMP JUMPDEST PUSH1 0x60 DUP4 ISZERO PUSH2 0x4CDF JUMPI POP DUP2 PUSH2 0x11CE JUMP JUMPDEST PUSH2 0x11CE DUP4 DUP4 PUSH2 0x4D1F JUMP JUMPDEST PUSH1 0x0 SLOAD PUSH2 0x100 SWAP1 DIV PUSH1 0xFF AND PUSH2 0x2071 JUMPI PUSH1 0x40 MLOAD PUSH3 0x461BCD PUSH1 0xE5 SHL DUP2 MSTORE PUSH1 0x4 ADD PUSH2 0x13F8 SWAP1 PUSH2 0x540A JUMP JUMPDEST PUSH1 0x60 PUSH2 0x11CB DUP5 DUP5 PUSH1 0x0 DUP6 PUSH2 0x4D49 JUMP JUMPDEST DUP2 MLOAD ISZERO PUSH2 0x4D2F JUMPI DUP2 MLOAD DUP1 DUP4 PUSH1 0x20 ADD REVERT JUMPDEST DUP1 PUSH1 0x40 MLOAD PUSH3 0x461BCD PUSH1 0xE5 SHL DUP2 MSTORE PUSH1 0x4 ADD PUSH2 0x13F8 SWAP2 SWAP1 PUSH2 0x5532 JUMP JUMPDEST PUSH1 0x60 DUP3 SELFBALANCE LT ISZERO PUSH2 0x4DAA JUMPI PUSH1 0x40 MLOAD PUSH3 0x461BCD PUSH1 0xE5 SHL DUP2 MSTORE PUSH1 0x20 PUSH1 0x4 DUP3 ADD MSTORE PUSH1 0x26 PUSH1 0x24 DUP3 ADD MSTORE PUSH32 0x416464726573733A20696E73756666696369656E742062616C616E636520666F PUSH1 0x44 DUP3 ADD MSTORE PUSH6 0x1C8818D85B1B PUSH1 0xD2 SHL PUSH1 0x64 DUP3 ADD MSTORE PUSH1 0x84 ADD PUSH2 0x13F8 JUMP JUMPDEST PUSH1 0x0 DUP1 DUP7 PUSH1 0x1 PUSH1 0x1 PUSH1 0xA0 SHL SUB AND DUP6 DUP8 PUSH1 0x40 MLOAD PUSH2 0x4DC6 SWAP2 SWAP1 PUSH2 0x5516 JUMP JUMPDEST PUSH1 0x0 PUSH1 0x40 MLOAD DUP1 DUP4 SUB DUP2 DUP6 DUP8 GAS CALL SWAP3 POP POP POP RETURNDATASIZE DUP1 PUSH1 0x0 DUP2 EQ PUSH2 0x4E03 JUMPI PUSH1 0x40 MLOAD SWAP2 POP PUSH1 0x1F NOT PUSH1 0x3F RETURNDATASIZE ADD AND DUP3 ADD PUSH1 0x40 MSTORE RETURNDATASIZE DUP3 MSTORE RETURNDATASIZE PUSH1 0x0 PUSH1 0x20 DUP5 ADD RETURNDATACOPY PUSH2 0x4E08 JUMP JUMPDEST PUSH1 0x60 SWAP2 POP JUMPDEST POP SWAP2 POP SWAP2 POP PUSH2 0x4E19 DUP8 DUP4 DUP4 DUP8 PUSH2 0x4E24 JUMP JUMPDEST SWAP8 SWAP7 POP POP POP POP POP POP POP JUMP JUMPDEST PUSH1 0x60 DUP4 ISZERO PUSH2 0x4E93 JUMPI DUP3 MLOAD PUSH1 0x0 SUB PUSH2 0x4E8C JUMPI PUSH1 0x1 PUSH1 0x1 PUSH1 0xA0 SHL SUB DUP6 AND EXTCODESIZE PUSH2 0x4E8C JUMPI PUSH1 0x40 MLOAD PUSH3 0x461BCD PUSH1 0xE5 SHL DUP2 MSTORE PUSH1 0x20 PUSH1 0x4 DUP3 ADD MSTORE PUSH1 0x1D PUSH1 0x24 DUP3 ADD MSTORE PUSH32 0x416464726573733A2063616C6C20746F206E6F6E2D636F6E7472616374000000 PUSH1 0x44 DUP3 ADD MSTORE PUSH1 0x64 ADD PUSH2 0x13F8 JUMP JUMPDEST POP DUP2 PUSH2 0x15CC JUMP JUMPDEST PUSH2 0x15CC DUP4 DUP4 PUSH2 0x4D1F JUMP JUMPDEST PUSH1 0x1 PUSH1 0x1 PUSH1 0xA0 SHL SUB DUP2 AND DUP2 EQ PUSH2 0x1495 JUMPI PUSH1 0x0 DUP1 REVERT JUMPDEST PUSH1 0x0 DUP1 PUSH1 0x0 DUP1 PUSH1 0x0 PUSH1 0xA0 DUP7 DUP9 SUB SLT ISZERO PUSH2 0x4ECA JUMPI PUSH1 0x0 DUP1 REVERT JUMPDEST DUP6 CALLDATALOAD SWAP5 POP PUSH1 0x20 DUP7 ADD CALLDATALOAD SWAP4 POP PUSH1 0x40 DUP7 ADD CALLDATALOAD SWAP3 POP PUSH1 0x60 DUP7 ADD CALLDATALOAD SWAP2 POP PUSH1 0x80 DUP7 ADD CALLDATALOAD PUSH2 0x4EF1 DUP2 PUSH2 0x4E9D JUMP JUMPDEST DUP1 SWAP2 POP POP SWAP3 SWAP6 POP SWAP3 SWAP6 SWAP1 SWAP4 POP JUMP JUMPDEST PUSH1 0x0 PUSH1 0x20 DUP3 DUP5 SUB SLT ISZERO PUSH2 0x4F11 JUMPI PUSH1 0x0 DUP1 REVERT JUMPDEST POP CALLDATALOAD SWAP2 SWAP1 POP JUMP JUMPDEST PUSH1 0x0 DUP1 PUSH1 0x40 DUP4 DUP6 SUB SLT ISZERO PUSH2 0x4F2B JUMPI PUSH1 0x0 DUP1 REVERT JUMPDEST POP POP DUP1 CALLDATALOAD SWAP3 PUSH1 0x20 SWAP1 SWAP2 ADD CALLDATALOAD SWAP2 POP JUMP JUMPDEST PUSH1 0x0 PUSH1 0x20 DUP3 DUP5 SUB SLT ISZERO PUSH2 0x4F4C JUMPI PUSH1 0x0 DUP1 REVERT JUMPDEST DUP2 CALLDATALOAD PUSH2 0x11CE DUP2 PUSH2 0x4E9D JUMP JUMPDEST PUSH1 0x0 DUP1 PUSH1 0x0 DUP1 PUSH1 0x80 DUP6 DUP8 SUB SLT ISZERO PUSH2 0x4F6D JUMPI PUSH1 0x0 DUP1 REVERT JUMPDEST POP POP DUP3 CALLDATALOAD SWAP5 PUSH1 0x20 DUP5 ADD CALLDATALOAD SWAP5 POP PUSH1 0x40 DUP5 ADD CALLDATALOAD SWAP4 PUSH1 0x60 ADD CALLDATALOAD SWAP3 POP SWAP1 POP JUMP JUMPDEST PUSH1 0x0 DUP1 PUSH1 0x0 PUSH1 0x60 DUP5 DUP7 SUB SLT ISZERO PUSH2 0x4F9E JUMPI PUSH1 0x0 DUP1 REVERT JUMPDEST POP POP DUP2 CALLDATALOAD SWAP4 PUSH1 0x20 DUP4 ADD CALLDATALOAD SWAP4 POP PUSH1 0x40 SWAP1 SWAP3 ADD CALLDATALOAD SWAP2 SWAP1 POP JUMP JUMPDEST PUSH1 0x0 DUP1 PUSH1 0x0 DUP1 PUSH1 0x80 DUP6 DUP8 SUB SLT ISZERO PUSH2 0x4FCB JUMPI PUSH1 0x0 DUP1 REVERT JUMPDEST DUP5 CALLDATALOAD SWAP4 POP PUSH1 0x20 DUP6 ADD CALLDATALOAD SWAP3 POP PUSH1 0x40 DUP6 ADD CALLDATALOAD SWAP2 POP PUSH1 0x60 DUP6 ADD CALLDATALOAD PUSH2 0x4FEB DUP2 PUSH2 0x4E9D JUMP JUMPDEST SWAP4 SWAP7 SWAP3 SWAP6 POP SWAP1 SWAP4 POP POP JUMP JUMPDEST PUSH1 0x0 DUP1 PUSH1 0x0 DUP1 PUSH1 0x0 DUP1 PUSH1 0xC0 DUP8 DUP10 SUB SLT ISZERO PUSH2 0x500F JUMPI PUSH1 0x0 DUP1 REVERT JUMPDEST DUP7 CALLDATALOAD SWAP6 POP PUSH1 0x20 DUP8 ADD CALLDATALOAD SWAP5 POP PUSH1 0x40 DUP8 ADD CALLDATALOAD SWAP4 POP PUSH1 0x60 DUP8 ADD CALLDATALOAD SWAP3 POP PUSH1 0x80 DUP8 ADD CALLDATALOAD SWAP2 POP PUSH1 0xA0 DUP8 ADD CALLDATALOAD PUSH2 0x503D DUP2 PUSH2 0x4E9D JUMP JUMPDEST DUP1 SWAP2 POP POP SWAP3 SWAP6 POP SWAP3 SWAP6 POP SWAP3 SWAP6 JUMP JUMPDEST DUP1 ISZERO ISZERO DUP2 EQ PUSH2 0x1495 JUMPI PUSH1 0x0 DUP1 REVERT JUMPDEST PUSH1 0x0 PUSH1 0x20 DUP3 DUP5 SUB SLT ISZERO PUSH2 0x506B JUMPI PUSH1 0x0 DUP1 REVERT JUMPDEST DUP2 CALLDATALOAD PUSH2 0x11CE DUP2 PUSH2 0x504B JUMP JUMPDEST PUSH1 0x0 DUP1 PUSH1 0x0 PUSH1 0x60 DUP5 DUP7 SUB SLT ISZERO PUSH2 0x508B JUMPI PUSH1 0x0 DUP1 REVERT JUMPDEST DUP4 CALLDATALOAD SWAP3 POP PUSH1 0x20 DUP5 ADD CALLDATALOAD SWAP2 POP PUSH1 0x40 DUP5 ADD CALLDATALOAD PUSH2 0x50A4 DUP2 PUSH2 0x4E9D JUMP JUMPDEST DUP1 SWAP2 POP POP SWAP3 POP SWAP3 POP SWAP3 JUMP JUMPDEST PUSH4 0x4E487B71 PUSH1 0xE0 SHL PUSH1 0x0 MSTORE PUSH1 0x41 PUSH1 0x4 MSTORE PUSH1 0x24 PUSH1 0x0 REVERT JUMPDEST PUSH1 0x0 DUP1 PUSH1 0x40 DUP4 DUP6 SUB SLT ISZERO PUSH2 0x50D8 JUMPI PUSH1 0x0 DUP1 REVERT JUMPDEST DUP3 CALLDATALOAD PUSH2 0x50E3 DUP2 PUSH2 0x4E9D JUMP JUMPDEST SWAP2 POP PUSH1 0x20 DUP4 ADD CALLDATALOAD PUSH8 0xFFFFFFFFFFFFFFFF DUP1 DUP3 GT ISZERO PUSH2 0x5100 JUMPI PUSH1 0x0 DUP1 REVERT JUMPDEST DUP2 DUP6 ADD SWAP2 POP DUP6 PUSH1 0x1F DUP4 ADD SLT PUSH2 0x5114 JUMPI PUSH1 0x0 DUP1 REVERT JUMPDEST DUP2 CALLDATALOAD DUP2 DUP2 GT ISZERO PUSH2 0x5126 JUMPI PUSH2 0x5126 PUSH2 0x50AF JUMP JUMPDEST PUSH1 0x40 MLOAD PUSH1 0x1F DUP3 ADD PUSH1 0x1F NOT SWAP1 DUP2 AND PUSH1 0x3F ADD AND DUP2 ADD SWAP1 DUP4 DUP3 GT DUP2 DUP4 LT OR ISZERO PUSH2 0x514E JUMPI PUSH2 0x514E PUSH2 0x50AF JUMP JUMPDEST DUP2 PUSH1 0x40 MSTORE DUP3 DUP2 MSTORE DUP9 PUSH1 0x20 DUP5 DUP8 ADD ADD GT ISZERO PUSH2 0x5167 JUMPI PUSH1 0x0 DUP1 REVERT JUMPDEST DUP3 PUSH1 0x20 DUP7 ADD PUSH1 0x20 DUP4 ADD CALLDATACOPY PUSH1 0x0 PUSH1 0x20 DUP5 DUP4 ADD ADD MSTORE DUP1 SWAP6 POP POP POP POP POP POP SWAP3 POP SWAP3 SWAP1 POP JUMP JUMPDEST PUSH1 0x0 DUP1 PUSH1 0x40 DUP4 DUP6 SUB SLT ISZERO PUSH2 0x519C JUMPI PUSH1 0x0 DUP1 REVERT JUMPDEST DUP3 CALLDATALOAD SWAP2 POP PUSH1 0x20 DUP4 ADD CALLDATALOAD PUSH2 0x51AE DUP2 PUSH2 0x4E9D JUMP JUMPDEST DUP1 SWAP2 POP POP SWAP3 POP SWAP3 SWAP1 POP JUMP JUMPDEST PUSH1 0x0 PUSH2 0x280 DUP3 DUP5 SUB SLT ISZERO PUSH2 0x51CC JUMPI PUSH1 0x0 DUP1 REVERT JUMPDEST POP SWAP2 SWAP1 POP JUMP JUMPDEST PUSH1 0x0 DUP1 PUSH1 0x0 DUP1 PUSH1 0x0 PUSH1 0xA0 DUP7 DUP9 SUB SLT ISZERO PUSH2 0x51EA JUMPI PUSH1 0x0 DUP1 REVERT JUMPDEST POP POP DUP4 CALLDATALOAD SWAP6 PUSH1 0x20 DUP6 ADD CALLDATALOAD SWAP6 POP PUSH1 0x40 DUP6 ADD CALLDATALOAD SWAP5 PUSH1 0x60 DUP2 ADD CALLDATALOAD SWAP5 POP PUSH1 0x80 ADD CALLDATALOAD SWAP3 POP SWAP1 POP JUMP JUMPDEST PUSH1 0x0 PUSH1 0xE0 DUP3 DUP5 SUB SLT ISZERO PUSH2 0x51CC JUMPI PUSH1 0x0 DUP1 REVERT JUMPDEST PUSH1 0x20 DUP1 DUP3 MSTORE PUSH1 0x2C SWAP1 DUP3 ADD MSTORE PUSH32 0x46756E6374696F6E206D7573742062652063616C6C6564207468726F75676820 PUSH1 0x40 DUP3 ADD MSTORE PUSH12 0x19195B1959D85D1958D85B1B PUSH1 0xA2 SHL PUSH1 0x60 DUP3 ADD MSTORE PUSH1 0x80 ADD SWAP1 JUMP JUMPDEST PUSH1 0x20 DUP1 DUP3 MSTORE PUSH1 0x2C SWAP1 DUP3 ADD MSTORE PUSH32 0x46756E6374696F6E206D7573742062652063616C6C6564207468726F75676820 PUSH1 0x40 DUP3 ADD MSTORE PUSH12 0x6163746976652070726F7879 PUSH1 0xA0 SHL PUSH1 0x60 DUP3 ADD MSTORE PUSH1 0x80 ADD SWAP1 JUMP JUMPDEST PUSH4 0x4E487B71 PUSH1 0xE0 SHL PUSH1 0x0 MSTORE PUSH1 0x11 PUSH1 0x4 MSTORE PUSH1 0x24 PUSH1 0x0 REVERT JUMPDEST DUP1 DUP3 ADD DUP1 DUP3 GT ISZERO PUSH2 0x114E JUMPI PUSH2 0x114E PUSH2 0x52B7 JUMP JUMPDEST PUSH4 0x4E487B71 PUSH1 0xE0 SHL PUSH1 0x0 MSTORE PUSH1 0x32 PUSH1 0x4 MSTORE PUSH1 0x24 PUSH1 0x0 REVERT JUMPDEST PUSH1 0x0 DUP1 PUSH1 0x40 DUP4 DUP6 SUB SLT ISZERO PUSH2 0x5309 JUMPI PUSH1 0x0 DUP1 REVERT JUMPDEST DUP3 MLOAD SWAP2 POP PUSH1 0x20 DUP4 ADD MLOAD PUSH2 0x51AE DUP2 PUSH2 0x504B JUMP JUMPDEST PUSH1 0x0 PUSH1 0x20 DUP3 DUP5 SUB SLT ISZERO PUSH2 0x532D JUMPI PUSH1 0x0 DUP1 REVERT JUMPDEST DUP2 MLOAD PUSH2 0x11CE DUP2 PUSH2 0x504B JUMP JUMPDEST PUSH1 0xE0 DUP2 ADD DUP3 CALLDATALOAD PUSH2 0x5347 DUP2 PUSH2 0x4E9D JUMP JUMPDEST PUSH1 0x1 PUSH1 0x1 PUSH1 0xA0 SHL SUB SWAP1 DUP2 AND DUP4 MSTORE PUSH1 0x20 DUP5 ADD CALLDATALOAD SWAP1 PUSH2 0x5363 DUP3 PUSH2 0x4E9D JUMP JUMPDEST DUP1 DUP3 AND PUSH1 0x20 DUP6 ADD MSTORE POP POP PUSH1 0x40 DUP4 ADD CALLDATALOAD PUSH1 0x40 DUP4 ADD MSTORE PUSH1 0x60 DUP4 ADD CALLDATALOAD PUSH1 0x60 DUP4 ADD MSTORE PUSH1 0x80 DUP4 ADD CALLDATALOAD PUSH1 0x80 DUP4 ADD MSTORE PUSH1 0xA0 DUP4 ADD CALLDATALOAD PUSH1 0xA0 DUP4 ADD MSTORE PUSH1 0xC0 DUP4 ADD CALLDATALOAD PUSH1 0xC0 DUP4 ADD MSTORE SWAP3 SWAP2 POP POP JUMP JUMPDEST DUP2 DUP2 SUB DUP2 DUP2 GT ISZERO PUSH2 0x114E JUMPI PUSH2 0x114E PUSH2 0x52B7 JUMP JUMPDEST DUP1 DUP3 MUL DUP2 ISZERO DUP3 DUP3 DIV DUP5 EQ OR PUSH2 0x114E JUMPI PUSH2 0x114E PUSH2 0x52B7 JUMP JUMPDEST PUSH1 0x0 DUP3 PUSH2 0x53EC JUMPI PUSH4 0x4E487B71 PUSH1 0xE0 SHL PUSH1 0x0 MSTORE PUSH1 0x12 PUSH1 0x4 MSTORE PUSH1 0x24 PUSH1 0x0 REVERT JUMPDEST POP DIV SWAP1 JUMP JUMPDEST PUSH1 0x0 PUSH1 0x20 DUP3 DUP5 SUB SLT ISZERO PUSH2 0x5403 JUMPI PUSH1 0x0 DUP1 REVERT JUMPDEST POP MLOAD SWAP2 SWAP1 POP JUMP JUMPDEST PUSH1 0x20 DUP1 DUP3 MSTORE PUSH1 0x2B SWAP1 DUP3 ADD MSTORE PUSH32 0x496E697469616C697A61626C653A20636F6E7472616374206973206E6F742069 PUSH1 0x40 DUP3 ADD MSTORE PUSH11 0x6E697469616C697A696E67 PUSH1 0xA8 SHL PUSH1 0x60 DUP3 ADD MSTORE PUSH1 0x80 ADD SWAP1 JUMP JUMPDEST DUP1 DUP3 ADD DUP3 DUP2 SLT PUSH1 0x0 DUP4 SLT DUP1 ISZERO DUP3 AND DUP3 ISZERO DUP3 AND OR ISZERO PUSH2 0x5475 JUMPI PUSH2 0x5475 PUSH2 0x52B7 JUMP JUMPDEST POP POP SWAP3 SWAP2 POP POP JUMP JUMPDEST PUSH1 0x0 PUSH1 0x40 DUP3 ADD DUP5 DUP4 MSTORE PUSH1 0x20 PUSH1 0x40 DUP2 DUP6 ADD MSTORE DUP2 DUP6 MLOAD DUP1 DUP5 MSTORE PUSH1 0x60 DUP7 ADD SWAP2 POP DUP3 DUP8 ADD SWAP4 POP PUSH1 0x0 JUMPDEST DUP2 DUP2 LT ISZERO PUSH2 0x54BE JUMPI DUP5 MLOAD DUP4 MSTORE SWAP4 DUP4 ADD SWAP4 SWAP2 DUP4 ADD SWAP2 PUSH1 0x1 ADD PUSH2 0x54A2 JUMP JUMPDEST POP SWAP1 SWAP8 SWAP7 POP POP POP POP POP POP POP JUMP JUMPDEST DUP2 DUP2 SUB PUSH1 0x0 DUP4 SLT DUP1 ISZERO DUP4 DUP4 SGT AND DUP4 DUP4 SLT DUP3 AND OR ISZERO PUSH2 0x54EB JUMPI PUSH2 0x54EB PUSH2 0x52B7 JUMP JUMPDEST POP SWAP3 SWAP2 POP POP JUMP JUMPDEST PUSH1 0x0 JUMPDEST DUP4 DUP2 LT ISZERO PUSH2 0x550D JUMPI DUP2 DUP2 ADD MLOAD DUP4 DUP3 ADD MSTORE PUSH1 0x20 ADD PUSH2 0x54F5 JUMP JUMPDEST POP POP PUSH1 0x0 SWAP2 ADD MSTORE JUMP JUMPDEST PUSH1 0x0 DUP3 MLOAD PUSH2 0x5528 DUP2 DUP5 PUSH1 0x20 DUP8 ADD PUSH2 0x54F2 JUMP JUMPDEST SWAP2 SWAP1 SWAP2 ADD SWAP3 SWAP2 POP POP JUMP JUMPDEST PUSH1 0x20 DUP2 MSTORE PUSH1 0x0 DUP3 MLOAD DUP1 PUSH1 0x20 DUP5 ADD MSTORE PUSH2 0x5551 DUP2 PUSH1 0x40 DUP6 ADD PUSH1 0x20 DUP8 ADD PUSH2 0x54F2 JUMP JUMPDEST PUSH1 0x1F ADD PUSH1 0x1F NOT AND SWAP2 SWAP1 SWAP2 ADD PUSH1 0x40 ADD SWAP3 SWAP2 POP POP JUMP INVALID CALLDATASIZE ADDMOD SWAP5 LOG1 EXTCODESIZE LOG1 LOG3 0x21 MOD PUSH8 0xC828492DB98DCA3E KECCAK256 PUSH23 0xCC3735A920A3CA505D382BBC416464726573733A206C6F PUSH24 0x2D6C6576656C2064656C65676174652063616C6C20666169 PUSH13 0x6564A2646970667358221220C3 DUP1 0xC6 0x22 LOG1 0x4C 0x2A 0xE9 0xD1 EQ 0xE4 0xCD 0xBF SGT 0xB9 0x21 0xCB 0xDE 0xAF MSIZE SHL 0xC3 0xAF PUSH1 0x24 0x1F CHAINID SWAP9 0x4D BALANCE 0xBD 0xA7 PUSH5 0x736F6C6343 STOP ADDMOD GT STOP CALLER PUSH1 0xA0 PUSH1 0x40 MSTORE ADDRESS PUSH1 0x80 MSTORE CALLVALUE DUP1 ISZERO PUSH3 0x15 JUMPI PUSH1 0x0 DUP1 REVERT JUMPDEST POP PUSH3 0x20 PUSH3 0x26 JUMP JUMPDEST PUSH3 0xE8 JUMP JUMPDEST PUSH1 0x0 SLOAD PUSH2 0x100 SWAP1 DIV PUSH1 0xFF AND ISZERO PUSH3 0x93 JUMPI PUSH1 0x40 MLOAD PUSH3 0x461BCD PUSH1 0xE5 SHL DUP2 MSTORE PUSH1 0x20 PUSH1 0x4 DUP3 ADD MSTORE PUSH1 0x27 PUSH1 0x24 DUP3 ADD MSTORE PUSH32 0x496E697469616C697A61626C653A20636F6E747261637420697320696E697469 PUSH1 0x44 DUP3 ADD MSTORE PUSH7 0x616C697A696E67 PUSH1 0xC8 SHL PUSH1 0x64 DUP3 ADD MSTORE PUSH1 0x84 ADD PUSH1 0x40 MLOAD DUP1 SWAP2 SUB SWAP1 REVERT JUMPDEST PUSH1 0x0 SLOAD PUSH1 0xFF SWAP1 DUP2 AND LT ISZERO PUSH3 0xE6 JUMPI PUSH1 0x0 DUP1 SLOAD PUSH1 0xFF NOT AND PUSH1 0xFF SWAP1 DUP2 OR SWAP1 SWAP2 SSTORE PUSH1 0x40 MLOAD SWAP1 DUP2 MSTORE PUSH32 0x7F26B83FF96E1F2B6A682F133852F6798A09C465DA95921460CEFB3847402498 SWAP1 PUSH1 0x20 ADD PUSH1 0x40 MLOAD DUP1 SWAP2 SUB SWAP1 LOG1 JUMPDEST JUMP JUMPDEST PUSH1 0x80 MLOAD PUSH2 0x369F PUSH3 0x120 PUSH1 0x0 CODECOPY PUSH1 0x0 DUP2 DUP2 PUSH2 0x71F ADD MSTORE DUP2 DUP2 PUSH2 0x768 ADD MSTORE DUP2 DUP2 PUSH2 0xA6E ADD MSTORE DUP2 DUP2 PUSH2 0xAAE ADD MSTORE PUSH2 0xB55 ADD MSTORE PUSH2 0x369F PUSH1 0x0 RETURN INVALID PUSH1 0x80 PUSH1 0x40 MSTORE PUSH1 0x4 CALLDATASIZE LT PUSH2 0x21A JUMPI PUSH1 0x0 CALLDATALOAD PUSH1 0xE0 SHR DUP1 PUSH4 0x68274357 GT PUSH2 0x123 JUMPI DUP1 PUSH4 0xBC392847 GT PUSH2 0xAB JUMPI DUP1 PUSH4 0xDF2B033B GT PUSH2 0x6F JUMPI DUP1 PUSH4 0xDF2B033B EQ PUSH2 0x606 JUMPI DUP1 PUSH4 0xE4C0AAF4 EQ PUSH2 0x626 JUMPI DUP1 PUSH4 0xE4D6944D EQ PUSH2 0x646 JUMPI DUP1 PUSH4 0xF101F261 EQ PUSH2 0x666 JUMPI DUP1 PUSH4 0xF8C8765E EQ PUSH2 0x686 JUMPI PUSH1 0x0 DUP1 REVERT JUMPDEST DUP1 PUSH4 0xBC392847 EQ PUSH2 0x566 JUMPI DUP1 PUSH4 0xC699CFED EQ PUSH2 0x586 JUMPI DUP1 PUSH4 0xC8308A62 EQ PUSH2 0x5A6 JUMPI DUP1 PUSH4 0xCFF5C6EC EQ PUSH2 0x5C6 JUMPI DUP1 PUSH4 0xD5AC5A18 EQ PUSH2 0x5E6 JUMPI PUSH1 0x0 DUP1 REVERT JUMPDEST DUP1 PUSH4 0x9D72DD4B GT PUSH2 0xF2 JUMPI DUP1 PUSH4 0x9D72DD4B EQ PUSH2 0x4C6 JUMPI DUP1 PUSH4 0x9FD0506D EQ PUSH2 0x4E6 JUMPI DUP1 PUSH4 0xA27B1AB7 EQ PUSH2 0x50C JUMPI DUP1 PUSH4 0xB986CB30 EQ PUSH2 0x52C JUMPI DUP1 PUSH4 0xBB4872DE EQ PUSH2 0x54C JUMPI PUSH1 0x0 DUP1 REVERT JUMPDEST DUP1 PUSH4 0x68274357 EQ PUSH2 0x45C JUMPI DUP1 PUSH4 0x8456CB59 EQ PUSH2 0x471 JUMPI DUP1 PUSH4 0x90E3B126 EQ PUSH2 0x486 JUMPI DUP1 PUSH4 0x966D3F23 EQ PUSH2 0x4A6 JUMPI PUSH1 0x0 DUP1 REVERT JUMPDEST DUP1 PUSH4 0x4A6307FC GT PUSH2 0x1A6 JUMPI DUP1 PUSH4 0x52D1902D GT PUSH2 0x175 JUMPI DUP1 PUSH4 0x52D1902D EQ PUSH2 0x3BE JUMPI DUP1 PUSH4 0x5475B66F EQ PUSH2 0x3D3 JUMPI DUP1 PUSH4 0x5ABB6418 EQ PUSH2 0x3F3 JUMPI DUP1 PUSH4 0x5C975ABB EQ PUSH2 0x413 JUMPI DUP1 PUSH4 0x5D23B4A4 EQ PUSH2 0x43C JUMPI PUSH1 0x0 DUP1 REVERT JUMPDEST DUP1 PUSH4 0x4A6307FC EQ PUSH2 0x353 JUMPI DUP1 PUSH4 0x4B94F50E EQ PUSH2 0x373 JUMPI DUP1 PUSH4 0x4F1EF286 EQ PUSH2 0x396 JUMPI DUP1 PUSH4 0x5210570C EQ PUSH2 0x3A9 JUMPI PUSH1 0x0 DUP1 REVERT JUMPDEST DUP1 PUSH4 0x2D88AF4A GT PUSH2 0x1ED JUMPI DUP1 PUSH4 0x2D88AF4A EQ PUSH2 0x2BE JUMPI DUP1 PUSH4 0x3659CFE6 EQ PUSH2 0x2DE JUMPI DUP1 PUSH4 0x36BA97ED EQ PUSH2 0x2FE JUMPI DUP1 PUSH4 0x3F4BA83A EQ PUSH2 0x31E JUMPI DUP1 PUSH4 0x3FFD0332 EQ PUSH2 0x333 JUMPI PUSH1 0x0 DUP1 REVERT JUMPDEST DUP1 PUSH4 0x9A849C3 EQ PUSH2 0x21F JUMPI DUP1 PUSH4 0xC340A24 EQ PUSH2 0x241 JUMPI DUP1 PUSH4 0x11D32B60 EQ PUSH2 0x27E JUMPI DUP1 PUSH4 0x1E4A7B0A EQ PUSH2 0x29E JUMPI JUMPDEST PUSH1 0x0 DUP1 REVERT JUMPDEST CALLVALUE DUP1 ISZERO PUSH2 0x22B JUMPI PUSH1 0x0 DUP1 REVERT JUMPDEST POP PUSH2 0x23F PUSH2 0x23A CALLDATASIZE PUSH1 0x4 PUSH2 0x2DCD JUMP JUMPDEST PUSH2 0x6A6 JUMP JUMPDEST STOP JUMPDEST CALLVALUE DUP1 ISZERO PUSH2 0x24D JUMPI PUSH1 0x0 DUP1 REVERT JUMPDEST POP PUSH1 0x97 SLOAD PUSH2 0x261 SWAP1 PUSH1 0x1 PUSH1 0x1 PUSH1 0xA0 SHL SUB AND DUP2 JUMP JUMPDEST PUSH1 0x40 MLOAD PUSH1 0x1 PUSH1 0x1 PUSH1 0xA0 SHL SUB SWAP1 SWAP2 AND DUP2 MSTORE PUSH1 0x20 ADD JUMPDEST PUSH1 0x40 MLOAD DUP1 SWAP2 SUB SWAP1 RETURN JUMPDEST CALLVALUE DUP1 ISZERO PUSH2 0x28A JUMPI PUSH1 0x0 DUP1 REVERT JUMPDEST POP PUSH2 0x23F PUSH2 0x299 CALLDATASIZE PUSH1 0x4 PUSH2 0x2E19 JUMP JUMPDEST PUSH2 0x6BE JUMP JUMPDEST CALLVALUE DUP1 ISZERO PUSH2 0x2AA JUMPI PUSH1 0x0 DUP1 REVERT JUMPDEST POP PUSH2 0x23F PUSH2 0x2B9 CALLDATASIZE PUSH1 0x4 PUSH2 0x2E77 JUMP JUMPDEST PUSH2 0x6CD JUMP JUMPDEST CALLVALUE DUP1 ISZERO PUSH2 0x2CA JUMPI PUSH1 0x0 DUP1 REVERT JUMPDEST POP PUSH2 0x23F PUSH2 0x2D9 CALLDATASIZE PUSH1 0x4 PUSH2 0x2EBB JUMP JUMPDEST PUSH2 0x6E3 JUMP JUMPDEST CALLVALUE DUP1 ISZERO PUSH2 0x2EA JUMPI PUSH1 0x0 DUP1 REVERT JUMPDEST POP PUSH2 0x23F PUSH2 0x2F9 CALLDATASIZE PUSH1 0x4 PUSH2 0x2EBB JUMP JUMPDEST PUSH2 0x715 JUMP JUMPDEST CALLVALUE DUP1 ISZERO PUSH2 0x30A JUMPI PUSH1 0x0 DUP1 REVERT JUMPDEST POP PUSH2 0x23F PUSH2 0x319 CALLDATASIZE PUSH1 0x4 PUSH2 0x2ED8 JUMP JUMPDEST PUSH2 0x7FD JUMP JUMPDEST CALLVALUE DUP1 ISZERO PUSH2 0x32A JUMPI PUSH1 0x0 DUP1 REVERT JUMPDEST POP PUSH2 0x23F PUSH2 0x831 JUMP JUMPDEST CALLVALUE DUP1 ISZERO PUSH2 0x33F JUMPI PUSH1 0x0 DUP1 REVERT JUMPDEST POP PUSH2 0x23F PUSH2 0x34E CALLDATASIZE PUSH1 0x4 PUSH2 0x2E77 JUMP JUMPDEST PUSH2 0x8CB JUMP JUMPDEST CALLVALUE DUP1 ISZERO PUSH2 0x35F JUMPI PUSH1 0x0 DUP1 REVERT JUMPDEST POP PUSH2 0x23F PUSH2 0x36E CALLDATASIZE PUSH1 0x4 PUSH2 0x2F22 JUMP JUMPDEST PUSH2 0x8DA JUMP JUMPDEST CALLVALUE DUP1 ISZERO PUSH2 0x37F JUMPI PUSH1 0x0 DUP1 REVERT JUMPDEST POP PUSH2 0x388 PUSH2 0x8EC JUMP JUMPDEST PUSH1 0x40 MLOAD SWAP1 DUP2 MSTORE PUSH1 0x20 ADD PUSH2 0x275 JUMP JUMPDEST PUSH2 0x23F PUSH2 0x3A4 CALLDATASIZE PUSH1 0x4 PUSH2 0x2F6D JUMP JUMPDEST PUSH2 0xA64 JUMP JUMPDEST CALLVALUE DUP1 ISZERO PUSH2 0x3B5 JUMPI PUSH1 0x0 DUP1 REVERT JUMPDEST POP PUSH2 0x23F PUSH2 0xB34 JUMP JUMPDEST CALLVALUE DUP1 ISZERO PUSH2 0x3CA JUMPI PUSH1 0x0 DUP1 REVERT JUMPDEST POP PUSH2 0x388 PUSH2 0xB48 JUMP JUMPDEST CALLVALUE DUP1 ISZERO PUSH2 0x3DF JUMPI PUSH1 0x0 DUP1 REVERT JUMPDEST POP PUSH2 0x23F PUSH2 0x3EE CALLDATASIZE PUSH1 0x4 PUSH2 0x3031 JUMP JUMPDEST PUSH2 0xBFB JUMP JUMPDEST CALLVALUE DUP1 ISZERO PUSH2 0x3FF JUMPI PUSH1 0x0 DUP1 REVERT JUMPDEST POP PUSH2 0x23F PUSH2 0x40E CALLDATASIZE PUSH1 0x4 PUSH2 0x3087 JUMP JUMPDEST PUSH2 0xC09 JUMP JUMPDEST CALLVALUE DUP1 ISZERO PUSH2 0x41F JUMPI PUSH1 0x0 DUP1 REVERT JUMPDEST POP PUSH1 0xCA SLOAD PUSH2 0x100 SWAP1 DIV PUSH1 0xFF AND JUMPDEST PUSH1 0x40 MLOAD SWAP1 ISZERO ISZERO DUP2 MSTORE PUSH1 0x20 ADD PUSH2 0x275 JUMP JUMPDEST CALLVALUE DUP1 ISZERO PUSH2 0x448 JUMPI PUSH1 0x0 DUP1 REVERT JUMPDEST POP PUSH2 0x23F PUSH2 0x457 CALLDATASIZE PUSH1 0x4 PUSH2 0x2E77 JUMP JUMPDEST PUSH2 0xC1D JUMP JUMPDEST CALLVALUE DUP1 ISZERO PUSH2 0x468 JUMPI PUSH1 0x0 DUP1 REVERT JUMPDEST POP PUSH2 0x23F PUSH2 0xC2C JUMP JUMPDEST CALLVALUE DUP1 ISZERO PUSH2 0x47D JUMPI PUSH1 0x0 DUP1 REVERT JUMPDEST POP PUSH2 0x23F PUSH2 0xC43 JUMP JUMPDEST CALLVALUE DUP1 ISZERO PUSH2 0x492 JUMPI PUSH1 0x0 DUP1 REVERT JUMPDEST POP PUSH2 0x23F PUSH2 0x4A1 CALLDATASIZE PUSH1 0x4 PUSH2 0x30C2 JUMP JUMPDEST PUSH2 0xCDE JUMP JUMPDEST CALLVALUE DUP1 ISZERO PUSH2 0x4B2 JUMPI PUSH1 0x0 DUP1 REVERT JUMPDEST POP PUSH2 0x23F PUSH2 0x4C1 CALLDATASIZE PUSH1 0x4 PUSH2 0x312B JUMP JUMPDEST PUSH2 0xCF7 JUMP JUMPDEST CALLVALUE DUP1 ISZERO PUSH2 0x4D2 JUMPI PUSH1 0x0 DUP1 REVERT JUMPDEST POP PUSH2 0x23F PUSH2 0x4E1 CALLDATASIZE PUSH1 0x4 PUSH2 0x317C JUMP JUMPDEST PUSH2 0xED2 JUMP JUMPDEST CALLVALUE DUP1 ISZERO PUSH2 0x4F2 JUMPI PUSH1 0x0 DUP1 REVERT JUMPDEST POP PUSH1 0xCA SLOAD PUSH2 0x261 SWAP1 PUSH3 0x10000 SWAP1 DIV PUSH1 0x1 PUSH1 0x1 PUSH1 0xA0 SHL SUB AND DUP2 JUMP JUMPDEST CALLVALUE DUP1 ISZERO PUSH2 0x518 JUMPI PUSH1 0x0 DUP1 REVERT JUMPDEST POP PUSH2 0x23F PUSH2 0x527 CALLDATASIZE PUSH1 0x4 PUSH2 0x3031 JUMP JUMPDEST PUSH2 0xEE3 JUMP JUMPDEST CALLVALUE DUP1 ISZERO PUSH2 0x538 JUMPI PUSH1 0x0 DUP1 REVERT JUMPDEST POP PUSH2 0x23F PUSH2 0x547 CALLDATASIZE PUSH1 0x4 PUSH2 0x3031 JUMP JUMPDEST PUSH2 0xEF1 JUMP JUMPDEST CALLVALUE DUP1 ISZERO PUSH2 0x558 JUMPI PUSH1 0x0 DUP1 REVERT JUMPDEST POP PUSH1 0xCA SLOAD PUSH2 0x42C SWAP1 PUSH1 0xFF AND DUP2 JUMP JUMPDEST CALLVALUE DUP1 ISZERO PUSH2 0x572 JUMPI PUSH1 0x0 DUP1 REVERT JUMPDEST POP PUSH2 0x23F PUSH2 0x581 CALLDATASIZE PUSH1 0x4 PUSH2 0x3087 JUMP JUMPDEST PUSH2 0xF01 JUMP JUMPDEST CALLVALUE DUP1 ISZERO PUSH2 0x592 JUMPI PUSH1 0x0 DUP1 REVERT JUMPDEST POP PUSH2 0x23F PUSH2 0x5A1 CALLDATASIZE PUSH1 0x4 PUSH2 0x2ED8 JUMP JUMPDEST PUSH2 0xF0F JUMP JUMPDEST CALLVALUE DUP1 ISZERO PUSH2 0x5B2 JUMPI PUSH1 0x0 DUP1 REVERT JUMPDEST POP PUSH2 0x23F PUSH2 0x5C1 CALLDATASIZE PUSH1 0x4 PUSH2 0x2F22 JUMP JUMPDEST PUSH2 0xF1C JUMP JUMPDEST CALLVALUE DUP1 ISZERO PUSH2 0x5D2 JUMPI PUSH1 0x0 DUP1 REVERT JUMPDEST POP PUSH2 0x23F PUSH2 0x5E1 CALLDATASIZE PUSH1 0x4 PUSH2 0x2E19 JUMP JUMPDEST PUSH2 0xF29 JUMP JUMPDEST CALLVALUE DUP1 ISZERO PUSH2 0x5F2 JUMPI PUSH1 0x0 DUP1 REVERT JUMPDEST POP PUSH2 0x23F PUSH2 0x601 CALLDATASIZE PUSH1 0x4 PUSH2 0x31A8 JUMP JUMPDEST PUSH2 0xF38 JUMP JUMPDEST CALLVALUE DUP1 ISZERO PUSH2 0x612 JUMPI PUSH1 0x0 DUP1 REVERT JUMPDEST POP PUSH2 0x23F PUSH2 0x621 CALLDATASIZE PUSH1 0x4 PUSH2 0x3087 JUMP JUMPDEST PUSH2 0xF49 JUMP JUMPDEST CALLVALUE DUP1 ISZERO PUSH2 0x632 JUMPI PUSH1 0x0 DUP1 REVERT JUMPDEST POP PUSH2 0x23F PUSH2 0x641 CALLDATASIZE PUSH1 0x4 PUSH2 0x2EBB JUMP JUMPDEST PUSH2 0xF59 JUMP JUMPDEST CALLVALUE DUP1 ISZERO PUSH2 0x652 JUMPI PUSH1 0x0 DUP1 REVERT JUMPDEST POP PUSH2 0x23F PUSH2 0x661 CALLDATASIZE PUSH1 0x4 PUSH2 0x2ED8 JUMP JUMPDEST PUSH2 0xF83 JUMP JUMPDEST CALLVALUE DUP1 ISZERO PUSH2 0x672 JUMPI PUSH1 0x0 DUP1 REVERT JUMPDEST POP PUSH2 0x23F PUSH2 0x681 CALLDATASIZE PUSH1 0x4 PUSH2 0x2E19 JUMP JUMPDEST PUSH2 0xF90 JUMP JUMPDEST CALLVALUE DUP1 ISZERO PUSH2 0x692 JUMPI PUSH1 0x0 DUP1 REVERT JUMPDEST POP PUSH2 0x23F PUSH2 0x6A1 CALLDATASIZE PUSH1 0x4 PUSH2 0x31DF JUMP JUMPDEST PUSH2 0xF9F JUMP JUMPDEST PUSH2 0x6B6 DUP7 DUP7 DUP7 DUP7 DUP7 DUP7 CALLER CALLER PUSH2 0x10F2 JUMP JUMPDEST POP POP POP POP POP POP JUMP JUMPDEST PUSH2 0x6B6 DUP7 DUP7 DUP7 DUP7 DUP7 CALLER DUP8 PUSH2 0x131B JUMP JUMPDEST PUSH2 0x6DC DUP6 DUP6 DUP6 DUP6 DUP6 CALLER CALLER PUSH2 0x1505 JUMP JUMPDEST POP POP POP POP POP JUMP JUMPDEST PUSH2 0x6EB PUSH2 0x1747 JUMP JUMPDEST PUSH1 0xCA DUP1 SLOAD PUSH1 0x1 PUSH1 0x1 PUSH1 0xA0 SHL SUB SWAP1 SWAP3 AND PUSH3 0x10000 MUL PUSH3 0x10000 PUSH1 0x1 PUSH1 0xB0 SHL SUB NOT SWAP1 SWAP3 AND SWAP2 SWAP1 SWAP2 OR SWAP1 SSTORE JUMP JUMPDEST PUSH1 0x1 PUSH1 0x1 PUSH1 0xA0 SHL SUB PUSH32 0x0 AND ADDRESS SUB PUSH2 0x766 JUMPI PUSH1 0x40 MLOAD PUSH3 0x461BCD PUSH1 0xE5 SHL DUP2 MSTORE PUSH1 0x4 ADD PUSH2 0x75D SWAP1 PUSH2 0x3230 JUMP JUMPDEST PUSH1 0x40 MLOAD DUP1 SWAP2 SUB SWAP1 REVERT JUMPDEST PUSH32 0x0 PUSH1 0x1 PUSH1 0x1 PUSH1 0xA0 SHL SUB AND PUSH2 0x7AF PUSH1 0x0 DUP1 MLOAD PUSH1 0x20 PUSH2 0x3623 DUP4 CODECOPY DUP2 MLOAD SWAP2 MSTORE SLOAD PUSH1 0x1 PUSH1 0x1 PUSH1 0xA0 SHL SUB AND SWAP1 JUMP JUMPDEST PUSH1 0x1 PUSH1 0x1 PUSH1 0xA0 SHL SUB AND EQ PUSH2 0x7D5 JUMPI PUSH1 0x40 MLOAD PUSH3 0x461BCD PUSH1 0xE5 SHL DUP2 MSTORE PUSH1 0x4 ADD PUSH2 0x75D SWAP1 PUSH2 0x327C JUMP JUMPDEST PUSH2 0x7DE DUP2 PUSH2 0x17D2 JUMP JUMPDEST PUSH1 0x40 DUP1 MLOAD PUSH1 0x0 DUP1 DUP3 MSTORE PUSH1 0x20 DUP3 ADD SWAP1 SWAP3 MSTORE PUSH2 0x7FA SWAP2 DUP4 SWAP2 SWAP1 PUSH2 0x17DA JUMP JUMPDEST POP JUMP JUMPDEST DUP4 PUSH2 0x807 DUP2 PUSH2 0x1945 JUMP JUMPDEST PUSH2 0x824 JUMPI PUSH1 0x40 MLOAD PUSH4 0xE6C4247B PUSH1 0xE0 SHL DUP2 MSTORE PUSH1 0x4 ADD PUSH1 0x40 MLOAD DUP1 SWAP2 SUB SWAP1 REVERT JUMPDEST PUSH2 0x6B6 DUP6 DUP6 DUP6 CALLER DUP7 PUSH2 0x1967 JUMP JUMPDEST PUSH1 0xCA SLOAD PUSH2 0x100 SWAP1 DIV PUSH1 0xFF AND PUSH2 0x859 JUMPI PUSH1 0x40 MLOAD PUSH4 0x7C7FD079 PUSH1 0xE0 SHL DUP2 MSTORE PUSH1 0x4 ADD PUSH1 0x40 MLOAD DUP1 SWAP2 SUB SWAP1 REVERT JUMPDEST PUSH1 0xCA SLOAD PUSH3 0x10000 SWAP1 DIV PUSH1 0x1 PUSH1 0x1 PUSH1 0xA0 SHL SUB AND CALLER EQ PUSH2 0x88A JUMPI PUSH1 0x40 MLOAD PUSH4 0x1D77D477 PUSH1 0xE2 SHL DUP2 MSTORE PUSH1 0x4 ADD PUSH1 0x40 MLOAD DUP1 SWAP2 SUB SWAP1 REVERT JUMPDEST PUSH1 0xCA DUP1 SLOAD PUSH2 0xFF00 NOT AND SWAP1 SSTORE PUSH1 0x40 MLOAD CALLER DUP2 MSTORE PUSH32 0x5DB9EE0A495BF2E6FF9C91A7834C1BA4FDD244A5E8AA4E537BD38AEAE4B073AA SWAP1 PUSH1 0x20 ADD JUMPDEST PUSH1 0x40 MLOAD DUP1 SWAP2 SUB SWAP1 LOG1 JUMP JUMPDEST PUSH2 0x6DC DUP6 DUP6 DUP6 DUP6 DUP6 CALLER CALLER PUSH2 0x131B JUMP JUMPDEST PUSH2 0x8E7 DUP4 DUP4 DUP4 CALLER CALLER PUSH2 0x1A30 JUMP JUMPDEST POP POP POP JUMP JUMPDEST PUSH1 0x0 DUP1 PUSH2 0x161 PUSH1 0x0 SWAP1 SLOAD SWAP1 PUSH2 0x100 EXP SWAP1 DIV PUSH1 0x1 PUSH1 0x1 PUSH1 0xA0 SHL SUB AND PUSH1 0x1 PUSH1 0x1 PUSH1 0xA0 SHL SUB AND PUSH4 0x18160DDD PUSH1 0x40 MLOAD DUP2 PUSH4 0xFFFFFFFF AND PUSH1 0xE0 SHL DUP2 MSTORE PUSH1 0x4 ADD PUSH1 0x20 PUSH1 0x40 MLOAD DUP1 DUP4 SUB DUP2 DUP7 GAS STATICCALL ISZERO DUP1 ISZERO PUSH2 0x943 JUMPI RETURNDATASIZE PUSH1 0x0 DUP1 RETURNDATACOPY RETURNDATASIZE PUSH1 0x0 REVERT JUMPDEST POP POP POP POP PUSH1 0x40 MLOAD RETURNDATASIZE PUSH1 0x1F NOT PUSH1 0x1F DUP3 ADD AND DUP3 ADD DUP1 PUSH1 0x40 MSTORE POP DUP2 ADD SWAP1 PUSH2 0x967 SWAP2 SWAP1 PUSH2 0x32C8 JUMP JUMPDEST SWAP1 POP DUP1 PUSH1 0x0 SUB PUSH2 0x980 JUMPI PUSH8 0xDE0B6B3A7640000 SWAP2 POP POP SWAP1 JUMP JUMPDEST PUSH2 0x163 SLOAD PUSH1 0x0 DUP1 JUMPDEST DUP3 DUP2 LT ISZERO PUSH2 0xA51 JUMPI PUSH1 0x0 PUSH2 0x163 DUP3 DUP2 SLOAD DUP2 LT PUSH2 0x9A6 JUMPI PUSH2 0x9A6 PUSH2 0x32E1 JUMP JUMPDEST PUSH1 0x0 SWAP2 DUP3 MSTORE PUSH1 0x20 DUP3 KECCAK256 ADD SLOAD PUSH1 0x40 MLOAD PUSH4 0x70A08231 PUSH1 0xE0 SHL DUP2 MSTORE ADDRESS PUSH1 0x4 DUP3 ADD MSTORE PUSH1 0x1 PUSH1 0x1 PUSH1 0xA0 SHL SUB SWAP1 SWAP2 AND SWAP3 POP DUP3 SWAP1 PUSH4 0x70A08231 SWAP1 PUSH1 0x24 ADD PUSH1 0x20 PUSH1 0x40 MLOAD DUP1 DUP4 SUB DUP2 DUP7 GAS STATICCALL ISZERO DUP1 ISZERO PUSH2 0x9F9 JUMPI RETURNDATASIZE PUSH1 0x0 DUP1 RETURNDATACOPY RETURNDATASIZE PUSH1 0x0 REVERT JUMPDEST POP POP POP POP PUSH1 0x40 MLOAD RETURNDATASIZE PUSH1 0x1F NOT PUSH1 0x1F DUP3 ADD AND DUP3 ADD DUP1 PUSH1 0x40 MSTORE POP DUP2 ADD SWAP1 PUSH2 0xA1D SWAP2 SWAP1 PUSH2 0x32C8 JUMP JUMPDEST SWAP1 POP PUSH2 0xA28 DUP3 PUSH2 0x1BB9 JUMP JUMPDEST PUSH2 0xA32 SWAP1 DUP3 PUSH2 0x330D JUMP JUMPDEST PUSH2 0xA3C SWAP1 DUP6 PUSH2 0x3324 JUMP JUMPDEST SWAP4 POP POP POP PUSH2 0xA4A DUP2 PUSH1 0x1 ADD SWAP1 JUMP JUMPDEST SWAP1 POP PUSH2 0x988 JUMP JUMPDEST POP PUSH2 0xA5C DUP4 DUP3 PUSH2 0x3337 JUMP JUMPDEST SWAP4 POP POP POP POP SWAP1 JUMP JUMPDEST PUSH1 0x1 PUSH1 0x1 PUSH1 0xA0 SHL SUB PUSH32 0x0 AND ADDRESS SUB PUSH2 0xAAC JUMPI PUSH1 0x40 MLOAD PUSH3 0x461BCD PUSH1 0xE5 SHL DUP2 MSTORE PUSH1 0x4 ADD PUSH2 0x75D SWAP1 PUSH2 0x3230 JUMP JUMPDEST PUSH32 0x0 PUSH1 0x1 PUSH1 0x1 PUSH1 0xA0 SHL SUB AND PUSH2 0xAF5 PUSH1 0x0 DUP1 MLOAD PUSH1 0x20 PUSH2 0x3623 DUP4 CODECOPY DUP2 MLOAD SWAP2 MSTORE SLOAD PUSH1 0x1 PUSH1 0x1 PUSH1 0xA0 SHL SUB AND SWAP1 JUMP JUMPDEST PUSH1 0x1 PUSH1 0x1 PUSH1 0xA0 SHL SUB AND EQ PUSH2 0xB1B JUMPI PUSH1 0x40 MLOAD PUSH3 0x461BCD PUSH1 0xE5 SHL DUP2 MSTORE PUSH1 0x4 ADD PUSH2 0x75D SWAP1 PUSH2 0x327C JUMP JUMPDEST PUSH2 0xB24 DUP3 PUSH2 0x17D2 JUMP JUMPDEST PUSH2 0xB30 DUP3 DUP3 PUSH1 0x1 PUSH2 0x17DA JUMP JUMPDEST POP POP JUMP JUMPDEST PUSH2 0xB3C PUSH2 0x1747 JUMP JUMPDEST PUSH1 0xCA DUP1 SLOAD PUSH1 0xFF NOT AND SWAP1 SSTORE JUMP JUMPDEST PUSH1 0x0 ADDRESS PUSH1 0x1 PUSH1 0x1 PUSH1 0xA0 SHL SUB PUSH32 0x0 AND EQ PUSH2 0xBE8 JUMPI PUSH1 0x40 MLOAD PUSH3 0x461BCD PUSH1 0xE5 SHL DUP2 MSTORE PUSH1 0x20 PUSH1 0x4 DUP3 ADD MSTORE PUSH1 0x38 PUSH1 0x24 DUP3 ADD MSTORE PUSH32 0x555550535570677261646561626C653A206D757374206E6F742062652063616C PUSH1 0x44 DUP3 ADD MSTORE PUSH32 0x6C6564207468726F7567682064656C656761746563616C6C0000000000000000 PUSH1 0x64 DUP3 ADD MSTORE PUSH1 0x84 ADD PUSH2 0x75D JUMP JUMPDEST POP PUSH1 0x0 DUP1 MLOAD PUSH1 0x20 PUSH2 0x3623 DUP4 CODECOPY DUP2 MLOAD SWAP2 MSTORE SWAP1 JUMP JUMPDEST PUSH2 0x6DC DUP6 DUP6 DUP6 DUP6 CALLER DUP7 PUSH2 0x1C80 JUMP JUMPDEST PUSH2 0xC17 DUP5 DUP5 DUP5 DUP5 CALLER CALLER PUSH2 0x1C80 JUMP JUMPDEST POP POP POP POP JUMP JUMPDEST PUSH2 0x6DC DUP6 DUP6 DUP6 DUP6 DUP6 CALLER CALLER PUSH2 0x1DDA JUMP JUMPDEST PUSH2 0xC34 PUSH2 0x1747 JUMP JUMPDEST PUSH1 0xCA DUP1 SLOAD PUSH1 0xFF NOT AND PUSH1 0x1 OR SWAP1 SSTORE JUMP JUMPDEST PUSH2 0xC4B PUSH2 0x1FA0 JUMP JUMPDEST PUSH1 0xCA SLOAD PUSH3 0x10000 SWAP1 DIV PUSH1 0x1 PUSH1 0x1 PUSH1 0xA0 SHL SUB AND CALLER EQ PUSH2 0xC7C JUMPI PUSH1 0x40 MLOAD PUSH4 0x1D77D477 PUSH1 0xE2 SHL DUP2 MSTORE PUSH1 0x4 ADD PUSH1 0x40 MLOAD DUP1 SWAP2 SUB SWAP1 REVERT JUMPDEST PUSH1 0xCA SLOAD PUSH1 0xFF AND PUSH2 0xC9F JUMPI PUSH1 0x40 MLOAD PUSH4 0x866099C3 PUSH1 0xE0 SHL DUP2 MSTORE PUSH1 0x4 ADD PUSH1 0x40 MLOAD DUP1 SWAP2 SUB SWAP1 REVERT JUMPDEST PUSH1 0xCA DUP1 SLOAD PUSH2 0xFF00 NOT AND PUSH2 0x100 OR SWAP1 SSTORE PUSH1 0x40 MLOAD CALLER DUP2 MSTORE PUSH32 0x62E78CEA01BEE320CD4E420270B5EA74000D11B0C9F74754EBDBFC544B05A258 SWAP1 PUSH1 0x20 ADD PUSH2 0x8C1 JUMP JUMPDEST PUSH2 0xCEE DUP8 DUP8 DUP8 DUP8 DUP8 DUP8 CALLER DUP9 PUSH2 0x10F2 JUMP JUMPDEST POP POP POP POP POP POP POP JUMP JUMPDEST PUSH2 0xCFF PUSH2 0x1747 JUMP JUMPDEST PUSH1 0x0 DUP3 PUSH1 0x1 PUSH1 0x1 PUSH1 0xA0 SHL SUB AND PUSH4 0x59E02DD7 PUSH1 0x40 MLOAD DUP2 PUSH4 0xFFFFFFFF AND PUSH1 0xE0 SHL DUP2 MSTORE PUSH1 0x4 ADD PUSH1 0x40 DUP1 MLOAD DUP1 DUP4 SUB DUP2 DUP7 GAS STATICCALL ISZERO DUP1 ISZERO PUSH2 0xD3E JUMPI RETURNDATASIZE PUSH1 0x0 DUP1 RETURNDATACOPY RETURNDATASIZE PUSH1 0x0 REVERT JUMPDEST POP POP POP POP PUSH1 0x40 MLOAD RETURNDATASIZE PUSH1 0x1F NOT PUSH1 0x1F DUP3 ADD AND DUP3 ADD DUP1 PUSH1 0x40 MSTORE POP DUP2 ADD SWAP1 PUSH2 0xD62 SWAP2 SWAP1 PUSH2 0x336E JUMP JUMPDEST SWAP2 POP POP DUP1 PUSH2 0xD83 JUMPI PUSH1 0x40 MLOAD PUSH4 0xE6C4247B PUSH1 0xE0 SHL DUP2 MSTORE PUSH1 0x4 ADD PUSH1 0x40 MLOAD DUP1 SWAP2 SUB SWAP1 REVERT JUMPDEST PUSH1 0x1 PUSH1 0x1 PUSH1 0xA0 SHL SUB DUP5 AND PUSH1 0x0 SWAP1 DUP2 MSTORE PUSH2 0x165 PUSH1 0x20 MSTORE PUSH1 0x40 SWAP1 KECCAK256 PUSH1 0x1 ADD SLOAD PUSH1 0xFF AND PUSH2 0xE68 JUMPI PUSH1 0x40 DUP1 MLOAD PUSH1 0x60 DUP2 ADD DUP3 MSTORE PUSH2 0x163 SLOAD DUP2 MSTORE PUSH1 0x1 PUSH1 0x20 DUP3 ADD MSTORE SWAP1 DUP2 ADD PUSH2 0xDCC DUP5 PUSH1 0x12 PUSH2 0x339A JUMP JUMPDEST PUSH1 0x0 SWAP1 DUP2 SIGNEXTEND SWAP1 SWAP2 MSTORE PUSH1 0x1 PUSH1 0x1 PUSH1 0xA0 SHL SUB DUP7 AND DUP1 DUP3 MSTORE PUSH2 0x165 PUSH1 0x20 SWAP1 DUP2 MSTORE PUSH1 0x40 DUP1 DUP5 KECCAK256 DUP6 MLOAD DUP2 SSTORE SWAP2 DUP6 ADD MLOAD PUSH1 0x1 SWAP3 DUP4 ADD DUP1 SLOAD SWAP7 SWAP1 SWAP3 ADD MLOAD PUSH2 0xFFFF NOT SWAP1 SWAP7 AND SWAP1 ISZERO ISZERO PUSH2 0xFF00 NOT AND OR PUSH2 0x100 PUSH1 0xFF SWAP1 SWAP7 AND SWAP6 SWAP1 SWAP6 MUL SWAP5 SWAP1 SWAP5 OR SWAP1 SWAP4 SSTORE PUSH2 0x163 DUP1 SLOAD SWAP4 DUP5 ADD DUP2 SSTORE SWAP1 SWAP2 MSTORE PUSH32 0xB0F3E90519FD0DE3100CA1A24094C0A25E5CBF467D74A2603172B5A5204555B3 SWAP1 SWAP2 ADD DUP1 SLOAD PUSH1 0x1 PUSH1 0x1 PUSH1 0xA0 SHL SUB NOT AND SWAP1 SWAP2 OR SWAP1 SSTORE JUMPDEST PUSH1 0x1 PUSH1 0x1 PUSH1 0xA0 SHL SUB DUP5 DUP2 AND PUSH1 0x0 DUP2 DUP2 MSTORE PUSH2 0x164 PUSH1 0x20 SWAP1 DUP2 MSTORE PUSH1 0x40 SWAP2 DUP3 SWAP1 KECCAK256 DUP1 SLOAD PUSH1 0x1 PUSH1 0x1 PUSH1 0xA0 SHL SUB NOT AND SWAP5 DUP9 AND SWAP5 DUP6 OR SWAP1 SSTORE SWAP1 MLOAD SWAP3 DUP4 MSTORE SWAP1 SWAP2 PUSH32 0x20D2581988316D1A188695A19393B9AE4C1C266DDF57CE57A64DB1EA06DF0F16 SWAP2 ADD PUSH1 0x40 MLOAD DUP1 SWAP2 SUB SWAP1 LOG2 POP POP POP POP JUMP JUMPDEST PUSH2 0xB30 DUP3 DUP3 PUSH1 0x0 DUP1 CALLER CALLER PUSH1 0x1 PUSH2 0x1FC9 JUMP JUMPDEST PUSH2 0x6DC DUP6 DUP6 DUP6 DUP6 CALLER DUP7 PUSH2 0x224D JUMP JUMPDEST PUSH2 0x6DC DUP6 DUP6 DUP6 DUP6 CALLER DUP7 PUSH1 0x0 PUSH2 0x1FC9 JUMP JUMPDEST PUSH2 0xC17 DUP5 DUP5 DUP5 DUP5 CALLER CALLER PUSH2 0x224D JUMP JUMPDEST PUSH2 0xC17 DUP5 DUP5 DUP5 CALLER DUP6 PUSH2 0x1A30 JUMP JUMPDEST PUSH2 0x8E7 DUP4 DUP4 DUP4 CALLER CALLER PUSH2 0x237B JUMP JUMPDEST PUSH2 0x6B6 DUP7 DUP7 DUP7 DUP7 DUP7 CALLER DUP8 PUSH2 0x1DDA JUMP JUMPDEST PUSH2 0x8E7 DUP4 DUP4 PUSH1 0x0 DUP1 CALLER DUP7 PUSH1 0x1 PUSH2 0x1FC9 JUMP JUMPDEST PUSH2 0xC17 DUP5 DUP5 DUP5 DUP5 CALLER CALLER PUSH1 0x0 PUSH2 0x1FC9 JUMP JUMPDEST PUSH2 0xF61 PUSH2 0x1747 JUMP JUMPDEST PUSH1 0x97 DUP1 SLOAD PUSH1 0x1 PUSH1 0x1 PUSH1 0xA0 SHL SUB NOT AND PUSH1 0x1 PUSH1 0x1 PUSH1 0xA0 SHL SUB SWAP3 SWAP1 SWAP3 AND SWAP2 SWAP1 SWAP2 OR SWAP1 SSTORE JUMP JUMPDEST PUSH2 0xC17 DUP5 DUP5 DUP5 CALLER DUP6 PUSH2 0x237B JUMP JUMPDEST PUSH2 0x6B6 DUP7 DUP7 DUP7 DUP7 DUP7 CALLER DUP8 PUSH2 0x1505 JUMP JUMPDEST PUSH1 0x0 SLOAD PUSH2 0x100 SWAP1 DIV PUSH1 0xFF AND ISZERO DUP1 DUP1 ISZERO PUSH2 0xFBF JUMPI POP PUSH1 0x0 SLOAD PUSH1 0x1 PUSH1 0xFF SWAP1 SWAP2 AND LT JUMPDEST DUP1 PUSH2 0xFD9 JUMPI POP ADDRESS EXTCODESIZE ISZERO DUP1 ISZERO PUSH2 0xFD9 JUMPI POP PUSH1 0x0 SLOAD PUSH1 0xFF AND PUSH1 0x1 EQ JUMPDEST PUSH2 0x103C JUMPI PUSH1 0x40 MLOAD PUSH3 0x461BCD PUSH1 0xE5 SHL DUP2 MSTORE PUSH1 0x20 PUSH1 0x4 DUP3 ADD MSTORE PUSH1 0x2E PUSH1 0x24 DUP3 ADD MSTORE PUSH32 0x496E697469616C697A61626C653A20636F6E747261637420697320616C726561 PUSH1 0x44 DUP3 ADD MSTORE PUSH14 0x191E481A5B9A5D1A585B1A5E9959 PUSH1 0x92 SHL PUSH1 0x64 DUP3 ADD MSTORE PUSH1 0x84 ADD PUSH2 0x75D JUMP JUMPDEST PUSH1 0x0 DUP1 SLOAD PUSH1 0xFF NOT AND PUSH1 0x1 OR SWAP1 SSTORE DUP1 ISZERO PUSH2 0x105F JUMPI PUSH1 0x0 DUP1 SLOAD PUSH2 0xFF00 NOT AND PUSH2 0x100 OR SWAP1 SSTORE JUMPDEST PUSH2 0x1069 DUP6 DUP6 PUSH2 0x24B5 JUMP JUMPDEST PUSH2 0x162 DUP1 SLOAD PUSH1 0x1 PUSH1 0x1 PUSH1 0xA0 SHL SUB DUP1 DUP7 AND PUSH1 0x1 PUSH1 0x1 PUSH1 0xA0 SHL SUB NOT SWAP3 DUP4 AND OR SWAP1 SWAP3 SSTORE PUSH2 0x161 DUP1 SLOAD SWAP3 DUP6 AND SWAP3 SWAP1 SWAP2 AND DUP3 OR SWAP1 SSTORE PUSH2 0x10A6 SWAP1 DUP5 PUSH1 0x0 NOT PUSH2 0x24F8 JUMP JUMPDEST DUP1 ISZERO PUSH2 0x6DC JUMPI PUSH1 0x0 DUP1 SLOAD PUSH2 0xFF00 NOT AND SWAP1 SSTORE PUSH1 0x40 MLOAD PUSH1 0x1 DUP2 MSTORE PUSH32 0x7F26B83FF96E1F2B6A682F133852F6798A09C465DA95921460CEFB3847402498 SWAP1 PUSH1 0x20 ADD PUSH1 0x40 MLOAD DUP1 SWAP2 SUB SWAP1 LOG1 POP POP POP POP POP JUMP JUMPDEST DUP8 PUSH2 0x10FC DUP2 PUSH2 0x1945 JUMP JUMPDEST PUSH2 0x1119 JUMPI PUSH1 0x40 MLOAD PUSH4 0xE6C4247B PUSH1 0xE0 SHL DUP2 MSTORE PUSH1 0x4 ADD PUSH1 0x40 MLOAD DUP1 SWAP2 SUB SWAP1 REVERT JUMPDEST PUSH1 0x0 PUSH2 0x1127 DUP11 DUP7 DUP7 ADDRESS PUSH2 0x2640 JUMP JUMPDEST PUSH2 0x162 SLOAD PUSH1 0x40 MLOAD PUSH3 0x7C6DA1 PUSH1 0xE2 SHL DUP2 MSTORE PUSH1 0x4 DUP2 ADD DUP13 SWAP1 MSTORE SWAP2 SWAP3 POP PUSH1 0x0 SWAP2 PUSH1 0x1 PUSH1 0x1 PUSH1 0xA0 SHL SUB SWAP1 SWAP2 AND SWAP1 PUSH4 0x1F1B684 SWAP1 PUSH1 0x24 ADD PUSH1 0x20 PUSH1 0x40 MLOAD DUP1 DUP4 SUB DUP2 DUP7 GAS STATICCALL ISZERO DUP1 ISZERO PUSH2 0x1176 JUMPI RETURNDATASIZE PUSH1 0x0 DUP1 RETURNDATACOPY RETURNDATASIZE PUSH1 0x0 REVERT JUMPDEST POP POP POP POP PUSH1 0x40 MLOAD RETURNDATASIZE PUSH1 0x1F NOT PUSH1 0x1F DUP3 ADD AND DUP3 ADD DUP1 PUSH1 0x40 MSTORE POP DUP2 ADD SWAP1 PUSH2 0x119A SWAP2 SWAP1 PUSH2 0x33BB JUMP JUMPDEST SWAP1 POP PUSH2 0x11A8 DUP2 DUP7 ADDRESS DUP12 PUSH2 0x26C9 JUMP JUMPDEST PUSH2 0x162 SLOAD PUSH1 0x40 MLOAD PUSH4 0xF889C53 PUSH1 0xE1 SHL DUP2 MSTORE PUSH1 0x4 DUP2 ADD DUP13 SWAP1 MSTORE PUSH1 0x24 DUP2 ADD DUP12 SWAP1 MSTORE PUSH1 0x44 DUP2 ADD DUP11 SWAP1 MSTORE PUSH1 0x64 DUP2 ADD DUP10 SWAP1 MSTORE PUSH1 0x84 DUP2 ADD DUP5 SWAP1 MSTORE PUSH1 0x1 PUSH1 0x1 PUSH1 0xA0 SHL SUB DUP7 DUP2 AND PUSH1 0xA4 DUP4 ADD MSTORE PUSH1 0x0 SWAP3 DUP4 SWAP3 SWAP2 AND SWAP1 PUSH4 0x1F1138A6 SWAP1 PUSH1 0xC4 ADD PUSH1 0x40 DUP1 MLOAD DUP1 DUP4 SUB DUP2 PUSH1 0x0 DUP8 GAS CALL ISZERO DUP1 ISZERO PUSH2 0x121B JUMPI RETURNDATASIZE PUSH1 0x0 DUP1 RETURNDATACOPY RETURNDATASIZE PUSH1 0x0 REVERT JUMPDEST POP POP POP POP PUSH1 0x40 MLOAD RETURNDATASIZE PUSH1 0x1F NOT PUSH1 0x1F DUP3 ADD AND DUP3 ADD DUP1 PUSH1 0x40 MSTORE POP DUP2 ADD SWAP1 PUSH2 0x123F SWAP2 SWAP1 PUSH2 0x33D8 JUMP JUMPDEST SWAP1 SWAP3 POP SWAP1 POP PUSH1 0x0 PUSH2 0x1250 DUP4 DUP7 PUSH2 0x33FC JUMP JUMPDEST SWAP1 POP PUSH1 0x0 PUSH2 0x1262 DUP16 DUP4 PUSH1 0x0 ADDRESS DUP14 PUSH2 0x1967 JUMP JUMPDEST SWAP1 POP PUSH1 0x0 DUP16 SWAP1 POP PUSH1 0x0 DUP16 SWAP1 POP PUSH1 0x0 DUP16 SWAP1 POP PUSH1 0x0 DUP16 SWAP1 POP PUSH1 0x0 DUP6 DUP16 PUSH2 0x1286 SWAP2 SWAP1 PUSH2 0x33FC JUMP JUMPDEST SWAP1 POP DUP13 PUSH1 0x1 PUSH1 0x1 PUSH1 0xA0 SHL SUB AND DUP15 PUSH1 0x1 PUSH1 0x1 PUSH1 0xA0 SHL SUB AND DUP6 PUSH32 0x8B0E6E8789B22FED235EA22BF1FF2085F5D51277CD17D7D4B532BD4296C59401 DUP9 DUP8 DUP8 DUP15 DUP9 PUSH1 0x40 MLOAD PUSH2 0x12FD SWAP6 SWAP5 SWAP4 SWAP3 SWAP2 SWAP1 PUSH1 0x1 PUSH1 0x1 PUSH1 0xA0 SHL SUB SWAP6 SWAP1 SWAP6 AND DUP6 MSTORE PUSH1 0x20 DUP6 ADD SWAP4 SWAP1 SWAP4 MSTORE PUSH1 0x40 DUP5 ADD SWAP2 SWAP1 SWAP2 MSTORE PUSH1 0x60 DUP4 ADD MSTORE PUSH1 0x80 DUP3 ADD MSTORE PUSH1 0xA0 ADD SWAP1 JUMP JUMPDEST PUSH1 0x40 MLOAD DUP1 SWAP2 SUB SWAP1 LOG4 POP POP POP POP POP POP POP POP POP POP POP POP POP POP POP POP POP POP POP POP JUMP JUMPDEST DUP7 PUSH2 0x1325 DUP2 PUSH2 0x1945 JUMP JUMPDEST PUSH2 0x1342 JUMPI PUSH1 0x40 MLOAD PUSH4 0xE6C4247B PUSH1 0xE0 SHL DUP2 MSTORE PUSH1 0x4 ADD PUSH1 0x40 MLOAD DUP1 SWAP2 SUB SWAP1 REVERT JUMPDEST PUSH1 0x0 PUSH2 0x1350 DUP10 DUP7 DUP7 ADDRESS PUSH2 0x2640 JUMP JUMPDEST SWAP1 POP PUSH1 0x0 PUSH2 0x162 PUSH1 0x0 SWAP1 SLOAD SWAP1 PUSH2 0x100 EXP SWAP1 DIV PUSH1 0x1 PUSH1 0x1 PUSH1 0xA0 SHL SUB AND PUSH1 0x1 PUSH1 0x1 PUSH1 0xA0 SHL SUB AND PUSH4 0x60009E0B PUSH1 0x40 MLOAD DUP2 PUSH4 0xFFFFFFFF AND PUSH1 0xE0 SHL DUP2 MSTORE PUSH1 0x4 ADD PUSH1 0x20 PUSH1 0x40 MLOAD DUP1 DUP4 SUB DUP2 DUP7 GAS STATICCALL ISZERO DUP1 ISZERO PUSH2 0x13A8 JUMPI RETURNDATASIZE PUSH1 0x0 DUP1 RETURNDATACOPY RETURNDATASIZE PUSH1 0x0 REVERT JUMPDEST POP POP POP POP PUSH1 0x40 MLOAD RETURNDATASIZE PUSH1 0x1F NOT PUSH1 0x1F DUP3 ADD AND DUP3 ADD DUP1 PUSH1 0x40 MSTORE POP DUP2 ADD SWAP1 PUSH2 0x13CC SWAP2 SWAP1 PUSH2 0x33BB JUMP JUMPDEST SWAP1 POP PUSH2 0x13DA DUP2 DUP7 ADDRESS DUP12 PUSH2 0x26C9 JUMP JUMPDEST PUSH2 0x162 SLOAD PUSH1 0x40 MLOAD PUSH3 0x737B67 PUSH1 0xE2 SHL DUP2 MSTORE PUSH1 0x4 DUP2 ADD DUP12 SWAP1 MSTORE PUSH1 0x24 DUP2 ADD DUP11 SWAP1 MSTORE PUSH1 0x44 DUP2 ADD DUP10 SWAP1 MSTORE PUSH1 0x64 DUP2 ADD DUP5 SWAP1 MSTORE PUSH1 0x1 PUSH1 0x1 PUSH1 0xA0 SHL SUB DUP7 DUP2 AND PUSH1 0x84 DUP4 ADD MSTORE PUSH1 0x0 SWAP3 DUP4 SWAP3 SWAP2 AND SWAP1 PUSH4 0x1CDED9C SWAP1 PUSH1 0xA4 ADD PUSH1 0x40 DUP1 MLOAD DUP1 DUP4 SUB DUP2 PUSH1 0x0 DUP8 GAS CALL ISZERO DUP1 ISZERO PUSH2 0x1445 JUMPI RETURNDATASIZE PUSH1 0x0 DUP1 RETURNDATACOPY RETURNDATASIZE PUSH1 0x0 REVERT JUMPDEST POP POP POP POP PUSH1 0x40 MLOAD RETURNDATASIZE PUSH1 0x1F NOT PUSH1 0x1F DUP3 ADD AND DUP3 ADD DUP1 PUSH1 0x40 MSTORE POP DUP2 ADD SWAP1 PUSH2 0x1469 SWAP2 SWAP1 PUSH2 0x33D8 JUMP JUMPDEST SWAP1 SWAP3 POP SWAP1 POP PUSH1 0x0 PUSH2 0x147A DUP4 DUP7 PUSH2 0x33FC JUMP JUMPDEST SWAP1 POP PUSH1 0x0 PUSH2 0x148C DUP15 DUP4 PUSH1 0x0 ADDRESS DUP14 PUSH2 0x1967 JUMP JUMPDEST SWAP1 POP DUP14 DUP14 DUP14 PUSH1 0x0 PUSH2 0x149D DUP6 DUP16 PUSH2 0x33FC JUMP JUMPDEST SWAP1 POP DUP12 PUSH1 0x1 PUSH1 0x1 PUSH1 0xA0 SHL SUB AND DUP14 PUSH1 0x1 PUSH1 0x1 PUSH1 0xA0 SHL SUB AND DUP5 PUSH32 0x2B431B3DDA86C3D03FF399B5BADA914145A869EB3F7EBFEFA094DDFE99C0C4A1 DUP8 DUP7 DUP13 DUP8 PUSH1 0x40 MLOAD PUSH2 0x14E9 SWAP5 SWAP4 SWAP3 SWAP2 SWAP1 PUSH2 0x340F JUMP JUMPDEST PUSH1 0x40 MLOAD DUP1 SWAP2 SUB SWAP1 LOG4 POP POP POP POP POP POP POP POP POP POP POP POP POP POP POP POP POP POP JUMP JUMPDEST DUP7 PUSH2 0x150F DUP2 PUSH2 0x1945 JUMP JUMPDEST PUSH2 0x152C JUMPI PUSH1 0x40 MLOAD PUSH4 0xE6C4247B PUSH1 0xE0 SHL DUP2 MSTORE PUSH1 0x4 ADD PUSH1 0x40 MLOAD DUP1 SWAP2 SUB SWAP1 REVERT JUMPDEST PUSH2 0x162 SLOAD PUSH1 0x40 DUP1 MLOAD PUSH4 0x60009E0B PUSH1 0xE0 SHL DUP2 MSTORE SWAP1 MLOAD PUSH1 0x0 SWAP3 PUSH1 0x1 PUSH1 0x1 PUSH1 0xA0 SHL SUB AND SWAP2 PUSH4 0x60009E0B SWAP2 PUSH1 0x4 DUP1 DUP4 ADD SWAP3 PUSH1 0x20 SWAP3 SWAP2 SWAP1 DUP3 SWAP1 SUB ADD DUP2 DUP7 GAS STATICCALL ISZERO DUP1 ISZERO PUSH2 0x1577 JUMPI RETURNDATASIZE PUSH1 0x0 DUP1 RETURNDATACOPY RETURNDATASIZE PUSH1 0x0 REVERT JUMPDEST POP POP POP POP PUSH1 0x40 MLOAD RETURNDATASIZE PUSH1 0x1F NOT PUSH1 0x1F DUP3 ADD AND DUP3 ADD DUP1 PUSH1 0x40 MSTORE POP DUP2 ADD SWAP1 PUSH2 0x159B SWAP2 SWAP1 PUSH2 0x33BB JUMP JUMPDEST PUSH2 0x162 SLOAD PUSH1 0x40 MLOAD PUSH3 0x7C6DA1 PUSH1 0xE2 SHL DUP2 MSTORE PUSH1 0x4 DUP2 ADD DUP12 SWAP1 MSTORE SWAP2 SWAP3 POP PUSH1 0x0 SWAP2 PUSH1 0x1 PUSH1 0x1 PUSH1 0xA0 SHL SUB SWAP1 SWAP2 AND SWAP1 PUSH4 0x1F1B684 SWAP1 PUSH1 0x24 ADD PUSH1 0x20 PUSH1 0x40 MLOAD DUP1 DUP4 SUB DUP2 DUP7 GAS STATICCALL ISZERO DUP1 ISZERO PUSH2 0x15EA JUMPI RETURNDATASIZE PUSH1 0x0 DUP1 RETURNDATACOPY RETURNDATASIZE PUSH1 0x0 REVERT JUMPDEST POP POP POP POP PUSH1 0x40 MLOAD RETURNDATASIZE PUSH1 0x1F NOT PUSH1 0x1F DUP3 ADD AND DUP3 ADD DUP1 PUSH1 0x40 MSTORE POP DUP2 ADD SWAP1 PUSH2 0x160E SWAP2 SWAP1 PUSH2 0x33BB JUMP JUMPDEST SWAP1 POP PUSH2 0x161C DUP3 DUP7 ADDRESS DUP12 PUSH2 0x26C9 JUMP JUMPDEST PUSH2 0x1628 DUP2 DUP7 ADDRESS DUP11 PUSH2 0x26C9 JUMP JUMPDEST PUSH2 0x162 SLOAD PUSH1 0x40 MLOAD PUSH4 0x17574BC5 PUSH1 0xE0 SHL DUP2 MSTORE PUSH1 0x4 DUP2 ADD DUP12 SWAP1 MSTORE PUSH1 0x24 DUP2 ADD DUP11 SWAP1 MSTORE PUSH1 0x44 DUP2 ADD DUP10 SWAP1 MSTORE PUSH1 0x0 PUSH1 0x64 DUP3 ADD DUP2 SWAP1 MSTORE SWAP2 DUP3 SWAP2 PUSH1 0x1 PUSH1 0x1 PUSH1 0xA0 SHL SUB SWAP1 SWAP2 AND SWAP1 PUSH4 0x17574BC5 SWAP1 PUSH1 0x84 ADD PUSH1 0x40 DUP1 MLOAD DUP1 DUP4 SUB DUP2 PUSH1 0x0 DUP8 GAS CALL ISZERO DUP1 ISZERO PUSH2 0x168D JUMPI RETURNDATASIZE PUSH1 0x0 DUP1 RETURNDATACOPY RETURNDATASIZE PUSH1 0x0 REVERT JUMPDEST POP POP POP POP PUSH1 0x40 MLOAD RETURNDATASIZE PUSH1 0x1F NOT PUSH1 0x1F DUP3 ADD AND DUP3 ADD DUP1 PUSH1 0x40 MSTORE POP DUP2 ADD SWAP1 PUSH2 0x16B1 SWAP2 SWAP1 PUSH2 0x33D8 JUMP JUMPDEST SWAP2 POP SWAP2 POP PUSH1 0x0 PUSH2 0x16C4 DUP14 DUP5 DUP12 ADDRESS DUP12 PUSH2 0x1967 JUMP JUMPDEST SWAP1 POP PUSH2 0x16DA DUP5 DUP10 PUSH2 0x16D5 DUP6 DUP15 PUSH2 0x33FC JUMP JUMPDEST PUSH2 0x2701 JUMP JUMPDEST PUSH1 0x0 DUP14 SWAP1 POP PUSH1 0x0 DUP13 SWAP1 POP DUP9 PUSH1 0x1 PUSH1 0x1 PUSH1 0xA0 SHL SUB AND DUP11 PUSH1 0x1 PUSH1 0x1 PUSH1 0xA0 SHL SUB AND DUP16 PUSH32 0xEF4F73043E566578C766F5060597F325DCB82E894199F25BF03E1506BEEDFA08 DUP6 DUP6 DUP10 DUP10 PUSH1 0x40 MLOAD PUSH2 0x172E SWAP5 SWAP4 SWAP3 SWAP2 SWAP1 PUSH2 0x340F JUMP JUMPDEST PUSH1 0x40 MLOAD DUP1 SWAP2 SUB SWAP1 LOG4 POP POP POP POP POP POP POP POP POP POP POP POP POP POP POP JUMP JUMPDEST PUSH1 0x97 SLOAD PUSH1 0x40 MLOAD PUSH4 0xD994D6D5 PUSH1 0xE0 SHL DUP2 MSTORE CALLER PUSH1 0x4 DUP3 ADD MSTORE PUSH1 0x1 PUSH1 0x1 PUSH1 0xA0 SHL SUB SWAP1 SWAP2 AND SWAP1 PUSH4 0xD994D6D5 SWAP1 PUSH1 0x24 ADD PUSH1 0x20 PUSH1 0x40 MLOAD DUP1 DUP4 SUB DUP2 DUP7 GAS STATICCALL ISZERO DUP1 ISZERO PUSH2 0x178F JUMPI RETURNDATASIZE PUSH1 0x0 DUP1 RETURNDATACOPY RETURNDATASIZE PUSH1 0x0 REVERT JUMPDEST POP POP POP POP PUSH1 0x40 MLOAD RETURNDATASIZE PUSH1 0x1F NOT PUSH1 0x1F DUP3 ADD AND DUP3 ADD DUP1 PUSH1 0x40 MSTORE POP DUP2 ADD SWAP1 PUSH2 0x17B3 SWAP2 SWAP1 PUSH2 0x3435 JUMP JUMPDEST PUSH2 0x17D0 JUMPI PUSH1 0x40 MLOAD PUSH4 0x1DD1B1B5 PUSH1 0xE2 SHL DUP2 MSTORE PUSH1 0x4 ADD PUSH1 0x40 MLOAD DUP1 SWAP2 SUB SWAP1 REVERT JUMPDEST JUMP JUMPDEST PUSH2 0x7FA PUSH2 0x1747 JUMP JUMPDEST PUSH32 0x4910FDFA16FED3260ED0E7147F7CC6DA11A60208B5B9406D12A635614FFD9143 SLOAD PUSH1 0xFF AND ISZERO PUSH2 0x180D JUMPI PUSH2 0x8E7 DUP4 PUSH2 0x2731 JUMP JUMPDEST DUP3 PUSH1 0x1 PUSH1 0x1 PUSH1 0xA0 SHL SUB AND PUSH4 0x52D1902D PUSH1 0x40 MLOAD DUP2 PUSH4 0xFFFFFFFF AND PUSH1 0xE0 SHL DUP2 MSTORE PUSH1 0x4 ADD PUSH1 0x20 PUSH1 0x40 MLOAD DUP1 DUP4 SUB DUP2 DUP7 GAS STATICCALL SWAP3 POP POP POP DUP1 ISZERO PUSH2 0x1867 JUMPI POP PUSH1 0x40 DUP1 MLOAD PUSH1 0x1F RETURNDATASIZE SWAP1 DUP2 ADD PUSH1 0x1F NOT AND DUP3 ADD SWAP1 SWAP3 MSTORE PUSH2 0x1864 SWAP2 DUP2 ADD SWAP1 PUSH2 0x32C8 JUMP JUMPDEST PUSH1 0x1 JUMPDEST PUSH2 0x18CA JUMPI PUSH1 0x40 MLOAD PUSH3 0x461BCD PUSH1 0xE5 SHL DUP2 MSTORE PUSH1 0x20 PUSH1 0x4 DUP3 ADD MSTORE PUSH1 0x2E PUSH1 0x24 DUP3 ADD MSTORE PUSH32 0x45524331393637557067726164653A206E657720696D706C656D656E74617469 PUSH1 0x44 DUP3 ADD MSTORE PUSH14 0x6F6E206973206E6F742055555053 PUSH1 0x90 SHL PUSH1 0x64 DUP3 ADD MSTORE PUSH1 0x84 ADD PUSH2 0x75D JUMP JUMPDEST PUSH1 0x0 DUP1 MLOAD PUSH1 0x20 PUSH2 0x3623 DUP4 CODECOPY DUP2 MLOAD SWAP2 MSTORE DUP2 EQ PUSH2 0x1939 JUMPI PUSH1 0x40 MLOAD PUSH3 0x461BCD PUSH1 0xE5 SHL DUP2 MSTORE PUSH1 0x20 PUSH1 0x4 DUP3 ADD MSTORE PUSH1 0x29 PUSH1 0x24 DUP3 ADD MSTORE PUSH32 0x45524331393637557067726164653A20756E737570706F727465642070726F78 PUSH1 0x44 DUP3 ADD MSTORE PUSH9 0x1A58589B1955555251 PUSH1 0xBA SHL PUSH1 0x64 DUP3 ADD MSTORE PUSH1 0x84 ADD PUSH2 0x75D JUMP JUMPDEST POP PUSH2 0x8E7 DUP4 DUP4 DUP4 PUSH2 0x27CD JUMP JUMPDEST PUSH1 0x1 PUSH1 0x1 PUSH1 0xA0 SHL SUB AND PUSH1 0x0 SWAP1 DUP2 MSTORE PUSH2 0x165 PUSH1 0x20 MSTORE PUSH1 0x40 SWAP1 KECCAK256 PUSH1 0x1 ADD SLOAD PUSH1 0xFF AND SWAP1 JUMP JUMPDEST PUSH1 0x0 PUSH2 0x1971 PUSH2 0x27F2 JUMP JUMPDEST PUSH2 0x197B DUP7 DUP7 PUSH2 0x284D JUMP JUMPDEST SWAP6 POP SWAP1 POP DUP4 DUP2 LT ISZERO PUSH2 0x19AA JUMPI PUSH1 0x40 MLOAD PUSH4 0x54CDE313 PUSH1 0xE0 SHL DUP2 MSTORE PUSH1 0x4 DUP2 ADD DUP6 SWAP1 MSTORE PUSH1 0x24 DUP2 ADD DUP3 SWAP1 MSTORE PUSH1 0x44 ADD PUSH2 0x75D JUMP JUMPDEST PUSH2 0x161 SLOAD PUSH1 0x40 MLOAD PUSH4 0x2770A7EB PUSH1 0xE2 SHL DUP2 MSTORE PUSH1 0x1 PUSH1 0x1 PUSH1 0xA0 SHL SUB DUP6 DUP2 AND PUSH1 0x4 DUP4 ADD MSTORE PUSH1 0x24 DUP3 ADD DUP9 SWAP1 MSTORE SWAP1 SWAP2 AND SWAP1 PUSH4 0x9DC29FAC SWAP1 PUSH1 0x44 ADD PUSH1 0x0 PUSH1 0x40 MLOAD DUP1 DUP4 SUB DUP2 PUSH1 0x0 DUP8 DUP1 EXTCODESIZE ISZERO DUP1 ISZERO PUSH2 0x19F9 JUMPI PUSH1 0x0 DUP1 REVERT JUMPDEST POP GAS CALL ISZERO DUP1 ISZERO PUSH2 0x1A0D JUMPI RETURNDATASIZE PUSH1 0x0 DUP1 RETURNDATACOPY RETURNDATASIZE PUSH1 0x0 REVERT JUMPDEST POP POP POP POP PUSH2 0x1A1C DUP7 DUP4 DUP4 PUSH2 0x2701 JUMP JUMPDEST PUSH2 0x1A27 PUSH1 0x1 PUSH2 0x12F SSTORE JUMP JUMPDEST SWAP6 SWAP5 POP POP POP POP POP JUMP JUMPDEST DUP5 PUSH2 0x1A3A DUP2 PUSH2 0x1945 JUMP JUMPDEST PUSH2 0x1A57 JUMPI PUSH1 0x40 MLOAD PUSH4 0xE6C4247B PUSH1 0xE0 SHL DUP2 MSTORE PUSH1 0x4 ADD PUSH1 0x40 MLOAD DUP1 SWAP2 SUB SWAP1 REVERT JUMPDEST PUSH2 0x162 SLOAD PUSH1 0x40 DUP1 MLOAD PUSH4 0x60009E0B PUSH1 0xE0 SHL DUP2 MSTORE SWAP1 MLOAD PUSH1 0x0 SWAP3 PUSH1 0x1 PUSH1 0x1 PUSH1 0xA0 SHL SUB AND SWAP2 PUSH4 0x60009E0B SWAP2 PUSH1 0x4 DUP1 DUP4 ADD SWAP3 PUSH1 0x20 SWAP3 SWAP2 SWAP1 DUP3 SWAP1 SUB ADD DUP2 DUP7 GAS STATICCALL ISZERO DUP1 ISZERO PUSH2 0x1AA2 JUMPI RETURNDATASIZE PUSH1 0x0 DUP1 RETURNDATACOPY RETURNDATASIZE PUSH1 0x0 REVERT JUMPDEST POP POP POP POP PUSH1 0x40 MLOAD RETURNDATASIZE PUSH1 0x1F NOT PUSH1 0x1F DUP3 ADD AND DUP3 ADD DUP1 PUSH1 0x40 MSTORE POP DUP2 ADD SWAP1 PUSH2 0x1AC6 SWAP2 SWAP1 PUSH2 0x33BB JUMP JUMPDEST SWAP1 POP PUSH2 0x1AD4 DUP2 DUP6 ADDRESS DUP10 PUSH2 0x26C9 JUMP JUMPDEST PUSH2 0x162 SLOAD PUSH1 0x40 MLOAD PUSH4 0x9ABB14C9 PUSH1 0xE0 SHL DUP2 MSTORE PUSH1 0x4 DUP2 ADD DUP9 SWAP1 MSTORE PUSH1 0x0 PUSH1 0x24 DUP3 ADD DUP2 SWAP1 MSTORE SWAP2 PUSH1 0x1 PUSH1 0x1 PUSH1 0xA0 SHL SUB AND SWAP1 PUSH4 0x9ABB14C9 SWAP1 PUSH1 0x44 ADD PUSH1 0x20 PUSH1 0x40 MLOAD DUP1 DUP4 SUB DUP2 PUSH1 0x0 DUP8 GAS CALL ISZERO DUP1 ISZERO PUSH2 0x1B28 JUMPI RETURNDATASIZE PUSH1 0x0 DUP1 RETURNDATACOPY RETURNDATASIZE PUSH1 0x0 REVERT JUMPDEST POP POP POP POP PUSH1 0x40 MLOAD RETURNDATASIZE PUSH1 0x1F NOT PUSH1 0x1F DUP3 ADD AND DUP3 ADD DUP1 PUSH1 0x40 MSTORE POP DUP2 ADD SWAP1 PUSH2 0x1B4C SWAP2 SWAP1 PUSH2 0x32C8 JUMP JUMPDEST SWAP1 POP PUSH1 0x0 PUSH2 0x1B5D DUP10 DUP4 DUP10 ADDRESS DUP10 PUSH2 0x1967 JUMP JUMPDEST SWAP1 POP DUP5 PUSH1 0x1 PUSH1 0x1 PUSH1 0xA0 SHL SUB AND DUP7 PUSH1 0x1 PUSH1 0x1 PUSH1 0xA0 SHL SUB AND PUSH32 0xC0A29F7E47448A817F6AAB7D6420E2B5AEBBE7B1B2EFB161C8F94FF6C5112F1A DUP12 DUP12 DUP6 PUSH1 0x40 MLOAD PUSH2 0x1BA6 SWAP4 SWAP3 SWAP2 SWAP1 PUSH2 0x3450 JUMP JUMPDEST PUSH1 0x40 MLOAD DUP1 SWAP2 SUB SWAP1 LOG3 POP POP POP POP POP POP POP POP POP JUMP JUMPDEST PUSH1 0x1 PUSH1 0x1 PUSH1 0xA0 SHL SUB DUP1 DUP3 AND PUSH1 0x0 SWAP1 DUP2 MSTORE PUSH2 0x164 PUSH1 0x20 MSTORE PUSH1 0x40 DUP1 DUP3 KECCAK256 SLOAD DUP2 MLOAD PUSH4 0x59E02DD7 PUSH1 0xE0 SHL DUP2 MSTORE DUP3 MLOAD SWAP4 SWAP5 DUP6 SWAP5 DUP6 SWAP5 SWAP4 SWAP1 SWAP2 AND SWAP3 PUSH4 0x59E02DD7 SWAP3 PUSH1 0x4 DUP1 DUP3 ADD SWAP4 SWAP2 DUP3 SWAP1 SUB ADD DUP2 DUP7 GAS STATICCALL ISZERO DUP1 ISZERO PUSH2 0x1C14 JUMPI RETURNDATASIZE PUSH1 0x0 DUP1 RETURNDATACOPY RETURNDATASIZE PUSH1 0x0 REVERT JUMPDEST POP POP POP POP PUSH1 0x40 MLOAD RETURNDATASIZE PUSH1 0x1F NOT PUSH1 0x1F DUP3 ADD AND DUP3 ADD DUP1 PUSH1 0x40 MSTORE POP DUP2 ADD SWAP1 PUSH2 0x1C38 SWAP2 SWAP1 PUSH2 0x336E JUMP JUMPDEST SWAP2 POP SWAP2 POP DUP1 PUSH2 0x1C79 JUMPI PUSH1 0x1 PUSH1 0x1 PUSH1 0xA0 SHL SUB DUP5 DUP2 AND PUSH1 0x0 SWAP1 DUP2 MSTORE PUSH2 0x164 PUSH1 0x20 MSTORE PUSH1 0x40 SWAP1 DUP2 SWAP1 KECCAK256 SLOAD SWAP1 MLOAD PUSH4 0xDE4F3A0F PUSH1 0xE0 SHL DUP2 MSTORE SWAP2 AND PUSH1 0x4 DUP3 ADD MSTORE PUSH1 0x24 ADD PUSH2 0x75D JUMP JUMPDEST POP SWAP3 SWAP2 POP POP JUMP JUMPDEST DUP6 PUSH2 0x1C8A DUP2 PUSH2 0x1945 JUMP JUMPDEST PUSH2 0x1CA7 JUMPI PUSH1 0x40 MLOAD PUSH4 0xE6C4247B PUSH1 0xE0 SHL DUP2 MSTORE PUSH1 0x4 ADD PUSH1 0x40 MLOAD DUP1 SWAP2 SUB SWAP1 REVERT JUMPDEST PUSH1 0x0 PUSH2 0x1CB5 DUP9 DUP7 DUP7 ADDRESS PUSH2 0x2640 JUMP JUMPDEST PUSH2 0x162 SLOAD PUSH1 0x40 MLOAD PUSH4 0xD44DC79 PUSH1 0xE1 SHL DUP2 MSTORE PUSH1 0x4 DUP2 ADD DUP11 SWAP1 MSTORE PUSH1 0x24 DUP2 ADD DUP10 SWAP1 MSTORE PUSH1 0x44 DUP2 ADD DUP4 SWAP1 MSTORE PUSH1 0x1 PUSH1 0x1 PUSH1 0xA0 SHL SUB DUP7 DUP2 AND PUSH1 0x64 DUP4 ADD MSTORE SWAP3 SWAP4 POP PUSH1 0x0 SWAP3 DUP4 SWAP3 AND SWAP1 PUSH4 0x1A89B8F2 SWAP1 PUSH1 0x84 ADD PUSH1 0x40 DUP1 MLOAD DUP1 DUP4 SUB DUP2 PUSH1 0x0 DUP8 GAS CALL ISZERO DUP1 ISZERO PUSH2 0x1D1C JUMPI RETURNDATASIZE PUSH1 0x0 DUP1 RETURNDATACOPY RETURNDATASIZE PUSH1 0x0 REVERT JUMPDEST POP POP POP POP PUSH1 0x40 MLOAD RETURNDATASIZE PUSH1 0x1F NOT PUSH1 0x1F DUP3 ADD AND DUP3 ADD DUP1 PUSH1 0x40 MSTORE POP DUP2 ADD SWAP1 PUSH2 0x1D40 SWAP2 SWAP1 PUSH2 0x33D8 JUMP JUMPDEST SWAP1 SWAP3 POP SWAP1 POP PUSH1 0x0 PUSH2 0x1D51 DUP4 DUP6 PUSH2 0x33FC JUMP JUMPDEST SWAP1 POP PUSH1 0x0 PUSH2 0x1D63 DUP13 DUP4 PUSH1 0x0 ADDRESS DUP13 PUSH2 0x1967 JUMP JUMPDEST SWAP1 POP DUP12 DUP12 DUP12 PUSH1 0x0 PUSH2 0x1D74 DUP6 DUP15 PUSH2 0x33FC JUMP JUMPDEST SWAP1 POP DUP11 PUSH1 0x1 PUSH1 0x1 PUSH1 0xA0 SHL SUB AND DUP13 PUSH1 0x1 PUSH1 0x1 PUSH1 0xA0 SHL SUB AND DUP5 PUSH32 0x1561C24CD3F8AD463CA4FF624E29C93575D86A34004F6848ABCF37684E2BA601 DUP8 DUP12 DUP8 DUP8 PUSH1 0x40 MLOAD PUSH2 0x1DC0 SWAP5 SWAP4 SWAP3 SWAP2 SWAP1 PUSH2 0x340F JUMP JUMPDEST PUSH1 0x40 MLOAD DUP1 SWAP2 SUB SWAP1 LOG4 POP POP POP POP POP POP POP POP POP POP POP POP POP POP POP POP JUMP JUMPDEST DUP7 PUSH2 0x1DE4 DUP2 PUSH2 0x1945 JUMP JUMPDEST PUSH2 0x1E01 JUMPI PUSH1 0x40 MLOAD PUSH4 0xE6C4247B PUSH1 0xE0 SHL DUP2 MSTORE PUSH1 0x4 ADD PUSH1 0x40 MLOAD DUP1 SWAP2 SUB SWAP1 REVERT JUMPDEST PUSH1 0x0 PUSH2 0x1E0F DUP10 DUP7 DUP7 ADDRESS PUSH2 0x2640 JUMP JUMPDEST PUSH2 0x162 SLOAD PUSH1 0x40 MLOAD PUSH3 0x7C6DA1 PUSH1 0xE2 SHL DUP2 MSTORE PUSH1 0x4 DUP2 ADD DUP12 SWAP1 MSTORE SWAP2 SWAP3 POP PUSH1 0x0 SWAP2 PUSH1 0x1 PUSH1 0x1 PUSH1 0xA0 SHL SUB SWAP1 SWAP2 AND SWAP1 PUSH4 0x1F1B684 SWAP1 PUSH1 0x24 ADD PUSH1 0x20 PUSH1 0x40 MLOAD DUP1 DUP4 SUB DUP2 DUP7 GAS STATICCALL ISZERO DUP1 ISZERO PUSH2 0x1E5E JUMPI RETURNDATASIZE PUSH1 0x0 DUP1 RETURNDATACOPY RETURNDATASIZE PUSH1 0x0 REVERT JUMPDEST POP POP POP POP PUSH1 0x40 MLOAD RETURNDATASIZE PUSH1 0x1F NOT PUSH1 0x1F DUP3 ADD AND DUP3 ADD DUP1 PUSH1 0x40 MSTORE POP DUP2 ADD SWAP1 PUSH2 0x1E82 SWAP2 SWAP1 PUSH2 0x33BB JUMP JUMPDEST SWAP1 POP PUSH2 0x1E90 DUP2 DUP7 ADDRESS DUP12 PUSH2 0x26C9 JUMP JUMPDEST PUSH2 0x162 SLOAD PUSH1 0x40 MLOAD PUSH4 0x4454AE8B PUSH1 0xE0 SHL DUP2 MSTORE PUSH1 0x4 DUP2 ADD DUP12 SWAP1 MSTORE PUSH1 0x24 DUP2 ADD DUP11 SWAP1 MSTORE PUSH1 0x44 DUP2 ADD DUP10 SWAP1 MSTORE PUSH1 0x64 DUP2 ADD DUP5 SWAP1 MSTORE PUSH1 0x1 PUSH1 0x1 PUSH1 0xA0 SHL SUB DUP7 DUP2 AND PUSH1 0x84 DUP4 ADD MSTORE PUSH1 0x0 SWAP3 DUP4 SWAP3 SWAP2 AND SWAP1 PUSH4 0x4454AE8B SWAP1 PUSH1 0xA4 ADD PUSH1 0x40 DUP1 MLOAD DUP1 DUP4 SUB DUP2 PUSH1 0x0 DUP8 GAS CALL ISZERO DUP1 ISZERO PUSH2 0x1EFC JUMPI RETURNDATASIZE PUSH1 0x0 DUP1 RETURNDATACOPY RETURNDATASIZE PUSH1 0x0 REVERT JUMPDEST POP POP POP POP PUSH1 0x40 MLOAD RETURNDATASIZE PUSH1 0x1F NOT PUSH1 0x1F DUP3 ADD AND DUP3 ADD DUP1 PUSH1 0x40 MSTORE POP DUP2 ADD SWAP1 PUSH2 0x1F20 SWAP2 SWAP1 PUSH2 0x33D8 JUMP JUMPDEST SWAP1 SWAP3 POP SWAP1 POP PUSH1 0x0 PUSH2 0x1F31 DUP4 DUP7 PUSH2 0x33FC JUMP JUMPDEST SWAP1 POP PUSH1 0x0 PUSH2 0x1F43 DUP15 DUP4 PUSH1 0x0 ADDRESS DUP14 PUSH2 0x1967 JUMP JUMPDEST SWAP1 POP DUP14 DUP14 DUP14 PUSH1 0x0 PUSH2 0x1F54 DUP6 DUP16 PUSH2 0x33FC JUMP JUMPDEST SWAP1 POP DUP12 PUSH1 0x1 PUSH1 0x1 PUSH1 0xA0 SHL SUB AND DUP14 PUSH1 0x1 PUSH1 0x1 PUSH1 0xA0 SHL SUB AND DUP5 PUSH32 0xD2E2E0C1053BAE3647488C151FB84B114C8432E6E9FF648822B045F54E836BF8 DUP8 DUP7 DUP13 DUP8 PUSH1 0x40 MLOAD PUSH2 0x14E9 SWAP5 SWAP4 SWAP3 SWAP2 SWAP1 PUSH2 0x340F JUMP JUMPDEST PUSH1 0xCA SLOAD PUSH2 0x100 SWAP1 DIV PUSH1 0xFF AND ISZERO PUSH2 0x17D0 JUMPI PUSH1 0x40 MLOAD PUSH4 0x783BB6C9 PUSH1 0xE1 SHL DUP2 MSTORE PUSH1 0x4 ADD PUSH1 0x40 MLOAD DUP1 SWAP2 SUB SWAP1 REVERT JUMPDEST DUP7 PUSH2 0x1FD3 DUP2 PUSH2 0x1945 JUMP JUMPDEST PUSH2 0x1FF0 JUMPI PUSH1 0x40 MLOAD PUSH4 0xE6C4247B PUSH1 0xE0 SHL DUP2 MSTORE PUSH1 0x4 ADD PUSH1 0x40 MLOAD DUP1 SWAP2 SUB SWAP1 REVERT JUMPDEST PUSH2 0x162 SLOAD PUSH1 0x40 MLOAD PUSH3 0x7C6DA1 PUSH1 0xE2 SHL DUP2 MSTORE PUSH1 0x4 DUP2 ADD DUP10 SWAP1 MSTORE PUSH1 0x0 SWAP2 PUSH1 0x1 PUSH1 0x1 PUSH1 0xA0 SHL SUB AND SWAP1 PUSH4 0x1F1B684 SWAP1 PUSH1 0x24 ADD PUSH1 0x20 PUSH1 0x40 MLOAD DUP1 DUP4 SUB DUP2 DUP7 GAS STATICCALL ISZERO DUP1 ISZERO PUSH2 0x203A JUMPI RETURNDATASIZE PUSH1 0x0 DUP1 RETURNDATACOPY RETURNDATASIZE PUSH1 0x0 REVERT JUMPDEST POP POP POP POP PUSH1 0x40 MLOAD RETURNDATASIZE PUSH1 0x1F NOT PUSH1 0x1F DUP3 ADD AND DUP3 ADD DUP1 PUSH1 0x40 MSTORE POP DUP2 ADD SWAP1 PUSH2 0x205E SWAP2 SWAP1 PUSH2 0x33BB JUMP JUMPDEST SWAP1 POP DUP3 ISZERO PUSH2 0x20D3 JUMPI PUSH1 0x40 MLOAD PUSH4 0x70A08231 PUSH1 0xE0 SHL DUP2 MSTORE PUSH1 0x1 PUSH1 0x1 PUSH1 0xA0 SHL SUB DUP7 DUP2 AND PUSH1 0x4 DUP4 ADD MSTORE DUP3 AND SWAP1 PUSH4 0x70A08231 SWAP1 PUSH1 0x24 ADD PUSH1 0x20 PUSH1 0x40 MLOAD DUP1 DUP4 SUB DUP2 DUP7 GAS STATICCALL ISZERO DUP1 ISZERO PUSH2 0x20AC JUMPI RETURNDATASIZE PUSH1 0x0 DUP1 RETURNDATACOPY RETURNDATASIZE PUSH1 0x0 REVERT JUMPDEST POP POP POP POP PUSH1 0x40 MLOAD RETURNDATASIZE PUSH1 0x1F NOT PUSH1 0x1F DUP3 ADD AND DUP3 ADD DUP1 PUSH1 0x40 MSTORE POP DUP2 ADD SWAP1 PUSH2 0x20D0 SWAP2 SWAP1 PUSH2 0x32C8 JUMP JUMPDEST SWAP7 POP JUMPDEST PUSH2 0x20DF DUP2 DUP7 ADDRESS DUP11 PUSH2 0x26C9 JUMP JUMPDEST PUSH1 0x0 DUP4 ISZERO PUSH2 0x215E JUMPI PUSH2 0x162 SLOAD PUSH1 0x40 MLOAD PUSH4 0x9195C85B PUSH1 0xE0 SHL DUP2 MSTORE PUSH1 0x4 DUP2 ADD DUP12 SWAP1 MSTORE PUSH1 0x1 PUSH1 0x1 PUSH1 0xA0 SHL SUB SWAP1 SWAP2 AND SWAP1 PUSH4 0x9195C85B SWAP1 PUSH1 0x24 ADD PUSH1 0x20 PUSH1 0x40 MLOAD DUP1 DUP4 SUB DUP2 PUSH1 0x0 DUP8 GAS CALL ISZERO DUP1 ISZERO PUSH2 0x2133 JUMPI RETURNDATASIZE PUSH1 0x0 DUP1 RETURNDATACOPY RETURNDATASIZE PUSH1 0x0 REVERT JUMPDEST POP POP POP POP PUSH1 0x40 MLOAD RETURNDATASIZE PUSH1 0x1F NOT PUSH1 0x1F DUP3 ADD AND DUP3 ADD DUP1 PUSH1 0x40 MSTORE POP DUP2 ADD SWAP1 PUSH2 0x2157 SWAP2 SWAP1 PUSH2 0x32C8 JUMP JUMPDEST SWAP1 POP PUSH2 0x21DF JUMP JUMPDEST PUSH2 0x162 SLOAD PUSH1 0x40 MLOAD PUSH4 0x2FBE157 PUSH1 0xE3 SHL DUP2 MSTORE PUSH1 0x4 DUP2 ADD DUP12 SWAP1 MSTORE PUSH1 0x24 DUP2 ADD DUP11 SWAP1 MSTORE PUSH1 0x0 PUSH1 0x44 DUP3 ADD MSTORE PUSH1 0x1 PUSH1 0x1 PUSH1 0xA0 SHL SUB SWAP1 SWAP2 AND SWAP1 PUSH4 0x17DF0AB8 SWAP1 PUSH1 0x64 ADD PUSH1 0x20 PUSH1 0x40 MLOAD DUP1 DUP4 SUB DUP2 PUSH1 0x0 DUP8 GAS CALL ISZERO DUP1 ISZERO PUSH2 0x21B8 JUMPI RETURNDATASIZE PUSH1 0x0 DUP1 RETURNDATACOPY RETURNDATASIZE PUSH1 0x0 REVERT JUMPDEST POP POP POP POP PUSH1 0x40 MLOAD RETURNDATASIZE PUSH1 0x1F NOT PUSH1 0x1F DUP3 ADD AND DUP3 ADD DUP1 PUSH1 0x40 MSTORE POP DUP2 ADD SWAP1 PUSH2 0x21DC SWAP2 SWAP1 PUSH2 0x32C8 JUMP JUMPDEST SWAP1 POP JUMPDEST PUSH1 0x0 PUSH2 0x21EE DUP12 DUP4 DUP11 ADDRESS DUP11 PUSH2 0x1967 JUMP JUMPDEST SWAP1 POP DUP6 PUSH1 0x1 PUSH1 0x1 PUSH1 0xA0 SHL SUB AND DUP8 PUSH1 0x1 PUSH1 0x1 PUSH1 0xA0 SHL SUB AND DUP12 PUSH32 0x7AD6609DA145D6EE5AD0114EA489BB938C61528354B696F0E99C3A59A0D2E027 DUP15 DUP14 DUP7 PUSH1 0x40 MLOAD PUSH2 0x2238 SWAP4 SWAP3 SWAP2 SWAP1 PUSH2 0x3450 JUMP JUMPDEST PUSH1 0x40 MLOAD DUP1 SWAP2 SUB SWAP1 LOG4 POP POP POP POP POP POP POP POP POP POP POP JUMP JUMPDEST DUP6 PUSH2 0x2257 DUP2 PUSH2 0x1945 JUMP JUMPDEST PUSH2 0x2274 JUMPI PUSH1 0x40 MLOAD PUSH4 0xE6C4247B PUSH1 0xE0 SHL DUP2 MSTORE PUSH1 0x4 ADD PUSH1 0x40 MLOAD DUP1 SWAP2 SUB SWAP1 REVERT JUMPDEST PUSH1 0x0 PUSH2 0x2282 DUP9 DUP7 DUP7 ADDRESS PUSH2 0x2640 JUMP JUMPDEST PUSH2 0x162 SLOAD PUSH1 0x40 MLOAD PUSH4 0x4CFFBAAB PUSH1 0xE0 SHL DUP2 MSTORE PUSH1 0x4 DUP2 ADD DUP11 SWAP1 MSTORE PUSH1 0x24 DUP2 ADD DUP10 SWAP1 MSTORE PUSH1 0x44 DUP2 ADD DUP4 SWAP1 MSTORE PUSH1 0x1 PUSH1 0x1 PUSH1 0xA0 SHL SUB DUP7 DUP2 AND PUSH1 0x64 DUP4 ADD MSTORE SWAP3 SWAP4 POP PUSH1 0x0 SWAP3 SWAP1 SWAP2 AND SWAP1 PUSH4 0x4CFFBAAB SWAP1 PUSH1 0x84 ADD PUSH1 0x20 PUSH1 0x40 MLOAD DUP1 DUP4 SUB DUP2 PUSH1 0x0 DUP8 GAS CALL ISZERO DUP1 ISZERO PUSH2 0x22EA JUMPI RETURNDATASIZE PUSH1 0x0 DUP1 RETURNDATACOPY RETURNDATASIZE PUSH1 0x0 REVERT JUMPDEST POP POP POP POP PUSH1 0x40 MLOAD RETURNDATASIZE PUSH1 0x1F NOT PUSH1 0x1F DUP3 ADD AND DUP3 ADD DUP1 PUSH1 0x40 MSTORE POP DUP2 ADD SWAP1 PUSH2 0x230E SWAP2 SWAP1 PUSH2 0x32C8 JUMP JUMPDEST SWAP1 POP PUSH1 0x0 PUSH2 0x231C DUP3 DUP5 PUSH2 0x33FC JUMP JUMPDEST SWAP1 POP PUSH1 0x0 PUSH2 0x232E DUP12 DUP4 PUSH1 0x0 ADDRESS DUP12 PUSH2 0x1967 JUMP JUMPDEST SWAP1 POP PUSH1 0x1 PUSH1 0x1 PUSH1 0xA0 SHL SUB DUP1 DUP8 AND SWAP1 DUP9 AND DUP12 PUSH32 0xA96382430C9C4BC56996C6E85C0F27E26CFD1F4CBFC2CE9F5BA23F1E51252BC7 DUP15 DUP14 PUSH2 0x236C DUP8 DUP16 PUSH2 0x33FC JUMP JUMPDEST PUSH1 0x40 MLOAD PUSH2 0x2238 SWAP4 SWAP3 SWAP2 SWAP1 PUSH2 0x3450 JUMP JUMPDEST DUP5 PUSH2 0x2385 DUP2 PUSH2 0x1945 JUMP JUMPDEST PUSH2 0x23A2 JUMPI PUSH1 0x40 MLOAD PUSH4 0xE6C4247B PUSH1 0xE0 SHL DUP2 MSTORE PUSH1 0x4 ADD PUSH1 0x40 MLOAD DUP1 SWAP2 SUB SWAP1 REVERT JUMPDEST PUSH1 0x0 PUSH2 0x23B0 DUP8 DUP7 DUP7 ADDRESS PUSH2 0x2640 JUMP JUMPDEST PUSH2 0x162 SLOAD PUSH1 0x40 MLOAD PUSH4 0x218856E3 PUSH1 0xE1 SHL DUP2 MSTORE PUSH1 0x4 DUP2 ADD DUP10 SWAP1 MSTORE PUSH1 0x24 DUP2 ADD DUP4 SWAP1 MSTORE PUSH1 0x1 PUSH1 0x1 PUSH1 0xA0 SHL SUB DUP7 DUP2 AND PUSH1 0x44 DUP4 ADD MSTORE SWAP3 SWAP4 POP PUSH1 0x0 SWAP3 SWAP1 SWAP2 AND SWAP1 PUSH4 0x4310ADC6 SWAP1 PUSH1 0x64 ADD PUSH1 0x20 PUSH1 0x40 MLOAD DUP1 DUP4 SUB DUP2 PUSH1 0x0 DUP8 GAS CALL ISZERO DUP1 ISZERO PUSH2 0x2411 JUMPI RETURNDATASIZE PUSH1 0x0 DUP1 RETURNDATACOPY RETURNDATASIZE PUSH1 0x0 REVERT JUMPDEST POP POP POP POP PUSH1 0x40 MLOAD RETURNDATASIZE PUSH1 0x1F NOT PUSH1 0x1F DUP3 ADD AND DUP3 ADD DUP1 PUSH1 0x40 MSTORE POP DUP2 ADD SWAP1 PUSH2 0x2435 SWAP2 SWAP1 PUSH2 0x32C8 JUMP JUMPDEST SWAP1 POP PUSH1 0x0 PUSH2 0x2443 DUP3 DUP5 PUSH2 0x33FC JUMP JUMPDEST SWAP1 POP PUSH1 0x0 PUSH2 0x2455 DUP11 DUP4 PUSH1 0x0 ADDRESS DUP12 PUSH2 0x1967 JUMP JUMPDEST SWAP1 POP PUSH1 0x1 PUSH1 0x1 PUSH1 0xA0 SHL SUB DUP1 DUP8 AND SWAP1 DUP9 AND PUSH32 0x7CEE37BE28E3F38AE2745B4A7D111A1EA445FDA21DFC7079716BDD4AFFE5D286 DUP13 DUP13 PUSH2 0x2492 DUP7 DUP15 PUSH2 0x33FC JUMP JUMPDEST PUSH1 0x40 MLOAD PUSH2 0x24A1 SWAP4 SWAP3 SWAP2 SWAP1 PUSH2 0x3450 JUMP JUMPDEST PUSH1 0x40 MLOAD DUP1 SWAP2 SUB SWAP1 LOG3 POP POP POP POP POP POP POP POP POP POP JUMP JUMPDEST PUSH1 0x0 SLOAD PUSH2 0x100 SWAP1 DIV PUSH1 0xFF AND PUSH2 0x24DC JUMPI PUSH1 0x40 MLOAD PUSH3 0x461BCD PUSH1 0xE5 SHL DUP2 MSTORE PUSH1 0x4 ADD PUSH2 0x75D SWAP1 PUSH2 0x3471 JUMP JUMPDEST PUSH2 0x24E4 PUSH2 0x2896 JUMP JUMPDEST PUSH2 0x24ED DUP3 PUSH2 0x28BD JUMP JUMPDEST PUSH2 0xB30 DUP2 PUSH1 0x1 PUSH2 0x28ED JUMP JUMPDEST DUP1 ISZERO DUP1 PUSH2 0x2572 JUMPI POP PUSH1 0x40 MLOAD PUSH4 0x6EB1769F PUSH1 0xE1 SHL DUP2 MSTORE ADDRESS PUSH1 0x4 DUP3 ADD MSTORE PUSH1 0x1 PUSH1 0x1 PUSH1 0xA0 SHL SUB DUP4 DUP2 AND PUSH1 0x24 DUP4 ADD MSTORE DUP5 AND SWAP1 PUSH4 0xDD62ED3E SWAP1 PUSH1 0x44 ADD PUSH1 0x20 PUSH1 0x40 MLOAD DUP1 DUP4 SUB DUP2 DUP7 GAS STATICCALL ISZERO DUP1 ISZERO PUSH2 0x254C JUMPI RETURNDATASIZE PUSH1 0x0 DUP1 RETURNDATACOPY RETURNDATASIZE PUSH1 0x0 REVERT JUMPDEST POP POP POP POP PUSH1 0x40 MLOAD RETURNDATASIZE PUSH1 0x1F NOT PUSH1 0x1F DUP3 ADD AND DUP3 ADD DUP1 PUSH1 0x40 MSTORE POP DUP2 ADD SWAP1 PUSH2 0x2570 SWAP2 SWAP1 PUSH2 0x32C8 JUMP JUMPDEST ISZERO JUMPDEST PUSH2 0x25DD JUMPI PUSH1 0x40 MLOAD PUSH3 0x461BCD PUSH1 0xE5 SHL DUP2 MSTORE PUSH1 0x20 PUSH1 0x4 DUP3 ADD MSTORE PUSH1 0x36 PUSH1 0x24 DUP3 ADD MSTORE PUSH32 0x5361666545524332303A20617070726F76652066726F6D206E6F6E2D7A65726F PUSH1 0x44 DUP3 ADD MSTORE PUSH22 0x20746F206E6F6E2D7A65726F20616C6C6F77616E6365 PUSH1 0x50 SHL PUSH1 0x64 DUP3 ADD MSTORE PUSH1 0x84 ADD PUSH2 0x75D JUMP JUMPDEST PUSH1 0x40 MLOAD PUSH1 0x1 PUSH1 0x1 PUSH1 0xA0 SHL SUB DUP4 AND PUSH1 0x24 DUP3 ADD MSTORE PUSH1 0x44 DUP2 ADD DUP3 SWAP1 MSTORE PUSH2 0x8E7 SWAP1 DUP5 SWAP1 PUSH4 0x95EA7B3 PUSH1 0xE0 SHL SWAP1 PUSH1 0x64 ADD JUMPDEST PUSH1 0x40 DUP1 MLOAD PUSH1 0x1F NOT DUP2 DUP5 SUB ADD DUP2 MSTORE SWAP2 SWAP1 MSTORE PUSH1 0x20 DUP2 ADD DUP1 MLOAD PUSH1 0x1 PUSH1 0x1 PUSH1 0xE0 SHL SUB AND PUSH1 0x1 PUSH1 0x1 PUSH1 0xE0 SHL SUB NOT SWAP1 SWAP4 AND SWAP3 SWAP1 SWAP3 OR SWAP1 SWAP2 MSTORE PUSH2 0x2950 JUMP JUMPDEST PUSH1 0x0 PUSH2 0x264C DUP6 DUP6 PUSH2 0x2A22 JUMP JUMPDEST PUSH2 0x161 SLOAD PUSH1 0x40 MLOAD PUSH4 0x40C10F19 PUSH1 0xE0 SHL DUP2 MSTORE PUSH1 0x1 PUSH1 0x1 PUSH1 0xA0 SHL SUB DUP6 DUP2 AND PUSH1 0x4 DUP4 ADD MSTORE PUSH1 0x24 DUP3 ADD DUP5 SWAP1 MSTORE SWAP3 SWAP4 POP SWAP2 AND SWAP1 PUSH4 0x40C10F19 SWAP1 PUSH1 0x44 ADD PUSH1 0x0 PUSH1 0x40 MLOAD DUP1 DUP4 SUB DUP2 PUSH1 0x0 DUP8 DUP1 EXTCODESIZE ISZERO DUP1 ISZERO PUSH2 0x269D JUMPI PUSH1 0x0 DUP1 REVERT JUMPDEST POP GAS CALL ISZERO DUP1 ISZERO PUSH2 0x26B1 JUMPI RETURNDATASIZE PUSH1 0x0 DUP1 RETURNDATACOPY RETURNDATASIZE PUSH1 0x0 REVERT JUMPDEST POP POP POP POP PUSH2 0x26C1 DUP6 DUP5 ADDRESS DUP8 PUSH2 0x26C9 JUMP JUMPDEST SWAP5 SWAP4 POP POP POP POP JUMP JUMPDEST PUSH1 0x40 MLOAD PUSH1 0x1 PUSH1 0x1 PUSH1 0xA0 SHL SUB DUP1 DUP6 AND PUSH1 0x24 DUP4 ADD MSTORE DUP4 AND PUSH1 0x44 DUP3 ADD MSTORE PUSH1 0x64 DUP2 ADD DUP3 SWAP1 MSTORE PUSH2 0xC17 SWAP1 DUP6 SWAP1 PUSH4 0x23B872DD PUSH1 0xE0 SHL SWAP1 PUSH1 0x84 ADD PUSH2 0x2609 JUMP JUMPDEST PUSH1 0x40 MLOAD PUSH1 0x1 PUSH1 0x1 PUSH1 0xA0 SHL SUB DUP4 AND PUSH1 0x24 DUP3 ADD MSTORE PUSH1 0x44 DUP2 ADD DUP3 SWAP1 MSTORE PUSH2 0x8E7 SWAP1 DUP5 SWAP1 PUSH4 0xA9059CBB PUSH1 0xE0 SHL SWAP1 PUSH1 0x64 ADD PUSH2 0x2609 JUMP JUMPDEST PUSH1 0x1 PUSH1 0x1 PUSH1 0xA0 SHL SUB DUP2 AND EXTCODESIZE PUSH2 0x279E JUMPI PUSH1 0x40 MLOAD PUSH3 0x461BCD PUSH1 0xE5 SHL DUP2 MSTORE PUSH1 0x20 PUSH1 0x4 DUP3 ADD MSTORE PUSH1 0x2D PUSH1 0x24 DUP3 ADD MSTORE PUSH32 0x455243313936373A206E657720696D706C656D656E746174696F6E206973206E PUSH1 0x44 DUP3 ADD MSTORE PUSH13 0x1BDD08184818DBDB9D1C9858DD PUSH1 0x9A SHL PUSH1 0x64 DUP3 ADD MSTORE PUSH1 0x84 ADD PUSH2 0x75D JUMP JUMPDEST PUSH1 0x0 DUP1 MLOAD PUSH1 0x20 PUSH2 0x3623 DUP4 CODECOPY DUP2 MLOAD SWAP2 MSTORE DUP1 SLOAD PUSH1 0x1 PUSH1 0x1 PUSH1 0xA0 SHL SUB NOT AND PUSH1 0x1 PUSH1 0x1 PUSH1 0xA0 SHL SUB SWAP3 SWAP1 SWAP3 AND SWAP2 SWAP1 SWAP2 OR SWAP1 SSTORE JUMP JUMPDEST PUSH2 0x27D6 DUP4 PUSH2 0x2A5B JUMP JUMPDEST PUSH1 0x0 DUP3 MLOAD GT DUP1 PUSH2 0x27E3 JUMPI POP DUP1 JUMPDEST ISZERO PUSH2 0x8E7 JUMPI PUSH2 0xC17 DUP4 DUP4 PUSH2 0x2A9B JUMP JUMPDEST PUSH1 0x2 PUSH2 0x12F SLOAD SUB PUSH2 0x2845 JUMPI PUSH1 0x40 MLOAD PUSH3 0x461BCD PUSH1 0xE5 SHL DUP2 MSTORE PUSH1 0x20 PUSH1 0x4 DUP3 ADD MSTORE PUSH1 0x1F PUSH1 0x24 DUP3 ADD MSTORE PUSH32 0x5265656E7472616E637947756172643A207265656E7472616E742063616C6C00 PUSH1 0x44 DUP3 ADD MSTORE PUSH1 0x64 ADD PUSH2 0x75D JUMP JUMPDEST PUSH1 0x2 PUSH2 0x12F SSTORE JUMP JUMPDEST PUSH1 0x0 DUP1 PUSH1 0x0 PUSH2 0x285A PUSH2 0x8EC JUMP JUMPDEST SWAP1 POP PUSH1 0x0 PUSH2 0x2868 DUP6 DUP4 PUSH2 0x330D JUMP JUMPDEST SWAP1 POP PUSH2 0x2873 DUP7 PUSH2 0x1BB9 JUMP JUMPDEST PUSH2 0x287D SWAP1 DUP3 PUSH2 0x3337 JUMP JUMPDEST SWAP4 POP PUSH2 0x2889 DUP7 DUP7 PUSH2 0x2B86 JUMP JUMPDEST SWAP4 SWAP7 SWAP4 SWAP6 POP SWAP3 SWAP4 POP POP POP POP JUMP JUMPDEST PUSH1 0x0 SLOAD PUSH2 0x100 SWAP1 DIV PUSH1 0xFF AND PUSH2 0x17D0 JUMPI PUSH1 0x40 MLOAD PUSH3 0x461BCD PUSH1 0xE5 SHL DUP2 MSTORE PUSH1 0x4 ADD PUSH2 0x75D SWAP1 PUSH2 0x3471 JUMP JUMPDEST PUSH1 0x0 SLOAD PUSH2 0x100 SWAP1 DIV PUSH1 0xFF AND PUSH2 0x28E4 JUMPI PUSH1 0x40 MLOAD PUSH3 0x461BCD PUSH1 0xE5 SHL DUP2 MSTORE PUSH1 0x4 ADD PUSH2 0x75D SWAP1 PUSH2 0x3471 JUMP JUMPDEST PUSH2 0x7FA DUP2 PUSH2 0x2BE1 JUMP JUMPDEST PUSH1 0x0 SLOAD PUSH2 0x100 SWAP1 DIV PUSH1 0xFF AND PUSH2 0x2914 JUMPI PUSH1 0x40 MLOAD PUSH3 0x461BCD PUSH1 0xE5 SHL DUP2 MSTORE PUSH1 0x4 ADD PUSH2 0x75D SWAP1 PUSH2 0x3471 JUMP JUMPDEST PUSH1 0xCA DUP1 SLOAD PUSH1 0x1 PUSH1 0x1 PUSH1 0xA0 SHL SUB SWAP1 SWAP4 AND PUSH3 0x10000 MUL PUSH3 0x10000 PUSH1 0x1 PUSH1 0xB0 SHL SUB NOT SWAP3 ISZERO ISZERO SWAP3 SWAP1 SWAP3 AND PUSH2 0xFF01 PUSH1 0x1 PUSH1 0xB0 SHL SUB NOT SWAP1 SWAP4 AND SWAP3 SWAP1 SWAP3 OR OR SWAP1 SSTORE JUMP JUMPDEST PUSH1 0x0 PUSH2 0x29A5 DUP3 PUSH1 0x40 MLOAD DUP1 PUSH1 0x40 ADD PUSH1 0x40 MSTORE DUP1 PUSH1 0x20 DUP2 MSTORE PUSH1 0x20 ADD PUSH32 0x5361666545524332303A206C6F772D6C6576656C2063616C6C206661696C6564 DUP2 MSTORE POP DUP6 PUSH1 0x1 PUSH1 0x1 PUSH1 0xA0 SHL SUB AND PUSH2 0x2C08 SWAP1 SWAP3 SWAP2 SWAP1 PUSH4 0xFFFFFFFF AND JUMP JUMPDEST DUP1 MLOAD SWAP1 SWAP2 POP ISZERO PUSH2 0x8E7 JUMPI DUP1 DUP1 PUSH1 0x20 ADD SWAP1 MLOAD DUP2 ADD SWAP1 PUSH2 0x29C3 SWAP2 SWAP1 PUSH2 0x3435 JUMP JUMPDEST PUSH2 0x8E7 JUMPI PUSH1 0x40 MLOAD PUSH3 0x461BCD PUSH1 0xE5 SHL DUP2 MSTORE PUSH1 0x20 PUSH1 0x4 DUP3 ADD MSTORE PUSH1 0x2A PUSH1 0x24 DUP3 ADD MSTORE PUSH32 0x5361666545524332303A204552433230206F7065726174696F6E20646964206E PUSH1 0x44 DUP3 ADD MSTORE PUSH10 0x1BDD081CDD58D8D95959 PUSH1 0xB2 SHL PUSH1 0x64 DUP3 ADD MSTORE PUSH1 0x84 ADD PUSH2 0x75D JUMP JUMPDEST PUSH1 0x0 DUP1 PUSH2 0x2A2D PUSH2 0x8EC JUMP JUMPDEST SWAP1 POP PUSH1 0x0 PUSH2 0x2A3A DUP6 PUSH2 0x1BB9 JUMP JUMPDEST PUSH2 0x2A44 SWAP1 DUP6 PUSH2 0x330D JUMP JUMPDEST SWAP1 POP PUSH2 0x2A50 DUP3 DUP3 PUSH2 0x3337 JUMP JUMPDEST SWAP3 POP POP POP JUMPDEST SWAP3 SWAP2 POP POP JUMP JUMPDEST PUSH2 0x2A64 DUP2 PUSH2 0x2731 JUMP JUMPDEST PUSH1 0x40 MLOAD PUSH1 0x1 PUSH1 0x1 PUSH1 0xA0 SHL SUB DUP3 AND SWAP1 PUSH32 0xBC7CD75A20EE27FD9ADEBAB32041F755214DBC6BFFA90CC0225B39DA2E5C2D3B SWAP1 PUSH1 0x0 SWAP1 LOG2 POP JUMP JUMPDEST PUSH1 0x60 PUSH1 0x1 PUSH1 0x1 PUSH1 0xA0 SHL SUB DUP4 AND EXTCODESIZE PUSH2 0x2B03 JUMPI PUSH1 0x40 MLOAD PUSH3 0x461BCD PUSH1 0xE5 SHL DUP2 MSTORE PUSH1 0x20 PUSH1 0x4 DUP3 ADD MSTORE PUSH1 0x26 PUSH1 0x24 DUP3 ADD MSTORE PUSH32 0x416464726573733A2064656C65676174652063616C6C20746F206E6F6E2D636F PUSH1 0x44 DUP3 ADD MSTORE PUSH6 0x1B9D1C9858DD PUSH1 0xD2 SHL PUSH1 0x64 DUP3 ADD MSTORE PUSH1 0x84 ADD PUSH2 0x75D JUMP JUMPDEST PUSH1 0x0 DUP1 DUP5 PUSH1 0x1 PUSH1 0x1 PUSH1 0xA0 SHL SUB AND DUP5 PUSH1 0x40 MLOAD PUSH2 0x2B1E SWAP2 SWAP1 PUSH2 0x34E0 JUMP JUMPDEST PUSH1 0x0 PUSH1 0x40 MLOAD DUP1 DUP4 SUB DUP2 DUP6 GAS DELEGATECALL SWAP2 POP POP RETURNDATASIZE DUP1 PUSH1 0x0 DUP2 EQ PUSH2 0x2B59 JUMPI PUSH1 0x40 MLOAD SWAP2 POP PUSH1 0x1F NOT PUSH1 0x3F RETURNDATASIZE ADD AND DUP3 ADD PUSH1 0x40 MSTORE RETURNDATASIZE DUP3 MSTORE RETURNDATASIZE PUSH1 0x0 PUSH1 0x20 DUP5 ADD RETURNDATACOPY PUSH2 0x2B5E JUMP JUMPDEST PUSH1 0x60 SWAP2 POP JUMPDEST POP SWAP2 POP SWAP2 POP PUSH2 0x2A50 DUP3 DUP3 PUSH1 0x40 MLOAD DUP1 PUSH1 0x60 ADD PUSH1 0x40 MSTORE DUP1 PUSH1 0x27 DUP2 MSTORE PUSH1 0x20 ADD PUSH2 0x3643 PUSH1 0x27 SWAP2 CODECOPY PUSH2 0x2C21 JUMP JUMPDEST PUSH1 0x1 PUSH1 0x1 PUSH1 0xA0 SHL SUB DUP3 AND PUSH1 0x0 SWAP1 DUP2 MSTORE PUSH2 0x165 PUSH1 0x20 MSTORE PUSH1 0x40 DUP2 KECCAK256 PUSH1 0x1 ADD SLOAD DUP3 SWAP2 PUSH2 0x100 SWAP1 SWAP2 DIV DUP2 SIGNEXTEND SWAP1 DUP2 SGT ISZERO PUSH2 0x1C79 JUMPI PUSH2 0x2BC0 DUP2 PUSH1 0xA PUSH2 0x35E0 JUMP JUMPDEST PUSH2 0x2BCA SWAP1 DUP4 PUSH2 0x3337 JUMP JUMPDEST SWAP2 POP PUSH2 0x2BD7 DUP2 PUSH1 0xA PUSH2 0x35E0 JUMP JUMPDEST PUSH2 0x26C1 SWAP1 DUP4 PUSH2 0x330D JUMP JUMPDEST PUSH1 0x0 SLOAD PUSH2 0x100 SWAP1 DIV PUSH1 0xFF AND PUSH2 0xF61 JUMPI PUSH1 0x40 MLOAD PUSH3 0x461BCD PUSH1 0xE5 SHL DUP2 MSTORE PUSH1 0x4 ADD PUSH2 0x75D SWAP1 PUSH2 0x3471 JUMP JUMPDEST PUSH1 0x60 PUSH2 0x2C17 DUP5 DUP5 PUSH1 0x0 DUP6 PUSH2 0x2C3A JUMP JUMPDEST SWAP1 POP JUMPDEST SWAP4 SWAP3 POP POP POP JUMP JUMPDEST PUSH1 0x60 DUP4 ISZERO PUSH2 0x2C30 JUMPI POP DUP2 PUSH2 0x2C1A JUMP JUMPDEST PUSH2 0x2C1A DUP4 DUP4 PUSH2 0x2D15 JUMP JUMPDEST PUSH1 0x60 DUP3 SELFBALANCE LT ISZERO PUSH2 0x2C9B JUMPI PUSH1 0x40 MLOAD PUSH3 0x461BCD PUSH1 0xE5 SHL DUP2 MSTORE PUSH1 0x20 PUSH1 0x4 DUP3 ADD MSTORE PUSH1 0x26 PUSH1 0x24 DUP3 ADD MSTORE PUSH32 0x416464726573733A20696E73756666696369656E742062616C616E636520666F PUSH1 0x44 DUP3 ADD MSTORE PUSH6 0x1C8818D85B1B PUSH1 0xD2 SHL PUSH1 0x64 DUP3 ADD MSTORE PUSH1 0x84 ADD PUSH2 0x75D JUMP JUMPDEST PUSH1 0x0 DUP1 DUP7 PUSH1 0x1 PUSH1 0x1 PUSH1 0xA0 SHL SUB AND DUP6 DUP8 PUSH1 0x40 MLOAD PUSH2 0x2CB7 SWAP2 SWAP1 PUSH2 0x34E0 JUMP JUMPDEST PUSH1 0x0 PUSH1 0x40 MLOAD DUP1 DUP4 SUB DUP2 DUP6 DUP8 GAS CALL SWAP3 POP POP POP RETURNDATASIZE DUP1 PUSH1 0x0 DUP2 EQ PUSH2 0x2CF4 JUMPI PUSH1 0x40 MLOAD SWAP2 POP PUSH1 0x1F NOT PUSH1 0x3F RETURNDATASIZE ADD AND DUP3 ADD PUSH1 0x40 MSTORE RETURNDATASIZE DUP3 MSTORE RETURNDATASIZE PUSH1 0x0 PUSH1 0x20 DUP5 ADD RETURNDATACOPY PUSH2 0x2CF9 JUMP JUMPDEST PUSH1 0x60 SWAP2 POP JUMPDEST POP SWAP2 POP SWAP2 POP PUSH2 0x2D0A DUP8 DUP4 DUP4 DUP8 PUSH2 0x2D3F JUMP JUMPDEST SWAP8 SWAP7 POP POP POP POP POP POP POP JUMP JUMPDEST DUP2 MLOAD ISZERO PUSH2 0x2D25 JUMPI DUP2 MLOAD DUP1 DUP4 PUSH1 0x20 ADD REVERT JUMPDEST DUP1 PUSH1 0x40 MLOAD PUSH3 0x461BCD PUSH1 0xE5 SHL DUP2 MSTORE PUSH1 0x4 ADD PUSH2 0x75D SWAP2 SWAP1 PUSH2 0x35EF JUMP JUMPDEST PUSH1 0x60 DUP4 ISZERO PUSH2 0x2DAE JUMPI DUP3 MLOAD PUSH1 0x0 SUB PUSH2 0x2DA7 JUMPI PUSH1 0x1 PUSH1 0x1 PUSH1 0xA0 SHL SUB DUP6 AND EXTCODESIZE PUSH2 0x2DA7 JUMPI PUSH1 0x40 MLOAD PUSH3 0x461BCD PUSH1 0xE5 SHL DUP2 MSTORE PUSH1 0x20 PUSH1 0x4 DUP3 ADD MSTORE PUSH1 0x1D PUSH1 0x24 DUP3 ADD MSTORE PUSH32 0x416464726573733A2063616C6C20746F206E6F6E2D636F6E7472616374000000 PUSH1 0x44 DUP3 ADD MSTORE PUSH1 0x64 ADD PUSH2 0x75D JUMP JUMPDEST POP DUP2 PUSH2 0x26C1 JUMP JUMPDEST PUSH2 0x26C1 DUP4 DUP4 PUSH2 0x2D15 JUMP JUMPDEST PUSH1 0x1 PUSH1 0x1 PUSH1 0xA0 SHL SUB DUP2 AND DUP2 EQ PUSH2 0x7FA JUMPI PUSH1 0x0 DUP1 REVERT JUMPDEST PUSH1 0x0 DUP1 PUSH1 0x0 DUP1 PUSH1 0x0 DUP1 PUSH1 0xC0 DUP8 DUP10 SUB SLT ISZERO PUSH2 0x2DE6 JUMPI PUSH1 0x0 DUP1 REVERT JUMPDEST DUP7 CALLDATALOAD PUSH2 0x2DF1 DUP2 PUSH2 0x2DB8 JUMP JUMPDEST SWAP9 PUSH1 0x20 DUP9 ADD CALLDATALOAD SWAP9 POP PUSH1 0x40 DUP9 ADD CALLDATALOAD SWAP8 PUSH1 0x60 DUP2 ADD CALLDATALOAD SWAP8 POP PUSH1 0x80 DUP2 ADD CALLDATALOAD SWAP7 POP PUSH1 0xA0 ADD CALLDATALOAD SWAP5 POP SWAP3 POP POP POP JUMP JUMPDEST PUSH1 0x0 DUP1 PUSH1 0x0 DUP1 PUSH1 0x0 DUP1 PUSH1 0xC0 DUP8 DUP10 SUB SLT ISZERO PUSH2 0x2E32 JUMPI PUSH1 0x0 DUP1 REVERT JUMPDEST DUP7 CALLDATALOAD PUSH2 0x2E3D DUP2 PUSH2 0x2DB8 JUMP JUMPDEST SWAP6 POP PUSH1 0x20 DUP8 ADD CALLDATALOAD SWAP5 POP PUSH1 0x40 DUP8 ADD CALLDATALOAD SWAP4 POP PUSH1 0x60 DUP8 ADD CALLDATALOAD SWAP3 POP PUSH1 0x80 DUP8 ADD CALLDATALOAD SWAP2 POP PUSH1 0xA0 DUP8 ADD CALLDATALOAD PUSH2 0x2E69 DUP2 PUSH2 0x2DB8 JUMP JUMPDEST DUP1 SWAP2 POP POP SWAP3 SWAP6 POP SWAP3 SWAP6 POP SWAP3 SWAP6 JUMP JUMPDEST PUSH1 0x0 DUP1 PUSH1 0x0 DUP1 PUSH1 0x0 PUSH1 0xA0 DUP7 DUP9 SUB SLT ISZERO PUSH2 0x2E8F JUMPI PUSH1 0x0 DUP1 REVERT JUMPDEST DUP6 CALLDATALOAD PUSH2 0x2E9A DUP2 PUSH2 0x2DB8 JUMP JUMPDEST SWAP8 PUSH1 0x20 DUP8 ADD CALLDATALOAD SWAP8 POP PUSH1 0x40 DUP8 ADD CALLDATALOAD SWAP7 PUSH1 0x60 DUP2 ADD CALLDATALOAD SWAP7 POP PUSH1 0x80 ADD CALLDATALOAD SWAP5 POP SWAP3 POP POP POP JUMP JUMPDEST PUSH1 0x0 PUSH1 0x20 DUP3 DUP5 SUB SLT ISZERO PUSH2 0x2ECD JUMPI PUSH1 0x0 DUP1 REVERT JUMPDEST DUP2 CALLDATALOAD PUSH2 0x2C1A DUP2 PUSH2 0x2DB8 JUMP JUMPDEST PUSH1 0x0 DUP1 PUSH1 0x0 DUP1 PUSH1 0x80 DUP6 DUP8 SUB SLT ISZERO PUSH2 0x2EEE JUMPI PUSH1 0x0 DUP1 REVERT JUMPDEST DUP5 CALLDATALOAD PUSH2 0x2EF9 DUP2 PUSH2 0x2DB8 JUMP JUMPDEST SWAP4 POP PUSH1 0x20 DUP6 ADD CALLDATALOAD SWAP3 POP PUSH1 0x40 DUP6 ADD CALLDATALOAD SWAP2 POP PUSH1 0x60 DUP6 ADD CALLDATALOAD PUSH2 0x2F17 DUP2 PUSH2 0x2DB8 JUMP JUMPDEST SWAP4 SWAP7 SWAP3 SWAP6 POP SWAP1 SWAP4 POP POP JUMP JUMPDEST PUSH1 0x0 DUP1 PUSH1 0x0 PUSH1 0x60 DUP5 DUP7 SUB SLT ISZERO PUSH2 0x2F37 JUMPI PUSH1 0x0 DUP1 REVERT JUMPDEST DUP4 CALLDATALOAD PUSH2 0x2F42 DUP2 PUSH2 0x2DB8 JUMP JUMPDEST SWAP6 PUSH1 0x20 DUP6 ADD CALLDATALOAD SWAP6 POP PUSH1 0x40 SWAP1 SWAP5 ADD CALLDATALOAD SWAP4 SWAP3 POP POP POP JUMP JUMPDEST PUSH4 0x4E487B71 PUSH1 0xE0 SHL PUSH1 0x0 MSTORE PUSH1 0x41 PUSH1 0x4 MSTORE PUSH1 0x24 PUSH1 0x0 REVERT JUMPDEST PUSH1 0x0 DUP1 PUSH1 0x40 DUP4 DUP6 SUB SLT ISZERO PUSH2 0x2F80 JUMPI PUSH1 0x0 DUP1 REVERT JUMPDEST DUP3 CALLDATALOAD PUSH2 0x2F8B DUP2 PUSH2 0x2DB8 JUMP JUMPDEST SWAP2 POP PUSH1 0x20 DUP4 ADD CALLDATALOAD PUSH8 0xFFFFFFFFFFFFFFFF DUP1 DUP3 GT ISZERO PUSH2 0x2FA8 JUMPI PUSH1 0x0 DUP1 REVERT JUMPDEST DUP2 DUP6 ADD SWAP2 POP DUP6 PUSH1 0x1F DUP4 ADD SLT PUSH2 0x2FBC JUMPI PUSH1 0x0 DUP1 REVERT JUMPDEST DUP2 CALLDATALOAD DUP2 DUP2 GT ISZERO PUSH2 0x2FCE JUMPI PUSH2 0x2FCE PUSH2 0x2F57 JUMP JUMPDEST PUSH1 0x40 MLOAD PUSH1 0x1F DUP3 ADD PUSH1 0x1F NOT SWAP1 DUP2 AND PUSH1 0x3F ADD AND DUP2 ADD SWAP1 DUP4 DUP3 GT DUP2 DUP4 LT OR ISZERO PUSH2 0x2FF6 JUMPI PUSH2 0x2FF6 PUSH2 0x2F57 JUMP JUMPDEST DUP2 PUSH1 0x40 MSTORE DUP3 DUP2 MSTORE DUP9 PUSH1 0x20 DUP5 DUP8 ADD ADD GT ISZERO PUSH2 0x300F JUMPI PUSH1 0x0 DUP1 REVERT JUMPDEST DUP3 PUSH1 0x20 DUP7 ADD PUSH1 0x20 DUP4 ADD CALLDATACOPY PUSH1 0x0 PUSH1 0x20 DUP5 DUP4 ADD ADD MSTORE DUP1 SWAP6 POP POP POP POP POP POP SWAP3 POP SWAP3 SWAP1 POP JUMP JUMPDEST PUSH1 0x0 DUP1 PUSH1 0x0 DUP1 PUSH1 0x0 PUSH1 0xA0 DUP7 DUP9 SUB SLT ISZERO PUSH2 0x3049 JUMPI PUSH1 0x0 DUP1 REVERT JUMPDEST DUP6 CALLDATALOAD PUSH2 0x3054 DUP2 PUSH2 0x2DB8 JUMP JUMPDEST SWAP5 POP PUSH1 0x20 DUP7 ADD CALLDATALOAD SWAP4 POP PUSH1 0x40 DUP7 ADD CALLDATALOAD SWAP3 POP PUSH1 0x60 DUP7 ADD CALLDATALOAD SWAP2 POP PUSH1 0x80 DUP7 ADD CALLDATALOAD PUSH2 0x3079 DUP2 PUSH2 0x2DB8 JUMP JUMPDEST DUP1 SWAP2 POP POP SWAP3 SWAP6 POP SWAP3 SWAP6 SWAP1 SWAP4 POP JUMP JUMPDEST PUSH1 0x0 DUP1 PUSH1 0x0 DUP1 PUSH1 0x80 DUP6 DUP8 SUB SLT ISZERO PUSH2 0x309D JUMPI PUSH1 0x0 DUP1 REVERT JUMPDEST DUP5 CALLDATALOAD PUSH2 0x30A8 DUP2 PUSH2 0x2DB8 JUMP JUMPDEST SWAP7 PUSH1 0x20 DUP7 ADD CALLDATALOAD SWAP7 POP PUSH1 0x40 DUP7 ADD CALLDATALOAD SWAP6 PUSH1 0x60 ADD CALLDATALOAD SWAP5 POP SWAP3 POP POP POP JUMP JUMPDEST PUSH1 0x0 DUP1 PUSH1 0x0 DUP1 PUSH1 0x0 DUP1 PUSH1 0x0 PUSH1 0xE0 DUP9 DUP11 SUB SLT ISZERO PUSH2 0x30DD JUMPI PUSH1 0x0 DUP1 REVERT JUMPDEST DUP8 CALLDATALOAD PUSH2 0x30E8 DUP2 PUSH2 0x2DB8 JUMP JUMPDEST SWAP7 POP PUSH1 0x20 DUP9 ADD CALLDATALOAD SWAP6 POP PUSH1 0x40 DUP9 ADD CALLDATALOAD SWAP5 POP PUSH1 0x60 DUP9 ADD CALLDATALOAD SWAP4 POP PUSH1 0x80 DUP9 ADD CALLDATALOAD SWAP3 POP PUSH1 0xA0 DUP9 ADD CALLDATALOAD SWAP2 POP PUSH1 0xC0 DUP9 ADD CALLDATALOAD PUSH2 0x311B DUP2 PUSH2 0x2DB8 JUMP JUMPDEST DUP1 SWAP2 POP POP SWAP3 SWAP6 SWAP9 SWAP2 SWAP5 SWAP8 POP SWAP3 SWAP6 POP JUMP JUMPDEST PUSH1 0x0 DUP1 PUSH1 0x0 PUSH1 0x60 DUP5 DUP7 SUB SLT ISZERO PUSH2 0x3140 JUMPI PUSH1 0x0 DUP1 REVERT JUMPDEST DUP4 CALLDATALOAD PUSH2 0x314B DUP2 PUSH2 0x2DB8 JUMP JUMPDEST SWAP3 POP PUSH1 0x20 DUP5 ADD CALLDATALOAD PUSH2 0x315B DUP2 PUSH2 0x2DB8 JUMP JUMPDEST SWAP2 POP PUSH1 0x40 DUP5 ADD CALLDATALOAD PUSH1 0xFF DUP2 AND DUP2 EQ PUSH2 0x3171 JUMPI PUSH1 0x0 DUP1 REVERT JUMPDEST DUP1 SWAP2 POP POP SWAP3 POP SWAP3 POP SWAP3 JUMP JUMPDEST PUSH1 0x0 DUP1 PUSH1 0x40 DUP4 DUP6 SUB SLT ISZERO PUSH2 0x318F JUMPI PUSH1 0x0 DUP1 REVERT JUMPDEST DUP3 CALLDATALOAD PUSH2 0x319A DUP2 PUSH2 0x2DB8 JUMP JUMPDEST SWAP5 PUSH1 0x20 SWAP4 SWAP1 SWAP4 ADD CALLDATALOAD SWAP4 POP POP POP JUMP JUMPDEST PUSH1 0x0 DUP1 PUSH1 0x0 PUSH1 0x60 DUP5 DUP7 SUB SLT ISZERO PUSH2 0x31BD JUMPI PUSH1 0x0 DUP1 REVERT JUMPDEST DUP4 CALLDATALOAD PUSH2 0x31C8 DUP2 PUSH2 0x2DB8 JUMP JUMPDEST SWAP3 POP PUSH1 0x20 DUP5 ADD CALLDATALOAD SWAP2 POP PUSH1 0x40 DUP5 ADD CALLDATALOAD PUSH2 0x3171 DUP2 PUSH2 0x2DB8 JUMP JUMPDEST PUSH1 0x0 DUP1 PUSH1 0x0 DUP1 PUSH1 0x80 DUP6 DUP8 SUB SLT ISZERO PUSH2 0x31F5 JUMPI PUSH1 0x0 DUP1 REVERT JUMPDEST DUP5 CALLDATALOAD PUSH2 0x3200 DUP2 PUSH2 0x2DB8 JUMP JUMPDEST SWAP4 POP PUSH1 0x20 DUP6 ADD CALLDATALOAD PUSH2 0x3210 DUP2 PUSH2 0x2DB8 JUMP JUMPDEST SWAP3 POP PUSH1 0x40 DUP6 ADD CALLDATALOAD PUSH2 0x3220 DUP2 PUSH2 0x2DB8 JUMP JUMPDEST SWAP2 POP PUSH1 0x60 DUP6 ADD CALLDATALOAD PUSH2 0x2F17 DUP2 PUSH2 0x2DB8 JUMP JUMPDEST PUSH1 0x20 DUP1 DUP3 MSTORE PUSH1 0x2C SWAP1 DUP3 ADD MSTORE PUSH32 0x46756E6374696F6E206D7573742062652063616C6C6564207468726F75676820 PUSH1 0x40 DUP3 ADD MSTORE PUSH12 0x19195B1959D85D1958D85B1B PUSH1 0xA2 SHL PUSH1 0x60 DUP3 ADD MSTORE PUSH1 0x80 ADD SWAP1 JUMP JUMPDEST PUSH1 0x20 DUP1 DUP3 MSTORE PUSH1 0x2C SWAP1 DUP3 ADD MSTORE PUSH32 0x46756E6374696F6E206D7573742062652063616C6C6564207468726F75676820 PUSH1 0x40 DUP3 ADD MSTORE PUSH12 0x6163746976652070726F7879 PUSH1 0xA0 SHL PUSH1 0x60 DUP3 ADD MSTORE PUSH1 0x80 ADD SWAP1 JUMP JUMPDEST PUSH1 0x0 PUSH1 0x20 DUP3 DUP5 SUB SLT ISZERO PUSH2 0x32DA JUMPI PUSH1 0x0 DUP1 REVERT JUMPDEST POP MLOAD SWAP2 SWAP1 POP JUMP JUMPDEST PUSH4 0x4E487B71 PUSH1 0xE0 SHL PUSH1 0x0 MSTORE PUSH1 0x32 PUSH1 0x4 MSTORE PUSH1 0x24 PUSH1 0x0 REVERT JUMPDEST PUSH4 0x4E487B71 PUSH1 0xE0 SHL PUSH1 0x0 MSTORE PUSH1 0x11 PUSH1 0x4 MSTORE PUSH1 0x24 PUSH1 0x0 REVERT JUMPDEST DUP1 DUP3 MUL DUP2 ISZERO DUP3 DUP3 DIV DUP5 EQ OR PUSH2 0x2A55 JUMPI PUSH2 0x2A55 PUSH2 0x32F7 JUMP JUMPDEST DUP1 DUP3 ADD DUP1 DUP3 GT ISZERO PUSH2 0x2A55 JUMPI PUSH2 0x2A55 PUSH2 0x32F7 JUMP JUMPDEST PUSH1 0x0 DUP3 PUSH2 0x3354 JUMPI PUSH4 0x4E487B71 PUSH1 0xE0 SHL PUSH1 0x0 MSTORE PUSH1 0x12 PUSH1 0x4 MSTORE PUSH1 0x24 PUSH1 0x0 REVERT JUMPDEST POP DIV SWAP1 JUMP JUMPDEST DUP1 MLOAD DUP1 ISZERO ISZERO DUP2 EQ PUSH2 0x3369 JUMPI PUSH1 0x0 DUP1 REVERT JUMPDEST SWAP2 SWAP1 POP JUMP JUMPDEST PUSH1 0x0 DUP1 PUSH1 0x40 DUP4 DUP6 SUB SLT ISZERO PUSH2 0x3381 JUMPI PUSH1 0x0 DUP1 REVERT JUMPDEST DUP3 MLOAD SWAP2 POP PUSH2 0x3391 PUSH1 0x20 DUP5 ADD PUSH2 0x3359 JUMP JUMPDEST SWAP1 POP SWAP3 POP SWAP3 SWAP1 POP JUMP JUMPDEST PUSH1 0x0 DUP3 DUP2 SIGNEXTEND SWAP1 DUP3 SWAP1 SIGNEXTEND SUB PUSH1 0x7F NOT DUP2 SLT PUSH1 0x7F DUP3 SGT OR ISZERO PUSH2 0x2A55 JUMPI PUSH2 0x2A55 PUSH2 0x32F7 JUMP JUMPDEST PUSH1 0x0 PUSH1 0x20 DUP3 DUP5 SUB SLT ISZERO PUSH2 0x33CD JUMPI PUSH1 0x0 DUP1 REVERT JUMPDEST DUP2 MLOAD PUSH2 0x2C1A DUP2 PUSH2 0x2DB8 JUMP JUMPDEST PUSH1 0x0 DUP1 PUSH1 0x40 DUP4 DUP6 SUB SLT ISZERO PUSH2 0x33EB JUMPI PUSH1 0x0 DUP1 REVERT JUMPDEST POP POP DUP1 MLOAD PUSH1 0x20 SWAP1 SWAP2 ADD MLOAD SWAP1 SWAP3 SWAP1 SWAP2 POP JUMP JUMPDEST DUP2 DUP2 SUB DUP2 DUP2 GT ISZERO PUSH2 0x2A55 JUMPI PUSH2 0x2A55 PUSH2 0x32F7 JUMP JUMPDEST PUSH1 0x1 PUSH1 0x1 PUSH1 0xA0 SHL SUB SWAP5 SWAP1 SWAP5 AND DUP5 MSTORE PUSH1 0x20 DUP5 ADD SWAP3 SWAP1 SWAP3 MSTORE PUSH1 0x40 DUP4 ADD MSTORE PUSH1 0x60 DUP3 ADD MSTORE PUSH1 0x80 ADD SWAP1 JUMP JUMPDEST PUSH1 0x0 PUSH1 0x20 DUP3 DUP5 SUB SLT ISZERO PUSH2 0x3447 JUMPI PUSH1 0x0 DUP1 REVERT JUMPDEST PUSH2 0x2C1A DUP3 PUSH2 0x3359 JUMP JUMPDEST PUSH1 0x1 PUSH1 0x1 PUSH1 0xA0 SHL SUB SWAP4 SWAP1 SWAP4 AND DUP4 MSTORE PUSH1 0x20 DUP4 ADD SWAP2 SWAP1 SWAP2 MSTORE PUSH1 0x40 DUP3 ADD MSTORE PUSH1 0x60 ADD SWAP1 JUMP JUMPDEST PUSH1 0x20 DUP1 DUP3 MSTORE PUSH1 0x2B SWAP1 DUP3 ADD MSTORE PUSH32 0x496E697469616C697A61626C653A20636F6E7472616374206973206E6F742069 PUSH1 0x40 DUP3 ADD MSTORE PUSH11 0x6E697469616C697A696E67 PUSH1 0xA8 SHL PUSH1 0x60 DUP3 ADD MSTORE PUSH1 0x80 ADD SWAP1 JUMP JUMPDEST PUSH1 0x0 JUMPDEST DUP4 DUP2 LT ISZERO PUSH2 0x34D7 JUMPI DUP2 DUP2 ADD MLOAD DUP4 DUP3 ADD MSTORE PUSH1 0x20 ADD PUSH2 0x34BF JUMP JUMPDEST POP POP PUSH1 0x0 SWAP2 ADD MSTORE JUMP JUMPDEST PUSH1 0x0 DUP3 MLOAD PUSH2 0x34F2 DUP2 DUP5 PUSH1 0x20 DUP8 ADD PUSH2 0x34BC JUMP JUMPDEST SWAP2 SWAP1 SWAP2 ADD SWAP3 SWAP2 POP POP JUMP JUMPDEST PUSH1 0x1 DUP2 DUP2 JUMPDEST DUP1 DUP6 GT ISZERO PUSH2 0x3537 JUMPI DUP2 PUSH1 0x0 NOT DIV DUP3 GT ISZERO PUSH2 0x351D JUMPI PUSH2 0x351D PUSH2 0x32F7 JUMP JUMPDEST DUP1 DUP6 AND ISZERO PUSH2 0x352A JUMPI SWAP2 DUP2 MUL SWAP2 JUMPDEST SWAP4 DUP5 SHR SWAP4 SWAP1 DUP1 MUL SWAP1 PUSH2 0x3501 JUMP JUMPDEST POP SWAP3 POP SWAP3 SWAP1 POP JUMP JUMPDEST PUSH1 0x0 DUP3 PUSH2 0x354E JUMPI POP PUSH1 0x1 PUSH2 0x2A55 JUMP JUMPDEST DUP2 PUSH2 0x355B JUMPI POP PUSH1 0x0 PUSH2 0x2A55 JUMP JUMPDEST DUP2 PUSH1 0x1 DUP2 EQ PUSH2 0x3571 JUMPI PUSH1 0x2 DUP2 EQ PUSH2 0x357B JUMPI PUSH2 0x3597 JUMP JUMPDEST PUSH1 0x1 SWAP2 POP POP PUSH2 0x2A55 JUMP JUMPDEST PUSH1 0xFF DUP5 GT ISZERO PUSH2 0x358C JUMPI PUSH2 0x358C PUSH2 0x32F7 JUMP JUMPDEST POP POP PUSH1 0x1 DUP3 SHL PUSH2 0x2A55 JUMP JUMPDEST POP PUSH1 0x20 DUP4 LT PUSH2 0x133 DUP4 LT AND PUSH1 0x4E DUP5 LT PUSH1 0xB DUP5 LT AND OR ISZERO PUSH2 0x35BA JUMPI POP DUP2 DUP2 EXP PUSH2 0x2A55 JUMP JUMPDEST PUSH2 0x35C4 DUP4 DUP4 PUSH2 0x34FC JUMP JUMPDEST DUP1 PUSH1 0x0 NOT DIV DUP3 GT ISZERO PUSH2 0x35D8 JUMPI PUSH2 0x35D8 PUSH2 0x32F7 JUMP JUMPDEST MUL SWAP4 SWAP3 POP POP POP JUMP JUMPDEST PUSH1 0x0 PUSH2 0x2C1A PUSH1 0xFF DUP5 AND DUP4 PUSH2 0x353F JUMP JUMPDEST PUSH1 0x20 DUP2 MSTORE PUSH1 0x0 DUP3 MLOAD DUP1 PUSH1 0x20 DUP5 ADD MSTORE PUSH2 0x360E DUP2 PUSH1 0x40 DUP6 ADD PUSH1 0x20 DUP8 ADD PUSH2 0x34BC JUMP JUMPDEST PUSH1 0x1F ADD PUSH1 0x1F NOT AND SWAP2 SWAP1 SWAP2 ADD PUSH1 0x40 ADD SWAP3 SWAP2 POP POP JUMP INVALID CALLDATASIZE ADDMOD SWAP5 LOG1 EXTCODESIZE LOG1 LOG3 0x21 MOD PUSH8 0xC828492DB98DCA3E KECCAK256 PUSH23 0xCC3735A920A3CA505D382BBC416464726573733A206C6F PUSH24 0x2D6C6576656C2064656C65676174652063616C6C20666169 PUSH13 0x6564A26469706673582212207D AND CREATE2 DUP1 PUSH12 0x28295AD44242DFD8A31B6AFE 0xAB 0xE7 ADDMOD PUSH26 0xE7904EBCD29967B2EB51C464736F6C6343000811003360806040 MSTORE PUSH1 0x40 MLOAD PUSH2 0x727 CODESIZE SUB DUP1 PUSH2 0x727 DUP4 CODECOPY DUP2 ADD PUSH1 0x40 DUP2 SWAP1 MSTORE PUSH2 0x22 SWAP2 PUSH2 0x319 JUMP JUMPDEST PUSH2 0x2E DUP3 DUP3 PUSH1 0x0 PUSH2 0x35 JUMP JUMPDEST POP POP PUSH2 0x436 JUMP JUMPDEST PUSH2 0x3E DUP4 PUSH2 0x6B JUMP JUMPDEST PUSH1 0x0 DUP3 MLOAD GT DUP1 PUSH2 0x4B JUMPI POP DUP1 JUMPDEST ISZERO PUSH2 0x66 JUMPI PUSH2 0x64 DUP4 DUP4 PUSH2 0xAB PUSH1 0x20 SHL PUSH2 0x29 OR PUSH1 0x20 SHR JUMP JUMPDEST POP JUMPDEST POP POP POP JUMP JUMPDEST PUSH2 0x74 DUP2 PUSH2 0xD7 JUMP JUMPDEST PUSH1 0x40 MLOAD PUSH1 0x1 PUSH1 0x1 PUSH1 0xA0 SHL SUB DUP3 AND SWAP1 PUSH32 0xBC7CD75A20EE27FD9ADEBAB32041F755214DBC6BFFA90CC0225B39DA2E5C2D3B SWAP1 PUSH1 0x0 SWAP1 LOG2 POP JUMP JUMPDEST PUSH1 0x60 PUSH2 0xD0 DUP4 DUP4 PUSH1 0x40 MLOAD DUP1 PUSH1 0x60 ADD PUSH1 0x40 MSTORE DUP1 PUSH1 0x27 DUP2 MSTORE PUSH1 0x20 ADD PUSH2 0x700 PUSH1 0x27 SWAP2 CODECOPY PUSH2 0x1A9 JUMP JUMPDEST SWAP4 SWAP3 POP POP POP JUMP JUMPDEST PUSH2 0xEA DUP2 PUSH2 0x222 PUSH1 0x20 SHL PUSH2 0x55 OR PUSH1 0x20 SHR JUMP JUMPDEST PUSH2 0x151 JUMPI PUSH1 0x40 MLOAD PUSH3 0x461BCD PUSH1 0xE5 SHL DUP2 MSTORE PUSH1 0x20 PUSH1 0x4 DUP3 ADD MSTORE PUSH1 0x2D PUSH1 0x24 DUP3 ADD MSTORE PUSH32 0x455243313936373A206E657720696D706C656D656E746174696F6E206973206E PUSH1 0x44 DUP3 ADD MSTORE PUSH13 0x1BDD08184818DBDB9D1C9858DD PUSH1 0x9A SHL PUSH1 0x64 DUP3 ADD MSTORE PUSH1 0x84 ADD JUMPDEST PUSH1 0x40 MLOAD DUP1 SWAP2 SUB SWAP1 REVERT JUMPDEST DUP1 PUSH2 0x188 PUSH32 0x360894A13BA1A3210667C828492DB98DCA3E2076CC3735A920A3CA505D382BBC PUSH1 0x0 SHL PUSH2 0x231 PUSH1 0x20 SHL PUSH2 0x64 OR PUSH1 0x20 SHR JUMP JUMPDEST DUP1 SLOAD PUSH1 0x1 PUSH1 0x1 PUSH1 0xA0 SHL SUB NOT AND PUSH1 0x1 PUSH1 0x1 PUSH1 0xA0 SHL SUB SWAP3 SWAP1 SWAP3 AND SWAP2 SWAP1 SWAP2 OR SWAP1 SSTORE POP JUMP JUMPDEST PUSH1 0x60 PUSH1 0x0 DUP1 DUP6 PUSH1 0x1 PUSH1 0x1 PUSH1 0xA0 SHL SUB AND DUP6 PUSH1 0x40 MLOAD PUSH2 0x1C6 SWAP2 SWAP1 PUSH2 0x3E7 JUMP JUMPDEST PUSH1 0x0 PUSH1 0x40 MLOAD DUP1 DUP4 SUB DUP2 DUP6 GAS DELEGATECALL SWAP2 POP POP RETURNDATASIZE DUP1 PUSH1 0x0 DUP2 EQ PUSH2 0x201 JUMPI PUSH1 0x40 MLOAD SWAP2 POP PUSH1 0x1F NOT PUSH1 0x3F RETURNDATASIZE ADD AND DUP3 ADD PUSH1 0x40 MSTORE RETURNDATASIZE DUP3 MSTORE RETURNDATASIZE PUSH1 0x0 PUSH1 0x20 DUP5 ADD RETURNDATACOPY PUSH2 0x206 JUMP JUMPDEST PUSH1 0x60 SWAP2 POP JUMPDEST POP SWAP1 SWAP3 POP SWAP1 POP PUSH2 0x218 DUP7 DUP4 DUP4 DUP8 PUSH2 0x234 JUMP JUMPDEST SWAP7 SWAP6 POP POP POP POP POP POP JUMP JUMPDEST PUSH1 0x1 PUSH1 0x1 PUSH1 0xA0 SHL SUB AND EXTCODESIZE ISZERO ISZERO SWAP1 JUMP JUMPDEST SWAP1 JUMP JUMPDEST PUSH1 0x60 DUP4 ISZERO PUSH2 0x2A3 JUMPI DUP3 MLOAD PUSH1 0x0 SUB PUSH2 0x29C JUMPI PUSH1 0x1 PUSH1 0x1 PUSH1 0xA0 SHL SUB DUP6 AND EXTCODESIZE PUSH2 0x29C JUMPI PUSH1 0x40 MLOAD PUSH3 0x461BCD PUSH1 0xE5 SHL DUP2 MSTORE PUSH1 0x20 PUSH1 0x4 DUP3 ADD MSTORE PUSH1 0x1D PUSH1 0x24 DUP3 ADD MSTORE PUSH32 0x416464726573733A2063616C6C20746F206E6F6E2D636F6E7472616374000000 PUSH1 0x44 DUP3 ADD MSTORE PUSH1 0x64 ADD PUSH2 0x148 JUMP JUMPDEST POP DUP2 PUSH2 0x2AD JUMP JUMPDEST PUSH2 0x2AD DUP4 DUP4 PUSH2 0x2B5 JUMP JUMPDEST SWAP5 SWAP4 POP POP POP POP JUMP JUMPDEST DUP2 MLOAD ISZERO PUSH2 0x2C5 JUMPI DUP2 MLOAD DUP1 DUP4 PUSH1 0x20 ADD REVERT JUMPDEST DUP1 PUSH1 0x40 MLOAD PUSH3 0x461BCD PUSH1 0xE5 SHL DUP2 MSTORE PUSH1 0x4 ADD PUSH2 0x148 SWAP2 SWAP1 PUSH2 0x403 JUMP JUMPDEST PUSH4 0x4E487B71 PUSH1 0xE0 SHL PUSH1 0x0 MSTORE PUSH1 0x41 PUSH1 0x4 MSTORE PUSH1 0x24 PUSH1 0x0 REVERT JUMPDEST PUSH1 0x0 JUMPDEST DUP4 DUP2 LT ISZERO PUSH2 0x310 JUMPI DUP2 DUP2 ADD MLOAD DUP4 DUP3 ADD MSTORE PUSH1 0x20 ADD PUSH2 0x2F8 JUMP JUMPDEST POP POP PUSH1 0x0 SWAP2 ADD MSTORE JUMP JUMPDEST PUSH1 0x0 DUP1 PUSH1 0x40 DUP4 DUP6 SUB SLT ISZERO PUSH2 0x32C JUMPI PUSH1 0x0 DUP1 REVERT JUMPDEST DUP3 MLOAD PUSH1 0x1 PUSH1 0x1 PUSH1 0xA0 SHL SUB DUP2 AND DUP2 EQ PUSH2 0x343 JUMPI PUSH1 0x0 DUP1 REVERT JUMPDEST PUSH1 0x20 DUP5 ADD MLOAD SWAP1 SWAP3 POP PUSH1 0x1 PUSH1 0x1 PUSH1 0x40 SHL SUB DUP1 DUP3 GT ISZERO PUSH2 0x360 JUMPI PUSH1 0x0 DUP1 REVERT JUMPDEST DUP2 DUP6 ADD SWAP2 POP DUP6 PUSH1 0x1F DUP4 ADD SLT PUSH2 0x374 JUMPI PUSH1 0x0 DUP1 REVERT JUMPDEST DUP2 MLOAD DUP2 DUP2 GT ISZERO PUSH2 0x386 JUMPI PUSH2 0x386 PUSH2 0x2DF JUMP JUMPDEST PUSH1 0x40 MLOAD PUSH1 0x1F DUP3 ADD PUSH1 0x1F NOT SWAP1 DUP2 AND PUSH1 0x3F ADD AND DUP2 ADD SWAP1 DUP4 DUP3 GT DUP2 DUP4 LT OR ISZERO PUSH2 0x3AE JUMPI PUSH2 0x3AE PUSH2 0x2DF JUMP JUMPDEST DUP2 PUSH1 0x40 MSTORE DUP3 DUP2 MSTORE DUP9 PUSH1 0x20 DUP5 DUP8 ADD ADD GT ISZERO PUSH2 0x3C7 JUMPI PUSH1 0x0 DUP1 REVERT JUMPDEST PUSH2 0x3D8 DUP4 PUSH1 0x20 DUP4 ADD PUSH1 0x20 DUP9 ADD PUSH2 0x2F5 JUMP JUMPDEST DUP1 SWAP6 POP POP POP POP POP POP SWAP3 POP SWAP3 SWAP1 POP JUMP JUMPDEST PUSH1 0x0 DUP3 MLOAD PUSH2 0x3F9 DUP2 DUP5 PUSH1 0x20 DUP8 ADD PUSH2 0x2F5 JUMP JUMPDEST SWAP2 SWAP1 SWAP2 ADD SWAP3 SWAP2 POP POP JUMP JUMPDEST PUSH1 0x20 DUP2 MSTORE PUSH1 0x0 DUP3 MLOAD DUP1 PUSH1 0x20 DUP5 ADD MSTORE PUSH2 0x422 DUP2 PUSH1 0x40 DUP6 ADD PUSH1 0x20 DUP8 ADD PUSH2 0x2F5 JUMP JUMPDEST PUSH1 0x1F ADD PUSH1 0x1F NOT AND SWAP2 SWAP1 SWAP2 ADD PUSH1 0x40 ADD SWAP3 SWAP2 POP POP JUMP JUMPDEST PUSH2 0x2BB DUP1 PUSH2 0x445 PUSH1 0x0 CODECOPY PUSH1 0x0 RETURN INVALID PUSH1 0x80 PUSH1 0x40 MSTORE CALLDATASIZE PUSH2 0x13 JUMPI PUSH2 0x11 PUSH2 0x17 JUMP JUMPDEST STOP JUMPDEST PUSH2 0x11 JUMPDEST PUSH2 0x27 PUSH2 0x22 PUSH2 0x67 JUMP JUMPDEST PUSH2 0x9F JUMP JUMPDEST JUMP JUMPDEST PUSH1 0x60 PUSH2 0x4E DUP4 DUP4 PUSH1 0x40 MLOAD DUP1 PUSH1 0x60 ADD PUSH1 0x40 MSTORE DUP1 PUSH1 0x27 DUP2 MSTORE PUSH1 0x20 ADD PUSH2 0x25F PUSH1 0x27 SWAP2 CODECOPY PUSH2 0xC3 JUMP JUMPDEST SWAP4 SWAP3 POP POP POP JUMP JUMPDEST PUSH1 0x1 PUSH1 0x1 PUSH1 0xA0 SHL SUB AND EXTCODESIZE ISZERO ISZERO SWAP1 JUMP JUMPDEST SWAP1 JUMP JUMPDEST PUSH1 0x0 PUSH2 0x9A PUSH32 0x360894A13BA1A3210667C828492DB98DCA3E2076CC3735A920A3CA505D382BBC SLOAD PUSH1 0x1 PUSH1 0x1 PUSH1 0xA0 SHL SUB AND SWAP1 JUMP JUMPDEST SWAP1 POP SWAP1 JUMP JUMPDEST CALLDATASIZE PUSH1 0x0 DUP1 CALLDATACOPY PUSH1 0x0 DUP1 CALLDATASIZE PUSH1 0x0 DUP5 GAS DELEGATECALL RETURNDATASIZE PUSH1 0x0 DUP1 RETURNDATACOPY DUP1 DUP1 ISZERO PUSH2 0xBE JUMPI RETURNDATASIZE PUSH1 0x0 RETURN JUMPDEST RETURNDATASIZE PUSH1 0x0 REVERT JUMPDEST PUSH1 0x60 PUSH1 0x0 DUP1 DUP6 PUSH1 0x1 PUSH1 0x1 PUSH1 0xA0 SHL SUB AND DUP6 PUSH1 0x40 MLOAD PUSH2 0xE0 SWAP2 SWAP1 PUSH2 0x20F JUMP JUMPDEST PUSH1 0x0 PUSH1 0x40 MLOAD DUP1 DUP4 SUB DUP2 DUP6 GAS DELEGATECALL SWAP2 POP POP RETURNDATASIZE DUP1 PUSH1 0x0 DUP2 EQ PUSH2 0x11B JUMPI PUSH1 0x40 MLOAD SWAP2 POP PUSH1 0x1F NOT PUSH1 0x3F RETURNDATASIZE ADD AND DUP3 ADD PUSH1 0x40 MSTORE RETURNDATASIZE DUP3 MSTORE RETURNDATASIZE PUSH1 0x0 PUSH1 0x20 DUP5 ADD RETURNDATACOPY PUSH2 0x120 JUMP JUMPDEST PUSH1 0x60 SWAP2 POP JUMPDEST POP SWAP2 POP SWAP2 POP PUSH2 0x131 DUP7 DUP4 DUP4 DUP8 PUSH2 0x13B JUMP JUMPDEST SWAP7 SWAP6 POP POP POP POP POP POP JUMP JUMPDEST PUSH1 0x60 DUP4 ISZERO PUSH2 0x1AF JUMPI DUP3 MLOAD PUSH1 0x0 SUB PUSH2 0x1A8 JUMPI PUSH1 0x1 PUSH1 0x1 PUSH1 0xA0 SHL SUB DUP6 AND EXTCODESIZE PUSH2 0x1A8 JUMPI PUSH1 0x40 MLOAD PUSH3 0x461BCD PUSH1 0xE5 SHL DUP2 MSTORE PUSH1 0x20 PUSH1 0x4 DUP3 ADD MSTORE PUSH1 0x1D PUSH1 0x24 DUP3 ADD MSTORE PUSH32 0x416464726573733A2063616C6C20746F206E6F6E2D636F6E7472616374000000 PUSH1 0x44 DUP3 ADD MSTORE PUSH1 0x64 ADD JUMPDEST PUSH1 0x40 MLOAD DUP1 SWAP2 SUB SWAP1 REVERT JUMPDEST POP DUP2 PUSH2 0x1B9 JUMP JUMPDEST PUSH2 0x1B9 DUP4 DUP4 PUSH2 0x1C1 JUMP JUMPDEST SWAP5 SWAP4 POP POP POP POP JUMP JUMPDEST DUP2 MLOAD ISZERO PUSH2 0x1D1 JUMPI DUP2 MLOAD DUP1 DUP4 PUSH1 0x20 ADD REVERT JUMPDEST DUP1 PUSH1 0x40 MLOAD PUSH3 0x461BCD PUSH1 0xE5 SHL DUP2 MSTORE PUSH1 0x4 ADD PUSH2 0x19F SWAP2 SWAP1 PUSH2 0x22B JUMP JUMPDEST PUSH1 0x0 JUMPDEST DUP4 DUP2 LT ISZERO PUSH2 0x206 JUMPI DUP2 DUP2 ADD MLOAD DUP4 DUP3 ADD MSTORE PUSH1 0x20 ADD PUSH2 0x1EE JUMP JUMPDEST POP POP PUSH1 0x0 SWAP2 ADD MSTORE JUMP JUMPDEST PUSH1 0x0 DUP3 MLOAD PUSH2 0x221 DUP2 DUP5 PUSH1 0x20 DUP8 ADD PUSH2 0x1EB JUMP JUMPDEST SWAP2 SWAP1 SWAP2 ADD SWAP3 SWAP2 POP POP JUMP JUMPDEST PUSH1 0x20 DUP2 MSTORE PUSH1 0x0 DUP3 MLOAD DUP1 PUSH1 0x20 DUP5 ADD MSTORE PUSH2 0x24A DUP2 PUSH1 0x40 DUP6 ADD PUSH1 0x20 DUP8 ADD PUSH2 0x1EB JUMP JUMPDEST PUSH1 0x1F ADD PUSH1 0x1F NOT AND SWAP2 SWAP1 SWAP2 ADD PUSH1 0x40 ADD SWAP3 SWAP2 POP POP JUMP INVALID COINBASE PUSH5 0x6472657373 GASPRICE KECCAK256 PUSH13 0x6F772D6C6576656C2064656C65 PUSH8 0x6174652063616C6C KECCAK256 PUSH7 0x61696C6564A264 PUSH10 0x70667358221220687BC6 0x5F PUSH21 0x2577AFA32EDC32468487A306093FAD2F395880FA5F STATICCALL 0x4E 0xFC 0x5F 0xDD PUSH1 0x64 PUSH20 0x6F6C63430008110033416464726573733A206C6F PUSH24 0x2D6C6576656C2064656C65676174652063616C6C20666169 PUSH13 0x656460A0604052306080523480 ISZERO PUSH2 0x14 JUMPI PUSH1 0x0 DUP1 REVERT JUMPDEST POP PUSH2 0x1D PUSH2 0x22 JUMP JUMPDEST PUSH2 0xE2 JUMP JUMPDEST PUSH1 0x0 SLOAD PUSH2 0x100 SWAP1 DIV PUSH1 0xFF AND ISZERO PUSH2 0x8E JUMPI PUSH1 0x40 MLOAD PUSH3 0x461BCD PUSH1 0xE5 SHL DUP2 MSTORE PUSH1 0x20 PUSH1 0x4 DUP3 ADD MSTORE PUSH1 0x27 PUSH1 0x24 DUP3 ADD MSTORE PUSH32 0x496E697469616C697A61626C653A20636F6E747261637420697320696E697469 PUSH1 0x44 DUP3 ADD MSTORE PUSH7 0x616C697A696E67 PUSH1 0xC8 SHL PUSH1 0x64 DUP3 ADD MSTORE PUSH1 0x84 ADD PUSH1 0x40 MLOAD DUP1 SWAP2 SUB SWAP1 REVERT JUMPDEST PUSH1 0x0 SLOAD PUSH1 0xFF SWAP1 DUP2 AND LT ISZERO PUSH2 0xE0 JUMPI PUSH1 0x0 DUP1 SLOAD PUSH1 0xFF NOT AND PUSH1 0xFF SWAP1 DUP2 OR SWAP1 SWAP2 SSTORE PUSH1 0x40 MLOAD SWAP1 DUP2 MSTORE PUSH32 0x7F26B83FF96E1F2B6A682F133852F6798A09C465DA95921460CEFB3847402498 SWAP1 PUSH1 0x20 ADD PUSH1 0x40 MLOAD DUP1 SWAP2 SUB SWAP1 LOG1 JUMPDEST JUMP JUMPDEST PUSH1 0x80 MLOAD PUSH2 0x24DB PUSH3 0x11A PUSH1 0x0 CODECOPY PUSH1 0x0 DUP2 DUP2 PUSH2 0x798 ADD MSTORE DUP2 DUP2 PUSH2 0x7D8 ADD MSTORE DUP2 DUP2 PUSH2 0x8BB ADD MSTORE DUP2 DUP2 PUSH2 0x8FB ADD MSTORE PUSH2 0x98A ADD MSTORE PUSH2 0x24DB PUSH1 0x0 RETURN INVALID PUSH1 0x80 PUSH1 0x40 MSTORE PUSH1 0x4 CALLDATASIZE LT PUSH2 0x1D8 JUMPI PUSH1 0x0 CALLDATALOAD PUSH1 0xE0 SHR DUP1 PUSH4 0x52D1902D GT PUSH2 0x102 JUMPI DUP1 PUSH4 0xA457C2D7 GT PUSH2 0x95 JUMPI DUP1 PUSH4 0xD547741F GT PUSH2 0x64 JUMPI DUP1 PUSH4 0xD547741F EQ PUSH2 0x566 JUMPI DUP1 PUSH4 0xD55FD845 EQ PUSH2 0x586 JUMPI DUP1 PUSH4 0xDD62ED3E EQ PUSH2 0x5A6 JUMPI DUP1 PUSH4 0xE4C0AAF4 EQ PUSH2 0x5C6 JUMPI PUSH1 0x0 DUP1 REVERT JUMPDEST DUP1 PUSH4 0xA457C2D7 EQ PUSH2 0x4E4 JUMPI DUP1 PUSH4 0xA9059CBB EQ PUSH2 0x504 JUMPI DUP1 PUSH4 0xCA15C873 EQ PUSH2 0x524 JUMPI DUP1 PUSH4 0xD5391393 EQ PUSH2 0x544 JUMPI PUSH1 0x0 DUP1 REVERT JUMPDEST DUP1 PUSH4 0x91D14854 GT PUSH2 0xD1 JUMPI DUP1 PUSH4 0x91D14854 EQ PUSH2 0x47A JUMPI DUP1 PUSH4 0x95D89B41 EQ PUSH2 0x49A JUMPI DUP1 PUSH4 0x9DC29FAC EQ PUSH2 0x4AF JUMPI DUP1 PUSH4 0xA217FDDF EQ PUSH2 0x4CF JUMPI PUSH1 0x0 DUP1 REVERT JUMPDEST DUP1 PUSH4 0x52D1902D EQ PUSH2 0x3EF JUMPI DUP1 PUSH4 0x70A08231 EQ PUSH2 0x404 JUMPI DUP1 PUSH4 0x8F15B414 EQ PUSH2 0x43A JUMPI DUP1 PUSH4 0x9010D07C EQ PUSH2 0x45A JUMPI PUSH1 0x0 DUP1 REVERT JUMPDEST DUP1 PUSH4 0x282C51F3 GT PUSH2 0x17A JUMPI DUP1 PUSH4 0x3659CFE6 GT PUSH2 0x149 JUMPI DUP1 PUSH4 0x3659CFE6 EQ PUSH2 0x37C JUMPI DUP1 PUSH4 0x39509351 EQ PUSH2 0x39C JUMPI DUP1 PUSH4 0x40C10F19 EQ PUSH2 0x3BC JUMPI DUP1 PUSH4 0x4F1EF286 EQ PUSH2 0x3DC JUMPI PUSH1 0x0 DUP1 REVERT JUMPDEST DUP1 PUSH4 0x282C51F3 EQ PUSH2 0x2FC JUMPI DUP1 PUSH4 0x2F2FF15D EQ PUSH2 0x31E JUMPI DUP1 PUSH4 0x313CE567 EQ PUSH2 0x340 JUMPI DUP1 PUSH4 0x36568ABE EQ PUSH2 0x35C JUMPI PUSH1 0x0 DUP1 REVERT JUMPDEST DUP1 PUSH4 0xC340A24 GT PUSH2 0x1B6 JUMPI DUP1 PUSH4 0xC340A24 EQ PUSH2 0x254 JUMPI DUP1 PUSH4 0x18160DDD EQ PUSH2 0x28D JUMPI DUP1 PUSH4 0x23B872DD EQ PUSH2 0x2AC JUMPI DUP1 PUSH4 0x248A9CA3 EQ PUSH2 0x2CC JUMPI PUSH1 0x0 DUP1 REVERT JUMPDEST DUP1 PUSH4 0x1FFC9A7 EQ PUSH2 0x1DD JUMPI DUP1 PUSH4 0x6FDDE03 EQ PUSH2 0x212 JUMPI DUP1 PUSH4 0x95EA7B3 EQ PUSH2 0x234 JUMPI JUMPDEST PUSH1 0x0 DUP1 REVERT JUMPDEST CALLVALUE DUP1 ISZERO PUSH2 0x1E9 JUMPI PUSH1 0x0 DUP1 REVERT JUMPDEST POP PUSH2 0x1FD PUSH2 0x1F8 CALLDATASIZE PUSH1 0x4 PUSH2 0x1D3F JUMP JUMPDEST PUSH2 0x5E6 JUMP JUMPDEST PUSH1 0x40 MLOAD SWAP1 ISZERO ISZERO DUP2 MSTORE PUSH1 0x20 ADD JUMPDEST PUSH1 0x40 MLOAD DUP1 SWAP2 SUB SWAP1 RETURN JUMPDEST CALLVALUE DUP1 ISZERO PUSH2 0x21E JUMPI PUSH1 0x0 DUP1 REVERT JUMPDEST POP PUSH2 0x227 PUSH2 0x611 JUMP JUMPDEST PUSH1 0x40 MLOAD PUSH2 0x209 SWAP2 SWAP1 PUSH2 0x1D8D JUMP JUMPDEST CALLVALUE DUP1 ISZERO PUSH2 0x240 JUMPI PUSH1 0x0 DUP1 REVERT JUMPDEST POP PUSH2 0x1FD PUSH2 0x24F CALLDATASIZE PUSH1 0x4 PUSH2 0x1DD5 JUMP JUMPDEST PUSH2 0x6A3 JUMP JUMPDEST CALLVALUE DUP1 ISZERO PUSH2 0x260 JUMPI PUSH1 0x0 DUP1 REVERT JUMPDEST POP PUSH2 0x191 SLOAD PUSH2 0x275 SWAP1 PUSH1 0x1 PUSH1 0x1 PUSH1 0xA0 SHL SUB AND DUP2 JUMP JUMPDEST PUSH1 0x40 MLOAD PUSH1 0x1 PUSH1 0x1 PUSH1 0xA0 SHL SUB SWAP1 SWAP2 AND DUP2 MSTORE PUSH1 0x20 ADD PUSH2 0x209 JUMP JUMPDEST CALLVALUE DUP1 ISZERO PUSH2 0x299 JUMPI PUSH1 0x0 DUP1 REVERT JUMPDEST POP PUSH1 0xCB SLOAD JUMPDEST PUSH1 0x40 MLOAD SWAP1 DUP2 MSTORE PUSH1 0x20 ADD PUSH2 0x209 JUMP JUMPDEST CALLVALUE DUP1 ISZERO PUSH2 0x2B8 JUMPI PUSH1 0x0 DUP1 REVERT JUMPDEST POP PUSH2 0x1FD PUSH2 0x2C7 CALLDATASIZE PUSH1 0x4 PUSH2 0x1E01 JUMP JUMPDEST PUSH2 0x6BB JUMP JUMPDEST CALLVALUE DUP1 ISZERO PUSH2 0x2D8 JUMPI PUSH1 0x0 DUP1 REVERT JUMPDEST POP PUSH2 0x29E PUSH2 0x2E7 CALLDATASIZE PUSH1 0x4 PUSH2 0x1E42 JUMP JUMPDEST PUSH1 0x0 SWAP1 DUP2 MSTORE PUSH1 0x65 PUSH1 0x20 MSTORE PUSH1 0x40 SWAP1 KECCAK256 PUSH1 0x1 ADD SLOAD SWAP1 JUMP JUMPDEST CALLVALUE DUP1 ISZERO PUSH2 0x308 JUMPI PUSH1 0x0 DUP1 REVERT JUMPDEST POP PUSH2 0x29E PUSH1 0x0 DUP1 MLOAD PUSH1 0x20 PUSH2 0x241F DUP4 CODECOPY DUP2 MLOAD SWAP2 MSTORE DUP2 JUMP JUMPDEST CALLVALUE DUP1 ISZERO PUSH2 0x32A JUMPI PUSH1 0x0 DUP1 REVERT JUMPDEST POP PUSH2 0x33E PUSH2 0x339 CALLDATASIZE PUSH1 0x4 PUSH2 0x1E5B JUMP JUMPDEST PUSH2 0x6E1 JUMP JUMPDEST STOP JUMPDEST CALLVALUE DUP1 ISZERO PUSH2 0x34C JUMPI PUSH1 0x0 DUP1 REVERT JUMPDEST POP PUSH1 0x40 MLOAD PUSH1 0x12 DUP2 MSTORE PUSH1 0x20 ADD PUSH2 0x209 JUMP JUMPDEST CALLVALUE DUP1 ISZERO PUSH2 0x368 JUMPI PUSH1 0x0 DUP1 REVERT JUMPDEST POP PUSH2 0x33E PUSH2 0x377 CALLDATASIZE PUSH1 0x4 PUSH2 0x1E5B JUMP JUMPDEST PUSH2 0x70B JUMP JUMPDEST CALLVALUE DUP1 ISZERO PUSH2 0x388 JUMPI PUSH1 0x0 DUP1 REVERT JUMPDEST POP PUSH2 0x33E PUSH2 0x397 CALLDATASIZE PUSH1 0x4 PUSH2 0x1E8B JUMP JUMPDEST PUSH2 0x78E JUMP JUMPDEST CALLVALUE DUP1 ISZERO PUSH2 0x3A8 JUMPI PUSH1 0x0 DUP1 REVERT JUMPDEST POP PUSH2 0x1FD PUSH2 0x3B7 CALLDATASIZE PUSH1 0x4 PUSH2 0x1DD5 JUMP JUMPDEST PUSH2 0x86D JUMP JUMPDEST CALLVALUE DUP1 ISZERO PUSH2 0x3C8 JUMPI PUSH1 0x0 DUP1 REVERT JUMPDEST POP PUSH2 0x33E PUSH2 0x3D7 CALLDATASIZE PUSH1 0x4 PUSH2 0x1DD5 JUMP JUMPDEST PUSH2 0x88F JUMP JUMPDEST PUSH2 0x33E PUSH2 0x3EA CALLDATASIZE PUSH1 0x4 PUSH2 0x1F34 JUMP JUMPDEST PUSH2 0x8B1 JUMP JUMPDEST CALLVALUE DUP1 ISZERO PUSH2 0x3FB JUMPI PUSH1 0x0 DUP1 REVERT JUMPDEST POP PUSH2 0x29E PUSH2 0x97D JUMP JUMPDEST CALLVALUE DUP1 ISZERO PUSH2 0x410 JUMPI PUSH1 0x0 DUP1 REVERT JUMPDEST POP PUSH2 0x29E PUSH2 0x41F CALLDATASIZE PUSH1 0x4 PUSH2 0x1E8B JUMP JUMPDEST PUSH1 0x1 PUSH1 0x1 PUSH1 0xA0 SHL SUB AND PUSH1 0x0 SWAP1 DUP2 MSTORE PUSH1 0xC9 PUSH1 0x20 MSTORE PUSH1 0x40 SWAP1 KECCAK256 SLOAD SWAP1 JUMP JUMPDEST CALLVALUE DUP1 ISZERO PUSH2 0x446 JUMPI PUSH1 0x0 DUP1 REVERT JUMPDEST POP PUSH2 0x33E PUSH2 0x455 CALLDATASIZE PUSH1 0x4 PUSH2 0x1FB8 JUMP JUMPDEST PUSH2 0xA30 JUMP JUMPDEST CALLVALUE DUP1 ISZERO PUSH2 0x466 JUMPI PUSH1 0x0 DUP1 REVERT JUMPDEST POP PUSH2 0x275 PUSH2 0x475 CALLDATASIZE PUSH1 0x4 PUSH2 0x2041 JUMP JUMPDEST PUSH2 0xB49 JUMP JUMPDEST CALLVALUE DUP1 ISZERO PUSH2 0x486 JUMPI PUSH1 0x0 DUP1 REVERT JUMPDEST POP PUSH2 0x1FD PUSH2 0x495 CALLDATASIZE PUSH1 0x4 PUSH2 0x1E5B JUMP JUMPDEST PUSH2 0xB61 JUMP JUMPDEST CALLVALUE DUP1 ISZERO PUSH2 0x4A6 JUMPI PUSH1 0x0 DUP1 REVERT JUMPDEST POP PUSH2 0x227 PUSH2 0xB8C JUMP JUMPDEST CALLVALUE DUP1 ISZERO PUSH2 0x4BB JUMPI PUSH1 0x0 DUP1 REVERT JUMPDEST POP PUSH2 0x33E PUSH2 0x4CA CALLDATASIZE PUSH1 0x4 PUSH2 0x1DD5 JUMP JUMPDEST PUSH2 0xB9B JUMP JUMPDEST CALLVALUE DUP1 ISZERO PUSH2 0x4DB JUMPI PUSH1 0x0 DUP1 REVERT JUMPDEST POP PUSH2 0x29E PUSH1 0x0 DUP2 JUMP JUMPDEST CALLVALUE DUP1 ISZERO PUSH2 0x4F0 JUMPI PUSH1 0x0 DUP1 REVERT JUMPDEST POP PUSH2 0x1FD PUSH2 0x4FF CALLDATASIZE PUSH1 0x4 PUSH2 0x1DD5 JUMP JUMPDEST PUSH2 0xBBD JUMP JUMPDEST CALLVALUE DUP1 ISZERO PUSH2 0x510 JUMPI PUSH1 0x0 DUP1 REVERT JUMPDEST POP PUSH2 0x1FD PUSH2 0x51F CALLDATASIZE PUSH1 0x4 PUSH2 0x1DD5 JUMP JUMPDEST PUSH2 0xC43 JUMP JUMPDEST CALLVALUE DUP1 ISZERO PUSH2 0x530 JUMPI PUSH1 0x0 DUP1 REVERT JUMPDEST POP PUSH2 0x29E PUSH2 0x53F CALLDATASIZE PUSH1 0x4 PUSH2 0x1E42 JUMP JUMPDEST PUSH2 0xC51 JUMP JUMPDEST CALLVALUE DUP1 ISZERO PUSH2 0x550 JUMPI PUSH1 0x0 DUP1 REVERT JUMPDEST POP PUSH2 0x29E PUSH1 0x0 DUP1 MLOAD PUSH1 0x20 PUSH2 0x2486 DUP4 CODECOPY DUP2 MLOAD SWAP2 MSTORE DUP2 JUMP JUMPDEST CALLVALUE DUP1 ISZERO PUSH2 0x572 JUMPI PUSH1 0x0 DUP1 REVERT JUMPDEST POP PUSH2 0x33E PUSH2 0x581 CALLDATASIZE PUSH1 0x4 PUSH2 0x1E5B JUMP JUMPDEST PUSH2 0xC68 JUMP JUMPDEST CALLVALUE DUP1 ISZERO PUSH2 0x592 JUMPI PUSH1 0x0 DUP1 REVERT JUMPDEST POP PUSH2 0x1FD PUSH2 0x5A1 CALLDATASIZE PUSH1 0x4 PUSH2 0x1E8B JUMP JUMPDEST PUSH2 0xC8D JUMP JUMPDEST CALLVALUE DUP1 ISZERO PUSH2 0x5B2 JUMPI PUSH1 0x0 DUP1 REVERT JUMPDEST POP PUSH2 0x29E PUSH2 0x5C1 CALLDATASIZE PUSH1 0x4 PUSH2 0x2063 JUMP JUMPDEST PUSH2 0xCD8 JUMP JUMPDEST CALLVALUE DUP1 ISZERO PUSH2 0x5D2 JUMPI PUSH1 0x0 DUP1 REVERT JUMPDEST POP PUSH2 0x33E PUSH2 0x5E1 CALLDATASIZE PUSH1 0x4 PUSH2 0x1E8B JUMP JUMPDEST PUSH2 0xD03 JUMP JUMPDEST PUSH1 0x0 PUSH1 0x1 PUSH1 0x1 PUSH1 0xE0 SHL SUB NOT DUP3 AND PUSH4 0x5A05180F PUSH1 0xE0 SHL EQ DUP1 PUSH2 0x60B JUMPI POP PUSH2 0x60B DUP3 PUSH2 0xD2E JUMP JUMPDEST SWAP3 SWAP2 POP POP JUMP JUMPDEST PUSH1 0x60 PUSH1 0xCC DUP1 SLOAD PUSH2 0x620 SWAP1 PUSH2 0x2091 JUMP JUMPDEST DUP1 PUSH1 0x1F ADD PUSH1 0x20 DUP1 SWAP2 DIV MUL PUSH1 0x20 ADD PUSH1 0x40 MLOAD SWAP1 DUP2 ADD PUSH1 0x40 MSTORE DUP1 SWAP3 SWAP2 SWAP1 DUP2 DUP2 MSTORE PUSH1 0x20 ADD DUP3 DUP1 SLOAD PUSH2 0x64C SWAP1 PUSH2 0x2091 JUMP JUMPDEST DUP1 ISZERO PUSH2 0x699 JUMPI DUP1 PUSH1 0x1F LT PUSH2 0x66E JUMPI PUSH2 0x100 DUP1 DUP4 SLOAD DIV MUL DUP4 MSTORE SWAP2 PUSH1 0x20 ADD SWAP2 PUSH2 0x699 JUMP JUMPDEST DUP3 ADD SWAP2 SWAP1 PUSH1 0x0 MSTORE PUSH1 0x20 PUSH1 0x0 KECCAK256 SWAP1 JUMPDEST DUP2 SLOAD DUP2 MSTORE SWAP1 PUSH1 0x1 ADD SWAP1 PUSH1 0x20 ADD DUP1 DUP4 GT PUSH2 0x67C JUMPI DUP3 SWAP1 SUB PUSH1 0x1F AND DUP3 ADD SWAP2 JUMPDEST POP POP POP POP POP SWAP1 POP SWAP1 JUMP JUMPDEST PUSH1 0x0 CALLER PUSH2 0x6B1 DUP2 DUP6 DUP6 PUSH2 0xD63 JUMP JUMPDEST POP PUSH1 0x1 SWAP4 SWAP3 POP POP POP JUMP JUMPDEST PUSH1 0x0 CALLER PUSH2 0x6C9 DUP6 DUP3 DUP6 PUSH2 0xE87 JUMP JUMPDEST PUSH2 0x6D4 DUP6 DUP6 DUP6 PUSH2 0xF01 JUMP JUMPDEST PUSH1 0x1 SWAP2 POP POP JUMPDEST SWAP4 SWAP3 POP POP POP JUMP JUMPDEST PUSH1 0x0 DUP3 DUP2 MSTORE PUSH1 0x65 PUSH1 0x20 MSTORE PUSH1 0x40 SWAP1 KECCAK256 PUSH1 0x1 ADD SLOAD PUSH2 0x6FC DUP2 PUSH2 0x10AC JUMP JUMPDEST PUSH2 0x706 DUP4 DUP4 PUSH2 0x10B6 JUMP JUMPDEST POP POP POP JUMP JUMPDEST PUSH1 0x1 PUSH1 0x1 PUSH1 0xA0 SHL SUB DUP2 AND CALLER EQ PUSH2 0x780 JUMPI PUSH1 0x40 MLOAD PUSH3 0x461BCD PUSH1 0xE5 SHL DUP2 MSTORE PUSH1 0x20 PUSH1 0x4 DUP3 ADD MSTORE PUSH1 0x2F PUSH1 0x24 DUP3 ADD MSTORE PUSH32 0x416363657373436F6E74726F6C3A2063616E206F6E6C792072656E6F756E6365 PUSH1 0x44 DUP3 ADD MSTORE PUSH15 0x103937B632B9903337B91039B2B633 PUSH1 0x89 SHL PUSH1 0x64 DUP3 ADD MSTORE PUSH1 0x84 ADD JUMPDEST PUSH1 0x40 MLOAD DUP1 SWAP2 SUB SWAP1 REVERT JUMPDEST PUSH2 0x78A DUP3 DUP3 PUSH2 0x10D8 JUMP JUMPDEST POP POP JUMP JUMPDEST PUSH1 0x1 PUSH1 0x1 PUSH1 0xA0 SHL SUB PUSH32 0x0 AND ADDRESS SUB PUSH2 0x7D6 JUMPI PUSH1 0x40 MLOAD PUSH3 0x461BCD PUSH1 0xE5 SHL DUP2 MSTORE PUSH1 0x4 ADD PUSH2 0x777 SWAP1 PUSH2 0x20CB JUMP JUMPDEST PUSH32 0x0 PUSH1 0x1 PUSH1 0x1 PUSH1 0xA0 SHL SUB AND PUSH2 0x81F PUSH1 0x0 DUP1 MLOAD PUSH1 0x20 PUSH2 0x243F DUP4 CODECOPY DUP2 MLOAD SWAP2 MSTORE SLOAD PUSH1 0x1 PUSH1 0x1 PUSH1 0xA0 SHL SUB AND SWAP1 JUMP JUMPDEST PUSH1 0x1 PUSH1 0x1 PUSH1 0xA0 SHL SUB AND EQ PUSH2 0x845 JUMPI PUSH1 0x40 MLOAD PUSH3 0x461BCD PUSH1 0xE5 SHL DUP2 MSTORE PUSH1 0x4 ADD PUSH2 0x777 SWAP1 PUSH2 0x2117 JUMP JUMPDEST PUSH2 0x84E DUP2 PUSH2 0x10FA JUMP JUMPDEST PUSH1 0x40 DUP1 MLOAD PUSH1 0x0 DUP1 DUP3 MSTORE PUSH1 0x20 DUP3 ADD SWAP1 SWAP3 MSTORE PUSH2 0x86A SWAP2 DUP4 SWAP2 SWAP1 PUSH2 0x1102 JUMP JUMPDEST POP JUMP JUMPDEST PUSH1 0x0 CALLER PUSH2 0x6B1 DUP2 DUP6 DUP6 PUSH2 0x880 DUP4 DUP4 PUSH2 0xCD8 JUMP JUMPDEST PUSH2 0x88A SWAP2 SWAP1 PUSH2 0x2179 JUMP JUMPDEST PUSH2 0xD63 JUMP JUMPDEST PUSH1 0x0 DUP1 MLOAD PUSH1 0x20 PUSH2 0x2486 DUP4 CODECOPY DUP2 MLOAD SWAP2 MSTORE PUSH2 0x8A7 DUP2 PUSH2 0x10AC JUMP JUMPDEST PUSH2 0x706 DUP4 DUP4 PUSH2 0x126D JUMP JUMPDEST PUSH1 0x1 PUSH1 0x1 PUSH1 0xA0 SHL SUB PUSH32 0x0 AND ADDRESS SUB PUSH2 0x8F9 JUMPI PUSH1 0x40 MLOAD PUSH3 0x461BCD PUSH1 0xE5 SHL DUP2 MSTORE PUSH1 0x4 ADD PUSH2 0x777 SWAP1 PUSH2 0x20CB JUMP JUMPDEST PUSH32 0x0 PUSH1 0x1 PUSH1 0x1 PUSH1 0xA0 SHL SUB AND PUSH2 0x942 PUSH1 0x0 DUP1 MLOAD PUSH1 0x20 PUSH2 0x243F DUP4 CODECOPY DUP2 MLOAD SWAP2 MSTORE SLOAD PUSH1 0x1 PUSH1 0x1 PUSH1 0xA0 SHL SUB AND SWAP1 JUMP JUMPDEST PUSH1 0x1 PUSH1 0x1 PUSH1 0xA0 SHL SUB AND EQ PUSH2 0x968 JUMPI PUSH1 0x40 MLOAD PUSH3 0x461BCD PUSH1 0xE5 SHL DUP2 MSTORE PUSH1 0x4 ADD PUSH2 0x777 SWAP1 PUSH2 0x2117 JUMP JUMPDEST PUSH2 0x971 DUP3 PUSH2 0x10FA JUMP JUMPDEST PUSH2 0x78A DUP3 DUP3 PUSH1 0x1 PUSH2 0x1102 JUMP JUMPDEST PUSH1 0x0 ADDRESS PUSH1 0x1 PUSH1 0x1 PUSH1 0xA0 SHL SUB PUSH32 0x0 AND EQ PUSH2 0xA1D JUMPI PUSH1 0x40 MLOAD PUSH3 0x461BCD PUSH1 0xE5 SHL DUP2 MSTORE PUSH1 0x20 PUSH1 0x4 DUP3 ADD MSTORE PUSH1 0x38 PUSH1 0x24 DUP3 ADD MSTORE PUSH32 0x555550535570677261646561626C653A206D757374206E6F742062652063616C PUSH1 0x44 DUP3 ADD MSTORE PUSH32 0x6C6564207468726F7567682064656C656761746563616C6C0000000000000000 PUSH1 0x64 DUP3 ADD MSTORE PUSH1 0x84 ADD PUSH2 0x777 JUMP JUMPDEST POP PUSH1 0x0 DUP1 MLOAD PUSH1 0x20 PUSH2 0x243F DUP4 CODECOPY DUP2 MLOAD SWAP2 MSTORE SWAP1 JUMP JUMPDEST PUSH1 0x0 SLOAD PUSH2 0x100 SWAP1 DIV PUSH1 0xFF AND ISZERO DUP1 DUP1 ISZERO PUSH2 0xA50 JUMPI POP PUSH1 0x0 SLOAD PUSH1 0x1 PUSH1 0xFF SWAP1 SWAP2 AND LT JUMPDEST DUP1 PUSH2 0xA6A JUMPI POP ADDRESS EXTCODESIZE ISZERO DUP1 ISZERO PUSH2 0xA6A JUMPI POP PUSH1 0x0 SLOAD PUSH1 0xFF AND PUSH1 0x1 EQ JUMPDEST PUSH2 0xACD JUMPI PUSH1 0x40 MLOAD PUSH3 0x461BCD PUSH1 0xE5 SHL DUP2 MSTORE PUSH1 0x20 PUSH1 0x4 DUP3 ADD MSTORE PUSH1 0x2E PUSH1 0x24 DUP3 ADD MSTORE PUSH32 0x496E697469616C697A61626C653A20636F6E747261637420697320616C726561 PUSH1 0x44 DUP3 ADD MSTORE PUSH14 0x191E481A5B9A5D1A585B1A5E9959 PUSH1 0x92 SHL PUSH1 0x64 DUP3 ADD MSTORE PUSH1 0x84 ADD PUSH2 0x777 JUMP JUMPDEST PUSH1 0x0 DUP1 SLOAD PUSH1 0xFF NOT AND PUSH1 0x1 OR SWAP1 SSTORE DUP1 ISZERO PUSH2 0xAF0 JUMPI PUSH1 0x0 DUP1 SLOAD PUSH2 0xFF00 NOT AND PUSH2 0x100 OR SWAP1 SSTORE JUMPDEST PUSH2 0xAFC DUP6 DUP6 DUP6 DUP6 PUSH2 0x132E JUMP JUMPDEST DUP1 ISZERO PUSH2 0xB42 JUMPI PUSH1 0x0 DUP1 SLOAD PUSH2 0xFF00 NOT AND SWAP1 SSTORE PUSH1 0x40 MLOAD PUSH1 0x1 DUP2 MSTORE PUSH32 0x7F26B83FF96E1F2B6A682F133852F6798A09C465DA95921460CEFB3847402498 SWAP1 PUSH1 0x20 ADD PUSH1 0x40 MLOAD DUP1 SWAP2 SUB SWAP1 LOG1 JUMPDEST POP POP POP POP POP JUMP JUMPDEST PUSH1 0x0 DUP3 DUP2 MSTORE PUSH1 0x97 PUSH1 0x20 MSTORE PUSH1 0x40 DUP2 KECCAK256 PUSH2 0x6DA SWAP1 DUP4 PUSH2 0x13B3 JUMP JUMPDEST PUSH1 0x0 SWAP2 DUP3 MSTORE PUSH1 0x65 PUSH1 0x20 SWAP1 DUP2 MSTORE PUSH1 0x40 DUP1 DUP5 KECCAK256 PUSH1 0x1 PUSH1 0x1 PUSH1 0xA0 SHL SUB SWAP4 SWAP1 SWAP4 AND DUP5 MSTORE SWAP2 SWAP1 MSTORE SWAP1 KECCAK256 SLOAD PUSH1 0xFF AND SWAP1 JUMP JUMPDEST PUSH1 0x60 PUSH1 0xCD DUP1 SLOAD PUSH2 0x620 SWAP1 PUSH2 0x2091 JUMP JUMPDEST PUSH1 0x0 DUP1 MLOAD PUSH1 0x20 PUSH2 0x241F DUP4 CODECOPY DUP2 MLOAD SWAP2 MSTORE PUSH2 0xBB3 DUP2 PUSH2 0x10AC JUMP JUMPDEST PUSH2 0x706 DUP4 DUP4 PUSH2 0x13BF JUMP JUMPDEST PUSH1 0x0 CALLER DUP2 PUSH2 0xBCB DUP3 DUP7 PUSH2 0xCD8 JUMP JUMPDEST SWAP1 POP DUP4 DUP2 LT ISZERO PUSH2 0xC2B JUMPI PUSH1 0x40 MLOAD PUSH3 0x461BCD PUSH1 0xE5 SHL DUP2 MSTORE PUSH1 0x20 PUSH1 0x4 DUP3 ADD MSTORE PUSH1 0x25 PUSH1 0x24 DUP3 ADD MSTORE PUSH32 0x45524332303A2064656372656173656420616C6C6F77616E63652062656C6F77 PUSH1 0x44 DUP3 ADD MSTORE PUSH5 0x207A65726F PUSH1 0xD8 SHL PUSH1 0x64 DUP3 ADD MSTORE PUSH1 0x84 ADD PUSH2 0x777 JUMP JUMPDEST PUSH2 0xC38 DUP3 DUP7 DUP7 DUP5 SUB PUSH2 0xD63 JUMP JUMPDEST POP PUSH1 0x1 SWAP5 SWAP4 POP POP POP POP JUMP JUMPDEST PUSH1 0x0 CALLER PUSH2 0x6B1 DUP2 DUP6 DUP6 PUSH2 0xF01 JUMP JUMPDEST PUSH1 0x0 DUP2 DUP2 MSTORE PUSH1 0x97 PUSH1 0x20 MSTORE PUSH1 0x40 DUP2 KECCAK256 PUSH2 0x60B SWAP1 PUSH2 0x14F3 JUMP JUMPDEST PUSH1 0x0 DUP3 DUP2 MSTORE PUSH1 0x65 PUSH1 0x20 MSTORE PUSH1 0x40 SWAP1 KECCAK256 PUSH1 0x1 ADD SLOAD PUSH2 0xC83 DUP2 PUSH2 0x10AC JUMP JUMPDEST PUSH2 0x706 DUP4 DUP4 PUSH2 0x10D8 JUMP JUMPDEST PUSH1 0x0 PUSH2 0xCA7 PUSH1 0x0 DUP1 MLOAD PUSH1 0x20 PUSH2 0x2486 DUP4 CODECOPY DUP2 MLOAD SWAP2 MSTORE DUP4 PUSH2 0xB61 JUMP JUMPDEST DUP1 ISZERO PUSH2 0xCC6 JUMPI POP PUSH2 0xCC6 PUSH1 0x0 DUP1 MLOAD PUSH1 0x20 PUSH2 0x241F DUP4 CODECOPY DUP2 MLOAD SWAP2 MSTORE DUP4 PUSH2 0xB61 JUMP JUMPDEST DUP1 ISZERO PUSH2 0x60B JUMPI POP PUSH2 0x60B PUSH1 0x0 DUP4 PUSH2 0xB61 JUMP JUMPDEST PUSH1 0x1 PUSH1 0x1 PUSH1 0xA0 SHL SUB SWAP2 DUP3 AND PUSH1 0x0 SWAP1 DUP2 MSTORE PUSH1 0xCA PUSH1 0x20 SWAP1 DUP2 MSTORE PUSH1 0x40 DUP1 DUP4 KECCAK256 SWAP4 SWAP1 SWAP5 AND DUP3 MSTORE SWAP2 SWAP1 SWAP2 MSTORE KECCAK256 SLOAD SWAP1 JUMP JUMPDEST PUSH2 0xD0B PUSH2 0x14FD JUMP JUMPDEST PUSH2 0x191 DUP1 SLOAD PUSH1 0x1 PUSH1 0x1 PUSH1 0xA0 SHL SUB NOT AND PUSH1 0x1 PUSH1 0x1 PUSH1 0xA0 SHL SUB SWAP3 SWAP1 SWAP3 AND SWAP2 SWAP1 SWAP2 OR SWAP1 SSTORE JUMP JUMPDEST PUSH1 0x0 PUSH1 0x1 PUSH1 0x1 PUSH1 0xE0 SHL SUB NOT DUP3 AND PUSH4 0x7965DB0B PUSH1 0xE0 SHL EQ DUP1 PUSH2 0x60B JUMPI POP PUSH4 0x1FFC9A7 PUSH1 0xE0 SHL PUSH1 0x1 PUSH1 0x1 PUSH1 0xE0 SHL SUB NOT DUP4 AND EQ PUSH2 0x60B JUMP JUMPDEST PUSH1 0x1 PUSH1 0x1 PUSH1 0xA0 SHL SUB DUP4 AND PUSH2 0xDC5 JUMPI PUSH1 0x40 MLOAD PUSH3 0x461BCD PUSH1 0xE5 SHL DUP2 MSTORE PUSH1 0x20 PUSH1 0x4 DUP3 ADD MSTORE PUSH1 0x24 DUP1 DUP3 ADD MSTORE PUSH32 0x45524332303A20617070726F76652066726F6D20746865207A65726F20616464 PUSH1 0x44 DUP3 ADD MSTORE PUSH4 0x72657373 PUSH1 0xE0 SHL PUSH1 0x64 DUP3 ADD MSTORE PUSH1 0x84 ADD PUSH2 0x777 JUMP JUMPDEST PUSH1 0x1 PUSH1 0x1 PUSH1 0xA0 SHL SUB DUP3 AND PUSH2 0xE26 JUMPI PUSH1 0x40 MLOAD PUSH3 0x461BCD PUSH1 0xE5 SHL DUP2 MSTORE PUSH1 0x20 PUSH1 0x4 DUP3 ADD MSTORE PUSH1 0x22 PUSH1 0x24 DUP3 ADD MSTORE PUSH32 0x45524332303A20617070726F766520746F20746865207A65726F206164647265 PUSH1 0x44 DUP3 ADD MSTORE PUSH2 0x7373 PUSH1 0xF0 SHL PUSH1 0x64 DUP3 ADD MSTORE PUSH1 0x84 ADD PUSH2 0x777 JUMP JUMPDEST PUSH1 0x1 PUSH1 0x1 PUSH1 0xA0 SHL SUB DUP4 DUP2 AND PUSH1 0x0 DUP2 DUP2 MSTORE PUSH1 0xCA PUSH1 0x20 SWAP1 DUP2 MSTORE PUSH1 0x40 DUP1 DUP4 KECCAK256 SWAP5 DUP8 AND DUP1 DUP5 MSTORE SWAP5 DUP3 MSTORE SWAP2 DUP3 SWAP1 KECCAK256 DUP6 SWAP1 SSTORE SWAP1 MLOAD DUP5 DUP2 MSTORE PUSH32 0x8C5BE1E5EBEC7D5BD14F71427D1E84F3DD0314C0F7B2291E5B200AC8C7C3B925 SWAP2 ADD PUSH1 0x40 MLOAD DUP1 SWAP2 SUB SWAP1 LOG3 POP POP POP JUMP JUMPDEST PUSH1 0x0 PUSH2 0xE93 DUP5 DUP5 PUSH2 0xCD8 JUMP JUMPDEST SWAP1 POP PUSH1 0x0 NOT DUP2 EQ PUSH2 0xEFB JUMPI DUP2 DUP2 LT ISZERO PUSH2 0xEEE JUMPI PUSH1 0x40 MLOAD PUSH3 0x461BCD PUSH1 0xE5 SHL DUP2 MSTORE PUSH1 0x20 PUSH1 0x4 DUP3 ADD MSTORE PUSH1 0x1D PUSH1 0x24 DUP3 ADD MSTORE PUSH32 0x45524332303A20696E73756666696369656E7420616C6C6F77616E6365000000 PUSH1 0x44 DUP3 ADD MSTORE PUSH1 0x64 ADD PUSH2 0x777 JUMP JUMPDEST PUSH2 0xEFB DUP5 DUP5 DUP5 DUP5 SUB PUSH2 0xD63 JUMP JUMPDEST POP POP POP POP JUMP JUMPDEST PUSH1 0x1 PUSH1 0x1 PUSH1 0xA0 SHL SUB DUP4 AND PUSH2 0xF65 JUMPI PUSH1 0x40 MLOAD PUSH3 0x461BCD PUSH1 0xE5 SHL DUP2 MSTORE PUSH1 0x20 PUSH1 0x4 DUP3 ADD MSTORE PUSH1 0x25 PUSH1 0x24 DUP3 ADD MSTORE PUSH32 0x45524332303A207472616E736665722066726F6D20746865207A65726F206164 PUSH1 0x44 DUP3 ADD MSTORE PUSH5 0x6472657373 PUSH1 0xD8 SHL PUSH1 0x64 DUP3 ADD MSTORE PUSH1 0x84 ADD PUSH2 0x777 JUMP JUMPDEST PUSH1 0x1 PUSH1 0x1 PUSH1 0xA0 SHL SUB DUP3 AND PUSH2 0xFC7 JUMPI PUSH1 0x40 MLOAD PUSH3 0x461BCD PUSH1 0xE5 SHL DUP2 MSTORE PUSH1 0x20 PUSH1 0x4 DUP3 ADD MSTORE PUSH1 0x23 PUSH1 0x24 DUP3 ADD MSTORE PUSH32 0x45524332303A207472616E7366657220746F20746865207A65726F2061646472 PUSH1 0x44 DUP3 ADD MSTORE PUSH3 0x657373 PUSH1 0xE8 SHL PUSH1 0x64 DUP3 ADD MSTORE PUSH1 0x84 ADD PUSH2 0x777 JUMP JUMPDEST PUSH1 0x1 PUSH1 0x1 PUSH1 0xA0 SHL SUB DUP4 AND PUSH1 0x0 SWAP1 DUP2 MSTORE PUSH1 0xC9 PUSH1 0x20 MSTORE PUSH1 0x40 SWAP1 KECCAK256 SLOAD DUP2 DUP2 LT ISZERO PUSH2 0x103F JUMPI PUSH1 0x40 MLOAD PUSH3 0x461BCD PUSH1 0xE5 SHL DUP2 MSTORE PUSH1 0x20 PUSH1 0x4 DUP3 ADD MSTORE PUSH1 0x26 PUSH1 0x24 DUP3 ADD MSTORE PUSH32 0x45524332303A207472616E7366657220616D6F756E7420657863656564732062 PUSH1 0x44 DUP3 ADD MSTORE PUSH6 0x616C616E6365 PUSH1 0xD0 SHL PUSH1 0x64 DUP3 ADD MSTORE PUSH1 0x84 ADD PUSH2 0x777 JUMP JUMPDEST PUSH1 0x1 PUSH1 0x1 PUSH1 0xA0 SHL SUB DUP1 DUP6 AND PUSH1 0x0 DUP2 DUP2 MSTORE PUSH1 0xC9 PUSH1 0x20 MSTORE PUSH1 0x40 DUP1 DUP3 KECCAK256 DUP7 DUP7 SUB SWAP1 SSTORE SWAP3 DUP7 AND DUP1 DUP3 MSTORE SWAP1 DUP4 SWAP1 KECCAK256 DUP1 SLOAD DUP7 ADD SWAP1 SSTORE SWAP2 MLOAD PUSH32 0xDDF252AD1BE2C89B69C2B068FC378DAA952BA7F163C4A11628F55A4DF523B3EF SWAP1 PUSH2 0x109F SWAP1 DUP7 DUP2 MSTORE PUSH1 0x20 ADD SWAP1 JUMP JUMPDEST PUSH1 0x40 MLOAD DUP1 SWAP2 SUB SWAP1 LOG3 PUSH2 0xEFB JUMP JUMPDEST PUSH2 0x86A DUP2 CALLER PUSH2 0x1589 JUMP JUMPDEST PUSH2 0x10C0 DUP3 DUP3 PUSH2 0x15E2 JUMP JUMPDEST PUSH1 0x0 DUP3 DUP2 MSTORE PUSH1 0x97 PUSH1 0x20 MSTORE PUSH1 0x40 SWAP1 KECCAK256 PUSH2 0x706 SWAP1 DUP3 PUSH2 0x1668 JUMP JUMPDEST PUSH2 0x10E2 DUP3 DUP3 PUSH2 0x167D JUMP JUMPDEST PUSH1 0x0 DUP3 DUP2 MSTORE PUSH1 0x97 PUSH1 0x20 MSTORE PUSH1 0x40 SWAP1 KECCAK256 PUSH2 0x706 SWAP1 DUP3 PUSH2 0x16E4 JUMP JUMPDEST PUSH2 0x86A PUSH2 0x14FD JUMP JUMPDEST PUSH32 0x4910FDFA16FED3260ED0E7147F7CC6DA11A60208B5B9406D12A635614FFD9143 SLOAD PUSH1 0xFF AND ISZERO PUSH2 0x1135 JUMPI PUSH2 0x706 DUP4 PUSH2 0x16F9 JUMP JUMPDEST DUP3 PUSH1 0x1 PUSH1 0x1 PUSH1 0xA0 SHL SUB AND PUSH4 0x52D1902D PUSH1 0x40 MLOAD DUP2 PUSH4 0xFFFFFFFF AND PUSH1 0xE0 SHL DUP2 MSTORE PUSH1 0x4 ADD PUSH1 0x20 PUSH1 0x40 MLOAD DUP1 DUP4 SUB DUP2 DUP7 GAS STATICCALL SWAP3 POP POP POP DUP1 ISZERO PUSH2 0x118F JUMPI POP PUSH1 0x40 DUP1 MLOAD PUSH1 0x1F RETURNDATASIZE SWAP1 DUP2 ADD PUSH1 0x1F NOT AND DUP3 ADD SWAP1 SWAP3 MSTORE PUSH2 0x118C SWAP2 DUP2 ADD SWAP1 PUSH2 0x218C JUMP JUMPDEST PUSH1 0x1 JUMPDEST PUSH2 0x11F2 JUMPI PUSH1 0x40 MLOAD PUSH3 0x461BCD PUSH1 0xE5 SHL DUP2 MSTORE PUSH1 0x20 PUSH1 0x4 DUP3 ADD MSTORE PUSH1 0x2E PUSH1 0x24 DUP3 ADD MSTORE PUSH32 0x45524331393637557067726164653A206E657720696D706C656D656E74617469 PUSH1 0x44 DUP3 ADD MSTORE PUSH14 0x6F6E206973206E6F742055555053 PUSH1 0x90 SHL PUSH1 0x64 DUP3 ADD MSTORE PUSH1 0x84 ADD PUSH2 0x777 JUMP JUMPDEST PUSH1 0x0 DUP1 MLOAD PUSH1 0x20 PUSH2 0x243F DUP4 CODECOPY DUP2 MLOAD SWAP2 MSTORE DUP2 EQ PUSH2 0x1261 JUMPI PUSH1 0x40 MLOAD PUSH3 0x461BCD PUSH1 0xE5 SHL DUP2 MSTORE PUSH1 0x20 PUSH1 0x4 DUP3 ADD MSTORE PUSH1 0x29 PUSH1 0x24 DUP3 ADD MSTORE PUSH32 0x45524331393637557067726164653A20756E737570706F727465642070726F78 PUSH1 0x44 DUP3 ADD MSTORE PUSH9 0x1A58589B1955555251 PUSH1 0xBA SHL PUSH1 0x64 DUP3 ADD MSTORE PUSH1 0x84 ADD PUSH2 0x777 JUMP JUMPDEST POP PUSH2 0x706 DUP4 DUP4 DUP4 PUSH2 0x1795 JUMP JUMPDEST PUSH1 0x1 PUSH1 0x1 PUSH1 0xA0 SHL SUB DUP3 AND PUSH2 0x12C3 JUMPI PUSH1 0x40 MLOAD PUSH3 0x461BCD PUSH1 0xE5 SHL DUP2 MSTORE PUSH1 0x20 PUSH1 0x4 DUP3 ADD MSTORE PUSH1 0x1F PUSH1 0x24 DUP3 ADD MSTORE PUSH32 0x45524332303A206D696E7420746F20746865207A65726F206164647265737300 PUSH1 0x44 DUP3 ADD MSTORE PUSH1 0x64 ADD PUSH2 0x777 JUMP JUMPDEST DUP1 PUSH1 0xCB PUSH1 0x0 DUP3 DUP3 SLOAD PUSH2 0x12D5 SWAP2 SWAP1 PUSH2 0x2179 JUMP JUMPDEST SWAP1 SWAP2 SSTORE POP POP PUSH1 0x1 PUSH1 0x1 PUSH1 0xA0 SHL SUB DUP3 AND PUSH1 0x0 DUP2 DUP2 MSTORE PUSH1 0xC9 PUSH1 0x20 SWAP1 DUP2 MSTORE PUSH1 0x40 DUP1 DUP4 KECCAK256 DUP1 SLOAD DUP7 ADD SWAP1 SSTORE MLOAD DUP5 DUP2 MSTORE PUSH32 0xDDF252AD1BE2C89B69C2B068FC378DAA952BA7F163C4A11628F55A4DF523B3EF SWAP2 ADD PUSH1 0x40 MLOAD DUP1 SWAP2 SUB SWAP1 LOG3 POP POP JUMP JUMPDEST PUSH1 0x0 SLOAD PUSH2 0x100 SWAP1 DIV PUSH1 0xFF AND PUSH2 0x1355 JUMPI PUSH1 0x40 MLOAD PUSH3 0x461BCD PUSH1 0xE5 SHL DUP2 MSTORE PUSH1 0x4 ADD PUSH2 0x777 SWAP1 PUSH2 0x21A5 JUMP JUMPDEST PUSH2 0x135F DUP5 DUP5 PUSH2 0x17BA JUMP JUMPDEST PUSH2 0x1367 PUSH2 0x17EB JUMP JUMPDEST PUSH2 0x136F PUSH2 0x17EB JUMP JUMPDEST PUSH2 0x1378 DUP2 PUSH2 0x1812 JUMP JUMPDEST PUSH2 0x1383 PUSH1 0x0 DUP4 PUSH2 0x1842 JUMP JUMPDEST PUSH2 0x139B PUSH1 0x0 DUP1 MLOAD PUSH1 0x20 PUSH2 0x2486 DUP4 CODECOPY DUP2 MLOAD SWAP2 MSTORE DUP4 PUSH2 0x1842 JUMP JUMPDEST PUSH2 0xEFB PUSH1 0x0 DUP1 MLOAD PUSH1 0x20 PUSH2 0x241F DUP4 CODECOPY DUP2 MLOAD SWAP2 MSTORE DUP4 PUSH2 0x1842 JUMP JUMPDEST PUSH1 0x0 PUSH2 0x6DA DUP4 DUP4 PUSH2 0x184C JUMP JUMPDEST PUSH1 0x1 PUSH1 0x1 PUSH1 0xA0 SHL SUB DUP3 AND PUSH2 0x141F JUMPI PUSH1 0x40 MLOAD PUSH3 0x461BCD PUSH1 0xE5 SHL DUP2 MSTORE PUSH1 0x20 PUSH1 0x4 DUP3 ADD MSTORE PUSH1 0x21 PUSH1 0x24 DUP3 ADD MSTORE PUSH32 0x45524332303A206275726E2066726F6D20746865207A65726F20616464726573 PUSH1 0x44 DUP3 ADD MSTORE PUSH1 0x73 PUSH1 0xF8 SHL PUSH1 0x64 DUP3 ADD MSTORE PUSH1 0x84 ADD PUSH2 0x777 JUMP JUMPDEST PUSH1 0x1 PUSH1 0x1 PUSH1 0xA0 SHL SUB DUP3 AND PUSH1 0x0 SWAP1 DUP2 MSTORE PUSH1 0xC9 PUSH1 0x20 MSTORE PUSH1 0x40 SWAP1 KECCAK256 SLOAD DUP2 DUP2 LT ISZERO PUSH2 0x1493 JUMPI PUSH1 0x40 MLOAD PUSH3 0x461BCD PUSH1 0xE5 SHL DUP2 MSTORE PUSH1 0x20 PUSH1 0x4 DUP3 ADD MSTORE PUSH1 0x22 PUSH1 0x24 DUP3 ADD MSTORE PUSH32 0x45524332303A206275726E20616D6F756E7420657863656564732062616C616E PUSH1 0x44 DUP3 ADD MSTORE PUSH2 0x6365 PUSH1 0xF0 SHL PUSH1 0x64 DUP3 ADD MSTORE PUSH1 0x84 ADD PUSH2 0x777 JUMP JUMPDEST PUSH1 0x1 PUSH1 0x1 PUSH1 0xA0 SHL SUB DUP4 AND PUSH1 0x0 DUP2 DUP2 MSTORE PUSH1 0xC9 PUSH1 0x20 SWAP1 DUP2 MSTORE PUSH1 0x40 DUP1 DUP4 KECCAK256 DUP7 DUP7 SUB SWAP1 SSTORE PUSH1 0xCB DUP1 SLOAD DUP8 SWAP1 SUB SWAP1 SSTORE MLOAD DUP6 DUP2 MSTORE SWAP2 SWAP3 SWAP2 PUSH32 0xDDF252AD1BE2C89B69C2B068FC378DAA952BA7F163C4A11628F55A4DF523B3EF SWAP2 ADD PUSH1 0x40 MLOAD DUP1 SWAP2 SUB SWAP1 LOG3 POP POP POP JUMP JUMPDEST PUSH1 0x0 PUSH2 0x60B DUP3 SLOAD SWAP1 JUMP JUMPDEST PUSH2 0x191 SLOAD PUSH1 0x40 MLOAD PUSH4 0xD994D6D5 PUSH1 0xE0 SHL DUP2 MSTORE CALLER PUSH1 0x4 DUP3 ADD MSTORE PUSH1 0x1 PUSH1 0x1 PUSH1 0xA0 SHL SUB SWAP1 SWAP2 AND SWAP1 PUSH4 0xD994D6D5 SWAP1 PUSH1 0x24 ADD PUSH1 0x20 PUSH1 0x40 MLOAD DUP1 DUP4 SUB DUP2 DUP7 GAS STATICCALL ISZERO DUP1 ISZERO PUSH2 0x1546 JUMPI RETURNDATASIZE PUSH1 0x0 DUP1 RETURNDATACOPY RETURNDATASIZE PUSH1 0x0 REVERT JUMPDEST POP POP POP POP PUSH1 0x40 MLOAD RETURNDATASIZE PUSH1 0x1F NOT PUSH1 0x1F DUP3 ADD AND DUP3 ADD DUP1 PUSH1 0x40 MSTORE POP DUP2 ADD SWAP1 PUSH2 0x156A SWAP2 SWAP1 PUSH2 0x21F0 JUMP JUMPDEST PUSH2 0x1587 JUMPI PUSH1 0x40 MLOAD PUSH4 0x1DD1B1B5 PUSH1 0xE2 SHL DUP2 MSTORE PUSH1 0x4 ADD PUSH1 0x40 MLOAD DUP1 SWAP2 SUB SWAP1 REVERT JUMPDEST JUMP JUMPDEST PUSH2 0x1593 DUP3 DUP3 PUSH2 0xB61 JUMP JUMPDEST PUSH2 0x78A JUMPI PUSH2 0x15A0 DUP2 PUSH2 0x1876 JUMP JUMPDEST PUSH2 0x15AB DUP4 PUSH1 0x20 PUSH2 0x1888 JUMP JUMPDEST PUSH1 0x40 MLOAD PUSH1 0x20 ADD PUSH2 0x15BC SWAP3 SWAP2 SWAP1 PUSH2 0x2212 JUMP JUMPDEST PUSH1 0x40 DUP1 MLOAD PUSH1 0x1F NOT DUP2 DUP5 SUB ADD DUP2 MSTORE SWAP1 DUP3 SWAP1 MSTORE PUSH3 0x461BCD PUSH1 0xE5 SHL DUP3 MSTORE PUSH2 0x777 SWAP2 PUSH1 0x4 ADD PUSH2 0x1D8D JUMP JUMPDEST PUSH2 0x15EC DUP3 DUP3 PUSH2 0xB61 JUMP JUMPDEST PUSH2 0x78A JUMPI PUSH1 0x0 DUP3 DUP2 MSTORE PUSH1 0x65 PUSH1 0x20 SWAP1 DUP2 MSTORE PUSH1 0x40 DUP1 DUP4 KECCAK256 PUSH1 0x1 PUSH1 0x1 PUSH1 0xA0 SHL SUB DUP6 AND DUP5 MSTORE SWAP1 SWAP2 MSTORE SWAP1 KECCAK256 DUP1 SLOAD PUSH1 0xFF NOT AND PUSH1 0x1 OR SWAP1 SSTORE PUSH2 0x1624 CALLER SWAP1 JUMP JUMPDEST PUSH1 0x1 PUSH1 0x1 PUSH1 0xA0 SHL SUB AND DUP2 PUSH1 0x1 PUSH1 0x1 PUSH1 0xA0 SHL SUB AND DUP4 PUSH32 0x2F8788117E7EFF1D82E926EC794901D17C78024A50270940304540A733656F0D PUSH1 0x40 MLOAD PUSH1 0x40 MLOAD DUP1 SWAP2 SUB SWAP1 LOG4 POP POP JUMP JUMPDEST PUSH1 0x0 PUSH2 0x6DA DUP4 PUSH1 0x1 PUSH1 0x1 PUSH1 0xA0 SHL SUB DUP5 AND PUSH2 0x1A24 JUMP JUMPDEST PUSH2 0x1687 DUP3 DUP3 PUSH2 0xB61 JUMP JUMPDEST ISZERO PUSH2 0x78A JUMPI PUSH1 0x0 DUP3 DUP2 MSTORE PUSH1 0x65 PUSH1 0x20 SWAP1 DUP2 MSTORE PUSH1 0x40 DUP1 DUP4 KECCAK256 PUSH1 0x1 PUSH1 0x1 PUSH1 0xA0 SHL SUB DUP6 AND DUP1 DUP6 MSTORE SWAP3 MSTORE DUP1 DUP4 KECCAK256 DUP1 SLOAD PUSH1 0xFF NOT AND SWAP1 SSTORE MLOAD CALLER SWAP3 DUP6 SWAP2 PUSH32 0xF6391F5C32D9C69D2A47EA670B442974B53935D1EDC7FD64EB21E047A839171B SWAP2 SWAP1 LOG4 POP POP JUMP JUMPDEST PUSH1 0x0 PUSH2 0x6DA DUP4 PUSH1 0x1 PUSH1 0x1 PUSH1 0xA0 SHL SUB DUP5 AND PUSH2 0x1A73 JUMP JUMPDEST PUSH1 0x1 PUSH1 0x1 PUSH1 0xA0 SHL SUB DUP2 AND EXTCODESIZE PUSH2 0x1766 JUMPI PUSH1 0x40 MLOAD PUSH3 0x461BCD PUSH1 0xE5 SHL DUP2 MSTORE PUSH1 0x20 PUSH1 0x4 DUP3 ADD MSTORE PUSH1 0x2D PUSH1 0x24 DUP3 ADD MSTORE PUSH32 0x455243313936373A206E657720696D706C656D656E746174696F6E206973206E PUSH1 0x44 DUP3 ADD MSTORE PUSH13 0x1BDD08184818DBDB9D1C9858DD PUSH1 0x9A SHL PUSH1 0x64 DUP3 ADD MSTORE PUSH1 0x84 ADD PUSH2 0x777 JUMP JUMPDEST PUSH1 0x0 DUP1 MLOAD PUSH1 0x20 PUSH2 0x243F DUP4 CODECOPY DUP2 MLOAD SWAP2 MSTORE DUP1 SLOAD PUSH1 0x1 PUSH1 0x1 PUSH1 0xA0 SHL SUB NOT AND PUSH1 0x1 PUSH1 0x1 PUSH1 0xA0 SHL SUB SWAP3 SWAP1 SWAP3 AND SWAP2 SWAP1 SWAP2 OR SWAP1 SSTORE JUMP JUMPDEST PUSH2 0x179E DUP4 PUSH2 0x1B66 JUMP JUMPDEST PUSH1 0x0 DUP3 MLOAD GT DUP1 PUSH2 0x17AB JUMPI POP DUP1 JUMPDEST ISZERO PUSH2 0x706 JUMPI PUSH2 0xEFB DUP4 DUP4 PUSH2 0x1BA6 JUMP JUMPDEST PUSH1 0x0 SLOAD PUSH2 0x100 SWAP1 DIV PUSH1 0xFF AND PUSH2 0x17E1 JUMPI PUSH1 0x40 MLOAD PUSH3 0x461BCD PUSH1 0xE5 SHL DUP2 MSTORE PUSH1 0x4 ADD PUSH2 0x777 SWAP1 PUSH2 0x21A5 JUMP JUMPDEST PUSH2 0x78A DUP3 DUP3 PUSH2 0x1C9A JUMP JUMPDEST PUSH1 0x0 SLOAD PUSH2 0x100 SWAP1 DIV PUSH1 0xFF AND PUSH2 0x1587 JUMPI PUSH1 0x40 MLOAD PUSH3 0x461BCD PUSH1 0xE5 SHL DUP2 MSTORE PUSH1 0x4 ADD PUSH2 0x777 SWAP1 PUSH2 0x21A5 JUMP JUMPDEST PUSH1 0x0 SLOAD PUSH2 0x100 SWAP1 DIV PUSH1 0xFF AND PUSH2 0x1839 JUMPI PUSH1 0x40 MLOAD PUSH3 0x461BCD PUSH1 0xE5 SHL DUP2 MSTORE PUSH1 0x4 ADD PUSH2 0x777 SWAP1 PUSH2 0x21A5 JUMP JUMPDEST PUSH2 0x86A DUP2 PUSH2 0x1CDA JUMP JUMPDEST PUSH2 0x78A DUP3 DUP3 PUSH2 0x10B6 JUMP JUMPDEST PUSH1 0x0 DUP3 PUSH1 0x0 ADD DUP3 DUP2 SLOAD DUP2 LT PUSH2 0x1863 JUMPI PUSH2 0x1863 PUSH2 0x2287 JUMP JUMPDEST SWAP1 PUSH1 0x0 MSTORE PUSH1 0x20 PUSH1 0x0 KECCAK256 ADD SLOAD SWAP1 POP SWAP3 SWAP2 POP POP JUMP JUMPDEST PUSH1 0x60 PUSH2 0x60B PUSH1 0x1 PUSH1 0x1 PUSH1 0xA0 SHL SUB DUP4 AND PUSH1 0x14 JUMPDEST PUSH1 0x60 PUSH1 0x0 PUSH2 0x1897 DUP4 PUSH1 0x2 PUSH2 0x229D JUMP JUMPDEST PUSH2 0x18A2 SWAP1 PUSH1 0x2 PUSH2 0x2179 JUMP JUMPDEST PUSH8 0xFFFFFFFFFFFFFFFF DUP2 GT ISZERO PUSH2 0x18BA JUMPI PUSH2 0x18BA PUSH2 0x1EA8 JUMP JUMPDEST PUSH1 0x40 MLOAD SWAP1 DUP1 DUP3 MSTORE DUP1 PUSH1 0x1F ADD PUSH1 0x1F NOT AND PUSH1 0x20 ADD DUP3 ADD PUSH1 0x40 MSTORE DUP1 ISZERO PUSH2 0x18E4 JUMPI PUSH1 0x20 DUP3 ADD DUP2 DUP1 CALLDATASIZE DUP4 CALLDATACOPY ADD SWAP1 POP JUMPDEST POP SWAP1 POP PUSH1 0x3 PUSH1 0xFC SHL DUP2 PUSH1 0x0 DUP2 MLOAD DUP2 LT PUSH2 0x18FF JUMPI PUSH2 0x18FF PUSH2 0x2287 JUMP JUMPDEST PUSH1 0x20 ADD ADD SWAP1 PUSH1 0x1 PUSH1 0x1 PUSH1 0xF8 SHL SUB NOT AND SWAP1 DUP2 PUSH1 0x0 BYTE SWAP1 MSTORE8 POP PUSH1 0xF PUSH1 0xFB SHL DUP2 PUSH1 0x1 DUP2 MLOAD DUP2 LT PUSH2 0x192E JUMPI PUSH2 0x192E PUSH2 0x2287 JUMP JUMPDEST PUSH1 0x20 ADD ADD SWAP1 PUSH1 0x1 PUSH1 0x1 PUSH1 0xF8 SHL SUB NOT AND SWAP1 DUP2 PUSH1 0x0 BYTE SWAP1 MSTORE8 POP PUSH1 0x0 PUSH2 0x1952 DUP5 PUSH1 0x2 PUSH2 0x229D JUMP JUMPDEST PUSH2 0x195D SWAP1 PUSH1 0x1 PUSH2 0x2179 JUMP JUMPDEST SWAP1 POP JUMPDEST PUSH1 0x1 DUP2 GT ISZERO PUSH2 0x19D5 JUMPI PUSH16 0x181899199A1A9B1B9C1CB0B131B232B3 PUSH1 0x81 SHL DUP6 PUSH1 0xF AND PUSH1 0x10 DUP2 LT PUSH2 0x1991 JUMPI PUSH2 0x1991 PUSH2 0x2287 JUMP JUMPDEST BYTE PUSH1 0xF8 SHL DUP3 DUP3 DUP2 MLOAD DUP2 LT PUSH2 0x19A7 JUMPI PUSH2 0x19A7 PUSH2 0x2287 JUMP JUMPDEST PUSH1 0x20 ADD ADD SWAP1 PUSH1 0x1 PUSH1 0x1 PUSH1 0xF8 SHL SUB NOT AND SWAP1 DUP2 PUSH1 0x0 BYTE SWAP1 MSTORE8 POP PUSH1 0x4 SWAP5 SWAP1 SWAP5 SHR SWAP4 PUSH2 0x19CE DUP2 PUSH2 0x22B4 JUMP JUMPDEST SWAP1 POP PUSH2 0x1960 JUMP JUMPDEST POP DUP4 ISZERO PUSH2 0x6DA JUMPI PUSH1 0x40 MLOAD PUSH3 0x461BCD PUSH1 0xE5 SHL DUP2 MSTORE PUSH1 0x20 PUSH1 0x4 DUP3 ADD DUP2 SWAP1 MSTORE PUSH1 0x24 DUP3 ADD MSTORE PUSH32 0x537472696E67733A20686578206C656E67746820696E73756666696369656E74 PUSH1 0x44 DUP3 ADD MSTORE PUSH1 0x64 ADD PUSH2 0x777 JUMP JUMPDEST PUSH1 0x0 DUP2 DUP2 MSTORE PUSH1 0x1 DUP4 ADD PUSH1 0x20 MSTORE PUSH1 0x40 DUP2 KECCAK256 SLOAD PUSH2 0x1A6B JUMPI POP DUP2 SLOAD PUSH1 0x1 DUP2 DUP2 ADD DUP5 SSTORE PUSH1 0x0 DUP5 DUP2 MSTORE PUSH1 0x20 DUP1 DUP3 KECCAK256 SWAP1 SWAP4 ADD DUP5 SWAP1 SSTORE DUP5 SLOAD DUP5 DUP3 MSTORE DUP3 DUP7 ADD SWAP1 SWAP4 MSTORE PUSH1 0x40 SWAP1 KECCAK256 SWAP2 SWAP1 SWAP2 SSTORE PUSH2 0x60B JUMP JUMPDEST POP PUSH1 0x0 PUSH2 0x60B JUMP JUMPDEST PUSH1 0x0 DUP2 DUP2 MSTORE PUSH1 0x1 DUP4 ADD PUSH1 0x20 MSTORE PUSH1 0x40 DUP2 KECCAK256 SLOAD DUP1 ISZERO PUSH2 0x1B5C JUMPI PUSH1 0x0 PUSH2 0x1A97 PUSH1 0x1 DUP4 PUSH2 0x22CB JUMP JUMPDEST DUP6 SLOAD SWAP1 SWAP2 POP PUSH1 0x0 SWAP1 PUSH2 0x1AAB SWAP1 PUSH1 0x1 SWAP1 PUSH2 0x22CB JUMP JUMPDEST SWAP1 POP DUP2 DUP2 EQ PUSH2 0x1B10 JUMPI PUSH1 0x0 DUP7 PUSH1 0x0 ADD DUP3 DUP2 SLOAD DUP2 LT PUSH2 0x1ACB JUMPI PUSH2 0x1ACB PUSH2 0x2287 JUMP JUMPDEST SWAP1 PUSH1 0x0 MSTORE PUSH1 0x20 PUSH1 0x0 KECCAK256 ADD SLOAD SWAP1 POP DUP1 DUP8 PUSH1 0x0 ADD DUP5 DUP2 SLOAD DUP2 LT PUSH2 0x1AEE JUMPI PUSH2 0x1AEE PUSH2 0x2287 JUMP JUMPDEST PUSH1 0x0 SWAP2 DUP3 MSTORE PUSH1 0x20 DUP1 DUP4 KECCAK256 SWAP1 SWAP2 ADD SWAP3 SWAP1 SWAP3 SSTORE SWAP2 DUP3 MSTORE PUSH1 0x1 DUP9 ADD SWAP1 MSTORE PUSH1 0x40 SWAP1 KECCAK256 DUP4 SWAP1 SSTORE JUMPDEST DUP6 SLOAD DUP7 SWAP1 DUP1 PUSH2 0x1B21 JUMPI PUSH2 0x1B21 PUSH2 0x22DE JUMP JUMPDEST PUSH1 0x1 SWAP1 SUB DUP2 DUP2 SWAP1 PUSH1 0x0 MSTORE PUSH1 0x20 PUSH1 0x0 KECCAK256 ADD PUSH1 0x0 SWAP1 SSTORE SWAP1 SSTORE DUP6 PUSH1 0x1 ADD PUSH1 0x0 DUP7 DUP2 MSTORE PUSH1 0x20 ADD SWAP1 DUP2 MSTORE PUSH1 0x20 ADD PUSH1 0x0 KECCAK256 PUSH1 0x0 SWAP1 SSTORE PUSH1 0x1 SWAP4 POP POP POP POP PUSH2 0x60B JUMP JUMPDEST PUSH1 0x0 SWAP2 POP POP PUSH2 0x60B JUMP JUMPDEST PUSH2 0x1B6F DUP2 PUSH2 0x16F9 JUMP JUMPDEST PUSH1 0x40 MLOAD PUSH1 0x1 PUSH1 0x1 PUSH1 0xA0 SHL SUB DUP3 AND SWAP1 PUSH32 0xBC7CD75A20EE27FD9ADEBAB32041F755214DBC6BFFA90CC0225B39DA2E5C2D3B SWAP1 PUSH1 0x0 SWAP1 LOG2 POP JUMP JUMPDEST PUSH1 0x60 PUSH1 0x1 PUSH1 0x1 PUSH1 0xA0 SHL SUB DUP4 AND EXTCODESIZE PUSH2 0x1C0E JUMPI PUSH1 0x40 MLOAD PUSH3 0x461BCD PUSH1 0xE5 SHL DUP2 MSTORE PUSH1 0x20 PUSH1 0x4 DUP3 ADD MSTORE PUSH1 0x26 PUSH1 0x24 DUP3 ADD MSTORE PUSH32 0x416464726573733A2064656C65676174652063616C6C20746F206E6F6E2D636F PUSH1 0x44 DUP3 ADD MSTORE PUSH6 0x1B9D1C9858DD PUSH1 0xD2 SHL PUSH1 0x64 DUP3 ADD MSTORE PUSH1 0x84 ADD PUSH2 0x777 JUMP JUMPDEST PUSH1 0x0 DUP1 DUP5 PUSH1 0x1 PUSH1 0x1 PUSH1 0xA0 SHL SUB AND DUP5 PUSH1 0x40 MLOAD PUSH2 0x1C29 SWAP2 SWAP1 PUSH2 0x22F4 JUMP JUMPDEST PUSH1 0x0 PUSH1 0x40 MLOAD DUP1 DUP4 SUB DUP2 DUP6 GAS DELEGATECALL SWAP2 POP POP RETURNDATASIZE DUP1 PUSH1 0x0 DUP2 EQ PUSH2 0x1C64 JUMPI PUSH1 0x40 MLOAD SWAP2 POP PUSH1 0x1F NOT PUSH1 0x3F RETURNDATASIZE ADD AND DUP3 ADD PUSH1 0x40 MSTORE RETURNDATASIZE DUP3 MSTORE RETURNDATASIZE PUSH1 0x0 PUSH1 0x20 DUP5 ADD RETURNDATACOPY PUSH2 0x1C69 JUMP JUMPDEST PUSH1 0x60 SWAP2 POP JUMPDEST POP SWAP2 POP SWAP2 POP PUSH2 0x1C91 DUP3 DUP3 PUSH1 0x40 MLOAD DUP1 PUSH1 0x60 ADD PUSH1 0x40 MSTORE DUP1 PUSH1 0x27 DUP2 MSTORE PUSH1 0x20 ADD PUSH2 0x245F PUSH1 0x27 SWAP2 CODECOPY PUSH2 0x1D01 JUMP JUMPDEST SWAP6 SWAP5 POP POP POP POP POP JUMP JUMPDEST PUSH1 0x0 SLOAD PUSH2 0x100 SWAP1 DIV PUSH1 0xFF AND PUSH2 0x1CC1 JUMPI PUSH1 0x40 MLOAD PUSH3 0x461BCD PUSH1 0xE5 SHL DUP2 MSTORE PUSH1 0x4 ADD PUSH2 0x777 SWAP1 PUSH2 0x21A5 JUMP JUMPDEST PUSH1 0xCC PUSH2 0x1CCD DUP4 DUP3 PUSH2 0x235E JUMP JUMPDEST POP PUSH1 0xCD PUSH2 0x706 DUP3 DUP3 PUSH2 0x235E JUMP JUMPDEST PUSH1 0x0 SLOAD PUSH2 0x100 SWAP1 DIV PUSH1 0xFF AND PUSH2 0xD0B JUMPI PUSH1 0x40 MLOAD PUSH3 0x461BCD PUSH1 0xE5 SHL DUP2 MSTORE PUSH1 0x4 ADD PUSH2 0x777 SWAP1 PUSH2 0x21A5 JUMP JUMPDEST PUSH1 0x60 DUP4 ISZERO PUSH2 0x1D10 JUMPI POP DUP2 PUSH2 0x6DA JUMP JUMPDEST PUSH2 0x6DA DUP4 DUP4 DUP2 MLOAD ISZERO PUSH2 0x1D25 JUMPI DUP2 MLOAD DUP1 DUP4 PUSH1 0x20 ADD REVERT JUMPDEST DUP1 PUSH1 0x40 MLOAD PUSH3 0x461BCD PUSH1 0xE5 SHL DUP2 MSTORE PUSH1 0x4 ADD PUSH2 0x777 SWAP2 SWAP1 PUSH2 0x1D8D JUMP JUMPDEST PUSH1 0x0 PUSH1 0x20 DUP3 DUP5 SUB SLT ISZERO PUSH2 0x1D51 JUMPI PUSH1 0x0 DUP1 REVERT JUMPDEST DUP2 CALLDATALOAD PUSH1 0x1 PUSH1 0x1 PUSH1 0xE0 SHL SUB NOT DUP2 AND DUP2 EQ PUSH2 0x6DA JUMPI PUSH1 0x0 DUP1 REVERT JUMPDEST PUSH1 0x0 JUMPDEST DUP4 DUP2 LT ISZERO PUSH2 0x1D84 JUMPI DUP2 DUP2 ADD MLOAD DUP4 DUP3 ADD MSTORE PUSH1 0x20 ADD PUSH2 0x1D6C JUMP JUMPDEST POP POP PUSH1 0x0 SWAP2 ADD MSTORE JUMP JUMPDEST PUSH1 0x20 DUP2 MSTORE PUSH1 0x0 DUP3 MLOAD DUP1 PUSH1 0x20 DUP5 ADD MSTORE PUSH2 0x1DAC DUP2 PUSH1 0x40 DUP6 ADD PUSH1 0x20 DUP8 ADD PUSH2 0x1D69 JUMP JUMPDEST PUSH1 0x1F ADD PUSH1 0x1F NOT AND SWAP2 SWAP1 SWAP2 ADD PUSH1 0x40 ADD SWAP3 SWAP2 POP POP JUMP JUMPDEST PUSH1 0x1 PUSH1 0x1 PUSH1 0xA0 SHL SUB DUP2 AND DUP2 EQ PUSH2 0x86A JUMPI PUSH1 0x0 DUP1 REVERT JUMPDEST PUSH1 0x0 DUP1 PUSH1 0x40 DUP4 DUP6 SUB SLT ISZERO PUSH2 0x1DE8 JUMPI PUSH1 0x0 DUP1 REVERT JUMPDEST DUP3 CALLDATALOAD PUSH2 0x1DF3 DUP2 PUSH2 0x1DC0 JUMP JUMPDEST SWAP5 PUSH1 0x20 SWAP4 SWAP1 SWAP4 ADD CALLDATALOAD SWAP4 POP POP POP JUMP JUMPDEST PUSH1 0x0 DUP1 PUSH1 0x0 PUSH1 0x60 DUP5 DUP7 SUB SLT ISZERO PUSH2 0x1E16 JUMPI PUSH1 0x0 DUP1 REVERT JUMPDEST DUP4 CALLDATALOAD PUSH2 0x1E21 DUP2 PUSH2 0x1DC0 JUMP JUMPDEST SWAP3 POP PUSH1 0x20 DUP5 ADD CALLDATALOAD PUSH2 0x1E31 DUP2 PUSH2 0x1DC0 JUMP JUMPDEST SWAP3 SWAP6 SWAP3 SWAP5 POP POP POP PUSH1 0x40 SWAP2 SWAP1 SWAP2 ADD CALLDATALOAD SWAP1 JUMP JUMPDEST PUSH1 0x0 PUSH1 0x20 DUP3 DUP5 SUB SLT ISZERO PUSH2 0x1E54 JUMPI PUSH1 0x0 DUP1 REVERT JUMPDEST POP CALLDATALOAD SWAP2 SWAP1 POP JUMP JUMPDEST PUSH1 0x0 DUP1 PUSH1 0x40 DUP4 DUP6 SUB SLT ISZERO PUSH2 0x1E6E JUMPI PUSH1 0x0 DUP1 REVERT JUMPDEST DUP3 CALLDATALOAD SWAP2 POP PUSH1 0x20 DUP4 ADD CALLDATALOAD PUSH2 0x1E80 DUP2 PUSH2 0x1DC0 JUMP JUMPDEST DUP1 SWAP2 POP POP SWAP3 POP SWAP3 SWAP1 POP JUMP JUMPDEST PUSH1 0x0 PUSH1 0x20 DUP3 DUP5 SUB SLT ISZERO PUSH2 0x1E9D JUMPI PUSH1 0x0 DUP1 REVERT JUMPDEST DUP2 CALLDATALOAD PUSH2 0x6DA DUP2 PUSH2 0x1DC0 JUMP JUMPDEST PUSH4 0x4E487B71 PUSH1 0xE0 SHL PUSH1 0x0 MSTORE PUSH1 0x41 PUSH1 0x4 MSTORE PUSH1 0x24 PUSH1 0x0 REVERT JUMPDEST PUSH1 0x0 PUSH8 0xFFFFFFFFFFFFFFFF DUP1 DUP5 GT ISZERO PUSH2 0x1ED9 JUMPI PUSH2 0x1ED9 PUSH2 0x1EA8 JUMP JUMPDEST PUSH1 0x40 MLOAD PUSH1 0x1F DUP6 ADD PUSH1 0x1F NOT SWAP1 DUP2 AND PUSH1 0x3F ADD AND DUP2 ADD SWAP1 DUP3 DUP3 GT DUP2 DUP4 LT OR ISZERO PUSH2 0x1F01 JUMPI PUSH2 0x1F01 PUSH2 0x1EA8 JUMP JUMPDEST DUP2 PUSH1 0x40 MSTORE DUP1 SWAP4 POP DUP6 DUP2 MSTORE DUP7 DUP7 DUP7 ADD GT ISZERO PUSH2 0x1F1A JUMPI PUSH1 0x0 DUP1 REVERT JUMPDEST DUP6 DUP6 PUSH1 0x20 DUP4 ADD CALLDATACOPY PUSH1 0x0 PUSH1 0x20 DUP8 DUP4 ADD ADD MSTORE POP POP POP SWAP4 SWAP3 POP POP POP JUMP JUMPDEST PUSH1 0x0 DUP1 PUSH1 0x40 DUP4 DUP6 SUB SLT ISZERO PUSH2 0x1F47 JUMPI PUSH1 0x0 DUP1 REVERT JUMPDEST DUP3 CALLDATALOAD PUSH2 0x1F52 DUP2 PUSH2 0x1DC0 JUMP JUMPDEST SWAP2 POP PUSH1 0x20 DUP4 ADD CALLDATALOAD PUSH8 0xFFFFFFFFFFFFFFFF DUP2 GT ISZERO PUSH2 0x1F6E JUMPI PUSH1 0x0 DUP1 REVERT JUMPDEST DUP4 ADD PUSH1 0x1F DUP2 ADD DUP6 SGT PUSH2 0x1F7F JUMPI PUSH1 0x0 DUP1 REVERT JUMPDEST PUSH2 0x1F8E DUP6 DUP3 CALLDATALOAD PUSH1 0x20 DUP5 ADD PUSH2 0x1EBE JUMP JUMPDEST SWAP2 POP POP SWAP3 POP SWAP3 SWAP1 POP JUMP JUMPDEST PUSH1 0x0 DUP3 PUSH1 0x1F DUP4 ADD SLT PUSH2 0x1FA9 JUMPI PUSH1 0x0 DUP1 REVERT JUMPDEST PUSH2 0x6DA DUP4 DUP4 CALLDATALOAD PUSH1 0x20 DUP6 ADD PUSH2 0x1EBE JUMP JUMPDEST PUSH1 0x0 DUP1 PUSH1 0x0 DUP1 PUSH1 0x80 DUP6 DUP8 SUB SLT ISZERO PUSH2 0x1FCE JUMPI PUSH1 0x0 DUP1 REVERT JUMPDEST DUP5 CALLDATALOAD PUSH8 0xFFFFFFFFFFFFFFFF DUP1 DUP3 GT ISZERO PUSH2 0x1FE6 JUMPI PUSH1 0x0 DUP1 REVERT JUMPDEST PUSH2 0x1FF2 DUP9 DUP4 DUP10 ADD PUSH2 0x1F98 JUMP JUMPDEST SWAP6 POP PUSH1 0x20 DUP8 ADD CALLDATALOAD SWAP2 POP DUP1 DUP3 GT ISZERO PUSH2 0x2008 JUMPI PUSH1 0x0 DUP1 REVERT JUMPDEST POP PUSH2 0x2015 DUP8 DUP3 DUP9 ADD PUSH2 0x1F98 JUMP JUMPDEST SWAP4 POP POP PUSH1 0x40 DUP6 ADD CALLDATALOAD PUSH2 0x2026 DUP2 PUSH2 0x1DC0 JUMP JUMPDEST SWAP2 POP PUSH1 0x60 DUP6 ADD CALLDATALOAD PUSH2 0x2036 DUP2 PUSH2 0x1DC0 JUMP JUMPDEST SWAP4 SWAP7 SWAP3 SWAP6 POP SWAP1 SWAP4 POP POP JUMP JUMPDEST PUSH1 0x0 DUP1 PUSH1 0x40 DUP4 DUP6 SUB SLT ISZERO PUSH2 0x2054 JUMPI PUSH1 0x0 DUP1 REVERT JUMPDEST POP POP DUP1 CALLDATALOAD SWAP3 PUSH1 0x20 SWAP1 SWAP2 ADD CALLDATALOAD SWAP2 POP JUMP JUMPDEST PUSH1 0x0 DUP1 PUSH1 0x40 DUP4 DUP6 SUB SLT ISZERO PUSH2 0x2076 JUMPI PUSH1 0x0 DUP1 REVERT JUMPDEST DUP3 CALLDATALOAD PUSH2 0x2081 DUP2 PUSH2 0x1DC0 JUMP JUMPDEST SWAP2 POP PUSH1 0x20 DUP4 ADD CALLDATALOAD PUSH2 0x1E80 DUP2 PUSH2 0x1DC0 JUMP JUMPDEST PUSH1 0x1 DUP2 DUP2 SHR SWAP1 DUP3 AND DUP1 PUSH2 0x20A5 JUMPI PUSH1 0x7F DUP3 AND SWAP2 POP JUMPDEST PUSH1 0x20 DUP3 LT DUP2 SUB PUSH2 0x20C5 JUMPI PUSH4 0x4E487B71 PUSH1 0xE0 SHL PUSH1 0x0 MSTORE PUSH1 0x22 PUSH1 0x4 MSTORE PUSH1 0x24 PUSH1 0x0 REVERT JUMPDEST POP SWAP2 SWAP1 POP JUMP JUMPDEST PUSH1 0x20 DUP1 DUP3 MSTORE PUSH1 0x2C SWAP1 DUP3 ADD MSTORE PUSH32 0x46756E6374696F6E206D7573742062652063616C6C6564207468726F75676820 PUSH1 0x40 DUP3 ADD MSTORE PUSH12 0x19195B1959D85D1958D85B1B PUSH1 0xA2 SHL PUSH1 0x60 DUP3 ADD MSTORE PUSH1 0x80 ADD SWAP1 JUMP JUMPDEST PUSH1 0x20 DUP1 DUP3 MSTORE PUSH1 0x2C SWAP1 DUP3 ADD MSTORE PUSH32 0x46756E6374696F6E206D7573742062652063616C6C6564207468726F75676820 PUSH1 0x40 DUP3 ADD MSTORE PUSH12 0x6163746976652070726F7879 PUSH1 0xA0 SHL PUSH1 0x60 DUP3 ADD MSTORE PUSH1 0x80 ADD SWAP1 JUMP JUMPDEST PUSH4 0x4E487B71 PUSH1 0xE0 SHL PUSH1 0x0 MSTORE PUSH1 0x11 PUSH1 0x4 MSTORE PUSH1 0x24 PUSH1 0x0 REVERT JUMPDEST DUP1 DUP3 ADD DUP1 DUP3 GT ISZERO PUSH2 0x60B JUMPI PUSH2 0x60B PUSH2 0x2163 JUMP JUMPDEST PUSH1 0x0 PUSH1 0x20 DUP3 DUP5 SUB SLT ISZERO PUSH2 0x219E JUMPI PUSH1 0x0 DUP1 REVERT JUMPDEST POP MLOAD SWAP2 SWAP1 POP JUMP JUMPDEST PUSH1 0x20 DUP1 DUP3 MSTORE PUSH1 0x2B SWAP1 DUP3 ADD MSTORE PUSH32 0x496E697469616C697A61626C653A20636F6E7472616374206973206E6F742069 PUSH1 0x40 DUP3 ADD MSTORE PUSH11 0x6E697469616C697A696E67 PUSH1 0xA8 SHL PUSH1 0x60 DUP3 ADD MSTORE PUSH1 0x80 ADD SWAP1 JUMP JUMPDEST PUSH1 0x0 PUSH1 0x20 DUP3 DUP5 SUB SLT ISZERO PUSH2 0x2202 JUMPI PUSH1 0x0 DUP1 REVERT JUMPDEST DUP2 MLOAD DUP1 ISZERO ISZERO DUP2 EQ PUSH2 0x6DA JUMPI PUSH1 0x0 DUP1 REVERT JUMPDEST PUSH32 0x416363657373436F6E74726F6C3A206163636F756E7420000000000000000000 DUP2 MSTORE PUSH1 0x0 DUP4 MLOAD PUSH2 0x224A DUP2 PUSH1 0x17 DUP6 ADD PUSH1 0x20 DUP9 ADD PUSH2 0x1D69 JUMP JUMPDEST PUSH17 0x1034B99036B4B9B9B4B733903937B6329 PUSH1 0x7D SHL PUSH1 0x17 SWAP2 DUP5 ADD SWAP2 DUP3 ADD MSTORE DUP4 MLOAD PUSH2 0x227B DUP2 PUSH1 0x28 DUP5 ADD PUSH1 0x20 DUP9 ADD PUSH2 0x1D69 JUMP JUMPDEST ADD PUSH1 0x28 ADD SWAP5 SWAP4 POP POP POP POP JUMP JUMPDEST PUSH4 0x4E487B71 PUSH1 0xE0 SHL PUSH1 0x0 MSTORE PUSH1 0x32 PUSH1 0x4 MSTORE PUSH1 0x24 PUSH1 0x0 REVERT JUMPDEST DUP1 DUP3 MUL DUP2 ISZERO DUP3 DUP3 DIV DUP5 EQ OR PUSH2 0x60B JUMPI PUSH2 0x60B PUSH2 0x2163 JUMP JUMPDEST PUSH1 0x0 DUP2 PUSH2 0x22C3 JUMPI PUSH2 0x22C3 PUSH2 0x2163 JUMP JUMPDEST POP PUSH1 0x0 NOT ADD SWAP1 JUMP JUMPDEST DUP2 DUP2 SUB DUP2 DUP2 GT ISZERO PUSH2 0x60B JUMPI PUSH2 0x60B PUSH2 0x2163 JUMP JUMPDEST PUSH4 0x4E487B71 PUSH1 0xE0 SHL PUSH1 0x0 MSTORE PUSH1 0x31 PUSH1 0x4 MSTORE PUSH1 0x24 PUSH1 0x0 REVERT JUMPDEST PUSH1 0x0 DUP3 MLOAD PUSH2 0x2306 DUP2 DUP5 PUSH1 0x20 DUP8 ADD PUSH2 0x1D69 JUMP JUMPDEST SWAP2 SWAP1 SWAP2 ADD SWAP3 SWAP2 POP POP JUMP JUMPDEST PUSH1 0x1F DUP3 GT ISZERO PUSH2 0x706 JUMPI PUSH1 0x0 DUP2 DUP2 MSTORE PUSH1 0x20 DUP2 KECCAK256 PUSH1 0x1F DUP6 ADD PUSH1 0x5 SHR DUP2 ADD PUSH1 0x20 DUP7 LT ISZERO PUSH2 0x2337 JUMPI POP DUP1 JUMPDEST PUSH1 0x1F DUP6 ADD PUSH1 0x5 SHR DUP3 ADD SWAP2 POP JUMPDEST DUP2 DUP2 LT ISZERO PUSH2 0x2356 JUMPI DUP3 DUP2 SSTORE PUSH1 0x1 ADD PUSH2 0x2343 JUMP JUMPDEST POP POP POP POP POP POP JUMP JUMPDEST DUP2 MLOAD PUSH8 0xFFFFFFFFFFFFFFFF DUP2 GT ISZERO PUSH2 0x2378 JUMPI PUSH2 0x2378 PUSH2 0x1EA8 JUMP JUMPDEST PUSH2 0x238C DUP2 PUSH2 0x2386 DUP5 SLOAD PUSH2 0x2091 JUMP JUMPDEST DUP5 PUSH2 0x2310 JUMP JUMPDEST PUSH1 0x20 DUP1 PUSH1 0x1F DUP4 GT PUSH1 0x1 DUP2 EQ PUSH2 0x23C1 JUMPI PUSH1 0x0 DUP5 ISZERO PUSH2 0x23A9 JUMPI POP DUP6 DUP4 ADD MLOAD JUMPDEST PUSH1 0x0 NOT PUSH1 0x3 DUP7 SWAP1 SHL SHR NOT AND PUSH1 0x1 DUP6 SWAP1 SHL OR DUP6 SSTORE PUSH2 0x2356 JUMP JUMPDEST PUSH1 0x0 DUP6 DUP2 MSTORE PUSH1 0x20 DUP2 KECCAK256 PUSH1 0x1F NOT DUP7 AND SWAP2 JUMPDEST DUP3 DUP2 LT ISZERO PUSH2 0x23F0 JUMPI DUP9 DUP7 ADD MLOAD DUP3 SSTORE SWAP5 DUP5 ADD SWAP5 PUSH1 0x1 SWAP1 SWAP2 ADD SWAP1 DUP5 ADD PUSH2 0x23D1 JUMP JUMPDEST POP DUP6 DUP3 LT ISZERO PUSH2 0x240E JUMPI DUP8 DUP6 ADD MLOAD PUSH1 0x0 NOT PUSH1 0x3 DUP9 SWAP1 SHL PUSH1 0xF8 AND SHR NOT AND DUP2 SSTORE JUMPDEST POP POP POP POP POP PUSH1 0x1 SWAP1 DUP2 SHL ADD SWAP1 SSTORE POP JUMP INVALID EXTCODECOPY GT 0xD1 PUSH13 0xBAFFD01DF69CE1C404F6340EE0 JUMPI 0x49 DUP16 0x5F STOP 0x24 PUSH2 0x90EA SLOAD 0x22 SDIV PUSH23 0xA848360894A13BA1A3210667C828492DB98DCA3E2076CC CALLDATACOPY CALLDATALOAD 0xA9 KECCAK256 LOG3 0xCA POP 0x5D CODESIZE 0x2B 0xBC COINBASE PUSH5 0x6472657373 GASPRICE KECCAK256 PUSH13 0x6F772D6C6576656C2064656C65 PUSH8 0x6174652063616C6C KECCAK256 PUSH7 0x61696C65649F2D CREATE INVALID 0xD2 0xC7 PUSH23 0x48DE5860A4CC508CD0818C85B8B8A1AB4CEEEF8D981C89 JUMP 0xA6 LOG2 PUSH5 0x6970667358 0x22 SLT KECCAK256 SWAP12 DUP5 0xD9 0xB0 SWAP15 0xAC AND 0xDF PUSH16 0x202255A5F965FA421B2997EEE492ED4A 0xD4 0xD5 LOG2 0x25 0xB8 0xB2 DUP13 PUSH5 0x736F6C6343 STOP ADDMOD GT STOP CALLER PUSH1 0x80 PUSH1 0x40 MSTORE CALLVALUE DUP1 ISZERO PUSH2 0x10 JUMPI PUSH1 0x0 DUP1 REVERT JUMPDEST POP PUSH1 0x40 MLOAD PUSH2 0x181 CODESIZE SUB DUP1 PUSH2 0x181 DUP4 CODECOPY DUP2 ADD PUSH1 0x40 DUP2 SWAP1 MSTORE PUSH2 0x2F SWAP2 PUSH2 0x43 JUMP JUMPDEST PUSH1 0x0 SSTORE PUSH1 0x1 DUP1 SLOAD PUSH1 0xFF NOT AND DUP2 OR SWAP1 SSTORE PUSH2 0x5C JUMP JUMPDEST PUSH1 0x0 PUSH1 0x20 DUP3 DUP5 SUB SLT ISZERO PUSH2 0x55 JUMPI PUSH1 0x0 DUP1 REVERT JUMPDEST POP MLOAD SWAP2 SWAP1 POP JUMP JUMPDEST PUSH2 0x116 DUP1 PUSH2 0x6B PUSH1 0x0 CODECOPY PUSH1 0x0 RETURN INVALID PUSH1 0x80 PUSH1 0x40 MSTORE CALLVALUE DUP1 ISZERO PUSH1 0xF JUMPI PUSH1 0x0 DUP1 REVERT JUMPDEST POP PUSH1 0x4 CALLDATASIZE LT PUSH1 0x50 JUMPI PUSH1 0x0 CALLDATALOAD PUSH1 0xE0 SHR DUP1 PUSH4 0x2A3F4389 EQ PUSH1 0x55 JUMPI DUP1 PUSH4 0x32145F90 EQ PUSH1 0x70 JUMPI DUP1 PUSH4 0x5095E3D9 EQ PUSH1 0x82 JUMPI DUP1 PUSH4 0x59E02DD7 EQ PUSH1 0x90 JUMPI DUP1 PUSH4 0xB689D5AC EQ PUSH1 0xAD JUMPI JUMPDEST PUSH1 0x0 DUP1 REVERT JUMPDEST PUSH1 0x5D PUSH1 0x0 SLOAD DUP2 JUMP JUMPDEST PUSH1 0x40 MLOAD SWAP1 DUP2 MSTORE PUSH1 0x20 ADD JUMPDEST PUSH1 0x40 MLOAD DUP1 SWAP2 SUB SWAP1 RETURN JUMPDEST PUSH1 0x80 PUSH1 0x7B CALLDATASIZE PUSH1 0x4 PUSH1 0xC8 JUMP JUMPDEST PUSH1 0x0 SSTORE JUMP JUMPDEST STOP JUMPDEST PUSH1 0x80 PUSH1 0x1 DUP1 SLOAD PUSH1 0xFF NOT AND SWAP1 SSTORE JUMP JUMPDEST PUSH1 0x0 SLOAD PUSH1 0x1 SLOAD PUSH1 0xFF AND PUSH1 0x40 DUP1 MLOAD SWAP3 DUP4 MSTORE SWAP1 ISZERO ISZERO PUSH1 0x20 DUP4 ADD MSTORE ADD PUSH1 0x67 JUMP JUMPDEST PUSH1 0x1 SLOAD PUSH1 0xB9 SWAP1 PUSH1 0xFF AND DUP2 JUMP JUMPDEST PUSH1 0x40 MLOAD SWAP1 ISZERO ISZERO DUP2 MSTORE PUSH1 0x20 ADD PUSH1 0x67 JUMP JUMPDEST PUSH1 0x0 PUSH1 0x20 DUP3 DUP5 SUB SLT ISZERO PUSH1 0xD9 JUMPI PUSH1 0x0 DUP1 REVERT JUMPDEST POP CALLDATALOAD SWAP2 SWAP1 POP JUMP INVALID LOG2 PUSH5 0x6970667358 0x22 SLT KECCAK256 0x2F ORIGIN 0xD9 PUSH23 0x6874D6A34191093EA824C1F980A41BB7D175C2D324F818 PUSH18 0xDF97720A64736F6C63430008110033608060 BLOCKHASH MSTORE CALLVALUE DUP1 ISZERO PUSH2 0x10 JUMPI PUSH1 0x0 DUP1 REVERT JUMPDEST POP PUSH1 0x40 MLOAD PUSH2 0x43C CODESIZE SUB DUP1 PUSH2 0x43C DUP4 CODECOPY DUP2 ADD PUSH1 0x40 DUP2 SWAP1 MSTORE PUSH2 0x2F SWAP2 PUSH2 0x61 JUMP JUMPDEST PUSH1 0x0 DUP1 SLOAD PUSH1 0xFF SWAP1 SWAP3 AND PUSH1 0x1 PUSH1 0xA0 SHL MUL PUSH1 0x1 PUSH1 0x1 PUSH1 0xA8 SHL SUB NOT SWAP1 SWAP3 AND PUSH1 0x1 PUSH1 0x1 PUSH1 0xA0 SHL SUB SWAP1 SWAP4 AND SWAP3 SWAP1 SWAP3 OR OR SWAP1 SSTORE PUSH2 0xAE JUMP JUMPDEST PUSH1 0x0 DUP1 PUSH1 0x40 DUP4 DUP6 SUB SLT ISZERO PUSH2 0x74 JUMPI PUSH1 0x0 DUP1 REVERT JUMPDEST DUP3 MLOAD PUSH1 0x1 PUSH1 0x1 PUSH1 0xA0 SHL SUB DUP2 AND DUP2 EQ PUSH2 0x8B JUMPI PUSH1 0x0 DUP1 REVERT JUMPDEST DUP1 SWAP3 POP POP PUSH1 0x20 DUP4 ADD MLOAD DUP1 PUSH1 0x0 SIGNEXTEND DUP2 EQ PUSH2 0xA3 JUMPI PUSH1 0x0 DUP1 REVERT JUMPDEST DUP1 SWAP2 POP POP SWAP3 POP SWAP3 SWAP1 POP JUMP JUMPDEST PUSH2 0x37F DUP1 PUSH2 0xBD PUSH1 0x0 CODECOPY PUSH1 0x0 RETURN INVALID PUSH1 0x80 PUSH1 0x40 MSTORE CALLVALUE DUP1 ISZERO PUSH2 0x10 JUMPI PUSH1 0x0 DUP1 REVERT JUMPDEST POP PUSH1 0x4 CALLDATASIZE LT PUSH2 0x41 JUMPI PUSH1 0x0 CALLDATALOAD PUSH1 0xE0 SHR DUP1 PUSH4 0x12FC41CA EQ PUSH2 0x46 JUMPI DUP1 PUSH4 0x59E02DD7 EQ PUSH2 0x73 JUMPI DUP1 PUSH4 0xB888879E EQ PUSH2 0x90 JUMPI JUMPDEST PUSH1 0x0 DUP1 REVERT JUMPDEST PUSH1 0x0 DUP1 SLOAD PUSH2 0x5B SWAP2 PUSH1 0x1 PUSH1 0xA0 SHL SWAP1 SWAP2 DIV SWAP1 SIGNEXTEND DUP2 JUMP JUMPDEST PUSH1 0x40 MLOAD PUSH1 0x0 SWAP2 SWAP1 SWAP2 SIGNEXTEND DUP2 MSTORE PUSH1 0x20 ADD JUMPDEST PUSH1 0x40 MLOAD DUP1 SWAP2 SUB SWAP1 RETURN JUMPDEST PUSH2 0x7B PUSH2 0xBB JUMP JUMPDEST PUSH1 0x40 DUP1 MLOAD SWAP3 DUP4 MSTORE SWAP1 ISZERO ISZERO PUSH1 0x20 DUP4 ADD MSTORE ADD PUSH2 0x6A JUMP JUMPDEST PUSH1 0x0 SLOAD PUSH2 0xA3 SWAP1 PUSH1 0x1 PUSH1 0x1 PUSH1 0xA0 SHL SUB AND DUP2 JUMP JUMPDEST PUSH1 0x40 MLOAD PUSH1 0x1 PUSH1 0x1 PUSH1 0xA0 SHL SUB SWAP1 SWAP2 AND DUP2 MSTORE PUSH1 0x20 ADD PUSH2 0x6A JUMP JUMPDEST PUSH1 0x0 DUP1 SLOAD PUSH1 0x40 DUP1 MLOAD PUSH4 0x59E02DD7 PUSH1 0xE0 SHL DUP2 MSTORE DUP2 MLOAD DUP5 SWAP4 PUSH1 0x1 PUSH1 0x1 PUSH1 0xA0 SHL SUB AND SWAP3 PUSH4 0x59E02DD7 SWAP3 PUSH1 0x4 DUP1 DUP3 ADD SWAP4 SWAP2 DUP3 SWAP1 SUB ADD DUP2 DUP7 GAS STATICCALL ISZERO DUP1 ISZERO PUSH2 0x101 JUMPI RETURNDATASIZE PUSH1 0x0 DUP1 RETURNDATACOPY RETURNDATASIZE PUSH1 0x0 REVERT JUMPDEST POP POP POP POP PUSH1 0x40 MLOAD RETURNDATASIZE PUSH1 0x1F NOT PUSH1 0x1F DUP3 ADD AND DUP3 ADD DUP1 PUSH1 0x40 MSTORE POP DUP2 ADD SWAP1 PUSH2 0x125 SWAP2 SWAP1 PUSH2 0x1AB JUMP JUMPDEST PUSH1 0x0 DUP1 SLOAD SWAP3 SWAP5 POP SWAP1 SWAP3 POP PUSH1 0x1 PUSH1 0xA0 SHL SWAP1 SWAP2 DIV DUP2 SIGNEXTEND SGT ISZERO PUSH2 0x168 JUMPI PUSH1 0x0 DUP1 SLOAD PUSH2 0x158 SWAP2 PUSH1 0x1 PUSH1 0xA0 SHL SWAP1 SWAP2 DIV SWAP1 SIGNEXTEND PUSH1 0xA PUSH2 0x2DC JUMP JUMPDEST PUSH2 0x162 SWAP1 DUP4 PUSH2 0x2F2 JUMP JUMPDEST SWAP2 POP SWAP1 SWAP2 JUMP JUMPDEST PUSH1 0x0 DUP1 SLOAD PUSH1 0x1 PUSH1 0xA0 SHL SWAP1 DIV DUP2 SIGNEXTEND SLT ISZERO PUSH2 0x1A7 JUMPI PUSH1 0x0 DUP1 SLOAD PUSH2 0x192 SWAP2 PUSH1 0x1 PUSH1 0xA0 SHL SWAP1 SWAP2 DIV SWAP1 SIGNEXTEND PUSH2 0x309 JUMP JUMPDEST PUSH2 0x19D SWAP1 PUSH1 0xA PUSH2 0x2DC JUMP JUMPDEST PUSH2 0x162 SWAP1 DUP4 PUSH2 0x327 JUMP JUMPDEST SWAP1 SWAP2 JUMP JUMPDEST PUSH1 0x0 DUP1 PUSH1 0x40 DUP4 DUP6 SUB SLT ISZERO PUSH2 0x1BE JUMPI PUSH1 0x0 DUP1 REVERT JUMPDEST DUP3 MLOAD SWAP2 POP PUSH1 0x20 DUP4 ADD MLOAD DUP1 ISZERO ISZERO DUP2 EQ PUSH2 0x1D5 JUMPI PUSH1 0x0 DUP1 REVERT JUMPDEST DUP1 SWAP2 POP POP SWAP3 POP SWAP3 SWAP1 POP JUMP JUMPDEST PUSH4 0x4E487B71 PUSH1 0xE0 SHL PUSH1 0x0 MSTORE PUSH1 0x11 PUSH1 0x4 MSTORE PUSH1 0x24 PUSH1 0x0 REVERT JUMPDEST PUSH1 0x1 DUP2 DUP2 JUMPDEST DUP1 DUP6 GT ISZERO PUSH2 0x231 JUMPI DUP2 PUSH1 0x0 NOT DIV DUP3 GT ISZERO PUSH2 0x217 JUMPI PUSH2 0x217 PUSH2 0x1E0 JUMP JUMPDEST DUP1 DUP6 AND ISZERO PUSH2 0x224 JUMPI SWAP2 DUP2 MUL SWAP2 JUMPDEST SWAP4 DUP5 SHR SWAP4 SWAP1 DUP1 MUL SWAP1 PUSH2 0x1FB JUMP JUMPDEST POP SWAP3 POP SWAP3 SWAP1 POP JUMP JUMPDEST PUSH1 0x0 DUP3 PUSH2 0x248 JUMPI POP PUSH1 0x1 PUSH2 0x2D6 JUMP JUMPDEST DUP2 PUSH2 0x255 JUMPI POP PUSH1 0x0 PUSH2 0x2D6 JUMP JUMPDEST DUP2 PUSH1 0x1 DUP2 EQ PUSH2 0x26B JUMPI PUSH1 0x2 DUP2 EQ PUSH2 0x275 JUMPI PUSH2 0x291 JUMP JUMPDEST PUSH1 0x1 SWAP2 POP POP PUSH2 0x2D6 JUMP JUMPDEST PUSH1 0xFF DUP5 GT ISZERO PUSH2 0x286 JUMPI PUSH2 0x286 PUSH2 0x1E0 JUMP JUMPDEST POP POP PUSH1 0x1 DUP3 SHL PUSH2 0x2D6 JUMP JUMPDEST POP PUSH1 0x20 DUP4 LT PUSH2 0x133 DUP4 LT AND PUSH1 0x4E DUP5 LT PUSH1 0xB DUP5 LT AND OR ISZERO PUSH2 0x2B4 JUMPI POP DUP2 DUP2 EXP PUSH2 0x2D6 JUMP JUMPDEST PUSH2 0x2BE DUP4 DUP4 PUSH2 0x1F6 JUMP JUMPDEST DUP1 PUSH1 0x0 NOT DIV DUP3 GT ISZERO PUSH2 0x2D2 JUMPI PUSH2 0x2D2 PUSH2 0x1E0 JUMP JUMPDEST MUL SWAP1 POP JUMPDEST SWAP3 SWAP2 POP POP JUMP JUMPDEST PUSH1 0x0 PUSH2 0x2EB PUSH1 0xFF DUP5 AND DUP4 PUSH2 0x239 JUMP JUMPDEST SWAP4 SWAP3 POP POP POP JUMP JUMPDEST DUP1 DUP3 MUL DUP2 ISZERO DUP3 DUP3 DIV DUP5 EQ OR PUSH2 0x2D6 JUMPI PUSH2 0x2D6 PUSH2 0x1E0 JUMP JUMPDEST PUSH1 0x0 DUP2 DUP2 SIGNEXTEND PUSH1 0x80 DUP2 ADD PUSH2 0x31E JUMPI PUSH2 0x31E PUSH2 0x1E0 JUMP JUMPDEST PUSH1 0x0 SUB SWAP3 SWAP2 POP POP JUMP JUMPDEST PUSH1 0x0 DUP3 PUSH2 0x344 JUMPI PUSH4 0x4E487B71 PUSH1 0xE0 SHL PUSH1 0x0 MSTORE PUSH1 0x12 PUSH1 0x4 MSTORE PUSH1 0x24 PUSH1 0x0 REVERT JUMPDEST POP DIV SWAP1 JUMP INVALID LOG2 PUSH5 0x6970667358 0x22 SLT KECCAK256 NUMBER XOR 0xC 0xBE CODECOPY PUSH20 0x69638AF36CF919D218D540E2198FE4BCB2ED08E8 SAR 0xEE DUP12 BASEFEE ADDRESS 0xF7 PUSH5 0x736F6C6343 STOP ADDMOD GT STOP CALLER "
    },
    "gasEstimates": {
      "creation": {
        "codeDepositCost": "4129600",
        "executionCost": "infinite",
        "totalCost": "infinite"
      },
      "external": {
        "addAsset(uint8)": "infinite",
        "addPeggedToken((address,address,uint256,uint256,uint256,uint256,uint256),uint96)": "infinite",
        "echidna_wrappedTokenPrice_always_ONE()": "infinite",
        "mintTC(uint8,uint256)": "infinite",
        "pokePrice(uint256,uint96)": "infinite",
        "redeemTC(uint8,uint256)": "infinite"
      },
      "internal": {
        "_deployProxy(address)": "infinite"
      }
    },
    "methodIdentifiers": {
      "addAsset(uint8)": "e0955452",
      "addPeggedToken((address,address,uint256,uint256,uint256,uint256,uint256),uint96)": "24035d38",
      "echidna_wrappedTokenPrice_always_ONE()": "b75205cb",
      "mintTC(uint8,uint256)": "499e3b16",
      "pokePrice(uint256,uint96)": "3295b14f",
      "redeemTC(uint8,uint256)": "a1791617"
    }
  },
  "storageLayout": {
    "storage": [
      {
        "astId": 17234,
        "contract": "contracts/echidna/EchidnaMocWrapperTester.sol:EchidnaMocWrapperTester",
        "label": "mocCARC20",
        "offset": 0,
        "slot": "0",
        "type": "t_contract(MocCARC20)11008"
      },
      {
        "astId": 17237,
        "contract": "contracts/echidna/EchidnaMocWrapperTester.sol:EchidnaMocWrapperTester",
        "label": "governor",
        "offset": 0,
        "slot": "1",
        "type": "t_contract(GovernorMock)19199"
      },
      {
        "astId": 17240,
        "contract": "contracts/echidna/EchidnaMocWrapperTester.sol:EchidnaMocWrapperTester",
        "label": "tcToken",
        "offset": 0,
        "slot": "2",
        "type": "t_contract(MocTC)19649"
      },
      {
        "astId": 17243,
        "contract": "contracts/echidna/EchidnaMocWrapperTester.sol:EchidnaMocWrapperTester",
        "label": "acToken",
        "offset": 0,
        "slot": "3",
        "type": "t_contract(ERC20Mock)18787"
      },
      {
        "astId": 17245,
        "contract": "contracts/echidna/EchidnaMocWrapperTester.sol:EchidnaMocWrapperTester",
        "label": "mocFeeFlow",
        "offset": 0,
        "slot": "4",
        "type": "t_address"
      },
      {
        "astId": 17247,
        "contract": "contracts/echidna/EchidnaMocWrapperTester.sol:EchidnaMocWrapperTester",
        "label": "mocAppreciationBeneficiary",
        "offset": 0,
        "slot": "5",
        "type": "t_address"
      },
      {
        "astId": 17249,
        "contract": "contracts/echidna/EchidnaMocWrapperTester.sol:EchidnaMocWrapperTester",
        "label": "totalPeggedTokensAdded",
        "offset": 0,
        "slot": "6",
        "type": "t_uint256"
      },
      {
        "astId": 17252,
        "contract": "contracts/echidna/EchidnaMocWrapperTester.sol:EchidnaMocWrapperTester",
        "label": "mocWrapper",
        "offset": 0,
        "slot": "7",
        "type": "t_contract(MocCAWrapper)10545"
      },
      {
        "astId": 17256,
        "contract": "contracts/echidna/EchidnaMocWrapperTester.sol:EchidnaMocWrapperTester",
        "label": "assetsAdded",
        "offset": 0,
        "slot": "8",
        "type": "t_array(t_contract(ERC20Mock)18787)dyn_storage"
      }
    ],
    "types": {
      "t_address": {
        "encoding": "inplace",
        "label": "address",
        "numberOfBytes": "20"
      },
      "t_array(t_contract(ERC20Mock)18787)dyn_storage": {
        "base": "t_contract(ERC20Mock)18787",
        "encoding": "dynamic_array",
        "label": "contract ERC20Mock[]",
        "numberOfBytes": "32"
      },
      "t_contract(ERC20Mock)18787": {
        "encoding": "inplace",
        "label": "contract ERC20Mock",
        "numberOfBytes": "20"
      },
      "t_contract(GovernorMock)19199": {
        "encoding": "inplace",
        "label": "contract GovernorMock",
        "numberOfBytes": "20"
      },
      "t_contract(MocCARC20)11008": {
        "encoding": "inplace",
        "label": "contract MocCARC20",
        "numberOfBytes": "20"
      },
      "t_contract(MocCAWrapper)10545": {
        "encoding": "inplace",
        "label": "contract MocCAWrapper",
        "numberOfBytes": "20"
      },
      "t_contract(MocTC)19649": {
        "encoding": "inplace",
        "label": "contract MocTC",
        "numberOfBytes": "20"
      },
      "t_uint256": {
        "encoding": "inplace",
        "label": "uint256",
        "numberOfBytes": "32"
      }
    }
  },
  "userdoc": {
    "kind": "user",
    "methods": {},
    "notice": "This test purpose is to check that operating with assets with different decimals than 18 doesnt affect the wrapped token price",
    "version": 1
  }
}