{
  "contractName": "DataProviderMock",
  "sourceName": "contracts/mocks/DataProviderMock.sol",
  "abi": [
    {
      "inputs": [
        {
          "internalType": "uint256",
          "name": "data_",
          "type": "uint256"
        }
      ],
      "stateMutability": "nonpayable",
      "type": "constructor"
    },
    {
      "inputs": [],
      "name": "data",
      "outputs": [
        {
          "internalType": "bytes32",
          "name": "",
          "type": "bytes32"
        }
      ],
      "stateMutability": "view",
      "type": "function"
    },
    {
      "inputs": [],
      "name": "deprecateDataProvider",
      "outputs": [],
      "stateMutability": "nonpayable",
      "type": "function"
    },
    {
      "inputs": [],
      "name": "has",
      "outputs": [
        {
          "internalType": "bool",
          "name": "",
          "type": "bool"
        }
      ],
      "stateMutability": "view",
      "type": "function"
    },
    {
      "inputs": [],
      "name": "peek",
      "outputs": [
        {
          "internalType": "bytes32",
          "name": "",
          "type": "bytes32"
        },
        {
          "internalType": "bool",
          "name": "",
          "type": "bool"
        }
      ],
      "stateMutability": "view",
      "type": "function"
    },
    {
      "inputs": [
        {
          "internalType": "uint256",
          "name": "data_",
          "type": "uint256"
        }
      ],
      "name": "poke",
      "outputs": [],
      "stateMutability": "nonpayable",
      "type": "function"
    }
  ],
  "bytecode": "0x60803461005c57601f61019638819003918201601f19168301916001600160401b038311848410176100605780849260209460405283398101031261005c57515f55600160ff198154161760015560405161012190816100758239f35b5f80fd5b634e487b7160e01b5f52604160045260245ffdfe60808060405260043610156011575f80fd5b5f90813560e01c90816332145f901460d357816359e02dd71460a95750806373d4a13a14608e578063b689d5ac14606d5763c62dee0d14604f575f80fd5b34606a5780600319360112606a5760ff196001541660015580f35b80fd5b5034606a5780600319360112606a57602060ff600154166040519015158152f35b5034606a5780600319360112606a5760209054604051908152f35b90503460cf578160031936011260cf576040915460ff6001541690825215156020820152f35b5080fd5b8234606a576020366003190112606a57600435815580f3fea2646970667358221220cdfee9ec5ddc673a5f3cbca28b2c9f31f256b475dca7337243c0463cc0cfa99e64736f6c63430008140033",
  "linkReferences": {},
  "deployedLinkReferences": {},
  "devdoc": {
    "kind": "dev",
    "methods": {
      "constructor": {
        "params": {
          "data_": "default data"
        }
      },
      "peek()": {
        "params": {
          "data": "peeked",
          "valid": "true if the data is valid"
        }
      }
    },
    "version": 1
  },
  "evm": {
    "bytecode": {
      "linkReferences": {},
      "opcodes": "PUSH1 0x80 CALLVALUE PUSH2 0x5C JUMPI PUSH1 0x1F PUSH2 0x196 CODESIZE DUP2 SWAP1 SUB SWAP2 DUP3 ADD PUSH1 0x1F NOT AND DUP4 ADD SWAP2 PUSH1 0x1 PUSH1 0x1 PUSH1 0x40 SHL SUB DUP4 GT DUP5 DUP5 LT OR PUSH2 0x60 JUMPI DUP1 DUP5 SWAP3 PUSH1 0x20 SWAP5 PUSH1 0x40 MSTORE DUP4 CODECOPY DUP2 ADD SUB SLT PUSH2 0x5C JUMPI MLOAD PUSH0 SSTORE PUSH1 0x1 PUSH1 0xFF NOT DUP2 SLOAD AND OR PUSH1 0x1 SSTORE PUSH1 0x40 MLOAD PUSH2 0x121 SWAP1 DUP2 PUSH2 0x75 DUP3 CODECOPY RETURN JUMPDEST PUSH0 DUP1 REVERT JUMPDEST PUSH4 0x4E487B71 PUSH1 0xE0 SHL PUSH0 MSTORE PUSH1 0x41 PUSH1 0x4 MSTORE PUSH1 0x24 PUSH0 REVERT INVALID PUSH1 0x80 DUP1 PUSH1 0x40 MSTORE PUSH1 0x4 CALLDATASIZE LT ISZERO PUSH1 0x11 JUMPI PUSH0 DUP1 REVERT JUMPDEST PUSH0 SWAP1 DUP2 CALLDATALOAD PUSH1 0xE0 SHR SWAP1 DUP2 PUSH4 0x32145F90 EQ PUSH1 0xD3 JUMPI DUP2 PUSH4 0x59E02DD7 EQ PUSH1 0xA9 JUMPI POP DUP1 PUSH4 0x73D4A13A EQ PUSH1 0x8E JUMPI DUP1 PUSH4 0xB689D5AC EQ PUSH1 0x6D JUMPI PUSH4 0xC62DEE0D EQ PUSH1 0x4F JUMPI PUSH0 DUP1 REVERT JUMPDEST CALLVALUE PUSH1 0x6A JUMPI DUP1 PUSH1 0x3 NOT CALLDATASIZE ADD SLT PUSH1 0x6A JUMPI PUSH1 0xFF NOT PUSH1 0x1 SLOAD AND PUSH1 0x1 SSTORE DUP1 RETURN JUMPDEST DUP1 REVERT JUMPDEST POP CALLVALUE PUSH1 0x6A JUMPI DUP1 PUSH1 0x3 NOT CALLDATASIZE ADD SLT PUSH1 0x6A JUMPI PUSH1 0x20 PUSH1 0xFF PUSH1 0x1 SLOAD AND PUSH1 0x40 MLOAD SWAP1 ISZERO ISZERO DUP2 MSTORE RETURN JUMPDEST POP CALLVALUE PUSH1 0x6A JUMPI DUP1 PUSH1 0x3 NOT CALLDATASIZE ADD SLT PUSH1 0x6A JUMPI PUSH1 0x20 SWAP1 SLOAD PUSH1 0x40 MLOAD SWAP1 DUP2 MSTORE RETURN JUMPDEST SWAP1 POP CALLVALUE PUSH1 0xCF JUMPI DUP2 PUSH1 0x3 NOT CALLDATASIZE ADD SLT PUSH1 0xCF JUMPI PUSH1 0x40 SWAP2 SLOAD PUSH1 0xFF PUSH1 0x1 SLOAD AND SWAP1 DUP3 MSTORE ISZERO ISZERO PUSH1 0x20 DUP3 ADD MSTORE RETURN JUMPDEST POP DUP1 REVERT JUMPDEST DUP3 CALLVALUE PUSH1 0x6A JUMPI PUSH1 0x20 CALLDATASIZE PUSH1 0x3 NOT ADD SLT PUSH1 0x6A JUMPI PUSH1 0x4 CALLDATALOAD DUP2 SSTORE DUP1 RETURN INVALID LOG2 PUSH5 0x6970667358 0x22 SLT KECCAK256 0xCD INVALID 0xE9 0xEC 0x5D 0xDC PUSH8 0x3A5F3CBCA28B2C9F BALANCE CALLCODE JUMP 0xB4 PUSH22 0xDCA7337243C0463CC0CFA99E64736F6C634300081400 CALLER "
    },
    "gasEstimates": {
      "creation": {
        "codeDepositCost": "57800",
        "executionCost": "infinite",
        "totalCost": "infinite"
      },
      "external": {
        "data()": "2309",
        "deprecateDataProvider()": "24439",
        "has()": "2343",
        "peek()": "4412",
        "poke(uint256)": "22249"
      }
    },
    "methodIdentifiers": {
      "data()": "73d4a13a",
      "deprecateDataProvider()": "c62dee0d",
      "has()": "b689d5ac",
      "peek()": "59e02dd7",
      "poke(uint256)": "32145f90"
    }
  },
  "storageLayout": {
    "storage": [
      {
        "astId": 25517,
        "contract": "contracts/mocks/DataProviderMock.sol:DataProviderMock",
        "label": "data",
        "offset": 0,
        "slot": "0",
        "type": "t_bytes32"
      },
      {
        "astId": 25519,
        "contract": "contracts/mocks/DataProviderMock.sol:DataProviderMock",
        "label": "has",
        "offset": 0,
        "slot": "1",
        "type": "t_bool"
      }
    ],
    "types": {
      "t_bool": {
        "encoding": "inplace",
        "label": "bool",
        "numberOfBytes": "1"
      },
      "t_bytes32": {
        "encoding": "inplace",
        "label": "bytes32",
        "numberOfBytes": "32"
      }
    }
  },
  "userdoc": {
    "kind": "user",
    "methods": {
      "constructor": {
        "notice": "constructor"
      },
      "peek()": {
        "notice": "returns the given `data` if `valid`"
      }
    },
    "version": 1
  }
}