{
  "contractName": "Governor",
  "abi": [
    {
      "anonymous": false,
      "inputs": [
        {
          "indexed": true,
          "internalType": "address",
          "name": "previousOwner",
          "type": "address"
        },
        {
          "indexed": true,
          "internalType": "address",
          "name": "newOwner",
          "type": "address"
        }
      ],
      "name": "OwnershipTransferred",
      "type": "event"
    },
    {
      "constant": false,
      "inputs": [],
      "name": "initialize",
      "outputs": [],
      "payable": false,
      "stateMutability": "nonpayable",
      "type": "function"
    },
    {
      "constant": false,
      "inputs": [
        {
          "internalType": "address",
          "name": "sender",
          "type": "address"
        }
      ],
      "name": "initialize",
      "outputs": [],
      "payable": false,
      "stateMutability": "nonpayable",
      "type": "function"
    },
    {
      "constant": true,
      "inputs": [],
      "name": "isOwner",
      "outputs": [
        {
          "internalType": "bool",
          "name": "",
          "type": "bool"
        }
      ],
      "payable": false,
      "stateMutability": "view",
      "type": "function"
    },
    {
      "constant": true,
      "inputs": [],
      "name": "owner",
      "outputs": [
        {
          "internalType": "address",
          "name": "",
          "type": "address"
        }
      ],
      "payable": false,
      "stateMutability": "view",
      "type": "function"
    },
    {
      "constant": false,
      "inputs": [],
      "name": "renounceOwnership",
      "outputs": [],
      "payable": false,
      "stateMutability": "nonpayable",
      "type": "function"
    },
    {
      "constant": false,
      "inputs": [
        {
          "internalType": "address",
          "name": "newOwner",
          "type": "address"
        }
      ],
      "name": "transferOwnership",
      "outputs": [],
      "payable": false,
      "stateMutability": "nonpayable",
      "type": "function"
    },
    {
      "constant": false,
      "inputs": [
        {
          "internalType": "contract ChangeContract",
          "name": "changeContract",
          "type": "address"
        }
      ],
      "name": "executeChange",
      "outputs": [],
      "payable": false,
      "stateMutability": "nonpayable",
      "type": "function"
    },
    {
      "constant": true,
      "inputs": [
        {
          "internalType": "address",
          "name": "_changer",
          "type": "address"
        }
      ],
      "name": "isAuthorizedChanger",
      "outputs": [
        {
          "internalType": "bool",
          "name": "",
          "type": "bool"
        }
      ],
      "payable": false,
      "stateMutability": "view",
      "type": "function"
    }
  ],
  "bytecode": "0x608060405234801561001057600080fd5b5061061b806100206000396000f3fe608060405234801561001057600080fd5b50600436106100a5576000357c0100000000000000000000000000000000000000000000000000000000900480638f32d59b116100785780638f32d59b14610106578063c4d66de814610122578063d994d6d514610148578063f2fde38b1461016e576100a5565b8063715018a6146100aa5780638129fc1c146100b45780638c777e82146100bc5780638da5cb5b146100e2575b600080fd5b6100b2610194565b005b6100b26101fc565b6100b2600480360360208110156100d257600080fd5b5035600160a060020a03166102bd565b6100ea6102c6565b60408051600160a060020a039092168252519081900360200190f35b61010e6102d5565b604080519115158252519081900360200190f35b6100b26004803603602081101561013857600080fd5b5035600160a060020a03166102e6565b61010e6004803603602081101561015e57600080fd5b5035600160a060020a03166103ff565b6100b26004803603602081101561018457600080fd5b5035600160a060020a0316610410565b61019c6102d5565b6101a557600080fd5b606654604051600091600160a060020a0316907f8be0079c531659141344cd1fd0a4f28419497f9722a3daafe3b4186f6b6457e0908390a36066805473ffffffffffffffffffffffffffffffffffffffff19169055565b600054610100900460ff1680610215575061021561042a565b80610223575060005460ff16155b610278576040517f08c379a000000000000000000000000000000000000000000000000000000000815260040180806020018281038252602e8152602001806105b9602e913960400191505060405180910390fd5b600054610100900460ff161580156102a3576000805460ff1961ff0019909116610100171660011790555b600160335580156102ba576000805461ff00191690555b50565b6102ba81610430565b606654600160a060020a031690565b606654600160a060020a0316331490565b600054610100900460ff16806102ff57506102ff61042a565b8061030d575060005460ff16155b610362576040517f08c379a000000000000000000000000000000000000000000000000000000000815260040180806020018281038252602e8152602001806105b9602e913960400191505060405180910390fd5b600054610100900460ff1615801561038d576000805460ff1961ff0019909116610100171660011790555b6066805473ffffffffffffffffffffffffffffffffffffffff1916600160a060020a0384811691909117918290556040519116906000907f8be0079c531659141344cd1fd0a4f28419497f9722a3daafe3b4186f6b6457e0908290a380156103fb576000805461ff00191690555b5050565b600061040a826104da565b92915050565b6104186102d5565b61042157600080fd5b6102ba816104ee565b303b1590565b60338054600101908190556104436102d5565b61044c57600080fd5b6104558261056a565b81600160a060020a031663614619546040518163ffffffff167c0100000000000000000000000000000000000000000000000000000000028152600401600060405180830381600087803b1580156104ac57600080fd5b505af11580156104c0573d6000803e3d6000fd5b505050506104cc610599565b60335481146103fb57600080fd5b609954600160a060020a0391821691161490565b600160a060020a03811661050157600080fd5b606654604051600160a060020a038084169216907f8be0079c531659141344cd1fd0a4f28419497f9722a3daafe3b4186f6b6457e090600090a36066805473ffffffffffffffffffffffffffffffffffffffff1916600160a060020a0392909216919091179055565b6099805473ffffffffffffffffffffffffffffffffffffffff1916600160a060020a0392909216919091179055565b6099805473ffffffffffffffffffffffffffffffffffffffff1916905556fe436f6e747261637420696e7374616e63652068617320616c7265616479206265656e20696e697469616c697a6564a265627a7a7231582089aee3ccb4ed061f9cc4b60e07860b4078b2d89d957f0cb18ff20030531106d264736f6c63430005110032",
  "source": "pragma solidity ^0.5.8;\n\nimport \"openzeppelin-eth/contracts/ownership/Ownable.sol\";\nimport \"openzeppelin-eth/contracts/utils/ReentrancyGuard.sol\";\n\nimport \"./ChangeContract.sol\";\nimport \"./IGovernor.sol\";\n\n/**\n  @title Governor\n  @notice Basic governor that handles its governed contracts changes\n  through trusting an external address\n  */\ncontract Governor is ReentrancyGuard, Ownable, IGovernor {\n\n  address private currentChangeContract;\n\n  /**\n    @notice Function to be called to make the changes in changeContract\n    @param changeContract Address of the contract that will execute the changes\n   */\n  function executeChange(ChangeContract changeContract) external {\n    _executeChange(changeContract);\n  }\n\n\n  /**\n    @notice Returns true if the _changer address is currently authorized to make\n    changes within the system\n    @param _changer Address of the contract that will be tested\n   */\n  function isAuthorizedChanger(address _changer) external view returns (bool) {\n    return _isAuthorizedChanger(_changer);\n  }\n\n\n\n  /**\n    @notice Function to be called to make the changes in changeContract\n    @param changeContract Address of the contract that will execute the changes\n   */\n  function _executeChange(ChangeContract changeContract) internal nonReentrant onlyOwner {\n    enableChangeContract(changeContract);\n    changeContract.execute();\n    disableChangeContract();\n  }\n\n  /**\n    @notice Returns true if the _changer address is currently authorized to make\n    changes within the system\n    @param _changer Address of the contract that will be tested\n   */\n  function _isAuthorizedChanger(address _changer) internal view returns (bool) {\n    return currentChangeContract == _changer;\n  }\n\n  /**\n    @notice Authorize the changeContract address to make changes\n    @param changeContract Address of the contract that will be authorized\n   */\n  function enableChangeContract(ChangeContract changeContract) internal {\n    currentChangeContract = address(changeContract);\n  }\n\n  /**\n    @notice UNAuthorize the currentChangeContract address to make changes\n   */\n  function disableChangeContract() internal {\n    currentChangeContract = address(0x0);\n  }\n\n  // Leave a gap betweeen inherited contracts variables in order to be\n  // able to add more variables in them later\n  uint256[50] private upgradeGap;\n}\n",
  "sourcePath": "/home/atix/proyectos/moc/Areopagus-Governance/contracts/Governance/Governor.sol",
  "compiler": {
    "name": "solc",
    "version": "0.5.17+commit.d19bba13.Emscripten.clang"
  },
  "schemaVersion": "3.0.10",
  "updatedAt": "2022-07-07T20:37:45.258Z",
  "devdoc": {
    "methods": {
      "executeChange(address)": {
        "params": {
          "changeContract": "Address of the contract that will execute the changes"
        }
      },
      "initialize(address)": {
        "details": "The Ownable constructor sets the original `owner` of the contract to the sender account."
      },
      "isAuthorizedChanger(address)": {
        "params": {
          "_changer": "Address of the contract that will be tested"
        }
      },
      "isOwner()": {
        "return": "true if `msg.sender` is the owner of the contract."
      },
      "owner()": {
        "return": "the address of the owner."
      },
      "renounceOwnership()": {
        "details": "Allows the current owner to relinquish control of the contract."
      },
      "transferOwnership(address)": {
        "details": "Allows the current owner to transfer control of the contract to a newOwner.",
        "params": {
          "newOwner": "The address to transfer ownership to."
        }
      }
    },
    "title": "Governor"
  },
  "userdoc": {
    "methods": {
      "executeChange(address)": {
        "notice": "Function to be called to make the changes in changeContract"
      },
      "isAuthorizedChanger(address)": {
        "notice": "Returns true if the _changer address is currently authorized to make changes within the system"
      },
      "renounceOwnership()": {
        "notice": "Renouncing to ownership will leave the contract without an owner. It will not be possible to call the functions with the `onlyOwner` modifier anymore."
      }
    },
    "notice": "Basic governor that handles its governed contracts changes through trusting an external address"
  }
}