{
  "contractName": "MocQueue",
  "sourceName": "contracts/queue/MocQueue.sol",
  "abi": [
    {
      "inputs": [],
      "name": "BucketAlreadyRegistered",
      "type": "error"
    },
    {
      "inputs": [],
      "name": "ExecutionFeePaymentFailed",
      "type": "error"
    },
    {
      "inputs": [],
      "name": "InvalidAddress",
      "type": "error"
    },
    {
      "inputs": [],
      "name": "InvalidValue",
      "type": "error"
    },
    {
      "inputs": [],
      "name": "NotAllowOnNoneEmptyQueue",
      "type": "error"
    },
    {
      "inputs": [],
      "name": "NotAuthorizedChanger",
      "type": "error"
    },
    {
      "inputs": [],
      "name": "NotWhenPaused",
      "type": "error"
    },
    {
      "inputs": [],
      "name": "OnlyPauser",
      "type": "error"
    },
    {
      "inputs": [],
      "name": "OnlyWhilePaused",
      "type": "error"
    },
    {
      "inputs": [],
      "name": "Unstoppable",
      "type": "error"
    },
    {
      "inputs": [
        {
          "internalType": "uint256",
          "name": "expectedValue",
          "type": "uint256"
        }
      ],
      "name": "WrongExecutionFee",
      "type": "error"
    },
    {
      "anonymous": false,
      "inputs": [
        {
          "indexed": false,
          "internalType": "address",
          "name": "previousAdmin",
          "type": "address"
        },
        {
          "indexed": false,
          "internalType": "address",
          "name": "newAdmin",
          "type": "address"
        }
      ],
      "name": "AdminChanged",
      "type": "event"
    },
    {
      "anonymous": false,
      "inputs": [
        {
          "indexed": true,
          "internalType": "address",
          "name": "beacon",
          "type": "address"
        }
      ],
      "name": "BeaconUpgraded",
      "type": "event"
    },
    {
      "anonymous": false,
      "inputs": [
        {
          "indexed": false,
          "internalType": "uint8",
          "name": "version",
          "type": "uint8"
        }
      ],
      "name": "Initialized",
      "type": "event"
    },
    {
      "anonymous": false,
      "inputs": [
        {
          "indexed": false,
          "internalType": "uint256",
          "name": "operId_",
          "type": "uint256"
        },
        {
          "indexed": false,
          "internalType": "bytes4",
          "name": "errorCode_",
          "type": "bytes4"
        },
        {
          "indexed": false,
          "internalType": "string",
          "name": "msg_",
          "type": "string"
        }
      ],
      "name": "OperationError",
      "type": "event"
    },
    {
      "anonymous": false,
      "inputs": [
        {
          "indexed": true,
          "internalType": "address",
          "name": "executor",
          "type": "address"
        },
        {
          "indexed": true,
          "internalType": "uint256",
          "name": "operId_",
          "type": "uint256"
        }
      ],
      "name": "OperationExecuted",
      "type": "event"
    },
    {
      "anonymous": false,
      "inputs": [
        {
          "indexed": true,
          "internalType": "address",
          "name": "bucket_",
          "type": "address"
        },
        {
          "indexed": false,
          "internalType": "uint256",
          "name": "operId_",
          "type": "uint256"
        },
        {
          "indexed": false,
          "internalType": "enum MocQueueExecFees.OperType",
          "name": "operType_",
          "type": "uint8"
        }
      ],
      "name": "OperationQueued",
      "type": "event"
    },
    {
      "anonymous": false,
      "inputs": [
        {
          "indexed": false,
          "internalType": "address",
          "name": "account",
          "type": "address"
        }
      ],
      "name": "Paused",
      "type": "event"
    },
    {
      "anonymous": false,
      "inputs": [
        {
          "indexed": true,
          "internalType": "bytes32",
          "name": "role",
          "type": "bytes32"
        },
        {
          "indexed": true,
          "internalType": "bytes32",
          "name": "previousAdminRole",
          "type": "bytes32"
        },
        {
          "indexed": true,
          "internalType": "bytes32",
          "name": "newAdminRole",
          "type": "bytes32"
        }
      ],
      "name": "RoleAdminChanged",
      "type": "event"
    },
    {
      "anonymous": false,
      "inputs": [
        {
          "indexed": true,
          "internalType": "bytes32",
          "name": "role",
          "type": "bytes32"
        },
        {
          "indexed": true,
          "internalType": "address",
          "name": "account",
          "type": "address"
        },
        {
          "indexed": true,
          "internalType": "address",
          "name": "sender",
          "type": "address"
        }
      ],
      "name": "RoleGranted",
      "type": "event"
    },
    {
      "anonymous": false,
      "inputs": [
        {
          "indexed": true,
          "internalType": "bytes32",
          "name": "role",
          "type": "bytes32"
        },
        {
          "indexed": true,
          "internalType": "address",
          "name": "account",
          "type": "address"
        },
        {
          "indexed": true,
          "internalType": "address",
          "name": "sender",
          "type": "address"
        }
      ],
      "name": "RoleRevoked",
      "type": "event"
    },
    {
      "anonymous": false,
      "inputs": [
        {
          "indexed": true,
          "internalType": "address",
          "name": "sender_",
          "type": "address"
        },
        {
          "indexed": true,
          "internalType": "address",
          "name": "recipient_",
          "type": "address"
        },
        {
          "indexed": false,
          "internalType": "uint256",
          "name": "qTC_",
          "type": "uint256"
        },
        {
          "indexed": false,
          "internalType": "uint256",
          "name": "qAC_",
          "type": "uint256"
        },
        {
          "indexed": false,
          "internalType": "uint256",
          "name": "qACfee_",
          "type": "uint256"
        },
        {
          "indexed": false,
          "internalType": "uint256",
          "name": "qFeeToken_",
          "type": "uint256"
        },
        {
          "indexed": false,
          "internalType": "uint256",
          "name": "qACVendorMarkup_",
          "type": "uint256"
        },
        {
          "indexed": false,
          "internalType": "uint256",
          "name": "qFeeTokenVendorMarkup_",
          "type": "uint256"
        },
        {
          "indexed": false,
          "internalType": "address",
          "name": "vendor_",
          "type": "address"
        },
        {
          "indexed": false,
          "internalType": "uint256",
          "name": "operId_",
          "type": "uint256"
        }
      ],
      "name": "TCMinted",
      "type": "event"
    },
    {
      "anonymous": false,
      "inputs": [
        {
          "indexed": true,
          "internalType": "address",
          "name": "sender_",
          "type": "address"
        },
        {
          "indexed": true,
          "internalType": "address",
          "name": "recipient_",
          "type": "address"
        },
        {
          "indexed": false,
          "internalType": "uint256",
          "name": "qTC_",
          "type": "uint256"
        },
        {
          "indexed": false,
          "internalType": "uint256",
          "name": "qAC_",
          "type": "uint256"
        },
        {
          "indexed": false,
          "internalType": "uint256",
          "name": "qACfee_",
          "type": "uint256"
        },
        {
          "indexed": false,
          "internalType": "uint256",
          "name": "qFeeToken_",
          "type": "uint256"
        },
        {
          "indexed": false,
          "internalType": "uint256",
          "name": "qACVendorMarkup_",
          "type": "uint256"
        },
        {
          "indexed": false,
          "internalType": "uint256",
          "name": "qFeeTokenVendorMarkup_",
          "type": "uint256"
        },
        {
          "indexed": false,
          "internalType": "address",
          "name": "vendor_",
          "type": "address"
        },
        {
          "indexed": false,
          "internalType": "uint256",
          "name": "operId_",
          "type": "uint256"
        }
      ],
      "name": "TCRedeemed",
      "type": "event"
    },
    {
      "anonymous": false,
      "inputs": [
        {
          "indexed": true,
          "internalType": "address",
          "name": "tp_",
          "type": "address"
        },
        {
          "indexed": true,
          "internalType": "address",
          "name": "sender_",
          "type": "address"
        },
        {
          "indexed": true,
          "internalType": "address",
          "name": "recipient_",
          "type": "address"
        },
        {
          "indexed": false,
          "internalType": "uint256",
          "name": "qTC_",
          "type": "uint256"
        },
        {
          "indexed": false,
          "internalType": "uint256",
          "name": "qTP_",
          "type": "uint256"
        },
        {
          "indexed": false,
          "internalType": "uint256",
          "name": "qACfee_",
          "type": "uint256"
        },
        {
          "indexed": false,
          "internalType": "uint256",
          "name": "qFeeToken_",
          "type": "uint256"
        },
        {
          "indexed": false,
          "internalType": "uint256",
          "name": "qACVendorMarkup_",
          "type": "uint256"
        },
        {
          "indexed": false,
          "internalType": "uint256",
          "name": "qFeeTokenVendorMarkup_",
          "type": "uint256"
        },
        {
          "indexed": false,
          "internalType": "address",
          "name": "vendor_",
          "type": "address"
        },
        {
          "indexed": false,
          "internalType": "uint256",
          "name": "operId_",
          "type": "uint256"
        }
      ],
      "name": "TCSwappedForTP",
      "type": "event"
    },
    {
      "anonymous": false,
      "inputs": [
        {
          "indexed": true,
          "internalType": "address",
          "name": "tp_",
          "type": "address"
        },
        {
          "indexed": true,
          "internalType": "address",
          "name": "sender_",
          "type": "address"
        },
        {
          "indexed": true,
          "internalType": "address",
          "name": "recipient_",
          "type": "address"
        },
        {
          "indexed": false,
          "internalType": "uint256",
          "name": "qTC_",
          "type": "uint256"
        },
        {
          "indexed": false,
          "internalType": "uint256",
          "name": "qTP_",
          "type": "uint256"
        },
        {
          "indexed": false,
          "internalType": "uint256",
          "name": "qAC_",
          "type": "uint256"
        },
        {
          "indexed": false,
          "internalType": "uint256",
          "name": "qACfee_",
          "type": "uint256"
        },
        {
          "indexed": false,
          "internalType": "uint256",
          "name": "qFeeToken_",
          "type": "uint256"
        },
        {
          "indexed": false,
          "internalType": "uint256",
          "name": "qACVendorMarkup_",
          "type": "uint256"
        },
        {
          "indexed": false,
          "internalType": "uint256",
          "name": "qFeeTokenVendorMarkup_",
          "type": "uint256"
        },
        {
          "indexed": false,
          "internalType": "address",
          "name": "vendor_",
          "type": "address"
        },
        {
          "indexed": false,
          "internalType": "uint256",
          "name": "operId_",
          "type": "uint256"
        }
      ],
      "name": "TCandTPMinted",
      "type": "event"
    },
    {
      "anonymous": false,
      "inputs": [
        {
          "indexed": true,
          "internalType": "address",
          "name": "tp_",
          "type": "address"
        },
        {
          "indexed": true,
          "internalType": "address",
          "name": "sender_",
          "type": "address"
        },
        {
          "indexed": true,
          "internalType": "address",
          "name": "recipient_",
          "type": "address"
        },
        {
          "indexed": false,
          "internalType": "uint256",
          "name": "qTC_",
          "type": "uint256"
        },
        {
          "indexed": false,
          "internalType": "uint256",
          "name": "qTP_",
          "type": "uint256"
        },
        {
          "indexed": false,
          "internalType": "uint256",
          "name": "qAC_",
          "type": "uint256"
        },
        {
          "indexed": false,
          "internalType": "uint256",
          "name": "qACfee_",
          "type": "uint256"
        },
        {
          "indexed": false,
          "internalType": "uint256",
          "name": "qFeeToken_",
          "type": "uint256"
        },
        {
          "indexed": false,
          "internalType": "uint256",
          "name": "qACVendorMarkup_",
          "type": "uint256"
        },
        {
          "indexed": false,
          "internalType": "uint256",
          "name": "qFeeTokenVendorMarkup_",
          "type": "uint256"
        },
        {
          "indexed": false,
          "internalType": "address",
          "name": "vendor_",
          "type": "address"
        },
        {
          "indexed": false,
          "internalType": "uint256",
          "name": "operId_",
          "type": "uint256"
        }
      ],
      "name": "TCandTPRedeemed",
      "type": "event"
    },
    {
      "anonymous": false,
      "inputs": [
        {
          "indexed": true,
          "internalType": "address",
          "name": "tp",
          "type": "address"
        },
        {
          "indexed": true,
          "internalType": "address",
          "name": "sender_",
          "type": "address"
        },
        {
          "indexed": true,
          "internalType": "address",
          "name": "recipient_",
          "type": "address"
        },
        {
          "indexed": false,
          "internalType": "uint256",
          "name": "qTP_",
          "type": "uint256"
        },
        {
          "indexed": false,
          "internalType": "uint256",
          "name": "qAC_",
          "type": "uint256"
        },
        {
          "indexed": false,
          "internalType": "uint256",
          "name": "qACfee_",
          "type": "uint256"
        },
        {
          "indexed": false,
          "internalType": "uint256",
          "name": "qFeeToken_",
          "type": "uint256"
        },
        {
          "indexed": false,
          "internalType": "uint256",
          "name": "qACVendorMarkup_",
          "type": "uint256"
        },
        {
          "indexed": false,
          "internalType": "uint256",
          "name": "qFeeTokenVendorMarkup_",
          "type": "uint256"
        },
        {
          "indexed": false,
          "internalType": "address",
          "name": "vendor_",
          "type": "address"
        },
        {
          "indexed": false,
          "internalType": "uint256",
          "name": "operId_",
          "type": "uint256"
        }
      ],
      "name": "TPMinted",
      "type": "event"
    },
    {
      "anonymous": false,
      "inputs": [
        {
          "indexed": true,
          "internalType": "address",
          "name": "tp_",
          "type": "address"
        },
        {
          "indexed": true,
          "internalType": "address",
          "name": "sender_",
          "type": "address"
        },
        {
          "indexed": true,
          "internalType": "address",
          "name": "recipient_",
          "type": "address"
        },
        {
          "indexed": false,
          "internalType": "uint256",
          "name": "qTP_",
          "type": "uint256"
        },
        {
          "indexed": false,
          "internalType": "uint256",
          "name": "qAC_",
          "type": "uint256"
        },
        {
          "indexed": false,
          "internalType": "uint256",
          "name": "qACfee_",
          "type": "uint256"
        },
        {
          "indexed": false,
          "internalType": "uint256",
          "name": "qFeeToken_",
          "type": "uint256"
        },
        {
          "indexed": false,
          "internalType": "uint256",
          "name": "qACVendorMarkup_",
          "type": "uint256"
        },
        {
          "indexed": false,
          "internalType": "uint256",
          "name": "qFeeTokenVendorMarkup_",
          "type": "uint256"
        },
        {
          "indexed": false,
          "internalType": "address",
          "name": "vendor_",
          "type": "address"
        },
        {
          "indexed": false,
          "internalType": "uint256",
          "name": "operId_",
          "type": "uint256"
        }
      ],
      "name": "TPRedeemed",
      "type": "event"
    },
    {
      "anonymous": false,
      "inputs": [
        {
          "indexed": true,
          "internalType": "address",
          "name": "tp_",
          "type": "address"
        },
        {
          "indexed": true,
          "internalType": "address",
          "name": "sender_",
          "type": "address"
        },
        {
          "indexed": true,
          "internalType": "address",
          "name": "recipient_",
          "type": "address"
        },
        {
          "indexed": false,
          "internalType": "uint256",
          "name": "qTP_",
          "type": "uint256"
        },
        {
          "indexed": false,
          "internalType": "uint256",
          "name": "qTC_",
          "type": "uint256"
        },
        {
          "indexed": false,
          "internalType": "uint256",
          "name": "qACfee_",
          "type": "uint256"
        },
        {
          "indexed": false,
          "internalType": "uint256",
          "name": "qFeeToken_",
          "type": "uint256"
        },
        {
          "indexed": false,
          "internalType": "uint256",
          "name": "qACVendorMarkup_",
          "type": "uint256"
        },
        {
          "indexed": false,
          "internalType": "uint256",
          "name": "qFeeTokenVendorMarkup_",
          "type": "uint256"
        },
        {
          "indexed": false,
          "internalType": "address",
          "name": "vendor_",
          "type": "address"
        },
        {
          "indexed": false,
          "internalType": "uint256",
          "name": "operId_",
          "type": "uint256"
        }
      ],
      "name": "TPSwappedForTC",
      "type": "event"
    },
    {
      "anonymous": false,
      "inputs": [
        {
          "indexed": true,
          "internalType": "address",
          "name": "tpFrom_",
          "type": "address"
        },
        {
          "indexed": false,
          "internalType": "address",
          "name": "tpTo_",
          "type": "address"
        },
        {
          "indexed": true,
          "internalType": "address",
          "name": "sender_",
          "type": "address"
        },
        {
          "indexed": true,
          "internalType": "address",
          "name": "recipient_",
          "type": "address"
        },
        {
          "indexed": false,
          "internalType": "uint256",
          "name": "qTPfrom_",
          "type": "uint256"
        },
        {
          "indexed": false,
          "internalType": "uint256",
          "name": "qTPto_",
          "type": "uint256"
        },
        {
          "indexed": false,
          "internalType": "uint256",
          "name": "qACfee_",
          "type": "uint256"
        },
        {
          "indexed": false,
          "internalType": "uint256",
          "name": "qFeeToken_",
          "type": "uint256"
        },
        {
          "indexed": false,
          "internalType": "uint256",
          "name": "qACVendorMarkup_",
          "type": "uint256"
        },
        {
          "indexed": false,
          "internalType": "uint256",
          "name": "qFeeTokenVendorMarkup_",
          "type": "uint256"
        },
        {
          "indexed": false,
          "internalType": "address",
          "name": "vendor_",
          "type": "address"
        },
        {
          "indexed": false,
          "internalType": "uint256",
          "name": "operId_",
          "type": "uint256"
        }
      ],
      "name": "TPSwappedForTP",
      "type": "event"
    },
    {
      "anonymous": false,
      "inputs": [
        {
          "indexed": false,
          "internalType": "uint256",
          "name": "operId_",
          "type": "uint256"
        },
        {
          "indexed": false,
          "internalType": "bytes",
          "name": "reason_",
          "type": "bytes"
        }
      ],
      "name": "UnhandledError",
      "type": "event"
    },
    {
      "anonymous": false,
      "inputs": [
        {
          "indexed": false,
          "internalType": "address",
          "name": "account",
          "type": "address"
        }
      ],
      "name": "Unpaused",
      "type": "event"
    },
    {
      "anonymous": false,
      "inputs": [
        {
          "indexed": true,
          "internalType": "address",
          "name": "implementation",
          "type": "address"
        }
      ],
      "name": "Upgraded",
      "type": "event"
    },
    {
      "inputs": [],
      "name": "DEFAULT_ADMIN_ROLE",
      "outputs": [
        {
          "internalType": "bytes32",
          "name": "",
          "type": "bytes32"
        }
      ],
      "stateMutability": "view",
      "type": "function"
    },
    {
      "inputs": [
        {
          "internalType": "contract IGovernor",
          "name": "newGovernor_",
          "type": "address"
        }
      ],
      "name": "changeGovernor",
      "outputs": [],
      "stateMutability": "nonpayable",
      "type": "function"
    },
    {
      "inputs": [
        {
          "internalType": "enum MocQueueExecFees.OperType",
          "name": "",
          "type": "uint8"
        }
      ],
      "name": "execFee",
      "outputs": [
        {
          "internalType": "uint256",
          "name": "",
          "type": "uint256"
        }
      ],
      "stateMutability": "view",
      "type": "function"
    },
    {
      "inputs": [
        {
          "internalType": "address",
          "name": "executionFeeRecipient",
          "type": "address"
        }
      ],
      "name": "execute",
      "outputs": [],
      "stateMutability": "nonpayable",
      "type": "function"
    },
    {
      "inputs": [],
      "name": "firstOperId",
      "outputs": [
        {
          "internalType": "uint256",
          "name": "",
          "type": "uint256"
        }
      ],
      "stateMutability": "view",
      "type": "function"
    },
    {
      "inputs": [
        {
          "internalType": "enum MocQueueExecFees.OperType",
          "name": "operType_",
          "type": "uint8"
        },
        {
          "internalType": "uint256",
          "name": "value_",
          "type": "uint256"
        }
      ],
      "name": "getAndVerifyExecFee",
      "outputs": [
        {
          "internalType": "uint256",
          "name": "currentExecFee",
          "type": "uint256"
        }
      ],
      "stateMutability": "view",
      "type": "function"
    },
    {
      "inputs": [
        {
          "internalType": "bytes32",
          "name": "role",
          "type": "bytes32"
        }
      ],
      "name": "getRoleAdmin",
      "outputs": [
        {
          "internalType": "bytes32",
          "name": "",
          "type": "bytes32"
        }
      ],
      "stateMutability": "view",
      "type": "function"
    },
    {
      "inputs": [],
      "name": "governor",
      "outputs": [
        {
          "internalType": "contract IGovernor",
          "name": "",
          "type": "address"
        }
      ],
      "stateMutability": "view",
      "type": "function"
    },
    {
      "inputs": [
        {
          "internalType": "bytes32",
          "name": "role",
          "type": "bytes32"
        },
        {
          "internalType": "address",
          "name": "account",
          "type": "address"
        }
      ],
      "name": "grantRole",
      "outputs": [],
      "stateMutability": "nonpayable",
      "type": "function"
    },
    {
      "inputs": [
        {
          "internalType": "bytes32",
          "name": "role",
          "type": "bytes32"
        },
        {
          "internalType": "address",
          "name": "account",
          "type": "address"
        }
      ],
      "name": "hasRole",
      "outputs": [
        {
          "internalType": "bool",
          "name": "",
          "type": "bool"
        }
      ],
      "stateMutability": "view",
      "type": "function"
    },
    {
      "inputs": [
        {
          "internalType": "address",
          "name": "governor_",
          "type": "address"
        },
        {
          "internalType": "address",
          "name": "pauser_",
          "type": "address"
        },
        {
          "internalType": "uint128",
          "name": "minOperWaitingBlk_",
          "type": "uint128"
        },
        {
          "internalType": "uint128",
          "name": "maxOperPerBatch_",
          "type": "uint128"
        },
        {
          "components": [
            {
              "internalType": "uint256",
              "name": "tcMintExecFee",
              "type": "uint256"
            },
            {
              "internalType": "uint256",
              "name": "tcRedeemExecFee",
              "type": "uint256"
            },
            {
              "internalType": "uint256",
              "name": "tpMintExecFee",
              "type": "uint256"
            },
            {
              "internalType": "uint256",
              "name": "tpRedeemExecFee",
              "type": "uint256"
            },
            {
              "internalType": "uint256",
              "name": "swapTPforTPExecFee",
              "type": "uint256"
            },
            {
              "internalType": "uint256",
              "name": "swapTPforTCExecFee",
              "type": "uint256"
            },
            {
              "internalType": "uint256",
              "name": "swapTCforTPExecFee",
              "type": "uint256"
            },
            {
              "internalType": "uint256",
              "name": "redeemTCandTPExecFee",
              "type": "uint256"
            },
            {
              "internalType": "uint256",
              "name": "mintTCandTPExecFee",
              "type": "uint256"
            }
          ],
          "internalType": "struct MocQueueExecFees.InitializeMocQueueExecFeesParams",
          "name": "mocQueueExecFeesParams_",
          "type": "tuple"
        }
      ],
      "name": "initialize",
      "outputs": [],
      "stateMutability": "nonpayable",
      "type": "function"
    },
    {
      "inputs": [],
      "name": "isEmpty",
      "outputs": [
        {
          "internalType": "bool",
          "name": "",
          "type": "bool"
        }
      ],
      "stateMutability": "view",
      "type": "function"
    },
    {
      "inputs": [],
      "name": "makeStoppable",
      "outputs": [],
      "stateMutability": "nonpayable",
      "type": "function"
    },
    {
      "inputs": [],
      "name": "makeUnstoppable",
      "outputs": [],
      "stateMutability": "nonpayable",
      "type": "function"
    },
    {
      "inputs": [],
      "name": "maxOperPerBatch",
      "outputs": [
        {
          "internalType": "uint128",
          "name": "",
          "type": "uint128"
        }
      ],
      "stateMutability": "view",
      "type": "function"
    },
    {
      "inputs": [],
      "name": "minOperWaitingBlk",
      "outputs": [
        {
          "internalType": "uint128",
          "name": "",
          "type": "uint128"
        }
      ],
      "stateMutability": "view",
      "type": "function"
    },
    {
      "inputs": [],
      "name": "mocOperations",
      "outputs": [
        {
          "internalType": "contract MocOperations",
          "name": "",
          "type": "address"
        }
      ],
      "stateMutability": "view",
      "type": "function"
    },
    {
      "inputs": [],
      "name": "operIdCount",
      "outputs": [
        {
          "internalType": "uint256",
          "name": "",
          "type": "uint256"
        }
      ],
      "stateMutability": "view",
      "type": "function"
    },
    {
      "inputs": [
        {
          "internalType": "uint256",
          "name": "",
          "type": "uint256"
        }
      ],
      "name": "operationsMintTC",
      "outputs": [
        {
          "internalType": "uint256",
          "name": "qTC",
          "type": "uint256"
        },
        {
          "internalType": "uint256",
          "name": "qACmax",
          "type": "uint256"
        },
        {
          "internalType": "address",
          "name": "sender",
          "type": "address"
        },
        {
          "internalType": "address",
          "name": "recipient",
          "type": "address"
        },
        {
          "internalType": "address",
          "name": "vendor",
          "type": "address"
        }
      ],
      "stateMutability": "view",
      "type": "function"
    },
    {
      "inputs": [
        {
          "internalType": "uint256",
          "name": "",
          "type": "uint256"
        }
      ],
      "name": "operationsMintTCandTP",
      "outputs": [
        {
          "internalType": "address",
          "name": "tp",
          "type": "address"
        },
        {
          "internalType": "uint256",
          "name": "qTP",
          "type": "uint256"
        },
        {
          "internalType": "uint256",
          "name": "qACmax",
          "type": "uint256"
        },
        {
          "internalType": "address",
          "name": "sender",
          "type": "address"
        },
        {
          "internalType": "address",
          "name": "recipient",
          "type": "address"
        },
        {
          "internalType": "address",
          "name": "vendor",
          "type": "address"
        }
      ],
      "stateMutability": "view",
      "type": "function"
    },
    {
      "inputs": [
        {
          "internalType": "uint256",
          "name": "",
          "type": "uint256"
        }
      ],
      "name": "operationsMintTP",
      "outputs": [
        {
          "internalType": "address",
          "name": "tp",
          "type": "address"
        },
        {
          "internalType": "uint256",
          "name": "qTP",
          "type": "uint256"
        },
        {
          "internalType": "uint256",
          "name": "qACmax",
          "type": "uint256"
        },
        {
          "internalType": "address",
          "name": "sender",
          "type": "address"
        },
        {
          "internalType": "address",
          "name": "recipient",
          "type": "address"
        },
        {
          "internalType": "address",
          "name": "vendor",
          "type": "address"
        }
      ],
      "stateMutability": "view",
      "type": "function"
    },
    {
      "inputs": [
        {
          "internalType": "uint256",
          "name": "",
          "type": "uint256"
        }
      ],
      "name": "operationsRedeemTC",
      "outputs": [
        {
          "internalType": "uint256",
          "name": "qTC",
          "type": "uint256"
        },
        {
          "internalType": "uint256",
          "name": "qACmin",
          "type": "uint256"
        },
        {
          "internalType": "address",
          "name": "sender",
          "type": "address"
        },
        {
          "internalType": "address",
          "name": "recipient",
          "type": "address"
        },
        {
          "internalType": "address",
          "name": "vendor",
          "type": "address"
        }
      ],
      "stateMutability": "view",
      "type": "function"
    },
    {
      "inputs": [
        {
          "internalType": "uint256",
          "name": "",
          "type": "uint256"
        }
      ],
      "name": "operationsRedeemTCandTP",
      "outputs": [
        {
          "internalType": "address",
          "name": "tp",
          "type": "address"
        },
        {
          "internalType": "uint256",
          "name": "qTC",
          "type": "uint256"
        },
        {
          "internalType": "uint256",
          "name": "qTP",
          "type": "uint256"
        },
        {
          "internalType": "uint256",
          "name": "qACmin",
          "type": "uint256"
        },
        {
          "internalType": "address",
          "name": "sender",
          "type": "address"
        },
        {
          "internalType": "address",
          "name": "recipient",
          "type": "address"
        },
        {
          "internalType": "address",
          "name": "vendor",
          "type": "address"
        }
      ],
      "stateMutability": "view",
      "type": "function"
    },
    {
      "inputs": [
        {
          "internalType": "uint256",
          "name": "",
          "type": "uint256"
        }
      ],
      "name": "operationsRedeemTP",
      "outputs": [
        {
          "internalType": "address",
          "name": "tp",
          "type": "address"
        },
        {
          "internalType": "uint256",
          "name": "qTP",
          "type": "uint256"
        },
        {
          "internalType": "uint256",
          "name": "qACmin",
          "type": "uint256"
        },
        {
          "internalType": "address",
          "name": "sender",
          "type": "address"
        },
        {
          "internalType": "address",
          "name": "recipient",
          "type": "address"
        },
        {
          "internalType": "address",
          "name": "vendor",
          "type": "address"
        }
      ],
      "stateMutability": "view",
      "type": "function"
    },
    {
      "inputs": [
        {
          "internalType": "uint256",
          "name": "",
          "type": "uint256"
        }
      ],
      "name": "operationsSwapTCforTP",
      "outputs": [
        {
          "internalType": "address",
          "name": "tp",
          "type": "address"
        },
        {
          "internalType": "uint256",
          "name": "qTC",
          "type": "uint256"
        },
        {
          "internalType": "uint256",
          "name": "qTPmin",
          "type": "uint256"
        },
        {
          "internalType": "uint256",
          "name": "qACmax",
          "type": "uint256"
        },
        {
          "internalType": "address",
          "name": "sender",
          "type": "address"
        },
        {
          "internalType": "address",
          "name": "recipient",
          "type": "address"
        },
        {
          "internalType": "address",
          "name": "vendor",
          "type": "address"
        }
      ],
      "stateMutability": "view",
      "type": "function"
    },
    {
      "inputs": [
        {
          "internalType": "uint256",
          "name": "",
          "type": "uint256"
        }
      ],
      "name": "operationsSwapTPforTC",
      "outputs": [
        {
          "internalType": "address",
          "name": "tp",
          "type": "address"
        },
        {
          "internalType": "uint256",
          "name": "qTP",
          "type": "uint256"
        },
        {
          "internalType": "uint256",
          "name": "qTCmin",
          "type": "uint256"
        },
        {
          "internalType": "uint256",
          "name": "qACmax",
          "type": "uint256"
        },
        {
          "internalType": "address",
          "name": "sender",
          "type": "address"
        },
        {
          "internalType": "address",
          "name": "recipient",
          "type": "address"
        },
        {
          "internalType": "address",
          "name": "vendor",
          "type": "address"
        }
      ],
      "stateMutability": "view",
      "type": "function"
    },
    {
      "inputs": [
        {
          "internalType": "uint256",
          "name": "",
          "type": "uint256"
        }
      ],
      "name": "operationsSwapTPforTP",
      "outputs": [
        {
          "internalType": "address",
          "name": "tpFrom",
          "type": "address"
        },
        {
          "internalType": "address",
          "name": "tpTo",
          "type": "address"
        },
        {
          "internalType": "uint256",
          "name": "qTP",
          "type": "uint256"
        },
        {
          "internalType": "uint256",
          "name": "qTPmin",
          "type": "uint256"
        },
        {
          "internalType": "uint256",
          "name": "qACmax",
          "type": "uint256"
        },
        {
          "internalType": "address",
          "name": "sender",
          "type": "address"
        },
        {
          "internalType": "address",
          "name": "recipient",
          "type": "address"
        },
        {
          "internalType": "address",
          "name": "vendor",
          "type": "address"
        }
      ],
      "stateMutability": "view",
      "type": "function"
    },
    {
      "inputs": [
        {
          "internalType": "uint256",
          "name": "",
          "type": "uint256"
        }
      ],
      "name": "opersInfo",
      "outputs": [
        {
          "internalType": "enum MocQueueExecFees.OperType",
          "name": "operType",
          "type": "uint8"
        },
        {
          "internalType": "uint248",
          "name": "queuedBlk",
          "type": "uint248"
        }
      ],
      "stateMutability": "view",
      "type": "function"
    },
    {
      "inputs": [],
      "name": "pause",
      "outputs": [],
      "stateMutability": "nonpayable",
      "type": "function"
    },
    {
      "inputs": [],
      "name": "paused",
      "outputs": [
        {
          "internalType": "bool",
          "name": "",
          "type": "bool"
        }
      ],
      "stateMutability": "view",
      "type": "function"
    },
    {
      "inputs": [],
      "name": "pauser",
      "outputs": [
        {
          "internalType": "address",
          "name": "",
          "type": "address"
        }
      ],
      "stateMutability": "view",
      "type": "function"
    },
    {
      "inputs": [],
      "name": "proxiableUUID",
      "outputs": [
        {
          "internalType": "bytes32",
          "name": "",
          "type": "bytes32"
        }
      ],
      "stateMutability": "view",
      "type": "function"
    },
    {
      "inputs": [
        {
          "components": [
            {
              "internalType": "uint256",
              "name": "qTC",
              "type": "uint256"
            },
            {
              "internalType": "uint256",
              "name": "qACmax",
              "type": "uint256"
            },
            {
              "internalType": "address",
              "name": "sender",
              "type": "address"
            },
            {
              "internalType": "address",
              "name": "recipient",
              "type": "address"
            },
            {
              "internalType": "address",
              "name": "vendor",
              "type": "address"
            }
          ],
          "internalType": "struct MocCore.MintTCParams",
          "name": "params",
          "type": "tuple"
        }
      ],
      "name": "queueMintTC",
      "outputs": [
        {
          "internalType": "uint256",
          "name": "operId",
          "type": "uint256"
        }
      ],
      "stateMutability": "payable",
      "type": "function"
    },
    {
      "inputs": [
        {
          "components": [
            {
              "internalType": "address",
              "name": "tp",
              "type": "address"
            },
            {
              "internalType": "uint256",
              "name": "qTP",
              "type": "uint256"
            },
            {
              "internalType": "uint256",
              "name": "qACmax",
              "type": "uint256"
            },
            {
              "internalType": "address",
              "name": "sender",
              "type": "address"
            },
            {
              "internalType": "address",
              "name": "recipient",
              "type": "address"
            },
            {
              "internalType": "address",
              "name": "vendor",
              "type": "address"
            }
          ],
          "internalType": "struct MocCommons.MintTCandTPParams",
          "name": "params",
          "type": "tuple"
        }
      ],
      "name": "queueMintTCandTP",
      "outputs": [
        {
          "internalType": "uint256",
          "name": "operId",
          "type": "uint256"
        }
      ],
      "stateMutability": "payable",
      "type": "function"
    },
    {
      "inputs": [
        {
          "components": [
            {
              "internalType": "address",
              "name": "tp",
              "type": "address"
            },
            {
              "internalType": "uint256",
              "name": "qTP",
              "type": "uint256"
            },
            {
              "internalType": "uint256",
              "name": "qACmax",
              "type": "uint256"
            },
            {
              "internalType": "address",
              "name": "sender",
              "type": "address"
            },
            {
              "internalType": "address",
              "name": "recipient",
              "type": "address"
            },
            {
              "internalType": "address",
              "name": "vendor",
              "type": "address"
            }
          ],
          "internalType": "struct MocCore.MintTPParams",
          "name": "params",
          "type": "tuple"
        }
      ],
      "name": "queueMintTP",
      "outputs": [
        {
          "internalType": "uint256",
          "name": "operId",
          "type": "uint256"
        }
      ],
      "stateMutability": "payable",
      "type": "function"
    },
    {
      "inputs": [
        {
          "components": [
            {
              "internalType": "uint256",
              "name": "qTC",
              "type": "uint256"
            },
            {
              "internalType": "uint256",
              "name": "qACmin",
              "type": "uint256"
            },
            {
              "internalType": "address",
              "name": "sender",
              "type": "address"
            },
            {
              "internalType": "address",
              "name": "recipient",
              "type": "address"
            },
            {
              "internalType": "address",
              "name": "vendor",
              "type": "address"
            }
          ],
          "internalType": "struct MocCore.RedeemTCParams",
          "name": "params",
          "type": "tuple"
        }
      ],
      "name": "queueRedeemTC",
      "outputs": [
        {
          "internalType": "uint256",
          "name": "operId",
          "type": "uint256"
        }
      ],
      "stateMutability": "payable",
      "type": "function"
    },
    {
      "inputs": [
        {
          "components": [
            {
              "internalType": "address",
              "name": "tp",
              "type": "address"
            },
            {
              "internalType": "uint256",
              "name": "qTC",
              "type": "uint256"
            },
            {
              "internalType": "uint256",
              "name": "qTP",
              "type": "uint256"
            },
            {
              "internalType": "uint256",
              "name": "qACmin",
              "type": "uint256"
            },
            {
              "internalType": "address",
              "name": "sender",
              "type": "address"
            },
            {
              "internalType": "address",
              "name": "recipient",
              "type": "address"
            },
            {
              "internalType": "address",
              "name": "vendor",
              "type": "address"
            }
          ],
          "internalType": "struct MocCommons.RedeemTCandTPParams",
          "name": "params",
          "type": "tuple"
        }
      ],
      "name": "queueRedeemTCandTP",
      "outputs": [
        {
          "internalType": "uint256",
          "name": "operId",
          "type": "uint256"
        }
      ],
      "stateMutability": "payable",
      "type": "function"
    },
    {
      "inputs": [
        {
          "components": [
            {
              "internalType": "address",
              "name": "tp",
              "type": "address"
            },
            {
              "internalType": "uint256",
              "name": "qTP",
              "type": "uint256"
            },
            {
              "internalType": "uint256",
              "name": "qACmin",
              "type": "uint256"
            },
            {
              "internalType": "address",
              "name": "sender",
              "type": "address"
            },
            {
              "internalType": "address",
              "name": "recipient",
              "type": "address"
            },
            {
              "internalType": "address",
              "name": "vendor",
              "type": "address"
            }
          ],
          "internalType": "struct MocCommons.RedeemTPParams",
          "name": "params",
          "type": "tuple"
        }
      ],
      "name": "queueRedeemTP",
      "outputs": [
        {
          "internalType": "uint256",
          "name": "operId",
          "type": "uint256"
        }
      ],
      "stateMutability": "payable",
      "type": "function"
    },
    {
      "inputs": [
        {
          "components": [
            {
              "internalType": "address",
              "name": "tp",
              "type": "address"
            },
            {
              "internalType": "uint256",
              "name": "qTC",
              "type": "uint256"
            },
            {
              "internalType": "uint256",
              "name": "qTPmin",
              "type": "uint256"
            },
            {
              "internalType": "uint256",
              "name": "qACmax",
              "type": "uint256"
            },
            {
              "internalType": "address",
              "name": "sender",
              "type": "address"
            },
            {
              "internalType": "address",
              "name": "recipient",
              "type": "address"
            },
            {
              "internalType": "address",
              "name": "vendor",
              "type": "address"
            }
          ],
          "internalType": "struct MocCommons.SwapTCforTPParams",
          "name": "params",
          "type": "tuple"
        }
      ],
      "name": "queueSwapTCforTP",
      "outputs": [
        {
          "internalType": "uint256",
          "name": "operId",
          "type": "uint256"
        }
      ],
      "stateMutability": "payable",
      "type": "function"
    },
    {
      "inputs": [
        {
          "components": [
            {
              "internalType": "address",
              "name": "tp",
              "type": "address"
            },
            {
              "internalType": "uint256",
              "name": "qTP",
              "type": "uint256"
            },
            {
              "internalType": "uint256",
              "name": "qTCmin",
              "type": "uint256"
            },
            {
              "internalType": "uint256",
              "name": "qACmax",
              "type": "uint256"
            },
            {
              "internalType": "address",
              "name": "sender",
              "type": "address"
            },
            {
              "internalType": "address",
              "name": "recipient",
              "type": "address"
            },
            {
              "internalType": "address",
              "name": "vendor",
              "type": "address"
            }
          ],
          "internalType": "struct MocCommons.SwapTPforTCParams",
          "name": "params",
          "type": "tuple"
        }
      ],
      "name": "queueSwapTPforTC",
      "outputs": [
        {
          "internalType": "uint256",
          "name": "operId",
          "type": "uint256"
        }
      ],
      "stateMutability": "payable",
      "type": "function"
    },
    {
      "inputs": [
        {
          "components": [
            {
              "internalType": "address",
              "name": "tpFrom",
              "type": "address"
            },
            {
              "internalType": "address",
              "name": "tpTo",
              "type": "address"
            },
            {
              "internalType": "uint256",
              "name": "qTP",
              "type": "uint256"
            },
            {
              "internalType": "uint256",
              "name": "qTPmin",
              "type": "uint256"
            },
            {
              "internalType": "uint256",
              "name": "qACmax",
              "type": "uint256"
            },
            {
              "internalType": "address",
              "name": "sender",
              "type": "address"
            },
            {
              "internalType": "address",
              "name": "recipient",
              "type": "address"
            },
            {
              "internalType": "address",
              "name": "vendor",
              "type": "address"
            }
          ],
          "internalType": "struct MocCommons.SwapTPforTPParams",
          "name": "params",
          "type": "tuple"
        }
      ],
      "name": "queueSwapTPforTP",
      "outputs": [
        {
          "internalType": "uint256",
          "name": "operId",
          "type": "uint256"
        }
      ],
      "stateMutability": "payable",
      "type": "function"
    },
    {
      "inputs": [],
      "name": "readyToExecute",
      "outputs": [
        {
          "internalType": "bool",
          "name": "",
          "type": "bool"
        }
      ],
      "stateMutability": "view",
      "type": "function"
    },
    {
      "inputs": [
        {
          "internalType": "contract MocOperations",
          "name": "bucket_",
          "type": "address"
        }
      ],
      "name": "registerBucket",
      "outputs": [],
      "stateMutability": "nonpayable",
      "type": "function"
    },
    {
      "inputs": [
        {
          "internalType": "bytes32",
          "name": "role",
          "type": "bytes32"
        },
        {
          "internalType": "address",
          "name": "account",
          "type": "address"
        }
      ],
      "name": "renounceRole",
      "outputs": [],
      "stateMutability": "nonpayable",
      "type": "function"
    },
    {
      "inputs": [
        {
          "internalType": "bytes32",
          "name": "role",
          "type": "bytes32"
        },
        {
          "internalType": "address",
          "name": "account",
          "type": "address"
        }
      ],
      "name": "revokeRole",
      "outputs": [],
      "stateMutability": "nonpayable",
      "type": "function"
    },
    {
      "inputs": [
        {
          "internalType": "uint128",
          "name": "maxOperPerBatch_",
          "type": "uint128"
        }
      ],
      "name": "setMaxOperPerBatch",
      "outputs": [],
      "stateMutability": "nonpayable",
      "type": "function"
    },
    {
      "inputs": [
        {
          "internalType": "uint128",
          "name": "minOperWaitingBlk_",
          "type": "uint128"
        }
      ],
      "name": "setMinOperWaitingBlk",
      "outputs": [],
      "stateMutability": "nonpayable",
      "type": "function"
    },
    {
      "inputs": [
        {
          "internalType": "address",
          "name": "newPauser_",
          "type": "address"
        }
      ],
      "name": "setPauser",
      "outputs": [],
      "stateMutability": "nonpayable",
      "type": "function"
    },
    {
      "inputs": [],
      "name": "stoppable",
      "outputs": [
        {
          "internalType": "bool",
          "name": "",
          "type": "bool"
        }
      ],
      "stateMutability": "view",
      "type": "function"
    },
    {
      "inputs": [
        {
          "internalType": "bytes4",
          "name": "interfaceId",
          "type": "bytes4"
        }
      ],
      "name": "supportsInterface",
      "outputs": [
        {
          "internalType": "bool",
          "name": "",
          "type": "bool"
        }
      ],
      "stateMutability": "view",
      "type": "function"
    },
    {
      "inputs": [],
      "name": "unpause",
      "outputs": [],
      "stateMutability": "nonpayable",
      "type": "function"
    },
    {
      "inputs": [
        {
          "components": [
            {
              "internalType": "uint256",
              "name": "tcMintExecFee",
              "type": "uint256"
            },
            {
              "internalType": "uint256",
              "name": "tcRedeemExecFee",
              "type": "uint256"
            },
            {
              "internalType": "uint256",
              "name": "tpMintExecFee",
              "type": "uint256"
            },
            {
              "internalType": "uint256",
              "name": "tpRedeemExecFee",
              "type": "uint256"
            },
            {
              "internalType": "uint256",
              "name": "swapTPforTPExecFee",
              "type": "uint256"
            },
            {
              "internalType": "uint256",
              "name": "swapTPforTCExecFee",
              "type": "uint256"
            },
            {
              "internalType": "uint256",
              "name": "swapTCforTPExecFee",
              "type": "uint256"
            },
            {
              "internalType": "uint256",
              "name": "redeemTCandTPExecFee",
              "type": "uint256"
            },
            {
              "internalType": "uint256",
              "name": "mintTCandTPExecFee",
              "type": "uint256"
            }
          ],
          "internalType": "struct MocQueueExecFees.InitializeMocQueueExecFeesParams",
          "name": "mocQueueExecFeesParams_",
          "type": "tuple"
        }
      ],
      "name": "updateExecutionFees",
      "outputs": [],
      "stateMutability": "nonpayable",
      "type": "function"
    },
    {
      "inputs": [
        {
          "internalType": "address",
          "name": "newImplementation",
          "type": "address"
        }
      ],
      "name": "upgradeTo",
      "outputs": [],
      "stateMutability": "nonpayable",
      "type": "function"
    },
    {
      "inputs": [
        {
          "internalType": "address",
          "name": "newImplementation",
          "type": "address"
        },
        {
          "internalType": "bytes",
          "name": "data",
          "type": "bytes"
        }
      ],
      "name": "upgradeToAndCall",
      "outputs": [],
      "stateMutability": "payable",
      "type": "function"
    }
  ],
  "bytecode": "0x60a080604052346100315730608052614afa90816100378239608051818181610fe70152818161115601526121e00152f35b600080fdfe6080604052600436101561001257600080fd5b60003560e01c8062c6e88e146126d157806301ffc9a71461267b5780630c340a24146126525780631826ebf0146125ee5780631a0c54401461258057806324524ea11461252a578063248a9ca3146124fa5780632b994849146124db5780632d88af4a146124865780632f2ff15d1461244d57806334975a41146122db57806336568abe146122475780633659cfe6146121ae5780633bb4b05c1461216b5780633cbcf4c4146121465780633f4ba83a146120cc578063435c7e371461204257806347d8496a14611f715780634981d04e14611f2e5780634b5a9e3d14611efa5780634b64e492146111b95780634f1ef286146110cf5780635210570c146110aa57806352d1902d14610fd45780635c817aa314610f705780635c975abb14610f4a5780635ee1d2bb14610f00578063681fe70c14610edc5780636827435714610eb45780636b59c22f14610de35780636b76333014610d7f57806373e3d08614610d605780637c50b7e414610d1c5780637e81a82114610c4b5780638456cb5914610bb55780638a4737ab14610b565780638b20076c14610af75780638e7e818914610acf57806391d1485414610a7c5780639fd0506d14610a4f578063a217fddf14610a33578063ad16c2de146109c5578063bb4872de146109a2578063bbe720d91461092d578063c84d8bb61461085c578063caeb12b614610832578063d547741f146107f7578063db901477146105d6578063dbb0b684146105b4578063e4c0aaf41461056e578063e4e1b7291461049d578063e97a4d63146103cc578063fa91a9a5146102d55763fb8aafb81461026d57600080fd5b346102d05760203660031901126102d057600435600052610262602052604060002060018060a01b036102cc81835416916001840154936002810154918060038301541690600581600485015416930154169260405196879687612851565b0390f35b600080fd5b60a03660031901126102d0576102e9612e57565b610300600080516020614aa5833981519152612ed8565b61031661031060026101f76127e5565b546148e6565b61025d80546040519161032a6040846127fd565b60028352602083019260018060f81b03431684528260005261026860205260406000209051600a8110156103b65760ff6020958119905160081b1691161790558160005261026183526103826004604060002061469c565b604051828152600284820152600080516020614a8583398151915260403392a26103ac815461470f565b9055604051908152f35b634e487b7160e01b600052602160045260246000fd5b60a03660031901126102d0576103e0612e57565b6103f7600080516020614aa5833981519152612ed8565b61040761031060016101f76127e5565b61025d80546040519161041b6040846127fd565b60018352602083019260018060f81b03431684528260005261026860205260406000209051600a8110156103b65760ff6020958119905160081b1691161790558160005261025f83526104736004604060002061469c565b604051828152600184820152600080516020614a8583398151915260403392a26103ac815461470f565b60e03660031901126102d0576104b1612e57565b6104c8600080516020614aa5833981519152612ed8565b6104d861031060066101f76127e5565b61025d8054604051916104ec6040846127fd565b60068352602083019260018060f81b03431684528260005261026860205260406000209051600a8110156103b65760ff6020958119905160081b16911617905581600052610264835261054460046040600020614789565b604051828152600684820152600080516020614a8583398151915260403392a26103ac815461470f565b346102d05760203660031901126102d0576004356001600160a01b038116908190036102d05761059c612dd4565b6001600160601b0360a01b6097541617609755600080f35b346102d05760003660031901126102d05760206102695460801c604051908152f35b346102d0576101a03660031901126102d0576001600160a01b03600435818116908190036102d05760243591821682036102d0576044356001600160801b03928382168092036102d05760643593841684036102d0576101203660831901126102d0576000549260ff8460081c1615938480956107ea575b80156107d3575b15610777576106ec92600191868360ff19831617600055610765575b5060ff60005460081c169261068584612e78565b61068e84612e78565b61069784612e78565b6106a084612e78565b6106a984612e78565b6001600160601b0360a01b60975416176097556106c583612e78565b60ca5490620100008360b01b039060101b169061ff018360b01b031916171760ca55612e78565b6106f660846148f0565b6000549261071260ff8560081c1661070d81612e78565b612e78565b600161022a5560801b6001600160801b031916176102695561073057005b61ff0019166000557f7f26b83ff96e1f2b6a682f133852f6798a09c465da95921460cefb3847402498602060405160018152a1005b61ffff19166101011760005587610671565b60405162461bcd60e51b815260206004820152602e60248201527f496e697469616c697a61626c653a20636f6e747261637420697320616c72656160448201526d191e481a5b9a5d1a585b1a5e995960921b6064820152608490fd5b50303b1580156106555750600160ff821614610655565b50600160ff82161061064e565b346102d05760403660031901126102d0576004356024356001600160a01b03811681036102d0578161082b6108309361498c565b61288b565b005b346102d05760003660031901126102d05761025c546040516001600160a01b039091168152602090f35b60c03660031901126102d057610870612e57565b610887600080516020614aa5833981519152612ed8565b61089761031060046101f76127e5565b61025d8054604051916108ab6040846127fd565b60048352602083019260018060f81b03431684528260005261026860205260406000209051600a8110156103b65760ff6020958119905160081b1691161790558160005261026283526109036004604060002061471e565b604051828152600484820152600080516020614a8583398151915260403392a26103ac815461470f565b346102d05760203660031901126102d0576001600160a01b03600435818116908190036102d05761095c612dd4565b61025c80549283166109905781610830936001600160601b0360a01b16179055600080516020614aa5833981519152614864565b604051630a646b7760e41b8152600490fd5b346102d05760003660031901126102d057602060ff60ca54166040519015158152f35b346102d05760203660031901126102d0576004803560009081526102616020908152604091829020805460018201546002830154600384015493909601548551928352938201526001600160a01b03948516938101939093528316606083015291909116608082015260a090f35b346102d05760003660031901126102d057602060405160008152f35b346102d05760003660031901126102d05760ca5460405160109190911c6001600160a01b03168152602090f35b346102d05760403660031901126102d0576024356001600160a01b038116908190036102d057600435600052610193602052604060002090600052602052602060ff604060002054166040519015158152f35b346102d05760003660031901126102d05760206001600160801b036102695416604051908152f35b346102d05760203660031901126102d057600435600052610263602052604060002060018060a01b036102cc81835416916001840154936002810154918060038301541690600581600485015416930154169260405196879687612851565b346102d05760203660031901126102d057600435600052610260602052604060002060018060a01b036102cc81835416916001840154936002810154918060038301541690600581600485015416930154169260405196879687612851565b346102d05760003660031901126102d057610bce612e57565b60ca54601081901c6001600160a01b03163303610c395760ff811615610c27576101009061ff0019161760ca557f62e78cea01bee320cd4e420270b5ea74000d11b0c9f74754ebdbfc544b05a2586020604051338152a1005b60405163866099c360e01b8152600490fd5b604051631d77d47760e21b8152600490fd5b60c03660031901126102d057610c5f612e57565b610c76600080516020614aa5833981519152612ed8565b610c8661031060036101f76127e5565b61025d805460405191610c9a6040846127fd565b60038352602083019260018060f81b03431684528260005261026860205260406000209051600a8110156103b65760ff6020958119905160081b169116179055816000526102608352610cf26004604060002061471e565b604051828152600384820152600080516020614a8583398151915260403392a26103ac815461470f565b346102d05760203660031901126102d05760043560005261026860205260406000205460ff81169060405190600a8310156103b657604092825260081c6020820152f35b346102d05760003660031901126102d057602061025d54604051908152f35b346102d05760203660031901126102d057600435600052610264602052604060002060018060a01b036102cc8183541691600184015493600281015491600382015481600484015416916006816005860154169401541693604051978897886127a2565b60e03660031901126102d057610df7612e57565b610e0e600080516020614aa5833981519152612ed8565b610e1e61031060076101f76127e5565b61025d805460405191610e326040846127fd565b60078352602083019260018060f81b03431684528260005261026860205260406000209051600a8110156103b65760ff6020958119905160081b169116179055816000526102658352610e8a60046040600020614789565b604051828152600784820152600080516020614a8583398151915260403392a26103ac815461470f565b346102d05760003660031901126102d057610ecd612dd4565b60ca805460ff19166001179055005b346102d05760003660031901126102d057602061025e5461025d5414604051908152f35b346102d05760203660031901126102d0576001600160801b0360043581811681036102d057610f2d612dd4565b610269805490921660809190911b6001600160801b031916179055005b346102d05760003660031901126102d057602060ff60ca5460081c166040519015158152f35b346102d05760203660031901126102d057600435600052610266602052604060002060018060a01b036102cc8183541691600184015493600281015491600382015481600484015416916006816005860154169401541693604051978897886127a2565b346102d05760003660031901126102d0577f00000000000000000000000000000000000000000000000000000000000000006001600160a01b0316300361103f5760206040517f360894a13ba1a3210667c828492db98dca3e2076cc3735a920a3ca505d382bbc8152f35b60405162461bcd60e51b815260206004820152603860248201527f555550535570677261646561626c653a206d757374206e6f742062652063616c60448201527f6c6564207468726f7567682064656c656761746563616c6c00000000000000006064820152608490fd5b346102d05760003660031901126102d0576110c3612dd4565b60ca805460ff19169055005b60403660031901126102d0576001600160a01b0360043581811681036102d05760243567ffffffffffffffff81116102d057366023820112156102d05780600401359161111b83612835565b9161112960405193846127fd565b83835236602485830101116102d05761083094600060208660019760246111ac96018389013786010152807f000000000000000000000000000000000000000000000000000000000000000016906111838230141561290a565b7f360894a13ba1a3210667c828492db98dca3e2076cc3735a920a3ca505d382bbc54161461296b565b6111b4612dd4565b6129cc565b346102d05760203660031901126102d0576004356001600160a01b03811690036102d0576111e5612e57565b600261022a5414611eb557600261022a5561121f7fd8aa0f3194971a2a116679f7c2090f6939c8d4e01a2a8d7e41d55e5351469e63612ed8565b61025e54600061025d5461026954908160801c8401808210600014611eaa5750909291925b818310611291575b505061025e5580611260575b600161022a55005b6000808080936004355af1611273612ca7565b501561127f5780611258565b604051638f58940960e01b8152600490fd5b9091600090600091816000526102686020526040600020604051906112b76040836127fd565b546112c560ff821683613124565b60081c8060208301526001600160801b03861643031060001461134a575060009250829050805b611334575b1561132d5780600191337fb207e6b6b26274f3764b879e578b4539b8e37f41dff43932ddc87b3e04090974600080a30193019190929192611244565b925061124c565b81600052610268602052600060408120556112f1565b8051600a8110156103b65760010361161957505080915060005261025f6020526113776040600020613130565b61025c80546040805163235e81cf60e01b81528451600482015260208501516024820152908401516001600160a01b0390811660448301526060850151811660648301526080850151811660848301529091600091168260a48160c09485945af16000928392826115e4575b50506115685750506113f3612ca7565b6113fc816131df565b906001600160e01b03198216630b63f1a760e01b8103611503575050611438600080516020614a4583398151915291604051918291878361324c565b0390a15b5460408201516020909201516001600160a01b039182169290911690823b156102d0576040516358f32de960e01b81526001600160a01b039290921660048301526024820152906000908290604490829084905af180156114f7576114e6575b505b8060005261025f6020526114ce604060002060046000918281558260018201558260028201558260038201550155565b600190816114df60016101f76127e5565b54926112ec565b60006114f1916127fd565b8461149c565b6040513d6000823e3d90fd5b637912120160e01b036115395750611531600080516020614a45833981519152916040519182918783613210565b0390a161143c565b600080516020614a65833981519152915061153190604051918291878352604060208401526040830190612d97565b7f5090a820029acae4d47b64da9af62ce04a5a1bdb546934e5fcfe091ee1f780ee91925060018060a01b03604085015116926115dc86606060018060a01b03818901511697805194805192602082015190604083015192015192608060018060a01b03910151169360405198899889613291565b0390a361149e565b80919294506116089350903d10611612575b61160081836127fd565b8101906131bc565b92905089806113e3565b503d6115f6565b8051600a8110156103b6576002036119225750508091506000526102616020526116466040600020613130565b61025c80546040805163bfe4262160e01b81528451600482015260208501516024820152908401516001600160a01b0390811660448301526060850151811660648301526080850151811660848301529091600091168260a48160c09485945af16000928392826118fd575b50506118815750506116c2612ca7565b6116cb816131df565b6001600160e01b031981169163a5db715d60e01b83036117ea57505060a0600080516020614a4583398151915291604051908682526020820152601960608060408401528201527f496e73756666696369656e7420746320746f2072656465656d000000000000006080820152a15b54604082015191516001600160a01b039182169290911690823b156102d0576040516353b16d1760e01b81526001600160a01b039290921660048301526024820152906000908290604490829084905af180156114f7576117d9575b505b806000526102616020526117c8604060002060046000918281558260018201558260028201558260038201550155565b600190816114df60026101f76127e5565b60006117e4916127fd565b84611796565b90916354cde31360e01b810361182457505061181c600080516020614a458339815191529160405191829187836132d0565b0390a161173a565b637912120160e01b03611852575061181c600080516020614a45833981519152916040519182918783613210565b600080516020614a65833981519152915061181c90604051918291878352604060208401526040830190612d97565b7f7e7043742f69701e6292386d468d710f2d6e44bf93232a1e52f1641e50a9de1291925060018060a01b03604085015116926118f586606060018060a01b03818901511697805194805192602082015190604083015192015192608060018060a01b03910151169360405198899889613291565b0390a3611798565b80919294506119189350903d106116125761160081836127fd565b92905089806116b2565b8051600a8110156103b657600303611950575050905061194181613416565b90816114df60036101f76127e5565b8051600a8110156103b65760040361197e575050905061196f8161371f565b90816114df60046101f76127e5565b8051600a8110156103b6576005036119ac575050905061199d8161398e565b90816114df60056101f76127e5565b8051600a8110156103b6576006036119da57505090506119cb81613d22565b90816114df60066101f76127e5565b8051600a8110156103b657600703611a0857505090506119f9816140f0565b90816114df60076101f76127e5565b8051600a8110156103b657600803611a365750509050611a27816143d2565b90816114df60086101f76127e5565b51600a8110156103b657600914611a4e575b806112ec565b5080915060005261026760205260006040812060405190611a71610100836127fd565b60018060a01b03815416825260018060a01b03600182015416602083015260028101546040830152600381015460608301526004810154608083015260018060a01b0360058201541660a083015260018060a01b0360068201541660c0830152600760018060a01b039101541660e082015282825261026760205281600760408220828155826001820155826002820155826003820155826004820155826005820155826006820155015560e060018060a01b0361025c54166101046040518095819363391bf6cf861b835260018060a01b03875116600484015260018060a01b03602088015116602484015260408701516044840152606087015160648401526080870151608484015260018060a01b0360a08801511660a484015260018060a01b0360c08801511660c484015260018060a01b03868801511660e48401525af19182600091600094611e73575b50611dbd57509050611bd0612ca7565b611bd9816131df565b906001600160e01b03198216630b63f1a760e01b8103611d28575050611c15600080516020614a4583398151915291604051918291868361324c565b0390a15b61025c5460a0820151825160408401516001600160a01b039182169392821692909116803b156102d057604051630e2c5e9960e41b81526001600160a01b03938416600482015293909216602484015260448301526000908290606490829084905af180156114f757611d17575b5061025c5460a08201516080909201516001600160a01b039182169290911690823b156102d0576040516358f32de960e01b81526001600160a01b039290921660048301526024820152906000908290604490829084905af180156114f757611d06575b505b60019081611cfe60096101f76127e5565b549250611a48565b6000611d11916127fd565b84611ceb565b6000611d22916127fd565b85611c87565b63272e3f5960e21b8103611d60575050611d58600080516020614a458339815191529160405191829186836140a3565b0390a1611c19565b637912120160e01b03611d8e5750611d58600080516020614a45833981519152916040519182918683613210565b600080516020614a658339815191529150611d5890604051918291868352604060208401526040830190612d97565b7ff86f4487d2c5541b78f06d2368e28e0f4052e182124def54d5855bf2a01d325861012060018060a01b038451169260018060a01b036020860151169060018060a01b0360a0870151169560018060a01b0360c082015116976040820151928151602083015191606060408501519401519460e060018060a01b039101511695604051978852602088015260408701526060860152608085015260a084015260c083015260e082015286610100820152a4611ced565b909350611e98915060e03d60e011611ea3575b611e9081836127fd565b81019061396a565b925050909288611bc0565b503d611e86565b905090929192611244565b60405162461bcd60e51b815260206004820152601f60248201527f5265656e7472616e637947756172643a207265656e7472616e742063616c6c006044820152606490fd5b346102d05760203660031901126102d057600435600a8110156102d057611f256020916101f76127e5565b54604051908152f35b346102d0576101203660031901126102d057611f48612dd4565b61025e5461025d5403611f5f5761083060046148f0565b6040516315996eab60e01b8152600490fd5b60c03660031901126102d057611f85612e57565b611f9c600080516020614aa5833981519152612ed8565b611fac61031060056101f76127e5565b61025d805460405191611fc06040846127fd565b60058352602083019260018060f81b03431684528260005261026860205260406000209051600a8110156103b65760ff6020958119905160081b1691161790558160005261026383526120186004604060002061471e565b604051828152600584820152600080516020614a8583398151915260403392a26103ac815461470f565b346102d05760203660031901126102d057600435600052610267602052610100604060002060018060a01b03808254169181600182015416916002820154600383015460048401549183600586015416936007816006880154169601541695604051978852602088015260408701526060860152608085015260a084015260c083015260e0820152f35b346102d05760003660031901126102d05760ca5460ff8160081c161561213457601081901c6001600160a01b03163303610c395761ff00191660ca557f5db9ee0a495bf2e6ff9c91a7834c1ba4fdd244a5e8aa4e537bd38aeae4b073aa6020604051338152a1005b604051637c7fd07960e01b8152600490fd5b346102d05760003660031901126102d05760206121616147ff565b6040519015158152f35b346102d05760203660031901126102d0576004356001600160801b0381168091036102d057612198612dd4565b61026980546001600160801b0319169091179055005b346102d05760203660031901126102d0576004356001600160a01b0380821682036102d0576108309161220d826000937f000000000000000000000000000000000000000000000000000000000000000016906111838230141561290a565b612215612dd4565b61221e82612835565b9061222c60405192836127fd565b828252601f1961223b84612835565b013660208401376129cc565b346102d05760403660031901126102d0576024356001600160a01b0381168082036102d057330361227e576108309060043561288b565b60405162461bcd60e51b815260206004820152602f60248201527f416363657373436f6e74726f6c3a2063616e206f6e6c792072656e6f756e636560448201526e103937b632b9903337b91039b2b63360891b6064820152608490fd5b6101003660031901126102d0576122f0612e57565b612307600080516020614aa5833981519152612ed8565b61231761031060096101f76127e5565b61025d805460405161232a6040826127fd565b600981526020810160018060f81b0343168152826000526102686020526040600020915190600a8210156103b6575160ff9190911660089190911b60ff19161790556000818152610267602052604090206001600160a01b036004358181169492908590036102d0576001600160601b0360a01b9485825416178155600181016024358381168091036102d057868254161790556044356002820155606435600382015560843560048201556005810160a4358381168091036102d05786825416179055600681019060c435918383168093036102d05760079287825416179055019060e4359081168091036102d057602094825416179055604051828152600984820152600080516020614a8583398151915260403392a26103ac815461470f565b346102d05760403660031901126102d0576004356024356001600160a01b03811681036102d057816124816108309361498c565b614864565b346102d05760203660031901126102d0576004356001600160a01b03811681036102d0576124b2612dd4565b60ca805462010000600160b01b03191660109290921b62010000600160b01b0316919091179055005b346102d05760003660031901126102d057602061025e54604051908152f35b346102d05760203660031901126102d0576004356000526101936020526020600160406000200154604051908152f35b346102d05760403660031901126102d057600435600a8110156102d057612553906101f76127e5565b54602435811161256857602090604051908152f35b6024906040519063049e6f6960e41b82526004820152fd5b346102d05760203660031901126102d05760048035600090815261025f6020908152604091829020805460018201546002830154600384015493909601548551928352938201526001600160a01b03948516938101939093528316606083015291909116608082015260a090f35b346102d05760203660031901126102d057600435600052610265602052604060002060018060a01b036102cc8183541691600184015493600281015491600382015481600484015416916006816005860154169401541693604051978897886127a2565b346102d05760003660031901126102d0576097546040516001600160a01b039091168152602090f35b346102d05760203660031901126102d05760043563ffffffff60e01b81168091036102d057602090637965db0b60e01b81149081156126c0575b506040519015158152f35b6301ffc9a760e01b149050826126b5565b60e03660031901126102d0576126e5612e57565b6126fc600080516020614aa5833981519152612ed8565b61270c61031060086101f76127e5565b61025d8054604051916127206040846127fd565b60088352602083019260018060f81b03431684528260005261026860205260406000209051600a8110156103b65760ff6020958119905160081b16911617905581600052610266835261277860046040600020614789565b604051828152600884820152600080516020614a8583398151915260403392a26103ac815461470f565b6001600160a01b039182168152602081019290925260408201929092526060810192909252918216608082015291811660a083015290911660c082015260e00190565b90600a8110156103b657600052602052604060002090565b90601f8019910116810190811067ffffffffffffffff82111761281f57604052565b634e487b7160e01b600052604160045260246000fd5b67ffffffffffffffff811161281f57601f01601f191660200190565b6001600160a01b0391821681526020810192909252604082019290925291811660608301529182166080820152911660a082015260c00190565b9060009180835261019380602052604084209260018060a01b03169283855260205260ff6040852054166128c0575b50505050565b818452602052604083208284526020526040832060ff1981541690557ff6391f5c32d9c69d2a47ea670b442974b53935d1edc7fd64eb21e047a839171b339380a4388080806128ba565b1561291157565b60405162461bcd60e51b815260206004820152602c60248201527f46756e6374696f6e206d7573742062652063616c6c6564207468726f7567682060448201526b19195b1959d85d1958d85b1b60a21b6064820152608490fd5b1561297257565b60405162461bcd60e51b815260206004820152602c60248201527f46756e6374696f6e206d7573742062652063616c6c6564207468726f7567682060448201526b6163746976652070726f787960a01b6064820152608490fd5b9060ff7f4910fdfa16fed3260ed0e7147f7cc6da11a60208b5b9406d12a635614ffd91435416600014612a065750612a049150612c05565b565b6040516352d1902d60e01b8152602093919291906001600160a01b038316908581600481855afa60009181612bd3575b50612a975760405162461bcd60e51b815260048101879052602e60248201527f45524331393637557067726164653a206e657720696d706c656d656e7461746960448201526d6f6e206973206e6f74205555505360901b6064820152608490fd5b9394937fc9f76b5ec45e5cdef99837d7b6d2467235c1df8933c8ca56df5c35afa2c7d44401612b7c57612ac983612c05565b7fbc7cd75a20ee27fd9adebab32041f755214dbc6bffa90cc0225b39da2e5c2d3b600080a283511590811591612b74575b50612b0457505050565b600080612b7194612b156027612835565b94612b2360405196876127fd565b602786527f416464726573733a206c6f772d6c6576656c2064656c65676174652063616c6c81870152660819985a5b195960ca1b604087015281519101845af4612b6b612ca7565b91612cd7565b50565b905038612afa565b60405162461bcd60e51b815260048101859052602960248201527f45524331393637557067726164653a20756e737570706f727465642070726f786044820152681a58589b195555525160ba1b6064820152608490fd5b90918782813d8311612bfe575b612bea81836127fd565b81010312612bfb5750519038612a36565b80fd5b503d612be0565b803b15612c4c577f360894a13ba1a3210667c828492db98dca3e2076cc3735a920a3ca505d382bbc80546001600160a01b0319166001600160a01b03909216919091179055565b60405162461bcd60e51b815260206004820152602d60248201527f455243313936373a206e657720696d706c656d656e746174696f6e206973206e60448201526c1bdd08184818dbdb9d1c9858dd609a1b6064820152608490fd5b3d15612cd2573d90612cb882612835565b91612cc660405193846127fd565b82523d6000602084013e565b606090565b91929015612d395750815115612ceb575090565b3b15612cf45790565b60405162461bcd60e51b815260206004820152601d60248201527f416464726573733a2063616c6c20746f206e6f6e2d636f6e74726163740000006044820152606490fd5b825190915015612d4c5750805190602001fd5b60405162461bcd60e51b815260206004820152908190612d70906024830190612d97565b0390fd5b60005b838110612d875750506000910152565b8181015183820152602001612d77565b90602091612db081518092818552858086019101612d74565b601f01601f1916010190565b908160209103126102d0575180151581036102d05790565b60975460405163d994d6d560e01b815233600482015290602090829060249082906001600160a01b03165afa9081156114f757600091612e29575b5015612e1757565b604051631dd1b1b560e21b8152600490fd5b612e4a915060203d8111612e50575b612e4281836127fd565b810190612dbc565b38612e0f565b503d612e38565b60ff60ca5460081c16612e6657565b60405163783bb6c960e11b8152600490fd5b15612e7f57565b60405162461bcd60e51b815260206004820152602b60248201527f496e697469616c697a61626c653a20636f6e7472616374206973206e6f74206960448201526a6e697469616c697a696e6760a81b6064820152608490fd5b8060005260206101938152604060002033600052815260ff6040600020541615612f00575050565b612f966048612f1a83612f14601433612fb7565b95612fb7565b936040519485917f416363657373436f6e74726f6c3a206163636f756e742000000000000000000086840152612f598151809288603787019101612d74565b82017001034b99036b4b9b9b4b733903937b6329607d1b6037820152612f8782518093888785019101612d74565b010360288101855201836127fd565b612d7060405192839262461bcd60e51b845260048401526024830190612d97565b60019180831b91906001600160ff1b038116036130f85760028201928383116130f857612ffc612fe685612835565b94612ff460405196876127fd565b808652612835565b6020939085850190601f190136823785511561310e5760309053845182101561310e57607860218601538181018091116130f857905b808211613086575050613043575090565b6064906040519062461bcd60e51b825280600483015260248201527f537472696e67733a20686578206c656e67746820696e73756666696369656e746044820152fd5b9091600f811660108110156130e35785518410156130e3576f181899199a1a9b1b9c1cb0b131b232b360811b901a85840185015360041c9180156130ce576000190190613032565b60246000634e487b7160e01b81526011600452fd5b60246000634e487b7160e01b81526032600452fd5b634e487b7160e01b600052601160045260246000fd5b634e487b7160e01b600052603260045260246000fd5b600a8210156103b65752565b9060405161313f60a0826127fd565b825481526001830154602082015260028301546001600160a01b0390811660408301526003840154811660608301526004909301549092166080830152565b91908260809103126102d0576040516131986080826127fd565b60608082948051845260208101516020850152604081015160408501520151910152565b909160c0828403126102d0576131dc82519360406020850151940161317e565b90565b906020825192015163ffffffff60e01b90818116936004811061320157505050565b60040360031b82901b16169150565b909160a092825263ffffffff60e01b16602082015260606040820152600c60608201526b4c6f7720636f76657261676560a01b60808201520190565b909160a092825263ffffffff60e01b166020820152606060408201526015606082015274125b9cdd59999a58da595b9d081c5858c81cd95b9d605a1b60808201520190565b94919260e0969399989794919961010087019a8752602087015260408601526060850152608084015260a083015260018060a01b031660c08201520152565b909160a092825263ffffffff60e01b16602082015260606040820152601a60608201527f7141432062656c6f77206d696e696d756d20726571756972656400000000000060808201520190565b9060405161332c60c0826127fd565b82546001600160a01b039081168252600184015460208301526002840154604083015260038401548116606083015260048401548116608083015260059093015490921660a0830152565b60a09081600180821b03918281511685526020810151602086015260408101516040860152826060820151166060860152826080820151166080860152015116910152565b909160c092825263ffffffff60e01b16602082015260606040820152602460608201527f4d617820666c757820636170616369746f72206f7065726174696f6e2072656160808201526318da195960e21b60a08201520190565b90600082815261026092602090848252604061343381852061331d565b61025c80548351635a21a61960e11b81526001600160a01b039992969160c090829060c49082908c908f1661346b600484018b613377565b5af1908189918a936136fb575b50613682575050613487612ca7565b986134918a6131df565b966001600160e01b031988166306da41e560e11b81036134d857505050505050600080516020614a45833981519152939495506134d29051928392836133bc565b0390a190565b869998839598969c63c39b739f60e09996991b83146000146135f157505060a0600080516020614a458339815191529185519088825289820152606086820152601760608201527f496e73756666696369656e7420747020746f206d696e740000000000000000006080820152a15b54169160608a01511698015197813b156135ed5786516358f32de960e01b81526001600160a01b039091166004820152602481019890985284908890818381604481015b03925af19687156135e3576135ca96976135cf575b505b8352522060056000918281558260018201558260028201558260038201558260048201550155565b600190565b846135dc919592956127fd565b92386135a0565b85513d86823e3d90fd5b8580fd5b9091630b63f1a760e01b810361362a575050613622600080516020614a45833981519152918551918291898361324c565b0390a1613547565b637912120160e01b036136575750613622600080516020614a458339815191529185519182918983613210565b600080516020614a658339815191529150613622908551918291898352878b84015287830190612d97565b8492959897507f125247fdf990b9b419d4b4f895b1bb75bc485e3f8b813cf5557a4a12a56d054d908b6135ca9b9c939598965116926136f3878c836060890151169784608082015116998c820151958d8251908301519160a060608786015195015195015116945198899889613291565b0390a46135a2565b909250613716915060c03d81116116125761160081836127fd565b92905038613478565b906000828152610262602093818552604061373b81852061331d565b61025c8054835163ad4e666d60e01b81526001600160a01b03999296939160c090829060c49082908c908f166137746004840189613377565b5af1908189918a93613946575b506138d5575050613790612ca7565b9561379a876131df565b966001600160e01b031988166306da41e560e11b81036137db57505050505050600080516020614a45833981519152939495506134d29051928392836133bc565b908b9394969998916354cde31360e09997991b8114600014613875575050613818600080516020614a45833981519152918a5191829188836132d0565b0390a15b54169083896060830151169982511691015198823b15613871578751630e2c5e9960e41b81526001600160a01b039182166004820152911660248201526044810198909852849088908183816064810161358b565b8680fd5b637912120160e01b036138aa57506138a2600080516020614a45833981519152918a519182918883613210565b0390a161381c565b600080516020614a6583398151915291506138a2908a519182918883528c8a8401528c830190612d97565b8a9193959897507f625b9fc283a619f53beb817d79b8ab044d60e307fd2af4bb89fa5e9a24ce4ebc906135ca9a9b849896985116926136f3878c836060890151169784608082015116998c820151958d8251908301519160a060608786015195015195015116945198899889613291565b909250613961915060c03d81116116125761160081836127fd565b92905038613781565b60e0818303126102d0578051926131dc60208301519360606040850151940161317e565b906000828152610263806020526040936139a985842061331d565b9460018060a01b039561025c938560e08987541660c486518094819363883d21cb861b83526139db600484018a613377565b5af187918291829181613c05575b50613b8a575050506139f9612ca7565b97613a03896131df565b956001600160e01b031987166306da41e560e11b8103613a43575050505050600080516020614a45833981519152939495506134d29051928392836133bc565b9682949a869998630b63f1a760e0999896991b8114600014613b29575050613a80600080516020614a45833981519152918551918291898361324c565b0390a15b54169160608901511697015196813b15613b255785516358f32de960e01b81526001600160a01b03919091166004820152602481019790975283908790604490829084905af1958615613b1b576135ca9596613b07575b505b82526020522060056000918281558260018201558260028201558260038201558260048201550155565b83613b14919492946127fd565b9138613adb565b84513d85823e3d90fd5b8480fd5b637912120160e01b03613b5e5750613b56600080516020614a458339815191529185519182918983613210565b0390a1613a84565b600080516020614a658339815191529150613b5690855191829189835287602084015287830190612d97565b85989750907f03e9e02a94d7486426fcf2b05a27e911b8d1b61e2e1dcf103785512f46c8476491613bfd8887959699988e6135ca9e9f9951169689606082015116988a6080830151169a60208301519782519060208401519260a0606088870151960151960151169551998a998a613c2a565b0390a4613add565b91509250613c21915060e03d8111611ea357611e9081836127fd565b939050386139e9565b95926101009794919a9998959261012088019b8852602088015260408701526060860152608085015260a084015260c083015260018060a01b031660e08201520152565b90604051613c7d60e0826127fd565b82546001600160a01b0390811682526001840154602083015260028401546040830152600384015460608301526004840154811660808301526005840154811660a083015260069093015490921660c0830152565b60c0908160018060a01b03918281511685526020810151602086015260408101516040860152606081015160608601528260808201511660808601528260a08201511660a0860152015116910152565b906000828152610264602090808252604090613d3f828520613c6e565b61025c80548451633631a6bb60e21b81526001600160a01b039693929160e090829060e49082908c908c16613d77600484018a613cd2565b5af19088828a928b9461407b575b5061400157505050613d95612ca7565b95613d9f876131df565b966001600160e01b03198816906306da41e560e11b8203613de15750505050505050936134d2600080516020614a4583398151915293949551928392836133bc565b637a031da360e19a99929394959697989a1b8314600014613f7057505060a0600080516020614a45833981519152918951908c82528782015260608a8201526014606082015273125b9cdd59999a58da595b9d081d1c081cd95b9d60621b6080820152a15b808254169160808401928284511690838651168a87015192823b15613f6c578b51630e2c5e9960e41b81526001600160a01b03918216600482015291166024820152604481019290925288908290606490829084905af18015613f6257613f4a575b5090808592541692511692015191813b156135ed5786516353b16d1760e01b81526001600160a01b039091166004820152602481019290925284908290818381604481015b03925af180156135e357613f31575b506135ca94955b8352522060066000918281558260018201558260028201558260038201558260048201558260058201550155565b613f3c8480926127fd565b613f465738613efc565b8280fd5b9187613f5982939988956127fd565b97919250613ea8565b89513d8a823e3d90fd5b8a80fd5b90916354cde31360e01b8103613fa9575050613fa1600080516020614a458339815191529189519182918d836132d0565b0390a1613e46565b637912120160e01b03613fd65750613fa1600080516020614a458339815191529189519182918d83613210565b600080516020614a658339815191529150613fa19089519182918d83528b898401528b830190612d97565b84929350907f4d33a2f9c4f66a101333f7ca2ab718582e763c941ff6fc304d2d4408d43a8284916140738d8a6135ca9e9f999a9b9d9c809951169689608082015116988a60a0830151169a8d80840151978351918401519260c0606088870151960151960151169551998a998a613c2a565b0390a4613f03565b91509250614097915060e03d8111611ea357611e9081836127fd565b92905090919238613d85565b909160a092825263ffffffff60e01b16602082015260606040820152601a60608201527f7154702062656c6f77206d696e696d756d20726571756972656400000000000060808201520190565b90600082815261026560209080825260409061410d828520613c6e565b61025c805484516312bce9bf60e21b81526001600160a01b039693929160e090829060e49082908c908c16614145600484018a613cd2565b5af1908189918a936143ac575b5061433b575050614161612ca7565b9561416b876131df565b966001600160e01b031988166306da41e560e11b81036141ac5750505050505050936134d2600080516020614a4583398151915293949551928392836133bc565b630b63f1a760e09a999394959697989a1b81146000146142ac5750506141e7600080516020614a458339815191529189519182918d8361324c565b0390a15b8082541691608084019282845116908686015191813b156142a8578a516353b16d1760e01b81526001600160a01b039091166004820152602481019290925288908290818381604481015b03925af18015613f625761428f575b509080606092541692511692015191813b156135ed5786516358f32de960e01b81526001600160a01b03909116600482015260248101929092528490829081838160448101613eed565b918761429f8293996060956127fd565b97919250614245565b8980fd5b63272e3f5960e21b81036142e35750506142db600080516020614a458339815191529189519182918d836140a3565b0390a16141eb565b637912120160e01b0361431057506142db600080516020614a458339815191529189519182918d83613210565b600080516020614a6583398151915291506142db9089519182918d83528b898401528b830190612d97565b8392507ff8dcb57698d7067da58ab71c48cd2e3b329b69e7e9853f88630c2c69c2557c7890886135ca9b9c9697989a999395511692614073878c83608089015116978460a082015116998c820151958d8251908301519160c060608786015195015195015116945198899889613291565b9092506143c7915060e03d8111611ea357611e9081836127fd565b925050909138614152565b9060008281526102666020908082526040906143ef828520613c6e565b61025c80548451635e272ad960e11b81526001600160a01b039693929160e090829060e49082908c908c16614427600484018a613cd2565b5af1908189918a93614662575b506145f1575050614443612ca7565b9561444d876131df565b966001600160e01b03198816906306da41e560e11b820361448f5750505050505050936134d2600080516020614a4583398151915293949551928392836133bc565b630b63f1a760e09a99929394959697989a1b831460001461452a5750600080516020614a4583398151915291506144cc9089519182918d8361324c565b0390a15b808254169160808401928284511690838651168787015192823b15613f6c578b51630e2c5e9960e41b81526001600160a01b0391821660048201529116602482015260448101929092528890829081838160648101614236565b63f577bef560e01b830361458f57505060a0600080516020614a45833981519152918951908c82528782015260608a820152601a60608201527f7154632062656c6f77206d696e696d756d2072657175697265640000000000006080820152a16144d0565b9091637912120160e01b036145c657506145be600080516020614a458339815191529189519182918d83613210565b0390a16144d0565b600080516020614a6583398151915291506145be9089519182918d83528b898401528b830190612d97565b8392507f8ab42044ce8b230e021e5542eb53688d77443e50ee84cda7917f6bdd833c697f90886135ca9b9c9697989a999395511692614073878c83608089015116978460a082015116998c820151958d8251908301519160c060608786015195015195015116945198899889613291565b90925061467d915060e03d8111611ea357611e9081836127fd565b925050909138614434565b356001600160a01b03811681036102d05790565b813581556020820135600182015560028101906001600160a01b039061470590608090600490846146cf60408901614688565b16956001600160601b0360a01b968782541617905560038101856146f560608a01614688565b1687825416179055019401614688565b1690825416179055565b60001981146130f85760010190565b6001600160a01b0361470560a060058361473787614688565b16946001600160601b03831b95868254161781556020870135600182015560408701356002820155600381018561477060608a01614688565b168782541617905560048101856146f560808a01614688565b6001600160a01b0361470560c06006836147a287614688565b16946001600160601b0360a01b958682541617815560208701356001820155604087013560028201556060870135600382015560048101856147e660808a01614688565b168782541617905560058101856146f560a08a01614688565b61025e5461025d54811461485e57600052610268602052602060406000206040519061482c6040836127fd565b5461483a60ff821683613124565b60081c91829101526001600160801b0361026954164303904382116130f857111590565b50600090565b9060009180835261019380602052604084209260018060a01b03169283855260205260ff604085205416156148995750505050565b8184526020526040832082845260205260408320600160ff198254161790557f2f8788117e7eff1d82e926ec794901d17c78024a50270940304540a733656f0d339380a4388080806128ba565b3481036125685750565b61498960056101006101f79380356149096001876127e5565b55602081013561491a6002876127e5565b55604081013561492b6003876127e5565b55606081013561493c6004876127e5565b55608081013561494d6009876127e5565b5560a081013561495e6008876127e5565b5560c081013561496f6007876127e5565b5560e08101356149806006876127e5565b550135926127e5565b55565b6097546040805163d994d6d560e01b8152336004820152909291602090829060249082906001600160a01b03165afa908115614a3957600091614a1b575b501590816149eb575b506149db5750565b51631dd1b1b560e21b8152600490fd5b90506000526101936020526001816000200154600052806000203360005260205260ff81600020541615386149d3565b614a33915060203d8111612e5057612e4281836127fd565b386149ca565b83513d6000823e3d90fdfe5bbebb64d62396f99cae4b3b78d9386cb0f2893aab6a69f27eb61f8e7c29775e3ea497186958ec638834f65ec5a571c2b2e877e5d59a76804ec0448fac7829babfa5d40ab595fa613b17566ea5e38a5cac79a71f09ce1435246db2e6805816c27d5e686862ec2250829eb6dee4a7cb0834865072f135485c874d3bbbe39bdfdba2646970667358221220528bca41b93f90257fce13257a9ad70a9054a4bbe9b4feac6a27c8c4a8a7419564736f6c63430008140033",
  "linkReferences": {},
  "deployedLinkReferences": {},
  "devdoc": {
    "events": {
      "AdminChanged(address,address)": {
        "details": "Emitted when the admin account has changed."
      },
      "BeaconUpgraded(address)": {
        "details": "Emitted when the beacon is changed."
      },
      "Initialized(uint8)": {
        "details": "Triggered when the contract has been initialized or reinitialized."
      },
      "RoleAdminChanged(bytes32,bytes32,bytes32)": {
        "details": "Emitted when `newAdminRole` is set as ``role``'s admin role, replacing `previousAdminRole` `DEFAULT_ADMIN_ROLE` is the starting admin for all roles, despite {RoleAdminChanged} not being emitted signaling this. _Available since v3.1._"
      },
      "RoleGranted(bytes32,address,address)": {
        "details": "Emitted when `account` is granted `role`. `sender` is the account that originated the contract call, an admin role bearer except when using {AccessControl-_setupRole}."
      },
      "RoleRevoked(bytes32,address,address)": {
        "details": "Emitted when `account` is revoked `role`. `sender` is the account that originated the contract call:   - if using `revokeRole`, it is the admin role bearer   - if using `renounceRole`, it is the role bearer (i.e. `account`)"
      },
      "Upgraded(address)": {
        "details": "Emitted when the implementation is upgraded."
      }
    },
    "kind": "dev",
    "methods": {
      "changeGovernor(address)": {
        "params": {
          "newGovernor_": "New governor address"
        }
      },
      "execute(address)": {
        "details": "does not revert on Operation failure, throws Process and Error events according to the Oper type and result"
      },
      "getAndVerifyExecFee(uint8,uint256)": {
        "details": "only used for coinbase flavor",
        "params": {
          "operType_": "operation type registered",
          "value_": "value sent to pay execution fee"
        },
        "returns": {
          "currentExecFee": "execution fee required for the operation"
        }
      },
      "getRoleAdmin(bytes32)": {
        "details": "Returns the admin role that controls `role`. See {grantRole} and {revokeRole}. To change a role's admin, use {_setRoleAdmin}."
      },
      "grantRole(bytes32,address)": {
        "details": "Grants `role` to `account`. If `account` had not been already granted `role`, emits a {RoleGranted} event. Requirements: - the caller must have ``role``'s admin role  OR   the caller must have be an authorized Governance changer. May emit a {RoleGranted} event."
      },
      "hasRole(bytes32,address)": {
        "details": "Returns `true` if `account` has been granted `role`."
      },
      "makeStoppable()": {
        "details": "Should be called through governance"
      },
      "makeUnstoppable()": {
        "details": "Should be called through governance"
      },
      "pause()": {
        "details": "Should only be called by the pauser and when it is stoppable"
      },
      "proxiableUUID()": {
        "details": "Implementation of the ERC1822 {proxiableUUID} function. This returns the storage slot used by the implementation. It is used to validate the implementation's compatibility when performing an upgrade. IMPORTANT: A proxy pointing at a proxiable contract should not be considered proxiable itself, because this risks bricking a proxy that upgrades to it, by delegating to itself until out of gas. Thus it is critical that this function revert if invoked through a proxy. This is guaranteed by the `notDelegated` modifier."
      },
      "queueMintTC((uint256,uint256,address,address,address))": {
        "returns": {
          "operId": "Identifier to track the Operation lifecycle"
        }
      },
      "queueMintTCandTP((address,uint256,uint256,address,address,address))": {
        "returns": {
          "operId": "Identifier to track the Operation lifecycle"
        }
      },
      "queueMintTP((address,uint256,uint256,address,address,address))": {
        "returns": {
          "operId": "Identifier to track the Operation lifecycle"
        }
      },
      "queueRedeemTC((uint256,uint256,address,address,address))": {
        "returns": {
          "operId": "Identifier to track the Operation lifecycle"
        }
      },
      "queueRedeemTCandTP((address,uint256,uint256,uint256,address,address,address))": {
        "returns": {
          "operId": "Identifier to track the Operation lifecycle"
        }
      },
      "queueRedeemTP((address,uint256,uint256,address,address,address))": {
        "returns": {
          "operId": "Identifier to track the Operation lifecycle"
        }
      },
      "queueSwapTCforTP((address,uint256,uint256,uint256,address,address,address))": {
        "returns": {
          "operId": "Identifier to track the Operation lifecycle"
        }
      },
      "queueSwapTPforTC((address,uint256,uint256,uint256,address,address,address))": {
        "returns": {
          "operId": "Identifier to track the Operation lifecycle"
        }
      },
      "queueSwapTPforTP((address,address,uint256,uint256,uint256,address,address,address))": {
        "returns": {
          "operId": "Identifier to track the Operation lifecycle"
        }
      },
      "registerBucket(address)": {
        "details": "in order to operate, the queue needs to be whitelisted as EXECUTOR on the bucket as well",
        "params": {
          "bucket_": "address of the mocOperations implementation to interact with May emit a {RoleGranted} event for ENQUEUER role"
        }
      },
      "renounceRole(bytes32,address)": {
        "details": "Revokes `role` from the calling account. Roles are often managed via {grantRole} and {revokeRole}: this function's purpose is to provide a mechanism for accounts to lose their privileges if they are compromised (such as when a trusted device is misplaced). If the calling account had been revoked `role`, emits a {RoleRevoked} event. Requirements: - the caller must be `account`. May emit a {RoleRevoked} event."
      },
      "revokeRole(bytes32,address)": {
        "details": "Revokes `role` from `account`. If `account` had been granted `role`, emits a {RoleRevoked} event. Requirements: - the caller must have ``role``'s admin role  OR   the caller must have be an authorized Governance changer. May emit a {RoleRevoked} event."
      },
      "setMaxOperPerBatch(uint128)": {
        "params": {
          "maxOperPerBatch_": "maximum amount of operations allowed on a batch to avoid going over the block gas limit"
        }
      },
      "setMinOperWaitingBlk(uint128)": {
        "params": {
          "minOperWaitingBlk_": "minimum amount of blocks an operation needs to remain in the queue before it can be executed"
        }
      },
      "setPauser(address)": {
        "details": "Should be called through governance",
        "params": {
          "newPauser_": "Address of the new pauser"
        }
      },
      "supportsInterface(bytes4)": {
        "details": "See {IERC165-supportsInterface}."
      },
      "upgradeTo(address)": {
        "custom:oz-upgrades-unsafe-allow-reachable": "delegatecall",
        "details": "Upgrade the implementation of the proxy to `newImplementation`. Calls {_authorizeUpgrade}. Emits an {Upgraded} event."
      },
      "upgradeToAndCall(address,bytes)": {
        "custom:oz-upgrades-unsafe-allow-reachable": "delegatecall",
        "details": "Upgrade the implementation of the proxy to `newImplementation`, and subsequently execute the function call encoded in `data`. Calls {_authorizeUpgrade}. Emits an {Upgraded} event."
      }
    },
    "stateVariables": {
      "__gap": {
        "details": "This empty reserved space is put in place to allow future versions to add new variables without shifting down storage in the inheritance chain. See https://docs.openzeppelin.com/contracts/4.x/upgradeable#storage_gaps"
      }
    },
    "title": "MocQueue: Allows queue Operation deferral execution processing",
    "version": 1
  },
  "evm": {
    "bytecode": {
      "linkReferences": {},
      "opcodes": "PUSH1 0xA0 DUP1 PUSH1 0x40 MSTORE CALLVALUE PUSH2 0x31 JUMPI ADDRESS PUSH1 0x80 MSTORE PUSH2 0x4AFA SWAP1 DUP2 PUSH2 0x37 DUP3 CODECOPY PUSH1 0x80 MLOAD DUP2 DUP2 DUP2 PUSH2 0xFE7 ADD MSTORE DUP2 DUP2 PUSH2 0x1156 ADD MSTORE PUSH2 0x21E0 ADD MSTORE RETURN JUMPDEST PUSH1 0x0 DUP1 REVERT INVALID PUSH1 0x80 PUSH1 0x40 MSTORE PUSH1 0x4 CALLDATASIZE LT ISZERO PUSH2 0x12 JUMPI PUSH1 0x0 DUP1 REVERT JUMPDEST PUSH1 0x0 CALLDATALOAD PUSH1 0xE0 SHR DUP1 PUSH3 0xC6E88E EQ PUSH2 0x26D1 JUMPI DUP1 PUSH4 0x1FFC9A7 EQ PUSH2 0x267B JUMPI DUP1 PUSH4 0xC340A24 EQ PUSH2 0x2652 JUMPI DUP1 PUSH4 0x1826EBF0 EQ PUSH2 0x25EE JUMPI DUP1 PUSH4 0x1A0C5440 EQ PUSH2 0x2580 JUMPI DUP1 PUSH4 0x24524EA1 EQ PUSH2 0x252A JUMPI DUP1 PUSH4 0x248A9CA3 EQ PUSH2 0x24FA JUMPI DUP1 PUSH4 0x2B994849 EQ PUSH2 0x24DB JUMPI DUP1 PUSH4 0x2D88AF4A EQ PUSH2 0x2486 JUMPI DUP1 PUSH4 0x2F2FF15D EQ PUSH2 0x244D JUMPI DUP1 PUSH4 0x34975A41 EQ PUSH2 0x22DB JUMPI DUP1 PUSH4 0x36568ABE EQ PUSH2 0x2247 JUMPI DUP1 PUSH4 0x3659CFE6 EQ PUSH2 0x21AE JUMPI DUP1 PUSH4 0x3BB4B05C EQ PUSH2 0x216B JUMPI DUP1 PUSH4 0x3CBCF4C4 EQ PUSH2 0x2146 JUMPI DUP1 PUSH4 0x3F4BA83A EQ PUSH2 0x20CC JUMPI DUP1 PUSH4 0x435C7E37 EQ PUSH2 0x2042 JUMPI DUP1 PUSH4 0x47D8496A EQ PUSH2 0x1F71 JUMPI DUP1 PUSH4 0x4981D04E EQ PUSH2 0x1F2E JUMPI DUP1 PUSH4 0x4B5A9E3D EQ PUSH2 0x1EFA JUMPI DUP1 PUSH4 0x4B64E492 EQ PUSH2 0x11B9 JUMPI DUP1 PUSH4 0x4F1EF286 EQ PUSH2 0x10CF JUMPI DUP1 PUSH4 0x5210570C EQ PUSH2 0x10AA JUMPI DUP1 PUSH4 0x52D1902D EQ PUSH2 0xFD4 JUMPI DUP1 PUSH4 0x5C817AA3 EQ PUSH2 0xF70 JUMPI DUP1 PUSH4 0x5C975ABB EQ PUSH2 0xF4A JUMPI DUP1 PUSH4 0x5EE1D2BB EQ PUSH2 0xF00 JUMPI DUP1 PUSH4 0x681FE70C EQ PUSH2 0xEDC JUMPI DUP1 PUSH4 0x68274357 EQ PUSH2 0xEB4 JUMPI DUP1 PUSH4 0x6B59C22F EQ PUSH2 0xDE3 JUMPI DUP1 PUSH4 0x6B763330 EQ PUSH2 0xD7F JUMPI DUP1 PUSH4 0x73E3D086 EQ PUSH2 0xD60 JUMPI DUP1 PUSH4 0x7C50B7E4 EQ PUSH2 0xD1C JUMPI DUP1 PUSH4 0x7E81A821 EQ PUSH2 0xC4B JUMPI DUP1 PUSH4 0x8456CB59 EQ PUSH2 0xBB5 JUMPI DUP1 PUSH4 0x8A4737AB EQ PUSH2 0xB56 JUMPI DUP1 PUSH4 0x8B20076C EQ PUSH2 0xAF7 JUMPI DUP1 PUSH4 0x8E7E8189 EQ PUSH2 0xACF JUMPI DUP1 PUSH4 0x91D14854 EQ PUSH2 0xA7C JUMPI DUP1 PUSH4 0x9FD0506D EQ PUSH2 0xA4F JUMPI DUP1 PUSH4 0xA217FDDF EQ PUSH2 0xA33 JUMPI DUP1 PUSH4 0xAD16C2DE EQ PUSH2 0x9C5 JUMPI DUP1 PUSH4 0xBB4872DE EQ PUSH2 0x9A2 JUMPI DUP1 PUSH4 0xBBE720D9 EQ PUSH2 0x92D JUMPI DUP1 PUSH4 0xC84D8BB6 EQ PUSH2 0x85C JUMPI DUP1 PUSH4 0xCAEB12B6 EQ PUSH2 0x832 JUMPI DUP1 PUSH4 0xD547741F EQ PUSH2 0x7F7 JUMPI DUP1 PUSH4 0xDB901477 EQ PUSH2 0x5D6 JUMPI DUP1 PUSH4 0xDBB0B684 EQ PUSH2 0x5B4 JUMPI DUP1 PUSH4 0xE4C0AAF4 EQ PUSH2 0x56E JUMPI DUP1 PUSH4 0xE4E1B729 EQ PUSH2 0x49D JUMPI DUP1 PUSH4 0xE97A4D63 EQ PUSH2 0x3CC JUMPI DUP1 PUSH4 0xFA91A9A5 EQ PUSH2 0x2D5 JUMPI PUSH4 0xFB8AAFB8 EQ PUSH2 0x26D JUMPI PUSH1 0x0 DUP1 REVERT JUMPDEST CALLVALUE PUSH2 0x2D0 JUMPI PUSH1 0x20 CALLDATASIZE PUSH1 0x3 NOT ADD SLT PUSH2 0x2D0 JUMPI PUSH1 0x4 CALLDATALOAD PUSH1 0x0 MSTORE PUSH2 0x262 PUSH1 0x20 MSTORE PUSH1 0x40 PUSH1 0x0 KECCAK256 PUSH1 0x1 DUP1 PUSH1 0xA0 SHL SUB PUSH2 0x2CC DUP2 DUP4 SLOAD AND SWAP2 PUSH1 0x1 DUP5 ADD SLOAD SWAP4 PUSH1 0x2 DUP2 ADD SLOAD SWAP2 DUP1 PUSH1 0x3 DUP4 ADD SLOAD AND SWAP1 PUSH1 0x5 DUP2 PUSH1 0x4 DUP6 ADD SLOAD AND SWAP4 ADD SLOAD AND SWAP3 PUSH1 0x40 MLOAD SWAP7 DUP8 SWAP7 DUP8 PUSH2 0x2851 JUMP JUMPDEST SUB SWAP1 RETURN JUMPDEST PUSH1 0x0 DUP1 REVERT JUMPDEST PUSH1 0xA0 CALLDATASIZE PUSH1 0x3 NOT ADD SLT PUSH2 0x2D0 JUMPI PUSH2 0x2E9 PUSH2 0x2E57 JUMP JUMPDEST PUSH2 0x300 PUSH1 0x0 DUP1 MLOAD PUSH1 0x20 PUSH2 0x4AA5 DUP4 CODECOPY DUP2 MLOAD SWAP2 MSTORE PUSH2 0x2ED8 JUMP JUMPDEST PUSH2 0x316 PUSH2 0x310 PUSH1 0x2 PUSH2 0x1F7 PUSH2 0x27E5 JUMP JUMPDEST SLOAD PUSH2 0x48E6 JUMP JUMPDEST PUSH2 0x25D DUP1 SLOAD PUSH1 0x40 MLOAD SWAP2 PUSH2 0x32A PUSH1 0x40 DUP5 PUSH2 0x27FD JUMP JUMPDEST PUSH1 0x2 DUP4 MSTORE PUSH1 0x20 DUP4 ADD SWAP3 PUSH1 0x1 DUP1 PUSH1 0xF8 SHL SUB NUMBER AND DUP5 MSTORE DUP3 PUSH1 0x0 MSTORE PUSH2 0x268 PUSH1 0x20 MSTORE PUSH1 0x40 PUSH1 0x0 KECCAK256 SWAP1 MLOAD PUSH1 0xA DUP2 LT ISZERO PUSH2 0x3B6 JUMPI PUSH1 0xFF PUSH1 0x20 SWAP6 DUP2 NOT SWAP1 MLOAD PUSH1 0x8 SHL AND SWAP2 AND OR SWAP1 SSTORE DUP2 PUSH1 0x0 MSTORE PUSH2 0x261 DUP4 MSTORE PUSH2 0x382 PUSH1 0x4 PUSH1 0x40 PUSH1 0x0 KECCAK256 PUSH2 0x469C JUMP JUMPDEST PUSH1 0x40 MLOAD DUP3 DUP2 MSTORE PUSH1 0x2 DUP5 DUP3 ADD MSTORE PUSH1 0x0 DUP1 MLOAD PUSH1 0x20 PUSH2 0x4A85 DUP4 CODECOPY DUP2 MLOAD SWAP2 MSTORE PUSH1 0x40 CALLER SWAP3 LOG2 PUSH2 0x3AC DUP2 SLOAD PUSH2 0x470F JUMP JUMPDEST SWAP1 SSTORE PUSH1 0x40 MLOAD SWAP1 DUP2 MSTORE RETURN JUMPDEST PUSH4 0x4E487B71 PUSH1 0xE0 SHL PUSH1 0x0 MSTORE PUSH1 0x21 PUSH1 0x4 MSTORE PUSH1 0x24 PUSH1 0x0 REVERT JUMPDEST PUSH1 0xA0 CALLDATASIZE PUSH1 0x3 NOT ADD SLT PUSH2 0x2D0 JUMPI PUSH2 0x3E0 PUSH2 0x2E57 JUMP JUMPDEST PUSH2 0x3F7 PUSH1 0x0 DUP1 MLOAD PUSH1 0x20 PUSH2 0x4AA5 DUP4 CODECOPY DUP2 MLOAD SWAP2 MSTORE PUSH2 0x2ED8 JUMP JUMPDEST PUSH2 0x407 PUSH2 0x310 PUSH1 0x1 PUSH2 0x1F7 PUSH2 0x27E5 JUMP JUMPDEST PUSH2 0x25D DUP1 SLOAD PUSH1 0x40 MLOAD SWAP2 PUSH2 0x41B PUSH1 0x40 DUP5 PUSH2 0x27FD JUMP JUMPDEST PUSH1 0x1 DUP4 MSTORE PUSH1 0x20 DUP4 ADD SWAP3 PUSH1 0x1 DUP1 PUSH1 0xF8 SHL SUB NUMBER AND DUP5 MSTORE DUP3 PUSH1 0x0 MSTORE PUSH2 0x268 PUSH1 0x20 MSTORE PUSH1 0x40 PUSH1 0x0 KECCAK256 SWAP1 MLOAD PUSH1 0xA DUP2 LT ISZERO PUSH2 0x3B6 JUMPI PUSH1 0xFF PUSH1 0x20 SWAP6 DUP2 NOT SWAP1 MLOAD PUSH1 0x8 SHL AND SWAP2 AND OR SWAP1 SSTORE DUP2 PUSH1 0x0 MSTORE PUSH2 0x25F DUP4 MSTORE PUSH2 0x473 PUSH1 0x4 PUSH1 0x40 PUSH1 0x0 KECCAK256 PUSH2 0x469C JUMP JUMPDEST PUSH1 0x40 MLOAD DUP3 DUP2 MSTORE PUSH1 0x1 DUP5 DUP3 ADD MSTORE PUSH1 0x0 DUP1 MLOAD PUSH1 0x20 PUSH2 0x4A85 DUP4 CODECOPY DUP2 MLOAD SWAP2 MSTORE PUSH1 0x40 CALLER SWAP3 LOG2 PUSH2 0x3AC DUP2 SLOAD PUSH2 0x470F JUMP JUMPDEST PUSH1 0xE0 CALLDATASIZE PUSH1 0x3 NOT ADD SLT PUSH2 0x2D0 JUMPI PUSH2 0x4B1 PUSH2 0x2E57 JUMP JUMPDEST PUSH2 0x4C8 PUSH1 0x0 DUP1 MLOAD PUSH1 0x20 PUSH2 0x4AA5 DUP4 CODECOPY DUP2 MLOAD SWAP2 MSTORE PUSH2 0x2ED8 JUMP JUMPDEST PUSH2 0x4D8 PUSH2 0x310 PUSH1 0x6 PUSH2 0x1F7 PUSH2 0x27E5 JUMP JUMPDEST PUSH2 0x25D DUP1 SLOAD PUSH1 0x40 MLOAD SWAP2 PUSH2 0x4EC PUSH1 0x40 DUP5 PUSH2 0x27FD JUMP JUMPDEST PUSH1 0x6 DUP4 MSTORE PUSH1 0x20 DUP4 ADD SWAP3 PUSH1 0x1 DUP1 PUSH1 0xF8 SHL SUB NUMBER AND DUP5 MSTORE DUP3 PUSH1 0x0 MSTORE PUSH2 0x268 PUSH1 0x20 MSTORE PUSH1 0x40 PUSH1 0x0 KECCAK256 SWAP1 MLOAD PUSH1 0xA DUP2 LT ISZERO PUSH2 0x3B6 JUMPI PUSH1 0xFF PUSH1 0x20 SWAP6 DUP2 NOT SWAP1 MLOAD PUSH1 0x8 SHL AND SWAP2 AND OR SWAP1 SSTORE DUP2 PUSH1 0x0 MSTORE PUSH2 0x264 DUP4 MSTORE PUSH2 0x544 PUSH1 0x4 PUSH1 0x40 PUSH1 0x0 KECCAK256 PUSH2 0x4789 JUMP JUMPDEST PUSH1 0x40 MLOAD DUP3 DUP2 MSTORE PUSH1 0x6 DUP5 DUP3 ADD MSTORE PUSH1 0x0 DUP1 MLOAD PUSH1 0x20 PUSH2 0x4A85 DUP4 CODECOPY DUP2 MLOAD SWAP2 MSTORE PUSH1 0x40 CALLER SWAP3 LOG2 PUSH2 0x3AC DUP2 SLOAD PUSH2 0x470F JUMP JUMPDEST CALLVALUE PUSH2 0x2D0 JUMPI PUSH1 0x20 CALLDATASIZE PUSH1 0x3 NOT ADD SLT PUSH2 0x2D0 JUMPI PUSH1 0x4 CALLDATALOAD PUSH1 0x1 PUSH1 0x1 PUSH1 0xA0 SHL SUB DUP2 AND SWAP1 DUP2 SWAP1 SUB PUSH2 0x2D0 JUMPI PUSH2 0x59C PUSH2 0x2DD4 JUMP JUMPDEST PUSH1 0x1 PUSH1 0x1 PUSH1 0x60 SHL SUB PUSH1 0xA0 SHL PUSH1 0x97 SLOAD AND OR PUSH1 0x97 SSTORE PUSH1 0x0 DUP1 RETURN JUMPDEST CALLVALUE PUSH2 0x2D0 JUMPI PUSH1 0x0 CALLDATASIZE PUSH1 0x3 NOT ADD SLT PUSH2 0x2D0 JUMPI PUSH1 0x20 PUSH2 0x269 SLOAD PUSH1 0x80 SHR PUSH1 0x40 MLOAD SWAP1 DUP2 MSTORE RETURN JUMPDEST CALLVALUE PUSH2 0x2D0 JUMPI PUSH2 0x1A0 CALLDATASIZE PUSH1 0x3 NOT ADD SLT PUSH2 0x2D0 JUMPI PUSH1 0x1 PUSH1 0x1 PUSH1 0xA0 SHL SUB PUSH1 0x4 CALLDATALOAD DUP2 DUP2 AND SWAP1 DUP2 SWAP1 SUB PUSH2 0x2D0 JUMPI PUSH1 0x24 CALLDATALOAD SWAP2 DUP3 AND DUP3 SUB PUSH2 0x2D0 JUMPI PUSH1 0x44 CALLDATALOAD PUSH1 0x1 PUSH1 0x1 PUSH1 0x80 SHL SUB SWAP3 DUP4 DUP3 AND DUP1 SWAP3 SUB PUSH2 0x2D0 JUMPI PUSH1 0x64 CALLDATALOAD SWAP4 DUP5 AND DUP5 SUB PUSH2 0x2D0 JUMPI PUSH2 0x120 CALLDATASIZE PUSH1 0x83 NOT ADD SLT PUSH2 0x2D0 JUMPI PUSH1 0x0 SLOAD SWAP3 PUSH1 0xFF DUP5 PUSH1 0x8 SHR AND ISZERO SWAP4 DUP5 DUP1 SWAP6 PUSH2 0x7EA JUMPI JUMPDEST DUP1 ISZERO PUSH2 0x7D3 JUMPI JUMPDEST ISZERO PUSH2 0x777 JUMPI PUSH2 0x6EC SWAP3 PUSH1 0x1 SWAP2 DUP7 DUP4 PUSH1 0xFF NOT DUP4 AND OR PUSH1 0x0 SSTORE PUSH2 0x765 JUMPI JUMPDEST POP PUSH1 0xFF PUSH1 0x0 SLOAD PUSH1 0x8 SHR AND SWAP3 PUSH2 0x685 DUP5 PUSH2 0x2E78 JUMP JUMPDEST PUSH2 0x68E DUP5 PUSH2 0x2E78 JUMP JUMPDEST PUSH2 0x697 DUP5 PUSH2 0x2E78 JUMP JUMPDEST PUSH2 0x6A0 DUP5 PUSH2 0x2E78 JUMP JUMPDEST PUSH2 0x6A9 DUP5 PUSH2 0x2E78 JUMP JUMPDEST PUSH1 0x1 PUSH1 0x1 PUSH1 0x60 SHL SUB PUSH1 0xA0 SHL PUSH1 0x97 SLOAD AND OR PUSH1 0x97 SSTORE PUSH2 0x6C5 DUP4 PUSH2 0x2E78 JUMP JUMPDEST PUSH1 0xCA SLOAD SWAP1 PUSH3 0x10000 DUP4 PUSH1 0xB0 SHL SUB SWAP1 PUSH1 0x10 SHL AND SWAP1 PUSH2 0xFF01 DUP4 PUSH1 0xB0 SHL SUB NOT AND OR OR PUSH1 0xCA SSTORE PUSH2 0x2E78 JUMP JUMPDEST PUSH2 0x6F6 PUSH1 0x84 PUSH2 0x48F0 JUMP JUMPDEST PUSH1 0x0 SLOAD SWAP3 PUSH2 0x712 PUSH1 0xFF DUP6 PUSH1 0x8 SHR AND PUSH2 0x70D DUP2 PUSH2 0x2E78 JUMP JUMPDEST PUSH2 0x2E78 JUMP JUMPDEST PUSH1 0x1 PUSH2 0x22A SSTORE PUSH1 0x80 SHL PUSH1 0x1 PUSH1 0x1 PUSH1 0x80 SHL SUB NOT AND OR PUSH2 0x269 SSTORE PUSH2 0x730 JUMPI STOP JUMPDEST PUSH2 0xFF00 NOT AND PUSH1 0x0 SSTORE PUSH32 0x7F26B83FF96E1F2B6A682F133852F6798A09C465DA95921460CEFB3847402498 PUSH1 0x20 PUSH1 0x40 MLOAD PUSH1 0x1 DUP2 MSTORE LOG1 STOP JUMPDEST PUSH2 0xFFFF NOT AND PUSH2 0x101 OR PUSH1 0x0 SSTORE DUP8 PUSH2 0x671 JUMP JUMPDEST PUSH1 0x40 MLOAD PUSH3 0x461BCD PUSH1 0xE5 SHL DUP2 MSTORE PUSH1 0x20 PUSH1 0x4 DUP3 ADD MSTORE PUSH1 0x2E PUSH1 0x24 DUP3 ADD MSTORE PUSH32 0x496E697469616C697A61626C653A20636F6E747261637420697320616C726561 PUSH1 0x44 DUP3 ADD MSTORE PUSH14 0x191E481A5B9A5D1A585B1A5E9959 PUSH1 0x92 SHL PUSH1 0x64 DUP3 ADD MSTORE PUSH1 0x84 SWAP1 REVERT JUMPDEST POP ADDRESS EXTCODESIZE ISZERO DUP1 ISZERO PUSH2 0x655 JUMPI POP PUSH1 0x1 PUSH1 0xFF DUP3 AND EQ PUSH2 0x655 JUMP JUMPDEST POP PUSH1 0x1 PUSH1 0xFF DUP3 AND LT PUSH2 0x64E JUMP JUMPDEST CALLVALUE PUSH2 0x2D0 JUMPI PUSH1 0x40 CALLDATASIZE PUSH1 0x3 NOT ADD SLT PUSH2 0x2D0 JUMPI PUSH1 0x4 CALLDATALOAD PUSH1 0x24 CALLDATALOAD PUSH1 0x1 PUSH1 0x1 PUSH1 0xA0 SHL SUB DUP2 AND DUP2 SUB PUSH2 0x2D0 JUMPI DUP2 PUSH2 0x82B PUSH2 0x830 SWAP4 PUSH2 0x498C JUMP JUMPDEST PUSH2 0x288B JUMP JUMPDEST STOP JUMPDEST CALLVALUE PUSH2 0x2D0 JUMPI PUSH1 0x0 CALLDATASIZE PUSH1 0x3 NOT ADD SLT PUSH2 0x2D0 JUMPI PUSH2 0x25C SLOAD PUSH1 0x40 MLOAD PUSH1 0x1 PUSH1 0x1 PUSH1 0xA0 SHL SUB SWAP1 SWAP2 AND DUP2 MSTORE PUSH1 0x20 SWAP1 RETURN JUMPDEST PUSH1 0xC0 CALLDATASIZE PUSH1 0x3 NOT ADD SLT PUSH2 0x2D0 JUMPI PUSH2 0x870 PUSH2 0x2E57 JUMP JUMPDEST PUSH2 0x887 PUSH1 0x0 DUP1 MLOAD PUSH1 0x20 PUSH2 0x4AA5 DUP4 CODECOPY DUP2 MLOAD SWAP2 MSTORE PUSH2 0x2ED8 JUMP JUMPDEST PUSH2 0x897 PUSH2 0x310 PUSH1 0x4 PUSH2 0x1F7 PUSH2 0x27E5 JUMP JUMPDEST PUSH2 0x25D DUP1 SLOAD PUSH1 0x40 MLOAD SWAP2 PUSH2 0x8AB PUSH1 0x40 DUP5 PUSH2 0x27FD JUMP JUMPDEST PUSH1 0x4 DUP4 MSTORE PUSH1 0x20 DUP4 ADD SWAP3 PUSH1 0x1 DUP1 PUSH1 0xF8 SHL SUB NUMBER AND DUP5 MSTORE DUP3 PUSH1 0x0 MSTORE PUSH2 0x268 PUSH1 0x20 MSTORE PUSH1 0x40 PUSH1 0x0 KECCAK256 SWAP1 MLOAD PUSH1 0xA DUP2 LT ISZERO PUSH2 0x3B6 JUMPI PUSH1 0xFF PUSH1 0x20 SWAP6 DUP2 NOT SWAP1 MLOAD PUSH1 0x8 SHL AND SWAP2 AND OR SWAP1 SSTORE DUP2 PUSH1 0x0 MSTORE PUSH2 0x262 DUP4 MSTORE PUSH2 0x903 PUSH1 0x4 PUSH1 0x40 PUSH1 0x0 KECCAK256 PUSH2 0x471E JUMP JUMPDEST PUSH1 0x40 MLOAD DUP3 DUP2 MSTORE PUSH1 0x4 DUP5 DUP3 ADD MSTORE PUSH1 0x0 DUP1 MLOAD PUSH1 0x20 PUSH2 0x4A85 DUP4 CODECOPY DUP2 MLOAD SWAP2 MSTORE PUSH1 0x40 CALLER SWAP3 LOG2 PUSH2 0x3AC DUP2 SLOAD PUSH2 0x470F JUMP JUMPDEST CALLVALUE PUSH2 0x2D0 JUMPI PUSH1 0x20 CALLDATASIZE PUSH1 0x3 NOT ADD SLT PUSH2 0x2D0 JUMPI PUSH1 0x1 PUSH1 0x1 PUSH1 0xA0 SHL SUB PUSH1 0x4 CALLDATALOAD DUP2 DUP2 AND SWAP1 DUP2 SWAP1 SUB PUSH2 0x2D0 JUMPI PUSH2 0x95C PUSH2 0x2DD4 JUMP JUMPDEST PUSH2 0x25C DUP1 SLOAD SWAP3 DUP4 AND PUSH2 0x990 JUMPI DUP2 PUSH2 0x830 SWAP4 PUSH1 0x1 PUSH1 0x1 PUSH1 0x60 SHL SUB PUSH1 0xA0 SHL AND OR SWAP1 SSTORE PUSH1 0x0 DUP1 MLOAD PUSH1 0x20 PUSH2 0x4AA5 DUP4 CODECOPY DUP2 MLOAD SWAP2 MSTORE PUSH2 0x4864 JUMP JUMPDEST PUSH1 0x40 MLOAD PUSH4 0xA646B77 PUSH1 0xE4 SHL DUP2 MSTORE PUSH1 0x4 SWAP1 REVERT JUMPDEST CALLVALUE PUSH2 0x2D0 JUMPI PUSH1 0x0 CALLDATASIZE PUSH1 0x3 NOT ADD SLT PUSH2 0x2D0 JUMPI PUSH1 0x20 PUSH1 0xFF PUSH1 0xCA SLOAD AND PUSH1 0x40 MLOAD SWAP1 ISZERO ISZERO DUP2 MSTORE RETURN JUMPDEST CALLVALUE PUSH2 0x2D0 JUMPI PUSH1 0x20 CALLDATASIZE PUSH1 0x3 NOT ADD SLT PUSH2 0x2D0 JUMPI PUSH1 0x4 DUP1 CALLDATALOAD PUSH1 0x0 SWAP1 DUP2 MSTORE PUSH2 0x261 PUSH1 0x20 SWAP1 DUP2 MSTORE PUSH1 0x40 SWAP2 DUP3 SWAP1 KECCAK256 DUP1 SLOAD PUSH1 0x1 DUP3 ADD SLOAD PUSH1 0x2 DUP4 ADD SLOAD PUSH1 0x3 DUP5 ADD SLOAD SWAP4 SWAP1 SWAP7 ADD SLOAD DUP6 MLOAD SWAP3 DUP4 MSTORE SWAP4 DUP3 ADD MSTORE PUSH1 0x1 PUSH1 0x1 PUSH1 0xA0 SHL SUB SWAP5 DUP6 AND SWAP4 DUP2 ADD SWAP4 SWAP1 SWAP4 MSTORE DUP4 AND PUSH1 0x60 DUP4 ADD MSTORE SWAP2 SWAP1 SWAP2 AND PUSH1 0x80 DUP3 ADD MSTORE PUSH1 0xA0 SWAP1 RETURN JUMPDEST CALLVALUE PUSH2 0x2D0 JUMPI PUSH1 0x0 CALLDATASIZE PUSH1 0x3 NOT ADD SLT PUSH2 0x2D0 JUMPI PUSH1 0x20 PUSH1 0x40 MLOAD PUSH1 0x0 DUP2 MSTORE RETURN JUMPDEST CALLVALUE PUSH2 0x2D0 JUMPI PUSH1 0x0 CALLDATASIZE PUSH1 0x3 NOT ADD SLT PUSH2 0x2D0 JUMPI PUSH1 0xCA SLOAD PUSH1 0x40 MLOAD PUSH1 0x10 SWAP2 SWAP1 SWAP2 SHR PUSH1 0x1 PUSH1 0x1 PUSH1 0xA0 SHL SUB AND DUP2 MSTORE PUSH1 0x20 SWAP1 RETURN JUMPDEST CALLVALUE PUSH2 0x2D0 JUMPI PUSH1 0x40 CALLDATASIZE PUSH1 0x3 NOT ADD SLT PUSH2 0x2D0 JUMPI PUSH1 0x24 CALLDATALOAD PUSH1 0x1 PUSH1 0x1 PUSH1 0xA0 SHL SUB DUP2 AND SWAP1 DUP2 SWAP1 SUB PUSH2 0x2D0 JUMPI PUSH1 0x4 CALLDATALOAD PUSH1 0x0 MSTORE PUSH2 0x193 PUSH1 0x20 MSTORE PUSH1 0x40 PUSH1 0x0 KECCAK256 SWAP1 PUSH1 0x0 MSTORE PUSH1 0x20 MSTORE PUSH1 0x20 PUSH1 0xFF PUSH1 0x40 PUSH1 0x0 KECCAK256 SLOAD AND PUSH1 0x40 MLOAD SWAP1 ISZERO ISZERO DUP2 MSTORE RETURN JUMPDEST CALLVALUE PUSH2 0x2D0 JUMPI PUSH1 0x0 CALLDATASIZE PUSH1 0x3 NOT ADD SLT PUSH2 0x2D0 JUMPI PUSH1 0x20 PUSH1 0x1 PUSH1 0x1 PUSH1 0x80 SHL SUB PUSH2 0x269 SLOAD AND PUSH1 0x40 MLOAD SWAP1 DUP2 MSTORE RETURN JUMPDEST CALLVALUE PUSH2 0x2D0 JUMPI PUSH1 0x20 CALLDATASIZE PUSH1 0x3 NOT ADD SLT PUSH2 0x2D0 JUMPI PUSH1 0x4 CALLDATALOAD PUSH1 0x0 MSTORE PUSH2 0x263 PUSH1 0x20 MSTORE PUSH1 0x40 PUSH1 0x0 KECCAK256 PUSH1 0x1 DUP1 PUSH1 0xA0 SHL SUB PUSH2 0x2CC DUP2 DUP4 SLOAD AND SWAP2 PUSH1 0x1 DUP5 ADD SLOAD SWAP4 PUSH1 0x2 DUP2 ADD SLOAD SWAP2 DUP1 PUSH1 0x3 DUP4 ADD SLOAD AND SWAP1 PUSH1 0x5 DUP2 PUSH1 0x4 DUP6 ADD SLOAD AND SWAP4 ADD SLOAD AND SWAP3 PUSH1 0x40 MLOAD SWAP7 DUP8 SWAP7 DUP8 PUSH2 0x2851 JUMP JUMPDEST CALLVALUE PUSH2 0x2D0 JUMPI PUSH1 0x20 CALLDATASIZE PUSH1 0x3 NOT ADD SLT PUSH2 0x2D0 JUMPI PUSH1 0x4 CALLDATALOAD PUSH1 0x0 MSTORE PUSH2 0x260 PUSH1 0x20 MSTORE PUSH1 0x40 PUSH1 0x0 KECCAK256 PUSH1 0x1 DUP1 PUSH1 0xA0 SHL SUB PUSH2 0x2CC DUP2 DUP4 SLOAD AND SWAP2 PUSH1 0x1 DUP5 ADD SLOAD SWAP4 PUSH1 0x2 DUP2 ADD SLOAD SWAP2 DUP1 PUSH1 0x3 DUP4 ADD SLOAD AND SWAP1 PUSH1 0x5 DUP2 PUSH1 0x4 DUP6 ADD SLOAD AND SWAP4 ADD SLOAD AND SWAP3 PUSH1 0x40 MLOAD SWAP7 DUP8 SWAP7 DUP8 PUSH2 0x2851 JUMP JUMPDEST CALLVALUE PUSH2 0x2D0 JUMPI PUSH1 0x0 CALLDATASIZE PUSH1 0x3 NOT ADD SLT PUSH2 0x2D0 JUMPI PUSH2 0xBCE PUSH2 0x2E57 JUMP JUMPDEST PUSH1 0xCA SLOAD PUSH1 0x10 DUP2 SWAP1 SHR PUSH1 0x1 PUSH1 0x1 PUSH1 0xA0 SHL SUB AND CALLER SUB PUSH2 0xC39 JUMPI PUSH1 0xFF DUP2 AND ISZERO PUSH2 0xC27 JUMPI PUSH2 0x100 SWAP1 PUSH2 0xFF00 NOT AND OR PUSH1 0xCA SSTORE PUSH32 0x62E78CEA01BEE320CD4E420270B5EA74000D11B0C9F74754EBDBFC544B05A258 PUSH1 0x20 PUSH1 0x40 MLOAD CALLER DUP2 MSTORE LOG1 STOP JUMPDEST PUSH1 0x40 MLOAD PUSH4 0x866099C3 PUSH1 0xE0 SHL DUP2 MSTORE PUSH1 0x4 SWAP1 REVERT JUMPDEST PUSH1 0x40 MLOAD PUSH4 0x1D77D477 PUSH1 0xE2 SHL DUP2 MSTORE PUSH1 0x4 SWAP1 REVERT JUMPDEST PUSH1 0xC0 CALLDATASIZE PUSH1 0x3 NOT ADD SLT PUSH2 0x2D0 JUMPI PUSH2 0xC5F PUSH2 0x2E57 JUMP JUMPDEST PUSH2 0xC76 PUSH1 0x0 DUP1 MLOAD PUSH1 0x20 PUSH2 0x4AA5 DUP4 CODECOPY DUP2 MLOAD SWAP2 MSTORE PUSH2 0x2ED8 JUMP JUMPDEST PUSH2 0xC86 PUSH2 0x310 PUSH1 0x3 PUSH2 0x1F7 PUSH2 0x27E5 JUMP JUMPDEST PUSH2 0x25D DUP1 SLOAD PUSH1 0x40 MLOAD SWAP2 PUSH2 0xC9A PUSH1 0x40 DUP5 PUSH2 0x27FD JUMP JUMPDEST PUSH1 0x3 DUP4 MSTORE PUSH1 0x20 DUP4 ADD SWAP3 PUSH1 0x1 DUP1 PUSH1 0xF8 SHL SUB NUMBER AND DUP5 MSTORE DUP3 PUSH1 0x0 MSTORE PUSH2 0x268 PUSH1 0x20 MSTORE PUSH1 0x40 PUSH1 0x0 KECCAK256 SWAP1 MLOAD PUSH1 0xA DUP2 LT ISZERO PUSH2 0x3B6 JUMPI PUSH1 0xFF PUSH1 0x20 SWAP6 DUP2 NOT SWAP1 MLOAD PUSH1 0x8 SHL AND SWAP2 AND OR SWAP1 SSTORE DUP2 PUSH1 0x0 MSTORE PUSH2 0x260 DUP4 MSTORE PUSH2 0xCF2 PUSH1 0x4 PUSH1 0x40 PUSH1 0x0 KECCAK256 PUSH2 0x471E JUMP JUMPDEST PUSH1 0x40 MLOAD DUP3 DUP2 MSTORE PUSH1 0x3 DUP5 DUP3 ADD MSTORE PUSH1 0x0 DUP1 MLOAD PUSH1 0x20 PUSH2 0x4A85 DUP4 CODECOPY DUP2 MLOAD SWAP2 MSTORE PUSH1 0x40 CALLER SWAP3 LOG2 PUSH2 0x3AC DUP2 SLOAD PUSH2 0x470F JUMP JUMPDEST CALLVALUE PUSH2 0x2D0 JUMPI PUSH1 0x20 CALLDATASIZE PUSH1 0x3 NOT ADD SLT PUSH2 0x2D0 JUMPI PUSH1 0x4 CALLDATALOAD PUSH1 0x0 MSTORE PUSH2 0x268 PUSH1 0x20 MSTORE PUSH1 0x40 PUSH1 0x0 KECCAK256 SLOAD PUSH1 0xFF DUP2 AND SWAP1 PUSH1 0x40 MLOAD SWAP1 PUSH1 0xA DUP4 LT ISZERO PUSH2 0x3B6 JUMPI PUSH1 0x40 SWAP3 DUP3 MSTORE PUSH1 0x8 SHR PUSH1 0x20 DUP3 ADD MSTORE RETURN JUMPDEST CALLVALUE PUSH2 0x2D0 JUMPI PUSH1 0x0 CALLDATASIZE PUSH1 0x3 NOT ADD SLT PUSH2 0x2D0 JUMPI PUSH1 0x20 PUSH2 0x25D SLOAD PUSH1 0x40 MLOAD SWAP1 DUP2 MSTORE RETURN JUMPDEST CALLVALUE PUSH2 0x2D0 JUMPI PUSH1 0x20 CALLDATASIZE PUSH1 0x3 NOT ADD SLT PUSH2 0x2D0 JUMPI PUSH1 0x4 CALLDATALOAD PUSH1 0x0 MSTORE PUSH2 0x264 PUSH1 0x20 MSTORE PUSH1 0x40 PUSH1 0x0 KECCAK256 PUSH1 0x1 DUP1 PUSH1 0xA0 SHL SUB PUSH2 0x2CC DUP2 DUP4 SLOAD AND SWAP2 PUSH1 0x1 DUP5 ADD SLOAD SWAP4 PUSH1 0x2 DUP2 ADD SLOAD SWAP2 PUSH1 0x3 DUP3 ADD SLOAD DUP2 PUSH1 0x4 DUP5 ADD SLOAD AND SWAP2 PUSH1 0x6 DUP2 PUSH1 0x5 DUP7 ADD SLOAD AND SWAP5 ADD SLOAD AND SWAP4 PUSH1 0x40 MLOAD SWAP8 DUP9 SWAP8 DUP9 PUSH2 0x27A2 JUMP JUMPDEST PUSH1 0xE0 CALLDATASIZE PUSH1 0x3 NOT ADD SLT PUSH2 0x2D0 JUMPI PUSH2 0xDF7 PUSH2 0x2E57 JUMP JUMPDEST PUSH2 0xE0E PUSH1 0x0 DUP1 MLOAD PUSH1 0x20 PUSH2 0x4AA5 DUP4 CODECOPY DUP2 MLOAD SWAP2 MSTORE PUSH2 0x2ED8 JUMP JUMPDEST PUSH2 0xE1E PUSH2 0x310 PUSH1 0x7 PUSH2 0x1F7 PUSH2 0x27E5 JUMP JUMPDEST PUSH2 0x25D DUP1 SLOAD PUSH1 0x40 MLOAD SWAP2 PUSH2 0xE32 PUSH1 0x40 DUP5 PUSH2 0x27FD JUMP JUMPDEST PUSH1 0x7 DUP4 MSTORE PUSH1 0x20 DUP4 ADD SWAP3 PUSH1 0x1 DUP1 PUSH1 0xF8 SHL SUB NUMBER AND DUP5 MSTORE DUP3 PUSH1 0x0 MSTORE PUSH2 0x268 PUSH1 0x20 MSTORE PUSH1 0x40 PUSH1 0x0 KECCAK256 SWAP1 MLOAD PUSH1 0xA DUP2 LT ISZERO PUSH2 0x3B6 JUMPI PUSH1 0xFF PUSH1 0x20 SWAP6 DUP2 NOT SWAP1 MLOAD PUSH1 0x8 SHL AND SWAP2 AND OR SWAP1 SSTORE DUP2 PUSH1 0x0 MSTORE PUSH2 0x265 DUP4 MSTORE PUSH2 0xE8A PUSH1 0x4 PUSH1 0x40 PUSH1 0x0 KECCAK256 PUSH2 0x4789 JUMP JUMPDEST PUSH1 0x40 MLOAD DUP3 DUP2 MSTORE PUSH1 0x7 DUP5 DUP3 ADD MSTORE PUSH1 0x0 DUP1 MLOAD PUSH1 0x20 PUSH2 0x4A85 DUP4 CODECOPY DUP2 MLOAD SWAP2 MSTORE PUSH1 0x40 CALLER SWAP3 LOG2 PUSH2 0x3AC DUP2 SLOAD PUSH2 0x470F JUMP JUMPDEST CALLVALUE PUSH2 0x2D0 JUMPI PUSH1 0x0 CALLDATASIZE PUSH1 0x3 NOT ADD SLT PUSH2 0x2D0 JUMPI PUSH2 0xECD PUSH2 0x2DD4 JUMP JUMPDEST PUSH1 0xCA DUP1 SLOAD PUSH1 0xFF NOT AND PUSH1 0x1 OR SWAP1 SSTORE STOP JUMPDEST CALLVALUE PUSH2 0x2D0 JUMPI PUSH1 0x0 CALLDATASIZE PUSH1 0x3 NOT ADD SLT PUSH2 0x2D0 JUMPI PUSH1 0x20 PUSH2 0x25E SLOAD PUSH2 0x25D SLOAD EQ PUSH1 0x40 MLOAD SWAP1 DUP2 MSTORE RETURN JUMPDEST CALLVALUE PUSH2 0x2D0 JUMPI PUSH1 0x20 CALLDATASIZE PUSH1 0x3 NOT ADD SLT PUSH2 0x2D0 JUMPI PUSH1 0x1 PUSH1 0x1 PUSH1 0x80 SHL SUB PUSH1 0x4 CALLDATALOAD DUP2 DUP2 AND DUP2 SUB PUSH2 0x2D0 JUMPI PUSH2 0xF2D PUSH2 0x2DD4 JUMP JUMPDEST PUSH2 0x269 DUP1 SLOAD SWAP1 SWAP3 AND PUSH1 0x80 SWAP2 SWAP1 SWAP2 SHL PUSH1 0x1 PUSH1 0x1 PUSH1 0x80 SHL SUB NOT AND OR SWAP1 SSTORE STOP JUMPDEST CALLVALUE PUSH2 0x2D0 JUMPI PUSH1 0x0 CALLDATASIZE PUSH1 0x3 NOT ADD SLT PUSH2 0x2D0 JUMPI PUSH1 0x20 PUSH1 0xFF PUSH1 0xCA SLOAD PUSH1 0x8 SHR AND PUSH1 0x40 MLOAD SWAP1 ISZERO ISZERO DUP2 MSTORE RETURN JUMPDEST CALLVALUE PUSH2 0x2D0 JUMPI PUSH1 0x20 CALLDATASIZE PUSH1 0x3 NOT ADD SLT PUSH2 0x2D0 JUMPI PUSH1 0x4 CALLDATALOAD PUSH1 0x0 MSTORE PUSH2 0x266 PUSH1 0x20 MSTORE PUSH1 0x40 PUSH1 0x0 KECCAK256 PUSH1 0x1 DUP1 PUSH1 0xA0 SHL SUB PUSH2 0x2CC DUP2 DUP4 SLOAD AND SWAP2 PUSH1 0x1 DUP5 ADD SLOAD SWAP4 PUSH1 0x2 DUP2 ADD SLOAD SWAP2 PUSH1 0x3 DUP3 ADD SLOAD DUP2 PUSH1 0x4 DUP5 ADD SLOAD AND SWAP2 PUSH1 0x6 DUP2 PUSH1 0x5 DUP7 ADD SLOAD AND SWAP5 ADD SLOAD AND SWAP4 PUSH1 0x40 MLOAD SWAP8 DUP9 SWAP8 DUP9 PUSH2 0x27A2 JUMP JUMPDEST CALLVALUE PUSH2 0x2D0 JUMPI PUSH1 0x0 CALLDATASIZE PUSH1 0x3 NOT ADD SLT PUSH2 0x2D0 JUMPI PUSH32 0x0 PUSH1 0x1 PUSH1 0x1 PUSH1 0xA0 SHL SUB AND ADDRESS SUB PUSH2 0x103F JUMPI PUSH1 0x20 PUSH1 0x40 MLOAD PUSH32 0x360894A13BA1A3210667C828492DB98DCA3E2076CC3735A920A3CA505D382BBC DUP2 MSTORE RETURN JUMPDEST PUSH1 0x40 MLOAD PUSH3 0x461BCD PUSH1 0xE5 SHL DUP2 MSTORE PUSH1 0x20 PUSH1 0x4 DUP3 ADD MSTORE PUSH1 0x38 PUSH1 0x24 DUP3 ADD MSTORE PUSH32 0x555550535570677261646561626C653A206D757374206E6F742062652063616C PUSH1 0x44 DUP3 ADD MSTORE PUSH32 0x6C6564207468726F7567682064656C656761746563616C6C0000000000000000 PUSH1 0x64 DUP3 ADD MSTORE PUSH1 0x84 SWAP1 REVERT JUMPDEST CALLVALUE PUSH2 0x2D0 JUMPI PUSH1 0x0 CALLDATASIZE PUSH1 0x3 NOT ADD SLT PUSH2 0x2D0 JUMPI PUSH2 0x10C3 PUSH2 0x2DD4 JUMP JUMPDEST PUSH1 0xCA DUP1 SLOAD PUSH1 0xFF NOT AND SWAP1 SSTORE STOP JUMPDEST PUSH1 0x40 CALLDATASIZE PUSH1 0x3 NOT ADD SLT PUSH2 0x2D0 JUMPI PUSH1 0x1 PUSH1 0x1 PUSH1 0xA0 SHL SUB PUSH1 0x4 CALLDATALOAD DUP2 DUP2 AND DUP2 SUB PUSH2 0x2D0 JUMPI PUSH1 0x24 CALLDATALOAD PUSH8 0xFFFFFFFFFFFFFFFF DUP2 GT PUSH2 0x2D0 JUMPI CALLDATASIZE PUSH1 0x23 DUP3 ADD SLT ISZERO PUSH2 0x2D0 JUMPI DUP1 PUSH1 0x4 ADD CALLDATALOAD SWAP2 PUSH2 0x111B DUP4 PUSH2 0x2835 JUMP JUMPDEST SWAP2 PUSH2 0x1129 PUSH1 0x40 MLOAD SWAP4 DUP5 PUSH2 0x27FD JUMP JUMPDEST DUP4 DUP4 MSTORE CALLDATASIZE PUSH1 0x24 DUP6 DUP4 ADD ADD GT PUSH2 0x2D0 JUMPI PUSH2 0x830 SWAP5 PUSH1 0x0 PUSH1 0x20 DUP7 PUSH1 0x1 SWAP8 PUSH1 0x24 PUSH2 0x11AC SWAP7 ADD DUP4 DUP10 ADD CALLDATACOPY DUP7 ADD ADD MSTORE DUP1 PUSH32 0x0 AND SWAP1 PUSH2 0x1183 DUP3 ADDRESS EQ ISZERO PUSH2 0x290A JUMP JUMPDEST PUSH32 0x360894A13BA1A3210667C828492DB98DCA3E2076CC3735A920A3CA505D382BBC SLOAD AND EQ PUSH2 0x296B JUMP JUMPDEST PUSH2 0x11B4 PUSH2 0x2DD4 JUMP JUMPDEST PUSH2 0x29CC JUMP JUMPDEST CALLVALUE PUSH2 0x2D0 JUMPI PUSH1 0x20 CALLDATASIZE PUSH1 0x3 NOT ADD SLT PUSH2 0x2D0 JUMPI PUSH1 0x4 CALLDATALOAD PUSH1 0x1 PUSH1 0x1 PUSH1 0xA0 SHL SUB DUP2 AND SWAP1 SUB PUSH2 0x2D0 JUMPI PUSH2 0x11E5 PUSH2 0x2E57 JUMP JUMPDEST PUSH1 0x2 PUSH2 0x22A SLOAD EQ PUSH2 0x1EB5 JUMPI PUSH1 0x2 PUSH2 0x22A SSTORE PUSH2 0x121F PUSH32 0xD8AA0F3194971A2A116679F7C2090F6939C8D4E01A2A8D7E41D55E5351469E63 PUSH2 0x2ED8 JUMP JUMPDEST PUSH2 0x25E SLOAD PUSH1 0x0 PUSH2 0x25D SLOAD PUSH2 0x269 SLOAD SWAP1 DUP2 PUSH1 0x80 SHR DUP5 ADD DUP1 DUP3 LT PUSH1 0x0 EQ PUSH2 0x1EAA JUMPI POP SWAP1 SWAP3 SWAP2 SWAP3 JUMPDEST DUP2 DUP4 LT PUSH2 0x1291 JUMPI JUMPDEST POP POP PUSH2 0x25E SSTORE DUP1 PUSH2 0x1260 JUMPI JUMPDEST PUSH1 0x1 PUSH2 0x22A SSTORE STOP JUMPDEST PUSH1 0x0 DUP1 DUP1 DUP1 SWAP4 PUSH1 0x4 CALLDATALOAD GAS CALL PUSH2 0x1273 PUSH2 0x2CA7 JUMP JUMPDEST POP ISZERO PUSH2 0x127F JUMPI DUP1 PUSH2 0x1258 JUMP JUMPDEST PUSH1 0x40 MLOAD PUSH4 0x8F589409 PUSH1 0xE0 SHL DUP2 MSTORE PUSH1 0x4 SWAP1 REVERT JUMPDEST SWAP1 SWAP2 PUSH1 0x0 SWAP1 PUSH1 0x0 SWAP2 DUP2 PUSH1 0x0 MSTORE PUSH2 0x268 PUSH1 0x20 MSTORE PUSH1 0x40 PUSH1 0x0 KECCAK256 PUSH1 0x40 MLOAD SWAP1 PUSH2 0x12B7 PUSH1 0x40 DUP4 PUSH2 0x27FD JUMP JUMPDEST SLOAD PUSH2 0x12C5 PUSH1 0xFF DUP3 AND DUP4 PUSH2 0x3124 JUMP JUMPDEST PUSH1 0x8 SHR DUP1 PUSH1 0x20 DUP4 ADD MSTORE PUSH1 0x1 PUSH1 0x1 PUSH1 0x80 SHL SUB DUP7 AND NUMBER SUB LT PUSH1 0x0 EQ PUSH2 0x134A JUMPI POP PUSH1 0x0 SWAP3 POP DUP3 SWAP1 POP DUP1 JUMPDEST PUSH2 0x1334 JUMPI JUMPDEST ISZERO PUSH2 0x132D JUMPI DUP1 PUSH1 0x1 SWAP2 CALLER PUSH32 0xB207E6B6B26274F3764B879E578B4539B8E37F41DFF43932DDC87B3E04090974 PUSH1 0x0 DUP1 LOG3 ADD SWAP4 ADD SWAP2 SWAP1 SWAP3 SWAP2 SWAP3 PUSH2 0x1244 JUMP JUMPDEST SWAP3 POP PUSH2 0x124C JUMP JUMPDEST DUP2 PUSH1 0x0 MSTORE PUSH2 0x268 PUSH1 0x20 MSTORE PUSH1 0x0 PUSH1 0x40 DUP2 KECCAK256 SSTORE PUSH2 0x12F1 JUMP JUMPDEST DUP1 MLOAD PUSH1 0xA DUP2 LT ISZERO PUSH2 0x3B6 JUMPI PUSH1 0x1 SUB PUSH2 0x1619 JUMPI POP POP DUP1 SWAP2 POP PUSH1 0x0 MSTORE PUSH2 0x25F PUSH1 0x20 MSTORE PUSH2 0x1377 PUSH1 0x40 PUSH1 0x0 KECCAK256 PUSH2 0x3130 JUMP JUMPDEST PUSH2 0x25C DUP1 SLOAD PUSH1 0x40 DUP1 MLOAD PUSH4 0x235E81CF PUSH1 0xE0 SHL DUP2 MSTORE DUP5 MLOAD PUSH1 0x4 DUP3 ADD MSTORE PUSH1 0x20 DUP6 ADD MLOAD PUSH1 0x24 DUP3 ADD MSTORE SWAP1 DUP5 ADD MLOAD PUSH1 0x1 PUSH1 0x1 PUSH1 0xA0 SHL SUB SWAP1 DUP2 AND PUSH1 0x44 DUP4 ADD MSTORE PUSH1 0x60 DUP6 ADD MLOAD DUP2 AND PUSH1 0x64 DUP4 ADD MSTORE PUSH1 0x80 DUP6 ADD MLOAD DUP2 AND PUSH1 0x84 DUP4 ADD MSTORE SWAP1 SWAP2 PUSH1 0x0 SWAP2 AND DUP3 PUSH1 0xA4 DUP2 PUSH1 0xC0 SWAP5 DUP6 SWAP5 GAS CALL PUSH1 0x0 SWAP3 DUP4 SWAP3 DUP3 PUSH2 0x15E4 JUMPI JUMPDEST POP POP PUSH2 0x1568 JUMPI POP POP PUSH2 0x13F3 PUSH2 0x2CA7 JUMP JUMPDEST PUSH2 0x13FC DUP2 PUSH2 0x31DF JUMP JUMPDEST SWAP1 PUSH1 0x1 PUSH1 0x1 PUSH1 0xE0 SHL SUB NOT DUP3 AND PUSH4 0xB63F1A7 PUSH1 0xE0 SHL DUP2 SUB PUSH2 0x1503 JUMPI POP POP PUSH2 0x1438 PUSH1 0x0 DUP1 MLOAD PUSH1 0x20 PUSH2 0x4A45 DUP4 CODECOPY DUP2 MLOAD SWAP2 MSTORE SWAP2 PUSH1 0x40 MLOAD SWAP2 DUP3 SWAP2 DUP8 DUP4 PUSH2 0x324C JUMP JUMPDEST SUB SWAP1 LOG1 JUMPDEST SLOAD PUSH1 0x40 DUP3 ADD MLOAD PUSH1 0x20 SWAP1 SWAP3 ADD MLOAD PUSH1 0x1 PUSH1 0x1 PUSH1 0xA0 SHL SUB SWAP2 DUP3 AND SWAP3 SWAP1 SWAP2 AND SWAP1 DUP3 EXTCODESIZE ISZERO PUSH2 0x2D0 JUMPI PUSH1 0x40 MLOAD PUSH4 0x58F32DE9 PUSH1 0xE0 SHL DUP2 MSTORE PUSH1 0x1 PUSH1 0x1 PUSH1 0xA0 SHL SUB SWAP3 SWAP1 SWAP3 AND PUSH1 0x4 DUP4 ADD MSTORE PUSH1 0x24 DUP3 ADD MSTORE SWAP1 PUSH1 0x0 SWAP1 DUP3 SWAP1 PUSH1 0x44 SWAP1 DUP3 SWAP1 DUP5 SWAP1 GAS CALL DUP1 ISZERO PUSH2 0x14F7 JUMPI PUSH2 0x14E6 JUMPI JUMPDEST POP JUMPDEST DUP1 PUSH1 0x0 MSTORE PUSH2 0x25F PUSH1 0x20 MSTORE PUSH2 0x14CE PUSH1 0x40 PUSH1 0x0 KECCAK256 PUSH1 0x4 PUSH1 0x0 SWAP2 DUP3 DUP2 SSTORE DUP3 PUSH1 0x1 DUP3 ADD SSTORE DUP3 PUSH1 0x2 DUP3 ADD SSTORE DUP3 PUSH1 0x3 DUP3 ADD SSTORE ADD SSTORE JUMP JUMPDEST PUSH1 0x1 SWAP1 DUP2 PUSH2 0x14DF PUSH1 0x1 PUSH2 0x1F7 PUSH2 0x27E5 JUMP JUMPDEST SLOAD SWAP3 PUSH2 0x12EC JUMP JUMPDEST PUSH1 0x0 PUSH2 0x14F1 SWAP2 PUSH2 0x27FD JUMP JUMPDEST DUP5 PUSH2 0x149C JUMP JUMPDEST PUSH1 0x40 MLOAD RETURNDATASIZE PUSH1 0x0 DUP3 RETURNDATACOPY RETURNDATASIZE SWAP1 REVERT JUMPDEST PUSH4 0x79121201 PUSH1 0xE0 SHL SUB PUSH2 0x1539 JUMPI POP PUSH2 0x1531 PUSH1 0x0 DUP1 MLOAD PUSH1 0x20 PUSH2 0x4A45 DUP4 CODECOPY DUP2 MLOAD SWAP2 MSTORE SWAP2 PUSH1 0x40 MLOAD SWAP2 DUP3 SWAP2 DUP8 DUP4 PUSH2 0x3210 JUMP JUMPDEST SUB SWAP1 LOG1 PUSH2 0x143C JUMP JUMPDEST PUSH1 0x0 DUP1 MLOAD PUSH1 0x20 PUSH2 0x4A65 DUP4 CODECOPY DUP2 MLOAD SWAP2 MSTORE SWAP2 POP PUSH2 0x1531 SWAP1 PUSH1 0x40 MLOAD SWAP2 DUP3 SWAP2 DUP8 DUP4 MSTORE PUSH1 0x40 PUSH1 0x20 DUP5 ADD MSTORE PUSH1 0x40 DUP4 ADD SWAP1 PUSH2 0x2D97 JUMP JUMPDEST PUSH32 0x5090A820029ACAE4D47B64DA9AF62CE04A5A1BDB546934E5FCFE091EE1F780EE SWAP2 SWAP3 POP PUSH1 0x1 DUP1 PUSH1 0xA0 SHL SUB PUSH1 0x40 DUP6 ADD MLOAD AND SWAP3 PUSH2 0x15DC DUP7 PUSH1 0x60 PUSH1 0x1 DUP1 PUSH1 0xA0 SHL SUB DUP2 DUP10 ADD MLOAD AND SWAP8 DUP1 MLOAD SWAP5 DUP1 MLOAD SWAP3 PUSH1 0x20 DUP3 ADD MLOAD SWAP1 PUSH1 0x40 DUP4 ADD MLOAD SWAP3 ADD MLOAD SWAP3 PUSH1 0x80 PUSH1 0x1 DUP1 PUSH1 0xA0 SHL SUB SWAP2 ADD MLOAD AND SWAP4 PUSH1 0x40 MLOAD SWAP9 DUP10 SWAP9 DUP10 PUSH2 0x3291 JUMP JUMPDEST SUB SWAP1 LOG3 PUSH2 0x149E JUMP JUMPDEST DUP1 SWAP2 SWAP3 SWAP5 POP PUSH2 0x1608 SWAP4 POP SWAP1 RETURNDATASIZE LT PUSH2 0x1612 JUMPI JUMPDEST PUSH2 0x1600 DUP2 DUP4 PUSH2 0x27FD JUMP JUMPDEST DUP2 ADD SWAP1 PUSH2 0x31BC JUMP JUMPDEST SWAP3 SWAP1 POP DUP10 DUP1 PUSH2 0x13E3 JUMP JUMPDEST POP RETURNDATASIZE PUSH2 0x15F6 JUMP JUMPDEST DUP1 MLOAD PUSH1 0xA DUP2 LT ISZERO PUSH2 0x3B6 JUMPI PUSH1 0x2 SUB PUSH2 0x1922 JUMPI POP POP DUP1 SWAP2 POP PUSH1 0x0 MSTORE PUSH2 0x261 PUSH1 0x20 MSTORE PUSH2 0x1646 PUSH1 0x40 PUSH1 0x0 KECCAK256 PUSH2 0x3130 JUMP JUMPDEST PUSH2 0x25C DUP1 SLOAD PUSH1 0x40 DUP1 MLOAD PUSH4 0xBFE42621 PUSH1 0xE0 SHL DUP2 MSTORE DUP5 MLOAD PUSH1 0x4 DUP3 ADD MSTORE PUSH1 0x20 DUP6 ADD MLOAD PUSH1 0x24 DUP3 ADD MSTORE SWAP1 DUP5 ADD MLOAD PUSH1 0x1 PUSH1 0x1 PUSH1 0xA0 SHL SUB SWAP1 DUP2 AND PUSH1 0x44 DUP4 ADD MSTORE PUSH1 0x60 DUP6 ADD MLOAD DUP2 AND PUSH1 0x64 DUP4 ADD MSTORE PUSH1 0x80 DUP6 ADD MLOAD DUP2 AND PUSH1 0x84 DUP4 ADD MSTORE SWAP1 SWAP2 PUSH1 0x0 SWAP2 AND DUP3 PUSH1 0xA4 DUP2 PUSH1 0xC0 SWAP5 DUP6 SWAP5 GAS CALL PUSH1 0x0 SWAP3 DUP4 SWAP3 DUP3 PUSH2 0x18FD JUMPI JUMPDEST POP POP PUSH2 0x1881 JUMPI POP POP PUSH2 0x16C2 PUSH2 0x2CA7 JUMP JUMPDEST PUSH2 0x16CB DUP2 PUSH2 0x31DF JUMP JUMPDEST PUSH1 0x1 PUSH1 0x1 PUSH1 0xE0 SHL SUB NOT DUP2 AND SWAP2 PUSH4 0xA5DB715D PUSH1 0xE0 SHL DUP4 SUB PUSH2 0x17EA JUMPI POP POP PUSH1 0xA0 PUSH1 0x0 DUP1 MLOAD PUSH1 0x20 PUSH2 0x4A45 DUP4 CODECOPY DUP2 MLOAD SWAP2 MSTORE SWAP2 PUSH1 0x40 MLOAD SWAP1 DUP7 DUP3 MSTORE PUSH1 0x20 DUP3 ADD MSTORE PUSH1 0x19 PUSH1 0x60 DUP1 PUSH1 0x40 DUP5 ADD MSTORE DUP3 ADD MSTORE PUSH32 0x496E73756666696369656E7420746320746F2072656465656D00000000000000 PUSH1 0x80 DUP3 ADD MSTORE LOG1 JUMPDEST SLOAD PUSH1 0x40 DUP3 ADD MLOAD SWAP2 MLOAD PUSH1 0x1 PUSH1 0x1 PUSH1 0xA0 SHL SUB SWAP2 DUP3 AND SWAP3 SWAP1 SWAP2 AND SWAP1 DUP3 EXTCODESIZE ISZERO PUSH2 0x2D0 JUMPI PUSH1 0x40 MLOAD PUSH4 0x53B16D17 PUSH1 0xE0 SHL DUP2 MSTORE PUSH1 0x1 PUSH1 0x1 PUSH1 0xA0 SHL SUB SWAP3 SWAP1 SWAP3 AND PUSH1 0x4 DUP4 ADD MSTORE PUSH1 0x24 DUP3 ADD MSTORE SWAP1 PUSH1 0x0 SWAP1 DUP3 SWAP1 PUSH1 0x44 SWAP1 DUP3 SWAP1 DUP5 SWAP1 GAS CALL DUP1 ISZERO PUSH2 0x14F7 JUMPI PUSH2 0x17D9 JUMPI JUMPDEST POP JUMPDEST DUP1 PUSH1 0x0 MSTORE PUSH2 0x261 PUSH1 0x20 MSTORE PUSH2 0x17C8 PUSH1 0x40 PUSH1 0x0 KECCAK256 PUSH1 0x4 PUSH1 0x0 SWAP2 DUP3 DUP2 SSTORE DUP3 PUSH1 0x1 DUP3 ADD SSTORE DUP3 PUSH1 0x2 DUP3 ADD SSTORE DUP3 PUSH1 0x3 DUP3 ADD SSTORE ADD SSTORE JUMP JUMPDEST PUSH1 0x1 SWAP1 DUP2 PUSH2 0x14DF PUSH1 0x2 PUSH2 0x1F7 PUSH2 0x27E5 JUMP JUMPDEST PUSH1 0x0 PUSH2 0x17E4 SWAP2 PUSH2 0x27FD JUMP JUMPDEST DUP5 PUSH2 0x1796 JUMP JUMPDEST SWAP1 SWAP2 PUSH4 0x54CDE313 PUSH1 0xE0 SHL DUP2 SUB PUSH2 0x1824 JUMPI POP POP PUSH2 0x181C PUSH1 0x0 DUP1 MLOAD PUSH1 0x20 PUSH2 0x4A45 DUP4 CODECOPY DUP2 MLOAD SWAP2 MSTORE SWAP2 PUSH1 0x40 MLOAD SWAP2 DUP3 SWAP2 DUP8 DUP4 PUSH2 0x32D0 JUMP JUMPDEST SUB SWAP1 LOG1 PUSH2 0x173A JUMP JUMPDEST PUSH4 0x79121201 PUSH1 0xE0 SHL SUB PUSH2 0x1852 JUMPI POP PUSH2 0x181C PUSH1 0x0 DUP1 MLOAD PUSH1 0x20 PUSH2 0x4A45 DUP4 CODECOPY DUP2 MLOAD SWAP2 MSTORE SWAP2 PUSH1 0x40 MLOAD SWAP2 DUP3 SWAP2 DUP8 DUP4 PUSH2 0x3210 JUMP JUMPDEST PUSH1 0x0 DUP1 MLOAD PUSH1 0x20 PUSH2 0x4A65 DUP4 CODECOPY DUP2 MLOAD SWAP2 MSTORE SWAP2 POP PUSH2 0x181C SWAP1 PUSH1 0x40 MLOAD SWAP2 DUP3 SWAP2 DUP8 DUP4 MSTORE PUSH1 0x40 PUSH1 0x20 DUP5 ADD MSTORE PUSH1 0x40 DUP4 ADD SWAP1 PUSH2 0x2D97 JUMP JUMPDEST PUSH32 0x7E7043742F69701E6292386D468D710F2D6E44BF93232A1E52F1641E50A9DE12 SWAP2 SWAP3 POP PUSH1 0x1 DUP1 PUSH1 0xA0 SHL SUB PUSH1 0x40 DUP6 ADD MLOAD AND SWAP3 PUSH2 0x18F5 DUP7 PUSH1 0x60 PUSH1 0x1 DUP1 PUSH1 0xA0 SHL SUB DUP2 DUP10 ADD MLOAD AND SWAP8 DUP1 MLOAD SWAP5 DUP1 MLOAD SWAP3 PUSH1 0x20 DUP3 ADD MLOAD SWAP1 PUSH1 0x40 DUP4 ADD MLOAD SWAP3 ADD MLOAD SWAP3 PUSH1 0x80 PUSH1 0x1 DUP1 PUSH1 0xA0 SHL SUB SWAP2 ADD MLOAD AND SWAP4 PUSH1 0x40 MLOAD SWAP9 DUP10 SWAP9 DUP10 PUSH2 0x3291 JUMP JUMPDEST SUB SWAP1 LOG3 PUSH2 0x1798 JUMP JUMPDEST DUP1 SWAP2 SWAP3 SWAP5 POP PUSH2 0x1918 SWAP4 POP SWAP1 RETURNDATASIZE LT PUSH2 0x1612 JUMPI PUSH2 0x1600 DUP2 DUP4 PUSH2 0x27FD JUMP JUMPDEST SWAP3 SWAP1 POP DUP10 DUP1 PUSH2 0x16B2 JUMP JUMPDEST DUP1 MLOAD PUSH1 0xA DUP2 LT ISZERO PUSH2 0x3B6 JUMPI PUSH1 0x3 SUB PUSH2 0x1950 JUMPI POP POP SWAP1 POP PUSH2 0x1941 DUP2 PUSH2 0x3416 JUMP JUMPDEST SWAP1 DUP2 PUSH2 0x14DF PUSH1 0x3 PUSH2 0x1F7 PUSH2 0x27E5 JUMP JUMPDEST DUP1 MLOAD PUSH1 0xA DUP2 LT ISZERO PUSH2 0x3B6 JUMPI PUSH1 0x4 SUB PUSH2 0x197E JUMPI POP POP SWAP1 POP PUSH2 0x196F DUP2 PUSH2 0x371F JUMP JUMPDEST SWAP1 DUP2 PUSH2 0x14DF PUSH1 0x4 PUSH2 0x1F7 PUSH2 0x27E5 JUMP JUMPDEST DUP1 MLOAD PUSH1 0xA DUP2 LT ISZERO PUSH2 0x3B6 JUMPI PUSH1 0x5 SUB PUSH2 0x19AC JUMPI POP POP SWAP1 POP PUSH2 0x199D DUP2 PUSH2 0x398E JUMP JUMPDEST SWAP1 DUP2 PUSH2 0x14DF PUSH1 0x5 PUSH2 0x1F7 PUSH2 0x27E5 JUMP JUMPDEST DUP1 MLOAD PUSH1 0xA DUP2 LT ISZERO PUSH2 0x3B6 JUMPI PUSH1 0x6 SUB PUSH2 0x19DA JUMPI POP POP SWAP1 POP PUSH2 0x19CB DUP2 PUSH2 0x3D22 JUMP JUMPDEST SWAP1 DUP2 PUSH2 0x14DF PUSH1 0x6 PUSH2 0x1F7 PUSH2 0x27E5 JUMP JUMPDEST DUP1 MLOAD PUSH1 0xA DUP2 LT ISZERO PUSH2 0x3B6 JUMPI PUSH1 0x7 SUB PUSH2 0x1A08 JUMPI POP POP SWAP1 POP PUSH2 0x19F9 DUP2 PUSH2 0x40F0 JUMP JUMPDEST SWAP1 DUP2 PUSH2 0x14DF PUSH1 0x7 PUSH2 0x1F7 PUSH2 0x27E5 JUMP JUMPDEST DUP1 MLOAD PUSH1 0xA DUP2 LT ISZERO PUSH2 0x3B6 JUMPI PUSH1 0x8 SUB PUSH2 0x1A36 JUMPI POP POP SWAP1 POP PUSH2 0x1A27 DUP2 PUSH2 0x43D2 JUMP JUMPDEST SWAP1 DUP2 PUSH2 0x14DF PUSH1 0x8 PUSH2 0x1F7 PUSH2 0x27E5 JUMP JUMPDEST MLOAD PUSH1 0xA DUP2 LT ISZERO PUSH2 0x3B6 JUMPI PUSH1 0x9 EQ PUSH2 0x1A4E JUMPI JUMPDEST DUP1 PUSH2 0x12EC JUMP JUMPDEST POP DUP1 SWAP2 POP PUSH1 0x0 MSTORE PUSH2 0x267 PUSH1 0x20 MSTORE PUSH1 0x0 PUSH1 0x40 DUP2 KECCAK256 PUSH1 0x40 MLOAD SWAP1 PUSH2 0x1A71 PUSH2 0x100 DUP4 PUSH2 0x27FD JUMP JUMPDEST PUSH1 0x1 DUP1 PUSH1 0xA0 SHL SUB DUP2 SLOAD AND DUP3 MSTORE PUSH1 0x1 DUP1 PUSH1 0xA0 SHL SUB PUSH1 0x1 DUP3 ADD SLOAD AND PUSH1 0x20 DUP4 ADD MSTORE PUSH1 0x2 DUP2 ADD SLOAD PUSH1 0x40 DUP4 ADD MSTORE PUSH1 0x3 DUP2 ADD SLOAD PUSH1 0x60 DUP4 ADD MSTORE PUSH1 0x4 DUP2 ADD SLOAD PUSH1 0x80 DUP4 ADD MSTORE PUSH1 0x1 DUP1 PUSH1 0xA0 SHL SUB PUSH1 0x5 DUP3 ADD SLOAD AND PUSH1 0xA0 DUP4 ADD MSTORE PUSH1 0x1 DUP1 PUSH1 0xA0 SHL SUB PUSH1 0x6 DUP3 ADD SLOAD AND PUSH1 0xC0 DUP4 ADD MSTORE PUSH1 0x7 PUSH1 0x1 DUP1 PUSH1 0xA0 SHL SUB SWAP2 ADD SLOAD AND PUSH1 0xE0 DUP3 ADD MSTORE DUP3 DUP3 MSTORE PUSH2 0x267 PUSH1 0x20 MSTORE DUP2 PUSH1 0x7 PUSH1 0x40 DUP3 KECCAK256 DUP3 DUP2 SSTORE DUP3 PUSH1 0x1 DUP3 ADD SSTORE DUP3 PUSH1 0x2 DUP3 ADD SSTORE DUP3 PUSH1 0x3 DUP3 ADD SSTORE DUP3 PUSH1 0x4 DUP3 ADD SSTORE DUP3 PUSH1 0x5 DUP3 ADD SSTORE DUP3 PUSH1 0x6 DUP3 ADD SSTORE ADD SSTORE PUSH1 0xE0 PUSH1 0x1 DUP1 PUSH1 0xA0 SHL SUB PUSH2 0x25C SLOAD AND PUSH2 0x104 PUSH1 0x40 MLOAD DUP1 SWAP6 DUP2 SWAP4 PUSH4 0x391BF6CF DUP7 SHL DUP4 MSTORE PUSH1 0x1 DUP1 PUSH1 0xA0 SHL SUB DUP8 MLOAD AND PUSH1 0x4 DUP5 ADD MSTORE PUSH1 0x1 DUP1 PUSH1 0xA0 SHL SUB PUSH1 0x20 DUP9 ADD MLOAD AND PUSH1 0x24 DUP5 ADD MSTORE PUSH1 0x40 DUP8 ADD MLOAD PUSH1 0x44 DUP5 ADD MSTORE PUSH1 0x60 DUP8 ADD MLOAD PUSH1 0x64 DUP5 ADD MSTORE PUSH1 0x80 DUP8 ADD MLOAD PUSH1 0x84 DUP5 ADD MSTORE PUSH1 0x1 DUP1 PUSH1 0xA0 SHL SUB PUSH1 0xA0 DUP9 ADD MLOAD AND PUSH1 0xA4 DUP5 ADD MSTORE PUSH1 0x1 DUP1 PUSH1 0xA0 SHL SUB PUSH1 0xC0 DUP9 ADD MLOAD AND PUSH1 0xC4 DUP5 ADD MSTORE PUSH1 0x1 DUP1 PUSH1 0xA0 SHL SUB DUP7 DUP9 ADD MLOAD AND PUSH1 0xE4 DUP5 ADD MSTORE GAS CALL SWAP2 DUP3 PUSH1 0x0 SWAP2 PUSH1 0x0 SWAP5 PUSH2 0x1E73 JUMPI JUMPDEST POP PUSH2 0x1DBD JUMPI POP SWAP1 POP PUSH2 0x1BD0 PUSH2 0x2CA7 JUMP JUMPDEST PUSH2 0x1BD9 DUP2 PUSH2 0x31DF JUMP JUMPDEST SWAP1 PUSH1 0x1 PUSH1 0x1 PUSH1 0xE0 SHL SUB NOT DUP3 AND PUSH4 0xB63F1A7 PUSH1 0xE0 SHL DUP2 SUB PUSH2 0x1D28 JUMPI POP POP PUSH2 0x1C15 PUSH1 0x0 DUP1 MLOAD PUSH1 0x20 PUSH2 0x4A45 DUP4 CODECOPY DUP2 MLOAD SWAP2 MSTORE SWAP2 PUSH1 0x40 MLOAD SWAP2 DUP3 SWAP2 DUP7 DUP4 PUSH2 0x324C JUMP JUMPDEST SUB SWAP1 LOG1 JUMPDEST PUSH2 0x25C SLOAD PUSH1 0xA0 DUP3 ADD MLOAD DUP3 MLOAD PUSH1 0x40 DUP5 ADD MLOAD PUSH1 0x1 PUSH1 0x1 PUSH1 0xA0 SHL SUB SWAP2 DUP3 AND SWAP4 SWAP3 DUP3 AND SWAP3 SWAP1 SWAP2 AND DUP1 EXTCODESIZE ISZERO PUSH2 0x2D0 JUMPI PUSH1 0x40 MLOAD PUSH4 0xE2C5E99 PUSH1 0xE4 SHL DUP2 MSTORE PUSH1 0x1 PUSH1 0x1 PUSH1 0xA0 SHL SUB SWAP4 DUP5 AND PUSH1 0x4 DUP3 ADD MSTORE SWAP4 SWAP1 SWAP3 AND PUSH1 0x24 DUP5 ADD MSTORE PUSH1 0x44 DUP4 ADD MSTORE PUSH1 0x0 SWAP1 DUP3 SWAP1 PUSH1 0x64 SWAP1 DUP3 SWAP1 DUP5 SWAP1 GAS CALL DUP1 ISZERO PUSH2 0x14F7 JUMPI PUSH2 0x1D17 JUMPI JUMPDEST POP PUSH2 0x25C SLOAD PUSH1 0xA0 DUP3 ADD MLOAD PUSH1 0x80 SWAP1 SWAP3 ADD MLOAD PUSH1 0x1 PUSH1 0x1 PUSH1 0xA0 SHL SUB SWAP2 DUP3 AND SWAP3 SWAP1 SWAP2 AND SWAP1 DUP3 EXTCODESIZE ISZERO PUSH2 0x2D0 JUMPI PUSH1 0x40 MLOAD PUSH4 0x58F32DE9 PUSH1 0xE0 SHL DUP2 MSTORE PUSH1 0x1 PUSH1 0x1 PUSH1 0xA0 SHL SUB SWAP3 SWAP1 SWAP3 AND PUSH1 0x4 DUP4 ADD MSTORE PUSH1 0x24 DUP3 ADD MSTORE SWAP1 PUSH1 0x0 SWAP1 DUP3 SWAP1 PUSH1 0x44 SWAP1 DUP3 SWAP1 DUP5 SWAP1 GAS CALL DUP1 ISZERO PUSH2 0x14F7 JUMPI PUSH2 0x1D06 JUMPI JUMPDEST POP JUMPDEST PUSH1 0x1 SWAP1 DUP2 PUSH2 0x1CFE PUSH1 0x9 PUSH2 0x1F7 PUSH2 0x27E5 JUMP JUMPDEST SLOAD SWAP3 POP PUSH2 0x1A48 JUMP JUMPDEST PUSH1 0x0 PUSH2 0x1D11 SWAP2 PUSH2 0x27FD JUMP JUMPDEST DUP5 PUSH2 0x1CEB JUMP JUMPDEST PUSH1 0x0 PUSH2 0x1D22 SWAP2 PUSH2 0x27FD JUMP JUMPDEST DUP6 PUSH2 0x1C87 JUMP JUMPDEST PUSH4 0x272E3F59 PUSH1 0xE2 SHL DUP2 SUB PUSH2 0x1D60 JUMPI POP POP PUSH2 0x1D58 PUSH1 0x0 DUP1 MLOAD PUSH1 0x20 PUSH2 0x4A45 DUP4 CODECOPY DUP2 MLOAD SWAP2 MSTORE SWAP2 PUSH1 0x40 MLOAD SWAP2 DUP3 SWAP2 DUP7 DUP4 PUSH2 0x40A3 JUMP JUMPDEST SUB SWAP1 LOG1 PUSH2 0x1C19 JUMP JUMPDEST PUSH4 0x79121201 PUSH1 0xE0 SHL SUB PUSH2 0x1D8E JUMPI POP PUSH2 0x1D58 PUSH1 0x0 DUP1 MLOAD PUSH1 0x20 PUSH2 0x4A45 DUP4 CODECOPY DUP2 MLOAD SWAP2 MSTORE SWAP2 PUSH1 0x40 MLOAD SWAP2 DUP3 SWAP2 DUP7 DUP4 PUSH2 0x3210 JUMP JUMPDEST PUSH1 0x0 DUP1 MLOAD PUSH1 0x20 PUSH2 0x4A65 DUP4 CODECOPY DUP2 MLOAD SWAP2 MSTORE SWAP2 POP PUSH2 0x1D58 SWAP1 PUSH1 0x40 MLOAD SWAP2 DUP3 SWAP2 DUP7 DUP4 MSTORE PUSH1 0x40 PUSH1 0x20 DUP5 ADD MSTORE PUSH1 0x40 DUP4 ADD SWAP1 PUSH2 0x2D97 JUMP JUMPDEST PUSH32 0xF86F4487D2C5541B78F06D2368E28E0F4052E182124DEF54D5855BF2A01D3258 PUSH2 0x120 PUSH1 0x1 DUP1 PUSH1 0xA0 SHL SUB DUP5 MLOAD AND SWAP3 PUSH1 0x1 DUP1 PUSH1 0xA0 SHL SUB PUSH1 0x20 DUP7 ADD MLOAD AND SWAP1 PUSH1 0x1 DUP1 PUSH1 0xA0 SHL SUB PUSH1 0xA0 DUP8 ADD MLOAD AND SWAP6 PUSH1 0x1 DUP1 PUSH1 0xA0 SHL SUB PUSH1 0xC0 DUP3 ADD MLOAD AND SWAP8 PUSH1 0x40 DUP3 ADD MLOAD SWAP3 DUP2 MLOAD PUSH1 0x20 DUP4 ADD MLOAD SWAP2 PUSH1 0x60 PUSH1 0x40 DUP6 ADD MLOAD SWAP5 ADD MLOAD SWAP5 PUSH1 0xE0 PUSH1 0x1 DUP1 PUSH1 0xA0 SHL SUB SWAP2 ADD MLOAD AND SWAP6 PUSH1 0x40 MLOAD SWAP8 DUP9 MSTORE PUSH1 0x20 DUP9 ADD MSTORE PUSH1 0x40 DUP8 ADD MSTORE PUSH1 0x60 DUP7 ADD MSTORE PUSH1 0x80 DUP6 ADD MSTORE PUSH1 0xA0 DUP5 ADD MSTORE PUSH1 0xC0 DUP4 ADD MSTORE PUSH1 0xE0 DUP3 ADD MSTORE DUP7 PUSH2 0x100 DUP3 ADD MSTORE LOG4 PUSH2 0x1CED JUMP JUMPDEST SWAP1 SWAP4 POP PUSH2 0x1E98 SWAP2 POP PUSH1 0xE0 RETURNDATASIZE PUSH1 0xE0 GT PUSH2 0x1EA3 JUMPI JUMPDEST PUSH2 0x1E90 DUP2 DUP4 PUSH2 0x27FD JUMP JUMPDEST DUP2 ADD SWAP1 PUSH2 0x396A JUMP JUMPDEST SWAP3 POP POP SWAP1 SWAP3 DUP9 PUSH2 0x1BC0 JUMP JUMPDEST POP RETURNDATASIZE PUSH2 0x1E86 JUMP JUMPDEST SWAP1 POP SWAP1 SWAP3 SWAP2 SWAP3 PUSH2 0x1244 JUMP JUMPDEST PUSH1 0x40 MLOAD PUSH3 0x461BCD PUSH1 0xE5 SHL DUP2 MSTORE PUSH1 0x20 PUSH1 0x4 DUP3 ADD MSTORE PUSH1 0x1F PUSH1 0x24 DUP3 ADD MSTORE PUSH32 0x5265656E7472616E637947756172643A207265656E7472616E742063616C6C00 PUSH1 0x44 DUP3 ADD MSTORE PUSH1 0x64 SWAP1 REVERT JUMPDEST CALLVALUE PUSH2 0x2D0 JUMPI PUSH1 0x20 CALLDATASIZE PUSH1 0x3 NOT ADD SLT PUSH2 0x2D0 JUMPI PUSH1 0x4 CALLDATALOAD PUSH1 0xA DUP2 LT ISZERO PUSH2 0x2D0 JUMPI PUSH2 0x1F25 PUSH1 0x20 SWAP2 PUSH2 0x1F7 PUSH2 0x27E5 JUMP JUMPDEST SLOAD PUSH1 0x40 MLOAD SWAP1 DUP2 MSTORE RETURN JUMPDEST CALLVALUE PUSH2 0x2D0 JUMPI PUSH2 0x120 CALLDATASIZE PUSH1 0x3 NOT ADD SLT PUSH2 0x2D0 JUMPI PUSH2 0x1F48 PUSH2 0x2DD4 JUMP JUMPDEST PUSH2 0x25E SLOAD PUSH2 0x25D SLOAD SUB PUSH2 0x1F5F JUMPI PUSH2 0x830 PUSH1 0x4 PUSH2 0x48F0 JUMP JUMPDEST PUSH1 0x40 MLOAD PUSH4 0x15996EAB PUSH1 0xE0 SHL DUP2 MSTORE PUSH1 0x4 SWAP1 REVERT JUMPDEST PUSH1 0xC0 CALLDATASIZE PUSH1 0x3 NOT ADD SLT PUSH2 0x2D0 JUMPI PUSH2 0x1F85 PUSH2 0x2E57 JUMP JUMPDEST PUSH2 0x1F9C PUSH1 0x0 DUP1 MLOAD PUSH1 0x20 PUSH2 0x4AA5 DUP4 CODECOPY DUP2 MLOAD SWAP2 MSTORE PUSH2 0x2ED8 JUMP JUMPDEST PUSH2 0x1FAC PUSH2 0x310 PUSH1 0x5 PUSH2 0x1F7 PUSH2 0x27E5 JUMP JUMPDEST PUSH2 0x25D DUP1 SLOAD PUSH1 0x40 MLOAD SWAP2 PUSH2 0x1FC0 PUSH1 0x40 DUP5 PUSH2 0x27FD JUMP JUMPDEST PUSH1 0x5 DUP4 MSTORE PUSH1 0x20 DUP4 ADD SWAP3 PUSH1 0x1 DUP1 PUSH1 0xF8 SHL SUB NUMBER AND DUP5 MSTORE DUP3 PUSH1 0x0 MSTORE PUSH2 0x268 PUSH1 0x20 MSTORE PUSH1 0x40 PUSH1 0x0 KECCAK256 SWAP1 MLOAD PUSH1 0xA DUP2 LT ISZERO PUSH2 0x3B6 JUMPI PUSH1 0xFF PUSH1 0x20 SWAP6 DUP2 NOT SWAP1 MLOAD PUSH1 0x8 SHL AND SWAP2 AND OR SWAP1 SSTORE DUP2 PUSH1 0x0 MSTORE PUSH2 0x263 DUP4 MSTORE PUSH2 0x2018 PUSH1 0x4 PUSH1 0x40 PUSH1 0x0 KECCAK256 PUSH2 0x471E JUMP JUMPDEST PUSH1 0x40 MLOAD DUP3 DUP2 MSTORE PUSH1 0x5 DUP5 DUP3 ADD MSTORE PUSH1 0x0 DUP1 MLOAD PUSH1 0x20 PUSH2 0x4A85 DUP4 CODECOPY DUP2 MLOAD SWAP2 MSTORE PUSH1 0x40 CALLER SWAP3 LOG2 PUSH2 0x3AC DUP2 SLOAD PUSH2 0x470F JUMP JUMPDEST CALLVALUE PUSH2 0x2D0 JUMPI PUSH1 0x20 CALLDATASIZE PUSH1 0x3 NOT ADD SLT PUSH2 0x2D0 JUMPI PUSH1 0x4 CALLDATALOAD PUSH1 0x0 MSTORE PUSH2 0x267 PUSH1 0x20 MSTORE PUSH2 0x100 PUSH1 0x40 PUSH1 0x0 KECCAK256 PUSH1 0x1 DUP1 PUSH1 0xA0 SHL SUB DUP1 DUP3 SLOAD AND SWAP2 DUP2 PUSH1 0x1 DUP3 ADD SLOAD AND SWAP2 PUSH1 0x2 DUP3 ADD SLOAD PUSH1 0x3 DUP4 ADD SLOAD PUSH1 0x4 DUP5 ADD SLOAD SWAP2 DUP4 PUSH1 0x5 DUP7 ADD SLOAD AND SWAP4 PUSH1 0x7 DUP2 PUSH1 0x6 DUP9 ADD SLOAD AND SWAP7 ADD SLOAD AND SWAP6 PUSH1 0x40 MLOAD SWAP8 DUP9 MSTORE PUSH1 0x20 DUP9 ADD MSTORE PUSH1 0x40 DUP8 ADD MSTORE PUSH1 0x60 DUP7 ADD MSTORE PUSH1 0x80 DUP6 ADD MSTORE PUSH1 0xA0 DUP5 ADD MSTORE PUSH1 0xC0 DUP4 ADD MSTORE PUSH1 0xE0 DUP3 ADD MSTORE RETURN JUMPDEST CALLVALUE PUSH2 0x2D0 JUMPI PUSH1 0x0 CALLDATASIZE PUSH1 0x3 NOT ADD SLT PUSH2 0x2D0 JUMPI PUSH1 0xCA SLOAD PUSH1 0xFF DUP2 PUSH1 0x8 SHR AND ISZERO PUSH2 0x2134 JUMPI PUSH1 0x10 DUP2 SWAP1 SHR PUSH1 0x1 PUSH1 0x1 PUSH1 0xA0 SHL SUB AND CALLER SUB PUSH2 0xC39 JUMPI PUSH2 0xFF00 NOT AND PUSH1 0xCA SSTORE PUSH32 0x5DB9EE0A495BF2E6FF9C91A7834C1BA4FDD244A5E8AA4E537BD38AEAE4B073AA PUSH1 0x20 PUSH1 0x40 MLOAD CALLER DUP2 MSTORE LOG1 STOP JUMPDEST PUSH1 0x40 MLOAD PUSH4 0x7C7FD079 PUSH1 0xE0 SHL DUP2 MSTORE PUSH1 0x4 SWAP1 REVERT JUMPDEST CALLVALUE PUSH2 0x2D0 JUMPI PUSH1 0x0 CALLDATASIZE PUSH1 0x3 NOT ADD SLT PUSH2 0x2D0 JUMPI PUSH1 0x20 PUSH2 0x2161 PUSH2 0x47FF JUMP JUMPDEST PUSH1 0x40 MLOAD SWAP1 ISZERO ISZERO DUP2 MSTORE RETURN JUMPDEST CALLVALUE PUSH2 0x2D0 JUMPI PUSH1 0x20 CALLDATASIZE PUSH1 0x3 NOT ADD SLT PUSH2 0x2D0 JUMPI PUSH1 0x4 CALLDATALOAD PUSH1 0x1 PUSH1 0x1 PUSH1 0x80 SHL SUB DUP2 AND DUP1 SWAP2 SUB PUSH2 0x2D0 JUMPI PUSH2 0x2198 PUSH2 0x2DD4 JUMP JUMPDEST PUSH2 0x269 DUP1 SLOAD PUSH1 0x1 PUSH1 0x1 PUSH1 0x80 SHL SUB NOT AND SWAP1 SWAP2 OR SWAP1 SSTORE STOP JUMPDEST CALLVALUE PUSH2 0x2D0 JUMPI PUSH1 0x20 CALLDATASIZE PUSH1 0x3 NOT ADD SLT PUSH2 0x2D0 JUMPI PUSH1 0x4 CALLDATALOAD PUSH1 0x1 PUSH1 0x1 PUSH1 0xA0 SHL SUB DUP1 DUP3 AND DUP3 SUB PUSH2 0x2D0 JUMPI PUSH2 0x830 SWAP2 PUSH2 0x220D DUP3 PUSH1 0x0 SWAP4 PUSH32 0x0 AND SWAP1 PUSH2 0x1183 DUP3 ADDRESS EQ ISZERO PUSH2 0x290A JUMP JUMPDEST PUSH2 0x2215 PUSH2 0x2DD4 JUMP JUMPDEST PUSH2 0x221E DUP3 PUSH2 0x2835 JUMP JUMPDEST SWAP1 PUSH2 0x222C PUSH1 0x40 MLOAD SWAP3 DUP4 PUSH2 0x27FD JUMP JUMPDEST DUP3 DUP3 MSTORE PUSH1 0x1F NOT PUSH2 0x223B DUP5 PUSH2 0x2835 JUMP JUMPDEST ADD CALLDATASIZE PUSH1 0x20 DUP5 ADD CALLDATACOPY PUSH2 0x29CC JUMP JUMPDEST CALLVALUE PUSH2 0x2D0 JUMPI PUSH1 0x40 CALLDATASIZE PUSH1 0x3 NOT ADD SLT PUSH2 0x2D0 JUMPI PUSH1 0x24 CALLDATALOAD PUSH1 0x1 PUSH1 0x1 PUSH1 0xA0 SHL SUB DUP2 AND DUP1 DUP3 SUB PUSH2 0x2D0 JUMPI CALLER SUB PUSH2 0x227E JUMPI PUSH2 0x830 SWAP1 PUSH1 0x4 CALLDATALOAD PUSH2 0x288B JUMP JUMPDEST PUSH1 0x40 MLOAD PUSH3 0x461BCD PUSH1 0xE5 SHL DUP2 MSTORE PUSH1 0x20 PUSH1 0x4 DUP3 ADD MSTORE PUSH1 0x2F PUSH1 0x24 DUP3 ADD MSTORE PUSH32 0x416363657373436F6E74726F6C3A2063616E206F6E6C792072656E6F756E6365 PUSH1 0x44 DUP3 ADD MSTORE PUSH15 0x103937B632B9903337B91039B2B633 PUSH1 0x89 SHL PUSH1 0x64 DUP3 ADD MSTORE PUSH1 0x84 SWAP1 REVERT JUMPDEST PUSH2 0x100 CALLDATASIZE PUSH1 0x3 NOT ADD SLT PUSH2 0x2D0 JUMPI PUSH2 0x22F0 PUSH2 0x2E57 JUMP JUMPDEST PUSH2 0x2307 PUSH1 0x0 DUP1 MLOAD PUSH1 0x20 PUSH2 0x4AA5 DUP4 CODECOPY DUP2 MLOAD SWAP2 MSTORE PUSH2 0x2ED8 JUMP JUMPDEST PUSH2 0x2317 PUSH2 0x310 PUSH1 0x9 PUSH2 0x1F7 PUSH2 0x27E5 JUMP JUMPDEST PUSH2 0x25D DUP1 SLOAD PUSH1 0x40 MLOAD PUSH2 0x232A PUSH1 0x40 DUP3 PUSH2 0x27FD JUMP JUMPDEST PUSH1 0x9 DUP2 MSTORE PUSH1 0x20 DUP2 ADD PUSH1 0x1 DUP1 PUSH1 0xF8 SHL SUB NUMBER AND DUP2 MSTORE DUP3 PUSH1 0x0 MSTORE PUSH2 0x268 PUSH1 0x20 MSTORE PUSH1 0x40 PUSH1 0x0 KECCAK256 SWAP2 MLOAD SWAP1 PUSH1 0xA DUP3 LT ISZERO PUSH2 0x3B6 JUMPI MLOAD PUSH1 0xFF SWAP2 SWAP1 SWAP2 AND PUSH1 0x8 SWAP2 SWAP1 SWAP2 SHL PUSH1 0xFF NOT AND OR SWAP1 SSTORE PUSH1 0x0 DUP2 DUP2 MSTORE PUSH2 0x267 PUSH1 0x20 MSTORE PUSH1 0x40 SWAP1 KECCAK256 PUSH1 0x1 PUSH1 0x1 PUSH1 0xA0 SHL SUB PUSH1 0x4 CALLDATALOAD DUP2 DUP2 AND SWAP5 SWAP3 SWAP1 DUP6 SWAP1 SUB PUSH2 0x2D0 JUMPI PUSH1 0x1 PUSH1 0x1 PUSH1 0x60 SHL SUB PUSH1 0xA0 SHL SWAP5 DUP6 DUP3 SLOAD AND OR DUP2 SSTORE PUSH1 0x1 DUP2 ADD PUSH1 0x24 CALLDATALOAD DUP4 DUP2 AND DUP1 SWAP2 SUB PUSH2 0x2D0 JUMPI DUP7 DUP3 SLOAD AND OR SWAP1 SSTORE PUSH1 0x44 CALLDATALOAD PUSH1 0x2 DUP3 ADD SSTORE PUSH1 0x64 CALLDATALOAD PUSH1 0x3 DUP3 ADD SSTORE PUSH1 0x84 CALLDATALOAD PUSH1 0x4 DUP3 ADD SSTORE PUSH1 0x5 DUP2 ADD PUSH1 0xA4 CALLDATALOAD DUP4 DUP2 AND DUP1 SWAP2 SUB PUSH2 0x2D0 JUMPI DUP7 DUP3 SLOAD AND OR SWAP1 SSTORE PUSH1 0x6 DUP2 ADD SWAP1 PUSH1 0xC4 CALLDATALOAD SWAP2 DUP4 DUP4 AND DUP1 SWAP4 SUB PUSH2 0x2D0 JUMPI PUSH1 0x7 SWAP3 DUP8 DUP3 SLOAD AND OR SWAP1 SSTORE ADD SWAP1 PUSH1 0xE4 CALLDATALOAD SWAP1 DUP2 AND DUP1 SWAP2 SUB PUSH2 0x2D0 JUMPI PUSH1 0x20 SWAP5 DUP3 SLOAD AND OR SWAP1 SSTORE PUSH1 0x40 MLOAD DUP3 DUP2 MSTORE PUSH1 0x9 DUP5 DUP3 ADD MSTORE PUSH1 0x0 DUP1 MLOAD PUSH1 0x20 PUSH2 0x4A85 DUP4 CODECOPY DUP2 MLOAD SWAP2 MSTORE PUSH1 0x40 CALLER SWAP3 LOG2 PUSH2 0x3AC DUP2 SLOAD PUSH2 0x470F JUMP JUMPDEST CALLVALUE PUSH2 0x2D0 JUMPI PUSH1 0x40 CALLDATASIZE PUSH1 0x3 NOT ADD SLT PUSH2 0x2D0 JUMPI PUSH1 0x4 CALLDATALOAD PUSH1 0x24 CALLDATALOAD PUSH1 0x1 PUSH1 0x1 PUSH1 0xA0 SHL SUB DUP2 AND DUP2 SUB PUSH2 0x2D0 JUMPI DUP2 PUSH2 0x2481 PUSH2 0x830 SWAP4 PUSH2 0x498C JUMP JUMPDEST PUSH2 0x4864 JUMP JUMPDEST CALLVALUE PUSH2 0x2D0 JUMPI PUSH1 0x20 CALLDATASIZE PUSH1 0x3 NOT ADD SLT PUSH2 0x2D0 JUMPI PUSH1 0x4 CALLDATALOAD PUSH1 0x1 PUSH1 0x1 PUSH1 0xA0 SHL SUB DUP2 AND DUP2 SUB PUSH2 0x2D0 JUMPI PUSH2 0x24B2 PUSH2 0x2DD4 JUMP JUMPDEST PUSH1 0xCA DUP1 SLOAD PUSH3 0x10000 PUSH1 0x1 PUSH1 0xB0 SHL SUB NOT AND PUSH1 0x10 SWAP3 SWAP1 SWAP3 SHL PUSH3 0x10000 PUSH1 0x1 PUSH1 0xB0 SHL SUB AND SWAP2 SWAP1 SWAP2 OR SWAP1 SSTORE STOP JUMPDEST CALLVALUE PUSH2 0x2D0 JUMPI PUSH1 0x0 CALLDATASIZE PUSH1 0x3 NOT ADD SLT PUSH2 0x2D0 JUMPI PUSH1 0x20 PUSH2 0x25E SLOAD PUSH1 0x40 MLOAD SWAP1 DUP2 MSTORE RETURN JUMPDEST CALLVALUE PUSH2 0x2D0 JUMPI PUSH1 0x20 CALLDATASIZE PUSH1 0x3 NOT ADD SLT PUSH2 0x2D0 JUMPI PUSH1 0x4 CALLDATALOAD PUSH1 0x0 MSTORE PUSH2 0x193 PUSH1 0x20 MSTORE PUSH1 0x20 PUSH1 0x1 PUSH1 0x40 PUSH1 0x0 KECCAK256 ADD SLOAD PUSH1 0x40 MLOAD SWAP1 DUP2 MSTORE RETURN JUMPDEST CALLVALUE PUSH2 0x2D0 JUMPI PUSH1 0x40 CALLDATASIZE PUSH1 0x3 NOT ADD SLT PUSH2 0x2D0 JUMPI PUSH1 0x4 CALLDATALOAD PUSH1 0xA DUP2 LT ISZERO PUSH2 0x2D0 JUMPI PUSH2 0x2553 SWAP1 PUSH2 0x1F7 PUSH2 0x27E5 JUMP JUMPDEST SLOAD PUSH1 0x24 CALLDATALOAD DUP2 GT PUSH2 0x2568 JUMPI PUSH1 0x20 SWAP1 PUSH1 0x40 MLOAD SWAP1 DUP2 MSTORE RETURN JUMPDEST PUSH1 0x24 SWAP1 PUSH1 0x40 MLOAD SWAP1 PUSH4 0x49E6F69 PUSH1 0xE4 SHL DUP3 MSTORE PUSH1 0x4 DUP3 ADD MSTORE REVERT JUMPDEST CALLVALUE PUSH2 0x2D0 JUMPI PUSH1 0x20 CALLDATASIZE PUSH1 0x3 NOT ADD SLT PUSH2 0x2D0 JUMPI PUSH1 0x4 DUP1 CALLDATALOAD PUSH1 0x0 SWAP1 DUP2 MSTORE PUSH2 0x25F PUSH1 0x20 SWAP1 DUP2 MSTORE PUSH1 0x40 SWAP2 DUP3 SWAP1 KECCAK256 DUP1 SLOAD PUSH1 0x1 DUP3 ADD SLOAD PUSH1 0x2 DUP4 ADD SLOAD PUSH1 0x3 DUP5 ADD SLOAD SWAP4 SWAP1 SWAP7 ADD SLOAD DUP6 MLOAD SWAP3 DUP4 MSTORE SWAP4 DUP3 ADD MSTORE PUSH1 0x1 PUSH1 0x1 PUSH1 0xA0 SHL SUB SWAP5 DUP6 AND SWAP4 DUP2 ADD SWAP4 SWAP1 SWAP4 MSTORE DUP4 AND PUSH1 0x60 DUP4 ADD MSTORE SWAP2 SWAP1 SWAP2 AND PUSH1 0x80 DUP3 ADD MSTORE PUSH1 0xA0 SWAP1 RETURN JUMPDEST CALLVALUE PUSH2 0x2D0 JUMPI PUSH1 0x20 CALLDATASIZE PUSH1 0x3 NOT ADD SLT PUSH2 0x2D0 JUMPI PUSH1 0x4 CALLDATALOAD PUSH1 0x0 MSTORE PUSH2 0x265 PUSH1 0x20 MSTORE PUSH1 0x40 PUSH1 0x0 KECCAK256 PUSH1 0x1 DUP1 PUSH1 0xA0 SHL SUB PUSH2 0x2CC DUP2 DUP4 SLOAD AND SWAP2 PUSH1 0x1 DUP5 ADD SLOAD SWAP4 PUSH1 0x2 DUP2 ADD SLOAD SWAP2 PUSH1 0x3 DUP3 ADD SLOAD DUP2 PUSH1 0x4 DUP5 ADD SLOAD AND SWAP2 PUSH1 0x6 DUP2 PUSH1 0x5 DUP7 ADD SLOAD AND SWAP5 ADD SLOAD AND SWAP4 PUSH1 0x40 MLOAD SWAP8 DUP9 SWAP8 DUP9 PUSH2 0x27A2 JUMP JUMPDEST CALLVALUE PUSH2 0x2D0 JUMPI PUSH1 0x0 CALLDATASIZE PUSH1 0x3 NOT ADD SLT PUSH2 0x2D0 JUMPI PUSH1 0x97 SLOAD PUSH1 0x40 MLOAD PUSH1 0x1 PUSH1 0x1 PUSH1 0xA0 SHL SUB SWAP1 SWAP2 AND DUP2 MSTORE PUSH1 0x20 SWAP1 RETURN JUMPDEST CALLVALUE PUSH2 0x2D0 JUMPI PUSH1 0x20 CALLDATASIZE PUSH1 0x3 NOT ADD SLT PUSH2 0x2D0 JUMPI PUSH1 0x4 CALLDATALOAD PUSH4 0xFFFFFFFF PUSH1 0xE0 SHL DUP2 AND DUP1 SWAP2 SUB PUSH2 0x2D0 JUMPI PUSH1 0x20 SWAP1 PUSH4 0x7965DB0B PUSH1 0xE0 SHL DUP2 EQ SWAP1 DUP2 ISZERO PUSH2 0x26C0 JUMPI JUMPDEST POP PUSH1 0x40 MLOAD SWAP1 ISZERO ISZERO DUP2 MSTORE RETURN JUMPDEST PUSH4 0x1FFC9A7 PUSH1 0xE0 SHL EQ SWAP1 POP DUP3 PUSH2 0x26B5 JUMP JUMPDEST PUSH1 0xE0 CALLDATASIZE PUSH1 0x3 NOT ADD SLT PUSH2 0x2D0 JUMPI PUSH2 0x26E5 PUSH2 0x2E57 JUMP JUMPDEST PUSH2 0x26FC PUSH1 0x0 DUP1 MLOAD PUSH1 0x20 PUSH2 0x4AA5 DUP4 CODECOPY DUP2 MLOAD SWAP2 MSTORE PUSH2 0x2ED8 JUMP JUMPDEST PUSH2 0x270C PUSH2 0x310 PUSH1 0x8 PUSH2 0x1F7 PUSH2 0x27E5 JUMP JUMPDEST PUSH2 0x25D DUP1 SLOAD PUSH1 0x40 MLOAD SWAP2 PUSH2 0x2720 PUSH1 0x40 DUP5 PUSH2 0x27FD JUMP JUMPDEST PUSH1 0x8 DUP4 MSTORE PUSH1 0x20 DUP4 ADD SWAP3 PUSH1 0x1 DUP1 PUSH1 0xF8 SHL SUB NUMBER AND DUP5 MSTORE DUP3 PUSH1 0x0 MSTORE PUSH2 0x268 PUSH1 0x20 MSTORE PUSH1 0x40 PUSH1 0x0 KECCAK256 SWAP1 MLOAD PUSH1 0xA DUP2 LT ISZERO PUSH2 0x3B6 JUMPI PUSH1 0xFF PUSH1 0x20 SWAP6 DUP2 NOT SWAP1 MLOAD PUSH1 0x8 SHL AND SWAP2 AND OR SWAP1 SSTORE DUP2 PUSH1 0x0 MSTORE PUSH2 0x266 DUP4 MSTORE PUSH2 0x2778 PUSH1 0x4 PUSH1 0x40 PUSH1 0x0 KECCAK256 PUSH2 0x4789 JUMP JUMPDEST PUSH1 0x40 MLOAD DUP3 DUP2 MSTORE PUSH1 0x8 DUP5 DUP3 ADD MSTORE PUSH1 0x0 DUP1 MLOAD PUSH1 0x20 PUSH2 0x4A85 DUP4 CODECOPY DUP2 MLOAD SWAP2 MSTORE PUSH1 0x40 CALLER SWAP3 LOG2 PUSH2 0x3AC DUP2 SLOAD PUSH2 0x470F JUMP JUMPDEST PUSH1 0x1 PUSH1 0x1 PUSH1 0xA0 SHL SUB SWAP2 DUP3 AND DUP2 MSTORE PUSH1 0x20 DUP2 ADD SWAP3 SWAP1 SWAP3 MSTORE PUSH1 0x40 DUP3 ADD SWAP3 SWAP1 SWAP3 MSTORE PUSH1 0x60 DUP2 ADD SWAP3 SWAP1 SWAP3 MSTORE SWAP2 DUP3 AND PUSH1 0x80 DUP3 ADD MSTORE SWAP2 DUP2 AND PUSH1 0xA0 DUP4 ADD MSTORE SWAP1 SWAP2 AND PUSH1 0xC0 DUP3 ADD MSTORE PUSH1 0xE0 ADD SWAP1 JUMP JUMPDEST SWAP1 PUSH1 0xA DUP2 LT ISZERO PUSH2 0x3B6 JUMPI PUSH1 0x0 MSTORE PUSH1 0x20 MSTORE PUSH1 0x40 PUSH1 0x0 KECCAK256 SWAP1 JUMP JUMPDEST SWAP1 PUSH1 0x1F DUP1 NOT SWAP2 ADD AND DUP2 ADD SWAP1 DUP2 LT PUSH8 0xFFFFFFFFFFFFFFFF DUP3 GT OR PUSH2 0x281F JUMPI PUSH1 0x40 MSTORE JUMP JUMPDEST PUSH4 0x4E487B71 PUSH1 0xE0 SHL PUSH1 0x0 MSTORE PUSH1 0x41 PUSH1 0x4 MSTORE PUSH1 0x24 PUSH1 0x0 REVERT JUMPDEST PUSH8 0xFFFFFFFFFFFFFFFF DUP2 GT PUSH2 0x281F JUMPI PUSH1 0x1F ADD PUSH1 0x1F NOT AND PUSH1 0x20 ADD SWAP1 JUMP JUMPDEST PUSH1 0x1 PUSH1 0x1 PUSH1 0xA0 SHL SUB SWAP2 DUP3 AND DUP2 MSTORE PUSH1 0x20 DUP2 ADD SWAP3 SWAP1 SWAP3 MSTORE PUSH1 0x40 DUP3 ADD SWAP3 SWAP1 SWAP3 MSTORE SWAP2 DUP2 AND PUSH1 0x60 DUP4 ADD MSTORE SWAP2 DUP3 AND PUSH1 0x80 DUP3 ADD MSTORE SWAP2 AND PUSH1 0xA0 DUP3 ADD MSTORE PUSH1 0xC0 ADD SWAP1 JUMP JUMPDEST SWAP1 PUSH1 0x0 SWAP2 DUP1 DUP4 MSTORE PUSH2 0x193 DUP1 PUSH1 0x20 MSTORE PUSH1 0x40 DUP5 KECCAK256 SWAP3 PUSH1 0x1 DUP1 PUSH1 0xA0 SHL SUB AND SWAP3 DUP4 DUP6 MSTORE PUSH1 0x20 MSTORE PUSH1 0xFF PUSH1 0x40 DUP6 KECCAK256 SLOAD AND PUSH2 0x28C0 JUMPI JUMPDEST POP POP POP POP JUMP JUMPDEST DUP2 DUP5 MSTORE PUSH1 0x20 MSTORE PUSH1 0x40 DUP4 KECCAK256 DUP3 DUP5 MSTORE PUSH1 0x20 MSTORE PUSH1 0x40 DUP4 KECCAK256 PUSH1 0xFF NOT DUP2 SLOAD AND SWAP1 SSTORE PUSH32 0xF6391F5C32D9C69D2A47EA670B442974B53935D1EDC7FD64EB21E047A839171B CALLER SWAP4 DUP1 LOG4 CODESIZE DUP1 DUP1 DUP1 PUSH2 0x28BA JUMP JUMPDEST ISZERO PUSH2 0x2911 JUMPI JUMP JUMPDEST PUSH1 0x40 MLOAD PUSH3 0x461BCD PUSH1 0xE5 SHL DUP2 MSTORE PUSH1 0x20 PUSH1 0x4 DUP3 ADD MSTORE PUSH1 0x2C PUSH1 0x24 DUP3 ADD MSTORE PUSH32 0x46756E6374696F6E206D7573742062652063616C6C6564207468726F75676820 PUSH1 0x44 DUP3 ADD MSTORE PUSH12 0x19195B1959D85D1958D85B1B PUSH1 0xA2 SHL PUSH1 0x64 DUP3 ADD MSTORE PUSH1 0x84 SWAP1 REVERT JUMPDEST ISZERO PUSH2 0x2972 JUMPI JUMP JUMPDEST PUSH1 0x40 MLOAD PUSH3 0x461BCD PUSH1 0xE5 SHL DUP2 MSTORE PUSH1 0x20 PUSH1 0x4 DUP3 ADD MSTORE PUSH1 0x2C PUSH1 0x24 DUP3 ADD MSTORE PUSH32 0x46756E6374696F6E206D7573742062652063616C6C6564207468726F75676820 PUSH1 0x44 DUP3 ADD MSTORE PUSH12 0x6163746976652070726F7879 PUSH1 0xA0 SHL PUSH1 0x64 DUP3 ADD MSTORE PUSH1 0x84 SWAP1 REVERT JUMPDEST SWAP1 PUSH1 0xFF PUSH32 0x4910FDFA16FED3260ED0E7147F7CC6DA11A60208B5B9406D12A635614FFD9143 SLOAD AND PUSH1 0x0 EQ PUSH2 0x2A06 JUMPI POP PUSH2 0x2A04 SWAP2 POP PUSH2 0x2C05 JUMP JUMPDEST JUMP JUMPDEST PUSH1 0x40 MLOAD PUSH4 0x52D1902D PUSH1 0xE0 SHL DUP2 MSTORE PUSH1 0x20 SWAP4 SWAP2 SWAP3 SWAP2 SWAP1 PUSH1 0x1 PUSH1 0x1 PUSH1 0xA0 SHL SUB DUP4 AND SWAP1 DUP6 DUP2 PUSH1 0x4 DUP2 DUP6 GAS STATICCALL PUSH1 0x0 SWAP2 DUP2 PUSH2 0x2BD3 JUMPI JUMPDEST POP PUSH2 0x2A97 JUMPI PUSH1 0x40 MLOAD PUSH3 0x461BCD PUSH1 0xE5 SHL DUP2 MSTORE PUSH1 0x4 DUP2 ADD DUP8 SWAP1 MSTORE PUSH1 0x2E PUSH1 0x24 DUP3 ADD MSTORE PUSH32 0x45524331393637557067726164653A206E657720696D706C656D656E74617469 PUSH1 0x44 DUP3 ADD MSTORE PUSH14 0x6F6E206973206E6F742055555053 PUSH1 0x90 SHL PUSH1 0x64 DUP3 ADD MSTORE PUSH1 0x84 SWAP1 REVERT JUMPDEST SWAP4 SWAP5 SWAP4 PUSH32 0xC9F76B5EC45E5CDEF99837D7B6D2467235C1DF8933C8CA56DF5C35AFA2C7D444 ADD PUSH2 0x2B7C JUMPI PUSH2 0x2AC9 DUP4 PUSH2 0x2C05 JUMP JUMPDEST PUSH32 0xBC7CD75A20EE27FD9ADEBAB32041F755214DBC6BFFA90CC0225B39DA2E5C2D3B PUSH1 0x0 DUP1 LOG2 DUP4 MLOAD ISZERO SWAP1 DUP2 ISZERO SWAP2 PUSH2 0x2B74 JUMPI JUMPDEST POP PUSH2 0x2B04 JUMPI POP POP POP JUMP JUMPDEST PUSH1 0x0 DUP1 PUSH2 0x2B71 SWAP5 PUSH2 0x2B15 PUSH1 0x27 PUSH2 0x2835 JUMP JUMPDEST SWAP5 PUSH2 0x2B23 PUSH1 0x40 MLOAD SWAP7 DUP8 PUSH2 0x27FD JUMP JUMPDEST PUSH1 0x27 DUP7 MSTORE PUSH32 0x416464726573733A206C6F772D6C6576656C2064656C65676174652063616C6C DUP2 DUP8 ADD MSTORE PUSH7 0x819985A5B1959 PUSH1 0xCA SHL PUSH1 0x40 DUP8 ADD MSTORE DUP2 MLOAD SWAP2 ADD DUP5 GAS DELEGATECALL PUSH2 0x2B6B PUSH2 0x2CA7 JUMP JUMPDEST SWAP2 PUSH2 0x2CD7 JUMP JUMPDEST POP JUMP JUMPDEST SWAP1 POP CODESIZE PUSH2 0x2AFA JUMP JUMPDEST PUSH1 0x40 MLOAD PUSH3 0x461BCD PUSH1 0xE5 SHL DUP2 MSTORE PUSH1 0x4 DUP2 ADD DUP6 SWAP1 MSTORE PUSH1 0x29 PUSH1 0x24 DUP3 ADD MSTORE PUSH32 0x45524331393637557067726164653A20756E737570706F727465642070726F78 PUSH1 0x44 DUP3 ADD MSTORE PUSH9 0x1A58589B1955555251 PUSH1 0xBA SHL PUSH1 0x64 DUP3 ADD MSTORE PUSH1 0x84 SWAP1 REVERT JUMPDEST SWAP1 SWAP2 DUP8 DUP3 DUP2 RETURNDATASIZE DUP4 GT PUSH2 0x2BFE JUMPI JUMPDEST PUSH2 0x2BEA DUP2 DUP4 PUSH2 0x27FD JUMP JUMPDEST DUP2 ADD SUB SLT PUSH2 0x2BFB JUMPI POP MLOAD SWAP1 CODESIZE PUSH2 0x2A36 JUMP JUMPDEST DUP1 REVERT JUMPDEST POP RETURNDATASIZE PUSH2 0x2BE0 JUMP JUMPDEST DUP1 EXTCODESIZE ISZERO PUSH2 0x2C4C JUMPI PUSH32 0x360894A13BA1A3210667C828492DB98DCA3E2076CC3735A920A3CA505D382BBC DUP1 SLOAD PUSH1 0x1 PUSH1 0x1 PUSH1 0xA0 SHL SUB NOT AND PUSH1 0x1 PUSH1 0x1 PUSH1 0xA0 SHL SUB SWAP1 SWAP3 AND SWAP2 SWAP1 SWAP2 OR SWAP1 SSTORE JUMP JUMPDEST PUSH1 0x40 MLOAD PUSH3 0x461BCD PUSH1 0xE5 SHL DUP2 MSTORE PUSH1 0x20 PUSH1 0x4 DUP3 ADD MSTORE PUSH1 0x2D PUSH1 0x24 DUP3 ADD MSTORE PUSH32 0x455243313936373A206E657720696D706C656D656E746174696F6E206973206E PUSH1 0x44 DUP3 ADD MSTORE PUSH13 0x1BDD08184818DBDB9D1C9858DD PUSH1 0x9A SHL PUSH1 0x64 DUP3 ADD MSTORE PUSH1 0x84 SWAP1 REVERT JUMPDEST RETURNDATASIZE ISZERO PUSH2 0x2CD2 JUMPI RETURNDATASIZE SWAP1 PUSH2 0x2CB8 DUP3 PUSH2 0x2835 JUMP JUMPDEST SWAP2 PUSH2 0x2CC6 PUSH1 0x40 MLOAD SWAP4 DUP5 PUSH2 0x27FD JUMP JUMPDEST DUP3 MSTORE RETURNDATASIZE PUSH1 0x0 PUSH1 0x20 DUP5 ADD RETURNDATACOPY JUMP JUMPDEST PUSH1 0x60 SWAP1 JUMP JUMPDEST SWAP2 SWAP3 SWAP1 ISZERO PUSH2 0x2D39 JUMPI POP DUP2 MLOAD ISZERO PUSH2 0x2CEB JUMPI POP SWAP1 JUMP JUMPDEST EXTCODESIZE ISZERO PUSH2 0x2CF4 JUMPI SWAP1 JUMP JUMPDEST PUSH1 0x40 MLOAD PUSH3 0x461BCD PUSH1 0xE5 SHL DUP2 MSTORE PUSH1 0x20 PUSH1 0x4 DUP3 ADD MSTORE PUSH1 0x1D PUSH1 0x24 DUP3 ADD MSTORE PUSH32 0x416464726573733A2063616C6C20746F206E6F6E2D636F6E7472616374000000 PUSH1 0x44 DUP3 ADD MSTORE PUSH1 0x64 SWAP1 REVERT JUMPDEST DUP3 MLOAD SWAP1 SWAP2 POP ISZERO PUSH2 0x2D4C JUMPI POP DUP1 MLOAD SWAP1 PUSH1 0x20 ADD REVERT JUMPDEST PUSH1 0x40 MLOAD PUSH3 0x461BCD PUSH1 0xE5 SHL DUP2 MSTORE PUSH1 0x20 PUSH1 0x4 DUP3 ADD MSTORE SWAP1 DUP2 SWAP1 PUSH2 0x2D70 SWAP1 PUSH1 0x24 DUP4 ADD SWAP1 PUSH2 0x2D97 JUMP JUMPDEST SUB SWAP1 REVERT JUMPDEST PUSH1 0x0 JUMPDEST DUP4 DUP2 LT PUSH2 0x2D87 JUMPI POP POP PUSH1 0x0 SWAP2 ADD MSTORE JUMP JUMPDEST DUP2 DUP2 ADD MLOAD DUP4 DUP3 ADD MSTORE PUSH1 0x20 ADD PUSH2 0x2D77 JUMP JUMPDEST SWAP1 PUSH1 0x20 SWAP2 PUSH2 0x2DB0 DUP2 MLOAD DUP1 SWAP3 DUP2 DUP6 MSTORE DUP6 DUP1 DUP7 ADD SWAP2 ADD PUSH2 0x2D74 JUMP JUMPDEST PUSH1 0x1F ADD PUSH1 0x1F NOT AND ADD ADD SWAP1 JUMP JUMPDEST SWAP1 DUP2 PUSH1 0x20 SWAP2 SUB SLT PUSH2 0x2D0 JUMPI MLOAD DUP1 ISZERO ISZERO DUP2 SUB PUSH2 0x2D0 JUMPI SWAP1 JUMP JUMPDEST PUSH1 0x97 SLOAD PUSH1 0x40 MLOAD PUSH4 0xD994D6D5 PUSH1 0xE0 SHL DUP2 MSTORE CALLER PUSH1 0x4 DUP3 ADD MSTORE SWAP1 PUSH1 0x20 SWAP1 DUP3 SWAP1 PUSH1 0x24 SWAP1 DUP3 SWAP1 PUSH1 0x1 PUSH1 0x1 PUSH1 0xA0 SHL SUB AND GAS STATICCALL SWAP1 DUP2 ISZERO PUSH2 0x14F7 JUMPI PUSH1 0x0 SWAP2 PUSH2 0x2E29 JUMPI JUMPDEST POP ISZERO PUSH2 0x2E17 JUMPI JUMP JUMPDEST PUSH1 0x40 MLOAD PUSH4 0x1DD1B1B5 PUSH1 0xE2 SHL DUP2 MSTORE PUSH1 0x4 SWAP1 REVERT JUMPDEST PUSH2 0x2E4A SWAP2 POP PUSH1 0x20 RETURNDATASIZE DUP2 GT PUSH2 0x2E50 JUMPI JUMPDEST PUSH2 0x2E42 DUP2 DUP4 PUSH2 0x27FD JUMP JUMPDEST DUP2 ADD SWAP1 PUSH2 0x2DBC JUMP JUMPDEST CODESIZE PUSH2 0x2E0F JUMP JUMPDEST POP RETURNDATASIZE PUSH2 0x2E38 JUMP JUMPDEST PUSH1 0xFF PUSH1 0xCA SLOAD PUSH1 0x8 SHR AND PUSH2 0x2E66 JUMPI JUMP JUMPDEST PUSH1 0x40 MLOAD PUSH4 0x783BB6C9 PUSH1 0xE1 SHL DUP2 MSTORE PUSH1 0x4 SWAP1 REVERT JUMPDEST ISZERO PUSH2 0x2E7F JUMPI JUMP JUMPDEST PUSH1 0x40 MLOAD PUSH3 0x461BCD PUSH1 0xE5 SHL DUP2 MSTORE PUSH1 0x20 PUSH1 0x4 DUP3 ADD MSTORE PUSH1 0x2B PUSH1 0x24 DUP3 ADD MSTORE PUSH32 0x496E697469616C697A61626C653A20636F6E7472616374206973206E6F742069 PUSH1 0x44 DUP3 ADD MSTORE PUSH11 0x6E697469616C697A696E67 PUSH1 0xA8 SHL PUSH1 0x64 DUP3 ADD MSTORE PUSH1 0x84 SWAP1 REVERT JUMPDEST DUP1 PUSH1 0x0 MSTORE PUSH1 0x20 PUSH2 0x193 DUP2 MSTORE PUSH1 0x40 PUSH1 0x0 KECCAK256 CALLER PUSH1 0x0 MSTORE DUP2 MSTORE PUSH1 0xFF PUSH1 0x40 PUSH1 0x0 KECCAK256 SLOAD AND ISZERO PUSH2 0x2F00 JUMPI POP POP JUMP JUMPDEST PUSH2 0x2F96 PUSH1 0x48 PUSH2 0x2F1A DUP4 PUSH2 0x2F14 PUSH1 0x14 CALLER PUSH2 0x2FB7 JUMP JUMPDEST SWAP6 PUSH2 0x2FB7 JUMP JUMPDEST SWAP4 PUSH1 0x40 MLOAD SWAP5 DUP6 SWAP2 PUSH32 0x416363657373436F6E74726F6C3A206163636F756E7420000000000000000000 DUP7 DUP5 ADD MSTORE PUSH2 0x2F59 DUP2 MLOAD DUP1 SWAP3 DUP9 PUSH1 0x37 DUP8 ADD SWAP2 ADD PUSH2 0x2D74 JUMP JUMPDEST DUP3 ADD PUSH17 0x1034B99036B4B9B9B4B733903937B6329 PUSH1 0x7D SHL PUSH1 0x37 DUP3 ADD MSTORE PUSH2 0x2F87 DUP3 MLOAD DUP1 SWAP4 DUP9 DUP8 DUP6 ADD SWAP2 ADD PUSH2 0x2D74 JUMP JUMPDEST ADD SUB PUSH1 0x28 DUP2 ADD DUP6 MSTORE ADD DUP4 PUSH2 0x27FD JUMP JUMPDEST PUSH2 0x2D70 PUSH1 0x40 MLOAD SWAP3 DUP4 SWAP3 PUSH3 0x461BCD PUSH1 0xE5 SHL DUP5 MSTORE PUSH1 0x4 DUP5 ADD MSTORE PUSH1 0x24 DUP4 ADD SWAP1 PUSH2 0x2D97 JUMP JUMPDEST PUSH1 0x1 SWAP2 DUP1 DUP4 SHL SWAP2 SWAP1 PUSH1 0x1 PUSH1 0x1 PUSH1 0xFF SHL SUB DUP2 AND SUB PUSH2 0x30F8 JUMPI PUSH1 0x2 DUP3 ADD SWAP3 DUP4 DUP4 GT PUSH2 0x30F8 JUMPI PUSH2 0x2FFC PUSH2 0x2FE6 DUP6 PUSH2 0x2835 JUMP JUMPDEST SWAP5 PUSH2 0x2FF4 PUSH1 0x40 MLOAD SWAP7 DUP8 PUSH2 0x27FD JUMP JUMPDEST DUP1 DUP7 MSTORE PUSH2 0x2835 JUMP JUMPDEST PUSH1 0x20 SWAP4 SWAP1 DUP6 DUP6 ADD SWAP1 PUSH1 0x1F NOT ADD CALLDATASIZE DUP3 CALLDATACOPY DUP6 MLOAD ISZERO PUSH2 0x310E JUMPI PUSH1 0x30 SWAP1 MSTORE8 DUP5 MLOAD DUP3 LT ISZERO PUSH2 0x310E JUMPI PUSH1 0x78 PUSH1 0x21 DUP7 ADD MSTORE8 DUP2 DUP2 ADD DUP1 SWAP2 GT PUSH2 0x30F8 JUMPI SWAP1 JUMPDEST DUP1 DUP3 GT PUSH2 0x3086 JUMPI POP POP PUSH2 0x3043 JUMPI POP SWAP1 JUMP JUMPDEST PUSH1 0x64 SWAP1 PUSH1 0x40 MLOAD SWAP1 PUSH3 0x461BCD PUSH1 0xE5 SHL DUP3 MSTORE DUP1 PUSH1 0x4 DUP4 ADD MSTORE PUSH1 0x24 DUP3 ADD MSTORE PUSH32 0x537472696E67733A20686578206C656E67746820696E73756666696369656E74 PUSH1 0x44 DUP3 ADD MSTORE REVERT JUMPDEST SWAP1 SWAP2 PUSH1 0xF DUP2 AND PUSH1 0x10 DUP2 LT ISZERO PUSH2 0x30E3 JUMPI DUP6 MLOAD DUP5 LT ISZERO PUSH2 0x30E3 JUMPI PUSH16 0x181899199A1A9B1B9C1CB0B131B232B3 PUSH1 0x81 SHL SWAP1 BYTE DUP6 DUP5 ADD DUP6 ADD MSTORE8 PUSH1 0x4 SHR SWAP2 DUP1 ISZERO PUSH2 0x30CE JUMPI PUSH1 0x0 NOT ADD SWAP1 PUSH2 0x3032 JUMP JUMPDEST PUSH1 0x24 PUSH1 0x0 PUSH4 0x4E487B71 PUSH1 0xE0 SHL DUP2 MSTORE PUSH1 0x11 PUSH1 0x4 MSTORE REVERT JUMPDEST PUSH1 0x24 PUSH1 0x0 PUSH4 0x4E487B71 PUSH1 0xE0 SHL DUP2 MSTORE PUSH1 0x32 PUSH1 0x4 MSTORE REVERT JUMPDEST PUSH4 0x4E487B71 PUSH1 0xE0 SHL PUSH1 0x0 MSTORE PUSH1 0x11 PUSH1 0x4 MSTORE PUSH1 0x24 PUSH1 0x0 REVERT JUMPDEST PUSH4 0x4E487B71 PUSH1 0xE0 SHL PUSH1 0x0 MSTORE PUSH1 0x32 PUSH1 0x4 MSTORE PUSH1 0x24 PUSH1 0x0 REVERT JUMPDEST PUSH1 0xA DUP3 LT ISZERO PUSH2 0x3B6 JUMPI MSTORE JUMP JUMPDEST SWAP1 PUSH1 0x40 MLOAD PUSH2 0x313F PUSH1 0xA0 DUP3 PUSH2 0x27FD JUMP JUMPDEST DUP3 SLOAD DUP2 MSTORE PUSH1 0x1 DUP4 ADD SLOAD PUSH1 0x20 DUP3 ADD MSTORE PUSH1 0x2 DUP4 ADD SLOAD PUSH1 0x1 PUSH1 0x1 PUSH1 0xA0 SHL SUB SWAP1 DUP2 AND PUSH1 0x40 DUP4 ADD MSTORE PUSH1 0x3 DUP5 ADD SLOAD DUP2 AND PUSH1 0x60 DUP4 ADD MSTORE PUSH1 0x4 SWAP1 SWAP4 ADD SLOAD SWAP1 SWAP3 AND PUSH1 0x80 DUP4 ADD MSTORE JUMP JUMPDEST SWAP2 SWAP1 DUP3 PUSH1 0x80 SWAP2 SUB SLT PUSH2 0x2D0 JUMPI PUSH1 0x40 MLOAD PUSH2 0x3198 PUSH1 0x80 DUP3 PUSH2 0x27FD JUMP JUMPDEST PUSH1 0x60 DUP1 DUP3 SWAP5 DUP1 MLOAD DUP5 MSTORE PUSH1 0x20 DUP2 ADD MLOAD PUSH1 0x20 DUP6 ADD MSTORE PUSH1 0x40 DUP2 ADD MLOAD PUSH1 0x40 DUP6 ADD MSTORE ADD MLOAD SWAP2 ADD MSTORE JUMP JUMPDEST SWAP1 SWAP2 PUSH1 0xC0 DUP3 DUP5 SUB SLT PUSH2 0x2D0 JUMPI PUSH2 0x31DC DUP3 MLOAD SWAP4 PUSH1 0x40 PUSH1 0x20 DUP6 ADD MLOAD SWAP5 ADD PUSH2 0x317E JUMP JUMPDEST SWAP1 JUMP JUMPDEST SWAP1 PUSH1 0x20 DUP3 MLOAD SWAP3 ADD MLOAD PUSH4 0xFFFFFFFF PUSH1 0xE0 SHL SWAP1 DUP2 DUP2 AND SWAP4 PUSH1 0x4 DUP2 LT PUSH2 0x3201 JUMPI POP POP POP JUMP JUMPDEST PUSH1 0x4 SUB PUSH1 0x3 SHL DUP3 SWAP1 SHL AND AND SWAP2 POP JUMP JUMPDEST SWAP1 SWAP2 PUSH1 0xA0 SWAP3 DUP3 MSTORE PUSH4 0xFFFFFFFF PUSH1 0xE0 SHL AND PUSH1 0x20 DUP3 ADD MSTORE PUSH1 0x60 PUSH1 0x40 DUP3 ADD MSTORE PUSH1 0xC PUSH1 0x60 DUP3 ADD MSTORE PUSH12 0x4C6F7720636F766572616765 PUSH1 0xA0 SHL PUSH1 0x80 DUP3 ADD MSTORE ADD SWAP1 JUMP JUMPDEST SWAP1 SWAP2 PUSH1 0xA0 SWAP3 DUP3 MSTORE PUSH4 0xFFFFFFFF PUSH1 0xE0 SHL AND PUSH1 0x20 DUP3 ADD MSTORE PUSH1 0x60 PUSH1 0x40 DUP3 ADD MSTORE PUSH1 0x15 PUSH1 0x60 DUP3 ADD MSTORE PUSH21 0x125B9CDD59999A58DA595B9D081C5858C81CD95B9D PUSH1 0x5A SHL PUSH1 0x80 DUP3 ADD MSTORE ADD SWAP1 JUMP JUMPDEST SWAP5 SWAP2 SWAP3 PUSH1 0xE0 SWAP7 SWAP4 SWAP10 SWAP9 SWAP8 SWAP5 SWAP2 SWAP10 PUSH2 0x100 DUP8 ADD SWAP11 DUP8 MSTORE PUSH1 0x20 DUP8 ADD MSTORE PUSH1 0x40 DUP7 ADD MSTORE PUSH1 0x60 DUP6 ADD MSTORE PUSH1 0x80 DUP5 ADD MSTORE PUSH1 0xA0 DUP4 ADD MSTORE PUSH1 0x1 DUP1 PUSH1 0xA0 SHL SUB AND PUSH1 0xC0 DUP3 ADD MSTORE ADD MSTORE JUMP JUMPDEST SWAP1 SWAP2 PUSH1 0xA0 SWAP3 DUP3 MSTORE PUSH4 0xFFFFFFFF PUSH1 0xE0 SHL AND PUSH1 0x20 DUP3 ADD MSTORE PUSH1 0x60 PUSH1 0x40 DUP3 ADD MSTORE PUSH1 0x1A PUSH1 0x60 DUP3 ADD MSTORE PUSH32 0x7141432062656C6F77206D696E696D756D207265717569726564000000000000 PUSH1 0x80 DUP3 ADD MSTORE ADD SWAP1 JUMP JUMPDEST SWAP1 PUSH1 0x40 MLOAD PUSH2 0x332C PUSH1 0xC0 DUP3 PUSH2 0x27FD JUMP JUMPDEST DUP3 SLOAD PUSH1 0x1 PUSH1 0x1 PUSH1 0xA0 SHL SUB SWAP1 DUP2 AND DUP3 MSTORE PUSH1 0x1 DUP5 ADD SLOAD PUSH1 0x20 DUP4 ADD MSTORE PUSH1 0x2 DUP5 ADD SLOAD PUSH1 0x40 DUP4 ADD MSTORE PUSH1 0x3 DUP5 ADD SLOAD DUP2 AND PUSH1 0x60 DUP4 ADD MSTORE PUSH1 0x4 DUP5 ADD SLOAD DUP2 AND PUSH1 0x80 DUP4 ADD MSTORE PUSH1 0x5 SWAP1 SWAP4 ADD SLOAD SWAP1 SWAP3 AND PUSH1 0xA0 DUP4 ADD MSTORE JUMP JUMPDEST PUSH1 0xA0 SWAP1 DUP2 PUSH1 0x1 DUP1 DUP3 SHL SUB SWAP2 DUP3 DUP2 MLOAD AND DUP6 MSTORE PUSH1 0x20 DUP2 ADD MLOAD PUSH1 0x20 DUP7 ADD MSTORE PUSH1 0x40 DUP2 ADD MLOAD PUSH1 0x40 DUP7 ADD MSTORE DUP3 PUSH1 0x60 DUP3 ADD MLOAD AND PUSH1 0x60 DUP7 ADD MSTORE DUP3 PUSH1 0x80 DUP3 ADD MLOAD AND PUSH1 0x80 DUP7 ADD MSTORE ADD MLOAD AND SWAP2 ADD MSTORE JUMP JUMPDEST SWAP1 SWAP2 PUSH1 0xC0 SWAP3 DUP3 MSTORE PUSH4 0xFFFFFFFF PUSH1 0xE0 SHL AND PUSH1 0x20 DUP3 ADD MSTORE PUSH1 0x60 PUSH1 0x40 DUP3 ADD MSTORE PUSH1 0x24 PUSH1 0x60 DUP3 ADD MSTORE PUSH32 0x4D617820666C757820636170616369746F72206F7065726174696F6E20726561 PUSH1 0x80 DUP3 ADD MSTORE PUSH4 0x18DA1959 PUSH1 0xE2 SHL PUSH1 0xA0 DUP3 ADD MSTORE ADD SWAP1 JUMP JUMPDEST SWAP1 PUSH1 0x0 DUP3 DUP2 MSTORE PUSH2 0x260 SWAP3 PUSH1 0x20 SWAP1 DUP5 DUP3 MSTORE PUSH1 0x40 PUSH2 0x3433 DUP2 DUP6 KECCAK256 PUSH2 0x331D JUMP JUMPDEST PUSH2 0x25C DUP1 SLOAD DUP4 MLOAD PUSH4 0x5A21A619 PUSH1 0xE1 SHL DUP2 MSTORE PUSH1 0x1 PUSH1 0x1 PUSH1 0xA0 SHL SUB SWAP10 SWAP3 SWAP7 SWAP2 PUSH1 0xC0 SWAP1 DUP3 SWAP1 PUSH1 0xC4 SWAP1 DUP3 SWAP1 DUP13 SWAP1 DUP16 AND PUSH2 0x346B PUSH1 0x4 DUP5 ADD DUP12 PUSH2 0x3377 JUMP JUMPDEST GAS CALL SWAP1 DUP2 DUP10 SWAP2 DUP11 SWAP4 PUSH2 0x36FB JUMPI JUMPDEST POP PUSH2 0x3682 JUMPI POP POP PUSH2 0x3487 PUSH2 0x2CA7 JUMP JUMPDEST SWAP9 PUSH2 0x3491 DUP11 PUSH2 0x31DF JUMP JUMPDEST SWAP7 PUSH1 0x1 PUSH1 0x1 PUSH1 0xE0 SHL SUB NOT DUP9 AND PUSH4 0x6DA41E5 PUSH1 0xE1 SHL DUP2 SUB PUSH2 0x34D8 JUMPI POP POP POP POP POP POP PUSH1 0x0 DUP1 MLOAD PUSH1 0x20 PUSH2 0x4A45 DUP4 CODECOPY DUP2 MLOAD SWAP2 MSTORE SWAP4 SWAP5 SWAP6 POP PUSH2 0x34D2 SWAP1 MLOAD SWAP3 DUP4 SWAP3 DUP4 PUSH2 0x33BC JUMP JUMPDEST SUB SWAP1 LOG1 SWAP1 JUMP JUMPDEST DUP7 SWAP10 SWAP9 DUP4 SWAP6 SWAP9 SWAP7 SWAP13 PUSH4 0xC39B739F PUSH1 0xE0 SWAP10 SWAP7 SWAP10 SHL DUP4 EQ PUSH1 0x0 EQ PUSH2 0x35F1 JUMPI POP POP PUSH1 0xA0 PUSH1 0x0 DUP1 MLOAD PUSH1 0x20 PUSH2 0x4A45 DUP4 CODECOPY DUP2 MLOAD SWAP2 MSTORE SWAP2 DUP6 MLOAD SWAP1 DUP9 DUP3 MSTORE DUP10 DUP3 ADD MSTORE PUSH1 0x60 DUP7 DUP3 ADD MSTORE PUSH1 0x17 PUSH1 0x60 DUP3 ADD MSTORE PUSH32 0x496E73756666696369656E7420747020746F206D696E74000000000000000000 PUSH1 0x80 DUP3 ADD MSTORE LOG1 JUMPDEST SLOAD AND SWAP2 PUSH1 0x60 DUP11 ADD MLOAD AND SWAP9 ADD MLOAD SWAP8 DUP2 EXTCODESIZE ISZERO PUSH2 0x35ED JUMPI DUP7 MLOAD PUSH4 0x58F32DE9 PUSH1 0xE0 SHL DUP2 MSTORE PUSH1 0x1 PUSH1 0x1 PUSH1 0xA0 SHL SUB SWAP1 SWAP2 AND PUSH1 0x4 DUP3 ADD MSTORE PUSH1 0x24 DUP2 ADD SWAP9 SWAP1 SWAP9 MSTORE DUP5 SWAP1 DUP9 SWAP1 DUP2 DUP4 DUP2 PUSH1 0x44 DUP2 ADD JUMPDEST SUB SWAP3 GAS CALL SWAP7 DUP8 ISZERO PUSH2 0x35E3 JUMPI PUSH2 0x35CA SWAP7 SWAP8 PUSH2 0x35CF JUMPI JUMPDEST POP JUMPDEST DUP4 MSTORE MSTORE KECCAK256 PUSH1 0x5 PUSH1 0x0 SWAP2 DUP3 DUP2 SSTORE DUP3 PUSH1 0x1 DUP3 ADD SSTORE DUP3 PUSH1 0x2 DUP3 ADD SSTORE DUP3 PUSH1 0x3 DUP3 ADD SSTORE DUP3 PUSH1 0x4 DUP3 ADD SSTORE ADD SSTORE JUMP JUMPDEST PUSH1 0x1 SWAP1 JUMP JUMPDEST DUP5 PUSH2 0x35DC SWAP2 SWAP6 SWAP3 SWAP6 PUSH2 0x27FD JUMP JUMPDEST SWAP3 CODESIZE PUSH2 0x35A0 JUMP JUMPDEST DUP6 MLOAD RETURNDATASIZE DUP7 DUP3 RETURNDATACOPY RETURNDATASIZE SWAP1 REVERT JUMPDEST DUP6 DUP1 REVERT JUMPDEST SWAP1 SWAP2 PUSH4 0xB63F1A7 PUSH1 0xE0 SHL DUP2 SUB PUSH2 0x362A JUMPI POP POP PUSH2 0x3622 PUSH1 0x0 DUP1 MLOAD PUSH1 0x20 PUSH2 0x4A45 DUP4 CODECOPY DUP2 MLOAD SWAP2 MSTORE SWAP2 DUP6 MLOAD SWAP2 DUP3 SWAP2 DUP10 DUP4 PUSH2 0x324C JUMP JUMPDEST SUB SWAP1 LOG1 PUSH2 0x3547 JUMP JUMPDEST PUSH4 0x79121201 PUSH1 0xE0 SHL SUB PUSH2 0x3657 JUMPI POP PUSH2 0x3622 PUSH1 0x0 DUP1 MLOAD PUSH1 0x20 PUSH2 0x4A45 DUP4 CODECOPY DUP2 MLOAD SWAP2 MSTORE SWAP2 DUP6 MLOAD SWAP2 DUP3 SWAP2 DUP10 DUP4 PUSH2 0x3210 JUMP JUMPDEST PUSH1 0x0 DUP1 MLOAD PUSH1 0x20 PUSH2 0x4A65 DUP4 CODECOPY DUP2 MLOAD SWAP2 MSTORE SWAP2 POP PUSH2 0x3622 SWAP1 DUP6 MLOAD SWAP2 DUP3 SWAP2 DUP10 DUP4 MSTORE DUP8 DUP12 DUP5 ADD MSTORE DUP8 DUP4 ADD SWAP1 PUSH2 0x2D97 JUMP JUMPDEST DUP5 SWAP3 SWAP6 SWAP9 SWAP8 POP PUSH32 0x125247FDF990B9B419D4B4F895B1BB75BC485E3F8B813CF5557A4A12A56D054D SWAP1 DUP12 PUSH2 0x35CA SWAP12 SWAP13 SWAP4 SWAP6 SWAP9 SWAP7 MLOAD AND SWAP3 PUSH2 0x36F3 DUP8 DUP13 DUP4 PUSH1 0x60 DUP10 ADD MLOAD AND SWAP8 DUP5 PUSH1 0x80 DUP3 ADD MLOAD AND SWAP10 DUP13 DUP3 ADD MLOAD SWAP6 DUP14 DUP3 MLOAD SWAP1 DUP4 ADD MLOAD SWAP2 PUSH1 0xA0 PUSH1 0x60 DUP8 DUP7 ADD MLOAD SWAP6 ADD MLOAD SWAP6 ADD MLOAD AND SWAP5 MLOAD SWAP9 DUP10 SWAP9 DUP10 PUSH2 0x3291 JUMP JUMPDEST SUB SWAP1 LOG4 PUSH2 0x35A2 JUMP JUMPDEST SWAP1 SWAP3 POP PUSH2 0x3716 SWAP2 POP PUSH1 0xC0 RETURNDATASIZE DUP2 GT PUSH2 0x1612 JUMPI PUSH2 0x1600 DUP2 DUP4 PUSH2 0x27FD JUMP JUMPDEST SWAP3 SWAP1 POP CODESIZE PUSH2 0x3478 JUMP JUMPDEST SWAP1 PUSH1 0x0 DUP3 DUP2 MSTORE PUSH2 0x262 PUSH1 0x20 SWAP4 DUP2 DUP6 MSTORE PUSH1 0x40 PUSH2 0x373B DUP2 DUP6 KECCAK256 PUSH2 0x331D JUMP JUMPDEST PUSH2 0x25C DUP1 SLOAD DUP4 MLOAD PUSH4 0xAD4E666D PUSH1 0xE0 SHL DUP2 MSTORE PUSH1 0x1 PUSH1 0x1 PUSH1 0xA0 SHL SUB SWAP10 SWAP3 SWAP7 SWAP4 SWAP2 PUSH1 0xC0 SWAP1 DUP3 SWAP1 PUSH1 0xC4 SWAP1 DUP3 SWAP1 DUP13 SWAP1 DUP16 AND PUSH2 0x3774 PUSH1 0x4 DUP5 ADD DUP10 PUSH2 0x3377 JUMP JUMPDEST GAS CALL SWAP1 DUP2 DUP10 SWAP2 DUP11 SWAP4 PUSH2 0x3946 JUMPI JUMPDEST POP PUSH2 0x38D5 JUMPI POP POP PUSH2 0x3790 PUSH2 0x2CA7 JUMP JUMPDEST SWAP6 PUSH2 0x379A DUP8 PUSH2 0x31DF JUMP JUMPDEST SWAP7 PUSH1 0x1 PUSH1 0x1 PUSH1 0xE0 SHL SUB NOT DUP9 AND PUSH4 0x6DA41E5 PUSH1 0xE1 SHL DUP2 SUB PUSH2 0x37DB JUMPI POP POP POP POP POP POP PUSH1 0x0 DUP1 MLOAD PUSH1 0x20 PUSH2 0x4A45 DUP4 CODECOPY DUP2 MLOAD SWAP2 MSTORE SWAP4 SWAP5 SWAP6 POP PUSH2 0x34D2 SWAP1 MLOAD SWAP3 DUP4 SWAP3 DUP4 PUSH2 0x33BC JUMP JUMPDEST SWAP1 DUP12 SWAP4 SWAP5 SWAP7 SWAP10 SWAP9 SWAP2 PUSH4 0x54CDE313 PUSH1 0xE0 SWAP10 SWAP8 SWAP10 SHL DUP2 EQ PUSH1 0x0 EQ PUSH2 0x3875 JUMPI POP POP PUSH2 0x3818 PUSH1 0x0 DUP1 MLOAD PUSH1 0x20 PUSH2 0x4A45 DUP4 CODECOPY DUP2 MLOAD SWAP2 MSTORE SWAP2 DUP11 MLOAD SWAP2 DUP3 SWAP2 DUP9 DUP4 PUSH2 0x32D0 JUMP JUMPDEST SUB SWAP1 LOG1 JUMPDEST SLOAD AND SWAP1 DUP4 DUP10 PUSH1 0x60 DUP4 ADD MLOAD AND SWAP10 DUP3 MLOAD AND SWAP2 ADD MLOAD SWAP9 DUP3 EXTCODESIZE ISZERO PUSH2 0x3871 JUMPI DUP8 MLOAD PUSH4 0xE2C5E99 PUSH1 0xE4 SHL DUP2 MSTORE PUSH1 0x1 PUSH1 0x1 PUSH1 0xA0 SHL SUB SWAP2 DUP3 AND PUSH1 0x4 DUP3 ADD MSTORE SWAP2 AND PUSH1 0x24 DUP3 ADD MSTORE PUSH1 0x44 DUP2 ADD SWAP9 SWAP1 SWAP9 MSTORE DUP5 SWAP1 DUP9 SWAP1 DUP2 DUP4 DUP2 PUSH1 0x64 DUP2 ADD PUSH2 0x358B JUMP JUMPDEST DUP7 DUP1 REVERT JUMPDEST PUSH4 0x79121201 PUSH1 0xE0 SHL SUB PUSH2 0x38AA JUMPI POP PUSH2 0x38A2 PUSH1 0x0 DUP1 MLOAD PUSH1 0x20 PUSH2 0x4A45 DUP4 CODECOPY DUP2 MLOAD SWAP2 MSTORE SWAP2 DUP11 MLOAD SWAP2 DUP3 SWAP2 DUP9 DUP4 PUSH2 0x3210 JUMP JUMPDEST SUB SWAP1 LOG1 PUSH2 0x381C JUMP JUMPDEST PUSH1 0x0 DUP1 MLOAD PUSH1 0x20 PUSH2 0x4A65 DUP4 CODECOPY DUP2 MLOAD SWAP2 MSTORE SWAP2 POP PUSH2 0x38A2 SWAP1 DUP11 MLOAD SWAP2 DUP3 SWAP2 DUP9 DUP4 MSTORE DUP13 DUP11 DUP5 ADD MSTORE DUP13 DUP4 ADD SWAP1 PUSH2 0x2D97 JUMP JUMPDEST DUP11 SWAP2 SWAP4 SWAP6 SWAP9 SWAP8 POP PUSH32 0x625B9FC283A619F53BEB817D79B8AB044D60E307FD2AF4BB89FA5E9A24CE4EBC SWAP1 PUSH2 0x35CA SWAP11 SWAP12 DUP5 SWAP9 SWAP7 SWAP9 MLOAD AND SWAP3 PUSH2 0x36F3 DUP8 DUP13 DUP4 PUSH1 0x60 DUP10 ADD MLOAD AND SWAP8 DUP5 PUSH1 0x80 DUP3 ADD MLOAD AND SWAP10 DUP13 DUP3 ADD MLOAD SWAP6 DUP14 DUP3 MLOAD SWAP1 DUP4 ADD MLOAD SWAP2 PUSH1 0xA0 PUSH1 0x60 DUP8 DUP7 ADD MLOAD SWAP6 ADD MLOAD SWAP6 ADD MLOAD AND SWAP5 MLOAD SWAP9 DUP10 SWAP9 DUP10 PUSH2 0x3291 JUMP JUMPDEST SWAP1 SWAP3 POP PUSH2 0x3961 SWAP2 POP PUSH1 0xC0 RETURNDATASIZE DUP2 GT PUSH2 0x1612 JUMPI PUSH2 0x1600 DUP2 DUP4 PUSH2 0x27FD JUMP JUMPDEST SWAP3 SWAP1 POP CODESIZE PUSH2 0x3781 JUMP JUMPDEST PUSH1 0xE0 DUP2 DUP4 SUB SLT PUSH2 0x2D0 JUMPI DUP1 MLOAD SWAP3 PUSH2 0x31DC PUSH1 0x20 DUP4 ADD MLOAD SWAP4 PUSH1 0x60 PUSH1 0x40 DUP6 ADD MLOAD SWAP5 ADD PUSH2 0x317E JUMP JUMPDEST SWAP1 PUSH1 0x0 DUP3 DUP2 MSTORE PUSH2 0x263 DUP1 PUSH1 0x20 MSTORE PUSH1 0x40 SWAP4 PUSH2 0x39A9 DUP6 DUP5 KECCAK256 PUSH2 0x331D JUMP JUMPDEST SWAP5 PUSH1 0x1 DUP1 PUSH1 0xA0 SHL SUB SWAP6 PUSH2 0x25C SWAP4 DUP6 PUSH1 0xE0 DUP10 DUP8 SLOAD AND PUSH1 0xC4 DUP7 MLOAD DUP1 SWAP5 DUP2 SWAP4 PUSH4 0x883D21CB DUP7 SHL DUP4 MSTORE PUSH2 0x39DB PUSH1 0x4 DUP5 ADD DUP11 PUSH2 0x3377 JUMP JUMPDEST GAS CALL DUP8 SWAP2 DUP3 SWAP2 DUP3 SWAP2 DUP2 PUSH2 0x3C05 JUMPI JUMPDEST POP PUSH2 0x3B8A JUMPI POP POP POP PUSH2 0x39F9 PUSH2 0x2CA7 JUMP JUMPDEST SWAP8 PUSH2 0x3A03 DUP10 PUSH2 0x31DF JUMP JUMPDEST SWAP6 PUSH1 0x1 PUSH1 0x1 PUSH1 0xE0 SHL SUB NOT DUP8 AND PUSH4 0x6DA41E5 PUSH1 0xE1 SHL DUP2 SUB PUSH2 0x3A43 JUMPI POP POP POP POP POP PUSH1 0x0 DUP1 MLOAD PUSH1 0x20 PUSH2 0x4A45 DUP4 CODECOPY DUP2 MLOAD SWAP2 MSTORE SWAP4 SWAP5 SWAP6 POP PUSH2 0x34D2 SWAP1 MLOAD SWAP3 DUP4 SWAP3 DUP4 PUSH2 0x33BC JUMP JUMPDEST SWAP7 DUP3 SWAP5 SWAP11 DUP7 SWAP10 SWAP9 PUSH4 0xB63F1A7 PUSH1 0xE0 SWAP10 SWAP9 SWAP7 SWAP10 SHL DUP2 EQ PUSH1 0x0 EQ PUSH2 0x3B29 JUMPI POP POP PUSH2 0x3A80 PUSH1 0x0 DUP1 MLOAD PUSH1 0x20 PUSH2 0x4A45 DUP4 CODECOPY DUP2 MLOAD SWAP2 MSTORE SWAP2 DUP6 MLOAD SWAP2 DUP3 SWAP2 DUP10 DUP4 PUSH2 0x324C JUMP JUMPDEST SUB SWAP1 LOG1 JUMPDEST SLOAD AND SWAP2 PUSH1 0x60 DUP10 ADD MLOAD AND SWAP8 ADD MLOAD SWAP7 DUP2 EXTCODESIZE ISZERO PUSH2 0x3B25 JUMPI DUP6 MLOAD PUSH4 0x58F32DE9 PUSH1 0xE0 SHL DUP2 MSTORE PUSH1 0x1 PUSH1 0x1 PUSH1 0xA0 SHL SUB SWAP2 SWAP1 SWAP2 AND PUSH1 0x4 DUP3 ADD MSTORE PUSH1 0x24 DUP2 ADD SWAP8 SWAP1 SWAP8 MSTORE DUP4 SWAP1 DUP8 SWAP1 PUSH1 0x44 SWAP1 DUP3 SWAP1 DUP5 SWAP1 GAS CALL SWAP6 DUP7 ISZERO PUSH2 0x3B1B JUMPI PUSH2 0x35CA SWAP6 SWAP7 PUSH2 0x3B07 JUMPI JUMPDEST POP JUMPDEST DUP3 MSTORE PUSH1 0x20 MSTORE KECCAK256 PUSH1 0x5 PUSH1 0x0 SWAP2 DUP3 DUP2 SSTORE DUP3 PUSH1 0x1 DUP3 ADD SSTORE DUP3 PUSH1 0x2 DUP3 ADD SSTORE DUP3 PUSH1 0x3 DUP3 ADD SSTORE DUP3 PUSH1 0x4 DUP3 ADD SSTORE ADD SSTORE JUMP JUMPDEST DUP4 PUSH2 0x3B14 SWAP2 SWAP5 SWAP3 SWAP5 PUSH2 0x27FD JUMP JUMPDEST SWAP2 CODESIZE PUSH2 0x3ADB JUMP JUMPDEST DUP5 MLOAD RETURNDATASIZE DUP6 DUP3 RETURNDATACOPY RETURNDATASIZE SWAP1 REVERT JUMPDEST DUP5 DUP1 REVERT JUMPDEST PUSH4 0x79121201 PUSH1 0xE0 SHL SUB PUSH2 0x3B5E JUMPI POP PUSH2 0x3B56 PUSH1 0x0 DUP1 MLOAD PUSH1 0x20 PUSH2 0x4A45 DUP4 CODECOPY DUP2 MLOAD SWAP2 MSTORE SWAP2 DUP6 MLOAD SWAP2 DUP3 SWAP2 DUP10 DUP4 PUSH2 0x3210 JUMP JUMPDEST SUB SWAP1 LOG1 PUSH2 0x3A84 JUMP JUMPDEST PUSH1 0x0 DUP1 MLOAD PUSH1 0x20 PUSH2 0x4A65 DUP4 CODECOPY DUP2 MLOAD SWAP2 MSTORE SWAP2 POP PUSH2 0x3B56 SWAP1 DUP6 MLOAD SWAP2 DUP3 SWAP2 DUP10 DUP4 MSTORE DUP8 PUSH1 0x20 DUP5 ADD MSTORE DUP8 DUP4 ADD SWAP1 PUSH2 0x2D97 JUMP JUMPDEST DUP6 SWAP9 SWAP8 POP SWAP1 PUSH32 0x3E9E02A94D7486426FCF2B05A27E911B8D1B61E2E1DCF103785512F46C84764 SWAP2 PUSH2 0x3BFD DUP9 DUP8 SWAP6 SWAP7 SWAP10 SWAP9 DUP15 PUSH2 0x35CA SWAP15 SWAP16 SWAP10 MLOAD AND SWAP7 DUP10 PUSH1 0x60 DUP3 ADD MLOAD AND SWAP9 DUP11 PUSH1 0x80 DUP4 ADD MLOAD AND SWAP11 PUSH1 0x20 DUP4 ADD MLOAD SWAP8 DUP3 MLOAD SWAP1 PUSH1 0x20 DUP5 ADD MLOAD SWAP3 PUSH1 0xA0 PUSH1 0x60 DUP9 DUP8 ADD MLOAD SWAP7 ADD MLOAD SWAP7 ADD MLOAD AND SWAP6 MLOAD SWAP10 DUP11 SWAP10 DUP11 PUSH2 0x3C2A JUMP JUMPDEST SUB SWAP1 LOG4 PUSH2 0x3ADD JUMP JUMPDEST SWAP2 POP SWAP3 POP PUSH2 0x3C21 SWAP2 POP PUSH1 0xE0 RETURNDATASIZE DUP2 GT PUSH2 0x1EA3 JUMPI PUSH2 0x1E90 DUP2 DUP4 PUSH2 0x27FD JUMP JUMPDEST SWAP4 SWAP1 POP CODESIZE PUSH2 0x39E9 JUMP JUMPDEST SWAP6 SWAP3 PUSH2 0x100 SWAP8 SWAP5 SWAP2 SWAP11 SWAP10 SWAP9 SWAP6 SWAP3 PUSH2 0x120 DUP9 ADD SWAP12 DUP9 MSTORE PUSH1 0x20 DUP9 ADD MSTORE PUSH1 0x40 DUP8 ADD MSTORE PUSH1 0x60 DUP7 ADD MSTORE PUSH1 0x80 DUP6 ADD MSTORE PUSH1 0xA0 DUP5 ADD MSTORE PUSH1 0xC0 DUP4 ADD MSTORE PUSH1 0x1 DUP1 PUSH1 0xA0 SHL SUB AND PUSH1 0xE0 DUP3 ADD MSTORE ADD MSTORE JUMP JUMPDEST SWAP1 PUSH1 0x40 MLOAD PUSH2 0x3C7D PUSH1 0xE0 DUP3 PUSH2 0x27FD JUMP JUMPDEST DUP3 SLOAD PUSH1 0x1 PUSH1 0x1 PUSH1 0xA0 SHL SUB SWAP1 DUP2 AND DUP3 MSTORE PUSH1 0x1 DUP5 ADD SLOAD PUSH1 0x20 DUP4 ADD MSTORE PUSH1 0x2 DUP5 ADD SLOAD PUSH1 0x40 DUP4 ADD MSTORE PUSH1 0x3 DUP5 ADD SLOAD PUSH1 0x60 DUP4 ADD MSTORE PUSH1 0x4 DUP5 ADD SLOAD DUP2 AND PUSH1 0x80 DUP4 ADD MSTORE PUSH1 0x5 DUP5 ADD SLOAD DUP2 AND PUSH1 0xA0 DUP4 ADD MSTORE PUSH1 0x6 SWAP1 SWAP4 ADD SLOAD SWAP1 SWAP3 AND PUSH1 0xC0 DUP4 ADD MSTORE JUMP JUMPDEST PUSH1 0xC0 SWAP1 DUP2 PUSH1 0x1 DUP1 PUSH1 0xA0 SHL SUB SWAP2 DUP3 DUP2 MLOAD AND DUP6 MSTORE PUSH1 0x20 DUP2 ADD MLOAD PUSH1 0x20 DUP7 ADD MSTORE PUSH1 0x40 DUP2 ADD MLOAD PUSH1 0x40 DUP7 ADD MSTORE PUSH1 0x60 DUP2 ADD MLOAD PUSH1 0x60 DUP7 ADD MSTORE DUP3 PUSH1 0x80 DUP3 ADD MLOAD AND PUSH1 0x80 DUP7 ADD MSTORE DUP3 PUSH1 0xA0 DUP3 ADD MLOAD AND PUSH1 0xA0 DUP7 ADD MSTORE ADD MLOAD AND SWAP2 ADD MSTORE JUMP JUMPDEST SWAP1 PUSH1 0x0 DUP3 DUP2 MSTORE PUSH2 0x264 PUSH1 0x20 SWAP1 DUP1 DUP3 MSTORE PUSH1 0x40 SWAP1 PUSH2 0x3D3F DUP3 DUP6 KECCAK256 PUSH2 0x3C6E JUMP JUMPDEST PUSH2 0x25C DUP1 SLOAD DUP5 MLOAD PUSH4 0x3631A6BB PUSH1 0xE2 SHL DUP2 MSTORE PUSH1 0x1 PUSH1 0x1 PUSH1 0xA0 SHL SUB SWAP7 SWAP4 SWAP3 SWAP2 PUSH1 0xE0 SWAP1 DUP3 SWAP1 PUSH1 0xE4 SWAP1 DUP3 SWAP1 DUP13 SWAP1 DUP13 AND PUSH2 0x3D77 PUSH1 0x4 DUP5 ADD DUP11 PUSH2 0x3CD2 JUMP JUMPDEST GAS CALL SWAP1 DUP9 DUP3 DUP11 SWAP3 DUP12 SWAP5 PUSH2 0x407B JUMPI JUMPDEST POP PUSH2 0x4001 JUMPI POP POP POP PUSH2 0x3D95 PUSH2 0x2CA7 JUMP JUMPDEST SWAP6 PUSH2 0x3D9F DUP8 PUSH2 0x31DF JUMP JUMPDEST SWAP7 PUSH1 0x1 PUSH1 0x1 PUSH1 0xE0 SHL SUB NOT DUP9 AND SWAP1 PUSH4 0x6DA41E5 PUSH1 0xE1 SHL DUP3 SUB PUSH2 0x3DE1 JUMPI POP POP POP POP POP POP POP SWAP4 PUSH2 0x34D2 PUSH1 0x0 DUP1 MLOAD PUSH1 0x20 PUSH2 0x4A45 DUP4 CODECOPY DUP2 MLOAD SWAP2 MSTORE SWAP4 SWAP5 SWAP6 MLOAD SWAP3 DUP4 SWAP3 DUP4 PUSH2 0x33BC JUMP JUMPDEST PUSH4 0x7A031DA3 PUSH1 0xE1 SWAP11 SWAP10 SWAP3 SWAP4 SWAP5 SWAP6 SWAP7 SWAP8 SWAP9 SWAP11 SHL DUP4 EQ PUSH1 0x0 EQ PUSH2 0x3F70 JUMPI POP POP PUSH1 0xA0 PUSH1 0x0 DUP1 MLOAD PUSH1 0x20 PUSH2 0x4A45 DUP4 CODECOPY DUP2 MLOAD SWAP2 MSTORE SWAP2 DUP10 MLOAD SWAP1 DUP13 DUP3 MSTORE DUP8 DUP3 ADD MSTORE PUSH1 0x60 DUP11 DUP3 ADD MSTORE PUSH1 0x14 PUSH1 0x60 DUP3 ADD MSTORE PUSH20 0x125B9CDD59999A58DA595B9D081D1C081CD95B9D PUSH1 0x62 SHL PUSH1 0x80 DUP3 ADD MSTORE LOG1 JUMPDEST DUP1 DUP3 SLOAD AND SWAP2 PUSH1 0x80 DUP5 ADD SWAP3 DUP3 DUP5 MLOAD AND SWAP1 DUP4 DUP7 MLOAD AND DUP11 DUP8 ADD MLOAD SWAP3 DUP3 EXTCODESIZE ISZERO PUSH2 0x3F6C JUMPI DUP12 MLOAD PUSH4 0xE2C5E99 PUSH1 0xE4 SHL DUP2 MSTORE PUSH1 0x1 PUSH1 0x1 PUSH1 0xA0 SHL SUB SWAP2 DUP3 AND PUSH1 0x4 DUP3 ADD MSTORE SWAP2 AND PUSH1 0x24 DUP3 ADD MSTORE PUSH1 0x44 DUP2 ADD SWAP3 SWAP1 SWAP3 MSTORE DUP9 SWAP1 DUP3 SWAP1 PUSH1 0x64 SWAP1 DUP3 SWAP1 DUP5 SWAP1 GAS CALL DUP1 ISZERO PUSH2 0x3F62 JUMPI PUSH2 0x3F4A JUMPI JUMPDEST POP SWAP1 DUP1 DUP6 SWAP3 SLOAD AND SWAP3 MLOAD AND SWAP3 ADD MLOAD SWAP2 DUP2 EXTCODESIZE ISZERO PUSH2 0x35ED JUMPI DUP7 MLOAD PUSH4 0x53B16D17 PUSH1 0xE0 SHL DUP2 MSTORE PUSH1 0x1 PUSH1 0x1 PUSH1 0xA0 SHL SUB SWAP1 SWAP2 AND PUSH1 0x4 DUP3 ADD MSTORE PUSH1 0x24 DUP2 ADD SWAP3 SWAP1 SWAP3 MSTORE DUP5 SWAP1 DUP3 SWAP1 DUP2 DUP4 DUP2 PUSH1 0x44 DUP2 ADD JUMPDEST SUB SWAP3 GAS CALL DUP1 ISZERO PUSH2 0x35E3 JUMPI PUSH2 0x3F31 JUMPI JUMPDEST POP PUSH2 0x35CA SWAP5 SWAP6 JUMPDEST DUP4 MSTORE MSTORE KECCAK256 PUSH1 0x6 PUSH1 0x0 SWAP2 DUP3 DUP2 SSTORE DUP3 PUSH1 0x1 DUP3 ADD SSTORE DUP3 PUSH1 0x2 DUP3 ADD SSTORE DUP3 PUSH1 0x3 DUP3 ADD SSTORE DUP3 PUSH1 0x4 DUP3 ADD SSTORE DUP3 PUSH1 0x5 DUP3 ADD SSTORE ADD SSTORE JUMP JUMPDEST PUSH2 0x3F3C DUP5 DUP1 SWAP3 PUSH2 0x27FD JUMP JUMPDEST PUSH2 0x3F46 JUMPI CODESIZE PUSH2 0x3EFC JUMP JUMPDEST DUP3 DUP1 REVERT JUMPDEST SWAP2 DUP8 PUSH2 0x3F59 DUP3 SWAP4 SWAP10 DUP9 SWAP6 PUSH2 0x27FD JUMP JUMPDEST SWAP8 SWAP2 SWAP3 POP PUSH2 0x3EA8 JUMP JUMPDEST DUP10 MLOAD RETURNDATASIZE DUP11 DUP3 RETURNDATACOPY RETURNDATASIZE SWAP1 REVERT JUMPDEST DUP11 DUP1 REVERT JUMPDEST SWAP1 SWAP2 PUSH4 0x54CDE313 PUSH1 0xE0 SHL DUP2 SUB PUSH2 0x3FA9 JUMPI POP POP PUSH2 0x3FA1 PUSH1 0x0 DUP1 MLOAD PUSH1 0x20 PUSH2 0x4A45 DUP4 CODECOPY DUP2 MLOAD SWAP2 MSTORE SWAP2 DUP10 MLOAD SWAP2 DUP3 SWAP2 DUP14 DUP4 PUSH2 0x32D0 JUMP JUMPDEST SUB SWAP1 LOG1 PUSH2 0x3E46 JUMP JUMPDEST PUSH4 0x79121201 PUSH1 0xE0 SHL SUB PUSH2 0x3FD6 JUMPI POP PUSH2 0x3FA1 PUSH1 0x0 DUP1 MLOAD PUSH1 0x20 PUSH2 0x4A45 DUP4 CODECOPY DUP2 MLOAD SWAP2 MSTORE SWAP2 DUP10 MLOAD SWAP2 DUP3 SWAP2 DUP14 DUP4 PUSH2 0x3210 JUMP JUMPDEST PUSH1 0x0 DUP1 MLOAD PUSH1 0x20 PUSH2 0x4A65 DUP4 CODECOPY DUP2 MLOAD SWAP2 MSTORE SWAP2 POP PUSH2 0x3FA1 SWAP1 DUP10 MLOAD SWAP2 DUP3 SWAP2 DUP14 DUP4 MSTORE DUP12 DUP10 DUP5 ADD MSTORE DUP12 DUP4 ADD SWAP1 PUSH2 0x2D97 JUMP JUMPDEST DUP5 SWAP3 SWAP4 POP SWAP1 PUSH32 0x4D33A2F9C4F66A101333F7CA2AB718582E763C941FF6FC304D2D4408D43A8284 SWAP2 PUSH2 0x4073 DUP14 DUP11 PUSH2 0x35CA SWAP15 SWAP16 SWAP10 SWAP11 SWAP12 SWAP14 SWAP13 DUP1 SWAP10 MLOAD AND SWAP7 DUP10 PUSH1 0x80 DUP3 ADD MLOAD AND SWAP9 DUP11 PUSH1 0xA0 DUP4 ADD MLOAD AND SWAP11 DUP14 DUP1 DUP5 ADD MLOAD SWAP8 DUP4 MLOAD SWAP2 DUP5 ADD MLOAD SWAP3 PUSH1 0xC0 PUSH1 0x60 DUP9 DUP8 ADD MLOAD SWAP7 ADD MLOAD SWAP7 ADD MLOAD AND SWAP6 MLOAD SWAP10 DUP11 SWAP10 DUP11 PUSH2 0x3C2A JUMP JUMPDEST SUB SWAP1 LOG4 PUSH2 0x3F03 JUMP JUMPDEST SWAP2 POP SWAP3 POP PUSH2 0x4097 SWAP2 POP PUSH1 0xE0 RETURNDATASIZE DUP2 GT PUSH2 0x1EA3 JUMPI PUSH2 0x1E90 DUP2 DUP4 PUSH2 0x27FD JUMP JUMPDEST SWAP3 SWAP1 POP SWAP1 SWAP2 SWAP3 CODESIZE PUSH2 0x3D85 JUMP JUMPDEST SWAP1 SWAP2 PUSH1 0xA0 SWAP3 DUP3 MSTORE PUSH4 0xFFFFFFFF PUSH1 0xE0 SHL AND PUSH1 0x20 DUP3 ADD MSTORE PUSH1 0x60 PUSH1 0x40 DUP3 ADD MSTORE PUSH1 0x1A PUSH1 0x60 DUP3 ADD MSTORE PUSH32 0x7154702062656C6F77206D696E696D756D207265717569726564000000000000 PUSH1 0x80 DUP3 ADD MSTORE ADD SWAP1 JUMP JUMPDEST SWAP1 PUSH1 0x0 DUP3 DUP2 MSTORE PUSH2 0x265 PUSH1 0x20 SWAP1 DUP1 DUP3 MSTORE PUSH1 0x40 SWAP1 PUSH2 0x410D DUP3 DUP6 KECCAK256 PUSH2 0x3C6E JUMP JUMPDEST PUSH2 0x25C DUP1 SLOAD DUP5 MLOAD PUSH4 0x12BCE9BF PUSH1 0xE2 SHL DUP2 MSTORE PUSH1 0x1 PUSH1 0x1 PUSH1 0xA0 SHL SUB SWAP7 SWAP4 SWAP3 SWAP2 PUSH1 0xE0 SWAP1 DUP3 SWAP1 PUSH1 0xE4 SWAP1 DUP3 SWAP1 DUP13 SWAP1 DUP13 AND PUSH2 0x4145 PUSH1 0x4 DUP5 ADD DUP11 PUSH2 0x3CD2 JUMP JUMPDEST GAS CALL SWAP1 DUP2 DUP10 SWAP2 DUP11 SWAP4 PUSH2 0x43AC JUMPI JUMPDEST POP PUSH2 0x433B JUMPI POP POP PUSH2 0x4161 PUSH2 0x2CA7 JUMP JUMPDEST SWAP6 PUSH2 0x416B DUP8 PUSH2 0x31DF JUMP JUMPDEST SWAP7 PUSH1 0x1 PUSH1 0x1 PUSH1 0xE0 SHL SUB NOT DUP9 AND PUSH4 0x6DA41E5 PUSH1 0xE1 SHL DUP2 SUB PUSH2 0x41AC JUMPI POP POP POP POP POP POP POP SWAP4 PUSH2 0x34D2 PUSH1 0x0 DUP1 MLOAD PUSH1 0x20 PUSH2 0x4A45 DUP4 CODECOPY DUP2 MLOAD SWAP2 MSTORE SWAP4 SWAP5 SWAP6 MLOAD SWAP3 DUP4 SWAP3 DUP4 PUSH2 0x33BC JUMP JUMPDEST PUSH4 0xB63F1A7 PUSH1 0xE0 SWAP11 SWAP10 SWAP4 SWAP5 SWAP6 SWAP7 SWAP8 SWAP9 SWAP11 SHL DUP2 EQ PUSH1 0x0 EQ PUSH2 0x42AC JUMPI POP POP PUSH2 0x41E7 PUSH1 0x0 DUP1 MLOAD PUSH1 0x20 PUSH2 0x4A45 DUP4 CODECOPY DUP2 MLOAD SWAP2 MSTORE SWAP2 DUP10 MLOAD SWAP2 DUP3 SWAP2 DUP14 DUP4 PUSH2 0x324C JUMP JUMPDEST SUB SWAP1 LOG1 JUMPDEST DUP1 DUP3 SLOAD AND SWAP2 PUSH1 0x80 DUP5 ADD SWAP3 DUP3 DUP5 MLOAD AND SWAP1 DUP7 DUP7 ADD MLOAD SWAP2 DUP2 EXTCODESIZE ISZERO PUSH2 0x42A8 JUMPI DUP11 MLOAD PUSH4 0x53B16D17 PUSH1 0xE0 SHL DUP2 MSTORE PUSH1 0x1 PUSH1 0x1 PUSH1 0xA0 SHL SUB SWAP1 SWAP2 AND PUSH1 0x4 DUP3 ADD MSTORE PUSH1 0x24 DUP2 ADD SWAP3 SWAP1 SWAP3 MSTORE DUP9 SWAP1 DUP3 SWAP1 DUP2 DUP4 DUP2 PUSH1 0x44 DUP2 ADD JUMPDEST SUB SWAP3 GAS CALL DUP1 ISZERO PUSH2 0x3F62 JUMPI PUSH2 0x428F JUMPI JUMPDEST POP SWAP1 DUP1 PUSH1 0x60 SWAP3 SLOAD AND SWAP3 MLOAD AND SWAP3 ADD MLOAD SWAP2 DUP2 EXTCODESIZE ISZERO PUSH2 0x35ED JUMPI DUP7 MLOAD PUSH4 0x58F32DE9 PUSH1 0xE0 SHL DUP2 MSTORE PUSH1 0x1 PUSH1 0x1 PUSH1 0xA0 SHL SUB SWAP1 SWAP2 AND PUSH1 0x4 DUP3 ADD MSTORE PUSH1 0x24 DUP2 ADD SWAP3 SWAP1 SWAP3 MSTORE DUP5 SWAP1 DUP3 SWAP1 DUP2 DUP4 DUP2 PUSH1 0x44 DUP2 ADD PUSH2 0x3EED JUMP JUMPDEST SWAP2 DUP8 PUSH2 0x429F DUP3 SWAP4 SWAP10 PUSH1 0x60 SWAP6 PUSH2 0x27FD JUMP JUMPDEST SWAP8 SWAP2 SWAP3 POP PUSH2 0x4245 JUMP JUMPDEST DUP10 DUP1 REVERT JUMPDEST PUSH4 0x272E3F59 PUSH1 0xE2 SHL DUP2 SUB PUSH2 0x42E3 JUMPI POP POP PUSH2 0x42DB PUSH1 0x0 DUP1 MLOAD PUSH1 0x20 PUSH2 0x4A45 DUP4 CODECOPY DUP2 MLOAD SWAP2 MSTORE SWAP2 DUP10 MLOAD SWAP2 DUP3 SWAP2 DUP14 DUP4 PUSH2 0x40A3 JUMP JUMPDEST SUB SWAP1 LOG1 PUSH2 0x41EB JUMP JUMPDEST PUSH4 0x79121201 PUSH1 0xE0 SHL SUB PUSH2 0x4310 JUMPI POP PUSH2 0x42DB PUSH1 0x0 DUP1 MLOAD PUSH1 0x20 PUSH2 0x4A45 DUP4 CODECOPY DUP2 MLOAD SWAP2 MSTORE SWAP2 DUP10 MLOAD SWAP2 DUP3 SWAP2 DUP14 DUP4 PUSH2 0x3210 JUMP JUMPDEST PUSH1 0x0 DUP1 MLOAD PUSH1 0x20 PUSH2 0x4A65 DUP4 CODECOPY DUP2 MLOAD SWAP2 MSTORE SWAP2 POP PUSH2 0x42DB SWAP1 DUP10 MLOAD SWAP2 DUP3 SWAP2 DUP14 DUP4 MSTORE DUP12 DUP10 DUP5 ADD MSTORE DUP12 DUP4 ADD SWAP1 PUSH2 0x2D97 JUMP JUMPDEST DUP4 SWAP3 POP PUSH32 0xF8DCB57698D7067DA58AB71C48CD2E3B329B69E7E9853F88630C2C69C2557C78 SWAP1 DUP9 PUSH2 0x35CA SWAP12 SWAP13 SWAP7 SWAP8 SWAP9 SWAP11 SWAP10 SWAP4 SWAP6 MLOAD AND SWAP3 PUSH2 0x4073 DUP8 DUP13 DUP4 PUSH1 0x80 DUP10 ADD MLOAD AND SWAP8 DUP5 PUSH1 0xA0 DUP3 ADD MLOAD AND SWAP10 DUP13 DUP3 ADD MLOAD SWAP6 DUP14 DUP3 MLOAD SWAP1 DUP4 ADD MLOAD SWAP2 PUSH1 0xC0 PUSH1 0x60 DUP8 DUP7 ADD MLOAD SWAP6 ADD MLOAD SWAP6 ADD MLOAD AND SWAP5 MLOAD SWAP9 DUP10 SWAP9 DUP10 PUSH2 0x3291 JUMP JUMPDEST SWAP1 SWAP3 POP PUSH2 0x43C7 SWAP2 POP PUSH1 0xE0 RETURNDATASIZE DUP2 GT PUSH2 0x1EA3 JUMPI PUSH2 0x1E90 DUP2 DUP4 PUSH2 0x27FD JUMP JUMPDEST SWAP3 POP POP SWAP1 SWAP2 CODESIZE PUSH2 0x4152 JUMP JUMPDEST SWAP1 PUSH1 0x0 DUP3 DUP2 MSTORE PUSH2 0x266 PUSH1 0x20 SWAP1 DUP1 DUP3 MSTORE PUSH1 0x40 SWAP1 PUSH2 0x43EF DUP3 DUP6 KECCAK256 PUSH2 0x3C6E JUMP JUMPDEST PUSH2 0x25C DUP1 SLOAD DUP5 MLOAD PUSH4 0x5E272AD9 PUSH1 0xE1 SHL DUP2 MSTORE PUSH1 0x1 PUSH1 0x1 PUSH1 0xA0 SHL SUB SWAP7 SWAP4 SWAP3 SWAP2 PUSH1 0xE0 SWAP1 DUP3 SWAP1 PUSH1 0xE4 SWAP1 DUP3 SWAP1 DUP13 SWAP1 DUP13 AND PUSH2 0x4427 PUSH1 0x4 DUP5 ADD DUP11 PUSH2 0x3CD2 JUMP JUMPDEST GAS CALL SWAP1 DUP2 DUP10 SWAP2 DUP11 SWAP4 PUSH2 0x4662 JUMPI JUMPDEST POP PUSH2 0x45F1 JUMPI POP POP PUSH2 0x4443 PUSH2 0x2CA7 JUMP JUMPDEST SWAP6 PUSH2 0x444D DUP8 PUSH2 0x31DF JUMP JUMPDEST SWAP7 PUSH1 0x1 PUSH1 0x1 PUSH1 0xE0 SHL SUB NOT DUP9 AND SWAP1 PUSH4 0x6DA41E5 PUSH1 0xE1 SHL DUP3 SUB PUSH2 0x448F JUMPI POP POP POP POP POP POP POP SWAP4 PUSH2 0x34D2 PUSH1 0x0 DUP1 MLOAD PUSH1 0x20 PUSH2 0x4A45 DUP4 CODECOPY DUP2 MLOAD SWAP2 MSTORE SWAP4 SWAP5 SWAP6 MLOAD SWAP3 DUP4 SWAP3 DUP4 PUSH2 0x33BC JUMP JUMPDEST PUSH4 0xB63F1A7 PUSH1 0xE0 SWAP11 SWAP10 SWAP3 SWAP4 SWAP5 SWAP6 SWAP7 SWAP8 SWAP9 SWAP11 SHL DUP4 EQ PUSH1 0x0 EQ PUSH2 0x452A JUMPI POP PUSH1 0x0 DUP1 MLOAD PUSH1 0x20 PUSH2 0x4A45 DUP4 CODECOPY DUP2 MLOAD SWAP2 MSTORE SWAP2 POP PUSH2 0x44CC SWAP1 DUP10 MLOAD SWAP2 DUP3 SWAP2 DUP14 DUP4 PUSH2 0x324C JUMP JUMPDEST SUB SWAP1 LOG1 JUMPDEST DUP1 DUP3 SLOAD AND SWAP2 PUSH1 0x80 DUP5 ADD SWAP3 DUP3 DUP5 MLOAD AND SWAP1 DUP4 DUP7 MLOAD AND DUP8 DUP8 ADD MLOAD SWAP3 DUP3 EXTCODESIZE ISZERO PUSH2 0x3F6C JUMPI DUP12 MLOAD PUSH4 0xE2C5E99 PUSH1 0xE4 SHL DUP2 MSTORE PUSH1 0x1 PUSH1 0x1 PUSH1 0xA0 SHL SUB SWAP2 DUP3 AND PUSH1 0x4 DUP3 ADD MSTORE SWAP2 AND PUSH1 0x24 DUP3 ADD MSTORE PUSH1 0x44 DUP2 ADD SWAP3 SWAP1 SWAP3 MSTORE DUP9 SWAP1 DUP3 SWAP1 DUP2 DUP4 DUP2 PUSH1 0x64 DUP2 ADD PUSH2 0x4236 JUMP JUMPDEST PUSH4 0xF577BEF5 PUSH1 0xE0 SHL DUP4 SUB PUSH2 0x458F JUMPI POP POP PUSH1 0xA0 PUSH1 0x0 DUP1 MLOAD PUSH1 0x20 PUSH2 0x4A45 DUP4 CODECOPY DUP2 MLOAD SWAP2 MSTORE SWAP2 DUP10 MLOAD SWAP1 DUP13 DUP3 MSTORE DUP8 DUP3 ADD MSTORE PUSH1 0x60 DUP11 DUP3 ADD MSTORE PUSH1 0x1A PUSH1 0x60 DUP3 ADD MSTORE PUSH32 0x7154632062656C6F77206D696E696D756D207265717569726564000000000000 PUSH1 0x80 DUP3 ADD MSTORE LOG1 PUSH2 0x44D0 JUMP JUMPDEST SWAP1 SWAP2 PUSH4 0x79121201 PUSH1 0xE0 SHL SUB PUSH2 0x45C6 JUMPI POP PUSH2 0x45BE PUSH1 0x0 DUP1 MLOAD PUSH1 0x20 PUSH2 0x4A45 DUP4 CODECOPY DUP2 MLOAD SWAP2 MSTORE SWAP2 DUP10 MLOAD SWAP2 DUP3 SWAP2 DUP14 DUP4 PUSH2 0x3210 JUMP JUMPDEST SUB SWAP1 LOG1 PUSH2 0x44D0 JUMP JUMPDEST PUSH1 0x0 DUP1 MLOAD PUSH1 0x20 PUSH2 0x4A65 DUP4 CODECOPY DUP2 MLOAD SWAP2 MSTORE SWAP2 POP PUSH2 0x45BE SWAP1 DUP10 MLOAD SWAP2 DUP3 SWAP2 DUP14 DUP4 MSTORE DUP12 DUP10 DUP5 ADD MSTORE DUP12 DUP4 ADD SWAP1 PUSH2 0x2D97 JUMP JUMPDEST DUP4 SWAP3 POP PUSH32 0x8AB42044CE8B230E021E5542EB53688D77443E50EE84CDA7917F6BDD833C697F SWAP1 DUP9 PUSH2 0x35CA SWAP12 SWAP13 SWAP7 SWAP8 SWAP9 SWAP11 SWAP10 SWAP4 SWAP6 MLOAD AND SWAP3 PUSH2 0x4073 DUP8 DUP13 DUP4 PUSH1 0x80 DUP10 ADD MLOAD AND SWAP8 DUP5 PUSH1 0xA0 DUP3 ADD MLOAD AND SWAP10 DUP13 DUP3 ADD MLOAD SWAP6 DUP14 DUP3 MLOAD SWAP1 DUP4 ADD MLOAD SWAP2 PUSH1 0xC0 PUSH1 0x60 DUP8 DUP7 ADD MLOAD SWAP6 ADD MLOAD SWAP6 ADD MLOAD AND SWAP5 MLOAD SWAP9 DUP10 SWAP9 DUP10 PUSH2 0x3291 JUMP JUMPDEST SWAP1 SWAP3 POP PUSH2 0x467D SWAP2 POP PUSH1 0xE0 RETURNDATASIZE DUP2 GT PUSH2 0x1EA3 JUMPI PUSH2 0x1E90 DUP2 DUP4 PUSH2 0x27FD JUMP JUMPDEST SWAP3 POP POP SWAP1 SWAP2 CODESIZE PUSH2 0x4434 JUMP JUMPDEST CALLDATALOAD PUSH1 0x1 PUSH1 0x1 PUSH1 0xA0 SHL SUB DUP2 AND DUP2 SUB PUSH2 0x2D0 JUMPI SWAP1 JUMP JUMPDEST DUP2 CALLDATALOAD DUP2 SSTORE PUSH1 0x20 DUP3 ADD CALLDATALOAD PUSH1 0x1 DUP3 ADD SSTORE PUSH1 0x2 DUP2 ADD SWAP1 PUSH1 0x1 PUSH1 0x1 PUSH1 0xA0 SHL SUB SWAP1 PUSH2 0x4705 SWAP1 PUSH1 0x80 SWAP1 PUSH1 0x4 SWAP1 DUP5 PUSH2 0x46CF PUSH1 0x40 DUP10 ADD PUSH2 0x4688 JUMP JUMPDEST AND SWAP6 PUSH1 0x1 PUSH1 0x1 PUSH1 0x60 SHL SUB PUSH1 0xA0 SHL SWAP7 DUP8 DUP3 SLOAD AND OR SWAP1 SSTORE PUSH1 0x3 DUP2 ADD DUP6 PUSH2 0x46F5 PUSH1 0x60 DUP11 ADD PUSH2 0x4688 JUMP JUMPDEST AND DUP8 DUP3 SLOAD AND OR SWAP1 SSTORE ADD SWAP5 ADD PUSH2 0x4688 JUMP JUMPDEST AND SWAP1 DUP3 SLOAD AND OR SWAP1 SSTORE JUMP JUMPDEST PUSH1 0x0 NOT DUP2 EQ PUSH2 0x30F8 JUMPI PUSH1 0x1 ADD SWAP1 JUMP JUMPDEST PUSH1 0x1 PUSH1 0x1 PUSH1 0xA0 SHL SUB PUSH2 0x4705 PUSH1 0xA0 PUSH1 0x5 DUP4 PUSH2 0x4737 DUP8 PUSH2 0x4688 JUMP JUMPDEST AND SWAP5 PUSH1 0x1 PUSH1 0x1 PUSH1 0x60 SHL SUB DUP4 SHL SWAP6 DUP7 DUP3 SLOAD AND OR DUP2 SSTORE PUSH1 0x20 DUP8 ADD CALLDATALOAD PUSH1 0x1 DUP3 ADD SSTORE PUSH1 0x40 DUP8 ADD CALLDATALOAD PUSH1 0x2 DUP3 ADD SSTORE PUSH1 0x3 DUP2 ADD DUP6 PUSH2 0x4770 PUSH1 0x60 DUP11 ADD PUSH2 0x4688 JUMP JUMPDEST AND DUP8 DUP3 SLOAD AND OR SWAP1 SSTORE PUSH1 0x4 DUP2 ADD DUP6 PUSH2 0x46F5 PUSH1 0x80 DUP11 ADD PUSH2 0x4688 JUMP JUMPDEST PUSH1 0x1 PUSH1 0x1 PUSH1 0xA0 SHL SUB PUSH2 0x4705 PUSH1 0xC0 PUSH1 0x6 DUP4 PUSH2 0x47A2 DUP8 PUSH2 0x4688 JUMP JUMPDEST AND SWAP5 PUSH1 0x1 PUSH1 0x1 PUSH1 0x60 SHL SUB PUSH1 0xA0 SHL SWAP6 DUP7 DUP3 SLOAD AND OR DUP2 SSTORE PUSH1 0x20 DUP8 ADD CALLDATALOAD PUSH1 0x1 DUP3 ADD SSTORE PUSH1 0x40 DUP8 ADD CALLDATALOAD PUSH1 0x2 DUP3 ADD SSTORE PUSH1 0x60 DUP8 ADD CALLDATALOAD PUSH1 0x3 DUP3 ADD SSTORE PUSH1 0x4 DUP2 ADD DUP6 PUSH2 0x47E6 PUSH1 0x80 DUP11 ADD PUSH2 0x4688 JUMP JUMPDEST AND DUP8 DUP3 SLOAD AND OR SWAP1 SSTORE PUSH1 0x5 DUP2 ADD DUP6 PUSH2 0x46F5 PUSH1 0xA0 DUP11 ADD PUSH2 0x4688 JUMP JUMPDEST PUSH2 0x25E SLOAD PUSH2 0x25D SLOAD DUP2 EQ PUSH2 0x485E JUMPI PUSH1 0x0 MSTORE PUSH2 0x268 PUSH1 0x20 MSTORE PUSH1 0x20 PUSH1 0x40 PUSH1 0x0 KECCAK256 PUSH1 0x40 MLOAD SWAP1 PUSH2 0x482C PUSH1 0x40 DUP4 PUSH2 0x27FD JUMP JUMPDEST SLOAD PUSH2 0x483A PUSH1 0xFF DUP3 AND DUP4 PUSH2 0x3124 JUMP JUMPDEST PUSH1 0x8 SHR SWAP2 DUP3 SWAP2 ADD MSTORE PUSH1 0x1 PUSH1 0x1 PUSH1 0x80 SHL SUB PUSH2 0x269 SLOAD AND NUMBER SUB SWAP1 NUMBER DUP3 GT PUSH2 0x30F8 JUMPI GT ISZERO SWAP1 JUMP JUMPDEST POP PUSH1 0x0 SWAP1 JUMP JUMPDEST SWAP1 PUSH1 0x0 SWAP2 DUP1 DUP4 MSTORE PUSH2 0x193 DUP1 PUSH1 0x20 MSTORE PUSH1 0x40 DUP5 KECCAK256 SWAP3 PUSH1 0x1 DUP1 PUSH1 0xA0 SHL SUB AND SWAP3 DUP4 DUP6 MSTORE PUSH1 0x20 MSTORE PUSH1 0xFF PUSH1 0x40 DUP6 KECCAK256 SLOAD AND ISZERO PUSH2 0x4899 JUMPI POP POP POP POP JUMP JUMPDEST DUP2 DUP5 MSTORE PUSH1 0x20 MSTORE PUSH1 0x40 DUP4 KECCAK256 DUP3 DUP5 MSTORE PUSH1 0x20 MSTORE PUSH1 0x40 DUP4 KECCAK256 PUSH1 0x1 PUSH1 0xFF NOT DUP3 SLOAD AND OR SWAP1 SSTORE PUSH32 0x2F8788117E7EFF1D82E926EC794901D17C78024A50270940304540A733656F0D CALLER SWAP4 DUP1 LOG4 CODESIZE DUP1 DUP1 DUP1 PUSH2 0x28BA JUMP JUMPDEST CALLVALUE DUP2 SUB PUSH2 0x2568 JUMPI POP JUMP JUMPDEST PUSH2 0x4989 PUSH1 0x5 PUSH2 0x100 PUSH2 0x1F7 SWAP4 DUP1 CALLDATALOAD PUSH2 0x4909 PUSH1 0x1 DUP8 PUSH2 0x27E5 JUMP JUMPDEST SSTORE PUSH1 0x20 DUP2 ADD CALLDATALOAD PUSH2 0x491A PUSH1 0x2 DUP8 PUSH2 0x27E5 JUMP JUMPDEST SSTORE PUSH1 0x40 DUP2 ADD CALLDATALOAD PUSH2 0x492B PUSH1 0x3 DUP8 PUSH2 0x27E5 JUMP JUMPDEST SSTORE PUSH1 0x60 DUP2 ADD CALLDATALOAD PUSH2 0x493C PUSH1 0x4 DUP8 PUSH2 0x27E5 JUMP JUMPDEST SSTORE PUSH1 0x80 DUP2 ADD CALLDATALOAD PUSH2 0x494D PUSH1 0x9 DUP8 PUSH2 0x27E5 JUMP JUMPDEST SSTORE PUSH1 0xA0 DUP2 ADD CALLDATALOAD PUSH2 0x495E PUSH1 0x8 DUP8 PUSH2 0x27E5 JUMP JUMPDEST SSTORE PUSH1 0xC0 DUP2 ADD CALLDATALOAD PUSH2 0x496F PUSH1 0x7 DUP8 PUSH2 0x27E5 JUMP JUMPDEST SSTORE PUSH1 0xE0 DUP2 ADD CALLDATALOAD PUSH2 0x4980 PUSH1 0x6 DUP8 PUSH2 0x27E5 JUMP JUMPDEST SSTORE ADD CALLDATALOAD SWAP3 PUSH2 0x27E5 JUMP JUMPDEST SSTORE JUMP JUMPDEST PUSH1 0x97 SLOAD PUSH1 0x40 DUP1 MLOAD PUSH4 0xD994D6D5 PUSH1 0xE0 SHL DUP2 MSTORE CALLER PUSH1 0x4 DUP3 ADD MSTORE SWAP1 SWAP3 SWAP2 PUSH1 0x20 SWAP1 DUP3 SWAP1 PUSH1 0x24 SWAP1 DUP3 SWAP1 PUSH1 0x1 PUSH1 0x1 PUSH1 0xA0 SHL SUB AND GAS STATICCALL SWAP1 DUP2 ISZERO PUSH2 0x4A39 JUMPI PUSH1 0x0 SWAP2 PUSH2 0x4A1B JUMPI JUMPDEST POP ISZERO SWAP1 DUP2 PUSH2 0x49EB JUMPI JUMPDEST POP PUSH2 0x49DB JUMPI POP JUMP JUMPDEST MLOAD PUSH4 0x1DD1B1B5 PUSH1 0xE2 SHL DUP2 MSTORE PUSH1 0x4 SWAP1 REVERT JUMPDEST SWAP1 POP PUSH1 0x0 MSTORE PUSH2 0x193 PUSH1 0x20 MSTORE PUSH1 0x1 DUP2 PUSH1 0x0 KECCAK256 ADD SLOAD PUSH1 0x0 MSTORE DUP1 PUSH1 0x0 KECCAK256 CALLER PUSH1 0x0 MSTORE PUSH1 0x20 MSTORE PUSH1 0xFF DUP2 PUSH1 0x0 KECCAK256 SLOAD AND ISZERO CODESIZE PUSH2 0x49D3 JUMP JUMPDEST PUSH2 0x4A33 SWAP2 POP PUSH1 0x20 RETURNDATASIZE DUP2 GT PUSH2 0x2E50 JUMPI PUSH2 0x2E42 DUP2 DUP4 PUSH2 0x27FD JUMP JUMPDEST CODESIZE PUSH2 0x49CA JUMP JUMPDEST DUP4 MLOAD RETURNDATASIZE PUSH1 0x0 DUP3 RETURNDATACOPY RETURNDATASIZE SWAP1 REVERT INVALID JUMPDEST 0xBE 0xBB PUSH5 0xD62396F99C 0xAE 0x4B EXTCODESIZE PUSH25 0xD9386CB0F2893AAB6A69F27EB61F8E7C29775E3EA497186958 0xEC PUSH4 0x8834F65E 0xC5 0xA5 PUSH18 0xC2B2E877E5D59A76804EC0448FAC7829BABF 0xA5 0xD4 EXP 0xB5 SWAP6 STATICCALL PUSH2 0x3B17 JUMP PUSH15 0xA5E38A5CAC79A71F09CE1435246DB2 0xE6 DUP1 PC AND 0xC2 PUSH30 0x5E686862EC2250829EB6DEE4A7CB0834865072F135485C874D3BBBE39BDF 0xDB LOG2 PUSH5 0x6970667358 0x22 SLT KECCAK256 MSTORE DUP12 0xCA COINBASE 0xB9 EXTCODEHASH SWAP1 0x25 PUSH32 0xCE13257A9AD70A9054A4BBE9B4FEAC6A27C8C4A8A7419564736F6C6343000814 STOP CALLER "
    },
    "gasEstimates": {
      "creation": {
        "codeDepositCost": "3838800",
        "executionCost": "infinite",
        "totalCost": "infinite"
      },
      "external": {
        "DEFAULT_ADMIN_ROLE()": "1027",
        "changeGovernor(address)": "infinite",
        "execFee(uint8)": "2817",
        "execute(address)": "infinite",
        "firstOperId()": "2404",
        "getAndVerifyExecFee(uint8,uint256)": "2562",
        "getRoleAdmin(bytes32)": "2454",
        "governor()": "2318",
        "grantRole(bytes32,address)": "infinite",
        "hasRole(bytes32,address)": "3279",
        "initialize(address,address,uint128,uint128,(uint256,uint256,uint256,uint256,uint256,uint256,uint256,uint256,uint256))": "infinite",
        "isEmpty()": "4950",
        "makeStoppable()": "infinite",
        "makeUnstoppable()": "infinite",
        "maxOperPerBatch()": "3312",
        "minOperWaitingBlk()": "3082",
        "mocOperations()": "3264",
        "operIdCount()": "2932",
        "operationsMintTC(uint256)": "10981",
        "operationsMintTCandTP(uint256)": "13893",
        "operationsMintTP(uint256)": "13871",
        "operationsRedeemTC(uint256)": "11795",
        "operationsRedeemTCandTP(uint256)": "15897",
        "operationsRedeemTP(uint256)": "14264",
        "operationsSwapTCforTP(uint256)": "15303",
        "operationsSwapTPforTC(uint256)": "15765",
        "operationsSwapTPforTP(uint256)": "17596",
        "opersInfo(uint256)": "3081",
        "pause()": "28352",
        "paused()": "2818",
        "pauser()": "3141",
        "proxiableUUID()": "infinite",
        "queueMintTC((uint256,uint256,address,address,address))": "infinite",
        "queueMintTCandTP((address,uint256,uint256,address,address,address))": "infinite",
        "queueMintTP((address,uint256,uint256,address,address,address))": "infinite",
        "queueRedeemTC((uint256,uint256,address,address,address))": "infinite",
        "queueRedeemTCandTP((address,uint256,uint256,uint256,address,address,address))": "infinite",
        "queueRedeemTP((address,uint256,uint256,address,address,address))": "infinite",
        "queueSwapTCforTP((address,uint256,uint256,uint256,address,address,address))": "infinite",
        "queueSwapTPforTC((address,uint256,uint256,uint256,address,address,address))": "infinite",
        "queueSwapTPforTP((address,address,uint256,uint256,uint256,address,address,address))": "infinite",
        "readyToExecute()": "9232",
        "registerBucket(address)": "infinite",
        "renounceRole(bytes32,address)": "29008",
        "revokeRole(bytes32,address)": "infinite",
        "setMaxOperPerBatch(uint128)": "infinite",
        "setMinOperWaitingBlk(uint128)": "infinite",
        "setPauser(address)": "infinite",
        "stoppable()": "3186",
        "supportsInterface(bytes4)": "293",
        "unpause()": "25779",
        "updateExecutionFees((uint256,uint256,uint256,uint256,uint256,uint256,uint256,uint256,uint256))": "infinite",
        "upgradeTo(address)": "infinite",
        "upgradeToAndCall(address,bytes)": "infinite"
      },
      "internal": {
        "_executeMintTC(uint256)": "infinite",
        "_executeMintTCandTP(uint256)": "infinite",
        "_executeMintTP(uint256)": "infinite",
        "_executeRedeemTC(uint256)": "infinite",
        "_executeRedeemTCandTP(uint256)": "infinite",
        "_executeRedeemTP(uint256)": "infinite",
        "_executeSwapTCforTP(uint256)": "infinite",
        "_executeSwapTPforTC(uint256)": "infinite",
        "_executeSwapTPforTP(uint256)": "infinite",
        "_onDeferredTCMinted(uint256,struct MocCore.MintTCParams memory,uint256,struct MocCommons.FeeCalcs memory)": "infinite",
        "_onDeferredTCRedeemed(uint256,struct MocCore.RedeemTCParams memory,uint256,struct MocCommons.FeeCalcs memory)": "infinite",
        "_onDeferredTCandTPMinted(uint256,struct MocCommons.MintTCandTPParams memory,uint256,uint256,struct MocCommons.FeeCalcs memory)": "infinite",
        "_onDeferredTCandTPRedeemed(uint256,struct MocCommons.RedeemTCandTPParams memory,uint256,uint256,struct MocCommons.FeeCalcs memory)": "infinite",
        "_onDeferredTCforTPSwapped(uint256,struct MocCommons.SwapTCforTPParams memory,uint256,struct MocCommons.FeeCalcs memory)": "infinite",
        "_onDeferredTPMinted(uint256,struct MocCore.MintTPParams memory,uint256,struct MocCommons.FeeCalcs memory)": "infinite",
        "_onDeferredTPRedeemed(uint256,struct MocCommons.RedeemTPParams memory,uint256,struct MocCommons.FeeCalcs memory)": "infinite",
        "_onDeferredTPforTCSwapped(uint256,struct MocCommons.SwapTPforTCParams memory,uint256,struct MocCommons.FeeCalcs memory)": "infinite",
        "_onDeferredTPforTPSwapped(uint256,struct MocCommons.SwapTPforTPParams memory,uint256,struct MocCommons.FeeCalcs memory)": "infinite",
        "execute(uint256,uint256)": "infinite"
      }
    },
    "methodIdentifiers": {
      "DEFAULT_ADMIN_ROLE()": "a217fddf",
      "changeGovernor(address)": "e4c0aaf4",
      "execFee(uint8)": "4b5a9e3d",
      "execute(address)": "4b64e492",
      "firstOperId()": "2b994849",
      "getAndVerifyExecFee(uint8,uint256)": "24524ea1",
      "getRoleAdmin(bytes32)": "248a9ca3",
      "governor()": "0c340a24",
      "grantRole(bytes32,address)": "2f2ff15d",
      "hasRole(bytes32,address)": "91d14854",
      "initialize(address,address,uint128,uint128,(uint256,uint256,uint256,uint256,uint256,uint256,uint256,uint256,uint256))": "db901477",
      "isEmpty()": "681fe70c",
      "makeStoppable()": "68274357",
      "makeUnstoppable()": "5210570c",
      "maxOperPerBatch()": "dbb0b684",
      "minOperWaitingBlk()": "8e7e8189",
      "mocOperations()": "caeb12b6",
      "operIdCount()": "73e3d086",
      "operationsMintTC(uint256)": "1a0c5440",
      "operationsMintTCandTP(uint256)": "8b20076c",
      "operationsMintTP(uint256)": "8a4737ab",
      "operationsRedeemTC(uint256)": "ad16c2de",
      "operationsRedeemTCandTP(uint256)": "6b763330",
      "operationsRedeemTP(uint256)": "fb8aafb8",
      "operationsSwapTCforTP(uint256)": "1826ebf0",
      "operationsSwapTPforTC(uint256)": "5c817aa3",
      "operationsSwapTPforTP(uint256)": "435c7e37",
      "opersInfo(uint256)": "7c50b7e4",
      "pause()": "8456cb59",
      "paused()": "5c975abb",
      "pauser()": "9fd0506d",
      "proxiableUUID()": "52d1902d",
      "queueMintTC((uint256,uint256,address,address,address))": "e97a4d63",
      "queueMintTCandTP((address,uint256,uint256,address,address,address))": "47d8496a",
      "queueMintTP((address,uint256,uint256,address,address,address))": "7e81a821",
      "queueRedeemTC((uint256,uint256,address,address,address))": "fa91a9a5",
      "queueRedeemTCandTP((address,uint256,uint256,uint256,address,address,address))": "e4e1b729",
      "queueRedeemTP((address,uint256,uint256,address,address,address))": "c84d8bb6",
      "queueSwapTCforTP((address,uint256,uint256,uint256,address,address,address))": "6b59c22f",
      "queueSwapTPforTC((address,uint256,uint256,uint256,address,address,address))": "00c6e88e",
      "queueSwapTPforTP((address,address,uint256,uint256,uint256,address,address,address))": "34975a41",
      "readyToExecute()": "3cbcf4c4",
      "registerBucket(address)": "bbe720d9",
      "renounceRole(bytes32,address)": "36568abe",
      "revokeRole(bytes32,address)": "d547741f",
      "setMaxOperPerBatch(uint128)": "5ee1d2bb",
      "setMinOperWaitingBlk(uint128)": "3bb4b05c",
      "setPauser(address)": "2d88af4a",
      "stoppable()": "bb4872de",
      "supportsInterface(bytes4)": "01ffc9a7",
      "unpause()": "3f4ba83a",
      "updateExecutionFees((uint256,uint256,uint256,uint256,uint256,uint256,uint256,uint256,uint256))": "4981d04e",
      "upgradeTo(address)": "3659cfe6",
      "upgradeToAndCall(address,bytes)": "4f1ef286"
    }
  },
  "storageLayout": {
    "storage": [
      {
        "astId": 950,
        "contract": "contracts/queue/MocQueue.sol:MocQueue",
        "label": "_initialized",
        "offset": 0,
        "slot": "0",
        "type": "t_uint8"
      },
      {
        "astId": 953,
        "contract": "contracts/queue/MocQueue.sol:MocQueue",
        "label": "_initializing",
        "offset": 1,
        "slot": "0",
        "type": "t_bool"
      },
      {
        "astId": 932,
        "contract": "contracts/queue/MocQueue.sol:MocQueue",
        "label": "__gap",
        "offset": 0,
        "slot": "1",
        "type": "t_array(t_uint256)50_storage"
      },
      {
        "astId": 1247,
        "contract": "contracts/queue/MocQueue.sol:MocQueue",
        "label": "__gap",
        "offset": 0,
        "slot": "51",
        "type": "t_array(t_uint256)50_storage"
      },
      {
        "astId": 29897,
        "contract": "contracts/queue/MocQueue.sol:MocQueue",
        "label": "__gap",
        "offset": 0,
        "slot": "101",
        "type": "t_array(t_uint256)50_storage"
      },
      {
        "astId": 22016,
        "contract": "contracts/queue/MocQueue.sol:MocQueue",
        "label": "governor",
        "offset": 0,
        "slot": "151",
        "type": "t_contract(IGovernor)22865"
      },
      {
        "astId": 22087,
        "contract": "contracts/queue/MocQueue.sol:MocQueue",
        "label": "__gap",
        "offset": 0,
        "slot": "152",
        "type": "t_array(t_uint256)50_storage"
      },
      {
        "astId": 22156,
        "contract": "contracts/queue/MocQueue.sol:MocQueue",
        "label": "stoppable",
        "offset": 0,
        "slot": "202",
        "type": "t_bool"
      },
      {
        "astId": 22158,
        "contract": "contracts/queue/MocQueue.sol:MocQueue",
        "label": "_paused",
        "offset": 1,
        "slot": "202",
        "type": "t_bool"
      },
      {
        "astId": 22160,
        "contract": "contracts/queue/MocQueue.sol:MocQueue",
        "label": "pauser",
        "offset": 2,
        "slot": "202",
        "type": "t_address"
      },
      {
        "astId": 22319,
        "contract": "contracts/queue/MocQueue.sol:MocQueue",
        "label": "__gap",
        "offset": 0,
        "slot": "203",
        "type": "t_array(t_uint256)50_storage"
      },
      {
        "astId": 22138,
        "contract": "contracts/queue/MocQueue.sol:MocQueue",
        "label": "__gap",
        "offset": 0,
        "slot": "253",
        "type": "t_array(t_uint256)50_storage"
      },
      {
        "astId": 3017,
        "contract": "contracts/queue/MocQueue.sol:MocQueue",
        "label": "__gap",
        "offset": 0,
        "slot": "303",
        "type": "t_array(t_uint256)50_storage"
      },
      {
        "astId": 3400,
        "contract": "contracts/queue/MocQueue.sol:MocQueue",
        "label": "__gap",
        "offset": 0,
        "slot": "353",
        "type": "t_array(t_uint256)50_storage"
      },
      {
        "astId": 184,
        "contract": "contracts/queue/MocQueue.sol:MocQueue",
        "label": "_roles",
        "offset": 0,
        "slot": "403",
        "type": "t_mapping(t_bytes32,t_struct(RoleData)179_storage)"
      },
      {
        "astId": 479,
        "contract": "contracts/queue/MocQueue.sol:MocQueue",
        "label": "__gap",
        "offset": 0,
        "slot": "404",
        "type": "t_array(t_uint256)49_storage"
      },
      {
        "astId": 29801,
        "contract": "contracts/queue/MocQueue.sol:MocQueue",
        "label": "__gap",
        "offset": 0,
        "slot": "453",
        "type": "t_array(t_uint256)50_storage"
      },
      {
        "astId": 29177,
        "contract": "contracts/queue/MocQueue.sol:MocQueue",
        "label": "execFee",
        "offset": 0,
        "slot": "503",
        "type": "t_mapping(t_enum(OperType)29145,t_uint256)"
      },
      {
        "astId": 29351,
        "contract": "contracts/queue/MocQueue.sol:MocQueue",
        "label": "__gap",
        "offset": 0,
        "slot": "504",
        "type": "t_array(t_uint256)50_storage"
      },
      {
        "astId": 1389,
        "contract": "contracts/queue/MocQueue.sol:MocQueue",
        "label": "_status",
        "offset": 0,
        "slot": "554",
        "type": "t_uint256"
      },
      {
        "astId": 1458,
        "contract": "contracts/queue/MocQueue.sol:MocQueue",
        "label": "__gap",
        "offset": 0,
        "slot": "555",
        "type": "t_array(t_uint256)49_storage"
      },
      {
        "astId": 26610,
        "contract": "contracts/queue/MocQueue.sol:MocQueue",
        "label": "mocOperations",
        "offset": 0,
        "slot": "604",
        "type": "t_contract(MocOperations)18706"
      },
      {
        "astId": 26612,
        "contract": "contracts/queue/MocQueue.sol:MocQueue",
        "label": "operIdCount",
        "offset": 0,
        "slot": "605",
        "type": "t_uint256"
      },
      {
        "astId": 26614,
        "contract": "contracts/queue/MocQueue.sol:MocQueue",
        "label": "firstOperId",
        "offset": 0,
        "slot": "606",
        "type": "t_uint256"
      },
      {
        "astId": 26619,
        "contract": "contracts/queue/MocQueue.sol:MocQueue",
        "label": "operationsMintTC",
        "offset": 0,
        "slot": "607",
        "type": "t_mapping(t_uint256,t_struct(MintTCParams)14336_storage)"
      },
      {
        "astId": 26624,
        "contract": "contracts/queue/MocQueue.sol:MocQueue",
        "label": "operationsMintTP",
        "offset": 0,
        "slot": "608",
        "type": "t_mapping(t_uint256,t_struct(MintTPParams)14588_storage)"
      },
      {
        "astId": 26629,
        "contract": "contracts/queue/MocQueue.sol:MocQueue",
        "label": "operationsRedeemTC",
        "offset": 0,
        "slot": "609",
        "type": "t_mapping(t_uint256,t_struct(RedeemTCParams)14462_storage)"
      },
      {
        "astId": 26634,
        "contract": "contracts/queue/MocQueue.sol:MocQueue",
        "label": "operationsRedeemTP",
        "offset": 0,
        "slot": "610",
        "type": "t_mapping(t_uint256,t_struct(RedeemTPParams)13438_storage)"
      },
      {
        "astId": 26639,
        "contract": "contracts/queue/MocQueue.sol:MocQueue",
        "label": "operationsMintTCandTP",
        "offset": 0,
        "slot": "611",
        "type": "t_mapping(t_uint256,t_struct(MintTCandTPParams)13363_storage)"
      },
      {
        "astId": 26644,
        "contract": "contracts/queue/MocQueue.sol:MocQueue",
        "label": "operationsRedeemTCandTP",
        "offset": 0,
        "slot": "612",
        "type": "t_mapping(t_uint256,t_struct(RedeemTCandTPParams)13378_storage)"
      },
      {
        "astId": 26649,
        "contract": "contracts/queue/MocQueue.sol:MocQueue",
        "label": "operationsSwapTCforTP",
        "offset": 0,
        "slot": "613",
        "type": "t_mapping(t_uint256,t_struct(SwapTCforTPParams)13425_storage)"
      },
      {
        "astId": 26654,
        "contract": "contracts/queue/MocQueue.sol:MocQueue",
        "label": "operationsSwapTPforTC",
        "offset": 0,
        "slot": "614",
        "type": "t_mapping(t_uint256,t_struct(SwapTPforTCParams)13410_storage)"
      },
      {
        "astId": 26659,
        "contract": "contracts/queue/MocQueue.sol:MocQueue",
        "label": "operationsSwapTPforTP",
        "offset": 0,
        "slot": "615",
        "type": "t_mapping(t_uint256,t_struct(SwapTPforTPParams)13395_storage)"
      },
      {
        "astId": 26664,
        "contract": "contracts/queue/MocQueue.sol:MocQueue",
        "label": "opersInfo",
        "offset": 0,
        "slot": "616",
        "type": "t_mapping(t_uint256,t_struct(OperInfo)26607_storage)"
      },
      {
        "astId": 26666,
        "contract": "contracts/queue/MocQueue.sol:MocQueue",
        "label": "minOperWaitingBlk",
        "offset": 0,
        "slot": "617",
        "type": "t_uint128"
      },
      {
        "astId": 26668,
        "contract": "contracts/queue/MocQueue.sol:MocQueue",
        "label": "maxOperPerBatch",
        "offset": 16,
        "slot": "617",
        "type": "t_uint128"
      },
      {
        "astId": 29126,
        "contract": "contracts/queue/MocQueue.sol:MocQueue",
        "label": "__gap",
        "offset": 0,
        "slot": "618",
        "type": "t_array(t_uint256)50_storage"
      }
    ],
    "types": {
      "t_address": {
        "encoding": "inplace",
        "label": "address",
        "numberOfBytes": "20"
      },
      "t_array(t_uint256)49_storage": {
        "base": "t_uint256",
        "encoding": "inplace",
        "label": "uint256[49]",
        "numberOfBytes": "1568"
      },
      "t_array(t_uint256)50_storage": {
        "base": "t_uint256",
        "encoding": "inplace",
        "label": "uint256[50]",
        "numberOfBytes": "1600"
      },
      "t_bool": {
        "encoding": "inplace",
        "label": "bool",
        "numberOfBytes": "1"
      },
      "t_bytes32": {
        "encoding": "inplace",
        "label": "bytes32",
        "numberOfBytes": "32"
      },
      "t_contract(IGovernor)22865": {
        "encoding": "inplace",
        "label": "contract IGovernor",
        "numberOfBytes": "20"
      },
      "t_contract(MocOperations)18706": {
        "encoding": "inplace",
        "label": "contract MocOperations",
        "numberOfBytes": "20"
      },
      "t_enum(OperType)29145": {
        "encoding": "inplace",
        "label": "enum MocQueueExecFees.OperType",
        "numberOfBytes": "1"
      },
      "t_mapping(t_address,t_bool)": {
        "encoding": "mapping",
        "key": "t_address",
        "label": "mapping(address => bool)",
        "numberOfBytes": "32",
        "value": "t_bool"
      },
      "t_mapping(t_bytes32,t_struct(RoleData)179_storage)": {
        "encoding": "mapping",
        "key": "t_bytes32",
        "label": "mapping(bytes32 => struct AccessControlUpgradeable.RoleData)",
        "numberOfBytes": "32",
        "value": "t_struct(RoleData)179_storage"
      },
      "t_mapping(t_enum(OperType)29145,t_uint256)": {
        "encoding": "mapping",
        "key": "t_enum(OperType)29145",
        "label": "mapping(enum MocQueueExecFees.OperType => uint256)",
        "numberOfBytes": "32",
        "value": "t_uint256"
      },
      "t_mapping(t_uint256,t_struct(MintTCParams)14336_storage)": {
        "encoding": "mapping",
        "key": "t_uint256",
        "label": "mapping(uint256 => struct MocCore.MintTCParams)",
        "numberOfBytes": "32",
        "value": "t_struct(MintTCParams)14336_storage"
      },
      "t_mapping(t_uint256,t_struct(MintTCandTPParams)13363_storage)": {
        "encoding": "mapping",
        "key": "t_uint256",
        "label": "mapping(uint256 => struct MocCommons.MintTCandTPParams)",
        "numberOfBytes": "32",
        "value": "t_struct(MintTCandTPParams)13363_storage"
      },
      "t_mapping(t_uint256,t_struct(MintTPParams)14588_storage)": {
        "encoding": "mapping",
        "key": "t_uint256",
        "label": "mapping(uint256 => struct MocCore.MintTPParams)",
        "numberOfBytes": "32",
        "value": "t_struct(MintTPParams)14588_storage"
      },
      "t_mapping(t_uint256,t_struct(OperInfo)26607_storage)": {
        "encoding": "mapping",
        "key": "t_uint256",
        "label": "mapping(uint256 => struct MocQueue.OperInfo)",
        "numberOfBytes": "32",
        "value": "t_struct(OperInfo)26607_storage"
      },
      "t_mapping(t_uint256,t_struct(RedeemTCParams)14462_storage)": {
        "encoding": "mapping",
        "key": "t_uint256",
        "label": "mapping(uint256 => struct MocCore.RedeemTCParams)",
        "numberOfBytes": "32",
        "value": "t_struct(RedeemTCParams)14462_storage"
      },
      "t_mapping(t_uint256,t_struct(RedeemTCandTPParams)13378_storage)": {
        "encoding": "mapping",
        "key": "t_uint256",
        "label": "mapping(uint256 => struct MocCommons.RedeemTCandTPParams)",
        "numberOfBytes": "32",
        "value": "t_struct(RedeemTCandTPParams)13378_storage"
      },
      "t_mapping(t_uint256,t_struct(RedeemTPParams)13438_storage)": {
        "encoding": "mapping",
        "key": "t_uint256",
        "label": "mapping(uint256 => struct MocCommons.RedeemTPParams)",
        "numberOfBytes": "32",
        "value": "t_struct(RedeemTPParams)13438_storage"
      },
      "t_mapping(t_uint256,t_struct(SwapTCforTPParams)13425_storage)": {
        "encoding": "mapping",
        "key": "t_uint256",
        "label": "mapping(uint256 => struct MocCommons.SwapTCforTPParams)",
        "numberOfBytes": "32",
        "value": "t_struct(SwapTCforTPParams)13425_storage"
      },
      "t_mapping(t_uint256,t_struct(SwapTPforTCParams)13410_storage)": {
        "encoding": "mapping",
        "key": "t_uint256",
        "label": "mapping(uint256 => struct MocCommons.SwapTPforTCParams)",
        "numberOfBytes": "32",
        "value": "t_struct(SwapTPforTCParams)13410_storage"
      },
      "t_mapping(t_uint256,t_struct(SwapTPforTPParams)13395_storage)": {
        "encoding": "mapping",
        "key": "t_uint256",
        "label": "mapping(uint256 => struct MocCommons.SwapTPforTPParams)",
        "numberOfBytes": "32",
        "value": "t_struct(SwapTPforTPParams)13395_storage"
      },
      "t_struct(MintTCParams)14336_storage": {
        "encoding": "inplace",
        "label": "struct MocCore.MintTCParams",
        "members": [
          {
            "astId": 14327,
            "contract": "contracts/queue/MocQueue.sol:MocQueue",
            "label": "qTC",
            "offset": 0,
            "slot": "0",
            "type": "t_uint256"
          },
          {
            "astId": 14329,
            "contract": "contracts/queue/MocQueue.sol:MocQueue",
            "label": "qACmax",
            "offset": 0,
            "slot": "1",
            "type": "t_uint256"
          },
          {
            "astId": 14331,
            "contract": "contracts/queue/MocQueue.sol:MocQueue",
            "label": "sender",
            "offset": 0,
            "slot": "2",
            "type": "t_address"
          },
          {
            "astId": 14333,
            "contract": "contracts/queue/MocQueue.sol:MocQueue",
            "label": "recipient",
            "offset": 0,
            "slot": "3",
            "type": "t_address"
          },
          {
            "astId": 14335,
            "contract": "contracts/queue/MocQueue.sol:MocQueue",
            "label": "vendor",
            "offset": 0,
            "slot": "4",
            "type": "t_address"
          }
        ],
        "numberOfBytes": "160"
      },
      "t_struct(MintTCandTPParams)13363_storage": {
        "encoding": "inplace",
        "label": "struct MocCommons.MintTCandTPParams",
        "members": [
          {
            "astId": 13352,
            "contract": "contracts/queue/MocQueue.sol:MocQueue",
            "label": "tp",
            "offset": 0,
            "slot": "0",
            "type": "t_address"
          },
          {
            "astId": 13354,
            "contract": "contracts/queue/MocQueue.sol:MocQueue",
            "label": "qTP",
            "offset": 0,
            "slot": "1",
            "type": "t_uint256"
          },
          {
            "astId": 13356,
            "contract": "contracts/queue/MocQueue.sol:MocQueue",
            "label": "qACmax",
            "offset": 0,
            "slot": "2",
            "type": "t_uint256"
          },
          {
            "astId": 13358,
            "contract": "contracts/queue/MocQueue.sol:MocQueue",
            "label": "sender",
            "offset": 0,
            "slot": "3",
            "type": "t_address"
          },
          {
            "astId": 13360,
            "contract": "contracts/queue/MocQueue.sol:MocQueue",
            "label": "recipient",
            "offset": 0,
            "slot": "4",
            "type": "t_address"
          },
          {
            "astId": 13362,
            "contract": "contracts/queue/MocQueue.sol:MocQueue",
            "label": "vendor",
            "offset": 0,
            "slot": "5",
            "type": "t_address"
          }
        ],
        "numberOfBytes": "192"
      },
      "t_struct(MintTPParams)14588_storage": {
        "encoding": "inplace",
        "label": "struct MocCore.MintTPParams",
        "members": [
          {
            "astId": 14577,
            "contract": "contracts/queue/MocQueue.sol:MocQueue",
            "label": "tp",
            "offset": 0,
            "slot": "0",
            "type": "t_address"
          },
          {
            "astId": 14579,
            "contract": "contracts/queue/MocQueue.sol:MocQueue",
            "label": "qTP",
            "offset": 0,
            "slot": "1",
            "type": "t_uint256"
          },
          {
            "astId": 14581,
            "contract": "contracts/queue/MocQueue.sol:MocQueue",
            "label": "qACmax",
            "offset": 0,
            "slot": "2",
            "type": "t_uint256"
          },
          {
            "astId": 14583,
            "contract": "contracts/queue/MocQueue.sol:MocQueue",
            "label": "sender",
            "offset": 0,
            "slot": "3",
            "type": "t_address"
          },
          {
            "astId": 14585,
            "contract": "contracts/queue/MocQueue.sol:MocQueue",
            "label": "recipient",
            "offset": 0,
            "slot": "4",
            "type": "t_address"
          },
          {
            "astId": 14587,
            "contract": "contracts/queue/MocQueue.sol:MocQueue",
            "label": "vendor",
            "offset": 0,
            "slot": "5",
            "type": "t_address"
          }
        ],
        "numberOfBytes": "192"
      },
      "t_struct(OperInfo)26607_storage": {
        "encoding": "inplace",
        "label": "struct MocQueue.OperInfo",
        "members": [
          {
            "astId": 26604,
            "contract": "contracts/queue/MocQueue.sol:MocQueue",
            "label": "operType",
            "offset": 0,
            "slot": "0",
            "type": "t_enum(OperType)29145"
          },
          {
            "astId": 26606,
            "contract": "contracts/queue/MocQueue.sol:MocQueue",
            "label": "queuedBlk",
            "offset": 1,
            "slot": "0",
            "type": "t_uint248"
          }
        ],
        "numberOfBytes": "32"
      },
      "t_struct(RedeemTCParams)14462_storage": {
        "encoding": "inplace",
        "label": "struct MocCore.RedeemTCParams",
        "members": [
          {
            "astId": 14453,
            "contract": "contracts/queue/MocQueue.sol:MocQueue",
            "label": "qTC",
            "offset": 0,
            "slot": "0",
            "type": "t_uint256"
          },
          {
            "astId": 14455,
            "contract": "contracts/queue/MocQueue.sol:MocQueue",
            "label": "qACmin",
            "offset": 0,
            "slot": "1",
            "type": "t_uint256"
          },
          {
            "astId": 14457,
            "contract": "contracts/queue/MocQueue.sol:MocQueue",
            "label": "sender",
            "offset": 0,
            "slot": "2",
            "type": "t_address"
          },
          {
            "astId": 14459,
            "contract": "contracts/queue/MocQueue.sol:MocQueue",
            "label": "recipient",
            "offset": 0,
            "slot": "3",
            "type": "t_address"
          },
          {
            "astId": 14461,
            "contract": "contracts/queue/MocQueue.sol:MocQueue",
            "label": "vendor",
            "offset": 0,
            "slot": "4",
            "type": "t_address"
          }
        ],
        "numberOfBytes": "160"
      },
      "t_struct(RedeemTCandTPParams)13378_storage": {
        "encoding": "inplace",
        "label": "struct MocCommons.RedeemTCandTPParams",
        "members": [
          {
            "astId": 13365,
            "contract": "contracts/queue/MocQueue.sol:MocQueue",
            "label": "tp",
            "offset": 0,
            "slot": "0",
            "type": "t_address"
          },
          {
            "astId": 13367,
            "contract": "contracts/queue/MocQueue.sol:MocQueue",
            "label": "qTC",
            "offset": 0,
            "slot": "1",
            "type": "t_uint256"
          },
          {
            "astId": 13369,
            "contract": "contracts/queue/MocQueue.sol:MocQueue",
            "label": "qTP",
            "offset": 0,
            "slot": "2",
            "type": "t_uint256"
          },
          {
            "astId": 13371,
            "contract": "contracts/queue/MocQueue.sol:MocQueue",
            "label": "qACmin",
            "offset": 0,
            "slot": "3",
            "type": "t_uint256"
          },
          {
            "astId": 13373,
            "contract": "contracts/queue/MocQueue.sol:MocQueue",
            "label": "sender",
            "offset": 0,
            "slot": "4",
            "type": "t_address"
          },
          {
            "astId": 13375,
            "contract": "contracts/queue/MocQueue.sol:MocQueue",
            "label": "recipient",
            "offset": 0,
            "slot": "5",
            "type": "t_address"
          },
          {
            "astId": 13377,
            "contract": "contracts/queue/MocQueue.sol:MocQueue",
            "label": "vendor",
            "offset": 0,
            "slot": "6",
            "type": "t_address"
          }
        ],
        "numberOfBytes": "224"
      },
      "t_struct(RedeemTPParams)13438_storage": {
        "encoding": "inplace",
        "label": "struct MocCommons.RedeemTPParams",
        "members": [
          {
            "astId": 13427,
            "contract": "contracts/queue/MocQueue.sol:MocQueue",
            "label": "tp",
            "offset": 0,
            "slot": "0",
            "type": "t_address"
          },
          {
            "astId": 13429,
            "contract": "contracts/queue/MocQueue.sol:MocQueue",
            "label": "qTP",
            "offset": 0,
            "slot": "1",
            "type": "t_uint256"
          },
          {
            "astId": 13431,
            "contract": "contracts/queue/MocQueue.sol:MocQueue",
            "label": "qACmin",
            "offset": 0,
            "slot": "2",
            "type": "t_uint256"
          },
          {
            "astId": 13433,
            "contract": "contracts/queue/MocQueue.sol:MocQueue",
            "label": "sender",
            "offset": 0,
            "slot": "3",
            "type": "t_address"
          },
          {
            "astId": 13435,
            "contract": "contracts/queue/MocQueue.sol:MocQueue",
            "label": "recipient",
            "offset": 0,
            "slot": "4",
            "type": "t_address"
          },
          {
            "astId": 13437,
            "contract": "contracts/queue/MocQueue.sol:MocQueue",
            "label": "vendor",
            "offset": 0,
            "slot": "5",
            "type": "t_address"
          }
        ],
        "numberOfBytes": "192"
      },
      "t_struct(RoleData)179_storage": {
        "encoding": "inplace",
        "label": "struct AccessControlUpgradeable.RoleData",
        "members": [
          {
            "astId": 176,
            "contract": "contracts/queue/MocQueue.sol:MocQueue",
            "label": "members",
            "offset": 0,
            "slot": "0",
            "type": "t_mapping(t_address,t_bool)"
          },
          {
            "astId": 178,
            "contract": "contracts/queue/MocQueue.sol:MocQueue",
            "label": "adminRole",
            "offset": 0,
            "slot": "1",
            "type": "t_bytes32"
          }
        ],
        "numberOfBytes": "64"
      },
      "t_struct(SwapTCforTPParams)13425_storage": {
        "encoding": "inplace",
        "label": "struct MocCommons.SwapTCforTPParams",
        "members": [
          {
            "astId": 13412,
            "contract": "contracts/queue/MocQueue.sol:MocQueue",
            "label": "tp",
            "offset": 0,
            "slot": "0",
            "type": "t_address"
          },
          {
            "astId": 13414,
            "contract": "contracts/queue/MocQueue.sol:MocQueue",
            "label": "qTC",
            "offset": 0,
            "slot": "1",
            "type": "t_uint256"
          },
          {
            "astId": 13416,
            "contract": "contracts/queue/MocQueue.sol:MocQueue",
            "label": "qTPmin",
            "offset": 0,
            "slot": "2",
            "type": "t_uint256"
          },
          {
            "astId": 13418,
            "contract": "contracts/queue/MocQueue.sol:MocQueue",
            "label": "qACmax",
            "offset": 0,
            "slot": "3",
            "type": "t_uint256"
          },
          {
            "astId": 13420,
            "contract": "contracts/queue/MocQueue.sol:MocQueue",
            "label": "sender",
            "offset": 0,
            "slot": "4",
            "type": "t_address"
          },
          {
            "astId": 13422,
            "contract": "contracts/queue/MocQueue.sol:MocQueue",
            "label": "recipient",
            "offset": 0,
            "slot": "5",
            "type": "t_address"
          },
          {
            "astId": 13424,
            "contract": "contracts/queue/MocQueue.sol:MocQueue",
            "label": "vendor",
            "offset": 0,
            "slot": "6",
            "type": "t_address"
          }
        ],
        "numberOfBytes": "224"
      },
      "t_struct(SwapTPforTCParams)13410_storage": {
        "encoding": "inplace",
        "label": "struct MocCommons.SwapTPforTCParams",
        "members": [
          {
            "astId": 13397,
            "contract": "contracts/queue/MocQueue.sol:MocQueue",
            "label": "tp",
            "offset": 0,
            "slot": "0",
            "type": "t_address"
          },
          {
            "astId": 13399,
            "contract": "contracts/queue/MocQueue.sol:MocQueue",
            "label": "qTP",
            "offset": 0,
            "slot": "1",
            "type": "t_uint256"
          },
          {
            "astId": 13401,
            "contract": "contracts/queue/MocQueue.sol:MocQueue",
            "label": "qTCmin",
            "offset": 0,
            "slot": "2",
            "type": "t_uint256"
          },
          {
            "astId": 13403,
            "contract": "contracts/queue/MocQueue.sol:MocQueue",
            "label": "qACmax",
            "offset": 0,
            "slot": "3",
            "type": "t_uint256"
          },
          {
            "astId": 13405,
            "contract": "contracts/queue/MocQueue.sol:MocQueue",
            "label": "sender",
            "offset": 0,
            "slot": "4",
            "type": "t_address"
          },
          {
            "astId": 13407,
            "contract": "contracts/queue/MocQueue.sol:MocQueue",
            "label": "recipient",
            "offset": 0,
            "slot": "5",
            "type": "t_address"
          },
          {
            "astId": 13409,
            "contract": "contracts/queue/MocQueue.sol:MocQueue",
            "label": "vendor",
            "offset": 0,
            "slot": "6",
            "type": "t_address"
          }
        ],
        "numberOfBytes": "224"
      },
      "t_struct(SwapTPforTPParams)13395_storage": {
        "encoding": "inplace",
        "label": "struct MocCommons.SwapTPforTPParams",
        "members": [
          {
            "astId": 13380,
            "contract": "contracts/queue/MocQueue.sol:MocQueue",
            "label": "tpFrom",
            "offset": 0,
            "slot": "0",
            "type": "t_address"
          },
          {
            "astId": 13382,
            "contract": "contracts/queue/MocQueue.sol:MocQueue",
            "label": "tpTo",
            "offset": 0,
            "slot": "1",
            "type": "t_address"
          },
          {
            "astId": 13384,
            "contract": "contracts/queue/MocQueue.sol:MocQueue",
            "label": "qTP",
            "offset": 0,
            "slot": "2",
            "type": "t_uint256"
          },
          {
            "astId": 13386,
            "contract": "contracts/queue/MocQueue.sol:MocQueue",
            "label": "qTPmin",
            "offset": 0,
            "slot": "3",
            "type": "t_uint256"
          },
          {
            "astId": 13388,
            "contract": "contracts/queue/MocQueue.sol:MocQueue",
            "label": "qACmax",
            "offset": 0,
            "slot": "4",
            "type": "t_uint256"
          },
          {
            "astId": 13390,
            "contract": "contracts/queue/MocQueue.sol:MocQueue",
            "label": "sender",
            "offset": 0,
            "slot": "5",
            "type": "t_address"
          },
          {
            "astId": 13392,
            "contract": "contracts/queue/MocQueue.sol:MocQueue",
            "label": "recipient",
            "offset": 0,
            "slot": "6",
            "type": "t_address"
          },
          {
            "astId": 13394,
            "contract": "contracts/queue/MocQueue.sol:MocQueue",
            "label": "vendor",
            "offset": 0,
            "slot": "7",
            "type": "t_address"
          }
        ],
        "numberOfBytes": "256"
      },
      "t_uint128": {
        "encoding": "inplace",
        "label": "uint128",
        "numberOfBytes": "16"
      },
      "t_uint248": {
        "encoding": "inplace",
        "label": "uint248",
        "numberOfBytes": "31"
      },
      "t_uint256": {
        "encoding": "inplace",
        "label": "uint256",
        "numberOfBytes": "32"
      },
      "t_uint8": {
        "encoding": "inplace",
        "label": "uint8",
        "numberOfBytes": "1"
      }
    }
  },
  "userdoc": {
    "kind": "user",
    "methods": {
      "changeGovernor(address)": {
        "notice": "Change the contract's governor. Should be called through the old governance system"
      },
      "execute(address)": {
        "notice": "registered executors can process Operations in the queue"
      },
      "getAndVerifyExecFee(uint8,uint256)": {
        "notice": "get execution fee for the operation requested  reverts if value sent is not enough to pay the execution fee"
      },
      "governor()": {
        "notice": "The address of the contract which governs this one"
      },
      "isEmpty()": {
        "notice": "true if the queue is empty"
      },
      "makeStoppable()": {
        "notice": "Switches ON the stoppability of the contract; if the contract was paused before making it unstoppable it will be paused again after calling this function"
      },
      "makeUnstoppable()": {
        "notice": "Switches OFF the stoppability of the contract; if the contract was paused it will no longer be so"
      },
      "pause()": {
        "notice": "Called by the owner to pause, triggers stopped state"
      },
      "paused()": {
        "notice": "Returns true if paused"
      },
      "queueMintTC((uint256,uint256,address,address,address))": {
        "notice": "registered enqueuer can queue an Operations"
      },
      "queueMintTCandTP((address,uint256,uint256,address,address,address))": {
        "notice": "Registered enqueuer can queue an Operations"
      },
      "queueMintTP((address,uint256,uint256,address,address,address))": {
        "notice": "registered enqueuer can queue an Operations"
      },
      "queueRedeemTC((uint256,uint256,address,address,address))": {
        "notice": "registered enqueuer can queue an Operations"
      },
      "queueRedeemTCandTP((address,uint256,uint256,uint256,address,address,address))": {
        "notice": "Registered enqueuer can queue an Operations"
      },
      "queueRedeemTP((address,uint256,uint256,address,address,address))": {
        "notice": "Registered enqueuer can queue an Operations"
      },
      "queueSwapTCforTP((address,uint256,uint256,uint256,address,address,address))": {
        "notice": "Registered enqueuer can queue an Operations"
      },
      "queueSwapTPforTC((address,uint256,uint256,uint256,address,address,address))": {
        "notice": "Registered enqueuer can queue an Operations"
      },
      "queueSwapTPforTP((address,address,uint256,uint256,uint256,address,address,address))": {
        "notice": "Registered enqueuer can queue an Operations"
      },
      "readyToExecute()": {
        "notice": "true if the queue has at least one Operation ready to be executed"
      },
      "registerBucket(address)": {
        "notice": "registers the mocOperations bucket that would operate over this queue"
      },
      "setMaxOperPerBatch(uint128)": {
        "notice": "sets Moc Queue maximum amount of operations per execution batch"
      },
      "setMinOperWaitingBlk(uint128)": {
        "notice": "sets Moc Queue minimum operation waiting blocks"
      },
      "setPauser(address)": {
        "notice": "Changes the address which is enable to pause this contract"
      },
      "unpause()": {
        "notice": "Called by the owner to unpause, returns to normal state"
      }
    },
    "version": 1
  }
}