{
  "contractName": "EchidnaMocCoreTester",
  "sourceName": "contracts/echidna/EchidnaMocCoreTester.sol",
  "abi": [
    {
      "inputs": [],
      "stateMutability": "payable",
      "type": "constructor"
    },
    {
      "inputs": [
        {
          "components": [
            {
              "internalType": "address",
              "name": "tpTokenAddress",
              "type": "address"
            },
            {
              "internalType": "address",
              "name": "priceProviderAddress",
              "type": "address"
            },
            {
              "internalType": "uint256",
              "name": "tpCtarg",
              "type": "uint256"
            },
            {
              "internalType": "uint256",
              "name": "tpMintFee",
              "type": "uint256"
            },
            {
              "internalType": "uint256",
              "name": "tpRedeemFee",
              "type": "uint256"
            },
            {
              "internalType": "uint256",
              "name": "tpEma",
              "type": "uint256"
            },
            {
              "internalType": "uint256",
              "name": "tpEmaSf",
              "type": "uint256"
            }
          ],
          "internalType": "struct PeggedTokenParams",
          "name": "peggedTokenParams_",
          "type": "tuple"
        },
        {
          "internalType": "uint96",
          "name": "price_",
          "type": "uint96"
        }
      ],
      "name": "addPeggedToken",
      "outputs": [],
      "stateMutability": "nonpayable",
      "type": "function"
    },
    {
      "inputs": [],
      "name": "echidna_balance_not_drained",
      "outputs": [
        {
          "internalType": "bool",
          "name": "",
          "type": "bool"
        }
      ],
      "stateMutability": "view",
      "type": "function"
    },
    {
      "inputs": [],
      "name": "echidna_storage_consistency",
      "outputs": [
        {
          "internalType": "bool",
          "name": "",
          "type": "bool"
        }
      ],
      "stateMutability": "nonpayable",
      "type": "function"
    },
    {
      "inputs": [],
      "name": "execSettlement",
      "outputs": [],
      "stateMutability": "nonpayable",
      "type": "function"
    },
    {
      "inputs": [
        {
          "internalType": "uint256",
          "name": "qTC_",
          "type": "uint256"
        },
        {
          "internalType": "uint256",
          "name": "qACmax_",
          "type": "uint256"
        }
      ],
      "name": "mintTC",
      "outputs": [],
      "stateMutability": "nonpayable",
      "type": "function"
    },
    {
      "inputs": [
        {
          "internalType": "uint256",
          "name": "i_",
          "type": "uint256"
        },
        {
          "internalType": "uint256",
          "name": "qTP_",
          "type": "uint256"
        }
      ],
      "name": "mintTCandTP",
      "outputs": [],
      "stateMutability": "nonpayable",
      "type": "function"
    },
    {
      "inputs": [
        {
          "internalType": "uint256",
          "name": "i_",
          "type": "uint256"
        },
        {
          "internalType": "uint256",
          "name": "qTP_",
          "type": "uint256"
        },
        {
          "internalType": "uint256",
          "name": "qACmax_",
          "type": "uint256"
        }
      ],
      "name": "mintTP",
      "outputs": [],
      "stateMutability": "nonpayable",
      "type": "function"
    },
    {
      "inputs": [
        {
          "internalType": "uint256",
          "name": "qTC_",
          "type": "uint256"
        }
      ],
      "name": "operTCWithoutBalance",
      "outputs": [],
      "stateMutability": "nonpayable",
      "type": "function"
    },
    {
      "inputs": [
        {
          "internalType": "uint256",
          "name": "i_",
          "type": "uint256"
        },
        {
          "internalType": "uint96",
          "name": "price_",
          "type": "uint96"
        }
      ],
      "name": "pokePrice",
      "outputs": [],
      "stateMutability": "nonpayable",
      "type": "function"
    },
    {
      "inputs": [
        {
          "internalType": "uint256",
          "name": "qTC_",
          "type": "uint256"
        }
      ],
      "name": "redeemTC",
      "outputs": [],
      "stateMutability": "nonpayable",
      "type": "function"
    },
    {
      "inputs": [
        {
          "internalType": "uint256",
          "name": "i_",
          "type": "uint256"
        },
        {
          "internalType": "uint256",
          "name": "qTC_",
          "type": "uint256"
        },
        {
          "internalType": "uint256",
          "name": "qTP_",
          "type": "uint256"
        }
      ],
      "name": "redeemTCandTP",
      "outputs": [],
      "stateMutability": "nonpayable",
      "type": "function"
    },
    {
      "inputs": [
        {
          "internalType": "uint256",
          "name": "i_",
          "type": "uint256"
        },
        {
          "internalType": "uint256",
          "name": "qTP_",
          "type": "uint256"
        }
      ],
      "name": "redeemTP",
      "outputs": [],
      "stateMutability": "nonpayable",
      "type": "function"
    }
  ],
  "bytecode": "0x60806040819052600980546001600160a01b0319908116600117909155600a805482166002179055905f906101bd808201906001600160401b0382118383101762000e6e579082916201252c8339039082f0801562000dbe576001805484166001600160a01b039290921691909117905560405161100390818101906001600160401b0382118183101762000e6e5780620113959284848339039084f0801562000c71576006805486166001600160a01b039290921691909117905560405191808301916001600160401b0383118484101762000e9657908392918339039082f0801562000dbe576002805484166001600160a01b039290921691909117905560405161019481016001600160401b0381118282101762000e825781602091610194620123988339670de0b6b3a7640000815203019082f0801562000dbe576003805484166001600160a01b0392909216919091179055604051610196808201906001600160401b0382118383101762000e6e576020918391620111ff83395f19815203019082f0801562000dbe576004805484166001600160a01b03929092169190911790556040516124c7808201906001600160401b0382118383101762000e6e57908291620149478339039082f0801562000dbe576001600160a01b0390620001ed90821662000f17565b16826005541617600555604051615fdf8082019082821060018060401b0383111762000e6e57908291620072938339039082f0801562000dbe576001600160a01b03906200023d90821662000f17565b825484169116178155604051613f8d808201906001600160401b0382118383101762000e6e579082916200d2728339039082f0801562000dbe576008805484166001600160a01b03929092169190911790556040516110198082019391906001600160401b0385118286101762000e6e578394829162016e0e8339039083f0801562000cb2576001600160a01b0390620002d990821662000f17565b168091600754161760075560018060a01b0360015416813b1562000d2057829160648392604051958693849263c0c53b8b60e01b845233600485015260248401523360448401525af1801562000dbe5762000e5b575b6005546001549192506001600160a01b039081169116813b1562000d20578291610104839260405194859384926323c56d0560e21b84526080600485015260076084850152662a21aa37b5b2b760c91b60a485015260c06024850152600260c485015261544360f01b60e485015230604485015260648401525af1801562000cb25762000e42575b50600254600354600554600954600a54600454604051956001600160a01b039182169593821694928216939282169282169116620003f86103208862000eaa565b8652602086015260408501528160608501526080840152671bc16d674ec8000060a0840152670de0b6b3a764000060c08401526702c68af0bb14000060e084015266b1a2bc2ec5000061010084015266b1a2bc2ec50000610120840152662386f26fc10000610140840152662386f26fc10000610160840152662386f26fc1000061018084015267011c37937e0800006101a084015267011c37937e0800006101c08401526706f05b59d3b200006101e084015267016345785d8a00006102008401526706f05b59d3b2000061022084015262278d0061024084015261026083015267016345785d8a000061028083015262093a806102a0830152806102c08301526102e08201526102d061030082015260018060a01b036001541660018060a01b036008541660018060a01b036007541691604051936200053c60c08662000eaa565b84526020840152336040840152606083015262015180608083015260a082015260018060a01b0360065416604051916200057860408462000eaa565b8252602082015281546001600160a01b031690813b1562000d2057604080516307e8ce8b60e01b81528251805180516001600160a01b039081166004850152602080830151821660248601528286015182166044860152606080840151831660648701526080808501518416608488015260a08086015160a489015260c086015160c489015260e086015160e48901526101008601516101048901526101208601516101248901526101408601516101448901526101608601516101648901526101808601516101848901526101a08601516101a48901526101c08601516101c48901526101e08601516101e489015261020086015161020489015261022086015161022489015261024086015161024489015261026086015185166102648901526102808601516102848901526102a08601516102a48901526102c086015185166102c48901526102e086015185166102e48901526103009095015161030488015282860151841661032488015296850151831661034487015284015182166103648601529483015161038485015291015181166103a48301529190920151166103c482015290829082906103e490829084905af1801562000cb25762000e29575b5060055481546001600160a01b039182169116813b1562000d205782916024839260405194859384926383d2230d60e01b845260048401525af1801562000cb25762000e10575b5050604051906200079560e08362000eaa565b808252806020830152674563918244f40000604083015266b1a2bc2ec50000606083015266b1a2bc2ec500006080830152680b7e174cc69ed0000060a083015266b1a2bc2ec5000060c08301526005600b54101562000dcb576040516001600160401b0361225e82019081119082111762000d895761225e620126e982398061225e8101039082f0801562000dbe576001600160a01b03906200083a90821662000f17565b825460015492909116916001600160a01b039182169116823b1562000dba57604051916323c56d0560e21b83526080600484015260076084840152662a282a37b5b2b760c91b60a484015260c06024840152600260c484015261054560f41b60e48401526044830152606482015282816101048183865af1801562000c715790839162000d9d575b50508252670de0b6b3a76400006060830151066060830152670de0b6b3a76400006080830151066080830152604051918261019481011060018060401b036101948501111762000d89578192610194620123988239680cbd47b6eaa8cc0001610194820152602081610194810103019083f0801562000cb2576001600160a01b03908116602083015282541690813b1562000d205760408051636dbcb03960e11b815282516001600160a01b0390811660048301526020840151166024820152908201516044820152606082015160648201526080820151608482015260a082015160a482015260c09091015160c4820152908290829060e490829084905af1801562000cb25762000d70575b5050600b545f19811462000d5c57600101600b556006546040516318160ddd60e01b815282916001600160a01b031690602081600481855afa90811562000c7157839162000d24575b50813b1562000d205782916044839260405194859384926340c10f1960e01b84523060048501521960248401525af1801562000cb25762000d04575b5050600654815460405163095ea7b360e01b8082526001600160a01b03928316600483015269065a4da25d3016c00000602483018190529094939092602091839160449183918891165af1801562000c715791604091849362000ce0575b5082548251630176fec160e31b815268a2a15d09519be00000600482015260248101929092529092839160449183916001600160a01b03165af1801562000cb25762000cbd575b5060065481546040519384526001600160a01b039081166004850152683635c9adc5dea00000602485018190529391602091839160449183918791165af1801562000cb25762000c7c575b508054604051627c6da160e21b8152600481018390526001600160a01b039091169290602081602481875afa90811562000c7157839162000c23575b506040805163484ad7cd60e01b81526001600160a01b0390921660048301526904f9f00373a9efb0000060248301526044820192909252928390606490829085905af190811562000c17575062000be2575b604051615f2e908162000f748239f35b62000c089060403d60401162000c0f575b62000bff818362000eaa565b81019062000f00565b5062000bd2565b503d62000bf3565b604051903d90823e3d90fd5b90506020813d60201162000c68575b8162000c416020938362000eaa565b8101031262000c6457516001600160a01b038116810362000c6457606462000b80565b8280fd5b3d915062000c32565b6040513d85823e3d90fd5b62000ca29060203d60201162000caa575b62000c99818362000eaa565b81019062000ee2565b505f62000b44565b503d62000c8d565b6040513d84823e3d90fd5b62000cd99060403d60401162000c0f5762000bff818362000eaa565b5062000af9565b62000cfc9060203d60201162000caa5762000c99818362000eaa565b505f62000ab2565b8162000d109162000eaa565b62000d1d57805f62000a54565b80fd5b5050fd5b90506020813d60201162000d53575b8162000d426020938362000eaa565b8101031262000d2057515f62000a18565b3d915062000d33565b634e487b7160e01b82526011600452602482fd5b8162000d7c9162000eaa565b62000d1d57805f620009cf565b634e487b7160e01b82526041600452602482fd5b8162000da99162000eaa565b62000db657815f620008c2565b5080fd5b8380fd5b50604051903d90823e3d90fd5b60405162461bcd60e51b815260206004820152601460248201527f6d617820545020616c72656164792061646465640000000000000000000000006044820152606490fd5b8162000e1c9162000eaa565b62000d1d57805f62000782565b8162000e359162000eaa565b62000d1d57805f6200073b565b8162000e4e9162000eaa565b62000d1d57805f620003b7565b62000e669162000eaa565b5f816200032f565b634e487b7160e01b84526041600452602484fd5b634e487b7160e01b83526041600452602483fd5b634e487b7160e01b85526041600452602485fd5b601f909101601f19168101906001600160401b0382119082101762000ece57604052565b634e487b7160e01b5f52604160045260245ffd5b9081602091031262000efc5751801515810362000efc5790565b5f80fd5b919082604091031262000efc576020825192015190565b6040516103f1808201906001600160401b0382118383101762000ece57606091839162006ea2833960018060a01b038095168152604060208201525f60408201520301905ff0801562000f68571690565b6040513d5f823e3d90fdfe608080604052600436101562000013575f80fd5b5f90813560e01c9081630bb7f6081462002bd657508063181770da146200253e57806324035d3814620021c25780633295b14f14620020e35780634530bbb01462001b945780635c616a731462001b2e5780637e6a2abe14620016a257806385ec867814620011b75780639423af0b1462000e2257806398cdb3fc1462000c30578063ac4fc1a814620005d45763f407600514620000af575f80fd5b34620005d1576020366003190112620005d157620000cc620032a6565b608081015180620000db578280f35b620000e99060043562003116565b600181018111620005bd578151835460405163198804fd60e21b81526001600160a01b039182169486939091906020826004818a5afa918215620003eb57859262000580575b501093841562000504575b604084966044825180978193639abb14c960e01b83526001870160048401528160248401525af1879481620004cb575b50620001b95750505050905060019062000186600c5462003162565b600c555b620001a7575b50620001a1604b600c541062003206565b5f808280f35b620001b29062003206565b5f62000190565b620001c3620032a6565b92670de0b6b3a7640000620001e0602085015160018501620031a8565b049088541694604051632ba80e3760e21b81526020816004818a5afa8015620004c0578a9062000485575b62000218915083620031a8565b60405163278793f760e11b81526020816004818b5afa90811562000442578b916200044d575b50670de0b6b3a764000081810311620003f6576ec097ce7bc90715b34b9f1000000000916200027891670de0b6b3a76400000390620031a8565b0491604051632ba80e3760e21b81526020816004818b5afa90811562000442578b916200040a575b50670de0b6b3a76400000390670de0b6b3a76400008211620003f657936200034260016200030362000365966200032760209a976200030b8560049f9e9c670de0b6b3a7640000620002fb6200035a9c6200030393620031a8565b0484620031f8565b111562003206565b6200032060408c01519160408b01516200319a565b1462003206565b6200033c60608a0151606089015190620031f8565b620031f8565b620003206001608087015192016080850151620031f8565b518251111562003206565b51916040519384809263198804fd60e21b82525afa908115620003eb578591620003aa575b620003989250101562003206565b620003a4811562003206565b6200018a565b90506020823d602011620003e2575b81620003c860209383620030df565b81010312620003de57620003989151906200038a565b5f80fd5b3d9150620003b9565b6040513d87823e3d90fd5b634e487b7160e01b8b52601160045260248bfd5b90506020813d60201162000439575b816200042860209383620030df565b81010312620003de57515f620002a0565b3d915062000419565b6040513d8d823e3d90fd5b90506020813d6020116200047c575b816200046b60209383620030df565b81010312620003de57515f6200023e565b3d91506200045c565b506020813d602011620004b7575b81620004a260209383620030df565b81010312620003de576200021890516200020b565b3d915062000493565b6040513d8c823e3d90fd5b620004f391955060403d604011620004fc575b620004ea8183620030df565b810190620031e1565b50935f6200016a565b503d620004de565b60405163200bc9b560e11b8152909450602081600481895afa908115620005755784916200053a575b506001850113936200013a565b9350506020833d6020116200056c575b816200055960209383620030df565b81010312620003de578592515f6200052d565b3d91506200054a565b6040513d86823e3d90fd5b945090506020843d602011620005b4575b81620005a060209383620030df565b81010312620003de57869351905f6200012f565b3d915062000591565b634e487b7160e01b83526011600452602483fd5b80fd5b5034620005d1576040366003190112620003de57620005f8600b5460043562003116565b6006546040516370a0823160e01b815230600482015291906001600160a01b0316602083602481845afa9283156200057557849362000bf5575b50835460405163095ea7b360e01b81526001600160a01b03909116600482015260248101849052906020908290604490829088905af18015620005755762000bbf575b508254604051627c6da160e21b815260048101929092526001600160a01b0316908390602081602481865afa90811562000bb457829162000b7e575b506001600160a01b031692620006c784620034eb565b92620006d2620032a6565b8051916040519363198804fd60e21b8552602085600481855afa94851562000b7357869562000b33575b506040516344719ee960e01b81526001600160a01b0389166004820152602480359082015260448101919091529460609186916064918391905af1808895899262000af8575b506200077357505050505050506200075c600c5462003162565b600c555b62000770604b600c541062003206565b80f35b6200078862000781620032a6565b97620034eb565b96602435670de0b6b3a76400006024350204670de0b6b3a76400001460243515171562000ae457620007f0620007cf6020890151670de0b6b3a764000060243502620031d6565b670de0b6b3a7640000620007e8602087015186620031a8565b04906200319a565b8954604051631e7e6a4760e21b81526001600160a01b0390911697906020816004818c5afa801562000ad9578c9062000a9e575b62000831915083620031a8565b60405163278793f760e11b81526020816004818d5afa90811562000a5b578d9162000a66575b50670de0b6b3a76400008181031162000a0f576ec097ce7bc90715b34b9f1000000000916200089191670de0b6b3a76400000390620031a8565b0491604051631e7e6a4760e21b81526020816004818d5afa90811562000a5b578d9162000a23575b50670de0b6b3a7640000019081670de0b6b3a76400001162000a0f57936200093c60016200030389989662000927620009479b6200032060809962000918606462000303620003209f620002fb8f9e670de0b6b3a764000092620031a8565b6040808a0151930151620031f8565b6200033c606086015160608c015190620031f8565b01519301516200319a565b6200096260808601516200032060243560808801516200319a565b10156200098d57506200097f6200098792515f199251906200325f565b121562003206565b62000760565b9050602060049251916040519384809263198804fd60e21b82525afa90811562000a04578391620009c7575b620009879250101562003206565b90506020823d602011620009fb575b81620009e560209383620030df565b81010312620003de5762000987915190620009b9565b3d9150620009d6565b6040513d85823e3d90fd5b634e487b7160e01b8d52601160045260248dfd5b90506020813d60201162000a52575b8162000a4160209383620030df565b81010312620003de57515f620008b9565b3d915062000a32565b6040513d8f823e3d90fd5b90506020813d60201162000a95575b8162000a8460209383620030df565b81010312620003de57515f62000857565b3d915062000a75565b506020813d60201162000ad0575b8162000abb60209383620030df565b81010312620003de5762000831905162000824565b3d915062000aac565b6040513d8e823e3d90fd5b634e487b7160e01b89526011600452602489fd5b90955062000b21915060603d811162000b2b575b62000b188183620030df565b81019062003243565b5090945f62000742565b503d62000b0c565b955093506020853d60201162000b6a575b8162000b5360209383620030df565b81010312620003de579351879490936060620006fc565b3d915062000b44565b6040513d88823e3d90fd5b62000ba5915060203d60201162000bac575b62000b9c8183620030df565b81019062003222565b5f620006b1565b503d62000b90565b6040513d84823e3d90fd5b62000be59060203d60201162000bed575b62000bdc8183620030df565b810190620031bc565b505f62000675565b503d62000bd0565b9092506020813d60201162000c27575b8162000c1460209383620030df565b81010312620003de575191602062000632565b3d915062000c05565b5034620005d1576020366003190112620005d15760043562000c51620032a6565b670de0b6b3a764000062000c6a602083015184620031a8565b04915f19830192831162000e0e576006548454604051633950935160e01b81526001600160a01b03918216600482015260248101869052909486926020908390604490829087908b165af191821562000a045760409262000deb575b506044868454169183519485938492630176fec160e31b845288600485015260248401525af1908162000dc8575b5062000db457839060808301938185511062000d3e575b82620007708660808762000d3362000d22620032a6565b916040808401519101511462003206565b015190511462003206565b9060446040928454169183519485938492639abb14c960e01b845260048401528160248401525af1908162000d91575b5062000d7d57825f8062000d0b565b634e487b7160e01b83526001600452602483fd5b62000dad9060403d604011620004fc57620004ea8183620030df565b5062000d6e565b634e487b7160e01b84526001600452602484fd5b62000de49060403d604011620004fc57620004ea8183620030df565b5062000cf4565b62000e069060203d811162000bed5762000bdc8183620030df565b505f62000cc6565b634e487b7160e01b84526011600452602484fd5b5034620005d15780600319360112620005d15780546001600160a01b039082908216803b15620011b35781809160046040518094819363388f04d760e21b83525af1801562000bb4576200119a575b505080600654168183541692604051938480936370a0823160e01b8252826004830152602096879160249687915afa90811562000a0457839162001167575b50604051633cc2d58560e21b8152908682600481865afa9182156200057557849262001132575b50149380600554166040519287846004816318160ddd60e01b958682525afa938415620003eb578594620010fd575b50604051637a193c3160e01b8152948886600481855afa958615620010f0578196620010bb575b50959291906001968094600b54935b84871062000f7a57505050505050508362000f6f575b50508162000f66575b506040519015158152f35b90505f62000f5b565b1491505f8062000f52565b9091929394959860405190634b74600160e01b82528a60048301526040828581895afa918215620003eb57859262001082575b508062000fce575b62000fc291509962003162565b95949392919062000f3c565b50604051627c6da160e21b8152600481018b90528c818581895afa908115620003eb578892918e91879162001060575b50600460405180958193888352165afa8015620003eb5785906200102a575b62000fc292501462000fb5565b508c82813d831162001058575b620010438183620030df565b81010312620003de5762000fc291516200101d565b503d62001037565b6200107b9150823d841162000bac5762000b9c8183620030df565b5f62000ffe565b620010aa91925060403d604011620010b3575b620010a18183620030df565b81019062003171565b50905f62000fad565b503d62001095565b9095508881813d8311620010e8575b620010d68183620030df565b81010312620003de5751945f62000f2d565b503d620010ca565b50604051903d90823e3d90fd5b9093508781813d83116200112a575b620011188183620030df565b81010312620003de5751925f62000f06565b503d6200110c565b9091508681813d83116200115f575b6200114d8183620030df565b81010312620003de5751905f62000ed7565b503d62001141565b90508581813d831162001192575b620011818183620030df565b81010312620003de57515f62000eb0565b503d62001175565b81620011a691620030df565b620011b357815f62000e71565b5080fd5b5034620005d1576040366003190112620003de57620011db600b5460043562003116565b8154604051627c6da160e21b815260048101929092526001600160a01b031690602081602481855afa90811562000a045783916200167e575b50620012296001600160a01b038216620034eb565b9160808301518062001239578480f35b620012479060243562003116565b916001830183116200166a57849084519460405194636b5488df60e01b8652602086600481885afa958615620005755784966200162d575b506040805163119ae24d60e21b81526001600160a01b03851660048201526001830160248201526044810186905294958590606490829089905af188948162001606575b5062001314575050505050600191620012de600c5462003162565b600c555b1062001302575b50620012fa604b600c541062003206565b5f8080808480f35b6200130d9062003206565b5f620012e9565b9395936200132b6001600160a01b038416620034eb565b92670de0b6b3a76400006001830102600183018104670de0b6b3a76400001460018401151715620015f25760208401516200136691620031d6565b8954604051630ddb6d1960e41b81526001600160a01b0384811660048301529091169691906020816024818b5afa801562000ad9578c90620015b7575b620013b0915082620031a8565b60405163278793f760e11b81526020816004818c5afa90811562000a5b578d916200157f575b50670de0b6b3a76400008181031162000a0f576ec097ce7bc90715b34b9f1000000000916200141091670de0b6b3a76400000390620031a8565b604051630ddb6d1960e41b81526001600160a01b03909516600486015204926020816024818b5afa90811562000ad9578c9162001547575b50670de0b6b3a76400000390670de0b6b3a7640000821162001533579362000342600162000303620014af966200032760209a976200030b8560049f9e9c670de0b6b3a7640000620002fb620014a39c6200030393620031a8565b82519051111562003206565b519160405193848092636b5488df60e01b82525afa90811562000b73578691620014f6575b620014e29250101562003206565b620014f08282101562003206565b620012e2565b90506020823d6020116200152a575b816200151460209383620030df565b81010312620003de57620014e2915190620014d4565b3d915062001505565b634e487b7160e01b8c52601160045260248cfd5b90506020813d60201162001576575b816200156560209383620030df565b81010312620003de57515f62001448565b3d915062001556565b90506020813d602011620015ae575b816200159d60209383620030df565b81010312620003de57515f620013d6565b3d91506200158e565b506020813d602011620015e9575b81620015d460209383620030df565b81010312620003de57620013b09051620013a3565b3d9150620015c5565b634e487b7160e01b8a52601160045260248afd5b6200162491955060403d604011620004fc57620004ea8183620030df565b50935f620012c3565b935094506020833d60201162001661575b816200164d60209383620030df565b81010312620003de57869251945f6200127f565b3d91506200163e565b634e487b7160e01b85526011600452602485fd5b6200169b915060203d60201162000bac5762000b9c8183620030df565b5f62001214565b5034620005d15780600319360112620005d157805460405162fd86ed60e51b8082526020936001600160a01b03938416939092859291908381600481895afa908162001afc575b506200177557505060405163104df9ab60e31b815292839060049082905afa9081156200176957906200172e575b670de0b6b3a76400009150105b6040519015158152f35b508181813d831162001761575b620017478183620030df565b81010312620003de57670de0b6b3a7640000905162001717565b503d6200173b565b604051903d90823e3d90fd5b80919392506006541693604051946370a0823160e01b958681528260048201528781602481855afa908115620003eb57859162001ac9575b5060405163104df9ab60e31b808252918982600481885afa90811562001abe57879162001a86575b620017e19250620036e1565b95909460055416604051946318160ddd60e01b958681528b81600481865afa9081156200057557849162001a53575b50604051908a82528c82600481865afa908115620003eb57859162001a1b575b6200183c9250620036e1565b9990968c89159c8d809e62001a13575b9d8062001a0a575b6200188e575b5050505050505050508162001885575b5062001879575b505062001724565b101590505f8062001871565b90505f6200186a565b9091929394959697989c506024604051809a819382528760048301525afa968715620003eb578597620019d5575b506040519586528b86600481865afa958615620003eb57908c9186976200199e575b5060046040518096819382525afa9283156200057557908b91859462001967575b5060046040518094819382525afa92831562001769579262001932575b500291021015935f8080808080808c816200185a565b9091508881813d83116200195f575b6200194d8183620030df565b81010312620003de5751905f6200191c565b503d62001941565b8281939295503d831162001996575b620019828183620030df565b81010312620003de578a9051925f620018ff565b503d62001976565b8281939298503d8311620019cd575b620019b98183620030df565b81010312620003de578b9051955f620018de565b503d620019ad565b9096508b81813d831162001a02575b620019f08183620030df565b81010312620003de5751955f620018bc565b503d620019e4565b50891562001854565b50896200184c565b90508c82813d831162001a4b575b62001a358183620030df565b81010312620003de576200183c91519062001830565b503d62001a29565b90508b81813d831162001a7e575b62001a6d8183620030df565b81010312620003de57515f62001810565b503d62001a61565b90508982813d831162001ab6575b62001aa08183620030df565b81010312620003de57620017e1915190620017d5565b503d62001a94565b6040513d89823e3d90fd5b90508781813d831162001af4575b62001ae38183620030df565b81010312620003de57515f620017ad565b503d62001ad7565b8491943d831162001b26575b62001b148183620030df565b81010312620003de5785925f620016e9565b503d62001b08565b5034620005d15780600319360112620005d157805481906001600160a01b0316803b1562001b9157818091600460405180948193635c616a7360e01b83525af1801562000bb45762001b7d5750f35b8162001b8991620030df565b620005d15780f35b50fd5b5034620005d1576060366003190112620003de5762001bb8600b5460043562003116565b8154604051627c6da160e21b815260048101929092529091906001600160a01b0316602083602481845afa92831562000bb4578293620020bd575b5062001c086001600160a01b038416620034eb565b9262001c13620032a6565b9362001c26608086015160243562003116565b6001810181116200166a5762001c43608083015160443562003116565b90600182018211620020a9578651906040519263198804fd60e21b84526020846004818a5afa9384156200209e57889462002063575b50600160846060928a6040519a8b948593631a12343160e11b8552818060a01b038d16600486015281890160248601520160448401528160648401525af190818897899362002036575b5062001cdf575050505050505090506200075c600c5462003162565b62001cfd62001ced620032a6565b966001600160a01b0316620034eb565b9582670de0b6b3a7640000810204670de0b6b3a7640000148315171562000ae45762001d508a670de0b6b3a7640000620007e8602062001d43818c0151848a02620031d6565b93015160018701620031a8565b89546040516379bae7dd60e11b81526001600160a01b0390911699906020816004818e5afa801562000ad9578c9062001ffb575b62001d91915083620031a8565b60405163278793f760e11b81526020816004818f5afa90811562000a5b578d9162001fc3575b50670de0b6b3a76400008181031162000a0f576ec097ce7bc90715b34b9f10000000009162001df191670de0b6b3a76400000390620031a8565b6040516379bae7dd60e11b815291900492906020816004818f5afa90811562000a5b578d9162001f8b575b50670de0b6b3a76400008181031162000a0f579c6080600160049e9f60209d9c9b9a999762001ea9836200030362001eb69a62001e9462001ecb9e9b62001e7f8562000303670de0b6b3a7640000620003209f620002fb908f9d830390620031a8565b6200032060408801519160408d01516200319a565b6200033c606086015160608b015190620031f8565b01519401910151620031f8565b620003206080870151916080870151620031f8565b101562001f585762001ee8906200097f83515f199251906200325f565b51916040519384809263198804fd60e21b82525afa90811562000a0457839162001f1b575b620009879250111562003206565b90506020823d60201162001f4f575b8162001f3960209383620030df565b81010312620003de576200098791519062001f0d565b3d915062001f2a565b5051916040519384809263198804fd60e21b82525afa90811562000a04578391620009c757620009879250101562003206565b90506020813d60201162001fba575b8162001fa960209383620030df565b81010312620003de57515f62001e1c565b3d915062001f9a565b90506020813d60201162001ff2575b8162001fe160209383620030df565b81010312620003de57515f62001db7565b3d915062001fd2565b506020813d6020116200202d575b816200201860209383620030df565b81010312620003de5762001d91905162001d84565b3d915062002009565b9092506200205791975060603d60601162000b2b5762000b188183620030df565b50969096915f62001cc3565b9093506020813d60201162002095575b816200208260209383620030df565b81010312620003de575192600162001c79565b3d915062002073565b6040513d8a823e3d90fd5b634e487b7160e01b86526011600452602486fd5b620020db91935060203d60201162000bac5762000b9c8183620030df565b915f62001bf3565b5034620005d1576040366003190112620005d1576024356001600160601b038082168203620003de5762002118839262003135565b60018060a01b0380845416604062002135600b5460043562003116565b6024825180948193634b74600160e01b835260048301525afa908115620003eb5785916200219c575b501691823b1562002197576024849283604051958694859363032145f960e41b85521660048401525af1801562000bb45762001b7d5750f35b505050fd5b620021b9915060403d604011620010b357620010a18183620030df565b90505f6200215e565b5034620005d15736600319016101008112620011b35760e013620005d15760405190620021f160e083620030df565b6004356001600160a01b0381168103620011b35782526024356001600160a01b0381168103620011b357602083015260443560408301526064356060830152608435608083015260a43560a083015260c43560c08301526001600160601b0360e4351660e43503620005d1576005600b54101562002502576040518061225e81011067ffffffffffffffff61225e83011117620024ee5761225e62003c9b82398061225e8101039082f08015620010f05760405190816103f181011067ffffffffffffffff6103f184011117620024c3576103f16200371683396001600160a01b03166103f1820190815260406020820181905281018390528190036060019082f0908115620017695780546001546001600160a01b03938416939182169116833b15620024ea57604051916323c56d0560e21b83526080600484015260076084840152662a282a37b5b2b760c91b60a484015260c06024840152600260c484015261054560f41b60e48401526044830152606482015281816101048183875af1801562000bb457620024d7575b50908252670de0b6b3a76400008060608401510660608401526080830151066080830152620023b060e43562003135565b916040518061019481011067ffffffffffffffff61019483011117620024c3576001600160601b03839461019462003b07843916610194820152602081610194810103019083f0801562000bb4576001600160a01b03908116602083015282541690813b15620024bf5760408051636dbcb03960e11b815282516001600160a01b0390811660048301526020840151166024820152908201516044820152606082015160648201526080820151608482015260a082015160a482015260c09091015160c4820152908290829060e490829084905af1801562000bb457620024a6575b50620024a0600b5462003162565b600b5580f35b81620024b291620030df565b620005d157805f62002492565b5050fd5b634e487b7160e01b83526041600452602483fd5b81620024e391620030df565b5f6200237f565b8280fd5b634e487b7160e01b82526041600452602482fd5b60405162461bcd60e51b81526020600482015260146024820152731b585e08151408185b1c9958591e48185919195960621b6044820152606490fd5b5034620005d1576060366003190112620005d157604435806200255f575080f35b6200256f600b5460043562003116565b8254604051627c6da160e21b815260048101929092526001600160a01b03169190602081602481865afa9081156200057557849162002bb2575b506040516324ffaba360e01b81526001600160a01b0382166004820152602081602481875afa908115620003eb57859162002b7a575b50670de0b6b3a76400000180670de0b6b3a7640000116200166a57906200264c60206200260e879486620031a8565b60065460405163095ea7b360e01b81526001600160a01b03988916600482015260248101839052919791938492909116908290879082906044820190565b03925af1801562000a045762002b56575b506200269a670de0b6b3a764000062002690620026836001600160a01b038516620034eb565b95602087015190620031a8565b0460243562003116565b8351835460405163198804fd60e21b81526001600160a01b039091169592916020826004818a5afa91821562000b7357869262002b18575b501094851562002a9b575b6040805163484ad7cd60e01b81526001600160a01b0386166004820152602481018490526044810198909852949694908590818981606481015b03925af187948162002a74575b506200276d5750505050905060019062002740600c5462003162565b600c555b6200275b575b5062000770604b600c541062003206565b620027669062003206565b5f6200274a565b620027816001600160a01b038416620034eb565b9281670de0b6b3a7640000810204670de0b6b3a7640000148215171562002a6057620027bc6020840151670de0b6b3a76400008402620031d6565b88546040516324ffaba360e01b81526001600160a01b0384811660048301529091169691906020816024818b5afa801562000442578b9062002a25575b62002806915082620031a8565b60405163278793f760e11b81526020816004818c5afa90811562000ad9578c91620029e9575b50670de0b6b3a76400008181031162001533576ec097ce7bc90715b34b9f1000000000916200286691670de0b6b3a76400000390620031a8565b6040516324ffaba360e01b81526001600160a01b03909516600486015204926020816024818b5afa90811562000442578b91620029ad575b50670de0b6b3a7640000019081670de0b6b3a764000011620003f657936200291260016200030362002927966200032760209a97620028fd670de0b6b3a764000060049f9e9c6200035a9a620028f491620031a8565b04821462003206565b6200032060408c01519160408b0151620031f8565b6200032060808601519160808501516200319a565b51916040519384809263198804fd60e21b82525afa908115620003eb5785916200296c575b6200295a9250101562003206565b62002966811562003206565b62002744565b90506020823d602011620029a4575b816200298a60209383620030df565b81010312620029a0576200295a9151906200294c565b8480fd5b3d91506200297b565b90506020813d602011620029e0575b81620029cb60209383620030df565b81010312620029dc57515f6200289e565b8a80fd5b3d9150620029bc565b90506020813d60201162002a1c575b8162002a0760209383620030df565b8101031262002a1857515f6200282c565b8b80fd5b3d9150620029f8565b506020813d60201162002a57575b8162002a4260209383620030df565b81010312620029dc57620028069051620027f9565b3d915062002a33565b634e487b7160e01b88526011600452602488fd5b62002a9291955060403d604011620004fc57620004ea8183620030df565b50935f62002724565b604051633e22c50d60e21b81526001600160a01b0385166004820152909550602081602481895afa908115620003eb57859162002add575b50811394620026dd565b90506020813d60201162002b0f575b8162002afb60209383620030df565b81010312620029a057516200271762002ad3565b3d915062002aec565b9091506020813d60201162002b4d575b8162002b3760209383620030df565b8101031262002b495751905f620026d2565b8580fd5b3d915062002b28565b62002b729060203d60201162000bed5762000bdc8183620030df565b505f6200265d565b90506020813d60201162002ba9575b8162002b9860209383620030df565b81010312620029a057515f620025df565b3d915062002b89565b62002bcf915060203d60201162000bac5762000b9c8183620030df565b5f620025a9565b905034620011b3576040366003190112620011b357602435801590811562002bfc578380f35b835463fda70f8b60e01b84526001600160a01b031692602081600481875afa908115620003eb578591620030a7575b50670de0b6b3a76400000180670de0b6b3a7640000116200166a57602062002c5862002c969284620031a8565b60065460405163095ea7b360e01b81526001600160a01b03978816600482015260248101839052919691938492909116908290899082906044820190565b03925af18015620003eb5762003083575b5062002cb2620032a6565b91670de0b6b3a76400008202918204670de0b6b3a764000014171562000e0e5762002ce762002cf091602084015190620031d6565b60043562003116565b81518454604051636b5488df60e01b8152919491939192869290916001600160a01b0316602086600481845afa9586156200057557849662003044575b506040906044859683519687938492630176fec160e31b845288600485015260248401525af18793816200301d575b5062002dab575050505060019162002d76600c5462003162565b600c555b1062002d99575b5062002d92604b600c541062003206565b5f80808380f35b62002da49062003206565b5f62002d81565b62002db8959395620032a6565b91670de0b6b3a764000062002dd2602084015183620031a8565b0460018060a01b038954169460405163fda70f8b60e01b81526020816004818a5afa801562000442578b9062002fe2575b62002e10915083620031a8565b60405163278793f760e11b81526020816004818b5afa90811562000ad9578c9162002faa575b50670de0b6b3a76400008181031162001533576ec097ce7bc90715b34b9f10000000009162002e7091670de0b6b3a76400000390620031a8565b049160405163fda70f8b60e01b81526020816004818b5afa90811562000ad9578c9162002f72575b50670de0b6b3a7640000019081670de0b6b3a7640000116200153357936200291260016200030362002eee966200032760209a97620028fd670de0b6b3a764000060049f9e9c620014a39a620028f491620031a8565b519160405193848092636b5488df60e01b82525afa90811562000b7357869162002f35575b62002f219250101562003206565b62002f2f8282101562003206565b62002d7a565b90506020823d60201162002f69575b8162002f5360209383620030df565b8101031262002b495762002f2191519062002f13565b3d915062002f44565b90506020813d60201162002fa1575b8162002f9060209383620030df565b8101031262002a1857515f62002e98565b3d915062002f81565b90506020813d60201162002fd9575b8162002fc860209383620030df565b8101031262002a1857515f62002e36565b3d915062002fb9565b506020813d60201162003014575b8162002fff60209383620030df565b81010312620029dc5762002e10905162002e03565b3d915062002ff0565b6200303b91945060403d604011620004fc57620004ea8183620030df565b50925f62002d5c565b9095506020813d6020116200307a575b816200306360209383620030df565b8101031262003076575194604062002d2d565b8380fd5b3d915062003054565b6200309f9060203d60201162000bed5762000bdc8183620030df565b505f62002ca7565b90506020813d602011620030d6575b81620030c560209383620030df565b81010312620029a057515f62002c2b565b3d9150620030b6565b90601f8019910116810190811067ffffffffffffffff8211176200310257604052565b634e487b7160e01b5f52604160045260245ffd5b811562003121570690565b634e487b7160e01b5f52601260045260245ffd5b6001600160601b038091169081146200314e5760010190565b634e487b7160e01b5f52601160045260245ffd5b5f1981146200314e5760010190565b9190826040910312620003de5781516020909201516001600160a01b0381168103620003de5790565b919082018092116200314e57565b818102929181159184041417156200314e57565b90816020910312620003de57518015158103620003de5790565b811562003121570490565b9190826040910312620003de576020825192015190565b919082039182116200314e57565b156200320e57565b634e487b7160e01b5f52600160045260245ffd5b90816020910312620003de57516001600160a01b0381168103620003de5790565b90816060910312620003de578051916040602083015192015190565b81810392915f1380158285131691841216176200314e57565b604051906200328960a083620030df565b5f6080838281528260208201528260408201528260608201520152565b620032b062003278565b505f80546040805163104df9ab60e31b815292916020916001600160a01b039182168386600481845afa958615620034ac578596620034b6575b508360049183519283809262fd86ed60e51b82525afa908115620034ac57859162003479575b508260065416938251936370a0823160e01b9081865230600487015282866024818a5afa9586156200343a57889662003444575b5082816009541660248751809a819387835260048301525afa9687156200343a57889762003401575b5082906005541691602486518094819382523060048301525afa968715620033f6578097620033be575b5050825196620033a960a089620030df565b87528601528401526060830152608082015290565b909180975082813d8311620033ee575b620033da8183620030df565b81010312620005d1575051945f8062003397565b503d620033ce565b8451903d90823e3d90fd5b9096508281813d831162003432575b6200341c8183620030df565b810103126200342e575195826200336d565b8780fd5b503d62003410565b85513d8a823e3d90fd5b9095508281813d831162003471575b6200345f8183620030df565b810103126200342e5751945f62003344565b503d62003453565b90508381813d8311620034a4575b620034938183620030df565b81010312620029a057515f62003310565b503d62003487565b82513d87823e3d90fd5b9095508381813d8311620034e3575b620034d18183620030df565b81010312620029a057519483620032ea565b503d620034c5565b620034f562003278565b505f80546040805163104df9ab60e31b8152936001600160a01b039283169291906020908187600481885afa968715620036a2578697620036ac575b50908084926024855180958193633eb7690960e21b835216988960048301525afa918215620036a25786926200366d575b508360065416948351946370a0823160e01b9081875230600488015283876024818b5afa968715620036635789976200362a575b5083906009541660248751809a819386835260048301525afa9687156200343a578897620035f5575b508290602486518094819382523060048301525afa968715620033f6578097620033be575050825196620033a960a089620030df565b9096508281813d831162003622575b620036108183620030df565b810103126200342e57519582620035bf565b503d62003604565b9096508381813d83116200365b575b620036458183620030df565b81010312620036575751958362003596565b8880fd5b503d62003639565b86513d8b823e3d90fd5b9080925081813d83116200369a575b620036888183620030df565b8101031262002b495751905f62003562565b503d6200367c565b83513d88823e3d90fd5b9096508181813d8311620036d9575b620036c78183620030df565b8101031262002b495751958162003531565b503d620036bb565b919082156200370c57620036f98184029384620031d6565b03620037055760019190565b5f91508190565b50600191505f9056fe60806040526103f180380380610014816101f9565b9283398101906040818303126101f5578051906001600160a01b0382168083036101f55760208281015190926001600160401b0382116101f557019284601f850112156101f55783519361006f61006a86610232565b6101f9565b94808652848601968582840101116101f557868561008d930161024d565b803b1561019a577f360894a13ba1a3210667c828492db98dca3e2076cc3735a920a3ca505d382bbc80546001600160a01b031916831790555f917fbc7cd75a20ee27fd9adebab32041f755214dbc6bffa90cc0225b39da2e5c2d3b8380a2835115801590610193575b610109575b60405160cf90816103228239f35b818061017e9661011c61006a6027610232565b96602788527f416464726573733a206c6f772d6c6576656c2064656c65676174652063616c6c87890152660819985a5b195960ca1b60408901525190845af4913d15610189573d9061017061006a83610232565b91825281943d92013e61026e565b505f808080806100fb565b506060925061026e565b50816100f6565b60405162461bcd60e51b815260048101849052602d60248201527f455243313936373a206e657720696d706c656d656e746174696f6e206973206e60448201526c1bdd08184818dbdb9d1c9858dd609a1b6064820152608490fd5b5f80fd5b6040519190601f01601f191682016001600160401b0381118382101761021e57604052565b634e487b7160e01b5f52604160045260245ffd5b6001600160401b03811161021e57601f01601f191660200190565b5f5b83811061025e5750505f910152565b818101518382015260200161024f565b919290156102d05750815115610282575090565b3b1561028b5790565b60405162461bcd60e51b815260206004820152601d60248201527f416464726573733a2063616c6c20746f206e6f6e2d636f6e74726163740000006044820152606490fd5b8251909150156102e35750805190602001fd5b6044604051809262461bcd60e51b825260206004830152610313815180928160248601526020868601910161024d565b601f01601f19168101030190fdfe608060405236156053577f360894a13ba1a3210667c828492db98dca3e2076cc3735a920a3ca505d382bbc545f90819081906001600160a01b0316368280378136915af43d82803e15604f573d90f35b3d90fd5b7f360894a13ba1a3210667c828492db98dca3e2076cc3735a920a3ca505d382bbc545f90819081906001600160a01b0316368280378136915af43d82803e15604f573d90f3fea2646970667358221220de647715af36d37bd4338c8bc5fdc840ccffcde6980353487eac0f6b7218455b64736f6c6343000814003360803461005c57601f61019438819003918201601f19168301916001600160401b038311848410176100605780849260209460405283398101031261005c57515f55600160ff198154161760015560405161011f90816100758239f35b5f80fd5b634e487b7160e01b5f52604160045260245ffdfe60808060405260043610156011575f80fd5b5f90813560e01c9081632a3f43891460cd5750806332145f901460b55780635095e3d914609957806359e02dd71460725763b689d5ac14604f575f80fd5b34606f5780600319360112606f57602060ff600154166040519015158152f35b80fd5b5034606f5780600319360112606f576040905460ff60015416825191825215156020820152f35b5034606f5780600319360112606f5760ff196001541660015580f35b5034606f576020366003190112606f57600435815580f35b90503460e5578160031936011260e557602091548152f35b5080fdfea26469706673582212206e01e0fc7ad29f980198245451b1a3b264767a2c462903153ac36cf1bf1cbbfc64736f6c6343000814003360a080604052346100da57306080525f549060ff8260081c16610088575060ff8082160361004e575b60405161217f90816100df8239608051818181610c9801528181610db30152610f8a0152f35b60ff90811916175f557f7f26b83ff96e1f2b6a682f133852f6798a09c465da95921460cefb3847402498602060405160ff8152a15f610028565b62461bcd60e51b815260206004820152602760248201527f496e697469616c697a61626c653a20636f6e747261637420697320696e697469604482015266616c697a696e6760c81b6064820152608490fd5b5f80fdfe608060409080825260049081361015610016575f80fd5b5f92833560e01c91826301ffc9a71461130d5750816306fdde0314611263578163095ea7b31461122d5781630c340a241461120357816318160ddd146111e457816323b872dd14611111578163248a9ca3146110e55781632f2ff15d1461109e578163313ce5671461108257816336568abe14610fef578382633659cfe614610f58575081633950935114610f0657816340c10f1914610e165781634f1ef28614610d5757816352d1902d14610c8357816370a0823114610c4857816383d2230d14610b0d5781638f15b414146106395781639010d07c146105f757816391d14854146105ab57816395d89b41146104ca5781639dc29fac1461037c578163a217fddf14610361578163a457c2d7146102b8578163a9059cbb14610278578163ca15c8731461024f578163d547741f14610205578163dd62ed3e146101ab575063e4c0aaf414610164575f80fd5b346101a75760203660031901126101a757356001600160a01b038116908190036101a75761019061204f565b61019180546001600160a01b031916909117905580f35b5080fd5b919050346102015781600319360112610201576001600160a01b039035818116908190036101fd576024359182168092036101fd57928291602094825260ca8552828220908252845220549051908152f35b8380fd5b8280fd5b9190503461020157816003193601126102015760243590356001600160a01b03821682036101fd57610247600161024c948387526065602052862001546114fe565b6115d9565b80f35b919050346102015760203660031901126102015760209282913581526097845220549051908152f35b9190503461020157816003193601126102015735916001600160a01b03831683036102b557506102ae6020926024359033611a76565b5160018152f35b80fd5b8284346102b557826003193601126102b5578135916001600160a01b038316918284036102b55784906024359333825260ca602052828220908252602052205490828210610310576020856102ae8585038733611be5565b608490602086519162461bcd60e51b8352820152602560248201527f45524332303a2064656372656173656420616c6c6f77616e63652062656c6f77604482015264207a65726f60d81b6064820152fd5b8390346101a757816003193601126101a75751908152602090f35b8383346101a757826003193601126101a75780356001600160a01b038116919082900361020157602435906103d07f3c11d16cbaffd01df69ce1c404f6340ee057498f5f00246190ea54220576a8486114fe565b821561047d5782845260c9602052848420549082821061042f57508184957fddf252ad1be2c89b69c2b068fc378daa952ba7f163c4a11628f55a4df523b3ef9360209386885260c9855203818720558160cb540360cb5551908152a380f35b608490602087519162461bcd60e51b8352820152602260248201527f45524332303a206275726e20616d6f756e7420657863656564732062616c616e604482015261636560f01b6064820152fd5b608490602086519162461bcd60e51b8352820152602160248201527f45524332303a206275726e2066726f6d20746865207a65726f206164647265736044820152607360f81b6064820152fd5b8390346101a757816003193601126101a7578051908260cd546104ec81611a1d565b808552916001918083169081156105835750600114610526575b505050610518826105229403836113c8565b519182918261139c565b0390f35b945060cd85527f83978b4c69c48dd978ab43fe30f077615294f938fb7f936d9eb340e51ea7db2e5b82861061056b575050506105188260206105229582010194610506565b8054602087870181019190915290950194810161054e565b61052297508693506020925061051894915060ff191682840152151560051b82010194610506565b919050346102015781600319360112610201576024356001600160a01b03811691908290036101fd5760209360ff92849235825260658652828220908252855220541690519015158152f35b919050346102015781600319360112610201576020926106239135815260978452826024359120611ec6565b905491519160018060a01b039160031b1c168152f35b9050346102015760803660031901126102015767ffffffffffffffff918035838111610b095761066c9036908301611454565b92602435818111610b05576106849036908401611454565b93604435916001600160a01b03918284168403610b0157606435928316809303610b015787549660ff8860081c161595868097610af4575b8015610add575b15610a8357600198878a60ff198316178c55610a72575b506106fd60ff8b5460081c166106ef816120e9565b6106f8816120e9565b6120e9565b8251848111610a5f578061071260cc54611a1d565b94601f958681116109ee575b506020908d8784116001146109705792610965575b50505f19600383901b1c1916908a1b1760cc555b8151938411610952575061075c60cd54611a1d565b8281116108ef575b50602091831160011461086b5761081f94939291899183610860575b50505f19600383901b1c191690871b1760cd555b6107b160ff885460081c166107a8816120e9565b6106ef816120e9565b61019180546001600160a01b03191690911790556107cf8187611472565b6107f9817f9f2df0fed2c77648de5860a4cc508cd0818c85b8b8a1ab4ceeef8d981c8956a6611472565b7f3c11d16cbaffd01df69ce1c404f6340ee057498f5f00246190ea54220576a848611472565b610827578280f35b825461ff0019168355519081527f7f26b83ff96e1f2b6a682f133852f6798a09c465da95921460cefb384740249890602090a15f808280f35b015190505f80610780565b60cd895293929187917f83978b4c69c48dd978ab43fe30f077615294f938fb7f936d9eb340e51ea7db2e90601f1983168b5b8181106108d75750968361081f98106108bf575b505050811b0160cd55610794565b01515f1960f88460031b161c191690555f80806108b1565b8289015184558b95909301926020928301920161089d565b60cd8a527f83978b4c69c48dd978ab43fe30f077615294f938fb7f936d9eb340e51ea7db2e8380860160051c82019260208710610949575b0160051c019089905b82811061093e575050610764565b8b8155018990610930565b92508192610927565b634e487b7160e01b8a5260419052602489fd5b015190505f80610733565b91908d9450601f19841660cc84527f47197230e1e4b29fc0bd84d7d78966c0925452aff72a2a121538b102457e9ebe935b8181106109d6575084116109be575b505050811b0160cc55610747565b01515f1960f88460031b161c191690555f80806109b0565b8284015185558f9690940193602093840193016109a1565b90915060cc8d527f47197230e1e4b29fc0bd84d7d78966c0925452aff72a2a121538b102457e9ebe8680850160051c82019260208610610a56575b859493910160051c909101908d908f5b838210610a485750505061071e565b81558594508e91018f610a39565b92508192610a29565b634e487b7160e01b8b526041825260248bfd5b61ffff1916610101178a555f6106da565b608490602089519162461bcd60e51b8352820152602e60248201527f496e697469616c697a61626c653a20636f6e747261637420697320616c72656160448201526d191e481a5b9a5d1a585b1a5e995960921b6064820152fd5b50303b1580156106c35750600160ff8a16146106c3565b50600160ff8a16106106bc565b8780fd5b8580fd5b8480fd5b905034610201576020366003190112610201578135906001600160a01b03821682036101fd578380526065602052610b4a600182862001546114fe565b610b548285611472565b7f9f2df0fed2c77648de5860a4cc508cd0818c85b8b8a1ab4ceeef8d981c8956a6610b7f8382611472565b610baa7f3c11d16cbaffd01df69ce1c404f6340ee057498f5f00246190ea54220576a8489384611472565b610bb433826115d9565b610bbe33846115d9565b610bc833866115d9565b848052609760205260018286205403610c3157808552609760205260018286205403610c1b5750818452609760205260018185205403610c06578380f35b51630e2b37cd60e41b81529182015260249150fd5b83906024925191630e2b37cd60e41b8352820152fd5b8151630e2b37cd60e41b8152808501869052602490fd5b9190503461020157602036600319011261020157356001600160a01b03811690819003610201578282916020945260c9845220549051908152f35b8284346102b557806003193601126102b557507f00000000000000000000000000000000000000000000000000000000000000006001600160a01b03163003610cef57602082517f360894a13ba1a3210667c828492db98dca3e2076cc3735a920a3ca505d382bbc8152f35b6020608492519162461bcd60e51b8352820152603860248201527f555550535570677261646561626c653a206d757374206e6f742062652063616c60448201527f6c6564207468726f7567682064656c656761746563616c6c00000000000000006064820152fd5b36600319011290506101a75780356001600160a01b0380821682036101fd576024359167ffffffffffffffff8311610b095736602384011215610b0957610e09610daf61024c9585602460019736930135910161141a565b92807f00000000000000000000000000000000000000000000000000000000000000001690610de08230141561165e565b7f360894a13ba1a3210667c828492db98dca3e2076cc3735a920a3ca505d382bbc5416146116bf565b610e1161204f565b611720565b905082346102b557816003193601126102b55782356001600160a01b03811691908290036102b557602435610e6a7f9f2df0fed2c77648de5860a4cc508cd0818c85b8b8a1ab4ceeef8d981c8956a66114fe565b8215610ec357602080955081610ea37fddf252ad1be2c89b69c2b068fc378daa952ba7f163c4a11628f55a4df523b3ef9360cb54611a55565b60cb5584845260c982528584208181540190558551908152a35160018152f35b835162461bcd60e51b8152602081870152601f60248201527f45524332303a206d696e7420746f20746865207a65726f2061646472657373006044820152606490fd5b91905034610201578160031936011261020157356001600160a01b0381168082036101fd5790610f516020946102ae9333825260ca8752858220908252865284602435912054611a55565b9033611be5565b915091346101a75760203660031901126101a7576001600160a01b03929035838116810361020157610fb78461024c957f00000000000000000000000000000000000000000000000000000000000000001690610de08230141561165e565b610fbf61204f565b610fd4610fcb846113fe565b925192836113c8565b828252601f19610fe3846113fe565b01366020840137611720565b8383346101a757826003193601126101a757602435906001600160a01b0382168083036101fd573303611027579061024c91356115d9565b608490602085519162461bcd60e51b8352820152602f60248201527f416363657373436f6e74726f6c3a2063616e206f6e6c792072656e6f756e636560448201526e103937b632b9903337b91039b2b63360891b6064820152fd5b8390346101a757816003193601126101a7576020905160128152f35b9190503461020157816003193601126102015760243590356001600160a01b03821682036101fd576110e0600161024c948387526065602052862001546114fe565b611472565b919050346102015760203660031901126102015781602093600192358152606585522001549051908152f35b8383346101a75760603660031901126101a75780356001600160a01b03818116939092908483036102b55760243593841684036102b557859060443595815260ca6020528181203382526020522054905f198203611178575b6020866102ae878787611a76565b8482106111a15750918391611196602096956102ae95033383611be5565b91939481935061116a565b606490602087519162461bcd60e51b8352820152601d60248201527f45524332303a20696e73756666696369656e7420616c6c6f77616e63650000006044820152fd5b8390346101a757816003193601126101a75760209060cb549051908152f35b8390346101a757816003193601126101a7576101915490516001600160a01b039091168152602090f35b9190503461020157816003193601126102015735916001600160a01b03831683036102b557506102ae6020926024359033611be5565b8390346101a757816003193601126101a7578051908260cc5461128581611a1d565b8085529160019180831690811561058357506001146112b057505050610518826105229403836113c8565b945060cc85527f47197230e1e4b29fc0bd84d7d78966c0925452aff72a2a121538b102457e9ebe5b8286106112f5575050506105188260206105229582010194610506565b805460208787018101919091529095019481016112d8565b84908434610201576020366003190112610201573563ffffffff60e01b81168091036102015760209250635a05180f60e01b8114908115611350575b5015158152f35b637965db0b60e01b81149150811561136a575b5083611349565b6301ffc9a760e01b14905083611363565b5f5b83811061138c5750505f910152565b818101518382015260200161137d565b604091602082526113bc815180928160208601526020868601910161137b565b601f01601f1916010190565b90601f8019910116810190811067ffffffffffffffff8211176113ea57604052565b634e487b7160e01b5f52604160045260245ffd5b67ffffffffffffffff81116113ea57601f01601f191660200190565b929192611426826113fe565b9161143460405193846113c8565b829481845281830111611450578281602093845f960137010152565b5f80fd5b9080601f830112156114505781602061146f9335910161141a565b90565b9060406114b0925f9080825260656020528282209360018060a01b03169384835260205260ff8383205416156114b3575b8152609760205220611edb565b50565b8082526065602052828220848352602052828220600160ff198254161790553384827f2f8788117e7eff1d82e926ec794901d17c78024a50270940304540a733656f0d8580a46114a3565b805f5260206065815260405f20335f52815260ff60405f20541615611521575050565b6115bd60486115d593836115436115ae9561153d601433611d74565b93611d74565b906040519586937f416363657373436f6e74726f6c3a206163636f756e742000000000000000000083860152611582815180928560378901910161137b565b8401917001034b99036b4b9b9b4b733903937b6329607d1b60378401528351938491878501910161137b565b010360288101845201826113c8565b60405162461bcd60e51b81529182916004830161139c565b0390fd5b9060406114b0925f9080825260656020528282209360018060a01b03169384835260205260ff8383205416611616575b8152609760205220611f62565b808252606560205282822084835260205282822060ff1981541690553384827ff6391f5c32d9c69d2a47ea670b442974b53935d1edc7fd64eb21e047a839171b8580a4611609565b1561166557565b60405162461bcd60e51b815260206004820152602c60248201527f46756e6374696f6e206d7573742062652063616c6c6564207468726f7567682060448201526b19195b1959d85d1958d85b1b60a21b6064820152608490fd5b156116c657565b60405162461bcd60e51b815260206004820152602c60248201527f46756e6374696f6e206d7573742062652063616c6c6564207468726f7567682060448201526b6163746976652070726f787960a01b6064820152608490fd5b909160ff7f4910fdfa16fed3260ed0e7147f7cc6da11a60208b5b9406d12a635614ffd914354165f1461175a5750611758915061197b565b565b604080516352d1902d60e01b8152602094919392906001600160a01b038416908681600481855afa5f918161194c575b506117ea57855162461bcd60e51b815260048101889052602e60248201527f45524331393637557067726164653a206e657720696d706c656d656e7461746960448201526d6f6e206973206e6f74205555505360901b6064820152608490fd5b9395929492937fc9f76b5ec45e5cdef99837d7b6d2467235c1df8933c8ca56df5c35afa2c7d444016118f65761181f8661197b565b7fbc7cd75a20ee27fd9adebab32041f755214dbc6bffa90cc0225b39da2e5c2d3b5f80a2835115908115916118ee575b5061185b575b50505050565b6118da935f8061186b60276113fe565b95611878855197886113c8565b602787527f416464726573733a206c6f772d6c6576656c2064656c65676174652063616c6c86880152660819985a5b195960ca1b858801528581519101845af4913d156118e4573d6118cc610fcb826113fe565b81525f81943d92013e611ce3565b505f808080611855565b5060609250611ce3565b90505f61184f565b825162461bcd60e51b815260048101859052602960248201527f45524331393637557067726164653a20756e737570706f727465642070726f786044820152681a58589b195555525160ba1b6064820152608490fd5b90918882813d8311611974575b61196381836113c8565b810103126102b5575051905f61178a565b503d611959565b803b156119c2577f360894a13ba1a3210667c828492db98dca3e2076cc3735a920a3ca505d382bbc80546001600160a01b0319166001600160a01b03909216919091179055565b60405162461bcd60e51b815260206004820152602d60248201527f455243313936373a206e657720696d706c656d656e746174696f6e206973206e60448201526c1bdd08184818dbdb9d1c9858dd609a1b6064820152608490fd5b90600182811c92168015611a4b575b6020831014611a3757565b634e487b7160e01b5f52602260045260245ffd5b91607f1691611a2c565b91908201809211611a6257565b634e487b7160e01b5f52601160045260245ffd5b6001600160a01b03908116918215611b925716918215611b41575f82815260c9602052604081205491808310611aed57604082827fddf252ad1be2c89b69c2b068fc378daa952ba7f163c4a11628f55a4df523b3ef95876020965260c98652038282205586815220818154019055604051908152a3565b60405162461bcd60e51b815260206004820152602660248201527f45524332303a207472616e7366657220616d6f756e7420657863656564732062604482015265616c616e636560d01b6064820152608490fd5b60405162461bcd60e51b815260206004820152602360248201527f45524332303a207472616e7366657220746f20746865207a65726f206164647260448201526265737360e81b6064820152608490fd5b60405162461bcd60e51b815260206004820152602560248201527f45524332303a207472616e736665722066726f6d20746865207a65726f206164604482015264647265737360d81b6064820152608490fd5b6001600160a01b03908116918215611c925716918215611c425760207f8c5be1e5ebec7d5bd14f71427d1e84f3dd0314c0f7b2291e5b200ac8c7c3b92591835f5260ca825260405f20855f5282528060405f2055604051908152a3565b60405162461bcd60e51b815260206004820152602260248201527f45524332303a20617070726f766520746f20746865207a65726f206164647265604482015261737360f01b6064820152608490fd5b60405162461bcd60e51b8152602060048201526024808201527f45524332303a20617070726f76652066726f6d20746865207a65726f206164646044820152637265737360e01b6064820152608490fd5b91929015611d455750815115611cf7575090565b3b15611d005790565b60405162461bcd60e51b815260206004820152601d60248201527f416464726573733a2063616c6c20746f206e6f6e2d636f6e74726163740000006044820152606490fd5b825190915015611d585750805190602001fd5b60405162461bcd60e51b81529081906115d5906004830161139c565b60019180831b91906001600160ff1b03811603611a62576002820192838311611a6257611db9611da3856113fe565b94611db160405196876113c8565b8086526113fe565b6020939085850190601f1901368237855115611eb257603090538451821015611eb25760786021860153818101809111611a6257905b808211611e43575050611e00575090565b6064906040519062461bcd60e51b825280600483015260248201527f537472696e67733a20686578206c656e67746820696e73756666696369656e746044820152fd5b9091600f81166010811015611e9e578551841015611e9e576f181899199a1a9b1b9c1cb0b131b232b360811b901a85840185015360041c918015611e8a575f190190611def565b60245f634e487b7160e01b81526011600452fd5b60245f634e487b7160e01b81526032600452fd5b634e487b7160e01b5f52603260045260245ffd5b8054821015611eb2575f5260205f2001905f90565b9190600183015f90828252806020526040822054155f14611f5c5784549468010000000000000000861015611f485783611f38611f22886001604098999a01855584611ec6565b819391549060031b91821b915f19901b19161790565b9055549382526020522055600190565b634e487b7160e01b83526041600452602483fd5b50925050565b9060018201905f92818452826020526040842054908115155f14612048575f19918083018181116120345782549084820191821161202057808203611feb575b50505080548015611fd757820191611fba8383611ec6565b909182549160031b1b191690555582526020526040812055600190565b634e487b7160e01b86526031600452602486fd5b61200b611ffb611f229386611ec6565b90549060031b1c92839286611ec6565b905586528460205260408620555f8080611fa2565b634e487b7160e01b88526011600452602488fd5b634e487b7160e01b87526011600452602487fd5b5050505090565b6101915460405163d994d6d560e01b815233600482015290602090829060249082906001600160a01b03165afa9081156120de575f916120a4575b501561209257565b604051631dd1b1b560e21b8152600490fd5b6020813d82116120d6575b816120bc602093836113c8565b810103126101a757519081151582036102b557505f61208a565b3d91506120af565b6040513d5f823e3d90fd5b156120f057565b60405162461bcd60e51b815260206004820152602b60248201527f496e697469616c697a61626c653a20636f6e7472616374206973206e6f74206960448201526a6e697469616c697a696e6760a81b6064820152608490fdfea26469706673582212200c87e29b56acf1a1c6070927f8973fbffe5c9aa8cbf06b8558a3fc9eab68a63464736f6c63430008140033a2646970667358221220fa07060aaaa24d9c8d6182bd60bf123b250ee6c764d5d33419ca826bd6c0671364736f6c6343000814003360806040526103f180380380610014816101f9565b9283398101906040818303126101f5578051906001600160a01b0382168083036101f55760208281015190926001600160401b0382116101f557019284601f850112156101f55783519361006f61006a86610232565b6101f9565b94808652848601968582840101116101f557868561008d930161024d565b803b1561019a577f360894a13ba1a3210667c828492db98dca3e2076cc3735a920a3ca505d382bbc80546001600160a01b031916831790555f917fbc7cd75a20ee27fd9adebab32041f755214dbc6bffa90cc0225b39da2e5c2d3b8380a2835115801590610193575b610109575b60405160cf90816103228239f35b818061017e9661011c61006a6027610232565b96602788527f416464726573733a206c6f772d6c6576656c2064656c65676174652063616c6c87890152660819985a5b195960ca1b60408901525190845af4913d15610189573d9061017061006a83610232565b91825281943d92013e61026e565b505f808080806100fb565b506060925061026e565b50816100f6565b60405162461bcd60e51b815260048101849052602d60248201527f455243313936373a206e657720696d706c656d656e746174696f6e206973206e60448201526c1bdd08184818dbdb9d1c9858dd609a1b6064820152608490fd5b5f80fd5b6040519190601f01601f191682016001600160401b0381118382101761021e57604052565b634e487b7160e01b5f52604160045260245ffd5b6001600160401b03811161021e57601f01601f191660200190565b5f5b83811061025e5750505f910152565b818101518382015260200161024f565b919290156102d05750815115610282575090565b3b1561028b5790565b60405162461bcd60e51b815260206004820152601d60248201527f416464726573733a2063616c6c20746f206e6f6e2d636f6e74726163740000006044820152606490fd5b8251909150156102e35750805190602001fd5b6044604051809262461bcd60e51b825260206004830152610313815180928160248601526020868601910161024d565b601f01601f19168101030190fdfe608060405236156053577f360894a13ba1a3210667c828492db98dca3e2076cc3735a920a3ca505d382bbc545f90819081906001600160a01b0316368280378136915af43d82803e15604f573d90f35b3d90fd5b7f360894a13ba1a3210667c828492db98dca3e2076cc3735a920a3ca505d382bbc545f90819081906001600160a01b0316368280378136915af43d82803e15604f573d90f3fea2646970667358221220de647715af36d37bd4338c8bc5fdc840ccffcde6980353487eac0f6b7218455b64736f6c6343000814003360a08060405234620000df57306080525f549060ff8260081c166200008d575060ff8082160362000052575b604051615efb9081620000e48239608051818181611fe00152818161214f01526125ea0152f35b60ff90811916175f557f7f26b83ff96e1f2b6a682f133852f6798a09c465da95921460cefb3847402498602060405160ff8152a15f6200002b565b62461bcd60e51b815260206004820152602760248201527f496e697469616c697a61626c653a20636f6e747261637420697320696e697469604482015266616c697a696e6760c81b6064820152608490fd5b5f80fdfe6040608081526004361015610012575f80fd5b5f60e08135811c90816301dde6ef1461323d57816301f1b684146131f65781630579188f1461314c578163073763b91461312857816307e8ce8b14612c295781630bb7f60814612c065781630c340a2414612bdd5781630c36d89714612bbd5781630d6ac46314612b775781630db4965614612b575781630e0a8fd214612b335781630f1e5e2b14612aed57816315266e3614612a8c57816317937f9b14612a555781631867e2f514612a355781631fb0dda014612a0c5781631fe6a7ad146129d25781632069f753146129ae57816323b98cde1461298657816324ffaba31461294957816325bc6c411461291f57816327eab2a1146128d95781632a20d57d146128b95781632b764fad146128585781632c43bd3b146128345781632d88af4a146127dd5781632ded50f0146127bd578163333431fd1461279d57816333421c38146126aa578163342468621461264f5781633659cfe6146125b55781633915edcb146125845781633bc4ac0a146125605781633dbc50a91461250f5781633f4ba83a146124945781634017936a1461244d578163407f0e341461242d5781634310adc6146123d257816344719ee91461236c578163466b893414612309578163471a80e3146122cf578163484ad7cd1461226e5781634b746001146122245781634d977e78146122045781634e1f907a146121da5781634f0f27ee146121ba5781634f1ef286146120c65781635210570c146120a057816352d1902d14611fcb57816352e18f8f14611f75578163533a4bea14611f22578163543aeb4814611efe5781635860ee6314611ede5781635c616a7314611cd65781635c975abb14611caf5781635ece17ef14611c4e57816360009e0b14611c24578163647846a514611bfa57816364ec230a14611bd6578163662013f414611bb95781636827435714611b9057816368f015df14611af45781636b5488df14611ad45781636f30471f14611ab45781637071346814611a90578163735d396014611a4a57816373e28af914611a2657816374873ad3146119c55781637554fffd146119a557816376228055146119855781637750ba0c1461196157816379f9a91c146119415781637a193c31146119215781637a4ff1d9146118fd5781637a727fe8146118dd5781637af5758c146118b95781637b21b2741461184f5781637cba23831461182b5781637d8e0314146117ec5781637f01c715146117c25781637f13b9981461178c5781637f4a4fe01461176c578163826fcd5814611749578163842d5748146116ec5781638456cb591461165757816385bf95931461161157816389fd503e146115ba5781638acc2011146115605781638cfa4241146115405781638e2bdb86146115165781638f1a383a146114ee5781639853c35a146114c457816398b2086f1461146b5781639abb14c9146114245781639ad6659d146113ee5781639bea71a4146113ac5781639cabfc00146113605781639fd0506d146113335781639fd8ed0e146112de578163a8e9ac30146112bb578163aaf91eff1461125a578163aaf925f614611205578163ac0c88ab146111aa578163aea038dc1461118a578163aeb41e6914611129578163b5e9ea8c146110ff578163b85edd65146110a4578163b9fa641314611084578163bb4872de14611060578163becaca6b1461103c578163c00f538d14611018578163c039cc6914610fd6578163c09c30bd14610f53578163c239fca414610efb578163c84353c914610ed7578163cf351c1d14610e91578163d1a0faa014610e75578163d6af11da14610e39578163d76dc7fd14610de1578163d87aab6f14610dc1578163d8db6f5a14610d7b578163db79607214610d3d578163ddb6d19014610d00578163de8d520a14610ccd578163e23c135c14610c77578163e3867eeb14610c0e578163e401294514610bb1578163e4c0aaf414610b6c578163e6a683e014610b26578163e6b1627c14610ae2578163e7c2597814610abd578163e8859a1514610aa0578163ea302a9714610a43578163ee1f438f14610a19578163f13f4054146109ef578163f26114aa1461098d578163f280877814610969578163f2f9f45614610913578163f30b5614146108f3578163f375cfba146108d3578163f88b143414610863578163fa6e83bd14610843578163fadda424146107cf578163fd80fa771461074d57508063fda70f8b14610729578063fed0ade4146106dd5763ffe315391461066f575f80fd5b346106da575060603660031901126106d6576044356001600160a01b038116908190036106d65781516106c9916106a760a083613349565b600435825260243560208301523384830152336060830152608082015261400d565b5082519182526020820152f35b5f80fd5b80fd5b50346106da57506106c96106f236600461330a565b909185519361070260a086613349565b8452602084015233858401526001600160a01b03918216606084015216608082015261400d565b50903461074957816003193601126107495760209061016e549051908152f35b5080fd5b839150346107cb576107aa906107c7936107683660046133c8565b9261077889939293519788613349565b60018060a01b03809516875260208701528786015260608501523360808501521660a083015260c08201523390615a3b565b509251918252602082015260408101919091529081906060820190565b0390f35b8280fd5b5050346106da5760203660031901126106da57506001600160a01b0360043581811681036106d65761080d610805600192613ca4565b610169613330565b5001541661081a81613d4c565b9190911561082c575060209151908152f35b602490835190637f6e4db960e01b82526004820152fd5b82843461074957816003193601126107495760209061016c549051908152f35b5050346106da5760203660031901126106da5750600435906001600160a01b03821682036106d6576108cc6108be6020936108a761089f615c7c565b919092613ca4565b916108c66108b584846139b6565b519485936139ca565b959094615bd9565b90614b36565b9051908152f35b828434610749578160031936011261074957602090610173549051908152f35b828434610749578160031936011261074957602090610163549051908152f35b5050346106da57506106c961092936600461339b565b9085939293519361093b60c086613349565b6001600160a01b039384168552602085015285840152336060840181905260808401521660a0820152614754565b82346106da5760203660031901126106da57610983615dd1565b60043561016e5580f35b839150346107cb57366003190112610749576109eb906109ab615dd1565b516379308a5560e11b60208201526109d9816109cb600460248301615478565b03601f198101835282613349565b610226546001600160a01b0316614ea3565b5080f35b8284346107495781600319360112610749576101625490516001600160a01b039091168152602090f35b8284346107495781600319360112610749576101825490516001600160a01b039091168152602090f35b839150346107cb576107aa906107c793610a5e3660046133c8565b92610a6e89939293519788613349565b60018060a01b03809516875260208701528786015260608501523360808501521660a083015260c082015233906150c7565b8284346107495781600319360112610749576020906108cc6154d9565b82843461074957816003193601126107495760209060ff61017d541690519015158152f35b828434610749576020366003190112610749576004356101be8054821015610b225790610b0e91613330565b506001815491015482519182526020820152f35b8380fd5b82346106da5760203660031901126106da576004356001600160a01b038116908190036106d657610b55615dd1565b61022680546001600160a01b031916909117905580f35b82346106da5760203660031901126106da576004356001600160a01b0381169081900361074957610b9b615dd1565b6001600160601b0360a01b609754161760975580f35b5050346106da5760603660031901126106d6576044356001600160a01b038116908190036106d6576106c991835191610beb60a084613349565b6004358352602435602084015233858401526060830152608082015233906154f0565b839150346107cb576107aa906107c793610c293660046133fa565b92899795979291925197610c3f6101008a613349565b60018060a01b0395868092168a5216602089015289880152606087015260808601523360a08601521660c08401528201523390614ec4565b82346106da57806003193601126106da57610c9130613930565b61016390610ca18254809261390f565b610ca9578280f35b80610cbf610cc592610cba30613930565b61390f565b906139a9565b905581808280f35b8284346107495781600319360112610749576020906108cc610cf5610cf0613db1565b6139ca565b90506101635461390f565b828434610749576020366003190112610749576004356001600160a01b038116908190036106d65782829160209452610177845220549051908152f35b839150346107cb57366003190112610749576109eb90610d5b615dd1565b51636dbcb03960e11b60208201526109d9816109cb600460248301615478565b82346106da5760203660031901126106da576004356001600160a01b038116908190036106d657610daa615dd1565b61018280546001600160a01b031916909117905580f35b828434610749578160031936011261074957602090610185549051908152f35b828434610749576107c7906107aa610dfa36600461343a565b919390865194610e0b60c087613349565b60018060a01b03948580941687526020870152878601523360608601521660808401521660a0820152614d0f565b8284346107495781600319360112610749576020906108cc610e5b6001613dea565b610e6f610e688284613aff565b9183613a4f565b91613e30565b82346106da57806003193601126106da57610e8e615d3e565b80f35b82346106da5760203660031901126106da576004356001600160a01b038116908190036106d657610ec0615dd1565b61016180546001600160a01b031916909117905580f35b82346106da5760203660031901126106da57610ef1615dd1565b60043561017e5580f35b828434610749576107aa6107c792610f1436600461339b565b9086949392945194610f2760c087613349565b6001600160a01b03938416865260208601528685015233606085015216608083015260a0820152614d0f565b8383346106da5760a03660031901126106da576001600160a01b039060043582811691908290036106d6576024359283168093036106d6576107c7946107aa93855193610fa261010086613349565b8452602084015260443585840152606435606084015260843560808401523360a08401523360c08401528201523390614ec4565b8284346107495781600319360112610749576020906108cc61100b611012610fff610cf0613db1565b6101639391935461390f565b918261390f565b90615e7f565b82346106da5760203660031901126106da57611032615dd1565b60043561016f5580f35b82346106da5760203660031901126106da57611056615dd1565b60043561016b5580f35b82843461074957816003193601126107495760209060ff60ca541690519015158152f35b82843461074957816003193601126107495760209061018b549051908152f35b839150346107cb576107aa906107c7936110bf3660046132e1565b926110cf88939293519687613349565b60018060a01b0316855260208501528584015260608301523360808301523360a083015260c0820152339061524c565b8284346107495781600319360112610749576101835490516001600160a01b039091168152602090f35b8383346106da57506107aa6107c7926111433660046133c8565b9261115388939293519687613349565b6001600160a01b0394851686526020860152868501526060840152336080840181905260a08401819052911660c083015290615a3b565b82843461074957816003193601126107495760209061016f549051908152f35b839150346107cb576107aa906107c7936111c53660046132e1565b926111d588939293519687613349565b60018060a01b0316855260208501528584015260608301523360808301523360a083015260c082015233906150c7565b5050346106da576106c99061121b36600461339b565b908694939294519461122e60c087613349565b6001600160a01b03938416865260208601528685015233606085015216608083015260a0820152614754565b8383346106da57506107aa6107c7926112743660046133c8565b9261128488939293519687613349565b6001600160a01b0394851686526020860152868501526060840152336080840181905260a08401819052911660c08301529061524c565b8284346107495781600319360112610749576020906101bf544310159051908152f35b5050346106da57506106c96112f436600461343a565b91939086519461130560c087613349565b60018060a01b03948580941687526020870152878601523360608601521660808401521660a0820152614754565b82843461074957816003193601126107495760ca54905160109190911c6001600160a01b03168152602090f35b5050346106da5760203660031901126106da576004356001600160a01b03811691908290036106d657829181526101686020522060ff6001825492015416825191825215156020820152f35b5050346106da57816003193601126106da57506001600160a01b039060043582811681036106d65760243592831683036106d6576020926108cc9133906153e5565b828434610749578160031936011261074957602090611417611411610cf0613db1565b90613b6f565b61017c5410159051908152f35b5050346106da57816003193601126106d65781516106c99161144760a083613349565b600435825260243560208301523384830152336060830152608082015233906154f0565b828434610749576107c7906107aa61148436600461339b565b9085939293519361149660c086613349565b6001600160a01b039384168552602085015285840152336060840181905260808401521660a0820152614d0f565b8284346107495781600319360112610749576101785490516001600160a01b039091168152602090f35b82843461074957816003193601126107495760209061150e610cf0613db1565b509051908152f35b8284346107495781600319360112610749576101885490516001600160a01b039091168152602090f35b82843461074957816003193601126107495760209061017c549051908152f35b5050346106da57506106c961157636600461339b565b9085939293519361158860c086613349565b6001600160a01b039384168552602085015285840152336060840181905260808401819052911660a0830152906157ad565b5050346106da57506106c96115d036600461343a565b9193908651946115e160c087613349565b60018060a01b03948580941687526020870152878601523360608601521660808401521660a082015233906157ad565b82346106da5760203660031901126106da576004356001600160a01b038116908190036106d657611640615dd1565b61018380546001600160a01b031916909117905580f35b828434610749578160031936011261074957611671615e5e565b60ca54601081901c6001600160a01b031633036116db5760ff8116156116ca5761ff0019166101001760ca55513381527f62e78cea01bee320cd4e420270b5ea74000d11b0c9f74754ebdbfc544b05a25890602090a180f35b815163866099c360e01b8152600490fd5b8151631d77d47760e21b8152600490fd5b839150346107cb576107aa906107c7936117073660046133c8565b9261171789939293519788613349565b60018060a01b03809516875260208701528786015260608501523360808501521660a083015260c0820152339061524c565b8284346107495781600319360112610749576020906108cc611411610cf0613db1565b82843461074957816003193601126107495760209061018a549051908152f35b8284346107495781600319360112610749576020906108cc6117ae6001613dea565b610e6f6117bb8284613a4f565b9183613aff565b8284346107495781600319360112610749576101f35490516001600160a01b039091168152602090f35b828434610749576020366003190112610749576004359161017a9081548410156106da575060209261181d91613261565b91905490519160031b1c8152f35b82346106da5760203660031901126106da57611845615dd1565b60043561017b5580f35b8383346106da57506107aa6107c7926118693660046133fa565b9288969596929192519661187f61010089613349565b60018060a01b039586809216895216602088015288870152606086015260808501523360a08501523360c085015216908201523390614ec4565b82346106da5760203660031901126106da576118d3615dd1565b6004356101725580f35b8284346107495781600319360112610749576020906101c0549051908152f35b82346106da5760203660031901126106da57611917615dd1565b6004356101735580f35b828434610749578160031936011261074957602090610166549051908152f35b828434610749578160031936011261074957602090610174549051908152f35b82346106da5760203660031901126106da5761197b615dd1565b60043561016d5580f35b828434610749578160031936011261074957602090610186549051908152f35b82843461074957816003193601126107495760209061016b549051908152f35b8383346106da57506107aa6107c7926119df3660046133c8565b926119ef88939293519687613349565b6001600160a01b0394851686526020860152868501526060840152336080840181905260a08401819052911660c0830152906150c7565b82346106da5760203660031901126106da57611a40615dd1565b6004356101845580f35b82346106da5760203660031901126106da576004356001600160a01b038116908190036106d657611a79615dd1565b61018880546001600160a01b031916909117905580f35b82346106da5760203660031901126106da57611aaa615dd1565b6004356101705580f35b828434610749578160031936011261074957602090610184549051908152f35b82843461074957816003193601126107495760209061017b549051908152f35b8383346106da57826003193601126106da57506001600160a01b03600435818116908190036106d657602435918083168093036106d65760a435948186168096036106d65760c4359182168092036106d6576107c7956107aa94865194611b5d61010087613349565b8552602085015260443586850152606435606085015260843560808501523360a085015260c08401528201523390614ec4565b82346106da57806003193601126106da57611ba9615dd1565b600160ff1960ca54161760ca5580f35b82843461074957816003193601126107495760209061150e615c7c565b82346106da5760203660031901126106da57611bf0615dd1565b6004356101895580f35b8284346107495781600319360112610749576101615490516001600160a01b039091168152602090f35b8284346107495781600319360112610749576101655490516001600160a01b039091168152602090f35b8383346106da57506107aa6107c792611c6836600461329e565b939492611c7a89939293519788613349565b60018060a01b039586809516885260208801528887015260608601523360808601521660a08401521660c08201523390615a3b565b82843461074957816003193601126107495760209060ff60ca5460081c1690519015158152f35b828434610749578160031936011261074957611cf0615e5e565b61017f80544310611ecd5761017e54430190557fd3c59bda47e141a8ec5a33d241b7f71b86e30d359f83a9227d912858b60404fc8280a1611d2f615321565b6101695482611d3d82613ba4565b91845b818110611dff57505080611dba575b918051928184019084526020918285015282518091528160608501930191855b828110611da657867fae5116a8119d08673a0f1dfa7546b95da4bd54bb17feda7c61130ac7859152f687870388a1600161012f5580f35b835185529381019392810192600101611d6f565b611dd1670de0b6b3a76400009161016b5490613ace565b04610163611de082825461390f565b905561017854611dfa9082906001600160a01b0316615378565b611d4f565b611e0881613cde565b611e128183614a8a565b866101809186611e228585613261565b90549060031b1c91838313611e3f575b5050505050600101611d40565b94611e8483829699611e8a94611e7e85611e71611e77611ea09a60019e670de0b6b3a764000093849161016c54613ace565b04613ace565b04926139b6565b526139a9565b97613261565b819391549060031b91821b915f19901b19161790565b9055611ec3611eaf82876139b6565b5188848060a01b03610179541691846149c1565b9086888681611e32565b815163101b685960e01b8152600490fd5b828434610749578160031936011261074957602090610187549051908152f35b82346106da5760203660031901126106da57611f18615dd1565b6004356101755580f35b82346106da5760203660031901126106da576004356001600160a01b03811681036106d657610e8e90611f53615dd1565b6101f380546001600160a01b0319166001600160a01b03909216919091179055565b5050346106da576106c990611f8b36600461339b565b9086949392945194611f9e60c087613349565b60018060a01b03809416865260208601528685015233606085015216608083015260a082015233906157ad565b5050346106da57806003193601126106da57507f00000000000000000000000000000000000000000000000000000000000000006001600160a01b0316300361203757602090517f360894a13ba1a3210667c828492db98dca3e2076cc3735a920a3ca505d382bbc8152f35b5162461bcd60e51b815260206004820152603860248201527f555550535570677261646561626c653a206d757374206e6f742062652063616c60448201527f6c6564207468726f7567682064656c656761746563616c6c00000000000000006064820152608490fd5b82346106da57806003193601126106da576120b9615dd1565b60ff1960ca541660ca5580f35b82848060031936011261074957600435906001600160a01b039081831683036106d65783926024359267ffffffffffffffff84116121b657366023850112156121b65783600401359061212461211b8361337f565b94519485613349565b81845236602483870101116121b257610e8e956020836121a5946024600199018389013786010152807f0000000000000000000000000000000000000000000000000000000000000000169061217c8230141561346c565b7f360894a13ba1a3210667c828492db98dca3e2076cc3735a920a3ca505d382bbc5416146134cd565b6121ad615dd1565b61352e565b8580fd5b8480fd5b82843461074957816003193601126107495760209061016d549051908152f35b8284346107495781600319360112610749576101795490516001600160a01b039091168152602090f35b82843461074957816003193601126107495760209061017e549051908152f35b828434610749576020366003190112610749576004356101698054821015610b22579061225091613330565b50805460019091015482519182526001600160a01b03166020820152f35b5050346106da5760603660031901126106d6576004356001600160a01b038116908190036106d6576106c9918351916122a860c084613349565b825260243560208301526044358483015233606083015233608083015260a0820152614754565b5050346106da575060603660031901126106d6576044356001600160a01b038116908190036106d65781516106c99161144760a083613349565b5050346106da5760603660031901126106d6576004356001600160a01b038116908190036106d6576106c99183519161234360c084613349565b825260243560208301526044358483015233606083015233608083015260a082015233906157ad565b8284346107495760603660031901126106d6576004356001600160a01b03811692908390036106d6576107c7926107aa918351916123ab60c084613349565b825260243560208301526044358483015233606083015233608083015260a0820152614d0f565b5050346106da5760603660031901126106d6576044356001600160a01b038116908190036106d6576106c99183519161240c60a084613349565b6004358352602435602084015233858401526060830152608082015261400d565b828434610749578160031936011261074957602090610170549051908152f35b8284346107495781600319360112610749576020906108cc61247e61248e612488612476615c7c565b9390936139ca565b8181939295614bc6565b92614484565b90614b1c565b82843461074957816003193601126107495760ca5460ff8160081c16156124fe57601081901c6001600160a01b031633036116db5761ff00191660ca55513381527f5db9ee0a495bf2e6ff9c91a7834c1ba4fdd244a5e8aa4e537bd38aeae4b073aa90602090a180f35b8151637c7fd07960e01b8152600490fd5b5050346106da57506106c961252536600461330a565b909185519361253560a086613349565b84526020840152338584018190526001600160a01b03928316606085015291166080830152906154f0565b82346106da5760203660031901126106da5761257a615dd1565b6004356101c05580f35b828434610749576020366003190112610749576004359161016a9081548410156106da575060209261181d91613261565b82843461074957602036600319011261074957600435906001600160a01b039081831683036106d657610e8e926126178386947f0000000000000000000000000000000000000000000000000000000000000000169061217c8230141561346c565b61261f615dd1565b61263461262b8461337f565b92519283613349565b828252601f196126438461337f565b0136602084013761352e565b839150346107cb576107aa906107c79361266a3660046132e1565b9261267a88939293519687613349565b60018060a01b0316855260208501528584015260608301523360808301523360a083015260c08201523390615a3b565b8284346107495781600319360112610749576126c4615e5e565b61017d805460ff81168061278f575b80612775575b6126e1578380f35b61ff00191661010017905580519082907f8b77276c97a5709f0d6db52329848a254eb760ce8be80d281799f633bdb69e838280a1610165546001600160a01b0316803b156107cb5783600481858094638456cb5960e01b83525af190811561276a575061275a575b5050612753613bd6565b8180808380f35b61276391613349565b8181612749565b51913d9150823e3d90fd5b50612784611411610cf0613db1565b61017c5410156126d9565b5060ff8160081c16156126d3565b828434610749578160031936011261074957602090610171549051908152f35b828434610749578160031936011261074957602090610175549051908152f35b82346106da5760203660031901126106da576004356001600160a01b03811681036107495761280a615dd1565b60ca805462010000600160b01b03191660109290921b62010000600160b01b031691909117905580f35b82346106da5760203660031901126106da5761284e615dd1565b60043561017c5580f35b8383346106da57506107aa6107c79261287236600461329e565b93949261288489939293519788613349565b60018060a01b039586809516885260208801528887015260608601523360808601521660a08401521660c0820152339061524c565b828434610749578160031936011261074957602090610172549051908152f35b82346106da5760203660031901126106da576004356001600160a01b0381169081900361074957612908615dd1565b61017980546001600160a01b031916909117905580f35b82843461074957816003193601126107495761028b5490516001600160a01b039091168152602090f35b828434610749576020366003190112610749576004356001600160a01b038116908190036107cb5782829160209452610176845220549051908152f35b82843461074957816003193601126107495760209060ff61017d5460081c1690519015158152f35b82346106da5760203660031901126106da576129c8615dd1565b6004356101745580f35b82346106da5760203660031901126106da57600435801515809103610749576129f9615dd1565b61017d9060ff8019835416911617905580f35b8284346107495781600319360112610749576020906108cc612a2f610cf0613db1565b90614484565b82843461074957816003193601126107495760209061017f549051908152f35b82843461074957602036600319011261074957600435916001600160a01b03831683036106da57506108cc602092339033906153e5565b8383346106da57506107aa6107c792612aa636600461329e565b939492612ab889939293519788613349565b60018060a01b039586809516885260208801528887015260608601523360808601521660a08401521660c082015233906150c7565b82346106da5760203660031901126106da576004356001600160a01b0381169081900361074957612b1c615dd1565b61016280546001600160a01b031916909117905580f35b82346106da5760203660031901126106da57612b4d615dd1565b6004356101715580f35b828434610749578160031936011261074957602090610189549051908152f35b82346106da5760203660031901126106da576004356001600160a01b0381169081900361074957612ba6615dd1565b61017880546001600160a01b031916909117905580f35b8284346107495781600319360112610749576020906101bf549051908152f35b82843461074957816003193601126107495760975490516001600160a01b039091168152602090f35b5050346106da57816003193601126106da5781516106c9916106a760a083613349565b828434610749576103e036600319011261074957815460ff8160081c16159081809261311b575b8015613104575b156130a95760ff198116600117845581613098575b506103c4356001600160a01b03811690819003610b225761028b80546001600160a01b0319169091179055825460081c60ff16612ca881613f87565b610364356001600160a01b038116908190036121b65761022680546001600160a01b03191690911790556001600160a01b0361032435908116908190036121b657610344356001600160a01b03811681036121b257600191612d0984613f87565b612d1284613f87565b612d1b84613f87565b612d2484613f87565b6001600160601b0360a01b6097541617609755612d4083613f87565b60ca5490620100008360b01b039060101b169061ff018360b01b031916171760ca55612d6b81613f87565b670de0b6b3a764000060a4351061308757612d8760e435615ea3565b612d9361010435615ea3565b612d9f61012435615ea3565b612dab61014435615ea3565b612db761016435615ea3565b612dc361018435615ea3565b612dcf6101a435615ea3565b612ddb6101c435615ea3565b612de76101e435615ea3565b612dff612dfa61022435610204356139a9565b615ea3565b6004356001600160a01b038116908190036121b65761016180546001600160a01b03191690911790556024356001600160a01b03811681036121b65761016280546001600160a01b0319166001600160a01b0392831617905560443590811681036121b65761016580546001600160a01b0319166001600160a01b0392831617905560643590811681036121b65761017880546001600160a01b0319166001600160a01b03928316179055608435908116908190036121b65761017980546001600160a01b031916909117905560a43561017b5560c43561017c5560e43561016d556101043561016e556101243561016f556101443561017055610164356101715561018435610172556101a435610173556101c435610174556101e435610175556102043561016b556102243561016c556102443561017e8190556001600160a01b0361026435908116908190036121b25761018880546001600160a01b031916909117905561028435610189556102a43561018a819055906001600160a01b036102c435908116908190036130835761018280546001600160a01b03191690911790556001600160a01b036102e4359081169081900361308357610183906001600160601b0360a01b82541617905561030435610184554361018755430161017f55430161018b5561017d61ffff1981541690556103843561300282613f87565b8015613072576101c081905543016101bf556103a4356001600160a01b03811681036121b657611f5361303492613f87565b61303c575080f35b60207f7f26b83ff96e1f2b6a682f133852f6798a09c465da95921460cefb38474024989161ff001984541684555160018152a180f35b8351632a9ffab760e21b8152600490fd5b8680fd5b8251632a9ffab760e21b8152600490fd5b61ffff191661010117835583612c6c565b825162461bcd60e51b815260206004820152602e60248201527f496e697469616c697a61626c653a20636f6e747261637420697320616c72656160448201526d191e481a5b9a5d1a585b1a5e995960921b6064820152608490fd5b50303b158015612c575750600160ff821614612c57565b50600160ff821610612c50565b82346106da5760203660031901126106da57613142615dd1565b60043561018a5580f35b828434610749578160031936011261074957613166615e5e565b61316e615321565b61018b805443106131e557906131dc9161018a54430190557f0e37fda283839477a1b77e29acf8336c0e13a5daa967913df0fe5ad258c0822f6020670de0b6b3a76400006131c3610163546101895490613ace565b049251838152a1610188546001600160a01b0316615378565b600161012f5580f35b815163acce20e560e01b8152600490fd5b82843461074957602036600319011261074957600435916101679081548410156106da575060209261322791613261565b905491519160018060a01b039160031b1c168152f35b82346106da5760203660031901126106da57613257615dd1565b60043561016c5580f35b8054821015613276575f5260205f2001905f90565b634e487b7160e01b5f52603260045260245ffd5b35906001600160a01b03821682036106d657565b91908260c09103126106d6576132b38261328a565b916020810135916040820135916060810135916132de60a06132d76080850161328a565b930161328a565b90565b91908260809103126106d6576132f68261328a565b916020810135916060604083013592013590565b91908260809103126106d6578135916020810135916132de60606132d76040850161328a565b8054821015613276575f5260205f209060011b01905f90565b90601f8019910116810190811067ffffffffffffffff82111761336b57604052565b634e487b7160e01b5f52604160045260245ffd5b67ffffffffffffffff811161336b57601f01601f191660200190565b91908260809103126106d6576133b08261328a565b916020810135916132de60606040840135930161328a565b908160a09103126106d6576133dc8161328a565b916020820135916040810135916132de60806060840135930161328a565b91908260c09103126106d65761340f8261328a565b9161341c6020820161328a565b916040820135916060810135916132de60a06080840135930161328a565b908160a09103126106d65761344e8161328a565b916020820135916040810135916132de60806132d76060850161328a565b1561347357565b60405162461bcd60e51b815260206004820152602c60248201527f46756e6374696f6e206d7573742062652063616c6c6564207468726f7567682060448201526b19195b1959d85d1958d85b1b60a21b6064820152608490fd5b156134d457565b60405162461bcd60e51b815260206004820152602c60248201527f46756e6374696f6e206d7573742062652063616c6c6564207468726f7567682060448201526b6163746976652070726f787960a01b6064820152608490fd5b9060ff7f4910fdfa16fed3260ed0e7147f7cc6da11a60208b5b9406d12a635614ffd914354165f1461356757506135659150613718565b565b6040516352d1902d60e01b8152602093919291906001600160a01b038316908581600481855afa5f91816136e9575b506135f75760405162461bcd60e51b815260048101879052602e60248201527f45524331393637557067726164653a206e657720696d706c656d656e7461746960448201526d6f6e206973206e6f74205555505360901b6064820152608490fd5b9394937fc9f76b5ec45e5cdef99837d7b6d2467235c1df8933c8ca56df5c35afa2c7d444016136925761362983613718565b7fbc7cd75a20ee27fd9adebab32041f755214dbc6bffa90cc0225b39da2e5c2d3b5f80a28351159081159161368a575b5061366357505050565b5f80613687946136716137ba565b9481519101845af461368161380e565b9161383d565b50565b90505f613659565b60405162461bcd60e51b815260048101859052602960248201527f45524331393637557067726164653a20756e737570706f727465642070726f786044820152681a58589b195555525160ba1b6064820152608490fd5b90918782813d8311613711575b6137008183613349565b810103126106da575051905f613596565b503d6136f6565b803b1561375f577f360894a13ba1a3210667c828492db98dca3e2076cc3735a920a3ca505d382bbc80546001600160a01b0319166001600160a01b03909216919091179055565b60405162461bcd60e51b815260206004820152602d60248201527f455243313936373a206e657720696d706c656d656e746174696f6e206973206e60448201526c1bdd08184818dbdb9d1c9858dd609a1b6064820152608490fd5b6137c4602761337f565b906137d26040519283613349565b60278252660819985a5b195960ca1b6040837f416464726573733a206c6f772d6c6576656c2064656c65676174652063616c6c60208201520152565b3d15613838573d9061381f8261337f565b9161382d6040519384613349565b82523d5f602084013e565b606090565b9192901561389f5750815115613851575090565b3b1561385a5790565b60405162461bcd60e51b815260206004820152601d60248201527f416464726573733a2063616c6c20746f206e6f6e2d636f6e74726163740000006044820152606490fd5b8251909150156138b25750805190602001fd5b6040519062461bcd60e51b82528160208060048301528251908160248401525f935b8285106138f6575050604492505f838284010152601f80199101168101030190fd5b84810182015186860160440152938101938593506138d4565b9190820391821161391c57565b634e487b7160e01b5f52601160045260245ffd5b61028b546040516370a0823160e01b81526001600160a01b0392831660048201529160209183916024918391165afa90811561399e575f91613970575090565b906020823d8211613996575b8161398960209383613349565b810103126106da57505190565b3d915061397c565b6040513d5f823e3d90fd5b9190820180921161391c57565b80518210156132765760209160051b010190565b905f915f906101698054905f925b8284106139fe57505050506139fa670de0b6b3a76400009161016b5490613ace565b0490565b9091929395613a45613a3a613a3f600193610cbf613a1c8a886139b6565b51613a27818c613a6a565b9590613a338d8c613330565b50546139a9565b615e7f565b986139a9565b94019291906139d8565b9190915f838201938412911290801582169115161761391c57565b91905f90613a96815f95613a8c613a8382610180613261565b93905492613b17565b9160031b1c613a4f565b5f8113613aa4575b50509190565b613ac6919450611e7192508094670de0b6b3a764000093849161016c54613ace565b045f80613a9e565b8181029291811591840414171561391c57565b8115613aeb570490565b634e487b7160e01b5f52601260045260245ffd5b81810392915f13801582851316918412161761391c57565b613b2381610169613330565b505490670de0b6b3a76400009182810292818404149015171561391c576132de92613b63613b56613b6993610181613261565b90549060031b1c84613ae1565b92613ae1565b90613aff565b8015613b8557613a3a6132de926101635461390f565b50505f1990565b67ffffffffffffffff811161336b5760051b60200190565b90613bae82613b8c565b613bbb6040519182613349565b8281528092613bcc601f1991613b8c565b0190602036910137565b61016354801561368757610169908154915f90613bf284613ba4565b9082905b858210613c605750505f5b848110613c0f575050505050565b613c2c84613c2785613c2185876139b6565b51613ace565b613ae1565b9061016a9182546801000000000000000081101561336b57611e8a8160019586613c5894018155613261565b905501613c01565b9092613c9c600191613c7186613cde565b613c7b87876139b6565b52610cbf613c898786613330565b5054613c9588886139b6565b5190615e7f565b930190613bf6565b6001600160a01b03165f90815261016860205260409020600181015460ff1615613ccc575490565b60405163e6c4247b60e01b8152600490fd5b613cea90610169613330565b50600101546001600160a01b0316613d0181613d4c565b91909115613d0d575090565b60249060405190637f6e4db960e01b82526004820152fd5b519081151582036106d657565b91908260409103126106d6576132de602083519301613d25565b604080516359e02dd760e01b81529291839060049082906001600160a01b03165afa91821561399e575f908193613d8257509190565b9050613da691925060403d8111613daa575b613d9e8183613349565b810190613d32565b9091565b503d613d94565b6101695490613dbf82613ba4565b915f5b818110613dcd575050565b80613dd9600192613cde565b613de382876139b6565b5201613dc2565b90613e0b670de0b6b3a7640000928361018754610184549243010302613ae1565b82811015613e285782039180836101855402049261018654020590565b505f91508190565b9091613e3a613e90565b929080821015613e87578391613e4f9161390f565b931115613e825781811015613e7b57613e679161390f565b60011c80821015613e76575090565b905090565b5050505f90565b505090565b50505050505f90565b61018254604080516359e02dd760e01b80825293929091906001600160a01b039081168284600481845afa8015613f7d575f948591613f5a575b5015613f43575061018354169080519485528085600481855afa8015613f39575f958691613f16575b5015613eff5750509190565b6024925051906305e8989360e11b82526004820152fd5b905081613f309296503d8711613daa57613d9e8183613349565b9490945f613ef3565b50513d5f823e3d90fd5b6024908351906305e8989360e11b82526004820152fd5b9050613f74919450833d8511613daa57613d9e8183613349565b9390935f613eca565b83513d5f823e3d90fd5b15613f8e57565b60405162461bcd60e51b815260206004820152602b60248201527f496e697469616c697a61626c653a20636f6e7472616374206973206e6f74206960448201526a6e697469616c697a696e6760a81b6064820152608490fd5b60405190613ff6608083613349565b5f6060838281528260208201528260408201520152565b61409191614019613fe7565b5061402261441f565b61402a615e5e565b670de0b6b3a764000061405c61405661404d614044613db1565b61017b54614441565b86519291614484565b90613ace565b049161408660018060a01b036040830151168460018060a01b0360808501511661016e54926144b3565b9491829691966139a9565b9160208101518084116142cc575082156142ba5760018060a01b0360408201511660018060a01b03606083015116907fa02482a2126fa394339a603e5b911cbb1bfc18ea48cd9c0896f81d083eff450f8584516141148a5160208c01518c606060408201519101519160018060a01b0360808c0151169360405197889788615775565b0390a36141896020825160018060a01b036060850151166101666141398382546139a9565b90556141496101639687546139a9565b8655610165546040516340c10f1960e01b81526001600160a01b0392831660048201526024810193909352919384929091169082905f9082906044820190565b03925af1801561399e57614279575b5061028b54614241925f92916141bc908690309033906001600160a01b03166142ea565b60408201516080909201516001600160a01b0392831692166141dc615321565b87511515841461424c5761423161423c92670de0b6b3a764000061420561016d548c5190613ace565b04906142128282546139a9565b905561422b60018060a01b036101785416918b5161390f565b90615378565b604088015190615378565b615378565b600161012f55929190565b61017854602089015161423c935061426d916001600160a01b0316856153c2565b606088015190836153c2565b906020823d6020116142b2575b8161429360209383613349565b810103126106d657614241926142a95f93613d25565b50925090614198565b3d9150614286565b60405163f3e39b5d60e01b8152600490fd5b6044908460405191630b63f1a760e01b835260048301526024820152fd5b6040516323b872dd60e01b60208201526001600160a01b0392831660248201529290911660448301526064808301939093529181526135659161432e608483613349565b602091614390916001600160a01b03165f806143498661337f565b936143576040519586613349565b8685527f5361666545524332303a206c6f772d6c6576656c2063616c6c206661696c656487860152868151910182855af161368161380e565b8051828115918215614400575b50509050156143a95750565b6084906040519062461bcd60e51b82526004820152602a60248201527f5361666545524332303a204552433230206f7065726174696f6e20646964206e6044820152691bdd081cdd58d8d9595960b21b6064820152fd5b83809293500103126106d657816144179101613d25565b80825f61439d565b60ff61017d5460081c1661442f57565b604051631ca61d7760e01b8152600490fd5b919061444c906139ca565b9190926144598385613b6f565b9080821115614466575050565b6044925060405191637912120160e01b835260048301526024820152fd5b90610166549081156144a4576132de92610cba613a3a926101635461390f565b505050670de0b6b3a764000090565b929093915f915f9182966144c5613fe7565b966001600160a01b039185908316806146d1575b508261016154168360405193636eb1769f60e11b8552168060048501523060248501526020948585604481865afa9485156146c6578495614697575b5084614576575b505050505086015115614532575b505050929190565b9091925061454a670de0b6b3a7640000928392613ace565b0480855290821561456e576145669204908160408601526139a9565b5f808061452a565b509050614566565b614584906101625416613d4c565b9290921561451c57909192939b50848b6145be85670de0b6b3a76400006145b86145ae8d8d613ace565b6101755490613ace565b04613ae1565b81830181815295908b1561468d57506145e9916145dd6060928d613ae1565b918291015285516139a9565b809d5b10928315614618575b505050614605575b80808061451c565b8192995052806060880152965f806145fd565b909192506024604051809481936370a0823160e01b835260048301525afa90811561468257908b918491614651575b50105f84816145f5565b809250858092503d831161467b575b61466a8183613349565b810103126107cb578a90515f614647565b503d614660565b6040513d85823e3d90fd5b915050809d6145ec565b9094508581813d83116146bf575b6146af8183613349565b81010312610b225751935f614515565b503d6146a5565b6040513d86823e3d90fd5b9095506020836101f35416916024604051809481936364a731e960e01b835260048301525afa8015614749578690614716575b61470f915084613ace565b945f6144d9565b506020813d8211614741575b8161472f60209383613349565b810103126121b25761470f9051614704565b3d9150614722565b6040513d88823e3d90fd5b61475c613fe7565b5061476561441f565b61476d615e5e565b614775615d3e565b61477d615c7c565b82519093919290614796906001600160a01b0316613ca4565b926147d16147b96147a786886139b6565b51966147b38888614a8a565b83614441565b90876020860151946147cb828a615bd9565b90614ade565b8181106149a35750506147eb61482e946020830151615e7f565b606082015160a083015183516001600160a01b039081165f9081526101766020526040902054614823939092859290811691166144b3565b9591839791976139a9565b926040810151808511614985575083156142ba576148ef5f926142419460018060a01b0384511660018060a01b0360608601511660018060a01b03608087015116917fbcf2dd35a7b66d878322508590f8c0f2e1042f2101dc031278e3819a304ace618a8d6148c960208b0151918b8151916020810151606060408301519201519260a0600180821b03910151169360405197889788615775565b0390a46148d68582614bfd565b602084015160808501516001600160a01b0316926149c1565b61028b5461490b908590309033906001600160a01b03166142ea565b606081015160a0909101516001600160a01b03918216911661492b615321565b8651151583146149635761423c90614231670de0b6b3a764000061495461016d548b5190613ace565b046101636142128282546139a9565b61017854602088015161423c929161426d91906001600160a01b0316856153c2565b6044908560405191630b63f1a760e01b835260048301526024820152fd5b604492506040519163c39b739f60e01b835260048301526024820152fd5b614a38936149ff5f926020956149d982610169613330565b506149e58782546139a9565b90556149f56101639182546139a9565b9055610167613261565b90546040516340c10f1960e01b81526001600160a01b039093166004840152602483019490945290948593928492909183906044820190565b039360039190911b1c6001600160a01b03165af1801561399e57614a595750565b6020813d8211614a82575b81614a7160209383613349565b810103126106d65761368790613d25565b3d9150614a64565b611e8a614ada91614a9b8482613b17565b614ad0614aaa83610180613261565b614abd8294925492838360031b1c613a4f565b919060031b91821b915f19901b19161790565b9055610181613261565b9055565b91838591614aec9385614b36565b925f8412928315614b07575b505050614b025790565b505f90565b614b12929350613b6f565b11155f8080614af8565b8115613aeb57600160ff1b81145f1983141661391c570590565b92614b449295949193614bc6565b5f938181029190858212600160ff1b821416614bb2578183051490151715614b9e57670de0b6b3a763ffff198201918211614b9e57670de0b6b3a764000091828102928184041490151715614b9e576132de929350614b1c565b634e487b7160e01b84526011600452602484fd5b634e487b7160e01b86526011600452602486fd5b9091614bd5906101635461390f565b90670de0b6b3a76400009182810292818404149015171561391c576132de92613b6991613ace565b80614c06613e90565b919093614c125f613dea565b9401938291614ca9575b0193845f808212614ca357505b840391818511614c6b575050818111614c4d57505061018555610186554361018755565b60449250604051916306da41e560e11b835260048301526024820152fd5b9080859211614c9157604491604051916306da41e560e11b835260048301526024820152fd5b604051630fb4fd3560e11b8152600490fd5b03614c29565b9050815f0390614c1c565b80910360e081126106d6578151926020830151926080604082015193605f1901126106d65760c060405191614cea608084613349565b606081015183526080810151602084015260a081015160408401520151606082015290565b90614d18613fe7565b50614d2161441f565b614d29615e5e565b5f60405191637225da8960e11b602084015260018060a01b0384511660248401526020840193845160448501526040810151606485015260018060a01b036060820151166084850152614e97614dbf614db0608084019660018060a01b0388511660a482015260018060a01b0360a08601511660c482015260c481526109d960e482613349565b60208082518301019101614cb4565b9692949198909760018060a01b038351167f2027743d48a615d54941306fd36c7ec4f15155b7837f1d1fac001f9fca73970f60018060a01b036060860151169260018060a01b0390511693518c614e788a8d805190602081015160606040830151920151928c60a0600180821b03910151169460405198899889969390989794919260e0969361010089019a8952602089015260408801526060870152608086015260a085015260c084015260018060a01b0316910152565b0390a461028b5461490b908590309033906001600160a01b03166142ea565b600161012f5593929190565b906132de915f80614eb26137ba565b93602081519101845af461368161380e565b905f92614f78614db0614e9793614ed9613fe7565b50614ee261441f565b614eea615e5e565b60408051631740b6e360e11b60208083019190915288516001600160a01b039081166024840152908901518116604483015291880151606482015260608801516084820152608088015160a482015260a0880151821660c482015260c0880151821660e482015260e0880151821661010482015291166101248083019190915281526109d961014482613349565b949196909560018060a01b0381511660018060a01b036020830151169060018060a01b0360a084015116907fe2c83b7332b25da226005e313fa95068d29d93d740b0bbd0b440615ef02f8cc461010060018060a01b0360c087015116948d6040880151908d805160208201519060606040840151930151938c60e060018060a01b039101511695604051978852602088015260408701526060860152608085015260a084015260c083015260e0820152a461028b54615045908590309033906001600160a01b03166142ea565b60a081015160e0909101516001600160a01b03918216911661492b615321565b90929160c060e09161010084019560018060a01b039281848093511687526020810151602088015260408101516040880152606081015160608801528260808201511660808801528260a08201511660a088015201511660c085015216910152565b905f92615110614db06109cb6109d9614e97956150e2613fe7565b506150eb61441f565b6150f3615e5e565b60405163ab6dd71d60e01b60208201529283918960248401615065565b9491969095878660018060a01b03835116608084019060018060a01b0382511660018060a01b0360a087015116917f7e56a428e0421aac1dabe4207701c8a9cf0b76f6d7ab85f73d98a86294c992fc60208801519686519761519c60208901998a519b60408b019a60c060608d5192015192019d8e60018060a01b039051169360405197889788615775565b0390a461028b546151bb908890309033906001600160a01b03166142ea565b5192516001600160a01b039384169316906151d4615321565b88511515851461522d5761423c9250615226670de0b6b3a76400006151fe61016d548c5190613ace565b0461016361520d8282546139a9565b905561422b60018060a01b036101785416918c5161390f565b5190615378565b5061017854915161423c9261426d91906001600160a01b0316856153c2565b905f92615295614db06109cb6109d9614e9795615267613fe7565b5061527061441f565b615278615e5e565b60405163474c3add60e11b60208201529283918960248401615065565b9491969095878660018060a01b03835116608084019060018060a01b0382511660018060a01b0360a087015116917f21ab49eba1e974aa50c50aec84de10487a4198e478b26afb214fd269e60e319060208801519686519761519c60208901998a519b60408b019a60c060608d5192015192019d8e60018060a01b039051169360405197889788615775565b61012f60028154146153335760029055565b60405162461bcd60e51b815260206004820152601f60248201527f5265656e7472616e637947756172643a207265656e7472616e742063616c6c006044820152606490fd5b9080615382575050565b61028b5460405163a9059cbb60e01b60208201526001600160a01b039384166024820152604480820193909352918252613565921661432e606483613349565b9190816153ce57505050565b6101615461356593906001600160a01b03166142ea565b615453916153f1615e5e565b6153f9615321565b61540230613930565b604051636845c44560e01b60208201526001600160a01b0393841660248201529183166044830152848316606483015260848083019190915281529061544960a483613349565b6102265416614ea3565b6020818051810103126106d657602061546f9101518092615378565b600161012f5590565b60e08101929160c09081906001600160a01b03806154958361328a565b1685526154a46020830161328a565b16602085015260408101356040850152606081013560608501526080810135608085015260a081013560a08501520135910152565b61017f5480431015614b02576132de90439061390f565b90916154fa613fe7565b5061550361441f565b61550b615e5e565b615513615d3e565b61552661551e615c7c565b819291614441565b9091615535828487519361575d565b81811061573f575050670de0b6b3a76400009161405661555792865192614484565b049182156142ba576040810151608082015161016f54615595969261558a9287916001600160a01b0391821691166144b3565b95918297919761390f565b92602081015180851061572157508560018060a01b0360408301511660018060a01b03606084015116907ff47ea38b2dbacd4ea4e4c63f21b558d8acd7cf60181e4ca6c2e09bf1ef6c91df87855161561486516020880151606060408a015199019889519160018060a01b0360808d0151169360405197889788615775565b0390a381519361016661562886825461390f565b905561563861016394855461390f565b8455610165546001600160a01b031694853b156106d657604051632770a7eb60e21b81526001600160a01b039290921660048301526024820152935f908590604490829084905af192831561399e57614241948694615711575b50604083015160608401516080909401516001600160a01b0394851694908116939116906156be615321565b8951156156e75750509061423161423c92670de0b6b3a764000061420561016d548c5190613ace565b6101785460208b015161423c9593945061570a916001600160a01b0316856153c2565b51916153c2565b5f61571b91613349565b5f615692565b60449085604051916354cde31360e01b835260048301526024820152fd5b604492506040519163a5db715d60e01b835260048301526024820152fd5b614aec61576b848484614bc6565b61248e8585614484565b959260c09592989794919860e08801998852602088015260408701526060860152608085015260a084015260018060a01b0316910152565b9091615855926157bb613fe7565b506157c461441f565b6157cc615e5e565b6157d4613db1565b8351615812906157ec906001600160a01b0316613ca4565b916158066157fa84836139b6565b51916140448386614a8a565b50506020860151615e7f565b606085015160a086015186516001600160a01b039081165f908152610177602052604090205461584a939092859290811691166144b3565b96918398919861390f565b9382156142ba576040820151808610615a1d575060018060a01b0382511660018060a01b0360608401511660018060a01b03608085015116917f9a7c695d191e65e20d74a5fd655a98fa9323ed1f504360e03defc63e668b47288860208701516158e78d80519060208101519060606040820151910151918c60a0600180821b03910151169360405197889788615775565b0390a46158f5600186614bfd565b61593060208301519461590a81610169613330565b5061591687825461390f565b905561592661016395865461390f565b8555610167613261565b905460039190911b1c6001600160a01b031693843b156106d657604051632770a7eb60e21b81526001600160a01b039290921660048301526024820152925f908490604490829084905af191821561399e57614241938593615a0d575b506060820151608083015160a0909301516001600160a01b039384169390811691166159b7615321565b8851156159de575061423161423c92670de0b6b3a764000061420561016d548c5190613ace565b6101785460208a015161423c9450919291615a02916001600160a01b0316846153c2565b6060890151916153c2565b5f615a1791613349565b5f61598d565b60449086604051916354cde31360e01b835260048301526024820152fd5b9091615a83614db06109cb6109d9614e9796615a55613fe7565b50615a5e61441f565b615a66615e5e565b60405163178aad2b60e11b60208201529283918860248401615065565b939280929691958560018060a01b0382511660018060a01b0360808401511660018060a01b0360a085015116917fa1062c9e887113838edfbc65f23a4fd5cfeb240416670cdf3fa10ba3c85f251f8c6020870151615b4489885160208a01998a5160606040830151920151928d60c060018060a01b03910151169460405198899889969390989794919260e0969361010089019a8952602089015260408801526060870152608086015260a085015260c084015260018060a01b0316910152565b0390a4608082015160a083015160c0909301516001600160a01b039384169390811692911690615b72615321565b885115615b9a57505061423c90614231670de0b6b3a764000061495461016d548b5190613ace565b61017854905161423c9391615a0291906001600160a01b0316846153c2565b90604051615bc8604082613349565b602060018294805484520154910152565b615be58161017a613261565b90549060031b1c916101be91615bfb8184613330565b5054926101bf54431015615c21575b505080821015613e8257613c27906132de93613ace565b829350615c35615c409392615c3b92613330565b50615bb9565b615c48565b905f80615c0a565b602081519101805192670de0b6b3a76400009384039084821161391c57615c75610cbf926139fa95613ace565b9251613ace565b5f8061016991825492615c8e84613ba4565b9382915b818310615cbb575050508115615caf5790615cac91613ae1565b91565b505061017b5460011b91565b90919392615cc885613cde565b9081615cd487896139b6565b52615ced615ce28388613a6a565b50613a338886613330565b670de0b6b3a76400009081810291818304149015171561391c57615d2f615d3592610cbf85615d21600197615d2a96615e7f565b9485918c615bd9565b613ace565b956139a9565b94019190615c92565b6101bf8054431015615d4d5750565b610169545f5b818110615d665750506101c05443019055565b80807f19156e9379c7bbbce8f646ce5ee30ba860b8f954717405f3d5859a6c1a21ae606001936101be615d9c615c358383613330565b90615dba615db2615dac85613cde565b84615c48565b938492613330565b50555160409182519182526020820152a201615d53565b60975460405163d994d6d560e01b815233600482015290602090829060249082906001600160a01b03165afa90811561399e575f91615e25575b5015615e1357565b604051631dd1b1b560e21b8152600490fd5b906020823d8211615e56575b81615e3e60209383613349565b810103126106da5750615e5090613d25565b5f615e0b565b3d9150615e31565b60ff60ca5460081c16615e6d57565b60405163783bb6c960e11b8152600490fd5b90670de0b6b3a76400009182810292818404149015171561391c576132de91613ae1565b670de0b6b3a764000010615eb357565b604051632a9ffab760e21b8152600490fdfea26469706673582212206b6208c83ec2a2f9842641737106bd716804c6a9d9094bbff5343175156b8b1764736f6c6343000814003360a08060405234620000df57306080525f549060ff8260081c166200008d575060ff8082160362000052575b604051613ea99081620000e48239608051818181611a8e01528181611bff0152611e3f0152f35b60ff90811916175f557f7f26b83ff96e1f2b6a682f133852f6798a09c465da95921460cefb3847402498602060405160ff8152a15f6200002b565b62461bcd60e51b815260206004820152602760248201527f496e697469616c697a61626c653a20636f6e747261637420697320696e697469604482015266616c697a696e6760c81b6064820152608490fd5b5f80fdfe60806040526004361015610011575f80fd5b5f803560e01c806301dde6ef1461276b57806301f1b68414612723578063073763b9146126ff5780630c340a24146126d65780630c36d897146126b75780630d6ac463146126715780630db49656146126525780630e0a8fd21461262e5780630f1e5e2b146125e85780631867e2f5146125c95780631fe6a7ad1461258f5780632069f7531461256b57806323b98cde1461254457806324ffaba31461250657806327eab2a1146124c05780632a20d57d146124a15780632c43bd3b1461247d5780632d88af4a146124265780632ded50f0146124075780632e816dc6146121a55780632f155a5614611fb6578063333431fd14611f9757806333421c3814611ea65780633659cfe614611e0d5780633915edcb14611dde5780633bc4ac0a14611dba5780633f4ba83a14611d3f578063407f0e3414611d205780634b74600114611cd35780634d977e7814611cb45780634e1f907a14611c8a5780634f0f27ee14611c6b5780634f1ef28614611b775780635210570c14611b5157806352d1902d14611a7b578063543aeb4814611a575780635860ee6314611a385780635c975abb14611a1257806360009e0b146119e8578063647846a5146119be57806364ec230a1461199a578063662013f414611976578063682743571461194d5780636845c4451461174f5780636b5488df146117305780636f30471f1461171157806370713468146116ed578063735d3960146116a757806373e28af9146116835780637554fffd1461166457806376228055146116455780637750ba0c1461162157806379f9a91c146116025780637a193c31146115e35780637a4ff1d9146115bf5780637a727fe8146115a05780637af5758c1461157c5780637cba2383146115585780637d8e03141461151b5780637f01c715146114f15780637f13b998146114bd5780637f4a4fe01461149e5780638456cb591461140757806385bf9593146113c15780638cfa4241146113a25780638e2bdb86146113785780638e9875ba146111e05780639853c35a146111b65780639ad6659d1461117c5780639cabfc001461112f5780639fd0506d14611102578063a8e9ac30146110e0578063ab6dd71d14610f6d578063aea038dc14610f4e578063b5e9ea8c14610f24578063b9fa641314610f05578063bb4872de14610ee2578063becaca6b14610ebe578063c00f538d14610e9a578063c84353c914610e76578063cf351c1d14610e30578063d1a0faa014610e14578063d6af11da14610dd2578063d87aab6f14610db3578063d8db6f5a14610d6d578063db79607214610af4578063ddb6d19014610ab6578063e44bb5121461086f578063e4c0aaf414610826578063e6b1627c146107e3578063e7c25978146107bf578063ee1f438f14610795578063f13f40541461076b578063f26114aa14610580578063f28087781461055c578063f30b56141461053d578063f375cfba1461051e578063fa6e83bd146104ff578063fadda424146104875763fda70f8b14610466575f80fd5b34610484578060031936011261048457602061016e54604051908152f35b80fd5b5034610484576020366003190112610484576001600160a01b0360043581811681036104fb576104c36104bb60019261307a565b61016961287a565b500154166104d0816130f8565b919091156104e357602082604051908152f35b60249060405190637f6e4db960e01b82526004820152fd5b5f80fd5b5034610484578060031936011261048457602061016c54604051908152f35b5034610484578060031936011261048457602061017354604051908152f35b5034610484578060031936011261048457602061016354604051908152f35b503461048457602036600319011261048457610576613da1565b60043561016e5580f35b50346104845760e0366003190112610484576004356001600160a01b03818116918290036104fb578183526101686020526040832060ff6001604051926105c86040856127cc565b80548452015416158015602083015261071d575190602435908082168092036104fb576101699060016105fb858461287a565b5001541682036106a3575b847f6417e5a3c1e0e5dae98b8fe718c4babdfcb35e0d7b5e1b9641b5914756f5d8e36004858761065661063b8361017a61278f565b6044929192359083549060031b91821b915f19901b19161790565b9055808552610176602052606435604086205584526101776020526084356040852055610685816101be61287a565b50600160c43591015561069d6040519283928361332e565b0390a180f35b9190926040516359e02dd760e01b8152604081600481885afa90811561076057869161072f575b501561071d577f6417e5a3c1e0e5dae98b8fe718c4babdfcb35e0d7b5e1b9641b5914756f5d8e39360016107008460049661287a565b5001906001600160601b0360a01b82541617905592819250610606565b60405163e6c4247b60e01b8152600490fd5b610751915060403d604011610759575b61074981836127cc565b8101906130de565b90505f6106ca565b503d61073f565b6040513d88823e3d90fd5b5034610484578060031936011261048457610162546040516001600160a01b039091168152602090f35b5034610484578060031936011261048457610182546040516001600160a01b039091168152602090f35b5034610484578060031936011261048457602060ff61017d54166040519015158152f35b503461048457602036600319011261048457600435906101be908154831015610484576040610812848461287a565b506001815491015482519182526020820152f35b5034610484576020366003190112610484576004356001600160a01b0381169081900361086b57610855613da1565b6001600160601b0360a01b609754161760975580f35b5080fd5b5060c0366003190112610484576040519061088b60c0836127cc565b6001600160a01b039060043582811681036104fb578352602083016024358152604084019260443584526064359080821682036104fb576060860191825260843581811681036104fb576080870190815260a4359482861686036104fb5760a088019586526108f8613396565b5061090d83610905613158565b99511661307a565b9161093061091b848b612d49565b51996109278b8661353e565b61017c546134fb565b9961094788519b6109418388613bae565b9361358e565b91670de0b6b3a763ffff198101908111610aa2578161096961096e928e612e7a565b612e8d565b98670de0b6b3a764000092838b02908b820485148c151715610a8e5761099391612e8d565b9b838102938185041490151715610a8e576109de97876109c16109ba6109d3958397612e8d565b809d612d5d565b988992511692511661017454926135bd565b989187989198612d5d565b9951808b11610a7057508915610a5e57610a0d610a1796610a0286610a5a9c613853565b83855116908d613485565b51915116926133bc565b604051948594859293606091959460c09360e086019786526020860152604085015280518285015260208101516080850152604081015160a08501520151910152565b0390f35b60405163f3e39b5d60e01b8152600490fd5b6044908b60405191630b63f1a760e01b835260048301526024820152fd5b634e487b7160e01b5f52601160045260245ffd5b634e487b7160e01b85526011600452602485fd5b5034610484576020366003190112610484576004356001600160a01b038116908190036104fb57816040916020935261017783522054604051908152f35b50346104845760e0366003190112610484576004356001600160a01b03818116918290036104fb57602480358281168091036104fb578385526101689360209085825260019260ff8460408a20015416610d5b576101679586549785604051610b5e6040826127cc565b8a815286810192828452868d52875260408c2090518155019051151560ff801983541691161790558654600160401b9788821015610d485790610ba591878201815561278f565b81549060031b908386831b921b1916179055604051610bc56040826127cc565b89815284810192835261016980549089821015610d355790610beb91888201815561287a565b919091610d2257908691518155019151166001600160601b0360a01b825416179055610c1b60443561017a612f92565b8087526101768252606435604088205586526101778152608435604087205560405190610c496040836127cc565b60a4358252810160c43581526101be80549086821015610d0f5790610c7291858201815561287a565b929092610cfc579083915183555191015561018091825493841015610cea5750827f6417e5a3c1e0e5dae98b8fe718c4babdfcb35e0d7b5e1b9641b5914756f5d8e39492610cc59260049501815561278f565b5050610cdb610cd3826130a2565b610181612f92565b61069d6040519283928361332e565b634e487b7160e01b8652604160045285fd5b634e487b7160e01b885260048890528488fd5b634e487b7160e01b895260416004528589fd5b634e487b7160e01b8b5260048b9052878bfd5b634e487b7160e01b8c526041600452888cfd5b634e487b7160e01b8b526041600452878bfd5b604051633458f6c560e01b8152600490fd5b5034610484576020366003190112610484576004356001600160a01b038116908190036104fb57610d9c613da1565b61018280546001600160a01b031916909117905580f35b5034610484578060031936011261048457602061018554604051908152f35b50346104845780600319360112610484576020610e0c610df26001613191565b610e06610dff8284612eab565b9183612df5565b916131d7565b604051908152f35b5034610484578060031936011261048457610e2d613d0e565b80f35b5034610484576020366003190112610484576004356001600160a01b038116908190036104fb57610e5f613da1565b61016180546001600160a01b031916909117905580f35b503461048457602036600319011261048457610e90613da1565b60043561017e5580f35b503461048457602036600319011261048457610eb4613da1565b60043561016f5580f35b503461048457602036600319011261048457610ed8613da1565b60043561016b5580f35b5034610484578060031936011261048457602060ff60ca54166040519015158152f35b5034610484578060031936011261048457602061018b54604051908152f35b5034610484578060031936011261048457610183546040516001600160a01b039091168152602090f35b5034610484578060031936011261048457602061016f54604051908152f35b5061010036600319011261048457610f86366004612802565b60e435916001600160a01b03919082841684036104fb5761102890610fa9613396565b50610fb2613158565b93610fbf8185511661307a565b93610fe2610fcd8688612d49565b5196610fd9888861353e565b61017b546134fb565b611022602084979397019861101d610ffb828c51613e4f565b9861101861100e8d516101665490612e7a565b9561016354612f3b565b612f3b565b612e7a565b90613e4f565b96604082015180891080156110d8575b6110ba575061105983608084015116868560c08601511661017154926135bd565b97919890966060850151808b1161109b5750610a1795938760a094610a5a9b9a99979461108a600161109196613853565b519061390a565b0151169087613485565b6044908a5160405191630b63f1a760e01b835260048301526024820152fd5b604490896040519163f577bef560e01b835260048301526024820152fd5b508815611038565b503461048457806003193601126104845760206101bf54431015604051908152f35b503461048457806003193601126104845760ca5460405160109190911c6001600160a01b03168152602090f35b5034610484576020366003190112610484576004356001600160a01b038116908190036104fb57604082819281526101686020522060ff6001825492015416825191825215156020820152f35b503461048457806003193601126104845760206111a86111a261119d613158565b612d6a565b90612f1e565b61017c541015604051908152f35b5034610484578060031936011261048457610178546040516001600160a01b039091168152602090f35b50610100366003190112610484576111f9366004612802565b6001600160a01b039160e4359083821682036104fb57611217613396565b50611220613d0e565b611228613c51565b9490916112378286511661307a565b916112576112458489612d49565b5197611251898661353e565b856134fb565b60208892980197885161126b83838a613b40565b81811061135a57505090611297918951670de0b6b3a7640000938491611291858561358e565b90612e7a565b04978815610a5e576112d3936112ca6112c08e61101d8f51611291886110188b61016354612f3b565b6101665490612e8d565b049b8c89613a06565b604081015180891061133c57506112fc82608083015116868460c08501511661017254926135bd565b97919890966060840151808b1161109b575085936113338c9486610a5a9c9b9a989561132d610a179b60a097613853565b5161399c565b015116926133bc565b604490896040519163272e3f5960e21b835260048301526024820152fd5b604492506040519163a5db715d60e01b835260048301526024820152fd5b5034610484578060031936011261048457610188546040516001600160a01b039091168152602090f35b5034610484578060031936011261048457602061017c54604051908152f35b5034610484576020366003190112610484576004356001600160a01b038116908190036104fb576113f0613da1565b61018380546001600160a01b031916909117905580f35b5034610484578060031936011261048457611420613e2e565b60ca54601081901c6001600160a01b0316330361148c5760ff81161561147a576101009061ff0019161760ca557f62e78cea01bee320cd4e420270b5ea74000d11b0c9f74754ebdbfc544b05a2586020604051338152a180f35b60405163866099c360e01b8152600490fd5b604051631d77d47760e21b8152600490fd5b5034610484578060031936011261048457602061018a54604051908152f35b50346104845780600319360112610484576020610e0c6114dd6001613191565b610e066114ea8284612df5565b9183612eab565b50346104845780600319360112610484576101f3546040516001600160a01b039091168152602090f35b5034610484576020366003190112610484576004359061017a90815483101561048457602061154a848461278f565b90546040519160031b1c8152f35b503461048457602036600319011261048457611572613da1565b60043561017b5580f35b503461048457602036600319011261048457611596613da1565b6004356101725580f35b503461048457806003193601126104845760206101c054604051908152f35b5034610484576020366003190112610484576115d9613da1565b6004356101735580f35b5034610484578060031936011261048457602061016654604051908152f35b5034610484578060031936011261048457602061017454604051908152f35b50346104845760203660031901126104845761163b613da1565b60043561016d5580f35b5034610484578060031936011261048457602061018654604051908152f35b5034610484578060031936011261048457602061016b54604051908152f35b50346104845760203660031901126104845761169d613da1565b6004356101845580f35b5034610484576020366003190112610484576004356001600160a01b038116908190036104fb576116d6613da1565b61018880546001600160a01b031916909117905580f35b503461048457602036600319011261048457611707613da1565b6004356101705580f35b5034610484578060031936011261048457602061018454604051908152f35b5034610484578060031936011261048457602061017b54604051908152f35b5034610484576080366003190112610484576001600160a01b039060043582811691908281036104fb57602435848116948582036104fb57604435928184168094036104fb5760ff61017d5460081c161561193b576117ad9061307a565b6101676117ba828261278f565b95905498604051966370a0823160e01b8852816004890152876024818860209e8f9560031b1c165afa968715611930578897611901575b5086156118e3576118146118078561016a61278f565b90549060031b1c88613e4f565b986064358a81106118d9575b509061185d949392917ffaab3901cd2d6e9b5d0a0c6e34c643b8c844726f3c54de69517e571bf24bbd9260408d8d8251918d8352820152a461278f565b90549060031b1c1690813b156118d557604051632770a7eb60e21b81526001600160a01b03919091166004820152602481019290925282908290604490829084905af180156118ca576118b5575b5050604051908152f35b6118c08280926127cc565b61048457806118ab565b6040513d84823e3d90fd5b8380fd5b995061185d611820565b60448760405190633fe8c5eb60e01b82528060048301526024820152fd5b9096508981813d8311611929575b61191981836127cc565b810103126104fb5751955f6117f1565b503d61190f565b6040513d8a823e3d90fd5b60405163031b0d3560e11b8152600490fd5b5034610484578060031936011261048457611966613da1565b600160ff1960ca54161760ca5580f35b50346104845780600319360112610484576020611991613c51565b50604051908152f35b5034610484576020366003190112610484576119b4613da1565b6004356101895580f35b5034610484578060031936011261048457610161546040516001600160a01b039091168152602090f35b5034610484578060031936011261048457610165546040516001600160a01b039091168152602090f35b5034610484578060031936011261048457602060ff60ca5460081c166040519015158152f35b5034610484578060031936011261048457602061018754604051908152f35b503461048457602036600319011261048457611a71613da1565b6004356101755580f35b50346104845780600319360112610484577f00000000000000000000000000000000000000000000000000000000000000006001600160a01b03163003611ae65760206040517f360894a13ba1a3210667c828492db98dca3e2076cc3735a920a3ca505d382bbc8152f35b60405162461bcd60e51b815260206004820152603860248201527f555550535570677261646561626c653a206d757374206e6f742062652063616c60448201527f6c6564207468726f7567682064656c656761746563616c6c00000000000000006064820152608490fd5b5034610484578060031936011261048457611b6a613da1565b60ff1960ca541660ca5580f35b506040366003190112610484576001600160a01b0360043581811681036104fb5782916024359167ffffffffffffffff8311611c665736602384011215611c66578260040135611bc681612893565b92611bd460405194856127cc565b8184523660248387010111611c6257610e2d95602083611c55946024600199018389013786010152807f00000000000000000000000000000000000000000000000000000000000000001690611c2c823014156128af565b7f360894a13ba1a3210667c828492db98dca3e2076cc3735a920a3ca505d382bbc541614612910565b611c5d613da1565b612971565b8580fd5b505050fd5b5034610484578060031936011261048457602061016d54604051908152f35b5034610484578060031936011261048457610179546040516001600160a01b039091168152602090f35b5034610484578060031936011261048457602061017e54604051908152f35b50346104845760203660031901126104845760043590610169908154831015610484576040611d02848461287a565b50805460019091015482519182526001600160a01b03166020820152f35b5034610484578060031936011261048457602061017054604051908152f35b503461048457806003193601126104845760ca5460ff8160081c1615611da857601081901c6001600160a01b0316330361148c5761ff00191660ca557f5db9ee0a495bf2e6ff9c91a7834c1ba4fdd244a5e8aa4e537bd38aeae4b073aa6020604051338152a180f35b604051637c7fd07960e01b8152600490fd5b503461048457602036600319011261048457611dd4613da1565b6004356101c05580f35b5034610484576020366003190112610484576004359061016a90815483101561048457602061154a848461278f565b5034610484576020366003190112610484576004356001600160a01b0380821682036104fb57610e2d91611e6c8285937f00000000000000000000000000000000000000000000000000000000000000001690611c2c823014156128af565b611e74613da1565b611e7d82612893565b90611e8b60405192836127cc565b828252601f19611e9a84612893565b01366020840137612971565b5034610484578060031936011261048457611ebf613e2e565b61017d805460ff811680611f89575b80611f6f575b611edc578280f35b61ff0019166101001790556040517f8b77276c97a5709f0d6db52329848a254eb760ce8be80d281799f633bdb69e838280a16101655482906001600160a01b0316803b1561086b5782600481848094638456cb5960e01b83525af18015611f6257611f52575b5050611f4c612fce565b5f808280f35b611f5b916127cc565b5f81611f42565b50604051903d90823e3d90fd5b50611f7e6111a261119d613158565b61017c541015611ed4565b5060ff8160081c1615611ece565b5034610484578060031936011261048457602061017154604051908152f35b5061010036600319011261048457611fcf366004612802565b6001600160a01b039060e43582811681036118d557611fec613396565b50611ff5613d0e565b611ffd613c51565b91909361200c8185511661307a565b9061202661201a8386612d49565b5194610927868561353e565b96670de0b6b3a763ffff1990818101908111612191576120469087612e7a565b6120508786613bae565b91820191821161219157612095959493929161206b91612e8d565b9061207f602089019261101d838551612e7a565b670de0b6b3a76400009687916101665490612e8d565b04986040890151808b1161217357506120b09083519261358e565b96868a028a810488148b15171561215f57906120cb91612e8d565b908115610a5e576120ef612114976120e860609a61210994612e7a565b0483612d5d565b93848160808c0151169160c08c01511661017354926135bd565b989185989198612f3b565b98015180891061214157509261213c858a9b94610a5a9a9b9461132d6001610a179a99613853565b61390a565b60449089604051916354cde31360e01b835260048301526024820152fd5b634e487b7160e01b8c52601160045260248cfd5b6044908b60405191637a031da360e11b835260048301526024820152fd5b634e487b7160e01b8a52601160045260248afd5b50366003190190610120821261048457610100809212610484576121cc60405192836127cc565b6004356001600160a01b038116810361086b578252602435906001600160a01b0382168203610484576020830191825260443560408401526064356060840190815260843560808501529260a4356001600160a01b03811681036124035760a082015260c4356001600160a01b03811681036124035760c082015260e4356001600160a01b03811681036124035760e0820152610104356001600160a01b038116900361086b5761227b613396565b50805183516001600160a01b039081169116146123f15780516122ba906122aa906001600160a01b031661307a565b93516001600160a01b031661307a565b906122c4846130a2565b6122cd836130a2565b6122d7828761353e565b6122e1818561353e565b6122ef826040850151613e4f565b9161230281610969846040880151612e7a565b975180891080156123e9575b61133c575090612356929161232d6123268388613bae565b9189613bae565b106123ba575b5060a083015160e08401516101705492916001600160a01b0391821691166135bd565b9491959093608084015180881161239b575091610a5a9594939161238c610a1794838b60018060a01b0360c088015116926133bc565b6040610104359301519061390a565b604490875160405191630b63f1a760e01b835260048301526024820152fd5b6123d96123e3916123c9613d0e565b6123d1613c51565b8193916134fb565b9290918b89613a06565b5f612333565b50881561230e565b604051632a9ffab760e21b8152600490fd5b8280fd5b5034610484578060031936011261048457602061017554604051908152f35b5034610484576020366003190112610484576004356001600160a01b038116810361086b57612453613da1565b60ca805462010000600160b01b03191660109290921b62010000600160b01b031691909117905580f35b503461048457602036600319011261048457612497613da1565b60043561017c5580f35b5034610484578060031936011261048457602061017254604051908152f35b5034610484576020366003190112610484576004356001600160a01b0381169081900361086b576124ef613da1565b61017980546001600160a01b031916909117905580f35b5034610484576020366003190112610484576004356001600160a01b0381169081900361086b57816040916020935261017683522054604051908152f35b5034610484578060031936011261048457602060ff61017d5460081c166040519015158152f35b503461048457602036600319011261048457612585613da1565b6004356101745580f35b50346104845760203660031901126104845760043580151580910361086b576125b6613da1565b61017d9060ff8019835416911617905580f35b5034610484578060031936011261048457602061017f54604051908152f35b5034610484576020366003190112610484576004356001600160a01b0381169081900361086b57612617613da1565b61016280546001600160a01b031916909117905580f35b503461048457602036600319011261048457612648613da1565b6004356101715580f35b5034610484578060031936011261048457602061018954604051908152f35b5034610484576020366003190112610484576004356001600160a01b0381169081900361086b576126a0613da1565b61017880546001600160a01b031916909117905580f35b503461048457806003193601126104845760206101bf54604051908152f35b50346104845780600319360112610484576097546040516001600160a01b039091168152602090f35b503461048457602036600319011261048457612719613da1565b60043561018a5580f35b50346104845760203660031901126104845760043590610167908154831015610484576020612752848461278f565b905460405160039290921b1c6001600160a01b03168152f35b503461048457602036600319011261048457612785613da1565b60043561016c5580f35b80548210156127a4575f5260205f2001905f90565b634e487b7160e01b5f52603260045260245ffd5b35906001600160a01b03821682036104fb57565b90601f8019910116810190811067ffffffffffffffff8211176127ee57604052565b634e487b7160e01b5f52604160045260245ffd5b91908260e09103126104fb5760405161281c60e0826127cc565b60c061287581839561282d816127b8565b8552602081013560208601526040810135604086015260608101356060860152612859608082016127b8565b608086015261286a60a082016127b8565b60a0860152016127b8565b910152565b80548210156127a4575f5260205f209060011b01905f90565b67ffffffffffffffff81116127ee57601f01601f191660200190565b156128b657565b60405162461bcd60e51b815260206004820152602c60248201527f46756e6374696f6e206d7573742062652063616c6c6564207468726f7567682060448201526b19195b1959d85d1958d85b1b60a21b6064820152608490fd5b1561291757565b60405162461bcd60e51b815260206004820152602c60248201527f46756e6374696f6e206d7573742062652063616c6c6564207468726f7567682060448201526b6163746976652070726f787960a01b6064820152608490fd5b909160ff7f4910fdfa16fed3260ed0e7147f7cc6da11a60208b5b9406d12a635614ffd914354165f146129ab57506129a99150612bd5565b565b604080516352d1902d60e01b8152602094919392906001600160a01b038416908681600481855afa5f9181612ba6575b50612a3b57855162461bcd60e51b815260048101889052602e60248201527f45524331393637557067726164653a206e657720696d706c656d656e7461746960448201526d6f6e206973206e6f74205555505360901b6064820152608490fd5b9395929492937fc9f76b5ec45e5cdef99837d7b6d2467235c1df8933c8ca56df5c35afa2c7d44401612b5057612a7086612bd5565b7fbc7cd75a20ee27fd9adebab32041f755214dbc6bffa90cc0225b39da2e5c2d3b5f80a283511590811591612b48575b50612aac575b50505050565b612b34935f80612abc6027612893565b95612ac9855197886127cc565b602787527f416464726573733a206c6f772d6c6576656c2064656c65676174652063616c6c86880152660819985a5b195960ca1b858801528581519101845af4913d15612b3e573d612b26612b1d82612893565b925192836127cc565b81525f81943d92013e612c77565b505f808080612aa6565b5060609250612c77565b90505f612aa0565b825162461bcd60e51b815260048101859052602960248201527f45524331393637557067726164653a20756e737570706f727465642070726f786044820152681a58589b195555525160ba1b6064820152608490fd5b90918882813d8311612bce575b612bbd81836127cc565b81010312610484575051905f6129db565b503d612bb3565b803b15612c1c577f360894a13ba1a3210667c828492db98dca3e2076cc3735a920a3ca505d382bbc80546001600160a01b0319166001600160a01b03909216919091179055565b60405162461bcd60e51b815260206004820152602d60248201527f455243313936373a206e657720696d706c656d656e746174696f6e206973206e60448201526c1bdd08184818dbdb9d1c9858dd609a1b6064820152608490fd5b91929015612cd95750815115612c8b575090565b3b15612c945790565b60405162461bcd60e51b815260206004820152601d60248201527f416464726573733a2063616c6c20746f206e6f6e2d636f6e74726163740000006044820152606490fd5b825190915015612cec5750805190602001fd5b6040519062461bcd60e51b82528160208060048301528251908160248401525f935b828510612d30575050604492505f838284010152601f80199101168101030190fd5b8481018201518686016044015293810193859350612d0e565b80518210156127a45760209160051b010190565b91908201809211610a8e57565b905f915f906101698054905f925b828410612d9e5750505050612d9a670de0b6b3a76400009161016b5490612e7a565b0490565b9091929395612deb612dda612de5600193612ddf612dbc8a88612d49565b51612dc7818c612e10565b9590612dd38d8c61287a565b5054612d5d565b613e4f565b90612d5d565b98612d5d565b9401929190612d78565b9190915f8382019384129112908015821691151617610a8e57565b91905f90612e3c815f95612e32612e298261018061278f565b93905492612ec3565b9160031b1c612df5565b5f8113612e4a575b50509190565b612e72919450612e6c92508094670de0b6b3a764000093849161016c54612e7a565b04612e7a565b045f80612e44565b81810292918115918404141715610a8e57565b8115612e97570490565b634e487b7160e01b5f52601260045260245ffd5b81810392915f138015828513169184121617610a8e57565b612ecf8161016961287a565b505490670de0b6b3a764000091828102928184041490151715610a8e57612f1b92612f0f612f02612f159361018161278f565b90549060031b1c84612e8d565b92612e8d565b90612eab565b90565b8015612f3457612dda612f1b9261016354612f3b565b50505f1990565b91908203918211610a8e57565b67ffffffffffffffff81116127ee5760051b60200190565b90612f6a82612f48565b612f7760405191826127cc565b8281528092612f88601f1991612f48565b0190602036910137565b805490600160401b8210156127ee5781612fb4916001612fca9401815561278f565b819391549060031b91821b915f19901b19161790565b9055565b61016354801561307757610169908154915f90612fea84612f60565b9082905b8582106130335750505f5b848110613007575050505050565b8061302d613025866109698761301f60019789612d49565b51612e7a565b61016a612f92565b01612ff9565b909261306f600191613044866130a2565b61304e8787612d49565b52612ddf61305c878661287a565b50546130688888612d49565b5190613e4f565b930190612fee565b50565b6001600160a01b03165f90815261016860205260409020600181015460ff161561071d575490565b6130ae9061016961287a565b50600101546001600160a01b03166130c5816130f8565b919091156104e3575090565b519081151582036104fb57565b91908260409103126104fb57612f1b6020835193016130d1565b604080516359e02dd760e01b81529291839060049082906001600160a01b03165afa91821561314d575f90819361312e57509190565b905061314991925060403d81116107595761074981836127cc565b9091565b6040513d5f823e3d90fd5b610169549061316682612f60565b915f5b818110613174575050565b806131806001926130a2565b61318a8287612d49565b5201613169565b906131b2670de0b6b3a7640000928361018754610184549243010302612e8d565b828110156131cf5782039180836101855402049261018654020590565b505f91508190565b90916131e1613237565b92908082101561322e5783916131f691612f3b565b93111561322957818110156132225761320e91612f3b565b60011c8082101561321d575090565b905090565b5050505f90565b505090565b50505050505f90565b61018254604080516359e02dd760e01b80825293929091906001600160a01b039081168284600481845afa8015613324575f948591613301575b50156132ea575061018354169080519485528085600481855afa80156132e0575f9586916132bd575b50156132a65750509190565b6024925051906305e8989360e11b82526004820152fd5b9050816132d79296503d87116107595761074981836127cc565b9490945f61329a565b50513d5f823e3d90fd5b6024908351906305e8989360e11b82526004820152fd5b905061331b919450833d85116107595761074981836127cc565b9390935f613271565b83513d5f823e3d90fd5b9081526101008101929160e09060c0906001600160a01b0380613350836127b8565b166020860152613362602083016127b8565b1660408501526040810135606085015260608101356080850152608081013560a085015260a0810135828501520135910152565b604051906133a56080836127cc565b5f6060838281528260208201528260408201520152565b613433936133fa5f926020956133d48261016961287a565b506133e0878254612d5d565b90556133f0610163918254612d5d565b905561016761278f565b90546040516340c10f1960e01b81526001600160a01b039093166004840152602483019490945290948593928492909183906044820190565b039360039190911b1c6001600160a01b03165af1801561314d576134545750565b6020813d821161347d575b8161346c602093836127cc565b810103126104fb57613077906130d1565b3d915061345f565b6134ea9260209261016661349a848254612d5d565b90556134aa610163918254612d5d565b9055610165546040516340c10f1960e01b81526001600160a01b0392831660048201526024810193909352919384929091169082905f9082906044820190565b03925af1801561314d576134545750565b919061350690612d6a565b9190926135138385612f1e565b9080821115613520575050565b6044925060405191637912120160e01b835260048301526024820152fd5b612fb4612fca9161354f8482612ec3565b61358461355e8361018061278f565b6135718294925492838360031b1c612df5565b919060031b91821b915f19901b19161790565b905561018161278f565b90610166549081156135ae57612f1b92611018612dda9261016354612f3b565b505050670de0b6b3a764000090565b929093915f915f9182966135cf613396565b966001600160a01b039185908316806137db575b508261016154168360405193636eb1769f60e11b8552168060048501523060248501526020948585604481865afa9485156137d05784956137a1575b5084613680575b50505050508601511561363c575b505050929190565b90919250613654670de0b6b3a7640000928392612e7a565b0480855290821561367857613670920490816040860152612d5d565b5f8080613634565b509050613670565b61368e9061016254166130f8565b9290921561362657909192939b50848b6136c885670de0b6b3a76400006136c26136b88d8d612e7a565b6101755490612e7a565b04612e8d565b81830181815295908b1561379757506136f3916136e76060928d612e8d565b91829101528551612d5d565b809d5b10928315613722575b50505061370f575b808080613626565b8192995052806060880152965f80613707565b909192506024604051809481936370a0823160e01b835260048301525afa90811561378c57908b91849161375b575b50105f84816136ff565b809250858092503d8311613785575b61377481836127cc565b81010312612403578a90515f613751565b503d61376a565b6040513d85823e3d90fd5b915050809d6136f6565b9094508581813d83116137c9575b6137b981836127cc565b810103126118d55751935f61361f565b503d6137af565b6040513d86823e3d90fd5b9095506020836101f35416916024604051809481936364a731e960e01b835260048301525afa8015610760578690613820575b613819915084612e7a565b945f6135e3565b506020813d821161384b575b81613839602093836127cc565b81010312611c6257613819905161380e565b3d915061382c565b8061385c613237565b9190936138685f613191565b94019382916138ff575b0193845f8082126138f957505b8403918185116138c15750508181116138a357505061018555610186554361018755565b60449250604051916306da41e560e11b835260048301526024820152fd5b90808592116138e757604491604051916306da41e560e11b835260048301526024820152fd5b604051630fb4fd3560e11b8152600490fd5b0361387f565b9050815f0390613872565b61393891939261391c8261016961287a565b50613928868254612f3b565b90556133f0610163918254612f3b565b905460039190911b1c6001600160a01b031691823b156104fb57604051632770a7eb60e21b81526001600160a01b0390921660048301526024820152905f908290818381604481015b03925af1801561314d576139925750565b5f6129a9916127cc565b91906101666139ac848254612f3b565b90556139bc610163918254612f3b565b9055610165546001600160a01b031691823b156104fb57604051632770a7eb60e21b81526001600160a01b0390921660048301526024820152905f90829081838160448101613981565b92613a1883613a1e9694939795613bae565b90613a47565b818110613a29575050565b604492506040519163c39b739f60e01b835260048301526024820152fd5b90929192613a56858484613b09565b5f948181029190868212600160ff1b821416613adb578183051490151715610aa257670de0b6b3a763ffff198201918211610aa257670de0b6b3a764000091828102928184041490151715610aa25790613aaf91613aef565b93838512928315613ac6575b50505061321d575090565b613ad1929350612f1e565b11155f8080613abb565b634e487b7160e01b87526011600452602487fd5b8115612e9757600160ff1b81145f19831416610a8e570590565b9091613b189061016354612f3b565b90670de0b6b3a764000091828102928184041490151715610a8e57612f1b92612f1591612e7a565b613b5e613b4e848484613b09565b613b58858561358e565b90613aef565b925f8412928315613b79575b505050613b745790565b505f90565b613b84929350612f1e565b11155f8080613b6a565b90604051613b9d6040826127cc565b602060018294805484520154910152565b613bba8161017a61278f565b90549060031b1c916101be91613bd0818461287a565b5054926101bf54431015613bf6575b5050808210156132295761096990612f1b93612e7a565b829350613c0a613c159392613c109261287a565b50613b8e565b613c1d565b905f80613bdf565b602081519101805192670de0b6b3a764000093840390848211610a8e57613c4a612ddf92612d9a95612e7a565b9251612e7a565b5f8061016991825492613c6384612f60565b9382915b818310613c90575050508115613c845790613c8191612e8d565b91565b505061017b5460011b91565b90919392613c9d856130a2565b9081613ca98789612d49565b52613cc2613cb78388612e10565b50612dd3888661287a565b670de0b6b3a764000090818102918183041490151715610a8e57613cff613d0592612ddf85613cf660019761101d96613e4f565b9485918c613bae565b95612d5d565b94019190613c67565b6101bf8054431015613d1d5750565b610169545f5b818110613d365750506101c05443019055565b80807f19156e9379c7bbbce8f646ce5ee30ba860b8f954717405f3d5859a6c1a21ae606001936101be613d6c613c0a838361287a565b90613d8a613d82613d7c856130a2565b84613c1d565b93849261287a565b50555160409182519182526020820152a201613d23565b60975460405163d994d6d560e01b815233600482015290602090829060249082906001600160a01b03165afa90811561314d575f91613df5575b5015613de357565b604051631dd1b1b560e21b8152600490fd5b906020823d8211613e26575b81613e0e602093836127cc565b810103126104845750613e20906130d1565b5f613ddb565b3d9150613e01565b60ff60ca5460081c16613e3d57565b60405163783bb6c960e11b8152600490fd5b90670de0b6b3a764000091828102928184041490151715610a8e57612f1b91612e8d56fea2646970667358221220c49ec90fb6e2f3627d8e46d095038d865a0848165f1601efaf060fca5c27de8464736f6c6343000814003360803461005c57601f61019638819003918201601f19168301916001600160401b038311848410176100605780849260209460405283398101031261005c57515f55600160ff198154161760015560405161012190816100758239f35b5f80fd5b634e487b7160e01b5f52604160045260245ffdfe60808060405260043610156011575f80fd5b5f90813560e01c90816332145f901460d357816359e02dd71460a95750806373d4a13a14608e578063b689d5ac14606d5763c62dee0d14604f575f80fd5b34606a5780600319360112606a5760ff196001541660015580f35b80fd5b5034606a5780600319360112606a57602060ff600154166040519015158152f35b5034606a5780600319360112606a5760209054604051908152f35b90503460cf578160031936011260cf576040915460ff6001541690825215156020820152f35b5080fd5b8234606a576020366003190112606a57600435815580f3fea2646970667358221220cdfee9ec5ddc673a5f3cbca28b2c9f31f256b475dca7337243c0463cc0cfa99e64736f6c634300081400336080604052346200039b57620000146200039f565b6200001e6200039f565b81519091906001600160401b0390818111620002a6576003918254926001928385811c951695861562000390575b602096878710146200037c578190601f9687811162000329575b508790878311600114620002c6575f92620002ba575b50505f1982841b1c191690841b1781555b8551918211620002a65760049586548481811c911680156200029b575b87821014620002885785811162000240575b508590858411600114620001d9579383949184925f95620001cd575b50501b925f19911b1c19161783555b601260ff19600554161760055533156200018c57506002547b6df37f675ef6eadf5ab9a2072d44268d97df837e6748956e5c6c2117928382018092116200017957505f917fddf252ad1be2c89b69c2b068fc378daa952ba7f163c4a11628f55a4df523b3ef91600255338352828152604083208481540190556040519384523393a3604051610c2d9081620003d68239f35b601190634e487b7160e01b5f525260245ffd5b606492916040519262461bcd60e51b845283015260248201527f45524332303a206d696e7420746f20746865207a65726f2061646472657373006044820152fd5b015193505f80620000d8565b9190601f19841692885f5284885f20945f5b8a898383106200022857505050106200020e575b50505050811b018355620000e7565b01519060f8845f19921b161c191690555f808080620001ff565b868601518955909701969485019488935001620001eb565b875f52865f208680860160051c8201928987106200027e575b0160051c019085905b82811062000272575050620000bc565b5f815501859062000262565b9250819262000259565b602288634e487b7160e01b5f525260245ffd5b90607f1690620000aa565b634e487b7160e01b5f52604160045260245ffd5b015190505f806200007c565b90869350601f19831691855f52895f20925f5b8b828210620003125750508411620002fa575b505050811b0181556200008d565b01515f1983861b60f8161c191690555f8080620002ec565b8385015186558a97909501949384019301620002d9565b909150835f52875f208780850160051c8201928a861062000372575b918891869594930160051c01915b8281106200036357505062000066565b5f815585945088910162000353565b9250819262000345565b634e487b7160e01b5f52602260045260245ffd5b94607f16946200004c565b5f80fd5b60408051919082016001600160401b03811183821017620002a657604052600982526845524332304d6f636b60b81b602083015256fe60806040818152600480361015610014575f80fd5b5f92833560e01c90816306fdde031461064657508063095ea7b31461061257806318160ddd146105f357806323b872dd146105a5578063313ce5671461013d578063395093511461055557806340c10f191461049657806342966c68146104785780635c2f5e261461044357806370a082311461040b57806379cc6790146103d15780637a1395aa146103a457806395d89b41146102845780639dc29fac14610252578063a457c2d7146101a2578063a9059cbb14610163578063ace28fa51461013d5763dd62ed3e146100e6575f80fd5b346101395781600319360112610139576001600160a01b039035818116908190036101355760243591821680920361013557928291602094825260018552828220908252845220549051908152f35b8380fd5b8280fd5b50503461015f578160031936011261015f5760209060ff600554169051908152f35b5080fd5b503461013957816003193601126101395735916001600160a01b038316830361019f575061019660209260243590610ba7565b90519015158152f35b80fd5b50823461019f578260031936011261019f578135916001600160a01b0383169182840361019f578490602435933382526001602052828220908252602052205490828210610201576020856101fa8585038733610910565b5160018152f35b608490602086519162461bcd60e51b8352820152602560248201527f45524332303a2064656372656173656420616c6c6f77616e63652062656c6f77604482015264207a65726f60d81b6064820152fd5b5090346101395736600319011261015f57356001600160a01b038116810361015f576102819060243590610aa1565b80f35b5091903461015f578160031936011261015f57805190828454600181811c9080831692831561039a575b60209384841081146103875783885290811561036b5750600114610316575b505050829003601f01601f191682019267ffffffffffffffff84118385101761030357508291826102ff92528261073b565b0390f35b634e487b7160e01b815260418552602490fd5b8787529192508591837f8a35acfbc15ff81a39ae7d344fd709f28e8600b4aa8c65c6b64bfe7fe36bd19b5b83851061035757505050508301015f80806102cd565b805488860183015293019284908201610341565b60ff1916878501525050151560051b84010190505f80806102cd565b634e487b7160e01b895260228a52602489fd5b91607f16916102ae565b83823461015f57602036600319011261015f573560ff811680910361015f5760ff19600554161760055580f35b5090346101395736600319011261015f57356001600160a01b038116810361015f576102819060243590610406823383610a0e565b610aa1565b503461013957602036600319011261013957356001600160a01b03811690819003610139578282916020945280845220549051908152f35b83823461015f57602036600319011261015f5735600381101561015f5761ff006005549160081b169061ff0019161760055580f35b83823461015f57602036600319011261015f57610281903533610aa1565b503461013957816003193601126101395780356001600160a01b03811692908390036101355760243591831561051357506020827fddf252ad1be2c89b69c2b068fc378daa952ba7f163c4a11628f55a4df523b3ef926104f98795600254610782565b60025585855284835280852082815401905551908152a380f35b6020606492519162461bcd60e51b8352820152601f60248201527f45524332303a206d696e7420746f20746865207a65726f2061646472657373006044820152fd5b5034610139578160031936011261013957356001600160a01b038116808203610135579061059e6020946101fa9333825260018752858220908252865284602435912054610782565b9033610910565b50346101395760603660031901126101395735916001600160a01b0390818416840361019f57602435918216820361019f57506020926101fa91604435916105ee833383610a0e565b6107a3565b50503461015f578160031936011261015f576020906002549051908152f35b503461013957816003193601126101395735916001600160a01b038316830361019f57506101fa6020926024359033610910565b849150833461013957826003193601126101395782600354600181811c90808316928315610731575b60209384841081146103875783885290811561071557506001146106bf57505050829003601f01601f191682019267ffffffffffffffff84118385101761030357508291826102ff92528261073b565b600387529192508591837fc2575a0e9e593c00f959f8c92f12db2869c3395a3b0502d05e2516446f71f85b5b83851061070157505050508301018580806102cd565b8054888601830152930192849082016106eb565b60ff1916878501525050151560051b84010190508580806102cd565b91607f169161066f565b602080825282518183018190529093925f5b82811061076e57505060409293505f838284010152601f8019910116010190565b81810186015184820160400152850161074d565b9190820180921161078f57565b634e487b7160e01b5f52601160045260245ffd5b6001600160a01b039081169182156108bd571691821561086c575f8281528060205260408120549180831061081857604082827fddf252ad1be2c89b69c2b068fc378daa952ba7f163c4a11628f55a4df523b3ef958760209652828652038282205586815220818154019055604051908152a3565b60405162461bcd60e51b815260206004820152602660248201527f45524332303a207472616e7366657220616d6f756e7420657863656564732062604482015265616c616e636560d01b6064820152608490fd5b60405162461bcd60e51b815260206004820152602360248201527f45524332303a207472616e7366657220746f20746865207a65726f206164647260448201526265737360e81b6064820152608490fd5b60405162461bcd60e51b815260206004820152602560248201527f45524332303a207472616e736665722066726f6d20746865207a65726f206164604482015264647265737360d81b6064820152608490fd5b6001600160a01b039081169182156109bd571691821561096d5760207f8c5be1e5ebec7d5bd14f71427d1e84f3dd0314c0f7b2291e5b200ac8c7c3b92591835f526001825260405f20855f5282528060405f2055604051908152a3565b60405162461bcd60e51b815260206004820152602260248201527f45524332303a20617070726f766520746f20746865207a65726f206164647265604482015261737360f01b6064820152608490fd5b60405162461bcd60e51b8152602060048201526024808201527f45524332303a20617070726f76652066726f6d20746865207a65726f206164646044820152637265737360e01b6064820152608490fd5b9060018060a01b038083165f52600160205260405f209082165f5260205260405f2054925f198403610a41575b50505050565b808410610a5c57610a53930391610910565b5f808080610a3b565b60405162461bcd60e51b815260206004820152601d60248201527f45524332303a20696e73756666696369656e7420616c6c6f77616e63650000006044820152606490fd5b6001600160a01b03168015610b58575f91818352826020526040832054818110610b0857817fddf252ad1be2c89b69c2b068fc378daa952ba7f163c4a11628f55a4df523b3ef926020928587528684520360408620558060025403600255604051908152a3565b60405162461bcd60e51b815260206004820152602260248201527f45524332303a206275726e20616d6f756e7420657863656564732062616c616e604482015261636560f01b6064820152608490fd5b60405162461bcd60e51b815260206004820152602160248201527f45524332303a206275726e2066726f6d20746865207a65726f206164647265736044820152607360f81b6064820152608490fd5b9060ff60055460081c166003811015610be35760018114610bdc57600214610bd857610bd391336107a3565b600190565b5f80fd5b5050505f90565b634e487b7160e01b5f52602160045260245ffdfea2646970667358221220d807c6b3a38b1f485aab7e106888fa4e9433ad410bd18f373b26c4f05ab4137864736f6c6343000814003360803461005c57601f61019438819003918201601f19168301916001600160401b038311848410176100605780849260209460405283398101031261005c57515f55600160ff198154161760015560405161011f90816100758239f35b5f80fd5b634e487b7160e01b5f52604160045260245ffdfe60808060405260043610156011575f80fd5b5f90813560e01c9081632a3f43891460cd5750806332145f901460b55780635095e3d914609957806359e02dd71460725763b689d5ac14604f575f80fd5b34606f5780600319360112606f57602060ff600154166040519015158152f35b80fd5b5034606f5780600319360112606f576040905460ff60015416825191825215156020820152f35b5034606f5780600319360112606f5760ff196001541660015580f35b5034606f576020366003190112606f57600435815580f35b90503460e5578160031936011260e557602091548152f35b5080fdfea26469706673582212206e01e0fc7ad29f980198245451b1a3b264767a2c462903153ac36cf1bf1cbbfc64736f6c634300081400336080806040523461002157600160ff195f5416175f5561019790816100268239f35b5f80fdfe608080604052600480361015610013575f80fd5b5f91823560e01c90816357e6c2f41461014257508281638c777e82146100b2575080639e0a8e09146100865763d994d6d51461004d575f80fd5b3461008257602036600319011261008257356001600160a01b0381160361007f5760ff60209154166040519015158152f35b80fd5b5080fd5b503461008257602036600319011261008257358015158091036100825760ff8019835416911617815580f35b80833461013f57602036600319011261013f5780356001600160a01b0381169081900361013b57803b1561013b5782908260405180958193631851865560e21b83525af1801561013057610104578280f35b67ffffffffffffffff821161011d575060405281808280f35b634e487b7160e01b835260419052602482fd5b6040513d85823e3d90fd5b5050fd5b50fd5b83903461008257816003193601126100825760ff602092541615158152f3fea26469706673582212204bf312122b7b606c57edd691e412a219d65b680f623ea94fd09e9aab19826dfe64736f6c6343000814003360a080604052346100da57306080525f549060ff8260081c16610088575060ff8082160361004e575b60405161217f90816100df8239608051818181610c9801528181610db30152610f8a0152f35b60ff90811916175f557f7f26b83ff96e1f2b6a682f133852f6798a09c465da95921460cefb3847402498602060405160ff8152a15f610028565b62461bcd60e51b815260206004820152602760248201527f496e697469616c697a61626c653a20636f6e747261637420697320696e697469604482015266616c697a696e6760c81b6064820152608490fd5b5f80fdfe608060409080825260049081361015610016575f80fd5b5f92833560e01c91826301ffc9a71461130d5750816306fdde0314611263578163095ea7b31461122d5781630c340a241461120357816318160ddd146111e457816323b872dd14611111578163248a9ca3146110e55781632f2ff15d1461109e578163313ce5671461108257816336568abe14610fef578382633659cfe614610f58575081633950935114610f0657816340c10f1914610e165781634f1ef28614610d5757816352d1902d14610c8357816370a0823114610c4857816383d2230d14610b0d5781638f15b414146106395781639010d07c146105f757816391d14854146105ab57816395d89b41146104ca5781639dc29fac1461037c578163a217fddf14610361578163a457c2d7146102b8578163a9059cbb14610278578163ca15c8731461024f578163d547741f14610205578163dd62ed3e146101ab575063e4c0aaf414610164575f80fd5b346101a75760203660031901126101a757356001600160a01b038116908190036101a75761019061204f565b61019180546001600160a01b031916909117905580f35b5080fd5b919050346102015781600319360112610201576001600160a01b039035818116908190036101fd576024359182168092036101fd57928291602094825260ca8552828220908252845220549051908152f35b8380fd5b8280fd5b9190503461020157816003193601126102015760243590356001600160a01b03821682036101fd57610247600161024c948387526065602052862001546114fe565b6115d9565b80f35b919050346102015760203660031901126102015760209282913581526097845220549051908152f35b9190503461020157816003193601126102015735916001600160a01b03831683036102b557506102ae6020926024359033611a76565b5160018152f35b80fd5b8284346102b557826003193601126102b5578135916001600160a01b038316918284036102b55784906024359333825260ca602052828220908252602052205490828210610310576020856102ae8585038733611be5565b608490602086519162461bcd60e51b8352820152602560248201527f45524332303a2064656372656173656420616c6c6f77616e63652062656c6f77604482015264207a65726f60d81b6064820152fd5b8390346101a757816003193601126101a75751908152602090f35b8383346101a757826003193601126101a75780356001600160a01b038116919082900361020157602435906103d07f3c11d16cbaffd01df69ce1c404f6340ee057498f5f00246190ea54220576a8486114fe565b821561047d5782845260c9602052848420549082821061042f57508184957fddf252ad1be2c89b69c2b068fc378daa952ba7f163c4a11628f55a4df523b3ef9360209386885260c9855203818720558160cb540360cb5551908152a380f35b608490602087519162461bcd60e51b8352820152602260248201527f45524332303a206275726e20616d6f756e7420657863656564732062616c616e604482015261636560f01b6064820152fd5b608490602086519162461bcd60e51b8352820152602160248201527f45524332303a206275726e2066726f6d20746865207a65726f206164647265736044820152607360f81b6064820152fd5b8390346101a757816003193601126101a7578051908260cd546104ec81611a1d565b808552916001918083169081156105835750600114610526575b505050610518826105229403836113c8565b519182918261139c565b0390f35b945060cd85527f83978b4c69c48dd978ab43fe30f077615294f938fb7f936d9eb340e51ea7db2e5b82861061056b575050506105188260206105229582010194610506565b8054602087870181019190915290950194810161054e565b61052297508693506020925061051894915060ff191682840152151560051b82010194610506565b919050346102015781600319360112610201576024356001600160a01b03811691908290036101fd5760209360ff92849235825260658652828220908252855220541690519015158152f35b919050346102015781600319360112610201576020926106239135815260978452826024359120611ec6565b905491519160018060a01b039160031b1c168152f35b9050346102015760803660031901126102015767ffffffffffffffff918035838111610b095761066c9036908301611454565b92602435818111610b05576106849036908401611454565b93604435916001600160a01b03918284168403610b0157606435928316809303610b015787549660ff8860081c161595868097610af4575b8015610add575b15610a8357600198878a60ff198316178c55610a72575b506106fd60ff8b5460081c166106ef816120e9565b6106f8816120e9565b6120e9565b8251848111610a5f578061071260cc54611a1d565b94601f958681116109ee575b506020908d8784116001146109705792610965575b50505f19600383901b1c1916908a1b1760cc555b8151938411610952575061075c60cd54611a1d565b8281116108ef575b50602091831160011461086b5761081f94939291899183610860575b50505f19600383901b1c191690871b1760cd555b6107b160ff885460081c166107a8816120e9565b6106ef816120e9565b61019180546001600160a01b03191690911790556107cf8187611472565b6107f9817f9f2df0fed2c77648de5860a4cc508cd0818c85b8b8a1ab4ceeef8d981c8956a6611472565b7f3c11d16cbaffd01df69ce1c404f6340ee057498f5f00246190ea54220576a848611472565b610827578280f35b825461ff0019168355519081527f7f26b83ff96e1f2b6a682f133852f6798a09c465da95921460cefb384740249890602090a15f808280f35b015190505f80610780565b60cd895293929187917f83978b4c69c48dd978ab43fe30f077615294f938fb7f936d9eb340e51ea7db2e90601f1983168b5b8181106108d75750968361081f98106108bf575b505050811b0160cd55610794565b01515f1960f88460031b161c191690555f80806108b1565b8289015184558b95909301926020928301920161089d565b60cd8a527f83978b4c69c48dd978ab43fe30f077615294f938fb7f936d9eb340e51ea7db2e8380860160051c82019260208710610949575b0160051c019089905b82811061093e575050610764565b8b8155018990610930565b92508192610927565b634e487b7160e01b8a5260419052602489fd5b015190505f80610733565b91908d9450601f19841660cc84527f47197230e1e4b29fc0bd84d7d78966c0925452aff72a2a121538b102457e9ebe935b8181106109d6575084116109be575b505050811b0160cc55610747565b01515f1960f88460031b161c191690555f80806109b0565b8284015185558f9690940193602093840193016109a1565b90915060cc8d527f47197230e1e4b29fc0bd84d7d78966c0925452aff72a2a121538b102457e9ebe8680850160051c82019260208610610a56575b859493910160051c909101908d908f5b838210610a485750505061071e565b81558594508e91018f610a39565b92508192610a29565b634e487b7160e01b8b526041825260248bfd5b61ffff1916610101178a555f6106da565b608490602089519162461bcd60e51b8352820152602e60248201527f496e697469616c697a61626c653a20636f6e747261637420697320616c72656160448201526d191e481a5b9a5d1a585b1a5e995960921b6064820152fd5b50303b1580156106c35750600160ff8a16146106c3565b50600160ff8a16106106bc565b8780fd5b8580fd5b8480fd5b905034610201576020366003190112610201578135906001600160a01b03821682036101fd578380526065602052610b4a600182862001546114fe565b610b548285611472565b7f9f2df0fed2c77648de5860a4cc508cd0818c85b8b8a1ab4ceeef8d981c8956a6610b7f8382611472565b610baa7f3c11d16cbaffd01df69ce1c404f6340ee057498f5f00246190ea54220576a8489384611472565b610bb433826115d9565b610bbe33846115d9565b610bc833866115d9565b848052609760205260018286205403610c3157808552609760205260018286205403610c1b5750818452609760205260018185205403610c06578380f35b51630e2b37cd60e41b81529182015260249150fd5b83906024925191630e2b37cd60e41b8352820152fd5b8151630e2b37cd60e41b8152808501869052602490fd5b9190503461020157602036600319011261020157356001600160a01b03811690819003610201578282916020945260c9845220549051908152f35b8284346102b557806003193601126102b557507f00000000000000000000000000000000000000000000000000000000000000006001600160a01b03163003610cef57602082517f360894a13ba1a3210667c828492db98dca3e2076cc3735a920a3ca505d382bbc8152f35b6020608492519162461bcd60e51b8352820152603860248201527f555550535570677261646561626c653a206d757374206e6f742062652063616c60448201527f6c6564207468726f7567682064656c656761746563616c6c00000000000000006064820152fd5b36600319011290506101a75780356001600160a01b0380821682036101fd576024359167ffffffffffffffff8311610b095736602384011215610b0957610e09610daf61024c9585602460019736930135910161141a565b92807f00000000000000000000000000000000000000000000000000000000000000001690610de08230141561165e565b7f360894a13ba1a3210667c828492db98dca3e2076cc3735a920a3ca505d382bbc5416146116bf565b610e1161204f565b611720565b905082346102b557816003193601126102b55782356001600160a01b03811691908290036102b557602435610e6a7f9f2df0fed2c77648de5860a4cc508cd0818c85b8b8a1ab4ceeef8d981c8956a66114fe565b8215610ec357602080955081610ea37fddf252ad1be2c89b69c2b068fc378daa952ba7f163c4a11628f55a4df523b3ef9360cb54611a55565b60cb5584845260c982528584208181540190558551908152a35160018152f35b835162461bcd60e51b8152602081870152601f60248201527f45524332303a206d696e7420746f20746865207a65726f2061646472657373006044820152606490fd5b91905034610201578160031936011261020157356001600160a01b0381168082036101fd5790610f516020946102ae9333825260ca8752858220908252865284602435912054611a55565b9033611be5565b915091346101a75760203660031901126101a7576001600160a01b03929035838116810361020157610fb78461024c957f00000000000000000000000000000000000000000000000000000000000000001690610de08230141561165e565b610fbf61204f565b610fd4610fcb846113fe565b925192836113c8565b828252601f19610fe3846113fe565b01366020840137611720565b8383346101a757826003193601126101a757602435906001600160a01b0382168083036101fd573303611027579061024c91356115d9565b608490602085519162461bcd60e51b8352820152602f60248201527f416363657373436f6e74726f6c3a2063616e206f6e6c792072656e6f756e636560448201526e103937b632b9903337b91039b2b63360891b6064820152fd5b8390346101a757816003193601126101a7576020905160128152f35b9190503461020157816003193601126102015760243590356001600160a01b03821682036101fd576110e0600161024c948387526065602052862001546114fe565b611472565b919050346102015760203660031901126102015781602093600192358152606585522001549051908152f35b8383346101a75760603660031901126101a75780356001600160a01b03818116939092908483036102b55760243593841684036102b557859060443595815260ca6020528181203382526020522054905f198203611178575b6020866102ae878787611a76565b8482106111a15750918391611196602096956102ae95033383611be5565b91939481935061116a565b606490602087519162461bcd60e51b8352820152601d60248201527f45524332303a20696e73756666696369656e7420616c6c6f77616e63650000006044820152fd5b8390346101a757816003193601126101a75760209060cb549051908152f35b8390346101a757816003193601126101a7576101915490516001600160a01b039091168152602090f35b9190503461020157816003193601126102015735916001600160a01b03831683036102b557506102ae6020926024359033611be5565b8390346101a757816003193601126101a7578051908260cc5461128581611a1d565b8085529160019180831690811561058357506001146112b057505050610518826105229403836113c8565b945060cc85527f47197230e1e4b29fc0bd84d7d78966c0925452aff72a2a121538b102457e9ebe5b8286106112f5575050506105188260206105229582010194610506565b805460208787018101919091529095019481016112d8565b84908434610201576020366003190112610201573563ffffffff60e01b81168091036102015760209250635a05180f60e01b8114908115611350575b5015158152f35b637965db0b60e01b81149150811561136a575b5083611349565b6301ffc9a760e01b14905083611363565b5f5b83811061138c5750505f910152565b818101518382015260200161137d565b604091602082526113bc815180928160208601526020868601910161137b565b601f01601f1916010190565b90601f8019910116810190811067ffffffffffffffff8211176113ea57604052565b634e487b7160e01b5f52604160045260245ffd5b67ffffffffffffffff81116113ea57601f01601f191660200190565b929192611426826113fe565b9161143460405193846113c8565b829481845281830111611450578281602093845f960137010152565b5f80fd5b9080601f830112156114505781602061146f9335910161141a565b90565b9060406114b0925f9080825260656020528282209360018060a01b03169384835260205260ff8383205416156114b3575b8152609760205220611edb565b50565b8082526065602052828220848352602052828220600160ff198254161790553384827f2f8788117e7eff1d82e926ec794901d17c78024a50270940304540a733656f0d8580a46114a3565b805f5260206065815260405f20335f52815260ff60405f20541615611521575050565b6115bd60486115d593836115436115ae9561153d601433611d74565b93611d74565b906040519586937f416363657373436f6e74726f6c3a206163636f756e742000000000000000000083860152611582815180928560378901910161137b565b8401917001034b99036b4b9b9b4b733903937b6329607d1b60378401528351938491878501910161137b565b010360288101845201826113c8565b60405162461bcd60e51b81529182916004830161139c565b0390fd5b9060406114b0925f9080825260656020528282209360018060a01b03169384835260205260ff8383205416611616575b8152609760205220611f62565b808252606560205282822084835260205282822060ff1981541690553384827ff6391f5c32d9c69d2a47ea670b442974b53935d1edc7fd64eb21e047a839171b8580a4611609565b1561166557565b60405162461bcd60e51b815260206004820152602c60248201527f46756e6374696f6e206d7573742062652063616c6c6564207468726f7567682060448201526b19195b1959d85d1958d85b1b60a21b6064820152608490fd5b156116c657565b60405162461bcd60e51b815260206004820152602c60248201527f46756e6374696f6e206d7573742062652063616c6c6564207468726f7567682060448201526b6163746976652070726f787960a01b6064820152608490fd5b909160ff7f4910fdfa16fed3260ed0e7147f7cc6da11a60208b5b9406d12a635614ffd914354165f1461175a5750611758915061197b565b565b604080516352d1902d60e01b8152602094919392906001600160a01b038416908681600481855afa5f918161194c575b506117ea57855162461bcd60e51b815260048101889052602e60248201527f45524331393637557067726164653a206e657720696d706c656d656e7461746960448201526d6f6e206973206e6f74205555505360901b6064820152608490fd5b9395929492937fc9f76b5ec45e5cdef99837d7b6d2467235c1df8933c8ca56df5c35afa2c7d444016118f65761181f8661197b565b7fbc7cd75a20ee27fd9adebab32041f755214dbc6bffa90cc0225b39da2e5c2d3b5f80a2835115908115916118ee575b5061185b575b50505050565b6118da935f8061186b60276113fe565b95611878855197886113c8565b602787527f416464726573733a206c6f772d6c6576656c2064656c65676174652063616c6c86880152660819985a5b195960ca1b858801528581519101845af4913d156118e4573d6118cc610fcb826113fe565b81525f81943d92013e611ce3565b505f808080611855565b5060609250611ce3565b90505f61184f565b825162461bcd60e51b815260048101859052602960248201527f45524331393637557067726164653a20756e737570706f727465642070726f786044820152681a58589b195555525160ba1b6064820152608490fd5b90918882813d8311611974575b61196381836113c8565b810103126102b5575051905f61178a565b503d611959565b803b156119c2577f360894a13ba1a3210667c828492db98dca3e2076cc3735a920a3ca505d382bbc80546001600160a01b0319166001600160a01b03909216919091179055565b60405162461bcd60e51b815260206004820152602d60248201527f455243313936373a206e657720696d706c656d656e746174696f6e206973206e60448201526c1bdd08184818dbdb9d1c9858dd609a1b6064820152608490fd5b90600182811c92168015611a4b575b6020831014611a3757565b634e487b7160e01b5f52602260045260245ffd5b91607f1691611a2c565b91908201809211611a6257565b634e487b7160e01b5f52601160045260245ffd5b6001600160a01b03908116918215611b925716918215611b41575f82815260c9602052604081205491808310611aed57604082827fddf252ad1be2c89b69c2b068fc378daa952ba7f163c4a11628f55a4df523b3ef95876020965260c98652038282205586815220818154019055604051908152a3565b60405162461bcd60e51b815260206004820152602660248201527f45524332303a207472616e7366657220616d6f756e7420657863656564732062604482015265616c616e636560d01b6064820152608490fd5b60405162461bcd60e51b815260206004820152602360248201527f45524332303a207472616e7366657220746f20746865207a65726f206164647260448201526265737360e81b6064820152608490fd5b60405162461bcd60e51b815260206004820152602560248201527f45524332303a207472616e736665722066726f6d20746865207a65726f206164604482015264647265737360d81b6064820152608490fd5b6001600160a01b03908116918215611c925716918215611c425760207f8c5be1e5ebec7d5bd14f71427d1e84f3dd0314c0f7b2291e5b200ac8c7c3b92591835f5260ca825260405f20855f5282528060405f2055604051908152a3565b60405162461bcd60e51b815260206004820152602260248201527f45524332303a20617070726f766520746f20746865207a65726f206164647265604482015261737360f01b6064820152608490fd5b60405162461bcd60e51b8152602060048201526024808201527f45524332303a20617070726f76652066726f6d20746865207a65726f206164646044820152637265737360e01b6064820152608490fd5b91929015611d455750815115611cf7575090565b3b15611d005790565b60405162461bcd60e51b815260206004820152601d60248201527f416464726573733a2063616c6c20746f206e6f6e2d636f6e74726163740000006044820152606490fd5b825190915015611d585750805190602001fd5b60405162461bcd60e51b81529081906115d5906004830161139c565b60019180831b91906001600160ff1b03811603611a62576002820192838311611a6257611db9611da3856113fe565b94611db160405196876113c8565b8086526113fe565b6020939085850190601f1901368237855115611eb257603090538451821015611eb25760786021860153818101809111611a6257905b808211611e43575050611e00575090565b6064906040519062461bcd60e51b825280600483015260248201527f537472696e67733a20686578206c656e67746820696e73756666696369656e746044820152fd5b9091600f81166010811015611e9e578551841015611e9e576f181899199a1a9b1b9c1cb0b131b232b360811b901a85840185015360041c918015611e8a575f190190611def565b60245f634e487b7160e01b81526011600452fd5b60245f634e487b7160e01b81526032600452fd5b634e487b7160e01b5f52603260045260245ffd5b8054821015611eb2575f5260205f2001905f90565b9190600183015f90828252806020526040822054155f14611f5c5784549468010000000000000000861015611f485783611f38611f22886001604098999a01855584611ec6565b819391549060031b91821b915f19901b19161790565b9055549382526020522055600190565b634e487b7160e01b83526041600452602483fd5b50925050565b9060018201905f92818452826020526040842054908115155f14612048575f19918083018181116120345782549084820191821161202057808203611feb575b50505080548015611fd757820191611fba8383611ec6565b909182549160031b1b191690555582526020526040812055600190565b634e487b7160e01b86526031600452602486fd5b61200b611ffb611f229386611ec6565b90549060031b1c92839286611ec6565b905586528460205260408620555f8080611fa2565b634e487b7160e01b88526011600452602488fd5b634e487b7160e01b87526011600452602487fd5b5050505090565b6101915460405163d994d6d560e01b815233600482015290602090829060249082906001600160a01b03165afa9081156120de575f916120a4575b501561209257565b604051631dd1b1b560e21b8152600490fd5b6020813d82116120d6575b816120bc602093836113c8565b810103126101a757519081151582036102b557505f61208a565b3d91506120af565b6040513d5f823e3d90fd5b156120f057565b60405162461bcd60e51b815260206004820152602b60248201527f496e697469616c697a61626c653a20636f6e7472616374206973206e6f74206960448201526a6e697469616c697a696e6760a81b6064820152608490fdfea26469706673582212200c87e29b56acf1a1c6070927f8973fbffe5c9aa8cbf06b8558a3fc9eab68a63464736f6c6343000814003360a060405234620000495730608052620000186200004d565b620000226200004d565b6040516123d29081620000f58239608051818181610e2701528181610f42015261117a0152f35b5f80fd5b5f5460ff8160081c166200009f5760ff80821603620000695750565b60ff90811916175f557f7f26b83ff96e1f2b6a682f133852f6798a09c465da95921460cefb3847402498602060405160ff8152a1565b60405162461bcd60e51b815260206004820152602760248201527f496e697469616c697a61626c653a20636f6e747261637420697320696e697469604482015266616c697a696e6760c81b6064820152608490fdfe608060409080825260049081361015610016575f80fd5b5f92833560e01c91826301ffc9a7146114fd5750816306fdde0314611453578163095ea7b31461141d5781630c340a24146113f357816318160ddd146113d457816323b872dd14611301578163248a9ca3146112d55781632f2ff15d1461128e578163313ce5671461127257816336568abe146111df578382633659cfe6146111485750816339509351146110f657816340c10f1914610fa55781634f1ef28614610ee657816352d1902d14610e125781635c975abb14610ded57816370a0823114610db257816383d2230d14610c085781638456cb5914610b505781638f15b414146106b05781639010d07c1461066e57816391d148541461062257816395d89b41146105415781639dc29fac14610392578163a217fddf14610377578163a457c2d7146102ce578163a9059cbb1461028e578163ca15c87314610265578163d547741f1461021b578163dd62ed3e146101c1575063e4c0aaf41461017a575f80fd5b346101bd5760203660031901126101bd57356001600160a01b038116908190036101bd576101a66122a2565b61019180546001600160a01b031916909117905580f35b5080fd5b919050346102175781600319360112610217576001600160a01b039035818116908190036102135760243591821680920361021357928291602094825260ca8552828220908252845220549051908152f35b8380fd5b8280fd5b9190503461021757816003193601126102175760243590356001600160a01b03821682036102135761025d6001610262948387526065602052862001546116ee565b6117c9565b80f35b919050346102175760203660031901126102175760209282913581526097845220549051908152f35b9190503461021757816003193601126102175735916001600160a01b03831683036102cb57506102c46020926024359033611c66565b5160018152f35b80fd5b8284346102cb57826003193601126102cb578135916001600160a01b038316918284036102cb5784906024359333825260ca602052828220908252602052205490828210610326576020856102c48585038733611e38565b608490602086519162461bcd60e51b8352820152602560248201527f45524332303a2064656372656173656420616c6c6f77616e63652062656c6f77604482015264207a65726f60d81b6064820152fd5b8390346101bd57816003193601126101bd5751908152602090f35b8383346101bd57826003193601126101bd5780356001600160a01b038116919082900361021757602435906103e67f3c11d16cbaffd01df69ce1c404f6340ee057498f5f00246190ea54220576a8486116ee565b82156104f45760ff6101c4541661049e5782845260c9602052848420549082821061045057508184957fddf252ad1be2c89b69c2b068fc378daa952ba7f163c4a11628f55a4df523b3ef9360209386885260c9855203818720558160cb540360cb5551908152a380f35b608490602087519162461bcd60e51b8352820152602260248201527f45524332303a206275726e20616d6f756e7420657863656564732062616c616e604482015261636560f01b6064820152fd5b608490602086519162461bcd60e51b8352820152602a60248201527f45524332305061757361626c653a20746f6b656e207472616e736665722077686044820152691a5b19481c185d5cd95960b21b6064820152fd5b608490602086519162461bcd60e51b8352820152602160248201527f45524332303a206275726e2066726f6d20746865207a65726f206164647265736044820152607360f81b6064820152fd5b8390346101bd57816003193601126101bd578051908260cd5461056381611c0d565b808552916001918083169081156105fa575060011461059d575b50505061058f826105999403836115b8565b519182918261158c565b0390f35b945060cd85527f83978b4c69c48dd978ab43fe30f077615294f938fb7f936d9eb340e51ea7db2e5b8286106105e25750505061058f826020610599958201019461057d565b805460208787018101919091529095019481016105c5565b61059997508693506020925061058f94915060ff191682840152151560051b8201019461057d565b919050346102175781600319360112610217576024356001600160a01b03811691908290036102135760209360ff92849235825260658652828220908252855220541690519015158152f35b9190503461021757816003193601126102175760209261069a9135815260978452826024359120612119565b905491519160018060a01b039160031b1c168152f35b919050346102175760803660031901126102175767ffffffffffffffff8135818111610b4c576106e39036908401611644565b90602435818111610b48576106fb9036908501611644565b91604435916001600160a01b03918284168403610b4457606435928316809303610b445787549460ff8660081c161596878098610b37575b8015610b20575b15610ac657600196888860ff198316178c55610ab5575b5061077460ff8b5460081c166107668161233c565b61076f8161233c565b61233c565b8251848111610aa2578061078960cc54611c0d565b94601f95868111610a31575b506020908d8784116001146109b357926109a8575b50505f19600383901b1c191690881b1760cc555b815193841161099557506107d360cd54611c0d565b828111610932575b5060209183116001146108ae57610842949392918991836108a3575b50505f19600383901b1c191690851b1760cd555b61082860ff885460081c1661081f8161233c565b6107668161233c565b61019180546001600160a01b031916909117905585611662565b83549161085860ff8460081c1661076f8161233c565b6101c4805460ff1916905561086b578380f35b7f7f26b83ff96e1f2b6a682f133852f6798a09c465da95921460cefb38474024989260209261ff001916855551908152a15f80808380f35b015190505f806107f7565b60cd895293929185917f83978b4c69c48dd978ab43fe30f077615294f938fb7f936d9eb340e51ea7db2e90601f1983168b5b81811061091a575096836108429810610902575b505050811b0160cd5561080b565b01515f1960f88460031b161c191690555f80806108f4565b828901518455899590930192602092830192016108e0565b60cd8a527f83978b4c69c48dd978ab43fe30f077615294f938fb7f936d9eb340e51ea7db2e8380860160051c8201926020871061098c575b0160051c019087905b8281106109815750506107db565b8b8155018790610973565b9250819261096a565b634e487b7160e01b8a5260419052602489fd5b015190505f806107aa565b91908b9450601f19841660cc84527f47197230e1e4b29fc0bd84d7d78966c0925452aff72a2a121538b102457e9ebe935b818110610a1957508411610a01575b505050811b0160cc556107be565b01515f1960f88460031b161c191690555f80806109f3565b8284015185558d9690940193602093840193016109e4565b90915060cc8d527f47197230e1e4b29fc0bd84d7d78966c0925452aff72a2a121538b102457e9ebe8680850160051c82019260208610610a99575b859493910160051c909101908b908f5b838210610a8b57505050610795565b81558594508c91018f610a7c565b92508192610a6c565b634e487b7160e01b8b526041825260248bfd5b61ffff1916610101178a555f610751565b60849060208a519162461bcd60e51b8352820152602e60248201527f496e697469616c697a61626c653a20636f6e747261637420697320616c72656160448201526d191e481a5b9a5d1a585b1a5e995960921b6064820152fd5b50303b15801561073a5750600160ff88161461073a565b50600160ff881610610733565b8780fd5b8580fd5b8480fd5b8383346101bd57816003193601126101bd57610b8b7f65d7a28e3265b37a6474929f336521b332c1681b933f6cb9f3376673440d862a6116ee565b6101c49081549060ff8216610bd2575060ff1916600117905581513381527f62e78cea01bee320cd4e420270b5ea74000d11b0c9f74754ebdbfc544b05a25890602090a180f35b606490602086519162461bcd60e51b8352820152601060248201526f14185d5cd8589b194e881c185d5cd95960821b6044820152fd5b9050346102175760209081600319360112610213578235916001600160a01b0383168303610b4c5784805260658152600190610c488284882001546116ee565b7f65d7a28e3265b37a6474929f336521b332c1681b933f6cb9f3376673440d862a93610c748186611662565b610c7e33866117c9565b86805260658252610c938385892001546116ee565b610c9d8188611662565b7f9f2df0fed2c77648de5860a4cc508cd0818c85b8b8a1ab4ceeef8d981c8956a6610cc88282611662565b610cf37f3c11d16cbaffd01df69ce1c404f6340ee057498f5f00246190ea54220576a8489283611662565b610cfd33826117c9565b610d0733836117c9565b610d1133896117c9565b87805260978352838589205403610d9b5780885260978352838589205403610d85575080875260978252828488205403610d6f5750609790848752528185205403610d5a578380f35b51630e2b37cd60e41b81529182015260249150fd5b85602491855191630e2b37cd60e41b8352820152fd5b86602491865191630e2b37cd60e41b8352820152fd5b8451630e2b37cd60e41b8152808801899052602490fd5b9190503461021757602036600319011261021757356001600160a01b03811690819003610217578282916020945260c9845220549051908152f35b8390346101bd57816003193601126101bd5760209060ff6101c4541690519015158152f35b8284346102cb57806003193601126102cb57507f00000000000000000000000000000000000000000000000000000000000000006001600160a01b03163003610e7e57602082517f360894a13ba1a3210667c828492db98dca3e2076cc3735a920a3ca505d382bbc8152f35b6020608492519162461bcd60e51b8352820152603860248201527f555550535570677261646561626c653a206d757374206e6f742062652063616c60448201527f6c6564207468726f7567682064656c656761746563616c6c00000000000000006064820152fd5b36600319011290506101bd5780356001600160a01b038082168203610213576024359167ffffffffffffffff8311610b4c5736602384011215610b4c57610f98610f3e6102629585602460019736930135910161160a565b92807f00000000000000000000000000000000000000000000000000000000000000001690610f6f8230141561184e565b7f360894a13ba1a3210667c828492db98dca3e2076cc3735a920a3ca505d382bbc5416146118af565b610fa06122a2565b611910565b905082346102cb57816003193601126102cb5782356001600160a01b03811691908290036102cb57602435610ff97f9f2df0fed2c77648de5860a4cc508cd0818c85b8b8a1ab4ceeef8d981c8956a66116ee565b82156110b35760ff6101c4541661105d5760208095508161103d7fddf252ad1be2c89b69c2b068fc378daa952ba7f163c4a11628f55a4df523b3ef9360cb54611c45565b60cb5584845260c982528584208181540190558551908152a35160018152f35b835162461bcd60e51b8152602081870152602a60248201527f45524332305061757361626c653a20746f6b656e207472616e736665722077686044820152691a5b19481c185d5cd95960b21b6064820152608490fd5b835162461bcd60e51b8152602081870152601f60248201527f45524332303a206d696e7420746f20746865207a65726f2061646472657373006044820152606490fd5b91905034610217578160031936011261021757356001600160a01b03811680820361021357906111416020946102c49333825260ca8752858220908252865284602435912054611c45565b9033611e38565b915091346101bd5760203660031901126101bd576001600160a01b039290358381168103610217576111a784610262957f00000000000000000000000000000000000000000000000000000000000000001690610f6f8230141561184e565b6111af6122a2565b6111c46111bb846115ee565b925192836115b8565b828252601f196111d3846115ee565b01366020840137611910565b8383346101bd57826003193601126101bd57602435906001600160a01b038216808303610213573303611217579061026291356117c9565b608490602085519162461bcd60e51b8352820152602f60248201527f416363657373436f6e74726f6c3a2063616e206f6e6c792072656e6f756e636560448201526e103937b632b9903337b91039b2b63360891b6064820152fd5b8390346101bd57816003193601126101bd576020905160128152f35b9190503461021757816003193601126102175760243590356001600160a01b0382168203610213576112d06001610262948387526065602052862001546116ee565b611662565b919050346102175760203660031901126102175781602093600192358152606585522001549051908152f35b8383346101bd5760603660031901126101bd5780356001600160a01b03818116939092908483036102cb5760243593841684036102cb57859060443595815260ca6020528181203382526020522054905f198203611368575b6020866102c4878787611c66565b8482106113915750918391611386602096956102c495033383611e38565b91939481935061135a565b606490602087519162461bcd60e51b8352820152601d60248201527f45524332303a20696e73756666696369656e7420616c6c6f77616e63650000006044820152fd5b8390346101bd57816003193601126101bd5760209060cb549051908152f35b8390346101bd57816003193601126101bd576101915490516001600160a01b039091168152602090f35b9190503461021757816003193601126102175735916001600160a01b03831683036102cb57506102c46020926024359033611e38565b8390346101bd57816003193601126101bd578051908260cc5461147581611c0d565b808552916001918083169081156105fa57506001146114a05750505061058f826105999403836115b8565b945060cc85527f47197230e1e4b29fc0bd84d7d78966c0925452aff72a2a121538b102457e9ebe5b8286106114e55750505061058f826020610599958201019461057d565b805460208787018101919091529095019481016114c8565b84908434610217576020366003190112610217573563ffffffff60e01b81168091036102175760209250635a05180f60e01b8114908115611540575b5015158152f35b637965db0b60e01b81149150811561155a575b5083611539565b6301ffc9a760e01b14905083611553565b5f5b83811061157c5750505f910152565b818101518382015260200161156d565b604091602082526115ac815180928160208601526020868601910161156b565b601f01601f1916010190565b90601f8019910116810190811067ffffffffffffffff8211176115da57604052565b634e487b7160e01b5f52604160045260245ffd5b67ffffffffffffffff81116115da57601f01601f191660200190565b929192611616826115ee565b9161162460405193846115b8565b829481845281830111611640578281602093845f960137010152565b5f80fd5b9080601f830112156116405781602061165f9335910161160a565b90565b9060406116a0925f9080825260656020528282209360018060a01b03169384835260205260ff8383205416156116a3575b815260976020522061212e565b50565b8082526065602052828220848352602052828220600160ff198254161790553384827f2f8788117e7eff1d82e926ec794901d17c78024a50270940304540a733656f0d8580a4611693565b805f5260206065815260405f20335f52815260ff60405f20541615611711575050565b6117ad60486117c5938361173361179e9561172d601433611fc7565b93611fc7565b906040519586937f416363657373436f6e74726f6c3a206163636f756e742000000000000000000083860152611772815180928560378901910161156b565b8401917001034b99036b4b9b9b4b733903937b6329607d1b60378401528351938491878501910161156b565b010360288101845201826115b8565b60405162461bcd60e51b81529182916004830161158c565b0390fd5b9060406116a0925f9080825260656020528282209360018060a01b03169384835260205260ff8383205416611806575b81526097602052206121b5565b808252606560205282822084835260205282822060ff1981541690553384827ff6391f5c32d9c69d2a47ea670b442974b53935d1edc7fd64eb21e047a839171b8580a46117f9565b1561185557565b60405162461bcd60e51b815260206004820152602c60248201527f46756e6374696f6e206d7573742062652063616c6c6564207468726f7567682060448201526b19195b1959d85d1958d85b1b60a21b6064820152608490fd5b156118b657565b60405162461bcd60e51b815260206004820152602c60248201527f46756e6374696f6e206d7573742062652063616c6c6564207468726f7567682060448201526b6163746976652070726f787960a01b6064820152608490fd5b909160ff7f4910fdfa16fed3260ed0e7147f7cc6da11a60208b5b9406d12a635614ffd914354165f1461194a57506119489150611b6b565b565b604080516352d1902d60e01b8152602094919392906001600160a01b038416908681600481855afa5f9181611b3c575b506119da57855162461bcd60e51b815260048101889052602e60248201527f45524331393637557067726164653a206e657720696d706c656d656e7461746960448201526d6f6e206973206e6f74205555505360901b6064820152608490fd5b9395929492937fc9f76b5ec45e5cdef99837d7b6d2467235c1df8933c8ca56df5c35afa2c7d44401611ae657611a0f86611b6b565b7fbc7cd75a20ee27fd9adebab32041f755214dbc6bffa90cc0225b39da2e5c2d3b5f80a283511590811591611ade575b50611a4b575b50505050565b611aca935f80611a5b60276115ee565b95611a68855197886115b8565b602787527f416464726573733a206c6f772d6c6576656c2064656c65676174652063616c6c86880152660819985a5b195960ca1b858801528581519101845af4913d15611ad4573d611abc6111bb826115ee565b81525f81943d92013e611f36565b505f808080611a45565b5060609250611f36565b90505f611a3f565b825162461bcd60e51b815260048101859052602960248201527f45524331393637557067726164653a20756e737570706f727465642070726f786044820152681a58589b195555525160ba1b6064820152608490fd5b90918882813d8311611b64575b611b5381836115b8565b810103126102cb575051905f61197a565b503d611b49565b803b15611bb2577f360894a13ba1a3210667c828492db98dca3e2076cc3735a920a3ca505d382bbc80546001600160a01b0319166001600160a01b03909216919091179055565b60405162461bcd60e51b815260206004820152602d60248201527f455243313936373a206e657720696d706c656d656e746174696f6e206973206e60448201526c1bdd08184818dbdb9d1c9858dd609a1b6064820152608490fd5b90600182811c92168015611c3b575b6020831014611c2757565b634e487b7160e01b5f52602260045260245ffd5b91607f1691611c1c565b91908201809211611c5257565b634e487b7160e01b5f52601160045260245ffd5b6001600160a01b03908116918215611de55716918215611d945760ff6101c45416611d3c575f82815260c9602052604081205491808310611ce857604082827fddf252ad1be2c89b69c2b068fc378daa952ba7f163c4a11628f55a4df523b3ef95876020965260c98652038282205586815220818154019055604051908152a3565b60405162461bcd60e51b815260206004820152602660248201527f45524332303a207472616e7366657220616d6f756e7420657863656564732062604482015265616c616e636560d01b6064820152608490fd5b60405162461bcd60e51b815260206004820152602a60248201527f45524332305061757361626c653a20746f6b656e207472616e736665722077686044820152691a5b19481c185d5cd95960b21b6064820152608490fd5b60405162461bcd60e51b815260206004820152602360248201527f45524332303a207472616e7366657220746f20746865207a65726f206164647260448201526265737360e81b6064820152608490fd5b60405162461bcd60e51b815260206004820152602560248201527f45524332303a207472616e736665722066726f6d20746865207a65726f206164604482015264647265737360d81b6064820152608490fd5b6001600160a01b03908116918215611ee55716918215611e955760207f8c5be1e5ebec7d5bd14f71427d1e84f3dd0314c0f7b2291e5b200ac8c7c3b92591835f5260ca825260405f20855f5282528060405f2055604051908152a3565b60405162461bcd60e51b815260206004820152602260248201527f45524332303a20617070726f766520746f20746865207a65726f206164647265604482015261737360f01b6064820152608490fd5b60405162461bcd60e51b8152602060048201526024808201527f45524332303a20617070726f76652066726f6d20746865207a65726f206164646044820152637265737360e01b6064820152608490fd5b91929015611f985750815115611f4a575090565b3b15611f535790565b60405162461bcd60e51b815260206004820152601d60248201527f416464726573733a2063616c6c20746f206e6f6e2d636f6e74726163740000006044820152606490fd5b825190915015611fab5750805190602001fd5b60405162461bcd60e51b81529081906117c5906004830161158c565b60019180831b91906001600160ff1b03811603611c52576002820192838311611c525761200c611ff6856115ee565b9461200460405196876115b8565b8086526115ee565b6020939085850190601f1901368237855115612105576030905384518210156121055760786021860153818101809111611c5257905b808211612096575050612053575090565b6064906040519062461bcd60e51b825280600483015260248201527f537472696e67733a20686578206c656e67746820696e73756666696369656e746044820152fd5b9091600f811660108110156120f15785518410156120f1576f181899199a1a9b1b9c1cb0b131b232b360811b901a85840185015360041c9180156120dd575f190190612042565b60245f634e487b7160e01b81526011600452fd5b60245f634e487b7160e01b81526032600452fd5b634e487b7160e01b5f52603260045260245ffd5b8054821015612105575f5260205f2001905f90565b9190600183015f90828252806020526040822054155f146121af578454946801000000000000000086101561219b578361218b612175886001604098999a01855584612119565b819391549060031b91821b915f19901b19161790565b9055549382526020522055600190565b634e487b7160e01b83526041600452602483fd5b50925050565b9060018201905f92818452826020526040842054908115155f1461229b575f1991808301818111612287578254908482019182116122735780820361223e575b5050508054801561222a5782019161220d8383612119565b909182549160031b1b191690555582526020526040812055600190565b634e487b7160e01b86526031600452602486fd5b61225e61224e6121759386612119565b90549060031b1c92839286612119565b905586528460205260408620555f80806121f5565b634e487b7160e01b88526011600452602488fd5b634e487b7160e01b87526011600452602487fd5b5050505090565b6101915460405163d994d6d560e01b815233600482015290602090829060249082906001600160a01b03165afa908115612331575f916122f7575b50156122e557565b604051631dd1b1b560e21b8152600490fd5b6020813d8211612329575b8161230f602093836115b8565b810103126101bd57519081151582036102cb57505f6122dd565b3d9150612302565b6040513d5f823e3d90fd5b1561234357565b60405162461bcd60e51b815260206004820152602b60248201527f496e697469616c697a61626c653a20636f6e7472616374206973206e6f74206960448201526a6e697469616c697a696e6760a81b6064820152608490fdfea264697066735822122072af35cef4b314824b8ff3341cf79ad44dd46e8efe83dbb7d4de4c9909b9c52c64736f6c6343000814003360a080604052346100da57306080525f549060ff8260081c16610088575060ff8082160361004e575b604051610f3a90816100df8239608051818181610541015281816106a901526107bb0152f35b60ff90811916175f557f7f26b83ff96e1f2b6a682f133852f6798a09c465da95921460cefb3847402498602060405160ff8152a15f610028565b62461bcd60e51b815260206004820152602760248201527f496e697469616c697a61626c653a20636f6e747261637420697320696e697469604482015266616c697a696e6760c81b6064820152608490fd5b5f80fdfe60406080815260049081361015610014575f80fd5b5f91823560e01c806305216f721461089f5780630c340a24146108765780632d88af4a14610820578381633659cfe614610789575080633f4ba83a14610710578381634f1ef28614610626575080635210570c1461060057806352d1902d1461052c5780635c975abb1461050557806364a731e9146104cb578063682743571461049f5780638456cb59146103fe5780638b9789c9146103e05780639fd0506d146103b3578063bb4872de1461038f578063c0c53b8b146101c8578063d6c9858b1461019e578063e4c0aaf4146101515763e6fd7096146100f3575f80fd5b3461014d578160031936011261014d578035916001600160a01b0380841684036101495761012f54163303610132578361012f60243585610ec0565b80f35b6024925051906302976a2f60e01b82523390820152fd5b8480fd5b8280fd5b83823461019a57602036600319011261019a57356001600160a01b0381169081900361019a5761017f610dc7565b6bffffffffffffffffffffffff60a01b609754161760975580f35b5080fd5b50503461019a578160031936011261019a5761012f5490516001600160a01b039091168152602090f35b503461014d57606036600319011261014d5780356001600160a01b038181169291839003610149576024359281841680940361038b57604435918216820361038b57855460ff8160081c16159384809561037e575b8015610367575b1561030d57506001929161029a91858560ff198316178a556102fc575b506bffffffffffffffffffffffff60a01b9061012f908282541617905587549560ff8760081c169161027283610e60565b61027b83610e60565b61028483610e60565b61028d83610e60565b6097541617609755610e60565b60ca5490620100008360b01b039060101b169061ff018360b01b031916171760ca556102c4578280f35b61ff001916825551600181527f7f26b83ff96e1f2b6a682f133852f6798a09c465da95921460cefb384740249890602090a15f808280f35b61ffff19166101011788555f610241565b608490602088519162461bcd60e51b8352820152602e60248201527f496e697469616c697a61626c653a20636f6e747261637420697320616c72656160448201526d191e481a5b9a5d1a585b1a5e995960921b6064820152fd5b50303b1580156102245750600160ff831614610224565b50600160ff83161061021d565b8580fd5b50503461019a578160031936011261019a5760209060ff60ca541690519015158152f35b50503461019a578160031936011261019a5760ca54905160109190911c6001600160a01b03168152602090f35b83823461019a57602036600319011261019a5761012f903533610ec0565b503461014d578260031936011261014d5760ca549060ff8260081c1661049157601082901c6001600160a01b031633036104835760ff821615610475575061ff0019166101001760ca55513381527f62e78cea01bee320cd4e420270b5ea74000d11b0c9f74754ebdbfc544b05a25890602090a180f35b825163866099c360e01b8152fd5b8251631d77d47760e21b8152fd5b825163783bb6c960e11b8152fd5b83346104c857806003193601126104c8576104b8610dc7565b600160ff1960ca54161760ca5580f35b80fd5b503461014d57602036600319011261014d57356001600160a01b0381169081900361014d5782829160209452610130845220549051908152f35b50503461019a578160031936011261019a5760209060ff60ca5460081c1690519015158152f35b5082346104c857806003193601126104c857507f00000000000000000000000000000000000000000000000000000000000000006001600160a01b0316300361059857602082517f360894a13ba1a3210667c828492db98dca3e2076cc3735a920a3ca505d382bbc8152f35b6020608492519162461bcd60e51b8352820152603860248201527f555550535570677261646561626c653a206d757374206e6f742062652063616c60448201527f6c6564207468726f7567682064656c656761746563616c6c00000000000000006064820152fd5b83346104c857806003193601126104c857610619610dc7565b60ff1960ca541660ca5580f35b9280915060031936011261070c5781356001600160a01b038082168203610149576024359367ffffffffffffffff851161038b573660238601121561038b578401359061067e6106758361091a565b945194856108e4565b818452366024838701011161038b5761012f956020836106ff946024600199018389013786010152807f000000000000000000000000000000000000000000000000000000000000000016906106d682301415610936565b7f360894a13ba1a3210667c828492db98dca3e2076cc3735a920a3ca505d382bbc541614610997565b610707610dc7565b6109f8565b5050fd5b503461014d578260031936011261014d5760ca549060ff8260081c161561077b57601082901c6001600160a01b03163303610483575061ff00191660ca55513381527f5db9ee0a495bf2e6ff9c91a7834c1ba4fdd244a5e8aa4e537bd38aeae4b073aa90602090a180f35b8251637c7fd07960e01b8152fd5b9190503461019a57602036600319011261019a576001600160a01b03929035838116810361014d576107e88461012f957f000000000000000000000000000000000000000000000000000000000000000016906106d682301415610936565b6107f0610dc7565b6108056107fc8461091a565b925192836108e4565b828252601f196108148461091a565b013660208401376109f8565b83823461019a57602036600319011261019a57356001600160a01b038116810361019a5761084c610dc7565b60ca805462010000600160b01b03191660109290921b62010000600160b01b031691909117905580f35b50503461019a578160031936011261019a5760975490516001600160a01b039091168152602090f35b83823461019a57602036600319011261019a57356001600160a01b0381169081900361019a576108cd610dc7565b61012f80546001600160a01b031916909117905580f35b90601f8019910116810190811067ffffffffffffffff82111761090657604052565b634e487b7160e01b5f52604160045260245ffd5b67ffffffffffffffff811161090657601f01601f191660200190565b1561093d57565b60405162461bcd60e51b815260206004820152602c60248201527f46756e6374696f6e206d7573742062652063616c6c6564207468726f7567682060448201526b19195b1959d85d1958d85b1b60a21b6064820152608490fd5b1561099e57565b60405162461bcd60e51b815260206004820152602c60248201527f46756e6374696f6e206d7573742062652063616c6c6564207468726f7567682060448201526b6163746976652070726f787960a01b6064820152608490fd5b909160ff7f4910fdfa16fed3260ed0e7147f7cc6da11a60208b5b9406d12a635614ffd914354165f14610a325750610a309150610c53565b565b604080516352d1902d60e01b8152602094919392906001600160a01b038416908681600481855afa5f9181610c24575b50610ac257855162461bcd60e51b815260048101889052602e60248201527f45524331393637557067726164653a206e657720696d706c656d656e7461746960448201526d6f6e206973206e6f74205555505360901b6064820152608490fd5b9395929492937fc9f76b5ec45e5cdef99837d7b6d2467235c1df8933c8ca56df5c35afa2c7d44401610bce57610af786610c53565b7fbc7cd75a20ee27fd9adebab32041f755214dbc6bffa90cc0225b39da2e5c2d3b5f80a283511590811591610bc6575b50610b33575b50505050565b610bb2935f80610b43602761091a565b95610b50855197886108e4565b602787527f416464726573733a206c6f772d6c6576656c2064656c65676174652063616c6c86880152660819985a5b195960ca1b858801528581519101845af4913d15610bbc573d610ba46107fc8261091a565b81525f81943d92013e610cf5565b505f808080610b2d565b5060609250610cf5565b90505f610b27565b825162461bcd60e51b815260048101859052602960248201527f45524331393637557067726164653a20756e737570706f727465642070726f786044820152681a58589b195555525160ba1b6064820152608490fd5b90918882813d8311610c4c575b610c3b81836108e4565b810103126104c8575051905f610a62565b503d610c31565b803b15610c9a577f360894a13ba1a3210667c828492db98dca3e2076cc3735a920a3ca505d382bbc80546001600160a01b0319166001600160a01b03909216919091179055565b60405162461bcd60e51b815260206004820152602d60248201527f455243313936373a206e657720696d706c656d656e746174696f6e206973206e60448201526c1bdd08184818dbdb9d1c9858dd609a1b6064820152608490fd5b91929015610d575750815115610d09575090565b3b15610d125790565b60405162461bcd60e51b815260206004820152601d60248201527f416464726573733a2063616c6c20746f206e6f6e2d636f6e74726163740000006044820152606490fd5b825190915015610d6a5750805190602001fd5b6040519062461bcd60e51b82528160208060048301528251908160248401525f935b828510610dae575050604492505f838284010152601f80199101168101030190fd5b8481018201518686016044015293810193859350610d8c565b60975460405163d994d6d560e01b815233600482015290602090829060249082906001600160a01b03165afa908115610e55575f91610e1b575b5015610e0957565b604051631dd1b1b560e21b8152600490fd5b6020813d8211610e4d575b81610e33602093836108e4565b8101031261019a57519081151582036104c857505f610e01565b3d9150610e26565b6040513d5f823e3d90fd5b15610e6757565b60405162461bcd60e51b815260206004820152602b60248201527f496e697469616c697a61626c653a20636f6e7472616374206973206e6f74206960448201526a6e697469616c697a696e6760a81b6064820152608490fd5b60207f0edb810b4a4ba5ab81b2765b443d63011146e0d69f7604ea7205676bae0995b39160018060a01b031692835f5261013082528060405f2055604051908152a256fea26469706673582212200f0cedf75277adeb769f30d608d4cc7c820c5458db7d0bf7c22af2235370903364736f6c63430008140033",
  "linkReferences": {},
  "deployedLinkReferences": {},
  "devdoc": {
    "kind": "dev",
    "methods": {},
    "version": 1
  },
  "evm": {
    "bytecode": {
      "linkReferences": {},
      "opcodes": "PUSH1 0x80 PUSH1 0x40 DUP2 SWAP1 MSTORE PUSH1 0x9 DUP1 SLOAD PUSH1 0x1 PUSH1 0x1 PUSH1 0xA0 SHL SUB NOT SWAP1 DUP2 AND PUSH1 0x1 OR SWAP1 SWAP2 SSTORE PUSH1 0xA DUP1 SLOAD DUP3 AND PUSH1 0x2 OR SWAP1 SSTORE SWAP1 PUSH0 SWAP1 PUSH2 0x1BD DUP1 DUP3 ADD SWAP1 PUSH1 0x1 PUSH1 0x1 PUSH1 0x40 SHL SUB DUP3 GT DUP4 DUP4 LT OR PUSH3 0xE6E JUMPI SWAP1 DUP3 SWAP2 PUSH3 0x1252C DUP4 CODECOPY SUB SWAP1 DUP3 CREATE DUP1 ISZERO PUSH3 0xDBE JUMPI PUSH1 0x1 DUP1 SLOAD DUP5 AND PUSH1 0x1 PUSH1 0x1 PUSH1 0xA0 SHL SUB SWAP3 SWAP1 SWAP3 AND SWAP2 SWAP1 SWAP2 OR SWAP1 SSTORE PUSH1 0x40 MLOAD PUSH2 0x1003 SWAP1 DUP2 DUP2 ADD SWAP1 PUSH1 0x1 PUSH1 0x1 PUSH1 0x40 SHL SUB DUP3 GT DUP2 DUP4 LT OR PUSH3 0xE6E JUMPI DUP1 PUSH3 0x11395 SWAP3 DUP5 DUP5 DUP4 CODECOPY SUB SWAP1 DUP5 CREATE DUP1 ISZERO PUSH3 0xC71 JUMPI PUSH1 0x6 DUP1 SLOAD DUP7 AND PUSH1 0x1 PUSH1 0x1 PUSH1 0xA0 SHL SUB SWAP3 SWAP1 SWAP3 AND SWAP2 SWAP1 SWAP2 OR SWAP1 SSTORE PUSH1 0x40 MLOAD SWAP2 DUP1 DUP4 ADD SWAP2 PUSH1 0x1 PUSH1 0x1 PUSH1 0x40 SHL SUB DUP4 GT DUP5 DUP5 LT OR PUSH3 0xE96 JUMPI SWAP1 DUP4 SWAP3 SWAP2 DUP4 CODECOPY SUB SWAP1 DUP3 CREATE DUP1 ISZERO PUSH3 0xDBE JUMPI PUSH1 0x2 DUP1 SLOAD DUP5 AND PUSH1 0x1 PUSH1 0x1 PUSH1 0xA0 SHL SUB SWAP3 SWAP1 SWAP3 AND SWAP2 SWAP1 SWAP2 OR SWAP1 SSTORE PUSH1 0x40 MLOAD PUSH2 0x194 DUP2 ADD PUSH1 0x1 PUSH1 0x1 PUSH1 0x40 SHL SUB DUP2 GT DUP3 DUP3 LT OR PUSH3 0xE82 JUMPI DUP2 PUSH1 0x20 SWAP2 PUSH2 0x194 PUSH3 0x12398 DUP4 CODECOPY PUSH8 0xDE0B6B3A7640000 DUP2 MSTORE SUB ADD SWAP1 DUP3 CREATE DUP1 ISZERO PUSH3 0xDBE JUMPI PUSH1 0x3 DUP1 SLOAD DUP5 AND PUSH1 0x1 PUSH1 0x1 PUSH1 0xA0 SHL SUB SWAP3 SWAP1 SWAP3 AND SWAP2 SWAP1 SWAP2 OR SWAP1 SSTORE PUSH1 0x40 MLOAD PUSH2 0x196 DUP1 DUP3 ADD SWAP1 PUSH1 0x1 PUSH1 0x1 PUSH1 0x40 SHL SUB DUP3 GT DUP4 DUP4 LT OR PUSH3 0xE6E JUMPI PUSH1 0x20 SWAP2 DUP4 SWAP2 PUSH3 0x111FF DUP4 CODECOPY PUSH0 NOT DUP2 MSTORE SUB ADD SWAP1 DUP3 CREATE DUP1 ISZERO PUSH3 0xDBE JUMPI PUSH1 0x4 DUP1 SLOAD DUP5 AND PUSH1 0x1 PUSH1 0x1 PUSH1 0xA0 SHL SUB SWAP3 SWAP1 SWAP3 AND SWAP2 SWAP1 SWAP2 OR SWAP1 SSTORE PUSH1 0x40 MLOAD PUSH2 0x24C7 DUP1 DUP3 ADD SWAP1 PUSH1 0x1 PUSH1 0x1 PUSH1 0x40 SHL SUB DUP3 GT DUP4 DUP4 LT OR PUSH3 0xE6E JUMPI SWAP1 DUP3 SWAP2 PUSH3 0x14947 DUP4 CODECOPY SUB SWAP1 DUP3 CREATE DUP1 ISZERO PUSH3 0xDBE JUMPI PUSH1 0x1 PUSH1 0x1 PUSH1 0xA0 SHL SUB SWAP1 PUSH3 0x1ED SWAP1 DUP3 AND PUSH3 0xF17 JUMP JUMPDEST AND DUP3 PUSH1 0x5 SLOAD AND OR PUSH1 0x5 SSTORE PUSH1 0x40 MLOAD PUSH2 0x5FDF DUP1 DUP3 ADD SWAP1 DUP3 DUP3 LT PUSH1 0x1 DUP1 PUSH1 0x40 SHL SUB DUP4 GT OR PUSH3 0xE6E JUMPI SWAP1 DUP3 SWAP2 PUSH3 0x7293 DUP4 CODECOPY SUB SWAP1 DUP3 CREATE DUP1 ISZERO PUSH3 0xDBE JUMPI PUSH1 0x1 PUSH1 0x1 PUSH1 0xA0 SHL SUB SWAP1 PUSH3 0x23D SWAP1 DUP3 AND PUSH3 0xF17 JUMP JUMPDEST DUP3 SLOAD DUP5 AND SWAP2 AND OR DUP2 SSTORE PUSH1 0x40 MLOAD PUSH2 0x3F8D DUP1 DUP3 ADD SWAP1 PUSH1 0x1 PUSH1 0x1 PUSH1 0x40 SHL SUB DUP3 GT DUP4 DUP4 LT OR PUSH3 0xE6E JUMPI SWAP1 DUP3 SWAP2 PUSH3 0xD272 DUP4 CODECOPY SUB SWAP1 DUP3 CREATE DUP1 ISZERO PUSH3 0xDBE JUMPI PUSH1 0x8 DUP1 SLOAD DUP5 AND PUSH1 0x1 PUSH1 0x1 PUSH1 0xA0 SHL SUB SWAP3 SWAP1 SWAP3 AND SWAP2 SWAP1 SWAP2 OR SWAP1 SSTORE PUSH1 0x40 MLOAD PUSH2 0x1019 DUP1 DUP3 ADD SWAP4 SWAP2 SWAP1 PUSH1 0x1 PUSH1 0x1 PUSH1 0x40 SHL SUB DUP6 GT DUP3 DUP7 LT OR PUSH3 0xE6E JUMPI DUP4 SWAP5 DUP3 SWAP2 PUSH3 0x16E0E DUP4 CODECOPY SUB SWAP1 DUP4 CREATE DUP1 ISZERO PUSH3 0xCB2 JUMPI PUSH1 0x1 PUSH1 0x1 PUSH1 0xA0 SHL SUB SWAP1 PUSH3 0x2D9 SWAP1 DUP3 AND PUSH3 0xF17 JUMP JUMPDEST AND DUP1 SWAP2 PUSH1 0x7 SLOAD AND OR PUSH1 0x7 SSTORE PUSH1 0x1 DUP1 PUSH1 0xA0 SHL SUB PUSH1 0x1 SLOAD AND DUP2 EXTCODESIZE ISZERO PUSH3 0xD20 JUMPI DUP3 SWAP2 PUSH1 0x64 DUP4 SWAP3 PUSH1 0x40 MLOAD SWAP6 DUP7 SWAP4 DUP5 SWAP3 PUSH4 0xC0C53B8B PUSH1 0xE0 SHL DUP5 MSTORE CALLER PUSH1 0x4 DUP6 ADD MSTORE PUSH1 0x24 DUP5 ADD MSTORE CALLER PUSH1 0x44 DUP5 ADD MSTORE GAS CALL DUP1 ISZERO PUSH3 0xDBE JUMPI PUSH3 0xE5B JUMPI JUMPDEST PUSH1 0x5 SLOAD PUSH1 0x1 SLOAD SWAP2 SWAP3 POP PUSH1 0x1 PUSH1 0x1 PUSH1 0xA0 SHL SUB SWAP1 DUP2 AND SWAP2 AND DUP2 EXTCODESIZE ISZERO PUSH3 0xD20 JUMPI DUP3 SWAP2 PUSH2 0x104 DUP4 SWAP3 PUSH1 0x40 MLOAD SWAP5 DUP6 SWAP4 DUP5 SWAP3 PUSH4 0x23C56D05 PUSH1 0xE2 SHL DUP5 MSTORE PUSH1 0x80 PUSH1 0x4 DUP6 ADD MSTORE PUSH1 0x7 PUSH1 0x84 DUP6 ADD MSTORE PUSH7 0x2A21AA37B5B2B7 PUSH1 0xC9 SHL PUSH1 0xA4 DUP6 ADD MSTORE PUSH1 0xC0 PUSH1 0x24 DUP6 ADD MSTORE PUSH1 0x2 PUSH1 0xC4 DUP6 ADD MSTORE PUSH2 0x5443 PUSH1 0xF0 SHL PUSH1 0xE4 DUP6 ADD MSTORE ADDRESS PUSH1 0x44 DUP6 ADD MSTORE PUSH1 0x64 DUP5 ADD MSTORE GAS CALL DUP1 ISZERO PUSH3 0xCB2 JUMPI PUSH3 0xE42 JUMPI JUMPDEST POP PUSH1 0x2 SLOAD PUSH1 0x3 SLOAD PUSH1 0x5 SLOAD PUSH1 0x9 SLOAD PUSH1 0xA SLOAD PUSH1 0x4 SLOAD PUSH1 0x40 MLOAD SWAP6 PUSH1 0x1 PUSH1 0x1 PUSH1 0xA0 SHL SUB SWAP2 DUP3 AND SWAP6 SWAP4 DUP3 AND SWAP5 SWAP3 DUP3 AND SWAP4 SWAP3 DUP3 AND SWAP3 DUP3 AND SWAP2 AND PUSH3 0x3F8 PUSH2 0x320 DUP9 PUSH3 0xEAA JUMP JUMPDEST DUP7 MSTORE PUSH1 0x20 DUP7 ADD MSTORE PUSH1 0x40 DUP6 ADD MSTORE DUP2 PUSH1 0x60 DUP6 ADD MSTORE PUSH1 0x80 DUP5 ADD MSTORE PUSH8 0x1BC16D674EC80000 PUSH1 0xA0 DUP5 ADD MSTORE PUSH8 0xDE0B6B3A7640000 PUSH1 0xC0 DUP5 ADD MSTORE PUSH8 0x2C68AF0BB140000 PUSH1 0xE0 DUP5 ADD MSTORE PUSH7 0xB1A2BC2EC50000 PUSH2 0x100 DUP5 ADD MSTORE PUSH7 0xB1A2BC2EC50000 PUSH2 0x120 DUP5 ADD MSTORE PUSH7 0x2386F26FC10000 PUSH2 0x140 DUP5 ADD MSTORE PUSH7 0x2386F26FC10000 PUSH2 0x160 DUP5 ADD MSTORE PUSH7 0x2386F26FC10000 PUSH2 0x180 DUP5 ADD MSTORE PUSH8 0x11C37937E080000 PUSH2 0x1A0 DUP5 ADD MSTORE PUSH8 0x11C37937E080000 PUSH2 0x1C0 DUP5 ADD MSTORE PUSH8 0x6F05B59D3B20000 PUSH2 0x1E0 DUP5 ADD MSTORE PUSH8 0x16345785D8A0000 PUSH2 0x200 DUP5 ADD MSTORE PUSH8 0x6F05B59D3B20000 PUSH2 0x220 DUP5 ADD MSTORE PUSH3 0x278D00 PUSH2 0x240 DUP5 ADD MSTORE PUSH2 0x260 DUP4 ADD MSTORE PUSH8 0x16345785D8A0000 PUSH2 0x280 DUP4 ADD MSTORE PUSH3 0x93A80 PUSH2 0x2A0 DUP4 ADD MSTORE DUP1 PUSH2 0x2C0 DUP4 ADD MSTORE PUSH2 0x2E0 DUP3 ADD MSTORE PUSH2 0x2D0 PUSH2 0x300 DUP3 ADD MSTORE PUSH1 0x1 DUP1 PUSH1 0xA0 SHL SUB PUSH1 0x1 SLOAD AND PUSH1 0x1 DUP1 PUSH1 0xA0 SHL SUB PUSH1 0x8 SLOAD AND PUSH1 0x1 DUP1 PUSH1 0xA0 SHL SUB PUSH1 0x7 SLOAD AND SWAP2 PUSH1 0x40 MLOAD SWAP4 PUSH3 0x53C PUSH1 0xC0 DUP7 PUSH3 0xEAA JUMP JUMPDEST DUP5 MSTORE PUSH1 0x20 DUP5 ADD MSTORE CALLER PUSH1 0x40 DUP5 ADD MSTORE PUSH1 0x60 DUP4 ADD MSTORE PUSH3 0x15180 PUSH1 0x80 DUP4 ADD MSTORE PUSH1 0xA0 DUP3 ADD MSTORE PUSH1 0x1 DUP1 PUSH1 0xA0 SHL SUB PUSH1 0x6 SLOAD AND PUSH1 0x40 MLOAD SWAP2 PUSH3 0x578 PUSH1 0x40 DUP5 PUSH3 0xEAA JUMP JUMPDEST DUP3 MSTORE PUSH1 0x20 DUP3 ADD MSTORE DUP2 SLOAD PUSH1 0x1 PUSH1 0x1 PUSH1 0xA0 SHL SUB AND SWAP1 DUP2 EXTCODESIZE ISZERO PUSH3 0xD20 JUMPI PUSH1 0x40 DUP1 MLOAD PUSH4 0x7E8CE8B PUSH1 0xE0 SHL DUP2 MSTORE DUP3 MLOAD DUP1 MLOAD DUP1 MLOAD PUSH1 0x1 PUSH1 0x1 PUSH1 0xA0 SHL SUB SWAP1 DUP2 AND PUSH1 0x4 DUP6 ADD MSTORE PUSH1 0x20 DUP1 DUP4 ADD MLOAD DUP3 AND PUSH1 0x24 DUP7 ADD MSTORE DUP3 DUP7 ADD MLOAD DUP3 AND PUSH1 0x44 DUP7 ADD MSTORE PUSH1 0x60 DUP1 DUP5 ADD MLOAD DUP4 AND PUSH1 0x64 DUP8 ADD MSTORE PUSH1 0x80 DUP1 DUP6 ADD MLOAD DUP5 AND PUSH1 0x84 DUP9 ADD MSTORE PUSH1 0xA0 DUP1 DUP7 ADD MLOAD PUSH1 0xA4 DUP10 ADD MSTORE PUSH1 0xC0 DUP7 ADD MLOAD PUSH1 0xC4 DUP10 ADD MSTORE PUSH1 0xE0 DUP7 ADD MLOAD PUSH1 0xE4 DUP10 ADD MSTORE PUSH2 0x100 DUP7 ADD MLOAD PUSH2 0x104 DUP10 ADD MSTORE PUSH2 0x120 DUP7 ADD MLOAD PUSH2 0x124 DUP10 ADD MSTORE PUSH2 0x140 DUP7 ADD MLOAD PUSH2 0x144 DUP10 ADD MSTORE PUSH2 0x160 DUP7 ADD MLOAD PUSH2 0x164 DUP10 ADD MSTORE PUSH2 0x180 DUP7 ADD MLOAD PUSH2 0x184 DUP10 ADD MSTORE PUSH2 0x1A0 DUP7 ADD MLOAD PUSH2 0x1A4 DUP10 ADD MSTORE PUSH2 0x1C0 DUP7 ADD MLOAD PUSH2 0x1C4 DUP10 ADD MSTORE PUSH2 0x1E0 DUP7 ADD MLOAD PUSH2 0x1E4 DUP10 ADD MSTORE PUSH2 0x200 DUP7 ADD MLOAD PUSH2 0x204 DUP10 ADD MSTORE PUSH2 0x220 DUP7 ADD MLOAD PUSH2 0x224 DUP10 ADD MSTORE PUSH2 0x240 DUP7 ADD MLOAD PUSH2 0x244 DUP10 ADD MSTORE PUSH2 0x260 DUP7 ADD MLOAD DUP6 AND PUSH2 0x264 DUP10 ADD MSTORE PUSH2 0x280 DUP7 ADD MLOAD PUSH2 0x284 DUP10 ADD MSTORE PUSH2 0x2A0 DUP7 ADD MLOAD PUSH2 0x2A4 DUP10 ADD MSTORE PUSH2 0x2C0 DUP7 ADD MLOAD DUP6 AND PUSH2 0x2C4 DUP10 ADD MSTORE PUSH2 0x2E0 DUP7 ADD MLOAD DUP6 AND PUSH2 0x2E4 DUP10 ADD MSTORE PUSH2 0x300 SWAP1 SWAP6 ADD MLOAD PUSH2 0x304 DUP9 ADD MSTORE DUP3 DUP7 ADD MLOAD DUP5 AND PUSH2 0x324 DUP9 ADD MSTORE SWAP7 DUP6 ADD MLOAD DUP4 AND PUSH2 0x344 DUP8 ADD MSTORE DUP5 ADD MLOAD DUP3 AND PUSH2 0x364 DUP7 ADD MSTORE SWAP5 DUP4 ADD MLOAD PUSH2 0x384 DUP6 ADD MSTORE SWAP2 ADD MLOAD DUP2 AND PUSH2 0x3A4 DUP4 ADD MSTORE SWAP2 SWAP1 SWAP3 ADD MLOAD AND PUSH2 0x3C4 DUP3 ADD MSTORE SWAP1 DUP3 SWAP1 DUP3 SWAP1 PUSH2 0x3E4 SWAP1 DUP3 SWAP1 DUP5 SWAP1 GAS CALL DUP1 ISZERO PUSH3 0xCB2 JUMPI PUSH3 0xE29 JUMPI JUMPDEST POP PUSH1 0x5 SLOAD DUP2 SLOAD PUSH1 0x1 PUSH1 0x1 PUSH1 0xA0 SHL SUB SWAP2 DUP3 AND SWAP2 AND DUP2 EXTCODESIZE ISZERO PUSH3 0xD20 JUMPI DUP3 SWAP2 PUSH1 0x24 DUP4 SWAP3 PUSH1 0x40 MLOAD SWAP5 DUP6 SWAP4 DUP5 SWAP3 PUSH4 0x83D2230D PUSH1 0xE0 SHL DUP5 MSTORE PUSH1 0x4 DUP5 ADD MSTORE GAS CALL DUP1 ISZERO PUSH3 0xCB2 JUMPI PUSH3 0xE10 JUMPI JUMPDEST POP POP PUSH1 0x40 MLOAD SWAP1 PUSH3 0x795 PUSH1 0xE0 DUP4 PUSH3 0xEAA JUMP JUMPDEST DUP1 DUP3 MSTORE DUP1 PUSH1 0x20 DUP4 ADD MSTORE PUSH8 0x4563918244F40000 PUSH1 0x40 DUP4 ADD MSTORE PUSH7 0xB1A2BC2EC50000 PUSH1 0x60 DUP4 ADD MSTORE PUSH7 0xB1A2BC2EC50000 PUSH1 0x80 DUP4 ADD MSTORE PUSH9 0xB7E174CC69ED00000 PUSH1 0xA0 DUP4 ADD MSTORE PUSH7 0xB1A2BC2EC50000 PUSH1 0xC0 DUP4 ADD MSTORE PUSH1 0x5 PUSH1 0xB SLOAD LT ISZERO PUSH3 0xDCB JUMPI PUSH1 0x40 MLOAD PUSH1 0x1 PUSH1 0x1 PUSH1 0x40 SHL SUB PUSH2 0x225E DUP3 ADD SWAP1 DUP2 GT SWAP1 DUP3 GT OR PUSH3 0xD89 JUMPI PUSH2 0x225E PUSH3 0x126E9 DUP3 CODECOPY DUP1 PUSH2 0x225E DUP2 ADD SUB SWAP1 DUP3 CREATE DUP1 ISZERO PUSH3 0xDBE JUMPI PUSH1 0x1 PUSH1 0x1 PUSH1 0xA0 SHL SUB SWAP1 PUSH3 0x83A SWAP1 DUP3 AND PUSH3 0xF17 JUMP JUMPDEST DUP3 SLOAD PUSH1 0x1 SLOAD SWAP3 SWAP1 SWAP2 AND SWAP2 PUSH1 0x1 PUSH1 0x1 PUSH1 0xA0 SHL SUB SWAP2 DUP3 AND SWAP2 AND DUP3 EXTCODESIZE ISZERO PUSH3 0xDBA JUMPI PUSH1 0x40 MLOAD SWAP2 PUSH4 0x23C56D05 PUSH1 0xE2 SHL DUP4 MSTORE PUSH1 0x80 PUSH1 0x4 DUP5 ADD MSTORE PUSH1 0x7 PUSH1 0x84 DUP5 ADD MSTORE PUSH7 0x2A282A37B5B2B7 PUSH1 0xC9 SHL PUSH1 0xA4 DUP5 ADD MSTORE PUSH1 0xC0 PUSH1 0x24 DUP5 ADD MSTORE PUSH1 0x2 PUSH1 0xC4 DUP5 ADD MSTORE PUSH2 0x545 PUSH1 0xF4 SHL PUSH1 0xE4 DUP5 ADD MSTORE PUSH1 0x44 DUP4 ADD MSTORE PUSH1 0x64 DUP3 ADD MSTORE DUP3 DUP2 PUSH2 0x104 DUP2 DUP4 DUP7 GAS CALL DUP1 ISZERO PUSH3 0xC71 JUMPI SWAP1 DUP4 SWAP2 PUSH3 0xD9D JUMPI JUMPDEST POP POP DUP3 MSTORE PUSH8 0xDE0B6B3A7640000 PUSH1 0x60 DUP4 ADD MLOAD MOD PUSH1 0x60 DUP4 ADD MSTORE PUSH8 0xDE0B6B3A7640000 PUSH1 0x80 DUP4 ADD MLOAD MOD PUSH1 0x80 DUP4 ADD MSTORE PUSH1 0x40 MLOAD SWAP2 DUP3 PUSH2 0x194 DUP2 ADD LT PUSH1 0x1 DUP1 PUSH1 0x40 SHL SUB PUSH2 0x194 DUP6 ADD GT OR PUSH3 0xD89 JUMPI DUP2 SWAP3 PUSH2 0x194 PUSH3 0x12398 DUP3 CODECOPY PUSH9 0xCBD47B6EAA8CC0001 PUSH2 0x194 DUP3 ADD MSTORE PUSH1 0x20 DUP2 PUSH2 0x194 DUP2 ADD SUB ADD SWAP1 DUP4 CREATE DUP1 ISZERO PUSH3 0xCB2 JUMPI PUSH1 0x1 PUSH1 0x1 PUSH1 0xA0 SHL SUB SWAP1 DUP2 AND PUSH1 0x20 DUP4 ADD MSTORE DUP3 SLOAD AND SWAP1 DUP2 EXTCODESIZE ISZERO PUSH3 0xD20 JUMPI PUSH1 0x40 DUP1 MLOAD PUSH4 0x6DBCB039 PUSH1 0xE1 SHL DUP2 MSTORE DUP3 MLOAD PUSH1 0x1 PUSH1 0x1 PUSH1 0xA0 SHL SUB SWAP1 DUP2 AND PUSH1 0x4 DUP4 ADD MSTORE PUSH1 0x20 DUP5 ADD MLOAD AND PUSH1 0x24 DUP3 ADD MSTORE SWAP1 DUP3 ADD MLOAD PUSH1 0x44 DUP3 ADD MSTORE PUSH1 0x60 DUP3 ADD MLOAD PUSH1 0x64 DUP3 ADD MSTORE PUSH1 0x80 DUP3 ADD MLOAD PUSH1 0x84 DUP3 ADD MSTORE PUSH1 0xA0 DUP3 ADD MLOAD PUSH1 0xA4 DUP3 ADD MSTORE PUSH1 0xC0 SWAP1 SWAP2 ADD MLOAD PUSH1 0xC4 DUP3 ADD MSTORE SWAP1 DUP3 SWAP1 DUP3 SWAP1 PUSH1 0xE4 SWAP1 DUP3 SWAP1 DUP5 SWAP1 GAS CALL DUP1 ISZERO PUSH3 0xCB2 JUMPI PUSH3 0xD70 JUMPI JUMPDEST POP POP PUSH1 0xB SLOAD PUSH0 NOT DUP2 EQ PUSH3 0xD5C JUMPI PUSH1 0x1 ADD PUSH1 0xB SSTORE PUSH1 0x6 SLOAD PUSH1 0x40 MLOAD PUSH4 0x18160DDD PUSH1 0xE0 SHL DUP2 MSTORE DUP3 SWAP2 PUSH1 0x1 PUSH1 0x1 PUSH1 0xA0 SHL SUB AND SWAP1 PUSH1 0x20 DUP2 PUSH1 0x4 DUP2 DUP6 GAS STATICCALL SWAP1 DUP2 ISZERO PUSH3 0xC71 JUMPI DUP4 SWAP2 PUSH3 0xD24 JUMPI JUMPDEST POP DUP2 EXTCODESIZE ISZERO PUSH3 0xD20 JUMPI DUP3 SWAP2 PUSH1 0x44 DUP4 SWAP3 PUSH1 0x40 MLOAD SWAP5 DUP6 SWAP4 DUP5 SWAP3 PUSH4 0x40C10F19 PUSH1 0xE0 SHL DUP5 MSTORE ADDRESS PUSH1 0x4 DUP6 ADD MSTORE NOT PUSH1 0x24 DUP5 ADD MSTORE GAS CALL DUP1 ISZERO PUSH3 0xCB2 JUMPI PUSH3 0xD04 JUMPI JUMPDEST POP POP PUSH1 0x6 SLOAD DUP2 SLOAD PUSH1 0x40 MLOAD PUSH4 0x95EA7B3 PUSH1 0xE0 SHL DUP1 DUP3 MSTORE PUSH1 0x1 PUSH1 0x1 PUSH1 0xA0 SHL SUB SWAP3 DUP4 AND PUSH1 0x4 DUP4 ADD MSTORE PUSH10 0x65A4DA25D3016C00000 PUSH1 0x24 DUP4 ADD DUP2 SWAP1 MSTORE SWAP1 SWAP5 SWAP4 SWAP1 SWAP3 PUSH1 0x20 SWAP2 DUP4 SWAP2 PUSH1 0x44 SWAP2 DUP4 SWAP2 DUP9 SWAP2 AND GAS CALL DUP1 ISZERO PUSH3 0xC71 JUMPI SWAP2 PUSH1 0x40 SWAP2 DUP5 SWAP4 PUSH3 0xCE0 JUMPI JUMPDEST POP DUP3 SLOAD DUP3 MLOAD PUSH4 0x176FEC1 PUSH1 0xE3 SHL DUP2 MSTORE PUSH9 0xA2A15D09519BE00000 PUSH1 0x4 DUP3 ADD MSTORE PUSH1 0x24 DUP2 ADD SWAP3 SWAP1 SWAP3 MSTORE SWAP1 SWAP3 DUP4 SWAP2 PUSH1 0x44 SWAP2 DUP4 SWAP2 PUSH1 0x1 PUSH1 0x1 PUSH1 0xA0 SHL SUB AND GAS CALL DUP1 ISZERO PUSH3 0xCB2 JUMPI PUSH3 0xCBD JUMPI JUMPDEST POP PUSH1 0x6 SLOAD DUP2 SLOAD PUSH1 0x40 MLOAD SWAP4 DUP5 MSTORE PUSH1 0x1 PUSH1 0x1 PUSH1 0xA0 SHL SUB SWAP1 DUP2 AND PUSH1 0x4 DUP6 ADD MSTORE PUSH9 0x3635C9ADC5DEA00000 PUSH1 0x24 DUP6 ADD DUP2 SWAP1 MSTORE SWAP4 SWAP2 PUSH1 0x20 SWAP2 DUP4 SWAP2 PUSH1 0x44 SWAP2 DUP4 SWAP2 DUP8 SWAP2 AND GAS CALL DUP1 ISZERO PUSH3 0xCB2 JUMPI PUSH3 0xC7C JUMPI JUMPDEST POP DUP1 SLOAD PUSH1 0x40 MLOAD PUSH3 0x7C6DA1 PUSH1 0xE2 SHL DUP2 MSTORE PUSH1 0x4 DUP2 ADD DUP4 SWAP1 MSTORE PUSH1 0x1 PUSH1 0x1 PUSH1 0xA0 SHL SUB SWAP1 SWAP2 AND SWAP3 SWAP1 PUSH1 0x20 DUP2 PUSH1 0x24 DUP2 DUP8 GAS STATICCALL SWAP1 DUP2 ISZERO PUSH3 0xC71 JUMPI DUP4 SWAP2 PUSH3 0xC23 JUMPI JUMPDEST POP PUSH1 0x40 DUP1 MLOAD PUSH4 0x484AD7CD PUSH1 0xE0 SHL DUP2 MSTORE PUSH1 0x1 PUSH1 0x1 PUSH1 0xA0 SHL SUB SWAP1 SWAP3 AND PUSH1 0x4 DUP4 ADD MSTORE PUSH10 0x4F9F00373A9EFB00000 PUSH1 0x24 DUP4 ADD MSTORE PUSH1 0x44 DUP3 ADD SWAP3 SWAP1 SWAP3 MSTORE SWAP3 DUP4 SWAP1 PUSH1 0x64 SWAP1 DUP3 SWAP1 DUP6 SWAP1 GAS CALL SWAP1 DUP2 ISZERO PUSH3 0xC17 JUMPI POP PUSH3 0xBE2 JUMPI JUMPDEST PUSH1 0x40 MLOAD PUSH2 0x5F2E SWAP1 DUP2 PUSH3 0xF74 DUP3 CODECOPY RETURN JUMPDEST PUSH3 0xC08 SWAP1 PUSH1 0x40 RETURNDATASIZE PUSH1 0x40 GT PUSH3 0xC0F JUMPI JUMPDEST PUSH3 0xBFF DUP2 DUP4 PUSH3 0xEAA JUMP JUMPDEST DUP2 ADD SWAP1 PUSH3 0xF00 JUMP JUMPDEST POP PUSH3 0xBD2 JUMP JUMPDEST POP RETURNDATASIZE PUSH3 0xBF3 JUMP JUMPDEST PUSH1 0x40 MLOAD SWAP1 RETURNDATASIZE SWAP1 DUP3 RETURNDATACOPY RETURNDATASIZE SWAP1 REVERT JUMPDEST SWAP1 POP PUSH1 0x20 DUP2 RETURNDATASIZE PUSH1 0x20 GT PUSH3 0xC68 JUMPI JUMPDEST DUP2 PUSH3 0xC41 PUSH1 0x20 SWAP4 DUP4 PUSH3 0xEAA JUMP JUMPDEST DUP2 ADD SUB SLT PUSH3 0xC64 JUMPI MLOAD PUSH1 0x1 PUSH1 0x1 PUSH1 0xA0 SHL SUB DUP2 AND DUP2 SUB PUSH3 0xC64 JUMPI PUSH1 0x64 PUSH3 0xB80 JUMP JUMPDEST DUP3 DUP1 REVERT JUMPDEST RETURNDATASIZE SWAP2 POP PUSH3 0xC32 JUMP JUMPDEST PUSH1 0x40 MLOAD RETURNDATASIZE DUP6 DUP3 RETURNDATACOPY RETURNDATASIZE SWAP1 REVERT JUMPDEST PUSH3 0xCA2 SWAP1 PUSH1 0x20 RETURNDATASIZE PUSH1 0x20 GT PUSH3 0xCAA JUMPI JUMPDEST PUSH3 0xC99 DUP2 DUP4 PUSH3 0xEAA JUMP JUMPDEST DUP2 ADD SWAP1 PUSH3 0xEE2 JUMP JUMPDEST POP PUSH0 PUSH3 0xB44 JUMP JUMPDEST POP RETURNDATASIZE PUSH3 0xC8D JUMP JUMPDEST PUSH1 0x40 MLOAD RETURNDATASIZE DUP5 DUP3 RETURNDATACOPY RETURNDATASIZE SWAP1 REVERT JUMPDEST PUSH3 0xCD9 SWAP1 PUSH1 0x40 RETURNDATASIZE PUSH1 0x40 GT PUSH3 0xC0F JUMPI PUSH3 0xBFF DUP2 DUP4 PUSH3 0xEAA JUMP JUMPDEST POP PUSH3 0xAF9 JUMP JUMPDEST PUSH3 0xCFC SWAP1 PUSH1 0x20 RETURNDATASIZE PUSH1 0x20 GT PUSH3 0xCAA JUMPI PUSH3 0xC99 DUP2 DUP4 PUSH3 0xEAA JUMP JUMPDEST POP PUSH0 PUSH3 0xAB2 JUMP JUMPDEST DUP2 PUSH3 0xD10 SWAP2 PUSH3 0xEAA JUMP JUMPDEST PUSH3 0xD1D JUMPI DUP1 PUSH0 PUSH3 0xA54 JUMP JUMPDEST DUP1 REVERT JUMPDEST POP POP REVERT JUMPDEST SWAP1 POP PUSH1 0x20 DUP2 RETURNDATASIZE PUSH1 0x20 GT PUSH3 0xD53 JUMPI JUMPDEST DUP2 PUSH3 0xD42 PUSH1 0x20 SWAP4 DUP4 PUSH3 0xEAA JUMP JUMPDEST DUP2 ADD SUB SLT PUSH3 0xD20 JUMPI MLOAD PUSH0 PUSH3 0xA18 JUMP JUMPDEST RETURNDATASIZE SWAP2 POP PUSH3 0xD33 JUMP JUMPDEST PUSH4 0x4E487B71 PUSH1 0xE0 SHL DUP3 MSTORE PUSH1 0x11 PUSH1 0x4 MSTORE PUSH1 0x24 DUP3 REVERT JUMPDEST DUP2 PUSH3 0xD7C SWAP2 PUSH3 0xEAA JUMP JUMPDEST PUSH3 0xD1D JUMPI DUP1 PUSH0 PUSH3 0x9CF JUMP JUMPDEST PUSH4 0x4E487B71 PUSH1 0xE0 SHL DUP3 MSTORE PUSH1 0x41 PUSH1 0x4 MSTORE PUSH1 0x24 DUP3 REVERT JUMPDEST DUP2 PUSH3 0xDA9 SWAP2 PUSH3 0xEAA JUMP JUMPDEST PUSH3 0xDB6 JUMPI DUP2 PUSH0 PUSH3 0x8C2 JUMP JUMPDEST POP DUP1 REVERT JUMPDEST DUP4 DUP1 REVERT JUMPDEST POP PUSH1 0x40 MLOAD SWAP1 RETURNDATASIZE SWAP1 DUP3 RETURNDATACOPY RETURNDATASIZE SWAP1 REVERT JUMPDEST PUSH1 0x40 MLOAD PUSH3 0x461BCD PUSH1 0xE5 SHL DUP2 MSTORE PUSH1 0x20 PUSH1 0x4 DUP3 ADD MSTORE PUSH1 0x14 PUSH1 0x24 DUP3 ADD MSTORE PUSH32 0x6D617820545020616C7265616479206164646564000000000000000000000000 PUSH1 0x44 DUP3 ADD MSTORE PUSH1 0x64 SWAP1 REVERT JUMPDEST DUP2 PUSH3 0xE1C SWAP2 PUSH3 0xEAA JUMP JUMPDEST PUSH3 0xD1D JUMPI DUP1 PUSH0 PUSH3 0x782 JUMP JUMPDEST DUP2 PUSH3 0xE35 SWAP2 PUSH3 0xEAA JUMP JUMPDEST PUSH3 0xD1D JUMPI DUP1 PUSH0 PUSH3 0x73B JUMP JUMPDEST DUP2 PUSH3 0xE4E SWAP2 PUSH3 0xEAA JUMP JUMPDEST PUSH3 0xD1D JUMPI DUP1 PUSH0 PUSH3 0x3B7 JUMP JUMPDEST PUSH3 0xE66 SWAP2 PUSH3 0xEAA JUMP JUMPDEST PUSH0 DUP2 PUSH3 0x32F JUMP JUMPDEST PUSH4 0x4E487B71 PUSH1 0xE0 SHL DUP5 MSTORE PUSH1 0x41 PUSH1 0x4 MSTORE PUSH1 0x24 DUP5 REVERT JUMPDEST PUSH4 0x4E487B71 PUSH1 0xE0 SHL DUP4 MSTORE PUSH1 0x41 PUSH1 0x4 MSTORE PUSH1 0x24 DUP4 REVERT JUMPDEST PUSH4 0x4E487B71 PUSH1 0xE0 SHL DUP6 MSTORE PUSH1 0x41 PUSH1 0x4 MSTORE PUSH1 0x24 DUP6 REVERT JUMPDEST PUSH1 0x1F SWAP1 SWAP2 ADD PUSH1 0x1F NOT AND DUP2 ADD SWAP1 PUSH1 0x1 PUSH1 0x1 PUSH1 0x40 SHL SUB DUP3 GT SWAP1 DUP3 LT OR PUSH3 0xECE JUMPI PUSH1 0x40 MSTORE JUMP JUMPDEST PUSH4 0x4E487B71 PUSH1 0xE0 SHL PUSH0 MSTORE PUSH1 0x41 PUSH1 0x4 MSTORE PUSH1 0x24 PUSH0 REVERT JUMPDEST SWAP1 DUP2 PUSH1 0x20 SWAP2 SUB SLT PUSH3 0xEFC JUMPI MLOAD DUP1 ISZERO ISZERO DUP2 SUB PUSH3 0xEFC JUMPI SWAP1 JUMP JUMPDEST PUSH0 DUP1 REVERT JUMPDEST SWAP2 SWAP1 DUP3 PUSH1 0x40 SWAP2 SUB SLT PUSH3 0xEFC JUMPI PUSH1 0x20 DUP3 MLOAD SWAP3 ADD MLOAD SWAP1 JUMP JUMPDEST PUSH1 0x40 MLOAD PUSH2 0x3F1 DUP1 DUP3 ADD SWAP1 PUSH1 0x1 PUSH1 0x1 PUSH1 0x40 SHL SUB DUP3 GT DUP4 DUP4 LT OR PUSH3 0xECE JUMPI PUSH1 0x60 SWAP2 DUP4 SWAP2 PUSH3 0x6EA2 DUP4 CODECOPY PUSH1 0x1 DUP1 PUSH1 0xA0 SHL SUB DUP1 SWAP6 AND DUP2 MSTORE PUSH1 0x40 PUSH1 0x20 DUP3 ADD MSTORE PUSH0 PUSH1 0x40 DUP3 ADD MSTORE SUB ADD SWAP1 PUSH0 CREATE DUP1 ISZERO PUSH3 0xF68 JUMPI AND SWAP1 JUMP JUMPDEST PUSH1 0x40 MLOAD RETURNDATASIZE PUSH0 DUP3 RETURNDATACOPY RETURNDATASIZE SWAP1 REVERT INVALID PUSH1 0x80 DUP1 PUSH1 0x40 MSTORE PUSH1 0x4 CALLDATASIZE LT ISZERO PUSH3 0x13 JUMPI PUSH0 DUP1 REVERT JUMPDEST PUSH0 SWAP1 DUP2 CALLDATALOAD PUSH1 0xE0 SHR SWAP1 DUP2 PUSH4 0xBB7F608 EQ PUSH3 0x2BD6 JUMPI POP DUP1 PUSH4 0x181770DA EQ PUSH3 0x253E JUMPI DUP1 PUSH4 0x24035D38 EQ PUSH3 0x21C2 JUMPI DUP1 PUSH4 0x3295B14F EQ PUSH3 0x20E3 JUMPI DUP1 PUSH4 0x4530BBB0 EQ PUSH3 0x1B94 JUMPI DUP1 PUSH4 0x5C616A73 EQ PUSH3 0x1B2E JUMPI DUP1 PUSH4 0x7E6A2ABE EQ PUSH3 0x16A2 JUMPI DUP1 PUSH4 0x85EC8678 EQ PUSH3 0x11B7 JUMPI DUP1 PUSH4 0x9423AF0B EQ PUSH3 0xE22 JUMPI DUP1 PUSH4 0x98CDB3FC EQ PUSH3 0xC30 JUMPI DUP1 PUSH4 0xAC4FC1A8 EQ PUSH3 0x5D4 JUMPI PUSH4 0xF4076005 EQ PUSH3 0xAF JUMPI PUSH0 DUP1 REVERT JUMPDEST CALLVALUE PUSH3 0x5D1 JUMPI PUSH1 0x20 CALLDATASIZE PUSH1 0x3 NOT ADD SLT PUSH3 0x5D1 JUMPI PUSH3 0xCC PUSH3 0x32A6 JUMP JUMPDEST PUSH1 0x80 DUP2 ADD MLOAD DUP1 PUSH3 0xDB JUMPI DUP3 DUP1 RETURN JUMPDEST PUSH3 0xE9 SWAP1 PUSH1 0x4 CALLDATALOAD PUSH3 0x3116 JUMP JUMPDEST PUSH1 0x1 DUP2 ADD DUP2 GT PUSH3 0x5BD JUMPI DUP2 MLOAD DUP4 SLOAD PUSH1 0x40 MLOAD PUSH4 0x198804FD PUSH1 0xE2 SHL DUP2 MSTORE PUSH1 0x1 PUSH1 0x1 PUSH1 0xA0 SHL SUB SWAP2 DUP3 AND SWAP5 DUP7 SWAP4 SWAP1 SWAP2 SWAP1 PUSH1 0x20 DUP3 PUSH1 0x4 DUP2 DUP11 GAS STATICCALL SWAP2 DUP3 ISZERO PUSH3 0x3EB JUMPI DUP6 SWAP3 PUSH3 0x580 JUMPI JUMPDEST POP LT SWAP4 DUP5 ISZERO PUSH3 0x504 JUMPI JUMPDEST PUSH1 0x40 DUP5 SWAP7 PUSH1 0x44 DUP3 MLOAD DUP1 SWAP8 DUP2 SWAP4 PUSH4 0x9ABB14C9 PUSH1 0xE0 SHL DUP4 MSTORE PUSH1 0x1 DUP8 ADD PUSH1 0x4 DUP5 ADD MSTORE DUP2 PUSH1 0x24 DUP5 ADD MSTORE GAS CALL DUP8 SWAP5 DUP2 PUSH3 0x4CB JUMPI JUMPDEST POP PUSH3 0x1B9 JUMPI POP POP POP POP SWAP1 POP PUSH1 0x1 SWAP1 PUSH3 0x186 PUSH1 0xC SLOAD PUSH3 0x3162 JUMP JUMPDEST PUSH1 0xC SSTORE JUMPDEST PUSH3 0x1A7 JUMPI JUMPDEST POP PUSH3 0x1A1 PUSH1 0x4B PUSH1 0xC SLOAD LT PUSH3 0x3206 JUMP JUMPDEST PUSH0 DUP1 DUP3 DUP1 RETURN JUMPDEST PUSH3 0x1B2 SWAP1 PUSH3 0x3206 JUMP JUMPDEST PUSH0 PUSH3 0x190 JUMP JUMPDEST PUSH3 0x1C3 PUSH3 0x32A6 JUMP JUMPDEST SWAP3 PUSH8 0xDE0B6B3A7640000 PUSH3 0x1E0 PUSH1 0x20 DUP6 ADD MLOAD PUSH1 0x1 DUP6 ADD PUSH3 0x31A8 JUMP JUMPDEST DIV SWAP1 DUP9 SLOAD AND SWAP5 PUSH1 0x40 MLOAD PUSH4 0x2BA80E37 PUSH1 0xE2 SHL DUP2 MSTORE PUSH1 0x20 DUP2 PUSH1 0x4 DUP2 DUP11 GAS STATICCALL DUP1 ISZERO PUSH3 0x4C0 JUMPI DUP11 SWAP1 PUSH3 0x485 JUMPI JUMPDEST PUSH3 0x218 SWAP2 POP DUP4 PUSH3 0x31A8 JUMP JUMPDEST PUSH1 0x40 MLOAD PUSH4 0x278793F7 PUSH1 0xE1 SHL DUP2 MSTORE PUSH1 0x20 DUP2 PUSH1 0x4 DUP2 DUP12 GAS STATICCALL SWAP1 DUP2 ISZERO PUSH3 0x442 JUMPI DUP12 SWAP2 PUSH3 0x44D JUMPI JUMPDEST POP PUSH8 0xDE0B6B3A7640000 DUP2 DUP2 SUB GT PUSH3 0x3F6 JUMPI PUSH15 0xC097CE7BC90715B34B9F1000000000 SWAP2 PUSH3 0x278 SWAP2 PUSH8 0xDE0B6B3A7640000 SUB SWAP1 PUSH3 0x31A8 JUMP JUMPDEST DIV SWAP2 PUSH1 0x40 MLOAD PUSH4 0x2BA80E37 PUSH1 0xE2 SHL DUP2 MSTORE PUSH1 0x20 DUP2 PUSH1 0x4 DUP2 DUP12 GAS STATICCALL SWAP1 DUP2 ISZERO PUSH3 0x442 JUMPI DUP12 SWAP2 PUSH3 0x40A JUMPI JUMPDEST POP PUSH8 0xDE0B6B3A7640000 SUB SWAP1 PUSH8 0xDE0B6B3A7640000 DUP3 GT PUSH3 0x3F6 JUMPI SWAP4 PUSH3 0x342 PUSH1 0x1 PUSH3 0x303 PUSH3 0x365 SWAP7 PUSH3 0x327 PUSH1 0x20 SWAP11 SWAP8 PUSH3 0x30B DUP6 PUSH1 0x4 SWAP16 SWAP15 SWAP13 PUSH8 0xDE0B6B3A7640000 PUSH3 0x2FB PUSH3 0x35A SWAP13 PUSH3 0x303 SWAP4 PUSH3 0x31A8 JUMP JUMPDEST DIV DUP5 PUSH3 0x31F8 JUMP JUMPDEST GT ISZERO PUSH3 0x3206 JUMP JUMPDEST PUSH3 0x320 PUSH1 0x40 DUP13 ADD MLOAD SWAP2 PUSH1 0x40 DUP12 ADD MLOAD PUSH3 0x319A JUMP JUMPDEST EQ PUSH3 0x3206 JUMP JUMPDEST PUSH3 0x33C PUSH1 0x60 DUP11 ADD MLOAD PUSH1 0x60 DUP10 ADD MLOAD SWAP1 PUSH3 0x31F8 JUMP JUMPDEST PUSH3 0x31F8 JUMP JUMPDEST PUSH3 0x320 PUSH1 0x1 PUSH1 0x80 DUP8 ADD MLOAD SWAP3 ADD PUSH1 0x80 DUP6 ADD MLOAD PUSH3 0x31F8 JUMP JUMPDEST MLOAD DUP3 MLOAD GT ISZERO PUSH3 0x3206 JUMP JUMPDEST MLOAD SWAP2 PUSH1 0x40 MLOAD SWAP4 DUP5 DUP1 SWAP3 PUSH4 0x198804FD PUSH1 0xE2 SHL DUP3 MSTORE GAS STATICCALL SWAP1 DUP2 ISZERO PUSH3 0x3EB JUMPI DUP6 SWAP2 PUSH3 0x3AA JUMPI JUMPDEST PUSH3 0x398 SWAP3 POP LT ISZERO PUSH3 0x3206 JUMP JUMPDEST PUSH3 0x3A4 DUP2 ISZERO PUSH3 0x3206 JUMP JUMPDEST PUSH3 0x18A JUMP JUMPDEST SWAP1 POP PUSH1 0x20 DUP3 RETURNDATASIZE PUSH1 0x20 GT PUSH3 0x3E2 JUMPI JUMPDEST DUP2 PUSH3 0x3C8 PUSH1 0x20 SWAP4 DUP4 PUSH3 0x30DF JUMP JUMPDEST DUP2 ADD SUB SLT PUSH3 0x3DE JUMPI PUSH3 0x398 SWAP2 MLOAD SWAP1 PUSH3 0x38A JUMP JUMPDEST PUSH0 DUP1 REVERT JUMPDEST RETURNDATASIZE SWAP2 POP PUSH3 0x3B9 JUMP JUMPDEST PUSH1 0x40 MLOAD RETURNDATASIZE DUP8 DUP3 RETURNDATACOPY RETURNDATASIZE SWAP1 REVERT JUMPDEST PUSH4 0x4E487B71 PUSH1 0xE0 SHL DUP12 MSTORE PUSH1 0x11 PUSH1 0x4 MSTORE PUSH1 0x24 DUP12 REVERT JUMPDEST SWAP1 POP PUSH1 0x20 DUP2 RETURNDATASIZE PUSH1 0x20 GT PUSH3 0x439 JUMPI JUMPDEST DUP2 PUSH3 0x428 PUSH1 0x20 SWAP4 DUP4 PUSH3 0x30DF JUMP JUMPDEST DUP2 ADD SUB SLT PUSH3 0x3DE JUMPI MLOAD PUSH0 PUSH3 0x2A0 JUMP JUMPDEST RETURNDATASIZE SWAP2 POP PUSH3 0x419 JUMP JUMPDEST PUSH1 0x40 MLOAD RETURNDATASIZE DUP14 DUP3 RETURNDATACOPY RETURNDATASIZE SWAP1 REVERT JUMPDEST SWAP1 POP PUSH1 0x20 DUP2 RETURNDATASIZE PUSH1 0x20 GT PUSH3 0x47C JUMPI JUMPDEST DUP2 PUSH3 0x46B PUSH1 0x20 SWAP4 DUP4 PUSH3 0x30DF JUMP JUMPDEST DUP2 ADD SUB SLT PUSH3 0x3DE JUMPI MLOAD PUSH0 PUSH3 0x23E JUMP JUMPDEST RETURNDATASIZE SWAP2 POP PUSH3 0x45C JUMP JUMPDEST POP PUSH1 0x20 DUP2 RETURNDATASIZE PUSH1 0x20 GT PUSH3 0x4B7 JUMPI JUMPDEST DUP2 PUSH3 0x4A2 PUSH1 0x20 SWAP4 DUP4 PUSH3 0x30DF JUMP JUMPDEST DUP2 ADD SUB SLT PUSH3 0x3DE JUMPI PUSH3 0x218 SWAP1 MLOAD PUSH3 0x20B JUMP JUMPDEST RETURNDATASIZE SWAP2 POP PUSH3 0x493 JUMP JUMPDEST PUSH1 0x40 MLOAD RETURNDATASIZE DUP13 DUP3 RETURNDATACOPY RETURNDATASIZE SWAP1 REVERT JUMPDEST PUSH3 0x4F3 SWAP2 SWAP6 POP PUSH1 0x40 RETURNDATASIZE PUSH1 0x40 GT PUSH3 0x4FC JUMPI JUMPDEST PUSH3 0x4EA DUP2 DUP4 PUSH3 0x30DF JUMP JUMPDEST DUP2 ADD SWAP1 PUSH3 0x31E1 JUMP JUMPDEST POP SWAP4 PUSH0 PUSH3 0x16A JUMP JUMPDEST POP RETURNDATASIZE PUSH3 0x4DE JUMP JUMPDEST PUSH1 0x40 MLOAD PUSH4 0x200BC9B5 PUSH1 0xE1 SHL DUP2 MSTORE SWAP1 SWAP5 POP PUSH1 0x20 DUP2 PUSH1 0x4 DUP2 DUP10 GAS STATICCALL SWAP1 DUP2 ISZERO PUSH3 0x575 JUMPI DUP5 SWAP2 PUSH3 0x53A JUMPI JUMPDEST POP PUSH1 0x1 DUP6 ADD SGT SWAP4 PUSH3 0x13A JUMP JUMPDEST SWAP4 POP POP PUSH1 0x20 DUP4 RETURNDATASIZE PUSH1 0x20 GT PUSH3 0x56C JUMPI JUMPDEST DUP2 PUSH3 0x559 PUSH1 0x20 SWAP4 DUP4 PUSH3 0x30DF JUMP JUMPDEST DUP2 ADD SUB SLT PUSH3 0x3DE JUMPI DUP6 SWAP3 MLOAD PUSH0 PUSH3 0x52D JUMP JUMPDEST RETURNDATASIZE SWAP2 POP PUSH3 0x54A JUMP JUMPDEST PUSH1 0x40 MLOAD RETURNDATASIZE DUP7 DUP3 RETURNDATACOPY RETURNDATASIZE SWAP1 REVERT JUMPDEST SWAP5 POP SWAP1 POP PUSH1 0x20 DUP5 RETURNDATASIZE PUSH1 0x20 GT PUSH3 0x5B4 JUMPI JUMPDEST DUP2 PUSH3 0x5A0 PUSH1 0x20 SWAP4 DUP4 PUSH3 0x30DF JUMP JUMPDEST DUP2 ADD SUB SLT PUSH3 0x3DE JUMPI DUP7 SWAP4 MLOAD SWAP1 PUSH0 PUSH3 0x12F JUMP JUMPDEST RETURNDATASIZE SWAP2 POP PUSH3 0x591 JUMP JUMPDEST PUSH4 0x4E487B71 PUSH1 0xE0 SHL DUP4 MSTORE PUSH1 0x11 PUSH1 0x4 MSTORE PUSH1 0x24 DUP4 REVERT JUMPDEST DUP1 REVERT JUMPDEST POP CALLVALUE PUSH3 0x5D1 JUMPI PUSH1 0x40 CALLDATASIZE PUSH1 0x3 NOT ADD SLT PUSH3 0x3DE JUMPI PUSH3 0x5F8 PUSH1 0xB SLOAD PUSH1 0x4 CALLDATALOAD PUSH3 0x3116 JUMP JUMPDEST PUSH1 0x6 SLOAD PUSH1 0x40 MLOAD PUSH4 0x70A08231 PUSH1 0xE0 SHL DUP2 MSTORE ADDRESS PUSH1 0x4 DUP3 ADD MSTORE SWAP2 SWAP1 PUSH1 0x1 PUSH1 0x1 PUSH1 0xA0 SHL SUB AND PUSH1 0x20 DUP4 PUSH1 0x24 DUP2 DUP5 GAS STATICCALL SWAP3 DUP4 ISZERO PUSH3 0x575 JUMPI DUP5 SWAP4 PUSH3 0xBF5 JUMPI JUMPDEST POP DUP4 SLOAD PUSH1 0x40 MLOAD PUSH4 0x95EA7B3 PUSH1 0xE0 SHL DUP2 MSTORE PUSH1 0x1 PUSH1 0x1 PUSH1 0xA0 SHL SUB SWAP1 SWAP2 AND PUSH1 0x4 DUP3 ADD MSTORE PUSH1 0x24 DUP2 ADD DUP5 SWAP1 MSTORE SWAP1 PUSH1 0x20 SWAP1 DUP3 SWAP1 PUSH1 0x44 SWAP1 DUP3 SWAP1 DUP9 SWAP1 GAS CALL DUP1 ISZERO PUSH3 0x575 JUMPI PUSH3 0xBBF JUMPI JUMPDEST POP DUP3 SLOAD PUSH1 0x40 MLOAD PUSH3 0x7C6DA1 PUSH1 0xE2 SHL DUP2 MSTORE PUSH1 0x4 DUP2 ADD SWAP3 SWAP1 SWAP3 MSTORE PUSH1 0x1 PUSH1 0x1 PUSH1 0xA0 SHL SUB AND SWAP1 DUP4 SWAP1 PUSH1 0x20 DUP2 PUSH1 0x24 DUP2 DUP7 GAS STATICCALL SWAP1 DUP2 ISZERO PUSH3 0xBB4 JUMPI DUP3 SWAP2 PUSH3 0xB7E JUMPI JUMPDEST POP PUSH1 0x1 PUSH1 0x1 PUSH1 0xA0 SHL SUB AND SWAP3 PUSH3 0x6C7 DUP5 PUSH3 0x34EB JUMP JUMPDEST SWAP3 PUSH3 0x6D2 PUSH3 0x32A6 JUMP JUMPDEST DUP1 MLOAD SWAP2 PUSH1 0x40 MLOAD SWAP4 PUSH4 0x198804FD PUSH1 0xE2 SHL DUP6 MSTORE PUSH1 0x20 DUP6 PUSH1 0x4 DUP2 DUP6 GAS STATICCALL SWAP5 DUP6 ISZERO PUSH3 0xB73 JUMPI DUP7 SWAP6 PUSH3 0xB33 JUMPI JUMPDEST POP PUSH1 0x40 MLOAD PUSH4 0x44719EE9 PUSH1 0xE0 SHL DUP2 MSTORE PUSH1 0x1 PUSH1 0x1 PUSH1 0xA0 SHL SUB DUP10 AND PUSH1 0x4 DUP3 ADD MSTORE PUSH1 0x24 DUP1 CALLDATALOAD SWAP1 DUP3 ADD MSTORE PUSH1 0x44 DUP2 ADD SWAP2 SWAP1 SWAP2 MSTORE SWAP5 PUSH1 0x60 SWAP2 DUP7 SWAP2 PUSH1 0x64 SWAP2 DUP4 SWAP2 SWAP1 GAS CALL DUP1 DUP9 SWAP6 DUP10 SWAP3 PUSH3 0xAF8 JUMPI JUMPDEST POP PUSH3 0x773 JUMPI POP POP POP POP POP POP POP PUSH3 0x75C PUSH1 0xC SLOAD PUSH3 0x3162 JUMP JUMPDEST PUSH1 0xC SSTORE JUMPDEST PUSH3 0x770 PUSH1 0x4B PUSH1 0xC SLOAD LT PUSH3 0x3206 JUMP JUMPDEST DUP1 RETURN JUMPDEST PUSH3 0x788 PUSH3 0x781 PUSH3 0x32A6 JUMP JUMPDEST SWAP8 PUSH3 0x34EB JUMP JUMPDEST SWAP7 PUSH1 0x24 CALLDATALOAD PUSH8 0xDE0B6B3A7640000 PUSH1 0x24 CALLDATALOAD MUL DIV PUSH8 0xDE0B6B3A7640000 EQ PUSH1 0x24 CALLDATALOAD ISZERO OR ISZERO PUSH3 0xAE4 JUMPI PUSH3 0x7F0 PUSH3 0x7CF PUSH1 0x20 DUP10 ADD MLOAD PUSH8 0xDE0B6B3A7640000 PUSH1 0x24 CALLDATALOAD MUL PUSH3 0x31D6 JUMP JUMPDEST PUSH8 0xDE0B6B3A7640000 PUSH3 0x7E8 PUSH1 0x20 DUP8 ADD MLOAD DUP7 PUSH3 0x31A8 JUMP JUMPDEST DIV SWAP1 PUSH3 0x319A JUMP JUMPDEST DUP10 SLOAD PUSH1 0x40 MLOAD PUSH4 0x1E7E6A47 PUSH1 0xE2 SHL DUP2 MSTORE PUSH1 0x1 PUSH1 0x1 PUSH1 0xA0 SHL SUB SWAP1 SWAP2 AND SWAP8 SWAP1 PUSH1 0x20 DUP2 PUSH1 0x4 DUP2 DUP13 GAS STATICCALL DUP1 ISZERO PUSH3 0xAD9 JUMPI DUP13 SWAP1 PUSH3 0xA9E JUMPI JUMPDEST PUSH3 0x831 SWAP2 POP DUP4 PUSH3 0x31A8 JUMP JUMPDEST PUSH1 0x40 MLOAD PUSH4 0x278793F7 PUSH1 0xE1 SHL DUP2 MSTORE PUSH1 0x20 DUP2 PUSH1 0x4 DUP2 DUP14 GAS STATICCALL SWAP1 DUP2 ISZERO PUSH3 0xA5B JUMPI DUP14 SWAP2 PUSH3 0xA66 JUMPI JUMPDEST POP PUSH8 0xDE0B6B3A7640000 DUP2 DUP2 SUB GT PUSH3 0xA0F JUMPI PUSH15 0xC097CE7BC90715B34B9F1000000000 SWAP2 PUSH3 0x891 SWAP2 PUSH8 0xDE0B6B3A7640000 SUB SWAP1 PUSH3 0x31A8 JUMP JUMPDEST DIV SWAP2 PUSH1 0x40 MLOAD PUSH4 0x1E7E6A47 PUSH1 0xE2 SHL DUP2 MSTORE PUSH1 0x20 DUP2 PUSH1 0x4 DUP2 DUP14 GAS STATICCALL SWAP1 DUP2 ISZERO PUSH3 0xA5B JUMPI DUP14 SWAP2 PUSH3 0xA23 JUMPI JUMPDEST POP PUSH8 0xDE0B6B3A7640000 ADD SWAP1 DUP2 PUSH8 0xDE0B6B3A7640000 GT PUSH3 0xA0F JUMPI SWAP4 PUSH3 0x93C PUSH1 0x1 PUSH3 0x303 DUP10 SWAP9 SWAP7 PUSH3 0x927 PUSH3 0x947 SWAP12 PUSH3 0x320 PUSH1 0x80 SWAP10 PUSH3 0x918 PUSH1 0x64 PUSH3 0x303 PUSH3 0x320 SWAP16 PUSH3 0x2FB DUP16 SWAP15 PUSH8 0xDE0B6B3A7640000 SWAP3 PUSH3 0x31A8 JUMP JUMPDEST PUSH1 0x40 DUP1 DUP11 ADD MLOAD SWAP4 ADD MLOAD PUSH3 0x31F8 JUMP JUMPDEST PUSH3 0x33C PUSH1 0x60 DUP7 ADD MLOAD PUSH1 0x60 DUP13 ADD MLOAD SWAP1 PUSH3 0x31F8 JUMP JUMPDEST ADD MLOAD SWAP4 ADD MLOAD PUSH3 0x319A JUMP JUMPDEST PUSH3 0x962 PUSH1 0x80 DUP7 ADD MLOAD PUSH3 0x320 PUSH1 0x24 CALLDATALOAD PUSH1 0x80 DUP9 ADD MLOAD PUSH3 0x319A JUMP JUMPDEST LT ISZERO PUSH3 0x98D JUMPI POP PUSH3 0x97F PUSH3 0x987 SWAP3 MLOAD PUSH0 NOT SWAP3 MLOAD SWAP1 PUSH3 0x325F JUMP JUMPDEST SLT ISZERO PUSH3 0x3206 JUMP JUMPDEST PUSH3 0x760 JUMP JUMPDEST SWAP1 POP PUSH1 0x20 PUSH1 0x4 SWAP3 MLOAD SWAP2 PUSH1 0x40 MLOAD SWAP4 DUP5 DUP1 SWAP3 PUSH4 0x198804FD PUSH1 0xE2 SHL DUP3 MSTORE GAS STATICCALL SWAP1 DUP2 ISZERO PUSH3 0xA04 JUMPI DUP4 SWAP2 PUSH3 0x9C7 JUMPI JUMPDEST PUSH3 0x987 SWAP3 POP LT ISZERO PUSH3 0x3206 JUMP JUMPDEST SWAP1 POP PUSH1 0x20 DUP3 RETURNDATASIZE PUSH1 0x20 GT PUSH3 0x9FB JUMPI JUMPDEST DUP2 PUSH3 0x9E5 PUSH1 0x20 SWAP4 DUP4 PUSH3 0x30DF JUMP JUMPDEST DUP2 ADD SUB SLT PUSH3 0x3DE JUMPI PUSH3 0x987 SWAP2 MLOAD SWAP1 PUSH3 0x9B9 JUMP JUMPDEST RETURNDATASIZE SWAP2 POP PUSH3 0x9D6 JUMP JUMPDEST PUSH1 0x40 MLOAD RETURNDATASIZE DUP6 DUP3 RETURNDATACOPY RETURNDATASIZE SWAP1 REVERT JUMPDEST PUSH4 0x4E487B71 PUSH1 0xE0 SHL DUP14 MSTORE PUSH1 0x11 PUSH1 0x4 MSTORE PUSH1 0x24 DUP14 REVERT JUMPDEST SWAP1 POP PUSH1 0x20 DUP2 RETURNDATASIZE PUSH1 0x20 GT PUSH3 0xA52 JUMPI JUMPDEST DUP2 PUSH3 0xA41 PUSH1 0x20 SWAP4 DUP4 PUSH3 0x30DF JUMP JUMPDEST DUP2 ADD SUB SLT PUSH3 0x3DE JUMPI MLOAD PUSH0 PUSH3 0x8B9 JUMP JUMPDEST RETURNDATASIZE SWAP2 POP PUSH3 0xA32 JUMP JUMPDEST PUSH1 0x40 MLOAD RETURNDATASIZE DUP16 DUP3 RETURNDATACOPY RETURNDATASIZE SWAP1 REVERT JUMPDEST SWAP1 POP PUSH1 0x20 DUP2 RETURNDATASIZE PUSH1 0x20 GT PUSH3 0xA95 JUMPI JUMPDEST DUP2 PUSH3 0xA84 PUSH1 0x20 SWAP4 DUP4 PUSH3 0x30DF JUMP JUMPDEST DUP2 ADD SUB SLT PUSH3 0x3DE JUMPI MLOAD PUSH0 PUSH3 0x857 JUMP JUMPDEST RETURNDATASIZE SWAP2 POP PUSH3 0xA75 JUMP JUMPDEST POP PUSH1 0x20 DUP2 RETURNDATASIZE PUSH1 0x20 GT PUSH3 0xAD0 JUMPI JUMPDEST DUP2 PUSH3 0xABB PUSH1 0x20 SWAP4 DUP4 PUSH3 0x30DF JUMP JUMPDEST DUP2 ADD SUB SLT PUSH3 0x3DE JUMPI PUSH3 0x831 SWAP1 MLOAD PUSH3 0x824 JUMP JUMPDEST RETURNDATASIZE SWAP2 POP PUSH3 0xAAC JUMP JUMPDEST PUSH1 0x40 MLOAD RETURNDATASIZE DUP15 DUP3 RETURNDATACOPY RETURNDATASIZE SWAP1 REVERT JUMPDEST PUSH4 0x4E487B71 PUSH1 0xE0 SHL DUP10 MSTORE PUSH1 0x11 PUSH1 0x4 MSTORE PUSH1 0x24 DUP10 REVERT JUMPDEST SWAP1 SWAP6 POP PUSH3 0xB21 SWAP2 POP PUSH1 0x60 RETURNDATASIZE DUP2 GT PUSH3 0xB2B JUMPI JUMPDEST PUSH3 0xB18 DUP2 DUP4 PUSH3 0x30DF JUMP JUMPDEST DUP2 ADD SWAP1 PUSH3 0x3243 JUMP JUMPDEST POP SWAP1 SWAP5 PUSH0 PUSH3 0x742 JUMP JUMPDEST POP RETURNDATASIZE PUSH3 0xB0C JUMP JUMPDEST SWAP6 POP SWAP4 POP PUSH1 0x20 DUP6 RETURNDATASIZE PUSH1 0x20 GT PUSH3 0xB6A JUMPI JUMPDEST DUP2 PUSH3 0xB53 PUSH1 0x20 SWAP4 DUP4 PUSH3 0x30DF JUMP JUMPDEST DUP2 ADD SUB SLT PUSH3 0x3DE JUMPI SWAP4 MLOAD DUP8 SWAP5 SWAP1 SWAP4 PUSH1 0x60 PUSH3 0x6FC JUMP JUMPDEST RETURNDATASIZE SWAP2 POP PUSH3 0xB44 JUMP JUMPDEST PUSH1 0x40 MLOAD RETURNDATASIZE DUP9 DUP3 RETURNDATACOPY RETURNDATASIZE SWAP1 REVERT JUMPDEST PUSH3 0xBA5 SWAP2 POP PUSH1 0x20 RETURNDATASIZE PUSH1 0x20 GT PUSH3 0xBAC JUMPI JUMPDEST PUSH3 0xB9C DUP2 DUP4 PUSH3 0x30DF JUMP JUMPDEST DUP2 ADD SWAP1 PUSH3 0x3222 JUMP JUMPDEST PUSH0 PUSH3 0x6B1 JUMP JUMPDEST POP RETURNDATASIZE PUSH3 0xB90 JUMP JUMPDEST PUSH1 0x40 MLOAD RETURNDATASIZE DUP5 DUP3 RETURNDATACOPY RETURNDATASIZE SWAP1 REVERT JUMPDEST PUSH3 0xBE5 SWAP1 PUSH1 0x20 RETURNDATASIZE PUSH1 0x20 GT PUSH3 0xBED JUMPI JUMPDEST PUSH3 0xBDC DUP2 DUP4 PUSH3 0x30DF JUMP JUMPDEST DUP2 ADD SWAP1 PUSH3 0x31BC JUMP JUMPDEST POP PUSH0 PUSH3 0x675 JUMP JUMPDEST POP RETURNDATASIZE PUSH3 0xBD0 JUMP JUMPDEST SWAP1 SWAP3 POP PUSH1 0x20 DUP2 RETURNDATASIZE PUSH1 0x20 GT PUSH3 0xC27 JUMPI JUMPDEST DUP2 PUSH3 0xC14 PUSH1 0x20 SWAP4 DUP4 PUSH3 0x30DF JUMP JUMPDEST DUP2 ADD SUB SLT PUSH3 0x3DE JUMPI MLOAD SWAP2 PUSH1 0x20 PUSH3 0x632 JUMP JUMPDEST RETURNDATASIZE SWAP2 POP PUSH3 0xC05 JUMP JUMPDEST POP CALLVALUE PUSH3 0x5D1 JUMPI PUSH1 0x20 CALLDATASIZE PUSH1 0x3 NOT ADD SLT PUSH3 0x5D1 JUMPI PUSH1 0x4 CALLDATALOAD PUSH3 0xC51 PUSH3 0x32A6 JUMP JUMPDEST PUSH8 0xDE0B6B3A7640000 PUSH3 0xC6A PUSH1 0x20 DUP4 ADD MLOAD DUP5 PUSH3 0x31A8 JUMP JUMPDEST DIV SWAP2 PUSH0 NOT DUP4 ADD SWAP3 DUP4 GT PUSH3 0xE0E JUMPI PUSH1 0x6 SLOAD DUP5 SLOAD PUSH1 0x40 MLOAD PUSH4 0x39509351 PUSH1 0xE0 SHL DUP2 MSTORE PUSH1 0x1 PUSH1 0x1 PUSH1 0xA0 SHL SUB SWAP2 DUP3 AND PUSH1 0x4 DUP3 ADD MSTORE PUSH1 0x24 DUP2 ADD DUP7 SWAP1 MSTORE SWAP1 SWAP5 DUP7 SWAP3 PUSH1 0x20 SWAP1 DUP4 SWAP1 PUSH1 0x44 SWAP1 DUP3 SWAP1 DUP8 SWAP1 DUP12 AND GAS CALL SWAP2 DUP3 ISZERO PUSH3 0xA04 JUMPI PUSH1 0x40 SWAP3 PUSH3 0xDEB JUMPI JUMPDEST POP PUSH1 0x44 DUP7 DUP5 SLOAD AND SWAP2 DUP4 MLOAD SWAP5 DUP6 SWAP4 DUP5 SWAP3 PUSH4 0x176FEC1 PUSH1 0xE3 SHL DUP5 MSTORE DUP9 PUSH1 0x4 DUP6 ADD MSTORE PUSH1 0x24 DUP5 ADD MSTORE GAS CALL SWAP1 DUP2 PUSH3 0xDC8 JUMPI JUMPDEST POP PUSH3 0xDB4 JUMPI DUP4 SWAP1 PUSH1 0x80 DUP4 ADD SWAP4 DUP2 DUP6 MLOAD LT PUSH3 0xD3E JUMPI JUMPDEST DUP3 PUSH3 0x770 DUP7 PUSH1 0x80 DUP8 PUSH3 0xD33 PUSH3 0xD22 PUSH3 0x32A6 JUMP JUMPDEST SWAP2 PUSH1 0x40 DUP1 DUP5 ADD MLOAD SWAP2 ADD MLOAD EQ PUSH3 0x3206 JUMP JUMPDEST ADD MLOAD SWAP1 MLOAD EQ PUSH3 0x3206 JUMP JUMPDEST SWAP1 PUSH1 0x44 PUSH1 0x40 SWAP3 DUP5 SLOAD AND SWAP2 DUP4 MLOAD SWAP5 DUP6 SWAP4 DUP5 SWAP3 PUSH4 0x9ABB14C9 PUSH1 0xE0 SHL DUP5 MSTORE PUSH1 0x4 DUP5 ADD MSTORE DUP2 PUSH1 0x24 DUP5 ADD MSTORE GAS CALL SWAP1 DUP2 PUSH3 0xD91 JUMPI JUMPDEST POP PUSH3 0xD7D JUMPI DUP3 PUSH0 DUP1 PUSH3 0xD0B JUMP JUMPDEST PUSH4 0x4E487B71 PUSH1 0xE0 SHL DUP4 MSTORE PUSH1 0x1 PUSH1 0x4 MSTORE PUSH1 0x24 DUP4 REVERT JUMPDEST PUSH3 0xDAD SWAP1 PUSH1 0x40 RETURNDATASIZE PUSH1 0x40 GT PUSH3 0x4FC JUMPI PUSH3 0x4EA DUP2 DUP4 PUSH3 0x30DF JUMP JUMPDEST POP PUSH3 0xD6E JUMP JUMPDEST PUSH4 0x4E487B71 PUSH1 0xE0 SHL DUP5 MSTORE PUSH1 0x1 PUSH1 0x4 MSTORE PUSH1 0x24 DUP5 REVERT JUMPDEST PUSH3 0xDE4 SWAP1 PUSH1 0x40 RETURNDATASIZE PUSH1 0x40 GT PUSH3 0x4FC JUMPI PUSH3 0x4EA DUP2 DUP4 PUSH3 0x30DF JUMP JUMPDEST POP PUSH3 0xCF4 JUMP JUMPDEST PUSH3 0xE06 SWAP1 PUSH1 0x20 RETURNDATASIZE DUP2 GT PUSH3 0xBED JUMPI PUSH3 0xBDC DUP2 DUP4 PUSH3 0x30DF JUMP JUMPDEST POP PUSH0 PUSH3 0xCC6 JUMP JUMPDEST PUSH4 0x4E487B71 PUSH1 0xE0 SHL DUP5 MSTORE PUSH1 0x11 PUSH1 0x4 MSTORE PUSH1 0x24 DUP5 REVERT JUMPDEST POP CALLVALUE PUSH3 0x5D1 JUMPI DUP1 PUSH1 0x3 NOT CALLDATASIZE ADD SLT PUSH3 0x5D1 JUMPI DUP1 SLOAD PUSH1 0x1 PUSH1 0x1 PUSH1 0xA0 SHL SUB SWAP1 DUP3 SWAP1 DUP3 AND DUP1 EXTCODESIZE ISZERO PUSH3 0x11B3 JUMPI DUP2 DUP1 SWAP2 PUSH1 0x4 PUSH1 0x40 MLOAD DUP1 SWAP5 DUP2 SWAP4 PUSH4 0x388F04D7 PUSH1 0xE2 SHL DUP4 MSTORE GAS CALL DUP1 ISZERO PUSH3 0xBB4 JUMPI PUSH3 0x119A JUMPI JUMPDEST POP POP DUP1 PUSH1 0x6 SLOAD AND DUP2 DUP4 SLOAD AND SWAP3 PUSH1 0x40 MLOAD SWAP4 DUP5 DUP1 SWAP4 PUSH4 0x70A08231 PUSH1 0xE0 SHL DUP3 MSTORE DUP3 PUSH1 0x4 DUP4 ADD MSTORE PUSH1 0x20 SWAP7 DUP8 SWAP2 PUSH1 0x24 SWAP7 DUP8 SWAP2 GAS STATICCALL SWAP1 DUP2 ISZERO PUSH3 0xA04 JUMPI DUP4 SWAP2 PUSH3 0x1167 JUMPI JUMPDEST POP PUSH1 0x40 MLOAD PUSH4 0x3CC2D585 PUSH1 0xE2 SHL DUP2 MSTORE SWAP1 DUP7 DUP3 PUSH1 0x4 DUP2 DUP7 GAS STATICCALL SWAP2 DUP3 ISZERO PUSH3 0x575 JUMPI DUP5 SWAP3 PUSH3 0x1132 JUMPI JUMPDEST POP EQ SWAP4 DUP1 PUSH1 0x5 SLOAD AND PUSH1 0x40 MLOAD SWAP3 DUP8 DUP5 PUSH1 0x4 DUP2 PUSH4 0x18160DDD PUSH1 0xE0 SHL SWAP6 DUP7 DUP3 MSTORE GAS STATICCALL SWAP4 DUP5 ISZERO PUSH3 0x3EB JUMPI DUP6 SWAP5 PUSH3 0x10FD JUMPI JUMPDEST POP PUSH1 0x40 MLOAD PUSH4 0x7A193C31 PUSH1 0xE0 SHL DUP2 MSTORE SWAP5 DUP9 DUP7 PUSH1 0x4 DUP2 DUP6 GAS STATICCALL SWAP6 DUP7 ISZERO PUSH3 0x10F0 JUMPI DUP2 SWAP7 PUSH3 0x10BB JUMPI JUMPDEST POP SWAP6 SWAP3 SWAP2 SWAP1 PUSH1 0x1 SWAP7 DUP1 SWAP5 PUSH1 0xB SLOAD SWAP4 JUMPDEST DUP5 DUP8 LT PUSH3 0xF7A JUMPI POP POP POP POP POP POP POP DUP4 PUSH3 0xF6F JUMPI JUMPDEST POP POP DUP2 PUSH3 0xF66 JUMPI JUMPDEST POP PUSH1 0x40 MLOAD SWAP1 ISZERO ISZERO DUP2 MSTORE RETURN JUMPDEST SWAP1 POP PUSH0 PUSH3 0xF5B JUMP JUMPDEST EQ SWAP2 POP PUSH0 DUP1 PUSH3 0xF52 JUMP JUMPDEST SWAP1 SWAP2 SWAP3 SWAP4 SWAP5 SWAP6 SWAP9 PUSH1 0x40 MLOAD SWAP1 PUSH4 0x4B746001 PUSH1 0xE0 SHL DUP3 MSTORE DUP11 PUSH1 0x4 DUP4 ADD MSTORE PUSH1 0x40 DUP3 DUP6 DUP2 DUP10 GAS STATICCALL SWAP2 DUP3 ISZERO PUSH3 0x3EB JUMPI DUP6 SWAP3 PUSH3 0x1082 JUMPI JUMPDEST POP DUP1 PUSH3 0xFCE JUMPI JUMPDEST PUSH3 0xFC2 SWAP2 POP SWAP10 PUSH3 0x3162 JUMP JUMPDEST SWAP6 SWAP5 SWAP4 SWAP3 SWAP2 SWAP1 PUSH3 0xF3C JUMP JUMPDEST POP PUSH1 0x40 MLOAD PUSH3 0x7C6DA1 PUSH1 0xE2 SHL DUP2 MSTORE PUSH1 0x4 DUP2 ADD DUP12 SWAP1 MSTORE DUP13 DUP2 DUP6 DUP2 DUP10 GAS STATICCALL SWAP1 DUP2 ISZERO PUSH3 0x3EB JUMPI DUP9 SWAP3 SWAP2 DUP15 SWAP2 DUP8 SWAP2 PUSH3 0x1060 JUMPI JUMPDEST POP PUSH1 0x4 PUSH1 0x40 MLOAD DUP1 SWAP6 DUP2 SWAP4 DUP9 DUP4 MSTORE AND GAS STATICCALL DUP1 ISZERO PUSH3 0x3EB JUMPI DUP6 SWAP1 PUSH3 0x102A JUMPI JUMPDEST PUSH3 0xFC2 SWAP3 POP EQ PUSH3 0xFB5 JUMP JUMPDEST POP DUP13 DUP3 DUP2 RETURNDATASIZE DUP4 GT PUSH3 0x1058 JUMPI JUMPDEST PUSH3 0x1043 DUP2 DUP4 PUSH3 0x30DF JUMP JUMPDEST DUP2 ADD SUB SLT PUSH3 0x3DE JUMPI PUSH3 0xFC2 SWAP2 MLOAD PUSH3 0x101D JUMP JUMPDEST POP RETURNDATASIZE PUSH3 0x1037 JUMP JUMPDEST PUSH3 0x107B SWAP2 POP DUP3 RETURNDATASIZE DUP5 GT PUSH3 0xBAC JUMPI PUSH3 0xB9C DUP2 DUP4 PUSH3 0x30DF JUMP JUMPDEST PUSH0 PUSH3 0xFFE JUMP JUMPDEST PUSH3 0x10AA SWAP2 SWAP3 POP PUSH1 0x40 RETURNDATASIZE PUSH1 0x40 GT PUSH3 0x10B3 JUMPI JUMPDEST PUSH3 0x10A1 DUP2 DUP4 PUSH3 0x30DF JUMP JUMPDEST DUP2 ADD SWAP1 PUSH3 0x3171 JUMP JUMPDEST POP SWAP1 PUSH0 PUSH3 0xFAD JUMP JUMPDEST POP RETURNDATASIZE PUSH3 0x1095 JUMP JUMPDEST SWAP1 SWAP6 POP DUP9 DUP2 DUP2 RETURNDATASIZE DUP4 GT PUSH3 0x10E8 JUMPI JUMPDEST PUSH3 0x10D6 DUP2 DUP4 PUSH3 0x30DF JUMP JUMPDEST DUP2 ADD SUB SLT PUSH3 0x3DE JUMPI MLOAD SWAP5 PUSH0 PUSH3 0xF2D JUMP JUMPDEST POP RETURNDATASIZE PUSH3 0x10CA JUMP JUMPDEST POP PUSH1 0x40 MLOAD SWAP1 RETURNDATASIZE SWAP1 DUP3 RETURNDATACOPY RETURNDATASIZE SWAP1 REVERT JUMPDEST SWAP1 SWAP4 POP DUP8 DUP2 DUP2 RETURNDATASIZE DUP4 GT PUSH3 0x112A JUMPI JUMPDEST PUSH3 0x1118 DUP2 DUP4 PUSH3 0x30DF JUMP JUMPDEST DUP2 ADD SUB SLT PUSH3 0x3DE JUMPI MLOAD SWAP3 PUSH0 PUSH3 0xF06 JUMP JUMPDEST POP RETURNDATASIZE PUSH3 0x110C JUMP JUMPDEST SWAP1 SWAP2 POP DUP7 DUP2 DUP2 RETURNDATASIZE DUP4 GT PUSH3 0x115F JUMPI JUMPDEST PUSH3 0x114D DUP2 DUP4 PUSH3 0x30DF JUMP JUMPDEST DUP2 ADD SUB SLT PUSH3 0x3DE JUMPI MLOAD SWAP1 PUSH0 PUSH3 0xED7 JUMP JUMPDEST POP RETURNDATASIZE PUSH3 0x1141 JUMP JUMPDEST SWAP1 POP DUP6 DUP2 DUP2 RETURNDATASIZE DUP4 GT PUSH3 0x1192 JUMPI JUMPDEST PUSH3 0x1181 DUP2 DUP4 PUSH3 0x30DF JUMP JUMPDEST DUP2 ADD SUB SLT PUSH3 0x3DE JUMPI MLOAD PUSH0 PUSH3 0xEB0 JUMP JUMPDEST POP RETURNDATASIZE PUSH3 0x1175 JUMP JUMPDEST DUP2 PUSH3 0x11A6 SWAP2 PUSH3 0x30DF JUMP JUMPDEST PUSH3 0x11B3 JUMPI DUP2 PUSH0 PUSH3 0xE71 JUMP JUMPDEST POP DUP1 REVERT JUMPDEST POP CALLVALUE PUSH3 0x5D1 JUMPI PUSH1 0x40 CALLDATASIZE PUSH1 0x3 NOT ADD SLT PUSH3 0x3DE JUMPI PUSH3 0x11DB PUSH1 0xB SLOAD PUSH1 0x4 CALLDATALOAD PUSH3 0x3116 JUMP JUMPDEST DUP2 SLOAD PUSH1 0x40 MLOAD PUSH3 0x7C6DA1 PUSH1 0xE2 SHL DUP2 MSTORE PUSH1 0x4 DUP2 ADD SWAP3 SWAP1 SWAP3 MSTORE PUSH1 0x1 PUSH1 0x1 PUSH1 0xA0 SHL SUB AND SWAP1 PUSH1 0x20 DUP2 PUSH1 0x24 DUP2 DUP6 GAS STATICCALL SWAP1 DUP2 ISZERO PUSH3 0xA04 JUMPI DUP4 SWAP2 PUSH3 0x167E JUMPI JUMPDEST POP PUSH3 0x1229 PUSH1 0x1 PUSH1 0x1 PUSH1 0xA0 SHL SUB DUP3 AND PUSH3 0x34EB JUMP JUMPDEST SWAP2 PUSH1 0x80 DUP4 ADD MLOAD DUP1 PUSH3 0x1239 JUMPI DUP5 DUP1 RETURN JUMPDEST PUSH3 0x1247 SWAP1 PUSH1 0x24 CALLDATALOAD PUSH3 0x3116 JUMP JUMPDEST SWAP2 PUSH1 0x1 DUP4 ADD DUP4 GT PUSH3 0x166A JUMPI DUP5 SWAP1 DUP5 MLOAD SWAP5 PUSH1 0x40 MLOAD SWAP5 PUSH4 0x6B5488DF PUSH1 0xE0 SHL DUP7 MSTORE PUSH1 0x20 DUP7 PUSH1 0x4 DUP2 DUP9 GAS STATICCALL SWAP6 DUP7 ISZERO PUSH3 0x575 JUMPI DUP5 SWAP7 PUSH3 0x162D JUMPI JUMPDEST POP PUSH1 0x40 DUP1 MLOAD PUSH4 0x119AE24D PUSH1 0xE2 SHL DUP2 MSTORE PUSH1 0x1 PUSH1 0x1 PUSH1 0xA0 SHL SUB DUP6 AND PUSH1 0x4 DUP3 ADD MSTORE PUSH1 0x1 DUP4 ADD PUSH1 0x24 DUP3 ADD MSTORE PUSH1 0x44 DUP2 ADD DUP7 SWAP1 MSTORE SWAP5 SWAP6 DUP6 SWAP1 PUSH1 0x64 SWAP1 DUP3 SWAP1 DUP10 SWAP1 GAS CALL DUP9 SWAP5 DUP2 PUSH3 0x1606 JUMPI JUMPDEST POP PUSH3 0x1314 JUMPI POP POP POP POP POP PUSH1 0x1 SWAP2 PUSH3 0x12DE PUSH1 0xC SLOAD PUSH3 0x3162 JUMP JUMPDEST PUSH1 0xC SSTORE JUMPDEST LT PUSH3 0x1302 JUMPI JUMPDEST POP PUSH3 0x12FA PUSH1 0x4B PUSH1 0xC SLOAD LT PUSH3 0x3206 JUMP JUMPDEST PUSH0 DUP1 DUP1 DUP1 DUP5 DUP1 RETURN JUMPDEST PUSH3 0x130D SWAP1 PUSH3 0x3206 JUMP JUMPDEST PUSH0 PUSH3 0x12E9 JUMP JUMPDEST SWAP4 SWAP6 SWAP4 PUSH3 0x132B PUSH1 0x1 PUSH1 0x1 PUSH1 0xA0 SHL SUB DUP5 AND PUSH3 0x34EB JUMP JUMPDEST SWAP3 PUSH8 0xDE0B6B3A7640000 PUSH1 0x1 DUP4 ADD MUL PUSH1 0x1 DUP4 ADD DUP2 DIV PUSH8 0xDE0B6B3A7640000 EQ PUSH1 0x1 DUP5 ADD ISZERO OR ISZERO PUSH3 0x15F2 JUMPI PUSH1 0x20 DUP5 ADD MLOAD PUSH3 0x1366 SWAP2 PUSH3 0x31D6 JUMP JUMPDEST DUP10 SLOAD PUSH1 0x40 MLOAD PUSH4 0xDDB6D19 PUSH1 0xE4 SHL DUP2 MSTORE PUSH1 0x1 PUSH1 0x1 PUSH1 0xA0 SHL SUB DUP5 DUP2 AND PUSH1 0x4 DUP4 ADD MSTORE SWAP1 SWAP2 AND SWAP7 SWAP2 SWAP1 PUSH1 0x20 DUP2 PUSH1 0x24 DUP2 DUP12 GAS STATICCALL DUP1 ISZERO PUSH3 0xAD9 JUMPI DUP13 SWAP1 PUSH3 0x15B7 JUMPI JUMPDEST PUSH3 0x13B0 SWAP2 POP DUP3 PUSH3 0x31A8 JUMP JUMPDEST PUSH1 0x40 MLOAD PUSH4 0x278793F7 PUSH1 0xE1 SHL DUP2 MSTORE PUSH1 0x20 DUP2 PUSH1 0x4 DUP2 DUP13 GAS STATICCALL SWAP1 DUP2 ISZERO PUSH3 0xA5B JUMPI DUP14 SWAP2 PUSH3 0x157F JUMPI JUMPDEST POP PUSH8 0xDE0B6B3A7640000 DUP2 DUP2 SUB GT PUSH3 0xA0F JUMPI PUSH15 0xC097CE7BC90715B34B9F1000000000 SWAP2 PUSH3 0x1410 SWAP2 PUSH8 0xDE0B6B3A7640000 SUB SWAP1 PUSH3 0x31A8 JUMP JUMPDEST PUSH1 0x40 MLOAD PUSH4 0xDDB6D19 PUSH1 0xE4 SHL DUP2 MSTORE PUSH1 0x1 PUSH1 0x1 PUSH1 0xA0 SHL SUB SWAP1 SWAP6 AND PUSH1 0x4 DUP7 ADD MSTORE DIV SWAP3 PUSH1 0x20 DUP2 PUSH1 0x24 DUP2 DUP12 GAS STATICCALL SWAP1 DUP2 ISZERO PUSH3 0xAD9 JUMPI DUP13 SWAP2 PUSH3 0x1547 JUMPI JUMPDEST POP PUSH8 0xDE0B6B3A7640000 SUB SWAP1 PUSH8 0xDE0B6B3A7640000 DUP3 GT PUSH3 0x1533 JUMPI SWAP4 PUSH3 0x342 PUSH1 0x1 PUSH3 0x303 PUSH3 0x14AF SWAP7 PUSH3 0x327 PUSH1 0x20 SWAP11 SWAP8 PUSH3 0x30B DUP6 PUSH1 0x4 SWAP16 SWAP15 SWAP13 PUSH8 0xDE0B6B3A7640000 PUSH3 0x2FB PUSH3 0x14A3 SWAP13 PUSH3 0x303 SWAP4 PUSH3 0x31A8 JUMP JUMPDEST DUP3 MLOAD SWAP1 MLOAD GT ISZERO PUSH3 0x3206 JUMP JUMPDEST MLOAD SWAP2 PUSH1 0x40 MLOAD SWAP4 DUP5 DUP1 SWAP3 PUSH4 0x6B5488DF PUSH1 0xE0 SHL DUP3 MSTORE GAS STATICCALL SWAP1 DUP2 ISZERO PUSH3 0xB73 JUMPI DUP7 SWAP2 PUSH3 0x14F6 JUMPI JUMPDEST PUSH3 0x14E2 SWAP3 POP LT ISZERO PUSH3 0x3206 JUMP JUMPDEST PUSH3 0x14F0 DUP3 DUP3 LT ISZERO PUSH3 0x3206 JUMP JUMPDEST PUSH3 0x12E2 JUMP JUMPDEST SWAP1 POP PUSH1 0x20 DUP3 RETURNDATASIZE PUSH1 0x20 GT PUSH3 0x152A JUMPI JUMPDEST DUP2 PUSH3 0x1514 PUSH1 0x20 SWAP4 DUP4 PUSH3 0x30DF JUMP JUMPDEST DUP2 ADD SUB SLT PUSH3 0x3DE JUMPI PUSH3 0x14E2 SWAP2 MLOAD SWAP1 PUSH3 0x14D4 JUMP JUMPDEST RETURNDATASIZE SWAP2 POP PUSH3 0x1505 JUMP JUMPDEST PUSH4 0x4E487B71 PUSH1 0xE0 SHL DUP13 MSTORE PUSH1 0x11 PUSH1 0x4 MSTORE PUSH1 0x24 DUP13 REVERT JUMPDEST SWAP1 POP PUSH1 0x20 DUP2 RETURNDATASIZE PUSH1 0x20 GT PUSH3 0x1576 JUMPI JUMPDEST DUP2 PUSH3 0x1565 PUSH1 0x20 SWAP4 DUP4 PUSH3 0x30DF JUMP JUMPDEST DUP2 ADD SUB SLT PUSH3 0x3DE JUMPI MLOAD PUSH0 PUSH3 0x1448 JUMP JUMPDEST RETURNDATASIZE SWAP2 POP PUSH3 0x1556 JUMP JUMPDEST SWAP1 POP PUSH1 0x20 DUP2 RETURNDATASIZE PUSH1 0x20 GT PUSH3 0x15AE JUMPI JUMPDEST DUP2 PUSH3 0x159D PUSH1 0x20 SWAP4 DUP4 PUSH3 0x30DF JUMP JUMPDEST DUP2 ADD SUB SLT PUSH3 0x3DE JUMPI MLOAD PUSH0 PUSH3 0x13D6 JUMP JUMPDEST RETURNDATASIZE SWAP2 POP PUSH3 0x158E JUMP JUMPDEST POP PUSH1 0x20 DUP2 RETURNDATASIZE PUSH1 0x20 GT PUSH3 0x15E9 JUMPI JUMPDEST DUP2 PUSH3 0x15D4 PUSH1 0x20 SWAP4 DUP4 PUSH3 0x30DF JUMP JUMPDEST DUP2 ADD SUB SLT PUSH3 0x3DE JUMPI PUSH3 0x13B0 SWAP1 MLOAD PUSH3 0x13A3 JUMP JUMPDEST RETURNDATASIZE SWAP2 POP PUSH3 0x15C5 JUMP JUMPDEST PUSH4 0x4E487B71 PUSH1 0xE0 SHL DUP11 MSTORE PUSH1 0x11 PUSH1 0x4 MSTORE PUSH1 0x24 DUP11 REVERT JUMPDEST PUSH3 0x1624 SWAP2 SWAP6 POP PUSH1 0x40 RETURNDATASIZE PUSH1 0x40 GT PUSH3 0x4FC JUMPI PUSH3 0x4EA DUP2 DUP4 PUSH3 0x30DF JUMP JUMPDEST POP SWAP4 PUSH0 PUSH3 0x12C3 JUMP JUMPDEST SWAP4 POP SWAP5 POP PUSH1 0x20 DUP4 RETURNDATASIZE PUSH1 0x20 GT PUSH3 0x1661 JUMPI JUMPDEST DUP2 PUSH3 0x164D PUSH1 0x20 SWAP4 DUP4 PUSH3 0x30DF JUMP JUMPDEST DUP2 ADD SUB SLT PUSH3 0x3DE JUMPI DUP7 SWAP3 MLOAD SWAP5 PUSH0 PUSH3 0x127F JUMP JUMPDEST RETURNDATASIZE SWAP2 POP PUSH3 0x163E JUMP JUMPDEST PUSH4 0x4E487B71 PUSH1 0xE0 SHL DUP6 MSTORE PUSH1 0x11 PUSH1 0x4 MSTORE PUSH1 0x24 DUP6 REVERT JUMPDEST PUSH3 0x169B SWAP2 POP PUSH1 0x20 RETURNDATASIZE PUSH1 0x20 GT PUSH3 0xBAC JUMPI PUSH3 0xB9C DUP2 DUP4 PUSH3 0x30DF JUMP JUMPDEST PUSH0 PUSH3 0x1214 JUMP JUMPDEST POP CALLVALUE PUSH3 0x5D1 JUMPI DUP1 PUSH1 0x3 NOT CALLDATASIZE ADD SLT PUSH3 0x5D1 JUMPI DUP1 SLOAD PUSH1 0x40 MLOAD PUSH3 0xFD86ED PUSH1 0xE5 SHL DUP1 DUP3 MSTORE PUSH1 0x20 SWAP4 PUSH1 0x1 PUSH1 0x1 PUSH1 0xA0 SHL SUB SWAP4 DUP5 AND SWAP4 SWAP1 SWAP3 DUP6 SWAP3 SWAP2 SWAP1 DUP4 DUP2 PUSH1 0x4 DUP2 DUP10 GAS STATICCALL SWAP1 DUP2 PUSH3 0x1AFC JUMPI JUMPDEST POP PUSH3 0x1775 JUMPI POP POP PUSH1 0x40 MLOAD PUSH4 0x104DF9AB PUSH1 0xE3 SHL DUP2 MSTORE SWAP3 DUP4 SWAP1 PUSH1 0x4 SWAP1 DUP3 SWAP1 GAS STATICCALL SWAP1 DUP2 ISZERO PUSH3 0x1769 JUMPI SWAP1 PUSH3 0x172E JUMPI JUMPDEST PUSH8 0xDE0B6B3A7640000 SWAP2 POP LT JUMPDEST PUSH1 0x40 MLOAD SWAP1 ISZERO ISZERO DUP2 MSTORE RETURN JUMPDEST POP DUP2 DUP2 DUP2 RETURNDATASIZE DUP4 GT PUSH3 0x1761 JUMPI JUMPDEST PUSH3 0x1747 DUP2 DUP4 PUSH3 0x30DF JUMP JUMPDEST DUP2 ADD SUB SLT PUSH3 0x3DE JUMPI PUSH8 0xDE0B6B3A7640000 SWAP1 MLOAD PUSH3 0x1717 JUMP JUMPDEST POP RETURNDATASIZE PUSH3 0x173B JUMP JUMPDEST PUSH1 0x40 MLOAD SWAP1 RETURNDATASIZE SWAP1 DUP3 RETURNDATACOPY RETURNDATASIZE SWAP1 REVERT JUMPDEST DUP1 SWAP2 SWAP4 SWAP3 POP PUSH1 0x6 SLOAD AND SWAP4 PUSH1 0x40 MLOAD SWAP5 PUSH4 0x70A08231 PUSH1 0xE0 SHL SWAP6 DUP7 DUP2 MSTORE DUP3 PUSH1 0x4 DUP3 ADD MSTORE DUP8 DUP2 PUSH1 0x24 DUP2 DUP6 GAS STATICCALL SWAP1 DUP2 ISZERO PUSH3 0x3EB JUMPI DUP6 SWAP2 PUSH3 0x1AC9 JUMPI JUMPDEST POP PUSH1 0x40 MLOAD PUSH4 0x104DF9AB PUSH1 0xE3 SHL DUP1 DUP3 MSTORE SWAP2 DUP10 DUP3 PUSH1 0x4 DUP2 DUP9 GAS STATICCALL SWAP1 DUP2 ISZERO PUSH3 0x1ABE JUMPI DUP8 SWAP2 PUSH3 0x1A86 JUMPI JUMPDEST PUSH3 0x17E1 SWAP3 POP PUSH3 0x36E1 JUMP JUMPDEST SWAP6 SWAP1 SWAP5 PUSH1 0x5 SLOAD AND PUSH1 0x40 MLOAD SWAP5 PUSH4 0x18160DDD PUSH1 0xE0 SHL SWAP6 DUP7 DUP2 MSTORE DUP12 DUP2 PUSH1 0x4 DUP2 DUP7 GAS STATICCALL SWAP1 DUP2 ISZERO PUSH3 0x575 JUMPI DUP5 SWAP2 PUSH3 0x1A53 JUMPI JUMPDEST POP PUSH1 0x40 MLOAD SWAP1 DUP11 DUP3 MSTORE DUP13 DUP3 PUSH1 0x4 DUP2 DUP7 GAS STATICCALL SWAP1 DUP2 ISZERO PUSH3 0x3EB JUMPI DUP6 SWAP2 PUSH3 0x1A1B JUMPI JUMPDEST PUSH3 0x183C SWAP3 POP PUSH3 0x36E1 JUMP JUMPDEST SWAP10 SWAP1 SWAP7 DUP13 DUP10 ISZERO SWAP13 DUP14 DUP1 SWAP15 PUSH3 0x1A13 JUMPI JUMPDEST SWAP14 DUP1 PUSH3 0x1A0A JUMPI JUMPDEST PUSH3 0x188E JUMPI JUMPDEST POP POP POP POP POP POP POP POP POP DUP2 PUSH3 0x1885 JUMPI JUMPDEST POP PUSH3 0x1879 JUMPI JUMPDEST POP POP PUSH3 0x1724 JUMP JUMPDEST LT ISZERO SWAP1 POP PUSH0 DUP1 PUSH3 0x1871 JUMP JUMPDEST SWAP1 POP PUSH0 PUSH3 0x186A JUMP JUMPDEST SWAP1 SWAP2 SWAP3 SWAP4 SWAP5 SWAP6 SWAP7 SWAP8 SWAP9 SWAP13 POP PUSH1 0x24 PUSH1 0x40 MLOAD DUP1 SWAP11 DUP2 SWAP4 DUP3 MSTORE DUP8 PUSH1 0x4 DUP4 ADD MSTORE GAS STATICCALL SWAP7 DUP8 ISZERO PUSH3 0x3EB JUMPI DUP6 SWAP8 PUSH3 0x19D5 JUMPI JUMPDEST POP PUSH1 0x40 MLOAD SWAP6 DUP7 MSTORE DUP12 DUP7 PUSH1 0x4 DUP2 DUP7 GAS STATICCALL SWAP6 DUP7 ISZERO PUSH3 0x3EB JUMPI SWAP1 DUP13 SWAP2 DUP7 SWAP8 PUSH3 0x199E JUMPI JUMPDEST POP PUSH1 0x4 PUSH1 0x40 MLOAD DUP1 SWAP7 DUP2 SWAP4 DUP3 MSTORE GAS STATICCALL SWAP3 DUP4 ISZERO PUSH3 0x575 JUMPI SWAP1 DUP12 SWAP2 DUP6 SWAP5 PUSH3 0x1967 JUMPI JUMPDEST POP PUSH1 0x4 PUSH1 0x40 MLOAD DUP1 SWAP5 DUP2 SWAP4 DUP3 MSTORE GAS STATICCALL SWAP3 DUP4 ISZERO PUSH3 0x1769 JUMPI SWAP3 PUSH3 0x1932 JUMPI JUMPDEST POP MUL SWAP2 MUL LT ISZERO SWAP4 PUSH0 DUP1 DUP1 DUP1 DUP1 DUP1 DUP1 DUP13 DUP2 PUSH3 0x185A JUMP JUMPDEST SWAP1 SWAP2 POP DUP9 DUP2 DUP2 RETURNDATASIZE DUP4 GT PUSH3 0x195F JUMPI JUMPDEST PUSH3 0x194D DUP2 DUP4 PUSH3 0x30DF JUMP JUMPDEST DUP2 ADD SUB SLT PUSH3 0x3DE JUMPI MLOAD SWAP1 PUSH0 PUSH3 0x191C JUMP JUMPDEST POP RETURNDATASIZE PUSH3 0x1941 JUMP JUMPDEST DUP3 DUP2 SWAP4 SWAP3 SWAP6 POP RETURNDATASIZE DUP4 GT PUSH3 0x1996 JUMPI JUMPDEST PUSH3 0x1982 DUP2 DUP4 PUSH3 0x30DF JUMP JUMPDEST DUP2 ADD SUB SLT PUSH3 0x3DE JUMPI DUP11 SWAP1 MLOAD SWAP3 PUSH0 PUSH3 0x18FF JUMP JUMPDEST POP RETURNDATASIZE PUSH3 0x1976 JUMP JUMPDEST DUP3 DUP2 SWAP4 SWAP3 SWAP9 POP RETURNDATASIZE DUP4 GT PUSH3 0x19CD JUMPI JUMPDEST PUSH3 0x19B9 DUP2 DUP4 PUSH3 0x30DF JUMP JUMPDEST DUP2 ADD SUB SLT PUSH3 0x3DE JUMPI DUP12 SWAP1 MLOAD SWAP6 PUSH0 PUSH3 0x18DE JUMP JUMPDEST POP RETURNDATASIZE PUSH3 0x19AD JUMP JUMPDEST SWAP1 SWAP7 POP DUP12 DUP2 DUP2 RETURNDATASIZE DUP4 GT PUSH3 0x1A02 JUMPI JUMPDEST PUSH3 0x19F0 DUP2 DUP4 PUSH3 0x30DF JUMP JUMPDEST DUP2 ADD SUB SLT PUSH3 0x3DE JUMPI MLOAD SWAP6 PUSH0 PUSH3 0x18BC JUMP JUMPDEST POP RETURNDATASIZE PUSH3 0x19E4 JUMP JUMPDEST POP DUP10 ISZERO PUSH3 0x1854 JUMP JUMPDEST POP DUP10 PUSH3 0x184C JUMP JUMPDEST SWAP1 POP DUP13 DUP3 DUP2 RETURNDATASIZE DUP4 GT PUSH3 0x1A4B JUMPI JUMPDEST PUSH3 0x1A35 DUP2 DUP4 PUSH3 0x30DF JUMP JUMPDEST DUP2 ADD SUB SLT PUSH3 0x3DE JUMPI PUSH3 0x183C SWAP2 MLOAD SWAP1 PUSH3 0x1830 JUMP JUMPDEST POP RETURNDATASIZE PUSH3 0x1A29 JUMP JUMPDEST SWAP1 POP DUP12 DUP2 DUP2 RETURNDATASIZE DUP4 GT PUSH3 0x1A7E JUMPI JUMPDEST PUSH3 0x1A6D DUP2 DUP4 PUSH3 0x30DF JUMP JUMPDEST DUP2 ADD SUB SLT PUSH3 0x3DE JUMPI MLOAD PUSH0 PUSH3 0x1810 JUMP JUMPDEST POP RETURNDATASIZE PUSH3 0x1A61 JUMP JUMPDEST SWAP1 POP DUP10 DUP3 DUP2 RETURNDATASIZE DUP4 GT PUSH3 0x1AB6 JUMPI JUMPDEST PUSH3 0x1AA0 DUP2 DUP4 PUSH3 0x30DF JUMP JUMPDEST DUP2 ADD SUB SLT PUSH3 0x3DE JUMPI PUSH3 0x17E1 SWAP2 MLOAD SWAP1 PUSH3 0x17D5 JUMP JUMPDEST POP RETURNDATASIZE PUSH3 0x1A94 JUMP JUMPDEST PUSH1 0x40 MLOAD RETURNDATASIZE DUP10 DUP3 RETURNDATACOPY RETURNDATASIZE SWAP1 REVERT JUMPDEST SWAP1 POP DUP8 DUP2 DUP2 RETURNDATASIZE DUP4 GT PUSH3 0x1AF4 JUMPI JUMPDEST PUSH3 0x1AE3 DUP2 DUP4 PUSH3 0x30DF JUMP JUMPDEST DUP2 ADD SUB SLT PUSH3 0x3DE JUMPI MLOAD PUSH0 PUSH3 0x17AD JUMP JUMPDEST POP RETURNDATASIZE PUSH3 0x1AD7 JUMP JUMPDEST DUP5 SWAP2 SWAP5 RETURNDATASIZE DUP4 GT PUSH3 0x1B26 JUMPI JUMPDEST PUSH3 0x1B14 DUP2 DUP4 PUSH3 0x30DF JUMP JUMPDEST DUP2 ADD SUB SLT PUSH3 0x3DE JUMPI DUP6 SWAP3 PUSH0 PUSH3 0x16E9 JUMP JUMPDEST POP RETURNDATASIZE PUSH3 0x1B08 JUMP JUMPDEST POP CALLVALUE PUSH3 0x5D1 JUMPI DUP1 PUSH1 0x3 NOT CALLDATASIZE ADD SLT PUSH3 0x5D1 JUMPI DUP1 SLOAD DUP2 SWAP1 PUSH1 0x1 PUSH1 0x1 PUSH1 0xA0 SHL SUB AND DUP1 EXTCODESIZE ISZERO PUSH3 0x1B91 JUMPI DUP2 DUP1 SWAP2 PUSH1 0x4 PUSH1 0x40 MLOAD DUP1 SWAP5 DUP2 SWAP4 PUSH4 0x5C616A73 PUSH1 0xE0 SHL DUP4 MSTORE GAS CALL DUP1 ISZERO PUSH3 0xBB4 JUMPI PUSH3 0x1B7D JUMPI POP RETURN JUMPDEST DUP2 PUSH3 0x1B89 SWAP2 PUSH3 0x30DF JUMP JUMPDEST PUSH3 0x5D1 JUMPI DUP1 RETURN JUMPDEST POP REVERT JUMPDEST POP CALLVALUE PUSH3 0x5D1 JUMPI PUSH1 0x60 CALLDATASIZE PUSH1 0x3 NOT ADD SLT PUSH3 0x3DE JUMPI PUSH3 0x1BB8 PUSH1 0xB SLOAD PUSH1 0x4 CALLDATALOAD PUSH3 0x3116 JUMP JUMPDEST DUP2 SLOAD PUSH1 0x40 MLOAD PUSH3 0x7C6DA1 PUSH1 0xE2 SHL DUP2 MSTORE PUSH1 0x4 DUP2 ADD SWAP3 SWAP1 SWAP3 MSTORE SWAP1 SWAP2 SWAP1 PUSH1 0x1 PUSH1 0x1 PUSH1 0xA0 SHL SUB AND PUSH1 0x20 DUP4 PUSH1 0x24 DUP2 DUP5 GAS STATICCALL SWAP3 DUP4 ISZERO PUSH3 0xBB4 JUMPI DUP3 SWAP4 PUSH3 0x20BD JUMPI JUMPDEST POP PUSH3 0x1C08 PUSH1 0x1 PUSH1 0x1 PUSH1 0xA0 SHL SUB DUP5 AND PUSH3 0x34EB JUMP JUMPDEST SWAP3 PUSH3 0x1C13 PUSH3 0x32A6 JUMP JUMPDEST SWAP4 PUSH3 0x1C26 PUSH1 0x80 DUP7 ADD MLOAD PUSH1 0x24 CALLDATALOAD PUSH3 0x3116 JUMP JUMPDEST PUSH1 0x1 DUP2 ADD DUP2 GT PUSH3 0x166A JUMPI PUSH3 0x1C43 PUSH1 0x80 DUP4 ADD MLOAD PUSH1 0x44 CALLDATALOAD PUSH3 0x3116 JUMP JUMPDEST SWAP1 PUSH1 0x1 DUP3 ADD DUP3 GT PUSH3 0x20A9 JUMPI DUP7 MLOAD SWAP1 PUSH1 0x40 MLOAD SWAP3 PUSH4 0x198804FD PUSH1 0xE2 SHL DUP5 MSTORE PUSH1 0x20 DUP5 PUSH1 0x4 DUP2 DUP11 GAS STATICCALL SWAP4 DUP5 ISZERO PUSH3 0x209E JUMPI DUP9 SWAP5 PUSH3 0x2063 JUMPI JUMPDEST POP PUSH1 0x1 PUSH1 0x84 PUSH1 0x60 SWAP3 DUP11 PUSH1 0x40 MLOAD SWAP11 DUP12 SWAP5 DUP6 SWAP4 PUSH4 0x1A123431 PUSH1 0xE1 SHL DUP6 MSTORE DUP2 DUP1 PUSH1 0xA0 SHL SUB DUP14 AND PUSH1 0x4 DUP7 ADD MSTORE DUP2 DUP10 ADD PUSH1 0x24 DUP7 ADD MSTORE ADD PUSH1 0x44 DUP5 ADD MSTORE DUP2 PUSH1 0x64 DUP5 ADD MSTORE GAS CALL SWAP1 DUP2 DUP9 SWAP8 DUP10 SWAP4 PUSH3 0x2036 JUMPI JUMPDEST POP PUSH3 0x1CDF JUMPI POP POP POP POP POP POP POP SWAP1 POP PUSH3 0x75C PUSH1 0xC SLOAD PUSH3 0x3162 JUMP JUMPDEST PUSH3 0x1CFD PUSH3 0x1CED PUSH3 0x32A6 JUMP JUMPDEST SWAP7 PUSH1 0x1 PUSH1 0x1 PUSH1 0xA0 SHL SUB AND PUSH3 0x34EB JUMP JUMPDEST SWAP6 DUP3 PUSH8 0xDE0B6B3A7640000 DUP2 MUL DIV PUSH8 0xDE0B6B3A7640000 EQ DUP4 ISZERO OR ISZERO PUSH3 0xAE4 JUMPI PUSH3 0x1D50 DUP11 PUSH8 0xDE0B6B3A7640000 PUSH3 0x7E8 PUSH1 0x20 PUSH3 0x1D43 DUP2 DUP13 ADD MLOAD DUP5 DUP11 MUL PUSH3 0x31D6 JUMP JUMPDEST SWAP4 ADD MLOAD PUSH1 0x1 DUP8 ADD PUSH3 0x31A8 JUMP JUMPDEST DUP10 SLOAD PUSH1 0x40 MLOAD PUSH4 0x79BAE7DD PUSH1 0xE1 SHL DUP2 MSTORE PUSH1 0x1 PUSH1 0x1 PUSH1 0xA0 SHL SUB SWAP1 SWAP2 AND SWAP10 SWAP1 PUSH1 0x20 DUP2 PUSH1 0x4 DUP2 DUP15 GAS STATICCALL DUP1 ISZERO PUSH3 0xAD9 JUMPI DUP13 SWAP1 PUSH3 0x1FFB JUMPI JUMPDEST PUSH3 0x1D91 SWAP2 POP DUP4 PUSH3 0x31A8 JUMP JUMPDEST PUSH1 0x40 MLOAD PUSH4 0x278793F7 PUSH1 0xE1 SHL DUP2 MSTORE PUSH1 0x20 DUP2 PUSH1 0x4 DUP2 DUP16 GAS STATICCALL SWAP1 DUP2 ISZERO PUSH3 0xA5B JUMPI DUP14 SWAP2 PUSH3 0x1FC3 JUMPI JUMPDEST POP PUSH8 0xDE0B6B3A7640000 DUP2 DUP2 SUB GT PUSH3 0xA0F JUMPI PUSH15 0xC097CE7BC90715B34B9F1000000000 SWAP2 PUSH3 0x1DF1 SWAP2 PUSH8 0xDE0B6B3A7640000 SUB SWAP1 PUSH3 0x31A8 JUMP JUMPDEST PUSH1 0x40 MLOAD PUSH4 0x79BAE7DD PUSH1 0xE1 SHL DUP2 MSTORE SWAP2 SWAP1 DIV SWAP3 SWAP1 PUSH1 0x20 DUP2 PUSH1 0x4 DUP2 DUP16 GAS STATICCALL SWAP1 DUP2 ISZERO PUSH3 0xA5B JUMPI DUP14 SWAP2 PUSH3 0x1F8B JUMPI JUMPDEST POP PUSH8 0xDE0B6B3A7640000 DUP2 DUP2 SUB GT PUSH3 0xA0F JUMPI SWAP13 PUSH1 0x80 PUSH1 0x1 PUSH1 0x4 SWAP15 SWAP16 PUSH1 0x20 SWAP14 SWAP13 SWAP12 SWAP11 SWAP10 SWAP8 PUSH3 0x1EA9 DUP4 PUSH3 0x303 PUSH3 0x1EB6 SWAP11 PUSH3 0x1E94 PUSH3 0x1ECB SWAP15 SWAP12 PUSH3 0x1E7F DUP6 PUSH3 0x303 PUSH8 0xDE0B6B3A7640000 PUSH3 0x320 SWAP16 PUSH3 0x2FB SWAP1 DUP16 SWAP14 DUP4 SUB SWAP1 PUSH3 0x31A8 JUMP JUMPDEST PUSH3 0x320 PUSH1 0x40 DUP9 ADD MLOAD SWAP2 PUSH1 0x40 DUP14 ADD MLOAD PUSH3 0x319A JUMP JUMPDEST PUSH3 0x33C PUSH1 0x60 DUP7 ADD MLOAD PUSH1 0x60 DUP12 ADD MLOAD SWAP1 PUSH3 0x31F8 JUMP JUMPDEST ADD MLOAD SWAP5 ADD SWAP2 ADD MLOAD PUSH3 0x31F8 JUMP JUMPDEST PUSH3 0x320 PUSH1 0x80 DUP8 ADD MLOAD SWAP2 PUSH1 0x80 DUP8 ADD MLOAD PUSH3 0x31F8 JUMP JUMPDEST LT ISZERO PUSH3 0x1F58 JUMPI PUSH3 0x1EE8 SWAP1 PUSH3 0x97F DUP4 MLOAD PUSH0 NOT SWAP3 MLOAD SWAP1 PUSH3 0x325F JUMP JUMPDEST MLOAD SWAP2 PUSH1 0x40 MLOAD SWAP4 DUP5 DUP1 SWAP3 PUSH4 0x198804FD PUSH1 0xE2 SHL DUP3 MSTORE GAS STATICCALL SWAP1 DUP2 ISZERO PUSH3 0xA04 JUMPI DUP4 SWAP2 PUSH3 0x1F1B JUMPI JUMPDEST PUSH3 0x987 SWAP3 POP GT ISZERO PUSH3 0x3206 JUMP JUMPDEST SWAP1 POP PUSH1 0x20 DUP3 RETURNDATASIZE PUSH1 0x20 GT PUSH3 0x1F4F JUMPI JUMPDEST DUP2 PUSH3 0x1F39 PUSH1 0x20 SWAP4 DUP4 PUSH3 0x30DF JUMP JUMPDEST DUP2 ADD SUB SLT PUSH3 0x3DE JUMPI PUSH3 0x987 SWAP2 MLOAD SWAP1 PUSH3 0x1F0D JUMP JUMPDEST RETURNDATASIZE SWAP2 POP PUSH3 0x1F2A JUMP JUMPDEST POP MLOAD SWAP2 PUSH1 0x40 MLOAD SWAP4 DUP5 DUP1 SWAP3 PUSH4 0x198804FD PUSH1 0xE2 SHL DUP3 MSTORE GAS STATICCALL SWAP1 DUP2 ISZERO PUSH3 0xA04 JUMPI DUP4 SWAP2 PUSH3 0x9C7 JUMPI PUSH3 0x987 SWAP3 POP LT ISZERO PUSH3 0x3206 JUMP JUMPDEST SWAP1 POP PUSH1 0x20 DUP2 RETURNDATASIZE PUSH1 0x20 GT PUSH3 0x1FBA JUMPI JUMPDEST DUP2 PUSH3 0x1FA9 PUSH1 0x20 SWAP4 DUP4 PUSH3 0x30DF JUMP JUMPDEST DUP2 ADD SUB SLT PUSH3 0x3DE JUMPI MLOAD PUSH0 PUSH3 0x1E1C JUMP JUMPDEST RETURNDATASIZE SWAP2 POP PUSH3 0x1F9A JUMP JUMPDEST SWAP1 POP PUSH1 0x20 DUP2 RETURNDATASIZE PUSH1 0x20 GT PUSH3 0x1FF2 JUMPI JUMPDEST DUP2 PUSH3 0x1FE1 PUSH1 0x20 SWAP4 DUP4 PUSH3 0x30DF JUMP JUMPDEST DUP2 ADD SUB SLT PUSH3 0x3DE JUMPI MLOAD PUSH0 PUSH3 0x1DB7 JUMP JUMPDEST RETURNDATASIZE SWAP2 POP PUSH3 0x1FD2 JUMP JUMPDEST POP PUSH1 0x20 DUP2 RETURNDATASIZE PUSH1 0x20 GT PUSH3 0x202D JUMPI JUMPDEST DUP2 PUSH3 0x2018 PUSH1 0x20 SWAP4 DUP4 PUSH3 0x30DF JUMP JUMPDEST DUP2 ADD SUB SLT PUSH3 0x3DE JUMPI PUSH3 0x1D91 SWAP1 MLOAD PUSH3 0x1D84 JUMP JUMPDEST RETURNDATASIZE SWAP2 POP PUSH3 0x2009 JUMP JUMPDEST SWAP1 SWAP3 POP PUSH3 0x2057 SWAP2 SWAP8 POP PUSH1 0x60 RETURNDATASIZE PUSH1 0x60 GT PUSH3 0xB2B JUMPI PUSH3 0xB18 DUP2 DUP4 PUSH3 0x30DF JUMP JUMPDEST POP SWAP7 SWAP1 SWAP7 SWAP2 PUSH0 PUSH3 0x1CC3 JUMP JUMPDEST SWAP1 SWAP4 POP PUSH1 0x20 DUP2 RETURNDATASIZE PUSH1 0x20 GT PUSH3 0x2095 JUMPI JUMPDEST DUP2 PUSH3 0x2082 PUSH1 0x20 SWAP4 DUP4 PUSH3 0x30DF JUMP JUMPDEST DUP2 ADD SUB SLT PUSH3 0x3DE JUMPI MLOAD SWAP3 PUSH1 0x1 PUSH3 0x1C79 JUMP JUMPDEST RETURNDATASIZE SWAP2 POP PUSH3 0x2073 JUMP JUMPDEST PUSH1 0x40 MLOAD RETURNDATASIZE DUP11 DUP3 RETURNDATACOPY RETURNDATASIZE SWAP1 REVERT JUMPDEST PUSH4 0x4E487B71 PUSH1 0xE0 SHL DUP7 MSTORE PUSH1 0x11 PUSH1 0x4 MSTORE PUSH1 0x24 DUP7 REVERT JUMPDEST PUSH3 0x20DB SWAP2 SWAP4 POP PUSH1 0x20 RETURNDATASIZE PUSH1 0x20 GT PUSH3 0xBAC JUMPI PUSH3 0xB9C DUP2 DUP4 PUSH3 0x30DF JUMP JUMPDEST SWAP2 PUSH0 PUSH3 0x1BF3 JUMP JUMPDEST POP CALLVALUE PUSH3 0x5D1 JUMPI PUSH1 0x40 CALLDATASIZE PUSH1 0x3 NOT ADD SLT PUSH3 0x5D1 JUMPI PUSH1 0x24 CALLDATALOAD PUSH1 0x1 PUSH1 0x1 PUSH1 0x60 SHL SUB DUP1 DUP3 AND DUP3 SUB PUSH3 0x3DE JUMPI PUSH3 0x2118 DUP4 SWAP3 PUSH3 0x3135 JUMP JUMPDEST PUSH1 0x1 DUP1 PUSH1 0xA0 SHL SUB DUP1 DUP5 SLOAD AND PUSH1 0x40 PUSH3 0x2135 PUSH1 0xB SLOAD PUSH1 0x4 CALLDATALOAD PUSH3 0x3116 JUMP JUMPDEST PUSH1 0x24 DUP3 MLOAD DUP1 SWAP5 DUP2 SWAP4 PUSH4 0x4B746001 PUSH1 0xE0 SHL DUP4 MSTORE PUSH1 0x4 DUP4 ADD MSTORE GAS STATICCALL SWAP1 DUP2 ISZERO PUSH3 0x3EB JUMPI DUP6 SWAP2 PUSH3 0x219C JUMPI JUMPDEST POP AND SWAP2 DUP3 EXTCODESIZE ISZERO PUSH3 0x2197 JUMPI PUSH1 0x24 DUP5 SWAP3 DUP4 PUSH1 0x40 MLOAD SWAP6 DUP7 SWAP5 DUP6 SWAP4 PUSH4 0x32145F9 PUSH1 0xE4 SHL DUP6 MSTORE AND PUSH1 0x4 DUP5 ADD MSTORE GAS CALL DUP1 ISZERO PUSH3 0xBB4 JUMPI PUSH3 0x1B7D JUMPI POP RETURN JUMPDEST POP POP POP REVERT JUMPDEST PUSH3 0x21B9 SWAP2 POP PUSH1 0x40 RETURNDATASIZE PUSH1 0x40 GT PUSH3 0x10B3 JUMPI PUSH3 0x10A1 DUP2 DUP4 PUSH3 0x30DF JUMP JUMPDEST SWAP1 POP PUSH0 PUSH3 0x215E JUMP JUMPDEST POP CALLVALUE PUSH3 0x5D1 JUMPI CALLDATASIZE PUSH1 0x3 NOT ADD PUSH2 0x100 DUP2 SLT PUSH3 0x11B3 JUMPI PUSH1 0xE0 SGT PUSH3 0x5D1 JUMPI PUSH1 0x40 MLOAD SWAP1 PUSH3 0x21F1 PUSH1 0xE0 DUP4 PUSH3 0x30DF JUMP JUMPDEST PUSH1 0x4 CALLDATALOAD PUSH1 0x1 PUSH1 0x1 PUSH1 0xA0 SHL SUB DUP2 AND DUP2 SUB PUSH3 0x11B3 JUMPI DUP3 MSTORE PUSH1 0x24 CALLDATALOAD PUSH1 0x1 PUSH1 0x1 PUSH1 0xA0 SHL SUB DUP2 AND DUP2 SUB PUSH3 0x11B3 JUMPI PUSH1 0x20 DUP4 ADD MSTORE PUSH1 0x44 CALLDATALOAD PUSH1 0x40 DUP4 ADD MSTORE PUSH1 0x64 CALLDATALOAD PUSH1 0x60 DUP4 ADD MSTORE PUSH1 0x84 CALLDATALOAD PUSH1 0x80 DUP4 ADD MSTORE PUSH1 0xA4 CALLDATALOAD PUSH1 0xA0 DUP4 ADD MSTORE PUSH1 0xC4 CALLDATALOAD PUSH1 0xC0 DUP4 ADD MSTORE PUSH1 0x1 PUSH1 0x1 PUSH1 0x60 SHL SUB PUSH1 0xE4 CALLDATALOAD AND PUSH1 0xE4 CALLDATALOAD SUB PUSH3 0x5D1 JUMPI PUSH1 0x5 PUSH1 0xB SLOAD LT ISZERO PUSH3 0x2502 JUMPI PUSH1 0x40 MLOAD DUP1 PUSH2 0x225E DUP2 ADD LT PUSH8 0xFFFFFFFFFFFFFFFF PUSH2 0x225E DUP4 ADD GT OR PUSH3 0x24EE JUMPI PUSH2 0x225E PUSH3 0x3C9B DUP3 CODECOPY DUP1 PUSH2 0x225E DUP2 ADD SUB SWAP1 DUP3 CREATE DUP1 ISZERO PUSH3 0x10F0 JUMPI PUSH1 0x40 MLOAD SWAP1 DUP2 PUSH2 0x3F1 DUP2 ADD LT PUSH8 0xFFFFFFFFFFFFFFFF PUSH2 0x3F1 DUP5 ADD GT OR PUSH3 0x24C3 JUMPI PUSH2 0x3F1 PUSH3 0x3716 DUP4 CODECOPY PUSH1 0x1 PUSH1 0x1 PUSH1 0xA0 SHL SUB AND PUSH2 0x3F1 DUP3 ADD SWAP1 DUP2 MSTORE PUSH1 0x40 PUSH1 0x20 DUP3 ADD DUP2 SWAP1 MSTORE DUP2 ADD DUP4 SWAP1 MSTORE DUP2 SWAP1 SUB PUSH1 0x60 ADD SWAP1 DUP3 CREATE SWAP1 DUP2 ISZERO PUSH3 0x1769 JUMPI DUP1 SLOAD PUSH1 0x1 SLOAD PUSH1 0x1 PUSH1 0x1 PUSH1 0xA0 SHL SUB SWAP4 DUP5 AND SWAP4 SWAP2 DUP3 AND SWAP2 AND DUP4 EXTCODESIZE ISZERO PUSH3 0x24EA JUMPI PUSH1 0x40 MLOAD SWAP2 PUSH4 0x23C56D05 PUSH1 0xE2 SHL DUP4 MSTORE PUSH1 0x80 PUSH1 0x4 DUP5 ADD MSTORE PUSH1 0x7 PUSH1 0x84 DUP5 ADD MSTORE PUSH7 0x2A282A37B5B2B7 PUSH1 0xC9 SHL PUSH1 0xA4 DUP5 ADD MSTORE PUSH1 0xC0 PUSH1 0x24 DUP5 ADD MSTORE PUSH1 0x2 PUSH1 0xC4 DUP5 ADD MSTORE PUSH2 0x545 PUSH1 0xF4 SHL PUSH1 0xE4 DUP5 ADD MSTORE PUSH1 0x44 DUP4 ADD MSTORE PUSH1 0x64 DUP3 ADD MSTORE DUP2 DUP2 PUSH2 0x104 DUP2 DUP4 DUP8 GAS CALL DUP1 ISZERO PUSH3 0xBB4 JUMPI PUSH3 0x24D7 JUMPI JUMPDEST POP SWAP1 DUP3 MSTORE PUSH8 0xDE0B6B3A7640000 DUP1 PUSH1 0x60 DUP5 ADD MLOAD MOD PUSH1 0x60 DUP5 ADD MSTORE PUSH1 0x80 DUP4 ADD MLOAD MOD PUSH1 0x80 DUP4 ADD MSTORE PUSH3 0x23B0 PUSH1 0xE4 CALLDATALOAD PUSH3 0x3135 JUMP JUMPDEST SWAP2 PUSH1 0x40 MLOAD DUP1 PUSH2 0x194 DUP2 ADD LT PUSH8 0xFFFFFFFFFFFFFFFF PUSH2 0x194 DUP4 ADD GT OR PUSH3 0x24C3 JUMPI PUSH1 0x1 PUSH1 0x1 PUSH1 0x60 SHL SUB DUP4 SWAP5 PUSH2 0x194 PUSH3 0x3B07 DUP5 CODECOPY AND PUSH2 0x194 DUP3 ADD MSTORE PUSH1 0x20 DUP2 PUSH2 0x194 DUP2 ADD SUB ADD SWAP1 DUP4 CREATE DUP1 ISZERO PUSH3 0xBB4 JUMPI PUSH1 0x1 PUSH1 0x1 PUSH1 0xA0 SHL SUB SWAP1 DUP2 AND PUSH1 0x20 DUP4 ADD MSTORE DUP3 SLOAD AND SWAP1 DUP2 EXTCODESIZE ISZERO PUSH3 0x24BF JUMPI PUSH1 0x40 DUP1 MLOAD PUSH4 0x6DBCB039 PUSH1 0xE1 SHL DUP2 MSTORE DUP3 MLOAD PUSH1 0x1 PUSH1 0x1 PUSH1 0xA0 SHL SUB SWAP1 DUP2 AND PUSH1 0x4 DUP4 ADD MSTORE PUSH1 0x20 DUP5 ADD MLOAD AND PUSH1 0x24 DUP3 ADD MSTORE SWAP1 DUP3 ADD MLOAD PUSH1 0x44 DUP3 ADD MSTORE PUSH1 0x60 DUP3 ADD MLOAD PUSH1 0x64 DUP3 ADD MSTORE PUSH1 0x80 DUP3 ADD MLOAD PUSH1 0x84 DUP3 ADD MSTORE PUSH1 0xA0 DUP3 ADD MLOAD PUSH1 0xA4 DUP3 ADD MSTORE PUSH1 0xC0 SWAP1 SWAP2 ADD MLOAD PUSH1 0xC4 DUP3 ADD MSTORE SWAP1 DUP3 SWAP1 DUP3 SWAP1 PUSH1 0xE4 SWAP1 DUP3 SWAP1 DUP5 SWAP1 GAS CALL DUP1 ISZERO PUSH3 0xBB4 JUMPI PUSH3 0x24A6 JUMPI JUMPDEST POP PUSH3 0x24A0 PUSH1 0xB SLOAD PUSH3 0x3162 JUMP JUMPDEST PUSH1 0xB SSTORE DUP1 RETURN JUMPDEST DUP2 PUSH3 0x24B2 SWAP2 PUSH3 0x30DF JUMP JUMPDEST PUSH3 0x5D1 JUMPI DUP1 PUSH0 PUSH3 0x2492 JUMP JUMPDEST POP POP REVERT JUMPDEST PUSH4 0x4E487B71 PUSH1 0xE0 SHL DUP4 MSTORE PUSH1 0x41 PUSH1 0x4 MSTORE PUSH1 0x24 DUP4 REVERT JUMPDEST DUP2 PUSH3 0x24E3 SWAP2 PUSH3 0x30DF JUMP JUMPDEST PUSH0 PUSH3 0x237F JUMP JUMPDEST DUP3 DUP1 REVERT JUMPDEST PUSH4 0x4E487B71 PUSH1 0xE0 SHL DUP3 MSTORE PUSH1 0x41 PUSH1 0x4 MSTORE PUSH1 0x24 DUP3 REVERT JUMPDEST PUSH1 0x40 MLOAD PUSH3 0x461BCD PUSH1 0xE5 SHL DUP2 MSTORE PUSH1 0x20 PUSH1 0x4 DUP3 ADD MSTORE PUSH1 0x14 PUSH1 0x24 DUP3 ADD MSTORE PUSH20 0x1B585E08151408185B1C9958591E481859191959 PUSH1 0x62 SHL PUSH1 0x44 DUP3 ADD MSTORE PUSH1 0x64 SWAP1 REVERT JUMPDEST POP CALLVALUE PUSH3 0x5D1 JUMPI PUSH1 0x60 CALLDATASIZE PUSH1 0x3 NOT ADD SLT PUSH3 0x5D1 JUMPI PUSH1 0x44 CALLDATALOAD DUP1 PUSH3 0x255F JUMPI POP DUP1 RETURN JUMPDEST PUSH3 0x256F PUSH1 0xB SLOAD PUSH1 0x4 CALLDATALOAD PUSH3 0x3116 JUMP JUMPDEST DUP3 SLOAD PUSH1 0x40 MLOAD PUSH3 0x7C6DA1 PUSH1 0xE2 SHL DUP2 MSTORE PUSH1 0x4 DUP2 ADD SWAP3 SWAP1 SWAP3 MSTORE PUSH1 0x1 PUSH1 0x1 PUSH1 0xA0 SHL SUB AND SWAP2 SWAP1 PUSH1 0x20 DUP2 PUSH1 0x24 DUP2 DUP7 GAS STATICCALL SWAP1 DUP2 ISZERO PUSH3 0x575 JUMPI DUP5 SWAP2 PUSH3 0x2BB2 JUMPI JUMPDEST POP PUSH1 0x40 MLOAD PUSH4 0x24FFABA3 PUSH1 0xE0 SHL DUP2 MSTORE PUSH1 0x1 PUSH1 0x1 PUSH1 0xA0 SHL SUB DUP3 AND PUSH1 0x4 DUP3 ADD MSTORE PUSH1 0x20 DUP2 PUSH1 0x24 DUP2 DUP8 GAS STATICCALL SWAP1 DUP2 ISZERO PUSH3 0x3EB JUMPI DUP6 SWAP2 PUSH3 0x2B7A JUMPI JUMPDEST POP PUSH8 0xDE0B6B3A7640000 ADD DUP1 PUSH8 0xDE0B6B3A7640000 GT PUSH3 0x166A JUMPI SWAP1 PUSH3 0x264C PUSH1 0x20 PUSH3 0x260E DUP8 SWAP5 DUP7 PUSH3 0x31A8 JUMP JUMPDEST PUSH1 0x6 SLOAD PUSH1 0x40 MLOAD PUSH4 0x95EA7B3 PUSH1 0xE0 SHL DUP2 MSTORE PUSH1 0x1 PUSH1 0x1 PUSH1 0xA0 SHL SUB SWAP9 DUP10 AND PUSH1 0x4 DUP3 ADD MSTORE PUSH1 0x24 DUP2 ADD DUP4 SWAP1 MSTORE SWAP2 SWAP8 SWAP2 SWAP4 DUP5 SWAP3 SWAP1 SWAP2 AND SWAP1 DUP3 SWAP1 DUP8 SWAP1 DUP3 SWAP1 PUSH1 0x44 DUP3 ADD SWAP1 JUMP JUMPDEST SUB SWAP3 GAS CALL DUP1 ISZERO PUSH3 0xA04 JUMPI PUSH3 0x2B56 JUMPI JUMPDEST POP PUSH3 0x269A PUSH8 0xDE0B6B3A7640000 PUSH3 0x2690 PUSH3 0x2683 PUSH1 0x1 PUSH1 0x1 PUSH1 0xA0 SHL SUB DUP6 AND PUSH3 0x34EB JUMP JUMPDEST SWAP6 PUSH1 0x20 DUP8 ADD MLOAD SWAP1 PUSH3 0x31A8 JUMP JUMPDEST DIV PUSH1 0x24 CALLDATALOAD PUSH3 0x3116 JUMP JUMPDEST DUP4 MLOAD DUP4 SLOAD PUSH1 0x40 MLOAD PUSH4 0x198804FD PUSH1 0xE2 SHL DUP2 MSTORE PUSH1 0x1 PUSH1 0x1 PUSH1 0xA0 SHL SUB SWAP1 SWAP2 AND SWAP6 SWAP3 SWAP2 PUSH1 0x20 DUP3 PUSH1 0x4 DUP2 DUP11 GAS STATICCALL SWAP2 DUP3 ISZERO PUSH3 0xB73 JUMPI DUP7 SWAP3 PUSH3 0x2B18 JUMPI JUMPDEST POP LT SWAP5 DUP6 ISZERO PUSH3 0x2A9B JUMPI JUMPDEST PUSH1 0x40 DUP1 MLOAD PUSH4 0x484AD7CD PUSH1 0xE0 SHL DUP2 MSTORE PUSH1 0x1 PUSH1 0x1 PUSH1 0xA0 SHL SUB DUP7 AND PUSH1 0x4 DUP3 ADD MSTORE PUSH1 0x24 DUP2 ADD DUP5 SWAP1 MSTORE PUSH1 0x44 DUP2 ADD SWAP9 SWAP1 SWAP9 MSTORE SWAP5 SWAP7 SWAP5 SWAP1 DUP6 SWAP1 DUP2 DUP10 DUP2 PUSH1 0x64 DUP2 ADD JUMPDEST SUB SWAP3 GAS CALL DUP8 SWAP5 DUP2 PUSH3 0x2A74 JUMPI JUMPDEST POP PUSH3 0x276D JUMPI POP POP POP POP SWAP1 POP PUSH1 0x1 SWAP1 PUSH3 0x2740 PUSH1 0xC SLOAD PUSH3 0x3162 JUMP JUMPDEST PUSH1 0xC SSTORE JUMPDEST PUSH3 0x275B JUMPI JUMPDEST POP PUSH3 0x770 PUSH1 0x4B PUSH1 0xC SLOAD LT PUSH3 0x3206 JUMP JUMPDEST PUSH3 0x2766 SWAP1 PUSH3 0x3206 JUMP JUMPDEST PUSH0 PUSH3 0x274A JUMP JUMPDEST PUSH3 0x2781 PUSH1 0x1 PUSH1 0x1 PUSH1 0xA0 SHL SUB DUP5 AND PUSH3 0x34EB JUMP JUMPDEST SWAP3 DUP2 PUSH8 0xDE0B6B3A7640000 DUP2 MUL DIV PUSH8 0xDE0B6B3A7640000 EQ DUP3 ISZERO OR ISZERO PUSH3 0x2A60 JUMPI PUSH3 0x27BC PUSH1 0x20 DUP5 ADD MLOAD PUSH8 0xDE0B6B3A7640000 DUP5 MUL PUSH3 0x31D6 JUMP JUMPDEST DUP9 SLOAD PUSH1 0x40 MLOAD PUSH4 0x24FFABA3 PUSH1 0xE0 SHL DUP2 MSTORE PUSH1 0x1 PUSH1 0x1 PUSH1 0xA0 SHL SUB DUP5 DUP2 AND PUSH1 0x4 DUP4 ADD MSTORE SWAP1 SWAP2 AND SWAP7 SWAP2 SWAP1 PUSH1 0x20 DUP2 PUSH1 0x24 DUP2 DUP12 GAS STATICCALL DUP1 ISZERO PUSH3 0x442 JUMPI DUP12 SWAP1 PUSH3 0x2A25 JUMPI JUMPDEST PUSH3 0x2806 SWAP2 POP DUP3 PUSH3 0x31A8 JUMP JUMPDEST PUSH1 0x40 MLOAD PUSH4 0x278793F7 PUSH1 0xE1 SHL DUP2 MSTORE PUSH1 0x20 DUP2 PUSH1 0x4 DUP2 DUP13 GAS STATICCALL SWAP1 DUP2 ISZERO PUSH3 0xAD9 JUMPI DUP13 SWAP2 PUSH3 0x29E9 JUMPI JUMPDEST POP PUSH8 0xDE0B6B3A7640000 DUP2 DUP2 SUB GT PUSH3 0x1533 JUMPI PUSH15 0xC097CE7BC90715B34B9F1000000000 SWAP2 PUSH3 0x2866 SWAP2 PUSH8 0xDE0B6B3A7640000 SUB SWAP1 PUSH3 0x31A8 JUMP JUMPDEST PUSH1 0x40 MLOAD PUSH4 0x24FFABA3 PUSH1 0xE0 SHL DUP2 MSTORE PUSH1 0x1 PUSH1 0x1 PUSH1 0xA0 SHL SUB SWAP1 SWAP6 AND PUSH1 0x4 DUP7 ADD MSTORE DIV SWAP3 PUSH1 0x20 DUP2 PUSH1 0x24 DUP2 DUP12 GAS STATICCALL SWAP1 DUP2 ISZERO PUSH3 0x442 JUMPI DUP12 SWAP2 PUSH3 0x29AD JUMPI JUMPDEST POP PUSH8 0xDE0B6B3A7640000 ADD SWAP1 DUP2 PUSH8 0xDE0B6B3A7640000 GT PUSH3 0x3F6 JUMPI SWAP4 PUSH3 0x2912 PUSH1 0x1 PUSH3 0x303 PUSH3 0x2927 SWAP7 PUSH3 0x327 PUSH1 0x20 SWAP11 SWAP8 PUSH3 0x28FD PUSH8 0xDE0B6B3A7640000 PUSH1 0x4 SWAP16 SWAP15 SWAP13 PUSH3 0x35A SWAP11 PUSH3 0x28F4 SWAP2 PUSH3 0x31A8 JUMP JUMPDEST DIV DUP3 EQ PUSH3 0x3206 JUMP JUMPDEST PUSH3 0x320 PUSH1 0x40 DUP13 ADD MLOAD SWAP2 PUSH1 0x40 DUP12 ADD MLOAD PUSH3 0x31F8 JUMP JUMPDEST PUSH3 0x320 PUSH1 0x80 DUP7 ADD MLOAD SWAP2 PUSH1 0x80 DUP6 ADD MLOAD PUSH3 0x319A JUMP JUMPDEST MLOAD SWAP2 PUSH1 0x40 MLOAD SWAP4 DUP5 DUP1 SWAP3 PUSH4 0x198804FD PUSH1 0xE2 SHL DUP3 MSTORE GAS STATICCALL SWAP1 DUP2 ISZERO PUSH3 0x3EB JUMPI DUP6 SWAP2 PUSH3 0x296C JUMPI JUMPDEST PUSH3 0x295A SWAP3 POP LT ISZERO PUSH3 0x3206 JUMP JUMPDEST PUSH3 0x2966 DUP2 ISZERO PUSH3 0x3206 JUMP JUMPDEST PUSH3 0x2744 JUMP JUMPDEST SWAP1 POP PUSH1 0x20 DUP3 RETURNDATASIZE PUSH1 0x20 GT PUSH3 0x29A4 JUMPI JUMPDEST DUP2 PUSH3 0x298A PUSH1 0x20 SWAP4 DUP4 PUSH3 0x30DF JUMP JUMPDEST DUP2 ADD SUB SLT PUSH3 0x29A0 JUMPI PUSH3 0x295A SWAP2 MLOAD SWAP1 PUSH3 0x294C JUMP JUMPDEST DUP5 DUP1 REVERT JUMPDEST RETURNDATASIZE SWAP2 POP PUSH3 0x297B JUMP JUMPDEST SWAP1 POP PUSH1 0x20 DUP2 RETURNDATASIZE PUSH1 0x20 GT PUSH3 0x29E0 JUMPI JUMPDEST DUP2 PUSH3 0x29CB PUSH1 0x20 SWAP4 DUP4 PUSH3 0x30DF JUMP JUMPDEST DUP2 ADD SUB SLT PUSH3 0x29DC JUMPI MLOAD PUSH0 PUSH3 0x289E JUMP JUMPDEST DUP11 DUP1 REVERT JUMPDEST RETURNDATASIZE SWAP2 POP PUSH3 0x29BC JUMP JUMPDEST SWAP1 POP PUSH1 0x20 DUP2 RETURNDATASIZE PUSH1 0x20 GT PUSH3 0x2A1C JUMPI JUMPDEST DUP2 PUSH3 0x2A07 PUSH1 0x20 SWAP4 DUP4 PUSH3 0x30DF JUMP JUMPDEST DUP2 ADD SUB SLT PUSH3 0x2A18 JUMPI MLOAD PUSH0 PUSH3 0x282C JUMP JUMPDEST DUP12 DUP1 REVERT JUMPDEST RETURNDATASIZE SWAP2 POP PUSH3 0x29F8 JUMP JUMPDEST POP PUSH1 0x20 DUP2 RETURNDATASIZE PUSH1 0x20 GT PUSH3 0x2A57 JUMPI JUMPDEST DUP2 PUSH3 0x2A42 PUSH1 0x20 SWAP4 DUP4 PUSH3 0x30DF JUMP JUMPDEST DUP2 ADD SUB SLT PUSH3 0x29DC JUMPI PUSH3 0x2806 SWAP1 MLOAD PUSH3 0x27F9 JUMP JUMPDEST RETURNDATASIZE SWAP2 POP PUSH3 0x2A33 JUMP JUMPDEST PUSH4 0x4E487B71 PUSH1 0xE0 SHL DUP9 MSTORE PUSH1 0x11 PUSH1 0x4 MSTORE PUSH1 0x24 DUP9 REVERT JUMPDEST PUSH3 0x2A92 SWAP2 SWAP6 POP PUSH1 0x40 RETURNDATASIZE PUSH1 0x40 GT PUSH3 0x4FC JUMPI PUSH3 0x4EA DUP2 DUP4 PUSH3 0x30DF JUMP JUMPDEST POP SWAP4 PUSH0 PUSH3 0x2724 JUMP JUMPDEST PUSH1 0x40 MLOAD PUSH4 0x3E22C50D PUSH1 0xE2 SHL DUP2 MSTORE PUSH1 0x1 PUSH1 0x1 PUSH1 0xA0 SHL SUB DUP6 AND PUSH1 0x4 DUP3 ADD MSTORE SWAP1 SWAP6 POP PUSH1 0x20 DUP2 PUSH1 0x24 DUP2 DUP10 GAS STATICCALL SWAP1 DUP2 ISZERO PUSH3 0x3EB JUMPI DUP6 SWAP2 PUSH3 0x2ADD JUMPI JUMPDEST POP DUP2 SGT SWAP5 PUSH3 0x26DD JUMP JUMPDEST SWAP1 POP PUSH1 0x20 DUP2 RETURNDATASIZE PUSH1 0x20 GT PUSH3 0x2B0F JUMPI JUMPDEST DUP2 PUSH3 0x2AFB PUSH1 0x20 SWAP4 DUP4 PUSH3 0x30DF JUMP JUMPDEST DUP2 ADD SUB SLT PUSH3 0x29A0 JUMPI MLOAD PUSH3 0x2717 PUSH3 0x2AD3 JUMP JUMPDEST RETURNDATASIZE SWAP2 POP PUSH3 0x2AEC JUMP JUMPDEST SWAP1 SWAP2 POP PUSH1 0x20 DUP2 RETURNDATASIZE PUSH1 0x20 GT PUSH3 0x2B4D JUMPI JUMPDEST DUP2 PUSH3 0x2B37 PUSH1 0x20 SWAP4 DUP4 PUSH3 0x30DF JUMP JUMPDEST DUP2 ADD SUB SLT PUSH3 0x2B49 JUMPI MLOAD SWAP1 PUSH0 PUSH3 0x26D2 JUMP JUMPDEST DUP6 DUP1 REVERT JUMPDEST RETURNDATASIZE SWAP2 POP PUSH3 0x2B28 JUMP JUMPDEST PUSH3 0x2B72 SWAP1 PUSH1 0x20 RETURNDATASIZE PUSH1 0x20 GT PUSH3 0xBED JUMPI PUSH3 0xBDC DUP2 DUP4 PUSH3 0x30DF JUMP JUMPDEST POP PUSH0 PUSH3 0x265D JUMP JUMPDEST SWAP1 POP PUSH1 0x20 DUP2 RETURNDATASIZE PUSH1 0x20 GT PUSH3 0x2BA9 JUMPI JUMPDEST DUP2 PUSH3 0x2B98 PUSH1 0x20 SWAP4 DUP4 PUSH3 0x30DF JUMP JUMPDEST DUP2 ADD SUB SLT PUSH3 0x29A0 JUMPI MLOAD PUSH0 PUSH3 0x25DF JUMP JUMPDEST RETURNDATASIZE SWAP2 POP PUSH3 0x2B89 JUMP JUMPDEST PUSH3 0x2BCF SWAP2 POP PUSH1 0x20 RETURNDATASIZE PUSH1 0x20 GT PUSH3 0xBAC JUMPI PUSH3 0xB9C DUP2 DUP4 PUSH3 0x30DF JUMP JUMPDEST PUSH0 PUSH3 0x25A9 JUMP JUMPDEST SWAP1 POP CALLVALUE PUSH3 0x11B3 JUMPI PUSH1 0x40 CALLDATASIZE PUSH1 0x3 NOT ADD SLT PUSH3 0x11B3 JUMPI PUSH1 0x24 CALLDATALOAD DUP1 ISZERO SWAP1 DUP2 ISZERO PUSH3 0x2BFC JUMPI DUP4 DUP1 RETURN JUMPDEST DUP4 SLOAD PUSH4 0xFDA70F8B PUSH1 0xE0 SHL DUP5 MSTORE PUSH1 0x1 PUSH1 0x1 PUSH1 0xA0 SHL SUB AND SWAP3 PUSH1 0x20 DUP2 PUSH1 0x4 DUP2 DUP8 GAS STATICCALL SWAP1 DUP2 ISZERO PUSH3 0x3EB JUMPI DUP6 SWAP2 PUSH3 0x30A7 JUMPI JUMPDEST POP PUSH8 0xDE0B6B3A7640000 ADD DUP1 PUSH8 0xDE0B6B3A7640000 GT PUSH3 0x166A JUMPI PUSH1 0x20 PUSH3 0x2C58 PUSH3 0x2C96 SWAP3 DUP5 PUSH3 0x31A8 JUMP JUMPDEST PUSH1 0x6 SLOAD PUSH1 0x40 MLOAD PUSH4 0x95EA7B3 PUSH1 0xE0 SHL DUP2 MSTORE PUSH1 0x1 PUSH1 0x1 PUSH1 0xA0 SHL SUB SWAP8 DUP9 AND PUSH1 0x4 DUP3 ADD MSTORE PUSH1 0x24 DUP2 ADD DUP4 SWAP1 MSTORE SWAP2 SWAP7 SWAP2 SWAP4 DUP5 SWAP3 SWAP1 SWAP2 AND SWAP1 DUP3 SWAP1 DUP10 SWAP1 DUP3 SWAP1 PUSH1 0x44 DUP3 ADD SWAP1 JUMP JUMPDEST SUB SWAP3 GAS CALL DUP1 ISZERO PUSH3 0x3EB JUMPI PUSH3 0x3083 JUMPI JUMPDEST POP PUSH3 0x2CB2 PUSH3 0x32A6 JUMP JUMPDEST SWAP2 PUSH8 0xDE0B6B3A7640000 DUP3 MUL SWAP2 DUP3 DIV PUSH8 0xDE0B6B3A7640000 EQ OR ISZERO PUSH3 0xE0E JUMPI PUSH3 0x2CE7 PUSH3 0x2CF0 SWAP2 PUSH1 0x20 DUP5 ADD MLOAD SWAP1 PUSH3 0x31D6 JUMP JUMPDEST PUSH1 0x4 CALLDATALOAD PUSH3 0x3116 JUMP JUMPDEST DUP2 MLOAD DUP5 SLOAD PUSH1 0x40 MLOAD PUSH4 0x6B5488DF PUSH1 0xE0 SHL DUP2 MSTORE SWAP2 SWAP5 SWAP2 SWAP4 SWAP2 SWAP3 DUP7 SWAP3 SWAP1 SWAP2 PUSH1 0x1 PUSH1 0x1 PUSH1 0xA0 SHL SUB AND PUSH1 0x20 DUP7 PUSH1 0x4 DUP2 DUP5 GAS STATICCALL SWAP6 DUP7 ISZERO PUSH3 0x575 JUMPI DUP5 SWAP7 PUSH3 0x3044 JUMPI JUMPDEST POP PUSH1 0x40 SWAP1 PUSH1 0x44 DUP6 SWAP7 DUP4 MLOAD SWAP7 DUP8 SWAP4 DUP5 SWAP3 PUSH4 0x176FEC1 PUSH1 0xE3 SHL DUP5 MSTORE DUP9 PUSH1 0x4 DUP6 ADD MSTORE PUSH1 0x24 DUP5 ADD MSTORE GAS CALL DUP8 SWAP4 DUP2 PUSH3 0x301D JUMPI JUMPDEST POP PUSH3 0x2DAB JUMPI POP POP POP POP PUSH1 0x1 SWAP2 PUSH3 0x2D76 PUSH1 0xC SLOAD PUSH3 0x3162 JUMP JUMPDEST PUSH1 0xC SSTORE JUMPDEST LT PUSH3 0x2D99 JUMPI JUMPDEST POP PUSH3 0x2D92 PUSH1 0x4B PUSH1 0xC SLOAD LT PUSH3 0x3206 JUMP JUMPDEST PUSH0 DUP1 DUP1 DUP4 DUP1 RETURN JUMPDEST PUSH3 0x2DA4 SWAP1 PUSH3 0x3206 JUMP JUMPDEST PUSH0 PUSH3 0x2D81 JUMP JUMPDEST PUSH3 0x2DB8 SWAP6 SWAP4 SWAP6 PUSH3 0x32A6 JUMP JUMPDEST SWAP2 PUSH8 0xDE0B6B3A7640000 PUSH3 0x2DD2 PUSH1 0x20 DUP5 ADD MLOAD DUP4 PUSH3 0x31A8 JUMP JUMPDEST DIV PUSH1 0x1 DUP1 PUSH1 0xA0 SHL SUB DUP10 SLOAD AND SWAP5 PUSH1 0x40 MLOAD PUSH4 0xFDA70F8B PUSH1 0xE0 SHL DUP2 MSTORE PUSH1 0x20 DUP2 PUSH1 0x4 DUP2 DUP11 GAS STATICCALL DUP1 ISZERO PUSH3 0x442 JUMPI DUP12 SWAP1 PUSH3 0x2FE2 JUMPI JUMPDEST PUSH3 0x2E10 SWAP2 POP DUP4 PUSH3 0x31A8 JUMP JUMPDEST PUSH1 0x40 MLOAD PUSH4 0x278793F7 PUSH1 0xE1 SHL DUP2 MSTORE PUSH1 0x20 DUP2 PUSH1 0x4 DUP2 DUP12 GAS STATICCALL SWAP1 DUP2 ISZERO PUSH3 0xAD9 JUMPI DUP13 SWAP2 PUSH3 0x2FAA JUMPI JUMPDEST POP PUSH8 0xDE0B6B3A7640000 DUP2 DUP2 SUB GT PUSH3 0x1533 JUMPI PUSH15 0xC097CE7BC90715B34B9F1000000000 SWAP2 PUSH3 0x2E70 SWAP2 PUSH8 0xDE0B6B3A7640000 SUB SWAP1 PUSH3 0x31A8 JUMP JUMPDEST DIV SWAP2 PUSH1 0x40 MLOAD PUSH4 0xFDA70F8B PUSH1 0xE0 SHL DUP2 MSTORE PUSH1 0x20 DUP2 PUSH1 0x4 DUP2 DUP12 GAS STATICCALL SWAP1 DUP2 ISZERO PUSH3 0xAD9 JUMPI DUP13 SWAP2 PUSH3 0x2F72 JUMPI JUMPDEST POP PUSH8 0xDE0B6B3A7640000 ADD SWAP1 DUP2 PUSH8 0xDE0B6B3A7640000 GT PUSH3 0x1533 JUMPI SWAP4 PUSH3 0x2912 PUSH1 0x1 PUSH3 0x303 PUSH3 0x2EEE SWAP7 PUSH3 0x327 PUSH1 0x20 SWAP11 SWAP8 PUSH3 0x28FD PUSH8 0xDE0B6B3A7640000 PUSH1 0x4 SWAP16 SWAP15 SWAP13 PUSH3 0x14A3 SWAP11 PUSH3 0x28F4 SWAP2 PUSH3 0x31A8 JUMP JUMPDEST MLOAD SWAP2 PUSH1 0x40 MLOAD SWAP4 DUP5 DUP1 SWAP3 PUSH4 0x6B5488DF PUSH1 0xE0 SHL DUP3 MSTORE GAS STATICCALL SWAP1 DUP2 ISZERO PUSH3 0xB73 JUMPI DUP7 SWAP2 PUSH3 0x2F35 JUMPI JUMPDEST PUSH3 0x2F21 SWAP3 POP LT ISZERO PUSH3 0x3206 JUMP JUMPDEST PUSH3 0x2F2F DUP3 DUP3 LT ISZERO PUSH3 0x3206 JUMP JUMPDEST PUSH3 0x2D7A JUMP JUMPDEST SWAP1 POP PUSH1 0x20 DUP3 RETURNDATASIZE PUSH1 0x20 GT PUSH3 0x2F69 JUMPI JUMPDEST DUP2 PUSH3 0x2F53 PUSH1 0x20 SWAP4 DUP4 PUSH3 0x30DF JUMP JUMPDEST DUP2 ADD SUB SLT PUSH3 0x2B49 JUMPI PUSH3 0x2F21 SWAP2 MLOAD SWAP1 PUSH3 0x2F13 JUMP JUMPDEST RETURNDATASIZE SWAP2 POP PUSH3 0x2F44 JUMP JUMPDEST SWAP1 POP PUSH1 0x20 DUP2 RETURNDATASIZE PUSH1 0x20 GT PUSH3 0x2FA1 JUMPI JUMPDEST DUP2 PUSH3 0x2F90 PUSH1 0x20 SWAP4 DUP4 PUSH3 0x30DF JUMP JUMPDEST DUP2 ADD SUB SLT PUSH3 0x2A18 JUMPI MLOAD PUSH0 PUSH3 0x2E98 JUMP JUMPDEST RETURNDATASIZE SWAP2 POP PUSH3 0x2F81 JUMP JUMPDEST SWAP1 POP PUSH1 0x20 DUP2 RETURNDATASIZE PUSH1 0x20 GT PUSH3 0x2FD9 JUMPI JUMPDEST DUP2 PUSH3 0x2FC8 PUSH1 0x20 SWAP4 DUP4 PUSH3 0x30DF JUMP JUMPDEST DUP2 ADD SUB SLT PUSH3 0x2A18 JUMPI MLOAD PUSH0 PUSH3 0x2E36 JUMP JUMPDEST RETURNDATASIZE SWAP2 POP PUSH3 0x2FB9 JUMP JUMPDEST POP PUSH1 0x20 DUP2 RETURNDATASIZE PUSH1 0x20 GT PUSH3 0x3014 JUMPI JUMPDEST DUP2 PUSH3 0x2FFF PUSH1 0x20 SWAP4 DUP4 PUSH3 0x30DF JUMP JUMPDEST DUP2 ADD SUB SLT PUSH3 0x29DC JUMPI PUSH3 0x2E10 SWAP1 MLOAD PUSH3 0x2E03 JUMP JUMPDEST RETURNDATASIZE SWAP2 POP PUSH3 0x2FF0 JUMP JUMPDEST PUSH3 0x303B SWAP2 SWAP5 POP PUSH1 0x40 RETURNDATASIZE PUSH1 0x40 GT PUSH3 0x4FC JUMPI PUSH3 0x4EA DUP2 DUP4 PUSH3 0x30DF JUMP JUMPDEST POP SWAP3 PUSH0 PUSH3 0x2D5C JUMP JUMPDEST SWAP1 SWAP6 POP PUSH1 0x20 DUP2 RETURNDATASIZE PUSH1 0x20 GT PUSH3 0x307A JUMPI JUMPDEST DUP2 PUSH3 0x3063 PUSH1 0x20 SWAP4 DUP4 PUSH3 0x30DF JUMP JUMPDEST DUP2 ADD SUB SLT PUSH3 0x3076 JUMPI MLOAD SWAP5 PUSH1 0x40 PUSH3 0x2D2D JUMP JUMPDEST DUP4 DUP1 REVERT JUMPDEST RETURNDATASIZE SWAP2 POP PUSH3 0x3054 JUMP JUMPDEST PUSH3 0x309F SWAP1 PUSH1 0x20 RETURNDATASIZE PUSH1 0x20 GT PUSH3 0xBED JUMPI PUSH3 0xBDC DUP2 DUP4 PUSH3 0x30DF JUMP JUMPDEST POP PUSH0 PUSH3 0x2CA7 JUMP JUMPDEST SWAP1 POP PUSH1 0x20 DUP2 RETURNDATASIZE PUSH1 0x20 GT PUSH3 0x30D6 JUMPI JUMPDEST DUP2 PUSH3 0x30C5 PUSH1 0x20 SWAP4 DUP4 PUSH3 0x30DF JUMP JUMPDEST DUP2 ADD SUB SLT PUSH3 0x29A0 JUMPI MLOAD PUSH0 PUSH3 0x2C2B JUMP JUMPDEST RETURNDATASIZE SWAP2 POP PUSH3 0x30B6 JUMP JUMPDEST SWAP1 PUSH1 0x1F DUP1 NOT SWAP2 ADD AND DUP2 ADD SWAP1 DUP2 LT PUSH8 0xFFFFFFFFFFFFFFFF DUP3 GT OR PUSH3 0x3102 JUMPI PUSH1 0x40 MSTORE JUMP JUMPDEST PUSH4 0x4E487B71 PUSH1 0xE0 SHL PUSH0 MSTORE PUSH1 0x41 PUSH1 0x4 MSTORE PUSH1 0x24 PUSH0 REVERT JUMPDEST DUP2 ISZERO PUSH3 0x3121 JUMPI MOD SWAP1 JUMP JUMPDEST PUSH4 0x4E487B71 PUSH1 0xE0 SHL PUSH0 MSTORE PUSH1 0x12 PUSH1 0x4 MSTORE PUSH1 0x24 PUSH0 REVERT JUMPDEST PUSH1 0x1 PUSH1 0x1 PUSH1 0x60 SHL SUB DUP1 SWAP2 AND SWAP1 DUP2 EQ PUSH3 0x314E JUMPI PUSH1 0x1 ADD SWAP1 JUMP JUMPDEST PUSH4 0x4E487B71 PUSH1 0xE0 SHL PUSH0 MSTORE PUSH1 0x11 PUSH1 0x4 MSTORE PUSH1 0x24 PUSH0 REVERT JUMPDEST PUSH0 NOT DUP2 EQ PUSH3 0x314E JUMPI PUSH1 0x1 ADD SWAP1 JUMP JUMPDEST SWAP2 SWAP1 DUP3 PUSH1 0x40 SWAP2 SUB SLT PUSH3 0x3DE JUMPI DUP2 MLOAD PUSH1 0x20 SWAP1 SWAP3 ADD MLOAD PUSH1 0x1 PUSH1 0x1 PUSH1 0xA0 SHL SUB DUP2 AND DUP2 SUB PUSH3 0x3DE JUMPI SWAP1 JUMP JUMPDEST SWAP2 SWAP1 DUP3 ADD DUP1 SWAP3 GT PUSH3 0x314E JUMPI JUMP JUMPDEST DUP2 DUP2 MUL SWAP3 SWAP2 DUP2 ISZERO SWAP2 DUP5 DIV EQ OR ISZERO PUSH3 0x314E JUMPI JUMP JUMPDEST SWAP1 DUP2 PUSH1 0x20 SWAP2 SUB SLT PUSH3 0x3DE JUMPI MLOAD DUP1 ISZERO ISZERO DUP2 SUB PUSH3 0x3DE JUMPI SWAP1 JUMP JUMPDEST DUP2 ISZERO PUSH3 0x3121 JUMPI DIV SWAP1 JUMP JUMPDEST SWAP2 SWAP1 DUP3 PUSH1 0x40 SWAP2 SUB SLT PUSH3 0x3DE JUMPI PUSH1 0x20 DUP3 MLOAD SWAP3 ADD MLOAD SWAP1 JUMP JUMPDEST SWAP2 SWAP1 DUP3 SUB SWAP2 DUP3 GT PUSH3 0x314E JUMPI JUMP JUMPDEST ISZERO PUSH3 0x320E JUMPI JUMP JUMPDEST PUSH4 0x4E487B71 PUSH1 0xE0 SHL PUSH0 MSTORE PUSH1 0x1 PUSH1 0x4 MSTORE PUSH1 0x24 PUSH0 REVERT JUMPDEST SWAP1 DUP2 PUSH1 0x20 SWAP2 SUB SLT PUSH3 0x3DE JUMPI MLOAD PUSH1 0x1 PUSH1 0x1 PUSH1 0xA0 SHL SUB DUP2 AND DUP2 SUB PUSH3 0x3DE JUMPI SWAP1 JUMP JUMPDEST SWAP1 DUP2 PUSH1 0x60 SWAP2 SUB SLT PUSH3 0x3DE JUMPI DUP1 MLOAD SWAP2 PUSH1 0x40 PUSH1 0x20 DUP4 ADD MLOAD SWAP3 ADD MLOAD SWAP1 JUMP JUMPDEST DUP2 DUP2 SUB SWAP3 SWAP2 PUSH0 SGT DUP1 ISZERO DUP3 DUP6 SGT AND SWAP2 DUP5 SLT AND OR PUSH3 0x314E JUMPI JUMP JUMPDEST PUSH1 0x40 MLOAD SWAP1 PUSH3 0x3289 PUSH1 0xA0 DUP4 PUSH3 0x30DF JUMP JUMPDEST PUSH0 PUSH1 0x80 DUP4 DUP3 DUP2 MSTORE DUP3 PUSH1 0x20 DUP3 ADD MSTORE DUP3 PUSH1 0x40 DUP3 ADD MSTORE DUP3 PUSH1 0x60 DUP3 ADD MSTORE ADD MSTORE JUMP JUMPDEST PUSH3 0x32B0 PUSH3 0x3278 JUMP JUMPDEST POP PUSH0 DUP1 SLOAD PUSH1 0x40 DUP1 MLOAD PUSH4 0x104DF9AB PUSH1 0xE3 SHL DUP2 MSTORE SWAP3 SWAP2 PUSH1 0x20 SWAP2 PUSH1 0x1 PUSH1 0x1 PUSH1 0xA0 SHL SUB SWAP2 DUP3 AND DUP4 DUP7 PUSH1 0x4 DUP2 DUP5 GAS STATICCALL SWAP6 DUP7 ISZERO PUSH3 0x34AC JUMPI DUP6 SWAP7 PUSH3 0x34B6 JUMPI JUMPDEST POP DUP4 PUSH1 0x4 SWAP2 DUP4 MLOAD SWAP3 DUP4 DUP1 SWAP3 PUSH3 0xFD86ED PUSH1 0xE5 SHL DUP3 MSTORE GAS STATICCALL SWAP1 DUP2 ISZERO PUSH3 0x34AC JUMPI DUP6 SWAP2 PUSH3 0x3479 JUMPI JUMPDEST POP DUP3 PUSH1 0x6 SLOAD AND SWAP4 DUP3 MLOAD SWAP4 PUSH4 0x70A08231 PUSH1 0xE0 SHL SWAP1 DUP2 DUP7 MSTORE ADDRESS PUSH1 0x4 DUP8 ADD MSTORE DUP3 DUP7 PUSH1 0x24 DUP2 DUP11 GAS STATICCALL SWAP6 DUP7 ISZERO PUSH3 0x343A JUMPI DUP9 SWAP7 PUSH3 0x3444 JUMPI JUMPDEST POP DUP3 DUP2 PUSH1 0x9 SLOAD AND PUSH1 0x24 DUP8 MLOAD DUP1 SWAP11 DUP2 SWAP4 DUP8 DUP4 MSTORE PUSH1 0x4 DUP4 ADD MSTORE GAS STATICCALL SWAP7 DUP8 ISZERO PUSH3 0x343A JUMPI DUP9 SWAP8 PUSH3 0x3401 JUMPI JUMPDEST POP DUP3 SWAP1 PUSH1 0x5 SLOAD AND SWAP2 PUSH1 0x24 DUP7 MLOAD DUP1 SWAP5 DUP2 SWAP4 DUP3 MSTORE ADDRESS PUSH1 0x4 DUP4 ADD MSTORE GAS STATICCALL SWAP7 DUP8 ISZERO PUSH3 0x33F6 JUMPI DUP1 SWAP8 PUSH3 0x33BE JUMPI JUMPDEST POP POP DUP3 MLOAD SWAP7 PUSH3 0x33A9 PUSH1 0xA0 DUP10 PUSH3 0x30DF JUMP JUMPDEST DUP8 MSTORE DUP7 ADD MSTORE DUP5 ADD MSTORE PUSH1 0x60 DUP4 ADD MSTORE PUSH1 0x80 DUP3 ADD MSTORE SWAP1 JUMP JUMPDEST SWAP1 SWAP2 DUP1 SWAP8 POP DUP3 DUP2 RETURNDATASIZE DUP4 GT PUSH3 0x33EE JUMPI JUMPDEST PUSH3 0x33DA DUP2 DUP4 PUSH3 0x30DF JUMP JUMPDEST DUP2 ADD SUB SLT PUSH3 0x5D1 JUMPI POP MLOAD SWAP5 PUSH0 DUP1 PUSH3 0x3397 JUMP JUMPDEST POP RETURNDATASIZE PUSH3 0x33CE JUMP JUMPDEST DUP5 MLOAD SWAP1 RETURNDATASIZE SWAP1 DUP3 RETURNDATACOPY RETURNDATASIZE SWAP1 REVERT JUMPDEST SWAP1 SWAP7 POP DUP3 DUP2 DUP2 RETURNDATASIZE DUP4 GT PUSH3 0x3432 JUMPI JUMPDEST PUSH3 0x341C DUP2 DUP4 PUSH3 0x30DF JUMP JUMPDEST DUP2 ADD SUB SLT PUSH3 0x342E JUMPI MLOAD SWAP6 DUP3 PUSH3 0x336D JUMP JUMPDEST DUP8 DUP1 REVERT JUMPDEST POP RETURNDATASIZE PUSH3 0x3410 JUMP JUMPDEST DUP6 MLOAD RETURNDATASIZE DUP11 DUP3 RETURNDATACOPY RETURNDATASIZE SWAP1 REVERT JUMPDEST SWAP1 SWAP6 POP DUP3 DUP2 DUP2 RETURNDATASIZE DUP4 GT PUSH3 0x3471 JUMPI JUMPDEST PUSH3 0x345F DUP2 DUP4 PUSH3 0x30DF JUMP JUMPDEST DUP2 ADD SUB SLT PUSH3 0x342E JUMPI MLOAD SWAP5 PUSH0 PUSH3 0x3344 JUMP JUMPDEST POP RETURNDATASIZE PUSH3 0x3453 JUMP JUMPDEST SWAP1 POP DUP4 DUP2 DUP2 RETURNDATASIZE DUP4 GT PUSH3 0x34A4 JUMPI JUMPDEST PUSH3 0x3493 DUP2 DUP4 PUSH3 0x30DF JUMP JUMPDEST DUP2 ADD SUB SLT PUSH3 0x29A0 JUMPI MLOAD PUSH0 PUSH3 0x3310 JUMP JUMPDEST POP RETURNDATASIZE PUSH3 0x3487 JUMP JUMPDEST DUP3 MLOAD RETURNDATASIZE DUP8 DUP3 RETURNDATACOPY RETURNDATASIZE SWAP1 REVERT JUMPDEST SWAP1 SWAP6 POP DUP4 DUP2 DUP2 RETURNDATASIZE DUP4 GT PUSH3 0x34E3 JUMPI JUMPDEST PUSH3 0x34D1 DUP2 DUP4 PUSH3 0x30DF JUMP JUMPDEST DUP2 ADD SUB SLT PUSH3 0x29A0 JUMPI MLOAD SWAP5 DUP4 PUSH3 0x32EA JUMP JUMPDEST POP RETURNDATASIZE PUSH3 0x34C5 JUMP JUMPDEST PUSH3 0x34F5 PUSH3 0x3278 JUMP JUMPDEST POP PUSH0 DUP1 SLOAD PUSH1 0x40 DUP1 MLOAD PUSH4 0x104DF9AB PUSH1 0xE3 SHL DUP2 MSTORE SWAP4 PUSH1 0x1 PUSH1 0x1 PUSH1 0xA0 SHL SUB SWAP3 DUP4 AND SWAP3 SWAP2 SWAP1 PUSH1 0x20 SWAP1 DUP2 DUP8 PUSH1 0x4 DUP2 DUP9 GAS STATICCALL SWAP7 DUP8 ISZERO PUSH3 0x36A2 JUMPI DUP7 SWAP8 PUSH3 0x36AC JUMPI JUMPDEST POP SWAP1 DUP1 DUP5 SWAP3 PUSH1 0x24 DUP6 MLOAD DUP1 SWAP6 DUP2 SWAP4 PUSH4 0x3EB76909 PUSH1 0xE2 SHL DUP4 MSTORE AND SWAP9 DUP10 PUSH1 0x4 DUP4 ADD MSTORE GAS STATICCALL SWAP2 DUP3 ISZERO PUSH3 0x36A2 JUMPI DUP7 SWAP3 PUSH3 0x366D JUMPI JUMPDEST POP DUP4 PUSH1 0x6 SLOAD AND SWAP5 DUP4 MLOAD SWAP5 PUSH4 0x70A08231 PUSH1 0xE0 SHL SWAP1 DUP2 DUP8 MSTORE ADDRESS PUSH1 0x4 DUP9 ADD MSTORE DUP4 DUP8 PUSH1 0x24 DUP2 DUP12 GAS STATICCALL SWAP7 DUP8 ISZERO PUSH3 0x3663 JUMPI DUP10 SWAP8 PUSH3 0x362A JUMPI JUMPDEST POP DUP4 SWAP1 PUSH1 0x9 SLOAD AND PUSH1 0x24 DUP8 MLOAD DUP1 SWAP11 DUP2 SWAP4 DUP7 DUP4 MSTORE PUSH1 0x4 DUP4 ADD MSTORE GAS STATICCALL SWAP7 DUP8 ISZERO PUSH3 0x343A JUMPI DUP9 SWAP8 PUSH3 0x35F5 JUMPI JUMPDEST POP DUP3 SWAP1 PUSH1 0x24 DUP7 MLOAD DUP1 SWAP5 DUP2 SWAP4 DUP3 MSTORE ADDRESS PUSH1 0x4 DUP4 ADD MSTORE GAS STATICCALL SWAP7 DUP8 ISZERO PUSH3 0x33F6 JUMPI DUP1 SWAP8 PUSH3 0x33BE JUMPI POP POP DUP3 MLOAD SWAP7 PUSH3 0x33A9 PUSH1 0xA0 DUP10 PUSH3 0x30DF JUMP JUMPDEST SWAP1 SWAP7 POP DUP3 DUP2 DUP2 RETURNDATASIZE DUP4 GT PUSH3 0x3622 JUMPI JUMPDEST PUSH3 0x3610 DUP2 DUP4 PUSH3 0x30DF JUMP JUMPDEST DUP2 ADD SUB SLT PUSH3 0x342E JUMPI MLOAD SWAP6 DUP3 PUSH3 0x35BF JUMP JUMPDEST POP RETURNDATASIZE PUSH3 0x3604 JUMP JUMPDEST SWAP1 SWAP7 POP DUP4 DUP2 DUP2 RETURNDATASIZE DUP4 GT PUSH3 0x365B JUMPI JUMPDEST PUSH3 0x3645 DUP2 DUP4 PUSH3 0x30DF JUMP JUMPDEST DUP2 ADD SUB SLT PUSH3 0x3657 JUMPI MLOAD SWAP6 DUP4 PUSH3 0x3596 JUMP JUMPDEST DUP9 DUP1 REVERT JUMPDEST POP RETURNDATASIZE PUSH3 0x3639 JUMP JUMPDEST DUP7 MLOAD RETURNDATASIZE DUP12 DUP3 RETURNDATACOPY RETURNDATASIZE SWAP1 REVERT JUMPDEST SWAP1 DUP1 SWAP3 POP DUP2 DUP2 RETURNDATASIZE DUP4 GT PUSH3 0x369A JUMPI JUMPDEST PUSH3 0x3688 DUP2 DUP4 PUSH3 0x30DF JUMP JUMPDEST DUP2 ADD SUB SLT PUSH3 0x2B49 JUMPI MLOAD SWAP1 PUSH0 PUSH3 0x3562 JUMP JUMPDEST POP RETURNDATASIZE PUSH3 0x367C JUMP JUMPDEST DUP4 MLOAD RETURNDATASIZE DUP9 DUP3 RETURNDATACOPY RETURNDATASIZE SWAP1 REVERT JUMPDEST SWAP1 SWAP7 POP DUP2 DUP2 DUP2 RETURNDATASIZE DUP4 GT PUSH3 0x36D9 JUMPI JUMPDEST PUSH3 0x36C7 DUP2 DUP4 PUSH3 0x30DF JUMP JUMPDEST DUP2 ADD SUB SLT PUSH3 0x2B49 JUMPI MLOAD SWAP6 DUP2 PUSH3 0x3531 JUMP JUMPDEST POP RETURNDATASIZE PUSH3 0x36BB JUMP JUMPDEST SWAP2 SWAP1 DUP3 ISZERO PUSH3 0x370C JUMPI PUSH3 0x36F9 DUP2 DUP5 MUL SWAP4 DUP5 PUSH3 0x31D6 JUMP JUMPDEST SUB PUSH3 0x3705 JUMPI PUSH1 0x1 SWAP2 SWAP1 JUMP JUMPDEST PUSH0 SWAP2 POP DUP2 SWAP1 JUMP JUMPDEST POP PUSH1 0x1 SWAP2 POP PUSH0 SWAP1 JUMP INVALID PUSH1 0x80 PUSH1 0x40 MSTORE PUSH2 0x3F1 DUP1 CODESIZE SUB DUP1 PUSH2 0x14 DUP2 PUSH2 0x1F9 JUMP JUMPDEST SWAP3 DUP4 CODECOPY DUP2 ADD SWAP1 PUSH1 0x40 DUP2 DUP4 SUB SLT PUSH2 0x1F5 JUMPI DUP1 MLOAD SWAP1 PUSH1 0x1 PUSH1 0x1 PUSH1 0xA0 SHL SUB DUP3 AND DUP1 DUP4 SUB PUSH2 0x1F5 JUMPI PUSH1 0x20 DUP3 DUP2 ADD MLOAD SWAP1 SWAP3 PUSH1 0x1 PUSH1 0x1 PUSH1 0x40 SHL SUB DUP3 GT PUSH2 0x1F5 JUMPI ADD SWAP3 DUP5 PUSH1 0x1F DUP6 ADD SLT ISZERO PUSH2 0x1F5 JUMPI DUP4 MLOAD SWAP4 PUSH2 0x6F PUSH2 0x6A DUP7 PUSH2 0x232 JUMP JUMPDEST PUSH2 0x1F9 JUMP JUMPDEST SWAP5 DUP1 DUP7 MSTORE DUP5 DUP7 ADD SWAP7 DUP6 DUP3 DUP5 ADD ADD GT PUSH2 0x1F5 JUMPI DUP7 DUP6 PUSH2 0x8D SWAP4 ADD PUSH2 0x24D JUMP JUMPDEST DUP1 EXTCODESIZE ISZERO PUSH2 0x19A JUMPI PUSH32 0x360894A13BA1A3210667C828492DB98DCA3E2076CC3735A920A3CA505D382BBC DUP1 SLOAD PUSH1 0x1 PUSH1 0x1 PUSH1 0xA0 SHL SUB NOT AND DUP4 OR SWAP1 SSTORE PUSH0 SWAP2 PUSH32 0xBC7CD75A20EE27FD9ADEBAB32041F755214DBC6BFFA90CC0225B39DA2E5C2D3B DUP4 DUP1 LOG2 DUP4 MLOAD ISZERO DUP1 ISZERO SWAP1 PUSH2 0x193 JUMPI JUMPDEST PUSH2 0x109 JUMPI JUMPDEST PUSH1 0x40 MLOAD PUSH1 0xCF SWAP1 DUP2 PUSH2 0x322 DUP3 CODECOPY RETURN JUMPDEST DUP2 DUP1 PUSH2 0x17E SWAP7 PUSH2 0x11C PUSH2 0x6A PUSH1 0x27 PUSH2 0x232 JUMP JUMPDEST SWAP7 PUSH1 0x27 DUP9 MSTORE PUSH32 0x416464726573733A206C6F772D6C6576656C2064656C65676174652063616C6C DUP8 DUP10 ADD MSTORE PUSH7 0x819985A5B1959 PUSH1 0xCA SHL PUSH1 0x40 DUP10 ADD MSTORE MLOAD SWAP1 DUP5 GAS DELEGATECALL SWAP2 RETURNDATASIZE ISZERO PUSH2 0x189 JUMPI RETURNDATASIZE SWAP1 PUSH2 0x170 PUSH2 0x6A DUP4 PUSH2 0x232 JUMP JUMPDEST SWAP2 DUP3 MSTORE DUP2 SWAP5 RETURNDATASIZE SWAP3 ADD RETURNDATACOPY PUSH2 0x26E JUMP JUMPDEST POP PUSH0 DUP1 DUP1 DUP1 DUP1 PUSH2 0xFB JUMP JUMPDEST POP PUSH1 0x60 SWAP3 POP PUSH2 0x26E JUMP JUMPDEST POP DUP2 PUSH2 0xF6 JUMP JUMPDEST PUSH1 0x40 MLOAD PUSH3 0x461BCD PUSH1 0xE5 SHL DUP2 MSTORE PUSH1 0x4 DUP2 ADD DUP5 SWAP1 MSTORE PUSH1 0x2D PUSH1 0x24 DUP3 ADD MSTORE PUSH32 0x455243313936373A206E657720696D706C656D656E746174696F6E206973206E PUSH1 0x44 DUP3 ADD MSTORE PUSH13 0x1BDD08184818DBDB9D1C9858DD PUSH1 0x9A SHL PUSH1 0x64 DUP3 ADD MSTORE PUSH1 0x84 SWAP1 REVERT JUMPDEST PUSH0 DUP1 REVERT JUMPDEST PUSH1 0x40 MLOAD SWAP2 SWAP1 PUSH1 0x1F ADD PUSH1 0x1F NOT AND DUP3 ADD PUSH1 0x1 PUSH1 0x1 PUSH1 0x40 SHL SUB DUP2 GT DUP4 DUP3 LT OR PUSH2 0x21E JUMPI PUSH1 0x40 MSTORE JUMP JUMPDEST PUSH4 0x4E487B71 PUSH1 0xE0 SHL PUSH0 MSTORE PUSH1 0x41 PUSH1 0x4 MSTORE PUSH1 0x24 PUSH0 REVERT JUMPDEST PUSH1 0x1 PUSH1 0x1 PUSH1 0x40 SHL SUB DUP2 GT PUSH2 0x21E JUMPI PUSH1 0x1F ADD PUSH1 0x1F NOT AND PUSH1 0x20 ADD SWAP1 JUMP JUMPDEST PUSH0 JUMPDEST DUP4 DUP2 LT PUSH2 0x25E JUMPI POP POP PUSH0 SWAP2 ADD MSTORE JUMP JUMPDEST DUP2 DUP2 ADD MLOAD DUP4 DUP3 ADD MSTORE PUSH1 0x20 ADD PUSH2 0x24F JUMP JUMPDEST SWAP2 SWAP3 SWAP1 ISZERO PUSH2 0x2D0 JUMPI POP DUP2 MLOAD ISZERO PUSH2 0x282 JUMPI POP SWAP1 JUMP JUMPDEST EXTCODESIZE ISZERO PUSH2 0x28B JUMPI SWAP1 JUMP JUMPDEST PUSH1 0x40 MLOAD PUSH3 0x461BCD PUSH1 0xE5 SHL DUP2 MSTORE PUSH1 0x20 PUSH1 0x4 DUP3 ADD MSTORE PUSH1 0x1D PUSH1 0x24 DUP3 ADD MSTORE PUSH32 0x416464726573733A2063616C6C20746F206E6F6E2D636F6E7472616374000000 PUSH1 0x44 DUP3 ADD MSTORE PUSH1 0x64 SWAP1 REVERT JUMPDEST DUP3 MLOAD SWAP1 SWAP2 POP ISZERO PUSH2 0x2E3 JUMPI POP DUP1 MLOAD SWAP1 PUSH1 0x20 ADD REVERT JUMPDEST PUSH1 0x44 PUSH1 0x40 MLOAD DUP1 SWAP3 PUSH3 0x461BCD PUSH1 0xE5 SHL DUP3 MSTORE PUSH1 0x20 PUSH1 0x4 DUP4 ADD MSTORE PUSH2 0x313 DUP2 MLOAD DUP1 SWAP3 DUP2 PUSH1 0x24 DUP7 ADD MSTORE PUSH1 0x20 DUP7 DUP7 ADD SWAP2 ADD PUSH2 0x24D JUMP JUMPDEST PUSH1 0x1F ADD PUSH1 0x1F NOT AND DUP2 ADD SUB ADD SWAP1 REVERT INVALID PUSH1 0x80 PUSH1 0x40 MSTORE CALLDATASIZE ISZERO PUSH1 0x53 JUMPI PUSH32 0x360894A13BA1A3210667C828492DB98DCA3E2076CC3735A920A3CA505D382BBC SLOAD PUSH0 SWAP1 DUP2 SWAP1 DUP2 SWAP1 PUSH1 0x1 PUSH1 0x1 PUSH1 0xA0 SHL SUB AND CALLDATASIZE DUP3 DUP1 CALLDATACOPY DUP2 CALLDATASIZE SWAP2 GAS DELEGATECALL RETURNDATASIZE DUP3 DUP1 RETURNDATACOPY ISZERO PUSH1 0x4F JUMPI RETURNDATASIZE SWAP1 RETURN JUMPDEST RETURNDATASIZE SWAP1 REVERT JUMPDEST PUSH32 0x360894A13BA1A3210667C828492DB98DCA3E2076CC3735A920A3CA505D382BBC SLOAD PUSH0 SWAP1 DUP2 SWAP1 DUP2 SWAP1 PUSH1 0x1 PUSH1 0x1 PUSH1 0xA0 SHL SUB AND CALLDATASIZE DUP3 DUP1 CALLDATACOPY DUP2 CALLDATASIZE SWAP2 GAS DELEGATECALL RETURNDATASIZE DUP3 DUP1 RETURNDATACOPY ISZERO PUSH1 0x4F JUMPI RETURNDATASIZE SWAP1 RETURN INVALID LOG2 PUSH5 0x6970667358 0x22 SLT KECCAK256 0xDE PUSH5 0x7715AF36D3 PUSH28 0xD4338C8BC5FDC840CCFFCDE6980353487EAC0F6B7218455B64736F6C PUSH4 0x43000814 STOP CALLER PUSH1 0x80 CALLVALUE PUSH2 0x5C JUMPI PUSH1 0x1F PUSH2 0x194 CODESIZE DUP2 SWAP1 SUB SWAP2 DUP3 ADD PUSH1 0x1F NOT AND DUP4 ADD SWAP2 PUSH1 0x1 PUSH1 0x1 PUSH1 0x40 SHL SUB DUP4 GT DUP5 DUP5 LT OR PUSH2 0x60 JUMPI DUP1 DUP5 SWAP3 PUSH1 0x20 SWAP5 PUSH1 0x40 MSTORE DUP4 CODECOPY DUP2 ADD SUB SLT PUSH2 0x5C JUMPI MLOAD PUSH0 SSTORE PUSH1 0x1 PUSH1 0xFF NOT DUP2 SLOAD AND OR PUSH1 0x1 SSTORE PUSH1 0x40 MLOAD PUSH2 0x11F SWAP1 DUP2 PUSH2 0x75 DUP3 CODECOPY RETURN JUMPDEST PUSH0 DUP1 REVERT JUMPDEST PUSH4 0x4E487B71 PUSH1 0xE0 SHL PUSH0 MSTORE PUSH1 0x41 PUSH1 0x4 MSTORE PUSH1 0x24 PUSH0 REVERT INVALID PUSH1 0x80 DUP1 PUSH1 0x40 MSTORE PUSH1 0x4 CALLDATASIZE LT ISZERO PUSH1 0x11 JUMPI PUSH0 DUP1 REVERT JUMPDEST PUSH0 SWAP1 DUP2 CALLDATALOAD PUSH1 0xE0 SHR SWAP1 DUP2 PUSH4 0x2A3F4389 EQ PUSH1 0xCD JUMPI POP DUP1 PUSH4 0x32145F90 EQ PUSH1 0xB5 JUMPI DUP1 PUSH4 0x5095E3D9 EQ PUSH1 0x99 JUMPI DUP1 PUSH4 0x59E02DD7 EQ PUSH1 0x72 JUMPI PUSH4 0xB689D5AC EQ PUSH1 0x4F JUMPI PUSH0 DUP1 REVERT JUMPDEST CALLVALUE PUSH1 0x6F JUMPI DUP1 PUSH1 0x3 NOT CALLDATASIZE ADD SLT PUSH1 0x6F JUMPI PUSH1 0x20 PUSH1 0xFF PUSH1 0x1 SLOAD AND PUSH1 0x40 MLOAD SWAP1 ISZERO ISZERO DUP2 MSTORE RETURN JUMPDEST DUP1 REVERT JUMPDEST POP CALLVALUE PUSH1 0x6F JUMPI DUP1 PUSH1 0x3 NOT CALLDATASIZE ADD SLT PUSH1 0x6F JUMPI PUSH1 0x40 SWAP1 SLOAD PUSH1 0xFF PUSH1 0x1 SLOAD AND DUP3 MLOAD SWAP2 DUP3 MSTORE ISZERO ISZERO PUSH1 0x20 DUP3 ADD MSTORE RETURN JUMPDEST POP CALLVALUE PUSH1 0x6F JUMPI DUP1 PUSH1 0x3 NOT CALLDATASIZE ADD SLT PUSH1 0x6F JUMPI PUSH1 0xFF NOT PUSH1 0x1 SLOAD AND PUSH1 0x1 SSTORE DUP1 RETURN JUMPDEST POP CALLVALUE PUSH1 0x6F JUMPI PUSH1 0x20 CALLDATASIZE PUSH1 0x3 NOT ADD SLT PUSH1 0x6F JUMPI PUSH1 0x4 CALLDATALOAD DUP2 SSTORE DUP1 RETURN JUMPDEST SWAP1 POP CALLVALUE PUSH1 0xE5 JUMPI DUP2 PUSH1 0x3 NOT CALLDATASIZE ADD SLT PUSH1 0xE5 JUMPI PUSH1 0x20 SWAP2 SLOAD DUP2 MSTORE RETURN JUMPDEST POP DUP1 REVERT INVALID LOG2 PUSH5 0x6970667358 0x22 SLT KECCAK256 PUSH15 0x1E0FC7AD29F980198245451B1A3B2 PUSH5 0x767A2C4629 SUB ISZERO GASPRICE 0xC3 PUSH13 0xF1BF1CBBFC64736F6C63430008 EQ STOP CALLER PUSH1 0xA0 DUP1 PUSH1 0x40 MSTORE CALLVALUE PUSH2 0xDA JUMPI ADDRESS PUSH1 0x80 MSTORE PUSH0 SLOAD SWAP1 PUSH1 0xFF DUP3 PUSH1 0x8 SHR AND PUSH2 0x88 JUMPI POP PUSH1 0xFF DUP1 DUP3 AND SUB PUSH2 0x4E JUMPI JUMPDEST PUSH1 0x40 MLOAD PUSH2 0x217F SWAP1 DUP2 PUSH2 0xDF DUP3 CODECOPY PUSH1 0x80 MLOAD DUP2 DUP2 DUP2 PUSH2 0xC98 ADD MSTORE DUP2 DUP2 PUSH2 0xDB3 ADD MSTORE PUSH2 0xF8A ADD MSTORE RETURN JUMPDEST PUSH1 0xFF SWAP1 DUP2 NOT AND OR PUSH0 SSTORE PUSH32 0x7F26B83FF96E1F2B6A682F133852F6798A09C465DA95921460CEFB3847402498 PUSH1 0x20 PUSH1 0x40 MLOAD PUSH1 0xFF DUP2 MSTORE LOG1 PUSH0 PUSH2 0x28 JUMP JUMPDEST PUSH3 0x461BCD PUSH1 0xE5 SHL DUP2 MSTORE PUSH1 0x20 PUSH1 0x4 DUP3 ADD MSTORE PUSH1 0x27 PUSH1 0x24 DUP3 ADD MSTORE PUSH32 0x496E697469616C697A61626C653A20636F6E747261637420697320696E697469 PUSH1 0x44 DUP3 ADD MSTORE PUSH7 0x616C697A696E67 PUSH1 0xC8 SHL PUSH1 0x64 DUP3 ADD MSTORE PUSH1 0x84 SWAP1 REVERT JUMPDEST PUSH0 DUP1 REVERT INVALID PUSH1 0x80 PUSH1 0x40 SWAP1 DUP1 DUP3 MSTORE PUSH1 0x4 SWAP1 DUP2 CALLDATASIZE LT ISZERO PUSH2 0x16 JUMPI PUSH0 DUP1 REVERT JUMPDEST PUSH0 SWAP3 DUP4 CALLDATALOAD PUSH1 0xE0 SHR SWAP2 DUP3 PUSH4 0x1FFC9A7 EQ PUSH2 0x130D JUMPI POP DUP2 PUSH4 0x6FDDE03 EQ PUSH2 0x1263 JUMPI DUP2 PUSH4 0x95EA7B3 EQ PUSH2 0x122D JUMPI DUP2 PUSH4 0xC340A24 EQ PUSH2 0x1203 JUMPI DUP2 PUSH4 0x18160DDD EQ PUSH2 0x11E4 JUMPI DUP2 PUSH4 0x23B872DD EQ PUSH2 0x1111 JUMPI DUP2 PUSH4 0x248A9CA3 EQ PUSH2 0x10E5 JUMPI DUP2 PUSH4 0x2F2FF15D EQ PUSH2 0x109E JUMPI DUP2 PUSH4 0x313CE567 EQ PUSH2 0x1082 JUMPI DUP2 PUSH4 0x36568ABE EQ PUSH2 0xFEF JUMPI DUP4 DUP3 PUSH4 0x3659CFE6 EQ PUSH2 0xF58 JUMPI POP DUP2 PUSH4 0x39509351 EQ PUSH2 0xF06 JUMPI DUP2 PUSH4 0x40C10F19 EQ PUSH2 0xE16 JUMPI DUP2 PUSH4 0x4F1EF286 EQ PUSH2 0xD57 JUMPI DUP2 PUSH4 0x52D1902D EQ PUSH2 0xC83 JUMPI DUP2 PUSH4 0x70A08231 EQ PUSH2 0xC48 JUMPI DUP2 PUSH4 0x83D2230D EQ PUSH2 0xB0D JUMPI DUP2 PUSH4 0x8F15B414 EQ PUSH2 0x639 JUMPI DUP2 PUSH4 0x9010D07C EQ PUSH2 0x5F7 JUMPI DUP2 PUSH4 0x91D14854 EQ PUSH2 0x5AB JUMPI DUP2 PUSH4 0x95D89B41 EQ PUSH2 0x4CA JUMPI DUP2 PUSH4 0x9DC29FAC EQ PUSH2 0x37C JUMPI DUP2 PUSH4 0xA217FDDF EQ PUSH2 0x361 JUMPI DUP2 PUSH4 0xA457C2D7 EQ PUSH2 0x2B8 JUMPI DUP2 PUSH4 0xA9059CBB EQ PUSH2 0x278 JUMPI DUP2 PUSH4 0xCA15C873 EQ PUSH2 0x24F JUMPI DUP2 PUSH4 0xD547741F EQ PUSH2 0x205 JUMPI DUP2 PUSH4 0xDD62ED3E EQ PUSH2 0x1AB JUMPI POP PUSH4 0xE4C0AAF4 EQ PUSH2 0x164 JUMPI PUSH0 DUP1 REVERT JUMPDEST CALLVALUE PUSH2 0x1A7 JUMPI PUSH1 0x20 CALLDATASIZE PUSH1 0x3 NOT ADD SLT PUSH2 0x1A7 JUMPI CALLDATALOAD PUSH1 0x1 PUSH1 0x1 PUSH1 0xA0 SHL SUB DUP2 AND SWAP1 DUP2 SWAP1 SUB PUSH2 0x1A7 JUMPI PUSH2 0x190 PUSH2 0x204F JUMP JUMPDEST PUSH2 0x191 DUP1 SLOAD PUSH1 0x1 PUSH1 0x1 PUSH1 0xA0 SHL SUB NOT AND SWAP1 SWAP2 OR SWAP1 SSTORE DUP1 RETURN JUMPDEST POP DUP1 REVERT JUMPDEST SWAP2 SWAP1 POP CALLVALUE PUSH2 0x201 JUMPI DUP2 PUSH1 0x3 NOT CALLDATASIZE ADD SLT PUSH2 0x201 JUMPI PUSH1 0x1 PUSH1 0x1 PUSH1 0xA0 SHL SUB SWAP1 CALLDATALOAD DUP2 DUP2 AND SWAP1 DUP2 SWAP1 SUB PUSH2 0x1FD JUMPI PUSH1 0x24 CALLDATALOAD SWAP2 DUP3 AND DUP1 SWAP3 SUB PUSH2 0x1FD JUMPI SWAP3 DUP3 SWAP2 PUSH1 0x20 SWAP5 DUP3 MSTORE PUSH1 0xCA DUP6 MSTORE DUP3 DUP3 KECCAK256 SWAP1 DUP3 MSTORE DUP5 MSTORE KECCAK256 SLOAD SWAP1 MLOAD SWAP1 DUP2 MSTORE RETURN JUMPDEST DUP4 DUP1 REVERT JUMPDEST DUP3 DUP1 REVERT JUMPDEST SWAP2 SWAP1 POP CALLVALUE PUSH2 0x201 JUMPI DUP2 PUSH1 0x3 NOT CALLDATASIZE ADD SLT PUSH2 0x201 JUMPI PUSH1 0x24 CALLDATALOAD SWAP1 CALLDATALOAD PUSH1 0x1 PUSH1 0x1 PUSH1 0xA0 SHL SUB DUP3 AND DUP3 SUB PUSH2 0x1FD JUMPI PUSH2 0x247 PUSH1 0x1 PUSH2 0x24C SWAP5 DUP4 DUP8 MSTORE PUSH1 0x65 PUSH1 0x20 MSTORE DUP7 KECCAK256 ADD SLOAD PUSH2 0x14FE JUMP JUMPDEST PUSH2 0x15D9 JUMP JUMPDEST DUP1 RETURN JUMPDEST SWAP2 SWAP1 POP CALLVALUE PUSH2 0x201 JUMPI PUSH1 0x20 CALLDATASIZE PUSH1 0x3 NOT ADD SLT PUSH2 0x201 JUMPI PUSH1 0x20 SWAP3 DUP3 SWAP2 CALLDATALOAD DUP2 MSTORE PUSH1 0x97 DUP5 MSTORE KECCAK256 SLOAD SWAP1 MLOAD SWAP1 DUP2 MSTORE RETURN JUMPDEST SWAP2 SWAP1 POP CALLVALUE PUSH2 0x201 JUMPI DUP2 PUSH1 0x3 NOT CALLDATASIZE ADD SLT PUSH2 0x201 JUMPI CALLDATALOAD SWAP2 PUSH1 0x1 PUSH1 0x1 PUSH1 0xA0 SHL SUB DUP4 AND DUP4 SUB PUSH2 0x2B5 JUMPI POP PUSH2 0x2AE PUSH1 0x20 SWAP3 PUSH1 0x24 CALLDATALOAD SWAP1 CALLER PUSH2 0x1A76 JUMP JUMPDEST MLOAD PUSH1 0x1 DUP2 MSTORE RETURN JUMPDEST DUP1 REVERT JUMPDEST DUP3 DUP5 CALLVALUE PUSH2 0x2B5 JUMPI DUP3 PUSH1 0x3 NOT CALLDATASIZE ADD SLT PUSH2 0x2B5 JUMPI DUP2 CALLDATALOAD SWAP2 PUSH1 0x1 PUSH1 0x1 PUSH1 0xA0 SHL SUB DUP4 AND SWAP2 DUP3 DUP5 SUB PUSH2 0x2B5 JUMPI DUP5 SWAP1 PUSH1 0x24 CALLDATALOAD SWAP4 CALLER DUP3 MSTORE PUSH1 0xCA PUSH1 0x20 MSTORE DUP3 DUP3 KECCAK256 SWAP1 DUP3 MSTORE PUSH1 0x20 MSTORE KECCAK256 SLOAD SWAP1 DUP3 DUP3 LT PUSH2 0x310 JUMPI PUSH1 0x20 DUP6 PUSH2 0x2AE DUP6 DUP6 SUB DUP8 CALLER PUSH2 0x1BE5 JUMP JUMPDEST PUSH1 0x84 SWAP1 PUSH1 0x20 DUP7 MLOAD SWAP2 PUSH3 0x461BCD PUSH1 0xE5 SHL DUP4 MSTORE DUP3 ADD MSTORE PUSH1 0x25 PUSH1 0x24 DUP3 ADD MSTORE PUSH32 0x45524332303A2064656372656173656420616C6C6F77616E63652062656C6F77 PUSH1 0x44 DUP3 ADD MSTORE PUSH5 0x207A65726F PUSH1 0xD8 SHL PUSH1 0x64 DUP3 ADD MSTORE REVERT JUMPDEST DUP4 SWAP1 CALLVALUE PUSH2 0x1A7 JUMPI DUP2 PUSH1 0x3 NOT CALLDATASIZE ADD SLT PUSH2 0x1A7 JUMPI MLOAD SWAP1 DUP2 MSTORE PUSH1 0x20 SWAP1 RETURN JUMPDEST DUP4 DUP4 CALLVALUE PUSH2 0x1A7 JUMPI DUP3 PUSH1 0x3 NOT CALLDATASIZE ADD SLT PUSH2 0x1A7 JUMPI DUP1 CALLDATALOAD PUSH1 0x1 PUSH1 0x1 PUSH1 0xA0 SHL SUB DUP2 AND SWAP2 SWAP1 DUP3 SWAP1 SUB PUSH2 0x201 JUMPI PUSH1 0x24 CALLDATALOAD SWAP1 PUSH2 0x3D0 PUSH32 0x3C11D16CBAFFD01DF69CE1C404F6340EE057498F5F00246190EA54220576A848 PUSH2 0x14FE JUMP JUMPDEST DUP3 ISZERO PUSH2 0x47D JUMPI DUP3 DUP5 MSTORE PUSH1 0xC9 PUSH1 0x20 MSTORE DUP5 DUP5 KECCAK256 SLOAD SWAP1 DUP3 DUP3 LT PUSH2 0x42F JUMPI POP DUP2 DUP5 SWAP6 PUSH32 0xDDF252AD1BE2C89B69C2B068FC378DAA952BA7F163C4A11628F55A4DF523B3EF SWAP4 PUSH1 0x20 SWAP4 DUP7 DUP9 MSTORE PUSH1 0xC9 DUP6 MSTORE SUB DUP2 DUP8 KECCAK256 SSTORE DUP2 PUSH1 0xCB SLOAD SUB PUSH1 0xCB SSTORE MLOAD SWAP1 DUP2 MSTORE LOG3 DUP1 RETURN JUMPDEST PUSH1 0x84 SWAP1 PUSH1 0x20 DUP8 MLOAD SWAP2 PUSH3 0x461BCD PUSH1 0xE5 SHL DUP4 MSTORE DUP3 ADD MSTORE PUSH1 0x22 PUSH1 0x24 DUP3 ADD MSTORE PUSH32 0x45524332303A206275726E20616D6F756E7420657863656564732062616C616E PUSH1 0x44 DUP3 ADD MSTORE PUSH2 0x6365 PUSH1 0xF0 SHL PUSH1 0x64 DUP3 ADD MSTORE REVERT JUMPDEST PUSH1 0x84 SWAP1 PUSH1 0x20 DUP7 MLOAD SWAP2 PUSH3 0x461BCD PUSH1 0xE5 SHL DUP4 MSTORE DUP3 ADD MSTORE PUSH1 0x21 PUSH1 0x24 DUP3 ADD MSTORE PUSH32 0x45524332303A206275726E2066726F6D20746865207A65726F20616464726573 PUSH1 0x44 DUP3 ADD MSTORE PUSH1 0x73 PUSH1 0xF8 SHL PUSH1 0x64 DUP3 ADD MSTORE REVERT JUMPDEST DUP4 SWAP1 CALLVALUE PUSH2 0x1A7 JUMPI DUP2 PUSH1 0x3 NOT CALLDATASIZE ADD SLT PUSH2 0x1A7 JUMPI DUP1 MLOAD SWAP1 DUP3 PUSH1 0xCD SLOAD PUSH2 0x4EC DUP2 PUSH2 0x1A1D JUMP JUMPDEST DUP1 DUP6 MSTORE SWAP2 PUSH1 0x1 SWAP2 DUP1 DUP4 AND SWAP1 DUP2 ISZERO PUSH2 0x583 JUMPI POP PUSH1 0x1 EQ PUSH2 0x526 JUMPI JUMPDEST POP POP POP PUSH2 0x518 DUP3 PUSH2 0x522 SWAP5 SUB DUP4 PUSH2 0x13C8 JUMP JUMPDEST MLOAD SWAP2 DUP3 SWAP2 DUP3 PUSH2 0x139C JUMP JUMPDEST SUB SWAP1 RETURN JUMPDEST SWAP5 POP PUSH1 0xCD DUP6 MSTORE PUSH32 0x83978B4C69C48DD978AB43FE30F077615294F938FB7F936D9EB340E51EA7DB2E JUMPDEST DUP3 DUP7 LT PUSH2 0x56B JUMPI POP POP POP PUSH2 0x518 DUP3 PUSH1 0x20 PUSH2 0x522 SWAP6 DUP3 ADD ADD SWAP5 PUSH2 0x506 JUMP JUMPDEST DUP1 SLOAD PUSH1 0x20 DUP8 DUP8 ADD DUP2 ADD SWAP2 SWAP1 SWAP2 MSTORE SWAP1 SWAP6 ADD SWAP5 DUP2 ADD PUSH2 0x54E JUMP JUMPDEST PUSH2 0x522 SWAP8 POP DUP7 SWAP4 POP PUSH1 0x20 SWAP3 POP PUSH2 0x518 SWAP5 SWAP2 POP PUSH1 0xFF NOT AND DUP3 DUP5 ADD MSTORE ISZERO ISZERO PUSH1 0x5 SHL DUP3 ADD ADD SWAP5 PUSH2 0x506 JUMP JUMPDEST SWAP2 SWAP1 POP CALLVALUE PUSH2 0x201 JUMPI DUP2 PUSH1 0x3 NOT CALLDATASIZE ADD SLT PUSH2 0x201 JUMPI PUSH1 0x24 CALLDATALOAD PUSH1 0x1 PUSH1 0x1 PUSH1 0xA0 SHL SUB DUP2 AND SWAP2 SWAP1 DUP3 SWAP1 SUB PUSH2 0x1FD JUMPI PUSH1 0x20 SWAP4 PUSH1 0xFF SWAP3 DUP5 SWAP3 CALLDATALOAD DUP3 MSTORE PUSH1 0x65 DUP7 MSTORE DUP3 DUP3 KECCAK256 SWAP1 DUP3 MSTORE DUP6 MSTORE KECCAK256 SLOAD AND SWAP1 MLOAD SWAP1 ISZERO ISZERO DUP2 MSTORE RETURN JUMPDEST SWAP2 SWAP1 POP CALLVALUE PUSH2 0x201 JUMPI DUP2 PUSH1 0x3 NOT CALLDATASIZE ADD SLT PUSH2 0x201 JUMPI PUSH1 0x20 SWAP3 PUSH2 0x623 SWAP2 CALLDATALOAD DUP2 MSTORE PUSH1 0x97 DUP5 MSTORE DUP3 PUSH1 0x24 CALLDATALOAD SWAP2 KECCAK256 PUSH2 0x1EC6 JUMP JUMPDEST SWAP1 SLOAD SWAP2 MLOAD SWAP2 PUSH1 0x1 DUP1 PUSH1 0xA0 SHL SUB SWAP2 PUSH1 0x3 SHL SHR AND DUP2 MSTORE RETURN JUMPDEST SWAP1 POP CALLVALUE PUSH2 0x201 JUMPI PUSH1 0x80 CALLDATASIZE PUSH1 0x3 NOT ADD SLT PUSH2 0x201 JUMPI PUSH8 0xFFFFFFFFFFFFFFFF SWAP2 DUP1 CALLDATALOAD DUP4 DUP2 GT PUSH2 0xB09 JUMPI PUSH2 0x66C SWAP1 CALLDATASIZE SWAP1 DUP4 ADD PUSH2 0x1454 JUMP JUMPDEST SWAP3 PUSH1 0x24 CALLDATALOAD DUP2 DUP2 GT PUSH2 0xB05 JUMPI PUSH2 0x684 SWAP1 CALLDATASIZE SWAP1 DUP5 ADD PUSH2 0x1454 JUMP JUMPDEST SWAP4 PUSH1 0x44 CALLDATALOAD SWAP2 PUSH1 0x1 PUSH1 0x1 PUSH1 0xA0 SHL SUB SWAP2 DUP3 DUP5 AND DUP5 SUB PUSH2 0xB01 JUMPI PUSH1 0x64 CALLDATALOAD SWAP3 DUP4 AND DUP1 SWAP4 SUB PUSH2 0xB01 JUMPI DUP8 SLOAD SWAP7 PUSH1 0xFF DUP9 PUSH1 0x8 SHR AND ISZERO SWAP6 DUP7 DUP1 SWAP8 PUSH2 0xAF4 JUMPI JUMPDEST DUP1 ISZERO PUSH2 0xADD JUMPI JUMPDEST ISZERO PUSH2 0xA83 JUMPI PUSH1 0x1 SWAP9 DUP8 DUP11 PUSH1 0xFF NOT DUP4 AND OR DUP13 SSTORE PUSH2 0xA72 JUMPI JUMPDEST POP PUSH2 0x6FD PUSH1 0xFF DUP12 SLOAD PUSH1 0x8 SHR AND PUSH2 0x6EF DUP2 PUSH2 0x20E9 JUMP JUMPDEST PUSH2 0x6F8 DUP2 PUSH2 0x20E9 JUMP JUMPDEST PUSH2 0x20E9 JUMP JUMPDEST DUP3 MLOAD DUP5 DUP2 GT PUSH2 0xA5F JUMPI DUP1 PUSH2 0x712 PUSH1 0xCC SLOAD PUSH2 0x1A1D JUMP JUMPDEST SWAP5 PUSH1 0x1F SWAP6 DUP7 DUP2 GT PUSH2 0x9EE JUMPI JUMPDEST POP PUSH1 0x20 SWAP1 DUP14 DUP8 DUP5 GT PUSH1 0x1 EQ PUSH2 0x970 JUMPI SWAP3 PUSH2 0x965 JUMPI JUMPDEST POP POP PUSH0 NOT PUSH1 0x3 DUP4 SWAP1 SHL SHR NOT AND SWAP1 DUP11 SHL OR PUSH1 0xCC SSTORE JUMPDEST DUP2 MLOAD SWAP4 DUP5 GT PUSH2 0x952 JUMPI POP PUSH2 0x75C PUSH1 0xCD SLOAD PUSH2 0x1A1D JUMP JUMPDEST DUP3 DUP2 GT PUSH2 0x8EF JUMPI JUMPDEST POP PUSH1 0x20 SWAP2 DUP4 GT PUSH1 0x1 EQ PUSH2 0x86B JUMPI PUSH2 0x81F SWAP5 SWAP4 SWAP3 SWAP2 DUP10 SWAP2 DUP4 PUSH2 0x860 JUMPI JUMPDEST POP POP PUSH0 NOT PUSH1 0x3 DUP4 SWAP1 SHL SHR NOT AND SWAP1 DUP8 SHL OR PUSH1 0xCD SSTORE JUMPDEST PUSH2 0x7B1 PUSH1 0xFF DUP9 SLOAD PUSH1 0x8 SHR AND PUSH2 0x7A8 DUP2 PUSH2 0x20E9 JUMP JUMPDEST PUSH2 0x6EF DUP2 PUSH2 0x20E9 JUMP JUMPDEST PUSH2 0x191 DUP1 SLOAD PUSH1 0x1 PUSH1 0x1 PUSH1 0xA0 SHL SUB NOT AND SWAP1 SWAP2 OR SWAP1 SSTORE PUSH2 0x7CF DUP2 DUP8 PUSH2 0x1472 JUMP JUMPDEST PUSH2 0x7F9 DUP2 PUSH32 0x9F2DF0FED2C77648DE5860A4CC508CD0818C85B8B8A1AB4CEEEF8D981C8956A6 PUSH2 0x1472 JUMP JUMPDEST PUSH32 0x3C11D16CBAFFD01DF69CE1C404F6340EE057498F5F00246190EA54220576A848 PUSH2 0x1472 JUMP JUMPDEST PUSH2 0x827 JUMPI DUP3 DUP1 RETURN JUMPDEST DUP3 SLOAD PUSH2 0xFF00 NOT AND DUP4 SSTORE MLOAD SWAP1 DUP2 MSTORE PUSH32 0x7F26B83FF96E1F2B6A682F133852F6798A09C465DA95921460CEFB3847402498 SWAP1 PUSH1 0x20 SWAP1 LOG1 PUSH0 DUP1 DUP3 DUP1 RETURN JUMPDEST ADD MLOAD SWAP1 POP PUSH0 DUP1 PUSH2 0x780 JUMP JUMPDEST PUSH1 0xCD DUP10 MSTORE SWAP4 SWAP3 SWAP2 DUP8 SWAP2 PUSH32 0x83978B4C69C48DD978AB43FE30F077615294F938FB7F936D9EB340E51EA7DB2E SWAP1 PUSH1 0x1F NOT DUP4 AND DUP12 JUMPDEST DUP2 DUP2 LT PUSH2 0x8D7 JUMPI POP SWAP7 DUP4 PUSH2 0x81F SWAP9 LT PUSH2 0x8BF JUMPI JUMPDEST POP POP POP DUP2 SHL ADD PUSH1 0xCD SSTORE PUSH2 0x794 JUMP JUMPDEST ADD MLOAD PUSH0 NOT PUSH1 0xF8 DUP5 PUSH1 0x3 SHL AND SHR NOT AND SWAP1 SSTORE PUSH0 DUP1 DUP1 PUSH2 0x8B1 JUMP JUMPDEST DUP3 DUP10 ADD MLOAD DUP5 SSTORE DUP12 SWAP6 SWAP1 SWAP4 ADD SWAP3 PUSH1 0x20 SWAP3 DUP4 ADD SWAP3 ADD PUSH2 0x89D JUMP JUMPDEST PUSH1 0xCD DUP11 MSTORE PUSH32 0x83978B4C69C48DD978AB43FE30F077615294F938FB7F936D9EB340E51EA7DB2E DUP4 DUP1 DUP7 ADD PUSH1 0x5 SHR DUP3 ADD SWAP3 PUSH1 0x20 DUP8 LT PUSH2 0x949 JUMPI JUMPDEST ADD PUSH1 0x5 SHR ADD SWAP1 DUP10 SWAP1 JUMPDEST DUP3 DUP2 LT PUSH2 0x93E JUMPI POP POP PUSH2 0x764 JUMP JUMPDEST DUP12 DUP2 SSTORE ADD DUP10 SWAP1 PUSH2 0x930 JUMP JUMPDEST SWAP3 POP DUP2 SWAP3 PUSH2 0x927 JUMP JUMPDEST PUSH4 0x4E487B71 PUSH1 0xE0 SHL DUP11 MSTORE PUSH1 0x41 SWAP1 MSTORE PUSH1 0x24 DUP10 REVERT JUMPDEST ADD MLOAD SWAP1 POP PUSH0 DUP1 PUSH2 0x733 JUMP JUMPDEST SWAP2 SWAP1 DUP14 SWAP5 POP PUSH1 0x1F NOT DUP5 AND PUSH1 0xCC DUP5 MSTORE PUSH32 0x47197230E1E4B29FC0BD84D7D78966C0925452AFF72A2A121538B102457E9EBE SWAP4 JUMPDEST DUP2 DUP2 LT PUSH2 0x9D6 JUMPI POP DUP5 GT PUSH2 0x9BE JUMPI JUMPDEST POP POP POP DUP2 SHL ADD PUSH1 0xCC SSTORE PUSH2 0x747 JUMP JUMPDEST ADD MLOAD PUSH0 NOT PUSH1 0xF8 DUP5 PUSH1 0x3 SHL AND SHR NOT AND SWAP1 SSTORE PUSH0 DUP1 DUP1 PUSH2 0x9B0 JUMP JUMPDEST DUP3 DUP5 ADD MLOAD DUP6 SSTORE DUP16 SWAP7 SWAP1 SWAP5 ADD SWAP4 PUSH1 0x20 SWAP4 DUP5 ADD SWAP4 ADD PUSH2 0x9A1 JUMP JUMPDEST SWAP1 SWAP2 POP PUSH1 0xCC DUP14 MSTORE PUSH32 0x47197230E1E4B29FC0BD84D7D78966C0925452AFF72A2A121538B102457E9EBE DUP7 DUP1 DUP6 ADD PUSH1 0x5 SHR DUP3 ADD SWAP3 PUSH1 0x20 DUP7 LT PUSH2 0xA56 JUMPI JUMPDEST DUP6 SWAP5 SWAP4 SWAP2 ADD PUSH1 0x5 SHR SWAP1 SWAP2 ADD SWAP1 DUP14 SWAP1 DUP16 JUMPDEST DUP4 DUP3 LT PUSH2 0xA48 JUMPI POP POP POP PUSH2 0x71E JUMP JUMPDEST DUP2 SSTORE DUP6 SWAP5 POP DUP15 SWAP2 ADD DUP16 PUSH2 0xA39 JUMP JUMPDEST SWAP3 POP DUP2 SWAP3 PUSH2 0xA29 JUMP JUMPDEST PUSH4 0x4E487B71 PUSH1 0xE0 SHL DUP12 MSTORE PUSH1 0x41 DUP3 MSTORE PUSH1 0x24 DUP12 REVERT JUMPDEST PUSH2 0xFFFF NOT AND PUSH2 0x101 OR DUP11 SSTORE PUSH0 PUSH2 0x6DA JUMP JUMPDEST PUSH1 0x84 SWAP1 PUSH1 0x20 DUP10 MLOAD SWAP2 PUSH3 0x461BCD PUSH1 0xE5 SHL DUP4 MSTORE DUP3 ADD MSTORE PUSH1 0x2E PUSH1 0x24 DUP3 ADD MSTORE PUSH32 0x496E697469616C697A61626C653A20636F6E747261637420697320616C726561 PUSH1 0x44 DUP3 ADD MSTORE PUSH14 0x191E481A5B9A5D1A585B1A5E9959 PUSH1 0x92 SHL PUSH1 0x64 DUP3 ADD MSTORE REVERT JUMPDEST POP ADDRESS EXTCODESIZE ISZERO DUP1 ISZERO PUSH2 0x6C3 JUMPI POP PUSH1 0x1 PUSH1 0xFF DUP11 AND EQ PUSH2 0x6C3 JUMP JUMPDEST POP PUSH1 0x1 PUSH1 0xFF DUP11 AND LT PUSH2 0x6BC JUMP JUMPDEST DUP8 DUP1 REVERT JUMPDEST DUP6 DUP1 REVERT JUMPDEST DUP5 DUP1 REVERT JUMPDEST SWAP1 POP CALLVALUE PUSH2 0x201 JUMPI PUSH1 0x20 CALLDATASIZE PUSH1 0x3 NOT ADD SLT PUSH2 0x201 JUMPI DUP2 CALLDATALOAD SWAP1 PUSH1 0x1 PUSH1 0x1 PUSH1 0xA0 SHL SUB DUP3 AND DUP3 SUB PUSH2 0x1FD JUMPI DUP4 DUP1 MSTORE PUSH1 0x65 PUSH1 0x20 MSTORE PUSH2 0xB4A PUSH1 0x1 DUP3 DUP7 KECCAK256 ADD SLOAD PUSH2 0x14FE JUMP JUMPDEST PUSH2 0xB54 DUP3 DUP6 PUSH2 0x1472 JUMP JUMPDEST PUSH32 0x9F2DF0FED2C77648DE5860A4CC508CD0818C85B8B8A1AB4CEEEF8D981C8956A6 PUSH2 0xB7F DUP4 DUP3 PUSH2 0x1472 JUMP JUMPDEST PUSH2 0xBAA PUSH32 0x3C11D16CBAFFD01DF69CE1C404F6340EE057498F5F00246190EA54220576A848 SWAP4 DUP5 PUSH2 0x1472 JUMP JUMPDEST PUSH2 0xBB4 CALLER DUP3 PUSH2 0x15D9 JUMP JUMPDEST PUSH2 0xBBE CALLER DUP5 PUSH2 0x15D9 JUMP JUMPDEST PUSH2 0xBC8 CALLER DUP7 PUSH2 0x15D9 JUMP JUMPDEST DUP5 DUP1 MSTORE PUSH1 0x97 PUSH1 0x20 MSTORE PUSH1 0x1 DUP3 DUP7 KECCAK256 SLOAD SUB PUSH2 0xC31 JUMPI DUP1 DUP6 MSTORE PUSH1 0x97 PUSH1 0x20 MSTORE PUSH1 0x1 DUP3 DUP7 KECCAK256 SLOAD SUB PUSH2 0xC1B JUMPI POP DUP2 DUP5 MSTORE PUSH1 0x97 PUSH1 0x20 MSTORE PUSH1 0x1 DUP2 DUP6 KECCAK256 SLOAD SUB PUSH2 0xC06 JUMPI DUP4 DUP1 RETURN JUMPDEST MLOAD PUSH4 0xE2B37CD PUSH1 0xE4 SHL DUP2 MSTORE SWAP2 DUP3 ADD MSTORE PUSH1 0x24 SWAP2 POP REVERT JUMPDEST DUP4 SWAP1 PUSH1 0x24 SWAP3 MLOAD SWAP2 PUSH4 0xE2B37CD PUSH1 0xE4 SHL DUP4 MSTORE DUP3 ADD MSTORE REVERT JUMPDEST DUP2 MLOAD PUSH4 0xE2B37CD PUSH1 0xE4 SHL DUP2 MSTORE DUP1 DUP6 ADD DUP7 SWAP1 MSTORE PUSH1 0x24 SWAP1 REVERT JUMPDEST SWAP2 SWAP1 POP CALLVALUE PUSH2 0x201 JUMPI PUSH1 0x20 CALLDATASIZE PUSH1 0x3 NOT ADD SLT PUSH2 0x201 JUMPI CALLDATALOAD PUSH1 0x1 PUSH1 0x1 PUSH1 0xA0 SHL SUB DUP2 AND SWAP1 DUP2 SWAP1 SUB PUSH2 0x201 JUMPI DUP3 DUP3 SWAP2 PUSH1 0x20 SWAP5 MSTORE PUSH1 0xC9 DUP5 MSTORE KECCAK256 SLOAD SWAP1 MLOAD SWAP1 DUP2 MSTORE RETURN JUMPDEST DUP3 DUP5 CALLVALUE PUSH2 0x2B5 JUMPI DUP1 PUSH1 0x3 NOT CALLDATASIZE ADD SLT PUSH2 0x2B5 JUMPI POP PUSH32 0x0 PUSH1 0x1 PUSH1 0x1 PUSH1 0xA0 SHL SUB AND ADDRESS SUB PUSH2 0xCEF JUMPI PUSH1 0x20 DUP3 MLOAD PUSH32 0x360894A13BA1A3210667C828492DB98DCA3E2076CC3735A920A3CA505D382BBC DUP2 MSTORE RETURN JUMPDEST PUSH1 0x20 PUSH1 0x84 SWAP3 MLOAD SWAP2 PUSH3 0x461BCD PUSH1 0xE5 SHL DUP4 MSTORE DUP3 ADD MSTORE PUSH1 0x38 PUSH1 0x24 DUP3 ADD MSTORE PUSH32 0x555550535570677261646561626C653A206D757374206E6F742062652063616C PUSH1 0x44 DUP3 ADD MSTORE PUSH32 0x6C6564207468726F7567682064656C656761746563616C6C0000000000000000 PUSH1 0x64 DUP3 ADD MSTORE REVERT JUMPDEST CALLDATASIZE PUSH1 0x3 NOT ADD SLT SWAP1 POP PUSH2 0x1A7 JUMPI DUP1 CALLDATALOAD PUSH1 0x1 PUSH1 0x1 PUSH1 0xA0 SHL SUB DUP1 DUP3 AND DUP3 SUB PUSH2 0x1FD JUMPI PUSH1 0x24 CALLDATALOAD SWAP2 PUSH8 0xFFFFFFFFFFFFFFFF DUP4 GT PUSH2 0xB09 JUMPI CALLDATASIZE PUSH1 0x23 DUP5 ADD SLT ISZERO PUSH2 0xB09 JUMPI PUSH2 0xE09 PUSH2 0xDAF PUSH2 0x24C SWAP6 DUP6 PUSH1 0x24 PUSH1 0x1 SWAP8 CALLDATASIZE SWAP4 ADD CALLDATALOAD SWAP2 ADD PUSH2 0x141A JUMP JUMPDEST SWAP3 DUP1 PUSH32 0x0 AND SWAP1 PUSH2 0xDE0 DUP3 ADDRESS EQ ISZERO PUSH2 0x165E JUMP JUMPDEST PUSH32 0x360894A13BA1A3210667C828492DB98DCA3E2076CC3735A920A3CA505D382BBC SLOAD AND EQ PUSH2 0x16BF JUMP JUMPDEST PUSH2 0xE11 PUSH2 0x204F JUMP JUMPDEST PUSH2 0x1720 JUMP JUMPDEST SWAP1 POP DUP3 CALLVALUE PUSH2 0x2B5 JUMPI DUP2 PUSH1 0x3 NOT CALLDATASIZE ADD SLT PUSH2 0x2B5 JUMPI DUP3 CALLDATALOAD PUSH1 0x1 PUSH1 0x1 PUSH1 0xA0 SHL SUB DUP2 AND SWAP2 SWAP1 DUP3 SWAP1 SUB PUSH2 0x2B5 JUMPI PUSH1 0x24 CALLDATALOAD PUSH2 0xE6A PUSH32 0x9F2DF0FED2C77648DE5860A4CC508CD0818C85B8B8A1AB4CEEEF8D981C8956A6 PUSH2 0x14FE JUMP JUMPDEST DUP3 ISZERO PUSH2 0xEC3 JUMPI PUSH1 0x20 DUP1 SWAP6 POP DUP2 PUSH2 0xEA3 PUSH32 0xDDF252AD1BE2C89B69C2B068FC378DAA952BA7F163C4A11628F55A4DF523B3EF SWAP4 PUSH1 0xCB SLOAD PUSH2 0x1A55 JUMP JUMPDEST PUSH1 0xCB SSTORE DUP5 DUP5 MSTORE PUSH1 0xC9 DUP3 MSTORE DUP6 DUP5 KECCAK256 DUP2 DUP2 SLOAD ADD SWAP1 SSTORE DUP6 MLOAD SWAP1 DUP2 MSTORE LOG3 MLOAD PUSH1 0x1 DUP2 MSTORE RETURN JUMPDEST DUP4 MLOAD PUSH3 0x461BCD PUSH1 0xE5 SHL DUP2 MSTORE PUSH1 0x20 DUP2 DUP8 ADD MSTORE PUSH1 0x1F PUSH1 0x24 DUP3 ADD MSTORE PUSH32 0x45524332303A206D696E7420746F20746865207A65726F206164647265737300 PUSH1 0x44 DUP3 ADD MSTORE PUSH1 0x64 SWAP1 REVERT JUMPDEST SWAP2 SWAP1 POP CALLVALUE PUSH2 0x201 JUMPI DUP2 PUSH1 0x3 NOT CALLDATASIZE ADD SLT PUSH2 0x201 JUMPI CALLDATALOAD PUSH1 0x1 PUSH1 0x1 PUSH1 0xA0 SHL SUB DUP2 AND DUP1 DUP3 SUB PUSH2 0x1FD JUMPI SWAP1 PUSH2 0xF51 PUSH1 0x20 SWAP5 PUSH2 0x2AE SWAP4 CALLER DUP3 MSTORE PUSH1 0xCA DUP8 MSTORE DUP6 DUP3 KECCAK256 SWAP1 DUP3 MSTORE DUP7 MSTORE DUP5 PUSH1 0x24 CALLDATALOAD SWAP2 KECCAK256 SLOAD PUSH2 0x1A55 JUMP JUMPDEST SWAP1 CALLER PUSH2 0x1BE5 JUMP JUMPDEST SWAP2 POP SWAP2 CALLVALUE PUSH2 0x1A7 JUMPI PUSH1 0x20 CALLDATASIZE PUSH1 0x3 NOT ADD SLT PUSH2 0x1A7 JUMPI PUSH1 0x1 PUSH1 0x1 PUSH1 0xA0 SHL SUB SWAP3 SWAP1 CALLDATALOAD DUP4 DUP2 AND DUP2 SUB PUSH2 0x201 JUMPI PUSH2 0xFB7 DUP5 PUSH2 0x24C SWAP6 PUSH32 0x0 AND SWAP1 PUSH2 0xDE0 DUP3 ADDRESS EQ ISZERO PUSH2 0x165E JUMP JUMPDEST PUSH2 0xFBF PUSH2 0x204F JUMP JUMPDEST PUSH2 0xFD4 PUSH2 0xFCB DUP5 PUSH2 0x13FE JUMP JUMPDEST SWAP3 MLOAD SWAP3 DUP4 PUSH2 0x13C8 JUMP JUMPDEST DUP3 DUP3 MSTORE PUSH1 0x1F NOT PUSH2 0xFE3 DUP5 PUSH2 0x13FE JUMP JUMPDEST ADD CALLDATASIZE PUSH1 0x20 DUP5 ADD CALLDATACOPY PUSH2 0x1720 JUMP JUMPDEST DUP4 DUP4 CALLVALUE PUSH2 0x1A7 JUMPI DUP3 PUSH1 0x3 NOT CALLDATASIZE ADD SLT PUSH2 0x1A7 JUMPI PUSH1 0x24 CALLDATALOAD SWAP1 PUSH1 0x1 PUSH1 0x1 PUSH1 0xA0 SHL SUB DUP3 AND DUP1 DUP4 SUB PUSH2 0x1FD JUMPI CALLER SUB PUSH2 0x1027 JUMPI SWAP1 PUSH2 0x24C SWAP2 CALLDATALOAD PUSH2 0x15D9 JUMP JUMPDEST PUSH1 0x84 SWAP1 PUSH1 0x20 DUP6 MLOAD SWAP2 PUSH3 0x461BCD PUSH1 0xE5 SHL DUP4 MSTORE DUP3 ADD MSTORE PUSH1 0x2F PUSH1 0x24 DUP3 ADD MSTORE PUSH32 0x416363657373436F6E74726F6C3A2063616E206F6E6C792072656E6F756E6365 PUSH1 0x44 DUP3 ADD MSTORE PUSH15 0x103937B632B9903337B91039B2B633 PUSH1 0x89 SHL PUSH1 0x64 DUP3 ADD MSTORE REVERT JUMPDEST DUP4 SWAP1 CALLVALUE PUSH2 0x1A7 JUMPI DUP2 PUSH1 0x3 NOT CALLDATASIZE ADD SLT PUSH2 0x1A7 JUMPI PUSH1 0x20 SWAP1 MLOAD PUSH1 0x12 DUP2 MSTORE RETURN JUMPDEST SWAP2 SWAP1 POP CALLVALUE PUSH2 0x201 JUMPI DUP2 PUSH1 0x3 NOT CALLDATASIZE ADD SLT PUSH2 0x201 JUMPI PUSH1 0x24 CALLDATALOAD SWAP1 CALLDATALOAD PUSH1 0x1 PUSH1 0x1 PUSH1 0xA0 SHL SUB DUP3 AND DUP3 SUB PUSH2 0x1FD JUMPI PUSH2 0x10E0 PUSH1 0x1 PUSH2 0x24C SWAP5 DUP4 DUP8 MSTORE PUSH1 0x65 PUSH1 0x20 MSTORE DUP7 KECCAK256 ADD SLOAD PUSH2 0x14FE JUMP JUMPDEST PUSH2 0x1472 JUMP JUMPDEST SWAP2 SWAP1 POP CALLVALUE PUSH2 0x201 JUMPI PUSH1 0x20 CALLDATASIZE PUSH1 0x3 NOT ADD SLT PUSH2 0x201 JUMPI DUP2 PUSH1 0x20 SWAP4 PUSH1 0x1 SWAP3 CALLDATALOAD DUP2 MSTORE PUSH1 0x65 DUP6 MSTORE KECCAK256 ADD SLOAD SWAP1 MLOAD SWAP1 DUP2 MSTORE RETURN JUMPDEST DUP4 DUP4 CALLVALUE PUSH2 0x1A7 JUMPI PUSH1 0x60 CALLDATASIZE PUSH1 0x3 NOT ADD SLT PUSH2 0x1A7 JUMPI DUP1 CALLDATALOAD PUSH1 0x1 PUSH1 0x1 PUSH1 0xA0 SHL SUB DUP2 DUP2 AND SWAP4 SWAP1 SWAP3 SWAP1 DUP5 DUP4 SUB PUSH2 0x2B5 JUMPI PUSH1 0x24 CALLDATALOAD SWAP4 DUP5 AND DUP5 SUB PUSH2 0x2B5 JUMPI DUP6 SWAP1 PUSH1 0x44 CALLDATALOAD SWAP6 DUP2 MSTORE PUSH1 0xCA PUSH1 0x20 MSTORE DUP2 DUP2 KECCAK256 CALLER DUP3 MSTORE PUSH1 0x20 MSTORE KECCAK256 SLOAD SWAP1 PUSH0 NOT DUP3 SUB PUSH2 0x1178 JUMPI JUMPDEST PUSH1 0x20 DUP7 PUSH2 0x2AE DUP8 DUP8 DUP8 PUSH2 0x1A76 JUMP JUMPDEST DUP5 DUP3 LT PUSH2 0x11A1 JUMPI POP SWAP2 DUP4 SWAP2 PUSH2 0x1196 PUSH1 0x20 SWAP7 SWAP6 PUSH2 0x2AE SWAP6 SUB CALLER DUP4 PUSH2 0x1BE5 JUMP JUMPDEST SWAP2 SWAP4 SWAP5 DUP2 SWAP4 POP PUSH2 0x116A JUMP JUMPDEST PUSH1 0x64 SWAP1 PUSH1 0x20 DUP8 MLOAD SWAP2 PUSH3 0x461BCD PUSH1 0xE5 SHL DUP4 MSTORE DUP3 ADD MSTORE PUSH1 0x1D PUSH1 0x24 DUP3 ADD MSTORE PUSH32 0x45524332303A20696E73756666696369656E7420616C6C6F77616E6365000000 PUSH1 0x44 DUP3 ADD MSTORE REVERT JUMPDEST DUP4 SWAP1 CALLVALUE PUSH2 0x1A7 JUMPI DUP2 PUSH1 0x3 NOT CALLDATASIZE ADD SLT PUSH2 0x1A7 JUMPI PUSH1 0x20 SWAP1 PUSH1 0xCB SLOAD SWAP1 MLOAD SWAP1 DUP2 MSTORE RETURN JUMPDEST DUP4 SWAP1 CALLVALUE PUSH2 0x1A7 JUMPI DUP2 PUSH1 0x3 NOT CALLDATASIZE ADD SLT PUSH2 0x1A7 JUMPI PUSH2 0x191 SLOAD SWAP1 MLOAD PUSH1 0x1 PUSH1 0x1 PUSH1 0xA0 SHL SUB SWAP1 SWAP2 AND DUP2 MSTORE PUSH1 0x20 SWAP1 RETURN JUMPDEST SWAP2 SWAP1 POP CALLVALUE PUSH2 0x201 JUMPI DUP2 PUSH1 0x3 NOT CALLDATASIZE ADD SLT PUSH2 0x201 JUMPI CALLDATALOAD SWAP2 PUSH1 0x1 PUSH1 0x1 PUSH1 0xA0 SHL SUB DUP4 AND DUP4 SUB PUSH2 0x2B5 JUMPI POP PUSH2 0x2AE PUSH1 0x20 SWAP3 PUSH1 0x24 CALLDATALOAD SWAP1 CALLER PUSH2 0x1BE5 JUMP JUMPDEST DUP4 SWAP1 CALLVALUE PUSH2 0x1A7 JUMPI DUP2 PUSH1 0x3 NOT CALLDATASIZE ADD SLT PUSH2 0x1A7 JUMPI DUP1 MLOAD SWAP1 DUP3 PUSH1 0xCC SLOAD PUSH2 0x1285 DUP2 PUSH2 0x1A1D JUMP JUMPDEST DUP1 DUP6 MSTORE SWAP2 PUSH1 0x1 SWAP2 DUP1 DUP4 AND SWAP1 DUP2 ISZERO PUSH2 0x583 JUMPI POP PUSH1 0x1 EQ PUSH2 0x12B0 JUMPI POP POP POP PUSH2 0x518 DUP3 PUSH2 0x522 SWAP5 SUB DUP4 PUSH2 0x13C8 JUMP JUMPDEST SWAP5 POP PUSH1 0xCC DUP6 MSTORE PUSH32 0x47197230E1E4B29FC0BD84D7D78966C0925452AFF72A2A121538B102457E9EBE JUMPDEST DUP3 DUP7 LT PUSH2 0x12F5 JUMPI POP POP POP PUSH2 0x518 DUP3 PUSH1 0x20 PUSH2 0x522 SWAP6 DUP3 ADD ADD SWAP5 PUSH2 0x506 JUMP JUMPDEST DUP1 SLOAD PUSH1 0x20 DUP8 DUP8 ADD DUP2 ADD SWAP2 SWAP1 SWAP2 MSTORE SWAP1 SWAP6 ADD SWAP5 DUP2 ADD PUSH2 0x12D8 JUMP JUMPDEST DUP5 SWAP1 DUP5 CALLVALUE PUSH2 0x201 JUMPI PUSH1 0x20 CALLDATASIZE PUSH1 0x3 NOT ADD SLT PUSH2 0x201 JUMPI CALLDATALOAD PUSH4 0xFFFFFFFF PUSH1 0xE0 SHL DUP2 AND DUP1 SWAP2 SUB PUSH2 0x201 JUMPI PUSH1 0x20 SWAP3 POP PUSH4 0x5A05180F PUSH1 0xE0 SHL DUP2 EQ SWAP1 DUP2 ISZERO PUSH2 0x1350 JUMPI JUMPDEST POP ISZERO ISZERO DUP2 MSTORE RETURN JUMPDEST PUSH4 0x7965DB0B PUSH1 0xE0 SHL DUP2 EQ SWAP2 POP DUP2 ISZERO PUSH2 0x136A JUMPI JUMPDEST POP DUP4 PUSH2 0x1349 JUMP JUMPDEST PUSH4 0x1FFC9A7 PUSH1 0xE0 SHL EQ SWAP1 POP DUP4 PUSH2 0x1363 JUMP JUMPDEST PUSH0 JUMPDEST DUP4 DUP2 LT PUSH2 0x138C JUMPI POP POP PUSH0 SWAP2 ADD MSTORE JUMP JUMPDEST DUP2 DUP2 ADD MLOAD DUP4 DUP3 ADD MSTORE PUSH1 0x20 ADD PUSH2 0x137D JUMP JUMPDEST PUSH1 0x40 SWAP2 PUSH1 0x20 DUP3 MSTORE PUSH2 0x13BC DUP2 MLOAD DUP1 SWAP3 DUP2 PUSH1 0x20 DUP7 ADD MSTORE PUSH1 0x20 DUP7 DUP7 ADD SWAP2 ADD PUSH2 0x137B JUMP JUMPDEST PUSH1 0x1F ADD PUSH1 0x1F NOT AND ADD ADD SWAP1 JUMP JUMPDEST SWAP1 PUSH1 0x1F DUP1 NOT SWAP2 ADD AND DUP2 ADD SWAP1 DUP2 LT PUSH8 0xFFFFFFFFFFFFFFFF DUP3 GT OR PUSH2 0x13EA JUMPI PUSH1 0x40 MSTORE JUMP JUMPDEST PUSH4 0x4E487B71 PUSH1 0xE0 SHL PUSH0 MSTORE PUSH1 0x41 PUSH1 0x4 MSTORE PUSH1 0x24 PUSH0 REVERT JUMPDEST PUSH8 0xFFFFFFFFFFFFFFFF DUP2 GT PUSH2 0x13EA JUMPI PUSH1 0x1F ADD PUSH1 0x1F NOT AND PUSH1 0x20 ADD SWAP1 JUMP JUMPDEST SWAP3 SWAP2 SWAP3 PUSH2 0x1426 DUP3 PUSH2 0x13FE JUMP JUMPDEST SWAP2 PUSH2 0x1434 PUSH1 0x40 MLOAD SWAP4 DUP5 PUSH2 0x13C8 JUMP JUMPDEST DUP3 SWAP5 DUP2 DUP5 MSTORE DUP2 DUP4 ADD GT PUSH2 0x1450 JUMPI DUP3 DUP2 PUSH1 0x20 SWAP4 DUP5 PUSH0 SWAP7 ADD CALLDATACOPY ADD ADD MSTORE JUMP JUMPDEST PUSH0 DUP1 REVERT JUMPDEST SWAP1 DUP1 PUSH1 0x1F DUP4 ADD SLT ISZERO PUSH2 0x1450 JUMPI DUP2 PUSH1 0x20 PUSH2 0x146F SWAP4 CALLDATALOAD SWAP2 ADD PUSH2 0x141A JUMP JUMPDEST SWAP1 JUMP JUMPDEST SWAP1 PUSH1 0x40 PUSH2 0x14B0 SWAP3 PUSH0 SWAP1 DUP1 DUP3 MSTORE PUSH1 0x65 PUSH1 0x20 MSTORE DUP3 DUP3 KECCAK256 SWAP4 PUSH1 0x1 DUP1 PUSH1 0xA0 SHL SUB AND SWAP4 DUP5 DUP4 MSTORE PUSH1 0x20 MSTORE PUSH1 0xFF DUP4 DUP4 KECCAK256 SLOAD AND ISZERO PUSH2 0x14B3 JUMPI JUMPDEST DUP2 MSTORE PUSH1 0x97 PUSH1 0x20 MSTORE KECCAK256 PUSH2 0x1EDB JUMP JUMPDEST POP JUMP JUMPDEST DUP1 DUP3 MSTORE PUSH1 0x65 PUSH1 0x20 MSTORE DUP3 DUP3 KECCAK256 DUP5 DUP4 MSTORE PUSH1 0x20 MSTORE DUP3 DUP3 KECCAK256 PUSH1 0x1 PUSH1 0xFF NOT DUP3 SLOAD AND OR SWAP1 SSTORE CALLER DUP5 DUP3 PUSH32 0x2F8788117E7EFF1D82E926EC794901D17C78024A50270940304540A733656F0D DUP6 DUP1 LOG4 PUSH2 0x14A3 JUMP JUMPDEST DUP1 PUSH0 MSTORE PUSH1 0x20 PUSH1 0x65 DUP2 MSTORE PUSH1 0x40 PUSH0 KECCAK256 CALLER PUSH0 MSTORE DUP2 MSTORE PUSH1 0xFF PUSH1 0x40 PUSH0 KECCAK256 SLOAD AND ISZERO PUSH2 0x1521 JUMPI POP POP JUMP JUMPDEST PUSH2 0x15BD PUSH1 0x48 PUSH2 0x15D5 SWAP4 DUP4 PUSH2 0x1543 PUSH2 0x15AE SWAP6 PUSH2 0x153D PUSH1 0x14 CALLER PUSH2 0x1D74 JUMP JUMPDEST SWAP4 PUSH2 0x1D74 JUMP JUMPDEST SWAP1 PUSH1 0x40 MLOAD SWAP6 DUP7 SWAP4 PUSH32 0x416363657373436F6E74726F6C3A206163636F756E7420000000000000000000 DUP4 DUP7 ADD MSTORE PUSH2 0x1582 DUP2 MLOAD DUP1 SWAP3 DUP6 PUSH1 0x37 DUP10 ADD SWAP2 ADD PUSH2 0x137B JUMP JUMPDEST DUP5 ADD SWAP2 PUSH17 0x1034B99036B4B9B9B4B733903937B6329 PUSH1 0x7D SHL PUSH1 0x37 DUP5 ADD MSTORE DUP4 MLOAD SWAP4 DUP5 SWAP2 DUP8 DUP6 ADD SWAP2 ADD PUSH2 0x137B JUMP JUMPDEST ADD SUB PUSH1 0x28 DUP2 ADD DUP5 MSTORE ADD DUP3 PUSH2 0x13C8 JUMP JUMPDEST PUSH1 0x40 MLOAD PUSH3 0x461BCD PUSH1 0xE5 SHL DUP2 MSTORE SWAP2 DUP3 SWAP2 PUSH1 0x4 DUP4 ADD PUSH2 0x139C JUMP JUMPDEST SUB SWAP1 REVERT JUMPDEST SWAP1 PUSH1 0x40 PUSH2 0x14B0 SWAP3 PUSH0 SWAP1 DUP1 DUP3 MSTORE PUSH1 0x65 PUSH1 0x20 MSTORE DUP3 DUP3 KECCAK256 SWAP4 PUSH1 0x1 DUP1 PUSH1 0xA0 SHL SUB AND SWAP4 DUP5 DUP4 MSTORE PUSH1 0x20 MSTORE PUSH1 0xFF DUP4 DUP4 KECCAK256 SLOAD AND PUSH2 0x1616 JUMPI JUMPDEST DUP2 MSTORE PUSH1 0x97 PUSH1 0x20 MSTORE KECCAK256 PUSH2 0x1F62 JUMP JUMPDEST DUP1 DUP3 MSTORE PUSH1 0x65 PUSH1 0x20 MSTORE DUP3 DUP3 KECCAK256 DUP5 DUP4 MSTORE PUSH1 0x20 MSTORE DUP3 DUP3 KECCAK256 PUSH1 0xFF NOT DUP2 SLOAD AND SWAP1 SSTORE CALLER DUP5 DUP3 PUSH32 0xF6391F5C32D9C69D2A47EA670B442974B53935D1EDC7FD64EB21E047A839171B DUP6 DUP1 LOG4 PUSH2 0x1609 JUMP JUMPDEST ISZERO PUSH2 0x1665 JUMPI JUMP JUMPDEST PUSH1 0x40 MLOAD PUSH3 0x461BCD PUSH1 0xE5 SHL DUP2 MSTORE PUSH1 0x20 PUSH1 0x4 DUP3 ADD MSTORE PUSH1 0x2C PUSH1 0x24 DUP3 ADD MSTORE PUSH32 0x46756E6374696F6E206D7573742062652063616C6C6564207468726F75676820 PUSH1 0x44 DUP3 ADD MSTORE PUSH12 0x19195B1959D85D1958D85B1B PUSH1 0xA2 SHL PUSH1 0x64 DUP3 ADD MSTORE PUSH1 0x84 SWAP1 REVERT JUMPDEST ISZERO PUSH2 0x16C6 JUMPI JUMP JUMPDEST PUSH1 0x40 MLOAD PUSH3 0x461BCD PUSH1 0xE5 SHL DUP2 MSTORE PUSH1 0x20 PUSH1 0x4 DUP3 ADD MSTORE PUSH1 0x2C PUSH1 0x24 DUP3 ADD MSTORE PUSH32 0x46756E6374696F6E206D7573742062652063616C6C6564207468726F75676820 PUSH1 0x44 DUP3 ADD MSTORE PUSH12 0x6163746976652070726F7879 PUSH1 0xA0 SHL PUSH1 0x64 DUP3 ADD MSTORE PUSH1 0x84 SWAP1 REVERT JUMPDEST SWAP1 SWAP2 PUSH1 0xFF PUSH32 0x4910FDFA16FED3260ED0E7147F7CC6DA11A60208B5B9406D12A635614FFD9143 SLOAD AND PUSH0 EQ PUSH2 0x175A JUMPI POP PUSH2 0x1758 SWAP2 POP PUSH2 0x197B JUMP JUMPDEST JUMP JUMPDEST PUSH1 0x40 DUP1 MLOAD PUSH4 0x52D1902D PUSH1 0xE0 SHL DUP2 MSTORE PUSH1 0x20 SWAP5 SWAP2 SWAP4 SWAP3 SWAP1 PUSH1 0x1 PUSH1 0x1 PUSH1 0xA0 SHL SUB DUP5 AND SWAP1 DUP7 DUP2 PUSH1 0x4 DUP2 DUP6 GAS STATICCALL PUSH0 SWAP2 DUP2 PUSH2 0x194C JUMPI JUMPDEST POP PUSH2 0x17EA JUMPI DUP6 MLOAD PUSH3 0x461BCD PUSH1 0xE5 SHL DUP2 MSTORE PUSH1 0x4 DUP2 ADD DUP9 SWAP1 MSTORE PUSH1 0x2E PUSH1 0x24 DUP3 ADD MSTORE PUSH32 0x45524331393637557067726164653A206E657720696D706C656D656E74617469 PUSH1 0x44 DUP3 ADD MSTORE PUSH14 0x6F6E206973206E6F742055555053 PUSH1 0x90 SHL PUSH1 0x64 DUP3 ADD MSTORE PUSH1 0x84 SWAP1 REVERT JUMPDEST SWAP4 SWAP6 SWAP3 SWAP5 SWAP3 SWAP4 PUSH32 0xC9F76B5EC45E5CDEF99837D7B6D2467235C1DF8933C8CA56DF5C35AFA2C7D444 ADD PUSH2 0x18F6 JUMPI PUSH2 0x181F DUP7 PUSH2 0x197B JUMP JUMPDEST PUSH32 0xBC7CD75A20EE27FD9ADEBAB32041F755214DBC6BFFA90CC0225B39DA2E5C2D3B PUSH0 DUP1 LOG2 DUP4 MLOAD ISZERO SWAP1 DUP2 ISZERO SWAP2 PUSH2 0x18EE JUMPI JUMPDEST POP PUSH2 0x185B JUMPI JUMPDEST POP POP POP POP JUMP JUMPDEST PUSH2 0x18DA SWAP4 PUSH0 DUP1 PUSH2 0x186B PUSH1 0x27 PUSH2 0x13FE JUMP JUMPDEST SWAP6 PUSH2 0x1878 DUP6 MLOAD SWAP8 DUP9 PUSH2 0x13C8 JUMP JUMPDEST PUSH1 0x27 DUP8 MSTORE PUSH32 0x416464726573733A206C6F772D6C6576656C2064656C65676174652063616C6C DUP7 DUP9 ADD MSTORE PUSH7 0x819985A5B1959 PUSH1 0xCA SHL DUP6 DUP9 ADD MSTORE DUP6 DUP2 MLOAD SWAP2 ADD DUP5 GAS DELEGATECALL SWAP2 RETURNDATASIZE ISZERO PUSH2 0x18E4 JUMPI RETURNDATASIZE PUSH2 0x18CC PUSH2 0xFCB DUP3 PUSH2 0x13FE JUMP JUMPDEST DUP2 MSTORE PUSH0 DUP2 SWAP5 RETURNDATASIZE SWAP3 ADD RETURNDATACOPY PUSH2 0x1CE3 JUMP JUMPDEST POP PUSH0 DUP1 DUP1 DUP1 PUSH2 0x1855 JUMP JUMPDEST POP PUSH1 0x60 SWAP3 POP PUSH2 0x1CE3 JUMP JUMPDEST SWAP1 POP PUSH0 PUSH2 0x184F JUMP JUMPDEST DUP3 MLOAD PUSH3 0x461BCD PUSH1 0xE5 SHL DUP2 MSTORE PUSH1 0x4 DUP2 ADD DUP6 SWAP1 MSTORE PUSH1 0x29 PUSH1 0x24 DUP3 ADD MSTORE PUSH32 0x45524331393637557067726164653A20756E737570706F727465642070726F78 PUSH1 0x44 DUP3 ADD MSTORE PUSH9 0x1A58589B1955555251 PUSH1 0xBA SHL PUSH1 0x64 DUP3 ADD MSTORE PUSH1 0x84 SWAP1 REVERT JUMPDEST SWAP1 SWAP2 DUP9 DUP3 DUP2 RETURNDATASIZE DUP4 GT PUSH2 0x1974 JUMPI JUMPDEST PUSH2 0x1963 DUP2 DUP4 PUSH2 0x13C8 JUMP JUMPDEST DUP2 ADD SUB SLT PUSH2 0x2B5 JUMPI POP MLOAD SWAP1 PUSH0 PUSH2 0x178A JUMP JUMPDEST POP RETURNDATASIZE PUSH2 0x1959 JUMP JUMPDEST DUP1 EXTCODESIZE ISZERO PUSH2 0x19C2 JUMPI PUSH32 0x360894A13BA1A3210667C828492DB98DCA3E2076CC3735A920A3CA505D382BBC DUP1 SLOAD PUSH1 0x1 PUSH1 0x1 PUSH1 0xA0 SHL SUB NOT AND PUSH1 0x1 PUSH1 0x1 PUSH1 0xA0 SHL SUB SWAP1 SWAP3 AND SWAP2 SWAP1 SWAP2 OR SWAP1 SSTORE JUMP JUMPDEST PUSH1 0x40 MLOAD PUSH3 0x461BCD PUSH1 0xE5 SHL DUP2 MSTORE PUSH1 0x20 PUSH1 0x4 DUP3 ADD MSTORE PUSH1 0x2D PUSH1 0x24 DUP3 ADD MSTORE PUSH32 0x455243313936373A206E657720696D706C656D656E746174696F6E206973206E PUSH1 0x44 DUP3 ADD MSTORE PUSH13 0x1BDD08184818DBDB9D1C9858DD PUSH1 0x9A SHL PUSH1 0x64 DUP3 ADD MSTORE PUSH1 0x84 SWAP1 REVERT JUMPDEST SWAP1 PUSH1 0x1 DUP3 DUP2 SHR SWAP3 AND DUP1 ISZERO PUSH2 0x1A4B JUMPI JUMPDEST PUSH1 0x20 DUP4 LT EQ PUSH2 0x1A37 JUMPI JUMP JUMPDEST PUSH4 0x4E487B71 PUSH1 0xE0 SHL PUSH0 MSTORE PUSH1 0x22 PUSH1 0x4 MSTORE PUSH1 0x24 PUSH0 REVERT JUMPDEST SWAP2 PUSH1 0x7F AND SWAP2 PUSH2 0x1A2C JUMP JUMPDEST SWAP2 SWAP1 DUP3 ADD DUP1 SWAP3 GT PUSH2 0x1A62 JUMPI JUMP JUMPDEST PUSH4 0x4E487B71 PUSH1 0xE0 SHL PUSH0 MSTORE PUSH1 0x11 PUSH1 0x4 MSTORE PUSH1 0x24 PUSH0 REVERT JUMPDEST PUSH1 0x1 PUSH1 0x1 PUSH1 0xA0 SHL SUB SWAP1 DUP2 AND SWAP2 DUP3 ISZERO PUSH2 0x1B92 JUMPI AND SWAP2 DUP3 ISZERO PUSH2 0x1B41 JUMPI PUSH0 DUP3 DUP2 MSTORE PUSH1 0xC9 PUSH1 0x20 MSTORE PUSH1 0x40 DUP2 KECCAK256 SLOAD SWAP2 DUP1 DUP4 LT PUSH2 0x1AED JUMPI PUSH1 0x40 DUP3 DUP3 PUSH32 0xDDF252AD1BE2C89B69C2B068FC378DAA952BA7F163C4A11628F55A4DF523B3EF SWAP6 DUP8 PUSH1 0x20 SWAP7 MSTORE PUSH1 0xC9 DUP7 MSTORE SUB DUP3 DUP3 KECCAK256 SSTORE DUP7 DUP2 MSTORE KECCAK256 DUP2 DUP2 SLOAD ADD SWAP1 SSTORE PUSH1 0x40 MLOAD SWAP1 DUP2 MSTORE LOG3 JUMP JUMPDEST PUSH1 0x40 MLOAD PUSH3 0x461BCD PUSH1 0xE5 SHL DUP2 MSTORE PUSH1 0x20 PUSH1 0x4 DUP3 ADD MSTORE PUSH1 0x26 PUSH1 0x24 DUP3 ADD MSTORE PUSH32 0x45524332303A207472616E7366657220616D6F756E7420657863656564732062 PUSH1 0x44 DUP3 ADD MSTORE PUSH6 0x616C616E6365 PUSH1 0xD0 SHL PUSH1 0x64 DUP3 ADD MSTORE PUSH1 0x84 SWAP1 REVERT JUMPDEST PUSH1 0x40 MLOAD PUSH3 0x461BCD PUSH1 0xE5 SHL DUP2 MSTORE PUSH1 0x20 PUSH1 0x4 DUP3 ADD MSTORE PUSH1 0x23 PUSH1 0x24 DUP3 ADD MSTORE PUSH32 0x45524332303A207472616E7366657220746F20746865207A65726F2061646472 PUSH1 0x44 DUP3 ADD MSTORE PUSH3 0x657373 PUSH1 0xE8 SHL PUSH1 0x64 DUP3 ADD MSTORE PUSH1 0x84 SWAP1 REVERT JUMPDEST PUSH1 0x40 MLOAD PUSH3 0x461BCD PUSH1 0xE5 SHL DUP2 MSTORE PUSH1 0x20 PUSH1 0x4 DUP3 ADD MSTORE PUSH1 0x25 PUSH1 0x24 DUP3 ADD MSTORE PUSH32 0x45524332303A207472616E736665722066726F6D20746865207A65726F206164 PUSH1 0x44 DUP3 ADD MSTORE PUSH5 0x6472657373 PUSH1 0xD8 SHL PUSH1 0x64 DUP3 ADD MSTORE PUSH1 0x84 SWAP1 REVERT JUMPDEST PUSH1 0x1 PUSH1 0x1 PUSH1 0xA0 SHL SUB SWAP1 DUP2 AND SWAP2 DUP3 ISZERO PUSH2 0x1C92 JUMPI AND SWAP2 DUP3 ISZERO PUSH2 0x1C42 JUMPI PUSH1 0x20 PUSH32 0x8C5BE1E5EBEC7D5BD14F71427D1E84F3DD0314C0F7B2291E5B200AC8C7C3B925 SWAP2 DUP4 PUSH0 MSTORE PUSH1 0xCA DUP3 MSTORE PUSH1 0x40 PUSH0 KECCAK256 DUP6 PUSH0 MSTORE DUP3 MSTORE DUP1 PUSH1 0x40 PUSH0 KECCAK256 SSTORE PUSH1 0x40 MLOAD SWAP1 DUP2 MSTORE LOG3 JUMP JUMPDEST PUSH1 0x40 MLOAD PUSH3 0x461BCD PUSH1 0xE5 SHL DUP2 MSTORE PUSH1 0x20 PUSH1 0x4 DUP3 ADD MSTORE PUSH1 0x22 PUSH1 0x24 DUP3 ADD MSTORE PUSH32 0x45524332303A20617070726F766520746F20746865207A65726F206164647265 PUSH1 0x44 DUP3 ADD MSTORE PUSH2 0x7373 PUSH1 0xF0 SHL PUSH1 0x64 DUP3 ADD MSTORE PUSH1 0x84 SWAP1 REVERT JUMPDEST PUSH1 0x40 MLOAD PUSH3 0x461BCD PUSH1 0xE5 SHL DUP2 MSTORE PUSH1 0x20 PUSH1 0x4 DUP3 ADD MSTORE PUSH1 0x24 DUP1 DUP3 ADD MSTORE PUSH32 0x45524332303A20617070726F76652066726F6D20746865207A65726F20616464 PUSH1 0x44 DUP3 ADD MSTORE PUSH4 0x72657373 PUSH1 0xE0 SHL PUSH1 0x64 DUP3 ADD MSTORE PUSH1 0x84 SWAP1 REVERT JUMPDEST SWAP2 SWAP3 SWAP1 ISZERO PUSH2 0x1D45 JUMPI POP DUP2 MLOAD ISZERO PUSH2 0x1CF7 JUMPI POP SWAP1 JUMP JUMPDEST EXTCODESIZE ISZERO PUSH2 0x1D00 JUMPI SWAP1 JUMP JUMPDEST PUSH1 0x40 MLOAD PUSH3 0x461BCD PUSH1 0xE5 SHL DUP2 MSTORE PUSH1 0x20 PUSH1 0x4 DUP3 ADD MSTORE PUSH1 0x1D PUSH1 0x24 DUP3 ADD MSTORE PUSH32 0x416464726573733A2063616C6C20746F206E6F6E2D636F6E7472616374000000 PUSH1 0x44 DUP3 ADD MSTORE PUSH1 0x64 SWAP1 REVERT JUMPDEST DUP3 MLOAD SWAP1 SWAP2 POP ISZERO PUSH2 0x1D58 JUMPI POP DUP1 MLOAD SWAP1 PUSH1 0x20 ADD REVERT JUMPDEST PUSH1 0x40 MLOAD PUSH3 0x461BCD PUSH1 0xE5 SHL DUP2 MSTORE SWAP1 DUP2 SWAP1 PUSH2 0x15D5 SWAP1 PUSH1 0x4 DUP4 ADD PUSH2 0x139C JUMP JUMPDEST PUSH1 0x1 SWAP2 DUP1 DUP4 SHL SWAP2 SWAP1 PUSH1 0x1 PUSH1 0x1 PUSH1 0xFF SHL SUB DUP2 AND SUB PUSH2 0x1A62 JUMPI PUSH1 0x2 DUP3 ADD SWAP3 DUP4 DUP4 GT PUSH2 0x1A62 JUMPI PUSH2 0x1DB9 PUSH2 0x1DA3 DUP6 PUSH2 0x13FE JUMP JUMPDEST SWAP5 PUSH2 0x1DB1 PUSH1 0x40 MLOAD SWAP7 DUP8 PUSH2 0x13C8 JUMP JUMPDEST DUP1 DUP7 MSTORE PUSH2 0x13FE JUMP JUMPDEST PUSH1 0x20 SWAP4 SWAP1 DUP6 DUP6 ADD SWAP1 PUSH1 0x1F NOT ADD CALLDATASIZE DUP3 CALLDATACOPY DUP6 MLOAD ISZERO PUSH2 0x1EB2 JUMPI PUSH1 0x30 SWAP1 MSTORE8 DUP5 MLOAD DUP3 LT ISZERO PUSH2 0x1EB2 JUMPI PUSH1 0x78 PUSH1 0x21 DUP7 ADD MSTORE8 DUP2 DUP2 ADD DUP1 SWAP2 GT PUSH2 0x1A62 JUMPI SWAP1 JUMPDEST DUP1 DUP3 GT PUSH2 0x1E43 JUMPI POP POP PUSH2 0x1E00 JUMPI POP SWAP1 JUMP JUMPDEST PUSH1 0x64 SWAP1 PUSH1 0x40 MLOAD SWAP1 PUSH3 0x461BCD PUSH1 0xE5 SHL DUP3 MSTORE DUP1 PUSH1 0x4 DUP4 ADD MSTORE PUSH1 0x24 DUP3 ADD MSTORE PUSH32 0x537472696E67733A20686578206C656E67746820696E73756666696369656E74 PUSH1 0x44 DUP3 ADD MSTORE REVERT JUMPDEST SWAP1 SWAP2 PUSH1 0xF DUP2 AND PUSH1 0x10 DUP2 LT ISZERO PUSH2 0x1E9E JUMPI DUP6 MLOAD DUP5 LT ISZERO PUSH2 0x1E9E JUMPI PUSH16 0x181899199A1A9B1B9C1CB0B131B232B3 PUSH1 0x81 SHL SWAP1 BYTE DUP6 DUP5 ADD DUP6 ADD MSTORE8 PUSH1 0x4 SHR SWAP2 DUP1 ISZERO PUSH2 0x1E8A JUMPI PUSH0 NOT ADD SWAP1 PUSH2 0x1DEF JUMP JUMPDEST PUSH1 0x24 PUSH0 PUSH4 0x4E487B71 PUSH1 0xE0 SHL DUP2 MSTORE PUSH1 0x11 PUSH1 0x4 MSTORE REVERT JUMPDEST PUSH1 0x24 PUSH0 PUSH4 0x4E487B71 PUSH1 0xE0 SHL DUP2 MSTORE PUSH1 0x32 PUSH1 0x4 MSTORE REVERT JUMPDEST PUSH4 0x4E487B71 PUSH1 0xE0 SHL PUSH0 MSTORE PUSH1 0x32 PUSH1 0x4 MSTORE PUSH1 0x24 PUSH0 REVERT JUMPDEST DUP1 SLOAD DUP3 LT ISZERO PUSH2 0x1EB2 JUMPI PUSH0 MSTORE PUSH1 0x20 PUSH0 KECCAK256 ADD SWAP1 PUSH0 SWAP1 JUMP JUMPDEST SWAP2 SWAP1 PUSH1 0x1 DUP4 ADD PUSH0 SWAP1 DUP3 DUP3 MSTORE DUP1 PUSH1 0x20 MSTORE PUSH1 0x40 DUP3 KECCAK256 SLOAD ISZERO PUSH0 EQ PUSH2 0x1F5C JUMPI DUP5 SLOAD SWAP5 PUSH9 0x10000000000000000 DUP7 LT ISZERO PUSH2 0x1F48 JUMPI DUP4 PUSH2 0x1F38 PUSH2 0x1F22 DUP9 PUSH1 0x1 PUSH1 0x40 SWAP9 SWAP10 SWAP11 ADD DUP6 SSTORE DUP5 PUSH2 0x1EC6 JUMP JUMPDEST DUP2 SWAP4 SWAP2 SLOAD SWAP1 PUSH1 0x3 SHL SWAP2 DUP3 SHL SWAP2 PUSH0 NOT SWAP1 SHL NOT AND OR SWAP1 JUMP JUMPDEST SWAP1 SSTORE SLOAD SWAP4 DUP3 MSTORE PUSH1 0x20 MSTORE KECCAK256 SSTORE PUSH1 0x1 SWAP1 JUMP JUMPDEST PUSH4 0x4E487B71 PUSH1 0xE0 SHL DUP4 MSTORE PUSH1 0x41 PUSH1 0x4 MSTORE PUSH1 0x24 DUP4 REVERT JUMPDEST POP SWAP3 POP POP JUMP JUMPDEST SWAP1 PUSH1 0x1 DUP3 ADD SWAP1 PUSH0 SWAP3 DUP2 DUP5 MSTORE DUP3 PUSH1 0x20 MSTORE PUSH1 0x40 DUP5 KECCAK256 SLOAD SWAP1 DUP2 ISZERO ISZERO PUSH0 EQ PUSH2 0x2048 JUMPI PUSH0 NOT SWAP2 DUP1 DUP4 ADD DUP2 DUP2 GT PUSH2 0x2034 JUMPI DUP3 SLOAD SWAP1 DUP5 DUP3 ADD SWAP2 DUP3 GT PUSH2 0x2020 JUMPI DUP1 DUP3 SUB PUSH2 0x1FEB JUMPI JUMPDEST POP POP POP DUP1 SLOAD DUP1 ISZERO PUSH2 0x1FD7 JUMPI DUP3 ADD SWAP2 PUSH2 0x1FBA DUP4 DUP4 PUSH2 0x1EC6 JUMP JUMPDEST SWAP1 SWAP2 DUP3 SLOAD SWAP2 PUSH1 0x3 SHL SHL NOT AND SWAP1 SSTORE SSTORE DUP3 MSTORE PUSH1 0x20 MSTORE PUSH1 0x40 DUP2 KECCAK256 SSTORE PUSH1 0x1 SWAP1 JUMP JUMPDEST PUSH4 0x4E487B71 PUSH1 0xE0 SHL DUP7 MSTORE PUSH1 0x31 PUSH1 0x4 MSTORE PUSH1 0x24 DUP7 REVERT JUMPDEST PUSH2 0x200B PUSH2 0x1FFB PUSH2 0x1F22 SWAP4 DUP7 PUSH2 0x1EC6 JUMP JUMPDEST SWAP1 SLOAD SWAP1 PUSH1 0x3 SHL SHR SWAP3 DUP4 SWAP3 DUP7 PUSH2 0x1EC6 JUMP JUMPDEST SWAP1 SSTORE DUP7 MSTORE DUP5 PUSH1 0x20 MSTORE PUSH1 0x40 DUP7 KECCAK256 SSTORE PUSH0 DUP1 DUP1 PUSH2 0x1FA2 JUMP JUMPDEST PUSH4 0x4E487B71 PUSH1 0xE0 SHL DUP9 MSTORE PUSH1 0x11 PUSH1 0x4 MSTORE PUSH1 0x24 DUP9 REVERT JUMPDEST PUSH4 0x4E487B71 PUSH1 0xE0 SHL DUP8 MSTORE PUSH1 0x11 PUSH1 0x4 MSTORE PUSH1 0x24 DUP8 REVERT JUMPDEST POP POP POP POP SWAP1 JUMP JUMPDEST PUSH2 0x191 SLOAD PUSH1 0x40 MLOAD PUSH4 0xD994D6D5 PUSH1 0xE0 SHL DUP2 MSTORE CALLER PUSH1 0x4 DUP3 ADD MSTORE SWAP1 PUSH1 0x20 SWAP1 DUP3 SWAP1 PUSH1 0x24 SWAP1 DUP3 SWAP1 PUSH1 0x1 PUSH1 0x1 PUSH1 0xA0 SHL SUB AND GAS STATICCALL SWAP1 DUP2 ISZERO PUSH2 0x20DE JUMPI PUSH0 SWAP2 PUSH2 0x20A4 JUMPI JUMPDEST POP ISZERO PUSH2 0x2092 JUMPI JUMP JUMPDEST PUSH1 0x40 MLOAD PUSH4 0x1DD1B1B5 PUSH1 0xE2 SHL DUP2 MSTORE PUSH1 0x4 SWAP1 REVERT JUMPDEST PUSH1 0x20 DUP2 RETURNDATASIZE DUP3 GT PUSH2 0x20D6 JUMPI JUMPDEST DUP2 PUSH2 0x20BC PUSH1 0x20 SWAP4 DUP4 PUSH2 0x13C8 JUMP JUMPDEST DUP2 ADD SUB SLT PUSH2 0x1A7 JUMPI MLOAD SWAP1 DUP2 ISZERO ISZERO DUP3 SUB PUSH2 0x2B5 JUMPI POP PUSH0 PUSH2 0x208A JUMP JUMPDEST RETURNDATASIZE SWAP2 POP PUSH2 0x20AF JUMP JUMPDEST PUSH1 0x40 MLOAD RETURNDATASIZE PUSH0 DUP3 RETURNDATACOPY RETURNDATASIZE SWAP1 REVERT JUMPDEST ISZERO PUSH2 0x20F0 JUMPI JUMP JUMPDEST PUSH1 0x40 MLOAD PUSH3 0x461BCD PUSH1 0xE5 SHL DUP2 MSTORE PUSH1 0x20 PUSH1 0x4 DUP3 ADD MSTORE PUSH1 0x2B PUSH1 0x24 DUP3 ADD MSTORE PUSH32 0x496E697469616C697A61626C653A20636F6E7472616374206973206E6F742069 PUSH1 0x44 DUP3 ADD MSTORE PUSH11 0x6E697469616C697A696E67 PUSH1 0xA8 SHL PUSH1 0x64 DUP3 ADD MSTORE PUSH1 0x84 SWAP1 REVERT INVALID LOG2 PUSH5 0x6970667358 0x22 SLT KECCAK256 0xC DUP8 0xE2 SWAP12 JUMP 0xAC CALL LOG1 0xC6 SMOD MULMOD 0x27 0xF8 SWAP8 EXTCODEHASH 0xBF INVALID 0x5C SWAP11 0xA8 0xCB CREATE PUSH12 0x8558A3FC9EAB68A63464736F PUSH13 0x63430008140033A26469706673 PC 0x22 SLT KECCAK256 STATICCALL SMOD MOD EXP 0xAA LOG2 0x4D SWAP13 DUP14 PUSH2 0x82BD PUSH1 0xBF SLT EXTCODESIZE 0x25 0xE 0xE6 0xC7 PUSH5 0xD5D33419CA DUP3 PUSH12 0xD6C0671364736F6C63430008 EQ STOP CALLER PUSH1 0x80 PUSH1 0x40 MSTORE PUSH2 0x3F1 DUP1 CODESIZE SUB DUP1 PUSH2 0x14 DUP2 PUSH2 0x1F9 JUMP JUMPDEST SWAP3 DUP4 CODECOPY DUP2 ADD SWAP1 PUSH1 0x40 DUP2 DUP4 SUB SLT PUSH2 0x1F5 JUMPI DUP1 MLOAD SWAP1 PUSH1 0x1 PUSH1 0x1 PUSH1 0xA0 SHL SUB DUP3 AND DUP1 DUP4 SUB PUSH2 0x1F5 JUMPI PUSH1 0x20 DUP3 DUP2 ADD MLOAD SWAP1 SWAP3 PUSH1 0x1 PUSH1 0x1 PUSH1 0x40 SHL SUB DUP3 GT PUSH2 0x1F5 JUMPI ADD SWAP3 DUP5 PUSH1 0x1F DUP6 ADD SLT ISZERO PUSH2 0x1F5 JUMPI DUP4 MLOAD SWAP4 PUSH2 0x6F PUSH2 0x6A DUP7 PUSH2 0x232 JUMP JUMPDEST PUSH2 0x1F9 JUMP JUMPDEST SWAP5 DUP1 DUP7 MSTORE DUP5 DUP7 ADD SWAP7 DUP6 DUP3 DUP5 ADD ADD GT PUSH2 0x1F5 JUMPI DUP7 DUP6 PUSH2 0x8D SWAP4 ADD PUSH2 0x24D JUMP JUMPDEST DUP1 EXTCODESIZE ISZERO PUSH2 0x19A JUMPI PUSH32 0x360894A13BA1A3210667C828492DB98DCA3E2076CC3735A920A3CA505D382BBC DUP1 SLOAD PUSH1 0x1 PUSH1 0x1 PUSH1 0xA0 SHL SUB NOT AND DUP4 OR SWAP1 SSTORE PUSH0 SWAP2 PUSH32 0xBC7CD75A20EE27FD9ADEBAB32041F755214DBC6BFFA90CC0225B39DA2E5C2D3B DUP4 DUP1 LOG2 DUP4 MLOAD ISZERO DUP1 ISZERO SWAP1 PUSH2 0x193 JUMPI JUMPDEST PUSH2 0x109 JUMPI JUMPDEST PUSH1 0x40 MLOAD PUSH1 0xCF SWAP1 DUP2 PUSH2 0x322 DUP3 CODECOPY RETURN JUMPDEST DUP2 DUP1 PUSH2 0x17E SWAP7 PUSH2 0x11C PUSH2 0x6A PUSH1 0x27 PUSH2 0x232 JUMP JUMPDEST SWAP7 PUSH1 0x27 DUP9 MSTORE PUSH32 0x416464726573733A206C6F772D6C6576656C2064656C65676174652063616C6C DUP8 DUP10 ADD MSTORE PUSH7 0x819985A5B1959 PUSH1 0xCA SHL PUSH1 0x40 DUP10 ADD MSTORE MLOAD SWAP1 DUP5 GAS DELEGATECALL SWAP2 RETURNDATASIZE ISZERO PUSH2 0x189 JUMPI RETURNDATASIZE SWAP1 PUSH2 0x170 PUSH2 0x6A DUP4 PUSH2 0x232 JUMP JUMPDEST SWAP2 DUP3 MSTORE DUP2 SWAP5 RETURNDATASIZE SWAP3 ADD RETURNDATACOPY PUSH2 0x26E JUMP JUMPDEST POP PUSH0 DUP1 DUP1 DUP1 DUP1 PUSH2 0xFB JUMP JUMPDEST POP PUSH1 0x60 SWAP3 POP PUSH2 0x26E JUMP JUMPDEST POP DUP2 PUSH2 0xF6 JUMP JUMPDEST PUSH1 0x40 MLOAD PUSH3 0x461BCD PUSH1 0xE5 SHL DUP2 MSTORE PUSH1 0x4 DUP2 ADD DUP5 SWAP1 MSTORE PUSH1 0x2D PUSH1 0x24 DUP3 ADD MSTORE PUSH32 0x455243313936373A206E657720696D706C656D656E746174696F6E206973206E PUSH1 0x44 DUP3 ADD MSTORE PUSH13 0x1BDD08184818DBDB9D1C9858DD PUSH1 0x9A SHL PUSH1 0x64 DUP3 ADD MSTORE PUSH1 0x84 SWAP1 REVERT JUMPDEST PUSH0 DUP1 REVERT JUMPDEST PUSH1 0x40 MLOAD SWAP2 SWAP1 PUSH1 0x1F ADD PUSH1 0x1F NOT AND DUP3 ADD PUSH1 0x1 PUSH1 0x1 PUSH1 0x40 SHL SUB DUP2 GT DUP4 DUP3 LT OR PUSH2 0x21E JUMPI PUSH1 0x40 MSTORE JUMP JUMPDEST PUSH4 0x4E487B71 PUSH1 0xE0 SHL PUSH0 MSTORE PUSH1 0x41 PUSH1 0x4 MSTORE PUSH1 0x24 PUSH0 REVERT JUMPDEST PUSH1 0x1 PUSH1 0x1 PUSH1 0x40 SHL SUB DUP2 GT PUSH2 0x21E JUMPI PUSH1 0x1F ADD PUSH1 0x1F NOT AND PUSH1 0x20 ADD SWAP1 JUMP JUMPDEST PUSH0 JUMPDEST DUP4 DUP2 LT PUSH2 0x25E JUMPI POP POP PUSH0 SWAP2 ADD MSTORE JUMP JUMPDEST DUP2 DUP2 ADD MLOAD DUP4 DUP3 ADD MSTORE PUSH1 0x20 ADD PUSH2 0x24F JUMP JUMPDEST SWAP2 SWAP3 SWAP1 ISZERO PUSH2 0x2D0 JUMPI POP DUP2 MLOAD ISZERO PUSH2 0x282 JUMPI POP SWAP1 JUMP JUMPDEST EXTCODESIZE ISZERO PUSH2 0x28B JUMPI SWAP1 JUMP JUMPDEST PUSH1 0x40 MLOAD PUSH3 0x461BCD PUSH1 0xE5 SHL DUP2 MSTORE PUSH1 0x20 PUSH1 0x4 DUP3 ADD MSTORE PUSH1 0x1D PUSH1 0x24 DUP3 ADD MSTORE PUSH32 0x416464726573733A2063616C6C20746F206E6F6E2D636F6E7472616374000000 PUSH1 0x44 DUP3 ADD MSTORE PUSH1 0x64 SWAP1 REVERT JUMPDEST DUP3 MLOAD SWAP1 SWAP2 POP ISZERO PUSH2 0x2E3 JUMPI POP DUP1 MLOAD SWAP1 PUSH1 0x20 ADD REVERT JUMPDEST PUSH1 0x44 PUSH1 0x40 MLOAD DUP1 SWAP3 PUSH3 0x461BCD PUSH1 0xE5 SHL DUP3 MSTORE PUSH1 0x20 PUSH1 0x4 DUP4 ADD MSTORE PUSH2 0x313 DUP2 MLOAD DUP1 SWAP3 DUP2 PUSH1 0x24 DUP7 ADD MSTORE PUSH1 0x20 DUP7 DUP7 ADD SWAP2 ADD PUSH2 0x24D JUMP JUMPDEST PUSH1 0x1F ADD PUSH1 0x1F NOT AND DUP2 ADD SUB ADD SWAP1 REVERT INVALID PUSH1 0x80 PUSH1 0x40 MSTORE CALLDATASIZE ISZERO PUSH1 0x53 JUMPI PUSH32 0x360894A13BA1A3210667C828492DB98DCA3E2076CC3735A920A3CA505D382BBC SLOAD PUSH0 SWAP1 DUP2 SWAP1 DUP2 SWAP1 PUSH1 0x1 PUSH1 0x1 PUSH1 0xA0 SHL SUB AND CALLDATASIZE DUP3 DUP1 CALLDATACOPY DUP2 CALLDATASIZE SWAP2 GAS DELEGATECALL RETURNDATASIZE DUP3 DUP1 RETURNDATACOPY ISZERO PUSH1 0x4F JUMPI RETURNDATASIZE SWAP1 RETURN JUMPDEST RETURNDATASIZE SWAP1 REVERT JUMPDEST PUSH32 0x360894A13BA1A3210667C828492DB98DCA3E2076CC3735A920A3CA505D382BBC SLOAD PUSH0 SWAP1 DUP2 SWAP1 DUP2 SWAP1 PUSH1 0x1 PUSH1 0x1 PUSH1 0xA0 SHL SUB AND CALLDATASIZE DUP3 DUP1 CALLDATACOPY DUP2 CALLDATASIZE SWAP2 GAS DELEGATECALL RETURNDATASIZE DUP3 DUP1 RETURNDATACOPY ISZERO PUSH1 0x4F JUMPI RETURNDATASIZE SWAP1 RETURN INVALID LOG2 PUSH5 0x6970667358 0x22 SLT KECCAK256 0xDE PUSH5 0x7715AF36D3 PUSH28 0xD4338C8BC5FDC840CCFFCDE6980353487EAC0F6B7218455B64736F6C PUSH4 0x43000814 STOP CALLER PUSH1 0xA0 DUP1 PUSH1 0x40 MSTORE CALLVALUE PUSH3 0xDF JUMPI ADDRESS PUSH1 0x80 MSTORE PUSH0 SLOAD SWAP1 PUSH1 0xFF DUP3 PUSH1 0x8 SHR AND PUSH3 0x8D JUMPI POP PUSH1 0xFF DUP1 DUP3 AND SUB PUSH3 0x52 JUMPI JUMPDEST PUSH1 0x40 MLOAD PUSH2 0x5EFB SWAP1 DUP2 PUSH3 0xE4 DUP3 CODECOPY PUSH1 0x80 MLOAD DUP2 DUP2 DUP2 PUSH2 0x1FE0 ADD MSTORE DUP2 DUP2 PUSH2 0x214F ADD MSTORE PUSH2 0x25EA ADD MSTORE RETURN JUMPDEST PUSH1 0xFF SWAP1 DUP2 NOT AND OR PUSH0 SSTORE PUSH32 0x7F26B83FF96E1F2B6A682F133852F6798A09C465DA95921460CEFB3847402498 PUSH1 0x20 PUSH1 0x40 MLOAD PUSH1 0xFF DUP2 MSTORE LOG1 PUSH0 PUSH3 0x2B JUMP JUMPDEST PUSH3 0x461BCD PUSH1 0xE5 SHL DUP2 MSTORE PUSH1 0x20 PUSH1 0x4 DUP3 ADD MSTORE PUSH1 0x27 PUSH1 0x24 DUP3 ADD MSTORE PUSH32 0x496E697469616C697A61626C653A20636F6E747261637420697320696E697469 PUSH1 0x44 DUP3 ADD MSTORE PUSH7 0x616C697A696E67 PUSH1 0xC8 SHL PUSH1 0x64 DUP3 ADD MSTORE PUSH1 0x84 SWAP1 REVERT JUMPDEST PUSH0 DUP1 REVERT INVALID PUSH1 0x40 PUSH1 0x80 DUP2 MSTORE PUSH1 0x4 CALLDATASIZE LT ISZERO PUSH2 0x12 JUMPI PUSH0 DUP1 REVERT JUMPDEST PUSH0 PUSH1 0xE0 DUP2 CALLDATALOAD DUP2 SHR SWAP1 DUP2 PUSH4 0x1DDE6EF EQ PUSH2 0x323D JUMPI DUP2 PUSH4 0x1F1B684 EQ PUSH2 0x31F6 JUMPI DUP2 PUSH4 0x579188F EQ PUSH2 0x314C JUMPI DUP2 PUSH4 0x73763B9 EQ PUSH2 0x3128 JUMPI DUP2 PUSH4 0x7E8CE8B EQ PUSH2 0x2C29 JUMPI DUP2 PUSH4 0xBB7F608 EQ PUSH2 0x2C06 JUMPI DUP2 PUSH4 0xC340A24 EQ PUSH2 0x2BDD JUMPI DUP2 PUSH4 0xC36D897 EQ PUSH2 0x2BBD JUMPI DUP2 PUSH4 0xD6AC463 EQ PUSH2 0x2B77 JUMPI DUP2 PUSH4 0xDB49656 EQ PUSH2 0x2B57 JUMPI DUP2 PUSH4 0xE0A8FD2 EQ PUSH2 0x2B33 JUMPI DUP2 PUSH4 0xF1E5E2B EQ PUSH2 0x2AED JUMPI DUP2 PUSH4 0x15266E36 EQ PUSH2 0x2A8C JUMPI DUP2 PUSH4 0x17937F9B EQ PUSH2 0x2A55 JUMPI DUP2 PUSH4 0x1867E2F5 EQ PUSH2 0x2A35 JUMPI DUP2 PUSH4 0x1FB0DDA0 EQ PUSH2 0x2A0C JUMPI DUP2 PUSH4 0x1FE6A7AD EQ PUSH2 0x29D2 JUMPI DUP2 PUSH4 0x2069F753 EQ PUSH2 0x29AE JUMPI DUP2 PUSH4 0x23B98CDE EQ PUSH2 0x2986 JUMPI DUP2 PUSH4 0x24FFABA3 EQ PUSH2 0x2949 JUMPI DUP2 PUSH4 0x25BC6C41 EQ PUSH2 0x291F JUMPI DUP2 PUSH4 0x27EAB2A1 EQ PUSH2 0x28D9 JUMPI DUP2 PUSH4 0x2A20D57D EQ PUSH2 0x28B9 JUMPI DUP2 PUSH4 0x2B764FAD EQ PUSH2 0x2858 JUMPI DUP2 PUSH4 0x2C43BD3B EQ PUSH2 0x2834 JUMPI DUP2 PUSH4 0x2D88AF4A EQ PUSH2 0x27DD JUMPI DUP2 PUSH4 0x2DED50F0 EQ PUSH2 0x27BD JUMPI DUP2 PUSH4 0x333431FD EQ PUSH2 0x279D JUMPI DUP2 PUSH4 0x33421C38 EQ PUSH2 0x26AA JUMPI DUP2 PUSH4 0x34246862 EQ PUSH2 0x264F JUMPI DUP2 PUSH4 0x3659CFE6 EQ PUSH2 0x25B5 JUMPI DUP2 PUSH4 0x3915EDCB EQ PUSH2 0x2584 JUMPI DUP2 PUSH4 0x3BC4AC0A EQ PUSH2 0x2560 JUMPI DUP2 PUSH4 0x3DBC50A9 EQ PUSH2 0x250F JUMPI DUP2 PUSH4 0x3F4BA83A EQ PUSH2 0x2494 JUMPI DUP2 PUSH4 0x4017936A EQ PUSH2 0x244D JUMPI DUP2 PUSH4 0x407F0E34 EQ PUSH2 0x242D JUMPI DUP2 PUSH4 0x4310ADC6 EQ PUSH2 0x23D2 JUMPI DUP2 PUSH4 0x44719EE9 EQ PUSH2 0x236C JUMPI DUP2 PUSH4 0x466B8934 EQ PUSH2 0x2309 JUMPI DUP2 PUSH4 0x471A80E3 EQ PUSH2 0x22CF JUMPI DUP2 PUSH4 0x484AD7CD EQ PUSH2 0x226E JUMPI DUP2 PUSH4 0x4B746001 EQ PUSH2 0x2224 JUMPI DUP2 PUSH4 0x4D977E78 EQ PUSH2 0x2204 JUMPI DUP2 PUSH4 0x4E1F907A EQ PUSH2 0x21DA JUMPI DUP2 PUSH4 0x4F0F27EE EQ PUSH2 0x21BA JUMPI DUP2 PUSH4 0x4F1EF286 EQ PUSH2 0x20C6 JUMPI DUP2 PUSH4 0x5210570C EQ PUSH2 0x20A0 JUMPI DUP2 PUSH4 0x52D1902D EQ PUSH2 0x1FCB JUMPI DUP2 PUSH4 0x52E18F8F EQ PUSH2 0x1F75 JUMPI DUP2 PUSH4 0x533A4BEA EQ PUSH2 0x1F22 JUMPI DUP2 PUSH4 0x543AEB48 EQ PUSH2 0x1EFE JUMPI DUP2 PUSH4 0x5860EE63 EQ PUSH2 0x1EDE JUMPI DUP2 PUSH4 0x5C616A73 EQ PUSH2 0x1CD6 JUMPI DUP2 PUSH4 0x5C975ABB EQ PUSH2 0x1CAF JUMPI DUP2 PUSH4 0x5ECE17EF EQ PUSH2 0x1C4E JUMPI DUP2 PUSH4 0x60009E0B EQ PUSH2 0x1C24 JUMPI DUP2 PUSH4 0x647846A5 EQ PUSH2 0x1BFA JUMPI DUP2 PUSH4 0x64EC230A EQ PUSH2 0x1BD6 JUMPI DUP2 PUSH4 0x662013F4 EQ PUSH2 0x1BB9 JUMPI DUP2 PUSH4 0x68274357 EQ PUSH2 0x1B90 JUMPI DUP2 PUSH4 0x68F015DF EQ PUSH2 0x1AF4 JUMPI DUP2 PUSH4 0x6B5488DF EQ PUSH2 0x1AD4 JUMPI DUP2 PUSH4 0x6F30471F EQ PUSH2 0x1AB4 JUMPI DUP2 PUSH4 0x70713468 EQ PUSH2 0x1A90 JUMPI DUP2 PUSH4 0x735D3960 EQ PUSH2 0x1A4A JUMPI DUP2 PUSH4 0x73E28AF9 EQ PUSH2 0x1A26 JUMPI DUP2 PUSH4 0x74873AD3 EQ PUSH2 0x19C5 JUMPI DUP2 PUSH4 0x7554FFFD EQ PUSH2 0x19A5 JUMPI DUP2 PUSH4 0x76228055 EQ PUSH2 0x1985 JUMPI DUP2 PUSH4 0x7750BA0C EQ PUSH2 0x1961 JUMPI DUP2 PUSH4 0x79F9A91C EQ PUSH2 0x1941 JUMPI DUP2 PUSH4 0x7A193C31 EQ PUSH2 0x1921 JUMPI DUP2 PUSH4 0x7A4FF1D9 EQ PUSH2 0x18FD JUMPI DUP2 PUSH4 0x7A727FE8 EQ PUSH2 0x18DD JUMPI DUP2 PUSH4 0x7AF5758C EQ PUSH2 0x18B9 JUMPI DUP2 PUSH4 0x7B21B274 EQ PUSH2 0x184F JUMPI DUP2 PUSH4 0x7CBA2383 EQ PUSH2 0x182B JUMPI DUP2 PUSH4 0x7D8E0314 EQ PUSH2 0x17EC JUMPI DUP2 PUSH4 0x7F01C715 EQ PUSH2 0x17C2 JUMPI DUP2 PUSH4 0x7F13B998 EQ PUSH2 0x178C JUMPI DUP2 PUSH4 0x7F4A4FE0 EQ PUSH2 0x176C JUMPI DUP2 PUSH4 0x826FCD58 EQ PUSH2 0x1749 JUMPI DUP2 PUSH4 0x842D5748 EQ PUSH2 0x16EC JUMPI DUP2 PUSH4 0x8456CB59 EQ PUSH2 0x1657 JUMPI DUP2 PUSH4 0x85BF9593 EQ PUSH2 0x1611 JUMPI DUP2 PUSH4 0x89FD503E EQ PUSH2 0x15BA JUMPI DUP2 PUSH4 0x8ACC2011 EQ PUSH2 0x1560 JUMPI DUP2 PUSH4 0x8CFA4241 EQ PUSH2 0x1540 JUMPI DUP2 PUSH4 0x8E2BDB86 EQ PUSH2 0x1516 JUMPI DUP2 PUSH4 0x8F1A383A EQ PUSH2 0x14EE JUMPI DUP2 PUSH4 0x9853C35A EQ PUSH2 0x14C4 JUMPI DUP2 PUSH4 0x98B2086F EQ PUSH2 0x146B JUMPI DUP2 PUSH4 0x9ABB14C9 EQ PUSH2 0x1424 JUMPI DUP2 PUSH4 0x9AD6659D EQ PUSH2 0x13EE JUMPI DUP2 PUSH4 0x9BEA71A4 EQ PUSH2 0x13AC JUMPI DUP2 PUSH4 0x9CABFC00 EQ PUSH2 0x1360 JUMPI DUP2 PUSH4 0x9FD0506D EQ PUSH2 0x1333 JUMPI DUP2 PUSH4 0x9FD8ED0E EQ PUSH2 0x12DE JUMPI DUP2 PUSH4 0xA8E9AC30 EQ PUSH2 0x12BB JUMPI DUP2 PUSH4 0xAAF91EFF EQ PUSH2 0x125A JUMPI DUP2 PUSH4 0xAAF925F6 EQ PUSH2 0x1205 JUMPI DUP2 PUSH4 0xAC0C88AB EQ PUSH2 0x11AA JUMPI DUP2 PUSH4 0xAEA038DC EQ PUSH2 0x118A JUMPI DUP2 PUSH4 0xAEB41E69 EQ PUSH2 0x1129 JUMPI DUP2 PUSH4 0xB5E9EA8C EQ PUSH2 0x10FF JUMPI DUP2 PUSH4 0xB85EDD65 EQ PUSH2 0x10A4 JUMPI DUP2 PUSH4 0xB9FA6413 EQ PUSH2 0x1084 JUMPI DUP2 PUSH4 0xBB4872DE EQ PUSH2 0x1060 JUMPI DUP2 PUSH4 0xBECACA6B EQ PUSH2 0x103C JUMPI DUP2 PUSH4 0xC00F538D EQ PUSH2 0x1018 JUMPI DUP2 PUSH4 0xC039CC69 EQ PUSH2 0xFD6 JUMPI DUP2 PUSH4 0xC09C30BD EQ PUSH2 0xF53 JUMPI DUP2 PUSH4 0xC239FCA4 EQ PUSH2 0xEFB JUMPI DUP2 PUSH4 0xC84353C9 EQ PUSH2 0xED7 JUMPI DUP2 PUSH4 0xCF351C1D EQ PUSH2 0xE91 JUMPI DUP2 PUSH4 0xD1A0FAA0 EQ PUSH2 0xE75 JUMPI DUP2 PUSH4 0xD6AF11DA EQ PUSH2 0xE39 JUMPI DUP2 PUSH4 0xD76DC7FD EQ PUSH2 0xDE1 JUMPI DUP2 PUSH4 0xD87AAB6F EQ PUSH2 0xDC1 JUMPI DUP2 PUSH4 0xD8DB6F5A EQ PUSH2 0xD7B JUMPI DUP2 PUSH4 0xDB796072 EQ PUSH2 0xD3D JUMPI DUP2 PUSH4 0xDDB6D190 EQ PUSH2 0xD00 JUMPI DUP2 PUSH4 0xDE8D520A EQ PUSH2 0xCCD JUMPI DUP2 PUSH4 0xE23C135C EQ PUSH2 0xC77 JUMPI DUP2 PUSH4 0xE3867EEB EQ PUSH2 0xC0E JUMPI DUP2 PUSH4 0xE4012945 EQ PUSH2 0xBB1 JUMPI DUP2 PUSH4 0xE4C0AAF4 EQ PUSH2 0xB6C JUMPI DUP2 PUSH4 0xE6A683E0 EQ PUSH2 0xB26 JUMPI DUP2 PUSH4 0xE6B1627C EQ PUSH2 0xAE2 JUMPI DUP2 PUSH4 0xE7C25978 EQ PUSH2 0xABD JUMPI DUP2 PUSH4 0xE8859A15 EQ PUSH2 0xAA0 JUMPI DUP2 PUSH4 0xEA302A97 EQ PUSH2 0xA43 JUMPI DUP2 PUSH4 0xEE1F438F EQ PUSH2 0xA19 JUMPI DUP2 PUSH4 0xF13F4054 EQ PUSH2 0x9EF JUMPI DUP2 PUSH4 0xF26114AA EQ PUSH2 0x98D JUMPI DUP2 PUSH4 0xF2808778 EQ PUSH2 0x969 JUMPI DUP2 PUSH4 0xF2F9F456 EQ PUSH2 0x913 JUMPI DUP2 PUSH4 0xF30B5614 EQ PUSH2 0x8F3 JUMPI DUP2 PUSH4 0xF375CFBA EQ PUSH2 0x8D3 JUMPI DUP2 PUSH4 0xF88B1434 EQ PUSH2 0x863 JUMPI DUP2 PUSH4 0xFA6E83BD EQ PUSH2 0x843 JUMPI DUP2 PUSH4 0xFADDA424 EQ PUSH2 0x7CF JUMPI DUP2 PUSH4 0xFD80FA77 EQ PUSH2 0x74D JUMPI POP DUP1 PUSH4 0xFDA70F8B EQ PUSH2 0x729 JUMPI DUP1 PUSH4 0xFED0ADE4 EQ PUSH2 0x6DD JUMPI PUSH4 0xFFE31539 EQ PUSH2 0x66F JUMPI PUSH0 DUP1 REVERT JUMPDEST CALLVALUE PUSH2 0x6DA JUMPI POP PUSH1 0x60 CALLDATASIZE PUSH1 0x3 NOT ADD SLT PUSH2 0x6D6 JUMPI PUSH1 0x44 CALLDATALOAD PUSH1 0x1 PUSH1 0x1 PUSH1 0xA0 SHL SUB DUP2 AND SWAP1 DUP2 SWAP1 SUB PUSH2 0x6D6 JUMPI DUP2 MLOAD PUSH2 0x6C9 SWAP2 PUSH2 0x6A7 PUSH1 0xA0 DUP4 PUSH2 0x3349 JUMP JUMPDEST PUSH1 0x4 CALLDATALOAD DUP3 MSTORE PUSH1 0x24 CALLDATALOAD PUSH1 0x20 DUP4 ADD MSTORE CALLER DUP5 DUP4 ADD MSTORE CALLER PUSH1 0x60 DUP4 ADD MSTORE PUSH1 0x80 DUP3 ADD MSTORE PUSH2 0x400D JUMP JUMPDEST POP DUP3 MLOAD SWAP2 DUP3 MSTORE PUSH1 0x20 DUP3 ADD MSTORE RETURN JUMPDEST PUSH0 DUP1 REVERT JUMPDEST DUP1 REVERT JUMPDEST POP CALLVALUE PUSH2 0x6DA JUMPI POP PUSH2 0x6C9 PUSH2 0x6F2 CALLDATASIZE PUSH1 0x4 PUSH2 0x330A JUMP JUMPDEST SWAP1 SWAP2 DUP6 MLOAD SWAP4 PUSH2 0x702 PUSH1 0xA0 DUP7 PUSH2 0x3349 JUMP JUMPDEST DUP5 MSTORE PUSH1 0x20 DUP5 ADD MSTORE CALLER DUP6 DUP5 ADD MSTORE PUSH1 0x1 PUSH1 0x1 PUSH1 0xA0 SHL SUB SWAP2 DUP3 AND PUSH1 0x60 DUP5 ADD MSTORE AND PUSH1 0x80 DUP3 ADD MSTORE PUSH2 0x400D JUMP JUMPDEST POP SWAP1 CALLVALUE PUSH2 0x749 JUMPI DUP2 PUSH1 0x3 NOT CALLDATASIZE ADD SLT PUSH2 0x749 JUMPI PUSH1 0x20 SWAP1 PUSH2 0x16E SLOAD SWAP1 MLOAD SWAP1 DUP2 MSTORE RETURN JUMPDEST POP DUP1 REVERT JUMPDEST DUP4 SWAP2 POP CALLVALUE PUSH2 0x7CB JUMPI PUSH2 0x7AA SWAP1 PUSH2 0x7C7 SWAP4 PUSH2 0x768 CALLDATASIZE PUSH1 0x4 PUSH2 0x33C8 JUMP JUMPDEST SWAP3 PUSH2 0x778 DUP10 SWAP4 SWAP3 SWAP4 MLOAD SWAP8 DUP9 PUSH2 0x3349 JUMP JUMPDEST PUSH1 0x1 DUP1 PUSH1 0xA0 SHL SUB DUP1 SWAP6 AND DUP8 MSTORE PUSH1 0x20 DUP8 ADD MSTORE DUP8 DUP7 ADD MSTORE PUSH1 0x60 DUP6 ADD MSTORE CALLER PUSH1 0x80 DUP6 ADD MSTORE AND PUSH1 0xA0 DUP4 ADD MSTORE PUSH1 0xC0 DUP3 ADD MSTORE CALLER SWAP1 PUSH2 0x5A3B JUMP JUMPDEST POP SWAP3 MLOAD SWAP2 DUP3 MSTORE PUSH1 0x20 DUP3 ADD MSTORE PUSH1 0x40 DUP2 ADD SWAP2 SWAP1 SWAP2 MSTORE SWAP1 DUP2 SWAP1 PUSH1 0x60 DUP3 ADD SWAP1 JUMP JUMPDEST SUB SWAP1 RETURN JUMPDEST DUP3 DUP1 REVERT JUMPDEST POP POP CALLVALUE PUSH2 0x6DA JUMPI PUSH1 0x20 CALLDATASIZE PUSH1 0x3 NOT ADD SLT PUSH2 0x6DA JUMPI POP PUSH1 0x1 PUSH1 0x1 PUSH1 0xA0 SHL SUB PUSH1 0x4 CALLDATALOAD DUP2 DUP2 AND DUP2 SUB PUSH2 0x6D6 JUMPI PUSH2 0x80D PUSH2 0x805 PUSH1 0x1 SWAP3 PUSH2 0x3CA4 JUMP JUMPDEST PUSH2 0x169 PUSH2 0x3330 JUMP JUMPDEST POP ADD SLOAD AND PUSH2 0x81A DUP2 PUSH2 0x3D4C JUMP JUMPDEST SWAP2 SWAP1 SWAP2 ISZERO PUSH2 0x82C JUMPI POP PUSH1 0x20 SWAP2 MLOAD SWAP1 DUP2 MSTORE RETURN JUMPDEST PUSH1 0x24 SWAP1 DUP4 MLOAD SWAP1 PUSH4 0x7F6E4DB9 PUSH1 0xE0 SHL DUP3 MSTORE PUSH1 0x4 DUP3 ADD MSTORE REVERT JUMPDEST DUP3 DUP5 CALLVALUE PUSH2 0x749 JUMPI DUP2 PUSH1 0x3 NOT CALLDATASIZE ADD SLT PUSH2 0x749 JUMPI PUSH1 0x20 SWAP1 PUSH2 0x16C SLOAD SWAP1 MLOAD SWAP1 DUP2 MSTORE RETURN JUMPDEST POP POP CALLVALUE PUSH2 0x6DA JUMPI PUSH1 0x20 CALLDATASIZE PUSH1 0x3 NOT ADD SLT PUSH2 0x6DA JUMPI POP PUSH1 0x4 CALLDATALOAD SWAP1 PUSH1 0x1 PUSH1 0x1 PUSH1 0xA0 SHL SUB DUP3 AND DUP3 SUB PUSH2 0x6D6 JUMPI PUSH2 0x8CC PUSH2 0x8BE PUSH1 0x20 SWAP4 PUSH2 0x8A7 PUSH2 0x89F PUSH2 0x5C7C JUMP JUMPDEST SWAP2 SWAP1 SWAP3 PUSH2 0x3CA4 JUMP JUMPDEST SWAP2 PUSH2 0x8C6 PUSH2 0x8B5 DUP5 DUP5 PUSH2 0x39B6 JUMP JUMPDEST MLOAD SWAP5 DUP6 SWAP4 PUSH2 0x39CA JUMP JUMPDEST SWAP6 SWAP1 SWAP5 PUSH2 0x5BD9 JUMP JUMPDEST SWAP1 PUSH2 0x4B36 JUMP JUMPDEST SWAP1 MLOAD SWAP1 DUP2 MSTORE RETURN JUMPDEST DUP3 DUP5 CALLVALUE PUSH2 0x749 JUMPI DUP2 PUSH1 0x3 NOT CALLDATASIZE ADD SLT PUSH2 0x749 JUMPI PUSH1 0x20 SWAP1 PUSH2 0x173 SLOAD SWAP1 MLOAD SWAP1 DUP2 MSTORE RETURN JUMPDEST DUP3 DUP5 CALLVALUE PUSH2 0x749 JUMPI DUP2 PUSH1 0x3 NOT CALLDATASIZE ADD SLT PUSH2 0x749 JUMPI PUSH1 0x20 SWAP1 PUSH2 0x163 SLOAD SWAP1 MLOAD SWAP1 DUP2 MSTORE RETURN JUMPDEST POP POP CALLVALUE PUSH2 0x6DA JUMPI POP PUSH2 0x6C9 PUSH2 0x929 CALLDATASIZE PUSH1 0x4 PUSH2 0x339B JUMP JUMPDEST SWAP1 DUP6 SWAP4 SWAP3 SWAP4 MLOAD SWAP4 PUSH2 0x93B PUSH1 0xC0 DUP7 PUSH2 0x3349 JUMP JUMPDEST PUSH1 0x1 PUSH1 0x1 PUSH1 0xA0 SHL SUB SWAP4 DUP5 AND DUP6 MSTORE PUSH1 0x20 DUP6 ADD MSTORE DUP6 DUP5 ADD MSTORE CALLER PUSH1 0x60 DUP5 ADD DUP2 SWAP1 MSTORE PUSH1 0x80 DUP5 ADD MSTORE AND PUSH1 0xA0 DUP3 ADD MSTORE PUSH2 0x4754 JUMP JUMPDEST DUP3 CALLVALUE PUSH2 0x6DA JUMPI PUSH1 0x20 CALLDATASIZE PUSH1 0x3 NOT ADD SLT PUSH2 0x6DA JUMPI PUSH2 0x983 PUSH2 0x5DD1 JUMP JUMPDEST PUSH1 0x4 CALLDATALOAD PUSH2 0x16E SSTORE DUP1 RETURN JUMPDEST DUP4 SWAP2 POP CALLVALUE PUSH2 0x7CB JUMPI CALLDATASIZE PUSH1 0x3 NOT ADD SLT PUSH2 0x749 JUMPI PUSH2 0x9EB SWAP1 PUSH2 0x9AB PUSH2 0x5DD1 JUMP JUMPDEST MLOAD PUSH4 0x79308A55 PUSH1 0xE1 SHL PUSH1 0x20 DUP3 ADD MSTORE PUSH2 0x9D9 DUP2 PUSH2 0x9CB PUSH1 0x4 PUSH1 0x24 DUP4 ADD PUSH2 0x5478 JUMP JUMPDEST SUB PUSH1 0x1F NOT DUP2 ADD DUP4 MSTORE DUP3 PUSH2 0x3349 JUMP JUMPDEST PUSH2 0x226 SLOAD PUSH1 0x1 PUSH1 0x1 PUSH1 0xA0 SHL SUB AND PUSH2 0x4EA3 JUMP JUMPDEST POP DUP1 RETURN JUMPDEST DUP3 DUP5 CALLVALUE PUSH2 0x749 JUMPI DUP2 PUSH1 0x3 NOT CALLDATASIZE ADD SLT PUSH2 0x749 JUMPI PUSH2 0x162 SLOAD SWAP1 MLOAD PUSH1 0x1 PUSH1 0x1 PUSH1 0xA0 SHL SUB SWAP1 SWAP2 AND DUP2 MSTORE PUSH1 0x20 SWAP1 RETURN JUMPDEST DUP3 DUP5 CALLVALUE PUSH2 0x749 JUMPI DUP2 PUSH1 0x3 NOT CALLDATASIZE ADD SLT PUSH2 0x749 JUMPI PUSH2 0x182 SLOAD SWAP1 MLOAD PUSH1 0x1 PUSH1 0x1 PUSH1 0xA0 SHL SUB SWAP1 SWAP2 AND DUP2 MSTORE PUSH1 0x20 SWAP1 RETURN JUMPDEST DUP4 SWAP2 POP CALLVALUE PUSH2 0x7CB JUMPI PUSH2 0x7AA SWAP1 PUSH2 0x7C7 SWAP4 PUSH2 0xA5E CALLDATASIZE PUSH1 0x4 PUSH2 0x33C8 JUMP JUMPDEST SWAP3 PUSH2 0xA6E DUP10 SWAP4 SWAP3 SWAP4 MLOAD SWAP8 DUP9 PUSH2 0x3349 JUMP JUMPDEST PUSH1 0x1 DUP1 PUSH1 0xA0 SHL SUB DUP1 SWAP6 AND DUP8 MSTORE PUSH1 0x20 DUP8 ADD MSTORE DUP8 DUP7 ADD MSTORE PUSH1 0x60 DUP6 ADD MSTORE CALLER PUSH1 0x80 DUP6 ADD MSTORE AND PUSH1 0xA0 DUP4 ADD MSTORE PUSH1 0xC0 DUP3 ADD MSTORE CALLER SWAP1 PUSH2 0x50C7 JUMP JUMPDEST DUP3 DUP5 CALLVALUE PUSH2 0x749 JUMPI DUP2 PUSH1 0x3 NOT CALLDATASIZE ADD SLT PUSH2 0x749 JUMPI PUSH1 0x20 SWAP1 PUSH2 0x8CC PUSH2 0x54D9 JUMP JUMPDEST DUP3 DUP5 CALLVALUE PUSH2 0x749 JUMPI DUP2 PUSH1 0x3 NOT CALLDATASIZE ADD SLT PUSH2 0x749 JUMPI PUSH1 0x20 SWAP1 PUSH1 0xFF PUSH2 0x17D SLOAD AND SWAP1 MLOAD SWAP1 ISZERO ISZERO DUP2 MSTORE RETURN JUMPDEST DUP3 DUP5 CALLVALUE PUSH2 0x749 JUMPI PUSH1 0x20 CALLDATASIZE PUSH1 0x3 NOT ADD SLT PUSH2 0x749 JUMPI PUSH1 0x4 CALLDATALOAD PUSH2 0x1BE DUP1 SLOAD DUP3 LT ISZERO PUSH2 0xB22 JUMPI SWAP1 PUSH2 0xB0E SWAP2 PUSH2 0x3330 JUMP JUMPDEST POP PUSH1 0x1 DUP2 SLOAD SWAP2 ADD SLOAD DUP3 MLOAD SWAP2 DUP3 MSTORE PUSH1 0x20 DUP3 ADD MSTORE RETURN JUMPDEST DUP4 DUP1 REVERT JUMPDEST DUP3 CALLVALUE PUSH2 0x6DA JUMPI PUSH1 0x20 CALLDATASIZE PUSH1 0x3 NOT ADD SLT PUSH2 0x6DA JUMPI PUSH1 0x4 CALLDATALOAD PUSH1 0x1 PUSH1 0x1 PUSH1 0xA0 SHL SUB DUP2 AND SWAP1 DUP2 SWAP1 SUB PUSH2 0x6D6 JUMPI PUSH2 0xB55 PUSH2 0x5DD1 JUMP JUMPDEST PUSH2 0x226 DUP1 SLOAD PUSH1 0x1 PUSH1 0x1 PUSH1 0xA0 SHL SUB NOT AND SWAP1 SWAP2 OR SWAP1 SSTORE DUP1 RETURN JUMPDEST DUP3 CALLVALUE PUSH2 0x6DA JUMPI PUSH1 0x20 CALLDATASIZE PUSH1 0x3 NOT ADD SLT PUSH2 0x6DA JUMPI PUSH1 0x4 CALLDATALOAD PUSH1 0x1 PUSH1 0x1 PUSH1 0xA0 SHL SUB DUP2 AND SWAP1 DUP2 SWAP1 SUB PUSH2 0x749 JUMPI PUSH2 0xB9B PUSH2 0x5DD1 JUMP JUMPDEST PUSH1 0x1 PUSH1 0x1 PUSH1 0x60 SHL SUB PUSH1 0xA0 SHL PUSH1 0x97 SLOAD AND OR PUSH1 0x97 SSTORE DUP1 RETURN JUMPDEST POP POP CALLVALUE PUSH2 0x6DA JUMPI PUSH1 0x60 CALLDATASIZE PUSH1 0x3 NOT ADD SLT PUSH2 0x6D6 JUMPI PUSH1 0x44 CALLDATALOAD PUSH1 0x1 PUSH1 0x1 PUSH1 0xA0 SHL SUB DUP2 AND SWAP1 DUP2 SWAP1 SUB PUSH2 0x6D6 JUMPI PUSH2 0x6C9 SWAP2 DUP4 MLOAD SWAP2 PUSH2 0xBEB PUSH1 0xA0 DUP5 PUSH2 0x3349 JUMP JUMPDEST PUSH1 0x4 CALLDATALOAD DUP4 MSTORE PUSH1 0x24 CALLDATALOAD PUSH1 0x20 DUP5 ADD MSTORE CALLER DUP6 DUP5 ADD MSTORE PUSH1 0x60 DUP4 ADD MSTORE PUSH1 0x80 DUP3 ADD MSTORE CALLER SWAP1 PUSH2 0x54F0 JUMP JUMPDEST DUP4 SWAP2 POP CALLVALUE PUSH2 0x7CB JUMPI PUSH2 0x7AA SWAP1 PUSH2 0x7C7 SWAP4 PUSH2 0xC29 CALLDATASIZE PUSH1 0x4 PUSH2 0x33FA JUMP JUMPDEST SWAP3 DUP10 SWAP8 SWAP6 SWAP8 SWAP3 SWAP2 SWAP3 MLOAD SWAP8 PUSH2 0xC3F PUSH2 0x100 DUP11 PUSH2 0x3349 JUMP JUMPDEST PUSH1 0x1 DUP1 PUSH1 0xA0 SHL SUB SWAP6 DUP7 DUP1 SWAP3 AND DUP11 MSTORE AND PUSH1 0x20 DUP10 ADD MSTORE DUP10 DUP9 ADD MSTORE PUSH1 0x60 DUP8 ADD MSTORE PUSH1 0x80 DUP7 ADD MSTORE CALLER PUSH1 0xA0 DUP7 ADD MSTORE AND PUSH1 0xC0 DUP5 ADD MSTORE DUP3 ADD MSTORE CALLER SWAP1 PUSH2 0x4EC4 JUMP JUMPDEST DUP3 CALLVALUE PUSH2 0x6DA JUMPI DUP1 PUSH1 0x3 NOT CALLDATASIZE ADD SLT PUSH2 0x6DA JUMPI PUSH2 0xC91 ADDRESS PUSH2 0x3930 JUMP JUMPDEST PUSH2 0x163 SWAP1 PUSH2 0xCA1 DUP3 SLOAD DUP1 SWAP3 PUSH2 0x390F JUMP JUMPDEST PUSH2 0xCA9 JUMPI DUP3 DUP1 RETURN JUMPDEST DUP1 PUSH2 0xCBF PUSH2 0xCC5 SWAP3 PUSH2 0xCBA ADDRESS PUSH2 0x3930 JUMP JUMPDEST PUSH2 0x390F JUMP JUMPDEST SWAP1 PUSH2 0x39A9 JUMP JUMPDEST SWAP1 SSTORE DUP2 DUP1 DUP3 DUP1 RETURN JUMPDEST DUP3 DUP5 CALLVALUE PUSH2 0x749 JUMPI DUP2 PUSH1 0x3 NOT CALLDATASIZE ADD SLT PUSH2 0x749 JUMPI PUSH1 0x20 SWAP1 PUSH2 0x8CC PUSH2 0xCF5 PUSH2 0xCF0 PUSH2 0x3DB1 JUMP JUMPDEST PUSH2 0x39CA JUMP JUMPDEST SWAP1 POP PUSH2 0x163 SLOAD PUSH2 0x390F JUMP JUMPDEST DUP3 DUP5 CALLVALUE PUSH2 0x749 JUMPI PUSH1 0x20 CALLDATASIZE PUSH1 0x3 NOT ADD SLT PUSH2 0x749 JUMPI PUSH1 0x4 CALLDATALOAD PUSH1 0x1 PUSH1 0x1 PUSH1 0xA0 SHL SUB DUP2 AND SWAP1 DUP2 SWAP1 SUB PUSH2 0x6D6 JUMPI DUP3 DUP3 SWAP2 PUSH1 0x20 SWAP5 MSTORE PUSH2 0x177 DUP5 MSTORE KECCAK256 SLOAD SWAP1 MLOAD SWAP1 DUP2 MSTORE RETURN JUMPDEST DUP4 SWAP2 POP CALLVALUE PUSH2 0x7CB JUMPI CALLDATASIZE PUSH1 0x3 NOT ADD SLT PUSH2 0x749 JUMPI PUSH2 0x9EB SWAP1 PUSH2 0xD5B PUSH2 0x5DD1 JUMP JUMPDEST MLOAD PUSH4 0x6DBCB039 PUSH1 0xE1 SHL PUSH1 0x20 DUP3 ADD MSTORE PUSH2 0x9D9 DUP2 PUSH2 0x9CB PUSH1 0x4 PUSH1 0x24 DUP4 ADD PUSH2 0x5478 JUMP JUMPDEST DUP3 CALLVALUE PUSH2 0x6DA JUMPI PUSH1 0x20 CALLDATASIZE PUSH1 0x3 NOT ADD SLT PUSH2 0x6DA JUMPI PUSH1 0x4 CALLDATALOAD PUSH1 0x1 PUSH1 0x1 PUSH1 0xA0 SHL SUB DUP2 AND SWAP1 DUP2 SWAP1 SUB PUSH2 0x6D6 JUMPI PUSH2 0xDAA PUSH2 0x5DD1 JUMP JUMPDEST PUSH2 0x182 DUP1 SLOAD PUSH1 0x1 PUSH1 0x1 PUSH1 0xA0 SHL SUB NOT AND SWAP1 SWAP2 OR SWAP1 SSTORE DUP1 RETURN JUMPDEST DUP3 DUP5 CALLVALUE PUSH2 0x749 JUMPI DUP2 PUSH1 0x3 NOT CALLDATASIZE ADD SLT PUSH2 0x749 JUMPI PUSH1 0x20 SWAP1 PUSH2 0x185 SLOAD SWAP1 MLOAD SWAP1 DUP2 MSTORE RETURN JUMPDEST DUP3 DUP5 CALLVALUE PUSH2 0x749 JUMPI PUSH2 0x7C7 SWAP1 PUSH2 0x7AA PUSH2 0xDFA CALLDATASIZE PUSH1 0x4 PUSH2 0x343A JUMP JUMPDEST SWAP2 SWAP4 SWAP1 DUP7 MLOAD SWAP5 PUSH2 0xE0B PUSH1 0xC0 DUP8 PUSH2 0x3349 JUMP JUMPDEST PUSH1 0x1 DUP1 PUSH1 0xA0 SHL SUB SWAP5 DUP6 DUP1 SWAP5 AND DUP8 MSTORE PUSH1 0x20 DUP8 ADD MSTORE DUP8 DUP7 ADD MSTORE CALLER PUSH1 0x60 DUP7 ADD MSTORE AND PUSH1 0x80 DUP5 ADD MSTORE AND PUSH1 0xA0 DUP3 ADD MSTORE PUSH2 0x4D0F JUMP JUMPDEST DUP3 DUP5 CALLVALUE PUSH2 0x749 JUMPI DUP2 PUSH1 0x3 NOT CALLDATASIZE ADD SLT PUSH2 0x749 JUMPI PUSH1 0x20 SWAP1 PUSH2 0x8CC PUSH2 0xE5B PUSH1 0x1 PUSH2 0x3DEA JUMP JUMPDEST PUSH2 0xE6F PUSH2 0xE68 DUP3 DUP5 PUSH2 0x3AFF JUMP JUMPDEST SWAP2 DUP4 PUSH2 0x3A4F JUMP JUMPDEST SWAP2 PUSH2 0x3E30 JUMP JUMPDEST DUP3 CALLVALUE PUSH2 0x6DA JUMPI DUP1 PUSH1 0x3 NOT CALLDATASIZE ADD SLT PUSH2 0x6DA JUMPI PUSH2 0xE8E PUSH2 0x5D3E JUMP JUMPDEST DUP1 RETURN JUMPDEST DUP3 CALLVALUE PUSH2 0x6DA JUMPI PUSH1 0x20 CALLDATASIZE PUSH1 0x3 NOT ADD SLT PUSH2 0x6DA JUMPI PUSH1 0x4 CALLDATALOAD PUSH1 0x1 PUSH1 0x1 PUSH1 0xA0 SHL SUB DUP2 AND SWAP1 DUP2 SWAP1 SUB PUSH2 0x6D6 JUMPI PUSH2 0xEC0 PUSH2 0x5DD1 JUMP JUMPDEST PUSH2 0x161 DUP1 SLOAD PUSH1 0x1 PUSH1 0x1 PUSH1 0xA0 SHL SUB NOT AND SWAP1 SWAP2 OR SWAP1 SSTORE DUP1 RETURN JUMPDEST DUP3 CALLVALUE PUSH2 0x6DA JUMPI PUSH1 0x20 CALLDATASIZE PUSH1 0x3 NOT ADD SLT PUSH2 0x6DA JUMPI PUSH2 0xEF1 PUSH2 0x5DD1 JUMP JUMPDEST PUSH1 0x4 CALLDATALOAD PUSH2 0x17E SSTORE DUP1 RETURN JUMPDEST DUP3 DUP5 CALLVALUE PUSH2 0x749 JUMPI PUSH2 0x7AA PUSH2 0x7C7 SWAP3 PUSH2 0xF14 CALLDATASIZE PUSH1 0x4 PUSH2 0x339B JUMP JUMPDEST SWAP1 DUP7 SWAP5 SWAP4 SWAP3 SWAP5 MLOAD SWAP5 PUSH2 0xF27 PUSH1 0xC0 DUP8 PUSH2 0x3349 JUMP JUMPDEST PUSH1 0x1 PUSH1 0x1 PUSH1 0xA0 SHL SUB SWAP4 DUP5 AND DUP7 MSTORE PUSH1 0x20 DUP7 ADD MSTORE DUP7 DUP6 ADD MSTORE CALLER PUSH1 0x60 DUP6 ADD MSTORE AND PUSH1 0x80 DUP4 ADD MSTORE PUSH1 0xA0 DUP3 ADD MSTORE PUSH2 0x4D0F JUMP JUMPDEST DUP4 DUP4 CALLVALUE PUSH2 0x6DA JUMPI PUSH1 0xA0 CALLDATASIZE PUSH1 0x3 NOT ADD SLT PUSH2 0x6DA JUMPI PUSH1 0x1 PUSH1 0x1 PUSH1 0xA0 SHL SUB SWAP1 PUSH1 0x4 CALLDATALOAD DUP3 DUP2 AND SWAP2 SWAP1 DUP3 SWAP1 SUB PUSH2 0x6D6 JUMPI PUSH1 0x24 CALLDATALOAD SWAP3 DUP4 AND DUP1 SWAP4 SUB PUSH2 0x6D6 JUMPI PUSH2 0x7C7 SWAP5 PUSH2 0x7AA SWAP4 DUP6 MLOAD SWAP4 PUSH2 0xFA2 PUSH2 0x100 DUP7 PUSH2 0x3349 JUMP JUMPDEST DUP5 MSTORE PUSH1 0x20 DUP5 ADD MSTORE PUSH1 0x44 CALLDATALOAD DUP6 DUP5 ADD MSTORE PUSH1 0x64 CALLDATALOAD PUSH1 0x60 DUP5 ADD MSTORE PUSH1 0x84 CALLDATALOAD PUSH1 0x80 DUP5 ADD MSTORE CALLER PUSH1 0xA0 DUP5 ADD MSTORE CALLER PUSH1 0xC0 DUP5 ADD MSTORE DUP3 ADD MSTORE CALLER SWAP1 PUSH2 0x4EC4 JUMP JUMPDEST DUP3 DUP5 CALLVALUE PUSH2 0x749 JUMPI DUP2 PUSH1 0x3 NOT CALLDATASIZE ADD SLT PUSH2 0x749 JUMPI PUSH1 0x20 SWAP1 PUSH2 0x8CC PUSH2 0x100B PUSH2 0x1012 PUSH2 0xFFF PUSH2 0xCF0 PUSH2 0x3DB1 JUMP JUMPDEST PUSH2 0x163 SWAP4 SWAP2 SWAP4 SLOAD PUSH2 0x390F JUMP JUMPDEST SWAP2 DUP3 PUSH2 0x390F JUMP JUMPDEST SWAP1 PUSH2 0x5E7F JUMP JUMPDEST DUP3 CALLVALUE PUSH2 0x6DA JUMPI PUSH1 0x20 CALLDATASIZE PUSH1 0x3 NOT ADD SLT PUSH2 0x6DA JUMPI PUSH2 0x1032 PUSH2 0x5DD1 JUMP JUMPDEST PUSH1 0x4 CALLDATALOAD PUSH2 0x16F SSTORE DUP1 RETURN JUMPDEST DUP3 CALLVALUE PUSH2 0x6DA JUMPI PUSH1 0x20 CALLDATASIZE PUSH1 0x3 NOT ADD SLT PUSH2 0x6DA JUMPI PUSH2 0x1056 PUSH2 0x5DD1 JUMP JUMPDEST PUSH1 0x4 CALLDATALOAD PUSH2 0x16B SSTORE DUP1 RETURN JUMPDEST DUP3 DUP5 CALLVALUE PUSH2 0x749 JUMPI DUP2 PUSH1 0x3 NOT CALLDATASIZE ADD SLT PUSH2 0x749 JUMPI PUSH1 0x20 SWAP1 PUSH1 0xFF PUSH1 0xCA SLOAD AND SWAP1 MLOAD SWAP1 ISZERO ISZERO DUP2 MSTORE RETURN JUMPDEST DUP3 DUP5 CALLVALUE PUSH2 0x749 JUMPI DUP2 PUSH1 0x3 NOT CALLDATASIZE ADD SLT PUSH2 0x749 JUMPI PUSH1 0x20 SWAP1 PUSH2 0x18B SLOAD SWAP1 MLOAD SWAP1 DUP2 MSTORE RETURN JUMPDEST DUP4 SWAP2 POP CALLVALUE PUSH2 0x7CB JUMPI PUSH2 0x7AA SWAP1 PUSH2 0x7C7 SWAP4 PUSH2 0x10BF CALLDATASIZE PUSH1 0x4 PUSH2 0x32E1 JUMP JUMPDEST SWAP3 PUSH2 0x10CF DUP9 SWAP4 SWAP3 SWAP4 MLOAD SWAP7 DUP8 PUSH2 0x3349 JUMP JUMPDEST PUSH1 0x1 DUP1 PUSH1 0xA0 SHL SUB AND DUP6 MSTORE PUSH1 0x20 DUP6 ADD MSTORE DUP6 DUP5 ADD MSTORE PUSH1 0x60 DUP4 ADD MSTORE CALLER PUSH1 0x80 DUP4 ADD MSTORE CALLER PUSH1 0xA0 DUP4 ADD MSTORE PUSH1 0xC0 DUP3 ADD MSTORE CALLER SWAP1 PUSH2 0x524C JUMP JUMPDEST DUP3 DUP5 CALLVALUE PUSH2 0x749 JUMPI DUP2 PUSH1 0x3 NOT CALLDATASIZE ADD SLT PUSH2 0x749 JUMPI PUSH2 0x183 SLOAD SWAP1 MLOAD PUSH1 0x1 PUSH1 0x1 PUSH1 0xA0 SHL SUB SWAP1 SWAP2 AND DUP2 MSTORE PUSH1 0x20 SWAP1 RETURN JUMPDEST DUP4 DUP4 CALLVALUE PUSH2 0x6DA JUMPI POP PUSH2 0x7AA PUSH2 0x7C7 SWAP3 PUSH2 0x1143 CALLDATASIZE PUSH1 0x4 PUSH2 0x33C8 JUMP JUMPDEST SWAP3 PUSH2 0x1153 DUP9 SWAP4 SWAP3 SWAP4 MLOAD SWAP7 DUP8 PUSH2 0x3349 JUMP JUMPDEST PUSH1 0x1 PUSH1 0x1 PUSH1 0xA0 SHL SUB SWAP5 DUP6 AND DUP7 MSTORE PUSH1 0x20 DUP7 ADD MSTORE DUP7 DUP6 ADD MSTORE PUSH1 0x60 DUP5 ADD MSTORE CALLER PUSH1 0x80 DUP5 ADD DUP2 SWAP1 MSTORE PUSH1 0xA0 DUP5 ADD DUP2 SWAP1 MSTORE SWAP2 AND PUSH1 0xC0 DUP4 ADD MSTORE SWAP1 PUSH2 0x5A3B JUMP JUMPDEST DUP3 DUP5 CALLVALUE PUSH2 0x749 JUMPI DUP2 PUSH1 0x3 NOT CALLDATASIZE ADD SLT PUSH2 0x749 JUMPI PUSH1 0x20 SWAP1 PUSH2 0x16F SLOAD SWAP1 MLOAD SWAP1 DUP2 MSTORE RETURN JUMPDEST DUP4 SWAP2 POP CALLVALUE PUSH2 0x7CB JUMPI PUSH2 0x7AA SWAP1 PUSH2 0x7C7 SWAP4 PUSH2 0x11C5 CALLDATASIZE PUSH1 0x4 PUSH2 0x32E1 JUMP JUMPDEST SWAP3 PUSH2 0x11D5 DUP9 SWAP4 SWAP3 SWAP4 MLOAD SWAP7 DUP8 PUSH2 0x3349 JUMP JUMPDEST PUSH1 0x1 DUP1 PUSH1 0xA0 SHL SUB AND DUP6 MSTORE PUSH1 0x20 DUP6 ADD MSTORE DUP6 DUP5 ADD MSTORE PUSH1 0x60 DUP4 ADD MSTORE CALLER PUSH1 0x80 DUP4 ADD MSTORE CALLER PUSH1 0xA0 DUP4 ADD MSTORE PUSH1 0xC0 DUP3 ADD MSTORE CALLER SWAP1 PUSH2 0x50C7 JUMP JUMPDEST POP POP CALLVALUE PUSH2 0x6DA JUMPI PUSH2 0x6C9 SWAP1 PUSH2 0x121B CALLDATASIZE PUSH1 0x4 PUSH2 0x339B JUMP JUMPDEST SWAP1 DUP7 SWAP5 SWAP4 SWAP3 SWAP5 MLOAD SWAP5 PUSH2 0x122E PUSH1 0xC0 DUP8 PUSH2 0x3349 JUMP JUMPDEST PUSH1 0x1 PUSH1 0x1 PUSH1 0xA0 SHL SUB SWAP4 DUP5 AND DUP7 MSTORE PUSH1 0x20 DUP7 ADD MSTORE DUP7 DUP6 ADD MSTORE CALLER PUSH1 0x60 DUP6 ADD MSTORE AND PUSH1 0x80 DUP4 ADD MSTORE PUSH1 0xA0 DUP3 ADD MSTORE PUSH2 0x4754 JUMP JUMPDEST DUP4 DUP4 CALLVALUE PUSH2 0x6DA JUMPI POP PUSH2 0x7AA PUSH2 0x7C7 SWAP3 PUSH2 0x1274 CALLDATASIZE PUSH1 0x4 PUSH2 0x33C8 JUMP JUMPDEST SWAP3 PUSH2 0x1284 DUP9 SWAP4 SWAP3 SWAP4 MLOAD SWAP7 DUP8 PUSH2 0x3349 JUMP JUMPDEST PUSH1 0x1 PUSH1 0x1 PUSH1 0xA0 SHL SUB SWAP5 DUP6 AND DUP7 MSTORE PUSH1 0x20 DUP7 ADD MSTORE DUP7 DUP6 ADD MSTORE PUSH1 0x60 DUP5 ADD MSTORE CALLER PUSH1 0x80 DUP5 ADD DUP2 SWAP1 MSTORE PUSH1 0xA0 DUP5 ADD DUP2 SWAP1 MSTORE SWAP2 AND PUSH1 0xC0 DUP4 ADD MSTORE SWAP1 PUSH2 0x524C JUMP JUMPDEST DUP3 DUP5 CALLVALUE PUSH2 0x749 JUMPI DUP2 PUSH1 0x3 NOT CALLDATASIZE ADD SLT PUSH2 0x749 JUMPI PUSH1 0x20 SWAP1 PUSH2 0x1BF SLOAD NUMBER LT ISZERO SWAP1 MLOAD SWAP1 DUP2 MSTORE RETURN JUMPDEST POP POP CALLVALUE PUSH2 0x6DA JUMPI POP PUSH2 0x6C9 PUSH2 0x12F4 CALLDATASIZE PUSH1 0x4 PUSH2 0x343A JUMP JUMPDEST SWAP2 SWAP4 SWAP1 DUP7 MLOAD SWAP5 PUSH2 0x1305 PUSH1 0xC0 DUP8 PUSH2 0x3349 JUMP JUMPDEST PUSH1 0x1 DUP1 PUSH1 0xA0 SHL SUB SWAP5 DUP6 DUP1 SWAP5 AND DUP8 MSTORE PUSH1 0x20 DUP8 ADD MSTORE DUP8 DUP7 ADD MSTORE CALLER PUSH1 0x60 DUP7 ADD MSTORE AND PUSH1 0x80 DUP5 ADD MSTORE AND PUSH1 0xA0 DUP3 ADD MSTORE PUSH2 0x4754 JUMP JUMPDEST DUP3 DUP5 CALLVALUE PUSH2 0x749 JUMPI DUP2 PUSH1 0x3 NOT CALLDATASIZE ADD SLT PUSH2 0x749 JUMPI PUSH1 0xCA SLOAD SWAP1 MLOAD PUSH1 0x10 SWAP2 SWAP1 SWAP2 SHR PUSH1 0x1 PUSH1 0x1 PUSH1 0xA0 SHL SUB AND DUP2 MSTORE PUSH1 0x20 SWAP1 RETURN JUMPDEST POP POP CALLVALUE PUSH2 0x6DA JUMPI PUSH1 0x20 CALLDATASIZE PUSH1 0x3 NOT ADD SLT PUSH2 0x6DA JUMPI PUSH1 0x4 CALLDATALOAD PUSH1 0x1 PUSH1 0x1 PUSH1 0xA0 SHL SUB DUP2 AND SWAP2 SWAP1 DUP3 SWAP1 SUB PUSH2 0x6D6 JUMPI DUP3 SWAP2 DUP2 MSTORE PUSH2 0x168 PUSH1 0x20 MSTORE KECCAK256 PUSH1 0xFF PUSH1 0x1 DUP3 SLOAD SWAP3 ADD SLOAD AND DUP3 MLOAD SWAP2 DUP3 MSTORE ISZERO ISZERO PUSH1 0x20 DUP3 ADD MSTORE RETURN JUMPDEST POP POP CALLVALUE PUSH2 0x6DA JUMPI DUP2 PUSH1 0x3 NOT CALLDATASIZE ADD SLT PUSH2 0x6DA JUMPI POP PUSH1 0x1 PUSH1 0x1 PUSH1 0xA0 SHL SUB SWAP1 PUSH1 0x4 CALLDATALOAD DUP3 DUP2 AND DUP2 SUB PUSH2 0x6D6 JUMPI PUSH1 0x24 CALLDATALOAD SWAP3 DUP4 AND DUP4 SUB PUSH2 0x6D6 JUMPI PUSH1 0x20 SWAP3 PUSH2 0x8CC SWAP2 CALLER SWAP1 PUSH2 0x53E5 JUMP JUMPDEST DUP3 DUP5 CALLVALUE PUSH2 0x749 JUMPI DUP2 PUSH1 0x3 NOT CALLDATASIZE ADD SLT PUSH2 0x749 JUMPI PUSH1 0x20 SWAP1 PUSH2 0x1417 PUSH2 0x1411 PUSH2 0xCF0 PUSH2 0x3DB1 JUMP JUMPDEST SWAP1 PUSH2 0x3B6F JUMP JUMPDEST PUSH2 0x17C SLOAD LT ISZERO SWAP1 MLOAD SWAP1 DUP2 MSTORE RETURN JUMPDEST POP POP CALLVALUE PUSH2 0x6DA JUMPI DUP2 PUSH1 0x3 NOT CALLDATASIZE ADD SLT PUSH2 0x6D6 JUMPI DUP2 MLOAD PUSH2 0x6C9 SWAP2 PUSH2 0x1447 PUSH1 0xA0 DUP4 PUSH2 0x3349 JUMP JUMPDEST PUSH1 0x4 CALLDATALOAD DUP3 MSTORE PUSH1 0x24 CALLDATALOAD PUSH1 0x20 DUP4 ADD MSTORE CALLER DUP5 DUP4 ADD MSTORE CALLER PUSH1 0x60 DUP4 ADD MSTORE PUSH1 0x80 DUP3 ADD MSTORE CALLER SWAP1 PUSH2 0x54F0 JUMP JUMPDEST DUP3 DUP5 CALLVALUE PUSH2 0x749 JUMPI PUSH2 0x7C7 SWAP1 PUSH2 0x7AA PUSH2 0x1484 CALLDATASIZE PUSH1 0x4 PUSH2 0x339B JUMP JUMPDEST SWAP1 DUP6 SWAP4 SWAP3 SWAP4 MLOAD SWAP4 PUSH2 0x1496 PUSH1 0xC0 DUP7 PUSH2 0x3349 JUMP JUMPDEST PUSH1 0x1 PUSH1 0x1 PUSH1 0xA0 SHL SUB SWAP4 DUP5 AND DUP6 MSTORE PUSH1 0x20 DUP6 ADD MSTORE DUP6 DUP5 ADD MSTORE CALLER PUSH1 0x60 DUP5 ADD DUP2 SWAP1 MSTORE PUSH1 0x80 DUP5 ADD MSTORE AND PUSH1 0xA0 DUP3 ADD MSTORE PUSH2 0x4D0F JUMP JUMPDEST DUP3 DUP5 CALLVALUE PUSH2 0x749 JUMPI DUP2 PUSH1 0x3 NOT CALLDATASIZE ADD SLT PUSH2 0x749 JUMPI PUSH2 0x178 SLOAD SWAP1 MLOAD PUSH1 0x1 PUSH1 0x1 PUSH1 0xA0 SHL SUB SWAP1 SWAP2 AND DUP2 MSTORE PUSH1 0x20 SWAP1 RETURN JUMPDEST DUP3 DUP5 CALLVALUE PUSH2 0x749 JUMPI DUP2 PUSH1 0x3 NOT CALLDATASIZE ADD SLT PUSH2 0x749 JUMPI PUSH1 0x20 SWAP1 PUSH2 0x150E PUSH2 0xCF0 PUSH2 0x3DB1 JUMP JUMPDEST POP SWAP1 MLOAD SWAP1 DUP2 MSTORE RETURN JUMPDEST DUP3 DUP5 CALLVALUE PUSH2 0x749 JUMPI DUP2 PUSH1 0x3 NOT CALLDATASIZE ADD SLT PUSH2 0x749 JUMPI PUSH2 0x188 SLOAD SWAP1 MLOAD PUSH1 0x1 PUSH1 0x1 PUSH1 0xA0 SHL SUB SWAP1 SWAP2 AND DUP2 MSTORE PUSH1 0x20 SWAP1 RETURN JUMPDEST DUP3 DUP5 CALLVALUE PUSH2 0x749 JUMPI DUP2 PUSH1 0x3 NOT CALLDATASIZE ADD SLT PUSH2 0x749 JUMPI PUSH1 0x20 SWAP1 PUSH2 0x17C SLOAD SWAP1 MLOAD SWAP1 DUP2 MSTORE RETURN JUMPDEST POP POP CALLVALUE PUSH2 0x6DA JUMPI POP PUSH2 0x6C9 PUSH2 0x1576 CALLDATASIZE PUSH1 0x4 PUSH2 0x339B JUMP JUMPDEST SWAP1 DUP6 SWAP4 SWAP3 SWAP4 MLOAD SWAP4 PUSH2 0x1588 PUSH1 0xC0 DUP7 PUSH2 0x3349 JUMP JUMPDEST PUSH1 0x1 PUSH1 0x1 PUSH1 0xA0 SHL SUB SWAP4 DUP5 AND DUP6 MSTORE PUSH1 0x20 DUP6 ADD MSTORE DUP6 DUP5 ADD MSTORE CALLER PUSH1 0x60 DUP5 ADD DUP2 SWAP1 MSTORE PUSH1 0x80 DUP5 ADD DUP2 SWAP1 MSTORE SWAP2 AND PUSH1 0xA0 DUP4 ADD MSTORE SWAP1 PUSH2 0x57AD JUMP JUMPDEST POP POP CALLVALUE PUSH2 0x6DA JUMPI POP PUSH2 0x6C9 PUSH2 0x15D0 CALLDATASIZE PUSH1 0x4 PUSH2 0x343A JUMP JUMPDEST SWAP2 SWAP4 SWAP1 DUP7 MLOAD SWAP5 PUSH2 0x15E1 PUSH1 0xC0 DUP8 PUSH2 0x3349 JUMP JUMPDEST PUSH1 0x1 DUP1 PUSH1 0xA0 SHL SUB SWAP5 DUP6 DUP1 SWAP5 AND DUP8 MSTORE PUSH1 0x20 DUP8 ADD MSTORE DUP8 DUP7 ADD MSTORE CALLER PUSH1 0x60 DUP7 ADD MSTORE AND PUSH1 0x80 DUP5 ADD MSTORE AND PUSH1 0xA0 DUP3 ADD MSTORE CALLER SWAP1 PUSH2 0x57AD JUMP JUMPDEST DUP3 CALLVALUE PUSH2 0x6DA JUMPI PUSH1 0x20 CALLDATASIZE PUSH1 0x3 NOT ADD SLT PUSH2 0x6DA JUMPI PUSH1 0x4 CALLDATALOAD PUSH1 0x1 PUSH1 0x1 PUSH1 0xA0 SHL SUB DUP2 AND SWAP1 DUP2 SWAP1 SUB PUSH2 0x6D6 JUMPI PUSH2 0x1640 PUSH2 0x5DD1 JUMP JUMPDEST PUSH2 0x183 DUP1 SLOAD PUSH1 0x1 PUSH1 0x1 PUSH1 0xA0 SHL SUB NOT AND SWAP1 SWAP2 OR SWAP1 SSTORE DUP1 RETURN JUMPDEST DUP3 DUP5 CALLVALUE PUSH2 0x749 JUMPI DUP2 PUSH1 0x3 NOT CALLDATASIZE ADD SLT PUSH2 0x749 JUMPI PUSH2 0x1671 PUSH2 0x5E5E JUMP JUMPDEST PUSH1 0xCA SLOAD PUSH1 0x10 DUP2 SWAP1 SHR PUSH1 0x1 PUSH1 0x1 PUSH1 0xA0 SHL SUB AND CALLER SUB PUSH2 0x16DB JUMPI PUSH1 0xFF DUP2 AND ISZERO PUSH2 0x16CA JUMPI PUSH2 0xFF00 NOT AND PUSH2 0x100 OR PUSH1 0xCA SSTORE MLOAD CALLER DUP2 MSTORE PUSH32 0x62E78CEA01BEE320CD4E420270B5EA74000D11B0C9F74754EBDBFC544B05A258 SWAP1 PUSH1 0x20 SWAP1 LOG1 DUP1 RETURN JUMPDEST DUP2 MLOAD PUSH4 0x866099C3 PUSH1 0xE0 SHL DUP2 MSTORE PUSH1 0x4 SWAP1 REVERT JUMPDEST DUP2 MLOAD PUSH4 0x1D77D477 PUSH1 0xE2 SHL DUP2 MSTORE PUSH1 0x4 SWAP1 REVERT JUMPDEST DUP4 SWAP2 POP CALLVALUE PUSH2 0x7CB JUMPI PUSH2 0x7AA SWAP1 PUSH2 0x7C7 SWAP4 PUSH2 0x1707 CALLDATASIZE PUSH1 0x4 PUSH2 0x33C8 JUMP JUMPDEST SWAP3 PUSH2 0x1717 DUP10 SWAP4 SWAP3 SWAP4 MLOAD SWAP8 DUP9 PUSH2 0x3349 JUMP JUMPDEST PUSH1 0x1 DUP1 PUSH1 0xA0 SHL SUB DUP1 SWAP6 AND DUP8 MSTORE PUSH1 0x20 DUP8 ADD MSTORE DUP8 DUP7 ADD MSTORE PUSH1 0x60 DUP6 ADD MSTORE CALLER PUSH1 0x80 DUP6 ADD MSTORE AND PUSH1 0xA0 DUP4 ADD MSTORE PUSH1 0xC0 DUP3 ADD MSTORE CALLER SWAP1 PUSH2 0x524C JUMP JUMPDEST DUP3 DUP5 CALLVALUE PUSH2 0x749 JUMPI DUP2 PUSH1 0x3 NOT CALLDATASIZE ADD SLT PUSH2 0x749 JUMPI PUSH1 0x20 SWAP1 PUSH2 0x8CC PUSH2 0x1411 PUSH2 0xCF0 PUSH2 0x3DB1 JUMP JUMPDEST DUP3 DUP5 CALLVALUE PUSH2 0x749 JUMPI DUP2 PUSH1 0x3 NOT CALLDATASIZE ADD SLT PUSH2 0x749 JUMPI PUSH1 0x20 SWAP1 PUSH2 0x18A SLOAD SWAP1 MLOAD SWAP1 DUP2 MSTORE RETURN JUMPDEST DUP3 DUP5 CALLVALUE PUSH2 0x749 JUMPI DUP2 PUSH1 0x3 NOT CALLDATASIZE ADD SLT PUSH2 0x749 JUMPI PUSH1 0x20 SWAP1 PUSH2 0x8CC PUSH2 0x17AE PUSH1 0x1 PUSH2 0x3DEA JUMP JUMPDEST PUSH2 0xE6F PUSH2 0x17BB DUP3 DUP5 PUSH2 0x3A4F JUMP JUMPDEST SWAP2 DUP4 PUSH2 0x3AFF JUMP JUMPDEST DUP3 DUP5 CALLVALUE PUSH2 0x749 JUMPI DUP2 PUSH1 0x3 NOT CALLDATASIZE ADD SLT PUSH2 0x749 JUMPI PUSH2 0x1F3 SLOAD SWAP1 MLOAD PUSH1 0x1 PUSH1 0x1 PUSH1 0xA0 SHL SUB SWAP1 SWAP2 AND DUP2 MSTORE PUSH1 0x20 SWAP1 RETURN JUMPDEST DUP3 DUP5 CALLVALUE PUSH2 0x749 JUMPI PUSH1 0x20 CALLDATASIZE PUSH1 0x3 NOT ADD SLT PUSH2 0x749 JUMPI PUSH1 0x4 CALLDATALOAD SWAP2 PUSH2 0x17A SWAP1 DUP2 SLOAD DUP5 LT ISZERO PUSH2 0x6DA JUMPI POP PUSH1 0x20 SWAP3 PUSH2 0x181D SWAP2 PUSH2 0x3261 JUMP JUMPDEST SWAP2 SWAP1 SLOAD SWAP1 MLOAD SWAP2 PUSH1 0x3 SHL SHR DUP2 MSTORE RETURN JUMPDEST DUP3 CALLVALUE PUSH2 0x6DA JUMPI PUSH1 0x20 CALLDATASIZE PUSH1 0x3 NOT ADD SLT PUSH2 0x6DA JUMPI PUSH2 0x1845 PUSH2 0x5DD1 JUMP JUMPDEST PUSH1 0x4 CALLDATALOAD PUSH2 0x17B SSTORE DUP1 RETURN JUMPDEST DUP4 DUP4 CALLVALUE PUSH2 0x6DA JUMPI POP PUSH2 0x7AA PUSH2 0x7C7 SWAP3 PUSH2 0x1869 CALLDATASIZE PUSH1 0x4 PUSH2 0x33FA JUMP JUMPDEST SWAP3 DUP9 SWAP7 SWAP6 SWAP7 SWAP3 SWAP2 SWAP3 MLOAD SWAP7 PUSH2 0x187F PUSH2 0x100 DUP10 PUSH2 0x3349 JUMP JUMPDEST PUSH1 0x1 DUP1 PUSH1 0xA0 SHL SUB SWAP6 DUP7 DUP1 SWAP3 AND DUP10 MSTORE AND PUSH1 0x20 DUP9 ADD MSTORE DUP9 DUP8 ADD MSTORE PUSH1 0x60 DUP7 ADD MSTORE PUSH1 0x80 DUP6 ADD MSTORE CALLER PUSH1 0xA0 DUP6 ADD MSTORE CALLER PUSH1 0xC0 DUP6 ADD MSTORE AND SWAP1 DUP3 ADD MSTORE CALLER SWAP1 PUSH2 0x4EC4 JUMP JUMPDEST DUP3 CALLVALUE PUSH2 0x6DA JUMPI PUSH1 0x20 CALLDATASIZE PUSH1 0x3 NOT ADD SLT PUSH2 0x6DA JUMPI PUSH2 0x18D3 PUSH2 0x5DD1 JUMP JUMPDEST PUSH1 0x4 CALLDATALOAD PUSH2 0x172 SSTORE DUP1 RETURN JUMPDEST DUP3 DUP5 CALLVALUE PUSH2 0x749 JUMPI DUP2 PUSH1 0x3 NOT CALLDATASIZE ADD SLT PUSH2 0x749 JUMPI PUSH1 0x20 SWAP1 PUSH2 0x1C0 SLOAD SWAP1 MLOAD SWAP1 DUP2 MSTORE RETURN JUMPDEST DUP3 CALLVALUE PUSH2 0x6DA JUMPI PUSH1 0x20 CALLDATASIZE PUSH1 0x3 NOT ADD SLT PUSH2 0x6DA JUMPI PUSH2 0x1917 PUSH2 0x5DD1 JUMP JUMPDEST PUSH1 0x4 CALLDATALOAD PUSH2 0x173 SSTORE DUP1 RETURN JUMPDEST DUP3 DUP5 CALLVALUE PUSH2 0x749 JUMPI DUP2 PUSH1 0x3 NOT CALLDATASIZE ADD SLT PUSH2 0x749 JUMPI PUSH1 0x20 SWAP1 PUSH2 0x166 SLOAD SWAP1 MLOAD SWAP1 DUP2 MSTORE RETURN JUMPDEST DUP3 DUP5 CALLVALUE PUSH2 0x749 JUMPI DUP2 PUSH1 0x3 NOT CALLDATASIZE ADD SLT PUSH2 0x749 JUMPI PUSH1 0x20 SWAP1 PUSH2 0x174 SLOAD SWAP1 MLOAD SWAP1 DUP2 MSTORE RETURN JUMPDEST DUP3 CALLVALUE PUSH2 0x6DA JUMPI PUSH1 0x20 CALLDATASIZE PUSH1 0x3 NOT ADD SLT PUSH2 0x6DA JUMPI PUSH2 0x197B PUSH2 0x5DD1 JUMP JUMPDEST PUSH1 0x4 CALLDATALOAD PUSH2 0x16D SSTORE DUP1 RETURN JUMPDEST DUP3 DUP5 CALLVALUE PUSH2 0x749 JUMPI DUP2 PUSH1 0x3 NOT CALLDATASIZE ADD SLT PUSH2 0x749 JUMPI PUSH1 0x20 SWAP1 PUSH2 0x186 SLOAD SWAP1 MLOAD SWAP1 DUP2 MSTORE RETURN JUMPDEST DUP3 DUP5 CALLVALUE PUSH2 0x749 JUMPI DUP2 PUSH1 0x3 NOT CALLDATASIZE ADD SLT PUSH2 0x749 JUMPI PUSH1 0x20 SWAP1 PUSH2 0x16B SLOAD SWAP1 MLOAD SWAP1 DUP2 MSTORE RETURN JUMPDEST DUP4 DUP4 CALLVALUE PUSH2 0x6DA JUMPI POP PUSH2 0x7AA PUSH2 0x7C7 SWAP3 PUSH2 0x19DF CALLDATASIZE PUSH1 0x4 PUSH2 0x33C8 JUMP JUMPDEST SWAP3 PUSH2 0x19EF DUP9 SWAP4 SWAP3 SWAP4 MLOAD SWAP7 DUP8 PUSH2 0x3349 JUMP JUMPDEST PUSH1 0x1 PUSH1 0x1 PUSH1 0xA0 SHL SUB SWAP5 DUP6 AND DUP7 MSTORE PUSH1 0x20 DUP7 ADD MSTORE DUP7 DUP6 ADD MSTORE PUSH1 0x60 DUP5 ADD MSTORE CALLER PUSH1 0x80 DUP5 ADD DUP2 SWAP1 MSTORE PUSH1 0xA0 DUP5 ADD DUP2 SWAP1 MSTORE SWAP2 AND PUSH1 0xC0 DUP4 ADD MSTORE SWAP1 PUSH2 0x50C7 JUMP JUMPDEST DUP3 CALLVALUE PUSH2 0x6DA JUMPI PUSH1 0x20 CALLDATASIZE PUSH1 0x3 NOT ADD SLT PUSH2 0x6DA JUMPI PUSH2 0x1A40 PUSH2 0x5DD1 JUMP JUMPDEST PUSH1 0x4 CALLDATALOAD PUSH2 0x184 SSTORE DUP1 RETURN JUMPDEST DUP3 CALLVALUE PUSH2 0x6DA JUMPI PUSH1 0x20 CALLDATASIZE PUSH1 0x3 NOT ADD SLT PUSH2 0x6DA JUMPI PUSH1 0x4 CALLDATALOAD PUSH1 0x1 PUSH1 0x1 PUSH1 0xA0 SHL SUB DUP2 AND SWAP1 DUP2 SWAP1 SUB PUSH2 0x6D6 JUMPI PUSH2 0x1A79 PUSH2 0x5DD1 JUMP JUMPDEST PUSH2 0x188 DUP1 SLOAD PUSH1 0x1 PUSH1 0x1 PUSH1 0xA0 SHL SUB NOT AND SWAP1 SWAP2 OR SWAP1 SSTORE DUP1 RETURN JUMPDEST DUP3 CALLVALUE PUSH2 0x6DA JUMPI PUSH1 0x20 CALLDATASIZE PUSH1 0x3 NOT ADD SLT PUSH2 0x6DA JUMPI PUSH2 0x1AAA PUSH2 0x5DD1 JUMP JUMPDEST PUSH1 0x4 CALLDATALOAD PUSH2 0x170 SSTORE DUP1 RETURN JUMPDEST DUP3 DUP5 CALLVALUE PUSH2 0x749 JUMPI DUP2 PUSH1 0x3 NOT CALLDATASIZE ADD SLT PUSH2 0x749 JUMPI PUSH1 0x20 SWAP1 PUSH2 0x184 SLOAD SWAP1 MLOAD SWAP1 DUP2 MSTORE RETURN JUMPDEST DUP3 DUP5 CALLVALUE PUSH2 0x749 JUMPI DUP2 PUSH1 0x3 NOT CALLDATASIZE ADD SLT PUSH2 0x749 JUMPI PUSH1 0x20 SWAP1 PUSH2 0x17B SLOAD SWAP1 MLOAD SWAP1 DUP2 MSTORE RETURN JUMPDEST DUP4 DUP4 CALLVALUE PUSH2 0x6DA JUMPI DUP3 PUSH1 0x3 NOT CALLDATASIZE ADD SLT PUSH2 0x6DA JUMPI POP PUSH1 0x1 PUSH1 0x1 PUSH1 0xA0 SHL SUB PUSH1 0x4 CALLDATALOAD DUP2 DUP2 AND SWAP1 DUP2 SWAP1 SUB PUSH2 0x6D6 JUMPI PUSH1 0x24 CALLDATALOAD SWAP2 DUP1 DUP4 AND DUP1 SWAP4 SUB PUSH2 0x6D6 JUMPI PUSH1 0xA4 CALLDATALOAD SWAP5 DUP2 DUP7 AND DUP1 SWAP7 SUB PUSH2 0x6D6 JUMPI PUSH1 0xC4 CALLDATALOAD SWAP2 DUP3 AND DUP1 SWAP3 SUB PUSH2 0x6D6 JUMPI PUSH2 0x7C7 SWAP6 PUSH2 0x7AA SWAP5 DUP7 MLOAD SWAP5 PUSH2 0x1B5D PUSH2 0x100 DUP8 PUSH2 0x3349 JUMP JUMPDEST DUP6 MSTORE PUSH1 0x20 DUP6 ADD MSTORE PUSH1 0x44 CALLDATALOAD DUP7 DUP6 ADD MSTORE PUSH1 0x64 CALLDATALOAD PUSH1 0x60 DUP6 ADD MSTORE PUSH1 0x84 CALLDATALOAD PUSH1 0x80 DUP6 ADD MSTORE CALLER PUSH1 0xA0 DUP6 ADD MSTORE PUSH1 0xC0 DUP5 ADD MSTORE DUP3 ADD MSTORE CALLER SWAP1 PUSH2 0x4EC4 JUMP JUMPDEST DUP3 CALLVALUE PUSH2 0x6DA JUMPI DUP1 PUSH1 0x3 NOT CALLDATASIZE ADD SLT PUSH2 0x6DA JUMPI PUSH2 0x1BA9 PUSH2 0x5DD1 JUMP JUMPDEST PUSH1 0x1 PUSH1 0xFF NOT PUSH1 0xCA SLOAD AND OR PUSH1 0xCA SSTORE DUP1 RETURN JUMPDEST DUP3 DUP5 CALLVALUE PUSH2 0x749 JUMPI DUP2 PUSH1 0x3 NOT CALLDATASIZE ADD SLT PUSH2 0x749 JUMPI PUSH1 0x20 SWAP1 PUSH2 0x150E PUSH2 0x5C7C JUMP JUMPDEST DUP3 CALLVALUE PUSH2 0x6DA JUMPI PUSH1 0x20 CALLDATASIZE PUSH1 0x3 NOT ADD SLT PUSH2 0x6DA JUMPI PUSH2 0x1BF0 PUSH2 0x5DD1 JUMP JUMPDEST PUSH1 0x4 CALLDATALOAD PUSH2 0x189 SSTORE DUP1 RETURN JUMPDEST DUP3 DUP5 CALLVALUE PUSH2 0x749 JUMPI DUP2 PUSH1 0x3 NOT CALLDATASIZE ADD SLT PUSH2 0x749 JUMPI PUSH2 0x161 SLOAD SWAP1 MLOAD PUSH1 0x1 PUSH1 0x1 PUSH1 0xA0 SHL SUB SWAP1 SWAP2 AND DUP2 MSTORE PUSH1 0x20 SWAP1 RETURN JUMPDEST DUP3 DUP5 CALLVALUE PUSH2 0x749 JUMPI DUP2 PUSH1 0x3 NOT CALLDATASIZE ADD SLT PUSH2 0x749 JUMPI PUSH2 0x165 SLOAD SWAP1 MLOAD PUSH1 0x1 PUSH1 0x1 PUSH1 0xA0 SHL SUB SWAP1 SWAP2 AND DUP2 MSTORE PUSH1 0x20 SWAP1 RETURN JUMPDEST DUP4 DUP4 CALLVALUE PUSH2 0x6DA JUMPI POP PUSH2 0x7AA PUSH2 0x7C7 SWAP3 PUSH2 0x1C68 CALLDATASIZE PUSH1 0x4 PUSH2 0x329E JUMP JUMPDEST SWAP4 SWAP5 SWAP3 PUSH2 0x1C7A DUP10 SWAP4 SWAP3 SWAP4 MLOAD SWAP8 DUP9 PUSH2 0x3349 JUMP JUMPDEST PUSH1 0x1 DUP1 PUSH1 0xA0 SHL SUB SWAP6 DUP7 DUP1 SWAP6 AND DUP9 MSTORE PUSH1 0x20 DUP9 ADD MSTORE DUP9 DUP8 ADD MSTORE PUSH1 0x60 DUP7 ADD MSTORE CALLER PUSH1 0x80 DUP7 ADD MSTORE AND PUSH1 0xA0 DUP5 ADD MSTORE AND PUSH1 0xC0 DUP3 ADD MSTORE CALLER SWAP1 PUSH2 0x5A3B JUMP JUMPDEST DUP3 DUP5 CALLVALUE PUSH2 0x749 JUMPI DUP2 PUSH1 0x3 NOT CALLDATASIZE ADD SLT PUSH2 0x749 JUMPI PUSH1 0x20 SWAP1 PUSH1 0xFF PUSH1 0xCA SLOAD PUSH1 0x8 SHR AND SWAP1 MLOAD SWAP1 ISZERO ISZERO DUP2 MSTORE RETURN JUMPDEST DUP3 DUP5 CALLVALUE PUSH2 0x749 JUMPI DUP2 PUSH1 0x3 NOT CALLDATASIZE ADD SLT PUSH2 0x749 JUMPI PUSH2 0x1CF0 PUSH2 0x5E5E JUMP JUMPDEST PUSH2 0x17F DUP1 SLOAD NUMBER LT PUSH2 0x1ECD JUMPI PUSH2 0x17E SLOAD NUMBER ADD SWAP1 SSTORE PUSH32 0xD3C59BDA47E141A8EC5A33D241B7F71B86E30D359F83A9227D912858B60404FC DUP3 DUP1 LOG1 PUSH2 0x1D2F PUSH2 0x5321 JUMP JUMPDEST PUSH2 0x169 SLOAD DUP3 PUSH2 0x1D3D DUP3 PUSH2 0x3BA4 JUMP JUMPDEST SWAP2 DUP5 JUMPDEST DUP2 DUP2 LT PUSH2 0x1DFF JUMPI POP POP DUP1 PUSH2 0x1DBA JUMPI JUMPDEST SWAP2 DUP1 MLOAD SWAP3 DUP2 DUP5 ADD SWAP1 DUP5 MSTORE PUSH1 0x20 SWAP2 DUP3 DUP6 ADD MSTORE DUP3 MLOAD DUP1 SWAP2 MSTORE DUP2 PUSH1 0x60 DUP6 ADD SWAP4 ADD SWAP2 DUP6 JUMPDEST DUP3 DUP2 LT PUSH2 0x1DA6 JUMPI DUP7 PUSH32 0xAE5116A8119D08673A0F1DFA7546B95DA4BD54BB17FEDA7C61130AC7859152F6 DUP8 DUP8 SUB DUP9 LOG1 PUSH1 0x1 PUSH2 0x12F SSTORE DUP1 RETURN JUMPDEST DUP4 MLOAD DUP6 MSTORE SWAP4 DUP2 ADD SWAP4 SWAP3 DUP2 ADD SWAP3 PUSH1 0x1 ADD PUSH2 0x1D6F JUMP JUMPDEST PUSH2 0x1DD1 PUSH8 0xDE0B6B3A7640000 SWAP2 PUSH2 0x16B SLOAD SWAP1 PUSH2 0x3ACE JUMP JUMPDEST DIV PUSH2 0x163 PUSH2 0x1DE0 DUP3 DUP3 SLOAD PUSH2 0x390F JUMP JUMPDEST SWAP1 SSTORE PUSH2 0x178 SLOAD PUSH2 0x1DFA SWAP1 DUP3 SWAP1 PUSH1 0x1 PUSH1 0x1 PUSH1 0xA0 SHL SUB AND PUSH2 0x5378 JUMP JUMPDEST PUSH2 0x1D4F JUMP JUMPDEST PUSH2 0x1E08 DUP2 PUSH2 0x3CDE JUMP JUMPDEST PUSH2 0x1E12 DUP2 DUP4 PUSH2 0x4A8A JUMP JUMPDEST DUP7 PUSH2 0x180 SWAP2 DUP7 PUSH2 0x1E22 DUP6 DUP6 PUSH2 0x3261 JUMP JUMPDEST SWAP1 SLOAD SWAP1 PUSH1 0x3 SHL SHR SWAP2 DUP4 DUP4 SGT PUSH2 0x1E3F JUMPI JUMPDEST POP POP POP POP POP PUSH1 0x1 ADD PUSH2 0x1D40 JUMP JUMPDEST SWAP5 PUSH2 0x1E84 DUP4 DUP3 SWAP7 SWAP10 PUSH2 0x1E8A SWAP5 PUSH2 0x1E7E DUP6 PUSH2 0x1E71 PUSH2 0x1E77 PUSH2 0x1EA0 SWAP11 PUSH1 0x1 SWAP15 PUSH8 0xDE0B6B3A7640000 SWAP4 DUP5 SWAP2 PUSH2 0x16C SLOAD PUSH2 0x3ACE JUMP JUMPDEST DIV PUSH2 0x3ACE JUMP JUMPDEST DIV SWAP3 PUSH2 0x39B6 JUMP JUMPDEST MSTORE PUSH2 0x39A9 JUMP JUMPDEST SWAP8 PUSH2 0x3261 JUMP JUMPDEST DUP2 SWAP4 SWAP2 SLOAD SWAP1 PUSH1 0x3 SHL SWAP2 DUP3 SHL SWAP2 PUSH0 NOT SWAP1 SHL NOT AND OR SWAP1 JUMP JUMPDEST SWAP1 SSTORE PUSH2 0x1EC3 PUSH2 0x1EAF DUP3 DUP8 PUSH2 0x39B6 JUMP JUMPDEST MLOAD DUP9 DUP5 DUP1 PUSH1 0xA0 SHL SUB PUSH2 0x179 SLOAD AND SWAP2 DUP5 PUSH2 0x49C1 JUMP JUMPDEST SWAP1 DUP7 DUP9 DUP7 DUP2 PUSH2 0x1E32 JUMP JUMPDEST DUP2 MLOAD PUSH4 0x101B6859 PUSH1 0xE0 SHL DUP2 MSTORE PUSH1 0x4 SWAP1 REVERT JUMPDEST DUP3 DUP5 CALLVALUE PUSH2 0x749 JUMPI DUP2 PUSH1 0x3 NOT CALLDATASIZE ADD SLT PUSH2 0x749 JUMPI PUSH1 0x20 SWAP1 PUSH2 0x187 SLOAD SWAP1 MLOAD SWAP1 DUP2 MSTORE RETURN JUMPDEST DUP3 CALLVALUE PUSH2 0x6DA JUMPI PUSH1 0x20 CALLDATASIZE PUSH1 0x3 NOT ADD SLT PUSH2 0x6DA JUMPI PUSH2 0x1F18 PUSH2 0x5DD1 JUMP JUMPDEST PUSH1 0x4 CALLDATALOAD PUSH2 0x175 SSTORE DUP1 RETURN JUMPDEST DUP3 CALLVALUE PUSH2 0x6DA JUMPI PUSH1 0x20 CALLDATASIZE PUSH1 0x3 NOT ADD SLT PUSH2 0x6DA JUMPI PUSH1 0x4 CALLDATALOAD PUSH1 0x1 PUSH1 0x1 PUSH1 0xA0 SHL SUB DUP2 AND DUP2 SUB PUSH2 0x6D6 JUMPI PUSH2 0xE8E SWAP1 PUSH2 0x1F53 PUSH2 0x5DD1 JUMP JUMPDEST PUSH2 0x1F3 DUP1 SLOAD PUSH1 0x1 PUSH1 0x1 PUSH1 0xA0 SHL SUB NOT AND PUSH1 0x1 PUSH1 0x1 PUSH1 0xA0 SHL SUB SWAP1 SWAP3 AND SWAP2 SWAP1 SWAP2 OR SWAP1 SSTORE JUMP JUMPDEST POP POP CALLVALUE PUSH2 0x6DA JUMPI PUSH2 0x6C9 SWAP1 PUSH2 0x1F8B CALLDATASIZE PUSH1 0x4 PUSH2 0x339B JUMP JUMPDEST SWAP1 DUP7 SWAP5 SWAP4 SWAP3 SWAP5 MLOAD SWAP5 PUSH2 0x1F9E PUSH1 0xC0 DUP8 PUSH2 0x3349 JUMP JUMPDEST PUSH1 0x1 DUP1 PUSH1 0xA0 SHL SUB DUP1 SWAP5 AND DUP7 MSTORE PUSH1 0x20 DUP7 ADD MSTORE DUP7 DUP6 ADD MSTORE CALLER PUSH1 0x60 DUP6 ADD MSTORE AND PUSH1 0x80 DUP4 ADD MSTORE PUSH1 0xA0 DUP3 ADD MSTORE CALLER SWAP1 PUSH2 0x57AD JUMP JUMPDEST POP POP CALLVALUE PUSH2 0x6DA JUMPI DUP1 PUSH1 0x3 NOT CALLDATASIZE ADD SLT PUSH2 0x6DA JUMPI POP PUSH32 0x0 PUSH1 0x1 PUSH1 0x1 PUSH1 0xA0 SHL SUB AND ADDRESS SUB PUSH2 0x2037 JUMPI PUSH1 0x20 SWAP1 MLOAD PUSH32 0x360894A13BA1A3210667C828492DB98DCA3E2076CC3735A920A3CA505D382BBC DUP2 MSTORE RETURN JUMPDEST MLOAD PUSH3 0x461BCD PUSH1 0xE5 SHL DUP2 MSTORE PUSH1 0x20 PUSH1 0x4 DUP3 ADD MSTORE PUSH1 0x38 PUSH1 0x24 DUP3 ADD MSTORE PUSH32 0x555550535570677261646561626C653A206D757374206E6F742062652063616C PUSH1 0x44 DUP3 ADD MSTORE PUSH32 0x6C6564207468726F7567682064656C656761746563616C6C0000000000000000 PUSH1 0x64 DUP3 ADD MSTORE PUSH1 0x84 SWAP1 REVERT JUMPDEST DUP3 CALLVALUE PUSH2 0x6DA JUMPI DUP1 PUSH1 0x3 NOT CALLDATASIZE ADD SLT PUSH2 0x6DA JUMPI PUSH2 0x20B9 PUSH2 0x5DD1 JUMP JUMPDEST PUSH1 0xFF NOT PUSH1 0xCA SLOAD AND PUSH1 0xCA SSTORE DUP1 RETURN JUMPDEST DUP3 DUP5 DUP1 PUSH1 0x3 NOT CALLDATASIZE ADD SLT PUSH2 0x749 JUMPI PUSH1 0x4 CALLDATALOAD SWAP1 PUSH1 0x1 PUSH1 0x1 PUSH1 0xA0 SHL SUB SWAP1 DUP2 DUP4 AND DUP4 SUB PUSH2 0x6D6 JUMPI DUP4 SWAP3 PUSH1 0x24 CALLDATALOAD SWAP3 PUSH8 0xFFFFFFFFFFFFFFFF DUP5 GT PUSH2 0x21B6 JUMPI CALLDATASIZE PUSH1 0x23 DUP6 ADD SLT ISZERO PUSH2 0x21B6 JUMPI DUP4 PUSH1 0x4 ADD CALLDATALOAD SWAP1 PUSH2 0x2124 PUSH2 0x211B DUP4 PUSH2 0x337F JUMP JUMPDEST SWAP5 MLOAD SWAP5 DUP6 PUSH2 0x3349 JUMP JUMPDEST DUP2 DUP5 MSTORE CALLDATASIZE PUSH1 0x24 DUP4 DUP8 ADD ADD GT PUSH2 0x21B2 JUMPI PUSH2 0xE8E SWAP6 PUSH1 0x20 DUP4 PUSH2 0x21A5 SWAP5 PUSH1 0x24 PUSH1 0x1 SWAP10 ADD DUP4 DUP10 ADD CALLDATACOPY DUP7 ADD ADD MSTORE DUP1 PUSH32 0x0 AND SWAP1 PUSH2 0x217C DUP3 ADDRESS EQ ISZERO PUSH2 0x346C JUMP JUMPDEST PUSH32 0x360894A13BA1A3210667C828492DB98DCA3E2076CC3735A920A3CA505D382BBC SLOAD AND EQ PUSH2 0x34CD JUMP JUMPDEST PUSH2 0x21AD PUSH2 0x5DD1 JUMP JUMPDEST PUSH2 0x352E JUMP JUMPDEST DUP6 DUP1 REVERT JUMPDEST DUP5 DUP1 REVERT JUMPDEST DUP3 DUP5 CALLVALUE PUSH2 0x749 JUMPI DUP2 PUSH1 0x3 NOT CALLDATASIZE ADD SLT PUSH2 0x749 JUMPI PUSH1 0x20 SWAP1 PUSH2 0x16D SLOAD SWAP1 MLOAD SWAP1 DUP2 MSTORE RETURN JUMPDEST DUP3 DUP5 CALLVALUE PUSH2 0x749 JUMPI DUP2 PUSH1 0x3 NOT CALLDATASIZE ADD SLT PUSH2 0x749 JUMPI PUSH2 0x179 SLOAD SWAP1 MLOAD PUSH1 0x1 PUSH1 0x1 PUSH1 0xA0 SHL SUB SWAP1 SWAP2 AND DUP2 MSTORE PUSH1 0x20 SWAP1 RETURN JUMPDEST DUP3 DUP5 CALLVALUE PUSH2 0x749 JUMPI DUP2 PUSH1 0x3 NOT CALLDATASIZE ADD SLT PUSH2 0x749 JUMPI PUSH1 0x20 SWAP1 PUSH2 0x17E SLOAD SWAP1 MLOAD SWAP1 DUP2 MSTORE RETURN JUMPDEST DUP3 DUP5 CALLVALUE PUSH2 0x749 JUMPI PUSH1 0x20 CALLDATASIZE PUSH1 0x3 NOT ADD SLT PUSH2 0x749 JUMPI PUSH1 0x4 CALLDATALOAD PUSH2 0x169 DUP1 SLOAD DUP3 LT ISZERO PUSH2 0xB22 JUMPI SWAP1 PUSH2 0x2250 SWAP2 PUSH2 0x3330 JUMP JUMPDEST POP DUP1 SLOAD PUSH1 0x1 SWAP1 SWAP2 ADD SLOAD DUP3 MLOAD SWAP2 DUP3 MSTORE PUSH1 0x1 PUSH1 0x1 PUSH1 0xA0 SHL SUB AND PUSH1 0x20 DUP3 ADD MSTORE RETURN JUMPDEST POP POP CALLVALUE PUSH2 0x6DA JUMPI PUSH1 0x60 CALLDATASIZE PUSH1 0x3 NOT ADD SLT PUSH2 0x6D6 JUMPI PUSH1 0x4 CALLDATALOAD PUSH1 0x1 PUSH1 0x1 PUSH1 0xA0 SHL SUB DUP2 AND SWAP1 DUP2 SWAP1 SUB PUSH2 0x6D6 JUMPI PUSH2 0x6C9 SWAP2 DUP4 MLOAD SWAP2 PUSH2 0x22A8 PUSH1 0xC0 DUP5 PUSH2 0x3349 JUMP JUMPDEST DUP3 MSTORE PUSH1 0x24 CALLDATALOAD PUSH1 0x20 DUP4 ADD MSTORE PUSH1 0x44 CALLDATALOAD DUP5 DUP4 ADD MSTORE CALLER PUSH1 0x60 DUP4 ADD MSTORE CALLER PUSH1 0x80 DUP4 ADD MSTORE PUSH1 0xA0 DUP3 ADD MSTORE PUSH2 0x4754 JUMP JUMPDEST POP POP CALLVALUE PUSH2 0x6DA JUMPI POP PUSH1 0x60 CALLDATASIZE PUSH1 0x3 NOT ADD SLT PUSH2 0x6D6 JUMPI PUSH1 0x44 CALLDATALOAD PUSH1 0x1 PUSH1 0x1 PUSH1 0xA0 SHL SUB DUP2 AND SWAP1 DUP2 SWAP1 SUB PUSH2 0x6D6 JUMPI DUP2 MLOAD PUSH2 0x6C9 SWAP2 PUSH2 0x1447 PUSH1 0xA0 DUP4 PUSH2 0x3349 JUMP JUMPDEST POP POP CALLVALUE PUSH2 0x6DA JUMPI PUSH1 0x60 CALLDATASIZE PUSH1 0x3 NOT ADD SLT PUSH2 0x6D6 JUMPI PUSH1 0x4 CALLDATALOAD PUSH1 0x1 PUSH1 0x1 PUSH1 0xA0 SHL SUB DUP2 AND SWAP1 DUP2 SWAP1 SUB PUSH2 0x6D6 JUMPI PUSH2 0x6C9 SWAP2 DUP4 MLOAD SWAP2 PUSH2 0x2343 PUSH1 0xC0 DUP5 PUSH2 0x3349 JUMP JUMPDEST DUP3 MSTORE PUSH1 0x24 CALLDATALOAD PUSH1 0x20 DUP4 ADD MSTORE PUSH1 0x44 CALLDATALOAD DUP5 DUP4 ADD MSTORE CALLER PUSH1 0x60 DUP4 ADD MSTORE CALLER PUSH1 0x80 DUP4 ADD MSTORE PUSH1 0xA0 DUP3 ADD MSTORE CALLER SWAP1 PUSH2 0x57AD JUMP JUMPDEST DUP3 DUP5 CALLVALUE PUSH2 0x749 JUMPI PUSH1 0x60 CALLDATASIZE PUSH1 0x3 NOT ADD SLT PUSH2 0x6D6 JUMPI PUSH1 0x4 CALLDATALOAD PUSH1 0x1 PUSH1 0x1 PUSH1 0xA0 SHL SUB DUP2 AND SWAP3 SWAP1 DUP4 SWAP1 SUB PUSH2 0x6D6 JUMPI PUSH2 0x7C7 SWAP3 PUSH2 0x7AA SWAP2 DUP4 MLOAD SWAP2 PUSH2 0x23AB PUSH1 0xC0 DUP5 PUSH2 0x3349 JUMP JUMPDEST DUP3 MSTORE PUSH1 0x24 CALLDATALOAD PUSH1 0x20 DUP4 ADD MSTORE PUSH1 0x44 CALLDATALOAD DUP5 DUP4 ADD MSTORE CALLER PUSH1 0x60 DUP4 ADD MSTORE CALLER PUSH1 0x80 DUP4 ADD MSTORE PUSH1 0xA0 DUP3 ADD MSTORE PUSH2 0x4D0F JUMP JUMPDEST POP POP CALLVALUE PUSH2 0x6DA JUMPI PUSH1 0x60 CALLDATASIZE PUSH1 0x3 NOT ADD SLT PUSH2 0x6D6 JUMPI PUSH1 0x44 CALLDATALOAD PUSH1 0x1 PUSH1 0x1 PUSH1 0xA0 SHL SUB DUP2 AND SWAP1 DUP2 SWAP1 SUB PUSH2 0x6D6 JUMPI PUSH2 0x6C9 SWAP2 DUP4 MLOAD SWAP2 PUSH2 0x240C PUSH1 0xA0 DUP5 PUSH2 0x3349 JUMP JUMPDEST PUSH1 0x4 CALLDATALOAD DUP4 MSTORE PUSH1 0x24 CALLDATALOAD PUSH1 0x20 DUP5 ADD MSTORE CALLER DUP6 DUP5 ADD MSTORE PUSH1 0x60 DUP4 ADD MSTORE PUSH1 0x80 DUP3 ADD MSTORE PUSH2 0x400D JUMP JUMPDEST DUP3 DUP5 CALLVALUE PUSH2 0x749 JUMPI DUP2 PUSH1 0x3 NOT CALLDATASIZE ADD SLT PUSH2 0x749 JUMPI PUSH1 0x20 SWAP1 PUSH2 0x170 SLOAD SWAP1 MLOAD SWAP1 DUP2 MSTORE RETURN JUMPDEST DUP3 DUP5 CALLVALUE PUSH2 0x749 JUMPI DUP2 PUSH1 0x3 NOT CALLDATASIZE ADD SLT PUSH2 0x749 JUMPI PUSH1 0x20 SWAP1 PUSH2 0x8CC PUSH2 0x247E PUSH2 0x248E PUSH2 0x2488 PUSH2 0x2476 PUSH2 0x5C7C JUMP JUMPDEST SWAP4 SWAP1 SWAP4 PUSH2 0x39CA JUMP JUMPDEST DUP2 DUP2 SWAP4 SWAP3 SWAP6 PUSH2 0x4BC6 JUMP JUMPDEST SWAP3 PUSH2 0x4484 JUMP JUMPDEST SWAP1 PUSH2 0x4B1C JUMP JUMPDEST DUP3 DUP5 CALLVALUE PUSH2 0x749 JUMPI DUP2 PUSH1 0x3 NOT CALLDATASIZE ADD SLT PUSH2 0x749 JUMPI PUSH1 0xCA SLOAD PUSH1 0xFF DUP2 PUSH1 0x8 SHR AND ISZERO PUSH2 0x24FE JUMPI PUSH1 0x10 DUP2 SWAP1 SHR PUSH1 0x1 PUSH1 0x1 PUSH1 0xA0 SHL SUB AND CALLER SUB PUSH2 0x16DB JUMPI PUSH2 0xFF00 NOT AND PUSH1 0xCA SSTORE MLOAD CALLER DUP2 MSTORE PUSH32 0x5DB9EE0A495BF2E6FF9C91A7834C1BA4FDD244A5E8AA4E537BD38AEAE4B073AA SWAP1 PUSH1 0x20 SWAP1 LOG1 DUP1 RETURN JUMPDEST DUP2 MLOAD PUSH4 0x7C7FD079 PUSH1 0xE0 SHL DUP2 MSTORE PUSH1 0x4 SWAP1 REVERT JUMPDEST POP POP CALLVALUE PUSH2 0x6DA JUMPI POP PUSH2 0x6C9 PUSH2 0x2525 CALLDATASIZE PUSH1 0x4 PUSH2 0x330A JUMP JUMPDEST SWAP1 SWAP2 DUP6 MLOAD SWAP4 PUSH2 0x2535 PUSH1 0xA0 DUP7 PUSH2 0x3349 JUMP JUMPDEST DUP5 MSTORE PUSH1 0x20 DUP5 ADD MSTORE CALLER DUP6 DUP5 ADD DUP2 SWAP1 MSTORE PUSH1 0x1 PUSH1 0x1 PUSH1 0xA0 SHL SUB SWAP3 DUP4 AND PUSH1 0x60 DUP6 ADD MSTORE SWAP2 AND PUSH1 0x80 DUP4 ADD MSTORE SWAP1 PUSH2 0x54F0 JUMP JUMPDEST DUP3 CALLVALUE PUSH2 0x6DA JUMPI PUSH1 0x20 CALLDATASIZE PUSH1 0x3 NOT ADD SLT PUSH2 0x6DA JUMPI PUSH2 0x257A PUSH2 0x5DD1 JUMP JUMPDEST PUSH1 0x4 CALLDATALOAD PUSH2 0x1C0 SSTORE DUP1 RETURN JUMPDEST DUP3 DUP5 CALLVALUE PUSH2 0x749 JUMPI PUSH1 0x20 CALLDATASIZE PUSH1 0x3 NOT ADD SLT PUSH2 0x749 JUMPI PUSH1 0x4 CALLDATALOAD SWAP2 PUSH2 0x16A SWAP1 DUP2 SLOAD DUP5 LT ISZERO PUSH2 0x6DA JUMPI POP PUSH1 0x20 SWAP3 PUSH2 0x181D SWAP2 PUSH2 0x3261 JUMP JUMPDEST DUP3 DUP5 CALLVALUE PUSH2 0x749 JUMPI PUSH1 0x20 CALLDATASIZE PUSH1 0x3 NOT ADD SLT PUSH2 0x749 JUMPI PUSH1 0x4 CALLDATALOAD SWAP1 PUSH1 0x1 PUSH1 0x1 PUSH1 0xA0 SHL SUB SWAP1 DUP2 DUP4 AND DUP4 SUB PUSH2 0x6D6 JUMPI PUSH2 0xE8E SWAP3 PUSH2 0x2617 DUP4 DUP7 SWAP5 PUSH32 0x0 AND SWAP1 PUSH2 0x217C DUP3 ADDRESS EQ ISZERO PUSH2 0x346C JUMP JUMPDEST PUSH2 0x261F PUSH2 0x5DD1 JUMP JUMPDEST PUSH2 0x2634 PUSH2 0x262B DUP5 PUSH2 0x337F JUMP JUMPDEST SWAP3 MLOAD SWAP3 DUP4 PUSH2 0x3349 JUMP JUMPDEST DUP3 DUP3 MSTORE PUSH1 0x1F NOT PUSH2 0x2643 DUP5 PUSH2 0x337F JUMP JUMPDEST ADD CALLDATASIZE PUSH1 0x20 DUP5 ADD CALLDATACOPY PUSH2 0x352E JUMP JUMPDEST DUP4 SWAP2 POP CALLVALUE PUSH2 0x7CB JUMPI PUSH2 0x7AA SWAP1 PUSH2 0x7C7 SWAP4 PUSH2 0x266A CALLDATASIZE PUSH1 0x4 PUSH2 0x32E1 JUMP JUMPDEST SWAP3 PUSH2 0x267A DUP9 SWAP4 SWAP3 SWAP4 MLOAD SWAP7 DUP8 PUSH2 0x3349 JUMP JUMPDEST PUSH1 0x1 DUP1 PUSH1 0xA0 SHL SUB AND DUP6 MSTORE PUSH1 0x20 DUP6 ADD MSTORE DUP6 DUP5 ADD MSTORE PUSH1 0x60 DUP4 ADD MSTORE CALLER PUSH1 0x80 DUP4 ADD MSTORE CALLER PUSH1 0xA0 DUP4 ADD MSTORE PUSH1 0xC0 DUP3 ADD MSTORE CALLER SWAP1 PUSH2 0x5A3B JUMP JUMPDEST DUP3 DUP5 CALLVALUE PUSH2 0x749 JUMPI DUP2 PUSH1 0x3 NOT CALLDATASIZE ADD SLT PUSH2 0x749 JUMPI PUSH2 0x26C4 PUSH2 0x5E5E JUMP JUMPDEST PUSH2 0x17D DUP1 SLOAD PUSH1 0xFF DUP2 AND DUP1 PUSH2 0x278F JUMPI JUMPDEST DUP1 PUSH2 0x2775 JUMPI JUMPDEST PUSH2 0x26E1 JUMPI DUP4 DUP1 RETURN JUMPDEST PUSH2 0xFF00 NOT AND PUSH2 0x100 OR SWAP1 SSTORE DUP1 MLOAD SWAP1 DUP3 SWAP1 PUSH32 0x8B77276C97A5709F0D6DB52329848A254EB760CE8BE80D281799F633BDB69E83 DUP3 DUP1 LOG1 PUSH2 0x165 SLOAD PUSH1 0x1 PUSH1 0x1 PUSH1 0xA0 SHL SUB AND DUP1 EXTCODESIZE ISZERO PUSH2 0x7CB JUMPI DUP4 PUSH1 0x4 DUP2 DUP6 DUP1 SWAP5 PUSH4 0x8456CB59 PUSH1 0xE0 SHL DUP4 MSTORE GAS CALL SWAP1 DUP2 ISZERO PUSH2 0x276A JUMPI POP PUSH2 0x275A JUMPI JUMPDEST POP POP PUSH2 0x2753 PUSH2 0x3BD6 JUMP JUMPDEST DUP2 DUP1 DUP1 DUP4 DUP1 RETURN JUMPDEST PUSH2 0x2763 SWAP2 PUSH2 0x3349 JUMP JUMPDEST DUP2 DUP2 PUSH2 0x2749 JUMP JUMPDEST MLOAD SWAP2 RETURNDATASIZE SWAP2 POP DUP3 RETURNDATACOPY RETURNDATASIZE SWAP1 REVERT JUMPDEST POP PUSH2 0x2784 PUSH2 0x1411 PUSH2 0xCF0 PUSH2 0x3DB1 JUMP JUMPDEST PUSH2 0x17C SLOAD LT ISZERO PUSH2 0x26D9 JUMP JUMPDEST POP PUSH1 0xFF DUP2 PUSH1 0x8 SHR AND ISZERO PUSH2 0x26D3 JUMP JUMPDEST DUP3 DUP5 CALLVALUE PUSH2 0x749 JUMPI DUP2 PUSH1 0x3 NOT CALLDATASIZE ADD SLT PUSH2 0x749 JUMPI PUSH1 0x20 SWAP1 PUSH2 0x171 SLOAD SWAP1 MLOAD SWAP1 DUP2 MSTORE RETURN JUMPDEST DUP3 DUP5 CALLVALUE PUSH2 0x749 JUMPI DUP2 PUSH1 0x3 NOT CALLDATASIZE ADD SLT PUSH2 0x749 JUMPI PUSH1 0x20 SWAP1 PUSH2 0x175 SLOAD SWAP1 MLOAD SWAP1 DUP2 MSTORE RETURN JUMPDEST DUP3 CALLVALUE PUSH2 0x6DA JUMPI PUSH1 0x20 CALLDATASIZE PUSH1 0x3 NOT ADD SLT PUSH2 0x6DA JUMPI PUSH1 0x4 CALLDATALOAD PUSH1 0x1 PUSH1 0x1 PUSH1 0xA0 SHL SUB DUP2 AND DUP2 SUB PUSH2 0x749 JUMPI PUSH2 0x280A PUSH2 0x5DD1 JUMP JUMPDEST PUSH1 0xCA DUP1 SLOAD PUSH3 0x10000 PUSH1 0x1 PUSH1 0xB0 SHL SUB NOT AND PUSH1 0x10 SWAP3 SWAP1 SWAP3 SHL PUSH3 0x10000 PUSH1 0x1 PUSH1 0xB0 SHL SUB AND SWAP2 SWAP1 SWAP2 OR SWAP1 SSTORE DUP1 RETURN JUMPDEST DUP3 CALLVALUE PUSH2 0x6DA JUMPI PUSH1 0x20 CALLDATASIZE PUSH1 0x3 NOT ADD SLT PUSH2 0x6DA JUMPI PUSH2 0x284E PUSH2 0x5DD1 JUMP JUMPDEST PUSH1 0x4 CALLDATALOAD PUSH2 0x17C SSTORE DUP1 RETURN JUMPDEST DUP4 DUP4 CALLVALUE PUSH2 0x6DA JUMPI POP PUSH2 0x7AA PUSH2 0x7C7 SWAP3 PUSH2 0x2872 CALLDATASIZE PUSH1 0x4 PUSH2 0x329E JUMP JUMPDEST SWAP4 SWAP5 SWAP3 PUSH2 0x2884 DUP10 SWAP4 SWAP3 SWAP4 MLOAD SWAP8 DUP9 PUSH2 0x3349 JUMP JUMPDEST PUSH1 0x1 DUP1 PUSH1 0xA0 SHL SUB SWAP6 DUP7 DUP1 SWAP6 AND DUP9 MSTORE PUSH1 0x20 DUP9 ADD MSTORE DUP9 DUP8 ADD MSTORE PUSH1 0x60 DUP7 ADD MSTORE CALLER PUSH1 0x80 DUP7 ADD MSTORE AND PUSH1 0xA0 DUP5 ADD MSTORE AND PUSH1 0xC0 DUP3 ADD MSTORE CALLER SWAP1 PUSH2 0x524C JUMP JUMPDEST DUP3 DUP5 CALLVALUE PUSH2 0x749 JUMPI DUP2 PUSH1 0x3 NOT CALLDATASIZE ADD SLT PUSH2 0x749 JUMPI PUSH1 0x20 SWAP1 PUSH2 0x172 SLOAD SWAP1 MLOAD SWAP1 DUP2 MSTORE RETURN JUMPDEST DUP3 CALLVALUE PUSH2 0x6DA JUMPI PUSH1 0x20 CALLDATASIZE PUSH1 0x3 NOT ADD SLT PUSH2 0x6DA JUMPI PUSH1 0x4 CALLDATALOAD PUSH1 0x1 PUSH1 0x1 PUSH1 0xA0 SHL SUB DUP2 AND SWAP1 DUP2 SWAP1 SUB PUSH2 0x749 JUMPI PUSH2 0x2908 PUSH2 0x5DD1 JUMP JUMPDEST PUSH2 0x179 DUP1 SLOAD PUSH1 0x1 PUSH1 0x1 PUSH1 0xA0 SHL SUB NOT AND SWAP1 SWAP2 OR SWAP1 SSTORE DUP1 RETURN JUMPDEST DUP3 DUP5 CALLVALUE PUSH2 0x749 JUMPI DUP2 PUSH1 0x3 NOT CALLDATASIZE ADD SLT PUSH2 0x749 JUMPI PUSH2 0x28B SLOAD SWAP1 MLOAD PUSH1 0x1 PUSH1 0x1 PUSH1 0xA0 SHL SUB SWAP1 SWAP2 AND DUP2 MSTORE PUSH1 0x20 SWAP1 RETURN JUMPDEST DUP3 DUP5 CALLVALUE PUSH2 0x749 JUMPI PUSH1 0x20 CALLDATASIZE PUSH1 0x3 NOT ADD SLT PUSH2 0x749 JUMPI PUSH1 0x4 CALLDATALOAD PUSH1 0x1 PUSH1 0x1 PUSH1 0xA0 SHL SUB DUP2 AND SWAP1 DUP2 SWAP1 SUB PUSH2 0x7CB JUMPI DUP3 DUP3 SWAP2 PUSH1 0x20 SWAP5 MSTORE PUSH2 0x176 DUP5 MSTORE KECCAK256 SLOAD SWAP1 MLOAD SWAP1 DUP2 MSTORE RETURN JUMPDEST DUP3 DUP5 CALLVALUE PUSH2 0x749 JUMPI DUP2 PUSH1 0x3 NOT CALLDATASIZE ADD SLT PUSH2 0x749 JUMPI PUSH1 0x20 SWAP1 PUSH1 0xFF PUSH2 0x17D SLOAD PUSH1 0x8 SHR AND SWAP1 MLOAD SWAP1 ISZERO ISZERO DUP2 MSTORE RETURN JUMPDEST DUP3 CALLVALUE PUSH2 0x6DA JUMPI PUSH1 0x20 CALLDATASIZE PUSH1 0x3 NOT ADD SLT PUSH2 0x6DA JUMPI PUSH2 0x29C8 PUSH2 0x5DD1 JUMP JUMPDEST PUSH1 0x4 CALLDATALOAD PUSH2 0x174 SSTORE DUP1 RETURN JUMPDEST DUP3 CALLVALUE PUSH2 0x6DA JUMPI PUSH1 0x20 CALLDATASIZE PUSH1 0x3 NOT ADD SLT PUSH2 0x6DA JUMPI PUSH1 0x4 CALLDATALOAD DUP1 ISZERO ISZERO DUP1 SWAP2 SUB PUSH2 0x749 JUMPI PUSH2 0x29F9 PUSH2 0x5DD1 JUMP JUMPDEST PUSH2 0x17D SWAP1 PUSH1 0xFF DUP1 NOT DUP4 SLOAD AND SWAP2 AND OR SWAP1 SSTORE DUP1 RETURN JUMPDEST DUP3 DUP5 CALLVALUE PUSH2 0x749 JUMPI DUP2 PUSH1 0x3 NOT CALLDATASIZE ADD SLT PUSH2 0x749 JUMPI PUSH1 0x20 SWAP1 PUSH2 0x8CC PUSH2 0x2A2F PUSH2 0xCF0 PUSH2 0x3DB1 JUMP JUMPDEST SWAP1 PUSH2 0x4484 JUMP JUMPDEST DUP3 DUP5 CALLVALUE PUSH2 0x749 JUMPI DUP2 PUSH1 0x3 NOT CALLDATASIZE ADD SLT PUSH2 0x749 JUMPI PUSH1 0x20 SWAP1 PUSH2 0x17F SLOAD SWAP1 MLOAD SWAP1 DUP2 MSTORE RETURN JUMPDEST DUP3 DUP5 CALLVALUE PUSH2 0x749 JUMPI PUSH1 0x20 CALLDATASIZE PUSH1 0x3 NOT ADD SLT PUSH2 0x749 JUMPI PUSH1 0x4 CALLDATALOAD SWAP2 PUSH1 0x1 PUSH1 0x1 PUSH1 0xA0 SHL SUB DUP4 AND DUP4 SUB PUSH2 0x6DA JUMPI POP PUSH2 0x8CC PUSH1 0x20 SWAP3 CALLER SWAP1 CALLER SWAP1 PUSH2 0x53E5 JUMP JUMPDEST DUP4 DUP4 CALLVALUE PUSH2 0x6DA JUMPI POP PUSH2 0x7AA PUSH2 0x7C7 SWAP3 PUSH2 0x2AA6 CALLDATASIZE PUSH1 0x4 PUSH2 0x329E JUMP JUMPDEST SWAP4 SWAP5 SWAP3 PUSH2 0x2AB8 DUP10 SWAP4 SWAP3 SWAP4 MLOAD SWAP8 DUP9 PUSH2 0x3349 JUMP JUMPDEST PUSH1 0x1 DUP1 PUSH1 0xA0 SHL SUB SWAP6 DUP7 DUP1 SWAP6 AND DUP9 MSTORE PUSH1 0x20 DUP9 ADD MSTORE DUP9 DUP8 ADD MSTORE PUSH1 0x60 DUP7 ADD MSTORE CALLER PUSH1 0x80 DUP7 ADD MSTORE AND PUSH1 0xA0 DUP5 ADD MSTORE AND PUSH1 0xC0 DUP3 ADD MSTORE CALLER SWAP1 PUSH2 0x50C7 JUMP JUMPDEST DUP3 CALLVALUE PUSH2 0x6DA JUMPI PUSH1 0x20 CALLDATASIZE PUSH1 0x3 NOT ADD SLT PUSH2 0x6DA JUMPI PUSH1 0x4 CALLDATALOAD PUSH1 0x1 PUSH1 0x1 PUSH1 0xA0 SHL SUB DUP2 AND SWAP1 DUP2 SWAP1 SUB PUSH2 0x749 JUMPI PUSH2 0x2B1C PUSH2 0x5DD1 JUMP JUMPDEST PUSH2 0x162 DUP1 SLOAD PUSH1 0x1 PUSH1 0x1 PUSH1 0xA0 SHL SUB NOT AND SWAP1 SWAP2 OR SWAP1 SSTORE DUP1 RETURN JUMPDEST DUP3 CALLVALUE PUSH2 0x6DA JUMPI PUSH1 0x20 CALLDATASIZE PUSH1 0x3 NOT ADD SLT PUSH2 0x6DA JUMPI PUSH2 0x2B4D PUSH2 0x5DD1 JUMP JUMPDEST PUSH1 0x4 CALLDATALOAD PUSH2 0x171 SSTORE DUP1 RETURN JUMPDEST DUP3 DUP5 CALLVALUE PUSH2 0x749 JUMPI DUP2 PUSH1 0x3 NOT CALLDATASIZE ADD SLT PUSH2 0x749 JUMPI PUSH1 0x20 SWAP1 PUSH2 0x189 SLOAD SWAP1 MLOAD SWAP1 DUP2 MSTORE RETURN JUMPDEST DUP3 CALLVALUE PUSH2 0x6DA JUMPI PUSH1 0x20 CALLDATASIZE PUSH1 0x3 NOT ADD SLT PUSH2 0x6DA JUMPI PUSH1 0x4 CALLDATALOAD PUSH1 0x1 PUSH1 0x1 PUSH1 0xA0 SHL SUB DUP2 AND SWAP1 DUP2 SWAP1 SUB PUSH2 0x749 JUMPI PUSH2 0x2BA6 PUSH2 0x5DD1 JUMP JUMPDEST PUSH2 0x178 DUP1 SLOAD PUSH1 0x1 PUSH1 0x1 PUSH1 0xA0 SHL SUB NOT AND SWAP1 SWAP2 OR SWAP1 SSTORE DUP1 RETURN JUMPDEST DUP3 DUP5 CALLVALUE PUSH2 0x749 JUMPI DUP2 PUSH1 0x3 NOT CALLDATASIZE ADD SLT PUSH2 0x749 JUMPI PUSH1 0x20 SWAP1 PUSH2 0x1BF SLOAD SWAP1 MLOAD SWAP1 DUP2 MSTORE RETURN JUMPDEST DUP3 DUP5 CALLVALUE PUSH2 0x749 JUMPI DUP2 PUSH1 0x3 NOT CALLDATASIZE ADD SLT PUSH2 0x749 JUMPI PUSH1 0x97 SLOAD SWAP1 MLOAD PUSH1 0x1 PUSH1 0x1 PUSH1 0xA0 SHL SUB SWAP1 SWAP2 AND DUP2 MSTORE PUSH1 0x20 SWAP1 RETURN JUMPDEST POP POP CALLVALUE PUSH2 0x6DA JUMPI DUP2 PUSH1 0x3 NOT CALLDATASIZE ADD SLT PUSH2 0x6DA JUMPI DUP2 MLOAD PUSH2 0x6C9 SWAP2 PUSH2 0x6A7 PUSH1 0xA0 DUP4 PUSH2 0x3349 JUMP JUMPDEST DUP3 DUP5 CALLVALUE PUSH2 0x749 JUMPI PUSH2 0x3E0 CALLDATASIZE PUSH1 0x3 NOT ADD SLT PUSH2 0x749 JUMPI DUP2 SLOAD PUSH1 0xFF DUP2 PUSH1 0x8 SHR AND ISZERO SWAP1 DUP2 DUP1 SWAP3 PUSH2 0x311B JUMPI JUMPDEST DUP1 ISZERO PUSH2 0x3104 JUMPI JUMPDEST ISZERO PUSH2 0x30A9 JUMPI PUSH1 0xFF NOT DUP2 AND PUSH1 0x1 OR DUP5 SSTORE DUP2 PUSH2 0x3098 JUMPI JUMPDEST POP PUSH2 0x3C4 CALLDATALOAD PUSH1 0x1 PUSH1 0x1 PUSH1 0xA0 SHL SUB DUP2 AND SWAP1 DUP2 SWAP1 SUB PUSH2 0xB22 JUMPI PUSH2 0x28B DUP1 SLOAD PUSH1 0x1 PUSH1 0x1 PUSH1 0xA0 SHL SUB NOT AND SWAP1 SWAP2 OR SWAP1 SSTORE DUP3 SLOAD PUSH1 0x8 SHR PUSH1 0xFF AND PUSH2 0x2CA8 DUP2 PUSH2 0x3F87 JUMP JUMPDEST PUSH2 0x364 CALLDATALOAD PUSH1 0x1 PUSH1 0x1 PUSH1 0xA0 SHL SUB DUP2 AND SWAP1 DUP2 SWAP1 SUB PUSH2 0x21B6 JUMPI PUSH2 0x226 DUP1 SLOAD PUSH1 0x1 PUSH1 0x1 PUSH1 0xA0 SHL SUB NOT AND SWAP1 SWAP2 OR SWAP1 SSTORE PUSH1 0x1 PUSH1 0x1 PUSH1 0xA0 SHL SUB PUSH2 0x324 CALLDATALOAD SWAP1 DUP2 AND SWAP1 DUP2 SWAP1 SUB PUSH2 0x21B6 JUMPI PUSH2 0x344 CALLDATALOAD PUSH1 0x1 PUSH1 0x1 PUSH1 0xA0 SHL SUB DUP2 AND DUP2 SUB PUSH2 0x21B2 JUMPI PUSH1 0x1 SWAP2 PUSH2 0x2D09 DUP5 PUSH2 0x3F87 JUMP JUMPDEST PUSH2 0x2D12 DUP5 PUSH2 0x3F87 JUMP JUMPDEST PUSH2 0x2D1B DUP5 PUSH2 0x3F87 JUMP JUMPDEST PUSH2 0x2D24 DUP5 PUSH2 0x3F87 JUMP JUMPDEST PUSH1 0x1 PUSH1 0x1 PUSH1 0x60 SHL SUB PUSH1 0xA0 SHL PUSH1 0x97 SLOAD AND OR PUSH1 0x97 SSTORE PUSH2 0x2D40 DUP4 PUSH2 0x3F87 JUMP JUMPDEST PUSH1 0xCA SLOAD SWAP1 PUSH3 0x10000 DUP4 PUSH1 0xB0 SHL SUB SWAP1 PUSH1 0x10 SHL AND SWAP1 PUSH2 0xFF01 DUP4 PUSH1 0xB0 SHL SUB NOT AND OR OR PUSH1 0xCA SSTORE PUSH2 0x2D6B DUP2 PUSH2 0x3F87 JUMP JUMPDEST PUSH8 0xDE0B6B3A7640000 PUSH1 0xA4 CALLDATALOAD LT PUSH2 0x3087 JUMPI PUSH2 0x2D87 PUSH1 0xE4 CALLDATALOAD PUSH2 0x5EA3 JUMP JUMPDEST PUSH2 0x2D93 PUSH2 0x104 CALLDATALOAD PUSH2 0x5EA3 JUMP JUMPDEST PUSH2 0x2D9F PUSH2 0x124 CALLDATALOAD PUSH2 0x5EA3 JUMP JUMPDEST PUSH2 0x2DAB PUSH2 0x144 CALLDATALOAD PUSH2 0x5EA3 JUMP JUMPDEST PUSH2 0x2DB7 PUSH2 0x164 CALLDATALOAD PUSH2 0x5EA3 JUMP JUMPDEST PUSH2 0x2DC3 PUSH2 0x184 CALLDATALOAD PUSH2 0x5EA3 JUMP JUMPDEST PUSH2 0x2DCF PUSH2 0x1A4 CALLDATALOAD PUSH2 0x5EA3 JUMP JUMPDEST PUSH2 0x2DDB PUSH2 0x1C4 CALLDATALOAD PUSH2 0x5EA3 JUMP JUMPDEST PUSH2 0x2DE7 PUSH2 0x1E4 CALLDATALOAD PUSH2 0x5EA3 JUMP JUMPDEST PUSH2 0x2DFF PUSH2 0x2DFA PUSH2 0x224 CALLDATALOAD PUSH2 0x204 CALLDATALOAD PUSH2 0x39A9 JUMP JUMPDEST PUSH2 0x5EA3 JUMP JUMPDEST PUSH1 0x4 CALLDATALOAD PUSH1 0x1 PUSH1 0x1 PUSH1 0xA0 SHL SUB DUP2 AND SWAP1 DUP2 SWAP1 SUB PUSH2 0x21B6 JUMPI PUSH2 0x161 DUP1 SLOAD PUSH1 0x1 PUSH1 0x1 PUSH1 0xA0 SHL SUB NOT AND SWAP1 SWAP2 OR SWAP1 SSTORE PUSH1 0x24 CALLDATALOAD PUSH1 0x1 PUSH1 0x1 PUSH1 0xA0 SHL SUB DUP2 AND DUP2 SUB PUSH2 0x21B6 JUMPI PUSH2 0x162 DUP1 SLOAD PUSH1 0x1 PUSH1 0x1 PUSH1 0xA0 SHL SUB NOT AND PUSH1 0x1 PUSH1 0x1 PUSH1 0xA0 SHL SUB SWAP3 DUP4 AND OR SWAP1 SSTORE PUSH1 0x44 CALLDATALOAD SWAP1 DUP2 AND DUP2 SUB PUSH2 0x21B6 JUMPI PUSH2 0x165 DUP1 SLOAD PUSH1 0x1 PUSH1 0x1 PUSH1 0xA0 SHL SUB NOT AND PUSH1 0x1 PUSH1 0x1 PUSH1 0xA0 SHL SUB SWAP3 DUP4 AND OR SWAP1 SSTORE PUSH1 0x64 CALLDATALOAD SWAP1 DUP2 AND DUP2 SUB PUSH2 0x21B6 JUMPI PUSH2 0x178 DUP1 SLOAD PUSH1 0x1 PUSH1 0x1 PUSH1 0xA0 SHL SUB NOT AND PUSH1 0x1 PUSH1 0x1 PUSH1 0xA0 SHL SUB SWAP3 DUP4 AND OR SWAP1 SSTORE PUSH1 0x84 CALLDATALOAD SWAP1 DUP2 AND SWAP1 DUP2 SWAP1 SUB PUSH2 0x21B6 JUMPI PUSH2 0x179 DUP1 SLOAD PUSH1 0x1 PUSH1 0x1 PUSH1 0xA0 SHL SUB NOT AND SWAP1 SWAP2 OR SWAP1 SSTORE PUSH1 0xA4 CALLDATALOAD PUSH2 0x17B SSTORE PUSH1 0xC4 CALLDATALOAD PUSH2 0x17C SSTORE PUSH1 0xE4 CALLDATALOAD PUSH2 0x16D SSTORE PUSH2 0x104 CALLDATALOAD PUSH2 0x16E SSTORE PUSH2 0x124 CALLDATALOAD PUSH2 0x16F SSTORE PUSH2 0x144 CALLDATALOAD PUSH2 0x170 SSTORE PUSH2 0x164 CALLDATALOAD PUSH2 0x171 SSTORE PUSH2 0x184 CALLDATALOAD PUSH2 0x172 SSTORE PUSH2 0x1A4 CALLDATALOAD PUSH2 0x173 SSTORE PUSH2 0x1C4 CALLDATALOAD PUSH2 0x174 SSTORE PUSH2 0x1E4 CALLDATALOAD PUSH2 0x175 SSTORE PUSH2 0x204 CALLDATALOAD PUSH2 0x16B SSTORE PUSH2 0x224 CALLDATALOAD PUSH2 0x16C SSTORE PUSH2 0x244 CALLDATALOAD PUSH2 0x17E DUP2 SWAP1 SSTORE PUSH1 0x1 PUSH1 0x1 PUSH1 0xA0 SHL SUB PUSH2 0x264 CALLDATALOAD SWAP1 DUP2 AND SWAP1 DUP2 SWAP1 SUB PUSH2 0x21B2 JUMPI PUSH2 0x188 DUP1 SLOAD PUSH1 0x1 PUSH1 0x1 PUSH1 0xA0 SHL SUB NOT AND SWAP1 SWAP2 OR SWAP1 SSTORE PUSH2 0x284 CALLDATALOAD PUSH2 0x189 SSTORE PUSH2 0x2A4 CALLDATALOAD PUSH2 0x18A DUP2 SWAP1 SSTORE SWAP1 PUSH1 0x1 PUSH1 0x1 PUSH1 0xA0 SHL SUB PUSH2 0x2C4 CALLDATALOAD SWAP1 DUP2 AND SWAP1 DUP2 SWAP1 SUB PUSH2 0x3083 JUMPI PUSH2 0x182 DUP1 SLOAD PUSH1 0x1 PUSH1 0x1 PUSH1 0xA0 SHL SUB NOT AND SWAP1 SWAP2 OR SWAP1 SSTORE PUSH1 0x1 PUSH1 0x1 PUSH1 0xA0 SHL SUB PUSH2 0x2E4 CALLDATALOAD SWAP1 DUP2 AND SWAP1 DUP2 SWAP1 SUB PUSH2 0x3083 JUMPI PUSH2 0x183 SWAP1 PUSH1 0x1 PUSH1 0x1 PUSH1 0x60 SHL SUB PUSH1 0xA0 SHL DUP3 SLOAD AND OR SWAP1 SSTORE PUSH2 0x304 CALLDATALOAD PUSH2 0x184 SSTORE NUMBER PUSH2 0x187 SSTORE NUMBER ADD PUSH2 0x17F SSTORE NUMBER ADD PUSH2 0x18B SSTORE PUSH2 0x17D PUSH2 0xFFFF NOT DUP2 SLOAD AND SWAP1 SSTORE PUSH2 0x384 CALLDATALOAD PUSH2 0x3002 DUP3 PUSH2 0x3F87 JUMP JUMPDEST DUP1 ISZERO PUSH2 0x3072 JUMPI PUSH2 0x1C0 DUP2 SWAP1 SSTORE NUMBER ADD PUSH2 0x1BF SSTORE PUSH2 0x3A4 CALLDATALOAD PUSH1 0x1 PUSH1 0x1 PUSH1 0xA0 SHL SUB DUP2 AND DUP2 SUB PUSH2 0x21B6 JUMPI PUSH2 0x1F53 PUSH2 0x3034 SWAP3 PUSH2 0x3F87 JUMP JUMPDEST PUSH2 0x303C JUMPI POP DUP1 RETURN JUMPDEST PUSH1 0x20 PUSH32 0x7F26B83FF96E1F2B6A682F133852F6798A09C465DA95921460CEFB3847402498 SWAP2 PUSH2 0xFF00 NOT DUP5 SLOAD AND DUP5 SSTORE MLOAD PUSH1 0x1 DUP2 MSTORE LOG1 DUP1 RETURN JUMPDEST DUP4 MLOAD PUSH4 0x2A9FFAB7 PUSH1 0xE2 SHL DUP2 MSTORE PUSH1 0x4 SWAP1 REVERT JUMPDEST DUP7 DUP1 REVERT JUMPDEST DUP3 MLOAD PUSH4 0x2A9FFAB7 PUSH1 0xE2 SHL DUP2 MSTORE PUSH1 0x4 SWAP1 REVERT JUMPDEST PUSH2 0xFFFF NOT AND PUSH2 0x101 OR DUP4 SSTORE DUP4 PUSH2 0x2C6C JUMP JUMPDEST DUP3 MLOAD PUSH3 0x461BCD PUSH1 0xE5 SHL DUP2 MSTORE PUSH1 0x20 PUSH1 0x4 DUP3 ADD MSTORE PUSH1 0x2E PUSH1 0x24 DUP3 ADD MSTORE PUSH32 0x496E697469616C697A61626C653A20636F6E747261637420697320616C726561 PUSH1 0x44 DUP3 ADD MSTORE PUSH14 0x191E481A5B9A5D1A585B1A5E9959 PUSH1 0x92 SHL PUSH1 0x64 DUP3 ADD MSTORE PUSH1 0x84 SWAP1 REVERT JUMPDEST POP ADDRESS EXTCODESIZE ISZERO DUP1 ISZERO PUSH2 0x2C57 JUMPI POP PUSH1 0x1 PUSH1 0xFF DUP3 AND EQ PUSH2 0x2C57 JUMP JUMPDEST POP PUSH1 0x1 PUSH1 0xFF DUP3 AND LT PUSH2 0x2C50 JUMP JUMPDEST DUP3 CALLVALUE PUSH2 0x6DA JUMPI PUSH1 0x20 CALLDATASIZE PUSH1 0x3 NOT ADD SLT PUSH2 0x6DA JUMPI PUSH2 0x3142 PUSH2 0x5DD1 JUMP JUMPDEST PUSH1 0x4 CALLDATALOAD PUSH2 0x18A SSTORE DUP1 RETURN JUMPDEST DUP3 DUP5 CALLVALUE PUSH2 0x749 JUMPI DUP2 PUSH1 0x3 NOT CALLDATASIZE ADD SLT PUSH2 0x749 JUMPI PUSH2 0x3166 PUSH2 0x5E5E JUMP JUMPDEST PUSH2 0x316E PUSH2 0x5321 JUMP JUMPDEST PUSH2 0x18B DUP1 SLOAD NUMBER LT PUSH2 0x31E5 JUMPI SWAP1 PUSH2 0x31DC SWAP2 PUSH2 0x18A SLOAD NUMBER ADD SWAP1 SSTORE PUSH32 0xE37FDA283839477A1B77E29ACF8336C0E13A5DAA967913DF0FE5AD258C0822F PUSH1 0x20 PUSH8 0xDE0B6B3A7640000 PUSH2 0x31C3 PUSH2 0x163 SLOAD PUSH2 0x189 SLOAD SWAP1 PUSH2 0x3ACE JUMP JUMPDEST DIV SWAP3 MLOAD DUP4 DUP2 MSTORE LOG1 PUSH2 0x188 SLOAD PUSH1 0x1 PUSH1 0x1 PUSH1 0xA0 SHL SUB AND PUSH2 0x5378 JUMP JUMPDEST PUSH1 0x1 PUSH2 0x12F SSTORE DUP1 RETURN JUMPDEST DUP2 MLOAD PUSH4 0xACCE20E5 PUSH1 0xE0 SHL DUP2 MSTORE PUSH1 0x4 SWAP1 REVERT JUMPDEST DUP3 DUP5 CALLVALUE PUSH2 0x749 JUMPI PUSH1 0x20 CALLDATASIZE PUSH1 0x3 NOT ADD SLT PUSH2 0x749 JUMPI PUSH1 0x4 CALLDATALOAD SWAP2 PUSH2 0x167 SWAP1 DUP2 SLOAD DUP5 LT ISZERO PUSH2 0x6DA JUMPI POP PUSH1 0x20 SWAP3 PUSH2 0x3227 SWAP2 PUSH2 0x3261 JUMP JUMPDEST SWAP1 SLOAD SWAP2 MLOAD SWAP2 PUSH1 0x1 DUP1 PUSH1 0xA0 SHL SUB SWAP2 PUSH1 0x3 SHL SHR AND DUP2 MSTORE RETURN JUMPDEST DUP3 CALLVALUE PUSH2 0x6DA JUMPI PUSH1 0x20 CALLDATASIZE PUSH1 0x3 NOT ADD SLT PUSH2 0x6DA JUMPI PUSH2 0x3257 PUSH2 0x5DD1 JUMP JUMPDEST PUSH1 0x4 CALLDATALOAD PUSH2 0x16C SSTORE DUP1 RETURN JUMPDEST DUP1 SLOAD DUP3 LT ISZERO PUSH2 0x3276 JUMPI PUSH0 MSTORE PUSH1 0x20 PUSH0 KECCAK256 ADD SWAP1 PUSH0 SWAP1 JUMP JUMPDEST PUSH4 0x4E487B71 PUSH1 0xE0 SHL PUSH0 MSTORE PUSH1 0x32 PUSH1 0x4 MSTORE PUSH1 0x24 PUSH0 REVERT JUMPDEST CALLDATALOAD SWAP1 PUSH1 0x1 PUSH1 0x1 PUSH1 0xA0 SHL SUB DUP3 AND DUP3 SUB PUSH2 0x6D6 JUMPI JUMP JUMPDEST SWAP2 SWAP1 DUP3 PUSH1 0xC0 SWAP2 SUB SLT PUSH2 0x6D6 JUMPI PUSH2 0x32B3 DUP3 PUSH2 0x328A JUMP JUMPDEST SWAP2 PUSH1 0x20 DUP2 ADD CALLDATALOAD SWAP2 PUSH1 0x40 DUP3 ADD CALLDATALOAD SWAP2 PUSH1 0x60 DUP2 ADD CALLDATALOAD SWAP2 PUSH2 0x32DE PUSH1 0xA0 PUSH2 0x32D7 PUSH1 0x80 DUP6 ADD PUSH2 0x328A JUMP JUMPDEST SWAP4 ADD PUSH2 0x328A JUMP JUMPDEST SWAP1 JUMP JUMPDEST SWAP2 SWAP1 DUP3 PUSH1 0x80 SWAP2 SUB SLT PUSH2 0x6D6 JUMPI PUSH2 0x32F6 DUP3 PUSH2 0x328A JUMP JUMPDEST SWAP2 PUSH1 0x20 DUP2 ADD CALLDATALOAD SWAP2 PUSH1 0x60 PUSH1 0x40 DUP4 ADD CALLDATALOAD SWAP3 ADD CALLDATALOAD SWAP1 JUMP JUMPDEST SWAP2 SWAP1 DUP3 PUSH1 0x80 SWAP2 SUB SLT PUSH2 0x6D6 JUMPI DUP2 CALLDATALOAD SWAP2 PUSH1 0x20 DUP2 ADD CALLDATALOAD SWAP2 PUSH2 0x32DE PUSH1 0x60 PUSH2 0x32D7 PUSH1 0x40 DUP6 ADD PUSH2 0x328A JUMP JUMPDEST DUP1 SLOAD DUP3 LT ISZERO PUSH2 0x3276 JUMPI PUSH0 MSTORE PUSH1 0x20 PUSH0 KECCAK256 SWAP1 PUSH1 0x1 SHL ADD SWAP1 PUSH0 SWAP1 JUMP JUMPDEST SWAP1 PUSH1 0x1F DUP1 NOT SWAP2 ADD AND DUP2 ADD SWAP1 DUP2 LT PUSH8 0xFFFFFFFFFFFFFFFF DUP3 GT OR PUSH2 0x336B JUMPI PUSH1 0x40 MSTORE JUMP JUMPDEST PUSH4 0x4E487B71 PUSH1 0xE0 SHL PUSH0 MSTORE PUSH1 0x41 PUSH1 0x4 MSTORE PUSH1 0x24 PUSH0 REVERT JUMPDEST PUSH8 0xFFFFFFFFFFFFFFFF DUP2 GT PUSH2 0x336B JUMPI PUSH1 0x1F ADD PUSH1 0x1F NOT AND PUSH1 0x20 ADD SWAP1 JUMP JUMPDEST SWAP2 SWAP1 DUP3 PUSH1 0x80 SWAP2 SUB SLT PUSH2 0x6D6 JUMPI PUSH2 0x33B0 DUP3 PUSH2 0x328A JUMP JUMPDEST SWAP2 PUSH1 0x20 DUP2 ADD CALLDATALOAD SWAP2 PUSH2 0x32DE PUSH1 0x60 PUSH1 0x40 DUP5 ADD CALLDATALOAD SWAP4 ADD PUSH2 0x328A JUMP JUMPDEST SWAP1 DUP2 PUSH1 0xA0 SWAP2 SUB SLT PUSH2 0x6D6 JUMPI PUSH2 0x33DC DUP2 PUSH2 0x328A JUMP JUMPDEST SWAP2 PUSH1 0x20 DUP3 ADD CALLDATALOAD SWAP2 PUSH1 0x40 DUP2 ADD CALLDATALOAD SWAP2 PUSH2 0x32DE PUSH1 0x80 PUSH1 0x60 DUP5 ADD CALLDATALOAD SWAP4 ADD PUSH2 0x328A JUMP JUMPDEST SWAP2 SWAP1 DUP3 PUSH1 0xC0 SWAP2 SUB SLT PUSH2 0x6D6 JUMPI PUSH2 0x340F DUP3 PUSH2 0x328A JUMP JUMPDEST SWAP2 PUSH2 0x341C PUSH1 0x20 DUP3 ADD PUSH2 0x328A JUMP JUMPDEST SWAP2 PUSH1 0x40 DUP3 ADD CALLDATALOAD SWAP2 PUSH1 0x60 DUP2 ADD CALLDATALOAD SWAP2 PUSH2 0x32DE PUSH1 0xA0 PUSH1 0x80 DUP5 ADD CALLDATALOAD SWAP4 ADD PUSH2 0x328A JUMP JUMPDEST SWAP1 DUP2 PUSH1 0xA0 SWAP2 SUB SLT PUSH2 0x6D6 JUMPI PUSH2 0x344E DUP2 PUSH2 0x328A JUMP JUMPDEST SWAP2 PUSH1 0x20 DUP3 ADD CALLDATALOAD SWAP2 PUSH1 0x40 DUP2 ADD CALLDATALOAD SWAP2 PUSH2 0x32DE PUSH1 0x80 PUSH2 0x32D7 PUSH1 0x60 DUP6 ADD PUSH2 0x328A JUMP JUMPDEST ISZERO PUSH2 0x3473 JUMPI JUMP JUMPDEST PUSH1 0x40 MLOAD PUSH3 0x461BCD PUSH1 0xE5 SHL DUP2 MSTORE PUSH1 0x20 PUSH1 0x4 DUP3 ADD MSTORE PUSH1 0x2C PUSH1 0x24 DUP3 ADD MSTORE PUSH32 0x46756E6374696F6E206D7573742062652063616C6C6564207468726F75676820 PUSH1 0x44 DUP3 ADD MSTORE PUSH12 0x19195B1959D85D1958D85B1B PUSH1 0xA2 SHL PUSH1 0x64 DUP3 ADD MSTORE PUSH1 0x84 SWAP1 REVERT JUMPDEST ISZERO PUSH2 0x34D4 JUMPI JUMP JUMPDEST PUSH1 0x40 MLOAD PUSH3 0x461BCD PUSH1 0xE5 SHL DUP2 MSTORE PUSH1 0x20 PUSH1 0x4 DUP3 ADD MSTORE PUSH1 0x2C PUSH1 0x24 DUP3 ADD MSTORE PUSH32 0x46756E6374696F6E206D7573742062652063616C6C6564207468726F75676820 PUSH1 0x44 DUP3 ADD MSTORE PUSH12 0x6163746976652070726F7879 PUSH1 0xA0 SHL PUSH1 0x64 DUP3 ADD MSTORE PUSH1 0x84 SWAP1 REVERT JUMPDEST SWAP1 PUSH1 0xFF PUSH32 0x4910FDFA16FED3260ED0E7147F7CC6DA11A60208B5B9406D12A635614FFD9143 SLOAD AND PUSH0 EQ PUSH2 0x3567 JUMPI POP PUSH2 0x3565 SWAP2 POP PUSH2 0x3718 JUMP JUMPDEST JUMP JUMPDEST PUSH1 0x40 MLOAD PUSH4 0x52D1902D PUSH1 0xE0 SHL DUP2 MSTORE PUSH1 0x20 SWAP4 SWAP2 SWAP3 SWAP2 SWAP1 PUSH1 0x1 PUSH1 0x1 PUSH1 0xA0 SHL SUB DUP4 AND SWAP1 DUP6 DUP2 PUSH1 0x4 DUP2 DUP6 GAS STATICCALL PUSH0 SWAP2 DUP2 PUSH2 0x36E9 JUMPI JUMPDEST POP PUSH2 0x35F7 JUMPI PUSH1 0x40 MLOAD PUSH3 0x461BCD PUSH1 0xE5 SHL DUP2 MSTORE PUSH1 0x4 DUP2 ADD DUP8 SWAP1 MSTORE PUSH1 0x2E PUSH1 0x24 DUP3 ADD MSTORE PUSH32 0x45524331393637557067726164653A206E657720696D706C656D656E74617469 PUSH1 0x44 DUP3 ADD MSTORE PUSH14 0x6F6E206973206E6F742055555053 PUSH1 0x90 SHL PUSH1 0x64 DUP3 ADD MSTORE PUSH1 0x84 SWAP1 REVERT JUMPDEST SWAP4 SWAP5 SWAP4 PUSH32 0xC9F76B5EC45E5CDEF99837D7B6D2467235C1DF8933C8CA56DF5C35AFA2C7D444 ADD PUSH2 0x3692 JUMPI PUSH2 0x3629 DUP4 PUSH2 0x3718 JUMP JUMPDEST PUSH32 0xBC7CD75A20EE27FD9ADEBAB32041F755214DBC6BFFA90CC0225B39DA2E5C2D3B PUSH0 DUP1 LOG2 DUP4 MLOAD ISZERO SWAP1 DUP2 ISZERO SWAP2 PUSH2 0x368A JUMPI JUMPDEST POP PUSH2 0x3663 JUMPI POP POP POP JUMP JUMPDEST PUSH0 DUP1 PUSH2 0x3687 SWAP5 PUSH2 0x3671 PUSH2 0x37BA JUMP JUMPDEST SWAP5 DUP2 MLOAD SWAP2 ADD DUP5 GAS DELEGATECALL PUSH2 0x3681 PUSH2 0x380E JUMP JUMPDEST SWAP2 PUSH2 0x383D JUMP JUMPDEST POP JUMP JUMPDEST SWAP1 POP PUSH0 PUSH2 0x3659 JUMP JUMPDEST PUSH1 0x40 MLOAD PUSH3 0x461BCD PUSH1 0xE5 SHL DUP2 MSTORE PUSH1 0x4 DUP2 ADD DUP6 SWAP1 MSTORE PUSH1 0x29 PUSH1 0x24 DUP3 ADD MSTORE PUSH32 0x45524331393637557067726164653A20756E737570706F727465642070726F78 PUSH1 0x44 DUP3 ADD MSTORE PUSH9 0x1A58589B1955555251 PUSH1 0xBA SHL PUSH1 0x64 DUP3 ADD MSTORE PUSH1 0x84 SWAP1 REVERT JUMPDEST SWAP1 SWAP2 DUP8 DUP3 DUP2 RETURNDATASIZE DUP4 GT PUSH2 0x3711 JUMPI JUMPDEST PUSH2 0x3700 DUP2 DUP4 PUSH2 0x3349 JUMP JUMPDEST DUP2 ADD SUB SLT PUSH2 0x6DA JUMPI POP MLOAD SWAP1 PUSH0 PUSH2 0x3596 JUMP JUMPDEST POP RETURNDATASIZE PUSH2 0x36F6 JUMP JUMPDEST DUP1 EXTCODESIZE ISZERO PUSH2 0x375F JUMPI PUSH32 0x360894A13BA1A3210667C828492DB98DCA3E2076CC3735A920A3CA505D382BBC DUP1 SLOAD PUSH1 0x1 PUSH1 0x1 PUSH1 0xA0 SHL SUB NOT AND PUSH1 0x1 PUSH1 0x1 PUSH1 0xA0 SHL SUB SWAP1 SWAP3 AND SWAP2 SWAP1 SWAP2 OR SWAP1 SSTORE JUMP JUMPDEST PUSH1 0x40 MLOAD PUSH3 0x461BCD PUSH1 0xE5 SHL DUP2 MSTORE PUSH1 0x20 PUSH1 0x4 DUP3 ADD MSTORE PUSH1 0x2D PUSH1 0x24 DUP3 ADD MSTORE PUSH32 0x455243313936373A206E657720696D706C656D656E746174696F6E206973206E PUSH1 0x44 DUP3 ADD MSTORE PUSH13 0x1BDD08184818DBDB9D1C9858DD PUSH1 0x9A SHL PUSH1 0x64 DUP3 ADD MSTORE PUSH1 0x84 SWAP1 REVERT JUMPDEST PUSH2 0x37C4 PUSH1 0x27 PUSH2 0x337F JUMP JUMPDEST SWAP1 PUSH2 0x37D2 PUSH1 0x40 MLOAD SWAP3 DUP4 PUSH2 0x3349 JUMP JUMPDEST PUSH1 0x27 DUP3 MSTORE PUSH7 0x819985A5B1959 PUSH1 0xCA SHL PUSH1 0x40 DUP4 PUSH32 0x416464726573733A206C6F772D6C6576656C2064656C65676174652063616C6C PUSH1 0x20 DUP3 ADD MSTORE ADD MSTORE JUMP JUMPDEST RETURNDATASIZE ISZERO PUSH2 0x3838 JUMPI RETURNDATASIZE SWAP1 PUSH2 0x381F DUP3 PUSH2 0x337F JUMP JUMPDEST SWAP2 PUSH2 0x382D PUSH1 0x40 MLOAD SWAP4 DUP5 PUSH2 0x3349 JUMP JUMPDEST DUP3 MSTORE RETURNDATASIZE PUSH0 PUSH1 0x20 DUP5 ADD RETURNDATACOPY JUMP JUMPDEST PUSH1 0x60 SWAP1 JUMP JUMPDEST SWAP2 SWAP3 SWAP1 ISZERO PUSH2 0x389F JUMPI POP DUP2 MLOAD ISZERO PUSH2 0x3851 JUMPI POP SWAP1 JUMP JUMPDEST EXTCODESIZE ISZERO PUSH2 0x385A JUMPI SWAP1 JUMP JUMPDEST PUSH1 0x40 MLOAD PUSH3 0x461BCD PUSH1 0xE5 SHL DUP2 MSTORE PUSH1 0x20 PUSH1 0x4 DUP3 ADD MSTORE PUSH1 0x1D PUSH1 0x24 DUP3 ADD MSTORE PUSH32 0x416464726573733A2063616C6C20746F206E6F6E2D636F6E7472616374000000 PUSH1 0x44 DUP3 ADD MSTORE PUSH1 0x64 SWAP1 REVERT JUMPDEST DUP3 MLOAD SWAP1 SWAP2 POP ISZERO PUSH2 0x38B2 JUMPI POP DUP1 MLOAD SWAP1 PUSH1 0x20 ADD REVERT JUMPDEST PUSH1 0x40 MLOAD SWAP1 PUSH3 0x461BCD PUSH1 0xE5 SHL DUP3 MSTORE DUP2 PUSH1 0x20 DUP1 PUSH1 0x4 DUP4 ADD MSTORE DUP3 MLOAD SWAP1 DUP2 PUSH1 0x24 DUP5 ADD MSTORE PUSH0 SWAP4 JUMPDEST DUP3 DUP6 LT PUSH2 0x38F6 JUMPI POP POP PUSH1 0x44 SWAP3 POP PUSH0 DUP4 DUP3 DUP5 ADD ADD MSTORE PUSH1 0x1F DUP1 NOT SWAP2 ADD AND DUP2 ADD SUB ADD SWAP1 REVERT JUMPDEST DUP5 DUP2 ADD DUP3 ADD MLOAD DUP7 DUP7 ADD PUSH1 0x44 ADD MSTORE SWAP4 DUP2 ADD SWAP4 DUP6 SWAP4 POP PUSH2 0x38D4 JUMP JUMPDEST SWAP2 SWAP1 DUP3 SUB SWAP2 DUP3 GT PUSH2 0x391C JUMPI JUMP JUMPDEST PUSH4 0x4E487B71 PUSH1 0xE0 SHL PUSH0 MSTORE PUSH1 0x11 PUSH1 0x4 MSTORE PUSH1 0x24 PUSH0 REVERT JUMPDEST PUSH2 0x28B SLOAD PUSH1 0x40 MLOAD PUSH4 0x70A08231 PUSH1 0xE0 SHL DUP2 MSTORE PUSH1 0x1 PUSH1 0x1 PUSH1 0xA0 SHL SUB SWAP3 DUP4 AND PUSH1 0x4 DUP3 ADD MSTORE SWAP2 PUSH1 0x20 SWAP2 DUP4 SWAP2 PUSH1 0x24 SWAP2 DUP4 SWAP2 AND GAS STATICCALL SWAP1 DUP2 ISZERO PUSH2 0x399E JUMPI PUSH0 SWAP2 PUSH2 0x3970 JUMPI POP SWAP1 JUMP JUMPDEST SWAP1 PUSH1 0x20 DUP3 RETURNDATASIZE DUP3 GT PUSH2 0x3996 JUMPI JUMPDEST DUP2 PUSH2 0x3989 PUSH1 0x20 SWAP4 DUP4 PUSH2 0x3349 JUMP JUMPDEST DUP2 ADD SUB SLT PUSH2 0x6DA JUMPI POP MLOAD SWAP1 JUMP JUMPDEST RETURNDATASIZE SWAP2 POP PUSH2 0x397C JUMP JUMPDEST PUSH1 0x40 MLOAD RETURNDATASIZE PUSH0 DUP3 RETURNDATACOPY RETURNDATASIZE SWAP1 REVERT JUMPDEST SWAP2 SWAP1 DUP3 ADD DUP1 SWAP3 GT PUSH2 0x391C JUMPI JUMP JUMPDEST DUP1 MLOAD DUP3 LT ISZERO PUSH2 0x3276 JUMPI PUSH1 0x20 SWAP2 PUSH1 0x5 SHL ADD ADD SWAP1 JUMP JUMPDEST SWAP1 PUSH0 SWAP2 PUSH0 SWAP1 PUSH2 0x169 DUP1 SLOAD SWAP1 PUSH0 SWAP3 JUMPDEST DUP3 DUP5 LT PUSH2 0x39FE JUMPI POP POP POP POP PUSH2 0x39FA PUSH8 0xDE0B6B3A7640000 SWAP2 PUSH2 0x16B SLOAD SWAP1 PUSH2 0x3ACE JUMP JUMPDEST DIV SWAP1 JUMP JUMPDEST SWAP1 SWAP2 SWAP3 SWAP4 SWAP6 PUSH2 0x3A45 PUSH2 0x3A3A PUSH2 0x3A3F PUSH1 0x1 SWAP4 PUSH2 0xCBF PUSH2 0x3A1C DUP11 DUP9 PUSH2 0x39B6 JUMP JUMPDEST MLOAD PUSH2 0x3A27 DUP2 DUP13 PUSH2 0x3A6A JUMP JUMPDEST SWAP6 SWAP1 PUSH2 0x3A33 DUP14 DUP13 PUSH2 0x3330 JUMP JUMPDEST POP SLOAD PUSH2 0x39A9 JUMP JUMPDEST PUSH2 0x5E7F JUMP JUMPDEST SWAP9 PUSH2 0x39A9 JUMP JUMPDEST SWAP5 ADD SWAP3 SWAP2 SWAP1 PUSH2 0x39D8 JUMP JUMPDEST SWAP2 SWAP1 SWAP2 PUSH0 DUP4 DUP3 ADD SWAP4 DUP5 SLT SWAP2 SLT SWAP1 DUP1 ISZERO DUP3 AND SWAP2 ISZERO AND OR PUSH2 0x391C JUMPI JUMP JUMPDEST SWAP2 SWAP1 PUSH0 SWAP1 PUSH2 0x3A96 DUP2 PUSH0 SWAP6 PUSH2 0x3A8C PUSH2 0x3A83 DUP3 PUSH2 0x180 PUSH2 0x3261 JUMP JUMPDEST SWAP4 SWAP1 SLOAD SWAP3 PUSH2 0x3B17 JUMP JUMPDEST SWAP2 PUSH1 0x3 SHL SHR PUSH2 0x3A4F JUMP JUMPDEST PUSH0 DUP2 SGT PUSH2 0x3AA4 JUMPI JUMPDEST POP POP SWAP2 SWAP1 JUMP JUMPDEST PUSH2 0x3AC6 SWAP2 SWAP5 POP PUSH2 0x1E71 SWAP3 POP DUP1 SWAP5 PUSH8 0xDE0B6B3A7640000 SWAP4 DUP5 SWAP2 PUSH2 0x16C SLOAD PUSH2 0x3ACE JUMP JUMPDEST DIV PUSH0 DUP1 PUSH2 0x3A9E JUMP JUMPDEST DUP2 DUP2 MUL SWAP3 SWAP2 DUP2 ISZERO SWAP2 DUP5 DIV EQ OR ISZERO PUSH2 0x391C JUMPI JUMP JUMPDEST DUP2 ISZERO PUSH2 0x3AEB JUMPI DIV SWAP1 JUMP JUMPDEST PUSH4 0x4E487B71 PUSH1 0xE0 SHL PUSH0 MSTORE PUSH1 0x12 PUSH1 0x4 MSTORE PUSH1 0x24 PUSH0 REVERT JUMPDEST DUP2 DUP2 SUB SWAP3 SWAP2 PUSH0 SGT DUP1 ISZERO DUP3 DUP6 SGT AND SWAP2 DUP5 SLT AND OR PUSH2 0x391C JUMPI JUMP JUMPDEST PUSH2 0x3B23 DUP2 PUSH2 0x169 PUSH2 0x3330 JUMP JUMPDEST POP SLOAD SWAP1 PUSH8 0xDE0B6B3A7640000 SWAP2 DUP3 DUP2 MUL SWAP3 DUP2 DUP5 DIV EQ SWAP1 ISZERO OR ISZERO PUSH2 0x391C JUMPI PUSH2 0x32DE SWAP3 PUSH2 0x3B63 PUSH2 0x3B56 PUSH2 0x3B69 SWAP4 PUSH2 0x181 PUSH2 0x3261 JUMP JUMPDEST SWAP1 SLOAD SWAP1 PUSH1 0x3 SHL SHR DUP5 PUSH2 0x3AE1 JUMP JUMPDEST SWAP3 PUSH2 0x3AE1 JUMP JUMPDEST SWAP1 PUSH2 0x3AFF JUMP JUMPDEST DUP1 ISZERO PUSH2 0x3B85 JUMPI PUSH2 0x3A3A PUSH2 0x32DE SWAP3 PUSH2 0x163 SLOAD PUSH2 0x390F JUMP JUMPDEST POP POP PUSH0 NOT SWAP1 JUMP JUMPDEST PUSH8 0xFFFFFFFFFFFFFFFF DUP2 GT PUSH2 0x336B JUMPI PUSH1 0x5 SHL PUSH1 0x20 ADD SWAP1 JUMP JUMPDEST SWAP1 PUSH2 0x3BAE DUP3 PUSH2 0x3B8C JUMP JUMPDEST PUSH2 0x3BBB PUSH1 0x40 MLOAD SWAP2 DUP3 PUSH2 0x3349 JUMP JUMPDEST DUP3 DUP2 MSTORE DUP1 SWAP3 PUSH2 0x3BCC PUSH1 0x1F NOT SWAP2 PUSH2 0x3B8C JUMP JUMPDEST ADD SWAP1 PUSH1 0x20 CALLDATASIZE SWAP2 ADD CALLDATACOPY JUMP JUMPDEST PUSH2 0x163 SLOAD DUP1 ISZERO PUSH2 0x3687 JUMPI PUSH2 0x169 SWAP1 DUP2 SLOAD SWAP2 PUSH0 SWAP1 PUSH2 0x3BF2 DUP5 PUSH2 0x3BA4 JUMP JUMPDEST SWAP1 DUP3 SWAP1 JUMPDEST DUP6 DUP3 LT PUSH2 0x3C60 JUMPI POP POP PUSH0 JUMPDEST DUP5 DUP2 LT PUSH2 0x3C0F JUMPI POP POP POP POP POP JUMP JUMPDEST PUSH2 0x3C2C DUP5 PUSH2 0x3C27 DUP6 PUSH2 0x3C21 DUP6 DUP8 PUSH2 0x39B6 JUMP JUMPDEST MLOAD PUSH2 0x3ACE JUMP JUMPDEST PUSH2 0x3AE1 JUMP JUMPDEST SWAP1 PUSH2 0x16A SWAP2 DUP3 SLOAD PUSH9 0x10000000000000000 DUP2 LT ISZERO PUSH2 0x336B JUMPI PUSH2 0x1E8A DUP2 PUSH1 0x1 SWAP6 DUP7 PUSH2 0x3C58 SWAP5 ADD DUP2 SSTORE PUSH2 0x3261 JUMP JUMPDEST SWAP1 SSTORE ADD PUSH2 0x3C01 JUMP JUMPDEST SWAP1 SWAP3 PUSH2 0x3C9C PUSH1 0x1 SWAP2 PUSH2 0x3C71 DUP7 PUSH2 0x3CDE JUMP JUMPDEST PUSH2 0x3C7B DUP8 DUP8 PUSH2 0x39B6 JUMP JUMPDEST MSTORE PUSH2 0xCBF PUSH2 0x3C89 DUP8 DUP7 PUSH2 0x3330 JUMP JUMPDEST POP SLOAD PUSH2 0x3C95 DUP9 DUP9 PUSH2 0x39B6 JUMP JUMPDEST MLOAD SWAP1 PUSH2 0x5E7F JUMP JUMPDEST SWAP4 ADD SWAP1 PUSH2 0x3BF6 JUMP JUMPDEST PUSH1 0x1 PUSH1 0x1 PUSH1 0xA0 SHL SUB AND PUSH0 SWAP1 DUP2 MSTORE PUSH2 0x168 PUSH1 0x20 MSTORE PUSH1 0x40 SWAP1 KECCAK256 PUSH1 0x1 DUP2 ADD SLOAD PUSH1 0xFF AND ISZERO PUSH2 0x3CCC JUMPI SLOAD SWAP1 JUMP JUMPDEST PUSH1 0x40 MLOAD PUSH4 0xE6C4247B PUSH1 0xE0 SHL DUP2 MSTORE PUSH1 0x4 SWAP1 REVERT JUMPDEST PUSH2 0x3CEA SWAP1 PUSH2 0x169 PUSH2 0x3330 JUMP JUMPDEST POP PUSH1 0x1 ADD SLOAD PUSH1 0x1 PUSH1 0x1 PUSH1 0xA0 SHL SUB AND PUSH2 0x3D01 DUP2 PUSH2 0x3D4C JUMP JUMPDEST SWAP2 SWAP1 SWAP2 ISZERO PUSH2 0x3D0D JUMPI POP SWAP1 JUMP JUMPDEST PUSH1 0x24 SWAP1 PUSH1 0x40 MLOAD SWAP1 PUSH4 0x7F6E4DB9 PUSH1 0xE0 SHL DUP3 MSTORE PUSH1 0x4 DUP3 ADD MSTORE REVERT JUMPDEST MLOAD SWAP1 DUP2 ISZERO ISZERO DUP3 SUB PUSH2 0x6D6 JUMPI JUMP JUMPDEST SWAP2 SWAP1 DUP3 PUSH1 0x40 SWAP2 SUB SLT PUSH2 0x6D6 JUMPI PUSH2 0x32DE PUSH1 0x20 DUP4 MLOAD SWAP4 ADD PUSH2 0x3D25 JUMP JUMPDEST PUSH1 0x40 DUP1 MLOAD PUSH4 0x59E02DD7 PUSH1 0xE0 SHL DUP2 MSTORE SWAP3 SWAP2 DUP4 SWAP1 PUSH1 0x4 SWAP1 DUP3 SWAP1 PUSH1 0x1 PUSH1 0x1 PUSH1 0xA0 SHL SUB AND GAS STATICCALL SWAP2 DUP3 ISZERO PUSH2 0x399E JUMPI PUSH0 SWAP1 DUP2 SWAP4 PUSH2 0x3D82 JUMPI POP SWAP2 SWAP1 JUMP JUMPDEST SWAP1 POP PUSH2 0x3DA6 SWAP2 SWAP3 POP PUSH1 0x40 RETURNDATASIZE DUP2 GT PUSH2 0x3DAA JUMPI JUMPDEST PUSH2 0x3D9E DUP2 DUP4 PUSH2 0x3349 JUMP JUMPDEST DUP2 ADD SWAP1 PUSH2 0x3D32 JUMP JUMPDEST SWAP1 SWAP2 JUMP JUMPDEST POP RETURNDATASIZE PUSH2 0x3D94 JUMP JUMPDEST PUSH2 0x169 SLOAD SWAP1 PUSH2 0x3DBF DUP3 PUSH2 0x3BA4 JUMP JUMPDEST SWAP2 PUSH0 JUMPDEST DUP2 DUP2 LT PUSH2 0x3DCD JUMPI POP POP JUMP JUMPDEST DUP1 PUSH2 0x3DD9 PUSH1 0x1 SWAP3 PUSH2 0x3CDE JUMP JUMPDEST PUSH2 0x3DE3 DUP3 DUP8 PUSH2 0x39B6 JUMP JUMPDEST MSTORE ADD PUSH2 0x3DC2 JUMP JUMPDEST SWAP1 PUSH2 0x3E0B PUSH8 0xDE0B6B3A7640000 SWAP3 DUP4 PUSH2 0x187 SLOAD PUSH2 0x184 SLOAD SWAP3 NUMBER ADD SUB MUL PUSH2 0x3AE1 JUMP JUMPDEST DUP3 DUP2 LT ISZERO PUSH2 0x3E28 JUMPI DUP3 SUB SWAP2 DUP1 DUP4 PUSH2 0x185 SLOAD MUL DIV SWAP3 PUSH2 0x186 SLOAD MUL SDIV SWAP1 JUMP JUMPDEST POP PUSH0 SWAP2 POP DUP2 SWAP1 JUMP JUMPDEST SWAP1 SWAP2 PUSH2 0x3E3A PUSH2 0x3E90 JUMP JUMPDEST SWAP3 SWAP1 DUP1 DUP3 LT ISZERO PUSH2 0x3E87 JUMPI DUP4 SWAP2 PUSH2 0x3E4F SWAP2 PUSH2 0x390F JUMP JUMPDEST SWAP4 GT ISZERO PUSH2 0x3E82 JUMPI DUP2 DUP2 LT ISZERO PUSH2 0x3E7B JUMPI PUSH2 0x3E67 SWAP2 PUSH2 0x390F JUMP JUMPDEST PUSH1 0x1 SHR DUP1 DUP3 LT ISZERO PUSH2 0x3E76 JUMPI POP SWAP1 JUMP JUMPDEST SWAP1 POP SWAP1 JUMP JUMPDEST POP POP POP PUSH0 SWAP1 JUMP JUMPDEST POP POP SWAP1 JUMP JUMPDEST POP POP POP POP POP PUSH0 SWAP1 JUMP JUMPDEST PUSH2 0x182 SLOAD PUSH1 0x40 DUP1 MLOAD PUSH4 0x59E02DD7 PUSH1 0xE0 SHL DUP1 DUP3 MSTORE SWAP4 SWAP3 SWAP1 SWAP2 SWAP1 PUSH1 0x1 PUSH1 0x1 PUSH1 0xA0 SHL SUB SWAP1 DUP2 AND DUP3 DUP5 PUSH1 0x4 DUP2 DUP5 GAS STATICCALL DUP1 ISZERO PUSH2 0x3F7D JUMPI PUSH0 SWAP5 DUP6 SWAP2 PUSH2 0x3F5A JUMPI JUMPDEST POP ISZERO PUSH2 0x3F43 JUMPI POP PUSH2 0x183 SLOAD AND SWAP1 DUP1 MLOAD SWAP5 DUP6 MSTORE DUP1 DUP6 PUSH1 0x4 DUP2 DUP6 GAS STATICCALL DUP1 ISZERO PUSH2 0x3F39 JUMPI PUSH0 SWAP6 DUP7 SWAP2 PUSH2 0x3F16 JUMPI JUMPDEST POP ISZERO PUSH2 0x3EFF JUMPI POP POP SWAP2 SWAP1 JUMP JUMPDEST PUSH1 0x24 SWAP3 POP MLOAD SWAP1 PUSH4 0x5E89893 PUSH1 0xE1 SHL DUP3 MSTORE PUSH1 0x4 DUP3 ADD MSTORE REVERT JUMPDEST SWAP1 POP DUP2 PUSH2 0x3F30 SWAP3 SWAP7 POP RETURNDATASIZE DUP8 GT PUSH2 0x3DAA JUMPI PUSH2 0x3D9E DUP2 DUP4 PUSH2 0x3349 JUMP JUMPDEST SWAP5 SWAP1 SWAP5 PUSH0 PUSH2 0x3EF3 JUMP JUMPDEST POP MLOAD RETURNDATASIZE PUSH0 DUP3 RETURNDATACOPY RETURNDATASIZE SWAP1 REVERT JUMPDEST PUSH1 0x24 SWAP1 DUP4 MLOAD SWAP1 PUSH4 0x5E89893 PUSH1 0xE1 SHL DUP3 MSTORE PUSH1 0x4 DUP3 ADD MSTORE REVERT JUMPDEST SWAP1 POP PUSH2 0x3F74 SWAP2 SWAP5 POP DUP4 RETURNDATASIZE DUP6 GT PUSH2 0x3DAA JUMPI PUSH2 0x3D9E DUP2 DUP4 PUSH2 0x3349 JUMP JUMPDEST SWAP4 SWAP1 SWAP4 PUSH0 PUSH2 0x3ECA JUMP JUMPDEST DUP4 MLOAD RETURNDATASIZE PUSH0 DUP3 RETURNDATACOPY RETURNDATASIZE SWAP1 REVERT JUMPDEST ISZERO PUSH2 0x3F8E JUMPI JUMP JUMPDEST PUSH1 0x40 MLOAD PUSH3 0x461BCD PUSH1 0xE5 SHL DUP2 MSTORE PUSH1 0x20 PUSH1 0x4 DUP3 ADD MSTORE PUSH1 0x2B PUSH1 0x24 DUP3 ADD MSTORE PUSH32 0x496E697469616C697A61626C653A20636F6E7472616374206973206E6F742069 PUSH1 0x44 DUP3 ADD MSTORE PUSH11 0x6E697469616C697A696E67 PUSH1 0xA8 SHL PUSH1 0x64 DUP3 ADD MSTORE PUSH1 0x84 SWAP1 REVERT JUMPDEST PUSH1 0x40 MLOAD SWAP1 PUSH2 0x3FF6 PUSH1 0x80 DUP4 PUSH2 0x3349 JUMP JUMPDEST PUSH0 PUSH1 0x60 DUP4 DUP3 DUP2 MSTORE DUP3 PUSH1 0x20 DUP3 ADD MSTORE DUP3 PUSH1 0x40 DUP3 ADD MSTORE ADD MSTORE JUMP JUMPDEST PUSH2 0x4091 SWAP2 PUSH2 0x4019 PUSH2 0x3FE7 JUMP JUMPDEST POP PUSH2 0x4022 PUSH2 0x441F JUMP JUMPDEST PUSH2 0x402A PUSH2 0x5E5E JUMP JUMPDEST PUSH8 0xDE0B6B3A7640000 PUSH2 0x405C PUSH2 0x4056 PUSH2 0x404D PUSH2 0x4044 PUSH2 0x3DB1 JUMP JUMPDEST PUSH2 0x17B SLOAD PUSH2 0x4441 JUMP JUMPDEST DUP7 MLOAD SWAP3 SWAP2 PUSH2 0x4484 JUMP JUMPDEST SWAP1 PUSH2 0x3ACE JUMP JUMPDEST DIV SWAP2 PUSH2 0x4086 PUSH1 0x1 DUP1 PUSH1 0xA0 SHL SUB PUSH1 0x40 DUP4 ADD MLOAD AND DUP5 PUSH1 0x1 DUP1 PUSH1 0xA0 SHL SUB PUSH1 0x80 DUP6 ADD MLOAD AND PUSH2 0x16E SLOAD SWAP3 PUSH2 0x44B3 JUMP JUMPDEST SWAP5 SWAP2 DUP3 SWAP7 SWAP2 SWAP7 PUSH2 0x39A9 JUMP JUMPDEST SWAP2 PUSH1 0x20 DUP2 ADD MLOAD DUP1 DUP5 GT PUSH2 0x42CC JUMPI POP DUP3 ISZERO PUSH2 0x42BA JUMPI PUSH1 0x1 DUP1 PUSH1 0xA0 SHL SUB PUSH1 0x40 DUP3 ADD MLOAD AND PUSH1 0x1 DUP1 PUSH1 0xA0 SHL SUB PUSH1 0x60 DUP4 ADD MLOAD AND SWAP1 PUSH32 0xA02482A2126FA394339A603E5B911CBB1BFC18EA48CD9C0896F81D083EFF450F DUP6 DUP5 MLOAD PUSH2 0x4114 DUP11 MLOAD PUSH1 0x20 DUP13 ADD MLOAD DUP13 PUSH1 0x60 PUSH1 0x40 DUP3 ADD MLOAD SWAP2 ADD MLOAD SWAP2 PUSH1 0x1 DUP1 PUSH1 0xA0 SHL SUB PUSH1 0x80 DUP13 ADD MLOAD AND SWAP4 PUSH1 0x40 MLOAD SWAP8 DUP9 SWAP8 DUP9 PUSH2 0x5775 JUMP JUMPDEST SUB SWAP1 LOG3 PUSH2 0x4189 PUSH1 0x20 DUP3 MLOAD PUSH1 0x1 DUP1 PUSH1 0xA0 SHL SUB PUSH1 0x60 DUP6 ADD MLOAD AND PUSH2 0x166 PUSH2 0x4139 DUP4 DUP3 SLOAD PUSH2 0x39A9 JUMP JUMPDEST SWAP1 SSTORE PUSH2 0x4149 PUSH2 0x163 SWAP7 DUP8 SLOAD PUSH2 0x39A9 JUMP JUMPDEST DUP7 SSTORE PUSH2 0x165 SLOAD PUSH1 0x40 MLOAD PUSH4 0x40C10F19 PUSH1 0xE0 SHL DUP2 MSTORE PUSH1 0x1 PUSH1 0x1 PUSH1 0xA0 SHL SUB SWAP3 DUP4 AND PUSH1 0x4 DUP3 ADD MSTORE PUSH1 0x24 DUP2 ADD SWAP4 SWAP1 SWAP4 MSTORE SWAP2 SWAP4 DUP5 SWAP3 SWAP1 SWAP2 AND SWAP1 DUP3 SWAP1 PUSH0 SWAP1 DUP3 SWAP1 PUSH1 0x44 DUP3 ADD SWAP1 JUMP JUMPDEST SUB SWAP3 GAS CALL DUP1 ISZERO PUSH2 0x399E JUMPI PUSH2 0x4279 JUMPI JUMPDEST POP PUSH2 0x28B SLOAD PUSH2 0x4241 SWAP3 PUSH0 SWAP3 SWAP2 PUSH2 0x41BC SWAP1 DUP7 SWAP1 ADDRESS SWAP1 CALLER SWAP1 PUSH1 0x1 PUSH1 0x1 PUSH1 0xA0 SHL SUB AND PUSH2 0x42EA JUMP JUMPDEST PUSH1 0x40 DUP3 ADD MLOAD PUSH1 0x80 SWAP1 SWAP3 ADD MLOAD PUSH1 0x1 PUSH1 0x1 PUSH1 0xA0 SHL SUB SWAP3 DUP4 AND SWAP3 AND PUSH2 0x41DC PUSH2 0x5321 JUMP JUMPDEST DUP8 MLOAD ISZERO ISZERO DUP5 EQ PUSH2 0x424C JUMPI PUSH2 0x4231 PUSH2 0x423C SWAP3 PUSH8 0xDE0B6B3A7640000 PUSH2 0x4205 PUSH2 0x16D SLOAD DUP13 MLOAD SWAP1 PUSH2 0x3ACE JUMP JUMPDEST DIV SWAP1 PUSH2 0x4212 DUP3 DUP3 SLOAD PUSH2 0x39A9 JUMP JUMPDEST SWAP1 SSTORE PUSH2 0x422B PUSH1 0x1 DUP1 PUSH1 0xA0 SHL SUB PUSH2 0x178 SLOAD AND SWAP2 DUP12 MLOAD PUSH2 0x390F JUMP JUMPDEST SWAP1 PUSH2 0x5378 JUMP JUMPDEST PUSH1 0x40 DUP9 ADD MLOAD SWAP1 PUSH2 0x5378 JUMP JUMPDEST PUSH2 0x5378 JUMP JUMPDEST PUSH1 0x1 PUSH2 0x12F SSTORE SWAP3 SWAP2 SWAP1 JUMP JUMPDEST PUSH2 0x178 SLOAD PUSH1 0x20 DUP10 ADD MLOAD PUSH2 0x423C SWAP4 POP PUSH2 0x426D SWAP2 PUSH1 0x1 PUSH1 0x1 PUSH1 0xA0 SHL SUB AND DUP6 PUSH2 0x53C2 JUMP JUMPDEST PUSH1 0x60 DUP9 ADD MLOAD SWAP1 DUP4 PUSH2 0x53C2 JUMP JUMPDEST SWAP1 PUSH1 0x20 DUP3 RETURNDATASIZE PUSH1 0x20 GT PUSH2 0x42B2 JUMPI JUMPDEST DUP2 PUSH2 0x4293 PUSH1 0x20 SWAP4 DUP4 PUSH2 0x3349 JUMP JUMPDEST DUP2 ADD SUB SLT PUSH2 0x6D6 JUMPI PUSH2 0x4241 SWAP3 PUSH2 0x42A9 PUSH0 SWAP4 PUSH2 0x3D25 JUMP JUMPDEST POP SWAP3 POP SWAP1 PUSH2 0x4198 JUMP JUMPDEST RETURNDATASIZE SWAP2 POP PUSH2 0x4286 JUMP JUMPDEST PUSH1 0x40 MLOAD PUSH4 0xF3E39B5D PUSH1 0xE0 SHL DUP2 MSTORE PUSH1 0x4 SWAP1 REVERT JUMPDEST PUSH1 0x44 SWAP1 DUP5 PUSH1 0x40 MLOAD SWAP2 PUSH4 0xB63F1A7 PUSH1 0xE0 SHL DUP4 MSTORE PUSH1 0x4 DUP4 ADD MSTORE PUSH1 0x24 DUP3 ADD MSTORE REVERT JUMPDEST PUSH1 0x40 MLOAD PUSH4 0x23B872DD PUSH1 0xE0 SHL PUSH1 0x20 DUP3 ADD MSTORE PUSH1 0x1 PUSH1 0x1 PUSH1 0xA0 SHL SUB SWAP3 DUP4 AND PUSH1 0x24 DUP3 ADD MSTORE SWAP3 SWAP1 SWAP2 AND PUSH1 0x44 DUP4 ADD MSTORE PUSH1 0x64 DUP1 DUP4 ADD SWAP4 SWAP1 SWAP4 MSTORE SWAP2 DUP2 MSTORE PUSH2 0x3565 SWAP2 PUSH2 0x432E PUSH1 0x84 DUP4 PUSH2 0x3349 JUMP JUMPDEST PUSH1 0x20 SWAP2 PUSH2 0x4390 SWAP2 PUSH1 0x1 PUSH1 0x1 PUSH1 0xA0 SHL SUB AND PUSH0 DUP1 PUSH2 0x4349 DUP7 PUSH2 0x337F JUMP JUMPDEST SWAP4 PUSH2 0x4357 PUSH1 0x40 MLOAD SWAP6 DUP7 PUSH2 0x3349 JUMP JUMPDEST DUP7 DUP6 MSTORE PUSH32 0x5361666545524332303A206C6F772D6C6576656C2063616C6C206661696C6564 DUP8 DUP7 ADD MSTORE DUP7 DUP2 MLOAD SWAP2 ADD DUP3 DUP6 GAS CALL PUSH2 0x3681 PUSH2 0x380E JUMP JUMPDEST DUP1 MLOAD DUP3 DUP2 ISZERO SWAP2 DUP3 ISZERO PUSH2 0x4400 JUMPI JUMPDEST POP POP SWAP1 POP ISZERO PUSH2 0x43A9 JUMPI POP JUMP JUMPDEST PUSH1 0x84 SWAP1 PUSH1 0x40 MLOAD SWAP1 PUSH3 0x461BCD PUSH1 0xE5 SHL DUP3 MSTORE PUSH1 0x4 DUP3 ADD MSTORE PUSH1 0x2A PUSH1 0x24 DUP3 ADD MSTORE PUSH32 0x5361666545524332303A204552433230206F7065726174696F6E20646964206E PUSH1 0x44 DUP3 ADD MSTORE PUSH10 0x1BDD081CDD58D8D95959 PUSH1 0xB2 SHL PUSH1 0x64 DUP3 ADD MSTORE REVERT JUMPDEST DUP4 DUP1 SWAP3 SWAP4 POP ADD SUB SLT PUSH2 0x6D6 JUMPI DUP2 PUSH2 0x4417 SWAP2 ADD PUSH2 0x3D25 JUMP JUMPDEST DUP1 DUP3 PUSH0 PUSH2 0x439D JUMP JUMPDEST PUSH1 0xFF PUSH2 0x17D SLOAD PUSH1 0x8 SHR AND PUSH2 0x442F JUMPI JUMP JUMPDEST PUSH1 0x40 MLOAD PUSH4 0x1CA61D77 PUSH1 0xE0 SHL DUP2 MSTORE PUSH1 0x4 SWAP1 REVERT JUMPDEST SWAP2 SWAP1 PUSH2 0x444C SWAP1 PUSH2 0x39CA JUMP JUMPDEST SWAP2 SWAP1 SWAP3 PUSH2 0x4459 DUP4 DUP6 PUSH2 0x3B6F JUMP JUMPDEST SWAP1 DUP1 DUP3 GT ISZERO PUSH2 0x4466 JUMPI POP POP JUMP JUMPDEST PUSH1 0x44 SWAP3 POP PUSH1 0x40 MLOAD SWAP2 PUSH4 0x79121201 PUSH1 0xE0 SHL DUP4 MSTORE PUSH1 0x4 DUP4 ADD MSTORE PUSH1 0x24 DUP3 ADD MSTORE REVERT JUMPDEST SWAP1 PUSH2 0x166 SLOAD SWAP1 DUP2 ISZERO PUSH2 0x44A4 JUMPI PUSH2 0x32DE SWAP3 PUSH2 0xCBA PUSH2 0x3A3A SWAP3 PUSH2 0x163 SLOAD PUSH2 0x390F JUMP JUMPDEST POP POP POP PUSH8 0xDE0B6B3A7640000 SWAP1 JUMP JUMPDEST SWAP3 SWAP1 SWAP4 SWAP2 PUSH0 SWAP2 PUSH0 SWAP2 DUP3 SWAP7 PUSH2 0x44C5 PUSH2 0x3FE7 JUMP JUMPDEST SWAP7 PUSH1 0x1 PUSH1 0x1 PUSH1 0xA0 SHL SUB SWAP2 DUP6 SWAP1 DUP4 AND DUP1 PUSH2 0x46D1 JUMPI JUMPDEST POP DUP3 PUSH2 0x161 SLOAD AND DUP4 PUSH1 0x40 MLOAD SWAP4 PUSH4 0x6EB1769F PUSH1 0xE1 SHL DUP6 MSTORE AND DUP1 PUSH1 0x4 DUP6 ADD MSTORE ADDRESS PUSH1 0x24 DUP6 ADD MSTORE PUSH1 0x20 SWAP5 DUP6 DUP6 PUSH1 0x44 DUP2 DUP7 GAS STATICCALL SWAP5 DUP6 ISZERO PUSH2 0x46C6 JUMPI DUP5 SWAP6 PUSH2 0x4697 JUMPI JUMPDEST POP DUP5 PUSH2 0x4576 JUMPI JUMPDEST POP POP POP POP POP DUP7 ADD MLOAD ISZERO PUSH2 0x4532 JUMPI JUMPDEST POP POP POP SWAP3 SWAP2 SWAP1 JUMP JUMPDEST SWAP1 SWAP2 SWAP3 POP PUSH2 0x454A PUSH8 0xDE0B6B3A7640000 SWAP3 DUP4 SWAP3 PUSH2 0x3ACE JUMP JUMPDEST DIV DUP1 DUP6 MSTORE SWAP1 DUP3 ISZERO PUSH2 0x456E JUMPI PUSH2 0x4566 SWAP3 DIV SWAP1 DUP2 PUSH1 0x40 DUP7 ADD MSTORE PUSH2 0x39A9 JUMP JUMPDEST PUSH0 DUP1 DUP1 PUSH2 0x452A JUMP JUMPDEST POP SWAP1 POP PUSH2 0x4566 JUMP JUMPDEST PUSH2 0x4584 SWAP1 PUSH2 0x162 SLOAD AND PUSH2 0x3D4C JUMP JUMPDEST SWAP3 SWAP1 SWAP3 ISZERO PUSH2 0x451C JUMPI SWAP1 SWAP2 SWAP3 SWAP4 SWAP12 POP DUP5 DUP12 PUSH2 0x45BE DUP6 PUSH8 0xDE0B6B3A7640000 PUSH2 0x45B8 PUSH2 0x45AE DUP14 DUP14 PUSH2 0x3ACE JUMP JUMPDEST PUSH2 0x175 SLOAD SWAP1 PUSH2 0x3ACE JUMP JUMPDEST DIV PUSH2 0x3AE1 JUMP JUMPDEST DUP2 DUP4 ADD DUP2 DUP2 MSTORE SWAP6 SWAP1 DUP12 ISZERO PUSH2 0x468D JUMPI POP PUSH2 0x45E9 SWAP2 PUSH2 0x45DD PUSH1 0x60 SWAP3 DUP14 PUSH2 0x3AE1 JUMP JUMPDEST SWAP2 DUP3 SWAP2 ADD MSTORE DUP6 MLOAD PUSH2 0x39A9 JUMP JUMPDEST DUP1 SWAP14 JUMPDEST LT SWAP3 DUP4 ISZERO PUSH2 0x4618 JUMPI JUMPDEST POP POP POP PUSH2 0x4605 JUMPI JUMPDEST DUP1 DUP1 DUP1 PUSH2 0x451C JUMP JUMPDEST DUP2 SWAP3 SWAP10 POP MSTORE DUP1 PUSH1 0x60 DUP9 ADD MSTORE SWAP7 PUSH0 DUP1 PUSH2 0x45FD JUMP JUMPDEST SWAP1 SWAP2 SWAP3 POP PUSH1 0x24 PUSH1 0x40 MLOAD DUP1 SWAP5 DUP2 SWAP4 PUSH4 0x70A08231 PUSH1 0xE0 SHL DUP4 MSTORE PUSH1 0x4 DUP4 ADD MSTORE GAS STATICCALL SWAP1 DUP2 ISZERO PUSH2 0x4682 JUMPI SWAP1 DUP12 SWAP2 DUP5 SWAP2 PUSH2 0x4651 JUMPI JUMPDEST POP LT PUSH0 DUP5 DUP2 PUSH2 0x45F5 JUMP JUMPDEST DUP1 SWAP3 POP DUP6 DUP1 SWAP3 POP RETURNDATASIZE DUP4 GT PUSH2 0x467B JUMPI JUMPDEST PUSH2 0x466A DUP2 DUP4 PUSH2 0x3349 JUMP JUMPDEST DUP2 ADD SUB SLT PUSH2 0x7CB JUMPI DUP11 SWAP1 MLOAD PUSH0 PUSH2 0x4647 JUMP JUMPDEST POP RETURNDATASIZE PUSH2 0x4660 JUMP JUMPDEST PUSH1 0x40 MLOAD RETURNDATASIZE DUP6 DUP3 RETURNDATACOPY RETURNDATASIZE SWAP1 REVERT JUMPDEST SWAP2 POP POP DUP1 SWAP14 PUSH2 0x45EC JUMP JUMPDEST SWAP1 SWAP5 POP DUP6 DUP2 DUP2 RETURNDATASIZE DUP4 GT PUSH2 0x46BF JUMPI JUMPDEST PUSH2 0x46AF DUP2 DUP4 PUSH2 0x3349 JUMP JUMPDEST DUP2 ADD SUB SLT PUSH2 0xB22 JUMPI MLOAD SWAP4 PUSH0 PUSH2 0x4515 JUMP JUMPDEST POP RETURNDATASIZE PUSH2 0x46A5 JUMP JUMPDEST PUSH1 0x40 MLOAD RETURNDATASIZE DUP7 DUP3 RETURNDATACOPY RETURNDATASIZE SWAP1 REVERT JUMPDEST SWAP1 SWAP6 POP PUSH1 0x20 DUP4 PUSH2 0x1F3 SLOAD AND SWAP2 PUSH1 0x24 PUSH1 0x40 MLOAD DUP1 SWAP5 DUP2 SWAP4 PUSH4 0x64A731E9 PUSH1 0xE0 SHL DUP4 MSTORE PUSH1 0x4 DUP4 ADD MSTORE GAS STATICCALL DUP1 ISZERO PUSH2 0x4749 JUMPI DUP7 SWAP1 PUSH2 0x4716 JUMPI JUMPDEST PUSH2 0x470F SWAP2 POP DUP5 PUSH2 0x3ACE JUMP JUMPDEST SWAP5 PUSH0 PUSH2 0x44D9 JUMP JUMPDEST POP PUSH1 0x20 DUP2 RETURNDATASIZE DUP3 GT PUSH2 0x4741 JUMPI JUMPDEST DUP2 PUSH2 0x472F PUSH1 0x20 SWAP4 DUP4 PUSH2 0x3349 JUMP JUMPDEST DUP2 ADD SUB SLT PUSH2 0x21B2 JUMPI PUSH2 0x470F SWAP1 MLOAD PUSH2 0x4704 JUMP JUMPDEST RETURNDATASIZE SWAP2 POP PUSH2 0x4722 JUMP JUMPDEST PUSH1 0x40 MLOAD RETURNDATASIZE DUP9 DUP3 RETURNDATACOPY RETURNDATASIZE SWAP1 REVERT JUMPDEST PUSH2 0x475C PUSH2 0x3FE7 JUMP JUMPDEST POP PUSH2 0x4765 PUSH2 0x441F JUMP JUMPDEST PUSH2 0x476D PUSH2 0x5E5E JUMP JUMPDEST PUSH2 0x4775 PUSH2 0x5D3E JUMP JUMPDEST PUSH2 0x477D PUSH2 0x5C7C JUMP JUMPDEST DUP3 MLOAD SWAP1 SWAP4 SWAP2 SWAP3 SWAP1 PUSH2 0x4796 SWAP1 PUSH1 0x1 PUSH1 0x1 PUSH1 0xA0 SHL SUB AND PUSH2 0x3CA4 JUMP JUMPDEST SWAP3 PUSH2 0x47D1 PUSH2 0x47B9 PUSH2 0x47A7 DUP7 DUP9 PUSH2 0x39B6 JUMP JUMPDEST MLOAD SWAP7 PUSH2 0x47B3 DUP9 DUP9 PUSH2 0x4A8A JUMP JUMPDEST DUP4 PUSH2 0x4441 JUMP JUMPDEST SWAP1 DUP8 PUSH1 0x20 DUP7 ADD MLOAD SWAP5 PUSH2 0x47CB DUP3 DUP11 PUSH2 0x5BD9 JUMP JUMPDEST SWAP1 PUSH2 0x4ADE JUMP JUMPDEST DUP2 DUP2 LT PUSH2 0x49A3 JUMPI POP POP PUSH2 0x47EB PUSH2 0x482E SWAP5 PUSH1 0x20 DUP4 ADD MLOAD PUSH2 0x5E7F JUMP JUMPDEST PUSH1 0x60 DUP3 ADD MLOAD PUSH1 0xA0 DUP4 ADD MLOAD DUP4 MLOAD PUSH1 0x1 PUSH1 0x1 PUSH1 0xA0 SHL SUB SWAP1 DUP2 AND PUSH0 SWAP1 DUP2 MSTORE PUSH2 0x176 PUSH1 0x20 MSTORE PUSH1 0x40 SWAP1 KECCAK256 SLOAD PUSH2 0x4823 SWAP4 SWAP1 SWAP3 DUP6 SWAP3 SWAP1 DUP2 AND SWAP2 AND PUSH2 0x44B3 JUMP JUMPDEST SWAP6 SWAP2 DUP4 SWAP8 SWAP2 SWAP8 PUSH2 0x39A9 JUMP JUMPDEST SWAP3 PUSH1 0x40 DUP2 ADD MLOAD DUP1 DUP6 GT PUSH2 0x4985 JUMPI POP DUP4 ISZERO PUSH2 0x42BA JUMPI PUSH2 0x48EF PUSH0 SWAP3 PUSH2 0x4241 SWAP5 PUSH1 0x1 DUP1 PUSH1 0xA0 SHL SUB DUP5 MLOAD AND PUSH1 0x1 DUP1 PUSH1 0xA0 SHL SUB PUSH1 0x60 DUP7 ADD MLOAD AND PUSH1 0x1 DUP1 PUSH1 0xA0 SHL SUB PUSH1 0x80 DUP8 ADD MLOAD AND SWAP2 PUSH32 0xBCF2DD35A7B66D878322508590F8C0F2E1042F2101DC031278E3819A304ACE61 DUP11 DUP14 PUSH2 0x48C9 PUSH1 0x20 DUP12 ADD MLOAD SWAP2 DUP12 DUP2 MLOAD SWAP2 PUSH1 0x20 DUP2 ADD MLOAD PUSH1 0x60 PUSH1 0x40 DUP4 ADD MLOAD SWAP3 ADD MLOAD SWAP3 PUSH1 0xA0 PUSH1 0x1 DUP1 DUP3 SHL SUB SWAP2 ADD MLOAD AND SWAP4 PUSH1 0x40 MLOAD SWAP8 DUP9 SWAP8 DUP9 PUSH2 0x5775 JUMP JUMPDEST SUB SWAP1 LOG4 PUSH2 0x48D6 DUP6 DUP3 PUSH2 0x4BFD JUMP JUMPDEST PUSH1 0x20 DUP5 ADD MLOAD PUSH1 0x80 DUP6 ADD MLOAD PUSH1 0x1 PUSH1 0x1 PUSH1 0xA0 SHL SUB AND SWAP3 PUSH2 0x49C1 JUMP JUMPDEST PUSH2 0x28B SLOAD PUSH2 0x490B SWAP1 DUP6 SWAP1 ADDRESS SWAP1 CALLER SWAP1 PUSH1 0x1 PUSH1 0x1 PUSH1 0xA0 SHL SUB AND PUSH2 0x42EA JUMP JUMPDEST PUSH1 0x60 DUP2 ADD MLOAD PUSH1 0xA0 SWAP1 SWAP2 ADD MLOAD PUSH1 0x1 PUSH1 0x1 PUSH1 0xA0 SHL SUB SWAP2 DUP3 AND SWAP2 AND PUSH2 0x492B PUSH2 0x5321 JUMP JUMPDEST DUP7 MLOAD ISZERO ISZERO DUP4 EQ PUSH2 0x4963 JUMPI PUSH2 0x423C SWAP1 PUSH2 0x4231 PUSH8 0xDE0B6B3A7640000 PUSH2 0x4954 PUSH2 0x16D SLOAD DUP12 MLOAD SWAP1 PUSH2 0x3ACE JUMP JUMPDEST DIV PUSH2 0x163 PUSH2 0x4212 DUP3 DUP3 SLOAD PUSH2 0x39A9 JUMP JUMPDEST PUSH2 0x178 SLOAD PUSH1 0x20 DUP9 ADD MLOAD PUSH2 0x423C SWAP3 SWAP2 PUSH2 0x426D SWAP2 SWAP1 PUSH1 0x1 PUSH1 0x1 PUSH1 0xA0 SHL SUB AND DUP6 PUSH2 0x53C2 JUMP JUMPDEST PUSH1 0x44 SWAP1 DUP6 PUSH1 0x40 MLOAD SWAP2 PUSH4 0xB63F1A7 PUSH1 0xE0 SHL DUP4 MSTORE PUSH1 0x4 DUP4 ADD MSTORE PUSH1 0x24 DUP3 ADD MSTORE REVERT JUMPDEST PUSH1 0x44 SWAP3 POP PUSH1 0x40 MLOAD SWAP2 PUSH4 0xC39B739F PUSH1 0xE0 SHL DUP4 MSTORE PUSH1 0x4 DUP4 ADD MSTORE PUSH1 0x24 DUP3 ADD MSTORE REVERT JUMPDEST PUSH2 0x4A38 SWAP4 PUSH2 0x49FF PUSH0 SWAP3 PUSH1 0x20 SWAP6 PUSH2 0x49D9 DUP3 PUSH2 0x169 PUSH2 0x3330 JUMP JUMPDEST POP PUSH2 0x49E5 DUP8 DUP3 SLOAD PUSH2 0x39A9 JUMP JUMPDEST SWAP1 SSTORE PUSH2 0x49F5 PUSH2 0x163 SWAP2 DUP3 SLOAD PUSH2 0x39A9 JUMP JUMPDEST SWAP1 SSTORE PUSH2 0x167 PUSH2 0x3261 JUMP JUMPDEST SWAP1 SLOAD PUSH1 0x40 MLOAD PUSH4 0x40C10F19 PUSH1 0xE0 SHL DUP2 MSTORE PUSH1 0x1 PUSH1 0x1 PUSH1 0xA0 SHL SUB SWAP1 SWAP4 AND PUSH1 0x4 DUP5 ADD MSTORE PUSH1 0x24 DUP4 ADD SWAP5 SWAP1 SWAP5 MSTORE SWAP1 SWAP5 DUP6 SWAP4 SWAP3 DUP5 SWAP3 SWAP1 SWAP2 DUP4 SWAP1 PUSH1 0x44 DUP3 ADD SWAP1 JUMP JUMPDEST SUB SWAP4 PUSH1 0x3 SWAP2 SWAP1 SWAP2 SHL SHR PUSH1 0x1 PUSH1 0x1 PUSH1 0xA0 SHL SUB AND GAS CALL DUP1 ISZERO PUSH2 0x399E JUMPI PUSH2 0x4A59 JUMPI POP JUMP JUMPDEST PUSH1 0x20 DUP2 RETURNDATASIZE DUP3 GT PUSH2 0x4A82 JUMPI JUMPDEST DUP2 PUSH2 0x4A71 PUSH1 0x20 SWAP4 DUP4 PUSH2 0x3349 JUMP JUMPDEST DUP2 ADD SUB SLT PUSH2 0x6D6 JUMPI PUSH2 0x3687 SWAP1 PUSH2 0x3D25 JUMP JUMPDEST RETURNDATASIZE SWAP2 POP PUSH2 0x4A64 JUMP JUMPDEST PUSH2 0x1E8A PUSH2 0x4ADA SWAP2 PUSH2 0x4A9B DUP5 DUP3 PUSH2 0x3B17 JUMP JUMPDEST PUSH2 0x4AD0 PUSH2 0x4AAA DUP4 PUSH2 0x180 PUSH2 0x3261 JUMP JUMPDEST PUSH2 0x4ABD DUP3 SWAP5 SWAP3 SLOAD SWAP3 DUP4 DUP4 PUSH1 0x3 SHL SHR PUSH2 0x3A4F JUMP JUMPDEST SWAP2 SWAP1 PUSH1 0x3 SHL SWAP2 DUP3 SHL SWAP2 PUSH0 NOT SWAP1 SHL NOT AND OR SWAP1 JUMP JUMPDEST SWAP1 SSTORE PUSH2 0x181 PUSH2 0x3261 JUMP JUMPDEST SWAP1 SSTORE JUMP JUMPDEST SWAP2 DUP4 DUP6 SWAP2 PUSH2 0x4AEC SWAP4 DUP6 PUSH2 0x4B36 JUMP JUMPDEST SWAP3 PUSH0 DUP5 SLT SWAP3 DUP4 ISZERO PUSH2 0x4B07 JUMPI JUMPDEST POP POP POP PUSH2 0x4B02 JUMPI SWAP1 JUMP JUMPDEST POP PUSH0 SWAP1 JUMP JUMPDEST PUSH2 0x4B12 SWAP3 SWAP4 POP PUSH2 0x3B6F JUMP JUMPDEST GT ISZERO PUSH0 DUP1 DUP1 PUSH2 0x4AF8 JUMP JUMPDEST DUP2 ISZERO PUSH2 0x3AEB JUMPI PUSH1 0x1 PUSH1 0xFF SHL DUP2 EQ PUSH0 NOT DUP4 EQ AND PUSH2 0x391C JUMPI SDIV SWAP1 JUMP JUMPDEST SWAP3 PUSH2 0x4B44 SWAP3 SWAP6 SWAP5 SWAP2 SWAP4 PUSH2 0x4BC6 JUMP JUMPDEST PUSH0 SWAP4 DUP2 DUP2 MUL SWAP2 SWAP1 DUP6 DUP3 SLT PUSH1 0x1 PUSH1 0xFF SHL DUP3 EQ AND PUSH2 0x4BB2 JUMPI DUP2 DUP4 SDIV EQ SWAP1 ISZERO OR ISZERO PUSH2 0x4B9E JUMPI PUSH8 0xDE0B6B3A763FFFF NOT DUP3 ADD SWAP2 DUP3 GT PUSH2 0x4B9E JUMPI PUSH8 0xDE0B6B3A7640000 SWAP2 DUP3 DUP2 MUL SWAP3 DUP2 DUP5 DIV EQ SWAP1 ISZERO OR ISZERO PUSH2 0x4B9E JUMPI PUSH2 0x32DE SWAP3 SWAP4 POP PUSH2 0x4B1C JUMP JUMPDEST PUSH4 0x4E487B71 PUSH1 0xE0 SHL DUP5 MSTORE PUSH1 0x11 PUSH1 0x4 MSTORE PUSH1 0x24 DUP5 REVERT JUMPDEST PUSH4 0x4E487B71 PUSH1 0xE0 SHL DUP7 MSTORE PUSH1 0x11 PUSH1 0x4 MSTORE PUSH1 0x24 DUP7 REVERT JUMPDEST SWAP1 SWAP2 PUSH2 0x4BD5 SWAP1 PUSH2 0x163 SLOAD PUSH2 0x390F JUMP JUMPDEST SWAP1 PUSH8 0xDE0B6B3A7640000 SWAP2 DUP3 DUP2 MUL SWAP3 DUP2 DUP5 DIV EQ SWAP1 ISZERO OR ISZERO PUSH2 0x391C JUMPI PUSH2 0x32DE SWAP3 PUSH2 0x3B69 SWAP2 PUSH2 0x3ACE JUMP JUMPDEST DUP1 PUSH2 0x4C06 PUSH2 0x3E90 JUMP JUMPDEST SWAP2 SWAP1 SWAP4 PUSH2 0x4C12 PUSH0 PUSH2 0x3DEA JUMP JUMPDEST SWAP5 ADD SWAP4 DUP3 SWAP2 PUSH2 0x4CA9 JUMPI JUMPDEST ADD SWAP4 DUP5 PUSH0 DUP1 DUP3 SLT PUSH2 0x4CA3 JUMPI POP JUMPDEST DUP5 SUB SWAP2 DUP2 DUP6 GT PUSH2 0x4C6B JUMPI POP POP DUP2 DUP2 GT PUSH2 0x4C4D JUMPI POP POP PUSH2 0x185 SSTORE PUSH2 0x186 SSTORE NUMBER PUSH2 0x187 SSTORE JUMP JUMPDEST PUSH1 0x44 SWAP3 POP PUSH1 0x40 MLOAD SWAP2 PUSH4 0x6DA41E5 PUSH1 0xE1 SHL DUP4 MSTORE PUSH1 0x4 DUP4 ADD MSTORE PUSH1 0x24 DUP3 ADD MSTORE REVERT JUMPDEST SWAP1 DUP1 DUP6 SWAP3 GT PUSH2 0x4C91 JUMPI PUSH1 0x44 SWAP2 PUSH1 0x40 MLOAD SWAP2 PUSH4 0x6DA41E5 PUSH1 0xE1 SHL DUP4 MSTORE PUSH1 0x4 DUP4 ADD MSTORE PUSH1 0x24 DUP3 ADD MSTORE REVERT JUMPDEST PUSH1 0x40 MLOAD PUSH4 0xFB4FD35 PUSH1 0xE1 SHL DUP2 MSTORE PUSH1 0x4 SWAP1 REVERT JUMPDEST SUB PUSH2 0x4C29 JUMP JUMPDEST SWAP1 POP DUP2 PUSH0 SUB SWAP1 PUSH2 0x4C1C JUMP JUMPDEST DUP1 SWAP2 SUB PUSH1 0xE0 DUP2 SLT PUSH2 0x6D6 JUMPI DUP2 MLOAD SWAP3 PUSH1 0x20 DUP4 ADD MLOAD SWAP3 PUSH1 0x80 PUSH1 0x40 DUP3 ADD MLOAD SWAP4 PUSH1 0x5F NOT ADD SLT PUSH2 0x6D6 JUMPI PUSH1 0xC0 PUSH1 0x40 MLOAD SWAP2 PUSH2 0x4CEA PUSH1 0x80 DUP5 PUSH2 0x3349 JUMP JUMPDEST PUSH1 0x60 DUP2 ADD MLOAD DUP4 MSTORE PUSH1 0x80 DUP2 ADD MLOAD PUSH1 0x20 DUP5 ADD MSTORE PUSH1 0xA0 DUP2 ADD MLOAD PUSH1 0x40 DUP5 ADD MSTORE ADD MLOAD PUSH1 0x60 DUP3 ADD MSTORE SWAP1 JUMP JUMPDEST SWAP1 PUSH2 0x4D18 PUSH2 0x3FE7 JUMP JUMPDEST POP PUSH2 0x4D21 PUSH2 0x441F JUMP JUMPDEST PUSH2 0x4D29 PUSH2 0x5E5E JUMP JUMPDEST PUSH0 PUSH1 0x40 MLOAD SWAP2 PUSH4 0x7225DA89 PUSH1 0xE1 SHL PUSH1 0x20 DUP5 ADD MSTORE PUSH1 0x1 DUP1 PUSH1 0xA0 SHL SUB DUP5 MLOAD AND PUSH1 0x24 DUP5 ADD MSTORE PUSH1 0x20 DUP5 ADD SWAP4 DUP5 MLOAD PUSH1 0x44 DUP6 ADD MSTORE PUSH1 0x40 DUP2 ADD MLOAD PUSH1 0x64 DUP6 ADD MSTORE PUSH1 0x1 DUP1 PUSH1 0xA0 SHL SUB PUSH1 0x60 DUP3 ADD MLOAD AND PUSH1 0x84 DUP6 ADD MSTORE PUSH2 0x4E97 PUSH2 0x4DBF PUSH2 0x4DB0 PUSH1 0x80 DUP5 ADD SWAP7 PUSH1 0x1 DUP1 PUSH1 0xA0 SHL SUB DUP9 MLOAD AND PUSH1 0xA4 DUP3 ADD MSTORE PUSH1 0x1 DUP1 PUSH1 0xA0 SHL SUB PUSH1 0xA0 DUP7 ADD MLOAD AND PUSH1 0xC4 DUP3 ADD MSTORE PUSH1 0xC4 DUP2 MSTORE PUSH2 0x9D9 PUSH1 0xE4 DUP3 PUSH2 0x3349 JUMP JUMPDEST PUSH1 0x20 DUP1 DUP3 MLOAD DUP4 ADD ADD SWAP2 ADD PUSH2 0x4CB4 JUMP JUMPDEST SWAP7 SWAP3 SWAP5 SWAP2 SWAP9 SWAP1 SWAP8 PUSH1 0x1 DUP1 PUSH1 0xA0 SHL SUB DUP4 MLOAD AND PUSH32 0x2027743D48A615D54941306FD36C7EC4F15155B7837F1D1FAC001F9FCA73970F PUSH1 0x1 DUP1 PUSH1 0xA0 SHL SUB PUSH1 0x60 DUP7 ADD MLOAD AND SWAP3 PUSH1 0x1 DUP1 PUSH1 0xA0 SHL SUB SWAP1 MLOAD AND SWAP4 MLOAD DUP13 PUSH2 0x4E78 DUP11 DUP14 DUP1 MLOAD SWAP1 PUSH1 0x20 DUP2 ADD MLOAD PUSH1 0x60 PUSH1 0x40 DUP4 ADD MLOAD SWAP3 ADD MLOAD SWAP3 DUP13 PUSH1 0xA0 PUSH1 0x1 DUP1 DUP3 SHL SUB SWAP2 ADD MLOAD AND SWAP5 PUSH1 0x40 MLOAD SWAP9 DUP10 SWAP9 DUP10 SWAP7 SWAP4 SWAP1 SWAP9 SWAP8 SWAP5 SWAP2 SWAP3 PUSH1 0xE0 SWAP7 SWAP4 PUSH2 0x100 DUP10 ADD SWAP11 DUP10 MSTORE PUSH1 0x20 DUP10 ADD MSTORE PUSH1 0x40 DUP9 ADD MSTORE PUSH1 0x60 DUP8 ADD MSTORE PUSH1 0x80 DUP7 ADD MSTORE PUSH1 0xA0 DUP6 ADD MSTORE PUSH1 0xC0 DUP5 ADD MSTORE PUSH1 0x1 DUP1 PUSH1 0xA0 SHL SUB AND SWAP2 ADD MSTORE JUMP JUMPDEST SUB SWAP1 LOG4 PUSH2 0x28B SLOAD PUSH2 0x490B SWAP1 DUP6 SWAP1 ADDRESS SWAP1 CALLER SWAP1 PUSH1 0x1 PUSH1 0x1 PUSH1 0xA0 SHL SUB AND PUSH2 0x42EA JUMP JUMPDEST PUSH1 0x1 PUSH2 0x12F SSTORE SWAP4 SWAP3 SWAP2 SWAP1 JUMP JUMPDEST SWAP1 PUSH2 0x32DE SWAP2 PUSH0 DUP1 PUSH2 0x4EB2 PUSH2 0x37BA JUMP JUMPDEST SWAP4 PUSH1 0x20 DUP2 MLOAD SWAP2 ADD DUP5 GAS DELEGATECALL PUSH2 0x3681 PUSH2 0x380E JUMP JUMPDEST SWAP1 PUSH0 SWAP3 PUSH2 0x4F78 PUSH2 0x4DB0 PUSH2 0x4E97 SWAP4 PUSH2 0x4ED9 PUSH2 0x3FE7 JUMP JUMPDEST POP PUSH2 0x4EE2 PUSH2 0x441F JUMP JUMPDEST PUSH2 0x4EEA PUSH2 0x5E5E JUMP JUMPDEST PUSH1 0x40 DUP1 MLOAD PUSH4 0x1740B6E3 PUSH1 0xE1 SHL PUSH1 0x20 DUP1 DUP4 ADD SWAP2 SWAP1 SWAP2 MSTORE DUP9 MLOAD PUSH1 0x1 PUSH1 0x1 PUSH1 0xA0 SHL SUB SWAP1 DUP2 AND PUSH1 0x24 DUP5 ADD MSTORE SWAP1 DUP10 ADD MLOAD DUP2 AND PUSH1 0x44 DUP4 ADD MSTORE SWAP2 DUP9 ADD MLOAD PUSH1 0x64 DUP3 ADD MSTORE PUSH1 0x60 DUP9 ADD MLOAD PUSH1 0x84 DUP3 ADD MSTORE PUSH1 0x80 DUP9 ADD MLOAD PUSH1 0xA4 DUP3 ADD MSTORE PUSH1 0xA0 DUP9 ADD MLOAD DUP3 AND PUSH1 0xC4 DUP3 ADD MSTORE PUSH1 0xC0 DUP9 ADD MLOAD DUP3 AND PUSH1 0xE4 DUP3 ADD MSTORE PUSH1 0xE0 DUP9 ADD MLOAD DUP3 AND PUSH2 0x104 DUP3 ADD MSTORE SWAP2 AND PUSH2 0x124 DUP1 DUP4 ADD SWAP2 SWAP1 SWAP2 MSTORE DUP2 MSTORE PUSH2 0x9D9 PUSH2 0x144 DUP3 PUSH2 0x3349 JUMP JUMPDEST SWAP5 SWAP2 SWAP7 SWAP1 SWAP6 PUSH1 0x1 DUP1 PUSH1 0xA0 SHL SUB DUP2 MLOAD AND PUSH1 0x1 DUP1 PUSH1 0xA0 SHL SUB PUSH1 0x20 DUP4 ADD MLOAD AND SWAP1 PUSH1 0x1 DUP1 PUSH1 0xA0 SHL SUB PUSH1 0xA0 DUP5 ADD MLOAD AND SWAP1 PUSH32 0xE2C83B7332B25DA226005E313FA95068D29D93D740B0BBD0B440615EF02F8CC4 PUSH2 0x100 PUSH1 0x1 DUP1 PUSH1 0xA0 SHL SUB PUSH1 0xC0 DUP8 ADD MLOAD AND SWAP5 DUP14 PUSH1 0x40 DUP9 ADD MLOAD SWAP1 DUP14 DUP1 MLOAD PUSH1 0x20 DUP3 ADD MLOAD SWAP1 PUSH1 0x60 PUSH1 0x40 DUP5 ADD MLOAD SWAP4 ADD MLOAD SWAP4 DUP13 PUSH1 0xE0 PUSH1 0x1 DUP1 PUSH1 0xA0 SHL SUB SWAP2 ADD MLOAD AND SWAP6 PUSH1 0x40 MLOAD SWAP8 DUP9 MSTORE PUSH1 0x20 DUP9 ADD MSTORE PUSH1 0x40 DUP8 ADD MSTORE PUSH1 0x60 DUP7 ADD MSTORE PUSH1 0x80 DUP6 ADD MSTORE PUSH1 0xA0 DUP5 ADD MSTORE PUSH1 0xC0 DUP4 ADD MSTORE PUSH1 0xE0 DUP3 ADD MSTORE LOG4 PUSH2 0x28B SLOAD PUSH2 0x5045 SWAP1 DUP6 SWAP1 ADDRESS SWAP1 CALLER SWAP1 PUSH1 0x1 PUSH1 0x1 PUSH1 0xA0 SHL SUB AND PUSH2 0x42EA JUMP JUMPDEST PUSH1 0xA0 DUP2 ADD MLOAD PUSH1 0xE0 SWAP1 SWAP2 ADD MLOAD PUSH1 0x1 PUSH1 0x1 PUSH1 0xA0 SHL SUB SWAP2 DUP3 AND SWAP2 AND PUSH2 0x492B PUSH2 0x5321 JUMP JUMPDEST SWAP1 SWAP3 SWAP2 PUSH1 0xC0 PUSH1 0xE0 SWAP2 PUSH2 0x100 DUP5 ADD SWAP6 PUSH1 0x1 DUP1 PUSH1 0xA0 SHL SUB SWAP3 DUP2 DUP5 DUP1 SWAP4 MLOAD AND DUP8 MSTORE PUSH1 0x20 DUP2 ADD MLOAD PUSH1 0x20 DUP9 ADD MSTORE PUSH1 0x40 DUP2 ADD MLOAD PUSH1 0x40 DUP9 ADD MSTORE PUSH1 0x60 DUP2 ADD MLOAD PUSH1 0x60 DUP9 ADD MSTORE DUP3 PUSH1 0x80 DUP3 ADD MLOAD AND PUSH1 0x80 DUP9 ADD MSTORE DUP3 PUSH1 0xA0 DUP3 ADD MLOAD AND PUSH1 0xA0 DUP9 ADD MSTORE ADD MLOAD AND PUSH1 0xC0 DUP6 ADD MSTORE AND SWAP2 ADD MSTORE JUMP JUMPDEST SWAP1 PUSH0 SWAP3 PUSH2 0x5110 PUSH2 0x4DB0 PUSH2 0x9CB PUSH2 0x9D9 PUSH2 0x4E97 SWAP6 PUSH2 0x50E2 PUSH2 0x3FE7 JUMP JUMPDEST POP PUSH2 0x50EB PUSH2 0x441F JUMP JUMPDEST PUSH2 0x50F3 PUSH2 0x5E5E JUMP JUMPDEST PUSH1 0x40 MLOAD PUSH4 0xAB6DD71D PUSH1 0xE0 SHL PUSH1 0x20 DUP3 ADD MSTORE SWAP3 DUP4 SWAP2 DUP10 PUSH1 0x24 DUP5 ADD PUSH2 0x5065 JUMP JUMPDEST SWAP5 SWAP2 SWAP7 SWAP1 SWAP6 DUP8 DUP7 PUSH1 0x1 DUP1 PUSH1 0xA0 SHL SUB DUP4 MLOAD AND PUSH1 0x80 DUP5 ADD SWAP1 PUSH1 0x1 DUP1 PUSH1 0xA0 SHL SUB DUP3 MLOAD AND PUSH1 0x1 DUP1 PUSH1 0xA0 SHL SUB PUSH1 0xA0 DUP8 ADD MLOAD AND SWAP2 PUSH32 0x7E56A428E0421AAC1DABE4207701C8A9CF0B76F6D7AB85F73D98A86294C992FC PUSH1 0x20 DUP9 ADD MLOAD SWAP7 DUP7 MLOAD SWAP8 PUSH2 0x519C PUSH1 0x20 DUP10 ADD SWAP10 DUP11 MLOAD SWAP12 PUSH1 0x40 DUP12 ADD SWAP11 PUSH1 0xC0 PUSH1 0x60 DUP14 MLOAD SWAP3 ADD MLOAD SWAP3 ADD SWAP14 DUP15 PUSH1 0x1 DUP1 PUSH1 0xA0 SHL SUB SWAP1 MLOAD AND SWAP4 PUSH1 0x40 MLOAD SWAP8 DUP9 SWAP8 DUP9 PUSH2 0x5775 JUMP JUMPDEST SUB SWAP1 LOG4 PUSH2 0x28B SLOAD PUSH2 0x51BB SWAP1 DUP9 SWAP1 ADDRESS SWAP1 CALLER SWAP1 PUSH1 0x1 PUSH1 0x1 PUSH1 0xA0 SHL SUB AND PUSH2 0x42EA JUMP JUMPDEST MLOAD SWAP3 MLOAD PUSH1 0x1 PUSH1 0x1 PUSH1 0xA0 SHL SUB SWAP4 DUP5 AND SWAP4 AND SWAP1 PUSH2 0x51D4 PUSH2 0x5321 JUMP JUMPDEST DUP9 MLOAD ISZERO ISZERO DUP6 EQ PUSH2 0x522D JUMPI PUSH2 0x423C SWAP3 POP PUSH2 0x5226 PUSH8 0xDE0B6B3A7640000 PUSH2 0x51FE PUSH2 0x16D SLOAD DUP13 MLOAD SWAP1 PUSH2 0x3ACE JUMP JUMPDEST DIV PUSH2 0x163 PUSH2 0x520D DUP3 DUP3 SLOAD PUSH2 0x39A9 JUMP JUMPDEST SWAP1 SSTORE PUSH2 0x422B PUSH1 0x1 DUP1 PUSH1 0xA0 SHL SUB PUSH2 0x178 SLOAD AND SWAP2 DUP13 MLOAD PUSH2 0x390F JUMP JUMPDEST MLOAD SWAP1 PUSH2 0x5378 JUMP JUMPDEST POP PUSH2 0x178 SLOAD SWAP2 MLOAD PUSH2 0x423C SWAP3 PUSH2 0x426D SWAP2 SWAP1 PUSH1 0x1 PUSH1 0x1 PUSH1 0xA0 SHL SUB AND DUP6 PUSH2 0x53C2 JUMP JUMPDEST SWAP1 PUSH0 SWAP3 PUSH2 0x5295 PUSH2 0x4DB0 PUSH2 0x9CB PUSH2 0x9D9 PUSH2 0x4E97 SWAP6 PUSH2 0x5267 PUSH2 0x3FE7 JUMP JUMPDEST POP PUSH2 0x5270 PUSH2 0x441F JUMP JUMPDEST PUSH2 0x5278 PUSH2 0x5E5E JUMP JUMPDEST PUSH1 0x40 MLOAD PUSH4 0x474C3ADD PUSH1 0xE1 SHL PUSH1 0x20 DUP3 ADD MSTORE SWAP3 DUP4 SWAP2 DUP10 PUSH1 0x24 DUP5 ADD PUSH2 0x5065 JUMP JUMPDEST SWAP5 SWAP2 SWAP7 SWAP1 SWAP6 DUP8 DUP7 PUSH1 0x1 DUP1 PUSH1 0xA0 SHL SUB DUP4 MLOAD AND PUSH1 0x80 DUP5 ADD SWAP1 PUSH1 0x1 DUP1 PUSH1 0xA0 SHL SUB DUP3 MLOAD AND PUSH1 0x1 DUP1 PUSH1 0xA0 SHL SUB PUSH1 0xA0 DUP8 ADD MLOAD AND SWAP2 PUSH32 0x21AB49EBA1E974AA50C50AEC84DE10487A4198E478B26AFB214FD269E60E3190 PUSH1 0x20 DUP9 ADD MLOAD SWAP7 DUP7 MLOAD SWAP8 PUSH2 0x519C PUSH1 0x20 DUP10 ADD SWAP10 DUP11 MLOAD SWAP12 PUSH1 0x40 DUP12 ADD SWAP11 PUSH1 0xC0 PUSH1 0x60 DUP14 MLOAD SWAP3 ADD MLOAD SWAP3 ADD SWAP14 DUP15 PUSH1 0x1 DUP1 PUSH1 0xA0 SHL SUB SWAP1 MLOAD AND SWAP4 PUSH1 0x40 MLOAD SWAP8 DUP9 SWAP8 DUP9 PUSH2 0x5775 JUMP JUMPDEST PUSH2 0x12F PUSH1 0x2 DUP2 SLOAD EQ PUSH2 0x5333 JUMPI PUSH1 0x2 SWAP1 SSTORE JUMP JUMPDEST PUSH1 0x40 MLOAD PUSH3 0x461BCD PUSH1 0xE5 SHL DUP2 MSTORE PUSH1 0x20 PUSH1 0x4 DUP3 ADD MSTORE PUSH1 0x1F PUSH1 0x24 DUP3 ADD MSTORE PUSH32 0x5265656E7472616E637947756172643A207265656E7472616E742063616C6C00 PUSH1 0x44 DUP3 ADD MSTORE PUSH1 0x64 SWAP1 REVERT JUMPDEST SWAP1 DUP1 PUSH2 0x5382 JUMPI POP POP JUMP JUMPDEST PUSH2 0x28B SLOAD PUSH1 0x40 MLOAD PUSH4 0xA9059CBB PUSH1 0xE0 SHL PUSH1 0x20 DUP3 ADD MSTORE PUSH1 0x1 PUSH1 0x1 PUSH1 0xA0 SHL SUB SWAP4 DUP5 AND PUSH1 0x24 DUP3 ADD MSTORE PUSH1 0x44 DUP1 DUP3 ADD SWAP4 SWAP1 SWAP4 MSTORE SWAP2 DUP3 MSTORE PUSH2 0x3565 SWAP3 AND PUSH2 0x432E PUSH1 0x64 DUP4 PUSH2 0x3349 JUMP JUMPDEST SWAP2 SWAP1 DUP2 PUSH2 0x53CE JUMPI POP POP POP JUMP JUMPDEST PUSH2 0x161 SLOAD PUSH2 0x3565 SWAP4 SWAP1 PUSH1 0x1 PUSH1 0x1 PUSH1 0xA0 SHL SUB AND PUSH2 0x42EA JUMP JUMPDEST PUSH2 0x5453 SWAP2 PUSH2 0x53F1 PUSH2 0x5E5E JUMP JUMPDEST PUSH2 0x53F9 PUSH2 0x5321 JUMP JUMPDEST PUSH2 0x5402 ADDRESS PUSH2 0x3930 JUMP JUMPDEST PUSH1 0x40 MLOAD PUSH4 0x6845C445 PUSH1 0xE0 SHL PUSH1 0x20 DUP3 ADD MSTORE PUSH1 0x1 PUSH1 0x1 PUSH1 0xA0 SHL SUB SWAP4 DUP5 AND PUSH1 0x24 DUP3 ADD MSTORE SWAP2 DUP4 AND PUSH1 0x44 DUP4 ADD MSTORE DUP5 DUP4 AND PUSH1 0x64 DUP4 ADD MSTORE PUSH1 0x84 DUP1 DUP4 ADD SWAP2 SWAP1 SWAP2 MSTORE DUP2 MSTORE SWAP1 PUSH2 0x5449 PUSH1 0xA4 DUP4 PUSH2 0x3349 JUMP JUMPDEST PUSH2 0x226 SLOAD AND PUSH2 0x4EA3 JUMP JUMPDEST PUSH1 0x20 DUP2 DUP1 MLOAD DUP2 ADD SUB SLT PUSH2 0x6D6 JUMPI PUSH1 0x20 PUSH2 0x546F SWAP2 ADD MLOAD DUP1 SWAP3 PUSH2 0x5378 JUMP JUMPDEST PUSH1 0x1 PUSH2 0x12F SSTORE SWAP1 JUMP JUMPDEST PUSH1 0xE0 DUP2 ADD SWAP3 SWAP2 PUSH1 0xC0 SWAP1 DUP2 SWAP1 PUSH1 0x1 PUSH1 0x1 PUSH1 0xA0 SHL SUB DUP1 PUSH2 0x5495 DUP4 PUSH2 0x328A JUMP JUMPDEST AND DUP6 MSTORE PUSH2 0x54A4 PUSH1 0x20 DUP4 ADD PUSH2 0x328A JUMP JUMPDEST AND PUSH1 0x20 DUP6 ADD MSTORE PUSH1 0x40 DUP2 ADD CALLDATALOAD PUSH1 0x40 DUP6 ADD MSTORE PUSH1 0x60 DUP2 ADD CALLDATALOAD PUSH1 0x60 DUP6 ADD MSTORE PUSH1 0x80 DUP2 ADD CALLDATALOAD PUSH1 0x80 DUP6 ADD MSTORE PUSH1 0xA0 DUP2 ADD CALLDATALOAD PUSH1 0xA0 DUP6 ADD MSTORE ADD CALLDATALOAD SWAP2 ADD MSTORE JUMP JUMPDEST PUSH2 0x17F SLOAD DUP1 NUMBER LT ISZERO PUSH2 0x4B02 JUMPI PUSH2 0x32DE SWAP1 NUMBER SWAP1 PUSH2 0x390F JUMP JUMPDEST SWAP1 SWAP2 PUSH2 0x54FA PUSH2 0x3FE7 JUMP JUMPDEST POP PUSH2 0x5503 PUSH2 0x441F JUMP JUMPDEST PUSH2 0x550B PUSH2 0x5E5E JUMP JUMPDEST PUSH2 0x5513 PUSH2 0x5D3E JUMP JUMPDEST PUSH2 0x5526 PUSH2 0x551E PUSH2 0x5C7C JUMP JUMPDEST DUP2 SWAP3 SWAP2 PUSH2 0x4441 JUMP JUMPDEST SWAP1 SWAP2 PUSH2 0x5535 DUP3 DUP5 DUP8 MLOAD SWAP4 PUSH2 0x575D JUMP JUMPDEST DUP2 DUP2 LT PUSH2 0x573F JUMPI POP POP PUSH8 0xDE0B6B3A7640000 SWAP2 PUSH2 0x4056 PUSH2 0x5557 SWAP3 DUP7 MLOAD SWAP3 PUSH2 0x4484 JUMP JUMPDEST DIV SWAP2 DUP3 ISZERO PUSH2 0x42BA JUMPI PUSH1 0x40 DUP2 ADD MLOAD PUSH1 0x80 DUP3 ADD MLOAD PUSH2 0x16F SLOAD PUSH2 0x5595 SWAP7 SWAP3 PUSH2 0x558A SWAP3 DUP8 SWAP2 PUSH1 0x1 PUSH1 0x1 PUSH1 0xA0 SHL SUB SWAP2 DUP3 AND SWAP2 AND PUSH2 0x44B3 JUMP JUMPDEST SWAP6 SWAP2 DUP3 SWAP8 SWAP2 SWAP8 PUSH2 0x390F JUMP JUMPDEST SWAP3 PUSH1 0x20 DUP2 ADD MLOAD DUP1 DUP6 LT PUSH2 0x5721 JUMPI POP DUP6 PUSH1 0x1 DUP1 PUSH1 0xA0 SHL SUB PUSH1 0x40 DUP4 ADD MLOAD AND PUSH1 0x1 DUP1 PUSH1 0xA0 SHL SUB PUSH1 0x60 DUP5 ADD MLOAD AND SWAP1 PUSH32 0xF47EA38B2DBACD4EA4E4C63F21B558D8ACD7CF60181E4CA6C2E09BF1EF6C91DF DUP8 DUP6 MLOAD PUSH2 0x5614 DUP7 MLOAD PUSH1 0x20 DUP9 ADD MLOAD PUSH1 0x60 PUSH1 0x40 DUP11 ADD MLOAD SWAP10 ADD SWAP9 DUP10 MLOAD SWAP2 PUSH1 0x1 DUP1 PUSH1 0xA0 SHL SUB PUSH1 0x80 DUP14 ADD MLOAD AND SWAP4 PUSH1 0x40 MLOAD SWAP8 DUP9 SWAP8 DUP9 PUSH2 0x5775 JUMP JUMPDEST SUB SWAP1 LOG3 DUP2 MLOAD SWAP4 PUSH2 0x166 PUSH2 0x5628 DUP7 DUP3 SLOAD PUSH2 0x390F JUMP JUMPDEST SWAP1 SSTORE PUSH2 0x5638 PUSH2 0x163 SWAP5 DUP6 SLOAD PUSH2 0x390F JUMP JUMPDEST DUP5 SSTORE PUSH2 0x165 SLOAD PUSH1 0x1 PUSH1 0x1 PUSH1 0xA0 SHL SUB AND SWAP5 DUP6 EXTCODESIZE ISZERO PUSH2 0x6D6 JUMPI PUSH1 0x40 MLOAD PUSH4 0x2770A7EB PUSH1 0xE2 SHL DUP2 MSTORE PUSH1 0x1 PUSH1 0x1 PUSH1 0xA0 SHL SUB SWAP3 SWAP1 SWAP3 AND PUSH1 0x4 DUP4 ADD MSTORE PUSH1 0x24 DUP3 ADD MSTORE SWAP4 PUSH0 SWAP1 DUP6 SWAP1 PUSH1 0x44 SWAP1 DUP3 SWAP1 DUP5 SWAP1 GAS CALL SWAP3 DUP4 ISZERO PUSH2 0x399E JUMPI PUSH2 0x4241 SWAP5 DUP7 SWAP5 PUSH2 0x5711 JUMPI JUMPDEST POP PUSH1 0x40 DUP4 ADD MLOAD PUSH1 0x60 DUP5 ADD MLOAD PUSH1 0x80 SWAP1 SWAP5 ADD MLOAD PUSH1 0x1 PUSH1 0x1 PUSH1 0xA0 SHL SUB SWAP5 DUP6 AND SWAP5 SWAP1 DUP2 AND SWAP4 SWAP2 AND SWAP1 PUSH2 0x56BE PUSH2 0x5321 JUMP JUMPDEST DUP10 MLOAD ISZERO PUSH2 0x56E7 JUMPI POP POP SWAP1 PUSH2 0x4231 PUSH2 0x423C SWAP3 PUSH8 0xDE0B6B3A7640000 PUSH2 0x4205 PUSH2 0x16D SLOAD DUP13 MLOAD SWAP1 PUSH2 0x3ACE JUMP JUMPDEST PUSH2 0x178 SLOAD PUSH1 0x20 DUP12 ADD MLOAD PUSH2 0x423C SWAP6 SWAP4 SWAP5 POP PUSH2 0x570A SWAP2 PUSH1 0x1 PUSH1 0x1 PUSH1 0xA0 SHL SUB AND DUP6 PUSH2 0x53C2 JUMP JUMPDEST MLOAD SWAP2 PUSH2 0x53C2 JUMP JUMPDEST PUSH0 PUSH2 0x571B SWAP2 PUSH2 0x3349 JUMP JUMPDEST PUSH0 PUSH2 0x5692 JUMP JUMPDEST PUSH1 0x44 SWAP1 DUP6 PUSH1 0x40 MLOAD SWAP2 PUSH4 0x54CDE313 PUSH1 0xE0 SHL DUP4 MSTORE PUSH1 0x4 DUP4 ADD MSTORE PUSH1 0x24 DUP3 ADD MSTORE REVERT JUMPDEST PUSH1 0x44 SWAP3 POP PUSH1 0x40 MLOAD SWAP2 PUSH4 0xA5DB715D PUSH1 0xE0 SHL DUP4 MSTORE PUSH1 0x4 DUP4 ADD MSTORE PUSH1 0x24 DUP3 ADD MSTORE REVERT JUMPDEST PUSH2 0x4AEC PUSH2 0x576B DUP5 DUP5 DUP5 PUSH2 0x4BC6 JUMP JUMPDEST PUSH2 0x248E DUP6 DUP6 PUSH2 0x4484 JUMP JUMPDEST SWAP6 SWAP3 PUSH1 0xC0 SWAP6 SWAP3 SWAP9 SWAP8 SWAP5 SWAP2 SWAP9 PUSH1 0xE0 DUP9 ADD SWAP10 DUP9 MSTORE PUSH1 0x20 DUP9 ADD MSTORE PUSH1 0x40 DUP8 ADD MSTORE PUSH1 0x60 DUP7 ADD MSTORE PUSH1 0x80 DUP6 ADD MSTORE PUSH1 0xA0 DUP5 ADD MSTORE PUSH1 0x1 DUP1 PUSH1 0xA0 SHL SUB AND SWAP2 ADD MSTORE JUMP JUMPDEST SWAP1 SWAP2 PUSH2 0x5855 SWAP3 PUSH2 0x57BB PUSH2 0x3FE7 JUMP JUMPDEST POP PUSH2 0x57C4 PUSH2 0x441F JUMP JUMPDEST PUSH2 0x57CC PUSH2 0x5E5E JUMP JUMPDEST PUSH2 0x57D4 PUSH2 0x3DB1 JUMP JUMPDEST DUP4 MLOAD PUSH2 0x5812 SWAP1 PUSH2 0x57EC SWAP1 PUSH1 0x1 PUSH1 0x1 PUSH1 0xA0 SHL SUB AND PUSH2 0x3CA4 JUMP JUMPDEST SWAP2 PUSH2 0x5806 PUSH2 0x57FA DUP5 DUP4 PUSH2 0x39B6 JUMP JUMPDEST MLOAD SWAP2 PUSH2 0x4044 DUP4 DUP7 PUSH2 0x4A8A JUMP JUMPDEST POP POP PUSH1 0x20 DUP7 ADD MLOAD PUSH2 0x5E7F JUMP JUMPDEST PUSH1 0x60 DUP6 ADD MLOAD PUSH1 0xA0 DUP7 ADD MLOAD DUP7 MLOAD PUSH1 0x1 PUSH1 0x1 PUSH1 0xA0 SHL SUB SWAP1 DUP2 AND PUSH0 SWAP1 DUP2 MSTORE PUSH2 0x177 PUSH1 0x20 MSTORE PUSH1 0x40 SWAP1 KECCAK256 SLOAD PUSH2 0x584A SWAP4 SWAP1 SWAP3 DUP6 SWAP3 SWAP1 DUP2 AND SWAP2 AND PUSH2 0x44B3 JUMP JUMPDEST SWAP7 SWAP2 DUP4 SWAP9 SWAP2 SWAP9 PUSH2 0x390F JUMP JUMPDEST SWAP4 DUP3 ISZERO PUSH2 0x42BA JUMPI PUSH1 0x40 DUP3 ADD MLOAD DUP1 DUP7 LT PUSH2 0x5A1D JUMPI POP PUSH1 0x1 DUP1 PUSH1 0xA0 SHL SUB DUP3 MLOAD AND PUSH1 0x1 DUP1 PUSH1 0xA0 SHL SUB PUSH1 0x60 DUP5 ADD MLOAD AND PUSH1 0x1 DUP1 PUSH1 0xA0 SHL SUB PUSH1 0x80 DUP6 ADD MLOAD AND SWAP2 PUSH32 0x9A7C695D191E65E20D74A5FD655A98FA9323ED1F504360E03DEFC63E668B4728 DUP9 PUSH1 0x20 DUP8 ADD MLOAD PUSH2 0x58E7 DUP14 DUP1 MLOAD SWAP1 PUSH1 0x20 DUP2 ADD MLOAD SWAP1 PUSH1 0x60 PUSH1 0x40 DUP3 ADD MLOAD SWAP2 ADD MLOAD SWAP2 DUP13 PUSH1 0xA0 PUSH1 0x1 DUP1 DUP3 SHL SUB SWAP2 ADD MLOAD AND SWAP4 PUSH1 0x40 MLOAD SWAP8 DUP9 SWAP8 DUP9 PUSH2 0x5775 JUMP JUMPDEST SUB SWAP1 LOG4 PUSH2 0x58F5 PUSH1 0x1 DUP7 PUSH2 0x4BFD JUMP JUMPDEST PUSH2 0x5930 PUSH1 0x20 DUP4 ADD MLOAD SWAP5 PUSH2 0x590A DUP2 PUSH2 0x169 PUSH2 0x3330 JUMP JUMPDEST POP PUSH2 0x5916 DUP8 DUP3 SLOAD PUSH2 0x390F JUMP JUMPDEST SWAP1 SSTORE PUSH2 0x5926 PUSH2 0x163 SWAP6 DUP7 SLOAD PUSH2 0x390F JUMP JUMPDEST DUP6 SSTORE PUSH2 0x167 PUSH2 0x3261 JUMP JUMPDEST SWAP1 SLOAD PUSH1 0x3 SWAP2 SWAP1 SWAP2 SHL SHR PUSH1 0x1 PUSH1 0x1 PUSH1 0xA0 SHL SUB AND SWAP4 DUP5 EXTCODESIZE ISZERO PUSH2 0x6D6 JUMPI PUSH1 0x40 MLOAD PUSH4 0x2770A7EB PUSH1 0xE2 SHL DUP2 MSTORE PUSH1 0x1 PUSH1 0x1 PUSH1 0xA0 SHL SUB SWAP3 SWAP1 SWAP3 AND PUSH1 0x4 DUP4 ADD MSTORE PUSH1 0x24 DUP3 ADD MSTORE SWAP3 PUSH0 SWAP1 DUP5 SWAP1 PUSH1 0x44 SWAP1 DUP3 SWAP1 DUP5 SWAP1 GAS CALL SWAP2 DUP3 ISZERO PUSH2 0x399E JUMPI PUSH2 0x4241 SWAP4 DUP6 SWAP4 PUSH2 0x5A0D JUMPI JUMPDEST POP PUSH1 0x60 DUP3 ADD MLOAD PUSH1 0x80 DUP4 ADD MLOAD PUSH1 0xA0 SWAP1 SWAP4 ADD MLOAD PUSH1 0x1 PUSH1 0x1 PUSH1 0xA0 SHL SUB SWAP4 DUP5 AND SWAP4 SWAP1 DUP2 AND SWAP2 AND PUSH2 0x59B7 PUSH2 0x5321 JUMP JUMPDEST DUP9 MLOAD ISZERO PUSH2 0x59DE JUMPI POP PUSH2 0x4231 PUSH2 0x423C SWAP3 PUSH8 0xDE0B6B3A7640000 PUSH2 0x4205 PUSH2 0x16D SLOAD DUP13 MLOAD SWAP1 PUSH2 0x3ACE JUMP JUMPDEST PUSH2 0x178 SLOAD PUSH1 0x20 DUP11 ADD MLOAD PUSH2 0x423C SWAP5 POP SWAP2 SWAP3 SWAP2 PUSH2 0x5A02 SWAP2 PUSH1 0x1 PUSH1 0x1 PUSH1 0xA0 SHL SUB AND DUP5 PUSH2 0x53C2 JUMP JUMPDEST PUSH1 0x60 DUP10 ADD MLOAD SWAP2 PUSH2 0x53C2 JUMP JUMPDEST PUSH0 PUSH2 0x5A17 SWAP2 PUSH2 0x3349 JUMP JUMPDEST PUSH0 PUSH2 0x598D JUMP JUMPDEST PUSH1 0x44 SWAP1 DUP7 PUSH1 0x40 MLOAD SWAP2 PUSH4 0x54CDE313 PUSH1 0xE0 SHL DUP4 MSTORE PUSH1 0x4 DUP4 ADD MSTORE PUSH1 0x24 DUP3 ADD MSTORE REVERT JUMPDEST SWAP1 SWAP2 PUSH2 0x5A83 PUSH2 0x4DB0 PUSH2 0x9CB PUSH2 0x9D9 PUSH2 0x4E97 SWAP7 PUSH2 0x5A55 PUSH2 0x3FE7 JUMP JUMPDEST POP PUSH2 0x5A5E PUSH2 0x441F JUMP JUMPDEST PUSH2 0x5A66 PUSH2 0x5E5E JUMP JUMPDEST PUSH1 0x40 MLOAD PUSH4 0x178AAD2B PUSH1 0xE1 SHL PUSH1 0x20 DUP3 ADD MSTORE SWAP3 DUP4 SWAP2 DUP9 PUSH1 0x24 DUP5 ADD PUSH2 0x5065 JUMP JUMPDEST SWAP4 SWAP3 DUP1 SWAP3 SWAP7 SWAP2 SWAP6 DUP6 PUSH1 0x1 DUP1 PUSH1 0xA0 SHL SUB DUP3 MLOAD AND PUSH1 0x1 DUP1 PUSH1 0xA0 SHL SUB PUSH1 0x80 DUP5 ADD MLOAD AND PUSH1 0x1 DUP1 PUSH1 0xA0 SHL SUB PUSH1 0xA0 DUP6 ADD MLOAD AND SWAP2 PUSH32 0xA1062C9E887113838EDFBC65F23A4FD5CFEB240416670CDF3FA10BA3C85F251F DUP13 PUSH1 0x20 DUP8 ADD MLOAD PUSH2 0x5B44 DUP10 DUP9 MLOAD PUSH1 0x20 DUP11 ADD SWAP10 DUP11 MLOAD PUSH1 0x60 PUSH1 0x40 DUP4 ADD MLOAD SWAP3 ADD MLOAD SWAP3 DUP14 PUSH1 0xC0 PUSH1 0x1 DUP1 PUSH1 0xA0 SHL SUB SWAP2 ADD MLOAD AND SWAP5 PUSH1 0x40 MLOAD SWAP9 DUP10 SWAP9 DUP10 SWAP7 SWAP4 SWAP1 SWAP9 SWAP8 SWAP5 SWAP2 SWAP3 PUSH1 0xE0 SWAP7 SWAP4 PUSH2 0x100 DUP10 ADD SWAP11 DUP10 MSTORE PUSH1 0x20 DUP10 ADD MSTORE PUSH1 0x40 DUP9 ADD MSTORE PUSH1 0x60 DUP8 ADD MSTORE PUSH1 0x80 DUP7 ADD MSTORE PUSH1 0xA0 DUP6 ADD MSTORE PUSH1 0xC0 DUP5 ADD MSTORE PUSH1 0x1 DUP1 PUSH1 0xA0 SHL SUB AND SWAP2 ADD MSTORE JUMP JUMPDEST SUB SWAP1 LOG4 PUSH1 0x80 DUP3 ADD MLOAD PUSH1 0xA0 DUP4 ADD MLOAD PUSH1 0xC0 SWAP1 SWAP4 ADD MLOAD PUSH1 0x1 PUSH1 0x1 PUSH1 0xA0 SHL SUB SWAP4 DUP5 AND SWAP4 SWAP1 DUP2 AND SWAP3 SWAP2 AND SWAP1 PUSH2 0x5B72 PUSH2 0x5321 JUMP JUMPDEST DUP9 MLOAD ISZERO PUSH2 0x5B9A JUMPI POP POP PUSH2 0x423C SWAP1 PUSH2 0x4231 PUSH8 0xDE0B6B3A7640000 PUSH2 0x4954 PUSH2 0x16D SLOAD DUP12 MLOAD SWAP1 PUSH2 0x3ACE JUMP JUMPDEST PUSH2 0x178 SLOAD SWAP1 MLOAD PUSH2 0x423C SWAP4 SWAP2 PUSH2 0x5A02 SWAP2 SWAP1 PUSH1 0x1 PUSH1 0x1 PUSH1 0xA0 SHL SUB AND DUP5 PUSH2 0x53C2 JUMP JUMPDEST SWAP1 PUSH1 0x40 MLOAD PUSH2 0x5BC8 PUSH1 0x40 DUP3 PUSH2 0x3349 JUMP JUMPDEST PUSH1 0x20 PUSH1 0x1 DUP3 SWAP5 DUP1 SLOAD DUP5 MSTORE ADD SLOAD SWAP2 ADD MSTORE JUMP JUMPDEST PUSH2 0x5BE5 DUP2 PUSH2 0x17A PUSH2 0x3261 JUMP JUMPDEST SWAP1 SLOAD SWAP1 PUSH1 0x3 SHL SHR SWAP2 PUSH2 0x1BE SWAP2 PUSH2 0x5BFB DUP2 DUP5 PUSH2 0x3330 JUMP JUMPDEST POP SLOAD SWAP3 PUSH2 0x1BF SLOAD NUMBER LT ISZERO PUSH2 0x5C21 JUMPI JUMPDEST POP POP DUP1 DUP3 LT ISZERO PUSH2 0x3E82 JUMPI PUSH2 0x3C27 SWAP1 PUSH2 0x32DE SWAP4 PUSH2 0x3ACE JUMP JUMPDEST DUP3 SWAP4 POP PUSH2 0x5C35 PUSH2 0x5C40 SWAP4 SWAP3 PUSH2 0x5C3B SWAP3 PUSH2 0x3330 JUMP JUMPDEST POP PUSH2 0x5BB9 JUMP JUMPDEST PUSH2 0x5C48 JUMP JUMPDEST SWAP1 PUSH0 DUP1 PUSH2 0x5C0A JUMP JUMPDEST PUSH1 0x20 DUP2 MLOAD SWAP2 ADD DUP1 MLOAD SWAP3 PUSH8 0xDE0B6B3A7640000 SWAP4 DUP5 SUB SWAP1 DUP5 DUP3 GT PUSH2 0x391C JUMPI PUSH2 0x5C75 PUSH2 0xCBF SWAP3 PUSH2 0x39FA SWAP6 PUSH2 0x3ACE JUMP JUMPDEST SWAP3 MLOAD PUSH2 0x3ACE JUMP JUMPDEST PUSH0 DUP1 PUSH2 0x169 SWAP2 DUP3 SLOAD SWAP3 PUSH2 0x5C8E DUP5 PUSH2 0x3BA4 JUMP JUMPDEST SWAP4 DUP3 SWAP2 JUMPDEST DUP2 DUP4 LT PUSH2 0x5CBB JUMPI POP POP POP DUP2 ISZERO PUSH2 0x5CAF JUMPI SWAP1 PUSH2 0x5CAC SWAP2 PUSH2 0x3AE1 JUMP JUMPDEST SWAP2 JUMP JUMPDEST POP POP PUSH2 0x17B SLOAD PUSH1 0x1 SHL SWAP2 JUMP JUMPDEST SWAP1 SWAP2 SWAP4 SWAP3 PUSH2 0x5CC8 DUP6 PUSH2 0x3CDE JUMP JUMPDEST SWAP1 DUP2 PUSH2 0x5CD4 DUP8 DUP10 PUSH2 0x39B6 JUMP JUMPDEST MSTORE PUSH2 0x5CED PUSH2 0x5CE2 DUP4 DUP9 PUSH2 0x3A6A JUMP JUMPDEST POP PUSH2 0x3A33 DUP9 DUP7 PUSH2 0x3330 JUMP JUMPDEST PUSH8 0xDE0B6B3A7640000 SWAP1 DUP2 DUP2 MUL SWAP2 DUP2 DUP4 DIV EQ SWAP1 ISZERO OR ISZERO PUSH2 0x391C JUMPI PUSH2 0x5D2F PUSH2 0x5D35 SWAP3 PUSH2 0xCBF DUP6 PUSH2 0x5D21 PUSH1 0x1 SWAP8 PUSH2 0x5D2A SWAP7 PUSH2 0x5E7F JUMP JUMPDEST SWAP5 DUP6 SWAP2 DUP13 PUSH2 0x5BD9 JUMP JUMPDEST PUSH2 0x3ACE JUMP JUMPDEST SWAP6 PUSH2 0x39A9 JUMP JUMPDEST SWAP5 ADD SWAP2 SWAP1 PUSH2 0x5C92 JUMP JUMPDEST PUSH2 0x1BF DUP1 SLOAD NUMBER LT ISZERO PUSH2 0x5D4D JUMPI POP JUMP JUMPDEST PUSH2 0x169 SLOAD PUSH0 JUMPDEST DUP2 DUP2 LT PUSH2 0x5D66 JUMPI POP POP PUSH2 0x1C0 SLOAD NUMBER ADD SWAP1 SSTORE JUMP JUMPDEST DUP1 DUP1 PUSH32 0x19156E9379C7BBBCE8F646CE5EE30BA860B8F954717405F3D5859A6C1A21AE60 PUSH1 0x1 SWAP4 PUSH2 0x1BE PUSH2 0x5D9C PUSH2 0x5C35 DUP4 DUP4 PUSH2 0x3330 JUMP JUMPDEST SWAP1 PUSH2 0x5DBA PUSH2 0x5DB2 PUSH2 0x5DAC DUP6 PUSH2 0x3CDE JUMP JUMPDEST DUP5 PUSH2 0x5C48 JUMP JUMPDEST SWAP4 DUP5 SWAP3 PUSH2 0x3330 JUMP JUMPDEST POP SSTORE MLOAD PUSH1 0x40 SWAP2 DUP3 MLOAD SWAP2 DUP3 MSTORE PUSH1 0x20 DUP3 ADD MSTORE LOG2 ADD PUSH2 0x5D53 JUMP JUMPDEST PUSH1 0x97 SLOAD PUSH1 0x40 MLOAD PUSH4 0xD994D6D5 PUSH1 0xE0 SHL DUP2 MSTORE CALLER PUSH1 0x4 DUP3 ADD MSTORE SWAP1 PUSH1 0x20 SWAP1 DUP3 SWAP1 PUSH1 0x24 SWAP1 DUP3 SWAP1 PUSH1 0x1 PUSH1 0x1 PUSH1 0xA0 SHL SUB AND GAS STATICCALL SWAP1 DUP2 ISZERO PUSH2 0x399E JUMPI PUSH0 SWAP2 PUSH2 0x5E25 JUMPI JUMPDEST POP ISZERO PUSH2 0x5E13 JUMPI JUMP JUMPDEST PUSH1 0x40 MLOAD PUSH4 0x1DD1B1B5 PUSH1 0xE2 SHL DUP2 MSTORE PUSH1 0x4 SWAP1 REVERT JUMPDEST SWAP1 PUSH1 0x20 DUP3 RETURNDATASIZE DUP3 GT PUSH2 0x5E56 JUMPI JUMPDEST DUP2 PUSH2 0x5E3E PUSH1 0x20 SWAP4 DUP4 PUSH2 0x3349 JUMP JUMPDEST DUP2 ADD SUB SLT PUSH2 0x6DA JUMPI POP PUSH2 0x5E50 SWAP1 PUSH2 0x3D25 JUMP JUMPDEST PUSH0 PUSH2 0x5E0B JUMP JUMPDEST RETURNDATASIZE SWAP2 POP PUSH2 0x5E31 JUMP JUMPDEST PUSH1 0xFF PUSH1 0xCA SLOAD PUSH1 0x8 SHR AND PUSH2 0x5E6D JUMPI JUMP JUMPDEST PUSH1 0x40 MLOAD PUSH4 0x783BB6C9 PUSH1 0xE1 SHL DUP2 MSTORE PUSH1 0x4 SWAP1 REVERT JUMPDEST SWAP1 PUSH8 0xDE0B6B3A7640000 SWAP2 DUP3 DUP2 MUL SWAP3 DUP2 DUP5 DIV EQ SWAP1 ISZERO OR ISZERO PUSH2 0x391C JUMPI PUSH2 0x32DE SWAP2 PUSH2 0x3AE1 JUMP JUMPDEST PUSH8 0xDE0B6B3A7640000 LT PUSH2 0x5EB3 JUMPI JUMP JUMPDEST PUSH1 0x40 MLOAD PUSH4 0x2A9FFAB7 PUSH1 0xE2 SHL DUP2 MSTORE PUSH1 0x4 SWAP1 REVERT INVALID LOG2 PUSH5 0x6970667358 0x22 SLT KECCAK256 PUSH12 0x6208C83EC2A2F98426417371 MOD 0xBD PUSH18 0x6804C6A9D9094BBFF5343175156B8B176473 PUSH16 0x6C6343000814003360A0806040523462 STOP STOP 0xDF JUMPI ADDRESS PUSH1 0x80 MSTORE PUSH0 SLOAD SWAP1 PUSH1 0xFF DUP3 PUSH1 0x8 SHR AND PUSH3 0x8D JUMPI POP PUSH1 0xFF DUP1 DUP3 AND SUB PUSH3 0x52 JUMPI JUMPDEST PUSH1 0x40 MLOAD PUSH2 0x3EA9 SWAP1 DUP2 PUSH3 0xE4 DUP3 CODECOPY PUSH1 0x80 MLOAD DUP2 DUP2 DUP2 PUSH2 0x1A8E ADD MSTORE DUP2 DUP2 PUSH2 0x1BFF ADD MSTORE PUSH2 0x1E3F ADD MSTORE RETURN JUMPDEST PUSH1 0xFF SWAP1 DUP2 NOT AND OR PUSH0 SSTORE PUSH32 0x7F26B83FF96E1F2B6A682F133852F6798A09C465DA95921460CEFB3847402498 PUSH1 0x20 PUSH1 0x40 MLOAD PUSH1 0xFF DUP2 MSTORE LOG1 PUSH0 PUSH3 0x2B JUMP JUMPDEST PUSH3 0x461BCD PUSH1 0xE5 SHL DUP2 MSTORE PUSH1 0x20 PUSH1 0x4 DUP3 ADD MSTORE PUSH1 0x27 PUSH1 0x24 DUP3 ADD MSTORE PUSH32 0x496E697469616C697A61626C653A20636F6E747261637420697320696E697469 PUSH1 0x44 DUP3 ADD MSTORE PUSH7 0x616C697A696E67 PUSH1 0xC8 SHL PUSH1 0x64 DUP3 ADD MSTORE PUSH1 0x84 SWAP1 REVERT JUMPDEST PUSH0 DUP1 REVERT INVALID PUSH1 0x80 PUSH1 0x40 MSTORE PUSH1 0x4 CALLDATASIZE LT ISZERO PUSH2 0x11 JUMPI PUSH0 DUP1 REVERT JUMPDEST PUSH0 DUP1 CALLDATALOAD PUSH1 0xE0 SHR DUP1 PUSH4 0x1DDE6EF EQ PUSH2 0x276B JUMPI DUP1 PUSH4 0x1F1B684 EQ PUSH2 0x2723 JUMPI DUP1 PUSH4 0x73763B9 EQ PUSH2 0x26FF JUMPI DUP1 PUSH4 0xC340A24 EQ PUSH2 0x26D6 JUMPI DUP1 PUSH4 0xC36D897 EQ PUSH2 0x26B7 JUMPI DUP1 PUSH4 0xD6AC463 EQ PUSH2 0x2671 JUMPI DUP1 PUSH4 0xDB49656 EQ PUSH2 0x2652 JUMPI DUP1 PUSH4 0xE0A8FD2 EQ PUSH2 0x262E JUMPI DUP1 PUSH4 0xF1E5E2B EQ PUSH2 0x25E8 JUMPI DUP1 PUSH4 0x1867E2F5 EQ PUSH2 0x25C9 JUMPI DUP1 PUSH4 0x1FE6A7AD EQ PUSH2 0x258F JUMPI DUP1 PUSH4 0x2069F753 EQ PUSH2 0x256B JUMPI DUP1 PUSH4 0x23B98CDE EQ PUSH2 0x2544 JUMPI DUP1 PUSH4 0x24FFABA3 EQ PUSH2 0x2506 JUMPI DUP1 PUSH4 0x27EAB2A1 EQ PUSH2 0x24C0 JUMPI DUP1 PUSH4 0x2A20D57D EQ PUSH2 0x24A1 JUMPI DUP1 PUSH4 0x2C43BD3B EQ PUSH2 0x247D JUMPI DUP1 PUSH4 0x2D88AF4A EQ PUSH2 0x2426 JUMPI DUP1 PUSH4 0x2DED50F0 EQ PUSH2 0x2407 JUMPI DUP1 PUSH4 0x2E816DC6 EQ PUSH2 0x21A5 JUMPI DUP1 PUSH4 0x2F155A56 EQ PUSH2 0x1FB6 JUMPI DUP1 PUSH4 0x333431FD EQ PUSH2 0x1F97 JUMPI DUP1 PUSH4 0x33421C38 EQ PUSH2 0x1EA6 JUMPI DUP1 PUSH4 0x3659CFE6 EQ PUSH2 0x1E0D JUMPI DUP1 PUSH4 0x3915EDCB EQ PUSH2 0x1DDE JUMPI DUP1 PUSH4 0x3BC4AC0A EQ PUSH2 0x1DBA JUMPI DUP1 PUSH4 0x3F4BA83A EQ PUSH2 0x1D3F JUMPI DUP1 PUSH4 0x407F0E34 EQ PUSH2 0x1D20 JUMPI DUP1 PUSH4 0x4B746001 EQ PUSH2 0x1CD3 JUMPI DUP1 PUSH4 0x4D977E78 EQ PUSH2 0x1CB4 JUMPI DUP1 PUSH4 0x4E1F907A EQ PUSH2 0x1C8A JUMPI DUP1 PUSH4 0x4F0F27EE EQ PUSH2 0x1C6B JUMPI DUP1 PUSH4 0x4F1EF286 EQ PUSH2 0x1B77 JUMPI DUP1 PUSH4 0x5210570C EQ PUSH2 0x1B51 JUMPI DUP1 PUSH4 0x52D1902D EQ PUSH2 0x1A7B JUMPI DUP1 PUSH4 0x543AEB48 EQ PUSH2 0x1A57 JUMPI DUP1 PUSH4 0x5860EE63 EQ PUSH2 0x1A38 JUMPI DUP1 PUSH4 0x5C975ABB EQ PUSH2 0x1A12 JUMPI DUP1 PUSH4 0x60009E0B EQ PUSH2 0x19E8 JUMPI DUP1 PUSH4 0x647846A5 EQ PUSH2 0x19BE JUMPI DUP1 PUSH4 0x64EC230A EQ PUSH2 0x199A JUMPI DUP1 PUSH4 0x662013F4 EQ PUSH2 0x1976 JUMPI DUP1 PUSH4 0x68274357 EQ PUSH2 0x194D JUMPI DUP1 PUSH4 0x6845C445 EQ PUSH2 0x174F JUMPI DUP1 PUSH4 0x6B5488DF EQ PUSH2 0x1730 JUMPI DUP1 PUSH4 0x6F30471F EQ PUSH2 0x1711 JUMPI DUP1 PUSH4 0x70713468 EQ PUSH2 0x16ED JUMPI DUP1 PUSH4 0x735D3960 EQ PUSH2 0x16A7 JUMPI DUP1 PUSH4 0x73E28AF9 EQ PUSH2 0x1683 JUMPI DUP1 PUSH4 0x7554FFFD EQ PUSH2 0x1664 JUMPI DUP1 PUSH4 0x76228055 EQ PUSH2 0x1645 JUMPI DUP1 PUSH4 0x7750BA0C EQ PUSH2 0x1621 JUMPI DUP1 PUSH4 0x79F9A91C EQ PUSH2 0x1602 JUMPI DUP1 PUSH4 0x7A193C31 EQ PUSH2 0x15E3 JUMPI DUP1 PUSH4 0x7A4FF1D9 EQ PUSH2 0x15BF JUMPI DUP1 PUSH4 0x7A727FE8 EQ PUSH2 0x15A0 JUMPI DUP1 PUSH4 0x7AF5758C EQ PUSH2 0x157C JUMPI DUP1 PUSH4 0x7CBA2383 EQ PUSH2 0x1558 JUMPI DUP1 PUSH4 0x7D8E0314 EQ PUSH2 0x151B JUMPI DUP1 PUSH4 0x7F01C715 EQ PUSH2 0x14F1 JUMPI DUP1 PUSH4 0x7F13B998 EQ PUSH2 0x14BD JUMPI DUP1 PUSH4 0x7F4A4FE0 EQ PUSH2 0x149E JUMPI DUP1 PUSH4 0x8456CB59 EQ PUSH2 0x1407 JUMPI DUP1 PUSH4 0x85BF9593 EQ PUSH2 0x13C1 JUMPI DUP1 PUSH4 0x8CFA4241 EQ PUSH2 0x13A2 JUMPI DUP1 PUSH4 0x8E2BDB86 EQ PUSH2 0x1378 JUMPI DUP1 PUSH4 0x8E9875BA EQ PUSH2 0x11E0 JUMPI DUP1 PUSH4 0x9853C35A EQ PUSH2 0x11B6 JUMPI DUP1 PUSH4 0x9AD6659D EQ PUSH2 0x117C JUMPI DUP1 PUSH4 0x9CABFC00 EQ PUSH2 0x112F JUMPI DUP1 PUSH4 0x9FD0506D EQ PUSH2 0x1102 JUMPI DUP1 PUSH4 0xA8E9AC30 EQ PUSH2 0x10E0 JUMPI DUP1 PUSH4 0xAB6DD71D EQ PUSH2 0xF6D JUMPI DUP1 PUSH4 0xAEA038DC EQ PUSH2 0xF4E JUMPI DUP1 PUSH4 0xB5E9EA8C EQ PUSH2 0xF24 JUMPI DUP1 PUSH4 0xB9FA6413 EQ PUSH2 0xF05 JUMPI DUP1 PUSH4 0xBB4872DE EQ PUSH2 0xEE2 JUMPI DUP1 PUSH4 0xBECACA6B EQ PUSH2 0xEBE JUMPI DUP1 PUSH4 0xC00F538D EQ PUSH2 0xE9A JUMPI DUP1 PUSH4 0xC84353C9 EQ PUSH2 0xE76 JUMPI DUP1 PUSH4 0xCF351C1D EQ PUSH2 0xE30 JUMPI DUP1 PUSH4 0xD1A0FAA0 EQ PUSH2 0xE14 JUMPI DUP1 PUSH4 0xD6AF11DA EQ PUSH2 0xDD2 JUMPI DUP1 PUSH4 0xD87AAB6F EQ PUSH2 0xDB3 JUMPI DUP1 PUSH4 0xD8DB6F5A EQ PUSH2 0xD6D JUMPI DUP1 PUSH4 0xDB796072 EQ PUSH2 0xAF4 JUMPI DUP1 PUSH4 0xDDB6D190 EQ PUSH2 0xAB6 JUMPI DUP1 PUSH4 0xE44BB512 EQ PUSH2 0x86F JUMPI DUP1 PUSH4 0xE4C0AAF4 EQ PUSH2 0x826 JUMPI DUP1 PUSH4 0xE6B1627C EQ PUSH2 0x7E3 JUMPI DUP1 PUSH4 0xE7C25978 EQ PUSH2 0x7BF JUMPI DUP1 PUSH4 0xEE1F438F EQ PUSH2 0x795 JUMPI DUP1 PUSH4 0xF13F4054 EQ PUSH2 0x76B JUMPI DUP1 PUSH4 0xF26114AA EQ PUSH2 0x580 JUMPI DUP1 PUSH4 0xF2808778 EQ PUSH2 0x55C JUMPI DUP1 PUSH4 0xF30B5614 EQ PUSH2 0x53D JUMPI DUP1 PUSH4 0xF375CFBA EQ PUSH2 0x51E JUMPI DUP1 PUSH4 0xFA6E83BD EQ PUSH2 0x4FF JUMPI DUP1 PUSH4 0xFADDA424 EQ PUSH2 0x487 JUMPI PUSH4 0xFDA70F8B EQ PUSH2 0x466 JUMPI PUSH0 DUP1 REVERT JUMPDEST CALLVALUE PUSH2 0x484 JUMPI DUP1 PUSH1 0x3 NOT CALLDATASIZE ADD SLT PUSH2 0x484 JUMPI PUSH1 0x20 PUSH2 0x16E SLOAD PUSH1 0x40 MLOAD SWAP1 DUP2 MSTORE RETURN JUMPDEST DUP1 REVERT JUMPDEST POP CALLVALUE PUSH2 0x484 JUMPI PUSH1 0x20 CALLDATASIZE PUSH1 0x3 NOT ADD SLT PUSH2 0x484 JUMPI PUSH1 0x1 PUSH1 0x1 PUSH1 0xA0 SHL SUB PUSH1 0x4 CALLDATALOAD DUP2 DUP2 AND DUP2 SUB PUSH2 0x4FB JUMPI PUSH2 0x4C3 PUSH2 0x4BB PUSH1 0x1 SWAP3 PUSH2 0x307A JUMP JUMPDEST PUSH2 0x169 PUSH2 0x287A JUMP JUMPDEST POP ADD SLOAD AND PUSH2 0x4D0 DUP2 PUSH2 0x30F8 JUMP JUMPDEST SWAP2 SWAP1 SWAP2 ISZERO PUSH2 0x4E3 JUMPI PUSH1 0x20 DUP3 PUSH1 0x40 MLOAD SWAP1 DUP2 MSTORE RETURN JUMPDEST PUSH1 0x24 SWAP1 PUSH1 0x40 MLOAD SWAP1 PUSH4 0x7F6E4DB9 PUSH1 0xE0 SHL DUP3 MSTORE PUSH1 0x4 DUP3 ADD MSTORE REVERT JUMPDEST PUSH0 DUP1 REVERT JUMPDEST POP CALLVALUE PUSH2 0x484 JUMPI DUP1 PUSH1 0x3 NOT CALLDATASIZE ADD SLT PUSH2 0x484 JUMPI PUSH1 0x20 PUSH2 0x16C SLOAD PUSH1 0x40 MLOAD SWAP1 DUP2 MSTORE RETURN JUMPDEST POP CALLVALUE PUSH2 0x484 JUMPI DUP1 PUSH1 0x3 NOT CALLDATASIZE ADD SLT PUSH2 0x484 JUMPI PUSH1 0x20 PUSH2 0x173 SLOAD PUSH1 0x40 MLOAD SWAP1 DUP2 MSTORE RETURN JUMPDEST POP CALLVALUE PUSH2 0x484 JUMPI DUP1 PUSH1 0x3 NOT CALLDATASIZE ADD SLT PUSH2 0x484 JUMPI PUSH1 0x20 PUSH2 0x163 SLOAD PUSH1 0x40 MLOAD SWAP1 DUP2 MSTORE RETURN JUMPDEST POP CALLVALUE PUSH2 0x484 JUMPI PUSH1 0x20 CALLDATASIZE PUSH1 0x3 NOT ADD SLT PUSH2 0x484 JUMPI PUSH2 0x576 PUSH2 0x3DA1 JUMP JUMPDEST PUSH1 0x4 CALLDATALOAD PUSH2 0x16E SSTORE DUP1 RETURN JUMPDEST POP CALLVALUE PUSH2 0x484 JUMPI PUSH1 0xE0 CALLDATASIZE PUSH1 0x3 NOT ADD SLT PUSH2 0x484 JUMPI PUSH1 0x4 CALLDATALOAD PUSH1 0x1 PUSH1 0x1 PUSH1 0xA0 SHL SUB DUP2 DUP2 AND SWAP2 DUP3 SWAP1 SUB PUSH2 0x4FB JUMPI DUP2 DUP4 MSTORE PUSH2 0x168 PUSH1 0x20 MSTORE PUSH1 0x40 DUP4 KECCAK256 PUSH1 0xFF PUSH1 0x1 PUSH1 0x40 MLOAD SWAP3 PUSH2 0x5C8 PUSH1 0x40 DUP6 PUSH2 0x27CC JUMP JUMPDEST DUP1 SLOAD DUP5 MSTORE ADD SLOAD AND ISZERO DUP1 ISZERO PUSH1 0x20 DUP4 ADD MSTORE PUSH2 0x71D JUMPI MLOAD SWAP1 PUSH1 0x24 CALLDATALOAD SWAP1 DUP1 DUP3 AND DUP1 SWAP3 SUB PUSH2 0x4FB JUMPI PUSH2 0x169 SWAP1 PUSH1 0x1 PUSH2 0x5FB DUP6 DUP5 PUSH2 0x287A JUMP JUMPDEST POP ADD SLOAD AND DUP3 SUB PUSH2 0x6A3 JUMPI JUMPDEST DUP5 PUSH32 0x6417E5A3C1E0E5DAE98B8FE718C4BABDFCB35E0D7B5E1B9641B5914756F5D8E3 PUSH1 0x4 DUP6 DUP8 PUSH2 0x656 PUSH2 0x63B DUP4 PUSH2 0x17A PUSH2 0x278F JUMP JUMPDEST PUSH1 0x44 SWAP3 SWAP2 SWAP3 CALLDATALOAD SWAP1 DUP4 SLOAD SWAP1 PUSH1 0x3 SHL SWAP2 DUP3 SHL SWAP2 PUSH0 NOT SWAP1 SHL NOT AND OR SWAP1 JUMP JUMPDEST SWAP1 SSTORE DUP1 DUP6 MSTORE PUSH2 0x176 PUSH1 0x20 MSTORE PUSH1 0x64 CALLDATALOAD PUSH1 0x40 DUP7 KECCAK256 SSTORE DUP5 MSTORE PUSH2 0x177 PUSH1 0x20 MSTORE PUSH1 0x84 CALLDATALOAD PUSH1 0x40 DUP6 KECCAK256 SSTORE PUSH2 0x685 DUP2 PUSH2 0x1BE PUSH2 0x287A JUMP JUMPDEST POP PUSH1 0x1 PUSH1 0xC4 CALLDATALOAD SWAP2 ADD SSTORE PUSH2 0x69D PUSH1 0x40 MLOAD SWAP3 DUP4 SWAP3 DUP4 PUSH2 0x332E JUMP JUMPDEST SUB SWAP1 LOG1 DUP1 RETURN JUMPDEST SWAP2 SWAP1 SWAP3 PUSH1 0x40 MLOAD PUSH4 0x59E02DD7 PUSH1 0xE0 SHL DUP2 MSTORE PUSH1 0x40 DUP2 PUSH1 0x4 DUP2 DUP9 GAS STATICCALL SWAP1 DUP2 ISZERO PUSH2 0x760 JUMPI DUP7 SWAP2 PUSH2 0x72F JUMPI JUMPDEST POP ISZERO PUSH2 0x71D JUMPI PUSH32 0x6417E5A3C1E0E5DAE98B8FE718C4BABDFCB35E0D7B5E1B9641B5914756F5D8E3 SWAP4 PUSH1 0x1 PUSH2 0x700 DUP5 PUSH1 0x4 SWAP7 PUSH2 0x287A JUMP JUMPDEST POP ADD SWAP1 PUSH1 0x1 PUSH1 0x1 PUSH1 0x60 SHL SUB PUSH1 0xA0 SHL DUP3 SLOAD AND OR SWAP1 SSTORE SWAP3 DUP2 SWAP3 POP PUSH2 0x606 JUMP JUMPDEST PUSH1 0x40 MLOAD PUSH4 0xE6C4247B PUSH1 0xE0 SHL DUP2 MSTORE PUSH1 0x4 SWAP1 REVERT JUMPDEST PUSH2 0x751 SWAP2 POP PUSH1 0x40 RETURNDATASIZE PUSH1 0x40 GT PUSH2 0x759 JUMPI JUMPDEST PUSH2 0x749 DUP2 DUP4 PUSH2 0x27CC JUMP JUMPDEST DUP2 ADD SWAP1 PUSH2 0x30DE JUMP JUMPDEST SWAP1 POP PUSH0 PUSH2 0x6CA JUMP JUMPDEST POP RETURNDATASIZE PUSH2 0x73F JUMP JUMPDEST PUSH1 0x40 MLOAD RETURNDATASIZE DUP9 DUP3 RETURNDATACOPY RETURNDATASIZE SWAP1 REVERT JUMPDEST POP CALLVALUE PUSH2 0x484 JUMPI DUP1 PUSH1 0x3 NOT CALLDATASIZE ADD SLT PUSH2 0x484 JUMPI PUSH2 0x162 SLOAD PUSH1 0x40 MLOAD PUSH1 0x1 PUSH1 0x1 PUSH1 0xA0 SHL SUB SWAP1 SWAP2 AND DUP2 MSTORE PUSH1 0x20 SWAP1 RETURN JUMPDEST POP CALLVALUE PUSH2 0x484 JUMPI DUP1 PUSH1 0x3 NOT CALLDATASIZE ADD SLT PUSH2 0x484 JUMPI PUSH2 0x182 SLOAD PUSH1 0x40 MLOAD PUSH1 0x1 PUSH1 0x1 PUSH1 0xA0 SHL SUB SWAP1 SWAP2 AND DUP2 MSTORE PUSH1 0x20 SWAP1 RETURN JUMPDEST POP CALLVALUE PUSH2 0x484 JUMPI DUP1 PUSH1 0x3 NOT CALLDATASIZE ADD SLT PUSH2 0x484 JUMPI PUSH1 0x20 PUSH1 0xFF PUSH2 0x17D SLOAD AND PUSH1 0x40 MLOAD SWAP1 ISZERO ISZERO DUP2 MSTORE RETURN JUMPDEST POP CALLVALUE PUSH2 0x484 JUMPI PUSH1 0x20 CALLDATASIZE PUSH1 0x3 NOT ADD SLT PUSH2 0x484 JUMPI PUSH1 0x4 CALLDATALOAD SWAP1 PUSH2 0x1BE SWAP1 DUP2 SLOAD DUP4 LT ISZERO PUSH2 0x484 JUMPI PUSH1 0x40 PUSH2 0x812 DUP5 DUP5 PUSH2 0x287A JUMP JUMPDEST POP PUSH1 0x1 DUP2 SLOAD SWAP2 ADD SLOAD DUP3 MLOAD SWAP2 DUP3 MSTORE PUSH1 0x20 DUP3 ADD MSTORE RETURN JUMPDEST POP CALLVALUE PUSH2 0x484 JUMPI PUSH1 0x20 CALLDATASIZE PUSH1 0x3 NOT ADD SLT PUSH2 0x484 JUMPI PUSH1 0x4 CALLDATALOAD PUSH1 0x1 PUSH1 0x1 PUSH1 0xA0 SHL SUB DUP2 AND SWAP1 DUP2 SWAP1 SUB PUSH2 0x86B JUMPI PUSH2 0x855 PUSH2 0x3DA1 JUMP JUMPDEST PUSH1 0x1 PUSH1 0x1 PUSH1 0x60 SHL SUB PUSH1 0xA0 SHL PUSH1 0x97 SLOAD AND OR PUSH1 0x97 SSTORE DUP1 RETURN JUMPDEST POP DUP1 REVERT JUMPDEST POP PUSH1 0xC0 CALLDATASIZE PUSH1 0x3 NOT ADD SLT PUSH2 0x484 JUMPI PUSH1 0x40 MLOAD SWAP1 PUSH2 0x88B PUSH1 0xC0 DUP4 PUSH2 0x27CC JUMP JUMPDEST PUSH1 0x1 PUSH1 0x1 PUSH1 0xA0 SHL SUB SWAP1 PUSH1 0x4 CALLDATALOAD DUP3 DUP2 AND DUP2 SUB PUSH2 0x4FB JUMPI DUP4 MSTORE PUSH1 0x20 DUP4 ADD PUSH1 0x24 CALLDATALOAD DUP2 MSTORE PUSH1 0x40 DUP5 ADD SWAP3 PUSH1 0x44 CALLDATALOAD DUP5 MSTORE PUSH1 0x64 CALLDATALOAD SWAP1 DUP1 DUP3 AND DUP3 SUB PUSH2 0x4FB JUMPI PUSH1 0x60 DUP7 ADD SWAP2 DUP3 MSTORE PUSH1 0x84 CALLDATALOAD DUP2 DUP2 AND DUP2 SUB PUSH2 0x4FB JUMPI PUSH1 0x80 DUP8 ADD SWAP1 DUP2 MSTORE PUSH1 0xA4 CALLDATALOAD SWAP5 DUP3 DUP7 AND DUP7 SUB PUSH2 0x4FB JUMPI PUSH1 0xA0 DUP9 ADD SWAP6 DUP7 MSTORE PUSH2 0x8F8 PUSH2 0x3396 JUMP JUMPDEST POP PUSH2 0x90D DUP4 PUSH2 0x905 PUSH2 0x3158 JUMP JUMPDEST SWAP10 MLOAD AND PUSH2 0x307A JUMP JUMPDEST SWAP2 PUSH2 0x930 PUSH2 0x91B DUP5 DUP12 PUSH2 0x2D49 JUMP JUMPDEST MLOAD SWAP10 PUSH2 0x927 DUP12 DUP7 PUSH2 0x353E JUMP JUMPDEST PUSH2 0x17C SLOAD PUSH2 0x34FB JUMP JUMPDEST SWAP10 PUSH2 0x947 DUP9 MLOAD SWAP12 PUSH2 0x941 DUP4 DUP9 PUSH2 0x3BAE JUMP JUMPDEST SWAP4 PUSH2 0x358E JUMP JUMPDEST SWAP2 PUSH8 0xDE0B6B3A763FFFF NOT DUP2 ADD SWAP1 DUP2 GT PUSH2 0xAA2 JUMPI DUP2 PUSH2 0x969 PUSH2 0x96E SWAP3 DUP15 PUSH2 0x2E7A JUMP JUMPDEST PUSH2 0x2E8D JUMP JUMPDEST SWAP9 PUSH8 0xDE0B6B3A7640000 SWAP3 DUP4 DUP12 MUL SWAP1 DUP12 DUP3 DIV DUP6 EQ DUP13 ISZERO OR ISZERO PUSH2 0xA8E JUMPI PUSH2 0x993 SWAP2 PUSH2 0x2E8D JUMP JUMPDEST SWAP12 DUP4 DUP2 MUL SWAP4 DUP2 DUP6 DIV EQ SWAP1 ISZERO OR ISZERO PUSH2 0xA8E JUMPI PUSH2 0x9DE SWAP8 DUP8 PUSH2 0x9C1 PUSH2 0x9BA PUSH2 0x9D3 SWAP6 DUP4 SWAP8 PUSH2 0x2E8D JUMP JUMPDEST DUP1 SWAP14 PUSH2 0x2D5D JUMP JUMPDEST SWAP9 DUP10 SWAP3 MLOAD AND SWAP3 MLOAD AND PUSH2 0x174 SLOAD SWAP3 PUSH2 0x35BD JUMP JUMPDEST SWAP9 SWAP2 DUP8 SWAP9 SWAP2 SWAP9 PUSH2 0x2D5D JUMP JUMPDEST SWAP10 MLOAD DUP1 DUP12 GT PUSH2 0xA70 JUMPI POP DUP10 ISZERO PUSH2 0xA5E JUMPI PUSH2 0xA0D PUSH2 0xA17 SWAP7 PUSH2 0xA02 DUP7 PUSH2 0xA5A SWAP13 PUSH2 0x3853 JUMP JUMPDEST DUP4 DUP6 MLOAD AND SWAP1 DUP14 PUSH2 0x3485 JUMP JUMPDEST MLOAD SWAP2 MLOAD AND SWAP3 PUSH2 0x33BC JUMP JUMPDEST PUSH1 0x40 MLOAD SWAP5 DUP6 SWAP5 DUP6 SWAP3 SWAP4 PUSH1 0x60 SWAP2 SWAP6 SWAP5 PUSH1 0xC0 SWAP4 PUSH1 0xE0 DUP7 ADD SWAP8 DUP7 MSTORE PUSH1 0x20 DUP7 ADD MSTORE PUSH1 0x40 DUP6 ADD MSTORE DUP1 MLOAD DUP3 DUP6 ADD MSTORE PUSH1 0x20 DUP2 ADD MLOAD PUSH1 0x80 DUP6 ADD MSTORE PUSH1 0x40 DUP2 ADD MLOAD PUSH1 0xA0 DUP6 ADD MSTORE ADD MLOAD SWAP2 ADD MSTORE JUMP JUMPDEST SUB SWAP1 RETURN JUMPDEST PUSH1 0x40 MLOAD PUSH4 0xF3E39B5D PUSH1 0xE0 SHL DUP2 MSTORE PUSH1 0x4 SWAP1 REVERT JUMPDEST PUSH1 0x44 SWAP1 DUP12 PUSH1 0x40 MLOAD SWAP2 PUSH4 0xB63F1A7 PUSH1 0xE0 SHL DUP4 MSTORE PUSH1 0x4 DUP4 ADD MSTORE PUSH1 0x24 DUP3 ADD MSTORE REVERT JUMPDEST PUSH4 0x4E487B71 PUSH1 0xE0 SHL PUSH0 MSTORE PUSH1 0x11 PUSH1 0x4 MSTORE PUSH1 0x24 PUSH0 REVERT JUMPDEST PUSH4 0x4E487B71 PUSH1 0xE0 SHL DUP6 MSTORE PUSH1 0x11 PUSH1 0x4 MSTORE PUSH1 0x24 DUP6 REVERT JUMPDEST POP CALLVALUE PUSH2 0x484 JUMPI PUSH1 0x20 CALLDATASIZE PUSH1 0x3 NOT ADD SLT PUSH2 0x484 JUMPI PUSH1 0x4 CALLDATALOAD PUSH1 0x1 PUSH1 0x1 PUSH1 0xA0 SHL SUB DUP2 AND SWAP1 DUP2 SWAP1 SUB PUSH2 0x4FB JUMPI DUP2 PUSH1 0x40 SWAP2 PUSH1 0x20 SWAP4 MSTORE PUSH2 0x177 DUP4 MSTORE KECCAK256 SLOAD PUSH1 0x40 MLOAD SWAP1 DUP2 MSTORE RETURN JUMPDEST POP CALLVALUE PUSH2 0x484 JUMPI PUSH1 0xE0 CALLDATASIZE PUSH1 0x3 NOT ADD SLT PUSH2 0x484 JUMPI PUSH1 0x4 CALLDATALOAD PUSH1 0x1 PUSH1 0x1 PUSH1 0xA0 SHL SUB DUP2 DUP2 AND SWAP2 DUP3 SWAP1 SUB PUSH2 0x4FB JUMPI PUSH1 0x24 DUP1 CALLDATALOAD DUP3 DUP2 AND DUP1 SWAP2 SUB PUSH2 0x4FB JUMPI DUP4 DUP6 MSTORE PUSH2 0x168 SWAP4 PUSH1 0x20 SWAP1 DUP6 DUP3 MSTORE PUSH1 0x1 SWAP3 PUSH1 0xFF DUP5 PUSH1 0x40 DUP11 KECCAK256 ADD SLOAD AND PUSH2 0xD5B JUMPI PUSH2 0x167 SWAP6 DUP7 SLOAD SWAP8 DUP6 PUSH1 0x40 MLOAD PUSH2 0xB5E PUSH1 0x40 DUP3 PUSH2 0x27CC JUMP JUMPDEST DUP11 DUP2 MSTORE DUP7 DUP2 ADD SWAP3 DUP3 DUP5 MSTORE DUP7 DUP14 MSTORE DUP8 MSTORE PUSH1 0x40 DUP13 KECCAK256 SWAP1 MLOAD DUP2 SSTORE ADD SWAP1 MLOAD ISZERO ISZERO PUSH1 0xFF DUP1 NOT DUP4 SLOAD AND SWAP2 AND OR SWAP1 SSTORE DUP7 SLOAD PUSH1 0x1 PUSH1 0x40 SHL SWAP8 DUP9 DUP3 LT ISZERO PUSH2 0xD48 JUMPI SWAP1 PUSH2 0xBA5 SWAP2 DUP8 DUP3 ADD DUP2 SSTORE PUSH2 0x278F JUMP JUMPDEST DUP2 SLOAD SWAP1 PUSH1 0x3 SHL SWAP1 DUP4 DUP7 DUP4 SHL SWAP3 SHL NOT AND OR SWAP1 SSTORE PUSH1 0x40 MLOAD PUSH2 0xBC5 PUSH1 0x40 DUP3 PUSH2 0x27CC JUMP JUMPDEST DUP10 DUP2 MSTORE DUP5 DUP2 ADD SWAP3 DUP4 MSTORE PUSH2 0x169 DUP1 SLOAD SWAP1 DUP10 DUP3 LT ISZERO PUSH2 0xD35 JUMPI SWAP1 PUSH2 0xBEB SWAP2 DUP9 DUP3 ADD DUP2 SSTORE PUSH2 0x287A JUMP JUMPDEST SWAP2 SWAP1 SWAP2 PUSH2 0xD22 JUMPI SWAP1 DUP7 SWAP2 MLOAD DUP2 SSTORE ADD SWAP2 MLOAD AND PUSH1 0x1 PUSH1 0x1 PUSH1 0x60 SHL SUB PUSH1 0xA0 SHL DUP3 SLOAD AND OR SWAP1 SSTORE PUSH2 0xC1B PUSH1 0x44 CALLDATALOAD PUSH2 0x17A PUSH2 0x2F92 JUMP JUMPDEST DUP1 DUP8 MSTORE PUSH2 0x176 DUP3 MSTORE PUSH1 0x64 CALLDATALOAD PUSH1 0x40 DUP9 KECCAK256 SSTORE DUP7 MSTORE PUSH2 0x177 DUP2 MSTORE PUSH1 0x84 CALLDATALOAD PUSH1 0x40 DUP8 KECCAK256 SSTORE PUSH1 0x40 MLOAD SWAP1 PUSH2 0xC49 PUSH1 0x40 DUP4 PUSH2 0x27CC JUMP JUMPDEST PUSH1 0xA4 CALLDATALOAD DUP3 MSTORE DUP2 ADD PUSH1 0xC4 CALLDATALOAD DUP2 MSTORE PUSH2 0x1BE DUP1 SLOAD SWAP1 DUP7 DUP3 LT ISZERO PUSH2 0xD0F JUMPI SWAP1 PUSH2 0xC72 SWAP2 DUP6 DUP3 ADD DUP2 SSTORE PUSH2 0x287A JUMP JUMPDEST SWAP3 SWAP1 SWAP3 PUSH2 0xCFC JUMPI SWAP1 DUP4 SWAP2 MLOAD DUP4 SSTORE MLOAD SWAP2 ADD SSTORE PUSH2 0x180 SWAP2 DUP3 SLOAD SWAP4 DUP5 LT ISZERO PUSH2 0xCEA JUMPI POP DUP3 PUSH32 0x6417E5A3C1E0E5DAE98B8FE718C4BABDFCB35E0D7B5E1B9641B5914756F5D8E3 SWAP5 SWAP3 PUSH2 0xCC5 SWAP3 PUSH1 0x4 SWAP6 ADD DUP2 SSTORE PUSH2 0x278F JUMP JUMPDEST POP POP PUSH2 0xCDB PUSH2 0xCD3 DUP3 PUSH2 0x30A2 JUMP JUMPDEST PUSH2 0x181 PUSH2 0x2F92 JUMP JUMPDEST PUSH2 0x69D PUSH1 0x40 MLOAD SWAP3 DUP4 SWAP3 DUP4 PUSH2 0x332E JUMP JUMPDEST PUSH4 0x4E487B71 PUSH1 0xE0 SHL DUP7 MSTORE PUSH1 0x41 PUSH1 0x4 MSTORE DUP6 REVERT JUMPDEST PUSH4 0x4E487B71 PUSH1 0xE0 SHL DUP9 MSTORE PUSH1 0x4 DUP9 SWAP1 MSTORE DUP5 DUP9 REVERT JUMPDEST PUSH4 0x4E487B71 PUSH1 0xE0 SHL DUP10 MSTORE PUSH1 0x41 PUSH1 0x4 MSTORE DUP6 DUP10 REVERT JUMPDEST PUSH4 0x4E487B71 PUSH1 0xE0 SHL DUP12 MSTORE PUSH1 0x4 DUP12 SWAP1 MSTORE DUP8 DUP12 REVERT JUMPDEST PUSH4 0x4E487B71 PUSH1 0xE0 SHL DUP13 MSTORE PUSH1 0x41 PUSH1 0x4 MSTORE DUP9 DUP13 REVERT JUMPDEST PUSH4 0x4E487B71 PUSH1 0xE0 SHL DUP12 MSTORE PUSH1 0x41 PUSH1 0x4 MSTORE DUP8 DUP12 REVERT JUMPDEST PUSH1 0x40 MLOAD PUSH4 0x3458F6C5 PUSH1 0xE0 SHL DUP2 MSTORE PUSH1 0x4 SWAP1 REVERT JUMPDEST POP CALLVALUE PUSH2 0x484 JUMPI PUSH1 0x20 CALLDATASIZE PUSH1 0x3 NOT ADD SLT PUSH2 0x484 JUMPI PUSH1 0x4 CALLDATALOAD PUSH1 0x1 PUSH1 0x1 PUSH1 0xA0 SHL SUB DUP2 AND SWAP1 DUP2 SWAP1 SUB PUSH2 0x4FB JUMPI PUSH2 0xD9C PUSH2 0x3DA1 JUMP JUMPDEST PUSH2 0x182 DUP1 SLOAD PUSH1 0x1 PUSH1 0x1 PUSH1 0xA0 SHL SUB NOT AND SWAP1 SWAP2 OR SWAP1 SSTORE DUP1 RETURN JUMPDEST POP CALLVALUE PUSH2 0x484 JUMPI DUP1 PUSH1 0x3 NOT CALLDATASIZE ADD SLT PUSH2 0x484 JUMPI PUSH1 0x20 PUSH2 0x185 SLOAD PUSH1 0x40 MLOAD SWAP1 DUP2 MSTORE RETURN JUMPDEST POP CALLVALUE PUSH2 0x484 JUMPI DUP1 PUSH1 0x3 NOT CALLDATASIZE ADD SLT PUSH2 0x484 JUMPI PUSH1 0x20 PUSH2 0xE0C PUSH2 0xDF2 PUSH1 0x1 PUSH2 0x3191 JUMP JUMPDEST PUSH2 0xE06 PUSH2 0xDFF DUP3 DUP5 PUSH2 0x2EAB JUMP JUMPDEST SWAP2 DUP4 PUSH2 0x2DF5 JUMP JUMPDEST SWAP2 PUSH2 0x31D7 JUMP JUMPDEST PUSH1 0x40 MLOAD SWAP1 DUP2 MSTORE RETURN JUMPDEST POP CALLVALUE PUSH2 0x484 JUMPI DUP1 PUSH1 0x3 NOT CALLDATASIZE ADD SLT PUSH2 0x484 JUMPI PUSH2 0xE2D PUSH2 0x3D0E JUMP JUMPDEST DUP1 RETURN JUMPDEST POP CALLVALUE PUSH2 0x484 JUMPI PUSH1 0x20 CALLDATASIZE PUSH1 0x3 NOT ADD SLT PUSH2 0x484 JUMPI PUSH1 0x4 CALLDATALOAD PUSH1 0x1 PUSH1 0x1 PUSH1 0xA0 SHL SUB DUP2 AND SWAP1 DUP2 SWAP1 SUB PUSH2 0x4FB JUMPI PUSH2 0xE5F PUSH2 0x3DA1 JUMP JUMPDEST PUSH2 0x161 DUP1 SLOAD PUSH1 0x1 PUSH1 0x1 PUSH1 0xA0 SHL SUB NOT AND SWAP1 SWAP2 OR SWAP1 SSTORE DUP1 RETURN JUMPDEST POP CALLVALUE PUSH2 0x484 JUMPI PUSH1 0x20 CALLDATASIZE PUSH1 0x3 NOT ADD SLT PUSH2 0x484 JUMPI PUSH2 0xE90 PUSH2 0x3DA1 JUMP JUMPDEST PUSH1 0x4 CALLDATALOAD PUSH2 0x17E SSTORE DUP1 RETURN JUMPDEST POP CALLVALUE PUSH2 0x484 JUMPI PUSH1 0x20 CALLDATASIZE PUSH1 0x3 NOT ADD SLT PUSH2 0x484 JUMPI PUSH2 0xEB4 PUSH2 0x3DA1 JUMP JUMPDEST PUSH1 0x4 CALLDATALOAD PUSH2 0x16F SSTORE DUP1 RETURN JUMPDEST POP CALLVALUE PUSH2 0x484 JUMPI PUSH1 0x20 CALLDATASIZE PUSH1 0x3 NOT ADD SLT PUSH2 0x484 JUMPI PUSH2 0xED8 PUSH2 0x3DA1 JUMP JUMPDEST PUSH1 0x4 CALLDATALOAD PUSH2 0x16B SSTORE DUP1 RETURN JUMPDEST POP CALLVALUE PUSH2 0x484 JUMPI DUP1 PUSH1 0x3 NOT CALLDATASIZE ADD SLT PUSH2 0x484 JUMPI PUSH1 0x20 PUSH1 0xFF PUSH1 0xCA SLOAD AND PUSH1 0x40 MLOAD SWAP1 ISZERO ISZERO DUP2 MSTORE RETURN JUMPDEST POP CALLVALUE PUSH2 0x484 JUMPI DUP1 PUSH1 0x3 NOT CALLDATASIZE ADD SLT PUSH2 0x484 JUMPI PUSH1 0x20 PUSH2 0x18B SLOAD PUSH1 0x40 MLOAD SWAP1 DUP2 MSTORE RETURN JUMPDEST POP CALLVALUE PUSH2 0x484 JUMPI DUP1 PUSH1 0x3 NOT CALLDATASIZE ADD SLT PUSH2 0x484 JUMPI PUSH2 0x183 SLOAD PUSH1 0x40 MLOAD PUSH1 0x1 PUSH1 0x1 PUSH1 0xA0 SHL SUB SWAP1 SWAP2 AND DUP2 MSTORE PUSH1 0x20 SWAP1 RETURN JUMPDEST POP CALLVALUE PUSH2 0x484 JUMPI DUP1 PUSH1 0x3 NOT CALLDATASIZE ADD SLT PUSH2 0x484 JUMPI PUSH1 0x20 PUSH2 0x16F SLOAD PUSH1 0x40 MLOAD SWAP1 DUP2 MSTORE RETURN JUMPDEST POP PUSH2 0x100 CALLDATASIZE PUSH1 0x3 NOT ADD SLT PUSH2 0x484 JUMPI PUSH2 0xF86 CALLDATASIZE PUSH1 0x4 PUSH2 0x2802 JUMP JUMPDEST PUSH1 0xE4 CALLDATALOAD SWAP2 PUSH1 0x1 PUSH1 0x1 PUSH1 0xA0 SHL SUB SWAP2 SWAP1 DUP3 DUP5 AND DUP5 SUB PUSH2 0x4FB JUMPI PUSH2 0x1028 SWAP1 PUSH2 0xFA9 PUSH2 0x3396 JUMP JUMPDEST POP PUSH2 0xFB2 PUSH2 0x3158 JUMP JUMPDEST SWAP4 PUSH2 0xFBF DUP2 DUP6 MLOAD AND PUSH2 0x307A JUMP JUMPDEST SWAP4 PUSH2 0xFE2 PUSH2 0xFCD DUP7 DUP9 PUSH2 0x2D49 JUMP JUMPDEST MLOAD SWAP7 PUSH2 0xFD9 DUP9 DUP9 PUSH2 0x353E JUMP JUMPDEST PUSH2 0x17B SLOAD PUSH2 0x34FB JUMP JUMPDEST PUSH2 0x1022 PUSH1 0x20 DUP5 SWAP8 SWAP4 SWAP8 ADD SWAP9 PUSH2 0x101D PUSH2 0xFFB DUP3 DUP13 MLOAD PUSH2 0x3E4F JUMP JUMPDEST SWAP9 PUSH2 0x1018 PUSH2 0x100E DUP14 MLOAD PUSH2 0x166 SLOAD SWAP1 PUSH2 0x2E7A JUMP JUMPDEST SWAP6 PUSH2 0x163 SLOAD PUSH2 0x2F3B JUMP JUMPDEST PUSH2 0x2F3B JUMP JUMPDEST PUSH2 0x2E7A JUMP JUMPDEST SWAP1 PUSH2 0x3E4F JUMP JUMPDEST SWAP7 PUSH1 0x40 DUP3 ADD MLOAD DUP1 DUP10 LT DUP1 ISZERO PUSH2 0x10D8 JUMPI JUMPDEST PUSH2 0x10BA JUMPI POP PUSH2 0x1059 DUP4 PUSH1 0x80 DUP5 ADD MLOAD AND DUP7 DUP6 PUSH1 0xC0 DUP7 ADD MLOAD AND PUSH2 0x171 SLOAD SWAP3 PUSH2 0x35BD JUMP JUMPDEST SWAP8 SWAP2 SWAP9 SWAP1 SWAP7 PUSH1 0x60 DUP6 ADD MLOAD DUP1 DUP12 GT PUSH2 0x109B JUMPI POP PUSH2 0xA17 SWAP6 SWAP4 DUP8 PUSH1 0xA0 SWAP5 PUSH2 0xA5A SWAP12 SWAP11 SWAP10 SWAP8 SWAP5 PUSH2 0x108A PUSH1 0x1 PUSH2 0x1091 SWAP7 PUSH2 0x3853 JUMP JUMPDEST MLOAD SWAP1 PUSH2 0x390A JUMP JUMPDEST ADD MLOAD AND SWAP1 DUP8 PUSH2 0x3485 JUMP JUMPDEST PUSH1 0x44 SWAP1 DUP11 MLOAD PUSH1 0x40 MLOAD SWAP2 PUSH4 0xB63F1A7 PUSH1 0xE0 SHL DUP4 MSTORE PUSH1 0x4 DUP4 ADD MSTORE PUSH1 0x24 DUP3 ADD MSTORE REVERT JUMPDEST PUSH1 0x44 SWAP1 DUP10 PUSH1 0x40 MLOAD SWAP2 PUSH4 0xF577BEF5 PUSH1 0xE0 SHL DUP4 MSTORE PUSH1 0x4 DUP4 ADD MSTORE PUSH1 0x24 DUP3 ADD MSTORE REVERT JUMPDEST POP DUP9 ISZERO PUSH2 0x1038 JUMP JUMPDEST POP CALLVALUE PUSH2 0x484 JUMPI DUP1 PUSH1 0x3 NOT CALLDATASIZE ADD SLT PUSH2 0x484 JUMPI PUSH1 0x20 PUSH2 0x1BF SLOAD NUMBER LT ISZERO PUSH1 0x40 MLOAD SWAP1 DUP2 MSTORE RETURN JUMPDEST POP CALLVALUE PUSH2 0x484 JUMPI DUP1 PUSH1 0x3 NOT CALLDATASIZE ADD SLT PUSH2 0x484 JUMPI PUSH1 0xCA SLOAD PUSH1 0x40 MLOAD PUSH1 0x10 SWAP2 SWAP1 SWAP2 SHR PUSH1 0x1 PUSH1 0x1 PUSH1 0xA0 SHL SUB AND DUP2 MSTORE PUSH1 0x20 SWAP1 RETURN JUMPDEST POP CALLVALUE PUSH2 0x484 JUMPI PUSH1 0x20 CALLDATASIZE PUSH1 0x3 NOT ADD SLT PUSH2 0x484 JUMPI PUSH1 0x4 CALLDATALOAD PUSH1 0x1 PUSH1 0x1 PUSH1 0xA0 SHL SUB DUP2 AND SWAP1 DUP2 SWAP1 SUB PUSH2 0x4FB JUMPI PUSH1 0x40 DUP3 DUP2 SWAP3 DUP2 MSTORE PUSH2 0x168 PUSH1 0x20 MSTORE KECCAK256 PUSH1 0xFF PUSH1 0x1 DUP3 SLOAD SWAP3 ADD SLOAD AND DUP3 MLOAD SWAP2 DUP3 MSTORE ISZERO ISZERO PUSH1 0x20 DUP3 ADD MSTORE RETURN JUMPDEST POP CALLVALUE PUSH2 0x484 JUMPI DUP1 PUSH1 0x3 NOT CALLDATASIZE ADD SLT PUSH2 0x484 JUMPI PUSH1 0x20 PUSH2 0x11A8 PUSH2 0x11A2 PUSH2 0x119D PUSH2 0x3158 JUMP JUMPDEST PUSH2 0x2D6A JUMP JUMPDEST SWAP1 PUSH2 0x2F1E JUMP JUMPDEST PUSH2 0x17C SLOAD LT ISZERO PUSH1 0x40 MLOAD SWAP1 DUP2 MSTORE RETURN JUMPDEST POP CALLVALUE PUSH2 0x484 JUMPI DUP1 PUSH1 0x3 NOT CALLDATASIZE ADD SLT PUSH2 0x484 JUMPI PUSH2 0x178 SLOAD PUSH1 0x40 MLOAD PUSH1 0x1 PUSH1 0x1 PUSH1 0xA0 SHL SUB SWAP1 SWAP2 AND DUP2 MSTORE PUSH1 0x20 SWAP1 RETURN JUMPDEST POP PUSH2 0x100 CALLDATASIZE PUSH1 0x3 NOT ADD SLT PUSH2 0x484 JUMPI PUSH2 0x11F9 CALLDATASIZE PUSH1 0x4 PUSH2 0x2802 JUMP JUMPDEST PUSH1 0x1 PUSH1 0x1 PUSH1 0xA0 SHL SUB SWAP2 PUSH1 0xE4 CALLDATALOAD SWAP1 DUP4 DUP3 AND DUP3 SUB PUSH2 0x4FB JUMPI PUSH2 0x1217 PUSH2 0x3396 JUMP JUMPDEST POP PUSH2 0x1220 PUSH2 0x3D0E JUMP JUMPDEST PUSH2 0x1228 PUSH2 0x3C51 JUMP JUMPDEST SWAP5 SWAP1 SWAP2 PUSH2 0x1237 DUP3 DUP7 MLOAD AND PUSH2 0x307A JUMP JUMPDEST SWAP2 PUSH2 0x1257 PUSH2 0x1245 DUP5 DUP10 PUSH2 0x2D49 JUMP JUMPDEST MLOAD SWAP8 PUSH2 0x1251 DUP10 DUP7 PUSH2 0x353E JUMP JUMPDEST DUP6 PUSH2 0x34FB JUMP JUMPDEST PUSH1 0x20 DUP9 SWAP3 SWAP9 ADD SWAP8 DUP9 MLOAD PUSH2 0x126B DUP4 DUP4 DUP11 PUSH2 0x3B40 JUMP JUMPDEST DUP2 DUP2 LT PUSH2 0x135A JUMPI POP POP SWAP1 PUSH2 0x1297 SWAP2 DUP10 MLOAD PUSH8 0xDE0B6B3A7640000 SWAP4 DUP5 SWAP2 PUSH2 0x1291 DUP6 DUP6 PUSH2 0x358E JUMP JUMPDEST SWAP1 PUSH2 0x2E7A JUMP JUMPDEST DIV SWAP8 DUP9 ISZERO PUSH2 0xA5E JUMPI PUSH2 0x12D3 SWAP4 PUSH2 0x12CA PUSH2 0x12C0 DUP15 PUSH2 0x101D DUP16 MLOAD PUSH2 0x1291 DUP9 PUSH2 0x1018 DUP12 PUSH2 0x163 SLOAD PUSH2 0x2F3B JUMP JUMPDEST PUSH2 0x166 SLOAD SWAP1 PUSH2 0x2E8D JUMP JUMPDEST DIV SWAP12 DUP13 DUP10 PUSH2 0x3A06 JUMP JUMPDEST PUSH1 0x40 DUP2 ADD MLOAD DUP1 DUP10 LT PUSH2 0x133C JUMPI POP PUSH2 0x12FC DUP3 PUSH1 0x80 DUP4 ADD MLOAD AND DUP7 DUP5 PUSH1 0xC0 DUP6 ADD MLOAD AND PUSH2 0x172 SLOAD SWAP3 PUSH2 0x35BD JUMP JUMPDEST SWAP8 SWAP2 SWAP9 SWAP1 SWAP7 PUSH1 0x60 DUP5 ADD MLOAD DUP1 DUP12 GT PUSH2 0x109B JUMPI POP DUP6 SWAP4 PUSH2 0x1333 DUP13 SWAP5 DUP7 PUSH2 0xA5A SWAP13 SWAP12 SWAP11 SWAP9 SWAP6 PUSH2 0x132D PUSH2 0xA17 SWAP12 PUSH1 0xA0 SWAP8 PUSH2 0x3853 JUMP JUMPDEST MLOAD PUSH2 0x399C JUMP JUMPDEST ADD MLOAD AND SWAP3 PUSH2 0x33BC JUMP JUMPDEST PUSH1 0x44 SWAP1 DUP10 PUSH1 0x40 MLOAD SWAP2 PUSH4 0x272E3F59 PUSH1 0xE2 SHL DUP4 MSTORE PUSH1 0x4 DUP4 ADD MSTORE PUSH1 0x24 DUP3 ADD MSTORE REVERT JUMPDEST PUSH1 0x44 SWAP3 POP PUSH1 0x40 MLOAD SWAP2 PUSH4 0xA5DB715D PUSH1 0xE0 SHL DUP4 MSTORE PUSH1 0x4 DUP4 ADD MSTORE PUSH1 0x24 DUP3 ADD MSTORE REVERT JUMPDEST POP CALLVALUE PUSH2 0x484 JUMPI DUP1 PUSH1 0x3 NOT CALLDATASIZE ADD SLT PUSH2 0x484 JUMPI PUSH2 0x188 SLOAD PUSH1 0x40 MLOAD PUSH1 0x1 PUSH1 0x1 PUSH1 0xA0 SHL SUB SWAP1 SWAP2 AND DUP2 MSTORE PUSH1 0x20 SWAP1 RETURN JUMPDEST POP CALLVALUE PUSH2 0x484 JUMPI DUP1 PUSH1 0x3 NOT CALLDATASIZE ADD SLT PUSH2 0x484 JUMPI PUSH1 0x20 PUSH2 0x17C SLOAD PUSH1 0x40 MLOAD SWAP1 DUP2 MSTORE RETURN JUMPDEST POP CALLVALUE PUSH2 0x484 JUMPI PUSH1 0x20 CALLDATASIZE PUSH1 0x3 NOT ADD SLT PUSH2 0x484 JUMPI PUSH1 0x4 CALLDATALOAD PUSH1 0x1 PUSH1 0x1 PUSH1 0xA0 SHL SUB DUP2 AND SWAP1 DUP2 SWAP1 SUB PUSH2 0x4FB JUMPI PUSH2 0x13F0 PUSH2 0x3DA1 JUMP JUMPDEST PUSH2 0x183 DUP1 SLOAD PUSH1 0x1 PUSH1 0x1 PUSH1 0xA0 SHL SUB NOT AND SWAP1 SWAP2 OR SWAP1 SSTORE DUP1 RETURN JUMPDEST POP CALLVALUE PUSH2 0x484 JUMPI DUP1 PUSH1 0x3 NOT CALLDATASIZE ADD SLT PUSH2 0x484 JUMPI PUSH2 0x1420 PUSH2 0x3E2E JUMP JUMPDEST PUSH1 0xCA SLOAD PUSH1 0x10 DUP2 SWAP1 SHR PUSH1 0x1 PUSH1 0x1 PUSH1 0xA0 SHL SUB AND CALLER SUB PUSH2 0x148C JUMPI PUSH1 0xFF DUP2 AND ISZERO PUSH2 0x147A JUMPI PUSH2 0x100 SWAP1 PUSH2 0xFF00 NOT AND OR PUSH1 0xCA SSTORE PUSH32 0x62E78CEA01BEE320CD4E420270B5EA74000D11B0C9F74754EBDBFC544B05A258 PUSH1 0x20 PUSH1 0x40 MLOAD CALLER DUP2 MSTORE LOG1 DUP1 RETURN JUMPDEST PUSH1 0x40 MLOAD PUSH4 0x866099C3 PUSH1 0xE0 SHL DUP2 MSTORE PUSH1 0x4 SWAP1 REVERT JUMPDEST PUSH1 0x40 MLOAD PUSH4 0x1D77D477 PUSH1 0xE2 SHL DUP2 MSTORE PUSH1 0x4 SWAP1 REVERT JUMPDEST POP CALLVALUE PUSH2 0x484 JUMPI DUP1 PUSH1 0x3 NOT CALLDATASIZE ADD SLT PUSH2 0x484 JUMPI PUSH1 0x20 PUSH2 0x18A SLOAD PUSH1 0x40 MLOAD SWAP1 DUP2 MSTORE RETURN JUMPDEST POP CALLVALUE PUSH2 0x484 JUMPI DUP1 PUSH1 0x3 NOT CALLDATASIZE ADD SLT PUSH2 0x484 JUMPI PUSH1 0x20 PUSH2 0xE0C PUSH2 0x14DD PUSH1 0x1 PUSH2 0x3191 JUMP JUMPDEST PUSH2 0xE06 PUSH2 0x14EA DUP3 DUP5 PUSH2 0x2DF5 JUMP JUMPDEST SWAP2 DUP4 PUSH2 0x2EAB JUMP JUMPDEST POP CALLVALUE PUSH2 0x484 JUMPI DUP1 PUSH1 0x3 NOT CALLDATASIZE ADD SLT PUSH2 0x484 JUMPI PUSH2 0x1F3 SLOAD PUSH1 0x40 MLOAD PUSH1 0x1 PUSH1 0x1 PUSH1 0xA0 SHL SUB SWAP1 SWAP2 AND DUP2 MSTORE PUSH1 0x20 SWAP1 RETURN JUMPDEST POP CALLVALUE PUSH2 0x484 JUMPI PUSH1 0x20 CALLDATASIZE PUSH1 0x3 NOT ADD SLT PUSH2 0x484 JUMPI PUSH1 0x4 CALLDATALOAD SWAP1 PUSH2 0x17A SWAP1 DUP2 SLOAD DUP4 LT ISZERO PUSH2 0x484 JUMPI PUSH1 0x20 PUSH2 0x154A DUP5 DUP5 PUSH2 0x278F JUMP JUMPDEST SWAP1 SLOAD PUSH1 0x40 MLOAD SWAP2 PUSH1 0x3 SHL SHR DUP2 MSTORE RETURN JUMPDEST POP CALLVALUE PUSH2 0x484 JUMPI PUSH1 0x20 CALLDATASIZE PUSH1 0x3 NOT ADD SLT PUSH2 0x484 JUMPI PUSH2 0x1572 PUSH2 0x3DA1 JUMP JUMPDEST PUSH1 0x4 CALLDATALOAD PUSH2 0x17B SSTORE DUP1 RETURN JUMPDEST POP CALLVALUE PUSH2 0x484 JUMPI PUSH1 0x20 CALLDATASIZE PUSH1 0x3 NOT ADD SLT PUSH2 0x484 JUMPI PUSH2 0x1596 PUSH2 0x3DA1 JUMP JUMPDEST PUSH1 0x4 CALLDATALOAD PUSH2 0x172 SSTORE DUP1 RETURN JUMPDEST POP CALLVALUE PUSH2 0x484 JUMPI DUP1 PUSH1 0x3 NOT CALLDATASIZE ADD SLT PUSH2 0x484 JUMPI PUSH1 0x20 PUSH2 0x1C0 SLOAD PUSH1 0x40 MLOAD SWAP1 DUP2 MSTORE RETURN JUMPDEST POP CALLVALUE PUSH2 0x484 JUMPI PUSH1 0x20 CALLDATASIZE PUSH1 0x3 NOT ADD SLT PUSH2 0x484 JUMPI PUSH2 0x15D9 PUSH2 0x3DA1 JUMP JUMPDEST PUSH1 0x4 CALLDATALOAD PUSH2 0x173 SSTORE DUP1 RETURN JUMPDEST POP CALLVALUE PUSH2 0x484 JUMPI DUP1 PUSH1 0x3 NOT CALLDATASIZE ADD SLT PUSH2 0x484 JUMPI PUSH1 0x20 PUSH2 0x166 SLOAD PUSH1 0x40 MLOAD SWAP1 DUP2 MSTORE RETURN JUMPDEST POP CALLVALUE PUSH2 0x484 JUMPI DUP1 PUSH1 0x3 NOT CALLDATASIZE ADD SLT PUSH2 0x484 JUMPI PUSH1 0x20 PUSH2 0x174 SLOAD PUSH1 0x40 MLOAD SWAP1 DUP2 MSTORE RETURN JUMPDEST POP CALLVALUE PUSH2 0x484 JUMPI PUSH1 0x20 CALLDATASIZE PUSH1 0x3 NOT ADD SLT PUSH2 0x484 JUMPI PUSH2 0x163B PUSH2 0x3DA1 JUMP JUMPDEST PUSH1 0x4 CALLDATALOAD PUSH2 0x16D SSTORE DUP1 RETURN JUMPDEST POP CALLVALUE PUSH2 0x484 JUMPI DUP1 PUSH1 0x3 NOT CALLDATASIZE ADD SLT PUSH2 0x484 JUMPI PUSH1 0x20 PUSH2 0x186 SLOAD PUSH1 0x40 MLOAD SWAP1 DUP2 MSTORE RETURN JUMPDEST POP CALLVALUE PUSH2 0x484 JUMPI DUP1 PUSH1 0x3 NOT CALLDATASIZE ADD SLT PUSH2 0x484 JUMPI PUSH1 0x20 PUSH2 0x16B SLOAD PUSH1 0x40 MLOAD SWAP1 DUP2 MSTORE RETURN JUMPDEST POP CALLVALUE PUSH2 0x484 JUMPI PUSH1 0x20 CALLDATASIZE PUSH1 0x3 NOT ADD SLT PUSH2 0x484 JUMPI PUSH2 0x169D PUSH2 0x3DA1 JUMP JUMPDEST PUSH1 0x4 CALLDATALOAD PUSH2 0x184 SSTORE DUP1 RETURN JUMPDEST POP CALLVALUE PUSH2 0x484 JUMPI PUSH1 0x20 CALLDATASIZE PUSH1 0x3 NOT ADD SLT PUSH2 0x484 JUMPI PUSH1 0x4 CALLDATALOAD PUSH1 0x1 PUSH1 0x1 PUSH1 0xA0 SHL SUB DUP2 AND SWAP1 DUP2 SWAP1 SUB PUSH2 0x4FB JUMPI PUSH2 0x16D6 PUSH2 0x3DA1 JUMP JUMPDEST PUSH2 0x188 DUP1 SLOAD PUSH1 0x1 PUSH1 0x1 PUSH1 0xA0 SHL SUB NOT AND SWAP1 SWAP2 OR SWAP1 SSTORE DUP1 RETURN JUMPDEST POP CALLVALUE PUSH2 0x484 JUMPI PUSH1 0x20 CALLDATASIZE PUSH1 0x3 NOT ADD SLT PUSH2 0x484 JUMPI PUSH2 0x1707 PUSH2 0x3DA1 JUMP JUMPDEST PUSH1 0x4 CALLDATALOAD PUSH2 0x170 SSTORE DUP1 RETURN JUMPDEST POP CALLVALUE PUSH2 0x484 JUMPI DUP1 PUSH1 0x3 NOT CALLDATASIZE ADD SLT PUSH2 0x484 JUMPI PUSH1 0x20 PUSH2 0x184 SLOAD PUSH1 0x40 MLOAD SWAP1 DUP2 MSTORE RETURN JUMPDEST POP CALLVALUE PUSH2 0x484 JUMPI DUP1 PUSH1 0x3 NOT CALLDATASIZE ADD SLT PUSH2 0x484 JUMPI PUSH1 0x20 PUSH2 0x17B SLOAD PUSH1 0x40 MLOAD SWAP1 DUP2 MSTORE RETURN JUMPDEST POP CALLVALUE PUSH2 0x484 JUMPI PUSH1 0x80 CALLDATASIZE PUSH1 0x3 NOT ADD SLT PUSH2 0x484 JUMPI PUSH1 0x1 PUSH1 0x1 PUSH1 0xA0 SHL SUB SWAP1 PUSH1 0x4 CALLDATALOAD DUP3 DUP2 AND SWAP2 SWAP1 DUP3 DUP2 SUB PUSH2 0x4FB JUMPI PUSH1 0x24 CALLDATALOAD DUP5 DUP2 AND SWAP5 DUP6 DUP3 SUB PUSH2 0x4FB JUMPI PUSH1 0x44 CALLDATALOAD SWAP3 DUP2 DUP5 AND DUP1 SWAP5 SUB PUSH2 0x4FB JUMPI PUSH1 0xFF PUSH2 0x17D SLOAD PUSH1 0x8 SHR AND ISZERO PUSH2 0x193B JUMPI PUSH2 0x17AD SWAP1 PUSH2 0x307A JUMP JUMPDEST PUSH2 0x167 PUSH2 0x17BA DUP3 DUP3 PUSH2 0x278F JUMP JUMPDEST SWAP6 SWAP1 SLOAD SWAP9 PUSH1 0x40 MLOAD SWAP7 PUSH4 0x70A08231 PUSH1 0xE0 SHL DUP9 MSTORE DUP2 PUSH1 0x4 DUP10 ADD MSTORE DUP8 PUSH1 0x24 DUP2 DUP9 PUSH1 0x20 SWAP15 DUP16 SWAP6 PUSH1 0x3 SHL SHR AND GAS STATICCALL SWAP7 DUP8 ISZERO PUSH2 0x1930 JUMPI DUP9 SWAP8 PUSH2 0x1901 JUMPI JUMPDEST POP DUP7 ISZERO PUSH2 0x18E3 JUMPI PUSH2 0x1814 PUSH2 0x1807 DUP6 PUSH2 0x16A PUSH2 0x278F JUMP JUMPDEST SWAP1 SLOAD SWAP1 PUSH1 0x3 SHL SHR DUP9 PUSH2 0x3E4F JUMP JUMPDEST SWAP9 PUSH1 0x64 CALLDATALOAD DUP11 DUP2 LT PUSH2 0x18D9 JUMPI JUMPDEST POP SWAP1 PUSH2 0x185D SWAP5 SWAP4 SWAP3 SWAP2 PUSH32 0xFAAB3901CD2D6E9B5D0A0C6E34C643B8C844726F3C54DE69517E571BF24BBD92 PUSH1 0x40 DUP14 DUP14 DUP3 MLOAD SWAP2 DUP14 DUP4 MSTORE DUP3 ADD MSTORE LOG4 PUSH2 0x278F JUMP JUMPDEST SWAP1 SLOAD SWAP1 PUSH1 0x3 SHL SHR AND SWAP1 DUP2 EXTCODESIZE ISZERO PUSH2 0x18D5 JUMPI PUSH1 0x40 MLOAD PUSH4 0x2770A7EB PUSH1 0xE2 SHL DUP2 MSTORE PUSH1 0x1 PUSH1 0x1 PUSH1 0xA0 SHL SUB SWAP2 SWAP1 SWAP2 AND PUSH1 0x4 DUP3 ADD MSTORE PUSH1 0x24 DUP2 ADD SWAP3 SWAP1 SWAP3 MSTORE DUP3 SWAP1 DUP3 SWAP1 PUSH1 0x44 SWAP1 DUP3 SWAP1 DUP5 SWAP1 GAS CALL DUP1 ISZERO PUSH2 0x18CA JUMPI PUSH2 0x18B5 JUMPI JUMPDEST POP POP PUSH1 0x40 MLOAD SWAP1 DUP2 MSTORE RETURN JUMPDEST PUSH2 0x18C0 DUP3 DUP1 SWAP3 PUSH2 0x27CC JUMP JUMPDEST PUSH2 0x484 JUMPI DUP1 PUSH2 0x18AB JUMP JUMPDEST PUSH1 0x40 MLOAD RETURNDATASIZE DUP5 DUP3 RETURNDATACOPY RETURNDATASIZE SWAP1 REVERT JUMPDEST DUP4 DUP1 REVERT JUMPDEST SWAP10 POP PUSH2 0x185D PUSH2 0x1820 JUMP JUMPDEST PUSH1 0x44 DUP8 PUSH1 0x40 MLOAD SWAP1 PUSH4 0x3FE8C5EB PUSH1 0xE0 SHL DUP3 MSTORE DUP1 PUSH1 0x4 DUP4 ADD MSTORE PUSH1 0x24 DUP3 ADD MSTORE REVERT JUMPDEST SWAP1 SWAP7 POP DUP10 DUP2 DUP2 RETURNDATASIZE DUP4 GT PUSH2 0x1929 JUMPI JUMPDEST PUSH2 0x1919 DUP2 DUP4 PUSH2 0x27CC JUMP JUMPDEST DUP2 ADD SUB SLT PUSH2 0x4FB JUMPI MLOAD SWAP6 PUSH0 PUSH2 0x17F1 JUMP JUMPDEST POP RETURNDATASIZE PUSH2 0x190F JUMP JUMPDEST PUSH1 0x40 MLOAD RETURNDATASIZE DUP11 DUP3 RETURNDATACOPY RETURNDATASIZE SWAP1 REVERT JUMPDEST PUSH1 0x40 MLOAD PUSH4 0x31B0D35 PUSH1 0xE1 SHL DUP2 MSTORE PUSH1 0x4 SWAP1 REVERT JUMPDEST POP CALLVALUE PUSH2 0x484 JUMPI DUP1 PUSH1 0x3 NOT CALLDATASIZE ADD SLT PUSH2 0x484 JUMPI PUSH2 0x1966 PUSH2 0x3DA1 JUMP JUMPDEST PUSH1 0x1 PUSH1 0xFF NOT PUSH1 0xCA SLOAD AND OR PUSH1 0xCA SSTORE DUP1 RETURN JUMPDEST POP CALLVALUE PUSH2 0x484 JUMPI DUP1 PUSH1 0x3 NOT CALLDATASIZE ADD SLT PUSH2 0x484 JUMPI PUSH1 0x20 PUSH2 0x1991 PUSH2 0x3C51 JUMP JUMPDEST POP PUSH1 0x40 MLOAD SWAP1 DUP2 MSTORE RETURN JUMPDEST POP CALLVALUE PUSH2 0x484 JUMPI PUSH1 0x20 CALLDATASIZE PUSH1 0x3 NOT ADD SLT PUSH2 0x484 JUMPI PUSH2 0x19B4 PUSH2 0x3DA1 JUMP JUMPDEST PUSH1 0x4 CALLDATALOAD PUSH2 0x189 SSTORE DUP1 RETURN JUMPDEST POP CALLVALUE PUSH2 0x484 JUMPI DUP1 PUSH1 0x3 NOT CALLDATASIZE ADD SLT PUSH2 0x484 JUMPI PUSH2 0x161 SLOAD PUSH1 0x40 MLOAD PUSH1 0x1 PUSH1 0x1 PUSH1 0xA0 SHL SUB SWAP1 SWAP2 AND DUP2 MSTORE PUSH1 0x20 SWAP1 RETURN JUMPDEST POP CALLVALUE PUSH2 0x484 JUMPI DUP1 PUSH1 0x3 NOT CALLDATASIZE ADD SLT PUSH2 0x484 JUMPI PUSH2 0x165 SLOAD PUSH1 0x40 MLOAD PUSH1 0x1 PUSH1 0x1 PUSH1 0xA0 SHL SUB SWAP1 SWAP2 AND DUP2 MSTORE PUSH1 0x20 SWAP1 RETURN JUMPDEST POP CALLVALUE PUSH2 0x484 JUMPI DUP1 PUSH1 0x3 NOT CALLDATASIZE ADD SLT PUSH2 0x484 JUMPI PUSH1 0x20 PUSH1 0xFF PUSH1 0xCA SLOAD PUSH1 0x8 SHR AND PUSH1 0x40 MLOAD SWAP1 ISZERO ISZERO DUP2 MSTORE RETURN JUMPDEST POP CALLVALUE PUSH2 0x484 JUMPI DUP1 PUSH1 0x3 NOT CALLDATASIZE ADD SLT PUSH2 0x484 JUMPI PUSH1 0x20 PUSH2 0x187 SLOAD PUSH1 0x40 MLOAD SWAP1 DUP2 MSTORE RETURN JUMPDEST POP CALLVALUE PUSH2 0x484 JUMPI PUSH1 0x20 CALLDATASIZE PUSH1 0x3 NOT ADD SLT PUSH2 0x484 JUMPI PUSH2 0x1A71 PUSH2 0x3DA1 JUMP JUMPDEST PUSH1 0x4 CALLDATALOAD PUSH2 0x175 SSTORE DUP1 RETURN JUMPDEST POP CALLVALUE PUSH2 0x484 JUMPI DUP1 PUSH1 0x3 NOT CALLDATASIZE ADD SLT PUSH2 0x484 JUMPI PUSH32 0x0 PUSH1 0x1 PUSH1 0x1 PUSH1 0xA0 SHL SUB AND ADDRESS SUB PUSH2 0x1AE6 JUMPI PUSH1 0x20 PUSH1 0x40 MLOAD PUSH32 0x360894A13BA1A3210667C828492DB98DCA3E2076CC3735A920A3CA505D382BBC DUP2 MSTORE RETURN JUMPDEST PUSH1 0x40 MLOAD PUSH3 0x461BCD PUSH1 0xE5 SHL DUP2 MSTORE PUSH1 0x20 PUSH1 0x4 DUP3 ADD MSTORE PUSH1 0x38 PUSH1 0x24 DUP3 ADD MSTORE PUSH32 0x555550535570677261646561626C653A206D757374206E6F742062652063616C PUSH1 0x44 DUP3 ADD MSTORE PUSH32 0x6C6564207468726F7567682064656C656761746563616C6C0000000000000000 PUSH1 0x64 DUP3 ADD MSTORE PUSH1 0x84 SWAP1 REVERT JUMPDEST POP CALLVALUE PUSH2 0x484 JUMPI DUP1 PUSH1 0x3 NOT CALLDATASIZE ADD SLT PUSH2 0x484 JUMPI PUSH2 0x1B6A PUSH2 0x3DA1 JUMP JUMPDEST PUSH1 0xFF NOT PUSH1 0xCA SLOAD AND PUSH1 0xCA SSTORE DUP1 RETURN JUMPDEST POP PUSH1 0x40 CALLDATASIZE PUSH1 0x3 NOT ADD SLT PUSH2 0x484 JUMPI PUSH1 0x1 PUSH1 0x1 PUSH1 0xA0 SHL SUB PUSH1 0x4 CALLDATALOAD DUP2 DUP2 AND DUP2 SUB PUSH2 0x4FB JUMPI DUP3 SWAP2 PUSH1 0x24 CALLDATALOAD SWAP2 PUSH8 0xFFFFFFFFFFFFFFFF DUP4 GT PUSH2 0x1C66 JUMPI CALLDATASIZE PUSH1 0x23 DUP5 ADD SLT ISZERO PUSH2 0x1C66 JUMPI DUP3 PUSH1 0x4 ADD CALLDATALOAD PUSH2 0x1BC6 DUP2 PUSH2 0x2893 JUMP JUMPDEST SWAP3 PUSH2 0x1BD4 PUSH1 0x40 MLOAD SWAP5 DUP6 PUSH2 0x27CC JUMP JUMPDEST DUP2 DUP5 MSTORE CALLDATASIZE PUSH1 0x24 DUP4 DUP8 ADD ADD GT PUSH2 0x1C62 JUMPI PUSH2 0xE2D SWAP6 PUSH1 0x20 DUP4 PUSH2 0x1C55 SWAP5 PUSH1 0x24 PUSH1 0x1 SWAP10 ADD DUP4 DUP10 ADD CALLDATACOPY DUP7 ADD ADD MSTORE DUP1 PUSH32 0x0 AND SWAP1 PUSH2 0x1C2C DUP3 ADDRESS EQ ISZERO PUSH2 0x28AF JUMP JUMPDEST PUSH32 0x360894A13BA1A3210667C828492DB98DCA3E2076CC3735A920A3CA505D382BBC SLOAD AND EQ PUSH2 0x2910 JUMP JUMPDEST PUSH2 0x1C5D PUSH2 0x3DA1 JUMP JUMPDEST PUSH2 0x2971 JUMP JUMPDEST DUP6 DUP1 REVERT JUMPDEST POP POP POP REVERT JUMPDEST POP CALLVALUE PUSH2 0x484 JUMPI DUP1 PUSH1 0x3 NOT CALLDATASIZE ADD SLT PUSH2 0x484 JUMPI PUSH1 0x20 PUSH2 0x16D SLOAD PUSH1 0x40 MLOAD SWAP1 DUP2 MSTORE RETURN JUMPDEST POP CALLVALUE PUSH2 0x484 JUMPI DUP1 PUSH1 0x3 NOT CALLDATASIZE ADD SLT PUSH2 0x484 JUMPI PUSH2 0x179 SLOAD PUSH1 0x40 MLOAD PUSH1 0x1 PUSH1 0x1 PUSH1 0xA0 SHL SUB SWAP1 SWAP2 AND DUP2 MSTORE PUSH1 0x20 SWAP1 RETURN JUMPDEST POP CALLVALUE PUSH2 0x484 JUMPI DUP1 PUSH1 0x3 NOT CALLDATASIZE ADD SLT PUSH2 0x484 JUMPI PUSH1 0x20 PUSH2 0x17E SLOAD PUSH1 0x40 MLOAD SWAP1 DUP2 MSTORE RETURN JUMPDEST POP CALLVALUE PUSH2 0x484 JUMPI PUSH1 0x20 CALLDATASIZE PUSH1 0x3 NOT ADD SLT PUSH2 0x484 JUMPI PUSH1 0x4 CALLDATALOAD SWAP1 PUSH2 0x169 SWAP1 DUP2 SLOAD DUP4 LT ISZERO PUSH2 0x484 JUMPI PUSH1 0x40 PUSH2 0x1D02 DUP5 DUP5 PUSH2 0x287A JUMP JUMPDEST POP DUP1 SLOAD PUSH1 0x1 SWAP1 SWAP2 ADD SLOAD DUP3 MLOAD SWAP2 DUP3 MSTORE PUSH1 0x1 PUSH1 0x1 PUSH1 0xA0 SHL SUB AND PUSH1 0x20 DUP3 ADD MSTORE RETURN JUMPDEST POP CALLVALUE PUSH2 0x484 JUMPI DUP1 PUSH1 0x3 NOT CALLDATASIZE ADD SLT PUSH2 0x484 JUMPI PUSH1 0x20 PUSH2 0x170 SLOAD PUSH1 0x40 MLOAD SWAP1 DUP2 MSTORE RETURN JUMPDEST POP CALLVALUE PUSH2 0x484 JUMPI DUP1 PUSH1 0x3 NOT CALLDATASIZE ADD SLT PUSH2 0x484 JUMPI PUSH1 0xCA SLOAD PUSH1 0xFF DUP2 PUSH1 0x8 SHR AND ISZERO PUSH2 0x1DA8 JUMPI PUSH1 0x10 DUP2 SWAP1 SHR PUSH1 0x1 PUSH1 0x1 PUSH1 0xA0 SHL SUB AND CALLER SUB PUSH2 0x148C JUMPI PUSH2 0xFF00 NOT AND PUSH1 0xCA SSTORE PUSH32 0x5DB9EE0A495BF2E6FF9C91A7834C1BA4FDD244A5E8AA4E537BD38AEAE4B073AA PUSH1 0x20 PUSH1 0x40 MLOAD CALLER DUP2 MSTORE LOG1 DUP1 RETURN JUMPDEST PUSH1 0x40 MLOAD PUSH4 0x7C7FD079 PUSH1 0xE0 SHL DUP2 MSTORE PUSH1 0x4 SWAP1 REVERT JUMPDEST POP CALLVALUE PUSH2 0x484 JUMPI PUSH1 0x20 CALLDATASIZE PUSH1 0x3 NOT ADD SLT PUSH2 0x484 JUMPI PUSH2 0x1DD4 PUSH2 0x3DA1 JUMP JUMPDEST PUSH1 0x4 CALLDATALOAD PUSH2 0x1C0 SSTORE DUP1 RETURN JUMPDEST POP CALLVALUE PUSH2 0x484 JUMPI PUSH1 0x20 CALLDATASIZE PUSH1 0x3 NOT ADD SLT PUSH2 0x484 JUMPI PUSH1 0x4 CALLDATALOAD SWAP1 PUSH2 0x16A SWAP1 DUP2 SLOAD DUP4 LT ISZERO PUSH2 0x484 JUMPI PUSH1 0x20 PUSH2 0x154A DUP5 DUP5 PUSH2 0x278F JUMP JUMPDEST POP CALLVALUE PUSH2 0x484 JUMPI PUSH1 0x20 CALLDATASIZE PUSH1 0x3 NOT ADD SLT PUSH2 0x484 JUMPI PUSH1 0x4 CALLDATALOAD PUSH1 0x1 PUSH1 0x1 PUSH1 0xA0 SHL SUB DUP1 DUP3 AND DUP3 SUB PUSH2 0x4FB JUMPI PUSH2 0xE2D SWAP2 PUSH2 0x1E6C DUP3 DUP6 SWAP4 PUSH32 0x0 AND SWAP1 PUSH2 0x1C2C DUP3 ADDRESS EQ ISZERO PUSH2 0x28AF JUMP JUMPDEST PUSH2 0x1E74 PUSH2 0x3DA1 JUMP JUMPDEST PUSH2 0x1E7D DUP3 PUSH2 0x2893 JUMP JUMPDEST SWAP1 PUSH2 0x1E8B PUSH1 0x40 MLOAD SWAP3 DUP4 PUSH2 0x27CC JUMP JUMPDEST DUP3 DUP3 MSTORE PUSH1 0x1F NOT PUSH2 0x1E9A DUP5 PUSH2 0x2893 JUMP JUMPDEST ADD CALLDATASIZE PUSH1 0x20 DUP5 ADD CALLDATACOPY PUSH2 0x2971 JUMP JUMPDEST POP CALLVALUE PUSH2 0x484 JUMPI DUP1 PUSH1 0x3 NOT CALLDATASIZE ADD SLT PUSH2 0x484 JUMPI PUSH2 0x1EBF PUSH2 0x3E2E JUMP JUMPDEST PUSH2 0x17D DUP1 SLOAD PUSH1 0xFF DUP2 AND DUP1 PUSH2 0x1F89 JUMPI JUMPDEST DUP1 PUSH2 0x1F6F JUMPI JUMPDEST PUSH2 0x1EDC JUMPI DUP3 DUP1 RETURN JUMPDEST PUSH2 0xFF00 NOT AND PUSH2 0x100 OR SWAP1 SSTORE PUSH1 0x40 MLOAD PUSH32 0x8B77276C97A5709F0D6DB52329848A254EB760CE8BE80D281799F633BDB69E83 DUP3 DUP1 LOG1 PUSH2 0x165 SLOAD DUP3 SWAP1 PUSH1 0x1 PUSH1 0x1 PUSH1 0xA0 SHL SUB AND DUP1 EXTCODESIZE ISZERO PUSH2 0x86B JUMPI DUP3 PUSH1 0x4 DUP2 DUP5 DUP1 SWAP5 PUSH4 0x8456CB59 PUSH1 0xE0 SHL DUP4 MSTORE GAS CALL DUP1 ISZERO PUSH2 0x1F62 JUMPI PUSH2 0x1F52 JUMPI JUMPDEST POP POP PUSH2 0x1F4C PUSH2 0x2FCE JUMP JUMPDEST PUSH0 DUP1 DUP3 DUP1 RETURN JUMPDEST PUSH2 0x1F5B SWAP2 PUSH2 0x27CC JUMP JUMPDEST PUSH0 DUP2 PUSH2 0x1F42 JUMP JUMPDEST POP PUSH1 0x40 MLOAD SWAP1 RETURNDATASIZE SWAP1 DUP3 RETURNDATACOPY RETURNDATASIZE SWAP1 REVERT JUMPDEST POP PUSH2 0x1F7E PUSH2 0x11A2 PUSH2 0x119D PUSH2 0x3158 JUMP JUMPDEST PUSH2 0x17C SLOAD LT ISZERO PUSH2 0x1ED4 JUMP JUMPDEST POP PUSH1 0xFF DUP2 PUSH1 0x8 SHR AND ISZERO PUSH2 0x1ECE JUMP JUMPDEST POP CALLVALUE PUSH2 0x484 JUMPI DUP1 PUSH1 0x3 NOT CALLDATASIZE ADD SLT PUSH2 0x484 JUMPI PUSH1 0x20 PUSH2 0x171 SLOAD PUSH1 0x40 MLOAD SWAP1 DUP2 MSTORE RETURN JUMPDEST POP PUSH2 0x100 CALLDATASIZE PUSH1 0x3 NOT ADD SLT PUSH2 0x484 JUMPI PUSH2 0x1FCF CALLDATASIZE PUSH1 0x4 PUSH2 0x2802 JUMP JUMPDEST PUSH1 0x1 PUSH1 0x1 PUSH1 0xA0 SHL SUB SWAP1 PUSH1 0xE4 CALLDATALOAD DUP3 DUP2 AND DUP2 SUB PUSH2 0x18D5 JUMPI PUSH2 0x1FEC PUSH2 0x3396 JUMP JUMPDEST POP PUSH2 0x1FF5 PUSH2 0x3D0E JUMP JUMPDEST PUSH2 0x1FFD PUSH2 0x3C51 JUMP JUMPDEST SWAP2 SWAP1 SWAP4 PUSH2 0x200C DUP2 DUP6 MLOAD AND PUSH2 0x307A JUMP JUMPDEST SWAP1 PUSH2 0x2026 PUSH2 0x201A DUP4 DUP7 PUSH2 0x2D49 JUMP JUMPDEST MLOAD SWAP5 PUSH2 0x927 DUP7 DUP6 PUSH2 0x353E JUMP JUMPDEST SWAP7 PUSH8 0xDE0B6B3A763FFFF NOT SWAP1 DUP2 DUP2 ADD SWAP1 DUP2 GT PUSH2 0x2191 JUMPI PUSH2 0x2046 SWAP1 DUP8 PUSH2 0x2E7A JUMP JUMPDEST PUSH2 0x2050 DUP8 DUP7 PUSH2 0x3BAE JUMP JUMPDEST SWAP2 DUP3 ADD SWAP2 DUP3 GT PUSH2 0x2191 JUMPI PUSH2 0x2095 SWAP6 SWAP5 SWAP4 SWAP3 SWAP2 PUSH2 0x206B SWAP2 PUSH2 0x2E8D JUMP JUMPDEST SWAP1 PUSH2 0x207F PUSH1 0x20 DUP10 ADD SWAP3 PUSH2 0x101D DUP4 DUP6 MLOAD PUSH2 0x2E7A JUMP JUMPDEST PUSH8 0xDE0B6B3A7640000 SWAP7 DUP8 SWAP2 PUSH2 0x166 SLOAD SWAP1 PUSH2 0x2E8D JUMP JUMPDEST DIV SWAP9 PUSH1 0x40 DUP10 ADD MLOAD DUP1 DUP12 GT PUSH2 0x2173 JUMPI POP PUSH2 0x20B0 SWAP1 DUP4 MLOAD SWAP3 PUSH2 0x358E JUMP JUMPDEST SWAP7 DUP7 DUP11 MUL DUP11 DUP2 DIV DUP9 EQ DUP12 ISZERO OR ISZERO PUSH2 0x215F JUMPI SWAP1 PUSH2 0x20CB SWAP2 PUSH2 0x2E8D JUMP JUMPDEST SWAP1 DUP2 ISZERO PUSH2 0xA5E JUMPI PUSH2 0x20EF PUSH2 0x2114 SWAP8 PUSH2 0x20E8 PUSH1 0x60 SWAP11 PUSH2 0x2109 SWAP5 PUSH2 0x2E7A JUMP JUMPDEST DIV DUP4 PUSH2 0x2D5D JUMP JUMPDEST SWAP4 DUP5 DUP2 PUSH1 0x80 DUP13 ADD MLOAD AND SWAP2 PUSH1 0xC0 DUP13 ADD MLOAD AND PUSH2 0x173 SLOAD SWAP3 PUSH2 0x35BD JUMP JUMPDEST SWAP9 SWAP2 DUP6 SWAP9 SWAP2 SWAP9 PUSH2 0x2F3B JUMP JUMPDEST SWAP9 ADD MLOAD DUP1 DUP10 LT PUSH2 0x2141 JUMPI POP SWAP3 PUSH2 0x213C DUP6 DUP11 SWAP12 SWAP5 PUSH2 0xA5A SWAP11 SWAP12 SWAP5 PUSH2 0x132D PUSH1 0x1 PUSH2 0xA17 SWAP11 SWAP10 PUSH2 0x3853 JUMP JUMPDEST PUSH2 0x390A JUMP JUMPDEST PUSH1 0x44 SWAP1 DUP10 PUSH1 0x40 MLOAD SWAP2 PUSH4 0x54CDE313 PUSH1 0xE0 SHL DUP4 MSTORE PUSH1 0x4 DUP4 ADD MSTORE PUSH1 0x24 DUP3 ADD MSTORE REVERT JUMPDEST PUSH4 0x4E487B71 PUSH1 0xE0 SHL DUP13 MSTORE PUSH1 0x11 PUSH1 0x4 MSTORE PUSH1 0x24 DUP13 REVERT JUMPDEST PUSH1 0x44 SWAP1 DUP12 PUSH1 0x40 MLOAD SWAP2 PUSH4 0x7A031DA3 PUSH1 0xE1 SHL DUP4 MSTORE PUSH1 0x4 DUP4 ADD MSTORE PUSH1 0x24 DUP3 ADD MSTORE REVERT JUMPDEST PUSH4 0x4E487B71 PUSH1 0xE0 SHL DUP11 MSTORE PUSH1 0x11 PUSH1 0x4 MSTORE PUSH1 0x24 DUP11 REVERT JUMPDEST POP CALLDATASIZE PUSH1 0x3 NOT ADD SWAP1 PUSH2 0x120 DUP3 SLT PUSH2 0x484 JUMPI PUSH2 0x100 DUP1 SWAP3 SLT PUSH2 0x484 JUMPI PUSH2 0x21CC PUSH1 0x40 MLOAD SWAP3 DUP4 PUSH2 0x27CC JUMP JUMPDEST PUSH1 0x4 CALLDATALOAD PUSH1 0x1 PUSH1 0x1 PUSH1 0xA0 SHL SUB DUP2 AND DUP2 SUB PUSH2 0x86B JUMPI DUP3 MSTORE PUSH1 0x24 CALLDATALOAD SWAP1 PUSH1 0x1 PUSH1 0x1 PUSH1 0xA0 SHL SUB DUP3 AND DUP3 SUB PUSH2 0x484 JUMPI PUSH1 0x20 DUP4 ADD SWAP2 DUP3 MSTORE PUSH1 0x44 CALLDATALOAD PUSH1 0x40 DUP5 ADD MSTORE PUSH1 0x64 CALLDATALOAD PUSH1 0x60 DUP5 ADD SWAP1 DUP2 MSTORE PUSH1 0x84 CALLDATALOAD PUSH1 0x80 DUP6 ADD MSTORE SWAP3 PUSH1 0xA4 CALLDATALOAD PUSH1 0x1 PUSH1 0x1 PUSH1 0xA0 SHL SUB DUP2 AND DUP2 SUB PUSH2 0x2403 JUMPI PUSH1 0xA0 DUP3 ADD MSTORE PUSH1 0xC4 CALLDATALOAD PUSH1 0x1 PUSH1 0x1 PUSH1 0xA0 SHL SUB DUP2 AND DUP2 SUB PUSH2 0x2403 JUMPI PUSH1 0xC0 DUP3 ADD MSTORE PUSH1 0xE4 CALLDATALOAD PUSH1 0x1 PUSH1 0x1 PUSH1 0xA0 SHL SUB DUP2 AND DUP2 SUB PUSH2 0x2403 JUMPI PUSH1 0xE0 DUP3 ADD MSTORE PUSH2 0x104 CALLDATALOAD PUSH1 0x1 PUSH1 0x1 PUSH1 0xA0 SHL SUB DUP2 AND SWAP1 SUB PUSH2 0x86B JUMPI PUSH2 0x227B PUSH2 0x3396 JUMP JUMPDEST POP DUP1 MLOAD DUP4 MLOAD PUSH1 0x1 PUSH1 0x1 PUSH1 0xA0 SHL SUB SWAP1 DUP2 AND SWAP2 AND EQ PUSH2 0x23F1 JUMPI DUP1 MLOAD PUSH2 0x22BA SWAP1 PUSH2 0x22AA SWAP1 PUSH1 0x1 PUSH1 0x1 PUSH1 0xA0 SHL SUB AND PUSH2 0x307A JUMP JUMPDEST SWAP4 MLOAD PUSH1 0x1 PUSH1 0x1 PUSH1 0xA0 SHL SUB AND PUSH2 0x307A JUMP JUMPDEST SWAP1 PUSH2 0x22C4 DUP5 PUSH2 0x30A2 JUMP JUMPDEST PUSH2 0x22CD DUP4 PUSH2 0x30A2 JUMP JUMPDEST PUSH2 0x22D7 DUP3 DUP8 PUSH2 0x353E JUMP JUMPDEST PUSH2 0x22E1 DUP2 DUP6 PUSH2 0x353E JUMP JUMPDEST PUSH2 0x22EF DUP3 PUSH1 0x40 DUP6 ADD MLOAD PUSH2 0x3E4F JUMP JUMPDEST SWAP2 PUSH2 0x2302 DUP2 PUSH2 0x969 DUP5 PUSH1 0x40 DUP9 ADD MLOAD PUSH2 0x2E7A JUMP JUMPDEST SWAP8 MLOAD DUP1 DUP10 LT DUP1 ISZERO PUSH2 0x23E9 JUMPI JUMPDEST PUSH2 0x133C JUMPI POP SWAP1 PUSH2 0x2356 SWAP3 SWAP2 PUSH2 0x232D PUSH2 0x2326 DUP4 DUP9 PUSH2 0x3BAE JUMP JUMPDEST SWAP2 DUP10 PUSH2 0x3BAE JUMP JUMPDEST LT PUSH2 0x23BA JUMPI JUMPDEST POP PUSH1 0xA0 DUP4 ADD MLOAD PUSH1 0xE0 DUP5 ADD MLOAD PUSH2 0x170 SLOAD SWAP3 SWAP2 PUSH1 0x1 PUSH1 0x1 PUSH1 0xA0 SHL SUB SWAP2 DUP3 AND SWAP2 AND PUSH2 0x35BD JUMP JUMPDEST SWAP5 SWAP2 SWAP6 SWAP1 SWAP4 PUSH1 0x80 DUP5 ADD MLOAD DUP1 DUP9 GT PUSH2 0x239B JUMPI POP SWAP2 PUSH2 0xA5A SWAP6 SWAP5 SWAP4 SWAP2 PUSH2 0x238C PUSH2 0xA17 SWAP5 DUP4 DUP12 PUSH1 0x1 DUP1 PUSH1 0xA0 SHL SUB PUSH1 0xC0 DUP9 ADD MLOAD AND SWAP3 PUSH2 0x33BC JUMP JUMPDEST PUSH1 0x40 PUSH2 0x104 CALLDATALOAD SWAP4 ADD MLOAD SWAP1 PUSH2 0x390A JUMP JUMPDEST PUSH1 0x44 SWAP1 DUP8 MLOAD PUSH1 0x40 MLOAD SWAP2 PUSH4 0xB63F1A7 PUSH1 0xE0 SHL DUP4 MSTORE PUSH1 0x4 DUP4 ADD MSTORE PUSH1 0x24 DUP3 ADD MSTORE REVERT JUMPDEST PUSH2 0x23D9 PUSH2 0x23E3 SWAP2 PUSH2 0x23C9 PUSH2 0x3D0E JUMP JUMPDEST PUSH2 0x23D1 PUSH2 0x3C51 JUMP JUMPDEST DUP2 SWAP4 SWAP2 PUSH2 0x34FB JUMP JUMPDEST SWAP3 SWAP1 SWAP2 DUP12 DUP10 PUSH2 0x3A06 JUMP JUMPDEST PUSH0 PUSH2 0x2333 JUMP JUMPDEST POP DUP9 ISZERO PUSH2 0x230E JUMP JUMPDEST PUSH1 0x40 MLOAD PUSH4 0x2A9FFAB7 PUSH1 0xE2 SHL DUP2 MSTORE PUSH1 0x4 SWAP1 REVERT JUMPDEST DUP3 DUP1 REVERT JUMPDEST POP CALLVALUE PUSH2 0x484 JUMPI DUP1 PUSH1 0x3 NOT CALLDATASIZE ADD SLT PUSH2 0x484 JUMPI PUSH1 0x20 PUSH2 0x175 SLOAD PUSH1 0x40 MLOAD SWAP1 DUP2 MSTORE RETURN JUMPDEST POP CALLVALUE PUSH2 0x484 JUMPI PUSH1 0x20 CALLDATASIZE PUSH1 0x3 NOT ADD SLT PUSH2 0x484 JUMPI PUSH1 0x4 CALLDATALOAD PUSH1 0x1 PUSH1 0x1 PUSH1 0xA0 SHL SUB DUP2 AND DUP2 SUB PUSH2 0x86B JUMPI PUSH2 0x2453 PUSH2 0x3DA1 JUMP JUMPDEST PUSH1 0xCA DUP1 SLOAD PUSH3 0x10000 PUSH1 0x1 PUSH1 0xB0 SHL SUB NOT AND PUSH1 0x10 SWAP3 SWAP1 SWAP3 SHL PUSH3 0x10000 PUSH1 0x1 PUSH1 0xB0 SHL SUB AND SWAP2 SWAP1 SWAP2 OR SWAP1 SSTORE DUP1 RETURN JUMPDEST POP CALLVALUE PUSH2 0x484 JUMPI PUSH1 0x20 CALLDATASIZE PUSH1 0x3 NOT ADD SLT PUSH2 0x484 JUMPI PUSH2 0x2497 PUSH2 0x3DA1 JUMP JUMPDEST PUSH1 0x4 CALLDATALOAD PUSH2 0x17C SSTORE DUP1 RETURN JUMPDEST POP CALLVALUE PUSH2 0x484 JUMPI DUP1 PUSH1 0x3 NOT CALLDATASIZE ADD SLT PUSH2 0x484 JUMPI PUSH1 0x20 PUSH2 0x172 SLOAD PUSH1 0x40 MLOAD SWAP1 DUP2 MSTORE RETURN JUMPDEST POP CALLVALUE PUSH2 0x484 JUMPI PUSH1 0x20 CALLDATASIZE PUSH1 0x3 NOT ADD SLT PUSH2 0x484 JUMPI PUSH1 0x4 CALLDATALOAD PUSH1 0x1 PUSH1 0x1 PUSH1 0xA0 SHL SUB DUP2 AND SWAP1 DUP2 SWAP1 SUB PUSH2 0x86B JUMPI PUSH2 0x24EF PUSH2 0x3DA1 JUMP JUMPDEST PUSH2 0x179 DUP1 SLOAD PUSH1 0x1 PUSH1 0x1 PUSH1 0xA0 SHL SUB NOT AND SWAP1 SWAP2 OR SWAP1 SSTORE DUP1 RETURN JUMPDEST POP CALLVALUE PUSH2 0x484 JUMPI PUSH1 0x20 CALLDATASIZE PUSH1 0x3 NOT ADD SLT PUSH2 0x484 JUMPI PUSH1 0x4 CALLDATALOAD PUSH1 0x1 PUSH1 0x1 PUSH1 0xA0 SHL SUB DUP2 AND SWAP1 DUP2 SWAP1 SUB PUSH2 0x86B JUMPI DUP2 PUSH1 0x40 SWAP2 PUSH1 0x20 SWAP4 MSTORE PUSH2 0x176 DUP4 MSTORE KECCAK256 SLOAD PUSH1 0x40 MLOAD SWAP1 DUP2 MSTORE RETURN JUMPDEST POP CALLVALUE PUSH2 0x484 JUMPI DUP1 PUSH1 0x3 NOT CALLDATASIZE ADD SLT PUSH2 0x484 JUMPI PUSH1 0x20 PUSH1 0xFF PUSH2 0x17D SLOAD PUSH1 0x8 SHR AND PUSH1 0x40 MLOAD SWAP1 ISZERO ISZERO DUP2 MSTORE RETURN JUMPDEST POP CALLVALUE PUSH2 0x484 JUMPI PUSH1 0x20 CALLDATASIZE PUSH1 0x3 NOT ADD SLT PUSH2 0x484 JUMPI PUSH2 0x2585 PUSH2 0x3DA1 JUMP JUMPDEST PUSH1 0x4 CALLDATALOAD PUSH2 0x174 SSTORE DUP1 RETURN JUMPDEST POP CALLVALUE PUSH2 0x484 JUMPI PUSH1 0x20 CALLDATASIZE PUSH1 0x3 NOT ADD SLT PUSH2 0x484 JUMPI PUSH1 0x4 CALLDATALOAD DUP1 ISZERO ISZERO DUP1 SWAP2 SUB PUSH2 0x86B JUMPI PUSH2 0x25B6 PUSH2 0x3DA1 JUMP JUMPDEST PUSH2 0x17D SWAP1 PUSH1 0xFF DUP1 NOT DUP4 SLOAD AND SWAP2 AND OR SWAP1 SSTORE DUP1 RETURN JUMPDEST POP CALLVALUE PUSH2 0x484 JUMPI DUP1 PUSH1 0x3 NOT CALLDATASIZE ADD SLT PUSH2 0x484 JUMPI PUSH1 0x20 PUSH2 0x17F SLOAD PUSH1 0x40 MLOAD SWAP1 DUP2 MSTORE RETURN JUMPDEST POP CALLVALUE PUSH2 0x484 JUMPI PUSH1 0x20 CALLDATASIZE PUSH1 0x3 NOT ADD SLT PUSH2 0x484 JUMPI PUSH1 0x4 CALLDATALOAD PUSH1 0x1 PUSH1 0x1 PUSH1 0xA0 SHL SUB DUP2 AND SWAP1 DUP2 SWAP1 SUB PUSH2 0x86B JUMPI PUSH2 0x2617 PUSH2 0x3DA1 JUMP JUMPDEST PUSH2 0x162 DUP1 SLOAD PUSH1 0x1 PUSH1 0x1 PUSH1 0xA0 SHL SUB NOT AND SWAP1 SWAP2 OR SWAP1 SSTORE DUP1 RETURN JUMPDEST POP CALLVALUE PUSH2 0x484 JUMPI PUSH1 0x20 CALLDATASIZE PUSH1 0x3 NOT ADD SLT PUSH2 0x484 JUMPI PUSH2 0x2648 PUSH2 0x3DA1 JUMP JUMPDEST PUSH1 0x4 CALLDATALOAD PUSH2 0x171 SSTORE DUP1 RETURN JUMPDEST POP CALLVALUE PUSH2 0x484 JUMPI DUP1 PUSH1 0x3 NOT CALLDATASIZE ADD SLT PUSH2 0x484 JUMPI PUSH1 0x20 PUSH2 0x189 SLOAD PUSH1 0x40 MLOAD SWAP1 DUP2 MSTORE RETURN JUMPDEST POP CALLVALUE PUSH2 0x484 JUMPI PUSH1 0x20 CALLDATASIZE PUSH1 0x3 NOT ADD SLT PUSH2 0x484 JUMPI PUSH1 0x4 CALLDATALOAD PUSH1 0x1 PUSH1 0x1 PUSH1 0xA0 SHL SUB DUP2 AND SWAP1 DUP2 SWAP1 SUB PUSH2 0x86B JUMPI PUSH2 0x26A0 PUSH2 0x3DA1 JUMP JUMPDEST PUSH2 0x178 DUP1 SLOAD PUSH1 0x1 PUSH1 0x1 PUSH1 0xA0 SHL SUB NOT AND SWAP1 SWAP2 OR SWAP1 SSTORE DUP1 RETURN JUMPDEST POP CALLVALUE PUSH2 0x484 JUMPI DUP1 PUSH1 0x3 NOT CALLDATASIZE ADD SLT PUSH2 0x484 JUMPI PUSH1 0x20 PUSH2 0x1BF SLOAD PUSH1 0x40 MLOAD SWAP1 DUP2 MSTORE RETURN JUMPDEST POP CALLVALUE PUSH2 0x484 JUMPI DUP1 PUSH1 0x3 NOT CALLDATASIZE ADD SLT PUSH2 0x484 JUMPI PUSH1 0x97 SLOAD PUSH1 0x40 MLOAD PUSH1 0x1 PUSH1 0x1 PUSH1 0xA0 SHL SUB SWAP1 SWAP2 AND DUP2 MSTORE PUSH1 0x20 SWAP1 RETURN JUMPDEST POP CALLVALUE PUSH2 0x484 JUMPI PUSH1 0x20 CALLDATASIZE PUSH1 0x3 NOT ADD SLT PUSH2 0x484 JUMPI PUSH2 0x2719 PUSH2 0x3DA1 JUMP JUMPDEST PUSH1 0x4 CALLDATALOAD PUSH2 0x18A SSTORE DUP1 RETURN JUMPDEST POP CALLVALUE PUSH2 0x484 JUMPI PUSH1 0x20 CALLDATASIZE PUSH1 0x3 NOT ADD SLT PUSH2 0x484 JUMPI PUSH1 0x4 CALLDATALOAD SWAP1 PUSH2 0x167 SWAP1 DUP2 SLOAD DUP4 LT ISZERO PUSH2 0x484 JUMPI PUSH1 0x20 PUSH2 0x2752 DUP5 DUP5 PUSH2 0x278F JUMP JUMPDEST SWAP1 SLOAD PUSH1 0x40 MLOAD PUSH1 0x3 SWAP3 SWAP1 SWAP3 SHL SHR PUSH1 0x1 PUSH1 0x1 PUSH1 0xA0 SHL SUB AND DUP2 MSTORE RETURN JUMPDEST POP CALLVALUE PUSH2 0x484 JUMPI PUSH1 0x20 CALLDATASIZE PUSH1 0x3 NOT ADD SLT PUSH2 0x484 JUMPI PUSH2 0x2785 PUSH2 0x3DA1 JUMP JUMPDEST PUSH1 0x4 CALLDATALOAD PUSH2 0x16C SSTORE DUP1 RETURN JUMPDEST DUP1 SLOAD DUP3 LT ISZERO PUSH2 0x27A4 JUMPI PUSH0 MSTORE PUSH1 0x20 PUSH0 KECCAK256 ADD SWAP1 PUSH0 SWAP1 JUMP JUMPDEST PUSH4 0x4E487B71 PUSH1 0xE0 SHL PUSH0 MSTORE PUSH1 0x32 PUSH1 0x4 MSTORE PUSH1 0x24 PUSH0 REVERT JUMPDEST CALLDATALOAD SWAP1 PUSH1 0x1 PUSH1 0x1 PUSH1 0xA0 SHL SUB DUP3 AND DUP3 SUB PUSH2 0x4FB JUMPI JUMP JUMPDEST SWAP1 PUSH1 0x1F DUP1 NOT SWAP2 ADD AND DUP2 ADD SWAP1 DUP2 LT PUSH8 0xFFFFFFFFFFFFFFFF DUP3 GT OR PUSH2 0x27EE JUMPI PUSH1 0x40 MSTORE JUMP JUMPDEST PUSH4 0x4E487B71 PUSH1 0xE0 SHL PUSH0 MSTORE PUSH1 0x41 PUSH1 0x4 MSTORE PUSH1 0x24 PUSH0 REVERT JUMPDEST SWAP2 SWAP1 DUP3 PUSH1 0xE0 SWAP2 SUB SLT PUSH2 0x4FB JUMPI PUSH1 0x40 MLOAD PUSH2 0x281C PUSH1 0xE0 DUP3 PUSH2 0x27CC JUMP JUMPDEST PUSH1 0xC0 PUSH2 0x2875 DUP2 DUP4 SWAP6 PUSH2 0x282D DUP2 PUSH2 0x27B8 JUMP JUMPDEST DUP6 MSTORE PUSH1 0x20 DUP2 ADD CALLDATALOAD PUSH1 0x20 DUP7 ADD MSTORE PUSH1 0x40 DUP2 ADD CALLDATALOAD PUSH1 0x40 DUP7 ADD MSTORE PUSH1 0x60 DUP2 ADD CALLDATALOAD PUSH1 0x60 DUP7 ADD MSTORE PUSH2 0x2859 PUSH1 0x80 DUP3 ADD PUSH2 0x27B8 JUMP JUMPDEST PUSH1 0x80 DUP7 ADD MSTORE PUSH2 0x286A PUSH1 0xA0 DUP3 ADD PUSH2 0x27B8 JUMP JUMPDEST PUSH1 0xA0 DUP7 ADD MSTORE ADD PUSH2 0x27B8 JUMP JUMPDEST SWAP2 ADD MSTORE JUMP JUMPDEST DUP1 SLOAD DUP3 LT ISZERO PUSH2 0x27A4 JUMPI PUSH0 MSTORE PUSH1 0x20 PUSH0 KECCAK256 SWAP1 PUSH1 0x1 SHL ADD SWAP1 PUSH0 SWAP1 JUMP JUMPDEST PUSH8 0xFFFFFFFFFFFFFFFF DUP2 GT PUSH2 0x27EE JUMPI PUSH1 0x1F ADD PUSH1 0x1F NOT AND PUSH1 0x20 ADD SWAP1 JUMP JUMPDEST ISZERO PUSH2 0x28B6 JUMPI JUMP JUMPDEST PUSH1 0x40 MLOAD PUSH3 0x461BCD PUSH1 0xE5 SHL DUP2 MSTORE PUSH1 0x20 PUSH1 0x4 DUP3 ADD MSTORE PUSH1 0x2C PUSH1 0x24 DUP3 ADD MSTORE PUSH32 0x46756E6374696F6E206D7573742062652063616C6C6564207468726F75676820 PUSH1 0x44 DUP3 ADD MSTORE PUSH12 0x19195B1959D85D1958D85B1B PUSH1 0xA2 SHL PUSH1 0x64 DUP3 ADD MSTORE PUSH1 0x84 SWAP1 REVERT JUMPDEST ISZERO PUSH2 0x2917 JUMPI JUMP JUMPDEST PUSH1 0x40 MLOAD PUSH3 0x461BCD PUSH1 0xE5 SHL DUP2 MSTORE PUSH1 0x20 PUSH1 0x4 DUP3 ADD MSTORE PUSH1 0x2C PUSH1 0x24 DUP3 ADD MSTORE PUSH32 0x46756E6374696F6E206D7573742062652063616C6C6564207468726F75676820 PUSH1 0x44 DUP3 ADD MSTORE PUSH12 0x6163746976652070726F7879 PUSH1 0xA0 SHL PUSH1 0x64 DUP3 ADD MSTORE PUSH1 0x84 SWAP1 REVERT JUMPDEST SWAP1 SWAP2 PUSH1 0xFF PUSH32 0x4910FDFA16FED3260ED0E7147F7CC6DA11A60208B5B9406D12A635614FFD9143 SLOAD AND PUSH0 EQ PUSH2 0x29AB JUMPI POP PUSH2 0x29A9 SWAP2 POP PUSH2 0x2BD5 JUMP JUMPDEST JUMP JUMPDEST PUSH1 0x40 DUP1 MLOAD PUSH4 0x52D1902D PUSH1 0xE0 SHL DUP2 MSTORE PUSH1 0x20 SWAP5 SWAP2 SWAP4 SWAP3 SWAP1 PUSH1 0x1 PUSH1 0x1 PUSH1 0xA0 SHL SUB DUP5 AND SWAP1 DUP7 DUP2 PUSH1 0x4 DUP2 DUP6 GAS STATICCALL PUSH0 SWAP2 DUP2 PUSH2 0x2BA6 JUMPI JUMPDEST POP PUSH2 0x2A3B JUMPI DUP6 MLOAD PUSH3 0x461BCD PUSH1 0xE5 SHL DUP2 MSTORE PUSH1 0x4 DUP2 ADD DUP9 SWAP1 MSTORE PUSH1 0x2E PUSH1 0x24 DUP3 ADD MSTORE PUSH32 0x45524331393637557067726164653A206E657720696D706C656D656E74617469 PUSH1 0x44 DUP3 ADD MSTORE PUSH14 0x6F6E206973206E6F742055555053 PUSH1 0x90 SHL PUSH1 0x64 DUP3 ADD MSTORE PUSH1 0x84 SWAP1 REVERT JUMPDEST SWAP4 SWAP6 SWAP3 SWAP5 SWAP3 SWAP4 PUSH32 0xC9F76B5EC45E5CDEF99837D7B6D2467235C1DF8933C8CA56DF5C35AFA2C7D444 ADD PUSH2 0x2B50 JUMPI PUSH2 0x2A70 DUP7 PUSH2 0x2BD5 JUMP JUMPDEST PUSH32 0xBC7CD75A20EE27FD9ADEBAB32041F755214DBC6BFFA90CC0225B39DA2E5C2D3B PUSH0 DUP1 LOG2 DUP4 MLOAD ISZERO SWAP1 DUP2 ISZERO SWAP2 PUSH2 0x2B48 JUMPI JUMPDEST POP PUSH2 0x2AAC JUMPI JUMPDEST POP POP POP POP JUMP JUMPDEST PUSH2 0x2B34 SWAP4 PUSH0 DUP1 PUSH2 0x2ABC PUSH1 0x27 PUSH2 0x2893 JUMP JUMPDEST SWAP6 PUSH2 0x2AC9 DUP6 MLOAD SWAP8 DUP9 PUSH2 0x27CC JUMP JUMPDEST PUSH1 0x27 DUP8 MSTORE PUSH32 0x416464726573733A206C6F772D6C6576656C2064656C65676174652063616C6C DUP7 DUP9 ADD MSTORE PUSH7 0x819985A5B1959 PUSH1 0xCA SHL DUP6 DUP9 ADD MSTORE DUP6 DUP2 MLOAD SWAP2 ADD DUP5 GAS DELEGATECALL SWAP2 RETURNDATASIZE ISZERO PUSH2 0x2B3E JUMPI RETURNDATASIZE PUSH2 0x2B26 PUSH2 0x2B1D DUP3 PUSH2 0x2893 JUMP JUMPDEST SWAP3 MLOAD SWAP3 DUP4 PUSH2 0x27CC JUMP JUMPDEST DUP2 MSTORE PUSH0 DUP2 SWAP5 RETURNDATASIZE SWAP3 ADD RETURNDATACOPY PUSH2 0x2C77 JUMP JUMPDEST POP PUSH0 DUP1 DUP1 DUP1 PUSH2 0x2AA6 JUMP JUMPDEST POP PUSH1 0x60 SWAP3 POP PUSH2 0x2C77 JUMP JUMPDEST SWAP1 POP PUSH0 PUSH2 0x2AA0 JUMP JUMPDEST DUP3 MLOAD PUSH3 0x461BCD PUSH1 0xE5 SHL DUP2 MSTORE PUSH1 0x4 DUP2 ADD DUP6 SWAP1 MSTORE PUSH1 0x29 PUSH1 0x24 DUP3 ADD MSTORE PUSH32 0x45524331393637557067726164653A20756E737570706F727465642070726F78 PUSH1 0x44 DUP3 ADD MSTORE PUSH9 0x1A58589B1955555251 PUSH1 0xBA SHL PUSH1 0x64 DUP3 ADD MSTORE PUSH1 0x84 SWAP1 REVERT JUMPDEST SWAP1 SWAP2 DUP9 DUP3 DUP2 RETURNDATASIZE DUP4 GT PUSH2 0x2BCE JUMPI JUMPDEST PUSH2 0x2BBD DUP2 DUP4 PUSH2 0x27CC JUMP JUMPDEST DUP2 ADD SUB SLT PUSH2 0x484 JUMPI POP MLOAD SWAP1 PUSH0 PUSH2 0x29DB JUMP JUMPDEST POP RETURNDATASIZE PUSH2 0x2BB3 JUMP JUMPDEST DUP1 EXTCODESIZE ISZERO PUSH2 0x2C1C JUMPI PUSH32 0x360894A13BA1A3210667C828492DB98DCA3E2076CC3735A920A3CA505D382BBC DUP1 SLOAD PUSH1 0x1 PUSH1 0x1 PUSH1 0xA0 SHL SUB NOT AND PUSH1 0x1 PUSH1 0x1 PUSH1 0xA0 SHL SUB SWAP1 SWAP3 AND SWAP2 SWAP1 SWAP2 OR SWAP1 SSTORE JUMP JUMPDEST PUSH1 0x40 MLOAD PUSH3 0x461BCD PUSH1 0xE5 SHL DUP2 MSTORE PUSH1 0x20 PUSH1 0x4 DUP3 ADD MSTORE PUSH1 0x2D PUSH1 0x24 DUP3 ADD MSTORE PUSH32 0x455243313936373A206E657720696D706C656D656E746174696F6E206973206E PUSH1 0x44 DUP3 ADD MSTORE PUSH13 0x1BDD08184818DBDB9D1C9858DD PUSH1 0x9A SHL PUSH1 0x64 DUP3 ADD MSTORE PUSH1 0x84 SWAP1 REVERT JUMPDEST SWAP2 SWAP3 SWAP1 ISZERO PUSH2 0x2CD9 JUMPI POP DUP2 MLOAD ISZERO PUSH2 0x2C8B JUMPI POP SWAP1 JUMP JUMPDEST EXTCODESIZE ISZERO PUSH2 0x2C94 JUMPI SWAP1 JUMP JUMPDEST PUSH1 0x40 MLOAD PUSH3 0x461BCD PUSH1 0xE5 SHL DUP2 MSTORE PUSH1 0x20 PUSH1 0x4 DUP3 ADD MSTORE PUSH1 0x1D PUSH1 0x24 DUP3 ADD MSTORE PUSH32 0x416464726573733A2063616C6C20746F206E6F6E2D636F6E7472616374000000 PUSH1 0x44 DUP3 ADD MSTORE PUSH1 0x64 SWAP1 REVERT JUMPDEST DUP3 MLOAD SWAP1 SWAP2 POP ISZERO PUSH2 0x2CEC JUMPI POP DUP1 MLOAD SWAP1 PUSH1 0x20 ADD REVERT JUMPDEST PUSH1 0x40 MLOAD SWAP1 PUSH3 0x461BCD PUSH1 0xE5 SHL DUP3 MSTORE DUP2 PUSH1 0x20 DUP1 PUSH1 0x4 DUP4 ADD MSTORE DUP3 MLOAD SWAP1 DUP2 PUSH1 0x24 DUP5 ADD MSTORE PUSH0 SWAP4 JUMPDEST DUP3 DUP6 LT PUSH2 0x2D30 JUMPI POP POP PUSH1 0x44 SWAP3 POP PUSH0 DUP4 DUP3 DUP5 ADD ADD MSTORE PUSH1 0x1F DUP1 NOT SWAP2 ADD AND DUP2 ADD SUB ADD SWAP1 REVERT JUMPDEST DUP5 DUP2 ADD DUP3 ADD MLOAD DUP7 DUP7 ADD PUSH1 0x44 ADD MSTORE SWAP4 DUP2 ADD SWAP4 DUP6 SWAP4 POP PUSH2 0x2D0E JUMP JUMPDEST DUP1 MLOAD DUP3 LT ISZERO PUSH2 0x27A4 JUMPI PUSH1 0x20 SWAP2 PUSH1 0x5 SHL ADD ADD SWAP1 JUMP JUMPDEST SWAP2 SWAP1 DUP3 ADD DUP1 SWAP3 GT PUSH2 0xA8E JUMPI JUMP JUMPDEST SWAP1 PUSH0 SWAP2 PUSH0 SWAP1 PUSH2 0x169 DUP1 SLOAD SWAP1 PUSH0 SWAP3 JUMPDEST DUP3 DUP5 LT PUSH2 0x2D9E JUMPI POP POP POP POP PUSH2 0x2D9A PUSH8 0xDE0B6B3A7640000 SWAP2 PUSH2 0x16B SLOAD SWAP1 PUSH2 0x2E7A JUMP JUMPDEST DIV SWAP1 JUMP JUMPDEST SWAP1 SWAP2 SWAP3 SWAP4 SWAP6 PUSH2 0x2DEB PUSH2 0x2DDA PUSH2 0x2DE5 PUSH1 0x1 SWAP4 PUSH2 0x2DDF PUSH2 0x2DBC DUP11 DUP9 PUSH2 0x2D49 JUMP JUMPDEST MLOAD PUSH2 0x2DC7 DUP2 DUP13 PUSH2 0x2E10 JUMP JUMPDEST SWAP6 SWAP1 PUSH2 0x2DD3 DUP14 DUP13 PUSH2 0x287A JUMP JUMPDEST POP SLOAD PUSH2 0x2D5D JUMP JUMPDEST PUSH2 0x3E4F JUMP JUMPDEST SWAP1 PUSH2 0x2D5D JUMP JUMPDEST SWAP9 PUSH2 0x2D5D JUMP JUMPDEST SWAP5 ADD SWAP3 SWAP2 SWAP1 PUSH2 0x2D78 JUMP JUMPDEST SWAP2 SWAP1 SWAP2 PUSH0 DUP4 DUP3 ADD SWAP4 DUP5 SLT SWAP2 SLT SWAP1 DUP1 ISZERO DUP3 AND SWAP2 ISZERO AND OR PUSH2 0xA8E JUMPI JUMP JUMPDEST SWAP2 SWAP1 PUSH0 SWAP1 PUSH2 0x2E3C DUP2 PUSH0 SWAP6 PUSH2 0x2E32 PUSH2 0x2E29 DUP3 PUSH2 0x180 PUSH2 0x278F JUMP JUMPDEST SWAP4 SWAP1 SLOAD SWAP3 PUSH2 0x2EC3 JUMP JUMPDEST SWAP2 PUSH1 0x3 SHL SHR PUSH2 0x2DF5 JUMP JUMPDEST PUSH0 DUP2 SGT PUSH2 0x2E4A JUMPI JUMPDEST POP POP SWAP2 SWAP1 JUMP JUMPDEST PUSH2 0x2E72 SWAP2 SWAP5 POP PUSH2 0x2E6C SWAP3 POP DUP1 SWAP5 PUSH8 0xDE0B6B3A7640000 SWAP4 DUP5 SWAP2 PUSH2 0x16C SLOAD PUSH2 0x2E7A JUMP JUMPDEST DIV PUSH2 0x2E7A JUMP JUMPDEST DIV PUSH0 DUP1 PUSH2 0x2E44 JUMP JUMPDEST DUP2 DUP2 MUL SWAP3 SWAP2 DUP2 ISZERO SWAP2 DUP5 DIV EQ OR ISZERO PUSH2 0xA8E JUMPI JUMP JUMPDEST DUP2 ISZERO PUSH2 0x2E97 JUMPI DIV SWAP1 JUMP JUMPDEST PUSH4 0x4E487B71 PUSH1 0xE0 SHL PUSH0 MSTORE PUSH1 0x12 PUSH1 0x4 MSTORE PUSH1 0x24 PUSH0 REVERT JUMPDEST DUP2 DUP2 SUB SWAP3 SWAP2 PUSH0 SGT DUP1 ISZERO DUP3 DUP6 SGT AND SWAP2 DUP5 SLT AND OR PUSH2 0xA8E JUMPI JUMP JUMPDEST PUSH2 0x2ECF DUP2 PUSH2 0x169 PUSH2 0x287A JUMP JUMPDEST POP SLOAD SWAP1 PUSH8 0xDE0B6B3A7640000 SWAP2 DUP3 DUP2 MUL SWAP3 DUP2 DUP5 DIV EQ SWAP1 ISZERO OR ISZERO PUSH2 0xA8E JUMPI PUSH2 0x2F1B SWAP3 PUSH2 0x2F0F PUSH2 0x2F02 PUSH2 0x2F15 SWAP4 PUSH2 0x181 PUSH2 0x278F JUMP JUMPDEST SWAP1 SLOAD SWAP1 PUSH1 0x3 SHL SHR DUP5 PUSH2 0x2E8D JUMP JUMPDEST SWAP3 PUSH2 0x2E8D JUMP JUMPDEST SWAP1 PUSH2 0x2EAB JUMP JUMPDEST SWAP1 JUMP JUMPDEST DUP1 ISZERO PUSH2 0x2F34 JUMPI PUSH2 0x2DDA PUSH2 0x2F1B SWAP3 PUSH2 0x163 SLOAD PUSH2 0x2F3B JUMP JUMPDEST POP POP PUSH0 NOT SWAP1 JUMP JUMPDEST SWAP2 SWAP1 DUP3 SUB SWAP2 DUP3 GT PUSH2 0xA8E JUMPI JUMP JUMPDEST PUSH8 0xFFFFFFFFFFFFFFFF DUP2 GT PUSH2 0x27EE JUMPI PUSH1 0x5 SHL PUSH1 0x20 ADD SWAP1 JUMP JUMPDEST SWAP1 PUSH2 0x2F6A DUP3 PUSH2 0x2F48 JUMP JUMPDEST PUSH2 0x2F77 PUSH1 0x40 MLOAD SWAP2 DUP3 PUSH2 0x27CC JUMP JUMPDEST DUP3 DUP2 MSTORE DUP1 SWAP3 PUSH2 0x2F88 PUSH1 0x1F NOT SWAP2 PUSH2 0x2F48 JUMP JUMPDEST ADD SWAP1 PUSH1 0x20 CALLDATASIZE SWAP2 ADD CALLDATACOPY JUMP JUMPDEST DUP1 SLOAD SWAP1 PUSH1 0x1 PUSH1 0x40 SHL DUP3 LT ISZERO PUSH2 0x27EE JUMPI DUP2 PUSH2 0x2FB4 SWAP2 PUSH1 0x1 PUSH2 0x2FCA SWAP5 ADD DUP2 SSTORE PUSH2 0x278F JUMP JUMPDEST DUP2 SWAP4 SWAP2 SLOAD SWAP1 PUSH1 0x3 SHL SWAP2 DUP3 SHL SWAP2 PUSH0 NOT SWAP1 SHL NOT AND OR SWAP1 JUMP JUMPDEST SWAP1 SSTORE JUMP JUMPDEST PUSH2 0x163 SLOAD DUP1 ISZERO PUSH2 0x3077 JUMPI PUSH2 0x169 SWAP1 DUP2 SLOAD SWAP2 PUSH0 SWAP1 PUSH2 0x2FEA DUP5 PUSH2 0x2F60 JUMP JUMPDEST SWAP1 DUP3 SWAP1 JUMPDEST DUP6 DUP3 LT PUSH2 0x3033 JUMPI POP POP PUSH0 JUMPDEST DUP5 DUP2 LT PUSH2 0x3007 JUMPI POP POP POP POP POP JUMP JUMPDEST DUP1 PUSH2 0x302D PUSH2 0x3025 DUP7 PUSH2 0x969 DUP8 PUSH2 0x301F PUSH1 0x1 SWAP8 DUP10 PUSH2 0x2D49 JUMP JUMPDEST MLOAD PUSH2 0x2E7A JUMP JUMPDEST PUSH2 0x16A PUSH2 0x2F92 JUMP JUMPDEST ADD PUSH2 0x2FF9 JUMP JUMPDEST SWAP1 SWAP3 PUSH2 0x306F PUSH1 0x1 SWAP2 PUSH2 0x3044 DUP7 PUSH2 0x30A2 JUMP JUMPDEST PUSH2 0x304E DUP8 DUP8 PUSH2 0x2D49 JUMP JUMPDEST MSTORE PUSH2 0x2DDF PUSH2 0x305C DUP8 DUP7 PUSH2 0x287A JUMP JUMPDEST POP SLOAD PUSH2 0x3068 DUP9 DUP9 PUSH2 0x2D49 JUMP JUMPDEST MLOAD SWAP1 PUSH2 0x3E4F JUMP JUMPDEST SWAP4 ADD SWAP1 PUSH2 0x2FEE JUMP JUMPDEST POP JUMP JUMPDEST PUSH1 0x1 PUSH1 0x1 PUSH1 0xA0 SHL SUB AND PUSH0 SWAP1 DUP2 MSTORE PUSH2 0x168 PUSH1 0x20 MSTORE PUSH1 0x40 SWAP1 KECCAK256 PUSH1 0x1 DUP2 ADD SLOAD PUSH1 0xFF AND ISZERO PUSH2 0x71D JUMPI SLOAD SWAP1 JUMP JUMPDEST PUSH2 0x30AE SWAP1 PUSH2 0x169 PUSH2 0x287A JUMP JUMPDEST POP PUSH1 0x1 ADD SLOAD PUSH1 0x1 PUSH1 0x1 PUSH1 0xA0 SHL SUB AND PUSH2 0x30C5 DUP2 PUSH2 0x30F8 JUMP JUMPDEST SWAP2 SWAP1 SWAP2 ISZERO PUSH2 0x4E3 JUMPI POP SWAP1 JUMP JUMPDEST MLOAD SWAP1 DUP2 ISZERO ISZERO DUP3 SUB PUSH2 0x4FB JUMPI JUMP JUMPDEST SWAP2 SWAP1 DUP3 PUSH1 0x40 SWAP2 SUB SLT PUSH2 0x4FB JUMPI PUSH2 0x2F1B PUSH1 0x20 DUP4 MLOAD SWAP4 ADD PUSH2 0x30D1 JUMP JUMPDEST PUSH1 0x40 DUP1 MLOAD PUSH4 0x59E02DD7 PUSH1 0xE0 SHL DUP2 MSTORE SWAP3 SWAP2 DUP4 SWAP1 PUSH1 0x4 SWAP1 DUP3 SWAP1 PUSH1 0x1 PUSH1 0x1 PUSH1 0xA0 SHL SUB AND GAS STATICCALL SWAP2 DUP3 ISZERO PUSH2 0x314D JUMPI PUSH0 SWAP1 DUP2 SWAP4 PUSH2 0x312E JUMPI POP SWAP2 SWAP1 JUMP JUMPDEST SWAP1 POP PUSH2 0x3149 SWAP2 SWAP3 POP PUSH1 0x40 RETURNDATASIZE DUP2 GT PUSH2 0x759 JUMPI PUSH2 0x749 DUP2 DUP4 PUSH2 0x27CC JUMP JUMPDEST SWAP1 SWAP2 JUMP JUMPDEST PUSH1 0x40 MLOAD RETURNDATASIZE PUSH0 DUP3 RETURNDATACOPY RETURNDATASIZE SWAP1 REVERT JUMPDEST PUSH2 0x169 SLOAD SWAP1 PUSH2 0x3166 DUP3 PUSH2 0x2F60 JUMP JUMPDEST SWAP2 PUSH0 JUMPDEST DUP2 DUP2 LT PUSH2 0x3174 JUMPI POP POP JUMP JUMPDEST DUP1 PUSH2 0x3180 PUSH1 0x1 SWAP3 PUSH2 0x30A2 JUMP JUMPDEST PUSH2 0x318A DUP3 DUP8 PUSH2 0x2D49 JUMP JUMPDEST MSTORE ADD PUSH2 0x3169 JUMP JUMPDEST SWAP1 PUSH2 0x31B2 PUSH8 0xDE0B6B3A7640000 SWAP3 DUP4 PUSH2 0x187 SLOAD PUSH2 0x184 SLOAD SWAP3 NUMBER ADD SUB MUL PUSH2 0x2E8D JUMP JUMPDEST DUP3 DUP2 LT ISZERO PUSH2 0x31CF JUMPI DUP3 SUB SWAP2 DUP1 DUP4 PUSH2 0x185 SLOAD MUL DIV SWAP3 PUSH2 0x186 SLOAD MUL SDIV SWAP1 JUMP JUMPDEST POP PUSH0 SWAP2 POP DUP2 SWAP1 JUMP JUMPDEST SWAP1 SWAP2 PUSH2 0x31E1 PUSH2 0x3237 JUMP JUMPDEST SWAP3 SWAP1 DUP1 DUP3 LT ISZERO PUSH2 0x322E JUMPI DUP4 SWAP2 PUSH2 0x31F6 SWAP2 PUSH2 0x2F3B JUMP JUMPDEST SWAP4 GT ISZERO PUSH2 0x3229 JUMPI DUP2 DUP2 LT ISZERO PUSH2 0x3222 JUMPI PUSH2 0x320E SWAP2 PUSH2 0x2F3B JUMP JUMPDEST PUSH1 0x1 SHR DUP1 DUP3 LT ISZERO PUSH2 0x321D JUMPI POP SWAP1 JUMP JUMPDEST SWAP1 POP SWAP1 JUMP JUMPDEST POP POP POP PUSH0 SWAP1 JUMP JUMPDEST POP POP SWAP1 JUMP JUMPDEST POP POP POP POP POP PUSH0 SWAP1 JUMP JUMPDEST PUSH2 0x182 SLOAD PUSH1 0x40 DUP1 MLOAD PUSH4 0x59E02DD7 PUSH1 0xE0 SHL DUP1 DUP3 MSTORE SWAP4 SWAP3 SWAP1 SWAP2 SWAP1 PUSH1 0x1 PUSH1 0x1 PUSH1 0xA0 SHL SUB SWAP1 DUP2 AND DUP3 DUP5 PUSH1 0x4 DUP2 DUP5 GAS STATICCALL DUP1 ISZERO PUSH2 0x3324 JUMPI PUSH0 SWAP5 DUP6 SWAP2 PUSH2 0x3301 JUMPI JUMPDEST POP ISZERO PUSH2 0x32EA JUMPI POP PUSH2 0x183 SLOAD AND SWAP1 DUP1 MLOAD SWAP5 DUP6 MSTORE DUP1 DUP6 PUSH1 0x4 DUP2 DUP6 GAS STATICCALL DUP1 ISZERO PUSH2 0x32E0 JUMPI PUSH0 SWAP6 DUP7 SWAP2 PUSH2 0x32BD JUMPI JUMPDEST POP ISZERO PUSH2 0x32A6 JUMPI POP POP SWAP2 SWAP1 JUMP JUMPDEST PUSH1 0x24 SWAP3 POP MLOAD SWAP1 PUSH4 0x5E89893 PUSH1 0xE1 SHL DUP3 MSTORE PUSH1 0x4 DUP3 ADD MSTORE REVERT JUMPDEST SWAP1 POP DUP2 PUSH2 0x32D7 SWAP3 SWAP7 POP RETURNDATASIZE DUP8 GT PUSH2 0x759 JUMPI PUSH2 0x749 DUP2 DUP4 PUSH2 0x27CC JUMP JUMPDEST SWAP5 SWAP1 SWAP5 PUSH0 PUSH2 0x329A JUMP JUMPDEST POP MLOAD RETURNDATASIZE PUSH0 DUP3 RETURNDATACOPY RETURNDATASIZE SWAP1 REVERT JUMPDEST PUSH1 0x24 SWAP1 DUP4 MLOAD SWAP1 PUSH4 0x5E89893 PUSH1 0xE1 SHL DUP3 MSTORE PUSH1 0x4 DUP3 ADD MSTORE REVERT JUMPDEST SWAP1 POP PUSH2 0x331B SWAP2 SWAP5 POP DUP4 RETURNDATASIZE DUP6 GT PUSH2 0x759 JUMPI PUSH2 0x749 DUP2 DUP4 PUSH2 0x27CC JUMP JUMPDEST SWAP4 SWAP1 SWAP4 PUSH0 PUSH2 0x3271 JUMP JUMPDEST DUP4 MLOAD RETURNDATASIZE PUSH0 DUP3 RETURNDATACOPY RETURNDATASIZE SWAP1 REVERT JUMPDEST SWAP1 DUP2 MSTORE PUSH2 0x100 DUP2 ADD SWAP3 SWAP2 PUSH1 0xE0 SWAP1 PUSH1 0xC0 SWAP1 PUSH1 0x1 PUSH1 0x1 PUSH1 0xA0 SHL SUB DUP1 PUSH2 0x3350 DUP4 PUSH2 0x27B8 JUMP JUMPDEST AND PUSH1 0x20 DUP7 ADD MSTORE PUSH2 0x3362 PUSH1 0x20 DUP4 ADD PUSH2 0x27B8 JUMP JUMPDEST AND PUSH1 0x40 DUP6 ADD MSTORE PUSH1 0x40 DUP2 ADD CALLDATALOAD PUSH1 0x60 DUP6 ADD MSTORE PUSH1 0x60 DUP2 ADD CALLDATALOAD PUSH1 0x80 DUP6 ADD MSTORE PUSH1 0x80 DUP2 ADD CALLDATALOAD PUSH1 0xA0 DUP6 ADD MSTORE PUSH1 0xA0 DUP2 ADD CALLDATALOAD DUP3 DUP6 ADD MSTORE ADD CALLDATALOAD SWAP2 ADD MSTORE JUMP JUMPDEST PUSH1 0x40 MLOAD SWAP1 PUSH2 0x33A5 PUSH1 0x80 DUP4 PUSH2 0x27CC JUMP JUMPDEST PUSH0 PUSH1 0x60 DUP4 DUP3 DUP2 MSTORE DUP3 PUSH1 0x20 DUP3 ADD MSTORE DUP3 PUSH1 0x40 DUP3 ADD MSTORE ADD MSTORE JUMP JUMPDEST PUSH2 0x3433 SWAP4 PUSH2 0x33FA PUSH0 SWAP3 PUSH1 0x20 SWAP6 PUSH2 0x33D4 DUP3 PUSH2 0x169 PUSH2 0x287A JUMP JUMPDEST POP PUSH2 0x33E0 DUP8 DUP3 SLOAD PUSH2 0x2D5D JUMP JUMPDEST SWAP1 SSTORE PUSH2 0x33F0 PUSH2 0x163 SWAP2 DUP3 SLOAD PUSH2 0x2D5D JUMP JUMPDEST SWAP1 SSTORE PUSH2 0x167 PUSH2 0x278F JUMP JUMPDEST SWAP1 SLOAD PUSH1 0x40 MLOAD PUSH4 0x40C10F19 PUSH1 0xE0 SHL DUP2 MSTORE PUSH1 0x1 PUSH1 0x1 PUSH1 0xA0 SHL SUB SWAP1 SWAP4 AND PUSH1 0x4 DUP5 ADD MSTORE PUSH1 0x24 DUP4 ADD SWAP5 SWAP1 SWAP5 MSTORE SWAP1 SWAP5 DUP6 SWAP4 SWAP3 DUP5 SWAP3 SWAP1 SWAP2 DUP4 SWAP1 PUSH1 0x44 DUP3 ADD SWAP1 JUMP JUMPDEST SUB SWAP4 PUSH1 0x3 SWAP2 SWAP1 SWAP2 SHL SHR PUSH1 0x1 PUSH1 0x1 PUSH1 0xA0 SHL SUB AND GAS CALL DUP1 ISZERO PUSH2 0x314D JUMPI PUSH2 0x3454 JUMPI POP JUMP JUMPDEST PUSH1 0x20 DUP2 RETURNDATASIZE DUP3 GT PUSH2 0x347D JUMPI JUMPDEST DUP2 PUSH2 0x346C PUSH1 0x20 SWAP4 DUP4 PUSH2 0x27CC JUMP JUMPDEST DUP2 ADD SUB SLT PUSH2 0x4FB JUMPI PUSH2 0x3077 SWAP1 PUSH2 0x30D1 JUMP JUMPDEST RETURNDATASIZE SWAP2 POP PUSH2 0x345F JUMP JUMPDEST PUSH2 0x34EA SWAP3 PUSH1 0x20 SWAP3 PUSH2 0x166 PUSH2 0x349A DUP5 DUP3 SLOAD PUSH2 0x2D5D JUMP JUMPDEST SWAP1 SSTORE PUSH2 0x34AA PUSH2 0x163 SWAP2 DUP3 SLOAD PUSH2 0x2D5D JUMP JUMPDEST SWAP1 SSTORE PUSH2 0x165 SLOAD PUSH1 0x40 MLOAD PUSH4 0x40C10F19 PUSH1 0xE0 SHL DUP2 MSTORE PUSH1 0x1 PUSH1 0x1 PUSH1 0xA0 SHL SUB SWAP3 DUP4 AND PUSH1 0x4 DUP3 ADD MSTORE PUSH1 0x24 DUP2 ADD SWAP4 SWAP1 SWAP4 MSTORE SWAP2 SWAP4 DUP5 SWAP3 SWAP1 SWAP2 AND SWAP1 DUP3 SWAP1 PUSH0 SWAP1 DUP3 SWAP1 PUSH1 0x44 DUP3 ADD SWAP1 JUMP JUMPDEST SUB SWAP3 GAS CALL DUP1 ISZERO PUSH2 0x314D JUMPI PUSH2 0x3454 JUMPI POP JUMP JUMPDEST SWAP2 SWAP1 PUSH2 0x3506 SWAP1 PUSH2 0x2D6A JUMP JUMPDEST SWAP2 SWAP1 SWAP3 PUSH2 0x3513 DUP4 DUP6 PUSH2 0x2F1E JUMP JUMPDEST SWAP1 DUP1 DUP3 GT ISZERO PUSH2 0x3520 JUMPI POP POP JUMP JUMPDEST PUSH1 0x44 SWAP3 POP PUSH1 0x40 MLOAD SWAP2 PUSH4 0x79121201 PUSH1 0xE0 SHL DUP4 MSTORE PUSH1 0x4 DUP4 ADD MSTORE PUSH1 0x24 DUP3 ADD MSTORE REVERT JUMPDEST PUSH2 0x2FB4 PUSH2 0x2FCA SWAP2 PUSH2 0x354F DUP5 DUP3 PUSH2 0x2EC3 JUMP JUMPDEST PUSH2 0x3584 PUSH2 0x355E DUP4 PUSH2 0x180 PUSH2 0x278F JUMP JUMPDEST PUSH2 0x3571 DUP3 SWAP5 SWAP3 SLOAD SWAP3 DUP4 DUP4 PUSH1 0x3 SHL SHR PUSH2 0x2DF5 JUMP JUMPDEST SWAP2 SWAP1 PUSH1 0x3 SHL SWAP2 DUP3 SHL SWAP2 PUSH0 NOT SWAP1 SHL NOT AND OR SWAP1 JUMP JUMPDEST SWAP1 SSTORE PUSH2 0x181 PUSH2 0x278F JUMP JUMPDEST SWAP1 PUSH2 0x166 SLOAD SWAP1 DUP2 ISZERO PUSH2 0x35AE JUMPI PUSH2 0x2F1B SWAP3 PUSH2 0x1018 PUSH2 0x2DDA SWAP3 PUSH2 0x163 SLOAD PUSH2 0x2F3B JUMP JUMPDEST POP POP POP PUSH8 0xDE0B6B3A7640000 SWAP1 JUMP JUMPDEST SWAP3 SWAP1 SWAP4 SWAP2 PUSH0 SWAP2 PUSH0 SWAP2 DUP3 SWAP7 PUSH2 0x35CF PUSH2 0x3396 JUMP JUMPDEST SWAP7 PUSH1 0x1 PUSH1 0x1 PUSH1 0xA0 SHL SUB SWAP2 DUP6 SWAP1 DUP4 AND DUP1 PUSH2 0x37DB JUMPI JUMPDEST POP DUP3 PUSH2 0x161 SLOAD AND DUP4 PUSH1 0x40 MLOAD SWAP4 PUSH4 0x6EB1769F PUSH1 0xE1 SHL DUP6 MSTORE AND DUP1 PUSH1 0x4 DUP6 ADD MSTORE ADDRESS PUSH1 0x24 DUP6 ADD MSTORE PUSH1 0x20 SWAP5 DUP6 DUP6 PUSH1 0x44 DUP2 DUP7 GAS STATICCALL SWAP5 DUP6 ISZERO PUSH2 0x37D0 JUMPI DUP5 SWAP6 PUSH2 0x37A1 JUMPI JUMPDEST POP DUP5 PUSH2 0x3680 JUMPI JUMPDEST POP POP POP POP POP DUP7 ADD MLOAD ISZERO PUSH2 0x363C JUMPI JUMPDEST POP POP POP SWAP3 SWAP2 SWAP1 JUMP JUMPDEST SWAP1 SWAP2 SWAP3 POP PUSH2 0x3654 PUSH8 0xDE0B6B3A7640000 SWAP3 DUP4 SWAP3 PUSH2 0x2E7A JUMP JUMPDEST DIV DUP1 DUP6 MSTORE SWAP1 DUP3 ISZERO PUSH2 0x3678 JUMPI PUSH2 0x3670 SWAP3 DIV SWAP1 DUP2 PUSH1 0x40 DUP7 ADD MSTORE PUSH2 0x2D5D JUMP JUMPDEST PUSH0 DUP1 DUP1 PUSH2 0x3634 JUMP JUMPDEST POP SWAP1 POP PUSH2 0x3670 JUMP JUMPDEST PUSH2 0x368E SWAP1 PUSH2 0x162 SLOAD AND PUSH2 0x30F8 JUMP JUMPDEST SWAP3 SWAP1 SWAP3 ISZERO PUSH2 0x3626 JUMPI SWAP1 SWAP2 SWAP3 SWAP4 SWAP12 POP DUP5 DUP12 PUSH2 0x36C8 DUP6 PUSH8 0xDE0B6B3A7640000 PUSH2 0x36C2 PUSH2 0x36B8 DUP14 DUP14 PUSH2 0x2E7A JUMP JUMPDEST PUSH2 0x175 SLOAD SWAP1 PUSH2 0x2E7A JUMP JUMPDEST DIV PUSH2 0x2E8D JUMP JUMPDEST DUP2 DUP4 ADD DUP2 DUP2 MSTORE SWAP6 SWAP1 DUP12 ISZERO PUSH2 0x3797 JUMPI POP PUSH2 0x36F3 SWAP2 PUSH2 0x36E7 PUSH1 0x60 SWAP3 DUP14 PUSH2 0x2E8D JUMP JUMPDEST SWAP2 DUP3 SWAP2 ADD MSTORE DUP6 MLOAD PUSH2 0x2D5D JUMP JUMPDEST DUP1 SWAP14 JUMPDEST LT SWAP3 DUP4 ISZERO PUSH2 0x3722 JUMPI JUMPDEST POP POP POP PUSH2 0x370F JUMPI JUMPDEST DUP1 DUP1 DUP1 PUSH2 0x3626 JUMP JUMPDEST DUP2 SWAP3 SWAP10 POP MSTORE DUP1 PUSH1 0x60 DUP9 ADD MSTORE SWAP7 PUSH0 DUP1 PUSH2 0x3707 JUMP JUMPDEST SWAP1 SWAP2 SWAP3 POP PUSH1 0x24 PUSH1 0x40 MLOAD DUP1 SWAP5 DUP2 SWAP4 PUSH4 0x70A08231 PUSH1 0xE0 SHL DUP4 MSTORE PUSH1 0x4 DUP4 ADD MSTORE GAS STATICCALL SWAP1 DUP2 ISZERO PUSH2 0x378C JUMPI SWAP1 DUP12 SWAP2 DUP5 SWAP2 PUSH2 0x375B JUMPI JUMPDEST POP LT PUSH0 DUP5 DUP2 PUSH2 0x36FF JUMP JUMPDEST DUP1 SWAP3 POP DUP6 DUP1 SWAP3 POP RETURNDATASIZE DUP4 GT PUSH2 0x3785 JUMPI JUMPDEST PUSH2 0x3774 DUP2 DUP4 PUSH2 0x27CC JUMP JUMPDEST DUP2 ADD SUB SLT PUSH2 0x2403 JUMPI DUP11 SWAP1 MLOAD PUSH0 PUSH2 0x3751 JUMP JUMPDEST POP RETURNDATASIZE PUSH2 0x376A JUMP JUMPDEST PUSH1 0x40 MLOAD RETURNDATASIZE DUP6 DUP3 RETURNDATACOPY RETURNDATASIZE SWAP1 REVERT JUMPDEST SWAP2 POP POP DUP1 SWAP14 PUSH2 0x36F6 JUMP JUMPDEST SWAP1 SWAP5 POP DUP6 DUP2 DUP2 RETURNDATASIZE DUP4 GT PUSH2 0x37C9 JUMPI JUMPDEST PUSH2 0x37B9 DUP2 DUP4 PUSH2 0x27CC JUMP JUMPDEST DUP2 ADD SUB SLT PUSH2 0x18D5 JUMPI MLOAD SWAP4 PUSH0 PUSH2 0x361F JUMP JUMPDEST POP RETURNDATASIZE PUSH2 0x37AF JUMP JUMPDEST PUSH1 0x40 MLOAD RETURNDATASIZE DUP7 DUP3 RETURNDATACOPY RETURNDATASIZE SWAP1 REVERT JUMPDEST SWAP1 SWAP6 POP PUSH1 0x20 DUP4 PUSH2 0x1F3 SLOAD AND SWAP2 PUSH1 0x24 PUSH1 0x40 MLOAD DUP1 SWAP5 DUP2 SWAP4 PUSH4 0x64A731E9 PUSH1 0xE0 SHL DUP4 MSTORE PUSH1 0x4 DUP4 ADD MSTORE GAS STATICCALL DUP1 ISZERO PUSH2 0x760 JUMPI DUP7 SWAP1 PUSH2 0x3820 JUMPI JUMPDEST PUSH2 0x3819 SWAP2 POP DUP5 PUSH2 0x2E7A JUMP JUMPDEST SWAP5 PUSH0 PUSH2 0x35E3 JUMP JUMPDEST POP PUSH1 0x20 DUP2 RETURNDATASIZE DUP3 GT PUSH2 0x384B JUMPI JUMPDEST DUP2 PUSH2 0x3839 PUSH1 0x20 SWAP4 DUP4 PUSH2 0x27CC JUMP JUMPDEST DUP2 ADD SUB SLT PUSH2 0x1C62 JUMPI PUSH2 0x3819 SWAP1 MLOAD PUSH2 0x380E JUMP JUMPDEST RETURNDATASIZE SWAP2 POP PUSH2 0x382C JUMP JUMPDEST DUP1 PUSH2 0x385C PUSH2 0x3237 JUMP JUMPDEST SWAP2 SWAP1 SWAP4 PUSH2 0x3868 PUSH0 PUSH2 0x3191 JUMP JUMPDEST SWAP5 ADD SWAP4 DUP3 SWAP2 PUSH2 0x38FF JUMPI JUMPDEST ADD SWAP4 DUP5 PUSH0 DUP1 DUP3 SLT PUSH2 0x38F9 JUMPI POP JUMPDEST DUP5 SUB SWAP2 DUP2 DUP6 GT PUSH2 0x38C1 JUMPI POP POP DUP2 DUP2 GT PUSH2 0x38A3 JUMPI POP POP PUSH2 0x185 SSTORE PUSH2 0x186 SSTORE NUMBER PUSH2 0x187 SSTORE JUMP JUMPDEST PUSH1 0x44 SWAP3 POP PUSH1 0x40 MLOAD SWAP2 PUSH4 0x6DA41E5 PUSH1 0xE1 SHL DUP4 MSTORE PUSH1 0x4 DUP4 ADD MSTORE PUSH1 0x24 DUP3 ADD MSTORE REVERT JUMPDEST SWAP1 DUP1 DUP6 SWAP3 GT PUSH2 0x38E7 JUMPI PUSH1 0x44 SWAP2 PUSH1 0x40 MLOAD SWAP2 PUSH4 0x6DA41E5 PUSH1 0xE1 SHL DUP4 MSTORE PUSH1 0x4 DUP4 ADD MSTORE PUSH1 0x24 DUP3 ADD MSTORE REVERT JUMPDEST PUSH1 0x40 MLOAD PUSH4 0xFB4FD35 PUSH1 0xE1 SHL DUP2 MSTORE PUSH1 0x4 SWAP1 REVERT JUMPDEST SUB PUSH2 0x387F JUMP JUMPDEST SWAP1 POP DUP2 PUSH0 SUB SWAP1 PUSH2 0x3872 JUMP JUMPDEST PUSH2 0x3938 SWAP2 SWAP4 SWAP3 PUSH2 0x391C DUP3 PUSH2 0x169 PUSH2 0x287A JUMP JUMPDEST POP PUSH2 0x3928 DUP7 DUP3 SLOAD PUSH2 0x2F3B JUMP JUMPDEST SWAP1 SSTORE PUSH2 0x33F0 PUSH2 0x163 SWAP2 DUP3 SLOAD PUSH2 0x2F3B JUMP JUMPDEST SWAP1 SLOAD PUSH1 0x3 SWAP2 SWAP1 SWAP2 SHL SHR PUSH1 0x1 PUSH1 0x1 PUSH1 0xA0 SHL SUB AND SWAP2 DUP3 EXTCODESIZE ISZERO PUSH2 0x4FB JUMPI PUSH1 0x40 MLOAD PUSH4 0x2770A7EB PUSH1 0xE2 SHL DUP2 MSTORE PUSH1 0x1 PUSH1 0x1 PUSH1 0xA0 SHL SUB SWAP1 SWAP3 AND PUSH1 0x4 DUP4 ADD MSTORE PUSH1 0x24 DUP3 ADD MSTORE SWAP1 PUSH0 SWAP1 DUP3 SWAP1 DUP2 DUP4 DUP2 PUSH1 0x44 DUP2 ADD JUMPDEST SUB SWAP3 GAS CALL DUP1 ISZERO PUSH2 0x314D JUMPI PUSH2 0x3992 JUMPI POP JUMP JUMPDEST PUSH0 PUSH2 0x29A9 SWAP2 PUSH2 0x27CC JUMP JUMPDEST SWAP2 SWAP1 PUSH2 0x166 PUSH2 0x39AC DUP5 DUP3 SLOAD PUSH2 0x2F3B JUMP JUMPDEST SWAP1 SSTORE PUSH2 0x39BC PUSH2 0x163 SWAP2 DUP3 SLOAD PUSH2 0x2F3B JUMP JUMPDEST SWAP1 SSTORE PUSH2 0x165 SLOAD PUSH1 0x1 PUSH1 0x1 PUSH1 0xA0 SHL SUB AND SWAP2 DUP3 EXTCODESIZE ISZERO PUSH2 0x4FB JUMPI PUSH1 0x40 MLOAD PUSH4 0x2770A7EB PUSH1 0xE2 SHL DUP2 MSTORE PUSH1 0x1 PUSH1 0x1 PUSH1 0xA0 SHL SUB SWAP1 SWAP3 AND PUSH1 0x4 DUP4 ADD MSTORE PUSH1 0x24 DUP3 ADD MSTORE SWAP1 PUSH0 SWAP1 DUP3 SWAP1 DUP2 DUP4 DUP2 PUSH1 0x44 DUP2 ADD PUSH2 0x3981 JUMP JUMPDEST SWAP3 PUSH2 0x3A18 DUP4 PUSH2 0x3A1E SWAP7 SWAP5 SWAP4 SWAP8 SWAP6 PUSH2 0x3BAE JUMP JUMPDEST SWAP1 PUSH2 0x3A47 JUMP JUMPDEST DUP2 DUP2 LT PUSH2 0x3A29 JUMPI POP POP JUMP JUMPDEST PUSH1 0x44 SWAP3 POP PUSH1 0x40 MLOAD SWAP2 PUSH4 0xC39B739F PUSH1 0xE0 SHL DUP4 MSTORE PUSH1 0x4 DUP4 ADD MSTORE PUSH1 0x24 DUP3 ADD MSTORE REVERT JUMPDEST SWAP1 SWAP3 SWAP2 SWAP3 PUSH2 0x3A56 DUP6 DUP5 DUP5 PUSH2 0x3B09 JUMP JUMPDEST PUSH0 SWAP5 DUP2 DUP2 MUL SWAP2 SWAP1 DUP7 DUP3 SLT PUSH1 0x1 PUSH1 0xFF SHL DUP3 EQ AND PUSH2 0x3ADB JUMPI DUP2 DUP4 SDIV EQ SWAP1 ISZERO OR ISZERO PUSH2 0xAA2 JUMPI PUSH8 0xDE0B6B3A763FFFF NOT DUP3 ADD SWAP2 DUP3 GT PUSH2 0xAA2 JUMPI PUSH8 0xDE0B6B3A7640000 SWAP2 DUP3 DUP2 MUL SWAP3 DUP2 DUP5 DIV EQ SWAP1 ISZERO OR ISZERO PUSH2 0xAA2 JUMPI SWAP1 PUSH2 0x3AAF SWAP2 PUSH2 0x3AEF JUMP JUMPDEST SWAP4 DUP4 DUP6 SLT SWAP3 DUP4 ISZERO PUSH2 0x3AC6 JUMPI JUMPDEST POP POP POP PUSH2 0x321D JUMPI POP SWAP1 JUMP JUMPDEST PUSH2 0x3AD1 SWAP3 SWAP4 POP PUSH2 0x2F1E JUMP JUMPDEST GT ISZERO PUSH0 DUP1 DUP1 PUSH2 0x3ABB JUMP JUMPDEST PUSH4 0x4E487B71 PUSH1 0xE0 SHL DUP8 MSTORE PUSH1 0x11 PUSH1 0x4 MSTORE PUSH1 0x24 DUP8 REVERT JUMPDEST DUP2 ISZERO PUSH2 0x2E97 JUMPI PUSH1 0x1 PUSH1 0xFF SHL DUP2 EQ PUSH0 NOT DUP4 EQ AND PUSH2 0xA8E JUMPI SDIV SWAP1 JUMP JUMPDEST SWAP1 SWAP2 PUSH2 0x3B18 SWAP1 PUSH2 0x163 SLOAD PUSH2 0x2F3B JUMP JUMPDEST SWAP1 PUSH8 0xDE0B6B3A7640000 SWAP2 DUP3 DUP2 MUL SWAP3 DUP2 DUP5 DIV EQ SWAP1 ISZERO OR ISZERO PUSH2 0xA8E JUMPI PUSH2 0x2F1B SWAP3 PUSH2 0x2F15 SWAP2 PUSH2 0x2E7A JUMP JUMPDEST PUSH2 0x3B5E PUSH2 0x3B4E DUP5 DUP5 DUP5 PUSH2 0x3B09 JUMP JUMPDEST PUSH2 0x3B58 DUP6 DUP6 PUSH2 0x358E JUMP JUMPDEST SWAP1 PUSH2 0x3AEF JUMP JUMPDEST SWAP3 PUSH0 DUP5 SLT SWAP3 DUP4 ISZERO PUSH2 0x3B79 JUMPI JUMPDEST POP POP POP PUSH2 0x3B74 JUMPI SWAP1 JUMP JUMPDEST POP PUSH0 SWAP1 JUMP JUMPDEST PUSH2 0x3B84 SWAP3 SWAP4 POP PUSH2 0x2F1E JUMP JUMPDEST GT ISZERO PUSH0 DUP1 DUP1 PUSH2 0x3B6A JUMP JUMPDEST SWAP1 PUSH1 0x40 MLOAD PUSH2 0x3B9D PUSH1 0x40 DUP3 PUSH2 0x27CC JUMP JUMPDEST PUSH1 0x20 PUSH1 0x1 DUP3 SWAP5 DUP1 SLOAD DUP5 MSTORE ADD SLOAD SWAP2 ADD MSTORE JUMP JUMPDEST PUSH2 0x3BBA DUP2 PUSH2 0x17A PUSH2 0x278F JUMP JUMPDEST SWAP1 SLOAD SWAP1 PUSH1 0x3 SHL SHR SWAP2 PUSH2 0x1BE SWAP2 PUSH2 0x3BD0 DUP2 DUP5 PUSH2 0x287A JUMP JUMPDEST POP SLOAD SWAP3 PUSH2 0x1BF SLOAD NUMBER LT ISZERO PUSH2 0x3BF6 JUMPI JUMPDEST POP POP DUP1 DUP3 LT ISZERO PUSH2 0x3229 JUMPI PUSH2 0x969 SWAP1 PUSH2 0x2F1B SWAP4 PUSH2 0x2E7A JUMP JUMPDEST DUP3 SWAP4 POP PUSH2 0x3C0A PUSH2 0x3C15 SWAP4 SWAP3 PUSH2 0x3C10 SWAP3 PUSH2 0x287A JUMP JUMPDEST POP PUSH2 0x3B8E JUMP JUMPDEST PUSH2 0x3C1D JUMP JUMPDEST SWAP1 PUSH0 DUP1 PUSH2 0x3BDF JUMP JUMPDEST PUSH1 0x20 DUP2 MLOAD SWAP2 ADD DUP1 MLOAD SWAP3 PUSH8 0xDE0B6B3A7640000 SWAP4 DUP5 SUB SWAP1 DUP5 DUP3 GT PUSH2 0xA8E JUMPI PUSH2 0x3C4A PUSH2 0x2DDF SWAP3 PUSH2 0x2D9A SWAP6 PUSH2 0x2E7A JUMP JUMPDEST SWAP3 MLOAD PUSH2 0x2E7A JUMP JUMPDEST PUSH0 DUP1 PUSH2 0x169 SWAP2 DUP3 SLOAD SWAP3 PUSH2 0x3C63 DUP5 PUSH2 0x2F60 JUMP JUMPDEST SWAP4 DUP3 SWAP2 JUMPDEST DUP2 DUP4 LT PUSH2 0x3C90 JUMPI POP POP POP DUP2 ISZERO PUSH2 0x3C84 JUMPI SWAP1 PUSH2 0x3C81 SWAP2 PUSH2 0x2E8D JUMP JUMPDEST SWAP2 JUMP JUMPDEST POP POP PUSH2 0x17B SLOAD PUSH1 0x1 SHL SWAP2 JUMP JUMPDEST SWAP1 SWAP2 SWAP4 SWAP3 PUSH2 0x3C9D DUP6 PUSH2 0x30A2 JUMP JUMPDEST SWAP1 DUP2 PUSH2 0x3CA9 DUP8 DUP10 PUSH2 0x2D49 JUMP JUMPDEST MSTORE PUSH2 0x3CC2 PUSH2 0x3CB7 DUP4 DUP9 PUSH2 0x2E10 JUMP JUMPDEST POP PUSH2 0x2DD3 DUP9 DUP7 PUSH2 0x287A JUMP JUMPDEST PUSH8 0xDE0B6B3A7640000 SWAP1 DUP2 DUP2 MUL SWAP2 DUP2 DUP4 DIV EQ SWAP1 ISZERO OR ISZERO PUSH2 0xA8E JUMPI PUSH2 0x3CFF PUSH2 0x3D05 SWAP3 PUSH2 0x2DDF DUP6 PUSH2 0x3CF6 PUSH1 0x1 SWAP8 PUSH2 0x101D SWAP7 PUSH2 0x3E4F JUMP JUMPDEST SWAP5 DUP6 SWAP2 DUP13 PUSH2 0x3BAE JUMP JUMPDEST SWAP6 PUSH2 0x2D5D JUMP JUMPDEST SWAP5 ADD SWAP2 SWAP1 PUSH2 0x3C67 JUMP JUMPDEST PUSH2 0x1BF DUP1 SLOAD NUMBER LT ISZERO PUSH2 0x3D1D JUMPI POP JUMP JUMPDEST PUSH2 0x169 SLOAD PUSH0 JUMPDEST DUP2 DUP2 LT PUSH2 0x3D36 JUMPI POP POP PUSH2 0x1C0 SLOAD NUMBER ADD SWAP1 SSTORE JUMP JUMPDEST DUP1 DUP1 PUSH32 0x19156E9379C7BBBCE8F646CE5EE30BA860B8F954717405F3D5859A6C1A21AE60 PUSH1 0x1 SWAP4 PUSH2 0x1BE PUSH2 0x3D6C PUSH2 0x3C0A DUP4 DUP4 PUSH2 0x287A JUMP JUMPDEST SWAP1 PUSH2 0x3D8A PUSH2 0x3D82 PUSH2 0x3D7C DUP6 PUSH2 0x30A2 JUMP JUMPDEST DUP5 PUSH2 0x3C1D JUMP JUMPDEST SWAP4 DUP5 SWAP3 PUSH2 0x287A JUMP JUMPDEST POP SSTORE MLOAD PUSH1 0x40 SWAP2 DUP3 MLOAD SWAP2 DUP3 MSTORE PUSH1 0x20 DUP3 ADD MSTORE LOG2 ADD PUSH2 0x3D23 JUMP JUMPDEST PUSH1 0x97 SLOAD PUSH1 0x40 MLOAD PUSH4 0xD994D6D5 PUSH1 0xE0 SHL DUP2 MSTORE CALLER PUSH1 0x4 DUP3 ADD MSTORE SWAP1 PUSH1 0x20 SWAP1 DUP3 SWAP1 PUSH1 0x24 SWAP1 DUP3 SWAP1 PUSH1 0x1 PUSH1 0x1 PUSH1 0xA0 SHL SUB AND GAS STATICCALL SWAP1 DUP2 ISZERO PUSH2 0x314D JUMPI PUSH0 SWAP2 PUSH2 0x3DF5 JUMPI JUMPDEST POP ISZERO PUSH2 0x3DE3 JUMPI JUMP JUMPDEST PUSH1 0x40 MLOAD PUSH4 0x1DD1B1B5 PUSH1 0xE2 SHL DUP2 MSTORE PUSH1 0x4 SWAP1 REVERT JUMPDEST SWAP1 PUSH1 0x20 DUP3 RETURNDATASIZE DUP3 GT PUSH2 0x3E26 JUMPI JUMPDEST DUP2 PUSH2 0x3E0E PUSH1 0x20 SWAP4 DUP4 PUSH2 0x27CC JUMP JUMPDEST DUP2 ADD SUB SLT PUSH2 0x484 JUMPI POP PUSH2 0x3E20 SWAP1 PUSH2 0x30D1 JUMP JUMPDEST PUSH0 PUSH2 0x3DDB JUMP JUMPDEST RETURNDATASIZE SWAP2 POP PUSH2 0x3E01 JUMP JUMPDEST PUSH1 0xFF PUSH1 0xCA SLOAD PUSH1 0x8 SHR AND PUSH2 0x3E3D JUMPI JUMP JUMPDEST PUSH1 0x40 MLOAD PUSH4 0x783BB6C9 PUSH1 0xE1 SHL DUP2 MSTORE PUSH1 0x4 SWAP1 REVERT JUMPDEST SWAP1 PUSH8 0xDE0B6B3A7640000 SWAP2 DUP3 DUP2 MUL SWAP3 DUP2 DUP5 DIV EQ SWAP1 ISZERO OR ISZERO PUSH2 0xA8E JUMPI PUSH2 0x2F1B SWAP2 PUSH2 0x2E8D JUMP INVALID LOG2 PUSH5 0x6970667358 0x22 SLT KECCAK256 0xC4 SWAP15 0xC9 0xF 0xB6 0xE2 RETURN PUSH3 0x7D8E46 0xD0 SWAP6 SUB DUP14 DUP7 GAS ADDMOD BASEFEE AND PUSH0 AND ADD 0xEF 0xAF MOD 0xF 0xCA 0x5C 0x27 0xDE DUP5 PUSH5 0x736F6C6343 STOP ADDMOD EQ STOP CALLER PUSH1 0x80 CALLVALUE PUSH2 0x5C JUMPI PUSH1 0x1F PUSH2 0x196 CODESIZE DUP2 SWAP1 SUB SWAP2 DUP3 ADD PUSH1 0x1F NOT AND DUP4 ADD SWAP2 PUSH1 0x1 PUSH1 0x1 PUSH1 0x40 SHL SUB DUP4 GT DUP5 DUP5 LT OR PUSH2 0x60 JUMPI DUP1 DUP5 SWAP3 PUSH1 0x20 SWAP5 PUSH1 0x40 MSTORE DUP4 CODECOPY DUP2 ADD SUB SLT PUSH2 0x5C JUMPI MLOAD PUSH0 SSTORE PUSH1 0x1 PUSH1 0xFF NOT DUP2 SLOAD AND OR PUSH1 0x1 SSTORE PUSH1 0x40 MLOAD PUSH2 0x121 SWAP1 DUP2 PUSH2 0x75 DUP3 CODECOPY RETURN JUMPDEST PUSH0 DUP1 REVERT JUMPDEST PUSH4 0x4E487B71 PUSH1 0xE0 SHL PUSH0 MSTORE PUSH1 0x41 PUSH1 0x4 MSTORE PUSH1 0x24 PUSH0 REVERT INVALID PUSH1 0x80 DUP1 PUSH1 0x40 MSTORE PUSH1 0x4 CALLDATASIZE LT ISZERO PUSH1 0x11 JUMPI PUSH0 DUP1 REVERT JUMPDEST PUSH0 SWAP1 DUP2 CALLDATALOAD PUSH1 0xE0 SHR SWAP1 DUP2 PUSH4 0x32145F90 EQ PUSH1 0xD3 JUMPI DUP2 PUSH4 0x59E02DD7 EQ PUSH1 0xA9 JUMPI POP DUP1 PUSH4 0x73D4A13A EQ PUSH1 0x8E JUMPI DUP1 PUSH4 0xB689D5AC EQ PUSH1 0x6D JUMPI PUSH4 0xC62DEE0D EQ PUSH1 0x4F JUMPI PUSH0 DUP1 REVERT JUMPDEST CALLVALUE PUSH1 0x6A JUMPI DUP1 PUSH1 0x3 NOT CALLDATASIZE ADD SLT PUSH1 0x6A JUMPI PUSH1 0xFF NOT PUSH1 0x1 SLOAD AND PUSH1 0x1 SSTORE DUP1 RETURN JUMPDEST DUP1 REVERT JUMPDEST POP CALLVALUE PUSH1 0x6A JUMPI DUP1 PUSH1 0x3 NOT CALLDATASIZE ADD SLT PUSH1 0x6A JUMPI PUSH1 0x20 PUSH1 0xFF PUSH1 0x1 SLOAD AND PUSH1 0x40 MLOAD SWAP1 ISZERO ISZERO DUP2 MSTORE RETURN JUMPDEST POP CALLVALUE PUSH1 0x6A JUMPI DUP1 PUSH1 0x3 NOT CALLDATASIZE ADD SLT PUSH1 0x6A JUMPI PUSH1 0x20 SWAP1 SLOAD PUSH1 0x40 MLOAD SWAP1 DUP2 MSTORE RETURN JUMPDEST SWAP1 POP CALLVALUE PUSH1 0xCF JUMPI DUP2 PUSH1 0x3 NOT CALLDATASIZE ADD SLT PUSH1 0xCF JUMPI PUSH1 0x40 SWAP2 SLOAD PUSH1 0xFF PUSH1 0x1 SLOAD AND SWAP1 DUP3 MSTORE ISZERO ISZERO PUSH1 0x20 DUP3 ADD MSTORE RETURN JUMPDEST POP DUP1 REVERT JUMPDEST DUP3 CALLVALUE PUSH1 0x6A JUMPI PUSH1 0x20 CALLDATASIZE PUSH1 0x3 NOT ADD SLT PUSH1 0x6A JUMPI PUSH1 0x4 CALLDATALOAD DUP2 SSTORE DUP1 RETURN INVALID LOG2 PUSH5 0x6970667358 0x22 SLT KECCAK256 0xCD INVALID 0xE9 0xEC 0x5D 0xDC PUSH8 0x3A5F3CBCA28B2C9F BALANCE CALLCODE JUMP 0xB4 PUSH22 0xDCA7337243C0463CC0CFA99E64736F6C634300081400 CALLER PUSH1 0x80 PUSH1 0x40 MSTORE CALLVALUE PUSH3 0x39B JUMPI PUSH3 0x14 PUSH3 0x39F JUMP JUMPDEST PUSH3 0x1E PUSH3 0x39F JUMP JUMPDEST DUP2 MLOAD SWAP1 SWAP2 SWAP1 PUSH1 0x1 PUSH1 0x1 PUSH1 0x40 SHL SUB SWAP1 DUP2 DUP2 GT PUSH3 0x2A6 JUMPI PUSH1 0x3 SWAP2 DUP3 SLOAD SWAP3 PUSH1 0x1 SWAP3 DUP4 DUP6 DUP2 SHR SWAP6 AND SWAP6 DUP7 ISZERO PUSH3 0x390 JUMPI JUMPDEST PUSH1 0x20 SWAP7 DUP8 DUP8 LT EQ PUSH3 0x37C JUMPI DUP2 SWAP1 PUSH1 0x1F SWAP7 DUP8 DUP2 GT PUSH3 0x329 JUMPI JUMPDEST POP DUP8 SWAP1 DUP8 DUP4 GT PUSH1 0x1 EQ PUSH3 0x2C6 JUMPI PUSH0 SWAP3 PUSH3 0x2BA JUMPI JUMPDEST POP POP PUSH0 NOT DUP3 DUP5 SHL SHR NOT AND SWAP1 DUP5 SHL OR DUP2 SSTORE JUMPDEST DUP6 MLOAD SWAP2 DUP3 GT PUSH3 0x2A6 JUMPI PUSH1 0x4 SWAP6 DUP7 SLOAD DUP5 DUP2 DUP2 SHR SWAP2 AND DUP1 ISZERO PUSH3 0x29B JUMPI JUMPDEST DUP8 DUP3 LT EQ PUSH3 0x288 JUMPI DUP6 DUP2 GT PUSH3 0x240 JUMPI JUMPDEST POP DUP6 SWAP1 DUP6 DUP5 GT PUSH1 0x1 EQ PUSH3 0x1D9 JUMPI SWAP4 DUP4 SWAP5 SWAP2 DUP5 SWAP3 PUSH0 SWAP6 PUSH3 0x1CD JUMPI JUMPDEST POP POP SHL SWAP3 PUSH0 NOT SWAP2 SHL SHR NOT AND OR DUP4 SSTORE JUMPDEST PUSH1 0x12 PUSH1 0xFF NOT PUSH1 0x5 SLOAD AND OR PUSH1 0x5 SSTORE CALLER ISZERO PUSH3 0x18C JUMPI POP PUSH1 0x2 SLOAD PUSH28 0x6DF37F675EF6EADF5AB9A2072D44268D97DF837E6748956E5C6C2117 SWAP3 DUP4 DUP3 ADD DUP1 SWAP3 GT PUSH3 0x179 JUMPI POP PUSH0 SWAP2 PUSH32 0xDDF252AD1BE2C89B69C2B068FC378DAA952BA7F163C4A11628F55A4DF523B3EF SWAP2 PUSH1 0x2 SSTORE CALLER DUP4 MSTORE DUP3 DUP2 MSTORE PUSH1 0x40 DUP4 KECCAK256 DUP5 DUP2 SLOAD ADD SWAP1 SSTORE PUSH1 0x40 MLOAD SWAP4 DUP5 MSTORE CALLER SWAP4 LOG3 PUSH1 0x40 MLOAD PUSH2 0xC2D SWAP1 DUP2 PUSH3 0x3D6 DUP3 CODECOPY RETURN JUMPDEST PUSH1 0x11 SWAP1 PUSH4 0x4E487B71 PUSH1 0xE0 SHL PUSH0 MSTORE MSTORE PUSH1 0x24 PUSH0 REVERT JUMPDEST PUSH1 0x64 SWAP3 SWAP2 PUSH1 0x40 MLOAD SWAP3 PUSH3 0x461BCD PUSH1 0xE5 SHL DUP5 MSTORE DUP4 ADD MSTORE PUSH1 0x24 DUP3 ADD MSTORE PUSH32 0x45524332303A206D696E7420746F20746865207A65726F206164647265737300 PUSH1 0x44 DUP3 ADD MSTORE REVERT JUMPDEST ADD MLOAD SWAP4 POP PUSH0 DUP1 PUSH3 0xD8 JUMP JUMPDEST SWAP2 SWAP1 PUSH1 0x1F NOT DUP5 AND SWAP3 DUP9 PUSH0 MSTORE DUP5 DUP9 PUSH0 KECCAK256 SWAP5 PUSH0 JUMPDEST DUP11 DUP10 DUP4 DUP4 LT PUSH3 0x228 JUMPI POP POP POP LT PUSH3 0x20E JUMPI JUMPDEST POP POP POP POP DUP2 SHL ADD DUP4 SSTORE PUSH3 0xE7 JUMP JUMPDEST ADD MLOAD SWAP1 PUSH1 0xF8 DUP5 PUSH0 NOT SWAP3 SHL AND SHR NOT AND SWAP1 SSTORE PUSH0 DUP1 DUP1 DUP1 PUSH3 0x1FF JUMP JUMPDEST DUP7 DUP7 ADD MLOAD DUP10 SSTORE SWAP1 SWAP8 ADD SWAP7 SWAP5 DUP6 ADD SWAP5 DUP9 SWAP4 POP ADD PUSH3 0x1EB JUMP JUMPDEST DUP8 PUSH0 MSTORE DUP7 PUSH0 KECCAK256 DUP7 DUP1 DUP7 ADD PUSH1 0x5 SHR DUP3 ADD SWAP3 DUP10 DUP8 LT PUSH3 0x27E JUMPI JUMPDEST ADD PUSH1 0x5 SHR ADD SWAP1 DUP6 SWAP1 JUMPDEST DUP3 DUP2 LT PUSH3 0x272 JUMPI POP POP PUSH3 0xBC JUMP JUMPDEST PUSH0 DUP2 SSTORE ADD DUP6 SWAP1 PUSH3 0x262 JUMP JUMPDEST SWAP3 POP DUP2 SWAP3 PUSH3 0x259 JUMP JUMPDEST PUSH1 0x22 DUP9 PUSH4 0x4E487B71 PUSH1 0xE0 SHL PUSH0 MSTORE MSTORE PUSH1 0x24 PUSH0 REVERT JUMPDEST SWAP1 PUSH1 0x7F AND SWAP1 PUSH3 0xAA JUMP JUMPDEST PUSH4 0x4E487B71 PUSH1 0xE0 SHL PUSH0 MSTORE PUSH1 0x41 PUSH1 0x4 MSTORE PUSH1 0x24 PUSH0 REVERT JUMPDEST ADD MLOAD SWAP1 POP PUSH0 DUP1 PUSH3 0x7C JUMP JUMPDEST SWAP1 DUP7 SWAP4 POP PUSH1 0x1F NOT DUP4 AND SWAP2 DUP6 PUSH0 MSTORE DUP10 PUSH0 KECCAK256 SWAP3 PUSH0 JUMPDEST DUP12 DUP3 DUP3 LT PUSH3 0x312 JUMPI POP POP DUP5 GT PUSH3 0x2FA JUMPI JUMPDEST POP POP POP DUP2 SHL ADD DUP2 SSTORE PUSH3 0x8D JUMP JUMPDEST ADD MLOAD PUSH0 NOT DUP4 DUP7 SHL PUSH1 0xF8 AND SHR NOT AND SWAP1 SSTORE PUSH0 DUP1 DUP1 PUSH3 0x2EC JUMP JUMPDEST DUP4 DUP6 ADD MLOAD DUP7 SSTORE DUP11 SWAP8 SWAP1 SWAP6 ADD SWAP5 SWAP4 DUP5 ADD SWAP4 ADD PUSH3 0x2D9 JUMP JUMPDEST SWAP1 SWAP2 POP DUP4 PUSH0 MSTORE DUP8 PUSH0 KECCAK256 DUP8 DUP1 DUP6 ADD PUSH1 0x5 SHR DUP3 ADD SWAP3 DUP11 DUP7 LT PUSH3 0x372 JUMPI JUMPDEST SWAP2 DUP9 SWAP2 DUP7 SWAP6 SWAP5 SWAP4 ADD PUSH1 0x5 SHR ADD SWAP2 JUMPDEST DUP3 DUP2 LT PUSH3 0x363 JUMPI POP POP PUSH3 0x66 JUMP JUMPDEST PUSH0 DUP2 SSTORE DUP6 SWAP5 POP DUP9 SWAP2 ADD PUSH3 0x353 JUMP JUMPDEST SWAP3 POP DUP2 SWAP3 PUSH3 0x345 JUMP JUMPDEST PUSH4 0x4E487B71 PUSH1 0xE0 SHL PUSH0 MSTORE PUSH1 0x22 PUSH1 0x4 MSTORE PUSH1 0x24 PUSH0 REVERT JUMPDEST SWAP5 PUSH1 0x7F AND SWAP5 PUSH3 0x4C JUMP JUMPDEST PUSH0 DUP1 REVERT JUMPDEST PUSH1 0x40 DUP1 MLOAD SWAP2 SWAP1 DUP3 ADD PUSH1 0x1 PUSH1 0x1 PUSH1 0x40 SHL SUB DUP2 GT DUP4 DUP3 LT OR PUSH3 0x2A6 JUMPI PUSH1 0x40 MSTORE PUSH1 0x9 DUP3 MSTORE PUSH9 0x45524332304D6F636B PUSH1 0xB8 SHL PUSH1 0x20 DUP4 ADD MSTORE JUMP INVALID PUSH1 0x80 PUSH1 0x40 DUP2 DUP2 MSTORE PUSH1 0x4 DUP1 CALLDATASIZE LT ISZERO PUSH2 0x14 JUMPI PUSH0 DUP1 REVERT JUMPDEST PUSH0 SWAP3 DUP4 CALLDATALOAD PUSH1 0xE0 SHR SWAP1 DUP2 PUSH4 0x6FDDE03 EQ PUSH2 0x646 JUMPI POP DUP1 PUSH4 0x95EA7B3 EQ PUSH2 0x612 JUMPI DUP1 PUSH4 0x18160DDD EQ PUSH2 0x5F3 JUMPI DUP1 PUSH4 0x23B872DD EQ PUSH2 0x5A5 JUMPI DUP1 PUSH4 0x313CE567 EQ PUSH2 0x13D JUMPI DUP1 PUSH4 0x39509351 EQ PUSH2 0x555 JUMPI DUP1 PUSH4 0x40C10F19 EQ PUSH2 0x496 JUMPI DUP1 PUSH4 0x42966C68 EQ PUSH2 0x478 JUMPI DUP1 PUSH4 0x5C2F5E26 EQ PUSH2 0x443 JUMPI DUP1 PUSH4 0x70A08231 EQ PUSH2 0x40B JUMPI DUP1 PUSH4 0x79CC6790 EQ PUSH2 0x3D1 JUMPI DUP1 PUSH4 0x7A1395AA EQ PUSH2 0x3A4 JUMPI DUP1 PUSH4 0x95D89B41 EQ PUSH2 0x284 JUMPI DUP1 PUSH4 0x9DC29FAC EQ PUSH2 0x252 JUMPI DUP1 PUSH4 0xA457C2D7 EQ PUSH2 0x1A2 JUMPI DUP1 PUSH4 0xA9059CBB EQ PUSH2 0x163 JUMPI DUP1 PUSH4 0xACE28FA5 EQ PUSH2 0x13D JUMPI PUSH4 0xDD62ED3E EQ PUSH2 0xE6 JUMPI PUSH0 DUP1 REVERT JUMPDEST CALLVALUE PUSH2 0x139 JUMPI DUP2 PUSH1 0x3 NOT CALLDATASIZE ADD SLT PUSH2 0x139 JUMPI PUSH1 0x1 PUSH1 0x1 PUSH1 0xA0 SHL SUB SWAP1 CALLDATALOAD DUP2 DUP2 AND SWAP1 DUP2 SWAP1 SUB PUSH2 0x135 JUMPI PUSH1 0x24 CALLDATALOAD SWAP2 DUP3 AND DUP1 SWAP3 SUB PUSH2 0x135 JUMPI SWAP3 DUP3 SWAP2 PUSH1 0x20 SWAP5 DUP3 MSTORE PUSH1 0x1 DUP6 MSTORE DUP3 DUP3 KECCAK256 SWAP1 DUP3 MSTORE DUP5 MSTORE KECCAK256 SLOAD SWAP1 MLOAD SWAP1 DUP2 MSTORE RETURN JUMPDEST DUP4 DUP1 REVERT JUMPDEST DUP3 DUP1 REVERT JUMPDEST POP POP CALLVALUE PUSH2 0x15F JUMPI DUP2 PUSH1 0x3 NOT CALLDATASIZE ADD SLT PUSH2 0x15F JUMPI PUSH1 0x20 SWAP1 PUSH1 0xFF PUSH1 0x5 SLOAD AND SWAP1 MLOAD SWAP1 DUP2 MSTORE RETURN JUMPDEST POP DUP1 REVERT JUMPDEST POP CALLVALUE PUSH2 0x139 JUMPI DUP2 PUSH1 0x3 NOT CALLDATASIZE ADD SLT PUSH2 0x139 JUMPI CALLDATALOAD SWAP2 PUSH1 0x1 PUSH1 0x1 PUSH1 0xA0 SHL SUB DUP4 AND DUP4 SUB PUSH2 0x19F JUMPI POP PUSH2 0x196 PUSH1 0x20 SWAP3 PUSH1 0x24 CALLDATALOAD SWAP1 PUSH2 0xBA7 JUMP JUMPDEST SWAP1 MLOAD SWAP1 ISZERO ISZERO DUP2 MSTORE RETURN JUMPDEST DUP1 REVERT JUMPDEST POP DUP3 CALLVALUE PUSH2 0x19F JUMPI DUP3 PUSH1 0x3 NOT CALLDATASIZE ADD SLT PUSH2 0x19F JUMPI DUP2 CALLDATALOAD SWAP2 PUSH1 0x1 PUSH1 0x1 PUSH1 0xA0 SHL SUB DUP4 AND SWAP2 DUP3 DUP5 SUB PUSH2 0x19F JUMPI DUP5 SWAP1 PUSH1 0x24 CALLDATALOAD SWAP4 CALLER DUP3 MSTORE PUSH1 0x1 PUSH1 0x20 MSTORE DUP3 DUP3 KECCAK256 SWAP1 DUP3 MSTORE PUSH1 0x20 MSTORE KECCAK256 SLOAD SWAP1 DUP3 DUP3 LT PUSH2 0x201 JUMPI PUSH1 0x20 DUP6 PUSH2 0x1FA DUP6 DUP6 SUB DUP8 CALLER PUSH2 0x910 JUMP JUMPDEST MLOAD PUSH1 0x1 DUP2 MSTORE RETURN JUMPDEST PUSH1 0x84 SWAP1 PUSH1 0x20 DUP7 MLOAD SWAP2 PUSH3 0x461BCD PUSH1 0xE5 SHL DUP4 MSTORE DUP3 ADD MSTORE PUSH1 0x25 PUSH1 0x24 DUP3 ADD MSTORE PUSH32 0x45524332303A2064656372656173656420616C6C6F77616E63652062656C6F77 PUSH1 0x44 DUP3 ADD MSTORE PUSH5 0x207A65726F PUSH1 0xD8 SHL PUSH1 0x64 DUP3 ADD MSTORE REVERT JUMPDEST POP SWAP1 CALLVALUE PUSH2 0x139 JUMPI CALLDATASIZE PUSH1 0x3 NOT ADD SLT PUSH2 0x15F JUMPI CALLDATALOAD PUSH1 0x1 PUSH1 0x1 PUSH1 0xA0 SHL SUB DUP2 AND DUP2 SUB PUSH2 0x15F JUMPI PUSH2 0x281 SWAP1 PUSH1 0x24 CALLDATALOAD SWAP1 PUSH2 0xAA1 JUMP JUMPDEST DUP1 RETURN JUMPDEST POP SWAP2 SWAP1 CALLVALUE PUSH2 0x15F JUMPI DUP2 PUSH1 0x3 NOT CALLDATASIZE ADD SLT PUSH2 0x15F JUMPI DUP1 MLOAD SWAP1 DUP3 DUP5 SLOAD PUSH1 0x1 DUP2 DUP2 SHR SWAP1 DUP1 DUP4 AND SWAP3 DUP4 ISZERO PUSH2 0x39A JUMPI JUMPDEST PUSH1 0x20 SWAP4 DUP5 DUP5 LT DUP2 EQ PUSH2 0x387 JUMPI DUP4 DUP9 MSTORE SWAP1 DUP2 ISZERO PUSH2 0x36B JUMPI POP PUSH1 0x1 EQ PUSH2 0x316 JUMPI JUMPDEST POP POP POP DUP3 SWAP1 SUB PUSH1 0x1F ADD PUSH1 0x1F NOT AND DUP3 ADD SWAP3 PUSH8 0xFFFFFFFFFFFFFFFF DUP5 GT DUP4 DUP6 LT OR PUSH2 0x303 JUMPI POP DUP3 SWAP2 DUP3 PUSH2 0x2FF SWAP3 MSTORE DUP3 PUSH2 0x73B JUMP JUMPDEST SUB SWAP1 RETURN JUMPDEST PUSH4 0x4E487B71 PUSH1 0xE0 SHL DUP2 MSTORE PUSH1 0x41 DUP6 MSTORE PUSH1 0x24 SWAP1 REVERT JUMPDEST DUP8 DUP8 MSTORE SWAP2 SWAP3 POP DUP6 SWAP2 DUP4 PUSH32 0x8A35ACFBC15FF81A39AE7D344FD709F28E8600B4AA8C65C6B64BFE7FE36BD19B JUMPDEST DUP4 DUP6 LT PUSH2 0x357 JUMPI POP POP POP POP DUP4 ADD ADD PUSH0 DUP1 DUP1 PUSH2 0x2CD JUMP JUMPDEST DUP1 SLOAD DUP9 DUP7 ADD DUP4 ADD MSTORE SWAP4 ADD SWAP3 DUP5 SWAP1 DUP3 ADD PUSH2 0x341 JUMP JUMPDEST PUSH1 0xFF NOT AND DUP8 DUP6 ADD MSTORE POP POP ISZERO ISZERO PUSH1 0x5 SHL DUP5 ADD ADD SWAP1 POP PUSH0 DUP1 DUP1 PUSH2 0x2CD JUMP JUMPDEST PUSH4 0x4E487B71 PUSH1 0xE0 SHL DUP10 MSTORE PUSH1 0x22 DUP11 MSTORE PUSH1 0x24 DUP10 REVERT JUMPDEST SWAP2 PUSH1 0x7F AND SWAP2 PUSH2 0x2AE JUMP JUMPDEST DUP4 DUP3 CALLVALUE PUSH2 0x15F JUMPI PUSH1 0x20 CALLDATASIZE PUSH1 0x3 NOT ADD SLT PUSH2 0x15F JUMPI CALLDATALOAD PUSH1 0xFF DUP2 AND DUP1 SWAP2 SUB PUSH2 0x15F JUMPI PUSH1 0xFF NOT PUSH1 0x5 SLOAD AND OR PUSH1 0x5 SSTORE DUP1 RETURN JUMPDEST POP SWAP1 CALLVALUE PUSH2 0x139 JUMPI CALLDATASIZE PUSH1 0x3 NOT ADD SLT PUSH2 0x15F JUMPI CALLDATALOAD PUSH1 0x1 PUSH1 0x1 PUSH1 0xA0 SHL SUB DUP2 AND DUP2 SUB PUSH2 0x15F JUMPI PUSH2 0x281 SWAP1 PUSH1 0x24 CALLDATALOAD SWAP1 PUSH2 0x406 DUP3 CALLER DUP4 PUSH2 0xA0E JUMP JUMPDEST PUSH2 0xAA1 JUMP JUMPDEST POP CALLVALUE PUSH2 0x139 JUMPI PUSH1 0x20 CALLDATASIZE PUSH1 0x3 NOT ADD SLT PUSH2 0x139 JUMPI CALLDATALOAD PUSH1 0x1 PUSH1 0x1 PUSH1 0xA0 SHL SUB DUP2 AND SWAP1 DUP2 SWAP1 SUB PUSH2 0x139 JUMPI DUP3 DUP3 SWAP2 PUSH1 0x20 SWAP5 MSTORE DUP1 DUP5 MSTORE KECCAK256 SLOAD SWAP1 MLOAD SWAP1 DUP2 MSTORE RETURN JUMPDEST DUP4 DUP3 CALLVALUE PUSH2 0x15F JUMPI PUSH1 0x20 CALLDATASIZE PUSH1 0x3 NOT ADD SLT PUSH2 0x15F JUMPI CALLDATALOAD PUSH1 0x3 DUP2 LT ISZERO PUSH2 0x15F JUMPI PUSH2 0xFF00 PUSH1 0x5 SLOAD SWAP2 PUSH1 0x8 SHL AND SWAP1 PUSH2 0xFF00 NOT AND OR PUSH1 0x5 SSTORE DUP1 RETURN JUMPDEST DUP4 DUP3 CALLVALUE PUSH2 0x15F JUMPI PUSH1 0x20 CALLDATASIZE PUSH1 0x3 NOT ADD SLT PUSH2 0x15F JUMPI PUSH2 0x281 SWAP1 CALLDATALOAD CALLER PUSH2 0xAA1 JUMP JUMPDEST POP CALLVALUE PUSH2 0x139 JUMPI DUP2 PUSH1 0x3 NOT CALLDATASIZE ADD SLT PUSH2 0x139 JUMPI DUP1 CALLDATALOAD PUSH1 0x1 PUSH1 0x1 PUSH1 0xA0 SHL SUB DUP2 AND SWAP3 SWAP1 DUP4 SWAP1 SUB PUSH2 0x135 JUMPI PUSH1 0x24 CALLDATALOAD SWAP2 DUP4 ISZERO PUSH2 0x513 JUMPI POP PUSH1 0x20 DUP3 PUSH32 0xDDF252AD1BE2C89B69C2B068FC378DAA952BA7F163C4A11628F55A4DF523B3EF SWAP3 PUSH2 0x4F9 DUP8 SWAP6 PUSH1 0x2 SLOAD PUSH2 0x782 JUMP JUMPDEST PUSH1 0x2 SSTORE DUP6 DUP6 MSTORE DUP5 DUP4 MSTORE DUP1 DUP6 KECCAK256 DUP3 DUP2 SLOAD ADD SWAP1 SSTORE MLOAD SWAP1 DUP2 MSTORE LOG3 DUP1 RETURN JUMPDEST PUSH1 0x20 PUSH1 0x64 SWAP3 MLOAD SWAP2 PUSH3 0x461BCD PUSH1 0xE5 SHL DUP4 MSTORE DUP3 ADD MSTORE PUSH1 0x1F PUSH1 0x24 DUP3 ADD MSTORE PUSH32 0x45524332303A206D696E7420746F20746865207A65726F206164647265737300 PUSH1 0x44 DUP3 ADD MSTORE REVERT JUMPDEST POP CALLVALUE PUSH2 0x139 JUMPI DUP2 PUSH1 0x3 NOT CALLDATASIZE ADD SLT PUSH2 0x139 JUMPI CALLDATALOAD PUSH1 0x1 PUSH1 0x1 PUSH1 0xA0 SHL SUB DUP2 AND DUP1 DUP3 SUB PUSH2 0x135 JUMPI SWAP1 PUSH2 0x59E PUSH1 0x20 SWAP5 PUSH2 0x1FA SWAP4 CALLER DUP3 MSTORE PUSH1 0x1 DUP8 MSTORE DUP6 DUP3 KECCAK256 SWAP1 DUP3 MSTORE DUP7 MSTORE DUP5 PUSH1 0x24 CALLDATALOAD SWAP2 KECCAK256 SLOAD PUSH2 0x782 JUMP JUMPDEST SWAP1 CALLER PUSH2 0x910 JUMP JUMPDEST POP CALLVALUE PUSH2 0x139 JUMPI PUSH1 0x60 CALLDATASIZE PUSH1 0x3 NOT ADD SLT PUSH2 0x139 JUMPI CALLDATALOAD SWAP2 PUSH1 0x1 PUSH1 0x1 PUSH1 0xA0 SHL SUB SWAP1 DUP2 DUP5 AND DUP5 SUB PUSH2 0x19F JUMPI PUSH1 0x24 CALLDATALOAD SWAP2 DUP3 AND DUP3 SUB PUSH2 0x19F JUMPI POP PUSH1 0x20 SWAP3 PUSH2 0x1FA SWAP2 PUSH1 0x44 CALLDATALOAD SWAP2 PUSH2 0x5EE DUP4 CALLER DUP4 PUSH2 0xA0E JUMP JUMPDEST PUSH2 0x7A3 JUMP JUMPDEST POP POP CALLVALUE PUSH2 0x15F JUMPI DUP2 PUSH1 0x3 NOT CALLDATASIZE ADD SLT PUSH2 0x15F JUMPI PUSH1 0x20 SWAP1 PUSH1 0x2 SLOAD SWAP1 MLOAD SWAP1 DUP2 MSTORE RETURN JUMPDEST POP CALLVALUE PUSH2 0x139 JUMPI DUP2 PUSH1 0x3 NOT CALLDATASIZE ADD SLT PUSH2 0x139 JUMPI CALLDATALOAD SWAP2 PUSH1 0x1 PUSH1 0x1 PUSH1 0xA0 SHL SUB DUP4 AND DUP4 SUB PUSH2 0x19F JUMPI POP PUSH2 0x1FA PUSH1 0x20 SWAP3 PUSH1 0x24 CALLDATALOAD SWAP1 CALLER PUSH2 0x910 JUMP JUMPDEST DUP5 SWAP2 POP DUP4 CALLVALUE PUSH2 0x139 JUMPI DUP3 PUSH1 0x3 NOT CALLDATASIZE ADD SLT PUSH2 0x139 JUMPI DUP3 PUSH1 0x3 SLOAD PUSH1 0x1 DUP2 DUP2 SHR SWAP1 DUP1 DUP4 AND SWAP3 DUP4 ISZERO PUSH2 0x731 JUMPI JUMPDEST PUSH1 0x20 SWAP4 DUP5 DUP5 LT DUP2 EQ PUSH2 0x387 JUMPI DUP4 DUP9 MSTORE SWAP1 DUP2 ISZERO PUSH2 0x715 JUMPI POP PUSH1 0x1 EQ PUSH2 0x6BF JUMPI POP POP POP DUP3 SWAP1 SUB PUSH1 0x1F ADD PUSH1 0x1F NOT AND DUP3 ADD SWAP3 PUSH8 0xFFFFFFFFFFFFFFFF DUP5 GT DUP4 DUP6 LT OR PUSH2 0x303 JUMPI POP DUP3 SWAP2 DUP3 PUSH2 0x2FF SWAP3 MSTORE DUP3 PUSH2 0x73B JUMP JUMPDEST PUSH1 0x3 DUP8 MSTORE SWAP2 SWAP3 POP DUP6 SWAP2 DUP4 PUSH32 0xC2575A0E9E593C00F959F8C92F12DB2869C3395A3B0502D05E2516446F71F85B JUMPDEST DUP4 DUP6 LT PUSH2 0x701 JUMPI POP POP POP POP DUP4 ADD ADD DUP6 DUP1 DUP1 PUSH2 0x2CD JUMP JUMPDEST DUP1 SLOAD DUP9 DUP7 ADD DUP4 ADD MSTORE SWAP4 ADD SWAP3 DUP5 SWAP1 DUP3 ADD PUSH2 0x6EB JUMP JUMPDEST PUSH1 0xFF NOT AND DUP8 DUP6 ADD MSTORE POP POP ISZERO ISZERO PUSH1 0x5 SHL DUP5 ADD ADD SWAP1 POP DUP6 DUP1 DUP1 PUSH2 0x2CD JUMP JUMPDEST SWAP2 PUSH1 0x7F AND SWAP2 PUSH2 0x66F JUMP JUMPDEST PUSH1 0x20 DUP1 DUP3 MSTORE DUP3 MLOAD DUP2 DUP4 ADD DUP2 SWAP1 MSTORE SWAP1 SWAP4 SWAP3 PUSH0 JUMPDEST DUP3 DUP2 LT PUSH2 0x76E JUMPI POP POP PUSH1 0x40 SWAP3 SWAP4 POP PUSH0 DUP4 DUP3 DUP5 ADD ADD MSTORE PUSH1 0x1F DUP1 NOT SWAP2 ADD AND ADD ADD SWAP1 JUMP JUMPDEST DUP2 DUP2 ADD DUP7 ADD MLOAD DUP5 DUP3 ADD PUSH1 0x40 ADD MSTORE DUP6 ADD PUSH2 0x74D JUMP JUMPDEST SWAP2 SWAP1 DUP3 ADD DUP1 SWAP3 GT PUSH2 0x78F JUMPI JUMP JUMPDEST PUSH4 0x4E487B71 PUSH1 0xE0 SHL PUSH0 MSTORE PUSH1 0x11 PUSH1 0x4 MSTORE PUSH1 0x24 PUSH0 REVERT JUMPDEST PUSH1 0x1 PUSH1 0x1 PUSH1 0xA0 SHL SUB SWAP1 DUP2 AND SWAP2 DUP3 ISZERO PUSH2 0x8BD JUMPI AND SWAP2 DUP3 ISZERO PUSH2 0x86C JUMPI PUSH0 DUP3 DUP2 MSTORE DUP1 PUSH1 0x20 MSTORE PUSH1 0x40 DUP2 KECCAK256 SLOAD SWAP2 DUP1 DUP4 LT PUSH2 0x818 JUMPI PUSH1 0x40 DUP3 DUP3 PUSH32 0xDDF252AD1BE2C89B69C2B068FC378DAA952BA7F163C4A11628F55A4DF523B3EF SWAP6 DUP8 PUSH1 0x20 SWAP7 MSTORE DUP3 DUP7 MSTORE SUB DUP3 DUP3 KECCAK256 SSTORE DUP7 DUP2 MSTORE KECCAK256 DUP2 DUP2 SLOAD ADD SWAP1 SSTORE PUSH1 0x40 MLOAD SWAP1 DUP2 MSTORE LOG3 JUMP JUMPDEST PUSH1 0x40 MLOAD PUSH3 0x461BCD PUSH1 0xE5 SHL DUP2 MSTORE PUSH1 0x20 PUSH1 0x4 DUP3 ADD MSTORE PUSH1 0x26 PUSH1 0x24 DUP3 ADD MSTORE PUSH32 0x45524332303A207472616E7366657220616D6F756E7420657863656564732062 PUSH1 0x44 DUP3 ADD MSTORE PUSH6 0x616C616E6365 PUSH1 0xD0 SHL PUSH1 0x64 DUP3 ADD MSTORE PUSH1 0x84 SWAP1 REVERT JUMPDEST PUSH1 0x40 MLOAD PUSH3 0x461BCD PUSH1 0xE5 SHL DUP2 MSTORE PUSH1 0x20 PUSH1 0x4 DUP3 ADD MSTORE PUSH1 0x23 PUSH1 0x24 DUP3 ADD MSTORE PUSH32 0x45524332303A207472616E7366657220746F20746865207A65726F2061646472 PUSH1 0x44 DUP3 ADD MSTORE PUSH3 0x657373 PUSH1 0xE8 SHL PUSH1 0x64 DUP3 ADD MSTORE PUSH1 0x84 SWAP1 REVERT JUMPDEST PUSH1 0x40 MLOAD PUSH3 0x461BCD PUSH1 0xE5 SHL DUP2 MSTORE PUSH1 0x20 PUSH1 0x4 DUP3 ADD MSTORE PUSH1 0x25 PUSH1 0x24 DUP3 ADD MSTORE PUSH32 0x45524332303A207472616E736665722066726F6D20746865207A65726F206164 PUSH1 0x44 DUP3 ADD MSTORE PUSH5 0x6472657373 PUSH1 0xD8 SHL PUSH1 0x64 DUP3 ADD MSTORE PUSH1 0x84 SWAP1 REVERT JUMPDEST PUSH1 0x1 PUSH1 0x1 PUSH1 0xA0 SHL SUB SWAP1 DUP2 AND SWAP2 DUP3 ISZERO PUSH2 0x9BD JUMPI AND SWAP2 DUP3 ISZERO PUSH2 0x96D JUMPI PUSH1 0x20 PUSH32 0x8C5BE1E5EBEC7D5BD14F71427D1E84F3DD0314C0F7B2291E5B200AC8C7C3B925 SWAP2 DUP4 PUSH0 MSTORE PUSH1 0x1 DUP3 MSTORE PUSH1 0x40 PUSH0 KECCAK256 DUP6 PUSH0 MSTORE DUP3 MSTORE DUP1 PUSH1 0x40 PUSH0 KECCAK256 SSTORE PUSH1 0x40 MLOAD SWAP1 DUP2 MSTORE LOG3 JUMP JUMPDEST PUSH1 0x40 MLOAD PUSH3 0x461BCD PUSH1 0xE5 SHL DUP2 MSTORE PUSH1 0x20 PUSH1 0x4 DUP3 ADD MSTORE PUSH1 0x22 PUSH1 0x24 DUP3 ADD MSTORE PUSH32 0x45524332303A20617070726F766520746F20746865207A65726F206164647265 PUSH1 0x44 DUP3 ADD MSTORE PUSH2 0x7373 PUSH1 0xF0 SHL PUSH1 0x64 DUP3 ADD MSTORE PUSH1 0x84 SWAP1 REVERT JUMPDEST PUSH1 0x40 MLOAD PUSH3 0x461BCD PUSH1 0xE5 SHL DUP2 MSTORE PUSH1 0x20 PUSH1 0x4 DUP3 ADD MSTORE PUSH1 0x24 DUP1 DUP3 ADD MSTORE PUSH32 0x45524332303A20617070726F76652066726F6D20746865207A65726F20616464 PUSH1 0x44 DUP3 ADD MSTORE PUSH4 0x72657373 PUSH1 0xE0 SHL PUSH1 0x64 DUP3 ADD MSTORE PUSH1 0x84 SWAP1 REVERT JUMPDEST SWAP1 PUSH1 0x1 DUP1 PUSH1 0xA0 SHL SUB DUP1 DUP4 AND PUSH0 MSTORE PUSH1 0x1 PUSH1 0x20 MSTORE PUSH1 0x40 PUSH0 KECCAK256 SWAP1 DUP3 AND PUSH0 MSTORE PUSH1 0x20 MSTORE PUSH1 0x40 PUSH0 KECCAK256 SLOAD SWAP3 PUSH0 NOT DUP5 SUB PUSH2 0xA41 JUMPI JUMPDEST POP POP POP POP JUMP JUMPDEST DUP1 DUP5 LT PUSH2 0xA5C JUMPI PUSH2 0xA53 SWAP4 SUB SWAP2 PUSH2 0x910 JUMP JUMPDEST PUSH0 DUP1 DUP1 DUP1 PUSH2 0xA3B JUMP JUMPDEST PUSH1 0x40 MLOAD PUSH3 0x461BCD PUSH1 0xE5 SHL DUP2 MSTORE PUSH1 0x20 PUSH1 0x4 DUP3 ADD MSTORE PUSH1 0x1D PUSH1 0x24 DUP3 ADD MSTORE PUSH32 0x45524332303A20696E73756666696369656E7420616C6C6F77616E6365000000 PUSH1 0x44 DUP3 ADD MSTORE PUSH1 0x64 SWAP1 REVERT JUMPDEST PUSH1 0x1 PUSH1 0x1 PUSH1 0xA0 SHL SUB AND DUP1 ISZERO PUSH2 0xB58 JUMPI PUSH0 SWAP2 DUP2 DUP4 MSTORE DUP3 PUSH1 0x20 MSTORE PUSH1 0x40 DUP4 KECCAK256 SLOAD DUP2 DUP2 LT PUSH2 0xB08 JUMPI DUP2 PUSH32 0xDDF252AD1BE2C89B69C2B068FC378DAA952BA7F163C4A11628F55A4DF523B3EF SWAP3 PUSH1 0x20 SWAP3 DUP6 DUP8 MSTORE DUP7 DUP5 MSTORE SUB PUSH1 0x40 DUP7 KECCAK256 SSTORE DUP1 PUSH1 0x2 SLOAD SUB PUSH1 0x2 SSTORE PUSH1 0x40 MLOAD SWAP1 DUP2 MSTORE LOG3 JUMP JUMPDEST PUSH1 0x40 MLOAD PUSH3 0x461BCD PUSH1 0xE5 SHL DUP2 MSTORE PUSH1 0x20 PUSH1 0x4 DUP3 ADD MSTORE PUSH1 0x22 PUSH1 0x24 DUP3 ADD MSTORE PUSH32 0x45524332303A206275726E20616D6F756E7420657863656564732062616C616E PUSH1 0x44 DUP3 ADD MSTORE PUSH2 0x6365 PUSH1 0xF0 SHL PUSH1 0x64 DUP3 ADD MSTORE PUSH1 0x84 SWAP1 REVERT JUMPDEST PUSH1 0x40 MLOAD PUSH3 0x461BCD PUSH1 0xE5 SHL DUP2 MSTORE PUSH1 0x20 PUSH1 0x4 DUP3 ADD MSTORE PUSH1 0x21 PUSH1 0x24 DUP3 ADD MSTORE PUSH32 0x45524332303A206275726E2066726F6D20746865207A65726F20616464726573 PUSH1 0x44 DUP3 ADD MSTORE PUSH1 0x73 PUSH1 0xF8 SHL PUSH1 0x64 DUP3 ADD MSTORE PUSH1 0x84 SWAP1 REVERT JUMPDEST SWAP1 PUSH1 0xFF PUSH1 0x5 SLOAD PUSH1 0x8 SHR AND PUSH1 0x3 DUP2 LT ISZERO PUSH2 0xBE3 JUMPI PUSH1 0x1 DUP2 EQ PUSH2 0xBDC JUMPI PUSH1 0x2 EQ PUSH2 0xBD8 JUMPI PUSH2 0xBD3 SWAP2 CALLER PUSH2 0x7A3 JUMP JUMPDEST PUSH1 0x1 SWAP1 JUMP JUMPDEST PUSH0 DUP1 REVERT JUMPDEST POP POP POP PUSH0 SWAP1 JUMP JUMPDEST PUSH4 0x4E487B71 PUSH1 0xE0 SHL PUSH0 MSTORE PUSH1 0x21 PUSH1 0x4 MSTORE PUSH1 0x24 PUSH0 REVERT INVALID LOG2 PUSH5 0x6970667358 0x22 SLT KECCAK256 0xD8 SMOD 0xC6 0xB3 LOG3 DUP12 0x1F BASEFEE GAS 0xAB PUSH31 0x106888FA4E9433AD410BD18F373B26C4F05AB4137864736F6C634300081400 CALLER PUSH1 0x80 CALLVALUE PUSH2 0x5C JUMPI PUSH1 0x1F PUSH2 0x194 CODESIZE DUP2 SWAP1 SUB SWAP2 DUP3 ADD PUSH1 0x1F NOT AND DUP4 ADD SWAP2 PUSH1 0x1 PUSH1 0x1 PUSH1 0x40 SHL SUB DUP4 GT DUP5 DUP5 LT OR PUSH2 0x60 JUMPI DUP1 DUP5 SWAP3 PUSH1 0x20 SWAP5 PUSH1 0x40 MSTORE DUP4 CODECOPY DUP2 ADD SUB SLT PUSH2 0x5C JUMPI MLOAD PUSH0 SSTORE PUSH1 0x1 PUSH1 0xFF NOT DUP2 SLOAD AND OR PUSH1 0x1 SSTORE PUSH1 0x40 MLOAD PUSH2 0x11F SWAP1 DUP2 PUSH2 0x75 DUP3 CODECOPY RETURN JUMPDEST PUSH0 DUP1 REVERT JUMPDEST PUSH4 0x4E487B71 PUSH1 0xE0 SHL PUSH0 MSTORE PUSH1 0x41 PUSH1 0x4 MSTORE PUSH1 0x24 PUSH0 REVERT INVALID PUSH1 0x80 DUP1 PUSH1 0x40 MSTORE PUSH1 0x4 CALLDATASIZE LT ISZERO PUSH1 0x11 JUMPI PUSH0 DUP1 REVERT JUMPDEST PUSH0 SWAP1 DUP2 CALLDATALOAD PUSH1 0xE0 SHR SWAP1 DUP2 PUSH4 0x2A3F4389 EQ PUSH1 0xCD JUMPI POP DUP1 PUSH4 0x32145F90 EQ PUSH1 0xB5 JUMPI DUP1 PUSH4 0x5095E3D9 EQ PUSH1 0x99 JUMPI DUP1 PUSH4 0x59E02DD7 EQ PUSH1 0x72 JUMPI PUSH4 0xB689D5AC EQ PUSH1 0x4F JUMPI PUSH0 DUP1 REVERT JUMPDEST CALLVALUE PUSH1 0x6F JUMPI DUP1 PUSH1 0x3 NOT CALLDATASIZE ADD SLT PUSH1 0x6F JUMPI PUSH1 0x20 PUSH1 0xFF PUSH1 0x1 SLOAD AND PUSH1 0x40 MLOAD SWAP1 ISZERO ISZERO DUP2 MSTORE RETURN JUMPDEST DUP1 REVERT JUMPDEST POP CALLVALUE PUSH1 0x6F JUMPI DUP1 PUSH1 0x3 NOT CALLDATASIZE ADD SLT PUSH1 0x6F JUMPI PUSH1 0x40 SWAP1 SLOAD PUSH1 0xFF PUSH1 0x1 SLOAD AND DUP3 MLOAD SWAP2 DUP3 MSTORE ISZERO ISZERO PUSH1 0x20 DUP3 ADD MSTORE RETURN JUMPDEST POP CALLVALUE PUSH1 0x6F JUMPI DUP1 PUSH1 0x3 NOT CALLDATASIZE ADD SLT PUSH1 0x6F JUMPI PUSH1 0xFF NOT PUSH1 0x1 SLOAD AND PUSH1 0x1 SSTORE DUP1 RETURN JUMPDEST POP CALLVALUE PUSH1 0x6F JUMPI PUSH1 0x20 CALLDATASIZE PUSH1 0x3 NOT ADD SLT PUSH1 0x6F JUMPI PUSH1 0x4 CALLDATALOAD DUP2 SSTORE DUP1 RETURN JUMPDEST SWAP1 POP CALLVALUE PUSH1 0xE5 JUMPI DUP2 PUSH1 0x3 NOT CALLDATASIZE ADD SLT PUSH1 0xE5 JUMPI PUSH1 0x20 SWAP2 SLOAD DUP2 MSTORE RETURN JUMPDEST POP DUP1 REVERT INVALID LOG2 PUSH5 0x6970667358 0x22 SLT KECCAK256 PUSH15 0x1E0FC7AD29F980198245451B1A3B2 PUSH5 0x767A2C4629 SUB ISZERO GASPRICE 0xC3 PUSH13 0xF1BF1CBBFC64736F6C63430008 EQ STOP CALLER PUSH1 0x80 DUP1 PUSH1 0x40 MSTORE CALLVALUE PUSH2 0x21 JUMPI PUSH1 0x1 PUSH1 0xFF NOT PUSH0 SLOAD AND OR PUSH0 SSTORE PUSH2 0x197 SWAP1 DUP2 PUSH2 0x26 DUP3 CODECOPY RETURN JUMPDEST PUSH0 DUP1 REVERT INVALID PUSH1 0x80 DUP1 PUSH1 0x40 MSTORE PUSH1 0x4 DUP1 CALLDATASIZE LT ISZERO PUSH2 0x13 JUMPI PUSH0 DUP1 REVERT JUMPDEST PUSH0 SWAP2 DUP3 CALLDATALOAD PUSH1 0xE0 SHR SWAP1 DUP2 PUSH4 0x57E6C2F4 EQ PUSH2 0x142 JUMPI POP DUP3 DUP2 PUSH4 0x8C777E82 EQ PUSH2 0xB2 JUMPI POP DUP1 PUSH4 0x9E0A8E09 EQ PUSH2 0x86 JUMPI PUSH4 0xD994D6D5 EQ PUSH2 0x4D JUMPI PUSH0 DUP1 REVERT JUMPDEST CALLVALUE PUSH2 0x82 JUMPI PUSH1 0x20 CALLDATASIZE PUSH1 0x3 NOT ADD SLT PUSH2 0x82 JUMPI CALLDATALOAD PUSH1 0x1 PUSH1 0x1 PUSH1 0xA0 SHL SUB DUP2 AND SUB PUSH2 0x7F JUMPI PUSH1 0xFF PUSH1 0x20 SWAP2 SLOAD AND PUSH1 0x40 MLOAD SWAP1 ISZERO ISZERO DUP2 MSTORE RETURN JUMPDEST DUP1 REVERT JUMPDEST POP DUP1 REVERT JUMPDEST POP CALLVALUE PUSH2 0x82 JUMPI PUSH1 0x20 CALLDATASIZE PUSH1 0x3 NOT ADD SLT PUSH2 0x82 JUMPI CALLDATALOAD DUP1 ISZERO ISZERO DUP1 SWAP2 SUB PUSH2 0x82 JUMPI PUSH1 0xFF DUP1 NOT DUP4 SLOAD AND SWAP2 AND OR DUP2 SSTORE DUP1 RETURN JUMPDEST DUP1 DUP4 CALLVALUE PUSH2 0x13F JUMPI PUSH1 0x20 CALLDATASIZE PUSH1 0x3 NOT ADD SLT PUSH2 0x13F JUMPI DUP1 CALLDATALOAD PUSH1 0x1 PUSH1 0x1 PUSH1 0xA0 SHL SUB DUP2 AND SWAP1 DUP2 SWAP1 SUB PUSH2 0x13B JUMPI DUP1 EXTCODESIZE ISZERO PUSH2 0x13B JUMPI DUP3 SWAP1 DUP3 PUSH1 0x40 MLOAD DUP1 SWAP6 DUP2 SWAP4 PUSH4 0x18518655 PUSH1 0xE2 SHL DUP4 MSTORE GAS CALL DUP1 ISZERO PUSH2 0x130 JUMPI PUSH2 0x104 JUMPI DUP3 DUP1 RETURN JUMPDEST PUSH8 0xFFFFFFFFFFFFFFFF DUP3 GT PUSH2 0x11D JUMPI POP PUSH1 0x40 MSTORE DUP2 DUP1 DUP3 DUP1 RETURN JUMPDEST PUSH4 0x4E487B71 PUSH1 0xE0 SHL DUP4 MSTORE PUSH1 0x41 SWAP1 MSTORE PUSH1 0x24 DUP3 REVERT JUMPDEST PUSH1 0x40 MLOAD RETURNDATASIZE DUP6 DUP3 RETURNDATACOPY RETURNDATASIZE SWAP1 REVERT JUMPDEST POP POP REVERT JUMPDEST POP REVERT JUMPDEST DUP4 SWAP1 CALLVALUE PUSH2 0x82 JUMPI DUP2 PUSH1 0x3 NOT CALLDATASIZE ADD SLT PUSH2 0x82 JUMPI PUSH1 0xFF PUSH1 0x20 SWAP3 SLOAD AND ISZERO ISZERO DUP2 MSTORE RETURN INVALID LOG2 PUSH5 0x6970667358 0x22 SLT KECCAK256 0x4B RETURN SLT SLT 0x2B PUSH28 0x606C57EDD691E412A219D65B680F623EA94FD09E9AAB19826DFE6473 PUSH16 0x6C6343000814003360A0806040523461 STOP 0xDA JUMPI ADDRESS PUSH1 0x80 MSTORE PUSH0 SLOAD SWAP1 PUSH1 0xFF DUP3 PUSH1 0x8 SHR AND PUSH2 0x88 JUMPI POP PUSH1 0xFF DUP1 DUP3 AND SUB PUSH2 0x4E JUMPI JUMPDEST PUSH1 0x40 MLOAD PUSH2 0x217F SWAP1 DUP2 PUSH2 0xDF DUP3 CODECOPY PUSH1 0x80 MLOAD DUP2 DUP2 DUP2 PUSH2 0xC98 ADD MSTORE DUP2 DUP2 PUSH2 0xDB3 ADD MSTORE PUSH2 0xF8A ADD MSTORE RETURN JUMPDEST PUSH1 0xFF SWAP1 DUP2 NOT AND OR PUSH0 SSTORE PUSH32 0x7F26B83FF96E1F2B6A682F133852F6798A09C465DA95921460CEFB3847402498 PUSH1 0x20 PUSH1 0x40 MLOAD PUSH1 0xFF DUP2 MSTORE LOG1 PUSH0 PUSH2 0x28 JUMP JUMPDEST PUSH3 0x461BCD PUSH1 0xE5 SHL DUP2 MSTORE PUSH1 0x20 PUSH1 0x4 DUP3 ADD MSTORE PUSH1 0x27 PUSH1 0x24 DUP3 ADD MSTORE PUSH32 0x496E697469616C697A61626C653A20636F6E747261637420697320696E697469 PUSH1 0x44 DUP3 ADD MSTORE PUSH7 0x616C697A696E67 PUSH1 0xC8 SHL PUSH1 0x64 DUP3 ADD MSTORE PUSH1 0x84 SWAP1 REVERT JUMPDEST PUSH0 DUP1 REVERT INVALID PUSH1 0x80 PUSH1 0x40 SWAP1 DUP1 DUP3 MSTORE PUSH1 0x4 SWAP1 DUP2 CALLDATASIZE LT ISZERO PUSH2 0x16 JUMPI PUSH0 DUP1 REVERT JUMPDEST PUSH0 SWAP3 DUP4 CALLDATALOAD PUSH1 0xE0 SHR SWAP2 DUP3 PUSH4 0x1FFC9A7 EQ PUSH2 0x130D JUMPI POP DUP2 PUSH4 0x6FDDE03 EQ PUSH2 0x1263 JUMPI DUP2 PUSH4 0x95EA7B3 EQ PUSH2 0x122D JUMPI DUP2 PUSH4 0xC340A24 EQ PUSH2 0x1203 JUMPI DUP2 PUSH4 0x18160DDD EQ PUSH2 0x11E4 JUMPI DUP2 PUSH4 0x23B872DD EQ PUSH2 0x1111 JUMPI DUP2 PUSH4 0x248A9CA3 EQ PUSH2 0x10E5 JUMPI DUP2 PUSH4 0x2F2FF15D EQ PUSH2 0x109E JUMPI DUP2 PUSH4 0x313CE567 EQ PUSH2 0x1082 JUMPI DUP2 PUSH4 0x36568ABE EQ PUSH2 0xFEF JUMPI DUP4 DUP3 PUSH4 0x3659CFE6 EQ PUSH2 0xF58 JUMPI POP DUP2 PUSH4 0x39509351 EQ PUSH2 0xF06 JUMPI DUP2 PUSH4 0x40C10F19 EQ PUSH2 0xE16 JUMPI DUP2 PUSH4 0x4F1EF286 EQ PUSH2 0xD57 JUMPI DUP2 PUSH4 0x52D1902D EQ PUSH2 0xC83 JUMPI DUP2 PUSH4 0x70A08231 EQ PUSH2 0xC48 JUMPI DUP2 PUSH4 0x83D2230D EQ PUSH2 0xB0D JUMPI DUP2 PUSH4 0x8F15B414 EQ PUSH2 0x639 JUMPI DUP2 PUSH4 0x9010D07C EQ PUSH2 0x5F7 JUMPI DUP2 PUSH4 0x91D14854 EQ PUSH2 0x5AB JUMPI DUP2 PUSH4 0x95D89B41 EQ PUSH2 0x4CA JUMPI DUP2 PUSH4 0x9DC29FAC EQ PUSH2 0x37C JUMPI DUP2 PUSH4 0xA217FDDF EQ PUSH2 0x361 JUMPI DUP2 PUSH4 0xA457C2D7 EQ PUSH2 0x2B8 JUMPI DUP2 PUSH4 0xA9059CBB EQ PUSH2 0x278 JUMPI DUP2 PUSH4 0xCA15C873 EQ PUSH2 0x24F JUMPI DUP2 PUSH4 0xD547741F EQ PUSH2 0x205 JUMPI DUP2 PUSH4 0xDD62ED3E EQ PUSH2 0x1AB JUMPI POP PUSH4 0xE4C0AAF4 EQ PUSH2 0x164 JUMPI PUSH0 DUP1 REVERT JUMPDEST CALLVALUE PUSH2 0x1A7 JUMPI PUSH1 0x20 CALLDATASIZE PUSH1 0x3 NOT ADD SLT PUSH2 0x1A7 JUMPI CALLDATALOAD PUSH1 0x1 PUSH1 0x1 PUSH1 0xA0 SHL SUB DUP2 AND SWAP1 DUP2 SWAP1 SUB PUSH2 0x1A7 JUMPI PUSH2 0x190 PUSH2 0x204F JUMP JUMPDEST PUSH2 0x191 DUP1 SLOAD PUSH1 0x1 PUSH1 0x1 PUSH1 0xA0 SHL SUB NOT AND SWAP1 SWAP2 OR SWAP1 SSTORE DUP1 RETURN JUMPDEST POP DUP1 REVERT JUMPDEST SWAP2 SWAP1 POP CALLVALUE PUSH2 0x201 JUMPI DUP2 PUSH1 0x3 NOT CALLDATASIZE ADD SLT PUSH2 0x201 JUMPI PUSH1 0x1 PUSH1 0x1 PUSH1 0xA0 SHL SUB SWAP1 CALLDATALOAD DUP2 DUP2 AND SWAP1 DUP2 SWAP1 SUB PUSH2 0x1FD JUMPI PUSH1 0x24 CALLDATALOAD SWAP2 DUP3 AND DUP1 SWAP3 SUB PUSH2 0x1FD JUMPI SWAP3 DUP3 SWAP2 PUSH1 0x20 SWAP5 DUP3 MSTORE PUSH1 0xCA DUP6 MSTORE DUP3 DUP3 KECCAK256 SWAP1 DUP3 MSTORE DUP5 MSTORE KECCAK256 SLOAD SWAP1 MLOAD SWAP1 DUP2 MSTORE RETURN JUMPDEST DUP4 DUP1 REVERT JUMPDEST DUP3 DUP1 REVERT JUMPDEST SWAP2 SWAP1 POP CALLVALUE PUSH2 0x201 JUMPI DUP2 PUSH1 0x3 NOT CALLDATASIZE ADD SLT PUSH2 0x201 JUMPI PUSH1 0x24 CALLDATALOAD SWAP1 CALLDATALOAD PUSH1 0x1 PUSH1 0x1 PUSH1 0xA0 SHL SUB DUP3 AND DUP3 SUB PUSH2 0x1FD JUMPI PUSH2 0x247 PUSH1 0x1 PUSH2 0x24C SWAP5 DUP4 DUP8 MSTORE PUSH1 0x65 PUSH1 0x20 MSTORE DUP7 KECCAK256 ADD SLOAD PUSH2 0x14FE JUMP JUMPDEST PUSH2 0x15D9 JUMP JUMPDEST DUP1 RETURN JUMPDEST SWAP2 SWAP1 POP CALLVALUE PUSH2 0x201 JUMPI PUSH1 0x20 CALLDATASIZE PUSH1 0x3 NOT ADD SLT PUSH2 0x201 JUMPI PUSH1 0x20 SWAP3 DUP3 SWAP2 CALLDATALOAD DUP2 MSTORE PUSH1 0x97 DUP5 MSTORE KECCAK256 SLOAD SWAP1 MLOAD SWAP1 DUP2 MSTORE RETURN JUMPDEST SWAP2 SWAP1 POP CALLVALUE PUSH2 0x201 JUMPI DUP2 PUSH1 0x3 NOT CALLDATASIZE ADD SLT PUSH2 0x201 JUMPI CALLDATALOAD SWAP2 PUSH1 0x1 PUSH1 0x1 PUSH1 0xA0 SHL SUB DUP4 AND DUP4 SUB PUSH2 0x2B5 JUMPI POP PUSH2 0x2AE PUSH1 0x20 SWAP3 PUSH1 0x24 CALLDATALOAD SWAP1 CALLER PUSH2 0x1A76 JUMP JUMPDEST MLOAD PUSH1 0x1 DUP2 MSTORE RETURN JUMPDEST DUP1 REVERT JUMPDEST DUP3 DUP5 CALLVALUE PUSH2 0x2B5 JUMPI DUP3 PUSH1 0x3 NOT CALLDATASIZE ADD SLT PUSH2 0x2B5 JUMPI DUP2 CALLDATALOAD SWAP2 PUSH1 0x1 PUSH1 0x1 PUSH1 0xA0 SHL SUB DUP4 AND SWAP2 DUP3 DUP5 SUB PUSH2 0x2B5 JUMPI DUP5 SWAP1 PUSH1 0x24 CALLDATALOAD SWAP4 CALLER DUP3 MSTORE PUSH1 0xCA PUSH1 0x20 MSTORE DUP3 DUP3 KECCAK256 SWAP1 DUP3 MSTORE PUSH1 0x20 MSTORE KECCAK256 SLOAD SWAP1 DUP3 DUP3 LT PUSH2 0x310 JUMPI PUSH1 0x20 DUP6 PUSH2 0x2AE DUP6 DUP6 SUB DUP8 CALLER PUSH2 0x1BE5 JUMP JUMPDEST PUSH1 0x84 SWAP1 PUSH1 0x20 DUP7 MLOAD SWAP2 PUSH3 0x461BCD PUSH1 0xE5 SHL DUP4 MSTORE DUP3 ADD MSTORE PUSH1 0x25 PUSH1 0x24 DUP3 ADD MSTORE PUSH32 0x45524332303A2064656372656173656420616C6C6F77616E63652062656C6F77 PUSH1 0x44 DUP3 ADD MSTORE PUSH5 0x207A65726F PUSH1 0xD8 SHL PUSH1 0x64 DUP3 ADD MSTORE REVERT JUMPDEST DUP4 SWAP1 CALLVALUE PUSH2 0x1A7 JUMPI DUP2 PUSH1 0x3 NOT CALLDATASIZE ADD SLT PUSH2 0x1A7 JUMPI MLOAD SWAP1 DUP2 MSTORE PUSH1 0x20 SWAP1 RETURN JUMPDEST DUP4 DUP4 CALLVALUE PUSH2 0x1A7 JUMPI DUP3 PUSH1 0x3 NOT CALLDATASIZE ADD SLT PUSH2 0x1A7 JUMPI DUP1 CALLDATALOAD PUSH1 0x1 PUSH1 0x1 PUSH1 0xA0 SHL SUB DUP2 AND SWAP2 SWAP1 DUP3 SWAP1 SUB PUSH2 0x201 JUMPI PUSH1 0x24 CALLDATALOAD SWAP1 PUSH2 0x3D0 PUSH32 0x3C11D16CBAFFD01DF69CE1C404F6340EE057498F5F00246190EA54220576A848 PUSH2 0x14FE JUMP JUMPDEST DUP3 ISZERO PUSH2 0x47D JUMPI DUP3 DUP5 MSTORE PUSH1 0xC9 PUSH1 0x20 MSTORE DUP5 DUP5 KECCAK256 SLOAD SWAP1 DUP3 DUP3 LT PUSH2 0x42F JUMPI POP DUP2 DUP5 SWAP6 PUSH32 0xDDF252AD1BE2C89B69C2B068FC378DAA952BA7F163C4A11628F55A4DF523B3EF SWAP4 PUSH1 0x20 SWAP4 DUP7 DUP9 MSTORE PUSH1 0xC9 DUP6 MSTORE SUB DUP2 DUP8 KECCAK256 SSTORE DUP2 PUSH1 0xCB SLOAD SUB PUSH1 0xCB SSTORE MLOAD SWAP1 DUP2 MSTORE LOG3 DUP1 RETURN JUMPDEST PUSH1 0x84 SWAP1 PUSH1 0x20 DUP8 MLOAD SWAP2 PUSH3 0x461BCD PUSH1 0xE5 SHL DUP4 MSTORE DUP3 ADD MSTORE PUSH1 0x22 PUSH1 0x24 DUP3 ADD MSTORE PUSH32 0x45524332303A206275726E20616D6F756E7420657863656564732062616C616E PUSH1 0x44 DUP3 ADD MSTORE PUSH2 0x6365 PUSH1 0xF0 SHL PUSH1 0x64 DUP3 ADD MSTORE REVERT JUMPDEST PUSH1 0x84 SWAP1 PUSH1 0x20 DUP7 MLOAD SWAP2 PUSH3 0x461BCD PUSH1 0xE5 SHL DUP4 MSTORE DUP3 ADD MSTORE PUSH1 0x21 PUSH1 0x24 DUP3 ADD MSTORE PUSH32 0x45524332303A206275726E2066726F6D20746865207A65726F20616464726573 PUSH1 0x44 DUP3 ADD MSTORE PUSH1 0x73 PUSH1 0xF8 SHL PUSH1 0x64 DUP3 ADD MSTORE REVERT JUMPDEST DUP4 SWAP1 CALLVALUE PUSH2 0x1A7 JUMPI DUP2 PUSH1 0x3 NOT CALLDATASIZE ADD SLT PUSH2 0x1A7 JUMPI DUP1 MLOAD SWAP1 DUP3 PUSH1 0xCD SLOAD PUSH2 0x4EC DUP2 PUSH2 0x1A1D JUMP JUMPDEST DUP1 DUP6 MSTORE SWAP2 PUSH1 0x1 SWAP2 DUP1 DUP4 AND SWAP1 DUP2 ISZERO PUSH2 0x583 JUMPI POP PUSH1 0x1 EQ PUSH2 0x526 JUMPI JUMPDEST POP POP POP PUSH2 0x518 DUP3 PUSH2 0x522 SWAP5 SUB DUP4 PUSH2 0x13C8 JUMP JUMPDEST MLOAD SWAP2 DUP3 SWAP2 DUP3 PUSH2 0x139C JUMP JUMPDEST SUB SWAP1 RETURN JUMPDEST SWAP5 POP PUSH1 0xCD DUP6 MSTORE PUSH32 0x83978B4C69C48DD978AB43FE30F077615294F938FB7F936D9EB340E51EA7DB2E JUMPDEST DUP3 DUP7 LT PUSH2 0x56B JUMPI POP POP POP PUSH2 0x518 DUP3 PUSH1 0x20 PUSH2 0x522 SWAP6 DUP3 ADD ADD SWAP5 PUSH2 0x506 JUMP JUMPDEST DUP1 SLOAD PUSH1 0x20 DUP8 DUP8 ADD DUP2 ADD SWAP2 SWAP1 SWAP2 MSTORE SWAP1 SWAP6 ADD SWAP5 DUP2 ADD PUSH2 0x54E JUMP JUMPDEST PUSH2 0x522 SWAP8 POP DUP7 SWAP4 POP PUSH1 0x20 SWAP3 POP PUSH2 0x518 SWAP5 SWAP2 POP PUSH1 0xFF NOT AND DUP3 DUP5 ADD MSTORE ISZERO ISZERO PUSH1 0x5 SHL DUP3 ADD ADD SWAP5 PUSH2 0x506 JUMP JUMPDEST SWAP2 SWAP1 POP CALLVALUE PUSH2 0x201 JUMPI DUP2 PUSH1 0x3 NOT CALLDATASIZE ADD SLT PUSH2 0x201 JUMPI PUSH1 0x24 CALLDATALOAD PUSH1 0x1 PUSH1 0x1 PUSH1 0xA0 SHL SUB DUP2 AND SWAP2 SWAP1 DUP3 SWAP1 SUB PUSH2 0x1FD JUMPI PUSH1 0x20 SWAP4 PUSH1 0xFF SWAP3 DUP5 SWAP3 CALLDATALOAD DUP3 MSTORE PUSH1 0x65 DUP7 MSTORE DUP3 DUP3 KECCAK256 SWAP1 DUP3 MSTORE DUP6 MSTORE KECCAK256 SLOAD AND SWAP1 MLOAD SWAP1 ISZERO ISZERO DUP2 MSTORE RETURN JUMPDEST SWAP2 SWAP1 POP CALLVALUE PUSH2 0x201 JUMPI DUP2 PUSH1 0x3 NOT CALLDATASIZE ADD SLT PUSH2 0x201 JUMPI PUSH1 0x20 SWAP3 PUSH2 0x623 SWAP2 CALLDATALOAD DUP2 MSTORE PUSH1 0x97 DUP5 MSTORE DUP3 PUSH1 0x24 CALLDATALOAD SWAP2 KECCAK256 PUSH2 0x1EC6 JUMP JUMPDEST SWAP1 SLOAD SWAP2 MLOAD SWAP2 PUSH1 0x1 DUP1 PUSH1 0xA0 SHL SUB SWAP2 PUSH1 0x3 SHL SHR AND DUP2 MSTORE RETURN JUMPDEST SWAP1 POP CALLVALUE PUSH2 0x201 JUMPI PUSH1 0x80 CALLDATASIZE PUSH1 0x3 NOT ADD SLT PUSH2 0x201 JUMPI PUSH8 0xFFFFFFFFFFFFFFFF SWAP2 DUP1 CALLDATALOAD DUP4 DUP2 GT PUSH2 0xB09 JUMPI PUSH2 0x66C SWAP1 CALLDATASIZE SWAP1 DUP4 ADD PUSH2 0x1454 JUMP JUMPDEST SWAP3 PUSH1 0x24 CALLDATALOAD DUP2 DUP2 GT PUSH2 0xB05 JUMPI PUSH2 0x684 SWAP1 CALLDATASIZE SWAP1 DUP5 ADD PUSH2 0x1454 JUMP JUMPDEST SWAP4 PUSH1 0x44 CALLDATALOAD SWAP2 PUSH1 0x1 PUSH1 0x1 PUSH1 0xA0 SHL SUB SWAP2 DUP3 DUP5 AND DUP5 SUB PUSH2 0xB01 JUMPI PUSH1 0x64 CALLDATALOAD SWAP3 DUP4 AND DUP1 SWAP4 SUB PUSH2 0xB01 JUMPI DUP8 SLOAD SWAP7 PUSH1 0xFF DUP9 PUSH1 0x8 SHR AND ISZERO SWAP6 DUP7 DUP1 SWAP8 PUSH2 0xAF4 JUMPI JUMPDEST DUP1 ISZERO PUSH2 0xADD JUMPI JUMPDEST ISZERO PUSH2 0xA83 JUMPI PUSH1 0x1 SWAP9 DUP8 DUP11 PUSH1 0xFF NOT DUP4 AND OR DUP13 SSTORE PUSH2 0xA72 JUMPI JUMPDEST POP PUSH2 0x6FD PUSH1 0xFF DUP12 SLOAD PUSH1 0x8 SHR AND PUSH2 0x6EF DUP2 PUSH2 0x20E9 JUMP JUMPDEST PUSH2 0x6F8 DUP2 PUSH2 0x20E9 JUMP JUMPDEST PUSH2 0x20E9 JUMP JUMPDEST DUP3 MLOAD DUP5 DUP2 GT PUSH2 0xA5F JUMPI DUP1 PUSH2 0x712 PUSH1 0xCC SLOAD PUSH2 0x1A1D JUMP JUMPDEST SWAP5 PUSH1 0x1F SWAP6 DUP7 DUP2 GT PUSH2 0x9EE JUMPI JUMPDEST POP PUSH1 0x20 SWAP1 DUP14 DUP8 DUP5 GT PUSH1 0x1 EQ PUSH2 0x970 JUMPI SWAP3 PUSH2 0x965 JUMPI JUMPDEST POP POP PUSH0 NOT PUSH1 0x3 DUP4 SWAP1 SHL SHR NOT AND SWAP1 DUP11 SHL OR PUSH1 0xCC SSTORE JUMPDEST DUP2 MLOAD SWAP4 DUP5 GT PUSH2 0x952 JUMPI POP PUSH2 0x75C PUSH1 0xCD SLOAD PUSH2 0x1A1D JUMP JUMPDEST DUP3 DUP2 GT PUSH2 0x8EF JUMPI JUMPDEST POP PUSH1 0x20 SWAP2 DUP4 GT PUSH1 0x1 EQ PUSH2 0x86B JUMPI PUSH2 0x81F SWAP5 SWAP4 SWAP3 SWAP2 DUP10 SWAP2 DUP4 PUSH2 0x860 JUMPI JUMPDEST POP POP PUSH0 NOT PUSH1 0x3 DUP4 SWAP1 SHL SHR NOT AND SWAP1 DUP8 SHL OR PUSH1 0xCD SSTORE JUMPDEST PUSH2 0x7B1 PUSH1 0xFF DUP9 SLOAD PUSH1 0x8 SHR AND PUSH2 0x7A8 DUP2 PUSH2 0x20E9 JUMP JUMPDEST PUSH2 0x6EF DUP2 PUSH2 0x20E9 JUMP JUMPDEST PUSH2 0x191 DUP1 SLOAD PUSH1 0x1 PUSH1 0x1 PUSH1 0xA0 SHL SUB NOT AND SWAP1 SWAP2 OR SWAP1 SSTORE PUSH2 0x7CF DUP2 DUP8 PUSH2 0x1472 JUMP JUMPDEST PUSH2 0x7F9 DUP2 PUSH32 0x9F2DF0FED2C77648DE5860A4CC508CD0818C85B8B8A1AB4CEEEF8D981C8956A6 PUSH2 0x1472 JUMP JUMPDEST PUSH32 0x3C11D16CBAFFD01DF69CE1C404F6340EE057498F5F00246190EA54220576A848 PUSH2 0x1472 JUMP JUMPDEST PUSH2 0x827 JUMPI DUP3 DUP1 RETURN JUMPDEST DUP3 SLOAD PUSH2 0xFF00 NOT AND DUP4 SSTORE MLOAD SWAP1 DUP2 MSTORE PUSH32 0x7F26B83FF96E1F2B6A682F133852F6798A09C465DA95921460CEFB3847402498 SWAP1 PUSH1 0x20 SWAP1 LOG1 PUSH0 DUP1 DUP3 DUP1 RETURN JUMPDEST ADD MLOAD SWAP1 POP PUSH0 DUP1 PUSH2 0x780 JUMP JUMPDEST PUSH1 0xCD DUP10 MSTORE SWAP4 SWAP3 SWAP2 DUP8 SWAP2 PUSH32 0x83978B4C69C48DD978AB43FE30F077615294F938FB7F936D9EB340E51EA7DB2E SWAP1 PUSH1 0x1F NOT DUP4 AND DUP12 JUMPDEST DUP2 DUP2 LT PUSH2 0x8D7 JUMPI POP SWAP7 DUP4 PUSH2 0x81F SWAP9 LT PUSH2 0x8BF JUMPI JUMPDEST POP POP POP DUP2 SHL ADD PUSH1 0xCD SSTORE PUSH2 0x794 JUMP JUMPDEST ADD MLOAD PUSH0 NOT PUSH1 0xF8 DUP5 PUSH1 0x3 SHL AND SHR NOT AND SWAP1 SSTORE PUSH0 DUP1 DUP1 PUSH2 0x8B1 JUMP JUMPDEST DUP3 DUP10 ADD MLOAD DUP5 SSTORE DUP12 SWAP6 SWAP1 SWAP4 ADD SWAP3 PUSH1 0x20 SWAP3 DUP4 ADD SWAP3 ADD PUSH2 0x89D JUMP JUMPDEST PUSH1 0xCD DUP11 MSTORE PUSH32 0x83978B4C69C48DD978AB43FE30F077615294F938FB7F936D9EB340E51EA7DB2E DUP4 DUP1 DUP7 ADD PUSH1 0x5 SHR DUP3 ADD SWAP3 PUSH1 0x20 DUP8 LT PUSH2 0x949 JUMPI JUMPDEST ADD PUSH1 0x5 SHR ADD SWAP1 DUP10 SWAP1 JUMPDEST DUP3 DUP2 LT PUSH2 0x93E JUMPI POP POP PUSH2 0x764 JUMP JUMPDEST DUP12 DUP2 SSTORE ADD DUP10 SWAP1 PUSH2 0x930 JUMP JUMPDEST SWAP3 POP DUP2 SWAP3 PUSH2 0x927 JUMP JUMPDEST PUSH4 0x4E487B71 PUSH1 0xE0 SHL DUP11 MSTORE PUSH1 0x41 SWAP1 MSTORE PUSH1 0x24 DUP10 REVERT JUMPDEST ADD MLOAD SWAP1 POP PUSH0 DUP1 PUSH2 0x733 JUMP JUMPDEST SWAP2 SWAP1 DUP14 SWAP5 POP PUSH1 0x1F NOT DUP5 AND PUSH1 0xCC DUP5 MSTORE PUSH32 0x47197230E1E4B29FC0BD84D7D78966C0925452AFF72A2A121538B102457E9EBE SWAP4 JUMPDEST DUP2 DUP2 LT PUSH2 0x9D6 JUMPI POP DUP5 GT PUSH2 0x9BE JUMPI JUMPDEST POP POP POP DUP2 SHL ADD PUSH1 0xCC SSTORE PUSH2 0x747 JUMP JUMPDEST ADD MLOAD PUSH0 NOT PUSH1 0xF8 DUP5 PUSH1 0x3 SHL AND SHR NOT AND SWAP1 SSTORE PUSH0 DUP1 DUP1 PUSH2 0x9B0 JUMP JUMPDEST DUP3 DUP5 ADD MLOAD DUP6 SSTORE DUP16 SWAP7 SWAP1 SWAP5 ADD SWAP4 PUSH1 0x20 SWAP4 DUP5 ADD SWAP4 ADD PUSH2 0x9A1 JUMP JUMPDEST SWAP1 SWAP2 POP PUSH1 0xCC DUP14 MSTORE PUSH32 0x47197230E1E4B29FC0BD84D7D78966C0925452AFF72A2A121538B102457E9EBE DUP7 DUP1 DUP6 ADD PUSH1 0x5 SHR DUP3 ADD SWAP3 PUSH1 0x20 DUP7 LT PUSH2 0xA56 JUMPI JUMPDEST DUP6 SWAP5 SWAP4 SWAP2 ADD PUSH1 0x5 SHR SWAP1 SWAP2 ADD SWAP1 DUP14 SWAP1 DUP16 JUMPDEST DUP4 DUP3 LT PUSH2 0xA48 JUMPI POP POP POP PUSH2 0x71E JUMP JUMPDEST DUP2 SSTORE DUP6 SWAP5 POP DUP15 SWAP2 ADD DUP16 PUSH2 0xA39 JUMP JUMPDEST SWAP3 POP DUP2 SWAP3 PUSH2 0xA29 JUMP JUMPDEST PUSH4 0x4E487B71 PUSH1 0xE0 SHL DUP12 MSTORE PUSH1 0x41 DUP3 MSTORE PUSH1 0x24 DUP12 REVERT JUMPDEST PUSH2 0xFFFF NOT AND PUSH2 0x101 OR DUP11 SSTORE PUSH0 PUSH2 0x6DA JUMP JUMPDEST PUSH1 0x84 SWAP1 PUSH1 0x20 DUP10 MLOAD SWAP2 PUSH3 0x461BCD PUSH1 0xE5 SHL DUP4 MSTORE DUP3 ADD MSTORE PUSH1 0x2E PUSH1 0x24 DUP3 ADD MSTORE PUSH32 0x496E697469616C697A61626C653A20636F6E747261637420697320616C726561 PUSH1 0x44 DUP3 ADD MSTORE PUSH14 0x191E481A5B9A5D1A585B1A5E9959 PUSH1 0x92 SHL PUSH1 0x64 DUP3 ADD MSTORE REVERT JUMPDEST POP ADDRESS EXTCODESIZE ISZERO DUP1 ISZERO PUSH2 0x6C3 JUMPI POP PUSH1 0x1 PUSH1 0xFF DUP11 AND EQ PUSH2 0x6C3 JUMP JUMPDEST POP PUSH1 0x1 PUSH1 0xFF DUP11 AND LT PUSH2 0x6BC JUMP JUMPDEST DUP8 DUP1 REVERT JUMPDEST DUP6 DUP1 REVERT JUMPDEST DUP5 DUP1 REVERT JUMPDEST SWAP1 POP CALLVALUE PUSH2 0x201 JUMPI PUSH1 0x20 CALLDATASIZE PUSH1 0x3 NOT ADD SLT PUSH2 0x201 JUMPI DUP2 CALLDATALOAD SWAP1 PUSH1 0x1 PUSH1 0x1 PUSH1 0xA0 SHL SUB DUP3 AND DUP3 SUB PUSH2 0x1FD JUMPI DUP4 DUP1 MSTORE PUSH1 0x65 PUSH1 0x20 MSTORE PUSH2 0xB4A PUSH1 0x1 DUP3 DUP7 KECCAK256 ADD SLOAD PUSH2 0x14FE JUMP JUMPDEST PUSH2 0xB54 DUP3 DUP6 PUSH2 0x1472 JUMP JUMPDEST PUSH32 0x9F2DF0FED2C77648DE5860A4CC508CD0818C85B8B8A1AB4CEEEF8D981C8956A6 PUSH2 0xB7F DUP4 DUP3 PUSH2 0x1472 JUMP JUMPDEST PUSH2 0xBAA PUSH32 0x3C11D16CBAFFD01DF69CE1C404F6340EE057498F5F00246190EA54220576A848 SWAP4 DUP5 PUSH2 0x1472 JUMP JUMPDEST PUSH2 0xBB4 CALLER DUP3 PUSH2 0x15D9 JUMP JUMPDEST PUSH2 0xBBE CALLER DUP5 PUSH2 0x15D9 JUMP JUMPDEST PUSH2 0xBC8 CALLER DUP7 PUSH2 0x15D9 JUMP JUMPDEST DUP5 DUP1 MSTORE PUSH1 0x97 PUSH1 0x20 MSTORE PUSH1 0x1 DUP3 DUP7 KECCAK256 SLOAD SUB PUSH2 0xC31 JUMPI DUP1 DUP6 MSTORE PUSH1 0x97 PUSH1 0x20 MSTORE PUSH1 0x1 DUP3 DUP7 KECCAK256 SLOAD SUB PUSH2 0xC1B JUMPI POP DUP2 DUP5 MSTORE PUSH1 0x97 PUSH1 0x20 MSTORE PUSH1 0x1 DUP2 DUP6 KECCAK256 SLOAD SUB PUSH2 0xC06 JUMPI DUP4 DUP1 RETURN JUMPDEST MLOAD PUSH4 0xE2B37CD PUSH1 0xE4 SHL DUP2 MSTORE SWAP2 DUP3 ADD MSTORE PUSH1 0x24 SWAP2 POP REVERT JUMPDEST DUP4 SWAP1 PUSH1 0x24 SWAP3 MLOAD SWAP2 PUSH4 0xE2B37CD PUSH1 0xE4 SHL DUP4 MSTORE DUP3 ADD MSTORE REVERT JUMPDEST DUP2 MLOAD PUSH4 0xE2B37CD PUSH1 0xE4 SHL DUP2 MSTORE DUP1 DUP6 ADD DUP7 SWAP1 MSTORE PUSH1 0x24 SWAP1 REVERT JUMPDEST SWAP2 SWAP1 POP CALLVALUE PUSH2 0x201 JUMPI PUSH1 0x20 CALLDATASIZE PUSH1 0x3 NOT ADD SLT PUSH2 0x201 JUMPI CALLDATALOAD PUSH1 0x1 PUSH1 0x1 PUSH1 0xA0 SHL SUB DUP2 AND SWAP1 DUP2 SWAP1 SUB PUSH2 0x201 JUMPI DUP3 DUP3 SWAP2 PUSH1 0x20 SWAP5 MSTORE PUSH1 0xC9 DUP5 MSTORE KECCAK256 SLOAD SWAP1 MLOAD SWAP1 DUP2 MSTORE RETURN JUMPDEST DUP3 DUP5 CALLVALUE PUSH2 0x2B5 JUMPI DUP1 PUSH1 0x3 NOT CALLDATASIZE ADD SLT PUSH2 0x2B5 JUMPI POP PUSH32 0x0 PUSH1 0x1 PUSH1 0x1 PUSH1 0xA0 SHL SUB AND ADDRESS SUB PUSH2 0xCEF JUMPI PUSH1 0x20 DUP3 MLOAD PUSH32 0x360894A13BA1A3210667C828492DB98DCA3E2076CC3735A920A3CA505D382BBC DUP2 MSTORE RETURN JUMPDEST PUSH1 0x20 PUSH1 0x84 SWAP3 MLOAD SWAP2 PUSH3 0x461BCD PUSH1 0xE5 SHL DUP4 MSTORE DUP3 ADD MSTORE PUSH1 0x38 PUSH1 0x24 DUP3 ADD MSTORE PUSH32 0x555550535570677261646561626C653A206D757374206E6F742062652063616C PUSH1 0x44 DUP3 ADD MSTORE PUSH32 0x6C6564207468726F7567682064656C656761746563616C6C0000000000000000 PUSH1 0x64 DUP3 ADD MSTORE REVERT JUMPDEST CALLDATASIZE PUSH1 0x3 NOT ADD SLT SWAP1 POP PUSH2 0x1A7 JUMPI DUP1 CALLDATALOAD PUSH1 0x1 PUSH1 0x1 PUSH1 0xA0 SHL SUB DUP1 DUP3 AND DUP3 SUB PUSH2 0x1FD JUMPI PUSH1 0x24 CALLDATALOAD SWAP2 PUSH8 0xFFFFFFFFFFFFFFFF DUP4 GT PUSH2 0xB09 JUMPI CALLDATASIZE PUSH1 0x23 DUP5 ADD SLT ISZERO PUSH2 0xB09 JUMPI PUSH2 0xE09 PUSH2 0xDAF PUSH2 0x24C SWAP6 DUP6 PUSH1 0x24 PUSH1 0x1 SWAP8 CALLDATASIZE SWAP4 ADD CALLDATALOAD SWAP2 ADD PUSH2 0x141A JUMP JUMPDEST SWAP3 DUP1 PUSH32 0x0 AND SWAP1 PUSH2 0xDE0 DUP3 ADDRESS EQ ISZERO PUSH2 0x165E JUMP JUMPDEST PUSH32 0x360894A13BA1A3210667C828492DB98DCA3E2076CC3735A920A3CA505D382BBC SLOAD AND EQ PUSH2 0x16BF JUMP JUMPDEST PUSH2 0xE11 PUSH2 0x204F JUMP JUMPDEST PUSH2 0x1720 JUMP JUMPDEST SWAP1 POP DUP3 CALLVALUE PUSH2 0x2B5 JUMPI DUP2 PUSH1 0x3 NOT CALLDATASIZE ADD SLT PUSH2 0x2B5 JUMPI DUP3 CALLDATALOAD PUSH1 0x1 PUSH1 0x1 PUSH1 0xA0 SHL SUB DUP2 AND SWAP2 SWAP1 DUP3 SWAP1 SUB PUSH2 0x2B5 JUMPI PUSH1 0x24 CALLDATALOAD PUSH2 0xE6A PUSH32 0x9F2DF0FED2C77648DE5860A4CC508CD0818C85B8B8A1AB4CEEEF8D981C8956A6 PUSH2 0x14FE JUMP JUMPDEST DUP3 ISZERO PUSH2 0xEC3 JUMPI PUSH1 0x20 DUP1 SWAP6 POP DUP2 PUSH2 0xEA3 PUSH32 0xDDF252AD1BE2C89B69C2B068FC378DAA952BA7F163C4A11628F55A4DF523B3EF SWAP4 PUSH1 0xCB SLOAD PUSH2 0x1A55 JUMP JUMPDEST PUSH1 0xCB SSTORE DUP5 DUP5 MSTORE PUSH1 0xC9 DUP3 MSTORE DUP6 DUP5 KECCAK256 DUP2 DUP2 SLOAD ADD SWAP1 SSTORE DUP6 MLOAD SWAP1 DUP2 MSTORE LOG3 MLOAD PUSH1 0x1 DUP2 MSTORE RETURN JUMPDEST DUP4 MLOAD PUSH3 0x461BCD PUSH1 0xE5 SHL DUP2 MSTORE PUSH1 0x20 DUP2 DUP8 ADD MSTORE PUSH1 0x1F PUSH1 0x24 DUP3 ADD MSTORE PUSH32 0x45524332303A206D696E7420746F20746865207A65726F206164647265737300 PUSH1 0x44 DUP3 ADD MSTORE PUSH1 0x64 SWAP1 REVERT JUMPDEST SWAP2 SWAP1 POP CALLVALUE PUSH2 0x201 JUMPI DUP2 PUSH1 0x3 NOT CALLDATASIZE ADD SLT PUSH2 0x201 JUMPI CALLDATALOAD PUSH1 0x1 PUSH1 0x1 PUSH1 0xA0 SHL SUB DUP2 AND DUP1 DUP3 SUB PUSH2 0x1FD JUMPI SWAP1 PUSH2 0xF51 PUSH1 0x20 SWAP5 PUSH2 0x2AE SWAP4 CALLER DUP3 MSTORE PUSH1 0xCA DUP8 MSTORE DUP6 DUP3 KECCAK256 SWAP1 DUP3 MSTORE DUP7 MSTORE DUP5 PUSH1 0x24 CALLDATALOAD SWAP2 KECCAK256 SLOAD PUSH2 0x1A55 JUMP JUMPDEST SWAP1 CALLER PUSH2 0x1BE5 JUMP JUMPDEST SWAP2 POP SWAP2 CALLVALUE PUSH2 0x1A7 JUMPI PUSH1 0x20 CALLDATASIZE PUSH1 0x3 NOT ADD SLT PUSH2 0x1A7 JUMPI PUSH1 0x1 PUSH1 0x1 PUSH1 0xA0 SHL SUB SWAP3 SWAP1 CALLDATALOAD DUP4 DUP2 AND DUP2 SUB PUSH2 0x201 JUMPI PUSH2 0xFB7 DUP5 PUSH2 0x24C SWAP6 PUSH32 0x0 AND SWAP1 PUSH2 0xDE0 DUP3 ADDRESS EQ ISZERO PUSH2 0x165E JUMP JUMPDEST PUSH2 0xFBF PUSH2 0x204F JUMP JUMPDEST PUSH2 0xFD4 PUSH2 0xFCB DUP5 PUSH2 0x13FE JUMP JUMPDEST SWAP3 MLOAD SWAP3 DUP4 PUSH2 0x13C8 JUMP JUMPDEST DUP3 DUP3 MSTORE PUSH1 0x1F NOT PUSH2 0xFE3 DUP5 PUSH2 0x13FE JUMP JUMPDEST ADD CALLDATASIZE PUSH1 0x20 DUP5 ADD CALLDATACOPY PUSH2 0x1720 JUMP JUMPDEST DUP4 DUP4 CALLVALUE PUSH2 0x1A7 JUMPI DUP3 PUSH1 0x3 NOT CALLDATASIZE ADD SLT PUSH2 0x1A7 JUMPI PUSH1 0x24 CALLDATALOAD SWAP1 PUSH1 0x1 PUSH1 0x1 PUSH1 0xA0 SHL SUB DUP3 AND DUP1 DUP4 SUB PUSH2 0x1FD JUMPI CALLER SUB PUSH2 0x1027 JUMPI SWAP1 PUSH2 0x24C SWAP2 CALLDATALOAD PUSH2 0x15D9 JUMP JUMPDEST PUSH1 0x84 SWAP1 PUSH1 0x20 DUP6 MLOAD SWAP2 PUSH3 0x461BCD PUSH1 0xE5 SHL DUP4 MSTORE DUP3 ADD MSTORE PUSH1 0x2F PUSH1 0x24 DUP3 ADD MSTORE PUSH32 0x416363657373436F6E74726F6C3A2063616E206F6E6C792072656E6F756E6365 PUSH1 0x44 DUP3 ADD MSTORE PUSH15 0x103937B632B9903337B91039B2B633 PUSH1 0x89 SHL PUSH1 0x64 DUP3 ADD MSTORE REVERT JUMPDEST DUP4 SWAP1 CALLVALUE PUSH2 0x1A7 JUMPI DUP2 PUSH1 0x3 NOT CALLDATASIZE ADD SLT PUSH2 0x1A7 JUMPI PUSH1 0x20 SWAP1 MLOAD PUSH1 0x12 DUP2 MSTORE RETURN JUMPDEST SWAP2 SWAP1 POP CALLVALUE PUSH2 0x201 JUMPI DUP2 PUSH1 0x3 NOT CALLDATASIZE ADD SLT PUSH2 0x201 JUMPI PUSH1 0x24 CALLDATALOAD SWAP1 CALLDATALOAD PUSH1 0x1 PUSH1 0x1 PUSH1 0xA0 SHL SUB DUP3 AND DUP3 SUB PUSH2 0x1FD JUMPI PUSH2 0x10E0 PUSH1 0x1 PUSH2 0x24C SWAP5 DUP4 DUP8 MSTORE PUSH1 0x65 PUSH1 0x20 MSTORE DUP7 KECCAK256 ADD SLOAD PUSH2 0x14FE JUMP JUMPDEST PUSH2 0x1472 JUMP JUMPDEST SWAP2 SWAP1 POP CALLVALUE PUSH2 0x201 JUMPI PUSH1 0x20 CALLDATASIZE PUSH1 0x3 NOT ADD SLT PUSH2 0x201 JUMPI DUP2 PUSH1 0x20 SWAP4 PUSH1 0x1 SWAP3 CALLDATALOAD DUP2 MSTORE PUSH1 0x65 DUP6 MSTORE KECCAK256 ADD SLOAD SWAP1 MLOAD SWAP1 DUP2 MSTORE RETURN JUMPDEST DUP4 DUP4 CALLVALUE PUSH2 0x1A7 JUMPI PUSH1 0x60 CALLDATASIZE PUSH1 0x3 NOT ADD SLT PUSH2 0x1A7 JUMPI DUP1 CALLDATALOAD PUSH1 0x1 PUSH1 0x1 PUSH1 0xA0 SHL SUB DUP2 DUP2 AND SWAP4 SWAP1 SWAP3 SWAP1 DUP5 DUP4 SUB PUSH2 0x2B5 JUMPI PUSH1 0x24 CALLDATALOAD SWAP4 DUP5 AND DUP5 SUB PUSH2 0x2B5 JUMPI DUP6 SWAP1 PUSH1 0x44 CALLDATALOAD SWAP6 DUP2 MSTORE PUSH1 0xCA PUSH1 0x20 MSTORE DUP2 DUP2 KECCAK256 CALLER DUP3 MSTORE PUSH1 0x20 MSTORE KECCAK256 SLOAD SWAP1 PUSH0 NOT DUP3 SUB PUSH2 0x1178 JUMPI JUMPDEST PUSH1 0x20 DUP7 PUSH2 0x2AE DUP8 DUP8 DUP8 PUSH2 0x1A76 JUMP JUMPDEST DUP5 DUP3 LT PUSH2 0x11A1 JUMPI POP SWAP2 DUP4 SWAP2 PUSH2 0x1196 PUSH1 0x20 SWAP7 SWAP6 PUSH2 0x2AE SWAP6 SUB CALLER DUP4 PUSH2 0x1BE5 JUMP JUMPDEST SWAP2 SWAP4 SWAP5 DUP2 SWAP4 POP PUSH2 0x116A JUMP JUMPDEST PUSH1 0x64 SWAP1 PUSH1 0x20 DUP8 MLOAD SWAP2 PUSH3 0x461BCD PUSH1 0xE5 SHL DUP4 MSTORE DUP3 ADD MSTORE PUSH1 0x1D PUSH1 0x24 DUP3 ADD MSTORE PUSH32 0x45524332303A20696E73756666696369656E7420616C6C6F77616E6365000000 PUSH1 0x44 DUP3 ADD MSTORE REVERT JUMPDEST DUP4 SWAP1 CALLVALUE PUSH2 0x1A7 JUMPI DUP2 PUSH1 0x3 NOT CALLDATASIZE ADD SLT PUSH2 0x1A7 JUMPI PUSH1 0x20 SWAP1 PUSH1 0xCB SLOAD SWAP1 MLOAD SWAP1 DUP2 MSTORE RETURN JUMPDEST DUP4 SWAP1 CALLVALUE PUSH2 0x1A7 JUMPI DUP2 PUSH1 0x3 NOT CALLDATASIZE ADD SLT PUSH2 0x1A7 JUMPI PUSH2 0x191 SLOAD SWAP1 MLOAD PUSH1 0x1 PUSH1 0x1 PUSH1 0xA0 SHL SUB SWAP1 SWAP2 AND DUP2 MSTORE PUSH1 0x20 SWAP1 RETURN JUMPDEST SWAP2 SWAP1 POP CALLVALUE PUSH2 0x201 JUMPI DUP2 PUSH1 0x3 NOT CALLDATASIZE ADD SLT PUSH2 0x201 JUMPI CALLDATALOAD SWAP2 PUSH1 0x1 PUSH1 0x1 PUSH1 0xA0 SHL SUB DUP4 AND DUP4 SUB PUSH2 0x2B5 JUMPI POP PUSH2 0x2AE PUSH1 0x20 SWAP3 PUSH1 0x24 CALLDATALOAD SWAP1 CALLER PUSH2 0x1BE5 JUMP JUMPDEST DUP4 SWAP1 CALLVALUE PUSH2 0x1A7 JUMPI DUP2 PUSH1 0x3 NOT CALLDATASIZE ADD SLT PUSH2 0x1A7 JUMPI DUP1 MLOAD SWAP1 DUP3 PUSH1 0xCC SLOAD PUSH2 0x1285 DUP2 PUSH2 0x1A1D JUMP JUMPDEST DUP1 DUP6 MSTORE SWAP2 PUSH1 0x1 SWAP2 DUP1 DUP4 AND SWAP1 DUP2 ISZERO PUSH2 0x583 JUMPI POP PUSH1 0x1 EQ PUSH2 0x12B0 JUMPI POP POP POP PUSH2 0x518 DUP3 PUSH2 0x522 SWAP5 SUB DUP4 PUSH2 0x13C8 JUMP JUMPDEST SWAP5 POP PUSH1 0xCC DUP6 MSTORE PUSH32 0x47197230E1E4B29FC0BD84D7D78966C0925452AFF72A2A121538B102457E9EBE JUMPDEST DUP3 DUP7 LT PUSH2 0x12F5 JUMPI POP POP POP PUSH2 0x518 DUP3 PUSH1 0x20 PUSH2 0x522 SWAP6 DUP3 ADD ADD SWAP5 PUSH2 0x506 JUMP JUMPDEST DUP1 SLOAD PUSH1 0x20 DUP8 DUP8 ADD DUP2 ADD SWAP2 SWAP1 SWAP2 MSTORE SWAP1 SWAP6 ADD SWAP5 DUP2 ADD PUSH2 0x12D8 JUMP JUMPDEST DUP5 SWAP1 DUP5 CALLVALUE PUSH2 0x201 JUMPI PUSH1 0x20 CALLDATASIZE PUSH1 0x3 NOT ADD SLT PUSH2 0x201 JUMPI CALLDATALOAD PUSH4 0xFFFFFFFF PUSH1 0xE0 SHL DUP2 AND DUP1 SWAP2 SUB PUSH2 0x201 JUMPI PUSH1 0x20 SWAP3 POP PUSH4 0x5A05180F PUSH1 0xE0 SHL DUP2 EQ SWAP1 DUP2 ISZERO PUSH2 0x1350 JUMPI JUMPDEST POP ISZERO ISZERO DUP2 MSTORE RETURN JUMPDEST PUSH4 0x7965DB0B PUSH1 0xE0 SHL DUP2 EQ SWAP2 POP DUP2 ISZERO PUSH2 0x136A JUMPI JUMPDEST POP DUP4 PUSH2 0x1349 JUMP JUMPDEST PUSH4 0x1FFC9A7 PUSH1 0xE0 SHL EQ SWAP1 POP DUP4 PUSH2 0x1363 JUMP JUMPDEST PUSH0 JUMPDEST DUP4 DUP2 LT PUSH2 0x138C JUMPI POP POP PUSH0 SWAP2 ADD MSTORE JUMP JUMPDEST DUP2 DUP2 ADD MLOAD DUP4 DUP3 ADD MSTORE PUSH1 0x20 ADD PUSH2 0x137D JUMP JUMPDEST PUSH1 0x40 SWAP2 PUSH1 0x20 DUP3 MSTORE PUSH2 0x13BC DUP2 MLOAD DUP1 SWAP3 DUP2 PUSH1 0x20 DUP7 ADD MSTORE PUSH1 0x20 DUP7 DUP7 ADD SWAP2 ADD PUSH2 0x137B JUMP JUMPDEST PUSH1 0x1F ADD PUSH1 0x1F NOT AND ADD ADD SWAP1 JUMP JUMPDEST SWAP1 PUSH1 0x1F DUP1 NOT SWAP2 ADD AND DUP2 ADD SWAP1 DUP2 LT PUSH8 0xFFFFFFFFFFFFFFFF DUP3 GT OR PUSH2 0x13EA JUMPI PUSH1 0x40 MSTORE JUMP JUMPDEST PUSH4 0x4E487B71 PUSH1 0xE0 SHL PUSH0 MSTORE PUSH1 0x41 PUSH1 0x4 MSTORE PUSH1 0x24 PUSH0 REVERT JUMPDEST PUSH8 0xFFFFFFFFFFFFFFFF DUP2 GT PUSH2 0x13EA JUMPI PUSH1 0x1F ADD PUSH1 0x1F NOT AND PUSH1 0x20 ADD SWAP1 JUMP JUMPDEST SWAP3 SWAP2 SWAP3 PUSH2 0x1426 DUP3 PUSH2 0x13FE JUMP JUMPDEST SWAP2 PUSH2 0x1434 PUSH1 0x40 MLOAD SWAP4 DUP5 PUSH2 0x13C8 JUMP JUMPDEST DUP3 SWAP5 DUP2 DUP5 MSTORE DUP2 DUP4 ADD GT PUSH2 0x1450 JUMPI DUP3 DUP2 PUSH1 0x20 SWAP4 DUP5 PUSH0 SWAP7 ADD CALLDATACOPY ADD ADD MSTORE JUMP JUMPDEST PUSH0 DUP1 REVERT JUMPDEST SWAP1 DUP1 PUSH1 0x1F DUP4 ADD SLT ISZERO PUSH2 0x1450 JUMPI DUP2 PUSH1 0x20 PUSH2 0x146F SWAP4 CALLDATALOAD SWAP2 ADD PUSH2 0x141A JUMP JUMPDEST SWAP1 JUMP JUMPDEST SWAP1 PUSH1 0x40 PUSH2 0x14B0 SWAP3 PUSH0 SWAP1 DUP1 DUP3 MSTORE PUSH1 0x65 PUSH1 0x20 MSTORE DUP3 DUP3 KECCAK256 SWAP4 PUSH1 0x1 DUP1 PUSH1 0xA0 SHL SUB AND SWAP4 DUP5 DUP4 MSTORE PUSH1 0x20 MSTORE PUSH1 0xFF DUP4 DUP4 KECCAK256 SLOAD AND ISZERO PUSH2 0x14B3 JUMPI JUMPDEST DUP2 MSTORE PUSH1 0x97 PUSH1 0x20 MSTORE KECCAK256 PUSH2 0x1EDB JUMP JUMPDEST POP JUMP JUMPDEST DUP1 DUP3 MSTORE PUSH1 0x65 PUSH1 0x20 MSTORE DUP3 DUP3 KECCAK256 DUP5 DUP4 MSTORE PUSH1 0x20 MSTORE DUP3 DUP3 KECCAK256 PUSH1 0x1 PUSH1 0xFF NOT DUP3 SLOAD AND OR SWAP1 SSTORE CALLER DUP5 DUP3 PUSH32 0x2F8788117E7EFF1D82E926EC794901D17C78024A50270940304540A733656F0D DUP6 DUP1 LOG4 PUSH2 0x14A3 JUMP JUMPDEST DUP1 PUSH0 MSTORE PUSH1 0x20 PUSH1 0x65 DUP2 MSTORE PUSH1 0x40 PUSH0 KECCAK256 CALLER PUSH0 MSTORE DUP2 MSTORE PUSH1 0xFF PUSH1 0x40 PUSH0 KECCAK256 SLOAD AND ISZERO PUSH2 0x1521 JUMPI POP POP JUMP JUMPDEST PUSH2 0x15BD PUSH1 0x48 PUSH2 0x15D5 SWAP4 DUP4 PUSH2 0x1543 PUSH2 0x15AE SWAP6 PUSH2 0x153D PUSH1 0x14 CALLER PUSH2 0x1D74 JUMP JUMPDEST SWAP4 PUSH2 0x1D74 JUMP JUMPDEST SWAP1 PUSH1 0x40 MLOAD SWAP6 DUP7 SWAP4 PUSH32 0x416363657373436F6E74726F6C3A206163636F756E7420000000000000000000 DUP4 DUP7 ADD MSTORE PUSH2 0x1582 DUP2 MLOAD DUP1 SWAP3 DUP6 PUSH1 0x37 DUP10 ADD SWAP2 ADD PUSH2 0x137B JUMP JUMPDEST DUP5 ADD SWAP2 PUSH17 0x1034B99036B4B9B9B4B733903937B6329 PUSH1 0x7D SHL PUSH1 0x37 DUP5 ADD MSTORE DUP4 MLOAD SWAP4 DUP5 SWAP2 DUP8 DUP6 ADD SWAP2 ADD PUSH2 0x137B JUMP JUMPDEST ADD SUB PUSH1 0x28 DUP2 ADD DUP5 MSTORE ADD DUP3 PUSH2 0x13C8 JUMP JUMPDEST PUSH1 0x40 MLOAD PUSH3 0x461BCD PUSH1 0xE5 SHL DUP2 MSTORE SWAP2 DUP3 SWAP2 PUSH1 0x4 DUP4 ADD PUSH2 0x139C JUMP JUMPDEST SUB SWAP1 REVERT JUMPDEST SWAP1 PUSH1 0x40 PUSH2 0x14B0 SWAP3 PUSH0 SWAP1 DUP1 DUP3 MSTORE PUSH1 0x65 PUSH1 0x20 MSTORE DUP3 DUP3 KECCAK256 SWAP4 PUSH1 0x1 DUP1 PUSH1 0xA0 SHL SUB AND SWAP4 DUP5 DUP4 MSTORE PUSH1 0x20 MSTORE PUSH1 0xFF DUP4 DUP4 KECCAK256 SLOAD AND PUSH2 0x1616 JUMPI JUMPDEST DUP2 MSTORE PUSH1 0x97 PUSH1 0x20 MSTORE KECCAK256 PUSH2 0x1F62 JUMP JUMPDEST DUP1 DUP3 MSTORE PUSH1 0x65 PUSH1 0x20 MSTORE DUP3 DUP3 KECCAK256 DUP5 DUP4 MSTORE PUSH1 0x20 MSTORE DUP3 DUP3 KECCAK256 PUSH1 0xFF NOT DUP2 SLOAD AND SWAP1 SSTORE CALLER DUP5 DUP3 PUSH32 0xF6391F5C32D9C69D2A47EA670B442974B53935D1EDC7FD64EB21E047A839171B DUP6 DUP1 LOG4 PUSH2 0x1609 JUMP JUMPDEST ISZERO PUSH2 0x1665 JUMPI JUMP JUMPDEST PUSH1 0x40 MLOAD PUSH3 0x461BCD PUSH1 0xE5 SHL DUP2 MSTORE PUSH1 0x20 PUSH1 0x4 DUP3 ADD MSTORE PUSH1 0x2C PUSH1 0x24 DUP3 ADD MSTORE PUSH32 0x46756E6374696F6E206D7573742062652063616C6C6564207468726F75676820 PUSH1 0x44 DUP3 ADD MSTORE PUSH12 0x19195B1959D85D1958D85B1B PUSH1 0xA2 SHL PUSH1 0x64 DUP3 ADD MSTORE PUSH1 0x84 SWAP1 REVERT JUMPDEST ISZERO PUSH2 0x16C6 JUMPI JUMP JUMPDEST PUSH1 0x40 MLOAD PUSH3 0x461BCD PUSH1 0xE5 SHL DUP2 MSTORE PUSH1 0x20 PUSH1 0x4 DUP3 ADD MSTORE PUSH1 0x2C PUSH1 0x24 DUP3 ADD MSTORE PUSH32 0x46756E6374696F6E206D7573742062652063616C6C6564207468726F75676820 PUSH1 0x44 DUP3 ADD MSTORE PUSH12 0x6163746976652070726F7879 PUSH1 0xA0 SHL PUSH1 0x64 DUP3 ADD MSTORE PUSH1 0x84 SWAP1 REVERT JUMPDEST SWAP1 SWAP2 PUSH1 0xFF PUSH32 0x4910FDFA16FED3260ED0E7147F7CC6DA11A60208B5B9406D12A635614FFD9143 SLOAD AND PUSH0 EQ PUSH2 0x175A JUMPI POP PUSH2 0x1758 SWAP2 POP PUSH2 0x197B JUMP JUMPDEST JUMP JUMPDEST PUSH1 0x40 DUP1 MLOAD PUSH4 0x52D1902D PUSH1 0xE0 SHL DUP2 MSTORE PUSH1 0x20 SWAP5 SWAP2 SWAP4 SWAP3 SWAP1 PUSH1 0x1 PUSH1 0x1 PUSH1 0xA0 SHL SUB DUP5 AND SWAP1 DUP7 DUP2 PUSH1 0x4 DUP2 DUP6 GAS STATICCALL PUSH0 SWAP2 DUP2 PUSH2 0x194C JUMPI JUMPDEST POP PUSH2 0x17EA JUMPI DUP6 MLOAD PUSH3 0x461BCD PUSH1 0xE5 SHL DUP2 MSTORE PUSH1 0x4 DUP2 ADD DUP9 SWAP1 MSTORE PUSH1 0x2E PUSH1 0x24 DUP3 ADD MSTORE PUSH32 0x45524331393637557067726164653A206E657720696D706C656D656E74617469 PUSH1 0x44 DUP3 ADD MSTORE PUSH14 0x6F6E206973206E6F742055555053 PUSH1 0x90 SHL PUSH1 0x64 DUP3 ADD MSTORE PUSH1 0x84 SWAP1 REVERT JUMPDEST SWAP4 SWAP6 SWAP3 SWAP5 SWAP3 SWAP4 PUSH32 0xC9F76B5EC45E5CDEF99837D7B6D2467235C1DF8933C8CA56DF5C35AFA2C7D444 ADD PUSH2 0x18F6 JUMPI PUSH2 0x181F DUP7 PUSH2 0x197B JUMP JUMPDEST PUSH32 0xBC7CD75A20EE27FD9ADEBAB32041F755214DBC6BFFA90CC0225B39DA2E5C2D3B PUSH0 DUP1 LOG2 DUP4 MLOAD ISZERO SWAP1 DUP2 ISZERO SWAP2 PUSH2 0x18EE JUMPI JUMPDEST POP PUSH2 0x185B JUMPI JUMPDEST POP POP POP POP JUMP JUMPDEST PUSH2 0x18DA SWAP4 PUSH0 DUP1 PUSH2 0x186B PUSH1 0x27 PUSH2 0x13FE JUMP JUMPDEST SWAP6 PUSH2 0x1878 DUP6 MLOAD SWAP8 DUP9 PUSH2 0x13C8 JUMP JUMPDEST PUSH1 0x27 DUP8 MSTORE PUSH32 0x416464726573733A206C6F772D6C6576656C2064656C65676174652063616C6C DUP7 DUP9 ADD MSTORE PUSH7 0x819985A5B1959 PUSH1 0xCA SHL DUP6 DUP9 ADD MSTORE DUP6 DUP2 MLOAD SWAP2 ADD DUP5 GAS DELEGATECALL SWAP2 RETURNDATASIZE ISZERO PUSH2 0x18E4 JUMPI RETURNDATASIZE PUSH2 0x18CC PUSH2 0xFCB DUP3 PUSH2 0x13FE JUMP JUMPDEST DUP2 MSTORE PUSH0 DUP2 SWAP5 RETURNDATASIZE SWAP3 ADD RETURNDATACOPY PUSH2 0x1CE3 JUMP JUMPDEST POP PUSH0 DUP1 DUP1 DUP1 PUSH2 0x1855 JUMP JUMPDEST POP PUSH1 0x60 SWAP3 POP PUSH2 0x1CE3 JUMP JUMPDEST SWAP1 POP PUSH0 PUSH2 0x184F JUMP JUMPDEST DUP3 MLOAD PUSH3 0x461BCD PUSH1 0xE5 SHL DUP2 MSTORE PUSH1 0x4 DUP2 ADD DUP6 SWAP1 MSTORE PUSH1 0x29 PUSH1 0x24 DUP3 ADD MSTORE PUSH32 0x45524331393637557067726164653A20756E737570706F727465642070726F78 PUSH1 0x44 DUP3 ADD MSTORE PUSH9 0x1A58589B1955555251 PUSH1 0xBA SHL PUSH1 0x64 DUP3 ADD MSTORE PUSH1 0x84 SWAP1 REVERT JUMPDEST SWAP1 SWAP2 DUP9 DUP3 DUP2 RETURNDATASIZE DUP4 GT PUSH2 0x1974 JUMPI JUMPDEST PUSH2 0x1963 DUP2 DUP4 PUSH2 0x13C8 JUMP JUMPDEST DUP2 ADD SUB SLT PUSH2 0x2B5 JUMPI POP MLOAD SWAP1 PUSH0 PUSH2 0x178A JUMP JUMPDEST POP RETURNDATASIZE PUSH2 0x1959 JUMP JUMPDEST DUP1 EXTCODESIZE ISZERO PUSH2 0x19C2 JUMPI PUSH32 0x360894A13BA1A3210667C828492DB98DCA3E2076CC3735A920A3CA505D382BBC DUP1 SLOAD PUSH1 0x1 PUSH1 0x1 PUSH1 0xA0 SHL SUB NOT AND PUSH1 0x1 PUSH1 0x1 PUSH1 0xA0 SHL SUB SWAP1 SWAP3 AND SWAP2 SWAP1 SWAP2 OR SWAP1 SSTORE JUMP JUMPDEST PUSH1 0x40 MLOAD PUSH3 0x461BCD PUSH1 0xE5 SHL DUP2 MSTORE PUSH1 0x20 PUSH1 0x4 DUP3 ADD MSTORE PUSH1 0x2D PUSH1 0x24 DUP3 ADD MSTORE PUSH32 0x455243313936373A206E657720696D706C656D656E746174696F6E206973206E PUSH1 0x44 DUP3 ADD MSTORE PUSH13 0x1BDD08184818DBDB9D1C9858DD PUSH1 0x9A SHL PUSH1 0x64 DUP3 ADD MSTORE PUSH1 0x84 SWAP1 REVERT JUMPDEST SWAP1 PUSH1 0x1 DUP3 DUP2 SHR SWAP3 AND DUP1 ISZERO PUSH2 0x1A4B JUMPI JUMPDEST PUSH1 0x20 DUP4 LT EQ PUSH2 0x1A37 JUMPI JUMP JUMPDEST PUSH4 0x4E487B71 PUSH1 0xE0 SHL PUSH0 MSTORE PUSH1 0x22 PUSH1 0x4 MSTORE PUSH1 0x24 PUSH0 REVERT JUMPDEST SWAP2 PUSH1 0x7F AND SWAP2 PUSH2 0x1A2C JUMP JUMPDEST SWAP2 SWAP1 DUP3 ADD DUP1 SWAP3 GT PUSH2 0x1A62 JUMPI JUMP JUMPDEST PUSH4 0x4E487B71 PUSH1 0xE0 SHL PUSH0 MSTORE PUSH1 0x11 PUSH1 0x4 MSTORE PUSH1 0x24 PUSH0 REVERT JUMPDEST PUSH1 0x1 PUSH1 0x1 PUSH1 0xA0 SHL SUB SWAP1 DUP2 AND SWAP2 DUP3 ISZERO PUSH2 0x1B92 JUMPI AND SWAP2 DUP3 ISZERO PUSH2 0x1B41 JUMPI PUSH0 DUP3 DUP2 MSTORE PUSH1 0xC9 PUSH1 0x20 MSTORE PUSH1 0x40 DUP2 KECCAK256 SLOAD SWAP2 DUP1 DUP4 LT PUSH2 0x1AED JUMPI PUSH1 0x40 DUP3 DUP3 PUSH32 0xDDF252AD1BE2C89B69C2B068FC378DAA952BA7F163C4A11628F55A4DF523B3EF SWAP6 DUP8 PUSH1 0x20 SWAP7 MSTORE PUSH1 0xC9 DUP7 MSTORE SUB DUP3 DUP3 KECCAK256 SSTORE DUP7 DUP2 MSTORE KECCAK256 DUP2 DUP2 SLOAD ADD SWAP1 SSTORE PUSH1 0x40 MLOAD SWAP1 DUP2 MSTORE LOG3 JUMP JUMPDEST PUSH1 0x40 MLOAD PUSH3 0x461BCD PUSH1 0xE5 SHL DUP2 MSTORE PUSH1 0x20 PUSH1 0x4 DUP3 ADD MSTORE PUSH1 0x26 PUSH1 0x24 DUP3 ADD MSTORE PUSH32 0x45524332303A207472616E7366657220616D6F756E7420657863656564732062 PUSH1 0x44 DUP3 ADD MSTORE PUSH6 0x616C616E6365 PUSH1 0xD0 SHL PUSH1 0x64 DUP3 ADD MSTORE PUSH1 0x84 SWAP1 REVERT JUMPDEST PUSH1 0x40 MLOAD PUSH3 0x461BCD PUSH1 0xE5 SHL DUP2 MSTORE PUSH1 0x20 PUSH1 0x4 DUP3 ADD MSTORE PUSH1 0x23 PUSH1 0x24 DUP3 ADD MSTORE PUSH32 0x45524332303A207472616E7366657220746F20746865207A65726F2061646472 PUSH1 0x44 DUP3 ADD MSTORE PUSH3 0x657373 PUSH1 0xE8 SHL PUSH1 0x64 DUP3 ADD MSTORE PUSH1 0x84 SWAP1 REVERT JUMPDEST PUSH1 0x40 MLOAD PUSH3 0x461BCD PUSH1 0xE5 SHL DUP2 MSTORE PUSH1 0x20 PUSH1 0x4 DUP3 ADD MSTORE PUSH1 0x25 PUSH1 0x24 DUP3 ADD MSTORE PUSH32 0x45524332303A207472616E736665722066726F6D20746865207A65726F206164 PUSH1 0x44 DUP3 ADD MSTORE PUSH5 0x6472657373 PUSH1 0xD8 SHL PUSH1 0x64 DUP3 ADD MSTORE PUSH1 0x84 SWAP1 REVERT JUMPDEST PUSH1 0x1 PUSH1 0x1 PUSH1 0xA0 SHL SUB SWAP1 DUP2 AND SWAP2 DUP3 ISZERO PUSH2 0x1C92 JUMPI AND SWAP2 DUP3 ISZERO PUSH2 0x1C42 JUMPI PUSH1 0x20 PUSH32 0x8C5BE1E5EBEC7D5BD14F71427D1E84F3DD0314C0F7B2291E5B200AC8C7C3B925 SWAP2 DUP4 PUSH0 MSTORE PUSH1 0xCA DUP3 MSTORE PUSH1 0x40 PUSH0 KECCAK256 DUP6 PUSH0 MSTORE DUP3 MSTORE DUP1 PUSH1 0x40 PUSH0 KECCAK256 SSTORE PUSH1 0x40 MLOAD SWAP1 DUP2 MSTORE LOG3 JUMP JUMPDEST PUSH1 0x40 MLOAD PUSH3 0x461BCD PUSH1 0xE5 SHL DUP2 MSTORE PUSH1 0x20 PUSH1 0x4 DUP3 ADD MSTORE PUSH1 0x22 PUSH1 0x24 DUP3 ADD MSTORE PUSH32 0x45524332303A20617070726F766520746F20746865207A65726F206164647265 PUSH1 0x44 DUP3 ADD MSTORE PUSH2 0x7373 PUSH1 0xF0 SHL PUSH1 0x64 DUP3 ADD MSTORE PUSH1 0x84 SWAP1 REVERT JUMPDEST PUSH1 0x40 MLOAD PUSH3 0x461BCD PUSH1 0xE5 SHL DUP2 MSTORE PUSH1 0x20 PUSH1 0x4 DUP3 ADD MSTORE PUSH1 0x24 DUP1 DUP3 ADD MSTORE PUSH32 0x45524332303A20617070726F76652066726F6D20746865207A65726F20616464 PUSH1 0x44 DUP3 ADD MSTORE PUSH4 0x72657373 PUSH1 0xE0 SHL PUSH1 0x64 DUP3 ADD MSTORE PUSH1 0x84 SWAP1 REVERT JUMPDEST SWAP2 SWAP3 SWAP1 ISZERO PUSH2 0x1D45 JUMPI POP DUP2 MLOAD ISZERO PUSH2 0x1CF7 JUMPI POP SWAP1 JUMP JUMPDEST EXTCODESIZE ISZERO PUSH2 0x1D00 JUMPI SWAP1 JUMP JUMPDEST PUSH1 0x40 MLOAD PUSH3 0x461BCD PUSH1 0xE5 SHL DUP2 MSTORE PUSH1 0x20 PUSH1 0x4 DUP3 ADD MSTORE PUSH1 0x1D PUSH1 0x24 DUP3 ADD MSTORE PUSH32 0x416464726573733A2063616C6C20746F206E6F6E2D636F6E7472616374000000 PUSH1 0x44 DUP3 ADD MSTORE PUSH1 0x64 SWAP1 REVERT JUMPDEST DUP3 MLOAD SWAP1 SWAP2 POP ISZERO PUSH2 0x1D58 JUMPI POP DUP1 MLOAD SWAP1 PUSH1 0x20 ADD REVERT JUMPDEST PUSH1 0x40 MLOAD PUSH3 0x461BCD PUSH1 0xE5 SHL DUP2 MSTORE SWAP1 DUP2 SWAP1 PUSH2 0x15D5 SWAP1 PUSH1 0x4 DUP4 ADD PUSH2 0x139C JUMP JUMPDEST PUSH1 0x1 SWAP2 DUP1 DUP4 SHL SWAP2 SWAP1 PUSH1 0x1 PUSH1 0x1 PUSH1 0xFF SHL SUB DUP2 AND SUB PUSH2 0x1A62 JUMPI PUSH1 0x2 DUP3 ADD SWAP3 DUP4 DUP4 GT PUSH2 0x1A62 JUMPI PUSH2 0x1DB9 PUSH2 0x1DA3 DUP6 PUSH2 0x13FE JUMP JUMPDEST SWAP5 PUSH2 0x1DB1 PUSH1 0x40 MLOAD SWAP7 DUP8 PUSH2 0x13C8 JUMP JUMPDEST DUP1 DUP7 MSTORE PUSH2 0x13FE JUMP JUMPDEST PUSH1 0x20 SWAP4 SWAP1 DUP6 DUP6 ADD SWAP1 PUSH1 0x1F NOT ADD CALLDATASIZE DUP3 CALLDATACOPY DUP6 MLOAD ISZERO PUSH2 0x1EB2 JUMPI PUSH1 0x30 SWAP1 MSTORE8 DUP5 MLOAD DUP3 LT ISZERO PUSH2 0x1EB2 JUMPI PUSH1 0x78 PUSH1 0x21 DUP7 ADD MSTORE8 DUP2 DUP2 ADD DUP1 SWAP2 GT PUSH2 0x1A62 JUMPI SWAP1 JUMPDEST DUP1 DUP3 GT PUSH2 0x1E43 JUMPI POP POP PUSH2 0x1E00 JUMPI POP SWAP1 JUMP JUMPDEST PUSH1 0x64 SWAP1 PUSH1 0x40 MLOAD SWAP1 PUSH3 0x461BCD PUSH1 0xE5 SHL DUP3 MSTORE DUP1 PUSH1 0x4 DUP4 ADD MSTORE PUSH1 0x24 DUP3 ADD MSTORE PUSH32 0x537472696E67733A20686578206C656E67746820696E73756666696369656E74 PUSH1 0x44 DUP3 ADD MSTORE REVERT JUMPDEST SWAP1 SWAP2 PUSH1 0xF DUP2 AND PUSH1 0x10 DUP2 LT ISZERO PUSH2 0x1E9E JUMPI DUP6 MLOAD DUP5 LT ISZERO PUSH2 0x1E9E JUMPI PUSH16 0x181899199A1A9B1B9C1CB0B131B232B3 PUSH1 0x81 SHL SWAP1 BYTE DUP6 DUP5 ADD DUP6 ADD MSTORE8 PUSH1 0x4 SHR SWAP2 DUP1 ISZERO PUSH2 0x1E8A JUMPI PUSH0 NOT ADD SWAP1 PUSH2 0x1DEF JUMP JUMPDEST PUSH1 0x24 PUSH0 PUSH4 0x4E487B71 PUSH1 0xE0 SHL DUP2 MSTORE PUSH1 0x11 PUSH1 0x4 MSTORE REVERT JUMPDEST PUSH1 0x24 PUSH0 PUSH4 0x4E487B71 PUSH1 0xE0 SHL DUP2 MSTORE PUSH1 0x32 PUSH1 0x4 MSTORE REVERT JUMPDEST PUSH4 0x4E487B71 PUSH1 0xE0 SHL PUSH0 MSTORE PUSH1 0x32 PUSH1 0x4 MSTORE PUSH1 0x24 PUSH0 REVERT JUMPDEST DUP1 SLOAD DUP3 LT ISZERO PUSH2 0x1EB2 JUMPI PUSH0 MSTORE PUSH1 0x20 PUSH0 KECCAK256 ADD SWAP1 PUSH0 SWAP1 JUMP JUMPDEST SWAP2 SWAP1 PUSH1 0x1 DUP4 ADD PUSH0 SWAP1 DUP3 DUP3 MSTORE DUP1 PUSH1 0x20 MSTORE PUSH1 0x40 DUP3 KECCAK256 SLOAD ISZERO PUSH0 EQ PUSH2 0x1F5C JUMPI DUP5 SLOAD SWAP5 PUSH9 0x10000000000000000 DUP7 LT ISZERO PUSH2 0x1F48 JUMPI DUP4 PUSH2 0x1F38 PUSH2 0x1F22 DUP9 PUSH1 0x1 PUSH1 0x40 SWAP9 SWAP10 SWAP11 ADD DUP6 SSTORE DUP5 PUSH2 0x1EC6 JUMP JUMPDEST DUP2 SWAP4 SWAP2 SLOAD SWAP1 PUSH1 0x3 SHL SWAP2 DUP3 SHL SWAP2 PUSH0 NOT SWAP1 SHL NOT AND OR SWAP1 JUMP JUMPDEST SWAP1 SSTORE SLOAD SWAP4 DUP3 MSTORE PUSH1 0x20 MSTORE KECCAK256 SSTORE PUSH1 0x1 SWAP1 JUMP JUMPDEST PUSH4 0x4E487B71 PUSH1 0xE0 SHL DUP4 MSTORE PUSH1 0x41 PUSH1 0x4 MSTORE PUSH1 0x24 DUP4 REVERT JUMPDEST POP SWAP3 POP POP JUMP JUMPDEST SWAP1 PUSH1 0x1 DUP3 ADD SWAP1 PUSH0 SWAP3 DUP2 DUP5 MSTORE DUP3 PUSH1 0x20 MSTORE PUSH1 0x40 DUP5 KECCAK256 SLOAD SWAP1 DUP2 ISZERO ISZERO PUSH0 EQ PUSH2 0x2048 JUMPI PUSH0 NOT SWAP2 DUP1 DUP4 ADD DUP2 DUP2 GT PUSH2 0x2034 JUMPI DUP3 SLOAD SWAP1 DUP5 DUP3 ADD SWAP2 DUP3 GT PUSH2 0x2020 JUMPI DUP1 DUP3 SUB PUSH2 0x1FEB JUMPI JUMPDEST POP POP POP DUP1 SLOAD DUP1 ISZERO PUSH2 0x1FD7 JUMPI DUP3 ADD SWAP2 PUSH2 0x1FBA DUP4 DUP4 PUSH2 0x1EC6 JUMP JUMPDEST SWAP1 SWAP2 DUP3 SLOAD SWAP2 PUSH1 0x3 SHL SHL NOT AND SWAP1 SSTORE SSTORE DUP3 MSTORE PUSH1 0x20 MSTORE PUSH1 0x40 DUP2 KECCAK256 SSTORE PUSH1 0x1 SWAP1 JUMP JUMPDEST PUSH4 0x4E487B71 PUSH1 0xE0 SHL DUP7 MSTORE PUSH1 0x31 PUSH1 0x4 MSTORE PUSH1 0x24 DUP7 REVERT JUMPDEST PUSH2 0x200B PUSH2 0x1FFB PUSH2 0x1F22 SWAP4 DUP7 PUSH2 0x1EC6 JUMP JUMPDEST SWAP1 SLOAD SWAP1 PUSH1 0x3 SHL SHR SWAP3 DUP4 SWAP3 DUP7 PUSH2 0x1EC6 JUMP JUMPDEST SWAP1 SSTORE DUP7 MSTORE DUP5 PUSH1 0x20 MSTORE PUSH1 0x40 DUP7 KECCAK256 SSTORE PUSH0 DUP1 DUP1 PUSH2 0x1FA2 JUMP JUMPDEST PUSH4 0x4E487B71 PUSH1 0xE0 SHL DUP9 MSTORE PUSH1 0x11 PUSH1 0x4 MSTORE PUSH1 0x24 DUP9 REVERT JUMPDEST PUSH4 0x4E487B71 PUSH1 0xE0 SHL DUP8 MSTORE PUSH1 0x11 PUSH1 0x4 MSTORE PUSH1 0x24 DUP8 REVERT JUMPDEST POP POP POP POP SWAP1 JUMP JUMPDEST PUSH2 0x191 SLOAD PUSH1 0x40 MLOAD PUSH4 0xD994D6D5 PUSH1 0xE0 SHL DUP2 MSTORE CALLER PUSH1 0x4 DUP3 ADD MSTORE SWAP1 PUSH1 0x20 SWAP1 DUP3 SWAP1 PUSH1 0x24 SWAP1 DUP3 SWAP1 PUSH1 0x1 PUSH1 0x1 PUSH1 0xA0 SHL SUB AND GAS STATICCALL SWAP1 DUP2 ISZERO PUSH2 0x20DE JUMPI PUSH0 SWAP2 PUSH2 0x20A4 JUMPI JUMPDEST POP ISZERO PUSH2 0x2092 JUMPI JUMP JUMPDEST PUSH1 0x40 MLOAD PUSH4 0x1DD1B1B5 PUSH1 0xE2 SHL DUP2 MSTORE PUSH1 0x4 SWAP1 REVERT JUMPDEST PUSH1 0x20 DUP2 RETURNDATASIZE DUP3 GT PUSH2 0x20D6 JUMPI JUMPDEST DUP2 PUSH2 0x20BC PUSH1 0x20 SWAP4 DUP4 PUSH2 0x13C8 JUMP JUMPDEST DUP2 ADD SUB SLT PUSH2 0x1A7 JUMPI MLOAD SWAP1 DUP2 ISZERO ISZERO DUP3 SUB PUSH2 0x2B5 JUMPI POP PUSH0 PUSH2 0x208A JUMP JUMPDEST RETURNDATASIZE SWAP2 POP PUSH2 0x20AF JUMP JUMPDEST PUSH1 0x40 MLOAD RETURNDATASIZE PUSH0 DUP3 RETURNDATACOPY RETURNDATASIZE SWAP1 REVERT JUMPDEST ISZERO PUSH2 0x20F0 JUMPI JUMP JUMPDEST PUSH1 0x40 MLOAD PUSH3 0x461BCD PUSH1 0xE5 SHL DUP2 MSTORE PUSH1 0x20 PUSH1 0x4 DUP3 ADD MSTORE PUSH1 0x2B PUSH1 0x24 DUP3 ADD MSTORE PUSH32 0x496E697469616C697A61626C653A20636F6E7472616374206973206E6F742069 PUSH1 0x44 DUP3 ADD MSTORE PUSH11 0x6E697469616C697A696E67 PUSH1 0xA8 SHL PUSH1 0x64 DUP3 ADD MSTORE PUSH1 0x84 SWAP1 REVERT INVALID LOG2 PUSH5 0x6970667358 0x22 SLT KECCAK256 0xC DUP8 0xE2 SWAP12 JUMP 0xAC CALL LOG1 0xC6 SMOD MULMOD 0x27 0xF8 SWAP8 EXTCODEHASH 0xBF INVALID 0x5C SWAP11 0xA8 0xCB CREATE PUSH12 0x8558A3FC9EAB68A63464736F PUSH13 0x6343000814003360A060405234 PUSH3 0x49 JUMPI ADDRESS PUSH1 0x80 MSTORE PUSH3 0x18 PUSH3 0x4D JUMP JUMPDEST PUSH3 0x22 PUSH3 0x4D JUMP JUMPDEST PUSH1 0x40 MLOAD PUSH2 0x23D2 SWAP1 DUP2 PUSH3 0xF5 DUP3 CODECOPY PUSH1 0x80 MLOAD DUP2 DUP2 DUP2 PUSH2 0xE27 ADD MSTORE DUP2 DUP2 PUSH2 0xF42 ADD MSTORE PUSH2 0x117A ADD MSTORE RETURN JUMPDEST PUSH0 DUP1 REVERT JUMPDEST PUSH0 SLOAD PUSH1 0xFF DUP2 PUSH1 0x8 SHR AND PUSH3 0x9F JUMPI PUSH1 0xFF DUP1 DUP3 AND SUB PUSH3 0x69 JUMPI POP JUMP JUMPDEST PUSH1 0xFF SWAP1 DUP2 NOT AND OR PUSH0 SSTORE PUSH32 0x7F26B83FF96E1F2B6A682F133852F6798A09C465DA95921460CEFB3847402498 PUSH1 0x20 PUSH1 0x40 MLOAD PUSH1 0xFF DUP2 MSTORE LOG1 JUMP JUMPDEST PUSH1 0x40 MLOAD PUSH3 0x461BCD PUSH1 0xE5 SHL DUP2 MSTORE PUSH1 0x20 PUSH1 0x4 DUP3 ADD MSTORE PUSH1 0x27 PUSH1 0x24 DUP3 ADD MSTORE PUSH32 0x496E697469616C697A61626C653A20636F6E747261637420697320696E697469 PUSH1 0x44 DUP3 ADD MSTORE PUSH7 0x616C697A696E67 PUSH1 0xC8 SHL PUSH1 0x64 DUP3 ADD MSTORE PUSH1 0x84 SWAP1 REVERT INVALID PUSH1 0x80 PUSH1 0x40 SWAP1 DUP1 DUP3 MSTORE PUSH1 0x4 SWAP1 DUP2 CALLDATASIZE LT ISZERO PUSH2 0x16 JUMPI PUSH0 DUP1 REVERT JUMPDEST PUSH0 SWAP3 DUP4 CALLDATALOAD PUSH1 0xE0 SHR SWAP2 DUP3 PUSH4 0x1FFC9A7 EQ PUSH2 0x14FD JUMPI POP DUP2 PUSH4 0x6FDDE03 EQ PUSH2 0x1453 JUMPI DUP2 PUSH4 0x95EA7B3 EQ PUSH2 0x141D JUMPI DUP2 PUSH4 0xC340A24 EQ PUSH2 0x13F3 JUMPI DUP2 PUSH4 0x18160DDD EQ PUSH2 0x13D4 JUMPI DUP2 PUSH4 0x23B872DD EQ PUSH2 0x1301 JUMPI DUP2 PUSH4 0x248A9CA3 EQ PUSH2 0x12D5 JUMPI DUP2 PUSH4 0x2F2FF15D EQ PUSH2 0x128E JUMPI DUP2 PUSH4 0x313CE567 EQ PUSH2 0x1272 JUMPI DUP2 PUSH4 0x36568ABE EQ PUSH2 0x11DF JUMPI DUP4 DUP3 PUSH4 0x3659CFE6 EQ PUSH2 0x1148 JUMPI POP DUP2 PUSH4 0x39509351 EQ PUSH2 0x10F6 JUMPI DUP2 PUSH4 0x40C10F19 EQ PUSH2 0xFA5 JUMPI DUP2 PUSH4 0x4F1EF286 EQ PUSH2 0xEE6 JUMPI DUP2 PUSH4 0x52D1902D EQ PUSH2 0xE12 JUMPI DUP2 PUSH4 0x5C975ABB EQ PUSH2 0xDED JUMPI DUP2 PUSH4 0x70A08231 EQ PUSH2 0xDB2 JUMPI DUP2 PUSH4 0x83D2230D EQ PUSH2 0xC08 JUMPI DUP2 PUSH4 0x8456CB59 EQ PUSH2 0xB50 JUMPI DUP2 PUSH4 0x8F15B414 EQ PUSH2 0x6B0 JUMPI DUP2 PUSH4 0x9010D07C EQ PUSH2 0x66E JUMPI DUP2 PUSH4 0x91D14854 EQ PUSH2 0x622 JUMPI DUP2 PUSH4 0x95D89B41 EQ PUSH2 0x541 JUMPI DUP2 PUSH4 0x9DC29FAC EQ PUSH2 0x392 JUMPI DUP2 PUSH4 0xA217FDDF EQ PUSH2 0x377 JUMPI DUP2 PUSH4 0xA457C2D7 EQ PUSH2 0x2CE JUMPI DUP2 PUSH4 0xA9059CBB EQ PUSH2 0x28E JUMPI DUP2 PUSH4 0xCA15C873 EQ PUSH2 0x265 JUMPI DUP2 PUSH4 0xD547741F EQ PUSH2 0x21B JUMPI DUP2 PUSH4 0xDD62ED3E EQ PUSH2 0x1C1 JUMPI POP PUSH4 0xE4C0AAF4 EQ PUSH2 0x17A JUMPI PUSH0 DUP1 REVERT JUMPDEST CALLVALUE PUSH2 0x1BD JUMPI PUSH1 0x20 CALLDATASIZE PUSH1 0x3 NOT ADD SLT PUSH2 0x1BD JUMPI CALLDATALOAD PUSH1 0x1 PUSH1 0x1 PUSH1 0xA0 SHL SUB DUP2 AND SWAP1 DUP2 SWAP1 SUB PUSH2 0x1BD JUMPI PUSH2 0x1A6 PUSH2 0x22A2 JUMP JUMPDEST PUSH2 0x191 DUP1 SLOAD PUSH1 0x1 PUSH1 0x1 PUSH1 0xA0 SHL SUB NOT AND SWAP1 SWAP2 OR SWAP1 SSTORE DUP1 RETURN JUMPDEST POP DUP1 REVERT JUMPDEST SWAP2 SWAP1 POP CALLVALUE PUSH2 0x217 JUMPI DUP2 PUSH1 0x3 NOT CALLDATASIZE ADD SLT PUSH2 0x217 JUMPI PUSH1 0x1 PUSH1 0x1 PUSH1 0xA0 SHL SUB SWAP1 CALLDATALOAD DUP2 DUP2 AND SWAP1 DUP2 SWAP1 SUB PUSH2 0x213 JUMPI PUSH1 0x24 CALLDATALOAD SWAP2 DUP3 AND DUP1 SWAP3 SUB PUSH2 0x213 JUMPI SWAP3 DUP3 SWAP2 PUSH1 0x20 SWAP5 DUP3 MSTORE PUSH1 0xCA DUP6 MSTORE DUP3 DUP3 KECCAK256 SWAP1 DUP3 MSTORE DUP5 MSTORE KECCAK256 SLOAD SWAP1 MLOAD SWAP1 DUP2 MSTORE RETURN JUMPDEST DUP4 DUP1 REVERT JUMPDEST DUP3 DUP1 REVERT JUMPDEST SWAP2 SWAP1 POP CALLVALUE PUSH2 0x217 JUMPI DUP2 PUSH1 0x3 NOT CALLDATASIZE ADD SLT PUSH2 0x217 JUMPI PUSH1 0x24 CALLDATALOAD SWAP1 CALLDATALOAD PUSH1 0x1 PUSH1 0x1 PUSH1 0xA0 SHL SUB DUP3 AND DUP3 SUB PUSH2 0x213 JUMPI PUSH2 0x25D PUSH1 0x1 PUSH2 0x262 SWAP5 DUP4 DUP8 MSTORE PUSH1 0x65 PUSH1 0x20 MSTORE DUP7 KECCAK256 ADD SLOAD PUSH2 0x16EE JUMP JUMPDEST PUSH2 0x17C9 JUMP JUMPDEST DUP1 RETURN JUMPDEST SWAP2 SWAP1 POP CALLVALUE PUSH2 0x217 JUMPI PUSH1 0x20 CALLDATASIZE PUSH1 0x3 NOT ADD SLT PUSH2 0x217 JUMPI PUSH1 0x20 SWAP3 DUP3 SWAP2 CALLDATALOAD DUP2 MSTORE PUSH1 0x97 DUP5 MSTORE KECCAK256 SLOAD SWAP1 MLOAD SWAP1 DUP2 MSTORE RETURN JUMPDEST SWAP2 SWAP1 POP CALLVALUE PUSH2 0x217 JUMPI DUP2 PUSH1 0x3 NOT CALLDATASIZE ADD SLT PUSH2 0x217 JUMPI CALLDATALOAD SWAP2 PUSH1 0x1 PUSH1 0x1 PUSH1 0xA0 SHL SUB DUP4 AND DUP4 SUB PUSH2 0x2CB JUMPI POP PUSH2 0x2C4 PUSH1 0x20 SWAP3 PUSH1 0x24 CALLDATALOAD SWAP1 CALLER PUSH2 0x1C66 JUMP JUMPDEST MLOAD PUSH1 0x1 DUP2 MSTORE RETURN JUMPDEST DUP1 REVERT JUMPDEST DUP3 DUP5 CALLVALUE PUSH2 0x2CB JUMPI DUP3 PUSH1 0x3 NOT CALLDATASIZE ADD SLT PUSH2 0x2CB JUMPI DUP2 CALLDATALOAD SWAP2 PUSH1 0x1 PUSH1 0x1 PUSH1 0xA0 SHL SUB DUP4 AND SWAP2 DUP3 DUP5 SUB PUSH2 0x2CB JUMPI DUP5 SWAP1 PUSH1 0x24 CALLDATALOAD SWAP4 CALLER DUP3 MSTORE PUSH1 0xCA PUSH1 0x20 MSTORE DUP3 DUP3 KECCAK256 SWAP1 DUP3 MSTORE PUSH1 0x20 MSTORE KECCAK256 SLOAD SWAP1 DUP3 DUP3 LT PUSH2 0x326 JUMPI PUSH1 0x20 DUP6 PUSH2 0x2C4 DUP6 DUP6 SUB DUP8 CALLER PUSH2 0x1E38 JUMP JUMPDEST PUSH1 0x84 SWAP1 PUSH1 0x20 DUP7 MLOAD SWAP2 PUSH3 0x461BCD PUSH1 0xE5 SHL DUP4 MSTORE DUP3 ADD MSTORE PUSH1 0x25 PUSH1 0x24 DUP3 ADD MSTORE PUSH32 0x45524332303A2064656372656173656420616C6C6F77616E63652062656C6F77 PUSH1 0x44 DUP3 ADD MSTORE PUSH5 0x207A65726F PUSH1 0xD8 SHL PUSH1 0x64 DUP3 ADD MSTORE REVERT JUMPDEST DUP4 SWAP1 CALLVALUE PUSH2 0x1BD JUMPI DUP2 PUSH1 0x3 NOT CALLDATASIZE ADD SLT PUSH2 0x1BD JUMPI MLOAD SWAP1 DUP2 MSTORE PUSH1 0x20 SWAP1 RETURN JUMPDEST DUP4 DUP4 CALLVALUE PUSH2 0x1BD JUMPI DUP3 PUSH1 0x3 NOT CALLDATASIZE ADD SLT PUSH2 0x1BD JUMPI DUP1 CALLDATALOAD PUSH1 0x1 PUSH1 0x1 PUSH1 0xA0 SHL SUB DUP2 AND SWAP2 SWAP1 DUP3 SWAP1 SUB PUSH2 0x217 JUMPI PUSH1 0x24 CALLDATALOAD SWAP1 PUSH2 0x3E6 PUSH32 0x3C11D16CBAFFD01DF69CE1C404F6340EE057498F5F00246190EA54220576A848 PUSH2 0x16EE JUMP JUMPDEST DUP3 ISZERO PUSH2 0x4F4 JUMPI PUSH1 0xFF PUSH2 0x1C4 SLOAD AND PUSH2 0x49E JUMPI DUP3 DUP5 MSTORE PUSH1 0xC9 PUSH1 0x20 MSTORE DUP5 DUP5 KECCAK256 SLOAD SWAP1 DUP3 DUP3 LT PUSH2 0x450 JUMPI POP DUP2 DUP5 SWAP6 PUSH32 0xDDF252AD1BE2C89B69C2B068FC378DAA952BA7F163C4A11628F55A4DF523B3EF SWAP4 PUSH1 0x20 SWAP4 DUP7 DUP9 MSTORE PUSH1 0xC9 DUP6 MSTORE SUB DUP2 DUP8 KECCAK256 SSTORE DUP2 PUSH1 0xCB SLOAD SUB PUSH1 0xCB SSTORE MLOAD SWAP1 DUP2 MSTORE LOG3 DUP1 RETURN JUMPDEST PUSH1 0x84 SWAP1 PUSH1 0x20 DUP8 MLOAD SWAP2 PUSH3 0x461BCD PUSH1 0xE5 SHL DUP4 MSTORE DUP3 ADD MSTORE PUSH1 0x22 PUSH1 0x24 DUP3 ADD MSTORE PUSH32 0x45524332303A206275726E20616D6F756E7420657863656564732062616C616E PUSH1 0x44 DUP3 ADD MSTORE PUSH2 0x6365 PUSH1 0xF0 SHL PUSH1 0x64 DUP3 ADD MSTORE REVERT JUMPDEST PUSH1 0x84 SWAP1 PUSH1 0x20 DUP7 MLOAD SWAP2 PUSH3 0x461BCD PUSH1 0xE5 SHL DUP4 MSTORE DUP3 ADD MSTORE PUSH1 0x2A PUSH1 0x24 DUP3 ADD MSTORE PUSH32 0x45524332305061757361626C653A20746F6B656E207472616E73666572207768 PUSH1 0x44 DUP3 ADD MSTORE PUSH10 0x1A5B19481C185D5CD959 PUSH1 0xB2 SHL PUSH1 0x64 DUP3 ADD MSTORE REVERT JUMPDEST PUSH1 0x84 SWAP1 PUSH1 0x20 DUP7 MLOAD SWAP2 PUSH3 0x461BCD PUSH1 0xE5 SHL DUP4 MSTORE DUP3 ADD MSTORE PUSH1 0x21 PUSH1 0x24 DUP3 ADD MSTORE PUSH32 0x45524332303A206275726E2066726F6D20746865207A65726F20616464726573 PUSH1 0x44 DUP3 ADD MSTORE PUSH1 0x73 PUSH1 0xF8 SHL PUSH1 0x64 DUP3 ADD MSTORE REVERT JUMPDEST DUP4 SWAP1 CALLVALUE PUSH2 0x1BD JUMPI DUP2 PUSH1 0x3 NOT CALLDATASIZE ADD SLT PUSH2 0x1BD JUMPI DUP1 MLOAD SWAP1 DUP3 PUSH1 0xCD SLOAD PUSH2 0x563 DUP2 PUSH2 0x1C0D JUMP JUMPDEST DUP1 DUP6 MSTORE SWAP2 PUSH1 0x1 SWAP2 DUP1 DUP4 AND SWAP1 DUP2 ISZERO PUSH2 0x5FA JUMPI POP PUSH1 0x1 EQ PUSH2 0x59D JUMPI JUMPDEST POP POP POP PUSH2 0x58F DUP3 PUSH2 0x599 SWAP5 SUB DUP4 PUSH2 0x15B8 JUMP JUMPDEST MLOAD SWAP2 DUP3 SWAP2 DUP3 PUSH2 0x158C JUMP JUMPDEST SUB SWAP1 RETURN JUMPDEST SWAP5 POP PUSH1 0xCD DUP6 MSTORE PUSH32 0x83978B4C69C48DD978AB43FE30F077615294F938FB7F936D9EB340E51EA7DB2E JUMPDEST DUP3 DUP7 LT PUSH2 0x5E2 JUMPI POP POP POP PUSH2 0x58F DUP3 PUSH1 0x20 PUSH2 0x599 SWAP6 DUP3 ADD ADD SWAP5 PUSH2 0x57D JUMP JUMPDEST DUP1 SLOAD PUSH1 0x20 DUP8 DUP8 ADD DUP2 ADD SWAP2 SWAP1 SWAP2 MSTORE SWAP1 SWAP6 ADD SWAP5 DUP2 ADD PUSH2 0x5C5 JUMP JUMPDEST PUSH2 0x599 SWAP8 POP DUP7 SWAP4 POP PUSH1 0x20 SWAP3 POP PUSH2 0x58F SWAP5 SWAP2 POP PUSH1 0xFF NOT AND DUP3 DUP5 ADD MSTORE ISZERO ISZERO PUSH1 0x5 SHL DUP3 ADD ADD SWAP5 PUSH2 0x57D JUMP JUMPDEST SWAP2 SWAP1 POP CALLVALUE PUSH2 0x217 JUMPI DUP2 PUSH1 0x3 NOT CALLDATASIZE ADD SLT PUSH2 0x217 JUMPI PUSH1 0x24 CALLDATALOAD PUSH1 0x1 PUSH1 0x1 PUSH1 0xA0 SHL SUB DUP2 AND SWAP2 SWAP1 DUP3 SWAP1 SUB PUSH2 0x213 JUMPI PUSH1 0x20 SWAP4 PUSH1 0xFF SWAP3 DUP5 SWAP3 CALLDATALOAD DUP3 MSTORE PUSH1 0x65 DUP7 MSTORE DUP3 DUP3 KECCAK256 SWAP1 DUP3 MSTORE DUP6 MSTORE KECCAK256 SLOAD AND SWAP1 MLOAD SWAP1 ISZERO ISZERO DUP2 MSTORE RETURN JUMPDEST SWAP2 SWAP1 POP CALLVALUE PUSH2 0x217 JUMPI DUP2 PUSH1 0x3 NOT CALLDATASIZE ADD SLT PUSH2 0x217 JUMPI PUSH1 0x20 SWAP3 PUSH2 0x69A SWAP2 CALLDATALOAD DUP2 MSTORE PUSH1 0x97 DUP5 MSTORE DUP3 PUSH1 0x24 CALLDATALOAD SWAP2 KECCAK256 PUSH2 0x2119 JUMP JUMPDEST SWAP1 SLOAD SWAP2 MLOAD SWAP2 PUSH1 0x1 DUP1 PUSH1 0xA0 SHL SUB SWAP2 PUSH1 0x3 SHL SHR AND DUP2 MSTORE RETURN JUMPDEST SWAP2 SWAP1 POP CALLVALUE PUSH2 0x217 JUMPI PUSH1 0x80 CALLDATASIZE PUSH1 0x3 NOT ADD SLT PUSH2 0x217 JUMPI PUSH8 0xFFFFFFFFFFFFFFFF DUP2 CALLDATALOAD DUP2 DUP2 GT PUSH2 0xB4C JUMPI PUSH2 0x6E3 SWAP1 CALLDATASIZE SWAP1 DUP5 ADD PUSH2 0x1644 JUMP JUMPDEST SWAP1 PUSH1 0x24 CALLDATALOAD DUP2 DUP2 GT PUSH2 0xB48 JUMPI PUSH2 0x6FB SWAP1 CALLDATASIZE SWAP1 DUP6 ADD PUSH2 0x1644 JUMP JUMPDEST SWAP2 PUSH1 0x44 CALLDATALOAD SWAP2 PUSH1 0x1 PUSH1 0x1 PUSH1 0xA0 SHL SUB SWAP2 DUP3 DUP5 AND DUP5 SUB PUSH2 0xB44 JUMPI PUSH1 0x64 CALLDATALOAD SWAP3 DUP4 AND DUP1 SWAP4 SUB PUSH2 0xB44 JUMPI DUP8 SLOAD SWAP5 PUSH1 0xFF DUP7 PUSH1 0x8 SHR AND ISZERO SWAP7 DUP8 DUP1 SWAP9 PUSH2 0xB37 JUMPI JUMPDEST DUP1 ISZERO PUSH2 0xB20 JUMPI JUMPDEST ISZERO PUSH2 0xAC6 JUMPI PUSH1 0x1 SWAP7 DUP9 DUP9 PUSH1 0xFF NOT DUP4 AND OR DUP13 SSTORE PUSH2 0xAB5 JUMPI JUMPDEST POP PUSH2 0x774 PUSH1 0xFF DUP12 SLOAD PUSH1 0x8 SHR AND PUSH2 0x766 DUP2 PUSH2 0x233C JUMP JUMPDEST PUSH2 0x76F DUP2 PUSH2 0x233C JUMP JUMPDEST PUSH2 0x233C JUMP JUMPDEST DUP3 MLOAD DUP5 DUP2 GT PUSH2 0xAA2 JUMPI DUP1 PUSH2 0x789 PUSH1 0xCC SLOAD PUSH2 0x1C0D JUMP JUMPDEST SWAP5 PUSH1 0x1F SWAP6 DUP7 DUP2 GT PUSH2 0xA31 JUMPI JUMPDEST POP PUSH1 0x20 SWAP1 DUP14 DUP8 DUP5 GT PUSH1 0x1 EQ PUSH2 0x9B3 JUMPI SWAP3 PUSH2 0x9A8 JUMPI JUMPDEST POP POP PUSH0 NOT PUSH1 0x3 DUP4 SWAP1 SHL SHR NOT AND SWAP1 DUP9 SHL OR PUSH1 0xCC SSTORE JUMPDEST DUP2 MLOAD SWAP4 DUP5 GT PUSH2 0x995 JUMPI POP PUSH2 0x7D3 PUSH1 0xCD SLOAD PUSH2 0x1C0D JUMP JUMPDEST DUP3 DUP2 GT PUSH2 0x932 JUMPI JUMPDEST POP PUSH1 0x20 SWAP2 DUP4 GT PUSH1 0x1 EQ PUSH2 0x8AE JUMPI PUSH2 0x842 SWAP5 SWAP4 SWAP3 SWAP2 DUP10 SWAP2 DUP4 PUSH2 0x8A3 JUMPI JUMPDEST POP POP PUSH0 NOT PUSH1 0x3 DUP4 SWAP1 SHL SHR NOT AND SWAP1 DUP6 SHL OR PUSH1 0xCD SSTORE JUMPDEST PUSH2 0x828 PUSH1 0xFF DUP9 SLOAD PUSH1 0x8 SHR AND PUSH2 0x81F DUP2 PUSH2 0x233C JUMP JUMPDEST PUSH2 0x766 DUP2 PUSH2 0x233C JUMP JUMPDEST PUSH2 0x191 DUP1 SLOAD PUSH1 0x1 PUSH1 0x1 PUSH1 0xA0 SHL SUB NOT AND SWAP1 SWAP2 OR SWAP1 SSTORE DUP6 PUSH2 0x1662 JUMP JUMPDEST DUP4 SLOAD SWAP2 PUSH2 0x858 PUSH1 0xFF DUP5 PUSH1 0x8 SHR AND PUSH2 0x76F DUP2 PUSH2 0x233C JUMP JUMPDEST PUSH2 0x1C4 DUP1 SLOAD PUSH1 0xFF NOT AND SWAP1 SSTORE PUSH2 0x86B JUMPI DUP4 DUP1 RETURN JUMPDEST PUSH32 0x7F26B83FF96E1F2B6A682F133852F6798A09C465DA95921460CEFB3847402498 SWAP3 PUSH1 0x20 SWAP3 PUSH2 0xFF00 NOT AND DUP6 SSTORE MLOAD SWAP1 DUP2 MSTORE LOG1 PUSH0 DUP1 DUP1 DUP4 DUP1 RETURN JUMPDEST ADD MLOAD SWAP1 POP PUSH0 DUP1 PUSH2 0x7F7 JUMP JUMPDEST PUSH1 0xCD DUP10 MSTORE SWAP4 SWAP3 SWAP2 DUP6 SWAP2 PUSH32 0x83978B4C69C48DD978AB43FE30F077615294F938FB7F936D9EB340E51EA7DB2E SWAP1 PUSH1 0x1F NOT DUP4 AND DUP12 JUMPDEST DUP2 DUP2 LT PUSH2 0x91A JUMPI POP SWAP7 DUP4 PUSH2 0x842 SWAP9 LT PUSH2 0x902 JUMPI JUMPDEST POP POP POP DUP2 SHL ADD PUSH1 0xCD SSTORE PUSH2 0x80B JUMP JUMPDEST ADD MLOAD PUSH0 NOT PUSH1 0xF8 DUP5 PUSH1 0x3 SHL AND SHR NOT AND SWAP1 SSTORE PUSH0 DUP1 DUP1 PUSH2 0x8F4 JUMP JUMPDEST DUP3 DUP10 ADD MLOAD DUP5 SSTORE DUP10 SWAP6 SWAP1 SWAP4 ADD SWAP3 PUSH1 0x20 SWAP3 DUP4 ADD SWAP3 ADD PUSH2 0x8E0 JUMP JUMPDEST PUSH1 0xCD DUP11 MSTORE PUSH32 0x83978B4C69C48DD978AB43FE30F077615294F938FB7F936D9EB340E51EA7DB2E DUP4 DUP1 DUP7 ADD PUSH1 0x5 SHR DUP3 ADD SWAP3 PUSH1 0x20 DUP8 LT PUSH2 0x98C JUMPI JUMPDEST ADD PUSH1 0x5 SHR ADD SWAP1 DUP8 SWAP1 JUMPDEST DUP3 DUP2 LT PUSH2 0x981 JUMPI POP POP PUSH2 0x7DB JUMP JUMPDEST DUP12 DUP2 SSTORE ADD DUP8 SWAP1 PUSH2 0x973 JUMP JUMPDEST SWAP3 POP DUP2 SWAP3 PUSH2 0x96A JUMP JUMPDEST PUSH4 0x4E487B71 PUSH1 0xE0 SHL DUP11 MSTORE PUSH1 0x41 SWAP1 MSTORE PUSH1 0x24 DUP10 REVERT JUMPDEST ADD MLOAD SWAP1 POP PUSH0 DUP1 PUSH2 0x7AA JUMP JUMPDEST SWAP2 SWAP1 DUP12 SWAP5 POP PUSH1 0x1F NOT DUP5 AND PUSH1 0xCC DUP5 MSTORE PUSH32 0x47197230E1E4B29FC0BD84D7D78966C0925452AFF72A2A121538B102457E9EBE SWAP4 JUMPDEST DUP2 DUP2 LT PUSH2 0xA19 JUMPI POP DUP5 GT PUSH2 0xA01 JUMPI JUMPDEST POP POP POP DUP2 SHL ADD PUSH1 0xCC SSTORE PUSH2 0x7BE JUMP JUMPDEST ADD MLOAD PUSH0 NOT PUSH1 0xF8 DUP5 PUSH1 0x3 SHL AND SHR NOT AND SWAP1 SSTORE PUSH0 DUP1 DUP1 PUSH2 0x9F3 JUMP JUMPDEST DUP3 DUP5 ADD MLOAD DUP6 SSTORE DUP14 SWAP7 SWAP1 SWAP5 ADD SWAP4 PUSH1 0x20 SWAP4 DUP5 ADD SWAP4 ADD PUSH2 0x9E4 JUMP JUMPDEST SWAP1 SWAP2 POP PUSH1 0xCC DUP14 MSTORE PUSH32 0x47197230E1E4B29FC0BD84D7D78966C0925452AFF72A2A121538B102457E9EBE DUP7 DUP1 DUP6 ADD PUSH1 0x5 SHR DUP3 ADD SWAP3 PUSH1 0x20 DUP7 LT PUSH2 0xA99 JUMPI JUMPDEST DUP6 SWAP5 SWAP4 SWAP2 ADD PUSH1 0x5 SHR SWAP1 SWAP2 ADD SWAP1 DUP12 SWAP1 DUP16 JUMPDEST DUP4 DUP3 LT PUSH2 0xA8B JUMPI POP POP POP PUSH2 0x795 JUMP JUMPDEST DUP2 SSTORE DUP6 SWAP5 POP DUP13 SWAP2 ADD DUP16 PUSH2 0xA7C JUMP JUMPDEST SWAP3 POP DUP2 SWAP3 PUSH2 0xA6C JUMP JUMPDEST PUSH4 0x4E487B71 PUSH1 0xE0 SHL DUP12 MSTORE PUSH1 0x41 DUP3 MSTORE PUSH1 0x24 DUP12 REVERT JUMPDEST PUSH2 0xFFFF NOT AND PUSH2 0x101 OR DUP11 SSTORE PUSH0 PUSH2 0x751 JUMP JUMPDEST PUSH1 0x84 SWAP1 PUSH1 0x20 DUP11 MLOAD SWAP2 PUSH3 0x461BCD PUSH1 0xE5 SHL DUP4 MSTORE DUP3 ADD MSTORE PUSH1 0x2E PUSH1 0x24 DUP3 ADD MSTORE PUSH32 0x496E697469616C697A61626C653A20636F6E747261637420697320616C726561 PUSH1 0x44 DUP3 ADD MSTORE PUSH14 0x191E481A5B9A5D1A585B1A5E9959 PUSH1 0x92 SHL PUSH1 0x64 DUP3 ADD MSTORE REVERT JUMPDEST POP ADDRESS EXTCODESIZE ISZERO DUP1 ISZERO PUSH2 0x73A JUMPI POP PUSH1 0x1 PUSH1 0xFF DUP9 AND EQ PUSH2 0x73A JUMP JUMPDEST POP PUSH1 0x1 PUSH1 0xFF DUP9 AND LT PUSH2 0x733 JUMP JUMPDEST DUP8 DUP1 REVERT JUMPDEST DUP6 DUP1 REVERT JUMPDEST DUP5 DUP1 REVERT JUMPDEST DUP4 DUP4 CALLVALUE PUSH2 0x1BD JUMPI DUP2 PUSH1 0x3 NOT CALLDATASIZE ADD SLT PUSH2 0x1BD JUMPI PUSH2 0xB8B PUSH32 0x65D7A28E3265B37A6474929F336521B332C1681B933F6CB9F3376673440D862A PUSH2 0x16EE JUMP JUMPDEST PUSH2 0x1C4 SWAP1 DUP2 SLOAD SWAP1 PUSH1 0xFF DUP3 AND PUSH2 0xBD2 JUMPI POP PUSH1 0xFF NOT AND PUSH1 0x1 OR SWAP1 SSTORE DUP2 MLOAD CALLER DUP2 MSTORE PUSH32 0x62E78CEA01BEE320CD4E420270B5EA74000D11B0C9F74754EBDBFC544B05A258 SWAP1 PUSH1 0x20 SWAP1 LOG1 DUP1 RETURN JUMPDEST PUSH1 0x64 SWAP1 PUSH1 0x20 DUP7 MLOAD SWAP2 PUSH3 0x461BCD PUSH1 0xE5 SHL DUP4 MSTORE DUP3 ADD MSTORE PUSH1 0x10 PUSH1 0x24 DUP3 ADD MSTORE PUSH16 0x14185D5CD8589B194E881C185D5CD959 PUSH1 0x82 SHL PUSH1 0x44 DUP3 ADD MSTORE REVERT JUMPDEST SWAP1 POP CALLVALUE PUSH2 0x217 JUMPI PUSH1 0x20 SWAP1 DUP2 PUSH1 0x3 NOT CALLDATASIZE ADD SLT PUSH2 0x213 JUMPI DUP3 CALLDATALOAD SWAP2 PUSH1 0x1 PUSH1 0x1 PUSH1 0xA0 SHL SUB DUP4 AND DUP4 SUB PUSH2 0xB4C JUMPI DUP5 DUP1 MSTORE PUSH1 0x65 DUP2 MSTORE PUSH1 0x1 SWAP1 PUSH2 0xC48 DUP3 DUP5 DUP9 KECCAK256 ADD SLOAD PUSH2 0x16EE JUMP JUMPDEST PUSH32 0x65D7A28E3265B37A6474929F336521B332C1681B933F6CB9F3376673440D862A SWAP4 PUSH2 0xC74 DUP2 DUP7 PUSH2 0x1662 JUMP JUMPDEST PUSH2 0xC7E CALLER DUP7 PUSH2 0x17C9 JUMP JUMPDEST DUP7 DUP1 MSTORE PUSH1 0x65 DUP3 MSTORE PUSH2 0xC93 DUP4 DUP6 DUP10 KECCAK256 ADD SLOAD PUSH2 0x16EE JUMP JUMPDEST PUSH2 0xC9D DUP2 DUP9 PUSH2 0x1662 JUMP JUMPDEST PUSH32 0x9F2DF0FED2C77648DE5860A4CC508CD0818C85B8B8A1AB4CEEEF8D981C8956A6 PUSH2 0xCC8 DUP3 DUP3 PUSH2 0x1662 JUMP JUMPDEST PUSH2 0xCF3 PUSH32 0x3C11D16CBAFFD01DF69CE1C404F6340EE057498F5F00246190EA54220576A848 SWAP3 DUP4 PUSH2 0x1662 JUMP JUMPDEST PUSH2 0xCFD CALLER DUP3 PUSH2 0x17C9 JUMP JUMPDEST PUSH2 0xD07 CALLER DUP4 PUSH2 0x17C9 JUMP JUMPDEST PUSH2 0xD11 CALLER DUP10 PUSH2 0x17C9 JUMP JUMPDEST DUP8 DUP1 MSTORE PUSH1 0x97 DUP4 MSTORE DUP4 DUP6 DUP10 KECCAK256 SLOAD SUB PUSH2 0xD9B JUMPI DUP1 DUP9 MSTORE PUSH1 0x97 DUP4 MSTORE DUP4 DUP6 DUP10 KECCAK256 SLOAD SUB PUSH2 0xD85 JUMPI POP DUP1 DUP8 MSTORE PUSH1 0x97 DUP3 MSTORE DUP3 DUP5 DUP9 KECCAK256 SLOAD SUB PUSH2 0xD6F JUMPI POP PUSH1 0x97 SWAP1 DUP5 DUP8 MSTORE MSTORE DUP2 DUP6 KECCAK256 SLOAD SUB PUSH2 0xD5A JUMPI DUP4 DUP1 RETURN JUMPDEST MLOAD PUSH4 0xE2B37CD PUSH1 0xE4 SHL DUP2 MSTORE SWAP2 DUP3 ADD MSTORE PUSH1 0x24 SWAP2 POP REVERT JUMPDEST DUP6 PUSH1 0x24 SWAP2 DUP6 MLOAD SWAP2 PUSH4 0xE2B37CD PUSH1 0xE4 SHL DUP4 MSTORE DUP3 ADD MSTORE REVERT JUMPDEST DUP7 PUSH1 0x24 SWAP2 DUP7 MLOAD SWAP2 PUSH4 0xE2B37CD PUSH1 0xE4 SHL DUP4 MSTORE DUP3 ADD MSTORE REVERT JUMPDEST DUP5 MLOAD PUSH4 0xE2B37CD PUSH1 0xE4 SHL DUP2 MSTORE DUP1 DUP9 ADD DUP10 SWAP1 MSTORE PUSH1 0x24 SWAP1 REVERT JUMPDEST SWAP2 SWAP1 POP CALLVALUE PUSH2 0x217 JUMPI PUSH1 0x20 CALLDATASIZE PUSH1 0x3 NOT ADD SLT PUSH2 0x217 JUMPI CALLDATALOAD PUSH1 0x1 PUSH1 0x1 PUSH1 0xA0 SHL SUB DUP2 AND SWAP1 DUP2 SWAP1 SUB PUSH2 0x217 JUMPI DUP3 DUP3 SWAP2 PUSH1 0x20 SWAP5 MSTORE PUSH1 0xC9 DUP5 MSTORE KECCAK256 SLOAD SWAP1 MLOAD SWAP1 DUP2 MSTORE RETURN JUMPDEST DUP4 SWAP1 CALLVALUE PUSH2 0x1BD JUMPI DUP2 PUSH1 0x3 NOT CALLDATASIZE ADD SLT PUSH2 0x1BD JUMPI PUSH1 0x20 SWAP1 PUSH1 0xFF PUSH2 0x1C4 SLOAD AND SWAP1 MLOAD SWAP1 ISZERO ISZERO DUP2 MSTORE RETURN JUMPDEST DUP3 DUP5 CALLVALUE PUSH2 0x2CB JUMPI DUP1 PUSH1 0x3 NOT CALLDATASIZE ADD SLT PUSH2 0x2CB JUMPI POP PUSH32 0x0 PUSH1 0x1 PUSH1 0x1 PUSH1 0xA0 SHL SUB AND ADDRESS SUB PUSH2 0xE7E JUMPI PUSH1 0x20 DUP3 MLOAD PUSH32 0x360894A13BA1A3210667C828492DB98DCA3E2076CC3735A920A3CA505D382BBC DUP2 MSTORE RETURN JUMPDEST PUSH1 0x20 PUSH1 0x84 SWAP3 MLOAD SWAP2 PUSH3 0x461BCD PUSH1 0xE5 SHL DUP4 MSTORE DUP3 ADD MSTORE PUSH1 0x38 PUSH1 0x24 DUP3 ADD MSTORE PUSH32 0x555550535570677261646561626C653A206D757374206E6F742062652063616C PUSH1 0x44 DUP3 ADD MSTORE PUSH32 0x6C6564207468726F7567682064656C656761746563616C6C0000000000000000 PUSH1 0x64 DUP3 ADD MSTORE REVERT JUMPDEST CALLDATASIZE PUSH1 0x3 NOT ADD SLT SWAP1 POP PUSH2 0x1BD JUMPI DUP1 CALLDATALOAD PUSH1 0x1 PUSH1 0x1 PUSH1 0xA0 SHL SUB DUP1 DUP3 AND DUP3 SUB PUSH2 0x213 JUMPI PUSH1 0x24 CALLDATALOAD SWAP2 PUSH8 0xFFFFFFFFFFFFFFFF DUP4 GT PUSH2 0xB4C JUMPI CALLDATASIZE PUSH1 0x23 DUP5 ADD SLT ISZERO PUSH2 0xB4C JUMPI PUSH2 0xF98 PUSH2 0xF3E PUSH2 0x262 SWAP6 DUP6 PUSH1 0x24 PUSH1 0x1 SWAP8 CALLDATASIZE SWAP4 ADD CALLDATALOAD SWAP2 ADD PUSH2 0x160A JUMP JUMPDEST SWAP3 DUP1 PUSH32 0x0 AND SWAP1 PUSH2 0xF6F DUP3 ADDRESS EQ ISZERO PUSH2 0x184E JUMP JUMPDEST PUSH32 0x360894A13BA1A3210667C828492DB98DCA3E2076CC3735A920A3CA505D382BBC SLOAD AND EQ PUSH2 0x18AF JUMP JUMPDEST PUSH2 0xFA0 PUSH2 0x22A2 JUMP JUMPDEST PUSH2 0x1910 JUMP JUMPDEST SWAP1 POP DUP3 CALLVALUE PUSH2 0x2CB JUMPI DUP2 PUSH1 0x3 NOT CALLDATASIZE ADD SLT PUSH2 0x2CB JUMPI DUP3 CALLDATALOAD PUSH1 0x1 PUSH1 0x1 PUSH1 0xA0 SHL SUB DUP2 AND SWAP2 SWAP1 DUP3 SWAP1 SUB PUSH2 0x2CB JUMPI PUSH1 0x24 CALLDATALOAD PUSH2 0xFF9 PUSH32 0x9F2DF0FED2C77648DE5860A4CC508CD0818C85B8B8A1AB4CEEEF8D981C8956A6 PUSH2 0x16EE JUMP JUMPDEST DUP3 ISZERO PUSH2 0x10B3 JUMPI PUSH1 0xFF PUSH2 0x1C4 SLOAD AND PUSH2 0x105D JUMPI PUSH1 0x20 DUP1 SWAP6 POP DUP2 PUSH2 0x103D PUSH32 0xDDF252AD1BE2C89B69C2B068FC378DAA952BA7F163C4A11628F55A4DF523B3EF SWAP4 PUSH1 0xCB SLOAD PUSH2 0x1C45 JUMP JUMPDEST PUSH1 0xCB SSTORE DUP5 DUP5 MSTORE PUSH1 0xC9 DUP3 MSTORE DUP6 DUP5 KECCAK256 DUP2 DUP2 SLOAD ADD SWAP1 SSTORE DUP6 MLOAD SWAP1 DUP2 MSTORE LOG3 MLOAD PUSH1 0x1 DUP2 MSTORE RETURN JUMPDEST DUP4 MLOAD PUSH3 0x461BCD PUSH1 0xE5 SHL DUP2 MSTORE PUSH1 0x20 DUP2 DUP8 ADD MSTORE PUSH1 0x2A PUSH1 0x24 DUP3 ADD MSTORE PUSH32 0x45524332305061757361626C653A20746F6B656E207472616E73666572207768 PUSH1 0x44 DUP3 ADD MSTORE PUSH10 0x1A5B19481C185D5CD959 PUSH1 0xB2 SHL PUSH1 0x64 DUP3 ADD MSTORE PUSH1 0x84 SWAP1 REVERT JUMPDEST DUP4 MLOAD PUSH3 0x461BCD PUSH1 0xE5 SHL DUP2 MSTORE PUSH1 0x20 DUP2 DUP8 ADD MSTORE PUSH1 0x1F PUSH1 0x24 DUP3 ADD MSTORE PUSH32 0x45524332303A206D696E7420746F20746865207A65726F206164647265737300 PUSH1 0x44 DUP3 ADD MSTORE PUSH1 0x64 SWAP1 REVERT JUMPDEST SWAP2 SWAP1 POP CALLVALUE PUSH2 0x217 JUMPI DUP2 PUSH1 0x3 NOT CALLDATASIZE ADD SLT PUSH2 0x217 JUMPI CALLDATALOAD PUSH1 0x1 PUSH1 0x1 PUSH1 0xA0 SHL SUB DUP2 AND DUP1 DUP3 SUB PUSH2 0x213 JUMPI SWAP1 PUSH2 0x1141 PUSH1 0x20 SWAP5 PUSH2 0x2C4 SWAP4 CALLER DUP3 MSTORE PUSH1 0xCA DUP8 MSTORE DUP6 DUP3 KECCAK256 SWAP1 DUP3 MSTORE DUP7 MSTORE DUP5 PUSH1 0x24 CALLDATALOAD SWAP2 KECCAK256 SLOAD PUSH2 0x1C45 JUMP JUMPDEST SWAP1 CALLER PUSH2 0x1E38 JUMP JUMPDEST SWAP2 POP SWAP2 CALLVALUE PUSH2 0x1BD JUMPI PUSH1 0x20 CALLDATASIZE PUSH1 0x3 NOT ADD SLT PUSH2 0x1BD JUMPI PUSH1 0x1 PUSH1 0x1 PUSH1 0xA0 SHL SUB SWAP3 SWAP1 CALLDATALOAD DUP4 DUP2 AND DUP2 SUB PUSH2 0x217 JUMPI PUSH2 0x11A7 DUP5 PUSH2 0x262 SWAP6 PUSH32 0x0 AND SWAP1 PUSH2 0xF6F DUP3 ADDRESS EQ ISZERO PUSH2 0x184E JUMP JUMPDEST PUSH2 0x11AF PUSH2 0x22A2 JUMP JUMPDEST PUSH2 0x11C4 PUSH2 0x11BB DUP5 PUSH2 0x15EE JUMP JUMPDEST SWAP3 MLOAD SWAP3 DUP4 PUSH2 0x15B8 JUMP JUMPDEST DUP3 DUP3 MSTORE PUSH1 0x1F NOT PUSH2 0x11D3 DUP5 PUSH2 0x15EE JUMP JUMPDEST ADD CALLDATASIZE PUSH1 0x20 DUP5 ADD CALLDATACOPY PUSH2 0x1910 JUMP JUMPDEST DUP4 DUP4 CALLVALUE PUSH2 0x1BD JUMPI DUP3 PUSH1 0x3 NOT CALLDATASIZE ADD SLT PUSH2 0x1BD JUMPI PUSH1 0x24 CALLDATALOAD SWAP1 PUSH1 0x1 PUSH1 0x1 PUSH1 0xA0 SHL SUB DUP3 AND DUP1 DUP4 SUB PUSH2 0x213 JUMPI CALLER SUB PUSH2 0x1217 JUMPI SWAP1 PUSH2 0x262 SWAP2 CALLDATALOAD PUSH2 0x17C9 JUMP JUMPDEST PUSH1 0x84 SWAP1 PUSH1 0x20 DUP6 MLOAD SWAP2 PUSH3 0x461BCD PUSH1 0xE5 SHL DUP4 MSTORE DUP3 ADD MSTORE PUSH1 0x2F PUSH1 0x24 DUP3 ADD MSTORE PUSH32 0x416363657373436F6E74726F6C3A2063616E206F6E6C792072656E6F756E6365 PUSH1 0x44 DUP3 ADD MSTORE PUSH15 0x103937B632B9903337B91039B2B633 PUSH1 0x89 SHL PUSH1 0x64 DUP3 ADD MSTORE REVERT JUMPDEST DUP4 SWAP1 CALLVALUE PUSH2 0x1BD JUMPI DUP2 PUSH1 0x3 NOT CALLDATASIZE ADD SLT PUSH2 0x1BD JUMPI PUSH1 0x20 SWAP1 MLOAD PUSH1 0x12 DUP2 MSTORE RETURN JUMPDEST SWAP2 SWAP1 POP CALLVALUE PUSH2 0x217 JUMPI DUP2 PUSH1 0x3 NOT CALLDATASIZE ADD SLT PUSH2 0x217 JUMPI PUSH1 0x24 CALLDATALOAD SWAP1 CALLDATALOAD PUSH1 0x1 PUSH1 0x1 PUSH1 0xA0 SHL SUB DUP3 AND DUP3 SUB PUSH2 0x213 JUMPI PUSH2 0x12D0 PUSH1 0x1 PUSH2 0x262 SWAP5 DUP4 DUP8 MSTORE PUSH1 0x65 PUSH1 0x20 MSTORE DUP7 KECCAK256 ADD SLOAD PUSH2 0x16EE JUMP JUMPDEST PUSH2 0x1662 JUMP JUMPDEST SWAP2 SWAP1 POP CALLVALUE PUSH2 0x217 JUMPI PUSH1 0x20 CALLDATASIZE PUSH1 0x3 NOT ADD SLT PUSH2 0x217 JUMPI DUP2 PUSH1 0x20 SWAP4 PUSH1 0x1 SWAP3 CALLDATALOAD DUP2 MSTORE PUSH1 0x65 DUP6 MSTORE KECCAK256 ADD SLOAD SWAP1 MLOAD SWAP1 DUP2 MSTORE RETURN JUMPDEST DUP4 DUP4 CALLVALUE PUSH2 0x1BD JUMPI PUSH1 0x60 CALLDATASIZE PUSH1 0x3 NOT ADD SLT PUSH2 0x1BD JUMPI DUP1 CALLDATALOAD PUSH1 0x1 PUSH1 0x1 PUSH1 0xA0 SHL SUB DUP2 DUP2 AND SWAP4 SWAP1 SWAP3 SWAP1 DUP5 DUP4 SUB PUSH2 0x2CB JUMPI PUSH1 0x24 CALLDATALOAD SWAP4 DUP5 AND DUP5 SUB PUSH2 0x2CB JUMPI DUP6 SWAP1 PUSH1 0x44 CALLDATALOAD SWAP6 DUP2 MSTORE PUSH1 0xCA PUSH1 0x20 MSTORE DUP2 DUP2 KECCAK256 CALLER DUP3 MSTORE PUSH1 0x20 MSTORE KECCAK256 SLOAD SWAP1 PUSH0 NOT DUP3 SUB PUSH2 0x1368 JUMPI JUMPDEST PUSH1 0x20 DUP7 PUSH2 0x2C4 DUP8 DUP8 DUP8 PUSH2 0x1C66 JUMP JUMPDEST DUP5 DUP3 LT PUSH2 0x1391 JUMPI POP SWAP2 DUP4 SWAP2 PUSH2 0x1386 PUSH1 0x20 SWAP7 SWAP6 PUSH2 0x2C4 SWAP6 SUB CALLER DUP4 PUSH2 0x1E38 JUMP JUMPDEST SWAP2 SWAP4 SWAP5 DUP2 SWAP4 POP PUSH2 0x135A JUMP JUMPDEST PUSH1 0x64 SWAP1 PUSH1 0x20 DUP8 MLOAD SWAP2 PUSH3 0x461BCD PUSH1 0xE5 SHL DUP4 MSTORE DUP3 ADD MSTORE PUSH1 0x1D PUSH1 0x24 DUP3 ADD MSTORE PUSH32 0x45524332303A20696E73756666696369656E7420616C6C6F77616E6365000000 PUSH1 0x44 DUP3 ADD MSTORE REVERT JUMPDEST DUP4 SWAP1 CALLVALUE PUSH2 0x1BD JUMPI DUP2 PUSH1 0x3 NOT CALLDATASIZE ADD SLT PUSH2 0x1BD JUMPI PUSH1 0x20 SWAP1 PUSH1 0xCB SLOAD SWAP1 MLOAD SWAP1 DUP2 MSTORE RETURN JUMPDEST DUP4 SWAP1 CALLVALUE PUSH2 0x1BD JUMPI DUP2 PUSH1 0x3 NOT CALLDATASIZE ADD SLT PUSH2 0x1BD JUMPI PUSH2 0x191 SLOAD SWAP1 MLOAD PUSH1 0x1 PUSH1 0x1 PUSH1 0xA0 SHL SUB SWAP1 SWAP2 AND DUP2 MSTORE PUSH1 0x20 SWAP1 RETURN JUMPDEST SWAP2 SWAP1 POP CALLVALUE PUSH2 0x217 JUMPI DUP2 PUSH1 0x3 NOT CALLDATASIZE ADD SLT PUSH2 0x217 JUMPI CALLDATALOAD SWAP2 PUSH1 0x1 PUSH1 0x1 PUSH1 0xA0 SHL SUB DUP4 AND DUP4 SUB PUSH2 0x2CB JUMPI POP PUSH2 0x2C4 PUSH1 0x20 SWAP3 PUSH1 0x24 CALLDATALOAD SWAP1 CALLER PUSH2 0x1E38 JUMP JUMPDEST DUP4 SWAP1 CALLVALUE PUSH2 0x1BD JUMPI DUP2 PUSH1 0x3 NOT CALLDATASIZE ADD SLT PUSH2 0x1BD JUMPI DUP1 MLOAD SWAP1 DUP3 PUSH1 0xCC SLOAD PUSH2 0x1475 DUP2 PUSH2 0x1C0D JUMP JUMPDEST DUP1 DUP6 MSTORE SWAP2 PUSH1 0x1 SWAP2 DUP1 DUP4 AND SWAP1 DUP2 ISZERO PUSH2 0x5FA JUMPI POP PUSH1 0x1 EQ PUSH2 0x14A0 JUMPI POP POP POP PUSH2 0x58F DUP3 PUSH2 0x599 SWAP5 SUB DUP4 PUSH2 0x15B8 JUMP JUMPDEST SWAP5 POP PUSH1 0xCC DUP6 MSTORE PUSH32 0x47197230E1E4B29FC0BD84D7D78966C0925452AFF72A2A121538B102457E9EBE JUMPDEST DUP3 DUP7 LT PUSH2 0x14E5 JUMPI POP POP POP PUSH2 0x58F DUP3 PUSH1 0x20 PUSH2 0x599 SWAP6 DUP3 ADD ADD SWAP5 PUSH2 0x57D JUMP JUMPDEST DUP1 SLOAD PUSH1 0x20 DUP8 DUP8 ADD DUP2 ADD SWAP2 SWAP1 SWAP2 MSTORE SWAP1 SWAP6 ADD SWAP5 DUP2 ADD PUSH2 0x14C8 JUMP JUMPDEST DUP5 SWAP1 DUP5 CALLVALUE PUSH2 0x217 JUMPI PUSH1 0x20 CALLDATASIZE PUSH1 0x3 NOT ADD SLT PUSH2 0x217 JUMPI CALLDATALOAD PUSH4 0xFFFFFFFF PUSH1 0xE0 SHL DUP2 AND DUP1 SWAP2 SUB PUSH2 0x217 JUMPI PUSH1 0x20 SWAP3 POP PUSH4 0x5A05180F PUSH1 0xE0 SHL DUP2 EQ SWAP1 DUP2 ISZERO PUSH2 0x1540 JUMPI JUMPDEST POP ISZERO ISZERO DUP2 MSTORE RETURN JUMPDEST PUSH4 0x7965DB0B PUSH1 0xE0 SHL DUP2 EQ SWAP2 POP DUP2 ISZERO PUSH2 0x155A JUMPI JUMPDEST POP DUP4 PUSH2 0x1539 JUMP JUMPDEST PUSH4 0x1FFC9A7 PUSH1 0xE0 SHL EQ SWAP1 POP DUP4 PUSH2 0x1553 JUMP JUMPDEST PUSH0 JUMPDEST DUP4 DUP2 LT PUSH2 0x157C JUMPI POP POP PUSH0 SWAP2 ADD MSTORE JUMP JUMPDEST DUP2 DUP2 ADD MLOAD DUP4 DUP3 ADD MSTORE PUSH1 0x20 ADD PUSH2 0x156D JUMP JUMPDEST PUSH1 0x40 SWAP2 PUSH1 0x20 DUP3 MSTORE PUSH2 0x15AC DUP2 MLOAD DUP1 SWAP3 DUP2 PUSH1 0x20 DUP7 ADD MSTORE PUSH1 0x20 DUP7 DUP7 ADD SWAP2 ADD PUSH2 0x156B JUMP JUMPDEST PUSH1 0x1F ADD PUSH1 0x1F NOT AND ADD ADD SWAP1 JUMP JUMPDEST SWAP1 PUSH1 0x1F DUP1 NOT SWAP2 ADD AND DUP2 ADD SWAP1 DUP2 LT PUSH8 0xFFFFFFFFFFFFFFFF DUP3 GT OR PUSH2 0x15DA JUMPI PUSH1 0x40 MSTORE JUMP JUMPDEST PUSH4 0x4E487B71 PUSH1 0xE0 SHL PUSH0 MSTORE PUSH1 0x41 PUSH1 0x4 MSTORE PUSH1 0x24 PUSH0 REVERT JUMPDEST PUSH8 0xFFFFFFFFFFFFFFFF DUP2 GT PUSH2 0x15DA JUMPI PUSH1 0x1F ADD PUSH1 0x1F NOT AND PUSH1 0x20 ADD SWAP1 JUMP JUMPDEST SWAP3 SWAP2 SWAP3 PUSH2 0x1616 DUP3 PUSH2 0x15EE JUMP JUMPDEST SWAP2 PUSH2 0x1624 PUSH1 0x40 MLOAD SWAP4 DUP5 PUSH2 0x15B8 JUMP JUMPDEST DUP3 SWAP5 DUP2 DUP5 MSTORE DUP2 DUP4 ADD GT PUSH2 0x1640 JUMPI DUP3 DUP2 PUSH1 0x20 SWAP4 DUP5 PUSH0 SWAP7 ADD CALLDATACOPY ADD ADD MSTORE JUMP JUMPDEST PUSH0 DUP1 REVERT JUMPDEST SWAP1 DUP1 PUSH1 0x1F DUP4 ADD SLT ISZERO PUSH2 0x1640 JUMPI DUP2 PUSH1 0x20 PUSH2 0x165F SWAP4 CALLDATALOAD SWAP2 ADD PUSH2 0x160A JUMP JUMPDEST SWAP1 JUMP JUMPDEST SWAP1 PUSH1 0x40 PUSH2 0x16A0 SWAP3 PUSH0 SWAP1 DUP1 DUP3 MSTORE PUSH1 0x65 PUSH1 0x20 MSTORE DUP3 DUP3 KECCAK256 SWAP4 PUSH1 0x1 DUP1 PUSH1 0xA0 SHL SUB AND SWAP4 DUP5 DUP4 MSTORE PUSH1 0x20 MSTORE PUSH1 0xFF DUP4 DUP4 KECCAK256 SLOAD AND ISZERO PUSH2 0x16A3 JUMPI JUMPDEST DUP2 MSTORE PUSH1 0x97 PUSH1 0x20 MSTORE KECCAK256 PUSH2 0x212E JUMP JUMPDEST POP JUMP JUMPDEST DUP1 DUP3 MSTORE PUSH1 0x65 PUSH1 0x20 MSTORE DUP3 DUP3 KECCAK256 DUP5 DUP4 MSTORE PUSH1 0x20 MSTORE DUP3 DUP3 KECCAK256 PUSH1 0x1 PUSH1 0xFF NOT DUP3 SLOAD AND OR SWAP1 SSTORE CALLER DUP5 DUP3 PUSH32 0x2F8788117E7EFF1D82E926EC794901D17C78024A50270940304540A733656F0D DUP6 DUP1 LOG4 PUSH2 0x1693 JUMP JUMPDEST DUP1 PUSH0 MSTORE PUSH1 0x20 PUSH1 0x65 DUP2 MSTORE PUSH1 0x40 PUSH0 KECCAK256 CALLER PUSH0 MSTORE DUP2 MSTORE PUSH1 0xFF PUSH1 0x40 PUSH0 KECCAK256 SLOAD AND ISZERO PUSH2 0x1711 JUMPI POP POP JUMP JUMPDEST PUSH2 0x17AD PUSH1 0x48 PUSH2 0x17C5 SWAP4 DUP4 PUSH2 0x1733 PUSH2 0x179E SWAP6 PUSH2 0x172D PUSH1 0x14 CALLER PUSH2 0x1FC7 JUMP JUMPDEST SWAP4 PUSH2 0x1FC7 JUMP JUMPDEST SWAP1 PUSH1 0x40 MLOAD SWAP6 DUP7 SWAP4 PUSH32 0x416363657373436F6E74726F6C3A206163636F756E7420000000000000000000 DUP4 DUP7 ADD MSTORE PUSH2 0x1772 DUP2 MLOAD DUP1 SWAP3 DUP6 PUSH1 0x37 DUP10 ADD SWAP2 ADD PUSH2 0x156B JUMP JUMPDEST DUP5 ADD SWAP2 PUSH17 0x1034B99036B4B9B9B4B733903937B6329 PUSH1 0x7D SHL PUSH1 0x37 DUP5 ADD MSTORE DUP4 MLOAD SWAP4 DUP5 SWAP2 DUP8 DUP6 ADD SWAP2 ADD PUSH2 0x156B JUMP JUMPDEST ADD SUB PUSH1 0x28 DUP2 ADD DUP5 MSTORE ADD DUP3 PUSH2 0x15B8 JUMP JUMPDEST PUSH1 0x40 MLOAD PUSH3 0x461BCD PUSH1 0xE5 SHL DUP2 MSTORE SWAP2 DUP3 SWAP2 PUSH1 0x4 DUP4 ADD PUSH2 0x158C JUMP JUMPDEST SUB SWAP1 REVERT JUMPDEST SWAP1 PUSH1 0x40 PUSH2 0x16A0 SWAP3 PUSH0 SWAP1 DUP1 DUP3 MSTORE PUSH1 0x65 PUSH1 0x20 MSTORE DUP3 DUP3 KECCAK256 SWAP4 PUSH1 0x1 DUP1 PUSH1 0xA0 SHL SUB AND SWAP4 DUP5 DUP4 MSTORE PUSH1 0x20 MSTORE PUSH1 0xFF DUP4 DUP4 KECCAK256 SLOAD AND PUSH2 0x1806 JUMPI JUMPDEST DUP2 MSTORE PUSH1 0x97 PUSH1 0x20 MSTORE KECCAK256 PUSH2 0x21B5 JUMP JUMPDEST DUP1 DUP3 MSTORE PUSH1 0x65 PUSH1 0x20 MSTORE DUP3 DUP3 KECCAK256 DUP5 DUP4 MSTORE PUSH1 0x20 MSTORE DUP3 DUP3 KECCAK256 PUSH1 0xFF NOT DUP2 SLOAD AND SWAP1 SSTORE CALLER DUP5 DUP3 PUSH32 0xF6391F5C32D9C69D2A47EA670B442974B53935D1EDC7FD64EB21E047A839171B DUP6 DUP1 LOG4 PUSH2 0x17F9 JUMP JUMPDEST ISZERO PUSH2 0x1855 JUMPI JUMP JUMPDEST PUSH1 0x40 MLOAD PUSH3 0x461BCD PUSH1 0xE5 SHL DUP2 MSTORE PUSH1 0x20 PUSH1 0x4 DUP3 ADD MSTORE PUSH1 0x2C PUSH1 0x24 DUP3 ADD MSTORE PUSH32 0x46756E6374696F6E206D7573742062652063616C6C6564207468726F75676820 PUSH1 0x44 DUP3 ADD MSTORE PUSH12 0x19195B1959D85D1958D85B1B PUSH1 0xA2 SHL PUSH1 0x64 DUP3 ADD MSTORE PUSH1 0x84 SWAP1 REVERT JUMPDEST ISZERO PUSH2 0x18B6 JUMPI JUMP JUMPDEST PUSH1 0x40 MLOAD PUSH3 0x461BCD PUSH1 0xE5 SHL DUP2 MSTORE PUSH1 0x20 PUSH1 0x4 DUP3 ADD MSTORE PUSH1 0x2C PUSH1 0x24 DUP3 ADD MSTORE PUSH32 0x46756E6374696F6E206D7573742062652063616C6C6564207468726F75676820 PUSH1 0x44 DUP3 ADD MSTORE PUSH12 0x6163746976652070726F7879 PUSH1 0xA0 SHL PUSH1 0x64 DUP3 ADD MSTORE PUSH1 0x84 SWAP1 REVERT JUMPDEST SWAP1 SWAP2 PUSH1 0xFF PUSH32 0x4910FDFA16FED3260ED0E7147F7CC6DA11A60208B5B9406D12A635614FFD9143 SLOAD AND PUSH0 EQ PUSH2 0x194A JUMPI POP PUSH2 0x1948 SWAP2 POP PUSH2 0x1B6B JUMP JUMPDEST JUMP JUMPDEST PUSH1 0x40 DUP1 MLOAD PUSH4 0x52D1902D PUSH1 0xE0 SHL DUP2 MSTORE PUSH1 0x20 SWAP5 SWAP2 SWAP4 SWAP3 SWAP1 PUSH1 0x1 PUSH1 0x1 PUSH1 0xA0 SHL SUB DUP5 AND SWAP1 DUP7 DUP2 PUSH1 0x4 DUP2 DUP6 GAS STATICCALL PUSH0 SWAP2 DUP2 PUSH2 0x1B3C JUMPI JUMPDEST POP PUSH2 0x19DA JUMPI DUP6 MLOAD PUSH3 0x461BCD PUSH1 0xE5 SHL DUP2 MSTORE PUSH1 0x4 DUP2 ADD DUP9 SWAP1 MSTORE PUSH1 0x2E PUSH1 0x24 DUP3 ADD MSTORE PUSH32 0x45524331393637557067726164653A206E657720696D706C656D656E74617469 PUSH1 0x44 DUP3 ADD MSTORE PUSH14 0x6F6E206973206E6F742055555053 PUSH1 0x90 SHL PUSH1 0x64 DUP3 ADD MSTORE PUSH1 0x84 SWAP1 REVERT JUMPDEST SWAP4 SWAP6 SWAP3 SWAP5 SWAP3 SWAP4 PUSH32 0xC9F76B5EC45E5CDEF99837D7B6D2467235C1DF8933C8CA56DF5C35AFA2C7D444 ADD PUSH2 0x1AE6 JUMPI PUSH2 0x1A0F DUP7 PUSH2 0x1B6B JUMP JUMPDEST PUSH32 0xBC7CD75A20EE27FD9ADEBAB32041F755214DBC6BFFA90CC0225B39DA2E5C2D3B PUSH0 DUP1 LOG2 DUP4 MLOAD ISZERO SWAP1 DUP2 ISZERO SWAP2 PUSH2 0x1ADE JUMPI JUMPDEST POP PUSH2 0x1A4B JUMPI JUMPDEST POP POP POP POP JUMP JUMPDEST PUSH2 0x1ACA SWAP4 PUSH0 DUP1 PUSH2 0x1A5B PUSH1 0x27 PUSH2 0x15EE JUMP JUMPDEST SWAP6 PUSH2 0x1A68 DUP6 MLOAD SWAP8 DUP9 PUSH2 0x15B8 JUMP JUMPDEST PUSH1 0x27 DUP8 MSTORE PUSH32 0x416464726573733A206C6F772D6C6576656C2064656C65676174652063616C6C DUP7 DUP9 ADD MSTORE PUSH7 0x819985A5B1959 PUSH1 0xCA SHL DUP6 DUP9 ADD MSTORE DUP6 DUP2 MLOAD SWAP2 ADD DUP5 GAS DELEGATECALL SWAP2 RETURNDATASIZE ISZERO PUSH2 0x1AD4 JUMPI RETURNDATASIZE PUSH2 0x1ABC PUSH2 0x11BB DUP3 PUSH2 0x15EE JUMP JUMPDEST DUP2 MSTORE PUSH0 DUP2 SWAP5 RETURNDATASIZE SWAP3 ADD RETURNDATACOPY PUSH2 0x1F36 JUMP JUMPDEST POP PUSH0 DUP1 DUP1 DUP1 PUSH2 0x1A45 JUMP JUMPDEST POP PUSH1 0x60 SWAP3 POP PUSH2 0x1F36 JUMP JUMPDEST SWAP1 POP PUSH0 PUSH2 0x1A3F JUMP JUMPDEST DUP3 MLOAD PUSH3 0x461BCD PUSH1 0xE5 SHL DUP2 MSTORE PUSH1 0x4 DUP2 ADD DUP6 SWAP1 MSTORE PUSH1 0x29 PUSH1 0x24 DUP3 ADD MSTORE PUSH32 0x45524331393637557067726164653A20756E737570706F727465642070726F78 PUSH1 0x44 DUP3 ADD MSTORE PUSH9 0x1A58589B1955555251 PUSH1 0xBA SHL PUSH1 0x64 DUP3 ADD MSTORE PUSH1 0x84 SWAP1 REVERT JUMPDEST SWAP1 SWAP2 DUP9 DUP3 DUP2 RETURNDATASIZE DUP4 GT PUSH2 0x1B64 JUMPI JUMPDEST PUSH2 0x1B53 DUP2 DUP4 PUSH2 0x15B8 JUMP JUMPDEST DUP2 ADD SUB SLT PUSH2 0x2CB JUMPI POP MLOAD SWAP1 PUSH0 PUSH2 0x197A JUMP JUMPDEST POP RETURNDATASIZE PUSH2 0x1B49 JUMP JUMPDEST DUP1 EXTCODESIZE ISZERO PUSH2 0x1BB2 JUMPI PUSH32 0x360894A13BA1A3210667C828492DB98DCA3E2076CC3735A920A3CA505D382BBC DUP1 SLOAD PUSH1 0x1 PUSH1 0x1 PUSH1 0xA0 SHL SUB NOT AND PUSH1 0x1 PUSH1 0x1 PUSH1 0xA0 SHL SUB SWAP1 SWAP3 AND SWAP2 SWAP1 SWAP2 OR SWAP1 SSTORE JUMP JUMPDEST PUSH1 0x40 MLOAD PUSH3 0x461BCD PUSH1 0xE5 SHL DUP2 MSTORE PUSH1 0x20 PUSH1 0x4 DUP3 ADD MSTORE PUSH1 0x2D PUSH1 0x24 DUP3 ADD MSTORE PUSH32 0x455243313936373A206E657720696D706C656D656E746174696F6E206973206E PUSH1 0x44 DUP3 ADD MSTORE PUSH13 0x1BDD08184818DBDB9D1C9858DD PUSH1 0x9A SHL PUSH1 0x64 DUP3 ADD MSTORE PUSH1 0x84 SWAP1 REVERT JUMPDEST SWAP1 PUSH1 0x1 DUP3 DUP2 SHR SWAP3 AND DUP1 ISZERO PUSH2 0x1C3B JUMPI JUMPDEST PUSH1 0x20 DUP4 LT EQ PUSH2 0x1C27 JUMPI JUMP JUMPDEST PUSH4 0x4E487B71 PUSH1 0xE0 SHL PUSH0 MSTORE PUSH1 0x22 PUSH1 0x4 MSTORE PUSH1 0x24 PUSH0 REVERT JUMPDEST SWAP2 PUSH1 0x7F AND SWAP2 PUSH2 0x1C1C JUMP JUMPDEST SWAP2 SWAP1 DUP3 ADD DUP1 SWAP3 GT PUSH2 0x1C52 JUMPI JUMP JUMPDEST PUSH4 0x4E487B71 PUSH1 0xE0 SHL PUSH0 MSTORE PUSH1 0x11 PUSH1 0x4 MSTORE PUSH1 0x24 PUSH0 REVERT JUMPDEST PUSH1 0x1 PUSH1 0x1 PUSH1 0xA0 SHL SUB SWAP1 DUP2 AND SWAP2 DUP3 ISZERO PUSH2 0x1DE5 JUMPI AND SWAP2 DUP3 ISZERO PUSH2 0x1D94 JUMPI PUSH1 0xFF PUSH2 0x1C4 SLOAD AND PUSH2 0x1D3C JUMPI PUSH0 DUP3 DUP2 MSTORE PUSH1 0xC9 PUSH1 0x20 MSTORE PUSH1 0x40 DUP2 KECCAK256 SLOAD SWAP2 DUP1 DUP4 LT PUSH2 0x1CE8 JUMPI PUSH1 0x40 DUP3 DUP3 PUSH32 0xDDF252AD1BE2C89B69C2B068FC378DAA952BA7F163C4A11628F55A4DF523B3EF SWAP6 DUP8 PUSH1 0x20 SWAP7 MSTORE PUSH1 0xC9 DUP7 MSTORE SUB DUP3 DUP3 KECCAK256 SSTORE DUP7 DUP2 MSTORE KECCAK256 DUP2 DUP2 SLOAD ADD SWAP1 SSTORE PUSH1 0x40 MLOAD SWAP1 DUP2 MSTORE LOG3 JUMP JUMPDEST PUSH1 0x40 MLOAD PUSH3 0x461BCD PUSH1 0xE5 SHL DUP2 MSTORE PUSH1 0x20 PUSH1 0x4 DUP3 ADD MSTORE PUSH1 0x26 PUSH1 0x24 DUP3 ADD MSTORE PUSH32 0x45524332303A207472616E7366657220616D6F756E7420657863656564732062 PUSH1 0x44 DUP3 ADD MSTORE PUSH6 0x616C616E6365 PUSH1 0xD0 SHL PUSH1 0x64 DUP3 ADD MSTORE PUSH1 0x84 SWAP1 REVERT JUMPDEST PUSH1 0x40 MLOAD PUSH3 0x461BCD PUSH1 0xE5 SHL DUP2 MSTORE PUSH1 0x20 PUSH1 0x4 DUP3 ADD MSTORE PUSH1 0x2A PUSH1 0x24 DUP3 ADD MSTORE PUSH32 0x45524332305061757361626C653A20746F6B656E207472616E73666572207768 PUSH1 0x44 DUP3 ADD MSTORE PUSH10 0x1A5B19481C185D5CD959 PUSH1 0xB2 SHL PUSH1 0x64 DUP3 ADD MSTORE PUSH1 0x84 SWAP1 REVERT JUMPDEST PUSH1 0x40 MLOAD PUSH3 0x461BCD PUSH1 0xE5 SHL DUP2 MSTORE PUSH1 0x20 PUSH1 0x4 DUP3 ADD MSTORE PUSH1 0x23 PUSH1 0x24 DUP3 ADD MSTORE PUSH32 0x45524332303A207472616E7366657220746F20746865207A65726F2061646472 PUSH1 0x44 DUP3 ADD MSTORE PUSH3 0x657373 PUSH1 0xE8 SHL PUSH1 0x64 DUP3 ADD MSTORE PUSH1 0x84 SWAP1 REVERT JUMPDEST PUSH1 0x40 MLOAD PUSH3 0x461BCD PUSH1 0xE5 SHL DUP2 MSTORE PUSH1 0x20 PUSH1 0x4 DUP3 ADD MSTORE PUSH1 0x25 PUSH1 0x24 DUP3 ADD MSTORE PUSH32 0x45524332303A207472616E736665722066726F6D20746865207A65726F206164 PUSH1 0x44 DUP3 ADD MSTORE PUSH5 0x6472657373 PUSH1 0xD8 SHL PUSH1 0x64 DUP3 ADD MSTORE PUSH1 0x84 SWAP1 REVERT JUMPDEST PUSH1 0x1 PUSH1 0x1 PUSH1 0xA0 SHL SUB SWAP1 DUP2 AND SWAP2 DUP3 ISZERO PUSH2 0x1EE5 JUMPI AND SWAP2 DUP3 ISZERO PUSH2 0x1E95 JUMPI PUSH1 0x20 PUSH32 0x8C5BE1E5EBEC7D5BD14F71427D1E84F3DD0314C0F7B2291E5B200AC8C7C3B925 SWAP2 DUP4 PUSH0 MSTORE PUSH1 0xCA DUP3 MSTORE PUSH1 0x40 PUSH0 KECCAK256 DUP6 PUSH0 MSTORE DUP3 MSTORE DUP1 PUSH1 0x40 PUSH0 KECCAK256 SSTORE PUSH1 0x40 MLOAD SWAP1 DUP2 MSTORE LOG3 JUMP JUMPDEST PUSH1 0x40 MLOAD PUSH3 0x461BCD PUSH1 0xE5 SHL DUP2 MSTORE PUSH1 0x20 PUSH1 0x4 DUP3 ADD MSTORE PUSH1 0x22 PUSH1 0x24 DUP3 ADD MSTORE PUSH32 0x45524332303A20617070726F766520746F20746865207A65726F206164647265 PUSH1 0x44 DUP3 ADD MSTORE PUSH2 0x7373 PUSH1 0xF0 SHL PUSH1 0x64 DUP3 ADD MSTORE PUSH1 0x84 SWAP1 REVERT JUMPDEST PUSH1 0x40 MLOAD PUSH3 0x461BCD PUSH1 0xE5 SHL DUP2 MSTORE PUSH1 0x20 PUSH1 0x4 DUP3 ADD MSTORE PUSH1 0x24 DUP1 DUP3 ADD MSTORE PUSH32 0x45524332303A20617070726F76652066726F6D20746865207A65726F20616464 PUSH1 0x44 DUP3 ADD MSTORE PUSH4 0x72657373 PUSH1 0xE0 SHL PUSH1 0x64 DUP3 ADD MSTORE PUSH1 0x84 SWAP1 REVERT JUMPDEST SWAP2 SWAP3 SWAP1 ISZERO PUSH2 0x1F98 JUMPI POP DUP2 MLOAD ISZERO PUSH2 0x1F4A JUMPI POP SWAP1 JUMP JUMPDEST EXTCODESIZE ISZERO PUSH2 0x1F53 JUMPI SWAP1 JUMP JUMPDEST PUSH1 0x40 MLOAD PUSH3 0x461BCD PUSH1 0xE5 SHL DUP2 MSTORE PUSH1 0x20 PUSH1 0x4 DUP3 ADD MSTORE PUSH1 0x1D PUSH1 0x24 DUP3 ADD MSTORE PUSH32 0x416464726573733A2063616C6C20746F206E6F6E2D636F6E7472616374000000 PUSH1 0x44 DUP3 ADD MSTORE PUSH1 0x64 SWAP1 REVERT JUMPDEST DUP3 MLOAD SWAP1 SWAP2 POP ISZERO PUSH2 0x1FAB JUMPI POP DUP1 MLOAD SWAP1 PUSH1 0x20 ADD REVERT JUMPDEST PUSH1 0x40 MLOAD PUSH3 0x461BCD PUSH1 0xE5 SHL DUP2 MSTORE SWAP1 DUP2 SWAP1 PUSH2 0x17C5 SWAP1 PUSH1 0x4 DUP4 ADD PUSH2 0x158C JUMP JUMPDEST PUSH1 0x1 SWAP2 DUP1 DUP4 SHL SWAP2 SWAP1 PUSH1 0x1 PUSH1 0x1 PUSH1 0xFF SHL SUB DUP2 AND SUB PUSH2 0x1C52 JUMPI PUSH1 0x2 DUP3 ADD SWAP3 DUP4 DUP4 GT PUSH2 0x1C52 JUMPI PUSH2 0x200C PUSH2 0x1FF6 DUP6 PUSH2 0x15EE JUMP JUMPDEST SWAP5 PUSH2 0x2004 PUSH1 0x40 MLOAD SWAP7 DUP8 PUSH2 0x15B8 JUMP JUMPDEST DUP1 DUP7 MSTORE PUSH2 0x15EE JUMP JUMPDEST PUSH1 0x20 SWAP4 SWAP1 DUP6 DUP6 ADD SWAP1 PUSH1 0x1F NOT ADD CALLDATASIZE DUP3 CALLDATACOPY DUP6 MLOAD ISZERO PUSH2 0x2105 JUMPI PUSH1 0x30 SWAP1 MSTORE8 DUP5 MLOAD DUP3 LT ISZERO PUSH2 0x2105 JUMPI PUSH1 0x78 PUSH1 0x21 DUP7 ADD MSTORE8 DUP2 DUP2 ADD DUP1 SWAP2 GT PUSH2 0x1C52 JUMPI SWAP1 JUMPDEST DUP1 DUP3 GT PUSH2 0x2096 JUMPI POP POP PUSH2 0x2053 JUMPI POP SWAP1 JUMP JUMPDEST PUSH1 0x64 SWAP1 PUSH1 0x40 MLOAD SWAP1 PUSH3 0x461BCD PUSH1 0xE5 SHL DUP3 MSTORE DUP1 PUSH1 0x4 DUP4 ADD MSTORE PUSH1 0x24 DUP3 ADD MSTORE PUSH32 0x537472696E67733A20686578206C656E67746820696E73756666696369656E74 PUSH1 0x44 DUP3 ADD MSTORE REVERT JUMPDEST SWAP1 SWAP2 PUSH1 0xF DUP2 AND PUSH1 0x10 DUP2 LT ISZERO PUSH2 0x20F1 JUMPI DUP6 MLOAD DUP5 LT ISZERO PUSH2 0x20F1 JUMPI PUSH16 0x181899199A1A9B1B9C1CB0B131B232B3 PUSH1 0x81 SHL SWAP1 BYTE DUP6 DUP5 ADD DUP6 ADD MSTORE8 PUSH1 0x4 SHR SWAP2 DUP1 ISZERO PUSH2 0x20DD JUMPI PUSH0 NOT ADD SWAP1 PUSH2 0x2042 JUMP JUMPDEST PUSH1 0x24 PUSH0 PUSH4 0x4E487B71 PUSH1 0xE0 SHL DUP2 MSTORE PUSH1 0x11 PUSH1 0x4 MSTORE REVERT JUMPDEST PUSH1 0x24 PUSH0 PUSH4 0x4E487B71 PUSH1 0xE0 SHL DUP2 MSTORE PUSH1 0x32 PUSH1 0x4 MSTORE REVERT JUMPDEST PUSH4 0x4E487B71 PUSH1 0xE0 SHL PUSH0 MSTORE PUSH1 0x32 PUSH1 0x4 MSTORE PUSH1 0x24 PUSH0 REVERT JUMPDEST DUP1 SLOAD DUP3 LT ISZERO PUSH2 0x2105 JUMPI PUSH0 MSTORE PUSH1 0x20 PUSH0 KECCAK256 ADD SWAP1 PUSH0 SWAP1 JUMP JUMPDEST SWAP2 SWAP1 PUSH1 0x1 DUP4 ADD PUSH0 SWAP1 DUP3 DUP3 MSTORE DUP1 PUSH1 0x20 MSTORE PUSH1 0x40 DUP3 KECCAK256 SLOAD ISZERO PUSH0 EQ PUSH2 0x21AF JUMPI DUP5 SLOAD SWAP5 PUSH9 0x10000000000000000 DUP7 LT ISZERO PUSH2 0x219B JUMPI DUP4 PUSH2 0x218B PUSH2 0x2175 DUP9 PUSH1 0x1 PUSH1 0x40 SWAP9 SWAP10 SWAP11 ADD DUP6 SSTORE DUP5 PUSH2 0x2119 JUMP JUMPDEST DUP2 SWAP4 SWAP2 SLOAD SWAP1 PUSH1 0x3 SHL SWAP2 DUP3 SHL SWAP2 PUSH0 NOT SWAP1 SHL NOT AND OR SWAP1 JUMP JUMPDEST SWAP1 SSTORE SLOAD SWAP4 DUP3 MSTORE PUSH1 0x20 MSTORE KECCAK256 SSTORE PUSH1 0x1 SWAP1 JUMP JUMPDEST PUSH4 0x4E487B71 PUSH1 0xE0 SHL DUP4 MSTORE PUSH1 0x41 PUSH1 0x4 MSTORE PUSH1 0x24 DUP4 REVERT JUMPDEST POP SWAP3 POP POP JUMP JUMPDEST SWAP1 PUSH1 0x1 DUP3 ADD SWAP1 PUSH0 SWAP3 DUP2 DUP5 MSTORE DUP3 PUSH1 0x20 MSTORE PUSH1 0x40 DUP5 KECCAK256 SLOAD SWAP1 DUP2 ISZERO ISZERO PUSH0 EQ PUSH2 0x229B JUMPI PUSH0 NOT SWAP2 DUP1 DUP4 ADD DUP2 DUP2 GT PUSH2 0x2287 JUMPI DUP3 SLOAD SWAP1 DUP5 DUP3 ADD SWAP2 DUP3 GT PUSH2 0x2273 JUMPI DUP1 DUP3 SUB PUSH2 0x223E JUMPI JUMPDEST POP POP POP DUP1 SLOAD DUP1 ISZERO PUSH2 0x222A JUMPI DUP3 ADD SWAP2 PUSH2 0x220D DUP4 DUP4 PUSH2 0x2119 JUMP JUMPDEST SWAP1 SWAP2 DUP3 SLOAD SWAP2 PUSH1 0x3 SHL SHL NOT AND SWAP1 SSTORE SSTORE DUP3 MSTORE PUSH1 0x20 MSTORE PUSH1 0x40 DUP2 KECCAK256 SSTORE PUSH1 0x1 SWAP1 JUMP JUMPDEST PUSH4 0x4E487B71 PUSH1 0xE0 SHL DUP7 MSTORE PUSH1 0x31 PUSH1 0x4 MSTORE PUSH1 0x24 DUP7 REVERT JUMPDEST PUSH2 0x225E PUSH2 0x224E PUSH2 0x2175 SWAP4 DUP7 PUSH2 0x2119 JUMP JUMPDEST SWAP1 SLOAD SWAP1 PUSH1 0x3 SHL SHR SWAP3 DUP4 SWAP3 DUP7 PUSH2 0x2119 JUMP JUMPDEST SWAP1 SSTORE DUP7 MSTORE DUP5 PUSH1 0x20 MSTORE PUSH1 0x40 DUP7 KECCAK256 SSTORE PUSH0 DUP1 DUP1 PUSH2 0x21F5 JUMP JUMPDEST PUSH4 0x4E487B71 PUSH1 0xE0 SHL DUP9 MSTORE PUSH1 0x11 PUSH1 0x4 MSTORE PUSH1 0x24 DUP9 REVERT JUMPDEST PUSH4 0x4E487B71 PUSH1 0xE0 SHL DUP8 MSTORE PUSH1 0x11 PUSH1 0x4 MSTORE PUSH1 0x24 DUP8 REVERT JUMPDEST POP POP POP POP SWAP1 JUMP JUMPDEST PUSH2 0x191 SLOAD PUSH1 0x40 MLOAD PUSH4 0xD994D6D5 PUSH1 0xE0 SHL DUP2 MSTORE CALLER PUSH1 0x4 DUP3 ADD MSTORE SWAP1 PUSH1 0x20 SWAP1 DUP3 SWAP1 PUSH1 0x24 SWAP1 DUP3 SWAP1 PUSH1 0x1 PUSH1 0x1 PUSH1 0xA0 SHL SUB AND GAS STATICCALL SWAP1 DUP2 ISZERO PUSH2 0x2331 JUMPI PUSH0 SWAP2 PUSH2 0x22F7 JUMPI JUMPDEST POP ISZERO PUSH2 0x22E5 JUMPI JUMP JUMPDEST PUSH1 0x40 MLOAD PUSH4 0x1DD1B1B5 PUSH1 0xE2 SHL DUP2 MSTORE PUSH1 0x4 SWAP1 REVERT JUMPDEST PUSH1 0x20 DUP2 RETURNDATASIZE DUP3 GT PUSH2 0x2329 JUMPI JUMPDEST DUP2 PUSH2 0x230F PUSH1 0x20 SWAP4 DUP4 PUSH2 0x15B8 JUMP JUMPDEST DUP2 ADD SUB SLT PUSH2 0x1BD JUMPI MLOAD SWAP1 DUP2 ISZERO ISZERO DUP3 SUB PUSH2 0x2CB JUMPI POP PUSH0 PUSH2 0x22DD JUMP JUMPDEST RETURNDATASIZE SWAP2 POP PUSH2 0x2302 JUMP JUMPDEST PUSH1 0x40 MLOAD RETURNDATASIZE PUSH0 DUP3 RETURNDATACOPY RETURNDATASIZE SWAP1 REVERT JUMPDEST ISZERO PUSH2 0x2343 JUMPI JUMP JUMPDEST PUSH1 0x40 MLOAD PUSH3 0x461BCD PUSH1 0xE5 SHL DUP2 MSTORE PUSH1 0x20 PUSH1 0x4 DUP3 ADD MSTORE PUSH1 0x2B PUSH1 0x24 DUP3 ADD MSTORE PUSH32 0x496E697469616C697A61626C653A20636F6E7472616374206973206E6F742069 PUSH1 0x44 DUP3 ADD MSTORE PUSH11 0x6E697469616C697A696E67 PUSH1 0xA8 SHL PUSH1 0x64 DUP3 ADD MSTORE PUSH1 0x84 SWAP1 REVERT INVALID LOG2 PUSH5 0x6970667358 0x22 SLT KECCAK256 PUSH19 0xAF35CEF4B314824B8FF3341CF79AD44DD46E8E INVALID DUP4 0xDB 0xB7 0xD4 0xDE 0x4C SWAP10 MULMOD 0xB9 0xC5 0x2C PUSH5 0x736F6C6343 STOP ADDMOD EQ STOP CALLER PUSH1 0xA0 DUP1 PUSH1 0x40 MSTORE CALLVALUE PUSH2 0xDA JUMPI ADDRESS PUSH1 0x80 MSTORE PUSH0 SLOAD SWAP1 PUSH1 0xFF DUP3 PUSH1 0x8 SHR AND PUSH2 0x88 JUMPI POP PUSH1 0xFF DUP1 DUP3 AND SUB PUSH2 0x4E JUMPI JUMPDEST PUSH1 0x40 MLOAD PUSH2 0xF3A SWAP1 DUP2 PUSH2 0xDF DUP3 CODECOPY PUSH1 0x80 MLOAD DUP2 DUP2 DUP2 PUSH2 0x541 ADD MSTORE DUP2 DUP2 PUSH2 0x6A9 ADD MSTORE PUSH2 0x7BB ADD MSTORE RETURN JUMPDEST PUSH1 0xFF SWAP1 DUP2 NOT AND OR PUSH0 SSTORE PUSH32 0x7F26B83FF96E1F2B6A682F133852F6798A09C465DA95921460CEFB3847402498 PUSH1 0x20 PUSH1 0x40 MLOAD PUSH1 0xFF DUP2 MSTORE LOG1 PUSH0 PUSH2 0x28 JUMP JUMPDEST PUSH3 0x461BCD PUSH1 0xE5 SHL DUP2 MSTORE PUSH1 0x20 PUSH1 0x4 DUP3 ADD MSTORE PUSH1 0x27 PUSH1 0x24 DUP3 ADD MSTORE PUSH32 0x496E697469616C697A61626C653A20636F6E747261637420697320696E697469 PUSH1 0x44 DUP3 ADD MSTORE PUSH7 0x616C697A696E67 PUSH1 0xC8 SHL PUSH1 0x64 DUP3 ADD MSTORE PUSH1 0x84 SWAP1 REVERT JUMPDEST PUSH0 DUP1 REVERT INVALID PUSH1 0x40 PUSH1 0x80 DUP2 MSTORE PUSH1 0x4 SWAP1 DUP2 CALLDATASIZE LT ISZERO PUSH2 0x14 JUMPI PUSH0 DUP1 REVERT JUMPDEST PUSH0 SWAP2 DUP3 CALLDATALOAD PUSH1 0xE0 SHR DUP1 PUSH4 0x5216F72 EQ PUSH2 0x89F JUMPI DUP1 PUSH4 0xC340A24 EQ PUSH2 0x876 JUMPI DUP1 PUSH4 0x2D88AF4A EQ PUSH2 0x820 JUMPI DUP4 DUP2 PUSH4 0x3659CFE6 EQ PUSH2 0x789 JUMPI POP DUP1 PUSH4 0x3F4BA83A EQ PUSH2 0x710 JUMPI DUP4 DUP2 PUSH4 0x4F1EF286 EQ PUSH2 0x626 JUMPI POP DUP1 PUSH4 0x5210570C EQ PUSH2 0x600 JUMPI DUP1 PUSH4 0x52D1902D EQ PUSH2 0x52C JUMPI DUP1 PUSH4 0x5C975ABB EQ PUSH2 0x505 JUMPI DUP1 PUSH4 0x64A731E9 EQ PUSH2 0x4CB JUMPI DUP1 PUSH4 0x68274357 EQ PUSH2 0x49F JUMPI DUP1 PUSH4 0x8456CB59 EQ PUSH2 0x3FE JUMPI DUP1 PUSH4 0x8B9789C9 EQ PUSH2 0x3E0 JUMPI DUP1 PUSH4 0x9FD0506D EQ PUSH2 0x3B3 JUMPI DUP1 PUSH4 0xBB4872DE EQ PUSH2 0x38F JUMPI DUP1 PUSH4 0xC0C53B8B EQ PUSH2 0x1C8 JUMPI DUP1 PUSH4 0xD6C9858B EQ PUSH2 0x19E JUMPI DUP1 PUSH4 0xE4C0AAF4 EQ PUSH2 0x151 JUMPI PUSH4 0xE6FD7096 EQ PUSH2 0xF3 JUMPI PUSH0 DUP1 REVERT JUMPDEST CALLVALUE PUSH2 0x14D JUMPI DUP2 PUSH1 0x3 NOT CALLDATASIZE ADD SLT PUSH2 0x14D JUMPI DUP1 CALLDATALOAD SWAP2 PUSH1 0x1 PUSH1 0x1 PUSH1 0xA0 SHL SUB DUP1 DUP5 AND DUP5 SUB PUSH2 0x149 JUMPI PUSH2 0x12F SLOAD AND CALLER SUB PUSH2 0x132 JUMPI DUP4 PUSH2 0x12F PUSH1 0x24 CALLDATALOAD DUP6 PUSH2 0xEC0 JUMP JUMPDEST DUP1 RETURN JUMPDEST PUSH1 0x24 SWAP3 POP MLOAD SWAP1 PUSH4 0x2976A2F PUSH1 0xE0 SHL DUP3 MSTORE CALLER SWAP1 DUP3 ADD MSTORE REVERT JUMPDEST DUP5 DUP1 REVERT JUMPDEST DUP3 DUP1 REVERT JUMPDEST DUP4 DUP3 CALLVALUE PUSH2 0x19A JUMPI PUSH1 0x20 CALLDATASIZE PUSH1 0x3 NOT ADD SLT PUSH2 0x19A JUMPI CALLDATALOAD PUSH1 0x1 PUSH1 0x1 PUSH1 0xA0 SHL SUB DUP2 AND SWAP1 DUP2 SWAP1 SUB PUSH2 0x19A JUMPI PUSH2 0x17F PUSH2 0xDC7 JUMP JUMPDEST PUSH12 0xFFFFFFFFFFFFFFFFFFFFFFFF PUSH1 0xA0 SHL PUSH1 0x97 SLOAD AND OR PUSH1 0x97 SSTORE DUP1 RETURN JUMPDEST POP DUP1 REVERT JUMPDEST POP POP CALLVALUE PUSH2 0x19A JUMPI DUP2 PUSH1 0x3 NOT CALLDATASIZE ADD SLT PUSH2 0x19A JUMPI PUSH2 0x12F SLOAD SWAP1 MLOAD PUSH1 0x1 PUSH1 0x1 PUSH1 0xA0 SHL SUB SWAP1 SWAP2 AND DUP2 MSTORE PUSH1 0x20 SWAP1 RETURN JUMPDEST POP CALLVALUE PUSH2 0x14D JUMPI PUSH1 0x60 CALLDATASIZE PUSH1 0x3 NOT ADD SLT PUSH2 0x14D JUMPI DUP1 CALLDATALOAD PUSH1 0x1 PUSH1 0x1 PUSH1 0xA0 SHL SUB DUP2 DUP2 AND SWAP3 SWAP2 DUP4 SWAP1 SUB PUSH2 0x149 JUMPI PUSH1 0x24 CALLDATALOAD SWAP3 DUP2 DUP5 AND DUP1 SWAP5 SUB PUSH2 0x38B JUMPI PUSH1 0x44 CALLDATALOAD SWAP2 DUP3 AND DUP3 SUB PUSH2 0x38B JUMPI DUP6 SLOAD PUSH1 0xFF DUP2 PUSH1 0x8 SHR AND ISZERO SWAP4 DUP5 DUP1 SWAP6 PUSH2 0x37E JUMPI JUMPDEST DUP1 ISZERO PUSH2 0x367 JUMPI JUMPDEST ISZERO PUSH2 0x30D JUMPI POP PUSH1 0x1 SWAP3 SWAP2 PUSH2 0x29A SWAP2 DUP6 DUP6 PUSH1 0xFF NOT DUP4 AND OR DUP11 SSTORE PUSH2 0x2FC JUMPI JUMPDEST POP PUSH12 0xFFFFFFFFFFFFFFFFFFFFFFFF PUSH1 0xA0 SHL SWAP1 PUSH2 0x12F SWAP1 DUP3 DUP3 SLOAD AND OR SWAP1 SSTORE DUP8 SLOAD SWAP6 PUSH1 0xFF DUP8 PUSH1 0x8 SHR AND SWAP2 PUSH2 0x272 DUP4 PUSH2 0xE60 JUMP JUMPDEST PUSH2 0x27B DUP4 PUSH2 0xE60 JUMP JUMPDEST PUSH2 0x284 DUP4 PUSH2 0xE60 JUMP JUMPDEST PUSH2 0x28D DUP4 PUSH2 0xE60 JUMP JUMPDEST PUSH1 0x97 SLOAD AND OR PUSH1 0x97 SSTORE PUSH2 0xE60 JUMP JUMPDEST PUSH1 0xCA SLOAD SWAP1 PUSH3 0x10000 DUP4 PUSH1 0xB0 SHL SUB SWAP1 PUSH1 0x10 SHL AND SWAP1 PUSH2 0xFF01 DUP4 PUSH1 0xB0 SHL SUB NOT AND OR OR PUSH1 0xCA SSTORE PUSH2 0x2C4 JUMPI DUP3 DUP1 RETURN JUMPDEST PUSH2 0xFF00 NOT AND DUP3 SSTORE MLOAD PUSH1 0x1 DUP2 MSTORE PUSH32 0x7F26B83FF96E1F2B6A682F133852F6798A09C465DA95921460CEFB3847402498 SWAP1 PUSH1 0x20 SWAP1 LOG1 PUSH0 DUP1 DUP3 DUP1 RETURN JUMPDEST PUSH2 0xFFFF NOT AND PUSH2 0x101 OR DUP9 SSTORE PUSH0 PUSH2 0x241 JUMP JUMPDEST PUSH1 0x84 SWAP1 PUSH1 0x20 DUP9 MLOAD SWAP2 PUSH3 0x461BCD PUSH1 0xE5 SHL DUP4 MSTORE DUP3 ADD MSTORE PUSH1 0x2E PUSH1 0x24 DUP3 ADD MSTORE PUSH32 0x496E697469616C697A61626C653A20636F6E747261637420697320616C726561 PUSH1 0x44 DUP3 ADD MSTORE PUSH14 0x191E481A5B9A5D1A585B1A5E9959 PUSH1 0x92 SHL PUSH1 0x64 DUP3 ADD MSTORE REVERT JUMPDEST POP ADDRESS EXTCODESIZE ISZERO DUP1 ISZERO PUSH2 0x224 JUMPI POP PUSH1 0x1 PUSH1 0xFF DUP4 AND EQ PUSH2 0x224 JUMP JUMPDEST POP PUSH1 0x1 PUSH1 0xFF DUP4 AND LT PUSH2 0x21D JUMP JUMPDEST DUP6 DUP1 REVERT JUMPDEST POP POP CALLVALUE PUSH2 0x19A JUMPI DUP2 PUSH1 0x3 NOT CALLDATASIZE ADD SLT PUSH2 0x19A JUMPI PUSH1 0x20 SWAP1 PUSH1 0xFF PUSH1 0xCA SLOAD AND SWAP1 MLOAD SWAP1 ISZERO ISZERO DUP2 MSTORE RETURN JUMPDEST POP POP CALLVALUE PUSH2 0x19A JUMPI DUP2 PUSH1 0x3 NOT CALLDATASIZE ADD SLT PUSH2 0x19A JUMPI PUSH1 0xCA SLOAD SWAP1 MLOAD PUSH1 0x10 SWAP2 SWAP1 SWAP2 SHR PUSH1 0x1 PUSH1 0x1 PUSH1 0xA0 SHL SUB AND DUP2 MSTORE PUSH1 0x20 SWAP1 RETURN JUMPDEST DUP4 DUP3 CALLVALUE PUSH2 0x19A JUMPI PUSH1 0x20 CALLDATASIZE PUSH1 0x3 NOT ADD SLT PUSH2 0x19A JUMPI PUSH2 0x12F SWAP1 CALLDATALOAD CALLER PUSH2 0xEC0 JUMP JUMPDEST POP CALLVALUE PUSH2 0x14D JUMPI DUP3 PUSH1 0x3 NOT CALLDATASIZE ADD SLT PUSH2 0x14D JUMPI PUSH1 0xCA SLOAD SWAP1 PUSH1 0xFF DUP3 PUSH1 0x8 SHR AND PUSH2 0x491 JUMPI PUSH1 0x10 DUP3 SWAP1 SHR PUSH1 0x1 PUSH1 0x1 PUSH1 0xA0 SHL SUB AND CALLER SUB PUSH2 0x483 JUMPI PUSH1 0xFF DUP3 AND ISZERO PUSH2 0x475 JUMPI POP PUSH2 0xFF00 NOT AND PUSH2 0x100 OR PUSH1 0xCA SSTORE MLOAD CALLER DUP2 MSTORE PUSH32 0x62E78CEA01BEE320CD4E420270B5EA74000D11B0C9F74754EBDBFC544B05A258 SWAP1 PUSH1 0x20 SWAP1 LOG1 DUP1 RETURN JUMPDEST DUP3 MLOAD PUSH4 0x866099C3 PUSH1 0xE0 SHL DUP2 MSTORE REVERT JUMPDEST DUP3 MLOAD PUSH4 0x1D77D477 PUSH1 0xE2 SHL DUP2 MSTORE REVERT JUMPDEST DUP3 MLOAD PUSH4 0x783BB6C9 PUSH1 0xE1 SHL DUP2 MSTORE REVERT JUMPDEST DUP4 CALLVALUE PUSH2 0x4C8 JUMPI DUP1 PUSH1 0x3 NOT CALLDATASIZE ADD SLT PUSH2 0x4C8 JUMPI PUSH2 0x4B8 PUSH2 0xDC7 JUMP JUMPDEST PUSH1 0x1 PUSH1 0xFF NOT PUSH1 0xCA SLOAD AND OR PUSH1 0xCA SSTORE DUP1 RETURN JUMPDEST DUP1 REVERT JUMPDEST POP CALLVALUE PUSH2 0x14D JUMPI PUSH1 0x20 CALLDATASIZE PUSH1 0x3 NOT ADD SLT PUSH2 0x14D JUMPI CALLDATALOAD PUSH1 0x1 PUSH1 0x1 PUSH1 0xA0 SHL SUB DUP2 AND SWAP1 DUP2 SWAP1 SUB PUSH2 0x14D JUMPI DUP3 DUP3 SWAP2 PUSH1 0x20 SWAP5 MSTORE PUSH2 0x130 DUP5 MSTORE KECCAK256 SLOAD SWAP1 MLOAD SWAP1 DUP2 MSTORE RETURN JUMPDEST POP POP CALLVALUE PUSH2 0x19A JUMPI DUP2 PUSH1 0x3 NOT CALLDATASIZE ADD SLT PUSH2 0x19A JUMPI PUSH1 0x20 SWAP1 PUSH1 0xFF PUSH1 0xCA SLOAD PUSH1 0x8 SHR AND SWAP1 MLOAD SWAP1 ISZERO ISZERO DUP2 MSTORE RETURN JUMPDEST POP DUP3 CALLVALUE PUSH2 0x4C8 JUMPI DUP1 PUSH1 0x3 NOT CALLDATASIZE ADD SLT PUSH2 0x4C8 JUMPI POP PUSH32 0x0 PUSH1 0x1 PUSH1 0x1 PUSH1 0xA0 SHL SUB AND ADDRESS SUB PUSH2 0x598 JUMPI PUSH1 0x20 DUP3 MLOAD PUSH32 0x360894A13BA1A3210667C828492DB98DCA3E2076CC3735A920A3CA505D382BBC DUP2 MSTORE RETURN JUMPDEST PUSH1 0x20 PUSH1 0x84 SWAP3 MLOAD SWAP2 PUSH3 0x461BCD PUSH1 0xE5 SHL DUP4 MSTORE DUP3 ADD MSTORE PUSH1 0x38 PUSH1 0x24 DUP3 ADD MSTORE PUSH32 0x555550535570677261646561626C653A206D757374206E6F742062652063616C PUSH1 0x44 DUP3 ADD MSTORE PUSH32 0x6C6564207468726F7567682064656C656761746563616C6C0000000000000000 PUSH1 0x64 DUP3 ADD MSTORE REVERT JUMPDEST DUP4 CALLVALUE PUSH2 0x4C8 JUMPI DUP1 PUSH1 0x3 NOT CALLDATASIZE ADD SLT PUSH2 0x4C8 JUMPI PUSH2 0x619 PUSH2 0xDC7 JUMP JUMPDEST PUSH1 0xFF NOT PUSH1 0xCA SLOAD AND PUSH1 0xCA SSTORE DUP1 RETURN JUMPDEST SWAP3 DUP1 SWAP2 POP PUSH1 0x3 NOT CALLDATASIZE ADD SLT PUSH2 0x70C JUMPI DUP2 CALLDATALOAD PUSH1 0x1 PUSH1 0x1 PUSH1 0xA0 SHL SUB DUP1 DUP3 AND DUP3 SUB PUSH2 0x149 JUMPI PUSH1 0x24 CALLDATALOAD SWAP4 PUSH8 0xFFFFFFFFFFFFFFFF DUP6 GT PUSH2 0x38B JUMPI CALLDATASIZE PUSH1 0x23 DUP7 ADD SLT ISZERO PUSH2 0x38B JUMPI DUP5 ADD CALLDATALOAD SWAP1 PUSH2 0x67E PUSH2 0x675 DUP4 PUSH2 0x91A JUMP JUMPDEST SWAP5 MLOAD SWAP5 DUP6 PUSH2 0x8E4 JUMP JUMPDEST DUP2 DUP5 MSTORE CALLDATASIZE PUSH1 0x24 DUP4 DUP8 ADD ADD GT PUSH2 0x38B JUMPI PUSH2 0x12F SWAP6 PUSH1 0x20 DUP4 PUSH2 0x6FF SWAP5 PUSH1 0x24 PUSH1 0x1 SWAP10 ADD DUP4 DUP10 ADD CALLDATACOPY DUP7 ADD ADD MSTORE DUP1 PUSH32 0x0 AND SWAP1 PUSH2 0x6D6 DUP3 ADDRESS EQ ISZERO PUSH2 0x936 JUMP JUMPDEST PUSH32 0x360894A13BA1A3210667C828492DB98DCA3E2076CC3735A920A3CA505D382BBC SLOAD AND EQ PUSH2 0x997 JUMP JUMPDEST PUSH2 0x707 PUSH2 0xDC7 JUMP JUMPDEST PUSH2 0x9F8 JUMP JUMPDEST POP POP REVERT JUMPDEST POP CALLVALUE PUSH2 0x14D JUMPI DUP3 PUSH1 0x3 NOT CALLDATASIZE ADD SLT PUSH2 0x14D JUMPI PUSH1 0xCA SLOAD SWAP1 PUSH1 0xFF DUP3 PUSH1 0x8 SHR AND ISZERO PUSH2 0x77B JUMPI PUSH1 0x10 DUP3 SWAP1 SHR PUSH1 0x1 PUSH1 0x1 PUSH1 0xA0 SHL SUB AND CALLER SUB PUSH2 0x483 JUMPI POP PUSH2 0xFF00 NOT AND PUSH1 0xCA SSTORE MLOAD CALLER DUP2 MSTORE PUSH32 0x5DB9EE0A495BF2E6FF9C91A7834C1BA4FDD244A5E8AA4E537BD38AEAE4B073AA SWAP1 PUSH1 0x20 SWAP1 LOG1 DUP1 RETURN JUMPDEST DUP3 MLOAD PUSH4 0x7C7FD079 PUSH1 0xE0 SHL DUP2 MSTORE REVERT JUMPDEST SWAP2 SWAP1 POP CALLVALUE PUSH2 0x19A JUMPI PUSH1 0x20 CALLDATASIZE PUSH1 0x3 NOT ADD SLT PUSH2 0x19A JUMPI PUSH1 0x1 PUSH1 0x1 PUSH1 0xA0 SHL SUB SWAP3 SWAP1 CALLDATALOAD DUP4 DUP2 AND DUP2 SUB PUSH2 0x14D JUMPI PUSH2 0x7E8 DUP5 PUSH2 0x12F SWAP6 PUSH32 0x0 AND SWAP1 PUSH2 0x6D6 DUP3 ADDRESS EQ ISZERO PUSH2 0x936 JUMP JUMPDEST PUSH2 0x7F0 PUSH2 0xDC7 JUMP JUMPDEST PUSH2 0x805 PUSH2 0x7FC DUP5 PUSH2 0x91A JUMP JUMPDEST SWAP3 MLOAD SWAP3 DUP4 PUSH2 0x8E4 JUMP JUMPDEST DUP3 DUP3 MSTORE PUSH1 0x1F NOT PUSH2 0x814 DUP5 PUSH2 0x91A JUMP JUMPDEST ADD CALLDATASIZE PUSH1 0x20 DUP5 ADD CALLDATACOPY PUSH2 0x9F8 JUMP JUMPDEST DUP4 DUP3 CALLVALUE PUSH2 0x19A JUMPI PUSH1 0x20 CALLDATASIZE PUSH1 0x3 NOT ADD SLT PUSH2 0x19A JUMPI CALLDATALOAD PUSH1 0x1 PUSH1 0x1 PUSH1 0xA0 SHL SUB DUP2 AND DUP2 SUB PUSH2 0x19A JUMPI PUSH2 0x84C PUSH2 0xDC7 JUMP JUMPDEST PUSH1 0xCA DUP1 SLOAD PUSH3 0x10000 PUSH1 0x1 PUSH1 0xB0 SHL SUB NOT AND PUSH1 0x10 SWAP3 SWAP1 SWAP3 SHL PUSH3 0x10000 PUSH1 0x1 PUSH1 0xB0 SHL SUB AND SWAP2 SWAP1 SWAP2 OR SWAP1 SSTORE DUP1 RETURN JUMPDEST POP POP CALLVALUE PUSH2 0x19A JUMPI DUP2 PUSH1 0x3 NOT CALLDATASIZE ADD SLT PUSH2 0x19A JUMPI PUSH1 0x97 SLOAD SWAP1 MLOAD PUSH1 0x1 PUSH1 0x1 PUSH1 0xA0 SHL SUB SWAP1 SWAP2 AND DUP2 MSTORE PUSH1 0x20 SWAP1 RETURN JUMPDEST DUP4 DUP3 CALLVALUE PUSH2 0x19A JUMPI PUSH1 0x20 CALLDATASIZE PUSH1 0x3 NOT ADD SLT PUSH2 0x19A JUMPI CALLDATALOAD PUSH1 0x1 PUSH1 0x1 PUSH1 0xA0 SHL SUB DUP2 AND SWAP1 DUP2 SWAP1 SUB PUSH2 0x19A JUMPI PUSH2 0x8CD PUSH2 0xDC7 JUMP JUMPDEST PUSH2 0x12F DUP1 SLOAD PUSH1 0x1 PUSH1 0x1 PUSH1 0xA0 SHL SUB NOT AND SWAP1 SWAP2 OR SWAP1 SSTORE DUP1 RETURN JUMPDEST SWAP1 PUSH1 0x1F DUP1 NOT SWAP2 ADD AND DUP2 ADD SWAP1 DUP2 LT PUSH8 0xFFFFFFFFFFFFFFFF DUP3 GT OR PUSH2 0x906 JUMPI PUSH1 0x40 MSTORE JUMP JUMPDEST PUSH4 0x4E487B71 PUSH1 0xE0 SHL PUSH0 MSTORE PUSH1 0x41 PUSH1 0x4 MSTORE PUSH1 0x24 PUSH0 REVERT JUMPDEST PUSH8 0xFFFFFFFFFFFFFFFF DUP2 GT PUSH2 0x906 JUMPI PUSH1 0x1F ADD PUSH1 0x1F NOT AND PUSH1 0x20 ADD SWAP1 JUMP JUMPDEST ISZERO PUSH2 0x93D JUMPI JUMP JUMPDEST PUSH1 0x40 MLOAD PUSH3 0x461BCD PUSH1 0xE5 SHL DUP2 MSTORE PUSH1 0x20 PUSH1 0x4 DUP3 ADD MSTORE PUSH1 0x2C PUSH1 0x24 DUP3 ADD MSTORE PUSH32 0x46756E6374696F6E206D7573742062652063616C6C6564207468726F75676820 PUSH1 0x44 DUP3 ADD MSTORE PUSH12 0x19195B1959D85D1958D85B1B PUSH1 0xA2 SHL PUSH1 0x64 DUP3 ADD MSTORE PUSH1 0x84 SWAP1 REVERT JUMPDEST ISZERO PUSH2 0x99E JUMPI JUMP JUMPDEST PUSH1 0x40 MLOAD PUSH3 0x461BCD PUSH1 0xE5 SHL DUP2 MSTORE PUSH1 0x20 PUSH1 0x4 DUP3 ADD MSTORE PUSH1 0x2C PUSH1 0x24 DUP3 ADD MSTORE PUSH32 0x46756E6374696F6E206D7573742062652063616C6C6564207468726F75676820 PUSH1 0x44 DUP3 ADD MSTORE PUSH12 0x6163746976652070726F7879 PUSH1 0xA0 SHL PUSH1 0x64 DUP3 ADD MSTORE PUSH1 0x84 SWAP1 REVERT JUMPDEST SWAP1 SWAP2 PUSH1 0xFF PUSH32 0x4910FDFA16FED3260ED0E7147F7CC6DA11A60208B5B9406D12A635614FFD9143 SLOAD AND PUSH0 EQ PUSH2 0xA32 JUMPI POP PUSH2 0xA30 SWAP2 POP PUSH2 0xC53 JUMP JUMPDEST JUMP JUMPDEST PUSH1 0x40 DUP1 MLOAD PUSH4 0x52D1902D PUSH1 0xE0 SHL DUP2 MSTORE PUSH1 0x20 SWAP5 SWAP2 SWAP4 SWAP3 SWAP1 PUSH1 0x1 PUSH1 0x1 PUSH1 0xA0 SHL SUB DUP5 AND SWAP1 DUP7 DUP2 PUSH1 0x4 DUP2 DUP6 GAS STATICCALL PUSH0 SWAP2 DUP2 PUSH2 0xC24 JUMPI JUMPDEST POP PUSH2 0xAC2 JUMPI DUP6 MLOAD PUSH3 0x461BCD PUSH1 0xE5 SHL DUP2 MSTORE PUSH1 0x4 DUP2 ADD DUP9 SWAP1 MSTORE PUSH1 0x2E PUSH1 0x24 DUP3 ADD MSTORE PUSH32 0x45524331393637557067726164653A206E657720696D706C656D656E74617469 PUSH1 0x44 DUP3 ADD MSTORE PUSH14 0x6F6E206973206E6F742055555053 PUSH1 0x90 SHL PUSH1 0x64 DUP3 ADD MSTORE PUSH1 0x84 SWAP1 REVERT JUMPDEST SWAP4 SWAP6 SWAP3 SWAP5 SWAP3 SWAP4 PUSH32 0xC9F76B5EC45E5CDEF99837D7B6D2467235C1DF8933C8CA56DF5C35AFA2C7D444 ADD PUSH2 0xBCE JUMPI PUSH2 0xAF7 DUP7 PUSH2 0xC53 JUMP JUMPDEST PUSH32 0xBC7CD75A20EE27FD9ADEBAB32041F755214DBC6BFFA90CC0225B39DA2E5C2D3B PUSH0 DUP1 LOG2 DUP4 MLOAD ISZERO SWAP1 DUP2 ISZERO SWAP2 PUSH2 0xBC6 JUMPI JUMPDEST POP PUSH2 0xB33 JUMPI JUMPDEST POP POP POP POP JUMP JUMPDEST PUSH2 0xBB2 SWAP4 PUSH0 DUP1 PUSH2 0xB43 PUSH1 0x27 PUSH2 0x91A JUMP JUMPDEST SWAP6 PUSH2 0xB50 DUP6 MLOAD SWAP8 DUP9 PUSH2 0x8E4 JUMP JUMPDEST PUSH1 0x27 DUP8 MSTORE PUSH32 0x416464726573733A206C6F772D6C6576656C2064656C65676174652063616C6C DUP7 DUP9 ADD MSTORE PUSH7 0x819985A5B1959 PUSH1 0xCA SHL DUP6 DUP9 ADD MSTORE DUP6 DUP2 MLOAD SWAP2 ADD DUP5 GAS DELEGATECALL SWAP2 RETURNDATASIZE ISZERO PUSH2 0xBBC JUMPI RETURNDATASIZE PUSH2 0xBA4 PUSH2 0x7FC DUP3 PUSH2 0x91A JUMP JUMPDEST DUP2 MSTORE PUSH0 DUP2 SWAP5 RETURNDATASIZE SWAP3 ADD RETURNDATACOPY PUSH2 0xCF5 JUMP JUMPDEST POP PUSH0 DUP1 DUP1 DUP1 PUSH2 0xB2D JUMP JUMPDEST POP PUSH1 0x60 SWAP3 POP PUSH2 0xCF5 JUMP JUMPDEST SWAP1 POP PUSH0 PUSH2 0xB27 JUMP JUMPDEST DUP3 MLOAD PUSH3 0x461BCD PUSH1 0xE5 SHL DUP2 MSTORE PUSH1 0x4 DUP2 ADD DUP6 SWAP1 MSTORE PUSH1 0x29 PUSH1 0x24 DUP3 ADD MSTORE PUSH32 0x45524331393637557067726164653A20756E737570706F727465642070726F78 PUSH1 0x44 DUP3 ADD MSTORE PUSH9 0x1A58589B1955555251 PUSH1 0xBA SHL PUSH1 0x64 DUP3 ADD MSTORE PUSH1 0x84 SWAP1 REVERT JUMPDEST SWAP1 SWAP2 DUP9 DUP3 DUP2 RETURNDATASIZE DUP4 GT PUSH2 0xC4C JUMPI JUMPDEST PUSH2 0xC3B DUP2 DUP4 PUSH2 0x8E4 JUMP JUMPDEST DUP2 ADD SUB SLT PUSH2 0x4C8 JUMPI POP MLOAD SWAP1 PUSH0 PUSH2 0xA62 JUMP JUMPDEST POP RETURNDATASIZE PUSH2 0xC31 JUMP JUMPDEST DUP1 EXTCODESIZE ISZERO PUSH2 0xC9A JUMPI PUSH32 0x360894A13BA1A3210667C828492DB98DCA3E2076CC3735A920A3CA505D382BBC DUP1 SLOAD PUSH1 0x1 PUSH1 0x1 PUSH1 0xA0 SHL SUB NOT AND PUSH1 0x1 PUSH1 0x1 PUSH1 0xA0 SHL SUB SWAP1 SWAP3 AND SWAP2 SWAP1 SWAP2 OR SWAP1 SSTORE JUMP JUMPDEST PUSH1 0x40 MLOAD PUSH3 0x461BCD PUSH1 0xE5 SHL DUP2 MSTORE PUSH1 0x20 PUSH1 0x4 DUP3 ADD MSTORE PUSH1 0x2D PUSH1 0x24 DUP3 ADD MSTORE PUSH32 0x455243313936373A206E657720696D706C656D656E746174696F6E206973206E PUSH1 0x44 DUP3 ADD MSTORE PUSH13 0x1BDD08184818DBDB9D1C9858DD PUSH1 0x9A SHL PUSH1 0x64 DUP3 ADD MSTORE PUSH1 0x84 SWAP1 REVERT JUMPDEST SWAP2 SWAP3 SWAP1 ISZERO PUSH2 0xD57 JUMPI POP DUP2 MLOAD ISZERO PUSH2 0xD09 JUMPI POP SWAP1 JUMP JUMPDEST EXTCODESIZE ISZERO PUSH2 0xD12 JUMPI SWAP1 JUMP JUMPDEST PUSH1 0x40 MLOAD PUSH3 0x461BCD PUSH1 0xE5 SHL DUP2 MSTORE PUSH1 0x20 PUSH1 0x4 DUP3 ADD MSTORE PUSH1 0x1D PUSH1 0x24 DUP3 ADD MSTORE PUSH32 0x416464726573733A2063616C6C20746F206E6F6E2D636F6E7472616374000000 PUSH1 0x44 DUP3 ADD MSTORE PUSH1 0x64 SWAP1 REVERT JUMPDEST DUP3 MLOAD SWAP1 SWAP2 POP ISZERO PUSH2 0xD6A JUMPI POP DUP1 MLOAD SWAP1 PUSH1 0x20 ADD REVERT JUMPDEST PUSH1 0x40 MLOAD SWAP1 PUSH3 0x461BCD PUSH1 0xE5 SHL DUP3 MSTORE DUP2 PUSH1 0x20 DUP1 PUSH1 0x4 DUP4 ADD MSTORE DUP3 MLOAD SWAP1 DUP2 PUSH1 0x24 DUP5 ADD MSTORE PUSH0 SWAP4 JUMPDEST DUP3 DUP6 LT PUSH2 0xDAE JUMPI POP POP PUSH1 0x44 SWAP3 POP PUSH0 DUP4 DUP3 DUP5 ADD ADD MSTORE PUSH1 0x1F DUP1 NOT SWAP2 ADD AND DUP2 ADD SUB ADD SWAP1 REVERT JUMPDEST DUP5 DUP2 ADD DUP3 ADD MLOAD DUP7 DUP7 ADD PUSH1 0x44 ADD MSTORE SWAP4 DUP2 ADD SWAP4 DUP6 SWAP4 POP PUSH2 0xD8C JUMP JUMPDEST PUSH1 0x97 SLOAD PUSH1 0x40 MLOAD PUSH4 0xD994D6D5 PUSH1 0xE0 SHL DUP2 MSTORE CALLER PUSH1 0x4 DUP3 ADD MSTORE SWAP1 PUSH1 0x20 SWAP1 DUP3 SWAP1 PUSH1 0x24 SWAP1 DUP3 SWAP1 PUSH1 0x1 PUSH1 0x1 PUSH1 0xA0 SHL SUB AND GAS STATICCALL SWAP1 DUP2 ISZERO PUSH2 0xE55 JUMPI PUSH0 SWAP2 PUSH2 0xE1B JUMPI JUMPDEST POP ISZERO PUSH2 0xE09 JUMPI JUMP JUMPDEST PUSH1 0x40 MLOAD PUSH4 0x1DD1B1B5 PUSH1 0xE2 SHL DUP2 MSTORE PUSH1 0x4 SWAP1 REVERT JUMPDEST PUSH1 0x20 DUP2 RETURNDATASIZE DUP3 GT PUSH2 0xE4D JUMPI JUMPDEST DUP2 PUSH2 0xE33 PUSH1 0x20 SWAP4 DUP4 PUSH2 0x8E4 JUMP JUMPDEST DUP2 ADD SUB SLT PUSH2 0x19A JUMPI MLOAD SWAP1 DUP2 ISZERO ISZERO DUP3 SUB PUSH2 0x4C8 JUMPI POP PUSH0 PUSH2 0xE01 JUMP JUMPDEST RETURNDATASIZE SWAP2 POP PUSH2 0xE26 JUMP JUMPDEST PUSH1 0x40 MLOAD RETURNDATASIZE PUSH0 DUP3 RETURNDATACOPY RETURNDATASIZE SWAP1 REVERT JUMPDEST ISZERO PUSH2 0xE67 JUMPI JUMP JUMPDEST PUSH1 0x40 MLOAD PUSH3 0x461BCD PUSH1 0xE5 SHL DUP2 MSTORE PUSH1 0x20 PUSH1 0x4 DUP3 ADD MSTORE PUSH1 0x2B PUSH1 0x24 DUP3 ADD MSTORE PUSH32 0x496E697469616C697A61626C653A20636F6E7472616374206973206E6F742069 PUSH1 0x44 DUP3 ADD MSTORE PUSH11 0x6E697469616C697A696E67 PUSH1 0xA8 SHL PUSH1 0x64 DUP3 ADD MSTORE PUSH1 0x84 SWAP1 REVERT JUMPDEST PUSH1 0x20 PUSH32 0xEDB810B4A4BA5AB81B2765B443D63011146E0D69F7604EA7205676BAE0995B3 SWAP2 PUSH1 0x1 DUP1 PUSH1 0xA0 SHL SUB AND SWAP3 DUP4 PUSH0 MSTORE PUSH2 0x130 DUP3 MSTORE DUP1 PUSH1 0x40 PUSH0 KECCAK256 SSTORE PUSH1 0x40 MLOAD SWAP1 DUP2 MSTORE LOG2 JUMP INVALID LOG2 PUSH5 0x6970667358 0x22 SLT KECCAK256 0xF 0xC 0xED 0xF7 MSTORE PUSH24 0xADEB769F30D608D4CC7C820C5458DB7D0BF7C22AF2235370 SWAP1 CALLER PUSH5 0x736F6C6343 STOP ADDMOD EQ STOP CALLER "
    },
    "gasEstimates": {
      "creation": {
        "codeDepositCost": "4873200",
        "executionCost": "infinite",
        "totalCost": "infinite"
      },
      "external": {
        "addPeggedToken((address,address,uint256,uint256,uint256,uint256,uint256),uint96)": "infinite",
        "echidna_balance_not_drained()": "infinite",
        "echidna_storage_consistency()": "infinite",
        "execSettlement()": "infinite",
        "mintTC(uint256,uint256)": "infinite",
        "mintTCandTP(uint256,uint256)": "infinite",
        "mintTP(uint256,uint256,uint256)": "infinite",
        "operTCWithoutBalance(uint256)": "infinite",
        "pokePrice(uint256,uint96)": "infinite",
        "redeemTC(uint256)": "infinite",
        "redeemTCandTP(uint256,uint256,uint256)": "infinite",
        "redeemTP(uint256,uint256)": "infinite"
      },
      "internal": {
        "_deployProxy(address)": "infinite",
        "_getTCData()": "infinite",
        "_getTPData(address)": "infinite"
      }
    },
    "methodIdentifiers": {
      "addPeggedToken((address,address,uint256,uint256,uint256,uint256,uint256),uint96)": "24035d38",
      "echidna_balance_not_drained()": "7e6a2abe",
      "echidna_storage_consistency()": "9423af0b",
      "execSettlement()": "5c616a73",
      "mintTC(uint256,uint256)": "0bb7f608",
      "mintTCandTP(uint256,uint256)": "ac4fc1a8",
      "mintTP(uint256,uint256,uint256)": "181770da",
      "operTCWithoutBalance(uint256)": "98cdb3fc",
      "pokePrice(uint256,uint96)": "3295b14f",
      "redeemTC(uint256)": "f4076005",
      "redeemTCandTP(uint256,uint256,uint256)": "4530bbb0",
      "redeemTP(uint256,uint256)": "85ec8678"
    }
  },
  "storageLayout": {
    "storage": [
      {
        "astId": 21398,
        "contract": "contracts/echidna/EchidnaMocCoreTester.sol:EchidnaMocCoreTester",
        "label": "mocCARC20",
        "offset": 0,
        "slot": "0",
        "type": "t_contract(MocCARC20)12199"
      },
      {
        "astId": 21401,
        "contract": "contracts/echidna/EchidnaMocCoreTester.sol:EchidnaMocCoreTester",
        "label": "governor",
        "offset": 0,
        "slot": "1",
        "type": "t_contract(GovernorMock)26531"
      },
      {
        "astId": 21404,
        "contract": "contracts/echidna/EchidnaMocCoreTester.sol:EchidnaMocCoreTester",
        "label": "feeToken",
        "offset": 0,
        "slot": "2",
        "type": "t_contract(ERC20Mock)25705"
      },
      {
        "astId": 21407,
        "contract": "contracts/echidna/EchidnaMocCoreTester.sol:EchidnaMocCoreTester",
        "label": "feeTokenPriceProvider",
        "offset": 0,
        "slot": "3",
        "type": "t_contract(IPriceProvider)25509"
      },
      {
        "astId": 21410,
        "contract": "contracts/echidna/EchidnaMocCoreTester.sol:EchidnaMocCoreTester",
        "label": "fluxCapacitorProvider",
        "offset": 0,
        "slot": "4",
        "type": "t_contract(IDataProvider)25425"
      },
      {
        "astId": 21413,
        "contract": "contracts/echidna/EchidnaMocCoreTester.sol:EchidnaMocCoreTester",
        "label": "tcToken",
        "offset": 0,
        "slot": "5",
        "type": "t_contract(MocTC)30142"
      },
      {
        "astId": 21416,
        "contract": "contracts/echidna/EchidnaMocCoreTester.sol:EchidnaMocCoreTester",
        "label": "acToken",
        "offset": 0,
        "slot": "6",
        "type": "t_contract(ERC20Mock)25705"
      },
      {
        "astId": 21419,
        "contract": "contracts/echidna/EchidnaMocCoreTester.sol:EchidnaMocCoreTester",
        "label": "mocVendors",
        "offset": 0,
        "slot": "7",
        "type": "t_contract(MocVendors)30538"
      },
      {
        "astId": 21421,
        "contract": "contracts/echidna/EchidnaMocCoreTester.sol:EchidnaMocCoreTester",
        "label": "mocCoreExpansion",
        "offset": 0,
        "slot": "8",
        "type": "t_address"
      },
      {
        "astId": 21423,
        "contract": "contracts/echidna/EchidnaMocCoreTester.sol:EchidnaMocCoreTester",
        "label": "mocFeeFlow",
        "offset": 0,
        "slot": "9",
        "type": "t_address"
      },
      {
        "astId": 21425,
        "contract": "contracts/echidna/EchidnaMocCoreTester.sol:EchidnaMocCoreTester",
        "label": "mocAppreciationBeneficiary",
        "offset": 0,
        "slot": "10",
        "type": "t_address"
      },
      {
        "astId": 21427,
        "contract": "contracts/echidna/EchidnaMocCoreTester.sol:EchidnaMocCoreTester",
        "label": "totalPeggedTokensAdded",
        "offset": 0,
        "slot": "11",
        "type": "t_uint256"
      },
      {
        "astId": 21429,
        "contract": "contracts/echidna/EchidnaMocCoreTester.sol:EchidnaMocCoreTester",
        "label": "totalReverted",
        "offset": 0,
        "slot": "12",
        "type": "t_uint256"
      }
    ],
    "types": {
      "t_address": {
        "encoding": "inplace",
        "label": "address",
        "numberOfBytes": "20"
      },
      "t_contract(ERC20Mock)25705": {
        "encoding": "inplace",
        "label": "contract ERC20Mock",
        "numberOfBytes": "20"
      },
      "t_contract(GovernorMock)26531": {
        "encoding": "inplace",
        "label": "contract GovernorMock",
        "numberOfBytes": "20"
      },
      "t_contract(IDataProvider)25425": {
        "encoding": "inplace",
        "label": "contract IDataProvider",
        "numberOfBytes": "20"
      },
      "t_contract(IPriceProvider)25509": {
        "encoding": "inplace",
        "label": "contract IPriceProvider",
        "numberOfBytes": "20"
      },
      "t_contract(MocCARC20)12199": {
        "encoding": "inplace",
        "label": "contract MocCARC20",
        "numberOfBytes": "20"
      },
      "t_contract(MocTC)30142": {
        "encoding": "inplace",
        "label": "contract MocTC",
        "numberOfBytes": "20"
      },
      "t_contract(MocVendors)30538": {
        "encoding": "inplace",
        "label": "contract MocVendors",
        "numberOfBytes": "20"
      },
      "t_uint256": {
        "encoding": "inplace",
        "label": "uint256",
        "numberOfBytes": "32"
      }
    }
  },
  "userdoc": {
    "kind": "user",
    "methods": {},
    "version": 1
  }
}