{
  "contractName": "MocCARC20Mock",
  "sourceName": "contracts/mocks/upgradeability/MocUpgradeMocks.sol",
  "abi": [
    {
      "inputs": [
        {
          "internalType": "uint256",
          "name": "qACsent_",
          "type": "uint256"
        },
        {
          "internalType": "uint256",
          "name": "qACNeeded_",
          "type": "uint256"
        }
      ],
      "name": "InsufficientQacSent",
      "type": "error"
    },
    {
      "inputs": [
        {
          "internalType": "uint256",
          "name": "qTPsent_",
          "type": "uint256"
        },
        {
          "internalType": "uint256",
          "name": "qTPNeeded_",
          "type": "uint256"
        }
      ],
      "name": "InsufficientQtpSent",
      "type": "error"
    },
    {
      "inputs": [
        {
          "internalType": "uint256",
          "name": "qTC_",
          "type": "uint256"
        },
        {
          "internalType": "uint256",
          "name": "tcAvailableToRedeem_",
          "type": "uint256"
        }
      ],
      "name": "InsufficientTCtoRedeem",
      "type": "error"
    },
    {
      "inputs": [
        {
          "internalType": "uint256",
          "name": "qTP_",
          "type": "uint256"
        },
        {
          "internalType": "uint256",
          "name": "tpAvailableToMint_",
          "type": "uint256"
        }
      ],
      "name": "InsufficientTPtoMint",
      "type": "error"
    },
    {
      "inputs": [
        {
          "internalType": "uint256",
          "name": "qTP_",
          "type": "uint256"
        },
        {
          "internalType": "uint256",
          "name": "tpAvailableToRedeem_",
          "type": "uint256"
        }
      ],
      "name": "InsufficientTPtoRedeem",
      "type": "error"
    },
    {
      "inputs": [],
      "name": "InvalidAddress",
      "type": "error"
    },
    {
      "inputs": [],
      "name": "InvalidFluxCapacitorOperation",
      "type": "error"
    },
    {
      "inputs": [],
      "name": "InvalidValue",
      "type": "error"
    },
    {
      "inputs": [],
      "name": "Liquidated",
      "type": "error"
    },
    {
      "inputs": [
        {
          "internalType": "uint256",
          "name": "cglb_",
          "type": "uint256"
        },
        {
          "internalType": "uint256",
          "name": "covThrld_",
          "type": "uint256"
        }
      ],
      "name": "LowCoverage",
      "type": "error"
    },
    {
      "inputs": [
        {
          "internalType": "uint256",
          "name": "max_",
          "type": "uint256"
        },
        {
          "internalType": "uint256",
          "name": "new_",
          "type": "uint256"
        }
      ],
      "name": "MaxFluxCapacitorOperationReached",
      "type": "error"
    },
    {
      "inputs": [],
      "name": "MissingBlocksToSettlement",
      "type": "error"
    },
    {
      "inputs": [],
      "name": "MissingBlocksToTCInterestPayment",
      "type": "error"
    },
    {
      "inputs": [
        {
          "internalType": "address",
          "name": "dataProviderAddress_",
          "type": "address"
        }
      ],
      "name": "MissingProviderData",
      "type": "error"
    },
    {
      "inputs": [
        {
          "internalType": "address",
          "name": "priceProviderAddress_",
          "type": "address"
        }
      ],
      "name": "MissingProviderPrice",
      "type": "error"
    },
    {
      "inputs": [],
      "name": "NotAuthorizedChanger",
      "type": "error"
    },
    {
      "inputs": [],
      "name": "NotWhenPaused",
      "type": "error"
    },
    {
      "inputs": [],
      "name": "OnlyPauser",
      "type": "error"
    },
    {
      "inputs": [],
      "name": "OnlyQueue",
      "type": "error"
    },
    {
      "inputs": [],
      "name": "OnlyWhenLiquidated",
      "type": "error"
    },
    {
      "inputs": [],
      "name": "OnlyWhilePaused",
      "type": "error"
    },
    {
      "inputs": [],
      "name": "PeggedTokenAlreadyAdded",
      "type": "error"
    },
    {
      "inputs": [
        {
          "internalType": "uint256",
          "name": "qACmin_",
          "type": "uint256"
        },
        {
          "internalType": "uint256",
          "name": "qACtoRedeem_",
          "type": "uint256"
        }
      ],
      "name": "QacBelowMinimumRequired",
      "type": "error"
    },
    {
      "inputs": [],
      "name": "QacNeededMustBeGreaterThanZero",
      "type": "error"
    },
    {
      "inputs": [
        {
          "internalType": "uint256",
          "name": "qTCmin_",
          "type": "uint256"
        },
        {
          "internalType": "uint256",
          "name": "qTC_",
          "type": "uint256"
        }
      ],
      "name": "QtcBelowMinimumRequired",
      "type": "error"
    },
    {
      "inputs": [
        {
          "internalType": "uint256",
          "name": "qTPmin_",
          "type": "uint256"
        },
        {
          "internalType": "uint256",
          "name": "qTP_",
          "type": "uint256"
        }
      ],
      "name": "QtpBelowMinimumRequired",
      "type": "error"
    },
    {
      "inputs": [],
      "name": "TransferFailed",
      "type": "error"
    },
    {
      "inputs": [],
      "name": "Unstoppable",
      "type": "error"
    },
    {
      "anonymous": false,
      "inputs": [
        {
          "indexed": false,
          "internalType": "address",
          "name": "previousAdmin",
          "type": "address"
        },
        {
          "indexed": false,
          "internalType": "address",
          "name": "newAdmin",
          "type": "address"
        }
      ],
      "name": "AdminChanged",
      "type": "event"
    },
    {
      "anonymous": false,
      "inputs": [
        {
          "indexed": true,
          "internalType": "address",
          "name": "beacon",
          "type": "address"
        }
      ],
      "name": "BeaconUpgraded",
      "type": "event"
    },
    {
      "anonymous": false,
      "inputs": [],
      "name": "ContractLiquidated",
      "type": "event"
    },
    {
      "anonymous": false,
      "inputs": [
        {
          "indexed": false,
          "internalType": "uint8",
          "name": "version",
          "type": "uint8"
        }
      ],
      "name": "Initialized",
      "type": "event"
    },
    {
      "anonymous": false,
      "inputs": [
        {
          "indexed": true,
          "internalType": "address",
          "name": "tp_",
          "type": "address"
        },
        {
          "indexed": true,
          "internalType": "address",
          "name": "sender_",
          "type": "address"
        },
        {
          "indexed": true,
          "internalType": "address",
          "name": "recipient_",
          "type": "address"
        },
        {
          "indexed": false,
          "internalType": "uint256",
          "name": "qTP_",
          "type": "uint256"
        },
        {
          "indexed": false,
          "internalType": "uint256",
          "name": "qAC_",
          "type": "uint256"
        }
      ],
      "name": "LiqTPRedeemed",
      "type": "event"
    },
    {
      "anonymous": false,
      "inputs": [
        {
          "indexed": false,
          "internalType": "address",
          "name": "account",
          "type": "address"
        }
      ],
      "name": "Paused",
      "type": "event"
    },
    {
      "anonymous": false,
      "inputs": [
        {
          "indexed": false,
          "internalType": "uint256",
          "name": "i_",
          "type": "uint256"
        },
        {
          "components": [
            {
              "internalType": "address",
              "name": "tpTokenAddress",
              "type": "address"
            },
            {
              "internalType": "address",
              "name": "priceProviderAddress",
              "type": "address"
            },
            {
              "internalType": "uint256",
              "name": "tpCtarg",
              "type": "uint256"
            },
            {
              "internalType": "uint256",
              "name": "tpMintFee",
              "type": "uint256"
            },
            {
              "internalType": "uint256",
              "name": "tpRedeemFee",
              "type": "uint256"
            },
            {
              "internalType": "uint256",
              "name": "tpEma",
              "type": "uint256"
            },
            {
              "internalType": "uint256",
              "name": "tpEmaSf",
              "type": "uint256"
            }
          ],
          "indexed": false,
          "internalType": "struct PeggedTokenParams",
          "name": "peggedTokenParams_",
          "type": "tuple"
        }
      ],
      "name": "PeggedTokenChange",
      "type": "event"
    },
    {
      "anonymous": false,
      "inputs": [],
      "name": "SettlementExecuted",
      "type": "event"
    },
    {
      "anonymous": false,
      "inputs": [
        {
          "indexed": false,
          "internalType": "uint256",
          "name": "mocGain_",
          "type": "uint256"
        },
        {
          "indexed": false,
          "internalType": "uint256[]",
          "name": "tpGain_",
          "type": "uint256[]"
        }
      ],
      "name": "SuccessFeeDistributed",
      "type": "event"
    },
    {
      "anonymous": false,
      "inputs": [
        {
          "indexed": false,
          "internalType": "uint256",
          "name": "interestAmount_",
          "type": "uint256"
        }
      ],
      "name": "TCInterestPayment",
      "type": "event"
    },
    {
      "anonymous": false,
      "inputs": [
        {
          "indexed": true,
          "internalType": "uint256",
          "name": "i_",
          "type": "uint256"
        },
        {
          "indexed": false,
          "internalType": "uint256",
          "name": "oldTPema_",
          "type": "uint256"
        },
        {
          "indexed": false,
          "internalType": "uint256",
          "name": "newTPema_",
          "type": "uint256"
        }
      ],
      "name": "TPemaUpdated",
      "type": "event"
    },
    {
      "anonymous": false,
      "inputs": [
        {
          "indexed": false,
          "internalType": "address",
          "name": "account",
          "type": "address"
        }
      ],
      "name": "Unpaused",
      "type": "event"
    },
    {
      "anonymous": false,
      "inputs": [
        {
          "indexed": true,
          "internalType": "address",
          "name": "implementation",
          "type": "address"
        }
      ],
      "name": "Upgraded",
      "type": "event"
    },
    {
      "inputs": [],
      "name": "absoluteAccumulator",
      "outputs": [
        {
          "internalType": "uint256",
          "name": "",
          "type": "uint256"
        }
      ],
      "stateMutability": "view",
      "type": "function"
    },
    {
      "inputs": [],
      "name": "acToken",
      "outputs": [
        {
          "internalType": "contract IERC20",
          "name": "",
          "type": "address"
        }
      ],
      "stateMutability": "view",
      "type": "function"
    },
    {
      "inputs": [
        {
          "components": [
            {
              "internalType": "address",
              "name": "tpTokenAddress",
              "type": "address"
            },
            {
              "internalType": "address",
              "name": "priceProviderAddress",
              "type": "address"
            },
            {
              "internalType": "uint256",
              "name": "tpCtarg",
              "type": "uint256"
            },
            {
              "internalType": "uint256",
              "name": "tpMintFee",
              "type": "uint256"
            },
            {
              "internalType": "uint256",
              "name": "tpRedeemFee",
              "type": "uint256"
            },
            {
              "internalType": "uint256",
              "name": "tpEma",
              "type": "uint256"
            },
            {
              "internalType": "uint256",
              "name": "tpEmaSf",
              "type": "uint256"
            }
          ],
          "internalType": "struct PeggedTokenParams",
          "name": "peggedTokenParams_",
          "type": "tuple"
        }
      ],
      "name": "addPeggedToken",
      "outputs": [],
      "stateMutability": "nonpayable",
      "type": "function"
    },
    {
      "inputs": [],
      "name": "appreciationFactor",
      "outputs": [
        {
          "internalType": "uint256",
          "name": "",
          "type": "uint256"
        }
      ],
      "stateMutability": "view",
      "type": "function"
    },
    {
      "inputs": [],
      "name": "bes",
      "outputs": [
        {
          "internalType": "uint256",
          "name": "",
          "type": "uint256"
        }
      ],
      "stateMutability": "view",
      "type": "function"
    },
    {
      "inputs": [],
      "name": "bns",
      "outputs": [
        {
          "internalType": "uint256",
          "name": "",
          "type": "uint256"
        }
      ],
      "stateMutability": "view",
      "type": "function"
    },
    {
      "inputs": [],
      "name": "calcCtargemaCA",
      "outputs": [
        {
          "internalType": "uint256",
          "name": "ctargemaCA",
          "type": "uint256"
        }
      ],
      "stateMutability": "view",
      "type": "function"
    },
    {
      "inputs": [
        {
          "internalType": "contract IGovernor",
          "name": "newGovernor_",
          "type": "address"
        }
      ],
      "name": "changeGovernor",
      "outputs": [],
      "stateMutability": "nonpayable",
      "type": "function"
    },
    {
      "inputs": [],
      "name": "decayBlockSpan",
      "outputs": [
        {
          "internalType": "uint256",
          "name": "",
          "type": "uint256"
        }
      ],
      "stateMutability": "view",
      "type": "function"
    },
    {
      "inputs": [],
      "name": "differentialAccumulator",
      "outputs": [
        {
          "internalType": "int256",
          "name": "",
          "type": "int256"
        }
      ],
      "stateMutability": "view",
      "type": "function"
    },
    {
      "inputs": [
        {
          "components": [
            {
              "internalType": "address",
              "name": "tpTokenAddress",
              "type": "address"
            },
            {
              "internalType": "address",
              "name": "priceProviderAddress",
              "type": "address"
            },
            {
              "internalType": "uint256",
              "name": "tpCtarg",
              "type": "uint256"
            },
            {
              "internalType": "uint256",
              "name": "tpMintFee",
              "type": "uint256"
            },
            {
              "internalType": "uint256",
              "name": "tpRedeemFee",
              "type": "uint256"
            },
            {
              "internalType": "uint256",
              "name": "tpEma",
              "type": "uint256"
            },
            {
              "internalType": "uint256",
              "name": "tpEmaSf",
              "type": "uint256"
            }
          ],
          "internalType": "struct PeggedTokenParams",
          "name": "peggedTokenParams_",
          "type": "tuple"
        }
      ],
      "name": "editPeggedToken",
      "outputs": [],
      "stateMutability": "nonpayable",
      "type": "function"
    },
    {
      "inputs": [],
      "name": "emaCalculationBlockSpan",
      "outputs": [
        {
          "internalType": "uint256",
          "name": "",
          "type": "uint256"
        }
      ],
      "stateMutability": "view",
      "type": "function"
    },
    {
      "inputs": [],
      "name": "evalLiquidation",
      "outputs": [],
      "stateMutability": "nonpayable",
      "type": "function"
    },
    {
      "inputs": [
        {
          "components": [
            {
              "internalType": "uint256",
              "name": "qTC",
              "type": "uint256"
            },
            {
              "internalType": "uint256",
              "name": "qACmax",
              "type": "uint256"
            },
            {
              "internalType": "address",
              "name": "sender",
              "type": "address"
            },
            {
              "internalType": "address",
              "name": "recipient",
              "type": "address"
            },
            {
              "internalType": "address",
              "name": "vendor",
              "type": "address"
            }
          ],
          "internalType": "struct MocCore.MintTCParams",
          "name": "params_",
          "type": "tuple"
        }
      ],
      "name": "execMintTC",
      "outputs": [
        {
          "internalType": "uint256",
          "name": "qACtotalNeeded",
          "type": "uint256"
        },
        {
          "internalType": "uint256",
          "name": "qFeeTokenTotalNeeded",
          "type": "uint256"
        },
        {
          "components": [
            {
              "internalType": "uint256",
              "name": "qACFee",
              "type": "uint256"
            },
            {
              "internalType": "uint256",
              "name": "qFeeToken",
              "type": "uint256"
            },
            {
              "internalType": "uint256",
              "name": "qACVendorMarkup",
              "type": "uint256"
            },
            {
              "internalType": "uint256",
              "name": "qFeeTokenVendorMarkup",
              "type": "uint256"
            }
          ],
          "internalType": "struct MocCommons.FeeCalcs",
          "name": "feeCalcs",
          "type": "tuple"
        }
      ],
      "stateMutability": "nonpayable",
      "type": "function"
    },
    {
      "inputs": [
        {
          "components": [
            {
              "internalType": "address",
              "name": "tp",
              "type": "address"
            },
            {
              "internalType": "uint256",
              "name": "qTP",
              "type": "uint256"
            },
            {
              "internalType": "uint256",
              "name": "qACmax",
              "type": "uint256"
            },
            {
              "internalType": "address",
              "name": "sender",
              "type": "address"
            },
            {
              "internalType": "address",
              "name": "recipient",
              "type": "address"
            },
            {
              "internalType": "address",
              "name": "vendor",
              "type": "address"
            }
          ],
          "internalType": "struct MocCommons.MintTCandTPParams",
          "name": "params_",
          "type": "tuple"
        }
      ],
      "name": "execMintTCandTP",
      "outputs": [
        {
          "internalType": "uint256",
          "name": "qACtotalNeeded",
          "type": "uint256"
        },
        {
          "internalType": "uint256",
          "name": "qTCMinted",
          "type": "uint256"
        },
        {
          "internalType": "uint256",
          "name": "qFeeTokenTotalNeeded",
          "type": "uint256"
        },
        {
          "components": [
            {
              "internalType": "uint256",
              "name": "qACFee",
              "type": "uint256"
            },
            {
              "internalType": "uint256",
              "name": "qFeeToken",
              "type": "uint256"
            },
            {
              "internalType": "uint256",
              "name": "qACVendorMarkup",
              "type": "uint256"
            },
            {
              "internalType": "uint256",
              "name": "qFeeTokenVendorMarkup",
              "type": "uint256"
            }
          ],
          "internalType": "struct MocCommons.FeeCalcs",
          "name": "feeCalcs",
          "type": "tuple"
        }
      ],
      "stateMutability": "nonpayable",
      "type": "function"
    },
    {
      "inputs": [
        {
          "components": [
            {
              "internalType": "address",
              "name": "tp",
              "type": "address"
            },
            {
              "internalType": "uint256",
              "name": "qTP",
              "type": "uint256"
            },
            {
              "internalType": "uint256",
              "name": "qACmax",
              "type": "uint256"
            },
            {
              "internalType": "address",
              "name": "sender",
              "type": "address"
            },
            {
              "internalType": "address",
              "name": "recipient",
              "type": "address"
            },
            {
              "internalType": "address",
              "name": "vendor",
              "type": "address"
            }
          ],
          "internalType": "struct MocCore.MintTPParams",
          "name": "params_",
          "type": "tuple"
        }
      ],
      "name": "execMintTP",
      "outputs": [
        {
          "internalType": "uint256",
          "name": "qACtotalNeeded",
          "type": "uint256"
        },
        {
          "internalType": "uint256",
          "name": "qFeeTokenTotalNeeded",
          "type": "uint256"
        },
        {
          "components": [
            {
              "internalType": "uint256",
              "name": "qACFee",
              "type": "uint256"
            },
            {
              "internalType": "uint256",
              "name": "qFeeToken",
              "type": "uint256"
            },
            {
              "internalType": "uint256",
              "name": "qACVendorMarkup",
              "type": "uint256"
            },
            {
              "internalType": "uint256",
              "name": "qFeeTokenVendorMarkup",
              "type": "uint256"
            }
          ],
          "internalType": "struct MocCommons.FeeCalcs",
          "name": "feeCalcs",
          "type": "tuple"
        }
      ],
      "stateMutability": "nonpayable",
      "type": "function"
    },
    {
      "inputs": [
        {
          "components": [
            {
              "internalType": "uint256",
              "name": "qTC",
              "type": "uint256"
            },
            {
              "internalType": "uint256",
              "name": "qACmin",
              "type": "uint256"
            },
            {
              "internalType": "address",
              "name": "sender",
              "type": "address"
            },
            {
              "internalType": "address",
              "name": "recipient",
              "type": "address"
            },
            {
              "internalType": "address",
              "name": "vendor",
              "type": "address"
            }
          ],
          "internalType": "struct MocCore.RedeemTCParams",
          "name": "params_",
          "type": "tuple"
        }
      ],
      "name": "execRedeemTC",
      "outputs": [
        {
          "internalType": "uint256",
          "name": "qACtoRedeem",
          "type": "uint256"
        },
        {
          "internalType": "uint256",
          "name": "qFeeTokenTotalNeeded",
          "type": "uint256"
        },
        {
          "components": [
            {
              "internalType": "uint256",
              "name": "qACFee",
              "type": "uint256"
            },
            {
              "internalType": "uint256",
              "name": "qFeeToken",
              "type": "uint256"
            },
            {
              "internalType": "uint256",
              "name": "qACVendorMarkup",
              "type": "uint256"
            },
            {
              "internalType": "uint256",
              "name": "qFeeTokenVendorMarkup",
              "type": "uint256"
            }
          ],
          "internalType": "struct MocCommons.FeeCalcs",
          "name": "feeCalcs",
          "type": "tuple"
        }
      ],
      "stateMutability": "nonpayable",
      "type": "function"
    },
    {
      "inputs": [
        {
          "components": [
            {
              "internalType": "address",
              "name": "tp",
              "type": "address"
            },
            {
              "internalType": "uint256",
              "name": "qTC",
              "type": "uint256"
            },
            {
              "internalType": "uint256",
              "name": "qTP",
              "type": "uint256"
            },
            {
              "internalType": "uint256",
              "name": "qACmin",
              "type": "uint256"
            },
            {
              "internalType": "address",
              "name": "sender",
              "type": "address"
            },
            {
              "internalType": "address",
              "name": "recipient",
              "type": "address"
            },
            {
              "internalType": "address",
              "name": "vendor",
              "type": "address"
            }
          ],
          "internalType": "struct MocCommons.RedeemTCandTPParams",
          "name": "params_",
          "type": "tuple"
        }
      ],
      "name": "execRedeemTCandTP",
      "outputs": [
        {
          "internalType": "uint256",
          "name": "qACtoRedeem",
          "type": "uint256"
        },
        {
          "internalType": "uint256",
          "name": "qTPRedeemed",
          "type": "uint256"
        },
        {
          "internalType": "uint256",
          "name": "qFeeTokenTotalNeeded",
          "type": "uint256"
        },
        {
          "components": [
            {
              "internalType": "uint256",
              "name": "qACFee",
              "type": "uint256"
            },
            {
              "internalType": "uint256",
              "name": "qFeeToken",
              "type": "uint256"
            },
            {
              "internalType": "uint256",
              "name": "qACVendorMarkup",
              "type": "uint256"
            },
            {
              "internalType": "uint256",
              "name": "qFeeTokenVendorMarkup",
              "type": "uint256"
            }
          ],
          "internalType": "struct MocCommons.FeeCalcs",
          "name": "feeCalcs",
          "type": "tuple"
        }
      ],
      "stateMutability": "nonpayable",
      "type": "function"
    },
    {
      "inputs": [
        {
          "components": [
            {
              "internalType": "address",
              "name": "tp",
              "type": "address"
            },
            {
              "internalType": "uint256",
              "name": "qTP",
              "type": "uint256"
            },
            {
              "internalType": "uint256",
              "name": "qACmin",
              "type": "uint256"
            },
            {
              "internalType": "address",
              "name": "sender",
              "type": "address"
            },
            {
              "internalType": "address",
              "name": "recipient",
              "type": "address"
            },
            {
              "internalType": "address",
              "name": "vendor",
              "type": "address"
            }
          ],
          "internalType": "struct MocCommons.RedeemTPParams",
          "name": "params_",
          "type": "tuple"
        }
      ],
      "name": "execRedeemTP",
      "outputs": [
        {
          "internalType": "uint256",
          "name": "qACtoRedeem",
          "type": "uint256"
        },
        {
          "internalType": "uint256",
          "name": "qFeeTokenTotalNeeded",
          "type": "uint256"
        },
        {
          "components": [
            {
              "internalType": "uint256",
              "name": "qACFee",
              "type": "uint256"
            },
            {
              "internalType": "uint256",
              "name": "qFeeToken",
              "type": "uint256"
            },
            {
              "internalType": "uint256",
              "name": "qACVendorMarkup",
              "type": "uint256"
            },
            {
              "internalType": "uint256",
              "name": "qFeeTokenVendorMarkup",
              "type": "uint256"
            }
          ],
          "internalType": "struct MocCommons.FeeCalcs",
          "name": "feeCalcs",
          "type": "tuple"
        }
      ],
      "stateMutability": "nonpayable",
      "type": "function"
    },
    {
      "inputs": [],
      "name": "execSettlement",
      "outputs": [],
      "stateMutability": "nonpayable",
      "type": "function"
    },
    {
      "inputs": [
        {
          "components": [
            {
              "internalType": "address",
              "name": "tp",
              "type": "address"
            },
            {
              "internalType": "uint256",
              "name": "qTC",
              "type": "uint256"
            },
            {
              "internalType": "uint256",
              "name": "qTPmin",
              "type": "uint256"
            },
            {
              "internalType": "uint256",
              "name": "qACmax",
              "type": "uint256"
            },
            {
              "internalType": "address",
              "name": "sender",
              "type": "address"
            },
            {
              "internalType": "address",
              "name": "recipient",
              "type": "address"
            },
            {
              "internalType": "address",
              "name": "vendor",
              "type": "address"
            }
          ],
          "internalType": "struct MocCommons.SwapTCforTPParams",
          "name": "params_",
          "type": "tuple"
        }
      ],
      "name": "execSwapTCforTP",
      "outputs": [
        {
          "internalType": "uint256",
          "name": "qACSurcharges",
          "type": "uint256"
        },
        {
          "internalType": "uint256",
          "name": "qTPMinted",
          "type": "uint256"
        },
        {
          "internalType": "uint256",
          "name": "qFeeTokenTotalNeeded",
          "type": "uint256"
        },
        {
          "components": [
            {
              "internalType": "uint256",
              "name": "qACFee",
              "type": "uint256"
            },
            {
              "internalType": "uint256",
              "name": "qFeeToken",
              "type": "uint256"
            },
            {
              "internalType": "uint256",
              "name": "qACVendorMarkup",
              "type": "uint256"
            },
            {
              "internalType": "uint256",
              "name": "qFeeTokenVendorMarkup",
              "type": "uint256"
            }
          ],
          "internalType": "struct MocCommons.FeeCalcs",
          "name": "feeCalcs",
          "type": "tuple"
        }
      ],
      "stateMutability": "nonpayable",
      "type": "function"
    },
    {
      "inputs": [
        {
          "components": [
            {
              "internalType": "address",
              "name": "tp",
              "type": "address"
            },
            {
              "internalType": "uint256",
              "name": "qTP",
              "type": "uint256"
            },
            {
              "internalType": "uint256",
              "name": "qTCmin",
              "type": "uint256"
            },
            {
              "internalType": "uint256",
              "name": "qACmax",
              "type": "uint256"
            },
            {
              "internalType": "address",
              "name": "sender",
              "type": "address"
            },
            {
              "internalType": "address",
              "name": "recipient",
              "type": "address"
            },
            {
              "internalType": "address",
              "name": "vendor",
              "type": "address"
            }
          ],
          "internalType": "struct MocCommons.SwapTPforTCParams",
          "name": "params_",
          "type": "tuple"
        }
      ],
      "name": "execSwapTPforTC",
      "outputs": [
        {
          "internalType": "uint256",
          "name": "qACSurcharges",
          "type": "uint256"
        },
        {
          "internalType": "uint256",
          "name": "qTCMinted",
          "type": "uint256"
        },
        {
          "internalType": "uint256",
          "name": "qFeeTokenTotalNeeded",
          "type": "uint256"
        },
        {
          "components": [
            {
              "internalType": "uint256",
              "name": "qACFee",
              "type": "uint256"
            },
            {
              "internalType": "uint256",
              "name": "qFeeToken",
              "type": "uint256"
            },
            {
              "internalType": "uint256",
              "name": "qACVendorMarkup",
              "type": "uint256"
            },
            {
              "internalType": "uint256",
              "name": "qFeeTokenVendorMarkup",
              "type": "uint256"
            }
          ],
          "internalType": "struct MocCommons.FeeCalcs",
          "name": "feeCalcs",
          "type": "tuple"
        }
      ],
      "stateMutability": "nonpayable",
      "type": "function"
    },
    {
      "inputs": [
        {
          "components": [
            {
              "internalType": "address",
              "name": "tpFrom",
              "type": "address"
            },
            {
              "internalType": "address",
              "name": "tpTo",
              "type": "address"
            },
            {
              "internalType": "uint256",
              "name": "qTP",
              "type": "uint256"
            },
            {
              "internalType": "uint256",
              "name": "qTPmin",
              "type": "uint256"
            },
            {
              "internalType": "uint256",
              "name": "qACmax",
              "type": "uint256"
            },
            {
              "internalType": "address",
              "name": "sender",
              "type": "address"
            },
            {
              "internalType": "address",
              "name": "recipient",
              "type": "address"
            },
            {
              "internalType": "address",
              "name": "vendor",
              "type": "address"
            }
          ],
          "internalType": "struct MocCommons.SwapTPforTPParams",
          "name": "params_",
          "type": "tuple"
        }
      ],
      "name": "execSwapTPforTP",
      "outputs": [
        {
          "internalType": "uint256",
          "name": "qACSurcharges",
          "type": "uint256"
        },
        {
          "internalType": "uint256",
          "name": "qTPMinted",
          "type": "uint256"
        },
        {
          "internalType": "uint256",
          "name": "qFeeTokenTotalNeeded",
          "type": "uint256"
        },
        {
          "components": [
            {
              "internalType": "uint256",
              "name": "qACFee",
              "type": "uint256"
            },
            {
              "internalType": "uint256",
              "name": "qFeeToken",
              "type": "uint256"
            },
            {
              "internalType": "uint256",
              "name": "qACVendorMarkup",
              "type": "uint256"
            },
            {
              "internalType": "uint256",
              "name": "qFeeTokenVendorMarkup",
              "type": "uint256"
            }
          ],
          "internalType": "struct MocCommons.FeeCalcs",
          "name": "feeCalcs",
          "type": "tuple"
        }
      ],
      "stateMutability": "nonpayable",
      "type": "function"
    },
    {
      "inputs": [],
      "name": "feeRetainer",
      "outputs": [
        {
          "internalType": "uint256",
          "name": "",
          "type": "uint256"
        }
      ],
      "stateMutability": "view",
      "type": "function"
    },
    {
      "inputs": [],
      "name": "feeToken",
      "outputs": [
        {
          "internalType": "contract IERC20",
          "name": "",
          "type": "address"
        }
      ],
      "stateMutability": "view",
      "type": "function"
    },
    {
      "inputs": [],
      "name": "feeTokenPct",
      "outputs": [
        {
          "internalType": "uint256",
          "name": "",
          "type": "uint256"
        }
      ],
      "stateMutability": "view",
      "type": "function"
    },
    {
      "inputs": [],
      "name": "feeTokenPriceProvider",
      "outputs": [
        {
          "internalType": "contract IPriceProvider",
          "name": "",
          "type": "address"
        }
      ],
      "stateMutability": "view",
      "type": "function"
    },
    {
      "inputs": [],
      "name": "getBts",
      "outputs": [
        {
          "internalType": "uint256",
          "name": "",
          "type": "uint256"
        }
      ],
      "stateMutability": "view",
      "type": "function"
    },
    {
      "inputs": [],
      "name": "getCglb",
      "outputs": [
        {
          "internalType": "uint256",
          "name": "cglob",
          "type": "uint256"
        }
      ],
      "stateMutability": "view",
      "type": "function"
    },
    {
      "inputs": [],
      "name": "getCustomMockValue",
      "outputs": [
        {
          "internalType": "uint256",
          "name": "",
          "type": "uint256"
        }
      ],
      "stateMutability": "view",
      "type": "function"
    },
    {
      "inputs": [],
      "name": "getLckAC",
      "outputs": [
        {
          "internalType": "uint256",
          "name": "lckAC",
          "type": "uint256"
        }
      ],
      "stateMutability": "view",
      "type": "function"
    },
    {
      "inputs": [],
      "name": "getLeverageTC",
      "outputs": [
        {
          "internalType": "uint256",
          "name": "leverageTC",
          "type": "uint256"
        }
      ],
      "stateMutability": "view",
      "type": "function"
    },
    {
      "inputs": [
        {
          "internalType": "address",
          "name": "tp_",
          "type": "address"
        }
      ],
      "name": "getPACtp",
      "outputs": [
        {
          "internalType": "uint256",
          "name": "",
          "type": "uint256"
        }
      ],
      "stateMutability": "view",
      "type": "function"
    },
    {
      "inputs": [],
      "name": "getPTCac",
      "outputs": [
        {
          "internalType": "uint256",
          "name": "pTCac",
          "type": "uint256"
        }
      ],
      "stateMutability": "view",
      "type": "function"
    },
    {
      "inputs": [],
      "name": "getTCAvailableToRedeem",
      "outputs": [
        {
          "internalType": "uint256",
          "name": "tcAvailableToRedeem",
          "type": "uint256"
        }
      ],
      "stateMutability": "view",
      "type": "function"
    },
    {
      "inputs": [
        {
          "internalType": "address",
          "name": "tp_",
          "type": "address"
        }
      ],
      "name": "getTPAvailableToMint",
      "outputs": [
        {
          "internalType": "int256",
          "name": "tpAvailableToMint",
          "type": "int256"
        }
      ],
      "stateMutability": "view",
      "type": "function"
    },
    {
      "inputs": [],
      "name": "getTotalACavailable",
      "outputs": [
        {
          "internalType": "uint256",
          "name": "totalACavailable",
          "type": "uint256"
        }
      ],
      "stateMutability": "view",
      "type": "function"
    },
    {
      "inputs": [],
      "name": "getTpAmount",
      "outputs": [
        {
          "internalType": "uint256",
          "name": "",
          "type": "uint256"
        }
      ],
      "stateMutability": "view",
      "type": "function"
    },
    {
      "inputs": [],
      "name": "governor",
      "outputs": [
        {
          "internalType": "contract IGovernor",
          "name": "",
          "type": "address"
        }
      ],
      "stateMutability": "view",
      "type": "function"
    },
    {
      "inputs": [
        {
          "components": [
            {
              "components": [
                {
                  "components": [
                    {
                      "internalType": "address",
                      "name": "mocQueueAddress",
                      "type": "address"
                    },
                    {
                      "internalType": "address",
                      "name": "feeTokenAddress",
                      "type": "address"
                    },
                    {
                      "internalType": "address",
                      "name": "feeTokenPriceProviderAddress",
                      "type": "address"
                    },
                    {
                      "internalType": "address",
                      "name": "tcTokenAddress",
                      "type": "address"
                    },
                    {
                      "internalType": "address",
                      "name": "mocFeeFlowAddress",
                      "type": "address"
                    },
                    {
                      "internalType": "address",
                      "name": "mocAppreciationBeneficiaryAddress",
                      "type": "address"
                    },
                    {
                      "internalType": "uint256",
                      "name": "protThrld",
                      "type": "uint256"
                    },
                    {
                      "internalType": "uint256",
                      "name": "liqThrld",
                      "type": "uint256"
                    },
                    {
                      "internalType": "uint256",
                      "name": "feeRetainer",
                      "type": "uint256"
                    },
                    {
                      "internalType": "uint256",
                      "name": "tcMintFee",
                      "type": "uint256"
                    },
                    {
                      "internalType": "uint256",
                      "name": "tcRedeemFee",
                      "type": "uint256"
                    },
                    {
                      "internalType": "uint256",
                      "name": "swapTPforTPFee",
                      "type": "uint256"
                    },
                    {
                      "internalType": "uint256",
                      "name": "swapTPforTCFee",
                      "type": "uint256"
                    },
                    {
                      "internalType": "uint256",
                      "name": "swapTCforTPFee",
                      "type": "uint256"
                    },
                    {
                      "internalType": "uint256",
                      "name": "redeemTCandTPFee",
                      "type": "uint256"
                    },
                    {
                      "internalType": "uint256",
                      "name": "mintTCandTPFee",
                      "type": "uint256"
                    },
                    {
                      "internalType": "uint256",
                      "name": "feeTokenPct",
                      "type": "uint256"
                    },
                    {
                      "internalType": "uint256",
                      "name": "successFee",
                      "type": "uint256"
                    },
                    {
                      "internalType": "uint256",
                      "name": "appreciationFactor",
                      "type": "uint256"
                    },
                    {
                      "internalType": "uint256",
                      "name": "bes",
                      "type": "uint256"
                    },
                    {
                      "internalType": "address",
                      "name": "tcInterestCollectorAddress",
                      "type": "address"
                    },
                    {
                      "internalType": "uint256",
                      "name": "tcInterestRate",
                      "type": "uint256"
                    },
                    {
                      "internalType": "uint256",
                      "name": "tcInterestPaymentBlockSpan",
                      "type": "uint256"
                    },
                    {
                      "internalType": "address",
                      "name": "maxAbsoluteOpProviderAddress",
                      "type": "address"
                    },
                    {
                      "internalType": "address",
                      "name": "maxOpDiffProviderAddress",
                      "type": "address"
                    },
                    {
                      "internalType": "uint256",
                      "name": "decayBlockSpan",
                      "type": "uint256"
                    }
                  ],
                  "internalType": "struct MocBaseBucket.InitializeBaseBucketParams",
                  "name": "initializeBaseBucketParams",
                  "type": "tuple"
                },
                {
                  "internalType": "address",
                  "name": "governorAddress",
                  "type": "address"
                },
                {
                  "internalType": "address",
                  "name": "pauserAddress",
                  "type": "address"
                },
                {
                  "internalType": "address",
                  "name": "mocCoreExpansion",
                  "type": "address"
                },
                {
                  "internalType": "uint256",
                  "name": "emaCalculationBlockSpan",
                  "type": "uint256"
                },
                {
                  "internalType": "address",
                  "name": "mocVendors",
                  "type": "address"
                }
              ],
              "internalType": "struct MocCore.InitializeCoreParams",
              "name": "initializeCoreParams",
              "type": "tuple"
            },
            {
              "internalType": "address",
              "name": "acTokenAddress",
              "type": "address"
            }
          ],
          "internalType": "struct MocCARC20.InitializeParams",
          "name": "initializeParams_",
          "type": "tuple"
        }
      ],
      "name": "initialize",
      "outputs": [],
      "stateMutability": "nonpayable",
      "type": "function"
    },
    {
      "inputs": [],
      "name": "initializeMock",
      "outputs": [],
      "stateMutability": "nonpayable",
      "type": "function"
    },
    {
      "inputs": [],
      "name": "isLiquidationReached",
      "outputs": [
        {
          "internalType": "bool",
          "name": "",
          "type": "bool"
        }
      ],
      "stateMutability": "view",
      "type": "function"
    },
    {
      "inputs": [],
      "name": "lastOperationBlockNumber",
      "outputs": [
        {
          "internalType": "uint256",
          "name": "",
          "type": "uint256"
        }
      ],
      "stateMutability": "view",
      "type": "function"
    },
    {
      "inputs": [],
      "name": "liqEnabled",
      "outputs": [
        {
          "internalType": "bool",
          "name": "",
          "type": "bool"
        }
      ],
      "stateMutability": "view",
      "type": "function"
    },
    {
      "inputs": [
        {
          "internalType": "address",
          "name": "tp_",
          "type": "address"
        }
      ],
      "name": "liqRedeemTP",
      "outputs": [
        {
          "internalType": "uint256",
          "name": "qACRedeemed",
          "type": "uint256"
        }
      ],
      "stateMutability": "nonpayable",
      "type": "function"
    },
    {
      "inputs": [
        {
          "internalType": "address",
          "name": "tp_",
          "type": "address"
        },
        {
          "internalType": "address",
          "name": "recipient_",
          "type": "address"
        }
      ],
      "name": "liqRedeemTPto",
      "outputs": [
        {
          "internalType": "uint256",
          "name": "qACRedeemed",
          "type": "uint256"
        }
      ],
      "stateMutability": "nonpayable",
      "type": "function"
    },
    {
      "inputs": [],
      "name": "liqThrld",
      "outputs": [
        {
          "internalType": "uint256",
          "name": "",
          "type": "uint256"
        }
      ],
      "stateMutability": "view",
      "type": "function"
    },
    {
      "inputs": [],
      "name": "liquidated",
      "outputs": [
        {
          "internalType": "bool",
          "name": "",
          "type": "bool"
        }
      ],
      "stateMutability": "view",
      "type": "function"
    },
    {
      "inputs": [],
      "name": "makeStoppable",
      "outputs": [],
      "stateMutability": "nonpayable",
      "type": "function"
    },
    {
      "inputs": [],
      "name": "makeUnstoppable",
      "outputs": [],
      "stateMutability": "nonpayable",
      "type": "function"
    },
    {
      "inputs": [],
      "name": "maxAbsoluteOpProvider",
      "outputs": [
        {
          "internalType": "contract IDataProvider",
          "name": "",
          "type": "address"
        }
      ],
      "stateMutability": "view",
      "type": "function"
    },
    {
      "inputs": [],
      "name": "maxOpDiffProvider",
      "outputs": [
        {
          "internalType": "contract IDataProvider",
          "name": "",
          "type": "address"
        }
      ],
      "stateMutability": "view",
      "type": "function"
    },
    {
      "inputs": [],
      "name": "maxQACToMintTP",
      "outputs": [
        {
          "internalType": "uint256",
          "name": "maxQAC",
          "type": "uint256"
        }
      ],
      "stateMutability": "view",
      "type": "function"
    },
    {
      "inputs": [],
      "name": "maxQACToRedeemTP",
      "outputs": [
        {
          "internalType": "uint256",
          "name": "maxQAC",
          "type": "uint256"
        }
      ],
      "stateMutability": "view",
      "type": "function"
    },
    {
      "inputs": [
        {
          "internalType": "uint256",
          "name": "qTC_",
          "type": "uint256"
        },
        {
          "internalType": "uint256",
          "name": "qACmax_",
          "type": "uint256"
        }
      ],
      "name": "mintTC",
      "outputs": [
        {
          "internalType": "uint256",
          "name": "operId",
          "type": "uint256"
        }
      ],
      "stateMutability": "payable",
      "type": "function"
    },
    {
      "inputs": [
        {
          "internalType": "uint256",
          "name": "qTC_",
          "type": "uint256"
        },
        {
          "internalType": "uint256",
          "name": "qACmax_",
          "type": "uint256"
        },
        {
          "internalType": "address",
          "name": "vendor_",
          "type": "address"
        }
      ],
      "name": "mintTCViaVendor",
      "outputs": [
        {
          "internalType": "uint256",
          "name": "operId",
          "type": "uint256"
        }
      ],
      "stateMutability": "payable",
      "type": "function"
    },
    {
      "inputs": [
        {
          "internalType": "address",
          "name": "tp_",
          "type": "address"
        },
        {
          "internalType": "uint256",
          "name": "qTP_",
          "type": "uint256"
        },
        {
          "internalType": "uint256",
          "name": "qACmax_",
          "type": "uint256"
        }
      ],
      "name": "mintTCandTP",
      "outputs": [
        {
          "internalType": "uint256",
          "name": "operId",
          "type": "uint256"
        }
      ],
      "stateMutability": "payable",
      "type": "function"
    },
    {
      "inputs": [],
      "name": "mintTCandTPFee",
      "outputs": [
        {
          "internalType": "uint256",
          "name": "",
          "type": "uint256"
        }
      ],
      "stateMutability": "view",
      "type": "function"
    },
    {
      "inputs": [
        {
          "internalType": "address",
          "name": "tp_",
          "type": "address"
        },
        {
          "internalType": "uint256",
          "name": "qTP_",
          "type": "uint256"
        },
        {
          "internalType": "uint256",
          "name": "qACmax_",
          "type": "uint256"
        },
        {
          "internalType": "address",
          "name": "vendor_",
          "type": "address"
        }
      ],
      "name": "mintTCandTPViaVendor",
      "outputs": [
        {
          "internalType": "uint256",
          "name": "operId",
          "type": "uint256"
        }
      ],
      "stateMutability": "payable",
      "type": "function"
    },
    {
      "inputs": [
        {
          "internalType": "address",
          "name": "tp_",
          "type": "address"
        },
        {
          "internalType": "uint256",
          "name": "qTP_",
          "type": "uint256"
        },
        {
          "internalType": "uint256",
          "name": "qACmax_",
          "type": "uint256"
        },
        {
          "internalType": "address",
          "name": "recipient_",
          "type": "address"
        }
      ],
      "name": "mintTCandTPto",
      "outputs": [
        {
          "internalType": "uint256",
          "name": "operId",
          "type": "uint256"
        }
      ],
      "stateMutability": "payable",
      "type": "function"
    },
    {
      "inputs": [
        {
          "internalType": "address",
          "name": "tp_",
          "type": "address"
        },
        {
          "internalType": "uint256",
          "name": "qTP_",
          "type": "uint256"
        },
        {
          "internalType": "uint256",
          "name": "qACmax_",
          "type": "uint256"
        },
        {
          "internalType": "address",
          "name": "recipient_",
          "type": "address"
        },
        {
          "internalType": "address",
          "name": "vendor_",
          "type": "address"
        }
      ],
      "name": "mintTCandTPtoViaVendor",
      "outputs": [
        {
          "internalType": "uint256",
          "name": "operId",
          "type": "uint256"
        }
      ],
      "stateMutability": "payable",
      "type": "function"
    },
    {
      "inputs": [
        {
          "internalType": "uint256",
          "name": "qTC_",
          "type": "uint256"
        },
        {
          "internalType": "uint256",
          "name": "qACmax_",
          "type": "uint256"
        },
        {
          "internalType": "address",
          "name": "recipient_",
          "type": "address"
        }
      ],
      "name": "mintTCto",
      "outputs": [
        {
          "internalType": "uint256",
          "name": "operId",
          "type": "uint256"
        }
      ],
      "stateMutability": "payable",
      "type": "function"
    },
    {
      "inputs": [
        {
          "internalType": "uint256",
          "name": "qTC_",
          "type": "uint256"
        },
        {
          "internalType": "uint256",
          "name": "qACmax_",
          "type": "uint256"
        },
        {
          "internalType": "address",
          "name": "recipient_",
          "type": "address"
        },
        {
          "internalType": "address",
          "name": "vendor_",
          "type": "address"
        }
      ],
      "name": "mintTCtoViaVendor",
      "outputs": [
        {
          "internalType": "uint256",
          "name": "operId",
          "type": "uint256"
        }
      ],
      "stateMutability": "payable",
      "type": "function"
    },
    {
      "inputs": [
        {
          "internalType": "address",
          "name": "tp_",
          "type": "address"
        },
        {
          "internalType": "uint256",
          "name": "qTP_",
          "type": "uint256"
        },
        {
          "internalType": "uint256",
          "name": "qACmax_",
          "type": "uint256"
        }
      ],
      "name": "mintTP",
      "outputs": [
        {
          "internalType": "uint256",
          "name": "operId",
          "type": "uint256"
        }
      ],
      "stateMutability": "payable",
      "type": "function"
    },
    {
      "inputs": [
        {
          "internalType": "address",
          "name": "tp_",
          "type": "address"
        },
        {
          "internalType": "uint256",
          "name": "qTP_",
          "type": "uint256"
        },
        {
          "internalType": "uint256",
          "name": "qACmax_",
          "type": "uint256"
        },
        {
          "internalType": "address",
          "name": "vendor_",
          "type": "address"
        }
      ],
      "name": "mintTPViaVendor",
      "outputs": [
        {
          "internalType": "uint256",
          "name": "operId",
          "type": "uint256"
        }
      ],
      "stateMutability": "payable",
      "type": "function"
    },
    {
      "inputs": [
        {
          "internalType": "address",
          "name": "tp_",
          "type": "address"
        },
        {
          "internalType": "uint256",
          "name": "qTP_",
          "type": "uint256"
        },
        {
          "internalType": "uint256",
          "name": "qACmax_",
          "type": "uint256"
        },
        {
          "internalType": "address",
          "name": "recipient_",
          "type": "address"
        }
      ],
      "name": "mintTPto",
      "outputs": [
        {
          "internalType": "uint256",
          "name": "operId",
          "type": "uint256"
        }
      ],
      "stateMutability": "payable",
      "type": "function"
    },
    {
      "inputs": [
        {
          "internalType": "address",
          "name": "tp_",
          "type": "address"
        },
        {
          "internalType": "uint256",
          "name": "qTP_",
          "type": "uint256"
        },
        {
          "internalType": "uint256",
          "name": "qACmax_",
          "type": "uint256"
        },
        {
          "internalType": "address",
          "name": "recipient_",
          "type": "address"
        },
        {
          "internalType": "address",
          "name": "vendor_",
          "type": "address"
        }
      ],
      "name": "mintTPtoViaVendor",
      "outputs": [
        {
          "internalType": "uint256",
          "name": "operId",
          "type": "uint256"
        }
      ],
      "stateMutability": "payable",
      "type": "function"
    },
    {
      "inputs": [],
      "name": "mocAppreciationBeneficiaryAddress",
      "outputs": [
        {
          "internalType": "address",
          "name": "",
          "type": "address"
        }
      ],
      "stateMutability": "view",
      "type": "function"
    },
    {
      "inputs": [],
      "name": "mocFeeFlowAddress",
      "outputs": [
        {
          "internalType": "address",
          "name": "",
          "type": "address"
        }
      ],
      "stateMutability": "view",
      "type": "function"
    },
    {
      "inputs": [],
      "name": "mocQueue",
      "outputs": [
        {
          "internalType": "address",
          "name": "",
          "type": "address"
        }
      ],
      "stateMutability": "view",
      "type": "function"
    },
    {
      "inputs": [],
      "name": "mocVendors",
      "outputs": [
        {
          "internalType": "contract MocVendors",
          "name": "",
          "type": "address"
        }
      ],
      "stateMutability": "view",
      "type": "function"
    },
    {
      "inputs": [],
      "name": "nACcb",
      "outputs": [
        {
          "internalType": "uint256",
          "name": "",
          "type": "uint256"
        }
      ],
      "stateMutability": "view",
      "type": "function"
    },
    {
      "inputs": [],
      "name": "nTCcb",
      "outputs": [
        {
          "internalType": "uint256",
          "name": "",
          "type": "uint256"
        }
      ],
      "stateMutability": "view",
      "type": "function"
    },
    {
      "inputs": [],
      "name": "newVariable",
      "outputs": [
        {
          "internalType": "uint256",
          "name": "",
          "type": "uint256"
        }
      ],
      "stateMutability": "view",
      "type": "function"
    },
    {
      "inputs": [],
      "name": "nextEmaCalculation",
      "outputs": [
        {
          "internalType": "uint256",
          "name": "",
          "type": "uint256"
        }
      ],
      "stateMutability": "view",
      "type": "function"
    },
    {
      "inputs": [],
      "name": "nextTCInterestPayment",
      "outputs": [
        {
          "internalType": "uint256",
          "name": "",
          "type": "uint256"
        }
      ],
      "stateMutability": "view",
      "type": "function"
    },
    {
      "inputs": [],
      "name": "pause",
      "outputs": [],
      "stateMutability": "nonpayable",
      "type": "function"
    },
    {
      "inputs": [],
      "name": "paused",
      "outputs": [
        {
          "internalType": "bool",
          "name": "",
          "type": "bool"
        }
      ],
      "stateMutability": "view",
      "type": "function"
    },
    {
      "inputs": [],
      "name": "pauser",
      "outputs": [
        {
          "internalType": "address",
          "name": "",
          "type": "address"
        }
      ],
      "stateMutability": "view",
      "type": "function"
    },
    {
      "inputs": [
        {
          "internalType": "uint256",
          "name": "",
          "type": "uint256"
        }
      ],
      "name": "pegContainer",
      "outputs": [
        {
          "internalType": "uint256",
          "name": "nTP",
          "type": "uint256"
        },
        {
          "internalType": "contract IPriceProvider",
          "name": "priceProvider",
          "type": "address"
        }
      ],
      "stateMutability": "view",
      "type": "function"
    },
    {
      "inputs": [
        {
          "internalType": "address",
          "name": "",
          "type": "address"
        }
      ],
      "name": "peggedTokenIndex",
      "outputs": [
        {
          "internalType": "uint256",
          "name": "index",
          "type": "uint256"
        },
        {
          "internalType": "bool",
          "name": "exists",
          "type": "bool"
        }
      ],
      "stateMutability": "view",
      "type": "function"
    },
    {
      "inputs": [],
      "name": "protThrld",
      "outputs": [
        {
          "internalType": "uint256",
          "name": "",
          "type": "uint256"
        }
      ],
      "stateMutability": "view",
      "type": "function"
    },
    {
      "inputs": [],
      "name": "proxiableUUID",
      "outputs": [
        {
          "internalType": "bytes32",
          "name": "",
          "type": "bytes32"
        }
      ],
      "stateMutability": "view",
      "type": "function"
    },
    {
      "inputs": [],
      "name": "qACLockedInPending",
      "outputs": [
        {
          "internalType": "uint256",
          "name": "",
          "type": "uint256"
        }
      ],
      "stateMutability": "view",
      "type": "function"
    },
    {
      "inputs": [
        {
          "internalType": "uint256",
          "name": "qTC_",
          "type": "uint256"
        },
        {
          "internalType": "uint256",
          "name": "qACmin_",
          "type": "uint256"
        }
      ],
      "name": "redeemTC",
      "outputs": [
        {
          "internalType": "uint256",
          "name": "operId",
          "type": "uint256"
        }
      ],
      "stateMutability": "payable",
      "type": "function"
    },
    {
      "inputs": [
        {
          "internalType": "uint256",
          "name": "qTC_",
          "type": "uint256"
        },
        {
          "internalType": "uint256",
          "name": "qACmin_",
          "type": "uint256"
        },
        {
          "internalType": "address",
          "name": "vendor_",
          "type": "address"
        }
      ],
      "name": "redeemTCViaVendor",
      "outputs": [
        {
          "internalType": "uint256",
          "name": "operId",
          "type": "uint256"
        }
      ],
      "stateMutability": "payable",
      "type": "function"
    },
    {
      "inputs": [
        {
          "internalType": "address",
          "name": "tp_",
          "type": "address"
        },
        {
          "internalType": "uint256",
          "name": "qTC_",
          "type": "uint256"
        },
        {
          "internalType": "uint256",
          "name": "qTP_",
          "type": "uint256"
        },
        {
          "internalType": "uint256",
          "name": "qACmin_",
          "type": "uint256"
        }
      ],
      "name": "redeemTCandTP",
      "outputs": [
        {
          "internalType": "uint256",
          "name": "operId",
          "type": "uint256"
        }
      ],
      "stateMutability": "payable",
      "type": "function"
    },
    {
      "inputs": [],
      "name": "redeemTCandTPFee",
      "outputs": [
        {
          "internalType": "uint256",
          "name": "",
          "type": "uint256"
        }
      ],
      "stateMutability": "view",
      "type": "function"
    },
    {
      "inputs": [
        {
          "internalType": "address",
          "name": "tp_",
          "type": "address"
        },
        {
          "internalType": "uint256",
          "name": "qTC_",
          "type": "uint256"
        },
        {
          "internalType": "uint256",
          "name": "qTP_",
          "type": "uint256"
        },
        {
          "internalType": "uint256",
          "name": "qACmin_",
          "type": "uint256"
        },
        {
          "internalType": "address",
          "name": "vendor_",
          "type": "address"
        }
      ],
      "name": "redeemTCandTPViaVendor",
      "outputs": [
        {
          "internalType": "uint256",
          "name": "operId",
          "type": "uint256"
        }
      ],
      "stateMutability": "payable",
      "type": "function"
    },
    {
      "inputs": [
        {
          "internalType": "address",
          "name": "tp_",
          "type": "address"
        },
        {
          "internalType": "uint256",
          "name": "qTC_",
          "type": "uint256"
        },
        {
          "internalType": "uint256",
          "name": "qTP_",
          "type": "uint256"
        },
        {
          "internalType": "uint256",
          "name": "qACmin_",
          "type": "uint256"
        },
        {
          "internalType": "address",
          "name": "recipient_",
          "type": "address"
        }
      ],
      "name": "redeemTCandTPto",
      "outputs": [
        {
          "internalType": "uint256",
          "name": "operId",
          "type": "uint256"
        }
      ],
      "stateMutability": "payable",
      "type": "function"
    },
    {
      "inputs": [
        {
          "internalType": "address",
          "name": "tp_",
          "type": "address"
        },
        {
          "internalType": "uint256",
          "name": "qTC_",
          "type": "uint256"
        },
        {
          "internalType": "uint256",
          "name": "qTP_",
          "type": "uint256"
        },
        {
          "internalType": "uint256",
          "name": "qACmin_",
          "type": "uint256"
        },
        {
          "internalType": "address",
          "name": "recipient_",
          "type": "address"
        },
        {
          "internalType": "address",
          "name": "vendor_",
          "type": "address"
        }
      ],
      "name": "redeemTCandTPtoViaVendor",
      "outputs": [
        {
          "internalType": "uint256",
          "name": "operId",
          "type": "uint256"
        }
      ],
      "stateMutability": "payable",
      "type": "function"
    },
    {
      "inputs": [
        {
          "internalType": "uint256",
          "name": "qTC_",
          "type": "uint256"
        },
        {
          "internalType": "uint256",
          "name": "qACmin_",
          "type": "uint256"
        },
        {
          "internalType": "address",
          "name": "recipient_",
          "type": "address"
        }
      ],
      "name": "redeemTCto",
      "outputs": [
        {
          "internalType": "uint256",
          "name": "operId",
          "type": "uint256"
        }
      ],
      "stateMutability": "payable",
      "type": "function"
    },
    {
      "inputs": [
        {
          "internalType": "uint256",
          "name": "qTC_",
          "type": "uint256"
        },
        {
          "internalType": "uint256",
          "name": "qACmin_",
          "type": "uint256"
        },
        {
          "internalType": "address",
          "name": "recipient_",
          "type": "address"
        },
        {
          "internalType": "address",
          "name": "vendor_",
          "type": "address"
        }
      ],
      "name": "redeemTCtoViaVendor",
      "outputs": [
        {
          "internalType": "uint256",
          "name": "operId",
          "type": "uint256"
        }
      ],
      "stateMutability": "payable",
      "type": "function"
    },
    {
      "inputs": [
        {
          "internalType": "address",
          "name": "tp_",
          "type": "address"
        },
        {
          "internalType": "uint256",
          "name": "qTP_",
          "type": "uint256"
        },
        {
          "internalType": "uint256",
          "name": "qACmin_",
          "type": "uint256"
        }
      ],
      "name": "redeemTP",
      "outputs": [
        {
          "internalType": "uint256",
          "name": "operId",
          "type": "uint256"
        }
      ],
      "stateMutability": "payable",
      "type": "function"
    },
    {
      "inputs": [
        {
          "internalType": "address",
          "name": "tp_",
          "type": "address"
        },
        {
          "internalType": "uint256",
          "name": "qTP_",
          "type": "uint256"
        },
        {
          "internalType": "uint256",
          "name": "qACmin_",
          "type": "uint256"
        },
        {
          "internalType": "address",
          "name": "vendor_",
          "type": "address"
        }
      ],
      "name": "redeemTPViaVendor",
      "outputs": [
        {
          "internalType": "uint256",
          "name": "operId",
          "type": "uint256"
        }
      ],
      "stateMutability": "payable",
      "type": "function"
    },
    {
      "inputs": [
        {
          "internalType": "address",
          "name": "tp_",
          "type": "address"
        },
        {
          "internalType": "uint256",
          "name": "qTP_",
          "type": "uint256"
        },
        {
          "internalType": "uint256",
          "name": "qACmin_",
          "type": "uint256"
        },
        {
          "internalType": "address",
          "name": "recipient_",
          "type": "address"
        }
      ],
      "name": "redeemTPto",
      "outputs": [
        {
          "internalType": "uint256",
          "name": "operId",
          "type": "uint256"
        }
      ],
      "stateMutability": "payable",
      "type": "function"
    },
    {
      "inputs": [
        {
          "internalType": "address",
          "name": "tp_",
          "type": "address"
        },
        {
          "internalType": "uint256",
          "name": "qTP_",
          "type": "uint256"
        },
        {
          "internalType": "uint256",
          "name": "qACmin_",
          "type": "uint256"
        },
        {
          "internalType": "address",
          "name": "recipient_",
          "type": "address"
        },
        {
          "internalType": "address",
          "name": "vendor_",
          "type": "address"
        }
      ],
      "name": "redeemTPtoViaVendor",
      "outputs": [
        {
          "internalType": "uint256",
          "name": "operId",
          "type": "uint256"
        }
      ],
      "stateMutability": "payable",
      "type": "function"
    },
    {
      "inputs": [],
      "name": "refreshACBalance",
      "outputs": [],
      "stateMutability": "nonpayable",
      "type": "function"
    },
    {
      "inputs": [
        {
          "internalType": "uint256",
          "name": "appreciationFactor_",
          "type": "uint256"
        }
      ],
      "name": "setAppreciationFactor",
      "outputs": [],
      "stateMutability": "nonpayable",
      "type": "function"
    },
    {
      "inputs": [
        {
          "internalType": "uint256",
          "name": "bes_",
          "type": "uint256"
        }
      ],
      "name": "setBes",
      "outputs": [],
      "stateMutability": "nonpayable",
      "type": "function"
    },
    {
      "inputs": [
        {
          "internalType": "uint256",
          "name": "decayBlockSpan_",
          "type": "uint256"
        }
      ],
      "name": "setDecayBlockSpan",
      "outputs": [],
      "stateMutability": "nonpayable",
      "type": "function"
    },
    {
      "inputs": [
        {
          "internalType": "uint256",
          "name": "blockSpan_",
          "type": "uint256"
        }
      ],
      "name": "setEmaCalculationBlockSpan",
      "outputs": [],
      "stateMutability": "nonpayable",
      "type": "function"
    },
    {
      "inputs": [
        {
          "internalType": "uint256",
          "name": "feeRetainer_",
          "type": "uint256"
        }
      ],
      "name": "setFeeRetainer",
      "outputs": [],
      "stateMutability": "nonpayable",
      "type": "function"
    },
    {
      "inputs": [
        {
          "internalType": "address",
          "name": "mocFeeTokenAddress_",
          "type": "address"
        }
      ],
      "name": "setFeeTokenAddress",
      "outputs": [],
      "stateMutability": "nonpayable",
      "type": "function"
    },
    {
      "inputs": [
        {
          "internalType": "uint256",
          "name": "feeTokenPct_",
          "type": "uint256"
        }
      ],
      "name": "setFeeTokenPct",
      "outputs": [],
      "stateMutability": "nonpayable",
      "type": "function"
    },
    {
      "inputs": [
        {
          "internalType": "address",
          "name": "mocFeeTokenPriceProviderAddress_",
          "type": "address"
        }
      ],
      "name": "setFeeTokenPriceProviderAddress",
      "outputs": [],
      "stateMutability": "nonpayable",
      "type": "function"
    },
    {
      "inputs": [
        {
          "internalType": "bool",
          "name": "liqEnabled_",
          "type": "bool"
        }
      ],
      "name": "setLiqEnabled",
      "outputs": [],
      "stateMutability": "nonpayable",
      "type": "function"
    },
    {
      "inputs": [
        {
          "internalType": "uint256",
          "name": "liqThrld_",
          "type": "uint256"
        }
      ],
      "name": "setLiqThrld",
      "outputs": [],
      "stateMutability": "nonpayable",
      "type": "function"
    },
    {
      "inputs": [
        {
          "internalType": "address",
          "name": "maxAbsoluteOpProviderAddress_",
          "type": "address"
        }
      ],
      "name": "setMaxAbsoluteOpProviderAddress",
      "outputs": [],
      "stateMutability": "nonpayable",
      "type": "function"
    },
    {
      "inputs": [
        {
          "internalType": "address",
          "name": "maxOpDiffProviderAddress_",
          "type": "address"
        }
      ],
      "name": "setMaxOpDiffProviderAddress",
      "outputs": [],
      "stateMutability": "nonpayable",
      "type": "function"
    },
    {
      "inputs": [
        {
          "internalType": "uint256",
          "name": "mintTCandTPFee_",
          "type": "uint256"
        }
      ],
      "name": "setMintTCandTPFee",
      "outputs": [],
      "stateMutability": "nonpayable",
      "type": "function"
    },
    {
      "inputs": [
        {
          "internalType": "address",
          "name": "mocAppreciationBeneficiaryAddress_",
          "type": "address"
        }
      ],
      "name": "setMocAppreciationBeneficiaryAddress",
      "outputs": [],
      "stateMutability": "nonpayable",
      "type": "function"
    },
    {
      "inputs": [
        {
          "internalType": "address",
          "name": "mocCoreExpansion_",
          "type": "address"
        }
      ],
      "name": "setMocCoreExpansion",
      "outputs": [],
      "stateMutability": "nonpayable",
      "type": "function"
    },
    {
      "inputs": [
        {
          "internalType": "address",
          "name": "mocFeeFlowAddress_",
          "type": "address"
        }
      ],
      "name": "setMocFeeFlowAddress",
      "outputs": [],
      "stateMutability": "nonpayable",
      "type": "function"
    },
    {
      "inputs": [
        {
          "internalType": "address",
          "name": "mocQueueAddress_",
          "type": "address"
        }
      ],
      "name": "setMocQueue",
      "outputs": [],
      "stateMutability": "nonpayable",
      "type": "function"
    },
    {
      "inputs": [
        {
          "internalType": "address",
          "name": "mocVendors_",
          "type": "address"
        }
      ],
      "name": "setMocVendors",
      "outputs": [],
      "stateMutability": "nonpayable",
      "type": "function"
    },
    {
      "inputs": [
        {
          "internalType": "address",
          "name": "newPauser_",
          "type": "address"
        }
      ],
      "name": "setPauser",
      "outputs": [],
      "stateMutability": "nonpayable",
      "type": "function"
    },
    {
      "inputs": [
        {
          "internalType": "uint256",
          "name": "protThrld_",
          "type": "uint256"
        }
      ],
      "name": "setProtThrld",
      "outputs": [],
      "stateMutability": "nonpayable",
      "type": "function"
    },
    {
      "inputs": [
        {
          "internalType": "uint256",
          "name": "redeemTCandTPFee_",
          "type": "uint256"
        }
      ],
      "name": "setRedeemTCandTPFee",
      "outputs": [],
      "stateMutability": "nonpayable",
      "type": "function"
    },
    {
      "inputs": [
        {
          "internalType": "uint256",
          "name": "successFee_",
          "type": "uint256"
        }
      ],
      "name": "setSuccessFee",
      "outputs": [],
      "stateMutability": "nonpayable",
      "type": "function"
    },
    {
      "inputs": [
        {
          "internalType": "uint256",
          "name": "swapTCforTPFee_",
          "type": "uint256"
        }
      ],
      "name": "setSwapTCforTPFee",
      "outputs": [],
      "stateMutability": "nonpayable",
      "type": "function"
    },
    {
      "inputs": [
        {
          "internalType": "uint256",
          "name": "swapTPforTCFee_",
          "type": "uint256"
        }
      ],
      "name": "setSwapTPforTCFee",
      "outputs": [],
      "stateMutability": "nonpayable",
      "type": "function"
    },
    {
      "inputs": [
        {
          "internalType": "uint256",
          "name": "swapTPforTPFee_",
          "type": "uint256"
        }
      ],
      "name": "setSwapTPforTPFee",
      "outputs": [],
      "stateMutability": "nonpayable",
      "type": "function"
    },
    {
      "inputs": [
        {
          "internalType": "address",
          "name": "tcInterestCollectorAddress_",
          "type": "address"
        }
      ],
      "name": "setTCInterestCollectorAddress",
      "outputs": [],
      "stateMutability": "nonpayable",
      "type": "function"
    },
    {
      "inputs": [
        {
          "internalType": "uint256",
          "name": "tcInterestPaymentBlockSpan_",
          "type": "uint256"
        }
      ],
      "name": "setTCInterestPaymentBlockSpan",
      "outputs": [],
      "stateMutability": "nonpayable",
      "type": "function"
    },
    {
      "inputs": [
        {
          "internalType": "uint256",
          "name": "tcInterestRate_",
          "type": "uint256"
        }
      ],
      "name": "setTCInterestRate",
      "outputs": [],
      "stateMutability": "nonpayable",
      "type": "function"
    },
    {
      "inputs": [
        {
          "internalType": "uint256",
          "name": "tcMintFee_",
          "type": "uint256"
        }
      ],
      "name": "setTcMintFee",
      "outputs": [],
      "stateMutability": "nonpayable",
      "type": "function"
    },
    {
      "inputs": [
        {
          "internalType": "uint256",
          "name": "tcRedeemFee_",
          "type": "uint256"
        }
      ],
      "name": "setTcRedeemFee",
      "outputs": [],
      "stateMutability": "nonpayable",
      "type": "function"
    },
    {
      "inputs": [],
      "name": "shouldCalculateEma",
      "outputs": [
        {
          "internalType": "bool",
          "name": "",
          "type": "bool"
        }
      ],
      "stateMutability": "view",
      "type": "function"
    },
    {
      "inputs": [],
      "name": "stoppable",
      "outputs": [
        {
          "internalType": "bool",
          "name": "",
          "type": "bool"
        }
      ],
      "stateMutability": "view",
      "type": "function"
    },
    {
      "inputs": [],
      "name": "successFee",
      "outputs": [
        {
          "internalType": "uint256",
          "name": "",
          "type": "uint256"
        }
      ],
      "stateMutability": "view",
      "type": "function"
    },
    {
      "inputs": [
        {
          "internalType": "address",
          "name": "tp_",
          "type": "address"
        },
        {
          "internalType": "uint256",
          "name": "qTC_",
          "type": "uint256"
        },
        {
          "internalType": "uint256",
          "name": "qTPmin_",
          "type": "uint256"
        },
        {
          "internalType": "uint256",
          "name": "qACmax_",
          "type": "uint256"
        }
      ],
      "name": "swapTCforTP",
      "outputs": [
        {
          "internalType": "uint256",
          "name": "operId",
          "type": "uint256"
        }
      ],
      "stateMutability": "payable",
      "type": "function"
    },
    {
      "inputs": [],
      "name": "swapTCforTPFee",
      "outputs": [
        {
          "internalType": "uint256",
          "name": "",
          "type": "uint256"
        }
      ],
      "stateMutability": "view",
      "type": "function"
    },
    {
      "inputs": [
        {
          "internalType": "address",
          "name": "tp_",
          "type": "address"
        },
        {
          "internalType": "uint256",
          "name": "qTC_",
          "type": "uint256"
        },
        {
          "internalType": "uint256",
          "name": "qTPmin_",
          "type": "uint256"
        },
        {
          "internalType": "uint256",
          "name": "qACmax_",
          "type": "uint256"
        },
        {
          "internalType": "address",
          "name": "vendor_",
          "type": "address"
        }
      ],
      "name": "swapTCforTPViaVendor",
      "outputs": [
        {
          "internalType": "uint256",
          "name": "operId",
          "type": "uint256"
        }
      ],
      "stateMutability": "payable",
      "type": "function"
    },
    {
      "inputs": [
        {
          "internalType": "address",
          "name": "tp_",
          "type": "address"
        },
        {
          "internalType": "uint256",
          "name": "qTC_",
          "type": "uint256"
        },
        {
          "internalType": "uint256",
          "name": "qTPmin_",
          "type": "uint256"
        },
        {
          "internalType": "uint256",
          "name": "qACmax_",
          "type": "uint256"
        },
        {
          "internalType": "address",
          "name": "recipient_",
          "type": "address"
        }
      ],
      "name": "swapTCforTPto",
      "outputs": [
        {
          "internalType": "uint256",
          "name": "operId",
          "type": "uint256"
        }
      ],
      "stateMutability": "payable",
      "type": "function"
    },
    {
      "inputs": [
        {
          "internalType": "address",
          "name": "tp_",
          "type": "address"
        },
        {
          "internalType": "uint256",
          "name": "qTC_",
          "type": "uint256"
        },
        {
          "internalType": "uint256",
          "name": "qTPmin_",
          "type": "uint256"
        },
        {
          "internalType": "uint256",
          "name": "qACmax_",
          "type": "uint256"
        },
        {
          "internalType": "address",
          "name": "recipient_",
          "type": "address"
        },
        {
          "internalType": "address",
          "name": "vendor_",
          "type": "address"
        }
      ],
      "name": "swapTCforTPtoViaVendor",
      "outputs": [
        {
          "internalType": "uint256",
          "name": "operId",
          "type": "uint256"
        }
      ],
      "stateMutability": "payable",
      "type": "function"
    },
    {
      "inputs": [
        {
          "internalType": "address",
          "name": "tp_",
          "type": "address"
        },
        {
          "internalType": "uint256",
          "name": "qTP_",
          "type": "uint256"
        },
        {
          "internalType": "uint256",
          "name": "qTCmin_",
          "type": "uint256"
        },
        {
          "internalType": "uint256",
          "name": "qACmax_",
          "type": "uint256"
        }
      ],
      "name": "swapTPforTC",
      "outputs": [
        {
          "internalType": "uint256",
          "name": "operId",
          "type": "uint256"
        }
      ],
      "stateMutability": "payable",
      "type": "function"
    },
    {
      "inputs": [],
      "name": "swapTPforTCFee",
      "outputs": [
        {
          "internalType": "uint256",
          "name": "",
          "type": "uint256"
        }
      ],
      "stateMutability": "view",
      "type": "function"
    },
    {
      "inputs": [
        {
          "internalType": "address",
          "name": "tp_",
          "type": "address"
        },
        {
          "internalType": "uint256",
          "name": "qTP_",
          "type": "uint256"
        },
        {
          "internalType": "uint256",
          "name": "qTCmin_",
          "type": "uint256"
        },
        {
          "internalType": "uint256",
          "name": "qACmax_",
          "type": "uint256"
        },
        {
          "internalType": "address",
          "name": "vendor_",
          "type": "address"
        }
      ],
      "name": "swapTPforTCViaVendor",
      "outputs": [
        {
          "internalType": "uint256",
          "name": "operId",
          "type": "uint256"
        }
      ],
      "stateMutability": "payable",
      "type": "function"
    },
    {
      "inputs": [
        {
          "internalType": "address",
          "name": "tp_",
          "type": "address"
        },
        {
          "internalType": "uint256",
          "name": "qTP_",
          "type": "uint256"
        },
        {
          "internalType": "uint256",
          "name": "qTCmin_",
          "type": "uint256"
        },
        {
          "internalType": "uint256",
          "name": "qACmax_",
          "type": "uint256"
        },
        {
          "internalType": "address",
          "name": "recipient_",
          "type": "address"
        }
      ],
      "name": "swapTPforTCto",
      "outputs": [
        {
          "internalType": "uint256",
          "name": "operId",
          "type": "uint256"
        }
      ],
      "stateMutability": "payable",
      "type": "function"
    },
    {
      "inputs": [
        {
          "internalType": "address",
          "name": "tp_",
          "type": "address"
        },
        {
          "internalType": "uint256",
          "name": "qTP_",
          "type": "uint256"
        },
        {
          "internalType": "uint256",
          "name": "qTCmin_",
          "type": "uint256"
        },
        {
          "internalType": "uint256",
          "name": "qACmax_",
          "type": "uint256"
        },
        {
          "internalType": "address",
          "name": "recipient_",
          "type": "address"
        },
        {
          "internalType": "address",
          "name": "vendor_",
          "type": "address"
        }
      ],
      "name": "swapTPforTCtoViaVendor",
      "outputs": [
        {
          "internalType": "uint256",
          "name": "operId",
          "type": "uint256"
        }
      ],
      "stateMutability": "payable",
      "type": "function"
    },
    {
      "inputs": [
        {
          "internalType": "address",
          "name": "tpFrom_",
          "type": "address"
        },
        {
          "internalType": "address",
          "name": "tpTo_",
          "type": "address"
        },
        {
          "internalType": "uint256",
          "name": "qTP_",
          "type": "uint256"
        },
        {
          "internalType": "uint256",
          "name": "qTPmin_",
          "type": "uint256"
        },
        {
          "internalType": "uint256",
          "name": "qACmax_",
          "type": "uint256"
        }
      ],
      "name": "swapTPforTP",
      "outputs": [
        {
          "internalType": "uint256",
          "name": "operId",
          "type": "uint256"
        }
      ],
      "stateMutability": "payable",
      "type": "function"
    },
    {
      "inputs": [],
      "name": "swapTPforTPFee",
      "outputs": [
        {
          "internalType": "uint256",
          "name": "",
          "type": "uint256"
        }
      ],
      "stateMutability": "view",
      "type": "function"
    },
    {
      "inputs": [
        {
          "internalType": "address",
          "name": "tpFrom_",
          "type": "address"
        },
        {
          "internalType": "address",
          "name": "tpTo_",
          "type": "address"
        },
        {
          "internalType": "uint256",
          "name": "qTP_",
          "type": "uint256"
        },
        {
          "internalType": "uint256",
          "name": "qTPmin_",
          "type": "uint256"
        },
        {
          "internalType": "uint256",
          "name": "qACmax_",
          "type": "uint256"
        },
        {
          "internalType": "address",
          "name": "vendor_",
          "type": "address"
        }
      ],
      "name": "swapTPforTPViaVendor",
      "outputs": [
        {
          "internalType": "uint256",
          "name": "operId",
          "type": "uint256"
        }
      ],
      "stateMutability": "payable",
      "type": "function"
    },
    {
      "inputs": [
        {
          "internalType": "address",
          "name": "tpFrom_",
          "type": "address"
        },
        {
          "internalType": "address",
          "name": "tpTo_",
          "type": "address"
        },
        {
          "internalType": "uint256",
          "name": "qTP_",
          "type": "uint256"
        },
        {
          "internalType": "uint256",
          "name": "qTPmin_",
          "type": "uint256"
        },
        {
          "internalType": "uint256",
          "name": "qACmax_",
          "type": "uint256"
        },
        {
          "internalType": "address",
          "name": "recipient_",
          "type": "address"
        }
      ],
      "name": "swapTPforTPto",
      "outputs": [
        {
          "internalType": "uint256",
          "name": "operId",
          "type": "uint256"
        }
      ],
      "stateMutability": "payable",
      "type": "function"
    },
    {
      "inputs": [
        {
          "internalType": "address",
          "name": "tpFrom_",
          "type": "address"
        },
        {
          "internalType": "address",
          "name": "tpTo_",
          "type": "address"
        },
        {
          "internalType": "uint256",
          "name": "qTP_",
          "type": "uint256"
        },
        {
          "internalType": "uint256",
          "name": "qTPmin_",
          "type": "uint256"
        },
        {
          "internalType": "uint256",
          "name": "qACmax_",
          "type": "uint256"
        },
        {
          "internalType": "address",
          "name": "recipient_",
          "type": "address"
        },
        {
          "internalType": "address",
          "name": "vendor_",
          "type": "address"
        }
      ],
      "name": "swapTPforTPtoViaVendor",
      "outputs": [
        {
          "internalType": "uint256",
          "name": "operId",
          "type": "uint256"
        }
      ],
      "stateMutability": "payable",
      "type": "function"
    },
    {
      "inputs": [],
      "name": "tcHoldersInterestPayment",
      "outputs": [],
      "stateMutability": "nonpayable",
      "type": "function"
    },
    {
      "inputs": [],
      "name": "tcInterestCollectorAddress",
      "outputs": [
        {
          "internalType": "address",
          "name": "",
          "type": "address"
        }
      ],
      "stateMutability": "view",
      "type": "function"
    },
    {
      "inputs": [],
      "name": "tcInterestPaymentBlockSpan",
      "outputs": [
        {
          "internalType": "uint256",
          "name": "",
          "type": "uint256"
        }
      ],
      "stateMutability": "view",
      "type": "function"
    },
    {
      "inputs": [],
      "name": "tcInterestRate",
      "outputs": [
        {
          "internalType": "uint256",
          "name": "",
          "type": "uint256"
        }
      ],
      "stateMutability": "view",
      "type": "function"
    },
    {
      "inputs": [],
      "name": "tcMintFee",
      "outputs": [
        {
          "internalType": "uint256",
          "name": "",
          "type": "uint256"
        }
      ],
      "stateMutability": "view",
      "type": "function"
    },
    {
      "inputs": [],
      "name": "tcRedeemFee",
      "outputs": [
        {
          "internalType": "uint256",
          "name": "",
          "type": "uint256"
        }
      ],
      "stateMutability": "view",
      "type": "function"
    },
    {
      "inputs": [],
      "name": "tcToken",
      "outputs": [
        {
          "internalType": "contract MocTC",
          "name": "",
          "type": "address"
        }
      ],
      "stateMutability": "view",
      "type": "function"
    },
    {
      "inputs": [
        {
          "internalType": "uint256",
          "name": "",
          "type": "uint256"
        }
      ],
      "name": "tpCtarg",
      "outputs": [
        {
          "internalType": "uint256",
          "name": "",
          "type": "uint256"
        }
      ],
      "stateMutability": "view",
      "type": "function"
    },
    {
      "inputs": [
        {
          "internalType": "uint256",
          "name": "",
          "type": "uint256"
        }
      ],
      "name": "tpEma",
      "outputs": [
        {
          "internalType": "uint256",
          "name": "ema",
          "type": "uint256"
        },
        {
          "internalType": "uint256",
          "name": "sf",
          "type": "uint256"
        }
      ],
      "stateMutability": "view",
      "type": "function"
    },
    {
      "inputs": [
        {
          "internalType": "uint256",
          "name": "",
          "type": "uint256"
        }
      ],
      "name": "tpLiqPrices",
      "outputs": [
        {
          "internalType": "uint256",
          "name": "",
          "type": "uint256"
        }
      ],
      "stateMutability": "view",
      "type": "function"
    },
    {
      "inputs": [
        {
          "internalType": "address",
          "name": "",
          "type": "address"
        }
      ],
      "name": "tpMintFees",
      "outputs": [
        {
          "internalType": "uint256",
          "name": "",
          "type": "uint256"
        }
      ],
      "stateMutability": "view",
      "type": "function"
    },
    {
      "inputs": [
        {
          "internalType": "address",
          "name": "",
          "type": "address"
        }
      ],
      "name": "tpRedeemFees",
      "outputs": [
        {
          "internalType": "uint256",
          "name": "",
          "type": "uint256"
        }
      ],
      "stateMutability": "view",
      "type": "function"
    },
    {
      "inputs": [
        {
          "internalType": "uint256",
          "name": "",
          "type": "uint256"
        }
      ],
      "name": "tpTokens",
      "outputs": [
        {
          "internalType": "contract IMocRC20",
          "name": "",
          "type": "address"
        }
      ],
      "stateMutability": "view",
      "type": "function"
    },
    {
      "inputs": [
        {
          "internalType": "address",
          "name": "owner_",
          "type": "address"
        },
        {
          "internalType": "uint256",
          "name": "qACToUnlock_",
          "type": "uint256"
        }
      ],
      "name": "unlockACInPending",
      "outputs": [],
      "stateMutability": "nonpayable",
      "type": "function"
    },
    {
      "inputs": [
        {
          "internalType": "address",
          "name": "owner_",
          "type": "address"
        },
        {
          "internalType": "uint256",
          "name": "qTCToUnlock_",
          "type": "uint256"
        }
      ],
      "name": "unlockTCInPending",
      "outputs": [],
      "stateMutability": "nonpayable",
      "type": "function"
    },
    {
      "inputs": [
        {
          "internalType": "address",
          "name": "owner_",
          "type": "address"
        },
        {
          "internalType": "contract IERC20Upgradeable",
          "name": "tpToken_",
          "type": "address"
        },
        {
          "internalType": "uint256",
          "name": "qTPToUnlock_",
          "type": "uint256"
        }
      ],
      "name": "unlockTPInPending",
      "outputs": [],
      "stateMutability": "nonpayable",
      "type": "function"
    },
    {
      "inputs": [],
      "name": "unpause",
      "outputs": [],
      "stateMutability": "nonpayable",
      "type": "function"
    },
    {
      "inputs": [],
      "name": "updateEmas",
      "outputs": [],
      "stateMutability": "nonpayable",
      "type": "function"
    },
    {
      "inputs": [
        {
          "internalType": "address",
          "name": "newImplementation",
          "type": "address"
        }
      ],
      "name": "upgradeTo",
      "outputs": [],
      "stateMutability": "nonpayable",
      "type": "function"
    },
    {
      "inputs": [
        {
          "internalType": "address",
          "name": "newImplementation",
          "type": "address"
        },
        {
          "internalType": "bytes",
          "name": "data",
          "type": "bytes"
        }
      ],
      "name": "upgradeToAndCall",
      "outputs": [],
      "stateMutability": "payable",
      "type": "function"
    }
  ],
  "bytecode": "0x60a08060405234620000e157306080526000549060ff8260081c166200008f575060ff8082160362000053575b604051615e0f9081620000e782396080518181816128fb01528181612a6a0152612fe10152f35b60ff90811916176000557f7f26b83ff96e1f2b6a682f133852f6798a09c465da95921460cefb3847402498602060405160ff8152a1386200002c565b62461bcd60e51b815260206004820152602760248201527f496e697469616c697a61626c653a20636f6e747261637420697320696e697469604482015266616c697a696e6760c81b6064820152608490fd5b600080fdfe604060808152600436101561001357600080fd5b600060e0908035821c91826301dde6ef1461387b57826301f1b684146138345782630579188f1461379b578263073763b9146137775782630bb7f608146137585782630c340a241461372f5782630c36d8971461370f5782630d6ac463146136c95782630db49656146136a95782630e0a8fd2146136855782630f1e5e2b1461363f57826313ed7ba51461361557826315266e36146135f857826317937f9b146135c15782631867e2f5146135a15782631fb0dda0146135785782631fe6a7ad1461353e5782632069f7531461351a578263235e81cf1461332857826323b98cde1461330057826324ffaba3146132c357826325bc6c411461329957826327eab2a1146132535782632a20d57d146132335782632b764fad146132165782632c43bd3b146131f25782632d88af4a1461319b5782632ded50f01461317b578263333431fd1461315b57826333421c381461306057826334246862146130465782633659cfe614612fac5782633915edcb14612f7b578263391bf6cf14612e635782633bc4ac0a14612e3f5782633cfb09ef14612df95782633dbc50a914612ddf5782633f4ba83a14612d645782634017936a14612d33578263407f0e3414612d135782634310adc614612ce057826344719ee914612ca9578263466b893414612c72578263471a80e314612c3f578263484ad7cd14612c085782634af3a6fc14612b895782634b74600114612b3f5782634d977e7814612b1f5782634e1f907a14612af55782634f0f27ee14612ad55782634f1ef286146129e15782635210570c146129bb57826352d1902d146128e657826352e18f8f146128cb578263533a4bea1461289a57826353b16d1714612855578263543aeb481461283157826357271f4d146128015782635860ee63146127e157826358f32de9146127995782635c616a731461259e5782635c975abb146125775782635cfbe578146125575782635e2a60651461253d5782635ece17ef1461252057826360009e0b146124f657826360a01dfa14611fae578263647846a514611f8457826364ec230a14611f60578263662013f414611f435782636827435714611f1a57826368f015df14611eba5782636b5488df14611e9a5782636f30471f14611e7a5782637071346814611e56578263735d396014611e1057826373e28af914611dec57826374873ad314611dcf5782637554fffd14611daf5782637622805514611d8f5782637750ba0c14611d6b57826379f9a91c14611d4b5782637a193c3114611d2b5782637a4ff1d914611d075782637a727fe814611ce75782637af5758c14611cc35782637b21b27414611ca65782637cba238314611c825782637d8e031414611c435782637f01c71514611c195782637f13b99814611be35782637f4a4fe014611bc3578263826fcd5814611ba0578263842d574814611b855782638456cb5914611af057826385bf959314611aaa578263883d21cb146119e957826389fd503e146119cf5782638acc2011146119b55782638cfa4241146119955782638d7a72f3146119755782638e2bdb861461194b5782638f1a383a146119235782639853c35a146118f957826398b2086f146118df5782639abb14c9146118c05782639ad6659d1461188a5782639bea71a4146118485782639cabfc00146117fc5782639fd0506d146117cf5782639fd8ed0e146117b5578263a8e9ac3014611792578263aaf91eff14611775578263aaf925f61461175a578263ac0c88ab14611740578263ad4e666d14611561578263aea038dc14611541578263aeb41e6914611524578263b4434c3214611366578263b5e9ea8c1461133c578263b85edd6514611322578263b9fa641314611302578263bb4872de146112de578263bc4e55b214611210578263becaca6b146111ec578263bfe4262114610ff1578263c00f538d14610fcd578263c039cc6914610f8b578263c09c30bd14610f41578263c239fca414610f26578263c84353c914610f02578263cf351c1d14610ebc578263d1a0faa014610ea3578263d6af11da14610e67578263d76dc7fd14610e4d578263d87aab6f14610e2d578263d8c69aec14610d17578263d8db6f5a14610cd1578263db79607214610c94578263ddb6d19014610c57578263de8d520a14610c24578263e23c135c14610c0b578263e2c5e99014610baa578263e3867eeb14610b8c578263e401294514610b59578263e4c0aaf414610b14578263e6a683e014610ace578263e6b1627c14610a8a578263e7c2597814610a65578263e8859a1514610a48578263ea302a9714610a2d578263ee1f438f14610a03578263f13f4054146109d9578263f26114aa1461097457508163f280877814610951578163f2f9f45614610937578163f30b561414610918578163f375cfba146108f9578163f88b143414610890578163fa6e83bd14610871578163fadda424146107fa578163fd80fa77146107df578163fda70f8b146107c0578163fe6b92c11461079d57508063fed0ade4146107835763ffe315391461074557600080fd5b606036600319011261077e57604435906001600160a01b038216820361077e5761077760209233602435600435614dff565b9051908152f35b600080fd5b6020826107776107943660046139cb565b92919091614dff565b82346107bc57816003193601126107bc57602090610135549051908152f35b5080fd5b82346107bc57816003193601126107bc5760209061013c549051908152f35b826107776020926107f1366004613a8e565b93929092615594565b90503461086e57602036600319011261086e57506001600160a01b03600435818116810361077e57610838610830600192614519565b6101376139f1565b50015416610845816145b5565b91909115610857575060209151908152f35b602490835190637f6e4db960e01b82526004820152fd5b80fd5b82346107bc57816003193601126107bc5760209061013a549051908152f35b90503461086e57602036600319011261086e5750600435906001600160a01b038216820361077e576107776108eb6020936108d46108cc614ca8565b919092614519565b916108f36108e28484614218565b5194859361422c565b959094614c05565b90614b02565b82346107bc57816003193601126107bc57602090610141549051908152f35b82346107bc57816003193601126107bc57602090610131549051908152f35b602083610777610948366004613a61565b92913392614f7a565b3461086e57602036600319011261086e5761096a615ce4565b60043561013c5580f35b8390346109d5573660031901126107bc576109d190610991615ce4565b516379308a5560e11b60208201526109bf816109b1600460248301614a0e565b03601f198101835282613a0d565b6101f6546001600160a01b03166148db565b5080f35b8280fd5b5082346107bc57816003193601126107bc576101305490516001600160a01b039091168152602090f35b5082346107bc57816003193601126107bc576101525490516001600160a01b039091168152602090f35b60208461077784610a3f366004613a8e565b939290926151fa565b5082346107bc57816003193601126107bc57602090610777614bc8565b5082346107bc57816003193601126107bc5760209060ff61014b541690519015158152f35b5082346107bc5760203660031901126107bc5760043561018e8054821015610aca5790610ab6916139f1565b506001815491015482519182526020820152f35b8380fd5b503461086e57602036600319011261086e576004356001600160a01b0381169081900361077e57610afd615ce4565b6101f680546001600160a01b031916909117905580f35b503461086e57602036600319011261086e576004356001600160a01b038116908190036107bc57610b43615ce4565b6001600160601b0360a01b609754161760975580f35b5082606036600319011261077e576044356001600160a01b038116810361077e57602092610777916024356004356153d2565b60208461077784610b9e366004613ac0565b949390939291926150ad565b83823461086e57606036600319011261086e576001600160a01b03600435818116810361077e57602435918083168303610aca5761014f54163303610bfa5790610bf79160443591615cab565b80f35b8351631974847760e01b8152600490fd5b503461086e578060031936011261086e57610bf7614153565b5082346107bc57816003193601126107bc57602090610777610c4c610c4761461b565b61422c565b905061013154614130565b5082346107bc5760203660031901126107bc576004356001600160a01b0381169081900361077e5782829160209452610145845220549051908152f35b8390346109d5573660031901126107bc576109d190610cb1615ce4565b51636dbcb03960e11b60208201526109bf816109b1600460248301614a0e565b503461086e57602036600319011261086e576004356001600160a01b0381169081900361077e57610d00615ce4565b61015280546001600160a01b031916909117905580f35b909150346107bc5736600319011261086e5750610d3261567f565b5061014f546001600160a01b03919082163303610e1d57610de291610d58366004615c38565b91610d6161567f565b50610d6a614f58565b610d72615d72565b610dbe610daf8251633dad0bd760e11b6020820152610d9460248201876152a0565b60e48152610da461010482613a0d565b846101f654166148db565b60208082518301019101615bdd565b86848760808498969b95979a015116918860c08160a08401511692015116926159e9565b6004359380851680950361077e57608435908116810361077e57610e1994610e0f91886044350391615cab565b519485948561398b565b0390f35b51631974847760e01b8152600490fd5b5082346107bc57816003193601126107bc57602090610155549051908152f35b602084610777610e5e366004613b00565b93929092615034565b5082346107bc57816003193601126107bc57602090610777610e896001614655565b610e9d610e968284614370565b91836142ba565b9161469c565b503461086e578060031936011261086e57610bf7614d6b565b503461086e57602036600319011261086e576004356001600160a01b0381169081900361077e57610eeb615ce4565b61012f80546001600160a01b031916909117905580f35b503461086e57602036600319011261086e57610f1c615ce4565b60043561014c5580f35b60208461077784610f38366004613a61565b92919091615034565b508260a03660031901126107bc576001600160a01b039160043590838216820361077e57602435938416840361077e576020936107779233916084359160643591604435916150ad565b5082346107bc57816003193601126107bc57602090610777610fc0610fc7610fb4610c4761461b565b61013193919354614130565b9182614130565b90615d93565b503461086e57602036600319011261086e57610fe7615ce4565b60043561013d5580f35b83823461086e5760a036600319011261086e5761100c61567f565b5061014f546001600160a01b0390811633036111db5761102d3660046156a6565b9161103661567f565b5061103f614f58565b611047615d72565b61104f614d6b565b61106261105a614ca8565b819291615703565b90916110718284885193614aa3565b8181106111be575050670de0b6b3a76400009161109361109992875192614a6f565b9061433d565b049182156111ad57938394816110d295019080825116916110c76080890193878486511661013d5492615746565b969188999199614130565b9660208a015180891061119057508951906101346110f1838254614130565b9055611101610131918254614130565b905583610133541690813b156109d5578651632770a7eb60e21b815230600482015260248101919091529082908290604490829084905af1801561118657611171575b5050968561116793838060608996610e199b9c9d511695015116915116926159e9565b5193849384613924565b61117c828092613a0d565b61086e5780611144565b86513d84823e3d90fd5b604490898851916354cde31360e01b835260048301526024820152fd5b845163f3e39b5d60e01b8152600490fd5b6044925087519163a5db715d60e01b835260048301526024820152fd5b8251631974847760e01b8152600490fd5b503461086e57602036600319011261086e57611206615ce4565b6004356101395580f35b909150346107bc5736600319011261086e575061122b61567f565b5061014f546001600160a01b0390811633036112cd57610e19610e0f91611253366004615c38565b9361125c61567f565b50611265614f58565b61126d615d72565b61128f610daf825163f5571e0160e01b6020820152610d9460248201896152a0565b948860608793969599949a019182516112ac61014e918254614130565b905560c06112c28b836080860151169551614130565b9201511691806159e9565b8151631974847760e01b8152600490fd5b5082346107bc57816003193601126107bc5760209060ff60ca541690519015158152f35b5082346107bc57816003193601126107bc5760209061015b549051908152f35b60208461077784611334366004613962565b9133936152f0565b5082346107bc57816003193601126107bc576101535490516001600160a01b039091168152602090f35b83823461086e5760c036600319011261086e5761138161567f565b5061014f546001600160a01b03929083163303610e1d5761141b6113a6366004615aa2565b916113af61567f565b506113b8614f58565b6113c0615d72565b6113c8614d6b565b6113d0614ca8565b6113df87869593955116614519565b936113ff6113ed8684614218565b51926113f984886149bd565b82615703565b602088959295019484865194611415828b614c05565b90615b0b565b81811061150757505094809661143561146d978451615d93565b94606087019061146283835116888a8960a082019888808b51169351168152610144602052205492615746565b9891829b919b61420b565b98878101968751808c116114ea57508a156114d957948996946114b482958d9e9f95610e199e958560806111679e9c6114a96114cf9b86615b23565b5192015116926148fd565b86516114c461014e918254614130565b905551169451614130565b91511691806159e9565b885163f3e39b5d60e01b8152600490fd5b6044908c8b5191630b63f1a760e01b835260048301526024820152fd5b6044925084519163c39b739f60e01b835260048301526024820152fd5b602084610777611535366004613a8e565b93929190913393615594565b5082346107bc57816003193601126107bc5760209061013d549051908152f35b83823461086e5760c036600319011261086e5761157c61567f565b5061014f546001600160a01b0390811633036111db579061163f916115a2366004615aa2565b936115ab61567f565b506115b4614f58565b6115bc615d72565b6115c461461b565b926115d183875116614519565b926115f46115df8587614218565b51956115eb87876149bd565b61014954615703565b505061160560208801958651615d93565b916060880190828251169361163460a08b0195828c87808a511691511686526101456020528986205492615746565b9891839b919b614130565b98821561172f57878c0151808b10611712575085916116979161166360018d615b23565b5193611671826101376139f1565b5061167d868254614130565b905561168d610131918254614130565b905561013561389f565b90549060031b1c1690813b156109d5578651632770a7eb60e21b815230600482015260248101919091529082908290604490829084905af18015611186576116fd575b5050968561116793838060808996610e199b9c9d511695015116915116926159e9565b611708828092613a0d565b61086e57806116da565b6044908b8a51916354cde31360e01b835260048301526024820152fd5b875163f3e39b5d60e01b8152600490fd5b60208461077784611752366004613962565b9133936151fa565b6020846107778461176c366004613a61565b92919091614f7a565b602084610777611786366004613a8e565b939291909133936152f0565b5082346107bc57816003193601126107bc5760209061018f544310159051908152f35b6020846107776117c6366004613b00565b93929092614f7a565b5082346107bc57816003193601126107bc5760ca54905160109190911c6001600160a01b03168152602090f35b83823461086e57602036600319011261086e576004356001600160a01b038116919082900361077e57829181526101366020522060ff6001825492015416825191825215156020820152f35b83823461086e578160031936011261086e57506001600160a01b0390600435828116810361077e57602435928316830361077e57602092610777913390614859565b5082346107bc57816003193601126107bc576020906118b36118ad610c4761461b565b906143e1565b61014a5410159051908152f35b50828060031936011261077e57610777602092336024356004356153d2565b6020846107776118f0366004613a61565b92913392615034565b5082346107bc57816003193601126107bc576101465490516001600160a01b039091168152602090f35b5082346107bc57816003193601126107bc57602090611943610c4761461b565b509051908152f35b5082346107bc57816003193601126107bc576101585490516001600160a01b039091168152602090f35b5082346107bc57816003193601126107bc5760209061025c549051908152f35b5082346107bc57816003193601126107bc5760209061014a549051908152f35b6020846107776119c6366004613a61565b929133926154c5565b6020846107776119e0366004613b00565b939290926154c5565b83823461086e5760c036600319011261086e5750611a0561567f565b5061014f546001600160a01b0390811633036112cd57610e19610e0f91611a2d366004615aa2565b93611a3661567f565b50611a3f614f58565b611a47615d72565b611a78610daf8251637225da8960e11b6020820152611a696024820189614fef565b60c48152610da460e482613a0d565b9488858793969599949a01918251611a9461014e918254614130565b905560a06112c28b836060860151169551614130565b503461086e57602036600319011261086e576004356001600160a01b0381169081900361077e57611ad9615ce4565b61015380546001600160a01b031916909117905580f35b5082346107bc57816003193601126107bc57611b0a615d72565b60ca54601081901c6001600160a01b03163303611b745760ff811615611b635761ff0019166101001760ca55513381527f62e78cea01bee320cd4e420270b5ea74000d11b0c9f74754ebdbfc544b05a25890602090a180f35b815163866099c360e01b8152600490fd5b8151631d77d47760e21b8152600490fd5b60208461077784611b97366004613a8e565b939290926152f0565b5082346107bc57816003193601126107bc576020906107776118ad610c4761461b565b5082346107bc57816003193601126107bc5760209061015a549051908152f35b5082346107bc57816003193601126107bc57602090610777611c056001614655565b610e9d611c1282846142ba565b9183614370565b5082346107bc57816003193601126107bc576101c35490516001600160a01b039091168152602090f35b5082346107bc5760203660031901126107bc576004359161014890815484101561086e5750602092611c749161389f565b91905490519160031b1c8152f35b503461086e57602036600319011261086e57611c9c615ce4565b6004356101495580f35b602084610777611cb7366004613ac0565b949392909233946150ad565b503461086e57602036600319011261086e57611cdd615ce4565b6004356101405580f35b5082346107bc57816003193601126107bc57602090610190549051908152f35b503461086e57602036600319011261086e57611d21615ce4565b6004356101415580f35b5082346107bc57816003193601126107bc57602090610134549051908152f35b5082346107bc57816003193601126107bc57602090610142549051908152f35b503461086e57602036600319011261086e57611d85615ce4565b60043561013b5580f35b5082346107bc57816003193601126107bc57602090610156549051908152f35b5082346107bc57816003193601126107bc57602090610139549051908152f35b602084610777611de0366004613a8e565b939291909133936151fa565b503461086e57602036600319011261086e57611e06615ce4565b6004356101545580f35b503461086e57602036600319011261086e576004356001600160a01b0381169081900361077e57611e3f615ce4565b61015880546001600160a01b031916909117905580f35b503461086e57602036600319011261086e57611e70615ce4565b60043561013e5580f35b5082346107bc57816003193601126107bc57602090610154549051908152f35b5082346107bc57816003193601126107bc57602090610149549051908152f35b90915036600319011261086e5750600435906001600160a01b03808316830361077e5760243590808216820361077e5760a435818116810361077e5760c435918216820361077e57602094610777936084359160643591604435916150ad565b503461086e578060031936011261086e57611f33615ce4565b600160ff1960ca54161760ca5580f35b5082346107bc57816003193601126107bc57602090611943614ca8565b503461086e57602036600319011261086e57611f7a615ce4565b6004356101595580f35b5082346107bc57816003193601126107bc5761012f5490516001600160a01b039091168152602090f35b5082346107bc576104003660031901126107bc57815460ff8160081c1615908180926124e9575b80156124d2575b156124775760ff198116600117845581612466575b5060ff835460081c16612003816147f9565b610384356001600160a01b0381169081900361077e576101f680546001600160a01b03191690911790556001600160a01b03610344359081169081900361077e57610364356001600160a01b038116810361077e57600191612064846147f9565b61206d846147f9565b612076846147f9565b61207f846147f9565b6001600160601b0360a01b609754161760975561209b836147f9565b60ca5490620100008360b01b039060101b169061ff018360b01b031916171760ca556120c6816147f9565b670de0b6b3a764000060c43510612455576120e361010435615db7565b6120ef61012435615db7565b6120fb61014435615db7565b61210761016435615db7565b61211361018435615db7565b61211f6101a435615db7565b61212b6101c435615db7565b6121376101e435615db7565b61214361020435615db7565b61215b612156610244356102243561420b565b615db7565b6004356001600160a01b0381169081900361077e5761014f80546001600160a01b03191690911790556024356001600160a01b038116810361077e5761012f80546001600160a01b0319166001600160a01b03928316179055604435908116810361077e5761013080546001600160a01b0319166001600160a01b03928316179055606435908116810361077e5761013380546001600160a01b0319166001600160a01b03928316179055608435908116810361077e5761014680546001600160a01b0319166001600160a01b0392831617905560a435908116810361077e5761014780546001600160a01b0319166001600160a01b0392831617905560c4356101495560e43561014a556101043561013b556101243561013c556101443561013d556101643561013e556101843561013f556101a435610140556101c435610141556101e43561014255610204356101435561022435610139556102443561013a556102643561014c81905590610284359081169081900361077e5761015880546001600160a01b03191690911790556102a435610159556102c43561015a819055906001600160a01b036102e4359081169081900361077e5761015280546001600160a01b03191690911790556001600160a01b03610304359081169081900361077e57610153906001600160601b0360a01b82541617905561032435610154554361015755430161014d55430161015b5561014b61ffff1981541690556103a435612388826147f9565b801561244457610190819055430161018f556103c4356001600160a01b038116810361077e576123ba6123dc926147f9565b6101c380546001600160a01b0319166001600160a01b03909216919091179055565b6103e4356001600160a01b0381169081900361077e5761022980546001600160a01b031916909117905561240e575080f35b60207f7f26b83ff96e1f2b6a682f133852f6798a09c465da95921460cefb38474024989161ff001984541684555160018152a180f35b8351632a9ffab760e21b8152600490fd5b8251632a9ffab760e21b8152600490fd5b61ffff191661010117835583611ff1565b825162461bcd60e51b815260206004820152602e60248201527f496e697469616c697a61626c653a20636f6e747261637420697320616c72656160448201526d191e481a5b9a5d1a585b1a5e995960921b6064820152608490fd5b50303b158015611fdc5750600160ff821614611fdc565b50600160ff821610611fd5565b5082346107bc57816003193601126107bc576101335490516001600160a01b039091168152602090f35b6020846107776125313660046138e1565b94939093929192615594565b503461086e578060031936011261086e57602a61025c5580f35b5082346107bc57816003193601126107bc5760209061014e549051908152f35b5082346107bc57816003193601126107bc5760209060ff60ca5460081c1690519015158152f35b5082346107bc57816003193601126107bc576125b8615d72565b61014d805443106127885761014c54430190557fd3c59bda47e141a8ec5a33d241b7f71b86e30d359f83a9227d912858b60404fc8280a161013754826125fd82614417565b91845b8181106126b957505080612674575b918051928184019084526020918285015282518091528160608501930191855b82811061266057867fae5116a8119d08673a0f1dfa7546b95da4bd54bb17feda7c61130ac7859152f687870388a180f35b83518552938101939281019260010161262f565b61268b670de0b6b3a764000091610139549061433d565b0461013161269a828254614130565b9055610146546126b49082906001600160a01b0316613fda565b61260f565b6126c281614554565b6126cc81836149bd565b8661015091866126dc858561389f565b90549060031b1c918383136126f9575b5050505050600101612600565b9461273e83829699612744946127388561272b61273161275b9a60019e670de0b6b3a764000093849161013a5461433d565b0461433d565b0492614218565b5261420b565b9761389f565b819391549060031b91821b91600019901b19161790565b905561277e61276a8287614218565b5188848060a01b03610147541691846148fd565b90868886816126ec565b815163101b685960e01b8152600490fd5b83823461086e578160031936011261086e576001600160a01b03600435818116810361077e576024359161014f54163303610bfa5790610bf79161014e828154039055613fda565b5082346107bc57816003193601126107bc57602090610157549051908152f35b5082346107bc57816003193601126107bc5760209061077761025c54670de0b6b3a764000061014954049061420b565b503461086e57602036600319011261086e5761284b615ce4565b6004356101435580f35b83823461086e578160031936011261086e576001600160a01b03600435818116810361077e578161014f54163303610bfa5790610bf791602435916101335416615cab565b503461086e57602036600319011261086e576004356001600160a01b038116810361077e57610bf7906123ba615ce4565b602084610777846128dd366004613a61565b929190916154c5565b83823461086e578060031936011261086e57507f00000000000000000000000000000000000000000000000000000000000000006001600160a01b0316300361295257602090517f360894a13ba1a3210667c828492db98dca3e2076cc3735a920a3ca505d382bbc8152f35b5162461bcd60e51b815260206004820152603860248201527f555550535570677261646561626c653a206d757374206e6f742062652063616c60448201527f6c6564207468726f7567682064656c656761746563616c6c00000000000000006064820152608490fd5b503461086e578060031936011261086e576129d4615ce4565b60ff1960ca541660ca5580f35b5082806003193601126107bc57600435906001600160a01b0390818316830361077e5783926024359267ffffffffffffffff8411612ad15736602385011215612ad157836004013590612a3f612a3683613a45565b94519485613a0d565b8184523660248387010111612acd57610bf795602083612ac0946024600199018389013786010152807f00000000000000000000000000000000000000000000000000000000000000001690612a9782301415613b32565b7f360894a13ba1a3210667c828492db98dca3e2076cc3735a920a3ca505d382bbc541614613b93565b612ac8615ce4565b613bf4565b8580fd5b8480fd5b5082346107bc57816003193601126107bc5760209061013b549051908152f35b5082346107bc57816003193601126107bc576101475490516001600160a01b039091168152602090f35b5082346107bc57816003193601126107bc5760209061014c549051908152f35b5082346107bc5760203660031901126107bc576004356101378054821015610aca5790612b6b916139f1565b50805460019091015482519182526001600160a01b03166020820152f35b909150346107bc5736600319011261086e5750612ba461567f565b5061014f546001600160a01b0390811633036112cd57610e19610e0f91612bcc366004615c38565b93612bd561567f565b50612bde614f58565b612be6615d72565b61128f610daf825163d9b6c2e560e01b6020820152610d9460248201896152a0565b5082606036600319011261077e576004356001600160a01b038116810361077e576020926107779133906044359060243590614f7a565b83606036600319011261077e57604435906001600160a01b038216820361077e57610777602092336024356004356153d2565b5082606036600319011261077e576004356001600160a01b038116810361077e5760209261077791339060443590602435906154c5565b5082606036600319011261077e576004356001600160a01b038116810361077e576020926107779133906044359060243590615034565b5082606036600319011261077e576044356001600160a01b038116810361077e5760209261077791602435600435614dff565b5082346107bc57816003193601126107bc5760209061013e549051908152f35b5082346107bc57816003193601126107bc57602090610777612d5e612d56614ca8565b91909161422c565b91614aa3565b5082346107bc57816003193601126107bc5760ca5460ff8160081c1615612dce57601081901c6001600160a01b03163303611b745761ff00191660ca55513381527f5db9ee0a495bf2e6ff9c91a7834c1ba4fdd244a5e8aa4e537bd38aeae4b073aa90602090a180f35b8151637c7fd07960e01b8152600490fd5b602084610777612df03660046139cb565b929190916153d2565b503461086e57602036600319011261086e576004356001600160a01b0381169081900361077e57612e28615ce4565b61014f80546001600160a01b031916909117905580f35b503461086e57602036600319011261086e57612e59615ce4565b6004356101905580f35b9083346107bc57610100918260031936011261086e5750612e8261567f565b5061014f546001600160a01b039290831633036112cd57612ea582519182613a0d565b600435838116810361077e578152602435838116810361077e5760208201526044358282015260643560608201526080810191608435835260a43590848216820361077e5760a0830191825260c435858116810361077e5760c084015260e43592858416840361077e5785610e1995612f61610daf6109b1610da4866114cf9d610e0f98019a8b52612f3561567f565b50612f3e614f58565b612f46615d72565b88516370f090ed60e11b602082015292839160248301615196565b9892809b8a96939d929986516114c461014e918254614130565b5082346107bc5760203660031901126107bc576004359161013890815484101561086e5750602092611c749161389f565b5082346107bc5760203660031901126107bc57600435906001600160a01b0390818316830361077e57610bf79261300e8386947f00000000000000000000000000000000000000000000000000000000000000001690612a9782301415613b32565b613016615ce4565b61302b61302284613a45565b92519283613a0d565b828252601f1961303a84613a45565b01366020840137613bf4565b60208461077784613058366004613962565b913393615594565b5082346107bc57816003193601126107bc5761307a614153565b613082615d72565b61014b805460ff81168061314d575b80613133575b61309f578380f35b61ff00191661010017905580519082907f8b77276c97a5709f0d6db52329848a254eb760ce8be80d281799f633bdb69e838280a1610133546001600160a01b0316803b156109d55783600481858094638456cb5960e01b83525af19081156131285750613118575b5050613111614449565b8180808380f35b61312191613a0d565b8181613107565b51913d9150823e3d90fd5b506131426118ad610c4761461b565b61014a541015613097565b5060ff8160081c1615613091565b5082346107bc57816003193601126107bc5760209061013f549051908152f35b5082346107bc57816003193601126107bc57602090610143549051908152f35b503461086e57602036600319011261086e576004356001600160a01b03811681036107bc576131c8615ce4565b60ca805462010000600160b01b03191660109290921b62010000600160b01b031691909117905580f35b503461086e57602036600319011261086e5761320c615ce4565b60043561014a5580f35b6020846107776132273660046138e1565b949390939291926152f0565b5082346107bc57816003193601126107bc57602090610140549051908152f35b503461086e57602036600319011261086e576004356001600160a01b038116908190036107bc57613282615ce4565b61014780546001600160a01b031916909117905580f35b5082346107bc57816003193601126107bc576102295490516001600160a01b039091168152602090f35b5082346107bc5760203660031901126107bc576004356001600160a01b038116908190036109d55782829160209452610144845220549051908152f35b5082346107bc57816003193601126107bc5760209060ff61014b5460081c1690519015158152f35b5082346107bc5760a03660031901126107bc5761334361567f565b5061014f546001600160a01b039290831633036112cd57906133d49161336a3660046156a6565b9161337361567f565b5061337c614f58565b613384615d72565b670de0b6b3a76400006133a761109361339e6115eb61461b565b87519291614a6f565b04948184019080825116916133c96080870193898486511661013c5492615746565b96918a99919961420b565b9660208101998a51808a116134fd575088156134ec5781602091866060613457969551930151169061013461340a84825461420b565b905561341a61013191825461420b565b90556101335489516340c10f1960e01b81526001600160a01b03909216600483015260248201929092529384918716908290859082906044820190565b03925af180156134e05761348a575b50509661116792826114cf888895610e199a9b9c86516114c461014e918254614130565b6020823d82116134d8575b816134a260209383613a0d565b8101031261086e575092826114cf888895610e199a9b9c956134c661116799614031565b50959c9b509550985050819450613466565b3d9150613495565b508551903d90823e3d90fd5b865163f3e39b5d60e01b8152600490fd5b6044908a895191630b63f1a760e01b835260048301526024820152fd5b503461086e57602036600319011261086e57613534615ce4565b6004356101425580f35b503461086e57602036600319011261086e576004358015158091036107bc57613565615ce4565b61014b9060ff8019835416911617905580f35b5082346107bc57816003193601126107bc5760209061077761359b610c4761461b565b90614a6f565b5082346107bc57816003193601126107bc5760209061014d549051908152f35b5082346107bc5760203660031901126107bc57600435916001600160a01b038316830361086e575061077760209233903390614859565b6020846107776136093660046138e1565b949390939291926151fa565b5082346107bc57816003193601126107bc5761014f5490516001600160a01b039091168152602090f35b503461086e57602036600319011261086e576004356001600160a01b038116908190036107bc5761366e615ce4565b61013080546001600160a01b031916909117905580f35b503461086e57602036600319011261086e5761369f615ce4565b60043561013f5580f35b5082346107bc57816003193601126107bc57602090610159549051908152f35b503461086e57602036600319011261086e576004356001600160a01b038116908190036107bc576136f8615ce4565b61014680546001600160a01b031916909117905580f35b5082346107bc57816003193601126107bc5760209061018f549051908152f35b5082346107bc57816003193601126107bc5760975490516001600160a01b039091168152602090f35b5082806003193601126107bc5761077760209233602435600435614dff565b503461086e57602036600319011261086e57613791615ce4565b60043561015a5580f35b5082346107bc57816003193601126107bc576137b5615d72565b61015b805443106138235790610bf79161015a54430190557f0e37fda283839477a1b77e29acf8336c0e13a5daa967913df0fe5ad258c0822f6020670de0b6b3a764000061380a61013154610159549061433d565b049251838152a1610158546001600160a01b0316613fda565b815163acce20e560e01b8152600490fd5b5082346107bc5760203660031901126107bc576004359161013590815484101561086e57506020926138659161389f565b905491519160018060a01b039160031b1c168152f35b503461086e57602036600319011261086e57613895615ce4565b60043561013a5580f35b80548210156138b75760005260206000200190600090565b634e487b7160e01b600052603260045260246000fd5b35906001600160a01b038216820361077e57565b91908260c091031261077e576138f6826138cd565b9160208101359160408201359160608101359161392160a061391a608085016138cd565b93016138cd565b90565b604090613960939594929560c0820196825260208201520190606080918051845260208101516020850152604081015160408501520151910152565b565b919082608091031261077e57613977826138cd565b916020810135916060604083013592013590565b6139609360609296959360e08301978352602083015260408201520190606080918051845260208101516020850152604081015160408501520151910152565b919082608091031261077e57813591602081013591613921606061391a604085016138cd565b80548210156138b75760005260206000209060011b0190600090565b90601f8019910116810190811067ffffffffffffffff821117613a2f57604052565b634e487b7160e01b600052604160045260246000fd5b67ffffffffffffffff8111613a2f57601f01601f191660200190565b919082608091031261077e57613a76826138cd565b916020810135916139216060604084013593016138cd565b908160a091031261077e57613aa2816138cd565b916020820135916040810135916139216080606084013593016138cd565b91908260c091031261077e57613ad5826138cd565b91613ae2602082016138cd565b9160408201359160608101359161392160a0608084013593016138cd565b908160a091031261077e57613b14816138cd565b91602082013591604081013591613921608061391a606085016138cd565b15613b3957565b60405162461bcd60e51b815260206004820152602c60248201527f46756e6374696f6e206d7573742062652063616c6c6564207468726f7567682060448201526b19195b1959d85d1958d85b1b60a21b6064820152608490fd5b15613b9a57565b60405162461bcd60e51b815260206004820152602c60248201527f46756e6374696f6e206d7573742062652063616c6c6564207468726f7567682060448201526b6163746976652070726f787960a01b6064820152608490fd5b9060ff7f4910fdfa16fed3260ed0e7147f7cc6da11a60208b5b9406d12a635614ffd91435416600014613c2c57506139609150613de0565b6040516352d1902d60e01b8152602093919291906001600160a01b038316908581600481855afa60009181613db1575b50613cbd5760405162461bcd60e51b815260048101879052602e60248201527f45524331393637557067726164653a206e657720696d706c656d656e7461746960448201526d6f6e206973206e6f74205555505360901b6064820152608490fd5b9394937fc9f76b5ec45e5cdef99837d7b6d2467235c1df8933c8ca56df5c35afa2c7d44401613d5a57613cef83613de0565b7fbc7cd75a20ee27fd9adebab32041f755214dbc6bffa90cc0225b39da2e5c2d3b600080a283511590811591613d52575b50613d2a57505050565b600080613d4f94613d39613e82565b9481519101845af4613d49613ed6565b91613f06565b50565b905038613d20565b60405162461bcd60e51b815260048101859052602960248201527f45524331393637557067726164653a20756e737570706f727465642070726f786044820152681a58589b195555525160ba1b6064820152608490fd5b90918782813d8311613dd9575b613dc88183613a0d565b8101031261086e5750519038613c5c565b503d613dbe565b803b15613e27577f360894a13ba1a3210667c828492db98dca3e2076cc3735a920a3ca505d382bbc80546001600160a01b0319166001600160a01b03909216919091179055565b60405162461bcd60e51b815260206004820152602d60248201527f455243313936373a206e657720696d706c656d656e746174696f6e206973206e60448201526c1bdd08184818dbdb9d1c9858dd609a1b6064820152608490fd5b613e8c6027613a45565b90613e9a6040519283613a0d565b60278252660819985a5b195960ca1b6040837f416464726573733a206c6f772d6c6576656c2064656c65676174652063616c6c60208201520152565b3d15613f01573d90613ee782613a45565b91613ef56040519384613a0d565b82523d6000602084013e565b606090565b91929015613f685750815115613f1a575090565b3b15613f235790565b60405162461bcd60e51b815260206004820152601d60248201527f416464726573733a2063616c6c20746f206e6f6e2d636f6e74726163740000006044820152606490fd5b825190915015613f7b5750805190602001fd5b6040519062461bcd60e51b82528160208060048301528251908160248401526000935b828510613fc1575050604492506000838284010152601f80199101168101030190fd5b8481018201518686016044015293810193859350613f9e565b9080613fe4575050565b6102295460405163a9059cbb60e01b60208201526001600160a01b0393841660248201526044810192909252613960921661402c82606481015b03601f198101845283613a0d565b61403e565b5190811515820361077e57565b6020916140a1916001600160a01b031660008061405a86613a45565b936140686040519586613a0d565b8685527f5361666545524332303a206c6f772d6c6576656c2063616c6c206661696c656487860152868151910182855af1613d49613ed6565b8051828115918215614111575b50509050156140ba5750565b6084906040519062461bcd60e51b82526004820152602a60248201527f5361666545524332303a204552433230206f7065726174696f6e20646964206e6044820152691bdd081cdd58d8d9595960b21b6064820152fd5b838092935001031261077e57816141289101614031565b8082386140ae565b9190820391821161413d57565b634e487b7160e01b600052601160045260246000fd5b61415c30614190565b6101319061417961416f83548093614130565b61014e5490614130565b8061418357505050565b61418c9161420b565b9055565b610229546040516370a0823160e01b81526001600160a01b0392831660048201529160209183916024918391165afa9081156141ff576000916141d1575090565b906020823d82116141f7575b816141ea60209383613a0d565b8101031261086e57505190565b3d91506141dd565b6040513d6000823e3d90fd5b9190820180921161413d57565b80518210156138b75760209160051b010190565b906000916000906101378054906000925b828410614263575050505061425f670de0b6b3a764000091610139549061433d565b0490565b90919293956142b061429f6142aa6001936142a46142818a88614218565b5161428c818c6142d6565b95906142988d8c6139f1565b505461420b565b615d93565b9061420b565b9861420b565b940192919061423d565b9190916000838201938412911290801582169115161761413d57565b9190600090614304816000956142fa6142f18261015061389f565b93905492614389565b9160031b1c6142ba565b60008113614313575b50509190565b61433591945061272b92508094670de0b6b3a764000093849161013a5461433d565b04388061430d565b8181029291811591840414171561413d57565b811561435a570490565b634e487b7160e01b600052601260045260246000fd5b8181039291600013801582851316918412161761413d57565b614395816101376139f1565b505490670de0b6b3a76400009182810292818404149015171561413d57613921926143d56143c86143db9361015161389f565b90549060031b1c84614350565b92614350565b90614370565b80156143f75761429f6139219261013154614130565b505060001990565b67ffffffffffffffff8111613a2f5760051b60200190565b90614421826143ff565b61442e6040519182613a0d565b828152809261443f601f19916143ff565b0190602036910137565b610131548015613d4f576101379081549160009061446684614417565b9082905b8582106144d557505060005b848110614484575050505050565b6144a18461449c856144968587614218565b5161433d565b614350565b9061013891825468010000000000000000811015613a2f5761274481600195866144cd9401815561389f565b905501614476565b90926145116001916144e686614554565b6144f08787614218565b526142a46144fe87866139f1565b505461450a8888614218565b5190615d93565b93019061446a565b6001600160a01b0316600090815261013660205260409020600181015460ff1615614542575490565b60405163e6c4247b60e01b8152600490fd5b614560906101376139f1565b50600101546001600160a01b0316614577816145b5565b91909115614583575090565b60249060405190637f6e4db960e01b82526004820152fd5b919082604091031261077e57613921602083519301614031565b604080516359e02dd760e01b81529291839060049082906001600160a01b03165afa9182156141ff5760009081936145ec57509190565b905061461091925060403d8111614614575b6146088183613a0d565b81019061459b565b9091565b503d6145fe565b610137549061462982614417565b9160005b818110614638575050565b80614644600192614554565b61464e8287614218565b520161462d565b90614676670de0b6b3a7640000928361015754610154549243010302614350565b828110156146935782039180836101555402049261015654020590565b50600091508190565b90916146a66146fe565b9290808210156146f45783916146bb91614130565b9311156146ef57818110156146e7576146d391614130565b60011c808210156146e2575090565b905090565b505050600090565b505090565b5050505050600090565b61015254604080516359e02dd760e01b80825293929091906001600160a01b039081168284600481845afa80156147ee5760009485916147cb575b50156147b4575061015354169080519485528085600481855afa80156147a9576000958691614786575b501561476f5750509190565b6024925051906305e8989360e11b82526004820152fd5b9050816147a09296503d8711614614576146088183613a0d565b94909438614763565b50513d6000823e3d90fd5b6024908351906305e8989360e11b82526004820152fd5b90506147e5919450833d8511614614576146088183613a0d565b93909338614739565b83513d6000823e3d90fd5b1561480057565b60405162461bcd60e51b815260206004820152602b60248201527f496e697469616c697a61626c653a20636f6e7472616374206973206e6f74206960448201526a6e697469616c697a696e6760a81b6064820152608490fd5b6148bf91614865615d72565b61486e30614190565b604051636845c44560e01b60208201526001600160a01b039384166024820152918316604483015284831660648301526084808301919091528152906148b560a483613a0d565b6101f654166148db565b60208180518101031261077e5760206139219101518092613fda565b90613921916000806148eb613e82565b93602081519101845af4613d49613ed6565b61496b93614932600092602095614916826101376139f1565b5061492287825461420b565b905561168d61013191825461420b565b90546040516340c10f1960e01b81526001600160a01b039093166004840152602483019490945290948593928492909183906044820190565b039360039190911b1c6001600160a01b03165af180156141ff5761498c5750565b6020813d82116149b5575b816149a460209383613a0d565b8101031261077e57613d4f90614031565b3d9150614997565b61274461418c916149ce8482614389565b614a046149dd8361015061389f565b6149f08294925492838360031b1c6142ba565b919060031b91821b91600019901b19161790565b905561015161389f565b60e08101929160c09081906001600160a01b0380614a2b836138cd565b168552614a3a602083016138cd565b16602085015260408101356040850152606081013560608501526080810135608085015260a081013560a08501520135910152565b9061013454908115614a945761392192614a8f61429f9261013154614130565b614130565b505050670de0b6b3a764000090565b8282614aae92614acb565b9060008213156146e75761392192614ac591614a6f565b90614350565b9091614ada9061013154614130565b90670de0b6b3a76400009182810292818404149015171561413d57613921926143db9161433d565b92614b109293949194614acb565b81810291600091600160ff1b9183821283821416614bb4578185051490151715614ba057670de0b6b3a763ffff198401938411614ba057670de0b6b3a764000093848102948186041490151715614ba0578315614b8c578214600019841416614b7857500590565b634e487b7160e01b81526011600452602490fd5b634e487b7160e01b82526012600452602482fd5b634e487b7160e01b82526011600452602482fd5b634e487b7160e01b84526011600452602484fd5b61014d5480431015614bdf57613921904390614130565b50600090565b90604051614bf4604082613a0d565b602060018294805484520154910152565b614c118161014861389f565b90549060031b1c9161018e91614c2781846139f1565b50549261018f54431015614c4d575b5050808210156146ef5761449c906139219361433d565b829350614c61614c6c9392614c67926139f1565b50614be5565b614c74565b903880614c36565b602081519101805192670de0b6b3a76400009384039084821161413d57614ca16142a49261425f9561433d565b925161433d565b60008061013791825492614cbb84614417565b9382915b818310614ce8575050508115614cdc5790614cd991614350565b91565b50506101495460011b91565b90919392614cf585614554565b9081614d018789614218565b52614d1a614d0f83886142d6565b5061429888866139f1565b670de0b6b3a76400009081810291818304149015171561413d57614d5c614d62926142a485614d4e600197614d5796615d93565b9485918c614c05565b61433d565b9561420b565b94019190614cbf565b61018f8054431015614d7a5750565b6101375460005b818110614d945750506101905443019055565b80807f19156e9379c7bbbce8f646ce5ee30ba860b8f954717405f3d5859a6c1a21ae6060019361018e614dca614c6183836139f1565b90614de8614de0614dda85614554565b84614c74565b9384926139f1565b50555160409182519182526020820152a201614d81565b9260a4614e9c9160209394614e12614f58565b614e1a615d72565b60405196614e2960a089613a0d565b87528487018690523360408089019182526001600160a01b0392831660608a0190815293831660808a0190815261014f54915163e97a4d6360e01b81528a5160048201526020909a015160248b01529151831660448a015292518216606489015251811660848801528693849290911690565b34905af19182156141ff57600092614eb9575b5061392190614eee565b90916020823d8211614ee6575b81614ed360209383613a0d565b8101031261086e57505190613921614eaf565b3d9150614ec6565b6139609061014e614f0082825461420b565b905561022954309033906001600160a01b03165b6040516323b872dd60e01b60208201526001600160a01b0392831660248201529290911660448301526064808301939093529181526139609161402c608483613a0d565b60ff61014b5460081c16614f6857565b604051631ca61d7760e01b8152600490fd5b9360209293614e9c9260c492614f8e614f58565b614f96615d72565b60405197614fa560c08a613a0d565b60018060a01b03938493848093168b52888b01528860408b01523360608b01521660808901521660a087015261014f5416946040519586938492637e81a82160e01b845260048401905b60a09081600180821b03918281511685526020810151602086015260408101516040860152826060820151166060860152826080820151166080860152015116910152565b9360209293614e9c9260c492615048614f58565b615050615d72565b6040519761505f60c08a613a0d565b60018060a01b03938493848093168b52888b01528860408b01523360608b01521660808901521660a087015261014f54169460405195869384926323ec24b560e11b84526004840190614fef565b9092946020929495615134976150c1614f58565b6150c9615d72565b604051936150d961010086613a0d565b60018060a01b039384938480809416998a8952168888015289604088015260608701528960808701523360a08701521660c08501521660e083015261014f541660405180809881946334975a4160e01b835260048301615196565b039134905af19384156141ff57600094615161575b50613921929161515c9130903390614f14565b614eee565b90936020823d821161518e575b8161517b60209383613a0d565b8101031261086e57505192613921615149565b3d915061516e565b91909160e06101008201938160018060a01b03918281511685528260208201511660208601526040810151604086015260608101516060860152608081015160808601528260a08201511660a08601528260c08201511660c0860152015116910152565b60e4826020809496979861527b94615210614f58565b615218615d72565b6040519a8b9861522960e08b613a0d565b60018060a01b03958695868095169b8c8152015260408d01528a60608d01523360808d01521660a08b01521660c089015261014f54169660405197889384926263744760e11b845260048401906152a0565b34905af19384156141ff576000946151615750613921929161515c9130903390614f14565b60c0908160018060a01b03918281511685526020810151602086015260408101516040860152606081015160608601528260808201511660808601528260a08201511660a0860152015116910152565b9493919092936152fe614f58565b615306615d72565b6040519561531560e088613a0d565b60018060a01b039384938480931689528660208a015260408901528660608901523360808901521660a08701521660c0850152602061537260e48361014f5416966040519788938492636b59c22f60e01b845260048401906152a0565b34905af19384156141ff5760009461539d575b50613921929161515c91610133541630903390614f14565b90936020823d82116153ca575b816153b760209383613a0d565b8101031261086e57505192613921615385565b3d91506153aa565b919290926153de614f58565b6153e6615d72565b604051936153f560a086613a0d565b83855260208086019182523360408088019182526001600160a01b03948516606089019081529585166080890190815261014f54915163fa91a9a560e01b8152985160048a0152935160248901529051841660448801529351831660648701529051821660848601529091849060a4908290851634905af19283156141ff57600093615490575b509061392191610133541630903390614f14565b90926020823d82116154bd575b816154aa60209383613a0d565b8101031261086e5750519161392161547c565b3d915061549d565b60c46020929461553d926154d7614f58565b6154df615d72565b604051976154ee60c08a613a0d565b60018060a01b0380938180941698898c528a898d015260408c01523360608c01521660808a01521660a088015261014f5416956040519687938492636426c5db60e11b84526004840190614fef565b34905af19283156141ff5760009361555f575b50906139219130903390614f14565b90926020823d821161558c575b8161557960209383613a0d565b8101031261086e57505191613921615550565b3d915061556c565b939091936155a0614f58565b6155a8615d72565b604051956155b760e088613a0d565b60018060a01b0380938180941696878a528660208b01528860408b015260608a01523360808a01521660a08801521660c0860152602061561560e48361014f541697604051988993849263e4e1b72960e01b845260048401906152a0565b34905af19485156141ff5760009561564a575b5061392193929161564191610133541630903390614f14565b30903390614f14565b90946020823d8211615677575b8161566460209383613a0d565b8101031261086e57505193613921615628565b3d9150615657565b6040519061568e608083613a0d565b60006060838281528260208201528260408201520152565b91908260a091031261077e576040516156c060a082613a0d565b60806156fe81839580358552602081013560208601526156e2604082016138cd565b60408601526156f3606082016138cd565b6060860152016138cd565b910152565b919061570e9061422c565b91909261571b83856143e1565b9080821115615728575050565b6044925060405191637912120160e01b835260048301526024820152fd5b92909391600091600091829661575a61567f565b966001600160a01b03918590831680615966575b508261012f54168360405193636eb1769f60e11b8552168060048501523060248501526020948585604481865afa94851561595b57849561592c575b508461580b575b5050505050860151156157c7575b505050929190565b909192506157df670de0b6b3a764000092839261433d565b04808552908215615803576157fb92049081604086015261420b565b3880806157bf565b5090506157fb565b6158199061013054166145b5565b929092156157b157909192939b50848b61585385670de0b6b3a764000061584d6158438d8d61433d565b610143549061433d565b04614350565b81830181815295908b15615922575061587e916158726060928d614350565b9182910152855161420b565b809d5b109283156158ad575b50505061589a575b8080806157b1565b8192995052806060880152963880615892565b909192506024604051809481936370a0823160e01b835260048301525afa90811561591757908b9184916158e6575b501038848161588a565b809250858092503d8311615910575b6158ff8183613a0d565b810103126109d5578a9051386158dc565b503d6158f5565b6040513d85823e3d90fd5b915050809d615881565b9094508581813d8311615954575b6159448183613a0d565b81010312610aca575193386157aa565b503d61593a565b6040513d86823e3d90fd5b9095506020836101c35416916024604051809481936364a731e960e01b835260048301525afa80156159de5786906159ab575b6159a491508461433d565b943861576e565b506020813d82116159d6575b816159c460209383613a0d565b81010312612acd576159a49051615999565b3d91506159b7565b6040513d88823e3d90fd5b926139609491929382511515600014615a5957506040615a5492615a4c670de0b6b3a7640000615a1e61013b5484519061433d565b04610131615a2d82825461420b565b9055615a4660018060a01b036101465416918451614130565b90613fda565b015190613fda565b613fda565b906060615a5493615a7b60018060a01b03610146541660208301519086615a7f565b0151915b919081615a8b57505050565b61012f5461396093906001600160a01b0316614f14565b91908260c091031261077e57604051615abc60c082613a0d565b60a06156fe818395615acd816138cd565b85526020810135602086015260408101356040860152615aef606082016138cd565b6060860152615b00608082016138cd565b6080860152016138cd565b90615b1894939291614b02565b60008112614bdf5790565b80615b2c6146fe565b919093615b396000614655565b9401938291615bd1575b0193846000808212615bcb57505b840391818511615b93575050818111615b7557505061015555610156554361015755565b60449250604051916306da41e560e11b835260048301526024820152fd5b9080859211615bb957604491604051916306da41e560e11b835260048301526024820152fd5b604051630fb4fd3560e11b8152600490fd5b03615b51565b90508160000390615b43565b80910360e0811261077e578151926020830151926080604082015193605f19011261077e5760c060405191615c13608084613a0d565b606081015183526080810151602084015260a081015160408401520151606082015290565b91908260e091031261077e57604051615c5260e082613a0d565b60c06156fe818395615c63816138cd565b8552602081013560208601526040810135604086015260608101356060860152615c8f608082016138cd565b6080860152615ca060a082016138cd565b60a0860152016138cd565b60405163a9059cbb60e01b60208201526001600160a01b03909216602483015260448201929092526139609161402c826064810161401e565b60975460405163d994d6d560e01b815233600482015290602090829060249082906001600160a01b03165afa9081156141ff57600091615d39575b5015615d2757565b604051631dd1b1b560e21b8152600490fd5b906020823d8211615d6a575b81615d5260209383613a0d565b8101031261086e5750615d6490614031565b38615d1f565b3d9150615d45565b60ff60ca5460081c16615d8157565b60405163783bb6c960e11b8152600490fd5b90670de0b6b3a76400009182810292818404149015171561413d5761392191614350565b670de0b6b3a764000010615dc757565b604051632a9ffab760e21b8152600490fdfea26469706673582212207fa5d2256168bf228cbe64d274e95b79a1a6e9f35f29ad3442ec059bd3fd954364736f6c63430008140033",
  "linkReferences": {},
  "deployedLinkReferences": {},
  "devdoc": {
    "details": "Only for upgradeability testing purposes. Extends MocCARC20Mock adding a new variable.",
    "events": {
      "AdminChanged(address,address)": {
        "details": "Emitted when the admin account has changed."
      },
      "BeaconUpgraded(address)": {
        "details": "Emitted when the beacon is changed."
      },
      "Initialized(uint8)": {
        "details": "Triggered when the contract has been initialized or reinitialized."
      },
      "Upgraded(address)": {
        "details": "Emitted when the implementation is upgraded."
      }
    },
    "kind": "dev",
    "methods": {
      "addPeggedToken((address,address,uint256,uint256,uint256,uint256,uint256))": {
        "details": "Note that the ema value, should consider `nextEmaCalculation`  This function is implemented in MocCoreExpansion but with this contract contexttpTokenAddress Pegged Token contract address to add      priceProviderAddress Pegged Token price provider contract address      tpCtarg Pegged Token target coverage [PREC]      tpMintFee additional fee pct applied on mint [PREC]      tpRedeemFee additional fee pct applied on redeem [PREC]      tpEma initial Pegged Token exponential moving average [PREC]      tpEmaSf Pegged Token smoothing factor [PREC]  Requirements: - the caller must have governance authorization. - tpTokenAddress must be a MocRC20, with mint, burn roles already settled  for this contract",
        "params": {
          "peggedTokenParams_": "params of Pegged Token to add"
        }
      },
      "calcCtargemaCA()": {
        "details": "qAC = nTP / pACtp      ctargemaCA = (ctargemaTP * qAC) / (qAC)",
        "returns": {
          "ctargemaCA": "[PREC]"
        }
      },
      "changeGovernor(address)": {
        "params": {
          "newGovernor_": "New governor address"
        }
      },
      "editPeggedToken((address,address,uint256,uint256,uint256,uint256,uint256))": {
        "details": "Note that the ema value, should consider `nextEmaCalculation`  This function is implemented in MocCoreExpansion but with this contract contexttpTokenAddress Pegged Token contract address to identify the token to edit      priceProviderAddress Pegged Token price provider contract address      tpCtarg Pegged Token target coverage [PREC]      tpMintFee additional fee pct applied on mint [PREC]      tpRedeemFee additional fee pct applied on redeem [PREC]      tpEma initial Pegged Token exponential moving average [PREC]      tpEmaSf Pegged Token smoothing factor [PREC]  Requirements: - the caller must have governance authorization. - the tpTokenAddress must exists",
        "params": {
          "peggedTokenParams_": "params of Pegged Token to add"
        }
      },
      "getCglb()": {
        "returns": {
          "cglob": "[PREC]"
        }
      },
      "getLckAC()": {
        "returns": {
          "lckAC": "[PREC]"
        }
      },
      "getLeverageTC()": {
        "returns": {
          "leverageTC": "[PREC]"
        }
      },
      "getPACtp(address)": {
        "params": {
          "tp_": "Pegged Token address"
        },
        "returns": {
          "_0": "price [PREC]"
        }
      },
      "getPTCac()": {
        "returns": {
          "pTCac": "[PREC]"
        }
      },
      "getTCAvailableToRedeem()": {
        "details": "because it is a view function we are not calculating the new ema,  since we are using the last ema calculation, this may differ a little from the real amount  of TC available to redeem. Consider it an approximation.",
        "returns": {
          "tcAvailableToRedeem": "[N]"
        }
      },
      "getTPAvailableToMint(address)": {
        "details": "because it is a view function we are not calculating the new ema,  since we are using the last ema calculation, this may differ a little from the real amount  of TP available to mint. Consider it an approximation.",
        "params": {
          "tp_": "Pegged Token address"
        },
        "returns": {
          "tpAvailableToMint": "[N]"
        }
      },
      "getTotalACavailable()": {
        "returns": {
          "totalACavailable": "[N]"
        }
      },
      "initialize((((address,address,address,address,address,address,uint256,uint256,uint256,uint256,uint256,uint256,uint256,uint256,uint256,uint256,uint256,uint256,uint256,uint256,address,uint256,uint256,address,address,uint256),address,address,address,uint256,address),address))": {
        "details": "governorAddress The address that will define when a change contract is authorized      pauserAddress The address that is authorized to pause this contract      acTokenAddress Collateral Asset Token contract address      tcTokenAddress Collateral Token contract address      mocFeeFlowAddress Moc Fee Flow contract address      mocAppreciationBeneficiaryAddress Moc appreciation beneficiary address      protThrld protected state threshold [PREC]      liqThrld liquidation coverage threshold [PREC]      feeRetainer pct retain on fees to be re-injected as Collateral, while paying fees with AC [PREC]      tcMintFee additional fee pct applied on mint Collateral Tokens operations [PREC]      tcRedeemFee additional fee pct applied on redeem Collateral Tokens operations [PREC]      successFee pct of the gain because Pegged Tokens devaluation that is transferred        in Collateral Asset to Moc Fee Flow during the settlement [PREC]      appreciationFactor pct of the gain because Pegged Tokens devaluation that is returned        in Pegged Tokens to appreciation beneficiary during the settlement [PREC]      bes number of blocks between settlements      tcInterestCollectorAddress TC interest collector address      tcInterestRate pct interest charged to TC holders on the total collateral in the protocol [PREC]      tcInterestPaymentBlockSpan amount of blocks to wait for next TC interest payment      maxAbsoluteOpProviderAddress max absolute operation provider address      maxOpDiffProviderAddress max operation difference provider address      decayBlockSpan number of blocks that have to elapse for the linear decay factor to be 0      emaCalculationBlockSpan amount of blocks to wait between Pegged ema calculation      mocVendors address for MocVendors contract      mocQueueAddress address for MocQueue contract",
        "params": {
          "initializeParams_": "contract initializer params"
        }
      },
      "isLiquidationReached()": {
        "returns": {
          "_0": "true if liquidation state is reached, false otherwise"
        }
      },
      "liqRedeemTP(address)": {
        "params": {
          "tp_": "Pegged Token address"
        },
        "returns": {
          "qACRedeemed": "amount of AC sent to sender"
        }
      },
      "liqRedeemTPto(address,address)": {
        "params": {
          "recipient_": "address who receives the AC",
          "tp_": "Pegged Token address"
        },
        "returns": {
          "qACRedeemed": "amount of AC sent to `recipient_`"
        }
      },
      "makeStoppable()": {
        "details": "Should be called through governance"
      },
      "makeUnstoppable()": {
        "details": "Should be called through governance"
      },
      "maxQACToMintTP()": {
        "returns": {
          "maxQAC": "minimum regarding maxAbsoluteOperation and maxOperationalDifference"
        }
      },
      "maxQACToRedeemTP()": {
        "returns": {
          "maxQAC": "minimum regarding maxAbsoluteOperation and maxOperationalDifference"
        }
      },
      "mintTC(uint256,uint256)": {
        "params": {
          "qACmax_": "maximum amount of Collateral Asset that can be spent",
          "qTC_": "amount of Collateral Token to mint"
        },
        "returns": {
          "operId": "Identifier to track the Operation lifecycle"
        }
      },
      "mintTCViaVendor(uint256,uint256,address)": {
        "params": {
          "qACmax_": "maximum amount of Collateral Asset that can be spent",
          "qTC_": "amount of Collateral Token to mint",
          "vendor_": "address who receives a markup"
        },
        "returns": {
          "operId": "Identifier to track the Operation lifecycle"
        }
      },
      "mintTCandTP(address,uint256,uint256)": {
        "params": {
          "qACmax_": "maximum amount of Collateral Asset that can be spent",
          "qTP_": "amount of Pegged Token to mint",
          "tp_": "Pegged Token address"
        },
        "returns": {
          "operId": "Identifier to track the Operation lifecycle"
        }
      },
      "mintTCandTPViaVendor(address,uint256,uint256,address)": {
        "params": {
          "qACmax_": "maximum amount of Collateral Asset that can be spent",
          "qTP_": "amount of Pegged Token to mint",
          "tp_": "Pegged Token address",
          "vendor_": "address who receives a markup"
        },
        "returns": {
          "operId": "Identifier to track the Operation lifecycle"
        }
      },
      "mintTCandTPto(address,uint256,uint256,address)": {
        "params": {
          "qACmax_": "maximum amount of Collateral Asset that can be spent",
          "qTP_": "amount of Pegged Token to mint",
          "recipient_": "address who receives the Collateral Token and Pegged Token",
          "tp_": "Pegged Token address"
        },
        "returns": {
          "operId": "Identifier to track the Operation lifecycle"
        }
      },
      "mintTCandTPtoViaVendor(address,uint256,uint256,address,address)": {
        "params": {
          "qACmax_": "maximum amount of Collateral Asset that can be spent",
          "qTP_": "amount of Pegged Token to mint",
          "recipient_": "address who receives the Collateral Token and Pegged Token",
          "tp_": "Pegged Token address",
          "vendor_": "address who receives a markup"
        },
        "returns": {
          "operId": "Identifier to track the Operation lifecycle"
        }
      },
      "mintTCto(uint256,uint256,address)": {
        "params": {
          "qACmax_": "maximum amount of Collateral Asset that can be spent",
          "qTC_": "amount of Collateral Token to mint",
          "recipient_": "address who receives the Collateral Token"
        },
        "returns": {
          "operId": "Identifier to track the Operation lifecycle"
        }
      },
      "mintTCtoViaVendor(uint256,uint256,address,address)": {
        "params": {
          "qACmax_": "maximum amount of Collateral Asset that can be spent",
          "qTC_": "amount of Collateral Token to mint",
          "recipient_": "address who receives the Collateral Token",
          "vendor_": "address who receives a markup"
        },
        "returns": {
          "operId": "Identifier to track the Operation lifecycle"
        }
      },
      "mintTP(address,uint256,uint256)": {
        "params": {
          "qACmax_": "maximum amount of Collateral Asset that can be spent",
          "qTP_": "amount of Pegged Token to mint",
          "tp_": "Pegged Token address to mint"
        },
        "returns": {
          "operId": "Identifier to track the Operation lifecycle"
        }
      },
      "mintTPViaVendor(address,uint256,uint256,address)": {
        "params": {
          "qACmax_": "maximum amount of Collateral Asset that can be spent",
          "qTP_": "amount of Pegged Token to mint",
          "tp_": "Pegged Token address to mint",
          "vendor_": "address who receives a markup"
        },
        "returns": {
          "operId": "Identifier to track the Operation lifecycle"
        }
      },
      "mintTPto(address,uint256,uint256,address)": {
        "params": {
          "qACmax_": "maximum amount of Collateral Asset that can be spent",
          "qTP_": "amount of Pegged Token to mint",
          "recipient_": "address who receives the Pegged Token",
          "tp_": "Pegged Token address to mint"
        },
        "returns": {
          "operId": "Identifier to track the Operation lifecycle"
        }
      },
      "mintTPtoViaVendor(address,uint256,uint256,address,address)": {
        "params": {
          "qACmax_": "maximum amount of Collateral Asset that can be spent",
          "qTP_": "amount of Pegged Token to mint",
          "recipient_": "address who receives the Pegged Token",
          "tp_": "Pegged Token address to mint",
          "vendor_": "address who receives a markup"
        },
        "returns": {
          "operId": "Identifier to track the Operation lifecycle"
        }
      },
      "pause()": {
        "details": "Should only be called by the pauser and when it is stoppable"
      },
      "proxiableUUID()": {
        "details": "Implementation of the ERC1822 {proxiableUUID} function. This returns the storage slot used by the implementation. It is used to validate the implementation's compatibility when performing an upgrade. IMPORTANT: A proxy pointing at a proxiable contract should not be considered proxiable itself, because this risks bricking a proxy that upgrades to it, by delegating to itself until out of gas. Thus it is critical that this function revert if invoked through a proxy. This is guaranteed by the `notDelegated` modifier."
      },
      "redeemTC(uint256,uint256)": {
        "params": {
          "qACmin_": "minimum amount of Collateral Asset that sender expects to receive",
          "qTC_": "amount of Collateral Token to redeem"
        },
        "returns": {
          "operId": "Identifier to track the Operation lifecycle"
        }
      },
      "redeemTCViaVendor(uint256,uint256,address)": {
        "params": {
          "qACmin_": "minimum amount of Collateral Asset that sender expects to receive",
          "qTC_": "amount of Collateral Token to redeem",
          "vendor_": "address who receives a markup"
        },
        "returns": {
          "operId": "Identifier to track the Operation lifecycle"
        }
      },
      "redeemTCandTP(address,uint256,uint256,uint256)": {
        "params": {
          "qACmin_": "Minimum amount of Collateral Asset that the sender expects to receive",
          "qTC_": "Maximum amount of Collateral Token to redeem",
          "qTP_": "Maximum amount of Pegged Token to redeem",
          "tp_": "Pegged Token address"
        },
        "returns": {
          "operId": "Identifier to track the Operation lifecycle"
        }
      },
      "redeemTCandTPViaVendor(address,uint256,uint256,uint256,address)": {
        "params": {
          "qACmin_": "Minimum amount of Collateral Asset that the sender expects to receive",
          "qTC_": "Maximum amount of Collateral Token to redeem",
          "qTP_": "Maximum amount of Pegged Token to redeem",
          "tp_": "Pegged Token address",
          "vendor_": "Address who receives a markup"
        },
        "returns": {
          "operId": "Identifier to track the Operation lifecycle"
        }
      },
      "redeemTCandTPto(address,uint256,uint256,uint256,address)": {
        "params": {
          "qACmin_": "Minimum amount of Collateral Asset that `recipient_` expects to receive",
          "qTC_": "Maximum amount of Collateral Token to redeem",
          "qTP_": "Maximum amount of Pegged Token to redeem",
          "recipient_": "Address who receives the Collateral Asset",
          "tp_": "Pegged Token address"
        },
        "returns": {
          "operId": "Identifier to track the Operation lifecycle"
        }
      },
      "redeemTCandTPtoViaVendor(address,uint256,uint256,uint256,address,address)": {
        "params": {
          "qACmin_": "Minimum amount of Collateral Asset that `recipient_` expects to receive",
          "qTC_": "Maximum amount of Collateral Token to redeem",
          "qTP_": "Maximum amount of Pegged Token to redeem",
          "recipient_": "Address who receives the Collateral Asset",
          "tp_": "Pegged Token address",
          "vendor_": "Address who receives a markup"
        },
        "returns": {
          "operId": "Identifier to track the Operation lifecycle"
        }
      },
      "redeemTCto(uint256,uint256,address)": {
        "params": {
          "qACmin_": "minimum amount of Collateral Asset that `recipient_` expects to receive",
          "qTC_": "amount of Collateral Token to redeem",
          "recipient_": "address who receives the Collateral Asset"
        },
        "returns": {
          "operId": "Identifier to track the Operation lifecycle"
        }
      },
      "redeemTCtoViaVendor(uint256,uint256,address,address)": {
        "params": {
          "qACmin_": "minimum amount of Collateral Asset that `recipient_` expects to receive",
          "qTC_": "amount of Collateral Token to redeem",
          "recipient_": "address who receives the Collateral Asset",
          "vendor_": "address who receives a markup"
        },
        "returns": {
          "operId": "Identifier to track the Operation lifecycle"
        }
      },
      "redeemTP(address,uint256,uint256)": {
        "params": {
          "qACmin_": "minimum amount of Collateral Asset that sender expects to receive",
          "qTP_": "amount of Pegged Token to redeem",
          "tp_": "Pegged Token address to redeem"
        },
        "returns": {
          "operId": "Identifier to track the Operation lifecycle"
        }
      },
      "redeemTPViaVendor(address,uint256,uint256,address)": {
        "params": {
          "qACmin_": "minimum amount of Collateral Asset that sender expects to receive",
          "qTP_": "amount of Pegged Token to redeem",
          "tp_": "Pegged Token address to redeem",
          "vendor_": "address who receives a markup"
        },
        "returns": {
          "operId": "Identifier to track the Operation lifecycle"
        }
      },
      "redeemTPto(address,uint256,uint256,address)": {
        "params": {
          "qACmin_": "minimum amount of Collateral Asset that `recipient_` expects to receive",
          "qTP_": "amount of Pegged Token to redeem",
          "recipient_": "address who receives the Collateral Asset",
          "tp_": "Pegged Token address to redeem"
        },
        "returns": {
          "operId": "Identifier to track the Operation lifecycle"
        }
      },
      "redeemTPtoViaVendor(address,uint256,uint256,address,address)": {
        "params": {
          "qACmin_": "minimum amount of Collateral Asset that `recipient_` expects to receive",
          "qTP_": "amount of Pegged Token to redeem",
          "recipient_": "address who receives the Collateral Asset",
          "tp_": "Pegged Token address to redeem",
          "vendor_": "address who receives a markup"
        },
        "returns": {
          "operId": "Identifier to track the Operation lifecycle"
        }
      },
      "refreshACBalance()": {
        "details": "Intended to be use as notification after an RC20 AC transfer to this contract"
      },
      "setAppreciationFactor(uint256)": {
        "details": "sets appreciation Factor value.",
        "params": {
          "appreciationFactor_": "pct of the gain because Pegged Tokens devaluation that is returned in Pegged Tokens to appreciation beneficiary during the settlement [PREC]"
        }
      },
      "setBes(uint256)": {
        "details": "bns is not automatically updated, you have to wait until next settlement to be made : bns = block.number + bes*",
        "params": {
          "bes_": "number of blocks between settlements"
        }
      },
      "setDecayBlockSpan(uint256)": {
        "details": "sets flux capacitor decay block span",
        "params": {
          "decayBlockSpan_": "flux capacitor decay block span"
        }
      },
      "setEmaCalculationBlockSpan(uint256)": {
        "details": "nextEmaCalculation is not automatically updated, you have to wait until next  EMA calculation to be made : nextEmaCalculation = block.number + emaCalculationBlockSpan*",
        "params": {
          "blockSpan_": "Defines how many blocks should pass between EMA calculations"
        }
      },
      "setFeeRetainer(uint256)": {
        "details": "sets the fee pct to be retainer on AC fees payments as AC re-injection.",
        "params": {
          "feeRetainer_": "pct retain on fees to be re-injected as Collateral, while paying fees with AC [PREC] 0% = 0; 1% = 10 ** 16; 100% = 10 ** 18"
        }
      },
      "setFeeTokenAddress(address)": {
        "details": "sets Fee Token contract address",
        "params": {
          "mocFeeTokenAddress_": "Fee Token new contract address"
        }
      },
      "setFeeTokenPct(uint256)": {
        "details": "sets the fee applied on the top of the operation`s fee when using Fee Token as fee payment method.",
        "params": {
          "feeTokenPct_": "pct applied on the top of the operation`s fee when using Fee Token  as fee payment method [PREC]  e.g. if tcMintFee = 1%, FeeTokenPct = 50% => qFeeToken = 0.5%  0% = 0; 1% = 10 ** 16; 100% = 10 ** 18"
        }
      },
      "setFeeTokenPriceProviderAddress(address)": {
        "details": "sets Fee Token price provider contract address",
        "params": {
          "mocFeeTokenPriceProviderAddress_": "Fee Token price provider new contract address"
        }
      },
      "setLiqEnabled(bool)": {
        "details": "enables and disables the liquidation mechanism.",
        "params": {
          "liqEnabled_": "is liquidation enabled"
        }
      },
      "setLiqThrld(uint256)": {
        "details": "sets the value of the liq threshold configuration param",
        "params": {
          "liqThrld_": "liquidation threshold"
        }
      },
      "setMaxAbsoluteOpProviderAddress(address)": {
        "details": "sets max absolute operation provider address",
        "params": {
          "maxAbsoluteOpProviderAddress_": "max absolute operation provider address"
        }
      },
      "setMaxOpDiffProviderAddress(address)": {
        "details": "sets max operation difference provider address",
        "params": {
          "maxOpDiffProviderAddress_": "max operation difference provider address"
        }
      },
      "setMintTCandTPFee(uint256)": {
        "details": "sets the fee charged when mint Collateral Token and Pegged Token in one operation.",
        "params": {
          "mintTCandTPFee_": "additional fee pct applied on mint Collateral Token and Pegged Token [PREC] 0% = 0; 1% = 10 ** 16; 100% = 10 ** 18"
        }
      },
      "setMocAppreciationBeneficiaryAddress(address)": {
        "details": "sets Moc Appreciation Beneficiary Address",
        "params": {
          "mocAppreciationBeneficiaryAddress_": "moc Appreciation Beneficiary new address"
        }
      },
      "setMocCoreExpansion(address)": {
        "details": "sets Moc Core Expansion contract address",
        "params": {
          "mocCoreExpansion_": "moc core expansion new contract address"
        }
      },
      "setMocFeeFlowAddress(address)": {
        "details": "sets Moc Fee Flow contract address",
        "params": {
          "mocFeeFlowAddress_": "moc Fee Flow new contract address"
        }
      },
      "setMocQueue(address)": {
        "details": "sets Moc Queue contract address",
        "params": {
          "mocQueueAddress_": "moc queue new contract address"
        }
      },
      "setMocVendors(address)": {
        "details": "sets Moc Vendors contract address",
        "params": {
          "mocVendors_": "moc Vendors new contract address"
        }
      },
      "setPauser(address)": {
        "details": "Should be called through governance",
        "params": {
          "newPauser_": "Address of the new pauser"
        }
      },
      "setProtThrld(uint256)": {
        "details": "sets the value of the protected threshold configuration param",
        "params": {
          "protThrld_": "coverage protected state threshold [PREC]"
        }
      },
      "setRedeemTCandTPFee(uint256)": {
        "details": "sets the fee charged when redeem Collateral Token and Pegged Token in one operation.",
        "params": {
          "redeemTCandTPFee_": "additional fee pct applied on redeem Collateral Token and Pegged Token [PREC] 0% = 0; 1% = 10 ** 16; 100% = 10 ** 18"
        }
      },
      "setSuccessFee(uint256)": {
        "details": "sets success Fee value.",
        "params": {
          "successFee_": "pct of the gain because Pegged Tokens devaluation that is transferred in Collateral Asset to Moc Fee Flow during the settlement [PREC]"
        }
      },
      "setSwapTCforTPFee(uint256)": {
        "details": "sets the fee charged when swap Collateral Token for a Pegged Token.",
        "params": {
          "swapTCforTPFee_": "additional fee pct applied on swap Collateral Token for a Pegged Token [PREC] 0% = 0; 1% = 10 ** 16; 100% = 10 ** 18"
        }
      },
      "setSwapTPforTCFee(uint256)": {
        "details": "sets the fee charged when swap a Pegged Token for Collateral Token.",
        "params": {
          "swapTPforTCFee_": "additional fee pct applied on swap a Pegged Token for Collateral Token [PREC] 0% = 0; 1% = 10 ** 16; 100% = 10 ** 18"
        }
      },
      "setSwapTPforTPFee(uint256)": {
        "details": "sets the fee charged when swap a Pegged Token for another Pegged Token.",
        "params": {
          "swapTPforTPFee_": "additional fee pct applied on swap a Pegged Token for another Pegged Token [PREC] 0% = 0; 1% = 10 ** 16; 100% = 10 ** 18"
        }
      },
      "setTCInterestCollectorAddress(address)": {
        "details": "sets TC interest collector address",
        "params": {
          "tcInterestCollectorAddress_": "TC interest collector address"
        }
      },
      "setTCInterestPaymentBlockSpan(uint256)": {
        "details": "sets TC interest payment block spannextTCInterestPayment is not automatically updated, you have to wait until next  interest payment to be made : nextTCInterestPayment = block.number + tcInterestPaymentBlockSpan",
        "params": {
          "tcInterestPaymentBlockSpan_": "amount of blocks to wait for next TC interest payment"
        }
      },
      "setTCInterestRate(uint256)": {
        "details": "sets TC interest rate",
        "params": {
          "tcInterestRate_": "pct interest charged to TC holders on the total collateral in the protocol [PREC]"
        }
      },
      "setTcMintFee(uint256)": {
        "details": "sets the fee charged on Token Collateral mint.",
        "params": {
          "tcMintFee_": "addition fee pct applied on Collateral Tokens mint [PREC] 0% = 0; 1% = 10 ** 16; 100% = 10 ** 18"
        }
      },
      "setTcRedeemFee(uint256)": {
        "details": "sets the fee charged on Token Collateral redeem.",
        "params": {
          "tcRedeemFee_": "addition fee pct applied on Collateral Tokens redeem [PREC] 0% = 0; 1% = 10 ** 16; 100% = 10 ** 18"
        }
      },
      "swapTCforTP(address,uint256,uint256,uint256)": {
        "params": {
          "qACmax_": "Maximum amount of Collateral Asset that can be spent in fees",
          "qTC_": "Amount of owned Collateral Token to swap",
          "qTPmin_": "Minimum amount of Pegged Token that the sender expects to receive",
          "tp_": "Pegged Token address"
        },
        "returns": {
          "operId": "Identifier to track the Operation lifecycle"
        }
      },
      "swapTCforTPViaVendor(address,uint256,uint256,uint256,address)": {
        "params": {
          "qACmax_": "Maximum amount of Collateral Asset that can be spent in fees",
          "qTC_": "Amount of owned Collateral Token to swap",
          "qTPmin_": "Minimum amount of Pegged Token that the sender expects to receive",
          "tp_": "Pegged Token address",
          "vendor_": "Address who receives a markup"
        },
        "returns": {
          "operId": "Identifier to track the Operation lifecycle"
        }
      },
      "swapTCforTPto(address,uint256,uint256,uint256,address)": {
        "params": {
          "qACmax_": "Maximum amount of Collateral Asset that can be spent in fees",
          "qTC_": "Amount of owned Collateral Token to swap",
          "qTPmin_": "Minimum amount of Pegged Token that `recipient_` expects to receive",
          "recipient_": "Address who receives the Pegged Token",
          "tp_": "Pegged Token address"
        },
        "returns": {
          "operId": "Identifier to track the Operation lifecycle"
        }
      },
      "swapTCforTPtoViaVendor(address,uint256,uint256,uint256,address,address)": {
        "params": {
          "qACmax_": "Maximum amount of Collateral Asset that can be spent in fees",
          "qTC_": "Amount of owned Collateral Token to swap",
          "qTPmin_": "Minimum amount of Pegged Token that `recipient_` expects to receive",
          "recipient_": "Address who receives the Pegged Token",
          "tp_": "Pegged Token address",
          "vendor_": "Address who receives a markup"
        },
        "returns": {
          "operId": "Identifier to track the Operation lifecycle"
        }
      },
      "swapTPforTC(address,uint256,uint256,uint256)": {
        "params": {
          "qACmax_": "maximum amount of Collateral Asset that can be spent in fees",
          "qTCmin_": "minimum amount of Collateral Token that the sender expects to receive",
          "qTP_": "amount of owned Pegged Token to swap",
          "tp_": "Pegged Token address"
        },
        "returns": {
          "operId": "Identifier to track the Operation lifecycle"
        }
      },
      "swapTPforTCViaVendor(address,uint256,uint256,uint256,address)": {
        "params": {
          "qACmax_": "maximum amount of Collateral Asset that can be spent in fees",
          "qTCmin_": "minimum amount of Collateral Token that the sender expects to receive",
          "qTP_": "amount of owned Pegged Token to swap",
          "tp_": "Pegged Token address",
          "vendor_": "address who receives a markup"
        },
        "returns": {
          "operId": "Identifier to track the Operation lifecycle"
        }
      },
      "swapTPforTCto(address,uint256,uint256,uint256,address)": {
        "params": {
          "qACmax_": "maximum amount of Collateral Asset that can be spent in fees",
          "qTCmin_": "minimum amount of Collateral Token that `recipient_` expects to receive",
          "qTP_": "amount of owned Pegged Token to swap",
          "recipient_": "address who receives the Collateral Token",
          "tp_": "Pegged Token address"
        },
        "returns": {
          "operId": "Identifier to track the Operation lifecycle"
        }
      },
      "swapTPforTCtoViaVendor(address,uint256,uint256,uint256,address,address)": {
        "params": {
          "qACmax_": "maximum amount of Collateral Asset that can be spent in fees",
          "qTCmin_": "minimum amount of Collateral Token that `recipient_` expects to receive",
          "qTP_": "amount of owned Pegged Token to swap",
          "recipient_": "address who receives the Collateral Token",
          "tp_": "Pegged Token address",
          "vendor_": "address who receives a markup"
        },
        "returns": {
          "operId": "Identifier to track the Operation lifecycle"
        }
      },
      "swapTPforTP(address,address,uint256,uint256,uint256)": {
        "params": {
          "qACmax_": "maximum amount of Collateral Asset that can be spent in fees",
          "qTP_": "amount of owned Pegged Token to swap",
          "qTPmin_": "minimum amount of target Pegged Token that the sender expects to receive",
          "tpFrom_": "owned Pegged Token address",
          "tpTo_": "target Pegged Token address"
        },
        "returns": {
          "operId": "Identifier to track the Operation lifecycle"
        }
      },
      "swapTPforTPViaVendor(address,address,uint256,uint256,uint256,address)": {
        "params": {
          "qACmax_": "maximum amount of Collateral Asset that can be spent in fees",
          "qTP_": "amount of owned Pegged Token to swap",
          "qTPmin_": "minimum amount of target Pegged Token that the sender expects to receive",
          "tpFrom_": "owned Pegged Token address",
          "tpTo_": "target Pegged Token address",
          "vendor_": "address who receives a markup"
        },
        "returns": {
          "operId": "Identifier to track the Operation lifecycle"
        }
      },
      "swapTPforTPto(address,address,uint256,uint256,uint256,address)": {
        "params": {
          "qACmax_": "maximum amount of Collateral Asset that can be spent in fees",
          "qTP_": "amount of owned Pegged Token to swap",
          "qTPmin_": "minimum amount of target Pegged Token that `recipient_` expects to receive",
          "recipient_": "address who receives the target Pegged Token",
          "tpFrom_": "owned Pegged Token address",
          "tpTo_": "target Pegged Token address"
        },
        "returns": {
          "operId": "Identifier to track the Operation lifecycle"
        }
      },
      "swapTPforTPtoViaVendor(address,address,uint256,uint256,uint256,address,address)": {
        "params": {
          "qACmax_": "maximum amount of Collateral Asset that can be spent in fees",
          "qTP_": "amount of owned Pegged Token to swap",
          "qTPmin_": "minimum amount of target Pegged Token that `recipient_` expects to receive",
          "recipient_": "address who receives the target Pegged Token",
          "tpFrom_": "owned Pegged Token address",
          "tpTo_": "target Pegged Token address",
          "vendor_": "address who receives a markup"
        },
        "returns": {
          "operId": "Identifier to track the Operation lifecycle"
        }
      },
      "tcHoldersInterestPayment()": {
        "details": "-   The amount is not differential, it's a snapshot of the moment it's executed  -   It does not check coverage"
      },
      "unlockACInPending(address,uint256)": {
        "details": "this function must be overridden by the AC implementation",
        "params": {
          "owner_": "funds owner, address to be returned to",
          "qACToUnlock_": "AC amount to be unlocked"
        }
      },
      "unlockTCInPending(address,uint256)": {
        "params": {
          "owner_": "funds owner, address to be returned to",
          "qTCToUnlock_": "TC amount to be unlocked"
        }
      },
      "unlockTPInPending(address,address,uint256)": {
        "params": {
          "owner_": "funds owner, address to be returned to",
          "qTPToUnlock_": "TP amount to be unlocked",
          "tpToken_": "TP to be unlocked"
        }
      },
      "updateEmas()": {
        "details": "All price provider prices must be available, fails if not"
      },
      "upgradeTo(address)": {
        "custom:oz-upgrades-unsafe-allow-reachable": "delegatecall",
        "details": "Upgrade the implementation of the proxy to `newImplementation`. Calls {_authorizeUpgrade}. Emits an {Upgraded} event."
      },
      "upgradeToAndCall(address,bytes)": {
        "custom:oz-upgrades-unsafe-allow-reachable": "delegatecall",
        "details": "Upgrade the implementation of the proxy to `newImplementation`, and subsequently execute the function call encoded in `data`. Calls {_authorizeUpgrade}. Emits an {Upgraded} event."
      }
    },
    "title": "MocCARC20Mock",
    "version": 1
  },
  "evm": {
    "bytecode": {
      "linkReferences": {},
      "opcodes": "PUSH1 0xA0 DUP1 PUSH1 0x40 MSTORE CALLVALUE PUSH3 0xE1 JUMPI ADDRESS PUSH1 0x80 MSTORE PUSH1 0x0 SLOAD SWAP1 PUSH1 0xFF DUP3 PUSH1 0x8 SHR AND PUSH3 0x8F JUMPI POP PUSH1 0xFF DUP1 DUP3 AND SUB PUSH3 0x53 JUMPI JUMPDEST PUSH1 0x40 MLOAD PUSH2 0x5E0F SWAP1 DUP2 PUSH3 0xE7 DUP3 CODECOPY PUSH1 0x80 MLOAD DUP2 DUP2 DUP2 PUSH2 0x28FB ADD MSTORE DUP2 DUP2 PUSH2 0x2A6A ADD MSTORE PUSH2 0x2FE1 ADD MSTORE RETURN JUMPDEST PUSH1 0xFF SWAP1 DUP2 NOT AND OR PUSH1 0x0 SSTORE PUSH32 0x7F26B83FF96E1F2B6A682F133852F6798A09C465DA95921460CEFB3847402498 PUSH1 0x20 PUSH1 0x40 MLOAD PUSH1 0xFF DUP2 MSTORE LOG1 CODESIZE PUSH3 0x2C JUMP JUMPDEST PUSH3 0x461BCD PUSH1 0xE5 SHL DUP2 MSTORE PUSH1 0x20 PUSH1 0x4 DUP3 ADD MSTORE PUSH1 0x27 PUSH1 0x24 DUP3 ADD MSTORE PUSH32 0x496E697469616C697A61626C653A20636F6E747261637420697320696E697469 PUSH1 0x44 DUP3 ADD MSTORE PUSH7 0x616C697A696E67 PUSH1 0xC8 SHL PUSH1 0x64 DUP3 ADD MSTORE PUSH1 0x84 SWAP1 REVERT JUMPDEST PUSH1 0x0 DUP1 REVERT INVALID PUSH1 0x40 PUSH1 0x80 DUP2 MSTORE PUSH1 0x4 CALLDATASIZE LT ISZERO PUSH2 0x13 JUMPI PUSH1 0x0 DUP1 REVERT JUMPDEST PUSH1 0x0 PUSH1 0xE0 SWAP1 DUP1 CALLDATALOAD DUP3 SHR SWAP2 DUP3 PUSH4 0x1DDE6EF EQ PUSH2 0x387B JUMPI DUP3 PUSH4 0x1F1B684 EQ PUSH2 0x3834 JUMPI DUP3 PUSH4 0x579188F EQ PUSH2 0x379B JUMPI DUP3 PUSH4 0x73763B9 EQ PUSH2 0x3777 JUMPI DUP3 PUSH4 0xBB7F608 EQ PUSH2 0x3758 JUMPI DUP3 PUSH4 0xC340A24 EQ PUSH2 0x372F JUMPI DUP3 PUSH4 0xC36D897 EQ PUSH2 0x370F JUMPI DUP3 PUSH4 0xD6AC463 EQ PUSH2 0x36C9 JUMPI DUP3 PUSH4 0xDB49656 EQ PUSH2 0x36A9 JUMPI DUP3 PUSH4 0xE0A8FD2 EQ PUSH2 0x3685 JUMPI DUP3 PUSH4 0xF1E5E2B EQ PUSH2 0x363F JUMPI DUP3 PUSH4 0x13ED7BA5 EQ PUSH2 0x3615 JUMPI DUP3 PUSH4 0x15266E36 EQ PUSH2 0x35F8 JUMPI DUP3 PUSH4 0x17937F9B EQ PUSH2 0x35C1 JUMPI DUP3 PUSH4 0x1867E2F5 EQ PUSH2 0x35A1 JUMPI DUP3 PUSH4 0x1FB0DDA0 EQ PUSH2 0x3578 JUMPI DUP3 PUSH4 0x1FE6A7AD EQ PUSH2 0x353E JUMPI DUP3 PUSH4 0x2069F753 EQ PUSH2 0x351A JUMPI DUP3 PUSH4 0x235E81CF EQ PUSH2 0x3328 JUMPI DUP3 PUSH4 0x23B98CDE EQ PUSH2 0x3300 JUMPI DUP3 PUSH4 0x24FFABA3 EQ PUSH2 0x32C3 JUMPI DUP3 PUSH4 0x25BC6C41 EQ PUSH2 0x3299 JUMPI DUP3 PUSH4 0x27EAB2A1 EQ PUSH2 0x3253 JUMPI DUP3 PUSH4 0x2A20D57D EQ PUSH2 0x3233 JUMPI DUP3 PUSH4 0x2B764FAD EQ PUSH2 0x3216 JUMPI DUP3 PUSH4 0x2C43BD3B EQ PUSH2 0x31F2 JUMPI DUP3 PUSH4 0x2D88AF4A EQ PUSH2 0x319B JUMPI DUP3 PUSH4 0x2DED50F0 EQ PUSH2 0x317B JUMPI DUP3 PUSH4 0x333431FD EQ PUSH2 0x315B JUMPI DUP3 PUSH4 0x33421C38 EQ PUSH2 0x3060 JUMPI DUP3 PUSH4 0x34246862 EQ PUSH2 0x3046 JUMPI DUP3 PUSH4 0x3659CFE6 EQ PUSH2 0x2FAC JUMPI DUP3 PUSH4 0x3915EDCB EQ PUSH2 0x2F7B JUMPI DUP3 PUSH4 0x391BF6CF EQ PUSH2 0x2E63 JUMPI DUP3 PUSH4 0x3BC4AC0A EQ PUSH2 0x2E3F JUMPI DUP3 PUSH4 0x3CFB09EF EQ PUSH2 0x2DF9 JUMPI DUP3 PUSH4 0x3DBC50A9 EQ PUSH2 0x2DDF JUMPI DUP3 PUSH4 0x3F4BA83A EQ PUSH2 0x2D64 JUMPI DUP3 PUSH4 0x4017936A EQ PUSH2 0x2D33 JUMPI DUP3 PUSH4 0x407F0E34 EQ PUSH2 0x2D13 JUMPI DUP3 PUSH4 0x4310ADC6 EQ PUSH2 0x2CE0 JUMPI DUP3 PUSH4 0x44719EE9 EQ PUSH2 0x2CA9 JUMPI DUP3 PUSH4 0x466B8934 EQ PUSH2 0x2C72 JUMPI DUP3 PUSH4 0x471A80E3 EQ PUSH2 0x2C3F JUMPI DUP3 PUSH4 0x484AD7CD EQ PUSH2 0x2C08 JUMPI DUP3 PUSH4 0x4AF3A6FC EQ PUSH2 0x2B89 JUMPI DUP3 PUSH4 0x4B746001 EQ PUSH2 0x2B3F JUMPI DUP3 PUSH4 0x4D977E78 EQ PUSH2 0x2B1F JUMPI DUP3 PUSH4 0x4E1F907A EQ PUSH2 0x2AF5 JUMPI DUP3 PUSH4 0x4F0F27EE EQ PUSH2 0x2AD5 JUMPI DUP3 PUSH4 0x4F1EF286 EQ PUSH2 0x29E1 JUMPI DUP3 PUSH4 0x5210570C EQ PUSH2 0x29BB JUMPI DUP3 PUSH4 0x52D1902D EQ PUSH2 0x28E6 JUMPI DUP3 PUSH4 0x52E18F8F EQ PUSH2 0x28CB JUMPI DUP3 PUSH4 0x533A4BEA EQ PUSH2 0x289A JUMPI DUP3 PUSH4 0x53B16D17 EQ PUSH2 0x2855 JUMPI DUP3 PUSH4 0x543AEB48 EQ PUSH2 0x2831 JUMPI DUP3 PUSH4 0x57271F4D EQ PUSH2 0x2801 JUMPI DUP3 PUSH4 0x5860EE63 EQ PUSH2 0x27E1 JUMPI DUP3 PUSH4 0x58F32DE9 EQ PUSH2 0x2799 JUMPI DUP3 PUSH4 0x5C616A73 EQ PUSH2 0x259E JUMPI DUP3 PUSH4 0x5C975ABB EQ PUSH2 0x2577 JUMPI DUP3 PUSH4 0x5CFBE578 EQ PUSH2 0x2557 JUMPI DUP3 PUSH4 0x5E2A6065 EQ PUSH2 0x253D JUMPI DUP3 PUSH4 0x5ECE17EF EQ PUSH2 0x2520 JUMPI DUP3 PUSH4 0x60009E0B EQ PUSH2 0x24F6 JUMPI DUP3 PUSH4 0x60A01DFA EQ PUSH2 0x1FAE JUMPI DUP3 PUSH4 0x647846A5 EQ PUSH2 0x1F84 JUMPI DUP3 PUSH4 0x64EC230A EQ PUSH2 0x1F60 JUMPI DUP3 PUSH4 0x662013F4 EQ PUSH2 0x1F43 JUMPI DUP3 PUSH4 0x68274357 EQ PUSH2 0x1F1A JUMPI DUP3 PUSH4 0x68F015DF EQ PUSH2 0x1EBA JUMPI DUP3 PUSH4 0x6B5488DF EQ PUSH2 0x1E9A JUMPI DUP3 PUSH4 0x6F30471F EQ PUSH2 0x1E7A JUMPI DUP3 PUSH4 0x70713468 EQ PUSH2 0x1E56 JUMPI DUP3 PUSH4 0x735D3960 EQ PUSH2 0x1E10 JUMPI DUP3 PUSH4 0x73E28AF9 EQ PUSH2 0x1DEC JUMPI DUP3 PUSH4 0x74873AD3 EQ PUSH2 0x1DCF JUMPI DUP3 PUSH4 0x7554FFFD EQ PUSH2 0x1DAF JUMPI DUP3 PUSH4 0x76228055 EQ PUSH2 0x1D8F JUMPI DUP3 PUSH4 0x7750BA0C EQ PUSH2 0x1D6B JUMPI DUP3 PUSH4 0x79F9A91C EQ PUSH2 0x1D4B JUMPI DUP3 PUSH4 0x7A193C31 EQ PUSH2 0x1D2B JUMPI DUP3 PUSH4 0x7A4FF1D9 EQ PUSH2 0x1D07 JUMPI DUP3 PUSH4 0x7A727FE8 EQ PUSH2 0x1CE7 JUMPI DUP3 PUSH4 0x7AF5758C EQ PUSH2 0x1CC3 JUMPI DUP3 PUSH4 0x7B21B274 EQ PUSH2 0x1CA6 JUMPI DUP3 PUSH4 0x7CBA2383 EQ PUSH2 0x1C82 JUMPI DUP3 PUSH4 0x7D8E0314 EQ PUSH2 0x1C43 JUMPI DUP3 PUSH4 0x7F01C715 EQ PUSH2 0x1C19 JUMPI DUP3 PUSH4 0x7F13B998 EQ PUSH2 0x1BE3 JUMPI DUP3 PUSH4 0x7F4A4FE0 EQ PUSH2 0x1BC3 JUMPI DUP3 PUSH4 0x826FCD58 EQ PUSH2 0x1BA0 JUMPI DUP3 PUSH4 0x842D5748 EQ PUSH2 0x1B85 JUMPI DUP3 PUSH4 0x8456CB59 EQ PUSH2 0x1AF0 JUMPI DUP3 PUSH4 0x85BF9593 EQ PUSH2 0x1AAA JUMPI DUP3 PUSH4 0x883D21CB EQ PUSH2 0x19E9 JUMPI DUP3 PUSH4 0x89FD503E EQ PUSH2 0x19CF JUMPI DUP3 PUSH4 0x8ACC2011 EQ PUSH2 0x19B5 JUMPI DUP3 PUSH4 0x8CFA4241 EQ PUSH2 0x1995 JUMPI DUP3 PUSH4 0x8D7A72F3 EQ PUSH2 0x1975 JUMPI DUP3 PUSH4 0x8E2BDB86 EQ PUSH2 0x194B JUMPI DUP3 PUSH4 0x8F1A383A EQ PUSH2 0x1923 JUMPI DUP3 PUSH4 0x9853C35A EQ PUSH2 0x18F9 JUMPI DUP3 PUSH4 0x98B2086F EQ PUSH2 0x18DF JUMPI DUP3 PUSH4 0x9ABB14C9 EQ PUSH2 0x18C0 JUMPI DUP3 PUSH4 0x9AD6659D EQ PUSH2 0x188A JUMPI DUP3 PUSH4 0x9BEA71A4 EQ PUSH2 0x1848 JUMPI DUP3 PUSH4 0x9CABFC00 EQ PUSH2 0x17FC JUMPI DUP3 PUSH4 0x9FD0506D EQ PUSH2 0x17CF JUMPI DUP3 PUSH4 0x9FD8ED0E EQ PUSH2 0x17B5 JUMPI DUP3 PUSH4 0xA8E9AC30 EQ PUSH2 0x1792 JUMPI DUP3 PUSH4 0xAAF91EFF EQ PUSH2 0x1775 JUMPI DUP3 PUSH4 0xAAF925F6 EQ PUSH2 0x175A JUMPI DUP3 PUSH4 0xAC0C88AB EQ PUSH2 0x1740 JUMPI DUP3 PUSH4 0xAD4E666D EQ PUSH2 0x1561 JUMPI DUP3 PUSH4 0xAEA038DC EQ PUSH2 0x1541 JUMPI DUP3 PUSH4 0xAEB41E69 EQ PUSH2 0x1524 JUMPI DUP3 PUSH4 0xB4434C32 EQ PUSH2 0x1366 JUMPI DUP3 PUSH4 0xB5E9EA8C EQ PUSH2 0x133C JUMPI DUP3 PUSH4 0xB85EDD65 EQ PUSH2 0x1322 JUMPI DUP3 PUSH4 0xB9FA6413 EQ PUSH2 0x1302 JUMPI DUP3 PUSH4 0xBB4872DE EQ PUSH2 0x12DE JUMPI DUP3 PUSH4 0xBC4E55B2 EQ PUSH2 0x1210 JUMPI DUP3 PUSH4 0xBECACA6B EQ PUSH2 0x11EC JUMPI DUP3 PUSH4 0xBFE42621 EQ PUSH2 0xFF1 JUMPI DUP3 PUSH4 0xC00F538D EQ PUSH2 0xFCD JUMPI DUP3 PUSH4 0xC039CC69 EQ PUSH2 0xF8B JUMPI DUP3 PUSH4 0xC09C30BD EQ PUSH2 0xF41 JUMPI DUP3 PUSH4 0xC239FCA4 EQ PUSH2 0xF26 JUMPI DUP3 PUSH4 0xC84353C9 EQ PUSH2 0xF02 JUMPI DUP3 PUSH4 0xCF351C1D EQ PUSH2 0xEBC JUMPI DUP3 PUSH4 0xD1A0FAA0 EQ PUSH2 0xEA3 JUMPI DUP3 PUSH4 0xD6AF11DA EQ PUSH2 0xE67 JUMPI DUP3 PUSH4 0xD76DC7FD EQ PUSH2 0xE4D JUMPI DUP3 PUSH4 0xD87AAB6F EQ PUSH2 0xE2D JUMPI DUP3 PUSH4 0xD8C69AEC EQ PUSH2 0xD17 JUMPI DUP3 PUSH4 0xD8DB6F5A EQ PUSH2 0xCD1 JUMPI DUP3 PUSH4 0xDB796072 EQ PUSH2 0xC94 JUMPI DUP3 PUSH4 0xDDB6D190 EQ PUSH2 0xC57 JUMPI DUP3 PUSH4 0xDE8D520A EQ PUSH2 0xC24 JUMPI DUP3 PUSH4 0xE23C135C EQ PUSH2 0xC0B JUMPI DUP3 PUSH4 0xE2C5E990 EQ PUSH2 0xBAA JUMPI DUP3 PUSH4 0xE3867EEB EQ PUSH2 0xB8C JUMPI DUP3 PUSH4 0xE4012945 EQ PUSH2 0xB59 JUMPI DUP3 PUSH4 0xE4C0AAF4 EQ PUSH2 0xB14 JUMPI DUP3 PUSH4 0xE6A683E0 EQ PUSH2 0xACE JUMPI DUP3 PUSH4 0xE6B1627C EQ PUSH2 0xA8A JUMPI DUP3 PUSH4 0xE7C25978 EQ PUSH2 0xA65 JUMPI DUP3 PUSH4 0xE8859A15 EQ PUSH2 0xA48 JUMPI DUP3 PUSH4 0xEA302A97 EQ PUSH2 0xA2D JUMPI DUP3 PUSH4 0xEE1F438F EQ PUSH2 0xA03 JUMPI DUP3 PUSH4 0xF13F4054 EQ PUSH2 0x9D9 JUMPI DUP3 PUSH4 0xF26114AA EQ PUSH2 0x974 JUMPI POP DUP2 PUSH4 0xF2808778 EQ PUSH2 0x951 JUMPI DUP2 PUSH4 0xF2F9F456 EQ PUSH2 0x937 JUMPI DUP2 PUSH4 0xF30B5614 EQ PUSH2 0x918 JUMPI DUP2 PUSH4 0xF375CFBA EQ PUSH2 0x8F9 JUMPI DUP2 PUSH4 0xF88B1434 EQ PUSH2 0x890 JUMPI DUP2 PUSH4 0xFA6E83BD EQ PUSH2 0x871 JUMPI DUP2 PUSH4 0xFADDA424 EQ PUSH2 0x7FA JUMPI DUP2 PUSH4 0xFD80FA77 EQ PUSH2 0x7DF JUMPI DUP2 PUSH4 0xFDA70F8B EQ PUSH2 0x7C0 JUMPI DUP2 PUSH4 0xFE6B92C1 EQ PUSH2 0x79D JUMPI POP DUP1 PUSH4 0xFED0ADE4 EQ PUSH2 0x783 JUMPI PUSH4 0xFFE31539 EQ PUSH2 0x745 JUMPI PUSH1 0x0 DUP1 REVERT JUMPDEST PUSH1 0x60 CALLDATASIZE PUSH1 0x3 NOT ADD SLT PUSH2 0x77E JUMPI PUSH1 0x44 CALLDATALOAD SWAP1 PUSH1 0x1 PUSH1 0x1 PUSH1 0xA0 SHL SUB DUP3 AND DUP3 SUB PUSH2 0x77E JUMPI PUSH2 0x777 PUSH1 0x20 SWAP3 CALLER PUSH1 0x24 CALLDATALOAD PUSH1 0x4 CALLDATALOAD PUSH2 0x4DFF JUMP JUMPDEST SWAP1 MLOAD SWAP1 DUP2 MSTORE RETURN JUMPDEST PUSH1 0x0 DUP1 REVERT JUMPDEST PUSH1 0x20 DUP3 PUSH2 0x777 PUSH2 0x794 CALLDATASIZE PUSH1 0x4 PUSH2 0x39CB JUMP JUMPDEST SWAP3 SWAP2 SWAP1 SWAP2 PUSH2 0x4DFF JUMP JUMPDEST DUP3 CALLVALUE PUSH2 0x7BC JUMPI DUP2 PUSH1 0x3 NOT CALLDATASIZE ADD SLT PUSH2 0x7BC JUMPI PUSH1 0x20 SWAP1 PUSH2 0x135 SLOAD SWAP1 MLOAD SWAP1 DUP2 MSTORE RETURN JUMPDEST POP DUP1 REVERT JUMPDEST DUP3 CALLVALUE PUSH2 0x7BC JUMPI DUP2 PUSH1 0x3 NOT CALLDATASIZE ADD SLT PUSH2 0x7BC JUMPI PUSH1 0x20 SWAP1 PUSH2 0x13C SLOAD SWAP1 MLOAD SWAP1 DUP2 MSTORE RETURN JUMPDEST DUP3 PUSH2 0x777 PUSH1 0x20 SWAP3 PUSH2 0x7F1 CALLDATASIZE PUSH1 0x4 PUSH2 0x3A8E JUMP JUMPDEST SWAP4 SWAP3 SWAP1 SWAP3 PUSH2 0x5594 JUMP JUMPDEST SWAP1 POP CALLVALUE PUSH2 0x86E JUMPI PUSH1 0x20 CALLDATASIZE PUSH1 0x3 NOT ADD SLT PUSH2 0x86E JUMPI POP PUSH1 0x1 PUSH1 0x1 PUSH1 0xA0 SHL SUB PUSH1 0x4 CALLDATALOAD DUP2 DUP2 AND DUP2 SUB PUSH2 0x77E JUMPI PUSH2 0x838 PUSH2 0x830 PUSH1 0x1 SWAP3 PUSH2 0x4519 JUMP JUMPDEST PUSH2 0x137 PUSH2 0x39F1 JUMP JUMPDEST POP ADD SLOAD AND PUSH2 0x845 DUP2 PUSH2 0x45B5 JUMP JUMPDEST SWAP2 SWAP1 SWAP2 ISZERO PUSH2 0x857 JUMPI POP PUSH1 0x20 SWAP2 MLOAD SWAP1 DUP2 MSTORE RETURN JUMPDEST PUSH1 0x24 SWAP1 DUP4 MLOAD SWAP1 PUSH4 0x7F6E4DB9 PUSH1 0xE0 SHL DUP3 MSTORE PUSH1 0x4 DUP3 ADD MSTORE REVERT JUMPDEST DUP1 REVERT JUMPDEST DUP3 CALLVALUE PUSH2 0x7BC JUMPI DUP2 PUSH1 0x3 NOT CALLDATASIZE ADD SLT PUSH2 0x7BC JUMPI PUSH1 0x20 SWAP1 PUSH2 0x13A SLOAD SWAP1 MLOAD SWAP1 DUP2 MSTORE RETURN JUMPDEST SWAP1 POP CALLVALUE PUSH2 0x86E JUMPI PUSH1 0x20 CALLDATASIZE PUSH1 0x3 NOT ADD SLT PUSH2 0x86E JUMPI POP PUSH1 0x4 CALLDATALOAD SWAP1 PUSH1 0x1 PUSH1 0x1 PUSH1 0xA0 SHL SUB DUP3 AND DUP3 SUB PUSH2 0x77E JUMPI PUSH2 0x777 PUSH2 0x8EB PUSH1 0x20 SWAP4 PUSH2 0x8D4 PUSH2 0x8CC PUSH2 0x4CA8 JUMP JUMPDEST SWAP2 SWAP1 SWAP3 PUSH2 0x4519 JUMP JUMPDEST SWAP2 PUSH2 0x8F3 PUSH2 0x8E2 DUP5 DUP5 PUSH2 0x4218 JUMP JUMPDEST MLOAD SWAP5 DUP6 SWAP4 PUSH2 0x422C JUMP JUMPDEST SWAP6 SWAP1 SWAP5 PUSH2 0x4C05 JUMP JUMPDEST SWAP1 PUSH2 0x4B02 JUMP JUMPDEST DUP3 CALLVALUE PUSH2 0x7BC JUMPI DUP2 PUSH1 0x3 NOT CALLDATASIZE ADD SLT PUSH2 0x7BC JUMPI PUSH1 0x20 SWAP1 PUSH2 0x141 SLOAD SWAP1 MLOAD SWAP1 DUP2 MSTORE RETURN JUMPDEST DUP3 CALLVALUE PUSH2 0x7BC JUMPI DUP2 PUSH1 0x3 NOT CALLDATASIZE ADD SLT PUSH2 0x7BC JUMPI PUSH1 0x20 SWAP1 PUSH2 0x131 SLOAD SWAP1 MLOAD SWAP1 DUP2 MSTORE RETURN JUMPDEST PUSH1 0x20 DUP4 PUSH2 0x777 PUSH2 0x948 CALLDATASIZE PUSH1 0x4 PUSH2 0x3A61 JUMP JUMPDEST SWAP3 SWAP2 CALLER SWAP3 PUSH2 0x4F7A JUMP JUMPDEST CALLVALUE PUSH2 0x86E JUMPI PUSH1 0x20 CALLDATASIZE PUSH1 0x3 NOT ADD SLT PUSH2 0x86E JUMPI PUSH2 0x96A PUSH2 0x5CE4 JUMP JUMPDEST PUSH1 0x4 CALLDATALOAD PUSH2 0x13C SSTORE DUP1 RETURN JUMPDEST DUP4 SWAP1 CALLVALUE PUSH2 0x9D5 JUMPI CALLDATASIZE PUSH1 0x3 NOT ADD SLT PUSH2 0x7BC JUMPI PUSH2 0x9D1 SWAP1 PUSH2 0x991 PUSH2 0x5CE4 JUMP JUMPDEST MLOAD PUSH4 0x79308A55 PUSH1 0xE1 SHL PUSH1 0x20 DUP3 ADD MSTORE PUSH2 0x9BF DUP2 PUSH2 0x9B1 PUSH1 0x4 PUSH1 0x24 DUP4 ADD PUSH2 0x4A0E JUMP JUMPDEST SUB PUSH1 0x1F NOT DUP2 ADD DUP4 MSTORE DUP3 PUSH2 0x3A0D JUMP JUMPDEST PUSH2 0x1F6 SLOAD PUSH1 0x1 PUSH1 0x1 PUSH1 0xA0 SHL SUB AND PUSH2 0x48DB JUMP JUMPDEST POP DUP1 RETURN JUMPDEST DUP3 DUP1 REVERT JUMPDEST POP DUP3 CALLVALUE PUSH2 0x7BC JUMPI DUP2 PUSH1 0x3 NOT CALLDATASIZE ADD SLT PUSH2 0x7BC JUMPI PUSH2 0x130 SLOAD SWAP1 MLOAD PUSH1 0x1 PUSH1 0x1 PUSH1 0xA0 SHL SUB SWAP1 SWAP2 AND DUP2 MSTORE PUSH1 0x20 SWAP1 RETURN JUMPDEST POP DUP3 CALLVALUE PUSH2 0x7BC JUMPI DUP2 PUSH1 0x3 NOT CALLDATASIZE ADD SLT PUSH2 0x7BC JUMPI PUSH2 0x152 SLOAD SWAP1 MLOAD PUSH1 0x1 PUSH1 0x1 PUSH1 0xA0 SHL SUB SWAP1 SWAP2 AND DUP2 MSTORE PUSH1 0x20 SWAP1 RETURN JUMPDEST PUSH1 0x20 DUP5 PUSH2 0x777 DUP5 PUSH2 0xA3F CALLDATASIZE PUSH1 0x4 PUSH2 0x3A8E JUMP JUMPDEST SWAP4 SWAP3 SWAP1 SWAP3 PUSH2 0x51FA JUMP JUMPDEST POP DUP3 CALLVALUE PUSH2 0x7BC JUMPI DUP2 PUSH1 0x3 NOT CALLDATASIZE ADD SLT PUSH2 0x7BC JUMPI PUSH1 0x20 SWAP1 PUSH2 0x777 PUSH2 0x4BC8 JUMP JUMPDEST POP DUP3 CALLVALUE PUSH2 0x7BC JUMPI DUP2 PUSH1 0x3 NOT CALLDATASIZE ADD SLT PUSH2 0x7BC JUMPI PUSH1 0x20 SWAP1 PUSH1 0xFF PUSH2 0x14B SLOAD AND SWAP1 MLOAD SWAP1 ISZERO ISZERO DUP2 MSTORE RETURN JUMPDEST POP DUP3 CALLVALUE PUSH2 0x7BC JUMPI PUSH1 0x20 CALLDATASIZE PUSH1 0x3 NOT ADD SLT PUSH2 0x7BC JUMPI PUSH1 0x4 CALLDATALOAD PUSH2 0x18E DUP1 SLOAD DUP3 LT ISZERO PUSH2 0xACA JUMPI SWAP1 PUSH2 0xAB6 SWAP2 PUSH2 0x39F1 JUMP JUMPDEST POP PUSH1 0x1 DUP2 SLOAD SWAP2 ADD SLOAD DUP3 MLOAD SWAP2 DUP3 MSTORE PUSH1 0x20 DUP3 ADD MSTORE RETURN JUMPDEST DUP4 DUP1 REVERT JUMPDEST POP CALLVALUE PUSH2 0x86E JUMPI PUSH1 0x20 CALLDATASIZE PUSH1 0x3 NOT ADD SLT PUSH2 0x86E JUMPI PUSH1 0x4 CALLDATALOAD PUSH1 0x1 PUSH1 0x1 PUSH1 0xA0 SHL SUB DUP2 AND SWAP1 DUP2 SWAP1 SUB PUSH2 0x77E JUMPI PUSH2 0xAFD PUSH2 0x5CE4 JUMP JUMPDEST PUSH2 0x1F6 DUP1 SLOAD PUSH1 0x1 PUSH1 0x1 PUSH1 0xA0 SHL SUB NOT AND SWAP1 SWAP2 OR SWAP1 SSTORE DUP1 RETURN JUMPDEST POP CALLVALUE PUSH2 0x86E JUMPI PUSH1 0x20 CALLDATASIZE PUSH1 0x3 NOT ADD SLT PUSH2 0x86E JUMPI PUSH1 0x4 CALLDATALOAD PUSH1 0x1 PUSH1 0x1 PUSH1 0xA0 SHL SUB DUP2 AND SWAP1 DUP2 SWAP1 SUB PUSH2 0x7BC JUMPI PUSH2 0xB43 PUSH2 0x5CE4 JUMP JUMPDEST PUSH1 0x1 PUSH1 0x1 PUSH1 0x60 SHL SUB PUSH1 0xA0 SHL PUSH1 0x97 SLOAD AND OR PUSH1 0x97 SSTORE DUP1 RETURN JUMPDEST POP DUP3 PUSH1 0x60 CALLDATASIZE PUSH1 0x3 NOT ADD SLT PUSH2 0x77E JUMPI PUSH1 0x44 CALLDATALOAD PUSH1 0x1 PUSH1 0x1 PUSH1 0xA0 SHL SUB DUP2 AND DUP2 SUB PUSH2 0x77E JUMPI PUSH1 0x20 SWAP3 PUSH2 0x777 SWAP2 PUSH1 0x24 CALLDATALOAD PUSH1 0x4 CALLDATALOAD PUSH2 0x53D2 JUMP JUMPDEST PUSH1 0x20 DUP5 PUSH2 0x777 DUP5 PUSH2 0xB9E CALLDATASIZE PUSH1 0x4 PUSH2 0x3AC0 JUMP JUMPDEST SWAP5 SWAP4 SWAP1 SWAP4 SWAP3 SWAP2 SWAP3 PUSH2 0x50AD JUMP JUMPDEST DUP4 DUP3 CALLVALUE PUSH2 0x86E JUMPI PUSH1 0x60 CALLDATASIZE PUSH1 0x3 NOT ADD SLT PUSH2 0x86E JUMPI PUSH1 0x1 PUSH1 0x1 PUSH1 0xA0 SHL SUB PUSH1 0x4 CALLDATALOAD DUP2 DUP2 AND DUP2 SUB PUSH2 0x77E JUMPI PUSH1 0x24 CALLDATALOAD SWAP2 DUP1 DUP4 AND DUP4 SUB PUSH2 0xACA JUMPI PUSH2 0x14F SLOAD AND CALLER SUB PUSH2 0xBFA JUMPI SWAP1 PUSH2 0xBF7 SWAP2 PUSH1 0x44 CALLDATALOAD SWAP2 PUSH2 0x5CAB JUMP JUMPDEST DUP1 RETURN JUMPDEST DUP4 MLOAD PUSH4 0x19748477 PUSH1 0xE0 SHL DUP2 MSTORE PUSH1 0x4 SWAP1 REVERT JUMPDEST POP CALLVALUE PUSH2 0x86E JUMPI DUP1 PUSH1 0x3 NOT CALLDATASIZE ADD SLT PUSH2 0x86E JUMPI PUSH2 0xBF7 PUSH2 0x4153 JUMP JUMPDEST POP DUP3 CALLVALUE PUSH2 0x7BC JUMPI DUP2 PUSH1 0x3 NOT CALLDATASIZE ADD SLT PUSH2 0x7BC JUMPI PUSH1 0x20 SWAP1 PUSH2 0x777 PUSH2 0xC4C PUSH2 0xC47 PUSH2 0x461B JUMP JUMPDEST PUSH2 0x422C JUMP JUMPDEST SWAP1 POP PUSH2 0x131 SLOAD PUSH2 0x4130 JUMP JUMPDEST POP DUP3 CALLVALUE PUSH2 0x7BC JUMPI PUSH1 0x20 CALLDATASIZE PUSH1 0x3 NOT ADD SLT PUSH2 0x7BC JUMPI PUSH1 0x4 CALLDATALOAD PUSH1 0x1 PUSH1 0x1 PUSH1 0xA0 SHL SUB DUP2 AND SWAP1 DUP2 SWAP1 SUB PUSH2 0x77E JUMPI DUP3 DUP3 SWAP2 PUSH1 0x20 SWAP5 MSTORE PUSH2 0x145 DUP5 MSTORE KECCAK256 SLOAD SWAP1 MLOAD SWAP1 DUP2 MSTORE RETURN JUMPDEST DUP4 SWAP1 CALLVALUE PUSH2 0x9D5 JUMPI CALLDATASIZE PUSH1 0x3 NOT ADD SLT PUSH2 0x7BC JUMPI PUSH2 0x9D1 SWAP1 PUSH2 0xCB1 PUSH2 0x5CE4 JUMP JUMPDEST MLOAD PUSH4 0x6DBCB039 PUSH1 0xE1 SHL PUSH1 0x20 DUP3 ADD MSTORE PUSH2 0x9BF DUP2 PUSH2 0x9B1 PUSH1 0x4 PUSH1 0x24 DUP4 ADD PUSH2 0x4A0E JUMP JUMPDEST POP CALLVALUE PUSH2 0x86E JUMPI PUSH1 0x20 CALLDATASIZE PUSH1 0x3 NOT ADD SLT PUSH2 0x86E JUMPI PUSH1 0x4 CALLDATALOAD PUSH1 0x1 PUSH1 0x1 PUSH1 0xA0 SHL SUB DUP2 AND SWAP1 DUP2 SWAP1 SUB PUSH2 0x77E JUMPI PUSH2 0xD00 PUSH2 0x5CE4 JUMP JUMPDEST PUSH2 0x152 DUP1 SLOAD PUSH1 0x1 PUSH1 0x1 PUSH1 0xA0 SHL SUB NOT AND SWAP1 SWAP2 OR SWAP1 SSTORE DUP1 RETURN JUMPDEST SWAP1 SWAP2 POP CALLVALUE PUSH2 0x7BC JUMPI CALLDATASIZE PUSH1 0x3 NOT ADD SLT PUSH2 0x86E JUMPI POP PUSH2 0xD32 PUSH2 0x567F JUMP JUMPDEST POP PUSH2 0x14F SLOAD PUSH1 0x1 PUSH1 0x1 PUSH1 0xA0 SHL SUB SWAP2 SWAP1 DUP3 AND CALLER SUB PUSH2 0xE1D JUMPI PUSH2 0xDE2 SWAP2 PUSH2 0xD58 CALLDATASIZE PUSH1 0x4 PUSH2 0x5C38 JUMP JUMPDEST SWAP2 PUSH2 0xD61 PUSH2 0x567F JUMP JUMPDEST POP PUSH2 0xD6A PUSH2 0x4F58 JUMP JUMPDEST PUSH2 0xD72 PUSH2 0x5D72 JUMP JUMPDEST PUSH2 0xDBE PUSH2 0xDAF DUP3 MLOAD PUSH4 0x3DAD0BD7 PUSH1 0xE1 SHL PUSH1 0x20 DUP3 ADD MSTORE PUSH2 0xD94 PUSH1 0x24 DUP3 ADD DUP8 PUSH2 0x52A0 JUMP JUMPDEST PUSH1 0xE4 DUP2 MSTORE PUSH2 0xDA4 PUSH2 0x104 DUP3 PUSH2 0x3A0D JUMP JUMPDEST DUP5 PUSH2 0x1F6 SLOAD AND PUSH2 0x48DB JUMP JUMPDEST PUSH1 0x20 DUP1 DUP3 MLOAD DUP4 ADD ADD SWAP2 ADD PUSH2 0x5BDD JUMP JUMPDEST DUP7 DUP5 DUP8 PUSH1 0x80 DUP5 SWAP9 SWAP7 SWAP12 SWAP6 SWAP8 SWAP11 ADD MLOAD AND SWAP2 DUP9 PUSH1 0xC0 DUP2 PUSH1 0xA0 DUP5 ADD MLOAD AND SWAP3 ADD MLOAD AND SWAP3 PUSH2 0x59E9 JUMP JUMPDEST PUSH1 0x4 CALLDATALOAD SWAP4 DUP1 DUP6 AND DUP1 SWAP6 SUB PUSH2 0x77E JUMPI PUSH1 0x84 CALLDATALOAD SWAP1 DUP2 AND DUP2 SUB PUSH2 0x77E JUMPI PUSH2 0xE19 SWAP5 PUSH2 0xE0F SWAP2 DUP9 PUSH1 0x44 CALLDATALOAD SUB SWAP2 PUSH2 0x5CAB JUMP JUMPDEST MLOAD SWAP5 DUP6 SWAP5 DUP6 PUSH2 0x398B JUMP JUMPDEST SUB SWAP1 RETURN JUMPDEST MLOAD PUSH4 0x19748477 PUSH1 0xE0 SHL DUP2 MSTORE PUSH1 0x4 SWAP1 REVERT JUMPDEST POP DUP3 CALLVALUE PUSH2 0x7BC JUMPI DUP2 PUSH1 0x3 NOT CALLDATASIZE ADD SLT PUSH2 0x7BC JUMPI PUSH1 0x20 SWAP1 PUSH2 0x155 SLOAD SWAP1 MLOAD SWAP1 DUP2 MSTORE RETURN JUMPDEST PUSH1 0x20 DUP5 PUSH2 0x777 PUSH2 0xE5E CALLDATASIZE PUSH1 0x4 PUSH2 0x3B00 JUMP JUMPDEST SWAP4 SWAP3 SWAP1 SWAP3 PUSH2 0x5034 JUMP JUMPDEST POP DUP3 CALLVALUE PUSH2 0x7BC JUMPI DUP2 PUSH1 0x3 NOT CALLDATASIZE ADD SLT PUSH2 0x7BC JUMPI PUSH1 0x20 SWAP1 PUSH2 0x777 PUSH2 0xE89 PUSH1 0x1 PUSH2 0x4655 JUMP JUMPDEST PUSH2 0xE9D PUSH2 0xE96 DUP3 DUP5 PUSH2 0x4370 JUMP JUMPDEST SWAP2 DUP4 PUSH2 0x42BA JUMP JUMPDEST SWAP2 PUSH2 0x469C JUMP JUMPDEST POP CALLVALUE PUSH2 0x86E JUMPI DUP1 PUSH1 0x3 NOT CALLDATASIZE ADD SLT PUSH2 0x86E JUMPI PUSH2 0xBF7 PUSH2 0x4D6B JUMP JUMPDEST POP CALLVALUE PUSH2 0x86E JUMPI PUSH1 0x20 CALLDATASIZE PUSH1 0x3 NOT ADD SLT PUSH2 0x86E JUMPI PUSH1 0x4 CALLDATALOAD PUSH1 0x1 PUSH1 0x1 PUSH1 0xA0 SHL SUB DUP2 AND SWAP1 DUP2 SWAP1 SUB PUSH2 0x77E JUMPI PUSH2 0xEEB PUSH2 0x5CE4 JUMP JUMPDEST PUSH2 0x12F DUP1 SLOAD PUSH1 0x1 PUSH1 0x1 PUSH1 0xA0 SHL SUB NOT AND SWAP1 SWAP2 OR SWAP1 SSTORE DUP1 RETURN JUMPDEST POP CALLVALUE PUSH2 0x86E JUMPI PUSH1 0x20 CALLDATASIZE PUSH1 0x3 NOT ADD SLT PUSH2 0x86E JUMPI PUSH2 0xF1C PUSH2 0x5CE4 JUMP JUMPDEST PUSH1 0x4 CALLDATALOAD PUSH2 0x14C SSTORE DUP1 RETURN JUMPDEST PUSH1 0x20 DUP5 PUSH2 0x777 DUP5 PUSH2 0xF38 CALLDATASIZE PUSH1 0x4 PUSH2 0x3A61 JUMP JUMPDEST SWAP3 SWAP2 SWAP1 SWAP2 PUSH2 0x5034 JUMP JUMPDEST POP DUP3 PUSH1 0xA0 CALLDATASIZE PUSH1 0x3 NOT ADD SLT PUSH2 0x7BC JUMPI PUSH1 0x1 PUSH1 0x1 PUSH1 0xA0 SHL SUB SWAP2 PUSH1 0x4 CALLDATALOAD SWAP1 DUP4 DUP3 AND DUP3 SUB PUSH2 0x77E JUMPI PUSH1 0x24 CALLDATALOAD SWAP4 DUP5 AND DUP5 SUB PUSH2 0x77E JUMPI PUSH1 0x20 SWAP4 PUSH2 0x777 SWAP3 CALLER SWAP2 PUSH1 0x84 CALLDATALOAD SWAP2 PUSH1 0x64 CALLDATALOAD SWAP2 PUSH1 0x44 CALLDATALOAD SWAP2 PUSH2 0x50AD JUMP JUMPDEST POP DUP3 CALLVALUE PUSH2 0x7BC JUMPI DUP2 PUSH1 0x3 NOT CALLDATASIZE ADD SLT PUSH2 0x7BC JUMPI PUSH1 0x20 SWAP1 PUSH2 0x777 PUSH2 0xFC0 PUSH2 0xFC7 PUSH2 0xFB4 PUSH2 0xC47 PUSH2 0x461B JUMP JUMPDEST PUSH2 0x131 SWAP4 SWAP2 SWAP4 SLOAD PUSH2 0x4130 JUMP JUMPDEST SWAP2 DUP3 PUSH2 0x4130 JUMP JUMPDEST SWAP1 PUSH2 0x5D93 JUMP JUMPDEST POP CALLVALUE PUSH2 0x86E JUMPI PUSH1 0x20 CALLDATASIZE PUSH1 0x3 NOT ADD SLT PUSH2 0x86E JUMPI PUSH2 0xFE7 PUSH2 0x5CE4 JUMP JUMPDEST PUSH1 0x4 CALLDATALOAD PUSH2 0x13D SSTORE DUP1 RETURN JUMPDEST DUP4 DUP3 CALLVALUE PUSH2 0x86E JUMPI PUSH1 0xA0 CALLDATASIZE PUSH1 0x3 NOT ADD SLT PUSH2 0x86E JUMPI PUSH2 0x100C PUSH2 0x567F JUMP JUMPDEST POP PUSH2 0x14F SLOAD PUSH1 0x1 PUSH1 0x1 PUSH1 0xA0 SHL SUB SWAP1 DUP2 AND CALLER SUB PUSH2 0x11DB JUMPI PUSH2 0x102D CALLDATASIZE PUSH1 0x4 PUSH2 0x56A6 JUMP JUMPDEST SWAP2 PUSH2 0x1036 PUSH2 0x567F JUMP JUMPDEST POP PUSH2 0x103F PUSH2 0x4F58 JUMP JUMPDEST PUSH2 0x1047 PUSH2 0x5D72 JUMP JUMPDEST PUSH2 0x104F PUSH2 0x4D6B JUMP JUMPDEST PUSH2 0x1062 PUSH2 0x105A PUSH2 0x4CA8 JUMP JUMPDEST DUP2 SWAP3 SWAP2 PUSH2 0x5703 JUMP JUMPDEST SWAP1 SWAP2 PUSH2 0x1071 DUP3 DUP5 DUP9 MLOAD SWAP4 PUSH2 0x4AA3 JUMP JUMPDEST DUP2 DUP2 LT PUSH2 0x11BE JUMPI POP POP PUSH8 0xDE0B6B3A7640000 SWAP2 PUSH2 0x1093 PUSH2 0x1099 SWAP3 DUP8 MLOAD SWAP3 PUSH2 0x4A6F JUMP JUMPDEST SWAP1 PUSH2 0x433D JUMP JUMPDEST DIV SWAP2 DUP3 ISZERO PUSH2 0x11AD JUMPI SWAP4 DUP4 SWAP5 DUP2 PUSH2 0x10D2 SWAP6 ADD SWAP1 DUP1 DUP3 MLOAD AND SWAP2 PUSH2 0x10C7 PUSH1 0x80 DUP10 ADD SWAP4 DUP8 DUP5 DUP7 MLOAD AND PUSH2 0x13D SLOAD SWAP3 PUSH2 0x5746 JUMP JUMPDEST SWAP7 SWAP2 DUP9 SWAP10 SWAP2 SWAP10 PUSH2 0x4130 JUMP JUMPDEST SWAP7 PUSH1 0x20 DUP11 ADD MLOAD DUP1 DUP10 LT PUSH2 0x1190 JUMPI POP DUP10 MLOAD SWAP1 PUSH2 0x134 PUSH2 0x10F1 DUP4 DUP3 SLOAD PUSH2 0x4130 JUMP JUMPDEST SWAP1 SSTORE PUSH2 0x1101 PUSH2 0x131 SWAP2 DUP3 SLOAD PUSH2 0x4130 JUMP JUMPDEST SWAP1 SSTORE DUP4 PUSH2 0x133 SLOAD AND SWAP1 DUP2 EXTCODESIZE ISZERO PUSH2 0x9D5 JUMPI DUP7 MLOAD PUSH4 0x2770A7EB PUSH1 0xE2 SHL DUP2 MSTORE ADDRESS PUSH1 0x4 DUP3 ADD MSTORE PUSH1 0x24 DUP2 ADD SWAP2 SWAP1 SWAP2 MSTORE SWAP1 DUP3 SWAP1 DUP3 SWAP1 PUSH1 0x44 SWAP1 DUP3 SWAP1 DUP5 SWAP1 GAS CALL DUP1 ISZERO PUSH2 0x1186 JUMPI PUSH2 0x1171 JUMPI JUMPDEST POP POP SWAP7 DUP6 PUSH2 0x1167 SWAP4 DUP4 DUP1 PUSH1 0x60 DUP10 SWAP7 PUSH2 0xE19 SWAP12 SWAP13 SWAP14 MLOAD AND SWAP6 ADD MLOAD AND SWAP2 MLOAD AND SWAP3 PUSH2 0x59E9 JUMP JUMPDEST MLOAD SWAP4 DUP5 SWAP4 DUP5 PUSH2 0x3924 JUMP JUMPDEST PUSH2 0x117C DUP3 DUP1 SWAP3 PUSH2 0x3A0D JUMP JUMPDEST PUSH2 0x86E JUMPI DUP1 PUSH2 0x1144 JUMP JUMPDEST DUP7 MLOAD RETURNDATASIZE DUP5 DUP3 RETURNDATACOPY RETURNDATASIZE SWAP1 REVERT JUMPDEST PUSH1 0x44 SWAP1 DUP10 DUP9 MLOAD SWAP2 PUSH4 0x54CDE313 PUSH1 0xE0 SHL DUP4 MSTORE PUSH1 0x4 DUP4 ADD MSTORE PUSH1 0x24 DUP3 ADD MSTORE REVERT JUMPDEST DUP5 MLOAD PUSH4 0xF3E39B5D PUSH1 0xE0 SHL DUP2 MSTORE PUSH1 0x4 SWAP1 REVERT JUMPDEST PUSH1 0x44 SWAP3 POP DUP8 MLOAD SWAP2 PUSH4 0xA5DB715D PUSH1 0xE0 SHL DUP4 MSTORE PUSH1 0x4 DUP4 ADD MSTORE PUSH1 0x24 DUP3 ADD MSTORE REVERT JUMPDEST DUP3 MLOAD PUSH4 0x19748477 PUSH1 0xE0 SHL DUP2 MSTORE PUSH1 0x4 SWAP1 REVERT JUMPDEST POP CALLVALUE PUSH2 0x86E JUMPI PUSH1 0x20 CALLDATASIZE PUSH1 0x3 NOT ADD SLT PUSH2 0x86E JUMPI PUSH2 0x1206 PUSH2 0x5CE4 JUMP JUMPDEST PUSH1 0x4 CALLDATALOAD PUSH2 0x139 SSTORE DUP1 RETURN JUMPDEST SWAP1 SWAP2 POP CALLVALUE PUSH2 0x7BC JUMPI CALLDATASIZE PUSH1 0x3 NOT ADD SLT PUSH2 0x86E JUMPI POP PUSH2 0x122B PUSH2 0x567F JUMP JUMPDEST POP PUSH2 0x14F SLOAD PUSH1 0x1 PUSH1 0x1 PUSH1 0xA0 SHL SUB SWAP1 DUP2 AND CALLER SUB PUSH2 0x12CD JUMPI PUSH2 0xE19 PUSH2 0xE0F SWAP2 PUSH2 0x1253 CALLDATASIZE PUSH1 0x4 PUSH2 0x5C38 JUMP JUMPDEST SWAP4 PUSH2 0x125C PUSH2 0x567F JUMP JUMPDEST POP PUSH2 0x1265 PUSH2 0x4F58 JUMP JUMPDEST PUSH2 0x126D PUSH2 0x5D72 JUMP JUMPDEST PUSH2 0x128F PUSH2 0xDAF DUP3 MLOAD PUSH4 0xF5571E01 PUSH1 0xE0 SHL PUSH1 0x20 DUP3 ADD MSTORE PUSH2 0xD94 PUSH1 0x24 DUP3 ADD DUP10 PUSH2 0x52A0 JUMP JUMPDEST SWAP5 DUP9 PUSH1 0x60 DUP8 SWAP4 SWAP7 SWAP6 SWAP10 SWAP5 SWAP11 ADD SWAP2 DUP3 MLOAD PUSH2 0x12AC PUSH2 0x14E SWAP2 DUP3 SLOAD PUSH2 0x4130 JUMP JUMPDEST SWAP1 SSTORE PUSH1 0xC0 PUSH2 0x12C2 DUP12 DUP4 PUSH1 0x80 DUP7 ADD MLOAD AND SWAP6 MLOAD PUSH2 0x4130 JUMP JUMPDEST SWAP3 ADD MLOAD AND SWAP2 DUP1 PUSH2 0x59E9 JUMP JUMPDEST DUP2 MLOAD PUSH4 0x19748477 PUSH1 0xE0 SHL DUP2 MSTORE PUSH1 0x4 SWAP1 REVERT JUMPDEST POP DUP3 CALLVALUE PUSH2 0x7BC JUMPI DUP2 PUSH1 0x3 NOT CALLDATASIZE ADD SLT PUSH2 0x7BC JUMPI PUSH1 0x20 SWAP1 PUSH1 0xFF PUSH1 0xCA SLOAD AND SWAP1 MLOAD SWAP1 ISZERO ISZERO DUP2 MSTORE RETURN JUMPDEST POP DUP3 CALLVALUE PUSH2 0x7BC JUMPI DUP2 PUSH1 0x3 NOT CALLDATASIZE ADD SLT PUSH2 0x7BC JUMPI PUSH1 0x20 SWAP1 PUSH2 0x15B SLOAD SWAP1 MLOAD SWAP1 DUP2 MSTORE RETURN JUMPDEST PUSH1 0x20 DUP5 PUSH2 0x777 DUP5 PUSH2 0x1334 CALLDATASIZE PUSH1 0x4 PUSH2 0x3962 JUMP JUMPDEST SWAP2 CALLER SWAP4 PUSH2 0x52F0 JUMP JUMPDEST POP DUP3 CALLVALUE PUSH2 0x7BC JUMPI DUP2 PUSH1 0x3 NOT CALLDATASIZE ADD SLT PUSH2 0x7BC JUMPI PUSH2 0x153 SLOAD SWAP1 MLOAD PUSH1 0x1 PUSH1 0x1 PUSH1 0xA0 SHL SUB SWAP1 SWAP2 AND DUP2 MSTORE PUSH1 0x20 SWAP1 RETURN JUMPDEST DUP4 DUP3 CALLVALUE PUSH2 0x86E JUMPI PUSH1 0xC0 CALLDATASIZE PUSH1 0x3 NOT ADD SLT PUSH2 0x86E JUMPI PUSH2 0x1381 PUSH2 0x567F JUMP JUMPDEST POP PUSH2 0x14F SLOAD PUSH1 0x1 PUSH1 0x1 PUSH1 0xA0 SHL SUB SWAP3 SWAP1 DUP4 AND CALLER SUB PUSH2 0xE1D JUMPI PUSH2 0x141B PUSH2 0x13A6 CALLDATASIZE PUSH1 0x4 PUSH2 0x5AA2 JUMP JUMPDEST SWAP2 PUSH2 0x13AF PUSH2 0x567F JUMP JUMPDEST POP PUSH2 0x13B8 PUSH2 0x4F58 JUMP JUMPDEST PUSH2 0x13C0 PUSH2 0x5D72 JUMP JUMPDEST PUSH2 0x13C8 PUSH2 0x4D6B JUMP JUMPDEST PUSH2 0x13D0 PUSH2 0x4CA8 JUMP JUMPDEST PUSH2 0x13DF DUP8 DUP7 SWAP6 SWAP4 SWAP6 MLOAD AND PUSH2 0x4519 JUMP JUMPDEST SWAP4 PUSH2 0x13FF PUSH2 0x13ED DUP7 DUP5 PUSH2 0x4218 JUMP JUMPDEST MLOAD SWAP3 PUSH2 0x13F9 DUP5 DUP9 PUSH2 0x49BD JUMP JUMPDEST DUP3 PUSH2 0x5703 JUMP JUMPDEST PUSH1 0x20 DUP9 SWAP6 SWAP3 SWAP6 ADD SWAP5 DUP5 DUP7 MLOAD SWAP5 PUSH2 0x1415 DUP3 DUP12 PUSH2 0x4C05 JUMP JUMPDEST SWAP1 PUSH2 0x5B0B JUMP JUMPDEST DUP2 DUP2 LT PUSH2 0x1507 JUMPI POP POP SWAP5 DUP1 SWAP7 PUSH2 0x1435 PUSH2 0x146D SWAP8 DUP5 MLOAD PUSH2 0x5D93 JUMP JUMPDEST SWAP5 PUSH1 0x60 DUP8 ADD SWAP1 PUSH2 0x1462 DUP4 DUP4 MLOAD AND DUP9 DUP11 DUP10 PUSH1 0xA0 DUP3 ADD SWAP9 DUP9 DUP1 DUP12 MLOAD AND SWAP4 MLOAD AND DUP2 MSTORE PUSH2 0x144 PUSH1 0x20 MSTORE KECCAK256 SLOAD SWAP3 PUSH2 0x5746 JUMP JUMPDEST SWAP9 SWAP2 DUP3 SWAP12 SWAP2 SWAP12 PUSH2 0x420B JUMP JUMPDEST SWAP9 DUP8 DUP2 ADD SWAP7 DUP8 MLOAD DUP1 DUP13 GT PUSH2 0x14EA JUMPI POP DUP11 ISZERO PUSH2 0x14D9 JUMPI SWAP5 DUP10 SWAP7 SWAP5 PUSH2 0x14B4 DUP3 SWAP6 DUP14 SWAP15 SWAP16 SWAP6 PUSH2 0xE19 SWAP15 SWAP6 DUP6 PUSH1 0x80 PUSH2 0x1167 SWAP15 SWAP13 PUSH2 0x14A9 PUSH2 0x14CF SWAP12 DUP7 PUSH2 0x5B23 JUMP JUMPDEST MLOAD SWAP3 ADD MLOAD AND SWAP3 PUSH2 0x48FD JUMP JUMPDEST DUP7 MLOAD PUSH2 0x14C4 PUSH2 0x14E SWAP2 DUP3 SLOAD PUSH2 0x4130 JUMP JUMPDEST SWAP1 SSTORE MLOAD AND SWAP5 MLOAD PUSH2 0x4130 JUMP JUMPDEST SWAP2 MLOAD AND SWAP2 DUP1 PUSH2 0x59E9 JUMP JUMPDEST DUP9 MLOAD PUSH4 0xF3E39B5D PUSH1 0xE0 SHL DUP2 MSTORE PUSH1 0x4 SWAP1 REVERT JUMPDEST PUSH1 0x44 SWAP1 DUP13 DUP12 MLOAD SWAP2 PUSH4 0xB63F1A7 PUSH1 0xE0 SHL DUP4 MSTORE PUSH1 0x4 DUP4 ADD MSTORE PUSH1 0x24 DUP3 ADD MSTORE REVERT JUMPDEST PUSH1 0x44 SWAP3 POP DUP5 MLOAD SWAP2 PUSH4 0xC39B739F PUSH1 0xE0 SHL DUP4 MSTORE PUSH1 0x4 DUP4 ADD MSTORE PUSH1 0x24 DUP3 ADD MSTORE REVERT JUMPDEST PUSH1 0x20 DUP5 PUSH2 0x777 PUSH2 0x1535 CALLDATASIZE PUSH1 0x4 PUSH2 0x3A8E JUMP JUMPDEST SWAP4 SWAP3 SWAP2 SWAP1 SWAP2 CALLER SWAP4 PUSH2 0x5594 JUMP JUMPDEST POP DUP3 CALLVALUE PUSH2 0x7BC JUMPI DUP2 PUSH1 0x3 NOT CALLDATASIZE ADD SLT PUSH2 0x7BC JUMPI PUSH1 0x20 SWAP1 PUSH2 0x13D SLOAD SWAP1 MLOAD SWAP1 DUP2 MSTORE RETURN JUMPDEST DUP4 DUP3 CALLVALUE PUSH2 0x86E JUMPI PUSH1 0xC0 CALLDATASIZE PUSH1 0x3 NOT ADD SLT PUSH2 0x86E JUMPI PUSH2 0x157C PUSH2 0x567F JUMP JUMPDEST POP PUSH2 0x14F SLOAD PUSH1 0x1 PUSH1 0x1 PUSH1 0xA0 SHL SUB SWAP1 DUP2 AND CALLER SUB PUSH2 0x11DB JUMPI SWAP1 PUSH2 0x163F SWAP2 PUSH2 0x15A2 CALLDATASIZE PUSH1 0x4 PUSH2 0x5AA2 JUMP JUMPDEST SWAP4 PUSH2 0x15AB PUSH2 0x567F JUMP JUMPDEST POP PUSH2 0x15B4 PUSH2 0x4F58 JUMP JUMPDEST PUSH2 0x15BC PUSH2 0x5D72 JUMP JUMPDEST PUSH2 0x15C4 PUSH2 0x461B JUMP JUMPDEST SWAP3 PUSH2 0x15D1 DUP4 DUP8 MLOAD AND PUSH2 0x4519 JUMP JUMPDEST SWAP3 PUSH2 0x15F4 PUSH2 0x15DF DUP6 DUP8 PUSH2 0x4218 JUMP JUMPDEST MLOAD SWAP6 PUSH2 0x15EB DUP8 DUP8 PUSH2 0x49BD JUMP JUMPDEST PUSH2 0x149 SLOAD PUSH2 0x5703 JUMP JUMPDEST POP POP PUSH2 0x1605 PUSH1 0x20 DUP9 ADD SWAP6 DUP7 MLOAD PUSH2 0x5D93 JUMP JUMPDEST SWAP2 PUSH1 0x60 DUP9 ADD SWAP1 DUP3 DUP3 MLOAD AND SWAP4 PUSH2 0x1634 PUSH1 0xA0 DUP12 ADD SWAP6 DUP3 DUP13 DUP8 DUP1 DUP11 MLOAD AND SWAP2 MLOAD AND DUP7 MSTORE PUSH2 0x145 PUSH1 0x20 MSTORE DUP10 DUP7 KECCAK256 SLOAD SWAP3 PUSH2 0x5746 JUMP JUMPDEST SWAP9 SWAP2 DUP4 SWAP12 SWAP2 SWAP12 PUSH2 0x4130 JUMP JUMPDEST SWAP9 DUP3 ISZERO PUSH2 0x172F JUMPI DUP8 DUP13 ADD MLOAD DUP1 DUP12 LT PUSH2 0x1712 JUMPI POP DUP6 SWAP2 PUSH2 0x1697 SWAP2 PUSH2 0x1663 PUSH1 0x1 DUP14 PUSH2 0x5B23 JUMP JUMPDEST MLOAD SWAP4 PUSH2 0x1671 DUP3 PUSH2 0x137 PUSH2 0x39F1 JUMP JUMPDEST POP PUSH2 0x167D DUP7 DUP3 SLOAD PUSH2 0x4130 JUMP JUMPDEST SWAP1 SSTORE PUSH2 0x168D PUSH2 0x131 SWAP2 DUP3 SLOAD PUSH2 0x4130 JUMP JUMPDEST SWAP1 SSTORE PUSH2 0x135 PUSH2 0x389F JUMP JUMPDEST SWAP1 SLOAD SWAP1 PUSH1 0x3 SHL SHR AND SWAP1 DUP2 EXTCODESIZE ISZERO PUSH2 0x9D5 JUMPI DUP7 MLOAD PUSH4 0x2770A7EB PUSH1 0xE2 SHL DUP2 MSTORE ADDRESS PUSH1 0x4 DUP3 ADD MSTORE PUSH1 0x24 DUP2 ADD SWAP2 SWAP1 SWAP2 MSTORE SWAP1 DUP3 SWAP1 DUP3 SWAP1 PUSH1 0x44 SWAP1 DUP3 SWAP1 DUP5 SWAP1 GAS CALL DUP1 ISZERO PUSH2 0x1186 JUMPI PUSH2 0x16FD JUMPI JUMPDEST POP POP SWAP7 DUP6 PUSH2 0x1167 SWAP4 DUP4 DUP1 PUSH1 0x80 DUP10 SWAP7 PUSH2 0xE19 SWAP12 SWAP13 SWAP14 MLOAD AND SWAP6 ADD MLOAD AND SWAP2 MLOAD AND SWAP3 PUSH2 0x59E9 JUMP JUMPDEST PUSH2 0x1708 DUP3 DUP1 SWAP3 PUSH2 0x3A0D JUMP JUMPDEST PUSH2 0x86E JUMPI DUP1 PUSH2 0x16DA JUMP JUMPDEST PUSH1 0x44 SWAP1 DUP12 DUP11 MLOAD SWAP2 PUSH4 0x54CDE313 PUSH1 0xE0 SHL DUP4 MSTORE PUSH1 0x4 DUP4 ADD MSTORE PUSH1 0x24 DUP3 ADD MSTORE REVERT JUMPDEST DUP8 MLOAD PUSH4 0xF3E39B5D PUSH1 0xE0 SHL DUP2 MSTORE PUSH1 0x4 SWAP1 REVERT JUMPDEST PUSH1 0x20 DUP5 PUSH2 0x777 DUP5 PUSH2 0x1752 CALLDATASIZE PUSH1 0x4 PUSH2 0x3962 JUMP JUMPDEST SWAP2 CALLER SWAP4 PUSH2 0x51FA JUMP JUMPDEST PUSH1 0x20 DUP5 PUSH2 0x777 DUP5 PUSH2 0x176C CALLDATASIZE PUSH1 0x4 PUSH2 0x3A61 JUMP JUMPDEST SWAP3 SWAP2 SWAP1 SWAP2 PUSH2 0x4F7A JUMP JUMPDEST PUSH1 0x20 DUP5 PUSH2 0x777 PUSH2 0x1786 CALLDATASIZE PUSH1 0x4 PUSH2 0x3A8E JUMP JUMPDEST SWAP4 SWAP3 SWAP2 SWAP1 SWAP2 CALLER SWAP4 PUSH2 0x52F0 JUMP JUMPDEST POP DUP3 CALLVALUE PUSH2 0x7BC JUMPI DUP2 PUSH1 0x3 NOT CALLDATASIZE ADD SLT PUSH2 0x7BC JUMPI PUSH1 0x20 SWAP1 PUSH2 0x18F SLOAD NUMBER LT ISZERO SWAP1 MLOAD SWAP1 DUP2 MSTORE RETURN JUMPDEST PUSH1 0x20 DUP5 PUSH2 0x777 PUSH2 0x17C6 CALLDATASIZE PUSH1 0x4 PUSH2 0x3B00 JUMP JUMPDEST SWAP4 SWAP3 SWAP1 SWAP3 PUSH2 0x4F7A JUMP JUMPDEST POP DUP3 CALLVALUE PUSH2 0x7BC JUMPI DUP2 PUSH1 0x3 NOT CALLDATASIZE ADD SLT PUSH2 0x7BC JUMPI PUSH1 0xCA SLOAD SWAP1 MLOAD PUSH1 0x10 SWAP2 SWAP1 SWAP2 SHR PUSH1 0x1 PUSH1 0x1 PUSH1 0xA0 SHL SUB AND DUP2 MSTORE PUSH1 0x20 SWAP1 RETURN JUMPDEST DUP4 DUP3 CALLVALUE PUSH2 0x86E JUMPI PUSH1 0x20 CALLDATASIZE PUSH1 0x3 NOT ADD SLT PUSH2 0x86E JUMPI PUSH1 0x4 CALLDATALOAD PUSH1 0x1 PUSH1 0x1 PUSH1 0xA0 SHL SUB DUP2 AND SWAP2 SWAP1 DUP3 SWAP1 SUB PUSH2 0x77E JUMPI DUP3 SWAP2 DUP2 MSTORE PUSH2 0x136 PUSH1 0x20 MSTORE KECCAK256 PUSH1 0xFF PUSH1 0x1 DUP3 SLOAD SWAP3 ADD SLOAD AND DUP3 MLOAD SWAP2 DUP3 MSTORE ISZERO ISZERO PUSH1 0x20 DUP3 ADD MSTORE RETURN JUMPDEST DUP4 DUP3 CALLVALUE PUSH2 0x86E JUMPI DUP2 PUSH1 0x3 NOT CALLDATASIZE ADD SLT PUSH2 0x86E JUMPI POP PUSH1 0x1 PUSH1 0x1 PUSH1 0xA0 SHL SUB SWAP1 PUSH1 0x4 CALLDATALOAD DUP3 DUP2 AND DUP2 SUB PUSH2 0x77E JUMPI PUSH1 0x24 CALLDATALOAD SWAP3 DUP4 AND DUP4 SUB PUSH2 0x77E JUMPI PUSH1 0x20 SWAP3 PUSH2 0x777 SWAP2 CALLER SWAP1 PUSH2 0x4859 JUMP JUMPDEST POP DUP3 CALLVALUE PUSH2 0x7BC JUMPI DUP2 PUSH1 0x3 NOT CALLDATASIZE ADD SLT PUSH2 0x7BC JUMPI PUSH1 0x20 SWAP1 PUSH2 0x18B3 PUSH2 0x18AD PUSH2 0xC47 PUSH2 0x461B JUMP JUMPDEST SWAP1 PUSH2 0x43E1 JUMP JUMPDEST PUSH2 0x14A SLOAD LT ISZERO SWAP1 MLOAD SWAP1 DUP2 MSTORE RETURN JUMPDEST POP DUP3 DUP1 PUSH1 0x3 NOT CALLDATASIZE ADD SLT PUSH2 0x77E JUMPI PUSH2 0x777 PUSH1 0x20 SWAP3 CALLER PUSH1 0x24 CALLDATALOAD PUSH1 0x4 CALLDATALOAD PUSH2 0x53D2 JUMP JUMPDEST PUSH1 0x20 DUP5 PUSH2 0x777 PUSH2 0x18F0 CALLDATASIZE PUSH1 0x4 PUSH2 0x3A61 JUMP JUMPDEST SWAP3 SWAP2 CALLER SWAP3 PUSH2 0x5034 JUMP JUMPDEST POP DUP3 CALLVALUE PUSH2 0x7BC JUMPI DUP2 PUSH1 0x3 NOT CALLDATASIZE ADD SLT PUSH2 0x7BC JUMPI PUSH2 0x146 SLOAD SWAP1 MLOAD PUSH1 0x1 PUSH1 0x1 PUSH1 0xA0 SHL SUB SWAP1 SWAP2 AND DUP2 MSTORE PUSH1 0x20 SWAP1 RETURN JUMPDEST POP DUP3 CALLVALUE PUSH2 0x7BC JUMPI DUP2 PUSH1 0x3 NOT CALLDATASIZE ADD SLT PUSH2 0x7BC JUMPI PUSH1 0x20 SWAP1 PUSH2 0x1943 PUSH2 0xC47 PUSH2 0x461B JUMP JUMPDEST POP SWAP1 MLOAD SWAP1 DUP2 MSTORE RETURN JUMPDEST POP DUP3 CALLVALUE PUSH2 0x7BC JUMPI DUP2 PUSH1 0x3 NOT CALLDATASIZE ADD SLT PUSH2 0x7BC JUMPI PUSH2 0x158 SLOAD SWAP1 MLOAD PUSH1 0x1 PUSH1 0x1 PUSH1 0xA0 SHL SUB SWAP1 SWAP2 AND DUP2 MSTORE PUSH1 0x20 SWAP1 RETURN JUMPDEST POP DUP3 CALLVALUE PUSH2 0x7BC JUMPI DUP2 PUSH1 0x3 NOT CALLDATASIZE ADD SLT PUSH2 0x7BC JUMPI PUSH1 0x20 SWAP1 PUSH2 0x25C SLOAD SWAP1 MLOAD SWAP1 DUP2 MSTORE RETURN JUMPDEST POP DUP3 CALLVALUE PUSH2 0x7BC JUMPI DUP2 PUSH1 0x3 NOT CALLDATASIZE ADD SLT PUSH2 0x7BC JUMPI PUSH1 0x20 SWAP1 PUSH2 0x14A SLOAD SWAP1 MLOAD SWAP1 DUP2 MSTORE RETURN JUMPDEST PUSH1 0x20 DUP5 PUSH2 0x777 PUSH2 0x19C6 CALLDATASIZE PUSH1 0x4 PUSH2 0x3A61 JUMP JUMPDEST SWAP3 SWAP2 CALLER SWAP3 PUSH2 0x54C5 JUMP JUMPDEST PUSH1 0x20 DUP5 PUSH2 0x777 PUSH2 0x19E0 CALLDATASIZE PUSH1 0x4 PUSH2 0x3B00 JUMP JUMPDEST SWAP4 SWAP3 SWAP1 SWAP3 PUSH2 0x54C5 JUMP JUMPDEST DUP4 DUP3 CALLVALUE PUSH2 0x86E JUMPI PUSH1 0xC0 CALLDATASIZE PUSH1 0x3 NOT ADD SLT PUSH2 0x86E JUMPI POP PUSH2 0x1A05 PUSH2 0x567F JUMP JUMPDEST POP PUSH2 0x14F SLOAD PUSH1 0x1 PUSH1 0x1 PUSH1 0xA0 SHL SUB SWAP1 DUP2 AND CALLER SUB PUSH2 0x12CD JUMPI PUSH2 0xE19 PUSH2 0xE0F SWAP2 PUSH2 0x1A2D CALLDATASIZE PUSH1 0x4 PUSH2 0x5AA2 JUMP JUMPDEST SWAP4 PUSH2 0x1A36 PUSH2 0x567F JUMP JUMPDEST POP PUSH2 0x1A3F PUSH2 0x4F58 JUMP JUMPDEST PUSH2 0x1A47 PUSH2 0x5D72 JUMP JUMPDEST PUSH2 0x1A78 PUSH2 0xDAF DUP3 MLOAD PUSH4 0x7225DA89 PUSH1 0xE1 SHL PUSH1 0x20 DUP3 ADD MSTORE PUSH2 0x1A69 PUSH1 0x24 DUP3 ADD DUP10 PUSH2 0x4FEF JUMP JUMPDEST PUSH1 0xC4 DUP2 MSTORE PUSH2 0xDA4 PUSH1 0xE4 DUP3 PUSH2 0x3A0D JUMP JUMPDEST SWAP5 DUP9 DUP6 DUP8 SWAP4 SWAP7 SWAP6 SWAP10 SWAP5 SWAP11 ADD SWAP2 DUP3 MLOAD PUSH2 0x1A94 PUSH2 0x14E SWAP2 DUP3 SLOAD PUSH2 0x4130 JUMP JUMPDEST SWAP1 SSTORE PUSH1 0xA0 PUSH2 0x12C2 DUP12 DUP4 PUSH1 0x60 DUP7 ADD MLOAD AND SWAP6 MLOAD PUSH2 0x4130 JUMP JUMPDEST POP CALLVALUE PUSH2 0x86E JUMPI PUSH1 0x20 CALLDATASIZE PUSH1 0x3 NOT ADD SLT PUSH2 0x86E JUMPI PUSH1 0x4 CALLDATALOAD PUSH1 0x1 PUSH1 0x1 PUSH1 0xA0 SHL SUB DUP2 AND SWAP1 DUP2 SWAP1 SUB PUSH2 0x77E JUMPI PUSH2 0x1AD9 PUSH2 0x5CE4 JUMP JUMPDEST PUSH2 0x153 DUP1 SLOAD PUSH1 0x1 PUSH1 0x1 PUSH1 0xA0 SHL SUB NOT AND SWAP1 SWAP2 OR SWAP1 SSTORE DUP1 RETURN JUMPDEST POP DUP3 CALLVALUE PUSH2 0x7BC JUMPI DUP2 PUSH1 0x3 NOT CALLDATASIZE ADD SLT PUSH2 0x7BC JUMPI PUSH2 0x1B0A PUSH2 0x5D72 JUMP JUMPDEST PUSH1 0xCA SLOAD PUSH1 0x10 DUP2 SWAP1 SHR PUSH1 0x1 PUSH1 0x1 PUSH1 0xA0 SHL SUB AND CALLER SUB PUSH2 0x1B74 JUMPI PUSH1 0xFF DUP2 AND ISZERO PUSH2 0x1B63 JUMPI PUSH2 0xFF00 NOT AND PUSH2 0x100 OR PUSH1 0xCA SSTORE MLOAD CALLER DUP2 MSTORE PUSH32 0x62E78CEA01BEE320CD4E420270B5EA74000D11B0C9F74754EBDBFC544B05A258 SWAP1 PUSH1 0x20 SWAP1 LOG1 DUP1 RETURN JUMPDEST DUP2 MLOAD PUSH4 0x866099C3 PUSH1 0xE0 SHL DUP2 MSTORE PUSH1 0x4 SWAP1 REVERT JUMPDEST DUP2 MLOAD PUSH4 0x1D77D477 PUSH1 0xE2 SHL DUP2 MSTORE PUSH1 0x4 SWAP1 REVERT JUMPDEST PUSH1 0x20 DUP5 PUSH2 0x777 DUP5 PUSH2 0x1B97 CALLDATASIZE PUSH1 0x4 PUSH2 0x3A8E JUMP JUMPDEST SWAP4 SWAP3 SWAP1 SWAP3 PUSH2 0x52F0 JUMP JUMPDEST POP DUP3 CALLVALUE PUSH2 0x7BC JUMPI DUP2 PUSH1 0x3 NOT CALLDATASIZE ADD SLT PUSH2 0x7BC JUMPI PUSH1 0x20 SWAP1 PUSH2 0x777 PUSH2 0x18AD PUSH2 0xC47 PUSH2 0x461B JUMP JUMPDEST POP DUP3 CALLVALUE PUSH2 0x7BC JUMPI DUP2 PUSH1 0x3 NOT CALLDATASIZE ADD SLT PUSH2 0x7BC JUMPI PUSH1 0x20 SWAP1 PUSH2 0x15A SLOAD SWAP1 MLOAD SWAP1 DUP2 MSTORE RETURN JUMPDEST POP DUP3 CALLVALUE PUSH2 0x7BC JUMPI DUP2 PUSH1 0x3 NOT CALLDATASIZE ADD SLT PUSH2 0x7BC JUMPI PUSH1 0x20 SWAP1 PUSH2 0x777 PUSH2 0x1C05 PUSH1 0x1 PUSH2 0x4655 JUMP JUMPDEST PUSH2 0xE9D PUSH2 0x1C12 DUP3 DUP5 PUSH2 0x42BA JUMP JUMPDEST SWAP2 DUP4 PUSH2 0x4370 JUMP JUMPDEST POP DUP3 CALLVALUE PUSH2 0x7BC JUMPI DUP2 PUSH1 0x3 NOT CALLDATASIZE ADD SLT PUSH2 0x7BC JUMPI PUSH2 0x1C3 SLOAD SWAP1 MLOAD PUSH1 0x1 PUSH1 0x1 PUSH1 0xA0 SHL SUB SWAP1 SWAP2 AND DUP2 MSTORE PUSH1 0x20 SWAP1 RETURN JUMPDEST POP DUP3 CALLVALUE PUSH2 0x7BC JUMPI PUSH1 0x20 CALLDATASIZE PUSH1 0x3 NOT ADD SLT PUSH2 0x7BC JUMPI PUSH1 0x4 CALLDATALOAD SWAP2 PUSH2 0x148 SWAP1 DUP2 SLOAD DUP5 LT ISZERO PUSH2 0x86E JUMPI POP PUSH1 0x20 SWAP3 PUSH2 0x1C74 SWAP2 PUSH2 0x389F JUMP JUMPDEST SWAP2 SWAP1 SLOAD SWAP1 MLOAD SWAP2 PUSH1 0x3 SHL SHR DUP2 MSTORE RETURN JUMPDEST POP CALLVALUE PUSH2 0x86E JUMPI PUSH1 0x20 CALLDATASIZE PUSH1 0x3 NOT ADD SLT PUSH2 0x86E JUMPI PUSH2 0x1C9C PUSH2 0x5CE4 JUMP JUMPDEST PUSH1 0x4 CALLDATALOAD PUSH2 0x149 SSTORE DUP1 RETURN JUMPDEST PUSH1 0x20 DUP5 PUSH2 0x777 PUSH2 0x1CB7 CALLDATASIZE PUSH1 0x4 PUSH2 0x3AC0 JUMP JUMPDEST SWAP5 SWAP4 SWAP3 SWAP1 SWAP3 CALLER SWAP5 PUSH2 0x50AD JUMP JUMPDEST POP CALLVALUE PUSH2 0x86E JUMPI PUSH1 0x20 CALLDATASIZE PUSH1 0x3 NOT ADD SLT PUSH2 0x86E JUMPI PUSH2 0x1CDD PUSH2 0x5CE4 JUMP JUMPDEST PUSH1 0x4 CALLDATALOAD PUSH2 0x140 SSTORE DUP1 RETURN JUMPDEST POP DUP3 CALLVALUE PUSH2 0x7BC JUMPI DUP2 PUSH1 0x3 NOT CALLDATASIZE ADD SLT PUSH2 0x7BC JUMPI PUSH1 0x20 SWAP1 PUSH2 0x190 SLOAD SWAP1 MLOAD SWAP1 DUP2 MSTORE RETURN JUMPDEST POP CALLVALUE PUSH2 0x86E JUMPI PUSH1 0x20 CALLDATASIZE PUSH1 0x3 NOT ADD SLT PUSH2 0x86E JUMPI PUSH2 0x1D21 PUSH2 0x5CE4 JUMP JUMPDEST PUSH1 0x4 CALLDATALOAD PUSH2 0x141 SSTORE DUP1 RETURN JUMPDEST POP DUP3 CALLVALUE PUSH2 0x7BC JUMPI DUP2 PUSH1 0x3 NOT CALLDATASIZE ADD SLT PUSH2 0x7BC JUMPI PUSH1 0x20 SWAP1 PUSH2 0x134 SLOAD SWAP1 MLOAD SWAP1 DUP2 MSTORE RETURN JUMPDEST POP DUP3 CALLVALUE PUSH2 0x7BC JUMPI DUP2 PUSH1 0x3 NOT CALLDATASIZE ADD SLT PUSH2 0x7BC JUMPI PUSH1 0x20 SWAP1 PUSH2 0x142 SLOAD SWAP1 MLOAD SWAP1 DUP2 MSTORE RETURN JUMPDEST POP CALLVALUE PUSH2 0x86E JUMPI PUSH1 0x20 CALLDATASIZE PUSH1 0x3 NOT ADD SLT PUSH2 0x86E JUMPI PUSH2 0x1D85 PUSH2 0x5CE4 JUMP JUMPDEST PUSH1 0x4 CALLDATALOAD PUSH2 0x13B SSTORE DUP1 RETURN JUMPDEST POP DUP3 CALLVALUE PUSH2 0x7BC JUMPI DUP2 PUSH1 0x3 NOT CALLDATASIZE ADD SLT PUSH2 0x7BC JUMPI PUSH1 0x20 SWAP1 PUSH2 0x156 SLOAD SWAP1 MLOAD SWAP1 DUP2 MSTORE RETURN JUMPDEST POP DUP3 CALLVALUE PUSH2 0x7BC JUMPI DUP2 PUSH1 0x3 NOT CALLDATASIZE ADD SLT PUSH2 0x7BC JUMPI PUSH1 0x20 SWAP1 PUSH2 0x139 SLOAD SWAP1 MLOAD SWAP1 DUP2 MSTORE RETURN JUMPDEST PUSH1 0x20 DUP5 PUSH2 0x777 PUSH2 0x1DE0 CALLDATASIZE PUSH1 0x4 PUSH2 0x3A8E JUMP JUMPDEST SWAP4 SWAP3 SWAP2 SWAP1 SWAP2 CALLER SWAP4 PUSH2 0x51FA JUMP JUMPDEST POP CALLVALUE PUSH2 0x86E JUMPI PUSH1 0x20 CALLDATASIZE PUSH1 0x3 NOT ADD SLT PUSH2 0x86E JUMPI PUSH2 0x1E06 PUSH2 0x5CE4 JUMP JUMPDEST PUSH1 0x4 CALLDATALOAD PUSH2 0x154 SSTORE DUP1 RETURN JUMPDEST POP CALLVALUE PUSH2 0x86E JUMPI PUSH1 0x20 CALLDATASIZE PUSH1 0x3 NOT ADD SLT PUSH2 0x86E JUMPI PUSH1 0x4 CALLDATALOAD PUSH1 0x1 PUSH1 0x1 PUSH1 0xA0 SHL SUB DUP2 AND SWAP1 DUP2 SWAP1 SUB PUSH2 0x77E JUMPI PUSH2 0x1E3F PUSH2 0x5CE4 JUMP JUMPDEST PUSH2 0x158 DUP1 SLOAD PUSH1 0x1 PUSH1 0x1 PUSH1 0xA0 SHL SUB NOT AND SWAP1 SWAP2 OR SWAP1 SSTORE DUP1 RETURN JUMPDEST POP CALLVALUE PUSH2 0x86E JUMPI PUSH1 0x20 CALLDATASIZE PUSH1 0x3 NOT ADD SLT PUSH2 0x86E JUMPI PUSH2 0x1E70 PUSH2 0x5CE4 JUMP JUMPDEST PUSH1 0x4 CALLDATALOAD PUSH2 0x13E SSTORE DUP1 RETURN JUMPDEST POP DUP3 CALLVALUE PUSH2 0x7BC JUMPI DUP2 PUSH1 0x3 NOT CALLDATASIZE ADD SLT PUSH2 0x7BC JUMPI PUSH1 0x20 SWAP1 PUSH2 0x154 SLOAD SWAP1 MLOAD SWAP1 DUP2 MSTORE RETURN JUMPDEST POP DUP3 CALLVALUE PUSH2 0x7BC JUMPI DUP2 PUSH1 0x3 NOT CALLDATASIZE ADD SLT PUSH2 0x7BC JUMPI PUSH1 0x20 SWAP1 PUSH2 0x149 SLOAD SWAP1 MLOAD SWAP1 DUP2 MSTORE RETURN JUMPDEST SWAP1 SWAP2 POP CALLDATASIZE PUSH1 0x3 NOT ADD SLT PUSH2 0x86E JUMPI POP PUSH1 0x4 CALLDATALOAD SWAP1 PUSH1 0x1 PUSH1 0x1 PUSH1 0xA0 SHL SUB DUP1 DUP4 AND DUP4 SUB PUSH2 0x77E JUMPI PUSH1 0x24 CALLDATALOAD SWAP1 DUP1 DUP3 AND DUP3 SUB PUSH2 0x77E JUMPI PUSH1 0xA4 CALLDATALOAD DUP2 DUP2 AND DUP2 SUB PUSH2 0x77E JUMPI PUSH1 0xC4 CALLDATALOAD SWAP2 DUP3 AND DUP3 SUB PUSH2 0x77E JUMPI PUSH1 0x20 SWAP5 PUSH2 0x777 SWAP4 PUSH1 0x84 CALLDATALOAD SWAP2 PUSH1 0x64 CALLDATALOAD SWAP2 PUSH1 0x44 CALLDATALOAD SWAP2 PUSH2 0x50AD JUMP JUMPDEST POP CALLVALUE PUSH2 0x86E JUMPI DUP1 PUSH1 0x3 NOT CALLDATASIZE ADD SLT PUSH2 0x86E JUMPI PUSH2 0x1F33 PUSH2 0x5CE4 JUMP JUMPDEST PUSH1 0x1 PUSH1 0xFF NOT PUSH1 0xCA SLOAD AND OR PUSH1 0xCA SSTORE DUP1 RETURN JUMPDEST POP DUP3 CALLVALUE PUSH2 0x7BC JUMPI DUP2 PUSH1 0x3 NOT CALLDATASIZE ADD SLT PUSH2 0x7BC JUMPI PUSH1 0x20 SWAP1 PUSH2 0x1943 PUSH2 0x4CA8 JUMP JUMPDEST POP CALLVALUE PUSH2 0x86E JUMPI PUSH1 0x20 CALLDATASIZE PUSH1 0x3 NOT ADD SLT PUSH2 0x86E JUMPI PUSH2 0x1F7A PUSH2 0x5CE4 JUMP JUMPDEST PUSH1 0x4 CALLDATALOAD PUSH2 0x159 SSTORE DUP1 RETURN JUMPDEST POP DUP3 CALLVALUE PUSH2 0x7BC JUMPI DUP2 PUSH1 0x3 NOT CALLDATASIZE ADD SLT PUSH2 0x7BC JUMPI PUSH2 0x12F SLOAD SWAP1 MLOAD PUSH1 0x1 PUSH1 0x1 PUSH1 0xA0 SHL SUB SWAP1 SWAP2 AND DUP2 MSTORE PUSH1 0x20 SWAP1 RETURN JUMPDEST POP DUP3 CALLVALUE PUSH2 0x7BC JUMPI PUSH2 0x400 CALLDATASIZE PUSH1 0x3 NOT ADD SLT PUSH2 0x7BC JUMPI DUP2 SLOAD PUSH1 0xFF DUP2 PUSH1 0x8 SHR AND ISZERO SWAP1 DUP2 DUP1 SWAP3 PUSH2 0x24E9 JUMPI JUMPDEST DUP1 ISZERO PUSH2 0x24D2 JUMPI JUMPDEST ISZERO PUSH2 0x2477 JUMPI PUSH1 0xFF NOT DUP2 AND PUSH1 0x1 OR DUP5 SSTORE DUP2 PUSH2 0x2466 JUMPI JUMPDEST POP PUSH1 0xFF DUP4 SLOAD PUSH1 0x8 SHR AND PUSH2 0x2003 DUP2 PUSH2 0x47F9 JUMP JUMPDEST PUSH2 0x384 CALLDATALOAD PUSH1 0x1 PUSH1 0x1 PUSH1 0xA0 SHL SUB DUP2 AND SWAP1 DUP2 SWAP1 SUB PUSH2 0x77E JUMPI PUSH2 0x1F6 DUP1 SLOAD PUSH1 0x1 PUSH1 0x1 PUSH1 0xA0 SHL SUB NOT AND SWAP1 SWAP2 OR SWAP1 SSTORE PUSH1 0x1 PUSH1 0x1 PUSH1 0xA0 SHL SUB PUSH2 0x344 CALLDATALOAD SWAP1 DUP2 AND SWAP1 DUP2 SWAP1 SUB PUSH2 0x77E JUMPI PUSH2 0x364 CALLDATALOAD PUSH1 0x1 PUSH1 0x1 PUSH1 0xA0 SHL SUB DUP2 AND DUP2 SUB PUSH2 0x77E JUMPI PUSH1 0x1 SWAP2 PUSH2 0x2064 DUP5 PUSH2 0x47F9 JUMP JUMPDEST PUSH2 0x206D DUP5 PUSH2 0x47F9 JUMP JUMPDEST PUSH2 0x2076 DUP5 PUSH2 0x47F9 JUMP JUMPDEST PUSH2 0x207F DUP5 PUSH2 0x47F9 JUMP JUMPDEST PUSH1 0x1 PUSH1 0x1 PUSH1 0x60 SHL SUB PUSH1 0xA0 SHL PUSH1 0x97 SLOAD AND OR PUSH1 0x97 SSTORE PUSH2 0x209B DUP4 PUSH2 0x47F9 JUMP JUMPDEST PUSH1 0xCA SLOAD SWAP1 PUSH3 0x10000 DUP4 PUSH1 0xB0 SHL SUB SWAP1 PUSH1 0x10 SHL AND SWAP1 PUSH2 0xFF01 DUP4 PUSH1 0xB0 SHL SUB NOT AND OR OR PUSH1 0xCA SSTORE PUSH2 0x20C6 DUP2 PUSH2 0x47F9 JUMP JUMPDEST PUSH8 0xDE0B6B3A7640000 PUSH1 0xC4 CALLDATALOAD LT PUSH2 0x2455 JUMPI PUSH2 0x20E3 PUSH2 0x104 CALLDATALOAD PUSH2 0x5DB7 JUMP JUMPDEST PUSH2 0x20EF PUSH2 0x124 CALLDATALOAD PUSH2 0x5DB7 JUMP JUMPDEST PUSH2 0x20FB PUSH2 0x144 CALLDATALOAD PUSH2 0x5DB7 JUMP JUMPDEST PUSH2 0x2107 PUSH2 0x164 CALLDATALOAD PUSH2 0x5DB7 JUMP JUMPDEST PUSH2 0x2113 PUSH2 0x184 CALLDATALOAD PUSH2 0x5DB7 JUMP JUMPDEST PUSH2 0x211F PUSH2 0x1A4 CALLDATALOAD PUSH2 0x5DB7 JUMP JUMPDEST PUSH2 0x212B PUSH2 0x1C4 CALLDATALOAD PUSH2 0x5DB7 JUMP JUMPDEST PUSH2 0x2137 PUSH2 0x1E4 CALLDATALOAD PUSH2 0x5DB7 JUMP JUMPDEST PUSH2 0x2143 PUSH2 0x204 CALLDATALOAD PUSH2 0x5DB7 JUMP JUMPDEST PUSH2 0x215B PUSH2 0x2156 PUSH2 0x244 CALLDATALOAD PUSH2 0x224 CALLDATALOAD PUSH2 0x420B JUMP JUMPDEST PUSH2 0x5DB7 JUMP JUMPDEST PUSH1 0x4 CALLDATALOAD PUSH1 0x1 PUSH1 0x1 PUSH1 0xA0 SHL SUB DUP2 AND SWAP1 DUP2 SWAP1 SUB PUSH2 0x77E JUMPI PUSH2 0x14F DUP1 SLOAD PUSH1 0x1 PUSH1 0x1 PUSH1 0xA0 SHL SUB NOT AND SWAP1 SWAP2 OR SWAP1 SSTORE PUSH1 0x24 CALLDATALOAD PUSH1 0x1 PUSH1 0x1 PUSH1 0xA0 SHL SUB DUP2 AND DUP2 SUB PUSH2 0x77E JUMPI PUSH2 0x12F DUP1 SLOAD PUSH1 0x1 PUSH1 0x1 PUSH1 0xA0 SHL SUB NOT AND PUSH1 0x1 PUSH1 0x1 PUSH1 0xA0 SHL SUB SWAP3 DUP4 AND OR SWAP1 SSTORE PUSH1 0x44 CALLDATALOAD SWAP1 DUP2 AND DUP2 SUB PUSH2 0x77E JUMPI PUSH2 0x130 DUP1 SLOAD PUSH1 0x1 PUSH1 0x1 PUSH1 0xA0 SHL SUB NOT AND PUSH1 0x1 PUSH1 0x1 PUSH1 0xA0 SHL SUB SWAP3 DUP4 AND OR SWAP1 SSTORE PUSH1 0x64 CALLDATALOAD SWAP1 DUP2 AND DUP2 SUB PUSH2 0x77E JUMPI PUSH2 0x133 DUP1 SLOAD PUSH1 0x1 PUSH1 0x1 PUSH1 0xA0 SHL SUB NOT AND PUSH1 0x1 PUSH1 0x1 PUSH1 0xA0 SHL SUB SWAP3 DUP4 AND OR SWAP1 SSTORE PUSH1 0x84 CALLDATALOAD SWAP1 DUP2 AND DUP2 SUB PUSH2 0x77E JUMPI PUSH2 0x146 DUP1 SLOAD PUSH1 0x1 PUSH1 0x1 PUSH1 0xA0 SHL SUB NOT AND PUSH1 0x1 PUSH1 0x1 PUSH1 0xA0 SHL SUB SWAP3 DUP4 AND OR SWAP1 SSTORE PUSH1 0xA4 CALLDATALOAD SWAP1 DUP2 AND DUP2 SUB PUSH2 0x77E JUMPI PUSH2 0x147 DUP1 SLOAD PUSH1 0x1 PUSH1 0x1 PUSH1 0xA0 SHL SUB NOT AND PUSH1 0x1 PUSH1 0x1 PUSH1 0xA0 SHL SUB SWAP3 DUP4 AND OR SWAP1 SSTORE PUSH1 0xC4 CALLDATALOAD PUSH2 0x149 SSTORE PUSH1 0xE4 CALLDATALOAD PUSH2 0x14A SSTORE PUSH2 0x104 CALLDATALOAD PUSH2 0x13B SSTORE PUSH2 0x124 CALLDATALOAD PUSH2 0x13C SSTORE PUSH2 0x144 CALLDATALOAD PUSH2 0x13D SSTORE PUSH2 0x164 CALLDATALOAD PUSH2 0x13E SSTORE PUSH2 0x184 CALLDATALOAD PUSH2 0x13F SSTORE PUSH2 0x1A4 CALLDATALOAD PUSH2 0x140 SSTORE PUSH2 0x1C4 CALLDATALOAD PUSH2 0x141 SSTORE PUSH2 0x1E4 CALLDATALOAD PUSH2 0x142 SSTORE PUSH2 0x204 CALLDATALOAD PUSH2 0x143 SSTORE PUSH2 0x224 CALLDATALOAD PUSH2 0x139 SSTORE PUSH2 0x244 CALLDATALOAD PUSH2 0x13A SSTORE PUSH2 0x264 CALLDATALOAD PUSH2 0x14C DUP2 SWAP1 SSTORE SWAP1 PUSH2 0x284 CALLDATALOAD SWAP1 DUP2 AND SWAP1 DUP2 SWAP1 SUB PUSH2 0x77E JUMPI PUSH2 0x158 DUP1 SLOAD PUSH1 0x1 PUSH1 0x1 PUSH1 0xA0 SHL SUB NOT AND SWAP1 SWAP2 OR SWAP1 SSTORE PUSH2 0x2A4 CALLDATALOAD PUSH2 0x159 SSTORE PUSH2 0x2C4 CALLDATALOAD PUSH2 0x15A DUP2 SWAP1 SSTORE SWAP1 PUSH1 0x1 PUSH1 0x1 PUSH1 0xA0 SHL SUB PUSH2 0x2E4 CALLDATALOAD SWAP1 DUP2 AND SWAP1 DUP2 SWAP1 SUB PUSH2 0x77E JUMPI PUSH2 0x152 DUP1 SLOAD PUSH1 0x1 PUSH1 0x1 PUSH1 0xA0 SHL SUB NOT AND SWAP1 SWAP2 OR SWAP1 SSTORE PUSH1 0x1 PUSH1 0x1 PUSH1 0xA0 SHL SUB PUSH2 0x304 CALLDATALOAD SWAP1 DUP2 AND SWAP1 DUP2 SWAP1 SUB PUSH2 0x77E JUMPI PUSH2 0x153 SWAP1 PUSH1 0x1 PUSH1 0x1 PUSH1 0x60 SHL SUB PUSH1 0xA0 SHL DUP3 SLOAD AND OR SWAP1 SSTORE PUSH2 0x324 CALLDATALOAD PUSH2 0x154 SSTORE NUMBER PUSH2 0x157 SSTORE NUMBER ADD PUSH2 0x14D SSTORE NUMBER ADD PUSH2 0x15B SSTORE PUSH2 0x14B PUSH2 0xFFFF NOT DUP2 SLOAD AND SWAP1 SSTORE PUSH2 0x3A4 CALLDATALOAD PUSH2 0x2388 DUP3 PUSH2 0x47F9 JUMP JUMPDEST DUP1 ISZERO PUSH2 0x2444 JUMPI PUSH2 0x190 DUP2 SWAP1 SSTORE NUMBER ADD PUSH2 0x18F SSTORE PUSH2 0x3C4 CALLDATALOAD PUSH1 0x1 PUSH1 0x1 PUSH1 0xA0 SHL SUB DUP2 AND DUP2 SUB PUSH2 0x77E JUMPI PUSH2 0x23BA PUSH2 0x23DC SWAP3 PUSH2 0x47F9 JUMP JUMPDEST PUSH2 0x1C3 DUP1 SLOAD PUSH1 0x1 PUSH1 0x1 PUSH1 0xA0 SHL SUB NOT AND PUSH1 0x1 PUSH1 0x1 PUSH1 0xA0 SHL SUB SWAP1 SWAP3 AND SWAP2 SWAP1 SWAP2 OR SWAP1 SSTORE JUMP JUMPDEST PUSH2 0x3E4 CALLDATALOAD PUSH1 0x1 PUSH1 0x1 PUSH1 0xA0 SHL SUB DUP2 AND SWAP1 DUP2 SWAP1 SUB PUSH2 0x77E JUMPI PUSH2 0x229 DUP1 SLOAD PUSH1 0x1 PUSH1 0x1 PUSH1 0xA0 SHL SUB NOT AND SWAP1 SWAP2 OR SWAP1 SSTORE PUSH2 0x240E JUMPI POP DUP1 RETURN JUMPDEST PUSH1 0x20 PUSH32 0x7F26B83FF96E1F2B6A682F133852F6798A09C465DA95921460CEFB3847402498 SWAP2 PUSH2 0xFF00 NOT DUP5 SLOAD AND DUP5 SSTORE MLOAD PUSH1 0x1 DUP2 MSTORE LOG1 DUP1 RETURN JUMPDEST DUP4 MLOAD PUSH4 0x2A9FFAB7 PUSH1 0xE2 SHL DUP2 MSTORE PUSH1 0x4 SWAP1 REVERT JUMPDEST DUP3 MLOAD PUSH4 0x2A9FFAB7 PUSH1 0xE2 SHL DUP2 MSTORE PUSH1 0x4 SWAP1 REVERT JUMPDEST PUSH2 0xFFFF NOT AND PUSH2 0x101 OR DUP4 SSTORE DUP4 PUSH2 0x1FF1 JUMP JUMPDEST DUP3 MLOAD PUSH3 0x461BCD PUSH1 0xE5 SHL DUP2 MSTORE PUSH1 0x20 PUSH1 0x4 DUP3 ADD MSTORE PUSH1 0x2E PUSH1 0x24 DUP3 ADD MSTORE PUSH32 0x496E697469616C697A61626C653A20636F6E747261637420697320616C726561 PUSH1 0x44 DUP3 ADD MSTORE PUSH14 0x191E481A5B9A5D1A585B1A5E9959 PUSH1 0x92 SHL PUSH1 0x64 DUP3 ADD MSTORE PUSH1 0x84 SWAP1 REVERT JUMPDEST POP ADDRESS EXTCODESIZE ISZERO DUP1 ISZERO PUSH2 0x1FDC JUMPI POP PUSH1 0x1 PUSH1 0xFF DUP3 AND EQ PUSH2 0x1FDC JUMP JUMPDEST POP PUSH1 0x1 PUSH1 0xFF DUP3 AND LT PUSH2 0x1FD5 JUMP JUMPDEST POP DUP3 CALLVALUE PUSH2 0x7BC JUMPI DUP2 PUSH1 0x3 NOT CALLDATASIZE ADD SLT PUSH2 0x7BC JUMPI PUSH2 0x133 SLOAD SWAP1 MLOAD PUSH1 0x1 PUSH1 0x1 PUSH1 0xA0 SHL SUB SWAP1 SWAP2 AND DUP2 MSTORE PUSH1 0x20 SWAP1 RETURN JUMPDEST PUSH1 0x20 DUP5 PUSH2 0x777 PUSH2 0x2531 CALLDATASIZE PUSH1 0x4 PUSH2 0x38E1 JUMP JUMPDEST SWAP5 SWAP4 SWAP1 SWAP4 SWAP3 SWAP2 SWAP3 PUSH2 0x5594 JUMP JUMPDEST POP CALLVALUE PUSH2 0x86E JUMPI DUP1 PUSH1 0x3 NOT CALLDATASIZE ADD SLT PUSH2 0x86E JUMPI PUSH1 0x2A PUSH2 0x25C SSTORE DUP1 RETURN JUMPDEST POP DUP3 CALLVALUE PUSH2 0x7BC JUMPI DUP2 PUSH1 0x3 NOT CALLDATASIZE ADD SLT PUSH2 0x7BC JUMPI PUSH1 0x20 SWAP1 PUSH2 0x14E SLOAD SWAP1 MLOAD SWAP1 DUP2 MSTORE RETURN JUMPDEST POP DUP3 CALLVALUE PUSH2 0x7BC JUMPI DUP2 PUSH1 0x3 NOT CALLDATASIZE ADD SLT PUSH2 0x7BC JUMPI PUSH1 0x20 SWAP1 PUSH1 0xFF PUSH1 0xCA SLOAD PUSH1 0x8 SHR AND SWAP1 MLOAD SWAP1 ISZERO ISZERO DUP2 MSTORE RETURN JUMPDEST POP DUP3 CALLVALUE PUSH2 0x7BC JUMPI DUP2 PUSH1 0x3 NOT CALLDATASIZE ADD SLT PUSH2 0x7BC JUMPI PUSH2 0x25B8 PUSH2 0x5D72 JUMP JUMPDEST PUSH2 0x14D DUP1 SLOAD NUMBER LT PUSH2 0x2788 JUMPI PUSH2 0x14C SLOAD NUMBER ADD SWAP1 SSTORE PUSH32 0xD3C59BDA47E141A8EC5A33D241B7F71B86E30D359F83A9227D912858B60404FC DUP3 DUP1 LOG1 PUSH2 0x137 SLOAD DUP3 PUSH2 0x25FD DUP3 PUSH2 0x4417 JUMP JUMPDEST SWAP2 DUP5 JUMPDEST DUP2 DUP2 LT PUSH2 0x26B9 JUMPI POP POP DUP1 PUSH2 0x2674 JUMPI JUMPDEST SWAP2 DUP1 MLOAD SWAP3 DUP2 DUP5 ADD SWAP1 DUP5 MSTORE PUSH1 0x20 SWAP2 DUP3 DUP6 ADD MSTORE DUP3 MLOAD DUP1 SWAP2 MSTORE DUP2 PUSH1 0x60 DUP6 ADD SWAP4 ADD SWAP2 DUP6 JUMPDEST DUP3 DUP2 LT PUSH2 0x2660 JUMPI DUP7 PUSH32 0xAE5116A8119D08673A0F1DFA7546B95DA4BD54BB17FEDA7C61130AC7859152F6 DUP8 DUP8 SUB DUP9 LOG1 DUP1 RETURN JUMPDEST DUP4 MLOAD DUP6 MSTORE SWAP4 DUP2 ADD SWAP4 SWAP3 DUP2 ADD SWAP3 PUSH1 0x1 ADD PUSH2 0x262F JUMP JUMPDEST PUSH2 0x268B PUSH8 0xDE0B6B3A7640000 SWAP2 PUSH2 0x139 SLOAD SWAP1 PUSH2 0x433D JUMP JUMPDEST DIV PUSH2 0x131 PUSH2 0x269A DUP3 DUP3 SLOAD PUSH2 0x4130 JUMP JUMPDEST SWAP1 SSTORE PUSH2 0x146 SLOAD PUSH2 0x26B4 SWAP1 DUP3 SWAP1 PUSH1 0x1 PUSH1 0x1 PUSH1 0xA0 SHL SUB AND PUSH2 0x3FDA JUMP JUMPDEST PUSH2 0x260F JUMP JUMPDEST PUSH2 0x26C2 DUP2 PUSH2 0x4554 JUMP JUMPDEST PUSH2 0x26CC DUP2 DUP4 PUSH2 0x49BD JUMP JUMPDEST DUP7 PUSH2 0x150 SWAP2 DUP7 PUSH2 0x26DC DUP6 DUP6 PUSH2 0x389F JUMP JUMPDEST SWAP1 SLOAD SWAP1 PUSH1 0x3 SHL SHR SWAP2 DUP4 DUP4 SGT PUSH2 0x26F9 JUMPI JUMPDEST POP POP POP POP POP PUSH1 0x1 ADD PUSH2 0x2600 JUMP JUMPDEST SWAP5 PUSH2 0x273E DUP4 DUP3 SWAP7 SWAP10 PUSH2 0x2744 SWAP5 PUSH2 0x2738 DUP6 PUSH2 0x272B PUSH2 0x2731 PUSH2 0x275B SWAP11 PUSH1 0x1 SWAP15 PUSH8 0xDE0B6B3A7640000 SWAP4 DUP5 SWAP2 PUSH2 0x13A SLOAD PUSH2 0x433D JUMP JUMPDEST DIV PUSH2 0x433D JUMP JUMPDEST DIV SWAP3 PUSH2 0x4218 JUMP JUMPDEST MSTORE PUSH2 0x420B JUMP JUMPDEST SWAP8 PUSH2 0x389F JUMP JUMPDEST DUP2 SWAP4 SWAP2 SLOAD SWAP1 PUSH1 0x3 SHL SWAP2 DUP3 SHL SWAP2 PUSH1 0x0 NOT SWAP1 SHL NOT AND OR SWAP1 JUMP JUMPDEST SWAP1 SSTORE PUSH2 0x277E PUSH2 0x276A DUP3 DUP8 PUSH2 0x4218 JUMP JUMPDEST MLOAD DUP9 DUP5 DUP1 PUSH1 0xA0 SHL SUB PUSH2 0x147 SLOAD AND SWAP2 DUP5 PUSH2 0x48FD JUMP JUMPDEST SWAP1 DUP7 DUP9 DUP7 DUP2 PUSH2 0x26EC JUMP JUMPDEST DUP2 MLOAD PUSH4 0x101B6859 PUSH1 0xE0 SHL DUP2 MSTORE PUSH1 0x4 SWAP1 REVERT JUMPDEST DUP4 DUP3 CALLVALUE PUSH2 0x86E JUMPI DUP2 PUSH1 0x3 NOT CALLDATASIZE ADD SLT PUSH2 0x86E JUMPI PUSH1 0x1 PUSH1 0x1 PUSH1 0xA0 SHL SUB PUSH1 0x4 CALLDATALOAD DUP2 DUP2 AND DUP2 SUB PUSH2 0x77E JUMPI PUSH1 0x24 CALLDATALOAD SWAP2 PUSH2 0x14F SLOAD AND CALLER SUB PUSH2 0xBFA JUMPI SWAP1 PUSH2 0xBF7 SWAP2 PUSH2 0x14E DUP3 DUP2 SLOAD SUB SWAP1 SSTORE PUSH2 0x3FDA JUMP JUMPDEST POP DUP3 CALLVALUE PUSH2 0x7BC JUMPI DUP2 PUSH1 0x3 NOT CALLDATASIZE ADD SLT PUSH2 0x7BC JUMPI PUSH1 0x20 SWAP1 PUSH2 0x157 SLOAD SWAP1 MLOAD SWAP1 DUP2 MSTORE RETURN JUMPDEST POP DUP3 CALLVALUE PUSH2 0x7BC JUMPI DUP2 PUSH1 0x3 NOT CALLDATASIZE ADD SLT PUSH2 0x7BC JUMPI PUSH1 0x20 SWAP1 PUSH2 0x777 PUSH2 0x25C SLOAD PUSH8 0xDE0B6B3A7640000 PUSH2 0x149 SLOAD DIV SWAP1 PUSH2 0x420B JUMP JUMPDEST POP CALLVALUE PUSH2 0x86E JUMPI PUSH1 0x20 CALLDATASIZE PUSH1 0x3 NOT ADD SLT PUSH2 0x86E JUMPI PUSH2 0x284B PUSH2 0x5CE4 JUMP JUMPDEST PUSH1 0x4 CALLDATALOAD PUSH2 0x143 SSTORE DUP1 RETURN JUMPDEST DUP4 DUP3 CALLVALUE PUSH2 0x86E JUMPI DUP2 PUSH1 0x3 NOT CALLDATASIZE ADD SLT PUSH2 0x86E JUMPI PUSH1 0x1 PUSH1 0x1 PUSH1 0xA0 SHL SUB PUSH1 0x4 CALLDATALOAD DUP2 DUP2 AND DUP2 SUB PUSH2 0x77E JUMPI DUP2 PUSH2 0x14F SLOAD AND CALLER SUB PUSH2 0xBFA JUMPI SWAP1 PUSH2 0xBF7 SWAP2 PUSH1 0x24 CALLDATALOAD SWAP2 PUSH2 0x133 SLOAD AND PUSH2 0x5CAB JUMP JUMPDEST POP CALLVALUE PUSH2 0x86E JUMPI PUSH1 0x20 CALLDATASIZE PUSH1 0x3 NOT ADD SLT PUSH2 0x86E JUMPI PUSH1 0x4 CALLDATALOAD PUSH1 0x1 PUSH1 0x1 PUSH1 0xA0 SHL SUB DUP2 AND DUP2 SUB PUSH2 0x77E JUMPI PUSH2 0xBF7 SWAP1 PUSH2 0x23BA PUSH2 0x5CE4 JUMP JUMPDEST PUSH1 0x20 DUP5 PUSH2 0x777 DUP5 PUSH2 0x28DD CALLDATASIZE PUSH1 0x4 PUSH2 0x3A61 JUMP JUMPDEST SWAP3 SWAP2 SWAP1 SWAP2 PUSH2 0x54C5 JUMP JUMPDEST DUP4 DUP3 CALLVALUE PUSH2 0x86E JUMPI DUP1 PUSH1 0x3 NOT CALLDATASIZE ADD SLT PUSH2 0x86E JUMPI POP PUSH32 0x0 PUSH1 0x1 PUSH1 0x1 PUSH1 0xA0 SHL SUB AND ADDRESS SUB PUSH2 0x2952 JUMPI PUSH1 0x20 SWAP1 MLOAD PUSH32 0x360894A13BA1A3210667C828492DB98DCA3E2076CC3735A920A3CA505D382BBC DUP2 MSTORE RETURN JUMPDEST MLOAD PUSH3 0x461BCD PUSH1 0xE5 SHL DUP2 MSTORE PUSH1 0x20 PUSH1 0x4 DUP3 ADD MSTORE PUSH1 0x38 PUSH1 0x24 DUP3 ADD MSTORE PUSH32 0x555550535570677261646561626C653A206D757374206E6F742062652063616C PUSH1 0x44 DUP3 ADD MSTORE PUSH32 0x6C6564207468726F7567682064656C656761746563616C6C0000000000000000 PUSH1 0x64 DUP3 ADD MSTORE PUSH1 0x84 SWAP1 REVERT JUMPDEST POP CALLVALUE PUSH2 0x86E JUMPI DUP1 PUSH1 0x3 NOT CALLDATASIZE ADD SLT PUSH2 0x86E JUMPI PUSH2 0x29D4 PUSH2 0x5CE4 JUMP JUMPDEST PUSH1 0xFF NOT PUSH1 0xCA SLOAD AND PUSH1 0xCA SSTORE DUP1 RETURN JUMPDEST POP DUP3 DUP1 PUSH1 0x3 NOT CALLDATASIZE ADD SLT PUSH2 0x7BC JUMPI PUSH1 0x4 CALLDATALOAD SWAP1 PUSH1 0x1 PUSH1 0x1 PUSH1 0xA0 SHL SUB SWAP1 DUP2 DUP4 AND DUP4 SUB PUSH2 0x77E JUMPI DUP4 SWAP3 PUSH1 0x24 CALLDATALOAD SWAP3 PUSH8 0xFFFFFFFFFFFFFFFF DUP5 GT PUSH2 0x2AD1 JUMPI CALLDATASIZE PUSH1 0x23 DUP6 ADD SLT ISZERO PUSH2 0x2AD1 JUMPI DUP4 PUSH1 0x4 ADD CALLDATALOAD SWAP1 PUSH2 0x2A3F PUSH2 0x2A36 DUP4 PUSH2 0x3A45 JUMP JUMPDEST SWAP5 MLOAD SWAP5 DUP6 PUSH2 0x3A0D JUMP JUMPDEST DUP2 DUP5 MSTORE CALLDATASIZE PUSH1 0x24 DUP4 DUP8 ADD ADD GT PUSH2 0x2ACD JUMPI PUSH2 0xBF7 SWAP6 PUSH1 0x20 DUP4 PUSH2 0x2AC0 SWAP5 PUSH1 0x24 PUSH1 0x1 SWAP10 ADD DUP4 DUP10 ADD CALLDATACOPY DUP7 ADD ADD MSTORE DUP1 PUSH32 0x0 AND SWAP1 PUSH2 0x2A97 DUP3 ADDRESS EQ ISZERO PUSH2 0x3B32 JUMP JUMPDEST PUSH32 0x360894A13BA1A3210667C828492DB98DCA3E2076CC3735A920A3CA505D382BBC SLOAD AND EQ PUSH2 0x3B93 JUMP JUMPDEST PUSH2 0x2AC8 PUSH2 0x5CE4 JUMP JUMPDEST PUSH2 0x3BF4 JUMP JUMPDEST DUP6 DUP1 REVERT JUMPDEST DUP5 DUP1 REVERT JUMPDEST POP DUP3 CALLVALUE PUSH2 0x7BC JUMPI DUP2 PUSH1 0x3 NOT CALLDATASIZE ADD SLT PUSH2 0x7BC JUMPI PUSH1 0x20 SWAP1 PUSH2 0x13B SLOAD SWAP1 MLOAD SWAP1 DUP2 MSTORE RETURN JUMPDEST POP DUP3 CALLVALUE PUSH2 0x7BC JUMPI DUP2 PUSH1 0x3 NOT CALLDATASIZE ADD SLT PUSH2 0x7BC JUMPI PUSH2 0x147 SLOAD SWAP1 MLOAD PUSH1 0x1 PUSH1 0x1 PUSH1 0xA0 SHL SUB SWAP1 SWAP2 AND DUP2 MSTORE PUSH1 0x20 SWAP1 RETURN JUMPDEST POP DUP3 CALLVALUE PUSH2 0x7BC JUMPI DUP2 PUSH1 0x3 NOT CALLDATASIZE ADD SLT PUSH2 0x7BC JUMPI PUSH1 0x20 SWAP1 PUSH2 0x14C SLOAD SWAP1 MLOAD SWAP1 DUP2 MSTORE RETURN JUMPDEST POP DUP3 CALLVALUE PUSH2 0x7BC JUMPI PUSH1 0x20 CALLDATASIZE PUSH1 0x3 NOT ADD SLT PUSH2 0x7BC JUMPI PUSH1 0x4 CALLDATALOAD PUSH2 0x137 DUP1 SLOAD DUP3 LT ISZERO PUSH2 0xACA JUMPI SWAP1 PUSH2 0x2B6B SWAP2 PUSH2 0x39F1 JUMP JUMPDEST POP DUP1 SLOAD PUSH1 0x1 SWAP1 SWAP2 ADD SLOAD DUP3 MLOAD SWAP2 DUP3 MSTORE PUSH1 0x1 PUSH1 0x1 PUSH1 0xA0 SHL SUB AND PUSH1 0x20 DUP3 ADD MSTORE RETURN JUMPDEST SWAP1 SWAP2 POP CALLVALUE PUSH2 0x7BC JUMPI CALLDATASIZE PUSH1 0x3 NOT ADD SLT PUSH2 0x86E JUMPI POP PUSH2 0x2BA4 PUSH2 0x567F JUMP JUMPDEST POP PUSH2 0x14F SLOAD PUSH1 0x1 PUSH1 0x1 PUSH1 0xA0 SHL SUB SWAP1 DUP2 AND CALLER SUB PUSH2 0x12CD JUMPI PUSH2 0xE19 PUSH2 0xE0F SWAP2 PUSH2 0x2BCC CALLDATASIZE PUSH1 0x4 PUSH2 0x5C38 JUMP JUMPDEST SWAP4 PUSH2 0x2BD5 PUSH2 0x567F JUMP JUMPDEST POP PUSH2 0x2BDE PUSH2 0x4F58 JUMP JUMPDEST PUSH2 0x2BE6 PUSH2 0x5D72 JUMP JUMPDEST PUSH2 0x128F PUSH2 0xDAF DUP3 MLOAD PUSH4 0xD9B6C2E5 PUSH1 0xE0 SHL PUSH1 0x20 DUP3 ADD MSTORE PUSH2 0xD94 PUSH1 0x24 DUP3 ADD DUP10 PUSH2 0x52A0 JUMP JUMPDEST POP DUP3 PUSH1 0x60 CALLDATASIZE PUSH1 0x3 NOT ADD SLT PUSH2 0x77E JUMPI PUSH1 0x4 CALLDATALOAD PUSH1 0x1 PUSH1 0x1 PUSH1 0xA0 SHL SUB DUP2 AND DUP2 SUB PUSH2 0x77E JUMPI PUSH1 0x20 SWAP3 PUSH2 0x777 SWAP2 CALLER SWAP1 PUSH1 0x44 CALLDATALOAD SWAP1 PUSH1 0x24 CALLDATALOAD SWAP1 PUSH2 0x4F7A JUMP JUMPDEST DUP4 PUSH1 0x60 CALLDATASIZE PUSH1 0x3 NOT ADD SLT PUSH2 0x77E JUMPI PUSH1 0x44 CALLDATALOAD SWAP1 PUSH1 0x1 PUSH1 0x1 PUSH1 0xA0 SHL SUB DUP3 AND DUP3 SUB PUSH2 0x77E JUMPI PUSH2 0x777 PUSH1 0x20 SWAP3 CALLER PUSH1 0x24 CALLDATALOAD PUSH1 0x4 CALLDATALOAD PUSH2 0x53D2 JUMP JUMPDEST POP DUP3 PUSH1 0x60 CALLDATASIZE PUSH1 0x3 NOT ADD SLT PUSH2 0x77E JUMPI PUSH1 0x4 CALLDATALOAD PUSH1 0x1 PUSH1 0x1 PUSH1 0xA0 SHL SUB DUP2 AND DUP2 SUB PUSH2 0x77E JUMPI PUSH1 0x20 SWAP3 PUSH2 0x777 SWAP2 CALLER SWAP1 PUSH1 0x44 CALLDATALOAD SWAP1 PUSH1 0x24 CALLDATALOAD SWAP1 PUSH2 0x54C5 JUMP JUMPDEST POP DUP3 PUSH1 0x60 CALLDATASIZE PUSH1 0x3 NOT ADD SLT PUSH2 0x77E JUMPI PUSH1 0x4 CALLDATALOAD PUSH1 0x1 PUSH1 0x1 PUSH1 0xA0 SHL SUB DUP2 AND DUP2 SUB PUSH2 0x77E JUMPI PUSH1 0x20 SWAP3 PUSH2 0x777 SWAP2 CALLER SWAP1 PUSH1 0x44 CALLDATALOAD SWAP1 PUSH1 0x24 CALLDATALOAD SWAP1 PUSH2 0x5034 JUMP JUMPDEST POP DUP3 PUSH1 0x60 CALLDATASIZE PUSH1 0x3 NOT ADD SLT PUSH2 0x77E JUMPI PUSH1 0x44 CALLDATALOAD PUSH1 0x1 PUSH1 0x1 PUSH1 0xA0 SHL SUB DUP2 AND DUP2 SUB PUSH2 0x77E JUMPI PUSH1 0x20 SWAP3 PUSH2 0x777 SWAP2 PUSH1 0x24 CALLDATALOAD PUSH1 0x4 CALLDATALOAD PUSH2 0x4DFF JUMP JUMPDEST POP DUP3 CALLVALUE PUSH2 0x7BC JUMPI DUP2 PUSH1 0x3 NOT CALLDATASIZE ADD SLT PUSH2 0x7BC JUMPI PUSH1 0x20 SWAP1 PUSH2 0x13E SLOAD SWAP1 MLOAD SWAP1 DUP2 MSTORE RETURN JUMPDEST POP DUP3 CALLVALUE PUSH2 0x7BC JUMPI DUP2 PUSH1 0x3 NOT CALLDATASIZE ADD SLT PUSH2 0x7BC JUMPI PUSH1 0x20 SWAP1 PUSH2 0x777 PUSH2 0x2D5E PUSH2 0x2D56 PUSH2 0x4CA8 JUMP JUMPDEST SWAP2 SWAP1 SWAP2 PUSH2 0x422C JUMP JUMPDEST SWAP2 PUSH2 0x4AA3 JUMP JUMPDEST POP DUP3 CALLVALUE PUSH2 0x7BC JUMPI DUP2 PUSH1 0x3 NOT CALLDATASIZE ADD SLT PUSH2 0x7BC JUMPI PUSH1 0xCA SLOAD PUSH1 0xFF DUP2 PUSH1 0x8 SHR AND ISZERO PUSH2 0x2DCE JUMPI PUSH1 0x10 DUP2 SWAP1 SHR PUSH1 0x1 PUSH1 0x1 PUSH1 0xA0 SHL SUB AND CALLER SUB PUSH2 0x1B74 JUMPI PUSH2 0xFF00 NOT AND PUSH1 0xCA SSTORE MLOAD CALLER DUP2 MSTORE PUSH32 0x5DB9EE0A495BF2E6FF9C91A7834C1BA4FDD244A5E8AA4E537BD38AEAE4B073AA SWAP1 PUSH1 0x20 SWAP1 LOG1 DUP1 RETURN JUMPDEST DUP2 MLOAD PUSH4 0x7C7FD079 PUSH1 0xE0 SHL DUP2 MSTORE PUSH1 0x4 SWAP1 REVERT JUMPDEST PUSH1 0x20 DUP5 PUSH2 0x777 PUSH2 0x2DF0 CALLDATASIZE PUSH1 0x4 PUSH2 0x39CB JUMP JUMPDEST SWAP3 SWAP2 SWAP1 SWAP2 PUSH2 0x53D2 JUMP JUMPDEST POP CALLVALUE PUSH2 0x86E JUMPI PUSH1 0x20 CALLDATASIZE PUSH1 0x3 NOT ADD SLT PUSH2 0x86E JUMPI PUSH1 0x4 CALLDATALOAD PUSH1 0x1 PUSH1 0x1 PUSH1 0xA0 SHL SUB DUP2 AND SWAP1 DUP2 SWAP1 SUB PUSH2 0x77E JUMPI PUSH2 0x2E28 PUSH2 0x5CE4 JUMP JUMPDEST PUSH2 0x14F DUP1 SLOAD PUSH1 0x1 PUSH1 0x1 PUSH1 0xA0 SHL SUB NOT AND SWAP1 SWAP2 OR SWAP1 SSTORE DUP1 RETURN JUMPDEST POP CALLVALUE PUSH2 0x86E JUMPI PUSH1 0x20 CALLDATASIZE PUSH1 0x3 NOT ADD SLT PUSH2 0x86E JUMPI PUSH2 0x2E59 PUSH2 0x5CE4 JUMP JUMPDEST PUSH1 0x4 CALLDATALOAD PUSH2 0x190 SSTORE DUP1 RETURN JUMPDEST SWAP1 DUP4 CALLVALUE PUSH2 0x7BC JUMPI PUSH2 0x100 SWAP2 DUP3 PUSH1 0x3 NOT CALLDATASIZE ADD SLT PUSH2 0x86E JUMPI POP PUSH2 0x2E82 PUSH2 0x567F JUMP JUMPDEST POP PUSH2 0x14F SLOAD PUSH1 0x1 PUSH1 0x1 PUSH1 0xA0 SHL SUB SWAP3 SWAP1 DUP4 AND CALLER SUB PUSH2 0x12CD JUMPI PUSH2 0x2EA5 DUP3 MLOAD SWAP2 DUP3 PUSH2 0x3A0D JUMP JUMPDEST PUSH1 0x4 CALLDATALOAD DUP4 DUP2 AND DUP2 SUB PUSH2 0x77E JUMPI DUP2 MSTORE PUSH1 0x24 CALLDATALOAD DUP4 DUP2 AND DUP2 SUB PUSH2 0x77E JUMPI PUSH1 0x20 DUP3 ADD MSTORE PUSH1 0x44 CALLDATALOAD DUP3 DUP3 ADD MSTORE PUSH1 0x64 CALLDATALOAD PUSH1 0x60 DUP3 ADD MSTORE PUSH1 0x80 DUP2 ADD SWAP2 PUSH1 0x84 CALLDATALOAD DUP4 MSTORE PUSH1 0xA4 CALLDATALOAD SWAP1 DUP5 DUP3 AND DUP3 SUB PUSH2 0x77E JUMPI PUSH1 0xA0 DUP4 ADD SWAP2 DUP3 MSTORE PUSH1 0xC4 CALLDATALOAD DUP6 DUP2 AND DUP2 SUB PUSH2 0x77E JUMPI PUSH1 0xC0 DUP5 ADD MSTORE PUSH1 0xE4 CALLDATALOAD SWAP3 DUP6 DUP5 AND DUP5 SUB PUSH2 0x77E JUMPI DUP6 PUSH2 0xE19 SWAP6 PUSH2 0x2F61 PUSH2 0xDAF PUSH2 0x9B1 PUSH2 0xDA4 DUP7 PUSH2 0x14CF SWAP14 PUSH2 0xE0F SWAP9 ADD SWAP11 DUP12 MSTORE PUSH2 0x2F35 PUSH2 0x567F JUMP JUMPDEST POP PUSH2 0x2F3E PUSH2 0x4F58 JUMP JUMPDEST PUSH2 0x2F46 PUSH2 0x5D72 JUMP JUMPDEST DUP9 MLOAD PUSH4 0x70F090ED PUSH1 0xE1 SHL PUSH1 0x20 DUP3 ADD MSTORE SWAP3 DUP4 SWAP2 PUSH1 0x24 DUP4 ADD PUSH2 0x5196 JUMP JUMPDEST SWAP9 SWAP3 DUP1 SWAP12 DUP11 SWAP7 SWAP4 SWAP14 SWAP3 SWAP10 DUP7 MLOAD PUSH2 0x14C4 PUSH2 0x14E SWAP2 DUP3 SLOAD PUSH2 0x4130 JUMP JUMPDEST POP DUP3 CALLVALUE PUSH2 0x7BC JUMPI PUSH1 0x20 CALLDATASIZE PUSH1 0x3 NOT ADD SLT PUSH2 0x7BC JUMPI PUSH1 0x4 CALLDATALOAD SWAP2 PUSH2 0x138 SWAP1 DUP2 SLOAD DUP5 LT ISZERO PUSH2 0x86E JUMPI POP PUSH1 0x20 SWAP3 PUSH2 0x1C74 SWAP2 PUSH2 0x389F JUMP JUMPDEST POP DUP3 CALLVALUE PUSH2 0x7BC JUMPI PUSH1 0x20 CALLDATASIZE PUSH1 0x3 NOT ADD SLT PUSH2 0x7BC JUMPI PUSH1 0x4 CALLDATALOAD SWAP1 PUSH1 0x1 PUSH1 0x1 PUSH1 0xA0 SHL SUB SWAP1 DUP2 DUP4 AND DUP4 SUB PUSH2 0x77E JUMPI PUSH2 0xBF7 SWAP3 PUSH2 0x300E DUP4 DUP7 SWAP5 PUSH32 0x0 AND SWAP1 PUSH2 0x2A97 DUP3 ADDRESS EQ ISZERO PUSH2 0x3B32 JUMP JUMPDEST PUSH2 0x3016 PUSH2 0x5CE4 JUMP JUMPDEST PUSH2 0x302B PUSH2 0x3022 DUP5 PUSH2 0x3A45 JUMP JUMPDEST SWAP3 MLOAD SWAP3 DUP4 PUSH2 0x3A0D JUMP JUMPDEST DUP3 DUP3 MSTORE PUSH1 0x1F NOT PUSH2 0x303A DUP5 PUSH2 0x3A45 JUMP JUMPDEST ADD CALLDATASIZE PUSH1 0x20 DUP5 ADD CALLDATACOPY PUSH2 0x3BF4 JUMP JUMPDEST PUSH1 0x20 DUP5 PUSH2 0x777 DUP5 PUSH2 0x3058 CALLDATASIZE PUSH1 0x4 PUSH2 0x3962 JUMP JUMPDEST SWAP2 CALLER SWAP4 PUSH2 0x5594 JUMP JUMPDEST POP DUP3 CALLVALUE PUSH2 0x7BC JUMPI DUP2 PUSH1 0x3 NOT CALLDATASIZE ADD SLT PUSH2 0x7BC JUMPI PUSH2 0x307A PUSH2 0x4153 JUMP JUMPDEST PUSH2 0x3082 PUSH2 0x5D72 JUMP JUMPDEST PUSH2 0x14B DUP1 SLOAD PUSH1 0xFF DUP2 AND DUP1 PUSH2 0x314D JUMPI JUMPDEST DUP1 PUSH2 0x3133 JUMPI JUMPDEST PUSH2 0x309F JUMPI DUP4 DUP1 RETURN JUMPDEST PUSH2 0xFF00 NOT AND PUSH2 0x100 OR SWAP1 SSTORE DUP1 MLOAD SWAP1 DUP3 SWAP1 PUSH32 0x8B77276C97A5709F0D6DB52329848A254EB760CE8BE80D281799F633BDB69E83 DUP3 DUP1 LOG1 PUSH2 0x133 SLOAD PUSH1 0x1 PUSH1 0x1 PUSH1 0xA0 SHL SUB AND DUP1 EXTCODESIZE ISZERO PUSH2 0x9D5 JUMPI DUP4 PUSH1 0x4 DUP2 DUP6 DUP1 SWAP5 PUSH4 0x8456CB59 PUSH1 0xE0 SHL DUP4 MSTORE GAS CALL SWAP1 DUP2 ISZERO PUSH2 0x3128 JUMPI POP PUSH2 0x3118 JUMPI JUMPDEST POP POP PUSH2 0x3111 PUSH2 0x4449 JUMP JUMPDEST DUP2 DUP1 DUP1 DUP4 DUP1 RETURN JUMPDEST PUSH2 0x3121 SWAP2 PUSH2 0x3A0D JUMP JUMPDEST DUP2 DUP2 PUSH2 0x3107 JUMP JUMPDEST MLOAD SWAP2 RETURNDATASIZE SWAP2 POP DUP3 RETURNDATACOPY RETURNDATASIZE SWAP1 REVERT JUMPDEST POP PUSH2 0x3142 PUSH2 0x18AD PUSH2 0xC47 PUSH2 0x461B JUMP JUMPDEST PUSH2 0x14A SLOAD LT ISZERO PUSH2 0x3097 JUMP JUMPDEST POP PUSH1 0xFF DUP2 PUSH1 0x8 SHR AND ISZERO PUSH2 0x3091 JUMP JUMPDEST POP DUP3 CALLVALUE PUSH2 0x7BC JUMPI DUP2 PUSH1 0x3 NOT CALLDATASIZE ADD SLT PUSH2 0x7BC JUMPI PUSH1 0x20 SWAP1 PUSH2 0x13F SLOAD SWAP1 MLOAD SWAP1 DUP2 MSTORE RETURN JUMPDEST POP DUP3 CALLVALUE PUSH2 0x7BC JUMPI DUP2 PUSH1 0x3 NOT CALLDATASIZE ADD SLT PUSH2 0x7BC JUMPI PUSH1 0x20 SWAP1 PUSH2 0x143 SLOAD SWAP1 MLOAD SWAP1 DUP2 MSTORE RETURN JUMPDEST POP CALLVALUE PUSH2 0x86E JUMPI PUSH1 0x20 CALLDATASIZE PUSH1 0x3 NOT ADD SLT PUSH2 0x86E JUMPI PUSH1 0x4 CALLDATALOAD PUSH1 0x1 PUSH1 0x1 PUSH1 0xA0 SHL SUB DUP2 AND DUP2 SUB PUSH2 0x7BC JUMPI PUSH2 0x31C8 PUSH2 0x5CE4 JUMP JUMPDEST PUSH1 0xCA DUP1 SLOAD PUSH3 0x10000 PUSH1 0x1 PUSH1 0xB0 SHL SUB NOT AND PUSH1 0x10 SWAP3 SWAP1 SWAP3 SHL PUSH3 0x10000 PUSH1 0x1 PUSH1 0xB0 SHL SUB AND SWAP2 SWAP1 SWAP2 OR SWAP1 SSTORE DUP1 RETURN JUMPDEST POP CALLVALUE PUSH2 0x86E JUMPI PUSH1 0x20 CALLDATASIZE PUSH1 0x3 NOT ADD SLT PUSH2 0x86E JUMPI PUSH2 0x320C PUSH2 0x5CE4 JUMP JUMPDEST PUSH1 0x4 CALLDATALOAD PUSH2 0x14A SSTORE DUP1 RETURN JUMPDEST PUSH1 0x20 DUP5 PUSH2 0x777 PUSH2 0x3227 CALLDATASIZE PUSH1 0x4 PUSH2 0x38E1 JUMP JUMPDEST SWAP5 SWAP4 SWAP1 SWAP4 SWAP3 SWAP2 SWAP3 PUSH2 0x52F0 JUMP JUMPDEST POP DUP3 CALLVALUE PUSH2 0x7BC JUMPI DUP2 PUSH1 0x3 NOT CALLDATASIZE ADD SLT PUSH2 0x7BC JUMPI PUSH1 0x20 SWAP1 PUSH2 0x140 SLOAD SWAP1 MLOAD SWAP1 DUP2 MSTORE RETURN JUMPDEST POP CALLVALUE PUSH2 0x86E JUMPI PUSH1 0x20 CALLDATASIZE PUSH1 0x3 NOT ADD SLT PUSH2 0x86E JUMPI PUSH1 0x4 CALLDATALOAD PUSH1 0x1 PUSH1 0x1 PUSH1 0xA0 SHL SUB DUP2 AND SWAP1 DUP2 SWAP1 SUB PUSH2 0x7BC JUMPI PUSH2 0x3282 PUSH2 0x5CE4 JUMP JUMPDEST PUSH2 0x147 DUP1 SLOAD PUSH1 0x1 PUSH1 0x1 PUSH1 0xA0 SHL SUB NOT AND SWAP1 SWAP2 OR SWAP1 SSTORE DUP1 RETURN JUMPDEST POP DUP3 CALLVALUE PUSH2 0x7BC JUMPI DUP2 PUSH1 0x3 NOT CALLDATASIZE ADD SLT PUSH2 0x7BC JUMPI PUSH2 0x229 SLOAD SWAP1 MLOAD PUSH1 0x1 PUSH1 0x1 PUSH1 0xA0 SHL SUB SWAP1 SWAP2 AND DUP2 MSTORE PUSH1 0x20 SWAP1 RETURN JUMPDEST POP DUP3 CALLVALUE PUSH2 0x7BC JUMPI PUSH1 0x20 CALLDATASIZE PUSH1 0x3 NOT ADD SLT PUSH2 0x7BC JUMPI PUSH1 0x4 CALLDATALOAD PUSH1 0x1 PUSH1 0x1 PUSH1 0xA0 SHL SUB DUP2 AND SWAP1 DUP2 SWAP1 SUB PUSH2 0x9D5 JUMPI DUP3 DUP3 SWAP2 PUSH1 0x20 SWAP5 MSTORE PUSH2 0x144 DUP5 MSTORE KECCAK256 SLOAD SWAP1 MLOAD SWAP1 DUP2 MSTORE RETURN JUMPDEST POP DUP3 CALLVALUE PUSH2 0x7BC JUMPI DUP2 PUSH1 0x3 NOT CALLDATASIZE ADD SLT PUSH2 0x7BC JUMPI PUSH1 0x20 SWAP1 PUSH1 0xFF PUSH2 0x14B SLOAD PUSH1 0x8 SHR AND SWAP1 MLOAD SWAP1 ISZERO ISZERO DUP2 MSTORE RETURN JUMPDEST POP DUP3 CALLVALUE PUSH2 0x7BC JUMPI PUSH1 0xA0 CALLDATASIZE PUSH1 0x3 NOT ADD SLT PUSH2 0x7BC JUMPI PUSH2 0x3343 PUSH2 0x567F JUMP JUMPDEST POP PUSH2 0x14F SLOAD PUSH1 0x1 PUSH1 0x1 PUSH1 0xA0 SHL SUB SWAP3 SWAP1 DUP4 AND CALLER SUB PUSH2 0x12CD JUMPI SWAP1 PUSH2 0x33D4 SWAP2 PUSH2 0x336A CALLDATASIZE PUSH1 0x4 PUSH2 0x56A6 JUMP JUMPDEST SWAP2 PUSH2 0x3373 PUSH2 0x567F JUMP JUMPDEST POP PUSH2 0x337C PUSH2 0x4F58 JUMP JUMPDEST PUSH2 0x3384 PUSH2 0x5D72 JUMP JUMPDEST PUSH8 0xDE0B6B3A7640000 PUSH2 0x33A7 PUSH2 0x1093 PUSH2 0x339E PUSH2 0x15EB PUSH2 0x461B JUMP JUMPDEST DUP8 MLOAD SWAP3 SWAP2 PUSH2 0x4A6F JUMP JUMPDEST DIV SWAP5 DUP2 DUP5 ADD SWAP1 DUP1 DUP3 MLOAD AND SWAP2 PUSH2 0x33C9 PUSH1 0x80 DUP8 ADD SWAP4 DUP10 DUP5 DUP7 MLOAD AND PUSH2 0x13C SLOAD SWAP3 PUSH2 0x5746 JUMP JUMPDEST SWAP7 SWAP2 DUP11 SWAP10 SWAP2 SWAP10 PUSH2 0x420B JUMP JUMPDEST SWAP7 PUSH1 0x20 DUP2 ADD SWAP10 DUP11 MLOAD DUP1 DUP11 GT PUSH2 0x34FD JUMPI POP DUP9 ISZERO PUSH2 0x34EC JUMPI DUP2 PUSH1 0x20 SWAP2 DUP7 PUSH1 0x60 PUSH2 0x3457 SWAP7 SWAP6 MLOAD SWAP4 ADD MLOAD AND SWAP1 PUSH2 0x134 PUSH2 0x340A DUP5 DUP3 SLOAD PUSH2 0x420B JUMP JUMPDEST SWAP1 SSTORE PUSH2 0x341A PUSH2 0x131 SWAP2 DUP3 SLOAD PUSH2 0x420B JUMP JUMPDEST SWAP1 SSTORE PUSH2 0x133 SLOAD DUP10 MLOAD PUSH4 0x40C10F19 PUSH1 0xE0 SHL DUP2 MSTORE PUSH1 0x1 PUSH1 0x1 PUSH1 0xA0 SHL SUB SWAP1 SWAP3 AND PUSH1 0x4 DUP4 ADD MSTORE PUSH1 0x24 DUP3 ADD SWAP3 SWAP1 SWAP3 MSTORE SWAP4 DUP5 SWAP2 DUP8 AND SWAP1 DUP3 SWAP1 DUP6 SWAP1 DUP3 SWAP1 PUSH1 0x44 DUP3 ADD SWAP1 JUMP JUMPDEST SUB SWAP3 GAS CALL DUP1 ISZERO PUSH2 0x34E0 JUMPI PUSH2 0x348A JUMPI JUMPDEST POP POP SWAP7 PUSH2 0x1167 SWAP3 DUP3 PUSH2 0x14CF DUP9 DUP9 SWAP6 PUSH2 0xE19 SWAP11 SWAP12 SWAP13 DUP7 MLOAD PUSH2 0x14C4 PUSH2 0x14E SWAP2 DUP3 SLOAD PUSH2 0x4130 JUMP JUMPDEST PUSH1 0x20 DUP3 RETURNDATASIZE DUP3 GT PUSH2 0x34D8 JUMPI JUMPDEST DUP2 PUSH2 0x34A2 PUSH1 0x20 SWAP4 DUP4 PUSH2 0x3A0D JUMP JUMPDEST DUP2 ADD SUB SLT PUSH2 0x86E JUMPI POP SWAP3 DUP3 PUSH2 0x14CF DUP9 DUP9 SWAP6 PUSH2 0xE19 SWAP11 SWAP12 SWAP13 SWAP6 PUSH2 0x34C6 PUSH2 0x1167 SWAP10 PUSH2 0x4031 JUMP JUMPDEST POP SWAP6 SWAP13 SWAP12 POP SWAP6 POP SWAP9 POP POP DUP2 SWAP5 POP PUSH2 0x3466 JUMP JUMPDEST RETURNDATASIZE SWAP2 POP PUSH2 0x3495 JUMP JUMPDEST POP DUP6 MLOAD SWAP1 RETURNDATASIZE SWAP1 DUP3 RETURNDATACOPY RETURNDATASIZE SWAP1 REVERT JUMPDEST DUP7 MLOAD PUSH4 0xF3E39B5D PUSH1 0xE0 SHL DUP2 MSTORE PUSH1 0x4 SWAP1 REVERT JUMPDEST PUSH1 0x44 SWAP1 DUP11 DUP10 MLOAD SWAP2 PUSH4 0xB63F1A7 PUSH1 0xE0 SHL DUP4 MSTORE PUSH1 0x4 DUP4 ADD MSTORE PUSH1 0x24 DUP3 ADD MSTORE REVERT JUMPDEST POP CALLVALUE PUSH2 0x86E JUMPI PUSH1 0x20 CALLDATASIZE PUSH1 0x3 NOT ADD SLT PUSH2 0x86E JUMPI PUSH2 0x3534 PUSH2 0x5CE4 JUMP JUMPDEST PUSH1 0x4 CALLDATALOAD PUSH2 0x142 SSTORE DUP1 RETURN JUMPDEST POP CALLVALUE PUSH2 0x86E JUMPI PUSH1 0x20 CALLDATASIZE PUSH1 0x3 NOT ADD SLT PUSH2 0x86E JUMPI PUSH1 0x4 CALLDATALOAD DUP1 ISZERO ISZERO DUP1 SWAP2 SUB PUSH2 0x7BC JUMPI PUSH2 0x3565 PUSH2 0x5CE4 JUMP JUMPDEST PUSH2 0x14B SWAP1 PUSH1 0xFF DUP1 NOT DUP4 SLOAD AND SWAP2 AND OR SWAP1 SSTORE DUP1 RETURN JUMPDEST POP DUP3 CALLVALUE PUSH2 0x7BC JUMPI DUP2 PUSH1 0x3 NOT CALLDATASIZE ADD SLT PUSH2 0x7BC JUMPI PUSH1 0x20 SWAP1 PUSH2 0x777 PUSH2 0x359B PUSH2 0xC47 PUSH2 0x461B JUMP JUMPDEST SWAP1 PUSH2 0x4A6F JUMP JUMPDEST POP DUP3 CALLVALUE PUSH2 0x7BC JUMPI DUP2 PUSH1 0x3 NOT CALLDATASIZE ADD SLT PUSH2 0x7BC JUMPI PUSH1 0x20 SWAP1 PUSH2 0x14D SLOAD SWAP1 MLOAD SWAP1 DUP2 MSTORE RETURN JUMPDEST POP DUP3 CALLVALUE PUSH2 0x7BC JUMPI PUSH1 0x20 CALLDATASIZE PUSH1 0x3 NOT ADD SLT PUSH2 0x7BC JUMPI PUSH1 0x4 CALLDATALOAD SWAP2 PUSH1 0x1 PUSH1 0x1 PUSH1 0xA0 SHL SUB DUP4 AND DUP4 SUB PUSH2 0x86E JUMPI POP PUSH2 0x777 PUSH1 0x20 SWAP3 CALLER SWAP1 CALLER SWAP1 PUSH2 0x4859 JUMP JUMPDEST PUSH1 0x20 DUP5 PUSH2 0x777 PUSH2 0x3609 CALLDATASIZE PUSH1 0x4 PUSH2 0x38E1 JUMP JUMPDEST SWAP5 SWAP4 SWAP1 SWAP4 SWAP3 SWAP2 SWAP3 PUSH2 0x51FA JUMP JUMPDEST POP DUP3 CALLVALUE PUSH2 0x7BC JUMPI DUP2 PUSH1 0x3 NOT CALLDATASIZE ADD SLT PUSH2 0x7BC JUMPI PUSH2 0x14F SLOAD SWAP1 MLOAD PUSH1 0x1 PUSH1 0x1 PUSH1 0xA0 SHL SUB SWAP1 SWAP2 AND DUP2 MSTORE PUSH1 0x20 SWAP1 RETURN JUMPDEST POP CALLVALUE PUSH2 0x86E JUMPI PUSH1 0x20 CALLDATASIZE PUSH1 0x3 NOT ADD SLT PUSH2 0x86E JUMPI PUSH1 0x4 CALLDATALOAD PUSH1 0x1 PUSH1 0x1 PUSH1 0xA0 SHL SUB DUP2 AND SWAP1 DUP2 SWAP1 SUB PUSH2 0x7BC JUMPI PUSH2 0x366E PUSH2 0x5CE4 JUMP JUMPDEST PUSH2 0x130 DUP1 SLOAD PUSH1 0x1 PUSH1 0x1 PUSH1 0xA0 SHL SUB NOT AND SWAP1 SWAP2 OR SWAP1 SSTORE DUP1 RETURN JUMPDEST POP CALLVALUE PUSH2 0x86E JUMPI PUSH1 0x20 CALLDATASIZE PUSH1 0x3 NOT ADD SLT PUSH2 0x86E JUMPI PUSH2 0x369F PUSH2 0x5CE4 JUMP JUMPDEST PUSH1 0x4 CALLDATALOAD PUSH2 0x13F SSTORE DUP1 RETURN JUMPDEST POP DUP3 CALLVALUE PUSH2 0x7BC JUMPI DUP2 PUSH1 0x3 NOT CALLDATASIZE ADD SLT PUSH2 0x7BC JUMPI PUSH1 0x20 SWAP1 PUSH2 0x159 SLOAD SWAP1 MLOAD SWAP1 DUP2 MSTORE RETURN JUMPDEST POP CALLVALUE PUSH2 0x86E JUMPI PUSH1 0x20 CALLDATASIZE PUSH1 0x3 NOT ADD SLT PUSH2 0x86E JUMPI PUSH1 0x4 CALLDATALOAD PUSH1 0x1 PUSH1 0x1 PUSH1 0xA0 SHL SUB DUP2 AND SWAP1 DUP2 SWAP1 SUB PUSH2 0x7BC JUMPI PUSH2 0x36F8 PUSH2 0x5CE4 JUMP JUMPDEST PUSH2 0x146 DUP1 SLOAD PUSH1 0x1 PUSH1 0x1 PUSH1 0xA0 SHL SUB NOT AND SWAP1 SWAP2 OR SWAP1 SSTORE DUP1 RETURN JUMPDEST POP DUP3 CALLVALUE PUSH2 0x7BC JUMPI DUP2 PUSH1 0x3 NOT CALLDATASIZE ADD SLT PUSH2 0x7BC JUMPI PUSH1 0x20 SWAP1 PUSH2 0x18F SLOAD SWAP1 MLOAD SWAP1 DUP2 MSTORE RETURN JUMPDEST POP DUP3 CALLVALUE PUSH2 0x7BC JUMPI DUP2 PUSH1 0x3 NOT CALLDATASIZE ADD SLT PUSH2 0x7BC JUMPI PUSH1 0x97 SLOAD SWAP1 MLOAD PUSH1 0x1 PUSH1 0x1 PUSH1 0xA0 SHL SUB SWAP1 SWAP2 AND DUP2 MSTORE PUSH1 0x20 SWAP1 RETURN JUMPDEST POP DUP3 DUP1 PUSH1 0x3 NOT CALLDATASIZE ADD SLT PUSH2 0x7BC JUMPI PUSH2 0x777 PUSH1 0x20 SWAP3 CALLER PUSH1 0x24 CALLDATALOAD PUSH1 0x4 CALLDATALOAD PUSH2 0x4DFF JUMP JUMPDEST POP CALLVALUE PUSH2 0x86E JUMPI PUSH1 0x20 CALLDATASIZE PUSH1 0x3 NOT ADD SLT PUSH2 0x86E JUMPI PUSH2 0x3791 PUSH2 0x5CE4 JUMP JUMPDEST PUSH1 0x4 CALLDATALOAD PUSH2 0x15A SSTORE DUP1 RETURN JUMPDEST POP DUP3 CALLVALUE PUSH2 0x7BC JUMPI DUP2 PUSH1 0x3 NOT CALLDATASIZE ADD SLT PUSH2 0x7BC JUMPI PUSH2 0x37B5 PUSH2 0x5D72 JUMP JUMPDEST PUSH2 0x15B DUP1 SLOAD NUMBER LT PUSH2 0x3823 JUMPI SWAP1 PUSH2 0xBF7 SWAP2 PUSH2 0x15A SLOAD NUMBER ADD SWAP1 SSTORE PUSH32 0xE37FDA283839477A1B77E29ACF8336C0E13A5DAA967913DF0FE5AD258C0822F PUSH1 0x20 PUSH8 0xDE0B6B3A7640000 PUSH2 0x380A PUSH2 0x131 SLOAD PUSH2 0x159 SLOAD SWAP1 PUSH2 0x433D JUMP JUMPDEST DIV SWAP3 MLOAD DUP4 DUP2 MSTORE LOG1 PUSH2 0x158 SLOAD PUSH1 0x1 PUSH1 0x1 PUSH1 0xA0 SHL SUB AND PUSH2 0x3FDA JUMP JUMPDEST DUP2 MLOAD PUSH4 0xACCE20E5 PUSH1 0xE0 SHL DUP2 MSTORE PUSH1 0x4 SWAP1 REVERT JUMPDEST POP DUP3 CALLVALUE PUSH2 0x7BC JUMPI PUSH1 0x20 CALLDATASIZE PUSH1 0x3 NOT ADD SLT PUSH2 0x7BC JUMPI PUSH1 0x4 CALLDATALOAD SWAP2 PUSH2 0x135 SWAP1 DUP2 SLOAD DUP5 LT ISZERO PUSH2 0x86E JUMPI POP PUSH1 0x20 SWAP3 PUSH2 0x3865 SWAP2 PUSH2 0x389F JUMP JUMPDEST SWAP1 SLOAD SWAP2 MLOAD SWAP2 PUSH1 0x1 DUP1 PUSH1 0xA0 SHL SUB SWAP2 PUSH1 0x3 SHL SHR AND DUP2 MSTORE RETURN JUMPDEST POP CALLVALUE PUSH2 0x86E JUMPI PUSH1 0x20 CALLDATASIZE PUSH1 0x3 NOT ADD SLT PUSH2 0x86E JUMPI PUSH2 0x3895 PUSH2 0x5CE4 JUMP JUMPDEST PUSH1 0x4 CALLDATALOAD PUSH2 0x13A SSTORE DUP1 RETURN JUMPDEST DUP1 SLOAD DUP3 LT ISZERO PUSH2 0x38B7 JUMPI PUSH1 0x0 MSTORE PUSH1 0x20 PUSH1 0x0 KECCAK256 ADD SWAP1 PUSH1 0x0 SWAP1 JUMP JUMPDEST PUSH4 0x4E487B71 PUSH1 0xE0 SHL PUSH1 0x0 MSTORE PUSH1 0x32 PUSH1 0x4 MSTORE PUSH1 0x24 PUSH1 0x0 REVERT JUMPDEST CALLDATALOAD SWAP1 PUSH1 0x1 PUSH1 0x1 PUSH1 0xA0 SHL SUB DUP3 AND DUP3 SUB PUSH2 0x77E JUMPI JUMP JUMPDEST SWAP2 SWAP1 DUP3 PUSH1 0xC0 SWAP2 SUB SLT PUSH2 0x77E JUMPI PUSH2 0x38F6 DUP3 PUSH2 0x38CD JUMP JUMPDEST SWAP2 PUSH1 0x20 DUP2 ADD CALLDATALOAD SWAP2 PUSH1 0x40 DUP3 ADD CALLDATALOAD SWAP2 PUSH1 0x60 DUP2 ADD CALLDATALOAD SWAP2 PUSH2 0x3921 PUSH1 0xA0 PUSH2 0x391A PUSH1 0x80 DUP6 ADD PUSH2 0x38CD JUMP JUMPDEST SWAP4 ADD PUSH2 0x38CD JUMP JUMPDEST SWAP1 JUMP JUMPDEST PUSH1 0x40 SWAP1 PUSH2 0x3960 SWAP4 SWAP6 SWAP5 SWAP3 SWAP6 PUSH1 0xC0 DUP3 ADD SWAP7 DUP3 MSTORE PUSH1 0x20 DUP3 ADD MSTORE ADD SWAP1 PUSH1 0x60 DUP1 SWAP2 DUP1 MLOAD DUP5 MSTORE PUSH1 0x20 DUP2 ADD MLOAD PUSH1 0x20 DUP6 ADD MSTORE PUSH1 0x40 DUP2 ADD MLOAD PUSH1 0x40 DUP6 ADD MSTORE ADD MLOAD SWAP2 ADD MSTORE JUMP JUMPDEST JUMP JUMPDEST SWAP2 SWAP1 DUP3 PUSH1 0x80 SWAP2 SUB SLT PUSH2 0x77E JUMPI PUSH2 0x3977 DUP3 PUSH2 0x38CD JUMP JUMPDEST SWAP2 PUSH1 0x20 DUP2 ADD CALLDATALOAD SWAP2 PUSH1 0x60 PUSH1 0x40 DUP4 ADD CALLDATALOAD SWAP3 ADD CALLDATALOAD SWAP1 JUMP JUMPDEST PUSH2 0x3960 SWAP4 PUSH1 0x60 SWAP3 SWAP7 SWAP6 SWAP4 PUSH1 0xE0 DUP4 ADD SWAP8 DUP4 MSTORE PUSH1 0x20 DUP4 ADD MSTORE PUSH1 0x40 DUP3 ADD MSTORE ADD SWAP1 PUSH1 0x60 DUP1 SWAP2 DUP1 MLOAD DUP5 MSTORE PUSH1 0x20 DUP2 ADD MLOAD PUSH1 0x20 DUP6 ADD MSTORE PUSH1 0x40 DUP2 ADD MLOAD PUSH1 0x40 DUP6 ADD MSTORE ADD MLOAD SWAP2 ADD MSTORE JUMP JUMPDEST SWAP2 SWAP1 DUP3 PUSH1 0x80 SWAP2 SUB SLT PUSH2 0x77E JUMPI DUP2 CALLDATALOAD SWAP2 PUSH1 0x20 DUP2 ADD CALLDATALOAD SWAP2 PUSH2 0x3921 PUSH1 0x60 PUSH2 0x391A PUSH1 0x40 DUP6 ADD PUSH2 0x38CD JUMP JUMPDEST DUP1 SLOAD DUP3 LT ISZERO PUSH2 0x38B7 JUMPI PUSH1 0x0 MSTORE PUSH1 0x20 PUSH1 0x0 KECCAK256 SWAP1 PUSH1 0x1 SHL ADD SWAP1 PUSH1 0x0 SWAP1 JUMP JUMPDEST SWAP1 PUSH1 0x1F DUP1 NOT SWAP2 ADD AND DUP2 ADD SWAP1 DUP2 LT PUSH8 0xFFFFFFFFFFFFFFFF DUP3 GT OR PUSH2 0x3A2F JUMPI PUSH1 0x40 MSTORE JUMP JUMPDEST PUSH4 0x4E487B71 PUSH1 0xE0 SHL PUSH1 0x0 MSTORE PUSH1 0x41 PUSH1 0x4 MSTORE PUSH1 0x24 PUSH1 0x0 REVERT JUMPDEST PUSH8 0xFFFFFFFFFFFFFFFF DUP2 GT PUSH2 0x3A2F JUMPI PUSH1 0x1F ADD PUSH1 0x1F NOT AND PUSH1 0x20 ADD SWAP1 JUMP JUMPDEST SWAP2 SWAP1 DUP3 PUSH1 0x80 SWAP2 SUB SLT PUSH2 0x77E JUMPI PUSH2 0x3A76 DUP3 PUSH2 0x38CD JUMP JUMPDEST SWAP2 PUSH1 0x20 DUP2 ADD CALLDATALOAD SWAP2 PUSH2 0x3921 PUSH1 0x60 PUSH1 0x40 DUP5 ADD CALLDATALOAD SWAP4 ADD PUSH2 0x38CD JUMP JUMPDEST SWAP1 DUP2 PUSH1 0xA0 SWAP2 SUB SLT PUSH2 0x77E JUMPI PUSH2 0x3AA2 DUP2 PUSH2 0x38CD JUMP JUMPDEST SWAP2 PUSH1 0x20 DUP3 ADD CALLDATALOAD SWAP2 PUSH1 0x40 DUP2 ADD CALLDATALOAD SWAP2 PUSH2 0x3921 PUSH1 0x80 PUSH1 0x60 DUP5 ADD CALLDATALOAD SWAP4 ADD PUSH2 0x38CD JUMP JUMPDEST SWAP2 SWAP1 DUP3 PUSH1 0xC0 SWAP2 SUB SLT PUSH2 0x77E JUMPI PUSH2 0x3AD5 DUP3 PUSH2 0x38CD JUMP JUMPDEST SWAP2 PUSH2 0x3AE2 PUSH1 0x20 DUP3 ADD PUSH2 0x38CD JUMP JUMPDEST SWAP2 PUSH1 0x40 DUP3 ADD CALLDATALOAD SWAP2 PUSH1 0x60 DUP2 ADD CALLDATALOAD SWAP2 PUSH2 0x3921 PUSH1 0xA0 PUSH1 0x80 DUP5 ADD CALLDATALOAD SWAP4 ADD PUSH2 0x38CD JUMP JUMPDEST SWAP1 DUP2 PUSH1 0xA0 SWAP2 SUB SLT PUSH2 0x77E JUMPI PUSH2 0x3B14 DUP2 PUSH2 0x38CD JUMP JUMPDEST SWAP2 PUSH1 0x20 DUP3 ADD CALLDATALOAD SWAP2 PUSH1 0x40 DUP2 ADD CALLDATALOAD SWAP2 PUSH2 0x3921 PUSH1 0x80 PUSH2 0x391A PUSH1 0x60 DUP6 ADD PUSH2 0x38CD JUMP JUMPDEST ISZERO PUSH2 0x3B39 JUMPI JUMP JUMPDEST PUSH1 0x40 MLOAD PUSH3 0x461BCD PUSH1 0xE5 SHL DUP2 MSTORE PUSH1 0x20 PUSH1 0x4 DUP3 ADD MSTORE PUSH1 0x2C PUSH1 0x24 DUP3 ADD MSTORE PUSH32 0x46756E6374696F6E206D7573742062652063616C6C6564207468726F75676820 PUSH1 0x44 DUP3 ADD MSTORE PUSH12 0x19195B1959D85D1958D85B1B PUSH1 0xA2 SHL PUSH1 0x64 DUP3 ADD MSTORE PUSH1 0x84 SWAP1 REVERT JUMPDEST ISZERO PUSH2 0x3B9A JUMPI JUMP JUMPDEST PUSH1 0x40 MLOAD PUSH3 0x461BCD PUSH1 0xE5 SHL DUP2 MSTORE PUSH1 0x20 PUSH1 0x4 DUP3 ADD MSTORE PUSH1 0x2C PUSH1 0x24 DUP3 ADD MSTORE PUSH32 0x46756E6374696F6E206D7573742062652063616C6C6564207468726F75676820 PUSH1 0x44 DUP3 ADD MSTORE PUSH12 0x6163746976652070726F7879 PUSH1 0xA0 SHL PUSH1 0x64 DUP3 ADD MSTORE PUSH1 0x84 SWAP1 REVERT JUMPDEST SWAP1 PUSH1 0xFF PUSH32 0x4910FDFA16FED3260ED0E7147F7CC6DA11A60208B5B9406D12A635614FFD9143 SLOAD AND PUSH1 0x0 EQ PUSH2 0x3C2C JUMPI POP PUSH2 0x3960 SWAP2 POP PUSH2 0x3DE0 JUMP JUMPDEST PUSH1 0x40 MLOAD PUSH4 0x52D1902D PUSH1 0xE0 SHL DUP2 MSTORE PUSH1 0x20 SWAP4 SWAP2 SWAP3 SWAP2 SWAP1 PUSH1 0x1 PUSH1 0x1 PUSH1 0xA0 SHL SUB DUP4 AND SWAP1 DUP6 DUP2 PUSH1 0x4 DUP2 DUP6 GAS STATICCALL PUSH1 0x0 SWAP2 DUP2 PUSH2 0x3DB1 JUMPI JUMPDEST POP PUSH2 0x3CBD JUMPI PUSH1 0x40 MLOAD PUSH3 0x461BCD PUSH1 0xE5 SHL DUP2 MSTORE PUSH1 0x4 DUP2 ADD DUP8 SWAP1 MSTORE PUSH1 0x2E PUSH1 0x24 DUP3 ADD MSTORE PUSH32 0x45524331393637557067726164653A206E657720696D706C656D656E74617469 PUSH1 0x44 DUP3 ADD MSTORE PUSH14 0x6F6E206973206E6F742055555053 PUSH1 0x90 SHL PUSH1 0x64 DUP3 ADD MSTORE PUSH1 0x84 SWAP1 REVERT JUMPDEST SWAP4 SWAP5 SWAP4 PUSH32 0xC9F76B5EC45E5CDEF99837D7B6D2467235C1DF8933C8CA56DF5C35AFA2C7D444 ADD PUSH2 0x3D5A JUMPI PUSH2 0x3CEF DUP4 PUSH2 0x3DE0 JUMP JUMPDEST PUSH32 0xBC7CD75A20EE27FD9ADEBAB32041F755214DBC6BFFA90CC0225B39DA2E5C2D3B PUSH1 0x0 DUP1 LOG2 DUP4 MLOAD ISZERO SWAP1 DUP2 ISZERO SWAP2 PUSH2 0x3D52 JUMPI JUMPDEST POP PUSH2 0x3D2A JUMPI POP POP POP JUMP JUMPDEST PUSH1 0x0 DUP1 PUSH2 0x3D4F SWAP5 PUSH2 0x3D39 PUSH2 0x3E82 JUMP JUMPDEST SWAP5 DUP2 MLOAD SWAP2 ADD DUP5 GAS DELEGATECALL PUSH2 0x3D49 PUSH2 0x3ED6 JUMP JUMPDEST SWAP2 PUSH2 0x3F06 JUMP JUMPDEST POP JUMP JUMPDEST SWAP1 POP CODESIZE PUSH2 0x3D20 JUMP JUMPDEST PUSH1 0x40 MLOAD PUSH3 0x461BCD PUSH1 0xE5 SHL DUP2 MSTORE PUSH1 0x4 DUP2 ADD DUP6 SWAP1 MSTORE PUSH1 0x29 PUSH1 0x24 DUP3 ADD MSTORE PUSH32 0x45524331393637557067726164653A20756E737570706F727465642070726F78 PUSH1 0x44 DUP3 ADD MSTORE PUSH9 0x1A58589B1955555251 PUSH1 0xBA SHL PUSH1 0x64 DUP3 ADD MSTORE PUSH1 0x84 SWAP1 REVERT JUMPDEST SWAP1 SWAP2 DUP8 DUP3 DUP2 RETURNDATASIZE DUP4 GT PUSH2 0x3DD9 JUMPI JUMPDEST PUSH2 0x3DC8 DUP2 DUP4 PUSH2 0x3A0D JUMP JUMPDEST DUP2 ADD SUB SLT PUSH2 0x86E JUMPI POP MLOAD SWAP1 CODESIZE PUSH2 0x3C5C JUMP JUMPDEST POP RETURNDATASIZE PUSH2 0x3DBE JUMP JUMPDEST DUP1 EXTCODESIZE ISZERO PUSH2 0x3E27 JUMPI PUSH32 0x360894A13BA1A3210667C828492DB98DCA3E2076CC3735A920A3CA505D382BBC DUP1 SLOAD PUSH1 0x1 PUSH1 0x1 PUSH1 0xA0 SHL SUB NOT AND PUSH1 0x1 PUSH1 0x1 PUSH1 0xA0 SHL SUB SWAP1 SWAP3 AND SWAP2 SWAP1 SWAP2 OR SWAP1 SSTORE JUMP JUMPDEST PUSH1 0x40 MLOAD PUSH3 0x461BCD PUSH1 0xE5 SHL DUP2 MSTORE PUSH1 0x20 PUSH1 0x4 DUP3 ADD MSTORE PUSH1 0x2D PUSH1 0x24 DUP3 ADD MSTORE PUSH32 0x455243313936373A206E657720696D706C656D656E746174696F6E206973206E PUSH1 0x44 DUP3 ADD MSTORE PUSH13 0x1BDD08184818DBDB9D1C9858DD PUSH1 0x9A SHL PUSH1 0x64 DUP3 ADD MSTORE PUSH1 0x84 SWAP1 REVERT JUMPDEST PUSH2 0x3E8C PUSH1 0x27 PUSH2 0x3A45 JUMP JUMPDEST SWAP1 PUSH2 0x3E9A PUSH1 0x40 MLOAD SWAP3 DUP4 PUSH2 0x3A0D JUMP JUMPDEST PUSH1 0x27 DUP3 MSTORE PUSH7 0x819985A5B1959 PUSH1 0xCA SHL PUSH1 0x40 DUP4 PUSH32 0x416464726573733A206C6F772D6C6576656C2064656C65676174652063616C6C PUSH1 0x20 DUP3 ADD MSTORE ADD MSTORE JUMP JUMPDEST RETURNDATASIZE ISZERO PUSH2 0x3F01 JUMPI RETURNDATASIZE SWAP1 PUSH2 0x3EE7 DUP3 PUSH2 0x3A45 JUMP JUMPDEST SWAP2 PUSH2 0x3EF5 PUSH1 0x40 MLOAD SWAP4 DUP5 PUSH2 0x3A0D JUMP JUMPDEST DUP3 MSTORE RETURNDATASIZE PUSH1 0x0 PUSH1 0x20 DUP5 ADD RETURNDATACOPY JUMP JUMPDEST PUSH1 0x60 SWAP1 JUMP JUMPDEST SWAP2 SWAP3 SWAP1 ISZERO PUSH2 0x3F68 JUMPI POP DUP2 MLOAD ISZERO PUSH2 0x3F1A JUMPI POP SWAP1 JUMP JUMPDEST EXTCODESIZE ISZERO PUSH2 0x3F23 JUMPI SWAP1 JUMP JUMPDEST PUSH1 0x40 MLOAD PUSH3 0x461BCD PUSH1 0xE5 SHL DUP2 MSTORE PUSH1 0x20 PUSH1 0x4 DUP3 ADD MSTORE PUSH1 0x1D PUSH1 0x24 DUP3 ADD MSTORE PUSH32 0x416464726573733A2063616C6C20746F206E6F6E2D636F6E7472616374000000 PUSH1 0x44 DUP3 ADD MSTORE PUSH1 0x64 SWAP1 REVERT JUMPDEST DUP3 MLOAD SWAP1 SWAP2 POP ISZERO PUSH2 0x3F7B JUMPI POP DUP1 MLOAD SWAP1 PUSH1 0x20 ADD REVERT JUMPDEST PUSH1 0x40 MLOAD SWAP1 PUSH3 0x461BCD PUSH1 0xE5 SHL DUP3 MSTORE DUP2 PUSH1 0x20 DUP1 PUSH1 0x4 DUP4 ADD MSTORE DUP3 MLOAD SWAP1 DUP2 PUSH1 0x24 DUP5 ADD MSTORE PUSH1 0x0 SWAP4 JUMPDEST DUP3 DUP6 LT PUSH2 0x3FC1 JUMPI POP POP PUSH1 0x44 SWAP3 POP PUSH1 0x0 DUP4 DUP3 DUP5 ADD ADD MSTORE PUSH1 0x1F DUP1 NOT SWAP2 ADD AND DUP2 ADD SUB ADD SWAP1 REVERT JUMPDEST DUP5 DUP2 ADD DUP3 ADD MLOAD DUP7 DUP7 ADD PUSH1 0x44 ADD MSTORE SWAP4 DUP2 ADD SWAP4 DUP6 SWAP4 POP PUSH2 0x3F9E JUMP JUMPDEST SWAP1 DUP1 PUSH2 0x3FE4 JUMPI POP POP JUMP JUMPDEST PUSH2 0x229 SLOAD PUSH1 0x40 MLOAD PUSH4 0xA9059CBB PUSH1 0xE0 SHL PUSH1 0x20 DUP3 ADD MSTORE PUSH1 0x1 PUSH1 0x1 PUSH1 0xA0 SHL SUB SWAP4 DUP5 AND PUSH1 0x24 DUP3 ADD MSTORE PUSH1 0x44 DUP2 ADD SWAP3 SWAP1 SWAP3 MSTORE PUSH2 0x3960 SWAP3 AND PUSH2 0x402C DUP3 PUSH1 0x64 DUP2 ADD JUMPDEST SUB PUSH1 0x1F NOT DUP2 ADD DUP5 MSTORE DUP4 PUSH2 0x3A0D JUMP JUMPDEST PUSH2 0x403E JUMP JUMPDEST MLOAD SWAP1 DUP2 ISZERO ISZERO DUP3 SUB PUSH2 0x77E JUMPI JUMP JUMPDEST PUSH1 0x20 SWAP2 PUSH2 0x40A1 SWAP2 PUSH1 0x1 PUSH1 0x1 PUSH1 0xA0 SHL SUB AND PUSH1 0x0 DUP1 PUSH2 0x405A DUP7 PUSH2 0x3A45 JUMP JUMPDEST SWAP4 PUSH2 0x4068 PUSH1 0x40 MLOAD SWAP6 DUP7 PUSH2 0x3A0D JUMP JUMPDEST DUP7 DUP6 MSTORE PUSH32 0x5361666545524332303A206C6F772D6C6576656C2063616C6C206661696C6564 DUP8 DUP7 ADD MSTORE DUP7 DUP2 MLOAD SWAP2 ADD DUP3 DUP6 GAS CALL PUSH2 0x3D49 PUSH2 0x3ED6 JUMP JUMPDEST DUP1 MLOAD DUP3 DUP2 ISZERO SWAP2 DUP3 ISZERO PUSH2 0x4111 JUMPI JUMPDEST POP POP SWAP1 POP ISZERO PUSH2 0x40BA JUMPI POP JUMP JUMPDEST PUSH1 0x84 SWAP1 PUSH1 0x40 MLOAD SWAP1 PUSH3 0x461BCD PUSH1 0xE5 SHL DUP3 MSTORE PUSH1 0x4 DUP3 ADD MSTORE PUSH1 0x2A PUSH1 0x24 DUP3 ADD MSTORE PUSH32 0x5361666545524332303A204552433230206F7065726174696F6E20646964206E PUSH1 0x44 DUP3 ADD MSTORE PUSH10 0x1BDD081CDD58D8D95959 PUSH1 0xB2 SHL PUSH1 0x64 DUP3 ADD MSTORE REVERT JUMPDEST DUP4 DUP1 SWAP3 SWAP4 POP ADD SUB SLT PUSH2 0x77E JUMPI DUP2 PUSH2 0x4128 SWAP2 ADD PUSH2 0x4031 JUMP JUMPDEST DUP1 DUP3 CODESIZE PUSH2 0x40AE JUMP JUMPDEST SWAP2 SWAP1 DUP3 SUB SWAP2 DUP3 GT PUSH2 0x413D JUMPI JUMP JUMPDEST PUSH4 0x4E487B71 PUSH1 0xE0 SHL PUSH1 0x0 MSTORE PUSH1 0x11 PUSH1 0x4 MSTORE PUSH1 0x24 PUSH1 0x0 REVERT JUMPDEST PUSH2 0x415C ADDRESS PUSH2 0x4190 JUMP JUMPDEST PUSH2 0x131 SWAP1 PUSH2 0x4179 PUSH2 0x416F DUP4 SLOAD DUP1 SWAP4 PUSH2 0x4130 JUMP JUMPDEST PUSH2 0x14E SLOAD SWAP1 PUSH2 0x4130 JUMP JUMPDEST DUP1 PUSH2 0x4183 JUMPI POP POP POP JUMP JUMPDEST PUSH2 0x418C SWAP2 PUSH2 0x420B JUMP JUMPDEST SWAP1 SSTORE JUMP JUMPDEST PUSH2 0x229 SLOAD PUSH1 0x40 MLOAD PUSH4 0x70A08231 PUSH1 0xE0 SHL DUP2 MSTORE PUSH1 0x1 PUSH1 0x1 PUSH1 0xA0 SHL SUB SWAP3 DUP4 AND PUSH1 0x4 DUP3 ADD MSTORE SWAP2 PUSH1 0x20 SWAP2 DUP4 SWAP2 PUSH1 0x24 SWAP2 DUP4 SWAP2 AND GAS STATICCALL SWAP1 DUP2 ISZERO PUSH2 0x41FF JUMPI PUSH1 0x0 SWAP2 PUSH2 0x41D1 JUMPI POP SWAP1 JUMP JUMPDEST SWAP1 PUSH1 0x20 DUP3 RETURNDATASIZE DUP3 GT PUSH2 0x41F7 JUMPI JUMPDEST DUP2 PUSH2 0x41EA PUSH1 0x20 SWAP4 DUP4 PUSH2 0x3A0D JUMP JUMPDEST DUP2 ADD SUB SLT PUSH2 0x86E JUMPI POP MLOAD SWAP1 JUMP JUMPDEST RETURNDATASIZE SWAP2 POP PUSH2 0x41DD JUMP JUMPDEST PUSH1 0x40 MLOAD RETURNDATASIZE PUSH1 0x0 DUP3 RETURNDATACOPY RETURNDATASIZE SWAP1 REVERT JUMPDEST SWAP2 SWAP1 DUP3 ADD DUP1 SWAP3 GT PUSH2 0x413D JUMPI JUMP JUMPDEST DUP1 MLOAD DUP3 LT ISZERO PUSH2 0x38B7 JUMPI PUSH1 0x20 SWAP2 PUSH1 0x5 SHL ADD ADD SWAP1 JUMP JUMPDEST SWAP1 PUSH1 0x0 SWAP2 PUSH1 0x0 SWAP1 PUSH2 0x137 DUP1 SLOAD SWAP1 PUSH1 0x0 SWAP3 JUMPDEST DUP3 DUP5 LT PUSH2 0x4263 JUMPI POP POP POP POP PUSH2 0x425F PUSH8 0xDE0B6B3A7640000 SWAP2 PUSH2 0x139 SLOAD SWAP1 PUSH2 0x433D JUMP JUMPDEST DIV SWAP1 JUMP JUMPDEST SWAP1 SWAP2 SWAP3 SWAP4 SWAP6 PUSH2 0x42B0 PUSH2 0x429F PUSH2 0x42AA PUSH1 0x1 SWAP4 PUSH2 0x42A4 PUSH2 0x4281 DUP11 DUP9 PUSH2 0x4218 JUMP JUMPDEST MLOAD PUSH2 0x428C DUP2 DUP13 PUSH2 0x42D6 JUMP JUMPDEST SWAP6 SWAP1 PUSH2 0x4298 DUP14 DUP13 PUSH2 0x39F1 JUMP JUMPDEST POP SLOAD PUSH2 0x420B JUMP JUMPDEST PUSH2 0x5D93 JUMP JUMPDEST SWAP1 PUSH2 0x420B JUMP JUMPDEST SWAP9 PUSH2 0x420B JUMP JUMPDEST SWAP5 ADD SWAP3 SWAP2 SWAP1 PUSH2 0x423D JUMP JUMPDEST SWAP2 SWAP1 SWAP2 PUSH1 0x0 DUP4 DUP3 ADD SWAP4 DUP5 SLT SWAP2 SLT SWAP1 DUP1 ISZERO DUP3 AND SWAP2 ISZERO AND OR PUSH2 0x413D JUMPI JUMP JUMPDEST SWAP2 SWAP1 PUSH1 0x0 SWAP1 PUSH2 0x4304 DUP2 PUSH1 0x0 SWAP6 PUSH2 0x42FA PUSH2 0x42F1 DUP3 PUSH2 0x150 PUSH2 0x389F JUMP JUMPDEST SWAP4 SWAP1 SLOAD SWAP3 PUSH2 0x4389 JUMP JUMPDEST SWAP2 PUSH1 0x3 SHL SHR PUSH2 0x42BA JUMP JUMPDEST PUSH1 0x0 DUP2 SGT PUSH2 0x4313 JUMPI JUMPDEST POP POP SWAP2 SWAP1 JUMP JUMPDEST PUSH2 0x4335 SWAP2 SWAP5 POP PUSH2 0x272B SWAP3 POP DUP1 SWAP5 PUSH8 0xDE0B6B3A7640000 SWAP4 DUP5 SWAP2 PUSH2 0x13A SLOAD PUSH2 0x433D JUMP JUMPDEST DIV CODESIZE DUP1 PUSH2 0x430D JUMP JUMPDEST DUP2 DUP2 MUL SWAP3 SWAP2 DUP2 ISZERO SWAP2 DUP5 DIV EQ OR ISZERO PUSH2 0x413D JUMPI JUMP JUMPDEST DUP2 ISZERO PUSH2 0x435A JUMPI DIV SWAP1 JUMP JUMPDEST PUSH4 0x4E487B71 PUSH1 0xE0 SHL PUSH1 0x0 MSTORE PUSH1 0x12 PUSH1 0x4 MSTORE PUSH1 0x24 PUSH1 0x0 REVERT JUMPDEST DUP2 DUP2 SUB SWAP3 SWAP2 PUSH1 0x0 SGT DUP1 ISZERO DUP3 DUP6 SGT AND SWAP2 DUP5 SLT AND OR PUSH2 0x413D JUMPI JUMP JUMPDEST PUSH2 0x4395 DUP2 PUSH2 0x137 PUSH2 0x39F1 JUMP JUMPDEST POP SLOAD SWAP1 PUSH8 0xDE0B6B3A7640000 SWAP2 DUP3 DUP2 MUL SWAP3 DUP2 DUP5 DIV EQ SWAP1 ISZERO OR ISZERO PUSH2 0x413D JUMPI PUSH2 0x3921 SWAP3 PUSH2 0x43D5 PUSH2 0x43C8 PUSH2 0x43DB SWAP4 PUSH2 0x151 PUSH2 0x389F JUMP JUMPDEST SWAP1 SLOAD SWAP1 PUSH1 0x3 SHL SHR DUP5 PUSH2 0x4350 JUMP JUMPDEST SWAP3 PUSH2 0x4350 JUMP JUMPDEST SWAP1 PUSH2 0x4370 JUMP JUMPDEST DUP1 ISZERO PUSH2 0x43F7 JUMPI PUSH2 0x429F PUSH2 0x3921 SWAP3 PUSH2 0x131 SLOAD PUSH2 0x4130 JUMP JUMPDEST POP POP PUSH1 0x0 NOT SWAP1 JUMP JUMPDEST PUSH8 0xFFFFFFFFFFFFFFFF DUP2 GT PUSH2 0x3A2F JUMPI PUSH1 0x5 SHL PUSH1 0x20 ADD SWAP1 JUMP JUMPDEST SWAP1 PUSH2 0x4421 DUP3 PUSH2 0x43FF JUMP JUMPDEST PUSH2 0x442E PUSH1 0x40 MLOAD SWAP2 DUP3 PUSH2 0x3A0D JUMP JUMPDEST DUP3 DUP2 MSTORE DUP1 SWAP3 PUSH2 0x443F PUSH1 0x1F NOT SWAP2 PUSH2 0x43FF JUMP JUMPDEST ADD SWAP1 PUSH1 0x20 CALLDATASIZE SWAP2 ADD CALLDATACOPY JUMP JUMPDEST PUSH2 0x131 SLOAD DUP1 ISZERO PUSH2 0x3D4F JUMPI PUSH2 0x137 SWAP1 DUP2 SLOAD SWAP2 PUSH1 0x0 SWAP1 PUSH2 0x4466 DUP5 PUSH2 0x4417 JUMP JUMPDEST SWAP1 DUP3 SWAP1 JUMPDEST DUP6 DUP3 LT PUSH2 0x44D5 JUMPI POP POP PUSH1 0x0 JUMPDEST DUP5 DUP2 LT PUSH2 0x4484 JUMPI POP POP POP POP POP JUMP JUMPDEST PUSH2 0x44A1 DUP5 PUSH2 0x449C DUP6 PUSH2 0x4496 DUP6 DUP8 PUSH2 0x4218 JUMP JUMPDEST MLOAD PUSH2 0x433D JUMP JUMPDEST PUSH2 0x4350 JUMP JUMPDEST SWAP1 PUSH2 0x138 SWAP2 DUP3 SLOAD PUSH9 0x10000000000000000 DUP2 LT ISZERO PUSH2 0x3A2F JUMPI PUSH2 0x2744 DUP2 PUSH1 0x1 SWAP6 DUP7 PUSH2 0x44CD SWAP5 ADD DUP2 SSTORE PUSH2 0x389F JUMP JUMPDEST SWAP1 SSTORE ADD PUSH2 0x4476 JUMP JUMPDEST SWAP1 SWAP3 PUSH2 0x4511 PUSH1 0x1 SWAP2 PUSH2 0x44E6 DUP7 PUSH2 0x4554 JUMP JUMPDEST PUSH2 0x44F0 DUP8 DUP8 PUSH2 0x4218 JUMP JUMPDEST MSTORE PUSH2 0x42A4 PUSH2 0x44FE DUP8 DUP7 PUSH2 0x39F1 JUMP JUMPDEST POP SLOAD PUSH2 0x450A DUP9 DUP9 PUSH2 0x4218 JUMP JUMPDEST MLOAD SWAP1 PUSH2 0x5D93 JUMP JUMPDEST SWAP4 ADD SWAP1 PUSH2 0x446A JUMP JUMPDEST PUSH1 0x1 PUSH1 0x1 PUSH1 0xA0 SHL SUB AND PUSH1 0x0 SWAP1 DUP2 MSTORE PUSH2 0x136 PUSH1 0x20 MSTORE PUSH1 0x40 SWAP1 KECCAK256 PUSH1 0x1 DUP2 ADD SLOAD PUSH1 0xFF AND ISZERO PUSH2 0x4542 JUMPI SLOAD SWAP1 JUMP JUMPDEST PUSH1 0x40 MLOAD PUSH4 0xE6C4247B PUSH1 0xE0 SHL DUP2 MSTORE PUSH1 0x4 SWAP1 REVERT JUMPDEST PUSH2 0x4560 SWAP1 PUSH2 0x137 PUSH2 0x39F1 JUMP JUMPDEST POP PUSH1 0x1 ADD SLOAD PUSH1 0x1 PUSH1 0x1 PUSH1 0xA0 SHL SUB AND PUSH2 0x4577 DUP2 PUSH2 0x45B5 JUMP JUMPDEST SWAP2 SWAP1 SWAP2 ISZERO PUSH2 0x4583 JUMPI POP SWAP1 JUMP JUMPDEST PUSH1 0x24 SWAP1 PUSH1 0x40 MLOAD SWAP1 PUSH4 0x7F6E4DB9 PUSH1 0xE0 SHL DUP3 MSTORE PUSH1 0x4 DUP3 ADD MSTORE REVERT JUMPDEST SWAP2 SWAP1 DUP3 PUSH1 0x40 SWAP2 SUB SLT PUSH2 0x77E JUMPI PUSH2 0x3921 PUSH1 0x20 DUP4 MLOAD SWAP4 ADD PUSH2 0x4031 JUMP JUMPDEST PUSH1 0x40 DUP1 MLOAD PUSH4 0x59E02DD7 PUSH1 0xE0 SHL DUP2 MSTORE SWAP3 SWAP2 DUP4 SWAP1 PUSH1 0x4 SWAP1 DUP3 SWAP1 PUSH1 0x1 PUSH1 0x1 PUSH1 0xA0 SHL SUB AND GAS STATICCALL SWAP2 DUP3 ISZERO PUSH2 0x41FF JUMPI PUSH1 0x0 SWAP1 DUP2 SWAP4 PUSH2 0x45EC JUMPI POP SWAP2 SWAP1 JUMP JUMPDEST SWAP1 POP PUSH2 0x4610 SWAP2 SWAP3 POP PUSH1 0x40 RETURNDATASIZE DUP2 GT PUSH2 0x4614 JUMPI JUMPDEST PUSH2 0x4608 DUP2 DUP4 PUSH2 0x3A0D JUMP JUMPDEST DUP2 ADD SWAP1 PUSH2 0x459B JUMP JUMPDEST SWAP1 SWAP2 JUMP JUMPDEST POP RETURNDATASIZE PUSH2 0x45FE JUMP JUMPDEST PUSH2 0x137 SLOAD SWAP1 PUSH2 0x4629 DUP3 PUSH2 0x4417 JUMP JUMPDEST SWAP2 PUSH1 0x0 JUMPDEST DUP2 DUP2 LT PUSH2 0x4638 JUMPI POP POP JUMP JUMPDEST DUP1 PUSH2 0x4644 PUSH1 0x1 SWAP3 PUSH2 0x4554 JUMP JUMPDEST PUSH2 0x464E DUP3 DUP8 PUSH2 0x4218 JUMP JUMPDEST MSTORE ADD PUSH2 0x462D JUMP JUMPDEST SWAP1 PUSH2 0x4676 PUSH8 0xDE0B6B3A7640000 SWAP3 DUP4 PUSH2 0x157 SLOAD PUSH2 0x154 SLOAD SWAP3 NUMBER ADD SUB MUL PUSH2 0x4350 JUMP JUMPDEST DUP3 DUP2 LT ISZERO PUSH2 0x4693 JUMPI DUP3 SUB SWAP2 DUP1 DUP4 PUSH2 0x155 SLOAD MUL DIV SWAP3 PUSH2 0x156 SLOAD MUL SDIV SWAP1 JUMP JUMPDEST POP PUSH1 0x0 SWAP2 POP DUP2 SWAP1 JUMP JUMPDEST SWAP1 SWAP2 PUSH2 0x46A6 PUSH2 0x46FE JUMP JUMPDEST SWAP3 SWAP1 DUP1 DUP3 LT ISZERO PUSH2 0x46F4 JUMPI DUP4 SWAP2 PUSH2 0x46BB SWAP2 PUSH2 0x4130 JUMP JUMPDEST SWAP4 GT ISZERO PUSH2 0x46EF JUMPI DUP2 DUP2 LT ISZERO PUSH2 0x46E7 JUMPI PUSH2 0x46D3 SWAP2 PUSH2 0x4130 JUMP JUMPDEST PUSH1 0x1 SHR DUP1 DUP3 LT ISZERO PUSH2 0x46E2 JUMPI POP SWAP1 JUMP JUMPDEST SWAP1 POP SWAP1 JUMP JUMPDEST POP POP POP PUSH1 0x0 SWAP1 JUMP JUMPDEST POP POP SWAP1 JUMP JUMPDEST POP POP POP POP POP PUSH1 0x0 SWAP1 JUMP JUMPDEST PUSH2 0x152 SLOAD PUSH1 0x40 DUP1 MLOAD PUSH4 0x59E02DD7 PUSH1 0xE0 SHL DUP1 DUP3 MSTORE SWAP4 SWAP3 SWAP1 SWAP2 SWAP1 PUSH1 0x1 PUSH1 0x1 PUSH1 0xA0 SHL SUB SWAP1 DUP2 AND DUP3 DUP5 PUSH1 0x4 DUP2 DUP5 GAS STATICCALL DUP1 ISZERO PUSH2 0x47EE JUMPI PUSH1 0x0 SWAP5 DUP6 SWAP2 PUSH2 0x47CB JUMPI JUMPDEST POP ISZERO PUSH2 0x47B4 JUMPI POP PUSH2 0x153 SLOAD AND SWAP1 DUP1 MLOAD SWAP5 DUP6 MSTORE DUP1 DUP6 PUSH1 0x4 DUP2 DUP6 GAS STATICCALL DUP1 ISZERO PUSH2 0x47A9 JUMPI PUSH1 0x0 SWAP6 DUP7 SWAP2 PUSH2 0x4786 JUMPI JUMPDEST POP ISZERO PUSH2 0x476F JUMPI POP POP SWAP2 SWAP1 JUMP JUMPDEST PUSH1 0x24 SWAP3 POP MLOAD SWAP1 PUSH4 0x5E89893 PUSH1 0xE1 SHL DUP3 MSTORE PUSH1 0x4 DUP3 ADD MSTORE REVERT JUMPDEST SWAP1 POP DUP2 PUSH2 0x47A0 SWAP3 SWAP7 POP RETURNDATASIZE DUP8 GT PUSH2 0x4614 JUMPI PUSH2 0x4608 DUP2 DUP4 PUSH2 0x3A0D JUMP JUMPDEST SWAP5 SWAP1 SWAP5 CODESIZE PUSH2 0x4763 JUMP JUMPDEST POP MLOAD RETURNDATASIZE PUSH1 0x0 DUP3 RETURNDATACOPY RETURNDATASIZE SWAP1 REVERT JUMPDEST PUSH1 0x24 SWAP1 DUP4 MLOAD SWAP1 PUSH4 0x5E89893 PUSH1 0xE1 SHL DUP3 MSTORE PUSH1 0x4 DUP3 ADD MSTORE REVERT JUMPDEST SWAP1 POP PUSH2 0x47E5 SWAP2 SWAP5 POP DUP4 RETURNDATASIZE DUP6 GT PUSH2 0x4614 JUMPI PUSH2 0x4608 DUP2 DUP4 PUSH2 0x3A0D JUMP JUMPDEST SWAP4 SWAP1 SWAP4 CODESIZE PUSH2 0x4739 JUMP JUMPDEST DUP4 MLOAD RETURNDATASIZE PUSH1 0x0 DUP3 RETURNDATACOPY RETURNDATASIZE SWAP1 REVERT JUMPDEST ISZERO PUSH2 0x4800 JUMPI JUMP JUMPDEST PUSH1 0x40 MLOAD PUSH3 0x461BCD PUSH1 0xE5 SHL DUP2 MSTORE PUSH1 0x20 PUSH1 0x4 DUP3 ADD MSTORE PUSH1 0x2B PUSH1 0x24 DUP3 ADD MSTORE PUSH32 0x496E697469616C697A61626C653A20636F6E7472616374206973206E6F742069 PUSH1 0x44 DUP3 ADD MSTORE PUSH11 0x6E697469616C697A696E67 PUSH1 0xA8 SHL PUSH1 0x64 DUP3 ADD MSTORE PUSH1 0x84 SWAP1 REVERT JUMPDEST PUSH2 0x48BF SWAP2 PUSH2 0x4865 PUSH2 0x5D72 JUMP JUMPDEST PUSH2 0x486E ADDRESS PUSH2 0x4190 JUMP JUMPDEST PUSH1 0x40 MLOAD PUSH4 0x6845C445 PUSH1 0xE0 SHL PUSH1 0x20 DUP3 ADD MSTORE PUSH1 0x1 PUSH1 0x1 PUSH1 0xA0 SHL SUB SWAP4 DUP5 AND PUSH1 0x24 DUP3 ADD MSTORE SWAP2 DUP4 AND PUSH1 0x44 DUP4 ADD MSTORE DUP5 DUP4 AND PUSH1 0x64 DUP4 ADD MSTORE PUSH1 0x84 DUP1 DUP4 ADD SWAP2 SWAP1 SWAP2 MSTORE DUP2 MSTORE SWAP1 PUSH2 0x48B5 PUSH1 0xA4 DUP4 PUSH2 0x3A0D JUMP JUMPDEST PUSH2 0x1F6 SLOAD AND PUSH2 0x48DB JUMP JUMPDEST PUSH1 0x20 DUP2 DUP1 MLOAD DUP2 ADD SUB SLT PUSH2 0x77E JUMPI PUSH1 0x20 PUSH2 0x3921 SWAP2 ADD MLOAD DUP1 SWAP3 PUSH2 0x3FDA JUMP JUMPDEST SWAP1 PUSH2 0x3921 SWAP2 PUSH1 0x0 DUP1 PUSH2 0x48EB PUSH2 0x3E82 JUMP JUMPDEST SWAP4 PUSH1 0x20 DUP2 MLOAD SWAP2 ADD DUP5 GAS DELEGATECALL PUSH2 0x3D49 PUSH2 0x3ED6 JUMP JUMPDEST PUSH2 0x496B SWAP4 PUSH2 0x4932 PUSH1 0x0 SWAP3 PUSH1 0x20 SWAP6 PUSH2 0x4916 DUP3 PUSH2 0x137 PUSH2 0x39F1 JUMP JUMPDEST POP PUSH2 0x4922 DUP8 DUP3 SLOAD PUSH2 0x420B JUMP JUMPDEST SWAP1 SSTORE PUSH2 0x168D PUSH2 0x131 SWAP2 DUP3 SLOAD PUSH2 0x420B JUMP JUMPDEST SWAP1 SLOAD PUSH1 0x40 MLOAD PUSH4 0x40C10F19 PUSH1 0xE0 SHL DUP2 MSTORE PUSH1 0x1 PUSH1 0x1 PUSH1 0xA0 SHL SUB SWAP1 SWAP4 AND PUSH1 0x4 DUP5 ADD MSTORE PUSH1 0x24 DUP4 ADD SWAP5 SWAP1 SWAP5 MSTORE SWAP1 SWAP5 DUP6 SWAP4 SWAP3 DUP5 SWAP3 SWAP1 SWAP2 DUP4 SWAP1 PUSH1 0x44 DUP3 ADD SWAP1 JUMP JUMPDEST SUB SWAP4 PUSH1 0x3 SWAP2 SWAP1 SWAP2 SHL SHR PUSH1 0x1 PUSH1 0x1 PUSH1 0xA0 SHL SUB AND GAS CALL DUP1 ISZERO PUSH2 0x41FF JUMPI PUSH2 0x498C JUMPI POP JUMP JUMPDEST PUSH1 0x20 DUP2 RETURNDATASIZE DUP3 GT PUSH2 0x49B5 JUMPI JUMPDEST DUP2 PUSH2 0x49A4 PUSH1 0x20 SWAP4 DUP4 PUSH2 0x3A0D JUMP JUMPDEST DUP2 ADD SUB SLT PUSH2 0x77E JUMPI PUSH2 0x3D4F SWAP1 PUSH2 0x4031 JUMP JUMPDEST RETURNDATASIZE SWAP2 POP PUSH2 0x4997 JUMP JUMPDEST PUSH2 0x2744 PUSH2 0x418C SWAP2 PUSH2 0x49CE DUP5 DUP3 PUSH2 0x4389 JUMP JUMPDEST PUSH2 0x4A04 PUSH2 0x49DD DUP4 PUSH2 0x150 PUSH2 0x389F JUMP JUMPDEST PUSH2 0x49F0 DUP3 SWAP5 SWAP3 SLOAD SWAP3 DUP4 DUP4 PUSH1 0x3 SHL SHR PUSH2 0x42BA JUMP JUMPDEST SWAP2 SWAP1 PUSH1 0x3 SHL SWAP2 DUP3 SHL SWAP2 PUSH1 0x0 NOT SWAP1 SHL NOT AND OR SWAP1 JUMP JUMPDEST SWAP1 SSTORE PUSH2 0x151 PUSH2 0x389F JUMP JUMPDEST PUSH1 0xE0 DUP2 ADD SWAP3 SWAP2 PUSH1 0xC0 SWAP1 DUP2 SWAP1 PUSH1 0x1 PUSH1 0x1 PUSH1 0xA0 SHL SUB DUP1 PUSH2 0x4A2B DUP4 PUSH2 0x38CD JUMP JUMPDEST AND DUP6 MSTORE PUSH2 0x4A3A PUSH1 0x20 DUP4 ADD PUSH2 0x38CD JUMP JUMPDEST AND PUSH1 0x20 DUP6 ADD MSTORE PUSH1 0x40 DUP2 ADD CALLDATALOAD PUSH1 0x40 DUP6 ADD MSTORE PUSH1 0x60 DUP2 ADD CALLDATALOAD PUSH1 0x60 DUP6 ADD MSTORE PUSH1 0x80 DUP2 ADD CALLDATALOAD PUSH1 0x80 DUP6 ADD MSTORE PUSH1 0xA0 DUP2 ADD CALLDATALOAD PUSH1 0xA0 DUP6 ADD MSTORE ADD CALLDATALOAD SWAP2 ADD MSTORE JUMP JUMPDEST SWAP1 PUSH2 0x134 SLOAD SWAP1 DUP2 ISZERO PUSH2 0x4A94 JUMPI PUSH2 0x3921 SWAP3 PUSH2 0x4A8F PUSH2 0x429F SWAP3 PUSH2 0x131 SLOAD PUSH2 0x4130 JUMP JUMPDEST PUSH2 0x4130 JUMP JUMPDEST POP POP POP PUSH8 0xDE0B6B3A7640000 SWAP1 JUMP JUMPDEST DUP3 DUP3 PUSH2 0x4AAE SWAP3 PUSH2 0x4ACB JUMP JUMPDEST SWAP1 PUSH1 0x0 DUP3 SGT ISZERO PUSH2 0x46E7 JUMPI PUSH2 0x3921 SWAP3 PUSH2 0x4AC5 SWAP2 PUSH2 0x4A6F JUMP JUMPDEST SWAP1 PUSH2 0x4350 JUMP JUMPDEST SWAP1 SWAP2 PUSH2 0x4ADA SWAP1 PUSH2 0x131 SLOAD PUSH2 0x4130 JUMP JUMPDEST SWAP1 PUSH8 0xDE0B6B3A7640000 SWAP2 DUP3 DUP2 MUL SWAP3 DUP2 DUP5 DIV EQ SWAP1 ISZERO OR ISZERO PUSH2 0x413D JUMPI PUSH2 0x3921 SWAP3 PUSH2 0x43DB SWAP2 PUSH2 0x433D JUMP JUMPDEST SWAP3 PUSH2 0x4B10 SWAP3 SWAP4 SWAP5 SWAP2 SWAP5 PUSH2 0x4ACB JUMP JUMPDEST DUP2 DUP2 MUL SWAP2 PUSH1 0x0 SWAP2 PUSH1 0x1 PUSH1 0xFF SHL SWAP2 DUP4 DUP3 SLT DUP4 DUP3 EQ AND PUSH2 0x4BB4 JUMPI DUP2 DUP6 SDIV EQ SWAP1 ISZERO OR ISZERO PUSH2 0x4BA0 JUMPI PUSH8 0xDE0B6B3A763FFFF NOT DUP5 ADD SWAP4 DUP5 GT PUSH2 0x4BA0 JUMPI PUSH8 0xDE0B6B3A7640000 SWAP4 DUP5 DUP2 MUL SWAP5 DUP2 DUP7 DIV EQ SWAP1 ISZERO OR ISZERO PUSH2 0x4BA0 JUMPI DUP4 ISZERO PUSH2 0x4B8C JUMPI DUP3 EQ PUSH1 0x0 NOT DUP5 EQ AND PUSH2 0x4B78 JUMPI POP SDIV SWAP1 JUMP JUMPDEST PUSH4 0x4E487B71 PUSH1 0xE0 SHL DUP2 MSTORE PUSH1 0x11 PUSH1 0x4 MSTORE PUSH1 0x24 SWAP1 REVERT JUMPDEST PUSH4 0x4E487B71 PUSH1 0xE0 SHL DUP3 MSTORE PUSH1 0x12 PUSH1 0x4 MSTORE PUSH1 0x24 DUP3 REVERT JUMPDEST PUSH4 0x4E487B71 PUSH1 0xE0 SHL DUP3 MSTORE PUSH1 0x11 PUSH1 0x4 MSTORE PUSH1 0x24 DUP3 REVERT JUMPDEST PUSH4 0x4E487B71 PUSH1 0xE0 SHL DUP5 MSTORE PUSH1 0x11 PUSH1 0x4 MSTORE PUSH1 0x24 DUP5 REVERT JUMPDEST PUSH2 0x14D SLOAD DUP1 NUMBER LT ISZERO PUSH2 0x4BDF JUMPI PUSH2 0x3921 SWAP1 NUMBER SWAP1 PUSH2 0x4130 JUMP JUMPDEST POP PUSH1 0x0 SWAP1 JUMP JUMPDEST SWAP1 PUSH1 0x40 MLOAD PUSH2 0x4BF4 PUSH1 0x40 DUP3 PUSH2 0x3A0D JUMP JUMPDEST PUSH1 0x20 PUSH1 0x1 DUP3 SWAP5 DUP1 SLOAD DUP5 MSTORE ADD SLOAD SWAP2 ADD MSTORE JUMP JUMPDEST PUSH2 0x4C11 DUP2 PUSH2 0x148 PUSH2 0x389F JUMP JUMPDEST SWAP1 SLOAD SWAP1 PUSH1 0x3 SHL SHR SWAP2 PUSH2 0x18E SWAP2 PUSH2 0x4C27 DUP2 DUP5 PUSH2 0x39F1 JUMP JUMPDEST POP SLOAD SWAP3 PUSH2 0x18F SLOAD NUMBER LT ISZERO PUSH2 0x4C4D JUMPI JUMPDEST POP POP DUP1 DUP3 LT ISZERO PUSH2 0x46EF JUMPI PUSH2 0x449C SWAP1 PUSH2 0x3921 SWAP4 PUSH2 0x433D JUMP JUMPDEST DUP3 SWAP4 POP PUSH2 0x4C61 PUSH2 0x4C6C SWAP4 SWAP3 PUSH2 0x4C67 SWAP3 PUSH2 0x39F1 JUMP JUMPDEST POP PUSH2 0x4BE5 JUMP JUMPDEST PUSH2 0x4C74 JUMP JUMPDEST SWAP1 CODESIZE DUP1 PUSH2 0x4C36 JUMP JUMPDEST PUSH1 0x20 DUP2 MLOAD SWAP2 ADD DUP1 MLOAD SWAP3 PUSH8 0xDE0B6B3A7640000 SWAP4 DUP5 SUB SWAP1 DUP5 DUP3 GT PUSH2 0x413D JUMPI PUSH2 0x4CA1 PUSH2 0x42A4 SWAP3 PUSH2 0x425F SWAP6 PUSH2 0x433D JUMP JUMPDEST SWAP3 MLOAD PUSH2 0x433D JUMP JUMPDEST PUSH1 0x0 DUP1 PUSH2 0x137 SWAP2 DUP3 SLOAD SWAP3 PUSH2 0x4CBB DUP5 PUSH2 0x4417 JUMP JUMPDEST SWAP4 DUP3 SWAP2 JUMPDEST DUP2 DUP4 LT PUSH2 0x4CE8 JUMPI POP POP POP DUP2 ISZERO PUSH2 0x4CDC JUMPI SWAP1 PUSH2 0x4CD9 SWAP2 PUSH2 0x4350 JUMP JUMPDEST SWAP2 JUMP JUMPDEST POP POP PUSH2 0x149 SLOAD PUSH1 0x1 SHL SWAP2 JUMP JUMPDEST SWAP1 SWAP2 SWAP4 SWAP3 PUSH2 0x4CF5 DUP6 PUSH2 0x4554 JUMP JUMPDEST SWAP1 DUP2 PUSH2 0x4D01 DUP8 DUP10 PUSH2 0x4218 JUMP JUMPDEST MSTORE PUSH2 0x4D1A PUSH2 0x4D0F DUP4 DUP9 PUSH2 0x42D6 JUMP JUMPDEST POP PUSH2 0x4298 DUP9 DUP7 PUSH2 0x39F1 JUMP JUMPDEST PUSH8 0xDE0B6B3A7640000 SWAP1 DUP2 DUP2 MUL SWAP2 DUP2 DUP4 DIV EQ SWAP1 ISZERO OR ISZERO PUSH2 0x413D JUMPI PUSH2 0x4D5C PUSH2 0x4D62 SWAP3 PUSH2 0x42A4 DUP6 PUSH2 0x4D4E PUSH1 0x1 SWAP8 PUSH2 0x4D57 SWAP7 PUSH2 0x5D93 JUMP JUMPDEST SWAP5 DUP6 SWAP2 DUP13 PUSH2 0x4C05 JUMP JUMPDEST PUSH2 0x433D JUMP JUMPDEST SWAP6 PUSH2 0x420B JUMP JUMPDEST SWAP5 ADD SWAP2 SWAP1 PUSH2 0x4CBF JUMP JUMPDEST PUSH2 0x18F DUP1 SLOAD NUMBER LT ISZERO PUSH2 0x4D7A JUMPI POP JUMP JUMPDEST PUSH2 0x137 SLOAD PUSH1 0x0 JUMPDEST DUP2 DUP2 LT PUSH2 0x4D94 JUMPI POP POP PUSH2 0x190 SLOAD NUMBER ADD SWAP1 SSTORE JUMP JUMPDEST DUP1 DUP1 PUSH32 0x19156E9379C7BBBCE8F646CE5EE30BA860B8F954717405F3D5859A6C1A21AE60 PUSH1 0x1 SWAP4 PUSH2 0x18E PUSH2 0x4DCA PUSH2 0x4C61 DUP4 DUP4 PUSH2 0x39F1 JUMP JUMPDEST SWAP1 PUSH2 0x4DE8 PUSH2 0x4DE0 PUSH2 0x4DDA DUP6 PUSH2 0x4554 JUMP JUMPDEST DUP5 PUSH2 0x4C74 JUMP JUMPDEST SWAP4 DUP5 SWAP3 PUSH2 0x39F1 JUMP JUMPDEST POP SSTORE MLOAD PUSH1 0x40 SWAP2 DUP3 MLOAD SWAP2 DUP3 MSTORE PUSH1 0x20 DUP3 ADD MSTORE LOG2 ADD PUSH2 0x4D81 JUMP JUMPDEST SWAP3 PUSH1 0xA4 PUSH2 0x4E9C SWAP2 PUSH1 0x20 SWAP4 SWAP5 PUSH2 0x4E12 PUSH2 0x4F58 JUMP JUMPDEST PUSH2 0x4E1A PUSH2 0x5D72 JUMP JUMPDEST PUSH1 0x40 MLOAD SWAP7 PUSH2 0x4E29 PUSH1 0xA0 DUP10 PUSH2 0x3A0D JUMP JUMPDEST DUP8 MSTORE DUP5 DUP8 ADD DUP7 SWAP1 MSTORE CALLER PUSH1 0x40 DUP1 DUP10 ADD SWAP2 DUP3 MSTORE PUSH1 0x1 PUSH1 0x1 PUSH1 0xA0 SHL SUB SWAP3 DUP4 AND PUSH1 0x60 DUP11 ADD SWAP1 DUP2 MSTORE SWAP4 DUP4 AND PUSH1 0x80 DUP11 ADD SWAP1 DUP2 MSTORE PUSH2 0x14F SLOAD SWAP2 MLOAD PUSH4 0xE97A4D63 PUSH1 0xE0 SHL DUP2 MSTORE DUP11 MLOAD PUSH1 0x4 DUP3 ADD MSTORE PUSH1 0x20 SWAP1 SWAP11 ADD MLOAD PUSH1 0x24 DUP12 ADD MSTORE SWAP2 MLOAD DUP4 AND PUSH1 0x44 DUP11 ADD MSTORE SWAP3 MLOAD DUP3 AND PUSH1 0x64 DUP10 ADD MSTORE MLOAD DUP2 AND PUSH1 0x84 DUP9 ADD MSTORE DUP7 SWAP4 DUP5 SWAP3 SWAP1 SWAP2 AND SWAP1 JUMP JUMPDEST CALLVALUE SWAP1 GAS CALL SWAP2 DUP3 ISZERO PUSH2 0x41FF JUMPI PUSH1 0x0 SWAP3 PUSH2 0x4EB9 JUMPI JUMPDEST POP PUSH2 0x3921 SWAP1 PUSH2 0x4EEE JUMP JUMPDEST SWAP1 SWAP2 PUSH1 0x20 DUP3 RETURNDATASIZE DUP3 GT PUSH2 0x4EE6 JUMPI JUMPDEST DUP2 PUSH2 0x4ED3 PUSH1 0x20 SWAP4 DUP4 PUSH2 0x3A0D JUMP JUMPDEST DUP2 ADD SUB SLT PUSH2 0x86E JUMPI POP MLOAD SWAP1 PUSH2 0x3921 PUSH2 0x4EAF JUMP JUMPDEST RETURNDATASIZE SWAP2 POP PUSH2 0x4EC6 JUMP JUMPDEST PUSH2 0x3960 SWAP1 PUSH2 0x14E PUSH2 0x4F00 DUP3 DUP3 SLOAD PUSH2 0x420B JUMP JUMPDEST SWAP1 SSTORE PUSH2 0x229 SLOAD ADDRESS SWAP1 CALLER SWAP1 PUSH1 0x1 PUSH1 0x1 PUSH1 0xA0 SHL SUB AND JUMPDEST PUSH1 0x40 MLOAD PUSH4 0x23B872DD PUSH1 0xE0 SHL PUSH1 0x20 DUP3 ADD MSTORE PUSH1 0x1 PUSH1 0x1 PUSH1 0xA0 SHL SUB SWAP3 DUP4 AND PUSH1 0x24 DUP3 ADD MSTORE SWAP3 SWAP1 SWAP2 AND PUSH1 0x44 DUP4 ADD MSTORE PUSH1 0x64 DUP1 DUP4 ADD SWAP4 SWAP1 SWAP4 MSTORE SWAP2 DUP2 MSTORE PUSH2 0x3960 SWAP2 PUSH2 0x402C PUSH1 0x84 DUP4 PUSH2 0x3A0D JUMP JUMPDEST PUSH1 0xFF PUSH2 0x14B SLOAD PUSH1 0x8 SHR AND PUSH2 0x4F68 JUMPI JUMP JUMPDEST PUSH1 0x40 MLOAD PUSH4 0x1CA61D77 PUSH1 0xE0 SHL DUP2 MSTORE PUSH1 0x4 SWAP1 REVERT JUMPDEST SWAP4 PUSH1 0x20 SWAP3 SWAP4 PUSH2 0x4E9C SWAP3 PUSH1 0xC4 SWAP3 PUSH2 0x4F8E PUSH2 0x4F58 JUMP JUMPDEST PUSH2 0x4F96 PUSH2 0x5D72 JUMP JUMPDEST PUSH1 0x40 MLOAD SWAP8 PUSH2 0x4FA5 PUSH1 0xC0 DUP11 PUSH2 0x3A0D JUMP JUMPDEST PUSH1 0x1 DUP1 PUSH1 0xA0 SHL SUB SWAP4 DUP5 SWAP4 DUP5 DUP1 SWAP4 AND DUP12 MSTORE DUP9 DUP12 ADD MSTORE DUP9 PUSH1 0x40 DUP12 ADD MSTORE CALLER PUSH1 0x60 DUP12 ADD MSTORE AND PUSH1 0x80 DUP10 ADD MSTORE AND PUSH1 0xA0 DUP8 ADD MSTORE PUSH2 0x14F SLOAD AND SWAP5 PUSH1 0x40 MLOAD SWAP6 DUP7 SWAP4 DUP5 SWAP3 PUSH4 0x7E81A821 PUSH1 0xE0 SHL DUP5 MSTORE PUSH1 0x4 DUP5 ADD SWAP1 JUMPDEST PUSH1 0xA0 SWAP1 DUP2 PUSH1 0x1 DUP1 DUP3 SHL SUB SWAP2 DUP3 DUP2 MLOAD AND DUP6 MSTORE PUSH1 0x20 DUP2 ADD MLOAD PUSH1 0x20 DUP7 ADD MSTORE PUSH1 0x40 DUP2 ADD MLOAD PUSH1 0x40 DUP7 ADD MSTORE DUP3 PUSH1 0x60 DUP3 ADD MLOAD AND PUSH1 0x60 DUP7 ADD MSTORE DUP3 PUSH1 0x80 DUP3 ADD MLOAD AND PUSH1 0x80 DUP7 ADD MSTORE ADD MLOAD AND SWAP2 ADD MSTORE JUMP JUMPDEST SWAP4 PUSH1 0x20 SWAP3 SWAP4 PUSH2 0x4E9C SWAP3 PUSH1 0xC4 SWAP3 PUSH2 0x5048 PUSH2 0x4F58 JUMP JUMPDEST PUSH2 0x5050 PUSH2 0x5D72 JUMP JUMPDEST PUSH1 0x40 MLOAD SWAP8 PUSH2 0x505F PUSH1 0xC0 DUP11 PUSH2 0x3A0D JUMP JUMPDEST PUSH1 0x1 DUP1 PUSH1 0xA0 SHL SUB SWAP4 DUP5 SWAP4 DUP5 DUP1 SWAP4 AND DUP12 MSTORE DUP9 DUP12 ADD MSTORE DUP9 PUSH1 0x40 DUP12 ADD MSTORE CALLER PUSH1 0x60 DUP12 ADD MSTORE AND PUSH1 0x80 DUP10 ADD MSTORE AND PUSH1 0xA0 DUP8 ADD MSTORE PUSH2 0x14F SLOAD AND SWAP5 PUSH1 0x40 MLOAD SWAP6 DUP7 SWAP4 DUP5 SWAP3 PUSH4 0x23EC24B5 PUSH1 0xE1 SHL DUP5 MSTORE PUSH1 0x4 DUP5 ADD SWAP1 PUSH2 0x4FEF JUMP JUMPDEST SWAP1 SWAP3 SWAP5 PUSH1 0x20 SWAP3 SWAP5 SWAP6 PUSH2 0x5134 SWAP8 PUSH2 0x50C1 PUSH2 0x4F58 JUMP JUMPDEST PUSH2 0x50C9 PUSH2 0x5D72 JUMP JUMPDEST PUSH1 0x40 MLOAD SWAP4 PUSH2 0x50D9 PUSH2 0x100 DUP7 PUSH2 0x3A0D JUMP JUMPDEST PUSH1 0x1 DUP1 PUSH1 0xA0 SHL SUB SWAP4 DUP5 SWAP4 DUP5 DUP1 DUP1 SWAP5 AND SWAP10 DUP11 DUP10 MSTORE AND DUP9 DUP9 ADD MSTORE DUP10 PUSH1 0x40 DUP9 ADD MSTORE PUSH1 0x60 DUP8 ADD MSTORE DUP10 PUSH1 0x80 DUP8 ADD MSTORE CALLER PUSH1 0xA0 DUP8 ADD MSTORE AND PUSH1 0xC0 DUP6 ADD MSTORE AND PUSH1 0xE0 DUP4 ADD MSTORE PUSH2 0x14F SLOAD AND PUSH1 0x40 MLOAD DUP1 DUP1 SWAP9 DUP2 SWAP5 PUSH4 0x34975A41 PUSH1 0xE0 SHL DUP4 MSTORE PUSH1 0x4 DUP4 ADD PUSH2 0x5196 JUMP JUMPDEST SUB SWAP2 CALLVALUE SWAP1 GAS CALL SWAP4 DUP5 ISZERO PUSH2 0x41FF JUMPI PUSH1 0x0 SWAP5 PUSH2 0x5161 JUMPI JUMPDEST POP PUSH2 0x3921 SWAP3 SWAP2 PUSH2 0x515C SWAP2 ADDRESS SWAP1 CALLER SWAP1 PUSH2 0x4F14 JUMP JUMPDEST PUSH2 0x4EEE JUMP JUMPDEST SWAP1 SWAP4 PUSH1 0x20 DUP3 RETURNDATASIZE DUP3 GT PUSH2 0x518E JUMPI JUMPDEST DUP2 PUSH2 0x517B PUSH1 0x20 SWAP4 DUP4 PUSH2 0x3A0D JUMP JUMPDEST DUP2 ADD SUB SLT PUSH2 0x86E JUMPI POP MLOAD SWAP3 PUSH2 0x3921 PUSH2 0x5149 JUMP JUMPDEST RETURNDATASIZE SWAP2 POP PUSH2 0x516E JUMP JUMPDEST SWAP2 SWAP1 SWAP2 PUSH1 0xE0 PUSH2 0x100 DUP3 ADD SWAP4 DUP2 PUSH1 0x1 DUP1 PUSH1 0xA0 SHL SUB SWAP2 DUP3 DUP2 MLOAD AND DUP6 MSTORE DUP3 PUSH1 0x20 DUP3 ADD MLOAD AND PUSH1 0x20 DUP7 ADD MSTORE PUSH1 0x40 DUP2 ADD MLOAD PUSH1 0x40 DUP7 ADD MSTORE PUSH1 0x60 DUP2 ADD MLOAD PUSH1 0x60 DUP7 ADD MSTORE PUSH1 0x80 DUP2 ADD MLOAD PUSH1 0x80 DUP7 ADD MSTORE DUP3 PUSH1 0xA0 DUP3 ADD MLOAD AND PUSH1 0xA0 DUP7 ADD MSTORE DUP3 PUSH1 0xC0 DUP3 ADD MLOAD AND PUSH1 0xC0 DUP7 ADD MSTORE ADD MLOAD AND SWAP2 ADD MSTORE JUMP JUMPDEST PUSH1 0xE4 DUP3 PUSH1 0x20 DUP1 SWAP5 SWAP7 SWAP8 SWAP9 PUSH2 0x527B SWAP5 PUSH2 0x5210 PUSH2 0x4F58 JUMP JUMPDEST PUSH2 0x5218 PUSH2 0x5D72 JUMP JUMPDEST PUSH1 0x40 MLOAD SWAP11 DUP12 SWAP9 PUSH2 0x5229 PUSH1 0xE0 DUP12 PUSH2 0x3A0D JUMP JUMPDEST PUSH1 0x1 DUP1 PUSH1 0xA0 SHL SUB SWAP6 DUP7 SWAP6 DUP7 DUP1 SWAP6 AND SWAP12 DUP13 DUP2 MSTORE ADD MSTORE PUSH1 0x40 DUP14 ADD MSTORE DUP11 PUSH1 0x60 DUP14 ADD MSTORE CALLER PUSH1 0x80 DUP14 ADD MSTORE AND PUSH1 0xA0 DUP12 ADD MSTORE AND PUSH1 0xC0 DUP10 ADD MSTORE PUSH2 0x14F SLOAD AND SWAP7 PUSH1 0x40 MLOAD SWAP8 DUP9 SWAP4 DUP5 SWAP3 PUSH3 0x637447 PUSH1 0xE1 SHL DUP5 MSTORE PUSH1 0x4 DUP5 ADD SWAP1 PUSH2 0x52A0 JUMP JUMPDEST CALLVALUE SWAP1 GAS CALL SWAP4 DUP5 ISZERO PUSH2 0x41FF JUMPI PUSH1 0x0 SWAP5 PUSH2 0x5161 JUMPI POP PUSH2 0x3921 SWAP3 SWAP2 PUSH2 0x515C SWAP2 ADDRESS SWAP1 CALLER SWAP1 PUSH2 0x4F14 JUMP JUMPDEST PUSH1 0xC0 SWAP1 DUP2 PUSH1 0x1 DUP1 PUSH1 0xA0 SHL SUB SWAP2 DUP3 DUP2 MLOAD AND DUP6 MSTORE PUSH1 0x20 DUP2 ADD MLOAD PUSH1 0x20 DUP7 ADD MSTORE PUSH1 0x40 DUP2 ADD MLOAD PUSH1 0x40 DUP7 ADD MSTORE PUSH1 0x60 DUP2 ADD MLOAD PUSH1 0x60 DUP7 ADD MSTORE DUP3 PUSH1 0x80 DUP3 ADD MLOAD AND PUSH1 0x80 DUP7 ADD MSTORE DUP3 PUSH1 0xA0 DUP3 ADD MLOAD AND PUSH1 0xA0 DUP7 ADD MSTORE ADD MLOAD AND SWAP2 ADD MSTORE JUMP JUMPDEST SWAP5 SWAP4 SWAP2 SWAP1 SWAP3 SWAP4 PUSH2 0x52FE PUSH2 0x4F58 JUMP JUMPDEST PUSH2 0x5306 PUSH2 0x5D72 JUMP JUMPDEST PUSH1 0x40 MLOAD SWAP6 PUSH2 0x5315 PUSH1 0xE0 DUP9 PUSH2 0x3A0D JUMP JUMPDEST PUSH1 0x1 DUP1 PUSH1 0xA0 SHL SUB SWAP4 DUP5 SWAP4 DUP5 DUP1 SWAP4 AND DUP10 MSTORE DUP7 PUSH1 0x20 DUP11 ADD MSTORE PUSH1 0x40 DUP10 ADD MSTORE DUP7 PUSH1 0x60 DUP10 ADD MSTORE CALLER PUSH1 0x80 DUP10 ADD MSTORE AND PUSH1 0xA0 DUP8 ADD MSTORE AND PUSH1 0xC0 DUP6 ADD MSTORE PUSH1 0x20 PUSH2 0x5372 PUSH1 0xE4 DUP4 PUSH2 0x14F SLOAD AND SWAP7 PUSH1 0x40 MLOAD SWAP8 DUP9 SWAP4 DUP5 SWAP3 PUSH4 0x6B59C22F PUSH1 0xE0 SHL DUP5 MSTORE PUSH1 0x4 DUP5 ADD SWAP1 PUSH2 0x52A0 JUMP JUMPDEST CALLVALUE SWAP1 GAS CALL SWAP4 DUP5 ISZERO PUSH2 0x41FF JUMPI PUSH1 0x0 SWAP5 PUSH2 0x539D JUMPI JUMPDEST POP PUSH2 0x3921 SWAP3 SWAP2 PUSH2 0x515C SWAP2 PUSH2 0x133 SLOAD AND ADDRESS SWAP1 CALLER SWAP1 PUSH2 0x4F14 JUMP JUMPDEST SWAP1 SWAP4 PUSH1 0x20 DUP3 RETURNDATASIZE DUP3 GT PUSH2 0x53CA JUMPI JUMPDEST DUP2 PUSH2 0x53B7 PUSH1 0x20 SWAP4 DUP4 PUSH2 0x3A0D JUMP JUMPDEST DUP2 ADD SUB SLT PUSH2 0x86E JUMPI POP MLOAD SWAP3 PUSH2 0x3921 PUSH2 0x5385 JUMP JUMPDEST RETURNDATASIZE SWAP2 POP PUSH2 0x53AA JUMP JUMPDEST SWAP2 SWAP3 SWAP1 SWAP3 PUSH2 0x53DE PUSH2 0x4F58 JUMP JUMPDEST PUSH2 0x53E6 PUSH2 0x5D72 JUMP JUMPDEST PUSH1 0x40 MLOAD SWAP4 PUSH2 0x53F5 PUSH1 0xA0 DUP7 PUSH2 0x3A0D JUMP JUMPDEST DUP4 DUP6 MSTORE PUSH1 0x20 DUP1 DUP7 ADD SWAP2 DUP3 MSTORE CALLER PUSH1 0x40 DUP1 DUP9 ADD SWAP2 DUP3 MSTORE PUSH1 0x1 PUSH1 0x1 PUSH1 0xA0 SHL SUB SWAP5 DUP6 AND PUSH1 0x60 DUP10 ADD SWAP1 DUP2 MSTORE SWAP6 DUP6 AND PUSH1 0x80 DUP10 ADD SWAP1 DUP2 MSTORE PUSH2 0x14F SLOAD SWAP2 MLOAD PUSH4 0xFA91A9A5 PUSH1 0xE0 SHL DUP2 MSTORE SWAP9 MLOAD PUSH1 0x4 DUP11 ADD MSTORE SWAP4 MLOAD PUSH1 0x24 DUP10 ADD MSTORE SWAP1 MLOAD DUP5 AND PUSH1 0x44 DUP9 ADD MSTORE SWAP4 MLOAD DUP4 AND PUSH1 0x64 DUP8 ADD MSTORE SWAP1 MLOAD DUP3 AND PUSH1 0x84 DUP7 ADD MSTORE SWAP1 SWAP2 DUP5 SWAP1 PUSH1 0xA4 SWAP1 DUP3 SWAP1 DUP6 AND CALLVALUE SWAP1 GAS CALL SWAP3 DUP4 ISZERO PUSH2 0x41FF JUMPI PUSH1 0x0 SWAP4 PUSH2 0x5490 JUMPI JUMPDEST POP SWAP1 PUSH2 0x3921 SWAP2 PUSH2 0x133 SLOAD AND ADDRESS SWAP1 CALLER SWAP1 PUSH2 0x4F14 JUMP JUMPDEST SWAP1 SWAP3 PUSH1 0x20 DUP3 RETURNDATASIZE DUP3 GT PUSH2 0x54BD JUMPI JUMPDEST DUP2 PUSH2 0x54AA PUSH1 0x20 SWAP4 DUP4 PUSH2 0x3A0D JUMP JUMPDEST DUP2 ADD SUB SLT PUSH2 0x86E JUMPI POP MLOAD SWAP2 PUSH2 0x3921 PUSH2 0x547C JUMP JUMPDEST RETURNDATASIZE SWAP2 POP PUSH2 0x549D JUMP JUMPDEST PUSH1 0xC4 PUSH1 0x20 SWAP3 SWAP5 PUSH2 0x553D SWAP3 PUSH2 0x54D7 PUSH2 0x4F58 JUMP JUMPDEST PUSH2 0x54DF PUSH2 0x5D72 JUMP JUMPDEST PUSH1 0x40 MLOAD SWAP8 PUSH2 0x54EE PUSH1 0xC0 DUP11 PUSH2 0x3A0D JUMP JUMPDEST PUSH1 0x1 DUP1 PUSH1 0xA0 SHL SUB DUP1 SWAP4 DUP2 DUP1 SWAP5 AND SWAP9 DUP10 DUP13 MSTORE DUP11 DUP10 DUP14 ADD MSTORE PUSH1 0x40 DUP13 ADD MSTORE CALLER PUSH1 0x60 DUP13 ADD MSTORE AND PUSH1 0x80 DUP11 ADD MSTORE AND PUSH1 0xA0 DUP9 ADD MSTORE PUSH2 0x14F SLOAD AND SWAP6 PUSH1 0x40 MLOAD SWAP7 DUP8 SWAP4 DUP5 SWAP3 PUSH4 0x6426C5DB PUSH1 0xE1 SHL DUP5 MSTORE PUSH1 0x4 DUP5 ADD SWAP1 PUSH2 0x4FEF JUMP JUMPDEST CALLVALUE SWAP1 GAS CALL SWAP3 DUP4 ISZERO PUSH2 0x41FF JUMPI PUSH1 0x0 SWAP4 PUSH2 0x555F JUMPI JUMPDEST POP SWAP1 PUSH2 0x3921 SWAP2 ADDRESS SWAP1 CALLER SWAP1 PUSH2 0x4F14 JUMP JUMPDEST SWAP1 SWAP3 PUSH1 0x20 DUP3 RETURNDATASIZE DUP3 GT PUSH2 0x558C JUMPI JUMPDEST DUP2 PUSH2 0x5579 PUSH1 0x20 SWAP4 DUP4 PUSH2 0x3A0D JUMP JUMPDEST DUP2 ADD SUB SLT PUSH2 0x86E JUMPI POP MLOAD SWAP2 PUSH2 0x3921 PUSH2 0x5550 JUMP JUMPDEST RETURNDATASIZE SWAP2 POP PUSH2 0x556C JUMP JUMPDEST SWAP4 SWAP1 SWAP2 SWAP4 PUSH2 0x55A0 PUSH2 0x4F58 JUMP JUMPDEST PUSH2 0x55A8 PUSH2 0x5D72 JUMP JUMPDEST PUSH1 0x40 MLOAD SWAP6 PUSH2 0x55B7 PUSH1 0xE0 DUP9 PUSH2 0x3A0D JUMP JUMPDEST PUSH1 0x1 DUP1 PUSH1 0xA0 SHL SUB DUP1 SWAP4 DUP2 DUP1 SWAP5 AND SWAP7 DUP8 DUP11 MSTORE DUP7 PUSH1 0x20 DUP12 ADD MSTORE DUP9 PUSH1 0x40 DUP12 ADD MSTORE PUSH1 0x60 DUP11 ADD MSTORE CALLER PUSH1 0x80 DUP11 ADD MSTORE AND PUSH1 0xA0 DUP9 ADD MSTORE AND PUSH1 0xC0 DUP7 ADD MSTORE PUSH1 0x20 PUSH2 0x5615 PUSH1 0xE4 DUP4 PUSH2 0x14F SLOAD AND SWAP8 PUSH1 0x40 MLOAD SWAP9 DUP10 SWAP4 DUP5 SWAP3 PUSH4 0xE4E1B729 PUSH1 0xE0 SHL DUP5 MSTORE PUSH1 0x4 DUP5 ADD SWAP1 PUSH2 0x52A0 JUMP JUMPDEST CALLVALUE SWAP1 GAS CALL SWAP5 DUP6 ISZERO PUSH2 0x41FF JUMPI PUSH1 0x0 SWAP6 PUSH2 0x564A JUMPI JUMPDEST POP PUSH2 0x3921 SWAP4 SWAP3 SWAP2 PUSH2 0x5641 SWAP2 PUSH2 0x133 SLOAD AND ADDRESS SWAP1 CALLER SWAP1 PUSH2 0x4F14 JUMP JUMPDEST ADDRESS SWAP1 CALLER SWAP1 PUSH2 0x4F14 JUMP JUMPDEST SWAP1 SWAP5 PUSH1 0x20 DUP3 RETURNDATASIZE DUP3 GT PUSH2 0x5677 JUMPI JUMPDEST DUP2 PUSH2 0x5664 PUSH1 0x20 SWAP4 DUP4 PUSH2 0x3A0D JUMP JUMPDEST DUP2 ADD SUB SLT PUSH2 0x86E JUMPI POP MLOAD SWAP4 PUSH2 0x3921 PUSH2 0x5628 JUMP JUMPDEST RETURNDATASIZE SWAP2 POP PUSH2 0x5657 JUMP JUMPDEST PUSH1 0x40 MLOAD SWAP1 PUSH2 0x568E PUSH1 0x80 DUP4 PUSH2 0x3A0D JUMP JUMPDEST PUSH1 0x0 PUSH1 0x60 DUP4 DUP3 DUP2 MSTORE DUP3 PUSH1 0x20 DUP3 ADD MSTORE DUP3 PUSH1 0x40 DUP3 ADD MSTORE ADD MSTORE JUMP JUMPDEST SWAP2 SWAP1 DUP3 PUSH1 0xA0 SWAP2 SUB SLT PUSH2 0x77E JUMPI PUSH1 0x40 MLOAD PUSH2 0x56C0 PUSH1 0xA0 DUP3 PUSH2 0x3A0D JUMP JUMPDEST PUSH1 0x80 PUSH2 0x56FE DUP2 DUP4 SWAP6 DUP1 CALLDATALOAD DUP6 MSTORE PUSH1 0x20 DUP2 ADD CALLDATALOAD PUSH1 0x20 DUP7 ADD MSTORE PUSH2 0x56E2 PUSH1 0x40 DUP3 ADD PUSH2 0x38CD JUMP JUMPDEST PUSH1 0x40 DUP7 ADD MSTORE PUSH2 0x56F3 PUSH1 0x60 DUP3 ADD PUSH2 0x38CD JUMP JUMPDEST PUSH1 0x60 DUP7 ADD MSTORE ADD PUSH2 0x38CD JUMP JUMPDEST SWAP2 ADD MSTORE JUMP JUMPDEST SWAP2 SWAP1 PUSH2 0x570E SWAP1 PUSH2 0x422C JUMP JUMPDEST SWAP2 SWAP1 SWAP3 PUSH2 0x571B DUP4 DUP6 PUSH2 0x43E1 JUMP JUMPDEST SWAP1 DUP1 DUP3 GT ISZERO PUSH2 0x5728 JUMPI POP POP JUMP JUMPDEST PUSH1 0x44 SWAP3 POP PUSH1 0x40 MLOAD SWAP2 PUSH4 0x79121201 PUSH1 0xE0 SHL DUP4 MSTORE PUSH1 0x4 DUP4 ADD MSTORE PUSH1 0x24 DUP3 ADD MSTORE REVERT JUMPDEST SWAP3 SWAP1 SWAP4 SWAP2 PUSH1 0x0 SWAP2 PUSH1 0x0 SWAP2 DUP3 SWAP7 PUSH2 0x575A PUSH2 0x567F JUMP JUMPDEST SWAP7 PUSH1 0x1 PUSH1 0x1 PUSH1 0xA0 SHL SUB SWAP2 DUP6 SWAP1 DUP4 AND DUP1 PUSH2 0x5966 JUMPI JUMPDEST POP DUP3 PUSH2 0x12F SLOAD AND DUP4 PUSH1 0x40 MLOAD SWAP4 PUSH4 0x6EB1769F PUSH1 0xE1 SHL DUP6 MSTORE AND DUP1 PUSH1 0x4 DUP6 ADD MSTORE ADDRESS PUSH1 0x24 DUP6 ADD MSTORE PUSH1 0x20 SWAP5 DUP6 DUP6 PUSH1 0x44 DUP2 DUP7 GAS STATICCALL SWAP5 DUP6 ISZERO PUSH2 0x595B JUMPI DUP5 SWAP6 PUSH2 0x592C JUMPI JUMPDEST POP DUP5 PUSH2 0x580B JUMPI JUMPDEST POP POP POP POP POP DUP7 ADD MLOAD ISZERO PUSH2 0x57C7 JUMPI JUMPDEST POP POP POP SWAP3 SWAP2 SWAP1 JUMP JUMPDEST SWAP1 SWAP2 SWAP3 POP PUSH2 0x57DF PUSH8 0xDE0B6B3A7640000 SWAP3 DUP4 SWAP3 PUSH2 0x433D JUMP JUMPDEST DIV DUP1 DUP6 MSTORE SWAP1 DUP3 ISZERO PUSH2 0x5803 JUMPI PUSH2 0x57FB SWAP3 DIV SWAP1 DUP2 PUSH1 0x40 DUP7 ADD MSTORE PUSH2 0x420B JUMP JUMPDEST CODESIZE DUP1 DUP1 PUSH2 0x57BF JUMP JUMPDEST POP SWAP1 POP PUSH2 0x57FB JUMP JUMPDEST PUSH2 0x5819 SWAP1 PUSH2 0x130 SLOAD AND PUSH2 0x45B5 JUMP JUMPDEST SWAP3 SWAP1 SWAP3 ISZERO PUSH2 0x57B1 JUMPI SWAP1 SWAP2 SWAP3 SWAP4 SWAP12 POP DUP5 DUP12 PUSH2 0x5853 DUP6 PUSH8 0xDE0B6B3A7640000 PUSH2 0x584D PUSH2 0x5843 DUP14 DUP14 PUSH2 0x433D JUMP JUMPDEST PUSH2 0x143 SLOAD SWAP1 PUSH2 0x433D JUMP JUMPDEST DIV PUSH2 0x4350 JUMP JUMPDEST DUP2 DUP4 ADD DUP2 DUP2 MSTORE SWAP6 SWAP1 DUP12 ISZERO PUSH2 0x5922 JUMPI POP PUSH2 0x587E SWAP2 PUSH2 0x5872 PUSH1 0x60 SWAP3 DUP14 PUSH2 0x4350 JUMP JUMPDEST SWAP2 DUP3 SWAP2 ADD MSTORE DUP6 MLOAD PUSH2 0x420B JUMP JUMPDEST DUP1 SWAP14 JUMPDEST LT SWAP3 DUP4 ISZERO PUSH2 0x58AD JUMPI JUMPDEST POP POP POP PUSH2 0x589A JUMPI JUMPDEST DUP1 DUP1 DUP1 PUSH2 0x57B1 JUMP JUMPDEST DUP2 SWAP3 SWAP10 POP MSTORE DUP1 PUSH1 0x60 DUP9 ADD MSTORE SWAP7 CODESIZE DUP1 PUSH2 0x5892 JUMP JUMPDEST SWAP1 SWAP2 SWAP3 POP PUSH1 0x24 PUSH1 0x40 MLOAD DUP1 SWAP5 DUP2 SWAP4 PUSH4 0x70A08231 PUSH1 0xE0 SHL DUP4 MSTORE PUSH1 0x4 DUP4 ADD MSTORE GAS STATICCALL SWAP1 DUP2 ISZERO PUSH2 0x5917 JUMPI SWAP1 DUP12 SWAP2 DUP5 SWAP2 PUSH2 0x58E6 JUMPI JUMPDEST POP LT CODESIZE DUP5 DUP2 PUSH2 0x588A JUMP JUMPDEST DUP1 SWAP3 POP DUP6 DUP1 SWAP3 POP RETURNDATASIZE DUP4 GT PUSH2 0x5910 JUMPI JUMPDEST PUSH2 0x58FF DUP2 DUP4 PUSH2 0x3A0D JUMP JUMPDEST DUP2 ADD SUB SLT PUSH2 0x9D5 JUMPI DUP11 SWAP1 MLOAD CODESIZE PUSH2 0x58DC JUMP JUMPDEST POP RETURNDATASIZE PUSH2 0x58F5 JUMP JUMPDEST PUSH1 0x40 MLOAD RETURNDATASIZE DUP6 DUP3 RETURNDATACOPY RETURNDATASIZE SWAP1 REVERT JUMPDEST SWAP2 POP POP DUP1 SWAP14 PUSH2 0x5881 JUMP JUMPDEST SWAP1 SWAP5 POP DUP6 DUP2 DUP2 RETURNDATASIZE DUP4 GT PUSH2 0x5954 JUMPI JUMPDEST PUSH2 0x5944 DUP2 DUP4 PUSH2 0x3A0D JUMP JUMPDEST DUP2 ADD SUB SLT PUSH2 0xACA JUMPI MLOAD SWAP4 CODESIZE PUSH2 0x57AA JUMP JUMPDEST POP RETURNDATASIZE PUSH2 0x593A JUMP JUMPDEST PUSH1 0x40 MLOAD RETURNDATASIZE DUP7 DUP3 RETURNDATACOPY RETURNDATASIZE SWAP1 REVERT JUMPDEST SWAP1 SWAP6 POP PUSH1 0x20 DUP4 PUSH2 0x1C3 SLOAD AND SWAP2 PUSH1 0x24 PUSH1 0x40 MLOAD DUP1 SWAP5 DUP2 SWAP4 PUSH4 0x64A731E9 PUSH1 0xE0 SHL DUP4 MSTORE PUSH1 0x4 DUP4 ADD MSTORE GAS STATICCALL DUP1 ISZERO PUSH2 0x59DE JUMPI DUP7 SWAP1 PUSH2 0x59AB JUMPI JUMPDEST PUSH2 0x59A4 SWAP2 POP DUP5 PUSH2 0x433D JUMP JUMPDEST SWAP5 CODESIZE PUSH2 0x576E JUMP JUMPDEST POP PUSH1 0x20 DUP2 RETURNDATASIZE DUP3 GT PUSH2 0x59D6 JUMPI JUMPDEST DUP2 PUSH2 0x59C4 PUSH1 0x20 SWAP4 DUP4 PUSH2 0x3A0D JUMP JUMPDEST DUP2 ADD SUB SLT PUSH2 0x2ACD JUMPI PUSH2 0x59A4 SWAP1 MLOAD PUSH2 0x5999 JUMP JUMPDEST RETURNDATASIZE SWAP2 POP PUSH2 0x59B7 JUMP JUMPDEST PUSH1 0x40 MLOAD RETURNDATASIZE DUP9 DUP3 RETURNDATACOPY RETURNDATASIZE SWAP1 REVERT JUMPDEST SWAP3 PUSH2 0x3960 SWAP5 SWAP2 SWAP3 SWAP4 DUP3 MLOAD ISZERO ISZERO PUSH1 0x0 EQ PUSH2 0x5A59 JUMPI POP PUSH1 0x40 PUSH2 0x5A54 SWAP3 PUSH2 0x5A4C PUSH8 0xDE0B6B3A7640000 PUSH2 0x5A1E PUSH2 0x13B SLOAD DUP5 MLOAD SWAP1 PUSH2 0x433D JUMP JUMPDEST DIV PUSH2 0x131 PUSH2 0x5A2D DUP3 DUP3 SLOAD PUSH2 0x420B JUMP JUMPDEST SWAP1 SSTORE PUSH2 0x5A46 PUSH1 0x1 DUP1 PUSH1 0xA0 SHL SUB PUSH2 0x146 SLOAD AND SWAP2 DUP5 MLOAD PUSH2 0x4130 JUMP JUMPDEST SWAP1 PUSH2 0x3FDA JUMP JUMPDEST ADD MLOAD SWAP1 PUSH2 0x3FDA JUMP JUMPDEST PUSH2 0x3FDA JUMP JUMPDEST SWAP1 PUSH1 0x60 PUSH2 0x5A54 SWAP4 PUSH2 0x5A7B PUSH1 0x1 DUP1 PUSH1 0xA0 SHL SUB PUSH2 0x146 SLOAD AND PUSH1 0x20 DUP4 ADD MLOAD SWAP1 DUP7 PUSH2 0x5A7F JUMP JUMPDEST ADD MLOAD SWAP2 JUMPDEST SWAP2 SWAP1 DUP2 PUSH2 0x5A8B JUMPI POP POP POP JUMP JUMPDEST PUSH2 0x12F SLOAD PUSH2 0x3960 SWAP4 SWAP1 PUSH1 0x1 PUSH1 0x1 PUSH1 0xA0 SHL SUB AND PUSH2 0x4F14 JUMP JUMPDEST SWAP2 SWAP1 DUP3 PUSH1 0xC0 SWAP2 SUB SLT PUSH2 0x77E JUMPI PUSH1 0x40 MLOAD PUSH2 0x5ABC PUSH1 0xC0 DUP3 PUSH2 0x3A0D JUMP JUMPDEST PUSH1 0xA0 PUSH2 0x56FE DUP2 DUP4 SWAP6 PUSH2 0x5ACD DUP2 PUSH2 0x38CD JUMP JUMPDEST DUP6 MSTORE PUSH1 0x20 DUP2 ADD CALLDATALOAD PUSH1 0x20 DUP7 ADD MSTORE PUSH1 0x40 DUP2 ADD CALLDATALOAD PUSH1 0x40 DUP7 ADD MSTORE PUSH2 0x5AEF PUSH1 0x60 DUP3 ADD PUSH2 0x38CD JUMP JUMPDEST PUSH1 0x60 DUP7 ADD MSTORE PUSH2 0x5B00 PUSH1 0x80 DUP3 ADD PUSH2 0x38CD JUMP JUMPDEST PUSH1 0x80 DUP7 ADD MSTORE ADD PUSH2 0x38CD JUMP JUMPDEST SWAP1 PUSH2 0x5B18 SWAP5 SWAP4 SWAP3 SWAP2 PUSH2 0x4B02 JUMP JUMPDEST PUSH1 0x0 DUP2 SLT PUSH2 0x4BDF JUMPI SWAP1 JUMP JUMPDEST DUP1 PUSH2 0x5B2C PUSH2 0x46FE JUMP JUMPDEST SWAP2 SWAP1 SWAP4 PUSH2 0x5B39 PUSH1 0x0 PUSH2 0x4655 JUMP JUMPDEST SWAP5 ADD SWAP4 DUP3 SWAP2 PUSH2 0x5BD1 JUMPI JUMPDEST ADD SWAP4 DUP5 PUSH1 0x0 DUP1 DUP3 SLT PUSH2 0x5BCB JUMPI POP JUMPDEST DUP5 SUB SWAP2 DUP2 DUP6 GT PUSH2 0x5B93 JUMPI POP POP DUP2 DUP2 GT PUSH2 0x5B75 JUMPI POP POP PUSH2 0x155 SSTORE PUSH2 0x156 SSTORE NUMBER PUSH2 0x157 SSTORE JUMP JUMPDEST PUSH1 0x44 SWAP3 POP PUSH1 0x40 MLOAD SWAP2 PUSH4 0x6DA41E5 PUSH1 0xE1 SHL DUP4 MSTORE PUSH1 0x4 DUP4 ADD MSTORE PUSH1 0x24 DUP3 ADD MSTORE REVERT JUMPDEST SWAP1 DUP1 DUP6 SWAP3 GT PUSH2 0x5BB9 JUMPI PUSH1 0x44 SWAP2 PUSH1 0x40 MLOAD SWAP2 PUSH4 0x6DA41E5 PUSH1 0xE1 SHL DUP4 MSTORE PUSH1 0x4 DUP4 ADD MSTORE PUSH1 0x24 DUP3 ADD MSTORE REVERT JUMPDEST PUSH1 0x40 MLOAD PUSH4 0xFB4FD35 PUSH1 0xE1 SHL DUP2 MSTORE PUSH1 0x4 SWAP1 REVERT JUMPDEST SUB PUSH2 0x5B51 JUMP JUMPDEST SWAP1 POP DUP2 PUSH1 0x0 SUB SWAP1 PUSH2 0x5B43 JUMP JUMPDEST DUP1 SWAP2 SUB PUSH1 0xE0 DUP2 SLT PUSH2 0x77E JUMPI DUP2 MLOAD SWAP3 PUSH1 0x20 DUP4 ADD MLOAD SWAP3 PUSH1 0x80 PUSH1 0x40 DUP3 ADD MLOAD SWAP4 PUSH1 0x5F NOT ADD SLT PUSH2 0x77E JUMPI PUSH1 0xC0 PUSH1 0x40 MLOAD SWAP2 PUSH2 0x5C13 PUSH1 0x80 DUP5 PUSH2 0x3A0D JUMP JUMPDEST PUSH1 0x60 DUP2 ADD MLOAD DUP4 MSTORE PUSH1 0x80 DUP2 ADD MLOAD PUSH1 0x20 DUP5 ADD MSTORE PUSH1 0xA0 DUP2 ADD MLOAD PUSH1 0x40 DUP5 ADD MSTORE ADD MLOAD PUSH1 0x60 DUP3 ADD MSTORE SWAP1 JUMP JUMPDEST SWAP2 SWAP1 DUP3 PUSH1 0xE0 SWAP2 SUB SLT PUSH2 0x77E JUMPI PUSH1 0x40 MLOAD PUSH2 0x5C52 PUSH1 0xE0 DUP3 PUSH2 0x3A0D JUMP JUMPDEST PUSH1 0xC0 PUSH2 0x56FE DUP2 DUP4 SWAP6 PUSH2 0x5C63 DUP2 PUSH2 0x38CD JUMP JUMPDEST DUP6 MSTORE PUSH1 0x20 DUP2 ADD CALLDATALOAD PUSH1 0x20 DUP7 ADD MSTORE PUSH1 0x40 DUP2 ADD CALLDATALOAD PUSH1 0x40 DUP7 ADD MSTORE PUSH1 0x60 DUP2 ADD CALLDATALOAD PUSH1 0x60 DUP7 ADD MSTORE PUSH2 0x5C8F PUSH1 0x80 DUP3 ADD PUSH2 0x38CD JUMP JUMPDEST PUSH1 0x80 DUP7 ADD MSTORE PUSH2 0x5CA0 PUSH1 0xA0 DUP3 ADD PUSH2 0x38CD JUMP JUMPDEST PUSH1 0xA0 DUP7 ADD MSTORE ADD PUSH2 0x38CD JUMP JUMPDEST PUSH1 0x40 MLOAD PUSH4 0xA9059CBB PUSH1 0xE0 SHL PUSH1 0x20 DUP3 ADD MSTORE PUSH1 0x1 PUSH1 0x1 PUSH1 0xA0 SHL SUB SWAP1 SWAP3 AND PUSH1 0x24 DUP4 ADD MSTORE PUSH1 0x44 DUP3 ADD SWAP3 SWAP1 SWAP3 MSTORE PUSH2 0x3960 SWAP2 PUSH2 0x402C DUP3 PUSH1 0x64 DUP2 ADD PUSH2 0x401E JUMP JUMPDEST PUSH1 0x97 SLOAD PUSH1 0x40 MLOAD PUSH4 0xD994D6D5 PUSH1 0xE0 SHL DUP2 MSTORE CALLER PUSH1 0x4 DUP3 ADD MSTORE SWAP1 PUSH1 0x20 SWAP1 DUP3 SWAP1 PUSH1 0x24 SWAP1 DUP3 SWAP1 PUSH1 0x1 PUSH1 0x1 PUSH1 0xA0 SHL SUB AND GAS STATICCALL SWAP1 DUP2 ISZERO PUSH2 0x41FF JUMPI PUSH1 0x0 SWAP2 PUSH2 0x5D39 JUMPI JUMPDEST POP ISZERO PUSH2 0x5D27 JUMPI JUMP JUMPDEST PUSH1 0x40 MLOAD PUSH4 0x1DD1B1B5 PUSH1 0xE2 SHL DUP2 MSTORE PUSH1 0x4 SWAP1 REVERT JUMPDEST SWAP1 PUSH1 0x20 DUP3 RETURNDATASIZE DUP3 GT PUSH2 0x5D6A JUMPI JUMPDEST DUP2 PUSH2 0x5D52 PUSH1 0x20 SWAP4 DUP4 PUSH2 0x3A0D JUMP JUMPDEST DUP2 ADD SUB SLT PUSH2 0x86E JUMPI POP PUSH2 0x5D64 SWAP1 PUSH2 0x4031 JUMP JUMPDEST CODESIZE PUSH2 0x5D1F JUMP JUMPDEST RETURNDATASIZE SWAP2 POP PUSH2 0x5D45 JUMP JUMPDEST PUSH1 0xFF PUSH1 0xCA SLOAD PUSH1 0x8 SHR AND PUSH2 0x5D81 JUMPI JUMP JUMPDEST PUSH1 0x40 MLOAD PUSH4 0x783BB6C9 PUSH1 0xE1 SHL DUP2 MSTORE PUSH1 0x4 SWAP1 REVERT JUMPDEST SWAP1 PUSH8 0xDE0B6B3A7640000 SWAP2 DUP3 DUP2 MUL SWAP3 DUP2 DUP5 DIV EQ SWAP1 ISZERO OR ISZERO PUSH2 0x413D JUMPI PUSH2 0x3921 SWAP2 PUSH2 0x4350 JUMP JUMPDEST PUSH8 0xDE0B6B3A7640000 LT PUSH2 0x5DC7 JUMPI JUMP JUMPDEST PUSH1 0x40 MLOAD PUSH4 0x2A9FFAB7 PUSH1 0xE2 SHL DUP2 MSTORE PUSH1 0x4 SWAP1 REVERT INVALID LOG2 PUSH5 0x6970667358 0x22 SLT KECCAK256 PUSH32 0xA5D2256168BF228CBE64D274E95B79A1A6E9F35F29AD3442EC059BD3FD954364 PUSH20 0x6F6C634300081400330000000000000000000000 "
    },
    "gasEstimates": {
      "creation": {
        "codeDepositCost": "4815800",
        "executionCost": "infinite",
        "totalCost": "infinite"
      },
      "external": {
        "absoluteAccumulator()": "5243",
        "acToken()": "2756",
        "addPeggedToken((address,address,uint256,uint256,uint256,uint256,uint256))": "infinite",
        "appreciationFactor()": "5771",
        "bes()": "3307",
        "bns()": "2581",
        "calcCtargemaCA()": "infinite",
        "changeGovernor(address)": "infinite",
        "decayBlockSpan()": "3879",
        "differentialAccumulator()": "4011",
        "editPeggedToken((address,address,uint256,uint256,uint256,uint256,uint256))": "infinite",
        "emaCalculationBlockSpan()": "4121",
        "evalLiquidation()": "infinite",
        "execMintTC((uint256,uint256,address,address,address))": "infinite",
        "execMintTCandTP((address,uint256,uint256,address,address,address))": "infinite",
        "execMintTP((address,uint256,uint256,address,address,address))": "infinite",
        "execRedeemTC((uint256,uint256,address,address,address))": "infinite",
        "execRedeemTCandTP((address,uint256,uint256,uint256,address,address,address))": "infinite",
        "execRedeemTP((address,uint256,uint256,address,address,address))": "infinite",
        "execSettlement()": "infinite",
        "execSwapTCforTP((address,uint256,uint256,uint256,address,address,address))": "infinite",
        "execSwapTPforTC((address,uint256,uint256,uint256,address,address,address))": "infinite",
        "execSwapTPforTP((address,address,uint256,uint256,uint256,address,address,address))": "infinite",
        "feeRetainer()": "3351",
        "feeToken()": "3768",
        "feeTokenPct()": "2867",
        "feeTokenPriceProvider()": "5638",
        "getBts()": "5668",
        "getCglb()": "infinite",
        "getCustomMockValue()": "5700",
        "getLckAC()": "infinite",
        "getLeverageTC()": "infinite",
        "getPACtp(address)": "infinite",
        "getPTCac()": "infinite",
        "getTCAvailableToRedeem()": "infinite",
        "getTPAvailableToMint(address)": "infinite",
        "getTotalACavailable()": "infinite",
        "getTpAmount()": "5859",
        "governor()": "2404",
        "initialize((((address,address,address,address,address,address,uint256,uint256,uint256,uint256,uint256,uint256,uint256,uint256,uint256,uint256,uint256,uint256,uint256,uint256,address,uint256,uint256,address,address,uint256),address,address,address,uint256,address),address))": "infinite",
        "initializeMock()": "23635",
        "isLiquidationReached()": "infinite",
        "lastOperationBlockNumber()": "3549",
        "liqEnabled()": "5541",
        "liqRedeemTP(address)": "infinite",
        "liqRedeemTPto(address,address)": "infinite",
        "liqThrld()": "4451",
        "liquidated()": "2709",
        "makeStoppable()": "infinite",
        "makeUnstoppable()": "infinite",
        "maxAbsoluteOpProvider()": "5616",
        "maxOpDiffProvider()": "4912",
        "maxQACToMintTP()": "infinite",
        "maxQACToRedeemTP()": "infinite",
        "mintTC(uint256,uint256)": "infinite",
        "mintTCViaVendor(uint256,uint256,address)": "infinite",
        "mintTCandTP(address,uint256,uint256)": "infinite",
        "mintTCandTPFee()": "4055",
        "mintTCandTPViaVendor(address,uint256,uint256,address)": "infinite",
        "mintTCandTPto(address,uint256,uint256,address)": "infinite",
        "mintTCandTPtoViaVendor(address,uint256,uint256,address,address)": "infinite",
        "mintTCto(uint256,uint256,address)": "infinite",
        "mintTCtoViaVendor(uint256,uint256,address,address)": "infinite",
        "mintTP(address,uint256,uint256)": "infinite",
        "mintTPViaVendor(address,uint256,uint256,address)": "infinite",
        "mintTPto(address,uint256,uint256,address)": "infinite",
        "mintTPtoViaVendor(address,uint256,uint256,address,address)": "infinite",
        "mocAppreciationBeneficiaryAddress()": "3350",
        "mocFeeFlowAddress()": "4560",
        "mocQueue()": "2536",
        "mocVendors()": "4252",
        "nACcb()": "5705",
        "nTCcb()": "4077",
        "newVariable()": "4473",
        "nextEmaCalculation()": "2405",
        "nextTCInterestPayment()": "4935",
        "pause()": "29695",
        "paused()": "3633",
        "pauser()": "4701",
        "pegContainer(uint256)": "9784",
        "peggedTokenIndex(address)": "6898",
        "protThrld()": "3857",
        "proxiableUUID()": "infinite",
        "qACLockedInPending()": "3637",
        "redeemTC(uint256,uint256)": "infinite",
        "redeemTCViaVendor(uint256,uint256,address)": "infinite",
        "redeemTCandTP(address,uint256,uint256,uint256)": "infinite",
        "redeemTCandTPFee()": "5727",
        "redeemTCandTPViaVendor(address,uint256,uint256,uint256,address)": "infinite",
        "redeemTCandTPto(address,uint256,uint256,uint256,address)": "infinite",
        "redeemTCandTPtoViaVendor(address,uint256,uint256,uint256,address,address)": "infinite",
        "redeemTCto(uint256,uint256,address)": "infinite",
        "redeemTCtoViaVendor(uint256,uint256,address,address)": "infinite",
        "redeemTP(address,uint256,uint256)": "infinite",
        "redeemTPViaVendor(address,uint256,uint256,address)": "infinite",
        "redeemTPto(address,uint256,uint256,address)": "infinite",
        "redeemTPtoViaVendor(address,uint256,uint256,address,address)": "infinite",
        "refreshACBalance()": "infinite",
        "setAppreciationFactor(uint256)": "infinite",
        "setBes(uint256)": "infinite",
        "setDecayBlockSpan(uint256)": "infinite",
        "setEmaCalculationBlockSpan(uint256)": "infinite",
        "setFeeRetainer(uint256)": "infinite",
        "setFeeTokenAddress(address)": "infinite",
        "setFeeTokenPct(uint256)": "infinite",
        "setFeeTokenPriceProviderAddress(address)": "infinite",
        "setLiqEnabled(bool)": "infinite",
        "setLiqThrld(uint256)": "infinite",
        "setMaxAbsoluteOpProviderAddress(address)": "infinite",
        "setMaxOpDiffProviderAddress(address)": "infinite",
        "setMintTCandTPFee(uint256)": "infinite",
        "setMocAppreciationBeneficiaryAddress(address)": "infinite",
        "setMocCoreExpansion(address)": "infinite",
        "setMocFeeFlowAddress(address)": "infinite",
        "setMocQueue(address)": "infinite",
        "setMocVendors(address)": "infinite",
        "setPauser(address)": "infinite",
        "setProtThrld(uint256)": "infinite",
        "setRedeemTCandTPFee(uint256)": "infinite",
        "setSuccessFee(uint256)": "infinite",
        "setSwapTCforTPFee(uint256)": "infinite",
        "setSwapTPforTCFee(uint256)": "infinite",
        "setSwapTPforTPFee(uint256)": "infinite",
        "setTCInterestCollectorAddress(address)": "infinite",
        "setTCInterestPaymentBlockSpan(uint256)": "infinite",
        "setTCInterestRate(uint256)": "infinite",
        "setTcMintFee(uint256)": "infinite",
        "setTcRedeemFee(uint256)": "infinite",
        "shouldCalculateEma()": "4723",
        "stoppable()": "4969",
        "successFee()": "3989",
        "swapTCforTP(address,uint256,uint256,uint256)": "infinite",
        "swapTCforTPFee()": "2779",
        "swapTCforTPViaVendor(address,uint256,uint256,uint256,address)": "infinite",
        "swapTCforTPto(address,uint256,uint256,uint256,address)": "infinite",
        "swapTCforTPtoViaVendor(address,uint256,uint256,uint256,address,address)": "infinite",
        "swapTPforTC(address,uint256,uint256,uint256)": "infinite",
        "swapTPforTCFee()": "2889",
        "swapTPforTCViaVendor(address,uint256,uint256,uint256,address)": "infinite",
        "swapTPforTCto(address,uint256,uint256,uint256,address)": "infinite",
        "swapTPforTCtoViaVendor(address,uint256,uint256,uint256,address,address)": "infinite",
        "swapTPforTP(address,address,uint256,uint256,uint256)": "infinite",
        "swapTPforTPFee()": "3131",
        "swapTPforTPViaVendor(address,address,uint256,uint256,uint256,address)": "infinite",
        "swapTPforTPto(address,address,uint256,uint256,uint256,address)": "infinite",
        "swapTPforTPtoViaVendor(address,address,uint256,uint256,uint256,address,address)": "infinite",
        "tcHoldersInterestPayment()": "infinite",
        "tcInterestCollectorAddress()": "4516",
        "tcInterestPaymentBlockSpan()": "4275",
        "tcInterestRate()": "2449",
        "tcMintFee()": "5837",
        "tcRedeemFee()": "4825",
        "tcToken()": "3724",
        "tpCtarg(uint256)": "8575",
        "tpEma(uint256)": "11985",
        "tpLiqPrices(uint256)": "7343",
        "tpMintFees(address)": "2825",
        "tpRedeemFees(address)": "5443",
        "tpTokens(uint256)": "6679",
        "unlockACInPending(address,uint256)": "infinite",
        "unlockTCInPending(address,uint256)": "infinite",
        "unlockTPInPending(address,address,uint256)": "infinite",
        "unpause()": "26289",
        "updateEmas()": "infinite",
        "upgradeTo(address)": "infinite",
        "upgradeToAndCall(address,bytes)": "infinite"
      }
    },
    "methodIdentifiers": {
      "absoluteAccumulator()": "d87aab6f",
      "acToken()": "25bc6c41",
      "addPeggedToken((address,address,uint256,uint256,uint256,uint256,uint256))": "db796072",
      "appreciationFactor()": "fa6e83bd",
      "bes()": "4d977e78",
      "bns()": "1867e2f5",
      "calcCtargemaCA()": "662013f4",
      "changeGovernor(address)": "e4c0aaf4",
      "decayBlockSpan()": "6f30471f",
      "differentialAccumulator()": "76228055",
      "editPeggedToken((address,address,uint256,uint256,uint256,uint256,uint256))": "f26114aa",
      "emaCalculationBlockSpan()": "7a727fe8",
      "evalLiquidation()": "33421c38",
      "execMintTC((uint256,uint256,address,address,address))": "235e81cf",
      "execMintTCandTP((address,uint256,uint256,address,address,address))": "883d21cb",
      "execMintTP((address,uint256,uint256,address,address,address))": "b4434c32",
      "execRedeemTC((uint256,uint256,address,address,address))": "bfe42621",
      "execRedeemTCandTP((address,uint256,uint256,uint256,address,address,address))": "d8c69aec",
      "execRedeemTP((address,uint256,uint256,address,address,address))": "ad4e666d",
      "execSettlement()": "5c616a73",
      "execSwapTCforTP((address,uint256,uint256,uint256,address,address,address))": "4af3a6fc",
      "execSwapTPforTC((address,uint256,uint256,uint256,address,address,address))": "bc4e55b2",
      "execSwapTPforTP((address,address,uint256,uint256,uint256,address,address,address))": "391bf6cf",
      "feeRetainer()": "4f0f27ee",
      "feeToken()": "647846a5",
      "feeTokenPct()": "2ded50f0",
      "feeTokenPriceProvider()": "f13f4054",
      "getBts()": "e8859a15",
      "getCglb()": "826fcd58",
      "getCustomMockValue()": "57271f4d",
      "getLckAC()": "8f1a383a",
      "getLeverageTC()": "c039cc69",
      "getPACtp(address)": "fadda424",
      "getPTCac()": "1fb0dda0",
      "getTCAvailableToRedeem()": "4017936a",
      "getTPAvailableToMint(address)": "f88b1434",
      "getTotalACavailable()": "de8d520a",
      "getTpAmount()": "fe6b92c1",
      "governor()": "0c340a24",
      "initialize((((address,address,address,address,address,address,uint256,uint256,uint256,uint256,uint256,uint256,uint256,uint256,uint256,uint256,uint256,uint256,uint256,uint256,address,uint256,uint256,address,address,uint256),address,address,address,uint256,address),address))": "60a01dfa",
      "initializeMock()": "5e2a6065",
      "isLiquidationReached()": "9ad6659d",
      "lastOperationBlockNumber()": "5860ee63",
      "liqEnabled()": "e7c25978",
      "liqRedeemTP(address)": "17937f9b",
      "liqRedeemTPto(address,address)": "9bea71a4",
      "liqThrld()": "8cfa4241",
      "liquidated()": "23b98cde",
      "makeStoppable()": "68274357",
      "makeUnstoppable()": "5210570c",
      "maxAbsoluteOpProvider()": "ee1f438f",
      "maxOpDiffProvider()": "b5e9ea8c",
      "maxQACToMintTP()": "d6af11da",
      "maxQACToRedeemTP()": "7f13b998",
      "mintTC(uint256,uint256)": "0bb7f608",
      "mintTCViaVendor(uint256,uint256,address)": "ffe31539",
      "mintTCandTP(address,uint256,uint256)": "44719ee9",
      "mintTCandTPFee()": "79f9a91c",
      "mintTCandTPViaVendor(address,uint256,uint256,address)": "98b2086f",
      "mintTCandTPto(address,uint256,uint256,address)": "c239fca4",
      "mintTCandTPtoViaVendor(address,uint256,uint256,address,address)": "d76dc7fd",
      "mintTCto(uint256,uint256,address)": "4310adc6",
      "mintTCtoViaVendor(uint256,uint256,address,address)": "fed0ade4",
      "mintTP(address,uint256,uint256)": "484ad7cd",
      "mintTPViaVendor(address,uint256,uint256,address)": "f2f9f456",
      "mintTPto(address,uint256,uint256,address)": "aaf925f6",
      "mintTPtoViaVendor(address,uint256,uint256,address,address)": "9fd8ed0e",
      "mocAppreciationBeneficiaryAddress()": "4e1f907a",
      "mocFeeFlowAddress()": "9853c35a",
      "mocQueue()": "13ed7ba5",
      "mocVendors()": "7f01c715",
      "nACcb()": "f30b5614",
      "nTCcb()": "7a193c31",
      "newVariable()": "8d7a72f3",
      "nextEmaCalculation()": "0c36d897",
      "nextTCInterestPayment()": "b9fa6413",
      "pause()": "8456cb59",
      "paused()": "5c975abb",
      "pauser()": "9fd0506d",
      "pegContainer(uint256)": "4b746001",
      "peggedTokenIndex(address)": "9cabfc00",
      "protThrld()": "6b5488df",
      "proxiableUUID()": "52d1902d",
      "qACLockedInPending()": "5cfbe578",
      "redeemTC(uint256,uint256)": "9abb14c9",
      "redeemTCViaVendor(uint256,uint256,address)": "471a80e3",
      "redeemTCandTP(address,uint256,uint256,uint256)": "34246862",
      "redeemTCandTPFee()": "f375cfba",
      "redeemTCandTPViaVendor(address,uint256,uint256,uint256,address)": "aeb41e69",
      "redeemTCandTPto(address,uint256,uint256,uint256,address)": "fd80fa77",
      "redeemTCandTPtoViaVendor(address,uint256,uint256,uint256,address,address)": "5ece17ef",
      "redeemTCto(uint256,uint256,address)": "e4012945",
      "redeemTCtoViaVendor(uint256,uint256,address,address)": "3dbc50a9",
      "redeemTP(address,uint256,uint256)": "466b8934",
      "redeemTPViaVendor(address,uint256,uint256,address)": "8acc2011",
      "redeemTPto(address,uint256,uint256,address)": "52e18f8f",
      "redeemTPtoViaVendor(address,uint256,uint256,address,address)": "89fd503e",
      "refreshACBalance()": "e23c135c",
      "setAppreciationFactor(uint256)": "01dde6ef",
      "setBes(uint256)": "c84353c9",
      "setDecayBlockSpan(uint256)": "73e28af9",
      "setEmaCalculationBlockSpan(uint256)": "3bc4ac0a",
      "setFeeRetainer(uint256)": "7750ba0c",
      "setFeeTokenAddress(address)": "cf351c1d",
      "setFeeTokenPct(uint256)": "543aeb48",
      "setFeeTokenPriceProviderAddress(address)": "0f1e5e2b",
      "setLiqEnabled(bool)": "1fe6a7ad",
      "setLiqThrld(uint256)": "2c43bd3b",
      "setMaxAbsoluteOpProviderAddress(address)": "d8db6f5a",
      "setMaxOpDiffProviderAddress(address)": "85bf9593",
      "setMintTCandTPFee(uint256)": "2069f753",
      "setMocAppreciationBeneficiaryAddress(address)": "27eab2a1",
      "setMocCoreExpansion(address)": "e6a683e0",
      "setMocFeeFlowAddress(address)": "0d6ac463",
      "setMocQueue(address)": "3cfb09ef",
      "setMocVendors(address)": "533a4bea",
      "setPauser(address)": "2d88af4a",
      "setProtThrld(uint256)": "7cba2383",
      "setRedeemTCandTPFee(uint256)": "7a4ff1d9",
      "setSuccessFee(uint256)": "becaca6b",
      "setSwapTCforTPFee(uint256)": "7af5758c",
      "setSwapTPforTCFee(uint256)": "0e0a8fd2",
      "setSwapTPforTPFee(uint256)": "70713468",
      "setTCInterestCollectorAddress(address)": "735d3960",
      "setTCInterestPaymentBlockSpan(uint256)": "073763b9",
      "setTCInterestRate(uint256)": "64ec230a",
      "setTcMintFee(uint256)": "f2808778",
      "setTcRedeemFee(uint256)": "c00f538d",
      "shouldCalculateEma()": "a8e9ac30",
      "stoppable()": "bb4872de",
      "successFee()": "7554fffd",
      "swapTCforTP(address,uint256,uint256,uint256)": "b85edd65",
      "swapTCforTPFee()": "2a20d57d",
      "swapTCforTPViaVendor(address,uint256,uint256,uint256,address)": "aaf91eff",
      "swapTCforTPto(address,uint256,uint256,uint256,address)": "842d5748",
      "swapTCforTPtoViaVendor(address,uint256,uint256,uint256,address,address)": "2b764fad",
      "swapTPforTC(address,uint256,uint256,uint256)": "ac0c88ab",
      "swapTPforTCFee()": "333431fd",
      "swapTPforTCViaVendor(address,uint256,uint256,uint256,address)": "74873ad3",
      "swapTPforTCto(address,uint256,uint256,uint256,address)": "ea302a97",
      "swapTPforTCtoViaVendor(address,uint256,uint256,uint256,address,address)": "15266e36",
      "swapTPforTP(address,address,uint256,uint256,uint256)": "c09c30bd",
      "swapTPforTPFee()": "407f0e34",
      "swapTPforTPViaVendor(address,address,uint256,uint256,uint256,address)": "7b21b274",
      "swapTPforTPto(address,address,uint256,uint256,uint256,address)": "e3867eeb",
      "swapTPforTPtoViaVendor(address,address,uint256,uint256,uint256,address,address)": "68f015df",
      "tcHoldersInterestPayment()": "0579188f",
      "tcInterestCollectorAddress()": "8e2bdb86",
      "tcInterestPaymentBlockSpan()": "7f4a4fe0",
      "tcInterestRate()": "0db49656",
      "tcMintFee()": "fda70f8b",
      "tcRedeemFee()": "aea038dc",
      "tcToken()": "60009e0b",
      "tpCtarg(uint256)": "7d8e0314",
      "tpEma(uint256)": "e6b1627c",
      "tpLiqPrices(uint256)": "3915edcb",
      "tpMintFees(address)": "24ffaba3",
      "tpRedeemFees(address)": "ddb6d190",
      "tpTokens(uint256)": "01f1b684",
      "unlockACInPending(address,uint256)": "58f32de9",
      "unlockTCInPending(address,uint256)": "53b16d17",
      "unlockTPInPending(address,address,uint256)": "e2c5e990",
      "unpause()": "3f4ba83a",
      "updateEmas()": "d1a0faa0",
      "upgradeTo(address)": "3659cfe6",
      "upgradeToAndCall(address,bytes)": "4f1ef286"
    }
  },
  "storageLayout": {
    "storage": [
      {
        "astId": 950,
        "contract": "contracts/mocks/upgradeability/MocUpgradeMocks.sol:MocCARC20Mock",
        "label": "_initialized",
        "offset": 0,
        "slot": "0",
        "type": "t_uint8"
      },
      {
        "astId": 953,
        "contract": "contracts/mocks/upgradeability/MocUpgradeMocks.sol:MocCARC20Mock",
        "label": "_initializing",
        "offset": 1,
        "slot": "0",
        "type": "t_bool"
      },
      {
        "astId": 932,
        "contract": "contracts/mocks/upgradeability/MocUpgradeMocks.sol:MocCARC20Mock",
        "label": "__gap",
        "offset": 0,
        "slot": "1",
        "type": "t_array(t_uint256)50_storage"
      },
      {
        "astId": 1247,
        "contract": "contracts/mocks/upgradeability/MocUpgradeMocks.sol:MocCARC20Mock",
        "label": "__gap",
        "offset": 0,
        "slot": "51",
        "type": "t_array(t_uint256)50_storage"
      },
      {
        "astId": 29903,
        "contract": "contracts/mocks/upgradeability/MocUpgradeMocks.sol:MocCARC20Mock",
        "label": "__gap",
        "offset": 0,
        "slot": "101",
        "type": "t_array(t_uint256)50_storage"
      },
      {
        "astId": 22000,
        "contract": "contracts/mocks/upgradeability/MocUpgradeMocks.sol:MocCARC20Mock",
        "label": "governor",
        "offset": 0,
        "slot": "151",
        "type": "t_contract(IGovernor)22849"
      },
      {
        "astId": 22071,
        "contract": "contracts/mocks/upgradeability/MocUpgradeMocks.sol:MocCARC20Mock",
        "label": "__gap",
        "offset": 0,
        "slot": "152",
        "type": "t_array(t_uint256)50_storage"
      },
      {
        "astId": 22140,
        "contract": "contracts/mocks/upgradeability/MocUpgradeMocks.sol:MocCARC20Mock",
        "label": "stoppable",
        "offset": 0,
        "slot": "202",
        "type": "t_bool"
      },
      {
        "astId": 22142,
        "contract": "contracts/mocks/upgradeability/MocUpgradeMocks.sol:MocCARC20Mock",
        "label": "_paused",
        "offset": 1,
        "slot": "202",
        "type": "t_bool"
      },
      {
        "astId": 22144,
        "contract": "contracts/mocks/upgradeability/MocUpgradeMocks.sol:MocCARC20Mock",
        "label": "pauser",
        "offset": 2,
        "slot": "202",
        "type": "t_address"
      },
      {
        "astId": 22303,
        "contract": "contracts/mocks/upgradeability/MocUpgradeMocks.sol:MocCARC20Mock",
        "label": "__gap",
        "offset": 0,
        "slot": "203",
        "type": "t_array(t_uint256)50_storage"
      },
      {
        "astId": 22122,
        "contract": "contracts/mocks/upgradeability/MocUpgradeMocks.sol:MocCARC20Mock",
        "label": "__gap",
        "offset": 0,
        "slot": "253",
        "type": "t_array(t_uint256)50_storage"
      },
      {
        "astId": 11581,
        "contract": "contracts/mocks/upgradeability/MocUpgradeMocks.sol:MocCARC20Mock",
        "label": "feeToken",
        "offset": 0,
        "slot": "303",
        "type": "t_contract(IERC20)6209"
      },
      {
        "astId": 11584,
        "contract": "contracts/mocks/upgradeability/MocUpgradeMocks.sol:MocCARC20Mock",
        "label": "feeTokenPriceProvider",
        "offset": 0,
        "slot": "304",
        "type": "t_contract(IPriceProvider)22887"
      },
      {
        "astId": 11586,
        "contract": "contracts/mocks/upgradeability/MocUpgradeMocks.sol:MocCARC20Mock",
        "label": "nACcb",
        "offset": 0,
        "slot": "305",
        "type": "t_uint256"
      },
      {
        "astId": 11588,
        "contract": "contracts/mocks/upgradeability/MocUpgradeMocks.sol:MocCARC20Mock",
        "label": "nACioucb",
        "offset": 0,
        "slot": "306",
        "type": "t_uint256"
      },
      {
        "astId": 11591,
        "contract": "contracts/mocks/upgradeability/MocUpgradeMocks.sol:MocCARC20Mock",
        "label": "tcToken",
        "offset": 0,
        "slot": "307",
        "type": "t_contract(MocTC)29728"
      },
      {
        "astId": 11593,
        "contract": "contracts/mocks/upgradeability/MocUpgradeMocks.sol:MocCARC20Mock",
        "label": "nTCcb",
        "offset": 0,
        "slot": "308",
        "type": "t_uint256"
      },
      {
        "astId": 11597,
        "contract": "contracts/mocks/upgradeability/MocUpgradeMocks.sol:MocCARC20Mock",
        "label": "tpTokens",
        "offset": 0,
        "slot": "309",
        "type": "t_array(t_contract(IMocRC20)22875)dyn_storage"
      },
      {
        "astId": 11602,
        "contract": "contracts/mocks/upgradeability/MocUpgradeMocks.sol:MocCARC20Mock",
        "label": "peggedTokenIndex",
        "offset": 0,
        "slot": "310",
        "type": "t_mapping(t_address,t_struct(PeggedTokenIndex)11525_storage)"
      },
      {
        "astId": 11606,
        "contract": "contracts/mocks/upgradeability/MocUpgradeMocks.sol:MocCARC20Mock",
        "label": "pegContainer",
        "offset": 0,
        "slot": "311",
        "type": "t_array(t_struct(PegContainerItem)11520_storage)dyn_storage"
      },
      {
        "astId": 11609,
        "contract": "contracts/mocks/upgradeability/MocUpgradeMocks.sol:MocCARC20Mock",
        "label": "tpLiqPrices",
        "offset": 0,
        "slot": "312",
        "type": "t_array(t_uint256)dyn_storage"
      },
      {
        "astId": 11611,
        "contract": "contracts/mocks/upgradeability/MocUpgradeMocks.sol:MocCARC20Mock",
        "label": "successFee",
        "offset": 0,
        "slot": "313",
        "type": "t_uint256"
      },
      {
        "astId": 11613,
        "contract": "contracts/mocks/upgradeability/MocUpgradeMocks.sol:MocCARC20Mock",
        "label": "appreciationFactor",
        "offset": 0,
        "slot": "314",
        "type": "t_uint256"
      },
      {
        "astId": 11615,
        "contract": "contracts/mocks/upgradeability/MocUpgradeMocks.sol:MocCARC20Mock",
        "label": "feeRetainer",
        "offset": 0,
        "slot": "315",
        "type": "t_uint256"
      },
      {
        "astId": 11617,
        "contract": "contracts/mocks/upgradeability/MocUpgradeMocks.sol:MocCARC20Mock",
        "label": "tcMintFee",
        "offset": 0,
        "slot": "316",
        "type": "t_uint256"
      },
      {
        "astId": 11619,
        "contract": "contracts/mocks/upgradeability/MocUpgradeMocks.sol:MocCARC20Mock",
        "label": "tcRedeemFee",
        "offset": 0,
        "slot": "317",
        "type": "t_uint256"
      },
      {
        "astId": 11621,
        "contract": "contracts/mocks/upgradeability/MocUpgradeMocks.sol:MocCARC20Mock",
        "label": "swapTPforTPFee",
        "offset": 0,
        "slot": "318",
        "type": "t_uint256"
      },
      {
        "astId": 11623,
        "contract": "contracts/mocks/upgradeability/MocUpgradeMocks.sol:MocCARC20Mock",
        "label": "swapTPforTCFee",
        "offset": 0,
        "slot": "319",
        "type": "t_uint256"
      },
      {
        "astId": 11625,
        "contract": "contracts/mocks/upgradeability/MocUpgradeMocks.sol:MocCARC20Mock",
        "label": "swapTCforTPFee",
        "offset": 0,
        "slot": "320",
        "type": "t_uint256"
      },
      {
        "astId": 11627,
        "contract": "contracts/mocks/upgradeability/MocUpgradeMocks.sol:MocCARC20Mock",
        "label": "redeemTCandTPFee",
        "offset": 0,
        "slot": "321",
        "type": "t_uint256"
      },
      {
        "astId": 11629,
        "contract": "contracts/mocks/upgradeability/MocUpgradeMocks.sol:MocCARC20Mock",
        "label": "mintTCandTPFee",
        "offset": 0,
        "slot": "322",
        "type": "t_uint256"
      },
      {
        "astId": 11631,
        "contract": "contracts/mocks/upgradeability/MocUpgradeMocks.sol:MocCARC20Mock",
        "label": "feeTokenPct",
        "offset": 0,
        "slot": "323",
        "type": "t_uint256"
      },
      {
        "astId": 11635,
        "contract": "contracts/mocks/upgradeability/MocUpgradeMocks.sol:MocCARC20Mock",
        "label": "tpMintFees",
        "offset": 0,
        "slot": "324",
        "type": "t_mapping(t_address,t_uint256)"
      },
      {
        "astId": 11639,
        "contract": "contracts/mocks/upgradeability/MocUpgradeMocks.sol:MocCARC20Mock",
        "label": "tpRedeemFees",
        "offset": 0,
        "slot": "325",
        "type": "t_mapping(t_address,t_uint256)"
      },
      {
        "astId": 11641,
        "contract": "contracts/mocks/upgradeability/MocUpgradeMocks.sol:MocCARC20Mock",
        "label": "mocFeeFlowAddress",
        "offset": 0,
        "slot": "326",
        "type": "t_address"
      },
      {
        "astId": 11643,
        "contract": "contracts/mocks/upgradeability/MocUpgradeMocks.sol:MocCARC20Mock",
        "label": "mocAppreciationBeneficiaryAddress",
        "offset": 0,
        "slot": "327",
        "type": "t_address"
      },
      {
        "astId": 11646,
        "contract": "contracts/mocks/upgradeability/MocUpgradeMocks.sol:MocCARC20Mock",
        "label": "tpCtarg",
        "offset": 0,
        "slot": "328",
        "type": "t_array(t_uint256)dyn_storage"
      },
      {
        "astId": 11648,
        "contract": "contracts/mocks/upgradeability/MocUpgradeMocks.sol:MocCARC20Mock",
        "label": "protThrld",
        "offset": 0,
        "slot": "329",
        "type": "t_uint256"
      },
      {
        "astId": 11650,
        "contract": "contracts/mocks/upgradeability/MocUpgradeMocks.sol:MocCARC20Mock",
        "label": "liqThrld",
        "offset": 0,
        "slot": "330",
        "type": "t_uint256"
      },
      {
        "astId": 11652,
        "contract": "contracts/mocks/upgradeability/MocUpgradeMocks.sol:MocCARC20Mock",
        "label": "liqEnabled",
        "offset": 0,
        "slot": "331",
        "type": "t_bool"
      },
      {
        "astId": 11654,
        "contract": "contracts/mocks/upgradeability/MocUpgradeMocks.sol:MocCARC20Mock",
        "label": "liquidated",
        "offset": 1,
        "slot": "331",
        "type": "t_bool"
      },
      {
        "astId": 11656,
        "contract": "contracts/mocks/upgradeability/MocUpgradeMocks.sol:MocCARC20Mock",
        "label": "bes",
        "offset": 0,
        "slot": "332",
        "type": "t_uint256"
      },
      {
        "astId": 11658,
        "contract": "contracts/mocks/upgradeability/MocUpgradeMocks.sol:MocCARC20Mock",
        "label": "bns",
        "offset": 0,
        "slot": "333",
        "type": "t_uint256"
      },
      {
        "astId": 11660,
        "contract": "contracts/mocks/upgradeability/MocUpgradeMocks.sol:MocCARC20Mock",
        "label": "qACLockedInPending",
        "offset": 0,
        "slot": "334",
        "type": "t_uint256"
      },
      {
        "astId": 11662,
        "contract": "contracts/mocks/upgradeability/MocUpgradeMocks.sol:MocCARC20Mock",
        "label": "mocQueue",
        "offset": 0,
        "slot": "335",
        "type": "t_address"
      },
      {
        "astId": 11665,
        "contract": "contracts/mocks/upgradeability/MocUpgradeMocks.sol:MocCARC20Mock",
        "label": "tpiou",
        "offset": 0,
        "slot": "336",
        "type": "t_array(t_int256)dyn_storage"
      },
      {
        "astId": 11668,
        "contract": "contracts/mocks/upgradeability/MocUpgradeMocks.sol:MocCARC20Mock",
        "label": "pACtpLstop",
        "offset": 0,
        "slot": "337",
        "type": "t_array(t_uint256)dyn_storage"
      },
      {
        "astId": 11671,
        "contract": "contracts/mocks/upgradeability/MocUpgradeMocks.sol:MocCARC20Mock",
        "label": "maxAbsoluteOpProvider",
        "offset": 0,
        "slot": "338",
        "type": "t_contract(IDataProvider)22803"
      },
      {
        "astId": 11674,
        "contract": "contracts/mocks/upgradeability/MocUpgradeMocks.sol:MocCARC20Mock",
        "label": "maxOpDiffProvider",
        "offset": 0,
        "slot": "339",
        "type": "t_contract(IDataProvider)22803"
      },
      {
        "astId": 11676,
        "contract": "contracts/mocks/upgradeability/MocUpgradeMocks.sol:MocCARC20Mock",
        "label": "decayBlockSpan",
        "offset": 0,
        "slot": "340",
        "type": "t_uint256"
      },
      {
        "astId": 11678,
        "contract": "contracts/mocks/upgradeability/MocUpgradeMocks.sol:MocCARC20Mock",
        "label": "absoluteAccumulator",
        "offset": 0,
        "slot": "341",
        "type": "t_uint256"
      },
      {
        "astId": 11680,
        "contract": "contracts/mocks/upgradeability/MocUpgradeMocks.sol:MocCARC20Mock",
        "label": "differentialAccumulator",
        "offset": 0,
        "slot": "342",
        "type": "t_int256"
      },
      {
        "astId": 11682,
        "contract": "contracts/mocks/upgradeability/MocUpgradeMocks.sol:MocCARC20Mock",
        "label": "lastOperationBlockNumber",
        "offset": 0,
        "slot": "343",
        "type": "t_uint256"
      },
      {
        "astId": 11684,
        "contract": "contracts/mocks/upgradeability/MocUpgradeMocks.sol:MocCARC20Mock",
        "label": "tcInterestCollectorAddress",
        "offset": 0,
        "slot": "344",
        "type": "t_address"
      },
      {
        "astId": 11686,
        "contract": "contracts/mocks/upgradeability/MocUpgradeMocks.sol:MocCARC20Mock",
        "label": "tcInterestRate",
        "offset": 0,
        "slot": "345",
        "type": "t_uint256"
      },
      {
        "astId": 11688,
        "contract": "contracts/mocks/upgradeability/MocUpgradeMocks.sol:MocCARC20Mock",
        "label": "tcInterestPaymentBlockSpan",
        "offset": 0,
        "slot": "346",
        "type": "t_uint256"
      },
      {
        "astId": 11690,
        "contract": "contracts/mocks/upgradeability/MocUpgradeMocks.sol:MocCARC20Mock",
        "label": "nextTCInterestPayment",
        "offset": 0,
        "slot": "347",
        "type": "t_uint256"
      },
      {
        "astId": 13303,
        "contract": "contracts/mocks/upgradeability/MocUpgradeMocks.sol:MocCARC20Mock",
        "label": "__gap",
        "offset": 0,
        "slot": "348",
        "type": "t_array(t_uint256)50_storage"
      },
      {
        "astId": 17097,
        "contract": "contracts/mocks/upgradeability/MocUpgradeMocks.sol:MocCARC20Mock",
        "label": "tpEma",
        "offset": 0,
        "slot": "398",
        "type": "t_array(t_struct(EmaItem)17093_storage)dyn_storage"
      },
      {
        "astId": 17099,
        "contract": "contracts/mocks/upgradeability/MocUpgradeMocks.sol:MocCARC20Mock",
        "label": "nextEmaCalculation",
        "offset": 0,
        "slot": "399",
        "type": "t_uint256"
      },
      {
        "astId": 17101,
        "contract": "contracts/mocks/upgradeability/MocUpgradeMocks.sol:MocCARC20Mock",
        "label": "emaCalculationBlockSpan",
        "offset": 0,
        "slot": "400",
        "type": "t_uint256"
      },
      {
        "astId": 17473,
        "contract": "contracts/mocks/upgradeability/MocUpgradeMocks.sol:MocCARC20Mock",
        "label": "__gap",
        "offset": 0,
        "slot": "401",
        "type": "t_array(t_uint256)50_storage"
      },
      {
        "astId": 13337,
        "contract": "contracts/mocks/upgradeability/MocUpgradeMocks.sol:MocCARC20Mock",
        "label": "mocVendors",
        "offset": 0,
        "slot": "451",
        "type": "t_contract(MocVendors)30033"
      },
      {
        "astId": 14210,
        "contract": "contracts/mocks/upgradeability/MocUpgradeMocks.sol:MocCARC20Mock",
        "label": "__gap",
        "offset": 0,
        "slot": "452",
        "type": "t_array(t_uint256)50_storage"
      },
      {
        "astId": 14259,
        "contract": "contracts/mocks/upgradeability/MocUpgradeMocks.sol:MocCARC20Mock",
        "label": "mocCoreExpansion",
        "offset": 0,
        "slot": "502",
        "type": "t_address"
      },
      {
        "astId": 15865,
        "contract": "contracts/mocks/upgradeability/MocUpgradeMocks.sol:MocCARC20Mock",
        "label": "__gap",
        "offset": 0,
        "slot": "503",
        "type": "t_array(t_uint256)50_storage"
      },
      {
        "astId": 10665,
        "contract": "contracts/mocks/upgradeability/MocUpgradeMocks.sol:MocCARC20Mock",
        "label": "acToken",
        "offset": 0,
        "slot": "553",
        "type": "t_contract(IERC20)6209"
      },
      {
        "astId": 11483,
        "contract": "contracts/mocks/upgradeability/MocUpgradeMocks.sol:MocCARC20Mock",
        "label": "__gap",
        "offset": 0,
        "slot": "554",
        "type": "t_array(t_uint256)50_storage"
      },
      {
        "astId": 26217,
        "contract": "contracts/mocks/upgradeability/MocUpgradeMocks.sol:MocCARC20Mock",
        "label": "newVariable",
        "offset": 0,
        "slot": "604",
        "type": "t_uint256"
      }
    ],
    "types": {
      "t_address": {
        "encoding": "inplace",
        "label": "address",
        "numberOfBytes": "20"
      },
      "t_array(t_contract(IMocRC20)22875)dyn_storage": {
        "base": "t_contract(IMocRC20)22875",
        "encoding": "dynamic_array",
        "label": "contract IMocRC20[]",
        "numberOfBytes": "32"
      },
      "t_array(t_int256)dyn_storage": {
        "base": "t_int256",
        "encoding": "dynamic_array",
        "label": "int256[]",
        "numberOfBytes": "32"
      },
      "t_array(t_struct(EmaItem)17093_storage)dyn_storage": {
        "base": "t_struct(EmaItem)17093_storage",
        "encoding": "dynamic_array",
        "label": "struct MocEma.EmaItem[]",
        "numberOfBytes": "32"
      },
      "t_array(t_struct(PegContainerItem)11520_storage)dyn_storage": {
        "base": "t_struct(PegContainerItem)11520_storage",
        "encoding": "dynamic_array",
        "label": "struct MocBaseBucket.PegContainerItem[]",
        "numberOfBytes": "32"
      },
      "t_array(t_uint256)50_storage": {
        "base": "t_uint256",
        "encoding": "inplace",
        "label": "uint256[50]",
        "numberOfBytes": "1600"
      },
      "t_array(t_uint256)dyn_storage": {
        "base": "t_uint256",
        "encoding": "dynamic_array",
        "label": "uint256[]",
        "numberOfBytes": "32"
      },
      "t_bool": {
        "encoding": "inplace",
        "label": "bool",
        "numberOfBytes": "1"
      },
      "t_contract(IDataProvider)22803": {
        "encoding": "inplace",
        "label": "contract IDataProvider",
        "numberOfBytes": "20"
      },
      "t_contract(IERC20)6209": {
        "encoding": "inplace",
        "label": "contract IERC20",
        "numberOfBytes": "20"
      },
      "t_contract(IGovernor)22849": {
        "encoding": "inplace",
        "label": "contract IGovernor",
        "numberOfBytes": "20"
      },
      "t_contract(IMocRC20)22875": {
        "encoding": "inplace",
        "label": "contract IMocRC20",
        "numberOfBytes": "20"
      },
      "t_contract(IPriceProvider)22887": {
        "encoding": "inplace",
        "label": "contract IPriceProvider",
        "numberOfBytes": "20"
      },
      "t_contract(MocTC)29728": {
        "encoding": "inplace",
        "label": "contract MocTC",
        "numberOfBytes": "20"
      },
      "t_contract(MocVendors)30033": {
        "encoding": "inplace",
        "label": "contract MocVendors",
        "numberOfBytes": "20"
      },
      "t_int256": {
        "encoding": "inplace",
        "label": "int256",
        "numberOfBytes": "32"
      },
      "t_mapping(t_address,t_struct(PeggedTokenIndex)11525_storage)": {
        "encoding": "mapping",
        "key": "t_address",
        "label": "mapping(address => struct MocBaseBucket.PeggedTokenIndex)",
        "numberOfBytes": "32",
        "value": "t_struct(PeggedTokenIndex)11525_storage"
      },
      "t_mapping(t_address,t_uint256)": {
        "encoding": "mapping",
        "key": "t_address",
        "label": "mapping(address => uint256)",
        "numberOfBytes": "32",
        "value": "t_uint256"
      },
      "t_struct(EmaItem)17093_storage": {
        "encoding": "inplace",
        "label": "struct MocEma.EmaItem",
        "members": [
          {
            "astId": 17090,
            "contract": "contracts/mocks/upgradeability/MocUpgradeMocks.sol:MocCARC20Mock",
            "label": "ema",
            "offset": 0,
            "slot": "0",
            "type": "t_uint256"
          },
          {
            "astId": 17092,
            "contract": "contracts/mocks/upgradeability/MocUpgradeMocks.sol:MocCARC20Mock",
            "label": "sf",
            "offset": 0,
            "slot": "1",
            "type": "t_uint256"
          }
        ],
        "numberOfBytes": "64"
      },
      "t_struct(PegContainerItem)11520_storage": {
        "encoding": "inplace",
        "label": "struct MocBaseBucket.PegContainerItem",
        "members": [
          {
            "astId": 11516,
            "contract": "contracts/mocks/upgradeability/MocUpgradeMocks.sol:MocCARC20Mock",
            "label": "nTP",
            "offset": 0,
            "slot": "0",
            "type": "t_uint256"
          },
          {
            "astId": 11519,
            "contract": "contracts/mocks/upgradeability/MocUpgradeMocks.sol:MocCARC20Mock",
            "label": "priceProvider",
            "offset": 0,
            "slot": "1",
            "type": "t_contract(IPriceProvider)22887"
          }
        ],
        "numberOfBytes": "64"
      },
      "t_struct(PeggedTokenIndex)11525_storage": {
        "encoding": "inplace",
        "label": "struct MocBaseBucket.PeggedTokenIndex",
        "members": [
          {
            "astId": 11522,
            "contract": "contracts/mocks/upgradeability/MocUpgradeMocks.sol:MocCARC20Mock",
            "label": "index",
            "offset": 0,
            "slot": "0",
            "type": "t_uint256"
          },
          {
            "astId": 11524,
            "contract": "contracts/mocks/upgradeability/MocUpgradeMocks.sol:MocCARC20Mock",
            "label": "exists",
            "offset": 0,
            "slot": "1",
            "type": "t_bool"
          }
        ],
        "numberOfBytes": "64"
      },
      "t_uint256": {
        "encoding": "inplace",
        "label": "uint256",
        "numberOfBytes": "32"
      },
      "t_uint8": {
        "encoding": "inplace",
        "label": "uint8",
        "numberOfBytes": "1"
      }
    }
  },
  "userdoc": {
    "kind": "user",
    "methods": {
      "addPeggedToken((address,address,uint256,uint256,uint256,uint256,uint256))": {
        "notice": "add a Pegged Token to the protocol"
      },
      "calcCtargemaCA()": {
        "notice": "calculates target coverage adjusted by all Pegged Token's to Collateral Asset rate moving average"
      },
      "changeGovernor(address)": {
        "notice": "Change the contract's governor. Should be called through the old governance system"
      },
      "editPeggedToken((address,address,uint256,uint256,uint256,uint256,uint256))": {
        "notice": "modifies a Pegged Token of the protocol"
      },
      "evalLiquidation()": {
        "notice": "evaluates if liquidation threshold has been reached and liq is Enabled. If so forces contracts liquidation, blocking all mint & redeem operations. May emit a {ContractLiquidated} event."
      },
      "execMintTC((uint256,uint256,address,address,address))": {
        "notice": "executes Operation based on params, only mocQueue allowed see MocCore _mintTCto for details"
      },
      "execMintTCandTP((address,uint256,uint256,address,address,address))": {
        "notice": "executes Operation based on params, only mocQueue allowed see MocCore _mintTCandTPto for details"
      },
      "execMintTP((address,uint256,uint256,address,address,address))": {
        "notice": "executes Operation based on params, only mocQueue allowed see MocCore _mintTPto for details"
      },
      "execRedeemTC((uint256,uint256,address,address,address))": {
        "notice": "executes Operation based on params, only mocQueue allowed see MocCore _redeemTCto for details"
      },
      "execRedeemTCandTP((address,uint256,uint256,uint256,address,address,address))": {
        "notice": "executes Operation based on params, only mocQueue allowed see MocCore _redeemTCandTPto for details"
      },
      "execRedeemTP((address,uint256,uint256,address,address,address))": {
        "notice": "executes Operation based on params, only mocQueue allowed see MocCore _redeemTPto for details"
      },
      "execSettlement()": {
        "notice": "this function is executed during settlement.  stores amount of locked AC by Pegged Tokens at this moment and distribute success fee"
      },
      "execSwapTCforTP((address,uint256,uint256,uint256,address,address,address))": {
        "notice": "executes Operation based on params, only mocQueue allowed see MocCore _swapTCforTPto for details"
      },
      "execSwapTPforTC((address,uint256,uint256,uint256,address,address,address))": {
        "notice": "executes Operation based on params, only mocQueue allowed see MocCore _swapTPforTCto for details"
      },
      "execSwapTPforTP((address,address,uint256,uint256,uint256,address,address,address))": {
        "notice": "executes Operation based on params, only mocQueue allowed see MocCore _swapTPforTPto for details"
      },
      "getBts()": {
        "notice": "get the number of blocks remaining for settlement"
      },
      "getCglb()": {
        "notice": "get bucket global coverage"
      },
      "getLckAC()": {
        "notice": "get amount of Collateral Asset locked by Pegged Token"
      },
      "getLeverageTC()": {
        "notice": "get Collateral Token leverage"
      },
      "getPACtp(address)": {
        "notice": "get how many Pegged Token equal 1 Collateral Asset"
      },
      "getPTCac()": {
        "notice": "get Collateral Token price"
      },
      "getTCAvailableToRedeem()": {
        "notice": "get amount of Collateral Token available to redeem"
      },
      "getTPAvailableToMint(address)": {
        "notice": "get amount of Pegged Token available to mint"
      },
      "getTotalACavailable()": {
        "notice": "get total Collateral Asset available"
      },
      "getTpAmount()": {
        "notice": "return current amount of Tps"
      },
      "governor()": {
        "notice": "The address of the contract which governs this one"
      },
      "initialize((((address,address,address,address,address,address,uint256,uint256,uint256,uint256,uint256,uint256,uint256,uint256,uint256,uint256,uint256,uint256,uint256,uint256,address,uint256,uint256,address,address,uint256),address,address,address,uint256,address),address))": {
        "notice": "contract initializer"
      },
      "isLiquidationReached()": {
        "notice": "If liquidation is enabled, verifies if forced liquidation has been reached, checking if globalCoverage <= liquidation"
      },
      "liqRedeemTP(address)": {
        "notice": "Allow redeem on liquidation state, user Peg balance gets burned and he receives the equivalent AC given the liquidation frozen price."
      },
      "liqRedeemTPto(address,address)": {
        "notice": "Allow redeem on liquidation state, user Peg balance gets burned and he receives the equivalent AC given the liquidation frozen price."
      },
      "makeStoppable()": {
        "notice": "Switches ON the stoppability of the contract; if the contract was paused before making it unstoppable it will be paused again after calling this function"
      },
      "makeUnstoppable()": {
        "notice": "Switches OFF the stoppability of the contract; if the contract was paused it will no longer be so"
      },
      "maxQACToMintTP()": {
        "notice": "gets the max amount of AC allowed to operate to mint TP with, restricted by accumulators // TODO: move this function to a MocView contract"
      },
      "maxQACToRedeemTP()": {
        "notice": "gets the max amount of AC allowed to operate to redeem TP with, restricted by accumulators // TODO: move this function to a MocView contract"
      },
      "mintTC(uint256,uint256)": {
        "notice": "caller sends Collateral Asset and receives Collateral Token Requires prior sender approval of Collateral Asset to this contract "
      },
      "mintTCViaVendor(uint256,uint256,address)": {
        "notice": "caller sends Collateral Asset and receives Collateral Token  `vendor_` receives a markup in Fee Token if possible or in qAC if not  Requires prior sender approval of Collateral Asset to this contract"
      },
      "mintTCandTP(address,uint256,uint256)": {
        "notice": "caller sends Collateral Asset and receives Collateral Token and Pegged Token  Requires prior sender approval of Collateral Asset to this contract  This operation is done without checking coverage  Collateral Token and Pegged Token are minted in equivalent proportions so that its price  and global coverage are not modified.  Reverts if qAC sent are insufficient."
      },
      "mintTCandTPViaVendor(address,uint256,uint256,address)": {
        "notice": "caller sends Collateral Asset and receives Collateral Token and Pegged Token  `vendor_` receives a markup in Fee Token if possible or in qAC if not  Requires prior sender approval of Collateral Asset to this contract  This operation is done without checking coverage  Collateral Token and Pegged Token are minted in equivalent proportions so that its price  and global coverage are not modified.  Reverts if qAC sent are insufficient."
      },
      "mintTCandTPto(address,uint256,uint256,address)": {
        "notice": "caller sends Collateral Asset and recipient receives Collateral Token and Pegged Token  Requires prior sender approval of Collateral Asset to this contract  This operation is done without checking coverage  Collateral Token and Pegged Token are minted in equivalent proportions so that its price  and global coverage are not modified.  Reverts if qAC sent are insufficient."
      },
      "mintTCandTPtoViaVendor(address,uint256,uint256,address,address)": {
        "notice": "caller sends Collateral Asset and recipient receives Collateral Token and Pegged Token  `vendor_` receives a markup in Fee Token if possible or in qAC if not  Requires prior sender approval of Collateral Asset to this contract  This operation is done without checking coverage  Collateral Token and Pegged Token are minted in equivalent proportions so that its price  and global coverage are not modified.  Reverts if qAC sent are insufficient."
      },
      "mintTCto(uint256,uint256,address)": {
        "notice": "caller sends Collateral Asset and recipient receives Collateral Token  Requires prior sender approval of Collateral Asset to this contract"
      },
      "mintTCtoViaVendor(uint256,uint256,address,address)": {
        "notice": "caller sends Collateral Asset and recipient receives Collateral Token  `vendor_` receives a markup in Fee Token if possible or in qAC if not   Requires prior sender approval of Collateral Asset to this contract"
      },
      "mintTP(address,uint256,uint256)": {
        "notice": "caller sends Collateral Asset and receives Pegged Token Requires prior sender approval of Collateral Asset to this contract"
      },
      "mintTPViaVendor(address,uint256,uint256,address)": {
        "notice": "caller sends Collateral Asset and receives Pegged Token  `vendor_` receives a markup in Fee Token if possible or in qAC if not   Requires prior sender approval of Collateral Asset to this contract"
      },
      "mintTPto(address,uint256,uint256,address)": {
        "notice": "caller sends Collateral Asset and recipient receives Pegged Token Requires prior sender approval of Collateral Asset to this contract"
      },
      "mintTPtoViaVendor(address,uint256,uint256,address,address)": {
        "notice": "caller sends Collateral Asset and recipient receives Pegged Token  `vendor_` receives a markup in Fee Token if possible or in qAC if not   Requires prior sender approval of Collateral Asset to this contract"
      },
      "pause()": {
        "notice": "Called by the owner to pause, triggers stopped state"
      },
      "paused()": {
        "notice": "Returns true if paused"
      },
      "redeemTC(uint256,uint256)": {
        "notice": "caller sends Collateral Token and receives Collateral Asset"
      },
      "redeemTCViaVendor(uint256,uint256,address)": {
        "notice": "caller sends Collateral Token and receives Collateral Asset  `vendor_` receives a markup in Fee Token if possible or in qAC if not"
      },
      "redeemTCandTP(address,uint256,uint256,uint256)": {
        "notice": "Caller sends Collateral Token and Pegged Token and receives Collateral Asset.  This operation is done without checking coverage  Collateral Token and Pegged Token are redeemed in equivalent proportions so that their price  and global coverage are not modified.  Reverts if qTP sent are insufficient."
      },
      "redeemTCandTPViaVendor(address,uint256,uint256,uint256,address)": {
        "notice": "Caller sends Collateral Token and Pegged Token and receives Collateral Asset.  `vendor_` receives a markup in Fee Token if possible or in Collateral Asset if not  This operation is done without checking coverage  Collateral Token and Pegged Token are redeemed in equivalent proportions so that their price  and global coverage are not modified.  Reverts if qTP sent are insufficient."
      },
      "redeemTCandTPto(address,uint256,uint256,uint256,address)": {
        "notice": "Caller sends Collateral Token and Pegged Token and recipient receives Collateral Asset.  This operation is done without checking coverage  Collateral Token and Pegged Token are redeemed in equivalent proportions so that their price  and global coverage are not modified.  Reverts if qTP sent are insufficient."
      },
      "redeemTCandTPtoViaVendor(address,uint256,uint256,uint256,address,address)": {
        "notice": "Caller sends Collateral Token and Pegged Token and recipient receives Collateral Asset.  `vendor_` receives a markup in Fee Token if possible or in Collateral Asset if not  This operation is done without checking coverage  Collateral Token and Pegged Token are redeemed in equivalent proportions so that their price  and global coverage are not modified.  Reverts if qTP sent are insufficient."
      },
      "redeemTCto(uint256,uint256,address)": {
        "notice": "caller sends Collateral Token and recipient receives Collateral Asset"
      },
      "redeemTCtoViaVendor(uint256,uint256,address,address)": {
        "notice": "caller sends Collateral Token and recipient receives Collateral Asset  `vendor_` receives a markup in Fee Token if possible or in qAC if not"
      },
      "redeemTP(address,uint256,uint256)": {
        "notice": "caller sends Pegged Token and receives Collateral Asset"
      },
      "redeemTPViaVendor(address,uint256,uint256,address)": {
        "notice": "caller sends Pegged Token and receives Collateral Asset  `vendor_` receives a markup in Fee Token if possible or in qAC if not"
      },
      "redeemTPto(address,uint256,uint256,address)": {
        "notice": "caller sends Pegged Token and recipient receives Collateral Asset"
      },
      "redeemTPtoViaVendor(address,uint256,uint256,address,address)": {
        "notice": "caller sends Pegged Token and recipient receives Collateral Asset  `vendor_` receives a markup in Fee Token if possible or in qAC if not"
      },
      "refreshACBalance()": {
        "notice": "Refreshes the AC holdings for the Bucket"
      },
      "setPauser(address)": {
        "notice": "Changes the address which is enable to pause this contract"
      },
      "shouldCalculateEma()": {
        "notice": "true if the necessary span has pass since last ema update"
      },
      "swapTCforTP(address,uint256,uint256,uint256)": {
        "notice": "Caller sends a Collateral Token and receives Pegged Token."
      },
      "swapTCforTPViaVendor(address,uint256,uint256,uint256,address)": {
        "notice": "Caller sends a Collateral Token and receives Pegged Token.  `vendor_` receives a markup in Fee Token if possible or in qAC if not."
      },
      "swapTCforTPto(address,uint256,uint256,uint256,address)": {
        "notice": "Caller sends a Collateral Token and recipient receives Pegged Token."
      },
      "swapTCforTPtoViaVendor(address,uint256,uint256,uint256,address,address)": {
        "notice": "Caller sends a Collateral Token and recipient receives Pegged Token.  `vendor_` receives a markup in Fee Token if possible or in qAC if not."
      },
      "swapTPforTC(address,uint256,uint256,uint256)": {
        "notice": "caller sends a Pegged Token and receives Collateral Token"
      },
      "swapTPforTCViaVendor(address,uint256,uint256,uint256,address)": {
        "notice": "caller sends a Pegged Token and receives Collateral Token  `vendor_` receives a markup in Fee Token if possible or in qAC if not"
      },
      "swapTPforTCto(address,uint256,uint256,uint256,address)": {
        "notice": "caller sends a Pegged Token and recipient receives Collateral Token"
      },
      "swapTPforTCtoViaVendor(address,uint256,uint256,uint256,address,address)": {
        "notice": "caller sends a Pegged Token and recipient receives Collateral Token  `vendor_` receives a markup in Fee Token if possible or in qAC if not"
      },
      "swapTPforTP(address,address,uint256,uint256,uint256)": {
        "notice": "caller sends a Pegged Token and receives another one"
      },
      "swapTPforTPViaVendor(address,address,uint256,uint256,uint256,address)": {
        "notice": "caller sends a Pegged Token and receives another one  `vendor_` receives a markup in Fee Token if possible or in qAC if not"
      },
      "swapTPforTPto(address,address,uint256,uint256,uint256,address)": {
        "notice": "caller sends a Pegged Token and recipient receives another one"
      },
      "swapTPforTPtoViaVendor(address,address,uint256,uint256,uint256,address,address)": {
        "notice": "caller sends a Pegged Token and recipient receives another one  `vendor_` receives a markup in Fee Token if possible or in qAC if not"
      },
      "tcHoldersInterestPayment()": {
        "notice": "executes the interest payment of the TC holders  can only be executed after a block span"
      },
      "unlockACInPending(address,uint256)": {
        "notice": "while executing a pending Operation, if it fails we need to unlock user's funds"
      },
      "unlockTCInPending(address,uint256)": {
        "notice": "while executing a pending Operation, if it fails we need to unlock user's tokens"
      },
      "unlockTPInPending(address,address,uint256)": {
        "notice": "while executing a pending Operation, if it fails we need to unlock user's tokens"
      },
      "unpause()": {
        "notice": "Called by the owner to unpause, returns to normal state"
      },
      "updateEmas()": {
        "notice": "If time, calculates the EMA for all the Pegged Token prices."
      }
    },
    "version": 1
  }
}