{
  "contractName": "MocCoinbaseMock",
  "sourceName": "contracts/mocks/upgradeability/MocUpgradeMocks.sol",
  "abi": [
    {
      "inputs": [
        {
          "internalType": "uint256",
          "name": "qACsent_",
          "type": "uint256"
        },
        {
          "internalType": "uint256",
          "name": "qACNeeded_",
          "type": "uint256"
        }
      ],
      "name": "InsufficientQacSent",
      "type": "error"
    },
    {
      "inputs": [
        {
          "internalType": "uint256",
          "name": "qTPsent_",
          "type": "uint256"
        },
        {
          "internalType": "uint256",
          "name": "qTPNeeded_",
          "type": "uint256"
        }
      ],
      "name": "InsufficientQtpSent",
      "type": "error"
    },
    {
      "inputs": [
        {
          "internalType": "uint256",
          "name": "qTC_",
          "type": "uint256"
        },
        {
          "internalType": "uint256",
          "name": "tcAvailableToRedeem_",
          "type": "uint256"
        }
      ],
      "name": "InsufficientTCtoRedeem",
      "type": "error"
    },
    {
      "inputs": [
        {
          "internalType": "uint256",
          "name": "qTP_",
          "type": "uint256"
        },
        {
          "internalType": "uint256",
          "name": "tpAvailableToMint_",
          "type": "uint256"
        }
      ],
      "name": "InsufficientTPtoMint",
      "type": "error"
    },
    {
      "inputs": [
        {
          "internalType": "uint256",
          "name": "qTP_",
          "type": "uint256"
        },
        {
          "internalType": "uint256",
          "name": "tpAvailableToRedeem_",
          "type": "uint256"
        }
      ],
      "name": "InsufficientTPtoRedeem",
      "type": "error"
    },
    {
      "inputs": [],
      "name": "InvalidAddress",
      "type": "error"
    },
    {
      "inputs": [
        {
          "internalType": "address",
          "name": "priceProviderAddress_",
          "type": "address"
        }
      ],
      "name": "InvalidPriceProvider",
      "type": "error"
    },
    {
      "inputs": [],
      "name": "InvalidValue",
      "type": "error"
    },
    {
      "inputs": [],
      "name": "Liquidated",
      "type": "error"
    },
    {
      "inputs": [
        {
          "internalType": "uint256",
          "name": "cglb_",
          "type": "uint256"
        },
        {
          "internalType": "uint256",
          "name": "covThrld_",
          "type": "uint256"
        }
      ],
      "name": "LowCoverage",
      "type": "error"
    },
    {
      "inputs": [],
      "name": "NotAuthorizedChanger",
      "type": "error"
    },
    {
      "inputs": [],
      "name": "NotWhenPaused",
      "type": "error"
    },
    {
      "inputs": [],
      "name": "OnlyPauser",
      "type": "error"
    },
    {
      "inputs": [],
      "name": "OnlySettlement",
      "type": "error"
    },
    {
      "inputs": [],
      "name": "OnlyWhenLiquidated",
      "type": "error"
    },
    {
      "inputs": [],
      "name": "OnlyWhilePaused",
      "type": "error"
    },
    {
      "inputs": [],
      "name": "PeggedTokenAlreadyAdded",
      "type": "error"
    },
    {
      "inputs": [
        {
          "internalType": "uint256",
          "name": "qACmin_",
          "type": "uint256"
        },
        {
          "internalType": "uint256",
          "name": "qACtoRedeem_",
          "type": "uint256"
        }
      ],
      "name": "QacBelowMinimumRequired",
      "type": "error"
    },
    {
      "inputs": [],
      "name": "QacNeededMustBeGreaterThanZero",
      "type": "error"
    },
    {
      "inputs": [
        {
          "internalType": "uint256",
          "name": "qTCmin_",
          "type": "uint256"
        },
        {
          "internalType": "uint256",
          "name": "qTC_",
          "type": "uint256"
        }
      ],
      "name": "QtcBelowMinimumRequired",
      "type": "error"
    },
    {
      "inputs": [
        {
          "internalType": "uint256",
          "name": "qTPmin_",
          "type": "uint256"
        },
        {
          "internalType": "uint256",
          "name": "qTP_",
          "type": "uint256"
        }
      ],
      "name": "QtpBelowMinimumRequired",
      "type": "error"
    },
    {
      "inputs": [],
      "name": "TransferFailed",
      "type": "error"
    },
    {
      "inputs": [],
      "name": "Unstoppable",
      "type": "error"
    },
    {
      "anonymous": false,
      "inputs": [
        {
          "indexed": false,
          "internalType": "address",
          "name": "previousAdmin",
          "type": "address"
        },
        {
          "indexed": false,
          "internalType": "address",
          "name": "newAdmin",
          "type": "address"
        }
      ],
      "name": "AdminChanged",
      "type": "event"
    },
    {
      "anonymous": false,
      "inputs": [
        {
          "indexed": true,
          "internalType": "address",
          "name": "beacon",
          "type": "address"
        }
      ],
      "name": "BeaconUpgraded",
      "type": "event"
    },
    {
      "anonymous": false,
      "inputs": [],
      "name": "ContractLiquidated",
      "type": "event"
    },
    {
      "anonymous": false,
      "inputs": [
        {
          "indexed": false,
          "internalType": "uint8",
          "name": "version",
          "type": "uint8"
        }
      ],
      "name": "Initialized",
      "type": "event"
    },
    {
      "anonymous": false,
      "inputs": [
        {
          "indexed": false,
          "internalType": "address",
          "name": "account",
          "type": "address"
        }
      ],
      "name": "Paused",
      "type": "event"
    },
    {
      "anonymous": false,
      "inputs": [
        {
          "indexed": true,
          "internalType": "uint256",
          "name": "i_",
          "type": "uint256"
        },
        {
          "components": [
            {
              "internalType": "address",
              "name": "tpTokenAddress",
              "type": "address"
            },
            {
              "internalType": "address",
              "name": "priceProviderAddress",
              "type": "address"
            },
            {
              "internalType": "uint256",
              "name": "tpCtarg",
              "type": "uint256"
            },
            {
              "internalType": "uint256",
              "name": "tpMintFee",
              "type": "uint256"
            },
            {
              "internalType": "uint256",
              "name": "tpRedeemFee",
              "type": "uint256"
            },
            {
              "internalType": "uint256",
              "name": "tpEma",
              "type": "uint256"
            },
            {
              "internalType": "uint256",
              "name": "tpEmaSf",
              "type": "uint256"
            }
          ],
          "indexed": false,
          "internalType": "struct MocCore.PeggedTokenParams",
          "name": "peggedTokenParams_",
          "type": "tuple"
        }
      ],
      "name": "PeggedTokenChange",
      "type": "event"
    },
    {
      "anonymous": false,
      "inputs": [],
      "name": "SettlementExecuted",
      "type": "event"
    },
    {
      "anonymous": false,
      "inputs": [
        {
          "indexed": false,
          "internalType": "uint256",
          "name": "mocGain_",
          "type": "uint256"
        },
        {
          "indexed": false,
          "internalType": "uint256[]",
          "name": "tpGain_",
          "type": "uint256[]"
        }
      ],
      "name": "SuccessFeeDistributed",
      "type": "event"
    },
    {
      "anonymous": false,
      "inputs": [
        {
          "indexed": true,
          "internalType": "address",
          "name": "sender_",
          "type": "address"
        },
        {
          "indexed": true,
          "internalType": "address",
          "name": "recipient_",
          "type": "address"
        },
        {
          "indexed": false,
          "internalType": "uint256",
          "name": "qTC_",
          "type": "uint256"
        },
        {
          "indexed": false,
          "internalType": "uint256",
          "name": "qAC_",
          "type": "uint256"
        },
        {
          "indexed": false,
          "internalType": "uint256",
          "name": "qACfee_",
          "type": "uint256"
        }
      ],
      "name": "TCMinted",
      "type": "event"
    },
    {
      "anonymous": false,
      "inputs": [
        {
          "indexed": true,
          "internalType": "address",
          "name": "sender_",
          "type": "address"
        },
        {
          "indexed": true,
          "internalType": "address",
          "name": "recipient_",
          "type": "address"
        },
        {
          "indexed": false,
          "internalType": "uint256",
          "name": "qTC_",
          "type": "uint256"
        },
        {
          "indexed": false,
          "internalType": "uint256",
          "name": "qAC_",
          "type": "uint256"
        },
        {
          "indexed": false,
          "internalType": "uint256",
          "name": "qACfee_",
          "type": "uint256"
        }
      ],
      "name": "TCRedeemed",
      "type": "event"
    },
    {
      "anonymous": false,
      "inputs": [
        {
          "indexed": true,
          "internalType": "uint256",
          "name": "i_",
          "type": "uint256"
        },
        {
          "indexed": true,
          "internalType": "address",
          "name": "sender_",
          "type": "address"
        },
        {
          "indexed": true,
          "internalType": "address",
          "name": "recipient_",
          "type": "address"
        },
        {
          "indexed": false,
          "internalType": "uint256",
          "name": "qTC_",
          "type": "uint256"
        },
        {
          "indexed": false,
          "internalType": "uint256",
          "name": "qTP_",
          "type": "uint256"
        },
        {
          "indexed": false,
          "internalType": "uint256",
          "name": "qACfee_",
          "type": "uint256"
        }
      ],
      "name": "TCSwappedForTP",
      "type": "event"
    },
    {
      "anonymous": false,
      "inputs": [
        {
          "indexed": true,
          "internalType": "uint256",
          "name": "i_",
          "type": "uint256"
        },
        {
          "indexed": true,
          "internalType": "address",
          "name": "sender_",
          "type": "address"
        },
        {
          "indexed": true,
          "internalType": "address",
          "name": "recipient_",
          "type": "address"
        },
        {
          "indexed": false,
          "internalType": "uint256",
          "name": "qTC_",
          "type": "uint256"
        },
        {
          "indexed": false,
          "internalType": "uint256",
          "name": "qTP_",
          "type": "uint256"
        },
        {
          "indexed": false,
          "internalType": "uint256",
          "name": "qAC_",
          "type": "uint256"
        },
        {
          "indexed": false,
          "internalType": "uint256",
          "name": "qACfee_",
          "type": "uint256"
        }
      ],
      "name": "TCandTPMinted",
      "type": "event"
    },
    {
      "anonymous": false,
      "inputs": [
        {
          "indexed": true,
          "internalType": "uint256",
          "name": "i_",
          "type": "uint256"
        },
        {
          "indexed": true,
          "internalType": "address",
          "name": "sender_",
          "type": "address"
        },
        {
          "indexed": true,
          "internalType": "address",
          "name": "recipient_",
          "type": "address"
        },
        {
          "indexed": false,
          "internalType": "uint256",
          "name": "qTC_",
          "type": "uint256"
        },
        {
          "indexed": false,
          "internalType": "uint256",
          "name": "qTP_",
          "type": "uint256"
        },
        {
          "indexed": false,
          "internalType": "uint256",
          "name": "qAC_",
          "type": "uint256"
        },
        {
          "indexed": false,
          "internalType": "uint256",
          "name": "qACfee_",
          "type": "uint256"
        }
      ],
      "name": "TCandTPRedeemed",
      "type": "event"
    },
    {
      "anonymous": false,
      "inputs": [
        {
          "indexed": true,
          "internalType": "uint256",
          "name": "i_",
          "type": "uint256"
        },
        {
          "indexed": true,
          "internalType": "address",
          "name": "sender_",
          "type": "address"
        },
        {
          "indexed": true,
          "internalType": "address",
          "name": "recipient_",
          "type": "address"
        },
        {
          "indexed": false,
          "internalType": "uint256",
          "name": "qTP_",
          "type": "uint256"
        },
        {
          "indexed": false,
          "internalType": "uint256",
          "name": "qAC_",
          "type": "uint256"
        },
        {
          "indexed": false,
          "internalType": "uint256",
          "name": "qACfee_",
          "type": "uint256"
        }
      ],
      "name": "TPMinted",
      "type": "event"
    },
    {
      "anonymous": false,
      "inputs": [
        {
          "indexed": true,
          "internalType": "uint256",
          "name": "i_",
          "type": "uint256"
        },
        {
          "indexed": true,
          "internalType": "address",
          "name": "sender_",
          "type": "address"
        },
        {
          "indexed": true,
          "internalType": "address",
          "name": "recipient_",
          "type": "address"
        },
        {
          "indexed": false,
          "internalType": "uint256",
          "name": "qTP_",
          "type": "uint256"
        },
        {
          "indexed": false,
          "internalType": "uint256",
          "name": "qAC_",
          "type": "uint256"
        },
        {
          "indexed": false,
          "internalType": "uint256",
          "name": "qACfee_",
          "type": "uint256"
        }
      ],
      "name": "TPRedeemed",
      "type": "event"
    },
    {
      "anonymous": false,
      "inputs": [
        {
          "indexed": true,
          "internalType": "uint256",
          "name": "i_",
          "type": "uint256"
        },
        {
          "indexed": true,
          "internalType": "address",
          "name": "sender_",
          "type": "address"
        },
        {
          "indexed": true,
          "internalType": "address",
          "name": "recipient_",
          "type": "address"
        },
        {
          "indexed": false,
          "internalType": "uint256",
          "name": "qTP_",
          "type": "uint256"
        },
        {
          "indexed": false,
          "internalType": "uint256",
          "name": "qTC_",
          "type": "uint256"
        },
        {
          "indexed": false,
          "internalType": "uint256",
          "name": "qACfee_",
          "type": "uint256"
        }
      ],
      "name": "TPSwappedForTC",
      "type": "event"
    },
    {
      "anonymous": false,
      "inputs": [
        {
          "indexed": true,
          "internalType": "uint256",
          "name": "iFrom_",
          "type": "uint256"
        },
        {
          "indexed": false,
          "internalType": "uint256",
          "name": "iTo_",
          "type": "uint256"
        },
        {
          "indexed": true,
          "internalType": "address",
          "name": "sender_",
          "type": "address"
        },
        {
          "indexed": true,
          "internalType": "address",
          "name": "recipient_",
          "type": "address"
        },
        {
          "indexed": false,
          "internalType": "uint256",
          "name": "qTPfrom_",
          "type": "uint256"
        },
        {
          "indexed": false,
          "internalType": "uint256",
          "name": "qTPto_",
          "type": "uint256"
        },
        {
          "indexed": false,
          "internalType": "uint256",
          "name": "qACfee_",
          "type": "uint256"
        }
      ],
      "name": "TPSwappedForTP",
      "type": "event"
    },
    {
      "anonymous": false,
      "inputs": [
        {
          "indexed": true,
          "internalType": "uint256",
          "name": "i_",
          "type": "uint256"
        },
        {
          "indexed": false,
          "internalType": "uint256",
          "name": "oldTPema_",
          "type": "uint256"
        },
        {
          "indexed": false,
          "internalType": "uint256",
          "name": "newTPema_",
          "type": "uint256"
        }
      ],
      "name": "TPemaUpdated",
      "type": "event"
    },
    {
      "anonymous": false,
      "inputs": [
        {
          "indexed": false,
          "internalType": "address",
          "name": "account",
          "type": "address"
        }
      ],
      "name": "Unpaused",
      "type": "event"
    },
    {
      "anonymous": false,
      "inputs": [
        {
          "indexed": true,
          "internalType": "address",
          "name": "implementation",
          "type": "address"
        }
      ],
      "name": "Upgraded",
      "type": "event"
    },
    {
      "inputs": [
        {
          "components": [
            {
              "internalType": "address",
              "name": "tpTokenAddress",
              "type": "address"
            },
            {
              "internalType": "address",
              "name": "priceProviderAddress",
              "type": "address"
            },
            {
              "internalType": "uint256",
              "name": "tpCtarg",
              "type": "uint256"
            },
            {
              "internalType": "uint256",
              "name": "tpMintFee",
              "type": "uint256"
            },
            {
              "internalType": "uint256",
              "name": "tpRedeemFee",
              "type": "uint256"
            },
            {
              "internalType": "uint256",
              "name": "tpEma",
              "type": "uint256"
            },
            {
              "internalType": "uint256",
              "name": "tpEmaSf",
              "type": "uint256"
            }
          ],
          "internalType": "struct MocCore.PeggedTokenParams",
          "name": "peggedTokenParams_",
          "type": "tuple"
        }
      ],
      "name": "addPeggedToken",
      "outputs": [],
      "stateMutability": "nonpayable",
      "type": "function"
    },
    {
      "inputs": [],
      "name": "appreciationFactor",
      "outputs": [
        {
          "internalType": "uint256",
          "name": "",
          "type": "uint256"
        }
      ],
      "stateMutability": "view",
      "type": "function"
    },
    {
      "inputs": [],
      "name": "bes",
      "outputs": [
        {
          "internalType": "uint256",
          "name": "",
          "type": "uint256"
        }
      ],
      "stateMutability": "view",
      "type": "function"
    },
    {
      "inputs": [],
      "name": "bns",
      "outputs": [
        {
          "internalType": "uint256",
          "name": "",
          "type": "uint256"
        }
      ],
      "stateMutability": "view",
      "type": "function"
    },
    {
      "inputs": [],
      "name": "calcCtargemaCA",
      "outputs": [
        {
          "internalType": "uint256",
          "name": "ctargemaCA",
          "type": "uint256"
        }
      ],
      "stateMutability": "nonpayable",
      "type": "function"
    },
    {
      "inputs": [
        {
          "internalType": "contract IGovernor",
          "name": "newGovernor_",
          "type": "address"
        }
      ],
      "name": "changeGovernor",
      "outputs": [],
      "stateMutability": "nonpayable",
      "type": "function"
    },
    {
      "inputs": [
        {
          "components": [
            {
              "internalType": "address",
              "name": "tpTokenAddress",
              "type": "address"
            },
            {
              "internalType": "address",
              "name": "priceProviderAddress",
              "type": "address"
            },
            {
              "internalType": "uint256",
              "name": "tpCtarg",
              "type": "uint256"
            },
            {
              "internalType": "uint256",
              "name": "tpMintFee",
              "type": "uint256"
            },
            {
              "internalType": "uint256",
              "name": "tpRedeemFee",
              "type": "uint256"
            },
            {
              "internalType": "uint256",
              "name": "tpEma",
              "type": "uint256"
            },
            {
              "internalType": "uint256",
              "name": "tpEmaSf",
              "type": "uint256"
            }
          ],
          "internalType": "struct MocCore.PeggedTokenParams",
          "name": "peggedTokenParams_",
          "type": "tuple"
        }
      ],
      "name": "editPeggedToken",
      "outputs": [],
      "stateMutability": "nonpayable",
      "type": "function"
    },
    {
      "inputs": [],
      "name": "emaCalculationBlockSpan",
      "outputs": [
        {
          "internalType": "uint256",
          "name": "",
          "type": "uint256"
        }
      ],
      "stateMutability": "view",
      "type": "function"
    },
    {
      "inputs": [],
      "name": "evalLiquidation",
      "outputs": [],
      "stateMutability": "nonpayable",
      "type": "function"
    },
    {
      "inputs": [],
      "name": "execSettlement",
      "outputs": [],
      "stateMutability": "nonpayable",
      "type": "function"
    },
    {
      "inputs": [],
      "name": "feeRetainer",
      "outputs": [
        {
          "internalType": "uint256",
          "name": "",
          "type": "uint256"
        }
      ],
      "stateMutability": "view",
      "type": "function"
    },
    {
      "inputs": [],
      "name": "getBts",
      "outputs": [
        {
          "internalType": "uint256",
          "name": "",
          "type": "uint256"
        }
      ],
      "stateMutability": "view",
      "type": "function"
    },
    {
      "inputs": [],
      "name": "getCglb",
      "outputs": [
        {
          "internalType": "uint256",
          "name": "cglob",
          "type": "uint256"
        }
      ],
      "stateMutability": "view",
      "type": "function"
    },
    {
      "inputs": [],
      "name": "getCustomMockValue",
      "outputs": [
        {
          "internalType": "uint256",
          "name": "",
          "type": "uint256"
        }
      ],
      "stateMutability": "view",
      "type": "function"
    },
    {
      "inputs": [],
      "name": "getLeverageTC",
      "outputs": [
        {
          "internalType": "uint256",
          "name": "leverageTC",
          "type": "uint256"
        }
      ],
      "stateMutability": "view",
      "type": "function"
    },
    {
      "inputs": [
        {
          "internalType": "uint256",
          "name": "i_",
          "type": "uint256"
        }
      ],
      "name": "getPACtp",
      "outputs": [
        {
          "internalType": "uint256",
          "name": "",
          "type": "uint256"
        }
      ],
      "stateMutability": "view",
      "type": "function"
    },
    {
      "inputs": [],
      "name": "getPTCac",
      "outputs": [
        {
          "internalType": "uint256",
          "name": "pTCac",
          "type": "uint256"
        }
      ],
      "stateMutability": "view",
      "type": "function"
    },
    {
      "inputs": [
        {
          "internalType": "uint256",
          "name": "i_",
          "type": "uint256"
        },
        {
          "internalType": "uint256",
          "name": "qTP_",
          "type": "uint256"
        }
      ],
      "name": "getQACforRedeemTP",
      "outputs": [
        {
          "internalType": "uint256",
          "name": "qACtotalToRedeem",
          "type": "uint256"
        },
        {
          "internalType": "uint256",
          "name": "qACfee",
          "type": "uint256"
        }
      ],
      "stateMutability": "view",
      "type": "function"
    },
    {
      "inputs": [],
      "name": "getTCAvailableToRedeem",
      "outputs": [
        {
          "internalType": "uint256",
          "name": "tcAvailableToRedeem",
          "type": "uint256"
        }
      ],
      "stateMutability": "view",
      "type": "function"
    },
    {
      "inputs": [
        {
          "internalType": "uint256",
          "name": "i_",
          "type": "uint256"
        }
      ],
      "name": "getTPAvailableToMint",
      "outputs": [
        {
          "internalType": "uint256",
          "name": "tpAvailableToMint",
          "type": "uint256"
        }
      ],
      "stateMutability": "view",
      "type": "function"
    },
    {
      "inputs": [],
      "name": "getTotalACavailable",
      "outputs": [
        {
          "internalType": "uint256",
          "name": "totalACavailable",
          "type": "uint256"
        }
      ],
      "stateMutability": "view",
      "type": "function"
    },
    {
      "inputs": [],
      "name": "governor",
      "outputs": [
        {
          "internalType": "contract IGovernor",
          "name": "",
          "type": "address"
        }
      ],
      "stateMutability": "view",
      "type": "function"
    },
    {
      "inputs": [
        {
          "components": [
            {
              "components": [
                {
                  "internalType": "address",
                  "name": "tcTokenAddress",
                  "type": "address"
                },
                {
                  "internalType": "address",
                  "name": "mocFeeFlowAddress",
                  "type": "address"
                },
                {
                  "internalType": "address",
                  "name": "mocAppreciationBeneficiaryAddress",
                  "type": "address"
                },
                {
                  "internalType": "uint256",
                  "name": "protThrld",
                  "type": "uint256"
                },
                {
                  "internalType": "uint256",
                  "name": "liqThrld",
                  "type": "uint256"
                },
                {
                  "internalType": "uint256",
                  "name": "feeRetainer",
                  "type": "uint256"
                },
                {
                  "internalType": "uint256",
                  "name": "tcMintFee",
                  "type": "uint256"
                },
                {
                  "internalType": "uint256",
                  "name": "tcRedeemFee",
                  "type": "uint256"
                },
                {
                  "internalType": "uint256",
                  "name": "swapTPforTPFee",
                  "type": "uint256"
                },
                {
                  "internalType": "uint256",
                  "name": "swapTPforTCFee",
                  "type": "uint256"
                },
                {
                  "internalType": "uint256",
                  "name": "swapTCforTPFee",
                  "type": "uint256"
                },
                {
                  "internalType": "uint256",
                  "name": "redeemTCandTPFee",
                  "type": "uint256"
                },
                {
                  "internalType": "uint256",
                  "name": "mintTCandTPFee",
                  "type": "uint256"
                },
                {
                  "internalType": "uint256",
                  "name": "successFee",
                  "type": "uint256"
                },
                {
                  "internalType": "uint256",
                  "name": "appreciationFactor",
                  "type": "uint256"
                }
              ],
              "internalType": "struct MocBaseBucket.InitializeBaseBucketParams",
              "name": "initializeBaseBucketParams",
              "type": "tuple"
            },
            {
              "internalType": "address",
              "name": "governorAddress",
              "type": "address"
            },
            {
              "internalType": "address",
              "name": "pauserAddress",
              "type": "address"
            },
            {
              "internalType": "uint256",
              "name": "emaCalculationBlockSpan",
              "type": "uint256"
            },
            {
              "internalType": "uint256",
              "name": "bes",
              "type": "uint256"
            }
          ],
          "internalType": "struct MocCore.InitializeCoreParams",
          "name": "initializeCoreParams_",
          "type": "tuple"
        }
      ],
      "name": "initialize",
      "outputs": [],
      "stateMutability": "nonpayable",
      "type": "function"
    },
    {
      "inputs": [],
      "name": "initializeMock",
      "outputs": [],
      "stateMutability": "nonpayable",
      "type": "function"
    },
    {
      "inputs": [],
      "name": "isLiquidationReached",
      "outputs": [
        {
          "internalType": "bool",
          "name": "",
          "type": "bool"
        }
      ],
      "stateMutability": "view",
      "type": "function"
    },
    {
      "inputs": [],
      "name": "liqEnabled",
      "outputs": [
        {
          "internalType": "bool",
          "name": "",
          "type": "bool"
        }
      ],
      "stateMutability": "view",
      "type": "function"
    },
    {
      "inputs": [
        {
          "internalType": "uint256",
          "name": "i_",
          "type": "uint256"
        }
      ],
      "name": "liqRedeemTP",
      "outputs": [
        {
          "internalType": "uint256",
          "name": "qACRedeemed",
          "type": "uint256"
        }
      ],
      "stateMutability": "nonpayable",
      "type": "function"
    },
    {
      "inputs": [
        {
          "internalType": "uint256",
          "name": "i_",
          "type": "uint256"
        },
        {
          "internalType": "address",
          "name": "recipient_",
          "type": "address"
        }
      ],
      "name": "liqRedeemTPto",
      "outputs": [
        {
          "internalType": "uint256",
          "name": "qACRedeemed",
          "type": "uint256"
        }
      ],
      "stateMutability": "nonpayable",
      "type": "function"
    },
    {
      "inputs": [],
      "name": "liqThrld",
      "outputs": [
        {
          "internalType": "uint256",
          "name": "",
          "type": "uint256"
        }
      ],
      "stateMutability": "view",
      "type": "function"
    },
    {
      "inputs": [],
      "name": "liquidated",
      "outputs": [
        {
          "internalType": "bool",
          "name": "",
          "type": "bool"
        }
      ],
      "stateMutability": "view",
      "type": "function"
    },
    {
      "inputs": [],
      "name": "makeStoppable",
      "outputs": [],
      "stateMutability": "nonpayable",
      "type": "function"
    },
    {
      "inputs": [],
      "name": "makeUnstoppable",
      "outputs": [],
      "stateMutability": "nonpayable",
      "type": "function"
    },
    {
      "inputs": [
        {
          "internalType": "uint256",
          "name": "qTC_",
          "type": "uint256"
        }
      ],
      "name": "mintTC",
      "outputs": [
        {
          "internalType": "uint256",
          "name": "qACtotalNeeded",
          "type": "uint256"
        }
      ],
      "stateMutability": "payable",
      "type": "function"
    },
    {
      "inputs": [
        {
          "internalType": "uint8",
          "name": "i_",
          "type": "uint8"
        },
        {
          "internalType": "uint256",
          "name": "qTP_",
          "type": "uint256"
        }
      ],
      "name": "mintTCandTP",
      "outputs": [
        {
          "internalType": "uint256",
          "name": "qACtotalNeeded",
          "type": "uint256"
        },
        {
          "internalType": "uint256",
          "name": "qTCtoMint",
          "type": "uint256"
        }
      ],
      "stateMutability": "payable",
      "type": "function"
    },
    {
      "inputs": [],
      "name": "mintTCandTPFee",
      "outputs": [
        {
          "internalType": "uint256",
          "name": "",
          "type": "uint256"
        }
      ],
      "stateMutability": "view",
      "type": "function"
    },
    {
      "inputs": [
        {
          "internalType": "uint8",
          "name": "i_",
          "type": "uint8"
        },
        {
          "internalType": "uint256",
          "name": "qTP_",
          "type": "uint256"
        },
        {
          "internalType": "address",
          "name": "recipient_",
          "type": "address"
        }
      ],
      "name": "mintTCandTPto",
      "outputs": [
        {
          "internalType": "uint256",
          "name": "qACtotalNeeded",
          "type": "uint256"
        },
        {
          "internalType": "uint256",
          "name": "qTCtoMint",
          "type": "uint256"
        }
      ],
      "stateMutability": "payable",
      "type": "function"
    },
    {
      "inputs": [
        {
          "internalType": "uint256",
          "name": "qTC_",
          "type": "uint256"
        },
        {
          "internalType": "address",
          "name": "recipient_",
          "type": "address"
        }
      ],
      "name": "mintTCto",
      "outputs": [
        {
          "internalType": "uint256",
          "name": "qACtotalNeeded",
          "type": "uint256"
        }
      ],
      "stateMutability": "payable",
      "type": "function"
    },
    {
      "inputs": [
        {
          "internalType": "uint8",
          "name": "i_",
          "type": "uint8"
        },
        {
          "internalType": "uint256",
          "name": "qTP_",
          "type": "uint256"
        }
      ],
      "name": "mintTP",
      "outputs": [
        {
          "internalType": "uint256",
          "name": "qACtotalNeeded",
          "type": "uint256"
        }
      ],
      "stateMutability": "payable",
      "type": "function"
    },
    {
      "inputs": [
        {
          "internalType": "uint8",
          "name": "i_",
          "type": "uint8"
        },
        {
          "internalType": "uint256",
          "name": "qTP_",
          "type": "uint256"
        },
        {
          "internalType": "address",
          "name": "recipient_",
          "type": "address"
        }
      ],
      "name": "mintTPto",
      "outputs": [
        {
          "internalType": "uint256",
          "name": "qACtotalNeeded",
          "type": "uint256"
        }
      ],
      "stateMutability": "payable",
      "type": "function"
    },
    {
      "inputs": [],
      "name": "mocAppreciationBeneficiaryAddress",
      "outputs": [
        {
          "internalType": "address",
          "name": "",
          "type": "address"
        }
      ],
      "stateMutability": "view",
      "type": "function"
    },
    {
      "inputs": [],
      "name": "mocFeeFlowAddress",
      "outputs": [
        {
          "internalType": "address",
          "name": "",
          "type": "address"
        }
      ],
      "stateMutability": "view",
      "type": "function"
    },
    {
      "inputs": [],
      "name": "nACcb",
      "outputs": [
        {
          "internalType": "uint256",
          "name": "",
          "type": "uint256"
        }
      ],
      "stateMutability": "view",
      "type": "function"
    },
    {
      "inputs": [],
      "name": "nTCcb",
      "outputs": [
        {
          "internalType": "uint256",
          "name": "",
          "type": "uint256"
        }
      ],
      "stateMutability": "view",
      "type": "function"
    },
    {
      "inputs": [],
      "name": "newVariable",
      "outputs": [
        {
          "internalType": "uint256",
          "name": "",
          "type": "uint256"
        }
      ],
      "stateMutability": "view",
      "type": "function"
    },
    {
      "inputs": [],
      "name": "nextEmaCalculation",
      "outputs": [
        {
          "internalType": "uint256",
          "name": "",
          "type": "uint256"
        }
      ],
      "stateMutability": "view",
      "type": "function"
    },
    {
      "inputs": [],
      "name": "pause",
      "outputs": [],
      "stateMutability": "nonpayable",
      "type": "function"
    },
    {
      "inputs": [],
      "name": "paused",
      "outputs": [
        {
          "internalType": "bool",
          "name": "",
          "type": "bool"
        }
      ],
      "stateMutability": "view",
      "type": "function"
    },
    {
      "inputs": [],
      "name": "pauser",
      "outputs": [
        {
          "internalType": "address",
          "name": "",
          "type": "address"
        }
      ],
      "stateMutability": "view",
      "type": "function"
    },
    {
      "inputs": [
        {
          "internalType": "uint256",
          "name": "",
          "type": "uint256"
        }
      ],
      "name": "pegContainer",
      "outputs": [
        {
          "internalType": "uint256",
          "name": "nTP",
          "type": "uint256"
        },
        {
          "internalType": "contract IPriceProvider",
          "name": "priceProvider",
          "type": "address"
        }
      ],
      "stateMutability": "view",
      "type": "function"
    },
    {
      "inputs": [
        {
          "internalType": "address",
          "name": "",
          "type": "address"
        }
      ],
      "name": "peggedTokenIndex",
      "outputs": [
        {
          "internalType": "uint256",
          "name": "index",
          "type": "uint256"
        },
        {
          "internalType": "bool",
          "name": "exists",
          "type": "bool"
        }
      ],
      "stateMutability": "view",
      "type": "function"
    },
    {
      "inputs": [],
      "name": "protThrld",
      "outputs": [
        {
          "internalType": "uint256",
          "name": "",
          "type": "uint256"
        }
      ],
      "stateMutability": "view",
      "type": "function"
    },
    {
      "inputs": [],
      "name": "proxiableUUID",
      "outputs": [
        {
          "internalType": "bytes32",
          "name": "",
          "type": "bytes32"
        }
      ],
      "stateMutability": "view",
      "type": "function"
    },
    {
      "inputs": [
        {
          "internalType": "uint256",
          "name": "qTC_",
          "type": "uint256"
        },
        {
          "internalType": "uint256",
          "name": "qACmin_",
          "type": "uint256"
        }
      ],
      "name": "redeemTC",
      "outputs": [
        {
          "internalType": "uint256",
          "name": "qACRedeemed",
          "type": "uint256"
        }
      ],
      "stateMutability": "nonpayable",
      "type": "function"
    },
    {
      "inputs": [
        {
          "internalType": "uint256",
          "name": "i_",
          "type": "uint256"
        },
        {
          "internalType": "uint256",
          "name": "qTC_",
          "type": "uint256"
        },
        {
          "internalType": "uint256",
          "name": "qTP_",
          "type": "uint256"
        },
        {
          "internalType": "uint256",
          "name": "qACmin_",
          "type": "uint256"
        }
      ],
      "name": "redeemTCandTP",
      "outputs": [
        {
          "internalType": "uint256",
          "name": "qACRedeemed",
          "type": "uint256"
        },
        {
          "internalType": "uint256",
          "name": "qTPRedeemed",
          "type": "uint256"
        }
      ],
      "stateMutability": "nonpayable",
      "type": "function"
    },
    {
      "inputs": [],
      "name": "redeemTCandTPFee",
      "outputs": [
        {
          "internalType": "uint256",
          "name": "",
          "type": "uint256"
        }
      ],
      "stateMutability": "view",
      "type": "function"
    },
    {
      "inputs": [
        {
          "internalType": "uint256",
          "name": "i_",
          "type": "uint256"
        },
        {
          "internalType": "uint256",
          "name": "qTC_",
          "type": "uint256"
        },
        {
          "internalType": "uint256",
          "name": "qTP_",
          "type": "uint256"
        },
        {
          "internalType": "uint256",
          "name": "qACmin_",
          "type": "uint256"
        },
        {
          "internalType": "address",
          "name": "recipient_",
          "type": "address"
        }
      ],
      "name": "redeemTCandTPto",
      "outputs": [
        {
          "internalType": "uint256",
          "name": "qACRedeemed",
          "type": "uint256"
        },
        {
          "internalType": "uint256",
          "name": "qTPRedeemed",
          "type": "uint256"
        }
      ],
      "stateMutability": "nonpayable",
      "type": "function"
    },
    {
      "inputs": [
        {
          "internalType": "uint256",
          "name": "qTC_",
          "type": "uint256"
        },
        {
          "internalType": "uint256",
          "name": "qACmin_",
          "type": "uint256"
        },
        {
          "internalType": "address",
          "name": "recipient_",
          "type": "address"
        }
      ],
      "name": "redeemTCto",
      "outputs": [
        {
          "internalType": "uint256",
          "name": "qACRedeemed",
          "type": "uint256"
        }
      ],
      "stateMutability": "nonpayable",
      "type": "function"
    },
    {
      "inputs": [
        {
          "internalType": "uint256",
          "name": "i_",
          "type": "uint256"
        },
        {
          "internalType": "uint256",
          "name": "qTP_",
          "type": "uint256"
        },
        {
          "internalType": "uint256",
          "name": "qACmin_",
          "type": "uint256"
        }
      ],
      "name": "redeemTP",
      "outputs": [
        {
          "internalType": "uint256",
          "name": "qACRedeemed",
          "type": "uint256"
        }
      ],
      "stateMutability": "nonpayable",
      "type": "function"
    },
    {
      "inputs": [
        {
          "internalType": "uint256",
          "name": "i_",
          "type": "uint256"
        },
        {
          "internalType": "uint256",
          "name": "qTP_",
          "type": "uint256"
        },
        {
          "internalType": "uint256",
          "name": "qACmin_",
          "type": "uint256"
        },
        {
          "internalType": "address",
          "name": "recipient_",
          "type": "address"
        }
      ],
      "name": "redeemTPto",
      "outputs": [
        {
          "internalType": "uint256",
          "name": "qACRedeemed",
          "type": "uint256"
        }
      ],
      "stateMutability": "nonpayable",
      "type": "function"
    },
    {
      "inputs": [
        {
          "internalType": "uint256",
          "name": "appreciationFactor_",
          "type": "uint256"
        }
      ],
      "name": "setAppreciationFactor",
      "outputs": [],
      "stateMutability": "nonpayable",
      "type": "function"
    },
    {
      "inputs": [
        {
          "internalType": "uint256",
          "name": "bes_",
          "type": "uint256"
        }
      ],
      "name": "setBes",
      "outputs": [],
      "stateMutability": "nonpayable",
      "type": "function"
    },
    {
      "inputs": [
        {
          "internalType": "uint256",
          "name": "blockSpan_",
          "type": "uint256"
        }
      ],
      "name": "setEmaCalculationBlockSpan",
      "outputs": [],
      "stateMutability": "nonpayable",
      "type": "function"
    },
    {
      "inputs": [
        {
          "internalType": "uint256",
          "name": "feeRetainer_",
          "type": "uint256"
        }
      ],
      "name": "setFeeRetainer",
      "outputs": [],
      "stateMutability": "nonpayable",
      "type": "function"
    },
    {
      "inputs": [
        {
          "internalType": "bool",
          "name": "liqEnabled_",
          "type": "bool"
        }
      ],
      "name": "setLiqEnabled",
      "outputs": [],
      "stateMutability": "nonpayable",
      "type": "function"
    },
    {
      "inputs": [
        {
          "internalType": "uint256",
          "name": "liqThrld_",
          "type": "uint256"
        }
      ],
      "name": "setLiqThrld",
      "outputs": [],
      "stateMutability": "nonpayable",
      "type": "function"
    },
    {
      "inputs": [
        {
          "internalType": "uint256",
          "name": "mintTCandTPFee_",
          "type": "uint256"
        }
      ],
      "name": "setMintTCandTPFee",
      "outputs": [],
      "stateMutability": "nonpayable",
      "type": "function"
    },
    {
      "inputs": [
        {
          "internalType": "address",
          "name": "mocAppreciationBeneficiaryAddress_",
          "type": "address"
        }
      ],
      "name": "setMocAppreciationBeneficiaryAddress",
      "outputs": [],
      "stateMutability": "nonpayable",
      "type": "function"
    },
    {
      "inputs": [
        {
          "internalType": "address",
          "name": "mocFeeFlowAddress_",
          "type": "address"
        }
      ],
      "name": "setMocFeeFlowAddress",
      "outputs": [],
      "stateMutability": "nonpayable",
      "type": "function"
    },
    {
      "inputs": [
        {
          "internalType": "address",
          "name": "newPauser_",
          "type": "address"
        }
      ],
      "name": "setPauser",
      "outputs": [],
      "stateMutability": "nonpayable",
      "type": "function"
    },
    {
      "inputs": [
        {
          "internalType": "uint256",
          "name": "protThrld_",
          "type": "uint256"
        }
      ],
      "name": "setProtThrld",
      "outputs": [],
      "stateMutability": "nonpayable",
      "type": "function"
    },
    {
      "inputs": [
        {
          "internalType": "uint256",
          "name": "redeemTCandTPFee_",
          "type": "uint256"
        }
      ],
      "name": "setRedeemTCandTPFee",
      "outputs": [],
      "stateMutability": "nonpayable",
      "type": "function"
    },
    {
      "inputs": [
        {
          "internalType": "uint256",
          "name": "successFee_",
          "type": "uint256"
        }
      ],
      "name": "setSuccessFee",
      "outputs": [],
      "stateMutability": "nonpayable",
      "type": "function"
    },
    {
      "inputs": [
        {
          "internalType": "uint256",
          "name": "swapTCforTPFee_",
          "type": "uint256"
        }
      ],
      "name": "setSwapTCforTPFee",
      "outputs": [],
      "stateMutability": "nonpayable",
      "type": "function"
    },
    {
      "inputs": [
        {
          "internalType": "uint256",
          "name": "swapTPforTCFee_",
          "type": "uint256"
        }
      ],
      "name": "setSwapTPforTCFee",
      "outputs": [],
      "stateMutability": "nonpayable",
      "type": "function"
    },
    {
      "inputs": [
        {
          "internalType": "uint256",
          "name": "swapTPforTPFee_",
          "type": "uint256"
        }
      ],
      "name": "setSwapTPforTPFee",
      "outputs": [],
      "stateMutability": "nonpayable",
      "type": "function"
    },
    {
      "inputs": [
        {
          "internalType": "uint256",
          "name": "tcMintFee_",
          "type": "uint256"
        }
      ],
      "name": "setTcMintFee",
      "outputs": [],
      "stateMutability": "nonpayable",
      "type": "function"
    },
    {
      "inputs": [
        {
          "internalType": "uint256",
          "name": "tcRedeemFee_",
          "type": "uint256"
        }
      ],
      "name": "setTcRedeemFee",
      "outputs": [],
      "stateMutability": "nonpayable",
      "type": "function"
    },
    {
      "inputs": [],
      "name": "shouldCalculateEma",
      "outputs": [
        {
          "internalType": "bool",
          "name": "",
          "type": "bool"
        }
      ],
      "stateMutability": "view",
      "type": "function"
    },
    {
      "inputs": [],
      "name": "stoppable",
      "outputs": [
        {
          "internalType": "bool",
          "name": "",
          "type": "bool"
        }
      ],
      "stateMutability": "view",
      "type": "function"
    },
    {
      "inputs": [],
      "name": "successFee",
      "outputs": [
        {
          "internalType": "uint256",
          "name": "",
          "type": "uint256"
        }
      ],
      "stateMutability": "view",
      "type": "function"
    },
    {
      "inputs": [
        {
          "internalType": "uint8",
          "name": "i_",
          "type": "uint8"
        },
        {
          "internalType": "uint256",
          "name": "qTC_",
          "type": "uint256"
        },
        {
          "internalType": "uint256",
          "name": "qTPmin_",
          "type": "uint256"
        }
      ],
      "name": "swapTCforTP",
      "outputs": [
        {
          "internalType": "uint256",
          "name": "qACFee",
          "type": "uint256"
        },
        {
          "internalType": "uint256",
          "name": "qTPMinted",
          "type": "uint256"
        }
      ],
      "stateMutability": "payable",
      "type": "function"
    },
    {
      "inputs": [],
      "name": "swapTCforTPFee",
      "outputs": [
        {
          "internalType": "uint256",
          "name": "",
          "type": "uint256"
        }
      ],
      "stateMutability": "view",
      "type": "function"
    },
    {
      "inputs": [
        {
          "internalType": "uint8",
          "name": "i_",
          "type": "uint8"
        },
        {
          "internalType": "uint256",
          "name": "qTC_",
          "type": "uint256"
        },
        {
          "internalType": "uint256",
          "name": "qTPmin_",
          "type": "uint256"
        },
        {
          "internalType": "address",
          "name": "recipient_",
          "type": "address"
        }
      ],
      "name": "swapTCforTPto",
      "outputs": [
        {
          "internalType": "uint256",
          "name": "qACFee",
          "type": "uint256"
        },
        {
          "internalType": "uint256",
          "name": "qTPMinted",
          "type": "uint256"
        }
      ],
      "stateMutability": "payable",
      "type": "function"
    },
    {
      "inputs": [
        {
          "internalType": "uint8",
          "name": "i_",
          "type": "uint8"
        },
        {
          "internalType": "uint256",
          "name": "qTP_",
          "type": "uint256"
        },
        {
          "internalType": "uint256",
          "name": "qTCmin_",
          "type": "uint256"
        }
      ],
      "name": "swapTPforTC",
      "outputs": [
        {
          "internalType": "uint256",
          "name": "qACFee",
          "type": "uint256"
        },
        {
          "internalType": "uint256",
          "name": "qTCMinted",
          "type": "uint256"
        }
      ],
      "stateMutability": "payable",
      "type": "function"
    },
    {
      "inputs": [],
      "name": "swapTPforTCFee",
      "outputs": [
        {
          "internalType": "uint256",
          "name": "",
          "type": "uint256"
        }
      ],
      "stateMutability": "view",
      "type": "function"
    },
    {
      "inputs": [
        {
          "internalType": "uint8",
          "name": "i_",
          "type": "uint8"
        },
        {
          "internalType": "uint256",
          "name": "qTP_",
          "type": "uint256"
        },
        {
          "internalType": "uint256",
          "name": "qTCmin_",
          "type": "uint256"
        },
        {
          "internalType": "address",
          "name": "recipient_",
          "type": "address"
        }
      ],
      "name": "swapTPforTCto",
      "outputs": [
        {
          "internalType": "uint256",
          "name": "qACFee",
          "type": "uint256"
        },
        {
          "internalType": "uint256",
          "name": "qTCMinted",
          "type": "uint256"
        }
      ],
      "stateMutability": "payable",
      "type": "function"
    },
    {
      "inputs": [
        {
          "internalType": "uint8",
          "name": "iFrom_",
          "type": "uint8"
        },
        {
          "internalType": "uint8",
          "name": "iTo_",
          "type": "uint8"
        },
        {
          "internalType": "uint256",
          "name": "qTP_",
          "type": "uint256"
        },
        {
          "internalType": "uint256",
          "name": "qTPmin_",
          "type": "uint256"
        }
      ],
      "name": "swapTPforTP",
      "outputs": [
        {
          "internalType": "uint256",
          "name": "qACFee",
          "type": "uint256"
        },
        {
          "internalType": "uint256",
          "name": "qTPMinted",
          "type": "uint256"
        }
      ],
      "stateMutability": "payable",
      "type": "function"
    },
    {
      "inputs": [],
      "name": "swapTPforTPFee",
      "outputs": [
        {
          "internalType": "uint256",
          "name": "",
          "type": "uint256"
        }
      ],
      "stateMutability": "view",
      "type": "function"
    },
    {
      "inputs": [
        {
          "internalType": "uint8",
          "name": "iFrom_",
          "type": "uint8"
        },
        {
          "internalType": "uint8",
          "name": "iTo_",
          "type": "uint8"
        },
        {
          "internalType": "uint256",
          "name": "qTP_",
          "type": "uint256"
        },
        {
          "internalType": "uint256",
          "name": "qTPmin_",
          "type": "uint256"
        },
        {
          "internalType": "address",
          "name": "recipient_",
          "type": "address"
        }
      ],
      "name": "swapTPforTPto",
      "outputs": [
        {
          "internalType": "uint256",
          "name": "qACFee",
          "type": "uint256"
        },
        {
          "internalType": "uint256",
          "name": "qTPMinted",
          "type": "uint256"
        }
      ],
      "stateMutability": "payable",
      "type": "function"
    },
    {
      "inputs": [],
      "name": "tcMintFee",
      "outputs": [
        {
          "internalType": "uint256",
          "name": "",
          "type": "uint256"
        }
      ],
      "stateMutability": "view",
      "type": "function"
    },
    {
      "inputs": [],
      "name": "tcRedeemFee",
      "outputs": [
        {
          "internalType": "uint256",
          "name": "",
          "type": "uint256"
        }
      ],
      "stateMutability": "view",
      "type": "function"
    },
    {
      "inputs": [],
      "name": "tcToken",
      "outputs": [
        {
          "internalType": "contract MocTC",
          "name": "",
          "type": "address"
        }
      ],
      "stateMutability": "view",
      "type": "function"
    },
    {
      "inputs": [
        {
          "internalType": "uint256",
          "name": "",
          "type": "uint256"
        }
      ],
      "name": "tpCtarg",
      "outputs": [
        {
          "internalType": "uint256",
          "name": "",
          "type": "uint256"
        }
      ],
      "stateMutability": "view",
      "type": "function"
    },
    {
      "inputs": [
        {
          "internalType": "uint256",
          "name": "",
          "type": "uint256"
        }
      ],
      "name": "tpEma",
      "outputs": [
        {
          "internalType": "uint256",
          "name": "ema",
          "type": "uint256"
        },
        {
          "internalType": "uint256",
          "name": "sf",
          "type": "uint256"
        }
      ],
      "stateMutability": "view",
      "type": "function"
    },
    {
      "inputs": [
        {
          "internalType": "uint256",
          "name": "",
          "type": "uint256"
        }
      ],
      "name": "tpMintFee",
      "outputs": [
        {
          "internalType": "uint256",
          "name": "",
          "type": "uint256"
        }
      ],
      "stateMutability": "view",
      "type": "function"
    },
    {
      "inputs": [
        {
          "internalType": "uint256",
          "name": "",
          "type": "uint256"
        }
      ],
      "name": "tpRedeemFee",
      "outputs": [
        {
          "internalType": "uint256",
          "name": "",
          "type": "uint256"
        }
      ],
      "stateMutability": "view",
      "type": "function"
    },
    {
      "inputs": [
        {
          "internalType": "uint256",
          "name": "",
          "type": "uint256"
        }
      ],
      "name": "tpTokens",
      "outputs": [
        {
          "internalType": "contract IMocRC20",
          "name": "",
          "type": "address"
        }
      ],
      "stateMutability": "view",
      "type": "function"
    },
    {
      "inputs": [],
      "name": "unpause",
      "outputs": [],
      "stateMutability": "nonpayable",
      "type": "function"
    },
    {
      "inputs": [],
      "name": "updateEmas",
      "outputs": [],
      "stateMutability": "nonpayable",
      "type": "function"
    },
    {
      "inputs": [
        {
          "internalType": "address",
          "name": "newImplementation",
          "type": "address"
        }
      ],
      "name": "upgradeTo",
      "outputs": [],
      "stateMutability": "nonpayable",
      "type": "function"
    },
    {
      "inputs": [
        {
          "internalType": "address",
          "name": "newImplementation",
          "type": "address"
        },
        {
          "internalType": "bytes",
          "name": "data",
          "type": "bytes"
        }
      ],
      "name": "upgradeToAndCall",
      "outputs": [],
      "stateMutability": "payable",
      "type": "function"
    },
    {
      "stateMutability": "payable",
      "type": "receive"
    }
  ],
  "bytecode": "0x60a0604052306080523480156200001557600080fd5b506200002062000030565b6200002a62000030565b620000f2565b600054610100900460ff16156200009d5760405162461bcd60e51b815260206004820152602760248201527f496e697469616c697a61626c653a20636f6e747261637420697320696e697469604482015266616c697a696e6760c81b606482015260840160405180910390fd5b60005460ff9081161015620000f0576000805460ff191660ff9081179091556040519081527f7f26b83ff96e1f2b6a682f133852f6798a09c465da95921460cefb38474024989060200160405180910390a15b565b6080516153b16200012a600039600081816114ad015281816114ed015281816116a1015281816116e101526117a601526153b16000f3fe6080604052600436106105ae5760003560e01c806370713468116102f35780639fd0506d1161019b578063de8d520a116100e7578063f26114aa116100a0578063f375cfba1161007a578063f375cfba14611075578063fa6e83bd1461108c578063fa79589e146110a3578063fda70f8b146110c357600080fd5b8063f26114aa1461101e578063f28087781461103e578063f30b56141461105e57600080fd5b8063de8d520a14610f79578063e401294514610f8e578063e4c0aaf414610fae578063e6b1627c14610fce578063e7c2597814610fee578063e8859a151461100957600080fd5b8063c00f538d11610154578063cf1cec401161012e578063cf1cec4014610f11578063d1a0faa014610f24578063db79607214610f39578063de08160f14610f5957600080fd5b8063c00f538d14610ebc578063c039cc6914610edc578063c84353c914610ef157600080fd5b80639fd0506d14610e19578063a8e9ac3014610e3f578063aea038dc14610e58578063b3903b3914610e6f578063bb4872de14610e82578063becaca6b14610e9c57600080fd5b8063826fcd581161025a57806391c59287116102135780639abb14c9116101ed5780639abb14c914610d775780639ad6659d14610d975780639bdd7cce14610dac5780639cabfc0014610dcc57600080fd5b806391c5928714610d3057806397e922e714610d435780639853c35a14610d5657600080fd5b8063826fcd5814610c985780638456cb5914610cad5780638cfa424114610cc25780638d7a72f314610cd9578063904aa85b14610cf05780639195c85b14610d1057600080fd5b80637a193c31116102ac5780637a193c3114610bea5780637a4ff1d914610c015780637a727fe814610c215780637af5758c14610c385780637cba238314610c585780637d8e031414610c7857600080fd5b80637071346814610b495780637554fffd14610b695780637750ba0c14610b805780637820a32814610ba057806378a2fd4614610bc057806379f9a91c14610bd357600080fd5b80633bc4ac0a1161045657806354a73c62116103bd5780635e2a60651161037657806368274357116103505780636827435714610af7578063685b043414610b0c57806368de913a14610b1f5780636b5488df14610b3257600080fd5b80635e2a606514610aa957806360009e0b14610ac1578063662013f414610ae257600080fd5b806354a73c6214610a0f57806357271f4d14610a2f5780635852daea14610a445780635c616a7314610a575780635c975abb14610a6c5780635d65d04514610a8957600080fd5b80634e1f907a1161040f5780634e1f907a1461097a5780634f0f27ee1461099b5780634f1ef286146109b25780635210570c146109c55780635241271c146109da57806352d1902d146109fa57600080fd5b80633bc4ac0a146108c55780633f4ba83a146108e55780634017936a146108fa578063407f0e341461090f5780634b746001146109265780634d977e781461096357600080fd5b80631fb0dda0116105155780632c43bd3b116104ce578063333431fd116104a8578063333431fd1461086657806333421c381461087d5780633659cfe614610892578063383e1ead146108b257600080fd5b80632c43bd3b146108135780632d88af4a1461083357806331f64ec21461085357600080fd5b80631fb0dda0146107575780631fe6a7ad1461076c5780632069f7531461078c57806323b98cde146107ac57806327eab2a1146107dc5780632a20d57d146107fc57600080fd5b80630d6ac463116105675780630d6ac463146106ad5780630e0a8fd2146106cd57806317574bc5146106ed57806317df0ab81461070d5780631820506f1461072d5780631867e2f51461074057600080fd5b806301dde6ef146105c357806301f1b684146105e357806304a527d8146106205780630c340a24146106485780630c36d897146106685780630caebe431461068d57600080fd5b366105be576105bc346110da565b005b600080fd5b3480156105cf57600080fd5b506105bc6105de366004614b88565b6110f5565b3480156105ef57600080fd5b506106036105fe366004614b88565b611103565b6040516001600160a01b0390911681526020015b60405180910390f35b61063361062e366004614bcc565b61112e565b60408051928352602083019190915201610617565b34801561065457600080fd5b50609754610603906001600160a01b031681565b34801561067457600080fd5b5061067f61017e5481565b604051908152602001610617565b34801561069957600080fd5b506105bc6106a8366004614c27565b611154565b3480156106b957600080fd5b506105bc6106c8366004614c40565b61126c565b3480156106d957600080fd5b506105bc6106e8366004614b88565b611297565b3480156106f957600080fd5b50610633610708366004614c5d565b6112a5565b34801561071957600080fd5b5061067f610728366004614c8f565b6112c3565b61063361073b366004614cbb565b6112dc565b34801561074c57600080fd5b5061067f6101b35481565b34801561076357600080fd5b5061067f6112f4565b34801561077857600080fd5b506105bc610787366004614d0b565b611316565b34801561079857600080fd5b506105bc6107a7366004614b88565b611332565b3480156107b857600080fd5b50610148546107cc90610100900460ff1681565b6040519015158152602001610617565b3480156107e857600080fd5b506105bc6107f7366004614c40565b611340565b34801561080857600080fd5b5061067f61013e5481565b34801561081f57600080fd5b506105bc61082e366004614b88565b61136b565b34801561083f57600080fd5b506105bc61084e366004614c40565b611379565b61067f610861366004614b88565b6113ab565b34801561087257600080fd5b5061067f61013d5481565b34801561088957600080fd5b506105bc6113bf565b34801561089e57600080fd5b506105bc6108ad366004614c40565b6114a3565b61067f6108c0366004614d28565b611582565b3480156108d157600080fd5b506105bc6108e0366004614b88565b611594565b3480156108f157600080fd5b506105bc6115a2565b34801561090657600080fd5b5061067f61163c565b34801561091b57600080fd5b5061067f61013c5481565b34801561093257600080fd5b50610946610941366004614b88565b61165f565b604080519283526001600160a01b03909116602083015201610617565b34801561096f57600080fd5b5061067f6101b25481565b34801561098657600080fd5b5061014454610603906001600160a01b031681565b3480156109a757600080fd5b5061067f6101395481565b6105bc6109c0366004614d7e565b611697565b3480156109d157600080fd5b506105bc611763565b3480156109e657600080fd5b5061067f6109f5366004614b88565b611777565b348015610a0657600080fd5b5061067f611799565b348015610a1b57600080fd5b5061067f610a2a366004614e42565b61184c565b348015610a3b57600080fd5b5061067f611864565b610633610a52366004614e83565b611890565b348015610a6357600080fd5b506105bc6118b0565b348015610a7857600080fd5b5060ca54610100900460ff166107cc565b348015610a9557600080fd5b5061067f610aa4366004614eb6565b611905565b348015610ab557600080fd5b506105bc602a61027c55565b348015610acd57600080fd5b5061013154610603906001600160a01b031681565b348015610aee57600080fd5b5061067f611912565b348015610b0357600080fd5b506105bc611924565b610633610b1a366004614d28565b61193b565b610633610b2d366004614e83565b61194e565b348015610b3e57600080fd5b5061067f6101465481565b348015610b5557600080fd5b506105bc610b64366004614b88565b611962565b348015610b7557600080fd5b5061067f6101375481565b348015610b8c57600080fd5b506105bc610b9b366004614b88565b611970565b348015610bac57600080fd5b50610633610bbb366004614ee6565b61197e565b610633610bce366004614f08565b61199f565b348015610bdf57600080fd5b5061067f6101405481565b348015610bf657600080fd5b5061067f6101325481565b348015610c0d57600080fd5b506105bc610c1c366004614b88565b6119b3565b348015610c2d57600080fd5b5061067f61017f5481565b348015610c4457600080fd5b506105bc610c53366004614b88565b6119c1565b348015610c6457600080fd5b506105bc610c73366004614b88565b6119cf565b348015610c8457600080fd5b5061067f610c93366004614b88565b6119dd565b348015610ca457600080fd5b5061067f6119ee565b348015610cb957600080fd5b506105bc611a09565b348015610cce57600080fd5b5061067f6101475481565b348015610ce557600080fd5b5061067f61027c5481565b348015610cfc57600080fd5b5061067f610d0b366004614b88565b611aa4565b348015610d1c57600080fd5b5061067f610d2b366004614b88565b611b6e565b61067f610d3e366004614f45565b611b7b565b610633610d51366004614f08565b611b8d565b348015610d6257600080fd5b5061014354610603906001600160a01b031681565b348015610d8357600080fd5b5061067f610d92366004614ee6565b611ba1565b348015610da357600080fd5b506107cc611baf565b348015610db857600080fd5b50610633610dc7366004614f6f565b611bda565b348015610dd857600080fd5b50610e04610de7366004614c40565b610134602052600090815260409020805460019091015460ff1682565b60408051928352901515602083015201610617565b348015610e2557600080fd5b5060ca54610603906201000090046001600160a01b031681565b348015610e4b57600080fd5b5061017e544310156107cc565b348015610e6457600080fd5b5061067f61013b5481565b61067f610e7d366004614eb6565b611beb565b348015610e8e57600080fd5b5060ca546107cc9060ff1681565b348015610ea857600080fd5b506105bc610eb7366004614b88565b611bf9565b348015610ec857600080fd5b506105bc610ed7366004614b88565b611c07565b348015610ee857600080fd5b5061067f611c15565b348015610efd57600080fd5b506105bc610f0c366004614b88565b611c30565b610633610f1f366004614f45565b611c3e565b348015610f3057600080fd5b506105bc611c51565b348015610f4557600080fd5b506105bc610f54366004614fae565b611c8b565b348015610f6557600080fd5b5061067f610f74366004614b88565b612018565b348015610f8557600080fd5b5061067f612029565b348015610f9a57600080fd5b5061067f610fa9366004614fc0565b612046565b348015610fba57600080fd5b506105bc610fc9366004614c40565b612054565b348015610fda57600080fd5b50610633610fe9366004614b88565b61207e565b348015610ffa57600080fd5b50610148546107cc9060ff1681565b34801561101557600080fd5b5061067f6120ad565b34801561102a57600080fd5b506105bc611039366004614fae565b6120ce565b34801561104a57600080fd5b506105bc611059366004614b88565b612358565b34801561106a57600080fd5b5061067f61012f5481565b34801561108157600080fd5b5061067f61013f5481565b34801561109857600080fd5b5061067f6101385481565b3480156110af57600080fd5b5061067f6110be366004614b88565b612366565b3480156110cf57600080fd5b5061067f61013a5481565b8061012f60008282546110ed9190615004565b909155505050565b6110fd6123a0565b61013855565b610133818154811061111457600080fd5b6000918252602090912001546001600160a01b0316905081565b6000806111468760ff168760ff168787343389612429565b915091509550959350505050565b600054610100900460ff16158080156111745750600054600160ff909116105b8061118e5750303b15801561118e575060005460ff166001145b6111f65760405162461bcd60e51b815260206004820152602e60248201527f496e697469616c697a61626c653a20636f6e747261637420697320616c72656160448201526d191e481a5b9a5d1a585b1a5e995960921b60648201526084015b60405180910390fd5b6000805460ff191660011790558015611219576000805461ff0019166101001790555b6112228261260d565b8015611268576000805461ff0019169055604051600181527f7f26b83ff96e1f2b6a682f133852f6798a09c465da95921460cefb38474024989060200160405180910390a15b5050565b6112746123a0565b61014380546001600160a01b0319166001600160a01b0392909216919091179055565b61129f6123a0565b61013d55565b6000806112b6868686863333612685565b9150915094509492505050565b60006112d28484843333612812565b90505b9392505050565b6000806112b68660ff168660ff168686343333612429565b6000806000611301612929565b9150915061130f82826129d5565b9250505090565b61131e6123a0565b610148805460ff1916911515919091179055565b61133a6123a0565b61014055565b6113486123a0565b61014480546001600160a01b0319166001600160a01b0392909216919091179055565b6113736123a0565b61014755565b6113816123a0565b60ca80546001600160a01b03909216620100000262010000600160b01b0319909216919091179055565b60006113b982343333612a11565b92915050565b6113c7612b23565b6101485460ff1680156113e3575061014854610100900460ff16155b80156113f257506113f2611baf565b156114a157610148805461ff0019166101001790556040517f8b77276c97a5709f0d6db52329848a254eb760ce8be80d281799f633bdb69e8390600090a161013160009054906101000a90046001600160a01b03166001600160a01b0316638456cb596040518163ffffffff1660e01b8152600401600060405180830381600087803b15801561148157600080fd5b505af1158015611495573d6000803e3d6000fd5b505050506114a1612b4c565b565b6001600160a01b037f00000000000000000000000000000000000000000000000000000000000000001630036114eb5760405162461bcd60e51b81526004016111ed90615017565b7f00000000000000000000000000000000000000000000000000000000000000006001600160a01b0316611534600080516020615335833981519152546001600160a01b031690565b6001600160a01b03161461155a5760405162461bcd60e51b81526004016111ed90615063565b61156381612ca8565b6040805160008082526020820190925261157f91839190612cb0565b50565b60006112d28460ff1684343386612e20565b61159c6123a0565b61017f55565b60ca54610100900460ff166115ca57604051637c7fd07960e01b815260040160405180910390fd5b60ca546201000090046001600160a01b031633146115fb57604051631d77d47760e21b815260040160405180910390fd5b60ca805461ff00191690556040513381527f5db9ee0a495bf2e6ff9c91a7834c1ba4fdd244a5e8aa4e537bd38aeae4b073aa906020015b60405180910390a1565b6000806000611649612929565b9150915061130f611658612f66565b838361304d565b610135818154811061167057600080fd5b6000918252602090912060029091020180546001909101549091506001600160a01b031682565b6001600160a01b037f00000000000000000000000000000000000000000000000000000000000000001630036116df5760405162461bcd60e51b81526004016111ed90615017565b7f00000000000000000000000000000000000000000000000000000000000000006001600160a01b0316611728600080516020615335833981519152546001600160a01b031690565b6001600160a01b03161461174e5760405162461bcd60e51b81526004016111ed90615063565b61175782612ca8565b61126882826001612cb0565b61176b6123a0565b60ca805460ff19169055565b610142818154811061178857600080fd5b600091825260209091200154905081565b6000306001600160a01b037f000000000000000000000000000000000000000000000000000000000000000016146118395760405162461bcd60e51b815260206004820152603860248201527f555550535570677261646561626c653a206d757374206e6f742062652063616c60448201527f6c6564207468726f7567682064656c656761746563616c6c000000000000000060648201526084016111ed565b5060008051602061533583398151915290565b600061185b8585853386612812565b95945050505050565b6000670de0b6b3a76400006101465461187d91906150af565b61027c5461188b9190615004565b905090565b6000806118a48560ff168585343333613071565b91509150935093915050565b6118b8612b23565b6101b35443106114a1576101b2546118d09043615004565b6101b3556040517fd3c59bda47e141a8ec5a33d241b7f71b86e30d359f83a9227d912858b60404fc90600090a16114a16131ef565b60006112d58333846131f7565b600061191c611c51565b61188b612f66565b61192c6123a0565b60ca805460ff19166001179055565b6000806118a48560ff1685343387613419565b6000806118a48560ff168585343333613556565b61196a6123a0565b61013c55565b6119786123a0565b61013955565b600080611994848461198f87611aa4565b613735565b915091509250929050565b6000806112b68660ff168686343388613071565b6119bb6123a0565b61013f55565b6119c96123a0565b61013e55565b6119d76123a0565b61014655565b610145818154811061178857600080fd5b60008060006119fb612929565b9150915061130f8282613797565b611a11612b23565b60ca546201000090046001600160a01b03163314611a4257604051631d77d47760e21b815260040160405180910390fd5b60ca5460ff16611a655760405163866099c360e01b815260040160405180910390fd5b60ca805461ff0019166101001790556040513381527f62e78cea01bee320cd4e420270b5ea74000d11b0c9f74754ebdbfc544b05a25890602001611632565b6000806101358381548110611abb57611abb6150d1565b60009182526020822060016002909202010154604080516359e02dd760e01b815281516001600160a01b039093169450839285926359e02dd792600480820193918290030181865afa158015611b15573d6000803e3d6000fd5b505050506040513d601f19601f82011682018060405250810190611b3991906150e7565b9150915080611b665760405163de4f3a0f60e01b81526001600160a01b03841660048201526024016111ed565b509392505050565b60006113b98233336131f7565b60006112d58360ff1683343333612e20565b6000806112b68660ff168686343388613556565b60006112d5838333336137b6565b6000806000611bbc612929565b915091506000611bcc8383613797565b610147541015949350505050565b600080611146878787873388612685565b60006112d583343385612a11565b611c016123a0565b61013755565b611c0f6123a0565b61013b55565b6000806000611c22612929565b9150915061130f82826138c1565b611c386123a0565b6101b255565b6000806119948460ff1684343333613419565b61017e5443106114a1576101355460005b81811015611c7b57611c73816138e5565b600101611c62565b5061157f61017f54430161017e55565b611c936123a0565b6000611ca26020830183614c40565b60405163d55fd84560e01b81523060048201529091506001600160a01b0382169063d55fd84590602401602060405180830381865afa158015611ce9573d6000803e3d6000fd5b505050506040513d601f19601f82011682018060405250810190611d0d919061510c565b611d2a5760405163e6c4247b60e01b815260040160405180910390fd5b6000611d3c6040840160208501614c40565b6001600160a01b0383166000908152610134602052604090206001015490915060ff1615611d7d57604051633458f6c560e01b815260040160405180910390fd5b6101338054604080518082018252828152600160208083018281526001600160a01b03808a1660008181526101348552878120965187559251958501805496151560ff199097169690961790955587548085019098557f92e985329fb94cc1b424ebb0f7f2929b6d27383ca94c0ec71c44fb48bdf96d2c90970180546001600160a01b031990811690951790558451808601865281815288881681840190815261013580548087018255908452915160029283027fdf37d27e88e3bd0b85262482997e409a463f5be0ebb19232abf994dd8474090d81019190915590517fdf37d27e88e3bd0b85262482997e409a463f5be0ebb19232abf994dd8474090e9091018054919099169516949094179096556101458054808401909155898501357fed95984add84c4014c7f9d66a1b73e788e2db64f5763fa861ad52da204f71b2b90910155610141805480840190915560608a01357fb3926254d0163c91fc94bf08f3f8062ff5d48635dfa7dbef8168ad7d4847a75890910155610142805480840190915560808a01357f7917ad5f1bd6fa6d4f9128143f89bcba30c5b503e76ecd2dd7562ddf9706ae1990910155835180850190945260a0890135845260c089013590840190815261017d805480840182559087529351939092027f0f2aec2a8c6072690b3c86d5c08e34587f891268d22d8bdca6e66838c0f2f22d81019390935590517f0f2aec2a8c6072690b3c86d5c08e34587f891268d22d8bdca6e66838c0f2f22e909201919091556101498054909101815590915261014a611fc282611aa4565b8154600181018355600092835260209092209091015560405181907f6417e5a3c1e0e5dae98b8fe718c4babdfcb35e0d7b5e1b9641b5914756f5d8e39061200a908790615129565b60405180910390a250505050565b610141818154811061178857600080fd5b600080612034612929565b915050612040816139ff565b91505090565b60006112d2848433856137b6565b61205c6123a0565b609780546001600160a01b0319166001600160a01b0392909216919091179055565b61017d818154811061208f57600080fd5b60009182526020909120600290910201805460019091015490915082565b60006101b35443106120bf5750600090565b436101b35461188b9190615196565b6120d66123a0565b6000610134816120e96020850185614c40565b6001600160a01b0316815260208082019290925260409081016000208151808301909252805482526001015460ff161515918101829052915061213f5760405163e6c4247b60e01b815260040160405180910390fd5b8051610135805482908110612156576121566150d1565b6000918252602091829020600160029092020101546001600160a01b0316906121859060408601908601614c40565b6001600160a01b0316146122785760006121a56040850160208601614c40565b90506000816001600160a01b03166359e02dd76040518163ffffffff1660e01b81526004016040805180830381865afa1580156121e6573d6000803e3d6000fd5b505050506040513d601f19601f8201168201806040525081019061220a91906150e7565b9150508061222b5760405163e6c4247b60e01b815260040160405180910390fd5b816101358481548110612240576122406150d1565b906000526020600020906002020160010160006101000a8154816001600160a01b0302191690836001600160a01b0316021790555050505b82604001356101458281548110612291576122916150d1565b9060005260206000200181905550826060013561014182815481106122b8576122b86150d1565b9060005260206000200181905550826080013561014282815481106122df576122df6150d1565b90600052602060002001819055508260c0013561017d8281548110612306576123066150d1565b906000526020600020906002020160010181905550807f6417e5a3c1e0e5dae98b8fe718c4babdfcb35e0d7b5e1b9641b5914756f5d8e38460405161234b9190615129565b60405180910390a2505050565b6123606123a0565b61013a55565b60008061237283611aa4565b905060008061237f612929565b9150915061185b61238e612f66565b6123988786613a1e565b858585613a90565b60975460405163d994d6d560e01b81523360048201526001600160a01b039091169063d994d6d590602401602060405180830381865afa1580156123e8573d6000803e3d6000fd5b505050506040513d601f19601f8201168201806040525081019061240c919061510c565b6114a157604051631dd1b1b560e21b815260040160405180910390fd5b600080612434613ad9565b61243c612b23565b87890361245c57604051632a9ffab760e21b815260040160405180910390fd5b60006124678a611aa4565b905060006124748a611aa4565b90506124808b83613b03565b61248a8a82613b03565b60006124978c8b85613735565b509050826124a5838c6151a9565b6124af91906150af565b9350888410806124bd575083155b156124e55760405163272e3f5960e21b8152600481018a9052602481018590526044016111ed565b6124ef8c84613a1e565b6124f98c84613a1e565b111561252d576000612509611912565b905060008061251783613b66565b915091506125298e8887868686613bb4565b5050505b61253a8161013c54613c08565b94508785111561256757604051630b63f1a760e01b815260048101899052602481018690526044016111ed565b604080518c8152602081018c9052908101859052606081018690528c908c908c906001600160a01b03808b1691908c169085907f77d2223aca09d9ec6e49d1b8cdcb0b40dec540a5f65daf1ecab069c822bff4609060800160405180910390a45050506125d78b85600089613c27565b6125e48c8b60008a613cb2565b60006125f08987613d13565b90506125fd888288613d1f565b5050505097509795505050505050565b600054610100900460ff166126345760405162461bcd60e51b81526004016111ed906151c0565b61266061264961020083016101e08401614c40565b61265b61022084016102008501614c40565b613d78565b61266981613dbb565b612677816102200135614020565b61157f81610240013561407a565b600080612690613ad9565b612698612b23565b60006126a389611aa4565b90506126af8982613b03565b6000806126be61014754613b66565b91509150670de0b6b3a76400006101325484848d6126dc91906151a9565b6126e691906151a9565b6126f091906150af565b6126fa91906150af565b93508884111561272757604051637a031da360e11b8152600481018a9052602481018590526044016111ed565b6000806127408d8d888861273b89896129d5565b6140b8565b909250905061274f8183615196565b96508987101561277c576040516354cde31360e01b8152600481018b9052602481018890526044016111ed565b604080518d815260208101889052908101889052606081018290528d908d9089906001600160a01b038c811691908e169085907f879e4419a6544de6ea456f6344b2fcf0c3b9fc0e6738c82fa4026a8789747c539060800160405180910390a45050506127ea8c838b6140f8565b6127f78d8760008c613cb2565b612802888883613d1f565b5050505050965096945050505050565b600061281c613ad9565b612824612b23565b600061282f87611aa4565b905061283b8782613b03565b61284761014654613b66565b5050600080612857898985613735565b915091508160000361287c5760405163f3e39b5d60e01b815260040160405180910390fd5b6128868183615196565b9350868410156128b3576040516354cde31360e01b815260048101889052602481018590526044016111ed565b60408051898152602081018690529081018290526001600160a01b0380871691908816908b907f4716c9926ce32100e8a5b6ad71af5500ac55514d7b0c8f80f209856c9dfaeb929060600160405180910390a461291289898489613cb2565b61291d858583613d1f565b50505095945050505050565b610135546000908190815b818110156129c057600061294782611aa4565b9050600080612956848461416f565b91509150612994826101358681548110612972576129726150d1565b90600052602060002090600202016000015461298e9190615004565b846141d6565b61299e9088615004565b96506129aa8187615004565b95505050506129b98160010190565b9050612934565b506129ce8261013754613c08565b9150509091565b6000610132546000036129f15750670de0b6b3a76400006113b9565b6112d5836129fe846139ff565b612a089190615196565b610132546141d6565b6000612a1b613ad9565b612a23612b23565b600080612a3261014654613b66565b91509150600080612a448985856141eb565b9092509050612a538183615004565b945087851115612a8057604051630b63f1a760e01b815260048101899052602481018690526044016111ed565b84600003612aa15760405163f3e39b5d60e01b815260040160405180910390fd5b604080518a8152602081018790529081018290526001600160a01b0380881691908916907f62f0126e99b1936535db27571cea2b2d54db14a471b9203b29b31b89c300e4f69060600160405180910390a3612afd898388614231565b6000612b098987613d13565b9050612b16888284613d1f565b5050505050949350505050565b60ca54610100900460ff16156114a15760405163783bb6c960e11b815260040160405180910390fd5b60006101305461012f54612b609190615004565b905080600003612b6d5750565b610135546000808267ffffffffffffffff811115612b8d57612b8d614d68565b604051908082528060200260200182016040528015612bb6578160200160208202803683370190505b50905060005b83811015612c4757612bcd81611aa4565b828281518110612bdf57612bdf6150d1565b602002602001018181525050612c336101358281548110612c0257612c026150d1565b906000526020600020906002020160000154838381518110612c2657612c266150d1565b60200260200101516141d6565b612c3d9084615004565b9250600101612bbc565b5060005b83811015612ca1576101368584848481518110612c6a57612c6a6150d1565b6020026020010151612c7c91906151a9565b612c8691906150af565b81546001808201845560009384526020909320015501612c4b565b5050505050565b61157f6123a0565b7f4910fdfa16fed3260ed0e7147f7cc6da11a60208b5b9406d12a635614ffd91435460ff1615612ce857612ce383614275565b505050565b826001600160a01b03166352d1902d6040518163ffffffff1660e01b8152600401602060405180830381865afa925050508015612d42575060408051601f3d908101601f19168201909252612d3f9181019061520b565b60015b612da55760405162461bcd60e51b815260206004820152602e60248201527f45524331393637557067726164653a206e657720696d706c656d656e7461746960448201526d6f6e206973206e6f74205555505360901b60648201526084016111ed565b6000805160206153358339815191528114612e145760405162461bcd60e51b815260206004820152602960248201527f45524331393637557067726164653a20756e737570706f727465642070726f786044820152681a58589b195555525160ba1b60648201526084016111ed565b50612ce3838383614311565b6000612e2a613ad9565b612e32612b23565b6000612e3d87611aa4565b9050612e498782613b03565b6000612e53611912565b9050600080612e6183613b66565b91509150612e738a8a86868686613bb4565b600080612e818c8c88614336565b9092509050612e908183615004565b965089871115612ebd57604051630b63f1a760e01b8152600481018b9052602481018890526044016111ed565b86600003612ede5760405163f3e39b5d60e01b815260040160405180910390fd5b604080518c8152602081018990529081018290526001600160a01b03808a1691908b16908e907f05f8dfb23a03c1f9d37a1860fc8038ffdc6dec3e24db38cdb09cc0176b35453f9060600160405180910390a4612f3d8c8c848b613c27565b6000612f498b89613d13565b9050612f568a8284613d1f565b5050505050505095945050505050565b6101355460009081908190815b81811015613023576000612f8682611aa4565b90506000612f94838361416f565b5090506000612fe0670de0b6b3a7640000836101358781548110612fba57612fba6150d1565b906000526020600020906002020160000154612fd69190615004565b61298e91906151a9565b905080612fed8585613a1e565b612ff791906151a9565b6130019088615004565b965061300d8187615004565b955050505061301c8160010190565b9050612f73565b508160000361303b5761014654600202935050505090565b61304582846150af565b935050505090565b60008061305b85858561437e565b905061306784846129d5565b61185b90826150af565b60008061307c613ad9565b613084612b23565b600061308f89611aa4565b905061309b8982613b03565b6000806130aa61014654613b66565b9150915060006130bb8c8c86613735565b5090506130f4610132548c6130d091906151a9565b85856130db866139ff565b6130e59190615196565b6130ef91906151a9565b6141d6565b945089851080613102575084155b1561312a5760405163f577bef560e01b8152600481018b9052602481018690526044016111ed565b6131378161013d54613c08565b95508886111561316457604051630b63f1a760e01b8152600481018a9052602481018790526044016111ed565b604080518c8152602081018790529081018790528c908c906001600160a01b03808b1691908c169084907ff77b7563e0c6c33e0b804a715d94c82baea057d2e6f8bfdc211fe04d3c03bad99060600160405180910390a450506131ca8c8c60008b613cb2565b6131d685600089614231565b60006131e28a88613d13565b9050612802898289613d1f565b6114a16143c8565b6000613201612b23565b61014854610100900460ff1661322a5760405163031b0d3560e11b815260040160405180910390fd5b60006101338581548110613240576132406150d1565b6000918252602090912001546040516370a0823160e01b81526001600160a01b038681166004830152909116906370a0823190602401602060405180830381865afa158015613293573d6000803e3d6000fd5b505050506040513d601f19601f820116820180604052508101906132b7919061520b565b9050806000036132e457604051633fe8c5eb60e01b815260048101829052602481018290526044016111ed565b600061013686815481106132fa576132fa6150d1565b9060005260206000200154905061331182826141d6565b92506101338681548110613327576133276150d1565b600091825260209091200154604051632770a7eb60e21b81526001600160a01b0387811660048301526024820185905290911690639dc29fac90604401600060405180830381600087803b15801561337e57600080fd5b505af1158015613392573d6000803e3d6000fd5b5050505030318311156133a457303192505b836001600160a01b0316856001600160a01b0316877f4716c9926ce32100e8a5b6ad71af5500ac55514d7b0c8f80f209856c9dfaeb92858760006040516133fe939291909283526020830191909152604082015260600190565b60405180910390a46134108484614589565b50509392505050565b600080613424613ad9565b61342c612b23565b600080600061343a8a611aa4565b90506134468a82613b03565b61345261014754613b66565b505061345e898261463f565b9195509350915061346f8284615004565b94508785111561349c57604051630b63f1a760e01b815260048101899052602481018690526044016111ed565b846000036134bd5760405163f3e39b5d60e01b815260040160405180910390fd5b60408051858152602081018b9052908101869052606081018390526001600160a01b0380881691908916908c907fcd3821e3a6afec66fdfa7a942b879811bb9919b2f270de090b6e00178cd7eaee9060800160405180910390a4613522848488614231565b61352f8a8a600089613c27565b600061353b8987613d13565b9050613548888285613d1f565b505050509550959350505050565b600080613561613ad9565b613569612b23565b600061357489611aa4565b90506135808982613b03565b600061358a611912565b905060008061359883613b66565b915091506135a88b8484846146ce565b60006135b58c8484614708565b509050806000036135d95760405163f3e39b5d60e01b815260040160405180910390fd5b670de0b6b3a76400006101325486856135f1866139ff565b6135fb9190615196565b8f61360691906151a9565b61361091906151a9565b61361a91906150af565b61362491906150af565b95506136348d8787878787613bb4565b8a86101561365f5760405163272e3f5960e21b8152600481018c9052602481018790526044016111ed565b61366c8161013e54613c08565b96508987111561369957604051630b63f1a760e01b8152600481018b9052602481018890526044016111ed565b604080518d8152602081018890529081018890528d908d906001600160a01b03808c1691908d169084907f0b0ee95633545edabb63afd3c3962a133536b36e2372f68c3c2722710ee0cd899060600160405180910390a450506136fe8c60008b6140f8565b61370b8d8760008b613c27565b60006137178b89613d13565b90506137248a828a613d1f565b505050505050965096945050505050565b6000808360000361375957604051632a9ffab760e21b815260040160405180910390fd5b61376384846141d6565b915061378d82610142878154811061377d5761377d6150d1565b9060005260206000200154613c08565b9050935093915050565b6000826000036137aa57506000196113b9565b6112d561298e836139ff565b60006137c0613ad9565b6137c8612b23565b60006137d2611912565b90506000806137e083613b66565b915091506137f0888484846146ce565b6000806137fe8a8585614708565b91509150816000036138235760405163f3e39b5d60e01b815260040160405180910390fd5b61382d8183615196565b95508886101561385a576040516354cde31360e01b8152600481018a9052602481018790526044016111ed565b604080518b8152602081018890529081018290526001600160a01b0380891691908a16907f2d184907c04672620e3c88a12a39d6a603dd26373427842aa172eb3e5bfcff079060600160405180910390a36138b68a838a6140f8565b612b16878783613d1f565b6000806138cd836139ff565b90506138dd816130ef8682615196565b949350505050565b600061017d82815481106138fb576138fb6150d1565b6000918252602080832060408051808201909152600290930201805483526001015490820152915061392c83611aa4565b905060008260200151670de0b6b3a76400006139489190615196565b835161395491906151a9565b9050600082846020015161396891906151a9565b90506000670de0b6b3a764000061397f8385615004565b61398991906150af565b90508061017d87815481106139a0576139a06150d1565b6000918252602090912060029091020155845160405187917f19156e9379c7bbbce8f646ce5ee30ba860b8f954717405f3d5859a6c1a21ae60916139ef91908590918252602082015260400190565b60405180910390a2505050505050565b6000816101305461012f54613a149190615004565b6113b99190615196565b6000806101458481548110613a3557613a356150d1565b90600052602060002001549050600061017d8581548110613a5857613a586150d1565b9060005260206000209060020201600001549050838110613a7b575090506113b9565b80613a8685846151a9565b61185b91906150af565b6000670de0b6b3a7640000613aa58187615196565b85613ab189878761437e565b613abb91906151a9565b613ac591906150af565b613acf91906150af565b9695505050505050565b61014854610100900460ff16156114a157604051631ca61d7760e01b815260040160405180910390fd5b613b0d8282614749565b6101498381548110613b2157613b216150d1565b906000526020600020016000828254613b3a9190615224565b925050819055508061014a8381548110613b5657613b566150d1565b6000918252602090912001555050565b600080613b71612929565b90925090506000613b828383613797565b9050838111613bae57604051637912120160e01b815260048101829052602481018590526044016111ed565b50915091565b6000613bc08786613a1e565b90506000613bd18583888787613a90565b905086811015613bfe5760405163c39b739f60e01b815260048101889052602481018290526044016111ed565b5050505050505050565b6000670de0b6b3a7640000613c1d83856151a9565b6112d591906150af565b613c328484846147c5565b6101338481548110613c4657613c466150d1565b6000918252602090912001546040516340c10f1960e01b81526001600160a01b03838116600483015260248201869052909116906340c10f19906044015b600060405180830381600087803b158015613c9e57600080fd5b505af1158015613bfe573d6000803e3d6000fd5b613cbd848484614809565b6101338481548110613cd157613cd16150d1565b600091825260209091200154604051632770a7eb60e21b81526001600160a01b0383811660048301526024820186905290911690639dc29fac90604401613c84565b60006112d58284615196565b6000613d2e6101395483613c08565b90508061012f6000828254613d439190615004565b909155505061014354613d68906001600160a01b0316613d638385615196565b614589565b613d728484614589565b50505050565b600054610100900460ff16613d9f5760405162461bcd60e51b81526004016111ed906151c0565b613da7614862565b613db082614889565b6112688160016148b9565b600054610100900460ff16613de25760405162461bcd60e51b81526004016111ed906151c0565b670de0b6b3a764000081606001351015613e0f57604051632a9ffab760e21b815260040160405180910390fd5b613e1c8160a0013561491c565b613e298160c0013561491c565b613e368160e0013561491c565b613e4481610100013561491c565b613e5281610120013561491c565b613e6081610140013561491c565b613e6e81610160013561491c565b613e7c81610180013561491c565b613e98613e936101c08301356101a0840135615004565b61491c565b613ea56020820182614c40565b61013180546001600160a01b0319166001600160a01b0392909216918217905560405163d55fd84560e01b815230600482015263d55fd84590602401602060405180830381865afa158015613efe573d6000803e3d6000fd5b505050506040513d601f19601f82011682018060405250810190613f22919061510c565b613f3f5760405163e6c4247b60e01b815260040160405180910390fd5b613f4f6040820160208301614c40565b61014380546001600160a01b0319166001600160a01b0392909216919091179055613f806060820160408301614c40565b61014480546001600160a01b0319166001600160a01b039290921691909117905560608101356101465560808101356101475560a08101356101395560c081013561013a5560e081013561013b5561010081013561013c5561012081013561013d556101408082013561013e5561016082013561013f5561018082013590556101a0810135610137556101c0013561013855610148805461ffff19169055565b600054610100900460ff166140475760405162461bcd60e51b81526004016111ed906151c0565b8060000361406857604051632a9ffab760e21b815260040160405180910390fd5b61017f81905561157f81430161017e55565b600054610100900460ff166140a15760405162461bcd60e51b81526004016111ed906151c0565b6101b28190556140b18143615004565b6101b35550565b6000806140c6878686613735565b5091506140d38684613c08565b6140dd9083615004565b91506140ec8261013f54613c08565b90509550959350505050565b6141028383614945565b61013154604051632770a7eb60e21b81526001600160a01b0383811660048301526024820186905290911690639dc29fac906044015b600060405180830381600087803b15801561415257600080fd5b505af1158015614166573d6000803e3d6000fd5b50505050505050565b600080600061417e8585614749565b6101498681548110614192576141926150d1565b90600052602060002001546141a79190615224565b905060008113156141ce578091506141cb6141c56101385486613c08565b83613c08565b92505b509250929050565b600081613c1d670de0b6b3a7640000856151a9565b6000808460000361420f57604051632a9ffab760e21b815260040160405180910390fd5b6142228561421d86866129d5565b613c08565b915061378d8261013a54613c08565b61423b838361497b565b610131546040516340c10f1960e01b81526001600160a01b03838116600483015260248201869052909116906340c10f1990604401614138565b6001600160a01b0381163b6142e25760405162461bcd60e51b815260206004820152602d60248201527f455243313936373a206e657720696d706c656d656e746174696f6e206973206e60448201526c1bdd08184818dbdb9d1c9858dd609a1b60648201526084016111ed565b60008051602061533583398151915280546001600160a01b0319166001600160a01b0392909216919091179055565b61431a8361499d565b6000825111806143275750805b15612ce357613d7283836149dd565b6000808360000361435a57604051632a9ffab760e21b815260040160405180910390fd5b61436484846141d6565b915061378d82610141878154811061377d5761377d6150d1565b60008361438b8484613797565b11614398575060006112d5565b6143a283856151a9565b670de0b6b3a76400006143b4846139ff565b6143be91906151a9565b6112d29190615196565b61013554600090818167ffffffffffffffff8111156143e9576143e9614d68565b604051908082528060200260200182016040528015614412578160200160208202803683370190505b50905060005b8281101561450657600061442b82611aa4565b90506144378282613b03565b6000610149838154811061444d5761444d6150d1565b9060005260206000200154905060008113156144fc576144796144736101385484613c08565b82613c08565b84848151811061448b5761448b6150d1565b60209081029190910101526144a08187615004565b9550600061014984815481106144b8576144b86150d1565b90600052602060002001819055506144fc838585815181106144dc576144dc6150d1565b6020908102919091010151610144546000906001600160a01b0316613c27565b5050600101614418565b50821561454b5761451a8361013754613c08565b92508261012f600082825461452f9190615196565b90915550506101435461454b906001600160a01b031684614589565b7fae5116a8119d08673a0f1dfa7546b95da4bd54bb17feda7c61130ac7859152f6838260405161457c92919061524c565b60405180910390a1505050565b614591614ac8565b8015614634576001600160a01b0382166145be5760405163e6c4247b60e01b815260040160405180910390fd5b6000826001600160a01b03168260405160006040518083038185875af1925050503d806000811461460b576040519150601f19603f3d011682016040523d82523d6000602084013e614610565b606091505b5050905080614632576040516312171d8360e31b815260040160405180910390fd5b505b611268600161021855565b600080600080600061464f612929565b91509150600061465f83836129d5565b905086670de0b6b3a7640000614673612f66565b61467d9190615196565b614687908a6151a9565b61469191906150af565b945061469d85826141d6565b95506146a988886141d6565b6146b39086615004565b94506146c28561014054613c08565b93505050509250925092565b60006146db84848461304d565b905084811015612ca15760405163a5db715d60e01b815260048101869052602481018290526044016111ed565b6000808460000361472c57604051632a9ffab760e21b815260040160405180910390fd5b61473a8561421d86866129d5565b915061378d8261013b54613c08565b600080670de0b6b3a76400006101358581548110614769576147696150d1565b90600052602060002090600202016000015461478591906151a9565b905061479183826150af565b61014a85815481106147a5576147a56150d1565b9060005260206000200154826147bb91906150af565b6138dd919061529a565b8161013584815481106147da576147da6150d1565b906000526020600020906002020160000160008282546147fa9190615004565b90915550612ce39050816110da565b81610135848154811061481e5761481e6150d1565b9060005260206000209060020201600001600082825461483e9190615196565b925050819055508061012f60008282546148589190615196565b9091555050505050565b600054610100900460ff166114a15760405162461bcd60e51b81526004016111ed906151c0565b600054610100900460ff166148b05760405162461bcd60e51b81526004016111ed906151c0565b61157f81614b23565b600054610100900460ff166148e05760405162461bcd60e51b81526004016111ed906151c0565b60ca80546001600160a01b03909316620100000262010000600160b01b03199215159290921661ff01600160b01b031990931692909217179055565b670de0b6b3a764000081111561157f57604051632a9ffab760e21b815260040160405180910390fd5b8161013260008282546149589190615196565b925050819055508061012f60008282546149729190615196565b90915550505050565b81610132600082825461498e9190615004565b909155506112689050816110da565b6149a681614275565b6040516001600160a01b038216907fbc7cd75a20ee27fd9adebab32041f755214dbc6bffa90cc0225b39da2e5c2d3b90600090a250565b60606001600160a01b0383163b614a455760405162461bcd60e51b815260206004820152602660248201527f416464726573733a2064656c65676174652063616c6c20746f206e6f6e2d636f6044820152651b9d1c9858dd60d21b60648201526084016111ed565b600080846001600160a01b031684604051614a6091906152e5565b600060405180830381855af49150503d8060008114614a9b576040519150601f19603f3d011682016040523d82523d6000602084013e614aa0565b606091505b509150915061185b828260405180606001604052806027815260200161535560279139614b4a565b60026102185403614b1b5760405162461bcd60e51b815260206004820152601f60248201527f5265656e7472616e637947756172643a207265656e7472616e742063616c6c0060448201526064016111ed565b600261021855565b600054610100900460ff1661205c5760405162461bcd60e51b81526004016111ed906151c0565b60608315614b595750816112d5565b6112d58383815115614b6e5781518083602001fd5b8060405162461bcd60e51b81526004016111ed9190615301565b600060208284031215614b9a57600080fd5b5035919050565b803560ff81168114614bb257600080fd5b919050565b6001600160a01b038116811461157f57600080fd5b600080600080600060a08688031215614be457600080fd5b614bed86614ba1565b9450614bfb60208701614ba1565b935060408601359250606086013591506080860135614c1981614bb7565b809150509295509295909350565b60006102608284031215614c3a57600080fd5b50919050565b600060208284031215614c5257600080fd5b81356112d581614bb7565b60008060008060808587031215614c7357600080fd5b5050823594602084013594506040840135936060013592509050565b600080600060608486031215614ca457600080fd5b505081359360208301359350604090920135919050565b60008060008060808587031215614cd157600080fd5b614cda85614ba1565b9350614ce860208601614ba1565b93969395505050506040820135916060013590565b801515811461157f57600080fd5b600060208284031215614d1d57600080fd5b81356112d581614cfd565b600080600060608486031215614d3d57600080fd5b614d4684614ba1565b9250602084013591506040840135614d5d81614bb7565b809150509250925092565b634e487b7160e01b600052604160045260246000fd5b60008060408385031215614d9157600080fd5b8235614d9c81614bb7565b9150602083013567ffffffffffffffff80821115614db957600080fd5b818501915085601f830112614dcd57600080fd5b813581811115614ddf57614ddf614d68565b604051601f8201601f19908116603f01168101908382118183101715614e0757614e07614d68565b81604052828152886020848701011115614e2057600080fd5b8260208601602083013760006020848301015280955050505050509250929050565b60008060008060808587031215614e5857600080fd5b8435935060208501359250604085013591506060850135614e7881614bb7565b939692955090935050565b600080600060608486031215614e9857600080fd5b614ea184614ba1565b95602085013595506040909401359392505050565b60008060408385031215614ec957600080fd5b823591506020830135614edb81614bb7565b809150509250929050565b60008060408385031215614ef957600080fd5b50508035926020909101359150565b60008060008060808587031215614f1e57600080fd5b614f2785614ba1565b935060208501359250604085013591506060850135614e7881614bb7565b60008060408385031215614f5857600080fd5b614f6183614ba1565b946020939093013593505050565b600080600080600060a08688031215614f8757600080fd5b853594506020860135935060408601359250606086013591506080860135614c1981614bb7565b600060e08284031215614c3a57600080fd5b600080600060608486031215614fd557600080fd5b83359250602084013591506040840135614d5d81614bb7565b634e487b7160e01b600052601160045260246000fd5b808201808211156113b9576113b9614fee565b6020808252602c908201527f46756e6374696f6e206d7573742062652063616c6c6564207468726f7567682060408201526b19195b1959d85d1958d85b1b60a21b606082015260800190565b6020808252602c908201527f46756e6374696f6e206d7573742062652063616c6c6564207468726f7567682060408201526b6163746976652070726f787960a01b606082015260800190565b6000826150cc57634e487b7160e01b600052601260045260246000fd5b500490565b634e487b7160e01b600052603260045260246000fd5b600080604083850312156150fa57600080fd5b825191506020830151614edb81614cfd565b60006020828403121561511e57600080fd5b81516112d581614cfd565b60e08101823561513881614bb7565b6001600160a01b03908116835260208401359061515482614bb7565b8082166020850152505060408301356040830152606083013560608301526080830135608083015260a083013560a083015260c083013560c083015292915050565b818103818111156113b9576113b9614fee565b80820281158282048414176113b9576113b9614fee565b6020808252602b908201527f496e697469616c697a61626c653a20636f6e7472616374206973206e6f74206960408201526a6e697469616c697a696e6760a81b606082015260800190565b60006020828403121561521d57600080fd5b5051919050565b808201828112600083128015821682158216171561524457615244614fee565b505092915050565b6000604082018483526020604081850152818551808452606086019150828701935060005b8181101561528d57845183529383019391830191600101615271565b5090979650505050505050565b81810360008312801583831316838312821617156152ba576152ba614fee565b5092915050565b60005b838110156152dc5781810151838201526020016152c4565b50506000910152565b600082516152f78184602087016152c1565b9190910192915050565b60208152600082518060208401526153208160408501602087016152c1565b601f01601f1916919091016040019291505056fe360894a13ba1a3210667c828492db98dca3e2076cc3735a920a3ca505d382bbc416464726573733a206c6f772d6c6576656c2064656c65676174652063616c6c206661696c6564a2646970667358221220db3441598efa47340b2a8277dbbec0ec36348817aa8938a13ac8c179023775a664736f6c63430008110033",
  "linkReferences": {},
  "deployedLinkReferences": {},
  "devdoc": {
    "details": "Only for upgradeability testing purposes. Extends MocCACoinbase adding a new variable.",
    "kind": "dev",
    "methods": {
      "addPeggedToken((address,address,uint256,uint256,uint256,uint256,uint256))": {
        "details": "Note that the ema value, should consider `nextEmaCalculation`tpTokenAddress Pegged Token contract address to add      priceProviderAddress Pegged Token price provider contract address      tpCtarg Pegged Token target coverage [PREC]      tpMintFee additional fee pct applied on mint [PREC]      tpRedeemFee additional fee pct applied on redeem [PREC]      tpEma initial Pegged Token exponential moving average [PREC]      tpEmaSf Pegged Token smoothing factor [PREC]  Requirements: - the caller must have governance authorization. - tpTokenAddress must be a MocRC20, with mint, burn roles already settled  for this contract",
        "params": {
          "peggedTokenParams_": "params of Pegged Token to add"
        }
      },
      "calcCtargemaCA()": {
        "details": "qAC = nTP / pACtp      ctargemaCA = (ctargemaTP * qAC) / (qAC)",
        "returns": {
          "ctargemaCA": "[PREC]"
        }
      },
      "changeGovernor(address)": {
        "params": {
          "newGovernor_": "New governor address"
        }
      },
      "editPeggedToken((address,address,uint256,uint256,uint256,uint256,uint256))": {
        "details": "Note that the ema value, should consider `nextEmaCalculation`tpTokenAddress Pegged Token contract address to identify the token to edit      priceProviderAddress Pegged Token price provider contract address      tpCtarg Pegged Token target coverage [PREC]      tpMintFee additional fee pct applied on mint [PREC]      tpRedeemFee additional fee pct applied on redeem [PREC]      tpEma initial Pegged Token exponential moving average [PREC]      tpEmaSf Pegged Token smoothing factor [PREC]  Requirements: - the caller must have governance authorization. - the tpTokenAddress must exists",
        "params": {
          "peggedTokenParams_": "params of Pegged Token to add"
        }
      },
      "getCglb()": {
        "returns": {
          "cglob": "[PREC]"
        }
      },
      "getLeverageTC()": {
        "returns": {
          "leverageTC": "[PREC]"
        }
      },
      "getPACtp(uint256)": {
        "params": {
          "i_": "Pegged Token index"
        },
        "returns": {
          "_0": "price [PREC]"
        }
      },
      "getPTCac()": {
        "returns": {
          "pTCac": "[PREC]"
        }
      },
      "getQACforRedeemTP(uint256,uint256)": {
        "params": {
          "i_": "Pegged Token index",
          "qTP_": "amount of Pegged Token to redeem"
        },
        "returns": {
          "qACfee": "amount of Collateral Asset in concept of fees [N]",
          "qACtotalToRedeem": "amount of Collateral Asset needed to redeem, including fees [N]"
        }
      },
      "getTCAvailableToRedeem()": {
        "details": "because it is a view function we are not calculating the new ema,  since we are using the last ema calculation, this may differ a little from the real amount  of TC available to redeem. Consider it an approximation.",
        "returns": {
          "tcAvailableToRedeem": "[N]"
        }
      },
      "getTPAvailableToMint(uint256)": {
        "details": "because it is a view function we are not calculating the new ema,  since we are using the last ema calculation, this may differ a little from the real amount  of TP available to mint. Consider it an approximation.",
        "params": {
          "i_": "Pegged Token index"
        },
        "returns": {
          "tpAvailableToMint": "[N]"
        }
      },
      "getTotalACavailable()": {
        "returns": {
          "totalACavailable": "[N]"
        }
      },
      "initialize(((address,address,address,uint256,uint256,uint256,uint256,uint256,uint256,uint256,uint256,uint256,uint256,uint256,uint256),address,address,uint256,uint256))": {
        "details": "governorAddress The address that will define when a change contract is authorized      pauserAddress The address that is authorized to pause this contract      tcTokenAddress Collateral Token contract address      mocSettlementAddress MocSettlement contract address      mocFeeFlowAddress Moc Fee Flow contract address      mocAppreciationBeneficiaryAddress Moc appreciation beneficiary address      protThrld protected state threshold [PREC]      liqThrld liquidation coverage threshold [PREC]      feeRetainer pct retain on fees to be re-injected as Collateral, while paying fees with AC [PREC]      tcMintFee additional fee pct applied on mint Collateral Tokens operations [PREC]      tcRedeemFee additional fee pct applied on redeem Collateral Tokens operations [PREC]      successFee pct of the gain because Pegged Tokens devaluation that is transferred        in Collateral Asset to Moc Fee Flow during the settlement [PREC]      appreciationFactor pct of the gain because Pegged Tokens devaluation that is returned        in Pegged Tokens to appreciation beneficiary during the settlement [PREC]      emaCalculationBlockSpan amount of blocks to wait between Pegged ema calculation      bes number of blocks between settlements",
        "params": {
          "initializeCoreParams_": "contract initializer params"
        }
      },
      "isLiquidationReached()": {
        "returns": {
          "_0": "true if liquidation state is reached, false otherwise"
        }
      },
      "liqRedeemTP(uint256)": {
        "params": {
          "i_": "Pegged Token index"
        },
        "returns": {
          "qACRedeemed": "amount of AC sent to sender"
        }
      },
      "liqRedeemTPto(uint256,address)": {
        "params": {
          "i_": "Pegged Token index",
          "recipient_": "address who receives the AC"
        },
        "returns": {
          "qACRedeemed": "amount of AC sent to `recipient_`"
        }
      },
      "makeStoppable()": {
        "details": "Should be called through governance"
      },
      "makeUnstoppable()": {
        "details": "Should be called through governance"
      },
      "mintTC(uint256)": {
        "details": "any extra value, not spent on TC nor fees, will be return to sender",
        "params": {
          "qTC_": "amount of Collateral Token to mint"
        },
        "returns": {
          "qACtotalNeeded": "amount of AC used to mint qTC"
        }
      },
      "mintTCandTP(uint8,uint256)": {
        "params": {
          "i_": "Pegged Token index",
          "qTP_": "amount of Pegged Token to mint"
        },
        "returns": {
          "qACtotalNeeded": "amount of AC used to mint Collateral Token and Pegged Token",
          "qTCtoMint": "amount of Collateral Token minted"
        }
      },
      "mintTCandTPto(uint8,uint256,address)": {
        "params": {
          "i_": "Pegged Token index",
          "qTP_": "amount of Pegged Token to mint",
          "recipient_": "address who receives the Collateral Token and Pegged Token"
        },
        "returns": {
          "qACtotalNeeded": "amount of AC used to mint Collateral Token and Pegged Token",
          "qTCtoMint": "amount of Collateral Token minted"
        }
      },
      "mintTCto(uint256,address)": {
        "details": "any extra value, not spent on TC nor fees, will be return to sender",
        "params": {
          "qTC_": "amount of Collateral Token to mint",
          "recipient_": "address who receives the Collateral Token"
        },
        "returns": {
          "qACtotalNeeded": "amount of AC used to mint qTC"
        }
      },
      "mintTP(uint8,uint256)": {
        "details": "any extra value, not spent on TP nor fees, will be return to sender",
        "params": {
          "i_": "Pegged Token index to mint",
          "qTP_": "amount of Pegged Token to mint"
        },
        "returns": {
          "qACtotalNeeded": "amount of AC used to mint qTP"
        }
      },
      "mintTPto(uint8,uint256,address)": {
        "details": "any extra value, not spent on TP nor fees, will be return to sender",
        "params": {
          "i_": "Pegged Token index to mint",
          "qTP_": "amount of Pegged Token to mint",
          "recipient_": "address who receives the Pegged Token"
        },
        "returns": {
          "qACtotalNeeded": "amount of AC used to mint qTP"
        }
      },
      "pause()": {
        "details": "Should only be called by the pauser and when it is stoppable"
      },
      "proxiableUUID()": {
        "details": "Implementation of the ERC1822 {proxiableUUID} function. This returns the storage slot used by the implementation. It is used to validate the implementation's compatibility when performing an upgrade. IMPORTANT: A proxy pointing at a proxiable contract should not be considered proxiable itself, because this risks bricking a proxy that upgrades to it, by delegating to itself until out of gas. Thus it is critical that this function revert if invoked through a proxy. This is guaranteed by the `notDelegated` modifier."
      },
      "redeemTC(uint256,uint256)": {
        "params": {
          "qACmin_": "minimum amount of Collateral Asset that sender expects to receive",
          "qTC_": "amount of Collateral Token to redeem"
        },
        "returns": {
          "qACRedeemed": "amount of AC sent to sender"
        }
      },
      "redeemTCandTP(uint256,uint256,uint256,uint256)": {
        "params": {
          "i_": "Pegged Token index",
          "qACmin_": "minimum amount of Collateral Asset that the sender expects to receive",
          "qTC_": "maximum amount of Collateral Token to redeem",
          "qTP_": "maximum amount of Pegged Token to redeem"
        },
        "returns": {
          "qACRedeemed": "amount of AC sent to the sender",
          "qTPRedeemed": "amount of Pegged Token redeemed"
        }
      },
      "redeemTCandTPto(uint256,uint256,uint256,uint256,address)": {
        "params": {
          "i_": "Pegged Token index",
          "qACmin_": "minimum amount of Collateral Asset that `recipient_` expects to receive",
          "qTC_": "maximum amount of Collateral Token to redeem",
          "qTP_": "maximum amount of Pegged Token to redeem",
          "recipient_": "address who receives the Collateral Asset"
        },
        "returns": {
          "qACRedeemed": "amount of AC sent to the `recipient_`",
          "qTPRedeemed": "amount of Pegged Token redeemed"
        }
      },
      "redeemTCto(uint256,uint256,address)": {
        "params": {
          "qACmin_": "minimum amount of Collateral Asset that `recipient_` expects to receive",
          "qTC_": "amount of Collateral Token to redeem",
          "recipient_": "address who receives the Collateral Asset"
        },
        "returns": {
          "qACRedeemed": "amount of AC sent to 'recipient_'"
        }
      },
      "redeemTP(uint256,uint256,uint256)": {
        "params": {
          "i_": "Pegged Token index to redeem",
          "qACmin_": "minimum amount of Collateral Asset that sender expects to receive",
          "qTP_": "amount of Pegged Token to redeem"
        },
        "returns": {
          "qACRedeemed": "amount of AC sent to sender"
        }
      },
      "redeemTPto(uint256,uint256,uint256,address)": {
        "params": {
          "i_": "Pegged Token index to redeem",
          "qACmin_": "minimum amount of Collateral Asset that `recipient_` expects to receive",
          "qTP_": "amount of Pegged Token to redeem",
          "recipient_": "address who receives the Collateral Asset"
        },
        "returns": {
          "qACRedeemed": "amount of AC sent to 'recipient_'"
        }
      },
      "setAppreciationFactor(uint256)": {
        "details": "sets appreciation Factor value.",
        "params": {
          "appreciationFactor_": "pct of the gain because Pegged Tokens devaluation that is returned in Pegged Tokens to appreciation beneficiary during the settlement [PREC]"
        }
      },
      "setBes(uint256)": {
        "params": {
          "bes_": "number of blocks between settlements*"
        }
      },
      "setEmaCalculationBlockSpan(uint256)": {
        "params": {
          "blockSpan_": "Defines how many blocks should pass between BMA calculations*"
        }
      },
      "setFeeRetainer(uint256)": {
        "details": "sets the fee pct to be retainer on AC fees payments as AC re-injection.",
        "params": {
          "feeRetainer_": "pct retain on fees to be re-injected as Collateral, while paying fees with AC [PREC] 0% = 0; 1% = 10 ** 16; 100% = 10 ** 18"
        }
      },
      "setLiqEnabled(bool)": {
        "details": "enables and disables the liquidation mechanism.",
        "params": {
          "liqEnabled_": "is liquidation enabled"
        }
      },
      "setLiqThrld(uint256)": {
        "details": "sets the value of the liq threshold configuration param",
        "params": {
          "liqThrld_": "liquidation threshold"
        }
      },
      "setMintTCandTPFee(uint256)": {
        "details": "sets the fee charged when mint Collateral Token and Pegged Token in one operation.",
        "params": {
          "mintTCandTPFee_": "additional fee pct applied on mint Collateral Token and Pegged Token [PREC] 0% = 0; 1% = 10 ** 16; 100% = 10 ** 18"
        }
      },
      "setMocAppreciationBeneficiaryAddress(address)": {
        "details": "sets Moc Appreciation Beneficiary Address",
        "params": {
          "mocAppreciationBeneficiaryAddress_": "moc Appreciation Beneficiary new address"
        }
      },
      "setMocFeeFlowAddress(address)": {
        "details": "sets Moc Fee Flow contract address",
        "params": {
          "mocFeeFlowAddress_": "moc Fee Flow new contract address"
        }
      },
      "setPauser(address)": {
        "details": "Should be called through governance",
        "params": {
          "newPauser_": "Address of the new pauser"
        }
      },
      "setProtThrld(uint256)": {
        "details": "sets the value of the protected threshold configuration param",
        "params": {
          "protThrld_": "coverage protected state threshold [PREC]"
        }
      },
      "setRedeemTCandTPFee(uint256)": {
        "details": "sets the fee charged when redeem Collateral Token and Pegged Token in one operation.",
        "params": {
          "redeemTCandTPFee_": "additional fee pct applied on redeem Collateral Token and Pegged Token [PREC] 0% = 0; 1% = 10 ** 16; 100% = 10 ** 18"
        }
      },
      "setSuccessFee(uint256)": {
        "details": "sets success Fee value.",
        "params": {
          "successFee_": "pct of the gain because Pegged Tokens devaluation that is transferred in Collateral Asset to Moc Fee Flow during the settlement [PREC]"
        }
      },
      "setSwapTCforTPFee(uint256)": {
        "details": "sets the fee charged when swap Collateral Token for a Pegged Token.",
        "params": {
          "swapTCforTPFee_": "additional fee pct applied on swap Collateral Token for a Pegged Token [PREC] 0% = 0; 1% = 10 ** 16; 100% = 10 ** 18"
        }
      },
      "setSwapTPforTCFee(uint256)": {
        "details": "sets the fee charged when swap a Pegged Token for Collateral Token.",
        "params": {
          "swapTPforTCFee_": "additional fee pct applied on swap a Pegged Token for Collateral Token [PREC] 0% = 0; 1% = 10 ** 16; 100% = 10 ** 18"
        }
      },
      "setSwapTPforTPFee(uint256)": {
        "details": "sets the fee charged when swap a Pegged Token for another Pegged Token.",
        "params": {
          "swapTPforTPFee_": "additional fee pct applied on swap a Pegged Token for another Pegged Token [PREC] 0% = 0; 1% = 10 ** 16; 100% = 10 ** 18"
        }
      },
      "setTcMintFee(uint256)": {
        "details": "sets the fee charged on Token Collateral mint.",
        "params": {
          "tcMintFee_": "addition fee pct applied on Collateral Tokens mint [PREC] 0% = 0; 1% = 10 ** 16; 100% = 10 ** 18"
        }
      },
      "setTcRedeemFee(uint256)": {
        "details": "sets the fee charged on Token Collateral redeem.",
        "params": {
          "tcRedeemFee_": "addition fee pct applied on Collateral Tokens redeem [PREC] 0% = 0; 1% = 10 ** 16; 100% = 10 ** 18"
        }
      },
      "swapTCforTP(uint8,uint256,uint256)": {
        "params": {
          "i_": "Pegged Token index",
          "qTC_": "amount of Collateral Token to swap",
          "qTPmin_": "minimum amount of Pegged Token that the sender expects to receive"
        },
        "returns": {
          "qACFee": "amount of AC used to pay fee",
          "qTPMinted": "amount of Pegged Token minted"
        }
      },
      "swapTCforTPto(uint8,uint256,uint256,address)": {
        "params": {
          "i_": "Pegged Token index",
          "qTC_": "amount of Collateral to swap",
          "qTPmin_": "minimum amount of Pegged Token that `recipient_` expects to receive",
          "recipient_": "address who receives the Pegged Token"
        },
        "returns": {
          "qACFee": "amount of AC used to pay fee",
          "qTPMinted": "amount of Pegged Token minted"
        }
      },
      "swapTPforTC(uint8,uint256,uint256)": {
        "params": {
          "i_": "Pegged Token index",
          "qTCmin_": "minimum amount of Collateral Token that the sender expects to receive",
          "qTP_": "amount of owned Pegged Token to swap"
        },
        "returns": {
          "qACFee": "amount of AC used to pay fee",
          "qTCMinted": "amount of Collateral Token minted"
        }
      },
      "swapTPforTCto(uint8,uint256,uint256,address)": {
        "params": {
          "i_": "Pegged Token index",
          "qTCmin_": "minimum amount of Collateral Token that `recipient_` expects to receive",
          "qTP_": "amount of owned Pegged Token to swap",
          "recipient_": "address who receives the Collateral Token"
        },
        "returns": {
          "qACFee": "amount of AC used to pay fee",
          "qTCMinted": "amount of Collateral Token minted"
        }
      },
      "swapTPforTP(uint8,uint8,uint256,uint256)": {
        "params": {
          "iFrom_": "owned Pegged Token index",
          "iTo_": "target Pegged Token index",
          "qTP_": "amount of owned Pegged Token to swap",
          "qTPmin_": "minimum amount of target Pegged Token that the sender expects to receive"
        },
        "returns": {
          "qACFee": "amount of AC used to pay fee",
          "qTPMinted": "amount of Pegged Token minted"
        }
      },
      "swapTPforTPto(uint8,uint8,uint256,uint256,address)": {
        "params": {
          "iFrom_": "owned Pegged Token index",
          "iTo_": "target Pegged Token index",
          "qTP_": "amount of owned Pegged Token to swap",
          "qTPmin_": "minimum amount of target Pegged Token that `recipient_` expects to receive",
          "recipient_": "address who receives the target Pegged Token"
        },
        "returns": {
          "qACFee": "amount of AC used to pay fee",
          "qTPMinted": "amount of Pegged Token minted"
        }
      },
      "updateEmas()": {
        "details": "All price provider prices must be available, fails if not"
      },
      "upgradeTo(address)": {
        "details": "Upgrade the implementation of the proxy to `newImplementation`. Calls {_authorizeUpgrade}. Emits an {Upgraded} event."
      },
      "upgradeToAndCall(address,bytes)": {
        "details": "Upgrade the implementation of the proxy to `newImplementation`, and subsequently execute the function call encoded in `data`. Calls {_authorizeUpgrade}. Emits an {Upgraded} event."
      }
    },
    "title": "MocCoinbaseMock",
    "version": 1
  },
  "evm": {
    "bytecode": {
      "linkReferences": {},
      "opcodes": "PUSH1 0xA0 PUSH1 0x40 MSTORE ADDRESS PUSH1 0x80 MSTORE CALLVALUE DUP1 ISZERO PUSH3 0x15 JUMPI PUSH1 0x0 DUP1 REVERT JUMPDEST POP PUSH3 0x20 PUSH3 0x30 JUMP JUMPDEST PUSH3 0x2A PUSH3 0x30 JUMP JUMPDEST PUSH3 0xF2 JUMP JUMPDEST PUSH1 0x0 SLOAD PUSH2 0x100 SWAP1 DIV PUSH1 0xFF AND ISZERO PUSH3 0x9D JUMPI PUSH1 0x40 MLOAD PUSH3 0x461BCD PUSH1 0xE5 SHL DUP2 MSTORE PUSH1 0x20 PUSH1 0x4 DUP3 ADD MSTORE PUSH1 0x27 PUSH1 0x24 DUP3 ADD MSTORE PUSH32 0x496E697469616C697A61626C653A20636F6E747261637420697320696E697469 PUSH1 0x44 DUP3 ADD MSTORE PUSH7 0x616C697A696E67 PUSH1 0xC8 SHL PUSH1 0x64 DUP3 ADD MSTORE PUSH1 0x84 ADD PUSH1 0x40 MLOAD DUP1 SWAP2 SUB SWAP1 REVERT JUMPDEST PUSH1 0x0 SLOAD PUSH1 0xFF SWAP1 DUP2 AND LT ISZERO PUSH3 0xF0 JUMPI PUSH1 0x0 DUP1 SLOAD PUSH1 0xFF NOT AND PUSH1 0xFF SWAP1 DUP2 OR SWAP1 SWAP2 SSTORE PUSH1 0x40 MLOAD SWAP1 DUP2 MSTORE PUSH32 0x7F26B83FF96E1F2B6A682F133852F6798A09C465DA95921460CEFB3847402498 SWAP1 PUSH1 0x20 ADD PUSH1 0x40 MLOAD DUP1 SWAP2 SUB SWAP1 LOG1 JUMPDEST JUMP JUMPDEST PUSH1 0x80 MLOAD PUSH2 0x53B1 PUSH3 0x12A PUSH1 0x0 CODECOPY PUSH1 0x0 DUP2 DUP2 PUSH2 0x14AD ADD MSTORE DUP2 DUP2 PUSH2 0x14ED ADD MSTORE DUP2 DUP2 PUSH2 0x16A1 ADD MSTORE DUP2 DUP2 PUSH2 0x16E1 ADD MSTORE PUSH2 0x17A6 ADD MSTORE PUSH2 0x53B1 PUSH1 0x0 RETURN INVALID PUSH1 0x80 PUSH1 0x40 MSTORE PUSH1 0x4 CALLDATASIZE LT PUSH2 0x5AE JUMPI PUSH1 0x0 CALLDATALOAD PUSH1 0xE0 SHR DUP1 PUSH4 0x70713468 GT PUSH2 0x2F3 JUMPI DUP1 PUSH4 0x9FD0506D GT PUSH2 0x19B JUMPI DUP1 PUSH4 0xDE8D520A GT PUSH2 0xE7 JUMPI DUP1 PUSH4 0xF26114AA GT PUSH2 0xA0 JUMPI DUP1 PUSH4 0xF375CFBA GT PUSH2 0x7A JUMPI DUP1 PUSH4 0xF375CFBA EQ PUSH2 0x1075 JUMPI DUP1 PUSH4 0xFA6E83BD EQ PUSH2 0x108C JUMPI DUP1 PUSH4 0xFA79589E EQ PUSH2 0x10A3 JUMPI DUP1 PUSH4 0xFDA70F8B EQ PUSH2 0x10C3 JUMPI PUSH1 0x0 DUP1 REVERT JUMPDEST DUP1 PUSH4 0xF26114AA EQ PUSH2 0x101E JUMPI DUP1 PUSH4 0xF2808778 EQ PUSH2 0x103E JUMPI DUP1 PUSH4 0xF30B5614 EQ PUSH2 0x105E JUMPI PUSH1 0x0 DUP1 REVERT JUMPDEST DUP1 PUSH4 0xDE8D520A EQ PUSH2 0xF79 JUMPI DUP1 PUSH4 0xE4012945 EQ PUSH2 0xF8E JUMPI DUP1 PUSH4 0xE4C0AAF4 EQ PUSH2 0xFAE JUMPI DUP1 PUSH4 0xE6B1627C EQ PUSH2 0xFCE JUMPI DUP1 PUSH4 0xE7C25978 EQ PUSH2 0xFEE JUMPI DUP1 PUSH4 0xE8859A15 EQ PUSH2 0x1009 JUMPI PUSH1 0x0 DUP1 REVERT JUMPDEST DUP1 PUSH4 0xC00F538D GT PUSH2 0x154 JUMPI DUP1 PUSH4 0xCF1CEC40 GT PUSH2 0x12E JUMPI DUP1 PUSH4 0xCF1CEC40 EQ PUSH2 0xF11 JUMPI DUP1 PUSH4 0xD1A0FAA0 EQ PUSH2 0xF24 JUMPI DUP1 PUSH4 0xDB796072 EQ PUSH2 0xF39 JUMPI DUP1 PUSH4 0xDE08160F EQ PUSH2 0xF59 JUMPI PUSH1 0x0 DUP1 REVERT JUMPDEST DUP1 PUSH4 0xC00F538D EQ PUSH2 0xEBC JUMPI DUP1 PUSH4 0xC039CC69 EQ PUSH2 0xEDC JUMPI DUP1 PUSH4 0xC84353C9 EQ PUSH2 0xEF1 JUMPI PUSH1 0x0 DUP1 REVERT JUMPDEST DUP1 PUSH4 0x9FD0506D EQ PUSH2 0xE19 JUMPI DUP1 PUSH4 0xA8E9AC30 EQ PUSH2 0xE3F JUMPI DUP1 PUSH4 0xAEA038DC EQ PUSH2 0xE58 JUMPI DUP1 PUSH4 0xB3903B39 EQ PUSH2 0xE6F JUMPI DUP1 PUSH4 0xBB4872DE EQ PUSH2 0xE82 JUMPI DUP1 PUSH4 0xBECACA6B EQ PUSH2 0xE9C JUMPI PUSH1 0x0 DUP1 REVERT JUMPDEST DUP1 PUSH4 0x826FCD58 GT PUSH2 0x25A JUMPI DUP1 PUSH4 0x91C59287 GT PUSH2 0x213 JUMPI DUP1 PUSH4 0x9ABB14C9 GT PUSH2 0x1ED JUMPI DUP1 PUSH4 0x9ABB14C9 EQ PUSH2 0xD77 JUMPI DUP1 PUSH4 0x9AD6659D EQ PUSH2 0xD97 JUMPI DUP1 PUSH4 0x9BDD7CCE EQ PUSH2 0xDAC JUMPI DUP1 PUSH4 0x9CABFC00 EQ PUSH2 0xDCC JUMPI PUSH1 0x0 DUP1 REVERT JUMPDEST DUP1 PUSH4 0x91C59287 EQ PUSH2 0xD30 JUMPI DUP1 PUSH4 0x97E922E7 EQ PUSH2 0xD43 JUMPI DUP1 PUSH4 0x9853C35A EQ PUSH2 0xD56 JUMPI PUSH1 0x0 DUP1 REVERT JUMPDEST DUP1 PUSH4 0x826FCD58 EQ PUSH2 0xC98 JUMPI DUP1 PUSH4 0x8456CB59 EQ PUSH2 0xCAD JUMPI DUP1 PUSH4 0x8CFA4241 EQ PUSH2 0xCC2 JUMPI DUP1 PUSH4 0x8D7A72F3 EQ PUSH2 0xCD9 JUMPI DUP1 PUSH4 0x904AA85B EQ PUSH2 0xCF0 JUMPI DUP1 PUSH4 0x9195C85B EQ PUSH2 0xD10 JUMPI PUSH1 0x0 DUP1 REVERT JUMPDEST DUP1 PUSH4 0x7A193C31 GT PUSH2 0x2AC JUMPI DUP1 PUSH4 0x7A193C31 EQ PUSH2 0xBEA JUMPI DUP1 PUSH4 0x7A4FF1D9 EQ PUSH2 0xC01 JUMPI DUP1 PUSH4 0x7A727FE8 EQ PUSH2 0xC21 JUMPI DUP1 PUSH4 0x7AF5758C EQ PUSH2 0xC38 JUMPI DUP1 PUSH4 0x7CBA2383 EQ PUSH2 0xC58 JUMPI DUP1 PUSH4 0x7D8E0314 EQ PUSH2 0xC78 JUMPI PUSH1 0x0 DUP1 REVERT JUMPDEST DUP1 PUSH4 0x70713468 EQ PUSH2 0xB49 JUMPI DUP1 PUSH4 0x7554FFFD EQ PUSH2 0xB69 JUMPI DUP1 PUSH4 0x7750BA0C EQ PUSH2 0xB80 JUMPI DUP1 PUSH4 0x7820A328 EQ PUSH2 0xBA0 JUMPI DUP1 PUSH4 0x78A2FD46 EQ PUSH2 0xBC0 JUMPI DUP1 PUSH4 0x79F9A91C EQ PUSH2 0xBD3 JUMPI PUSH1 0x0 DUP1 REVERT JUMPDEST DUP1 PUSH4 0x3BC4AC0A GT PUSH2 0x456 JUMPI DUP1 PUSH4 0x54A73C62 GT PUSH2 0x3BD JUMPI DUP1 PUSH4 0x5E2A6065 GT PUSH2 0x376 JUMPI DUP1 PUSH4 0x68274357 GT PUSH2 0x350 JUMPI DUP1 PUSH4 0x68274357 EQ PUSH2 0xAF7 JUMPI DUP1 PUSH4 0x685B0434 EQ PUSH2 0xB0C JUMPI DUP1 PUSH4 0x68DE913A EQ PUSH2 0xB1F JUMPI DUP1 PUSH4 0x6B5488DF EQ PUSH2 0xB32 JUMPI PUSH1 0x0 DUP1 REVERT JUMPDEST DUP1 PUSH4 0x5E2A6065 EQ PUSH2 0xAA9 JUMPI DUP1 PUSH4 0x60009E0B EQ PUSH2 0xAC1 JUMPI DUP1 PUSH4 0x662013F4 EQ PUSH2 0xAE2 JUMPI PUSH1 0x0 DUP1 REVERT JUMPDEST DUP1 PUSH4 0x54A73C62 EQ PUSH2 0xA0F JUMPI DUP1 PUSH4 0x57271F4D EQ PUSH2 0xA2F JUMPI DUP1 PUSH4 0x5852DAEA EQ PUSH2 0xA44 JUMPI DUP1 PUSH4 0x5C616A73 EQ PUSH2 0xA57 JUMPI DUP1 PUSH4 0x5C975ABB EQ PUSH2 0xA6C JUMPI DUP1 PUSH4 0x5D65D045 EQ PUSH2 0xA89 JUMPI PUSH1 0x0 DUP1 REVERT JUMPDEST DUP1 PUSH4 0x4E1F907A GT PUSH2 0x40F JUMPI DUP1 PUSH4 0x4E1F907A EQ PUSH2 0x97A JUMPI DUP1 PUSH4 0x4F0F27EE EQ PUSH2 0x99B JUMPI DUP1 PUSH4 0x4F1EF286 EQ PUSH2 0x9B2 JUMPI DUP1 PUSH4 0x5210570C EQ PUSH2 0x9C5 JUMPI DUP1 PUSH4 0x5241271C EQ PUSH2 0x9DA JUMPI DUP1 PUSH4 0x52D1902D EQ PUSH2 0x9FA JUMPI PUSH1 0x0 DUP1 REVERT JUMPDEST DUP1 PUSH4 0x3BC4AC0A EQ PUSH2 0x8C5 JUMPI DUP1 PUSH4 0x3F4BA83A EQ PUSH2 0x8E5 JUMPI DUP1 PUSH4 0x4017936A EQ PUSH2 0x8FA JUMPI DUP1 PUSH4 0x407F0E34 EQ PUSH2 0x90F JUMPI DUP1 PUSH4 0x4B746001 EQ PUSH2 0x926 JUMPI DUP1 PUSH4 0x4D977E78 EQ PUSH2 0x963 JUMPI PUSH1 0x0 DUP1 REVERT JUMPDEST DUP1 PUSH4 0x1FB0DDA0 GT PUSH2 0x515 JUMPI DUP1 PUSH4 0x2C43BD3B GT PUSH2 0x4CE JUMPI DUP1 PUSH4 0x333431FD GT PUSH2 0x4A8 JUMPI DUP1 PUSH4 0x333431FD EQ PUSH2 0x866 JUMPI DUP1 PUSH4 0x33421C38 EQ PUSH2 0x87D JUMPI DUP1 PUSH4 0x3659CFE6 EQ PUSH2 0x892 JUMPI DUP1 PUSH4 0x383E1EAD EQ PUSH2 0x8B2 JUMPI PUSH1 0x0 DUP1 REVERT JUMPDEST DUP1 PUSH4 0x2C43BD3B EQ PUSH2 0x813 JUMPI DUP1 PUSH4 0x2D88AF4A EQ PUSH2 0x833 JUMPI DUP1 PUSH4 0x31F64EC2 EQ PUSH2 0x853 JUMPI PUSH1 0x0 DUP1 REVERT JUMPDEST DUP1 PUSH4 0x1FB0DDA0 EQ PUSH2 0x757 JUMPI DUP1 PUSH4 0x1FE6A7AD EQ PUSH2 0x76C JUMPI DUP1 PUSH4 0x2069F753 EQ PUSH2 0x78C JUMPI DUP1 PUSH4 0x23B98CDE EQ PUSH2 0x7AC JUMPI DUP1 PUSH4 0x27EAB2A1 EQ PUSH2 0x7DC JUMPI DUP1 PUSH4 0x2A20D57D EQ PUSH2 0x7FC JUMPI PUSH1 0x0 DUP1 REVERT JUMPDEST DUP1 PUSH4 0xD6AC463 GT PUSH2 0x567 JUMPI DUP1 PUSH4 0xD6AC463 EQ PUSH2 0x6AD JUMPI DUP1 PUSH4 0xE0A8FD2 EQ PUSH2 0x6CD JUMPI DUP1 PUSH4 0x17574BC5 EQ PUSH2 0x6ED JUMPI DUP1 PUSH4 0x17DF0AB8 EQ PUSH2 0x70D JUMPI DUP1 PUSH4 0x1820506F EQ PUSH2 0x72D JUMPI DUP1 PUSH4 0x1867E2F5 EQ PUSH2 0x740 JUMPI PUSH1 0x0 DUP1 REVERT JUMPDEST DUP1 PUSH4 0x1DDE6EF EQ PUSH2 0x5C3 JUMPI DUP1 PUSH4 0x1F1B684 EQ PUSH2 0x5E3 JUMPI DUP1 PUSH4 0x4A527D8 EQ PUSH2 0x620 JUMPI DUP1 PUSH4 0xC340A24 EQ PUSH2 0x648 JUMPI DUP1 PUSH4 0xC36D897 EQ PUSH2 0x668 JUMPI DUP1 PUSH4 0xCAEBE43 EQ PUSH2 0x68D JUMPI PUSH1 0x0 DUP1 REVERT JUMPDEST CALLDATASIZE PUSH2 0x5BE JUMPI PUSH2 0x5BC CALLVALUE PUSH2 0x10DA JUMP JUMPDEST STOP JUMPDEST PUSH1 0x0 DUP1 REVERT JUMPDEST CALLVALUE DUP1 ISZERO PUSH2 0x5CF JUMPI PUSH1 0x0 DUP1 REVERT JUMPDEST POP PUSH2 0x5BC PUSH2 0x5DE CALLDATASIZE PUSH1 0x4 PUSH2 0x4B88 JUMP JUMPDEST PUSH2 0x10F5 JUMP JUMPDEST CALLVALUE DUP1 ISZERO PUSH2 0x5EF JUMPI PUSH1 0x0 DUP1 REVERT JUMPDEST POP PUSH2 0x603 PUSH2 0x5FE CALLDATASIZE PUSH1 0x4 PUSH2 0x4B88 JUMP JUMPDEST PUSH2 0x1103 JUMP JUMPDEST PUSH1 0x40 MLOAD PUSH1 0x1 PUSH1 0x1 PUSH1 0xA0 SHL SUB SWAP1 SWAP2 AND DUP2 MSTORE PUSH1 0x20 ADD JUMPDEST PUSH1 0x40 MLOAD DUP1 SWAP2 SUB SWAP1 RETURN JUMPDEST PUSH2 0x633 PUSH2 0x62E CALLDATASIZE PUSH1 0x4 PUSH2 0x4BCC JUMP JUMPDEST PUSH2 0x112E JUMP JUMPDEST PUSH1 0x40 DUP1 MLOAD SWAP3 DUP4 MSTORE PUSH1 0x20 DUP4 ADD SWAP2 SWAP1 SWAP2 MSTORE ADD PUSH2 0x617 JUMP JUMPDEST CALLVALUE DUP1 ISZERO PUSH2 0x654 JUMPI PUSH1 0x0 DUP1 REVERT JUMPDEST POP PUSH1 0x97 SLOAD PUSH2 0x603 SWAP1 PUSH1 0x1 PUSH1 0x1 PUSH1 0xA0 SHL SUB AND DUP2 JUMP JUMPDEST CALLVALUE DUP1 ISZERO PUSH2 0x674 JUMPI PUSH1 0x0 DUP1 REVERT JUMPDEST POP PUSH2 0x67F PUSH2 0x17E SLOAD DUP2 JUMP JUMPDEST PUSH1 0x40 MLOAD SWAP1 DUP2 MSTORE PUSH1 0x20 ADD PUSH2 0x617 JUMP JUMPDEST CALLVALUE DUP1 ISZERO PUSH2 0x699 JUMPI PUSH1 0x0 DUP1 REVERT JUMPDEST POP PUSH2 0x5BC PUSH2 0x6A8 CALLDATASIZE PUSH1 0x4 PUSH2 0x4C27 JUMP JUMPDEST PUSH2 0x1154 JUMP JUMPDEST CALLVALUE DUP1 ISZERO PUSH2 0x6B9 JUMPI PUSH1 0x0 DUP1 REVERT JUMPDEST POP PUSH2 0x5BC PUSH2 0x6C8 CALLDATASIZE PUSH1 0x4 PUSH2 0x4C40 JUMP JUMPDEST PUSH2 0x126C JUMP JUMPDEST CALLVALUE DUP1 ISZERO PUSH2 0x6D9 JUMPI PUSH1 0x0 DUP1 REVERT JUMPDEST POP PUSH2 0x5BC PUSH2 0x6E8 CALLDATASIZE PUSH1 0x4 PUSH2 0x4B88 JUMP JUMPDEST PUSH2 0x1297 JUMP JUMPDEST CALLVALUE DUP1 ISZERO PUSH2 0x6F9 JUMPI PUSH1 0x0 DUP1 REVERT JUMPDEST POP PUSH2 0x633 PUSH2 0x708 CALLDATASIZE PUSH1 0x4 PUSH2 0x4C5D JUMP JUMPDEST PUSH2 0x12A5 JUMP JUMPDEST CALLVALUE DUP1 ISZERO PUSH2 0x719 JUMPI PUSH1 0x0 DUP1 REVERT JUMPDEST POP PUSH2 0x67F PUSH2 0x728 CALLDATASIZE PUSH1 0x4 PUSH2 0x4C8F JUMP JUMPDEST PUSH2 0x12C3 JUMP JUMPDEST PUSH2 0x633 PUSH2 0x73B CALLDATASIZE PUSH1 0x4 PUSH2 0x4CBB JUMP JUMPDEST PUSH2 0x12DC JUMP JUMPDEST CALLVALUE DUP1 ISZERO PUSH2 0x74C JUMPI PUSH1 0x0 DUP1 REVERT JUMPDEST POP PUSH2 0x67F PUSH2 0x1B3 SLOAD DUP2 JUMP JUMPDEST CALLVALUE DUP1 ISZERO PUSH2 0x763 JUMPI PUSH1 0x0 DUP1 REVERT JUMPDEST POP PUSH2 0x67F PUSH2 0x12F4 JUMP JUMPDEST CALLVALUE DUP1 ISZERO PUSH2 0x778 JUMPI PUSH1 0x0 DUP1 REVERT JUMPDEST POP PUSH2 0x5BC PUSH2 0x787 CALLDATASIZE PUSH1 0x4 PUSH2 0x4D0B JUMP JUMPDEST PUSH2 0x1316 JUMP JUMPDEST CALLVALUE DUP1 ISZERO PUSH2 0x798 JUMPI PUSH1 0x0 DUP1 REVERT JUMPDEST POP PUSH2 0x5BC PUSH2 0x7A7 CALLDATASIZE PUSH1 0x4 PUSH2 0x4B88 JUMP JUMPDEST PUSH2 0x1332 JUMP JUMPDEST CALLVALUE DUP1 ISZERO PUSH2 0x7B8 JUMPI PUSH1 0x0 DUP1 REVERT JUMPDEST POP PUSH2 0x148 SLOAD PUSH2 0x7CC SWAP1 PUSH2 0x100 SWAP1 DIV PUSH1 0xFF AND DUP2 JUMP JUMPDEST PUSH1 0x40 MLOAD SWAP1 ISZERO ISZERO DUP2 MSTORE PUSH1 0x20 ADD PUSH2 0x617 JUMP JUMPDEST CALLVALUE DUP1 ISZERO PUSH2 0x7E8 JUMPI PUSH1 0x0 DUP1 REVERT JUMPDEST POP PUSH2 0x5BC PUSH2 0x7F7 CALLDATASIZE PUSH1 0x4 PUSH2 0x4C40 JUMP JUMPDEST PUSH2 0x1340 JUMP JUMPDEST CALLVALUE DUP1 ISZERO PUSH2 0x808 JUMPI PUSH1 0x0 DUP1 REVERT JUMPDEST POP PUSH2 0x67F PUSH2 0x13E SLOAD DUP2 JUMP JUMPDEST CALLVALUE DUP1 ISZERO PUSH2 0x81F JUMPI PUSH1 0x0 DUP1 REVERT JUMPDEST POP PUSH2 0x5BC PUSH2 0x82E CALLDATASIZE PUSH1 0x4 PUSH2 0x4B88 JUMP JUMPDEST PUSH2 0x136B JUMP JUMPDEST CALLVALUE DUP1 ISZERO PUSH2 0x83F JUMPI PUSH1 0x0 DUP1 REVERT JUMPDEST POP PUSH2 0x5BC PUSH2 0x84E CALLDATASIZE PUSH1 0x4 PUSH2 0x4C40 JUMP JUMPDEST PUSH2 0x1379 JUMP JUMPDEST PUSH2 0x67F PUSH2 0x861 CALLDATASIZE PUSH1 0x4 PUSH2 0x4B88 JUMP JUMPDEST PUSH2 0x13AB JUMP JUMPDEST CALLVALUE DUP1 ISZERO PUSH2 0x872 JUMPI PUSH1 0x0 DUP1 REVERT JUMPDEST POP PUSH2 0x67F PUSH2 0x13D SLOAD DUP2 JUMP JUMPDEST CALLVALUE DUP1 ISZERO PUSH2 0x889 JUMPI PUSH1 0x0 DUP1 REVERT JUMPDEST POP PUSH2 0x5BC PUSH2 0x13BF JUMP JUMPDEST CALLVALUE DUP1 ISZERO PUSH2 0x89E JUMPI PUSH1 0x0 DUP1 REVERT JUMPDEST POP PUSH2 0x5BC PUSH2 0x8AD CALLDATASIZE PUSH1 0x4 PUSH2 0x4C40 JUMP JUMPDEST PUSH2 0x14A3 JUMP JUMPDEST PUSH2 0x67F PUSH2 0x8C0 CALLDATASIZE PUSH1 0x4 PUSH2 0x4D28 JUMP JUMPDEST PUSH2 0x1582 JUMP JUMPDEST CALLVALUE DUP1 ISZERO PUSH2 0x8D1 JUMPI PUSH1 0x0 DUP1 REVERT JUMPDEST POP PUSH2 0x5BC PUSH2 0x8E0 CALLDATASIZE PUSH1 0x4 PUSH2 0x4B88 JUMP JUMPDEST PUSH2 0x1594 JUMP JUMPDEST CALLVALUE DUP1 ISZERO PUSH2 0x8F1 JUMPI PUSH1 0x0 DUP1 REVERT JUMPDEST POP PUSH2 0x5BC PUSH2 0x15A2 JUMP JUMPDEST CALLVALUE DUP1 ISZERO PUSH2 0x906 JUMPI PUSH1 0x0 DUP1 REVERT JUMPDEST POP PUSH2 0x67F PUSH2 0x163C JUMP JUMPDEST CALLVALUE DUP1 ISZERO PUSH2 0x91B JUMPI PUSH1 0x0 DUP1 REVERT JUMPDEST POP PUSH2 0x67F PUSH2 0x13C SLOAD DUP2 JUMP JUMPDEST CALLVALUE DUP1 ISZERO PUSH2 0x932 JUMPI PUSH1 0x0 DUP1 REVERT JUMPDEST POP PUSH2 0x946 PUSH2 0x941 CALLDATASIZE PUSH1 0x4 PUSH2 0x4B88 JUMP JUMPDEST PUSH2 0x165F JUMP JUMPDEST PUSH1 0x40 DUP1 MLOAD SWAP3 DUP4 MSTORE PUSH1 0x1 PUSH1 0x1 PUSH1 0xA0 SHL SUB SWAP1 SWAP2 AND PUSH1 0x20 DUP4 ADD MSTORE ADD PUSH2 0x617 JUMP JUMPDEST CALLVALUE DUP1 ISZERO PUSH2 0x96F JUMPI PUSH1 0x0 DUP1 REVERT JUMPDEST POP PUSH2 0x67F PUSH2 0x1B2 SLOAD DUP2 JUMP JUMPDEST CALLVALUE DUP1 ISZERO PUSH2 0x986 JUMPI PUSH1 0x0 DUP1 REVERT JUMPDEST POP PUSH2 0x144 SLOAD PUSH2 0x603 SWAP1 PUSH1 0x1 PUSH1 0x1 PUSH1 0xA0 SHL SUB AND DUP2 JUMP JUMPDEST CALLVALUE DUP1 ISZERO PUSH2 0x9A7 JUMPI PUSH1 0x0 DUP1 REVERT JUMPDEST POP PUSH2 0x67F PUSH2 0x139 SLOAD DUP2 JUMP JUMPDEST PUSH2 0x5BC PUSH2 0x9C0 CALLDATASIZE PUSH1 0x4 PUSH2 0x4D7E JUMP JUMPDEST PUSH2 0x1697 JUMP JUMPDEST CALLVALUE DUP1 ISZERO PUSH2 0x9D1 JUMPI PUSH1 0x0 DUP1 REVERT JUMPDEST POP PUSH2 0x5BC PUSH2 0x1763 JUMP JUMPDEST CALLVALUE DUP1 ISZERO PUSH2 0x9E6 JUMPI PUSH1 0x0 DUP1 REVERT JUMPDEST POP PUSH2 0x67F PUSH2 0x9F5 CALLDATASIZE PUSH1 0x4 PUSH2 0x4B88 JUMP JUMPDEST PUSH2 0x1777 JUMP JUMPDEST CALLVALUE DUP1 ISZERO PUSH2 0xA06 JUMPI PUSH1 0x0 DUP1 REVERT JUMPDEST POP PUSH2 0x67F PUSH2 0x1799 JUMP JUMPDEST CALLVALUE DUP1 ISZERO PUSH2 0xA1B JUMPI PUSH1 0x0 DUP1 REVERT JUMPDEST POP PUSH2 0x67F PUSH2 0xA2A CALLDATASIZE PUSH1 0x4 PUSH2 0x4E42 JUMP JUMPDEST PUSH2 0x184C JUMP JUMPDEST CALLVALUE DUP1 ISZERO PUSH2 0xA3B JUMPI PUSH1 0x0 DUP1 REVERT JUMPDEST POP PUSH2 0x67F PUSH2 0x1864 JUMP JUMPDEST PUSH2 0x633 PUSH2 0xA52 CALLDATASIZE PUSH1 0x4 PUSH2 0x4E83 JUMP JUMPDEST PUSH2 0x1890 JUMP JUMPDEST CALLVALUE DUP1 ISZERO PUSH2 0xA63 JUMPI PUSH1 0x0 DUP1 REVERT JUMPDEST POP PUSH2 0x5BC PUSH2 0x18B0 JUMP JUMPDEST CALLVALUE DUP1 ISZERO PUSH2 0xA78 JUMPI PUSH1 0x0 DUP1 REVERT JUMPDEST POP PUSH1 0xCA SLOAD PUSH2 0x100 SWAP1 DIV PUSH1 0xFF AND PUSH2 0x7CC JUMP JUMPDEST CALLVALUE DUP1 ISZERO PUSH2 0xA95 JUMPI PUSH1 0x0 DUP1 REVERT JUMPDEST POP PUSH2 0x67F PUSH2 0xAA4 CALLDATASIZE PUSH1 0x4 PUSH2 0x4EB6 JUMP JUMPDEST PUSH2 0x1905 JUMP JUMPDEST CALLVALUE DUP1 ISZERO PUSH2 0xAB5 JUMPI PUSH1 0x0 DUP1 REVERT JUMPDEST POP PUSH2 0x5BC PUSH1 0x2A PUSH2 0x27C SSTORE JUMP JUMPDEST CALLVALUE DUP1 ISZERO PUSH2 0xACD JUMPI PUSH1 0x0 DUP1 REVERT JUMPDEST POP PUSH2 0x131 SLOAD PUSH2 0x603 SWAP1 PUSH1 0x1 PUSH1 0x1 PUSH1 0xA0 SHL SUB AND DUP2 JUMP JUMPDEST CALLVALUE DUP1 ISZERO PUSH2 0xAEE JUMPI PUSH1 0x0 DUP1 REVERT JUMPDEST POP PUSH2 0x67F PUSH2 0x1912 JUMP JUMPDEST CALLVALUE DUP1 ISZERO PUSH2 0xB03 JUMPI PUSH1 0x0 DUP1 REVERT JUMPDEST POP PUSH2 0x5BC PUSH2 0x1924 JUMP JUMPDEST PUSH2 0x633 PUSH2 0xB1A CALLDATASIZE PUSH1 0x4 PUSH2 0x4D28 JUMP JUMPDEST PUSH2 0x193B JUMP JUMPDEST PUSH2 0x633 PUSH2 0xB2D CALLDATASIZE PUSH1 0x4 PUSH2 0x4E83 JUMP JUMPDEST PUSH2 0x194E JUMP JUMPDEST CALLVALUE DUP1 ISZERO PUSH2 0xB3E JUMPI PUSH1 0x0 DUP1 REVERT JUMPDEST POP PUSH2 0x67F PUSH2 0x146 SLOAD DUP2 JUMP JUMPDEST CALLVALUE DUP1 ISZERO PUSH2 0xB55 JUMPI PUSH1 0x0 DUP1 REVERT JUMPDEST POP PUSH2 0x5BC PUSH2 0xB64 CALLDATASIZE PUSH1 0x4 PUSH2 0x4B88 JUMP JUMPDEST PUSH2 0x1962 JUMP JUMPDEST CALLVALUE DUP1 ISZERO PUSH2 0xB75 JUMPI PUSH1 0x0 DUP1 REVERT JUMPDEST POP PUSH2 0x67F PUSH2 0x137 SLOAD DUP2 JUMP JUMPDEST CALLVALUE DUP1 ISZERO PUSH2 0xB8C JUMPI PUSH1 0x0 DUP1 REVERT JUMPDEST POP PUSH2 0x5BC PUSH2 0xB9B CALLDATASIZE PUSH1 0x4 PUSH2 0x4B88 JUMP JUMPDEST PUSH2 0x1970 JUMP JUMPDEST CALLVALUE DUP1 ISZERO PUSH2 0xBAC JUMPI PUSH1 0x0 DUP1 REVERT JUMPDEST POP PUSH2 0x633 PUSH2 0xBBB CALLDATASIZE PUSH1 0x4 PUSH2 0x4EE6 JUMP JUMPDEST PUSH2 0x197E JUMP JUMPDEST PUSH2 0x633 PUSH2 0xBCE CALLDATASIZE PUSH1 0x4 PUSH2 0x4F08 JUMP JUMPDEST PUSH2 0x199F JUMP JUMPDEST CALLVALUE DUP1 ISZERO PUSH2 0xBDF JUMPI PUSH1 0x0 DUP1 REVERT JUMPDEST POP PUSH2 0x67F PUSH2 0x140 SLOAD DUP2 JUMP JUMPDEST CALLVALUE DUP1 ISZERO PUSH2 0xBF6 JUMPI PUSH1 0x0 DUP1 REVERT JUMPDEST POP PUSH2 0x67F PUSH2 0x132 SLOAD DUP2 JUMP JUMPDEST CALLVALUE DUP1 ISZERO PUSH2 0xC0D JUMPI PUSH1 0x0 DUP1 REVERT JUMPDEST POP PUSH2 0x5BC PUSH2 0xC1C CALLDATASIZE PUSH1 0x4 PUSH2 0x4B88 JUMP JUMPDEST PUSH2 0x19B3 JUMP JUMPDEST CALLVALUE DUP1 ISZERO PUSH2 0xC2D JUMPI PUSH1 0x0 DUP1 REVERT JUMPDEST POP PUSH2 0x67F PUSH2 0x17F SLOAD DUP2 JUMP JUMPDEST CALLVALUE DUP1 ISZERO PUSH2 0xC44 JUMPI PUSH1 0x0 DUP1 REVERT JUMPDEST POP PUSH2 0x5BC PUSH2 0xC53 CALLDATASIZE PUSH1 0x4 PUSH2 0x4B88 JUMP JUMPDEST PUSH2 0x19C1 JUMP JUMPDEST CALLVALUE DUP1 ISZERO PUSH2 0xC64 JUMPI PUSH1 0x0 DUP1 REVERT JUMPDEST POP PUSH2 0x5BC PUSH2 0xC73 CALLDATASIZE PUSH1 0x4 PUSH2 0x4B88 JUMP JUMPDEST PUSH2 0x19CF JUMP JUMPDEST CALLVALUE DUP1 ISZERO PUSH2 0xC84 JUMPI PUSH1 0x0 DUP1 REVERT JUMPDEST POP PUSH2 0x67F PUSH2 0xC93 CALLDATASIZE PUSH1 0x4 PUSH2 0x4B88 JUMP JUMPDEST PUSH2 0x19DD JUMP JUMPDEST CALLVALUE DUP1 ISZERO PUSH2 0xCA4 JUMPI PUSH1 0x0 DUP1 REVERT JUMPDEST POP PUSH2 0x67F PUSH2 0x19EE JUMP JUMPDEST CALLVALUE DUP1 ISZERO PUSH2 0xCB9 JUMPI PUSH1 0x0 DUP1 REVERT JUMPDEST POP PUSH2 0x5BC PUSH2 0x1A09 JUMP JUMPDEST CALLVALUE DUP1 ISZERO PUSH2 0xCCE JUMPI PUSH1 0x0 DUP1 REVERT JUMPDEST POP PUSH2 0x67F PUSH2 0x147 SLOAD DUP2 JUMP JUMPDEST CALLVALUE DUP1 ISZERO PUSH2 0xCE5 JUMPI PUSH1 0x0 DUP1 REVERT JUMPDEST POP PUSH2 0x67F PUSH2 0x27C SLOAD DUP2 JUMP JUMPDEST CALLVALUE DUP1 ISZERO PUSH2 0xCFC JUMPI PUSH1 0x0 DUP1 REVERT JUMPDEST POP PUSH2 0x67F PUSH2 0xD0B CALLDATASIZE PUSH1 0x4 PUSH2 0x4B88 JUMP JUMPDEST PUSH2 0x1AA4 JUMP JUMPDEST CALLVALUE DUP1 ISZERO PUSH2 0xD1C JUMPI PUSH1 0x0 DUP1 REVERT JUMPDEST POP PUSH2 0x67F PUSH2 0xD2B CALLDATASIZE PUSH1 0x4 PUSH2 0x4B88 JUMP JUMPDEST PUSH2 0x1B6E JUMP JUMPDEST PUSH2 0x67F PUSH2 0xD3E CALLDATASIZE PUSH1 0x4 PUSH2 0x4F45 JUMP JUMPDEST PUSH2 0x1B7B JUMP JUMPDEST PUSH2 0x633 PUSH2 0xD51 CALLDATASIZE PUSH1 0x4 PUSH2 0x4F08 JUMP JUMPDEST PUSH2 0x1B8D JUMP JUMPDEST CALLVALUE DUP1 ISZERO PUSH2 0xD62 JUMPI PUSH1 0x0 DUP1 REVERT JUMPDEST POP PUSH2 0x143 SLOAD PUSH2 0x603 SWAP1 PUSH1 0x1 PUSH1 0x1 PUSH1 0xA0 SHL SUB AND DUP2 JUMP JUMPDEST CALLVALUE DUP1 ISZERO PUSH2 0xD83 JUMPI PUSH1 0x0 DUP1 REVERT JUMPDEST POP PUSH2 0x67F PUSH2 0xD92 CALLDATASIZE PUSH1 0x4 PUSH2 0x4EE6 JUMP JUMPDEST PUSH2 0x1BA1 JUMP JUMPDEST CALLVALUE DUP1 ISZERO PUSH2 0xDA3 JUMPI PUSH1 0x0 DUP1 REVERT JUMPDEST POP PUSH2 0x7CC PUSH2 0x1BAF JUMP JUMPDEST CALLVALUE DUP1 ISZERO PUSH2 0xDB8 JUMPI PUSH1 0x0 DUP1 REVERT JUMPDEST POP PUSH2 0x633 PUSH2 0xDC7 CALLDATASIZE PUSH1 0x4 PUSH2 0x4F6F JUMP JUMPDEST PUSH2 0x1BDA JUMP JUMPDEST CALLVALUE DUP1 ISZERO PUSH2 0xDD8 JUMPI PUSH1 0x0 DUP1 REVERT JUMPDEST POP PUSH2 0xE04 PUSH2 0xDE7 CALLDATASIZE PUSH1 0x4 PUSH2 0x4C40 JUMP JUMPDEST PUSH2 0x134 PUSH1 0x20 MSTORE PUSH1 0x0 SWAP1 DUP2 MSTORE PUSH1 0x40 SWAP1 KECCAK256 DUP1 SLOAD PUSH1 0x1 SWAP1 SWAP2 ADD SLOAD PUSH1 0xFF AND DUP3 JUMP JUMPDEST PUSH1 0x40 DUP1 MLOAD SWAP3 DUP4 MSTORE SWAP1 ISZERO ISZERO PUSH1 0x20 DUP4 ADD MSTORE ADD PUSH2 0x617 JUMP JUMPDEST CALLVALUE DUP1 ISZERO PUSH2 0xE25 JUMPI PUSH1 0x0 DUP1 REVERT JUMPDEST POP PUSH1 0xCA SLOAD PUSH2 0x603 SWAP1 PUSH3 0x10000 SWAP1 DIV PUSH1 0x1 PUSH1 0x1 PUSH1 0xA0 SHL SUB AND DUP2 JUMP JUMPDEST CALLVALUE DUP1 ISZERO PUSH2 0xE4B JUMPI PUSH1 0x0 DUP1 REVERT JUMPDEST POP PUSH2 0x17E SLOAD NUMBER LT ISZERO PUSH2 0x7CC JUMP JUMPDEST CALLVALUE DUP1 ISZERO PUSH2 0xE64 JUMPI PUSH1 0x0 DUP1 REVERT JUMPDEST POP PUSH2 0x67F PUSH2 0x13B SLOAD DUP2 JUMP JUMPDEST PUSH2 0x67F PUSH2 0xE7D CALLDATASIZE PUSH1 0x4 PUSH2 0x4EB6 JUMP JUMPDEST PUSH2 0x1BEB JUMP JUMPDEST CALLVALUE DUP1 ISZERO PUSH2 0xE8E JUMPI PUSH1 0x0 DUP1 REVERT JUMPDEST POP PUSH1 0xCA SLOAD PUSH2 0x7CC SWAP1 PUSH1 0xFF AND DUP2 JUMP JUMPDEST CALLVALUE DUP1 ISZERO PUSH2 0xEA8 JUMPI PUSH1 0x0 DUP1 REVERT JUMPDEST POP PUSH2 0x5BC PUSH2 0xEB7 CALLDATASIZE PUSH1 0x4 PUSH2 0x4B88 JUMP JUMPDEST PUSH2 0x1BF9 JUMP JUMPDEST CALLVALUE DUP1 ISZERO PUSH2 0xEC8 JUMPI PUSH1 0x0 DUP1 REVERT JUMPDEST POP PUSH2 0x5BC PUSH2 0xED7 CALLDATASIZE PUSH1 0x4 PUSH2 0x4B88 JUMP JUMPDEST PUSH2 0x1C07 JUMP JUMPDEST CALLVALUE DUP1 ISZERO PUSH2 0xEE8 JUMPI PUSH1 0x0 DUP1 REVERT JUMPDEST POP PUSH2 0x67F PUSH2 0x1C15 JUMP JUMPDEST CALLVALUE DUP1 ISZERO PUSH2 0xEFD JUMPI PUSH1 0x0 DUP1 REVERT JUMPDEST POP PUSH2 0x5BC PUSH2 0xF0C CALLDATASIZE PUSH1 0x4 PUSH2 0x4B88 JUMP JUMPDEST PUSH2 0x1C30 JUMP JUMPDEST PUSH2 0x633 PUSH2 0xF1F CALLDATASIZE PUSH1 0x4 PUSH2 0x4F45 JUMP JUMPDEST PUSH2 0x1C3E JUMP JUMPDEST CALLVALUE DUP1 ISZERO PUSH2 0xF30 JUMPI PUSH1 0x0 DUP1 REVERT JUMPDEST POP PUSH2 0x5BC PUSH2 0x1C51 JUMP JUMPDEST CALLVALUE DUP1 ISZERO PUSH2 0xF45 JUMPI PUSH1 0x0 DUP1 REVERT JUMPDEST POP PUSH2 0x5BC PUSH2 0xF54 CALLDATASIZE PUSH1 0x4 PUSH2 0x4FAE JUMP JUMPDEST PUSH2 0x1C8B JUMP JUMPDEST CALLVALUE DUP1 ISZERO PUSH2 0xF65 JUMPI PUSH1 0x0 DUP1 REVERT JUMPDEST POP PUSH2 0x67F PUSH2 0xF74 CALLDATASIZE PUSH1 0x4 PUSH2 0x4B88 JUMP JUMPDEST PUSH2 0x2018 JUMP JUMPDEST CALLVALUE DUP1 ISZERO PUSH2 0xF85 JUMPI PUSH1 0x0 DUP1 REVERT JUMPDEST POP PUSH2 0x67F PUSH2 0x2029 JUMP JUMPDEST CALLVALUE DUP1 ISZERO PUSH2 0xF9A JUMPI PUSH1 0x0 DUP1 REVERT JUMPDEST POP PUSH2 0x67F PUSH2 0xFA9 CALLDATASIZE PUSH1 0x4 PUSH2 0x4FC0 JUMP JUMPDEST PUSH2 0x2046 JUMP JUMPDEST CALLVALUE DUP1 ISZERO PUSH2 0xFBA JUMPI PUSH1 0x0 DUP1 REVERT JUMPDEST POP PUSH2 0x5BC PUSH2 0xFC9 CALLDATASIZE PUSH1 0x4 PUSH2 0x4C40 JUMP JUMPDEST PUSH2 0x2054 JUMP JUMPDEST CALLVALUE DUP1 ISZERO PUSH2 0xFDA JUMPI PUSH1 0x0 DUP1 REVERT JUMPDEST POP PUSH2 0x633 PUSH2 0xFE9 CALLDATASIZE PUSH1 0x4 PUSH2 0x4B88 JUMP JUMPDEST PUSH2 0x207E JUMP JUMPDEST CALLVALUE DUP1 ISZERO PUSH2 0xFFA JUMPI PUSH1 0x0 DUP1 REVERT JUMPDEST POP PUSH2 0x148 SLOAD PUSH2 0x7CC SWAP1 PUSH1 0xFF AND DUP2 JUMP JUMPDEST CALLVALUE DUP1 ISZERO PUSH2 0x1015 JUMPI PUSH1 0x0 DUP1 REVERT JUMPDEST POP PUSH2 0x67F PUSH2 0x20AD JUMP JUMPDEST CALLVALUE DUP1 ISZERO PUSH2 0x102A JUMPI PUSH1 0x0 DUP1 REVERT JUMPDEST POP PUSH2 0x5BC PUSH2 0x1039 CALLDATASIZE PUSH1 0x4 PUSH2 0x4FAE JUMP JUMPDEST PUSH2 0x20CE JUMP JUMPDEST CALLVALUE DUP1 ISZERO PUSH2 0x104A JUMPI PUSH1 0x0 DUP1 REVERT JUMPDEST POP PUSH2 0x5BC PUSH2 0x1059 CALLDATASIZE PUSH1 0x4 PUSH2 0x4B88 JUMP JUMPDEST PUSH2 0x2358 JUMP JUMPDEST CALLVALUE DUP1 ISZERO PUSH2 0x106A JUMPI PUSH1 0x0 DUP1 REVERT JUMPDEST POP PUSH2 0x67F PUSH2 0x12F SLOAD DUP2 JUMP JUMPDEST CALLVALUE DUP1 ISZERO PUSH2 0x1081 JUMPI PUSH1 0x0 DUP1 REVERT JUMPDEST POP PUSH2 0x67F PUSH2 0x13F SLOAD DUP2 JUMP JUMPDEST CALLVALUE DUP1 ISZERO PUSH2 0x1098 JUMPI PUSH1 0x0 DUP1 REVERT JUMPDEST POP PUSH2 0x67F PUSH2 0x138 SLOAD DUP2 JUMP JUMPDEST CALLVALUE DUP1 ISZERO PUSH2 0x10AF JUMPI PUSH1 0x0 DUP1 REVERT JUMPDEST POP PUSH2 0x67F PUSH2 0x10BE CALLDATASIZE PUSH1 0x4 PUSH2 0x4B88 JUMP JUMPDEST PUSH2 0x2366 JUMP JUMPDEST CALLVALUE DUP1 ISZERO PUSH2 0x10CF JUMPI PUSH1 0x0 DUP1 REVERT JUMPDEST POP PUSH2 0x67F PUSH2 0x13A SLOAD DUP2 JUMP JUMPDEST DUP1 PUSH2 0x12F PUSH1 0x0 DUP3 DUP3 SLOAD PUSH2 0x10ED SWAP2 SWAP1 PUSH2 0x5004 JUMP JUMPDEST SWAP1 SWAP2 SSTORE POP POP POP JUMP JUMPDEST PUSH2 0x10FD PUSH2 0x23A0 JUMP JUMPDEST PUSH2 0x138 SSTORE JUMP JUMPDEST PUSH2 0x133 DUP2 DUP2 SLOAD DUP2 LT PUSH2 0x1114 JUMPI PUSH1 0x0 DUP1 REVERT JUMPDEST PUSH1 0x0 SWAP2 DUP3 MSTORE PUSH1 0x20 SWAP1 SWAP2 KECCAK256 ADD SLOAD PUSH1 0x1 PUSH1 0x1 PUSH1 0xA0 SHL SUB AND SWAP1 POP DUP2 JUMP JUMPDEST PUSH1 0x0 DUP1 PUSH2 0x1146 DUP8 PUSH1 0xFF AND DUP8 PUSH1 0xFF AND DUP8 DUP8 CALLVALUE CALLER DUP10 PUSH2 0x2429 JUMP JUMPDEST SWAP2 POP SWAP2 POP SWAP6 POP SWAP6 SWAP4 POP POP POP POP JUMP JUMPDEST PUSH1 0x0 SLOAD PUSH2 0x100 SWAP1 DIV PUSH1 0xFF AND ISZERO DUP1 DUP1 ISZERO PUSH2 0x1174 JUMPI POP PUSH1 0x0 SLOAD PUSH1 0x1 PUSH1 0xFF SWAP1 SWAP2 AND LT JUMPDEST DUP1 PUSH2 0x118E JUMPI POP ADDRESS EXTCODESIZE ISZERO DUP1 ISZERO PUSH2 0x118E JUMPI POP PUSH1 0x0 SLOAD PUSH1 0xFF AND PUSH1 0x1 EQ JUMPDEST PUSH2 0x11F6 JUMPI PUSH1 0x40 MLOAD PUSH3 0x461BCD PUSH1 0xE5 SHL DUP2 MSTORE PUSH1 0x20 PUSH1 0x4 DUP3 ADD MSTORE PUSH1 0x2E PUSH1 0x24 DUP3 ADD MSTORE PUSH32 0x496E697469616C697A61626C653A20636F6E747261637420697320616C726561 PUSH1 0x44 DUP3 ADD MSTORE PUSH14 0x191E481A5B9A5D1A585B1A5E9959 PUSH1 0x92 SHL PUSH1 0x64 DUP3 ADD MSTORE PUSH1 0x84 ADD JUMPDEST PUSH1 0x40 MLOAD DUP1 SWAP2 SUB SWAP1 REVERT JUMPDEST PUSH1 0x0 DUP1 SLOAD PUSH1 0xFF NOT AND PUSH1 0x1 OR SWAP1 SSTORE DUP1 ISZERO PUSH2 0x1219 JUMPI PUSH1 0x0 DUP1 SLOAD PUSH2 0xFF00 NOT AND PUSH2 0x100 OR SWAP1 SSTORE JUMPDEST PUSH2 0x1222 DUP3 PUSH2 0x260D JUMP JUMPDEST DUP1 ISZERO PUSH2 0x1268 JUMPI PUSH1 0x0 DUP1 SLOAD PUSH2 0xFF00 NOT AND SWAP1 SSTORE PUSH1 0x40 MLOAD PUSH1 0x1 DUP2 MSTORE PUSH32 0x7F26B83FF96E1F2B6A682F133852F6798A09C465DA95921460CEFB3847402498 SWAP1 PUSH1 0x20 ADD PUSH1 0x40 MLOAD DUP1 SWAP2 SUB SWAP1 LOG1 JUMPDEST POP POP JUMP JUMPDEST PUSH2 0x1274 PUSH2 0x23A0 JUMP JUMPDEST PUSH2 0x143 DUP1 SLOAD PUSH1 0x1 PUSH1 0x1 PUSH1 0xA0 SHL SUB NOT AND PUSH1 0x1 PUSH1 0x1 PUSH1 0xA0 SHL SUB SWAP3 SWAP1 SWAP3 AND SWAP2 SWAP1 SWAP2 OR SWAP1 SSTORE JUMP JUMPDEST PUSH2 0x129F PUSH2 0x23A0 JUMP JUMPDEST PUSH2 0x13D SSTORE JUMP JUMPDEST PUSH1 0x0 DUP1 PUSH2 0x12B6 DUP7 DUP7 DUP7 DUP7 CALLER CALLER PUSH2 0x2685 JUMP JUMPDEST SWAP2 POP SWAP2 POP SWAP5 POP SWAP5 SWAP3 POP POP POP JUMP JUMPDEST PUSH1 0x0 PUSH2 0x12D2 DUP5 DUP5 DUP5 CALLER CALLER PUSH2 0x2812 JUMP JUMPDEST SWAP1 POP JUMPDEST SWAP4 SWAP3 POP POP POP JUMP JUMPDEST PUSH1 0x0 DUP1 PUSH2 0x12B6 DUP7 PUSH1 0xFF AND DUP7 PUSH1 0xFF AND DUP7 DUP7 CALLVALUE CALLER CALLER PUSH2 0x2429 JUMP JUMPDEST PUSH1 0x0 DUP1 PUSH1 0x0 PUSH2 0x1301 PUSH2 0x2929 JUMP JUMPDEST SWAP2 POP SWAP2 POP PUSH2 0x130F DUP3 DUP3 PUSH2 0x29D5 JUMP JUMPDEST SWAP3 POP POP POP SWAP1 JUMP JUMPDEST PUSH2 0x131E PUSH2 0x23A0 JUMP JUMPDEST PUSH2 0x148 DUP1 SLOAD PUSH1 0xFF NOT AND SWAP2 ISZERO ISZERO SWAP2 SWAP1 SWAP2 OR SWAP1 SSTORE JUMP JUMPDEST PUSH2 0x133A PUSH2 0x23A0 JUMP JUMPDEST PUSH2 0x140 SSTORE JUMP JUMPDEST PUSH2 0x1348 PUSH2 0x23A0 JUMP JUMPDEST PUSH2 0x144 DUP1 SLOAD PUSH1 0x1 PUSH1 0x1 PUSH1 0xA0 SHL SUB NOT AND PUSH1 0x1 PUSH1 0x1 PUSH1 0xA0 SHL SUB SWAP3 SWAP1 SWAP3 AND SWAP2 SWAP1 SWAP2 OR SWAP1 SSTORE JUMP JUMPDEST PUSH2 0x1373 PUSH2 0x23A0 JUMP JUMPDEST PUSH2 0x147 SSTORE JUMP JUMPDEST PUSH2 0x1381 PUSH2 0x23A0 JUMP JUMPDEST PUSH1 0xCA DUP1 SLOAD PUSH1 0x1 PUSH1 0x1 PUSH1 0xA0 SHL SUB SWAP1 SWAP3 AND PUSH3 0x10000 MUL PUSH3 0x10000 PUSH1 0x1 PUSH1 0xB0 SHL SUB NOT SWAP1 SWAP3 AND SWAP2 SWAP1 SWAP2 OR SWAP1 SSTORE JUMP JUMPDEST PUSH1 0x0 PUSH2 0x13B9 DUP3 CALLVALUE CALLER CALLER PUSH2 0x2A11 JUMP JUMPDEST SWAP3 SWAP2 POP POP JUMP JUMPDEST PUSH2 0x13C7 PUSH2 0x2B23 JUMP JUMPDEST PUSH2 0x148 SLOAD PUSH1 0xFF AND DUP1 ISZERO PUSH2 0x13E3 JUMPI POP PUSH2 0x148 SLOAD PUSH2 0x100 SWAP1 DIV PUSH1 0xFF AND ISZERO JUMPDEST DUP1 ISZERO PUSH2 0x13F2 JUMPI POP PUSH2 0x13F2 PUSH2 0x1BAF JUMP JUMPDEST ISZERO PUSH2 0x14A1 JUMPI PUSH2 0x148 DUP1 SLOAD PUSH2 0xFF00 NOT AND PUSH2 0x100 OR SWAP1 SSTORE PUSH1 0x40 MLOAD PUSH32 0x8B77276C97A5709F0D6DB52329848A254EB760CE8BE80D281799F633BDB69E83 SWAP1 PUSH1 0x0 SWAP1 LOG1 PUSH2 0x131 PUSH1 0x0 SWAP1 SLOAD SWAP1 PUSH2 0x100 EXP SWAP1 DIV PUSH1 0x1 PUSH1 0x1 PUSH1 0xA0 SHL SUB AND PUSH1 0x1 PUSH1 0x1 PUSH1 0xA0 SHL SUB AND PUSH4 0x8456CB59 PUSH1 0x40 MLOAD DUP2 PUSH4 0xFFFFFFFF AND PUSH1 0xE0 SHL DUP2 MSTORE PUSH1 0x4 ADD PUSH1 0x0 PUSH1 0x40 MLOAD DUP1 DUP4 SUB DUP2 PUSH1 0x0 DUP8 DUP1 EXTCODESIZE ISZERO DUP1 ISZERO PUSH2 0x1481 JUMPI PUSH1 0x0 DUP1 REVERT JUMPDEST POP GAS CALL ISZERO DUP1 ISZERO PUSH2 0x1495 JUMPI RETURNDATASIZE PUSH1 0x0 DUP1 RETURNDATACOPY RETURNDATASIZE PUSH1 0x0 REVERT JUMPDEST POP POP POP POP PUSH2 0x14A1 PUSH2 0x2B4C JUMP JUMPDEST JUMP JUMPDEST PUSH1 0x1 PUSH1 0x1 PUSH1 0xA0 SHL SUB PUSH32 0x0 AND ADDRESS SUB PUSH2 0x14EB JUMPI PUSH1 0x40 MLOAD PUSH3 0x461BCD PUSH1 0xE5 SHL DUP2 MSTORE PUSH1 0x4 ADD PUSH2 0x11ED SWAP1 PUSH2 0x5017 JUMP JUMPDEST PUSH32 0x0 PUSH1 0x1 PUSH1 0x1 PUSH1 0xA0 SHL SUB AND PUSH2 0x1534 PUSH1 0x0 DUP1 MLOAD PUSH1 0x20 PUSH2 0x5335 DUP4 CODECOPY DUP2 MLOAD SWAP2 MSTORE SLOAD PUSH1 0x1 PUSH1 0x1 PUSH1 0xA0 SHL SUB AND SWAP1 JUMP JUMPDEST PUSH1 0x1 PUSH1 0x1 PUSH1 0xA0 SHL SUB AND EQ PUSH2 0x155A JUMPI PUSH1 0x40 MLOAD PUSH3 0x461BCD PUSH1 0xE5 SHL DUP2 MSTORE PUSH1 0x4 ADD PUSH2 0x11ED SWAP1 PUSH2 0x5063 JUMP JUMPDEST PUSH2 0x1563 DUP2 PUSH2 0x2CA8 JUMP JUMPDEST PUSH1 0x40 DUP1 MLOAD PUSH1 0x0 DUP1 DUP3 MSTORE PUSH1 0x20 DUP3 ADD SWAP1 SWAP3 MSTORE PUSH2 0x157F SWAP2 DUP4 SWAP2 SWAP1 PUSH2 0x2CB0 JUMP JUMPDEST POP JUMP JUMPDEST PUSH1 0x0 PUSH2 0x12D2 DUP5 PUSH1 0xFF AND DUP5 CALLVALUE CALLER DUP7 PUSH2 0x2E20 JUMP JUMPDEST PUSH2 0x159C PUSH2 0x23A0 JUMP JUMPDEST PUSH2 0x17F SSTORE JUMP JUMPDEST PUSH1 0xCA SLOAD PUSH2 0x100 SWAP1 DIV PUSH1 0xFF AND PUSH2 0x15CA JUMPI PUSH1 0x40 MLOAD PUSH4 0x7C7FD079 PUSH1 0xE0 SHL DUP2 MSTORE PUSH1 0x4 ADD PUSH1 0x40 MLOAD DUP1 SWAP2 SUB SWAP1 REVERT JUMPDEST PUSH1 0xCA SLOAD PUSH3 0x10000 SWAP1 DIV PUSH1 0x1 PUSH1 0x1 PUSH1 0xA0 SHL SUB AND CALLER EQ PUSH2 0x15FB JUMPI PUSH1 0x40 MLOAD PUSH4 0x1D77D477 PUSH1 0xE2 SHL DUP2 MSTORE PUSH1 0x4 ADD PUSH1 0x40 MLOAD DUP1 SWAP2 SUB SWAP1 REVERT JUMPDEST PUSH1 0xCA DUP1 SLOAD PUSH2 0xFF00 NOT AND SWAP1 SSTORE PUSH1 0x40 MLOAD CALLER DUP2 MSTORE PUSH32 0x5DB9EE0A495BF2E6FF9C91A7834C1BA4FDD244A5E8AA4E537BD38AEAE4B073AA SWAP1 PUSH1 0x20 ADD JUMPDEST PUSH1 0x40 MLOAD DUP1 SWAP2 SUB SWAP1 LOG1 JUMP JUMPDEST PUSH1 0x0 DUP1 PUSH1 0x0 PUSH2 0x1649 PUSH2 0x2929 JUMP JUMPDEST SWAP2 POP SWAP2 POP PUSH2 0x130F PUSH2 0x1658 PUSH2 0x2F66 JUMP JUMPDEST DUP4 DUP4 PUSH2 0x304D JUMP JUMPDEST PUSH2 0x135 DUP2 DUP2 SLOAD DUP2 LT PUSH2 0x1670 JUMPI PUSH1 0x0 DUP1 REVERT JUMPDEST PUSH1 0x0 SWAP2 DUP3 MSTORE PUSH1 0x20 SWAP1 SWAP2 KECCAK256 PUSH1 0x2 SWAP1 SWAP2 MUL ADD DUP1 SLOAD PUSH1 0x1 SWAP1 SWAP2 ADD SLOAD SWAP1 SWAP2 POP PUSH1 0x1 PUSH1 0x1 PUSH1 0xA0 SHL SUB AND DUP3 JUMP JUMPDEST PUSH1 0x1 PUSH1 0x1 PUSH1 0xA0 SHL SUB PUSH32 0x0 AND ADDRESS SUB PUSH2 0x16DF JUMPI PUSH1 0x40 MLOAD PUSH3 0x461BCD PUSH1 0xE5 SHL DUP2 MSTORE PUSH1 0x4 ADD PUSH2 0x11ED SWAP1 PUSH2 0x5017 JUMP JUMPDEST PUSH32 0x0 PUSH1 0x1 PUSH1 0x1 PUSH1 0xA0 SHL SUB AND PUSH2 0x1728 PUSH1 0x0 DUP1 MLOAD PUSH1 0x20 PUSH2 0x5335 DUP4 CODECOPY DUP2 MLOAD SWAP2 MSTORE SLOAD PUSH1 0x1 PUSH1 0x1 PUSH1 0xA0 SHL SUB AND SWAP1 JUMP JUMPDEST PUSH1 0x1 PUSH1 0x1 PUSH1 0xA0 SHL SUB AND EQ PUSH2 0x174E JUMPI PUSH1 0x40 MLOAD PUSH3 0x461BCD PUSH1 0xE5 SHL DUP2 MSTORE PUSH1 0x4 ADD PUSH2 0x11ED SWAP1 PUSH2 0x5063 JUMP JUMPDEST PUSH2 0x1757 DUP3 PUSH2 0x2CA8 JUMP JUMPDEST PUSH2 0x1268 DUP3 DUP3 PUSH1 0x1 PUSH2 0x2CB0 JUMP JUMPDEST PUSH2 0x176B PUSH2 0x23A0 JUMP JUMPDEST PUSH1 0xCA DUP1 SLOAD PUSH1 0xFF NOT AND SWAP1 SSTORE JUMP JUMPDEST PUSH2 0x142 DUP2 DUP2 SLOAD DUP2 LT PUSH2 0x1788 JUMPI PUSH1 0x0 DUP1 REVERT JUMPDEST PUSH1 0x0 SWAP2 DUP3 MSTORE PUSH1 0x20 SWAP1 SWAP2 KECCAK256 ADD SLOAD SWAP1 POP DUP2 JUMP JUMPDEST PUSH1 0x0 ADDRESS PUSH1 0x1 PUSH1 0x1 PUSH1 0xA0 SHL SUB PUSH32 0x0 AND EQ PUSH2 0x1839 JUMPI PUSH1 0x40 MLOAD PUSH3 0x461BCD PUSH1 0xE5 SHL DUP2 MSTORE PUSH1 0x20 PUSH1 0x4 DUP3 ADD MSTORE PUSH1 0x38 PUSH1 0x24 DUP3 ADD MSTORE PUSH32 0x555550535570677261646561626C653A206D757374206E6F742062652063616C PUSH1 0x44 DUP3 ADD MSTORE PUSH32 0x6C6564207468726F7567682064656C656761746563616C6C0000000000000000 PUSH1 0x64 DUP3 ADD MSTORE PUSH1 0x84 ADD PUSH2 0x11ED JUMP JUMPDEST POP PUSH1 0x0 DUP1 MLOAD PUSH1 0x20 PUSH2 0x5335 DUP4 CODECOPY DUP2 MLOAD SWAP2 MSTORE SWAP1 JUMP JUMPDEST PUSH1 0x0 PUSH2 0x185B DUP6 DUP6 DUP6 CALLER DUP7 PUSH2 0x2812 JUMP JUMPDEST SWAP6 SWAP5 POP POP POP POP POP JUMP JUMPDEST PUSH1 0x0 PUSH8 0xDE0B6B3A7640000 PUSH2 0x146 SLOAD PUSH2 0x187D SWAP2 SWAP1 PUSH2 0x50AF JUMP JUMPDEST PUSH2 0x27C SLOAD PUSH2 0x188B SWAP2 SWAP1 PUSH2 0x5004 JUMP JUMPDEST SWAP1 POP SWAP1 JUMP JUMPDEST PUSH1 0x0 DUP1 PUSH2 0x18A4 DUP6 PUSH1 0xFF AND DUP6 DUP6 CALLVALUE CALLER CALLER PUSH2 0x3071 JUMP JUMPDEST SWAP2 POP SWAP2 POP SWAP4 POP SWAP4 SWAP2 POP POP JUMP JUMPDEST PUSH2 0x18B8 PUSH2 0x2B23 JUMP JUMPDEST PUSH2 0x1B3 SLOAD NUMBER LT PUSH2 0x14A1 JUMPI PUSH2 0x1B2 SLOAD PUSH2 0x18D0 SWAP1 NUMBER PUSH2 0x5004 JUMP JUMPDEST PUSH2 0x1B3 SSTORE PUSH1 0x40 MLOAD PUSH32 0xD3C59BDA47E141A8EC5A33D241B7F71B86E30D359F83A9227D912858B60404FC SWAP1 PUSH1 0x0 SWAP1 LOG1 PUSH2 0x14A1 PUSH2 0x31EF JUMP JUMPDEST PUSH1 0x0 PUSH2 0x12D5 DUP4 CALLER DUP5 PUSH2 0x31F7 JUMP JUMPDEST PUSH1 0x0 PUSH2 0x191C PUSH2 0x1C51 JUMP JUMPDEST PUSH2 0x188B PUSH2 0x2F66 JUMP JUMPDEST PUSH2 0x192C PUSH2 0x23A0 JUMP JUMPDEST PUSH1 0xCA DUP1 SLOAD PUSH1 0xFF NOT AND PUSH1 0x1 OR SWAP1 SSTORE JUMP JUMPDEST PUSH1 0x0 DUP1 PUSH2 0x18A4 DUP6 PUSH1 0xFF AND DUP6 CALLVALUE CALLER DUP8 PUSH2 0x3419 JUMP JUMPDEST PUSH1 0x0 DUP1 PUSH2 0x18A4 DUP6 PUSH1 0xFF AND DUP6 DUP6 CALLVALUE CALLER CALLER PUSH2 0x3556 JUMP JUMPDEST PUSH2 0x196A PUSH2 0x23A0 JUMP JUMPDEST PUSH2 0x13C SSTORE JUMP JUMPDEST PUSH2 0x1978 PUSH2 0x23A0 JUMP JUMPDEST PUSH2 0x139 SSTORE JUMP JUMPDEST PUSH1 0x0 DUP1 PUSH2 0x1994 DUP5 DUP5 PUSH2 0x198F DUP8 PUSH2 0x1AA4 JUMP JUMPDEST PUSH2 0x3735 JUMP JUMPDEST SWAP2 POP SWAP2 POP SWAP3 POP SWAP3 SWAP1 POP JUMP JUMPDEST PUSH1 0x0 DUP1 PUSH2 0x12B6 DUP7 PUSH1 0xFF AND DUP7 DUP7 CALLVALUE CALLER DUP9 PUSH2 0x3071 JUMP JUMPDEST PUSH2 0x19BB PUSH2 0x23A0 JUMP JUMPDEST PUSH2 0x13F SSTORE JUMP JUMPDEST PUSH2 0x19C9 PUSH2 0x23A0 JUMP JUMPDEST PUSH2 0x13E SSTORE JUMP JUMPDEST PUSH2 0x19D7 PUSH2 0x23A0 JUMP JUMPDEST PUSH2 0x146 SSTORE JUMP JUMPDEST PUSH2 0x145 DUP2 DUP2 SLOAD DUP2 LT PUSH2 0x1788 JUMPI PUSH1 0x0 DUP1 REVERT JUMPDEST PUSH1 0x0 DUP1 PUSH1 0x0 PUSH2 0x19FB PUSH2 0x2929 JUMP JUMPDEST SWAP2 POP SWAP2 POP PUSH2 0x130F DUP3 DUP3 PUSH2 0x3797 JUMP JUMPDEST PUSH2 0x1A11 PUSH2 0x2B23 JUMP JUMPDEST PUSH1 0xCA SLOAD PUSH3 0x10000 SWAP1 DIV PUSH1 0x1 PUSH1 0x1 PUSH1 0xA0 SHL SUB AND CALLER EQ PUSH2 0x1A42 JUMPI PUSH1 0x40 MLOAD PUSH4 0x1D77D477 PUSH1 0xE2 SHL DUP2 MSTORE PUSH1 0x4 ADD PUSH1 0x40 MLOAD DUP1 SWAP2 SUB SWAP1 REVERT JUMPDEST PUSH1 0xCA SLOAD PUSH1 0xFF AND PUSH2 0x1A65 JUMPI PUSH1 0x40 MLOAD PUSH4 0x866099C3 PUSH1 0xE0 SHL DUP2 MSTORE PUSH1 0x4 ADD PUSH1 0x40 MLOAD DUP1 SWAP2 SUB SWAP1 REVERT JUMPDEST PUSH1 0xCA DUP1 SLOAD PUSH2 0xFF00 NOT AND PUSH2 0x100 OR SWAP1 SSTORE PUSH1 0x40 MLOAD CALLER DUP2 MSTORE PUSH32 0x62E78CEA01BEE320CD4E420270B5EA74000D11B0C9F74754EBDBFC544B05A258 SWAP1 PUSH1 0x20 ADD PUSH2 0x1632 JUMP JUMPDEST PUSH1 0x0 DUP1 PUSH2 0x135 DUP4 DUP2 SLOAD DUP2 LT PUSH2 0x1ABB JUMPI PUSH2 0x1ABB PUSH2 0x50D1 JUMP JUMPDEST PUSH1 0x0 SWAP2 DUP3 MSTORE PUSH1 0x20 DUP3 KECCAK256 PUSH1 0x1 PUSH1 0x2 SWAP1 SWAP3 MUL ADD ADD SLOAD PUSH1 0x40 DUP1 MLOAD PUSH4 0x59E02DD7 PUSH1 0xE0 SHL DUP2 MSTORE DUP2 MLOAD PUSH1 0x1 PUSH1 0x1 PUSH1 0xA0 SHL SUB SWAP1 SWAP4 AND SWAP5 POP DUP4 SWAP3 DUP6 SWAP3 PUSH4 0x59E02DD7 SWAP3 PUSH1 0x4 DUP1 DUP3 ADD SWAP4 SWAP2 DUP3 SWAP1 SUB ADD DUP2 DUP7 GAS STATICCALL ISZERO DUP1 ISZERO PUSH2 0x1B15 JUMPI RETURNDATASIZE PUSH1 0x0 DUP1 RETURNDATACOPY RETURNDATASIZE PUSH1 0x0 REVERT JUMPDEST POP POP POP POP PUSH1 0x40 MLOAD RETURNDATASIZE PUSH1 0x1F NOT PUSH1 0x1F DUP3 ADD AND DUP3 ADD DUP1 PUSH1 0x40 MSTORE POP DUP2 ADD SWAP1 PUSH2 0x1B39 SWAP2 SWAP1 PUSH2 0x50E7 JUMP JUMPDEST SWAP2 POP SWAP2 POP DUP1 PUSH2 0x1B66 JUMPI PUSH1 0x40 MLOAD PUSH4 0xDE4F3A0F PUSH1 0xE0 SHL DUP2 MSTORE PUSH1 0x1 PUSH1 0x1 PUSH1 0xA0 SHL SUB DUP5 AND PUSH1 0x4 DUP3 ADD MSTORE PUSH1 0x24 ADD PUSH2 0x11ED JUMP JUMPDEST POP SWAP4 SWAP3 POP POP POP JUMP JUMPDEST PUSH1 0x0 PUSH2 0x13B9 DUP3 CALLER CALLER PUSH2 0x31F7 JUMP JUMPDEST PUSH1 0x0 PUSH2 0x12D5 DUP4 PUSH1 0xFF AND DUP4 CALLVALUE CALLER CALLER PUSH2 0x2E20 JUMP JUMPDEST PUSH1 0x0 DUP1 PUSH2 0x12B6 DUP7 PUSH1 0xFF AND DUP7 DUP7 CALLVALUE CALLER DUP9 PUSH2 0x3556 JUMP JUMPDEST PUSH1 0x0 PUSH2 0x12D5 DUP4 DUP4 CALLER CALLER PUSH2 0x37B6 JUMP JUMPDEST PUSH1 0x0 DUP1 PUSH1 0x0 PUSH2 0x1BBC PUSH2 0x2929 JUMP JUMPDEST SWAP2 POP SWAP2 POP PUSH1 0x0 PUSH2 0x1BCC DUP4 DUP4 PUSH2 0x3797 JUMP JUMPDEST PUSH2 0x147 SLOAD LT ISZERO SWAP5 SWAP4 POP POP POP POP JUMP JUMPDEST PUSH1 0x0 DUP1 PUSH2 0x1146 DUP8 DUP8 DUP8 DUP8 CALLER DUP9 PUSH2 0x2685 JUMP JUMPDEST PUSH1 0x0 PUSH2 0x12D5 DUP4 CALLVALUE CALLER DUP6 PUSH2 0x2A11 JUMP JUMPDEST PUSH2 0x1C01 PUSH2 0x23A0 JUMP JUMPDEST PUSH2 0x137 SSTORE JUMP JUMPDEST PUSH2 0x1C0F PUSH2 0x23A0 JUMP JUMPDEST PUSH2 0x13B SSTORE JUMP JUMPDEST PUSH1 0x0 DUP1 PUSH1 0x0 PUSH2 0x1C22 PUSH2 0x2929 JUMP JUMPDEST SWAP2 POP SWAP2 POP PUSH2 0x130F DUP3 DUP3 PUSH2 0x38C1 JUMP JUMPDEST PUSH2 0x1C38 PUSH2 0x23A0 JUMP JUMPDEST PUSH2 0x1B2 SSTORE JUMP JUMPDEST PUSH1 0x0 DUP1 PUSH2 0x1994 DUP5 PUSH1 0xFF AND DUP5 CALLVALUE CALLER CALLER PUSH2 0x3419 JUMP JUMPDEST PUSH2 0x17E SLOAD NUMBER LT PUSH2 0x14A1 JUMPI PUSH2 0x135 SLOAD PUSH1 0x0 JUMPDEST DUP2 DUP2 LT ISZERO PUSH2 0x1C7B JUMPI PUSH2 0x1C73 DUP2 PUSH2 0x38E5 JUMP JUMPDEST PUSH1 0x1 ADD PUSH2 0x1C62 JUMP JUMPDEST POP PUSH2 0x157F PUSH2 0x17F SLOAD NUMBER ADD PUSH2 0x17E SSTORE JUMP JUMPDEST PUSH2 0x1C93 PUSH2 0x23A0 JUMP JUMPDEST PUSH1 0x0 PUSH2 0x1CA2 PUSH1 0x20 DUP4 ADD DUP4 PUSH2 0x4C40 JUMP JUMPDEST PUSH1 0x40 MLOAD PUSH4 0xD55FD845 PUSH1 0xE0 SHL DUP2 MSTORE ADDRESS PUSH1 0x4 DUP3 ADD MSTORE SWAP1 SWAP2 POP PUSH1 0x1 PUSH1 0x1 PUSH1 0xA0 SHL SUB DUP3 AND SWAP1 PUSH4 0xD55FD845 SWAP1 PUSH1 0x24 ADD PUSH1 0x20 PUSH1 0x40 MLOAD DUP1 DUP4 SUB DUP2 DUP7 GAS STATICCALL ISZERO DUP1 ISZERO PUSH2 0x1CE9 JUMPI RETURNDATASIZE PUSH1 0x0 DUP1 RETURNDATACOPY RETURNDATASIZE PUSH1 0x0 REVERT JUMPDEST POP POP POP POP PUSH1 0x40 MLOAD RETURNDATASIZE PUSH1 0x1F NOT PUSH1 0x1F DUP3 ADD AND DUP3 ADD DUP1 PUSH1 0x40 MSTORE POP DUP2 ADD SWAP1 PUSH2 0x1D0D SWAP2 SWAP1 PUSH2 0x510C JUMP JUMPDEST PUSH2 0x1D2A JUMPI PUSH1 0x40 MLOAD PUSH4 0xE6C4247B PUSH1 0xE0 SHL DUP2 MSTORE PUSH1 0x4 ADD PUSH1 0x40 MLOAD DUP1 SWAP2 SUB SWAP1 REVERT JUMPDEST PUSH1 0x0 PUSH2 0x1D3C PUSH1 0x40 DUP5 ADD PUSH1 0x20 DUP6 ADD PUSH2 0x4C40 JUMP JUMPDEST PUSH1 0x1 PUSH1 0x1 PUSH1 0xA0 SHL SUB DUP4 AND PUSH1 0x0 SWAP1 DUP2 MSTORE PUSH2 0x134 PUSH1 0x20 MSTORE PUSH1 0x40 SWAP1 KECCAK256 PUSH1 0x1 ADD SLOAD SWAP1 SWAP2 POP PUSH1 0xFF AND ISZERO PUSH2 0x1D7D JUMPI PUSH1 0x40 MLOAD PUSH4 0x3458F6C5 PUSH1 0xE0 SHL DUP2 MSTORE PUSH1 0x4 ADD PUSH1 0x40 MLOAD DUP1 SWAP2 SUB SWAP1 REVERT JUMPDEST PUSH2 0x133 DUP1 SLOAD PUSH1 0x40 DUP1 MLOAD DUP1 DUP3 ADD DUP3 MSTORE DUP3 DUP2 MSTORE PUSH1 0x1 PUSH1 0x20 DUP1 DUP4 ADD DUP3 DUP2 MSTORE PUSH1 0x1 PUSH1 0x1 PUSH1 0xA0 SHL SUB DUP1 DUP11 AND PUSH1 0x0 DUP2 DUP2 MSTORE PUSH2 0x134 DUP6 MSTORE DUP8 DUP2 KECCAK256 SWAP7 MLOAD DUP8 SSTORE SWAP3 MLOAD SWAP6 DUP6 ADD DUP1 SLOAD SWAP7 ISZERO ISZERO PUSH1 0xFF NOT SWAP1 SWAP8 AND SWAP7 SWAP1 SWAP7 OR SWAP1 SWAP6 SSTORE DUP8 SLOAD DUP1 DUP6 ADD SWAP1 SWAP9 SSTORE PUSH32 0x92E985329FB94CC1B424EBB0F7F2929B6D27383CA94C0EC71C44FB48BDF96D2C SWAP1 SWAP8 ADD DUP1 SLOAD PUSH1 0x1 PUSH1 0x1 PUSH1 0xA0 SHL SUB NOT SWAP1 DUP2 AND SWAP1 SWAP6 OR SWAP1 SSTORE DUP5 MLOAD DUP1 DUP7 ADD DUP7 MSTORE DUP2 DUP2 MSTORE DUP9 DUP9 AND DUP2 DUP5 ADD SWAP1 DUP2 MSTORE PUSH2 0x135 DUP1 SLOAD DUP1 DUP8 ADD DUP3 SSTORE SWAP1 DUP5 MSTORE SWAP2 MLOAD PUSH1 0x2 SWAP3 DUP4 MUL PUSH32 0xDF37D27E88E3BD0B85262482997E409A463F5BE0EBB19232ABF994DD8474090D DUP2 ADD SWAP2 SWAP1 SWAP2 SSTORE SWAP1 MLOAD PUSH32 0xDF37D27E88E3BD0B85262482997E409A463F5BE0EBB19232ABF994DD8474090E SWAP1 SWAP2 ADD DUP1 SLOAD SWAP2 SWAP1 SWAP10 AND SWAP6 AND SWAP5 SWAP1 SWAP5 OR SWAP1 SWAP7 SSTORE PUSH2 0x145 DUP1 SLOAD DUP1 DUP5 ADD SWAP1 SWAP2 SSTORE DUP10 DUP6 ADD CALLDATALOAD PUSH32 0xED95984ADD84C4014C7F9D66A1B73E788E2DB64F5763FA861AD52DA204F71B2B SWAP1 SWAP2 ADD SSTORE PUSH2 0x141 DUP1 SLOAD DUP1 DUP5 ADD SWAP1 SWAP2 SSTORE PUSH1 0x60 DUP11 ADD CALLDATALOAD PUSH32 0xB3926254D0163C91FC94BF08F3F8062FF5D48635DFA7DBEF8168AD7D4847A758 SWAP1 SWAP2 ADD SSTORE PUSH2 0x142 DUP1 SLOAD DUP1 DUP5 ADD SWAP1 SWAP2 SSTORE PUSH1 0x80 DUP11 ADD CALLDATALOAD PUSH32 0x7917AD5F1BD6FA6D4F9128143F89BCBA30C5B503E76ECD2DD7562DDF9706AE19 SWAP1 SWAP2 ADD SSTORE DUP4 MLOAD DUP1 DUP6 ADD SWAP1 SWAP5 MSTORE PUSH1 0xA0 DUP10 ADD CALLDATALOAD DUP5 MSTORE PUSH1 0xC0 DUP10 ADD CALLDATALOAD SWAP1 DUP5 ADD SWAP1 DUP2 MSTORE PUSH2 0x17D DUP1 SLOAD DUP1 DUP5 ADD DUP3 SSTORE SWAP1 DUP8 MSTORE SWAP4 MLOAD SWAP4 SWAP1 SWAP3 MUL PUSH32 0xF2AEC2A8C6072690B3C86D5C08E34587F891268D22D8BDCA6E66838C0F2F22D DUP2 ADD SWAP4 SWAP1 SWAP4 SSTORE SWAP1 MLOAD PUSH32 0xF2AEC2A8C6072690B3C86D5C08E34587F891268D22D8BDCA6E66838C0F2F22E SWAP1 SWAP3 ADD SWAP2 SWAP1 SWAP2 SSTORE PUSH2 0x149 DUP1 SLOAD SWAP1 SWAP2 ADD DUP2 SSTORE SWAP1 SWAP2 MSTORE PUSH2 0x14A PUSH2 0x1FC2 DUP3 PUSH2 0x1AA4 JUMP JUMPDEST DUP2 SLOAD PUSH1 0x1 DUP2 ADD DUP4 SSTORE PUSH1 0x0 SWAP3 DUP4 MSTORE PUSH1 0x20 SWAP1 SWAP3 KECCAK256 SWAP1 SWAP2 ADD SSTORE PUSH1 0x40 MLOAD DUP2 SWAP1 PUSH32 0x6417E5A3C1E0E5DAE98B8FE718C4BABDFCB35E0D7B5E1B9641B5914756F5D8E3 SWAP1 PUSH2 0x200A SWAP1 DUP8 SWAP1 PUSH2 0x5129 JUMP JUMPDEST PUSH1 0x40 MLOAD DUP1 SWAP2 SUB SWAP1 LOG2 POP POP POP POP JUMP JUMPDEST PUSH2 0x141 DUP2 DUP2 SLOAD DUP2 LT PUSH2 0x1788 JUMPI PUSH1 0x0 DUP1 REVERT JUMPDEST PUSH1 0x0 DUP1 PUSH2 0x2034 PUSH2 0x2929 JUMP JUMPDEST SWAP2 POP POP PUSH2 0x2040 DUP2 PUSH2 0x39FF JUMP JUMPDEST SWAP2 POP POP SWAP1 JUMP JUMPDEST PUSH1 0x0 PUSH2 0x12D2 DUP5 DUP5 CALLER DUP6 PUSH2 0x37B6 JUMP JUMPDEST PUSH2 0x205C PUSH2 0x23A0 JUMP JUMPDEST PUSH1 0x97 DUP1 SLOAD PUSH1 0x1 PUSH1 0x1 PUSH1 0xA0 SHL SUB NOT AND PUSH1 0x1 PUSH1 0x1 PUSH1 0xA0 SHL SUB SWAP3 SWAP1 SWAP3 AND SWAP2 SWAP1 SWAP2 OR SWAP1 SSTORE JUMP JUMPDEST PUSH2 0x17D DUP2 DUP2 SLOAD DUP2 LT PUSH2 0x208F JUMPI PUSH1 0x0 DUP1 REVERT JUMPDEST PUSH1 0x0 SWAP2 DUP3 MSTORE PUSH1 0x20 SWAP1 SWAP2 KECCAK256 PUSH1 0x2 SWAP1 SWAP2 MUL ADD DUP1 SLOAD PUSH1 0x1 SWAP1 SWAP2 ADD SLOAD SWAP1 SWAP2 POP DUP3 JUMP JUMPDEST PUSH1 0x0 PUSH2 0x1B3 SLOAD NUMBER LT PUSH2 0x20BF JUMPI POP PUSH1 0x0 SWAP1 JUMP JUMPDEST NUMBER PUSH2 0x1B3 SLOAD PUSH2 0x188B SWAP2 SWAP1 PUSH2 0x5196 JUMP JUMPDEST PUSH2 0x20D6 PUSH2 0x23A0 JUMP JUMPDEST PUSH1 0x0 PUSH2 0x134 DUP2 PUSH2 0x20E9 PUSH1 0x20 DUP6 ADD DUP6 PUSH2 0x4C40 JUMP JUMPDEST PUSH1 0x1 PUSH1 0x1 PUSH1 0xA0 SHL SUB AND DUP2 MSTORE PUSH1 0x20 DUP1 DUP3 ADD SWAP3 SWAP1 SWAP3 MSTORE PUSH1 0x40 SWAP1 DUP2 ADD PUSH1 0x0 KECCAK256 DUP2 MLOAD DUP1 DUP4 ADD SWAP1 SWAP3 MSTORE DUP1 SLOAD DUP3 MSTORE PUSH1 0x1 ADD SLOAD PUSH1 0xFF AND ISZERO ISZERO SWAP2 DUP2 ADD DUP3 SWAP1 MSTORE SWAP2 POP PUSH2 0x213F JUMPI PUSH1 0x40 MLOAD PUSH4 0xE6C4247B PUSH1 0xE0 SHL DUP2 MSTORE PUSH1 0x4 ADD PUSH1 0x40 MLOAD DUP1 SWAP2 SUB SWAP1 REVERT JUMPDEST DUP1 MLOAD PUSH2 0x135 DUP1 SLOAD DUP3 SWAP1 DUP2 LT PUSH2 0x2156 JUMPI PUSH2 0x2156 PUSH2 0x50D1 JUMP JUMPDEST PUSH1 0x0 SWAP2 DUP3 MSTORE PUSH1 0x20 SWAP2 DUP3 SWAP1 KECCAK256 PUSH1 0x1 PUSH1 0x2 SWAP1 SWAP3 MUL ADD ADD SLOAD PUSH1 0x1 PUSH1 0x1 PUSH1 0xA0 SHL SUB AND SWAP1 PUSH2 0x2185 SWAP1 PUSH1 0x40 DUP7 ADD SWAP1 DUP7 ADD PUSH2 0x4C40 JUMP JUMPDEST PUSH1 0x1 PUSH1 0x1 PUSH1 0xA0 SHL SUB AND EQ PUSH2 0x2278 JUMPI PUSH1 0x0 PUSH2 0x21A5 PUSH1 0x40 DUP6 ADD PUSH1 0x20 DUP7 ADD PUSH2 0x4C40 JUMP JUMPDEST SWAP1 POP PUSH1 0x0 DUP2 PUSH1 0x1 PUSH1 0x1 PUSH1 0xA0 SHL SUB AND PUSH4 0x59E02DD7 PUSH1 0x40 MLOAD DUP2 PUSH4 0xFFFFFFFF AND PUSH1 0xE0 SHL DUP2 MSTORE PUSH1 0x4 ADD PUSH1 0x40 DUP1 MLOAD DUP1 DUP4 SUB DUP2 DUP7 GAS STATICCALL ISZERO DUP1 ISZERO PUSH2 0x21E6 JUMPI RETURNDATASIZE PUSH1 0x0 DUP1 RETURNDATACOPY RETURNDATASIZE PUSH1 0x0 REVERT JUMPDEST POP POP POP POP PUSH1 0x40 MLOAD RETURNDATASIZE PUSH1 0x1F NOT PUSH1 0x1F DUP3 ADD AND DUP3 ADD DUP1 PUSH1 0x40 MSTORE POP DUP2 ADD SWAP1 PUSH2 0x220A SWAP2 SWAP1 PUSH2 0x50E7 JUMP JUMPDEST SWAP2 POP POP DUP1 PUSH2 0x222B JUMPI PUSH1 0x40 MLOAD PUSH4 0xE6C4247B PUSH1 0xE0 SHL DUP2 MSTORE PUSH1 0x4 ADD PUSH1 0x40 MLOAD DUP1 SWAP2 SUB SWAP1 REVERT JUMPDEST DUP2 PUSH2 0x135 DUP5 DUP2 SLOAD DUP2 LT PUSH2 0x2240 JUMPI PUSH2 0x2240 PUSH2 0x50D1 JUMP JUMPDEST SWAP1 PUSH1 0x0 MSTORE PUSH1 0x20 PUSH1 0x0 KECCAK256 SWAP1 PUSH1 0x2 MUL ADD PUSH1 0x1 ADD PUSH1 0x0 PUSH2 0x100 EXP DUP2 SLOAD DUP2 PUSH1 0x1 PUSH1 0x1 PUSH1 0xA0 SHL SUB MUL NOT AND SWAP1 DUP4 PUSH1 0x1 PUSH1 0x1 PUSH1 0xA0 SHL SUB AND MUL OR SWAP1 SSTORE POP POP POP JUMPDEST DUP3 PUSH1 0x40 ADD CALLDATALOAD PUSH2 0x145 DUP3 DUP2 SLOAD DUP2 LT PUSH2 0x2291 JUMPI PUSH2 0x2291 PUSH2 0x50D1 JUMP JUMPDEST SWAP1 PUSH1 0x0 MSTORE PUSH1 0x20 PUSH1 0x0 KECCAK256 ADD DUP2 SWAP1 SSTORE POP DUP3 PUSH1 0x60 ADD CALLDATALOAD PUSH2 0x141 DUP3 DUP2 SLOAD DUP2 LT PUSH2 0x22B8 JUMPI PUSH2 0x22B8 PUSH2 0x50D1 JUMP JUMPDEST SWAP1 PUSH1 0x0 MSTORE PUSH1 0x20 PUSH1 0x0 KECCAK256 ADD DUP2 SWAP1 SSTORE POP DUP3 PUSH1 0x80 ADD CALLDATALOAD PUSH2 0x142 DUP3 DUP2 SLOAD DUP2 LT PUSH2 0x22DF JUMPI PUSH2 0x22DF PUSH2 0x50D1 JUMP JUMPDEST SWAP1 PUSH1 0x0 MSTORE PUSH1 0x20 PUSH1 0x0 KECCAK256 ADD DUP2 SWAP1 SSTORE POP DUP3 PUSH1 0xC0 ADD CALLDATALOAD PUSH2 0x17D DUP3 DUP2 SLOAD DUP2 LT PUSH2 0x2306 JUMPI PUSH2 0x2306 PUSH2 0x50D1 JUMP JUMPDEST SWAP1 PUSH1 0x0 MSTORE PUSH1 0x20 PUSH1 0x0 KECCAK256 SWAP1 PUSH1 0x2 MUL ADD PUSH1 0x1 ADD DUP2 SWAP1 SSTORE POP DUP1 PUSH32 0x6417E5A3C1E0E5DAE98B8FE718C4BABDFCB35E0D7B5E1B9641B5914756F5D8E3 DUP5 PUSH1 0x40 MLOAD PUSH2 0x234B SWAP2 SWAP1 PUSH2 0x5129 JUMP JUMPDEST PUSH1 0x40 MLOAD DUP1 SWAP2 SUB SWAP1 LOG2 POP POP POP JUMP JUMPDEST PUSH2 0x2360 PUSH2 0x23A0 JUMP JUMPDEST PUSH2 0x13A SSTORE JUMP JUMPDEST PUSH1 0x0 DUP1 PUSH2 0x2372 DUP4 PUSH2 0x1AA4 JUMP JUMPDEST SWAP1 POP PUSH1 0x0 DUP1 PUSH2 0x237F PUSH2 0x2929 JUMP JUMPDEST SWAP2 POP SWAP2 POP PUSH2 0x185B PUSH2 0x238E PUSH2 0x2F66 JUMP JUMPDEST PUSH2 0x2398 DUP8 DUP7 PUSH2 0x3A1E JUMP JUMPDEST DUP6 DUP6 DUP6 PUSH2 0x3A90 JUMP JUMPDEST PUSH1 0x97 SLOAD PUSH1 0x40 MLOAD PUSH4 0xD994D6D5 PUSH1 0xE0 SHL DUP2 MSTORE CALLER PUSH1 0x4 DUP3 ADD MSTORE PUSH1 0x1 PUSH1 0x1 PUSH1 0xA0 SHL SUB SWAP1 SWAP2 AND SWAP1 PUSH4 0xD994D6D5 SWAP1 PUSH1 0x24 ADD PUSH1 0x20 PUSH1 0x40 MLOAD DUP1 DUP4 SUB DUP2 DUP7 GAS STATICCALL ISZERO DUP1 ISZERO PUSH2 0x23E8 JUMPI RETURNDATASIZE PUSH1 0x0 DUP1 RETURNDATACOPY RETURNDATASIZE PUSH1 0x0 REVERT JUMPDEST POP POP POP POP PUSH1 0x40 MLOAD RETURNDATASIZE PUSH1 0x1F NOT PUSH1 0x1F DUP3 ADD AND DUP3 ADD DUP1 PUSH1 0x40 MSTORE POP DUP2 ADD SWAP1 PUSH2 0x240C SWAP2 SWAP1 PUSH2 0x510C JUMP JUMPDEST PUSH2 0x14A1 JUMPI PUSH1 0x40 MLOAD PUSH4 0x1DD1B1B5 PUSH1 0xE2 SHL DUP2 MSTORE PUSH1 0x4 ADD PUSH1 0x40 MLOAD DUP1 SWAP2 SUB SWAP1 REVERT JUMPDEST PUSH1 0x0 DUP1 PUSH2 0x2434 PUSH2 0x3AD9 JUMP JUMPDEST PUSH2 0x243C PUSH2 0x2B23 JUMP JUMPDEST DUP8 DUP10 SUB PUSH2 0x245C JUMPI PUSH1 0x40 MLOAD PUSH4 0x2A9FFAB7 PUSH1 0xE2 SHL DUP2 MSTORE PUSH1 0x4 ADD PUSH1 0x40 MLOAD DUP1 SWAP2 SUB SWAP1 REVERT JUMPDEST PUSH1 0x0 PUSH2 0x2467 DUP11 PUSH2 0x1AA4 JUMP JUMPDEST SWAP1 POP PUSH1 0x0 PUSH2 0x2474 DUP11 PUSH2 0x1AA4 JUMP JUMPDEST SWAP1 POP PUSH2 0x2480 DUP12 DUP4 PUSH2 0x3B03 JUMP JUMPDEST PUSH2 0x248A DUP11 DUP3 PUSH2 0x3B03 JUMP JUMPDEST PUSH1 0x0 PUSH2 0x2497 DUP13 DUP12 DUP6 PUSH2 0x3735 JUMP JUMPDEST POP SWAP1 POP DUP3 PUSH2 0x24A5 DUP4 DUP13 PUSH2 0x51A9 JUMP JUMPDEST PUSH2 0x24AF SWAP2 SWAP1 PUSH2 0x50AF JUMP JUMPDEST SWAP4 POP DUP9 DUP5 LT DUP1 PUSH2 0x24BD JUMPI POP DUP4 ISZERO JUMPDEST ISZERO PUSH2 0x24E5 JUMPI PUSH1 0x40 MLOAD PUSH4 0x272E3F59 PUSH1 0xE2 SHL DUP2 MSTORE PUSH1 0x4 DUP2 ADD DUP11 SWAP1 MSTORE PUSH1 0x24 DUP2 ADD DUP6 SWAP1 MSTORE PUSH1 0x44 ADD PUSH2 0x11ED JUMP JUMPDEST PUSH2 0x24EF DUP13 DUP5 PUSH2 0x3A1E JUMP JUMPDEST PUSH2 0x24F9 DUP13 DUP5 PUSH2 0x3A1E JUMP JUMPDEST GT ISZERO PUSH2 0x252D JUMPI PUSH1 0x0 PUSH2 0x2509 PUSH2 0x1912 JUMP JUMPDEST SWAP1 POP PUSH1 0x0 DUP1 PUSH2 0x2517 DUP4 PUSH2 0x3B66 JUMP JUMPDEST SWAP2 POP SWAP2 POP PUSH2 0x2529 DUP15 DUP9 DUP8 DUP7 DUP7 DUP7 PUSH2 0x3BB4 JUMP JUMPDEST POP POP POP JUMPDEST PUSH2 0x253A DUP2 PUSH2 0x13C SLOAD PUSH2 0x3C08 JUMP JUMPDEST SWAP5 POP DUP8 DUP6 GT ISZERO PUSH2 0x2567 JUMPI PUSH1 0x40 MLOAD PUSH4 0xB63F1A7 PUSH1 0xE0 SHL DUP2 MSTORE PUSH1 0x4 DUP2 ADD DUP10 SWAP1 MSTORE PUSH1 0x24 DUP2 ADD DUP7 SWAP1 MSTORE PUSH1 0x44 ADD PUSH2 0x11ED JUMP JUMPDEST PUSH1 0x40 DUP1 MLOAD DUP13 DUP2 MSTORE PUSH1 0x20 DUP2 ADD DUP13 SWAP1 MSTORE SWAP1 DUP2 ADD DUP6 SWAP1 MSTORE PUSH1 0x60 DUP2 ADD DUP7 SWAP1 MSTORE DUP13 SWAP1 DUP13 SWAP1 DUP13 SWAP1 PUSH1 0x1 PUSH1 0x1 PUSH1 0xA0 SHL SUB DUP1 DUP12 AND SWAP2 SWAP1 DUP13 AND SWAP1 DUP6 SWAP1 PUSH32 0x77D2223ACA09D9EC6E49D1B8CDCB0B40DEC540A5F65DAF1ECAB069C822BFF460 SWAP1 PUSH1 0x80 ADD PUSH1 0x40 MLOAD DUP1 SWAP2 SUB SWAP1 LOG4 POP POP POP PUSH2 0x25D7 DUP12 DUP6 PUSH1 0x0 DUP10 PUSH2 0x3C27 JUMP JUMPDEST PUSH2 0x25E4 DUP13 DUP12 PUSH1 0x0 DUP11 PUSH2 0x3CB2 JUMP JUMPDEST PUSH1 0x0 PUSH2 0x25F0 DUP10 DUP8 PUSH2 0x3D13 JUMP JUMPDEST SWAP1 POP PUSH2 0x25FD DUP9 DUP3 DUP9 PUSH2 0x3D1F JUMP JUMPDEST POP POP POP POP SWAP8 POP SWAP8 SWAP6 POP POP POP POP POP POP JUMP JUMPDEST PUSH1 0x0 SLOAD PUSH2 0x100 SWAP1 DIV PUSH1 0xFF AND PUSH2 0x2634 JUMPI PUSH1 0x40 MLOAD PUSH3 0x461BCD PUSH1 0xE5 SHL DUP2 MSTORE PUSH1 0x4 ADD PUSH2 0x11ED SWAP1 PUSH2 0x51C0 JUMP JUMPDEST PUSH2 0x2660 PUSH2 0x2649 PUSH2 0x200 DUP4 ADD PUSH2 0x1E0 DUP5 ADD PUSH2 0x4C40 JUMP JUMPDEST PUSH2 0x265B PUSH2 0x220 DUP5 ADD PUSH2 0x200 DUP6 ADD PUSH2 0x4C40 JUMP JUMPDEST PUSH2 0x3D78 JUMP JUMPDEST PUSH2 0x2669 DUP2 PUSH2 0x3DBB JUMP JUMPDEST PUSH2 0x2677 DUP2 PUSH2 0x220 ADD CALLDATALOAD PUSH2 0x4020 JUMP JUMPDEST PUSH2 0x157F DUP2 PUSH2 0x240 ADD CALLDATALOAD PUSH2 0x407A JUMP JUMPDEST PUSH1 0x0 DUP1 PUSH2 0x2690 PUSH2 0x3AD9 JUMP JUMPDEST PUSH2 0x2698 PUSH2 0x2B23 JUMP JUMPDEST PUSH1 0x0 PUSH2 0x26A3 DUP10 PUSH2 0x1AA4 JUMP JUMPDEST SWAP1 POP PUSH2 0x26AF DUP10 DUP3 PUSH2 0x3B03 JUMP JUMPDEST PUSH1 0x0 DUP1 PUSH2 0x26BE PUSH2 0x147 SLOAD PUSH2 0x3B66 JUMP JUMPDEST SWAP2 POP SWAP2 POP PUSH8 0xDE0B6B3A7640000 PUSH2 0x132 SLOAD DUP5 DUP5 DUP14 PUSH2 0x26DC SWAP2 SWAP1 PUSH2 0x51A9 JUMP JUMPDEST PUSH2 0x26E6 SWAP2 SWAP1 PUSH2 0x51A9 JUMP JUMPDEST PUSH2 0x26F0 SWAP2 SWAP1 PUSH2 0x50AF JUMP JUMPDEST PUSH2 0x26FA SWAP2 SWAP1 PUSH2 0x50AF JUMP JUMPDEST SWAP4 POP DUP9 DUP5 GT ISZERO PUSH2 0x2727 JUMPI PUSH1 0x40 MLOAD PUSH4 0x7A031DA3 PUSH1 0xE1 SHL DUP2 MSTORE PUSH1 0x4 DUP2 ADD DUP11 SWAP1 MSTORE PUSH1 0x24 DUP2 ADD DUP6 SWAP1 MSTORE PUSH1 0x44 ADD PUSH2 0x11ED JUMP JUMPDEST PUSH1 0x0 DUP1 PUSH2 0x2740 DUP14 DUP14 DUP9 DUP9 PUSH2 0x273B DUP10 DUP10 PUSH2 0x29D5 JUMP JUMPDEST PUSH2 0x40B8 JUMP JUMPDEST SWAP1 SWAP3 POP SWAP1 POP PUSH2 0x274F DUP2 DUP4 PUSH2 0x5196 JUMP JUMPDEST SWAP7 POP DUP10 DUP8 LT ISZERO PUSH2 0x277C JUMPI PUSH1 0x40 MLOAD PUSH4 0x54CDE313 PUSH1 0xE0 SHL DUP2 MSTORE PUSH1 0x4 DUP2 ADD DUP12 SWAP1 MSTORE PUSH1 0x24 DUP2 ADD DUP9 SWAP1 MSTORE PUSH1 0x44 ADD PUSH2 0x11ED JUMP JUMPDEST PUSH1 0x40 DUP1 MLOAD DUP14 DUP2 MSTORE PUSH1 0x20 DUP2 ADD DUP9 SWAP1 MSTORE SWAP1 DUP2 ADD DUP9 SWAP1 MSTORE PUSH1 0x60 DUP2 ADD DUP3 SWAP1 MSTORE DUP14 SWAP1 DUP14 SWAP1 DUP10 SWAP1 PUSH1 0x1 PUSH1 0x1 PUSH1 0xA0 SHL SUB DUP13 DUP2 AND SWAP2 SWAP1 DUP15 AND SWAP1 DUP6 SWAP1 PUSH32 0x879E4419A6544DE6EA456F6344B2FCF0C3B9FC0E6738C82FA4026A8789747C53 SWAP1 PUSH1 0x80 ADD PUSH1 0x40 MLOAD DUP1 SWAP2 SUB SWAP1 LOG4 POP POP POP PUSH2 0x27EA DUP13 DUP4 DUP12 PUSH2 0x40F8 JUMP JUMPDEST PUSH2 0x27F7 DUP14 DUP8 PUSH1 0x0 DUP13 PUSH2 0x3CB2 JUMP JUMPDEST PUSH2 0x2802 DUP9 DUP9 DUP4 PUSH2 0x3D1F JUMP JUMPDEST POP POP POP POP POP SWAP7 POP SWAP7 SWAP5 POP POP POP POP POP JUMP JUMPDEST PUSH1 0x0 PUSH2 0x281C PUSH2 0x3AD9 JUMP JUMPDEST PUSH2 0x2824 PUSH2 0x2B23 JUMP JUMPDEST PUSH1 0x0 PUSH2 0x282F DUP8 PUSH2 0x1AA4 JUMP JUMPDEST SWAP1 POP PUSH2 0x283B DUP8 DUP3 PUSH2 0x3B03 JUMP JUMPDEST PUSH2 0x2847 PUSH2 0x146 SLOAD PUSH2 0x3B66 JUMP JUMPDEST POP POP PUSH1 0x0 DUP1 PUSH2 0x2857 DUP10 DUP10 DUP6 PUSH2 0x3735 JUMP JUMPDEST SWAP2 POP SWAP2 POP DUP2 PUSH1 0x0 SUB PUSH2 0x287C JUMPI PUSH1 0x40 MLOAD PUSH4 0xF3E39B5D PUSH1 0xE0 SHL DUP2 MSTORE PUSH1 0x4 ADD PUSH1 0x40 MLOAD DUP1 SWAP2 SUB SWAP1 REVERT JUMPDEST PUSH2 0x2886 DUP2 DUP4 PUSH2 0x5196 JUMP JUMPDEST SWAP4 POP DUP7 DUP5 LT ISZERO PUSH2 0x28B3 JUMPI PUSH1 0x40 MLOAD PUSH4 0x54CDE313 PUSH1 0xE0 SHL DUP2 MSTORE PUSH1 0x4 DUP2 ADD DUP9 SWAP1 MSTORE PUSH1 0x24 DUP2 ADD DUP6 SWAP1 MSTORE PUSH1 0x44 ADD PUSH2 0x11ED JUMP JUMPDEST PUSH1 0x40 DUP1 MLOAD DUP10 DUP2 MSTORE PUSH1 0x20 DUP2 ADD DUP7 SWAP1 MSTORE SWAP1 DUP2 ADD DUP3 SWAP1 MSTORE PUSH1 0x1 PUSH1 0x1 PUSH1 0xA0 SHL SUB DUP1 DUP8 AND SWAP2 SWAP1 DUP9 AND SWAP1 DUP12 SWAP1 PUSH32 0x4716C9926CE32100E8A5B6AD71AF5500AC55514D7B0C8F80F209856C9DFAEB92 SWAP1 PUSH1 0x60 ADD PUSH1 0x40 MLOAD DUP1 SWAP2 SUB SWAP1 LOG4 PUSH2 0x2912 DUP10 DUP10 DUP5 DUP10 PUSH2 0x3CB2 JUMP JUMPDEST PUSH2 0x291D DUP6 DUP6 DUP4 PUSH2 0x3D1F JUMP JUMPDEST POP POP POP SWAP6 SWAP5 POP POP POP POP POP JUMP JUMPDEST PUSH2 0x135 SLOAD PUSH1 0x0 SWAP1 DUP2 SWAP1 DUP2 JUMPDEST DUP2 DUP2 LT ISZERO PUSH2 0x29C0 JUMPI PUSH1 0x0 PUSH2 0x2947 DUP3 PUSH2 0x1AA4 JUMP JUMPDEST SWAP1 POP PUSH1 0x0 DUP1 PUSH2 0x2956 DUP5 DUP5 PUSH2 0x416F JUMP JUMPDEST SWAP2 POP SWAP2 POP PUSH2 0x2994 DUP3 PUSH2 0x135 DUP7 DUP2 SLOAD DUP2 LT PUSH2 0x2972 JUMPI PUSH2 0x2972 PUSH2 0x50D1 JUMP JUMPDEST SWAP1 PUSH1 0x0 MSTORE PUSH1 0x20 PUSH1 0x0 KECCAK256 SWAP1 PUSH1 0x2 MUL ADD PUSH1 0x0 ADD SLOAD PUSH2 0x298E SWAP2 SWAP1 PUSH2 0x5004 JUMP JUMPDEST DUP5 PUSH2 0x41D6 JUMP JUMPDEST PUSH2 0x299E SWAP1 DUP9 PUSH2 0x5004 JUMP JUMPDEST SWAP7 POP PUSH2 0x29AA DUP2 DUP8 PUSH2 0x5004 JUMP JUMPDEST SWAP6 POP POP POP POP PUSH2 0x29B9 DUP2 PUSH1 0x1 ADD SWAP1 JUMP JUMPDEST SWAP1 POP PUSH2 0x2934 JUMP JUMPDEST POP PUSH2 0x29CE DUP3 PUSH2 0x137 SLOAD PUSH2 0x3C08 JUMP JUMPDEST SWAP2 POP POP SWAP1 SWAP2 JUMP JUMPDEST PUSH1 0x0 PUSH2 0x132 SLOAD PUSH1 0x0 SUB PUSH2 0x29F1 JUMPI POP PUSH8 0xDE0B6B3A7640000 PUSH2 0x13B9 JUMP JUMPDEST PUSH2 0x12D5 DUP4 PUSH2 0x29FE DUP5 PUSH2 0x39FF JUMP JUMPDEST PUSH2 0x2A08 SWAP2 SWAP1 PUSH2 0x5196 JUMP JUMPDEST PUSH2 0x132 SLOAD PUSH2 0x41D6 JUMP JUMPDEST PUSH1 0x0 PUSH2 0x2A1B PUSH2 0x3AD9 JUMP JUMPDEST PUSH2 0x2A23 PUSH2 0x2B23 JUMP JUMPDEST PUSH1 0x0 DUP1 PUSH2 0x2A32 PUSH2 0x146 SLOAD PUSH2 0x3B66 JUMP JUMPDEST SWAP2 POP SWAP2 POP PUSH1 0x0 DUP1 PUSH2 0x2A44 DUP10 DUP6 DUP6 PUSH2 0x41EB JUMP JUMPDEST SWAP1 SWAP3 POP SWAP1 POP PUSH2 0x2A53 DUP2 DUP4 PUSH2 0x5004 JUMP JUMPDEST SWAP5 POP DUP8 DUP6 GT ISZERO PUSH2 0x2A80 JUMPI PUSH1 0x40 MLOAD PUSH4 0xB63F1A7 PUSH1 0xE0 SHL DUP2 MSTORE PUSH1 0x4 DUP2 ADD DUP10 SWAP1 MSTORE PUSH1 0x24 DUP2 ADD DUP7 SWAP1 MSTORE PUSH1 0x44 ADD PUSH2 0x11ED JUMP JUMPDEST DUP5 PUSH1 0x0 SUB PUSH2 0x2AA1 JUMPI PUSH1 0x40 MLOAD PUSH4 0xF3E39B5D PUSH1 0xE0 SHL DUP2 MSTORE PUSH1 0x4 ADD PUSH1 0x40 MLOAD DUP1 SWAP2 SUB SWAP1 REVERT JUMPDEST PUSH1 0x40 DUP1 MLOAD DUP11 DUP2 MSTORE PUSH1 0x20 DUP2 ADD DUP8 SWAP1 MSTORE SWAP1 DUP2 ADD DUP3 SWAP1 MSTORE PUSH1 0x1 PUSH1 0x1 PUSH1 0xA0 SHL SUB DUP1 DUP9 AND SWAP2 SWAP1 DUP10 AND SWAP1 PUSH32 0x62F0126E99B1936535DB27571CEA2B2D54DB14A471B9203B29B31B89C300E4F6 SWAP1 PUSH1 0x60 ADD PUSH1 0x40 MLOAD DUP1 SWAP2 SUB SWAP1 LOG3 PUSH2 0x2AFD DUP10 DUP4 DUP9 PUSH2 0x4231 JUMP JUMPDEST PUSH1 0x0 PUSH2 0x2B09 DUP10 DUP8 PUSH2 0x3D13 JUMP JUMPDEST SWAP1 POP PUSH2 0x2B16 DUP9 DUP3 DUP5 PUSH2 0x3D1F JUMP JUMPDEST POP POP POP POP POP SWAP5 SWAP4 POP POP POP POP JUMP JUMPDEST PUSH1 0xCA SLOAD PUSH2 0x100 SWAP1 DIV PUSH1 0xFF AND ISZERO PUSH2 0x14A1 JUMPI PUSH1 0x40 MLOAD PUSH4 0x783BB6C9 PUSH1 0xE1 SHL DUP2 MSTORE PUSH1 0x4 ADD PUSH1 0x40 MLOAD DUP1 SWAP2 SUB SWAP1 REVERT JUMPDEST PUSH1 0x0 PUSH2 0x130 SLOAD PUSH2 0x12F SLOAD PUSH2 0x2B60 SWAP2 SWAP1 PUSH2 0x5004 JUMP JUMPDEST SWAP1 POP DUP1 PUSH1 0x0 SUB PUSH2 0x2B6D JUMPI POP JUMP JUMPDEST PUSH2 0x135 SLOAD PUSH1 0x0 DUP1 DUP3 PUSH8 0xFFFFFFFFFFFFFFFF DUP2 GT ISZERO PUSH2 0x2B8D JUMPI PUSH2 0x2B8D PUSH2 0x4D68 JUMP JUMPDEST PUSH1 0x40 MLOAD SWAP1 DUP1 DUP3 MSTORE DUP1 PUSH1 0x20 MUL PUSH1 0x20 ADD DUP3 ADD PUSH1 0x40 MSTORE DUP1 ISZERO PUSH2 0x2BB6 JUMPI DUP2 PUSH1 0x20 ADD PUSH1 0x20 DUP3 MUL DUP1 CALLDATASIZE DUP4 CALLDATACOPY ADD SWAP1 POP JUMPDEST POP SWAP1 POP PUSH1 0x0 JUMPDEST DUP4 DUP2 LT ISZERO PUSH2 0x2C47 JUMPI PUSH2 0x2BCD DUP2 PUSH2 0x1AA4 JUMP JUMPDEST DUP3 DUP3 DUP2 MLOAD DUP2 LT PUSH2 0x2BDF JUMPI PUSH2 0x2BDF PUSH2 0x50D1 JUMP JUMPDEST PUSH1 0x20 MUL PUSH1 0x20 ADD ADD DUP2 DUP2 MSTORE POP POP PUSH2 0x2C33 PUSH2 0x135 DUP3 DUP2 SLOAD DUP2 LT PUSH2 0x2C02 JUMPI PUSH2 0x2C02 PUSH2 0x50D1 JUMP JUMPDEST SWAP1 PUSH1 0x0 MSTORE PUSH1 0x20 PUSH1 0x0 KECCAK256 SWAP1 PUSH1 0x2 MUL ADD PUSH1 0x0 ADD SLOAD DUP4 DUP4 DUP2 MLOAD DUP2 LT PUSH2 0x2C26 JUMPI PUSH2 0x2C26 PUSH2 0x50D1 JUMP JUMPDEST PUSH1 0x20 MUL PUSH1 0x20 ADD ADD MLOAD PUSH2 0x41D6 JUMP JUMPDEST PUSH2 0x2C3D SWAP1 DUP5 PUSH2 0x5004 JUMP JUMPDEST SWAP3 POP PUSH1 0x1 ADD PUSH2 0x2BBC JUMP JUMPDEST POP PUSH1 0x0 JUMPDEST DUP4 DUP2 LT ISZERO PUSH2 0x2CA1 JUMPI PUSH2 0x136 DUP6 DUP5 DUP5 DUP5 DUP2 MLOAD DUP2 LT PUSH2 0x2C6A JUMPI PUSH2 0x2C6A PUSH2 0x50D1 JUMP JUMPDEST PUSH1 0x20 MUL PUSH1 0x20 ADD ADD MLOAD PUSH2 0x2C7C SWAP2 SWAP1 PUSH2 0x51A9 JUMP JUMPDEST PUSH2 0x2C86 SWAP2 SWAP1 PUSH2 0x50AF JUMP JUMPDEST DUP2 SLOAD PUSH1 0x1 DUP1 DUP3 ADD DUP5 SSTORE PUSH1 0x0 SWAP4 DUP5 MSTORE PUSH1 0x20 SWAP1 SWAP4 KECCAK256 ADD SSTORE ADD PUSH2 0x2C4B JUMP JUMPDEST POP POP POP POP POP JUMP JUMPDEST PUSH2 0x157F PUSH2 0x23A0 JUMP JUMPDEST PUSH32 0x4910FDFA16FED3260ED0E7147F7CC6DA11A60208B5B9406D12A635614FFD9143 SLOAD PUSH1 0xFF AND ISZERO PUSH2 0x2CE8 JUMPI PUSH2 0x2CE3 DUP4 PUSH2 0x4275 JUMP JUMPDEST POP POP POP JUMP JUMPDEST DUP3 PUSH1 0x1 PUSH1 0x1 PUSH1 0xA0 SHL SUB AND PUSH4 0x52D1902D PUSH1 0x40 MLOAD DUP2 PUSH4 0xFFFFFFFF AND PUSH1 0xE0 SHL DUP2 MSTORE PUSH1 0x4 ADD PUSH1 0x20 PUSH1 0x40 MLOAD DUP1 DUP4 SUB DUP2 DUP7 GAS STATICCALL SWAP3 POP POP POP DUP1 ISZERO PUSH2 0x2D42 JUMPI POP PUSH1 0x40 DUP1 MLOAD PUSH1 0x1F RETURNDATASIZE SWAP1 DUP2 ADD PUSH1 0x1F NOT AND DUP3 ADD SWAP1 SWAP3 MSTORE PUSH2 0x2D3F SWAP2 DUP2 ADD SWAP1 PUSH2 0x520B JUMP JUMPDEST PUSH1 0x1 JUMPDEST PUSH2 0x2DA5 JUMPI PUSH1 0x40 MLOAD PUSH3 0x461BCD PUSH1 0xE5 SHL DUP2 MSTORE PUSH1 0x20 PUSH1 0x4 DUP3 ADD MSTORE PUSH1 0x2E PUSH1 0x24 DUP3 ADD MSTORE PUSH32 0x45524331393637557067726164653A206E657720696D706C656D656E74617469 PUSH1 0x44 DUP3 ADD MSTORE PUSH14 0x6F6E206973206E6F742055555053 PUSH1 0x90 SHL PUSH1 0x64 DUP3 ADD MSTORE PUSH1 0x84 ADD PUSH2 0x11ED JUMP JUMPDEST PUSH1 0x0 DUP1 MLOAD PUSH1 0x20 PUSH2 0x5335 DUP4 CODECOPY DUP2 MLOAD SWAP2 MSTORE DUP2 EQ PUSH2 0x2E14 JUMPI PUSH1 0x40 MLOAD PUSH3 0x461BCD PUSH1 0xE5 SHL DUP2 MSTORE PUSH1 0x20 PUSH1 0x4 DUP3 ADD MSTORE PUSH1 0x29 PUSH1 0x24 DUP3 ADD MSTORE PUSH32 0x45524331393637557067726164653A20756E737570706F727465642070726F78 PUSH1 0x44 DUP3 ADD MSTORE PUSH9 0x1A58589B1955555251 PUSH1 0xBA SHL PUSH1 0x64 DUP3 ADD MSTORE PUSH1 0x84 ADD PUSH2 0x11ED JUMP JUMPDEST POP PUSH2 0x2CE3 DUP4 DUP4 DUP4 PUSH2 0x4311 JUMP JUMPDEST PUSH1 0x0 PUSH2 0x2E2A PUSH2 0x3AD9 JUMP JUMPDEST PUSH2 0x2E32 PUSH2 0x2B23 JUMP JUMPDEST PUSH1 0x0 PUSH2 0x2E3D DUP8 PUSH2 0x1AA4 JUMP JUMPDEST SWAP1 POP PUSH2 0x2E49 DUP8 DUP3 PUSH2 0x3B03 JUMP JUMPDEST PUSH1 0x0 PUSH2 0x2E53 PUSH2 0x1912 JUMP JUMPDEST SWAP1 POP PUSH1 0x0 DUP1 PUSH2 0x2E61 DUP4 PUSH2 0x3B66 JUMP JUMPDEST SWAP2 POP SWAP2 POP PUSH2 0x2E73 DUP11 DUP11 DUP7 DUP7 DUP7 DUP7 PUSH2 0x3BB4 JUMP JUMPDEST PUSH1 0x0 DUP1 PUSH2 0x2E81 DUP13 DUP13 DUP9 PUSH2 0x4336 JUMP JUMPDEST SWAP1 SWAP3 POP SWAP1 POP PUSH2 0x2E90 DUP2 DUP4 PUSH2 0x5004 JUMP JUMPDEST SWAP7 POP DUP10 DUP8 GT ISZERO PUSH2 0x2EBD JUMPI PUSH1 0x40 MLOAD PUSH4 0xB63F1A7 PUSH1 0xE0 SHL DUP2 MSTORE PUSH1 0x4 DUP2 ADD DUP12 SWAP1 MSTORE PUSH1 0x24 DUP2 ADD DUP9 SWAP1 MSTORE PUSH1 0x44 ADD PUSH2 0x11ED JUMP JUMPDEST DUP7 PUSH1 0x0 SUB PUSH2 0x2EDE JUMPI PUSH1 0x40 MLOAD PUSH4 0xF3E39B5D PUSH1 0xE0 SHL DUP2 MSTORE PUSH1 0x4 ADD PUSH1 0x40 MLOAD DUP1 SWAP2 SUB SWAP1 REVERT JUMPDEST PUSH1 0x40 DUP1 MLOAD DUP13 DUP2 MSTORE PUSH1 0x20 DUP2 ADD DUP10 SWAP1 MSTORE SWAP1 DUP2 ADD DUP3 SWAP1 MSTORE PUSH1 0x1 PUSH1 0x1 PUSH1 0xA0 SHL SUB DUP1 DUP11 AND SWAP2 SWAP1 DUP12 AND SWAP1 DUP15 SWAP1 PUSH32 0x5F8DFB23A03C1F9D37A1860FC8038FFDC6DEC3E24DB38CDB09CC0176B35453F SWAP1 PUSH1 0x60 ADD PUSH1 0x40 MLOAD DUP1 SWAP2 SUB SWAP1 LOG4 PUSH2 0x2F3D DUP13 DUP13 DUP5 DUP12 PUSH2 0x3C27 JUMP JUMPDEST PUSH1 0x0 PUSH2 0x2F49 DUP12 DUP10 PUSH2 0x3D13 JUMP JUMPDEST SWAP1 POP PUSH2 0x2F56 DUP11 DUP3 DUP5 PUSH2 0x3D1F JUMP JUMPDEST POP POP POP POP POP POP POP SWAP6 SWAP5 POP POP POP POP POP JUMP JUMPDEST PUSH2 0x135 SLOAD PUSH1 0x0 SWAP1 DUP2 SWAP1 DUP2 SWAP1 DUP2 JUMPDEST DUP2 DUP2 LT ISZERO PUSH2 0x3023 JUMPI PUSH1 0x0 PUSH2 0x2F86 DUP3 PUSH2 0x1AA4 JUMP JUMPDEST SWAP1 POP PUSH1 0x0 PUSH2 0x2F94 DUP4 DUP4 PUSH2 0x416F JUMP JUMPDEST POP SWAP1 POP PUSH1 0x0 PUSH2 0x2FE0 PUSH8 0xDE0B6B3A7640000 DUP4 PUSH2 0x135 DUP8 DUP2 SLOAD DUP2 LT PUSH2 0x2FBA JUMPI PUSH2 0x2FBA PUSH2 0x50D1 JUMP JUMPDEST SWAP1 PUSH1 0x0 MSTORE PUSH1 0x20 PUSH1 0x0 KECCAK256 SWAP1 PUSH1 0x2 MUL ADD PUSH1 0x0 ADD SLOAD PUSH2 0x2FD6 SWAP2 SWAP1 PUSH2 0x5004 JUMP JUMPDEST PUSH2 0x298E SWAP2 SWAP1 PUSH2 0x51A9 JUMP JUMPDEST SWAP1 POP DUP1 PUSH2 0x2FED DUP6 DUP6 PUSH2 0x3A1E JUMP JUMPDEST PUSH2 0x2FF7 SWAP2 SWAP1 PUSH2 0x51A9 JUMP JUMPDEST PUSH2 0x3001 SWAP1 DUP9 PUSH2 0x5004 JUMP JUMPDEST SWAP7 POP PUSH2 0x300D DUP2 DUP8 PUSH2 0x5004 JUMP JUMPDEST SWAP6 POP POP POP POP PUSH2 0x301C DUP2 PUSH1 0x1 ADD SWAP1 JUMP JUMPDEST SWAP1 POP PUSH2 0x2F73 JUMP JUMPDEST POP DUP2 PUSH1 0x0 SUB PUSH2 0x303B JUMPI PUSH2 0x146 SLOAD PUSH1 0x2 MUL SWAP4 POP POP POP POP SWAP1 JUMP JUMPDEST PUSH2 0x3045 DUP3 DUP5 PUSH2 0x50AF JUMP JUMPDEST SWAP4 POP POP POP POP SWAP1 JUMP JUMPDEST PUSH1 0x0 DUP1 PUSH2 0x305B DUP6 DUP6 DUP6 PUSH2 0x437E JUMP JUMPDEST SWAP1 POP PUSH2 0x3067 DUP5 DUP5 PUSH2 0x29D5 JUMP JUMPDEST PUSH2 0x185B SWAP1 DUP3 PUSH2 0x50AF JUMP JUMPDEST PUSH1 0x0 DUP1 PUSH2 0x307C PUSH2 0x3AD9 JUMP JUMPDEST PUSH2 0x3084 PUSH2 0x2B23 JUMP JUMPDEST PUSH1 0x0 PUSH2 0x308F DUP10 PUSH2 0x1AA4 JUMP JUMPDEST SWAP1 POP PUSH2 0x309B DUP10 DUP3 PUSH2 0x3B03 JUMP JUMPDEST PUSH1 0x0 DUP1 PUSH2 0x30AA PUSH2 0x146 SLOAD PUSH2 0x3B66 JUMP JUMPDEST SWAP2 POP SWAP2 POP PUSH1 0x0 PUSH2 0x30BB DUP13 DUP13 DUP7 PUSH2 0x3735 JUMP JUMPDEST POP SWAP1 POP PUSH2 0x30F4 PUSH2 0x132 SLOAD DUP13 PUSH2 0x30D0 SWAP2 SWAP1 PUSH2 0x51A9 JUMP JUMPDEST DUP6 DUP6 PUSH2 0x30DB DUP7 PUSH2 0x39FF JUMP JUMPDEST PUSH2 0x30E5 SWAP2 SWAP1 PUSH2 0x5196 JUMP JUMPDEST PUSH2 0x30EF SWAP2 SWAP1 PUSH2 0x51A9 JUMP JUMPDEST PUSH2 0x41D6 JUMP JUMPDEST SWAP5 POP DUP10 DUP6 LT DUP1 PUSH2 0x3102 JUMPI POP DUP5 ISZERO JUMPDEST ISZERO PUSH2 0x312A JUMPI PUSH1 0x40 MLOAD PUSH4 0xF577BEF5 PUSH1 0xE0 SHL DUP2 MSTORE PUSH1 0x4 DUP2 ADD DUP12 SWAP1 MSTORE PUSH1 0x24 DUP2 ADD DUP7 SWAP1 MSTORE PUSH1 0x44 ADD PUSH2 0x11ED JUMP JUMPDEST PUSH2 0x3137 DUP2 PUSH2 0x13D SLOAD PUSH2 0x3C08 JUMP JUMPDEST SWAP6 POP DUP9 DUP7 GT ISZERO PUSH2 0x3164 JUMPI PUSH1 0x40 MLOAD PUSH4 0xB63F1A7 PUSH1 0xE0 SHL DUP2 MSTORE PUSH1 0x4 DUP2 ADD DUP11 SWAP1 MSTORE PUSH1 0x24 DUP2 ADD DUP8 SWAP1 MSTORE PUSH1 0x44 ADD PUSH2 0x11ED JUMP JUMPDEST PUSH1 0x40 DUP1 MLOAD DUP13 DUP2 MSTORE PUSH1 0x20 DUP2 ADD DUP8 SWAP1 MSTORE SWAP1 DUP2 ADD DUP8 SWAP1 MSTORE DUP13 SWAP1 DUP13 SWAP1 PUSH1 0x1 PUSH1 0x1 PUSH1 0xA0 SHL SUB DUP1 DUP12 AND SWAP2 SWAP1 DUP13 AND SWAP1 DUP5 SWAP1 PUSH32 0xF77B7563E0C6C33E0B804A715D94C82BAEA057D2E6F8BFDC211FE04D3C03BAD9 SWAP1 PUSH1 0x60 ADD PUSH1 0x40 MLOAD DUP1 SWAP2 SUB SWAP1 LOG4 POP POP PUSH2 0x31CA DUP13 DUP13 PUSH1 0x0 DUP12 PUSH2 0x3CB2 JUMP JUMPDEST PUSH2 0x31D6 DUP6 PUSH1 0x0 DUP10 PUSH2 0x4231 JUMP JUMPDEST PUSH1 0x0 PUSH2 0x31E2 DUP11 DUP9 PUSH2 0x3D13 JUMP JUMPDEST SWAP1 POP PUSH2 0x2802 DUP10 DUP3 DUP10 PUSH2 0x3D1F JUMP JUMPDEST PUSH2 0x14A1 PUSH2 0x43C8 JUMP JUMPDEST PUSH1 0x0 PUSH2 0x3201 PUSH2 0x2B23 JUMP JUMPDEST PUSH2 0x148 SLOAD PUSH2 0x100 SWAP1 DIV PUSH1 0xFF AND PUSH2 0x322A JUMPI PUSH1 0x40 MLOAD PUSH4 0x31B0D35 PUSH1 0xE1 SHL DUP2 MSTORE PUSH1 0x4 ADD PUSH1 0x40 MLOAD DUP1 SWAP2 SUB SWAP1 REVERT JUMPDEST PUSH1 0x0 PUSH2 0x133 DUP6 DUP2 SLOAD DUP2 LT PUSH2 0x3240 JUMPI PUSH2 0x3240 PUSH2 0x50D1 JUMP JUMPDEST PUSH1 0x0 SWAP2 DUP3 MSTORE PUSH1 0x20 SWAP1 SWAP2 KECCAK256 ADD SLOAD PUSH1 0x40 MLOAD PUSH4 0x70A08231 PUSH1 0xE0 SHL DUP2 MSTORE PUSH1 0x1 PUSH1 0x1 PUSH1 0xA0 SHL SUB DUP7 DUP2 AND PUSH1 0x4 DUP4 ADD MSTORE SWAP1 SWAP2 AND SWAP1 PUSH4 0x70A08231 SWAP1 PUSH1 0x24 ADD PUSH1 0x20 PUSH1 0x40 MLOAD DUP1 DUP4 SUB DUP2 DUP7 GAS STATICCALL ISZERO DUP1 ISZERO PUSH2 0x3293 JUMPI RETURNDATASIZE PUSH1 0x0 DUP1 RETURNDATACOPY RETURNDATASIZE PUSH1 0x0 REVERT JUMPDEST POP POP POP POP PUSH1 0x40 MLOAD RETURNDATASIZE PUSH1 0x1F NOT PUSH1 0x1F DUP3 ADD AND DUP3 ADD DUP1 PUSH1 0x40 MSTORE POP DUP2 ADD SWAP1 PUSH2 0x32B7 SWAP2 SWAP1 PUSH2 0x520B JUMP JUMPDEST SWAP1 POP DUP1 PUSH1 0x0 SUB PUSH2 0x32E4 JUMPI PUSH1 0x40 MLOAD PUSH4 0x3FE8C5EB PUSH1 0xE0 SHL DUP2 MSTORE PUSH1 0x4 DUP2 ADD DUP3 SWAP1 MSTORE PUSH1 0x24 DUP2 ADD DUP3 SWAP1 MSTORE PUSH1 0x44 ADD PUSH2 0x11ED JUMP JUMPDEST PUSH1 0x0 PUSH2 0x136 DUP7 DUP2 SLOAD DUP2 LT PUSH2 0x32FA JUMPI PUSH2 0x32FA PUSH2 0x50D1 JUMP JUMPDEST SWAP1 PUSH1 0x0 MSTORE PUSH1 0x20 PUSH1 0x0 KECCAK256 ADD SLOAD SWAP1 POP PUSH2 0x3311 DUP3 DUP3 PUSH2 0x41D6 JUMP JUMPDEST SWAP3 POP PUSH2 0x133 DUP7 DUP2 SLOAD DUP2 LT PUSH2 0x3327 JUMPI PUSH2 0x3327 PUSH2 0x50D1 JUMP JUMPDEST PUSH1 0x0 SWAP2 DUP3 MSTORE PUSH1 0x20 SWAP1 SWAP2 KECCAK256 ADD SLOAD PUSH1 0x40 MLOAD PUSH4 0x2770A7EB PUSH1 0xE2 SHL DUP2 MSTORE PUSH1 0x1 PUSH1 0x1 PUSH1 0xA0 SHL SUB DUP8 DUP2 AND PUSH1 0x4 DUP4 ADD MSTORE PUSH1 0x24 DUP3 ADD DUP6 SWAP1 MSTORE SWAP1 SWAP2 AND SWAP1 PUSH4 0x9DC29FAC SWAP1 PUSH1 0x44 ADD PUSH1 0x0 PUSH1 0x40 MLOAD DUP1 DUP4 SUB DUP2 PUSH1 0x0 DUP8 DUP1 EXTCODESIZE ISZERO DUP1 ISZERO PUSH2 0x337E JUMPI PUSH1 0x0 DUP1 REVERT JUMPDEST POP GAS CALL ISZERO DUP1 ISZERO PUSH2 0x3392 JUMPI RETURNDATASIZE PUSH1 0x0 DUP1 RETURNDATACOPY RETURNDATASIZE PUSH1 0x0 REVERT JUMPDEST POP POP POP POP ADDRESS BALANCE DUP4 GT ISZERO PUSH2 0x33A4 JUMPI ADDRESS BALANCE SWAP3 POP JUMPDEST DUP4 PUSH1 0x1 PUSH1 0x1 PUSH1 0xA0 SHL SUB AND DUP6 PUSH1 0x1 PUSH1 0x1 PUSH1 0xA0 SHL SUB AND DUP8 PUSH32 0x4716C9926CE32100E8A5B6AD71AF5500AC55514D7B0C8F80F209856C9DFAEB92 DUP6 DUP8 PUSH1 0x0 PUSH1 0x40 MLOAD PUSH2 0x33FE SWAP4 SWAP3 SWAP2 SWAP1 SWAP3 DUP4 MSTORE PUSH1 0x20 DUP4 ADD SWAP2 SWAP1 SWAP2 MSTORE PUSH1 0x40 DUP3 ADD MSTORE PUSH1 0x60 ADD SWAP1 JUMP JUMPDEST PUSH1 0x40 MLOAD DUP1 SWAP2 SUB SWAP1 LOG4 PUSH2 0x3410 DUP5 DUP5 PUSH2 0x4589 JUMP JUMPDEST POP POP SWAP4 SWAP3 POP POP POP JUMP JUMPDEST PUSH1 0x0 DUP1 PUSH2 0x3424 PUSH2 0x3AD9 JUMP JUMPDEST PUSH2 0x342C PUSH2 0x2B23 JUMP JUMPDEST PUSH1 0x0 DUP1 PUSH1 0x0 PUSH2 0x343A DUP11 PUSH2 0x1AA4 JUMP JUMPDEST SWAP1 POP PUSH2 0x3446 DUP11 DUP3 PUSH2 0x3B03 JUMP JUMPDEST PUSH2 0x3452 PUSH2 0x147 SLOAD PUSH2 0x3B66 JUMP JUMPDEST POP POP PUSH2 0x345E DUP10 DUP3 PUSH2 0x463F JUMP JUMPDEST SWAP2 SWAP6 POP SWAP4 POP SWAP2 POP PUSH2 0x346F DUP3 DUP5 PUSH2 0x5004 JUMP JUMPDEST SWAP5 POP DUP8 DUP6 GT ISZERO PUSH2 0x349C JUMPI PUSH1 0x40 MLOAD PUSH4 0xB63F1A7 PUSH1 0xE0 SHL DUP2 MSTORE PUSH1 0x4 DUP2 ADD DUP10 SWAP1 MSTORE PUSH1 0x24 DUP2 ADD DUP7 SWAP1 MSTORE PUSH1 0x44 ADD PUSH2 0x11ED JUMP JUMPDEST DUP5 PUSH1 0x0 SUB PUSH2 0x34BD JUMPI PUSH1 0x40 MLOAD PUSH4 0xF3E39B5D PUSH1 0xE0 SHL DUP2 MSTORE PUSH1 0x4 ADD PUSH1 0x40 MLOAD DUP1 SWAP2 SUB SWAP1 REVERT JUMPDEST PUSH1 0x40 DUP1 MLOAD DUP6 DUP2 MSTORE PUSH1 0x20 DUP2 ADD DUP12 SWAP1 MSTORE SWAP1 DUP2 ADD DUP7 SWAP1 MSTORE PUSH1 0x60 DUP2 ADD DUP4 SWAP1 MSTORE PUSH1 0x1 PUSH1 0x1 PUSH1 0xA0 SHL SUB DUP1 DUP9 AND SWAP2 SWAP1 DUP10 AND SWAP1 DUP13 SWAP1 PUSH32 0xCD3821E3A6AFEC66FDFA7A942B879811BB9919B2F270DE090B6E00178CD7EAEE SWAP1 PUSH1 0x80 ADD PUSH1 0x40 MLOAD DUP1 SWAP2 SUB SWAP1 LOG4 PUSH2 0x3522 DUP5 DUP5 DUP9 PUSH2 0x4231 JUMP JUMPDEST PUSH2 0x352F DUP11 DUP11 PUSH1 0x0 DUP10 PUSH2 0x3C27 JUMP JUMPDEST PUSH1 0x0 PUSH2 0x353B DUP10 DUP8 PUSH2 0x3D13 JUMP JUMPDEST SWAP1 POP PUSH2 0x3548 DUP9 DUP3 DUP6 PUSH2 0x3D1F JUMP JUMPDEST POP POP POP POP SWAP6 POP SWAP6 SWAP4 POP POP POP POP JUMP JUMPDEST PUSH1 0x0 DUP1 PUSH2 0x3561 PUSH2 0x3AD9 JUMP JUMPDEST PUSH2 0x3569 PUSH2 0x2B23 JUMP JUMPDEST PUSH1 0x0 PUSH2 0x3574 DUP10 PUSH2 0x1AA4 JUMP JUMPDEST SWAP1 POP PUSH2 0x3580 DUP10 DUP3 PUSH2 0x3B03 JUMP JUMPDEST PUSH1 0x0 PUSH2 0x358A PUSH2 0x1912 JUMP JUMPDEST SWAP1 POP PUSH1 0x0 DUP1 PUSH2 0x3598 DUP4 PUSH2 0x3B66 JUMP JUMPDEST SWAP2 POP SWAP2 POP PUSH2 0x35A8 DUP12 DUP5 DUP5 DUP5 PUSH2 0x46CE JUMP JUMPDEST PUSH1 0x0 PUSH2 0x35B5 DUP13 DUP5 DUP5 PUSH2 0x4708 JUMP JUMPDEST POP SWAP1 POP DUP1 PUSH1 0x0 SUB PUSH2 0x35D9 JUMPI PUSH1 0x40 MLOAD PUSH4 0xF3E39B5D PUSH1 0xE0 SHL DUP2 MSTORE PUSH1 0x4 ADD PUSH1 0x40 MLOAD DUP1 SWAP2 SUB SWAP1 REVERT JUMPDEST PUSH8 0xDE0B6B3A7640000 PUSH2 0x132 SLOAD DUP7 DUP6 PUSH2 0x35F1 DUP7 PUSH2 0x39FF JUMP JUMPDEST PUSH2 0x35FB SWAP2 SWAP1 PUSH2 0x5196 JUMP JUMPDEST DUP16 PUSH2 0x3606 SWAP2 SWAP1 PUSH2 0x51A9 JUMP JUMPDEST PUSH2 0x3610 SWAP2 SWAP1 PUSH2 0x51A9 JUMP JUMPDEST PUSH2 0x361A SWAP2 SWAP1 PUSH2 0x50AF JUMP JUMPDEST PUSH2 0x3624 SWAP2 SWAP1 PUSH2 0x50AF JUMP JUMPDEST SWAP6 POP PUSH2 0x3634 DUP14 DUP8 DUP8 DUP8 DUP8 DUP8 PUSH2 0x3BB4 JUMP JUMPDEST DUP11 DUP7 LT ISZERO PUSH2 0x365F JUMPI PUSH1 0x40 MLOAD PUSH4 0x272E3F59 PUSH1 0xE2 SHL DUP2 MSTORE PUSH1 0x4 DUP2 ADD DUP13 SWAP1 MSTORE PUSH1 0x24 DUP2 ADD DUP8 SWAP1 MSTORE PUSH1 0x44 ADD PUSH2 0x11ED JUMP JUMPDEST PUSH2 0x366C DUP2 PUSH2 0x13E SLOAD PUSH2 0x3C08 JUMP JUMPDEST SWAP7 POP DUP10 DUP8 GT ISZERO PUSH2 0x3699 JUMPI PUSH1 0x40 MLOAD PUSH4 0xB63F1A7 PUSH1 0xE0 SHL DUP2 MSTORE PUSH1 0x4 DUP2 ADD DUP12 SWAP1 MSTORE PUSH1 0x24 DUP2 ADD DUP9 SWAP1 MSTORE PUSH1 0x44 ADD PUSH2 0x11ED JUMP JUMPDEST PUSH1 0x40 DUP1 MLOAD DUP14 DUP2 MSTORE PUSH1 0x20 DUP2 ADD DUP9 SWAP1 MSTORE SWAP1 DUP2 ADD DUP9 SWAP1 MSTORE DUP14 SWAP1 DUP14 SWAP1 PUSH1 0x1 PUSH1 0x1 PUSH1 0xA0 SHL SUB DUP1 DUP13 AND SWAP2 SWAP1 DUP14 AND SWAP1 DUP5 SWAP1 PUSH32 0xB0EE95633545EDABB63AFD3C3962A133536B36E2372F68C3C2722710EE0CD89 SWAP1 PUSH1 0x60 ADD PUSH1 0x40 MLOAD DUP1 SWAP2 SUB SWAP1 LOG4 POP POP PUSH2 0x36FE DUP13 PUSH1 0x0 DUP12 PUSH2 0x40F8 JUMP JUMPDEST PUSH2 0x370B DUP14 DUP8 PUSH1 0x0 DUP12 PUSH2 0x3C27 JUMP JUMPDEST PUSH1 0x0 PUSH2 0x3717 DUP12 DUP10 PUSH2 0x3D13 JUMP JUMPDEST SWAP1 POP PUSH2 0x3724 DUP11 DUP3 DUP11 PUSH2 0x3D1F JUMP JUMPDEST POP POP POP POP POP POP SWAP7 POP SWAP7 SWAP5 POP POP POP POP POP JUMP JUMPDEST PUSH1 0x0 DUP1 DUP4 PUSH1 0x0 SUB PUSH2 0x3759 JUMPI PUSH1 0x40 MLOAD PUSH4 0x2A9FFAB7 PUSH1 0xE2 SHL DUP2 MSTORE PUSH1 0x4 ADD PUSH1 0x40 MLOAD DUP1 SWAP2 SUB SWAP1 REVERT JUMPDEST PUSH2 0x3763 DUP5 DUP5 PUSH2 0x41D6 JUMP JUMPDEST SWAP2 POP PUSH2 0x378D DUP3 PUSH2 0x142 DUP8 DUP2 SLOAD DUP2 LT PUSH2 0x377D JUMPI PUSH2 0x377D PUSH2 0x50D1 JUMP JUMPDEST SWAP1 PUSH1 0x0 MSTORE PUSH1 0x20 PUSH1 0x0 KECCAK256 ADD SLOAD PUSH2 0x3C08 JUMP JUMPDEST SWAP1 POP SWAP4 POP SWAP4 SWAP2 POP POP JUMP JUMPDEST PUSH1 0x0 DUP3 PUSH1 0x0 SUB PUSH2 0x37AA JUMPI POP PUSH1 0x0 NOT PUSH2 0x13B9 JUMP JUMPDEST PUSH2 0x12D5 PUSH2 0x298E DUP4 PUSH2 0x39FF JUMP JUMPDEST PUSH1 0x0 PUSH2 0x37C0 PUSH2 0x3AD9 JUMP JUMPDEST PUSH2 0x37C8 PUSH2 0x2B23 JUMP JUMPDEST PUSH1 0x0 PUSH2 0x37D2 PUSH2 0x1912 JUMP JUMPDEST SWAP1 POP PUSH1 0x0 DUP1 PUSH2 0x37E0 DUP4 PUSH2 0x3B66 JUMP JUMPDEST SWAP2 POP SWAP2 POP PUSH2 0x37F0 DUP9 DUP5 DUP5 DUP5 PUSH2 0x46CE JUMP JUMPDEST PUSH1 0x0 DUP1 PUSH2 0x37FE DUP11 DUP6 DUP6 PUSH2 0x4708 JUMP JUMPDEST SWAP2 POP SWAP2 POP DUP2 PUSH1 0x0 SUB PUSH2 0x3823 JUMPI PUSH1 0x40 MLOAD PUSH4 0xF3E39B5D PUSH1 0xE0 SHL DUP2 MSTORE PUSH1 0x4 ADD PUSH1 0x40 MLOAD DUP1 SWAP2 SUB SWAP1 REVERT JUMPDEST PUSH2 0x382D DUP2 DUP4 PUSH2 0x5196 JUMP JUMPDEST SWAP6 POP DUP9 DUP7 LT ISZERO PUSH2 0x385A JUMPI PUSH1 0x40 MLOAD PUSH4 0x54CDE313 PUSH1 0xE0 SHL DUP2 MSTORE PUSH1 0x4 DUP2 ADD DUP11 SWAP1 MSTORE PUSH1 0x24 DUP2 ADD DUP8 SWAP1 MSTORE PUSH1 0x44 ADD PUSH2 0x11ED JUMP JUMPDEST PUSH1 0x40 DUP1 MLOAD DUP12 DUP2 MSTORE PUSH1 0x20 DUP2 ADD DUP9 SWAP1 MSTORE SWAP1 DUP2 ADD DUP3 SWAP1 MSTORE PUSH1 0x1 PUSH1 0x1 PUSH1 0xA0 SHL SUB DUP1 DUP10 AND SWAP2 SWAP1 DUP11 AND SWAP1 PUSH32 0x2D184907C04672620E3C88A12A39D6A603DD26373427842AA172EB3E5BFCFF07 SWAP1 PUSH1 0x60 ADD PUSH1 0x40 MLOAD DUP1 SWAP2 SUB SWAP1 LOG3 PUSH2 0x38B6 DUP11 DUP4 DUP11 PUSH2 0x40F8 JUMP JUMPDEST PUSH2 0x2B16 DUP8 DUP8 DUP4 PUSH2 0x3D1F JUMP JUMPDEST PUSH1 0x0 DUP1 PUSH2 0x38CD DUP4 PUSH2 0x39FF JUMP JUMPDEST SWAP1 POP PUSH2 0x38DD DUP2 PUSH2 0x30EF DUP7 DUP3 PUSH2 0x5196 JUMP JUMPDEST SWAP5 SWAP4 POP POP POP POP JUMP JUMPDEST PUSH1 0x0 PUSH2 0x17D DUP3 DUP2 SLOAD DUP2 LT PUSH2 0x38FB JUMPI PUSH2 0x38FB PUSH2 0x50D1 JUMP JUMPDEST PUSH1 0x0 SWAP2 DUP3 MSTORE PUSH1 0x20 DUP1 DUP4 KECCAK256 PUSH1 0x40 DUP1 MLOAD DUP1 DUP3 ADD SWAP1 SWAP2 MSTORE PUSH1 0x2 SWAP1 SWAP4 MUL ADD DUP1 SLOAD DUP4 MSTORE PUSH1 0x1 ADD SLOAD SWAP1 DUP3 ADD MSTORE SWAP2 POP PUSH2 0x392C DUP4 PUSH2 0x1AA4 JUMP JUMPDEST SWAP1 POP PUSH1 0x0 DUP3 PUSH1 0x20 ADD MLOAD PUSH8 0xDE0B6B3A7640000 PUSH2 0x3948 SWAP2 SWAP1 PUSH2 0x5196 JUMP JUMPDEST DUP4 MLOAD PUSH2 0x3954 SWAP2 SWAP1 PUSH2 0x51A9 JUMP JUMPDEST SWAP1 POP PUSH1 0x0 DUP3 DUP5 PUSH1 0x20 ADD MLOAD PUSH2 0x3968 SWAP2 SWAP1 PUSH2 0x51A9 JUMP JUMPDEST SWAP1 POP PUSH1 0x0 PUSH8 0xDE0B6B3A7640000 PUSH2 0x397F DUP4 DUP6 PUSH2 0x5004 JUMP JUMPDEST PUSH2 0x3989 SWAP2 SWAP1 PUSH2 0x50AF JUMP JUMPDEST SWAP1 POP DUP1 PUSH2 0x17D DUP8 DUP2 SLOAD DUP2 LT PUSH2 0x39A0 JUMPI PUSH2 0x39A0 PUSH2 0x50D1 JUMP JUMPDEST PUSH1 0x0 SWAP2 DUP3 MSTORE PUSH1 0x20 SWAP1 SWAP2 KECCAK256 PUSH1 0x2 SWAP1 SWAP2 MUL ADD SSTORE DUP5 MLOAD PUSH1 0x40 MLOAD DUP8 SWAP2 PUSH32 0x19156E9379C7BBBCE8F646CE5EE30BA860B8F954717405F3D5859A6C1A21AE60 SWAP2 PUSH2 0x39EF SWAP2 SWAP1 DUP6 SWAP1 SWAP2 DUP3 MSTORE PUSH1 0x20 DUP3 ADD MSTORE PUSH1 0x40 ADD SWAP1 JUMP JUMPDEST PUSH1 0x40 MLOAD DUP1 SWAP2 SUB SWAP1 LOG2 POP POP POP POP POP POP JUMP JUMPDEST PUSH1 0x0 DUP2 PUSH2 0x130 SLOAD PUSH2 0x12F SLOAD PUSH2 0x3A14 SWAP2 SWAP1 PUSH2 0x5004 JUMP JUMPDEST PUSH2 0x13B9 SWAP2 SWAP1 PUSH2 0x5196 JUMP JUMPDEST PUSH1 0x0 DUP1 PUSH2 0x145 DUP5 DUP2 SLOAD DUP2 LT PUSH2 0x3A35 JUMPI PUSH2 0x3A35 PUSH2 0x50D1 JUMP JUMPDEST SWAP1 PUSH1 0x0 MSTORE PUSH1 0x20 PUSH1 0x0 KECCAK256 ADD SLOAD SWAP1 POP PUSH1 0x0 PUSH2 0x17D DUP6 DUP2 SLOAD DUP2 LT PUSH2 0x3A58 JUMPI PUSH2 0x3A58 PUSH2 0x50D1 JUMP JUMPDEST SWAP1 PUSH1 0x0 MSTORE PUSH1 0x20 PUSH1 0x0 KECCAK256 SWAP1 PUSH1 0x2 MUL ADD PUSH1 0x0 ADD SLOAD SWAP1 POP DUP4 DUP2 LT PUSH2 0x3A7B JUMPI POP SWAP1 POP PUSH2 0x13B9 JUMP JUMPDEST DUP1 PUSH2 0x3A86 DUP6 DUP5 PUSH2 0x51A9 JUMP JUMPDEST PUSH2 0x185B SWAP2 SWAP1 PUSH2 0x50AF JUMP JUMPDEST PUSH1 0x0 PUSH8 0xDE0B6B3A7640000 PUSH2 0x3AA5 DUP2 DUP8 PUSH2 0x5196 JUMP JUMPDEST DUP6 PUSH2 0x3AB1 DUP10 DUP8 DUP8 PUSH2 0x437E JUMP JUMPDEST PUSH2 0x3ABB SWAP2 SWAP1 PUSH2 0x51A9 JUMP JUMPDEST PUSH2 0x3AC5 SWAP2 SWAP1 PUSH2 0x50AF JUMP JUMPDEST PUSH2 0x3ACF SWAP2 SWAP1 PUSH2 0x50AF JUMP JUMPDEST SWAP7 SWAP6 POP POP POP POP POP POP JUMP JUMPDEST PUSH2 0x148 SLOAD PUSH2 0x100 SWAP1 DIV PUSH1 0xFF AND ISZERO PUSH2 0x14A1 JUMPI PUSH1 0x40 MLOAD PUSH4 0x1CA61D77 PUSH1 0xE0 SHL DUP2 MSTORE PUSH1 0x4 ADD PUSH1 0x40 MLOAD DUP1 SWAP2 SUB SWAP1 REVERT JUMPDEST PUSH2 0x3B0D DUP3 DUP3 PUSH2 0x4749 JUMP JUMPDEST PUSH2 0x149 DUP4 DUP2 SLOAD DUP2 LT PUSH2 0x3B21 JUMPI PUSH2 0x3B21 PUSH2 0x50D1 JUMP JUMPDEST SWAP1 PUSH1 0x0 MSTORE PUSH1 0x20 PUSH1 0x0 KECCAK256 ADD PUSH1 0x0 DUP3 DUP3 SLOAD PUSH2 0x3B3A SWAP2 SWAP1 PUSH2 0x5224 JUMP JUMPDEST SWAP3 POP POP DUP2 SWAP1 SSTORE POP DUP1 PUSH2 0x14A DUP4 DUP2 SLOAD DUP2 LT PUSH2 0x3B56 JUMPI PUSH2 0x3B56 PUSH2 0x50D1 JUMP JUMPDEST PUSH1 0x0 SWAP2 DUP3 MSTORE PUSH1 0x20 SWAP1 SWAP2 KECCAK256 ADD SSTORE POP POP JUMP JUMPDEST PUSH1 0x0 DUP1 PUSH2 0x3B71 PUSH2 0x2929 JUMP JUMPDEST SWAP1 SWAP3 POP SWAP1 POP PUSH1 0x0 PUSH2 0x3B82 DUP4 DUP4 PUSH2 0x3797 JUMP JUMPDEST SWAP1 POP DUP4 DUP2 GT PUSH2 0x3BAE JUMPI PUSH1 0x40 MLOAD PUSH4 0x79121201 PUSH1 0xE0 SHL DUP2 MSTORE PUSH1 0x4 DUP2 ADD DUP3 SWAP1 MSTORE PUSH1 0x24 DUP2 ADD DUP6 SWAP1 MSTORE PUSH1 0x44 ADD PUSH2 0x11ED JUMP JUMPDEST POP SWAP2 POP SWAP2 JUMP JUMPDEST PUSH1 0x0 PUSH2 0x3BC0 DUP8 DUP7 PUSH2 0x3A1E JUMP JUMPDEST SWAP1 POP PUSH1 0x0 PUSH2 0x3BD1 DUP6 DUP4 DUP9 DUP8 DUP8 PUSH2 0x3A90 JUMP JUMPDEST SWAP1 POP DUP7 DUP2 LT ISZERO PUSH2 0x3BFE JUMPI PUSH1 0x40 MLOAD PUSH4 0xC39B739F PUSH1 0xE0 SHL DUP2 MSTORE PUSH1 0x4 DUP2 ADD DUP9 SWAP1 MSTORE PUSH1 0x24 DUP2 ADD DUP3 SWAP1 MSTORE PUSH1 0x44 ADD PUSH2 0x11ED JUMP JUMPDEST POP POP POP POP POP POP POP POP JUMP JUMPDEST PUSH1 0x0 PUSH8 0xDE0B6B3A7640000 PUSH2 0x3C1D DUP4 DUP6 PUSH2 0x51A9 JUMP JUMPDEST PUSH2 0x12D5 SWAP2 SWAP1 PUSH2 0x50AF JUMP JUMPDEST PUSH2 0x3C32 DUP5 DUP5 DUP5 PUSH2 0x47C5 JUMP JUMPDEST PUSH2 0x133 DUP5 DUP2 SLOAD DUP2 LT PUSH2 0x3C46 JUMPI PUSH2 0x3C46 PUSH2 0x50D1 JUMP JUMPDEST PUSH1 0x0 SWAP2 DUP3 MSTORE PUSH1 0x20 SWAP1 SWAP2 KECCAK256 ADD SLOAD PUSH1 0x40 MLOAD PUSH4 0x40C10F19 PUSH1 0xE0 SHL DUP2 MSTORE PUSH1 0x1 PUSH1 0x1 PUSH1 0xA0 SHL SUB DUP4 DUP2 AND PUSH1 0x4 DUP4 ADD MSTORE PUSH1 0x24 DUP3 ADD DUP7 SWAP1 MSTORE SWAP1 SWAP2 AND SWAP1 PUSH4 0x40C10F19 SWAP1 PUSH1 0x44 ADD JUMPDEST PUSH1 0x0 PUSH1 0x40 MLOAD DUP1 DUP4 SUB DUP2 PUSH1 0x0 DUP8 DUP1 EXTCODESIZE ISZERO DUP1 ISZERO PUSH2 0x3C9E JUMPI PUSH1 0x0 DUP1 REVERT JUMPDEST POP GAS CALL ISZERO DUP1 ISZERO PUSH2 0x3BFE JUMPI RETURNDATASIZE PUSH1 0x0 DUP1 RETURNDATACOPY RETURNDATASIZE PUSH1 0x0 REVERT JUMPDEST PUSH2 0x3CBD DUP5 DUP5 DUP5 PUSH2 0x4809 JUMP JUMPDEST PUSH2 0x133 DUP5 DUP2 SLOAD DUP2 LT PUSH2 0x3CD1 JUMPI PUSH2 0x3CD1 PUSH2 0x50D1 JUMP JUMPDEST PUSH1 0x0 SWAP2 DUP3 MSTORE PUSH1 0x20 SWAP1 SWAP2 KECCAK256 ADD SLOAD PUSH1 0x40 MLOAD PUSH4 0x2770A7EB PUSH1 0xE2 SHL DUP2 MSTORE PUSH1 0x1 PUSH1 0x1 PUSH1 0xA0 SHL SUB DUP4 DUP2 AND PUSH1 0x4 DUP4 ADD MSTORE PUSH1 0x24 DUP3 ADD DUP7 SWAP1 MSTORE SWAP1 SWAP2 AND SWAP1 PUSH4 0x9DC29FAC SWAP1 PUSH1 0x44 ADD PUSH2 0x3C84 JUMP JUMPDEST PUSH1 0x0 PUSH2 0x12D5 DUP3 DUP5 PUSH2 0x5196 JUMP JUMPDEST PUSH1 0x0 PUSH2 0x3D2E PUSH2 0x139 SLOAD DUP4 PUSH2 0x3C08 JUMP JUMPDEST SWAP1 POP DUP1 PUSH2 0x12F PUSH1 0x0 DUP3 DUP3 SLOAD PUSH2 0x3D43 SWAP2 SWAP1 PUSH2 0x5004 JUMP JUMPDEST SWAP1 SWAP2 SSTORE POP POP PUSH2 0x143 SLOAD PUSH2 0x3D68 SWAP1 PUSH1 0x1 PUSH1 0x1 PUSH1 0xA0 SHL SUB AND PUSH2 0x3D63 DUP4 DUP6 PUSH2 0x5196 JUMP JUMPDEST PUSH2 0x4589 JUMP JUMPDEST PUSH2 0x3D72 DUP5 DUP5 PUSH2 0x4589 JUMP JUMPDEST POP POP POP POP JUMP JUMPDEST PUSH1 0x0 SLOAD PUSH2 0x100 SWAP1 DIV PUSH1 0xFF AND PUSH2 0x3D9F JUMPI PUSH1 0x40 MLOAD PUSH3 0x461BCD PUSH1 0xE5 SHL DUP2 MSTORE PUSH1 0x4 ADD PUSH2 0x11ED SWAP1 PUSH2 0x51C0 JUMP JUMPDEST PUSH2 0x3DA7 PUSH2 0x4862 JUMP JUMPDEST PUSH2 0x3DB0 DUP3 PUSH2 0x4889 JUMP JUMPDEST PUSH2 0x1268 DUP2 PUSH1 0x1 PUSH2 0x48B9 JUMP JUMPDEST PUSH1 0x0 SLOAD PUSH2 0x100 SWAP1 DIV PUSH1 0xFF AND PUSH2 0x3DE2 JUMPI PUSH1 0x40 MLOAD PUSH3 0x461BCD PUSH1 0xE5 SHL DUP2 MSTORE PUSH1 0x4 ADD PUSH2 0x11ED SWAP1 PUSH2 0x51C0 JUMP JUMPDEST PUSH8 0xDE0B6B3A7640000 DUP2 PUSH1 0x60 ADD CALLDATALOAD LT ISZERO PUSH2 0x3E0F JUMPI PUSH1 0x40 MLOAD PUSH4 0x2A9FFAB7 PUSH1 0xE2 SHL DUP2 MSTORE PUSH1 0x4 ADD PUSH1 0x40 MLOAD DUP1 SWAP2 SUB SWAP1 REVERT JUMPDEST PUSH2 0x3E1C DUP2 PUSH1 0xA0 ADD CALLDATALOAD PUSH2 0x491C JUMP JUMPDEST PUSH2 0x3E29 DUP2 PUSH1 0xC0 ADD CALLDATALOAD PUSH2 0x491C JUMP JUMPDEST PUSH2 0x3E36 DUP2 PUSH1 0xE0 ADD CALLDATALOAD PUSH2 0x491C JUMP JUMPDEST PUSH2 0x3E44 DUP2 PUSH2 0x100 ADD CALLDATALOAD PUSH2 0x491C JUMP JUMPDEST PUSH2 0x3E52 DUP2 PUSH2 0x120 ADD CALLDATALOAD PUSH2 0x491C JUMP JUMPDEST PUSH2 0x3E60 DUP2 PUSH2 0x140 ADD CALLDATALOAD PUSH2 0x491C JUMP JUMPDEST PUSH2 0x3E6E DUP2 PUSH2 0x160 ADD CALLDATALOAD PUSH2 0x491C JUMP JUMPDEST PUSH2 0x3E7C DUP2 PUSH2 0x180 ADD CALLDATALOAD PUSH2 0x491C JUMP JUMPDEST PUSH2 0x3E98 PUSH2 0x3E93 PUSH2 0x1C0 DUP4 ADD CALLDATALOAD PUSH2 0x1A0 DUP5 ADD CALLDATALOAD PUSH2 0x5004 JUMP JUMPDEST PUSH2 0x491C JUMP JUMPDEST PUSH2 0x3EA5 PUSH1 0x20 DUP3 ADD DUP3 PUSH2 0x4C40 JUMP JUMPDEST PUSH2 0x131 DUP1 SLOAD PUSH1 0x1 PUSH1 0x1 PUSH1 0xA0 SHL SUB NOT AND PUSH1 0x1 PUSH1 0x1 PUSH1 0xA0 SHL SUB SWAP3 SWAP1 SWAP3 AND SWAP2 DUP3 OR SWAP1 SSTORE PUSH1 0x40 MLOAD PUSH4 0xD55FD845 PUSH1 0xE0 SHL DUP2 MSTORE ADDRESS PUSH1 0x4 DUP3 ADD MSTORE PUSH4 0xD55FD845 SWAP1 PUSH1 0x24 ADD PUSH1 0x20 PUSH1 0x40 MLOAD DUP1 DUP4 SUB DUP2 DUP7 GAS STATICCALL ISZERO DUP1 ISZERO PUSH2 0x3EFE JUMPI RETURNDATASIZE PUSH1 0x0 DUP1 RETURNDATACOPY RETURNDATASIZE PUSH1 0x0 REVERT JUMPDEST POP POP POP POP PUSH1 0x40 MLOAD RETURNDATASIZE PUSH1 0x1F NOT PUSH1 0x1F DUP3 ADD AND DUP3 ADD DUP1 PUSH1 0x40 MSTORE POP DUP2 ADD SWAP1 PUSH2 0x3F22 SWAP2 SWAP1 PUSH2 0x510C JUMP JUMPDEST PUSH2 0x3F3F JUMPI PUSH1 0x40 MLOAD PUSH4 0xE6C4247B PUSH1 0xE0 SHL DUP2 MSTORE PUSH1 0x4 ADD PUSH1 0x40 MLOAD DUP1 SWAP2 SUB SWAP1 REVERT JUMPDEST PUSH2 0x3F4F PUSH1 0x40 DUP3 ADD PUSH1 0x20 DUP4 ADD PUSH2 0x4C40 JUMP JUMPDEST PUSH2 0x143 DUP1 SLOAD PUSH1 0x1 PUSH1 0x1 PUSH1 0xA0 SHL SUB NOT AND PUSH1 0x1 PUSH1 0x1 PUSH1 0xA0 SHL SUB SWAP3 SWAP1 SWAP3 AND SWAP2 SWAP1 SWAP2 OR SWAP1 SSTORE PUSH2 0x3F80 PUSH1 0x60 DUP3 ADD PUSH1 0x40 DUP4 ADD PUSH2 0x4C40 JUMP JUMPDEST PUSH2 0x144 DUP1 SLOAD PUSH1 0x1 PUSH1 0x1 PUSH1 0xA0 SHL SUB NOT AND PUSH1 0x1 PUSH1 0x1 PUSH1 0xA0 SHL SUB SWAP3 SWAP1 SWAP3 AND SWAP2 SWAP1 SWAP2 OR SWAP1 SSTORE PUSH1 0x60 DUP2 ADD CALLDATALOAD PUSH2 0x146 SSTORE PUSH1 0x80 DUP2 ADD CALLDATALOAD PUSH2 0x147 SSTORE PUSH1 0xA0 DUP2 ADD CALLDATALOAD PUSH2 0x139 SSTORE PUSH1 0xC0 DUP2 ADD CALLDATALOAD PUSH2 0x13A SSTORE PUSH1 0xE0 DUP2 ADD CALLDATALOAD PUSH2 0x13B SSTORE PUSH2 0x100 DUP2 ADD CALLDATALOAD PUSH2 0x13C SSTORE PUSH2 0x120 DUP2 ADD CALLDATALOAD PUSH2 0x13D SSTORE PUSH2 0x140 DUP1 DUP3 ADD CALLDATALOAD PUSH2 0x13E SSTORE PUSH2 0x160 DUP3 ADD CALLDATALOAD PUSH2 0x13F SSTORE PUSH2 0x180 DUP3 ADD CALLDATALOAD SWAP1 SSTORE PUSH2 0x1A0 DUP2 ADD CALLDATALOAD PUSH2 0x137 SSTORE PUSH2 0x1C0 ADD CALLDATALOAD PUSH2 0x138 SSTORE PUSH2 0x148 DUP1 SLOAD PUSH2 0xFFFF NOT AND SWAP1 SSTORE JUMP JUMPDEST PUSH1 0x0 SLOAD PUSH2 0x100 SWAP1 DIV PUSH1 0xFF AND PUSH2 0x4047 JUMPI PUSH1 0x40 MLOAD PUSH3 0x461BCD PUSH1 0xE5 SHL DUP2 MSTORE PUSH1 0x4 ADD PUSH2 0x11ED SWAP1 PUSH2 0x51C0 JUMP JUMPDEST DUP1 PUSH1 0x0 SUB PUSH2 0x4068 JUMPI PUSH1 0x40 MLOAD PUSH4 0x2A9FFAB7 PUSH1 0xE2 SHL DUP2 MSTORE PUSH1 0x4 ADD PUSH1 0x40 MLOAD DUP1 SWAP2 SUB SWAP1 REVERT JUMPDEST PUSH2 0x17F DUP2 SWAP1 SSTORE PUSH2 0x157F DUP2 NUMBER ADD PUSH2 0x17E SSTORE JUMP JUMPDEST PUSH1 0x0 SLOAD PUSH2 0x100 SWAP1 DIV PUSH1 0xFF AND PUSH2 0x40A1 JUMPI PUSH1 0x40 MLOAD PUSH3 0x461BCD PUSH1 0xE5 SHL DUP2 MSTORE PUSH1 0x4 ADD PUSH2 0x11ED SWAP1 PUSH2 0x51C0 JUMP JUMPDEST PUSH2 0x1B2 DUP2 SWAP1 SSTORE PUSH2 0x40B1 DUP2 NUMBER PUSH2 0x5004 JUMP JUMPDEST PUSH2 0x1B3 SSTORE POP JUMP JUMPDEST PUSH1 0x0 DUP1 PUSH2 0x40C6 DUP8 DUP7 DUP7 PUSH2 0x3735 JUMP JUMPDEST POP SWAP2 POP PUSH2 0x40D3 DUP7 DUP5 PUSH2 0x3C08 JUMP JUMPDEST PUSH2 0x40DD SWAP1 DUP4 PUSH2 0x5004 JUMP JUMPDEST SWAP2 POP PUSH2 0x40EC DUP3 PUSH2 0x13F SLOAD PUSH2 0x3C08 JUMP JUMPDEST SWAP1 POP SWAP6 POP SWAP6 SWAP4 POP POP POP POP JUMP JUMPDEST PUSH2 0x4102 DUP4 DUP4 PUSH2 0x4945 JUMP JUMPDEST PUSH2 0x131 SLOAD PUSH1 0x40 MLOAD PUSH4 0x2770A7EB PUSH1 0xE2 SHL DUP2 MSTORE PUSH1 0x1 PUSH1 0x1 PUSH1 0xA0 SHL SUB DUP4 DUP2 AND PUSH1 0x4 DUP4 ADD MSTORE PUSH1 0x24 DUP3 ADD DUP7 SWAP1 MSTORE SWAP1 SWAP2 AND SWAP1 PUSH4 0x9DC29FAC SWAP1 PUSH1 0x44 ADD JUMPDEST PUSH1 0x0 PUSH1 0x40 MLOAD DUP1 DUP4 SUB DUP2 PUSH1 0x0 DUP8 DUP1 EXTCODESIZE ISZERO DUP1 ISZERO PUSH2 0x4152 JUMPI PUSH1 0x0 DUP1 REVERT JUMPDEST POP GAS CALL ISZERO DUP1 ISZERO PUSH2 0x4166 JUMPI RETURNDATASIZE PUSH1 0x0 DUP1 RETURNDATACOPY RETURNDATASIZE PUSH1 0x0 REVERT JUMPDEST POP POP POP POP POP POP POP JUMP JUMPDEST PUSH1 0x0 DUP1 PUSH1 0x0 PUSH2 0x417E DUP6 DUP6 PUSH2 0x4749 JUMP JUMPDEST PUSH2 0x149 DUP7 DUP2 SLOAD DUP2 LT PUSH2 0x4192 JUMPI PUSH2 0x4192 PUSH2 0x50D1 JUMP JUMPDEST SWAP1 PUSH1 0x0 MSTORE PUSH1 0x20 PUSH1 0x0 KECCAK256 ADD SLOAD PUSH2 0x41A7 SWAP2 SWAP1 PUSH2 0x5224 JUMP JUMPDEST SWAP1 POP PUSH1 0x0 DUP2 SGT ISZERO PUSH2 0x41CE JUMPI DUP1 SWAP2 POP PUSH2 0x41CB PUSH2 0x41C5 PUSH2 0x138 SLOAD DUP7 PUSH2 0x3C08 JUMP JUMPDEST DUP4 PUSH2 0x3C08 JUMP JUMPDEST SWAP3 POP JUMPDEST POP SWAP3 POP SWAP3 SWAP1 POP JUMP JUMPDEST PUSH1 0x0 DUP2 PUSH2 0x3C1D PUSH8 0xDE0B6B3A7640000 DUP6 PUSH2 0x51A9 JUMP JUMPDEST PUSH1 0x0 DUP1 DUP5 PUSH1 0x0 SUB PUSH2 0x420F JUMPI PUSH1 0x40 MLOAD PUSH4 0x2A9FFAB7 PUSH1 0xE2 SHL DUP2 MSTORE PUSH1 0x4 ADD PUSH1 0x40 MLOAD DUP1 SWAP2 SUB SWAP1 REVERT JUMPDEST PUSH2 0x4222 DUP6 PUSH2 0x421D DUP7 DUP7 PUSH2 0x29D5 JUMP JUMPDEST PUSH2 0x3C08 JUMP JUMPDEST SWAP2 POP PUSH2 0x378D DUP3 PUSH2 0x13A SLOAD PUSH2 0x3C08 JUMP JUMPDEST PUSH2 0x423B DUP4 DUP4 PUSH2 0x497B JUMP JUMPDEST PUSH2 0x131 SLOAD PUSH1 0x40 MLOAD PUSH4 0x40C10F19 PUSH1 0xE0 SHL DUP2 MSTORE PUSH1 0x1 PUSH1 0x1 PUSH1 0xA0 SHL SUB DUP4 DUP2 AND PUSH1 0x4 DUP4 ADD MSTORE PUSH1 0x24 DUP3 ADD DUP7 SWAP1 MSTORE SWAP1 SWAP2 AND SWAP1 PUSH4 0x40C10F19 SWAP1 PUSH1 0x44 ADD PUSH2 0x4138 JUMP JUMPDEST PUSH1 0x1 PUSH1 0x1 PUSH1 0xA0 SHL SUB DUP2 AND EXTCODESIZE PUSH2 0x42E2 JUMPI PUSH1 0x40 MLOAD PUSH3 0x461BCD PUSH1 0xE5 SHL DUP2 MSTORE PUSH1 0x20 PUSH1 0x4 DUP3 ADD MSTORE PUSH1 0x2D PUSH1 0x24 DUP3 ADD MSTORE PUSH32 0x455243313936373A206E657720696D706C656D656E746174696F6E206973206E PUSH1 0x44 DUP3 ADD MSTORE PUSH13 0x1BDD08184818DBDB9D1C9858DD PUSH1 0x9A SHL PUSH1 0x64 DUP3 ADD MSTORE PUSH1 0x84 ADD PUSH2 0x11ED JUMP JUMPDEST PUSH1 0x0 DUP1 MLOAD PUSH1 0x20 PUSH2 0x5335 DUP4 CODECOPY DUP2 MLOAD SWAP2 MSTORE DUP1 SLOAD PUSH1 0x1 PUSH1 0x1 PUSH1 0xA0 SHL SUB NOT AND PUSH1 0x1 PUSH1 0x1 PUSH1 0xA0 SHL SUB SWAP3 SWAP1 SWAP3 AND SWAP2 SWAP1 SWAP2 OR SWAP1 SSTORE JUMP JUMPDEST PUSH2 0x431A DUP4 PUSH2 0x499D JUMP JUMPDEST PUSH1 0x0 DUP3 MLOAD GT DUP1 PUSH2 0x4327 JUMPI POP DUP1 JUMPDEST ISZERO PUSH2 0x2CE3 JUMPI PUSH2 0x3D72 DUP4 DUP4 PUSH2 0x49DD JUMP JUMPDEST PUSH1 0x0 DUP1 DUP4 PUSH1 0x0 SUB PUSH2 0x435A JUMPI PUSH1 0x40 MLOAD PUSH4 0x2A9FFAB7 PUSH1 0xE2 SHL DUP2 MSTORE PUSH1 0x4 ADD PUSH1 0x40 MLOAD DUP1 SWAP2 SUB SWAP1 REVERT JUMPDEST PUSH2 0x4364 DUP5 DUP5 PUSH2 0x41D6 JUMP JUMPDEST SWAP2 POP PUSH2 0x378D DUP3 PUSH2 0x141 DUP8 DUP2 SLOAD DUP2 LT PUSH2 0x377D JUMPI PUSH2 0x377D PUSH2 0x50D1 JUMP JUMPDEST PUSH1 0x0 DUP4 PUSH2 0x438B DUP5 DUP5 PUSH2 0x3797 JUMP JUMPDEST GT PUSH2 0x4398 JUMPI POP PUSH1 0x0 PUSH2 0x12D5 JUMP JUMPDEST PUSH2 0x43A2 DUP4 DUP6 PUSH2 0x51A9 JUMP JUMPDEST PUSH8 0xDE0B6B3A7640000 PUSH2 0x43B4 DUP5 PUSH2 0x39FF JUMP JUMPDEST PUSH2 0x43BE SWAP2 SWAP1 PUSH2 0x51A9 JUMP JUMPDEST PUSH2 0x12D2 SWAP2 SWAP1 PUSH2 0x5196 JUMP JUMPDEST PUSH2 0x135 SLOAD PUSH1 0x0 SWAP1 DUP2 DUP2 PUSH8 0xFFFFFFFFFFFFFFFF DUP2 GT ISZERO PUSH2 0x43E9 JUMPI PUSH2 0x43E9 PUSH2 0x4D68 JUMP JUMPDEST PUSH1 0x40 MLOAD SWAP1 DUP1 DUP3 MSTORE DUP1 PUSH1 0x20 MUL PUSH1 0x20 ADD DUP3 ADD PUSH1 0x40 MSTORE DUP1 ISZERO PUSH2 0x4412 JUMPI DUP2 PUSH1 0x20 ADD PUSH1 0x20 DUP3 MUL DUP1 CALLDATASIZE DUP4 CALLDATACOPY ADD SWAP1 POP JUMPDEST POP SWAP1 POP PUSH1 0x0 JUMPDEST DUP3 DUP2 LT ISZERO PUSH2 0x4506 JUMPI PUSH1 0x0 PUSH2 0x442B DUP3 PUSH2 0x1AA4 JUMP JUMPDEST SWAP1 POP PUSH2 0x4437 DUP3 DUP3 PUSH2 0x3B03 JUMP JUMPDEST PUSH1 0x0 PUSH2 0x149 DUP4 DUP2 SLOAD DUP2 LT PUSH2 0x444D JUMPI PUSH2 0x444D PUSH2 0x50D1 JUMP JUMPDEST SWAP1 PUSH1 0x0 MSTORE PUSH1 0x20 PUSH1 0x0 KECCAK256 ADD SLOAD SWAP1 POP PUSH1 0x0 DUP2 SGT ISZERO PUSH2 0x44FC JUMPI PUSH2 0x4479 PUSH2 0x4473 PUSH2 0x138 SLOAD DUP5 PUSH2 0x3C08 JUMP JUMPDEST DUP3 PUSH2 0x3C08 JUMP JUMPDEST DUP5 DUP5 DUP2 MLOAD DUP2 LT PUSH2 0x448B JUMPI PUSH2 0x448B PUSH2 0x50D1 JUMP JUMPDEST PUSH1 0x20 SWAP1 DUP2 MUL SWAP2 SWAP1 SWAP2 ADD ADD MSTORE PUSH2 0x44A0 DUP2 DUP8 PUSH2 0x5004 JUMP JUMPDEST SWAP6 POP PUSH1 0x0 PUSH2 0x149 DUP5 DUP2 SLOAD DUP2 LT PUSH2 0x44B8 JUMPI PUSH2 0x44B8 PUSH2 0x50D1 JUMP JUMPDEST SWAP1 PUSH1 0x0 MSTORE PUSH1 0x20 PUSH1 0x0 KECCAK256 ADD DUP2 SWAP1 SSTORE POP PUSH2 0x44FC DUP4 DUP6 DUP6 DUP2 MLOAD DUP2 LT PUSH2 0x44DC JUMPI PUSH2 0x44DC PUSH2 0x50D1 JUMP JUMPDEST PUSH1 0x20 SWAP1 DUP2 MUL SWAP2 SWAP1 SWAP2 ADD ADD MLOAD PUSH2 0x144 SLOAD PUSH1 0x0 SWAP1 PUSH1 0x1 PUSH1 0x1 PUSH1 0xA0 SHL SUB AND PUSH2 0x3C27 JUMP JUMPDEST POP POP PUSH1 0x1 ADD PUSH2 0x4418 JUMP JUMPDEST POP DUP3 ISZERO PUSH2 0x454B JUMPI PUSH2 0x451A DUP4 PUSH2 0x137 SLOAD PUSH2 0x3C08 JUMP JUMPDEST SWAP3 POP DUP3 PUSH2 0x12F PUSH1 0x0 DUP3 DUP3 SLOAD PUSH2 0x452F SWAP2 SWAP1 PUSH2 0x5196 JUMP JUMPDEST SWAP1 SWAP2 SSTORE POP POP PUSH2 0x143 SLOAD PUSH2 0x454B SWAP1 PUSH1 0x1 PUSH1 0x1 PUSH1 0xA0 SHL SUB AND DUP5 PUSH2 0x4589 JUMP JUMPDEST PUSH32 0xAE5116A8119D08673A0F1DFA7546B95DA4BD54BB17FEDA7C61130AC7859152F6 DUP4 DUP3 PUSH1 0x40 MLOAD PUSH2 0x457C SWAP3 SWAP2 SWAP1 PUSH2 0x524C JUMP JUMPDEST PUSH1 0x40 MLOAD DUP1 SWAP2 SUB SWAP1 LOG1 POP POP POP JUMP JUMPDEST PUSH2 0x4591 PUSH2 0x4AC8 JUMP JUMPDEST DUP1 ISZERO PUSH2 0x4634 JUMPI PUSH1 0x1 PUSH1 0x1 PUSH1 0xA0 SHL SUB DUP3 AND PUSH2 0x45BE JUMPI PUSH1 0x40 MLOAD PUSH4 0xE6C4247B PUSH1 0xE0 SHL DUP2 MSTORE PUSH1 0x4 ADD PUSH1 0x40 MLOAD DUP1 SWAP2 SUB SWAP1 REVERT JUMPDEST PUSH1 0x0 DUP3 PUSH1 0x1 PUSH1 0x1 PUSH1 0xA0 SHL SUB AND DUP3 PUSH1 0x40 MLOAD PUSH1 0x0 PUSH1 0x40 MLOAD DUP1 DUP4 SUB DUP2 DUP6 DUP8 GAS CALL SWAP3 POP POP POP RETURNDATASIZE DUP1 PUSH1 0x0 DUP2 EQ PUSH2 0x460B JUMPI PUSH1 0x40 MLOAD SWAP2 POP PUSH1 0x1F NOT PUSH1 0x3F RETURNDATASIZE ADD AND DUP3 ADD PUSH1 0x40 MSTORE RETURNDATASIZE DUP3 MSTORE RETURNDATASIZE PUSH1 0x0 PUSH1 0x20 DUP5 ADD RETURNDATACOPY PUSH2 0x4610 JUMP JUMPDEST PUSH1 0x60 SWAP2 POP JUMPDEST POP POP SWAP1 POP DUP1 PUSH2 0x4632 JUMPI PUSH1 0x40 MLOAD PUSH4 0x12171D83 PUSH1 0xE3 SHL DUP2 MSTORE PUSH1 0x4 ADD PUSH1 0x40 MLOAD DUP1 SWAP2 SUB SWAP1 REVERT JUMPDEST POP JUMPDEST PUSH2 0x1268 PUSH1 0x1 PUSH2 0x218 SSTORE JUMP JUMPDEST PUSH1 0x0 DUP1 PUSH1 0x0 DUP1 PUSH1 0x0 PUSH2 0x464F PUSH2 0x2929 JUMP JUMPDEST SWAP2 POP SWAP2 POP PUSH1 0x0 PUSH2 0x465F DUP4 DUP4 PUSH2 0x29D5 JUMP JUMPDEST SWAP1 POP DUP7 PUSH8 0xDE0B6B3A7640000 PUSH2 0x4673 PUSH2 0x2F66 JUMP JUMPDEST PUSH2 0x467D SWAP2 SWAP1 PUSH2 0x5196 JUMP JUMPDEST PUSH2 0x4687 SWAP1 DUP11 PUSH2 0x51A9 JUMP JUMPDEST PUSH2 0x4691 SWAP2 SWAP1 PUSH2 0x50AF JUMP JUMPDEST SWAP5 POP PUSH2 0x469D DUP6 DUP3 PUSH2 0x41D6 JUMP JUMPDEST SWAP6 POP PUSH2 0x46A9 DUP9 DUP9 PUSH2 0x41D6 JUMP JUMPDEST PUSH2 0x46B3 SWAP1 DUP7 PUSH2 0x5004 JUMP JUMPDEST SWAP5 POP PUSH2 0x46C2 DUP6 PUSH2 0x140 SLOAD PUSH2 0x3C08 JUMP JUMPDEST SWAP4 POP POP POP POP SWAP3 POP SWAP3 POP SWAP3 JUMP JUMPDEST PUSH1 0x0 PUSH2 0x46DB DUP5 DUP5 DUP5 PUSH2 0x304D JUMP JUMPDEST SWAP1 POP DUP5 DUP2 LT ISZERO PUSH2 0x2CA1 JUMPI PUSH1 0x40 MLOAD PUSH4 0xA5DB715D PUSH1 0xE0 SHL DUP2 MSTORE PUSH1 0x4 DUP2 ADD DUP7 SWAP1 MSTORE PUSH1 0x24 DUP2 ADD DUP3 SWAP1 MSTORE PUSH1 0x44 ADD PUSH2 0x11ED JUMP JUMPDEST PUSH1 0x0 DUP1 DUP5 PUSH1 0x0 SUB PUSH2 0x472C JUMPI PUSH1 0x40 MLOAD PUSH4 0x2A9FFAB7 PUSH1 0xE2 SHL DUP2 MSTORE PUSH1 0x4 ADD PUSH1 0x40 MLOAD DUP1 SWAP2 SUB SWAP1 REVERT JUMPDEST PUSH2 0x473A DUP6 PUSH2 0x421D DUP7 DUP7 PUSH2 0x29D5 JUMP JUMPDEST SWAP2 POP PUSH2 0x378D DUP3 PUSH2 0x13B SLOAD PUSH2 0x3C08 JUMP JUMPDEST PUSH1 0x0 DUP1 PUSH8 0xDE0B6B3A7640000 PUSH2 0x135 DUP6 DUP2 SLOAD DUP2 LT PUSH2 0x4769 JUMPI PUSH2 0x4769 PUSH2 0x50D1 JUMP JUMPDEST SWAP1 PUSH1 0x0 MSTORE PUSH1 0x20 PUSH1 0x0 KECCAK256 SWAP1 PUSH1 0x2 MUL ADD PUSH1 0x0 ADD SLOAD PUSH2 0x4785 SWAP2 SWAP1 PUSH2 0x51A9 JUMP JUMPDEST SWAP1 POP PUSH2 0x4791 DUP4 DUP3 PUSH2 0x50AF JUMP JUMPDEST PUSH2 0x14A DUP6 DUP2 SLOAD DUP2 LT PUSH2 0x47A5 JUMPI PUSH2 0x47A5 PUSH2 0x50D1 JUMP JUMPDEST SWAP1 PUSH1 0x0 MSTORE PUSH1 0x20 PUSH1 0x0 KECCAK256 ADD SLOAD DUP3 PUSH2 0x47BB SWAP2 SWAP1 PUSH2 0x50AF JUMP JUMPDEST PUSH2 0x38DD SWAP2 SWAP1 PUSH2 0x529A JUMP JUMPDEST DUP2 PUSH2 0x135 DUP5 DUP2 SLOAD DUP2 LT PUSH2 0x47DA JUMPI PUSH2 0x47DA PUSH2 0x50D1 JUMP JUMPDEST SWAP1 PUSH1 0x0 MSTORE PUSH1 0x20 PUSH1 0x0 KECCAK256 SWAP1 PUSH1 0x2 MUL ADD PUSH1 0x0 ADD PUSH1 0x0 DUP3 DUP3 SLOAD PUSH2 0x47FA SWAP2 SWAP1 PUSH2 0x5004 JUMP JUMPDEST SWAP1 SWAP2 SSTORE POP PUSH2 0x2CE3 SWAP1 POP DUP2 PUSH2 0x10DA JUMP JUMPDEST DUP2 PUSH2 0x135 DUP5 DUP2 SLOAD DUP2 LT PUSH2 0x481E JUMPI PUSH2 0x481E PUSH2 0x50D1 JUMP JUMPDEST SWAP1 PUSH1 0x0 MSTORE PUSH1 0x20 PUSH1 0x0 KECCAK256 SWAP1 PUSH1 0x2 MUL ADD PUSH1 0x0 ADD PUSH1 0x0 DUP3 DUP3 SLOAD PUSH2 0x483E SWAP2 SWAP1 PUSH2 0x5196 JUMP JUMPDEST SWAP3 POP POP DUP2 SWAP1 SSTORE POP DUP1 PUSH2 0x12F PUSH1 0x0 DUP3 DUP3 SLOAD PUSH2 0x4858 SWAP2 SWAP1 PUSH2 0x5196 JUMP JUMPDEST SWAP1 SWAP2 SSTORE POP POP POP POP POP JUMP JUMPDEST PUSH1 0x0 SLOAD PUSH2 0x100 SWAP1 DIV PUSH1 0xFF AND PUSH2 0x14A1 JUMPI PUSH1 0x40 MLOAD PUSH3 0x461BCD PUSH1 0xE5 SHL DUP2 MSTORE PUSH1 0x4 ADD PUSH2 0x11ED SWAP1 PUSH2 0x51C0 JUMP JUMPDEST PUSH1 0x0 SLOAD PUSH2 0x100 SWAP1 DIV PUSH1 0xFF AND PUSH2 0x48B0 JUMPI PUSH1 0x40 MLOAD PUSH3 0x461BCD PUSH1 0xE5 SHL DUP2 MSTORE PUSH1 0x4 ADD PUSH2 0x11ED SWAP1 PUSH2 0x51C0 JUMP JUMPDEST PUSH2 0x157F DUP2 PUSH2 0x4B23 JUMP JUMPDEST PUSH1 0x0 SLOAD PUSH2 0x100 SWAP1 DIV PUSH1 0xFF AND PUSH2 0x48E0 JUMPI PUSH1 0x40 MLOAD PUSH3 0x461BCD PUSH1 0xE5 SHL DUP2 MSTORE PUSH1 0x4 ADD PUSH2 0x11ED SWAP1 PUSH2 0x51C0 JUMP JUMPDEST PUSH1 0xCA DUP1 SLOAD PUSH1 0x1 PUSH1 0x1 PUSH1 0xA0 SHL SUB SWAP1 SWAP4 AND PUSH3 0x10000 MUL PUSH3 0x10000 PUSH1 0x1 PUSH1 0xB0 SHL SUB NOT SWAP3 ISZERO ISZERO SWAP3 SWAP1 SWAP3 AND PUSH2 0xFF01 PUSH1 0x1 PUSH1 0xB0 SHL SUB NOT SWAP1 SWAP4 AND SWAP3 SWAP1 SWAP3 OR OR SWAP1 SSTORE JUMP JUMPDEST PUSH8 0xDE0B6B3A7640000 DUP2 GT ISZERO PUSH2 0x157F JUMPI PUSH1 0x40 MLOAD PUSH4 0x2A9FFAB7 PUSH1 0xE2 SHL DUP2 MSTORE PUSH1 0x4 ADD PUSH1 0x40 MLOAD DUP1 SWAP2 SUB SWAP1 REVERT JUMPDEST DUP2 PUSH2 0x132 PUSH1 0x0 DUP3 DUP3 SLOAD PUSH2 0x4958 SWAP2 SWAP1 PUSH2 0x5196 JUMP JUMPDEST SWAP3 POP POP DUP2 SWAP1 SSTORE POP DUP1 PUSH2 0x12F PUSH1 0x0 DUP3 DUP3 SLOAD PUSH2 0x4972 SWAP2 SWAP1 PUSH2 0x5196 JUMP JUMPDEST SWAP1 SWAP2 SSTORE POP POP POP POP JUMP JUMPDEST DUP2 PUSH2 0x132 PUSH1 0x0 DUP3 DUP3 SLOAD PUSH2 0x498E SWAP2 SWAP1 PUSH2 0x5004 JUMP JUMPDEST SWAP1 SWAP2 SSTORE POP PUSH2 0x1268 SWAP1 POP DUP2 PUSH2 0x10DA JUMP JUMPDEST PUSH2 0x49A6 DUP2 PUSH2 0x4275 JUMP JUMPDEST PUSH1 0x40 MLOAD PUSH1 0x1 PUSH1 0x1 PUSH1 0xA0 SHL SUB DUP3 AND SWAP1 PUSH32 0xBC7CD75A20EE27FD9ADEBAB32041F755214DBC6BFFA90CC0225B39DA2E5C2D3B SWAP1 PUSH1 0x0 SWAP1 LOG2 POP JUMP JUMPDEST PUSH1 0x60 PUSH1 0x1 PUSH1 0x1 PUSH1 0xA0 SHL SUB DUP4 AND EXTCODESIZE PUSH2 0x4A45 JUMPI PUSH1 0x40 MLOAD PUSH3 0x461BCD PUSH1 0xE5 SHL DUP2 MSTORE PUSH1 0x20 PUSH1 0x4 DUP3 ADD MSTORE PUSH1 0x26 PUSH1 0x24 DUP3 ADD MSTORE PUSH32 0x416464726573733A2064656C65676174652063616C6C20746F206E6F6E2D636F PUSH1 0x44 DUP3 ADD MSTORE PUSH6 0x1B9D1C9858DD PUSH1 0xD2 SHL PUSH1 0x64 DUP3 ADD MSTORE PUSH1 0x84 ADD PUSH2 0x11ED JUMP JUMPDEST PUSH1 0x0 DUP1 DUP5 PUSH1 0x1 PUSH1 0x1 PUSH1 0xA0 SHL SUB AND DUP5 PUSH1 0x40 MLOAD PUSH2 0x4A60 SWAP2 SWAP1 PUSH2 0x52E5 JUMP JUMPDEST PUSH1 0x0 PUSH1 0x40 MLOAD DUP1 DUP4 SUB DUP2 DUP6 GAS DELEGATECALL SWAP2 POP POP RETURNDATASIZE DUP1 PUSH1 0x0 DUP2 EQ PUSH2 0x4A9B JUMPI PUSH1 0x40 MLOAD SWAP2 POP PUSH1 0x1F NOT PUSH1 0x3F RETURNDATASIZE ADD AND DUP3 ADD PUSH1 0x40 MSTORE RETURNDATASIZE DUP3 MSTORE RETURNDATASIZE PUSH1 0x0 PUSH1 0x20 DUP5 ADD RETURNDATACOPY PUSH2 0x4AA0 JUMP JUMPDEST PUSH1 0x60 SWAP2 POP JUMPDEST POP SWAP2 POP SWAP2 POP PUSH2 0x185B DUP3 DUP3 PUSH1 0x40 MLOAD DUP1 PUSH1 0x60 ADD PUSH1 0x40 MSTORE DUP1 PUSH1 0x27 DUP2 MSTORE PUSH1 0x20 ADD PUSH2 0x5355 PUSH1 0x27 SWAP2 CODECOPY PUSH2 0x4B4A JUMP JUMPDEST PUSH1 0x2 PUSH2 0x218 SLOAD SUB PUSH2 0x4B1B JUMPI PUSH1 0x40 MLOAD PUSH3 0x461BCD PUSH1 0xE5 SHL DUP2 MSTORE PUSH1 0x20 PUSH1 0x4 DUP3 ADD MSTORE PUSH1 0x1F PUSH1 0x24 DUP3 ADD MSTORE PUSH32 0x5265656E7472616E637947756172643A207265656E7472616E742063616C6C00 PUSH1 0x44 DUP3 ADD MSTORE PUSH1 0x64 ADD PUSH2 0x11ED JUMP JUMPDEST PUSH1 0x2 PUSH2 0x218 SSTORE JUMP JUMPDEST PUSH1 0x0 SLOAD PUSH2 0x100 SWAP1 DIV PUSH1 0xFF AND PUSH2 0x205C JUMPI PUSH1 0x40 MLOAD PUSH3 0x461BCD PUSH1 0xE5 SHL DUP2 MSTORE PUSH1 0x4 ADD PUSH2 0x11ED SWAP1 PUSH2 0x51C0 JUMP JUMPDEST PUSH1 0x60 DUP4 ISZERO PUSH2 0x4B59 JUMPI POP DUP2 PUSH2 0x12D5 JUMP JUMPDEST PUSH2 0x12D5 DUP4 DUP4 DUP2 MLOAD ISZERO PUSH2 0x4B6E JUMPI DUP2 MLOAD DUP1 DUP4 PUSH1 0x20 ADD REVERT JUMPDEST DUP1 PUSH1 0x40 MLOAD PUSH3 0x461BCD PUSH1 0xE5 SHL DUP2 MSTORE PUSH1 0x4 ADD PUSH2 0x11ED SWAP2 SWAP1 PUSH2 0x5301 JUMP JUMPDEST PUSH1 0x0 PUSH1 0x20 DUP3 DUP5 SUB SLT ISZERO PUSH2 0x4B9A JUMPI PUSH1 0x0 DUP1 REVERT JUMPDEST POP CALLDATALOAD SWAP2 SWAP1 POP JUMP JUMPDEST DUP1 CALLDATALOAD PUSH1 0xFF DUP2 AND DUP2 EQ PUSH2 0x4BB2 JUMPI PUSH1 0x0 DUP1 REVERT JUMPDEST SWAP2 SWAP1 POP JUMP JUMPDEST PUSH1 0x1 PUSH1 0x1 PUSH1 0xA0 SHL SUB DUP2 AND DUP2 EQ PUSH2 0x157F JUMPI PUSH1 0x0 DUP1 REVERT JUMPDEST PUSH1 0x0 DUP1 PUSH1 0x0 DUP1 PUSH1 0x0 PUSH1 0xA0 DUP7 DUP9 SUB SLT ISZERO PUSH2 0x4BE4 JUMPI PUSH1 0x0 DUP1 REVERT JUMPDEST PUSH2 0x4BED DUP7 PUSH2 0x4BA1 JUMP JUMPDEST SWAP5 POP PUSH2 0x4BFB PUSH1 0x20 DUP8 ADD PUSH2 0x4BA1 JUMP JUMPDEST SWAP4 POP PUSH1 0x40 DUP7 ADD CALLDATALOAD SWAP3 POP PUSH1 0x60 DUP7 ADD CALLDATALOAD SWAP2 POP PUSH1 0x80 DUP7 ADD CALLDATALOAD PUSH2 0x4C19 DUP2 PUSH2 0x4BB7 JUMP JUMPDEST DUP1 SWAP2 POP POP SWAP3 SWAP6 POP SWAP3 SWAP6 SWAP1 SWAP4 POP JUMP JUMPDEST PUSH1 0x0 PUSH2 0x260 DUP3 DUP5 SUB SLT ISZERO PUSH2 0x4C3A JUMPI PUSH1 0x0 DUP1 REVERT JUMPDEST POP SWAP2 SWAP1 POP JUMP JUMPDEST PUSH1 0x0 PUSH1 0x20 DUP3 DUP5 SUB SLT ISZERO PUSH2 0x4C52 JUMPI PUSH1 0x0 DUP1 REVERT JUMPDEST DUP2 CALLDATALOAD PUSH2 0x12D5 DUP2 PUSH2 0x4BB7 JUMP JUMPDEST PUSH1 0x0 DUP1 PUSH1 0x0 DUP1 PUSH1 0x80 DUP6 DUP8 SUB SLT ISZERO PUSH2 0x4C73 JUMPI PUSH1 0x0 DUP1 REVERT JUMPDEST POP POP DUP3 CALLDATALOAD SWAP5 PUSH1 0x20 DUP5 ADD CALLDATALOAD SWAP5 POP PUSH1 0x40 DUP5 ADD CALLDATALOAD SWAP4 PUSH1 0x60 ADD CALLDATALOAD SWAP3 POP SWAP1 POP JUMP JUMPDEST PUSH1 0x0 DUP1 PUSH1 0x0 PUSH1 0x60 DUP5 DUP7 SUB SLT ISZERO PUSH2 0x4CA4 JUMPI PUSH1 0x0 DUP1 REVERT JUMPDEST POP POP DUP2 CALLDATALOAD SWAP4 PUSH1 0x20 DUP4 ADD CALLDATALOAD SWAP4 POP PUSH1 0x40 SWAP1 SWAP3 ADD CALLDATALOAD SWAP2 SWAP1 POP JUMP JUMPDEST PUSH1 0x0 DUP1 PUSH1 0x0 DUP1 PUSH1 0x80 DUP6 DUP8 SUB SLT ISZERO PUSH2 0x4CD1 JUMPI PUSH1 0x0 DUP1 REVERT JUMPDEST PUSH2 0x4CDA DUP6 PUSH2 0x4BA1 JUMP JUMPDEST SWAP4 POP PUSH2 0x4CE8 PUSH1 0x20 DUP7 ADD PUSH2 0x4BA1 JUMP JUMPDEST SWAP4 SWAP7 SWAP4 SWAP6 POP POP POP POP PUSH1 0x40 DUP3 ADD CALLDATALOAD SWAP2 PUSH1 0x60 ADD CALLDATALOAD SWAP1 JUMP JUMPDEST DUP1 ISZERO ISZERO DUP2 EQ PUSH2 0x157F JUMPI PUSH1 0x0 DUP1 REVERT JUMPDEST PUSH1 0x0 PUSH1 0x20 DUP3 DUP5 SUB SLT ISZERO PUSH2 0x4D1D JUMPI PUSH1 0x0 DUP1 REVERT JUMPDEST DUP2 CALLDATALOAD PUSH2 0x12D5 DUP2 PUSH2 0x4CFD JUMP JUMPDEST PUSH1 0x0 DUP1 PUSH1 0x0 PUSH1 0x60 DUP5 DUP7 SUB SLT ISZERO PUSH2 0x4D3D JUMPI PUSH1 0x0 DUP1 REVERT JUMPDEST PUSH2 0x4D46 DUP5 PUSH2 0x4BA1 JUMP JUMPDEST SWAP3 POP PUSH1 0x20 DUP5 ADD CALLDATALOAD SWAP2 POP PUSH1 0x40 DUP5 ADD CALLDATALOAD PUSH2 0x4D5D DUP2 PUSH2 0x4BB7 JUMP JUMPDEST DUP1 SWAP2 POP POP SWAP3 POP SWAP3 POP SWAP3 JUMP JUMPDEST PUSH4 0x4E487B71 PUSH1 0xE0 SHL PUSH1 0x0 MSTORE PUSH1 0x41 PUSH1 0x4 MSTORE PUSH1 0x24 PUSH1 0x0 REVERT JUMPDEST PUSH1 0x0 DUP1 PUSH1 0x40 DUP4 DUP6 SUB SLT ISZERO PUSH2 0x4D91 JUMPI PUSH1 0x0 DUP1 REVERT JUMPDEST DUP3 CALLDATALOAD PUSH2 0x4D9C DUP2 PUSH2 0x4BB7 JUMP JUMPDEST SWAP2 POP PUSH1 0x20 DUP4 ADD CALLDATALOAD PUSH8 0xFFFFFFFFFFFFFFFF DUP1 DUP3 GT ISZERO PUSH2 0x4DB9 JUMPI PUSH1 0x0 DUP1 REVERT JUMPDEST DUP2 DUP6 ADD SWAP2 POP DUP6 PUSH1 0x1F DUP4 ADD SLT PUSH2 0x4DCD JUMPI PUSH1 0x0 DUP1 REVERT JUMPDEST DUP2 CALLDATALOAD DUP2 DUP2 GT ISZERO PUSH2 0x4DDF JUMPI PUSH2 0x4DDF PUSH2 0x4D68 JUMP JUMPDEST PUSH1 0x40 MLOAD PUSH1 0x1F DUP3 ADD PUSH1 0x1F NOT SWAP1 DUP2 AND PUSH1 0x3F ADD AND DUP2 ADD SWAP1 DUP4 DUP3 GT DUP2 DUP4 LT OR ISZERO PUSH2 0x4E07 JUMPI PUSH2 0x4E07 PUSH2 0x4D68 JUMP JUMPDEST DUP2 PUSH1 0x40 MSTORE DUP3 DUP2 MSTORE DUP9 PUSH1 0x20 DUP5 DUP8 ADD ADD GT ISZERO PUSH2 0x4E20 JUMPI PUSH1 0x0 DUP1 REVERT JUMPDEST DUP3 PUSH1 0x20 DUP7 ADD PUSH1 0x20 DUP4 ADD CALLDATACOPY PUSH1 0x0 PUSH1 0x20 DUP5 DUP4 ADD ADD MSTORE DUP1 SWAP6 POP POP POP POP POP POP SWAP3 POP SWAP3 SWAP1 POP JUMP JUMPDEST PUSH1 0x0 DUP1 PUSH1 0x0 DUP1 PUSH1 0x80 DUP6 DUP8 SUB SLT ISZERO PUSH2 0x4E58 JUMPI PUSH1 0x0 DUP1 REVERT JUMPDEST DUP5 CALLDATALOAD SWAP4 POP PUSH1 0x20 DUP6 ADD CALLDATALOAD SWAP3 POP PUSH1 0x40 DUP6 ADD CALLDATALOAD SWAP2 POP PUSH1 0x60 DUP6 ADD CALLDATALOAD PUSH2 0x4E78 DUP2 PUSH2 0x4BB7 JUMP JUMPDEST SWAP4 SWAP7 SWAP3 SWAP6 POP SWAP1 SWAP4 POP POP JUMP JUMPDEST PUSH1 0x0 DUP1 PUSH1 0x0 PUSH1 0x60 DUP5 DUP7 SUB SLT ISZERO PUSH2 0x4E98 JUMPI PUSH1 0x0 DUP1 REVERT JUMPDEST PUSH2 0x4EA1 DUP5 PUSH2 0x4BA1 JUMP JUMPDEST SWAP6 PUSH1 0x20 DUP6 ADD CALLDATALOAD SWAP6 POP PUSH1 0x40 SWAP1 SWAP5 ADD CALLDATALOAD SWAP4 SWAP3 POP POP POP JUMP JUMPDEST PUSH1 0x0 DUP1 PUSH1 0x40 DUP4 DUP6 SUB SLT ISZERO PUSH2 0x4EC9 JUMPI PUSH1 0x0 DUP1 REVERT JUMPDEST DUP3 CALLDATALOAD SWAP2 POP PUSH1 0x20 DUP4 ADD CALLDATALOAD PUSH2 0x4EDB DUP2 PUSH2 0x4BB7 JUMP JUMPDEST DUP1 SWAP2 POP POP SWAP3 POP SWAP3 SWAP1 POP JUMP JUMPDEST PUSH1 0x0 DUP1 PUSH1 0x40 DUP4 DUP6 SUB SLT ISZERO PUSH2 0x4EF9 JUMPI PUSH1 0x0 DUP1 REVERT JUMPDEST POP POP DUP1 CALLDATALOAD SWAP3 PUSH1 0x20 SWAP1 SWAP2 ADD CALLDATALOAD SWAP2 POP JUMP JUMPDEST PUSH1 0x0 DUP1 PUSH1 0x0 DUP1 PUSH1 0x80 DUP6 DUP8 SUB SLT ISZERO PUSH2 0x4F1E JUMPI PUSH1 0x0 DUP1 REVERT JUMPDEST PUSH2 0x4F27 DUP6 PUSH2 0x4BA1 JUMP JUMPDEST SWAP4 POP PUSH1 0x20 DUP6 ADD CALLDATALOAD SWAP3 POP PUSH1 0x40 DUP6 ADD CALLDATALOAD SWAP2 POP PUSH1 0x60 DUP6 ADD CALLDATALOAD PUSH2 0x4E78 DUP2 PUSH2 0x4BB7 JUMP JUMPDEST PUSH1 0x0 DUP1 PUSH1 0x40 DUP4 DUP6 SUB SLT ISZERO PUSH2 0x4F58 JUMPI PUSH1 0x0 DUP1 REVERT JUMPDEST PUSH2 0x4F61 DUP4 PUSH2 0x4BA1 JUMP JUMPDEST SWAP5 PUSH1 0x20 SWAP4 SWAP1 SWAP4 ADD CALLDATALOAD SWAP4 POP POP POP JUMP JUMPDEST PUSH1 0x0 DUP1 PUSH1 0x0 DUP1 PUSH1 0x0 PUSH1 0xA0 DUP7 DUP9 SUB SLT ISZERO PUSH2 0x4F87 JUMPI PUSH1 0x0 DUP1 REVERT JUMPDEST DUP6 CALLDATALOAD SWAP5 POP PUSH1 0x20 DUP7 ADD CALLDATALOAD SWAP4 POP PUSH1 0x40 DUP7 ADD CALLDATALOAD SWAP3 POP PUSH1 0x60 DUP7 ADD CALLDATALOAD SWAP2 POP PUSH1 0x80 DUP7 ADD CALLDATALOAD PUSH2 0x4C19 DUP2 PUSH2 0x4BB7 JUMP JUMPDEST PUSH1 0x0 PUSH1 0xE0 DUP3 DUP5 SUB SLT ISZERO PUSH2 0x4C3A JUMPI PUSH1 0x0 DUP1 REVERT JUMPDEST PUSH1 0x0 DUP1 PUSH1 0x0 PUSH1 0x60 DUP5 DUP7 SUB SLT ISZERO PUSH2 0x4FD5 JUMPI PUSH1 0x0 DUP1 REVERT JUMPDEST DUP4 CALLDATALOAD SWAP3 POP PUSH1 0x20 DUP5 ADD CALLDATALOAD SWAP2 POP PUSH1 0x40 DUP5 ADD CALLDATALOAD PUSH2 0x4D5D DUP2 PUSH2 0x4BB7 JUMP JUMPDEST PUSH4 0x4E487B71 PUSH1 0xE0 SHL PUSH1 0x0 MSTORE PUSH1 0x11 PUSH1 0x4 MSTORE PUSH1 0x24 PUSH1 0x0 REVERT JUMPDEST DUP1 DUP3 ADD DUP1 DUP3 GT ISZERO PUSH2 0x13B9 JUMPI PUSH2 0x13B9 PUSH2 0x4FEE JUMP JUMPDEST PUSH1 0x20 DUP1 DUP3 MSTORE PUSH1 0x2C SWAP1 DUP3 ADD MSTORE PUSH32 0x46756E6374696F6E206D7573742062652063616C6C6564207468726F75676820 PUSH1 0x40 DUP3 ADD MSTORE PUSH12 0x19195B1959D85D1958D85B1B PUSH1 0xA2 SHL PUSH1 0x60 DUP3 ADD MSTORE PUSH1 0x80 ADD SWAP1 JUMP JUMPDEST PUSH1 0x20 DUP1 DUP3 MSTORE PUSH1 0x2C SWAP1 DUP3 ADD MSTORE PUSH32 0x46756E6374696F6E206D7573742062652063616C6C6564207468726F75676820 PUSH1 0x40 DUP3 ADD MSTORE PUSH12 0x6163746976652070726F7879 PUSH1 0xA0 SHL PUSH1 0x60 DUP3 ADD MSTORE PUSH1 0x80 ADD SWAP1 JUMP JUMPDEST PUSH1 0x0 DUP3 PUSH2 0x50CC JUMPI PUSH4 0x4E487B71 PUSH1 0xE0 SHL PUSH1 0x0 MSTORE PUSH1 0x12 PUSH1 0x4 MSTORE PUSH1 0x24 PUSH1 0x0 REVERT JUMPDEST POP DIV SWAP1 JUMP JUMPDEST PUSH4 0x4E487B71 PUSH1 0xE0 SHL PUSH1 0x0 MSTORE PUSH1 0x32 PUSH1 0x4 MSTORE PUSH1 0x24 PUSH1 0x0 REVERT JUMPDEST PUSH1 0x0 DUP1 PUSH1 0x40 DUP4 DUP6 SUB SLT ISZERO PUSH2 0x50FA JUMPI PUSH1 0x0 DUP1 REVERT JUMPDEST DUP3 MLOAD SWAP2 POP PUSH1 0x20 DUP4 ADD MLOAD PUSH2 0x4EDB DUP2 PUSH2 0x4CFD JUMP JUMPDEST PUSH1 0x0 PUSH1 0x20 DUP3 DUP5 SUB SLT ISZERO PUSH2 0x511E JUMPI PUSH1 0x0 DUP1 REVERT JUMPDEST DUP2 MLOAD PUSH2 0x12D5 DUP2 PUSH2 0x4CFD JUMP JUMPDEST PUSH1 0xE0 DUP2 ADD DUP3 CALLDATALOAD PUSH2 0x5138 DUP2 PUSH2 0x4BB7 JUMP JUMPDEST PUSH1 0x1 PUSH1 0x1 PUSH1 0xA0 SHL SUB SWAP1 DUP2 AND DUP4 MSTORE PUSH1 0x20 DUP5 ADD CALLDATALOAD SWAP1 PUSH2 0x5154 DUP3 PUSH2 0x4BB7 JUMP JUMPDEST DUP1 DUP3 AND PUSH1 0x20 DUP6 ADD MSTORE POP POP PUSH1 0x40 DUP4 ADD CALLDATALOAD PUSH1 0x40 DUP4 ADD MSTORE PUSH1 0x60 DUP4 ADD CALLDATALOAD PUSH1 0x60 DUP4 ADD MSTORE PUSH1 0x80 DUP4 ADD CALLDATALOAD PUSH1 0x80 DUP4 ADD MSTORE PUSH1 0xA0 DUP4 ADD CALLDATALOAD PUSH1 0xA0 DUP4 ADD MSTORE PUSH1 0xC0 DUP4 ADD CALLDATALOAD PUSH1 0xC0 DUP4 ADD MSTORE SWAP3 SWAP2 POP POP JUMP JUMPDEST DUP2 DUP2 SUB DUP2 DUP2 GT ISZERO PUSH2 0x13B9 JUMPI PUSH2 0x13B9 PUSH2 0x4FEE JUMP JUMPDEST DUP1 DUP3 MUL DUP2 ISZERO DUP3 DUP3 DIV DUP5 EQ OR PUSH2 0x13B9 JUMPI PUSH2 0x13B9 PUSH2 0x4FEE JUMP JUMPDEST PUSH1 0x20 DUP1 DUP3 MSTORE PUSH1 0x2B SWAP1 DUP3 ADD MSTORE PUSH32 0x496E697469616C697A61626C653A20636F6E7472616374206973206E6F742069 PUSH1 0x40 DUP3 ADD MSTORE PUSH11 0x6E697469616C697A696E67 PUSH1 0xA8 SHL PUSH1 0x60 DUP3 ADD MSTORE PUSH1 0x80 ADD SWAP1 JUMP JUMPDEST PUSH1 0x0 PUSH1 0x20 DUP3 DUP5 SUB SLT ISZERO PUSH2 0x521D JUMPI PUSH1 0x0 DUP1 REVERT JUMPDEST POP MLOAD SWAP2 SWAP1 POP JUMP JUMPDEST DUP1 DUP3 ADD DUP3 DUP2 SLT PUSH1 0x0 DUP4 SLT DUP1 ISZERO DUP3 AND DUP3 ISZERO DUP3 AND OR ISZERO PUSH2 0x5244 JUMPI PUSH2 0x5244 PUSH2 0x4FEE JUMP JUMPDEST POP POP SWAP3 SWAP2 POP POP JUMP JUMPDEST PUSH1 0x0 PUSH1 0x40 DUP3 ADD DUP5 DUP4 MSTORE PUSH1 0x20 PUSH1 0x40 DUP2 DUP6 ADD MSTORE DUP2 DUP6 MLOAD DUP1 DUP5 MSTORE PUSH1 0x60 DUP7 ADD SWAP2 POP DUP3 DUP8 ADD SWAP4 POP PUSH1 0x0 JUMPDEST DUP2 DUP2 LT ISZERO PUSH2 0x528D JUMPI DUP5 MLOAD DUP4 MSTORE SWAP4 DUP4 ADD SWAP4 SWAP2 DUP4 ADD SWAP2 PUSH1 0x1 ADD PUSH2 0x5271 JUMP JUMPDEST POP SWAP1 SWAP8 SWAP7 POP POP POP POP POP POP POP JUMP JUMPDEST DUP2 DUP2 SUB PUSH1 0x0 DUP4 SLT DUP1 ISZERO DUP4 DUP4 SGT AND DUP4 DUP4 SLT DUP3 AND OR ISZERO PUSH2 0x52BA JUMPI PUSH2 0x52BA PUSH2 0x4FEE JUMP JUMPDEST POP SWAP3 SWAP2 POP POP JUMP JUMPDEST PUSH1 0x0 JUMPDEST DUP4 DUP2 LT ISZERO PUSH2 0x52DC JUMPI DUP2 DUP2 ADD MLOAD DUP4 DUP3 ADD MSTORE PUSH1 0x20 ADD PUSH2 0x52C4 JUMP JUMPDEST POP POP PUSH1 0x0 SWAP2 ADD MSTORE JUMP JUMPDEST PUSH1 0x0 DUP3 MLOAD PUSH2 0x52F7 DUP2 DUP5 PUSH1 0x20 DUP8 ADD PUSH2 0x52C1 JUMP JUMPDEST SWAP2 SWAP1 SWAP2 ADD SWAP3 SWAP2 POP POP JUMP JUMPDEST PUSH1 0x20 DUP2 MSTORE PUSH1 0x0 DUP3 MLOAD DUP1 PUSH1 0x20 DUP5 ADD MSTORE PUSH2 0x5320 DUP2 PUSH1 0x40 DUP6 ADD PUSH1 0x20 DUP8 ADD PUSH2 0x52C1 JUMP JUMPDEST PUSH1 0x1F ADD PUSH1 0x1F NOT AND SWAP2 SWAP1 SWAP2 ADD PUSH1 0x40 ADD SWAP3 SWAP2 POP POP JUMP INVALID CALLDATASIZE ADDMOD SWAP5 LOG1 EXTCODESIZE LOG1 LOG3 0x21 MOD PUSH8 0xC828492DB98DCA3E KECCAK256 PUSH23 0xCC3735A920A3CA505D382BBC416464726573733A206C6F PUSH24 0x2D6C6576656C2064656C65676174652063616C6C20666169 PUSH13 0x6564A2646970667358221220DB CALLVALUE COINBASE MSIZE DUP15 STATICCALL SELFBALANCE CALLVALUE SIGNEXTEND 0x2A DUP3 PUSH24 0xDBBEC0EC36348817AA8938A13AC8C179023775A664736F6C PUSH4 0x43000811 STOP CALLER "
    },
    "gasEstimates": {
      "creation": {
        "codeDepositCost": "4285000",
        "executionCost": "infinite",
        "totalCost": "infinite"
      },
      "external": {
        "addPeggedToken((address,address,uint256,uint256,uint256,uint256,uint256))": "infinite",
        "appreciationFactor()": "2405",
        "bes()": "2474",
        "bns()": "2474",
        "calcCtargemaCA()": "infinite",
        "changeGovernor(address)": "infinite",
        "editPeggedToken((address,address,uint256,uint256,uint256,uint256,uint256))": "infinite",
        "emaCalculationBlockSpan()": "2407",
        "evalLiquidation()": "infinite",
        "execSettlement()": "infinite",
        "feeRetainer()": "2385",
        "getBts()": "4691",
        "getCglb()": "infinite",
        "getCustomMockValue()": "4646",
        "getLeverageTC()": "infinite",
        "getPACtp(uint256)": "infinite",
        "getPTCac()": "infinite",
        "getQACforRedeemTP(uint256,uint256)": "infinite",
        "getTCAvailableToRedeem()": "infinite",
        "getTPAvailableToMint(uint256)": "infinite",
        "getTotalACavailable()": "infinite",
        "governor()": "2462",
        "initialize(((address,address,address,uint256,uint256,uint256,uint256,uint256,uint256,uint256,uint256,uint256,uint256,uint256,uint256),address,address,uint256,uint256))": "infinite",
        "initializeMock()": "22328",
        "isLiquidationReached()": "infinite",
        "liqEnabled()": "2465",
        "liqRedeemTP(uint256)": "infinite",
        "liqRedeemTPto(uint256,address)": "infinite",
        "liqThrld()": "2407",
        "liquidated()": "2456",
        "makeStoppable()": "infinite",
        "makeUnstoppable()": "infinite",
        "mintTC(uint256)": "infinite",
        "mintTCandTP(uint8,uint256)": "infinite",
        "mintTCandTPFee()": "2474",
        "mintTCandTPto(uint8,uint256,address)": "infinite",
        "mintTCto(uint256,address)": "infinite",
        "mintTP(uint8,uint256)": "infinite",
        "mintTPto(uint8,uint256,address)": "infinite",
        "mocAppreciationBeneficiaryAddress()": "2394",
        "mocFeeFlowAddress()": "2460",
        "nACcb()": "2428",
        "nTCcb()": "2363",
        "newVariable()": "2429",
        "nextEmaCalculation()": "2453",
        "pause()": "31961",
        "paused()": "2471",
        "pauser()": "2405",
        "pegContainer(uint256)": "6921",
        "peggedTokenIndex(address)": "4813",
        "protThrld()": "2450",
        "proxiableUUID()": "infinite",
        "redeemTC(uint256,uint256)": "infinite",
        "redeemTCandTP(uint256,uint256,uint256,uint256)": "infinite",
        "redeemTCandTPFee()": "2383",
        "redeemTCandTPto(uint256,uint256,uint256,uint256,address)": "infinite",
        "redeemTCto(uint256,uint256,address)": "infinite",
        "redeemTP(uint256,uint256,uint256)": "infinite",
        "redeemTPto(uint256,uint256,uint256,address)": "infinite",
        "setAppreciationFactor(uint256)": "infinite",
        "setBes(uint256)": "infinite",
        "setEmaCalculationBlockSpan(uint256)": "infinite",
        "setFeeRetainer(uint256)": "infinite",
        "setLiqEnabled(bool)": "infinite",
        "setLiqThrld(uint256)": "infinite",
        "setMintTCandTPFee(uint256)": "infinite",
        "setMocAppreciationBeneficiaryAddress(address)": "infinite",
        "setMocFeeFlowAddress(address)": "infinite",
        "setPauser(address)": "infinite",
        "setProtThrld(uint256)": "infinite",
        "setRedeemTCandTPFee(uint256)": "infinite",
        "setSuccessFee(uint256)": "infinite",
        "setSwapTCforTPFee(uint256)": "infinite",
        "setSwapTPforTCFee(uint256)": "infinite",
        "setSwapTPforTPFee(uint256)": "infinite",
        "setTcMintFee(uint256)": "infinite",
        "setTcRedeemFee(uint256)": "infinite",
        "shouldCalculateEma()": "2396",
        "stoppable()": "2466",
        "successFee()": "2386",
        "swapTCforTP(uint8,uint256,uint256)": "infinite",
        "swapTCforTPFee()": "2474",
        "swapTCforTPto(uint8,uint256,uint256,address)": "infinite",
        "swapTPforTC(uint8,uint256,uint256)": "infinite",
        "swapTPforTCFee()": "2385",
        "swapTPforTCto(uint8,uint256,uint256,address)": "infinite",
        "swapTPforTP(uint8,uint8,uint256,uint256)": "infinite",
        "swapTPforTPFee()": "2430",
        "swapTPforTPto(uint8,uint8,uint256,uint256,address)": "infinite",
        "tcMintFee()": "2449",
        "tcRedeemFee()": "2407",
        "tcToken()": "2438",
        "tpCtarg(uint256)": "4753",
        "tpEma(uint256)": "6864",
        "tpMintFee(uint256)": "4730",
        "tpRedeemFee(uint256)": "4731",
        "tpTokens(uint256)": "4695",
        "unpause()": "29795",
        "updateEmas()": "infinite",
        "upgradeTo(address)": "infinite",
        "upgradeToAndCall(address,bytes)": "infinite"
      }
    },
    "methodIdentifiers": {
      "addPeggedToken((address,address,uint256,uint256,uint256,uint256,uint256))": "db796072",
      "appreciationFactor()": "fa6e83bd",
      "bes()": "4d977e78",
      "bns()": "1867e2f5",
      "calcCtargemaCA()": "662013f4",
      "changeGovernor(address)": "e4c0aaf4",
      "editPeggedToken((address,address,uint256,uint256,uint256,uint256,uint256))": "f26114aa",
      "emaCalculationBlockSpan()": "7a727fe8",
      "evalLiquidation()": "33421c38",
      "execSettlement()": "5c616a73",
      "feeRetainer()": "4f0f27ee",
      "getBts()": "e8859a15",
      "getCglb()": "826fcd58",
      "getCustomMockValue()": "57271f4d",
      "getLeverageTC()": "c039cc69",
      "getPACtp(uint256)": "904aa85b",
      "getPTCac()": "1fb0dda0",
      "getQACforRedeemTP(uint256,uint256)": "7820a328",
      "getTCAvailableToRedeem()": "4017936a",
      "getTPAvailableToMint(uint256)": "fa79589e",
      "getTotalACavailable()": "de8d520a",
      "governor()": "0c340a24",
      "initialize(((address,address,address,uint256,uint256,uint256,uint256,uint256,uint256,uint256,uint256,uint256,uint256,uint256,uint256),address,address,uint256,uint256))": "0caebe43",
      "initializeMock()": "5e2a6065",
      "isLiquidationReached()": "9ad6659d",
      "liqEnabled()": "e7c25978",
      "liqRedeemTP(uint256)": "9195c85b",
      "liqRedeemTPto(uint256,address)": "5d65d045",
      "liqThrld()": "8cfa4241",
      "liquidated()": "23b98cde",
      "makeStoppable()": "68274357",
      "makeUnstoppable()": "5210570c",
      "mintTC(uint256)": "31f64ec2",
      "mintTCandTP(uint8,uint256)": "cf1cec40",
      "mintTCandTPFee()": "79f9a91c",
      "mintTCandTPto(uint8,uint256,address)": "685b0434",
      "mintTCto(uint256,address)": "b3903b39",
      "mintTP(uint8,uint256)": "91c59287",
      "mintTPto(uint8,uint256,address)": "383e1ead",
      "mocAppreciationBeneficiaryAddress()": "4e1f907a",
      "mocFeeFlowAddress()": "9853c35a",
      "nACcb()": "f30b5614",
      "nTCcb()": "7a193c31",
      "newVariable()": "8d7a72f3",
      "nextEmaCalculation()": "0c36d897",
      "pause()": "8456cb59",
      "paused()": "5c975abb",
      "pauser()": "9fd0506d",
      "pegContainer(uint256)": "4b746001",
      "peggedTokenIndex(address)": "9cabfc00",
      "protThrld()": "6b5488df",
      "proxiableUUID()": "52d1902d",
      "redeemTC(uint256,uint256)": "9abb14c9",
      "redeemTCandTP(uint256,uint256,uint256,uint256)": "17574bc5",
      "redeemTCandTPFee()": "f375cfba",
      "redeemTCandTPto(uint256,uint256,uint256,uint256,address)": "9bdd7cce",
      "redeemTCto(uint256,uint256,address)": "e4012945",
      "redeemTP(uint256,uint256,uint256)": "17df0ab8",
      "redeemTPto(uint256,uint256,uint256,address)": "54a73c62",
      "setAppreciationFactor(uint256)": "01dde6ef",
      "setBes(uint256)": "c84353c9",
      "setEmaCalculationBlockSpan(uint256)": "3bc4ac0a",
      "setFeeRetainer(uint256)": "7750ba0c",
      "setLiqEnabled(bool)": "1fe6a7ad",
      "setLiqThrld(uint256)": "2c43bd3b",
      "setMintTCandTPFee(uint256)": "2069f753",
      "setMocAppreciationBeneficiaryAddress(address)": "27eab2a1",
      "setMocFeeFlowAddress(address)": "0d6ac463",
      "setPauser(address)": "2d88af4a",
      "setProtThrld(uint256)": "7cba2383",
      "setRedeemTCandTPFee(uint256)": "7a4ff1d9",
      "setSuccessFee(uint256)": "becaca6b",
      "setSwapTCforTPFee(uint256)": "7af5758c",
      "setSwapTPforTCFee(uint256)": "0e0a8fd2",
      "setSwapTPforTPFee(uint256)": "70713468",
      "setTcMintFee(uint256)": "f2808778",
      "setTcRedeemFee(uint256)": "c00f538d",
      "shouldCalculateEma()": "a8e9ac30",
      "stoppable()": "bb4872de",
      "successFee()": "7554fffd",
      "swapTCforTP(uint8,uint256,uint256)": "68de913a",
      "swapTCforTPFee()": "2a20d57d",
      "swapTCforTPto(uint8,uint256,uint256,address)": "97e922e7",
      "swapTPforTC(uint8,uint256,uint256)": "5852daea",
      "swapTPforTCFee()": "333431fd",
      "swapTPforTCto(uint8,uint256,uint256,address)": "78a2fd46",
      "swapTPforTP(uint8,uint8,uint256,uint256)": "1820506f",
      "swapTPforTPFee()": "407f0e34",
      "swapTPforTPto(uint8,uint8,uint256,uint256,address)": "04a527d8",
      "tcMintFee()": "fda70f8b",
      "tcRedeemFee()": "aea038dc",
      "tcToken()": "60009e0b",
      "tpCtarg(uint256)": "7d8e0314",
      "tpEma(uint256)": "e6b1627c",
      "tpMintFee(uint256)": "de08160f",
      "tpRedeemFee(uint256)": "5241271c",
      "tpTokens(uint256)": "01f1b684",
      "unpause()": "3f4ba83a",
      "updateEmas()": "d1a0faa0",
      "upgradeTo(address)": "3659cfe6",
      "upgradeToAndCall(address,bytes)": "4f1ef286"
    }
  },
  "storageLayout": {
    "storage": [
      {
        "astId": 974,
        "contract": "contracts/mocks/upgradeability/MocUpgradeMocks.sol:MocCoinbaseMock",
        "label": "_initialized",
        "offset": 0,
        "slot": "0",
        "type": "t_uint8"
      },
      {
        "astId": 977,
        "contract": "contracts/mocks/upgradeability/MocUpgradeMocks.sol:MocCoinbaseMock",
        "label": "_initializing",
        "offset": 1,
        "slot": "0",
        "type": "t_bool"
      },
      {
        "astId": 956,
        "contract": "contracts/mocks/upgradeability/MocUpgradeMocks.sol:MocCoinbaseMock",
        "label": "__gap",
        "offset": 0,
        "slot": "1",
        "type": "t_array(t_uint256)50_storage"
      },
      {
        "astId": 1271,
        "contract": "contracts/mocks/upgradeability/MocUpgradeMocks.sol:MocCoinbaseMock",
        "label": "__gap",
        "offset": 0,
        "slot": "51",
        "type": "t_array(t_uint256)50_storage"
      },
      {
        "astId": 18090,
        "contract": "contracts/mocks/upgradeability/MocUpgradeMocks.sol:MocCoinbaseMock",
        "label": "__gap",
        "offset": 0,
        "slot": "101",
        "type": "t_array(t_uint256)50_storage"
      },
      {
        "astId": 16410,
        "contract": "contracts/mocks/upgradeability/MocUpgradeMocks.sol:MocCoinbaseMock",
        "label": "governor",
        "offset": 0,
        "slot": "151",
        "type": "t_contract(IGovernor)17140"
      },
      {
        "astId": 16481,
        "contract": "contracts/mocks/upgradeability/MocUpgradeMocks.sol:MocCoinbaseMock",
        "label": "__gap",
        "offset": 0,
        "slot": "152",
        "type": "t_array(t_uint256)50_storage"
      },
      {
        "astId": 16545,
        "contract": "contracts/mocks/upgradeability/MocUpgradeMocks.sol:MocCoinbaseMock",
        "label": "stoppable",
        "offset": 0,
        "slot": "202",
        "type": "t_bool"
      },
      {
        "astId": 16547,
        "contract": "contracts/mocks/upgradeability/MocUpgradeMocks.sol:MocCoinbaseMock",
        "label": "_paused",
        "offset": 1,
        "slot": "202",
        "type": "t_bool"
      },
      {
        "astId": 16549,
        "contract": "contracts/mocks/upgradeability/MocUpgradeMocks.sol:MocCoinbaseMock",
        "label": "pauser",
        "offset": 2,
        "slot": "202",
        "type": "t_address"
      },
      {
        "astId": 16708,
        "contract": "contracts/mocks/upgradeability/MocUpgradeMocks.sol:MocCoinbaseMock",
        "label": "__gap",
        "offset": 0,
        "slot": "203",
        "type": "t_array(t_uint256)50_storage"
      },
      {
        "astId": 16528,
        "contract": "contracts/mocks/upgradeability/MocUpgradeMocks.sol:MocCoinbaseMock",
        "label": "__gap",
        "offset": 0,
        "slot": "253",
        "type": "t_array(t_uint256)50_storage"
      },
      {
        "astId": 9635,
        "contract": "contracts/mocks/upgradeability/MocUpgradeMocks.sol:MocCoinbaseMock",
        "label": "nACcb",
        "offset": 0,
        "slot": "303",
        "type": "t_uint256"
      },
      {
        "astId": 9637,
        "contract": "contracts/mocks/upgradeability/MocUpgradeMocks.sol:MocCoinbaseMock",
        "label": "nACioucb",
        "offset": 0,
        "slot": "304",
        "type": "t_uint256"
      },
      {
        "astId": 9640,
        "contract": "contracts/mocks/upgradeability/MocUpgradeMocks.sol:MocCoinbaseMock",
        "label": "tcToken",
        "offset": 0,
        "slot": "305",
        "type": "t_contract(MocTC)17997"
      },
      {
        "astId": 9642,
        "contract": "contracts/mocks/upgradeability/MocUpgradeMocks.sol:MocCoinbaseMock",
        "label": "nTCcb",
        "offset": 0,
        "slot": "306",
        "type": "t_uint256"
      },
      {
        "astId": 9646,
        "contract": "contracts/mocks/upgradeability/MocUpgradeMocks.sol:MocCoinbaseMock",
        "label": "tpTokens",
        "offset": 0,
        "slot": "307",
        "type": "t_array(t_contract(IMocRC20)17171)dyn_storage"
      },
      {
        "astId": 9651,
        "contract": "contracts/mocks/upgradeability/MocUpgradeMocks.sol:MocCoinbaseMock",
        "label": "peggedTokenIndex",
        "offset": 0,
        "slot": "308",
        "type": "t_mapping(t_address,t_struct(PeggedTokenIndex)9602_storage)"
      },
      {
        "astId": 9655,
        "contract": "contracts/mocks/upgradeability/MocUpgradeMocks.sol:MocCoinbaseMock",
        "label": "pegContainer",
        "offset": 0,
        "slot": "309",
        "type": "t_array(t_struct(PegContainerItem)9597_storage)dyn_storage"
      },
      {
        "astId": 9658,
        "contract": "contracts/mocks/upgradeability/MocUpgradeMocks.sol:MocCoinbaseMock",
        "label": "tpLiqPrices",
        "offset": 0,
        "slot": "310",
        "type": "t_array(t_uint256)dyn_storage"
      },
      {
        "astId": 9660,
        "contract": "contracts/mocks/upgradeability/MocUpgradeMocks.sol:MocCoinbaseMock",
        "label": "successFee",
        "offset": 0,
        "slot": "311",
        "type": "t_uint256"
      },
      {
        "astId": 9662,
        "contract": "contracts/mocks/upgradeability/MocUpgradeMocks.sol:MocCoinbaseMock",
        "label": "appreciationFactor",
        "offset": 0,
        "slot": "312",
        "type": "t_uint256"
      },
      {
        "astId": 9664,
        "contract": "contracts/mocks/upgradeability/MocUpgradeMocks.sol:MocCoinbaseMock",
        "label": "feeRetainer",
        "offset": 0,
        "slot": "313",
        "type": "t_uint256"
      },
      {
        "astId": 9666,
        "contract": "contracts/mocks/upgradeability/MocUpgradeMocks.sol:MocCoinbaseMock",
        "label": "tcMintFee",
        "offset": 0,
        "slot": "314",
        "type": "t_uint256"
      },
      {
        "astId": 9668,
        "contract": "contracts/mocks/upgradeability/MocUpgradeMocks.sol:MocCoinbaseMock",
        "label": "tcRedeemFee",
        "offset": 0,
        "slot": "315",
        "type": "t_uint256"
      },
      {
        "astId": 9670,
        "contract": "contracts/mocks/upgradeability/MocUpgradeMocks.sol:MocCoinbaseMock",
        "label": "swapTPforTPFee",
        "offset": 0,
        "slot": "316",
        "type": "t_uint256"
      },
      {
        "astId": 9672,
        "contract": "contracts/mocks/upgradeability/MocUpgradeMocks.sol:MocCoinbaseMock",
        "label": "swapTPforTCFee",
        "offset": 0,
        "slot": "317",
        "type": "t_uint256"
      },
      {
        "astId": 9674,
        "contract": "contracts/mocks/upgradeability/MocUpgradeMocks.sol:MocCoinbaseMock",
        "label": "swapTCforTPFee",
        "offset": 0,
        "slot": "318",
        "type": "t_uint256"
      },
      {
        "astId": 9676,
        "contract": "contracts/mocks/upgradeability/MocUpgradeMocks.sol:MocCoinbaseMock",
        "label": "redeemTCandTPFee",
        "offset": 0,
        "slot": "319",
        "type": "t_uint256"
      },
      {
        "astId": 9678,
        "contract": "contracts/mocks/upgradeability/MocUpgradeMocks.sol:MocCoinbaseMock",
        "label": "mintTCandTPFee",
        "offset": 0,
        "slot": "320",
        "type": "t_uint256"
      },
      {
        "astId": 9681,
        "contract": "contracts/mocks/upgradeability/MocUpgradeMocks.sol:MocCoinbaseMock",
        "label": "tpMintFee",
        "offset": 0,
        "slot": "321",
        "type": "t_array(t_uint256)dyn_storage"
      },
      {
        "astId": 9684,
        "contract": "contracts/mocks/upgradeability/MocUpgradeMocks.sol:MocCoinbaseMock",
        "label": "tpRedeemFee",
        "offset": 0,
        "slot": "322",
        "type": "t_array(t_uint256)dyn_storage"
      },
      {
        "astId": 9686,
        "contract": "contracts/mocks/upgradeability/MocUpgradeMocks.sol:MocCoinbaseMock",
        "label": "mocFeeFlowAddress",
        "offset": 0,
        "slot": "323",
        "type": "t_address"
      },
      {
        "astId": 9688,
        "contract": "contracts/mocks/upgradeability/MocUpgradeMocks.sol:MocCoinbaseMock",
        "label": "mocAppreciationBeneficiaryAddress",
        "offset": 0,
        "slot": "324",
        "type": "t_address"
      },
      {
        "astId": 9691,
        "contract": "contracts/mocks/upgradeability/MocUpgradeMocks.sol:MocCoinbaseMock",
        "label": "tpCtarg",
        "offset": 0,
        "slot": "325",
        "type": "t_array(t_uint256)dyn_storage"
      },
      {
        "astId": 9693,
        "contract": "contracts/mocks/upgradeability/MocUpgradeMocks.sol:MocCoinbaseMock",
        "label": "protThrld",
        "offset": 0,
        "slot": "326",
        "type": "t_uint256"
      },
      {
        "astId": 9695,
        "contract": "contracts/mocks/upgradeability/MocUpgradeMocks.sol:MocCoinbaseMock",
        "label": "liqThrld",
        "offset": 0,
        "slot": "327",
        "type": "t_uint256"
      },
      {
        "astId": 9697,
        "contract": "contracts/mocks/upgradeability/MocUpgradeMocks.sol:MocCoinbaseMock",
        "label": "liqEnabled",
        "offset": 0,
        "slot": "328",
        "type": "t_bool"
      },
      {
        "astId": 9699,
        "contract": "contracts/mocks/upgradeability/MocUpgradeMocks.sol:MocCoinbaseMock",
        "label": "liquidated",
        "offset": 1,
        "slot": "328",
        "type": "t_bool"
      },
      {
        "astId": 9702,
        "contract": "contracts/mocks/upgradeability/MocUpgradeMocks.sol:MocCoinbaseMock",
        "label": "tpiou",
        "offset": 0,
        "slot": "329",
        "type": "t_array(t_int256)dyn_storage"
      },
      {
        "astId": 9705,
        "contract": "contracts/mocks/upgradeability/MocUpgradeMocks.sol:MocCoinbaseMock",
        "label": "pACtpLstop",
        "offset": 0,
        "slot": "330",
        "type": "t_array(t_uint256)dyn_storage"
      },
      {
        "astId": 10868,
        "contract": "contracts/mocks/upgradeability/MocUpgradeMocks.sol:MocCoinbaseMock",
        "label": "__gap",
        "offset": 0,
        "slot": "331",
        "type": "t_array(t_uint256)50_storage"
      },
      {
        "astId": 13524,
        "contract": "contracts/mocks/upgradeability/MocUpgradeMocks.sol:MocCoinbaseMock",
        "label": "tpEma",
        "offset": 0,
        "slot": "381",
        "type": "t_array(t_struct(EmaItem)13520_storage)dyn_storage"
      },
      {
        "astId": 13526,
        "contract": "contracts/mocks/upgradeability/MocUpgradeMocks.sol:MocCoinbaseMock",
        "label": "nextEmaCalculation",
        "offset": 0,
        "slot": "382",
        "type": "t_uint256"
      },
      {
        "astId": 13528,
        "contract": "contracts/mocks/upgradeability/MocUpgradeMocks.sol:MocCoinbaseMock",
        "label": "emaCalculationBlockSpan",
        "offset": 0,
        "slot": "383",
        "type": "t_uint256"
      },
      {
        "astId": 13836,
        "contract": "contracts/mocks/upgradeability/MocUpgradeMocks.sol:MocCoinbaseMock",
        "label": "__gap",
        "offset": 0,
        "slot": "384",
        "type": "t_array(t_uint256)50_storage"
      },
      {
        "astId": 13847,
        "contract": "contracts/mocks/upgradeability/MocUpgradeMocks.sol:MocCoinbaseMock",
        "label": "bes",
        "offset": 0,
        "slot": "434",
        "type": "t_uint256"
      },
      {
        "astId": 13849,
        "contract": "contracts/mocks/upgradeability/MocUpgradeMocks.sol:MocCoinbaseMock",
        "label": "bns",
        "offset": 0,
        "slot": "435",
        "type": "t_uint256"
      },
      {
        "astId": 13942,
        "contract": "contracts/mocks/upgradeability/MocUpgradeMocks.sol:MocCoinbaseMock",
        "label": "__gap",
        "offset": 0,
        "slot": "436",
        "type": "t_array(t_uint256)50_storage"
      },
      {
        "astId": 13499,
        "contract": "contracts/mocks/upgradeability/MocUpgradeMocks.sol:MocCoinbaseMock",
        "label": "__gap",
        "offset": 0,
        "slot": "486",
        "type": "t_array(t_uint256)50_storage"
      },
      {
        "astId": 1413,
        "contract": "contracts/mocks/upgradeability/MocUpgradeMocks.sol:MocCoinbaseMock",
        "label": "_status",
        "offset": 0,
        "slot": "536",
        "type": "t_uint256"
      },
      {
        "astId": 1471,
        "contract": "contracts/mocks/upgradeability/MocUpgradeMocks.sol:MocCoinbaseMock",
        "label": "__gap",
        "offset": 0,
        "slot": "537",
        "type": "t_array(t_uint256)49_storage"
      },
      {
        "astId": 7085,
        "contract": "contracts/mocks/upgradeability/MocUpgradeMocks.sol:MocCoinbaseMock",
        "label": "__gap",
        "offset": 0,
        "slot": "586",
        "type": "t_array(t_uint256)50_storage"
      },
      {
        "astId": 17590,
        "contract": "contracts/mocks/upgradeability/MocUpgradeMocks.sol:MocCoinbaseMock",
        "label": "newVariable",
        "offset": 0,
        "slot": "636",
        "type": "t_uint256"
      }
    ],
    "types": {
      "t_address": {
        "encoding": "inplace",
        "label": "address",
        "numberOfBytes": "20"
      },
      "t_array(t_contract(IMocRC20)17171)dyn_storage": {
        "base": "t_contract(IMocRC20)17171",
        "encoding": "dynamic_array",
        "label": "contract IMocRC20[]",
        "numberOfBytes": "32"
      },
      "t_array(t_int256)dyn_storage": {
        "base": "t_int256",
        "encoding": "dynamic_array",
        "label": "int256[]",
        "numberOfBytes": "32"
      },
      "t_array(t_struct(EmaItem)13520_storage)dyn_storage": {
        "base": "t_struct(EmaItem)13520_storage",
        "encoding": "dynamic_array",
        "label": "struct MocEma.EmaItem[]",
        "numberOfBytes": "32"
      },
      "t_array(t_struct(PegContainerItem)9597_storage)dyn_storage": {
        "base": "t_struct(PegContainerItem)9597_storage",
        "encoding": "dynamic_array",
        "label": "struct MocBaseBucket.PegContainerItem[]",
        "numberOfBytes": "32"
      },
      "t_array(t_uint256)49_storage": {
        "base": "t_uint256",
        "encoding": "inplace",
        "label": "uint256[49]",
        "numberOfBytes": "1568"
      },
      "t_array(t_uint256)50_storage": {
        "base": "t_uint256",
        "encoding": "inplace",
        "label": "uint256[50]",
        "numberOfBytes": "1600"
      },
      "t_array(t_uint256)dyn_storage": {
        "base": "t_uint256",
        "encoding": "dynamic_array",
        "label": "uint256[]",
        "numberOfBytes": "32"
      },
      "t_bool": {
        "encoding": "inplace",
        "label": "bool",
        "numberOfBytes": "1"
      },
      "t_contract(IGovernor)17140": {
        "encoding": "inplace",
        "label": "contract IGovernor",
        "numberOfBytes": "20"
      },
      "t_contract(IMocRC20)17171": {
        "encoding": "inplace",
        "label": "contract IMocRC20",
        "numberOfBytes": "20"
      },
      "t_contract(IPriceProvider)17183": {
        "encoding": "inplace",
        "label": "contract IPriceProvider",
        "numberOfBytes": "20"
      },
      "t_contract(MocTC)17997": {
        "encoding": "inplace",
        "label": "contract MocTC",
        "numberOfBytes": "20"
      },
      "t_int256": {
        "encoding": "inplace",
        "label": "int256",
        "numberOfBytes": "32"
      },
      "t_mapping(t_address,t_struct(PeggedTokenIndex)9602_storage)": {
        "encoding": "mapping",
        "key": "t_address",
        "label": "mapping(address => struct MocBaseBucket.PeggedTokenIndex)",
        "numberOfBytes": "32",
        "value": "t_struct(PeggedTokenIndex)9602_storage"
      },
      "t_struct(EmaItem)13520_storage": {
        "encoding": "inplace",
        "label": "struct MocEma.EmaItem",
        "members": [
          {
            "astId": 13517,
            "contract": "contracts/mocks/upgradeability/MocUpgradeMocks.sol:MocCoinbaseMock",
            "label": "ema",
            "offset": 0,
            "slot": "0",
            "type": "t_uint256"
          },
          {
            "astId": 13519,
            "contract": "contracts/mocks/upgradeability/MocUpgradeMocks.sol:MocCoinbaseMock",
            "label": "sf",
            "offset": 0,
            "slot": "1",
            "type": "t_uint256"
          }
        ],
        "numberOfBytes": "64"
      },
      "t_struct(PegContainerItem)9597_storage": {
        "encoding": "inplace",
        "label": "struct MocBaseBucket.PegContainerItem",
        "members": [
          {
            "astId": 9593,
            "contract": "contracts/mocks/upgradeability/MocUpgradeMocks.sol:MocCoinbaseMock",
            "label": "nTP",
            "offset": 0,
            "slot": "0",
            "type": "t_uint256"
          },
          {
            "astId": 9596,
            "contract": "contracts/mocks/upgradeability/MocUpgradeMocks.sol:MocCoinbaseMock",
            "label": "priceProvider",
            "offset": 0,
            "slot": "1",
            "type": "t_contract(IPriceProvider)17183"
          }
        ],
        "numberOfBytes": "64"
      },
      "t_struct(PeggedTokenIndex)9602_storage": {
        "encoding": "inplace",
        "label": "struct MocBaseBucket.PeggedTokenIndex",
        "members": [
          {
            "astId": 9599,
            "contract": "contracts/mocks/upgradeability/MocUpgradeMocks.sol:MocCoinbaseMock",
            "label": "index",
            "offset": 0,
            "slot": "0",
            "type": "t_uint256"
          },
          {
            "astId": 9601,
            "contract": "contracts/mocks/upgradeability/MocUpgradeMocks.sol:MocCoinbaseMock",
            "label": "exists",
            "offset": 0,
            "slot": "1",
            "type": "t_bool"
          }
        ],
        "numberOfBytes": "64"
      },
      "t_uint256": {
        "encoding": "inplace",
        "label": "uint256",
        "numberOfBytes": "32"
      },
      "t_uint8": {
        "encoding": "inplace",
        "label": "uint8",
        "numberOfBytes": "1"
      }
    }
  },
  "userdoc": {
    "kind": "user",
    "methods": {
      "addPeggedToken((address,address,uint256,uint256,uint256,uint256,uint256))": {
        "notice": "add a Pegged Token to the protocol"
      },
      "calcCtargemaCA()": {
        "notice": "calculates target coverage adjusted by all Pegged Token's to Collateral Asset rate moving average"
      },
      "changeGovernor(address)": {
        "notice": "Change the contract's governor. Should be called through the old governance system"
      },
      "editPeggedToken((address,address,uint256,uint256,uint256,uint256,uint256))": {
        "notice": "modifies a Pegged Token of the protocol"
      },
      "evalLiquidation()": {
        "notice": "evaluates if liquidation threshold has been reached and liq is Enabled. If so forces contracts liquidation, blocking all mint & redeem operations. May emit a {ContractLiquidated} event."
      },
      "getBts()": {
        "notice": "get the number of blocks remaining for settlement"
      },
      "getCglb()": {
        "notice": "get bucket global coverage"
      },
      "getLeverageTC()": {
        "notice": "get Collateral Token leverage"
      },
      "getPACtp(uint256)": {
        "notice": "get how many Pegged Token equal 1 Collateral Asset"
      },
      "getPTCac()": {
        "notice": "get Collateral Token price"
      },
      "getQACforRedeemTP(uint256,uint256)": {
        "notice": "returns how many Collateral Asset are needed to redeem `qTP_` amount of Pegged Token `i_`"
      },
      "getTCAvailableToRedeem()": {
        "notice": "get amount of Collateral Token available to redeem"
      },
      "getTPAvailableToMint(uint256)": {
        "notice": "get amount of Pegged Token available to mint"
      },
      "getTotalACavailable()": {
        "notice": "get total Collateral Asset available"
      },
      "governor()": {
        "notice": "The address of the contract which governs this one"
      },
      "initialize(((address,address,address,uint256,uint256,uint256,uint256,uint256,uint256,uint256,uint256,uint256,uint256,uint256,uint256),address,address,uint256,uint256))": {
        "notice": "contract initializer"
      },
      "isLiquidationReached()": {
        "notice": "If liquidation is enabled, verifies if forced liquidation has been reached, checking if globalCoverage <= liquidation"
      },
      "liqRedeemTP(uint256)": {
        "notice": "Allow redeem on liquidation state, user Peg balance gets burned and he receives the equivalent AC given the liquidation frozen price."
      },
      "liqRedeemTPto(uint256,address)": {
        "notice": "Allow redeem on liquidation state, user Peg balance gets burned and he receives the equivalent AC given the liquidation frozen price."
      },
      "makeStoppable()": {
        "notice": "Switches ON the stoppability of the contract; if the contract was paused before making it unstoppable it will be paused again after calling this function"
      },
      "makeUnstoppable()": {
        "notice": "Switches OFF the stoppability of the contract; if the contract was paused it will no longer be so"
      },
      "mintTC(uint256)": {
        "notice": "caller sends coinbase as Collateral Asset and receives Collateral Token"
      },
      "mintTCandTP(uint8,uint256)": {
        "notice": "caller sends coinbase as Collateral Asset and receives Collateral Token and Pegged Token  This operation is done without checking coverage  Collateral Token and Pegged Token are minted in equivalent proportions so that its price  and global coverage are not modified.  Reverts if qAC sent are insufficient."
      },
      "mintTCandTPto(uint8,uint256,address)": {
        "notice": "caller sends coinbase as Collateral Asset and recipient receives Collateral Token and Pegged Token  This operation is done without checking coverage  Collateral Token and Pegged Token are minted in equivalent proportions so that its price  and global coverage are not modified.  Reverts if qAC sent are insufficient."
      },
      "mintTCto(uint256,address)": {
        "notice": "caller sends coinbase as Collateral Asset and recipient receives Collateral Token"
      },
      "mintTP(uint8,uint256)": {
        "notice": "caller sends coinbase as Collateral Asset and receives Pegged Token"
      },
      "mintTPto(uint8,uint256,address)": {
        "notice": "caller sends coinbase as Collateral Asset and recipient receives Pegged Token"
      },
      "pause()": {
        "notice": "Called by the owner to pause, triggers stopped state"
      },
      "paused()": {
        "notice": "Returns true if paused"
      },
      "redeemTC(uint256,uint256)": {
        "notice": "caller sends Collateral Token and receives Collateral Asset"
      },
      "redeemTCandTP(uint256,uint256,uint256,uint256)": {
        "notice": "caller sends Collateral Token and Pegged Token and receives coinbase as Collateral Asset  This operation is done without checking coverage  Collateral Token and Pegged Token are redeemed in equivalent proportions so that its price  and global coverage are not modified.  Reverts if qTP sent are insufficient."
      },
      "redeemTCandTPto(uint256,uint256,uint256,uint256,address)": {
        "notice": "caller sends Collateral Token and Pegged Token and recipient receives Collateral Asset  This operation is done without checking coverage  Collateral Token and Pegged Token are redeemed in equivalent proportions so that its price  and global coverage are not modified.  Reverts if qTP sent are insufficient."
      },
      "redeemTCto(uint256,uint256,address)": {
        "notice": "caller sends Collateral Token and recipient receives Collateral Asset"
      },
      "redeemTP(uint256,uint256,uint256)": {
        "notice": "caller sends Pegged Token and receives Collateral Asset"
      },
      "redeemTPto(uint256,uint256,uint256,address)": {
        "notice": "caller sends Pegged Token and recipient receives Collateral Asset"
      },
      "setPauser(address)": {
        "notice": "Changes the address which is enable to pause this contract"
      },
      "shouldCalculateEma()": {
        "notice": "true if the necessary span has pass since last ema update"
      },
      "swapTCforTP(uint8,uint256,uint256)": {
        "notice": "caller sends Collateral Token and receives Pegged Token"
      },
      "swapTCforTPto(uint8,uint256,uint256,address)": {
        "notice": "caller sends Collateral Token and recipient receives Pegged Token"
      },
      "swapTPforTC(uint8,uint256,uint256)": {
        "notice": "caller sends a Pegged Token and receives Collateral Token"
      },
      "swapTPforTCto(uint8,uint256,uint256,address)": {
        "notice": "caller sends a Pegged Token and recipient receives Collateral Token"
      },
      "swapTPforTP(uint8,uint8,uint256,uint256)": {
        "notice": "caller sends a Pegged Token and receives another one"
      },
      "swapTPforTPto(uint8,uint8,uint256,uint256,address)": {
        "notice": "caller sends a Pegged Token and recipient receives another one"
      },
      "unpause()": {
        "notice": "Called by the owner to unpause, returns to normal state"
      },
      "updateEmas()": {
        "notice": "If time, calculates the EMA for all the Pegged Token prices."
      }
    },
    "version": 1
  }
}