{
  "contractName": "MocCoinbaseMock",
  "sourceName": "contracts/mocks/upgradeability/MocUpgradeMocks.sol",
  "abi": [
    {
      "inputs": [
        {
          "internalType": "uint256",
          "name": "qACsent_",
          "type": "uint256"
        },
        {
          "internalType": "uint256",
          "name": "qACNeeded_",
          "type": "uint256"
        }
      ],
      "name": "InsufficientQacSent",
      "type": "error"
    },
    {
      "inputs": [
        {
          "internalType": "uint256",
          "name": "qTPsent_",
          "type": "uint256"
        },
        {
          "internalType": "uint256",
          "name": "qTPNeeded_",
          "type": "uint256"
        }
      ],
      "name": "InsufficientQtpSent",
      "type": "error"
    },
    {
      "inputs": [
        {
          "internalType": "uint256",
          "name": "qTC_",
          "type": "uint256"
        },
        {
          "internalType": "uint256",
          "name": "tcAvailableToRedeem_",
          "type": "uint256"
        }
      ],
      "name": "InsufficientTCtoRedeem",
      "type": "error"
    },
    {
      "inputs": [
        {
          "internalType": "uint256",
          "name": "qTP_",
          "type": "uint256"
        },
        {
          "internalType": "uint256",
          "name": "tpAvailableToMint_",
          "type": "uint256"
        }
      ],
      "name": "InsufficientTPtoMint",
      "type": "error"
    },
    {
      "inputs": [
        {
          "internalType": "uint256",
          "name": "qTP_",
          "type": "uint256"
        },
        {
          "internalType": "uint256",
          "name": "tpAvailableToRedeem_",
          "type": "uint256"
        }
      ],
      "name": "InsufficientTPtoRedeem",
      "type": "error"
    },
    {
      "inputs": [],
      "name": "InvalidAddress",
      "type": "error"
    },
    {
      "inputs": [],
      "name": "InvalidValue",
      "type": "error"
    },
    {
      "inputs": [],
      "name": "Liquidated",
      "type": "error"
    },
    {
      "inputs": [
        {
          "internalType": "uint256",
          "name": "cglb_",
          "type": "uint256"
        },
        {
          "internalType": "uint256",
          "name": "covThrld_",
          "type": "uint256"
        }
      ],
      "name": "LowCoverage",
      "type": "error"
    },
    {
      "inputs": [],
      "name": "MissingBlocksToSettlement",
      "type": "error"
    },
    {
      "inputs": [
        {
          "internalType": "address",
          "name": "priceProviderAddress_",
          "type": "address"
        }
      ],
      "name": "MissingProviderPrice",
      "type": "error"
    },
    {
      "inputs": [],
      "name": "NotAuthorizedChanger",
      "type": "error"
    },
    {
      "inputs": [],
      "name": "NotWhenPaused",
      "type": "error"
    },
    {
      "inputs": [],
      "name": "OnlyPauser",
      "type": "error"
    },
    {
      "inputs": [],
      "name": "OnlyWhenLiquidated",
      "type": "error"
    },
    {
      "inputs": [],
      "name": "OnlyWhilePaused",
      "type": "error"
    },
    {
      "inputs": [],
      "name": "PeggedTokenAlreadyAdded",
      "type": "error"
    },
    {
      "inputs": [
        {
          "internalType": "uint256",
          "name": "qACmin_",
          "type": "uint256"
        },
        {
          "internalType": "uint256",
          "name": "qACtoRedeem_",
          "type": "uint256"
        }
      ],
      "name": "QacBelowMinimumRequired",
      "type": "error"
    },
    {
      "inputs": [],
      "name": "QacNeededMustBeGreaterThanZero",
      "type": "error"
    },
    {
      "inputs": [
        {
          "internalType": "uint256",
          "name": "qTCmin_",
          "type": "uint256"
        },
        {
          "internalType": "uint256",
          "name": "qTC_",
          "type": "uint256"
        }
      ],
      "name": "QtcBelowMinimumRequired",
      "type": "error"
    },
    {
      "inputs": [
        {
          "internalType": "uint256",
          "name": "qTPmin_",
          "type": "uint256"
        },
        {
          "internalType": "uint256",
          "name": "qTP_",
          "type": "uint256"
        }
      ],
      "name": "QtpBelowMinimumRequired",
      "type": "error"
    },
    {
      "inputs": [],
      "name": "TransferFailed",
      "type": "error"
    },
    {
      "inputs": [],
      "name": "Unstoppable",
      "type": "error"
    },
    {
      "anonymous": false,
      "inputs": [
        {
          "indexed": false,
          "internalType": "address",
          "name": "previousAdmin",
          "type": "address"
        },
        {
          "indexed": false,
          "internalType": "address",
          "name": "newAdmin",
          "type": "address"
        }
      ],
      "name": "AdminChanged",
      "type": "event"
    },
    {
      "anonymous": false,
      "inputs": [
        {
          "indexed": true,
          "internalType": "address",
          "name": "beacon",
          "type": "address"
        }
      ],
      "name": "BeaconUpgraded",
      "type": "event"
    },
    {
      "anonymous": false,
      "inputs": [],
      "name": "ContractLiquidated",
      "type": "event"
    },
    {
      "anonymous": false,
      "inputs": [
        {
          "indexed": false,
          "internalType": "uint8",
          "name": "version",
          "type": "uint8"
        }
      ],
      "name": "Initialized",
      "type": "event"
    },
    {
      "anonymous": false,
      "inputs": [
        {
          "indexed": false,
          "internalType": "address",
          "name": "account",
          "type": "address"
        }
      ],
      "name": "Paused",
      "type": "event"
    },
    {
      "anonymous": false,
      "inputs": [
        {
          "indexed": true,
          "internalType": "uint256",
          "name": "i_",
          "type": "uint256"
        },
        {
          "components": [
            {
              "internalType": "address",
              "name": "tpTokenAddress",
              "type": "address"
            },
            {
              "internalType": "address",
              "name": "priceProviderAddress",
              "type": "address"
            },
            {
              "internalType": "uint256",
              "name": "tpCtarg",
              "type": "uint256"
            },
            {
              "internalType": "uint256",
              "name": "tpMintFee",
              "type": "uint256"
            },
            {
              "internalType": "uint256",
              "name": "tpRedeemFee",
              "type": "uint256"
            },
            {
              "internalType": "uint256",
              "name": "tpEma",
              "type": "uint256"
            },
            {
              "internalType": "uint256",
              "name": "tpEmaSf",
              "type": "uint256"
            }
          ],
          "indexed": false,
          "internalType": "struct PeggedTokenParams",
          "name": "peggedTokenParams_",
          "type": "tuple"
        }
      ],
      "name": "PeggedTokenChange",
      "type": "event"
    },
    {
      "anonymous": false,
      "inputs": [],
      "name": "SettlementExecuted",
      "type": "event"
    },
    {
      "anonymous": false,
      "inputs": [
        {
          "indexed": false,
          "internalType": "uint256",
          "name": "mocGain_",
          "type": "uint256"
        },
        {
          "indexed": false,
          "internalType": "uint256[]",
          "name": "tpGain_",
          "type": "uint256[]"
        }
      ],
      "name": "SuccessFeeDistributed",
      "type": "event"
    },
    {
      "anonymous": false,
      "inputs": [
        {
          "indexed": true,
          "internalType": "address",
          "name": "sender_",
          "type": "address"
        },
        {
          "indexed": true,
          "internalType": "address",
          "name": "recipient_",
          "type": "address"
        },
        {
          "indexed": false,
          "internalType": "uint256",
          "name": "qTC_",
          "type": "uint256"
        },
        {
          "indexed": false,
          "internalType": "uint256",
          "name": "qAC_",
          "type": "uint256"
        },
        {
          "indexed": false,
          "internalType": "uint256",
          "name": "qACfee_",
          "type": "uint256"
        },
        {
          "indexed": false,
          "internalType": "uint256",
          "name": "qFeeToken_",
          "type": "uint256"
        },
        {
          "indexed": false,
          "internalType": "uint256",
          "name": "qACVendorMarkup_",
          "type": "uint256"
        },
        {
          "indexed": false,
          "internalType": "uint256",
          "name": "qFeeTokenVendorMarkup_",
          "type": "uint256"
        }
      ],
      "name": "TCMinted",
      "type": "event"
    },
    {
      "anonymous": false,
      "inputs": [
        {
          "indexed": true,
          "internalType": "address",
          "name": "sender_",
          "type": "address"
        },
        {
          "indexed": true,
          "internalType": "address",
          "name": "recipient_",
          "type": "address"
        },
        {
          "indexed": false,
          "internalType": "uint256",
          "name": "qTC_",
          "type": "uint256"
        },
        {
          "indexed": false,
          "internalType": "uint256",
          "name": "qAC_",
          "type": "uint256"
        },
        {
          "indexed": false,
          "internalType": "uint256",
          "name": "qACfee_",
          "type": "uint256"
        },
        {
          "indexed": false,
          "internalType": "uint256",
          "name": "qFeeToken_",
          "type": "uint256"
        },
        {
          "indexed": false,
          "internalType": "uint256",
          "name": "qACVendorMarkup_",
          "type": "uint256"
        },
        {
          "indexed": false,
          "internalType": "uint256",
          "name": "qFeeTokenVendorMarkup_",
          "type": "uint256"
        }
      ],
      "name": "TCRedeemed",
      "type": "event"
    },
    {
      "anonymous": false,
      "inputs": [
        {
          "indexed": true,
          "internalType": "uint256",
          "name": "i_",
          "type": "uint256"
        },
        {
          "indexed": true,
          "internalType": "address",
          "name": "sender_",
          "type": "address"
        },
        {
          "indexed": true,
          "internalType": "address",
          "name": "recipient_",
          "type": "address"
        },
        {
          "indexed": false,
          "internalType": "uint256",
          "name": "qTC_",
          "type": "uint256"
        },
        {
          "indexed": false,
          "internalType": "uint256",
          "name": "qTP_",
          "type": "uint256"
        },
        {
          "indexed": false,
          "internalType": "uint256",
          "name": "qACfee_",
          "type": "uint256"
        },
        {
          "indexed": false,
          "internalType": "uint256",
          "name": "qFeeToken_",
          "type": "uint256"
        },
        {
          "indexed": false,
          "internalType": "uint256",
          "name": "qACVendorMarkup_",
          "type": "uint256"
        },
        {
          "indexed": false,
          "internalType": "uint256",
          "name": "qFeeTokenVendorMarkup_",
          "type": "uint256"
        }
      ],
      "name": "TCSwappedForTP",
      "type": "event"
    },
    {
      "anonymous": false,
      "inputs": [
        {
          "indexed": true,
          "internalType": "uint256",
          "name": "i_",
          "type": "uint256"
        },
        {
          "indexed": true,
          "internalType": "address",
          "name": "sender_",
          "type": "address"
        },
        {
          "indexed": true,
          "internalType": "address",
          "name": "recipient_",
          "type": "address"
        },
        {
          "indexed": false,
          "internalType": "uint256",
          "name": "qTC_",
          "type": "uint256"
        },
        {
          "indexed": false,
          "internalType": "uint256",
          "name": "qTP_",
          "type": "uint256"
        },
        {
          "indexed": false,
          "internalType": "uint256",
          "name": "qAC_",
          "type": "uint256"
        },
        {
          "indexed": false,
          "internalType": "uint256",
          "name": "qACfee_",
          "type": "uint256"
        },
        {
          "indexed": false,
          "internalType": "uint256",
          "name": "qFeeToken_",
          "type": "uint256"
        },
        {
          "indexed": false,
          "internalType": "uint256",
          "name": "qACVendorMarkup_",
          "type": "uint256"
        },
        {
          "indexed": false,
          "internalType": "uint256",
          "name": "qFeeTokenVendorMarkup_",
          "type": "uint256"
        }
      ],
      "name": "TCandTPMinted",
      "type": "event"
    },
    {
      "anonymous": false,
      "inputs": [
        {
          "indexed": true,
          "internalType": "uint256",
          "name": "i_",
          "type": "uint256"
        },
        {
          "indexed": true,
          "internalType": "address",
          "name": "sender_",
          "type": "address"
        },
        {
          "indexed": true,
          "internalType": "address",
          "name": "recipient_",
          "type": "address"
        },
        {
          "indexed": false,
          "internalType": "uint256",
          "name": "qTC_",
          "type": "uint256"
        },
        {
          "indexed": false,
          "internalType": "uint256",
          "name": "qTP_",
          "type": "uint256"
        },
        {
          "indexed": false,
          "internalType": "uint256",
          "name": "qAC_",
          "type": "uint256"
        },
        {
          "indexed": false,
          "internalType": "uint256",
          "name": "qACfee_",
          "type": "uint256"
        },
        {
          "indexed": false,
          "internalType": "uint256",
          "name": "qFeeToken_",
          "type": "uint256"
        },
        {
          "indexed": false,
          "internalType": "uint256",
          "name": "qACVendorMarkup_",
          "type": "uint256"
        },
        {
          "indexed": false,
          "internalType": "uint256",
          "name": "qFeeTokenVendorMarkup_",
          "type": "uint256"
        }
      ],
      "name": "TCandTPRedeemed",
      "type": "event"
    },
    {
      "anonymous": false,
      "inputs": [
        {
          "indexed": true,
          "internalType": "uint256",
          "name": "i_",
          "type": "uint256"
        },
        {
          "indexed": true,
          "internalType": "address",
          "name": "sender_",
          "type": "address"
        },
        {
          "indexed": true,
          "internalType": "address",
          "name": "recipient_",
          "type": "address"
        },
        {
          "indexed": false,
          "internalType": "uint256",
          "name": "qTP_",
          "type": "uint256"
        },
        {
          "indexed": false,
          "internalType": "uint256",
          "name": "qAC_",
          "type": "uint256"
        },
        {
          "indexed": false,
          "internalType": "uint256",
          "name": "qACfee_",
          "type": "uint256"
        },
        {
          "indexed": false,
          "internalType": "uint256",
          "name": "qFeeToken_",
          "type": "uint256"
        },
        {
          "indexed": false,
          "internalType": "uint256",
          "name": "qACVendorMarkup_",
          "type": "uint256"
        },
        {
          "indexed": false,
          "internalType": "uint256",
          "name": "qFeeTokenVendorMarkup_",
          "type": "uint256"
        }
      ],
      "name": "TPMinted",
      "type": "event"
    },
    {
      "anonymous": false,
      "inputs": [
        {
          "indexed": true,
          "internalType": "uint256",
          "name": "i_",
          "type": "uint256"
        },
        {
          "indexed": true,
          "internalType": "address",
          "name": "sender_",
          "type": "address"
        },
        {
          "indexed": true,
          "internalType": "address",
          "name": "recipient_",
          "type": "address"
        },
        {
          "indexed": false,
          "internalType": "uint256",
          "name": "qTP_",
          "type": "uint256"
        },
        {
          "indexed": false,
          "internalType": "uint256",
          "name": "qAC_",
          "type": "uint256"
        },
        {
          "indexed": false,
          "internalType": "uint256",
          "name": "qACfee_",
          "type": "uint256"
        },
        {
          "indexed": false,
          "internalType": "uint256",
          "name": "qFeeToken_",
          "type": "uint256"
        },
        {
          "indexed": false,
          "internalType": "uint256",
          "name": "qACVendorMarkup_",
          "type": "uint256"
        },
        {
          "indexed": false,
          "internalType": "uint256",
          "name": "qFeeTokenVendorMarkup_",
          "type": "uint256"
        }
      ],
      "name": "TPRedeemed",
      "type": "event"
    },
    {
      "anonymous": false,
      "inputs": [
        {
          "indexed": true,
          "internalType": "uint256",
          "name": "i_",
          "type": "uint256"
        },
        {
          "indexed": true,
          "internalType": "address",
          "name": "sender_",
          "type": "address"
        },
        {
          "indexed": true,
          "internalType": "address",
          "name": "recipient_",
          "type": "address"
        },
        {
          "indexed": false,
          "internalType": "uint256",
          "name": "qTP_",
          "type": "uint256"
        },
        {
          "indexed": false,
          "internalType": "uint256",
          "name": "qTC_",
          "type": "uint256"
        },
        {
          "indexed": false,
          "internalType": "uint256",
          "name": "qACfee_",
          "type": "uint256"
        },
        {
          "indexed": false,
          "internalType": "uint256",
          "name": "qFeeToken_",
          "type": "uint256"
        },
        {
          "indexed": false,
          "internalType": "uint256",
          "name": "qACVendorMarkup_",
          "type": "uint256"
        },
        {
          "indexed": false,
          "internalType": "uint256",
          "name": "qFeeTokenVendorMarkup_",
          "type": "uint256"
        }
      ],
      "name": "TPSwappedForTC",
      "type": "event"
    },
    {
      "anonymous": false,
      "inputs": [
        {
          "indexed": true,
          "internalType": "uint256",
          "name": "iFrom_",
          "type": "uint256"
        },
        {
          "indexed": false,
          "internalType": "uint256",
          "name": "iTo_",
          "type": "uint256"
        },
        {
          "indexed": true,
          "internalType": "address",
          "name": "sender_",
          "type": "address"
        },
        {
          "indexed": true,
          "internalType": "address",
          "name": "recipient_",
          "type": "address"
        },
        {
          "indexed": false,
          "internalType": "uint256",
          "name": "qTPfrom_",
          "type": "uint256"
        },
        {
          "indexed": false,
          "internalType": "uint256",
          "name": "qTPto_",
          "type": "uint256"
        },
        {
          "indexed": false,
          "internalType": "uint256",
          "name": "qACfee_",
          "type": "uint256"
        },
        {
          "indexed": false,
          "internalType": "uint256",
          "name": "qFeeToken_",
          "type": "uint256"
        },
        {
          "indexed": false,
          "internalType": "uint256",
          "name": "qACVendorMarkup_",
          "type": "uint256"
        },
        {
          "indexed": false,
          "internalType": "uint256",
          "name": "qFeeTokenVendorMarkup_",
          "type": "uint256"
        }
      ],
      "name": "TPSwappedForTP",
      "type": "event"
    },
    {
      "anonymous": false,
      "inputs": [
        {
          "indexed": true,
          "internalType": "uint256",
          "name": "i_",
          "type": "uint256"
        },
        {
          "indexed": false,
          "internalType": "uint256",
          "name": "oldTPema_",
          "type": "uint256"
        },
        {
          "indexed": false,
          "internalType": "uint256",
          "name": "newTPema_",
          "type": "uint256"
        }
      ],
      "name": "TPemaUpdated",
      "type": "event"
    },
    {
      "anonymous": false,
      "inputs": [
        {
          "indexed": false,
          "internalType": "address",
          "name": "account",
          "type": "address"
        }
      ],
      "name": "Unpaused",
      "type": "event"
    },
    {
      "anonymous": false,
      "inputs": [
        {
          "indexed": true,
          "internalType": "address",
          "name": "implementation",
          "type": "address"
        }
      ],
      "name": "Upgraded",
      "type": "event"
    },
    {
      "inputs": [
        {
          "components": [
            {
              "internalType": "address",
              "name": "tpTokenAddress",
              "type": "address"
            },
            {
              "internalType": "address",
              "name": "priceProviderAddress",
              "type": "address"
            },
            {
              "internalType": "uint256",
              "name": "tpCtarg",
              "type": "uint256"
            },
            {
              "internalType": "uint256",
              "name": "tpMintFee",
              "type": "uint256"
            },
            {
              "internalType": "uint256",
              "name": "tpRedeemFee",
              "type": "uint256"
            },
            {
              "internalType": "uint256",
              "name": "tpEma",
              "type": "uint256"
            },
            {
              "internalType": "uint256",
              "name": "tpEmaSf",
              "type": "uint256"
            }
          ],
          "internalType": "struct PeggedTokenParams",
          "name": "peggedTokenParams_",
          "type": "tuple"
        }
      ],
      "name": "addPeggedToken",
      "outputs": [],
      "stateMutability": "nonpayable",
      "type": "function"
    },
    {
      "inputs": [],
      "name": "appreciationFactor",
      "outputs": [
        {
          "internalType": "uint256",
          "name": "",
          "type": "uint256"
        }
      ],
      "stateMutability": "view",
      "type": "function"
    },
    {
      "inputs": [],
      "name": "bes",
      "outputs": [
        {
          "internalType": "uint256",
          "name": "",
          "type": "uint256"
        }
      ],
      "stateMutability": "view",
      "type": "function"
    },
    {
      "inputs": [],
      "name": "bns",
      "outputs": [
        {
          "internalType": "uint256",
          "name": "",
          "type": "uint256"
        }
      ],
      "stateMutability": "view",
      "type": "function"
    },
    {
      "inputs": [],
      "name": "calcCtargemaCA",
      "outputs": [
        {
          "internalType": "uint256",
          "name": "ctargemaCA",
          "type": "uint256"
        }
      ],
      "stateMutability": "view",
      "type": "function"
    },
    {
      "inputs": [
        {
          "internalType": "contract IGovernor",
          "name": "newGovernor_",
          "type": "address"
        }
      ],
      "name": "changeGovernor",
      "outputs": [],
      "stateMutability": "nonpayable",
      "type": "function"
    },
    {
      "inputs": [
        {
          "components": [
            {
              "internalType": "address",
              "name": "tpTokenAddress",
              "type": "address"
            },
            {
              "internalType": "address",
              "name": "priceProviderAddress",
              "type": "address"
            },
            {
              "internalType": "uint256",
              "name": "tpCtarg",
              "type": "uint256"
            },
            {
              "internalType": "uint256",
              "name": "tpMintFee",
              "type": "uint256"
            },
            {
              "internalType": "uint256",
              "name": "tpRedeemFee",
              "type": "uint256"
            },
            {
              "internalType": "uint256",
              "name": "tpEma",
              "type": "uint256"
            },
            {
              "internalType": "uint256",
              "name": "tpEmaSf",
              "type": "uint256"
            }
          ],
          "internalType": "struct PeggedTokenParams",
          "name": "peggedTokenParams_",
          "type": "tuple"
        }
      ],
      "name": "editPeggedToken",
      "outputs": [],
      "stateMutability": "nonpayable",
      "type": "function"
    },
    {
      "inputs": [],
      "name": "emaCalculationBlockSpan",
      "outputs": [
        {
          "internalType": "uint256",
          "name": "",
          "type": "uint256"
        }
      ],
      "stateMutability": "view",
      "type": "function"
    },
    {
      "inputs": [],
      "name": "evalLiquidation",
      "outputs": [],
      "stateMutability": "nonpayable",
      "type": "function"
    },
    {
      "inputs": [],
      "name": "execSettlement",
      "outputs": [],
      "stateMutability": "nonpayable",
      "type": "function"
    },
    {
      "inputs": [],
      "name": "feeRetainer",
      "outputs": [
        {
          "internalType": "uint256",
          "name": "",
          "type": "uint256"
        }
      ],
      "stateMutability": "view",
      "type": "function"
    },
    {
      "inputs": [],
      "name": "feeToken",
      "outputs": [
        {
          "internalType": "contract IERC20",
          "name": "",
          "type": "address"
        }
      ],
      "stateMutability": "view",
      "type": "function"
    },
    {
      "inputs": [],
      "name": "feeTokenPct",
      "outputs": [
        {
          "internalType": "uint256",
          "name": "",
          "type": "uint256"
        }
      ],
      "stateMutability": "view",
      "type": "function"
    },
    {
      "inputs": [],
      "name": "feeTokenPriceProvider",
      "outputs": [
        {
          "internalType": "contract IPriceProvider",
          "name": "",
          "type": "address"
        }
      ],
      "stateMutability": "view",
      "type": "function"
    },
    {
      "inputs": [],
      "name": "getBts",
      "outputs": [
        {
          "internalType": "uint256",
          "name": "",
          "type": "uint256"
        }
      ],
      "stateMutability": "view",
      "type": "function"
    },
    {
      "inputs": [],
      "name": "getCglb",
      "outputs": [
        {
          "internalType": "uint256",
          "name": "cglob",
          "type": "uint256"
        }
      ],
      "stateMutability": "view",
      "type": "function"
    },
    {
      "inputs": [],
      "name": "getCustomMockValue",
      "outputs": [
        {
          "internalType": "uint256",
          "name": "",
          "type": "uint256"
        }
      ],
      "stateMutability": "view",
      "type": "function"
    },
    {
      "inputs": [],
      "name": "getLeverageTC",
      "outputs": [
        {
          "internalType": "uint256",
          "name": "leverageTC",
          "type": "uint256"
        }
      ],
      "stateMutability": "view",
      "type": "function"
    },
    {
      "inputs": [
        {
          "internalType": "uint256",
          "name": "i_",
          "type": "uint256"
        }
      ],
      "name": "getPACtp",
      "outputs": [
        {
          "internalType": "uint256",
          "name": "",
          "type": "uint256"
        }
      ],
      "stateMutability": "view",
      "type": "function"
    },
    {
      "inputs": [],
      "name": "getPTCac",
      "outputs": [
        {
          "internalType": "uint256",
          "name": "pTCac",
          "type": "uint256"
        }
      ],
      "stateMutability": "view",
      "type": "function"
    },
    {
      "inputs": [],
      "name": "getTCAvailableToRedeem",
      "outputs": [
        {
          "internalType": "uint256",
          "name": "tcAvailableToRedeem",
          "type": "uint256"
        }
      ],
      "stateMutability": "view",
      "type": "function"
    },
    {
      "inputs": [
        {
          "internalType": "uint256",
          "name": "i_",
          "type": "uint256"
        }
      ],
      "name": "getTPAvailableToMint",
      "outputs": [
        {
          "internalType": "uint256",
          "name": "tpAvailableToMint",
          "type": "uint256"
        }
      ],
      "stateMutability": "view",
      "type": "function"
    },
    {
      "inputs": [],
      "name": "getTotalACavailable",
      "outputs": [
        {
          "internalType": "uint256",
          "name": "totalACavailable",
          "type": "uint256"
        }
      ],
      "stateMutability": "view",
      "type": "function"
    },
    {
      "inputs": [],
      "name": "governor",
      "outputs": [
        {
          "internalType": "contract IGovernor",
          "name": "",
          "type": "address"
        }
      ],
      "stateMutability": "view",
      "type": "function"
    },
    {
      "inputs": [
        {
          "components": [
            {
              "components": [
                {
                  "internalType": "address",
                  "name": "feeTokenAddress",
                  "type": "address"
                },
                {
                  "internalType": "address",
                  "name": "feeTokenPriceProviderAddress",
                  "type": "address"
                },
                {
                  "internalType": "address",
                  "name": "tcTokenAddress",
                  "type": "address"
                },
                {
                  "internalType": "address",
                  "name": "mocFeeFlowAddress",
                  "type": "address"
                },
                {
                  "internalType": "address",
                  "name": "mocAppreciationBeneficiaryAddress",
                  "type": "address"
                },
                {
                  "internalType": "uint256",
                  "name": "protThrld",
                  "type": "uint256"
                },
                {
                  "internalType": "uint256",
                  "name": "liqThrld",
                  "type": "uint256"
                },
                {
                  "internalType": "uint256",
                  "name": "feeRetainer",
                  "type": "uint256"
                },
                {
                  "internalType": "uint256",
                  "name": "tcMintFee",
                  "type": "uint256"
                },
                {
                  "internalType": "uint256",
                  "name": "tcRedeemFee",
                  "type": "uint256"
                },
                {
                  "internalType": "uint256",
                  "name": "swapTPforTPFee",
                  "type": "uint256"
                },
                {
                  "internalType": "uint256",
                  "name": "swapTPforTCFee",
                  "type": "uint256"
                },
                {
                  "internalType": "uint256",
                  "name": "swapTCforTPFee",
                  "type": "uint256"
                },
                {
                  "internalType": "uint256",
                  "name": "redeemTCandTPFee",
                  "type": "uint256"
                },
                {
                  "internalType": "uint256",
                  "name": "mintTCandTPFee",
                  "type": "uint256"
                },
                {
                  "internalType": "uint256",
                  "name": "feeTokenPct",
                  "type": "uint256"
                },
                {
                  "internalType": "uint256",
                  "name": "successFee",
                  "type": "uint256"
                },
                {
                  "internalType": "uint256",
                  "name": "appreciationFactor",
                  "type": "uint256"
                },
                {
                  "internalType": "uint256",
                  "name": "bes",
                  "type": "uint256"
                }
              ],
              "internalType": "struct MocBaseBucket.InitializeBaseBucketParams",
              "name": "initializeBaseBucketParams",
              "type": "tuple"
            },
            {
              "internalType": "address",
              "name": "governorAddress",
              "type": "address"
            },
            {
              "internalType": "address",
              "name": "pauserAddress",
              "type": "address"
            },
            {
              "internalType": "address",
              "name": "mocCoreExpansion",
              "type": "address"
            },
            {
              "internalType": "uint256",
              "name": "emaCalculationBlockSpan",
              "type": "uint256"
            },
            {
              "internalType": "address",
              "name": "mocVendors",
              "type": "address"
            }
          ],
          "internalType": "struct MocCore.InitializeCoreParams",
          "name": "initializeCoreParams_",
          "type": "tuple"
        }
      ],
      "name": "initialize",
      "outputs": [],
      "stateMutability": "nonpayable",
      "type": "function"
    },
    {
      "inputs": [],
      "name": "initializeMock",
      "outputs": [],
      "stateMutability": "nonpayable",
      "type": "function"
    },
    {
      "inputs": [],
      "name": "isLiquidationReached",
      "outputs": [
        {
          "internalType": "bool",
          "name": "",
          "type": "bool"
        }
      ],
      "stateMutability": "view",
      "type": "function"
    },
    {
      "inputs": [],
      "name": "liqEnabled",
      "outputs": [
        {
          "internalType": "bool",
          "name": "",
          "type": "bool"
        }
      ],
      "stateMutability": "view",
      "type": "function"
    },
    {
      "inputs": [
        {
          "internalType": "uint256",
          "name": "i_",
          "type": "uint256"
        }
      ],
      "name": "liqRedeemTP",
      "outputs": [
        {
          "internalType": "uint256",
          "name": "qACRedeemed",
          "type": "uint256"
        }
      ],
      "stateMutability": "nonpayable",
      "type": "function"
    },
    {
      "inputs": [
        {
          "internalType": "uint256",
          "name": "i_",
          "type": "uint256"
        },
        {
          "internalType": "address",
          "name": "recipient_",
          "type": "address"
        }
      ],
      "name": "liqRedeemTPto",
      "outputs": [
        {
          "internalType": "uint256",
          "name": "qACRedeemed",
          "type": "uint256"
        }
      ],
      "stateMutability": "nonpayable",
      "type": "function"
    },
    {
      "inputs": [],
      "name": "liqThrld",
      "outputs": [
        {
          "internalType": "uint256",
          "name": "",
          "type": "uint256"
        }
      ],
      "stateMutability": "view",
      "type": "function"
    },
    {
      "inputs": [],
      "name": "liquidated",
      "outputs": [
        {
          "internalType": "bool",
          "name": "",
          "type": "bool"
        }
      ],
      "stateMutability": "view",
      "type": "function"
    },
    {
      "inputs": [],
      "name": "makeStoppable",
      "outputs": [],
      "stateMutability": "nonpayable",
      "type": "function"
    },
    {
      "inputs": [],
      "name": "makeUnstoppable",
      "outputs": [],
      "stateMutability": "nonpayable",
      "type": "function"
    },
    {
      "inputs": [
        {
          "internalType": "uint256",
          "name": "qTC_",
          "type": "uint256"
        }
      ],
      "name": "mintTC",
      "outputs": [
        {
          "internalType": "uint256",
          "name": "qACtotalNeeded",
          "type": "uint256"
        },
        {
          "internalType": "uint256",
          "name": "qFeeToken",
          "type": "uint256"
        }
      ],
      "stateMutability": "payable",
      "type": "function"
    },
    {
      "inputs": [
        {
          "internalType": "uint256",
          "name": "qTC_",
          "type": "uint256"
        },
        {
          "internalType": "address",
          "name": "vendor_",
          "type": "address"
        }
      ],
      "name": "mintTCViaVendor",
      "outputs": [
        {
          "internalType": "uint256",
          "name": "qACtotalNeeded",
          "type": "uint256"
        },
        {
          "internalType": "uint256",
          "name": "qFeeToken",
          "type": "uint256"
        }
      ],
      "stateMutability": "payable",
      "type": "function"
    },
    {
      "inputs": [
        {
          "internalType": "uint256",
          "name": "i_",
          "type": "uint256"
        },
        {
          "internalType": "uint256",
          "name": "qTP_",
          "type": "uint256"
        }
      ],
      "name": "mintTCandTP",
      "outputs": [
        {
          "internalType": "uint256",
          "name": "qACtotalNeeded",
          "type": "uint256"
        },
        {
          "internalType": "uint256",
          "name": "qTCtoMint",
          "type": "uint256"
        },
        {
          "internalType": "uint256",
          "name": "qFeeToken",
          "type": "uint256"
        }
      ],
      "stateMutability": "payable",
      "type": "function"
    },
    {
      "inputs": [],
      "name": "mintTCandTPFee",
      "outputs": [
        {
          "internalType": "uint256",
          "name": "",
          "type": "uint256"
        }
      ],
      "stateMutability": "view",
      "type": "function"
    },
    {
      "inputs": [
        {
          "internalType": "uint256",
          "name": "i_",
          "type": "uint256"
        },
        {
          "internalType": "uint256",
          "name": "qTP_",
          "type": "uint256"
        },
        {
          "internalType": "address",
          "name": "vendor_",
          "type": "address"
        }
      ],
      "name": "mintTCandTPViaVendor",
      "outputs": [
        {
          "internalType": "uint256",
          "name": "qACtotalNeeded",
          "type": "uint256"
        },
        {
          "internalType": "uint256",
          "name": "qTCtoMint",
          "type": "uint256"
        },
        {
          "internalType": "uint256",
          "name": "qFeeToken",
          "type": "uint256"
        }
      ],
      "stateMutability": "payable",
      "type": "function"
    },
    {
      "inputs": [
        {
          "internalType": "uint256",
          "name": "i_",
          "type": "uint256"
        },
        {
          "internalType": "uint256",
          "name": "qTP_",
          "type": "uint256"
        },
        {
          "internalType": "address",
          "name": "recipient_",
          "type": "address"
        }
      ],
      "name": "mintTCandTPto",
      "outputs": [
        {
          "internalType": "uint256",
          "name": "qACtotalNeeded",
          "type": "uint256"
        },
        {
          "internalType": "uint256",
          "name": "qTCtoMint",
          "type": "uint256"
        },
        {
          "internalType": "uint256",
          "name": "qFeeToken",
          "type": "uint256"
        }
      ],
      "stateMutability": "payable",
      "type": "function"
    },
    {
      "inputs": [
        {
          "internalType": "uint256",
          "name": "i_",
          "type": "uint256"
        },
        {
          "internalType": "uint256",
          "name": "qTP_",
          "type": "uint256"
        },
        {
          "internalType": "address",
          "name": "recipient_",
          "type": "address"
        },
        {
          "internalType": "address",
          "name": "vendor_",
          "type": "address"
        }
      ],
      "name": "mintTCandTPtoViaVendor",
      "outputs": [
        {
          "internalType": "uint256",
          "name": "qACtotalNeeded",
          "type": "uint256"
        },
        {
          "internalType": "uint256",
          "name": "qTCtoMint",
          "type": "uint256"
        },
        {
          "internalType": "uint256",
          "name": "qFeeToken",
          "type": "uint256"
        }
      ],
      "stateMutability": "payable",
      "type": "function"
    },
    {
      "inputs": [
        {
          "internalType": "uint256",
          "name": "qTC_",
          "type": "uint256"
        },
        {
          "internalType": "address",
          "name": "recipient_",
          "type": "address"
        }
      ],
      "name": "mintTCto",
      "outputs": [
        {
          "internalType": "uint256",
          "name": "qACtotalNeeded",
          "type": "uint256"
        },
        {
          "internalType": "uint256",
          "name": "qFeeToken",
          "type": "uint256"
        }
      ],
      "stateMutability": "payable",
      "type": "function"
    },
    {
      "inputs": [
        {
          "internalType": "uint256",
          "name": "qTC_",
          "type": "uint256"
        },
        {
          "internalType": "address",
          "name": "recipient_",
          "type": "address"
        },
        {
          "internalType": "address",
          "name": "vendor_",
          "type": "address"
        }
      ],
      "name": "mintTCtoViaVendor",
      "outputs": [
        {
          "internalType": "uint256",
          "name": "qACtotalNeeded",
          "type": "uint256"
        },
        {
          "internalType": "uint256",
          "name": "qFeeToken",
          "type": "uint256"
        }
      ],
      "stateMutability": "payable",
      "type": "function"
    },
    {
      "inputs": [
        {
          "internalType": "uint256",
          "name": "i_",
          "type": "uint256"
        },
        {
          "internalType": "uint256",
          "name": "qTP_",
          "type": "uint256"
        }
      ],
      "name": "mintTP",
      "outputs": [
        {
          "internalType": "uint256",
          "name": "qACtotalNeeded",
          "type": "uint256"
        },
        {
          "internalType": "uint256",
          "name": "qFeeToken",
          "type": "uint256"
        }
      ],
      "stateMutability": "payable",
      "type": "function"
    },
    {
      "inputs": [
        {
          "internalType": "uint256",
          "name": "i_",
          "type": "uint256"
        },
        {
          "internalType": "uint256",
          "name": "qTP_",
          "type": "uint256"
        },
        {
          "internalType": "address",
          "name": "vendor_",
          "type": "address"
        }
      ],
      "name": "mintTPViaVendor",
      "outputs": [
        {
          "internalType": "uint256",
          "name": "qACtotalNeeded",
          "type": "uint256"
        },
        {
          "internalType": "uint256",
          "name": "qFeeToken",
          "type": "uint256"
        }
      ],
      "stateMutability": "payable",
      "type": "function"
    },
    {
      "inputs": [
        {
          "internalType": "uint256",
          "name": "i_",
          "type": "uint256"
        },
        {
          "internalType": "uint256",
          "name": "qTP_",
          "type": "uint256"
        },
        {
          "internalType": "address",
          "name": "recipient_",
          "type": "address"
        }
      ],
      "name": "mintTPto",
      "outputs": [
        {
          "internalType": "uint256",
          "name": "qACtotalNeeded",
          "type": "uint256"
        },
        {
          "internalType": "uint256",
          "name": "qFeeToken",
          "type": "uint256"
        }
      ],
      "stateMutability": "payable",
      "type": "function"
    },
    {
      "inputs": [
        {
          "internalType": "uint256",
          "name": "i_",
          "type": "uint256"
        },
        {
          "internalType": "uint256",
          "name": "qTP_",
          "type": "uint256"
        },
        {
          "internalType": "address",
          "name": "recipient_",
          "type": "address"
        },
        {
          "internalType": "address",
          "name": "vendor_",
          "type": "address"
        }
      ],
      "name": "mintTPtoViaVendor",
      "outputs": [
        {
          "internalType": "uint256",
          "name": "qACtotalNeeded",
          "type": "uint256"
        },
        {
          "internalType": "uint256",
          "name": "qFeeToken",
          "type": "uint256"
        }
      ],
      "stateMutability": "payable",
      "type": "function"
    },
    {
      "inputs": [],
      "name": "mocAppreciationBeneficiaryAddress",
      "outputs": [
        {
          "internalType": "address",
          "name": "",
          "type": "address"
        }
      ],
      "stateMutability": "view",
      "type": "function"
    },
    {
      "inputs": [],
      "name": "mocFeeFlowAddress",
      "outputs": [
        {
          "internalType": "address",
          "name": "",
          "type": "address"
        }
      ],
      "stateMutability": "view",
      "type": "function"
    },
    {
      "inputs": [],
      "name": "mocVendors",
      "outputs": [
        {
          "internalType": "contract MocVendors",
          "name": "",
          "type": "address"
        }
      ],
      "stateMutability": "view",
      "type": "function"
    },
    {
      "inputs": [],
      "name": "nACcb",
      "outputs": [
        {
          "internalType": "uint256",
          "name": "",
          "type": "uint256"
        }
      ],
      "stateMutability": "view",
      "type": "function"
    },
    {
      "inputs": [],
      "name": "nTCcb",
      "outputs": [
        {
          "internalType": "uint256",
          "name": "",
          "type": "uint256"
        }
      ],
      "stateMutability": "view",
      "type": "function"
    },
    {
      "inputs": [],
      "name": "newVariable",
      "outputs": [
        {
          "internalType": "uint256",
          "name": "",
          "type": "uint256"
        }
      ],
      "stateMutability": "view",
      "type": "function"
    },
    {
      "inputs": [],
      "name": "nextEmaCalculation",
      "outputs": [
        {
          "internalType": "uint256",
          "name": "",
          "type": "uint256"
        }
      ],
      "stateMutability": "view",
      "type": "function"
    },
    {
      "inputs": [],
      "name": "pause",
      "outputs": [],
      "stateMutability": "nonpayable",
      "type": "function"
    },
    {
      "inputs": [],
      "name": "paused",
      "outputs": [
        {
          "internalType": "bool",
          "name": "",
          "type": "bool"
        }
      ],
      "stateMutability": "view",
      "type": "function"
    },
    {
      "inputs": [],
      "name": "pauser",
      "outputs": [
        {
          "internalType": "address",
          "name": "",
          "type": "address"
        }
      ],
      "stateMutability": "view",
      "type": "function"
    },
    {
      "inputs": [
        {
          "internalType": "uint256",
          "name": "",
          "type": "uint256"
        }
      ],
      "name": "pegContainer",
      "outputs": [
        {
          "internalType": "uint256",
          "name": "nTP",
          "type": "uint256"
        },
        {
          "internalType": "contract IPriceProvider",
          "name": "priceProvider",
          "type": "address"
        }
      ],
      "stateMutability": "view",
      "type": "function"
    },
    {
      "inputs": [
        {
          "internalType": "address",
          "name": "",
          "type": "address"
        }
      ],
      "name": "peggedTokenIndex",
      "outputs": [
        {
          "internalType": "uint256",
          "name": "index",
          "type": "uint256"
        },
        {
          "internalType": "bool",
          "name": "exists",
          "type": "bool"
        }
      ],
      "stateMutability": "view",
      "type": "function"
    },
    {
      "inputs": [],
      "name": "protThrld",
      "outputs": [
        {
          "internalType": "uint256",
          "name": "",
          "type": "uint256"
        }
      ],
      "stateMutability": "view",
      "type": "function"
    },
    {
      "inputs": [],
      "name": "proxiableUUID",
      "outputs": [
        {
          "internalType": "bytes32",
          "name": "",
          "type": "bytes32"
        }
      ],
      "stateMutability": "view",
      "type": "function"
    },
    {
      "inputs": [
        {
          "internalType": "uint256",
          "name": "qTC_",
          "type": "uint256"
        },
        {
          "internalType": "uint256",
          "name": "qACmin_",
          "type": "uint256"
        }
      ],
      "name": "redeemTC",
      "outputs": [
        {
          "internalType": "uint256",
          "name": "qACRedeemed",
          "type": "uint256"
        },
        {
          "internalType": "uint256",
          "name": "qFeeToken",
          "type": "uint256"
        }
      ],
      "stateMutability": "nonpayable",
      "type": "function"
    },
    {
      "inputs": [
        {
          "internalType": "uint256",
          "name": "qTC_",
          "type": "uint256"
        },
        {
          "internalType": "uint256",
          "name": "qACmin_",
          "type": "uint256"
        },
        {
          "internalType": "address",
          "name": "vendor_",
          "type": "address"
        }
      ],
      "name": "redeemTCViaVendor",
      "outputs": [
        {
          "internalType": "uint256",
          "name": "qACRedeemed",
          "type": "uint256"
        },
        {
          "internalType": "uint256",
          "name": "qFeeToken",
          "type": "uint256"
        }
      ],
      "stateMutability": "nonpayable",
      "type": "function"
    },
    {
      "inputs": [
        {
          "internalType": "uint256",
          "name": "i_",
          "type": "uint256"
        },
        {
          "internalType": "uint256",
          "name": "qTC_",
          "type": "uint256"
        },
        {
          "internalType": "uint256",
          "name": "qTP_",
          "type": "uint256"
        },
        {
          "internalType": "uint256",
          "name": "qACmin_",
          "type": "uint256"
        }
      ],
      "name": "redeemTCandTP",
      "outputs": [
        {
          "internalType": "uint256",
          "name": "qACRedeemed",
          "type": "uint256"
        },
        {
          "internalType": "uint256",
          "name": "qTPRedeemed",
          "type": "uint256"
        },
        {
          "internalType": "uint256",
          "name": "qFeeToken",
          "type": "uint256"
        }
      ],
      "stateMutability": "nonpayable",
      "type": "function"
    },
    {
      "inputs": [],
      "name": "redeemTCandTPFee",
      "outputs": [
        {
          "internalType": "uint256",
          "name": "",
          "type": "uint256"
        }
      ],
      "stateMutability": "view",
      "type": "function"
    },
    {
      "inputs": [
        {
          "internalType": "uint256",
          "name": "i_",
          "type": "uint256"
        },
        {
          "internalType": "uint256",
          "name": "qTC_",
          "type": "uint256"
        },
        {
          "internalType": "uint256",
          "name": "qTP_",
          "type": "uint256"
        },
        {
          "internalType": "uint256",
          "name": "qACmin_",
          "type": "uint256"
        },
        {
          "internalType": "address",
          "name": "vendor_",
          "type": "address"
        }
      ],
      "name": "redeemTCandTPViaVendor",
      "outputs": [
        {
          "internalType": "uint256",
          "name": "qACRedeemed",
          "type": "uint256"
        },
        {
          "internalType": "uint256",
          "name": "qTPRedeemed",
          "type": "uint256"
        },
        {
          "internalType": "uint256",
          "name": "qFeeToken",
          "type": "uint256"
        }
      ],
      "stateMutability": "nonpayable",
      "type": "function"
    },
    {
      "inputs": [
        {
          "internalType": "uint256",
          "name": "i_",
          "type": "uint256"
        },
        {
          "internalType": "uint256",
          "name": "qTC_",
          "type": "uint256"
        },
        {
          "internalType": "uint256",
          "name": "qTP_",
          "type": "uint256"
        },
        {
          "internalType": "uint256",
          "name": "qACmin_",
          "type": "uint256"
        },
        {
          "internalType": "address",
          "name": "recipient_",
          "type": "address"
        }
      ],
      "name": "redeemTCandTPto",
      "outputs": [
        {
          "internalType": "uint256",
          "name": "qACRedeemed",
          "type": "uint256"
        },
        {
          "internalType": "uint256",
          "name": "qTPRedeemed",
          "type": "uint256"
        },
        {
          "internalType": "uint256",
          "name": "qFeeToken",
          "type": "uint256"
        }
      ],
      "stateMutability": "nonpayable",
      "type": "function"
    },
    {
      "inputs": [
        {
          "internalType": "uint256",
          "name": "i_",
          "type": "uint256"
        },
        {
          "internalType": "uint256",
          "name": "qTC_",
          "type": "uint256"
        },
        {
          "internalType": "uint256",
          "name": "qTP_",
          "type": "uint256"
        },
        {
          "internalType": "uint256",
          "name": "qACmin_",
          "type": "uint256"
        },
        {
          "internalType": "address",
          "name": "recipient_",
          "type": "address"
        },
        {
          "internalType": "address",
          "name": "vendor_",
          "type": "address"
        }
      ],
      "name": "redeemTCandTPtoViaVendor",
      "outputs": [
        {
          "internalType": "uint256",
          "name": "qACRedeemed",
          "type": "uint256"
        },
        {
          "internalType": "uint256",
          "name": "qTPRedeemed",
          "type": "uint256"
        },
        {
          "internalType": "uint256",
          "name": "qFeeToken",
          "type": "uint256"
        }
      ],
      "stateMutability": "nonpayable",
      "type": "function"
    },
    {
      "inputs": [
        {
          "internalType": "uint256",
          "name": "qTC_",
          "type": "uint256"
        },
        {
          "internalType": "uint256",
          "name": "qACmin_",
          "type": "uint256"
        },
        {
          "internalType": "address",
          "name": "recipient_",
          "type": "address"
        }
      ],
      "name": "redeemTCto",
      "outputs": [
        {
          "internalType": "uint256",
          "name": "qACRedeemed",
          "type": "uint256"
        },
        {
          "internalType": "uint256",
          "name": "qFeeToken",
          "type": "uint256"
        }
      ],
      "stateMutability": "nonpayable",
      "type": "function"
    },
    {
      "inputs": [
        {
          "internalType": "uint256",
          "name": "qTC_",
          "type": "uint256"
        },
        {
          "internalType": "uint256",
          "name": "qACmin_",
          "type": "uint256"
        },
        {
          "internalType": "address",
          "name": "recipient_",
          "type": "address"
        },
        {
          "internalType": "address",
          "name": "vendor_",
          "type": "address"
        }
      ],
      "name": "redeemTCtoViaVendor",
      "outputs": [
        {
          "internalType": "uint256",
          "name": "qACRedeemed",
          "type": "uint256"
        },
        {
          "internalType": "uint256",
          "name": "qFeeToken",
          "type": "uint256"
        }
      ],
      "stateMutability": "nonpayable",
      "type": "function"
    },
    {
      "inputs": [
        {
          "internalType": "uint256",
          "name": "i_",
          "type": "uint256"
        },
        {
          "internalType": "uint256",
          "name": "qTP_",
          "type": "uint256"
        },
        {
          "internalType": "uint256",
          "name": "qACmin_",
          "type": "uint256"
        }
      ],
      "name": "redeemTP",
      "outputs": [
        {
          "internalType": "uint256",
          "name": "qACRedeemed",
          "type": "uint256"
        },
        {
          "internalType": "uint256",
          "name": "qFeeToken",
          "type": "uint256"
        }
      ],
      "stateMutability": "nonpayable",
      "type": "function"
    },
    {
      "inputs": [
        {
          "internalType": "uint256",
          "name": "i_",
          "type": "uint256"
        },
        {
          "internalType": "uint256",
          "name": "qTP_",
          "type": "uint256"
        },
        {
          "internalType": "uint256",
          "name": "qACmin_",
          "type": "uint256"
        },
        {
          "internalType": "address",
          "name": "vendor_",
          "type": "address"
        }
      ],
      "name": "redeemTPViaVendor",
      "outputs": [
        {
          "internalType": "uint256",
          "name": "qACRedeemed",
          "type": "uint256"
        },
        {
          "internalType": "uint256",
          "name": "qFeeToken",
          "type": "uint256"
        }
      ],
      "stateMutability": "nonpayable",
      "type": "function"
    },
    {
      "inputs": [
        {
          "internalType": "uint256",
          "name": "i_",
          "type": "uint256"
        },
        {
          "internalType": "uint256",
          "name": "qTP_",
          "type": "uint256"
        },
        {
          "internalType": "uint256",
          "name": "qACmin_",
          "type": "uint256"
        },
        {
          "internalType": "address",
          "name": "recipient_",
          "type": "address"
        }
      ],
      "name": "redeemTPto",
      "outputs": [
        {
          "internalType": "uint256",
          "name": "qACRedeemed",
          "type": "uint256"
        },
        {
          "internalType": "uint256",
          "name": "qFeeToken",
          "type": "uint256"
        }
      ],
      "stateMutability": "nonpayable",
      "type": "function"
    },
    {
      "inputs": [
        {
          "internalType": "uint256",
          "name": "i_",
          "type": "uint256"
        },
        {
          "internalType": "uint256",
          "name": "qTP_",
          "type": "uint256"
        },
        {
          "internalType": "uint256",
          "name": "qACmin_",
          "type": "uint256"
        },
        {
          "internalType": "address",
          "name": "recipient_",
          "type": "address"
        },
        {
          "internalType": "address",
          "name": "vendor_",
          "type": "address"
        }
      ],
      "name": "redeemTPtoViaVendor",
      "outputs": [
        {
          "internalType": "uint256",
          "name": "qACRedeemed",
          "type": "uint256"
        },
        {
          "internalType": "uint256",
          "name": "qFeeToken",
          "type": "uint256"
        }
      ],
      "stateMutability": "nonpayable",
      "type": "function"
    },
    {
      "inputs": [
        {
          "internalType": "uint256",
          "name": "appreciationFactor_",
          "type": "uint256"
        }
      ],
      "name": "setAppreciationFactor",
      "outputs": [],
      "stateMutability": "nonpayable",
      "type": "function"
    },
    {
      "inputs": [
        {
          "internalType": "uint256",
          "name": "bes_",
          "type": "uint256"
        }
      ],
      "name": "setBes",
      "outputs": [],
      "stateMutability": "nonpayable",
      "type": "function"
    },
    {
      "inputs": [
        {
          "internalType": "uint256",
          "name": "blockSpan_",
          "type": "uint256"
        }
      ],
      "name": "setEmaCalculationBlockSpan",
      "outputs": [],
      "stateMutability": "nonpayable",
      "type": "function"
    },
    {
      "inputs": [
        {
          "internalType": "uint256",
          "name": "feeRetainer_",
          "type": "uint256"
        }
      ],
      "name": "setFeeRetainer",
      "outputs": [],
      "stateMutability": "nonpayable",
      "type": "function"
    },
    {
      "inputs": [
        {
          "internalType": "address",
          "name": "mocFeeTokenAddress_",
          "type": "address"
        }
      ],
      "name": "setFeeTokenAddress",
      "outputs": [],
      "stateMutability": "nonpayable",
      "type": "function"
    },
    {
      "inputs": [
        {
          "internalType": "uint256",
          "name": "feeTokenPct_",
          "type": "uint256"
        }
      ],
      "name": "setFeeTokenPct",
      "outputs": [],
      "stateMutability": "nonpayable",
      "type": "function"
    },
    {
      "inputs": [
        {
          "internalType": "address",
          "name": "mocFeeTokenPriceProviderAddress_",
          "type": "address"
        }
      ],
      "name": "setFeeTokenPriceProviderAddress",
      "outputs": [],
      "stateMutability": "nonpayable",
      "type": "function"
    },
    {
      "inputs": [
        {
          "internalType": "bool",
          "name": "liqEnabled_",
          "type": "bool"
        }
      ],
      "name": "setLiqEnabled",
      "outputs": [],
      "stateMutability": "nonpayable",
      "type": "function"
    },
    {
      "inputs": [
        {
          "internalType": "uint256",
          "name": "liqThrld_",
          "type": "uint256"
        }
      ],
      "name": "setLiqThrld",
      "outputs": [],
      "stateMutability": "nonpayable",
      "type": "function"
    },
    {
      "inputs": [
        {
          "internalType": "uint256",
          "name": "mintTCandTPFee_",
          "type": "uint256"
        }
      ],
      "name": "setMintTCandTPFee",
      "outputs": [],
      "stateMutability": "nonpayable",
      "type": "function"
    },
    {
      "inputs": [
        {
          "internalType": "address",
          "name": "mocAppreciationBeneficiaryAddress_",
          "type": "address"
        }
      ],
      "name": "setMocAppreciationBeneficiaryAddress",
      "outputs": [],
      "stateMutability": "nonpayable",
      "type": "function"
    },
    {
      "inputs": [
        {
          "internalType": "address",
          "name": "mocCoreExpansion_",
          "type": "address"
        }
      ],
      "name": "setMocCoreExpansion",
      "outputs": [],
      "stateMutability": "nonpayable",
      "type": "function"
    },
    {
      "inputs": [
        {
          "internalType": "address",
          "name": "mocFeeFlowAddress_",
          "type": "address"
        }
      ],
      "name": "setMocFeeFlowAddress",
      "outputs": [],
      "stateMutability": "nonpayable",
      "type": "function"
    },
    {
      "inputs": [
        {
          "internalType": "address",
          "name": "newPauser_",
          "type": "address"
        }
      ],
      "name": "setPauser",
      "outputs": [],
      "stateMutability": "nonpayable",
      "type": "function"
    },
    {
      "inputs": [
        {
          "internalType": "uint256",
          "name": "protThrld_",
          "type": "uint256"
        }
      ],
      "name": "setProtThrld",
      "outputs": [],
      "stateMutability": "nonpayable",
      "type": "function"
    },
    {
      "inputs": [
        {
          "internalType": "uint256",
          "name": "redeemTCandTPFee_",
          "type": "uint256"
        }
      ],
      "name": "setRedeemTCandTPFee",
      "outputs": [],
      "stateMutability": "nonpayable",
      "type": "function"
    },
    {
      "inputs": [
        {
          "internalType": "uint256",
          "name": "successFee_",
          "type": "uint256"
        }
      ],
      "name": "setSuccessFee",
      "outputs": [],
      "stateMutability": "nonpayable",
      "type": "function"
    },
    {
      "inputs": [
        {
          "internalType": "uint256",
          "name": "swapTCforTPFee_",
          "type": "uint256"
        }
      ],
      "name": "setSwapTCforTPFee",
      "outputs": [],
      "stateMutability": "nonpayable",
      "type": "function"
    },
    {
      "inputs": [
        {
          "internalType": "uint256",
          "name": "swapTPforTCFee_",
          "type": "uint256"
        }
      ],
      "name": "setSwapTPforTCFee",
      "outputs": [],
      "stateMutability": "nonpayable",
      "type": "function"
    },
    {
      "inputs": [
        {
          "internalType": "uint256",
          "name": "swapTPforTPFee_",
          "type": "uint256"
        }
      ],
      "name": "setSwapTPforTPFee",
      "outputs": [],
      "stateMutability": "nonpayable",
      "type": "function"
    },
    {
      "inputs": [
        {
          "internalType": "uint256",
          "name": "tcMintFee_",
          "type": "uint256"
        }
      ],
      "name": "setTcMintFee",
      "outputs": [],
      "stateMutability": "nonpayable",
      "type": "function"
    },
    {
      "inputs": [
        {
          "internalType": "uint256",
          "name": "tcRedeemFee_",
          "type": "uint256"
        }
      ],
      "name": "setTcRedeemFee",
      "outputs": [],
      "stateMutability": "nonpayable",
      "type": "function"
    },
    {
      "inputs": [],
      "name": "shouldCalculateEma",
      "outputs": [
        {
          "internalType": "bool",
          "name": "",
          "type": "bool"
        }
      ],
      "stateMutability": "view",
      "type": "function"
    },
    {
      "inputs": [],
      "name": "stoppable",
      "outputs": [
        {
          "internalType": "bool",
          "name": "",
          "type": "bool"
        }
      ],
      "stateMutability": "view",
      "type": "function"
    },
    {
      "inputs": [],
      "name": "successFee",
      "outputs": [
        {
          "internalType": "uint256",
          "name": "",
          "type": "uint256"
        }
      ],
      "stateMutability": "view",
      "type": "function"
    },
    {
      "inputs": [
        {
          "internalType": "uint256",
          "name": "i_",
          "type": "uint256"
        },
        {
          "internalType": "uint256",
          "name": "qTC_",
          "type": "uint256"
        },
        {
          "internalType": "uint256",
          "name": "qTPmin_",
          "type": "uint256"
        }
      ],
      "name": "swapTCforTP",
      "outputs": [
        {
          "internalType": "uint256",
          "name": "qACFee",
          "type": "uint256"
        },
        {
          "internalType": "uint256",
          "name": "qTPMinted",
          "type": "uint256"
        },
        {
          "internalType": "uint256",
          "name": "qFeeToken",
          "type": "uint256"
        }
      ],
      "stateMutability": "payable",
      "type": "function"
    },
    {
      "inputs": [],
      "name": "swapTCforTPFee",
      "outputs": [
        {
          "internalType": "uint256",
          "name": "",
          "type": "uint256"
        }
      ],
      "stateMutability": "view",
      "type": "function"
    },
    {
      "inputs": [
        {
          "internalType": "uint256",
          "name": "i_",
          "type": "uint256"
        },
        {
          "internalType": "uint256",
          "name": "qTC_",
          "type": "uint256"
        },
        {
          "internalType": "uint256",
          "name": "qTPmin_",
          "type": "uint256"
        },
        {
          "internalType": "address",
          "name": "vendor_",
          "type": "address"
        }
      ],
      "name": "swapTCforTPViaVendor",
      "outputs": [
        {
          "internalType": "uint256",
          "name": "qACFee",
          "type": "uint256"
        },
        {
          "internalType": "uint256",
          "name": "qTPMinted",
          "type": "uint256"
        },
        {
          "internalType": "uint256",
          "name": "qFeeToken",
          "type": "uint256"
        }
      ],
      "stateMutability": "payable",
      "type": "function"
    },
    {
      "inputs": [
        {
          "internalType": "uint256",
          "name": "i_",
          "type": "uint256"
        },
        {
          "internalType": "uint256",
          "name": "qTC_",
          "type": "uint256"
        },
        {
          "internalType": "uint256",
          "name": "qTPmin_",
          "type": "uint256"
        },
        {
          "internalType": "address",
          "name": "recipient_",
          "type": "address"
        }
      ],
      "name": "swapTCforTPto",
      "outputs": [
        {
          "internalType": "uint256",
          "name": "qACFee",
          "type": "uint256"
        },
        {
          "internalType": "uint256",
          "name": "qTPMinted",
          "type": "uint256"
        },
        {
          "internalType": "uint256",
          "name": "qFeeToken",
          "type": "uint256"
        }
      ],
      "stateMutability": "payable",
      "type": "function"
    },
    {
      "inputs": [
        {
          "internalType": "uint256",
          "name": "i_",
          "type": "uint256"
        },
        {
          "internalType": "uint256",
          "name": "qTC_",
          "type": "uint256"
        },
        {
          "internalType": "uint256",
          "name": "qTPmin_",
          "type": "uint256"
        },
        {
          "internalType": "address",
          "name": "recipient_",
          "type": "address"
        },
        {
          "internalType": "address",
          "name": "vendor_",
          "type": "address"
        }
      ],
      "name": "swapTCforTPtoViaVendor",
      "outputs": [
        {
          "internalType": "uint256",
          "name": "qACFee",
          "type": "uint256"
        },
        {
          "internalType": "uint256",
          "name": "qTPMinted",
          "type": "uint256"
        },
        {
          "internalType": "uint256",
          "name": "qFeeToken",
          "type": "uint256"
        }
      ],
      "stateMutability": "payable",
      "type": "function"
    },
    {
      "inputs": [
        {
          "internalType": "uint256",
          "name": "i_",
          "type": "uint256"
        },
        {
          "internalType": "uint256",
          "name": "qTP_",
          "type": "uint256"
        },
        {
          "internalType": "uint256",
          "name": "qTCmin_",
          "type": "uint256"
        }
      ],
      "name": "swapTPforTC",
      "outputs": [
        {
          "internalType": "uint256",
          "name": "qACFee",
          "type": "uint256"
        },
        {
          "internalType": "uint256",
          "name": "qTCMinted",
          "type": "uint256"
        },
        {
          "internalType": "uint256",
          "name": "qFeeToken",
          "type": "uint256"
        }
      ],
      "stateMutability": "payable",
      "type": "function"
    },
    {
      "inputs": [],
      "name": "swapTPforTCFee",
      "outputs": [
        {
          "internalType": "uint256",
          "name": "",
          "type": "uint256"
        }
      ],
      "stateMutability": "view",
      "type": "function"
    },
    {
      "inputs": [
        {
          "internalType": "uint256",
          "name": "i_",
          "type": "uint256"
        },
        {
          "internalType": "uint256",
          "name": "qTP_",
          "type": "uint256"
        },
        {
          "internalType": "uint256",
          "name": "qTCmin_",
          "type": "uint256"
        },
        {
          "internalType": "address",
          "name": "vendor_",
          "type": "address"
        }
      ],
      "name": "swapTPforTCViaVendor",
      "outputs": [
        {
          "internalType": "uint256",
          "name": "qACFee",
          "type": "uint256"
        },
        {
          "internalType": "uint256",
          "name": "qTCMinted",
          "type": "uint256"
        },
        {
          "internalType": "uint256",
          "name": "qFeeToken",
          "type": "uint256"
        }
      ],
      "stateMutability": "payable",
      "type": "function"
    },
    {
      "inputs": [
        {
          "internalType": "uint256",
          "name": "i_",
          "type": "uint256"
        },
        {
          "internalType": "uint256",
          "name": "qTP_",
          "type": "uint256"
        },
        {
          "internalType": "uint256",
          "name": "qTCmin_",
          "type": "uint256"
        },
        {
          "internalType": "address",
          "name": "recipient_",
          "type": "address"
        }
      ],
      "name": "swapTPforTCto",
      "outputs": [
        {
          "internalType": "uint256",
          "name": "qACFee",
          "type": "uint256"
        },
        {
          "internalType": "uint256",
          "name": "qTCMinted",
          "type": "uint256"
        },
        {
          "internalType": "uint256",
          "name": "qFeeToken",
          "type": "uint256"
        }
      ],
      "stateMutability": "payable",
      "type": "function"
    },
    {
      "inputs": [
        {
          "internalType": "uint256",
          "name": "i_",
          "type": "uint256"
        },
        {
          "internalType": "uint256",
          "name": "qTP_",
          "type": "uint256"
        },
        {
          "internalType": "uint256",
          "name": "qTCmin_",
          "type": "uint256"
        },
        {
          "internalType": "address",
          "name": "recipient_",
          "type": "address"
        },
        {
          "internalType": "address",
          "name": "vendor_",
          "type": "address"
        }
      ],
      "name": "swapTPforTCtoViaVendor",
      "outputs": [
        {
          "internalType": "uint256",
          "name": "qACFee",
          "type": "uint256"
        },
        {
          "internalType": "uint256",
          "name": "qTCMinted",
          "type": "uint256"
        },
        {
          "internalType": "uint256",
          "name": "qFeeToken",
          "type": "uint256"
        }
      ],
      "stateMutability": "payable",
      "type": "function"
    },
    {
      "inputs": [
        {
          "internalType": "uint256",
          "name": "iFrom_",
          "type": "uint256"
        },
        {
          "internalType": "uint256",
          "name": "iTo_",
          "type": "uint256"
        },
        {
          "internalType": "uint256",
          "name": "qTP_",
          "type": "uint256"
        },
        {
          "internalType": "uint256",
          "name": "qTPmin_",
          "type": "uint256"
        }
      ],
      "name": "swapTPforTP",
      "outputs": [
        {
          "internalType": "uint256",
          "name": "qACFee",
          "type": "uint256"
        },
        {
          "internalType": "uint256",
          "name": "qTPMinted",
          "type": "uint256"
        },
        {
          "internalType": "uint256",
          "name": "qFeeToken",
          "type": "uint256"
        }
      ],
      "stateMutability": "payable",
      "type": "function"
    },
    {
      "inputs": [],
      "name": "swapTPforTPFee",
      "outputs": [
        {
          "internalType": "uint256",
          "name": "",
          "type": "uint256"
        }
      ],
      "stateMutability": "view",
      "type": "function"
    },
    {
      "inputs": [
        {
          "internalType": "uint256",
          "name": "iFrom_",
          "type": "uint256"
        },
        {
          "internalType": "uint256",
          "name": "iTo_",
          "type": "uint256"
        },
        {
          "internalType": "uint256",
          "name": "qTP_",
          "type": "uint256"
        },
        {
          "internalType": "uint256",
          "name": "qTPmin_",
          "type": "uint256"
        },
        {
          "internalType": "address",
          "name": "vendor_",
          "type": "address"
        }
      ],
      "name": "swapTPforTPViaVendor",
      "outputs": [
        {
          "internalType": "uint256",
          "name": "qACFee",
          "type": "uint256"
        },
        {
          "internalType": "uint256",
          "name": "qTPMinted",
          "type": "uint256"
        },
        {
          "internalType": "uint256",
          "name": "qFeeToken",
          "type": "uint256"
        }
      ],
      "stateMutability": "payable",
      "type": "function"
    },
    {
      "inputs": [
        {
          "internalType": "uint256",
          "name": "iFrom_",
          "type": "uint256"
        },
        {
          "internalType": "uint256",
          "name": "iTo_",
          "type": "uint256"
        },
        {
          "internalType": "uint256",
          "name": "qTP_",
          "type": "uint256"
        },
        {
          "internalType": "uint256",
          "name": "qTPmin_",
          "type": "uint256"
        },
        {
          "internalType": "address",
          "name": "recipient_",
          "type": "address"
        }
      ],
      "name": "swapTPforTPto",
      "outputs": [
        {
          "internalType": "uint256",
          "name": "qACFee",
          "type": "uint256"
        },
        {
          "internalType": "uint256",
          "name": "qTPMinted",
          "type": "uint256"
        },
        {
          "internalType": "uint256",
          "name": "qFeeToken",
          "type": "uint256"
        }
      ],
      "stateMutability": "payable",
      "type": "function"
    },
    {
      "inputs": [
        {
          "internalType": "uint256",
          "name": "iFrom_",
          "type": "uint256"
        },
        {
          "internalType": "uint256",
          "name": "iTo_",
          "type": "uint256"
        },
        {
          "internalType": "uint256",
          "name": "qTP_",
          "type": "uint256"
        },
        {
          "internalType": "uint256",
          "name": "qTPmin_",
          "type": "uint256"
        },
        {
          "internalType": "address",
          "name": "recipient_",
          "type": "address"
        },
        {
          "internalType": "address",
          "name": "vendor_",
          "type": "address"
        }
      ],
      "name": "swapTPforTPtoViaVendor",
      "outputs": [
        {
          "internalType": "uint256",
          "name": "qACFee",
          "type": "uint256"
        },
        {
          "internalType": "uint256",
          "name": "qTPMinted",
          "type": "uint256"
        },
        {
          "internalType": "uint256",
          "name": "qFeeToken",
          "type": "uint256"
        }
      ],
      "stateMutability": "payable",
      "type": "function"
    },
    {
      "inputs": [],
      "name": "tcMintFee",
      "outputs": [
        {
          "internalType": "uint256",
          "name": "",
          "type": "uint256"
        }
      ],
      "stateMutability": "view",
      "type": "function"
    },
    {
      "inputs": [],
      "name": "tcRedeemFee",
      "outputs": [
        {
          "internalType": "uint256",
          "name": "",
          "type": "uint256"
        }
      ],
      "stateMutability": "view",
      "type": "function"
    },
    {
      "inputs": [],
      "name": "tcToken",
      "outputs": [
        {
          "internalType": "contract MocTC",
          "name": "",
          "type": "address"
        }
      ],
      "stateMutability": "view",
      "type": "function"
    },
    {
      "inputs": [
        {
          "internalType": "uint256",
          "name": "",
          "type": "uint256"
        }
      ],
      "name": "tpCtarg",
      "outputs": [
        {
          "internalType": "uint256",
          "name": "",
          "type": "uint256"
        }
      ],
      "stateMutability": "view",
      "type": "function"
    },
    {
      "inputs": [
        {
          "internalType": "uint256",
          "name": "",
          "type": "uint256"
        }
      ],
      "name": "tpEma",
      "outputs": [
        {
          "internalType": "uint256",
          "name": "ema",
          "type": "uint256"
        },
        {
          "internalType": "uint256",
          "name": "sf",
          "type": "uint256"
        }
      ],
      "stateMutability": "view",
      "type": "function"
    },
    {
      "inputs": [
        {
          "internalType": "uint256",
          "name": "",
          "type": "uint256"
        }
      ],
      "name": "tpMintFee",
      "outputs": [
        {
          "internalType": "uint256",
          "name": "",
          "type": "uint256"
        }
      ],
      "stateMutability": "view",
      "type": "function"
    },
    {
      "inputs": [
        {
          "internalType": "uint256",
          "name": "",
          "type": "uint256"
        }
      ],
      "name": "tpRedeemFee",
      "outputs": [
        {
          "internalType": "uint256",
          "name": "",
          "type": "uint256"
        }
      ],
      "stateMutability": "view",
      "type": "function"
    },
    {
      "inputs": [
        {
          "internalType": "uint256",
          "name": "",
          "type": "uint256"
        }
      ],
      "name": "tpTokens",
      "outputs": [
        {
          "internalType": "contract IMocRC20",
          "name": "",
          "type": "address"
        }
      ],
      "stateMutability": "view",
      "type": "function"
    },
    {
      "inputs": [],
      "name": "unpause",
      "outputs": [],
      "stateMutability": "nonpayable",
      "type": "function"
    },
    {
      "inputs": [],
      "name": "updateEmas",
      "outputs": [],
      "stateMutability": "nonpayable",
      "type": "function"
    },
    {
      "inputs": [
        {
          "internalType": "address",
          "name": "newImplementation",
          "type": "address"
        }
      ],
      "name": "upgradeTo",
      "outputs": [],
      "stateMutability": "nonpayable",
      "type": "function"
    },
    {
      "inputs": [
        {
          "internalType": "address",
          "name": "newImplementation",
          "type": "address"
        },
        {
          "internalType": "bytes",
          "name": "data",
          "type": "bytes"
        }
      ],
      "name": "upgradeToAndCall",
      "outputs": [],
      "stateMutability": "payable",
      "type": "function"
    },
    {
      "stateMutability": "payable",
      "type": "receive"
    }
  ],
  "bytecode": "0x60a08060405234620000e157306080526000549060ff8260081c166200008f575060ff8082161062000053575b604051615bc19081620000e7823960805181818161316701528181613309015261361c0152f35b60ff90811916176000557f7f26b83ff96e1f2b6a682f133852f6798a09c465da95921460cefb3847402498602060405160ff8152a1386200002c565b62461bcd60e51b815260206004820152602760248201527f496e697469616c697a61626c653a20636f6e747261637420697320696e697469604482015266616c697a696e6760c81b6064820152608490fd5b600080fdfe6080604052600436101561002b575b361561001957600080fd5b610163610027348254614897565b9055005b600060e08135811c90816301dde6ef146141fc57816301f1b684146141b457816304856e41146141535781630ad8c234146140e95781630aed4f88146140885781630be9482d1461401b5781630c340a2414613ff25781630c36d89714613fd35781630d6ac46314613f8b5781630df12a8b14613e845781630e0a8fd214613e5e5781630f1e5e2b14613e165781630f60f39614613d3d578163102fefac14613cd357816317574bc514613b3557816317df0ab814613a6c5781631867e2f514613a4d5781631f79da55146139e35781631fb0dda0146139c25781631fe6a7ad146139865781632069f7531461396057816323b98cde1461393957816327eab2a1146138f15781632a20d57d146138d25781632c43bd3b146138ac5781632d88af4a146138535781632ded50f01461383457816331f64ec214613797578163333431fd1461377857816333421c38146136835781633659cfe6146135ea5781633bc4ac0a146135c45781633dbc50a9146135705781633f4ba83a146134f35781634017936a146134ae578163407f0e341461348f578163471a80e31461342a5781634b746001146133dd5781634d977e78146133be5781634e1f907a146133945781634f0f27ee146133755781634f1ef286146132815781635210570c146132595781635241271c1461322a57816352d1902d14613154578163543aeb481461312e57816354a73c62146130cc57816357271f4d1461309e5781635c616a7314612df45781635c975abb14612dce5781635d65d04514612d9a5781635e1e892814612d365781635e2a606514612d1a57816360009e0b14612cf0578163647846a514612cc6578163662013f414612ca25781636827435714612c775781636b5488df14612c585781637071346814612c3257816371820f1214612bcb5781637554fffd14612bac5781637750ba0c14612b8657816379f9a91c14612b675781637a193c3114612b485781637a4ff1d914612b225781637a727fe814612b035781637ad2819c14612a925781637af5758c14612a6c5781637c28799914612a025781637cba2383146129dc5781637d8e0314146129ad5781637dc4e77f1461286a5781637f01c71514612840578163826fcd581461281f57816382a5792c146127455781638456cb59146126ac5781638cfa42411461268d5781638d7a72f31461266e578163904aa85b1461264f5781639195c85b1461262e57816391f388d8146125c2578163979d9a88146121545781639839ee8514611f675781639853c35a14611f3d5781639abb14c914611e735781639ad6659d14611e3e5781639bdd7cce14611c095781639cabfc0014611bbc5781639fd0506d14611b8f578163a8e9ac3014611b6d578163ac4fc1a814611a3d578163aea038dc14611a1e578163b3903b39146119e7578163b7aef83714611889578163bad25a2114611711578163bb4872de146116ee578163be22b4e1146115e5578163becaca6b146115bf578163c00f538d14611599578163c039cc6914611553578163c6e06d891461136a578163c84353c914611344578163cf351c1d146112fc578163d1a0faa0146112de578163d8233ecc1461127e578163db7960721461123f578163de08160f14611202578163de8d520a146111d1578163e401294514611041578163e4c0aaf414610ffa578163e6a683e014610fb2578163e6b1627c14610f6f578163e7c2597814610f4b578163e8859a1514610f30578163ec62967914610d03578163f13f405414610cd9578163f26114aa14610c70578163f280877814610c4a578163f30b561414610c2b578163f375cfba14610c0c578163f5319cc81461098257508063fa6e83bd14610963578063fa79589e14610911578063fb3bfcea1461079a578063fcf207d4146105c55763fda70f8b146105a4575061000e565b346105c257806003193601126105c257602061016e54604051908152f35b80fd5b6106c16105d336600461433e565b9391604093919351916105e760c084614380565b825260208201908152604082019434865260608301338152608084019560018060a01b0380911687528060a0860193168352610621614d8f565b610629615b5a565b610631615a38565b61068661066e61063f61597c565b919061066261064f8a51856148ba565b519361065c858c51615223565b82614e65565b91848b518b519061527a565b610681670de0b6b3a764000087516149e1565b6149f4565b9361068f614d40565b506106b68284511686848751166106a98a51610176614222565b90549060031b1c92614ee3565b969182999199614897565b988a51808b1161077c5750891561076a5760409a61074b8594610751948d94878d8d61075e9f838e9151915116907fb1c19484081f58b25de95eb3695caea3c2167249920a6439ec0253054d343e738b868851169461073c8b5191805190602081015160406060908301519201519260405196879687614d67565b0390a45193519151169261518a565b51614a9f565b92511692511691806154bd565b82519182526020820152f35b60405163f3e39b5d60e01b8152600490fd5b6044908b60405191630b63f1a760e01b835260048301526024820152fd5b5060603660031901126105c2576001600160a01b036024358181169081900361090c5760443582811680910361090c5761086c906040516107dc60a082614380565b60043581526020810191348352604082013381526060830195865260808301918252610806614d8f565b61080e615b5a565b670de0b6b3a764000061084061083a610831610828614ca6565b61017b54614e65565b87519291614ea8565b906149e1565b049661084a614d40565b5061086181835116898386511661016e5492614ee3565b95918a989198614897565b978651808a116108ee5750881561076a578861075e9761074b6107519360409d8780978c828c51167f73ef11a21cabab55ca448e6e2ae4b60bda75ed8109e2496084c92dc17b8334db8985885116936108e1865191805190602081015160406060908301519201519260405196879687614d67565b0390a35192511691614db1565b6044908a60405191630b63f1a760e01b835260048301526024820152fd5b600080fd5b50346105c25760203660031901126105c257602061095b61094d60043561093661597c565b9061095561094484846148ba565b519485936148ce565b9590946158d4565b906152b5565b604051908152f35b50346105c257806003193601126105c257602061016c54604051908152f35b905061098f366004614264565b936109a06040949294519687614380565b8552602085015260408401523460608401523360808401526001600160a01b0390811660a08401521660c08201526109d6614d8f565b6109de615b5a565b6109e6615a38565b6109ee61597c565b9290610a40610a14610a018551876148ba565b5195610a0e878751615223565b83614e65565b90610a2582828660208a01516157f9565b6020860151670de0b6b3a764000093849161083a8585614ea8565b0493841561076a57610a8a93610a80610a768a610a7160208c015161083a88610a6c8b61016354614a9f565b614a9f565b6149e1565b61016654906149f4565b049788885161527a565b6040830151808510610bee5750610ac690610aa3614d40565b50608084015160c08501516101725492916001600160a01b039182169116614ee3565b919390926060820151808611610bcf57509181610b82610bcb9594610bae945160018060a01b0360808501511660018060a01b0360a086015116917ff4287b96e269f789f166db491b07456566f468352771e466ce088e98d6007a0c8c6020880151610b4a8a518b6020810151606060408301519201519260405196879687614d67565b0390a4610b6960208401518260018060a01b0360808701511691615452565b825160a08401516001600160a01b031691908a9061518a565b610b90866060830151614a9f565b608082015160c0909201516001600160a01b039081169216806154bd565b604051938493846040919493926060820195825260208201520152565b0390f35b604490845160405191630b63f1a760e01b835260048301526024820152fd5b604490856040519163272e3f5960e21b835260048301526024820152fd5b82346105c257806003193601126105c257602061017354604051908152f35b82346105c257806003193601126105c257602061016354604051908152f35b82346105c25760203660031901126105c257610c64615acc565b60043561016e55604051f35b905034610cd5573660031901126105c257610c89615acc565b6040516379308a5560e11b6020820152610ccf90610cbd81610caf600460248301615836565b03601f198101835282614380565b61021c546001600160a01b031661532b565b50604051f35b5080fd5b82346105c257806003193601126105c257610162546040516001600160a01b039091168152602090f35b82610d0f36600461433e565b90929160405192610d2160c085614380565b83526020830190815260408301923484526060810192338452608082019360018060a01b0380971685528660a0840192168252610d5c614d8f565b610d64615b5a565b610d6c615a38565b610d7461597c565b979098610d8285518a6148ba565b5199610d8f8b8751615223565b610d9c8a61017c54614e65565b5050610db2610dac88519b6148ce565b90614ea8565b90670de0b6b3a763ffff198101908111610f1c5790610e048c610681610de68e9f610e359d9e9f610e0a97610681916149e1565b93610dfe670de0b6b3a76400009161068183886149e1565b9f6149e1565b90614897565b97610e13614d40565b50610e2a838551168a858851166101745492614ee3565b97918b9a919a614897565b9a8051808d11610efe57508b1561076a5761074b8986958f958f95610bcb9f90610ef2610bae9f998f936107519b8f87908f977f3d9b2786930e9c1e492d52af3cc38bd2ffe9405d82b4997053a26a8956056200908f610ee588918c808d51975116975116975193805160208201519060606040840151930151936040519788978893909796959260c0959260e08601998652602086015260408501526060840152608083015260a08201520152565b0390a48486511691614db1565b5193519151169261518a565b6044908d60405191630b63f1a760e01b835260048301526024820152fd5b634e487b7160e01b83526011600452602483fd5b82346105c257806003193601126105c257602061095b615897565b82346105c257806003193601126105c257602060ff61017d54166040519015158152f35b82346105c25760203660031901126105c257600435906101b49081548310156105c2576040610f9e8484614364565b506001815491015482519182526020820152f35b82346105c25760203660031901126105c2576004356001600160a01b0381169081900361090c57610fe1615acc565b61021c80546001600160a01b0319169091179055604051f35b82346105c25760203660031901126105c2576004356001600160a01b03811690819003610cd557611029615acc565b6001600160601b0360a01b6097541617609755604051f35b82346105c257606036600319011261090c576044356001600160a01b03818116929183900361090c576040519261107960a085614380565b600435845260208401926024358452604085019233845260608601928352608086019182526110a6614d8f565b6110ae615b5a565b6110b6615a38565b670de0b6b3a76400006110f06110dc61083a896110e86110d461597c565b819591614e65565b929080958492516157f9565b8a5192614ea8565b0493841561076a5761112694611104614d40565b5061111b83835116828587511661016f5492614ee3565b999183989198614a9f565b97518089106111b35750928080846111a58c98958a9860409e61075e9c8f9a8b88807f96956e9e47738119037532fcf68a81b25d418eaf754281e005f11fa2d33bfffb93511693511693611196865191805190602081015160406060908301519201519260405196879687614d67565b0390a351908484511691615452565b5116945116915116926154bd565b60449089604051916354cde31360e01b835260048301526024820152fd5b82346105c257806003193601126105c257602061095b6111f76111f2614ca6565b6148ce565b905061016354614a9f565b82346105c25760203660031901126105c257600435906101769081548310156105c25760206112318484614222565b90546040519160031b1c8152f35b905034610cd5573660031901126105c257611258615acc565b604051636dbcb03960e11b6020820152610ccf90610cbd81610caf600460248301615836565b8260403660031901126105c2576001600160a01b036024358181169081900361090c5761086c6040516112b260a082614380565b600435815260208101903482526040810193338552606082019433865260808301918252610806614d8f565b82346105c257806003193601126105c2576112f7615a38565b604051f35b82346105c25760203660031901126105c2576004356001600160a01b0381169081900361090c5761132b615acc565b61016180546001600160a01b0319169091179055604051f35b82346105c25760203660031901126105c25761135e615acc565b60043561017e55604051f35b9050611377366004614299565b91939261138a6040969296519485614380565b835260208301938452604083019485526060830191348352608084019033825260a085019333855260c086019360018060a01b0380931685526113cb614d8f565b6113d3615b5a565b87611440610a716106818361143a8c6114046113ed614ca6565b6108286113fb8451836148ba565b51809451615223565b9590610a6c61143061142485610681670de0b6b3a7640000809a516149e1565b9a5161016654906149e1565b9761016354614a9f565b926149e1565b9951808b10801561154b575b61152d57506114719061145d614d40565b508486511690858851166101715492614ee3565b97919990988451808c1161150e5750869461074b8d86898f9597610bcb9f9e9c61075198610bae9f9d9b8f92858d61150695829f5183855116907fb8b8e75e42a3102026137da20c1d52f5e60a1b25d6e77ad232404575753e3fe08d868c5116946114f78b51918051906020810151606060408301519201519260405196879687614d67565b0390a4519351915116926153be565b511691614db1565b6044908a5160405191630b63f1a760e01b835260048301526024820152fd5b6044908b6040519163f577bef560e01b835260048301526024820152fd5b508a1561144c565b82346105c257806003193601126105c257602061095b611592610681670de0b6b3a764000061143a6115866111f2614ca6565b61016395919554614a9f565b9384614a9f565b82346105c25760203660031901126105c2576115b3615acc565b60043561016f55604051f35b82346105c25760203660031901126105c2576115d9615acc565b60043561016b55604051f35b90506115f2366004614299565b919094926116036040519586614380565b8452602084015260408301938452346060840152336080840181905260a08401526001600160a01b031660c083015261163a614d8f565b611642615b5a565b61164a615a38565b61165261597c565b936116a36116776116648651886148ba565b5196611671888851615223565b84614e65565b9061168882828760208b01516157f9565b6020870151670de0b6b3a764000093849161083a8585614ea8565b0494851561076a576116d9936116cf610a768b610a7160208d015161083a88610a6c8b61016354614a9f565b049889895161527a565b51808510610bee5750610ac690610aa3614d40565b82346105c257806003193601126105c257602060ff60ca54166040519015158152f35b82346105c2576117e3611725366004614264565b9060409593929495519561173a60c088614380565b8652602086019283526040860194855260608601338152608087019360018060a01b0380931685528260a0890194168452611773614d8f565b61177b615b5a565b6117b6611786614ca6565b6117a16117948b51836148ba565b5191610828838d51615223565b5050610681670de0b6b3a764000084516149e1565b6117be614d40565b506117d88484511682868851166106a98d51610177614222565b9a9183999199614a9f565b98821561076a5751808a1061186b5750938089946111a58c989583958960409f8d61075e9e9c517f94623cc0bdff77f15a945c5f7c85f92e30baeee629058db590ceeba3755ad3be8d8a808b51169451169461185b895191805190602081015160406060908301519201519260405196879687614d67565b0390a451915185855116926153be565b6044908a604051916354cde31360e01b835260048301526024820152fd5b905061196d6118993660046142bf565b9490919293604051906118ae61010083614380565b8152602081019485526040810193845260608101928352608081019534875260a082019333855260c08301903382528984019660018060a01b03988980951689526118f7614d8f565b6118ff615b5a565b611907614d40565b5060405195631c280ce160e01b6020880152516024870152516044860152516064850152516084840152875160a48401528185511660c4840152511660e4820152848451166101049081830152815261196261012482614380565b8461021c541661532b565b92838051810103948686126119e3576020850151966040860151986080606088015198605f1901126105c25750918061075189610bcb99989694610bae9896604051986119bb60808b614380565b60808101518a5260a081015160208b015260c081015160408b01520151606089015251614a9f565b8780fd5b8260403660031901126105c2576001600160a01b0390602435828116919082900361090c5761086c906040516107dc60a082614380565b82346105c257806003193601126105c257602061016f54604051908152f35b82604036600319011261090c5760405190611a5960c083614380565b60043582526020820190602435825260408301903482526060840192338452608085019433865260a08101838152611a8f614d8f565b611a97615b5a565b611a9f615a38565b611aa761597c565b969097611ab58451896148ba565b5198611ac28a8651615223565b611acf8961017c54614e65565b5050611adf610dac87519a6148ce565b90670de0b6b3a763ffff198101908111611b595790610e048b610681611b138d9e610681610e359d9e9f97611b31986149e1565b93611b2b670de0b6b3a76400009161068183886149e1565b9e6149e1565b96611b3a614d40565b5060018060a01b0391610e2a838551168a858851166101745492614ee3565b634e487b7160e01b88526011600452602488fd5b82346105c257806003193601126105c25760206101b554431015604051908152f35b82346105c257806003193601126105c25760ca5460405160109190911c6001600160a01b03168152602090f35b82346105c25760203660031901126105c2576004356001600160a01b0381169081900361090c57604082819281526101686020522060ff6001825492015416825191825215156020820152f35b905034610cd55790611ca291611c203660046142bf565b9293611c326040979397519687614380565b855260208501938452604085019586526060850152608084019233845260a085019060018060a01b03809416825260c08601838152611c6f614d8f565b611c77615b5a565b611ccc87610a71611cb6611cab611c8c614ca6565b611c978551826148ba565b519e8f809651615223565b61017c54614e65565b92819e9188516149e1565b670de0b6b3a764000093849161016654906149f4565b049a51808c11611e20575091611d068b611d00611d389b9c9d9e9461068185611cfa611d0d998c5199614ea8565b946149e1565b936149e1565b0490614897565b94611d16614d40565b50611d2d8189511687838551166101735492614ee3565b969188999199614a9f565b996060810151808c10611e0257508a1561076a57896111a58d8594848f99610bcb9f9d611df691610bae9f8f8f90918f92897f754f66f66f0afcd87e3edd11c0796fef32599efe490000fdb0f014e3ad9560fa918f9e8f80611de7925196511696511696885192805160208201519060606040840151930151936040519788978893909796959260c0959260e08601998652602086015260408501526060840152608083015260a08201520152565b0390a451908888511691615452565b519185855116926153be565b6044908c604051916354cde31360e01b835260048301526024820152fd5b6044908c60405191637a031da360e11b835260048301526024820152fd5b82346105c257806003193601126105c2576020611e65611e5f6111f2614ca6565b90614a75565b61017c541015604051908152f35b82346105c257604036600319011261090c5760405190611e9460a083614380565b6004358252602082019060243582526040830190338252606084019033825260808501908152611ec2614d8f565b611eca615b5a565b611ed2615a38565b670de0b6b3a7640000611f0b611ef761083a611f03611eef61597c565b819491614e65565b81819392958d516157f9565b895192614ea8565b04801561076a5761112693611f1e614d40565b5060018060a01b039161111b83835116828587511661016f5492614ee3565b82346105c257806003193601126105c257610178546040516001600160a01b039091168152602090f35b82606036600319011261090c5760405191611f829083614380565b600435825260208201602435815260408301916044358352606084013481526080850133815260a086019433865260c0870192848452611fc0614d8f565b611fc8615b5a565b611fd0615a38565b611fd861597c565b9790928951611fe7908a6148ba565b5198898b5190611ff691615223565b6120009085614e65565b8581838c519261200f936157f9565b895191670de0b6b3a764000080936120278484614ea8565b612030916149e1565b0496871561076a578c612067948f9e610a768f91610a7161205d935161083a89610a6c8c61016354614a9f565b049e8f905161527a565b51808a106121365750612078614d40565b5061209760018060a01b03938486511690858851166101725492614ee3565b97919990988451808c1161150e5750869461074b85858f8f959a610bcb9f9e9c9761212c610bae9f9d998f9b846107519c819f9e829f87517ff4287b96e269f789f166db491b07456566f468352771e466ce088e98d6007a0c8b86808a51169451169461211f8751918051906020810151606060408301519201519260405196879687614d67565b0390a45192511691615452565b519351169261518a565b6044908a6040519163272e3f5960e21b835260048301526024820152fd5b82346105c2576103003660031901126105c257805460ff8160081c1615908180926125b5575b801561259e575b156125425760ff198116600117835581612531575b508154906121a960ff8360081c16614ce0565b6102a4356001600160a01b0381169081900361090c5761021c80546001600160a01b03191690911790556001600160a01b03610264359081169081900361090c57610284356001600160a01b038116810361090c5760019161221060ff8660081c16614ce0565b61221f60ff8660081c16614ce0565b61222e60ff8660081c16614ce0565b61223d60ff8660081c16614ce0565b6001600160601b0360a01b609754161760975561225f60ff8560081c16614ce0565b60ca5490620100008360b01b039060101b169061ff018360b01b031916171760ca5561229060ff8360081c16614ce0565b670de0b6b3a764000060a4351061251f576122ac60e435615b7b565b6122b861010435615b7b565b6122c461012435615b7b565b6122d061014435615b7b565b6122dc61016435615b7b565b6122e861018435615b7b565b6122f46101a435615b7b565b6123006101c435615b7b565b61230c6101e435615b7b565b61232461231f6102243561020435614897565b615b7b565b6004356001600160a01b038116810361090c5761016180546001600160a01b0319166001600160a01b03928316179055602435908116810361090c5761016280546001600160a01b0319166001600160a01b03928316179055604435908116810361090c5761016580546001600160a01b0319166001600160a01b03928316179055606435908116810361090c5761017880546001600160a01b0319166001600160a01b03928316179055608435908116810361090c576101799060018060a01b03166001600160601b0360a01b82541617905560a43561017b5560c43561017c5560e43561016d556101043561016e556101243561016f556101443561017055610164356101715561018435610172556101a435610173556101c435610174556101e435610175556102043561016b556102243561016c5561246f610244358061017e5543614897565b61017f5561017d61ffff1981541690556102c43561249260ff8460081c16614ce0565b801561251f576101b681905543016101b5556102e4356001600160a01b0381169081900361090c576124c960ff8460081c16614ce0565b6101e980546001600160a01b03191690911790556124e75750604051f35b61ff00191681557f7f26b83ff96e1f2b6a682f133852f6798a09c465da95921460cefb3847402498602060405160018152a181610ccf565b604051632a9ffab760e21b8152600490fd5b61ffff191661010117825582612196565b60405162461bcd60e51b815260206004820152602e60248201527f496e697469616c697a61626c653a20636f6e747261637420697320616c72656160448201526d191e481a5b9a5d1a585b1a5e995960921b6064820152608490fd5b50303b1580156121815750600160ff821614612181565b50600160ff82161061217a565b82606036600319011261090c576001600160a01b0390604435828116919082900361090c576040516106c1916125f960c083614380565b600435825260208201906024358252604083019534875260608401903382526080850196875260a08501928352610621614d8f565b82346105c25760203660031901126105c257602061095b3333600435615741565b82346105c25760203660031901126105c257602061095b600435614bd0565b82346105c257806003193601126105c257602061028154604051908152f35b82346105c257806003193601126105c257602061017c54604051908152f35b82346105c257806003193601126105c2576126c5615b5a565b60ca54601081901c6001600160a01b031633036127335760ff811615612721576101009061ff0019161760ca557f62e78cea01bee320cd4e420270b5ea74000d11b0c9f74754ebdbfc544b05a2586020604051338152a1604051f35b60405163866099c360e01b8152600490fd5b604051631d77d47760e21b8152600490fd5b82604036600319011261090c576040519061276160c083614380565b60043582526106c16020830192602435845260408101933485526060820193338552608083019433865260a0840191825261279a614d8f565b6127a2615b5a565b6127aa615a38565b6127f46127e16127b861597c565b91906127d56127c88951856148ba565b519361065c858b51615223565b91848a518a519061527a565b610681670de0b6b3a764000086516149e1565b926127fd614d40565b5060018060a01b03906106b68284511686848751166106a98a51610176614222565b82346105c257806003193601126105c257602061095b611e5f6111f2614ca6565b82346105c257806003193601126105c2576101e9546040516001600160a01b039091168152602090f35b82612876366004614299565b939192604051956128879087614380565b8552602085019283526040850152606084013481526080850133815260a0860194600160a01b60019003809116865260c08701928484526128c6614d8f565b6128ce615b5a565b6128d6615a38565b6128de61597c565b979089516128ec908a6148ba565b5198898b51906128fb91615223565b6129059082614e65565b8281838c5192612914936157f9565b895191670de0b6b3a7640000809361292c8484614ea8565b612935916149e1565b0493841561076a578c612962948f9e610a768f91610a7161205d935161083a89610a6c8c61016354614a9f565b6040890151808b1061298f57506120979061297b614d40565b508486511690858851166101725492614ee3565b6044908b6040519163272e3f5960e21b835260048301526024820152fd5b82346105c25760203660031901126105c2576004359061017a9081548310156105c25760206112318484614222565b82346105c25760203660031901126105c2576129f6615acc565b60043561017b55604051f35b905034610cd55790611ca291612a193660046142bf565b9293612a2b6040979397519687614380565b855260208501938452604085019586526060850152336080850181815260a086019182526001600160a01b0393841660c08701908152909490611c6f614d8f565b82346105c25760203660031901126105c257612a86615acc565b60043561017255604051f35b905061196d612aa236600461430c565b9394906040969293965191612ab961010084614380565b8252602082019586526040820196875260608201938452608082019634885260a083019433865260c084019160018060a01b0398898095168452848c8701991689526118f7614d8f565b82346105c257806003193601126105c25760206101b654604051908152f35b82346105c25760203660031901126105c257612b3c615acc565b60043561017355604051f35b82346105c257806003193601126105c257602061016654604051908152f35b82346105c257806003193601126105c257602061017454604051908152f35b82346105c25760203660031901126105c257612ba0615acc565b60043561016d55604051f35b82346105c257806003193601126105c257602061016b54604051908152f35b82606036600319011261090c576001600160a01b036044358181169081900361090c5760405190612bfd60c083614380565b600435825260208201602435815260408301923484526060810192338452608082019333855260a08301918252610d5c614d8f565b82346105c25760203660031901126105c257612c4c615acc565b60043561017055604051f35b82346105c257806003193601126105c257602061017b54604051908152f35b82346105c257806003193601126105c257612c90615acc565b600160ff1960ca54161760ca55604051f35b82346105c257806003193601126105c2576020612cbd61597c565b50604051908152f35b82346105c257806003193601126105c257610161546040516001600160a01b039091168152602090f35b82346105c257806003193601126105c257610165546040516001600160a01b039091168152602090f35b82346105c257806003193601126105c257602a61028155604051f35b82346105c2576117e3612d4a366004614299565b9092939160405194612d5d60c087614380565b855260208501908152604085019384523360608601818152608087019182526001600160a01b0393841660a0880190815291939192611773614d8f565b82346105c25760403660031901126105c2576024356001600160a01b038116810361090c5761095b60209133600435615741565b82346105c257806003193601126105c257602060ff60ca5460081c166040519015158152f35b82346105c257806003193601126105c257612e0d615b5a565b61017f8054431061308c57612e2561017e5443614897565b90557fd3c59bda47e141a8ec5a33d241b7f71b86e30d359f83a9227d912858b60404fc81604051a18061016954612e5b81614ac4565b90835b818110612fbf57505081612ed7575b604051916040830190835260209060408285015282518091528160608501930191855b828110612ec357867fae5116a8119d08673a0f1dfa7546b95da4bd54bb17feda7c61130ac7859152f687870388a1604051f35b835185529381019392810192600101612e90565b90612eef670de0b6b3a76400009161016b54906149e1565b0490610163612eff838254614a9f565b90556101785461012f805490916001600160a01b031690600214612f7a576002825583612f31575b5060019055612e6d565b8015612f68578480809286604051915af1612f4a61478b565b5015612f565784612f27565b6040516312171d8360e31b8152600490fd5b60405163e6c4247b60e01b8152600490fd5b60405162461bcd60e51b815260206004820152601f60248201527f5265656e7472616e637947756172643a207265656e7472616e742063616c6c006044820152606490fd5b612fc881614bd0565b612fd28183615223565b8561018091612fe18484614222565b90549060031b1c90828213612ffd575b50505050600101612e5e565b8461304183600197969a61302a6130306130609761304797670de0b6b3a764000093849161016c546149e1565b046149e1565b0461303b858d6148ba565b52614897565b98614222565b819391549060031b600019811b9283911b169119161790565b905561308361306f82866148ba565b5187848060a01b036101795416918461518a565b90858780612ff1565b60405163101b685960e01b8152600490fd5b82346105c257806003193601126105c257602061095b61028154670de0b6b3a764000061017b540490614897565b82346105c2576117e3906130e1366004614299565b60405195919491936130f460c088614380565b8652602086019283526040860194855233606087019081526001600160a01b039182166080880190815260a0880193845293611773614d8f565b82346105c25760203660031901126105c257613148615acc565b60043561017555604051f35b82346105c257806003193601126105c2577f00000000000000000000000000000000000000000000000000000000000000006001600160a01b031630036131bf5760206040517f360894a13ba1a3210667c828492db98dca3e2076cc3735a920a3ca505d382bbc8152f35b60405162461bcd60e51b815260206004820152603860248201527f555550535570677261646561626c653a206d757374206e6f742062652063616c60448201527f6c6564207468726f7567682064656c656761746563616c6c00000000000000006064820152608490fd5b82346105c25760203660031901126105c257600435906101779081548310156105c25760206112318484614222565b82346105c257806003193601126105c257613272615acc565b60ff1960ca541660ca55604051f35b8260403660031901126105c2576001600160a01b03600435818116810361090c5782916024359167ffffffffffffffff831161337057366023840112156133705782600401356132d0816143b8565b926132de6040519485614380565b818452366024838701011161336c576112f79560208361335f946024600199018389013786010152807f00000000000000000000000000000000000000000000000000000000000000001690613336823014156143d4565b7f360894a13ba1a3210667c828492db98dca3e2076cc3735a920a3ca505d382bbc541614614435565b613367615acc565b614496565b8580fd5b505050fd5b82346105c257806003193601126105c257602061016d54604051908152f35b82346105c257806003193601126105c257610179546040516001600160a01b039091168152602090f35b82346105c257806003193601126105c257602061017e54604051908152f35b82346105c25760203660031901126105c257600435906101699081548310156105c257604061340c8484614364565b50805460019091015482519182526001600160a01b03166020820152f35b82346105c257606036600319011261090c576044356001600160a01b038181169182900361090c576040519161346160a084614380565b60043583526020830191602435835260408401913383526060850191338352608086019182526110a6614d8f565b82346105c257806003193601126105c257602061017054604051908152f35b82346105c257806003193601126105c257602061095b6134dd6134ed6134e76134d561597c565b9390936148ce565b81819392956152ea565b92614ea8565b906149f4565b82346105c257806003193601126105c25760ca5460ff8160081c161561355e57601081901c6001600160a01b031633036127335761ff00191660ca557f5db9ee0a495bf2e6ff9c91a7834c1ba4fdd244a5e8aa4e537bd38aeae4b073aa6020604051338152a1604051f35b604051637c7fd07960e01b8152600490fd5b82346105c25761358136600461433e565b906040519361359160a086614380565b8452602084019283526040840191338352606085019160018060a01b0380911683528060808701921682526110a6614d8f565b82346105c25760203660031901126105c2576135de615acc565b6004356101b655604051f35b82346105c25760203660031901126105c2576004356001600160a01b03808216820361090c576112f7916136498285937f00000000000000000000000000000000000000000000000000000000000000001690613336823014156143d4565b613651615acc565b61365a826143b8565b906136686040519283614380565b828252601f19613677846143b8565b01366020840137614496565b82346105c257806003193601126105c25761369c615b5a565b61017d805460ff81168061376a575b80613750575b6136bc575b82604051f35b61ff0019166101001790556040517f8b77276c97a5709f0d6db52329848a254eb760ce8be80d281799f633bdb69e838282a16101655482906001600160a01b0316803b15610cd55782600481848094638456cb5960e01b83525af1801561374357613733575b505061372c614af6565b81806136b6565b61373c91614380565b8181613722565b50604051903d90823e3d90fd5b5061375f611e5f6111f2614ca6565b61017c5410156136b1565b5060ff8160081c16156136ab565b82346105c257806003193601126105c257602061017154604051908152f35b8260203660031901126105c257604051906137b360a083614380565b600435825261086c6020830134815260408401933385526060810193338552608082019081526137e1614d8f565b6137e9615b5a565b670de0b6b3a764000061380c61083a613803610828614ca6565b86519291614ea8565b0495613816614d40565b5060018060a01b0361086181835116898386511661016e5492614ee3565b82346105c257806003193601126105c257602061017554604051908152f35b82346105c25760203660031901126105c2576004356001600160a01b0381168103610cd557613880615acc565b60ca805462010000600160b01b03191660109290921b62010000600160b01b0316919091179055604051f35b82346105c25760203660031901126105c2576138c6615acc565b60043561017c55604051f35b82346105c257806003193601126105c257602061017254604051908152f35b82346105c25760203660031901126105c2576004356001600160a01b03811690819003610cd557613920615acc565b61017980546001600160a01b0319169091179055604051f35b82346105c257806003193601126105c257602060ff61017d5460081c166040519015158152f35b82346105c25760203660031901126105c25761397a615acc565b60043561017455604051f35b82346105c25760203660031901126105c257600435801515809103610cd5576139ad615acc565b61017d9060ff80198354169116179055604051f35b82346105c257806003193601126105c257602061095b610dac6111f2614ca6565b8260603660031901126105c2576001600160a01b0360443581811690819003613a495760405190613a1560c083614380565b60043582526020820160243581526040830192348452606081013381526080820193845260a0820190878252610d5c614d8f565b8280fd5b82346105c257806003193601126105c257602061017f54604051908152f35b82346105c25760603660031901126105c25760405190613a8d60c083614380565b60043582526117e3602083016024358152604084019260443584526060850191338352608086019233845260a08701928352613ac7614d8f565b613acf615b5a565b613b0a613ada614ca6565b613af5613ae88a51836148ba565b5191610828838c51615223565b5050610681670de0b6b3a764000085516149e1565b91613b13614d40565b5060018060a01b03926117d88484511682868851166106a98d51610177614222565b905034610cd557611cab91613b4b3660046142ea565b939192613b5e6040969296519283614380565b8152602081019283526040810194855260608101938452608081019233845260a082019033825260c08301848152613b94614d8f565b613b9c615b5a565b613bc7613ba7614ca6565b610a71611cb6613bb88851846148ba565b519c8d93611ca2858b51615223565b049a51808c11611e20575091611d068b611d00613c289b9c9d9e9461068185611cfa613bf5998c5199614ea8565b94613bfe614d40565b5060018060a01b0390613c1d828a511688848651166101735492614ee3565b9791899a919a614a9f565b9a51808c10611e0257508a1561076a57896111a58d8594848f99610bcb9f9d611df691610bae9f8f8f90918f92897f754f66f66f0afcd87e3edd11c0796fef32599efe490000fdb0f014e3ad9560fa918f9e8f80611de7925196511696511696885192805160208201519060606040840151930151936040519788978893909796959260c0959260e08601998652602086015260408501526060840152608083015260a08201520152565b905034610cd55790611ca291613cea36600461430c565b91909394613cfe6040989498519788614380565b865260208601948552604086019687526060860152608085019333855260a086019160018060a01b0380951683528460c0880191168152611c6f614d8f565b9050613d4a3660046142ea565b60409291925193613d5d61010086614380565b845260208401918252604084019283526060840190815261196d608085019434865260a081019233845260c0820195338752888301958a8752613d9e614d8f565b613da6615b5a565b613dae614d40565b50604051631c280ce160e01b602082015293516024850152516044840152516064830152516084820152855160a482015282516001600160a01b0390811660c48301529451851660e48201528351851661010480830191909152815261196261012482614380565b82346105c25760203660031901126105c2576004356001600160a01b03811690819003610cd557613e45615acc565b61016280546001600160a01b0319169091179055604051f35b82346105c25760203660031901126105c257613e78615acc565b60043561017155604051f35b90506060366003190112610cd557613e9f6040519182614380565b600435815260208101906024358252604081019260443584526060820190348252608083013381528460a085019333855260c0860193808552613ee0614d8f565b613ee8615b5a565b613f2d610a716106818561143a8b613f016113ed614ca6565b9590610a6c611430613f2185610681670de0b6b3a7640000809a516149e1565b9c5161016654906149e1565b9851808a108015613f83575b613f655750613f46614d40565b5061147160018060a01b03938486511690858851166101715492614ee3565b6044908a6040519163f577bef560e01b835260048301526024820152fd5b508915613f39565b82346105c25760203660031901126105c2576004356001600160a01b03811690819003610cd557613fba615acc565b61017880546001600160a01b0319169091179055604051f35b82346105c257806003193601126105c25760206101b554604051908152f35b82346105c257806003193601126105c2576097546040516001600160a01b039091168152602090f35b905061196d61402b3660046142bf565b949091936040519061403f61010083614380565b8152602081019384526040810194855260608101928352608081019534875260a082019333855260c083019060018060a01b03978880941683528a8501978c89526118f7614d8f565b9050614095366004614299565b9193926140a86040969296519485614380565b835260208301938452604083019485526060830191348352608084019033825260a085019360018060a01b03809216855260c08601938085526113cb614d8f565b8260603660031901126105c2576001600160a01b0360443581811692908390036105c257506106c160405161411f60c082614380565b6004358152602081016024358152604082019434865260608301338152608084019533875260a08501928352610621614d8f565b8261415f366004614264565b9195936141726040969496519586614380565b845260208401948552604084019586526060840190348252608085019133835260a086019460018060a01b0380931686528260c08801951685526113cb614d8f565b82346105c25760203660031901126105c257600435906101679081548310156105c25760206141e38484614222565b905460405160039290921b1c6001600160a01b03168152f35b82346105c25760203660031901126105c257614216615acc565b60043561016c55604051f35b805482101561423a5760005260206000200190600090565b634e487b7160e01b600052603260045260246000fd5b35906001600160a01b038216820361090c57565b908160a091031261090c57803591602082013591604081013591614296608061428f60608501614250565b9301614250565b90565b919082608091031261090c57813591602081013591614296606060408401359301614250565b908160a091031261090c57803591602082013591604081013591614296608060608401359301614250565b919082608091031261090c578135916020810135916060604083013592013590565b91908260c091031261090c5781359160208101359160408201359160608101359161429660a061428f60808501614250565b919082608091031261090c57813591602081013591614296606061428f60408501614250565b805482101561423a5760005260206000209060011b0190600090565b90601f8019910116810190811067ffffffffffffffff8211176143a257604052565b634e487b7160e01b600052604160045260246000fd5b67ffffffffffffffff81116143a257601f01601f191660200190565b156143db57565b60405162461bcd60e51b815260206004820152602c60248201527f46756e6374696f6e206d7573742062652063616c6c6564207468726f7567682060448201526b19195b1959d85d1958d85b1b60a21b6064820152608490fd5b1561443c57565b60405162461bcd60e51b815260206004820152602c60248201527f46756e6374696f6e206d7573742062652063616c6c6564207468726f7567682060448201526b6163746976652070726f787960a01b6064820152608490fd5b9060ff7f4910fdfa16fed3260ed0e7147f7cc6da11a60208b5b9406d12a635614ffd914354166000146144d057506144ce91506146e9565b565b6040516352d1902d60e01b81526020939192916001600160a01b038316918581600481865afa600091816146ba575b506145605760405162461bcd60e51b815260048101879052602e60248201527f45524331393637557067726164653a206e657720696d706c656d656e7461746960448201526d6f6e206973206e6f74205555505360901b6064820152608490fd5b939492937fc9f76b5ec45e5cdef99837d7b6d2467235c1df8933c8ca56df5c35afa2c7d4440161466357614593846146e9565b604051917fbc7cd75a20ee27fd9adebab32041f755214dbc6bffa90cc0225b39da2e5c2d3b600084a28451159081159161465b575b506145d4575b50505050565b823b1561460c575082600092839261460295519201905af46145f461478b565b6145fc6147bb565b9161480f565b50388080806145ce565b60849162461bcd60e51b82526004820152602660248201527f416464726573733a2064656c65676174652063616c6c20746f206e6f6e2d636f6044820152651b9d1c9858dd60d21b6064820152fd5b9050386145c8565b60405162461bcd60e51b815260048101849052602960248201527f45524331393637557067726164653a20756e737570706f727465642070726f786044820152681a58589b195555525160ba1b6064820152608490fd5b90918782813d83116146e2575b6146d18183614380565b810103126105c257505190386144ff565b503d6146c7565b803b15614730577f360894a13ba1a3210667c828492db98dca3e2076cc3735a920a3ca505d382bbc80546001600160a01b0319166001600160a01b03909216919091179055565b60405162461bcd60e51b815260206004820152602d60248201527f455243313936373a206e657720696d706c656d656e746174696f6e206973206e60448201526c1bdd08184818dbdb9d1c9858dd609a1b6064820152608490fd5b3d156147b6573d9061479c826143b8565b916147aa6040519384614380565b82523d6000602084013e565b606090565b6147c560276143b8565b906147d36040519283614380565b60278252660819985a5b195960ca1b6040837f416464726573733a206c6f772d6c6576656c2064656c65676174652063616c6c60208201520152565b90916060911561481e57505090565b6144ce9193925b8051909250156148385750805190602001fd5b6040519062461bcd60e51b82528160208060048301528251908160248401526000935b82851061487e575050604492506000838284010152601f80199101168101030190fd5b848101820151868601604401529381019385935061485b565b919082018092116148a457565b634e487b7160e01b600052601160045260246000fd5b805182101561423a5760209160051b010190565b906000916000906101698054906000925b8284106149055750505050614901670de0b6b3a76400009161016b54906149e1565b0490565b90919293956149548561494e600193610e0461492184886148ba565b51610681670de0b6b3a7640000610a718b61494761493f868b61497a565b9a9092614364565b5054614897565b98614897565b94019291906148df565b919091600083820193841291129080158216911516176148a457565b91906000906149a88160009561499e61499582610180614222565b93905492614a14565b9160031b1c61495e565b600081136149b7575b50509190565b6149d991945061302a92508094670de0b6b3a764000093849161016c546149e1565b0438806149b1565b80600019048211811515166148a4570290565b81156149fe570490565b634e487b7160e01b600052601260045260246000fd5b90614a5a90614a54614a47614a3e670de0b6b3a7640000614a3787610169614364565b50546149e1565b94610181614222565b90549060031b1c846149f4565b926149f4565b90600082820392128183128116918313901516176148a45790565b8015614a9757610681670de0b6b3a7640000610a716142969461016354614a9f565b505060001990565b919082039182116148a457565b67ffffffffffffffff81116143a25760051b60200190565b90614ace82614aac565b614adb6040519182614380565b8281528092614aec601f1991614aac565b0190602036910137565b610163548015614bcd5761016990815491600090614b1384614ac4565b9082905b858210614b7d57505060005b848110614b31575050505050565b614b498461068185614b4385876148ba565b516149e1565b9061016a918254680100000000000000008110156143a2576130478160019586614b7594018155614222565b905501614b23565b9092614bc5600191614b8e86614bd0565b614b9887876148ba565b52610e04614ba68786614364565b5054610681670de0b6b3a7640000614bbe8a8a6148ba565b51926149e1565b930190614b17565b50565b614bdc90610169614364565b50600101546001600160a01b0316614bf381614c24565b91909115614bff575090565b60249060405190637f6e4db960e01b82526004820152fd5b5190811515820361090c57565b604080516359e02dd760e01b815292918190849060049082906001600160a01b03165afa928315614c9b576000918294614c5e5750509190565b90809450813d8311614c94575b614c758183614380565b810103126105c25750614c8c602083519301614c17565b9138806149b1565b503d614c6b565b50513d6000823e3d90fd5b6101695490614cb482614ac4565b9160005b818110614cc3575050565b80614ccf600192614bd0565b614cd982876148ba565b5201614cb8565b15614ce757565b60405162461bcd60e51b815260206004820152602b60248201527f496e697469616c697a61626c653a20636f6e7472616374206973206e6f74206960448201526a6e697469616c697a696e6760a81b6064820152608490fd5b60405190614d4f608083614380565b60006060838281528260208201528260408201520152565b9260a094919796959260c0850198855260208501526040840152606083015260808201520152565b60ff61017d5460081c16614d9f57565b604051631ca61d7760e01b8152600490fd5b614e1792602092610166614dc6848254614897565b9055614dd6610163918254614897565b9055610165546040516340c10f1960e01b81526001600160a01b03928316600482015260248101939093529193849290911690829060009082906044820190565b03925af18015614e5957614e285750565b6020813d8211614e51575b81614e4060209383614380565b8101031261090c57614bcd90614c17565b3d9150614e33565b6040513d6000823e3d90fd5b9190614e70906148ce565b919092614e7d8385614a75565b9080821115614e8a575050565b6044925060405191637912120160e01b835260048301526024820152fd5b9061016654908115614ed457670de0b6b3a7640000610a7161429694610a6c6106819461016354614a9f565b505050670de0b6b3a764000090565b929093916000916000918296614ef7614d40565b966001600160a01b03918590831680615107575b508261016154168360405193636eb1769f60e11b8552168060048501523060248501526020948585604481865afa9485156150fc5784956150c9575b5084614fa8575b505050505086015115614f64575b505050929190565b90919250614f7c670de0b6b3a76400009283926149e1565b04808552908215614fa057614f98920490816040860152614897565b388080614f5c565b509050614f98565b614fb6906101625416614c24565b92909215614f4e57909192939b50848b614ff085670de0b6b3a7640000614fea614fe08d8d6149e1565b61017554906149e1565b046149f4565b81830181815295908b156150bf575061501b9161500f6060928d6149f4565b91829101528551614897565b809d5b1092831561504a575b505050615037575b808080614f4e565b819299505280606088015296388061502f565b909192506024604051809481936370a0823160e01b835260048301525afa9081156150b457908b918491615083575b5010388481615027565b809250858092503d83116150ad575b61509c8183614380565b81010312613a49578a905138615079565b503d615092565b6040513d85823e3d90fd5b915050809d61501e565b9094508581813d83116150f5575b6150e18183614380565b810103126150f157519338614f47565b8380fd5b503d6150d7565b6040513d86823e3d90fd5b9095506020836101e95416916024604051809481936364a731e960e01b835260048301525afa801561517f57869061514c575b6151459150846149e1565b9438614f0b565b506020813d8211615177575b8161516560209383614380565b8101031261336c57615145905161513a565b3d9150615158565b6040513d88823e3d90fd5b615202936151c96000926020956151a382610169614364565b506151af878254614897565b90556151bf610163918254614897565b9055610167614222565b90546040516340c10f1960e01b81526001600160a01b039093166004840152602483019490945290948593928492909183906044820190565b039360039190911b1c6001600160a01b03165af18015614e5957614e285750565b613047615276916152348482614a14565b61526c61524383610180614222565b6152568294925492838360031b1c61495e565b919060031b600019811b9283911b169119161790565b9055610181614222565b9055565b926109558361528c96949397956158d4565b818110615297575050565b604492506040519163c39b739f60e01b835260048301526024820152fd5b936152c493610a7192956152ea565b670de0b6b3a763ffff1982019182116148a457670de0b6b3a764000091614901916149f4565b9091816152f78285614a75565b1115615323576142969261143a670de0b6b3a7640000610a7161531d9461016354614a9f565b90614a9f565b505050600090565b906142969160008061533b6147bb565b93602081519101845af461534d61478b565b92606091156153b1575050815115615363575090565b3b1561536c5790565b60405162461bcd60e51b815260206004820152601d60248201527f416464726573733a2063616c6c20746f206e6f6e2d636f6e74726163740000006044820152606490fd5b9093926144ce9250614825565b6153ec9193926153d082610169614364565b506153dc868254614a9f565b90556151bf610163918254614a9f565b905460039190911b1c6001600160a01b031691823b1561090c57604051632770a7eb60e21b81526001600160a01b0390921660048301526024820152906000908290818381604481015b03925af18015614e59576154475750565b60006144ce91614380565b9190610166615462848254614a9f565b9055615472610163918254614a9f565b9055610165546001600160a01b031691823b1561090c57604051632770a7eb60e21b81526001600160a01b039092166004830152602482015290600090829081838160448101615436565b8451929493919260009190156155e55750670de0b6b3a76400006154e661016d548651906149e1565b04916101636154f6848254614897565b90556101785485516001600160a01b03969187169461551491614a9f565b61012f946002865414612f7a5760028655816155be575b50506040015191946002845582615594575b505050600190555b61012f926002845414612f7a576002845580615565575b50505060019055565b6001600160a01b03821615612f685782918291604051915af161558661478b565b5015612f565738808061555c565b811615612f685760008092918192604051915af16155b061478b565b5015612f565738808061553d565b8015612f6857848092918192604051915af16155d861478b565b5015612f5657388061552b565b610178546020860151929561561594929360609261560d91906001600160a01b03168661561a565b01519161561a565b615545565b9190918161562757505050565b6156c09160008060018060a01b03938461016154169360405195602098818a8901946323b872dd60e01b8652166024890152166044870152606486015260648552615673608486614380565b61567c876143b8565b9461568a6040519687614380565b8786527f5361666545524332303a206c6f772d6c6576656c2063616c6c206661696c656488870152519082855af161534d61478b565b8051806156cc57505050565b8183918101031261090c57816156e29101614c17565b156156ea5750565b6084906040519062461bcd60e51b82526004820152602a60248201527f5361666545524332303a204552433230206f7065726174696f6e20646964206e6044820152691bdd081cdd58d8d9595960b21b6064820152fd5b6157a19061574d615b5a565b60405163e01dce2d60e01b602082015260248101919091526001600160a01b039283166044820152838316606482018190524760848084019190915282529261579760a483614380565b61021c541661532b565b60208180518101031261090c57602001519161012f916002835414612f7a5760028355836157d3575b50506001905590565b15612f6857600080809285604051915af16157ec61478b565b5015612f565738806157ca565b92806134e76134ed928561580d96956152ea565b818110615818575050565b604492506040519163a5db715d60e01b835260048301526024820152fd5b60e08101929160c09081906001600160a01b038061585383614250565b16855261586260208301614250565b16602085015260408101356040850152606081013560608501526080810135608085015260a081013560a08501520135910152565b61017f54804310156158ae57614296904390614a9f565b50600090565b906040516158c3604082614380565b602060018294805484520154910152565b6158e08161017a614222565b90549060031b1c916101b4916158f68184614364565b5054926101b554431015615921575b50508082101561591c5761068190614296936149e1565b505090565b829350615935615940939261593b92614364565b506158b4565b615948565b903880615905565b602081519101805192670de0b6b3a7640000938403908482116148a457615975610e0492614901956149e1565b92516149e1565b6000806101699182549261598f84614ac4565b9382915b858284106159be575050505081156159b257906159af916149f4565b91565b505061017b5460011b91565b610a71615a29859796610e046159f8615a208961068189610a71615a0a8460019d9e9f9c6159ee615a2f9e614bd0565b98899788926148ba565b52615a03868261497a565b5093614364565b50610a71670de0b6b3a764000093849254614897565b9485918c6158d4565b95614897565b94019190615993565b6101b58054431015615a475750565b6101695460005b818110615a615750506101b65443019055565b80807f19156e9379c7bbbce8f646ce5ee30ba860b8f954717405f3d5859a6c1a21ae606001936101b4615a976159358383614364565b90615ab5615aad615aa785614bd0565b84615948565b938492614364565b50555160409182519182526020820152a201615a4e565b60975460405163d994d6d560e01b815233600482015290602090829060249082906001600160a01b03165afa908115614e5957600091615b21575b5015615b0f57565b604051631dd1b1b560e21b8152600490fd5b906020823d8211615b52575b81615b3a60209383614380565b810103126105c25750615b4c90614c17565b38615b07565b3d9150615b2d565b60ff60ca5460081c16615b6957565b60405163783bb6c960e11b8152600490fd5b670de0b6b3a76400001061251f5756fea26469706673582212202a3060963d37d452ec672e073767dc3eb569132fcee7a983ae3d57612d9e75fa64736f6c63430008100033",
  "linkReferences": {},
  "deployedLinkReferences": {},
  "devdoc": {
    "details": "Only for upgradeability testing purposes. Extends MocCACoinbase adding a new variable.",
    "kind": "dev",
    "methods": {
      "addPeggedToken((address,address,uint256,uint256,uint256,uint256,uint256))": {
        "details": "Note that the ema value, should consider `nextEmaCalculation`  This function is implemented in MocCoreExpansion but with this contract contexttpTokenAddress Pegged Token contract address to add      priceProviderAddress Pegged Token price provider contract address      tpCtarg Pegged Token target coverage [PREC]      tpMintFee additional fee pct applied on mint [PREC]      tpRedeemFee additional fee pct applied on redeem [PREC]      tpEma initial Pegged Token exponential moving average [PREC]      tpEmaSf Pegged Token smoothing factor [PREC]  Requirements: - the caller must have governance authorization. - tpTokenAddress must be a MocRC20, with mint, burn roles already settled  for this contract",
        "params": {
          "peggedTokenParams_": "params of Pegged Token to add"
        }
      },
      "calcCtargemaCA()": {
        "details": "qAC = nTP / pACtp      ctargemaCA = (ctargemaTP * qAC) / (qAC)",
        "returns": {
          "ctargemaCA": "[PREC]"
        }
      },
      "changeGovernor(address)": {
        "params": {
          "newGovernor_": "New governor address"
        }
      },
      "editPeggedToken((address,address,uint256,uint256,uint256,uint256,uint256))": {
        "details": "Note that the ema value, should consider `nextEmaCalculation`  This function is implemented in MocCoreExpansion but with this contract contexttpTokenAddress Pegged Token contract address to identify the token to edit      priceProviderAddress Pegged Token price provider contract address      tpCtarg Pegged Token target coverage [PREC]      tpMintFee additional fee pct applied on mint [PREC]      tpRedeemFee additional fee pct applied on redeem [PREC]      tpEma initial Pegged Token exponential moving average [PREC]      tpEmaSf Pegged Token smoothing factor [PREC]  Requirements: - the caller must have governance authorization. - the tpTokenAddress must exists",
        "params": {
          "peggedTokenParams_": "params of Pegged Token to add"
        }
      },
      "getCglb()": {
        "returns": {
          "cglob": "[PREC]"
        }
      },
      "getLeverageTC()": {
        "returns": {
          "leverageTC": "[PREC]"
        }
      },
      "getPACtp(uint256)": {
        "params": {
          "i_": "Pegged Token index"
        },
        "returns": {
          "_0": "price [PREC]"
        }
      },
      "getPTCac()": {
        "returns": {
          "pTCac": "[PREC]"
        }
      },
      "getTCAvailableToRedeem()": {
        "details": "because it is a view function we are not calculating the new ema,  since we are using the last ema calculation, this may differ a little from the real amount  of TC available to redeem. Consider it an approximation.",
        "returns": {
          "tcAvailableToRedeem": "[N]"
        }
      },
      "getTPAvailableToMint(uint256)": {
        "details": "because it is a view function we are not calculating the new ema,  since we are using the last ema calculation, this may differ a little from the real amount  of TP available to mint. Consider it an approximation.",
        "params": {
          "i_": "Pegged Token index"
        },
        "returns": {
          "tpAvailableToMint": "[N]"
        }
      },
      "getTotalACavailable()": {
        "returns": {
          "totalACavailable": "[N]"
        }
      },
      "initialize(((address,address,address,address,address,uint256,uint256,uint256,uint256,uint256,uint256,uint256,uint256,uint256,uint256,uint256,uint256,uint256,uint256),address,address,address,uint256,address))": {
        "details": "governorAddress The address that will define when a change contract is authorized      pauserAddress The address that is authorized to pause this contract      tcTokenAddress Collateral Token contract address      mocFeeFlowAddress Moc Fee Flow contract address      mocAppreciationBeneficiaryAddress Moc appreciation beneficiary address      protThrld protected state threshold [PREC]      liqThrld liquidation coverage threshold [PREC]      feeRetainer pct retain on fees to be re-injected as Collateral, while paying fees with AC [PREC]      tcMintFee additional fee pct applied on mint Collateral Tokens operations [PREC]      tcRedeemFee additional fee pct applied on redeem Collateral Tokens operations [PREC]      successFee pct of the gain because Pegged Tokens devaluation that is transferred        in Collateral Asset to Moc Fee Flow during the settlement [PREC]      appreciationFactor pct of the gain because Pegged Tokens devaluation that is returned        in Pegged Tokens to appreciation beneficiary during the settlement [PREC]      emaCalculationBlockSpan amount of blocks to wait between Pegged ema calculation      bes number of blocks between settlements",
        "params": {
          "initializeCoreParams_": "contract initializer params"
        }
      },
      "isLiquidationReached()": {
        "returns": {
          "_0": "true if liquidation state is reached, false otherwise"
        }
      },
      "liqRedeemTP(uint256)": {
        "params": {
          "i_": "Pegged Token index"
        },
        "returns": {
          "qACRedeemed": "amount of AC sent to sender"
        }
      },
      "liqRedeemTPto(uint256,address)": {
        "params": {
          "i_": "Pegged Token index",
          "recipient_": "address who receives the AC"
        },
        "returns": {
          "qACRedeemed": "amount of AC sent to `recipient_`"
        }
      },
      "makeStoppable()": {
        "details": "Should be called through governance"
      },
      "makeUnstoppable()": {
        "details": "Should be called through governance"
      },
      "mintTC(uint256)": {
        "details": "any extra value, not spent on TC nor fees, will be return to sender",
        "params": {
          "qTC_": "amount of Collateral Token to mint"
        },
        "returns": {
          "qACtotalNeeded": "amount of AC used to mint qTC",
          "qFeeToken": "amount of Fee Token used by sender to pay fees. 0 if qAC is used instead"
        }
      },
      "mintTCViaVendor(uint256,address)": {
        "details": "any extra value, not spent on TC nor fees, will be return to sender",
        "params": {
          "qTC_": "amount of Collateral Token to mint",
          "vendor_": "address who receives a markup"
        },
        "returns": {
          "qACtotalNeeded": "amount of AC used to mint qTC",
          "qFeeToken": "amount of Fee Token used by sender to pay fees. 0 if qAC is used instead"
        }
      },
      "mintTCandTP(uint256,uint256)": {
        "params": {
          "i_": "Pegged Token index",
          "qTP_": "amount of Pegged Token to mint"
        },
        "returns": {
          "qACtotalNeeded": "amount of AC used to mint Collateral Token and Pegged Token",
          "qFeeToken": "amount of Fee Token used by sender to pay fees. 0 if qAC is used instead",
          "qTCtoMint": "amount of Collateral Token minted"
        }
      },
      "mintTCandTPViaVendor(uint256,uint256,address)": {
        "params": {
          "i_": "Pegged Token index",
          "qTP_": "amount of Pegged Token to mint",
          "vendor_": "address who receives a markup"
        },
        "returns": {
          "qACtotalNeeded": "amount of AC used to mint Collateral Token and Pegged Token",
          "qFeeToken": "amount of Fee Token used by sender to pay fees. 0 if qAC is used instead",
          "qTCtoMint": "amount of Collateral Token minted"
        }
      },
      "mintTCandTPto(uint256,uint256,address)": {
        "params": {
          "i_": "Pegged Token index",
          "qTP_": "amount of Pegged Token to mint",
          "recipient_": "address who receives the Collateral Token and Pegged Token"
        },
        "returns": {
          "qACtotalNeeded": "amount of AC used to mint Collateral Token and Pegged Token",
          "qFeeToken": "amount of Fee Token used by sender to pay fees. 0 if qAC is used instead",
          "qTCtoMint": "amount of Collateral Token minted"
        }
      },
      "mintTCandTPtoViaVendor(uint256,uint256,address,address)": {
        "params": {
          "i_": "Pegged Token index",
          "qTP_": "amount of Pegged Token to mint",
          "recipient_": "address who receives the Collateral Token and Pegged Token",
          "vendor_": "address who receives a markup"
        },
        "returns": {
          "qACtotalNeeded": "amount of AC used to mint Collateral Token and Pegged Token",
          "qFeeToken": "amount of Fee Token used by sender to pay fees. 0 if qAC is used instead",
          "qTCtoMint": "amount of Collateral Token minted"
        }
      },
      "mintTCto(uint256,address)": {
        "details": "any extra value, not spent on TC nor fees, will be return to sender",
        "params": {
          "qTC_": "amount of Collateral Token to mint",
          "recipient_": "address who receives the Collateral Token"
        },
        "returns": {
          "qACtotalNeeded": "amount of AC used to mint qTC",
          "qFeeToken": "amount of Fee Token used by sender to pay fees. 0 if qAC is used instead"
        }
      },
      "mintTCtoViaVendor(uint256,address,address)": {
        "details": "any extra value, not spent on TC nor fees, will be return to sender",
        "params": {
          "qTC_": "amount of Collateral Token to mint",
          "recipient_": "address who receives the Collateral Token",
          "vendor_": "address who receives a markup"
        },
        "returns": {
          "qACtotalNeeded": "amount of AC used to mint qTC",
          "qFeeToken": "amount of Fee Token used by sender to pay fees. 0 if qAC is used instead"
        }
      },
      "mintTP(uint256,uint256)": {
        "details": "any extra value, not spent on TP nor fees, will be return to sender",
        "params": {
          "i_": "Pegged Token index to mint",
          "qTP_": "amount of Pegged Token to mint"
        },
        "returns": {
          "qACtotalNeeded": "amount of AC used to mint qTP",
          "qFeeToken": "amount of Fee Token used by sender to pay fees. 0 if qAC is used instead"
        }
      },
      "mintTPViaVendor(uint256,uint256,address)": {
        "details": "any extra value, not spent on TP nor fees, will be return to sender",
        "params": {
          "i_": "Pegged Token index to mint",
          "qTP_": "amount of Pegged Token to mint",
          "vendor_": "address who receives a markup"
        },
        "returns": {
          "qACtotalNeeded": "amount of AC used to mint qTP",
          "qFeeToken": "amount of Fee Token used by sender to pay fees. 0 if qAC is used instead"
        }
      },
      "mintTPto(uint256,uint256,address)": {
        "details": "any extra value, not spent on TP nor fees, will be return to sender",
        "params": {
          "i_": "Pegged Token index to mint",
          "qTP_": "amount of Pegged Token to mint",
          "recipient_": "address who receives the Pegged Token"
        },
        "returns": {
          "qACtotalNeeded": "amount of AC used to mint qTP",
          "qFeeToken": "amount of Fee Token used by sender to pay fees. 0 if qAC is used instead"
        }
      },
      "mintTPtoViaVendor(uint256,uint256,address,address)": {
        "details": "any extra value, not spent on TP nor fees, will be return to sender",
        "params": {
          "i_": "Pegged Token index to mint",
          "qTP_": "amount of Pegged Token to mint",
          "recipient_": "address who receives the Pegged Token",
          "vendor_": "address who receives a markup"
        },
        "returns": {
          "qACtotalNeeded": "amount of AC used to mint qTP",
          "qFeeToken": "amount of Fee Token used by sender to pay fees. 0 if qAC is used instead"
        }
      },
      "pause()": {
        "details": "Should only be called by the pauser and when it is stoppable"
      },
      "proxiableUUID()": {
        "details": "Implementation of the ERC1822 {proxiableUUID} function. This returns the storage slot used by the implementation. It is used to validate the implementation's compatibility when performing an upgrade. IMPORTANT: A proxy pointing at a proxiable contract should not be considered proxiable itself, because this risks bricking a proxy that upgrades to it, by delegating to itself until out of gas. Thus it is critical that this function revert if invoked through a proxy. This is guaranteed by the `notDelegated` modifier."
      },
      "redeemTC(uint256,uint256)": {
        "params": {
          "qACmin_": "minimum amount of Collateral Asset that sender expects to receive",
          "qTC_": "amount of Collateral Token to redeem"
        },
        "returns": {
          "qACRedeemed": "amount of AC sent to sender",
          "qFeeToken": "amount of Fee Token used by sender to pay fees. 0 if qAC is used instead"
        }
      },
      "redeemTCViaVendor(uint256,uint256,address)": {
        "params": {
          "qACmin_": "minimum amount of Collateral Asset that sender expects to receive",
          "qTC_": "amount of Collateral Token to redeem",
          "vendor_": "address who receives a markup"
        },
        "returns": {
          "qACRedeemed": "amount of AC sent to sender",
          "qFeeToken": "amount of Fee Token used by sender to pay fees. 0 if qAC is used instead"
        }
      },
      "redeemTCandTP(uint256,uint256,uint256,uint256)": {
        "params": {
          "i_": "Pegged Token index",
          "qACmin_": "minimum amount of Collateral Asset that the sender expects to receive",
          "qTC_": "maximum amount of Collateral Token to redeem",
          "qTP_": "maximum amount of Pegged Token to redeem"
        },
        "returns": {
          "qACRedeemed": "amount of AC sent to the sender",
          "qFeeToken": "amount of Fee Token used by sender to pay fees. 0 if qAC is used instead",
          "qTPRedeemed": "amount of Pegged Token redeemed"
        }
      },
      "redeemTCandTPViaVendor(uint256,uint256,uint256,uint256,address)": {
        "params": {
          "i_": "Pegged Token index",
          "qACmin_": "minimum amount of Collateral Asset that the sender expects to receive",
          "qTC_": "maximum amount of Collateral Token to redeem",
          "qTP_": "maximum amount of Pegged Token to redeem",
          "vendor_": "address who receives a markup"
        },
        "returns": {
          "qACRedeemed": "amount of AC sent to the sender",
          "qFeeToken": "amount of Fee Token used by sender to pay fees. 0 if qAC is used instead",
          "qTPRedeemed": "amount of Pegged Token redeemed"
        }
      },
      "redeemTCandTPto(uint256,uint256,uint256,uint256,address)": {
        "params": {
          "i_": "Pegged Token index",
          "qACmin_": "minimum amount of Collateral Asset that `recipient_` expects to receive",
          "qTC_": "maximum amount of Collateral Token to redeem",
          "qTP_": "maximum amount of Pegged Token to redeem",
          "recipient_": "address who receives the Collateral Asset"
        },
        "returns": {
          "qACRedeemed": "amount of AC sent to the `recipient_`",
          "qFeeToken": "amount of Fee Token used by sender to pay fees. 0 if qAC is used instead",
          "qTPRedeemed": "amount of Pegged Token redeemed"
        }
      },
      "redeemTCandTPtoViaVendor(uint256,uint256,uint256,uint256,address,address)": {
        "params": {
          "i_": "Pegged Token index",
          "qACmin_": "minimum amount of Collateral Asset that `recipient_` expects to receive",
          "qTC_": "maximum amount of Collateral Token to redeem",
          "qTP_": "maximum amount of Pegged Token to redeem",
          "recipient_": "address who receives the Collateral Asset",
          "vendor_": "address who receives a markup"
        },
        "returns": {
          "qACRedeemed": "amount of AC sent to the `recipient_`",
          "qFeeToken": "amount of Fee Token used by sender to pay fees. 0 if qAC is used instead",
          "qTPRedeemed": "amount of Pegged Token redeemed"
        }
      },
      "redeemTCto(uint256,uint256,address)": {
        "params": {
          "qACmin_": "minimum amount of Collateral Asset that `recipient_` expects to receive",
          "qTC_": "amount of Collateral Token to redeem",
          "recipient_": "address who receives the Collateral Asset"
        },
        "returns": {
          "qACRedeemed": "amount of AC sent to 'recipient_'",
          "qFeeToken": "amount of Fee Token used by sender to pay fees. 0 if qAC is used instead"
        }
      },
      "redeemTCtoViaVendor(uint256,uint256,address,address)": {
        "params": {
          "qACmin_": "minimum amount of Collateral Asset that `recipient_` expects to receive",
          "qTC_": "amount of Collateral Token to redeem",
          "recipient_": "address who receives the Collateral Asset",
          "vendor_": "address who receives a markup"
        },
        "returns": {
          "qACRedeemed": "amount of AC sent to 'recipient_'",
          "qFeeToken": "amount of Fee Token used by sender to pay fees. 0 if qAC is used instead"
        }
      },
      "redeemTP(uint256,uint256,uint256)": {
        "params": {
          "i_": "Pegged Token index to redeem",
          "qACmin_": "minimum amount of Collateral Asset that sender expects to receive",
          "qTP_": "amount of Pegged Token to redeem"
        },
        "returns": {
          "qACRedeemed": "amount of AC sent to sender",
          "qFeeToken": "amount of Fee Token used by sender to pay fees. 0 if qAC is used instead"
        }
      },
      "redeemTPViaVendor(uint256,uint256,uint256,address)": {
        "params": {
          "i_": "Pegged Token index to redeem",
          "qACmin_": "minimum amount of Collateral Asset that sender expects to receive",
          "qTP_": "amount of Pegged Token to redeem",
          "vendor_": "address who receives a markup"
        },
        "returns": {
          "qACRedeemed": "amount of AC sent to sender",
          "qFeeToken": "amount of Fee Token used by sender to pay fees. 0 if qAC is used instead"
        }
      },
      "redeemTPto(uint256,uint256,uint256,address)": {
        "params": {
          "i_": "Pegged Token index to redeem",
          "qACmin_": "minimum amount of Collateral Asset that `recipient_` expects to receive",
          "qTP_": "amount of Pegged Token to redeem",
          "recipient_": "address who receives the Collateral Asset"
        },
        "returns": {
          "qACRedeemed": "amount of AC sent to 'recipient_'",
          "qFeeToken": "amount of Fee Token used by sender to pay fees. 0 if qAC is used instead"
        }
      },
      "redeemTPtoViaVendor(uint256,uint256,uint256,address,address)": {
        "params": {
          "i_": "Pegged Token index to redeem",
          "qACmin_": "minimum amount of Collateral Asset that `recipient_` expects to receive",
          "qTP_": "amount of Pegged Token to redeem",
          "recipient_": "address who receives the Collateral Asset",
          "vendor_": "address who receives a markup"
        },
        "returns": {
          "qACRedeemed": "amount of AC sent to 'recipient_'",
          "qFeeToken": "amount of Fee Token used by sender to pay fees. 0 if qAC is used instead"
        }
      },
      "setAppreciationFactor(uint256)": {
        "details": "sets appreciation Factor value.",
        "params": {
          "appreciationFactor_": "pct of the gain because Pegged Tokens devaluation that is returned in Pegged Tokens to appreciation beneficiary during the settlement [PREC]"
        }
      },
      "setBes(uint256)": {
        "params": {
          "bes_": "number of blocks between settlements*"
        }
      },
      "setEmaCalculationBlockSpan(uint256)": {
        "params": {
          "blockSpan_": "Defines how many blocks should pass between BMA calculations*"
        }
      },
      "setFeeRetainer(uint256)": {
        "details": "sets the fee pct to be retainer on AC fees payments as AC re-injection.",
        "params": {
          "feeRetainer_": "pct retain on fees to be re-injected as Collateral, while paying fees with AC [PREC] 0% = 0; 1% = 10 ** 16; 100% = 10 ** 18"
        }
      },
      "setFeeTokenAddress(address)": {
        "details": "sets Fee Token contract address",
        "params": {
          "mocFeeTokenAddress_": "Fee Token new contract address"
        }
      },
      "setFeeTokenPct(uint256)": {
        "details": "sets the fee applied on the top of the operation`s fee when using Fee Token as fee payment method.",
        "params": {
          "feeTokenPct_": "pct applied on the top of the operation`s fee when using Fee Token  as fee payment method [PREC]  e.g. if tcMintFee = 1%, FeeTokenPct = 50% => qFeeToken = 0.5%  0% = 0; 1% = 10 ** 16; 100% = 10 ** 18"
        }
      },
      "setFeeTokenPriceProviderAddress(address)": {
        "details": "sets Fee Token price provider contract address",
        "params": {
          "mocFeeTokenPriceProviderAddress_": "Fee Token price provider new contract address"
        }
      },
      "setLiqEnabled(bool)": {
        "details": "enables and disables the liquidation mechanism.",
        "params": {
          "liqEnabled_": "is liquidation enabled"
        }
      },
      "setLiqThrld(uint256)": {
        "details": "sets the value of the liq threshold configuration param",
        "params": {
          "liqThrld_": "liquidation threshold"
        }
      },
      "setMintTCandTPFee(uint256)": {
        "details": "sets the fee charged when mint Collateral Token and Pegged Token in one operation.",
        "params": {
          "mintTCandTPFee_": "additional fee pct applied on mint Collateral Token and Pegged Token [PREC] 0% = 0; 1% = 10 ** 16; 100% = 10 ** 18"
        }
      },
      "setMocAppreciationBeneficiaryAddress(address)": {
        "details": "sets Moc Appreciation Beneficiary Address",
        "params": {
          "mocAppreciationBeneficiaryAddress_": "moc Appreciation Beneficiary new address"
        }
      },
      "setMocCoreExpansion(address)": {
        "details": "sets Moc Core Expansion contract address",
        "params": {
          "mocCoreExpansion_": "moc core expansion new contract address"
        }
      },
      "setMocFeeFlowAddress(address)": {
        "details": "sets Moc Fee Flow contract address",
        "params": {
          "mocFeeFlowAddress_": "moc Fee Flow new contract address"
        }
      },
      "setPauser(address)": {
        "details": "Should be called through governance",
        "params": {
          "newPauser_": "Address of the new pauser"
        }
      },
      "setProtThrld(uint256)": {
        "details": "sets the value of the protected threshold configuration param",
        "params": {
          "protThrld_": "coverage protected state threshold [PREC]"
        }
      },
      "setRedeemTCandTPFee(uint256)": {
        "details": "sets the fee charged when redeem Collateral Token and Pegged Token in one operation.",
        "params": {
          "redeemTCandTPFee_": "additional fee pct applied on redeem Collateral Token and Pegged Token [PREC] 0% = 0; 1% = 10 ** 16; 100% = 10 ** 18"
        }
      },
      "setSuccessFee(uint256)": {
        "details": "sets success Fee value.",
        "params": {
          "successFee_": "pct of the gain because Pegged Tokens devaluation that is transferred in Collateral Asset to Moc Fee Flow during the settlement [PREC]"
        }
      },
      "setSwapTCforTPFee(uint256)": {
        "details": "sets the fee charged when swap Collateral Token for a Pegged Token.",
        "params": {
          "swapTCforTPFee_": "additional fee pct applied on swap Collateral Token for a Pegged Token [PREC] 0% = 0; 1% = 10 ** 16; 100% = 10 ** 18"
        }
      },
      "setSwapTPforTCFee(uint256)": {
        "details": "sets the fee charged when swap a Pegged Token for Collateral Token.",
        "params": {
          "swapTPforTCFee_": "additional fee pct applied on swap a Pegged Token for Collateral Token [PREC] 0% = 0; 1% = 10 ** 16; 100% = 10 ** 18"
        }
      },
      "setSwapTPforTPFee(uint256)": {
        "details": "sets the fee charged when swap a Pegged Token for another Pegged Token.",
        "params": {
          "swapTPforTPFee_": "additional fee pct applied on swap a Pegged Token for another Pegged Token [PREC] 0% = 0; 1% = 10 ** 16; 100% = 10 ** 18"
        }
      },
      "setTcMintFee(uint256)": {
        "details": "sets the fee charged on Token Collateral mint.",
        "params": {
          "tcMintFee_": "addition fee pct applied on Collateral Tokens mint [PREC] 0% = 0; 1% = 10 ** 16; 100% = 10 ** 18"
        }
      },
      "setTcRedeemFee(uint256)": {
        "details": "sets the fee charged on Token Collateral redeem.",
        "params": {
          "tcRedeemFee_": "addition fee pct applied on Collateral Tokens redeem [PREC] 0% = 0; 1% = 10 ** 16; 100% = 10 ** 18"
        }
      },
      "swapTCforTP(uint256,uint256,uint256)": {
        "params": {
          "i_": "Pegged Token index",
          "qTC_": "amount of Collateral Token to swap",
          "qTPmin_": "minimum amount of Pegged Token that the sender expects to receive"
        },
        "returns": {
          "qACFee": "amount of AC used to pay fee",
          "qFeeToken": "amount of Fee Token used by sender to pay fees. 0 if qAC is used instead",
          "qTPMinted": "amount of Pegged Token minted"
        }
      },
      "swapTCforTPViaVendor(uint256,uint256,uint256,address)": {
        "params": {
          "i_": "Pegged Token index",
          "qTC_": "amount of Collateral Token to swap",
          "qTPmin_": "minimum amount of Pegged Token that the sender expects to receive",
          "vendor_": "address who receives a markup"
        },
        "returns": {
          "qACFee": "amount of AC used to pay fee",
          "qFeeToken": "amount of Fee Token used by sender to pay fees. 0 if qAC is used instead",
          "qTPMinted": "amount of Pegged Token minted"
        }
      },
      "swapTCforTPto(uint256,uint256,uint256,address)": {
        "params": {
          "i_": "Pegged Token index",
          "qTC_": "amount of Collateral to swap",
          "qTPmin_": "minimum amount of Pegged Token that `recipient_` expects to receive",
          "recipient_": "address who receives the Pegged Token"
        },
        "returns": {
          "qACFee": "amount of AC used to pay fee",
          "qFeeToken": "amount of Fee Token used by sender to pay fees. 0 if qAC is used instead",
          "qTPMinted": "amount of Pegged Token minted"
        }
      },
      "swapTCforTPtoViaVendor(uint256,uint256,uint256,address,address)": {
        "params": {
          "i_": "Pegged Token index",
          "qTC_": "amount of Collateral to swap",
          "qTPmin_": "minimum amount of Pegged Token that `recipient_` expects to receive",
          "recipient_": "address who receives the Pegged Token",
          "vendor_": "address who receives a markup"
        },
        "returns": {
          "qACFee": "amount of AC used to pay fee",
          "qFeeToken": "amount of Fee Token used by sender to pay fees. 0 if qAC is used instead",
          "qTPMinted": "amount of Pegged Token minted"
        }
      },
      "swapTPforTC(uint256,uint256,uint256)": {
        "params": {
          "i_": "Pegged Token index",
          "qTCmin_": "minimum amount of Collateral Token that the sender expects to receive",
          "qTP_": "amount of owned Pegged Token to swap"
        },
        "returns": {
          "qACFee": "amount of AC used to pay fee",
          "qFeeToken": "amount of Fee Token used by sender to pay fees. 0 if qAC is used instead",
          "qTCMinted": "amount of Collateral Token minted"
        }
      },
      "swapTPforTCViaVendor(uint256,uint256,uint256,address)": {
        "params": {
          "i_": "Pegged Token index",
          "qTCmin_": "minimum amount of Collateral Token that the sender expects to receive",
          "qTP_": "amount of owned Pegged Token to swap",
          "vendor_": "address who receives a markup"
        },
        "returns": {
          "qACFee": "amount of AC used to pay fee",
          "qFeeToken": "amount of Fee Token used by sender to pay fees. 0 if qAC is used instead",
          "qTCMinted": "amount of Collateral Token minted"
        }
      },
      "swapTPforTCto(uint256,uint256,uint256,address)": {
        "params": {
          "i_": "Pegged Token index",
          "qTCmin_": "minimum amount of Collateral Token that `recipient_` expects to receive",
          "qTP_": "amount of owned Pegged Token to swap",
          "recipient_": "address who receives the Collateral Token"
        },
        "returns": {
          "qACFee": "amount of AC used to pay fee",
          "qFeeToken": "amount of Fee Token used by sender to pay fees. 0 if qAC is used instead",
          "qTCMinted": "amount of Collateral Token minted"
        }
      },
      "swapTPforTCtoViaVendor(uint256,uint256,uint256,address,address)": {
        "params": {
          "i_": "Pegged Token index",
          "qTCmin_": "minimum amount of Collateral Token that `recipient_` expects to receive",
          "qTP_": "amount of owned Pegged Token to swap",
          "recipient_": "address who receives the Collateral Token",
          "vendor_": "address who receives a markup"
        },
        "returns": {
          "qACFee": "amount of AC used to pay fee",
          "qFeeToken": "amount of Fee Token used by sender to pay fees. 0 if qAC is used instead",
          "qTCMinted": "amount of Collateral Token minted"
        }
      },
      "swapTPforTP(uint256,uint256,uint256,uint256)": {
        "params": {
          "iFrom_": "owned Pegged Token index",
          "iTo_": "target Pegged Token index",
          "qTP_": "amount of owned Pegged Token to swap",
          "qTPmin_": "minimum amount of target Pegged Token that the sender expects to receive"
        },
        "returns": {
          "qACFee": "amount of AC used to pay fee",
          "qFeeToken": "amount of Fee Token used by sender to pay fees. 0 if qAC is used instead",
          "qTPMinted": "amount of Pegged Token minted"
        }
      },
      "swapTPforTPViaVendor(uint256,uint256,uint256,uint256,address)": {
        "params": {
          "iFrom_": "owned Pegged Token index",
          "iTo_": "target Pegged Token index",
          "qTP_": "amount of owned Pegged Token to swap",
          "qTPmin_": "minimum amount of target Pegged Token that the sender expects to receive",
          "vendor_": "address who receives a markup"
        },
        "returns": {
          "qACFee": "amount of AC used to pay fee",
          "qFeeToken": "amount of Fee Token used by sender to pay fees. 0 if qAC is used instead",
          "qTPMinted": "amount of Pegged Token minted"
        }
      },
      "swapTPforTPto(uint256,uint256,uint256,uint256,address)": {
        "params": {
          "iFrom_": "owned Pegged Token index",
          "iTo_": "target Pegged Token index",
          "qTP_": "amount of owned Pegged Token to swap",
          "qTPmin_": "minimum amount of target Pegged Token that `recipient_` expects to receive",
          "recipient_": "address who receives the target Pegged Token"
        },
        "returns": {
          "qACFee": "amount of AC used to pay fee",
          "qFeeToken": "amount of Fee Token used by sender to pay fees. 0 if qAC is used instead",
          "qTPMinted": "amount of Pegged Token minted"
        }
      },
      "swapTPforTPtoViaVendor(uint256,uint256,uint256,uint256,address,address)": {
        "params": {
          "iFrom_": "owned Pegged Token index",
          "iTo_": "target Pegged Token index",
          "qTP_": "amount of owned Pegged Token to swap",
          "qTPmin_": "minimum amount of target Pegged Token that `recipient_` expects to receive",
          "recipient_": "address who receives the target Pegged Token",
          "vendor_": "address who receives a markup"
        },
        "returns": {
          "qACFee": "amount of AC used to pay fee",
          "qFeeToken": "amount of Fee Token used by sender to pay fees. 0 if qAC is used instead",
          "qTPMinted": "amount of Pegged Token minted"
        }
      },
      "updateEmas()": {
        "details": "All price provider prices must be available, fails if not"
      },
      "upgradeTo(address)": {
        "details": "Upgrade the implementation of the proxy to `newImplementation`. Calls {_authorizeUpgrade}. Emits an {Upgraded} event."
      },
      "upgradeToAndCall(address,bytes)": {
        "details": "Upgrade the implementation of the proxy to `newImplementation`, and subsequently execute the function call encoded in `data`. Calls {_authorizeUpgrade}. Emits an {Upgraded} event."
      }
    },
    "title": "MocCoinbaseMock",
    "version": 1
  },
  "evm": {
    "bytecode": {
      "linkReferences": {},
      "opcodes": "PUSH1 0xA0 DUP1 PUSH1 0x40 MSTORE CALLVALUE PUSH3 0xE1 JUMPI ADDRESS PUSH1 0x80 MSTORE PUSH1 0x0 SLOAD SWAP1 PUSH1 0xFF DUP3 PUSH1 0x8 SHR AND PUSH3 0x8F JUMPI POP PUSH1 0xFF DUP1 DUP3 AND LT PUSH3 0x53 JUMPI JUMPDEST PUSH1 0x40 MLOAD PUSH2 0x5BC1 SWAP1 DUP2 PUSH3 0xE7 DUP3 CODECOPY PUSH1 0x80 MLOAD DUP2 DUP2 DUP2 PUSH2 0x3167 ADD MSTORE DUP2 DUP2 PUSH2 0x3309 ADD MSTORE PUSH2 0x361C ADD MSTORE RETURN JUMPDEST PUSH1 0xFF SWAP1 DUP2 NOT AND OR PUSH1 0x0 SSTORE PUSH32 0x7F26B83FF96E1F2B6A682F133852F6798A09C465DA95921460CEFB3847402498 PUSH1 0x20 PUSH1 0x40 MLOAD PUSH1 0xFF DUP2 MSTORE LOG1 CODESIZE PUSH3 0x2C JUMP JUMPDEST PUSH3 0x461BCD PUSH1 0xE5 SHL DUP2 MSTORE PUSH1 0x20 PUSH1 0x4 DUP3 ADD MSTORE PUSH1 0x27 PUSH1 0x24 DUP3 ADD MSTORE PUSH32 0x496E697469616C697A61626C653A20636F6E747261637420697320696E697469 PUSH1 0x44 DUP3 ADD MSTORE PUSH7 0x616C697A696E67 PUSH1 0xC8 SHL PUSH1 0x64 DUP3 ADD MSTORE PUSH1 0x84 SWAP1 REVERT JUMPDEST PUSH1 0x0 DUP1 REVERT INVALID PUSH1 0x80 PUSH1 0x40 MSTORE PUSH1 0x4 CALLDATASIZE LT ISZERO PUSH2 0x2B JUMPI JUMPDEST CALLDATASIZE ISZERO PUSH2 0x19 JUMPI PUSH1 0x0 DUP1 REVERT JUMPDEST PUSH2 0x163 PUSH2 0x27 CALLVALUE DUP3 SLOAD PUSH2 0x4897 JUMP JUMPDEST SWAP1 SSTORE STOP JUMPDEST PUSH1 0x0 PUSH1 0xE0 DUP2 CALLDATALOAD DUP2 SHR SWAP1 DUP2 PUSH4 0x1DDE6EF EQ PUSH2 0x41FC JUMPI DUP2 PUSH4 0x1F1B684 EQ PUSH2 0x41B4 JUMPI DUP2 PUSH4 0x4856E41 EQ PUSH2 0x4153 JUMPI DUP2 PUSH4 0xAD8C234 EQ PUSH2 0x40E9 JUMPI DUP2 PUSH4 0xAED4F88 EQ PUSH2 0x4088 JUMPI DUP2 PUSH4 0xBE9482D EQ PUSH2 0x401B JUMPI DUP2 PUSH4 0xC340A24 EQ PUSH2 0x3FF2 JUMPI DUP2 PUSH4 0xC36D897 EQ PUSH2 0x3FD3 JUMPI DUP2 PUSH4 0xD6AC463 EQ PUSH2 0x3F8B JUMPI DUP2 PUSH4 0xDF12A8B EQ PUSH2 0x3E84 JUMPI DUP2 PUSH4 0xE0A8FD2 EQ PUSH2 0x3E5E JUMPI DUP2 PUSH4 0xF1E5E2B EQ PUSH2 0x3E16 JUMPI DUP2 PUSH4 0xF60F396 EQ PUSH2 0x3D3D JUMPI DUP2 PUSH4 0x102FEFAC EQ PUSH2 0x3CD3 JUMPI DUP2 PUSH4 0x17574BC5 EQ PUSH2 0x3B35 JUMPI DUP2 PUSH4 0x17DF0AB8 EQ PUSH2 0x3A6C JUMPI DUP2 PUSH4 0x1867E2F5 EQ PUSH2 0x3A4D JUMPI DUP2 PUSH4 0x1F79DA55 EQ PUSH2 0x39E3 JUMPI DUP2 PUSH4 0x1FB0DDA0 EQ PUSH2 0x39C2 JUMPI DUP2 PUSH4 0x1FE6A7AD EQ PUSH2 0x3986 JUMPI DUP2 PUSH4 0x2069F753 EQ PUSH2 0x3960 JUMPI DUP2 PUSH4 0x23B98CDE EQ PUSH2 0x3939 JUMPI DUP2 PUSH4 0x27EAB2A1 EQ PUSH2 0x38F1 JUMPI DUP2 PUSH4 0x2A20D57D EQ PUSH2 0x38D2 JUMPI DUP2 PUSH4 0x2C43BD3B EQ PUSH2 0x38AC JUMPI DUP2 PUSH4 0x2D88AF4A EQ PUSH2 0x3853 JUMPI DUP2 PUSH4 0x2DED50F0 EQ PUSH2 0x3834 JUMPI DUP2 PUSH4 0x31F64EC2 EQ PUSH2 0x3797 JUMPI DUP2 PUSH4 0x333431FD EQ PUSH2 0x3778 JUMPI DUP2 PUSH4 0x33421C38 EQ PUSH2 0x3683 JUMPI DUP2 PUSH4 0x3659CFE6 EQ PUSH2 0x35EA JUMPI DUP2 PUSH4 0x3BC4AC0A EQ PUSH2 0x35C4 JUMPI DUP2 PUSH4 0x3DBC50A9 EQ PUSH2 0x3570 JUMPI DUP2 PUSH4 0x3F4BA83A EQ PUSH2 0x34F3 JUMPI DUP2 PUSH4 0x4017936A EQ PUSH2 0x34AE JUMPI DUP2 PUSH4 0x407F0E34 EQ PUSH2 0x348F JUMPI DUP2 PUSH4 0x471A80E3 EQ PUSH2 0x342A JUMPI DUP2 PUSH4 0x4B746001 EQ PUSH2 0x33DD JUMPI DUP2 PUSH4 0x4D977E78 EQ PUSH2 0x33BE JUMPI DUP2 PUSH4 0x4E1F907A EQ PUSH2 0x3394 JUMPI DUP2 PUSH4 0x4F0F27EE EQ PUSH2 0x3375 JUMPI DUP2 PUSH4 0x4F1EF286 EQ PUSH2 0x3281 JUMPI DUP2 PUSH4 0x5210570C EQ PUSH2 0x3259 JUMPI DUP2 PUSH4 0x5241271C EQ PUSH2 0x322A JUMPI DUP2 PUSH4 0x52D1902D EQ PUSH2 0x3154 JUMPI DUP2 PUSH4 0x543AEB48 EQ PUSH2 0x312E JUMPI DUP2 PUSH4 0x54A73C62 EQ PUSH2 0x30CC JUMPI DUP2 PUSH4 0x57271F4D EQ PUSH2 0x309E JUMPI DUP2 PUSH4 0x5C616A73 EQ PUSH2 0x2DF4 JUMPI DUP2 PUSH4 0x5C975ABB EQ PUSH2 0x2DCE JUMPI DUP2 PUSH4 0x5D65D045 EQ PUSH2 0x2D9A JUMPI DUP2 PUSH4 0x5E1E8928 EQ PUSH2 0x2D36 JUMPI DUP2 PUSH4 0x5E2A6065 EQ PUSH2 0x2D1A JUMPI DUP2 PUSH4 0x60009E0B EQ PUSH2 0x2CF0 JUMPI DUP2 PUSH4 0x647846A5 EQ PUSH2 0x2CC6 JUMPI DUP2 PUSH4 0x662013F4 EQ PUSH2 0x2CA2 JUMPI DUP2 PUSH4 0x68274357 EQ PUSH2 0x2C77 JUMPI DUP2 PUSH4 0x6B5488DF EQ PUSH2 0x2C58 JUMPI DUP2 PUSH4 0x70713468 EQ PUSH2 0x2C32 JUMPI DUP2 PUSH4 0x71820F12 EQ PUSH2 0x2BCB JUMPI DUP2 PUSH4 0x7554FFFD EQ PUSH2 0x2BAC JUMPI DUP2 PUSH4 0x7750BA0C EQ PUSH2 0x2B86 JUMPI DUP2 PUSH4 0x79F9A91C EQ PUSH2 0x2B67 JUMPI DUP2 PUSH4 0x7A193C31 EQ PUSH2 0x2B48 JUMPI DUP2 PUSH4 0x7A4FF1D9 EQ PUSH2 0x2B22 JUMPI DUP2 PUSH4 0x7A727FE8 EQ PUSH2 0x2B03 JUMPI DUP2 PUSH4 0x7AD2819C EQ PUSH2 0x2A92 JUMPI DUP2 PUSH4 0x7AF5758C EQ PUSH2 0x2A6C JUMPI DUP2 PUSH4 0x7C287999 EQ PUSH2 0x2A02 JUMPI DUP2 PUSH4 0x7CBA2383 EQ PUSH2 0x29DC JUMPI DUP2 PUSH4 0x7D8E0314 EQ PUSH2 0x29AD JUMPI DUP2 PUSH4 0x7DC4E77F EQ PUSH2 0x286A JUMPI DUP2 PUSH4 0x7F01C715 EQ PUSH2 0x2840 JUMPI DUP2 PUSH4 0x826FCD58 EQ PUSH2 0x281F JUMPI DUP2 PUSH4 0x82A5792C EQ PUSH2 0x2745 JUMPI DUP2 PUSH4 0x8456CB59 EQ PUSH2 0x26AC JUMPI DUP2 PUSH4 0x8CFA4241 EQ PUSH2 0x268D JUMPI DUP2 PUSH4 0x8D7A72F3 EQ PUSH2 0x266E JUMPI DUP2 PUSH4 0x904AA85B EQ PUSH2 0x264F JUMPI DUP2 PUSH4 0x9195C85B EQ PUSH2 0x262E JUMPI DUP2 PUSH4 0x91F388D8 EQ PUSH2 0x25C2 JUMPI DUP2 PUSH4 0x979D9A88 EQ PUSH2 0x2154 JUMPI DUP2 PUSH4 0x9839EE85 EQ PUSH2 0x1F67 JUMPI DUP2 PUSH4 0x9853C35A EQ PUSH2 0x1F3D JUMPI DUP2 PUSH4 0x9ABB14C9 EQ PUSH2 0x1E73 JUMPI DUP2 PUSH4 0x9AD6659D EQ PUSH2 0x1E3E JUMPI DUP2 PUSH4 0x9BDD7CCE EQ PUSH2 0x1C09 JUMPI DUP2 PUSH4 0x9CABFC00 EQ PUSH2 0x1BBC JUMPI DUP2 PUSH4 0x9FD0506D EQ PUSH2 0x1B8F JUMPI DUP2 PUSH4 0xA8E9AC30 EQ PUSH2 0x1B6D JUMPI DUP2 PUSH4 0xAC4FC1A8 EQ PUSH2 0x1A3D JUMPI DUP2 PUSH4 0xAEA038DC EQ PUSH2 0x1A1E JUMPI DUP2 PUSH4 0xB3903B39 EQ PUSH2 0x19E7 JUMPI DUP2 PUSH4 0xB7AEF837 EQ PUSH2 0x1889 JUMPI DUP2 PUSH4 0xBAD25A21 EQ PUSH2 0x1711 JUMPI DUP2 PUSH4 0xBB4872DE EQ PUSH2 0x16EE JUMPI DUP2 PUSH4 0xBE22B4E1 EQ PUSH2 0x15E5 JUMPI DUP2 PUSH4 0xBECACA6B EQ PUSH2 0x15BF JUMPI DUP2 PUSH4 0xC00F538D EQ PUSH2 0x1599 JUMPI DUP2 PUSH4 0xC039CC69 EQ PUSH2 0x1553 JUMPI DUP2 PUSH4 0xC6E06D89 EQ PUSH2 0x136A JUMPI DUP2 PUSH4 0xC84353C9 EQ PUSH2 0x1344 JUMPI DUP2 PUSH4 0xCF351C1D EQ PUSH2 0x12FC JUMPI DUP2 PUSH4 0xD1A0FAA0 EQ PUSH2 0x12DE JUMPI DUP2 PUSH4 0xD8233ECC EQ PUSH2 0x127E JUMPI DUP2 PUSH4 0xDB796072 EQ PUSH2 0x123F JUMPI DUP2 PUSH4 0xDE08160F EQ PUSH2 0x1202 JUMPI DUP2 PUSH4 0xDE8D520A EQ PUSH2 0x11D1 JUMPI DUP2 PUSH4 0xE4012945 EQ PUSH2 0x1041 JUMPI DUP2 PUSH4 0xE4C0AAF4 EQ PUSH2 0xFFA JUMPI DUP2 PUSH4 0xE6A683E0 EQ PUSH2 0xFB2 JUMPI DUP2 PUSH4 0xE6B1627C EQ PUSH2 0xF6F JUMPI DUP2 PUSH4 0xE7C25978 EQ PUSH2 0xF4B JUMPI DUP2 PUSH4 0xE8859A15 EQ PUSH2 0xF30 JUMPI DUP2 PUSH4 0xEC629679 EQ PUSH2 0xD03 JUMPI DUP2 PUSH4 0xF13F4054 EQ PUSH2 0xCD9 JUMPI DUP2 PUSH4 0xF26114AA EQ PUSH2 0xC70 JUMPI DUP2 PUSH4 0xF2808778 EQ PUSH2 0xC4A JUMPI DUP2 PUSH4 0xF30B5614 EQ PUSH2 0xC2B JUMPI DUP2 PUSH4 0xF375CFBA EQ PUSH2 0xC0C JUMPI DUP2 PUSH4 0xF5319CC8 EQ PUSH2 0x982 JUMPI POP DUP1 PUSH4 0xFA6E83BD EQ PUSH2 0x963 JUMPI DUP1 PUSH4 0xFA79589E EQ PUSH2 0x911 JUMPI DUP1 PUSH4 0xFB3BFCEA EQ PUSH2 0x79A JUMPI DUP1 PUSH4 0xFCF207D4 EQ PUSH2 0x5C5 JUMPI PUSH4 0xFDA70F8B EQ PUSH2 0x5A4 JUMPI POP PUSH2 0xE JUMP JUMPDEST CALLVALUE PUSH2 0x5C2 JUMPI DUP1 PUSH1 0x3 NOT CALLDATASIZE ADD SLT PUSH2 0x5C2 JUMPI PUSH1 0x20 PUSH2 0x16E SLOAD PUSH1 0x40 MLOAD SWAP1 DUP2 MSTORE RETURN JUMPDEST DUP1 REVERT JUMPDEST PUSH2 0x6C1 PUSH2 0x5D3 CALLDATASIZE PUSH1 0x4 PUSH2 0x433E JUMP JUMPDEST SWAP4 SWAP2 PUSH1 0x40 SWAP4 SWAP2 SWAP4 MLOAD SWAP2 PUSH2 0x5E7 PUSH1 0xC0 DUP5 PUSH2 0x4380 JUMP JUMPDEST DUP3 MSTORE PUSH1 0x20 DUP3 ADD SWAP1 DUP2 MSTORE PUSH1 0x40 DUP3 ADD SWAP5 CALLVALUE DUP7 MSTORE PUSH1 0x60 DUP4 ADD CALLER DUP2 MSTORE PUSH1 0x80 DUP5 ADD SWAP6 PUSH1 0x1 DUP1 PUSH1 0xA0 SHL SUB DUP1 SWAP2 AND DUP8 MSTORE DUP1 PUSH1 0xA0 DUP7 ADD SWAP4 AND DUP4 MSTORE PUSH2 0x621 PUSH2 0x4D8F JUMP JUMPDEST PUSH2 0x629 PUSH2 0x5B5A JUMP JUMPDEST PUSH2 0x631 PUSH2 0x5A38 JUMP JUMPDEST PUSH2 0x686 PUSH2 0x66E PUSH2 0x63F PUSH2 0x597C JUMP JUMPDEST SWAP2 SWAP1 PUSH2 0x662 PUSH2 0x64F DUP11 MLOAD DUP6 PUSH2 0x48BA JUMP JUMPDEST MLOAD SWAP4 PUSH2 0x65C DUP6 DUP13 MLOAD PUSH2 0x5223 JUMP JUMPDEST DUP3 PUSH2 0x4E65 JUMP JUMPDEST SWAP2 DUP5 DUP12 MLOAD DUP12 MLOAD SWAP1 PUSH2 0x527A JUMP JUMPDEST PUSH2 0x681 PUSH8 0xDE0B6B3A7640000 DUP8 MLOAD PUSH2 0x49E1 JUMP JUMPDEST PUSH2 0x49F4 JUMP JUMPDEST SWAP4 PUSH2 0x68F PUSH2 0x4D40 JUMP JUMPDEST POP PUSH2 0x6B6 DUP3 DUP5 MLOAD AND DUP7 DUP5 DUP8 MLOAD AND PUSH2 0x6A9 DUP11 MLOAD PUSH2 0x176 PUSH2 0x4222 JUMP JUMPDEST SWAP1 SLOAD SWAP1 PUSH1 0x3 SHL SHR SWAP3 PUSH2 0x4EE3 JUMP JUMPDEST SWAP7 SWAP2 DUP3 SWAP10 SWAP2 SWAP10 PUSH2 0x4897 JUMP JUMPDEST SWAP9 DUP11 MLOAD DUP1 DUP12 GT PUSH2 0x77C JUMPI POP DUP10 ISZERO PUSH2 0x76A JUMPI PUSH1 0x40 SWAP11 PUSH2 0x74B DUP6 SWAP5 PUSH2 0x751 SWAP5 DUP14 SWAP5 DUP8 DUP14 DUP14 PUSH2 0x75E SWAP16 DUP4 DUP15 SWAP2 MLOAD SWAP2 MLOAD AND SWAP1 PUSH32 0xB1C19484081F58B25DE95EB3695CAEA3C2167249920A6439EC0253054D343E73 DUP12 DUP7 DUP9 MLOAD AND SWAP5 PUSH2 0x73C DUP12 MLOAD SWAP2 DUP1 MLOAD SWAP1 PUSH1 0x20 DUP2 ADD MLOAD PUSH1 0x40 PUSH1 0x60 SWAP1 DUP4 ADD MLOAD SWAP3 ADD MLOAD SWAP3 PUSH1 0x40 MLOAD SWAP7 DUP8 SWAP7 DUP8 PUSH2 0x4D67 JUMP JUMPDEST SUB SWAP1 LOG4 MLOAD SWAP4 MLOAD SWAP2 MLOAD AND SWAP3 PUSH2 0x518A JUMP JUMPDEST MLOAD PUSH2 0x4A9F JUMP JUMPDEST SWAP3 MLOAD AND SWAP3 MLOAD AND SWAP2 DUP1 PUSH2 0x54BD JUMP JUMPDEST DUP3 MLOAD SWAP2 DUP3 MSTORE PUSH1 0x20 DUP3 ADD MSTORE RETURN JUMPDEST PUSH1 0x40 MLOAD PUSH4 0xF3E39B5D PUSH1 0xE0 SHL DUP2 MSTORE PUSH1 0x4 SWAP1 REVERT JUMPDEST PUSH1 0x44 SWAP1 DUP12 PUSH1 0x40 MLOAD SWAP2 PUSH4 0xB63F1A7 PUSH1 0xE0 SHL DUP4 MSTORE PUSH1 0x4 DUP4 ADD MSTORE PUSH1 0x24 DUP3 ADD MSTORE REVERT JUMPDEST POP PUSH1 0x60 CALLDATASIZE PUSH1 0x3 NOT ADD SLT PUSH2 0x5C2 JUMPI PUSH1 0x1 PUSH1 0x1 PUSH1 0xA0 SHL SUB PUSH1 0x24 CALLDATALOAD DUP2 DUP2 AND SWAP1 DUP2 SWAP1 SUB PUSH2 0x90C JUMPI PUSH1 0x44 CALLDATALOAD DUP3 DUP2 AND DUP1 SWAP2 SUB PUSH2 0x90C JUMPI PUSH2 0x86C SWAP1 PUSH1 0x40 MLOAD PUSH2 0x7DC PUSH1 0xA0 DUP3 PUSH2 0x4380 JUMP JUMPDEST PUSH1 0x4 CALLDATALOAD DUP2 MSTORE PUSH1 0x20 DUP2 ADD SWAP2 CALLVALUE DUP4 MSTORE PUSH1 0x40 DUP3 ADD CALLER DUP2 MSTORE PUSH1 0x60 DUP4 ADD SWAP6 DUP7 MSTORE PUSH1 0x80 DUP4 ADD SWAP2 DUP3 MSTORE PUSH2 0x806 PUSH2 0x4D8F JUMP JUMPDEST PUSH2 0x80E PUSH2 0x5B5A JUMP JUMPDEST PUSH8 0xDE0B6B3A7640000 PUSH2 0x840 PUSH2 0x83A PUSH2 0x831 PUSH2 0x828 PUSH2 0x4CA6 JUMP JUMPDEST PUSH2 0x17B SLOAD PUSH2 0x4E65 JUMP JUMPDEST DUP8 MLOAD SWAP3 SWAP2 PUSH2 0x4EA8 JUMP JUMPDEST SWAP1 PUSH2 0x49E1 JUMP JUMPDEST DIV SWAP7 PUSH2 0x84A PUSH2 0x4D40 JUMP JUMPDEST POP PUSH2 0x861 DUP2 DUP4 MLOAD AND DUP10 DUP4 DUP7 MLOAD AND PUSH2 0x16E SLOAD SWAP3 PUSH2 0x4EE3 JUMP JUMPDEST SWAP6 SWAP2 DUP11 SWAP9 SWAP2 SWAP9 PUSH2 0x4897 JUMP JUMPDEST SWAP8 DUP7 MLOAD DUP1 DUP11 GT PUSH2 0x8EE JUMPI POP DUP9 ISZERO PUSH2 0x76A JUMPI DUP9 PUSH2 0x75E SWAP8 PUSH2 0x74B PUSH2 0x751 SWAP4 PUSH1 0x40 SWAP14 DUP8 DUP1 SWAP8 DUP13 DUP3 DUP13 MLOAD AND PUSH32 0x73EF11A21CABAB55CA448E6E2AE4B60BDA75ED8109E2496084C92DC17B8334DB DUP10 DUP6 DUP9 MLOAD AND SWAP4 PUSH2 0x8E1 DUP7 MLOAD SWAP2 DUP1 MLOAD SWAP1 PUSH1 0x20 DUP2 ADD MLOAD PUSH1 0x40 PUSH1 0x60 SWAP1 DUP4 ADD MLOAD SWAP3 ADD MLOAD SWAP3 PUSH1 0x40 MLOAD SWAP7 DUP8 SWAP7 DUP8 PUSH2 0x4D67 JUMP JUMPDEST SUB SWAP1 LOG3 MLOAD SWAP3 MLOAD AND SWAP2 PUSH2 0x4DB1 JUMP JUMPDEST PUSH1 0x44 SWAP1 DUP11 PUSH1 0x40 MLOAD SWAP2 PUSH4 0xB63F1A7 PUSH1 0xE0 SHL DUP4 MSTORE PUSH1 0x4 DUP4 ADD MSTORE PUSH1 0x24 DUP3 ADD MSTORE REVERT JUMPDEST PUSH1 0x0 DUP1 REVERT JUMPDEST POP CALLVALUE PUSH2 0x5C2 JUMPI PUSH1 0x20 CALLDATASIZE PUSH1 0x3 NOT ADD SLT PUSH2 0x5C2 JUMPI PUSH1 0x20 PUSH2 0x95B PUSH2 0x94D PUSH1 0x4 CALLDATALOAD PUSH2 0x936 PUSH2 0x597C JUMP JUMPDEST SWAP1 PUSH2 0x955 PUSH2 0x944 DUP5 DUP5 PUSH2 0x48BA JUMP JUMPDEST MLOAD SWAP5 DUP6 SWAP4 PUSH2 0x48CE JUMP JUMPDEST SWAP6 SWAP1 SWAP5 PUSH2 0x58D4 JUMP JUMPDEST SWAP1 PUSH2 0x52B5 JUMP JUMPDEST PUSH1 0x40 MLOAD SWAP1 DUP2 MSTORE RETURN JUMPDEST POP CALLVALUE PUSH2 0x5C2 JUMPI DUP1 PUSH1 0x3 NOT CALLDATASIZE ADD SLT PUSH2 0x5C2 JUMPI PUSH1 0x20 PUSH2 0x16C SLOAD PUSH1 0x40 MLOAD SWAP1 DUP2 MSTORE RETURN JUMPDEST SWAP1 POP PUSH2 0x98F CALLDATASIZE PUSH1 0x4 PUSH2 0x4264 JUMP JUMPDEST SWAP4 PUSH2 0x9A0 PUSH1 0x40 SWAP5 SWAP3 SWAP5 MLOAD SWAP7 DUP8 PUSH2 0x4380 JUMP JUMPDEST DUP6 MSTORE PUSH1 0x20 DUP6 ADD MSTORE PUSH1 0x40 DUP5 ADD MSTORE CALLVALUE PUSH1 0x60 DUP5 ADD MSTORE CALLER PUSH1 0x80 DUP5 ADD MSTORE PUSH1 0x1 PUSH1 0x1 PUSH1 0xA0 SHL SUB SWAP1 DUP2 AND PUSH1 0xA0 DUP5 ADD MSTORE AND PUSH1 0xC0 DUP3 ADD MSTORE PUSH2 0x9D6 PUSH2 0x4D8F JUMP JUMPDEST PUSH2 0x9DE PUSH2 0x5B5A JUMP JUMPDEST PUSH2 0x9E6 PUSH2 0x5A38 JUMP JUMPDEST PUSH2 0x9EE PUSH2 0x597C JUMP JUMPDEST SWAP3 SWAP1 PUSH2 0xA40 PUSH2 0xA14 PUSH2 0xA01 DUP6 MLOAD DUP8 PUSH2 0x48BA JUMP JUMPDEST MLOAD SWAP6 PUSH2 0xA0E DUP8 DUP8 MLOAD PUSH2 0x5223 JUMP JUMPDEST DUP4 PUSH2 0x4E65 JUMP JUMPDEST SWAP1 PUSH2 0xA25 DUP3 DUP3 DUP7 PUSH1 0x20 DUP11 ADD MLOAD PUSH2 0x57F9 JUMP JUMPDEST PUSH1 0x20 DUP7 ADD MLOAD PUSH8 0xDE0B6B3A7640000 SWAP4 DUP5 SWAP2 PUSH2 0x83A DUP6 DUP6 PUSH2 0x4EA8 JUMP JUMPDEST DIV SWAP4 DUP5 ISZERO PUSH2 0x76A JUMPI PUSH2 0xA8A SWAP4 PUSH2 0xA80 PUSH2 0xA76 DUP11 PUSH2 0xA71 PUSH1 0x20 DUP13 ADD MLOAD PUSH2 0x83A DUP9 PUSH2 0xA6C DUP12 PUSH2 0x163 SLOAD PUSH2 0x4A9F JUMP JUMPDEST PUSH2 0x4A9F JUMP JUMPDEST PUSH2 0x49E1 JUMP JUMPDEST PUSH2 0x166 SLOAD SWAP1 PUSH2 0x49F4 JUMP JUMPDEST DIV SWAP8 DUP9 DUP9 MLOAD PUSH2 0x527A JUMP JUMPDEST PUSH1 0x40 DUP4 ADD MLOAD DUP1 DUP6 LT PUSH2 0xBEE JUMPI POP PUSH2 0xAC6 SWAP1 PUSH2 0xAA3 PUSH2 0x4D40 JUMP JUMPDEST POP PUSH1 0x80 DUP5 ADD MLOAD PUSH1 0xC0 DUP6 ADD MLOAD PUSH2 0x172 SLOAD SWAP3 SWAP2 PUSH1 0x1 PUSH1 0x1 PUSH1 0xA0 SHL SUB SWAP2 DUP3 AND SWAP2 AND PUSH2 0x4EE3 JUMP JUMPDEST SWAP2 SWAP4 SWAP1 SWAP3 PUSH1 0x60 DUP3 ADD MLOAD DUP1 DUP7 GT PUSH2 0xBCF JUMPI POP SWAP2 DUP2 PUSH2 0xB82 PUSH2 0xBCB SWAP6 SWAP5 PUSH2 0xBAE SWAP5 MLOAD PUSH1 0x1 DUP1 PUSH1 0xA0 SHL SUB PUSH1 0x80 DUP6 ADD MLOAD AND PUSH1 0x1 DUP1 PUSH1 0xA0 SHL SUB PUSH1 0xA0 DUP7 ADD MLOAD AND SWAP2 PUSH32 0xF4287B96E269F789F166DB491B07456566F468352771E466CE088E98D6007A0C DUP13 PUSH1 0x20 DUP9 ADD MLOAD PUSH2 0xB4A DUP11 MLOAD DUP12 PUSH1 0x20 DUP2 ADD MLOAD PUSH1 0x60 PUSH1 0x40 DUP4 ADD MLOAD SWAP3 ADD MLOAD SWAP3 PUSH1 0x40 MLOAD SWAP7 DUP8 SWAP7 DUP8 PUSH2 0x4D67 JUMP JUMPDEST SUB SWAP1 LOG4 PUSH2 0xB69 PUSH1 0x20 DUP5 ADD MLOAD DUP3 PUSH1 0x1 DUP1 PUSH1 0xA0 SHL SUB PUSH1 0x80 DUP8 ADD MLOAD AND SWAP2 PUSH2 0x5452 JUMP JUMPDEST DUP3 MLOAD PUSH1 0xA0 DUP5 ADD MLOAD PUSH1 0x1 PUSH1 0x1 PUSH1 0xA0 SHL SUB AND SWAP2 SWAP1 DUP11 SWAP1 PUSH2 0x518A JUMP JUMPDEST PUSH2 0xB90 DUP7 PUSH1 0x60 DUP4 ADD MLOAD PUSH2 0x4A9F JUMP JUMPDEST PUSH1 0x80 DUP3 ADD MLOAD PUSH1 0xC0 SWAP1 SWAP3 ADD MLOAD PUSH1 0x1 PUSH1 0x1 PUSH1 0xA0 SHL SUB SWAP1 DUP2 AND SWAP3 AND DUP1 PUSH2 0x54BD JUMP JUMPDEST PUSH1 0x40 MLOAD SWAP4 DUP5 SWAP4 DUP5 PUSH1 0x40 SWAP2 SWAP5 SWAP4 SWAP3 PUSH1 0x60 DUP3 ADD SWAP6 DUP3 MSTORE PUSH1 0x20 DUP3 ADD MSTORE ADD MSTORE JUMP JUMPDEST SUB SWAP1 RETURN JUMPDEST PUSH1 0x44 SWAP1 DUP5 MLOAD PUSH1 0x40 MLOAD SWAP2 PUSH4 0xB63F1A7 PUSH1 0xE0 SHL DUP4 MSTORE PUSH1 0x4 DUP4 ADD MSTORE PUSH1 0x24 DUP3 ADD MSTORE REVERT JUMPDEST PUSH1 0x44 SWAP1 DUP6 PUSH1 0x40 MLOAD SWAP2 PUSH4 0x272E3F59 PUSH1 0xE2 SHL DUP4 MSTORE PUSH1 0x4 DUP4 ADD MSTORE PUSH1 0x24 DUP3 ADD MSTORE REVERT JUMPDEST DUP3 CALLVALUE PUSH2 0x5C2 JUMPI DUP1 PUSH1 0x3 NOT CALLDATASIZE ADD SLT PUSH2 0x5C2 JUMPI PUSH1 0x20 PUSH2 0x173 SLOAD PUSH1 0x40 MLOAD SWAP1 DUP2 MSTORE RETURN JUMPDEST DUP3 CALLVALUE PUSH2 0x5C2 JUMPI DUP1 PUSH1 0x3 NOT CALLDATASIZE ADD SLT PUSH2 0x5C2 JUMPI PUSH1 0x20 PUSH2 0x163 SLOAD PUSH1 0x40 MLOAD SWAP1 DUP2 MSTORE RETURN JUMPDEST DUP3 CALLVALUE PUSH2 0x5C2 JUMPI PUSH1 0x20 CALLDATASIZE PUSH1 0x3 NOT ADD SLT PUSH2 0x5C2 JUMPI PUSH2 0xC64 PUSH2 0x5ACC JUMP JUMPDEST PUSH1 0x4 CALLDATALOAD PUSH2 0x16E SSTORE PUSH1 0x40 MLOAD RETURN JUMPDEST SWAP1 POP CALLVALUE PUSH2 0xCD5 JUMPI CALLDATASIZE PUSH1 0x3 NOT ADD SLT PUSH2 0x5C2 JUMPI PUSH2 0xC89 PUSH2 0x5ACC JUMP JUMPDEST PUSH1 0x40 MLOAD PUSH4 0x79308A55 PUSH1 0xE1 SHL PUSH1 0x20 DUP3 ADD MSTORE PUSH2 0xCCF SWAP1 PUSH2 0xCBD DUP2 PUSH2 0xCAF PUSH1 0x4 PUSH1 0x24 DUP4 ADD PUSH2 0x5836 JUMP JUMPDEST SUB PUSH1 0x1F NOT DUP2 ADD DUP4 MSTORE DUP3 PUSH2 0x4380 JUMP JUMPDEST PUSH2 0x21C SLOAD PUSH1 0x1 PUSH1 0x1 PUSH1 0xA0 SHL SUB AND PUSH2 0x532B JUMP JUMPDEST POP PUSH1 0x40 MLOAD RETURN JUMPDEST POP DUP1 REVERT JUMPDEST DUP3 CALLVALUE PUSH2 0x5C2 JUMPI DUP1 PUSH1 0x3 NOT CALLDATASIZE ADD SLT PUSH2 0x5C2 JUMPI PUSH2 0x162 SLOAD PUSH1 0x40 MLOAD PUSH1 0x1 PUSH1 0x1 PUSH1 0xA0 SHL SUB SWAP1 SWAP2 AND DUP2 MSTORE PUSH1 0x20 SWAP1 RETURN JUMPDEST DUP3 PUSH2 0xD0F CALLDATASIZE PUSH1 0x4 PUSH2 0x433E JUMP JUMPDEST SWAP1 SWAP3 SWAP2 PUSH1 0x40 MLOAD SWAP3 PUSH2 0xD21 PUSH1 0xC0 DUP6 PUSH2 0x4380 JUMP JUMPDEST DUP4 MSTORE PUSH1 0x20 DUP4 ADD SWAP1 DUP2 MSTORE PUSH1 0x40 DUP4 ADD SWAP3 CALLVALUE DUP5 MSTORE PUSH1 0x60 DUP2 ADD SWAP3 CALLER DUP5 MSTORE PUSH1 0x80 DUP3 ADD SWAP4 PUSH1 0x1 DUP1 PUSH1 0xA0 SHL SUB DUP1 SWAP8 AND DUP6 MSTORE DUP7 PUSH1 0xA0 DUP5 ADD SWAP3 AND DUP3 MSTORE PUSH2 0xD5C PUSH2 0x4D8F JUMP JUMPDEST PUSH2 0xD64 PUSH2 0x5B5A JUMP JUMPDEST PUSH2 0xD6C PUSH2 0x5A38 JUMP JUMPDEST PUSH2 0xD74 PUSH2 0x597C JUMP JUMPDEST SWAP8 SWAP1 SWAP9 PUSH2 0xD82 DUP6 MLOAD DUP11 PUSH2 0x48BA JUMP JUMPDEST MLOAD SWAP10 PUSH2 0xD8F DUP12 DUP8 MLOAD PUSH2 0x5223 JUMP JUMPDEST PUSH2 0xD9C DUP11 PUSH2 0x17C SLOAD PUSH2 0x4E65 JUMP JUMPDEST POP POP PUSH2 0xDB2 PUSH2 0xDAC DUP9 MLOAD SWAP12 PUSH2 0x48CE JUMP JUMPDEST SWAP1 PUSH2 0x4EA8 JUMP JUMPDEST SWAP1 PUSH8 0xDE0B6B3A763FFFF NOT DUP2 ADD SWAP1 DUP2 GT PUSH2 0xF1C JUMPI SWAP1 PUSH2 0xE04 DUP13 PUSH2 0x681 PUSH2 0xDE6 DUP15 SWAP16 PUSH2 0xE35 SWAP14 SWAP15 SWAP16 PUSH2 0xE0A SWAP8 PUSH2 0x681 SWAP2 PUSH2 0x49E1 JUMP JUMPDEST SWAP4 PUSH2 0xDFE PUSH8 0xDE0B6B3A7640000 SWAP2 PUSH2 0x681 DUP4 DUP9 PUSH2 0x49E1 JUMP JUMPDEST SWAP16 PUSH2 0x49E1 JUMP JUMPDEST SWAP1 PUSH2 0x4897 JUMP JUMPDEST SWAP8 PUSH2 0xE13 PUSH2 0x4D40 JUMP JUMPDEST POP PUSH2 0xE2A DUP4 DUP6 MLOAD AND DUP11 DUP6 DUP9 MLOAD AND PUSH2 0x174 SLOAD SWAP3 PUSH2 0x4EE3 JUMP JUMPDEST SWAP8 SWAP2 DUP12 SWAP11 SWAP2 SWAP11 PUSH2 0x4897 JUMP JUMPDEST SWAP11 DUP1 MLOAD DUP1 DUP14 GT PUSH2 0xEFE JUMPI POP DUP12 ISZERO PUSH2 0x76A JUMPI PUSH2 0x74B DUP10 DUP7 SWAP6 DUP16 SWAP6 DUP16 SWAP6 PUSH2 0xBCB SWAP16 SWAP1 PUSH2 0xEF2 PUSH2 0xBAE SWAP16 SWAP10 DUP16 SWAP4 PUSH2 0x751 SWAP12 DUP16 DUP8 SWAP1 DUP16 SWAP8 PUSH32 0x3D9B2786930E9C1E492D52AF3CC38BD2FFE9405D82B4997053A26A8956056200 SWAP1 DUP16 PUSH2 0xEE5 DUP9 SWAP2 DUP13 DUP1 DUP14 MLOAD SWAP8 MLOAD AND SWAP8 MLOAD AND SWAP8 MLOAD SWAP4 DUP1 MLOAD PUSH1 0x20 DUP3 ADD MLOAD SWAP1 PUSH1 0x60 PUSH1 0x40 DUP5 ADD MLOAD SWAP4 ADD MLOAD SWAP4 PUSH1 0x40 MLOAD SWAP8 DUP9 SWAP8 DUP9 SWAP4 SWAP1 SWAP8 SWAP7 SWAP6 SWAP3 PUSH1 0xC0 SWAP6 SWAP3 PUSH1 0xE0 DUP7 ADD SWAP10 DUP7 MSTORE PUSH1 0x20 DUP7 ADD MSTORE PUSH1 0x40 DUP6 ADD MSTORE PUSH1 0x60 DUP5 ADD MSTORE PUSH1 0x80 DUP4 ADD MSTORE PUSH1 0xA0 DUP3 ADD MSTORE ADD MSTORE JUMP JUMPDEST SUB SWAP1 LOG4 DUP5 DUP7 MLOAD AND SWAP2 PUSH2 0x4DB1 JUMP JUMPDEST MLOAD SWAP4 MLOAD SWAP2 MLOAD AND SWAP3 PUSH2 0x518A JUMP JUMPDEST PUSH1 0x44 SWAP1 DUP14 PUSH1 0x40 MLOAD SWAP2 PUSH4 0xB63F1A7 PUSH1 0xE0 SHL DUP4 MSTORE PUSH1 0x4 DUP4 ADD MSTORE PUSH1 0x24 DUP3 ADD MSTORE REVERT JUMPDEST PUSH4 0x4E487B71 PUSH1 0xE0 SHL DUP4 MSTORE PUSH1 0x11 PUSH1 0x4 MSTORE PUSH1 0x24 DUP4 REVERT JUMPDEST DUP3 CALLVALUE PUSH2 0x5C2 JUMPI DUP1 PUSH1 0x3 NOT CALLDATASIZE ADD SLT PUSH2 0x5C2 JUMPI PUSH1 0x20 PUSH2 0x95B PUSH2 0x5897 JUMP JUMPDEST DUP3 CALLVALUE PUSH2 0x5C2 JUMPI DUP1 PUSH1 0x3 NOT CALLDATASIZE ADD SLT PUSH2 0x5C2 JUMPI PUSH1 0x20 PUSH1 0xFF PUSH2 0x17D SLOAD AND PUSH1 0x40 MLOAD SWAP1 ISZERO ISZERO DUP2 MSTORE RETURN JUMPDEST DUP3 CALLVALUE PUSH2 0x5C2 JUMPI PUSH1 0x20 CALLDATASIZE PUSH1 0x3 NOT ADD SLT PUSH2 0x5C2 JUMPI PUSH1 0x4 CALLDATALOAD SWAP1 PUSH2 0x1B4 SWAP1 DUP2 SLOAD DUP4 LT ISZERO PUSH2 0x5C2 JUMPI PUSH1 0x40 PUSH2 0xF9E DUP5 DUP5 PUSH2 0x4364 JUMP JUMPDEST POP PUSH1 0x1 DUP2 SLOAD SWAP2 ADD SLOAD DUP3 MLOAD SWAP2 DUP3 MSTORE PUSH1 0x20 DUP3 ADD MSTORE RETURN JUMPDEST DUP3 CALLVALUE PUSH2 0x5C2 JUMPI PUSH1 0x20 CALLDATASIZE PUSH1 0x3 NOT ADD SLT PUSH2 0x5C2 JUMPI PUSH1 0x4 CALLDATALOAD PUSH1 0x1 PUSH1 0x1 PUSH1 0xA0 SHL SUB DUP2 AND SWAP1 DUP2 SWAP1 SUB PUSH2 0x90C JUMPI PUSH2 0xFE1 PUSH2 0x5ACC JUMP JUMPDEST PUSH2 0x21C DUP1 SLOAD PUSH1 0x1 PUSH1 0x1 PUSH1 0xA0 SHL SUB NOT AND SWAP1 SWAP2 OR SWAP1 SSTORE PUSH1 0x40 MLOAD RETURN JUMPDEST DUP3 CALLVALUE PUSH2 0x5C2 JUMPI PUSH1 0x20 CALLDATASIZE PUSH1 0x3 NOT ADD SLT PUSH2 0x5C2 JUMPI PUSH1 0x4 CALLDATALOAD PUSH1 0x1 PUSH1 0x1 PUSH1 0xA0 SHL SUB DUP2 AND SWAP1 DUP2 SWAP1 SUB PUSH2 0xCD5 JUMPI PUSH2 0x1029 PUSH2 0x5ACC JUMP JUMPDEST PUSH1 0x1 PUSH1 0x1 PUSH1 0x60 SHL SUB PUSH1 0xA0 SHL PUSH1 0x97 SLOAD AND OR PUSH1 0x97 SSTORE PUSH1 0x40 MLOAD RETURN JUMPDEST DUP3 CALLVALUE PUSH2 0x5C2 JUMPI PUSH1 0x60 CALLDATASIZE PUSH1 0x3 NOT ADD SLT PUSH2 0x90C JUMPI PUSH1 0x44 CALLDATALOAD PUSH1 0x1 PUSH1 0x1 PUSH1 0xA0 SHL SUB DUP2 DUP2 AND SWAP3 SWAP2 DUP4 SWAP1 SUB PUSH2 0x90C JUMPI PUSH1 0x40 MLOAD SWAP3 PUSH2 0x1079 PUSH1 0xA0 DUP6 PUSH2 0x4380 JUMP JUMPDEST PUSH1 0x4 CALLDATALOAD DUP5 MSTORE PUSH1 0x20 DUP5 ADD SWAP3 PUSH1 0x24 CALLDATALOAD DUP5 MSTORE PUSH1 0x40 DUP6 ADD SWAP3 CALLER DUP5 MSTORE PUSH1 0x60 DUP7 ADD SWAP3 DUP4 MSTORE PUSH1 0x80 DUP7 ADD SWAP2 DUP3 MSTORE PUSH2 0x10A6 PUSH2 0x4D8F JUMP JUMPDEST PUSH2 0x10AE PUSH2 0x5B5A JUMP JUMPDEST PUSH2 0x10B6 PUSH2 0x5A38 JUMP JUMPDEST PUSH8 0xDE0B6B3A7640000 PUSH2 0x10F0 PUSH2 0x10DC PUSH2 0x83A DUP10 PUSH2 0x10E8 PUSH2 0x10D4 PUSH2 0x597C JUMP JUMPDEST DUP2 SWAP6 SWAP2 PUSH2 0x4E65 JUMP JUMPDEST SWAP3 SWAP1 DUP1 SWAP6 DUP5 SWAP3 MLOAD PUSH2 0x57F9 JUMP JUMPDEST DUP11 MLOAD SWAP3 PUSH2 0x4EA8 JUMP JUMPDEST DIV SWAP4 DUP5 ISZERO PUSH2 0x76A JUMPI PUSH2 0x1126 SWAP5 PUSH2 0x1104 PUSH2 0x4D40 JUMP JUMPDEST POP PUSH2 0x111B DUP4 DUP4 MLOAD AND DUP3 DUP6 DUP8 MLOAD AND PUSH2 0x16F SLOAD SWAP3 PUSH2 0x4EE3 JUMP JUMPDEST SWAP10 SWAP2 DUP4 SWAP9 SWAP2 SWAP9 PUSH2 0x4A9F JUMP JUMPDEST SWAP8 MLOAD DUP1 DUP10 LT PUSH2 0x11B3 JUMPI POP SWAP3 DUP1 DUP1 DUP5 PUSH2 0x11A5 DUP13 SWAP9 SWAP6 DUP11 SWAP9 PUSH1 0x40 SWAP15 PUSH2 0x75E SWAP13 DUP16 SWAP11 DUP12 DUP9 DUP1 PUSH32 0x96956E9E47738119037532FCF68A81B25D418EAF754281E005F11FA2D33BFFFB SWAP4 MLOAD AND SWAP4 MLOAD AND SWAP4 PUSH2 0x1196 DUP7 MLOAD SWAP2 DUP1 MLOAD SWAP1 PUSH1 0x20 DUP2 ADD MLOAD PUSH1 0x40 PUSH1 0x60 SWAP1 DUP4 ADD MLOAD SWAP3 ADD MLOAD SWAP3 PUSH1 0x40 MLOAD SWAP7 DUP8 SWAP7 DUP8 PUSH2 0x4D67 JUMP JUMPDEST SUB SWAP1 LOG3 MLOAD SWAP1 DUP5 DUP5 MLOAD AND SWAP2 PUSH2 0x5452 JUMP JUMPDEST MLOAD AND SWAP5 MLOAD AND SWAP2 MLOAD AND SWAP3 PUSH2 0x54BD JUMP JUMPDEST PUSH1 0x44 SWAP1 DUP10 PUSH1 0x40 MLOAD SWAP2 PUSH4 0x54CDE313 PUSH1 0xE0 SHL DUP4 MSTORE PUSH1 0x4 DUP4 ADD MSTORE PUSH1 0x24 DUP3 ADD MSTORE REVERT JUMPDEST DUP3 CALLVALUE PUSH2 0x5C2 JUMPI DUP1 PUSH1 0x3 NOT CALLDATASIZE ADD SLT PUSH2 0x5C2 JUMPI PUSH1 0x20 PUSH2 0x95B PUSH2 0x11F7 PUSH2 0x11F2 PUSH2 0x4CA6 JUMP JUMPDEST PUSH2 0x48CE JUMP JUMPDEST SWAP1 POP PUSH2 0x163 SLOAD PUSH2 0x4A9F JUMP JUMPDEST DUP3 CALLVALUE PUSH2 0x5C2 JUMPI PUSH1 0x20 CALLDATASIZE PUSH1 0x3 NOT ADD SLT PUSH2 0x5C2 JUMPI PUSH1 0x4 CALLDATALOAD SWAP1 PUSH2 0x176 SWAP1 DUP2 SLOAD DUP4 LT ISZERO PUSH2 0x5C2 JUMPI PUSH1 0x20 PUSH2 0x1231 DUP5 DUP5 PUSH2 0x4222 JUMP JUMPDEST SWAP1 SLOAD PUSH1 0x40 MLOAD SWAP2 PUSH1 0x3 SHL SHR DUP2 MSTORE RETURN JUMPDEST SWAP1 POP CALLVALUE PUSH2 0xCD5 JUMPI CALLDATASIZE PUSH1 0x3 NOT ADD SLT PUSH2 0x5C2 JUMPI PUSH2 0x1258 PUSH2 0x5ACC JUMP JUMPDEST PUSH1 0x40 MLOAD PUSH4 0x6DBCB039 PUSH1 0xE1 SHL PUSH1 0x20 DUP3 ADD MSTORE PUSH2 0xCCF SWAP1 PUSH2 0xCBD DUP2 PUSH2 0xCAF PUSH1 0x4 PUSH1 0x24 DUP4 ADD PUSH2 0x5836 JUMP JUMPDEST DUP3 PUSH1 0x40 CALLDATASIZE PUSH1 0x3 NOT ADD SLT PUSH2 0x5C2 JUMPI PUSH1 0x1 PUSH1 0x1 PUSH1 0xA0 SHL SUB PUSH1 0x24 CALLDATALOAD DUP2 DUP2 AND SWAP1 DUP2 SWAP1 SUB PUSH2 0x90C JUMPI PUSH2 0x86C PUSH1 0x40 MLOAD PUSH2 0x12B2 PUSH1 0xA0 DUP3 PUSH2 0x4380 JUMP JUMPDEST PUSH1 0x4 CALLDATALOAD DUP2 MSTORE PUSH1 0x20 DUP2 ADD SWAP1 CALLVALUE DUP3 MSTORE PUSH1 0x40 DUP2 ADD SWAP4 CALLER DUP6 MSTORE PUSH1 0x60 DUP3 ADD SWAP5 CALLER DUP7 MSTORE PUSH1 0x80 DUP4 ADD SWAP2 DUP3 MSTORE PUSH2 0x806 PUSH2 0x4D8F JUMP JUMPDEST DUP3 CALLVALUE PUSH2 0x5C2 JUMPI DUP1 PUSH1 0x3 NOT CALLDATASIZE ADD SLT PUSH2 0x5C2 JUMPI PUSH2 0x12F7 PUSH2 0x5A38 JUMP JUMPDEST PUSH1 0x40 MLOAD RETURN JUMPDEST DUP3 CALLVALUE PUSH2 0x5C2 JUMPI PUSH1 0x20 CALLDATASIZE PUSH1 0x3 NOT ADD SLT PUSH2 0x5C2 JUMPI PUSH1 0x4 CALLDATALOAD PUSH1 0x1 PUSH1 0x1 PUSH1 0xA0 SHL SUB DUP2 AND SWAP1 DUP2 SWAP1 SUB PUSH2 0x90C JUMPI PUSH2 0x132B PUSH2 0x5ACC JUMP JUMPDEST PUSH2 0x161 DUP1 SLOAD PUSH1 0x1 PUSH1 0x1 PUSH1 0xA0 SHL SUB NOT AND SWAP1 SWAP2 OR SWAP1 SSTORE PUSH1 0x40 MLOAD RETURN JUMPDEST DUP3 CALLVALUE PUSH2 0x5C2 JUMPI PUSH1 0x20 CALLDATASIZE PUSH1 0x3 NOT ADD SLT PUSH2 0x5C2 JUMPI PUSH2 0x135E PUSH2 0x5ACC JUMP JUMPDEST PUSH1 0x4 CALLDATALOAD PUSH2 0x17E SSTORE PUSH1 0x40 MLOAD RETURN JUMPDEST SWAP1 POP PUSH2 0x1377 CALLDATASIZE PUSH1 0x4 PUSH2 0x4299 JUMP JUMPDEST SWAP2 SWAP4 SWAP3 PUSH2 0x138A PUSH1 0x40 SWAP7 SWAP3 SWAP7 MLOAD SWAP5 DUP6 PUSH2 0x4380 JUMP JUMPDEST DUP4 MSTORE PUSH1 0x20 DUP4 ADD SWAP4 DUP5 MSTORE PUSH1 0x40 DUP4 ADD SWAP5 DUP6 MSTORE PUSH1 0x60 DUP4 ADD SWAP2 CALLVALUE DUP4 MSTORE PUSH1 0x80 DUP5 ADD SWAP1 CALLER DUP3 MSTORE PUSH1 0xA0 DUP6 ADD SWAP4 CALLER DUP6 MSTORE PUSH1 0xC0 DUP7 ADD SWAP4 PUSH1 0x1 DUP1 PUSH1 0xA0 SHL SUB DUP1 SWAP4 AND DUP6 MSTORE PUSH2 0x13CB PUSH2 0x4D8F JUMP JUMPDEST PUSH2 0x13D3 PUSH2 0x5B5A JUMP JUMPDEST DUP8 PUSH2 0x1440 PUSH2 0xA71 PUSH2 0x681 DUP4 PUSH2 0x143A DUP13 PUSH2 0x1404 PUSH2 0x13ED PUSH2 0x4CA6 JUMP JUMPDEST PUSH2 0x828 PUSH2 0x13FB DUP5 MLOAD DUP4 PUSH2 0x48BA JUMP JUMPDEST MLOAD DUP1 SWAP5 MLOAD PUSH2 0x5223 JUMP JUMPDEST SWAP6 SWAP1 PUSH2 0xA6C PUSH2 0x1430 PUSH2 0x1424 DUP6 PUSH2 0x681 PUSH8 0xDE0B6B3A7640000 DUP1 SWAP11 MLOAD PUSH2 0x49E1 JUMP JUMPDEST SWAP11 MLOAD PUSH2 0x166 SLOAD SWAP1 PUSH2 0x49E1 JUMP JUMPDEST SWAP8 PUSH2 0x163 SLOAD PUSH2 0x4A9F JUMP JUMPDEST SWAP3 PUSH2 0x49E1 JUMP JUMPDEST SWAP10 MLOAD DUP1 DUP12 LT DUP1 ISZERO PUSH2 0x154B JUMPI JUMPDEST PUSH2 0x152D JUMPI POP PUSH2 0x1471 SWAP1 PUSH2 0x145D PUSH2 0x4D40 JUMP JUMPDEST POP DUP5 DUP7 MLOAD AND SWAP1 DUP6 DUP9 MLOAD AND PUSH2 0x171 SLOAD SWAP3 PUSH2 0x4EE3 JUMP JUMPDEST SWAP8 SWAP2 SWAP10 SWAP1 SWAP9 DUP5 MLOAD DUP1 DUP13 GT PUSH2 0x150E JUMPI POP DUP7 SWAP5 PUSH2 0x74B DUP14 DUP7 DUP10 DUP16 SWAP6 SWAP8 PUSH2 0xBCB SWAP16 SWAP15 SWAP13 PUSH2 0x751 SWAP9 PUSH2 0xBAE SWAP16 SWAP14 SWAP12 DUP16 SWAP3 DUP6 DUP14 PUSH2 0x1506 SWAP6 DUP3 SWAP16 MLOAD DUP4 DUP6 MLOAD AND SWAP1 PUSH32 0xB8B8E75E42A3102026137DA20C1D52F5E60A1B25D6E77AD232404575753E3FE0 DUP14 DUP7 DUP13 MLOAD AND SWAP5 PUSH2 0x14F7 DUP12 MLOAD SWAP2 DUP1 MLOAD SWAP1 PUSH1 0x20 DUP2 ADD MLOAD PUSH1 0x60 PUSH1 0x40 DUP4 ADD MLOAD SWAP3 ADD MLOAD SWAP3 PUSH1 0x40 MLOAD SWAP7 DUP8 SWAP7 DUP8 PUSH2 0x4D67 JUMP JUMPDEST SUB SWAP1 LOG4 MLOAD SWAP4 MLOAD SWAP2 MLOAD AND SWAP3 PUSH2 0x53BE JUMP JUMPDEST MLOAD AND SWAP2 PUSH2 0x4DB1 JUMP JUMPDEST PUSH1 0x44 SWAP1 DUP11 MLOAD PUSH1 0x40 MLOAD SWAP2 PUSH4 0xB63F1A7 PUSH1 0xE0 SHL DUP4 MSTORE PUSH1 0x4 DUP4 ADD MSTORE PUSH1 0x24 DUP3 ADD MSTORE REVERT JUMPDEST PUSH1 0x44 SWAP1 DUP12 PUSH1 0x40 MLOAD SWAP2 PUSH4 0xF577BEF5 PUSH1 0xE0 SHL DUP4 MSTORE PUSH1 0x4 DUP4 ADD MSTORE PUSH1 0x24 DUP3 ADD MSTORE REVERT JUMPDEST POP DUP11 ISZERO PUSH2 0x144C JUMP JUMPDEST DUP3 CALLVALUE PUSH2 0x5C2 JUMPI DUP1 PUSH1 0x3 NOT CALLDATASIZE ADD SLT PUSH2 0x5C2 JUMPI PUSH1 0x20 PUSH2 0x95B PUSH2 0x1592 PUSH2 0x681 PUSH8 0xDE0B6B3A7640000 PUSH2 0x143A PUSH2 0x1586 PUSH2 0x11F2 PUSH2 0x4CA6 JUMP JUMPDEST PUSH2 0x163 SWAP6 SWAP2 SWAP6 SLOAD PUSH2 0x4A9F JUMP JUMPDEST SWAP4 DUP5 PUSH2 0x4A9F JUMP JUMPDEST DUP3 CALLVALUE PUSH2 0x5C2 JUMPI PUSH1 0x20 CALLDATASIZE PUSH1 0x3 NOT ADD SLT PUSH2 0x5C2 JUMPI PUSH2 0x15B3 PUSH2 0x5ACC JUMP JUMPDEST PUSH1 0x4 CALLDATALOAD PUSH2 0x16F SSTORE PUSH1 0x40 MLOAD RETURN JUMPDEST DUP3 CALLVALUE PUSH2 0x5C2 JUMPI PUSH1 0x20 CALLDATASIZE PUSH1 0x3 NOT ADD SLT PUSH2 0x5C2 JUMPI PUSH2 0x15D9 PUSH2 0x5ACC JUMP JUMPDEST PUSH1 0x4 CALLDATALOAD PUSH2 0x16B SSTORE PUSH1 0x40 MLOAD RETURN JUMPDEST SWAP1 POP PUSH2 0x15F2 CALLDATASIZE PUSH1 0x4 PUSH2 0x4299 JUMP JUMPDEST SWAP2 SWAP1 SWAP5 SWAP3 PUSH2 0x1603 PUSH1 0x40 MLOAD SWAP6 DUP7 PUSH2 0x4380 JUMP JUMPDEST DUP5 MSTORE PUSH1 0x20 DUP5 ADD MSTORE PUSH1 0x40 DUP4 ADD SWAP4 DUP5 MSTORE CALLVALUE PUSH1 0x60 DUP5 ADD MSTORE CALLER PUSH1 0x80 DUP5 ADD DUP2 SWAP1 MSTORE PUSH1 0xA0 DUP5 ADD MSTORE PUSH1 0x1 PUSH1 0x1 PUSH1 0xA0 SHL SUB AND PUSH1 0xC0 DUP4 ADD MSTORE PUSH2 0x163A PUSH2 0x4D8F JUMP JUMPDEST PUSH2 0x1642 PUSH2 0x5B5A JUMP JUMPDEST PUSH2 0x164A PUSH2 0x5A38 JUMP JUMPDEST PUSH2 0x1652 PUSH2 0x597C JUMP JUMPDEST SWAP4 PUSH2 0x16A3 PUSH2 0x1677 PUSH2 0x1664 DUP7 MLOAD DUP9 PUSH2 0x48BA JUMP JUMPDEST MLOAD SWAP7 PUSH2 0x1671 DUP9 DUP9 MLOAD PUSH2 0x5223 JUMP JUMPDEST DUP5 PUSH2 0x4E65 JUMP JUMPDEST SWAP1 PUSH2 0x1688 DUP3 DUP3 DUP8 PUSH1 0x20 DUP12 ADD MLOAD PUSH2 0x57F9 JUMP JUMPDEST PUSH1 0x20 DUP8 ADD MLOAD PUSH8 0xDE0B6B3A7640000 SWAP4 DUP5 SWAP2 PUSH2 0x83A DUP6 DUP6 PUSH2 0x4EA8 JUMP JUMPDEST DIV SWAP5 DUP6 ISZERO PUSH2 0x76A JUMPI PUSH2 0x16D9 SWAP4 PUSH2 0x16CF PUSH2 0xA76 DUP12 PUSH2 0xA71 PUSH1 0x20 DUP14 ADD MLOAD PUSH2 0x83A DUP9 PUSH2 0xA6C DUP12 PUSH2 0x163 SLOAD PUSH2 0x4A9F JUMP JUMPDEST DIV SWAP9 DUP10 DUP10 MLOAD PUSH2 0x527A JUMP JUMPDEST MLOAD DUP1 DUP6 LT PUSH2 0xBEE JUMPI POP PUSH2 0xAC6 SWAP1 PUSH2 0xAA3 PUSH2 0x4D40 JUMP JUMPDEST DUP3 CALLVALUE PUSH2 0x5C2 JUMPI DUP1 PUSH1 0x3 NOT CALLDATASIZE ADD SLT PUSH2 0x5C2 JUMPI PUSH1 0x20 PUSH1 0xFF PUSH1 0xCA SLOAD AND PUSH1 0x40 MLOAD SWAP1 ISZERO ISZERO DUP2 MSTORE RETURN JUMPDEST DUP3 CALLVALUE PUSH2 0x5C2 JUMPI PUSH2 0x17E3 PUSH2 0x1725 CALLDATASIZE PUSH1 0x4 PUSH2 0x4264 JUMP JUMPDEST SWAP1 PUSH1 0x40 SWAP6 SWAP4 SWAP3 SWAP5 SWAP6 MLOAD SWAP6 PUSH2 0x173A PUSH1 0xC0 DUP9 PUSH2 0x4380 JUMP JUMPDEST DUP7 MSTORE PUSH1 0x20 DUP7 ADD SWAP3 DUP4 MSTORE PUSH1 0x40 DUP7 ADD SWAP5 DUP6 MSTORE PUSH1 0x60 DUP7 ADD CALLER DUP2 MSTORE PUSH1 0x80 DUP8 ADD SWAP4 PUSH1 0x1 DUP1 PUSH1 0xA0 SHL SUB DUP1 SWAP4 AND DUP6 MSTORE DUP3 PUSH1 0xA0 DUP10 ADD SWAP5 AND DUP5 MSTORE PUSH2 0x1773 PUSH2 0x4D8F JUMP JUMPDEST PUSH2 0x177B PUSH2 0x5B5A JUMP JUMPDEST PUSH2 0x17B6 PUSH2 0x1786 PUSH2 0x4CA6 JUMP JUMPDEST PUSH2 0x17A1 PUSH2 0x1794 DUP12 MLOAD DUP4 PUSH2 0x48BA JUMP JUMPDEST MLOAD SWAP2 PUSH2 0x828 DUP4 DUP14 MLOAD PUSH2 0x5223 JUMP JUMPDEST POP POP PUSH2 0x681 PUSH8 0xDE0B6B3A7640000 DUP5 MLOAD PUSH2 0x49E1 JUMP JUMPDEST PUSH2 0x17BE PUSH2 0x4D40 JUMP JUMPDEST POP PUSH2 0x17D8 DUP5 DUP5 MLOAD AND DUP3 DUP7 DUP9 MLOAD AND PUSH2 0x6A9 DUP14 MLOAD PUSH2 0x177 PUSH2 0x4222 JUMP JUMPDEST SWAP11 SWAP2 DUP4 SWAP10 SWAP2 SWAP10 PUSH2 0x4A9F JUMP JUMPDEST SWAP9 DUP3 ISZERO PUSH2 0x76A JUMPI MLOAD DUP1 DUP11 LT PUSH2 0x186B JUMPI POP SWAP4 DUP1 DUP10 SWAP5 PUSH2 0x11A5 DUP13 SWAP9 SWAP6 DUP4 SWAP6 DUP10 PUSH1 0x40 SWAP16 DUP14 PUSH2 0x75E SWAP15 SWAP13 MLOAD PUSH32 0x94623CC0BDFF77F15A945C5F7C85F92E30BAEEE629058DB590CEEBA3755AD3BE DUP14 DUP11 DUP1 DUP12 MLOAD AND SWAP5 MLOAD AND SWAP5 PUSH2 0x185B DUP10 MLOAD SWAP2 DUP1 MLOAD SWAP1 PUSH1 0x20 DUP2 ADD MLOAD PUSH1 0x40 PUSH1 0x60 SWAP1 DUP4 ADD MLOAD SWAP3 ADD MLOAD SWAP3 PUSH1 0x40 MLOAD SWAP7 DUP8 SWAP7 DUP8 PUSH2 0x4D67 JUMP JUMPDEST SUB SWAP1 LOG4 MLOAD SWAP2 MLOAD DUP6 DUP6 MLOAD AND SWAP3 PUSH2 0x53BE JUMP JUMPDEST PUSH1 0x44 SWAP1 DUP11 PUSH1 0x40 MLOAD SWAP2 PUSH4 0x54CDE313 PUSH1 0xE0 SHL DUP4 MSTORE PUSH1 0x4 DUP4 ADD MSTORE PUSH1 0x24 DUP3 ADD MSTORE REVERT JUMPDEST SWAP1 POP PUSH2 0x196D PUSH2 0x1899 CALLDATASIZE PUSH1 0x4 PUSH2 0x42BF JUMP JUMPDEST SWAP5 SWAP1 SWAP2 SWAP3 SWAP4 PUSH1 0x40 MLOAD SWAP1 PUSH2 0x18AE PUSH2 0x100 DUP4 PUSH2 0x4380 JUMP JUMPDEST DUP2 MSTORE PUSH1 0x20 DUP2 ADD SWAP5 DUP6 MSTORE PUSH1 0x40 DUP2 ADD SWAP4 DUP5 MSTORE PUSH1 0x60 DUP2 ADD SWAP3 DUP4 MSTORE PUSH1 0x80 DUP2 ADD SWAP6 CALLVALUE DUP8 MSTORE PUSH1 0xA0 DUP3 ADD SWAP4 CALLER DUP6 MSTORE PUSH1 0xC0 DUP4 ADD SWAP1 CALLER DUP3 MSTORE DUP10 DUP5 ADD SWAP7 PUSH1 0x1 DUP1 PUSH1 0xA0 SHL SUB SWAP9 DUP10 DUP1 SWAP6 AND DUP10 MSTORE PUSH2 0x18F7 PUSH2 0x4D8F JUMP JUMPDEST PUSH2 0x18FF PUSH2 0x5B5A JUMP JUMPDEST PUSH2 0x1907 PUSH2 0x4D40 JUMP JUMPDEST POP PUSH1 0x40 MLOAD SWAP6 PUSH4 0x1C280CE1 PUSH1 0xE0 SHL PUSH1 0x20 DUP9 ADD MSTORE MLOAD PUSH1 0x24 DUP8 ADD MSTORE MLOAD PUSH1 0x44 DUP7 ADD MSTORE MLOAD PUSH1 0x64 DUP6 ADD MSTORE MLOAD PUSH1 0x84 DUP5 ADD MSTORE DUP8 MLOAD PUSH1 0xA4 DUP5 ADD MSTORE DUP2 DUP6 MLOAD AND PUSH1 0xC4 DUP5 ADD MSTORE MLOAD AND PUSH1 0xE4 DUP3 ADD MSTORE DUP5 DUP5 MLOAD AND PUSH2 0x104 SWAP1 DUP2 DUP4 ADD MSTORE DUP2 MSTORE PUSH2 0x1962 PUSH2 0x124 DUP3 PUSH2 0x4380 JUMP JUMPDEST DUP5 PUSH2 0x21C SLOAD AND PUSH2 0x532B JUMP JUMPDEST SWAP3 DUP4 DUP1 MLOAD DUP2 ADD SUB SWAP5 DUP7 DUP7 SLT PUSH2 0x19E3 JUMPI PUSH1 0x20 DUP6 ADD MLOAD SWAP7 PUSH1 0x40 DUP7 ADD MLOAD SWAP9 PUSH1 0x80 PUSH1 0x60 DUP9 ADD MLOAD SWAP9 PUSH1 0x5F NOT ADD SLT PUSH2 0x5C2 JUMPI POP SWAP2 DUP1 PUSH2 0x751 DUP10 PUSH2 0xBCB SWAP10 SWAP9 SWAP7 SWAP5 PUSH2 0xBAE SWAP9 SWAP7 PUSH1 0x40 MLOAD SWAP9 PUSH2 0x19BB PUSH1 0x80 DUP12 PUSH2 0x4380 JUMP JUMPDEST PUSH1 0x80 DUP2 ADD MLOAD DUP11 MSTORE PUSH1 0xA0 DUP2 ADD MLOAD PUSH1 0x20 DUP12 ADD MSTORE PUSH1 0xC0 DUP2 ADD MLOAD PUSH1 0x40 DUP12 ADD MSTORE ADD MLOAD PUSH1 0x60 DUP10 ADD MSTORE MLOAD PUSH2 0x4A9F JUMP JUMPDEST DUP8 DUP1 REVERT JUMPDEST DUP3 PUSH1 0x40 CALLDATASIZE PUSH1 0x3 NOT ADD SLT PUSH2 0x5C2 JUMPI PUSH1 0x1 PUSH1 0x1 PUSH1 0xA0 SHL SUB SWAP1 PUSH1 0x24 CALLDATALOAD DUP3 DUP2 AND SWAP2 SWAP1 DUP3 SWAP1 SUB PUSH2 0x90C JUMPI PUSH2 0x86C SWAP1 PUSH1 0x40 MLOAD PUSH2 0x7DC PUSH1 0xA0 DUP3 PUSH2 0x4380 JUMP JUMPDEST DUP3 CALLVALUE PUSH2 0x5C2 JUMPI DUP1 PUSH1 0x3 NOT CALLDATASIZE ADD SLT PUSH2 0x5C2 JUMPI PUSH1 0x20 PUSH2 0x16F SLOAD PUSH1 0x40 MLOAD SWAP1 DUP2 MSTORE RETURN JUMPDEST DUP3 PUSH1 0x40 CALLDATASIZE PUSH1 0x3 NOT ADD SLT PUSH2 0x90C JUMPI PUSH1 0x40 MLOAD SWAP1 PUSH2 0x1A59 PUSH1 0xC0 DUP4 PUSH2 0x4380 JUMP JUMPDEST PUSH1 0x4 CALLDATALOAD DUP3 MSTORE PUSH1 0x20 DUP3 ADD SWAP1 PUSH1 0x24 CALLDATALOAD DUP3 MSTORE PUSH1 0x40 DUP4 ADD SWAP1 CALLVALUE DUP3 MSTORE PUSH1 0x60 DUP5 ADD SWAP3 CALLER DUP5 MSTORE PUSH1 0x80 DUP6 ADD SWAP5 CALLER DUP7 MSTORE PUSH1 0xA0 DUP2 ADD DUP4 DUP2 MSTORE PUSH2 0x1A8F PUSH2 0x4D8F JUMP JUMPDEST PUSH2 0x1A97 PUSH2 0x5B5A JUMP JUMPDEST PUSH2 0x1A9F PUSH2 0x5A38 JUMP JUMPDEST PUSH2 0x1AA7 PUSH2 0x597C JUMP JUMPDEST SWAP7 SWAP1 SWAP8 PUSH2 0x1AB5 DUP5 MLOAD DUP10 PUSH2 0x48BA JUMP JUMPDEST MLOAD SWAP9 PUSH2 0x1AC2 DUP11 DUP7 MLOAD PUSH2 0x5223 JUMP JUMPDEST PUSH2 0x1ACF DUP10 PUSH2 0x17C SLOAD PUSH2 0x4E65 JUMP JUMPDEST POP POP PUSH2 0x1ADF PUSH2 0xDAC DUP8 MLOAD SWAP11 PUSH2 0x48CE JUMP JUMPDEST SWAP1 PUSH8 0xDE0B6B3A763FFFF NOT DUP2 ADD SWAP1 DUP2 GT PUSH2 0x1B59 JUMPI SWAP1 PUSH2 0xE04 DUP12 PUSH2 0x681 PUSH2 0x1B13 DUP14 SWAP15 PUSH2 0x681 PUSH2 0xE35 SWAP14 SWAP15 SWAP16 SWAP8 PUSH2 0x1B31 SWAP9 PUSH2 0x49E1 JUMP JUMPDEST SWAP4 PUSH2 0x1B2B PUSH8 0xDE0B6B3A7640000 SWAP2 PUSH2 0x681 DUP4 DUP9 PUSH2 0x49E1 JUMP JUMPDEST SWAP15 PUSH2 0x49E1 JUMP JUMPDEST SWAP7 PUSH2 0x1B3A PUSH2 0x4D40 JUMP JUMPDEST POP PUSH1 0x1 DUP1 PUSH1 0xA0 SHL SUB SWAP2 PUSH2 0xE2A DUP4 DUP6 MLOAD AND DUP11 DUP6 DUP9 MLOAD AND PUSH2 0x174 SLOAD SWAP3 PUSH2 0x4EE3 JUMP JUMPDEST PUSH4 0x4E487B71 PUSH1 0xE0 SHL DUP9 MSTORE PUSH1 0x11 PUSH1 0x4 MSTORE PUSH1 0x24 DUP9 REVERT JUMPDEST DUP3 CALLVALUE PUSH2 0x5C2 JUMPI DUP1 PUSH1 0x3 NOT CALLDATASIZE ADD SLT PUSH2 0x5C2 JUMPI PUSH1 0x20 PUSH2 0x1B5 SLOAD NUMBER LT ISZERO PUSH1 0x40 MLOAD SWAP1 DUP2 MSTORE RETURN JUMPDEST DUP3 CALLVALUE PUSH2 0x5C2 JUMPI DUP1 PUSH1 0x3 NOT CALLDATASIZE ADD SLT PUSH2 0x5C2 JUMPI PUSH1 0xCA SLOAD PUSH1 0x40 MLOAD PUSH1 0x10 SWAP2 SWAP1 SWAP2 SHR PUSH1 0x1 PUSH1 0x1 PUSH1 0xA0 SHL SUB AND DUP2 MSTORE PUSH1 0x20 SWAP1 RETURN JUMPDEST DUP3 CALLVALUE PUSH2 0x5C2 JUMPI PUSH1 0x20 CALLDATASIZE PUSH1 0x3 NOT ADD SLT PUSH2 0x5C2 JUMPI PUSH1 0x4 CALLDATALOAD PUSH1 0x1 PUSH1 0x1 PUSH1 0xA0 SHL SUB DUP2 AND SWAP1 DUP2 SWAP1 SUB PUSH2 0x90C JUMPI PUSH1 0x40 DUP3 DUP2 SWAP3 DUP2 MSTORE PUSH2 0x168 PUSH1 0x20 MSTORE KECCAK256 PUSH1 0xFF PUSH1 0x1 DUP3 SLOAD SWAP3 ADD SLOAD AND DUP3 MLOAD SWAP2 DUP3 MSTORE ISZERO ISZERO PUSH1 0x20 DUP3 ADD MSTORE RETURN JUMPDEST SWAP1 POP CALLVALUE PUSH2 0xCD5 JUMPI SWAP1 PUSH2 0x1CA2 SWAP2 PUSH2 0x1C20 CALLDATASIZE PUSH1 0x4 PUSH2 0x42BF JUMP JUMPDEST SWAP3 SWAP4 PUSH2 0x1C32 PUSH1 0x40 SWAP8 SWAP4 SWAP8 MLOAD SWAP7 DUP8 PUSH2 0x4380 JUMP JUMPDEST DUP6 MSTORE PUSH1 0x20 DUP6 ADD SWAP4 DUP5 MSTORE PUSH1 0x40 DUP6 ADD SWAP6 DUP7 MSTORE PUSH1 0x60 DUP6 ADD MSTORE PUSH1 0x80 DUP5 ADD SWAP3 CALLER DUP5 MSTORE PUSH1 0xA0 DUP6 ADD SWAP1 PUSH1 0x1 DUP1 PUSH1 0xA0 SHL SUB DUP1 SWAP5 AND DUP3 MSTORE PUSH1 0xC0 DUP7 ADD DUP4 DUP2 MSTORE PUSH2 0x1C6F PUSH2 0x4D8F JUMP JUMPDEST PUSH2 0x1C77 PUSH2 0x5B5A JUMP JUMPDEST PUSH2 0x1CCC DUP8 PUSH2 0xA71 PUSH2 0x1CB6 PUSH2 0x1CAB PUSH2 0x1C8C PUSH2 0x4CA6 JUMP JUMPDEST PUSH2 0x1C97 DUP6 MLOAD DUP3 PUSH2 0x48BA JUMP JUMPDEST MLOAD SWAP15 DUP16 DUP1 SWAP7 MLOAD PUSH2 0x5223 JUMP JUMPDEST PUSH2 0x17C SLOAD PUSH2 0x4E65 JUMP JUMPDEST SWAP3 DUP2 SWAP15 SWAP2 DUP9 MLOAD PUSH2 0x49E1 JUMP JUMPDEST PUSH8 0xDE0B6B3A7640000 SWAP4 DUP5 SWAP2 PUSH2 0x166 SLOAD SWAP1 PUSH2 0x49F4 JUMP JUMPDEST DIV SWAP11 MLOAD DUP1 DUP13 GT PUSH2 0x1E20 JUMPI POP SWAP2 PUSH2 0x1D06 DUP12 PUSH2 0x1D00 PUSH2 0x1D38 SWAP12 SWAP13 SWAP14 SWAP15 SWAP5 PUSH2 0x681 DUP6 PUSH2 0x1CFA PUSH2 0x1D0D SWAP10 DUP13 MLOAD SWAP10 PUSH2 0x4EA8 JUMP JUMPDEST SWAP5 PUSH2 0x49E1 JUMP JUMPDEST SWAP4 PUSH2 0x49E1 JUMP JUMPDEST DIV SWAP1 PUSH2 0x4897 JUMP JUMPDEST SWAP5 PUSH2 0x1D16 PUSH2 0x4D40 JUMP JUMPDEST POP PUSH2 0x1D2D DUP2 DUP10 MLOAD AND DUP8 DUP4 DUP6 MLOAD AND PUSH2 0x173 SLOAD SWAP3 PUSH2 0x4EE3 JUMP JUMPDEST SWAP7 SWAP2 DUP9 SWAP10 SWAP2 SWAP10 PUSH2 0x4A9F JUMP JUMPDEST SWAP10 PUSH1 0x60 DUP2 ADD MLOAD DUP1 DUP13 LT PUSH2 0x1E02 JUMPI POP DUP11 ISZERO PUSH2 0x76A JUMPI DUP10 PUSH2 0x11A5 DUP14 DUP6 SWAP5 DUP5 DUP16 SWAP10 PUSH2 0xBCB SWAP16 SWAP14 PUSH2 0x1DF6 SWAP2 PUSH2 0xBAE SWAP16 DUP16 DUP16 SWAP1 SWAP2 DUP16 SWAP3 DUP10 PUSH32 0x754F66F66F0AFCD87E3EDD11C0796FEF32599EFE490000FDB0F014E3AD9560FA SWAP2 DUP16 SWAP15 DUP16 DUP1 PUSH2 0x1DE7 SWAP3 MLOAD SWAP7 MLOAD AND SWAP7 MLOAD AND SWAP7 DUP9 MLOAD SWAP3 DUP1 MLOAD PUSH1 0x20 DUP3 ADD MLOAD SWAP1 PUSH1 0x60 PUSH1 0x40 DUP5 ADD MLOAD SWAP4 ADD MLOAD SWAP4 PUSH1 0x40 MLOAD SWAP8 DUP9 SWAP8 DUP9 SWAP4 SWAP1 SWAP8 SWAP7 SWAP6 SWAP3 PUSH1 0xC0 SWAP6 SWAP3 PUSH1 0xE0 DUP7 ADD SWAP10 DUP7 MSTORE PUSH1 0x20 DUP7 ADD MSTORE PUSH1 0x40 DUP6 ADD MSTORE PUSH1 0x60 DUP5 ADD MSTORE PUSH1 0x80 DUP4 ADD MSTORE PUSH1 0xA0 DUP3 ADD MSTORE ADD MSTORE JUMP JUMPDEST SUB SWAP1 LOG4 MLOAD SWAP1 DUP9 DUP9 MLOAD AND SWAP2 PUSH2 0x5452 JUMP JUMPDEST MLOAD SWAP2 DUP6 DUP6 MLOAD AND SWAP3 PUSH2 0x53BE JUMP JUMPDEST PUSH1 0x44 SWAP1 DUP13 PUSH1 0x40 MLOAD SWAP2 PUSH4 0x54CDE313 PUSH1 0xE0 SHL DUP4 MSTORE PUSH1 0x4 DUP4 ADD MSTORE PUSH1 0x24 DUP3 ADD MSTORE REVERT JUMPDEST PUSH1 0x44 SWAP1 DUP13 PUSH1 0x40 MLOAD SWAP2 PUSH4 0x7A031DA3 PUSH1 0xE1 SHL DUP4 MSTORE PUSH1 0x4 DUP4 ADD MSTORE PUSH1 0x24 DUP3 ADD MSTORE REVERT JUMPDEST DUP3 CALLVALUE PUSH2 0x5C2 JUMPI DUP1 PUSH1 0x3 NOT CALLDATASIZE ADD SLT PUSH2 0x5C2 JUMPI PUSH1 0x20 PUSH2 0x1E65 PUSH2 0x1E5F PUSH2 0x11F2 PUSH2 0x4CA6 JUMP JUMPDEST SWAP1 PUSH2 0x4A75 JUMP JUMPDEST PUSH2 0x17C SLOAD LT ISZERO PUSH1 0x40 MLOAD SWAP1 DUP2 MSTORE RETURN JUMPDEST DUP3 CALLVALUE PUSH2 0x5C2 JUMPI PUSH1 0x40 CALLDATASIZE PUSH1 0x3 NOT ADD SLT PUSH2 0x90C JUMPI PUSH1 0x40 MLOAD SWAP1 PUSH2 0x1E94 PUSH1 0xA0 DUP4 PUSH2 0x4380 JUMP JUMPDEST PUSH1 0x4 CALLDATALOAD DUP3 MSTORE PUSH1 0x20 DUP3 ADD SWAP1 PUSH1 0x24 CALLDATALOAD DUP3 MSTORE PUSH1 0x40 DUP4 ADD SWAP1 CALLER DUP3 MSTORE PUSH1 0x60 DUP5 ADD SWAP1 CALLER DUP3 MSTORE PUSH1 0x80 DUP6 ADD SWAP1 DUP2 MSTORE PUSH2 0x1EC2 PUSH2 0x4D8F JUMP JUMPDEST PUSH2 0x1ECA PUSH2 0x5B5A JUMP JUMPDEST PUSH2 0x1ED2 PUSH2 0x5A38 JUMP JUMPDEST PUSH8 0xDE0B6B3A7640000 PUSH2 0x1F0B PUSH2 0x1EF7 PUSH2 0x83A PUSH2 0x1F03 PUSH2 0x1EEF PUSH2 0x597C JUMP JUMPDEST DUP2 SWAP5 SWAP2 PUSH2 0x4E65 JUMP JUMPDEST DUP2 DUP2 SWAP4 SWAP3 SWAP6 DUP14 MLOAD PUSH2 0x57F9 JUMP JUMPDEST DUP10 MLOAD SWAP3 PUSH2 0x4EA8 JUMP JUMPDEST DIV DUP1 ISZERO PUSH2 0x76A JUMPI PUSH2 0x1126 SWAP4 PUSH2 0x1F1E PUSH2 0x4D40 JUMP JUMPDEST POP PUSH1 0x1 DUP1 PUSH1 0xA0 SHL SUB SWAP2 PUSH2 0x111B DUP4 DUP4 MLOAD AND DUP3 DUP6 DUP8 MLOAD AND PUSH2 0x16F SLOAD SWAP3 PUSH2 0x4EE3 JUMP JUMPDEST DUP3 CALLVALUE PUSH2 0x5C2 JUMPI DUP1 PUSH1 0x3 NOT CALLDATASIZE ADD SLT PUSH2 0x5C2 JUMPI PUSH2 0x178 SLOAD PUSH1 0x40 MLOAD PUSH1 0x1 PUSH1 0x1 PUSH1 0xA0 SHL SUB SWAP1 SWAP2 AND DUP2 MSTORE PUSH1 0x20 SWAP1 RETURN JUMPDEST DUP3 PUSH1 0x60 CALLDATASIZE PUSH1 0x3 NOT ADD SLT PUSH2 0x90C JUMPI PUSH1 0x40 MLOAD SWAP2 PUSH2 0x1F82 SWAP1 DUP4 PUSH2 0x4380 JUMP JUMPDEST PUSH1 0x4 CALLDATALOAD DUP3 MSTORE PUSH1 0x20 DUP3 ADD PUSH1 0x24 CALLDATALOAD DUP2 MSTORE PUSH1 0x40 DUP4 ADD SWAP2 PUSH1 0x44 CALLDATALOAD DUP4 MSTORE PUSH1 0x60 DUP5 ADD CALLVALUE DUP2 MSTORE PUSH1 0x80 DUP6 ADD CALLER DUP2 MSTORE PUSH1 0xA0 DUP7 ADD SWAP5 CALLER DUP7 MSTORE PUSH1 0xC0 DUP8 ADD SWAP3 DUP5 DUP5 MSTORE PUSH2 0x1FC0 PUSH2 0x4D8F JUMP JUMPDEST PUSH2 0x1FC8 PUSH2 0x5B5A JUMP JUMPDEST PUSH2 0x1FD0 PUSH2 0x5A38 JUMP JUMPDEST PUSH2 0x1FD8 PUSH2 0x597C JUMP JUMPDEST SWAP8 SWAP1 SWAP3 DUP10 MLOAD PUSH2 0x1FE7 SWAP1 DUP11 PUSH2 0x48BA JUMP JUMPDEST MLOAD SWAP9 DUP10 DUP12 MLOAD SWAP1 PUSH2 0x1FF6 SWAP2 PUSH2 0x5223 JUMP JUMPDEST PUSH2 0x2000 SWAP1 DUP6 PUSH2 0x4E65 JUMP JUMPDEST DUP6 DUP2 DUP4 DUP13 MLOAD SWAP3 PUSH2 0x200F SWAP4 PUSH2 0x57F9 JUMP JUMPDEST DUP10 MLOAD SWAP2 PUSH8 0xDE0B6B3A7640000 DUP1 SWAP4 PUSH2 0x2027 DUP5 DUP5 PUSH2 0x4EA8 JUMP JUMPDEST PUSH2 0x2030 SWAP2 PUSH2 0x49E1 JUMP JUMPDEST DIV SWAP7 DUP8 ISZERO PUSH2 0x76A JUMPI DUP13 PUSH2 0x2067 SWAP5 DUP16 SWAP15 PUSH2 0xA76 DUP16 SWAP2 PUSH2 0xA71 PUSH2 0x205D SWAP4 MLOAD PUSH2 0x83A DUP10 PUSH2 0xA6C DUP13 PUSH2 0x163 SLOAD PUSH2 0x4A9F JUMP JUMPDEST DIV SWAP15 DUP16 SWAP1 MLOAD PUSH2 0x527A JUMP JUMPDEST MLOAD DUP1 DUP11 LT PUSH2 0x2136 JUMPI POP PUSH2 0x2078 PUSH2 0x4D40 JUMP JUMPDEST POP PUSH2 0x2097 PUSH1 0x1 DUP1 PUSH1 0xA0 SHL SUB SWAP4 DUP5 DUP7 MLOAD AND SWAP1 DUP6 DUP9 MLOAD AND PUSH2 0x172 SLOAD SWAP3 PUSH2 0x4EE3 JUMP JUMPDEST SWAP8 SWAP2 SWAP10 SWAP1 SWAP9 DUP5 MLOAD DUP1 DUP13 GT PUSH2 0x150E JUMPI POP DUP7 SWAP5 PUSH2 0x74B DUP6 DUP6 DUP16 DUP16 SWAP6 SWAP11 PUSH2 0xBCB SWAP16 SWAP15 SWAP13 SWAP8 PUSH2 0x212C PUSH2 0xBAE SWAP16 SWAP14 SWAP10 DUP16 SWAP12 DUP5 PUSH2 0x751 SWAP13 DUP2 SWAP16 SWAP15 DUP3 SWAP16 DUP8 MLOAD PUSH32 0xF4287B96E269F789F166DB491B07456566F468352771E466CE088E98D6007A0C DUP12 DUP7 DUP1 DUP11 MLOAD AND SWAP5 MLOAD AND SWAP5 PUSH2 0x211F DUP8 MLOAD SWAP2 DUP1 MLOAD SWAP1 PUSH1 0x20 DUP2 ADD MLOAD PUSH1 0x60 PUSH1 0x40 DUP4 ADD MLOAD SWAP3 ADD MLOAD SWAP3 PUSH1 0x40 MLOAD SWAP7 DUP8 SWAP7 DUP8 PUSH2 0x4D67 JUMP JUMPDEST SUB SWAP1 LOG4 MLOAD SWAP3 MLOAD AND SWAP2 PUSH2 0x5452 JUMP JUMPDEST MLOAD SWAP4 MLOAD AND SWAP3 PUSH2 0x518A JUMP JUMPDEST PUSH1 0x44 SWAP1 DUP11 PUSH1 0x40 MLOAD SWAP2 PUSH4 0x272E3F59 PUSH1 0xE2 SHL DUP4 MSTORE PUSH1 0x4 DUP4 ADD MSTORE PUSH1 0x24 DUP3 ADD MSTORE REVERT JUMPDEST DUP3 CALLVALUE PUSH2 0x5C2 JUMPI PUSH2 0x300 CALLDATASIZE PUSH1 0x3 NOT ADD SLT PUSH2 0x5C2 JUMPI DUP1 SLOAD PUSH1 0xFF DUP2 PUSH1 0x8 SHR AND ISZERO SWAP1 DUP2 DUP1 SWAP3 PUSH2 0x25B5 JUMPI JUMPDEST DUP1 ISZERO PUSH2 0x259E JUMPI JUMPDEST ISZERO PUSH2 0x2542 JUMPI PUSH1 0xFF NOT DUP2 AND PUSH1 0x1 OR DUP4 SSTORE DUP2 PUSH2 0x2531 JUMPI JUMPDEST POP DUP2 SLOAD SWAP1 PUSH2 0x21A9 PUSH1 0xFF DUP4 PUSH1 0x8 SHR AND PUSH2 0x4CE0 JUMP JUMPDEST PUSH2 0x2A4 CALLDATALOAD PUSH1 0x1 PUSH1 0x1 PUSH1 0xA0 SHL SUB DUP2 AND SWAP1 DUP2 SWAP1 SUB PUSH2 0x90C JUMPI PUSH2 0x21C DUP1 SLOAD PUSH1 0x1 PUSH1 0x1 PUSH1 0xA0 SHL SUB NOT AND SWAP1 SWAP2 OR SWAP1 SSTORE PUSH1 0x1 PUSH1 0x1 PUSH1 0xA0 SHL SUB PUSH2 0x264 CALLDATALOAD SWAP1 DUP2 AND SWAP1 DUP2 SWAP1 SUB PUSH2 0x90C JUMPI PUSH2 0x284 CALLDATALOAD PUSH1 0x1 PUSH1 0x1 PUSH1 0xA0 SHL SUB DUP2 AND DUP2 SUB PUSH2 0x90C JUMPI PUSH1 0x1 SWAP2 PUSH2 0x2210 PUSH1 0xFF DUP7 PUSH1 0x8 SHR AND PUSH2 0x4CE0 JUMP JUMPDEST PUSH2 0x221F PUSH1 0xFF DUP7 PUSH1 0x8 SHR AND PUSH2 0x4CE0 JUMP JUMPDEST PUSH2 0x222E PUSH1 0xFF DUP7 PUSH1 0x8 SHR AND PUSH2 0x4CE0 JUMP JUMPDEST PUSH2 0x223D PUSH1 0xFF DUP7 PUSH1 0x8 SHR AND PUSH2 0x4CE0 JUMP JUMPDEST PUSH1 0x1 PUSH1 0x1 PUSH1 0x60 SHL SUB PUSH1 0xA0 SHL PUSH1 0x97 SLOAD AND OR PUSH1 0x97 SSTORE PUSH2 0x225F PUSH1 0xFF DUP6 PUSH1 0x8 SHR AND PUSH2 0x4CE0 JUMP JUMPDEST PUSH1 0xCA SLOAD SWAP1 PUSH3 0x10000 DUP4 PUSH1 0xB0 SHL SUB SWAP1 PUSH1 0x10 SHL AND SWAP1 PUSH2 0xFF01 DUP4 PUSH1 0xB0 SHL SUB NOT AND OR OR PUSH1 0xCA SSTORE PUSH2 0x2290 PUSH1 0xFF DUP4 PUSH1 0x8 SHR AND PUSH2 0x4CE0 JUMP JUMPDEST PUSH8 0xDE0B6B3A7640000 PUSH1 0xA4 CALLDATALOAD LT PUSH2 0x251F JUMPI PUSH2 0x22AC PUSH1 0xE4 CALLDATALOAD PUSH2 0x5B7B JUMP JUMPDEST PUSH2 0x22B8 PUSH2 0x104 CALLDATALOAD PUSH2 0x5B7B JUMP JUMPDEST PUSH2 0x22C4 PUSH2 0x124 CALLDATALOAD PUSH2 0x5B7B JUMP JUMPDEST PUSH2 0x22D0 PUSH2 0x144 CALLDATALOAD PUSH2 0x5B7B JUMP JUMPDEST PUSH2 0x22DC PUSH2 0x164 CALLDATALOAD PUSH2 0x5B7B JUMP JUMPDEST PUSH2 0x22E8 PUSH2 0x184 CALLDATALOAD PUSH2 0x5B7B JUMP JUMPDEST PUSH2 0x22F4 PUSH2 0x1A4 CALLDATALOAD PUSH2 0x5B7B JUMP JUMPDEST PUSH2 0x2300 PUSH2 0x1C4 CALLDATALOAD PUSH2 0x5B7B JUMP JUMPDEST PUSH2 0x230C PUSH2 0x1E4 CALLDATALOAD PUSH2 0x5B7B JUMP JUMPDEST PUSH2 0x2324 PUSH2 0x231F PUSH2 0x224 CALLDATALOAD PUSH2 0x204 CALLDATALOAD PUSH2 0x4897 JUMP JUMPDEST PUSH2 0x5B7B JUMP JUMPDEST PUSH1 0x4 CALLDATALOAD PUSH1 0x1 PUSH1 0x1 PUSH1 0xA0 SHL SUB DUP2 AND DUP2 SUB PUSH2 0x90C JUMPI PUSH2 0x161 DUP1 SLOAD PUSH1 0x1 PUSH1 0x1 PUSH1 0xA0 SHL SUB NOT AND PUSH1 0x1 PUSH1 0x1 PUSH1 0xA0 SHL SUB SWAP3 DUP4 AND OR SWAP1 SSTORE PUSH1 0x24 CALLDATALOAD SWAP1 DUP2 AND DUP2 SUB PUSH2 0x90C JUMPI PUSH2 0x162 DUP1 SLOAD PUSH1 0x1 PUSH1 0x1 PUSH1 0xA0 SHL SUB NOT AND PUSH1 0x1 PUSH1 0x1 PUSH1 0xA0 SHL SUB SWAP3 DUP4 AND OR SWAP1 SSTORE PUSH1 0x44 CALLDATALOAD SWAP1 DUP2 AND DUP2 SUB PUSH2 0x90C JUMPI PUSH2 0x165 DUP1 SLOAD PUSH1 0x1 PUSH1 0x1 PUSH1 0xA0 SHL SUB NOT AND PUSH1 0x1 PUSH1 0x1 PUSH1 0xA0 SHL SUB SWAP3 DUP4 AND OR SWAP1 SSTORE PUSH1 0x64 CALLDATALOAD SWAP1 DUP2 AND DUP2 SUB PUSH2 0x90C JUMPI PUSH2 0x178 DUP1 SLOAD PUSH1 0x1 PUSH1 0x1 PUSH1 0xA0 SHL SUB NOT AND PUSH1 0x1 PUSH1 0x1 PUSH1 0xA0 SHL SUB SWAP3 DUP4 AND OR SWAP1 SSTORE PUSH1 0x84 CALLDATALOAD SWAP1 DUP2 AND DUP2 SUB PUSH2 0x90C JUMPI PUSH2 0x179 SWAP1 PUSH1 0x1 DUP1 PUSH1 0xA0 SHL SUB AND PUSH1 0x1 PUSH1 0x1 PUSH1 0x60 SHL SUB PUSH1 0xA0 SHL DUP3 SLOAD AND OR SWAP1 SSTORE PUSH1 0xA4 CALLDATALOAD PUSH2 0x17B SSTORE PUSH1 0xC4 CALLDATALOAD PUSH2 0x17C SSTORE PUSH1 0xE4 CALLDATALOAD PUSH2 0x16D SSTORE PUSH2 0x104 CALLDATALOAD PUSH2 0x16E SSTORE PUSH2 0x124 CALLDATALOAD PUSH2 0x16F SSTORE PUSH2 0x144 CALLDATALOAD PUSH2 0x170 SSTORE PUSH2 0x164 CALLDATALOAD PUSH2 0x171 SSTORE PUSH2 0x184 CALLDATALOAD PUSH2 0x172 SSTORE PUSH2 0x1A4 CALLDATALOAD PUSH2 0x173 SSTORE PUSH2 0x1C4 CALLDATALOAD PUSH2 0x174 SSTORE PUSH2 0x1E4 CALLDATALOAD PUSH2 0x175 SSTORE PUSH2 0x204 CALLDATALOAD PUSH2 0x16B SSTORE PUSH2 0x224 CALLDATALOAD PUSH2 0x16C SSTORE PUSH2 0x246F PUSH2 0x244 CALLDATALOAD DUP1 PUSH2 0x17E SSTORE NUMBER PUSH2 0x4897 JUMP JUMPDEST PUSH2 0x17F SSTORE PUSH2 0x17D PUSH2 0xFFFF NOT DUP2 SLOAD AND SWAP1 SSTORE PUSH2 0x2C4 CALLDATALOAD PUSH2 0x2492 PUSH1 0xFF DUP5 PUSH1 0x8 SHR AND PUSH2 0x4CE0 JUMP JUMPDEST DUP1 ISZERO PUSH2 0x251F JUMPI PUSH2 0x1B6 DUP2 SWAP1 SSTORE NUMBER ADD PUSH2 0x1B5 SSTORE PUSH2 0x2E4 CALLDATALOAD PUSH1 0x1 PUSH1 0x1 PUSH1 0xA0 SHL SUB DUP2 AND SWAP1 DUP2 SWAP1 SUB PUSH2 0x90C JUMPI PUSH2 0x24C9 PUSH1 0xFF DUP5 PUSH1 0x8 SHR AND PUSH2 0x4CE0 JUMP JUMPDEST PUSH2 0x1E9 DUP1 SLOAD PUSH1 0x1 PUSH1 0x1 PUSH1 0xA0 SHL SUB NOT AND SWAP1 SWAP2 OR SWAP1 SSTORE PUSH2 0x24E7 JUMPI POP PUSH1 0x40 MLOAD RETURN JUMPDEST PUSH2 0xFF00 NOT AND DUP2 SSTORE PUSH32 0x7F26B83FF96E1F2B6A682F133852F6798A09C465DA95921460CEFB3847402498 PUSH1 0x20 PUSH1 0x40 MLOAD PUSH1 0x1 DUP2 MSTORE LOG1 DUP2 PUSH2 0xCCF JUMP JUMPDEST PUSH1 0x40 MLOAD PUSH4 0x2A9FFAB7 PUSH1 0xE2 SHL DUP2 MSTORE PUSH1 0x4 SWAP1 REVERT JUMPDEST PUSH2 0xFFFF NOT AND PUSH2 0x101 OR DUP3 SSTORE DUP3 PUSH2 0x2196 JUMP JUMPDEST PUSH1 0x40 MLOAD PUSH3 0x461BCD PUSH1 0xE5 SHL DUP2 MSTORE PUSH1 0x20 PUSH1 0x4 DUP3 ADD MSTORE PUSH1 0x2E PUSH1 0x24 DUP3 ADD MSTORE PUSH32 0x496E697469616C697A61626C653A20636F6E747261637420697320616C726561 PUSH1 0x44 DUP3 ADD MSTORE PUSH14 0x191E481A5B9A5D1A585B1A5E9959 PUSH1 0x92 SHL PUSH1 0x64 DUP3 ADD MSTORE PUSH1 0x84 SWAP1 REVERT JUMPDEST POP ADDRESS EXTCODESIZE ISZERO DUP1 ISZERO PUSH2 0x2181 JUMPI POP PUSH1 0x1 PUSH1 0xFF DUP3 AND EQ PUSH2 0x2181 JUMP JUMPDEST POP PUSH1 0x1 PUSH1 0xFF DUP3 AND LT PUSH2 0x217A JUMP JUMPDEST DUP3 PUSH1 0x60 CALLDATASIZE PUSH1 0x3 NOT ADD SLT PUSH2 0x90C JUMPI PUSH1 0x1 PUSH1 0x1 PUSH1 0xA0 SHL SUB SWAP1 PUSH1 0x44 CALLDATALOAD DUP3 DUP2 AND SWAP2 SWAP1 DUP3 SWAP1 SUB PUSH2 0x90C JUMPI PUSH1 0x40 MLOAD PUSH2 0x6C1 SWAP2 PUSH2 0x25F9 PUSH1 0xC0 DUP4 PUSH2 0x4380 JUMP JUMPDEST PUSH1 0x4 CALLDATALOAD DUP3 MSTORE PUSH1 0x20 DUP3 ADD SWAP1 PUSH1 0x24 CALLDATALOAD DUP3 MSTORE PUSH1 0x40 DUP4 ADD SWAP6 CALLVALUE DUP8 MSTORE PUSH1 0x60 DUP5 ADD SWAP1 CALLER DUP3 MSTORE PUSH1 0x80 DUP6 ADD SWAP7 DUP8 MSTORE PUSH1 0xA0 DUP6 ADD SWAP3 DUP4 MSTORE PUSH2 0x621 PUSH2 0x4D8F JUMP JUMPDEST DUP3 CALLVALUE PUSH2 0x5C2 JUMPI PUSH1 0x20 CALLDATASIZE PUSH1 0x3 NOT ADD SLT PUSH2 0x5C2 JUMPI PUSH1 0x20 PUSH2 0x95B CALLER CALLER PUSH1 0x4 CALLDATALOAD PUSH2 0x5741 JUMP JUMPDEST DUP3 CALLVALUE PUSH2 0x5C2 JUMPI PUSH1 0x20 CALLDATASIZE PUSH1 0x3 NOT ADD SLT PUSH2 0x5C2 JUMPI PUSH1 0x20 PUSH2 0x95B PUSH1 0x4 CALLDATALOAD PUSH2 0x4BD0 JUMP JUMPDEST DUP3 CALLVALUE PUSH2 0x5C2 JUMPI DUP1 PUSH1 0x3 NOT CALLDATASIZE ADD SLT PUSH2 0x5C2 JUMPI PUSH1 0x20 PUSH2 0x281 SLOAD PUSH1 0x40 MLOAD SWAP1 DUP2 MSTORE RETURN JUMPDEST DUP3 CALLVALUE PUSH2 0x5C2 JUMPI DUP1 PUSH1 0x3 NOT CALLDATASIZE ADD SLT PUSH2 0x5C2 JUMPI PUSH1 0x20 PUSH2 0x17C SLOAD PUSH1 0x40 MLOAD SWAP1 DUP2 MSTORE RETURN JUMPDEST DUP3 CALLVALUE PUSH2 0x5C2 JUMPI DUP1 PUSH1 0x3 NOT CALLDATASIZE ADD SLT PUSH2 0x5C2 JUMPI PUSH2 0x26C5 PUSH2 0x5B5A JUMP JUMPDEST PUSH1 0xCA SLOAD PUSH1 0x10 DUP2 SWAP1 SHR PUSH1 0x1 PUSH1 0x1 PUSH1 0xA0 SHL SUB AND CALLER SUB PUSH2 0x2733 JUMPI PUSH1 0xFF DUP2 AND ISZERO PUSH2 0x2721 JUMPI PUSH2 0x100 SWAP1 PUSH2 0xFF00 NOT AND OR PUSH1 0xCA SSTORE PUSH32 0x62E78CEA01BEE320CD4E420270B5EA74000D11B0C9F74754EBDBFC544B05A258 PUSH1 0x20 PUSH1 0x40 MLOAD CALLER DUP2 MSTORE LOG1 PUSH1 0x40 MLOAD RETURN JUMPDEST PUSH1 0x40 MLOAD PUSH4 0x866099C3 PUSH1 0xE0 SHL DUP2 MSTORE PUSH1 0x4 SWAP1 REVERT JUMPDEST PUSH1 0x40 MLOAD PUSH4 0x1D77D477 PUSH1 0xE2 SHL DUP2 MSTORE PUSH1 0x4 SWAP1 REVERT JUMPDEST DUP3 PUSH1 0x40 CALLDATASIZE PUSH1 0x3 NOT ADD SLT PUSH2 0x90C JUMPI PUSH1 0x40 MLOAD SWAP1 PUSH2 0x2761 PUSH1 0xC0 DUP4 PUSH2 0x4380 JUMP JUMPDEST PUSH1 0x4 CALLDATALOAD DUP3 MSTORE PUSH2 0x6C1 PUSH1 0x20 DUP4 ADD SWAP3 PUSH1 0x24 CALLDATALOAD DUP5 MSTORE PUSH1 0x40 DUP2 ADD SWAP4 CALLVALUE DUP6 MSTORE PUSH1 0x60 DUP3 ADD SWAP4 CALLER DUP6 MSTORE PUSH1 0x80 DUP4 ADD SWAP5 CALLER DUP7 MSTORE PUSH1 0xA0 DUP5 ADD SWAP2 DUP3 MSTORE PUSH2 0x279A PUSH2 0x4D8F JUMP JUMPDEST PUSH2 0x27A2 PUSH2 0x5B5A JUMP JUMPDEST PUSH2 0x27AA PUSH2 0x5A38 JUMP JUMPDEST PUSH2 0x27F4 PUSH2 0x27E1 PUSH2 0x27B8 PUSH2 0x597C JUMP JUMPDEST SWAP2 SWAP1 PUSH2 0x27D5 PUSH2 0x27C8 DUP10 MLOAD DUP6 PUSH2 0x48BA JUMP JUMPDEST MLOAD SWAP4 PUSH2 0x65C DUP6 DUP12 MLOAD PUSH2 0x5223 JUMP JUMPDEST SWAP2 DUP5 DUP11 MLOAD DUP11 MLOAD SWAP1 PUSH2 0x527A JUMP JUMPDEST PUSH2 0x681 PUSH8 0xDE0B6B3A7640000 DUP7 MLOAD PUSH2 0x49E1 JUMP JUMPDEST SWAP3 PUSH2 0x27FD PUSH2 0x4D40 JUMP JUMPDEST POP PUSH1 0x1 DUP1 PUSH1 0xA0 SHL SUB SWAP1 PUSH2 0x6B6 DUP3 DUP5 MLOAD AND DUP7 DUP5 DUP8 MLOAD AND PUSH2 0x6A9 DUP11 MLOAD PUSH2 0x176 PUSH2 0x4222 JUMP JUMPDEST DUP3 CALLVALUE PUSH2 0x5C2 JUMPI DUP1 PUSH1 0x3 NOT CALLDATASIZE ADD SLT PUSH2 0x5C2 JUMPI PUSH1 0x20 PUSH2 0x95B PUSH2 0x1E5F PUSH2 0x11F2 PUSH2 0x4CA6 JUMP JUMPDEST DUP3 CALLVALUE PUSH2 0x5C2 JUMPI DUP1 PUSH1 0x3 NOT CALLDATASIZE ADD SLT PUSH2 0x5C2 JUMPI PUSH2 0x1E9 SLOAD PUSH1 0x40 MLOAD PUSH1 0x1 PUSH1 0x1 PUSH1 0xA0 SHL SUB SWAP1 SWAP2 AND DUP2 MSTORE PUSH1 0x20 SWAP1 RETURN JUMPDEST DUP3 PUSH2 0x2876 CALLDATASIZE PUSH1 0x4 PUSH2 0x4299 JUMP JUMPDEST SWAP4 SWAP2 SWAP3 PUSH1 0x40 MLOAD SWAP6 PUSH2 0x2887 SWAP1 DUP8 PUSH2 0x4380 JUMP JUMPDEST DUP6 MSTORE PUSH1 0x20 DUP6 ADD SWAP3 DUP4 MSTORE PUSH1 0x40 DUP6 ADD MSTORE PUSH1 0x60 DUP5 ADD CALLVALUE DUP2 MSTORE PUSH1 0x80 DUP6 ADD CALLER DUP2 MSTORE PUSH1 0xA0 DUP7 ADD SWAP5 PUSH1 0x1 PUSH1 0xA0 SHL PUSH1 0x1 SWAP1 SUB DUP1 SWAP2 AND DUP7 MSTORE PUSH1 0xC0 DUP8 ADD SWAP3 DUP5 DUP5 MSTORE PUSH2 0x28C6 PUSH2 0x4D8F JUMP JUMPDEST PUSH2 0x28CE PUSH2 0x5B5A JUMP JUMPDEST PUSH2 0x28D6 PUSH2 0x5A38 JUMP JUMPDEST PUSH2 0x28DE PUSH2 0x597C JUMP JUMPDEST SWAP8 SWAP1 DUP10 MLOAD PUSH2 0x28EC SWAP1 DUP11 PUSH2 0x48BA JUMP JUMPDEST MLOAD SWAP9 DUP10 DUP12 MLOAD SWAP1 PUSH2 0x28FB SWAP2 PUSH2 0x5223 JUMP JUMPDEST PUSH2 0x2905 SWAP1 DUP3 PUSH2 0x4E65 JUMP JUMPDEST DUP3 DUP2 DUP4 DUP13 MLOAD SWAP3 PUSH2 0x2914 SWAP4 PUSH2 0x57F9 JUMP JUMPDEST DUP10 MLOAD SWAP2 PUSH8 0xDE0B6B3A7640000 DUP1 SWAP4 PUSH2 0x292C DUP5 DUP5 PUSH2 0x4EA8 JUMP JUMPDEST PUSH2 0x2935 SWAP2 PUSH2 0x49E1 JUMP JUMPDEST DIV SWAP4 DUP5 ISZERO PUSH2 0x76A JUMPI DUP13 PUSH2 0x2962 SWAP5 DUP16 SWAP15 PUSH2 0xA76 DUP16 SWAP2 PUSH2 0xA71 PUSH2 0x205D SWAP4 MLOAD PUSH2 0x83A DUP10 PUSH2 0xA6C DUP13 PUSH2 0x163 SLOAD PUSH2 0x4A9F JUMP JUMPDEST PUSH1 0x40 DUP10 ADD MLOAD DUP1 DUP12 LT PUSH2 0x298F JUMPI POP PUSH2 0x2097 SWAP1 PUSH2 0x297B PUSH2 0x4D40 JUMP JUMPDEST POP DUP5 DUP7 MLOAD AND SWAP1 DUP6 DUP9 MLOAD AND PUSH2 0x172 SLOAD SWAP3 PUSH2 0x4EE3 JUMP JUMPDEST PUSH1 0x44 SWAP1 DUP12 PUSH1 0x40 MLOAD SWAP2 PUSH4 0x272E3F59 PUSH1 0xE2 SHL DUP4 MSTORE PUSH1 0x4 DUP4 ADD MSTORE PUSH1 0x24 DUP3 ADD MSTORE REVERT JUMPDEST DUP3 CALLVALUE PUSH2 0x5C2 JUMPI PUSH1 0x20 CALLDATASIZE PUSH1 0x3 NOT ADD SLT PUSH2 0x5C2 JUMPI PUSH1 0x4 CALLDATALOAD SWAP1 PUSH2 0x17A SWAP1 DUP2 SLOAD DUP4 LT ISZERO PUSH2 0x5C2 JUMPI PUSH1 0x20 PUSH2 0x1231 DUP5 DUP5 PUSH2 0x4222 JUMP JUMPDEST DUP3 CALLVALUE PUSH2 0x5C2 JUMPI PUSH1 0x20 CALLDATASIZE PUSH1 0x3 NOT ADD SLT PUSH2 0x5C2 JUMPI PUSH2 0x29F6 PUSH2 0x5ACC JUMP JUMPDEST PUSH1 0x4 CALLDATALOAD PUSH2 0x17B SSTORE PUSH1 0x40 MLOAD RETURN JUMPDEST SWAP1 POP CALLVALUE PUSH2 0xCD5 JUMPI SWAP1 PUSH2 0x1CA2 SWAP2 PUSH2 0x2A19 CALLDATASIZE PUSH1 0x4 PUSH2 0x42BF JUMP JUMPDEST SWAP3 SWAP4 PUSH2 0x2A2B PUSH1 0x40 SWAP8 SWAP4 SWAP8 MLOAD SWAP7 DUP8 PUSH2 0x4380 JUMP JUMPDEST DUP6 MSTORE PUSH1 0x20 DUP6 ADD SWAP4 DUP5 MSTORE PUSH1 0x40 DUP6 ADD SWAP6 DUP7 MSTORE PUSH1 0x60 DUP6 ADD MSTORE CALLER PUSH1 0x80 DUP6 ADD DUP2 DUP2 MSTORE PUSH1 0xA0 DUP7 ADD SWAP2 DUP3 MSTORE PUSH1 0x1 PUSH1 0x1 PUSH1 0xA0 SHL SUB SWAP4 DUP5 AND PUSH1 0xC0 DUP8 ADD SWAP1 DUP2 MSTORE SWAP1 SWAP5 SWAP1 PUSH2 0x1C6F PUSH2 0x4D8F JUMP JUMPDEST DUP3 CALLVALUE PUSH2 0x5C2 JUMPI PUSH1 0x20 CALLDATASIZE PUSH1 0x3 NOT ADD SLT PUSH2 0x5C2 JUMPI PUSH2 0x2A86 PUSH2 0x5ACC JUMP JUMPDEST PUSH1 0x4 CALLDATALOAD PUSH2 0x172 SSTORE PUSH1 0x40 MLOAD RETURN JUMPDEST SWAP1 POP PUSH2 0x196D PUSH2 0x2AA2 CALLDATASIZE PUSH1 0x4 PUSH2 0x430C JUMP JUMPDEST SWAP4 SWAP5 SWAP1 PUSH1 0x40 SWAP7 SWAP3 SWAP4 SWAP7 MLOAD SWAP2 PUSH2 0x2AB9 PUSH2 0x100 DUP5 PUSH2 0x4380 JUMP JUMPDEST DUP3 MSTORE PUSH1 0x20 DUP3 ADD SWAP6 DUP7 MSTORE PUSH1 0x40 DUP3 ADD SWAP7 DUP8 MSTORE PUSH1 0x60 DUP3 ADD SWAP4 DUP5 MSTORE PUSH1 0x80 DUP3 ADD SWAP7 CALLVALUE DUP9 MSTORE PUSH1 0xA0 DUP4 ADD SWAP5 CALLER DUP7 MSTORE PUSH1 0xC0 DUP5 ADD SWAP2 PUSH1 0x1 DUP1 PUSH1 0xA0 SHL SUB SWAP9 DUP10 DUP1 SWAP6 AND DUP5 MSTORE DUP5 DUP13 DUP8 ADD SWAP10 AND DUP10 MSTORE PUSH2 0x18F7 PUSH2 0x4D8F JUMP JUMPDEST DUP3 CALLVALUE PUSH2 0x5C2 JUMPI DUP1 PUSH1 0x3 NOT CALLDATASIZE ADD SLT PUSH2 0x5C2 JUMPI PUSH1 0x20 PUSH2 0x1B6 SLOAD PUSH1 0x40 MLOAD SWAP1 DUP2 MSTORE RETURN JUMPDEST DUP3 CALLVALUE PUSH2 0x5C2 JUMPI PUSH1 0x20 CALLDATASIZE PUSH1 0x3 NOT ADD SLT PUSH2 0x5C2 JUMPI PUSH2 0x2B3C PUSH2 0x5ACC JUMP JUMPDEST PUSH1 0x4 CALLDATALOAD PUSH2 0x173 SSTORE PUSH1 0x40 MLOAD RETURN JUMPDEST DUP3 CALLVALUE PUSH2 0x5C2 JUMPI DUP1 PUSH1 0x3 NOT CALLDATASIZE ADD SLT PUSH2 0x5C2 JUMPI PUSH1 0x20 PUSH2 0x166 SLOAD PUSH1 0x40 MLOAD SWAP1 DUP2 MSTORE RETURN JUMPDEST DUP3 CALLVALUE PUSH2 0x5C2 JUMPI DUP1 PUSH1 0x3 NOT CALLDATASIZE ADD SLT PUSH2 0x5C2 JUMPI PUSH1 0x20 PUSH2 0x174 SLOAD PUSH1 0x40 MLOAD SWAP1 DUP2 MSTORE RETURN JUMPDEST DUP3 CALLVALUE PUSH2 0x5C2 JUMPI PUSH1 0x20 CALLDATASIZE PUSH1 0x3 NOT ADD SLT PUSH2 0x5C2 JUMPI PUSH2 0x2BA0 PUSH2 0x5ACC JUMP JUMPDEST PUSH1 0x4 CALLDATALOAD PUSH2 0x16D SSTORE PUSH1 0x40 MLOAD RETURN JUMPDEST DUP3 CALLVALUE PUSH2 0x5C2 JUMPI DUP1 PUSH1 0x3 NOT CALLDATASIZE ADD SLT PUSH2 0x5C2 JUMPI PUSH1 0x20 PUSH2 0x16B SLOAD PUSH1 0x40 MLOAD SWAP1 DUP2 MSTORE RETURN JUMPDEST DUP3 PUSH1 0x60 CALLDATASIZE PUSH1 0x3 NOT ADD SLT PUSH2 0x90C JUMPI PUSH1 0x1 PUSH1 0x1 PUSH1 0xA0 SHL SUB PUSH1 0x44 CALLDATALOAD DUP2 DUP2 AND SWAP1 DUP2 SWAP1 SUB PUSH2 0x90C JUMPI PUSH1 0x40 MLOAD SWAP1 PUSH2 0x2BFD PUSH1 0xC0 DUP4 PUSH2 0x4380 JUMP JUMPDEST PUSH1 0x4 CALLDATALOAD DUP3 MSTORE PUSH1 0x20 DUP3 ADD PUSH1 0x24 CALLDATALOAD DUP2 MSTORE PUSH1 0x40 DUP4 ADD SWAP3 CALLVALUE DUP5 MSTORE PUSH1 0x60 DUP2 ADD SWAP3 CALLER DUP5 MSTORE PUSH1 0x80 DUP3 ADD SWAP4 CALLER DUP6 MSTORE PUSH1 0xA0 DUP4 ADD SWAP2 DUP3 MSTORE PUSH2 0xD5C PUSH2 0x4D8F JUMP JUMPDEST DUP3 CALLVALUE PUSH2 0x5C2 JUMPI PUSH1 0x20 CALLDATASIZE PUSH1 0x3 NOT ADD SLT PUSH2 0x5C2 JUMPI PUSH2 0x2C4C PUSH2 0x5ACC JUMP JUMPDEST PUSH1 0x4 CALLDATALOAD PUSH2 0x170 SSTORE PUSH1 0x40 MLOAD RETURN JUMPDEST DUP3 CALLVALUE PUSH2 0x5C2 JUMPI DUP1 PUSH1 0x3 NOT CALLDATASIZE ADD SLT PUSH2 0x5C2 JUMPI PUSH1 0x20 PUSH2 0x17B SLOAD PUSH1 0x40 MLOAD SWAP1 DUP2 MSTORE RETURN JUMPDEST DUP3 CALLVALUE PUSH2 0x5C2 JUMPI DUP1 PUSH1 0x3 NOT CALLDATASIZE ADD SLT PUSH2 0x5C2 JUMPI PUSH2 0x2C90 PUSH2 0x5ACC JUMP JUMPDEST PUSH1 0x1 PUSH1 0xFF NOT PUSH1 0xCA SLOAD AND OR PUSH1 0xCA SSTORE PUSH1 0x40 MLOAD RETURN JUMPDEST DUP3 CALLVALUE PUSH2 0x5C2 JUMPI DUP1 PUSH1 0x3 NOT CALLDATASIZE ADD SLT PUSH2 0x5C2 JUMPI PUSH1 0x20 PUSH2 0x2CBD PUSH2 0x597C JUMP JUMPDEST POP PUSH1 0x40 MLOAD SWAP1 DUP2 MSTORE RETURN JUMPDEST DUP3 CALLVALUE PUSH2 0x5C2 JUMPI DUP1 PUSH1 0x3 NOT CALLDATASIZE ADD SLT PUSH2 0x5C2 JUMPI PUSH2 0x161 SLOAD PUSH1 0x40 MLOAD PUSH1 0x1 PUSH1 0x1 PUSH1 0xA0 SHL SUB SWAP1 SWAP2 AND DUP2 MSTORE PUSH1 0x20 SWAP1 RETURN JUMPDEST DUP3 CALLVALUE PUSH2 0x5C2 JUMPI DUP1 PUSH1 0x3 NOT CALLDATASIZE ADD SLT PUSH2 0x5C2 JUMPI PUSH2 0x165 SLOAD PUSH1 0x40 MLOAD PUSH1 0x1 PUSH1 0x1 PUSH1 0xA0 SHL SUB SWAP1 SWAP2 AND DUP2 MSTORE PUSH1 0x20 SWAP1 RETURN JUMPDEST DUP3 CALLVALUE PUSH2 0x5C2 JUMPI DUP1 PUSH1 0x3 NOT CALLDATASIZE ADD SLT PUSH2 0x5C2 JUMPI PUSH1 0x2A PUSH2 0x281 SSTORE PUSH1 0x40 MLOAD RETURN JUMPDEST DUP3 CALLVALUE PUSH2 0x5C2 JUMPI PUSH2 0x17E3 PUSH2 0x2D4A CALLDATASIZE PUSH1 0x4 PUSH2 0x4299 JUMP JUMPDEST SWAP1 SWAP3 SWAP4 SWAP2 PUSH1 0x40 MLOAD SWAP5 PUSH2 0x2D5D PUSH1 0xC0 DUP8 PUSH2 0x4380 JUMP JUMPDEST DUP6 MSTORE PUSH1 0x20 DUP6 ADD SWAP1 DUP2 MSTORE PUSH1 0x40 DUP6 ADD SWAP4 DUP5 MSTORE CALLER PUSH1 0x60 DUP7 ADD DUP2 DUP2 MSTORE PUSH1 0x80 DUP8 ADD SWAP2 DUP3 MSTORE PUSH1 0x1 PUSH1 0x1 PUSH1 0xA0 SHL SUB SWAP4 DUP5 AND PUSH1 0xA0 DUP9 ADD SWAP1 DUP2 MSTORE SWAP2 SWAP4 SWAP2 SWAP3 PUSH2 0x1773 PUSH2 0x4D8F JUMP JUMPDEST DUP3 CALLVALUE PUSH2 0x5C2 JUMPI PUSH1 0x40 CALLDATASIZE PUSH1 0x3 NOT ADD SLT PUSH2 0x5C2 JUMPI PUSH1 0x24 CALLDATALOAD PUSH1 0x1 PUSH1 0x1 PUSH1 0xA0 SHL SUB DUP2 AND DUP2 SUB PUSH2 0x90C JUMPI PUSH2 0x95B PUSH1 0x20 SWAP2 CALLER PUSH1 0x4 CALLDATALOAD PUSH2 0x5741 JUMP JUMPDEST DUP3 CALLVALUE PUSH2 0x5C2 JUMPI DUP1 PUSH1 0x3 NOT CALLDATASIZE ADD SLT PUSH2 0x5C2 JUMPI PUSH1 0x20 PUSH1 0xFF PUSH1 0xCA SLOAD PUSH1 0x8 SHR AND PUSH1 0x40 MLOAD SWAP1 ISZERO ISZERO DUP2 MSTORE RETURN JUMPDEST DUP3 CALLVALUE PUSH2 0x5C2 JUMPI DUP1 PUSH1 0x3 NOT CALLDATASIZE ADD SLT PUSH2 0x5C2 JUMPI PUSH2 0x2E0D PUSH2 0x5B5A JUMP JUMPDEST PUSH2 0x17F DUP1 SLOAD NUMBER LT PUSH2 0x308C JUMPI PUSH2 0x2E25 PUSH2 0x17E SLOAD NUMBER PUSH2 0x4897 JUMP JUMPDEST SWAP1 SSTORE PUSH32 0xD3C59BDA47E141A8EC5A33D241B7F71B86E30D359F83A9227D912858B60404FC DUP2 PUSH1 0x40 MLOAD LOG1 DUP1 PUSH2 0x169 SLOAD PUSH2 0x2E5B DUP2 PUSH2 0x4AC4 JUMP JUMPDEST SWAP1 DUP4 JUMPDEST DUP2 DUP2 LT PUSH2 0x2FBF JUMPI POP POP DUP2 PUSH2 0x2ED7 JUMPI JUMPDEST PUSH1 0x40 MLOAD SWAP2 PUSH1 0x40 DUP4 ADD SWAP1 DUP4 MSTORE PUSH1 0x20 SWAP1 PUSH1 0x40 DUP3 DUP6 ADD MSTORE DUP3 MLOAD DUP1 SWAP2 MSTORE DUP2 PUSH1 0x60 DUP6 ADD SWAP4 ADD SWAP2 DUP6 JUMPDEST DUP3 DUP2 LT PUSH2 0x2EC3 JUMPI DUP7 PUSH32 0xAE5116A8119D08673A0F1DFA7546B95DA4BD54BB17FEDA7C61130AC7859152F6 DUP8 DUP8 SUB DUP9 LOG1 PUSH1 0x40 MLOAD RETURN JUMPDEST DUP4 MLOAD DUP6 MSTORE SWAP4 DUP2 ADD SWAP4 SWAP3 DUP2 ADD SWAP3 PUSH1 0x1 ADD PUSH2 0x2E90 JUMP JUMPDEST SWAP1 PUSH2 0x2EEF PUSH8 0xDE0B6B3A7640000 SWAP2 PUSH2 0x16B SLOAD SWAP1 PUSH2 0x49E1 JUMP JUMPDEST DIV SWAP1 PUSH2 0x163 PUSH2 0x2EFF DUP4 DUP3 SLOAD PUSH2 0x4A9F JUMP JUMPDEST SWAP1 SSTORE PUSH2 0x178 SLOAD PUSH2 0x12F DUP1 SLOAD SWAP1 SWAP2 PUSH1 0x1 PUSH1 0x1 PUSH1 0xA0 SHL SUB AND SWAP1 PUSH1 0x2 EQ PUSH2 0x2F7A JUMPI PUSH1 0x2 DUP3 SSTORE DUP4 PUSH2 0x2F31 JUMPI JUMPDEST POP PUSH1 0x1 SWAP1 SSTORE PUSH2 0x2E6D JUMP JUMPDEST DUP1 ISZERO PUSH2 0x2F68 JUMPI DUP5 DUP1 DUP1 SWAP3 DUP7 PUSH1 0x40 MLOAD SWAP2 GAS CALL PUSH2 0x2F4A PUSH2 0x478B JUMP JUMPDEST POP ISZERO PUSH2 0x2F56 JUMPI DUP5 PUSH2 0x2F27 JUMP JUMPDEST PUSH1 0x40 MLOAD PUSH4 0x12171D83 PUSH1 0xE3 SHL DUP2 MSTORE PUSH1 0x4 SWAP1 REVERT JUMPDEST PUSH1 0x40 MLOAD PUSH4 0xE6C4247B PUSH1 0xE0 SHL DUP2 MSTORE PUSH1 0x4 SWAP1 REVERT JUMPDEST PUSH1 0x40 MLOAD PUSH3 0x461BCD PUSH1 0xE5 SHL DUP2 MSTORE PUSH1 0x20 PUSH1 0x4 DUP3 ADD MSTORE PUSH1 0x1F PUSH1 0x24 DUP3 ADD MSTORE PUSH32 0x5265656E7472616E637947756172643A207265656E7472616E742063616C6C00 PUSH1 0x44 DUP3 ADD MSTORE PUSH1 0x64 SWAP1 REVERT JUMPDEST PUSH2 0x2FC8 DUP2 PUSH2 0x4BD0 JUMP JUMPDEST PUSH2 0x2FD2 DUP2 DUP4 PUSH2 0x5223 JUMP JUMPDEST DUP6 PUSH2 0x180 SWAP2 PUSH2 0x2FE1 DUP5 DUP5 PUSH2 0x4222 JUMP JUMPDEST SWAP1 SLOAD SWAP1 PUSH1 0x3 SHL SHR SWAP1 DUP3 DUP3 SGT PUSH2 0x2FFD JUMPI JUMPDEST POP POP POP POP PUSH1 0x1 ADD PUSH2 0x2E5E JUMP JUMPDEST DUP5 PUSH2 0x3041 DUP4 PUSH1 0x1 SWAP8 SWAP7 SWAP11 PUSH2 0x302A PUSH2 0x3030 PUSH2 0x3060 SWAP8 PUSH2 0x3047 SWAP8 PUSH8 0xDE0B6B3A7640000 SWAP4 DUP5 SWAP2 PUSH2 0x16C SLOAD PUSH2 0x49E1 JUMP JUMPDEST DIV PUSH2 0x49E1 JUMP JUMPDEST DIV PUSH2 0x303B DUP6 DUP14 PUSH2 0x48BA JUMP JUMPDEST MSTORE PUSH2 0x4897 JUMP JUMPDEST SWAP9 PUSH2 0x4222 JUMP JUMPDEST DUP2 SWAP4 SWAP2 SLOAD SWAP1 PUSH1 0x3 SHL PUSH1 0x0 NOT DUP2 SHL SWAP3 DUP4 SWAP2 SHL AND SWAP2 NOT AND OR SWAP1 JUMP JUMPDEST SWAP1 SSTORE PUSH2 0x3083 PUSH2 0x306F DUP3 DUP7 PUSH2 0x48BA JUMP JUMPDEST MLOAD DUP8 DUP5 DUP1 PUSH1 0xA0 SHL SUB PUSH2 0x179 SLOAD AND SWAP2 DUP5 PUSH2 0x518A JUMP JUMPDEST SWAP1 DUP6 DUP8 DUP1 PUSH2 0x2FF1 JUMP JUMPDEST PUSH1 0x40 MLOAD PUSH4 0x101B6859 PUSH1 0xE0 SHL DUP2 MSTORE PUSH1 0x4 SWAP1 REVERT JUMPDEST DUP3 CALLVALUE PUSH2 0x5C2 JUMPI DUP1 PUSH1 0x3 NOT CALLDATASIZE ADD SLT PUSH2 0x5C2 JUMPI PUSH1 0x20 PUSH2 0x95B PUSH2 0x281 SLOAD PUSH8 0xDE0B6B3A7640000 PUSH2 0x17B SLOAD DIV SWAP1 PUSH2 0x4897 JUMP JUMPDEST DUP3 CALLVALUE PUSH2 0x5C2 JUMPI PUSH2 0x17E3 SWAP1 PUSH2 0x30E1 CALLDATASIZE PUSH1 0x4 PUSH2 0x4299 JUMP JUMPDEST PUSH1 0x40 MLOAD SWAP6 SWAP2 SWAP5 SWAP2 SWAP4 PUSH2 0x30F4 PUSH1 0xC0 DUP9 PUSH2 0x4380 JUMP JUMPDEST DUP7 MSTORE PUSH1 0x20 DUP7 ADD SWAP3 DUP4 MSTORE PUSH1 0x40 DUP7 ADD SWAP5 DUP6 MSTORE CALLER PUSH1 0x60 DUP8 ADD SWAP1 DUP2 MSTORE PUSH1 0x1 PUSH1 0x1 PUSH1 0xA0 SHL SUB SWAP2 DUP3 AND PUSH1 0x80 DUP9 ADD SWAP1 DUP2 MSTORE PUSH1 0xA0 DUP9 ADD SWAP4 DUP5 MSTORE SWAP4 PUSH2 0x1773 PUSH2 0x4D8F JUMP JUMPDEST DUP3 CALLVALUE PUSH2 0x5C2 JUMPI PUSH1 0x20 CALLDATASIZE PUSH1 0x3 NOT ADD SLT PUSH2 0x5C2 JUMPI PUSH2 0x3148 PUSH2 0x5ACC JUMP JUMPDEST PUSH1 0x4 CALLDATALOAD PUSH2 0x175 SSTORE PUSH1 0x40 MLOAD RETURN JUMPDEST DUP3 CALLVALUE PUSH2 0x5C2 JUMPI DUP1 PUSH1 0x3 NOT CALLDATASIZE ADD SLT PUSH2 0x5C2 JUMPI PUSH32 0x0 PUSH1 0x1 PUSH1 0x1 PUSH1 0xA0 SHL SUB AND ADDRESS SUB PUSH2 0x31BF JUMPI PUSH1 0x20 PUSH1 0x40 MLOAD PUSH32 0x360894A13BA1A3210667C828492DB98DCA3E2076CC3735A920A3CA505D382BBC DUP2 MSTORE RETURN JUMPDEST PUSH1 0x40 MLOAD PUSH3 0x461BCD PUSH1 0xE5 SHL DUP2 MSTORE PUSH1 0x20 PUSH1 0x4 DUP3 ADD MSTORE PUSH1 0x38 PUSH1 0x24 DUP3 ADD MSTORE PUSH32 0x555550535570677261646561626C653A206D757374206E6F742062652063616C PUSH1 0x44 DUP3 ADD MSTORE PUSH32 0x6C6564207468726F7567682064656C656761746563616C6C0000000000000000 PUSH1 0x64 DUP3 ADD MSTORE PUSH1 0x84 SWAP1 REVERT JUMPDEST DUP3 CALLVALUE PUSH2 0x5C2 JUMPI PUSH1 0x20 CALLDATASIZE PUSH1 0x3 NOT ADD SLT PUSH2 0x5C2 JUMPI PUSH1 0x4 CALLDATALOAD SWAP1 PUSH2 0x177 SWAP1 DUP2 SLOAD DUP4 LT ISZERO PUSH2 0x5C2 JUMPI PUSH1 0x20 PUSH2 0x1231 DUP5 DUP5 PUSH2 0x4222 JUMP JUMPDEST DUP3 CALLVALUE PUSH2 0x5C2 JUMPI DUP1 PUSH1 0x3 NOT CALLDATASIZE ADD SLT PUSH2 0x5C2 JUMPI PUSH2 0x3272 PUSH2 0x5ACC JUMP JUMPDEST PUSH1 0xFF NOT PUSH1 0xCA SLOAD AND PUSH1 0xCA SSTORE PUSH1 0x40 MLOAD RETURN JUMPDEST DUP3 PUSH1 0x40 CALLDATASIZE PUSH1 0x3 NOT ADD SLT PUSH2 0x5C2 JUMPI PUSH1 0x1 PUSH1 0x1 PUSH1 0xA0 SHL SUB PUSH1 0x4 CALLDATALOAD DUP2 DUP2 AND DUP2 SUB PUSH2 0x90C JUMPI DUP3 SWAP2 PUSH1 0x24 CALLDATALOAD SWAP2 PUSH8 0xFFFFFFFFFFFFFFFF DUP4 GT PUSH2 0x3370 JUMPI CALLDATASIZE PUSH1 0x23 DUP5 ADD SLT ISZERO PUSH2 0x3370 JUMPI DUP3 PUSH1 0x4 ADD CALLDATALOAD PUSH2 0x32D0 DUP2 PUSH2 0x43B8 JUMP JUMPDEST SWAP3 PUSH2 0x32DE PUSH1 0x40 MLOAD SWAP5 DUP6 PUSH2 0x4380 JUMP JUMPDEST DUP2 DUP5 MSTORE CALLDATASIZE PUSH1 0x24 DUP4 DUP8 ADD ADD GT PUSH2 0x336C JUMPI PUSH2 0x12F7 SWAP6 PUSH1 0x20 DUP4 PUSH2 0x335F SWAP5 PUSH1 0x24 PUSH1 0x1 SWAP10 ADD DUP4 DUP10 ADD CALLDATACOPY DUP7 ADD ADD MSTORE DUP1 PUSH32 0x0 AND SWAP1 PUSH2 0x3336 DUP3 ADDRESS EQ ISZERO PUSH2 0x43D4 JUMP JUMPDEST PUSH32 0x360894A13BA1A3210667C828492DB98DCA3E2076CC3735A920A3CA505D382BBC SLOAD AND EQ PUSH2 0x4435 JUMP JUMPDEST PUSH2 0x3367 PUSH2 0x5ACC JUMP JUMPDEST PUSH2 0x4496 JUMP JUMPDEST DUP6 DUP1 REVERT JUMPDEST POP POP POP REVERT JUMPDEST DUP3 CALLVALUE PUSH2 0x5C2 JUMPI DUP1 PUSH1 0x3 NOT CALLDATASIZE ADD SLT PUSH2 0x5C2 JUMPI PUSH1 0x20 PUSH2 0x16D SLOAD PUSH1 0x40 MLOAD SWAP1 DUP2 MSTORE RETURN JUMPDEST DUP3 CALLVALUE PUSH2 0x5C2 JUMPI DUP1 PUSH1 0x3 NOT CALLDATASIZE ADD SLT PUSH2 0x5C2 JUMPI PUSH2 0x179 SLOAD PUSH1 0x40 MLOAD PUSH1 0x1 PUSH1 0x1 PUSH1 0xA0 SHL SUB SWAP1 SWAP2 AND DUP2 MSTORE PUSH1 0x20 SWAP1 RETURN JUMPDEST DUP3 CALLVALUE PUSH2 0x5C2 JUMPI DUP1 PUSH1 0x3 NOT CALLDATASIZE ADD SLT PUSH2 0x5C2 JUMPI PUSH1 0x20 PUSH2 0x17E SLOAD PUSH1 0x40 MLOAD SWAP1 DUP2 MSTORE RETURN JUMPDEST DUP3 CALLVALUE PUSH2 0x5C2 JUMPI PUSH1 0x20 CALLDATASIZE PUSH1 0x3 NOT ADD SLT PUSH2 0x5C2 JUMPI PUSH1 0x4 CALLDATALOAD SWAP1 PUSH2 0x169 SWAP1 DUP2 SLOAD DUP4 LT ISZERO PUSH2 0x5C2 JUMPI PUSH1 0x40 PUSH2 0x340C DUP5 DUP5 PUSH2 0x4364 JUMP JUMPDEST POP DUP1 SLOAD PUSH1 0x1 SWAP1 SWAP2 ADD SLOAD DUP3 MLOAD SWAP2 DUP3 MSTORE PUSH1 0x1 PUSH1 0x1 PUSH1 0xA0 SHL SUB AND PUSH1 0x20 DUP3 ADD MSTORE RETURN JUMPDEST DUP3 CALLVALUE PUSH2 0x5C2 JUMPI PUSH1 0x60 CALLDATASIZE PUSH1 0x3 NOT ADD SLT PUSH2 0x90C JUMPI PUSH1 0x44 CALLDATALOAD PUSH1 0x1 PUSH1 0x1 PUSH1 0xA0 SHL SUB DUP2 DUP2 AND SWAP2 DUP3 SWAP1 SUB PUSH2 0x90C JUMPI PUSH1 0x40 MLOAD SWAP2 PUSH2 0x3461 PUSH1 0xA0 DUP5 PUSH2 0x4380 JUMP JUMPDEST PUSH1 0x4 CALLDATALOAD DUP4 MSTORE PUSH1 0x20 DUP4 ADD SWAP2 PUSH1 0x24 CALLDATALOAD DUP4 MSTORE PUSH1 0x40 DUP5 ADD SWAP2 CALLER DUP4 MSTORE PUSH1 0x60 DUP6 ADD SWAP2 CALLER DUP4 MSTORE PUSH1 0x80 DUP7 ADD SWAP2 DUP3 MSTORE PUSH2 0x10A6 PUSH2 0x4D8F JUMP JUMPDEST DUP3 CALLVALUE PUSH2 0x5C2 JUMPI DUP1 PUSH1 0x3 NOT CALLDATASIZE ADD SLT PUSH2 0x5C2 JUMPI PUSH1 0x20 PUSH2 0x170 SLOAD PUSH1 0x40 MLOAD SWAP1 DUP2 MSTORE RETURN JUMPDEST DUP3 CALLVALUE PUSH2 0x5C2 JUMPI DUP1 PUSH1 0x3 NOT CALLDATASIZE ADD SLT PUSH2 0x5C2 JUMPI PUSH1 0x20 PUSH2 0x95B PUSH2 0x34DD PUSH2 0x34ED PUSH2 0x34E7 PUSH2 0x34D5 PUSH2 0x597C JUMP JUMPDEST SWAP4 SWAP1 SWAP4 PUSH2 0x48CE JUMP JUMPDEST DUP2 DUP2 SWAP4 SWAP3 SWAP6 PUSH2 0x52EA JUMP JUMPDEST SWAP3 PUSH2 0x4EA8 JUMP JUMPDEST SWAP1 PUSH2 0x49F4 JUMP JUMPDEST DUP3 CALLVALUE PUSH2 0x5C2 JUMPI DUP1 PUSH1 0x3 NOT CALLDATASIZE ADD SLT PUSH2 0x5C2 JUMPI PUSH1 0xCA SLOAD PUSH1 0xFF DUP2 PUSH1 0x8 SHR AND ISZERO PUSH2 0x355E JUMPI PUSH1 0x10 DUP2 SWAP1 SHR PUSH1 0x1 PUSH1 0x1 PUSH1 0xA0 SHL SUB AND CALLER SUB PUSH2 0x2733 JUMPI PUSH2 0xFF00 NOT AND PUSH1 0xCA SSTORE PUSH32 0x5DB9EE0A495BF2E6FF9C91A7834C1BA4FDD244A5E8AA4E537BD38AEAE4B073AA PUSH1 0x20 PUSH1 0x40 MLOAD CALLER DUP2 MSTORE LOG1 PUSH1 0x40 MLOAD RETURN JUMPDEST PUSH1 0x40 MLOAD PUSH4 0x7C7FD079 PUSH1 0xE0 SHL DUP2 MSTORE PUSH1 0x4 SWAP1 REVERT JUMPDEST DUP3 CALLVALUE PUSH2 0x5C2 JUMPI PUSH2 0x3581 CALLDATASIZE PUSH1 0x4 PUSH2 0x433E JUMP JUMPDEST SWAP1 PUSH1 0x40 MLOAD SWAP4 PUSH2 0x3591 PUSH1 0xA0 DUP7 PUSH2 0x4380 JUMP JUMPDEST DUP5 MSTORE PUSH1 0x20 DUP5 ADD SWAP3 DUP4 MSTORE PUSH1 0x40 DUP5 ADD SWAP2 CALLER DUP4 MSTORE PUSH1 0x60 DUP6 ADD SWAP2 PUSH1 0x1 DUP1 PUSH1 0xA0 SHL SUB DUP1 SWAP2 AND DUP4 MSTORE DUP1 PUSH1 0x80 DUP8 ADD SWAP3 AND DUP3 MSTORE PUSH2 0x10A6 PUSH2 0x4D8F JUMP JUMPDEST DUP3 CALLVALUE PUSH2 0x5C2 JUMPI PUSH1 0x20 CALLDATASIZE PUSH1 0x3 NOT ADD SLT PUSH2 0x5C2 JUMPI PUSH2 0x35DE PUSH2 0x5ACC JUMP JUMPDEST PUSH1 0x4 CALLDATALOAD PUSH2 0x1B6 SSTORE PUSH1 0x40 MLOAD RETURN JUMPDEST DUP3 CALLVALUE PUSH2 0x5C2 JUMPI PUSH1 0x20 CALLDATASIZE PUSH1 0x3 NOT ADD SLT PUSH2 0x5C2 JUMPI PUSH1 0x4 CALLDATALOAD PUSH1 0x1 PUSH1 0x1 PUSH1 0xA0 SHL SUB DUP1 DUP3 AND DUP3 SUB PUSH2 0x90C JUMPI PUSH2 0x12F7 SWAP2 PUSH2 0x3649 DUP3 DUP6 SWAP4 PUSH32 0x0 AND SWAP1 PUSH2 0x3336 DUP3 ADDRESS EQ ISZERO PUSH2 0x43D4 JUMP JUMPDEST PUSH2 0x3651 PUSH2 0x5ACC JUMP JUMPDEST PUSH2 0x365A DUP3 PUSH2 0x43B8 JUMP JUMPDEST SWAP1 PUSH2 0x3668 PUSH1 0x40 MLOAD SWAP3 DUP4 PUSH2 0x4380 JUMP JUMPDEST DUP3 DUP3 MSTORE PUSH1 0x1F NOT PUSH2 0x3677 DUP5 PUSH2 0x43B8 JUMP JUMPDEST ADD CALLDATASIZE PUSH1 0x20 DUP5 ADD CALLDATACOPY PUSH2 0x4496 JUMP JUMPDEST DUP3 CALLVALUE PUSH2 0x5C2 JUMPI DUP1 PUSH1 0x3 NOT CALLDATASIZE ADD SLT PUSH2 0x5C2 JUMPI PUSH2 0x369C PUSH2 0x5B5A JUMP JUMPDEST PUSH2 0x17D DUP1 SLOAD PUSH1 0xFF DUP2 AND DUP1 PUSH2 0x376A JUMPI JUMPDEST DUP1 PUSH2 0x3750 JUMPI JUMPDEST PUSH2 0x36BC JUMPI JUMPDEST DUP3 PUSH1 0x40 MLOAD RETURN JUMPDEST PUSH2 0xFF00 NOT AND PUSH2 0x100 OR SWAP1 SSTORE PUSH1 0x40 MLOAD PUSH32 0x8B77276C97A5709F0D6DB52329848A254EB760CE8BE80D281799F633BDB69E83 DUP3 DUP3 LOG1 PUSH2 0x165 SLOAD DUP3 SWAP1 PUSH1 0x1 PUSH1 0x1 PUSH1 0xA0 SHL SUB AND DUP1 EXTCODESIZE ISZERO PUSH2 0xCD5 JUMPI DUP3 PUSH1 0x4 DUP2 DUP5 DUP1 SWAP5 PUSH4 0x8456CB59 PUSH1 0xE0 SHL DUP4 MSTORE GAS CALL DUP1 ISZERO PUSH2 0x3743 JUMPI PUSH2 0x3733 JUMPI JUMPDEST POP POP PUSH2 0x372C PUSH2 0x4AF6 JUMP JUMPDEST DUP2 DUP1 PUSH2 0x36B6 JUMP JUMPDEST PUSH2 0x373C SWAP2 PUSH2 0x4380 JUMP JUMPDEST DUP2 DUP2 PUSH2 0x3722 JUMP JUMPDEST POP PUSH1 0x40 MLOAD SWAP1 RETURNDATASIZE SWAP1 DUP3 RETURNDATACOPY RETURNDATASIZE SWAP1 REVERT JUMPDEST POP PUSH2 0x375F PUSH2 0x1E5F PUSH2 0x11F2 PUSH2 0x4CA6 JUMP JUMPDEST PUSH2 0x17C SLOAD LT ISZERO PUSH2 0x36B1 JUMP JUMPDEST POP PUSH1 0xFF DUP2 PUSH1 0x8 SHR AND ISZERO PUSH2 0x36AB JUMP JUMPDEST DUP3 CALLVALUE PUSH2 0x5C2 JUMPI DUP1 PUSH1 0x3 NOT CALLDATASIZE ADD SLT PUSH2 0x5C2 JUMPI PUSH1 0x20 PUSH2 0x171 SLOAD PUSH1 0x40 MLOAD SWAP1 DUP2 MSTORE RETURN JUMPDEST DUP3 PUSH1 0x20 CALLDATASIZE PUSH1 0x3 NOT ADD SLT PUSH2 0x5C2 JUMPI PUSH1 0x40 MLOAD SWAP1 PUSH2 0x37B3 PUSH1 0xA0 DUP4 PUSH2 0x4380 JUMP JUMPDEST PUSH1 0x4 CALLDATALOAD DUP3 MSTORE PUSH2 0x86C PUSH1 0x20 DUP4 ADD CALLVALUE DUP2 MSTORE PUSH1 0x40 DUP5 ADD SWAP4 CALLER DUP6 MSTORE PUSH1 0x60 DUP2 ADD SWAP4 CALLER DUP6 MSTORE PUSH1 0x80 DUP3 ADD SWAP1 DUP2 MSTORE PUSH2 0x37E1 PUSH2 0x4D8F JUMP JUMPDEST PUSH2 0x37E9 PUSH2 0x5B5A JUMP JUMPDEST PUSH8 0xDE0B6B3A7640000 PUSH2 0x380C PUSH2 0x83A PUSH2 0x3803 PUSH2 0x828 PUSH2 0x4CA6 JUMP JUMPDEST DUP7 MLOAD SWAP3 SWAP2 PUSH2 0x4EA8 JUMP JUMPDEST DIV SWAP6 PUSH2 0x3816 PUSH2 0x4D40 JUMP JUMPDEST POP PUSH1 0x1 DUP1 PUSH1 0xA0 SHL SUB PUSH2 0x861 DUP2 DUP4 MLOAD AND DUP10 DUP4 DUP7 MLOAD AND PUSH2 0x16E SLOAD SWAP3 PUSH2 0x4EE3 JUMP JUMPDEST DUP3 CALLVALUE PUSH2 0x5C2 JUMPI DUP1 PUSH1 0x3 NOT CALLDATASIZE ADD SLT PUSH2 0x5C2 JUMPI PUSH1 0x20 PUSH2 0x175 SLOAD PUSH1 0x40 MLOAD SWAP1 DUP2 MSTORE RETURN JUMPDEST DUP3 CALLVALUE PUSH2 0x5C2 JUMPI PUSH1 0x20 CALLDATASIZE PUSH1 0x3 NOT ADD SLT PUSH2 0x5C2 JUMPI PUSH1 0x4 CALLDATALOAD PUSH1 0x1 PUSH1 0x1 PUSH1 0xA0 SHL SUB DUP2 AND DUP2 SUB PUSH2 0xCD5 JUMPI PUSH2 0x3880 PUSH2 0x5ACC JUMP JUMPDEST PUSH1 0xCA DUP1 SLOAD PUSH3 0x10000 PUSH1 0x1 PUSH1 0xB0 SHL SUB NOT AND PUSH1 0x10 SWAP3 SWAP1 SWAP3 SHL PUSH3 0x10000 PUSH1 0x1 PUSH1 0xB0 SHL SUB AND SWAP2 SWAP1 SWAP2 OR SWAP1 SSTORE PUSH1 0x40 MLOAD RETURN JUMPDEST DUP3 CALLVALUE PUSH2 0x5C2 JUMPI PUSH1 0x20 CALLDATASIZE PUSH1 0x3 NOT ADD SLT PUSH2 0x5C2 JUMPI PUSH2 0x38C6 PUSH2 0x5ACC JUMP JUMPDEST PUSH1 0x4 CALLDATALOAD PUSH2 0x17C SSTORE PUSH1 0x40 MLOAD RETURN JUMPDEST DUP3 CALLVALUE PUSH2 0x5C2 JUMPI DUP1 PUSH1 0x3 NOT CALLDATASIZE ADD SLT PUSH2 0x5C2 JUMPI PUSH1 0x20 PUSH2 0x172 SLOAD PUSH1 0x40 MLOAD SWAP1 DUP2 MSTORE RETURN JUMPDEST DUP3 CALLVALUE PUSH2 0x5C2 JUMPI PUSH1 0x20 CALLDATASIZE PUSH1 0x3 NOT ADD SLT PUSH2 0x5C2 JUMPI PUSH1 0x4 CALLDATALOAD PUSH1 0x1 PUSH1 0x1 PUSH1 0xA0 SHL SUB DUP2 AND SWAP1 DUP2 SWAP1 SUB PUSH2 0xCD5 JUMPI PUSH2 0x3920 PUSH2 0x5ACC JUMP JUMPDEST PUSH2 0x179 DUP1 SLOAD PUSH1 0x1 PUSH1 0x1 PUSH1 0xA0 SHL SUB NOT AND SWAP1 SWAP2 OR SWAP1 SSTORE PUSH1 0x40 MLOAD RETURN JUMPDEST DUP3 CALLVALUE PUSH2 0x5C2 JUMPI DUP1 PUSH1 0x3 NOT CALLDATASIZE ADD SLT PUSH2 0x5C2 JUMPI PUSH1 0x20 PUSH1 0xFF PUSH2 0x17D SLOAD PUSH1 0x8 SHR AND PUSH1 0x40 MLOAD SWAP1 ISZERO ISZERO DUP2 MSTORE RETURN JUMPDEST DUP3 CALLVALUE PUSH2 0x5C2 JUMPI PUSH1 0x20 CALLDATASIZE PUSH1 0x3 NOT ADD SLT PUSH2 0x5C2 JUMPI PUSH2 0x397A PUSH2 0x5ACC JUMP JUMPDEST PUSH1 0x4 CALLDATALOAD PUSH2 0x174 SSTORE PUSH1 0x40 MLOAD RETURN JUMPDEST DUP3 CALLVALUE PUSH2 0x5C2 JUMPI PUSH1 0x20 CALLDATASIZE PUSH1 0x3 NOT ADD SLT PUSH2 0x5C2 JUMPI PUSH1 0x4 CALLDATALOAD DUP1 ISZERO ISZERO DUP1 SWAP2 SUB PUSH2 0xCD5 JUMPI PUSH2 0x39AD PUSH2 0x5ACC JUMP JUMPDEST PUSH2 0x17D SWAP1 PUSH1 0xFF DUP1 NOT DUP4 SLOAD AND SWAP2 AND OR SWAP1 SSTORE PUSH1 0x40 MLOAD RETURN JUMPDEST DUP3 CALLVALUE PUSH2 0x5C2 JUMPI DUP1 PUSH1 0x3 NOT CALLDATASIZE ADD SLT PUSH2 0x5C2 JUMPI PUSH1 0x20 PUSH2 0x95B PUSH2 0xDAC PUSH2 0x11F2 PUSH2 0x4CA6 JUMP JUMPDEST DUP3 PUSH1 0x60 CALLDATASIZE PUSH1 0x3 NOT ADD SLT PUSH2 0x5C2 JUMPI PUSH1 0x1 PUSH1 0x1 PUSH1 0xA0 SHL SUB PUSH1 0x44 CALLDATALOAD DUP2 DUP2 AND SWAP1 DUP2 SWAP1 SUB PUSH2 0x3A49 JUMPI PUSH1 0x40 MLOAD SWAP1 PUSH2 0x3A15 PUSH1 0xC0 DUP4 PUSH2 0x4380 JUMP JUMPDEST PUSH1 0x4 CALLDATALOAD DUP3 MSTORE PUSH1 0x20 DUP3 ADD PUSH1 0x24 CALLDATALOAD DUP2 MSTORE PUSH1 0x40 DUP4 ADD SWAP3 CALLVALUE DUP5 MSTORE PUSH1 0x60 DUP2 ADD CALLER DUP2 MSTORE PUSH1 0x80 DUP3 ADD SWAP4 DUP5 MSTORE PUSH1 0xA0 DUP3 ADD SWAP1 DUP8 DUP3 MSTORE PUSH2 0xD5C PUSH2 0x4D8F JUMP JUMPDEST DUP3 DUP1 REVERT JUMPDEST DUP3 CALLVALUE PUSH2 0x5C2 JUMPI DUP1 PUSH1 0x3 NOT CALLDATASIZE ADD SLT PUSH2 0x5C2 JUMPI PUSH1 0x20 PUSH2 0x17F SLOAD PUSH1 0x40 MLOAD SWAP1 DUP2 MSTORE RETURN JUMPDEST DUP3 CALLVALUE PUSH2 0x5C2 JUMPI PUSH1 0x60 CALLDATASIZE PUSH1 0x3 NOT ADD SLT PUSH2 0x5C2 JUMPI PUSH1 0x40 MLOAD SWAP1 PUSH2 0x3A8D PUSH1 0xC0 DUP4 PUSH2 0x4380 JUMP JUMPDEST PUSH1 0x4 CALLDATALOAD DUP3 MSTORE PUSH2 0x17E3 PUSH1 0x20 DUP4 ADD PUSH1 0x24 CALLDATALOAD DUP2 MSTORE PUSH1 0x40 DUP5 ADD SWAP3 PUSH1 0x44 CALLDATALOAD DUP5 MSTORE PUSH1 0x60 DUP6 ADD SWAP2 CALLER DUP4 MSTORE PUSH1 0x80 DUP7 ADD SWAP3 CALLER DUP5 MSTORE PUSH1 0xA0 DUP8 ADD SWAP3 DUP4 MSTORE PUSH2 0x3AC7 PUSH2 0x4D8F JUMP JUMPDEST PUSH2 0x3ACF PUSH2 0x5B5A JUMP JUMPDEST PUSH2 0x3B0A PUSH2 0x3ADA PUSH2 0x4CA6 JUMP JUMPDEST PUSH2 0x3AF5 PUSH2 0x3AE8 DUP11 MLOAD DUP4 PUSH2 0x48BA JUMP JUMPDEST MLOAD SWAP2 PUSH2 0x828 DUP4 DUP13 MLOAD PUSH2 0x5223 JUMP JUMPDEST POP POP PUSH2 0x681 PUSH8 0xDE0B6B3A7640000 DUP6 MLOAD PUSH2 0x49E1 JUMP JUMPDEST SWAP2 PUSH2 0x3B13 PUSH2 0x4D40 JUMP JUMPDEST POP PUSH1 0x1 DUP1 PUSH1 0xA0 SHL SUB SWAP3 PUSH2 0x17D8 DUP5 DUP5 MLOAD AND DUP3 DUP7 DUP9 MLOAD AND PUSH2 0x6A9 DUP14 MLOAD PUSH2 0x177 PUSH2 0x4222 JUMP JUMPDEST SWAP1 POP CALLVALUE PUSH2 0xCD5 JUMPI PUSH2 0x1CAB SWAP2 PUSH2 0x3B4B CALLDATASIZE PUSH1 0x4 PUSH2 0x42EA JUMP JUMPDEST SWAP4 SWAP2 SWAP3 PUSH2 0x3B5E PUSH1 0x40 SWAP7 SWAP3 SWAP7 MLOAD SWAP3 DUP4 PUSH2 0x4380 JUMP JUMPDEST DUP2 MSTORE PUSH1 0x20 DUP2 ADD SWAP3 DUP4 MSTORE PUSH1 0x40 DUP2 ADD SWAP5 DUP6 MSTORE PUSH1 0x60 DUP2 ADD SWAP4 DUP5 MSTORE PUSH1 0x80 DUP2 ADD SWAP3 CALLER DUP5 MSTORE PUSH1 0xA0 DUP3 ADD SWAP1 CALLER DUP3 MSTORE PUSH1 0xC0 DUP4 ADD DUP5 DUP2 MSTORE PUSH2 0x3B94 PUSH2 0x4D8F JUMP JUMPDEST PUSH2 0x3B9C PUSH2 0x5B5A JUMP JUMPDEST PUSH2 0x3BC7 PUSH2 0x3BA7 PUSH2 0x4CA6 JUMP JUMPDEST PUSH2 0xA71 PUSH2 0x1CB6 PUSH2 0x3BB8 DUP9 MLOAD DUP5 PUSH2 0x48BA JUMP JUMPDEST MLOAD SWAP13 DUP14 SWAP4 PUSH2 0x1CA2 DUP6 DUP12 MLOAD PUSH2 0x5223 JUMP JUMPDEST DIV SWAP11 MLOAD DUP1 DUP13 GT PUSH2 0x1E20 JUMPI POP SWAP2 PUSH2 0x1D06 DUP12 PUSH2 0x1D00 PUSH2 0x3C28 SWAP12 SWAP13 SWAP14 SWAP15 SWAP5 PUSH2 0x681 DUP6 PUSH2 0x1CFA PUSH2 0x3BF5 SWAP10 DUP13 MLOAD SWAP10 PUSH2 0x4EA8 JUMP JUMPDEST SWAP5 PUSH2 0x3BFE PUSH2 0x4D40 JUMP JUMPDEST POP PUSH1 0x1 DUP1 PUSH1 0xA0 SHL SUB SWAP1 PUSH2 0x3C1D DUP3 DUP11 MLOAD AND DUP9 DUP5 DUP7 MLOAD AND PUSH2 0x173 SLOAD SWAP3 PUSH2 0x4EE3 JUMP JUMPDEST SWAP8 SWAP2 DUP10 SWAP11 SWAP2 SWAP11 PUSH2 0x4A9F JUMP JUMPDEST SWAP11 MLOAD DUP1 DUP13 LT PUSH2 0x1E02 JUMPI POP DUP11 ISZERO PUSH2 0x76A JUMPI DUP10 PUSH2 0x11A5 DUP14 DUP6 SWAP5 DUP5 DUP16 SWAP10 PUSH2 0xBCB SWAP16 SWAP14 PUSH2 0x1DF6 SWAP2 PUSH2 0xBAE SWAP16 DUP16 DUP16 SWAP1 SWAP2 DUP16 SWAP3 DUP10 PUSH32 0x754F66F66F0AFCD87E3EDD11C0796FEF32599EFE490000FDB0F014E3AD9560FA SWAP2 DUP16 SWAP15 DUP16 DUP1 PUSH2 0x1DE7 SWAP3 MLOAD SWAP7 MLOAD AND SWAP7 MLOAD AND SWAP7 DUP9 MLOAD SWAP3 DUP1 MLOAD PUSH1 0x20 DUP3 ADD MLOAD SWAP1 PUSH1 0x60 PUSH1 0x40 DUP5 ADD MLOAD SWAP4 ADD MLOAD SWAP4 PUSH1 0x40 MLOAD SWAP8 DUP9 SWAP8 DUP9 SWAP4 SWAP1 SWAP8 SWAP7 SWAP6 SWAP3 PUSH1 0xC0 SWAP6 SWAP3 PUSH1 0xE0 DUP7 ADD SWAP10 DUP7 MSTORE PUSH1 0x20 DUP7 ADD MSTORE PUSH1 0x40 DUP6 ADD MSTORE PUSH1 0x60 DUP5 ADD MSTORE PUSH1 0x80 DUP4 ADD MSTORE PUSH1 0xA0 DUP3 ADD MSTORE ADD MSTORE JUMP JUMPDEST SWAP1 POP CALLVALUE PUSH2 0xCD5 JUMPI SWAP1 PUSH2 0x1CA2 SWAP2 PUSH2 0x3CEA CALLDATASIZE PUSH1 0x4 PUSH2 0x430C JUMP JUMPDEST SWAP2 SWAP1 SWAP4 SWAP5 PUSH2 0x3CFE PUSH1 0x40 SWAP9 SWAP5 SWAP9 MLOAD SWAP8 DUP9 PUSH2 0x4380 JUMP JUMPDEST DUP7 MSTORE PUSH1 0x20 DUP7 ADD SWAP5 DUP6 MSTORE PUSH1 0x40 DUP7 ADD SWAP7 DUP8 MSTORE PUSH1 0x60 DUP7 ADD MSTORE PUSH1 0x80 DUP6 ADD SWAP4 CALLER DUP6 MSTORE PUSH1 0xA0 DUP7 ADD SWAP2 PUSH1 0x1 DUP1 PUSH1 0xA0 SHL SUB DUP1 SWAP6 AND DUP4 MSTORE DUP5 PUSH1 0xC0 DUP9 ADD SWAP2 AND DUP2 MSTORE PUSH2 0x1C6F PUSH2 0x4D8F JUMP JUMPDEST SWAP1 POP PUSH2 0x3D4A CALLDATASIZE PUSH1 0x4 PUSH2 0x42EA JUMP JUMPDEST PUSH1 0x40 SWAP3 SWAP2 SWAP3 MLOAD SWAP4 PUSH2 0x3D5D PUSH2 0x100 DUP7 PUSH2 0x4380 JUMP JUMPDEST DUP5 MSTORE PUSH1 0x20 DUP5 ADD SWAP2 DUP3 MSTORE PUSH1 0x40 DUP5 ADD SWAP3 DUP4 MSTORE PUSH1 0x60 DUP5 ADD SWAP1 DUP2 MSTORE PUSH2 0x196D PUSH1 0x80 DUP6 ADD SWAP5 CALLVALUE DUP7 MSTORE PUSH1 0xA0 DUP2 ADD SWAP3 CALLER DUP5 MSTORE PUSH1 0xC0 DUP3 ADD SWAP6 CALLER DUP8 MSTORE DUP9 DUP4 ADD SWAP6 DUP11 DUP8 MSTORE PUSH2 0x3D9E PUSH2 0x4D8F JUMP JUMPDEST PUSH2 0x3DA6 PUSH2 0x5B5A JUMP JUMPDEST PUSH2 0x3DAE PUSH2 0x4D40 JUMP JUMPDEST POP PUSH1 0x40 MLOAD PUSH4 0x1C280CE1 PUSH1 0xE0 SHL PUSH1 0x20 DUP3 ADD MSTORE SWAP4 MLOAD PUSH1 0x24 DUP6 ADD MSTORE MLOAD PUSH1 0x44 DUP5 ADD MSTORE MLOAD PUSH1 0x64 DUP4 ADD MSTORE MLOAD PUSH1 0x84 DUP3 ADD MSTORE DUP6 MLOAD PUSH1 0xA4 DUP3 ADD MSTORE DUP3 MLOAD PUSH1 0x1 PUSH1 0x1 PUSH1 0xA0 SHL SUB SWAP1 DUP2 AND PUSH1 0xC4 DUP4 ADD MSTORE SWAP5 MLOAD DUP6 AND PUSH1 0xE4 DUP3 ADD MSTORE DUP4 MLOAD DUP6 AND PUSH2 0x104 DUP1 DUP4 ADD SWAP2 SWAP1 SWAP2 MSTORE DUP2 MSTORE PUSH2 0x1962 PUSH2 0x124 DUP3 PUSH2 0x4380 JUMP JUMPDEST DUP3 CALLVALUE PUSH2 0x5C2 JUMPI PUSH1 0x20 CALLDATASIZE PUSH1 0x3 NOT ADD SLT PUSH2 0x5C2 JUMPI PUSH1 0x4 CALLDATALOAD PUSH1 0x1 PUSH1 0x1 PUSH1 0xA0 SHL SUB DUP2 AND SWAP1 DUP2 SWAP1 SUB PUSH2 0xCD5 JUMPI PUSH2 0x3E45 PUSH2 0x5ACC JUMP JUMPDEST PUSH2 0x162 DUP1 SLOAD PUSH1 0x1 PUSH1 0x1 PUSH1 0xA0 SHL SUB NOT AND SWAP1 SWAP2 OR SWAP1 SSTORE PUSH1 0x40 MLOAD RETURN JUMPDEST DUP3 CALLVALUE PUSH2 0x5C2 JUMPI PUSH1 0x20 CALLDATASIZE PUSH1 0x3 NOT ADD SLT PUSH2 0x5C2 JUMPI PUSH2 0x3E78 PUSH2 0x5ACC JUMP JUMPDEST PUSH1 0x4 CALLDATALOAD PUSH2 0x171 SSTORE PUSH1 0x40 MLOAD RETURN JUMPDEST SWAP1 POP PUSH1 0x60 CALLDATASIZE PUSH1 0x3 NOT ADD SLT PUSH2 0xCD5 JUMPI PUSH2 0x3E9F PUSH1 0x40 MLOAD SWAP2 DUP3 PUSH2 0x4380 JUMP JUMPDEST PUSH1 0x4 CALLDATALOAD DUP2 MSTORE PUSH1 0x20 DUP2 ADD SWAP1 PUSH1 0x24 CALLDATALOAD DUP3 MSTORE PUSH1 0x40 DUP2 ADD SWAP3 PUSH1 0x44 CALLDATALOAD DUP5 MSTORE PUSH1 0x60 DUP3 ADD SWAP1 CALLVALUE DUP3 MSTORE PUSH1 0x80 DUP4 ADD CALLER DUP2 MSTORE DUP5 PUSH1 0xA0 DUP6 ADD SWAP4 CALLER DUP6 MSTORE PUSH1 0xC0 DUP7 ADD SWAP4 DUP1 DUP6 MSTORE PUSH2 0x3EE0 PUSH2 0x4D8F JUMP JUMPDEST PUSH2 0x3EE8 PUSH2 0x5B5A JUMP JUMPDEST PUSH2 0x3F2D PUSH2 0xA71 PUSH2 0x681 DUP6 PUSH2 0x143A DUP12 PUSH2 0x3F01 PUSH2 0x13ED PUSH2 0x4CA6 JUMP JUMPDEST SWAP6 SWAP1 PUSH2 0xA6C PUSH2 0x1430 PUSH2 0x3F21 DUP6 PUSH2 0x681 PUSH8 0xDE0B6B3A7640000 DUP1 SWAP11 MLOAD PUSH2 0x49E1 JUMP JUMPDEST SWAP13 MLOAD PUSH2 0x166 SLOAD SWAP1 PUSH2 0x49E1 JUMP JUMPDEST SWAP9 MLOAD DUP1 DUP11 LT DUP1 ISZERO PUSH2 0x3F83 JUMPI JUMPDEST PUSH2 0x3F65 JUMPI POP PUSH2 0x3F46 PUSH2 0x4D40 JUMP JUMPDEST POP PUSH2 0x1471 PUSH1 0x1 DUP1 PUSH1 0xA0 SHL SUB SWAP4 DUP5 DUP7 MLOAD AND SWAP1 DUP6 DUP9 MLOAD AND PUSH2 0x171 SLOAD SWAP3 PUSH2 0x4EE3 JUMP JUMPDEST PUSH1 0x44 SWAP1 DUP11 PUSH1 0x40 MLOAD SWAP2 PUSH4 0xF577BEF5 PUSH1 0xE0 SHL DUP4 MSTORE PUSH1 0x4 DUP4 ADD MSTORE PUSH1 0x24 DUP3 ADD MSTORE REVERT JUMPDEST POP DUP10 ISZERO PUSH2 0x3F39 JUMP JUMPDEST DUP3 CALLVALUE PUSH2 0x5C2 JUMPI PUSH1 0x20 CALLDATASIZE PUSH1 0x3 NOT ADD SLT PUSH2 0x5C2 JUMPI PUSH1 0x4 CALLDATALOAD PUSH1 0x1 PUSH1 0x1 PUSH1 0xA0 SHL SUB DUP2 AND SWAP1 DUP2 SWAP1 SUB PUSH2 0xCD5 JUMPI PUSH2 0x3FBA PUSH2 0x5ACC JUMP JUMPDEST PUSH2 0x178 DUP1 SLOAD PUSH1 0x1 PUSH1 0x1 PUSH1 0xA0 SHL SUB NOT AND SWAP1 SWAP2 OR SWAP1 SSTORE PUSH1 0x40 MLOAD RETURN JUMPDEST DUP3 CALLVALUE PUSH2 0x5C2 JUMPI DUP1 PUSH1 0x3 NOT CALLDATASIZE ADD SLT PUSH2 0x5C2 JUMPI PUSH1 0x20 PUSH2 0x1B5 SLOAD PUSH1 0x40 MLOAD SWAP1 DUP2 MSTORE RETURN JUMPDEST DUP3 CALLVALUE PUSH2 0x5C2 JUMPI DUP1 PUSH1 0x3 NOT CALLDATASIZE ADD SLT PUSH2 0x5C2 JUMPI PUSH1 0x97 SLOAD PUSH1 0x40 MLOAD PUSH1 0x1 PUSH1 0x1 PUSH1 0xA0 SHL SUB SWAP1 SWAP2 AND DUP2 MSTORE PUSH1 0x20 SWAP1 RETURN JUMPDEST SWAP1 POP PUSH2 0x196D PUSH2 0x402B CALLDATASIZE PUSH1 0x4 PUSH2 0x42BF JUMP JUMPDEST SWAP5 SWAP1 SWAP2 SWAP4 PUSH1 0x40 MLOAD SWAP1 PUSH2 0x403F PUSH2 0x100 DUP4 PUSH2 0x4380 JUMP JUMPDEST DUP2 MSTORE PUSH1 0x20 DUP2 ADD SWAP4 DUP5 MSTORE PUSH1 0x40 DUP2 ADD SWAP5 DUP6 MSTORE PUSH1 0x60 DUP2 ADD SWAP3 DUP4 MSTORE PUSH1 0x80 DUP2 ADD SWAP6 CALLVALUE DUP8 MSTORE PUSH1 0xA0 DUP3 ADD SWAP4 CALLER DUP6 MSTORE PUSH1 0xC0 DUP4 ADD SWAP1 PUSH1 0x1 DUP1 PUSH1 0xA0 SHL SUB SWAP8 DUP9 DUP1 SWAP5 AND DUP4 MSTORE DUP11 DUP6 ADD SWAP8 DUP13 DUP10 MSTORE PUSH2 0x18F7 PUSH2 0x4D8F JUMP JUMPDEST SWAP1 POP PUSH2 0x4095 CALLDATASIZE PUSH1 0x4 PUSH2 0x4299 JUMP JUMPDEST SWAP2 SWAP4 SWAP3 PUSH2 0x40A8 PUSH1 0x40 SWAP7 SWAP3 SWAP7 MLOAD SWAP5 DUP6 PUSH2 0x4380 JUMP JUMPDEST DUP4 MSTORE PUSH1 0x20 DUP4 ADD SWAP4 DUP5 MSTORE PUSH1 0x40 DUP4 ADD SWAP5 DUP6 MSTORE PUSH1 0x60 DUP4 ADD SWAP2 CALLVALUE DUP4 MSTORE PUSH1 0x80 DUP5 ADD SWAP1 CALLER DUP3 MSTORE PUSH1 0xA0 DUP6 ADD SWAP4 PUSH1 0x1 DUP1 PUSH1 0xA0 SHL SUB DUP1 SWAP3 AND DUP6 MSTORE PUSH1 0xC0 DUP7 ADD SWAP4 DUP1 DUP6 MSTORE PUSH2 0x13CB PUSH2 0x4D8F JUMP JUMPDEST DUP3 PUSH1 0x60 CALLDATASIZE PUSH1 0x3 NOT ADD SLT PUSH2 0x5C2 JUMPI PUSH1 0x1 PUSH1 0x1 PUSH1 0xA0 SHL SUB PUSH1 0x44 CALLDATALOAD DUP2 DUP2 AND SWAP3 SWAP1 DUP4 SWAP1 SUB PUSH2 0x5C2 JUMPI POP PUSH2 0x6C1 PUSH1 0x40 MLOAD PUSH2 0x411F PUSH1 0xC0 DUP3 PUSH2 0x4380 JUMP JUMPDEST PUSH1 0x4 CALLDATALOAD DUP2 MSTORE PUSH1 0x20 DUP2 ADD PUSH1 0x24 CALLDATALOAD DUP2 MSTORE PUSH1 0x40 DUP3 ADD SWAP5 CALLVALUE DUP7 MSTORE PUSH1 0x60 DUP4 ADD CALLER DUP2 MSTORE PUSH1 0x80 DUP5 ADD SWAP6 CALLER DUP8 MSTORE PUSH1 0xA0 DUP6 ADD SWAP3 DUP4 MSTORE PUSH2 0x621 PUSH2 0x4D8F JUMP JUMPDEST DUP3 PUSH2 0x415F CALLDATASIZE PUSH1 0x4 PUSH2 0x4264 JUMP JUMPDEST SWAP2 SWAP6 SWAP4 PUSH2 0x4172 PUSH1 0x40 SWAP7 SWAP5 SWAP7 MLOAD SWAP6 DUP7 PUSH2 0x4380 JUMP JUMPDEST DUP5 MSTORE PUSH1 0x20 DUP5 ADD SWAP5 DUP6 MSTORE PUSH1 0x40 DUP5 ADD SWAP6 DUP7 MSTORE PUSH1 0x60 DUP5 ADD SWAP1 CALLVALUE DUP3 MSTORE PUSH1 0x80 DUP6 ADD SWAP2 CALLER DUP4 MSTORE PUSH1 0xA0 DUP7 ADD SWAP5 PUSH1 0x1 DUP1 PUSH1 0xA0 SHL SUB DUP1 SWAP4 AND DUP7 MSTORE DUP3 PUSH1 0xC0 DUP9 ADD SWAP6 AND DUP6 MSTORE PUSH2 0x13CB PUSH2 0x4D8F JUMP JUMPDEST DUP3 CALLVALUE PUSH2 0x5C2 JUMPI PUSH1 0x20 CALLDATASIZE PUSH1 0x3 NOT ADD SLT PUSH2 0x5C2 JUMPI PUSH1 0x4 CALLDATALOAD SWAP1 PUSH2 0x167 SWAP1 DUP2 SLOAD DUP4 LT ISZERO PUSH2 0x5C2 JUMPI PUSH1 0x20 PUSH2 0x41E3 DUP5 DUP5 PUSH2 0x4222 JUMP JUMPDEST SWAP1 SLOAD PUSH1 0x40 MLOAD PUSH1 0x3 SWAP3 SWAP1 SWAP3 SHL SHR PUSH1 0x1 PUSH1 0x1 PUSH1 0xA0 SHL SUB AND DUP2 MSTORE RETURN JUMPDEST DUP3 CALLVALUE PUSH2 0x5C2 JUMPI PUSH1 0x20 CALLDATASIZE PUSH1 0x3 NOT ADD SLT PUSH2 0x5C2 JUMPI PUSH2 0x4216 PUSH2 0x5ACC JUMP JUMPDEST PUSH1 0x4 CALLDATALOAD PUSH2 0x16C SSTORE PUSH1 0x40 MLOAD RETURN JUMPDEST DUP1 SLOAD DUP3 LT ISZERO PUSH2 0x423A JUMPI PUSH1 0x0 MSTORE PUSH1 0x20 PUSH1 0x0 KECCAK256 ADD SWAP1 PUSH1 0x0 SWAP1 JUMP JUMPDEST PUSH4 0x4E487B71 PUSH1 0xE0 SHL PUSH1 0x0 MSTORE PUSH1 0x32 PUSH1 0x4 MSTORE PUSH1 0x24 PUSH1 0x0 REVERT JUMPDEST CALLDATALOAD SWAP1 PUSH1 0x1 PUSH1 0x1 PUSH1 0xA0 SHL SUB DUP3 AND DUP3 SUB PUSH2 0x90C JUMPI JUMP JUMPDEST SWAP1 DUP2 PUSH1 0xA0 SWAP2 SUB SLT PUSH2 0x90C JUMPI DUP1 CALLDATALOAD SWAP2 PUSH1 0x20 DUP3 ADD CALLDATALOAD SWAP2 PUSH1 0x40 DUP2 ADD CALLDATALOAD SWAP2 PUSH2 0x4296 PUSH1 0x80 PUSH2 0x428F PUSH1 0x60 DUP6 ADD PUSH2 0x4250 JUMP JUMPDEST SWAP4 ADD PUSH2 0x4250 JUMP JUMPDEST SWAP1 JUMP JUMPDEST SWAP2 SWAP1 DUP3 PUSH1 0x80 SWAP2 SUB SLT PUSH2 0x90C JUMPI DUP2 CALLDATALOAD SWAP2 PUSH1 0x20 DUP2 ADD CALLDATALOAD SWAP2 PUSH2 0x4296 PUSH1 0x60 PUSH1 0x40 DUP5 ADD CALLDATALOAD SWAP4 ADD PUSH2 0x4250 JUMP JUMPDEST SWAP1 DUP2 PUSH1 0xA0 SWAP2 SUB SLT PUSH2 0x90C JUMPI DUP1 CALLDATALOAD SWAP2 PUSH1 0x20 DUP3 ADD CALLDATALOAD SWAP2 PUSH1 0x40 DUP2 ADD CALLDATALOAD SWAP2 PUSH2 0x4296 PUSH1 0x80 PUSH1 0x60 DUP5 ADD CALLDATALOAD SWAP4 ADD PUSH2 0x4250 JUMP JUMPDEST SWAP2 SWAP1 DUP3 PUSH1 0x80 SWAP2 SUB SLT PUSH2 0x90C JUMPI DUP2 CALLDATALOAD SWAP2 PUSH1 0x20 DUP2 ADD CALLDATALOAD SWAP2 PUSH1 0x60 PUSH1 0x40 DUP4 ADD CALLDATALOAD SWAP3 ADD CALLDATALOAD SWAP1 JUMP JUMPDEST SWAP2 SWAP1 DUP3 PUSH1 0xC0 SWAP2 SUB SLT PUSH2 0x90C JUMPI DUP2 CALLDATALOAD SWAP2 PUSH1 0x20 DUP2 ADD CALLDATALOAD SWAP2 PUSH1 0x40 DUP3 ADD CALLDATALOAD SWAP2 PUSH1 0x60 DUP2 ADD CALLDATALOAD SWAP2 PUSH2 0x4296 PUSH1 0xA0 PUSH2 0x428F PUSH1 0x80 DUP6 ADD PUSH2 0x4250 JUMP JUMPDEST SWAP2 SWAP1 DUP3 PUSH1 0x80 SWAP2 SUB SLT PUSH2 0x90C JUMPI DUP2 CALLDATALOAD SWAP2 PUSH1 0x20 DUP2 ADD CALLDATALOAD SWAP2 PUSH2 0x4296 PUSH1 0x60 PUSH2 0x428F PUSH1 0x40 DUP6 ADD PUSH2 0x4250 JUMP JUMPDEST DUP1 SLOAD DUP3 LT ISZERO PUSH2 0x423A JUMPI PUSH1 0x0 MSTORE PUSH1 0x20 PUSH1 0x0 KECCAK256 SWAP1 PUSH1 0x1 SHL ADD SWAP1 PUSH1 0x0 SWAP1 JUMP JUMPDEST SWAP1 PUSH1 0x1F DUP1 NOT SWAP2 ADD AND DUP2 ADD SWAP1 DUP2 LT PUSH8 0xFFFFFFFFFFFFFFFF DUP3 GT OR PUSH2 0x43A2 JUMPI PUSH1 0x40 MSTORE JUMP JUMPDEST PUSH4 0x4E487B71 PUSH1 0xE0 SHL PUSH1 0x0 MSTORE PUSH1 0x41 PUSH1 0x4 MSTORE PUSH1 0x24 PUSH1 0x0 REVERT JUMPDEST PUSH8 0xFFFFFFFFFFFFFFFF DUP2 GT PUSH2 0x43A2 JUMPI PUSH1 0x1F ADD PUSH1 0x1F NOT AND PUSH1 0x20 ADD SWAP1 JUMP JUMPDEST ISZERO PUSH2 0x43DB JUMPI JUMP JUMPDEST PUSH1 0x40 MLOAD PUSH3 0x461BCD PUSH1 0xE5 SHL DUP2 MSTORE PUSH1 0x20 PUSH1 0x4 DUP3 ADD MSTORE PUSH1 0x2C PUSH1 0x24 DUP3 ADD MSTORE PUSH32 0x46756E6374696F6E206D7573742062652063616C6C6564207468726F75676820 PUSH1 0x44 DUP3 ADD MSTORE PUSH12 0x19195B1959D85D1958D85B1B PUSH1 0xA2 SHL PUSH1 0x64 DUP3 ADD MSTORE PUSH1 0x84 SWAP1 REVERT JUMPDEST ISZERO PUSH2 0x443C JUMPI JUMP JUMPDEST PUSH1 0x40 MLOAD PUSH3 0x461BCD PUSH1 0xE5 SHL DUP2 MSTORE PUSH1 0x20 PUSH1 0x4 DUP3 ADD MSTORE PUSH1 0x2C PUSH1 0x24 DUP3 ADD MSTORE PUSH32 0x46756E6374696F6E206D7573742062652063616C6C6564207468726F75676820 PUSH1 0x44 DUP3 ADD MSTORE PUSH12 0x6163746976652070726F7879 PUSH1 0xA0 SHL PUSH1 0x64 DUP3 ADD MSTORE PUSH1 0x84 SWAP1 REVERT JUMPDEST SWAP1 PUSH1 0xFF PUSH32 0x4910FDFA16FED3260ED0E7147F7CC6DA11A60208B5B9406D12A635614FFD9143 SLOAD AND PUSH1 0x0 EQ PUSH2 0x44D0 JUMPI POP PUSH2 0x44CE SWAP2 POP PUSH2 0x46E9 JUMP JUMPDEST JUMP JUMPDEST PUSH1 0x40 MLOAD PUSH4 0x52D1902D PUSH1 0xE0 SHL DUP2 MSTORE PUSH1 0x20 SWAP4 SWAP2 SWAP3 SWAP2 PUSH1 0x1 PUSH1 0x1 PUSH1 0xA0 SHL SUB DUP4 AND SWAP2 DUP6 DUP2 PUSH1 0x4 DUP2 DUP7 GAS STATICCALL PUSH1 0x0 SWAP2 DUP2 PUSH2 0x46BA JUMPI JUMPDEST POP PUSH2 0x4560 JUMPI PUSH1 0x40 MLOAD PUSH3 0x461BCD PUSH1 0xE5 SHL DUP2 MSTORE PUSH1 0x4 DUP2 ADD DUP8 SWAP1 MSTORE PUSH1 0x2E PUSH1 0x24 DUP3 ADD MSTORE PUSH32 0x45524331393637557067726164653A206E657720696D706C656D656E74617469 PUSH1 0x44 DUP3 ADD MSTORE PUSH14 0x6F6E206973206E6F742055555053 PUSH1 0x90 SHL PUSH1 0x64 DUP3 ADD MSTORE PUSH1 0x84 SWAP1 REVERT JUMPDEST SWAP4 SWAP5 SWAP3 SWAP4 PUSH32 0xC9F76B5EC45E5CDEF99837D7B6D2467235C1DF8933C8CA56DF5C35AFA2C7D444 ADD PUSH2 0x4663 JUMPI PUSH2 0x4593 DUP5 PUSH2 0x46E9 JUMP JUMPDEST PUSH1 0x40 MLOAD SWAP2 PUSH32 0xBC7CD75A20EE27FD9ADEBAB32041F755214DBC6BFFA90CC0225B39DA2E5C2D3B PUSH1 0x0 DUP5 LOG2 DUP5 MLOAD ISZERO SWAP1 DUP2 ISZERO SWAP2 PUSH2 0x465B JUMPI JUMPDEST POP PUSH2 0x45D4 JUMPI JUMPDEST POP POP POP POP JUMP JUMPDEST DUP3 EXTCODESIZE ISZERO PUSH2 0x460C JUMPI POP DUP3 PUSH1 0x0 SWAP3 DUP4 SWAP3 PUSH2 0x4602 SWAP6 MLOAD SWAP3 ADD SWAP1 GAS DELEGATECALL PUSH2 0x45F4 PUSH2 0x478B JUMP JUMPDEST PUSH2 0x45FC PUSH2 0x47BB JUMP JUMPDEST SWAP2 PUSH2 0x480F JUMP JUMPDEST POP CODESIZE DUP1 DUP1 DUP1 PUSH2 0x45CE JUMP JUMPDEST PUSH1 0x84 SWAP2 PUSH3 0x461BCD PUSH1 0xE5 SHL DUP3 MSTORE PUSH1 0x4 DUP3 ADD MSTORE PUSH1 0x26 PUSH1 0x24 DUP3 ADD MSTORE PUSH32 0x416464726573733A2064656C65676174652063616C6C20746F206E6F6E2D636F PUSH1 0x44 DUP3 ADD MSTORE PUSH6 0x1B9D1C9858DD PUSH1 0xD2 SHL PUSH1 0x64 DUP3 ADD MSTORE REVERT JUMPDEST SWAP1 POP CODESIZE PUSH2 0x45C8 JUMP JUMPDEST PUSH1 0x40 MLOAD PUSH3 0x461BCD PUSH1 0xE5 SHL DUP2 MSTORE PUSH1 0x4 DUP2 ADD DUP5 SWAP1 MSTORE PUSH1 0x29 PUSH1 0x24 DUP3 ADD MSTORE PUSH32 0x45524331393637557067726164653A20756E737570706F727465642070726F78 PUSH1 0x44 DUP3 ADD MSTORE PUSH9 0x1A58589B1955555251 PUSH1 0xBA SHL PUSH1 0x64 DUP3 ADD MSTORE PUSH1 0x84 SWAP1 REVERT JUMPDEST SWAP1 SWAP2 DUP8 DUP3 DUP2 RETURNDATASIZE DUP4 GT PUSH2 0x46E2 JUMPI JUMPDEST PUSH2 0x46D1 DUP2 DUP4 PUSH2 0x4380 JUMP JUMPDEST DUP2 ADD SUB SLT PUSH2 0x5C2 JUMPI POP MLOAD SWAP1 CODESIZE PUSH2 0x44FF JUMP JUMPDEST POP RETURNDATASIZE PUSH2 0x46C7 JUMP JUMPDEST DUP1 EXTCODESIZE ISZERO PUSH2 0x4730 JUMPI PUSH32 0x360894A13BA1A3210667C828492DB98DCA3E2076CC3735A920A3CA505D382BBC DUP1 SLOAD PUSH1 0x1 PUSH1 0x1 PUSH1 0xA0 SHL SUB NOT AND PUSH1 0x1 PUSH1 0x1 PUSH1 0xA0 SHL SUB SWAP1 SWAP3 AND SWAP2 SWAP1 SWAP2 OR SWAP1 SSTORE JUMP JUMPDEST PUSH1 0x40 MLOAD PUSH3 0x461BCD PUSH1 0xE5 SHL DUP2 MSTORE PUSH1 0x20 PUSH1 0x4 DUP3 ADD MSTORE PUSH1 0x2D PUSH1 0x24 DUP3 ADD MSTORE PUSH32 0x455243313936373A206E657720696D706C656D656E746174696F6E206973206E PUSH1 0x44 DUP3 ADD MSTORE PUSH13 0x1BDD08184818DBDB9D1C9858DD PUSH1 0x9A SHL PUSH1 0x64 DUP3 ADD MSTORE PUSH1 0x84 SWAP1 REVERT JUMPDEST RETURNDATASIZE ISZERO PUSH2 0x47B6 JUMPI RETURNDATASIZE SWAP1 PUSH2 0x479C DUP3 PUSH2 0x43B8 JUMP JUMPDEST SWAP2 PUSH2 0x47AA PUSH1 0x40 MLOAD SWAP4 DUP5 PUSH2 0x4380 JUMP JUMPDEST DUP3 MSTORE RETURNDATASIZE PUSH1 0x0 PUSH1 0x20 DUP5 ADD RETURNDATACOPY JUMP JUMPDEST PUSH1 0x60 SWAP1 JUMP JUMPDEST PUSH2 0x47C5 PUSH1 0x27 PUSH2 0x43B8 JUMP JUMPDEST SWAP1 PUSH2 0x47D3 PUSH1 0x40 MLOAD SWAP3 DUP4 PUSH2 0x4380 JUMP JUMPDEST PUSH1 0x27 DUP3 MSTORE PUSH7 0x819985A5B1959 PUSH1 0xCA SHL PUSH1 0x40 DUP4 PUSH32 0x416464726573733A206C6F772D6C6576656C2064656C65676174652063616C6C PUSH1 0x20 DUP3 ADD MSTORE ADD MSTORE JUMP JUMPDEST SWAP1 SWAP2 PUSH1 0x60 SWAP2 ISZERO PUSH2 0x481E JUMPI POP POP SWAP1 JUMP JUMPDEST PUSH2 0x44CE SWAP2 SWAP4 SWAP3 JUMPDEST DUP1 MLOAD SWAP1 SWAP3 POP ISZERO PUSH2 0x4838 JUMPI POP DUP1 MLOAD SWAP1 PUSH1 0x20 ADD REVERT JUMPDEST PUSH1 0x40 MLOAD SWAP1 PUSH3 0x461BCD PUSH1 0xE5 SHL DUP3 MSTORE DUP2 PUSH1 0x20 DUP1 PUSH1 0x4 DUP4 ADD MSTORE DUP3 MLOAD SWAP1 DUP2 PUSH1 0x24 DUP5 ADD MSTORE PUSH1 0x0 SWAP4 JUMPDEST DUP3 DUP6 LT PUSH2 0x487E JUMPI POP POP PUSH1 0x44 SWAP3 POP PUSH1 0x0 DUP4 DUP3 DUP5 ADD ADD MSTORE PUSH1 0x1F DUP1 NOT SWAP2 ADD AND DUP2 ADD SUB ADD SWAP1 REVERT JUMPDEST DUP5 DUP2 ADD DUP3 ADD MLOAD DUP7 DUP7 ADD PUSH1 0x44 ADD MSTORE SWAP4 DUP2 ADD SWAP4 DUP6 SWAP4 POP PUSH2 0x485B JUMP JUMPDEST SWAP2 SWAP1 DUP3 ADD DUP1 SWAP3 GT PUSH2 0x48A4 JUMPI JUMP JUMPDEST PUSH4 0x4E487B71 PUSH1 0xE0 SHL PUSH1 0x0 MSTORE PUSH1 0x11 PUSH1 0x4 MSTORE PUSH1 0x24 PUSH1 0x0 REVERT JUMPDEST DUP1 MLOAD DUP3 LT ISZERO PUSH2 0x423A JUMPI PUSH1 0x20 SWAP2 PUSH1 0x5 SHL ADD ADD SWAP1 JUMP JUMPDEST SWAP1 PUSH1 0x0 SWAP2 PUSH1 0x0 SWAP1 PUSH2 0x169 DUP1 SLOAD SWAP1 PUSH1 0x0 SWAP3 JUMPDEST DUP3 DUP5 LT PUSH2 0x4905 JUMPI POP POP POP POP PUSH2 0x4901 PUSH8 0xDE0B6B3A7640000 SWAP2 PUSH2 0x16B SLOAD SWAP1 PUSH2 0x49E1 JUMP JUMPDEST DIV SWAP1 JUMP JUMPDEST SWAP1 SWAP2 SWAP3 SWAP4 SWAP6 PUSH2 0x4954 DUP6 PUSH2 0x494E PUSH1 0x1 SWAP4 PUSH2 0xE04 PUSH2 0x4921 DUP5 DUP9 PUSH2 0x48BA JUMP JUMPDEST MLOAD PUSH2 0x681 PUSH8 0xDE0B6B3A7640000 PUSH2 0xA71 DUP12 PUSH2 0x4947 PUSH2 0x493F DUP7 DUP12 PUSH2 0x497A JUMP JUMPDEST SWAP11 SWAP1 SWAP3 PUSH2 0x4364 JUMP JUMPDEST POP SLOAD PUSH2 0x4897 JUMP JUMPDEST SWAP9 PUSH2 0x4897 JUMP JUMPDEST SWAP5 ADD SWAP3 SWAP2 SWAP1 PUSH2 0x48DF JUMP JUMPDEST SWAP2 SWAP1 SWAP2 PUSH1 0x0 DUP4 DUP3 ADD SWAP4 DUP5 SLT SWAP2 SLT SWAP1 DUP1 ISZERO DUP3 AND SWAP2 ISZERO AND OR PUSH2 0x48A4 JUMPI JUMP JUMPDEST SWAP2 SWAP1 PUSH1 0x0 SWAP1 PUSH2 0x49A8 DUP2 PUSH1 0x0 SWAP6 PUSH2 0x499E PUSH2 0x4995 DUP3 PUSH2 0x180 PUSH2 0x4222 JUMP JUMPDEST SWAP4 SWAP1 SLOAD SWAP3 PUSH2 0x4A14 JUMP JUMPDEST SWAP2 PUSH1 0x3 SHL SHR PUSH2 0x495E JUMP JUMPDEST PUSH1 0x0 DUP2 SGT PUSH2 0x49B7 JUMPI JUMPDEST POP POP SWAP2 SWAP1 JUMP JUMPDEST PUSH2 0x49D9 SWAP2 SWAP5 POP PUSH2 0x302A SWAP3 POP DUP1 SWAP5 PUSH8 0xDE0B6B3A7640000 SWAP4 DUP5 SWAP2 PUSH2 0x16C SLOAD PUSH2 0x49E1 JUMP JUMPDEST DIV CODESIZE DUP1 PUSH2 0x49B1 JUMP JUMPDEST DUP1 PUSH1 0x0 NOT DIV DUP3 GT DUP2 ISZERO ISZERO AND PUSH2 0x48A4 JUMPI MUL SWAP1 JUMP JUMPDEST DUP2 ISZERO PUSH2 0x49FE JUMPI DIV SWAP1 JUMP JUMPDEST PUSH4 0x4E487B71 PUSH1 0xE0 SHL PUSH1 0x0 MSTORE PUSH1 0x12 PUSH1 0x4 MSTORE PUSH1 0x24 PUSH1 0x0 REVERT JUMPDEST SWAP1 PUSH2 0x4A5A SWAP1 PUSH2 0x4A54 PUSH2 0x4A47 PUSH2 0x4A3E PUSH8 0xDE0B6B3A7640000 PUSH2 0x4A37 DUP8 PUSH2 0x169 PUSH2 0x4364 JUMP JUMPDEST POP SLOAD PUSH2 0x49E1 JUMP JUMPDEST SWAP5 PUSH2 0x181 PUSH2 0x4222 JUMP JUMPDEST SWAP1 SLOAD SWAP1 PUSH1 0x3 SHL SHR DUP5 PUSH2 0x49F4 JUMP JUMPDEST SWAP3 PUSH2 0x49F4 JUMP JUMPDEST SWAP1 PUSH1 0x0 DUP3 DUP3 SUB SWAP3 SLT DUP2 DUP4 SLT DUP2 AND SWAP2 DUP4 SGT SWAP1 ISZERO AND OR PUSH2 0x48A4 JUMPI SWAP1 JUMP JUMPDEST DUP1 ISZERO PUSH2 0x4A97 JUMPI PUSH2 0x681 PUSH8 0xDE0B6B3A7640000 PUSH2 0xA71 PUSH2 0x4296 SWAP5 PUSH2 0x163 SLOAD PUSH2 0x4A9F JUMP JUMPDEST POP POP PUSH1 0x0 NOT SWAP1 JUMP JUMPDEST SWAP2 SWAP1 DUP3 SUB SWAP2 DUP3 GT PUSH2 0x48A4 JUMPI JUMP JUMPDEST PUSH8 0xFFFFFFFFFFFFFFFF DUP2 GT PUSH2 0x43A2 JUMPI PUSH1 0x5 SHL PUSH1 0x20 ADD SWAP1 JUMP JUMPDEST SWAP1 PUSH2 0x4ACE DUP3 PUSH2 0x4AAC JUMP JUMPDEST PUSH2 0x4ADB PUSH1 0x40 MLOAD SWAP2 DUP3 PUSH2 0x4380 JUMP JUMPDEST DUP3 DUP2 MSTORE DUP1 SWAP3 PUSH2 0x4AEC PUSH1 0x1F NOT SWAP2 PUSH2 0x4AAC JUMP JUMPDEST ADD SWAP1 PUSH1 0x20 CALLDATASIZE SWAP2 ADD CALLDATACOPY JUMP JUMPDEST PUSH2 0x163 SLOAD DUP1 ISZERO PUSH2 0x4BCD JUMPI PUSH2 0x169 SWAP1 DUP2 SLOAD SWAP2 PUSH1 0x0 SWAP1 PUSH2 0x4B13 DUP5 PUSH2 0x4AC4 JUMP JUMPDEST SWAP1 DUP3 SWAP1 JUMPDEST DUP6 DUP3 LT PUSH2 0x4B7D JUMPI POP POP PUSH1 0x0 JUMPDEST DUP5 DUP2 LT PUSH2 0x4B31 JUMPI POP POP POP POP POP JUMP JUMPDEST PUSH2 0x4B49 DUP5 PUSH2 0x681 DUP6 PUSH2 0x4B43 DUP6 DUP8 PUSH2 0x48BA JUMP JUMPDEST MLOAD PUSH2 0x49E1 JUMP JUMPDEST SWAP1 PUSH2 0x16A SWAP2 DUP3 SLOAD PUSH9 0x10000000000000000 DUP2 LT ISZERO PUSH2 0x43A2 JUMPI PUSH2 0x3047 DUP2 PUSH1 0x1 SWAP6 DUP7 PUSH2 0x4B75 SWAP5 ADD DUP2 SSTORE PUSH2 0x4222 JUMP JUMPDEST SWAP1 SSTORE ADD PUSH2 0x4B23 JUMP JUMPDEST SWAP1 SWAP3 PUSH2 0x4BC5 PUSH1 0x1 SWAP2 PUSH2 0x4B8E DUP7 PUSH2 0x4BD0 JUMP JUMPDEST PUSH2 0x4B98 DUP8 DUP8 PUSH2 0x48BA JUMP JUMPDEST MSTORE PUSH2 0xE04 PUSH2 0x4BA6 DUP8 DUP7 PUSH2 0x4364 JUMP JUMPDEST POP SLOAD PUSH2 0x681 PUSH8 0xDE0B6B3A7640000 PUSH2 0x4BBE DUP11 DUP11 PUSH2 0x48BA JUMP JUMPDEST MLOAD SWAP3 PUSH2 0x49E1 JUMP JUMPDEST SWAP4 ADD SWAP1 PUSH2 0x4B17 JUMP JUMPDEST POP JUMP JUMPDEST PUSH2 0x4BDC SWAP1 PUSH2 0x169 PUSH2 0x4364 JUMP JUMPDEST POP PUSH1 0x1 ADD SLOAD PUSH1 0x1 PUSH1 0x1 PUSH1 0xA0 SHL SUB AND PUSH2 0x4BF3 DUP2 PUSH2 0x4C24 JUMP JUMPDEST SWAP2 SWAP1 SWAP2 ISZERO PUSH2 0x4BFF JUMPI POP SWAP1 JUMP JUMPDEST PUSH1 0x24 SWAP1 PUSH1 0x40 MLOAD SWAP1 PUSH4 0x7F6E4DB9 PUSH1 0xE0 SHL DUP3 MSTORE PUSH1 0x4 DUP3 ADD MSTORE REVERT JUMPDEST MLOAD SWAP1 DUP2 ISZERO ISZERO DUP3 SUB PUSH2 0x90C JUMPI JUMP JUMPDEST PUSH1 0x40 DUP1 MLOAD PUSH4 0x59E02DD7 PUSH1 0xE0 SHL DUP2 MSTORE SWAP3 SWAP2 DUP2 SWAP1 DUP5 SWAP1 PUSH1 0x4 SWAP1 DUP3 SWAP1 PUSH1 0x1 PUSH1 0x1 PUSH1 0xA0 SHL SUB AND GAS STATICCALL SWAP3 DUP4 ISZERO PUSH2 0x4C9B JUMPI PUSH1 0x0 SWAP2 DUP3 SWAP5 PUSH2 0x4C5E JUMPI POP POP SWAP2 SWAP1 JUMP JUMPDEST SWAP1 DUP1 SWAP5 POP DUP2 RETURNDATASIZE DUP4 GT PUSH2 0x4C94 JUMPI JUMPDEST PUSH2 0x4C75 DUP2 DUP4 PUSH2 0x4380 JUMP JUMPDEST DUP2 ADD SUB SLT PUSH2 0x5C2 JUMPI POP PUSH2 0x4C8C PUSH1 0x20 DUP4 MLOAD SWAP4 ADD PUSH2 0x4C17 JUMP JUMPDEST SWAP2 CODESIZE DUP1 PUSH2 0x49B1 JUMP JUMPDEST POP RETURNDATASIZE PUSH2 0x4C6B JUMP JUMPDEST POP MLOAD RETURNDATASIZE PUSH1 0x0 DUP3 RETURNDATACOPY RETURNDATASIZE SWAP1 REVERT JUMPDEST PUSH2 0x169 SLOAD SWAP1 PUSH2 0x4CB4 DUP3 PUSH2 0x4AC4 JUMP JUMPDEST SWAP2 PUSH1 0x0 JUMPDEST DUP2 DUP2 LT PUSH2 0x4CC3 JUMPI POP POP JUMP JUMPDEST DUP1 PUSH2 0x4CCF PUSH1 0x1 SWAP3 PUSH2 0x4BD0 JUMP JUMPDEST PUSH2 0x4CD9 DUP3 DUP8 PUSH2 0x48BA JUMP JUMPDEST MSTORE ADD PUSH2 0x4CB8 JUMP JUMPDEST ISZERO PUSH2 0x4CE7 JUMPI JUMP JUMPDEST PUSH1 0x40 MLOAD PUSH3 0x461BCD PUSH1 0xE5 SHL DUP2 MSTORE PUSH1 0x20 PUSH1 0x4 DUP3 ADD MSTORE PUSH1 0x2B PUSH1 0x24 DUP3 ADD MSTORE PUSH32 0x496E697469616C697A61626C653A20636F6E7472616374206973206E6F742069 PUSH1 0x44 DUP3 ADD MSTORE PUSH11 0x6E697469616C697A696E67 PUSH1 0xA8 SHL PUSH1 0x64 DUP3 ADD MSTORE PUSH1 0x84 SWAP1 REVERT JUMPDEST PUSH1 0x40 MLOAD SWAP1 PUSH2 0x4D4F PUSH1 0x80 DUP4 PUSH2 0x4380 JUMP JUMPDEST PUSH1 0x0 PUSH1 0x60 DUP4 DUP3 DUP2 MSTORE DUP3 PUSH1 0x20 DUP3 ADD MSTORE DUP3 PUSH1 0x40 DUP3 ADD MSTORE ADD MSTORE JUMP JUMPDEST SWAP3 PUSH1 0xA0 SWAP5 SWAP2 SWAP8 SWAP7 SWAP6 SWAP3 PUSH1 0xC0 DUP6 ADD SWAP9 DUP6 MSTORE PUSH1 0x20 DUP6 ADD MSTORE PUSH1 0x40 DUP5 ADD MSTORE PUSH1 0x60 DUP4 ADD MSTORE PUSH1 0x80 DUP3 ADD MSTORE ADD MSTORE JUMP JUMPDEST PUSH1 0xFF PUSH2 0x17D SLOAD PUSH1 0x8 SHR AND PUSH2 0x4D9F JUMPI JUMP JUMPDEST PUSH1 0x40 MLOAD PUSH4 0x1CA61D77 PUSH1 0xE0 SHL DUP2 MSTORE PUSH1 0x4 SWAP1 REVERT JUMPDEST PUSH2 0x4E17 SWAP3 PUSH1 0x20 SWAP3 PUSH2 0x166 PUSH2 0x4DC6 DUP5 DUP3 SLOAD PUSH2 0x4897 JUMP JUMPDEST SWAP1 SSTORE PUSH2 0x4DD6 PUSH2 0x163 SWAP2 DUP3 SLOAD PUSH2 0x4897 JUMP JUMPDEST SWAP1 SSTORE PUSH2 0x165 SLOAD PUSH1 0x40 MLOAD PUSH4 0x40C10F19 PUSH1 0xE0 SHL DUP2 MSTORE PUSH1 0x1 PUSH1 0x1 PUSH1 0xA0 SHL SUB SWAP3 DUP4 AND PUSH1 0x4 DUP3 ADD MSTORE PUSH1 0x24 DUP2 ADD SWAP4 SWAP1 SWAP4 MSTORE SWAP2 SWAP4 DUP5 SWAP3 SWAP1 SWAP2 AND SWAP1 DUP3 SWAP1 PUSH1 0x0 SWAP1 DUP3 SWAP1 PUSH1 0x44 DUP3 ADD SWAP1 JUMP JUMPDEST SUB SWAP3 GAS CALL DUP1 ISZERO PUSH2 0x4E59 JUMPI PUSH2 0x4E28 JUMPI POP JUMP JUMPDEST PUSH1 0x20 DUP2 RETURNDATASIZE DUP3 GT PUSH2 0x4E51 JUMPI JUMPDEST DUP2 PUSH2 0x4E40 PUSH1 0x20 SWAP4 DUP4 PUSH2 0x4380 JUMP JUMPDEST DUP2 ADD SUB SLT PUSH2 0x90C JUMPI PUSH2 0x4BCD SWAP1 PUSH2 0x4C17 JUMP JUMPDEST RETURNDATASIZE SWAP2 POP PUSH2 0x4E33 JUMP JUMPDEST PUSH1 0x40 MLOAD RETURNDATASIZE PUSH1 0x0 DUP3 RETURNDATACOPY RETURNDATASIZE SWAP1 REVERT JUMPDEST SWAP2 SWAP1 PUSH2 0x4E70 SWAP1 PUSH2 0x48CE JUMP JUMPDEST SWAP2 SWAP1 SWAP3 PUSH2 0x4E7D DUP4 DUP6 PUSH2 0x4A75 JUMP JUMPDEST SWAP1 DUP1 DUP3 GT ISZERO PUSH2 0x4E8A JUMPI POP POP JUMP JUMPDEST PUSH1 0x44 SWAP3 POP PUSH1 0x40 MLOAD SWAP2 PUSH4 0x79121201 PUSH1 0xE0 SHL DUP4 MSTORE PUSH1 0x4 DUP4 ADD MSTORE PUSH1 0x24 DUP3 ADD MSTORE REVERT JUMPDEST SWAP1 PUSH2 0x166 SLOAD SWAP1 DUP2 ISZERO PUSH2 0x4ED4 JUMPI PUSH8 0xDE0B6B3A7640000 PUSH2 0xA71 PUSH2 0x4296 SWAP5 PUSH2 0xA6C PUSH2 0x681 SWAP5 PUSH2 0x163 SLOAD PUSH2 0x4A9F JUMP JUMPDEST POP POP POP PUSH8 0xDE0B6B3A7640000 SWAP1 JUMP JUMPDEST SWAP3 SWAP1 SWAP4 SWAP2 PUSH1 0x0 SWAP2 PUSH1 0x0 SWAP2 DUP3 SWAP7 PUSH2 0x4EF7 PUSH2 0x4D40 JUMP JUMPDEST SWAP7 PUSH1 0x1 PUSH1 0x1 PUSH1 0xA0 SHL SUB SWAP2 DUP6 SWAP1 DUP4 AND DUP1 PUSH2 0x5107 JUMPI JUMPDEST POP DUP3 PUSH2 0x161 SLOAD AND DUP4 PUSH1 0x40 MLOAD SWAP4 PUSH4 0x6EB1769F PUSH1 0xE1 SHL DUP6 MSTORE AND DUP1 PUSH1 0x4 DUP6 ADD MSTORE ADDRESS PUSH1 0x24 DUP6 ADD MSTORE PUSH1 0x20 SWAP5 DUP6 DUP6 PUSH1 0x44 DUP2 DUP7 GAS STATICCALL SWAP5 DUP6 ISZERO PUSH2 0x50FC JUMPI DUP5 SWAP6 PUSH2 0x50C9 JUMPI JUMPDEST POP DUP5 PUSH2 0x4FA8 JUMPI JUMPDEST POP POP POP POP POP DUP7 ADD MLOAD ISZERO PUSH2 0x4F64 JUMPI JUMPDEST POP POP POP SWAP3 SWAP2 SWAP1 JUMP JUMPDEST SWAP1 SWAP2 SWAP3 POP PUSH2 0x4F7C PUSH8 0xDE0B6B3A7640000 SWAP3 DUP4 SWAP3 PUSH2 0x49E1 JUMP JUMPDEST DIV DUP1 DUP6 MSTORE SWAP1 DUP3 ISZERO PUSH2 0x4FA0 JUMPI PUSH2 0x4F98 SWAP3 DIV SWAP1 DUP2 PUSH1 0x40 DUP7 ADD MSTORE PUSH2 0x4897 JUMP JUMPDEST CODESIZE DUP1 DUP1 PUSH2 0x4F5C JUMP JUMPDEST POP SWAP1 POP PUSH2 0x4F98 JUMP JUMPDEST PUSH2 0x4FB6 SWAP1 PUSH2 0x162 SLOAD AND PUSH2 0x4C24 JUMP JUMPDEST SWAP3 SWAP1 SWAP3 ISZERO PUSH2 0x4F4E JUMPI SWAP1 SWAP2 SWAP3 SWAP4 SWAP12 POP DUP5 DUP12 PUSH2 0x4FF0 DUP6 PUSH8 0xDE0B6B3A7640000 PUSH2 0x4FEA PUSH2 0x4FE0 DUP14 DUP14 PUSH2 0x49E1 JUMP JUMPDEST PUSH2 0x175 SLOAD SWAP1 PUSH2 0x49E1 JUMP JUMPDEST DIV PUSH2 0x49F4 JUMP JUMPDEST DUP2 DUP4 ADD DUP2 DUP2 MSTORE SWAP6 SWAP1 DUP12 ISZERO PUSH2 0x50BF JUMPI POP PUSH2 0x501B SWAP2 PUSH2 0x500F PUSH1 0x60 SWAP3 DUP14 PUSH2 0x49F4 JUMP JUMPDEST SWAP2 DUP3 SWAP2 ADD MSTORE DUP6 MLOAD PUSH2 0x4897 JUMP JUMPDEST DUP1 SWAP14 JUMPDEST LT SWAP3 DUP4 ISZERO PUSH2 0x504A JUMPI JUMPDEST POP POP POP PUSH2 0x5037 JUMPI JUMPDEST DUP1 DUP1 DUP1 PUSH2 0x4F4E JUMP JUMPDEST DUP2 SWAP3 SWAP10 POP MSTORE DUP1 PUSH1 0x60 DUP9 ADD MSTORE SWAP7 CODESIZE DUP1 PUSH2 0x502F JUMP JUMPDEST SWAP1 SWAP2 SWAP3 POP PUSH1 0x24 PUSH1 0x40 MLOAD DUP1 SWAP5 DUP2 SWAP4 PUSH4 0x70A08231 PUSH1 0xE0 SHL DUP4 MSTORE PUSH1 0x4 DUP4 ADD MSTORE GAS STATICCALL SWAP1 DUP2 ISZERO PUSH2 0x50B4 JUMPI SWAP1 DUP12 SWAP2 DUP5 SWAP2 PUSH2 0x5083 JUMPI JUMPDEST POP LT CODESIZE DUP5 DUP2 PUSH2 0x5027 JUMP JUMPDEST DUP1 SWAP3 POP DUP6 DUP1 SWAP3 POP RETURNDATASIZE DUP4 GT PUSH2 0x50AD JUMPI JUMPDEST PUSH2 0x509C DUP2 DUP4 PUSH2 0x4380 JUMP JUMPDEST DUP2 ADD SUB SLT PUSH2 0x3A49 JUMPI DUP11 SWAP1 MLOAD CODESIZE PUSH2 0x5079 JUMP JUMPDEST POP RETURNDATASIZE PUSH2 0x5092 JUMP JUMPDEST PUSH1 0x40 MLOAD RETURNDATASIZE DUP6 DUP3 RETURNDATACOPY RETURNDATASIZE SWAP1 REVERT JUMPDEST SWAP2 POP POP DUP1 SWAP14 PUSH2 0x501E JUMP JUMPDEST SWAP1 SWAP5 POP DUP6 DUP2 DUP2 RETURNDATASIZE DUP4 GT PUSH2 0x50F5 JUMPI JUMPDEST PUSH2 0x50E1 DUP2 DUP4 PUSH2 0x4380 JUMP JUMPDEST DUP2 ADD SUB SLT PUSH2 0x50F1 JUMPI MLOAD SWAP4 CODESIZE PUSH2 0x4F47 JUMP JUMPDEST DUP4 DUP1 REVERT JUMPDEST POP RETURNDATASIZE PUSH2 0x50D7 JUMP JUMPDEST PUSH1 0x40 MLOAD RETURNDATASIZE DUP7 DUP3 RETURNDATACOPY RETURNDATASIZE SWAP1 REVERT JUMPDEST SWAP1 SWAP6 POP PUSH1 0x20 DUP4 PUSH2 0x1E9 SLOAD AND SWAP2 PUSH1 0x24 PUSH1 0x40 MLOAD DUP1 SWAP5 DUP2 SWAP4 PUSH4 0x64A731E9 PUSH1 0xE0 SHL DUP4 MSTORE PUSH1 0x4 DUP4 ADD MSTORE GAS STATICCALL DUP1 ISZERO PUSH2 0x517F JUMPI DUP7 SWAP1 PUSH2 0x514C JUMPI JUMPDEST PUSH2 0x5145 SWAP2 POP DUP5 PUSH2 0x49E1 JUMP JUMPDEST SWAP5 CODESIZE PUSH2 0x4F0B JUMP JUMPDEST POP PUSH1 0x20 DUP2 RETURNDATASIZE DUP3 GT PUSH2 0x5177 JUMPI JUMPDEST DUP2 PUSH2 0x5165 PUSH1 0x20 SWAP4 DUP4 PUSH2 0x4380 JUMP JUMPDEST DUP2 ADD SUB SLT PUSH2 0x336C JUMPI PUSH2 0x5145 SWAP1 MLOAD PUSH2 0x513A JUMP JUMPDEST RETURNDATASIZE SWAP2 POP PUSH2 0x5158 JUMP JUMPDEST PUSH1 0x40 MLOAD RETURNDATASIZE DUP9 DUP3 RETURNDATACOPY RETURNDATASIZE SWAP1 REVERT JUMPDEST PUSH2 0x5202 SWAP4 PUSH2 0x51C9 PUSH1 0x0 SWAP3 PUSH1 0x20 SWAP6 PUSH2 0x51A3 DUP3 PUSH2 0x169 PUSH2 0x4364 JUMP JUMPDEST POP PUSH2 0x51AF DUP8 DUP3 SLOAD PUSH2 0x4897 JUMP JUMPDEST SWAP1 SSTORE PUSH2 0x51BF PUSH2 0x163 SWAP2 DUP3 SLOAD PUSH2 0x4897 JUMP JUMPDEST SWAP1 SSTORE PUSH2 0x167 PUSH2 0x4222 JUMP JUMPDEST SWAP1 SLOAD PUSH1 0x40 MLOAD PUSH4 0x40C10F19 PUSH1 0xE0 SHL DUP2 MSTORE PUSH1 0x1 PUSH1 0x1 PUSH1 0xA0 SHL SUB SWAP1 SWAP4 AND PUSH1 0x4 DUP5 ADD MSTORE PUSH1 0x24 DUP4 ADD SWAP5 SWAP1 SWAP5 MSTORE SWAP1 SWAP5 DUP6 SWAP4 SWAP3 DUP5 SWAP3 SWAP1 SWAP2 DUP4 SWAP1 PUSH1 0x44 DUP3 ADD SWAP1 JUMP JUMPDEST SUB SWAP4 PUSH1 0x3 SWAP2 SWAP1 SWAP2 SHL SHR PUSH1 0x1 PUSH1 0x1 PUSH1 0xA0 SHL SUB AND GAS CALL DUP1 ISZERO PUSH2 0x4E59 JUMPI PUSH2 0x4E28 JUMPI POP JUMP JUMPDEST PUSH2 0x3047 PUSH2 0x5276 SWAP2 PUSH2 0x5234 DUP5 DUP3 PUSH2 0x4A14 JUMP JUMPDEST PUSH2 0x526C PUSH2 0x5243 DUP4 PUSH2 0x180 PUSH2 0x4222 JUMP JUMPDEST PUSH2 0x5256 DUP3 SWAP5 SWAP3 SLOAD SWAP3 DUP4 DUP4 PUSH1 0x3 SHL SHR PUSH2 0x495E JUMP JUMPDEST SWAP2 SWAP1 PUSH1 0x3 SHL PUSH1 0x0 NOT DUP2 SHL SWAP3 DUP4 SWAP2 SHL AND SWAP2 NOT AND OR SWAP1 JUMP JUMPDEST SWAP1 SSTORE PUSH2 0x181 PUSH2 0x4222 JUMP JUMPDEST SWAP1 SSTORE JUMP JUMPDEST SWAP3 PUSH2 0x955 DUP4 PUSH2 0x528C SWAP7 SWAP5 SWAP4 SWAP8 SWAP6 PUSH2 0x58D4 JUMP JUMPDEST DUP2 DUP2 LT PUSH2 0x5297 JUMPI POP POP JUMP JUMPDEST PUSH1 0x44 SWAP3 POP PUSH1 0x40 MLOAD SWAP2 PUSH4 0xC39B739F PUSH1 0xE0 SHL DUP4 MSTORE PUSH1 0x4 DUP4 ADD MSTORE PUSH1 0x24 DUP3 ADD MSTORE REVERT JUMPDEST SWAP4 PUSH2 0x52C4 SWAP4 PUSH2 0xA71 SWAP3 SWAP6 PUSH2 0x52EA JUMP JUMPDEST PUSH8 0xDE0B6B3A763FFFF NOT DUP3 ADD SWAP2 DUP3 GT PUSH2 0x48A4 JUMPI PUSH8 0xDE0B6B3A7640000 SWAP2 PUSH2 0x4901 SWAP2 PUSH2 0x49F4 JUMP JUMPDEST SWAP1 SWAP2 DUP2 PUSH2 0x52F7 DUP3 DUP6 PUSH2 0x4A75 JUMP JUMPDEST GT ISZERO PUSH2 0x5323 JUMPI PUSH2 0x4296 SWAP3 PUSH2 0x143A PUSH8 0xDE0B6B3A7640000 PUSH2 0xA71 PUSH2 0x531D SWAP5 PUSH2 0x163 SLOAD PUSH2 0x4A9F JUMP JUMPDEST SWAP1 PUSH2 0x4A9F JUMP JUMPDEST POP POP POP PUSH1 0x0 SWAP1 JUMP JUMPDEST SWAP1 PUSH2 0x4296 SWAP2 PUSH1 0x0 DUP1 PUSH2 0x533B PUSH2 0x47BB JUMP JUMPDEST SWAP4 PUSH1 0x20 DUP2 MLOAD SWAP2 ADD DUP5 GAS DELEGATECALL PUSH2 0x534D PUSH2 0x478B JUMP JUMPDEST SWAP3 PUSH1 0x60 SWAP2 ISZERO PUSH2 0x53B1 JUMPI POP POP DUP2 MLOAD ISZERO PUSH2 0x5363 JUMPI POP SWAP1 JUMP JUMPDEST EXTCODESIZE ISZERO PUSH2 0x536C JUMPI SWAP1 JUMP JUMPDEST PUSH1 0x40 MLOAD PUSH3 0x461BCD PUSH1 0xE5 SHL DUP2 MSTORE PUSH1 0x20 PUSH1 0x4 DUP3 ADD MSTORE PUSH1 0x1D PUSH1 0x24 DUP3 ADD MSTORE PUSH32 0x416464726573733A2063616C6C20746F206E6F6E2D636F6E7472616374000000 PUSH1 0x44 DUP3 ADD MSTORE PUSH1 0x64 SWAP1 REVERT JUMPDEST SWAP1 SWAP4 SWAP3 PUSH2 0x44CE SWAP3 POP PUSH2 0x4825 JUMP JUMPDEST PUSH2 0x53EC SWAP2 SWAP4 SWAP3 PUSH2 0x53D0 DUP3 PUSH2 0x169 PUSH2 0x4364 JUMP JUMPDEST POP PUSH2 0x53DC DUP7 DUP3 SLOAD PUSH2 0x4A9F JUMP JUMPDEST SWAP1 SSTORE PUSH2 0x51BF PUSH2 0x163 SWAP2 DUP3 SLOAD PUSH2 0x4A9F JUMP JUMPDEST SWAP1 SLOAD PUSH1 0x3 SWAP2 SWAP1 SWAP2 SHL SHR PUSH1 0x1 PUSH1 0x1 PUSH1 0xA0 SHL SUB AND SWAP2 DUP3 EXTCODESIZE ISZERO PUSH2 0x90C JUMPI PUSH1 0x40 MLOAD PUSH4 0x2770A7EB PUSH1 0xE2 SHL DUP2 MSTORE PUSH1 0x1 PUSH1 0x1 PUSH1 0xA0 SHL SUB SWAP1 SWAP3 AND PUSH1 0x4 DUP4 ADD MSTORE PUSH1 0x24 DUP3 ADD MSTORE SWAP1 PUSH1 0x0 SWAP1 DUP3 SWAP1 DUP2 DUP4 DUP2 PUSH1 0x44 DUP2 ADD JUMPDEST SUB SWAP3 GAS CALL DUP1 ISZERO PUSH2 0x4E59 JUMPI PUSH2 0x5447 JUMPI POP JUMP JUMPDEST PUSH1 0x0 PUSH2 0x44CE SWAP2 PUSH2 0x4380 JUMP JUMPDEST SWAP2 SWAP1 PUSH2 0x166 PUSH2 0x5462 DUP5 DUP3 SLOAD PUSH2 0x4A9F JUMP JUMPDEST SWAP1 SSTORE PUSH2 0x5472 PUSH2 0x163 SWAP2 DUP3 SLOAD PUSH2 0x4A9F JUMP JUMPDEST SWAP1 SSTORE PUSH2 0x165 SLOAD PUSH1 0x1 PUSH1 0x1 PUSH1 0xA0 SHL SUB AND SWAP2 DUP3 EXTCODESIZE ISZERO PUSH2 0x90C JUMPI PUSH1 0x40 MLOAD PUSH4 0x2770A7EB PUSH1 0xE2 SHL DUP2 MSTORE PUSH1 0x1 PUSH1 0x1 PUSH1 0xA0 SHL SUB SWAP1 SWAP3 AND PUSH1 0x4 DUP4 ADD MSTORE PUSH1 0x24 DUP3 ADD MSTORE SWAP1 PUSH1 0x0 SWAP1 DUP3 SWAP1 DUP2 DUP4 DUP2 PUSH1 0x44 DUP2 ADD PUSH2 0x5436 JUMP JUMPDEST DUP5 MLOAD SWAP3 SWAP5 SWAP4 SWAP2 SWAP3 PUSH1 0x0 SWAP2 SWAP1 ISZERO PUSH2 0x55E5 JUMPI POP PUSH8 0xDE0B6B3A7640000 PUSH2 0x54E6 PUSH2 0x16D SLOAD DUP7 MLOAD SWAP1 PUSH2 0x49E1 JUMP JUMPDEST DIV SWAP2 PUSH2 0x163 PUSH2 0x54F6 DUP5 DUP3 SLOAD PUSH2 0x4897 JUMP JUMPDEST SWAP1 SSTORE PUSH2 0x178 SLOAD DUP6 MLOAD PUSH1 0x1 PUSH1 0x1 PUSH1 0xA0 SHL SUB SWAP7 SWAP2 DUP8 AND SWAP5 PUSH2 0x5514 SWAP2 PUSH2 0x4A9F JUMP JUMPDEST PUSH2 0x12F SWAP5 PUSH1 0x2 DUP7 SLOAD EQ PUSH2 0x2F7A JUMPI PUSH1 0x2 DUP7 SSTORE DUP2 PUSH2 0x55BE JUMPI JUMPDEST POP POP PUSH1 0x40 ADD MLOAD SWAP2 SWAP5 PUSH1 0x2 DUP5 SSTORE DUP3 PUSH2 0x5594 JUMPI JUMPDEST POP POP POP PUSH1 0x1 SWAP1 SSTORE JUMPDEST PUSH2 0x12F SWAP3 PUSH1 0x2 DUP5 SLOAD EQ PUSH2 0x2F7A JUMPI PUSH1 0x2 DUP5 SSTORE DUP1 PUSH2 0x5565 JUMPI JUMPDEST POP POP POP PUSH1 0x1 SWAP1 SSTORE JUMP JUMPDEST PUSH1 0x1 PUSH1 0x1 PUSH1 0xA0 SHL SUB DUP3 AND ISZERO PUSH2 0x2F68 JUMPI DUP3 SWAP2 DUP3 SWAP2 PUSH1 0x40 MLOAD SWAP2 GAS CALL PUSH2 0x5586 PUSH2 0x478B JUMP JUMPDEST POP ISZERO PUSH2 0x2F56 JUMPI CODESIZE DUP1 DUP1 PUSH2 0x555C JUMP JUMPDEST DUP2 AND ISZERO PUSH2 0x2F68 JUMPI PUSH1 0x0 DUP1 SWAP3 SWAP2 DUP2 SWAP3 PUSH1 0x40 MLOAD SWAP2 GAS CALL PUSH2 0x55B0 PUSH2 0x478B JUMP JUMPDEST POP ISZERO PUSH2 0x2F56 JUMPI CODESIZE DUP1 DUP1 PUSH2 0x553D JUMP JUMPDEST DUP1 ISZERO PUSH2 0x2F68 JUMPI DUP5 DUP1 SWAP3 SWAP2 DUP2 SWAP3 PUSH1 0x40 MLOAD SWAP2 GAS CALL PUSH2 0x55D8 PUSH2 0x478B JUMP JUMPDEST POP ISZERO PUSH2 0x2F56 JUMPI CODESIZE DUP1 PUSH2 0x552B JUMP JUMPDEST PUSH2 0x178 SLOAD PUSH1 0x20 DUP7 ADD MLOAD SWAP3 SWAP6 PUSH2 0x5615 SWAP5 SWAP3 SWAP4 PUSH1 0x60 SWAP3 PUSH2 0x560D SWAP2 SWAP1 PUSH1 0x1 PUSH1 0x1 PUSH1 0xA0 SHL SUB AND DUP7 PUSH2 0x561A JUMP JUMPDEST ADD MLOAD SWAP2 PUSH2 0x561A JUMP JUMPDEST PUSH2 0x5545 JUMP JUMPDEST SWAP2 SWAP1 SWAP2 DUP2 PUSH2 0x5627 JUMPI POP POP POP JUMP JUMPDEST PUSH2 0x56C0 SWAP2 PUSH1 0x0 DUP1 PUSH1 0x1 DUP1 PUSH1 0xA0 SHL SUB SWAP4 DUP5 PUSH2 0x161 SLOAD AND SWAP4 PUSH1 0x40 MLOAD SWAP6 PUSH1 0x20 SWAP9 DUP2 DUP11 DUP10 ADD SWAP5 PUSH4 0x23B872DD PUSH1 0xE0 SHL DUP7 MSTORE AND PUSH1 0x24 DUP10 ADD MSTORE AND PUSH1 0x44 DUP8 ADD MSTORE PUSH1 0x64 DUP7 ADD MSTORE PUSH1 0x64 DUP6 MSTORE PUSH2 0x5673 PUSH1 0x84 DUP7 PUSH2 0x4380 JUMP JUMPDEST PUSH2 0x567C DUP8 PUSH2 0x43B8 JUMP JUMPDEST SWAP5 PUSH2 0x568A PUSH1 0x40 MLOAD SWAP7 DUP8 PUSH2 0x4380 JUMP JUMPDEST DUP8 DUP7 MSTORE PUSH32 0x5361666545524332303A206C6F772D6C6576656C2063616C6C206661696C6564 DUP9 DUP8 ADD MSTORE MLOAD SWAP1 DUP3 DUP6 GAS CALL PUSH2 0x534D PUSH2 0x478B JUMP JUMPDEST DUP1 MLOAD DUP1 PUSH2 0x56CC JUMPI POP POP POP JUMP JUMPDEST DUP2 DUP4 SWAP2 DUP2 ADD SUB SLT PUSH2 0x90C JUMPI DUP2 PUSH2 0x56E2 SWAP2 ADD PUSH2 0x4C17 JUMP JUMPDEST ISZERO PUSH2 0x56EA JUMPI POP JUMP JUMPDEST PUSH1 0x84 SWAP1 PUSH1 0x40 MLOAD SWAP1 PUSH3 0x461BCD PUSH1 0xE5 SHL DUP3 MSTORE PUSH1 0x4 DUP3 ADD MSTORE PUSH1 0x2A PUSH1 0x24 DUP3 ADD MSTORE PUSH32 0x5361666545524332303A204552433230206F7065726174696F6E20646964206E PUSH1 0x44 DUP3 ADD MSTORE PUSH10 0x1BDD081CDD58D8D95959 PUSH1 0xB2 SHL PUSH1 0x64 DUP3 ADD MSTORE REVERT JUMPDEST PUSH2 0x57A1 SWAP1 PUSH2 0x574D PUSH2 0x5B5A JUMP JUMPDEST PUSH1 0x40 MLOAD PUSH4 0xE01DCE2D PUSH1 0xE0 SHL PUSH1 0x20 DUP3 ADD MSTORE PUSH1 0x24 DUP2 ADD SWAP2 SWAP1 SWAP2 MSTORE PUSH1 0x1 PUSH1 0x1 PUSH1 0xA0 SHL SUB SWAP3 DUP4 AND PUSH1 0x44 DUP3 ADD MSTORE DUP4 DUP4 AND PUSH1 0x64 DUP3 ADD DUP2 SWAP1 MSTORE SELFBALANCE PUSH1 0x84 DUP1 DUP5 ADD SWAP2 SWAP1 SWAP2 MSTORE DUP3 MSTORE SWAP3 PUSH2 0x5797 PUSH1 0xA4 DUP4 PUSH2 0x4380 JUMP JUMPDEST PUSH2 0x21C SLOAD AND PUSH2 0x532B JUMP JUMPDEST PUSH1 0x20 DUP2 DUP1 MLOAD DUP2 ADD SUB SLT PUSH2 0x90C JUMPI PUSH1 0x20 ADD MLOAD SWAP2 PUSH2 0x12F SWAP2 PUSH1 0x2 DUP4 SLOAD EQ PUSH2 0x2F7A JUMPI PUSH1 0x2 DUP4 SSTORE DUP4 PUSH2 0x57D3 JUMPI JUMPDEST POP POP PUSH1 0x1 SWAP1 SSTORE SWAP1 JUMP JUMPDEST ISZERO PUSH2 0x2F68 JUMPI PUSH1 0x0 DUP1 DUP1 SWAP3 DUP6 PUSH1 0x40 MLOAD SWAP2 GAS CALL PUSH2 0x57EC PUSH2 0x478B JUMP JUMPDEST POP ISZERO PUSH2 0x2F56 JUMPI CODESIZE DUP1 PUSH2 0x57CA JUMP JUMPDEST SWAP3 DUP1 PUSH2 0x34E7 PUSH2 0x34ED SWAP3 DUP6 PUSH2 0x580D SWAP7 SWAP6 PUSH2 0x52EA JUMP JUMPDEST DUP2 DUP2 LT PUSH2 0x5818 JUMPI POP POP JUMP JUMPDEST PUSH1 0x44 SWAP3 POP PUSH1 0x40 MLOAD SWAP2 PUSH4 0xA5DB715D PUSH1 0xE0 SHL DUP4 MSTORE PUSH1 0x4 DUP4 ADD MSTORE PUSH1 0x24 DUP3 ADD MSTORE REVERT JUMPDEST PUSH1 0xE0 DUP2 ADD SWAP3 SWAP2 PUSH1 0xC0 SWAP1 DUP2 SWAP1 PUSH1 0x1 PUSH1 0x1 PUSH1 0xA0 SHL SUB DUP1 PUSH2 0x5853 DUP4 PUSH2 0x4250 JUMP JUMPDEST AND DUP6 MSTORE PUSH2 0x5862 PUSH1 0x20 DUP4 ADD PUSH2 0x4250 JUMP JUMPDEST AND PUSH1 0x20 DUP6 ADD MSTORE PUSH1 0x40 DUP2 ADD CALLDATALOAD PUSH1 0x40 DUP6 ADD MSTORE PUSH1 0x60 DUP2 ADD CALLDATALOAD PUSH1 0x60 DUP6 ADD MSTORE PUSH1 0x80 DUP2 ADD CALLDATALOAD PUSH1 0x80 DUP6 ADD MSTORE PUSH1 0xA0 DUP2 ADD CALLDATALOAD PUSH1 0xA0 DUP6 ADD MSTORE ADD CALLDATALOAD SWAP2 ADD MSTORE JUMP JUMPDEST PUSH2 0x17F SLOAD DUP1 NUMBER LT ISZERO PUSH2 0x58AE JUMPI PUSH2 0x4296 SWAP1 NUMBER SWAP1 PUSH2 0x4A9F JUMP JUMPDEST POP PUSH1 0x0 SWAP1 JUMP JUMPDEST SWAP1 PUSH1 0x40 MLOAD PUSH2 0x58C3 PUSH1 0x40 DUP3 PUSH2 0x4380 JUMP JUMPDEST PUSH1 0x20 PUSH1 0x1 DUP3 SWAP5 DUP1 SLOAD DUP5 MSTORE ADD SLOAD SWAP2 ADD MSTORE JUMP JUMPDEST PUSH2 0x58E0 DUP2 PUSH2 0x17A PUSH2 0x4222 JUMP JUMPDEST SWAP1 SLOAD SWAP1 PUSH1 0x3 SHL SHR SWAP2 PUSH2 0x1B4 SWAP2 PUSH2 0x58F6 DUP2 DUP5 PUSH2 0x4364 JUMP JUMPDEST POP SLOAD SWAP3 PUSH2 0x1B5 SLOAD NUMBER LT ISZERO PUSH2 0x5921 JUMPI JUMPDEST POP POP DUP1 DUP3 LT ISZERO PUSH2 0x591C JUMPI PUSH2 0x681 SWAP1 PUSH2 0x4296 SWAP4 PUSH2 0x49E1 JUMP JUMPDEST POP POP SWAP1 JUMP JUMPDEST DUP3 SWAP4 POP PUSH2 0x5935 PUSH2 0x5940 SWAP4 SWAP3 PUSH2 0x593B SWAP3 PUSH2 0x4364 JUMP JUMPDEST POP PUSH2 0x58B4 JUMP JUMPDEST PUSH2 0x5948 JUMP JUMPDEST SWAP1 CODESIZE DUP1 PUSH2 0x5905 JUMP JUMPDEST PUSH1 0x20 DUP2 MLOAD SWAP2 ADD DUP1 MLOAD SWAP3 PUSH8 0xDE0B6B3A7640000 SWAP4 DUP5 SUB SWAP1 DUP5 DUP3 GT PUSH2 0x48A4 JUMPI PUSH2 0x5975 PUSH2 0xE04 SWAP3 PUSH2 0x4901 SWAP6 PUSH2 0x49E1 JUMP JUMPDEST SWAP3 MLOAD PUSH2 0x49E1 JUMP JUMPDEST PUSH1 0x0 DUP1 PUSH2 0x169 SWAP2 DUP3 SLOAD SWAP3 PUSH2 0x598F DUP5 PUSH2 0x4AC4 JUMP JUMPDEST SWAP4 DUP3 SWAP2 JUMPDEST DUP6 DUP3 DUP5 LT PUSH2 0x59BE JUMPI POP POP POP POP DUP2 ISZERO PUSH2 0x59B2 JUMPI SWAP1 PUSH2 0x59AF SWAP2 PUSH2 0x49F4 JUMP JUMPDEST SWAP2 JUMP JUMPDEST POP POP PUSH2 0x17B SLOAD PUSH1 0x1 SHL SWAP2 JUMP JUMPDEST PUSH2 0xA71 PUSH2 0x5A29 DUP6 SWAP8 SWAP7 PUSH2 0xE04 PUSH2 0x59F8 PUSH2 0x5A20 DUP10 PUSH2 0x681 DUP10 PUSH2 0xA71 PUSH2 0x5A0A DUP5 PUSH1 0x1 SWAP14 SWAP15 SWAP16 SWAP13 PUSH2 0x59EE PUSH2 0x5A2F SWAP15 PUSH2 0x4BD0 JUMP JUMPDEST SWAP9 DUP10 SWAP8 DUP9 SWAP3 PUSH2 0x48BA JUMP JUMPDEST MSTORE PUSH2 0x5A03 DUP7 DUP3 PUSH2 0x497A JUMP JUMPDEST POP SWAP4 PUSH2 0x4364 JUMP JUMPDEST POP PUSH2 0xA71 PUSH8 0xDE0B6B3A7640000 SWAP4 DUP5 SWAP3 SLOAD PUSH2 0x4897 JUMP JUMPDEST SWAP5 DUP6 SWAP2 DUP13 PUSH2 0x58D4 JUMP JUMPDEST SWAP6 PUSH2 0x4897 JUMP JUMPDEST SWAP5 ADD SWAP2 SWAP1 PUSH2 0x5993 JUMP JUMPDEST PUSH2 0x1B5 DUP1 SLOAD NUMBER LT ISZERO PUSH2 0x5A47 JUMPI POP JUMP JUMPDEST PUSH2 0x169 SLOAD PUSH1 0x0 JUMPDEST DUP2 DUP2 LT PUSH2 0x5A61 JUMPI POP POP PUSH2 0x1B6 SLOAD NUMBER ADD SWAP1 SSTORE JUMP JUMPDEST DUP1 DUP1 PUSH32 0x19156E9379C7BBBCE8F646CE5EE30BA860B8F954717405F3D5859A6C1A21AE60 PUSH1 0x1 SWAP4 PUSH2 0x1B4 PUSH2 0x5A97 PUSH2 0x5935 DUP4 DUP4 PUSH2 0x4364 JUMP JUMPDEST SWAP1 PUSH2 0x5AB5 PUSH2 0x5AAD PUSH2 0x5AA7 DUP6 PUSH2 0x4BD0 JUMP JUMPDEST DUP5 PUSH2 0x5948 JUMP JUMPDEST SWAP4 DUP5 SWAP3 PUSH2 0x4364 JUMP JUMPDEST POP SSTORE MLOAD PUSH1 0x40 SWAP2 DUP3 MLOAD SWAP2 DUP3 MSTORE PUSH1 0x20 DUP3 ADD MSTORE LOG2 ADD PUSH2 0x5A4E JUMP JUMPDEST PUSH1 0x97 SLOAD PUSH1 0x40 MLOAD PUSH4 0xD994D6D5 PUSH1 0xE0 SHL DUP2 MSTORE CALLER PUSH1 0x4 DUP3 ADD MSTORE SWAP1 PUSH1 0x20 SWAP1 DUP3 SWAP1 PUSH1 0x24 SWAP1 DUP3 SWAP1 PUSH1 0x1 PUSH1 0x1 PUSH1 0xA0 SHL SUB AND GAS STATICCALL SWAP1 DUP2 ISZERO PUSH2 0x4E59 JUMPI PUSH1 0x0 SWAP2 PUSH2 0x5B21 JUMPI JUMPDEST POP ISZERO PUSH2 0x5B0F JUMPI JUMP JUMPDEST PUSH1 0x40 MLOAD PUSH4 0x1DD1B1B5 PUSH1 0xE2 SHL DUP2 MSTORE PUSH1 0x4 SWAP1 REVERT JUMPDEST SWAP1 PUSH1 0x20 DUP3 RETURNDATASIZE DUP3 GT PUSH2 0x5B52 JUMPI JUMPDEST DUP2 PUSH2 0x5B3A PUSH1 0x20 SWAP4 DUP4 PUSH2 0x4380 JUMP JUMPDEST DUP2 ADD SUB SLT PUSH2 0x5C2 JUMPI POP PUSH2 0x5B4C SWAP1 PUSH2 0x4C17 JUMP JUMPDEST CODESIZE PUSH2 0x5B07 JUMP JUMPDEST RETURNDATASIZE SWAP2 POP PUSH2 0x5B2D JUMP JUMPDEST PUSH1 0xFF PUSH1 0xCA SLOAD PUSH1 0x8 SHR AND PUSH2 0x5B69 JUMPI JUMP JUMPDEST PUSH1 0x40 MLOAD PUSH4 0x783BB6C9 PUSH1 0xE1 SHL DUP2 MSTORE PUSH1 0x4 SWAP1 REVERT JUMPDEST PUSH8 0xDE0B6B3A7640000 LT PUSH2 0x251F JUMPI JUMP INVALID LOG2 PUSH5 0x6970667358 0x22 SLT KECCAK256 0x2A ADDRESS PUSH1 0x96 RETURNDATASIZE CALLDATACOPY 0xD4 MSTORE 0xEC PUSH8 0x2E073767DC3EB569 SGT 0x2F 0xCE 0xE7 0xA9 DUP4 0xAE RETURNDATASIZE JUMPI PUSH2 0x2D9E PUSH22 0xFA64736F6C6343000810003300000000000000000000 "
    },
    "gasEstimates": {
      "creation": {
        "codeDepositCost": "4697800",
        "executionCost": "infinite",
        "totalCost": "infinite"
      },
      "external": {
        "addPeggedToken((address,address,uint256,uint256,uint256,uint256,uint256))": "infinite",
        "appreciationFactor()": "4925",
        "bes()": "3098",
        "bns()": "2614",
        "calcCtargemaCA()": "infinite",
        "changeGovernor(address)": "infinite",
        "editPeggedToken((address,address,uint256,uint256,uint256,uint256,uint256))": "infinite",
        "emaCalculationBlockSpan()": "3692",
        "evalLiquidation()": "infinite",
        "execSettlement()": "infinite",
        "feeRetainer()": "3142",
        "feeToken()": "3474",
        "feeTokenPct()": "2834",
        "feeTokenPriceProvider()": "4816",
        "getBts()": "4865",
        "getCglb()": "infinite",
        "getCustomMockValue()": "5469",
        "getLeverageTC()": "infinite",
        "getPACtp(uint256)": "infinite",
        "getPTCac()": "infinite",
        "getTCAvailableToRedeem()": "infinite",
        "getTPAvailableToMint(uint256)": "infinite",
        "getTotalACavailable()": "infinite",
        "governor()": "2418",
        "initialize(((address,address,address,address,address,uint256,uint256,uint256,uint256,uint256,uint256,uint256,uint256,uint256,uint256,uint256,uint256,uint256,uint256),address,address,address,uint256,address))": "infinite",
        "initializeMock()": "23391",
        "isLiquidationReached()": "infinite",
        "liqEnabled()": "4738",
        "liqRedeemTP(uint256)": "infinite",
        "liqRedeemTPto(uint256,address)": "infinite",
        "liqThrld()": "3934",
        "liquidated()": "2742",
        "makeStoppable()": "infinite",
        "makeUnstoppable()": "infinite",
        "mintTC(uint256)": "infinite",
        "mintTCViaVendor(uint256,address)": "infinite",
        "mintTCandTP(uint256,uint256)": "infinite",
        "mintTCandTPFee()": "3626",
        "mintTCandTPViaVendor(uint256,uint256,address)": "infinite",
        "mintTCandTPto(uint256,uint256,address)": "infinite",
        "mintTCandTPtoViaVendor(uint256,uint256,address,address)": "infinite",
        "mintTCto(uint256,address)": "infinite",
        "mintTCtoViaVendor(uint256,address,address)": "infinite",
        "mintTP(uint256,uint256)": "infinite",
        "mintTPViaVendor(uint256,uint256,address)": "infinite",
        "mintTPto(uint256,uint256,address)": "infinite",
        "mintTPtoViaVendor(uint256,uint256,address,address)": "infinite",
        "mocAppreciationBeneficiaryAddress()": "3144",
        "mocFeeFlowAddress()": "4112",
        "mocVendors()": "3870",
        "nACcb()": "4858",
        "nTCcb()": "3648",
        "newVariable()": "3956",
        "nextEmaCalculation()": "2416",
        "pause()": "29272",
        "paused()": "3358",
        "pauser()": "4231",
        "pegContainer(uint256)": "9587",
        "peggedTokenIndex(address)": "6430",
        "protThrld()": "3516",
        "proxiableUUID()": "infinite",
        "redeemTC(uint256,uint256)": "infinite",
        "redeemTCViaVendor(uint256,uint256,address)": "infinite",
        "redeemTCandTP(uint256,uint256,uint256,uint256)": "infinite",
        "redeemTCandTPFee()": "4880",
        "redeemTCandTPViaVendor(uint256,uint256,uint256,uint256,address)": "infinite",
        "redeemTCandTPto(uint256,uint256,uint256,uint256,address)": "infinite",
        "redeemTCandTPtoViaVendor(uint256,uint256,uint256,uint256,address,address)": "infinite",
        "redeemTCto(uint256,uint256,address)": "infinite",
        "redeemTCtoViaVendor(uint256,uint256,address,address)": "infinite",
        "redeemTP(uint256,uint256,uint256)": "infinite",
        "redeemTPViaVendor(uint256,uint256,uint256,address)": "infinite",
        "redeemTPto(uint256,uint256,uint256,address)": "infinite",
        "redeemTPtoViaVendor(uint256,uint256,uint256,address,address)": "infinite",
        "setAppreciationFactor(uint256)": "infinite",
        "setBes(uint256)": "infinite",
        "setEmaCalculationBlockSpan(uint256)": "infinite",
        "setFeeRetainer(uint256)": "infinite",
        "setFeeTokenAddress(address)": "infinite",
        "setFeeTokenPct(uint256)": "infinite",
        "setFeeTokenPriceProviderAddress(address)": "infinite",
        "setLiqEnabled(bool)": "infinite",
        "setLiqThrld(uint256)": "infinite",
        "setMintTCandTPFee(uint256)": "infinite",
        "setMocAppreciationBeneficiaryAddress(address)": "infinite",
        "setMocCoreExpansion(address)": "infinite",
        "setMocFeeFlowAddress(address)": "infinite",
        "setPauser(address)": "infinite",
        "setProtThrld(uint256)": "infinite",
        "setRedeemTCandTPFee(uint256)": "infinite",
        "setSuccessFee(uint256)": "infinite",
        "setSwapTCforTPFee(uint256)": "infinite",
        "setSwapTPforTCFee(uint256)": "infinite",
        "setSwapTPforTPFee(uint256)": "infinite",
        "setTcMintFee(uint256)": "infinite",
        "setTcRedeemFee(uint256)": "infinite",
        "shouldCalculateEma()": "4228",
        "stoppable()": "4364",
        "successFee()": "3582",
        "swapTCforTP(uint256,uint256,uint256)": "infinite",
        "swapTCforTPFee()": "2768",
        "swapTCforTPViaVendor(uint256,uint256,uint256,address)": "infinite",
        "swapTCforTPto(uint256,uint256,uint256,address)": "infinite",
        "swapTCforTPtoViaVendor(uint256,uint256,uint256,address,address)": "infinite",
        "swapTPforTC(uint256,uint256,uint256)": "infinite",
        "swapTPforTCFee()": "2878",
        "swapTPforTCViaVendor(uint256,uint256,uint256,address)": "infinite",
        "swapTPforTCto(uint256,uint256,uint256,address)": "infinite",
        "swapTPforTCtoViaVendor(uint256,uint256,uint256,address,address)": "infinite",
        "swapTPforTP(uint256,uint256,uint256,uint256)": "infinite",
        "swapTPforTPFee()": "3032",
        "swapTPforTPViaVendor(uint256,uint256,uint256,uint256,address)": "infinite",
        "swapTPforTPto(uint256,uint256,uint256,uint256,address)": "infinite",
        "swapTPforTPtoViaVendor(uint256,uint256,uint256,uint256,address,address)": "infinite",
        "tcMintFee()": "5008",
        "tcRedeemFee()": "4264",
        "tcToken()": "3452",
        "tpCtarg(uint256)": "8166",
        "tpEma(uint256)": "11194",
        "tpMintFee(uint256)": "8958",
        "tpRedeemFee(uint256)": "7572",
        "tpTokens(uint256)": "6672",
        "unpause()": "26193",
        "updateEmas()": "infinite",
        "upgradeTo(address)": "infinite",
        "upgradeToAndCall(address,bytes)": "infinite"
      }
    },
    "methodIdentifiers": {
      "addPeggedToken((address,address,uint256,uint256,uint256,uint256,uint256))": "db796072",
      "appreciationFactor()": "fa6e83bd",
      "bes()": "4d977e78",
      "bns()": "1867e2f5",
      "calcCtargemaCA()": "662013f4",
      "changeGovernor(address)": "e4c0aaf4",
      "editPeggedToken((address,address,uint256,uint256,uint256,uint256,uint256))": "f26114aa",
      "emaCalculationBlockSpan()": "7a727fe8",
      "evalLiquidation()": "33421c38",
      "execSettlement()": "5c616a73",
      "feeRetainer()": "4f0f27ee",
      "feeToken()": "647846a5",
      "feeTokenPct()": "2ded50f0",
      "feeTokenPriceProvider()": "f13f4054",
      "getBts()": "e8859a15",
      "getCglb()": "826fcd58",
      "getCustomMockValue()": "57271f4d",
      "getLeverageTC()": "c039cc69",
      "getPACtp(uint256)": "904aa85b",
      "getPTCac()": "1fb0dda0",
      "getTCAvailableToRedeem()": "4017936a",
      "getTPAvailableToMint(uint256)": "fa79589e",
      "getTotalACavailable()": "de8d520a",
      "governor()": "0c340a24",
      "initialize(((address,address,address,address,address,uint256,uint256,uint256,uint256,uint256,uint256,uint256,uint256,uint256,uint256,uint256,uint256,uint256,uint256),address,address,address,uint256,address))": "979d9a88",
      "initializeMock()": "5e2a6065",
      "isLiquidationReached()": "9ad6659d",
      "liqEnabled()": "e7c25978",
      "liqRedeemTP(uint256)": "9195c85b",
      "liqRedeemTPto(uint256,address)": "5d65d045",
      "liqThrld()": "8cfa4241",
      "liquidated()": "23b98cde",
      "makeStoppable()": "68274357",
      "makeUnstoppable()": "5210570c",
      "mintTC(uint256)": "31f64ec2",
      "mintTCViaVendor(uint256,address)": "d8233ecc",
      "mintTCandTP(uint256,uint256)": "ac4fc1a8",
      "mintTCandTPFee()": "79f9a91c",
      "mintTCandTPViaVendor(uint256,uint256,address)": "71820f12",
      "mintTCandTPto(uint256,uint256,address)": "1f79da55",
      "mintTCandTPtoViaVendor(uint256,uint256,address,address)": "ec629679",
      "mintTCto(uint256,address)": "b3903b39",
      "mintTCtoViaVendor(uint256,address,address)": "fb3bfcea",
      "mintTP(uint256,uint256)": "82a5792c",
      "mintTPViaVendor(uint256,uint256,address)": "0ad8c234",
      "mintTPto(uint256,uint256,address)": "91f388d8",
      "mintTPtoViaVendor(uint256,uint256,address,address)": "fcf207d4",
      "mocAppreciationBeneficiaryAddress()": "4e1f907a",
      "mocFeeFlowAddress()": "9853c35a",
      "mocVendors()": "7f01c715",
      "nACcb()": "f30b5614",
      "nTCcb()": "7a193c31",
      "newVariable()": "8d7a72f3",
      "nextEmaCalculation()": "0c36d897",
      "pause()": "8456cb59",
      "paused()": "5c975abb",
      "pauser()": "9fd0506d",
      "pegContainer(uint256)": "4b746001",
      "peggedTokenIndex(address)": "9cabfc00",
      "protThrld()": "6b5488df",
      "proxiableUUID()": "52d1902d",
      "redeemTC(uint256,uint256)": "9abb14c9",
      "redeemTCViaVendor(uint256,uint256,address)": "471a80e3",
      "redeemTCandTP(uint256,uint256,uint256,uint256)": "17574bc5",
      "redeemTCandTPFee()": "f375cfba",
      "redeemTCandTPViaVendor(uint256,uint256,uint256,uint256,address)": "7c287999",
      "redeemTCandTPto(uint256,uint256,uint256,uint256,address)": "9bdd7cce",
      "redeemTCandTPtoViaVendor(uint256,uint256,uint256,uint256,address,address)": "102fefac",
      "redeemTCto(uint256,uint256,address)": "e4012945",
      "redeemTCtoViaVendor(uint256,uint256,address,address)": "3dbc50a9",
      "redeemTP(uint256,uint256,uint256)": "17df0ab8",
      "redeemTPViaVendor(uint256,uint256,uint256,address)": "5e1e8928",
      "redeemTPto(uint256,uint256,uint256,address)": "54a73c62",
      "redeemTPtoViaVendor(uint256,uint256,uint256,address,address)": "bad25a21",
      "setAppreciationFactor(uint256)": "01dde6ef",
      "setBes(uint256)": "c84353c9",
      "setEmaCalculationBlockSpan(uint256)": "3bc4ac0a",
      "setFeeRetainer(uint256)": "7750ba0c",
      "setFeeTokenAddress(address)": "cf351c1d",
      "setFeeTokenPct(uint256)": "543aeb48",
      "setFeeTokenPriceProviderAddress(address)": "0f1e5e2b",
      "setLiqEnabled(bool)": "1fe6a7ad",
      "setLiqThrld(uint256)": "2c43bd3b",
      "setMintTCandTPFee(uint256)": "2069f753",
      "setMocAppreciationBeneficiaryAddress(address)": "27eab2a1",
      "setMocCoreExpansion(address)": "e6a683e0",
      "setMocFeeFlowAddress(address)": "0d6ac463",
      "setPauser(address)": "2d88af4a",
      "setProtThrld(uint256)": "7cba2383",
      "setRedeemTCandTPFee(uint256)": "7a4ff1d9",
      "setSuccessFee(uint256)": "becaca6b",
      "setSwapTCforTPFee(uint256)": "7af5758c",
      "setSwapTPforTCFee(uint256)": "0e0a8fd2",
      "setSwapTPforTPFee(uint256)": "70713468",
      "setTcMintFee(uint256)": "f2808778",
      "setTcRedeemFee(uint256)": "c00f538d",
      "shouldCalculateEma()": "a8e9ac30",
      "stoppable()": "bb4872de",
      "successFee()": "7554fffd",
      "swapTCforTP(uint256,uint256,uint256)": "9839ee85",
      "swapTCforTPFee()": "2a20d57d",
      "swapTCforTPViaVendor(uint256,uint256,uint256,address)": "be22b4e1",
      "swapTCforTPto(uint256,uint256,uint256,address)": "7dc4e77f",
      "swapTCforTPtoViaVendor(uint256,uint256,uint256,address,address)": "f5319cc8",
      "swapTPforTC(uint256,uint256,uint256)": "0df12a8b",
      "swapTPforTCFee()": "333431fd",
      "swapTPforTCViaVendor(uint256,uint256,uint256,address)": "c6e06d89",
      "swapTPforTCto(uint256,uint256,uint256,address)": "0aed4f88",
      "swapTPforTCtoViaVendor(uint256,uint256,uint256,address,address)": "04856e41",
      "swapTPforTP(uint256,uint256,uint256,uint256)": "0f60f396",
      "swapTPforTPFee()": "407f0e34",
      "swapTPforTPViaVendor(uint256,uint256,uint256,uint256,address)": "b7aef837",
      "swapTPforTPto(uint256,uint256,uint256,uint256,address)": "0be9482d",
      "swapTPforTPtoViaVendor(uint256,uint256,uint256,uint256,address,address)": "7ad2819c",
      "tcMintFee()": "fda70f8b",
      "tcRedeemFee()": "aea038dc",
      "tcToken()": "60009e0b",
      "tpCtarg(uint256)": "7d8e0314",
      "tpEma(uint256)": "e6b1627c",
      "tpMintFee(uint256)": "de08160f",
      "tpRedeemFee(uint256)": "5241271c",
      "tpTokens(uint256)": "01f1b684",
      "unpause()": "3f4ba83a",
      "updateEmas()": "d1a0faa0",
      "upgradeTo(address)": "3659cfe6",
      "upgradeToAndCall(address,bytes)": "4f1ef286"
    }
  },
  "storageLayout": {
    "storage": [
      {
        "astId": 974,
        "contract": "contracts/mocks/upgradeability/MocUpgradeMocks.sol:MocCoinbaseMock",
        "label": "_initialized",
        "offset": 0,
        "slot": "0",
        "type": "t_uint8"
      },
      {
        "astId": 977,
        "contract": "contracts/mocks/upgradeability/MocUpgradeMocks.sol:MocCoinbaseMock",
        "label": "_initializing",
        "offset": 1,
        "slot": "0",
        "type": "t_bool"
      },
      {
        "astId": 956,
        "contract": "contracts/mocks/upgradeability/MocUpgradeMocks.sol:MocCoinbaseMock",
        "label": "__gap",
        "offset": 0,
        "slot": "1",
        "type": "t_array(t_uint256)50_storage"
      },
      {
        "astId": 1271,
        "contract": "contracts/mocks/upgradeability/MocUpgradeMocks.sol:MocCoinbaseMock",
        "label": "__gap",
        "offset": 0,
        "slot": "51",
        "type": "t_array(t_uint256)50_storage"
      },
      {
        "astId": 24925,
        "contract": "contracts/mocks/upgradeability/MocUpgradeMocks.sol:MocCoinbaseMock",
        "label": "__gap",
        "offset": 0,
        "slot": "101",
        "type": "t_array(t_uint256)50_storage"
      },
      {
        "astId": 22812,
        "contract": "contracts/mocks/upgradeability/MocUpgradeMocks.sol:MocCoinbaseMock",
        "label": "governor",
        "offset": 0,
        "slot": "151",
        "type": "t_contract(IGovernor)23597"
      },
      {
        "astId": 22883,
        "contract": "contracts/mocks/upgradeability/MocUpgradeMocks.sol:MocCoinbaseMock",
        "label": "__gap",
        "offset": 0,
        "slot": "152",
        "type": "t_array(t_uint256)50_storage"
      },
      {
        "astId": 22951,
        "contract": "contracts/mocks/upgradeability/MocUpgradeMocks.sol:MocCoinbaseMock",
        "label": "stoppable",
        "offset": 0,
        "slot": "202",
        "type": "t_bool"
      },
      {
        "astId": 22953,
        "contract": "contracts/mocks/upgradeability/MocUpgradeMocks.sol:MocCoinbaseMock",
        "label": "_paused",
        "offset": 1,
        "slot": "202",
        "type": "t_bool"
      },
      {
        "astId": 22955,
        "contract": "contracts/mocks/upgradeability/MocUpgradeMocks.sol:MocCoinbaseMock",
        "label": "pauser",
        "offset": 2,
        "slot": "202",
        "type": "t_address"
      },
      {
        "astId": 23114,
        "contract": "contracts/mocks/upgradeability/MocUpgradeMocks.sol:MocCoinbaseMock",
        "label": "__gap",
        "offset": 0,
        "slot": "203",
        "type": "t_array(t_uint256)50_storage"
      },
      {
        "astId": 22933,
        "contract": "contracts/mocks/upgradeability/MocUpgradeMocks.sol:MocCoinbaseMock",
        "label": "__gap",
        "offset": 0,
        "slot": "253",
        "type": "t_array(t_uint256)50_storage"
      },
      {
        "astId": 1413,
        "contract": "contracts/mocks/upgradeability/MocUpgradeMocks.sol:MocCoinbaseMock",
        "label": "_status",
        "offset": 0,
        "slot": "303",
        "type": "t_uint256"
      },
      {
        "astId": 1471,
        "contract": "contracts/mocks/upgradeability/MocUpgradeMocks.sol:MocCoinbaseMock",
        "label": "__gap",
        "offset": 0,
        "slot": "304",
        "type": "t_array(t_uint256)49_storage"
      },
      {
        "astId": 14508,
        "contract": "contracts/mocks/upgradeability/MocUpgradeMocks.sol:MocCoinbaseMock",
        "label": "feeToken",
        "offset": 0,
        "slot": "353",
        "type": "t_contract(IERC20)5864"
      },
      {
        "astId": 14511,
        "contract": "contracts/mocks/upgradeability/MocUpgradeMocks.sol:MocCoinbaseMock",
        "label": "feeTokenPriceProvider",
        "offset": 0,
        "slot": "354",
        "type": "t_contract(IPriceProvider)23635"
      },
      {
        "astId": 14513,
        "contract": "contracts/mocks/upgradeability/MocUpgradeMocks.sol:MocCoinbaseMock",
        "label": "nACcb",
        "offset": 0,
        "slot": "355",
        "type": "t_uint256"
      },
      {
        "astId": 14515,
        "contract": "contracts/mocks/upgradeability/MocUpgradeMocks.sol:MocCoinbaseMock",
        "label": "nACioucb",
        "offset": 0,
        "slot": "356",
        "type": "t_uint256"
      },
      {
        "astId": 14518,
        "contract": "contracts/mocks/upgradeability/MocUpgradeMocks.sol:MocCoinbaseMock",
        "label": "tcToken",
        "offset": 0,
        "slot": "357",
        "type": "t_contract(MocTC)24830"
      },
      {
        "astId": 14520,
        "contract": "contracts/mocks/upgradeability/MocUpgradeMocks.sol:MocCoinbaseMock",
        "label": "nTCcb",
        "offset": 0,
        "slot": "358",
        "type": "t_uint256"
      },
      {
        "astId": 14524,
        "contract": "contracts/mocks/upgradeability/MocUpgradeMocks.sol:MocCoinbaseMock",
        "label": "tpTokens",
        "offset": 0,
        "slot": "359",
        "type": "t_array(t_contract(IMocRC20)23623)dyn_storage"
      },
      {
        "astId": 14529,
        "contract": "contracts/mocks/upgradeability/MocUpgradeMocks.sol:MocCoinbaseMock",
        "label": "peggedTokenIndex",
        "offset": 0,
        "slot": "360",
        "type": "t_mapping(t_address,t_struct(PeggedTokenIndex)14466_storage)"
      },
      {
        "astId": 14533,
        "contract": "contracts/mocks/upgradeability/MocUpgradeMocks.sol:MocCoinbaseMock",
        "label": "pegContainer",
        "offset": 0,
        "slot": "361",
        "type": "t_array(t_struct(PegContainerItem)14461_storage)dyn_storage"
      },
      {
        "astId": 14536,
        "contract": "contracts/mocks/upgradeability/MocUpgradeMocks.sol:MocCoinbaseMock",
        "label": "tpLiqPrices",
        "offset": 0,
        "slot": "362",
        "type": "t_array(t_uint256)dyn_storage"
      },
      {
        "astId": 14538,
        "contract": "contracts/mocks/upgradeability/MocUpgradeMocks.sol:MocCoinbaseMock",
        "label": "successFee",
        "offset": 0,
        "slot": "363",
        "type": "t_uint256"
      },
      {
        "astId": 14540,
        "contract": "contracts/mocks/upgradeability/MocUpgradeMocks.sol:MocCoinbaseMock",
        "label": "appreciationFactor",
        "offset": 0,
        "slot": "364",
        "type": "t_uint256"
      },
      {
        "astId": 14542,
        "contract": "contracts/mocks/upgradeability/MocUpgradeMocks.sol:MocCoinbaseMock",
        "label": "feeRetainer",
        "offset": 0,
        "slot": "365",
        "type": "t_uint256"
      },
      {
        "astId": 14544,
        "contract": "contracts/mocks/upgradeability/MocUpgradeMocks.sol:MocCoinbaseMock",
        "label": "tcMintFee",
        "offset": 0,
        "slot": "366",
        "type": "t_uint256"
      },
      {
        "astId": 14546,
        "contract": "contracts/mocks/upgradeability/MocUpgradeMocks.sol:MocCoinbaseMock",
        "label": "tcRedeemFee",
        "offset": 0,
        "slot": "367",
        "type": "t_uint256"
      },
      {
        "astId": 14548,
        "contract": "contracts/mocks/upgradeability/MocUpgradeMocks.sol:MocCoinbaseMock",
        "label": "swapTPforTPFee",
        "offset": 0,
        "slot": "368",
        "type": "t_uint256"
      },
      {
        "astId": 14550,
        "contract": "contracts/mocks/upgradeability/MocUpgradeMocks.sol:MocCoinbaseMock",
        "label": "swapTPforTCFee",
        "offset": 0,
        "slot": "369",
        "type": "t_uint256"
      },
      {
        "astId": 14552,
        "contract": "contracts/mocks/upgradeability/MocUpgradeMocks.sol:MocCoinbaseMock",
        "label": "swapTCforTPFee",
        "offset": 0,
        "slot": "370",
        "type": "t_uint256"
      },
      {
        "astId": 14554,
        "contract": "contracts/mocks/upgradeability/MocUpgradeMocks.sol:MocCoinbaseMock",
        "label": "redeemTCandTPFee",
        "offset": 0,
        "slot": "371",
        "type": "t_uint256"
      },
      {
        "astId": 14556,
        "contract": "contracts/mocks/upgradeability/MocUpgradeMocks.sol:MocCoinbaseMock",
        "label": "mintTCandTPFee",
        "offset": 0,
        "slot": "372",
        "type": "t_uint256"
      },
      {
        "astId": 14558,
        "contract": "contracts/mocks/upgradeability/MocUpgradeMocks.sol:MocCoinbaseMock",
        "label": "feeTokenPct",
        "offset": 0,
        "slot": "373",
        "type": "t_uint256"
      },
      {
        "astId": 14561,
        "contract": "contracts/mocks/upgradeability/MocUpgradeMocks.sol:MocCoinbaseMock",
        "label": "tpMintFee",
        "offset": 0,
        "slot": "374",
        "type": "t_array(t_uint256)dyn_storage"
      },
      {
        "astId": 14564,
        "contract": "contracts/mocks/upgradeability/MocUpgradeMocks.sol:MocCoinbaseMock",
        "label": "tpRedeemFee",
        "offset": 0,
        "slot": "375",
        "type": "t_array(t_uint256)dyn_storage"
      },
      {
        "astId": 14566,
        "contract": "contracts/mocks/upgradeability/MocUpgradeMocks.sol:MocCoinbaseMock",
        "label": "mocFeeFlowAddress",
        "offset": 0,
        "slot": "376",
        "type": "t_address"
      },
      {
        "astId": 14568,
        "contract": "contracts/mocks/upgradeability/MocUpgradeMocks.sol:MocCoinbaseMock",
        "label": "mocAppreciationBeneficiaryAddress",
        "offset": 0,
        "slot": "377",
        "type": "t_address"
      },
      {
        "astId": 14571,
        "contract": "contracts/mocks/upgradeability/MocUpgradeMocks.sol:MocCoinbaseMock",
        "label": "tpCtarg",
        "offset": 0,
        "slot": "378",
        "type": "t_array(t_uint256)dyn_storage"
      },
      {
        "astId": 14573,
        "contract": "contracts/mocks/upgradeability/MocUpgradeMocks.sol:MocCoinbaseMock",
        "label": "protThrld",
        "offset": 0,
        "slot": "379",
        "type": "t_uint256"
      },
      {
        "astId": 14575,
        "contract": "contracts/mocks/upgradeability/MocUpgradeMocks.sol:MocCoinbaseMock",
        "label": "liqThrld",
        "offset": 0,
        "slot": "380",
        "type": "t_uint256"
      },
      {
        "astId": 14577,
        "contract": "contracts/mocks/upgradeability/MocUpgradeMocks.sol:MocCoinbaseMock",
        "label": "liqEnabled",
        "offset": 0,
        "slot": "381",
        "type": "t_bool"
      },
      {
        "astId": 14579,
        "contract": "contracts/mocks/upgradeability/MocUpgradeMocks.sol:MocCoinbaseMock",
        "label": "liquidated",
        "offset": 1,
        "slot": "381",
        "type": "t_bool"
      },
      {
        "astId": 14581,
        "contract": "contracts/mocks/upgradeability/MocUpgradeMocks.sol:MocCoinbaseMock",
        "label": "bes",
        "offset": 0,
        "slot": "382",
        "type": "t_uint256"
      },
      {
        "astId": 14583,
        "contract": "contracts/mocks/upgradeability/MocUpgradeMocks.sol:MocCoinbaseMock",
        "label": "bns",
        "offset": 0,
        "slot": "383",
        "type": "t_uint256"
      },
      {
        "astId": 14586,
        "contract": "contracts/mocks/upgradeability/MocUpgradeMocks.sol:MocCoinbaseMock",
        "label": "tpiou",
        "offset": 0,
        "slot": "384",
        "type": "t_array(t_int256)dyn_storage"
      },
      {
        "astId": 14589,
        "contract": "contracts/mocks/upgradeability/MocUpgradeMocks.sol:MocCoinbaseMock",
        "label": "pACtpLstop",
        "offset": 0,
        "slot": "385",
        "type": "t_array(t_uint256)dyn_storage"
      },
      {
        "astId": 15912,
        "contract": "contracts/mocks/upgradeability/MocUpgradeMocks.sol:MocCoinbaseMock",
        "label": "__gap",
        "offset": 0,
        "slot": "386",
        "type": "t_array(t_uint256)50_storage"
      },
      {
        "astId": 19728,
        "contract": "contracts/mocks/upgradeability/MocUpgradeMocks.sol:MocCoinbaseMock",
        "label": "tpEma",
        "offset": 0,
        "slot": "436",
        "type": "t_array(t_struct(EmaItem)19724_storage)dyn_storage"
      },
      {
        "astId": 19730,
        "contract": "contracts/mocks/upgradeability/MocUpgradeMocks.sol:MocCoinbaseMock",
        "label": "nextEmaCalculation",
        "offset": 0,
        "slot": "437",
        "type": "t_uint256"
      },
      {
        "astId": 19732,
        "contract": "contracts/mocks/upgradeability/MocUpgradeMocks.sol:MocCoinbaseMock",
        "label": "emaCalculationBlockSpan",
        "offset": 0,
        "slot": "438",
        "type": "t_uint256"
      },
      {
        "astId": 20104,
        "contract": "contracts/mocks/upgradeability/MocUpgradeMocks.sol:MocCoinbaseMock",
        "label": "__gap",
        "offset": 0,
        "slot": "439",
        "type": "t_array(t_uint256)50_storage"
      },
      {
        "astId": 15940,
        "contract": "contracts/mocks/upgradeability/MocUpgradeMocks.sol:MocCoinbaseMock",
        "label": "mocVendors",
        "offset": 0,
        "slot": "489",
        "type": "t_contract(MocVendors)25146"
      },
      {
        "astId": 16290,
        "contract": "contracts/mocks/upgradeability/MocUpgradeMocks.sol:MocCoinbaseMock",
        "label": "__gap",
        "offset": 0,
        "slot": "490",
        "type": "t_array(t_uint256)50_storage"
      },
      {
        "astId": 16498,
        "contract": "contracts/mocks/upgradeability/MocUpgradeMocks.sol:MocCoinbaseMock",
        "label": "mocCoreExpansion",
        "offset": 0,
        "slot": "540",
        "type": "t_address"
      },
      {
        "astId": 19183,
        "contract": "contracts/mocks/upgradeability/MocUpgradeMocks.sol:MocCoinbaseMock",
        "label": "__gap",
        "offset": 0,
        "slot": "541",
        "type": "t_array(t_uint256)50_storage"
      },
      {
        "astId": 9936,
        "contract": "contracts/mocks/upgradeability/MocUpgradeMocks.sol:MocCoinbaseMock",
        "label": "__gap",
        "offset": 0,
        "slot": "591",
        "type": "t_array(t_uint256)50_storage"
      },
      {
        "astId": 24453,
        "contract": "contracts/mocks/upgradeability/MocUpgradeMocks.sol:MocCoinbaseMock",
        "label": "newVariable",
        "offset": 0,
        "slot": "641",
        "type": "t_uint256"
      }
    ],
    "types": {
      "t_address": {
        "encoding": "inplace",
        "label": "address",
        "numberOfBytes": "20"
      },
      "t_array(t_contract(IMocRC20)23623)dyn_storage": {
        "base": "t_contract(IMocRC20)23623",
        "encoding": "dynamic_array",
        "label": "contract IMocRC20[]",
        "numberOfBytes": "32"
      },
      "t_array(t_int256)dyn_storage": {
        "base": "t_int256",
        "encoding": "dynamic_array",
        "label": "int256[]",
        "numberOfBytes": "32"
      },
      "t_array(t_struct(EmaItem)19724_storage)dyn_storage": {
        "base": "t_struct(EmaItem)19724_storage",
        "encoding": "dynamic_array",
        "label": "struct MocEma.EmaItem[]",
        "numberOfBytes": "32"
      },
      "t_array(t_struct(PegContainerItem)14461_storage)dyn_storage": {
        "base": "t_struct(PegContainerItem)14461_storage",
        "encoding": "dynamic_array",
        "label": "struct MocBaseBucket.PegContainerItem[]",
        "numberOfBytes": "32"
      },
      "t_array(t_uint256)49_storage": {
        "base": "t_uint256",
        "encoding": "inplace",
        "label": "uint256[49]",
        "numberOfBytes": "1568"
      },
      "t_array(t_uint256)50_storage": {
        "base": "t_uint256",
        "encoding": "inplace",
        "label": "uint256[50]",
        "numberOfBytes": "1600"
      },
      "t_array(t_uint256)dyn_storage": {
        "base": "t_uint256",
        "encoding": "dynamic_array",
        "label": "uint256[]",
        "numberOfBytes": "32"
      },
      "t_bool": {
        "encoding": "inplace",
        "label": "bool",
        "numberOfBytes": "1"
      },
      "t_contract(IERC20)5864": {
        "encoding": "inplace",
        "label": "contract IERC20",
        "numberOfBytes": "20"
      },
      "t_contract(IGovernor)23597": {
        "encoding": "inplace",
        "label": "contract IGovernor",
        "numberOfBytes": "20"
      },
      "t_contract(IMocRC20)23623": {
        "encoding": "inplace",
        "label": "contract IMocRC20",
        "numberOfBytes": "20"
      },
      "t_contract(IPriceProvider)23635": {
        "encoding": "inplace",
        "label": "contract IPriceProvider",
        "numberOfBytes": "20"
      },
      "t_contract(MocTC)24830": {
        "encoding": "inplace",
        "label": "contract MocTC",
        "numberOfBytes": "20"
      },
      "t_contract(MocVendors)25146": {
        "encoding": "inplace",
        "label": "contract MocVendors",
        "numberOfBytes": "20"
      },
      "t_int256": {
        "encoding": "inplace",
        "label": "int256",
        "numberOfBytes": "32"
      },
      "t_mapping(t_address,t_struct(PeggedTokenIndex)14466_storage)": {
        "encoding": "mapping",
        "key": "t_address",
        "label": "mapping(address => struct MocBaseBucket.PeggedTokenIndex)",
        "numberOfBytes": "32",
        "value": "t_struct(PeggedTokenIndex)14466_storage"
      },
      "t_struct(EmaItem)19724_storage": {
        "encoding": "inplace",
        "label": "struct MocEma.EmaItem",
        "members": [
          {
            "astId": 19721,
            "contract": "contracts/mocks/upgradeability/MocUpgradeMocks.sol:MocCoinbaseMock",
            "label": "ema",
            "offset": 0,
            "slot": "0",
            "type": "t_uint256"
          },
          {
            "astId": 19723,
            "contract": "contracts/mocks/upgradeability/MocUpgradeMocks.sol:MocCoinbaseMock",
            "label": "sf",
            "offset": 0,
            "slot": "1",
            "type": "t_uint256"
          }
        ],
        "numberOfBytes": "64"
      },
      "t_struct(PegContainerItem)14461_storage": {
        "encoding": "inplace",
        "label": "struct MocBaseBucket.PegContainerItem",
        "members": [
          {
            "astId": 14457,
            "contract": "contracts/mocks/upgradeability/MocUpgradeMocks.sol:MocCoinbaseMock",
            "label": "nTP",
            "offset": 0,
            "slot": "0",
            "type": "t_uint256"
          },
          {
            "astId": 14460,
            "contract": "contracts/mocks/upgradeability/MocUpgradeMocks.sol:MocCoinbaseMock",
            "label": "priceProvider",
            "offset": 0,
            "slot": "1",
            "type": "t_contract(IPriceProvider)23635"
          }
        ],
        "numberOfBytes": "64"
      },
      "t_struct(PeggedTokenIndex)14466_storage": {
        "encoding": "inplace",
        "label": "struct MocBaseBucket.PeggedTokenIndex",
        "members": [
          {
            "astId": 14463,
            "contract": "contracts/mocks/upgradeability/MocUpgradeMocks.sol:MocCoinbaseMock",
            "label": "index",
            "offset": 0,
            "slot": "0",
            "type": "t_uint256"
          },
          {
            "astId": 14465,
            "contract": "contracts/mocks/upgradeability/MocUpgradeMocks.sol:MocCoinbaseMock",
            "label": "exists",
            "offset": 0,
            "slot": "1",
            "type": "t_bool"
          }
        ],
        "numberOfBytes": "64"
      },
      "t_uint256": {
        "encoding": "inplace",
        "label": "uint256",
        "numberOfBytes": "32"
      },
      "t_uint8": {
        "encoding": "inplace",
        "label": "uint8",
        "numberOfBytes": "1"
      }
    }
  },
  "userdoc": {
    "kind": "user",
    "methods": {
      "addPeggedToken((address,address,uint256,uint256,uint256,uint256,uint256))": {
        "notice": "add a Pegged Token to the protocol"
      },
      "calcCtargemaCA()": {
        "notice": "calculates target coverage adjusted by all Pegged Token's to Collateral Asset rate moving average"
      },
      "changeGovernor(address)": {
        "notice": "Change the contract's governor. Should be called through the old governance system"
      },
      "editPeggedToken((address,address,uint256,uint256,uint256,uint256,uint256))": {
        "notice": "modifies a Pegged Token of the protocol"
      },
      "evalLiquidation()": {
        "notice": "evaluates if liquidation threshold has been reached and liq is Enabled. If so forces contracts liquidation, blocking all mint & redeem operations. May emit a {ContractLiquidated} event."
      },
      "execSettlement()": {
        "notice": "this function is executed during settlement.  stores amount of locked AC by Pegged Tokens at this moment and distribute success fee"
      },
      "getBts()": {
        "notice": "get the number of blocks remaining for settlement"
      },
      "getCglb()": {
        "notice": "get bucket global coverage"
      },
      "getLeverageTC()": {
        "notice": "get Collateral Token leverage"
      },
      "getPACtp(uint256)": {
        "notice": "get how many Pegged Token equal 1 Collateral Asset"
      },
      "getPTCac()": {
        "notice": "get Collateral Token price"
      },
      "getTCAvailableToRedeem()": {
        "notice": "get amount of Collateral Token available to redeem"
      },
      "getTPAvailableToMint(uint256)": {
        "notice": "get amount of Pegged Token available to mint"
      },
      "getTotalACavailable()": {
        "notice": "get total Collateral Asset available"
      },
      "governor()": {
        "notice": "The address of the contract which governs this one"
      },
      "initialize(((address,address,address,address,address,uint256,uint256,uint256,uint256,uint256,uint256,uint256,uint256,uint256,uint256,uint256,uint256,uint256,uint256),address,address,address,uint256,address))": {
        "notice": "contract initializer"
      },
      "isLiquidationReached()": {
        "notice": "If liquidation is enabled, verifies if forced liquidation has been reached, checking if globalCoverage <= liquidation"
      },
      "liqRedeemTP(uint256)": {
        "notice": "Allow redeem on liquidation state, user Peg balance gets burned and he receives the equivalent AC given the liquidation frozen price."
      },
      "liqRedeemTPto(uint256,address)": {
        "notice": "Allow redeem on liquidation state, user Peg balance gets burned and he receives the equivalent AC given the liquidation frozen price."
      },
      "makeStoppable()": {
        "notice": "Switches ON the stoppability of the contract; if the contract was paused before making it unstoppable it will be paused again after calling this function"
      },
      "makeUnstoppable()": {
        "notice": "Switches OFF the stoppability of the contract; if the contract was paused it will no longer be so"
      },
      "mintTC(uint256)": {
        "notice": "caller sends coinbase as Collateral Asset and receives Collateral Token"
      },
      "mintTCViaVendor(uint256,address)": {
        "notice": "caller sends coinbase as Collateral Asset and receives Collateral Token  `vendor_` receives a markup in Fee Token if possible or in qAC if not"
      },
      "mintTCandTP(uint256,uint256)": {
        "notice": "caller sends coinbase as Collateral Asset and receives Collateral Token and Pegged Token  This operation is done without checking coverage  Collateral Token and Pegged Token are minted in equivalent proportions so that its price  and global coverage are not modified.  Reverts if qAC sent are insufficient."
      },
      "mintTCandTPViaVendor(uint256,uint256,address)": {
        "notice": "caller sends coinbase as Collateral Asset and receives Collateral Token and Pegged Token  `vendor_` receives a markup in Fee Token if possible or in qAC if not  This operation is done without checking coverage  Collateral Token and Pegged Token are minted in equivalent proportions so that its price  and global coverage are not modified.  Reverts if qAC sent are insufficient."
      },
      "mintTCandTPto(uint256,uint256,address)": {
        "notice": "caller sends coinbase as Collateral Asset and recipient receives Collateral Token and Pegged Token  This operation is done without checking coverage  Collateral Token and Pegged Token are minted in equivalent proportions so that its price  and global coverage are not modified.  Reverts if qAC sent are insufficient."
      },
      "mintTCandTPtoViaVendor(uint256,uint256,address,address)": {
        "notice": "caller sends coinbase as Collateral Asset and recipient receives Collateral Token and Pegged Token  `vendor_` receives a markup in Fee Token if possible or in qAC if not  This operation is done without checking coverage  Collateral Token and Pegged Token are minted in equivalent proportions so that its price  and global coverage are not modified.  Reverts if qAC sent are insufficient."
      },
      "mintTCto(uint256,address)": {
        "notice": "caller sends coinbase as Collateral Asset and recipient receives Collateral Token"
      },
      "mintTCtoViaVendor(uint256,address,address)": {
        "notice": "caller sends coinbase as Collateral Asset and recipient receives Collateral Token  `vendor_` receives a markup in Fee Token if possible or in qAC if not"
      },
      "mintTP(uint256,uint256)": {
        "notice": "caller sends coinbase as Collateral Asset and receives Pegged Token"
      },
      "mintTPViaVendor(uint256,uint256,address)": {
        "notice": "caller sends coinbase as Collateral Asset and receives Pegged Token  `vendor_` receives a markup in Fee Token if possible or in qAC if not"
      },
      "mintTPto(uint256,uint256,address)": {
        "notice": "caller sends coinbase as Collateral Asset and recipient receives Pegged Token"
      },
      "mintTPtoViaVendor(uint256,uint256,address,address)": {
        "notice": "caller sends coinbase as Collateral Asset and recipient receives Pegged Token  `vendor_` receives a markup in Fee Token if possible or in qAC if not"
      },
      "pause()": {
        "notice": "Called by the owner to pause, triggers stopped state"
      },
      "paused()": {
        "notice": "Returns true if paused"
      },
      "redeemTC(uint256,uint256)": {
        "notice": "caller sends Collateral Token and receives Collateral Asset"
      },
      "redeemTCViaVendor(uint256,uint256,address)": {
        "notice": "caller sends Collateral Token and receives Collateral Asset  `vendor_` receives a markup in Fee Token if possible or in qAC if not"
      },
      "redeemTCandTP(uint256,uint256,uint256,uint256)": {
        "notice": "caller sends Collateral Token and Pegged Token and receives coinbase as Collateral Asset  This operation is done without checking coverage  Collateral Token and Pegged Token are redeemed in equivalent proportions so that its price  and global coverage are not modified.  Reverts if qTP sent are insufficient."
      },
      "redeemTCandTPViaVendor(uint256,uint256,uint256,uint256,address)": {
        "notice": "caller sends Collateral Token and Pegged Token and receives coinbase as Collateral Asset  `vendor_` receives a markup in Fee Token if possible or in qAC if not  This operation is done without checking coverage  Collateral Token and Pegged Token are redeemed in equivalent proportions so that its price  and global coverage are not modified.  Reverts if qTP sent are insufficient."
      },
      "redeemTCandTPto(uint256,uint256,uint256,uint256,address)": {
        "notice": "caller sends Collateral Token and Pegged Token and recipient receives Collateral Asset  This operation is done without checking coverage  Collateral Token and Pegged Token are redeemed in equivalent proportions so that its price  and global coverage are not modified.  Reverts if qTP sent are insufficient."
      },
      "redeemTCandTPtoViaVendor(uint256,uint256,uint256,uint256,address,address)": {
        "notice": "caller sends Collateral Token and Pegged Token and recipient receives Collateral Asset  `vendor_` receives a markup in Fee Token if possible or in qAC if not  This operation is done without checking coverage  Collateral Token and Pegged Token are redeemed in equivalent proportions so that its price  and global coverage are not modified.  Reverts if qTP sent are insufficient."
      },
      "redeemTCto(uint256,uint256,address)": {
        "notice": "caller sends Collateral Token and recipient receives Collateral Asset"
      },
      "redeemTCtoViaVendor(uint256,uint256,address,address)": {
        "notice": "caller sends Collateral Token and recipient receives Collateral Asset  `vendor_` receives a markup in Fee Token if possible or in qAC if not"
      },
      "redeemTP(uint256,uint256,uint256)": {
        "notice": "caller sends Pegged Token and receives Collateral Asset"
      },
      "redeemTPViaVendor(uint256,uint256,uint256,address)": {
        "notice": "caller sends Pegged Token and receives Collateral Asset  `vendor_` receives a markup in Fee Token if possible or in qAC if not"
      },
      "redeemTPto(uint256,uint256,uint256,address)": {
        "notice": "caller sends Pegged Token and recipient receives Collateral Asset"
      },
      "redeemTPtoViaVendor(uint256,uint256,uint256,address,address)": {
        "notice": "caller sends Pegged Token and recipient receives Collateral Asset  `vendor_` receives a markup in Fee Token if possible or in qAC if not"
      },
      "setPauser(address)": {
        "notice": "Changes the address which is enable to pause this contract"
      },
      "shouldCalculateEma()": {
        "notice": "true if the necessary span has pass since last ema update"
      },
      "swapTCforTP(uint256,uint256,uint256)": {
        "notice": "caller sends Collateral Token and receives Pegged Token"
      },
      "swapTCforTPViaVendor(uint256,uint256,uint256,address)": {
        "notice": "caller sends Collateral Token and receives Pegged Token  `vendor_` receives a markup in Fee Token if possible or in qAC if not"
      },
      "swapTCforTPto(uint256,uint256,uint256,address)": {
        "notice": "caller sends Collateral Token and recipient receives Pegged Token"
      },
      "swapTCforTPtoViaVendor(uint256,uint256,uint256,address,address)": {
        "notice": "caller sends Collateral Token and recipient receives Pegged Token  `vendor_` receives a markup in Fee Token if possible or in qAC if not"
      },
      "swapTPforTC(uint256,uint256,uint256)": {
        "notice": "caller sends a Pegged Token and receives Collateral Token"
      },
      "swapTPforTCViaVendor(uint256,uint256,uint256,address)": {
        "notice": "caller sends a Pegged Token and receives Collateral Token  `vendor_` receives a markup in Fee Token if possible or in qAC if not"
      },
      "swapTPforTCto(uint256,uint256,uint256,address)": {
        "notice": "caller sends a Pegged Token and recipient receives Collateral Token"
      },
      "swapTPforTCtoViaVendor(uint256,uint256,uint256,address,address)": {
        "notice": "caller sends a Pegged Token and recipient receives Collateral Token  `vendor_` receives a markup in Fee Token if possible or in qAC if not"
      },
      "swapTPforTP(uint256,uint256,uint256,uint256)": {
        "notice": "caller sends a Pegged Token and receives another one"
      },
      "swapTPforTPViaVendor(uint256,uint256,uint256,uint256,address)": {
        "notice": "caller sends a Pegged Token and receives another one  `vendor_` receives a markup in Fee Token if possible or in qAC if not"
      },
      "swapTPforTPto(uint256,uint256,uint256,uint256,address)": {
        "notice": "caller sends a Pegged Token and recipient receives another one"
      },
      "swapTPforTPtoViaVendor(uint256,uint256,uint256,uint256,address,address)": {
        "notice": "caller sends a Pegged Token and recipient receives another one  `vendor_` receives a markup in Fee Token if possible or in qAC if not"
      },
      "unpause()": {
        "notice": "Called by the owner to unpause, returns to normal state"
      },
      "updateEmas()": {
        "notice": "If time, calculates the EMA for all the Pegged Token prices."
      }
    },
    "version": 1
  }
}