{
  "contractName": "MocCARC20Mock",
  "sourceName": "contracts/mocks/upgradeability/MocUpgradeMocks.sol",
  "abi": [
    {
      "inputs": [
        {
          "internalType": "uint256",
          "name": "qACsent_",
          "type": "uint256"
        },
        {
          "internalType": "uint256",
          "name": "qACNeeded_",
          "type": "uint256"
        }
      ],
      "name": "InsufficientQacSent",
      "type": "error"
    },
    {
      "inputs": [
        {
          "internalType": "uint256",
          "name": "qTPsent_",
          "type": "uint256"
        },
        {
          "internalType": "uint256",
          "name": "qTPNeeded_",
          "type": "uint256"
        }
      ],
      "name": "InsufficientQtpSent",
      "type": "error"
    },
    {
      "inputs": [
        {
          "internalType": "uint256",
          "name": "qTC_",
          "type": "uint256"
        },
        {
          "internalType": "uint256",
          "name": "tcAvailableToRedeem_",
          "type": "uint256"
        }
      ],
      "name": "InsufficientTCtoRedeem",
      "type": "error"
    },
    {
      "inputs": [
        {
          "internalType": "uint256",
          "name": "qTP_",
          "type": "uint256"
        },
        {
          "internalType": "uint256",
          "name": "tpAvailableToMint_",
          "type": "uint256"
        }
      ],
      "name": "InsufficientTPtoMint",
      "type": "error"
    },
    {
      "inputs": [
        {
          "internalType": "uint256",
          "name": "qTP_",
          "type": "uint256"
        },
        {
          "internalType": "uint256",
          "name": "tpAvailableToRedeem_",
          "type": "uint256"
        }
      ],
      "name": "InsufficientTPtoRedeem",
      "type": "error"
    },
    {
      "inputs": [],
      "name": "InvalidAddress",
      "type": "error"
    },
    {
      "inputs": [
        {
          "internalType": "address",
          "name": "priceProviderAddress_",
          "type": "address"
        }
      ],
      "name": "InvalidPriceProvider",
      "type": "error"
    },
    {
      "inputs": [],
      "name": "InvalidValue",
      "type": "error"
    },
    {
      "inputs": [],
      "name": "Liquidated",
      "type": "error"
    },
    {
      "inputs": [
        {
          "internalType": "uint256",
          "name": "cglb_",
          "type": "uint256"
        },
        {
          "internalType": "uint256",
          "name": "covThrld_",
          "type": "uint256"
        }
      ],
      "name": "LowCoverage",
      "type": "error"
    },
    {
      "inputs": [],
      "name": "NotAuthorizedChanger",
      "type": "error"
    },
    {
      "inputs": [],
      "name": "NotWhenPaused",
      "type": "error"
    },
    {
      "inputs": [],
      "name": "OnlyPauser",
      "type": "error"
    },
    {
      "inputs": [],
      "name": "OnlySettlement",
      "type": "error"
    },
    {
      "inputs": [],
      "name": "OnlyWhenLiquidated",
      "type": "error"
    },
    {
      "inputs": [],
      "name": "OnlyWhilePaused",
      "type": "error"
    },
    {
      "inputs": [],
      "name": "PeggedTokenAlreadyAdded",
      "type": "error"
    },
    {
      "inputs": [
        {
          "internalType": "uint256",
          "name": "qACmin_",
          "type": "uint256"
        },
        {
          "internalType": "uint256",
          "name": "qACtoRedeem_",
          "type": "uint256"
        }
      ],
      "name": "QacBelowMinimumRequired",
      "type": "error"
    },
    {
      "inputs": [],
      "name": "QacNeededMustBeGreaterThanZero",
      "type": "error"
    },
    {
      "inputs": [
        {
          "internalType": "uint256",
          "name": "qTCmin_",
          "type": "uint256"
        },
        {
          "internalType": "uint256",
          "name": "qTC_",
          "type": "uint256"
        }
      ],
      "name": "QtcBelowMinimumRequired",
      "type": "error"
    },
    {
      "inputs": [
        {
          "internalType": "uint256",
          "name": "qTPmin_",
          "type": "uint256"
        },
        {
          "internalType": "uint256",
          "name": "qTP_",
          "type": "uint256"
        }
      ],
      "name": "QtpBelowMinimumRequired",
      "type": "error"
    },
    {
      "inputs": [],
      "name": "TransferFailed",
      "type": "error"
    },
    {
      "inputs": [],
      "name": "Unstoppable",
      "type": "error"
    },
    {
      "anonymous": false,
      "inputs": [
        {
          "indexed": false,
          "internalType": "address",
          "name": "previousAdmin",
          "type": "address"
        },
        {
          "indexed": false,
          "internalType": "address",
          "name": "newAdmin",
          "type": "address"
        }
      ],
      "name": "AdminChanged",
      "type": "event"
    },
    {
      "anonymous": false,
      "inputs": [
        {
          "indexed": true,
          "internalType": "address",
          "name": "beacon",
          "type": "address"
        }
      ],
      "name": "BeaconUpgraded",
      "type": "event"
    },
    {
      "anonymous": false,
      "inputs": [],
      "name": "ContractLiquidated",
      "type": "event"
    },
    {
      "anonymous": false,
      "inputs": [
        {
          "indexed": false,
          "internalType": "uint8",
          "name": "version",
          "type": "uint8"
        }
      ],
      "name": "Initialized",
      "type": "event"
    },
    {
      "anonymous": false,
      "inputs": [
        {
          "indexed": false,
          "internalType": "address",
          "name": "account",
          "type": "address"
        }
      ],
      "name": "Paused",
      "type": "event"
    },
    {
      "anonymous": false,
      "inputs": [
        {
          "indexed": true,
          "internalType": "uint256",
          "name": "i_",
          "type": "uint256"
        },
        {
          "components": [
            {
              "internalType": "address",
              "name": "tpTokenAddress",
              "type": "address"
            },
            {
              "internalType": "address",
              "name": "priceProviderAddress",
              "type": "address"
            },
            {
              "internalType": "uint256",
              "name": "tpCtarg",
              "type": "uint256"
            },
            {
              "internalType": "uint256",
              "name": "tpMintFee",
              "type": "uint256"
            },
            {
              "internalType": "uint256",
              "name": "tpRedeemFee",
              "type": "uint256"
            },
            {
              "internalType": "uint256",
              "name": "tpEma",
              "type": "uint256"
            },
            {
              "internalType": "uint256",
              "name": "tpEmaSf",
              "type": "uint256"
            }
          ],
          "indexed": false,
          "internalType": "struct MocCore.PeggedTokenParams",
          "name": "peggedTokenParams_",
          "type": "tuple"
        }
      ],
      "name": "PeggedTokenChange",
      "type": "event"
    },
    {
      "anonymous": false,
      "inputs": [],
      "name": "SettlementExecuted",
      "type": "event"
    },
    {
      "anonymous": false,
      "inputs": [
        {
          "indexed": false,
          "internalType": "uint256",
          "name": "mocGain_",
          "type": "uint256"
        },
        {
          "indexed": false,
          "internalType": "uint256[]",
          "name": "tpGain_",
          "type": "uint256[]"
        }
      ],
      "name": "SuccessFeeDistributed",
      "type": "event"
    },
    {
      "anonymous": false,
      "inputs": [
        {
          "indexed": true,
          "internalType": "address",
          "name": "sender_",
          "type": "address"
        },
        {
          "indexed": true,
          "internalType": "address",
          "name": "recipient_",
          "type": "address"
        },
        {
          "indexed": false,
          "internalType": "uint256",
          "name": "qTC_",
          "type": "uint256"
        },
        {
          "indexed": false,
          "internalType": "uint256",
          "name": "qAC_",
          "type": "uint256"
        },
        {
          "indexed": false,
          "internalType": "uint256",
          "name": "qACfee_",
          "type": "uint256"
        }
      ],
      "name": "TCMinted",
      "type": "event"
    },
    {
      "anonymous": false,
      "inputs": [
        {
          "indexed": true,
          "internalType": "address",
          "name": "sender_",
          "type": "address"
        },
        {
          "indexed": true,
          "internalType": "address",
          "name": "recipient_",
          "type": "address"
        },
        {
          "indexed": false,
          "internalType": "uint256",
          "name": "qTC_",
          "type": "uint256"
        },
        {
          "indexed": false,
          "internalType": "uint256",
          "name": "qAC_",
          "type": "uint256"
        },
        {
          "indexed": false,
          "internalType": "uint256",
          "name": "qACfee_",
          "type": "uint256"
        }
      ],
      "name": "TCRedeemed",
      "type": "event"
    },
    {
      "anonymous": false,
      "inputs": [
        {
          "indexed": true,
          "internalType": "uint256",
          "name": "i_",
          "type": "uint256"
        },
        {
          "indexed": true,
          "internalType": "address",
          "name": "sender_",
          "type": "address"
        },
        {
          "indexed": true,
          "internalType": "address",
          "name": "recipient_",
          "type": "address"
        },
        {
          "indexed": false,
          "internalType": "uint256",
          "name": "qTC_",
          "type": "uint256"
        },
        {
          "indexed": false,
          "internalType": "uint256",
          "name": "qTP_",
          "type": "uint256"
        },
        {
          "indexed": false,
          "internalType": "uint256",
          "name": "qACfee_",
          "type": "uint256"
        }
      ],
      "name": "TCSwappedForTP",
      "type": "event"
    },
    {
      "anonymous": false,
      "inputs": [
        {
          "indexed": true,
          "internalType": "uint256",
          "name": "i_",
          "type": "uint256"
        },
        {
          "indexed": true,
          "internalType": "address",
          "name": "sender_",
          "type": "address"
        },
        {
          "indexed": true,
          "internalType": "address",
          "name": "recipient_",
          "type": "address"
        },
        {
          "indexed": false,
          "internalType": "uint256",
          "name": "qTC_",
          "type": "uint256"
        },
        {
          "indexed": false,
          "internalType": "uint256",
          "name": "qTP_",
          "type": "uint256"
        },
        {
          "indexed": false,
          "internalType": "uint256",
          "name": "qAC_",
          "type": "uint256"
        },
        {
          "indexed": false,
          "internalType": "uint256",
          "name": "qACfee_",
          "type": "uint256"
        }
      ],
      "name": "TCandTPMinted",
      "type": "event"
    },
    {
      "anonymous": false,
      "inputs": [
        {
          "indexed": true,
          "internalType": "uint256",
          "name": "i_",
          "type": "uint256"
        },
        {
          "indexed": true,
          "internalType": "address",
          "name": "sender_",
          "type": "address"
        },
        {
          "indexed": true,
          "internalType": "address",
          "name": "recipient_",
          "type": "address"
        },
        {
          "indexed": false,
          "internalType": "uint256",
          "name": "qTC_",
          "type": "uint256"
        },
        {
          "indexed": false,
          "internalType": "uint256",
          "name": "qTP_",
          "type": "uint256"
        },
        {
          "indexed": false,
          "internalType": "uint256",
          "name": "qAC_",
          "type": "uint256"
        },
        {
          "indexed": false,
          "internalType": "uint256",
          "name": "qACfee_",
          "type": "uint256"
        }
      ],
      "name": "TCandTPRedeemed",
      "type": "event"
    },
    {
      "anonymous": false,
      "inputs": [
        {
          "indexed": true,
          "internalType": "uint256",
          "name": "i_",
          "type": "uint256"
        },
        {
          "indexed": true,
          "internalType": "address",
          "name": "sender_",
          "type": "address"
        },
        {
          "indexed": true,
          "internalType": "address",
          "name": "recipient_",
          "type": "address"
        },
        {
          "indexed": false,
          "internalType": "uint256",
          "name": "qTP_",
          "type": "uint256"
        },
        {
          "indexed": false,
          "internalType": "uint256",
          "name": "qAC_",
          "type": "uint256"
        },
        {
          "indexed": false,
          "internalType": "uint256",
          "name": "qACfee_",
          "type": "uint256"
        }
      ],
      "name": "TPMinted",
      "type": "event"
    },
    {
      "anonymous": false,
      "inputs": [
        {
          "indexed": true,
          "internalType": "uint256",
          "name": "i_",
          "type": "uint256"
        },
        {
          "indexed": true,
          "internalType": "address",
          "name": "sender_",
          "type": "address"
        },
        {
          "indexed": true,
          "internalType": "address",
          "name": "recipient_",
          "type": "address"
        },
        {
          "indexed": false,
          "internalType": "uint256",
          "name": "qTP_",
          "type": "uint256"
        },
        {
          "indexed": false,
          "internalType": "uint256",
          "name": "qAC_",
          "type": "uint256"
        },
        {
          "indexed": false,
          "internalType": "uint256",
          "name": "qACfee_",
          "type": "uint256"
        }
      ],
      "name": "TPRedeemed",
      "type": "event"
    },
    {
      "anonymous": false,
      "inputs": [
        {
          "indexed": true,
          "internalType": "uint256",
          "name": "i_",
          "type": "uint256"
        },
        {
          "indexed": true,
          "internalType": "address",
          "name": "sender_",
          "type": "address"
        },
        {
          "indexed": true,
          "internalType": "address",
          "name": "recipient_",
          "type": "address"
        },
        {
          "indexed": false,
          "internalType": "uint256",
          "name": "qTP_",
          "type": "uint256"
        },
        {
          "indexed": false,
          "internalType": "uint256",
          "name": "qTC_",
          "type": "uint256"
        },
        {
          "indexed": false,
          "internalType": "uint256",
          "name": "qACfee_",
          "type": "uint256"
        }
      ],
      "name": "TPSwappedForTC",
      "type": "event"
    },
    {
      "anonymous": false,
      "inputs": [
        {
          "indexed": true,
          "internalType": "uint256",
          "name": "iFrom_",
          "type": "uint256"
        },
        {
          "indexed": false,
          "internalType": "uint256",
          "name": "iTo_",
          "type": "uint256"
        },
        {
          "indexed": true,
          "internalType": "address",
          "name": "sender_",
          "type": "address"
        },
        {
          "indexed": true,
          "internalType": "address",
          "name": "recipient_",
          "type": "address"
        },
        {
          "indexed": false,
          "internalType": "uint256",
          "name": "qTPfrom_",
          "type": "uint256"
        },
        {
          "indexed": false,
          "internalType": "uint256",
          "name": "qTPto_",
          "type": "uint256"
        },
        {
          "indexed": false,
          "internalType": "uint256",
          "name": "qACfee_",
          "type": "uint256"
        }
      ],
      "name": "TPSwappedForTP",
      "type": "event"
    },
    {
      "anonymous": false,
      "inputs": [
        {
          "indexed": true,
          "internalType": "uint256",
          "name": "i_",
          "type": "uint256"
        },
        {
          "indexed": false,
          "internalType": "uint256",
          "name": "oldTPema_",
          "type": "uint256"
        },
        {
          "indexed": false,
          "internalType": "uint256",
          "name": "newTPema_",
          "type": "uint256"
        }
      ],
      "name": "TPemaUpdated",
      "type": "event"
    },
    {
      "anonymous": false,
      "inputs": [
        {
          "indexed": false,
          "internalType": "address",
          "name": "account",
          "type": "address"
        }
      ],
      "name": "Unpaused",
      "type": "event"
    },
    {
      "anonymous": false,
      "inputs": [
        {
          "indexed": true,
          "internalType": "address",
          "name": "implementation",
          "type": "address"
        }
      ],
      "name": "Upgraded",
      "type": "event"
    },
    {
      "inputs": [
        {
          "components": [
            {
              "internalType": "address",
              "name": "tpTokenAddress",
              "type": "address"
            },
            {
              "internalType": "address",
              "name": "priceProviderAddress",
              "type": "address"
            },
            {
              "internalType": "uint256",
              "name": "tpCtarg",
              "type": "uint256"
            },
            {
              "internalType": "uint256",
              "name": "tpMintFee",
              "type": "uint256"
            },
            {
              "internalType": "uint256",
              "name": "tpRedeemFee",
              "type": "uint256"
            },
            {
              "internalType": "uint256",
              "name": "tpEma",
              "type": "uint256"
            },
            {
              "internalType": "uint256",
              "name": "tpEmaSf",
              "type": "uint256"
            }
          ],
          "internalType": "struct MocCore.PeggedTokenParams",
          "name": "peggedTokenParams_",
          "type": "tuple"
        }
      ],
      "name": "addPeggedToken",
      "outputs": [],
      "stateMutability": "nonpayable",
      "type": "function"
    },
    {
      "inputs": [],
      "name": "appreciationFactor",
      "outputs": [
        {
          "internalType": "uint256",
          "name": "",
          "type": "uint256"
        }
      ],
      "stateMutability": "view",
      "type": "function"
    },
    {
      "inputs": [],
      "name": "bes",
      "outputs": [
        {
          "internalType": "uint256",
          "name": "",
          "type": "uint256"
        }
      ],
      "stateMutability": "view",
      "type": "function"
    },
    {
      "inputs": [],
      "name": "bns",
      "outputs": [
        {
          "internalType": "uint256",
          "name": "",
          "type": "uint256"
        }
      ],
      "stateMutability": "view",
      "type": "function"
    },
    {
      "inputs": [],
      "name": "calcCtargemaCA",
      "outputs": [
        {
          "internalType": "uint256",
          "name": "ctargemaCA",
          "type": "uint256"
        }
      ],
      "stateMutability": "nonpayable",
      "type": "function"
    },
    {
      "inputs": [
        {
          "internalType": "contract IGovernor",
          "name": "newGovernor_",
          "type": "address"
        }
      ],
      "name": "changeGovernor",
      "outputs": [],
      "stateMutability": "nonpayable",
      "type": "function"
    },
    {
      "inputs": [
        {
          "components": [
            {
              "internalType": "address",
              "name": "tpTokenAddress",
              "type": "address"
            },
            {
              "internalType": "address",
              "name": "priceProviderAddress",
              "type": "address"
            },
            {
              "internalType": "uint256",
              "name": "tpCtarg",
              "type": "uint256"
            },
            {
              "internalType": "uint256",
              "name": "tpMintFee",
              "type": "uint256"
            },
            {
              "internalType": "uint256",
              "name": "tpRedeemFee",
              "type": "uint256"
            },
            {
              "internalType": "uint256",
              "name": "tpEma",
              "type": "uint256"
            },
            {
              "internalType": "uint256",
              "name": "tpEmaSf",
              "type": "uint256"
            }
          ],
          "internalType": "struct MocCore.PeggedTokenParams",
          "name": "peggedTokenParams_",
          "type": "tuple"
        }
      ],
      "name": "editPeggedToken",
      "outputs": [],
      "stateMutability": "nonpayable",
      "type": "function"
    },
    {
      "inputs": [],
      "name": "emaCalculationBlockSpan",
      "outputs": [
        {
          "internalType": "uint256",
          "name": "",
          "type": "uint256"
        }
      ],
      "stateMutability": "view",
      "type": "function"
    },
    {
      "inputs": [],
      "name": "evalLiquidation",
      "outputs": [],
      "stateMutability": "nonpayable",
      "type": "function"
    },
    {
      "inputs": [],
      "name": "execSettlement",
      "outputs": [],
      "stateMutability": "nonpayable",
      "type": "function"
    },
    {
      "inputs": [],
      "name": "feeRetainer",
      "outputs": [
        {
          "internalType": "uint256",
          "name": "",
          "type": "uint256"
        }
      ],
      "stateMutability": "view",
      "type": "function"
    },
    {
      "inputs": [],
      "name": "getBts",
      "outputs": [
        {
          "internalType": "uint256",
          "name": "",
          "type": "uint256"
        }
      ],
      "stateMutability": "view",
      "type": "function"
    },
    {
      "inputs": [],
      "name": "getCglb",
      "outputs": [
        {
          "internalType": "uint256",
          "name": "cglob",
          "type": "uint256"
        }
      ],
      "stateMutability": "view",
      "type": "function"
    },
    {
      "inputs": [],
      "name": "getCustomMockValue",
      "outputs": [
        {
          "internalType": "uint256",
          "name": "",
          "type": "uint256"
        }
      ],
      "stateMutability": "view",
      "type": "function"
    },
    {
      "inputs": [],
      "name": "getLeverageTC",
      "outputs": [
        {
          "internalType": "uint256",
          "name": "leverageTC",
          "type": "uint256"
        }
      ],
      "stateMutability": "view",
      "type": "function"
    },
    {
      "inputs": [
        {
          "internalType": "uint256",
          "name": "i_",
          "type": "uint256"
        }
      ],
      "name": "getPACtp",
      "outputs": [
        {
          "internalType": "uint256",
          "name": "",
          "type": "uint256"
        }
      ],
      "stateMutability": "view",
      "type": "function"
    },
    {
      "inputs": [],
      "name": "getPTCac",
      "outputs": [
        {
          "internalType": "uint256",
          "name": "pTCac",
          "type": "uint256"
        }
      ],
      "stateMutability": "view",
      "type": "function"
    },
    {
      "inputs": [
        {
          "internalType": "uint256",
          "name": "i_",
          "type": "uint256"
        },
        {
          "internalType": "uint256",
          "name": "qTP_",
          "type": "uint256"
        }
      ],
      "name": "getQACforRedeemTP",
      "outputs": [
        {
          "internalType": "uint256",
          "name": "qACtotalToRedeem",
          "type": "uint256"
        },
        {
          "internalType": "uint256",
          "name": "qACfee",
          "type": "uint256"
        }
      ],
      "stateMutability": "view",
      "type": "function"
    },
    {
      "inputs": [],
      "name": "getTCAvailableToRedeem",
      "outputs": [
        {
          "internalType": "uint256",
          "name": "tcAvailableToRedeem",
          "type": "uint256"
        }
      ],
      "stateMutability": "view",
      "type": "function"
    },
    {
      "inputs": [
        {
          "internalType": "uint256",
          "name": "i_",
          "type": "uint256"
        }
      ],
      "name": "getTPAvailableToMint",
      "outputs": [
        {
          "internalType": "uint256",
          "name": "tpAvailableToMint",
          "type": "uint256"
        }
      ],
      "stateMutability": "view",
      "type": "function"
    },
    {
      "inputs": [],
      "name": "getTotalACavailable",
      "outputs": [
        {
          "internalType": "uint256",
          "name": "totalACavailable",
          "type": "uint256"
        }
      ],
      "stateMutability": "view",
      "type": "function"
    },
    {
      "inputs": [],
      "name": "governor",
      "outputs": [
        {
          "internalType": "contract IGovernor",
          "name": "",
          "type": "address"
        }
      ],
      "stateMutability": "view",
      "type": "function"
    },
    {
      "inputs": [
        {
          "components": [
            {
              "components": [
                {
                  "components": [
                    {
                      "internalType": "address",
                      "name": "tcTokenAddress",
                      "type": "address"
                    },
                    {
                      "internalType": "address",
                      "name": "mocFeeFlowAddress",
                      "type": "address"
                    },
                    {
                      "internalType": "address",
                      "name": "mocAppreciationBeneficiaryAddress",
                      "type": "address"
                    },
                    {
                      "internalType": "uint256",
                      "name": "protThrld",
                      "type": "uint256"
                    },
                    {
                      "internalType": "uint256",
                      "name": "liqThrld",
                      "type": "uint256"
                    },
                    {
                      "internalType": "uint256",
                      "name": "feeRetainer",
                      "type": "uint256"
                    },
                    {
                      "internalType": "uint256",
                      "name": "tcMintFee",
                      "type": "uint256"
                    },
                    {
                      "internalType": "uint256",
                      "name": "tcRedeemFee",
                      "type": "uint256"
                    },
                    {
                      "internalType": "uint256",
                      "name": "swapTPforTPFee",
                      "type": "uint256"
                    },
                    {
                      "internalType": "uint256",
                      "name": "swapTPforTCFee",
                      "type": "uint256"
                    },
                    {
                      "internalType": "uint256",
                      "name": "swapTCforTPFee",
                      "type": "uint256"
                    },
                    {
                      "internalType": "uint256",
                      "name": "redeemTCandTPFee",
                      "type": "uint256"
                    },
                    {
                      "internalType": "uint256",
                      "name": "mintTCandTPFee",
                      "type": "uint256"
                    },
                    {
                      "internalType": "uint256",
                      "name": "successFee",
                      "type": "uint256"
                    },
                    {
                      "internalType": "uint256",
                      "name": "appreciationFactor",
                      "type": "uint256"
                    }
                  ],
                  "internalType": "struct MocBaseBucket.InitializeBaseBucketParams",
                  "name": "initializeBaseBucketParams",
                  "type": "tuple"
                },
                {
                  "internalType": "address",
                  "name": "governorAddress",
                  "type": "address"
                },
                {
                  "internalType": "address",
                  "name": "pauserAddress",
                  "type": "address"
                },
                {
                  "internalType": "uint256",
                  "name": "emaCalculationBlockSpan",
                  "type": "uint256"
                },
                {
                  "internalType": "uint256",
                  "name": "bes",
                  "type": "uint256"
                }
              ],
              "internalType": "struct MocCore.InitializeCoreParams",
              "name": "initializeCoreParams",
              "type": "tuple"
            },
            {
              "internalType": "address",
              "name": "acTokenAddress",
              "type": "address"
            }
          ],
          "internalType": "struct MocCARC20.InitializeParams",
          "name": "initializeParams_",
          "type": "tuple"
        }
      ],
      "name": "initialize",
      "outputs": [],
      "stateMutability": "nonpayable",
      "type": "function"
    },
    {
      "inputs": [],
      "name": "initializeMock",
      "outputs": [],
      "stateMutability": "nonpayable",
      "type": "function"
    },
    {
      "inputs": [],
      "name": "isLiquidationReached",
      "outputs": [
        {
          "internalType": "bool",
          "name": "",
          "type": "bool"
        }
      ],
      "stateMutability": "view",
      "type": "function"
    },
    {
      "inputs": [],
      "name": "liqEnabled",
      "outputs": [
        {
          "internalType": "bool",
          "name": "",
          "type": "bool"
        }
      ],
      "stateMutability": "view",
      "type": "function"
    },
    {
      "inputs": [
        {
          "internalType": "uint256",
          "name": "i_",
          "type": "uint256"
        }
      ],
      "name": "liqRedeemTP",
      "outputs": [
        {
          "internalType": "uint256",
          "name": "qACRedeemed",
          "type": "uint256"
        }
      ],
      "stateMutability": "nonpayable",
      "type": "function"
    },
    {
      "inputs": [
        {
          "internalType": "uint256",
          "name": "i_",
          "type": "uint256"
        },
        {
          "internalType": "address",
          "name": "recipient_",
          "type": "address"
        }
      ],
      "name": "liqRedeemTPto",
      "outputs": [
        {
          "internalType": "uint256",
          "name": "qACRedeemed",
          "type": "uint256"
        }
      ],
      "stateMutability": "nonpayable",
      "type": "function"
    },
    {
      "inputs": [],
      "name": "liqThrld",
      "outputs": [
        {
          "internalType": "uint256",
          "name": "",
          "type": "uint256"
        }
      ],
      "stateMutability": "view",
      "type": "function"
    },
    {
      "inputs": [],
      "name": "liquidated",
      "outputs": [
        {
          "internalType": "bool",
          "name": "",
          "type": "bool"
        }
      ],
      "stateMutability": "view",
      "type": "function"
    },
    {
      "inputs": [],
      "name": "makeStoppable",
      "outputs": [],
      "stateMutability": "nonpayable",
      "type": "function"
    },
    {
      "inputs": [],
      "name": "makeUnstoppable",
      "outputs": [],
      "stateMutability": "nonpayable",
      "type": "function"
    },
    {
      "inputs": [
        {
          "internalType": "uint256",
          "name": "qTC_",
          "type": "uint256"
        },
        {
          "internalType": "uint256",
          "name": "qACmax_",
          "type": "uint256"
        }
      ],
      "name": "mintTC",
      "outputs": [
        {
          "internalType": "uint256",
          "name": "qACtotalNeeded",
          "type": "uint256"
        }
      ],
      "stateMutability": "nonpayable",
      "type": "function"
    },
    {
      "inputs": [
        {
          "internalType": "uint256",
          "name": "i_",
          "type": "uint256"
        },
        {
          "internalType": "uint256",
          "name": "qTP_",
          "type": "uint256"
        },
        {
          "internalType": "uint256",
          "name": "qACmax_",
          "type": "uint256"
        }
      ],
      "name": "mintTCandTP",
      "outputs": [
        {
          "internalType": "uint256",
          "name": "qACtotalNeeded",
          "type": "uint256"
        },
        {
          "internalType": "uint256",
          "name": "qTCtoMint",
          "type": "uint256"
        }
      ],
      "stateMutability": "payable",
      "type": "function"
    },
    {
      "inputs": [],
      "name": "mintTCandTPFee",
      "outputs": [
        {
          "internalType": "uint256",
          "name": "",
          "type": "uint256"
        }
      ],
      "stateMutability": "view",
      "type": "function"
    },
    {
      "inputs": [
        {
          "internalType": "uint256",
          "name": "i_",
          "type": "uint256"
        },
        {
          "internalType": "uint256",
          "name": "qTP_",
          "type": "uint256"
        },
        {
          "internalType": "uint256",
          "name": "qACmax_",
          "type": "uint256"
        },
        {
          "internalType": "address",
          "name": "recipient_",
          "type": "address"
        }
      ],
      "name": "mintTCandTPto",
      "outputs": [
        {
          "internalType": "uint256",
          "name": "qACtotalNeeded",
          "type": "uint256"
        },
        {
          "internalType": "uint256",
          "name": "qTCtoMint",
          "type": "uint256"
        }
      ],
      "stateMutability": "payable",
      "type": "function"
    },
    {
      "inputs": [
        {
          "internalType": "uint256",
          "name": "qTC_",
          "type": "uint256"
        },
        {
          "internalType": "uint256",
          "name": "qACmax_",
          "type": "uint256"
        },
        {
          "internalType": "address",
          "name": "recipient_",
          "type": "address"
        }
      ],
      "name": "mintTCto",
      "outputs": [
        {
          "internalType": "uint256",
          "name": "qACtotalNeeded",
          "type": "uint256"
        }
      ],
      "stateMutability": "nonpayable",
      "type": "function"
    },
    {
      "inputs": [
        {
          "internalType": "uint256",
          "name": "i_",
          "type": "uint256"
        },
        {
          "internalType": "uint256",
          "name": "qTP_",
          "type": "uint256"
        },
        {
          "internalType": "uint256",
          "name": "qACmax_",
          "type": "uint256"
        }
      ],
      "name": "mintTP",
      "outputs": [
        {
          "internalType": "uint256",
          "name": "qACtotalNeeded",
          "type": "uint256"
        }
      ],
      "stateMutability": "nonpayable",
      "type": "function"
    },
    {
      "inputs": [
        {
          "internalType": "uint256",
          "name": "i_",
          "type": "uint256"
        },
        {
          "internalType": "uint256",
          "name": "qTP_",
          "type": "uint256"
        },
        {
          "internalType": "uint256",
          "name": "qACmax_",
          "type": "uint256"
        },
        {
          "internalType": "address",
          "name": "recipient_",
          "type": "address"
        }
      ],
      "name": "mintTPto",
      "outputs": [
        {
          "internalType": "uint256",
          "name": "qACtotalNeeded",
          "type": "uint256"
        }
      ],
      "stateMutability": "nonpayable",
      "type": "function"
    },
    {
      "inputs": [],
      "name": "mocAppreciationBeneficiaryAddress",
      "outputs": [
        {
          "internalType": "address",
          "name": "",
          "type": "address"
        }
      ],
      "stateMutability": "view",
      "type": "function"
    },
    {
      "inputs": [],
      "name": "mocFeeFlowAddress",
      "outputs": [
        {
          "internalType": "address",
          "name": "",
          "type": "address"
        }
      ],
      "stateMutability": "view",
      "type": "function"
    },
    {
      "inputs": [],
      "name": "nACcb",
      "outputs": [
        {
          "internalType": "uint256",
          "name": "",
          "type": "uint256"
        }
      ],
      "stateMutability": "view",
      "type": "function"
    },
    {
      "inputs": [],
      "name": "nTCcb",
      "outputs": [
        {
          "internalType": "uint256",
          "name": "",
          "type": "uint256"
        }
      ],
      "stateMutability": "view",
      "type": "function"
    },
    {
      "inputs": [],
      "name": "newVariable",
      "outputs": [
        {
          "internalType": "uint256",
          "name": "",
          "type": "uint256"
        }
      ],
      "stateMutability": "view",
      "type": "function"
    },
    {
      "inputs": [],
      "name": "nextEmaCalculation",
      "outputs": [
        {
          "internalType": "uint256",
          "name": "",
          "type": "uint256"
        }
      ],
      "stateMutability": "view",
      "type": "function"
    },
    {
      "inputs": [],
      "name": "pause",
      "outputs": [],
      "stateMutability": "nonpayable",
      "type": "function"
    },
    {
      "inputs": [],
      "name": "paused",
      "outputs": [
        {
          "internalType": "bool",
          "name": "",
          "type": "bool"
        }
      ],
      "stateMutability": "view",
      "type": "function"
    },
    {
      "inputs": [],
      "name": "pauser",
      "outputs": [
        {
          "internalType": "address",
          "name": "",
          "type": "address"
        }
      ],
      "stateMutability": "view",
      "type": "function"
    },
    {
      "inputs": [
        {
          "internalType": "uint256",
          "name": "",
          "type": "uint256"
        }
      ],
      "name": "pegContainer",
      "outputs": [
        {
          "internalType": "uint256",
          "name": "nTP",
          "type": "uint256"
        },
        {
          "internalType": "contract IPriceProvider",
          "name": "priceProvider",
          "type": "address"
        }
      ],
      "stateMutability": "view",
      "type": "function"
    },
    {
      "inputs": [
        {
          "internalType": "address",
          "name": "",
          "type": "address"
        }
      ],
      "name": "peggedTokenIndex",
      "outputs": [
        {
          "internalType": "uint256",
          "name": "index",
          "type": "uint256"
        },
        {
          "internalType": "bool",
          "name": "exists",
          "type": "bool"
        }
      ],
      "stateMutability": "view",
      "type": "function"
    },
    {
      "inputs": [],
      "name": "protThrld",
      "outputs": [
        {
          "internalType": "uint256",
          "name": "",
          "type": "uint256"
        }
      ],
      "stateMutability": "view",
      "type": "function"
    },
    {
      "inputs": [],
      "name": "proxiableUUID",
      "outputs": [
        {
          "internalType": "bytes32",
          "name": "",
          "type": "bytes32"
        }
      ],
      "stateMutability": "view",
      "type": "function"
    },
    {
      "inputs": [
        {
          "internalType": "uint256",
          "name": "qTC_",
          "type": "uint256"
        },
        {
          "internalType": "uint256",
          "name": "qACmin_",
          "type": "uint256"
        }
      ],
      "name": "redeemTC",
      "outputs": [
        {
          "internalType": "uint256",
          "name": "qACRedeemed",
          "type": "uint256"
        }
      ],
      "stateMutability": "nonpayable",
      "type": "function"
    },
    {
      "inputs": [
        {
          "internalType": "uint256",
          "name": "i_",
          "type": "uint256"
        },
        {
          "internalType": "uint256",
          "name": "qTC_",
          "type": "uint256"
        },
        {
          "internalType": "uint256",
          "name": "qTP_",
          "type": "uint256"
        },
        {
          "internalType": "uint256",
          "name": "qACmin_",
          "type": "uint256"
        }
      ],
      "name": "redeemTCandTP",
      "outputs": [
        {
          "internalType": "uint256",
          "name": "qACRedeemed",
          "type": "uint256"
        },
        {
          "internalType": "uint256",
          "name": "qTPRedeemed",
          "type": "uint256"
        }
      ],
      "stateMutability": "nonpayable",
      "type": "function"
    },
    {
      "inputs": [],
      "name": "redeemTCandTPFee",
      "outputs": [
        {
          "internalType": "uint256",
          "name": "",
          "type": "uint256"
        }
      ],
      "stateMutability": "view",
      "type": "function"
    },
    {
      "inputs": [
        {
          "internalType": "uint256",
          "name": "i_",
          "type": "uint256"
        },
        {
          "internalType": "uint256",
          "name": "qTC_",
          "type": "uint256"
        },
        {
          "internalType": "uint256",
          "name": "qTP_",
          "type": "uint256"
        },
        {
          "internalType": "uint256",
          "name": "qACmin_",
          "type": "uint256"
        },
        {
          "internalType": "address",
          "name": "recipient_",
          "type": "address"
        }
      ],
      "name": "redeemTCandTPto",
      "outputs": [
        {
          "internalType": "uint256",
          "name": "qACRedeemed",
          "type": "uint256"
        },
        {
          "internalType": "uint256",
          "name": "qTPRedeemed",
          "type": "uint256"
        }
      ],
      "stateMutability": "nonpayable",
      "type": "function"
    },
    {
      "inputs": [
        {
          "internalType": "uint256",
          "name": "qTC_",
          "type": "uint256"
        },
        {
          "internalType": "uint256",
          "name": "qACmin_",
          "type": "uint256"
        },
        {
          "internalType": "address",
          "name": "recipient_",
          "type": "address"
        }
      ],
      "name": "redeemTCto",
      "outputs": [
        {
          "internalType": "uint256",
          "name": "qACRedeemed",
          "type": "uint256"
        }
      ],
      "stateMutability": "nonpayable",
      "type": "function"
    },
    {
      "inputs": [
        {
          "internalType": "uint256",
          "name": "i_",
          "type": "uint256"
        },
        {
          "internalType": "uint256",
          "name": "qTP_",
          "type": "uint256"
        },
        {
          "internalType": "uint256",
          "name": "qACmin_",
          "type": "uint256"
        }
      ],
      "name": "redeemTP",
      "outputs": [
        {
          "internalType": "uint256",
          "name": "qACRedeemed",
          "type": "uint256"
        }
      ],
      "stateMutability": "nonpayable",
      "type": "function"
    },
    {
      "inputs": [
        {
          "internalType": "uint256",
          "name": "i_",
          "type": "uint256"
        },
        {
          "internalType": "uint256",
          "name": "qTP_",
          "type": "uint256"
        },
        {
          "internalType": "uint256",
          "name": "qACmin_",
          "type": "uint256"
        },
        {
          "internalType": "address",
          "name": "recipient_",
          "type": "address"
        }
      ],
      "name": "redeemTPto",
      "outputs": [
        {
          "internalType": "uint256",
          "name": "qACRedeemed",
          "type": "uint256"
        }
      ],
      "stateMutability": "nonpayable",
      "type": "function"
    },
    {
      "inputs": [],
      "name": "refreshACBalance",
      "outputs": [],
      "stateMutability": "nonpayable",
      "type": "function"
    },
    {
      "inputs": [
        {
          "internalType": "uint256",
          "name": "appreciationFactor_",
          "type": "uint256"
        }
      ],
      "name": "setAppreciationFactor",
      "outputs": [],
      "stateMutability": "nonpayable",
      "type": "function"
    },
    {
      "inputs": [
        {
          "internalType": "uint256",
          "name": "bes_",
          "type": "uint256"
        }
      ],
      "name": "setBes",
      "outputs": [],
      "stateMutability": "nonpayable",
      "type": "function"
    },
    {
      "inputs": [
        {
          "internalType": "uint256",
          "name": "blockSpan_",
          "type": "uint256"
        }
      ],
      "name": "setEmaCalculationBlockSpan",
      "outputs": [],
      "stateMutability": "nonpayable",
      "type": "function"
    },
    {
      "inputs": [
        {
          "internalType": "uint256",
          "name": "feeRetainer_",
          "type": "uint256"
        }
      ],
      "name": "setFeeRetainer",
      "outputs": [],
      "stateMutability": "nonpayable",
      "type": "function"
    },
    {
      "inputs": [
        {
          "internalType": "bool",
          "name": "liqEnabled_",
          "type": "bool"
        }
      ],
      "name": "setLiqEnabled",
      "outputs": [],
      "stateMutability": "nonpayable",
      "type": "function"
    },
    {
      "inputs": [
        {
          "internalType": "uint256",
          "name": "liqThrld_",
          "type": "uint256"
        }
      ],
      "name": "setLiqThrld",
      "outputs": [],
      "stateMutability": "nonpayable",
      "type": "function"
    },
    {
      "inputs": [
        {
          "internalType": "uint256",
          "name": "mintTCandTPFee_",
          "type": "uint256"
        }
      ],
      "name": "setMintTCandTPFee",
      "outputs": [],
      "stateMutability": "nonpayable",
      "type": "function"
    },
    {
      "inputs": [
        {
          "internalType": "address",
          "name": "mocAppreciationBeneficiaryAddress_",
          "type": "address"
        }
      ],
      "name": "setMocAppreciationBeneficiaryAddress",
      "outputs": [],
      "stateMutability": "nonpayable",
      "type": "function"
    },
    {
      "inputs": [
        {
          "internalType": "address",
          "name": "mocFeeFlowAddress_",
          "type": "address"
        }
      ],
      "name": "setMocFeeFlowAddress",
      "outputs": [],
      "stateMutability": "nonpayable",
      "type": "function"
    },
    {
      "inputs": [
        {
          "internalType": "address",
          "name": "newPauser_",
          "type": "address"
        }
      ],
      "name": "setPauser",
      "outputs": [],
      "stateMutability": "nonpayable",
      "type": "function"
    },
    {
      "inputs": [
        {
          "internalType": "uint256",
          "name": "protThrld_",
          "type": "uint256"
        }
      ],
      "name": "setProtThrld",
      "outputs": [],
      "stateMutability": "nonpayable",
      "type": "function"
    },
    {
      "inputs": [
        {
          "internalType": "uint256",
          "name": "redeemTCandTPFee_",
          "type": "uint256"
        }
      ],
      "name": "setRedeemTCandTPFee",
      "outputs": [],
      "stateMutability": "nonpayable",
      "type": "function"
    },
    {
      "inputs": [
        {
          "internalType": "uint256",
          "name": "successFee_",
          "type": "uint256"
        }
      ],
      "name": "setSuccessFee",
      "outputs": [],
      "stateMutability": "nonpayable",
      "type": "function"
    },
    {
      "inputs": [
        {
          "internalType": "uint256",
          "name": "swapTCforTPFee_",
          "type": "uint256"
        }
      ],
      "name": "setSwapTCforTPFee",
      "outputs": [],
      "stateMutability": "nonpayable",
      "type": "function"
    },
    {
      "inputs": [
        {
          "internalType": "uint256",
          "name": "swapTPforTCFee_",
          "type": "uint256"
        }
      ],
      "name": "setSwapTPforTCFee",
      "outputs": [],
      "stateMutability": "nonpayable",
      "type": "function"
    },
    {
      "inputs": [
        {
          "internalType": "uint256",
          "name": "swapTPforTPFee_",
          "type": "uint256"
        }
      ],
      "name": "setSwapTPforTPFee",
      "outputs": [],
      "stateMutability": "nonpayable",
      "type": "function"
    },
    {
      "inputs": [
        {
          "internalType": "uint256",
          "name": "tcMintFee_",
          "type": "uint256"
        }
      ],
      "name": "setTcMintFee",
      "outputs": [],
      "stateMutability": "nonpayable",
      "type": "function"
    },
    {
      "inputs": [
        {
          "internalType": "uint256",
          "name": "tcRedeemFee_",
          "type": "uint256"
        }
      ],
      "name": "setTcRedeemFee",
      "outputs": [],
      "stateMutability": "nonpayable",
      "type": "function"
    },
    {
      "inputs": [],
      "name": "shouldCalculateEma",
      "outputs": [
        {
          "internalType": "bool",
          "name": "",
          "type": "bool"
        }
      ],
      "stateMutability": "view",
      "type": "function"
    },
    {
      "inputs": [],
      "name": "stoppable",
      "outputs": [
        {
          "internalType": "bool",
          "name": "",
          "type": "bool"
        }
      ],
      "stateMutability": "view",
      "type": "function"
    },
    {
      "inputs": [],
      "name": "successFee",
      "outputs": [
        {
          "internalType": "uint256",
          "name": "",
          "type": "uint256"
        }
      ],
      "stateMutability": "view",
      "type": "function"
    },
    {
      "inputs": [
        {
          "internalType": "uint256",
          "name": "i_",
          "type": "uint256"
        },
        {
          "internalType": "uint256",
          "name": "qTC_",
          "type": "uint256"
        },
        {
          "internalType": "uint256",
          "name": "qTPmin_",
          "type": "uint256"
        },
        {
          "internalType": "uint256",
          "name": "qACmax_",
          "type": "uint256"
        }
      ],
      "name": "swapTCforTP",
      "outputs": [
        {
          "internalType": "uint256",
          "name": "qACFee",
          "type": "uint256"
        },
        {
          "internalType": "uint256",
          "name": "qTPMinted",
          "type": "uint256"
        }
      ],
      "stateMutability": "nonpayable",
      "type": "function"
    },
    {
      "inputs": [],
      "name": "swapTCforTPFee",
      "outputs": [
        {
          "internalType": "uint256",
          "name": "",
          "type": "uint256"
        }
      ],
      "stateMutability": "view",
      "type": "function"
    },
    {
      "inputs": [
        {
          "internalType": "uint256",
          "name": "i_",
          "type": "uint256"
        },
        {
          "internalType": "uint256",
          "name": "qTC_",
          "type": "uint256"
        },
        {
          "internalType": "uint256",
          "name": "qTPmin_",
          "type": "uint256"
        },
        {
          "internalType": "uint256",
          "name": "qACmax_",
          "type": "uint256"
        },
        {
          "internalType": "address",
          "name": "recipient_",
          "type": "address"
        }
      ],
      "name": "swapTCforTPto",
      "outputs": [
        {
          "internalType": "uint256",
          "name": "qACFee",
          "type": "uint256"
        },
        {
          "internalType": "uint256",
          "name": "qTPMinted",
          "type": "uint256"
        }
      ],
      "stateMutability": "nonpayable",
      "type": "function"
    },
    {
      "inputs": [
        {
          "internalType": "uint256",
          "name": "i_",
          "type": "uint256"
        },
        {
          "internalType": "uint256",
          "name": "qTP_",
          "type": "uint256"
        },
        {
          "internalType": "uint256",
          "name": "qTCmin_",
          "type": "uint256"
        },
        {
          "internalType": "uint256",
          "name": "qACmax_",
          "type": "uint256"
        }
      ],
      "name": "swapTPforTC",
      "outputs": [
        {
          "internalType": "uint256",
          "name": "qACFee",
          "type": "uint256"
        },
        {
          "internalType": "uint256",
          "name": "qTPMinted",
          "type": "uint256"
        }
      ],
      "stateMutability": "nonpayable",
      "type": "function"
    },
    {
      "inputs": [],
      "name": "swapTPforTCFee",
      "outputs": [
        {
          "internalType": "uint256",
          "name": "",
          "type": "uint256"
        }
      ],
      "stateMutability": "view",
      "type": "function"
    },
    {
      "inputs": [
        {
          "internalType": "uint256",
          "name": "i_",
          "type": "uint256"
        },
        {
          "internalType": "uint256",
          "name": "qTP_",
          "type": "uint256"
        },
        {
          "internalType": "uint256",
          "name": "qTCmin_",
          "type": "uint256"
        },
        {
          "internalType": "uint256",
          "name": "qACmax_",
          "type": "uint256"
        },
        {
          "internalType": "address",
          "name": "recipient_",
          "type": "address"
        }
      ],
      "name": "swapTPforTCto",
      "outputs": [
        {
          "internalType": "uint256",
          "name": "qACFee",
          "type": "uint256"
        },
        {
          "internalType": "uint256",
          "name": "qTPMinted",
          "type": "uint256"
        }
      ],
      "stateMutability": "nonpayable",
      "type": "function"
    },
    {
      "inputs": [
        {
          "internalType": "uint256",
          "name": "iFrom_",
          "type": "uint256"
        },
        {
          "internalType": "uint256",
          "name": "iTo_",
          "type": "uint256"
        },
        {
          "internalType": "uint256",
          "name": "qTP_",
          "type": "uint256"
        },
        {
          "internalType": "uint256",
          "name": "qTPmin_",
          "type": "uint256"
        },
        {
          "internalType": "uint256",
          "name": "qACmax_",
          "type": "uint256"
        }
      ],
      "name": "swapTPforTP",
      "outputs": [
        {
          "internalType": "uint256",
          "name": "qACFee",
          "type": "uint256"
        },
        {
          "internalType": "uint256",
          "name": "qTPMinted",
          "type": "uint256"
        }
      ],
      "stateMutability": "nonpayable",
      "type": "function"
    },
    {
      "inputs": [],
      "name": "swapTPforTPFee",
      "outputs": [
        {
          "internalType": "uint256",
          "name": "",
          "type": "uint256"
        }
      ],
      "stateMutability": "view",
      "type": "function"
    },
    {
      "inputs": [
        {
          "internalType": "uint256",
          "name": "iFrom_",
          "type": "uint256"
        },
        {
          "internalType": "uint256",
          "name": "iTo_",
          "type": "uint256"
        },
        {
          "internalType": "uint256",
          "name": "qTP_",
          "type": "uint256"
        },
        {
          "internalType": "uint256",
          "name": "qTPmin_",
          "type": "uint256"
        },
        {
          "internalType": "uint256",
          "name": "qACmax_",
          "type": "uint256"
        },
        {
          "internalType": "address",
          "name": "recipient_",
          "type": "address"
        }
      ],
      "name": "swapTPforTPto",
      "outputs": [
        {
          "internalType": "uint256",
          "name": "qACFee",
          "type": "uint256"
        },
        {
          "internalType": "uint256",
          "name": "qTPMinted",
          "type": "uint256"
        }
      ],
      "stateMutability": "nonpayable",
      "type": "function"
    },
    {
      "inputs": [],
      "name": "tcMintFee",
      "outputs": [
        {
          "internalType": "uint256",
          "name": "",
          "type": "uint256"
        }
      ],
      "stateMutability": "view",
      "type": "function"
    },
    {
      "inputs": [],
      "name": "tcRedeemFee",
      "outputs": [
        {
          "internalType": "uint256",
          "name": "",
          "type": "uint256"
        }
      ],
      "stateMutability": "view",
      "type": "function"
    },
    {
      "inputs": [],
      "name": "tcToken",
      "outputs": [
        {
          "internalType": "contract MocTC",
          "name": "",
          "type": "address"
        }
      ],
      "stateMutability": "view",
      "type": "function"
    },
    {
      "inputs": [
        {
          "internalType": "uint256",
          "name": "",
          "type": "uint256"
        }
      ],
      "name": "tpCtarg",
      "outputs": [
        {
          "internalType": "uint256",
          "name": "",
          "type": "uint256"
        }
      ],
      "stateMutability": "view",
      "type": "function"
    },
    {
      "inputs": [
        {
          "internalType": "uint256",
          "name": "",
          "type": "uint256"
        }
      ],
      "name": "tpEma",
      "outputs": [
        {
          "internalType": "uint256",
          "name": "ema",
          "type": "uint256"
        },
        {
          "internalType": "uint256",
          "name": "sf",
          "type": "uint256"
        }
      ],
      "stateMutability": "view",
      "type": "function"
    },
    {
      "inputs": [
        {
          "internalType": "uint256",
          "name": "",
          "type": "uint256"
        }
      ],
      "name": "tpMintFee",
      "outputs": [
        {
          "internalType": "uint256",
          "name": "",
          "type": "uint256"
        }
      ],
      "stateMutability": "view",
      "type": "function"
    },
    {
      "inputs": [
        {
          "internalType": "uint256",
          "name": "",
          "type": "uint256"
        }
      ],
      "name": "tpRedeemFee",
      "outputs": [
        {
          "internalType": "uint256",
          "name": "",
          "type": "uint256"
        }
      ],
      "stateMutability": "view",
      "type": "function"
    },
    {
      "inputs": [
        {
          "internalType": "uint256",
          "name": "",
          "type": "uint256"
        }
      ],
      "name": "tpTokens",
      "outputs": [
        {
          "internalType": "contract IMocRC20",
          "name": "",
          "type": "address"
        }
      ],
      "stateMutability": "view",
      "type": "function"
    },
    {
      "inputs": [],
      "name": "unpause",
      "outputs": [],
      "stateMutability": "nonpayable",
      "type": "function"
    },
    {
      "inputs": [],
      "name": "updateEmas",
      "outputs": [],
      "stateMutability": "nonpayable",
      "type": "function"
    },
    {
      "inputs": [
        {
          "internalType": "address",
          "name": "newImplementation",
          "type": "address"
        }
      ],
      "name": "upgradeTo",
      "outputs": [],
      "stateMutability": "nonpayable",
      "type": "function"
    },
    {
      "inputs": [
        {
          "internalType": "address",
          "name": "newImplementation",
          "type": "address"
        },
        {
          "internalType": "bytes",
          "name": "data",
          "type": "bytes"
        }
      ],
      "name": "upgradeToAndCall",
      "outputs": [],
      "stateMutability": "payable",
      "type": "function"
    }
  ],
  "bytecode": "0x60a0604052306080523480156200001557600080fd5b506200002062000030565b6200002a62000030565b620000f2565b600054610100900460ff16156200009d5760405162461bcd60e51b815260206004820152602760248201527f496e697469616c697a61626c653a20636f6e747261637420697320696e697469604482015266616c697a696e6760c81b606482015260840160405180910390fd5b60005460ff9081161015620000f0576000805460ff191660ff9081179091556040519081527f7f26b83ff96e1f2b6a682f133852f6798a09c465da95921460cefb38474024989060200160405180910390a15b565b60805161569e6200012a6000396000818161144f0152818161149801528181611673015281816116b3015261177c015261569e6000f3fe6080604052600436106105c55760003560e01c806370713468116102f3578063bb2ac7881161019b578063e4012945116100e7578063f26114aa116100a0578063f375cfba1161007a578063f375cfba14611115578063fa6e83bd1461112c578063fa79589e14611143578063fda70f8b1461116357600080fd5b8063f26114aa146110be578063f2808778146110de578063f30b5614146110fe57600080fd5b8063e40129451461101b578063e4c0aaf41461103b578063e6b1627c1461105b578063e7c259781461107b578063e8859a1514611096578063f21fcc00146110ab57600080fd5b8063c84353c911610154578063db7960721161012e578063db79607214610fb1578063de08160f14610fd1578063de8d520a14610ff1578063e23c135c1461100657600080fd5b8063c84353c914610f5c578063ceecc55a14610f7c578063d1a0faa014610f9c57600080fd5b8063bb2ac78814610ead578063bb4872de14610ecd578063bbba7ed914610ee7578063becaca6b14610f07578063c00f538d14610f27578063c039cc6914610f4757600080fd5b80638456cb591161025a5780639abb14c9116102135780639cabfc00116101ed5780639cabfc0014610e0a5780639fd0506d14610e57578063a8e9ac3014610e7d578063aea038dc14610e9657600080fd5b80639abb14c914610db55780639ad6659d14610dd55780639bdd7cce14610dea57600080fd5b80638456cb5914610d115780638cfa424114610d265780638d7a72f314610d3d578063904aa85b14610d545780639195c85b14610d745780639853c35a14610d9457600080fd5b80637a4ff1d9116102ac5780637a4ff1d914610c655780637a727fe814610c855780637af5758c14610c9c5780637cba238314610cbc5780637d8e031414610cdc578063826fcd5814610cfc57600080fd5b80637071346814610bc05780637554fffd14610be05780637750ba0c14610bf75780637820a32814610c1757806379f9a91c14610c375780637a193c3114610c4e57600080fd5b80633659cfe6116104715780635210570c116103bd5780635c975abb1161037657806360009e0b1161035057806360009e0b14610b5e578063662013f414610b7f5780636827435714610b945780636b5488df14610ba957600080fd5b80635c975abb14610b095780635d65d04514610b265780635e2a606514610b4657600080fd5b80635210570c14610a755780635241271c14610a8a57806352d1902d14610aaa57806354a73c6214610abf57806357271f4d14610adf5780635c616a7314610af457600080fd5b80634454ae8b1161042a5780634d977e78116104045780634d977e7814610a135780634e1f907a14610a2a5780634f0f27ee14610a4b5780634f1ef28614610a6257600080fd5b80634454ae8b146109965780634b746001146109b65780634cffbaab146109f357600080fd5b80633659cfe6146108f55780633bc4ac0a146109155780633f4ba83a146109355780634017936a1461094a578063407f0e341461095f5780634310adc61461097657600080fd5b80631867e2f51161053057806323b98cde116104e95780632c43bd3b116104c35780632c43bd3b146108895780632d88af4a146108a9578063333431fd146108c957806333421c38146108e057600080fd5b806323b98cde1461082257806327eab2a1146108525780632a20d57d1461087257600080fd5b80631867e2f5146107835780631a89b8f21461079a5780631f1138a6146107ad5780631fb0dda0146107cd5780631fe6a7ad146107e25780632069f7531461080257600080fd5b80630d6ac463116105825780630d6ac463146106c35780630e0a8fd2146106e35780631301a8f01461070357806317574bc51461072357806317df0ab814610743578063181770da1461076357600080fd5b806301cded9c146105ca57806301dde6ef1461060457806301f1b684146106265780630bb7f6081461065e5780630c340a241461068c5780630c36d897146106ac575b600080fd5b3480156105d657600080fd5b506105ea6105e5366004614f6e565b61117a565b604080519283526020830191909152015b60405180910390f35b34801561061057600080fd5b5061062461061f366004614fbb565b611199565b005b34801561063257600080fd5b50610646610641366004614fbb565b6111a7565b6040516001600160a01b0390911681526020016105fb565b34801561066a57600080fd5b5061067e610679366004614fd4565b6111d2565b6040519081526020016105fb565b34801561069857600080fd5b50609754610646906001600160a01b031681565b3480156106b857600080fd5b5061067e61017e5481565b3480156106cf57600080fd5b506106246106de366004614ff6565b6111e9565b3480156106ef57600080fd5b506106246106fe366004614fbb565b611214565b34801561070f57600080fd5b506105ea61071e366004615013565b611222565b34801561072f57600080fd5b506105ea61073e366004615013565b611240565b34801561074f57600080fd5b5061067e61075e366004615045565b611251565b34801561076f57600080fd5b5061067e61077e366004615045565b61126a565b34801561078f57600080fd5b5061067e6101b35481565b6105ea6107a8366004615071565b611279565b3480156107b957600080fd5b506105ea6107c83660046150b2565b611289565b3480156107d957600080fd5b5061067e6112aa565b3480156107ee57600080fd5b506106246107fd366004615115565b6112cc565b34801561080e57600080fd5b5061062461081d366004614fbb565b6112e8565b34801561082e57600080fd5b506101485461084290610100900460ff1681565b60405190151581526020016105fb565b34801561085e57600080fd5b5061062461086d366004614ff6565b6112f6565b34801561087e57600080fd5b5061067e61013e5481565b34801561089557600080fd5b506106246108a4366004614fbb565b611321565b3480156108b557600080fd5b506106246108c4366004614ff6565b61132f565b3480156108d557600080fd5b5061067e61013d5481565b3480156108ec57600080fd5b50610624611361565b34801561090157600080fd5b50610624610910366004614ff6565b611445565b34801561092157600080fd5b50610624610930366004614fbb565b61152d565b34801561094157600080fd5b5061062461153b565b34801561095657600080fd5b5061067e6115d5565b34801561096b57600080fd5b5061067e61013c5481565b34801561098257600080fd5b5061067e610991366004615132565b6115f8565b3480156109a257600080fd5b506105ea6109b1366004614f6e565b611606565b3480156109c257600080fd5b506109d66109d1366004614fbb565b611617565b604080519283526001600160a01b039091166020830152016105fb565b3480156109ff57600080fd5b5061067e610a0e366004615071565b61164f565b348015610a1f57600080fd5b5061067e6101b25481565b348015610a3657600080fd5b5061014454610646906001600160a01b031681565b348015610a5757600080fd5b5061067e6101395481565b610624610a70366004615181565b611669565b348015610a8157600080fd5b50610624611739565b348015610a9657600080fd5b5061067e610aa5366004614fbb565b61174d565b348015610ab657600080fd5b5061067e61176f565b348015610acb57600080fd5b5061067e610ada366004615071565b611822565b348015610aeb57600080fd5b5061067e611831565b348015610b0057600080fd5b5061062461185d565b348015610b1557600080fd5b5060ca54610100900460ff16610842565b348015610b3257600080fd5b5061067e610b41366004615245565b6118b2565b348015610b5257600080fd5b50610624602a61027d55565b348015610b6a57600080fd5b5061013154610646906001600160a01b031681565b348015610b8b57600080fd5b5061067e6118bf565b348015610ba057600080fd5b506106246118d1565b348015610bb557600080fd5b5061067e6101465481565b348015610bcc57600080fd5b50610624610bdb366004614fbb565b6118e8565b348015610bec57600080fd5b5061067e6101375481565b348015610c0357600080fd5b50610624610c12366004614fbb565b6118f6565b348015610c2357600080fd5b506105ea610c32366004614fd4565b611904565b348015610c4357600080fd5b5061067e6101405481565b348015610c5a57600080fd5b5061067e6101325481565b348015610c7157600080fd5b50610624610c80366004614fbb565b611925565b348015610c9157600080fd5b5061067e61017f5481565b348015610ca857600080fd5b50610624610cb7366004614fbb565b611933565b348015610cc857600080fd5b50610624610cd7366004614fbb565b611941565b348015610ce857600080fd5b5061067e610cf7366004614fbb565b61194f565b348015610d0857600080fd5b5061067e611960565b348015610d1d57600080fd5b5061062461197b565b348015610d3257600080fd5b5061067e6101475481565b348015610d4957600080fd5b5061067e61027d5481565b348015610d6057600080fd5b5061067e610d6f366004614fbb565b611a16565b348015610d8057600080fd5b5061067e610d8f366004614fbb565b611ae0565b348015610da057600080fd5b5061014354610646906001600160a01b031681565b348015610dc157600080fd5b5061067e610dd0366004614fd4565b611aed565b348015610de157600080fd5b50610842611afb565b348015610df657600080fd5b506105ea610e05366004614f6e565b611b26565b348015610e1657600080fd5b50610e42610e25366004614ff6565b610134602052600090815260409020805460019091015460ff1682565b604080519283529015156020830152016105fb565b348015610e6357600080fd5b5060ca54610646906201000090046001600160a01b031681565b348015610e8957600080fd5b5061017e54431015610842565b348015610ea257600080fd5b5061067e61013b5481565b348015610eb957600080fd5b506105ea610ec8366004615013565b611b37565b348015610ed957600080fd5b5060ca546108429060ff1681565b348015610ef357600080fd5b50610624610f02366004615275565b611b48565b348015610f1357600080fd5b50610624610f22366004614fbb565b611c8d565b348015610f3357600080fd5b50610624610f42366004614fbb565b611c9b565b348015610f5357600080fd5b5061067e611ca9565b348015610f6857600080fd5b50610624610f77366004614fbb565b611cc4565b348015610f8857600080fd5b506105ea610f9736600461528e565b611cd2565b348015610fa857600080fd5b50610624611ce4565b348015610fbd57600080fd5b50610624610fcc3660046152c9565b611d1e565b348015610fdd57600080fd5b5061067e610fec366004614fbb565b6120ab565b348015610ffd57600080fd5b5061067e6120bc565b34801561101257600080fd5b506106246120d9565b34801561102757600080fd5b5061067e611036366004615132565b612117565b34801561104757600080fd5b50610624611056366004614ff6565b612125565b34801561106757600080fd5b506105ea611076366004614fbb565b61214f565b34801561108757600080fd5b50610148546108429060ff1681565b3480156110a257600080fd5b5061067e61217e565b6105ea6110b9366004615045565b61219f565b3480156110ca57600080fd5b506106246110d93660046152c9565b6121bb565b3480156110ea57600080fd5b506106246110f9366004614fbb565b612445565b34801561110a57600080fd5b5061067e61012f5481565b34801561112157600080fd5b5061067e61013f5481565b34801561113857600080fd5b5061067e6101385481565b34801561114f57600080fd5b5061067e61115e366004614fbb565b612453565b34801561116f57600080fd5b5061067e61013a5481565b60008061118b878787873388612496565b915091509550959350505050565b6111a1612675565b61013855565b61013381815481106111b857600080fd5b6000918252602090912001546001600160a01b0316905081565b60006111e0838333336126fe565b90505b92915050565b6111f1612675565b61014380546001600160a01b0319166001600160a01b0392909216919091179055565b61121c612675565b61013d55565b600080611233868686863333612810565b9150915094509492505050565b60008061123386868686333361299e565b60006112608484843333612b1b565b90505b9392505050565b60006112608484843333612c32565b6000806112338686863387612d78565b60008061129b88888888883389612eb5565b91509150965096945050505050565b60008060006112b7613099565b915091506112c58282613145565b9250505090565b6112d4612675565b610148805460ff1916911515919091179055565b6112f0612675565b61014055565b6112fe612675565b61014480546001600160a01b0319166001600160a01b0392909216919091179055565b611329612675565b61014755565b611337612675565b60ca80546001600160a01b03909216620100000262010000600160b01b0319909216919091179055565b611369613181565b6101485460ff168015611385575061014854610100900460ff16155b80156113945750611394611afb565b1561144357610148805461ff0019166101001790556040517f8b77276c97a5709f0d6db52329848a254eb760ce8be80d281799f633bdb69e8390600090a161013160009054906101000a90046001600160a01b03166001600160a01b0316638456cb596040518163ffffffff1660e01b8152600401600060405180830381600087803b15801561142357600080fd5b505af1158015611437573d6000803e3d6000fd5b505050506114436131aa565b565b6001600160a01b037f00000000000000000000000000000000000000000000000000000000000000001630036114965760405162461bcd60e51b815260040161148d906152db565b60405180910390fd5b7f00000000000000000000000000000000000000000000000000000000000000006001600160a01b03166114df600080516020615622833981519152546001600160a01b031690565b6001600160a01b0316146115055760405162461bcd60e51b815260040161148d90615327565b61150e816132f5565b6040805160008082526020820190925261152a918391906132fd565b50565b611535612675565b61017f55565b60ca54610100900460ff1661156357604051637c7fd07960e01b815260040160405180910390fd5b60ca546201000090046001600160a01b0316331461159457604051631d77d47760e21b815260040160405180910390fd5b60ca805461ff00191690556040513381527f5db9ee0a495bf2e6ff9c91a7834c1ba4fdd244a5e8aa4e537bd38aeae4b073aa906020015b60405180910390a1565b60008060006115e2613099565b915091506112c56115f161346d565b8383613554565b6000611260848433856126fe565b60008061118b878787873388612810565b610135818154811061162857600080fd5b6000918252602090912060029091020180546001909101549091506001600160a01b031682565b600061165e8585853386612c32565b90505b949350505050565b6001600160a01b037f00000000000000000000000000000000000000000000000000000000000000001630036116b15760405162461bcd60e51b815260040161148d906152db565b7f00000000000000000000000000000000000000000000000000000000000000006001600160a01b03166116fa600080516020615622833981519152546001600160a01b031690565b6001600160a01b0316146117205760405162461bcd60e51b815260040161148d90615327565b611729826132f5565b611735828260016132fd565b5050565b611741612675565b60ca805460ff19169055565b610142818154811061175e57600080fd5b600091825260209091200154905081565b6000306001600160a01b037f0000000000000000000000000000000000000000000000000000000000000000161461180f5760405162461bcd60e51b815260206004820152603860248201527f555550535570677261646561626c653a206d757374206e6f742062652063616c60448201527f6c6564207468726f7567682064656c656761746563616c6c0000000000000000606482015260840161148d565b5060008051602061562283398151915290565b600061165e8585853386612b1b565b6000670de0b6b3a76400006101465461184a9190615389565b61027d5461185891906153ab565b905090565b611865613181565b6101b3544310611443576101b25461187d90436153ab565b6101b3556040517fd3c59bda47e141a8ec5a33d241b7f71b86e30d359f83a9227d912858b60404fc90600090a1611443613578565b60006111e0833384613580565b60006118c9611ce4565b61185861346d565b6118d9612675565b60ca805460ff19166001179055565b6118f0612675565b61013c55565b6118fe612675565b61013955565b60008061191a848461191587611a16565b6137b0565b915091509250929050565b61192d612675565b61013f55565b61193b612675565b61013e55565b611949612675565b61014655565b610145818154811061175e57600080fd5b600080600061196d613099565b915091506112c58282613812565b611983613181565b60ca546201000090046001600160a01b031633146119b457604051631d77d47760e21b815260040160405180910390fd5b60ca5460ff166119d75760405163866099c360e01b815260040160405180910390fd5b60ca805461ff0019166101001790556040513381527f62e78cea01bee320cd4e420270b5ea74000d11b0c9f74754ebdbfc544b05a258906020016115cb565b6000806101358381548110611a2d57611a2d6153be565b60009182526020822060016002909202010154604080516359e02dd760e01b815281516001600160a01b039093169450839285926359e02dd792600480820193918290030181865afa158015611a87573d6000803e3d6000fd5b505050506040513d601f19601f82011682018060405250810190611aab91906153d4565b9150915080611ad85760405163de4f3a0f60e01b81526001600160a01b038416600482015260240161148d565b509392505050565b60006111e3823333613580565b60006111e083833333613831565b6000806000611b08613099565b915091506000611b188383613812565b610147541015949350505050565b60008061118b87878787338861299e565b600080611233868686863333612496565b600054610100900460ff1615808015611b685750600054600160ff909116105b80611b825750303b158015611b82575060005460ff166001145b611be55760405162461bcd60e51b815260206004820152602e60248201527f496e697469616c697a61626c653a20636f6e747261637420697320616c72656160448201526d191e481a5b9a5d1a585b1a5e995960921b606482015260840161148d565b6000805460ff191660011790558015611c08576000805461ff0019166101001790555b611c1a61028083016102608401614ff6565b61024a80546001600160a01b0319166001600160a01b0392909216919091179055611c448261393c565b8015611735576000805461ff0019169055604051600181527f7f26b83ff96e1f2b6a682f133852f6798a09c465da95921460cefb38474024989060200160405180910390a15050565b611c95612675565b61013755565b611ca3612675565b61013b55565b6000806000611cb6613099565b915091506112c582826139b4565b611ccc612675565b6101b255565b60008061118b87878787873333612eb5565b61017e544310611443576101355460005b81811015611d0e57611d06816139d0565b600101611cf5565b5061152a61017f54430161017e55565b611d26612675565b6000611d356020830183614ff6565b60405163d55fd84560e01b81523060048201529091506001600160a01b0382169063d55fd84590602401602060405180830381865afa158015611d7c573d6000803e3d6000fd5b505050506040513d601f19601f82011682018060405250810190611da091906153f9565b611dbd5760405163e6c4247b60e01b815260040160405180910390fd5b6000611dcf6040840160208501614ff6565b6001600160a01b0383166000908152610134602052604090206001015490915060ff1615611e1057604051633458f6c560e01b815260040160405180910390fd5b6101338054604080518082018252828152600160208083018281526001600160a01b03808a1660008181526101348552878120965187559251958501805496151560ff199097169690961790955587548085019098557f92e985329fb94cc1b424ebb0f7f2929b6d27383ca94c0ec71c44fb48bdf96d2c90970180546001600160a01b031990811690951790558451808601865281815288881681840190815261013580548087018255908452915160029283027fdf37d27e88e3bd0b85262482997e409a463f5be0ebb19232abf994dd8474090d81019190915590517fdf37d27e88e3bd0b85262482997e409a463f5be0ebb19232abf994dd8474090e9091018054919099169516949094179096556101458054808401909155898501357fed95984add84c4014c7f9d66a1b73e788e2db64f5763fa861ad52da204f71b2b90910155610141805480840190915560608a01357fb3926254d0163c91fc94bf08f3f8062ff5d48635dfa7dbef8168ad7d4847a75890910155610142805480840190915560808a01357f7917ad5f1bd6fa6d4f9128143f89bcba30c5b503e76ecd2dd7562ddf9706ae1990910155835180850190945260a0890135845260c089013590840190815261017d805480840182559087529351939092027f0f2aec2a8c6072690b3c86d5c08e34587f891268d22d8bdca6e66838c0f2f22d81019390935590517f0f2aec2a8c6072690b3c86d5c08e34587f891268d22d8bdca6e66838c0f2f22e909201919091556101498054909101815590915261014a61205582611a16565b8154600181018355600092835260209092209091015560405181907f6417e5a3c1e0e5dae98b8fe718c4babdfcb35e0d7b5e1b9641b5914756f5d8e39061209d908790615416565b60405180910390a250505050565b610141818154811061175e57600080fd5b6000806120c7613099565b9150506120d381613aea565b91505090565b600061012f546120e830613afb565b6120f29190615483565b11156114435761144361012f5461210830613afb565b6121129190615483565b613b6b565b600061126084843385613831565b61212d612675565b609780546001600160a01b0319166001600160a01b0392909216919091179055565b61017d818154811061216057600080fd5b60009182526020909120600290910201805460019091015490915082565b60006101b35443106121905750600090565b436101b3546118589190615483565b6000806121af8585853333612d78565b91509150935093915050565b6121c3612675565b6000610134816121d66020850185614ff6565b6001600160a01b0316815260208082019290925260409081016000208151808301909252805482526001015460ff161515918101829052915061222c5760405163e6c4247b60e01b815260040160405180910390fd5b8051610135805482908110612243576122436153be565b6000918252602091829020600160029092020101546001600160a01b0316906122729060408601908601614ff6565b6001600160a01b0316146123655760006122926040850160208601614ff6565b90506000816001600160a01b03166359e02dd76040518163ffffffff1660e01b81526004016040805180830381865afa1580156122d3573d6000803e3d6000fd5b505050506040513d601f19601f820116820180604052508101906122f791906153d4565b915050806123185760405163e6c4247b60e01b815260040160405180910390fd5b81610135848154811061232d5761232d6153be565b906000526020600020906002020160010160006101000a8154816001600160a01b0302191690836001600160a01b0316021790555050505b8260400135610145828154811061237e5761237e6153be565b9060005260206000200181905550826060013561014182815481106123a5576123a56153be565b9060005260206000200181905550826080013561014282815481106123cc576123cc6153be565b90600052602060002001819055508260c0013561017d82815481106123f3576123f36153be565b906000526020600020906002020160010181905550807f6417e5a3c1e0e5dae98b8fe718c4babdfcb35e0d7b5e1b9641b5914756f5d8e3846040516124389190615416565b60405180910390a2505050565b61244d612675565b61013a55565b60008061245f83611a16565b905060008061246c613099565b9150915061248d61247b61346d565b6124858786613b86565b858585613bf8565b95945050505050565b6000806124a1613c41565b6124a9613181565b60006124b489611a16565b90506124c08982613c6b565b60006124ca6118bf565b90506000806124d883613cce565b915091506124e88b848484613d1c565b60006124f58c8484613d56565b509050806000036125195760405163f3e39b5d60e01b815260040160405180910390fd5b670de0b6b3a764000061013254868561253186613aea565b61253b9190615483565b8f6125469190615496565b6125509190615496565b61255a9190615389565b6125649190615389565b95506125748d8787878787613d9c565b8a86101561259f5760405163272e3f5960e21b8152600481018c90526024810187905260440161148d565b6125ac8161013e54613df0565b9650898711156125d957604051630b63f1a760e01b8152600481018b90526024810188905260440161148d565b604080518d8152602081018890529081018890528d908d906001600160a01b03808c1691908d169084907f0b0ee95633545edabb63afd3c3962a133536b36e2372f68c3c2722710ee0cd899060600160405180910390a4505061263e8c60008b613e0f565b61264b8d8760008b613e86565b60006126578b89613f11565b90506126648a828a613f36565b505050505050965096945050505050565b60975460405163d994d6d560e01b81523360048201526001600160a01b039091169063d994d6d590602401602060405180830381865afa1580156126bd573d6000803e3d6000fd5b505050506040513d601f19601f820116820180604052508101906126e191906153f9565b61144357604051631dd1b1b560e21b815260040160405180910390fd5b6000612708613c41565b612710613181565b60008061271f61014654613cce565b91509150600080612731898585613f8f565b909250905061274081836153ab565b94508785111561276d57604051630b63f1a760e01b8152600481018990526024810186905260440161148d565b8460000361278e5760405163f3e39b5d60e01b815260040160405180910390fd5b604080518a8152602081018790529081018290526001600160a01b0380881691908916907f62f0126e99b1936535db27571cea2b2d54db14a471b9203b29b31b89c300e4f69060600160405180910390a36127ea898388613fd0565b60006127f68987613f11565b9050612803888284613f36565b5050505050949350505050565b60008061281b613c41565b612823613181565b600061282e89611a16565b905061283a8982613c6b565b60008061284961014654613cce565b91509150600061285a8c8c866137b0565b509050612893610132548c61286f9190615496565b858561287a86613aea565b6128849190615483565b61288e9190615496565b614014565b9450898510806128a1575084155b156128c95760405163f577bef560e01b8152600481018b90526024810186905260440161148d565b6128d68161013d54613df0565b95508886111561290357604051630b63f1a760e01b8152600481018a90526024810187905260440161148d565b604080518c8152602081018790529081018790528c908c906001600160a01b03808b1691908c169084907ff77b7563e0c6c33e0b804a715d94c82baea057d2e6f8bfdc211fe04d3c03bad99060600160405180910390a450506129698c8c60008b614029565b61297585600089613fd0565b60006129818a88613f11565b905061298e898289613f36565b5050505050965096945050505050565b6000806129a9613c41565b6129b1613181565b60006129bc89611a16565b90506129c88982613c6b565b6000806129d761014754613cce565b91509150670de0b6b3a76400006101325484848d6129f59190615496565b6129ff9190615496565b612a099190615389565b612a139190615389565b935088841115612a4057604051637a031da360e11b8152600481018a90526024810185905260440161148d565b600080612a598d8d8888612a548989613145565b61408a565b9092509050612a688183615483565b965089871015612a95576040516354cde31360e01b8152600481018b90526024810188905260440161148d565b604080518d815260208101889052908101889052606081018290528d908d9089906001600160a01b038c811691908e169085907f879e4419a6544de6ea456f6344b2fcf0c3b9fc0e6738c82fa4026a8789747c539060800160405180910390a4505050612b038c838b613e0f565b612b108d8760008c614029565b61298e888883613f36565b6000612b25613c41565b612b2d613181565b6000612b3887611a16565b9050612b448782613c6b565b612b5061014654613cce565b5050600080612b608989856137b0565b9150915081600003612b855760405163f3e39b5d60e01b815260040160405180910390fd5b612b8f8183615483565b935086841015612bbc576040516354cde31360e01b8152600481018890526024810185905260440161148d565b60408051898152602081018690529081018290526001600160a01b0380871691908816908b907f4716c9926ce32100e8a5b6ad71af5500ac55514d7b0c8f80f209856c9dfaeb929060600160405180910390a4612c1b89898489614029565b612c26858583613f36565b50505095945050505050565b6000612c3c613c41565b612c44613181565b6000612c4f87611a16565b9050612c5b8782613c6b565b6000612c656118bf565b9050600080612c7383613cce565b91509150612c858a8a86868686613d9c565b600080612c938c8c886140ca565b9092509050612ca281836153ab565b965089871115612ccf57604051630b63f1a760e01b8152600481018b90526024810188905260440161148d565b86600003612cf05760405163f3e39b5d60e01b815260040160405180910390fd5b604080518c8152602081018990529081018290526001600160a01b03808a1691908b16908e907f05f8dfb23a03c1f9d37a1860fc8038ffdc6dec3e24db38cdb09cc0176b35453f9060600160405180910390a4612d4f8c8c848b613e86565b6000612d5b8b89613f11565b9050612d688a8284613f36565b5050505050505095945050505050565b600080612d83613c41565b612d8b613181565b6000806000612d998a611a16565b9050612da58a82613c6b565b612db161014754613cce565b5050612dbd8982614112565b91955093509150612dce82846153ab565b945087851115612dfb57604051630b63f1a760e01b8152600481018990526024810186905260440161148d565b84600003612e1c5760405163f3e39b5d60e01b815260040160405180910390fd5b60408051858152602081018b9052908101869052606081018390526001600160a01b0380881691908916908c907fcd3821e3a6afec66fdfa7a942b879811bb9919b2f270de090b6e00178cd7eaee9060800160405180910390a4612e81848488613fd0565b612e8e8a8a600089613e86565b6000612e9a8987613f11565b9050612ea7888285613f36565b505050509550959350505050565b600080612ec0613c41565b612ec8613181565b878903612ee857604051632a9ffab760e21b815260040160405180910390fd5b6000612ef38a611a16565b90506000612f008a611a16565b9050612f0c8b83613c6b565b612f168a82613c6b565b6000612f238c8b856137b0565b50905082612f31838c615496565b612f3b9190615389565b935088841080612f49575083155b15612f715760405163272e3f5960e21b8152600481018a90526024810185905260440161148d565b612f7b8c84613b86565b612f858c84613b86565b1115612fb9576000612f956118bf565b9050600080612fa383613cce565b91509150612fb58e8887868686613d9c565b5050505b612fc68161013c54613df0565b945087851115612ff357604051630b63f1a760e01b8152600481018990526024810186905260440161148d565b604080518c8152602081018c9052908101859052606081018690528c908c908c906001600160a01b03808b1691908c169085907f77d2223aca09d9ec6e49d1b8cdcb0b40dec540a5f65daf1ecab069c822bff4609060800160405180910390a45050506130638b85600089613e86565b6130708c8b60008a614029565b600061307c8987613f11565b9050613089888288613f36565b5050505097509795505050505050565b610135546000908190815b818110156131305760006130b782611a16565b90506000806130c684846141a1565b915091506131048261013586815481106130e2576130e26153be565b9060005260206000209060020201600001546130fe91906153ab565b84614014565b61310e90886153ab565b965061311a81876153ab565b95505050506131298160010190565b90506130a4565b5061313e8261013754613df0565b9150509091565b6000610132546000036131615750670de0b6b3a76400006111e3565b6111e08361316e84613aea565b6131789190615483565b61013254614014565b60ca54610100900460ff16156114435760405163783bb6c960e11b815260040160405180910390fd5b61012f5460008190036131ba5750565b610135546000808267ffffffffffffffff8111156131da576131da61516b565b604051908082528060200260200182016040528015613203578160200160208202803683370190505b50905060005b838110156132945761321a81611a16565b82828151811061322c5761322c6153be565b602002602001018181525050613280610135828154811061324f5761324f6153be565b906000526020600020906002020160000154838381518110613273576132736153be565b6020026020010151614014565b61328a90846153ab565b9250600101613209565b5060005b838110156132ee5761013685848484815181106132b7576132b76153be565b60200260200101516132c99190615496565b6132d39190615389565b81546001808201845560009384526020909320015501613298565b5050505050565b61152a612675565b7f4910fdfa16fed3260ed0e7147f7cc6da11a60208b5b9406d12a635614ffd91435460ff16156133355761333083614208565b505050565b826001600160a01b03166352d1902d6040518163ffffffff1660e01b8152600401602060405180830381865afa92505050801561338f575060408051601f3d908101601f1916820190925261338c918101906154ad565b60015b6133f25760405162461bcd60e51b815260206004820152602e60248201527f45524331393637557067726164653a206e657720696d706c656d656e7461746960448201526d6f6e206973206e6f74205555505360901b606482015260840161148d565b60008051602061562283398151915281146134615760405162461bcd60e51b815260206004820152602960248201527f45524331393637557067726164653a20756e737570706f727465642070726f786044820152681a58589b195555525160ba1b606482015260840161148d565b506133308383836142a4565b6101355460009081908190815b8181101561352a57600061348d82611a16565b9050600061349b83836141a1565b50905060006134e7670de0b6b3a76400008361013587815481106134c1576134c16153be565b9060005260206000209060020201600001546134dd91906153ab565b6130fe9190615496565b9050806134f48585613b86565b6134fe9190615496565b61350890886153ab565b965061351481876153ab565b95505050506135238160010190565b905061347a565b50816000036135425761014654600202935050505090565b61354c8284615389565b935050505090565b6000806135628585856142c9565b905061356e8484613145565b61248d9082615389565b611443614313565b600061358a613181565b61014854610100900460ff166135b35760405163031b0d3560e11b815260040160405180910390fd5b600061013385815481106135c9576135c96153be565b6000918252602090912001546040516370a0823160e01b81526001600160a01b038681166004830152909116906370a0823190602401602060405180830381865afa15801561361c573d6000803e3d6000fd5b505050506040513d601f19601f8201168201806040525081019061364091906154ad565b90508060000361366d57604051633fe8c5eb60e01b8152600481018290526024810182905260440161148d565b60006101368681548110613683576136836153be565b9060005260206000200154905061369a8282614014565b925061013386815481106136b0576136b06153be565b600091825260209091200154604051632770a7eb60e21b81526001600160a01b0387811660048301526024820185905290911690639dc29fac90604401600060405180830381600087803b15801561370757600080fd5b505af115801561371b573d6000803e3d6000fd5b505050508261372930613afb565b101561373b5761373830613afb565b92505b836001600160a01b0316856001600160a01b0316877f4716c9926ce32100e8a5b6ad71af5500ac55514d7b0c8f80f209856c9dfaeb9285876000604051613795939291909283526020830191909152604082015260600190565b60405180910390a46137a784846144d4565b50509392505050565b600080836000036137d457604051632a9ffab760e21b815260040160405180910390fd5b6137de8484614014565b91506138088261014287815481106137f8576137f86153be565b9060005260206000200154613df0565b9050935093915050565b60008260000361382557506000196111e3565b6111e06130fe83613aea565b600061383b613c41565b613843613181565b600061384d6118bf565b905060008061385b83613cce565b9150915061386b88848484613d1c565b6000806138798a8585613d56565b915091508160000361389e5760405163f3e39b5d60e01b815260040160405180910390fd5b6138a88183615483565b9550888610156138d5576040516354cde31360e01b8152600481018a90526024810187905260440161148d565b604080518b8152602081018890529081018290526001600160a01b0380891691908a16907f2d184907c04672620e3c88a12a39d6a603dd26373427842aa172eb3e5bfcff079060600160405180910390a36139318a838a613e0f565b612803878783613f36565b600054610100900460ff166139635760405162461bcd60e51b815260040161148d906154c6565b61398f61397861020083016101e08401614ff6565b61398a61022084016102008501614ff6565b614505565b61399881614548565b6139a68161022001356147ad565b61152a816102400135614807565b6000806139c083613aea565b90506116618161288e8682615483565b600061017d82815481106139e6576139e66153be565b60009182526020808320604080518082019091526002909302018054835260010154908201529150613a1783611a16565b905060008260200151670de0b6b3a7640000613a339190615483565b8351613a3f9190615496565b90506000828460200151613a539190615496565b90506000670de0b6b3a7640000613a6a83856153ab565b613a749190615389565b90508061017d8781548110613a8b57613a8b6153be565b6000918252602090912060029091020155845160405187917f19156e9379c7bbbce8f646ce5ee30ba860b8f954717405f3d5859a6c1a21ae6091613ada91908590918252602082015260400190565b60405180910390a2505050505050565b60008161012f546111e39190615483565b61024a546040516370a0823160e01b81526001600160a01b03838116600483015260009216906370a0823190602401602060405180830381865afa158015613b47573d6000803e3d6000fd5b505050506040513d601f19601f820116820180604052508101906111e391906154ad565b8061012f6000828254613b7e91906153ab565b909155505050565b6000806101458481548110613b9d57613b9d6153be565b90600052602060002001549050600061017d8581548110613bc057613bc06153be565b9060005260206000209060020201600001549050838110613be3575090506111e3565b80613bee8584615496565b61248d9190615389565b6000670de0b6b3a7640000613c0d8187615483565b85613c198987876142c9565b613c239190615496565b613c2d9190615389565b613c379190615389565b9695505050505050565b61014854610100900460ff161561144357604051631ca61d7760e01b815260040160405180910390fd5b613c758282614845565b6101498381548110613c8957613c896153be565b906000526020600020016000828254613ca29190615511565b925050819055508061014a8381548110613cbe57613cbe6153be565b6000918252602090912001555050565b600080613cd9613099565b90925090506000613cea8383613812565b9050838111613d1657604051637912120160e01b8152600481018290526024810185905260440161148d565b50915091565b6000613d29848484613554565b9050848110156132ee5760405163a5db715d60e01b8152600481018690526024810182905260440161148d565b60008084600003613d7a57604051632a9ffab760e21b815260040160405180910390fd5b613d8d85613d888686613145565b613df0565b91506138088261013b54613df0565b6000613da88786613b86565b90506000613db98583888787613bf8565b905086811015613de65760405163c39b739f60e01b8152600481018890526024810182905260440161148d565b5050505050505050565b6000670de0b6b3a7640000613e058385615496565b6111e09190615389565b613e1983836148c1565b61013154604051632770a7eb60e21b81526001600160a01b0383811660048301526024820186905290911690639dc29fac906044015b600060405180830381600087803b158015613e6957600080fd5b505af1158015613e7d573d6000803e3d6000fd5b50505050505050565b613e918484846148f7565b6101338481548110613ea557613ea56153be565b6000918252602090912001546040516340c10f1960e01b81526001600160a01b03838116600483015260248201869052909116906340c10f19906044015b600060405180830381600087803b158015613efd57600080fd5b505af1158015613de6573d6000803e3d6000fd5b61024a54600090613f2d906001600160a01b031633308561493b565b50600092915050565b6000613f456101395483613df0565b90508061012f6000828254613f5a91906153ab565b909155505061014354613f7f906001600160a01b0316613f7a8385615483565b6144d4565b613f8984846144d4565b50505050565b60008084600003613fb357604051632a9ffab760e21b815260040160405180910390fd5b613fc185613d888686613145565b91506138088261013a54613df0565b613fda83836149a6565b610131546040516340c10f1960e01b81526001600160a01b03838116600483015260248201869052909116906340c10f1990604401613e4f565b600081613e05670de0b6b3a764000085615496565b6140348484846149c8565b6101338481548110614048576140486153be565b600091825260209091200154604051632770a7eb60e21b81526001600160a01b0383811660048301526024820186905290911690639dc29fac90604401613ee3565b6000806140988786866137b0565b5091506140a58684613df0565b6140af90836153ab565b91506140be8261013f54613df0565b90509550959350505050565b600080836000036140ee57604051632a9ffab760e21b815260040160405180910390fd5b6140f88484614014565b91506138088261014187815481106137f8576137f86153be565b6000806000806000614122613099565b9150915060006141328383613145565b905086670de0b6b3a764000061414661346d565b6141509190615483565b61415a908a615496565b6141649190615389565b94506141708582614014565b955061417c8888614014565b61418690866153ab565b94506141958561014054613df0565b93505050509250925092565b60008060006141b08585614845565b61014986815481106141c4576141c46153be565b90600052602060002001546141d99190615511565b90506000811315614200578091506141fd6141f76101385486613df0565b83613df0565b92505b509250929050565b6001600160a01b0381163b6142755760405162461bcd60e51b815260206004820152602d60248201527f455243313936373a206e657720696d706c656d656e746174696f6e206973206e60448201526c1bdd08184818dbdb9d1c9858dd609a1b606482015260840161148d565b60008051602061562283398151915280546001600160a01b0319166001600160a01b0392909216919091179055565b6142ad83614a21565b6000825111806142ba5750805b1561333057613f898383614a61565b6000836142d68484613812565b116142e357506000611263565b6142ed8385615496565b670de0b6b3a76400006142ff84613aea565b6143099190615496565b6112609190615483565b61013554600090818167ffffffffffffffff8111156143345761433461516b565b60405190808252806020026020018201604052801561435d578160200160208202803683370190505b50905060005b8281101561445157600061437682611a16565b90506143828282613c6b565b60006101498381548110614398576143986153be565b906000526020600020015490506000811315614447576143c46143be6101385484613df0565b82613df0565b8484815181106143d6576143d66153be565b60209081029190910101526143eb81876153ab565b955060006101498481548110614403576144036153be565b906000526020600020018190555061444783858581518110614427576144276153be565b6020908102919091010151610144546000906001600160a01b0316613e86565b5050600101614363565b508215614496576144658361013754613df0565b92508261012f600082825461447a9190615483565b909155505061014354614496906001600160a01b0316846144d4565b7fae5116a8119d08673a0f1dfa7546b95da4bd54bb17feda7c61130ac7859152f683826040516144c7929190615539565b60405180910390a1505050565b6144dc614b4c565b80156144fa5761024a546144fa906001600160a01b03168383614ba7565b61173560016101e655565b600054610100900460ff1661452c5760405162461bcd60e51b815260040161148d906154c6565b614534614bd7565b61453d82614bfe565b611735816001614c2e565b600054610100900460ff1661456f5760405162461bcd60e51b815260040161148d906154c6565b670de0b6b3a76400008160600135101561459c57604051632a9ffab760e21b815260040160405180910390fd5b6145a98160a00135614c91565b6145b68160c00135614c91565b6145c38160e00135614c91565b6145d1816101000135614c91565b6145df816101200135614c91565b6145ed816101400135614c91565b6145fb816101600135614c91565b614609816101800135614c91565b6146256146206101c08301356101a08401356153ab565b614c91565b6146326020820182614ff6565b61013180546001600160a01b0319166001600160a01b0392909216918217905560405163d55fd84560e01b815230600482015263d55fd84590602401602060405180830381865afa15801561468b573d6000803e3d6000fd5b505050506040513d601f19601f820116820180604052508101906146af91906153f9565b6146cc5760405163e6c4247b60e01b815260040160405180910390fd5b6146dc6040820160208301614ff6565b61014380546001600160a01b0319166001600160a01b039290921691909117905561470d6060820160408301614ff6565b61014480546001600160a01b0319166001600160a01b039290921691909117905560608101356101465560808101356101475560a08101356101395560c081013561013a5560e081013561013b5561010081013561013c5561012081013561013d556101408082013561013e5561016082013561013f5561018082013590556101a0810135610137556101c0013561013855610148805461ffff19169055565b600054610100900460ff166147d45760405162461bcd60e51b815260040161148d906154c6565b806000036147f557604051632a9ffab760e21b815260040160405180910390fd5b61017f81905561152a81430161017e55565b600054610100900460ff1661482e5760405162461bcd60e51b815260040161148d906154c6565b6101b281905561483e81436153ab565b6101b35550565b600080670de0b6b3a76400006101358581548110614865576148656153be565b9060005260206000209060020201600001546148819190615496565b905061488d8382615389565b61014a85815481106148a1576148a16153be565b9060005260206000200154826148b79190615389565b6116619190615587565b8161013260008282546148d49190615483565b925050819055508061012f60008282546148ee9190615483565b90915550505050565b81610135848154811061490c5761490c6153be565b9060005260206000209060020201600001600082825461492c91906153ab565b90915550613330905081613b6b565b6040516001600160a01b0380851660248301528316604482015260648101829052613f899085906323b872dd60e01b906084015b60408051601f198184030181529190526020810180516001600160e01b03166001600160e01b031990931692909217909152614cba565b8161013260008282546149b991906153ab565b90915550611735905081613b6b565b8161013584815481106149dd576149dd6153be565b906000526020600020906002020160000160008282546149fd9190615483565b925050819055508061012f6000828254614a179190615483565b9091555050505050565b614a2a81614208565b6040516001600160a01b038216907fbc7cd75a20ee27fd9adebab32041f755214dbc6bffa90cc0225b39da2e5c2d3b90600090a250565b60606001600160a01b0383163b614ac95760405162461bcd60e51b815260206004820152602660248201527f416464726573733a2064656c65676174652063616c6c20746f206e6f6e2d636f6044820152651b9d1c9858dd60d21b606482015260840161148d565b600080846001600160a01b031684604051614ae491906155d2565b600060405180830381855af49150503d8060008114614b1f576040519150601f19603f3d011682016040523d82523d6000602084013e614b24565b606091505b509150915061248d828260405180606001604052806027815260200161564260279139614d8c565b60026101e65403614b9f5760405162461bcd60e51b815260206004820152601f60248201527f5265656e7472616e637947756172643a207265656e7472616e742063616c6c00604482015260640161148d565b60026101e655565b6040516001600160a01b03831660248201526044810182905261333090849063a9059cbb60e01b9060640161496f565b600054610100900460ff166114435760405162461bcd60e51b815260040161148d906154c6565b600054610100900460ff16614c255760405162461bcd60e51b815260040161148d906154c6565b61152a81614da5565b600054610100900460ff16614c555760405162461bcd60e51b815260040161148d906154c6565b60ca80546001600160a01b03909316620100000262010000600160b01b03199215159290921661ff01600160b01b031990931692909217179055565b670de0b6b3a764000081111561152a57604051632a9ffab760e21b815260040160405180910390fd5b6000614d0f826040518060400160405280602081526020017f5361666545524332303a206c6f772d6c6576656c2063616c6c206661696c6564815250856001600160a01b0316614dcc9092919063ffffffff16565b8051909150156133305780806020019051810190614d2d91906153f9565b6133305760405162461bcd60e51b815260206004820152602a60248201527f5361666545524332303a204552433230206f7065726174696f6e20646964206e6044820152691bdd081cdd58d8d9595960b21b606482015260840161148d565b60608315614d9b575081611263565b6112638383614ddb565b600054610100900460ff1661212d5760405162461bcd60e51b815260040161148d906154c6565b60606112608484600085614e05565b815115614deb5781518083602001fd5b8060405162461bcd60e51b815260040161148d91906155ee565b606082471015614e665760405162461bcd60e51b815260206004820152602660248201527f416464726573733a20696e73756666696369656e742062616c616e636520666f6044820152651c8818d85b1b60d21b606482015260840161148d565b600080866001600160a01b03168587604051614e8291906155d2565b60006040518083038185875af1925050503d8060008114614ebf576040519150601f19603f3d011682016040523d82523d6000602084013e614ec4565b606091505b5091509150614ed587838387614ee0565b979650505050505050565b60608315614f4f578251600003614f48576001600160a01b0385163b614f485760405162461bcd60e51b815260206004820152601d60248201527f416464726573733a2063616c6c20746f206e6f6e2d636f6e7472616374000000604482015260640161148d565b5081611661565b6116618383614ddb565b6001600160a01b038116811461152a57600080fd5b600080600080600060a08688031215614f8657600080fd5b853594506020860135935060408601359250606086013591506080860135614fad81614f59565b809150509295509295909350565b600060208284031215614fcd57600080fd5b5035919050565b60008060408385031215614fe757600080fd5b50508035926020909101359150565b60006020828403121561500857600080fd5b813561126381614f59565b6000806000806080858703121561502957600080fd5b5050823594602084013594506040840135936060013592509050565b60008060006060848603121561505a57600080fd5b505081359360208301359350604090920135919050565b6000806000806080858703121561508757600080fd5b84359350602085013592506040850135915060608501356150a781614f59565b939692955090935050565b60008060008060008060c087890312156150cb57600080fd5b863595506020870135945060408701359350606087013592506080870135915060a08701356150f981614f59565b809150509295509295509295565b801515811461152a57600080fd5b60006020828403121561512757600080fd5b813561126381615107565b60008060006060848603121561514757600080fd5b8335925060208401359150604084013561516081614f59565b809150509250925092565b634e487b7160e01b600052604160045260246000fd5b6000806040838503121561519457600080fd5b823561519f81614f59565b9150602083013567ffffffffffffffff808211156151bc57600080fd5b818501915085601f8301126151d057600080fd5b8135818111156151e2576151e261516b565b604051601f8201601f19908116603f0116810190838211818310171561520a5761520a61516b565b8160405282815288602084870101111561522357600080fd5b8260208601602083013760006020848301015280955050505050509250929050565b6000806040838503121561525857600080fd5b82359150602083013561526a81614f59565b809150509250929050565b6000610280828403121561528857600080fd5b50919050565b600080600080600060a086880312156152a657600080fd5b505083359560208501359550604085013594606081013594506080013592509050565b600060e0828403121561528857600080fd5b6020808252602c908201527f46756e6374696f6e206d7573742062652063616c6c6564207468726f7567682060408201526b19195b1959d85d1958d85b1b60a21b606082015260800190565b6020808252602c908201527f46756e6374696f6e206d7573742062652063616c6c6564207468726f7567682060408201526b6163746976652070726f787960a01b606082015260800190565b634e487b7160e01b600052601160045260246000fd5b6000826153a657634e487b7160e01b600052601260045260246000fd5b500490565b808201808211156111e3576111e3615373565b634e487b7160e01b600052603260045260246000fd5b600080604083850312156153e757600080fd5b82519150602083015161526a81615107565b60006020828403121561540b57600080fd5b815161126381615107565b60e08101823561542581614f59565b6001600160a01b03908116835260208401359061544182614f59565b8082166020850152505060408301356040830152606083013560608301526080830135608083015260a083013560a083015260c083013560c083015292915050565b818103818111156111e3576111e3615373565b80820281158282048414176111e3576111e3615373565b6000602082840312156154bf57600080fd5b5051919050565b6020808252602b908201527f496e697469616c697a61626c653a20636f6e7472616374206973206e6f74206960408201526a6e697469616c697a696e6760a81b606082015260800190565b808201828112600083128015821682158216171561553157615531615373565b505092915050565b6000604082018483526020604081850152818551808452606086019150828701935060005b8181101561557a5784518352938301939183019160010161555e565b5090979650505050505050565b81810360008312801583831316838312821617156155a7576155a7615373565b5092915050565b60005b838110156155c95781810151838201526020016155b1565b50506000910152565b600082516155e48184602087016155ae565b9190910192915050565b602081526000825180602084015261560d8160408501602087016155ae565b601f01601f1916919091016040019291505056fe360894a13ba1a3210667c828492db98dca3e2076cc3735a920a3ca505d382bbc416464726573733a206c6f772d6c6576656c2064656c65676174652063616c6c206661696c6564a26469706673582212206b93f8148470c05d52ca24714ec4348d9585719d5b70af0cce1ce4bd0b026baa64736f6c63430008110033",
  "linkReferences": {},
  "deployedLinkReferences": {},
  "devdoc": {
    "details": "Only for upgradeability testing purposes. Extends MocCARC20Mock adding a new variable.",
    "kind": "dev",
    "methods": {
      "addPeggedToken((address,address,uint256,uint256,uint256,uint256,uint256))": {
        "details": "Note that the ema value, should consider `nextEmaCalculation`tpTokenAddress Pegged Token contract address to add      priceProviderAddress Pegged Token price provider contract address      tpCtarg Pegged Token target coverage [PREC]      tpMintFee additional fee pct applied on mint [PREC]      tpRedeemFee additional fee pct applied on redeem [PREC]      tpEma initial Pegged Token exponential moving average [PREC]      tpEmaSf Pegged Token smoothing factor [PREC]  Requirements: - the caller must have governance authorization. - tpTokenAddress must be a MocRC20, with mint, burn roles already settled  for this contract",
        "params": {
          "peggedTokenParams_": "params of Pegged Token to add"
        }
      },
      "calcCtargemaCA()": {
        "details": "qAC = nTP / pACtp      ctargemaCA = (ctargemaTP * qAC) / (qAC)",
        "returns": {
          "ctargemaCA": "[PREC]"
        }
      },
      "changeGovernor(address)": {
        "params": {
          "newGovernor_": "New governor address"
        }
      },
      "editPeggedToken((address,address,uint256,uint256,uint256,uint256,uint256))": {
        "details": "Note that the ema value, should consider `nextEmaCalculation`tpTokenAddress Pegged Token contract address to identify the token to edit      priceProviderAddress Pegged Token price provider contract address      tpCtarg Pegged Token target coverage [PREC]      tpMintFee additional fee pct applied on mint [PREC]      tpRedeemFee additional fee pct applied on redeem [PREC]      tpEma initial Pegged Token exponential moving average [PREC]      tpEmaSf Pegged Token smoothing factor [PREC]  Requirements: - the caller must have governance authorization. - the tpTokenAddress must exists",
        "params": {
          "peggedTokenParams_": "params of Pegged Token to add"
        }
      },
      "getCglb()": {
        "returns": {
          "cglob": "[PREC]"
        }
      },
      "getLeverageTC()": {
        "returns": {
          "leverageTC": "[PREC]"
        }
      },
      "getPACtp(uint256)": {
        "params": {
          "i_": "Pegged Token index"
        },
        "returns": {
          "_0": "price [PREC]"
        }
      },
      "getPTCac()": {
        "returns": {
          "pTCac": "[PREC]"
        }
      },
      "getQACforRedeemTP(uint256,uint256)": {
        "params": {
          "i_": "Pegged Token index",
          "qTP_": "amount of Pegged Token to redeem"
        },
        "returns": {
          "qACfee": "amount of Collateral Asset in concept of fees [N]",
          "qACtotalToRedeem": "amount of Collateral Asset needed to redeem, including fees [N]"
        }
      },
      "getTCAvailableToRedeem()": {
        "details": "because it is a view function we are not calculating the new ema,  since we are using the last ema calculation, this may differ a little from the real amount  of TC available to redeem. Consider it an approximation.",
        "returns": {
          "tcAvailableToRedeem": "[N]"
        }
      },
      "getTPAvailableToMint(uint256)": {
        "details": "because it is a view function we are not calculating the new ema,  since we are using the last ema calculation, this may differ a little from the real amount  of TP available to mint. Consider it an approximation.",
        "params": {
          "i_": "Pegged Token index"
        },
        "returns": {
          "tpAvailableToMint": "[N]"
        }
      },
      "getTotalACavailable()": {
        "returns": {
          "totalACavailable": "[N]"
        }
      },
      "initialize((((address,address,address,uint256,uint256,uint256,uint256,uint256,uint256,uint256,uint256,uint256,uint256,uint256,uint256),address,address,uint256,uint256),address))": {
        "details": "governorAddress The address that will define when a change contract is authorized      pauserAddress The address that is authorized to pause this contract      acTokenAddress Collateral Asset Token contract address      tcTokenAddress Collateral Token contract address      mocFeeFlowAddress Moc Fee Flow contract address      mocAppreciationBeneficiaryAddress Moc appreciation beneficiary address      protThrld protected state threshold [PREC]      liqThrld liquidation coverage threshold [PREC]      feeRetainer pct retain on fees to be re-injected as Collateral, while paying fees with AC [PREC]      tcMintFee additional fee pct applied on mint Collateral Tokens operations [PREC]      tcRedeemFee additional fee pct applied on redeem Collateral Tokens operations [PREC]      successFee pct of the gain because Pegged Tokens devaluation that is transferred        in Collateral Asset to Moc Fee Flow during the settlement [PREC]      appreciationFactor pct of the gain because Pegged Tokens devaluation that is returned        in Pegged Tokens to appreciation beneficiary during the settlement [PREC]      emaCalculationBlockSpan amount of blocks to wait between Pegged ema calculation",
        "params": {
          "initializeParams_": "contract initializer params"
        }
      },
      "isLiquidationReached()": {
        "returns": {
          "_0": "true if liquidation state is reached, false otherwise"
        }
      },
      "liqRedeemTP(uint256)": {
        "params": {
          "i_": "Pegged Token index"
        },
        "returns": {
          "qACRedeemed": "amount of AC sent to sender"
        }
      },
      "liqRedeemTPto(uint256,address)": {
        "params": {
          "i_": "Pegged Token index",
          "recipient_": "address who receives the AC"
        },
        "returns": {
          "qACRedeemed": "amount of AC sent to `recipient_`"
        }
      },
      "makeStoppable()": {
        "details": "Should be called through governance"
      },
      "makeUnstoppable()": {
        "details": "Should be called through governance"
      },
      "mintTC(uint256,uint256)": {
        "params": {
          "qACmax_": "maximum amount of Collateral Asset that can be spent",
          "qTC_": "amount of Collateral Token to mint"
        },
        "returns": {
          "qACtotalNeeded": "amount of AC used to mint qTC"
        }
      },
      "mintTCandTP(uint256,uint256,uint256)": {
        "params": {
          "i_": "Pegged Token index",
          "qACmax_": "maximum amount of Collateral Asset that can be spent",
          "qTP_": "amount of Pegged Token to mint"
        },
        "returns": {
          "qACtotalNeeded": "amount of AC used to mint Collateral Token and Pegged Token",
          "qTCtoMint": "amount of Collateral Token minted"
        }
      },
      "mintTCandTPto(uint256,uint256,uint256,address)": {
        "params": {
          "i_": "Pegged Token index",
          "qACmax_": "maximum amount of Collateral Asset that can be spent",
          "qTP_": "amount of Pegged Token to mint",
          "recipient_": "address who receives the Collateral Token and Pegged Token"
        },
        "returns": {
          "qACtotalNeeded": "amount of AC used to mint Collateral Token and Pegged Token",
          "qTCtoMint": "amount of Collateral Token minted"
        }
      },
      "mintTCto(uint256,uint256,address)": {
        "params": {
          "qACmax_": "maximum amount of Collateral Asset that can be spent",
          "qTC_": "amount of Collateral Token to mint",
          "recipient_": "address who receives the Collateral Token"
        },
        "returns": {
          "qACtotalNeeded": "amount of AC used to mint qTC"
        }
      },
      "mintTP(uint256,uint256,uint256)": {
        "params": {
          "i_": "Pegged Token index to mint",
          "qACmax_": "maximum amount of Collateral Asset that can be spent",
          "qTP_": "amount of Pegged Token to mint"
        },
        "returns": {
          "qACtotalNeeded": "amount of AC used to mint qTP"
        }
      },
      "mintTPto(uint256,uint256,uint256,address)": {
        "params": {
          "i_": "Pegged Token index to mint",
          "qACmax_": "maximum amount of Collateral Asset that can be spent",
          "qTP_": "amount of Pegged Token to mint",
          "recipient_": "address who receives the Pegged Token"
        },
        "returns": {
          "qACtotalNeeded": "amount of AC used to mint qTP"
        }
      },
      "pause()": {
        "details": "Should only be called by the pauser and when it is stoppable"
      },
      "proxiableUUID()": {
        "details": "Implementation of the ERC1822 {proxiableUUID} function. This returns the storage slot used by the implementation. It is used to validate the implementation's compatibility when performing an upgrade. IMPORTANT: A proxy pointing at a proxiable contract should not be considered proxiable itself, because this risks bricking a proxy that upgrades to it, by delegating to itself until out of gas. Thus it is critical that this function revert if invoked through a proxy. This is guaranteed by the `notDelegated` modifier."
      },
      "redeemTC(uint256,uint256)": {
        "params": {
          "qACmin_": "minimum amount of Collateral Asset that sender expects to receive",
          "qTC_": "amount of Collateral Token to redeem"
        },
        "returns": {
          "qACRedeemed": "amount of AC sent to sender"
        }
      },
      "redeemTCandTP(uint256,uint256,uint256,uint256)": {
        "params": {
          "i_": "Pegged Token index",
          "qACmin_": "minimum amount of Collateral Asset that the sender expects to receive",
          "qTC_": "maximum amount of Collateral Token to redeem",
          "qTP_": "maximum amount of Pegged Token to redeem"
        },
        "returns": {
          "qACRedeemed": "amount of AC sent to the sender",
          "qTPRedeemed": "amount of Pegged Token redeemed"
        }
      },
      "redeemTCandTPto(uint256,uint256,uint256,uint256,address)": {
        "params": {
          "i_": "Pegged Token index",
          "qACmin_": "minimum amount of Collateral Asset that `recipient_` expects to receive",
          "qTC_": "maximum amount of Collateral Token to redeem",
          "qTP_": "maximum amount of Pegged Token to redeem",
          "recipient_": "address who receives the Collateral Asset"
        },
        "returns": {
          "qACRedeemed": "amount of AC sent to the `recipient_`",
          "qTPRedeemed": "amount of Pegged Token redeemed"
        }
      },
      "redeemTCto(uint256,uint256,address)": {
        "params": {
          "qACmin_": "minimum amount of Collateral Asset that `recipient_` expects to receive",
          "qTC_": "amount of Collateral Token to redeem",
          "recipient_": "address who receives the Collateral Asset"
        },
        "returns": {
          "qACRedeemed": "amount of AC sent to 'recipient_'"
        }
      },
      "redeemTP(uint256,uint256,uint256)": {
        "params": {
          "i_": "Pegged Token index to redeem",
          "qACmin_": "minimum amount of Collateral Asset that sender expects to receive",
          "qTP_": "amount of Pegged Token to redeem"
        },
        "returns": {
          "qACRedeemed": "amount of AC sent to sender"
        }
      },
      "redeemTPto(uint256,uint256,uint256,address)": {
        "params": {
          "i_": "Pegged Token index to redeem",
          "qACmin_": "minimum amount of Collateral Asset that `recipient_` expects to receive",
          "qTP_": "amount of Pegged Token to redeem",
          "recipient_": "address who receives the Collateral Asset"
        },
        "returns": {
          "qACRedeemed": "amount of AC sent to 'recipient_'"
        }
      },
      "refreshACBalance()": {
        "details": "Intended to be use as notification after an RC20 AC transfer to this contract"
      },
      "setAppreciationFactor(uint256)": {
        "details": "sets appreciation Factor value.",
        "params": {
          "appreciationFactor_": "pct of the gain because Pegged Tokens devaluation that is returned in Pegged Tokens to appreciation beneficiary during the settlement [PREC]"
        }
      },
      "setBes(uint256)": {
        "params": {
          "bes_": "number of blocks between settlements*"
        }
      },
      "setEmaCalculationBlockSpan(uint256)": {
        "params": {
          "blockSpan_": "Defines how many blocks should pass between BMA calculations*"
        }
      },
      "setFeeRetainer(uint256)": {
        "details": "sets the fee pct to be retainer on AC fees payments as AC re-injection.",
        "params": {
          "feeRetainer_": "pct retain on fees to be re-injected as Collateral, while paying fees with AC [PREC] 0% = 0; 1% = 10 ** 16; 100% = 10 ** 18"
        }
      },
      "setLiqEnabled(bool)": {
        "details": "enables and disables the liquidation mechanism.",
        "params": {
          "liqEnabled_": "is liquidation enabled"
        }
      },
      "setLiqThrld(uint256)": {
        "details": "sets the value of the liq threshold configuration param",
        "params": {
          "liqThrld_": "liquidation threshold"
        }
      },
      "setMintTCandTPFee(uint256)": {
        "details": "sets the fee charged when mint Collateral Token and Pegged Token in one operation.",
        "params": {
          "mintTCandTPFee_": "additional fee pct applied on mint Collateral Token and Pegged Token [PREC] 0% = 0; 1% = 10 ** 16; 100% = 10 ** 18"
        }
      },
      "setMocAppreciationBeneficiaryAddress(address)": {
        "details": "sets Moc Appreciation Beneficiary Address",
        "params": {
          "mocAppreciationBeneficiaryAddress_": "moc Appreciation Beneficiary new address"
        }
      },
      "setMocFeeFlowAddress(address)": {
        "details": "sets Moc Fee Flow contract address",
        "params": {
          "mocFeeFlowAddress_": "moc Fee Flow new contract address"
        }
      },
      "setPauser(address)": {
        "details": "Should be called through governance",
        "params": {
          "newPauser_": "Address of the new pauser"
        }
      },
      "setProtThrld(uint256)": {
        "details": "sets the value of the protected threshold configuration param",
        "params": {
          "protThrld_": "coverage protected state threshold [PREC]"
        }
      },
      "setRedeemTCandTPFee(uint256)": {
        "details": "sets the fee charged when redeem Collateral Token and Pegged Token in one operation.",
        "params": {
          "redeemTCandTPFee_": "additional fee pct applied on redeem Collateral Token and Pegged Token [PREC] 0% = 0; 1% = 10 ** 16; 100% = 10 ** 18"
        }
      },
      "setSuccessFee(uint256)": {
        "details": "sets success Fee value.",
        "params": {
          "successFee_": "pct of the gain because Pegged Tokens devaluation that is transferred in Collateral Asset to Moc Fee Flow during the settlement [PREC]"
        }
      },
      "setSwapTCforTPFee(uint256)": {
        "details": "sets the fee charged when swap Collateral Token for a Pegged Token.",
        "params": {
          "swapTCforTPFee_": "additional fee pct applied on swap Collateral Token for a Pegged Token [PREC] 0% = 0; 1% = 10 ** 16; 100% = 10 ** 18"
        }
      },
      "setSwapTPforTCFee(uint256)": {
        "details": "sets the fee charged when swap a Pegged Token for Collateral Token.",
        "params": {
          "swapTPforTCFee_": "additional fee pct applied on swap a Pegged Token for Collateral Token [PREC] 0% = 0; 1% = 10 ** 16; 100% = 10 ** 18"
        }
      },
      "setSwapTPforTPFee(uint256)": {
        "details": "sets the fee charged when swap a Pegged Token for another Pegged Token.",
        "params": {
          "swapTPforTPFee_": "additional fee pct applied on swap a Pegged Token for another Pegged Token [PREC] 0% = 0; 1% = 10 ** 16; 100% = 10 ** 18"
        }
      },
      "setTcMintFee(uint256)": {
        "details": "sets the fee charged on Token Collateral mint.",
        "params": {
          "tcMintFee_": "addition fee pct applied on Collateral Tokens mint [PREC] 0% = 0; 1% = 10 ** 16; 100% = 10 ** 18"
        }
      },
      "setTcRedeemFee(uint256)": {
        "details": "sets the fee charged on Token Collateral redeem.",
        "params": {
          "tcRedeemFee_": "addition fee pct applied on Collateral Tokens redeem [PREC] 0% = 0; 1% = 10 ** 16; 100% = 10 ** 18"
        }
      },
      "swapTCforTP(uint256,uint256,uint256,uint256)": {
        "params": {
          "i_": "Pegged Token index",
          "qACmax_": "maximum amount of Collateral Asset that can be spent in fees",
          "qTC_": "amount of Collateral Token to swap",
          "qTPmin_": "minimum amount of Pegged Token that the sender expects to receive"
        },
        "returns": {
          "qACFee": "amount of AC used to pay fee",
          "qTPMinted": "amount of Pegged Token minted"
        }
      },
      "swapTCforTPto(uint256,uint256,uint256,uint256,address)": {
        "params": {
          "i_": "Pegged Token index",
          "qACmax_": "maximum amount of Collateral Asset that can be spent in fees",
          "qTC_": "amount of Collateral Token to swap",
          "qTPmin_": "minimum amount of Pegged Token that `recipient_` expects to receive",
          "recipient_": "address who receives the Pegged Token"
        },
        "returns": {
          "qACFee": "amount of AC used to pay fee",
          "qTPMinted": "amount of Pegged Token minted"
        }
      },
      "swapTPforTC(uint256,uint256,uint256,uint256)": {
        "params": {
          "i_": "Pegged Token index",
          "qACmax_": "maximum amount of Collateral Asset that can be spent in fees",
          "qTCmin_": "minimum amount of Collateral Token that the sender expects to receive",
          "qTP_": "amount of owned Pegged Token to swap"
        },
        "returns": {
          "qACFee": "amount of AC used to pay fee",
          "qTPMinted": "amount of Collateral Token minted"
        }
      },
      "swapTPforTCto(uint256,uint256,uint256,uint256,address)": {
        "params": {
          "i_": "Pegged Token index",
          "qACmax_": "maximum amount of Collateral Asset that can be spent in fees",
          "qTCmin_": "minimum amount of Collateral Token that `recipient_` expects to receive",
          "qTP_": "amount of owned Pegged Token to swap",
          "recipient_": "address who receives the Collateral Token"
        },
        "returns": {
          "qACFee": "amount of AC used to pay fee",
          "qTPMinted": "amount of Collateral Token minted"
        }
      },
      "swapTPforTP(uint256,uint256,uint256,uint256,uint256)": {
        "params": {
          "iFrom_": "owned Pegged Token index",
          "iTo_": "target Pegged Token index",
          "qACmax_": "maximum amount of Collateral Asset that can be spent in fees",
          "qTP_": "amount of owned Pegged Token to swap",
          "qTPmin_": "minimum amount of target Pegged Token that the sender expects to receive"
        },
        "returns": {
          "qACFee": "amount of AC used to pay fee",
          "qTPMinted": "amount of Pegged Token minted"
        }
      },
      "swapTPforTPto(uint256,uint256,uint256,uint256,uint256,address)": {
        "params": {
          "iFrom_": "owned Pegged Token index",
          "iTo_": "target Pegged Token index",
          "qACmax_": "maximum amount of Collateral Asset that can be spent in fees",
          "qTP_": "amount of owned Pegged Token to swap",
          "qTPmin_": "minimum amount of target Pegged Token that `recipient_` expects to receive",
          "recipient_": "address who receives the target Pegged Token"
        },
        "returns": {
          "qACFee": "amount of AC used to pay fee",
          "qTPMinted": "amount of Pegged Token minted"
        }
      },
      "updateEmas()": {
        "details": "All price provider prices must be available, fails if not"
      },
      "upgradeTo(address)": {
        "details": "Upgrade the implementation of the proxy to `newImplementation`. Calls {_authorizeUpgrade}. Emits an {Upgraded} event."
      },
      "upgradeToAndCall(address,bytes)": {
        "details": "Upgrade the implementation of the proxy to `newImplementation`, and subsequently execute the function call encoded in `data`. Calls {_authorizeUpgrade}. Emits an {Upgraded} event."
      }
    },
    "title": "MocCARC20Mock",
    "version": 1
  },
  "evm": {
    "bytecode": {
      "linkReferences": {},
      "opcodes": "PUSH1 0xA0 PUSH1 0x40 MSTORE ADDRESS PUSH1 0x80 MSTORE CALLVALUE DUP1 ISZERO PUSH3 0x15 JUMPI PUSH1 0x0 DUP1 REVERT JUMPDEST POP PUSH3 0x20 PUSH3 0x30 JUMP JUMPDEST PUSH3 0x2A PUSH3 0x30 JUMP JUMPDEST PUSH3 0xF2 JUMP JUMPDEST PUSH1 0x0 SLOAD PUSH2 0x100 SWAP1 DIV PUSH1 0xFF AND ISZERO PUSH3 0x9D JUMPI PUSH1 0x40 MLOAD PUSH3 0x461BCD PUSH1 0xE5 SHL DUP2 MSTORE PUSH1 0x20 PUSH1 0x4 DUP3 ADD MSTORE PUSH1 0x27 PUSH1 0x24 DUP3 ADD MSTORE PUSH32 0x496E697469616C697A61626C653A20636F6E747261637420697320696E697469 PUSH1 0x44 DUP3 ADD MSTORE PUSH7 0x616C697A696E67 PUSH1 0xC8 SHL PUSH1 0x64 DUP3 ADD MSTORE PUSH1 0x84 ADD PUSH1 0x40 MLOAD DUP1 SWAP2 SUB SWAP1 REVERT JUMPDEST PUSH1 0x0 SLOAD PUSH1 0xFF SWAP1 DUP2 AND LT ISZERO PUSH3 0xF0 JUMPI PUSH1 0x0 DUP1 SLOAD PUSH1 0xFF NOT AND PUSH1 0xFF SWAP1 DUP2 OR SWAP1 SWAP2 SSTORE PUSH1 0x40 MLOAD SWAP1 DUP2 MSTORE PUSH32 0x7F26B83FF96E1F2B6A682F133852F6798A09C465DA95921460CEFB3847402498 SWAP1 PUSH1 0x20 ADD PUSH1 0x40 MLOAD DUP1 SWAP2 SUB SWAP1 LOG1 JUMPDEST JUMP JUMPDEST PUSH1 0x80 MLOAD PUSH2 0x569E PUSH3 0x12A PUSH1 0x0 CODECOPY PUSH1 0x0 DUP2 DUP2 PUSH2 0x144F ADD MSTORE DUP2 DUP2 PUSH2 0x1498 ADD MSTORE DUP2 DUP2 PUSH2 0x1673 ADD MSTORE DUP2 DUP2 PUSH2 0x16B3 ADD MSTORE PUSH2 0x177C ADD MSTORE PUSH2 0x569E PUSH1 0x0 RETURN INVALID PUSH1 0x80 PUSH1 0x40 MSTORE PUSH1 0x4 CALLDATASIZE LT PUSH2 0x5C5 JUMPI PUSH1 0x0 CALLDATALOAD PUSH1 0xE0 SHR DUP1 PUSH4 0x70713468 GT PUSH2 0x2F3 JUMPI DUP1 PUSH4 0xBB2AC788 GT PUSH2 0x19B JUMPI DUP1 PUSH4 0xE4012945 GT PUSH2 0xE7 JUMPI DUP1 PUSH4 0xF26114AA GT PUSH2 0xA0 JUMPI DUP1 PUSH4 0xF375CFBA GT PUSH2 0x7A JUMPI DUP1 PUSH4 0xF375CFBA EQ PUSH2 0x1115 JUMPI DUP1 PUSH4 0xFA6E83BD EQ PUSH2 0x112C JUMPI DUP1 PUSH4 0xFA79589E EQ PUSH2 0x1143 JUMPI DUP1 PUSH4 0xFDA70F8B EQ PUSH2 0x1163 JUMPI PUSH1 0x0 DUP1 REVERT JUMPDEST DUP1 PUSH4 0xF26114AA EQ PUSH2 0x10BE JUMPI DUP1 PUSH4 0xF2808778 EQ PUSH2 0x10DE JUMPI DUP1 PUSH4 0xF30B5614 EQ PUSH2 0x10FE JUMPI PUSH1 0x0 DUP1 REVERT JUMPDEST DUP1 PUSH4 0xE4012945 EQ PUSH2 0x101B JUMPI DUP1 PUSH4 0xE4C0AAF4 EQ PUSH2 0x103B JUMPI DUP1 PUSH4 0xE6B1627C EQ PUSH2 0x105B JUMPI DUP1 PUSH4 0xE7C25978 EQ PUSH2 0x107B JUMPI DUP1 PUSH4 0xE8859A15 EQ PUSH2 0x1096 JUMPI DUP1 PUSH4 0xF21FCC00 EQ PUSH2 0x10AB JUMPI PUSH1 0x0 DUP1 REVERT JUMPDEST DUP1 PUSH4 0xC84353C9 GT PUSH2 0x154 JUMPI DUP1 PUSH4 0xDB796072 GT PUSH2 0x12E JUMPI DUP1 PUSH4 0xDB796072 EQ PUSH2 0xFB1 JUMPI DUP1 PUSH4 0xDE08160F EQ PUSH2 0xFD1 JUMPI DUP1 PUSH4 0xDE8D520A EQ PUSH2 0xFF1 JUMPI DUP1 PUSH4 0xE23C135C EQ PUSH2 0x1006 JUMPI PUSH1 0x0 DUP1 REVERT JUMPDEST DUP1 PUSH4 0xC84353C9 EQ PUSH2 0xF5C JUMPI DUP1 PUSH4 0xCEECC55A EQ PUSH2 0xF7C JUMPI DUP1 PUSH4 0xD1A0FAA0 EQ PUSH2 0xF9C JUMPI PUSH1 0x0 DUP1 REVERT JUMPDEST DUP1 PUSH4 0xBB2AC788 EQ PUSH2 0xEAD JUMPI DUP1 PUSH4 0xBB4872DE EQ PUSH2 0xECD JUMPI DUP1 PUSH4 0xBBBA7ED9 EQ PUSH2 0xEE7 JUMPI DUP1 PUSH4 0xBECACA6B EQ PUSH2 0xF07 JUMPI DUP1 PUSH4 0xC00F538D EQ PUSH2 0xF27 JUMPI DUP1 PUSH4 0xC039CC69 EQ PUSH2 0xF47 JUMPI PUSH1 0x0 DUP1 REVERT JUMPDEST DUP1 PUSH4 0x8456CB59 GT PUSH2 0x25A JUMPI DUP1 PUSH4 0x9ABB14C9 GT PUSH2 0x213 JUMPI DUP1 PUSH4 0x9CABFC00 GT PUSH2 0x1ED JUMPI DUP1 PUSH4 0x9CABFC00 EQ PUSH2 0xE0A JUMPI DUP1 PUSH4 0x9FD0506D EQ PUSH2 0xE57 JUMPI DUP1 PUSH4 0xA8E9AC30 EQ PUSH2 0xE7D JUMPI DUP1 PUSH4 0xAEA038DC EQ PUSH2 0xE96 JUMPI PUSH1 0x0 DUP1 REVERT JUMPDEST DUP1 PUSH4 0x9ABB14C9 EQ PUSH2 0xDB5 JUMPI DUP1 PUSH4 0x9AD6659D EQ PUSH2 0xDD5 JUMPI DUP1 PUSH4 0x9BDD7CCE EQ PUSH2 0xDEA JUMPI PUSH1 0x0 DUP1 REVERT JUMPDEST DUP1 PUSH4 0x8456CB59 EQ PUSH2 0xD11 JUMPI DUP1 PUSH4 0x8CFA4241 EQ PUSH2 0xD26 JUMPI DUP1 PUSH4 0x8D7A72F3 EQ PUSH2 0xD3D JUMPI DUP1 PUSH4 0x904AA85B EQ PUSH2 0xD54 JUMPI DUP1 PUSH4 0x9195C85B EQ PUSH2 0xD74 JUMPI DUP1 PUSH4 0x9853C35A EQ PUSH2 0xD94 JUMPI PUSH1 0x0 DUP1 REVERT JUMPDEST DUP1 PUSH4 0x7A4FF1D9 GT PUSH2 0x2AC JUMPI DUP1 PUSH4 0x7A4FF1D9 EQ PUSH2 0xC65 JUMPI DUP1 PUSH4 0x7A727FE8 EQ PUSH2 0xC85 JUMPI DUP1 PUSH4 0x7AF5758C EQ PUSH2 0xC9C JUMPI DUP1 PUSH4 0x7CBA2383 EQ PUSH2 0xCBC JUMPI DUP1 PUSH4 0x7D8E0314 EQ PUSH2 0xCDC JUMPI DUP1 PUSH4 0x826FCD58 EQ PUSH2 0xCFC JUMPI PUSH1 0x0 DUP1 REVERT JUMPDEST DUP1 PUSH4 0x70713468 EQ PUSH2 0xBC0 JUMPI DUP1 PUSH4 0x7554FFFD EQ PUSH2 0xBE0 JUMPI DUP1 PUSH4 0x7750BA0C EQ PUSH2 0xBF7 JUMPI DUP1 PUSH4 0x7820A328 EQ PUSH2 0xC17 JUMPI DUP1 PUSH4 0x79F9A91C EQ PUSH2 0xC37 JUMPI DUP1 PUSH4 0x7A193C31 EQ PUSH2 0xC4E JUMPI PUSH1 0x0 DUP1 REVERT JUMPDEST DUP1 PUSH4 0x3659CFE6 GT PUSH2 0x471 JUMPI DUP1 PUSH4 0x5210570C GT PUSH2 0x3BD JUMPI DUP1 PUSH4 0x5C975ABB GT PUSH2 0x376 JUMPI DUP1 PUSH4 0x60009E0B GT PUSH2 0x350 JUMPI DUP1 PUSH4 0x60009E0B EQ PUSH2 0xB5E JUMPI DUP1 PUSH4 0x662013F4 EQ PUSH2 0xB7F JUMPI DUP1 PUSH4 0x68274357 EQ PUSH2 0xB94 JUMPI DUP1 PUSH4 0x6B5488DF EQ PUSH2 0xBA9 JUMPI PUSH1 0x0 DUP1 REVERT JUMPDEST DUP1 PUSH4 0x5C975ABB EQ PUSH2 0xB09 JUMPI DUP1 PUSH4 0x5D65D045 EQ PUSH2 0xB26 JUMPI DUP1 PUSH4 0x5E2A6065 EQ PUSH2 0xB46 JUMPI PUSH1 0x0 DUP1 REVERT JUMPDEST DUP1 PUSH4 0x5210570C EQ PUSH2 0xA75 JUMPI DUP1 PUSH4 0x5241271C EQ PUSH2 0xA8A JUMPI DUP1 PUSH4 0x52D1902D EQ PUSH2 0xAAA JUMPI DUP1 PUSH4 0x54A73C62 EQ PUSH2 0xABF JUMPI DUP1 PUSH4 0x57271F4D EQ PUSH2 0xADF JUMPI DUP1 PUSH4 0x5C616A73 EQ PUSH2 0xAF4 JUMPI PUSH1 0x0 DUP1 REVERT JUMPDEST DUP1 PUSH4 0x4454AE8B GT PUSH2 0x42A JUMPI DUP1 PUSH4 0x4D977E78 GT PUSH2 0x404 JUMPI DUP1 PUSH4 0x4D977E78 EQ PUSH2 0xA13 JUMPI DUP1 PUSH4 0x4E1F907A EQ PUSH2 0xA2A JUMPI DUP1 PUSH4 0x4F0F27EE EQ PUSH2 0xA4B JUMPI DUP1 PUSH4 0x4F1EF286 EQ PUSH2 0xA62 JUMPI PUSH1 0x0 DUP1 REVERT JUMPDEST DUP1 PUSH4 0x4454AE8B EQ PUSH2 0x996 JUMPI DUP1 PUSH4 0x4B746001 EQ PUSH2 0x9B6 JUMPI DUP1 PUSH4 0x4CFFBAAB EQ PUSH2 0x9F3 JUMPI PUSH1 0x0 DUP1 REVERT JUMPDEST DUP1 PUSH4 0x3659CFE6 EQ PUSH2 0x8F5 JUMPI DUP1 PUSH4 0x3BC4AC0A EQ PUSH2 0x915 JUMPI DUP1 PUSH4 0x3F4BA83A EQ PUSH2 0x935 JUMPI DUP1 PUSH4 0x4017936A EQ PUSH2 0x94A JUMPI DUP1 PUSH4 0x407F0E34 EQ PUSH2 0x95F JUMPI DUP1 PUSH4 0x4310ADC6 EQ PUSH2 0x976 JUMPI PUSH1 0x0 DUP1 REVERT JUMPDEST DUP1 PUSH4 0x1867E2F5 GT PUSH2 0x530 JUMPI DUP1 PUSH4 0x23B98CDE GT PUSH2 0x4E9 JUMPI DUP1 PUSH4 0x2C43BD3B GT PUSH2 0x4C3 JUMPI DUP1 PUSH4 0x2C43BD3B EQ PUSH2 0x889 JUMPI DUP1 PUSH4 0x2D88AF4A EQ PUSH2 0x8A9 JUMPI DUP1 PUSH4 0x333431FD EQ PUSH2 0x8C9 JUMPI DUP1 PUSH4 0x33421C38 EQ PUSH2 0x8E0 JUMPI PUSH1 0x0 DUP1 REVERT JUMPDEST DUP1 PUSH4 0x23B98CDE EQ PUSH2 0x822 JUMPI DUP1 PUSH4 0x27EAB2A1 EQ PUSH2 0x852 JUMPI DUP1 PUSH4 0x2A20D57D EQ PUSH2 0x872 JUMPI PUSH1 0x0 DUP1 REVERT JUMPDEST DUP1 PUSH4 0x1867E2F5 EQ PUSH2 0x783 JUMPI DUP1 PUSH4 0x1A89B8F2 EQ PUSH2 0x79A JUMPI DUP1 PUSH4 0x1F1138A6 EQ PUSH2 0x7AD JUMPI DUP1 PUSH4 0x1FB0DDA0 EQ PUSH2 0x7CD JUMPI DUP1 PUSH4 0x1FE6A7AD EQ PUSH2 0x7E2 JUMPI DUP1 PUSH4 0x2069F753 EQ PUSH2 0x802 JUMPI PUSH1 0x0 DUP1 REVERT JUMPDEST DUP1 PUSH4 0xD6AC463 GT PUSH2 0x582 JUMPI DUP1 PUSH4 0xD6AC463 EQ PUSH2 0x6C3 JUMPI DUP1 PUSH4 0xE0A8FD2 EQ PUSH2 0x6E3 JUMPI DUP1 PUSH4 0x1301A8F0 EQ PUSH2 0x703 JUMPI DUP1 PUSH4 0x17574BC5 EQ PUSH2 0x723 JUMPI DUP1 PUSH4 0x17DF0AB8 EQ PUSH2 0x743 JUMPI DUP1 PUSH4 0x181770DA EQ PUSH2 0x763 JUMPI PUSH1 0x0 DUP1 REVERT JUMPDEST DUP1 PUSH4 0x1CDED9C EQ PUSH2 0x5CA JUMPI DUP1 PUSH4 0x1DDE6EF EQ PUSH2 0x604 JUMPI DUP1 PUSH4 0x1F1B684 EQ PUSH2 0x626 JUMPI DUP1 PUSH4 0xBB7F608 EQ PUSH2 0x65E JUMPI DUP1 PUSH4 0xC340A24 EQ PUSH2 0x68C JUMPI DUP1 PUSH4 0xC36D897 EQ PUSH2 0x6AC JUMPI JUMPDEST PUSH1 0x0 DUP1 REVERT JUMPDEST CALLVALUE DUP1 ISZERO PUSH2 0x5D6 JUMPI PUSH1 0x0 DUP1 REVERT JUMPDEST POP PUSH2 0x5EA PUSH2 0x5E5 CALLDATASIZE PUSH1 0x4 PUSH2 0x4F6E JUMP JUMPDEST PUSH2 0x117A JUMP JUMPDEST PUSH1 0x40 DUP1 MLOAD SWAP3 DUP4 MSTORE PUSH1 0x20 DUP4 ADD SWAP2 SWAP1 SWAP2 MSTORE ADD JUMPDEST PUSH1 0x40 MLOAD DUP1 SWAP2 SUB SWAP1 RETURN JUMPDEST CALLVALUE DUP1 ISZERO PUSH2 0x610 JUMPI PUSH1 0x0 DUP1 REVERT JUMPDEST POP PUSH2 0x624 PUSH2 0x61F CALLDATASIZE PUSH1 0x4 PUSH2 0x4FBB JUMP JUMPDEST PUSH2 0x1199 JUMP JUMPDEST STOP JUMPDEST CALLVALUE DUP1 ISZERO PUSH2 0x632 JUMPI PUSH1 0x0 DUP1 REVERT JUMPDEST POP PUSH2 0x646 PUSH2 0x641 CALLDATASIZE PUSH1 0x4 PUSH2 0x4FBB JUMP JUMPDEST PUSH2 0x11A7 JUMP JUMPDEST PUSH1 0x40 MLOAD PUSH1 0x1 PUSH1 0x1 PUSH1 0xA0 SHL SUB SWAP1 SWAP2 AND DUP2 MSTORE PUSH1 0x20 ADD PUSH2 0x5FB JUMP JUMPDEST CALLVALUE DUP1 ISZERO PUSH2 0x66A JUMPI PUSH1 0x0 DUP1 REVERT JUMPDEST POP PUSH2 0x67E PUSH2 0x679 CALLDATASIZE PUSH1 0x4 PUSH2 0x4FD4 JUMP JUMPDEST PUSH2 0x11D2 JUMP JUMPDEST PUSH1 0x40 MLOAD SWAP1 DUP2 MSTORE PUSH1 0x20 ADD PUSH2 0x5FB JUMP JUMPDEST CALLVALUE DUP1 ISZERO PUSH2 0x698 JUMPI PUSH1 0x0 DUP1 REVERT JUMPDEST POP PUSH1 0x97 SLOAD PUSH2 0x646 SWAP1 PUSH1 0x1 PUSH1 0x1 PUSH1 0xA0 SHL SUB AND DUP2 JUMP JUMPDEST CALLVALUE DUP1 ISZERO PUSH2 0x6B8 JUMPI PUSH1 0x0 DUP1 REVERT JUMPDEST POP PUSH2 0x67E PUSH2 0x17E SLOAD DUP2 JUMP JUMPDEST CALLVALUE DUP1 ISZERO PUSH2 0x6CF JUMPI PUSH1 0x0 DUP1 REVERT JUMPDEST POP PUSH2 0x624 PUSH2 0x6DE CALLDATASIZE PUSH1 0x4 PUSH2 0x4FF6 JUMP JUMPDEST PUSH2 0x11E9 JUMP JUMPDEST CALLVALUE DUP1 ISZERO PUSH2 0x6EF JUMPI PUSH1 0x0 DUP1 REVERT JUMPDEST POP PUSH2 0x624 PUSH2 0x6FE CALLDATASIZE PUSH1 0x4 PUSH2 0x4FBB JUMP JUMPDEST PUSH2 0x1214 JUMP JUMPDEST CALLVALUE DUP1 ISZERO PUSH2 0x70F JUMPI PUSH1 0x0 DUP1 REVERT JUMPDEST POP PUSH2 0x5EA PUSH2 0x71E CALLDATASIZE PUSH1 0x4 PUSH2 0x5013 JUMP JUMPDEST PUSH2 0x1222 JUMP JUMPDEST CALLVALUE DUP1 ISZERO PUSH2 0x72F JUMPI PUSH1 0x0 DUP1 REVERT JUMPDEST POP PUSH2 0x5EA PUSH2 0x73E CALLDATASIZE PUSH1 0x4 PUSH2 0x5013 JUMP JUMPDEST PUSH2 0x1240 JUMP JUMPDEST CALLVALUE DUP1 ISZERO PUSH2 0x74F JUMPI PUSH1 0x0 DUP1 REVERT JUMPDEST POP PUSH2 0x67E PUSH2 0x75E CALLDATASIZE PUSH1 0x4 PUSH2 0x5045 JUMP JUMPDEST PUSH2 0x1251 JUMP JUMPDEST CALLVALUE DUP1 ISZERO PUSH2 0x76F JUMPI PUSH1 0x0 DUP1 REVERT JUMPDEST POP PUSH2 0x67E PUSH2 0x77E CALLDATASIZE PUSH1 0x4 PUSH2 0x5045 JUMP JUMPDEST PUSH2 0x126A JUMP JUMPDEST CALLVALUE DUP1 ISZERO PUSH2 0x78F JUMPI PUSH1 0x0 DUP1 REVERT JUMPDEST POP PUSH2 0x67E PUSH2 0x1B3 SLOAD DUP2 JUMP JUMPDEST PUSH2 0x5EA PUSH2 0x7A8 CALLDATASIZE PUSH1 0x4 PUSH2 0x5071 JUMP JUMPDEST PUSH2 0x1279 JUMP JUMPDEST CALLVALUE DUP1 ISZERO PUSH2 0x7B9 JUMPI PUSH1 0x0 DUP1 REVERT JUMPDEST POP PUSH2 0x5EA PUSH2 0x7C8 CALLDATASIZE PUSH1 0x4 PUSH2 0x50B2 JUMP JUMPDEST PUSH2 0x1289 JUMP JUMPDEST CALLVALUE DUP1 ISZERO PUSH2 0x7D9 JUMPI PUSH1 0x0 DUP1 REVERT JUMPDEST POP PUSH2 0x67E PUSH2 0x12AA JUMP JUMPDEST CALLVALUE DUP1 ISZERO PUSH2 0x7EE JUMPI PUSH1 0x0 DUP1 REVERT JUMPDEST POP PUSH2 0x624 PUSH2 0x7FD CALLDATASIZE PUSH1 0x4 PUSH2 0x5115 JUMP JUMPDEST PUSH2 0x12CC JUMP JUMPDEST CALLVALUE DUP1 ISZERO PUSH2 0x80E JUMPI PUSH1 0x0 DUP1 REVERT JUMPDEST POP PUSH2 0x624 PUSH2 0x81D CALLDATASIZE PUSH1 0x4 PUSH2 0x4FBB JUMP JUMPDEST PUSH2 0x12E8 JUMP JUMPDEST CALLVALUE DUP1 ISZERO PUSH2 0x82E JUMPI PUSH1 0x0 DUP1 REVERT JUMPDEST POP PUSH2 0x148 SLOAD PUSH2 0x842 SWAP1 PUSH2 0x100 SWAP1 DIV PUSH1 0xFF AND DUP2 JUMP JUMPDEST PUSH1 0x40 MLOAD SWAP1 ISZERO ISZERO DUP2 MSTORE PUSH1 0x20 ADD PUSH2 0x5FB JUMP JUMPDEST CALLVALUE DUP1 ISZERO PUSH2 0x85E JUMPI PUSH1 0x0 DUP1 REVERT JUMPDEST POP PUSH2 0x624 PUSH2 0x86D CALLDATASIZE PUSH1 0x4 PUSH2 0x4FF6 JUMP JUMPDEST PUSH2 0x12F6 JUMP JUMPDEST CALLVALUE DUP1 ISZERO PUSH2 0x87E JUMPI PUSH1 0x0 DUP1 REVERT JUMPDEST POP PUSH2 0x67E PUSH2 0x13E SLOAD DUP2 JUMP JUMPDEST CALLVALUE DUP1 ISZERO PUSH2 0x895 JUMPI PUSH1 0x0 DUP1 REVERT JUMPDEST POP PUSH2 0x624 PUSH2 0x8A4 CALLDATASIZE PUSH1 0x4 PUSH2 0x4FBB JUMP JUMPDEST PUSH2 0x1321 JUMP JUMPDEST CALLVALUE DUP1 ISZERO PUSH2 0x8B5 JUMPI PUSH1 0x0 DUP1 REVERT JUMPDEST POP PUSH2 0x624 PUSH2 0x8C4 CALLDATASIZE PUSH1 0x4 PUSH2 0x4FF6 JUMP JUMPDEST PUSH2 0x132F JUMP JUMPDEST CALLVALUE DUP1 ISZERO PUSH2 0x8D5 JUMPI PUSH1 0x0 DUP1 REVERT JUMPDEST POP PUSH2 0x67E PUSH2 0x13D SLOAD DUP2 JUMP JUMPDEST CALLVALUE DUP1 ISZERO PUSH2 0x8EC JUMPI PUSH1 0x0 DUP1 REVERT JUMPDEST POP PUSH2 0x624 PUSH2 0x1361 JUMP JUMPDEST CALLVALUE DUP1 ISZERO PUSH2 0x901 JUMPI PUSH1 0x0 DUP1 REVERT JUMPDEST POP PUSH2 0x624 PUSH2 0x910 CALLDATASIZE PUSH1 0x4 PUSH2 0x4FF6 JUMP JUMPDEST PUSH2 0x1445 JUMP JUMPDEST CALLVALUE DUP1 ISZERO PUSH2 0x921 JUMPI PUSH1 0x0 DUP1 REVERT JUMPDEST POP PUSH2 0x624 PUSH2 0x930 CALLDATASIZE PUSH1 0x4 PUSH2 0x4FBB JUMP JUMPDEST PUSH2 0x152D JUMP JUMPDEST CALLVALUE DUP1 ISZERO PUSH2 0x941 JUMPI PUSH1 0x0 DUP1 REVERT JUMPDEST POP PUSH2 0x624 PUSH2 0x153B JUMP JUMPDEST CALLVALUE DUP1 ISZERO PUSH2 0x956 JUMPI PUSH1 0x0 DUP1 REVERT JUMPDEST POP PUSH2 0x67E PUSH2 0x15D5 JUMP JUMPDEST CALLVALUE DUP1 ISZERO PUSH2 0x96B JUMPI PUSH1 0x0 DUP1 REVERT JUMPDEST POP PUSH2 0x67E PUSH2 0x13C SLOAD DUP2 JUMP JUMPDEST CALLVALUE DUP1 ISZERO PUSH2 0x982 JUMPI PUSH1 0x0 DUP1 REVERT JUMPDEST POP PUSH2 0x67E PUSH2 0x991 CALLDATASIZE PUSH1 0x4 PUSH2 0x5132 JUMP JUMPDEST PUSH2 0x15F8 JUMP JUMPDEST CALLVALUE DUP1 ISZERO PUSH2 0x9A2 JUMPI PUSH1 0x0 DUP1 REVERT JUMPDEST POP PUSH2 0x5EA PUSH2 0x9B1 CALLDATASIZE PUSH1 0x4 PUSH2 0x4F6E JUMP JUMPDEST PUSH2 0x1606 JUMP JUMPDEST CALLVALUE DUP1 ISZERO PUSH2 0x9C2 JUMPI PUSH1 0x0 DUP1 REVERT JUMPDEST POP PUSH2 0x9D6 PUSH2 0x9D1 CALLDATASIZE PUSH1 0x4 PUSH2 0x4FBB JUMP JUMPDEST PUSH2 0x1617 JUMP JUMPDEST PUSH1 0x40 DUP1 MLOAD SWAP3 DUP4 MSTORE PUSH1 0x1 PUSH1 0x1 PUSH1 0xA0 SHL SUB SWAP1 SWAP2 AND PUSH1 0x20 DUP4 ADD MSTORE ADD PUSH2 0x5FB JUMP JUMPDEST CALLVALUE DUP1 ISZERO PUSH2 0x9FF JUMPI PUSH1 0x0 DUP1 REVERT JUMPDEST POP PUSH2 0x67E PUSH2 0xA0E CALLDATASIZE PUSH1 0x4 PUSH2 0x5071 JUMP JUMPDEST PUSH2 0x164F JUMP JUMPDEST CALLVALUE DUP1 ISZERO PUSH2 0xA1F JUMPI PUSH1 0x0 DUP1 REVERT JUMPDEST POP PUSH2 0x67E PUSH2 0x1B2 SLOAD DUP2 JUMP JUMPDEST CALLVALUE DUP1 ISZERO PUSH2 0xA36 JUMPI PUSH1 0x0 DUP1 REVERT JUMPDEST POP PUSH2 0x144 SLOAD PUSH2 0x646 SWAP1 PUSH1 0x1 PUSH1 0x1 PUSH1 0xA0 SHL SUB AND DUP2 JUMP JUMPDEST CALLVALUE DUP1 ISZERO PUSH2 0xA57 JUMPI PUSH1 0x0 DUP1 REVERT JUMPDEST POP PUSH2 0x67E PUSH2 0x139 SLOAD DUP2 JUMP JUMPDEST PUSH2 0x624 PUSH2 0xA70 CALLDATASIZE PUSH1 0x4 PUSH2 0x5181 JUMP JUMPDEST PUSH2 0x1669 JUMP JUMPDEST CALLVALUE DUP1 ISZERO PUSH2 0xA81 JUMPI PUSH1 0x0 DUP1 REVERT JUMPDEST POP PUSH2 0x624 PUSH2 0x1739 JUMP JUMPDEST CALLVALUE DUP1 ISZERO PUSH2 0xA96 JUMPI PUSH1 0x0 DUP1 REVERT JUMPDEST POP PUSH2 0x67E PUSH2 0xAA5 CALLDATASIZE PUSH1 0x4 PUSH2 0x4FBB JUMP JUMPDEST PUSH2 0x174D JUMP JUMPDEST CALLVALUE DUP1 ISZERO PUSH2 0xAB6 JUMPI PUSH1 0x0 DUP1 REVERT JUMPDEST POP PUSH2 0x67E PUSH2 0x176F JUMP JUMPDEST CALLVALUE DUP1 ISZERO PUSH2 0xACB JUMPI PUSH1 0x0 DUP1 REVERT JUMPDEST POP PUSH2 0x67E PUSH2 0xADA CALLDATASIZE PUSH1 0x4 PUSH2 0x5071 JUMP JUMPDEST PUSH2 0x1822 JUMP JUMPDEST CALLVALUE DUP1 ISZERO PUSH2 0xAEB JUMPI PUSH1 0x0 DUP1 REVERT JUMPDEST POP PUSH2 0x67E PUSH2 0x1831 JUMP JUMPDEST CALLVALUE DUP1 ISZERO PUSH2 0xB00 JUMPI PUSH1 0x0 DUP1 REVERT JUMPDEST POP PUSH2 0x624 PUSH2 0x185D JUMP JUMPDEST CALLVALUE DUP1 ISZERO PUSH2 0xB15 JUMPI PUSH1 0x0 DUP1 REVERT JUMPDEST POP PUSH1 0xCA SLOAD PUSH2 0x100 SWAP1 DIV PUSH1 0xFF AND PUSH2 0x842 JUMP JUMPDEST CALLVALUE DUP1 ISZERO PUSH2 0xB32 JUMPI PUSH1 0x0 DUP1 REVERT JUMPDEST POP PUSH2 0x67E PUSH2 0xB41 CALLDATASIZE PUSH1 0x4 PUSH2 0x5245 JUMP JUMPDEST PUSH2 0x18B2 JUMP JUMPDEST CALLVALUE DUP1 ISZERO PUSH2 0xB52 JUMPI PUSH1 0x0 DUP1 REVERT JUMPDEST POP PUSH2 0x624 PUSH1 0x2A PUSH2 0x27D SSTORE JUMP JUMPDEST CALLVALUE DUP1 ISZERO PUSH2 0xB6A JUMPI PUSH1 0x0 DUP1 REVERT JUMPDEST POP PUSH2 0x131 SLOAD PUSH2 0x646 SWAP1 PUSH1 0x1 PUSH1 0x1 PUSH1 0xA0 SHL SUB AND DUP2 JUMP JUMPDEST CALLVALUE DUP1 ISZERO PUSH2 0xB8B JUMPI PUSH1 0x0 DUP1 REVERT JUMPDEST POP PUSH2 0x67E PUSH2 0x18BF JUMP JUMPDEST CALLVALUE DUP1 ISZERO PUSH2 0xBA0 JUMPI PUSH1 0x0 DUP1 REVERT JUMPDEST POP PUSH2 0x624 PUSH2 0x18D1 JUMP JUMPDEST CALLVALUE DUP1 ISZERO PUSH2 0xBB5 JUMPI PUSH1 0x0 DUP1 REVERT JUMPDEST POP PUSH2 0x67E PUSH2 0x146 SLOAD DUP2 JUMP JUMPDEST CALLVALUE DUP1 ISZERO PUSH2 0xBCC JUMPI PUSH1 0x0 DUP1 REVERT JUMPDEST POP PUSH2 0x624 PUSH2 0xBDB CALLDATASIZE PUSH1 0x4 PUSH2 0x4FBB JUMP JUMPDEST PUSH2 0x18E8 JUMP JUMPDEST CALLVALUE DUP1 ISZERO PUSH2 0xBEC JUMPI PUSH1 0x0 DUP1 REVERT JUMPDEST POP PUSH2 0x67E PUSH2 0x137 SLOAD DUP2 JUMP JUMPDEST CALLVALUE DUP1 ISZERO PUSH2 0xC03 JUMPI PUSH1 0x0 DUP1 REVERT JUMPDEST POP PUSH2 0x624 PUSH2 0xC12 CALLDATASIZE PUSH1 0x4 PUSH2 0x4FBB JUMP JUMPDEST PUSH2 0x18F6 JUMP JUMPDEST CALLVALUE DUP1 ISZERO PUSH2 0xC23 JUMPI PUSH1 0x0 DUP1 REVERT JUMPDEST POP PUSH2 0x5EA PUSH2 0xC32 CALLDATASIZE PUSH1 0x4 PUSH2 0x4FD4 JUMP JUMPDEST PUSH2 0x1904 JUMP JUMPDEST CALLVALUE DUP1 ISZERO PUSH2 0xC43 JUMPI PUSH1 0x0 DUP1 REVERT JUMPDEST POP PUSH2 0x67E PUSH2 0x140 SLOAD DUP2 JUMP JUMPDEST CALLVALUE DUP1 ISZERO PUSH2 0xC5A JUMPI PUSH1 0x0 DUP1 REVERT JUMPDEST POP PUSH2 0x67E PUSH2 0x132 SLOAD DUP2 JUMP JUMPDEST CALLVALUE DUP1 ISZERO PUSH2 0xC71 JUMPI PUSH1 0x0 DUP1 REVERT JUMPDEST POP PUSH2 0x624 PUSH2 0xC80 CALLDATASIZE PUSH1 0x4 PUSH2 0x4FBB JUMP JUMPDEST PUSH2 0x1925 JUMP JUMPDEST CALLVALUE DUP1 ISZERO PUSH2 0xC91 JUMPI PUSH1 0x0 DUP1 REVERT JUMPDEST POP PUSH2 0x67E PUSH2 0x17F SLOAD DUP2 JUMP JUMPDEST CALLVALUE DUP1 ISZERO PUSH2 0xCA8 JUMPI PUSH1 0x0 DUP1 REVERT JUMPDEST POP PUSH2 0x624 PUSH2 0xCB7 CALLDATASIZE PUSH1 0x4 PUSH2 0x4FBB JUMP JUMPDEST PUSH2 0x1933 JUMP JUMPDEST CALLVALUE DUP1 ISZERO PUSH2 0xCC8 JUMPI PUSH1 0x0 DUP1 REVERT JUMPDEST POP PUSH2 0x624 PUSH2 0xCD7 CALLDATASIZE PUSH1 0x4 PUSH2 0x4FBB JUMP JUMPDEST PUSH2 0x1941 JUMP JUMPDEST CALLVALUE DUP1 ISZERO PUSH2 0xCE8 JUMPI PUSH1 0x0 DUP1 REVERT JUMPDEST POP PUSH2 0x67E PUSH2 0xCF7 CALLDATASIZE PUSH1 0x4 PUSH2 0x4FBB JUMP JUMPDEST PUSH2 0x194F JUMP JUMPDEST CALLVALUE DUP1 ISZERO PUSH2 0xD08 JUMPI PUSH1 0x0 DUP1 REVERT JUMPDEST POP PUSH2 0x67E PUSH2 0x1960 JUMP JUMPDEST CALLVALUE DUP1 ISZERO PUSH2 0xD1D JUMPI PUSH1 0x0 DUP1 REVERT JUMPDEST POP PUSH2 0x624 PUSH2 0x197B JUMP JUMPDEST CALLVALUE DUP1 ISZERO PUSH2 0xD32 JUMPI PUSH1 0x0 DUP1 REVERT JUMPDEST POP PUSH2 0x67E PUSH2 0x147 SLOAD DUP2 JUMP JUMPDEST CALLVALUE DUP1 ISZERO PUSH2 0xD49 JUMPI PUSH1 0x0 DUP1 REVERT JUMPDEST POP PUSH2 0x67E PUSH2 0x27D SLOAD DUP2 JUMP JUMPDEST CALLVALUE DUP1 ISZERO PUSH2 0xD60 JUMPI PUSH1 0x0 DUP1 REVERT JUMPDEST POP PUSH2 0x67E PUSH2 0xD6F CALLDATASIZE PUSH1 0x4 PUSH2 0x4FBB JUMP JUMPDEST PUSH2 0x1A16 JUMP JUMPDEST CALLVALUE DUP1 ISZERO PUSH2 0xD80 JUMPI PUSH1 0x0 DUP1 REVERT JUMPDEST POP PUSH2 0x67E PUSH2 0xD8F CALLDATASIZE PUSH1 0x4 PUSH2 0x4FBB JUMP JUMPDEST PUSH2 0x1AE0 JUMP JUMPDEST CALLVALUE DUP1 ISZERO PUSH2 0xDA0 JUMPI PUSH1 0x0 DUP1 REVERT JUMPDEST POP PUSH2 0x143 SLOAD PUSH2 0x646 SWAP1 PUSH1 0x1 PUSH1 0x1 PUSH1 0xA0 SHL SUB AND DUP2 JUMP JUMPDEST CALLVALUE DUP1 ISZERO PUSH2 0xDC1 JUMPI PUSH1 0x0 DUP1 REVERT JUMPDEST POP PUSH2 0x67E PUSH2 0xDD0 CALLDATASIZE PUSH1 0x4 PUSH2 0x4FD4 JUMP JUMPDEST PUSH2 0x1AED JUMP JUMPDEST CALLVALUE DUP1 ISZERO PUSH2 0xDE1 JUMPI PUSH1 0x0 DUP1 REVERT JUMPDEST POP PUSH2 0x842 PUSH2 0x1AFB JUMP JUMPDEST CALLVALUE DUP1 ISZERO PUSH2 0xDF6 JUMPI PUSH1 0x0 DUP1 REVERT JUMPDEST POP PUSH2 0x5EA PUSH2 0xE05 CALLDATASIZE PUSH1 0x4 PUSH2 0x4F6E JUMP JUMPDEST PUSH2 0x1B26 JUMP JUMPDEST CALLVALUE DUP1 ISZERO PUSH2 0xE16 JUMPI PUSH1 0x0 DUP1 REVERT JUMPDEST POP PUSH2 0xE42 PUSH2 0xE25 CALLDATASIZE PUSH1 0x4 PUSH2 0x4FF6 JUMP JUMPDEST PUSH2 0x134 PUSH1 0x20 MSTORE PUSH1 0x0 SWAP1 DUP2 MSTORE PUSH1 0x40 SWAP1 KECCAK256 DUP1 SLOAD PUSH1 0x1 SWAP1 SWAP2 ADD SLOAD PUSH1 0xFF AND DUP3 JUMP JUMPDEST PUSH1 0x40 DUP1 MLOAD SWAP3 DUP4 MSTORE SWAP1 ISZERO ISZERO PUSH1 0x20 DUP4 ADD MSTORE ADD PUSH2 0x5FB JUMP JUMPDEST CALLVALUE DUP1 ISZERO PUSH2 0xE63 JUMPI PUSH1 0x0 DUP1 REVERT JUMPDEST POP PUSH1 0xCA SLOAD PUSH2 0x646 SWAP1 PUSH3 0x10000 SWAP1 DIV PUSH1 0x1 PUSH1 0x1 PUSH1 0xA0 SHL SUB AND DUP2 JUMP JUMPDEST CALLVALUE DUP1 ISZERO PUSH2 0xE89 JUMPI PUSH1 0x0 DUP1 REVERT JUMPDEST POP PUSH2 0x17E SLOAD NUMBER LT ISZERO PUSH2 0x842 JUMP JUMPDEST CALLVALUE DUP1 ISZERO PUSH2 0xEA2 JUMPI PUSH1 0x0 DUP1 REVERT JUMPDEST POP PUSH2 0x67E PUSH2 0x13B SLOAD DUP2 JUMP JUMPDEST CALLVALUE DUP1 ISZERO PUSH2 0xEB9 JUMPI PUSH1 0x0 DUP1 REVERT JUMPDEST POP PUSH2 0x5EA PUSH2 0xEC8 CALLDATASIZE PUSH1 0x4 PUSH2 0x5013 JUMP JUMPDEST PUSH2 0x1B37 JUMP JUMPDEST CALLVALUE DUP1 ISZERO PUSH2 0xED9 JUMPI PUSH1 0x0 DUP1 REVERT JUMPDEST POP PUSH1 0xCA SLOAD PUSH2 0x842 SWAP1 PUSH1 0xFF AND DUP2 JUMP JUMPDEST CALLVALUE DUP1 ISZERO PUSH2 0xEF3 JUMPI PUSH1 0x0 DUP1 REVERT JUMPDEST POP PUSH2 0x624 PUSH2 0xF02 CALLDATASIZE PUSH1 0x4 PUSH2 0x5275 JUMP JUMPDEST PUSH2 0x1B48 JUMP JUMPDEST CALLVALUE DUP1 ISZERO PUSH2 0xF13 JUMPI PUSH1 0x0 DUP1 REVERT JUMPDEST POP PUSH2 0x624 PUSH2 0xF22 CALLDATASIZE PUSH1 0x4 PUSH2 0x4FBB JUMP JUMPDEST PUSH2 0x1C8D JUMP JUMPDEST CALLVALUE DUP1 ISZERO PUSH2 0xF33 JUMPI PUSH1 0x0 DUP1 REVERT JUMPDEST POP PUSH2 0x624 PUSH2 0xF42 CALLDATASIZE PUSH1 0x4 PUSH2 0x4FBB JUMP JUMPDEST PUSH2 0x1C9B JUMP JUMPDEST CALLVALUE DUP1 ISZERO PUSH2 0xF53 JUMPI PUSH1 0x0 DUP1 REVERT JUMPDEST POP PUSH2 0x67E PUSH2 0x1CA9 JUMP JUMPDEST CALLVALUE DUP1 ISZERO PUSH2 0xF68 JUMPI PUSH1 0x0 DUP1 REVERT JUMPDEST POP PUSH2 0x624 PUSH2 0xF77 CALLDATASIZE PUSH1 0x4 PUSH2 0x4FBB JUMP JUMPDEST PUSH2 0x1CC4 JUMP JUMPDEST CALLVALUE DUP1 ISZERO PUSH2 0xF88 JUMPI PUSH1 0x0 DUP1 REVERT JUMPDEST POP PUSH2 0x5EA PUSH2 0xF97 CALLDATASIZE PUSH1 0x4 PUSH2 0x528E JUMP JUMPDEST PUSH2 0x1CD2 JUMP JUMPDEST CALLVALUE DUP1 ISZERO PUSH2 0xFA8 JUMPI PUSH1 0x0 DUP1 REVERT JUMPDEST POP PUSH2 0x624 PUSH2 0x1CE4 JUMP JUMPDEST CALLVALUE DUP1 ISZERO PUSH2 0xFBD JUMPI PUSH1 0x0 DUP1 REVERT JUMPDEST POP PUSH2 0x624 PUSH2 0xFCC CALLDATASIZE PUSH1 0x4 PUSH2 0x52C9 JUMP JUMPDEST PUSH2 0x1D1E JUMP JUMPDEST CALLVALUE DUP1 ISZERO PUSH2 0xFDD JUMPI PUSH1 0x0 DUP1 REVERT JUMPDEST POP PUSH2 0x67E PUSH2 0xFEC CALLDATASIZE PUSH1 0x4 PUSH2 0x4FBB JUMP JUMPDEST PUSH2 0x20AB JUMP JUMPDEST CALLVALUE DUP1 ISZERO PUSH2 0xFFD JUMPI PUSH1 0x0 DUP1 REVERT JUMPDEST POP PUSH2 0x67E PUSH2 0x20BC JUMP JUMPDEST CALLVALUE DUP1 ISZERO PUSH2 0x1012 JUMPI PUSH1 0x0 DUP1 REVERT JUMPDEST POP PUSH2 0x624 PUSH2 0x20D9 JUMP JUMPDEST CALLVALUE DUP1 ISZERO PUSH2 0x1027 JUMPI PUSH1 0x0 DUP1 REVERT JUMPDEST POP PUSH2 0x67E PUSH2 0x1036 CALLDATASIZE PUSH1 0x4 PUSH2 0x5132 JUMP JUMPDEST PUSH2 0x2117 JUMP JUMPDEST CALLVALUE DUP1 ISZERO PUSH2 0x1047 JUMPI PUSH1 0x0 DUP1 REVERT JUMPDEST POP PUSH2 0x624 PUSH2 0x1056 CALLDATASIZE PUSH1 0x4 PUSH2 0x4FF6 JUMP JUMPDEST PUSH2 0x2125 JUMP JUMPDEST CALLVALUE DUP1 ISZERO PUSH2 0x1067 JUMPI PUSH1 0x0 DUP1 REVERT JUMPDEST POP PUSH2 0x5EA PUSH2 0x1076 CALLDATASIZE PUSH1 0x4 PUSH2 0x4FBB JUMP JUMPDEST PUSH2 0x214F JUMP JUMPDEST CALLVALUE DUP1 ISZERO PUSH2 0x1087 JUMPI PUSH1 0x0 DUP1 REVERT JUMPDEST POP PUSH2 0x148 SLOAD PUSH2 0x842 SWAP1 PUSH1 0xFF AND DUP2 JUMP JUMPDEST CALLVALUE DUP1 ISZERO PUSH2 0x10A2 JUMPI PUSH1 0x0 DUP1 REVERT JUMPDEST POP PUSH2 0x67E PUSH2 0x217E JUMP JUMPDEST PUSH2 0x5EA PUSH2 0x10B9 CALLDATASIZE PUSH1 0x4 PUSH2 0x5045 JUMP JUMPDEST PUSH2 0x219F JUMP JUMPDEST CALLVALUE DUP1 ISZERO PUSH2 0x10CA JUMPI PUSH1 0x0 DUP1 REVERT JUMPDEST POP PUSH2 0x624 PUSH2 0x10D9 CALLDATASIZE PUSH1 0x4 PUSH2 0x52C9 JUMP JUMPDEST PUSH2 0x21BB JUMP JUMPDEST CALLVALUE DUP1 ISZERO PUSH2 0x10EA JUMPI PUSH1 0x0 DUP1 REVERT JUMPDEST POP PUSH2 0x624 PUSH2 0x10F9 CALLDATASIZE PUSH1 0x4 PUSH2 0x4FBB JUMP JUMPDEST PUSH2 0x2445 JUMP JUMPDEST CALLVALUE DUP1 ISZERO PUSH2 0x110A JUMPI PUSH1 0x0 DUP1 REVERT JUMPDEST POP PUSH2 0x67E PUSH2 0x12F SLOAD DUP2 JUMP JUMPDEST CALLVALUE DUP1 ISZERO PUSH2 0x1121 JUMPI PUSH1 0x0 DUP1 REVERT JUMPDEST POP PUSH2 0x67E PUSH2 0x13F SLOAD DUP2 JUMP JUMPDEST CALLVALUE DUP1 ISZERO PUSH2 0x1138 JUMPI PUSH1 0x0 DUP1 REVERT JUMPDEST POP PUSH2 0x67E PUSH2 0x138 SLOAD DUP2 JUMP JUMPDEST CALLVALUE DUP1 ISZERO PUSH2 0x114F JUMPI PUSH1 0x0 DUP1 REVERT JUMPDEST POP PUSH2 0x67E PUSH2 0x115E CALLDATASIZE PUSH1 0x4 PUSH2 0x4FBB JUMP JUMPDEST PUSH2 0x2453 JUMP JUMPDEST CALLVALUE DUP1 ISZERO PUSH2 0x116F JUMPI PUSH1 0x0 DUP1 REVERT JUMPDEST POP PUSH2 0x67E PUSH2 0x13A SLOAD DUP2 JUMP JUMPDEST PUSH1 0x0 DUP1 PUSH2 0x118B DUP8 DUP8 DUP8 DUP8 CALLER DUP9 PUSH2 0x2496 JUMP JUMPDEST SWAP2 POP SWAP2 POP SWAP6 POP SWAP6 SWAP4 POP POP POP POP JUMP JUMPDEST PUSH2 0x11A1 PUSH2 0x2675 JUMP JUMPDEST PUSH2 0x138 SSTORE JUMP JUMPDEST PUSH2 0x133 DUP2 DUP2 SLOAD DUP2 LT PUSH2 0x11B8 JUMPI PUSH1 0x0 DUP1 REVERT JUMPDEST PUSH1 0x0 SWAP2 DUP3 MSTORE PUSH1 0x20 SWAP1 SWAP2 KECCAK256 ADD SLOAD PUSH1 0x1 PUSH1 0x1 PUSH1 0xA0 SHL SUB AND SWAP1 POP DUP2 JUMP JUMPDEST PUSH1 0x0 PUSH2 0x11E0 DUP4 DUP4 CALLER CALLER PUSH2 0x26FE JUMP JUMPDEST SWAP1 POP JUMPDEST SWAP3 SWAP2 POP POP JUMP JUMPDEST PUSH2 0x11F1 PUSH2 0x2675 JUMP JUMPDEST PUSH2 0x143 DUP1 SLOAD PUSH1 0x1 PUSH1 0x1 PUSH1 0xA0 SHL SUB NOT AND PUSH1 0x1 PUSH1 0x1 PUSH1 0xA0 SHL SUB SWAP3 SWAP1 SWAP3 AND SWAP2 SWAP1 SWAP2 OR SWAP1 SSTORE JUMP JUMPDEST PUSH2 0x121C PUSH2 0x2675 JUMP JUMPDEST PUSH2 0x13D SSTORE JUMP JUMPDEST PUSH1 0x0 DUP1 PUSH2 0x1233 DUP7 DUP7 DUP7 DUP7 CALLER CALLER PUSH2 0x2810 JUMP JUMPDEST SWAP2 POP SWAP2 POP SWAP5 POP SWAP5 SWAP3 POP POP POP JUMP JUMPDEST PUSH1 0x0 DUP1 PUSH2 0x1233 DUP7 DUP7 DUP7 DUP7 CALLER CALLER PUSH2 0x299E JUMP JUMPDEST PUSH1 0x0 PUSH2 0x1260 DUP5 DUP5 DUP5 CALLER CALLER PUSH2 0x2B1B JUMP JUMPDEST SWAP1 POP JUMPDEST SWAP4 SWAP3 POP POP POP JUMP JUMPDEST PUSH1 0x0 PUSH2 0x1260 DUP5 DUP5 DUP5 CALLER CALLER PUSH2 0x2C32 JUMP JUMPDEST PUSH1 0x0 DUP1 PUSH2 0x1233 DUP7 DUP7 DUP7 CALLER DUP8 PUSH2 0x2D78 JUMP JUMPDEST PUSH1 0x0 DUP1 PUSH2 0x129B DUP9 DUP9 DUP9 DUP9 DUP9 CALLER DUP10 PUSH2 0x2EB5 JUMP JUMPDEST SWAP2 POP SWAP2 POP SWAP7 POP SWAP7 SWAP5 POP POP POP POP POP JUMP JUMPDEST PUSH1 0x0 DUP1 PUSH1 0x0 PUSH2 0x12B7 PUSH2 0x3099 JUMP JUMPDEST SWAP2 POP SWAP2 POP PUSH2 0x12C5 DUP3 DUP3 PUSH2 0x3145 JUMP JUMPDEST SWAP3 POP POP POP SWAP1 JUMP JUMPDEST PUSH2 0x12D4 PUSH2 0x2675 JUMP JUMPDEST PUSH2 0x148 DUP1 SLOAD PUSH1 0xFF NOT AND SWAP2 ISZERO ISZERO SWAP2 SWAP1 SWAP2 OR SWAP1 SSTORE JUMP JUMPDEST PUSH2 0x12F0 PUSH2 0x2675 JUMP JUMPDEST PUSH2 0x140 SSTORE JUMP JUMPDEST PUSH2 0x12FE PUSH2 0x2675 JUMP JUMPDEST PUSH2 0x144 DUP1 SLOAD PUSH1 0x1 PUSH1 0x1 PUSH1 0xA0 SHL SUB NOT AND PUSH1 0x1 PUSH1 0x1 PUSH1 0xA0 SHL SUB SWAP3 SWAP1 SWAP3 AND SWAP2 SWAP1 SWAP2 OR SWAP1 SSTORE JUMP JUMPDEST PUSH2 0x1329 PUSH2 0x2675 JUMP JUMPDEST PUSH2 0x147 SSTORE JUMP JUMPDEST PUSH2 0x1337 PUSH2 0x2675 JUMP JUMPDEST PUSH1 0xCA DUP1 SLOAD PUSH1 0x1 PUSH1 0x1 PUSH1 0xA0 SHL SUB SWAP1 SWAP3 AND PUSH3 0x10000 MUL PUSH3 0x10000 PUSH1 0x1 PUSH1 0xB0 SHL SUB NOT SWAP1 SWAP3 AND SWAP2 SWAP1 SWAP2 OR SWAP1 SSTORE JUMP JUMPDEST PUSH2 0x1369 PUSH2 0x3181 JUMP JUMPDEST PUSH2 0x148 SLOAD PUSH1 0xFF AND DUP1 ISZERO PUSH2 0x1385 JUMPI POP PUSH2 0x148 SLOAD PUSH2 0x100 SWAP1 DIV PUSH1 0xFF AND ISZERO JUMPDEST DUP1 ISZERO PUSH2 0x1394 JUMPI POP PUSH2 0x1394 PUSH2 0x1AFB JUMP JUMPDEST ISZERO PUSH2 0x1443 JUMPI PUSH2 0x148 DUP1 SLOAD PUSH2 0xFF00 NOT AND PUSH2 0x100 OR SWAP1 SSTORE PUSH1 0x40 MLOAD PUSH32 0x8B77276C97A5709F0D6DB52329848A254EB760CE8BE80D281799F633BDB69E83 SWAP1 PUSH1 0x0 SWAP1 LOG1 PUSH2 0x131 PUSH1 0x0 SWAP1 SLOAD SWAP1 PUSH2 0x100 EXP SWAP1 DIV PUSH1 0x1 PUSH1 0x1 PUSH1 0xA0 SHL SUB AND PUSH1 0x1 PUSH1 0x1 PUSH1 0xA0 SHL SUB AND PUSH4 0x8456CB59 PUSH1 0x40 MLOAD DUP2 PUSH4 0xFFFFFFFF AND PUSH1 0xE0 SHL DUP2 MSTORE PUSH1 0x4 ADD PUSH1 0x0 PUSH1 0x40 MLOAD DUP1 DUP4 SUB DUP2 PUSH1 0x0 DUP8 DUP1 EXTCODESIZE ISZERO DUP1 ISZERO PUSH2 0x1423 JUMPI PUSH1 0x0 DUP1 REVERT JUMPDEST POP GAS CALL ISZERO DUP1 ISZERO PUSH2 0x1437 JUMPI RETURNDATASIZE PUSH1 0x0 DUP1 RETURNDATACOPY RETURNDATASIZE PUSH1 0x0 REVERT JUMPDEST POP POP POP POP PUSH2 0x1443 PUSH2 0x31AA JUMP JUMPDEST JUMP JUMPDEST PUSH1 0x1 PUSH1 0x1 PUSH1 0xA0 SHL SUB PUSH32 0x0 AND ADDRESS SUB PUSH2 0x1496 JUMPI PUSH1 0x40 MLOAD PUSH3 0x461BCD PUSH1 0xE5 SHL DUP2 MSTORE PUSH1 0x4 ADD PUSH2 0x148D SWAP1 PUSH2 0x52DB JUMP JUMPDEST PUSH1 0x40 MLOAD DUP1 SWAP2 SUB SWAP1 REVERT JUMPDEST PUSH32 0x0 PUSH1 0x1 PUSH1 0x1 PUSH1 0xA0 SHL SUB AND PUSH2 0x14DF PUSH1 0x0 DUP1 MLOAD PUSH1 0x20 PUSH2 0x5622 DUP4 CODECOPY DUP2 MLOAD SWAP2 MSTORE SLOAD PUSH1 0x1 PUSH1 0x1 PUSH1 0xA0 SHL SUB AND SWAP1 JUMP JUMPDEST PUSH1 0x1 PUSH1 0x1 PUSH1 0xA0 SHL SUB AND EQ PUSH2 0x1505 JUMPI PUSH1 0x40 MLOAD PUSH3 0x461BCD PUSH1 0xE5 SHL DUP2 MSTORE PUSH1 0x4 ADD PUSH2 0x148D SWAP1 PUSH2 0x5327 JUMP JUMPDEST PUSH2 0x150E DUP2 PUSH2 0x32F5 JUMP JUMPDEST PUSH1 0x40 DUP1 MLOAD PUSH1 0x0 DUP1 DUP3 MSTORE PUSH1 0x20 DUP3 ADD SWAP1 SWAP3 MSTORE PUSH2 0x152A SWAP2 DUP4 SWAP2 SWAP1 PUSH2 0x32FD JUMP JUMPDEST POP JUMP JUMPDEST PUSH2 0x1535 PUSH2 0x2675 JUMP JUMPDEST PUSH2 0x17F SSTORE JUMP JUMPDEST PUSH1 0xCA SLOAD PUSH2 0x100 SWAP1 DIV PUSH1 0xFF AND PUSH2 0x1563 JUMPI PUSH1 0x40 MLOAD PUSH4 0x7C7FD079 PUSH1 0xE0 SHL DUP2 MSTORE PUSH1 0x4 ADD PUSH1 0x40 MLOAD DUP1 SWAP2 SUB SWAP1 REVERT JUMPDEST PUSH1 0xCA SLOAD PUSH3 0x10000 SWAP1 DIV PUSH1 0x1 PUSH1 0x1 PUSH1 0xA0 SHL SUB AND CALLER EQ PUSH2 0x1594 JUMPI PUSH1 0x40 MLOAD PUSH4 0x1D77D477 PUSH1 0xE2 SHL DUP2 MSTORE PUSH1 0x4 ADD PUSH1 0x40 MLOAD DUP1 SWAP2 SUB SWAP1 REVERT JUMPDEST PUSH1 0xCA DUP1 SLOAD PUSH2 0xFF00 NOT AND SWAP1 SSTORE PUSH1 0x40 MLOAD CALLER DUP2 MSTORE PUSH32 0x5DB9EE0A495BF2E6FF9C91A7834C1BA4FDD244A5E8AA4E537BD38AEAE4B073AA SWAP1 PUSH1 0x20 ADD JUMPDEST PUSH1 0x40 MLOAD DUP1 SWAP2 SUB SWAP1 LOG1 JUMP JUMPDEST PUSH1 0x0 DUP1 PUSH1 0x0 PUSH2 0x15E2 PUSH2 0x3099 JUMP JUMPDEST SWAP2 POP SWAP2 POP PUSH2 0x12C5 PUSH2 0x15F1 PUSH2 0x346D JUMP JUMPDEST DUP4 DUP4 PUSH2 0x3554 JUMP JUMPDEST PUSH1 0x0 PUSH2 0x1260 DUP5 DUP5 CALLER DUP6 PUSH2 0x26FE JUMP JUMPDEST PUSH1 0x0 DUP1 PUSH2 0x118B DUP8 DUP8 DUP8 DUP8 CALLER DUP9 PUSH2 0x2810 JUMP JUMPDEST PUSH2 0x135 DUP2 DUP2 SLOAD DUP2 LT PUSH2 0x1628 JUMPI PUSH1 0x0 DUP1 REVERT JUMPDEST PUSH1 0x0 SWAP2 DUP3 MSTORE PUSH1 0x20 SWAP1 SWAP2 KECCAK256 PUSH1 0x2 SWAP1 SWAP2 MUL ADD DUP1 SLOAD PUSH1 0x1 SWAP1 SWAP2 ADD SLOAD SWAP1 SWAP2 POP PUSH1 0x1 PUSH1 0x1 PUSH1 0xA0 SHL SUB AND DUP3 JUMP JUMPDEST PUSH1 0x0 PUSH2 0x165E DUP6 DUP6 DUP6 CALLER DUP7 PUSH2 0x2C32 JUMP JUMPDEST SWAP1 POP JUMPDEST SWAP5 SWAP4 POP POP POP POP JUMP JUMPDEST PUSH1 0x1 PUSH1 0x1 PUSH1 0xA0 SHL SUB PUSH32 0x0 AND ADDRESS SUB PUSH2 0x16B1 JUMPI PUSH1 0x40 MLOAD PUSH3 0x461BCD PUSH1 0xE5 SHL DUP2 MSTORE PUSH1 0x4 ADD PUSH2 0x148D SWAP1 PUSH2 0x52DB JUMP JUMPDEST PUSH32 0x0 PUSH1 0x1 PUSH1 0x1 PUSH1 0xA0 SHL SUB AND PUSH2 0x16FA PUSH1 0x0 DUP1 MLOAD PUSH1 0x20 PUSH2 0x5622 DUP4 CODECOPY DUP2 MLOAD SWAP2 MSTORE SLOAD PUSH1 0x1 PUSH1 0x1 PUSH1 0xA0 SHL SUB AND SWAP1 JUMP JUMPDEST PUSH1 0x1 PUSH1 0x1 PUSH1 0xA0 SHL SUB AND EQ PUSH2 0x1720 JUMPI PUSH1 0x40 MLOAD PUSH3 0x461BCD PUSH1 0xE5 SHL DUP2 MSTORE PUSH1 0x4 ADD PUSH2 0x148D SWAP1 PUSH2 0x5327 JUMP JUMPDEST PUSH2 0x1729 DUP3 PUSH2 0x32F5 JUMP JUMPDEST PUSH2 0x1735 DUP3 DUP3 PUSH1 0x1 PUSH2 0x32FD JUMP JUMPDEST POP POP JUMP JUMPDEST PUSH2 0x1741 PUSH2 0x2675 JUMP JUMPDEST PUSH1 0xCA DUP1 SLOAD PUSH1 0xFF NOT AND SWAP1 SSTORE JUMP JUMPDEST PUSH2 0x142 DUP2 DUP2 SLOAD DUP2 LT PUSH2 0x175E JUMPI PUSH1 0x0 DUP1 REVERT JUMPDEST PUSH1 0x0 SWAP2 DUP3 MSTORE PUSH1 0x20 SWAP1 SWAP2 KECCAK256 ADD SLOAD SWAP1 POP DUP2 JUMP JUMPDEST PUSH1 0x0 ADDRESS PUSH1 0x1 PUSH1 0x1 PUSH1 0xA0 SHL SUB PUSH32 0x0 AND EQ PUSH2 0x180F JUMPI PUSH1 0x40 MLOAD PUSH3 0x461BCD PUSH1 0xE5 SHL DUP2 MSTORE PUSH1 0x20 PUSH1 0x4 DUP3 ADD MSTORE PUSH1 0x38 PUSH1 0x24 DUP3 ADD MSTORE PUSH32 0x555550535570677261646561626C653A206D757374206E6F742062652063616C PUSH1 0x44 DUP3 ADD MSTORE PUSH32 0x6C6564207468726F7567682064656C656761746563616C6C0000000000000000 PUSH1 0x64 DUP3 ADD MSTORE PUSH1 0x84 ADD PUSH2 0x148D JUMP JUMPDEST POP PUSH1 0x0 DUP1 MLOAD PUSH1 0x20 PUSH2 0x5622 DUP4 CODECOPY DUP2 MLOAD SWAP2 MSTORE SWAP1 JUMP JUMPDEST PUSH1 0x0 PUSH2 0x165E DUP6 DUP6 DUP6 CALLER DUP7 PUSH2 0x2B1B JUMP JUMPDEST PUSH1 0x0 PUSH8 0xDE0B6B3A7640000 PUSH2 0x146 SLOAD PUSH2 0x184A SWAP2 SWAP1 PUSH2 0x5389 JUMP JUMPDEST PUSH2 0x27D SLOAD PUSH2 0x1858 SWAP2 SWAP1 PUSH2 0x53AB JUMP JUMPDEST SWAP1 POP SWAP1 JUMP JUMPDEST PUSH2 0x1865 PUSH2 0x3181 JUMP JUMPDEST PUSH2 0x1B3 SLOAD NUMBER LT PUSH2 0x1443 JUMPI PUSH2 0x1B2 SLOAD PUSH2 0x187D SWAP1 NUMBER PUSH2 0x53AB JUMP JUMPDEST PUSH2 0x1B3 SSTORE PUSH1 0x40 MLOAD PUSH32 0xD3C59BDA47E141A8EC5A33D241B7F71B86E30D359F83A9227D912858B60404FC SWAP1 PUSH1 0x0 SWAP1 LOG1 PUSH2 0x1443 PUSH2 0x3578 JUMP JUMPDEST PUSH1 0x0 PUSH2 0x11E0 DUP4 CALLER DUP5 PUSH2 0x3580 JUMP JUMPDEST PUSH1 0x0 PUSH2 0x18C9 PUSH2 0x1CE4 JUMP JUMPDEST PUSH2 0x1858 PUSH2 0x346D JUMP JUMPDEST PUSH2 0x18D9 PUSH2 0x2675 JUMP JUMPDEST PUSH1 0xCA DUP1 SLOAD PUSH1 0xFF NOT AND PUSH1 0x1 OR SWAP1 SSTORE JUMP JUMPDEST PUSH2 0x18F0 PUSH2 0x2675 JUMP JUMPDEST PUSH2 0x13C SSTORE JUMP JUMPDEST PUSH2 0x18FE PUSH2 0x2675 JUMP JUMPDEST PUSH2 0x139 SSTORE JUMP JUMPDEST PUSH1 0x0 DUP1 PUSH2 0x191A DUP5 DUP5 PUSH2 0x1915 DUP8 PUSH2 0x1A16 JUMP JUMPDEST PUSH2 0x37B0 JUMP JUMPDEST SWAP2 POP SWAP2 POP SWAP3 POP SWAP3 SWAP1 POP JUMP JUMPDEST PUSH2 0x192D PUSH2 0x2675 JUMP JUMPDEST PUSH2 0x13F SSTORE JUMP JUMPDEST PUSH2 0x193B PUSH2 0x2675 JUMP JUMPDEST PUSH2 0x13E SSTORE JUMP JUMPDEST PUSH2 0x1949 PUSH2 0x2675 JUMP JUMPDEST PUSH2 0x146 SSTORE JUMP JUMPDEST PUSH2 0x145 DUP2 DUP2 SLOAD DUP2 LT PUSH2 0x175E JUMPI PUSH1 0x0 DUP1 REVERT JUMPDEST PUSH1 0x0 DUP1 PUSH1 0x0 PUSH2 0x196D PUSH2 0x3099 JUMP JUMPDEST SWAP2 POP SWAP2 POP PUSH2 0x12C5 DUP3 DUP3 PUSH2 0x3812 JUMP JUMPDEST PUSH2 0x1983 PUSH2 0x3181 JUMP JUMPDEST PUSH1 0xCA SLOAD PUSH3 0x10000 SWAP1 DIV PUSH1 0x1 PUSH1 0x1 PUSH1 0xA0 SHL SUB AND CALLER EQ PUSH2 0x19B4 JUMPI PUSH1 0x40 MLOAD PUSH4 0x1D77D477 PUSH1 0xE2 SHL DUP2 MSTORE PUSH1 0x4 ADD PUSH1 0x40 MLOAD DUP1 SWAP2 SUB SWAP1 REVERT JUMPDEST PUSH1 0xCA SLOAD PUSH1 0xFF AND PUSH2 0x19D7 JUMPI PUSH1 0x40 MLOAD PUSH4 0x866099C3 PUSH1 0xE0 SHL DUP2 MSTORE PUSH1 0x4 ADD PUSH1 0x40 MLOAD DUP1 SWAP2 SUB SWAP1 REVERT JUMPDEST PUSH1 0xCA DUP1 SLOAD PUSH2 0xFF00 NOT AND PUSH2 0x100 OR SWAP1 SSTORE PUSH1 0x40 MLOAD CALLER DUP2 MSTORE PUSH32 0x62E78CEA01BEE320CD4E420270B5EA74000D11B0C9F74754EBDBFC544B05A258 SWAP1 PUSH1 0x20 ADD PUSH2 0x15CB JUMP JUMPDEST PUSH1 0x0 DUP1 PUSH2 0x135 DUP4 DUP2 SLOAD DUP2 LT PUSH2 0x1A2D JUMPI PUSH2 0x1A2D PUSH2 0x53BE JUMP JUMPDEST PUSH1 0x0 SWAP2 DUP3 MSTORE PUSH1 0x20 DUP3 KECCAK256 PUSH1 0x1 PUSH1 0x2 SWAP1 SWAP3 MUL ADD ADD SLOAD PUSH1 0x40 DUP1 MLOAD PUSH4 0x59E02DD7 PUSH1 0xE0 SHL DUP2 MSTORE DUP2 MLOAD PUSH1 0x1 PUSH1 0x1 PUSH1 0xA0 SHL SUB SWAP1 SWAP4 AND SWAP5 POP DUP4 SWAP3 DUP6 SWAP3 PUSH4 0x59E02DD7 SWAP3 PUSH1 0x4 DUP1 DUP3 ADD SWAP4 SWAP2 DUP3 SWAP1 SUB ADD DUP2 DUP7 GAS STATICCALL ISZERO DUP1 ISZERO PUSH2 0x1A87 JUMPI RETURNDATASIZE PUSH1 0x0 DUP1 RETURNDATACOPY RETURNDATASIZE PUSH1 0x0 REVERT JUMPDEST POP POP POP POP PUSH1 0x40 MLOAD RETURNDATASIZE PUSH1 0x1F NOT PUSH1 0x1F DUP3 ADD AND DUP3 ADD DUP1 PUSH1 0x40 MSTORE POP DUP2 ADD SWAP1 PUSH2 0x1AAB SWAP2 SWAP1 PUSH2 0x53D4 JUMP JUMPDEST SWAP2 POP SWAP2 POP DUP1 PUSH2 0x1AD8 JUMPI PUSH1 0x40 MLOAD PUSH4 0xDE4F3A0F PUSH1 0xE0 SHL DUP2 MSTORE PUSH1 0x1 PUSH1 0x1 PUSH1 0xA0 SHL SUB DUP5 AND PUSH1 0x4 DUP3 ADD MSTORE PUSH1 0x24 ADD PUSH2 0x148D JUMP JUMPDEST POP SWAP4 SWAP3 POP POP POP JUMP JUMPDEST PUSH1 0x0 PUSH2 0x11E3 DUP3 CALLER CALLER PUSH2 0x3580 JUMP JUMPDEST PUSH1 0x0 PUSH2 0x11E0 DUP4 DUP4 CALLER CALLER PUSH2 0x3831 JUMP JUMPDEST PUSH1 0x0 DUP1 PUSH1 0x0 PUSH2 0x1B08 PUSH2 0x3099 JUMP JUMPDEST SWAP2 POP SWAP2 POP PUSH1 0x0 PUSH2 0x1B18 DUP4 DUP4 PUSH2 0x3812 JUMP JUMPDEST PUSH2 0x147 SLOAD LT ISZERO SWAP5 SWAP4 POP POP POP POP JUMP JUMPDEST PUSH1 0x0 DUP1 PUSH2 0x118B DUP8 DUP8 DUP8 DUP8 CALLER DUP9 PUSH2 0x299E JUMP JUMPDEST PUSH1 0x0 DUP1 PUSH2 0x1233 DUP7 DUP7 DUP7 DUP7 CALLER CALLER PUSH2 0x2496 JUMP JUMPDEST PUSH1 0x0 SLOAD PUSH2 0x100 SWAP1 DIV PUSH1 0xFF AND ISZERO DUP1 DUP1 ISZERO PUSH2 0x1B68 JUMPI POP PUSH1 0x0 SLOAD PUSH1 0x1 PUSH1 0xFF SWAP1 SWAP2 AND LT JUMPDEST DUP1 PUSH2 0x1B82 JUMPI POP ADDRESS EXTCODESIZE ISZERO DUP1 ISZERO PUSH2 0x1B82 JUMPI POP PUSH1 0x0 SLOAD PUSH1 0xFF AND PUSH1 0x1 EQ JUMPDEST PUSH2 0x1BE5 JUMPI PUSH1 0x40 MLOAD PUSH3 0x461BCD PUSH1 0xE5 SHL DUP2 MSTORE PUSH1 0x20 PUSH1 0x4 DUP3 ADD MSTORE PUSH1 0x2E PUSH1 0x24 DUP3 ADD MSTORE PUSH32 0x496E697469616C697A61626C653A20636F6E747261637420697320616C726561 PUSH1 0x44 DUP3 ADD MSTORE PUSH14 0x191E481A5B9A5D1A585B1A5E9959 PUSH1 0x92 SHL PUSH1 0x64 DUP3 ADD MSTORE PUSH1 0x84 ADD PUSH2 0x148D JUMP JUMPDEST PUSH1 0x0 DUP1 SLOAD PUSH1 0xFF NOT AND PUSH1 0x1 OR SWAP1 SSTORE DUP1 ISZERO PUSH2 0x1C08 JUMPI PUSH1 0x0 DUP1 SLOAD PUSH2 0xFF00 NOT AND PUSH2 0x100 OR SWAP1 SSTORE JUMPDEST PUSH2 0x1C1A PUSH2 0x280 DUP4 ADD PUSH2 0x260 DUP5 ADD PUSH2 0x4FF6 JUMP JUMPDEST PUSH2 0x24A DUP1 SLOAD PUSH1 0x1 PUSH1 0x1 PUSH1 0xA0 SHL SUB NOT AND PUSH1 0x1 PUSH1 0x1 PUSH1 0xA0 SHL SUB SWAP3 SWAP1 SWAP3 AND SWAP2 SWAP1 SWAP2 OR SWAP1 SSTORE PUSH2 0x1C44 DUP3 PUSH2 0x393C JUMP JUMPDEST DUP1 ISZERO PUSH2 0x1735 JUMPI PUSH1 0x0 DUP1 SLOAD PUSH2 0xFF00 NOT AND SWAP1 SSTORE PUSH1 0x40 MLOAD PUSH1 0x1 DUP2 MSTORE PUSH32 0x7F26B83FF96E1F2B6A682F133852F6798A09C465DA95921460CEFB3847402498 SWAP1 PUSH1 0x20 ADD PUSH1 0x40 MLOAD DUP1 SWAP2 SUB SWAP1 LOG1 POP POP JUMP JUMPDEST PUSH2 0x1C95 PUSH2 0x2675 JUMP JUMPDEST PUSH2 0x137 SSTORE JUMP JUMPDEST PUSH2 0x1CA3 PUSH2 0x2675 JUMP JUMPDEST PUSH2 0x13B SSTORE JUMP JUMPDEST PUSH1 0x0 DUP1 PUSH1 0x0 PUSH2 0x1CB6 PUSH2 0x3099 JUMP JUMPDEST SWAP2 POP SWAP2 POP PUSH2 0x12C5 DUP3 DUP3 PUSH2 0x39B4 JUMP JUMPDEST PUSH2 0x1CCC PUSH2 0x2675 JUMP JUMPDEST PUSH2 0x1B2 SSTORE JUMP JUMPDEST PUSH1 0x0 DUP1 PUSH2 0x118B DUP8 DUP8 DUP8 DUP8 DUP8 CALLER CALLER PUSH2 0x2EB5 JUMP JUMPDEST PUSH2 0x17E SLOAD NUMBER LT PUSH2 0x1443 JUMPI PUSH2 0x135 SLOAD PUSH1 0x0 JUMPDEST DUP2 DUP2 LT ISZERO PUSH2 0x1D0E JUMPI PUSH2 0x1D06 DUP2 PUSH2 0x39D0 JUMP JUMPDEST PUSH1 0x1 ADD PUSH2 0x1CF5 JUMP JUMPDEST POP PUSH2 0x152A PUSH2 0x17F SLOAD NUMBER ADD PUSH2 0x17E SSTORE JUMP JUMPDEST PUSH2 0x1D26 PUSH2 0x2675 JUMP JUMPDEST PUSH1 0x0 PUSH2 0x1D35 PUSH1 0x20 DUP4 ADD DUP4 PUSH2 0x4FF6 JUMP JUMPDEST PUSH1 0x40 MLOAD PUSH4 0xD55FD845 PUSH1 0xE0 SHL DUP2 MSTORE ADDRESS PUSH1 0x4 DUP3 ADD MSTORE SWAP1 SWAP2 POP PUSH1 0x1 PUSH1 0x1 PUSH1 0xA0 SHL SUB DUP3 AND SWAP1 PUSH4 0xD55FD845 SWAP1 PUSH1 0x24 ADD PUSH1 0x20 PUSH1 0x40 MLOAD DUP1 DUP4 SUB DUP2 DUP7 GAS STATICCALL ISZERO DUP1 ISZERO PUSH2 0x1D7C JUMPI RETURNDATASIZE PUSH1 0x0 DUP1 RETURNDATACOPY RETURNDATASIZE PUSH1 0x0 REVERT JUMPDEST POP POP POP POP PUSH1 0x40 MLOAD RETURNDATASIZE PUSH1 0x1F NOT PUSH1 0x1F DUP3 ADD AND DUP3 ADD DUP1 PUSH1 0x40 MSTORE POP DUP2 ADD SWAP1 PUSH2 0x1DA0 SWAP2 SWAP1 PUSH2 0x53F9 JUMP JUMPDEST PUSH2 0x1DBD JUMPI PUSH1 0x40 MLOAD PUSH4 0xE6C4247B PUSH1 0xE0 SHL DUP2 MSTORE PUSH1 0x4 ADD PUSH1 0x40 MLOAD DUP1 SWAP2 SUB SWAP1 REVERT JUMPDEST PUSH1 0x0 PUSH2 0x1DCF PUSH1 0x40 DUP5 ADD PUSH1 0x20 DUP6 ADD PUSH2 0x4FF6 JUMP JUMPDEST PUSH1 0x1 PUSH1 0x1 PUSH1 0xA0 SHL SUB DUP4 AND PUSH1 0x0 SWAP1 DUP2 MSTORE PUSH2 0x134 PUSH1 0x20 MSTORE PUSH1 0x40 SWAP1 KECCAK256 PUSH1 0x1 ADD SLOAD SWAP1 SWAP2 POP PUSH1 0xFF AND ISZERO PUSH2 0x1E10 JUMPI PUSH1 0x40 MLOAD PUSH4 0x3458F6C5 PUSH1 0xE0 SHL DUP2 MSTORE PUSH1 0x4 ADD PUSH1 0x40 MLOAD DUP1 SWAP2 SUB SWAP1 REVERT JUMPDEST PUSH2 0x133 DUP1 SLOAD PUSH1 0x40 DUP1 MLOAD DUP1 DUP3 ADD DUP3 MSTORE DUP3 DUP2 MSTORE PUSH1 0x1 PUSH1 0x20 DUP1 DUP4 ADD DUP3 DUP2 MSTORE PUSH1 0x1 PUSH1 0x1 PUSH1 0xA0 SHL SUB DUP1 DUP11 AND PUSH1 0x0 DUP2 DUP2 MSTORE PUSH2 0x134 DUP6 MSTORE DUP8 DUP2 KECCAK256 SWAP7 MLOAD DUP8 SSTORE SWAP3 MLOAD SWAP6 DUP6 ADD DUP1 SLOAD SWAP7 ISZERO ISZERO PUSH1 0xFF NOT SWAP1 SWAP8 AND SWAP7 SWAP1 SWAP7 OR SWAP1 SWAP6 SSTORE DUP8 SLOAD DUP1 DUP6 ADD SWAP1 SWAP9 SSTORE PUSH32 0x92E985329FB94CC1B424EBB0F7F2929B6D27383CA94C0EC71C44FB48BDF96D2C SWAP1 SWAP8 ADD DUP1 SLOAD PUSH1 0x1 PUSH1 0x1 PUSH1 0xA0 SHL SUB NOT SWAP1 DUP2 AND SWAP1 SWAP6 OR SWAP1 SSTORE DUP5 MLOAD DUP1 DUP7 ADD DUP7 MSTORE DUP2 DUP2 MSTORE DUP9 DUP9 AND DUP2 DUP5 ADD SWAP1 DUP2 MSTORE PUSH2 0x135 DUP1 SLOAD DUP1 DUP8 ADD DUP3 SSTORE SWAP1 DUP5 MSTORE SWAP2 MLOAD PUSH1 0x2 SWAP3 DUP4 MUL PUSH32 0xDF37D27E88E3BD0B85262482997E409A463F5BE0EBB19232ABF994DD8474090D DUP2 ADD SWAP2 SWAP1 SWAP2 SSTORE SWAP1 MLOAD PUSH32 0xDF37D27E88E3BD0B85262482997E409A463F5BE0EBB19232ABF994DD8474090E SWAP1 SWAP2 ADD DUP1 SLOAD SWAP2 SWAP1 SWAP10 AND SWAP6 AND SWAP5 SWAP1 SWAP5 OR SWAP1 SWAP7 SSTORE PUSH2 0x145 DUP1 SLOAD DUP1 DUP5 ADD SWAP1 SWAP2 SSTORE DUP10 DUP6 ADD CALLDATALOAD PUSH32 0xED95984ADD84C4014C7F9D66A1B73E788E2DB64F5763FA861AD52DA204F71B2B SWAP1 SWAP2 ADD SSTORE PUSH2 0x141 DUP1 SLOAD DUP1 DUP5 ADD SWAP1 SWAP2 SSTORE PUSH1 0x60 DUP11 ADD CALLDATALOAD PUSH32 0xB3926254D0163C91FC94BF08F3F8062FF5D48635DFA7DBEF8168AD7D4847A758 SWAP1 SWAP2 ADD SSTORE PUSH2 0x142 DUP1 SLOAD DUP1 DUP5 ADD SWAP1 SWAP2 SSTORE PUSH1 0x80 DUP11 ADD CALLDATALOAD PUSH32 0x7917AD5F1BD6FA6D4F9128143F89BCBA30C5B503E76ECD2DD7562DDF9706AE19 SWAP1 SWAP2 ADD SSTORE DUP4 MLOAD DUP1 DUP6 ADD SWAP1 SWAP5 MSTORE PUSH1 0xA0 DUP10 ADD CALLDATALOAD DUP5 MSTORE PUSH1 0xC0 DUP10 ADD CALLDATALOAD SWAP1 DUP5 ADD SWAP1 DUP2 MSTORE PUSH2 0x17D DUP1 SLOAD DUP1 DUP5 ADD DUP3 SSTORE SWAP1 DUP8 MSTORE SWAP4 MLOAD SWAP4 SWAP1 SWAP3 MUL PUSH32 0xF2AEC2A8C6072690B3C86D5C08E34587F891268D22D8BDCA6E66838C0F2F22D DUP2 ADD SWAP4 SWAP1 SWAP4 SSTORE SWAP1 MLOAD PUSH32 0xF2AEC2A8C6072690B3C86D5C08E34587F891268D22D8BDCA6E66838C0F2F22E SWAP1 SWAP3 ADD SWAP2 SWAP1 SWAP2 SSTORE PUSH2 0x149 DUP1 SLOAD SWAP1 SWAP2 ADD DUP2 SSTORE SWAP1 SWAP2 MSTORE PUSH2 0x14A PUSH2 0x2055 DUP3 PUSH2 0x1A16 JUMP JUMPDEST DUP2 SLOAD PUSH1 0x1 DUP2 ADD DUP4 SSTORE PUSH1 0x0 SWAP3 DUP4 MSTORE PUSH1 0x20 SWAP1 SWAP3 KECCAK256 SWAP1 SWAP2 ADD SSTORE PUSH1 0x40 MLOAD DUP2 SWAP1 PUSH32 0x6417E5A3C1E0E5DAE98B8FE718C4BABDFCB35E0D7B5E1B9641B5914756F5D8E3 SWAP1 PUSH2 0x209D SWAP1 DUP8 SWAP1 PUSH2 0x5416 JUMP JUMPDEST PUSH1 0x40 MLOAD DUP1 SWAP2 SUB SWAP1 LOG2 POP POP POP POP JUMP JUMPDEST PUSH2 0x141 DUP2 DUP2 SLOAD DUP2 LT PUSH2 0x175E JUMPI PUSH1 0x0 DUP1 REVERT JUMPDEST PUSH1 0x0 DUP1 PUSH2 0x20C7 PUSH2 0x3099 JUMP JUMPDEST SWAP2 POP POP PUSH2 0x20D3 DUP2 PUSH2 0x3AEA JUMP JUMPDEST SWAP2 POP POP SWAP1 JUMP JUMPDEST PUSH1 0x0 PUSH2 0x12F SLOAD PUSH2 0x20E8 ADDRESS PUSH2 0x3AFB JUMP JUMPDEST PUSH2 0x20F2 SWAP2 SWAP1 PUSH2 0x5483 JUMP JUMPDEST GT ISZERO PUSH2 0x1443 JUMPI PUSH2 0x1443 PUSH2 0x12F SLOAD PUSH2 0x2108 ADDRESS PUSH2 0x3AFB JUMP JUMPDEST PUSH2 0x2112 SWAP2 SWAP1 PUSH2 0x5483 JUMP JUMPDEST PUSH2 0x3B6B JUMP JUMPDEST PUSH1 0x0 PUSH2 0x1260 DUP5 DUP5 CALLER DUP6 PUSH2 0x3831 JUMP JUMPDEST PUSH2 0x212D PUSH2 0x2675 JUMP JUMPDEST PUSH1 0x97 DUP1 SLOAD PUSH1 0x1 PUSH1 0x1 PUSH1 0xA0 SHL SUB NOT AND PUSH1 0x1 PUSH1 0x1 PUSH1 0xA0 SHL SUB SWAP3 SWAP1 SWAP3 AND SWAP2 SWAP1 SWAP2 OR SWAP1 SSTORE JUMP JUMPDEST PUSH2 0x17D DUP2 DUP2 SLOAD DUP2 LT PUSH2 0x2160 JUMPI PUSH1 0x0 DUP1 REVERT JUMPDEST PUSH1 0x0 SWAP2 DUP3 MSTORE PUSH1 0x20 SWAP1 SWAP2 KECCAK256 PUSH1 0x2 SWAP1 SWAP2 MUL ADD DUP1 SLOAD PUSH1 0x1 SWAP1 SWAP2 ADD SLOAD SWAP1 SWAP2 POP DUP3 JUMP JUMPDEST PUSH1 0x0 PUSH2 0x1B3 SLOAD NUMBER LT PUSH2 0x2190 JUMPI POP PUSH1 0x0 SWAP1 JUMP JUMPDEST NUMBER PUSH2 0x1B3 SLOAD PUSH2 0x1858 SWAP2 SWAP1 PUSH2 0x5483 JUMP JUMPDEST PUSH1 0x0 DUP1 PUSH2 0x21AF DUP6 DUP6 DUP6 CALLER CALLER PUSH2 0x2D78 JUMP JUMPDEST SWAP2 POP SWAP2 POP SWAP4 POP SWAP4 SWAP2 POP POP JUMP JUMPDEST PUSH2 0x21C3 PUSH2 0x2675 JUMP JUMPDEST PUSH1 0x0 PUSH2 0x134 DUP2 PUSH2 0x21D6 PUSH1 0x20 DUP6 ADD DUP6 PUSH2 0x4FF6 JUMP JUMPDEST PUSH1 0x1 PUSH1 0x1 PUSH1 0xA0 SHL SUB AND DUP2 MSTORE PUSH1 0x20 DUP1 DUP3 ADD SWAP3 SWAP1 SWAP3 MSTORE PUSH1 0x40 SWAP1 DUP2 ADD PUSH1 0x0 KECCAK256 DUP2 MLOAD DUP1 DUP4 ADD SWAP1 SWAP3 MSTORE DUP1 SLOAD DUP3 MSTORE PUSH1 0x1 ADD SLOAD PUSH1 0xFF AND ISZERO ISZERO SWAP2 DUP2 ADD DUP3 SWAP1 MSTORE SWAP2 POP PUSH2 0x222C JUMPI PUSH1 0x40 MLOAD PUSH4 0xE6C4247B PUSH1 0xE0 SHL DUP2 MSTORE PUSH1 0x4 ADD PUSH1 0x40 MLOAD DUP1 SWAP2 SUB SWAP1 REVERT JUMPDEST DUP1 MLOAD PUSH2 0x135 DUP1 SLOAD DUP3 SWAP1 DUP2 LT PUSH2 0x2243 JUMPI PUSH2 0x2243 PUSH2 0x53BE JUMP JUMPDEST PUSH1 0x0 SWAP2 DUP3 MSTORE PUSH1 0x20 SWAP2 DUP3 SWAP1 KECCAK256 PUSH1 0x1 PUSH1 0x2 SWAP1 SWAP3 MUL ADD ADD SLOAD PUSH1 0x1 PUSH1 0x1 PUSH1 0xA0 SHL SUB AND SWAP1 PUSH2 0x2272 SWAP1 PUSH1 0x40 DUP7 ADD SWAP1 DUP7 ADD PUSH2 0x4FF6 JUMP JUMPDEST PUSH1 0x1 PUSH1 0x1 PUSH1 0xA0 SHL SUB AND EQ PUSH2 0x2365 JUMPI PUSH1 0x0 PUSH2 0x2292 PUSH1 0x40 DUP6 ADD PUSH1 0x20 DUP7 ADD PUSH2 0x4FF6 JUMP JUMPDEST SWAP1 POP PUSH1 0x0 DUP2 PUSH1 0x1 PUSH1 0x1 PUSH1 0xA0 SHL SUB AND PUSH4 0x59E02DD7 PUSH1 0x40 MLOAD DUP2 PUSH4 0xFFFFFFFF AND PUSH1 0xE0 SHL DUP2 MSTORE PUSH1 0x4 ADD PUSH1 0x40 DUP1 MLOAD DUP1 DUP4 SUB DUP2 DUP7 GAS STATICCALL ISZERO DUP1 ISZERO PUSH2 0x22D3 JUMPI RETURNDATASIZE PUSH1 0x0 DUP1 RETURNDATACOPY RETURNDATASIZE PUSH1 0x0 REVERT JUMPDEST POP POP POP POP PUSH1 0x40 MLOAD RETURNDATASIZE PUSH1 0x1F NOT PUSH1 0x1F DUP3 ADD AND DUP3 ADD DUP1 PUSH1 0x40 MSTORE POP DUP2 ADD SWAP1 PUSH2 0x22F7 SWAP2 SWAP1 PUSH2 0x53D4 JUMP JUMPDEST SWAP2 POP POP DUP1 PUSH2 0x2318 JUMPI PUSH1 0x40 MLOAD PUSH4 0xE6C4247B PUSH1 0xE0 SHL DUP2 MSTORE PUSH1 0x4 ADD PUSH1 0x40 MLOAD DUP1 SWAP2 SUB SWAP1 REVERT JUMPDEST DUP2 PUSH2 0x135 DUP5 DUP2 SLOAD DUP2 LT PUSH2 0x232D JUMPI PUSH2 0x232D PUSH2 0x53BE JUMP JUMPDEST SWAP1 PUSH1 0x0 MSTORE PUSH1 0x20 PUSH1 0x0 KECCAK256 SWAP1 PUSH1 0x2 MUL ADD PUSH1 0x1 ADD PUSH1 0x0 PUSH2 0x100 EXP DUP2 SLOAD DUP2 PUSH1 0x1 PUSH1 0x1 PUSH1 0xA0 SHL SUB MUL NOT AND SWAP1 DUP4 PUSH1 0x1 PUSH1 0x1 PUSH1 0xA0 SHL SUB AND MUL OR SWAP1 SSTORE POP POP POP JUMPDEST DUP3 PUSH1 0x40 ADD CALLDATALOAD PUSH2 0x145 DUP3 DUP2 SLOAD DUP2 LT PUSH2 0x237E JUMPI PUSH2 0x237E PUSH2 0x53BE JUMP JUMPDEST SWAP1 PUSH1 0x0 MSTORE PUSH1 0x20 PUSH1 0x0 KECCAK256 ADD DUP2 SWAP1 SSTORE POP DUP3 PUSH1 0x60 ADD CALLDATALOAD PUSH2 0x141 DUP3 DUP2 SLOAD DUP2 LT PUSH2 0x23A5 JUMPI PUSH2 0x23A5 PUSH2 0x53BE JUMP JUMPDEST SWAP1 PUSH1 0x0 MSTORE PUSH1 0x20 PUSH1 0x0 KECCAK256 ADD DUP2 SWAP1 SSTORE POP DUP3 PUSH1 0x80 ADD CALLDATALOAD PUSH2 0x142 DUP3 DUP2 SLOAD DUP2 LT PUSH2 0x23CC JUMPI PUSH2 0x23CC PUSH2 0x53BE JUMP JUMPDEST SWAP1 PUSH1 0x0 MSTORE PUSH1 0x20 PUSH1 0x0 KECCAK256 ADD DUP2 SWAP1 SSTORE POP DUP3 PUSH1 0xC0 ADD CALLDATALOAD PUSH2 0x17D DUP3 DUP2 SLOAD DUP2 LT PUSH2 0x23F3 JUMPI PUSH2 0x23F3 PUSH2 0x53BE JUMP JUMPDEST SWAP1 PUSH1 0x0 MSTORE PUSH1 0x20 PUSH1 0x0 KECCAK256 SWAP1 PUSH1 0x2 MUL ADD PUSH1 0x1 ADD DUP2 SWAP1 SSTORE POP DUP1 PUSH32 0x6417E5A3C1E0E5DAE98B8FE718C4BABDFCB35E0D7B5E1B9641B5914756F5D8E3 DUP5 PUSH1 0x40 MLOAD PUSH2 0x2438 SWAP2 SWAP1 PUSH2 0x5416 JUMP JUMPDEST PUSH1 0x40 MLOAD DUP1 SWAP2 SUB SWAP1 LOG2 POP POP POP JUMP JUMPDEST PUSH2 0x244D PUSH2 0x2675 JUMP JUMPDEST PUSH2 0x13A SSTORE JUMP JUMPDEST PUSH1 0x0 DUP1 PUSH2 0x245F DUP4 PUSH2 0x1A16 JUMP JUMPDEST SWAP1 POP PUSH1 0x0 DUP1 PUSH2 0x246C PUSH2 0x3099 JUMP JUMPDEST SWAP2 POP SWAP2 POP PUSH2 0x248D PUSH2 0x247B PUSH2 0x346D JUMP JUMPDEST PUSH2 0x2485 DUP8 DUP7 PUSH2 0x3B86 JUMP JUMPDEST DUP6 DUP6 DUP6 PUSH2 0x3BF8 JUMP JUMPDEST SWAP6 SWAP5 POP POP POP POP POP JUMP JUMPDEST PUSH1 0x0 DUP1 PUSH2 0x24A1 PUSH2 0x3C41 JUMP JUMPDEST PUSH2 0x24A9 PUSH2 0x3181 JUMP JUMPDEST PUSH1 0x0 PUSH2 0x24B4 DUP10 PUSH2 0x1A16 JUMP JUMPDEST SWAP1 POP PUSH2 0x24C0 DUP10 DUP3 PUSH2 0x3C6B JUMP JUMPDEST PUSH1 0x0 PUSH2 0x24CA PUSH2 0x18BF JUMP JUMPDEST SWAP1 POP PUSH1 0x0 DUP1 PUSH2 0x24D8 DUP4 PUSH2 0x3CCE JUMP JUMPDEST SWAP2 POP SWAP2 POP PUSH2 0x24E8 DUP12 DUP5 DUP5 DUP5 PUSH2 0x3D1C JUMP JUMPDEST PUSH1 0x0 PUSH2 0x24F5 DUP13 DUP5 DUP5 PUSH2 0x3D56 JUMP JUMPDEST POP SWAP1 POP DUP1 PUSH1 0x0 SUB PUSH2 0x2519 JUMPI PUSH1 0x40 MLOAD PUSH4 0xF3E39B5D PUSH1 0xE0 SHL DUP2 MSTORE PUSH1 0x4 ADD PUSH1 0x40 MLOAD DUP1 SWAP2 SUB SWAP1 REVERT JUMPDEST PUSH8 0xDE0B6B3A7640000 PUSH2 0x132 SLOAD DUP7 DUP6 PUSH2 0x2531 DUP7 PUSH2 0x3AEA JUMP JUMPDEST PUSH2 0x253B SWAP2 SWAP1 PUSH2 0x5483 JUMP JUMPDEST DUP16 PUSH2 0x2546 SWAP2 SWAP1 PUSH2 0x5496 JUMP JUMPDEST PUSH2 0x2550 SWAP2 SWAP1 PUSH2 0x5496 JUMP JUMPDEST PUSH2 0x255A SWAP2 SWAP1 PUSH2 0x5389 JUMP JUMPDEST PUSH2 0x2564 SWAP2 SWAP1 PUSH2 0x5389 JUMP JUMPDEST SWAP6 POP PUSH2 0x2574 DUP14 DUP8 DUP8 DUP8 DUP8 DUP8 PUSH2 0x3D9C JUMP JUMPDEST DUP11 DUP7 LT ISZERO PUSH2 0x259F JUMPI PUSH1 0x40 MLOAD PUSH4 0x272E3F59 PUSH1 0xE2 SHL DUP2 MSTORE PUSH1 0x4 DUP2 ADD DUP13 SWAP1 MSTORE PUSH1 0x24 DUP2 ADD DUP8 SWAP1 MSTORE PUSH1 0x44 ADD PUSH2 0x148D JUMP JUMPDEST PUSH2 0x25AC DUP2 PUSH2 0x13E SLOAD PUSH2 0x3DF0 JUMP JUMPDEST SWAP7 POP DUP10 DUP8 GT ISZERO PUSH2 0x25D9 JUMPI PUSH1 0x40 MLOAD PUSH4 0xB63F1A7 PUSH1 0xE0 SHL DUP2 MSTORE PUSH1 0x4 DUP2 ADD DUP12 SWAP1 MSTORE PUSH1 0x24 DUP2 ADD DUP9 SWAP1 MSTORE PUSH1 0x44 ADD PUSH2 0x148D JUMP JUMPDEST PUSH1 0x40 DUP1 MLOAD DUP14 DUP2 MSTORE PUSH1 0x20 DUP2 ADD DUP9 SWAP1 MSTORE SWAP1 DUP2 ADD DUP9 SWAP1 MSTORE DUP14 SWAP1 DUP14 SWAP1 PUSH1 0x1 PUSH1 0x1 PUSH1 0xA0 SHL SUB DUP1 DUP13 AND SWAP2 SWAP1 DUP14 AND SWAP1 DUP5 SWAP1 PUSH32 0xB0EE95633545EDABB63AFD3C3962A133536B36E2372F68C3C2722710EE0CD89 SWAP1 PUSH1 0x60 ADD PUSH1 0x40 MLOAD DUP1 SWAP2 SUB SWAP1 LOG4 POP POP PUSH2 0x263E DUP13 PUSH1 0x0 DUP12 PUSH2 0x3E0F JUMP JUMPDEST PUSH2 0x264B DUP14 DUP8 PUSH1 0x0 DUP12 PUSH2 0x3E86 JUMP JUMPDEST PUSH1 0x0 PUSH2 0x2657 DUP12 DUP10 PUSH2 0x3F11 JUMP JUMPDEST SWAP1 POP PUSH2 0x2664 DUP11 DUP3 DUP11 PUSH2 0x3F36 JUMP JUMPDEST POP POP POP POP POP POP SWAP7 POP SWAP7 SWAP5 POP POP POP POP POP JUMP JUMPDEST PUSH1 0x97 SLOAD PUSH1 0x40 MLOAD PUSH4 0xD994D6D5 PUSH1 0xE0 SHL DUP2 MSTORE CALLER PUSH1 0x4 DUP3 ADD MSTORE PUSH1 0x1 PUSH1 0x1 PUSH1 0xA0 SHL SUB SWAP1 SWAP2 AND SWAP1 PUSH4 0xD994D6D5 SWAP1 PUSH1 0x24 ADD PUSH1 0x20 PUSH1 0x40 MLOAD DUP1 DUP4 SUB DUP2 DUP7 GAS STATICCALL ISZERO DUP1 ISZERO PUSH2 0x26BD JUMPI RETURNDATASIZE PUSH1 0x0 DUP1 RETURNDATACOPY RETURNDATASIZE PUSH1 0x0 REVERT JUMPDEST POP POP POP POP PUSH1 0x40 MLOAD RETURNDATASIZE PUSH1 0x1F NOT PUSH1 0x1F DUP3 ADD AND DUP3 ADD DUP1 PUSH1 0x40 MSTORE POP DUP2 ADD SWAP1 PUSH2 0x26E1 SWAP2 SWAP1 PUSH2 0x53F9 JUMP JUMPDEST PUSH2 0x1443 JUMPI PUSH1 0x40 MLOAD PUSH4 0x1DD1B1B5 PUSH1 0xE2 SHL DUP2 MSTORE PUSH1 0x4 ADD PUSH1 0x40 MLOAD DUP1 SWAP2 SUB SWAP1 REVERT JUMPDEST PUSH1 0x0 PUSH2 0x2708 PUSH2 0x3C41 JUMP JUMPDEST PUSH2 0x2710 PUSH2 0x3181 JUMP JUMPDEST PUSH1 0x0 DUP1 PUSH2 0x271F PUSH2 0x146 SLOAD PUSH2 0x3CCE JUMP JUMPDEST SWAP2 POP SWAP2 POP PUSH1 0x0 DUP1 PUSH2 0x2731 DUP10 DUP6 DUP6 PUSH2 0x3F8F JUMP JUMPDEST SWAP1 SWAP3 POP SWAP1 POP PUSH2 0x2740 DUP2 DUP4 PUSH2 0x53AB JUMP JUMPDEST SWAP5 POP DUP8 DUP6 GT ISZERO PUSH2 0x276D JUMPI PUSH1 0x40 MLOAD PUSH4 0xB63F1A7 PUSH1 0xE0 SHL DUP2 MSTORE PUSH1 0x4 DUP2 ADD DUP10 SWAP1 MSTORE PUSH1 0x24 DUP2 ADD DUP7 SWAP1 MSTORE PUSH1 0x44 ADD PUSH2 0x148D JUMP JUMPDEST DUP5 PUSH1 0x0 SUB PUSH2 0x278E JUMPI PUSH1 0x40 MLOAD PUSH4 0xF3E39B5D PUSH1 0xE0 SHL DUP2 MSTORE PUSH1 0x4 ADD PUSH1 0x40 MLOAD DUP1 SWAP2 SUB SWAP1 REVERT JUMPDEST PUSH1 0x40 DUP1 MLOAD DUP11 DUP2 MSTORE PUSH1 0x20 DUP2 ADD DUP8 SWAP1 MSTORE SWAP1 DUP2 ADD DUP3 SWAP1 MSTORE PUSH1 0x1 PUSH1 0x1 PUSH1 0xA0 SHL SUB DUP1 DUP9 AND SWAP2 SWAP1 DUP10 AND SWAP1 PUSH32 0x62F0126E99B1936535DB27571CEA2B2D54DB14A471B9203B29B31B89C300E4F6 SWAP1 PUSH1 0x60 ADD PUSH1 0x40 MLOAD DUP1 SWAP2 SUB SWAP1 LOG3 PUSH2 0x27EA DUP10 DUP4 DUP9 PUSH2 0x3FD0 JUMP JUMPDEST PUSH1 0x0 PUSH2 0x27F6 DUP10 DUP8 PUSH2 0x3F11 JUMP JUMPDEST SWAP1 POP PUSH2 0x2803 DUP9 DUP3 DUP5 PUSH2 0x3F36 JUMP JUMPDEST POP POP POP POP POP SWAP5 SWAP4 POP POP POP POP JUMP JUMPDEST PUSH1 0x0 DUP1 PUSH2 0x281B PUSH2 0x3C41 JUMP JUMPDEST PUSH2 0x2823 PUSH2 0x3181 JUMP JUMPDEST PUSH1 0x0 PUSH2 0x282E DUP10 PUSH2 0x1A16 JUMP JUMPDEST SWAP1 POP PUSH2 0x283A DUP10 DUP3 PUSH2 0x3C6B JUMP JUMPDEST PUSH1 0x0 DUP1 PUSH2 0x2849 PUSH2 0x146 SLOAD PUSH2 0x3CCE JUMP JUMPDEST SWAP2 POP SWAP2 POP PUSH1 0x0 PUSH2 0x285A DUP13 DUP13 DUP7 PUSH2 0x37B0 JUMP JUMPDEST POP SWAP1 POP PUSH2 0x2893 PUSH2 0x132 SLOAD DUP13 PUSH2 0x286F SWAP2 SWAP1 PUSH2 0x5496 JUMP JUMPDEST DUP6 DUP6 PUSH2 0x287A DUP7 PUSH2 0x3AEA JUMP JUMPDEST PUSH2 0x2884 SWAP2 SWAP1 PUSH2 0x5483 JUMP JUMPDEST PUSH2 0x288E SWAP2 SWAP1 PUSH2 0x5496 JUMP JUMPDEST PUSH2 0x4014 JUMP JUMPDEST SWAP5 POP DUP10 DUP6 LT DUP1 PUSH2 0x28A1 JUMPI POP DUP5 ISZERO JUMPDEST ISZERO PUSH2 0x28C9 JUMPI PUSH1 0x40 MLOAD PUSH4 0xF577BEF5 PUSH1 0xE0 SHL DUP2 MSTORE PUSH1 0x4 DUP2 ADD DUP12 SWAP1 MSTORE PUSH1 0x24 DUP2 ADD DUP7 SWAP1 MSTORE PUSH1 0x44 ADD PUSH2 0x148D JUMP JUMPDEST PUSH2 0x28D6 DUP2 PUSH2 0x13D SLOAD PUSH2 0x3DF0 JUMP JUMPDEST SWAP6 POP DUP9 DUP7 GT ISZERO PUSH2 0x2903 JUMPI PUSH1 0x40 MLOAD PUSH4 0xB63F1A7 PUSH1 0xE0 SHL DUP2 MSTORE PUSH1 0x4 DUP2 ADD DUP11 SWAP1 MSTORE PUSH1 0x24 DUP2 ADD DUP8 SWAP1 MSTORE PUSH1 0x44 ADD PUSH2 0x148D JUMP JUMPDEST PUSH1 0x40 DUP1 MLOAD DUP13 DUP2 MSTORE PUSH1 0x20 DUP2 ADD DUP8 SWAP1 MSTORE SWAP1 DUP2 ADD DUP8 SWAP1 MSTORE DUP13 SWAP1 DUP13 SWAP1 PUSH1 0x1 PUSH1 0x1 PUSH1 0xA0 SHL SUB DUP1 DUP12 AND SWAP2 SWAP1 DUP13 AND SWAP1 DUP5 SWAP1 PUSH32 0xF77B7563E0C6C33E0B804A715D94C82BAEA057D2E6F8BFDC211FE04D3C03BAD9 SWAP1 PUSH1 0x60 ADD PUSH1 0x40 MLOAD DUP1 SWAP2 SUB SWAP1 LOG4 POP POP PUSH2 0x2969 DUP13 DUP13 PUSH1 0x0 DUP12 PUSH2 0x4029 JUMP JUMPDEST PUSH2 0x2975 DUP6 PUSH1 0x0 DUP10 PUSH2 0x3FD0 JUMP JUMPDEST PUSH1 0x0 PUSH2 0x2981 DUP11 DUP9 PUSH2 0x3F11 JUMP JUMPDEST SWAP1 POP PUSH2 0x298E DUP10 DUP3 DUP10 PUSH2 0x3F36 JUMP JUMPDEST POP POP POP POP POP SWAP7 POP SWAP7 SWAP5 POP POP POP POP POP JUMP JUMPDEST PUSH1 0x0 DUP1 PUSH2 0x29A9 PUSH2 0x3C41 JUMP JUMPDEST PUSH2 0x29B1 PUSH2 0x3181 JUMP JUMPDEST PUSH1 0x0 PUSH2 0x29BC DUP10 PUSH2 0x1A16 JUMP JUMPDEST SWAP1 POP PUSH2 0x29C8 DUP10 DUP3 PUSH2 0x3C6B JUMP JUMPDEST PUSH1 0x0 DUP1 PUSH2 0x29D7 PUSH2 0x147 SLOAD PUSH2 0x3CCE JUMP JUMPDEST SWAP2 POP SWAP2 POP PUSH8 0xDE0B6B3A7640000 PUSH2 0x132 SLOAD DUP5 DUP5 DUP14 PUSH2 0x29F5 SWAP2 SWAP1 PUSH2 0x5496 JUMP JUMPDEST PUSH2 0x29FF SWAP2 SWAP1 PUSH2 0x5496 JUMP JUMPDEST PUSH2 0x2A09 SWAP2 SWAP1 PUSH2 0x5389 JUMP JUMPDEST PUSH2 0x2A13 SWAP2 SWAP1 PUSH2 0x5389 JUMP JUMPDEST SWAP4 POP DUP9 DUP5 GT ISZERO PUSH2 0x2A40 JUMPI PUSH1 0x40 MLOAD PUSH4 0x7A031DA3 PUSH1 0xE1 SHL DUP2 MSTORE PUSH1 0x4 DUP2 ADD DUP11 SWAP1 MSTORE PUSH1 0x24 DUP2 ADD DUP6 SWAP1 MSTORE PUSH1 0x44 ADD PUSH2 0x148D JUMP JUMPDEST PUSH1 0x0 DUP1 PUSH2 0x2A59 DUP14 DUP14 DUP9 DUP9 PUSH2 0x2A54 DUP10 DUP10 PUSH2 0x3145 JUMP JUMPDEST PUSH2 0x408A JUMP JUMPDEST SWAP1 SWAP3 POP SWAP1 POP PUSH2 0x2A68 DUP2 DUP4 PUSH2 0x5483 JUMP JUMPDEST SWAP7 POP DUP10 DUP8 LT ISZERO PUSH2 0x2A95 JUMPI PUSH1 0x40 MLOAD PUSH4 0x54CDE313 PUSH1 0xE0 SHL DUP2 MSTORE PUSH1 0x4 DUP2 ADD DUP12 SWAP1 MSTORE PUSH1 0x24 DUP2 ADD DUP9 SWAP1 MSTORE PUSH1 0x44 ADD PUSH2 0x148D JUMP JUMPDEST PUSH1 0x40 DUP1 MLOAD DUP14 DUP2 MSTORE PUSH1 0x20 DUP2 ADD DUP9 SWAP1 MSTORE SWAP1 DUP2 ADD DUP9 SWAP1 MSTORE PUSH1 0x60 DUP2 ADD DUP3 SWAP1 MSTORE DUP14 SWAP1 DUP14 SWAP1 DUP10 SWAP1 PUSH1 0x1 PUSH1 0x1 PUSH1 0xA0 SHL SUB DUP13 DUP2 AND SWAP2 SWAP1 DUP15 AND SWAP1 DUP6 SWAP1 PUSH32 0x879E4419A6544DE6EA456F6344B2FCF0C3B9FC0E6738C82FA4026A8789747C53 SWAP1 PUSH1 0x80 ADD PUSH1 0x40 MLOAD DUP1 SWAP2 SUB SWAP1 LOG4 POP POP POP PUSH2 0x2B03 DUP13 DUP4 DUP12 PUSH2 0x3E0F JUMP JUMPDEST PUSH2 0x2B10 DUP14 DUP8 PUSH1 0x0 DUP13 PUSH2 0x4029 JUMP JUMPDEST PUSH2 0x298E DUP9 DUP9 DUP4 PUSH2 0x3F36 JUMP JUMPDEST PUSH1 0x0 PUSH2 0x2B25 PUSH2 0x3C41 JUMP JUMPDEST PUSH2 0x2B2D PUSH2 0x3181 JUMP JUMPDEST PUSH1 0x0 PUSH2 0x2B38 DUP8 PUSH2 0x1A16 JUMP JUMPDEST SWAP1 POP PUSH2 0x2B44 DUP8 DUP3 PUSH2 0x3C6B JUMP JUMPDEST PUSH2 0x2B50 PUSH2 0x146 SLOAD PUSH2 0x3CCE JUMP JUMPDEST POP POP PUSH1 0x0 DUP1 PUSH2 0x2B60 DUP10 DUP10 DUP6 PUSH2 0x37B0 JUMP JUMPDEST SWAP2 POP SWAP2 POP DUP2 PUSH1 0x0 SUB PUSH2 0x2B85 JUMPI PUSH1 0x40 MLOAD PUSH4 0xF3E39B5D PUSH1 0xE0 SHL DUP2 MSTORE PUSH1 0x4 ADD PUSH1 0x40 MLOAD DUP1 SWAP2 SUB SWAP1 REVERT JUMPDEST PUSH2 0x2B8F DUP2 DUP4 PUSH2 0x5483 JUMP JUMPDEST SWAP4 POP DUP7 DUP5 LT ISZERO PUSH2 0x2BBC JUMPI PUSH1 0x40 MLOAD PUSH4 0x54CDE313 PUSH1 0xE0 SHL DUP2 MSTORE PUSH1 0x4 DUP2 ADD DUP9 SWAP1 MSTORE PUSH1 0x24 DUP2 ADD DUP6 SWAP1 MSTORE PUSH1 0x44 ADD PUSH2 0x148D JUMP JUMPDEST PUSH1 0x40 DUP1 MLOAD DUP10 DUP2 MSTORE PUSH1 0x20 DUP2 ADD DUP7 SWAP1 MSTORE SWAP1 DUP2 ADD DUP3 SWAP1 MSTORE PUSH1 0x1 PUSH1 0x1 PUSH1 0xA0 SHL SUB DUP1 DUP8 AND SWAP2 SWAP1 DUP9 AND SWAP1 DUP12 SWAP1 PUSH32 0x4716C9926CE32100E8A5B6AD71AF5500AC55514D7B0C8F80F209856C9DFAEB92 SWAP1 PUSH1 0x60 ADD PUSH1 0x40 MLOAD DUP1 SWAP2 SUB SWAP1 LOG4 PUSH2 0x2C1B DUP10 DUP10 DUP5 DUP10 PUSH2 0x4029 JUMP JUMPDEST PUSH2 0x2C26 DUP6 DUP6 DUP4 PUSH2 0x3F36 JUMP JUMPDEST POP POP POP SWAP6 SWAP5 POP POP POP POP POP JUMP JUMPDEST PUSH1 0x0 PUSH2 0x2C3C PUSH2 0x3C41 JUMP JUMPDEST PUSH2 0x2C44 PUSH2 0x3181 JUMP JUMPDEST PUSH1 0x0 PUSH2 0x2C4F DUP8 PUSH2 0x1A16 JUMP JUMPDEST SWAP1 POP PUSH2 0x2C5B DUP8 DUP3 PUSH2 0x3C6B JUMP JUMPDEST PUSH1 0x0 PUSH2 0x2C65 PUSH2 0x18BF JUMP JUMPDEST SWAP1 POP PUSH1 0x0 DUP1 PUSH2 0x2C73 DUP4 PUSH2 0x3CCE JUMP JUMPDEST SWAP2 POP SWAP2 POP PUSH2 0x2C85 DUP11 DUP11 DUP7 DUP7 DUP7 DUP7 PUSH2 0x3D9C JUMP JUMPDEST PUSH1 0x0 DUP1 PUSH2 0x2C93 DUP13 DUP13 DUP9 PUSH2 0x40CA JUMP JUMPDEST SWAP1 SWAP3 POP SWAP1 POP PUSH2 0x2CA2 DUP2 DUP4 PUSH2 0x53AB JUMP JUMPDEST SWAP7 POP DUP10 DUP8 GT ISZERO PUSH2 0x2CCF JUMPI PUSH1 0x40 MLOAD PUSH4 0xB63F1A7 PUSH1 0xE0 SHL DUP2 MSTORE PUSH1 0x4 DUP2 ADD DUP12 SWAP1 MSTORE PUSH1 0x24 DUP2 ADD DUP9 SWAP1 MSTORE PUSH1 0x44 ADD PUSH2 0x148D JUMP JUMPDEST DUP7 PUSH1 0x0 SUB PUSH2 0x2CF0 JUMPI PUSH1 0x40 MLOAD PUSH4 0xF3E39B5D PUSH1 0xE0 SHL DUP2 MSTORE PUSH1 0x4 ADD PUSH1 0x40 MLOAD DUP1 SWAP2 SUB SWAP1 REVERT JUMPDEST PUSH1 0x40 DUP1 MLOAD DUP13 DUP2 MSTORE PUSH1 0x20 DUP2 ADD DUP10 SWAP1 MSTORE SWAP1 DUP2 ADD DUP3 SWAP1 MSTORE PUSH1 0x1 PUSH1 0x1 PUSH1 0xA0 SHL SUB DUP1 DUP11 AND SWAP2 SWAP1 DUP12 AND SWAP1 DUP15 SWAP1 PUSH32 0x5F8DFB23A03C1F9D37A1860FC8038FFDC6DEC3E24DB38CDB09CC0176B35453F SWAP1 PUSH1 0x60 ADD PUSH1 0x40 MLOAD DUP1 SWAP2 SUB SWAP1 LOG4 PUSH2 0x2D4F DUP13 DUP13 DUP5 DUP12 PUSH2 0x3E86 JUMP JUMPDEST PUSH1 0x0 PUSH2 0x2D5B DUP12 DUP10 PUSH2 0x3F11 JUMP JUMPDEST SWAP1 POP PUSH2 0x2D68 DUP11 DUP3 DUP5 PUSH2 0x3F36 JUMP JUMPDEST POP POP POP POP POP POP POP SWAP6 SWAP5 POP POP POP POP POP JUMP JUMPDEST PUSH1 0x0 DUP1 PUSH2 0x2D83 PUSH2 0x3C41 JUMP JUMPDEST PUSH2 0x2D8B PUSH2 0x3181 JUMP JUMPDEST PUSH1 0x0 DUP1 PUSH1 0x0 PUSH2 0x2D99 DUP11 PUSH2 0x1A16 JUMP JUMPDEST SWAP1 POP PUSH2 0x2DA5 DUP11 DUP3 PUSH2 0x3C6B JUMP JUMPDEST PUSH2 0x2DB1 PUSH2 0x147 SLOAD PUSH2 0x3CCE JUMP JUMPDEST POP POP PUSH2 0x2DBD DUP10 DUP3 PUSH2 0x4112 JUMP JUMPDEST SWAP2 SWAP6 POP SWAP4 POP SWAP2 POP PUSH2 0x2DCE DUP3 DUP5 PUSH2 0x53AB JUMP JUMPDEST SWAP5 POP DUP8 DUP6 GT ISZERO PUSH2 0x2DFB JUMPI PUSH1 0x40 MLOAD PUSH4 0xB63F1A7 PUSH1 0xE0 SHL DUP2 MSTORE PUSH1 0x4 DUP2 ADD DUP10 SWAP1 MSTORE PUSH1 0x24 DUP2 ADD DUP7 SWAP1 MSTORE PUSH1 0x44 ADD PUSH2 0x148D JUMP JUMPDEST DUP5 PUSH1 0x0 SUB PUSH2 0x2E1C JUMPI PUSH1 0x40 MLOAD PUSH4 0xF3E39B5D PUSH1 0xE0 SHL DUP2 MSTORE PUSH1 0x4 ADD PUSH1 0x40 MLOAD DUP1 SWAP2 SUB SWAP1 REVERT JUMPDEST PUSH1 0x40 DUP1 MLOAD DUP6 DUP2 MSTORE PUSH1 0x20 DUP2 ADD DUP12 SWAP1 MSTORE SWAP1 DUP2 ADD DUP7 SWAP1 MSTORE PUSH1 0x60 DUP2 ADD DUP4 SWAP1 MSTORE PUSH1 0x1 PUSH1 0x1 PUSH1 0xA0 SHL SUB DUP1 DUP9 AND SWAP2 SWAP1 DUP10 AND SWAP1 DUP13 SWAP1 PUSH32 0xCD3821E3A6AFEC66FDFA7A942B879811BB9919B2F270DE090B6E00178CD7EAEE SWAP1 PUSH1 0x80 ADD PUSH1 0x40 MLOAD DUP1 SWAP2 SUB SWAP1 LOG4 PUSH2 0x2E81 DUP5 DUP5 DUP9 PUSH2 0x3FD0 JUMP JUMPDEST PUSH2 0x2E8E DUP11 DUP11 PUSH1 0x0 DUP10 PUSH2 0x3E86 JUMP JUMPDEST PUSH1 0x0 PUSH2 0x2E9A DUP10 DUP8 PUSH2 0x3F11 JUMP JUMPDEST SWAP1 POP PUSH2 0x2EA7 DUP9 DUP3 DUP6 PUSH2 0x3F36 JUMP JUMPDEST POP POP POP POP SWAP6 POP SWAP6 SWAP4 POP POP POP POP JUMP JUMPDEST PUSH1 0x0 DUP1 PUSH2 0x2EC0 PUSH2 0x3C41 JUMP JUMPDEST PUSH2 0x2EC8 PUSH2 0x3181 JUMP JUMPDEST DUP8 DUP10 SUB PUSH2 0x2EE8 JUMPI PUSH1 0x40 MLOAD PUSH4 0x2A9FFAB7 PUSH1 0xE2 SHL DUP2 MSTORE PUSH1 0x4 ADD PUSH1 0x40 MLOAD DUP1 SWAP2 SUB SWAP1 REVERT JUMPDEST PUSH1 0x0 PUSH2 0x2EF3 DUP11 PUSH2 0x1A16 JUMP JUMPDEST SWAP1 POP PUSH1 0x0 PUSH2 0x2F00 DUP11 PUSH2 0x1A16 JUMP JUMPDEST SWAP1 POP PUSH2 0x2F0C DUP12 DUP4 PUSH2 0x3C6B JUMP JUMPDEST PUSH2 0x2F16 DUP11 DUP3 PUSH2 0x3C6B JUMP JUMPDEST PUSH1 0x0 PUSH2 0x2F23 DUP13 DUP12 DUP6 PUSH2 0x37B0 JUMP JUMPDEST POP SWAP1 POP DUP3 PUSH2 0x2F31 DUP4 DUP13 PUSH2 0x5496 JUMP JUMPDEST PUSH2 0x2F3B SWAP2 SWAP1 PUSH2 0x5389 JUMP JUMPDEST SWAP4 POP DUP9 DUP5 LT DUP1 PUSH2 0x2F49 JUMPI POP DUP4 ISZERO JUMPDEST ISZERO PUSH2 0x2F71 JUMPI PUSH1 0x40 MLOAD PUSH4 0x272E3F59 PUSH1 0xE2 SHL DUP2 MSTORE PUSH1 0x4 DUP2 ADD DUP11 SWAP1 MSTORE PUSH1 0x24 DUP2 ADD DUP6 SWAP1 MSTORE PUSH1 0x44 ADD PUSH2 0x148D JUMP JUMPDEST PUSH2 0x2F7B DUP13 DUP5 PUSH2 0x3B86 JUMP JUMPDEST PUSH2 0x2F85 DUP13 DUP5 PUSH2 0x3B86 JUMP JUMPDEST GT ISZERO PUSH2 0x2FB9 JUMPI PUSH1 0x0 PUSH2 0x2F95 PUSH2 0x18BF JUMP JUMPDEST SWAP1 POP PUSH1 0x0 DUP1 PUSH2 0x2FA3 DUP4 PUSH2 0x3CCE JUMP JUMPDEST SWAP2 POP SWAP2 POP PUSH2 0x2FB5 DUP15 DUP9 DUP8 DUP7 DUP7 DUP7 PUSH2 0x3D9C JUMP JUMPDEST POP POP POP JUMPDEST PUSH2 0x2FC6 DUP2 PUSH2 0x13C SLOAD PUSH2 0x3DF0 JUMP JUMPDEST SWAP5 POP DUP8 DUP6 GT ISZERO PUSH2 0x2FF3 JUMPI PUSH1 0x40 MLOAD PUSH4 0xB63F1A7 PUSH1 0xE0 SHL DUP2 MSTORE PUSH1 0x4 DUP2 ADD DUP10 SWAP1 MSTORE PUSH1 0x24 DUP2 ADD DUP7 SWAP1 MSTORE PUSH1 0x44 ADD PUSH2 0x148D JUMP JUMPDEST PUSH1 0x40 DUP1 MLOAD DUP13 DUP2 MSTORE PUSH1 0x20 DUP2 ADD DUP13 SWAP1 MSTORE SWAP1 DUP2 ADD DUP6 SWAP1 MSTORE PUSH1 0x60 DUP2 ADD DUP7 SWAP1 MSTORE DUP13 SWAP1 DUP13 SWAP1 DUP13 SWAP1 PUSH1 0x1 PUSH1 0x1 PUSH1 0xA0 SHL SUB DUP1 DUP12 AND SWAP2 SWAP1 DUP13 AND SWAP1 DUP6 SWAP1 PUSH32 0x77D2223ACA09D9EC6E49D1B8CDCB0B40DEC540A5F65DAF1ECAB069C822BFF460 SWAP1 PUSH1 0x80 ADD PUSH1 0x40 MLOAD DUP1 SWAP2 SUB SWAP1 LOG4 POP POP POP PUSH2 0x3063 DUP12 DUP6 PUSH1 0x0 DUP10 PUSH2 0x3E86 JUMP JUMPDEST PUSH2 0x3070 DUP13 DUP12 PUSH1 0x0 DUP11 PUSH2 0x4029 JUMP JUMPDEST PUSH1 0x0 PUSH2 0x307C DUP10 DUP8 PUSH2 0x3F11 JUMP JUMPDEST SWAP1 POP PUSH2 0x3089 DUP9 DUP3 DUP9 PUSH2 0x3F36 JUMP JUMPDEST POP POP POP POP SWAP8 POP SWAP8 SWAP6 POP POP POP POP POP POP JUMP JUMPDEST PUSH2 0x135 SLOAD PUSH1 0x0 SWAP1 DUP2 SWAP1 DUP2 JUMPDEST DUP2 DUP2 LT ISZERO PUSH2 0x3130 JUMPI PUSH1 0x0 PUSH2 0x30B7 DUP3 PUSH2 0x1A16 JUMP JUMPDEST SWAP1 POP PUSH1 0x0 DUP1 PUSH2 0x30C6 DUP5 DUP5 PUSH2 0x41A1 JUMP JUMPDEST SWAP2 POP SWAP2 POP PUSH2 0x3104 DUP3 PUSH2 0x135 DUP7 DUP2 SLOAD DUP2 LT PUSH2 0x30E2 JUMPI PUSH2 0x30E2 PUSH2 0x53BE JUMP JUMPDEST SWAP1 PUSH1 0x0 MSTORE PUSH1 0x20 PUSH1 0x0 KECCAK256 SWAP1 PUSH1 0x2 MUL ADD PUSH1 0x0 ADD SLOAD PUSH2 0x30FE SWAP2 SWAP1 PUSH2 0x53AB JUMP JUMPDEST DUP5 PUSH2 0x4014 JUMP JUMPDEST PUSH2 0x310E SWAP1 DUP9 PUSH2 0x53AB JUMP JUMPDEST SWAP7 POP PUSH2 0x311A DUP2 DUP8 PUSH2 0x53AB JUMP JUMPDEST SWAP6 POP POP POP POP PUSH2 0x3129 DUP2 PUSH1 0x1 ADD SWAP1 JUMP JUMPDEST SWAP1 POP PUSH2 0x30A4 JUMP JUMPDEST POP PUSH2 0x313E DUP3 PUSH2 0x137 SLOAD PUSH2 0x3DF0 JUMP JUMPDEST SWAP2 POP POP SWAP1 SWAP2 JUMP JUMPDEST PUSH1 0x0 PUSH2 0x132 SLOAD PUSH1 0x0 SUB PUSH2 0x3161 JUMPI POP PUSH8 0xDE0B6B3A7640000 PUSH2 0x11E3 JUMP JUMPDEST PUSH2 0x11E0 DUP4 PUSH2 0x316E DUP5 PUSH2 0x3AEA JUMP JUMPDEST PUSH2 0x3178 SWAP2 SWAP1 PUSH2 0x5483 JUMP JUMPDEST PUSH2 0x132 SLOAD PUSH2 0x4014 JUMP JUMPDEST PUSH1 0xCA SLOAD PUSH2 0x100 SWAP1 DIV PUSH1 0xFF AND ISZERO PUSH2 0x1443 JUMPI PUSH1 0x40 MLOAD PUSH4 0x783BB6C9 PUSH1 0xE1 SHL DUP2 MSTORE PUSH1 0x4 ADD PUSH1 0x40 MLOAD DUP1 SWAP2 SUB SWAP1 REVERT JUMPDEST PUSH2 0x12F SLOAD PUSH1 0x0 DUP2 SWAP1 SUB PUSH2 0x31BA JUMPI POP JUMP JUMPDEST PUSH2 0x135 SLOAD PUSH1 0x0 DUP1 DUP3 PUSH8 0xFFFFFFFFFFFFFFFF DUP2 GT ISZERO PUSH2 0x31DA JUMPI PUSH2 0x31DA PUSH2 0x516B JUMP JUMPDEST PUSH1 0x40 MLOAD SWAP1 DUP1 DUP3 MSTORE DUP1 PUSH1 0x20 MUL PUSH1 0x20 ADD DUP3 ADD PUSH1 0x40 MSTORE DUP1 ISZERO PUSH2 0x3203 JUMPI DUP2 PUSH1 0x20 ADD PUSH1 0x20 DUP3 MUL DUP1 CALLDATASIZE DUP4 CALLDATACOPY ADD SWAP1 POP JUMPDEST POP SWAP1 POP PUSH1 0x0 JUMPDEST DUP4 DUP2 LT ISZERO PUSH2 0x3294 JUMPI PUSH2 0x321A DUP2 PUSH2 0x1A16 JUMP JUMPDEST DUP3 DUP3 DUP2 MLOAD DUP2 LT PUSH2 0x322C JUMPI PUSH2 0x322C PUSH2 0x53BE JUMP JUMPDEST PUSH1 0x20 MUL PUSH1 0x20 ADD ADD DUP2 DUP2 MSTORE POP POP PUSH2 0x3280 PUSH2 0x135 DUP3 DUP2 SLOAD DUP2 LT PUSH2 0x324F JUMPI PUSH2 0x324F PUSH2 0x53BE JUMP JUMPDEST SWAP1 PUSH1 0x0 MSTORE PUSH1 0x20 PUSH1 0x0 KECCAK256 SWAP1 PUSH1 0x2 MUL ADD PUSH1 0x0 ADD SLOAD DUP4 DUP4 DUP2 MLOAD DUP2 LT PUSH2 0x3273 JUMPI PUSH2 0x3273 PUSH2 0x53BE JUMP JUMPDEST PUSH1 0x20 MUL PUSH1 0x20 ADD ADD MLOAD PUSH2 0x4014 JUMP JUMPDEST PUSH2 0x328A SWAP1 DUP5 PUSH2 0x53AB JUMP JUMPDEST SWAP3 POP PUSH1 0x1 ADD PUSH2 0x3209 JUMP JUMPDEST POP PUSH1 0x0 JUMPDEST DUP4 DUP2 LT ISZERO PUSH2 0x32EE JUMPI PUSH2 0x136 DUP6 DUP5 DUP5 DUP5 DUP2 MLOAD DUP2 LT PUSH2 0x32B7 JUMPI PUSH2 0x32B7 PUSH2 0x53BE JUMP JUMPDEST PUSH1 0x20 MUL PUSH1 0x20 ADD ADD MLOAD PUSH2 0x32C9 SWAP2 SWAP1 PUSH2 0x5496 JUMP JUMPDEST PUSH2 0x32D3 SWAP2 SWAP1 PUSH2 0x5389 JUMP JUMPDEST DUP2 SLOAD PUSH1 0x1 DUP1 DUP3 ADD DUP5 SSTORE PUSH1 0x0 SWAP4 DUP5 MSTORE PUSH1 0x20 SWAP1 SWAP4 KECCAK256 ADD SSTORE ADD PUSH2 0x3298 JUMP JUMPDEST POP POP POP POP POP JUMP JUMPDEST PUSH2 0x152A PUSH2 0x2675 JUMP JUMPDEST PUSH32 0x4910FDFA16FED3260ED0E7147F7CC6DA11A60208B5B9406D12A635614FFD9143 SLOAD PUSH1 0xFF AND ISZERO PUSH2 0x3335 JUMPI PUSH2 0x3330 DUP4 PUSH2 0x4208 JUMP JUMPDEST POP POP POP JUMP JUMPDEST DUP3 PUSH1 0x1 PUSH1 0x1 PUSH1 0xA0 SHL SUB AND PUSH4 0x52D1902D PUSH1 0x40 MLOAD DUP2 PUSH4 0xFFFFFFFF AND PUSH1 0xE0 SHL DUP2 MSTORE PUSH1 0x4 ADD PUSH1 0x20 PUSH1 0x40 MLOAD DUP1 DUP4 SUB DUP2 DUP7 GAS STATICCALL SWAP3 POP POP POP DUP1 ISZERO PUSH2 0x338F JUMPI POP PUSH1 0x40 DUP1 MLOAD PUSH1 0x1F RETURNDATASIZE SWAP1 DUP2 ADD PUSH1 0x1F NOT AND DUP3 ADD SWAP1 SWAP3 MSTORE PUSH2 0x338C SWAP2 DUP2 ADD SWAP1 PUSH2 0x54AD JUMP JUMPDEST PUSH1 0x1 JUMPDEST PUSH2 0x33F2 JUMPI PUSH1 0x40 MLOAD PUSH3 0x461BCD PUSH1 0xE5 SHL DUP2 MSTORE PUSH1 0x20 PUSH1 0x4 DUP3 ADD MSTORE PUSH1 0x2E PUSH1 0x24 DUP3 ADD MSTORE PUSH32 0x45524331393637557067726164653A206E657720696D706C656D656E74617469 PUSH1 0x44 DUP3 ADD MSTORE PUSH14 0x6F6E206973206E6F742055555053 PUSH1 0x90 SHL PUSH1 0x64 DUP3 ADD MSTORE PUSH1 0x84 ADD PUSH2 0x148D JUMP JUMPDEST PUSH1 0x0 DUP1 MLOAD PUSH1 0x20 PUSH2 0x5622 DUP4 CODECOPY DUP2 MLOAD SWAP2 MSTORE DUP2 EQ PUSH2 0x3461 JUMPI PUSH1 0x40 MLOAD PUSH3 0x461BCD PUSH1 0xE5 SHL DUP2 MSTORE PUSH1 0x20 PUSH1 0x4 DUP3 ADD MSTORE PUSH1 0x29 PUSH1 0x24 DUP3 ADD MSTORE PUSH32 0x45524331393637557067726164653A20756E737570706F727465642070726F78 PUSH1 0x44 DUP3 ADD MSTORE PUSH9 0x1A58589B1955555251 PUSH1 0xBA SHL PUSH1 0x64 DUP3 ADD MSTORE PUSH1 0x84 ADD PUSH2 0x148D JUMP JUMPDEST POP PUSH2 0x3330 DUP4 DUP4 DUP4 PUSH2 0x42A4 JUMP JUMPDEST PUSH2 0x135 SLOAD PUSH1 0x0 SWAP1 DUP2 SWAP1 DUP2 SWAP1 DUP2 JUMPDEST DUP2 DUP2 LT ISZERO PUSH2 0x352A JUMPI PUSH1 0x0 PUSH2 0x348D DUP3 PUSH2 0x1A16 JUMP JUMPDEST SWAP1 POP PUSH1 0x0 PUSH2 0x349B DUP4 DUP4 PUSH2 0x41A1 JUMP JUMPDEST POP SWAP1 POP PUSH1 0x0 PUSH2 0x34E7 PUSH8 0xDE0B6B3A7640000 DUP4 PUSH2 0x135 DUP8 DUP2 SLOAD DUP2 LT PUSH2 0x34C1 JUMPI PUSH2 0x34C1 PUSH2 0x53BE JUMP JUMPDEST SWAP1 PUSH1 0x0 MSTORE PUSH1 0x20 PUSH1 0x0 KECCAK256 SWAP1 PUSH1 0x2 MUL ADD PUSH1 0x0 ADD SLOAD PUSH2 0x34DD SWAP2 SWAP1 PUSH2 0x53AB JUMP JUMPDEST PUSH2 0x30FE SWAP2 SWAP1 PUSH2 0x5496 JUMP JUMPDEST SWAP1 POP DUP1 PUSH2 0x34F4 DUP6 DUP6 PUSH2 0x3B86 JUMP JUMPDEST PUSH2 0x34FE SWAP2 SWAP1 PUSH2 0x5496 JUMP JUMPDEST PUSH2 0x3508 SWAP1 DUP9 PUSH2 0x53AB JUMP JUMPDEST SWAP7 POP PUSH2 0x3514 DUP2 DUP8 PUSH2 0x53AB JUMP JUMPDEST SWAP6 POP POP POP POP PUSH2 0x3523 DUP2 PUSH1 0x1 ADD SWAP1 JUMP JUMPDEST SWAP1 POP PUSH2 0x347A JUMP JUMPDEST POP DUP2 PUSH1 0x0 SUB PUSH2 0x3542 JUMPI PUSH2 0x146 SLOAD PUSH1 0x2 MUL SWAP4 POP POP POP POP SWAP1 JUMP JUMPDEST PUSH2 0x354C DUP3 DUP5 PUSH2 0x5389 JUMP JUMPDEST SWAP4 POP POP POP POP SWAP1 JUMP JUMPDEST PUSH1 0x0 DUP1 PUSH2 0x3562 DUP6 DUP6 DUP6 PUSH2 0x42C9 JUMP JUMPDEST SWAP1 POP PUSH2 0x356E DUP5 DUP5 PUSH2 0x3145 JUMP JUMPDEST PUSH2 0x248D SWAP1 DUP3 PUSH2 0x5389 JUMP JUMPDEST PUSH2 0x1443 PUSH2 0x4313 JUMP JUMPDEST PUSH1 0x0 PUSH2 0x358A PUSH2 0x3181 JUMP JUMPDEST PUSH2 0x148 SLOAD PUSH2 0x100 SWAP1 DIV PUSH1 0xFF AND PUSH2 0x35B3 JUMPI PUSH1 0x40 MLOAD PUSH4 0x31B0D35 PUSH1 0xE1 SHL DUP2 MSTORE PUSH1 0x4 ADD PUSH1 0x40 MLOAD DUP1 SWAP2 SUB SWAP1 REVERT JUMPDEST PUSH1 0x0 PUSH2 0x133 DUP6 DUP2 SLOAD DUP2 LT PUSH2 0x35C9 JUMPI PUSH2 0x35C9 PUSH2 0x53BE JUMP JUMPDEST PUSH1 0x0 SWAP2 DUP3 MSTORE PUSH1 0x20 SWAP1 SWAP2 KECCAK256 ADD SLOAD PUSH1 0x40 MLOAD PUSH4 0x70A08231 PUSH1 0xE0 SHL DUP2 MSTORE PUSH1 0x1 PUSH1 0x1 PUSH1 0xA0 SHL SUB DUP7 DUP2 AND PUSH1 0x4 DUP4 ADD MSTORE SWAP1 SWAP2 AND SWAP1 PUSH4 0x70A08231 SWAP1 PUSH1 0x24 ADD PUSH1 0x20 PUSH1 0x40 MLOAD DUP1 DUP4 SUB DUP2 DUP7 GAS STATICCALL ISZERO DUP1 ISZERO PUSH2 0x361C JUMPI RETURNDATASIZE PUSH1 0x0 DUP1 RETURNDATACOPY RETURNDATASIZE PUSH1 0x0 REVERT JUMPDEST POP POP POP POP PUSH1 0x40 MLOAD RETURNDATASIZE PUSH1 0x1F NOT PUSH1 0x1F DUP3 ADD AND DUP3 ADD DUP1 PUSH1 0x40 MSTORE POP DUP2 ADD SWAP1 PUSH2 0x3640 SWAP2 SWAP1 PUSH2 0x54AD JUMP JUMPDEST SWAP1 POP DUP1 PUSH1 0x0 SUB PUSH2 0x366D JUMPI PUSH1 0x40 MLOAD PUSH4 0x3FE8C5EB PUSH1 0xE0 SHL DUP2 MSTORE PUSH1 0x4 DUP2 ADD DUP3 SWAP1 MSTORE PUSH1 0x24 DUP2 ADD DUP3 SWAP1 MSTORE PUSH1 0x44 ADD PUSH2 0x148D JUMP JUMPDEST PUSH1 0x0 PUSH2 0x136 DUP7 DUP2 SLOAD DUP2 LT PUSH2 0x3683 JUMPI PUSH2 0x3683 PUSH2 0x53BE JUMP JUMPDEST SWAP1 PUSH1 0x0 MSTORE PUSH1 0x20 PUSH1 0x0 KECCAK256 ADD SLOAD SWAP1 POP PUSH2 0x369A DUP3 DUP3 PUSH2 0x4014 JUMP JUMPDEST SWAP3 POP PUSH2 0x133 DUP7 DUP2 SLOAD DUP2 LT PUSH2 0x36B0 JUMPI PUSH2 0x36B0 PUSH2 0x53BE JUMP JUMPDEST PUSH1 0x0 SWAP2 DUP3 MSTORE PUSH1 0x20 SWAP1 SWAP2 KECCAK256 ADD SLOAD PUSH1 0x40 MLOAD PUSH4 0x2770A7EB PUSH1 0xE2 SHL DUP2 MSTORE PUSH1 0x1 PUSH1 0x1 PUSH1 0xA0 SHL SUB DUP8 DUP2 AND PUSH1 0x4 DUP4 ADD MSTORE PUSH1 0x24 DUP3 ADD DUP6 SWAP1 MSTORE SWAP1 SWAP2 AND SWAP1 PUSH4 0x9DC29FAC SWAP1 PUSH1 0x44 ADD PUSH1 0x0 PUSH1 0x40 MLOAD DUP1 DUP4 SUB DUP2 PUSH1 0x0 DUP8 DUP1 EXTCODESIZE ISZERO DUP1 ISZERO PUSH2 0x3707 JUMPI PUSH1 0x0 DUP1 REVERT JUMPDEST POP GAS CALL ISZERO DUP1 ISZERO PUSH2 0x371B JUMPI RETURNDATASIZE PUSH1 0x0 DUP1 RETURNDATACOPY RETURNDATASIZE PUSH1 0x0 REVERT JUMPDEST POP POP POP POP DUP3 PUSH2 0x3729 ADDRESS PUSH2 0x3AFB JUMP JUMPDEST LT ISZERO PUSH2 0x373B JUMPI PUSH2 0x3738 ADDRESS PUSH2 0x3AFB JUMP JUMPDEST SWAP3 POP JUMPDEST DUP4 PUSH1 0x1 PUSH1 0x1 PUSH1 0xA0 SHL SUB AND DUP6 PUSH1 0x1 PUSH1 0x1 PUSH1 0xA0 SHL SUB AND DUP8 PUSH32 0x4716C9926CE32100E8A5B6AD71AF5500AC55514D7B0C8F80F209856C9DFAEB92 DUP6 DUP8 PUSH1 0x0 PUSH1 0x40 MLOAD PUSH2 0x3795 SWAP4 SWAP3 SWAP2 SWAP1 SWAP3 DUP4 MSTORE PUSH1 0x20 DUP4 ADD SWAP2 SWAP1 SWAP2 MSTORE PUSH1 0x40 DUP3 ADD MSTORE PUSH1 0x60 ADD SWAP1 JUMP JUMPDEST PUSH1 0x40 MLOAD DUP1 SWAP2 SUB SWAP1 LOG4 PUSH2 0x37A7 DUP5 DUP5 PUSH2 0x44D4 JUMP JUMPDEST POP POP SWAP4 SWAP3 POP POP POP JUMP JUMPDEST PUSH1 0x0 DUP1 DUP4 PUSH1 0x0 SUB PUSH2 0x37D4 JUMPI PUSH1 0x40 MLOAD PUSH4 0x2A9FFAB7 PUSH1 0xE2 SHL DUP2 MSTORE PUSH1 0x4 ADD PUSH1 0x40 MLOAD DUP1 SWAP2 SUB SWAP1 REVERT JUMPDEST PUSH2 0x37DE DUP5 DUP5 PUSH2 0x4014 JUMP JUMPDEST SWAP2 POP PUSH2 0x3808 DUP3 PUSH2 0x142 DUP8 DUP2 SLOAD DUP2 LT PUSH2 0x37F8 JUMPI PUSH2 0x37F8 PUSH2 0x53BE JUMP JUMPDEST SWAP1 PUSH1 0x0 MSTORE PUSH1 0x20 PUSH1 0x0 KECCAK256 ADD SLOAD PUSH2 0x3DF0 JUMP JUMPDEST SWAP1 POP SWAP4 POP SWAP4 SWAP2 POP POP JUMP JUMPDEST PUSH1 0x0 DUP3 PUSH1 0x0 SUB PUSH2 0x3825 JUMPI POP PUSH1 0x0 NOT PUSH2 0x11E3 JUMP JUMPDEST PUSH2 0x11E0 PUSH2 0x30FE DUP4 PUSH2 0x3AEA JUMP JUMPDEST PUSH1 0x0 PUSH2 0x383B PUSH2 0x3C41 JUMP JUMPDEST PUSH2 0x3843 PUSH2 0x3181 JUMP JUMPDEST PUSH1 0x0 PUSH2 0x384D PUSH2 0x18BF JUMP JUMPDEST SWAP1 POP PUSH1 0x0 DUP1 PUSH2 0x385B DUP4 PUSH2 0x3CCE JUMP JUMPDEST SWAP2 POP SWAP2 POP PUSH2 0x386B DUP9 DUP5 DUP5 DUP5 PUSH2 0x3D1C JUMP JUMPDEST PUSH1 0x0 DUP1 PUSH2 0x3879 DUP11 DUP6 DUP6 PUSH2 0x3D56 JUMP JUMPDEST SWAP2 POP SWAP2 POP DUP2 PUSH1 0x0 SUB PUSH2 0x389E JUMPI PUSH1 0x40 MLOAD PUSH4 0xF3E39B5D PUSH1 0xE0 SHL DUP2 MSTORE PUSH1 0x4 ADD PUSH1 0x40 MLOAD DUP1 SWAP2 SUB SWAP1 REVERT JUMPDEST PUSH2 0x38A8 DUP2 DUP4 PUSH2 0x5483 JUMP JUMPDEST SWAP6 POP DUP9 DUP7 LT ISZERO PUSH2 0x38D5 JUMPI PUSH1 0x40 MLOAD PUSH4 0x54CDE313 PUSH1 0xE0 SHL DUP2 MSTORE PUSH1 0x4 DUP2 ADD DUP11 SWAP1 MSTORE PUSH1 0x24 DUP2 ADD DUP8 SWAP1 MSTORE PUSH1 0x44 ADD PUSH2 0x148D JUMP JUMPDEST PUSH1 0x40 DUP1 MLOAD DUP12 DUP2 MSTORE PUSH1 0x20 DUP2 ADD DUP9 SWAP1 MSTORE SWAP1 DUP2 ADD DUP3 SWAP1 MSTORE PUSH1 0x1 PUSH1 0x1 PUSH1 0xA0 SHL SUB DUP1 DUP10 AND SWAP2 SWAP1 DUP11 AND SWAP1 PUSH32 0x2D184907C04672620E3C88A12A39D6A603DD26373427842AA172EB3E5BFCFF07 SWAP1 PUSH1 0x60 ADD PUSH1 0x40 MLOAD DUP1 SWAP2 SUB SWAP1 LOG3 PUSH2 0x3931 DUP11 DUP4 DUP11 PUSH2 0x3E0F JUMP JUMPDEST PUSH2 0x2803 DUP8 DUP8 DUP4 PUSH2 0x3F36 JUMP JUMPDEST PUSH1 0x0 SLOAD PUSH2 0x100 SWAP1 DIV PUSH1 0xFF AND PUSH2 0x3963 JUMPI PUSH1 0x40 MLOAD PUSH3 0x461BCD PUSH1 0xE5 SHL DUP2 MSTORE PUSH1 0x4 ADD PUSH2 0x148D SWAP1 PUSH2 0x54C6 JUMP JUMPDEST PUSH2 0x398F PUSH2 0x3978 PUSH2 0x200 DUP4 ADD PUSH2 0x1E0 DUP5 ADD PUSH2 0x4FF6 JUMP JUMPDEST PUSH2 0x398A PUSH2 0x220 DUP5 ADD PUSH2 0x200 DUP6 ADD PUSH2 0x4FF6 JUMP JUMPDEST PUSH2 0x4505 JUMP JUMPDEST PUSH2 0x3998 DUP2 PUSH2 0x4548 JUMP JUMPDEST PUSH2 0x39A6 DUP2 PUSH2 0x220 ADD CALLDATALOAD PUSH2 0x47AD JUMP JUMPDEST PUSH2 0x152A DUP2 PUSH2 0x240 ADD CALLDATALOAD PUSH2 0x4807 JUMP JUMPDEST PUSH1 0x0 DUP1 PUSH2 0x39C0 DUP4 PUSH2 0x3AEA JUMP JUMPDEST SWAP1 POP PUSH2 0x1661 DUP2 PUSH2 0x288E DUP7 DUP3 PUSH2 0x5483 JUMP JUMPDEST PUSH1 0x0 PUSH2 0x17D DUP3 DUP2 SLOAD DUP2 LT PUSH2 0x39E6 JUMPI PUSH2 0x39E6 PUSH2 0x53BE JUMP JUMPDEST PUSH1 0x0 SWAP2 DUP3 MSTORE PUSH1 0x20 DUP1 DUP4 KECCAK256 PUSH1 0x40 DUP1 MLOAD DUP1 DUP3 ADD SWAP1 SWAP2 MSTORE PUSH1 0x2 SWAP1 SWAP4 MUL ADD DUP1 SLOAD DUP4 MSTORE PUSH1 0x1 ADD SLOAD SWAP1 DUP3 ADD MSTORE SWAP2 POP PUSH2 0x3A17 DUP4 PUSH2 0x1A16 JUMP JUMPDEST SWAP1 POP PUSH1 0x0 DUP3 PUSH1 0x20 ADD MLOAD PUSH8 0xDE0B6B3A7640000 PUSH2 0x3A33 SWAP2 SWAP1 PUSH2 0x5483 JUMP JUMPDEST DUP4 MLOAD PUSH2 0x3A3F SWAP2 SWAP1 PUSH2 0x5496 JUMP JUMPDEST SWAP1 POP PUSH1 0x0 DUP3 DUP5 PUSH1 0x20 ADD MLOAD PUSH2 0x3A53 SWAP2 SWAP1 PUSH2 0x5496 JUMP JUMPDEST SWAP1 POP PUSH1 0x0 PUSH8 0xDE0B6B3A7640000 PUSH2 0x3A6A DUP4 DUP6 PUSH2 0x53AB JUMP JUMPDEST PUSH2 0x3A74 SWAP2 SWAP1 PUSH2 0x5389 JUMP JUMPDEST SWAP1 POP DUP1 PUSH2 0x17D DUP8 DUP2 SLOAD DUP2 LT PUSH2 0x3A8B JUMPI PUSH2 0x3A8B PUSH2 0x53BE JUMP JUMPDEST PUSH1 0x0 SWAP2 DUP3 MSTORE PUSH1 0x20 SWAP1 SWAP2 KECCAK256 PUSH1 0x2 SWAP1 SWAP2 MUL ADD SSTORE DUP5 MLOAD PUSH1 0x40 MLOAD DUP8 SWAP2 PUSH32 0x19156E9379C7BBBCE8F646CE5EE30BA860B8F954717405F3D5859A6C1A21AE60 SWAP2 PUSH2 0x3ADA SWAP2 SWAP1 DUP6 SWAP1 SWAP2 DUP3 MSTORE PUSH1 0x20 DUP3 ADD MSTORE PUSH1 0x40 ADD SWAP1 JUMP JUMPDEST PUSH1 0x40 MLOAD DUP1 SWAP2 SUB SWAP1 LOG2 POP POP POP POP POP POP JUMP JUMPDEST PUSH1 0x0 DUP2 PUSH2 0x12F SLOAD PUSH2 0x11E3 SWAP2 SWAP1 PUSH2 0x5483 JUMP JUMPDEST PUSH2 0x24A SLOAD PUSH1 0x40 MLOAD PUSH4 0x70A08231 PUSH1 0xE0 SHL DUP2 MSTORE PUSH1 0x1 PUSH1 0x1 PUSH1 0xA0 SHL SUB DUP4 DUP2 AND PUSH1 0x4 DUP4 ADD MSTORE PUSH1 0x0 SWAP3 AND SWAP1 PUSH4 0x70A08231 SWAP1 PUSH1 0x24 ADD PUSH1 0x20 PUSH1 0x40 MLOAD DUP1 DUP4 SUB DUP2 DUP7 GAS STATICCALL ISZERO DUP1 ISZERO PUSH2 0x3B47 JUMPI RETURNDATASIZE PUSH1 0x0 DUP1 RETURNDATACOPY RETURNDATASIZE PUSH1 0x0 REVERT JUMPDEST POP POP POP POP PUSH1 0x40 MLOAD RETURNDATASIZE PUSH1 0x1F NOT PUSH1 0x1F DUP3 ADD AND DUP3 ADD DUP1 PUSH1 0x40 MSTORE POP DUP2 ADD SWAP1 PUSH2 0x11E3 SWAP2 SWAP1 PUSH2 0x54AD JUMP JUMPDEST DUP1 PUSH2 0x12F PUSH1 0x0 DUP3 DUP3 SLOAD PUSH2 0x3B7E SWAP2 SWAP1 PUSH2 0x53AB JUMP JUMPDEST SWAP1 SWAP2 SSTORE POP POP POP JUMP JUMPDEST PUSH1 0x0 DUP1 PUSH2 0x145 DUP5 DUP2 SLOAD DUP2 LT PUSH2 0x3B9D JUMPI PUSH2 0x3B9D PUSH2 0x53BE JUMP JUMPDEST SWAP1 PUSH1 0x0 MSTORE PUSH1 0x20 PUSH1 0x0 KECCAK256 ADD SLOAD SWAP1 POP PUSH1 0x0 PUSH2 0x17D DUP6 DUP2 SLOAD DUP2 LT PUSH2 0x3BC0 JUMPI PUSH2 0x3BC0 PUSH2 0x53BE JUMP JUMPDEST SWAP1 PUSH1 0x0 MSTORE PUSH1 0x20 PUSH1 0x0 KECCAK256 SWAP1 PUSH1 0x2 MUL ADD PUSH1 0x0 ADD SLOAD SWAP1 POP DUP4 DUP2 LT PUSH2 0x3BE3 JUMPI POP SWAP1 POP PUSH2 0x11E3 JUMP JUMPDEST DUP1 PUSH2 0x3BEE DUP6 DUP5 PUSH2 0x5496 JUMP JUMPDEST PUSH2 0x248D SWAP2 SWAP1 PUSH2 0x5389 JUMP JUMPDEST PUSH1 0x0 PUSH8 0xDE0B6B3A7640000 PUSH2 0x3C0D DUP2 DUP8 PUSH2 0x5483 JUMP JUMPDEST DUP6 PUSH2 0x3C19 DUP10 DUP8 DUP8 PUSH2 0x42C9 JUMP JUMPDEST PUSH2 0x3C23 SWAP2 SWAP1 PUSH2 0x5496 JUMP JUMPDEST PUSH2 0x3C2D SWAP2 SWAP1 PUSH2 0x5389 JUMP JUMPDEST PUSH2 0x3C37 SWAP2 SWAP1 PUSH2 0x5389 JUMP JUMPDEST SWAP7 SWAP6 POP POP POP POP POP POP JUMP JUMPDEST PUSH2 0x148 SLOAD PUSH2 0x100 SWAP1 DIV PUSH1 0xFF AND ISZERO PUSH2 0x1443 JUMPI PUSH1 0x40 MLOAD PUSH4 0x1CA61D77 PUSH1 0xE0 SHL DUP2 MSTORE PUSH1 0x4 ADD PUSH1 0x40 MLOAD DUP1 SWAP2 SUB SWAP1 REVERT JUMPDEST PUSH2 0x3C75 DUP3 DUP3 PUSH2 0x4845 JUMP JUMPDEST PUSH2 0x149 DUP4 DUP2 SLOAD DUP2 LT PUSH2 0x3C89 JUMPI PUSH2 0x3C89 PUSH2 0x53BE JUMP JUMPDEST SWAP1 PUSH1 0x0 MSTORE PUSH1 0x20 PUSH1 0x0 KECCAK256 ADD PUSH1 0x0 DUP3 DUP3 SLOAD PUSH2 0x3CA2 SWAP2 SWAP1 PUSH2 0x5511 JUMP JUMPDEST SWAP3 POP POP DUP2 SWAP1 SSTORE POP DUP1 PUSH2 0x14A DUP4 DUP2 SLOAD DUP2 LT PUSH2 0x3CBE JUMPI PUSH2 0x3CBE PUSH2 0x53BE JUMP JUMPDEST PUSH1 0x0 SWAP2 DUP3 MSTORE PUSH1 0x20 SWAP1 SWAP2 KECCAK256 ADD SSTORE POP POP JUMP JUMPDEST PUSH1 0x0 DUP1 PUSH2 0x3CD9 PUSH2 0x3099 JUMP JUMPDEST SWAP1 SWAP3 POP SWAP1 POP PUSH1 0x0 PUSH2 0x3CEA DUP4 DUP4 PUSH2 0x3812 JUMP JUMPDEST SWAP1 POP DUP4 DUP2 GT PUSH2 0x3D16 JUMPI PUSH1 0x40 MLOAD PUSH4 0x79121201 PUSH1 0xE0 SHL DUP2 MSTORE PUSH1 0x4 DUP2 ADD DUP3 SWAP1 MSTORE PUSH1 0x24 DUP2 ADD DUP6 SWAP1 MSTORE PUSH1 0x44 ADD PUSH2 0x148D JUMP JUMPDEST POP SWAP2 POP SWAP2 JUMP JUMPDEST PUSH1 0x0 PUSH2 0x3D29 DUP5 DUP5 DUP5 PUSH2 0x3554 JUMP JUMPDEST SWAP1 POP DUP5 DUP2 LT ISZERO PUSH2 0x32EE JUMPI PUSH1 0x40 MLOAD PUSH4 0xA5DB715D PUSH1 0xE0 SHL DUP2 MSTORE PUSH1 0x4 DUP2 ADD DUP7 SWAP1 MSTORE PUSH1 0x24 DUP2 ADD DUP3 SWAP1 MSTORE PUSH1 0x44 ADD PUSH2 0x148D JUMP JUMPDEST PUSH1 0x0 DUP1 DUP5 PUSH1 0x0 SUB PUSH2 0x3D7A JUMPI PUSH1 0x40 MLOAD PUSH4 0x2A9FFAB7 PUSH1 0xE2 SHL DUP2 MSTORE PUSH1 0x4 ADD PUSH1 0x40 MLOAD DUP1 SWAP2 SUB SWAP1 REVERT JUMPDEST PUSH2 0x3D8D DUP6 PUSH2 0x3D88 DUP7 DUP7 PUSH2 0x3145 JUMP JUMPDEST PUSH2 0x3DF0 JUMP JUMPDEST SWAP2 POP PUSH2 0x3808 DUP3 PUSH2 0x13B SLOAD PUSH2 0x3DF0 JUMP JUMPDEST PUSH1 0x0 PUSH2 0x3DA8 DUP8 DUP7 PUSH2 0x3B86 JUMP JUMPDEST SWAP1 POP PUSH1 0x0 PUSH2 0x3DB9 DUP6 DUP4 DUP9 DUP8 DUP8 PUSH2 0x3BF8 JUMP JUMPDEST SWAP1 POP DUP7 DUP2 LT ISZERO PUSH2 0x3DE6 JUMPI PUSH1 0x40 MLOAD PUSH4 0xC39B739F PUSH1 0xE0 SHL DUP2 MSTORE PUSH1 0x4 DUP2 ADD DUP9 SWAP1 MSTORE PUSH1 0x24 DUP2 ADD DUP3 SWAP1 MSTORE PUSH1 0x44 ADD PUSH2 0x148D JUMP JUMPDEST POP POP POP POP POP POP POP POP JUMP JUMPDEST PUSH1 0x0 PUSH8 0xDE0B6B3A7640000 PUSH2 0x3E05 DUP4 DUP6 PUSH2 0x5496 JUMP JUMPDEST PUSH2 0x11E0 SWAP2 SWAP1 PUSH2 0x5389 JUMP JUMPDEST PUSH2 0x3E19 DUP4 DUP4 PUSH2 0x48C1 JUMP JUMPDEST PUSH2 0x131 SLOAD PUSH1 0x40 MLOAD PUSH4 0x2770A7EB PUSH1 0xE2 SHL DUP2 MSTORE PUSH1 0x1 PUSH1 0x1 PUSH1 0xA0 SHL SUB DUP4 DUP2 AND PUSH1 0x4 DUP4 ADD MSTORE PUSH1 0x24 DUP3 ADD DUP7 SWAP1 MSTORE SWAP1 SWAP2 AND SWAP1 PUSH4 0x9DC29FAC SWAP1 PUSH1 0x44 ADD JUMPDEST PUSH1 0x0 PUSH1 0x40 MLOAD DUP1 DUP4 SUB DUP2 PUSH1 0x0 DUP8 DUP1 EXTCODESIZE ISZERO DUP1 ISZERO PUSH2 0x3E69 JUMPI PUSH1 0x0 DUP1 REVERT JUMPDEST POP GAS CALL ISZERO DUP1 ISZERO PUSH2 0x3E7D JUMPI RETURNDATASIZE PUSH1 0x0 DUP1 RETURNDATACOPY RETURNDATASIZE PUSH1 0x0 REVERT JUMPDEST POP POP POP POP POP POP POP JUMP JUMPDEST PUSH2 0x3E91 DUP5 DUP5 DUP5 PUSH2 0x48F7 JUMP JUMPDEST PUSH2 0x133 DUP5 DUP2 SLOAD DUP2 LT PUSH2 0x3EA5 JUMPI PUSH2 0x3EA5 PUSH2 0x53BE JUMP JUMPDEST PUSH1 0x0 SWAP2 DUP3 MSTORE PUSH1 0x20 SWAP1 SWAP2 KECCAK256 ADD SLOAD PUSH1 0x40 MLOAD PUSH4 0x40C10F19 PUSH1 0xE0 SHL DUP2 MSTORE PUSH1 0x1 PUSH1 0x1 PUSH1 0xA0 SHL SUB DUP4 DUP2 AND PUSH1 0x4 DUP4 ADD MSTORE PUSH1 0x24 DUP3 ADD DUP7 SWAP1 MSTORE SWAP1 SWAP2 AND SWAP1 PUSH4 0x40C10F19 SWAP1 PUSH1 0x44 ADD JUMPDEST PUSH1 0x0 PUSH1 0x40 MLOAD DUP1 DUP4 SUB DUP2 PUSH1 0x0 DUP8 DUP1 EXTCODESIZE ISZERO DUP1 ISZERO PUSH2 0x3EFD JUMPI PUSH1 0x0 DUP1 REVERT JUMPDEST POP GAS CALL ISZERO DUP1 ISZERO PUSH2 0x3DE6 JUMPI RETURNDATASIZE PUSH1 0x0 DUP1 RETURNDATACOPY RETURNDATASIZE PUSH1 0x0 REVERT JUMPDEST PUSH2 0x24A SLOAD PUSH1 0x0 SWAP1 PUSH2 0x3F2D SWAP1 PUSH1 0x1 PUSH1 0x1 PUSH1 0xA0 SHL SUB AND CALLER ADDRESS DUP6 PUSH2 0x493B JUMP JUMPDEST POP PUSH1 0x0 SWAP3 SWAP2 POP POP JUMP JUMPDEST PUSH1 0x0 PUSH2 0x3F45 PUSH2 0x139 SLOAD DUP4 PUSH2 0x3DF0 JUMP JUMPDEST SWAP1 POP DUP1 PUSH2 0x12F PUSH1 0x0 DUP3 DUP3 SLOAD PUSH2 0x3F5A SWAP2 SWAP1 PUSH2 0x53AB JUMP JUMPDEST SWAP1 SWAP2 SSTORE POP POP PUSH2 0x143 SLOAD PUSH2 0x3F7F SWAP1 PUSH1 0x1 PUSH1 0x1 PUSH1 0xA0 SHL SUB AND PUSH2 0x3F7A DUP4 DUP6 PUSH2 0x5483 JUMP JUMPDEST PUSH2 0x44D4 JUMP JUMPDEST PUSH2 0x3F89 DUP5 DUP5 PUSH2 0x44D4 JUMP JUMPDEST POP POP POP POP JUMP JUMPDEST PUSH1 0x0 DUP1 DUP5 PUSH1 0x0 SUB PUSH2 0x3FB3 JUMPI PUSH1 0x40 MLOAD PUSH4 0x2A9FFAB7 PUSH1 0xE2 SHL DUP2 MSTORE PUSH1 0x4 ADD PUSH1 0x40 MLOAD DUP1 SWAP2 SUB SWAP1 REVERT JUMPDEST PUSH2 0x3FC1 DUP6 PUSH2 0x3D88 DUP7 DUP7 PUSH2 0x3145 JUMP JUMPDEST SWAP2 POP PUSH2 0x3808 DUP3 PUSH2 0x13A SLOAD PUSH2 0x3DF0 JUMP JUMPDEST PUSH2 0x3FDA DUP4 DUP4 PUSH2 0x49A6 JUMP JUMPDEST PUSH2 0x131 SLOAD PUSH1 0x40 MLOAD PUSH4 0x40C10F19 PUSH1 0xE0 SHL DUP2 MSTORE PUSH1 0x1 PUSH1 0x1 PUSH1 0xA0 SHL SUB DUP4 DUP2 AND PUSH1 0x4 DUP4 ADD MSTORE PUSH1 0x24 DUP3 ADD DUP7 SWAP1 MSTORE SWAP1 SWAP2 AND SWAP1 PUSH4 0x40C10F19 SWAP1 PUSH1 0x44 ADD PUSH2 0x3E4F JUMP JUMPDEST PUSH1 0x0 DUP2 PUSH2 0x3E05 PUSH8 0xDE0B6B3A7640000 DUP6 PUSH2 0x5496 JUMP JUMPDEST PUSH2 0x4034 DUP5 DUP5 DUP5 PUSH2 0x49C8 JUMP JUMPDEST PUSH2 0x133 DUP5 DUP2 SLOAD DUP2 LT PUSH2 0x4048 JUMPI PUSH2 0x4048 PUSH2 0x53BE JUMP JUMPDEST PUSH1 0x0 SWAP2 DUP3 MSTORE PUSH1 0x20 SWAP1 SWAP2 KECCAK256 ADD SLOAD PUSH1 0x40 MLOAD PUSH4 0x2770A7EB PUSH1 0xE2 SHL DUP2 MSTORE PUSH1 0x1 PUSH1 0x1 PUSH1 0xA0 SHL SUB DUP4 DUP2 AND PUSH1 0x4 DUP4 ADD MSTORE PUSH1 0x24 DUP3 ADD DUP7 SWAP1 MSTORE SWAP1 SWAP2 AND SWAP1 PUSH4 0x9DC29FAC SWAP1 PUSH1 0x44 ADD PUSH2 0x3EE3 JUMP JUMPDEST PUSH1 0x0 DUP1 PUSH2 0x4098 DUP8 DUP7 DUP7 PUSH2 0x37B0 JUMP JUMPDEST POP SWAP2 POP PUSH2 0x40A5 DUP7 DUP5 PUSH2 0x3DF0 JUMP JUMPDEST PUSH2 0x40AF SWAP1 DUP4 PUSH2 0x53AB JUMP JUMPDEST SWAP2 POP PUSH2 0x40BE DUP3 PUSH2 0x13F SLOAD PUSH2 0x3DF0 JUMP JUMPDEST SWAP1 POP SWAP6 POP SWAP6 SWAP4 POP POP POP POP JUMP JUMPDEST PUSH1 0x0 DUP1 DUP4 PUSH1 0x0 SUB PUSH2 0x40EE JUMPI PUSH1 0x40 MLOAD PUSH4 0x2A9FFAB7 PUSH1 0xE2 SHL DUP2 MSTORE PUSH1 0x4 ADD PUSH1 0x40 MLOAD DUP1 SWAP2 SUB SWAP1 REVERT JUMPDEST PUSH2 0x40F8 DUP5 DUP5 PUSH2 0x4014 JUMP JUMPDEST SWAP2 POP PUSH2 0x3808 DUP3 PUSH2 0x141 DUP8 DUP2 SLOAD DUP2 LT PUSH2 0x37F8 JUMPI PUSH2 0x37F8 PUSH2 0x53BE JUMP JUMPDEST PUSH1 0x0 DUP1 PUSH1 0x0 DUP1 PUSH1 0x0 PUSH2 0x4122 PUSH2 0x3099 JUMP JUMPDEST SWAP2 POP SWAP2 POP PUSH1 0x0 PUSH2 0x4132 DUP4 DUP4 PUSH2 0x3145 JUMP JUMPDEST SWAP1 POP DUP7 PUSH8 0xDE0B6B3A7640000 PUSH2 0x4146 PUSH2 0x346D JUMP JUMPDEST PUSH2 0x4150 SWAP2 SWAP1 PUSH2 0x5483 JUMP JUMPDEST PUSH2 0x415A SWAP1 DUP11 PUSH2 0x5496 JUMP JUMPDEST PUSH2 0x4164 SWAP2 SWAP1 PUSH2 0x5389 JUMP JUMPDEST SWAP5 POP PUSH2 0x4170 DUP6 DUP3 PUSH2 0x4014 JUMP JUMPDEST SWAP6 POP PUSH2 0x417C DUP9 DUP9 PUSH2 0x4014 JUMP JUMPDEST PUSH2 0x4186 SWAP1 DUP7 PUSH2 0x53AB JUMP JUMPDEST SWAP5 POP PUSH2 0x4195 DUP6 PUSH2 0x140 SLOAD PUSH2 0x3DF0 JUMP JUMPDEST SWAP4 POP POP POP POP SWAP3 POP SWAP3 POP SWAP3 JUMP JUMPDEST PUSH1 0x0 DUP1 PUSH1 0x0 PUSH2 0x41B0 DUP6 DUP6 PUSH2 0x4845 JUMP JUMPDEST PUSH2 0x149 DUP7 DUP2 SLOAD DUP2 LT PUSH2 0x41C4 JUMPI PUSH2 0x41C4 PUSH2 0x53BE JUMP JUMPDEST SWAP1 PUSH1 0x0 MSTORE PUSH1 0x20 PUSH1 0x0 KECCAK256 ADD SLOAD PUSH2 0x41D9 SWAP2 SWAP1 PUSH2 0x5511 JUMP JUMPDEST SWAP1 POP PUSH1 0x0 DUP2 SGT ISZERO PUSH2 0x4200 JUMPI DUP1 SWAP2 POP PUSH2 0x41FD PUSH2 0x41F7 PUSH2 0x138 SLOAD DUP7 PUSH2 0x3DF0 JUMP JUMPDEST DUP4 PUSH2 0x3DF0 JUMP JUMPDEST SWAP3 POP JUMPDEST POP SWAP3 POP SWAP3 SWAP1 POP JUMP JUMPDEST PUSH1 0x1 PUSH1 0x1 PUSH1 0xA0 SHL SUB DUP2 AND EXTCODESIZE PUSH2 0x4275 JUMPI PUSH1 0x40 MLOAD PUSH3 0x461BCD PUSH1 0xE5 SHL DUP2 MSTORE PUSH1 0x20 PUSH1 0x4 DUP3 ADD MSTORE PUSH1 0x2D PUSH1 0x24 DUP3 ADD MSTORE PUSH32 0x455243313936373A206E657720696D706C656D656E746174696F6E206973206E PUSH1 0x44 DUP3 ADD MSTORE PUSH13 0x1BDD08184818DBDB9D1C9858DD PUSH1 0x9A SHL PUSH1 0x64 DUP3 ADD MSTORE PUSH1 0x84 ADD PUSH2 0x148D JUMP JUMPDEST PUSH1 0x0 DUP1 MLOAD PUSH1 0x20 PUSH2 0x5622 DUP4 CODECOPY DUP2 MLOAD SWAP2 MSTORE DUP1 SLOAD PUSH1 0x1 PUSH1 0x1 PUSH1 0xA0 SHL SUB NOT AND PUSH1 0x1 PUSH1 0x1 PUSH1 0xA0 SHL SUB SWAP3 SWAP1 SWAP3 AND SWAP2 SWAP1 SWAP2 OR SWAP1 SSTORE JUMP JUMPDEST PUSH2 0x42AD DUP4 PUSH2 0x4A21 JUMP JUMPDEST PUSH1 0x0 DUP3 MLOAD GT DUP1 PUSH2 0x42BA JUMPI POP DUP1 JUMPDEST ISZERO PUSH2 0x3330 JUMPI PUSH2 0x3F89 DUP4 DUP4 PUSH2 0x4A61 JUMP JUMPDEST PUSH1 0x0 DUP4 PUSH2 0x42D6 DUP5 DUP5 PUSH2 0x3812 JUMP JUMPDEST GT PUSH2 0x42E3 JUMPI POP PUSH1 0x0 PUSH2 0x1263 JUMP JUMPDEST PUSH2 0x42ED DUP4 DUP6 PUSH2 0x5496 JUMP JUMPDEST PUSH8 0xDE0B6B3A7640000 PUSH2 0x42FF DUP5 PUSH2 0x3AEA JUMP JUMPDEST PUSH2 0x4309 SWAP2 SWAP1 PUSH2 0x5496 JUMP JUMPDEST PUSH2 0x1260 SWAP2 SWAP1 PUSH2 0x5483 JUMP JUMPDEST PUSH2 0x135 SLOAD PUSH1 0x0 SWAP1 DUP2 DUP2 PUSH8 0xFFFFFFFFFFFFFFFF DUP2 GT ISZERO PUSH2 0x4334 JUMPI PUSH2 0x4334 PUSH2 0x516B JUMP JUMPDEST PUSH1 0x40 MLOAD SWAP1 DUP1 DUP3 MSTORE DUP1 PUSH1 0x20 MUL PUSH1 0x20 ADD DUP3 ADD PUSH1 0x40 MSTORE DUP1 ISZERO PUSH2 0x435D JUMPI DUP2 PUSH1 0x20 ADD PUSH1 0x20 DUP3 MUL DUP1 CALLDATASIZE DUP4 CALLDATACOPY ADD SWAP1 POP JUMPDEST POP SWAP1 POP PUSH1 0x0 JUMPDEST DUP3 DUP2 LT ISZERO PUSH2 0x4451 JUMPI PUSH1 0x0 PUSH2 0x4376 DUP3 PUSH2 0x1A16 JUMP JUMPDEST SWAP1 POP PUSH2 0x4382 DUP3 DUP3 PUSH2 0x3C6B JUMP JUMPDEST PUSH1 0x0 PUSH2 0x149 DUP4 DUP2 SLOAD DUP2 LT PUSH2 0x4398 JUMPI PUSH2 0x4398 PUSH2 0x53BE JUMP JUMPDEST SWAP1 PUSH1 0x0 MSTORE PUSH1 0x20 PUSH1 0x0 KECCAK256 ADD SLOAD SWAP1 POP PUSH1 0x0 DUP2 SGT ISZERO PUSH2 0x4447 JUMPI PUSH2 0x43C4 PUSH2 0x43BE PUSH2 0x138 SLOAD DUP5 PUSH2 0x3DF0 JUMP JUMPDEST DUP3 PUSH2 0x3DF0 JUMP JUMPDEST DUP5 DUP5 DUP2 MLOAD DUP2 LT PUSH2 0x43D6 JUMPI PUSH2 0x43D6 PUSH2 0x53BE JUMP JUMPDEST PUSH1 0x20 SWAP1 DUP2 MUL SWAP2 SWAP1 SWAP2 ADD ADD MSTORE PUSH2 0x43EB DUP2 DUP8 PUSH2 0x53AB JUMP JUMPDEST SWAP6 POP PUSH1 0x0 PUSH2 0x149 DUP5 DUP2 SLOAD DUP2 LT PUSH2 0x4403 JUMPI PUSH2 0x4403 PUSH2 0x53BE JUMP JUMPDEST SWAP1 PUSH1 0x0 MSTORE PUSH1 0x20 PUSH1 0x0 KECCAK256 ADD DUP2 SWAP1 SSTORE POP PUSH2 0x4447 DUP4 DUP6 DUP6 DUP2 MLOAD DUP2 LT PUSH2 0x4427 JUMPI PUSH2 0x4427 PUSH2 0x53BE JUMP JUMPDEST PUSH1 0x20 SWAP1 DUP2 MUL SWAP2 SWAP1 SWAP2 ADD ADD MLOAD PUSH2 0x144 SLOAD PUSH1 0x0 SWAP1 PUSH1 0x1 PUSH1 0x1 PUSH1 0xA0 SHL SUB AND PUSH2 0x3E86 JUMP JUMPDEST POP POP PUSH1 0x1 ADD PUSH2 0x4363 JUMP JUMPDEST POP DUP3 ISZERO PUSH2 0x4496 JUMPI PUSH2 0x4465 DUP4 PUSH2 0x137 SLOAD PUSH2 0x3DF0 JUMP JUMPDEST SWAP3 POP DUP3 PUSH2 0x12F PUSH1 0x0 DUP3 DUP3 SLOAD PUSH2 0x447A SWAP2 SWAP1 PUSH2 0x5483 JUMP JUMPDEST SWAP1 SWAP2 SSTORE POP POP PUSH2 0x143 SLOAD PUSH2 0x4496 SWAP1 PUSH1 0x1 PUSH1 0x1 PUSH1 0xA0 SHL SUB AND DUP5 PUSH2 0x44D4 JUMP JUMPDEST PUSH32 0xAE5116A8119D08673A0F1DFA7546B95DA4BD54BB17FEDA7C61130AC7859152F6 DUP4 DUP3 PUSH1 0x40 MLOAD PUSH2 0x44C7 SWAP3 SWAP2 SWAP1 PUSH2 0x5539 JUMP JUMPDEST PUSH1 0x40 MLOAD DUP1 SWAP2 SUB SWAP1 LOG1 POP POP POP JUMP JUMPDEST PUSH2 0x44DC PUSH2 0x4B4C JUMP JUMPDEST DUP1 ISZERO PUSH2 0x44FA JUMPI PUSH2 0x24A SLOAD PUSH2 0x44FA SWAP1 PUSH1 0x1 PUSH1 0x1 PUSH1 0xA0 SHL SUB AND DUP4 DUP4 PUSH2 0x4BA7 JUMP JUMPDEST PUSH2 0x1735 PUSH1 0x1 PUSH2 0x1E6 SSTORE JUMP JUMPDEST PUSH1 0x0 SLOAD PUSH2 0x100 SWAP1 DIV PUSH1 0xFF AND PUSH2 0x452C JUMPI PUSH1 0x40 MLOAD PUSH3 0x461BCD PUSH1 0xE5 SHL DUP2 MSTORE PUSH1 0x4 ADD PUSH2 0x148D SWAP1 PUSH2 0x54C6 JUMP JUMPDEST PUSH2 0x4534 PUSH2 0x4BD7 JUMP JUMPDEST PUSH2 0x453D DUP3 PUSH2 0x4BFE JUMP JUMPDEST PUSH2 0x1735 DUP2 PUSH1 0x1 PUSH2 0x4C2E JUMP JUMPDEST PUSH1 0x0 SLOAD PUSH2 0x100 SWAP1 DIV PUSH1 0xFF AND PUSH2 0x456F JUMPI PUSH1 0x40 MLOAD PUSH3 0x461BCD PUSH1 0xE5 SHL DUP2 MSTORE PUSH1 0x4 ADD PUSH2 0x148D SWAP1 PUSH2 0x54C6 JUMP JUMPDEST PUSH8 0xDE0B6B3A7640000 DUP2 PUSH1 0x60 ADD CALLDATALOAD LT ISZERO PUSH2 0x459C JUMPI PUSH1 0x40 MLOAD PUSH4 0x2A9FFAB7 PUSH1 0xE2 SHL DUP2 MSTORE PUSH1 0x4 ADD PUSH1 0x40 MLOAD DUP1 SWAP2 SUB SWAP1 REVERT JUMPDEST PUSH2 0x45A9 DUP2 PUSH1 0xA0 ADD CALLDATALOAD PUSH2 0x4C91 JUMP JUMPDEST PUSH2 0x45B6 DUP2 PUSH1 0xC0 ADD CALLDATALOAD PUSH2 0x4C91 JUMP JUMPDEST PUSH2 0x45C3 DUP2 PUSH1 0xE0 ADD CALLDATALOAD PUSH2 0x4C91 JUMP JUMPDEST PUSH2 0x45D1 DUP2 PUSH2 0x100 ADD CALLDATALOAD PUSH2 0x4C91 JUMP JUMPDEST PUSH2 0x45DF DUP2 PUSH2 0x120 ADD CALLDATALOAD PUSH2 0x4C91 JUMP JUMPDEST PUSH2 0x45ED DUP2 PUSH2 0x140 ADD CALLDATALOAD PUSH2 0x4C91 JUMP JUMPDEST PUSH2 0x45FB DUP2 PUSH2 0x160 ADD CALLDATALOAD PUSH2 0x4C91 JUMP JUMPDEST PUSH2 0x4609 DUP2 PUSH2 0x180 ADD CALLDATALOAD PUSH2 0x4C91 JUMP JUMPDEST PUSH2 0x4625 PUSH2 0x4620 PUSH2 0x1C0 DUP4 ADD CALLDATALOAD PUSH2 0x1A0 DUP5 ADD CALLDATALOAD PUSH2 0x53AB JUMP JUMPDEST PUSH2 0x4C91 JUMP JUMPDEST PUSH2 0x4632 PUSH1 0x20 DUP3 ADD DUP3 PUSH2 0x4FF6 JUMP JUMPDEST PUSH2 0x131 DUP1 SLOAD PUSH1 0x1 PUSH1 0x1 PUSH1 0xA0 SHL SUB NOT AND PUSH1 0x1 PUSH1 0x1 PUSH1 0xA0 SHL SUB SWAP3 SWAP1 SWAP3 AND SWAP2 DUP3 OR SWAP1 SSTORE PUSH1 0x40 MLOAD PUSH4 0xD55FD845 PUSH1 0xE0 SHL DUP2 MSTORE ADDRESS PUSH1 0x4 DUP3 ADD MSTORE PUSH4 0xD55FD845 SWAP1 PUSH1 0x24 ADD PUSH1 0x20 PUSH1 0x40 MLOAD DUP1 DUP4 SUB DUP2 DUP7 GAS STATICCALL ISZERO DUP1 ISZERO PUSH2 0x468B JUMPI RETURNDATASIZE PUSH1 0x0 DUP1 RETURNDATACOPY RETURNDATASIZE PUSH1 0x0 REVERT JUMPDEST POP POP POP POP PUSH1 0x40 MLOAD RETURNDATASIZE PUSH1 0x1F NOT PUSH1 0x1F DUP3 ADD AND DUP3 ADD DUP1 PUSH1 0x40 MSTORE POP DUP2 ADD SWAP1 PUSH2 0x46AF SWAP2 SWAP1 PUSH2 0x53F9 JUMP JUMPDEST PUSH2 0x46CC JUMPI PUSH1 0x40 MLOAD PUSH4 0xE6C4247B PUSH1 0xE0 SHL DUP2 MSTORE PUSH1 0x4 ADD PUSH1 0x40 MLOAD DUP1 SWAP2 SUB SWAP1 REVERT JUMPDEST PUSH2 0x46DC PUSH1 0x40 DUP3 ADD PUSH1 0x20 DUP4 ADD PUSH2 0x4FF6 JUMP JUMPDEST PUSH2 0x143 DUP1 SLOAD PUSH1 0x1 PUSH1 0x1 PUSH1 0xA0 SHL SUB NOT AND PUSH1 0x1 PUSH1 0x1 PUSH1 0xA0 SHL SUB SWAP3 SWAP1 SWAP3 AND SWAP2 SWAP1 SWAP2 OR SWAP1 SSTORE PUSH2 0x470D PUSH1 0x60 DUP3 ADD PUSH1 0x40 DUP4 ADD PUSH2 0x4FF6 JUMP JUMPDEST PUSH2 0x144 DUP1 SLOAD PUSH1 0x1 PUSH1 0x1 PUSH1 0xA0 SHL SUB NOT AND PUSH1 0x1 PUSH1 0x1 PUSH1 0xA0 SHL SUB SWAP3 SWAP1 SWAP3 AND SWAP2 SWAP1 SWAP2 OR SWAP1 SSTORE PUSH1 0x60 DUP2 ADD CALLDATALOAD PUSH2 0x146 SSTORE PUSH1 0x80 DUP2 ADD CALLDATALOAD PUSH2 0x147 SSTORE PUSH1 0xA0 DUP2 ADD CALLDATALOAD PUSH2 0x139 SSTORE PUSH1 0xC0 DUP2 ADD CALLDATALOAD PUSH2 0x13A SSTORE PUSH1 0xE0 DUP2 ADD CALLDATALOAD PUSH2 0x13B SSTORE PUSH2 0x100 DUP2 ADD CALLDATALOAD PUSH2 0x13C SSTORE PUSH2 0x120 DUP2 ADD CALLDATALOAD PUSH2 0x13D SSTORE PUSH2 0x140 DUP1 DUP3 ADD CALLDATALOAD PUSH2 0x13E SSTORE PUSH2 0x160 DUP3 ADD CALLDATALOAD PUSH2 0x13F SSTORE PUSH2 0x180 DUP3 ADD CALLDATALOAD SWAP1 SSTORE PUSH2 0x1A0 DUP2 ADD CALLDATALOAD PUSH2 0x137 SSTORE PUSH2 0x1C0 ADD CALLDATALOAD PUSH2 0x138 SSTORE PUSH2 0x148 DUP1 SLOAD PUSH2 0xFFFF NOT AND SWAP1 SSTORE JUMP JUMPDEST PUSH1 0x0 SLOAD PUSH2 0x100 SWAP1 DIV PUSH1 0xFF AND PUSH2 0x47D4 JUMPI PUSH1 0x40 MLOAD PUSH3 0x461BCD PUSH1 0xE5 SHL DUP2 MSTORE PUSH1 0x4 ADD PUSH2 0x148D SWAP1 PUSH2 0x54C6 JUMP JUMPDEST DUP1 PUSH1 0x0 SUB PUSH2 0x47F5 JUMPI PUSH1 0x40 MLOAD PUSH4 0x2A9FFAB7 PUSH1 0xE2 SHL DUP2 MSTORE PUSH1 0x4 ADD PUSH1 0x40 MLOAD DUP1 SWAP2 SUB SWAP1 REVERT JUMPDEST PUSH2 0x17F DUP2 SWAP1 SSTORE PUSH2 0x152A DUP2 NUMBER ADD PUSH2 0x17E SSTORE JUMP JUMPDEST PUSH1 0x0 SLOAD PUSH2 0x100 SWAP1 DIV PUSH1 0xFF AND PUSH2 0x482E JUMPI PUSH1 0x40 MLOAD PUSH3 0x461BCD PUSH1 0xE5 SHL DUP2 MSTORE PUSH1 0x4 ADD PUSH2 0x148D SWAP1 PUSH2 0x54C6 JUMP JUMPDEST PUSH2 0x1B2 DUP2 SWAP1 SSTORE PUSH2 0x483E DUP2 NUMBER PUSH2 0x53AB JUMP JUMPDEST PUSH2 0x1B3 SSTORE POP JUMP JUMPDEST PUSH1 0x0 DUP1 PUSH8 0xDE0B6B3A7640000 PUSH2 0x135 DUP6 DUP2 SLOAD DUP2 LT PUSH2 0x4865 JUMPI PUSH2 0x4865 PUSH2 0x53BE JUMP JUMPDEST SWAP1 PUSH1 0x0 MSTORE PUSH1 0x20 PUSH1 0x0 KECCAK256 SWAP1 PUSH1 0x2 MUL ADD PUSH1 0x0 ADD SLOAD PUSH2 0x4881 SWAP2 SWAP1 PUSH2 0x5496 JUMP JUMPDEST SWAP1 POP PUSH2 0x488D DUP4 DUP3 PUSH2 0x5389 JUMP JUMPDEST PUSH2 0x14A DUP6 DUP2 SLOAD DUP2 LT PUSH2 0x48A1 JUMPI PUSH2 0x48A1 PUSH2 0x53BE JUMP JUMPDEST SWAP1 PUSH1 0x0 MSTORE PUSH1 0x20 PUSH1 0x0 KECCAK256 ADD SLOAD DUP3 PUSH2 0x48B7 SWAP2 SWAP1 PUSH2 0x5389 JUMP JUMPDEST PUSH2 0x1661 SWAP2 SWAP1 PUSH2 0x5587 JUMP JUMPDEST DUP2 PUSH2 0x132 PUSH1 0x0 DUP3 DUP3 SLOAD PUSH2 0x48D4 SWAP2 SWAP1 PUSH2 0x5483 JUMP JUMPDEST SWAP3 POP POP DUP2 SWAP1 SSTORE POP DUP1 PUSH2 0x12F PUSH1 0x0 DUP3 DUP3 SLOAD PUSH2 0x48EE SWAP2 SWAP1 PUSH2 0x5483 JUMP JUMPDEST SWAP1 SWAP2 SSTORE POP POP POP POP JUMP JUMPDEST DUP2 PUSH2 0x135 DUP5 DUP2 SLOAD DUP2 LT PUSH2 0x490C JUMPI PUSH2 0x490C PUSH2 0x53BE JUMP JUMPDEST SWAP1 PUSH1 0x0 MSTORE PUSH1 0x20 PUSH1 0x0 KECCAK256 SWAP1 PUSH1 0x2 MUL ADD PUSH1 0x0 ADD PUSH1 0x0 DUP3 DUP3 SLOAD PUSH2 0x492C SWAP2 SWAP1 PUSH2 0x53AB JUMP JUMPDEST SWAP1 SWAP2 SSTORE POP PUSH2 0x3330 SWAP1 POP DUP2 PUSH2 0x3B6B JUMP JUMPDEST PUSH1 0x40 MLOAD PUSH1 0x1 PUSH1 0x1 PUSH1 0xA0 SHL SUB DUP1 DUP6 AND PUSH1 0x24 DUP4 ADD MSTORE DUP4 AND PUSH1 0x44 DUP3 ADD MSTORE PUSH1 0x64 DUP2 ADD DUP3 SWAP1 MSTORE PUSH2 0x3F89 SWAP1 DUP6 SWAP1 PUSH4 0x23B872DD PUSH1 0xE0 SHL SWAP1 PUSH1 0x84 ADD JUMPDEST PUSH1 0x40 DUP1 MLOAD PUSH1 0x1F NOT DUP2 DUP5 SUB ADD DUP2 MSTORE SWAP2 SWAP1 MSTORE PUSH1 0x20 DUP2 ADD DUP1 MLOAD PUSH1 0x1 PUSH1 0x1 PUSH1 0xE0 SHL SUB AND PUSH1 0x1 PUSH1 0x1 PUSH1 0xE0 SHL SUB NOT SWAP1 SWAP4 AND SWAP3 SWAP1 SWAP3 OR SWAP1 SWAP2 MSTORE PUSH2 0x4CBA JUMP JUMPDEST DUP2 PUSH2 0x132 PUSH1 0x0 DUP3 DUP3 SLOAD PUSH2 0x49B9 SWAP2 SWAP1 PUSH2 0x53AB JUMP JUMPDEST SWAP1 SWAP2 SSTORE POP PUSH2 0x1735 SWAP1 POP DUP2 PUSH2 0x3B6B JUMP JUMPDEST DUP2 PUSH2 0x135 DUP5 DUP2 SLOAD DUP2 LT PUSH2 0x49DD JUMPI PUSH2 0x49DD PUSH2 0x53BE JUMP JUMPDEST SWAP1 PUSH1 0x0 MSTORE PUSH1 0x20 PUSH1 0x0 KECCAK256 SWAP1 PUSH1 0x2 MUL ADD PUSH1 0x0 ADD PUSH1 0x0 DUP3 DUP3 SLOAD PUSH2 0x49FD SWAP2 SWAP1 PUSH2 0x5483 JUMP JUMPDEST SWAP3 POP POP DUP2 SWAP1 SSTORE POP DUP1 PUSH2 0x12F PUSH1 0x0 DUP3 DUP3 SLOAD PUSH2 0x4A17 SWAP2 SWAP1 PUSH2 0x5483 JUMP JUMPDEST SWAP1 SWAP2 SSTORE POP POP POP POP POP JUMP JUMPDEST PUSH2 0x4A2A DUP2 PUSH2 0x4208 JUMP JUMPDEST PUSH1 0x40 MLOAD PUSH1 0x1 PUSH1 0x1 PUSH1 0xA0 SHL SUB DUP3 AND SWAP1 PUSH32 0xBC7CD75A20EE27FD9ADEBAB32041F755214DBC6BFFA90CC0225B39DA2E5C2D3B SWAP1 PUSH1 0x0 SWAP1 LOG2 POP JUMP JUMPDEST PUSH1 0x60 PUSH1 0x1 PUSH1 0x1 PUSH1 0xA0 SHL SUB DUP4 AND EXTCODESIZE PUSH2 0x4AC9 JUMPI PUSH1 0x40 MLOAD PUSH3 0x461BCD PUSH1 0xE5 SHL DUP2 MSTORE PUSH1 0x20 PUSH1 0x4 DUP3 ADD MSTORE PUSH1 0x26 PUSH1 0x24 DUP3 ADD MSTORE PUSH32 0x416464726573733A2064656C65676174652063616C6C20746F206E6F6E2D636F PUSH1 0x44 DUP3 ADD MSTORE PUSH6 0x1B9D1C9858DD PUSH1 0xD2 SHL PUSH1 0x64 DUP3 ADD MSTORE PUSH1 0x84 ADD PUSH2 0x148D JUMP JUMPDEST PUSH1 0x0 DUP1 DUP5 PUSH1 0x1 PUSH1 0x1 PUSH1 0xA0 SHL SUB AND DUP5 PUSH1 0x40 MLOAD PUSH2 0x4AE4 SWAP2 SWAP1 PUSH2 0x55D2 JUMP JUMPDEST PUSH1 0x0 PUSH1 0x40 MLOAD DUP1 DUP4 SUB DUP2 DUP6 GAS DELEGATECALL SWAP2 POP POP RETURNDATASIZE DUP1 PUSH1 0x0 DUP2 EQ PUSH2 0x4B1F JUMPI PUSH1 0x40 MLOAD SWAP2 POP PUSH1 0x1F NOT PUSH1 0x3F RETURNDATASIZE ADD AND DUP3 ADD PUSH1 0x40 MSTORE RETURNDATASIZE DUP3 MSTORE RETURNDATASIZE PUSH1 0x0 PUSH1 0x20 DUP5 ADD RETURNDATACOPY PUSH2 0x4B24 JUMP JUMPDEST PUSH1 0x60 SWAP2 POP JUMPDEST POP SWAP2 POP SWAP2 POP PUSH2 0x248D DUP3 DUP3 PUSH1 0x40 MLOAD DUP1 PUSH1 0x60 ADD PUSH1 0x40 MSTORE DUP1 PUSH1 0x27 DUP2 MSTORE PUSH1 0x20 ADD PUSH2 0x5642 PUSH1 0x27 SWAP2 CODECOPY PUSH2 0x4D8C JUMP JUMPDEST PUSH1 0x2 PUSH2 0x1E6 SLOAD SUB PUSH2 0x4B9F JUMPI PUSH1 0x40 MLOAD PUSH3 0x461BCD PUSH1 0xE5 SHL DUP2 MSTORE PUSH1 0x20 PUSH1 0x4 DUP3 ADD MSTORE PUSH1 0x1F PUSH1 0x24 DUP3 ADD MSTORE PUSH32 0x5265656E7472616E637947756172643A207265656E7472616E742063616C6C00 PUSH1 0x44 DUP3 ADD MSTORE PUSH1 0x64 ADD PUSH2 0x148D JUMP JUMPDEST PUSH1 0x2 PUSH2 0x1E6 SSTORE JUMP JUMPDEST PUSH1 0x40 MLOAD PUSH1 0x1 PUSH1 0x1 PUSH1 0xA0 SHL SUB DUP4 AND PUSH1 0x24 DUP3 ADD MSTORE PUSH1 0x44 DUP2 ADD DUP3 SWAP1 MSTORE PUSH2 0x3330 SWAP1 DUP5 SWAP1 PUSH4 0xA9059CBB PUSH1 0xE0 SHL SWAP1 PUSH1 0x64 ADD PUSH2 0x496F JUMP JUMPDEST PUSH1 0x0 SLOAD PUSH2 0x100 SWAP1 DIV PUSH1 0xFF AND PUSH2 0x1443 JUMPI PUSH1 0x40 MLOAD PUSH3 0x461BCD PUSH1 0xE5 SHL DUP2 MSTORE PUSH1 0x4 ADD PUSH2 0x148D SWAP1 PUSH2 0x54C6 JUMP JUMPDEST PUSH1 0x0 SLOAD PUSH2 0x100 SWAP1 DIV PUSH1 0xFF AND PUSH2 0x4C25 JUMPI PUSH1 0x40 MLOAD PUSH3 0x461BCD PUSH1 0xE5 SHL DUP2 MSTORE PUSH1 0x4 ADD PUSH2 0x148D SWAP1 PUSH2 0x54C6 JUMP JUMPDEST PUSH2 0x152A DUP2 PUSH2 0x4DA5 JUMP JUMPDEST PUSH1 0x0 SLOAD PUSH2 0x100 SWAP1 DIV PUSH1 0xFF AND PUSH2 0x4C55 JUMPI PUSH1 0x40 MLOAD PUSH3 0x461BCD PUSH1 0xE5 SHL DUP2 MSTORE PUSH1 0x4 ADD PUSH2 0x148D SWAP1 PUSH2 0x54C6 JUMP JUMPDEST PUSH1 0xCA DUP1 SLOAD PUSH1 0x1 PUSH1 0x1 PUSH1 0xA0 SHL SUB SWAP1 SWAP4 AND PUSH3 0x10000 MUL PUSH3 0x10000 PUSH1 0x1 PUSH1 0xB0 SHL SUB NOT SWAP3 ISZERO ISZERO SWAP3 SWAP1 SWAP3 AND PUSH2 0xFF01 PUSH1 0x1 PUSH1 0xB0 SHL SUB NOT SWAP1 SWAP4 AND SWAP3 SWAP1 SWAP3 OR OR SWAP1 SSTORE JUMP JUMPDEST PUSH8 0xDE0B6B3A7640000 DUP2 GT ISZERO PUSH2 0x152A JUMPI PUSH1 0x40 MLOAD PUSH4 0x2A9FFAB7 PUSH1 0xE2 SHL DUP2 MSTORE PUSH1 0x4 ADD PUSH1 0x40 MLOAD DUP1 SWAP2 SUB SWAP1 REVERT JUMPDEST PUSH1 0x0 PUSH2 0x4D0F DUP3 PUSH1 0x40 MLOAD DUP1 PUSH1 0x40 ADD PUSH1 0x40 MSTORE DUP1 PUSH1 0x20 DUP2 MSTORE PUSH1 0x20 ADD PUSH32 0x5361666545524332303A206C6F772D6C6576656C2063616C6C206661696C6564 DUP2 MSTORE POP DUP6 PUSH1 0x1 PUSH1 0x1 PUSH1 0xA0 SHL SUB AND PUSH2 0x4DCC SWAP1 SWAP3 SWAP2 SWAP1 PUSH4 0xFFFFFFFF AND JUMP JUMPDEST DUP1 MLOAD SWAP1 SWAP2 POP ISZERO PUSH2 0x3330 JUMPI DUP1 DUP1 PUSH1 0x20 ADD SWAP1 MLOAD DUP2 ADD SWAP1 PUSH2 0x4D2D SWAP2 SWAP1 PUSH2 0x53F9 JUMP JUMPDEST PUSH2 0x3330 JUMPI PUSH1 0x40 MLOAD PUSH3 0x461BCD PUSH1 0xE5 SHL DUP2 MSTORE PUSH1 0x20 PUSH1 0x4 DUP3 ADD MSTORE PUSH1 0x2A PUSH1 0x24 DUP3 ADD MSTORE PUSH32 0x5361666545524332303A204552433230206F7065726174696F6E20646964206E PUSH1 0x44 DUP3 ADD MSTORE PUSH10 0x1BDD081CDD58D8D95959 PUSH1 0xB2 SHL PUSH1 0x64 DUP3 ADD MSTORE PUSH1 0x84 ADD PUSH2 0x148D JUMP JUMPDEST PUSH1 0x60 DUP4 ISZERO PUSH2 0x4D9B JUMPI POP DUP2 PUSH2 0x1263 JUMP JUMPDEST PUSH2 0x1263 DUP4 DUP4 PUSH2 0x4DDB JUMP JUMPDEST PUSH1 0x0 SLOAD PUSH2 0x100 SWAP1 DIV PUSH1 0xFF AND PUSH2 0x212D JUMPI PUSH1 0x40 MLOAD PUSH3 0x461BCD PUSH1 0xE5 SHL DUP2 MSTORE PUSH1 0x4 ADD PUSH2 0x148D SWAP1 PUSH2 0x54C6 JUMP JUMPDEST PUSH1 0x60 PUSH2 0x1260 DUP5 DUP5 PUSH1 0x0 DUP6 PUSH2 0x4E05 JUMP JUMPDEST DUP2 MLOAD ISZERO PUSH2 0x4DEB JUMPI DUP2 MLOAD DUP1 DUP4 PUSH1 0x20 ADD REVERT JUMPDEST DUP1 PUSH1 0x40 MLOAD PUSH3 0x461BCD PUSH1 0xE5 SHL DUP2 MSTORE PUSH1 0x4 ADD PUSH2 0x148D SWAP2 SWAP1 PUSH2 0x55EE JUMP JUMPDEST PUSH1 0x60 DUP3 SELFBALANCE LT ISZERO PUSH2 0x4E66 JUMPI PUSH1 0x40 MLOAD PUSH3 0x461BCD PUSH1 0xE5 SHL DUP2 MSTORE PUSH1 0x20 PUSH1 0x4 DUP3 ADD MSTORE PUSH1 0x26 PUSH1 0x24 DUP3 ADD MSTORE PUSH32 0x416464726573733A20696E73756666696369656E742062616C616E636520666F PUSH1 0x44 DUP3 ADD MSTORE PUSH6 0x1C8818D85B1B PUSH1 0xD2 SHL PUSH1 0x64 DUP3 ADD MSTORE PUSH1 0x84 ADD PUSH2 0x148D JUMP JUMPDEST PUSH1 0x0 DUP1 DUP7 PUSH1 0x1 PUSH1 0x1 PUSH1 0xA0 SHL SUB AND DUP6 DUP8 PUSH1 0x40 MLOAD PUSH2 0x4E82 SWAP2 SWAP1 PUSH2 0x55D2 JUMP JUMPDEST PUSH1 0x0 PUSH1 0x40 MLOAD DUP1 DUP4 SUB DUP2 DUP6 DUP8 GAS CALL SWAP3 POP POP POP RETURNDATASIZE DUP1 PUSH1 0x0 DUP2 EQ PUSH2 0x4EBF JUMPI PUSH1 0x40 MLOAD SWAP2 POP PUSH1 0x1F NOT PUSH1 0x3F RETURNDATASIZE ADD AND DUP3 ADD PUSH1 0x40 MSTORE RETURNDATASIZE DUP3 MSTORE RETURNDATASIZE PUSH1 0x0 PUSH1 0x20 DUP5 ADD RETURNDATACOPY PUSH2 0x4EC4 JUMP JUMPDEST PUSH1 0x60 SWAP2 POP JUMPDEST POP SWAP2 POP SWAP2 POP PUSH2 0x4ED5 DUP8 DUP4 DUP4 DUP8 PUSH2 0x4EE0 JUMP JUMPDEST SWAP8 SWAP7 POP POP POP POP POP POP POP JUMP JUMPDEST PUSH1 0x60 DUP4 ISZERO PUSH2 0x4F4F JUMPI DUP3 MLOAD PUSH1 0x0 SUB PUSH2 0x4F48 JUMPI PUSH1 0x1 PUSH1 0x1 PUSH1 0xA0 SHL SUB DUP6 AND EXTCODESIZE PUSH2 0x4F48 JUMPI PUSH1 0x40 MLOAD PUSH3 0x461BCD PUSH1 0xE5 SHL DUP2 MSTORE PUSH1 0x20 PUSH1 0x4 DUP3 ADD MSTORE PUSH1 0x1D PUSH1 0x24 DUP3 ADD MSTORE PUSH32 0x416464726573733A2063616C6C20746F206E6F6E2D636F6E7472616374000000 PUSH1 0x44 DUP3 ADD MSTORE PUSH1 0x64 ADD PUSH2 0x148D JUMP JUMPDEST POP DUP2 PUSH2 0x1661 JUMP JUMPDEST PUSH2 0x1661 DUP4 DUP4 PUSH2 0x4DDB JUMP JUMPDEST PUSH1 0x1 PUSH1 0x1 PUSH1 0xA0 SHL SUB DUP2 AND DUP2 EQ PUSH2 0x152A JUMPI PUSH1 0x0 DUP1 REVERT JUMPDEST PUSH1 0x0 DUP1 PUSH1 0x0 DUP1 PUSH1 0x0 PUSH1 0xA0 DUP7 DUP9 SUB SLT ISZERO PUSH2 0x4F86 JUMPI PUSH1 0x0 DUP1 REVERT JUMPDEST DUP6 CALLDATALOAD SWAP5 POP PUSH1 0x20 DUP7 ADD CALLDATALOAD SWAP4 POP PUSH1 0x40 DUP7 ADD CALLDATALOAD SWAP3 POP PUSH1 0x60 DUP7 ADD CALLDATALOAD SWAP2 POP PUSH1 0x80 DUP7 ADD CALLDATALOAD PUSH2 0x4FAD DUP2 PUSH2 0x4F59 JUMP JUMPDEST DUP1 SWAP2 POP POP SWAP3 SWAP6 POP SWAP3 SWAP6 SWAP1 SWAP4 POP JUMP JUMPDEST PUSH1 0x0 PUSH1 0x20 DUP3 DUP5 SUB SLT ISZERO PUSH2 0x4FCD JUMPI PUSH1 0x0 DUP1 REVERT JUMPDEST POP CALLDATALOAD SWAP2 SWAP1 POP JUMP JUMPDEST PUSH1 0x0 DUP1 PUSH1 0x40 DUP4 DUP6 SUB SLT ISZERO PUSH2 0x4FE7 JUMPI PUSH1 0x0 DUP1 REVERT JUMPDEST POP POP DUP1 CALLDATALOAD SWAP3 PUSH1 0x20 SWAP1 SWAP2 ADD CALLDATALOAD SWAP2 POP JUMP JUMPDEST PUSH1 0x0 PUSH1 0x20 DUP3 DUP5 SUB SLT ISZERO PUSH2 0x5008 JUMPI PUSH1 0x0 DUP1 REVERT JUMPDEST DUP2 CALLDATALOAD PUSH2 0x1263 DUP2 PUSH2 0x4F59 JUMP JUMPDEST PUSH1 0x0 DUP1 PUSH1 0x0 DUP1 PUSH1 0x80 DUP6 DUP8 SUB SLT ISZERO PUSH2 0x5029 JUMPI PUSH1 0x0 DUP1 REVERT JUMPDEST POP POP DUP3 CALLDATALOAD SWAP5 PUSH1 0x20 DUP5 ADD CALLDATALOAD SWAP5 POP PUSH1 0x40 DUP5 ADD CALLDATALOAD SWAP4 PUSH1 0x60 ADD CALLDATALOAD SWAP3 POP SWAP1 POP JUMP JUMPDEST PUSH1 0x0 DUP1 PUSH1 0x0 PUSH1 0x60 DUP5 DUP7 SUB SLT ISZERO PUSH2 0x505A JUMPI PUSH1 0x0 DUP1 REVERT JUMPDEST POP POP DUP2 CALLDATALOAD SWAP4 PUSH1 0x20 DUP4 ADD CALLDATALOAD SWAP4 POP PUSH1 0x40 SWAP1 SWAP3 ADD CALLDATALOAD SWAP2 SWAP1 POP JUMP JUMPDEST PUSH1 0x0 DUP1 PUSH1 0x0 DUP1 PUSH1 0x80 DUP6 DUP8 SUB SLT ISZERO PUSH2 0x5087 JUMPI PUSH1 0x0 DUP1 REVERT JUMPDEST DUP5 CALLDATALOAD SWAP4 POP PUSH1 0x20 DUP6 ADD CALLDATALOAD SWAP3 POP PUSH1 0x40 DUP6 ADD CALLDATALOAD SWAP2 POP PUSH1 0x60 DUP6 ADD CALLDATALOAD PUSH2 0x50A7 DUP2 PUSH2 0x4F59 JUMP JUMPDEST SWAP4 SWAP7 SWAP3 SWAP6 POP SWAP1 SWAP4 POP POP JUMP JUMPDEST PUSH1 0x0 DUP1 PUSH1 0x0 DUP1 PUSH1 0x0 DUP1 PUSH1 0xC0 DUP8 DUP10 SUB SLT ISZERO PUSH2 0x50CB JUMPI PUSH1 0x0 DUP1 REVERT JUMPDEST DUP7 CALLDATALOAD SWAP6 POP PUSH1 0x20 DUP8 ADD CALLDATALOAD SWAP5 POP PUSH1 0x40 DUP8 ADD CALLDATALOAD SWAP4 POP PUSH1 0x60 DUP8 ADD CALLDATALOAD SWAP3 POP PUSH1 0x80 DUP8 ADD CALLDATALOAD SWAP2 POP PUSH1 0xA0 DUP8 ADD CALLDATALOAD PUSH2 0x50F9 DUP2 PUSH2 0x4F59 JUMP JUMPDEST DUP1 SWAP2 POP POP SWAP3 SWAP6 POP SWAP3 SWAP6 POP SWAP3 SWAP6 JUMP JUMPDEST DUP1 ISZERO ISZERO DUP2 EQ PUSH2 0x152A JUMPI PUSH1 0x0 DUP1 REVERT JUMPDEST PUSH1 0x0 PUSH1 0x20 DUP3 DUP5 SUB SLT ISZERO PUSH2 0x5127 JUMPI PUSH1 0x0 DUP1 REVERT JUMPDEST DUP2 CALLDATALOAD PUSH2 0x1263 DUP2 PUSH2 0x5107 JUMP JUMPDEST PUSH1 0x0 DUP1 PUSH1 0x0 PUSH1 0x60 DUP5 DUP7 SUB SLT ISZERO PUSH2 0x5147 JUMPI PUSH1 0x0 DUP1 REVERT JUMPDEST DUP4 CALLDATALOAD SWAP3 POP PUSH1 0x20 DUP5 ADD CALLDATALOAD SWAP2 POP PUSH1 0x40 DUP5 ADD CALLDATALOAD PUSH2 0x5160 DUP2 PUSH2 0x4F59 JUMP JUMPDEST DUP1 SWAP2 POP POP SWAP3 POP SWAP3 POP SWAP3 JUMP JUMPDEST PUSH4 0x4E487B71 PUSH1 0xE0 SHL PUSH1 0x0 MSTORE PUSH1 0x41 PUSH1 0x4 MSTORE PUSH1 0x24 PUSH1 0x0 REVERT JUMPDEST PUSH1 0x0 DUP1 PUSH1 0x40 DUP4 DUP6 SUB SLT ISZERO PUSH2 0x5194 JUMPI PUSH1 0x0 DUP1 REVERT JUMPDEST DUP3 CALLDATALOAD PUSH2 0x519F DUP2 PUSH2 0x4F59 JUMP JUMPDEST SWAP2 POP PUSH1 0x20 DUP4 ADD CALLDATALOAD PUSH8 0xFFFFFFFFFFFFFFFF DUP1 DUP3 GT ISZERO PUSH2 0x51BC JUMPI PUSH1 0x0 DUP1 REVERT JUMPDEST DUP2 DUP6 ADD SWAP2 POP DUP6 PUSH1 0x1F DUP4 ADD SLT PUSH2 0x51D0 JUMPI PUSH1 0x0 DUP1 REVERT JUMPDEST DUP2 CALLDATALOAD DUP2 DUP2 GT ISZERO PUSH2 0x51E2 JUMPI PUSH2 0x51E2 PUSH2 0x516B JUMP JUMPDEST PUSH1 0x40 MLOAD PUSH1 0x1F DUP3 ADD PUSH1 0x1F NOT SWAP1 DUP2 AND PUSH1 0x3F ADD AND DUP2 ADD SWAP1 DUP4 DUP3 GT DUP2 DUP4 LT OR ISZERO PUSH2 0x520A JUMPI PUSH2 0x520A PUSH2 0x516B JUMP JUMPDEST DUP2 PUSH1 0x40 MSTORE DUP3 DUP2 MSTORE DUP9 PUSH1 0x20 DUP5 DUP8 ADD ADD GT ISZERO PUSH2 0x5223 JUMPI PUSH1 0x0 DUP1 REVERT JUMPDEST DUP3 PUSH1 0x20 DUP7 ADD PUSH1 0x20 DUP4 ADD CALLDATACOPY PUSH1 0x0 PUSH1 0x20 DUP5 DUP4 ADD ADD MSTORE DUP1 SWAP6 POP POP POP POP POP POP SWAP3 POP SWAP3 SWAP1 POP JUMP JUMPDEST PUSH1 0x0 DUP1 PUSH1 0x40 DUP4 DUP6 SUB SLT ISZERO PUSH2 0x5258 JUMPI PUSH1 0x0 DUP1 REVERT JUMPDEST DUP3 CALLDATALOAD SWAP2 POP PUSH1 0x20 DUP4 ADD CALLDATALOAD PUSH2 0x526A DUP2 PUSH2 0x4F59 JUMP JUMPDEST DUP1 SWAP2 POP POP SWAP3 POP SWAP3 SWAP1 POP JUMP JUMPDEST PUSH1 0x0 PUSH2 0x280 DUP3 DUP5 SUB SLT ISZERO PUSH2 0x5288 JUMPI PUSH1 0x0 DUP1 REVERT JUMPDEST POP SWAP2 SWAP1 POP JUMP JUMPDEST PUSH1 0x0 DUP1 PUSH1 0x0 DUP1 PUSH1 0x0 PUSH1 0xA0 DUP7 DUP9 SUB SLT ISZERO PUSH2 0x52A6 JUMPI PUSH1 0x0 DUP1 REVERT JUMPDEST POP POP DUP4 CALLDATALOAD SWAP6 PUSH1 0x20 DUP6 ADD CALLDATALOAD SWAP6 POP PUSH1 0x40 DUP6 ADD CALLDATALOAD SWAP5 PUSH1 0x60 DUP2 ADD CALLDATALOAD SWAP5 POP PUSH1 0x80 ADD CALLDATALOAD SWAP3 POP SWAP1 POP JUMP JUMPDEST PUSH1 0x0 PUSH1 0xE0 DUP3 DUP5 SUB SLT ISZERO PUSH2 0x5288 JUMPI PUSH1 0x0 DUP1 REVERT JUMPDEST PUSH1 0x20 DUP1 DUP3 MSTORE PUSH1 0x2C SWAP1 DUP3 ADD MSTORE PUSH32 0x46756E6374696F6E206D7573742062652063616C6C6564207468726F75676820 PUSH1 0x40 DUP3 ADD MSTORE PUSH12 0x19195B1959D85D1958D85B1B PUSH1 0xA2 SHL PUSH1 0x60 DUP3 ADD MSTORE PUSH1 0x80 ADD SWAP1 JUMP JUMPDEST PUSH1 0x20 DUP1 DUP3 MSTORE PUSH1 0x2C SWAP1 DUP3 ADD MSTORE PUSH32 0x46756E6374696F6E206D7573742062652063616C6C6564207468726F75676820 PUSH1 0x40 DUP3 ADD MSTORE PUSH12 0x6163746976652070726F7879 PUSH1 0xA0 SHL PUSH1 0x60 DUP3 ADD MSTORE PUSH1 0x80 ADD SWAP1 JUMP JUMPDEST PUSH4 0x4E487B71 PUSH1 0xE0 SHL PUSH1 0x0 MSTORE PUSH1 0x11 PUSH1 0x4 MSTORE PUSH1 0x24 PUSH1 0x0 REVERT JUMPDEST PUSH1 0x0 DUP3 PUSH2 0x53A6 JUMPI PUSH4 0x4E487B71 PUSH1 0xE0 SHL PUSH1 0x0 MSTORE PUSH1 0x12 PUSH1 0x4 MSTORE PUSH1 0x24 PUSH1 0x0 REVERT JUMPDEST POP DIV SWAP1 JUMP JUMPDEST DUP1 DUP3 ADD DUP1 DUP3 GT ISZERO PUSH2 0x11E3 JUMPI PUSH2 0x11E3 PUSH2 0x5373 JUMP JUMPDEST PUSH4 0x4E487B71 PUSH1 0xE0 SHL PUSH1 0x0 MSTORE PUSH1 0x32 PUSH1 0x4 MSTORE PUSH1 0x24 PUSH1 0x0 REVERT JUMPDEST PUSH1 0x0 DUP1 PUSH1 0x40 DUP4 DUP6 SUB SLT ISZERO PUSH2 0x53E7 JUMPI PUSH1 0x0 DUP1 REVERT JUMPDEST DUP3 MLOAD SWAP2 POP PUSH1 0x20 DUP4 ADD MLOAD PUSH2 0x526A DUP2 PUSH2 0x5107 JUMP JUMPDEST PUSH1 0x0 PUSH1 0x20 DUP3 DUP5 SUB SLT ISZERO PUSH2 0x540B JUMPI PUSH1 0x0 DUP1 REVERT JUMPDEST DUP2 MLOAD PUSH2 0x1263 DUP2 PUSH2 0x5107 JUMP JUMPDEST PUSH1 0xE0 DUP2 ADD DUP3 CALLDATALOAD PUSH2 0x5425 DUP2 PUSH2 0x4F59 JUMP JUMPDEST PUSH1 0x1 PUSH1 0x1 PUSH1 0xA0 SHL SUB SWAP1 DUP2 AND DUP4 MSTORE PUSH1 0x20 DUP5 ADD CALLDATALOAD SWAP1 PUSH2 0x5441 DUP3 PUSH2 0x4F59 JUMP JUMPDEST DUP1 DUP3 AND PUSH1 0x20 DUP6 ADD MSTORE POP POP PUSH1 0x40 DUP4 ADD CALLDATALOAD PUSH1 0x40 DUP4 ADD MSTORE PUSH1 0x60 DUP4 ADD CALLDATALOAD PUSH1 0x60 DUP4 ADD MSTORE PUSH1 0x80 DUP4 ADD CALLDATALOAD PUSH1 0x80 DUP4 ADD MSTORE PUSH1 0xA0 DUP4 ADD CALLDATALOAD PUSH1 0xA0 DUP4 ADD MSTORE PUSH1 0xC0 DUP4 ADD CALLDATALOAD PUSH1 0xC0 DUP4 ADD MSTORE SWAP3 SWAP2 POP POP JUMP JUMPDEST DUP2 DUP2 SUB DUP2 DUP2 GT ISZERO PUSH2 0x11E3 JUMPI PUSH2 0x11E3 PUSH2 0x5373 JUMP JUMPDEST DUP1 DUP3 MUL DUP2 ISZERO DUP3 DUP3 DIV DUP5 EQ OR PUSH2 0x11E3 JUMPI PUSH2 0x11E3 PUSH2 0x5373 JUMP JUMPDEST PUSH1 0x0 PUSH1 0x20 DUP3 DUP5 SUB SLT ISZERO PUSH2 0x54BF JUMPI PUSH1 0x0 DUP1 REVERT JUMPDEST POP MLOAD SWAP2 SWAP1 POP JUMP JUMPDEST PUSH1 0x20 DUP1 DUP3 MSTORE PUSH1 0x2B SWAP1 DUP3 ADD MSTORE PUSH32 0x496E697469616C697A61626C653A20636F6E7472616374206973206E6F742069 PUSH1 0x40 DUP3 ADD MSTORE PUSH11 0x6E697469616C697A696E67 PUSH1 0xA8 SHL PUSH1 0x60 DUP3 ADD MSTORE PUSH1 0x80 ADD SWAP1 JUMP JUMPDEST DUP1 DUP3 ADD DUP3 DUP2 SLT PUSH1 0x0 DUP4 SLT DUP1 ISZERO DUP3 AND DUP3 ISZERO DUP3 AND OR ISZERO PUSH2 0x5531 JUMPI PUSH2 0x5531 PUSH2 0x5373 JUMP JUMPDEST POP POP SWAP3 SWAP2 POP POP JUMP JUMPDEST PUSH1 0x0 PUSH1 0x40 DUP3 ADD DUP5 DUP4 MSTORE PUSH1 0x20 PUSH1 0x40 DUP2 DUP6 ADD MSTORE DUP2 DUP6 MLOAD DUP1 DUP5 MSTORE PUSH1 0x60 DUP7 ADD SWAP2 POP DUP3 DUP8 ADD SWAP4 POP PUSH1 0x0 JUMPDEST DUP2 DUP2 LT ISZERO PUSH2 0x557A JUMPI DUP5 MLOAD DUP4 MSTORE SWAP4 DUP4 ADD SWAP4 SWAP2 DUP4 ADD SWAP2 PUSH1 0x1 ADD PUSH2 0x555E JUMP JUMPDEST POP SWAP1 SWAP8 SWAP7 POP POP POP POP POP POP POP JUMP JUMPDEST DUP2 DUP2 SUB PUSH1 0x0 DUP4 SLT DUP1 ISZERO DUP4 DUP4 SGT AND DUP4 DUP4 SLT DUP3 AND OR ISZERO PUSH2 0x55A7 JUMPI PUSH2 0x55A7 PUSH2 0x5373 JUMP JUMPDEST POP SWAP3 SWAP2 POP POP JUMP JUMPDEST PUSH1 0x0 JUMPDEST DUP4 DUP2 LT ISZERO PUSH2 0x55C9 JUMPI DUP2 DUP2 ADD MLOAD DUP4 DUP3 ADD MSTORE PUSH1 0x20 ADD PUSH2 0x55B1 JUMP JUMPDEST POP POP PUSH1 0x0 SWAP2 ADD MSTORE JUMP JUMPDEST PUSH1 0x0 DUP3 MLOAD PUSH2 0x55E4 DUP2 DUP5 PUSH1 0x20 DUP8 ADD PUSH2 0x55AE JUMP JUMPDEST SWAP2 SWAP1 SWAP2 ADD SWAP3 SWAP2 POP POP JUMP JUMPDEST PUSH1 0x20 DUP2 MSTORE PUSH1 0x0 DUP3 MLOAD DUP1 PUSH1 0x20 DUP5 ADD MSTORE PUSH2 0x560D DUP2 PUSH1 0x40 DUP6 ADD PUSH1 0x20 DUP8 ADD PUSH2 0x55AE JUMP JUMPDEST PUSH1 0x1F ADD PUSH1 0x1F NOT AND SWAP2 SWAP1 SWAP2 ADD PUSH1 0x40 ADD SWAP3 SWAP2 POP POP JUMP INVALID CALLDATASIZE ADDMOD SWAP5 LOG1 EXTCODESIZE LOG1 LOG3 0x21 MOD PUSH8 0xC828492DB98DCA3E KECCAK256 PUSH23 0xCC3735A920A3CA505D382BBC416464726573733A206C6F PUSH24 0x2D6C6576656C2064656C65676174652063616C6C20666169 PUSH13 0x6564A26469706673582212206B SWAP4 0xF8 EQ DUP5 PUSH17 0xC05D52CA24714EC4348D9585719D5B70AF 0xC 0xCE SHR 0xE4 0xBD SIGNEXTEND MUL PUSH12 0xAA64736F6C63430008110033 "
    },
    "gasEstimates": {
      "creation": {
        "codeDepositCost": "4434800",
        "executionCost": "infinite",
        "totalCost": "infinite"
      },
      "external": {
        "addPeggedToken((address,address,uint256,uint256,uint256,uint256,uint256))": "infinite",
        "appreciationFactor()": "2405",
        "bes()": "2385",
        "bns()": "2364",
        "calcCtargemaCA()": "infinite",
        "changeGovernor(address)": "infinite",
        "editPeggedToken((address,address,uint256,uint256,uint256,uint256,uint256))": "infinite",
        "emaCalculationBlockSpan()": "2385",
        "evalLiquidation()": "infinite",
        "execSettlement()": "infinite",
        "feeRetainer()": "2429",
        "getBts()": "4669",
        "getCglb()": "infinite",
        "getCustomMockValue()": "4712",
        "getLeverageTC()": "infinite",
        "getPACtp(uint256)": "infinite",
        "getPTCac()": "infinite",
        "getQACforRedeemTP(uint256,uint256)": "infinite",
        "getTCAvailableToRedeem()": "infinite",
        "getTPAvailableToMint(uint256)": "infinite",
        "getTotalACavailable()": "infinite",
        "governor()": "2495",
        "initialize((((address,address,address,uint256,uint256,uint256,uint256,uint256,uint256,uint256,uint256,uint256,uint256,uint256,uint256),address,address,uint256,uint256),address))": "infinite",
        "initializeMock()": "22372",
        "isLiquidationReached()": "infinite",
        "liqEnabled()": "2443",
        "liqRedeemTP(uint256)": "infinite",
        "liqRedeemTPto(uint256,address)": "infinite",
        "liqThrld()": "2385",
        "liquidated()": "2412",
        "makeStoppable()": "infinite",
        "makeUnstoppable()": "infinite",
        "mintTC(uint256,uint256)": "infinite",
        "mintTCandTP(uint256,uint256,uint256)": "infinite",
        "mintTCandTPFee()": "2452",
        "mintTCandTPto(uint256,uint256,uint256,address)": "infinite",
        "mintTCto(uint256,uint256,address)": "infinite",
        "mintTP(uint256,uint256,uint256)": "infinite",
        "mintTPto(uint256,uint256,uint256,address)": "infinite",
        "mocAppreciationBeneficiaryAddress()": "2449",
        "mocFeeFlowAddress()": "2515",
        "nACcb()": "2428",
        "nTCcb()": "2474",
        "newVariable()": "2407",
        "nextEmaCalculation()": "2475",
        "pause()": "31939",
        "paused()": "2405",
        "pauser()": "2459",
        "pegContainer(uint256)": "6877",
        "peggedTokenIndex(address)": "4747",
        "protThrld()": "2450",
        "proxiableUUID()": "infinite",
        "redeemTC(uint256,uint256)": "infinite",
        "redeemTCandTP(uint256,uint256,uint256,uint256)": "infinite",
        "redeemTCandTPFee()": "2383",
        "redeemTCandTPto(uint256,uint256,uint256,uint256,address)": "infinite",
        "redeemTCto(uint256,uint256,address)": "infinite",
        "redeemTP(uint256,uint256,uint256)": "infinite",
        "redeemTPto(uint256,uint256,uint256,address)": "infinite",
        "refreshACBalance()": "infinite",
        "setAppreciationFactor(uint256)": "infinite",
        "setBes(uint256)": "infinite",
        "setEmaCalculationBlockSpan(uint256)": "infinite",
        "setFeeRetainer(uint256)": "infinite",
        "setLiqEnabled(bool)": "infinite",
        "setLiqThrld(uint256)": "infinite",
        "setMintTCandTPFee(uint256)": "infinite",
        "setMocAppreciationBeneficiaryAddress(address)": "infinite",
        "setMocFeeFlowAddress(address)": "infinite",
        "setPauser(address)": "infinite",
        "setProtThrld(uint256)": "infinite",
        "setRedeemTCandTPFee(uint256)": "infinite",
        "setSuccessFee(uint256)": "infinite",
        "setSwapTCforTPFee(uint256)": "infinite",
        "setSwapTPforTCFee(uint256)": "infinite",
        "setSwapTPforTPFee(uint256)": "infinite",
        "setTcMintFee(uint256)": "infinite",
        "setTcRedeemFee(uint256)": "infinite",
        "shouldCalculateEma()": "2439",
        "stoppable()": "2400",
        "successFee()": "2386",
        "swapTCforTP(uint256,uint256,uint256,uint256)": "infinite",
        "swapTCforTPFee()": "2430",
        "swapTCforTPto(uint256,uint256,uint256,uint256,address)": "infinite",
        "swapTPforTC(uint256,uint256,uint256,uint256)": "infinite",
        "swapTPforTCFee()": "2429",
        "swapTPforTCto(uint256,uint256,uint256,uint256,address)": "infinite",
        "swapTPforTP(uint256,uint256,uint256,uint256,uint256)": "infinite",
        "swapTPforTPFee()": "2452",
        "swapTPforTPto(uint256,uint256,uint256,uint256,uint256,address)": "infinite",
        "tcMintFee()": "2449",
        "tcRedeemFee()": "2450",
        "tcToken()": "2426",
        "tpCtarg(uint256)": "4731",
        "tpEma(uint256)": "6831",
        "tpMintFee(uint256)": "4686",
        "tpRedeemFee(uint256)": "4665",
        "tpTokens(uint256)": "4728",
        "unpause()": "29817",
        "updateEmas()": "infinite",
        "upgradeTo(address)": "infinite",
        "upgradeToAndCall(address,bytes)": "infinite"
      }
    },
    "methodIdentifiers": {
      "addPeggedToken((address,address,uint256,uint256,uint256,uint256,uint256))": "db796072",
      "appreciationFactor()": "fa6e83bd",
      "bes()": "4d977e78",
      "bns()": "1867e2f5",
      "calcCtargemaCA()": "662013f4",
      "changeGovernor(address)": "e4c0aaf4",
      "editPeggedToken((address,address,uint256,uint256,uint256,uint256,uint256))": "f26114aa",
      "emaCalculationBlockSpan()": "7a727fe8",
      "evalLiquidation()": "33421c38",
      "execSettlement()": "5c616a73",
      "feeRetainer()": "4f0f27ee",
      "getBts()": "e8859a15",
      "getCglb()": "826fcd58",
      "getCustomMockValue()": "57271f4d",
      "getLeverageTC()": "c039cc69",
      "getPACtp(uint256)": "904aa85b",
      "getPTCac()": "1fb0dda0",
      "getQACforRedeemTP(uint256,uint256)": "7820a328",
      "getTCAvailableToRedeem()": "4017936a",
      "getTPAvailableToMint(uint256)": "fa79589e",
      "getTotalACavailable()": "de8d520a",
      "governor()": "0c340a24",
      "initialize((((address,address,address,uint256,uint256,uint256,uint256,uint256,uint256,uint256,uint256,uint256,uint256,uint256,uint256),address,address,uint256,uint256),address))": "bbba7ed9",
      "initializeMock()": "5e2a6065",
      "isLiquidationReached()": "9ad6659d",
      "liqEnabled()": "e7c25978",
      "liqRedeemTP(uint256)": "9195c85b",
      "liqRedeemTPto(uint256,address)": "5d65d045",
      "liqThrld()": "8cfa4241",
      "liquidated()": "23b98cde",
      "makeStoppable()": "68274357",
      "makeUnstoppable()": "5210570c",
      "mintTC(uint256,uint256)": "0bb7f608",
      "mintTCandTP(uint256,uint256,uint256)": "f21fcc00",
      "mintTCandTPFee()": "79f9a91c",
      "mintTCandTPto(uint256,uint256,uint256,address)": "1a89b8f2",
      "mintTCto(uint256,uint256,address)": "4310adc6",
      "mintTP(uint256,uint256,uint256)": "181770da",
      "mintTPto(uint256,uint256,uint256,address)": "4cffbaab",
      "mocAppreciationBeneficiaryAddress()": "4e1f907a",
      "mocFeeFlowAddress()": "9853c35a",
      "nACcb()": "f30b5614",
      "nTCcb()": "7a193c31",
      "newVariable()": "8d7a72f3",
      "nextEmaCalculation()": "0c36d897",
      "pause()": "8456cb59",
      "paused()": "5c975abb",
      "pauser()": "9fd0506d",
      "pegContainer(uint256)": "4b746001",
      "peggedTokenIndex(address)": "9cabfc00",
      "protThrld()": "6b5488df",
      "proxiableUUID()": "52d1902d",
      "redeemTC(uint256,uint256)": "9abb14c9",
      "redeemTCandTP(uint256,uint256,uint256,uint256)": "17574bc5",
      "redeemTCandTPFee()": "f375cfba",
      "redeemTCandTPto(uint256,uint256,uint256,uint256,address)": "9bdd7cce",
      "redeemTCto(uint256,uint256,address)": "e4012945",
      "redeemTP(uint256,uint256,uint256)": "17df0ab8",
      "redeemTPto(uint256,uint256,uint256,address)": "54a73c62",
      "refreshACBalance()": "e23c135c",
      "setAppreciationFactor(uint256)": "01dde6ef",
      "setBes(uint256)": "c84353c9",
      "setEmaCalculationBlockSpan(uint256)": "3bc4ac0a",
      "setFeeRetainer(uint256)": "7750ba0c",
      "setLiqEnabled(bool)": "1fe6a7ad",
      "setLiqThrld(uint256)": "2c43bd3b",
      "setMintTCandTPFee(uint256)": "2069f753",
      "setMocAppreciationBeneficiaryAddress(address)": "27eab2a1",
      "setMocFeeFlowAddress(address)": "0d6ac463",
      "setPauser(address)": "2d88af4a",
      "setProtThrld(uint256)": "7cba2383",
      "setRedeemTCandTPFee(uint256)": "7a4ff1d9",
      "setSuccessFee(uint256)": "becaca6b",
      "setSwapTCforTPFee(uint256)": "7af5758c",
      "setSwapTPforTCFee(uint256)": "0e0a8fd2",
      "setSwapTPforTPFee(uint256)": "70713468",
      "setTcMintFee(uint256)": "f2808778",
      "setTcRedeemFee(uint256)": "c00f538d",
      "shouldCalculateEma()": "a8e9ac30",
      "stoppable()": "bb4872de",
      "successFee()": "7554fffd",
      "swapTCforTP(uint256,uint256,uint256,uint256)": "bb2ac788",
      "swapTCforTPFee()": "2a20d57d",
      "swapTCforTPto(uint256,uint256,uint256,uint256,address)": "01cded9c",
      "swapTPforTC(uint256,uint256,uint256,uint256)": "1301a8f0",
      "swapTPforTCFee()": "333431fd",
      "swapTPforTCto(uint256,uint256,uint256,uint256,address)": "4454ae8b",
      "swapTPforTP(uint256,uint256,uint256,uint256,uint256)": "ceecc55a",
      "swapTPforTPFee()": "407f0e34",
      "swapTPforTPto(uint256,uint256,uint256,uint256,uint256,address)": "1f1138a6",
      "tcMintFee()": "fda70f8b",
      "tcRedeemFee()": "aea038dc",
      "tcToken()": "60009e0b",
      "tpCtarg(uint256)": "7d8e0314",
      "tpEma(uint256)": "e6b1627c",
      "tpMintFee(uint256)": "de08160f",
      "tpRedeemFee(uint256)": "5241271c",
      "tpTokens(uint256)": "01f1b684",
      "unpause()": "3f4ba83a",
      "updateEmas()": "d1a0faa0",
      "upgradeTo(address)": "3659cfe6",
      "upgradeToAndCall(address,bytes)": "4f1ef286"
    }
  },
  "storageLayout": {
    "storage": [
      {
        "astId": 974,
        "contract": "contracts/mocks/upgradeability/MocUpgradeMocks.sol:MocCARC20Mock",
        "label": "_initialized",
        "offset": 0,
        "slot": "0",
        "type": "t_uint8"
      },
      {
        "astId": 977,
        "contract": "contracts/mocks/upgradeability/MocUpgradeMocks.sol:MocCARC20Mock",
        "label": "_initializing",
        "offset": 1,
        "slot": "0",
        "type": "t_bool"
      },
      {
        "astId": 956,
        "contract": "contracts/mocks/upgradeability/MocUpgradeMocks.sol:MocCARC20Mock",
        "label": "__gap",
        "offset": 0,
        "slot": "1",
        "type": "t_array(t_uint256)50_storage"
      },
      {
        "astId": 1271,
        "contract": "contracts/mocks/upgradeability/MocUpgradeMocks.sol:MocCARC20Mock",
        "label": "__gap",
        "offset": 0,
        "slot": "51",
        "type": "t_array(t_uint256)50_storage"
      },
      {
        "astId": 19742,
        "contract": "contracts/mocks/upgradeability/MocUpgradeMocks.sol:MocCARC20Mock",
        "label": "__gap",
        "offset": 0,
        "slot": "101",
        "type": "t_array(t_uint256)50_storage"
      },
      {
        "astId": 17857,
        "contract": "contracts/mocks/upgradeability/MocUpgradeMocks.sol:MocCARC20Mock",
        "label": "governor",
        "offset": 0,
        "slot": "151",
        "type": "t_contract(IGovernor)18612"
      },
      {
        "astId": 17928,
        "contract": "contracts/mocks/upgradeability/MocUpgradeMocks.sol:MocCARC20Mock",
        "label": "__gap",
        "offset": 0,
        "slot": "152",
        "type": "t_array(t_uint256)50_storage"
      },
      {
        "astId": 17992,
        "contract": "contracts/mocks/upgradeability/MocUpgradeMocks.sol:MocCARC20Mock",
        "label": "stoppable",
        "offset": 0,
        "slot": "202",
        "type": "t_bool"
      },
      {
        "astId": 17994,
        "contract": "contracts/mocks/upgradeability/MocUpgradeMocks.sol:MocCARC20Mock",
        "label": "_paused",
        "offset": 1,
        "slot": "202",
        "type": "t_bool"
      },
      {
        "astId": 17996,
        "contract": "contracts/mocks/upgradeability/MocUpgradeMocks.sol:MocCARC20Mock",
        "label": "pauser",
        "offset": 2,
        "slot": "202",
        "type": "t_address"
      },
      {
        "astId": 18155,
        "contract": "contracts/mocks/upgradeability/MocUpgradeMocks.sol:MocCARC20Mock",
        "label": "__gap",
        "offset": 0,
        "slot": "203",
        "type": "t_array(t_uint256)50_storage"
      },
      {
        "astId": 17975,
        "contract": "contracts/mocks/upgradeability/MocUpgradeMocks.sol:MocCARC20Mock",
        "label": "__gap",
        "offset": 0,
        "slot": "253",
        "type": "t_array(t_uint256)50_storage"
      },
      {
        "astId": 11081,
        "contract": "contracts/mocks/upgradeability/MocUpgradeMocks.sol:MocCARC20Mock",
        "label": "nACcb",
        "offset": 0,
        "slot": "303",
        "type": "t_uint256"
      },
      {
        "astId": 11083,
        "contract": "contracts/mocks/upgradeability/MocUpgradeMocks.sol:MocCARC20Mock",
        "label": "nACioucb",
        "offset": 0,
        "slot": "304",
        "type": "t_uint256"
      },
      {
        "astId": 11086,
        "contract": "contracts/mocks/upgradeability/MocUpgradeMocks.sol:MocCARC20Mock",
        "label": "tcToken",
        "offset": 0,
        "slot": "305",
        "type": "t_contract(MocTC)19649"
      },
      {
        "astId": 11088,
        "contract": "contracts/mocks/upgradeability/MocUpgradeMocks.sol:MocCARC20Mock",
        "label": "nTCcb",
        "offset": 0,
        "slot": "306",
        "type": "t_uint256"
      },
      {
        "astId": 11092,
        "contract": "contracts/mocks/upgradeability/MocUpgradeMocks.sol:MocCARC20Mock",
        "label": "tpTokens",
        "offset": 0,
        "slot": "307",
        "type": "t_array(t_contract(IMocRC20)18643)dyn_storage"
      },
      {
        "astId": 11097,
        "contract": "contracts/mocks/upgradeability/MocUpgradeMocks.sol:MocCARC20Mock",
        "label": "peggedTokenIndex",
        "offset": 0,
        "slot": "308",
        "type": "t_mapping(t_address,t_struct(PeggedTokenIndex)11048_storage)"
      },
      {
        "astId": 11101,
        "contract": "contracts/mocks/upgradeability/MocUpgradeMocks.sol:MocCARC20Mock",
        "label": "pegContainer",
        "offset": 0,
        "slot": "309",
        "type": "t_array(t_struct(PegContainerItem)11043_storage)dyn_storage"
      },
      {
        "astId": 11104,
        "contract": "contracts/mocks/upgradeability/MocUpgradeMocks.sol:MocCARC20Mock",
        "label": "tpLiqPrices",
        "offset": 0,
        "slot": "310",
        "type": "t_array(t_uint256)dyn_storage"
      },
      {
        "astId": 11106,
        "contract": "contracts/mocks/upgradeability/MocUpgradeMocks.sol:MocCARC20Mock",
        "label": "successFee",
        "offset": 0,
        "slot": "311",
        "type": "t_uint256"
      },
      {
        "astId": 11108,
        "contract": "contracts/mocks/upgradeability/MocUpgradeMocks.sol:MocCARC20Mock",
        "label": "appreciationFactor",
        "offset": 0,
        "slot": "312",
        "type": "t_uint256"
      },
      {
        "astId": 11110,
        "contract": "contracts/mocks/upgradeability/MocUpgradeMocks.sol:MocCARC20Mock",
        "label": "feeRetainer",
        "offset": 0,
        "slot": "313",
        "type": "t_uint256"
      },
      {
        "astId": 11112,
        "contract": "contracts/mocks/upgradeability/MocUpgradeMocks.sol:MocCARC20Mock",
        "label": "tcMintFee",
        "offset": 0,
        "slot": "314",
        "type": "t_uint256"
      },
      {
        "astId": 11114,
        "contract": "contracts/mocks/upgradeability/MocUpgradeMocks.sol:MocCARC20Mock",
        "label": "tcRedeemFee",
        "offset": 0,
        "slot": "315",
        "type": "t_uint256"
      },
      {
        "astId": 11116,
        "contract": "contracts/mocks/upgradeability/MocUpgradeMocks.sol:MocCARC20Mock",
        "label": "swapTPforTPFee",
        "offset": 0,
        "slot": "316",
        "type": "t_uint256"
      },
      {
        "astId": 11118,
        "contract": "contracts/mocks/upgradeability/MocUpgradeMocks.sol:MocCARC20Mock",
        "label": "swapTPforTCFee",
        "offset": 0,
        "slot": "317",
        "type": "t_uint256"
      },
      {
        "astId": 11120,
        "contract": "contracts/mocks/upgradeability/MocUpgradeMocks.sol:MocCARC20Mock",
        "label": "swapTCforTPFee",
        "offset": 0,
        "slot": "318",
        "type": "t_uint256"
      },
      {
        "astId": 11122,
        "contract": "contracts/mocks/upgradeability/MocUpgradeMocks.sol:MocCARC20Mock",
        "label": "redeemTCandTPFee",
        "offset": 0,
        "slot": "319",
        "type": "t_uint256"
      },
      {
        "astId": 11124,
        "contract": "contracts/mocks/upgradeability/MocUpgradeMocks.sol:MocCARC20Mock",
        "label": "mintTCandTPFee",
        "offset": 0,
        "slot": "320",
        "type": "t_uint256"
      },
      {
        "astId": 11127,
        "contract": "contracts/mocks/upgradeability/MocUpgradeMocks.sol:MocCARC20Mock",
        "label": "tpMintFee",
        "offset": 0,
        "slot": "321",
        "type": "t_array(t_uint256)dyn_storage"
      },
      {
        "astId": 11130,
        "contract": "contracts/mocks/upgradeability/MocUpgradeMocks.sol:MocCARC20Mock",
        "label": "tpRedeemFee",
        "offset": 0,
        "slot": "322",
        "type": "t_array(t_uint256)dyn_storage"
      },
      {
        "astId": 11132,
        "contract": "contracts/mocks/upgradeability/MocUpgradeMocks.sol:MocCARC20Mock",
        "label": "mocFeeFlowAddress",
        "offset": 0,
        "slot": "323",
        "type": "t_address"
      },
      {
        "astId": 11134,
        "contract": "contracts/mocks/upgradeability/MocUpgradeMocks.sol:MocCARC20Mock",
        "label": "mocAppreciationBeneficiaryAddress",
        "offset": 0,
        "slot": "324",
        "type": "t_address"
      },
      {
        "astId": 11137,
        "contract": "contracts/mocks/upgradeability/MocUpgradeMocks.sol:MocCARC20Mock",
        "label": "tpCtarg",
        "offset": 0,
        "slot": "325",
        "type": "t_array(t_uint256)dyn_storage"
      },
      {
        "astId": 11139,
        "contract": "contracts/mocks/upgradeability/MocUpgradeMocks.sol:MocCARC20Mock",
        "label": "protThrld",
        "offset": 0,
        "slot": "326",
        "type": "t_uint256"
      },
      {
        "astId": 11141,
        "contract": "contracts/mocks/upgradeability/MocUpgradeMocks.sol:MocCARC20Mock",
        "label": "liqThrld",
        "offset": 0,
        "slot": "327",
        "type": "t_uint256"
      },
      {
        "astId": 11143,
        "contract": "contracts/mocks/upgradeability/MocUpgradeMocks.sol:MocCARC20Mock",
        "label": "liqEnabled",
        "offset": 0,
        "slot": "328",
        "type": "t_bool"
      },
      {
        "astId": 11145,
        "contract": "contracts/mocks/upgradeability/MocUpgradeMocks.sol:MocCARC20Mock",
        "label": "liquidated",
        "offset": 1,
        "slot": "328",
        "type": "t_bool"
      },
      {
        "astId": 11148,
        "contract": "contracts/mocks/upgradeability/MocUpgradeMocks.sol:MocCARC20Mock",
        "label": "tpiou",
        "offset": 0,
        "slot": "329",
        "type": "t_array(t_int256)dyn_storage"
      },
      {
        "astId": 11151,
        "contract": "contracts/mocks/upgradeability/MocUpgradeMocks.sol:MocCARC20Mock",
        "label": "pACtpLstop",
        "offset": 0,
        "slot": "330",
        "type": "t_array(t_uint256)dyn_storage"
      },
      {
        "astId": 12310,
        "contract": "contracts/mocks/upgradeability/MocUpgradeMocks.sol:MocCARC20Mock",
        "label": "__gap",
        "offset": 0,
        "slot": "331",
        "type": "t_array(t_uint256)50_storage"
      },
      {
        "astId": 14970,
        "contract": "contracts/mocks/upgradeability/MocUpgradeMocks.sol:MocCARC20Mock",
        "label": "tpEma",
        "offset": 0,
        "slot": "381",
        "type": "t_array(t_struct(EmaItem)14966_storage)dyn_storage"
      },
      {
        "astId": 14972,
        "contract": "contracts/mocks/upgradeability/MocUpgradeMocks.sol:MocCARC20Mock",
        "label": "nextEmaCalculation",
        "offset": 0,
        "slot": "382",
        "type": "t_uint256"
      },
      {
        "astId": 14974,
        "contract": "contracts/mocks/upgradeability/MocUpgradeMocks.sol:MocCARC20Mock",
        "label": "emaCalculationBlockSpan",
        "offset": 0,
        "slot": "383",
        "type": "t_uint256"
      },
      {
        "astId": 15282,
        "contract": "contracts/mocks/upgradeability/MocUpgradeMocks.sol:MocCARC20Mock",
        "label": "__gap",
        "offset": 0,
        "slot": "384",
        "type": "t_array(t_uint256)50_storage"
      },
      {
        "astId": 15293,
        "contract": "contracts/mocks/upgradeability/MocUpgradeMocks.sol:MocCARC20Mock",
        "label": "bes",
        "offset": 0,
        "slot": "434",
        "type": "t_uint256"
      },
      {
        "astId": 15295,
        "contract": "contracts/mocks/upgradeability/MocUpgradeMocks.sol:MocCARC20Mock",
        "label": "bns",
        "offset": 0,
        "slot": "435",
        "type": "t_uint256"
      },
      {
        "astId": 15388,
        "contract": "contracts/mocks/upgradeability/MocUpgradeMocks.sol:MocCARC20Mock",
        "label": "__gap",
        "offset": 0,
        "slot": "436",
        "type": "t_array(t_uint256)50_storage"
      },
      {
        "astId": 1413,
        "contract": "contracts/mocks/upgradeability/MocUpgradeMocks.sol:MocCARC20Mock",
        "label": "_status",
        "offset": 0,
        "slot": "486",
        "type": "t_uint256"
      },
      {
        "astId": 1471,
        "contract": "contracts/mocks/upgradeability/MocUpgradeMocks.sol:MocCARC20Mock",
        "label": "__gap",
        "offset": 0,
        "slot": "487",
        "type": "t_array(t_uint256)49_storage"
      },
      {
        "astId": 14945,
        "contract": "contracts/mocks/upgradeability/MocUpgradeMocks.sol:MocCARC20Mock",
        "label": "__gap",
        "offset": 0,
        "slot": "536",
        "type": "t_array(t_uint256)50_storage"
      },
      {
        "astId": 10560,
        "contract": "contracts/mocks/upgradeability/MocUpgradeMocks.sol:MocCARC20Mock",
        "label": "acToken",
        "offset": 0,
        "slot": "586",
        "type": "t_contract(IERC20)5864"
      },
      {
        "astId": 11007,
        "contract": "contracts/mocks/upgradeability/MocUpgradeMocks.sol:MocCARC20Mock",
        "label": "__gap",
        "offset": 0,
        "slot": "587",
        "type": "t_array(t_uint256)50_storage"
      },
      {
        "astId": 19242,
        "contract": "contracts/mocks/upgradeability/MocUpgradeMocks.sol:MocCARC20Mock",
        "label": "newVariable",
        "offset": 0,
        "slot": "637",
        "type": "t_uint256"
      }
    ],
    "types": {
      "t_address": {
        "encoding": "inplace",
        "label": "address",
        "numberOfBytes": "20"
      },
      "t_array(t_contract(IMocRC20)18643)dyn_storage": {
        "base": "t_contract(IMocRC20)18643",
        "encoding": "dynamic_array",
        "label": "contract IMocRC20[]",
        "numberOfBytes": "32"
      },
      "t_array(t_int256)dyn_storage": {
        "base": "t_int256",
        "encoding": "dynamic_array",
        "label": "int256[]",
        "numberOfBytes": "32"
      },
      "t_array(t_struct(EmaItem)14966_storage)dyn_storage": {
        "base": "t_struct(EmaItem)14966_storage",
        "encoding": "dynamic_array",
        "label": "struct MocEma.EmaItem[]",
        "numberOfBytes": "32"
      },
      "t_array(t_struct(PegContainerItem)11043_storage)dyn_storage": {
        "base": "t_struct(PegContainerItem)11043_storage",
        "encoding": "dynamic_array",
        "label": "struct MocBaseBucket.PegContainerItem[]",
        "numberOfBytes": "32"
      },
      "t_array(t_uint256)49_storage": {
        "base": "t_uint256",
        "encoding": "inplace",
        "label": "uint256[49]",
        "numberOfBytes": "1568"
      },
      "t_array(t_uint256)50_storage": {
        "base": "t_uint256",
        "encoding": "inplace",
        "label": "uint256[50]",
        "numberOfBytes": "1600"
      },
      "t_array(t_uint256)dyn_storage": {
        "base": "t_uint256",
        "encoding": "dynamic_array",
        "label": "uint256[]",
        "numberOfBytes": "32"
      },
      "t_bool": {
        "encoding": "inplace",
        "label": "bool",
        "numberOfBytes": "1"
      },
      "t_contract(IERC20)5864": {
        "encoding": "inplace",
        "label": "contract IERC20",
        "numberOfBytes": "20"
      },
      "t_contract(IGovernor)18612": {
        "encoding": "inplace",
        "label": "contract IGovernor",
        "numberOfBytes": "20"
      },
      "t_contract(IMocRC20)18643": {
        "encoding": "inplace",
        "label": "contract IMocRC20",
        "numberOfBytes": "20"
      },
      "t_contract(IPriceProvider)18655": {
        "encoding": "inplace",
        "label": "contract IPriceProvider",
        "numberOfBytes": "20"
      },
      "t_contract(MocTC)19649": {
        "encoding": "inplace",
        "label": "contract MocTC",
        "numberOfBytes": "20"
      },
      "t_int256": {
        "encoding": "inplace",
        "label": "int256",
        "numberOfBytes": "32"
      },
      "t_mapping(t_address,t_struct(PeggedTokenIndex)11048_storage)": {
        "encoding": "mapping",
        "key": "t_address",
        "label": "mapping(address => struct MocBaseBucket.PeggedTokenIndex)",
        "numberOfBytes": "32",
        "value": "t_struct(PeggedTokenIndex)11048_storage"
      },
      "t_struct(EmaItem)14966_storage": {
        "encoding": "inplace",
        "label": "struct MocEma.EmaItem",
        "members": [
          {
            "astId": 14963,
            "contract": "contracts/mocks/upgradeability/MocUpgradeMocks.sol:MocCARC20Mock",
            "label": "ema",
            "offset": 0,
            "slot": "0",
            "type": "t_uint256"
          },
          {
            "astId": 14965,
            "contract": "contracts/mocks/upgradeability/MocUpgradeMocks.sol:MocCARC20Mock",
            "label": "sf",
            "offset": 0,
            "slot": "1",
            "type": "t_uint256"
          }
        ],
        "numberOfBytes": "64"
      },
      "t_struct(PegContainerItem)11043_storage": {
        "encoding": "inplace",
        "label": "struct MocBaseBucket.PegContainerItem",
        "members": [
          {
            "astId": 11039,
            "contract": "contracts/mocks/upgradeability/MocUpgradeMocks.sol:MocCARC20Mock",
            "label": "nTP",
            "offset": 0,
            "slot": "0",
            "type": "t_uint256"
          },
          {
            "astId": 11042,
            "contract": "contracts/mocks/upgradeability/MocUpgradeMocks.sol:MocCARC20Mock",
            "label": "priceProvider",
            "offset": 0,
            "slot": "1",
            "type": "t_contract(IPriceProvider)18655"
          }
        ],
        "numberOfBytes": "64"
      },
      "t_struct(PeggedTokenIndex)11048_storage": {
        "encoding": "inplace",
        "label": "struct MocBaseBucket.PeggedTokenIndex",
        "members": [
          {
            "astId": 11045,
            "contract": "contracts/mocks/upgradeability/MocUpgradeMocks.sol:MocCARC20Mock",
            "label": "index",
            "offset": 0,
            "slot": "0",
            "type": "t_uint256"
          },
          {
            "astId": 11047,
            "contract": "contracts/mocks/upgradeability/MocUpgradeMocks.sol:MocCARC20Mock",
            "label": "exists",
            "offset": 0,
            "slot": "1",
            "type": "t_bool"
          }
        ],
        "numberOfBytes": "64"
      },
      "t_uint256": {
        "encoding": "inplace",
        "label": "uint256",
        "numberOfBytes": "32"
      },
      "t_uint8": {
        "encoding": "inplace",
        "label": "uint8",
        "numberOfBytes": "1"
      }
    }
  },
  "userdoc": {
    "kind": "user",
    "methods": {
      "addPeggedToken((address,address,uint256,uint256,uint256,uint256,uint256))": {
        "notice": "add a Pegged Token to the protocol"
      },
      "calcCtargemaCA()": {
        "notice": "calculates target coverage adjusted by all Pegged Token's to Collateral Asset rate moving average"
      },
      "changeGovernor(address)": {
        "notice": "Change the contract's governor. Should be called through the old governance system"
      },
      "editPeggedToken((address,address,uint256,uint256,uint256,uint256,uint256))": {
        "notice": "modifies a Pegged Token of the protocol"
      },
      "evalLiquidation()": {
        "notice": "evaluates if liquidation threshold has been reached and liq is Enabled. If so forces contracts liquidation, blocking all mint & redeem operations. May emit a {ContractLiquidated} event."
      },
      "getBts()": {
        "notice": "get the number of blocks remaining for settlement"
      },
      "getCglb()": {
        "notice": "get bucket global coverage"
      },
      "getLeverageTC()": {
        "notice": "get Collateral Token leverage"
      },
      "getPACtp(uint256)": {
        "notice": "get how many Pegged Token equal 1 Collateral Asset"
      },
      "getPTCac()": {
        "notice": "get Collateral Token price"
      },
      "getQACforRedeemTP(uint256,uint256)": {
        "notice": "returns how many Collateral Asset are needed to redeem `qTP_` amount of Pegged Token `i_`"
      },
      "getTCAvailableToRedeem()": {
        "notice": "get amount of Collateral Token available to redeem"
      },
      "getTPAvailableToMint(uint256)": {
        "notice": "get amount of Pegged Token available to mint"
      },
      "getTotalACavailable()": {
        "notice": "get total Collateral Asset available"
      },
      "governor()": {
        "notice": "The address of the contract which governs this one"
      },
      "initialize((((address,address,address,uint256,uint256,uint256,uint256,uint256,uint256,uint256,uint256,uint256,uint256,uint256,uint256),address,address,uint256,uint256),address))": {
        "notice": "contract initializer"
      },
      "isLiquidationReached()": {
        "notice": "If liquidation is enabled, verifies if forced liquidation has been reached, checking if globalCoverage <= liquidation"
      },
      "liqRedeemTP(uint256)": {
        "notice": "Allow redeem on liquidation state, user Peg balance gets burned and he receives the equivalent AC given the liquidation frozen price."
      },
      "liqRedeemTPto(uint256,address)": {
        "notice": "Allow redeem on liquidation state, user Peg balance gets burned and he receives the equivalent AC given the liquidation frozen price."
      },
      "makeStoppable()": {
        "notice": "Switches ON the stoppability of the contract; if the contract was paused before making it unstoppable it will be paused again after calling this function"
      },
      "makeUnstoppable()": {
        "notice": "Switches OFF the stoppability of the contract; if the contract was paused it will no longer be so"
      },
      "mintTC(uint256,uint256)": {
        "notice": "caller sends Collateral Asset and receives Collateral Token Requires prior sender approval of Collateral Asset to this contract "
      },
      "mintTCandTP(uint256,uint256,uint256)": {
        "notice": "caller sends Collateral Asset and receives Collateral Token and Pegged Token  Requires prior sender approval of Collateral Asset to this contract  This operation is done without checking coverage  Collateral Token and Pegged Token are minted in equivalent proportions so that its price  and global coverage are not modified.  Reverts if qAC sent are insufficient."
      },
      "mintTCandTPto(uint256,uint256,uint256,address)": {
        "notice": "caller sends Collateral Asset and recipient receives Collateral Token and Pegged Token  Requires prior sender approval of Collateral Asset to this contract  This operation is done without checking coverage  Collateral Token and Pegged Token are minted in equivalent proportions so that its price  and global coverage are not modified.  Reverts if qAC sent are insufficient."
      },
      "mintTCto(uint256,uint256,address)": {
        "notice": "caller sends Collateral Asset and recipient receives Collateral Token Requires prior sender approval of Collateral Asset to this contract "
      },
      "mintTP(uint256,uint256,uint256)": {
        "notice": "caller sends Collateral Asset and receives Pegged Token Requires prior sender approval of Collateral Asset to this contract "
      },
      "mintTPto(uint256,uint256,uint256,address)": {
        "notice": "caller sends Collateral Asset and recipient receives Pegged Token Requires prior sender approval of Collateral Asset to this contract "
      },
      "pause()": {
        "notice": "Called by the owner to pause, triggers stopped state"
      },
      "paused()": {
        "notice": "Returns true if paused"
      },
      "redeemTC(uint256,uint256)": {
        "notice": "caller sends Collateral Token and receives Collateral Asset"
      },
      "redeemTCandTP(uint256,uint256,uint256,uint256)": {
        "notice": "caller sends Collateral Token and Pegged Token and receives coinbase as Collateral Asset  This operation is done without checking coverage  Collateral Token and Pegged Token are redeemed in equivalent proportions so that its price  and global coverage are not modified.  Reverts if qTP sent are insufficient."
      },
      "redeemTCandTPto(uint256,uint256,uint256,uint256,address)": {
        "notice": "caller sends Collateral Token and Pegged Token and recipient receives Collateral Asset  This operation is done without checking coverage  Collateral Token and Pegged Token are redeemed in equivalent proportions so that its price  and global coverage are not modified.  Reverts if qTP sent are insufficient."
      },
      "redeemTCto(uint256,uint256,address)": {
        "notice": "caller sends Collateral Token and recipient receives Collateral Asset"
      },
      "redeemTP(uint256,uint256,uint256)": {
        "notice": "caller sends Pegged Token and receives Collateral Asset"
      },
      "redeemTPto(uint256,uint256,uint256,address)": {
        "notice": "caller sends Pegged Token and recipient receives Collateral Asset"
      },
      "refreshACBalance()": {
        "notice": "Refreshes the AC holdings for the Bucket"
      },
      "setPauser(address)": {
        "notice": "Changes the address which is enable to pause this contract"
      },
      "shouldCalculateEma()": {
        "notice": "true if the necessary span has pass since last ema update"
      },
      "swapTCforTP(uint256,uint256,uint256,uint256)": {
        "notice": "caller sends Collateral Token and receives Pegged Token"
      },
      "swapTCforTPto(uint256,uint256,uint256,uint256,address)": {
        "notice": "caller sends Collateral Token and recipient receives Pegged Token"
      },
      "swapTPforTC(uint256,uint256,uint256,uint256)": {
        "notice": "caller sends a Pegged Token and receives Collateral Token"
      },
      "swapTPforTCto(uint256,uint256,uint256,uint256,address)": {
        "notice": "caller sends a Pegged Token and recipient receives Collateral Token"
      },
      "swapTPforTP(uint256,uint256,uint256,uint256,uint256)": {
        "notice": "caller sends a Pegged Token and receives another one"
      },
      "swapTPforTPto(uint256,uint256,uint256,uint256,uint256,address)": {
        "notice": "caller sends a Pegged Token and recipient receives another one"
      },
      "unpause()": {
        "notice": "Called by the owner to unpause, returns to normal state"
      },
      "updateEmas()": {
        "notice": "If time, calculates the EMA for all the Pegged Token prices."
      }
    },
    "version": 1
  }
}