{
  "contractName": "MocCoinbaseMock",
  "sourceName": "contracts/mocks/upgradeability/MocUpgradeMocks.sol",
  "abi": [
    {
      "inputs": [
        {
          "internalType": "uint256",
          "name": "qACsent_",
          "type": "uint256"
        },
        {
          "internalType": "uint256",
          "name": "qACNeeded_",
          "type": "uint256"
        }
      ],
      "name": "InsufficientQacSent",
      "type": "error"
    },
    {
      "inputs": [
        {
          "internalType": "uint256",
          "name": "qTPsent_",
          "type": "uint256"
        },
        {
          "internalType": "uint256",
          "name": "qTPNeeded_",
          "type": "uint256"
        }
      ],
      "name": "InsufficientQtpSent",
      "type": "error"
    },
    {
      "inputs": [
        {
          "internalType": "uint256",
          "name": "qTC_",
          "type": "uint256"
        },
        {
          "internalType": "uint256",
          "name": "tcAvailableToRedeem_",
          "type": "uint256"
        }
      ],
      "name": "InsufficientTCtoRedeem",
      "type": "error"
    },
    {
      "inputs": [
        {
          "internalType": "uint256",
          "name": "qTP_",
          "type": "uint256"
        },
        {
          "internalType": "uint256",
          "name": "tpAvailableToMint_",
          "type": "uint256"
        }
      ],
      "name": "InsufficientTPtoMint",
      "type": "error"
    },
    {
      "inputs": [
        {
          "internalType": "uint256",
          "name": "qTP_",
          "type": "uint256"
        },
        {
          "internalType": "uint256",
          "name": "tpAvailableToRedeem_",
          "type": "uint256"
        }
      ],
      "name": "InsufficientTPtoRedeem",
      "type": "error"
    },
    {
      "inputs": [],
      "name": "InvalidAddress",
      "type": "error"
    },
    {
      "inputs": [],
      "name": "InvalidFluxCapacitorOperation",
      "type": "error"
    },
    {
      "inputs": [],
      "name": "InvalidValue",
      "type": "error"
    },
    {
      "inputs": [],
      "name": "Liquidated",
      "type": "error"
    },
    {
      "inputs": [
        {
          "internalType": "uint256",
          "name": "cglb_",
          "type": "uint256"
        },
        {
          "internalType": "uint256",
          "name": "covThrld_",
          "type": "uint256"
        }
      ],
      "name": "LowCoverage",
      "type": "error"
    },
    {
      "inputs": [
        {
          "internalType": "uint256",
          "name": "max_",
          "type": "uint256"
        },
        {
          "internalType": "uint256",
          "name": "new_",
          "type": "uint256"
        }
      ],
      "name": "MaxFluxCapacitorOperationReached",
      "type": "error"
    },
    {
      "inputs": [],
      "name": "MissingBlocksToSettlement",
      "type": "error"
    },
    {
      "inputs": [],
      "name": "MissingBlocksToTCInterestPayment",
      "type": "error"
    },
    {
      "inputs": [
        {
          "internalType": "address",
          "name": "dataProviderAddress_",
          "type": "address"
        }
      ],
      "name": "MissingProviderData",
      "type": "error"
    },
    {
      "inputs": [
        {
          "internalType": "address",
          "name": "priceProviderAddress_",
          "type": "address"
        }
      ],
      "name": "MissingProviderPrice",
      "type": "error"
    },
    {
      "inputs": [],
      "name": "NotAuthorizedChanger",
      "type": "error"
    },
    {
      "inputs": [],
      "name": "NotWhenPaused",
      "type": "error"
    },
    {
      "inputs": [],
      "name": "OnlyPauser",
      "type": "error"
    },
    {
      "inputs": [],
      "name": "OnlyWhenLiquidated",
      "type": "error"
    },
    {
      "inputs": [],
      "name": "OnlyWhilePaused",
      "type": "error"
    },
    {
      "inputs": [],
      "name": "PeggedTokenAlreadyAdded",
      "type": "error"
    },
    {
      "inputs": [
        {
          "internalType": "uint256",
          "name": "qACmin_",
          "type": "uint256"
        },
        {
          "internalType": "uint256",
          "name": "qACtoRedeem_",
          "type": "uint256"
        }
      ],
      "name": "QacBelowMinimumRequired",
      "type": "error"
    },
    {
      "inputs": [],
      "name": "QacNeededMustBeGreaterThanZero",
      "type": "error"
    },
    {
      "inputs": [
        {
          "internalType": "uint256",
          "name": "qTCmin_",
          "type": "uint256"
        },
        {
          "internalType": "uint256",
          "name": "qTC_",
          "type": "uint256"
        }
      ],
      "name": "QtcBelowMinimumRequired",
      "type": "error"
    },
    {
      "inputs": [
        {
          "internalType": "uint256",
          "name": "qTPmin_",
          "type": "uint256"
        },
        {
          "internalType": "uint256",
          "name": "qTP_",
          "type": "uint256"
        }
      ],
      "name": "QtpBelowMinimumRequired",
      "type": "error"
    },
    {
      "inputs": [],
      "name": "TransferFailed",
      "type": "error"
    },
    {
      "inputs": [],
      "name": "Unstoppable",
      "type": "error"
    },
    {
      "anonymous": false,
      "inputs": [
        {
          "indexed": false,
          "internalType": "address",
          "name": "previousAdmin",
          "type": "address"
        },
        {
          "indexed": false,
          "internalType": "address",
          "name": "newAdmin",
          "type": "address"
        }
      ],
      "name": "AdminChanged",
      "type": "event"
    },
    {
      "anonymous": false,
      "inputs": [
        {
          "indexed": true,
          "internalType": "address",
          "name": "beacon",
          "type": "address"
        }
      ],
      "name": "BeaconUpgraded",
      "type": "event"
    },
    {
      "anonymous": false,
      "inputs": [],
      "name": "ContractLiquidated",
      "type": "event"
    },
    {
      "anonymous": false,
      "inputs": [
        {
          "indexed": false,
          "internalType": "uint8",
          "name": "version",
          "type": "uint8"
        }
      ],
      "name": "Initialized",
      "type": "event"
    },
    {
      "anonymous": false,
      "inputs": [
        {
          "indexed": true,
          "internalType": "address",
          "name": "tp_",
          "type": "address"
        },
        {
          "indexed": true,
          "internalType": "address",
          "name": "sender_",
          "type": "address"
        },
        {
          "indexed": true,
          "internalType": "address",
          "name": "recipient_",
          "type": "address"
        },
        {
          "indexed": false,
          "internalType": "uint256",
          "name": "qTP_",
          "type": "uint256"
        },
        {
          "indexed": false,
          "internalType": "uint256",
          "name": "qAC_",
          "type": "uint256"
        }
      ],
      "name": "LiqTPRedeemed",
      "type": "event"
    },
    {
      "anonymous": false,
      "inputs": [
        {
          "indexed": false,
          "internalType": "address",
          "name": "account",
          "type": "address"
        }
      ],
      "name": "Paused",
      "type": "event"
    },
    {
      "anonymous": false,
      "inputs": [
        {
          "indexed": false,
          "internalType": "uint256",
          "name": "i_",
          "type": "uint256"
        },
        {
          "components": [
            {
              "internalType": "address",
              "name": "tpTokenAddress",
              "type": "address"
            },
            {
              "internalType": "address",
              "name": "priceProviderAddress",
              "type": "address"
            },
            {
              "internalType": "uint256",
              "name": "tpCtarg",
              "type": "uint256"
            },
            {
              "internalType": "uint256",
              "name": "tpMintFee",
              "type": "uint256"
            },
            {
              "internalType": "uint256",
              "name": "tpRedeemFee",
              "type": "uint256"
            },
            {
              "internalType": "uint256",
              "name": "tpEma",
              "type": "uint256"
            },
            {
              "internalType": "uint256",
              "name": "tpEmaSf",
              "type": "uint256"
            }
          ],
          "indexed": false,
          "internalType": "struct PeggedTokenParams",
          "name": "peggedTokenParams_",
          "type": "tuple"
        }
      ],
      "name": "PeggedTokenChange",
      "type": "event"
    },
    {
      "anonymous": false,
      "inputs": [],
      "name": "SettlementExecuted",
      "type": "event"
    },
    {
      "anonymous": false,
      "inputs": [
        {
          "indexed": false,
          "internalType": "uint256",
          "name": "mocGain_",
          "type": "uint256"
        },
        {
          "indexed": false,
          "internalType": "uint256[]",
          "name": "tpGain_",
          "type": "uint256[]"
        }
      ],
      "name": "SuccessFeeDistributed",
      "type": "event"
    },
    {
      "anonymous": false,
      "inputs": [
        {
          "indexed": false,
          "internalType": "uint256",
          "name": "interestAmount_",
          "type": "uint256"
        }
      ],
      "name": "TCInterestPayment",
      "type": "event"
    },
    {
      "anonymous": false,
      "inputs": [
        {
          "indexed": true,
          "internalType": "address",
          "name": "sender_",
          "type": "address"
        },
        {
          "indexed": true,
          "internalType": "address",
          "name": "recipient_",
          "type": "address"
        },
        {
          "indexed": false,
          "internalType": "uint256",
          "name": "qTC_",
          "type": "uint256"
        },
        {
          "indexed": false,
          "internalType": "uint256",
          "name": "qAC_",
          "type": "uint256"
        },
        {
          "indexed": false,
          "internalType": "uint256",
          "name": "qACfee_",
          "type": "uint256"
        },
        {
          "indexed": false,
          "internalType": "uint256",
          "name": "qFeeToken_",
          "type": "uint256"
        },
        {
          "indexed": false,
          "internalType": "uint256",
          "name": "qACVendorMarkup_",
          "type": "uint256"
        },
        {
          "indexed": false,
          "internalType": "uint256",
          "name": "qFeeTokenVendorMarkup_",
          "type": "uint256"
        },
        {
          "indexed": false,
          "internalType": "address",
          "name": "vendor_",
          "type": "address"
        }
      ],
      "name": "TCMinted",
      "type": "event"
    },
    {
      "anonymous": false,
      "inputs": [
        {
          "indexed": true,
          "internalType": "address",
          "name": "sender_",
          "type": "address"
        },
        {
          "indexed": true,
          "internalType": "address",
          "name": "recipient_",
          "type": "address"
        },
        {
          "indexed": false,
          "internalType": "uint256",
          "name": "qTC_",
          "type": "uint256"
        },
        {
          "indexed": false,
          "internalType": "uint256",
          "name": "qAC_",
          "type": "uint256"
        },
        {
          "indexed": false,
          "internalType": "uint256",
          "name": "qACfee_",
          "type": "uint256"
        },
        {
          "indexed": false,
          "internalType": "uint256",
          "name": "qFeeToken_",
          "type": "uint256"
        },
        {
          "indexed": false,
          "internalType": "uint256",
          "name": "qACVendorMarkup_",
          "type": "uint256"
        },
        {
          "indexed": false,
          "internalType": "uint256",
          "name": "qFeeTokenVendorMarkup_",
          "type": "uint256"
        },
        {
          "indexed": false,
          "internalType": "address",
          "name": "vendor_",
          "type": "address"
        }
      ],
      "name": "TCRedeemed",
      "type": "event"
    },
    {
      "anonymous": false,
      "inputs": [
        {
          "indexed": true,
          "internalType": "address",
          "name": "tp_",
          "type": "address"
        },
        {
          "indexed": true,
          "internalType": "address",
          "name": "sender_",
          "type": "address"
        },
        {
          "indexed": true,
          "internalType": "address",
          "name": "recipient_",
          "type": "address"
        },
        {
          "indexed": false,
          "internalType": "uint256",
          "name": "qTC_",
          "type": "uint256"
        },
        {
          "indexed": false,
          "internalType": "uint256",
          "name": "qTP_",
          "type": "uint256"
        },
        {
          "indexed": false,
          "internalType": "uint256",
          "name": "qACfee_",
          "type": "uint256"
        },
        {
          "indexed": false,
          "internalType": "uint256",
          "name": "qFeeToken_",
          "type": "uint256"
        },
        {
          "indexed": false,
          "internalType": "uint256",
          "name": "qACVendorMarkup_",
          "type": "uint256"
        },
        {
          "indexed": false,
          "internalType": "uint256",
          "name": "qFeeTokenVendorMarkup_",
          "type": "uint256"
        },
        {
          "indexed": false,
          "internalType": "address",
          "name": "vendor_",
          "type": "address"
        }
      ],
      "name": "TCSwappedForTP",
      "type": "event"
    },
    {
      "anonymous": false,
      "inputs": [
        {
          "indexed": true,
          "internalType": "address",
          "name": "tp_",
          "type": "address"
        },
        {
          "indexed": true,
          "internalType": "address",
          "name": "sender_",
          "type": "address"
        },
        {
          "indexed": true,
          "internalType": "address",
          "name": "recipient_",
          "type": "address"
        },
        {
          "indexed": false,
          "internalType": "uint256",
          "name": "qTC_",
          "type": "uint256"
        },
        {
          "indexed": false,
          "internalType": "uint256",
          "name": "qTP_",
          "type": "uint256"
        },
        {
          "indexed": false,
          "internalType": "uint256",
          "name": "qAC_",
          "type": "uint256"
        },
        {
          "indexed": false,
          "internalType": "uint256",
          "name": "qACfee_",
          "type": "uint256"
        },
        {
          "indexed": false,
          "internalType": "uint256",
          "name": "qFeeToken_",
          "type": "uint256"
        },
        {
          "indexed": false,
          "internalType": "uint256",
          "name": "qACVendorMarkup_",
          "type": "uint256"
        },
        {
          "indexed": false,
          "internalType": "uint256",
          "name": "qFeeTokenVendorMarkup_",
          "type": "uint256"
        },
        {
          "indexed": false,
          "internalType": "address",
          "name": "vendor_",
          "type": "address"
        }
      ],
      "name": "TCandTPMinted",
      "type": "event"
    },
    {
      "anonymous": false,
      "inputs": [
        {
          "indexed": true,
          "internalType": "address",
          "name": "tp_",
          "type": "address"
        },
        {
          "indexed": true,
          "internalType": "address",
          "name": "sender_",
          "type": "address"
        },
        {
          "indexed": true,
          "internalType": "address",
          "name": "recipient_",
          "type": "address"
        },
        {
          "indexed": false,
          "internalType": "uint256",
          "name": "qTC_",
          "type": "uint256"
        },
        {
          "indexed": false,
          "internalType": "uint256",
          "name": "qTP_",
          "type": "uint256"
        },
        {
          "indexed": false,
          "internalType": "uint256",
          "name": "qAC_",
          "type": "uint256"
        },
        {
          "indexed": false,
          "internalType": "uint256",
          "name": "qACfee_",
          "type": "uint256"
        },
        {
          "indexed": false,
          "internalType": "uint256",
          "name": "qFeeToken_",
          "type": "uint256"
        },
        {
          "indexed": false,
          "internalType": "uint256",
          "name": "qACVendorMarkup_",
          "type": "uint256"
        },
        {
          "indexed": false,
          "internalType": "uint256",
          "name": "qFeeTokenVendorMarkup_",
          "type": "uint256"
        },
        {
          "indexed": false,
          "internalType": "address",
          "name": "vendor_",
          "type": "address"
        }
      ],
      "name": "TCandTPRedeemed",
      "type": "event"
    },
    {
      "anonymous": false,
      "inputs": [
        {
          "indexed": true,
          "internalType": "address",
          "name": "tp_",
          "type": "address"
        },
        {
          "indexed": true,
          "internalType": "address",
          "name": "sender_",
          "type": "address"
        },
        {
          "indexed": true,
          "internalType": "address",
          "name": "recipient_",
          "type": "address"
        },
        {
          "indexed": false,
          "internalType": "uint256",
          "name": "qTP_",
          "type": "uint256"
        },
        {
          "indexed": false,
          "internalType": "uint256",
          "name": "qAC_",
          "type": "uint256"
        },
        {
          "indexed": false,
          "internalType": "uint256",
          "name": "qACfee_",
          "type": "uint256"
        },
        {
          "indexed": false,
          "internalType": "uint256",
          "name": "qFeeToken_",
          "type": "uint256"
        },
        {
          "indexed": false,
          "internalType": "uint256",
          "name": "qACVendorMarkup_",
          "type": "uint256"
        },
        {
          "indexed": false,
          "internalType": "uint256",
          "name": "qFeeTokenVendorMarkup_",
          "type": "uint256"
        },
        {
          "indexed": false,
          "internalType": "address",
          "name": "vendor_",
          "type": "address"
        }
      ],
      "name": "TPMinted",
      "type": "event"
    },
    {
      "anonymous": false,
      "inputs": [
        {
          "indexed": true,
          "internalType": "address",
          "name": "tp_",
          "type": "address"
        },
        {
          "indexed": true,
          "internalType": "address",
          "name": "sender_",
          "type": "address"
        },
        {
          "indexed": true,
          "internalType": "address",
          "name": "recipient_",
          "type": "address"
        },
        {
          "indexed": false,
          "internalType": "uint256",
          "name": "qTP_",
          "type": "uint256"
        },
        {
          "indexed": false,
          "internalType": "uint256",
          "name": "qAC_",
          "type": "uint256"
        },
        {
          "indexed": false,
          "internalType": "uint256",
          "name": "qACfee_",
          "type": "uint256"
        },
        {
          "indexed": false,
          "internalType": "uint256",
          "name": "qFeeToken_",
          "type": "uint256"
        },
        {
          "indexed": false,
          "internalType": "uint256",
          "name": "qACVendorMarkup_",
          "type": "uint256"
        },
        {
          "indexed": false,
          "internalType": "uint256",
          "name": "qFeeTokenVendorMarkup_",
          "type": "uint256"
        },
        {
          "indexed": false,
          "internalType": "address",
          "name": "vendor_",
          "type": "address"
        }
      ],
      "name": "TPRedeemed",
      "type": "event"
    },
    {
      "anonymous": false,
      "inputs": [
        {
          "indexed": true,
          "internalType": "address",
          "name": "tp_",
          "type": "address"
        },
        {
          "indexed": true,
          "internalType": "address",
          "name": "sender_",
          "type": "address"
        },
        {
          "indexed": true,
          "internalType": "address",
          "name": "recipient_",
          "type": "address"
        },
        {
          "indexed": false,
          "internalType": "uint256",
          "name": "qTP_",
          "type": "uint256"
        },
        {
          "indexed": false,
          "internalType": "uint256",
          "name": "qTC_",
          "type": "uint256"
        },
        {
          "indexed": false,
          "internalType": "uint256",
          "name": "qACfee_",
          "type": "uint256"
        },
        {
          "indexed": false,
          "internalType": "uint256",
          "name": "qFeeToken_",
          "type": "uint256"
        },
        {
          "indexed": false,
          "internalType": "uint256",
          "name": "qACVendorMarkup_",
          "type": "uint256"
        },
        {
          "indexed": false,
          "internalType": "uint256",
          "name": "qFeeTokenVendorMarkup_",
          "type": "uint256"
        },
        {
          "indexed": false,
          "internalType": "address",
          "name": "vendor_",
          "type": "address"
        }
      ],
      "name": "TPSwappedForTC",
      "type": "event"
    },
    {
      "anonymous": false,
      "inputs": [
        {
          "indexed": true,
          "internalType": "address",
          "name": "tpFrom_",
          "type": "address"
        },
        {
          "indexed": false,
          "internalType": "address",
          "name": "tpTo_",
          "type": "address"
        },
        {
          "indexed": true,
          "internalType": "address",
          "name": "sender_",
          "type": "address"
        },
        {
          "indexed": true,
          "internalType": "address",
          "name": "recipient_",
          "type": "address"
        },
        {
          "indexed": false,
          "internalType": "uint256",
          "name": "qTPfrom_",
          "type": "uint256"
        },
        {
          "indexed": false,
          "internalType": "uint256",
          "name": "qTPto_",
          "type": "uint256"
        },
        {
          "indexed": false,
          "internalType": "uint256",
          "name": "qACfee_",
          "type": "uint256"
        },
        {
          "indexed": false,
          "internalType": "uint256",
          "name": "qFeeToken_",
          "type": "uint256"
        },
        {
          "indexed": false,
          "internalType": "uint256",
          "name": "qACVendorMarkup_",
          "type": "uint256"
        },
        {
          "indexed": false,
          "internalType": "uint256",
          "name": "qFeeTokenVendorMarkup_",
          "type": "uint256"
        },
        {
          "indexed": false,
          "internalType": "address",
          "name": "vendor_",
          "type": "address"
        }
      ],
      "name": "TPSwappedForTP",
      "type": "event"
    },
    {
      "anonymous": false,
      "inputs": [
        {
          "indexed": true,
          "internalType": "uint256",
          "name": "i_",
          "type": "uint256"
        },
        {
          "indexed": false,
          "internalType": "uint256",
          "name": "oldTPema_",
          "type": "uint256"
        },
        {
          "indexed": false,
          "internalType": "uint256",
          "name": "newTPema_",
          "type": "uint256"
        }
      ],
      "name": "TPemaUpdated",
      "type": "event"
    },
    {
      "anonymous": false,
      "inputs": [
        {
          "indexed": false,
          "internalType": "address",
          "name": "account",
          "type": "address"
        }
      ],
      "name": "Unpaused",
      "type": "event"
    },
    {
      "anonymous": false,
      "inputs": [
        {
          "indexed": true,
          "internalType": "address",
          "name": "implementation",
          "type": "address"
        }
      ],
      "name": "Upgraded",
      "type": "event"
    },
    {
      "inputs": [],
      "name": "absoluteAccumulator",
      "outputs": [
        {
          "internalType": "uint256",
          "name": "",
          "type": "uint256"
        }
      ],
      "stateMutability": "view",
      "type": "function"
    },
    {
      "inputs": [
        {
          "components": [
            {
              "internalType": "address",
              "name": "tpTokenAddress",
              "type": "address"
            },
            {
              "internalType": "address",
              "name": "priceProviderAddress",
              "type": "address"
            },
            {
              "internalType": "uint256",
              "name": "tpCtarg",
              "type": "uint256"
            },
            {
              "internalType": "uint256",
              "name": "tpMintFee",
              "type": "uint256"
            },
            {
              "internalType": "uint256",
              "name": "tpRedeemFee",
              "type": "uint256"
            },
            {
              "internalType": "uint256",
              "name": "tpEma",
              "type": "uint256"
            },
            {
              "internalType": "uint256",
              "name": "tpEmaSf",
              "type": "uint256"
            }
          ],
          "internalType": "struct PeggedTokenParams",
          "name": "peggedTokenParams_",
          "type": "tuple"
        }
      ],
      "name": "addPeggedToken",
      "outputs": [],
      "stateMutability": "nonpayable",
      "type": "function"
    },
    {
      "inputs": [],
      "name": "appreciationFactor",
      "outputs": [
        {
          "internalType": "uint256",
          "name": "",
          "type": "uint256"
        }
      ],
      "stateMutability": "view",
      "type": "function"
    },
    {
      "inputs": [],
      "name": "bes",
      "outputs": [
        {
          "internalType": "uint256",
          "name": "",
          "type": "uint256"
        }
      ],
      "stateMutability": "view",
      "type": "function"
    },
    {
      "inputs": [],
      "name": "bns",
      "outputs": [
        {
          "internalType": "uint256",
          "name": "",
          "type": "uint256"
        }
      ],
      "stateMutability": "view",
      "type": "function"
    },
    {
      "inputs": [],
      "name": "calcCtargemaCA",
      "outputs": [
        {
          "internalType": "uint256",
          "name": "ctargemaCA",
          "type": "uint256"
        }
      ],
      "stateMutability": "view",
      "type": "function"
    },
    {
      "inputs": [
        {
          "internalType": "contract IGovernor",
          "name": "newGovernor_",
          "type": "address"
        }
      ],
      "name": "changeGovernor",
      "outputs": [],
      "stateMutability": "nonpayable",
      "type": "function"
    },
    {
      "inputs": [],
      "name": "decayBlockSpan",
      "outputs": [
        {
          "internalType": "uint256",
          "name": "",
          "type": "uint256"
        }
      ],
      "stateMutability": "view",
      "type": "function"
    },
    {
      "inputs": [],
      "name": "differentialAccumulator",
      "outputs": [
        {
          "internalType": "int256",
          "name": "",
          "type": "int256"
        }
      ],
      "stateMutability": "view",
      "type": "function"
    },
    {
      "inputs": [
        {
          "components": [
            {
              "internalType": "address",
              "name": "tpTokenAddress",
              "type": "address"
            },
            {
              "internalType": "address",
              "name": "priceProviderAddress",
              "type": "address"
            },
            {
              "internalType": "uint256",
              "name": "tpCtarg",
              "type": "uint256"
            },
            {
              "internalType": "uint256",
              "name": "tpMintFee",
              "type": "uint256"
            },
            {
              "internalType": "uint256",
              "name": "tpRedeemFee",
              "type": "uint256"
            },
            {
              "internalType": "uint256",
              "name": "tpEma",
              "type": "uint256"
            },
            {
              "internalType": "uint256",
              "name": "tpEmaSf",
              "type": "uint256"
            }
          ],
          "internalType": "struct PeggedTokenParams",
          "name": "peggedTokenParams_",
          "type": "tuple"
        }
      ],
      "name": "editPeggedToken",
      "outputs": [],
      "stateMutability": "nonpayable",
      "type": "function"
    },
    {
      "inputs": [],
      "name": "emaCalculationBlockSpan",
      "outputs": [
        {
          "internalType": "uint256",
          "name": "",
          "type": "uint256"
        }
      ],
      "stateMutability": "view",
      "type": "function"
    },
    {
      "inputs": [],
      "name": "evalLiquidation",
      "outputs": [],
      "stateMutability": "nonpayable",
      "type": "function"
    },
    {
      "inputs": [],
      "name": "execSettlement",
      "outputs": [],
      "stateMutability": "nonpayable",
      "type": "function"
    },
    {
      "inputs": [],
      "name": "feeRetainer",
      "outputs": [
        {
          "internalType": "uint256",
          "name": "",
          "type": "uint256"
        }
      ],
      "stateMutability": "view",
      "type": "function"
    },
    {
      "inputs": [],
      "name": "feeToken",
      "outputs": [
        {
          "internalType": "contract IERC20",
          "name": "",
          "type": "address"
        }
      ],
      "stateMutability": "view",
      "type": "function"
    },
    {
      "inputs": [],
      "name": "feeTokenPct",
      "outputs": [
        {
          "internalType": "uint256",
          "name": "",
          "type": "uint256"
        }
      ],
      "stateMutability": "view",
      "type": "function"
    },
    {
      "inputs": [],
      "name": "feeTokenPriceProvider",
      "outputs": [
        {
          "internalType": "contract IPriceProvider",
          "name": "",
          "type": "address"
        }
      ],
      "stateMutability": "view",
      "type": "function"
    },
    {
      "inputs": [],
      "name": "getBts",
      "outputs": [
        {
          "internalType": "uint256",
          "name": "",
          "type": "uint256"
        }
      ],
      "stateMutability": "view",
      "type": "function"
    },
    {
      "inputs": [],
      "name": "getCglb",
      "outputs": [
        {
          "internalType": "uint256",
          "name": "cglob",
          "type": "uint256"
        }
      ],
      "stateMutability": "view",
      "type": "function"
    },
    {
      "inputs": [],
      "name": "getCustomMockValue",
      "outputs": [
        {
          "internalType": "uint256",
          "name": "",
          "type": "uint256"
        }
      ],
      "stateMutability": "view",
      "type": "function"
    },
    {
      "inputs": [],
      "name": "getLckAC",
      "outputs": [
        {
          "internalType": "uint256",
          "name": "lckAC",
          "type": "uint256"
        }
      ],
      "stateMutability": "view",
      "type": "function"
    },
    {
      "inputs": [],
      "name": "getLeverageTC",
      "outputs": [
        {
          "internalType": "uint256",
          "name": "leverageTC",
          "type": "uint256"
        }
      ],
      "stateMutability": "view",
      "type": "function"
    },
    {
      "inputs": [
        {
          "internalType": "address",
          "name": "tp_",
          "type": "address"
        }
      ],
      "name": "getPACtp",
      "outputs": [
        {
          "internalType": "uint256",
          "name": "",
          "type": "uint256"
        }
      ],
      "stateMutability": "view",
      "type": "function"
    },
    {
      "inputs": [],
      "name": "getPTCac",
      "outputs": [
        {
          "internalType": "uint256",
          "name": "pTCac",
          "type": "uint256"
        }
      ],
      "stateMutability": "view",
      "type": "function"
    },
    {
      "inputs": [],
      "name": "getTCAvailableToRedeem",
      "outputs": [
        {
          "internalType": "int256",
          "name": "tcAvailableToRedeem",
          "type": "int256"
        }
      ],
      "stateMutability": "view",
      "type": "function"
    },
    {
      "inputs": [
        {
          "internalType": "address",
          "name": "tp_",
          "type": "address"
        }
      ],
      "name": "getTPAvailableToMint",
      "outputs": [
        {
          "internalType": "int256",
          "name": "tpAvailableToMint",
          "type": "int256"
        }
      ],
      "stateMutability": "view",
      "type": "function"
    },
    {
      "inputs": [],
      "name": "getTotalACavailable",
      "outputs": [
        {
          "internalType": "uint256",
          "name": "totalACavailable",
          "type": "uint256"
        }
      ],
      "stateMutability": "view",
      "type": "function"
    },
    {
      "inputs": [],
      "name": "governor",
      "outputs": [
        {
          "internalType": "contract IGovernor",
          "name": "",
          "type": "address"
        }
      ],
      "stateMutability": "view",
      "type": "function"
    },
    {
      "inputs": [
        {
          "components": [
            {
              "components": [
                {
                  "internalType": "address",
                  "name": "feeTokenAddress",
                  "type": "address"
                },
                {
                  "internalType": "address",
                  "name": "feeTokenPriceProviderAddress",
                  "type": "address"
                },
                {
                  "internalType": "address",
                  "name": "tcTokenAddress",
                  "type": "address"
                },
                {
                  "internalType": "address",
                  "name": "mocFeeFlowAddress",
                  "type": "address"
                },
                {
                  "internalType": "address",
                  "name": "mocAppreciationBeneficiaryAddress",
                  "type": "address"
                },
                {
                  "internalType": "uint256",
                  "name": "protThrld",
                  "type": "uint256"
                },
                {
                  "internalType": "uint256",
                  "name": "liqThrld",
                  "type": "uint256"
                },
                {
                  "internalType": "uint256",
                  "name": "feeRetainer",
                  "type": "uint256"
                },
                {
                  "internalType": "uint256",
                  "name": "tcMintFee",
                  "type": "uint256"
                },
                {
                  "internalType": "uint256",
                  "name": "tcRedeemFee",
                  "type": "uint256"
                },
                {
                  "internalType": "uint256",
                  "name": "swapTPforTPFee",
                  "type": "uint256"
                },
                {
                  "internalType": "uint256",
                  "name": "swapTPforTCFee",
                  "type": "uint256"
                },
                {
                  "internalType": "uint256",
                  "name": "swapTCforTPFee",
                  "type": "uint256"
                },
                {
                  "internalType": "uint256",
                  "name": "redeemTCandTPFee",
                  "type": "uint256"
                },
                {
                  "internalType": "uint256",
                  "name": "mintTCandTPFee",
                  "type": "uint256"
                },
                {
                  "internalType": "uint256",
                  "name": "feeTokenPct",
                  "type": "uint256"
                },
                {
                  "internalType": "uint256",
                  "name": "successFee",
                  "type": "uint256"
                },
                {
                  "internalType": "uint256",
                  "name": "appreciationFactor",
                  "type": "uint256"
                },
                {
                  "internalType": "uint256",
                  "name": "bes",
                  "type": "uint256"
                },
                {
                  "internalType": "address",
                  "name": "tcInterestCollectorAddress",
                  "type": "address"
                },
                {
                  "internalType": "uint256",
                  "name": "tcInterestRate",
                  "type": "uint256"
                },
                {
                  "internalType": "uint256",
                  "name": "tcInterestPaymentBlockSpan",
                  "type": "uint256"
                },
                {
                  "internalType": "address",
                  "name": "maxAbsoluteOpProviderAddress",
                  "type": "address"
                },
                {
                  "internalType": "address",
                  "name": "maxOpDiffProviderAddress",
                  "type": "address"
                },
                {
                  "internalType": "uint256",
                  "name": "decayBlockSpan",
                  "type": "uint256"
                }
              ],
              "internalType": "struct MocBaseBucket.InitializeBaseBucketParams",
              "name": "initializeBaseBucketParams",
              "type": "tuple"
            },
            {
              "internalType": "address",
              "name": "governorAddress",
              "type": "address"
            },
            {
              "internalType": "address",
              "name": "pauserAddress",
              "type": "address"
            },
            {
              "internalType": "address",
              "name": "mocCoreExpansion",
              "type": "address"
            },
            {
              "internalType": "uint256",
              "name": "emaCalculationBlockSpan",
              "type": "uint256"
            },
            {
              "internalType": "address",
              "name": "mocVendors",
              "type": "address"
            }
          ],
          "internalType": "struct MocCore.InitializeCoreParams",
          "name": "initializeCoreParams_",
          "type": "tuple"
        }
      ],
      "name": "initialize",
      "outputs": [],
      "stateMutability": "nonpayable",
      "type": "function"
    },
    {
      "inputs": [],
      "name": "initializeMock",
      "outputs": [],
      "stateMutability": "nonpayable",
      "type": "function"
    },
    {
      "inputs": [],
      "name": "isLiquidationReached",
      "outputs": [
        {
          "internalType": "bool",
          "name": "",
          "type": "bool"
        }
      ],
      "stateMutability": "view",
      "type": "function"
    },
    {
      "inputs": [],
      "name": "lastOperationBlockNumber",
      "outputs": [
        {
          "internalType": "uint256",
          "name": "",
          "type": "uint256"
        }
      ],
      "stateMutability": "view",
      "type": "function"
    },
    {
      "inputs": [],
      "name": "liqEnabled",
      "outputs": [
        {
          "internalType": "bool",
          "name": "",
          "type": "bool"
        }
      ],
      "stateMutability": "view",
      "type": "function"
    },
    {
      "inputs": [
        {
          "internalType": "address",
          "name": "tp_",
          "type": "address"
        }
      ],
      "name": "liqRedeemTP",
      "outputs": [
        {
          "internalType": "uint256",
          "name": "qACRedeemed",
          "type": "uint256"
        }
      ],
      "stateMutability": "nonpayable",
      "type": "function"
    },
    {
      "inputs": [
        {
          "internalType": "address",
          "name": "tp_",
          "type": "address"
        },
        {
          "internalType": "address",
          "name": "recipient_",
          "type": "address"
        }
      ],
      "name": "liqRedeemTPto",
      "outputs": [
        {
          "internalType": "uint256",
          "name": "qACRedeemed",
          "type": "uint256"
        }
      ],
      "stateMutability": "nonpayable",
      "type": "function"
    },
    {
      "inputs": [],
      "name": "liqThrld",
      "outputs": [
        {
          "internalType": "uint256",
          "name": "",
          "type": "uint256"
        }
      ],
      "stateMutability": "view",
      "type": "function"
    },
    {
      "inputs": [],
      "name": "liquidated",
      "outputs": [
        {
          "internalType": "bool",
          "name": "",
          "type": "bool"
        }
      ],
      "stateMutability": "view",
      "type": "function"
    },
    {
      "inputs": [],
      "name": "makeStoppable",
      "outputs": [],
      "stateMutability": "nonpayable",
      "type": "function"
    },
    {
      "inputs": [],
      "name": "makeUnstoppable",
      "outputs": [],
      "stateMutability": "nonpayable",
      "type": "function"
    },
    {
      "inputs": [],
      "name": "maxAbsoluteOpProvider",
      "outputs": [
        {
          "internalType": "contract IDataProvider",
          "name": "",
          "type": "address"
        }
      ],
      "stateMutability": "view",
      "type": "function"
    },
    {
      "inputs": [],
      "name": "maxOpDiffProvider",
      "outputs": [
        {
          "internalType": "contract IDataProvider",
          "name": "",
          "type": "address"
        }
      ],
      "stateMutability": "view",
      "type": "function"
    },
    {
      "inputs": [],
      "name": "maxQACToMintTP",
      "outputs": [
        {
          "internalType": "uint256",
          "name": "maxQAC",
          "type": "uint256"
        }
      ],
      "stateMutability": "view",
      "type": "function"
    },
    {
      "inputs": [],
      "name": "maxQACToRedeemTP",
      "outputs": [
        {
          "internalType": "uint256",
          "name": "maxQAC",
          "type": "uint256"
        }
      ],
      "stateMutability": "view",
      "type": "function"
    },
    {
      "inputs": [
        {
          "internalType": "uint256",
          "name": "qTC_",
          "type": "uint256"
        }
      ],
      "name": "mintTC",
      "outputs": [
        {
          "internalType": "uint256",
          "name": "qACtotalNeeded",
          "type": "uint256"
        },
        {
          "internalType": "uint256",
          "name": "qFeeToken",
          "type": "uint256"
        }
      ],
      "stateMutability": "payable",
      "type": "function"
    },
    {
      "inputs": [
        {
          "internalType": "uint256",
          "name": "qTC_",
          "type": "uint256"
        },
        {
          "internalType": "address",
          "name": "vendor_",
          "type": "address"
        }
      ],
      "name": "mintTCViaVendor",
      "outputs": [
        {
          "internalType": "uint256",
          "name": "qACtotalNeeded",
          "type": "uint256"
        },
        {
          "internalType": "uint256",
          "name": "qFeeToken",
          "type": "uint256"
        }
      ],
      "stateMutability": "payable",
      "type": "function"
    },
    {
      "inputs": [
        {
          "internalType": "address",
          "name": "tp_",
          "type": "address"
        },
        {
          "internalType": "uint256",
          "name": "qTP_",
          "type": "uint256"
        }
      ],
      "name": "mintTCandTP",
      "outputs": [
        {
          "internalType": "uint256",
          "name": "qACtotalNeeded",
          "type": "uint256"
        },
        {
          "internalType": "uint256",
          "name": "qTCMinted",
          "type": "uint256"
        },
        {
          "internalType": "uint256",
          "name": "qFeeToken",
          "type": "uint256"
        }
      ],
      "stateMutability": "payable",
      "type": "function"
    },
    {
      "inputs": [],
      "name": "mintTCandTPFee",
      "outputs": [
        {
          "internalType": "uint256",
          "name": "",
          "type": "uint256"
        }
      ],
      "stateMutability": "view",
      "type": "function"
    },
    {
      "inputs": [
        {
          "internalType": "address",
          "name": "tp_",
          "type": "address"
        },
        {
          "internalType": "uint256",
          "name": "qTP_",
          "type": "uint256"
        },
        {
          "internalType": "address",
          "name": "vendor_",
          "type": "address"
        }
      ],
      "name": "mintTCandTPViaVendor",
      "outputs": [
        {
          "internalType": "uint256",
          "name": "qACtotalNeeded",
          "type": "uint256"
        },
        {
          "internalType": "uint256",
          "name": "qTCMinted",
          "type": "uint256"
        },
        {
          "internalType": "uint256",
          "name": "qFeeToken",
          "type": "uint256"
        }
      ],
      "stateMutability": "payable",
      "type": "function"
    },
    {
      "inputs": [
        {
          "internalType": "address",
          "name": "tp_",
          "type": "address"
        },
        {
          "internalType": "uint256",
          "name": "qTP_",
          "type": "uint256"
        },
        {
          "internalType": "address",
          "name": "recipient_",
          "type": "address"
        }
      ],
      "name": "mintTCandTPto",
      "outputs": [
        {
          "internalType": "uint256",
          "name": "qACtotalNeeded",
          "type": "uint256"
        },
        {
          "internalType": "uint256",
          "name": "qTCMinted",
          "type": "uint256"
        },
        {
          "internalType": "uint256",
          "name": "qFeeToken",
          "type": "uint256"
        }
      ],
      "stateMutability": "payable",
      "type": "function"
    },
    {
      "inputs": [
        {
          "internalType": "address",
          "name": "tp_",
          "type": "address"
        },
        {
          "internalType": "uint256",
          "name": "qTP_",
          "type": "uint256"
        },
        {
          "internalType": "address",
          "name": "recipient_",
          "type": "address"
        },
        {
          "internalType": "address",
          "name": "vendor_",
          "type": "address"
        }
      ],
      "name": "mintTCandTPtoViaVendor",
      "outputs": [
        {
          "internalType": "uint256",
          "name": "qACtotalNeeded",
          "type": "uint256"
        },
        {
          "internalType": "uint256",
          "name": "qTCMinted",
          "type": "uint256"
        },
        {
          "internalType": "uint256",
          "name": "qFeeToken",
          "type": "uint256"
        }
      ],
      "stateMutability": "payable",
      "type": "function"
    },
    {
      "inputs": [
        {
          "internalType": "uint256",
          "name": "qTC_",
          "type": "uint256"
        },
        {
          "internalType": "address",
          "name": "recipient_",
          "type": "address"
        }
      ],
      "name": "mintTCto",
      "outputs": [
        {
          "internalType": "uint256",
          "name": "qACtotalNeeded",
          "type": "uint256"
        },
        {
          "internalType": "uint256",
          "name": "qFeeToken",
          "type": "uint256"
        }
      ],
      "stateMutability": "payable",
      "type": "function"
    },
    {
      "inputs": [
        {
          "internalType": "uint256",
          "name": "qTC_",
          "type": "uint256"
        },
        {
          "internalType": "address",
          "name": "recipient_",
          "type": "address"
        },
        {
          "internalType": "address",
          "name": "vendor_",
          "type": "address"
        }
      ],
      "name": "mintTCtoViaVendor",
      "outputs": [
        {
          "internalType": "uint256",
          "name": "qACtotalNeeded",
          "type": "uint256"
        },
        {
          "internalType": "uint256",
          "name": "qFeeToken",
          "type": "uint256"
        }
      ],
      "stateMutability": "payable",
      "type": "function"
    },
    {
      "inputs": [
        {
          "internalType": "address",
          "name": "tp_",
          "type": "address"
        },
        {
          "internalType": "uint256",
          "name": "qTP_",
          "type": "uint256"
        }
      ],
      "name": "mintTP",
      "outputs": [
        {
          "internalType": "uint256",
          "name": "qACtotalNeeded",
          "type": "uint256"
        },
        {
          "internalType": "uint256",
          "name": "qFeeToken",
          "type": "uint256"
        }
      ],
      "stateMutability": "payable",
      "type": "function"
    },
    {
      "inputs": [
        {
          "internalType": "address",
          "name": "tp_",
          "type": "address"
        },
        {
          "internalType": "uint256",
          "name": "qTP_",
          "type": "uint256"
        },
        {
          "internalType": "address",
          "name": "vendor_",
          "type": "address"
        }
      ],
      "name": "mintTPViaVendor",
      "outputs": [
        {
          "internalType": "uint256",
          "name": "qACtotalNeeded",
          "type": "uint256"
        },
        {
          "internalType": "uint256",
          "name": "qFeeToken",
          "type": "uint256"
        }
      ],
      "stateMutability": "payable",
      "type": "function"
    },
    {
      "inputs": [
        {
          "internalType": "address",
          "name": "tp_",
          "type": "address"
        },
        {
          "internalType": "uint256",
          "name": "qTP_",
          "type": "uint256"
        },
        {
          "internalType": "address",
          "name": "recipient_",
          "type": "address"
        }
      ],
      "name": "mintTPto",
      "outputs": [
        {
          "internalType": "uint256",
          "name": "qACtotalNeeded",
          "type": "uint256"
        },
        {
          "internalType": "uint256",
          "name": "qFeeToken",
          "type": "uint256"
        }
      ],
      "stateMutability": "payable",
      "type": "function"
    },
    {
      "inputs": [
        {
          "internalType": "address",
          "name": "tp_",
          "type": "address"
        },
        {
          "internalType": "uint256",
          "name": "qTP_",
          "type": "uint256"
        },
        {
          "internalType": "address",
          "name": "recipient_",
          "type": "address"
        },
        {
          "internalType": "address",
          "name": "vendor_",
          "type": "address"
        }
      ],
      "name": "mintTPtoViaVendor",
      "outputs": [
        {
          "internalType": "uint256",
          "name": "qACtotalNeeded",
          "type": "uint256"
        },
        {
          "internalType": "uint256",
          "name": "qFeeToken",
          "type": "uint256"
        }
      ],
      "stateMutability": "payable",
      "type": "function"
    },
    {
      "inputs": [],
      "name": "mocAppreciationBeneficiaryAddress",
      "outputs": [
        {
          "internalType": "address",
          "name": "",
          "type": "address"
        }
      ],
      "stateMutability": "view",
      "type": "function"
    },
    {
      "inputs": [],
      "name": "mocFeeFlowAddress",
      "outputs": [
        {
          "internalType": "address",
          "name": "",
          "type": "address"
        }
      ],
      "stateMutability": "view",
      "type": "function"
    },
    {
      "inputs": [],
      "name": "mocVendors",
      "outputs": [
        {
          "internalType": "contract MocVendors",
          "name": "",
          "type": "address"
        }
      ],
      "stateMutability": "view",
      "type": "function"
    },
    {
      "inputs": [],
      "name": "nACcb",
      "outputs": [
        {
          "internalType": "uint256",
          "name": "",
          "type": "uint256"
        }
      ],
      "stateMutability": "view",
      "type": "function"
    },
    {
      "inputs": [],
      "name": "nTCcb",
      "outputs": [
        {
          "internalType": "uint256",
          "name": "",
          "type": "uint256"
        }
      ],
      "stateMutability": "view",
      "type": "function"
    },
    {
      "inputs": [],
      "name": "newVariable",
      "outputs": [
        {
          "internalType": "uint256",
          "name": "",
          "type": "uint256"
        }
      ],
      "stateMutability": "view",
      "type": "function"
    },
    {
      "inputs": [],
      "name": "nextEmaCalculation",
      "outputs": [
        {
          "internalType": "uint256",
          "name": "",
          "type": "uint256"
        }
      ],
      "stateMutability": "view",
      "type": "function"
    },
    {
      "inputs": [],
      "name": "nextTCInterestPayment",
      "outputs": [
        {
          "internalType": "uint256",
          "name": "",
          "type": "uint256"
        }
      ],
      "stateMutability": "view",
      "type": "function"
    },
    {
      "inputs": [],
      "name": "pause",
      "outputs": [],
      "stateMutability": "nonpayable",
      "type": "function"
    },
    {
      "inputs": [],
      "name": "paused",
      "outputs": [
        {
          "internalType": "bool",
          "name": "",
          "type": "bool"
        }
      ],
      "stateMutability": "view",
      "type": "function"
    },
    {
      "inputs": [],
      "name": "pauser",
      "outputs": [
        {
          "internalType": "address",
          "name": "",
          "type": "address"
        }
      ],
      "stateMutability": "view",
      "type": "function"
    },
    {
      "inputs": [
        {
          "internalType": "uint256",
          "name": "",
          "type": "uint256"
        }
      ],
      "name": "pegContainer",
      "outputs": [
        {
          "internalType": "uint256",
          "name": "nTP",
          "type": "uint256"
        },
        {
          "internalType": "contract IPriceProvider",
          "name": "priceProvider",
          "type": "address"
        }
      ],
      "stateMutability": "view",
      "type": "function"
    },
    {
      "inputs": [
        {
          "internalType": "address",
          "name": "",
          "type": "address"
        }
      ],
      "name": "peggedTokenIndex",
      "outputs": [
        {
          "internalType": "uint256",
          "name": "index",
          "type": "uint256"
        },
        {
          "internalType": "bool",
          "name": "exists",
          "type": "bool"
        }
      ],
      "stateMutability": "view",
      "type": "function"
    },
    {
      "inputs": [],
      "name": "protThrld",
      "outputs": [
        {
          "internalType": "uint256",
          "name": "",
          "type": "uint256"
        }
      ],
      "stateMutability": "view",
      "type": "function"
    },
    {
      "inputs": [],
      "name": "proxiableUUID",
      "outputs": [
        {
          "internalType": "bytes32",
          "name": "",
          "type": "bytes32"
        }
      ],
      "stateMutability": "view",
      "type": "function"
    },
    {
      "inputs": [
        {
          "internalType": "uint256",
          "name": "qTC_",
          "type": "uint256"
        },
        {
          "internalType": "uint256",
          "name": "qACmin_",
          "type": "uint256"
        }
      ],
      "name": "redeemTC",
      "outputs": [
        {
          "internalType": "uint256",
          "name": "qACRedeemed",
          "type": "uint256"
        },
        {
          "internalType": "uint256",
          "name": "qFeeToken",
          "type": "uint256"
        }
      ],
      "stateMutability": "nonpayable",
      "type": "function"
    },
    {
      "inputs": [
        {
          "internalType": "uint256",
          "name": "qTC_",
          "type": "uint256"
        },
        {
          "internalType": "uint256",
          "name": "qACmin_",
          "type": "uint256"
        },
        {
          "internalType": "address",
          "name": "vendor_",
          "type": "address"
        }
      ],
      "name": "redeemTCViaVendor",
      "outputs": [
        {
          "internalType": "uint256",
          "name": "qACRedeemed",
          "type": "uint256"
        },
        {
          "internalType": "uint256",
          "name": "qFeeToken",
          "type": "uint256"
        }
      ],
      "stateMutability": "nonpayable",
      "type": "function"
    },
    {
      "inputs": [
        {
          "internalType": "address",
          "name": "tp_",
          "type": "address"
        },
        {
          "internalType": "uint256",
          "name": "qTC_",
          "type": "uint256"
        },
        {
          "internalType": "uint256",
          "name": "qTP_",
          "type": "uint256"
        },
        {
          "internalType": "uint256",
          "name": "qACmin_",
          "type": "uint256"
        }
      ],
      "name": "redeemTCandTP",
      "outputs": [
        {
          "internalType": "uint256",
          "name": "qACRedeemed",
          "type": "uint256"
        },
        {
          "internalType": "uint256",
          "name": "qTPRedeemed",
          "type": "uint256"
        },
        {
          "internalType": "uint256",
          "name": "qFeeToken",
          "type": "uint256"
        }
      ],
      "stateMutability": "nonpayable",
      "type": "function"
    },
    {
      "inputs": [],
      "name": "redeemTCandTPFee",
      "outputs": [
        {
          "internalType": "uint256",
          "name": "",
          "type": "uint256"
        }
      ],
      "stateMutability": "view",
      "type": "function"
    },
    {
      "inputs": [
        {
          "internalType": "address",
          "name": "tp_",
          "type": "address"
        },
        {
          "internalType": "uint256",
          "name": "qTC_",
          "type": "uint256"
        },
        {
          "internalType": "uint256",
          "name": "qTP_",
          "type": "uint256"
        },
        {
          "internalType": "uint256",
          "name": "qACmin_",
          "type": "uint256"
        },
        {
          "internalType": "address",
          "name": "vendor_",
          "type": "address"
        }
      ],
      "name": "redeemTCandTPViaVendor",
      "outputs": [
        {
          "internalType": "uint256",
          "name": "qACRedeemed",
          "type": "uint256"
        },
        {
          "internalType": "uint256",
          "name": "qTPRedeemed",
          "type": "uint256"
        },
        {
          "internalType": "uint256",
          "name": "qFeeToken",
          "type": "uint256"
        }
      ],
      "stateMutability": "nonpayable",
      "type": "function"
    },
    {
      "inputs": [
        {
          "internalType": "address",
          "name": "tp_",
          "type": "address"
        },
        {
          "internalType": "uint256",
          "name": "qTC_",
          "type": "uint256"
        },
        {
          "internalType": "uint256",
          "name": "qTP_",
          "type": "uint256"
        },
        {
          "internalType": "uint256",
          "name": "qACmin_",
          "type": "uint256"
        },
        {
          "internalType": "address",
          "name": "recipient_",
          "type": "address"
        }
      ],
      "name": "redeemTCandTPto",
      "outputs": [
        {
          "internalType": "uint256",
          "name": "qACRedeemed",
          "type": "uint256"
        },
        {
          "internalType": "uint256",
          "name": "qTPRedeemed",
          "type": "uint256"
        },
        {
          "internalType": "uint256",
          "name": "qFeeToken",
          "type": "uint256"
        }
      ],
      "stateMutability": "nonpayable",
      "type": "function"
    },
    {
      "inputs": [
        {
          "internalType": "address",
          "name": "tp_",
          "type": "address"
        },
        {
          "internalType": "uint256",
          "name": "qTC_",
          "type": "uint256"
        },
        {
          "internalType": "uint256",
          "name": "qTP_",
          "type": "uint256"
        },
        {
          "internalType": "uint256",
          "name": "qACmin_",
          "type": "uint256"
        },
        {
          "internalType": "address",
          "name": "recipient_",
          "type": "address"
        },
        {
          "internalType": "address",
          "name": "vendor_",
          "type": "address"
        }
      ],
      "name": "redeemTCandTPtoViaVendor",
      "outputs": [
        {
          "internalType": "uint256",
          "name": "qACRedeemed",
          "type": "uint256"
        },
        {
          "internalType": "uint256",
          "name": "qTPRedeemed",
          "type": "uint256"
        },
        {
          "internalType": "uint256",
          "name": "qFeeToken",
          "type": "uint256"
        }
      ],
      "stateMutability": "nonpayable",
      "type": "function"
    },
    {
      "inputs": [
        {
          "internalType": "uint256",
          "name": "qTC_",
          "type": "uint256"
        },
        {
          "internalType": "uint256",
          "name": "qACmin_",
          "type": "uint256"
        },
        {
          "internalType": "address",
          "name": "recipient_",
          "type": "address"
        }
      ],
      "name": "redeemTCto",
      "outputs": [
        {
          "internalType": "uint256",
          "name": "qACRedeemed",
          "type": "uint256"
        },
        {
          "internalType": "uint256",
          "name": "qFeeToken",
          "type": "uint256"
        }
      ],
      "stateMutability": "nonpayable",
      "type": "function"
    },
    {
      "inputs": [
        {
          "internalType": "uint256",
          "name": "qTC_",
          "type": "uint256"
        },
        {
          "internalType": "uint256",
          "name": "qACmin_",
          "type": "uint256"
        },
        {
          "internalType": "address",
          "name": "recipient_",
          "type": "address"
        },
        {
          "internalType": "address",
          "name": "vendor_",
          "type": "address"
        }
      ],
      "name": "redeemTCtoViaVendor",
      "outputs": [
        {
          "internalType": "uint256",
          "name": "qACRedeemed",
          "type": "uint256"
        },
        {
          "internalType": "uint256",
          "name": "qFeeToken",
          "type": "uint256"
        }
      ],
      "stateMutability": "nonpayable",
      "type": "function"
    },
    {
      "inputs": [
        {
          "internalType": "address",
          "name": "tp_",
          "type": "address"
        },
        {
          "internalType": "uint256",
          "name": "qTP_",
          "type": "uint256"
        },
        {
          "internalType": "uint256",
          "name": "qACmin_",
          "type": "uint256"
        }
      ],
      "name": "redeemTP",
      "outputs": [
        {
          "internalType": "uint256",
          "name": "qACRedeemed",
          "type": "uint256"
        },
        {
          "internalType": "uint256",
          "name": "qFeeToken",
          "type": "uint256"
        }
      ],
      "stateMutability": "nonpayable",
      "type": "function"
    },
    {
      "inputs": [
        {
          "internalType": "address",
          "name": "tp_",
          "type": "address"
        },
        {
          "internalType": "uint256",
          "name": "qTP_",
          "type": "uint256"
        },
        {
          "internalType": "uint256",
          "name": "qACmin_",
          "type": "uint256"
        },
        {
          "internalType": "address",
          "name": "vendor_",
          "type": "address"
        }
      ],
      "name": "redeemTPViaVendor",
      "outputs": [
        {
          "internalType": "uint256",
          "name": "qACRedeemed",
          "type": "uint256"
        },
        {
          "internalType": "uint256",
          "name": "qFeeToken",
          "type": "uint256"
        }
      ],
      "stateMutability": "nonpayable",
      "type": "function"
    },
    {
      "inputs": [
        {
          "internalType": "address",
          "name": "tp_",
          "type": "address"
        },
        {
          "internalType": "uint256",
          "name": "qTP_",
          "type": "uint256"
        },
        {
          "internalType": "uint256",
          "name": "qACmin_",
          "type": "uint256"
        },
        {
          "internalType": "address",
          "name": "recipient_",
          "type": "address"
        }
      ],
      "name": "redeemTPto",
      "outputs": [
        {
          "internalType": "uint256",
          "name": "qACRedeemed",
          "type": "uint256"
        },
        {
          "internalType": "uint256",
          "name": "qFeeToken",
          "type": "uint256"
        }
      ],
      "stateMutability": "nonpayable",
      "type": "function"
    },
    {
      "inputs": [
        {
          "internalType": "address",
          "name": "tp_",
          "type": "address"
        },
        {
          "internalType": "uint256",
          "name": "qTP_",
          "type": "uint256"
        },
        {
          "internalType": "uint256",
          "name": "qACmin_",
          "type": "uint256"
        },
        {
          "internalType": "address",
          "name": "recipient_",
          "type": "address"
        },
        {
          "internalType": "address",
          "name": "vendor_",
          "type": "address"
        }
      ],
      "name": "redeemTPtoViaVendor",
      "outputs": [
        {
          "internalType": "uint256",
          "name": "qACRedeemed",
          "type": "uint256"
        },
        {
          "internalType": "uint256",
          "name": "qFeeToken",
          "type": "uint256"
        }
      ],
      "stateMutability": "nonpayable",
      "type": "function"
    },
    {
      "inputs": [
        {
          "internalType": "uint256",
          "name": "appreciationFactor_",
          "type": "uint256"
        }
      ],
      "name": "setAppreciationFactor",
      "outputs": [],
      "stateMutability": "nonpayable",
      "type": "function"
    },
    {
      "inputs": [
        {
          "internalType": "uint256",
          "name": "bes_",
          "type": "uint256"
        }
      ],
      "name": "setBes",
      "outputs": [],
      "stateMutability": "nonpayable",
      "type": "function"
    },
    {
      "inputs": [
        {
          "internalType": "uint256",
          "name": "decayBlockSpan_",
          "type": "uint256"
        }
      ],
      "name": "setDecayBlockSpan",
      "outputs": [],
      "stateMutability": "nonpayable",
      "type": "function"
    },
    {
      "inputs": [
        {
          "internalType": "uint256",
          "name": "blockSpan_",
          "type": "uint256"
        }
      ],
      "name": "setEmaCalculationBlockSpan",
      "outputs": [],
      "stateMutability": "nonpayable",
      "type": "function"
    },
    {
      "inputs": [
        {
          "internalType": "uint256",
          "name": "feeRetainer_",
          "type": "uint256"
        }
      ],
      "name": "setFeeRetainer",
      "outputs": [],
      "stateMutability": "nonpayable",
      "type": "function"
    },
    {
      "inputs": [
        {
          "internalType": "address",
          "name": "mocFeeTokenAddress_",
          "type": "address"
        }
      ],
      "name": "setFeeTokenAddress",
      "outputs": [],
      "stateMutability": "nonpayable",
      "type": "function"
    },
    {
      "inputs": [
        {
          "internalType": "uint256",
          "name": "feeTokenPct_",
          "type": "uint256"
        }
      ],
      "name": "setFeeTokenPct",
      "outputs": [],
      "stateMutability": "nonpayable",
      "type": "function"
    },
    {
      "inputs": [
        {
          "internalType": "address",
          "name": "mocFeeTokenPriceProviderAddress_",
          "type": "address"
        }
      ],
      "name": "setFeeTokenPriceProviderAddress",
      "outputs": [],
      "stateMutability": "nonpayable",
      "type": "function"
    },
    {
      "inputs": [
        {
          "internalType": "bool",
          "name": "liqEnabled_",
          "type": "bool"
        }
      ],
      "name": "setLiqEnabled",
      "outputs": [],
      "stateMutability": "nonpayable",
      "type": "function"
    },
    {
      "inputs": [
        {
          "internalType": "uint256",
          "name": "liqThrld_",
          "type": "uint256"
        }
      ],
      "name": "setLiqThrld",
      "outputs": [],
      "stateMutability": "nonpayable",
      "type": "function"
    },
    {
      "inputs": [
        {
          "internalType": "address",
          "name": "maxAbsoluteOpProviderAddress_",
          "type": "address"
        }
      ],
      "name": "setMaxAbsoluteOpProviderAddress",
      "outputs": [],
      "stateMutability": "nonpayable",
      "type": "function"
    },
    {
      "inputs": [
        {
          "internalType": "address",
          "name": "maxOpDiffProviderAddress_",
          "type": "address"
        }
      ],
      "name": "setMaxOpDiffProviderAddress",
      "outputs": [],
      "stateMutability": "nonpayable",
      "type": "function"
    },
    {
      "inputs": [
        {
          "internalType": "uint256",
          "name": "mintTCandTPFee_",
          "type": "uint256"
        }
      ],
      "name": "setMintTCandTPFee",
      "outputs": [],
      "stateMutability": "nonpayable",
      "type": "function"
    },
    {
      "inputs": [
        {
          "internalType": "address",
          "name": "mocAppreciationBeneficiaryAddress_",
          "type": "address"
        }
      ],
      "name": "setMocAppreciationBeneficiaryAddress",
      "outputs": [],
      "stateMutability": "nonpayable",
      "type": "function"
    },
    {
      "inputs": [
        {
          "internalType": "address",
          "name": "mocCoreExpansion_",
          "type": "address"
        }
      ],
      "name": "setMocCoreExpansion",
      "outputs": [],
      "stateMutability": "nonpayable",
      "type": "function"
    },
    {
      "inputs": [
        {
          "internalType": "address",
          "name": "mocFeeFlowAddress_",
          "type": "address"
        }
      ],
      "name": "setMocFeeFlowAddress",
      "outputs": [],
      "stateMutability": "nonpayable",
      "type": "function"
    },
    {
      "inputs": [
        {
          "internalType": "address",
          "name": "mocVendors_",
          "type": "address"
        }
      ],
      "name": "setMocVendors",
      "outputs": [],
      "stateMutability": "nonpayable",
      "type": "function"
    },
    {
      "inputs": [
        {
          "internalType": "address",
          "name": "newPauser_",
          "type": "address"
        }
      ],
      "name": "setPauser",
      "outputs": [],
      "stateMutability": "nonpayable",
      "type": "function"
    },
    {
      "inputs": [
        {
          "internalType": "uint256",
          "name": "protThrld_",
          "type": "uint256"
        }
      ],
      "name": "setProtThrld",
      "outputs": [],
      "stateMutability": "nonpayable",
      "type": "function"
    },
    {
      "inputs": [
        {
          "internalType": "uint256",
          "name": "redeemTCandTPFee_",
          "type": "uint256"
        }
      ],
      "name": "setRedeemTCandTPFee",
      "outputs": [],
      "stateMutability": "nonpayable",
      "type": "function"
    },
    {
      "inputs": [
        {
          "internalType": "uint256",
          "name": "successFee_",
          "type": "uint256"
        }
      ],
      "name": "setSuccessFee",
      "outputs": [],
      "stateMutability": "nonpayable",
      "type": "function"
    },
    {
      "inputs": [
        {
          "internalType": "uint256",
          "name": "swapTCforTPFee_",
          "type": "uint256"
        }
      ],
      "name": "setSwapTCforTPFee",
      "outputs": [],
      "stateMutability": "nonpayable",
      "type": "function"
    },
    {
      "inputs": [
        {
          "internalType": "uint256",
          "name": "swapTPforTCFee_",
          "type": "uint256"
        }
      ],
      "name": "setSwapTPforTCFee",
      "outputs": [],
      "stateMutability": "nonpayable",
      "type": "function"
    },
    {
      "inputs": [
        {
          "internalType": "uint256",
          "name": "swapTPforTPFee_",
          "type": "uint256"
        }
      ],
      "name": "setSwapTPforTPFee",
      "outputs": [],
      "stateMutability": "nonpayable",
      "type": "function"
    },
    {
      "inputs": [
        {
          "internalType": "address",
          "name": "tcInterestCollectorAddress_",
          "type": "address"
        }
      ],
      "name": "setTCInterestCollectorAddress",
      "outputs": [],
      "stateMutability": "nonpayable",
      "type": "function"
    },
    {
      "inputs": [
        {
          "internalType": "uint256",
          "name": "tcInterestPaymentBlockSpan_",
          "type": "uint256"
        }
      ],
      "name": "setTCInterestPaymentBlockSpan",
      "outputs": [],
      "stateMutability": "nonpayable",
      "type": "function"
    },
    {
      "inputs": [
        {
          "internalType": "uint256",
          "name": "tcInterestRate_",
          "type": "uint256"
        }
      ],
      "name": "setTCInterestRate",
      "outputs": [],
      "stateMutability": "nonpayable",
      "type": "function"
    },
    {
      "inputs": [
        {
          "internalType": "uint256",
          "name": "tcMintFee_",
          "type": "uint256"
        }
      ],
      "name": "setTcMintFee",
      "outputs": [],
      "stateMutability": "nonpayable",
      "type": "function"
    },
    {
      "inputs": [
        {
          "internalType": "uint256",
          "name": "tcRedeemFee_",
          "type": "uint256"
        }
      ],
      "name": "setTcRedeemFee",
      "outputs": [],
      "stateMutability": "nonpayable",
      "type": "function"
    },
    {
      "inputs": [],
      "name": "shouldCalculateEma",
      "outputs": [
        {
          "internalType": "bool",
          "name": "",
          "type": "bool"
        }
      ],
      "stateMutability": "view",
      "type": "function"
    },
    {
      "inputs": [],
      "name": "stoppable",
      "outputs": [
        {
          "internalType": "bool",
          "name": "",
          "type": "bool"
        }
      ],
      "stateMutability": "view",
      "type": "function"
    },
    {
      "inputs": [],
      "name": "successFee",
      "outputs": [
        {
          "internalType": "uint256",
          "name": "",
          "type": "uint256"
        }
      ],
      "stateMutability": "view",
      "type": "function"
    },
    {
      "inputs": [
        {
          "internalType": "address",
          "name": "tp_",
          "type": "address"
        },
        {
          "internalType": "uint256",
          "name": "qTC_",
          "type": "uint256"
        },
        {
          "internalType": "uint256",
          "name": "qTPmin_",
          "type": "uint256"
        }
      ],
      "name": "swapTCforTP",
      "outputs": [
        {
          "internalType": "uint256",
          "name": "qACFee",
          "type": "uint256"
        },
        {
          "internalType": "uint256",
          "name": "qTPMinted",
          "type": "uint256"
        },
        {
          "internalType": "uint256",
          "name": "qFeeToken",
          "type": "uint256"
        }
      ],
      "stateMutability": "payable",
      "type": "function"
    },
    {
      "inputs": [],
      "name": "swapTCforTPFee",
      "outputs": [
        {
          "internalType": "uint256",
          "name": "",
          "type": "uint256"
        }
      ],
      "stateMutability": "view",
      "type": "function"
    },
    {
      "inputs": [
        {
          "internalType": "address",
          "name": "tp_",
          "type": "address"
        },
        {
          "internalType": "uint256",
          "name": "qTC_",
          "type": "uint256"
        },
        {
          "internalType": "uint256",
          "name": "qTPmin_",
          "type": "uint256"
        },
        {
          "internalType": "address",
          "name": "vendor_",
          "type": "address"
        }
      ],
      "name": "swapTCforTPViaVendor",
      "outputs": [
        {
          "internalType": "uint256",
          "name": "qACFee",
          "type": "uint256"
        },
        {
          "internalType": "uint256",
          "name": "qTPMinted",
          "type": "uint256"
        },
        {
          "internalType": "uint256",
          "name": "qFeeToken",
          "type": "uint256"
        }
      ],
      "stateMutability": "payable",
      "type": "function"
    },
    {
      "inputs": [
        {
          "internalType": "address",
          "name": "tp_",
          "type": "address"
        },
        {
          "internalType": "uint256",
          "name": "qTC_",
          "type": "uint256"
        },
        {
          "internalType": "uint256",
          "name": "qTPmin_",
          "type": "uint256"
        },
        {
          "internalType": "address",
          "name": "recipient_",
          "type": "address"
        }
      ],
      "name": "swapTCforTPto",
      "outputs": [
        {
          "internalType": "uint256",
          "name": "qACFee",
          "type": "uint256"
        },
        {
          "internalType": "uint256",
          "name": "qTPMinted",
          "type": "uint256"
        },
        {
          "internalType": "uint256",
          "name": "qFeeToken",
          "type": "uint256"
        }
      ],
      "stateMutability": "payable",
      "type": "function"
    },
    {
      "inputs": [
        {
          "internalType": "address",
          "name": "tp_",
          "type": "address"
        },
        {
          "internalType": "uint256",
          "name": "qTC_",
          "type": "uint256"
        },
        {
          "internalType": "uint256",
          "name": "qTPmin_",
          "type": "uint256"
        },
        {
          "internalType": "address",
          "name": "recipient_",
          "type": "address"
        },
        {
          "internalType": "address",
          "name": "vendor_",
          "type": "address"
        }
      ],
      "name": "swapTCforTPtoViaVendor",
      "outputs": [
        {
          "internalType": "uint256",
          "name": "qACFee",
          "type": "uint256"
        },
        {
          "internalType": "uint256",
          "name": "qTPMinted",
          "type": "uint256"
        },
        {
          "internalType": "uint256",
          "name": "qFeeToken",
          "type": "uint256"
        }
      ],
      "stateMutability": "payable",
      "type": "function"
    },
    {
      "inputs": [
        {
          "internalType": "address",
          "name": "tp_",
          "type": "address"
        },
        {
          "internalType": "uint256",
          "name": "qTP_",
          "type": "uint256"
        },
        {
          "internalType": "uint256",
          "name": "qTCmin_",
          "type": "uint256"
        }
      ],
      "name": "swapTPforTC",
      "outputs": [
        {
          "internalType": "uint256",
          "name": "qACFee",
          "type": "uint256"
        },
        {
          "internalType": "uint256",
          "name": "qTCMinted",
          "type": "uint256"
        },
        {
          "internalType": "uint256",
          "name": "qFeeToken",
          "type": "uint256"
        }
      ],
      "stateMutability": "payable",
      "type": "function"
    },
    {
      "inputs": [],
      "name": "swapTPforTCFee",
      "outputs": [
        {
          "internalType": "uint256",
          "name": "",
          "type": "uint256"
        }
      ],
      "stateMutability": "view",
      "type": "function"
    },
    {
      "inputs": [
        {
          "internalType": "address",
          "name": "tp_",
          "type": "address"
        },
        {
          "internalType": "uint256",
          "name": "qTP_",
          "type": "uint256"
        },
        {
          "internalType": "uint256",
          "name": "qTCmin_",
          "type": "uint256"
        },
        {
          "internalType": "address",
          "name": "vendor_",
          "type": "address"
        }
      ],
      "name": "swapTPforTCViaVendor",
      "outputs": [
        {
          "internalType": "uint256",
          "name": "qACFee",
          "type": "uint256"
        },
        {
          "internalType": "uint256",
          "name": "qTCMinted",
          "type": "uint256"
        },
        {
          "internalType": "uint256",
          "name": "qFeeToken",
          "type": "uint256"
        }
      ],
      "stateMutability": "payable",
      "type": "function"
    },
    {
      "inputs": [
        {
          "internalType": "address",
          "name": "tp_",
          "type": "address"
        },
        {
          "internalType": "uint256",
          "name": "qTP_",
          "type": "uint256"
        },
        {
          "internalType": "uint256",
          "name": "qTCmin_",
          "type": "uint256"
        },
        {
          "internalType": "address",
          "name": "recipient_",
          "type": "address"
        }
      ],
      "name": "swapTPforTCto",
      "outputs": [
        {
          "internalType": "uint256",
          "name": "qACFee",
          "type": "uint256"
        },
        {
          "internalType": "uint256",
          "name": "qTCMinted",
          "type": "uint256"
        },
        {
          "internalType": "uint256",
          "name": "qFeeToken",
          "type": "uint256"
        }
      ],
      "stateMutability": "payable",
      "type": "function"
    },
    {
      "inputs": [
        {
          "internalType": "address",
          "name": "tp_",
          "type": "address"
        },
        {
          "internalType": "uint256",
          "name": "qTP_",
          "type": "uint256"
        },
        {
          "internalType": "uint256",
          "name": "qTCmin_",
          "type": "uint256"
        },
        {
          "internalType": "address",
          "name": "recipient_",
          "type": "address"
        },
        {
          "internalType": "address",
          "name": "vendor_",
          "type": "address"
        }
      ],
      "name": "swapTPforTCtoViaVendor",
      "outputs": [
        {
          "internalType": "uint256",
          "name": "qACFee",
          "type": "uint256"
        },
        {
          "internalType": "uint256",
          "name": "qTCMinted",
          "type": "uint256"
        },
        {
          "internalType": "uint256",
          "name": "qFeeToken",
          "type": "uint256"
        }
      ],
      "stateMutability": "payable",
      "type": "function"
    },
    {
      "inputs": [
        {
          "internalType": "address",
          "name": "tpFrom_",
          "type": "address"
        },
        {
          "internalType": "address",
          "name": "tpTo_",
          "type": "address"
        },
        {
          "internalType": "uint256",
          "name": "qTP_",
          "type": "uint256"
        },
        {
          "internalType": "uint256",
          "name": "qTPmin_",
          "type": "uint256"
        }
      ],
      "name": "swapTPforTP",
      "outputs": [
        {
          "internalType": "uint256",
          "name": "qACFee",
          "type": "uint256"
        },
        {
          "internalType": "uint256",
          "name": "qTPMinted",
          "type": "uint256"
        },
        {
          "internalType": "uint256",
          "name": "qFeeToken",
          "type": "uint256"
        }
      ],
      "stateMutability": "payable",
      "type": "function"
    },
    {
      "inputs": [],
      "name": "swapTPforTPFee",
      "outputs": [
        {
          "internalType": "uint256",
          "name": "",
          "type": "uint256"
        }
      ],
      "stateMutability": "view",
      "type": "function"
    },
    {
      "inputs": [
        {
          "internalType": "address",
          "name": "tpFrom_",
          "type": "address"
        },
        {
          "internalType": "address",
          "name": "tpTo_",
          "type": "address"
        },
        {
          "internalType": "uint256",
          "name": "qTP_",
          "type": "uint256"
        },
        {
          "internalType": "uint256",
          "name": "qTPmin_",
          "type": "uint256"
        },
        {
          "internalType": "address",
          "name": "vendor_",
          "type": "address"
        }
      ],
      "name": "swapTPforTPViaVendor",
      "outputs": [
        {
          "internalType": "uint256",
          "name": "qACFee",
          "type": "uint256"
        },
        {
          "internalType": "uint256",
          "name": "qTPMinted",
          "type": "uint256"
        },
        {
          "internalType": "uint256",
          "name": "qFeeToken",
          "type": "uint256"
        }
      ],
      "stateMutability": "payable",
      "type": "function"
    },
    {
      "inputs": [
        {
          "internalType": "address",
          "name": "tpFrom_",
          "type": "address"
        },
        {
          "internalType": "address",
          "name": "tpTo_",
          "type": "address"
        },
        {
          "internalType": "uint256",
          "name": "qTP_",
          "type": "uint256"
        },
        {
          "internalType": "uint256",
          "name": "qTPmin_",
          "type": "uint256"
        },
        {
          "internalType": "address",
          "name": "recipient_",
          "type": "address"
        }
      ],
      "name": "swapTPforTPto",
      "outputs": [
        {
          "internalType": "uint256",
          "name": "qACFee",
          "type": "uint256"
        },
        {
          "internalType": "uint256",
          "name": "qTPMinted",
          "type": "uint256"
        },
        {
          "internalType": "uint256",
          "name": "qFeeToken",
          "type": "uint256"
        }
      ],
      "stateMutability": "payable",
      "type": "function"
    },
    {
      "inputs": [
        {
          "internalType": "address",
          "name": "tpFrom_",
          "type": "address"
        },
        {
          "internalType": "address",
          "name": "tpTo_",
          "type": "address"
        },
        {
          "internalType": "uint256",
          "name": "qTP_",
          "type": "uint256"
        },
        {
          "internalType": "uint256",
          "name": "qTPmin_",
          "type": "uint256"
        },
        {
          "internalType": "address",
          "name": "recipient_",
          "type": "address"
        },
        {
          "internalType": "address",
          "name": "vendor_",
          "type": "address"
        }
      ],
      "name": "swapTPforTPtoViaVendor",
      "outputs": [
        {
          "internalType": "uint256",
          "name": "qACFee",
          "type": "uint256"
        },
        {
          "internalType": "uint256",
          "name": "qTPMinted",
          "type": "uint256"
        },
        {
          "internalType": "uint256",
          "name": "qFeeToken",
          "type": "uint256"
        }
      ],
      "stateMutability": "payable",
      "type": "function"
    },
    {
      "inputs": [],
      "name": "tcHoldersInterestPayment",
      "outputs": [],
      "stateMutability": "nonpayable",
      "type": "function"
    },
    {
      "inputs": [],
      "name": "tcInterestCollectorAddress",
      "outputs": [
        {
          "internalType": "address",
          "name": "",
          "type": "address"
        }
      ],
      "stateMutability": "view",
      "type": "function"
    },
    {
      "inputs": [],
      "name": "tcInterestPaymentBlockSpan",
      "outputs": [
        {
          "internalType": "uint256",
          "name": "",
          "type": "uint256"
        }
      ],
      "stateMutability": "view",
      "type": "function"
    },
    {
      "inputs": [],
      "name": "tcInterestRate",
      "outputs": [
        {
          "internalType": "uint256",
          "name": "",
          "type": "uint256"
        }
      ],
      "stateMutability": "view",
      "type": "function"
    },
    {
      "inputs": [],
      "name": "tcMintFee",
      "outputs": [
        {
          "internalType": "uint256",
          "name": "",
          "type": "uint256"
        }
      ],
      "stateMutability": "view",
      "type": "function"
    },
    {
      "inputs": [],
      "name": "tcRedeemFee",
      "outputs": [
        {
          "internalType": "uint256",
          "name": "",
          "type": "uint256"
        }
      ],
      "stateMutability": "view",
      "type": "function"
    },
    {
      "inputs": [],
      "name": "tcToken",
      "outputs": [
        {
          "internalType": "contract MocTC",
          "name": "",
          "type": "address"
        }
      ],
      "stateMutability": "view",
      "type": "function"
    },
    {
      "inputs": [
        {
          "internalType": "uint256",
          "name": "",
          "type": "uint256"
        }
      ],
      "name": "tpCtarg",
      "outputs": [
        {
          "internalType": "uint256",
          "name": "",
          "type": "uint256"
        }
      ],
      "stateMutability": "view",
      "type": "function"
    },
    {
      "inputs": [
        {
          "internalType": "uint256",
          "name": "",
          "type": "uint256"
        }
      ],
      "name": "tpEma",
      "outputs": [
        {
          "internalType": "uint256",
          "name": "ema",
          "type": "uint256"
        },
        {
          "internalType": "uint256",
          "name": "sf",
          "type": "uint256"
        }
      ],
      "stateMutability": "view",
      "type": "function"
    },
    {
      "inputs": [
        {
          "internalType": "uint256",
          "name": "",
          "type": "uint256"
        }
      ],
      "name": "tpLiqPrices",
      "outputs": [
        {
          "internalType": "uint256",
          "name": "",
          "type": "uint256"
        }
      ],
      "stateMutability": "view",
      "type": "function"
    },
    {
      "inputs": [
        {
          "internalType": "address",
          "name": "",
          "type": "address"
        }
      ],
      "name": "tpMintFees",
      "outputs": [
        {
          "internalType": "uint256",
          "name": "",
          "type": "uint256"
        }
      ],
      "stateMutability": "view",
      "type": "function"
    },
    {
      "inputs": [
        {
          "internalType": "address",
          "name": "",
          "type": "address"
        }
      ],
      "name": "tpRedeemFees",
      "outputs": [
        {
          "internalType": "uint256",
          "name": "",
          "type": "uint256"
        }
      ],
      "stateMutability": "view",
      "type": "function"
    },
    {
      "inputs": [
        {
          "internalType": "uint256",
          "name": "",
          "type": "uint256"
        }
      ],
      "name": "tpTokens",
      "outputs": [
        {
          "internalType": "contract IMocRC20",
          "name": "",
          "type": "address"
        }
      ],
      "stateMutability": "view",
      "type": "function"
    },
    {
      "inputs": [],
      "name": "unpause",
      "outputs": [],
      "stateMutability": "nonpayable",
      "type": "function"
    },
    {
      "inputs": [],
      "name": "updateEmas",
      "outputs": [],
      "stateMutability": "nonpayable",
      "type": "function"
    },
    {
      "inputs": [
        {
          "internalType": "address",
          "name": "newImplementation",
          "type": "address"
        }
      ],
      "name": "upgradeTo",
      "outputs": [],
      "stateMutability": "nonpayable",
      "type": "function"
    },
    {
      "inputs": [
        {
          "internalType": "address",
          "name": "newImplementation",
          "type": "address"
        },
        {
          "internalType": "bytes",
          "name": "data",
          "type": "bytes"
        }
      ],
      "name": "upgradeToAndCall",
      "outputs": [],
      "stateMutability": "payable",
      "type": "function"
    },
    {
      "stateMutability": "payable",
      "type": "receive"
    }
  ],
  "bytecode": "0x60a08060405234620000df57306080525f549060ff8260081c166200008d575060ff8082160362000052575b604051615df29081620000e4823960805181818161239b0152818161257301526129dc0152f35b60ff90811916175f557f7f26b83ff96e1f2b6a682f133852f6798a09c465da95921460cefb3847402498602060405160ff8152a15f6200002b565b62461bcd60e51b815260206004820152602760248201527f496e697469616c697a61626c653a20636f6e747261637420697320696e697469604482015266616c697a696e6760c81b6064820152608490fd5b5f80fdfe604060808152600436101561002c575b50361561001a575f80fd5b61016361002834825461385b565b9055005b5f9060e08235811c90816301dde6ef146131eb57816301f1b684146131a45781630579188f146130fa578163073763b9146130d65781630b69640d1461303b5781630c340a24146130125781630c36d89714612ff25781630d10ebe914612f915781630d6ac46314612f4b5781630db4965614612f2b5781630e0a8fd214612f075781630f1e5e2b14612ec157816317937f9b14612e8a5781631867e2f514612e6a5781631af4b22914612e035781631fb0dda014612dda5781631fe6a7ad14612da05781632069f75314612d7c57816323b98cde14612d54578163243d56a514612d1f57816324ffaba314612ce257816327eab2a114612c9c5781632a20d57d14612c7c5781632c43bd3b14612c585781632d88af4a14612c015781632ded50f014612be157816331f64ec214612bc2578163333431fd14612ba257816333421c3814612aaf5781633424686214612a415781633659cfe6146129a75781633915edcb146129765781633b0d5fff1461290f5781633bc4ac0a146128eb5781633dbc50a9146128a25781633f4ba83a146128275781634017936a146127e0578163407f0e34146127c0578163466b89341461275d578163471a80e3146127235781634a587124146126cb5781634b746001146126815781634c6af8e8146126485781634d977e78146126285781634e1f907a146125fe5781634f0f27ee146125de5781634f1ef286146124ea57816351a9cedc146124815781635210570c1461245b57816352d1902d1461238657816352e18f8f14612330578163533a4bea146122ff578163543aeb48146122db57816357271f4d146122ab5781635860ee631461228b5781635c616a73146120835781635c975abb1461205c5781635e2a6065146120425781635ece17ef14611fb757816360009e0b14611f8d578163647846a514611f6357816364ec230a14611f3f578163662013f414611f225781636827435714611ef957816368748a4214611ea557816368a09e1314611e4557816369d9c2f214611df15781636b5488df14611dd15781636f30471f14611db15781637071346814611d8d578163735d396014611d4757816373e28af914611d235781637554fffd14611d035781637622805514611ce35781637636bb0914611c8b5781637750ba0c14611c6757816379873a2614611c1257816379f9a91c14611bf25781637a193c3114611bd25781637a4ff1d914611bae5781637a727fe814611b8e5781637af5758c14611b6a5781637cba238314611b465781637d8e031414611b075781637f01c71514611add5781637f13b99814611aa75781637f4a4fe014611a87578163826fcd5814611a645781638456cb59146119cf57816385bf95931461198957816389fd503e146119325781638acc2011146118d85781638cfa4241146118b85781638d7a72f3146118985781638e2bdb861461186e5781638f1a383a14611846578163960556f3146117da5781639853c35a146117b05781639abb14c9146117695781639ad6659d146117335781639bea71a4146116f15781639cabfc00146116a55781639fd0506d14611678578163a586419c14611185578163a8e9ac3014611162578163aea038dc14611142578163aeb41e69146110e1578163b3903b39146110ad578163b5e9ea8c14611083578163b9fa641314611063578163bb4872de1461103f578163becaca6b1461101b578163bf1ad8b114610fc3578163c00f538d14610f9f578163c039cc6914610f5d578163c0d8e15e14610ee1578163c84353c914610ebd578163cc75b04814610e65578163cf351c1d14610e1f578163d1a0faa014610e03578163d471849b14610d98578163d6af11da14610d5c578163d8233ecc14610d08578163d87aab6f14610ce8578163d8db6f5a14610ca2578163db79607214610c65578163dd9928d814610c13578163ddb6d19014610bd6578163de8d520a14610ba3578163e401294514610b46578163e4c0aaf414610b01578163e6a683e014610abb578163e6b1627c14610a77578163e7c2597814610a52578163e8859a1514610a35578163ee1f438f14610a0b578163eedd8a40146109a4578163f13f40541461097a578163f26114aa14610919578163f2808778146108f5578163f30b5614146108d5578163f375cfba146108b5578163f88b143414610845578163fa6e83bd14610825578163fadda424146107b1578163fb3bfcea1461073a578163fd80fa77146106b9575063fda70f8b14610697575061000f565b346106b557816003193601126106b55760209061016e549051908152f35b5080fd5b9050346107365761071590610732936106d3366004613386565b926106e3899392935197886132da565b60018060a01b03809516875260208701528786015260608501523360808501521660a083015260c08201523390615932565b509251918252602082015260408101919091529081906060820190565b0390f35b8280fd5b828460603660031901126107ae57506001600160a01b03602435818116908190036107aa576044359182168092036107aa5761079d9183519161077e60a0846132da565b6004358352346020840152338584015260608301526080820152613ef1565b5082519182526020820152f35b5f80fd5b80fd5b8284346107ae5760203660031901126107ae57506001600160a01b0360043581811681036107aa576107ef6107e7600192613b7d565b6101696132c1565b500154166107fc81613c25565b9190911561080e575060209151908152f35b602490835190637f6e4db960e01b82526004820152fd5b5050346106b557816003193601126106b55760209061016c549051908152f35b8284346107ae5760203660031901126107ae5750600435906001600160a01b03821682036107aa576108ae6108a0602093610889610881615b73565b919092613b7d565b916108a8610897848461387c565b51948593613890565b959094615ad0565b906148d7565b9051908152f35b5050346106b557816003193601126106b557602090610173549051908152f35b5050346106b557816003193601126106b557602090610163549051908152f35b83346107ae5760203660031901126107ae5761090f615cc8565b60043561016e5580f35b905034610736573660031901126106b55761097690610936615cc8565b516379308a5560e11b60208201526109648161095660046024830161536f565b03601f1981018352826132da565b610226546001600160a01b0316614c2d565b5080f35b5050346106b557816003193601126106b5576101625490516001600160a01b039091168152602090f35b905060603660031901126107aa576004356001600160a01b03811691908290036107aa5761073293610715926109dc855193846132da565b82526024356020830152604435848301523460608301523360808301523360a083015260c08201523390614ff7565b5050346106b557816003193601126106b5576101825490516001600160a01b039091168152602090f35b5050346106b557816003193601126106b5576020906108ae6153d0565b5050346106b557816003193601126106b55760209060ff61017d541690519015158152f35b5050346106b55760203660031901126106b5576004356101be8054821015610ab75790610aa3916132c1565b506001815491015482519182526020820152f35b8380fd5b83346107ae5760203660031901126107ae576004356001600160a01b038116908190036107aa57610aea615cc8565b61022680546001600160a01b031916909117905580f35b83346107ae5760203660031901126107ae576004356001600160a01b038116908190036106b557610b30615cc8565b6001600160601b0360a01b609754161760975580f35b8284346107ae5760603660031901126107aa576044356001600160a01b038116908190036107aa5761079d91835191610b8060a0846132da565b6004358352602435602084015233858401526060830152608082015233906153e7565b5050346106b557816003193601126106b5576020906108ae610bcb610bc6613c95565b613890565b905061016354613a58565b5050346106b55760203660031901126106b5576004356001600160a01b038116908190036107aa5782829160209452610177845220549051908152f35b8261079d610c22366004613359565b9092855193610c3260c0866132da565b6001600160a01b0391821685526020850193909352348685015233606085015291821660808401521660a08201526144f7565b905034610736573660031901126106b55761097690610c82615cc8565b51636dbcb03960e11b60208201526109648161095660046024830161536f565b83346107ae5760203660031901126107ae576004356001600160a01b038116908190036107aa57610cd1615cc8565b61018280546001600160a01b031916909117905580f35b5050346106b557816003193601126106b557602090610185549051908152f35b8284816003193601126107ae57506024356001600160a01b038116908190036107aa57815161079d91610d3c60a0836132da565b600435825234602083015233848301523360608301526080820152613ef1565b5050346106b557816003193601126106b5576020906108ae610d7e6001613cce565b610d92610d8b82846139cb565b918361391b565b91613d14565b505060603660031901126107aa576001600160a01b03600435818116908190036107aa576044359182168092036107aa576107329361071592845192610ddf60c0856132da565b835260243560208401523485840152336060840152608083015260a0820152614ab0565b83346107ae57806003193601126107ae57610e1c615c35565b80f35b83346107ae5760203660031901126107ae576004356001600160a01b038116908190036107aa57610e4e615cc8565b61016180546001600160a01b031916909117905580f35b8261071561073292610e7836600461332c565b91610e85875195866132da565b6001600160a01b039384168552602085015285840152346060840152336080840181905260a08401819052911660c083015290614ff7565b83346107ae5760203660031901126107ae57610ed7615cc8565b60043561017e5580f35b828460803660031901126107ae576001600160a01b039060043582811691908290036107aa576024359283168093036107aa576107329461071593855193610f2b610100866132da565b845260208401526044358584015260643560608401523460808401523360a08401523360c08401528201523390614c4e565b5050346106b557816003193601126106b5576020906108ae610f92610f99610f86610bc6613c95565b61016393919354613a58565b9182613a58565b90615d76565b83346107ae5760203660031901126107ae57610fb9615cc8565b60043561016f5580f35b8261071561073292610fd636600461332c565b91610fe3875195866132da565b6001600160a01b039384168552602085015285840152346060840152336080840181905260a08401819052911660c083015290614e44565b83346107ae5760203660031901126107ae57611035615cc8565b60043561016b5580f35b5050346106b557816003193601126106b55760209060ff60ca541690519015158152f35b5050346106b557816003193601126106b55760209061018b549051908152f35b5050346106b557816003193601126106b5576101835490516001600160a01b039091168152602090f35b8284816003193601126107ae576024356001600160a01b038116908190036107aa5761079d9183519161077e60a0846132da565b8284346107ae5750610715610732926110fb366004613386565b9261110b889392935196876132da565b6001600160a01b0394851686526020860152868501526060840152336080840181905260a08401819052911660c083015290615932565b5050346106b557816003193601126106b55760209061016f549051908152f35b5050346106b557816003193601126106b5576020906101bf544310159051908152f35b5050346106b5576103c03660031901126106b557815460ff8160081c16159081809261166b575b8015611654575b156115f95760ff1981166001178455816115e8575b5060ff835460081c166111da81613e6b565b610364356001600160a01b038116908190036107aa5761022680546001600160a01b03191690911790556001600160a01b0361032435908116908190036107aa57610344356001600160a01b03811681036107aa5760019161123b84613e6b565b61124484613e6b565b61124d84613e6b565b61125684613e6b565b6001600160601b0360a01b609754161760975561127283613e6b565b60ca5490620100008360b01b039060101b169061ff018360b01b031916171760ca5561129d81613e6b565b670de0b6b3a764000060a435106115d7576112b960e435615d9a565b6112c561010435615d9a565b6112d161012435615d9a565b6112dd61014435615d9a565b6112e961016435615d9a565b6112f561018435615d9a565b6113016101a435615d9a565b61130d6101c435615d9a565b6113196101e435615d9a565b61133161132c610224356102043561385b565b615d9a565b6004356001600160a01b038116908190036107aa5761016180546001600160a01b03191690911790556024356001600160a01b03811681036107aa5761016280546001600160a01b0319166001600160a01b0392831617905560443590811681036107aa5761016580546001600160a01b0319166001600160a01b0392831617905560643590811681036107aa5761017880546001600160a01b0319166001600160a01b03928316179055608435908116908190036107aa5761017980546001600160a01b031916909117905560a43561017b5560c43561017c5560e43561016d556101043561016e556101243561016f556101443561017055610164356101715561018435610172556101a435610173556101c435610174556101e435610175556102043561016b556102243561016c556102443561017e8190556001600160a01b0361026435908116908190036107aa5761018880546001600160a01b031916909117905561028435610189556102a43561018a819055906001600160a01b036102c435908116908190036107aa5761018280546001600160a01b03191690911790556001600160a01b036102e435908116908190036107aa57610183906001600160601b0360a01b82541617905561030435610184554361018755430161017f55430161018b5561017d61ffff1981541690556103843561153482613e6b565b80156115c6576101c081905543016101bf556103a4356001600160a01b03811681036107aa5761156661158892613e6b565b6101f380546001600160a01b0319166001600160a01b03909216919091179055565b611590575080f35b60207f7f26b83ff96e1f2b6a682f133852f6798a09c465da95921460cefb38474024989161ff001984541684555160018152a180f35b8351632a9ffab760e21b8152600490fd5b8251632a9ffab760e21b8152600490fd5b61ffff19166101011783555f6111c8565b825162461bcd60e51b815260206004820152602e60248201527f496e697469616c697a61626c653a20636f6e747261637420697320616c72656160448201526d191e481a5b9a5d1a585b1a5e995960921b6064820152608490fd5b50303b1580156111b35750600160ff8216146111b3565b50600160ff8216106111ac565b5050346106b557816003193601126106b55760ca54905160109190911c6001600160a01b03168152602090f35b8284346107ae5760203660031901126107ae576004356001600160a01b03811691908290036107aa57829181526101686020522060ff6001825492015416825191825215156020820152f35b8284346107ae57816003193601126107ae57506001600160a01b039060043582811681036107aa5760243592831683036107aa576020926108ae9133906152e4565b5050346106b557816003193601126106b55760209061175c611756610bc6613c95565b90613a3b565b61017c5410159051908152f35b8284346107ae57816003193601126107ae57815161079d9161178c60a0836132da565b600435825260243560208301523384830152336060830152608082015233906153e7565b5050346106b557816003193601126106b5576101785490516001600160a01b039091168152602090f35b8260603660031901126107aa576004356001600160a01b0381811692918390036107aa576044359081168091036107aa57610732926107159183519161182160c0846132da565b82526024356020830152348483015233606083015233608083015260a0820152614ab0565b5050346106b557816003193601126106b557602090611866610bc6613c95565b509051908152f35b5050346106b557816003193601126106b5576101885490516001600160a01b039091168152602090f35b5050346106b557816003193601126106b5576020906102bd549051908152f35b5050346106b557816003193601126106b55760209061017c549051908152f35b8284346107ae575061079d6118ee36600461332c565b9085939293519361190060c0866132da565b6001600160a01b039384168552602085015285840152336060840181905260808401819052911660a0830152906156a4565b8284346107ae575061079d611948366004613288565b91939086519461195960c0876132da565b60018060a01b03948580941687526020870152878601523360608601521660808401521660a082015233906156a4565b83346107ae5760203660031901126107ae576004356001600160a01b038116908190036107aa576119b8615cc8565b61018380546001600160a01b031916909117905580f35b5050346106b557816003193601126106b5576119e9615d55565b60ca54601081901c6001600160a01b03163303611a535760ff811615611a425761ff0019166101001760ca55513381527f62e78cea01bee320cd4e420270b5ea74000d11b0c9f74754ebdbfc544b05a25890602090a180f35b815163866099c360e01b8152600490fd5b8151631d77d47760e21b8152600490fd5b5050346106b557816003193601126106b5576020906108ae611756610bc6613c95565b5050346106b557816003193601126106b55760209061018a549051908152f35b5050346106b557816003193601126106b5576020906108ae611ac96001613cce565b610d92611ad6828461391b565b91836139cb565b5050346106b557816003193601126106b5576101f35490516001600160a01b039091168152602090f35b5050346106b55760203660031901126106b5576004359161017a9081548410156107ae5750602092611b389161320f565b91905490519160031b1c8152f35b83346107ae5760203660031901126107ae57611b60615cc8565b60043561017b5580f35b83346107ae5760203660031901126107ae57611b84615cc8565b6004356101725580f35b5050346106b557816003193601126106b5576020906101c0549051908152f35b83346107ae5760203660031901126107ae57611bc8615cc8565b6004356101735580f35b5050346106b557816003193601126106b557602090610166549051908152f35b5050346106b557816003193601126106b557602090610174549051908152f35b61073283610715611c24366004613359565b9092855193611c3460c0866132da565b6001600160a01b0391821685526020850193909352348685015233606085015291821660808401521660a0820152614ab0565b83346107ae5760203660031901126107ae57611c81615cc8565b60043561016d5580f35b8261071561073292611c9e366004613288565b929391611cad885196876132da565b60018060a01b03948580941687526020870152878601523460608601523360808601521660a08401521660c08201523390614ff7565b5050346106b557816003193601126106b557602090610186549051908152f35b5050346106b557816003193601126106b55760209061016b549051908152f35b83346107ae5760203660031901126107ae57611d3d615cc8565b6004356101845580f35b83346107ae5760203660031901126107ae576004356001600160a01b038116908190036107aa57611d76615cc8565b61018880546001600160a01b031916909117905580f35b83346107ae5760203660031901126107ae57611da7615cc8565b6004356101705580f35b5050346106b557816003193601126106b557602090610184549051908152f35b5050346106b557816003193601126106b55760209061017b549051908152f35b610715915061073293611e0536600461332c565b91611e12885196876132da565b60018060a01b0380941686526020860152868501523460608501523360808501521660a083015260c08201523390614ff7565b610715915061073293611e5936600461324c565b91889694965196611e6c610100896132da565b60018060a01b03948580921689521660208801528887015260608601523460808601523360a08601521660c08401528201523390614c4e565b610715915061073293611eb936600461332c565b91611ec6885196876132da565b60018060a01b0380941686526020860152868501523460608501523360808501521660a083015260c08201523390614e44565b83346107ae57806003193601126107ae57611f12615cc8565b600160ff1960ca54161760ca5580f35b5050346106b557816003193601126106b557602090611866615b73565b83346107ae5760203660031901126107ae57611f59615cc8565b6004356101895580f35b5050346106b557816003193601126106b5576101615490516001600160a01b039091168152602090f35b5050346106b557816003193601126106b5576101655490516001600160a01b039091168152602090f35b8284346107ae5760c03660031901126107ae57506001600160a01b039160043583811691908290036107aa57608435938085168095036107aa5760a4359081168091036107aa576107329461071593612012865194856132da565b8352602435602084015260443585840152606435606084015233608084015260a083015260c08201523390615932565b83346107ae57806003193601126107ae57602a6102bd5580f35b5050346106b557816003193601126106b55760209060ff60ca5460081c1690519015158152f35b5050346106b557816003193601126106b55761209d615d55565b61017f8054431061227a5761017e54430190557fd3c59bda47e141a8ec5a33d241b7f71b86e30d359f83a9227d912858b60404fc8280a16120dc615117565b61016954826120ea82613a7d565b91845b8181106121ac57505080612167575b918051928184019084526020918285015282518091528160608501930191855b82811061215357867fae5116a8119d08673a0f1dfa7546b95da4bd54bb17feda7c61130ac7859152f687870388a1600161012f5580f35b83518552938101939281019260010161211c565b61217e670de0b6b3a76400009161016b549061399a565b0461016361218d828254613a58565b9055610178546121a79082906001600160a01b031661516e565b6120fc565b6121b581613bb7565b6121bf818361482b565b8661018091866121cf858561320f565b90549060031b1c918383136121ec575b50505050506001016120ed565b94612231838296996122379461222b8561221e61222461224d9a60019e670de0b6b3a764000093849161016c5461399a565b0461399a565b049261387c565b5261385b565b9761320f565b819391549060031b91821b915f19901b19161790565b905561227061225c828761387c565b5188848060a01b0361017954169184614762565b90865f86816121df565b815163101b685960e01b8152600490fd5b5050346106b557816003193601126106b557602090610187549051908152f35b5050346106b557816003193601126106b5576020906108ae6102bd54670de0b6b3a764000061017b54049061385b565b83346107ae5760203660031901126107ae576122f5615cc8565b6004356101755580f35b83346107ae5760203660031901126107ae576004356001600160a01b03811681036107aa57610e1c90611566615cc8565b8284346107ae5761079d9061234636600461332c565b908694939294519461235960c0876132da565b60018060a01b03809416865260208601528685015233606085015216608083015260a082015233906156a4565b8284346107ae57806003193601126107ae57507f00000000000000000000000000000000000000000000000000000000000000006001600160a01b031630036123f257602090517f360894a13ba1a3210667c828492db98dca3e2076cc3735a920a3ca505d382bbc8152f35b5162461bcd60e51b815260206004820152603860248201527f555550535570677261646561626c653a206d757374206e6f742062652063616c60448201527f6c6564207468726f7567682064656c656761746563616c6c00000000000000006064820152608490fd5b83346107ae57806003193601126107ae57612474615cc8565b60ff1960ca541660ca5580f35b828460603660031901126107aa576001600160a01b039060043582811691908290036107aa576044359283168093036107aa5761079d928451926124c660c0856132da565b835260243560208401523485840152336060840152608083015260a08201526144f7565b5050806003193601126106b557600435906001600160a01b039081831683036107aa5783926024359267ffffffffffffffff84116125da57366023850112156125da5783600401359061254861253f83613310565b945194856132da565b81845236602483870101116125d657610e1c956020836125c9946024600199018389013786010152807f000000000000000000000000000000000000000000000000000000000000000016906125a0823014156133b8565b7f360894a13ba1a3210667c828492db98dca3e2076cc3735a920a3ca505d382bbc541614613419565b6125d1615cc8565b61347a565b8580fd5b8480fd5b5050346106b557816003193601126106b55760209061016d549051908152f35b5050346106b557816003193601126106b5576101795490516001600160a01b039091168152602090f35b5050346106b557816003193601126106b55760209061017e549051908152f35b5050806003193601126106b5576004356001600160a01b03811692908390036107aa57610732926107159183519161182160c0846132da565b5050346106b55760203660031901126106b5576004356101698054821015610ab757906126ad916132c1565b50805460019091015482519182526001600160a01b03166020820152f35b82610715610732926126de366004613288565b9293916126ed885196876132da565b60018060a01b03948580941687526020870152878601523460608601523360808601521660a08401521660c08201523390614e44565b8284346107ae575060603660031901126107aa576044356001600160a01b038116908190036107aa57815161079d9161178c60a0836132da565b8284346107ae5760603660031901126107aa576004356001600160a01b038116908190036107aa5761079d9183519161279760c0846132da565b825260243560208301526044358483015233606083015233608083015260a082015233906156a4565b5050346106b557816003193601126106b557602090610170549051908152f35b5050346106b557816003193601126106b5576020906108ae61281161282161281b612809615b73565b939093613890565b8181939295614967565b92614222565b906148bd565b5050346106b557816003193601126106b55760ca5460ff8160081c161561289157601081901c6001600160a01b03163303611a535761ff00191660ca55513381527f5db9ee0a495bf2e6ff9c91a7834c1ba4fdd244a5e8aa4e537bd38aeae4b073aa90602090a180f35b8151637c7fd07960e01b8152600490fd5b8284346107ae5760803660031901126107ae57506001600160a01b03604435818116908190036107aa576064359182168092036107aa5761079d91835191610b8060a0846132da565b83346107ae5760203660031901126107ae57612905615cc8565b6004356101c05580f35b8260603660031901126107aa576001600160a01b03600435818116908190036107aa576044359182168092036107aa5761079d9183519161295160c0846132da565b82526024356020830152348483015233606083015233608083015260a08201526144f7565b5050346106b55760203660031901126106b5576004359161016a9081548410156107ae5750602092611b389161320f565b5050346106b55760203660031901126106b557600435906001600160a01b039081831683036107aa57610e1c92612a098386947f000000000000000000000000000000000000000000000000000000000000000016906125a0823014156133b8565b612a11615cc8565b612a26612a1d84613310565b925192836132da565b828252601f19612a3584613310565b0136602084013761347a565b905034610736576080366003190112610736576004356001600160a01b03811691908290036107aa576107329361071592612a7e855193846132da565b825260243560208301526044358483015260643560608301523360808301523360a083015260c08201523390615932565b5050346106b557816003193601126106b557612ac9615d55565b61017d805460ff811680612b94575b80612b7a575b612ae6578380f35b61ff00191661010017905580519082907f8b77276c97a5709f0d6db52329848a254eb760ce8be80d281799f633bdb69e838280a1610165546001600160a01b0316803b156107365783600481858094638456cb5960e01b83525af1908115612b6f5750612b5f575b5050612b58613aaf565b5f80808380f35b612b68916132da565b5f81612b4e565b51913d9150823e3d90fd5b50612b89611756610bc6613c95565b61017c541015612ade565b5060ff8160081c1615612ad8565b5050346106b557816003193601126106b557602090610171549051908152f35b828460203660031901126107ae57815161079d91610d3c60a0836132da565b5050346106b557816003193601126106b557602090610175549051908152f35b83346107ae5760203660031901126107ae576004356001600160a01b03811681036106b557612c2e615cc8565b60ca805462010000600160b01b03191660109290921b62010000600160b01b031691909117905580f35b83346107ae5760203660031901126107ae57612c72615cc8565b60043561017c5580f35b5050346106b557816003193601126106b557602090610172549051908152f35b83346107ae5760203660031901126107ae576004356001600160a01b038116908190036106b557612ccb615cc8565b61017980546001600160a01b031916909117905580f35b5050346106b55760203660031901126106b5576004356001600160a01b038116908190036107365782829160209452610176845220549051908152f35b5050806003193601126106b5576004356001600160a01b0381169081900361073657819261079d92519161295160c0846132da565b5050346106b557816003193601126106b55760209060ff61017d5460081c1690519015158152f35b83346107ae5760203660031901126107ae57612d96615cc8565b6004356101745580f35b83346107ae5760203660031901126107ae576004358015158091036106b557612dc7615cc8565b61017d9060ff8019835416911617905580f35b5050346106b557816003193601126106b5576020906108ae612dfd610bc6613c95565b90614222565b90506060366003190112610736576004356001600160a01b03811690819003610ab757906107329361071592612e3b855193846132da565b82526024356020830152604435848301523460608301523360808301523360a083015260c08201523390614e44565b5050346106b557816003193601126106b55760209061017f549051908152f35b5050346106b55760203660031901126106b557600435916001600160a01b03831683036107ae57506108ae602092339033906152e4565b83346107ae5760203660031901126107ae576004356001600160a01b038116908190036106b557612ef0615cc8565b61016280546001600160a01b031916909117905580f35b83346107ae5760203660031901126107ae57612f21615cc8565b6004356101715580f35b5050346106b557816003193601126106b557602090610189549051908152f35b83346107ae5760203660031901126107ae576004356001600160a01b038116908190036106b557612f7a615cc8565b61017880546001600160a01b031916909117905580f35b8261071561073292612fa436600461324c565b91879594955195612fb7610100886132da565b60018060a01b03948580921688521660208701528786015260608501523460808501523360a08501523360c085015216908201523390614c4e565b5050346106b557816003193601126106b5576020906101bf549051908152f35b5050346106b557816003193601126106b55760975490516001600160a01b039091168152602090f35b828460c03660031901126107ae576001600160a01b03600435818116949192908590036107ae576024358381168091036106b557608435918483168093036107ae5760a4359485168095036107ae575091610715939161073296938651946130a5610100876132da565b855260208501526044358685015260643560608501523460808501523360a085015260c08401528201523390614c4e565b83346107ae5760203660031901126107ae576130f0615cc8565b60043561018a5580f35b5050346106b557816003193601126106b557613114615d55565b61311c615117565b61018b80544310613193579061318a9161018a54430190557f0e37fda283839477a1b77e29acf8336c0e13a5daa967913df0fe5ad258c0822f6020670de0b6b3a764000061317161016354610189549061399a565b049251838152a1610188546001600160a01b031661516e565b600161012f5580f35b815163acce20e560e01b8152600490fd5b5050346106b55760203660031901126106b557600435916101679081548410156107ae57506020926131d59161320f565b905491519160018060a01b039160031b1c168152f35b83346107ae5760203660031901126107ae57613205615cc8565b60043561016c5580f35b8054821015613224575f5260205f2001905f90565b634e487b7160e01b5f52603260045260245ffd5b35906001600160a01b03821682036107aa57565b908160a09103126107aa5761326081613238565b9161326d60208301613238565b91604081013591613285608060608401359301613238565b90565b908160a09103126107aa5761329c81613238565b9160208201359160408101359161328560806132ba60608501613238565b9301613238565b8054821015613224575f5260205f209060011b01905f90565b90601f8019910116810190811067ffffffffffffffff8211176132fc57604052565b634e487b7160e01b5f52604160045260245ffd5b67ffffffffffffffff81116132fc57601f01601f191660200190565b91908260809103126107aa5761334182613238565b91602081013591613285606060408401359301613238565b91908260809103126107aa5761336e82613238565b9160208101359161328560606132ba60408501613238565b908160a09103126107aa5761339a81613238565b91602082013591604081013591613285608060608401359301613238565b156133bf57565b60405162461bcd60e51b815260206004820152602c60248201527f46756e6374696f6e206d7573742062652063616c6c6564207468726f7567682060448201526b19195b1959d85d1958d85b1b60a21b6064820152608490fd5b1561342057565b60405162461bcd60e51b815260206004820152602c60248201527f46756e6374696f6e206d7573742062652063616c6c6564207468726f7567682060448201526b6163746976652070726f787960a01b6064820152608490fd5b9060ff7f4910fdfa16fed3260ed0e7147f7cc6da11a60208b5b9406d12a635614ffd914354165f146134b357506134b19150613664565b565b6040516352d1902d60e01b8152602093919291906001600160a01b038316908581600481855afa5f9181613635575b506135435760405162461bcd60e51b815260048101879052602e60248201527f45524331393637557067726164653a206e657720696d706c656d656e7461746960448201526d6f6e206973206e6f74205555505360901b6064820152608490fd5b9394937fc9f76b5ec45e5cdef99837d7b6d2467235c1df8933c8ca56df5c35afa2c7d444016135de5761357583613664565b7fbc7cd75a20ee27fd9adebab32041f755214dbc6bffa90cc0225b39da2e5c2d3b5f80a2835115908115916135d6575b506135af57505050565b5f806135d3946135bd613706565b9481519101845af46135cd61375a565b91613789565b50565b90505f6135a5565b60405162461bcd60e51b815260048101859052602960248201527f45524331393637557067726164653a20756e737570706f727465642070726f786044820152681a58589b195555525160ba1b6064820152608490fd5b90918782813d831161365d575b61364c81836132da565b810103126107ae575051905f6134e2565b503d613642565b803b156136ab577f360894a13ba1a3210667c828492db98dca3e2076cc3735a920a3ca505d382bbc80546001600160a01b0319166001600160a01b03909216919091179055565b60405162461bcd60e51b815260206004820152602d60248201527f455243313936373a206e657720696d706c656d656e746174696f6e206973206e60448201526c1bdd08184818dbdb9d1c9858dd609a1b6064820152608490fd5b6137106027613310565b9061371e60405192836132da565b60278252660819985a5b195960ca1b6040837f416464726573733a206c6f772d6c6576656c2064656c65676174652063616c6c60208201520152565b3d15613784573d9061376b82613310565b9161377960405193846132da565b82523d5f602084013e565b606090565b919290156137eb575081511561379d575090565b3b156137a65790565b60405162461bcd60e51b815260206004820152601d60248201527f416464726573733a2063616c6c20746f206e6f6e2d636f6e74726163740000006044820152606490fd5b8251909150156137fe5750805190602001fd5b6040519062461bcd60e51b82528160208060048301528251908160248401525f935b828510613842575050604492505f838284010152601f80199101168101030190fd5b8481018201518686016044015293810193859350613820565b9190820180921161386857565b634e487b7160e01b5f52601160045260245ffd5b80518210156132245760209160051b010190565b905f915f906101698054905f925b8284106138c457505050506138c0670de0b6b3a76400009161016b549061399a565b0490565b909192939561391161390061390b6001936139056138e28a8861387c565b516138ed818c613936565b95906138f98d8c6132c1565b505461385b565b615d76565b9061385b565b9861385b565b940192919061389e565b9190915f838201938412911290801582169115161761386857565b91905f90613962815f9561395861394f8261018061320f565b939054926139e3565b9160031b1c61391b565b5f8113613970575b50509190565b61399291945061221e92508094670de0b6b3a764000093849161016c5461399a565b045f8061396a565b8181029291811591840414171561386857565b81156139b7570490565b634e487b7160e01b5f52601260045260245ffd5b81810392915f13801582851316918412161761386857565b6139ef816101696132c1565b505490670de0b6b3a7640000918281029281840414901517156138685761328592613a2f613a22613a359361018161320f565b90549060031b1c846139ad565b926139ad565b906139cb565b8015613a51576139006132859261016354613a58565b50505f1990565b9190820391821161386857565b67ffffffffffffffff81116132fc5760051b60200190565b90613a8782613a65565b613a9460405191826132da565b8281528092613aa5601f1991613a65565b0190602036910137565b6101635480156135d357610169908154915f90613acb84613a7d565b9082905b858210613b395750505f5b848110613ae8575050505050565b613b0584613b0085613afa858761387c565b5161399a565b6139ad565b9061016a918254680100000000000000008110156132fc576122378160019586613b319401815561320f565b905501613ada565b9092613b75600191613b4a86613bb7565b613b54878761387c565b52613905613b6287866132c1565b5054613b6e888861387c565b5190615d76565b930190613acf565b6001600160a01b03165f90815261016860205260409020600181015460ff1615613ba5575490565b60405163e6c4247b60e01b8152600490fd5b613bc3906101696132c1565b50600101546001600160a01b0316613bda81613c25565b91909115613be6575090565b60249060405190637f6e4db960e01b82526004820152fd5b519081151582036107aa57565b91908260409103126107aa57613285602083519301613bfe565b604080516359e02dd760e01b81529291839060049082906001600160a01b03165afa918215613c8a575f908193613c5b57509190565b9050613c7f91925060403d8111613c83575b613c7781836132da565b810190613c0b565b9091565b503d613c6d565b6040513d5f823e3d90fd5b6101695490613ca382613a7d565b915f5b818110613cb1575050565b80613cbd600192613bb7565b613cc7828761387c565b5201613ca6565b90613cef670de0b6b3a76400009283610187546101845492430103026139ad565b82811015613d0c5782039180836101855402049261018654020590565b505f91508190565b9091613d1e613d74565b929080821015613d6b578391613d3391613a58565b931115613d665781811015613d5f57613d4b91613a58565b60011c80821015613d5a575090565b905090565b5050505f90565b505090565b50505050505f90565b61018254604080516359e02dd760e01b80825293929091906001600160a01b039081168284600481845afa8015613e61575f948591613e3e575b5015613e27575061018354169080519485528085600481855afa8015613e1d575f958691613dfa575b5015613de35750509190565b6024925051906305e8989360e11b82526004820152fd5b905081613e149296503d8711613c8357613c7781836132da565b9490945f613dd7565b50513d5f823e3d90fd5b6024908351906305e8989360e11b82526004820152fd5b9050613e58919450833d8511613c8357613c7781836132da565b9390935f613dae565b83513d5f823e3d90fd5b15613e7257565b60405162461bcd60e51b815260206004820152602b60248201527f496e697469616c697a61626c653a20636f6e7472616374206973206e6f74206960448201526a6e697469616c697a696e6760a81b6064820152608490fd5b60405190613eda6080836132da565b5f6060838281528260208201528260408201520152565b613f7791613efd613ecb565b50613f066141bd565b613f0e615d55565b670de0b6b3a7640000613f40613f3a613f31613f28613c95565b61017b546141df565b86519291614222565b9061399a565b04916040810192613f6c60018060a01b038551168260018060a01b0360808601511661016e5492614256565b95918397919761385b565b926020810192835180861161419f5750841561418d57866140729460018060a01b0385511660018060a01b03606086015116907fa02482a2126fa394339a603e5b911cbb1bfc18ea48cd9c0896f81d083eff450f89875161400087516020890151606060408b01519a01998a51918d608060018060a01b0391015116936040519788978861566c565b0390a36020845160018060a01b0360608701511661016661402283825461385b565b905561403261016396875461385b565b8655610165546040516340c10f1960e01b81526001600160a01b0392831660048201526024810193909352919889929091169082905f9082906044820190565b03925af1958615613c8a578796614148575b50614114956140939151613a58565b93516080909301516001600160a01b039384169316906140b1615117565b88511561411f575061410461410f92670de0b6b3a76400006140d861016d548c519061399a565b04906140e582825461385b565b90556140fe60018060a01b036101785416918b51613a58565b9061516e565b60408801519061516e565b61516e565b600161012f55929190565b6101785460208a015161410f9450614140916001600160a01b0316866151b0565b5190836151b0565b95506020863d602011614185575b81614163602093836132da565b810103126107aa57866140939161417c61411498613bfe565b50915095614084565b3d9150614156565b60405163f3e39b5d60e01b8152600490fd5b6044908660405191630b63f1a760e01b835260048301526024820152fd5b60ff61017d5460081c166141cd57565b604051631ca61d7760e01b8152600490fd5b91906141ea90613890565b9190926141f78385613a3b565b9080821115614204575050565b6044925060405191637912120160e01b835260048301526024820152fd5b906101665490811561424757613285926142426139009261016354613a58565b613a58565b505050670de0b6b3a764000090565b929093915f915f918296614268613ecb565b966001600160a01b03918590831680614474575b508261016154168360405193636eb1769f60e11b8552168060048501523060248501526020948585604481865afa94851561446957849561443a575b5084614319575b5050505050860151156142d5575b505050929190565b909192506142ed670de0b6b3a764000092839261399a565b048085529082156143115761430992049081604086015261385b565b5f80806142cd565b509050614309565b614327906101625416613c25565b929092156142bf57909192939b50848b61436185670de0b6b3a764000061435b6143518d8d61399a565b610175549061399a565b046139ad565b81830181815295908b15614430575061438c916143806060928d6139ad565b9182910152855161385b565b809d5b109283156143bb575b5050506143a8575b8080806142bf565b8192995052806060880152965f806143a0565b909192506024604051809481936370a0823160e01b835260048301525afa90811561442557908b9184916143f4575b50105f8481614398565b809250858092503d831161441e575b61440d81836132da565b81010312610736578a90515f6143ea565b503d614403565b6040513d85823e3d90fd5b915050809d61438f565b9094508581813d8311614462575b61445281836132da565b81010312610ab75751935f6142b8565b503d614448565b6040513d86823e3d90fd5b9095506020836101f35416916024604051809481936364a731e960e01b835260048301525afa80156144ec5786906144b9575b6144b291508461399a565b945f61427c565b506020813d82116144e4575b816144d2602093836132da565b810103126125d6576144b290516144a7565b3d91506144c5565b6040513d88823e3d90fd5b6144ff613ecb565b506145086141bd565b614510615d55565b614518615c35565b614520615b73565b825190939190614538906001600160a01b0316613b7d565b9061457361455b614549848861387c565b5196614555888661482b565b836141df565b908760208801519461456d8288615ad0565b9061487f565b81811061474457505061458d6145d3946020850151615d76565b606084015160a085015185516001600160a01b039081165f90815261017660205260409020549394936145c893909286929081169116614256565b95918497919761385b565b9260408201518085116147265750831561418d57614114926146939160018060a01b0384511660018060a01b0360608601511660018060a01b03608087015116917fbcf2dd35a7b66d878322508590f8c0f2e1042f2101dc031278e3819a304ace61898c61466d60208b0151918b8151916020810151606060408301519201519260a0600180821b0391015116936040519788978861566c565b0390a461467a5f8261499e565b602084015160808501516001600160a01b031692614762565b6146a1836040830151613a58565b606082015160a09092015190916001600160a01b0390811691166146c3615117565b8651156146f85761410f90614104670de0b6b3a76400006146e961016d548b519061399a565b046101636140e582825461385b565b61017854602088015161410f929161471a91906001600160a01b0316856151b0565b606088015190836151b0565b6044908560405191630b63f1a760e01b835260048301526024820152fd5b604492506040519163c39b739f60e01b835260048301526024820152fd5b6147d9936147a05f9260209561477a826101696132c1565b5061478687825461385b565b905561479661016391825461385b565b905561016761320f565b90546040516340c10f1960e01b81526001600160a01b039093166004840152602483019490945290948593928492909183906044820190565b039360039190911b1c6001600160a01b03165af18015613c8a576147fa5750565b6020813d8211614823575b81614812602093836132da565b810103126107aa576135d390613bfe565b3d9150614805565b61223761487b9161483c84826139e3565b61487161484b8361018061320f565b61485e8294925492838360031b1c61391b565b919060031b91821b915f19901b19161790565b905561018161320f565b9055565b9183859161488d93856148d7565b925f84129283156148a8575b5050506148a35790565b505f90565b6148b3929350613a3b565b11155f8080614899565b81156139b757600160ff1b81145f19831416613868570590565b926148e59295949193614967565b5f938181029190858212600160ff1b82141661495357818305149015171561493f57670de0b6b3a763ffff19820191821161493f57670de0b6b3a76400009182810292818404149015171561493f576132859293506148bd565b634e487b7160e01b84526011600452602484fd5b634e487b7160e01b86526011600452602486fd5b90916149769061016354613a58565b90670de0b6b3a7640000918281029281840414901517156138685761328592613a359161399a565b806149a7613d74565b9190936149b35f613cce565b9401938291614a4a575b0193845f808212614a4457505b840391818511614a0c5750508181116149ee57505061018555610186554361018755565b60449250604051916306da41e560e11b835260048301526024820152fd5b9080859211614a3257604491604051916306da41e560e11b835260048301526024820152fd5b604051630fb4fd3560e11b8152600490fd5b036149ca565b9050815f03906149bd565b80910360e081126107aa578151926020830151926080604082015193605f1901126107aa5760c060405191614a8b6080846132da565b606081015183526080810151602084015260a081015160408401520151606082015290565b614c2191614abc613ecb565b50614ac56141bd565b614acd615d55565b60408051637225da8960e11b60208083019190915284516001600160a01b0390811660248401529085015160448301529184015160648201526060840151821660848201526080840151821660a482015260a084015190911660c4808301919091528152614b5390614b449061096460e4826132da565b60208082518301019101614a55565b93929195909460018060a01b0381511660018060a01b0360608301511660018060a01b03608084015116917f2027743d48a615d54941306fd36c7ec4f15155b7837f1d1fac001f9fca73970f60208501518b614c10898c518d602081015160606040830151920151928c60a0600180821b03910151169460405198899889969390989794919260e0969361010089019a8952602089015260408801526060870152608086015260a085015260c084015260018060a01b0316910152565b0390a46146a1836040830151613a58565b600161012f5593929190565b90613285915f80614c3c613706565b93602081519101845af46135cd61375a565b9091614d01614b44614c2194614c62613ecb565b50614c6b6141bd565b614c73615d55565b60408051631740b6e360e11b60208083019190915287516001600160a01b039081166024840152908801518116604483015291870151606482015260608701516084820152608087015160a482015260a0870151821660c482015260c0870151821660e482015260e087015182166101048201529116610124808301919091528152610964610144826132da565b93929195909460018060a01b0381511660018060a01b036020830151169060018060a01b0360a084015116907fe2c83b7332b25da226005e313fa95068d29d93d740b0bbd0b440615ef02f8cc461010060018060a01b0360c0870151169460408701518d8c805160208201519060606040840151930151938c60e060018060a01b039101511695604051978852602088015260408701526060860152608085015260a084015260c083015260e0820152a4614dc0836080830151613a58565b60a082015160e09092015190916001600160a01b0390811691166146c3615117565b90929160c060e09161010084019560018060a01b039281848093511687526020810151602088015260408101516040880152606081015160608801528260808201511660808801528260a08201511660a088015201511660c085015216910152565b809291614e4f613ecb565b50614e586141bd565b614e60615d55565b60405163ab6dd71d60e01b6020820152918291614e809160248401614de2565b03601f1981018252614e9290826132da565b61022654614ea991906001600160a01b0316614c2d565b805181016020019060200190614ebe91614a55565b9290939194600160a01b60019003815116908487846080840193600160a01b60019003855116600160a01b6001900360a083015116906020830151978651602088019687519a60408a019b8c519a6060015160c089019b600160a01b600190038d511692604051968796614f32968861566c565b037f7e56a428e0421aac1dabe4207701c8a9cf0b76f6d7ab85f73d98a86294c992fc91a46060015190614f6491613a58565b925191516001600160a01b039283169216614f7d615117565b8751614c21959015614fd85761410f9250614fd1670de0b6b3a7640000614fa961016d548c519061399a565b04610163614fb882825461385b565b90556140fe60018060a01b036101785416918c51613a58565b519061516e565b5061017854915161410f9261471a91906001600160a01b0316856151b0565b809291615002613ecb565b5061500b6141bd565b615013615d55565b60405163474c3add60e11b60208201529182916150339160248401614de2565b03601f198101825261504590826132da565b6102265461505c91906001600160a01b0316614c2d565b80518101602001906020019061507191614a55565b9290939194600160a01b60019003815116908487846080840193600160a01b60019003855116600160a01b6001900360a083015116906020830151978651602088019687519a60408a019b8c519a6060015160c089019b600160a01b600190038d5116926040519687966150e5968861566c565b037f21ab49eba1e974aa50c50aec84de10487a4198e478b26afb214fd269e60e319091a46060015190614f6491613a58565b61012f60028154146151295760029055565b60405162461bcd60e51b815260206004820152601f60248201527f5265656e7472616e637947756172643a207265656e7472616e742063616c6c006044820152606490fd5b81615177575050565b6001600160a01b03811615613ba5575f80809381935af161519661375a565b501561519e57565b6040516312171d8360e31b8152600490fd5b919091816151bd57505050565b615255915f8060018060a01b03938461016154169360405195602098818a8901946323b872dd60e01b86521660248901521660448701526064860152606485526152086084866132da565b61521187613310565b9461521f60405196876132da565b8786527f5361666545524332303a206c6f772d6c6576656c2063616c6c206661696c656488870152519082855af16135cd61375a565b80518281159182156152c5575b505090501561526e5750565b6084906040519062461bcd60e51b82526004820152602a60248201527f5361666545524332303a204552433230206f7065726174696f6e20646964206e6044820152691bdd081cdd58d8d9595960b21b6064820152fd5b83809293500103126107aa57816152dc9101613bfe565b80825f615262565b61534a916152f0615d55565b6152f8615117565b604051636845c44560e01b60208201526001600160a01b039283166024820152908216604482015283821660648201524760848083019190915281529061534060a4836132da565b6102265416614c2d565b6020818051810103126107aa576020615366910151809261516e565b600161012f5590565b60e08101929160c09081906001600160a01b038061538c83613238565b16855261539b60208301613238565b16602085015260408101356040850152606081013560608501526080810135608085015260a081013560a08501520135910152565b61017f54804310156148a357613285904390613a58565b90916153f1613ecb565b506153fa6141bd565b615402615d55565b61540a615c35565b61541d615415615b73565b8192916141df565b909161542c8284875193615654565b818110615636575050670de0b6b3a764000091613f3a61544e92865192614222565b0491821561418d576040810151608082015161016f5461548c96926154819287916001600160a01b039182169116614256565b959182979197613a58565b92602081015180851061561857508560018060a01b0360408301511660018060a01b03606084015116907ff47ea38b2dbacd4ea4e4c63f21b558d8acd7cf60181e4ca6c2e09bf1ef6c91df87855161550b86516020880151606060408a015199019889519160018060a01b0360808d015116936040519788978861566c565b0390a381519361016661551f868254613a58565b905561552f610163948554613a58565b8455610165546001600160a01b031694853b156107aa57604051632770a7eb60e21b81526001600160a01b039290921660048301526024820152935f908590604490829084905af1928315613c8a57614114948694615608575b50604083015160608401516080909401516001600160a01b0394851694908116939116906155b5615117565b8951156155de5750509061410461410f92670de0b6b3a76400006140d861016d548c519061399a565b6101785460208b015161410f95939450615601916001600160a01b0316856151b0565b51916151b0565b5f615612916132da565b5f615589565b60449085604051916354cde31360e01b835260048301526024820152fd5b604492506040519163a5db715d60e01b835260048301526024820152fd5b61488d615662848484614967565b6128218585614222565b959260c09592989794919860e08801998852602088015260408701526060860152608085015260a084015260018060a01b0316910152565b909161574c926156b2613ecb565b506156bb6141bd565b6156c3615d55565b6156cb613c95565b8351615709906156e3906001600160a01b0316613b7d565b916156fd6156f1848361387c565b5191613f28838661482b565b50506020860151615d76565b606085015160a086015186516001600160a01b039081165f908152610177602052604090205461574193909285929081169116614256565b969183989198613a58565b93821561418d576040820151808610615914575060018060a01b0382511660018060a01b0360608401511660018060a01b03608085015116917f9a7c695d191e65e20d74a5fd655a98fa9323ed1f504360e03defc63e668b47288860208701516157de8d80519060208101519060606040820151910151918c60a0600180821b0391015116936040519788978861566c565b0390a46157ec60018661499e565b615827602083015194615801816101696132c1565b5061580d878254613a58565b905561581d610163958654613a58565b855561016761320f565b905460039190911b1c6001600160a01b031693843b156107aa57604051632770a7eb60e21b81526001600160a01b039290921660048301526024820152925f908490604490829084905af1918215613c8a57614114938593615904575b506060820151608083015160a0909301516001600160a01b039384169390811691166158ae615117565b8851156158d5575061410461410f92670de0b6b3a76400006140d861016d548c519061399a565b6101785460208a015161410f94509192916158f9916001600160a01b0316846151b0565b6060890151916151b0565b5f61590e916132da565b5f615884565b60449086604051916354cde31360e01b835260048301526024820152fd5b909161597a614b44610956610964614c219661594c613ecb565b506159556141bd565b61595d615d55565b60405163178aad2b60e11b60208201529283918860248401614de2565b939280929691958560018060a01b0382511660018060a01b0360808401511660018060a01b0360a085015116917fa1062c9e887113838edfbc65f23a4fd5cfeb240416670cdf3fa10ba3c85f251f8c6020870151615a3b89885160208a01998a5160606040830151920151928d60c060018060a01b03910151169460405198899889969390989794919260e0969361010089019a8952602089015260408801526060870152608086015260a085015260c084015260018060a01b0316910152565b0390a4608082015160a083015160c0909301516001600160a01b039384169390811692911690615a69615117565b885115615a9157505061410f90614104670de0b6b3a76400006146e961016d548b519061399a565b61017854905161410f93916158f991906001600160a01b0316846151b0565b90604051615abf6040826132da565b602060018294805484520154910152565b615adc8161017a61320f565b90549060031b1c916101be91615af281846132c1565b5054926101bf54431015615b18575b505080821015613d6657613b00906132859361399a565b829350615b2c615b379392615b32926132c1565b50615ab0565b615b3f565b905f80615b01565b602081519101805192670de0b6b3a76400009384039084821161386857615b6c613905926138c09561399a565b925161399a565b5f8061016991825492615b8584613a7d565b9382915b818310615bb2575050508115615ba65790615ba3916139ad565b91565b505061017b5460011b91565b90919392615bbf85613bb7565b9081615bcb878961387c565b52615be4615bd98388613936565b506138f988866132c1565b670de0b6b3a76400009081810291818304149015171561386857615c26615c2c9261390585615c18600197615c2196615d76565b9485918c615ad0565b61399a565b9561385b565b94019190615b89565b6101bf8054431015615c445750565b610169545f5b818110615c5d5750506101c05443019055565b80807f19156e9379c7bbbce8f646ce5ee30ba860b8f954717405f3d5859a6c1a21ae606001936101be615c93615b2c83836132c1565b90615cb1615ca9615ca385613bb7565b84615b3f565b9384926132c1565b50555160409182519182526020820152a201615c4a565b60975460405163d994d6d560e01b815233600482015290602090829060249082906001600160a01b03165afa908115613c8a575f91615d1c575b5015615d0a57565b604051631dd1b1b560e21b8152600490fd5b906020823d8211615d4d575b81615d35602093836132da565b810103126107ae5750615d4790613bfe565b5f615d02565b3d9150615d28565b60ff60ca5460081c16615d6457565b60405163783bb6c960e11b8152600490fd5b90670de0b6b3a76400009182810292818404149015171561386857613285916139ad565b670de0b6b3a764000010615daa57565b604051632a9ffab760e21b8152600490fdfea2646970667358221220631f233b011588bbfa3fd6fcfd9a862c47864e729fa6c1207ed0195985ad1e3e64736f6c63430008140033",
  "linkReferences": {},
  "deployedLinkReferences": {},
  "devdoc": {
    "details": "Only for upgradeability testing purposes. Extends MocCACoinbase adding a new variable.",
    "events": {
      "AdminChanged(address,address)": {
        "details": "Emitted when the admin account has changed."
      },
      "BeaconUpgraded(address)": {
        "details": "Emitted when the beacon is changed."
      },
      "Initialized(uint8)": {
        "details": "Triggered when the contract has been initialized or reinitialized."
      },
      "Upgraded(address)": {
        "details": "Emitted when the implementation is upgraded."
      }
    },
    "kind": "dev",
    "methods": {
      "addPeggedToken((address,address,uint256,uint256,uint256,uint256,uint256))": {
        "details": "Note that the ema value, should consider `nextEmaCalculation`  This function is implemented in MocCoreExpansion but with this contract contexttpTokenAddress Pegged Token contract address to add      priceProviderAddress Pegged Token price provider contract address      tpCtarg Pegged Token target coverage [PREC]      tpMintFee additional fee pct applied on mint [PREC]      tpRedeemFee additional fee pct applied on redeem [PREC]      tpEma initial Pegged Token exponential moving average [PREC]      tpEmaSf Pegged Token smoothing factor [PREC]  Requirements: - the caller must have governance authorization. - tpTokenAddress must be a MocRC20, with mint, burn roles already settled  for this contract",
        "params": {
          "peggedTokenParams_": "params of Pegged Token to add"
        }
      },
      "calcCtargemaCA()": {
        "details": "qAC = nTP / pACtp      ctargemaCA = (ctargemaTP * qAC) / (qAC)",
        "returns": {
          "ctargemaCA": "[PREC]"
        }
      },
      "changeGovernor(address)": {
        "params": {
          "newGovernor_": "New governor address"
        }
      },
      "editPeggedToken((address,address,uint256,uint256,uint256,uint256,uint256))": {
        "details": "Note that the ema value, should consider `nextEmaCalculation`  This function is implemented in MocCoreExpansion but with this contract contexttpTokenAddress Pegged Token contract address to identify the token to edit      priceProviderAddress Pegged Token price provider contract address      tpCtarg Pegged Token target coverage [PREC]      tpMintFee additional fee pct applied on mint [PREC]      tpRedeemFee additional fee pct applied on redeem [PREC]      tpEma initial Pegged Token exponential moving average [PREC]      tpEmaSf Pegged Token smoothing factor [PREC]  Requirements: - the caller must have governance authorization. - the tpTokenAddress must exists",
        "params": {
          "peggedTokenParams_": "params of Pegged Token to add"
        }
      },
      "getCglb()": {
        "returns": {
          "cglob": "[PREC]"
        }
      },
      "getLckAC()": {
        "returns": {
          "lckAC": "[PREC]"
        }
      },
      "getLeverageTC()": {
        "returns": {
          "leverageTC": "[PREC]"
        }
      },
      "getPACtp(address)": {
        "params": {
          "tp_": "Pegged Token address"
        },
        "returns": {
          "_0": "price [PREC]"
        }
      },
      "getPTCac()": {
        "returns": {
          "pTCac": "[PREC]"
        }
      },
      "getTCAvailableToRedeem()": {
        "details": "because it is a view function we are not calculating the new ema,  since we are using the last ema calculation, this may differ a little from the real amount  of TC available to redeem. Consider it an approximation.",
        "returns": {
          "tcAvailableToRedeem": "[N]"
        }
      },
      "getTPAvailableToMint(address)": {
        "details": "because it is a view function we are not calculating the new ema,  since we are using the last ema calculation, this may differ a little from the real amount  of TP available to mint. Consider it an approximation.",
        "params": {
          "tp_": "Pegged Token address"
        },
        "returns": {
          "tpAvailableToMint": "[N]"
        }
      },
      "getTotalACavailable()": {
        "returns": {
          "totalACavailable": "[N]"
        }
      },
      "initialize(((address,address,address,address,address,uint256,uint256,uint256,uint256,uint256,uint256,uint256,uint256,uint256,uint256,uint256,uint256,uint256,uint256,address,uint256,uint256,address,address,uint256),address,address,address,uint256,address))": {
        "details": "governorAddress The address that will define when a change contract is authorized      pauserAddress The address that is authorized to pause this contract      tcTokenAddress Collateral Token contract address      mocFeeFlowAddress Moc Fee Flow contract address      mocAppreciationBeneficiaryAddress Moc appreciation beneficiary address      protThrld protected state threshold [PREC]      liqThrld liquidation coverage threshold [PREC]      feeRetainer pct retain on fees to be re-injected as Collateral, while paying fees with AC [PREC]      tcMintFee additional fee pct applied on mint Collateral Tokens operations [PREC]      tcRedeemFee additional fee pct applied on redeem Collateral Tokens operations [PREC]      successFee pct of the gain because Pegged Tokens devaluation that is transferred        in Collateral Asset to Moc Fee Flow during the settlement [PREC]      appreciationFactor pct of the gain because Pegged Tokens devaluation that is returned        in Pegged Tokens to appreciation beneficiary during the settlement [PREC]      bes number of blocks between settlements      tcInterestCollectorAddress TC interest collector address      tcInterestRate pct interest charged to TC holders on the total collateral in the protocol [PREC]      tcInterestPaymentBlockSpan amount of blocks to wait for next TC interest payment      maxAbsoluteOpProviderAddress max absolute operation provider address      maxOpDiffProviderAddress max operation difference provider address      decayBlockSpan number of blocks that have to elapse for the linear decay factor to be 0      emaCalculationBlockSpan amount of blocks to wait between Pegged ema calculation      mocVendors address for MocVendors contract",
        "params": {
          "initializeCoreParams_": "contract initializer params"
        }
      },
      "isLiquidationReached()": {
        "returns": {
          "_0": "true if liquidation state is reached, false otherwise"
        }
      },
      "liqRedeemTP(address)": {
        "params": {
          "tp_": "Pegged Token address"
        },
        "returns": {
          "qACRedeemed": "amount of AC sent to sender"
        }
      },
      "liqRedeemTPto(address,address)": {
        "params": {
          "recipient_": "address who receives the AC",
          "tp_": "Pegged Token address"
        },
        "returns": {
          "qACRedeemed": "amount of AC sent to `recipient_`"
        }
      },
      "makeStoppable()": {
        "details": "Should be called through governance"
      },
      "makeUnstoppable()": {
        "details": "Should be called through governance"
      },
      "maxQACToMintTP()": {
        "returns": {
          "maxQAC": "minimum regarding maxAbsoluteOperation and maxOperationalDifference"
        }
      },
      "maxQACToRedeemTP()": {
        "returns": {
          "maxQAC": "minimum regarding maxAbsoluteOperation and maxOperationalDifference"
        }
      },
      "mintTC(uint256)": {
        "details": "any extra value, not spent on TC nor fees, will be return to sender",
        "params": {
          "qTC_": "amount of Collateral Token to mint"
        },
        "returns": {
          "qACtotalNeeded": "amount of AC used to mint qTC",
          "qFeeToken": "amount of Fee Token used by sender to pay fees. 0 if qAC is used instead"
        }
      },
      "mintTCViaVendor(uint256,address)": {
        "details": "any extra value, not spent on TC nor fees, will be return to sender",
        "params": {
          "qTC_": "amount of Collateral Token to mint",
          "vendor_": "address who receives a markup"
        },
        "returns": {
          "qACtotalNeeded": "amount of AC used to mint qTC",
          "qFeeToken": "amount of Fee Token used by sender to pay fees. 0 if qAC is used instead"
        }
      },
      "mintTCandTP(address,uint256)": {
        "params": {
          "qTP_": "amount of Pegged Token to mint",
          "tp_": "Pegged Token address"
        },
        "returns": {
          "qACtotalNeeded": "amount of AC used to mint Collateral Token and Pegged Token",
          "qFeeToken": "amount of Fee Token used by sender to pay fees. 0 if qAC is used instead",
          "qTCMinted": "amount of Collateral Token minted"
        }
      },
      "mintTCandTPViaVendor(address,uint256,address)": {
        "params": {
          "qTP_": "amount of Pegged Token to mint",
          "tp_": "Pegged Token address",
          "vendor_": "address who receives a markup"
        },
        "returns": {
          "qACtotalNeeded": "amount of AC used to mint Collateral Token and Pegged Token",
          "qFeeToken": "amount of Fee Token used by sender to pay fees. 0 if qAC is used instead",
          "qTCMinted": "amount of Collateral Token minted"
        }
      },
      "mintTCandTPto(address,uint256,address)": {
        "params": {
          "qTP_": "amount of Pegged Token to mint",
          "recipient_": "address who receives the Collateral Token and Pegged Token",
          "tp_": "Pegged Token address"
        },
        "returns": {
          "qACtotalNeeded": "amount of AC used to mint Collateral Token and Pegged Token",
          "qFeeToken": "amount of Fee Token used by sender to pay fees. 0 if qAC is used instead",
          "qTCMinted": "amount of Collateral Token minted"
        }
      },
      "mintTCandTPtoViaVendor(address,uint256,address,address)": {
        "params": {
          "qTP_": "amount of Pegged Token to mint",
          "recipient_": "address who receives the Collateral Token and Pegged Token",
          "tp_": "Pegged Token address",
          "vendor_": "address who receives a markup"
        },
        "returns": {
          "qACtotalNeeded": "amount of AC used to mint Collateral Token and Pegged Token",
          "qFeeToken": "amount of Fee Token used by sender to pay fees. 0 if qAC is used instead",
          "qTCMinted": "amount of Collateral Token minted"
        }
      },
      "mintTCto(uint256,address)": {
        "details": "any extra value, not spent on TC nor fees, will be return to sender",
        "params": {
          "qTC_": "amount of Collateral Token to mint",
          "recipient_": "address who receives the Collateral Token"
        },
        "returns": {
          "qACtotalNeeded": "amount of AC used to mint qTC",
          "qFeeToken": "amount of Fee Token used by sender to pay fees. 0 if qAC is used instead"
        }
      },
      "mintTCtoViaVendor(uint256,address,address)": {
        "details": "any extra value, not spent on TC nor fees, will be return to sender",
        "params": {
          "qTC_": "amount of Collateral Token to mint",
          "recipient_": "address who receives the Collateral Token",
          "vendor_": "address who receives a markup"
        },
        "returns": {
          "qACtotalNeeded": "amount of AC used to mint qTC",
          "qFeeToken": "amount of Fee Token used by sender to pay fees. 0 if qAC is used instead"
        }
      },
      "mintTP(address,uint256)": {
        "details": "any extra value, not spent on TP nor fees, will be return to sender",
        "params": {
          "qTP_": "amount of Pegged Token to mint",
          "tp_": "Pegged Token address to mint"
        },
        "returns": {
          "qACtotalNeeded": "amount of AC used to mint qTP",
          "qFeeToken": "amount of Fee Token used by sender to pay fees. 0 if qAC is used instead"
        }
      },
      "mintTPViaVendor(address,uint256,address)": {
        "details": "any extra value, not spent on TP nor fees, will be return to sender",
        "params": {
          "qTP_": "amount of Pegged Token to mint",
          "tp_": "Pegged Token address",
          "vendor_": "address who receives a markup"
        },
        "returns": {
          "qACtotalNeeded": "amount of AC used to mint qTP",
          "qFeeToken": "amount of Fee Token used by sender to pay fees. 0 if qAC is used instead"
        }
      },
      "mintTPto(address,uint256,address)": {
        "details": "any extra value, not spent on TP nor fees, will be return to sender",
        "params": {
          "qTP_": "amount of Pegged Token to mint",
          "recipient_": "address who receives the Pegged Token",
          "tp_": "Pegged Token address to mint"
        },
        "returns": {
          "qACtotalNeeded": "amount of AC used to mint qTP",
          "qFeeToken": "amount of Fee Token used by sender to pay fees. 0 if qAC is used instead"
        }
      },
      "mintTPtoViaVendor(address,uint256,address,address)": {
        "details": "any extra value, not spent on TP nor fees, will be return to sender",
        "params": {
          "qTP_": "amount of Pegged Token to mint",
          "recipient_": "address who receives the Pegged Token",
          "tp_": "Pegged Token address to mint",
          "vendor_": "address who receives a markup"
        },
        "returns": {
          "qACtotalNeeded": "amount of AC used to mint qTP",
          "qFeeToken": "amount of Fee Token used by sender to pay fees. 0 if qAC is used instead"
        }
      },
      "pause()": {
        "details": "Should only be called by the pauser and when it is stoppable"
      },
      "proxiableUUID()": {
        "details": "Implementation of the ERC1822 {proxiableUUID} function. This returns the storage slot used by the implementation. It is used to validate the implementation's compatibility when performing an upgrade. IMPORTANT: A proxy pointing at a proxiable contract should not be considered proxiable itself, because this risks bricking a proxy that upgrades to it, by delegating to itself until out of gas. Thus it is critical that this function revert if invoked through a proxy. This is guaranteed by the `notDelegated` modifier."
      },
      "redeemTC(uint256,uint256)": {
        "params": {
          "qACmin_": "minimum amount of Collateral Asset that sender expects to receive",
          "qTC_": "amount of Collateral Token to redeem"
        },
        "returns": {
          "qACRedeemed": "amount of AC sent to sender",
          "qFeeToken": "amount of Fee Token used by sender to pay fees. 0 if qAC is used instead"
        }
      },
      "redeemTCViaVendor(uint256,uint256,address)": {
        "params": {
          "qACmin_": "minimum amount of Collateral Asset that sender expects to receive",
          "qTC_": "amount of Collateral Token to redeem",
          "vendor_": "address who receives a markup"
        },
        "returns": {
          "qACRedeemed": "amount of AC sent to sender",
          "qFeeToken": "amount of Fee Token used by sender to pay fees. 0 if qAC is used instead"
        }
      },
      "redeemTCandTP(address,uint256,uint256,uint256)": {
        "params": {
          "qACmin_": "minimum amount of Collateral Asset that the sender expects to receive",
          "qTC_": "maximum amount of Collateral Token to redeem",
          "qTP_": "maximum amount of Pegged Token to redeem",
          "tp_": "Pegged Token address"
        },
        "returns": {
          "qACRedeemed": "amount of AC sent to the sender",
          "qFeeToken": "amount of Fee Token used by sender to pay fees. 0 if qAC is used instead",
          "qTPRedeemed": "amount of Pegged Token redeemed"
        }
      },
      "redeemTCandTPViaVendor(address,uint256,uint256,uint256,address)": {
        "params": {
          "qACmin_": "minimum amount of Collateral Asset that the sender expects to receive",
          "qTC_": "maximum amount of Collateral Token to redeem",
          "qTP_": "maximum amount of Pegged Token to redeem",
          "tp_": "Pegged Token address",
          "vendor_": "address who receives a markup"
        },
        "returns": {
          "qACRedeemed": "amount of AC sent to the sender",
          "qFeeToken": "amount of Fee Token used by sender to pay fees. 0 if qAC is used instead",
          "qTPRedeemed": "amount of Pegged Token redeemed"
        }
      },
      "redeemTCandTPto(address,uint256,uint256,uint256,address)": {
        "params": {
          "qACmin_": "minimum amount of Collateral Asset that `recipient_` expects to receive",
          "qTC_": "maximum amount of Collateral Token to redeem",
          "qTP_": "maximum amount of Pegged Token to redeem",
          "recipient_": "address who receives the Collateral Asset",
          "tp_": "Pegged Token address"
        },
        "returns": {
          "qACRedeemed": "amount of AC sent to the `recipient_`",
          "qFeeToken": "amount of Fee Token used by sender to pay fees. 0 if qAC is used instead",
          "qTPRedeemed": "amount of Pegged Token redeemed"
        }
      },
      "redeemTCandTPtoViaVendor(address,uint256,uint256,uint256,address,address)": {
        "params": {
          "qACmin_": "minimum amount of Collateral Asset that `recipient_` expects to receive",
          "qTC_": "maximum amount of Collateral Token to redeem",
          "qTP_": "maximum amount of Pegged Token to redeem",
          "recipient_": "address who receives the Collateral Asset",
          "tp_": "Pegged Token address",
          "vendor_": "address who receives a markup"
        },
        "returns": {
          "qACRedeemed": "amount of AC sent to the `recipient_`",
          "qFeeToken": "amount of Fee Token used by sender to pay fees. 0 if qAC is used instead",
          "qTPRedeemed": "amount of Pegged Token redeemed"
        }
      },
      "redeemTCto(uint256,uint256,address)": {
        "params": {
          "qACmin_": "minimum amount of Collateral Asset that `recipient_` expects to receive",
          "qTC_": "amount of Collateral Token to redeem",
          "recipient_": "address who receives the Collateral Asset"
        },
        "returns": {
          "qACRedeemed": "amount of AC sent to 'recipient_'",
          "qFeeToken": "amount of Fee Token used by sender to pay fees. 0 if qAC is used instead"
        }
      },
      "redeemTCtoViaVendor(uint256,uint256,address,address)": {
        "params": {
          "qACmin_": "minimum amount of Collateral Asset that `recipient_` expects to receive",
          "qTC_": "amount of Collateral Token to redeem",
          "recipient_": "address who receives the Collateral Asset",
          "vendor_": "address who receives a markup"
        },
        "returns": {
          "qACRedeemed": "amount of AC sent to 'recipient_'",
          "qFeeToken": "amount of Fee Token used by sender to pay fees. 0 if qAC is used instead"
        }
      },
      "redeemTP(address,uint256,uint256)": {
        "params": {
          "qACmin_": "minimum amount of Collateral Asset that sender expects to receive",
          "qTP_": "amount of Pegged Token to redeem",
          "tp_": "Pegged Token to redeem"
        },
        "returns": {
          "qACRedeemed": "amount of AC sent to sender",
          "qFeeToken": "amount of Fee Token used by sender to pay fees. 0 if qAC is used instead"
        }
      },
      "redeemTPViaVendor(address,uint256,uint256,address)": {
        "params": {
          "qACmin_": "minimum amount of Collateral Asset that sender expects to receive",
          "qTP_": "amount of Pegged Token to redeem",
          "tp_": "Pegged Token to redeem",
          "vendor_": "address who receives a markup"
        },
        "returns": {
          "qACRedeemed": "amount of AC sent to sender",
          "qFeeToken": "amount of Fee Token used by sender to pay fees. 0 if qAC is used instead"
        }
      },
      "redeemTPto(address,uint256,uint256,address)": {
        "params": {
          "qACmin_": "minimum amount of Collateral Asset that `recipient_` expects to receive",
          "qTP_": "amount of Pegged Token to redeem",
          "recipient_": "address who receives the Collateral Asset",
          "tp_": "Pegged Token to redeem"
        },
        "returns": {
          "qACRedeemed": "amount of AC sent to 'recipient_'",
          "qFeeToken": "amount of Fee Token used by sender to pay fees. 0 if qAC is used instead"
        }
      },
      "redeemTPtoViaVendor(address,uint256,uint256,address,address)": {
        "params": {
          "qACmin_": "minimum amount of Collateral Asset that `recipient_` expects to receive",
          "qTP_": "amount of Pegged Token to redeem",
          "recipient_": "address who receives the Collateral Asset",
          "tp_": "Pegged Token to redeem",
          "vendor_": "address who receives a markup"
        },
        "returns": {
          "qACRedeemed": "amount of AC sent to 'recipient_'",
          "qFeeToken": "amount of Fee Token used by sender to pay fees. 0 if qAC is used instead"
        }
      },
      "setAppreciationFactor(uint256)": {
        "details": "sets appreciation Factor value.",
        "params": {
          "appreciationFactor_": "pct of the gain because Pegged Tokens devaluation that is returned in Pegged Tokens to appreciation beneficiary during the settlement [PREC]"
        }
      },
      "setBes(uint256)": {
        "details": "bns is not automatically updated, you have to wait until next settlement to be made : bns = block.number + bes*",
        "params": {
          "bes_": "number of blocks between settlements"
        }
      },
      "setDecayBlockSpan(uint256)": {
        "details": "sets flux capacitor decay block span",
        "params": {
          "decayBlockSpan_": "flux capacitor decay block span"
        }
      },
      "setEmaCalculationBlockSpan(uint256)": {
        "details": "nextEmaCalculation is not automatically updated, you have to wait until next  EMA calculation to be made : nextEmaCalculation = block.number + emaCalculationBlockSpan*",
        "params": {
          "blockSpan_": "Defines how many blocks should pass between EMA calculations"
        }
      },
      "setFeeRetainer(uint256)": {
        "details": "sets the fee pct to be retainer on AC fees payments as AC re-injection.",
        "params": {
          "feeRetainer_": "pct retain on fees to be re-injected as Collateral, while paying fees with AC [PREC] 0% = 0; 1% = 10 ** 16; 100% = 10 ** 18"
        }
      },
      "setFeeTokenAddress(address)": {
        "details": "sets Fee Token contract address",
        "params": {
          "mocFeeTokenAddress_": "Fee Token new contract address"
        }
      },
      "setFeeTokenPct(uint256)": {
        "details": "sets the fee applied on the top of the operation`s fee when using Fee Token as fee payment method.",
        "params": {
          "feeTokenPct_": "pct applied on the top of the operation`s fee when using Fee Token  as fee payment method [PREC]  e.g. if tcMintFee = 1%, FeeTokenPct = 50% => qFeeToken = 0.5%  0% = 0; 1% = 10 ** 16; 100% = 10 ** 18"
        }
      },
      "setFeeTokenPriceProviderAddress(address)": {
        "details": "sets Fee Token price provider contract address",
        "params": {
          "mocFeeTokenPriceProviderAddress_": "Fee Token price provider new contract address"
        }
      },
      "setLiqEnabled(bool)": {
        "details": "enables and disables the liquidation mechanism.",
        "params": {
          "liqEnabled_": "is liquidation enabled"
        }
      },
      "setLiqThrld(uint256)": {
        "details": "sets the value of the liq threshold configuration param",
        "params": {
          "liqThrld_": "liquidation threshold"
        }
      },
      "setMaxAbsoluteOpProviderAddress(address)": {
        "details": "sets max absolute operation provider address",
        "params": {
          "maxAbsoluteOpProviderAddress_": "max absolute operation provider address"
        }
      },
      "setMaxOpDiffProviderAddress(address)": {
        "details": "sets max operation difference provider address",
        "params": {
          "maxOpDiffProviderAddress_": "max operation difference provider address"
        }
      },
      "setMintTCandTPFee(uint256)": {
        "details": "sets the fee charged when mint Collateral Token and Pegged Token in one operation.",
        "params": {
          "mintTCandTPFee_": "additional fee pct applied on mint Collateral Token and Pegged Token [PREC] 0% = 0; 1% = 10 ** 16; 100% = 10 ** 18"
        }
      },
      "setMocAppreciationBeneficiaryAddress(address)": {
        "details": "sets Moc Appreciation Beneficiary Address",
        "params": {
          "mocAppreciationBeneficiaryAddress_": "moc Appreciation Beneficiary new address"
        }
      },
      "setMocCoreExpansion(address)": {
        "details": "sets Moc Core Expansion contract address",
        "params": {
          "mocCoreExpansion_": "moc core expansion new contract address"
        }
      },
      "setMocFeeFlowAddress(address)": {
        "details": "sets Moc Fee Flow contract address",
        "params": {
          "mocFeeFlowAddress_": "moc Fee Flow new contract address"
        }
      },
      "setMocVendors(address)": {
        "details": "sets Moc Vendors contract address",
        "params": {
          "mocVendors_": "moc Vendors new contract address"
        }
      },
      "setPauser(address)": {
        "details": "Should be called through governance",
        "params": {
          "newPauser_": "Address of the new pauser"
        }
      },
      "setProtThrld(uint256)": {
        "details": "sets the value of the protected threshold configuration param",
        "params": {
          "protThrld_": "coverage protected state threshold [PREC]"
        }
      },
      "setRedeemTCandTPFee(uint256)": {
        "details": "sets the fee charged when redeem Collateral Token and Pegged Token in one operation.",
        "params": {
          "redeemTCandTPFee_": "additional fee pct applied on redeem Collateral Token and Pegged Token [PREC] 0% = 0; 1% = 10 ** 16; 100% = 10 ** 18"
        }
      },
      "setSuccessFee(uint256)": {
        "details": "sets success Fee value.",
        "params": {
          "successFee_": "pct of the gain because Pegged Tokens devaluation that is transferred in Collateral Asset to Moc Fee Flow during the settlement [PREC]"
        }
      },
      "setSwapTCforTPFee(uint256)": {
        "details": "sets the fee charged when swap Collateral Token for a Pegged Token.",
        "params": {
          "swapTCforTPFee_": "additional fee pct applied on swap Collateral Token for a Pegged Token [PREC] 0% = 0; 1% = 10 ** 16; 100% = 10 ** 18"
        }
      },
      "setSwapTPforTCFee(uint256)": {
        "details": "sets the fee charged when swap a Pegged Token for Collateral Token.",
        "params": {
          "swapTPforTCFee_": "additional fee pct applied on swap a Pegged Token for Collateral Token [PREC] 0% = 0; 1% = 10 ** 16; 100% = 10 ** 18"
        }
      },
      "setSwapTPforTPFee(uint256)": {
        "details": "sets the fee charged when swap a Pegged Token for another Pegged Token.",
        "params": {
          "swapTPforTPFee_": "additional fee pct applied on swap a Pegged Token for another Pegged Token [PREC] 0% = 0; 1% = 10 ** 16; 100% = 10 ** 18"
        }
      },
      "setTCInterestCollectorAddress(address)": {
        "details": "sets TC interest collector address",
        "params": {
          "tcInterestCollectorAddress_": "TC interest collector address"
        }
      },
      "setTCInterestPaymentBlockSpan(uint256)": {
        "details": "sets TC interest payment block spannextTCInterestPayment is not automatically updated, you have to wait until next  interest payment to be made : nextTCInterestPayment = block.number + tcInterestPaymentBlockSpan",
        "params": {
          "tcInterestPaymentBlockSpan_": "amount of blocks to wait for next TC interest payment"
        }
      },
      "setTCInterestRate(uint256)": {
        "details": "sets TC interest rate",
        "params": {
          "tcInterestRate_": "pct interest charged to TC holders on the total collateral in the protocol [PREC]"
        }
      },
      "setTcMintFee(uint256)": {
        "details": "sets the fee charged on Token Collateral mint.",
        "params": {
          "tcMintFee_": "addition fee pct applied on Collateral Tokens mint [PREC] 0% = 0; 1% = 10 ** 16; 100% = 10 ** 18"
        }
      },
      "setTcRedeemFee(uint256)": {
        "details": "sets the fee charged on Token Collateral redeem.",
        "params": {
          "tcRedeemFee_": "addition fee pct applied on Collateral Tokens redeem [PREC] 0% = 0; 1% = 10 ** 16; 100% = 10 ** 18"
        }
      },
      "swapTCforTP(address,uint256,uint256)": {
        "params": {
          "qTC_": "amount of Collateral Token to swap",
          "qTPmin_": "minimum amount of Pegged Token that the sender expects to receive",
          "tp_": "Pegged Token address"
        },
        "returns": {
          "qACFee": "amount of AC used to pay fee",
          "qFeeToken": "amount of Fee Token used by sender to pay fees. 0 if qAC is used instead",
          "qTPMinted": "amount of Pegged Token minted"
        }
      },
      "swapTCforTPViaVendor(address,uint256,uint256,address)": {
        "params": {
          "qTC_": "amount of Collateral Token to swap",
          "qTPmin_": "minimum amount of Pegged Token that the sender expects to receive",
          "tp_": "Pegged Token address",
          "vendor_": "address who receives a markup"
        },
        "returns": {
          "qACFee": "amount of AC used to pay fee",
          "qFeeToken": "amount of Fee Token used by sender to pay fees. 0 if qAC is used instead",
          "qTPMinted": "amount of Pegged Token minted"
        }
      },
      "swapTCforTPto(address,uint256,uint256,address)": {
        "params": {
          "qTC_": "amount of Collateral to swap",
          "qTPmin_": "minimum amount of Pegged Token that `recipient_` expects to receive",
          "recipient_": "address who receives the Pegged Token",
          "tp_": "Pegged Token address"
        },
        "returns": {
          "qACFee": "amount of AC used to pay fee",
          "qFeeToken": "amount of Fee Token used by sender to pay fees. 0 if qAC is used instead",
          "qTPMinted": "amount of Pegged Token minted"
        }
      },
      "swapTCforTPtoViaVendor(address,uint256,uint256,address,address)": {
        "params": {
          "qTC_": "amount of Collateral to swap",
          "qTPmin_": "minimum amount of Pegged Token that `recipient_` expects to receive",
          "recipient_": "address who receives the Pegged Token",
          "tp_": "Pegged Token address",
          "vendor_": "address who receives a markup"
        },
        "returns": {
          "qACFee": "amount of AC used to pay fee",
          "qFeeToken": "amount of Fee Token used by sender to pay fees. 0 if qAC is used instead",
          "qTPMinted": "amount of Pegged Token minted"
        }
      },
      "swapTPforTC(address,uint256,uint256)": {
        "params": {
          "qTCmin_": "minimum amount of Collateral Token that the sender expects to receive",
          "qTP_": "amount of owned Pegged Token to swap",
          "tp_": "Pegged Token address"
        },
        "returns": {
          "qACFee": "amount of AC used to pay fee",
          "qFeeToken": "amount of Fee Token used by sender to pay fees. 0 if qAC is used instead",
          "qTCMinted": "amount of Collateral Token minted"
        }
      },
      "swapTPforTCViaVendor(address,uint256,uint256,address)": {
        "params": {
          "qTCmin_": "minimum amount of Collateral Token that the sender expects to receive",
          "qTP_": "amount of owned Pegged Token to swap",
          "tp_": "Pegged Token address",
          "vendor_": "address who receives a markup"
        },
        "returns": {
          "qACFee": "amount of AC used to pay fee",
          "qFeeToken": "amount of Fee Token used by sender to pay fees. 0 if qAC is used instead",
          "qTCMinted": "amount of Collateral Token minted"
        }
      },
      "swapTPforTCto(address,uint256,uint256,address)": {
        "params": {
          "qTCmin_": "minimum amount of Collateral Token that `recipient_` expects to receive",
          "qTP_": "amount of owned Pegged Token to swap",
          "recipient_": "address who receives the Collateral Token",
          "tp_": "Pegged Token address"
        },
        "returns": {
          "qACFee": "amount of AC used to pay fee",
          "qFeeToken": "amount of Fee Token used by sender to pay fees. 0 if qAC is used instead",
          "qTCMinted": "amount of Collateral Token minted"
        }
      },
      "swapTPforTCtoViaVendor(address,uint256,uint256,address,address)": {
        "params": {
          "qTCmin_": "minimum amount of Collateral Token that `recipient_` expects to receive",
          "qTP_": "amount of owned Pegged Token to swap",
          "recipient_": "address who receives the Collateral Token",
          "tp_": "Pegged Token address",
          "vendor_": "address who receives a markup"
        },
        "returns": {
          "qACFee": "amount of AC used to pay fee",
          "qFeeToken": "amount of Fee Token used by sender to pay fees. 0 if qAC is used instead",
          "qTCMinted": "amount of Collateral Token minted"
        }
      },
      "swapTPforTP(address,address,uint256,uint256)": {
        "params": {
          "qTP_": "amount of owned Pegged Token to swap",
          "qTPmin_": "minimum amount of target Pegged Token that the sender expects to receive",
          "tpFrom_": "owned Pegged Token address",
          "tpTo_": "target Pegged Token address"
        },
        "returns": {
          "qACFee": "amount of AC used to pay fee",
          "qFeeToken": "amount of Fee Token used by sender to pay fees. 0 if qAC is used instead",
          "qTPMinted": "amount of Pegged Token minted"
        }
      },
      "swapTPforTPViaVendor(address,address,uint256,uint256,address)": {
        "params": {
          "qTP_": "amount of owned Pegged Token to swap",
          "qTPmin_": "minimum amount of target Pegged Token that the sender expects to receive",
          "tpFrom_": "owned Pegged Token address",
          "tpTo_": "target Pegged Token address",
          "vendor_": "address who receives a markup"
        },
        "returns": {
          "qACFee": "amount of AC used to pay fee",
          "qFeeToken": "amount of Fee Token used by sender to pay fees. 0 if qAC is used instead",
          "qTPMinted": "amount of Pegged Token minted"
        }
      },
      "swapTPforTPto(address,address,uint256,uint256,address)": {
        "params": {
          "qTP_": "amount of owned Pegged Token to swap",
          "qTPmin_": "minimum amount of target Pegged Token that `recipient_` expects to receive",
          "recipient_": "address who receives the target Pegged Token",
          "tpFrom_": "owned Pegged Token address",
          "tpTo_": "target Pegged Token address"
        },
        "returns": {
          "qACFee": "amount of AC used to pay fee",
          "qFeeToken": "amount of Fee Token used by sender to pay fees. 0 if qAC is used instead",
          "qTPMinted": "amount of Pegged Token minted"
        }
      },
      "swapTPforTPtoViaVendor(address,address,uint256,uint256,address,address)": {
        "params": {
          "qTP_": "amount of owned Pegged Token to swap",
          "qTPmin_": "minimum amount of target Pegged Token that `recipient_` expects to receive",
          "recipient_": "address who receives the target Pegged Token",
          "tpFrom_": "owned Pegged Token address",
          "tpTo_": "target Pegged Token address",
          "vendor_": "address who receives a markup"
        },
        "returns": {
          "qACFee": "amount of AC used to pay fee",
          "qFeeToken": "amount of Fee Token used by sender to pay fees. 0 if qAC is used instead",
          "qTPMinted": "amount of Pegged Token minted"
        }
      },
      "tcHoldersInterestPayment()": {
        "details": "-   The amount is not differential, it's a snapshot of the moment it's executed  -   It does not check coverage"
      },
      "updateEmas()": {
        "details": "All price provider prices must be available, fails if not"
      },
      "upgradeTo(address)": {
        "custom:oz-upgrades-unsafe-allow-reachable": "delegatecall",
        "details": "Upgrade the implementation of the proxy to `newImplementation`. Calls {_authorizeUpgrade}. Emits an {Upgraded} event."
      },
      "upgradeToAndCall(address,bytes)": {
        "custom:oz-upgrades-unsafe-allow-reachable": "delegatecall",
        "details": "Upgrade the implementation of the proxy to `newImplementation`, and subsequently execute the function call encoded in `data`. Calls {_authorizeUpgrade}. Emits an {Upgraded} event."
      }
    },
    "title": "MocCoinbaseMock",
    "version": 1
  },
  "evm": {
    "bytecode": {
      "linkReferences": {},
      "opcodes": "PUSH1 0xA0 DUP1 PUSH1 0x40 MSTORE CALLVALUE PUSH3 0xDF JUMPI ADDRESS PUSH1 0x80 MSTORE PUSH0 SLOAD SWAP1 PUSH1 0xFF DUP3 PUSH1 0x8 SHR AND PUSH3 0x8D JUMPI POP PUSH1 0xFF DUP1 DUP3 AND SUB PUSH3 0x52 JUMPI JUMPDEST PUSH1 0x40 MLOAD PUSH2 0x5DF2 SWAP1 DUP2 PUSH3 0xE4 DUP3 CODECOPY PUSH1 0x80 MLOAD DUP2 DUP2 DUP2 PUSH2 0x239B ADD MSTORE DUP2 DUP2 PUSH2 0x2573 ADD MSTORE PUSH2 0x29DC ADD MSTORE RETURN JUMPDEST PUSH1 0xFF SWAP1 DUP2 NOT AND OR PUSH0 SSTORE PUSH32 0x7F26B83FF96E1F2B6A682F133852F6798A09C465DA95921460CEFB3847402498 PUSH1 0x20 PUSH1 0x40 MLOAD PUSH1 0xFF DUP2 MSTORE LOG1 PUSH0 PUSH3 0x2B JUMP JUMPDEST PUSH3 0x461BCD PUSH1 0xE5 SHL DUP2 MSTORE PUSH1 0x20 PUSH1 0x4 DUP3 ADD MSTORE PUSH1 0x27 PUSH1 0x24 DUP3 ADD MSTORE PUSH32 0x496E697469616C697A61626C653A20636F6E747261637420697320696E697469 PUSH1 0x44 DUP3 ADD MSTORE PUSH7 0x616C697A696E67 PUSH1 0xC8 SHL PUSH1 0x64 DUP3 ADD MSTORE PUSH1 0x84 SWAP1 REVERT JUMPDEST PUSH0 DUP1 REVERT INVALID PUSH1 0x40 PUSH1 0x80 DUP2 MSTORE PUSH1 0x4 CALLDATASIZE LT ISZERO PUSH2 0x2C JUMPI JUMPDEST POP CALLDATASIZE ISZERO PUSH2 0x1A JUMPI PUSH0 DUP1 REVERT JUMPDEST PUSH2 0x163 PUSH2 0x28 CALLVALUE DUP3 SLOAD PUSH2 0x385B JUMP JUMPDEST SWAP1 SSTORE STOP JUMPDEST PUSH0 SWAP1 PUSH1 0xE0 DUP3 CALLDATALOAD DUP2 SHR SWAP1 DUP2 PUSH4 0x1DDE6EF EQ PUSH2 0x31EB JUMPI DUP2 PUSH4 0x1F1B684 EQ PUSH2 0x31A4 JUMPI DUP2 PUSH4 0x579188F EQ PUSH2 0x30FA JUMPI DUP2 PUSH4 0x73763B9 EQ PUSH2 0x30D6 JUMPI DUP2 PUSH4 0xB69640D EQ PUSH2 0x303B JUMPI DUP2 PUSH4 0xC340A24 EQ PUSH2 0x3012 JUMPI DUP2 PUSH4 0xC36D897 EQ PUSH2 0x2FF2 JUMPI DUP2 PUSH4 0xD10EBE9 EQ PUSH2 0x2F91 JUMPI DUP2 PUSH4 0xD6AC463 EQ PUSH2 0x2F4B JUMPI DUP2 PUSH4 0xDB49656 EQ PUSH2 0x2F2B JUMPI DUP2 PUSH4 0xE0A8FD2 EQ PUSH2 0x2F07 JUMPI DUP2 PUSH4 0xF1E5E2B EQ PUSH2 0x2EC1 JUMPI DUP2 PUSH4 0x17937F9B EQ PUSH2 0x2E8A JUMPI DUP2 PUSH4 0x1867E2F5 EQ PUSH2 0x2E6A JUMPI DUP2 PUSH4 0x1AF4B229 EQ PUSH2 0x2E03 JUMPI DUP2 PUSH4 0x1FB0DDA0 EQ PUSH2 0x2DDA JUMPI DUP2 PUSH4 0x1FE6A7AD EQ PUSH2 0x2DA0 JUMPI DUP2 PUSH4 0x2069F753 EQ PUSH2 0x2D7C JUMPI DUP2 PUSH4 0x23B98CDE EQ PUSH2 0x2D54 JUMPI DUP2 PUSH4 0x243D56A5 EQ PUSH2 0x2D1F JUMPI DUP2 PUSH4 0x24FFABA3 EQ PUSH2 0x2CE2 JUMPI DUP2 PUSH4 0x27EAB2A1 EQ PUSH2 0x2C9C JUMPI DUP2 PUSH4 0x2A20D57D EQ PUSH2 0x2C7C JUMPI DUP2 PUSH4 0x2C43BD3B EQ PUSH2 0x2C58 JUMPI DUP2 PUSH4 0x2D88AF4A EQ PUSH2 0x2C01 JUMPI DUP2 PUSH4 0x2DED50F0 EQ PUSH2 0x2BE1 JUMPI DUP2 PUSH4 0x31F64EC2 EQ PUSH2 0x2BC2 JUMPI DUP2 PUSH4 0x333431FD EQ PUSH2 0x2BA2 JUMPI DUP2 PUSH4 0x33421C38 EQ PUSH2 0x2AAF JUMPI DUP2 PUSH4 0x34246862 EQ PUSH2 0x2A41 JUMPI DUP2 PUSH4 0x3659CFE6 EQ PUSH2 0x29A7 JUMPI DUP2 PUSH4 0x3915EDCB EQ PUSH2 0x2976 JUMPI DUP2 PUSH4 0x3B0D5FFF EQ PUSH2 0x290F JUMPI DUP2 PUSH4 0x3BC4AC0A EQ PUSH2 0x28EB JUMPI DUP2 PUSH4 0x3DBC50A9 EQ PUSH2 0x28A2 JUMPI DUP2 PUSH4 0x3F4BA83A EQ PUSH2 0x2827 JUMPI DUP2 PUSH4 0x4017936A EQ PUSH2 0x27E0 JUMPI DUP2 PUSH4 0x407F0E34 EQ PUSH2 0x27C0 JUMPI DUP2 PUSH4 0x466B8934 EQ PUSH2 0x275D JUMPI DUP2 PUSH4 0x471A80E3 EQ PUSH2 0x2723 JUMPI DUP2 PUSH4 0x4A587124 EQ PUSH2 0x26CB JUMPI DUP2 PUSH4 0x4B746001 EQ PUSH2 0x2681 JUMPI DUP2 PUSH4 0x4C6AF8E8 EQ PUSH2 0x2648 JUMPI DUP2 PUSH4 0x4D977E78 EQ PUSH2 0x2628 JUMPI DUP2 PUSH4 0x4E1F907A EQ PUSH2 0x25FE JUMPI DUP2 PUSH4 0x4F0F27EE EQ PUSH2 0x25DE JUMPI DUP2 PUSH4 0x4F1EF286 EQ PUSH2 0x24EA JUMPI DUP2 PUSH4 0x51A9CEDC EQ PUSH2 0x2481 JUMPI DUP2 PUSH4 0x5210570C EQ PUSH2 0x245B JUMPI DUP2 PUSH4 0x52D1902D EQ PUSH2 0x2386 JUMPI DUP2 PUSH4 0x52E18F8F EQ PUSH2 0x2330 JUMPI DUP2 PUSH4 0x533A4BEA EQ PUSH2 0x22FF JUMPI DUP2 PUSH4 0x543AEB48 EQ PUSH2 0x22DB JUMPI DUP2 PUSH4 0x57271F4D EQ PUSH2 0x22AB JUMPI DUP2 PUSH4 0x5860EE63 EQ PUSH2 0x228B JUMPI DUP2 PUSH4 0x5C616A73 EQ PUSH2 0x2083 JUMPI DUP2 PUSH4 0x5C975ABB EQ PUSH2 0x205C JUMPI DUP2 PUSH4 0x5E2A6065 EQ PUSH2 0x2042 JUMPI DUP2 PUSH4 0x5ECE17EF EQ PUSH2 0x1FB7 JUMPI DUP2 PUSH4 0x60009E0B EQ PUSH2 0x1F8D JUMPI DUP2 PUSH4 0x647846A5 EQ PUSH2 0x1F63 JUMPI DUP2 PUSH4 0x64EC230A EQ PUSH2 0x1F3F JUMPI DUP2 PUSH4 0x662013F4 EQ PUSH2 0x1F22 JUMPI DUP2 PUSH4 0x68274357 EQ PUSH2 0x1EF9 JUMPI DUP2 PUSH4 0x68748A42 EQ PUSH2 0x1EA5 JUMPI DUP2 PUSH4 0x68A09E13 EQ PUSH2 0x1E45 JUMPI DUP2 PUSH4 0x69D9C2F2 EQ PUSH2 0x1DF1 JUMPI DUP2 PUSH4 0x6B5488DF EQ PUSH2 0x1DD1 JUMPI DUP2 PUSH4 0x6F30471F EQ PUSH2 0x1DB1 JUMPI DUP2 PUSH4 0x70713468 EQ PUSH2 0x1D8D JUMPI DUP2 PUSH4 0x735D3960 EQ PUSH2 0x1D47 JUMPI DUP2 PUSH4 0x73E28AF9 EQ PUSH2 0x1D23 JUMPI DUP2 PUSH4 0x7554FFFD EQ PUSH2 0x1D03 JUMPI DUP2 PUSH4 0x76228055 EQ PUSH2 0x1CE3 JUMPI DUP2 PUSH4 0x7636BB09 EQ PUSH2 0x1C8B JUMPI DUP2 PUSH4 0x7750BA0C EQ PUSH2 0x1C67 JUMPI DUP2 PUSH4 0x79873A26 EQ PUSH2 0x1C12 JUMPI DUP2 PUSH4 0x79F9A91C EQ PUSH2 0x1BF2 JUMPI DUP2 PUSH4 0x7A193C31 EQ PUSH2 0x1BD2 JUMPI DUP2 PUSH4 0x7A4FF1D9 EQ PUSH2 0x1BAE JUMPI DUP2 PUSH4 0x7A727FE8 EQ PUSH2 0x1B8E JUMPI DUP2 PUSH4 0x7AF5758C EQ PUSH2 0x1B6A JUMPI DUP2 PUSH4 0x7CBA2383 EQ PUSH2 0x1B46 JUMPI DUP2 PUSH4 0x7D8E0314 EQ PUSH2 0x1B07 JUMPI DUP2 PUSH4 0x7F01C715 EQ PUSH2 0x1ADD JUMPI DUP2 PUSH4 0x7F13B998 EQ PUSH2 0x1AA7 JUMPI DUP2 PUSH4 0x7F4A4FE0 EQ PUSH2 0x1A87 JUMPI DUP2 PUSH4 0x826FCD58 EQ PUSH2 0x1A64 JUMPI DUP2 PUSH4 0x8456CB59 EQ PUSH2 0x19CF JUMPI DUP2 PUSH4 0x85BF9593 EQ PUSH2 0x1989 JUMPI DUP2 PUSH4 0x89FD503E EQ PUSH2 0x1932 JUMPI DUP2 PUSH4 0x8ACC2011 EQ PUSH2 0x18D8 JUMPI DUP2 PUSH4 0x8CFA4241 EQ PUSH2 0x18B8 JUMPI DUP2 PUSH4 0x8D7A72F3 EQ PUSH2 0x1898 JUMPI DUP2 PUSH4 0x8E2BDB86 EQ PUSH2 0x186E JUMPI DUP2 PUSH4 0x8F1A383A EQ PUSH2 0x1846 JUMPI DUP2 PUSH4 0x960556F3 EQ PUSH2 0x17DA JUMPI DUP2 PUSH4 0x9853C35A EQ PUSH2 0x17B0 JUMPI DUP2 PUSH4 0x9ABB14C9 EQ PUSH2 0x1769 JUMPI DUP2 PUSH4 0x9AD6659D EQ PUSH2 0x1733 JUMPI DUP2 PUSH4 0x9BEA71A4 EQ PUSH2 0x16F1 JUMPI DUP2 PUSH4 0x9CABFC00 EQ PUSH2 0x16A5 JUMPI DUP2 PUSH4 0x9FD0506D EQ PUSH2 0x1678 JUMPI DUP2 PUSH4 0xA586419C EQ PUSH2 0x1185 JUMPI DUP2 PUSH4 0xA8E9AC30 EQ PUSH2 0x1162 JUMPI DUP2 PUSH4 0xAEA038DC EQ PUSH2 0x1142 JUMPI DUP2 PUSH4 0xAEB41E69 EQ PUSH2 0x10E1 JUMPI DUP2 PUSH4 0xB3903B39 EQ PUSH2 0x10AD JUMPI DUP2 PUSH4 0xB5E9EA8C EQ PUSH2 0x1083 JUMPI DUP2 PUSH4 0xB9FA6413 EQ PUSH2 0x1063 JUMPI DUP2 PUSH4 0xBB4872DE EQ PUSH2 0x103F JUMPI DUP2 PUSH4 0xBECACA6B EQ PUSH2 0x101B JUMPI DUP2 PUSH4 0xBF1AD8B1 EQ PUSH2 0xFC3 JUMPI DUP2 PUSH4 0xC00F538D EQ PUSH2 0xF9F JUMPI DUP2 PUSH4 0xC039CC69 EQ PUSH2 0xF5D JUMPI DUP2 PUSH4 0xC0D8E15E EQ PUSH2 0xEE1 JUMPI DUP2 PUSH4 0xC84353C9 EQ PUSH2 0xEBD JUMPI DUP2 PUSH4 0xCC75B048 EQ PUSH2 0xE65 JUMPI DUP2 PUSH4 0xCF351C1D EQ PUSH2 0xE1F JUMPI DUP2 PUSH4 0xD1A0FAA0 EQ PUSH2 0xE03 JUMPI DUP2 PUSH4 0xD471849B EQ PUSH2 0xD98 JUMPI DUP2 PUSH4 0xD6AF11DA EQ PUSH2 0xD5C JUMPI DUP2 PUSH4 0xD8233ECC EQ PUSH2 0xD08 JUMPI DUP2 PUSH4 0xD87AAB6F EQ PUSH2 0xCE8 JUMPI DUP2 PUSH4 0xD8DB6F5A EQ PUSH2 0xCA2 JUMPI DUP2 PUSH4 0xDB796072 EQ PUSH2 0xC65 JUMPI DUP2 PUSH4 0xDD9928D8 EQ PUSH2 0xC13 JUMPI DUP2 PUSH4 0xDDB6D190 EQ PUSH2 0xBD6 JUMPI DUP2 PUSH4 0xDE8D520A EQ PUSH2 0xBA3 JUMPI DUP2 PUSH4 0xE4012945 EQ PUSH2 0xB46 JUMPI DUP2 PUSH4 0xE4C0AAF4 EQ PUSH2 0xB01 JUMPI DUP2 PUSH4 0xE6A683E0 EQ PUSH2 0xABB JUMPI DUP2 PUSH4 0xE6B1627C EQ PUSH2 0xA77 JUMPI DUP2 PUSH4 0xE7C25978 EQ PUSH2 0xA52 JUMPI DUP2 PUSH4 0xE8859A15 EQ PUSH2 0xA35 JUMPI DUP2 PUSH4 0xEE1F438F EQ PUSH2 0xA0B JUMPI DUP2 PUSH4 0xEEDD8A40 EQ PUSH2 0x9A4 JUMPI DUP2 PUSH4 0xF13F4054 EQ PUSH2 0x97A JUMPI DUP2 PUSH4 0xF26114AA EQ PUSH2 0x919 JUMPI DUP2 PUSH4 0xF2808778 EQ PUSH2 0x8F5 JUMPI DUP2 PUSH4 0xF30B5614 EQ PUSH2 0x8D5 JUMPI DUP2 PUSH4 0xF375CFBA EQ PUSH2 0x8B5 JUMPI DUP2 PUSH4 0xF88B1434 EQ PUSH2 0x845 JUMPI DUP2 PUSH4 0xFA6E83BD EQ PUSH2 0x825 JUMPI DUP2 PUSH4 0xFADDA424 EQ PUSH2 0x7B1 JUMPI DUP2 PUSH4 0xFB3BFCEA EQ PUSH2 0x73A JUMPI DUP2 PUSH4 0xFD80FA77 EQ PUSH2 0x6B9 JUMPI POP PUSH4 0xFDA70F8B EQ PUSH2 0x697 JUMPI POP PUSH2 0xF JUMP JUMPDEST CALLVALUE PUSH2 0x6B5 JUMPI DUP2 PUSH1 0x3 NOT CALLDATASIZE ADD SLT PUSH2 0x6B5 JUMPI PUSH1 0x20 SWAP1 PUSH2 0x16E SLOAD SWAP1 MLOAD SWAP1 DUP2 MSTORE RETURN JUMPDEST POP DUP1 REVERT JUMPDEST SWAP1 POP CALLVALUE PUSH2 0x736 JUMPI PUSH2 0x715 SWAP1 PUSH2 0x732 SWAP4 PUSH2 0x6D3 CALLDATASIZE PUSH1 0x4 PUSH2 0x3386 JUMP JUMPDEST SWAP3 PUSH2 0x6E3 DUP10 SWAP4 SWAP3 SWAP4 MLOAD SWAP8 DUP9 PUSH2 0x32DA JUMP JUMPDEST PUSH1 0x1 DUP1 PUSH1 0xA0 SHL SUB DUP1 SWAP6 AND DUP8 MSTORE PUSH1 0x20 DUP8 ADD MSTORE DUP8 DUP7 ADD MSTORE PUSH1 0x60 DUP6 ADD MSTORE CALLER PUSH1 0x80 DUP6 ADD MSTORE AND PUSH1 0xA0 DUP4 ADD MSTORE PUSH1 0xC0 DUP3 ADD MSTORE CALLER SWAP1 PUSH2 0x5932 JUMP JUMPDEST POP SWAP3 MLOAD SWAP2 DUP3 MSTORE PUSH1 0x20 DUP3 ADD MSTORE PUSH1 0x40 DUP2 ADD SWAP2 SWAP1 SWAP2 MSTORE SWAP1 DUP2 SWAP1 PUSH1 0x60 DUP3 ADD SWAP1 JUMP JUMPDEST SUB SWAP1 RETURN JUMPDEST DUP3 DUP1 REVERT JUMPDEST DUP3 DUP5 PUSH1 0x60 CALLDATASIZE PUSH1 0x3 NOT ADD SLT PUSH2 0x7AE JUMPI POP PUSH1 0x1 PUSH1 0x1 PUSH1 0xA0 SHL SUB PUSH1 0x24 CALLDATALOAD DUP2 DUP2 AND SWAP1 DUP2 SWAP1 SUB PUSH2 0x7AA JUMPI PUSH1 0x44 CALLDATALOAD SWAP2 DUP3 AND DUP1 SWAP3 SUB PUSH2 0x7AA JUMPI PUSH2 0x79D SWAP2 DUP4 MLOAD SWAP2 PUSH2 0x77E PUSH1 0xA0 DUP5 PUSH2 0x32DA JUMP JUMPDEST PUSH1 0x4 CALLDATALOAD DUP4 MSTORE CALLVALUE PUSH1 0x20 DUP5 ADD MSTORE CALLER DUP6 DUP5 ADD MSTORE PUSH1 0x60 DUP4 ADD MSTORE PUSH1 0x80 DUP3 ADD MSTORE PUSH2 0x3EF1 JUMP JUMPDEST POP DUP3 MLOAD SWAP2 DUP3 MSTORE PUSH1 0x20 DUP3 ADD MSTORE RETURN JUMPDEST PUSH0 DUP1 REVERT JUMPDEST DUP1 REVERT JUMPDEST DUP3 DUP5 CALLVALUE PUSH2 0x7AE JUMPI PUSH1 0x20 CALLDATASIZE PUSH1 0x3 NOT ADD SLT PUSH2 0x7AE JUMPI POP PUSH1 0x1 PUSH1 0x1 PUSH1 0xA0 SHL SUB PUSH1 0x4 CALLDATALOAD DUP2 DUP2 AND DUP2 SUB PUSH2 0x7AA JUMPI PUSH2 0x7EF PUSH2 0x7E7 PUSH1 0x1 SWAP3 PUSH2 0x3B7D JUMP JUMPDEST PUSH2 0x169 PUSH2 0x32C1 JUMP JUMPDEST POP ADD SLOAD AND PUSH2 0x7FC DUP2 PUSH2 0x3C25 JUMP JUMPDEST SWAP2 SWAP1 SWAP2 ISZERO PUSH2 0x80E JUMPI POP PUSH1 0x20 SWAP2 MLOAD SWAP1 DUP2 MSTORE RETURN JUMPDEST PUSH1 0x24 SWAP1 DUP4 MLOAD SWAP1 PUSH4 0x7F6E4DB9 PUSH1 0xE0 SHL DUP3 MSTORE PUSH1 0x4 DUP3 ADD MSTORE REVERT JUMPDEST POP POP CALLVALUE PUSH2 0x6B5 JUMPI DUP2 PUSH1 0x3 NOT CALLDATASIZE ADD SLT PUSH2 0x6B5 JUMPI PUSH1 0x20 SWAP1 PUSH2 0x16C SLOAD SWAP1 MLOAD SWAP1 DUP2 MSTORE RETURN JUMPDEST DUP3 DUP5 CALLVALUE PUSH2 0x7AE JUMPI PUSH1 0x20 CALLDATASIZE PUSH1 0x3 NOT ADD SLT PUSH2 0x7AE JUMPI POP PUSH1 0x4 CALLDATALOAD SWAP1 PUSH1 0x1 PUSH1 0x1 PUSH1 0xA0 SHL SUB DUP3 AND DUP3 SUB PUSH2 0x7AA JUMPI PUSH2 0x8AE PUSH2 0x8A0 PUSH1 0x20 SWAP4 PUSH2 0x889 PUSH2 0x881 PUSH2 0x5B73 JUMP JUMPDEST SWAP2 SWAP1 SWAP3 PUSH2 0x3B7D JUMP JUMPDEST SWAP2 PUSH2 0x8A8 PUSH2 0x897 DUP5 DUP5 PUSH2 0x387C JUMP JUMPDEST MLOAD SWAP5 DUP6 SWAP4 PUSH2 0x3890 JUMP JUMPDEST SWAP6 SWAP1 SWAP5 PUSH2 0x5AD0 JUMP JUMPDEST SWAP1 PUSH2 0x48D7 JUMP JUMPDEST SWAP1 MLOAD SWAP1 DUP2 MSTORE RETURN JUMPDEST POP POP CALLVALUE PUSH2 0x6B5 JUMPI DUP2 PUSH1 0x3 NOT CALLDATASIZE ADD SLT PUSH2 0x6B5 JUMPI PUSH1 0x20 SWAP1 PUSH2 0x173 SLOAD SWAP1 MLOAD SWAP1 DUP2 MSTORE RETURN JUMPDEST POP POP CALLVALUE PUSH2 0x6B5 JUMPI DUP2 PUSH1 0x3 NOT CALLDATASIZE ADD SLT PUSH2 0x6B5 JUMPI PUSH1 0x20 SWAP1 PUSH2 0x163 SLOAD SWAP1 MLOAD SWAP1 DUP2 MSTORE RETURN JUMPDEST DUP4 CALLVALUE PUSH2 0x7AE JUMPI PUSH1 0x20 CALLDATASIZE PUSH1 0x3 NOT ADD SLT PUSH2 0x7AE JUMPI PUSH2 0x90F PUSH2 0x5CC8 JUMP JUMPDEST PUSH1 0x4 CALLDATALOAD PUSH2 0x16E SSTORE DUP1 RETURN JUMPDEST SWAP1 POP CALLVALUE PUSH2 0x736 JUMPI CALLDATASIZE PUSH1 0x3 NOT ADD SLT PUSH2 0x6B5 JUMPI PUSH2 0x976 SWAP1 PUSH2 0x936 PUSH2 0x5CC8 JUMP JUMPDEST MLOAD PUSH4 0x79308A55 PUSH1 0xE1 SHL PUSH1 0x20 DUP3 ADD MSTORE PUSH2 0x964 DUP2 PUSH2 0x956 PUSH1 0x4 PUSH1 0x24 DUP4 ADD PUSH2 0x536F JUMP JUMPDEST SUB PUSH1 0x1F NOT DUP2 ADD DUP4 MSTORE DUP3 PUSH2 0x32DA JUMP JUMPDEST PUSH2 0x226 SLOAD PUSH1 0x1 PUSH1 0x1 PUSH1 0xA0 SHL SUB AND PUSH2 0x4C2D JUMP JUMPDEST POP DUP1 RETURN JUMPDEST POP POP CALLVALUE PUSH2 0x6B5 JUMPI DUP2 PUSH1 0x3 NOT CALLDATASIZE ADD SLT PUSH2 0x6B5 JUMPI PUSH2 0x162 SLOAD SWAP1 MLOAD PUSH1 0x1 PUSH1 0x1 PUSH1 0xA0 SHL SUB SWAP1 SWAP2 AND DUP2 MSTORE PUSH1 0x20 SWAP1 RETURN JUMPDEST SWAP1 POP PUSH1 0x60 CALLDATASIZE PUSH1 0x3 NOT ADD SLT PUSH2 0x7AA JUMPI PUSH1 0x4 CALLDATALOAD PUSH1 0x1 PUSH1 0x1 PUSH1 0xA0 SHL SUB DUP2 AND SWAP2 SWAP1 DUP3 SWAP1 SUB PUSH2 0x7AA JUMPI PUSH2 0x732 SWAP4 PUSH2 0x715 SWAP3 PUSH2 0x9DC DUP6 MLOAD SWAP4 DUP5 PUSH2 0x32DA JUMP JUMPDEST DUP3 MSTORE PUSH1 0x24 CALLDATALOAD PUSH1 0x20 DUP4 ADD MSTORE PUSH1 0x44 CALLDATALOAD DUP5 DUP4 ADD MSTORE CALLVALUE PUSH1 0x60 DUP4 ADD MSTORE CALLER PUSH1 0x80 DUP4 ADD MSTORE CALLER PUSH1 0xA0 DUP4 ADD MSTORE PUSH1 0xC0 DUP3 ADD MSTORE CALLER SWAP1 PUSH2 0x4FF7 JUMP JUMPDEST POP POP CALLVALUE PUSH2 0x6B5 JUMPI DUP2 PUSH1 0x3 NOT CALLDATASIZE ADD SLT PUSH2 0x6B5 JUMPI PUSH2 0x182 SLOAD SWAP1 MLOAD PUSH1 0x1 PUSH1 0x1 PUSH1 0xA0 SHL SUB SWAP1 SWAP2 AND DUP2 MSTORE PUSH1 0x20 SWAP1 RETURN JUMPDEST POP POP CALLVALUE PUSH2 0x6B5 JUMPI DUP2 PUSH1 0x3 NOT CALLDATASIZE ADD SLT PUSH2 0x6B5 JUMPI PUSH1 0x20 SWAP1 PUSH2 0x8AE PUSH2 0x53D0 JUMP JUMPDEST POP POP CALLVALUE PUSH2 0x6B5 JUMPI DUP2 PUSH1 0x3 NOT CALLDATASIZE ADD SLT PUSH2 0x6B5 JUMPI PUSH1 0x20 SWAP1 PUSH1 0xFF PUSH2 0x17D SLOAD AND SWAP1 MLOAD SWAP1 ISZERO ISZERO DUP2 MSTORE RETURN JUMPDEST POP POP CALLVALUE PUSH2 0x6B5 JUMPI PUSH1 0x20 CALLDATASIZE PUSH1 0x3 NOT ADD SLT PUSH2 0x6B5 JUMPI PUSH1 0x4 CALLDATALOAD PUSH2 0x1BE DUP1 SLOAD DUP3 LT ISZERO PUSH2 0xAB7 JUMPI SWAP1 PUSH2 0xAA3 SWAP2 PUSH2 0x32C1 JUMP JUMPDEST POP PUSH1 0x1 DUP2 SLOAD SWAP2 ADD SLOAD DUP3 MLOAD SWAP2 DUP3 MSTORE PUSH1 0x20 DUP3 ADD MSTORE RETURN JUMPDEST DUP4 DUP1 REVERT JUMPDEST DUP4 CALLVALUE PUSH2 0x7AE JUMPI PUSH1 0x20 CALLDATASIZE PUSH1 0x3 NOT ADD SLT PUSH2 0x7AE JUMPI PUSH1 0x4 CALLDATALOAD PUSH1 0x1 PUSH1 0x1 PUSH1 0xA0 SHL SUB DUP2 AND SWAP1 DUP2 SWAP1 SUB PUSH2 0x7AA JUMPI PUSH2 0xAEA PUSH2 0x5CC8 JUMP JUMPDEST PUSH2 0x226 DUP1 SLOAD PUSH1 0x1 PUSH1 0x1 PUSH1 0xA0 SHL SUB NOT AND SWAP1 SWAP2 OR SWAP1 SSTORE DUP1 RETURN JUMPDEST DUP4 CALLVALUE PUSH2 0x7AE JUMPI PUSH1 0x20 CALLDATASIZE PUSH1 0x3 NOT ADD SLT PUSH2 0x7AE JUMPI PUSH1 0x4 CALLDATALOAD PUSH1 0x1 PUSH1 0x1 PUSH1 0xA0 SHL SUB DUP2 AND SWAP1 DUP2 SWAP1 SUB PUSH2 0x6B5 JUMPI PUSH2 0xB30 PUSH2 0x5CC8 JUMP JUMPDEST PUSH1 0x1 PUSH1 0x1 PUSH1 0x60 SHL SUB PUSH1 0xA0 SHL PUSH1 0x97 SLOAD AND OR PUSH1 0x97 SSTORE DUP1 RETURN JUMPDEST DUP3 DUP5 CALLVALUE PUSH2 0x7AE JUMPI PUSH1 0x60 CALLDATASIZE PUSH1 0x3 NOT ADD SLT PUSH2 0x7AA JUMPI PUSH1 0x44 CALLDATALOAD PUSH1 0x1 PUSH1 0x1 PUSH1 0xA0 SHL SUB DUP2 AND SWAP1 DUP2 SWAP1 SUB PUSH2 0x7AA JUMPI PUSH2 0x79D SWAP2 DUP4 MLOAD SWAP2 PUSH2 0xB80 PUSH1 0xA0 DUP5 PUSH2 0x32DA JUMP JUMPDEST PUSH1 0x4 CALLDATALOAD DUP4 MSTORE PUSH1 0x24 CALLDATALOAD PUSH1 0x20 DUP5 ADD MSTORE CALLER DUP6 DUP5 ADD MSTORE PUSH1 0x60 DUP4 ADD MSTORE PUSH1 0x80 DUP3 ADD MSTORE CALLER SWAP1 PUSH2 0x53E7 JUMP JUMPDEST POP POP CALLVALUE PUSH2 0x6B5 JUMPI DUP2 PUSH1 0x3 NOT CALLDATASIZE ADD SLT PUSH2 0x6B5 JUMPI PUSH1 0x20 SWAP1 PUSH2 0x8AE PUSH2 0xBCB PUSH2 0xBC6 PUSH2 0x3C95 JUMP JUMPDEST PUSH2 0x3890 JUMP JUMPDEST SWAP1 POP PUSH2 0x163 SLOAD PUSH2 0x3A58 JUMP JUMPDEST POP POP CALLVALUE PUSH2 0x6B5 JUMPI PUSH1 0x20 CALLDATASIZE PUSH1 0x3 NOT ADD SLT PUSH2 0x6B5 JUMPI PUSH1 0x4 CALLDATALOAD PUSH1 0x1 PUSH1 0x1 PUSH1 0xA0 SHL SUB DUP2 AND SWAP1 DUP2 SWAP1 SUB PUSH2 0x7AA JUMPI DUP3 DUP3 SWAP2 PUSH1 0x20 SWAP5 MSTORE PUSH2 0x177 DUP5 MSTORE KECCAK256 SLOAD SWAP1 MLOAD SWAP1 DUP2 MSTORE RETURN JUMPDEST DUP3 PUSH2 0x79D PUSH2 0xC22 CALLDATASIZE PUSH1 0x4 PUSH2 0x3359 JUMP JUMPDEST SWAP1 SWAP3 DUP6 MLOAD SWAP4 PUSH2 0xC32 PUSH1 0xC0 DUP7 PUSH2 0x32DA JUMP JUMPDEST PUSH1 0x1 PUSH1 0x1 PUSH1 0xA0 SHL SUB SWAP2 DUP3 AND DUP6 MSTORE PUSH1 0x20 DUP6 ADD SWAP4 SWAP1 SWAP4 MSTORE CALLVALUE DUP7 DUP6 ADD MSTORE CALLER PUSH1 0x60 DUP6 ADD MSTORE SWAP2 DUP3 AND PUSH1 0x80 DUP5 ADD MSTORE AND PUSH1 0xA0 DUP3 ADD MSTORE PUSH2 0x44F7 JUMP JUMPDEST SWAP1 POP CALLVALUE PUSH2 0x736 JUMPI CALLDATASIZE PUSH1 0x3 NOT ADD SLT PUSH2 0x6B5 JUMPI PUSH2 0x976 SWAP1 PUSH2 0xC82 PUSH2 0x5CC8 JUMP JUMPDEST MLOAD PUSH4 0x6DBCB039 PUSH1 0xE1 SHL PUSH1 0x20 DUP3 ADD MSTORE PUSH2 0x964 DUP2 PUSH2 0x956 PUSH1 0x4 PUSH1 0x24 DUP4 ADD PUSH2 0x536F JUMP JUMPDEST DUP4 CALLVALUE PUSH2 0x7AE JUMPI PUSH1 0x20 CALLDATASIZE PUSH1 0x3 NOT ADD SLT PUSH2 0x7AE JUMPI PUSH1 0x4 CALLDATALOAD PUSH1 0x1 PUSH1 0x1 PUSH1 0xA0 SHL SUB DUP2 AND SWAP1 DUP2 SWAP1 SUB PUSH2 0x7AA JUMPI PUSH2 0xCD1 PUSH2 0x5CC8 JUMP JUMPDEST PUSH2 0x182 DUP1 SLOAD PUSH1 0x1 PUSH1 0x1 PUSH1 0xA0 SHL SUB NOT AND SWAP1 SWAP2 OR SWAP1 SSTORE DUP1 RETURN JUMPDEST POP POP CALLVALUE PUSH2 0x6B5 JUMPI DUP2 PUSH1 0x3 NOT CALLDATASIZE ADD SLT PUSH2 0x6B5 JUMPI PUSH1 0x20 SWAP1 PUSH2 0x185 SLOAD SWAP1 MLOAD SWAP1 DUP2 MSTORE RETURN JUMPDEST DUP3 DUP5 DUP2 PUSH1 0x3 NOT CALLDATASIZE ADD SLT PUSH2 0x7AE JUMPI POP PUSH1 0x24 CALLDATALOAD PUSH1 0x1 PUSH1 0x1 PUSH1 0xA0 SHL SUB DUP2 AND SWAP1 DUP2 SWAP1 SUB PUSH2 0x7AA JUMPI DUP2 MLOAD PUSH2 0x79D SWAP2 PUSH2 0xD3C PUSH1 0xA0 DUP4 PUSH2 0x32DA JUMP JUMPDEST PUSH1 0x4 CALLDATALOAD DUP3 MSTORE CALLVALUE PUSH1 0x20 DUP4 ADD MSTORE CALLER DUP5 DUP4 ADD MSTORE CALLER PUSH1 0x60 DUP4 ADD MSTORE PUSH1 0x80 DUP3 ADD MSTORE PUSH2 0x3EF1 JUMP JUMPDEST POP POP CALLVALUE PUSH2 0x6B5 JUMPI DUP2 PUSH1 0x3 NOT CALLDATASIZE ADD SLT PUSH2 0x6B5 JUMPI PUSH1 0x20 SWAP1 PUSH2 0x8AE PUSH2 0xD7E PUSH1 0x1 PUSH2 0x3CCE JUMP JUMPDEST PUSH2 0xD92 PUSH2 0xD8B DUP3 DUP5 PUSH2 0x39CB JUMP JUMPDEST SWAP2 DUP4 PUSH2 0x391B JUMP JUMPDEST SWAP2 PUSH2 0x3D14 JUMP JUMPDEST POP POP PUSH1 0x60 CALLDATASIZE PUSH1 0x3 NOT ADD SLT PUSH2 0x7AA JUMPI PUSH1 0x1 PUSH1 0x1 PUSH1 0xA0 SHL SUB PUSH1 0x4 CALLDATALOAD DUP2 DUP2 AND SWAP1 DUP2 SWAP1 SUB PUSH2 0x7AA JUMPI PUSH1 0x44 CALLDATALOAD SWAP2 DUP3 AND DUP1 SWAP3 SUB PUSH2 0x7AA JUMPI PUSH2 0x732 SWAP4 PUSH2 0x715 SWAP3 DUP5 MLOAD SWAP3 PUSH2 0xDDF PUSH1 0xC0 DUP6 PUSH2 0x32DA JUMP JUMPDEST DUP4 MSTORE PUSH1 0x24 CALLDATALOAD PUSH1 0x20 DUP5 ADD MSTORE CALLVALUE DUP6 DUP5 ADD MSTORE CALLER PUSH1 0x60 DUP5 ADD MSTORE PUSH1 0x80 DUP4 ADD MSTORE PUSH1 0xA0 DUP3 ADD MSTORE PUSH2 0x4AB0 JUMP JUMPDEST DUP4 CALLVALUE PUSH2 0x7AE JUMPI DUP1 PUSH1 0x3 NOT CALLDATASIZE ADD SLT PUSH2 0x7AE JUMPI PUSH2 0xE1C PUSH2 0x5C35 JUMP JUMPDEST DUP1 RETURN JUMPDEST DUP4 CALLVALUE PUSH2 0x7AE JUMPI PUSH1 0x20 CALLDATASIZE PUSH1 0x3 NOT ADD SLT PUSH2 0x7AE JUMPI PUSH1 0x4 CALLDATALOAD PUSH1 0x1 PUSH1 0x1 PUSH1 0xA0 SHL SUB DUP2 AND SWAP1 DUP2 SWAP1 SUB PUSH2 0x7AA JUMPI PUSH2 0xE4E PUSH2 0x5CC8 JUMP JUMPDEST PUSH2 0x161 DUP1 SLOAD PUSH1 0x1 PUSH1 0x1 PUSH1 0xA0 SHL SUB NOT AND SWAP1 SWAP2 OR SWAP1 SSTORE DUP1 RETURN JUMPDEST DUP3 PUSH2 0x715 PUSH2 0x732 SWAP3 PUSH2 0xE78 CALLDATASIZE PUSH1 0x4 PUSH2 0x332C JUMP JUMPDEST SWAP2 PUSH2 0xE85 DUP8 MLOAD SWAP6 DUP7 PUSH2 0x32DA JUMP JUMPDEST PUSH1 0x1 PUSH1 0x1 PUSH1 0xA0 SHL SUB SWAP4 DUP5 AND DUP6 MSTORE PUSH1 0x20 DUP6 ADD MSTORE DUP6 DUP5 ADD MSTORE CALLVALUE PUSH1 0x60 DUP5 ADD MSTORE CALLER PUSH1 0x80 DUP5 ADD DUP2 SWAP1 MSTORE PUSH1 0xA0 DUP5 ADD DUP2 SWAP1 MSTORE SWAP2 AND PUSH1 0xC0 DUP4 ADD MSTORE SWAP1 PUSH2 0x4FF7 JUMP JUMPDEST DUP4 CALLVALUE PUSH2 0x7AE JUMPI PUSH1 0x20 CALLDATASIZE PUSH1 0x3 NOT ADD SLT PUSH2 0x7AE JUMPI PUSH2 0xED7 PUSH2 0x5CC8 JUMP JUMPDEST PUSH1 0x4 CALLDATALOAD PUSH2 0x17E SSTORE DUP1 RETURN JUMPDEST DUP3 DUP5 PUSH1 0x80 CALLDATASIZE PUSH1 0x3 NOT ADD SLT PUSH2 0x7AE JUMPI PUSH1 0x1 PUSH1 0x1 PUSH1 0xA0 SHL SUB SWAP1 PUSH1 0x4 CALLDATALOAD DUP3 DUP2 AND SWAP2 SWAP1 DUP3 SWAP1 SUB PUSH2 0x7AA JUMPI PUSH1 0x24 CALLDATALOAD SWAP3 DUP4 AND DUP1 SWAP4 SUB PUSH2 0x7AA JUMPI PUSH2 0x732 SWAP5 PUSH2 0x715 SWAP4 DUP6 MLOAD SWAP4 PUSH2 0xF2B PUSH2 0x100 DUP7 PUSH2 0x32DA JUMP JUMPDEST DUP5 MSTORE PUSH1 0x20 DUP5 ADD MSTORE PUSH1 0x44 CALLDATALOAD DUP6 DUP5 ADD MSTORE PUSH1 0x64 CALLDATALOAD PUSH1 0x60 DUP5 ADD MSTORE CALLVALUE PUSH1 0x80 DUP5 ADD MSTORE CALLER PUSH1 0xA0 DUP5 ADD MSTORE CALLER PUSH1 0xC0 DUP5 ADD MSTORE DUP3 ADD MSTORE CALLER SWAP1 PUSH2 0x4C4E JUMP JUMPDEST POP POP CALLVALUE PUSH2 0x6B5 JUMPI DUP2 PUSH1 0x3 NOT CALLDATASIZE ADD SLT PUSH2 0x6B5 JUMPI PUSH1 0x20 SWAP1 PUSH2 0x8AE PUSH2 0xF92 PUSH2 0xF99 PUSH2 0xF86 PUSH2 0xBC6 PUSH2 0x3C95 JUMP JUMPDEST PUSH2 0x163 SWAP4 SWAP2 SWAP4 SLOAD PUSH2 0x3A58 JUMP JUMPDEST SWAP2 DUP3 PUSH2 0x3A58 JUMP JUMPDEST SWAP1 PUSH2 0x5D76 JUMP JUMPDEST DUP4 CALLVALUE PUSH2 0x7AE JUMPI PUSH1 0x20 CALLDATASIZE PUSH1 0x3 NOT ADD SLT PUSH2 0x7AE JUMPI PUSH2 0xFB9 PUSH2 0x5CC8 JUMP JUMPDEST PUSH1 0x4 CALLDATALOAD PUSH2 0x16F SSTORE DUP1 RETURN JUMPDEST DUP3 PUSH2 0x715 PUSH2 0x732 SWAP3 PUSH2 0xFD6 CALLDATASIZE PUSH1 0x4 PUSH2 0x332C JUMP JUMPDEST SWAP2 PUSH2 0xFE3 DUP8 MLOAD SWAP6 DUP7 PUSH2 0x32DA JUMP JUMPDEST PUSH1 0x1 PUSH1 0x1 PUSH1 0xA0 SHL SUB SWAP4 DUP5 AND DUP6 MSTORE PUSH1 0x20 DUP6 ADD MSTORE DUP6 DUP5 ADD MSTORE CALLVALUE PUSH1 0x60 DUP5 ADD MSTORE CALLER PUSH1 0x80 DUP5 ADD DUP2 SWAP1 MSTORE PUSH1 0xA0 DUP5 ADD DUP2 SWAP1 MSTORE SWAP2 AND PUSH1 0xC0 DUP4 ADD MSTORE SWAP1 PUSH2 0x4E44 JUMP JUMPDEST DUP4 CALLVALUE PUSH2 0x7AE JUMPI PUSH1 0x20 CALLDATASIZE PUSH1 0x3 NOT ADD SLT PUSH2 0x7AE JUMPI PUSH2 0x1035 PUSH2 0x5CC8 JUMP JUMPDEST PUSH1 0x4 CALLDATALOAD PUSH2 0x16B SSTORE DUP1 RETURN JUMPDEST POP POP CALLVALUE PUSH2 0x6B5 JUMPI DUP2 PUSH1 0x3 NOT CALLDATASIZE ADD SLT PUSH2 0x6B5 JUMPI PUSH1 0x20 SWAP1 PUSH1 0xFF PUSH1 0xCA SLOAD AND SWAP1 MLOAD SWAP1 ISZERO ISZERO DUP2 MSTORE RETURN JUMPDEST POP POP CALLVALUE PUSH2 0x6B5 JUMPI DUP2 PUSH1 0x3 NOT CALLDATASIZE ADD SLT PUSH2 0x6B5 JUMPI PUSH1 0x20 SWAP1 PUSH2 0x18B SLOAD SWAP1 MLOAD SWAP1 DUP2 MSTORE RETURN JUMPDEST POP POP CALLVALUE PUSH2 0x6B5 JUMPI DUP2 PUSH1 0x3 NOT CALLDATASIZE ADD SLT PUSH2 0x6B5 JUMPI PUSH2 0x183 SLOAD SWAP1 MLOAD PUSH1 0x1 PUSH1 0x1 PUSH1 0xA0 SHL SUB SWAP1 SWAP2 AND DUP2 MSTORE PUSH1 0x20 SWAP1 RETURN JUMPDEST DUP3 DUP5 DUP2 PUSH1 0x3 NOT CALLDATASIZE ADD SLT PUSH2 0x7AE JUMPI PUSH1 0x24 CALLDATALOAD PUSH1 0x1 PUSH1 0x1 PUSH1 0xA0 SHL SUB DUP2 AND SWAP1 DUP2 SWAP1 SUB PUSH2 0x7AA JUMPI PUSH2 0x79D SWAP2 DUP4 MLOAD SWAP2 PUSH2 0x77E PUSH1 0xA0 DUP5 PUSH2 0x32DA JUMP JUMPDEST DUP3 DUP5 CALLVALUE PUSH2 0x7AE JUMPI POP PUSH2 0x715 PUSH2 0x732 SWAP3 PUSH2 0x10FB CALLDATASIZE PUSH1 0x4 PUSH2 0x3386 JUMP JUMPDEST SWAP3 PUSH2 0x110B DUP9 SWAP4 SWAP3 SWAP4 MLOAD SWAP7 DUP8 PUSH2 0x32DA JUMP JUMPDEST PUSH1 0x1 PUSH1 0x1 PUSH1 0xA0 SHL SUB SWAP5 DUP6 AND DUP7 MSTORE PUSH1 0x20 DUP7 ADD MSTORE DUP7 DUP6 ADD MSTORE PUSH1 0x60 DUP5 ADD MSTORE CALLER PUSH1 0x80 DUP5 ADD DUP2 SWAP1 MSTORE PUSH1 0xA0 DUP5 ADD DUP2 SWAP1 MSTORE SWAP2 AND PUSH1 0xC0 DUP4 ADD MSTORE SWAP1 PUSH2 0x5932 JUMP JUMPDEST POP POP CALLVALUE PUSH2 0x6B5 JUMPI DUP2 PUSH1 0x3 NOT CALLDATASIZE ADD SLT PUSH2 0x6B5 JUMPI PUSH1 0x20 SWAP1 PUSH2 0x16F SLOAD SWAP1 MLOAD SWAP1 DUP2 MSTORE RETURN JUMPDEST POP POP CALLVALUE PUSH2 0x6B5 JUMPI DUP2 PUSH1 0x3 NOT CALLDATASIZE ADD SLT PUSH2 0x6B5 JUMPI PUSH1 0x20 SWAP1 PUSH2 0x1BF SLOAD NUMBER LT ISZERO SWAP1 MLOAD SWAP1 DUP2 MSTORE RETURN JUMPDEST POP POP CALLVALUE PUSH2 0x6B5 JUMPI PUSH2 0x3C0 CALLDATASIZE PUSH1 0x3 NOT ADD SLT PUSH2 0x6B5 JUMPI DUP2 SLOAD PUSH1 0xFF DUP2 PUSH1 0x8 SHR AND ISZERO SWAP1 DUP2 DUP1 SWAP3 PUSH2 0x166B JUMPI JUMPDEST DUP1 ISZERO PUSH2 0x1654 JUMPI JUMPDEST ISZERO PUSH2 0x15F9 JUMPI PUSH1 0xFF NOT DUP2 AND PUSH1 0x1 OR DUP5 SSTORE DUP2 PUSH2 0x15E8 JUMPI JUMPDEST POP PUSH1 0xFF DUP4 SLOAD PUSH1 0x8 SHR AND PUSH2 0x11DA DUP2 PUSH2 0x3E6B JUMP JUMPDEST PUSH2 0x364 CALLDATALOAD PUSH1 0x1 PUSH1 0x1 PUSH1 0xA0 SHL SUB DUP2 AND SWAP1 DUP2 SWAP1 SUB PUSH2 0x7AA JUMPI PUSH2 0x226 DUP1 SLOAD PUSH1 0x1 PUSH1 0x1 PUSH1 0xA0 SHL SUB NOT AND SWAP1 SWAP2 OR SWAP1 SSTORE PUSH1 0x1 PUSH1 0x1 PUSH1 0xA0 SHL SUB PUSH2 0x324 CALLDATALOAD SWAP1 DUP2 AND SWAP1 DUP2 SWAP1 SUB PUSH2 0x7AA JUMPI PUSH2 0x344 CALLDATALOAD PUSH1 0x1 PUSH1 0x1 PUSH1 0xA0 SHL SUB DUP2 AND DUP2 SUB PUSH2 0x7AA JUMPI PUSH1 0x1 SWAP2 PUSH2 0x123B DUP5 PUSH2 0x3E6B JUMP JUMPDEST PUSH2 0x1244 DUP5 PUSH2 0x3E6B JUMP JUMPDEST PUSH2 0x124D DUP5 PUSH2 0x3E6B JUMP JUMPDEST PUSH2 0x1256 DUP5 PUSH2 0x3E6B JUMP JUMPDEST PUSH1 0x1 PUSH1 0x1 PUSH1 0x60 SHL SUB PUSH1 0xA0 SHL PUSH1 0x97 SLOAD AND OR PUSH1 0x97 SSTORE PUSH2 0x1272 DUP4 PUSH2 0x3E6B JUMP JUMPDEST PUSH1 0xCA SLOAD SWAP1 PUSH3 0x10000 DUP4 PUSH1 0xB0 SHL SUB SWAP1 PUSH1 0x10 SHL AND SWAP1 PUSH2 0xFF01 DUP4 PUSH1 0xB0 SHL SUB NOT AND OR OR PUSH1 0xCA SSTORE PUSH2 0x129D DUP2 PUSH2 0x3E6B JUMP JUMPDEST PUSH8 0xDE0B6B3A7640000 PUSH1 0xA4 CALLDATALOAD LT PUSH2 0x15D7 JUMPI PUSH2 0x12B9 PUSH1 0xE4 CALLDATALOAD PUSH2 0x5D9A JUMP JUMPDEST PUSH2 0x12C5 PUSH2 0x104 CALLDATALOAD PUSH2 0x5D9A JUMP JUMPDEST PUSH2 0x12D1 PUSH2 0x124 CALLDATALOAD PUSH2 0x5D9A JUMP JUMPDEST PUSH2 0x12DD PUSH2 0x144 CALLDATALOAD PUSH2 0x5D9A JUMP JUMPDEST PUSH2 0x12E9 PUSH2 0x164 CALLDATALOAD PUSH2 0x5D9A JUMP JUMPDEST PUSH2 0x12F5 PUSH2 0x184 CALLDATALOAD PUSH2 0x5D9A JUMP JUMPDEST PUSH2 0x1301 PUSH2 0x1A4 CALLDATALOAD PUSH2 0x5D9A JUMP JUMPDEST PUSH2 0x130D PUSH2 0x1C4 CALLDATALOAD PUSH2 0x5D9A JUMP JUMPDEST PUSH2 0x1319 PUSH2 0x1E4 CALLDATALOAD PUSH2 0x5D9A JUMP JUMPDEST PUSH2 0x1331 PUSH2 0x132C PUSH2 0x224 CALLDATALOAD PUSH2 0x204 CALLDATALOAD PUSH2 0x385B JUMP JUMPDEST PUSH2 0x5D9A JUMP JUMPDEST PUSH1 0x4 CALLDATALOAD PUSH1 0x1 PUSH1 0x1 PUSH1 0xA0 SHL SUB DUP2 AND SWAP1 DUP2 SWAP1 SUB PUSH2 0x7AA JUMPI PUSH2 0x161 DUP1 SLOAD PUSH1 0x1 PUSH1 0x1 PUSH1 0xA0 SHL SUB NOT AND SWAP1 SWAP2 OR SWAP1 SSTORE PUSH1 0x24 CALLDATALOAD PUSH1 0x1 PUSH1 0x1 PUSH1 0xA0 SHL SUB DUP2 AND DUP2 SUB PUSH2 0x7AA JUMPI PUSH2 0x162 DUP1 SLOAD PUSH1 0x1 PUSH1 0x1 PUSH1 0xA0 SHL SUB NOT AND PUSH1 0x1 PUSH1 0x1 PUSH1 0xA0 SHL SUB SWAP3 DUP4 AND OR SWAP1 SSTORE PUSH1 0x44 CALLDATALOAD SWAP1 DUP2 AND DUP2 SUB PUSH2 0x7AA JUMPI PUSH2 0x165 DUP1 SLOAD PUSH1 0x1 PUSH1 0x1 PUSH1 0xA0 SHL SUB NOT AND PUSH1 0x1 PUSH1 0x1 PUSH1 0xA0 SHL SUB SWAP3 DUP4 AND OR SWAP1 SSTORE PUSH1 0x64 CALLDATALOAD SWAP1 DUP2 AND DUP2 SUB PUSH2 0x7AA JUMPI PUSH2 0x178 DUP1 SLOAD PUSH1 0x1 PUSH1 0x1 PUSH1 0xA0 SHL SUB NOT AND PUSH1 0x1 PUSH1 0x1 PUSH1 0xA0 SHL SUB SWAP3 DUP4 AND OR SWAP1 SSTORE PUSH1 0x84 CALLDATALOAD SWAP1 DUP2 AND SWAP1 DUP2 SWAP1 SUB PUSH2 0x7AA JUMPI PUSH2 0x179 DUP1 SLOAD PUSH1 0x1 PUSH1 0x1 PUSH1 0xA0 SHL SUB NOT AND SWAP1 SWAP2 OR SWAP1 SSTORE PUSH1 0xA4 CALLDATALOAD PUSH2 0x17B SSTORE PUSH1 0xC4 CALLDATALOAD PUSH2 0x17C SSTORE PUSH1 0xE4 CALLDATALOAD PUSH2 0x16D SSTORE PUSH2 0x104 CALLDATALOAD PUSH2 0x16E SSTORE PUSH2 0x124 CALLDATALOAD PUSH2 0x16F SSTORE PUSH2 0x144 CALLDATALOAD PUSH2 0x170 SSTORE PUSH2 0x164 CALLDATALOAD PUSH2 0x171 SSTORE PUSH2 0x184 CALLDATALOAD PUSH2 0x172 SSTORE PUSH2 0x1A4 CALLDATALOAD PUSH2 0x173 SSTORE PUSH2 0x1C4 CALLDATALOAD PUSH2 0x174 SSTORE PUSH2 0x1E4 CALLDATALOAD PUSH2 0x175 SSTORE PUSH2 0x204 CALLDATALOAD PUSH2 0x16B SSTORE PUSH2 0x224 CALLDATALOAD PUSH2 0x16C SSTORE PUSH2 0x244 CALLDATALOAD PUSH2 0x17E DUP2 SWAP1 SSTORE PUSH1 0x1 PUSH1 0x1 PUSH1 0xA0 SHL SUB PUSH2 0x264 CALLDATALOAD SWAP1 DUP2 AND SWAP1 DUP2 SWAP1 SUB PUSH2 0x7AA JUMPI PUSH2 0x188 DUP1 SLOAD PUSH1 0x1 PUSH1 0x1 PUSH1 0xA0 SHL SUB NOT AND SWAP1 SWAP2 OR SWAP1 SSTORE PUSH2 0x284 CALLDATALOAD PUSH2 0x189 SSTORE PUSH2 0x2A4 CALLDATALOAD PUSH2 0x18A DUP2 SWAP1 SSTORE SWAP1 PUSH1 0x1 PUSH1 0x1 PUSH1 0xA0 SHL SUB PUSH2 0x2C4 CALLDATALOAD SWAP1 DUP2 AND SWAP1 DUP2 SWAP1 SUB PUSH2 0x7AA JUMPI PUSH2 0x182 DUP1 SLOAD PUSH1 0x1 PUSH1 0x1 PUSH1 0xA0 SHL SUB NOT AND SWAP1 SWAP2 OR SWAP1 SSTORE PUSH1 0x1 PUSH1 0x1 PUSH1 0xA0 SHL SUB PUSH2 0x2E4 CALLDATALOAD SWAP1 DUP2 AND SWAP1 DUP2 SWAP1 SUB PUSH2 0x7AA JUMPI PUSH2 0x183 SWAP1 PUSH1 0x1 PUSH1 0x1 PUSH1 0x60 SHL SUB PUSH1 0xA0 SHL DUP3 SLOAD AND OR SWAP1 SSTORE PUSH2 0x304 CALLDATALOAD PUSH2 0x184 SSTORE NUMBER PUSH2 0x187 SSTORE NUMBER ADD PUSH2 0x17F SSTORE NUMBER ADD PUSH2 0x18B SSTORE PUSH2 0x17D PUSH2 0xFFFF NOT DUP2 SLOAD AND SWAP1 SSTORE PUSH2 0x384 CALLDATALOAD PUSH2 0x1534 DUP3 PUSH2 0x3E6B JUMP JUMPDEST DUP1 ISZERO PUSH2 0x15C6 JUMPI PUSH2 0x1C0 DUP2 SWAP1 SSTORE NUMBER ADD PUSH2 0x1BF SSTORE PUSH2 0x3A4 CALLDATALOAD PUSH1 0x1 PUSH1 0x1 PUSH1 0xA0 SHL SUB DUP2 AND DUP2 SUB PUSH2 0x7AA JUMPI PUSH2 0x1566 PUSH2 0x1588 SWAP3 PUSH2 0x3E6B JUMP JUMPDEST PUSH2 0x1F3 DUP1 SLOAD PUSH1 0x1 PUSH1 0x1 PUSH1 0xA0 SHL SUB NOT AND PUSH1 0x1 PUSH1 0x1 PUSH1 0xA0 SHL SUB SWAP1 SWAP3 AND SWAP2 SWAP1 SWAP2 OR SWAP1 SSTORE JUMP JUMPDEST PUSH2 0x1590 JUMPI POP DUP1 RETURN JUMPDEST PUSH1 0x20 PUSH32 0x7F26B83FF96E1F2B6A682F133852F6798A09C465DA95921460CEFB3847402498 SWAP2 PUSH2 0xFF00 NOT DUP5 SLOAD AND DUP5 SSTORE MLOAD PUSH1 0x1 DUP2 MSTORE LOG1 DUP1 RETURN JUMPDEST DUP4 MLOAD PUSH4 0x2A9FFAB7 PUSH1 0xE2 SHL DUP2 MSTORE PUSH1 0x4 SWAP1 REVERT JUMPDEST DUP3 MLOAD PUSH4 0x2A9FFAB7 PUSH1 0xE2 SHL DUP2 MSTORE PUSH1 0x4 SWAP1 REVERT JUMPDEST PUSH2 0xFFFF NOT AND PUSH2 0x101 OR DUP4 SSTORE PUSH0 PUSH2 0x11C8 JUMP JUMPDEST DUP3 MLOAD PUSH3 0x461BCD PUSH1 0xE5 SHL DUP2 MSTORE PUSH1 0x20 PUSH1 0x4 DUP3 ADD MSTORE PUSH1 0x2E PUSH1 0x24 DUP3 ADD MSTORE PUSH32 0x496E697469616C697A61626C653A20636F6E747261637420697320616C726561 PUSH1 0x44 DUP3 ADD MSTORE PUSH14 0x191E481A5B9A5D1A585B1A5E9959 PUSH1 0x92 SHL PUSH1 0x64 DUP3 ADD MSTORE PUSH1 0x84 SWAP1 REVERT JUMPDEST POP ADDRESS EXTCODESIZE ISZERO DUP1 ISZERO PUSH2 0x11B3 JUMPI POP PUSH1 0x1 PUSH1 0xFF DUP3 AND EQ PUSH2 0x11B3 JUMP JUMPDEST POP PUSH1 0x1 PUSH1 0xFF DUP3 AND LT PUSH2 0x11AC JUMP JUMPDEST POP POP CALLVALUE PUSH2 0x6B5 JUMPI DUP2 PUSH1 0x3 NOT CALLDATASIZE ADD SLT PUSH2 0x6B5 JUMPI PUSH1 0xCA SLOAD SWAP1 MLOAD PUSH1 0x10 SWAP2 SWAP1 SWAP2 SHR PUSH1 0x1 PUSH1 0x1 PUSH1 0xA0 SHL SUB AND DUP2 MSTORE PUSH1 0x20 SWAP1 RETURN JUMPDEST DUP3 DUP5 CALLVALUE PUSH2 0x7AE JUMPI PUSH1 0x20 CALLDATASIZE PUSH1 0x3 NOT ADD SLT PUSH2 0x7AE JUMPI PUSH1 0x4 CALLDATALOAD PUSH1 0x1 PUSH1 0x1 PUSH1 0xA0 SHL SUB DUP2 AND SWAP2 SWAP1 DUP3 SWAP1 SUB PUSH2 0x7AA JUMPI DUP3 SWAP2 DUP2 MSTORE PUSH2 0x168 PUSH1 0x20 MSTORE KECCAK256 PUSH1 0xFF PUSH1 0x1 DUP3 SLOAD SWAP3 ADD SLOAD AND DUP3 MLOAD SWAP2 DUP3 MSTORE ISZERO ISZERO PUSH1 0x20 DUP3 ADD MSTORE RETURN JUMPDEST DUP3 DUP5 CALLVALUE PUSH2 0x7AE JUMPI DUP2 PUSH1 0x3 NOT CALLDATASIZE ADD SLT PUSH2 0x7AE JUMPI POP PUSH1 0x1 PUSH1 0x1 PUSH1 0xA0 SHL SUB SWAP1 PUSH1 0x4 CALLDATALOAD DUP3 DUP2 AND DUP2 SUB PUSH2 0x7AA JUMPI PUSH1 0x24 CALLDATALOAD SWAP3 DUP4 AND DUP4 SUB PUSH2 0x7AA JUMPI PUSH1 0x20 SWAP3 PUSH2 0x8AE SWAP2 CALLER SWAP1 PUSH2 0x52E4 JUMP JUMPDEST POP POP CALLVALUE PUSH2 0x6B5 JUMPI DUP2 PUSH1 0x3 NOT CALLDATASIZE ADD SLT PUSH2 0x6B5 JUMPI PUSH1 0x20 SWAP1 PUSH2 0x175C PUSH2 0x1756 PUSH2 0xBC6 PUSH2 0x3C95 JUMP JUMPDEST SWAP1 PUSH2 0x3A3B JUMP JUMPDEST PUSH2 0x17C SLOAD LT ISZERO SWAP1 MLOAD SWAP1 DUP2 MSTORE RETURN JUMPDEST DUP3 DUP5 CALLVALUE PUSH2 0x7AE JUMPI DUP2 PUSH1 0x3 NOT CALLDATASIZE ADD SLT PUSH2 0x7AE JUMPI DUP2 MLOAD PUSH2 0x79D SWAP2 PUSH2 0x178C PUSH1 0xA0 DUP4 PUSH2 0x32DA JUMP JUMPDEST PUSH1 0x4 CALLDATALOAD DUP3 MSTORE PUSH1 0x24 CALLDATALOAD PUSH1 0x20 DUP4 ADD MSTORE CALLER DUP5 DUP4 ADD MSTORE CALLER PUSH1 0x60 DUP4 ADD MSTORE PUSH1 0x80 DUP3 ADD MSTORE CALLER SWAP1 PUSH2 0x53E7 JUMP JUMPDEST POP POP CALLVALUE PUSH2 0x6B5 JUMPI DUP2 PUSH1 0x3 NOT CALLDATASIZE ADD SLT PUSH2 0x6B5 JUMPI PUSH2 0x178 SLOAD SWAP1 MLOAD PUSH1 0x1 PUSH1 0x1 PUSH1 0xA0 SHL SUB SWAP1 SWAP2 AND DUP2 MSTORE PUSH1 0x20 SWAP1 RETURN JUMPDEST DUP3 PUSH1 0x60 CALLDATASIZE PUSH1 0x3 NOT ADD SLT PUSH2 0x7AA JUMPI PUSH1 0x4 CALLDATALOAD PUSH1 0x1 PUSH1 0x1 PUSH1 0xA0 SHL SUB DUP2 DUP2 AND SWAP3 SWAP2 DUP4 SWAP1 SUB PUSH2 0x7AA JUMPI PUSH1 0x44 CALLDATALOAD SWAP1 DUP2 AND DUP1 SWAP2 SUB PUSH2 0x7AA JUMPI PUSH2 0x732 SWAP3 PUSH2 0x715 SWAP2 DUP4 MLOAD SWAP2 PUSH2 0x1821 PUSH1 0xC0 DUP5 PUSH2 0x32DA JUMP JUMPDEST DUP3 MSTORE PUSH1 0x24 CALLDATALOAD PUSH1 0x20 DUP4 ADD MSTORE CALLVALUE DUP5 DUP4 ADD MSTORE CALLER PUSH1 0x60 DUP4 ADD MSTORE CALLER PUSH1 0x80 DUP4 ADD MSTORE PUSH1 0xA0 DUP3 ADD MSTORE PUSH2 0x4AB0 JUMP JUMPDEST POP POP CALLVALUE PUSH2 0x6B5 JUMPI DUP2 PUSH1 0x3 NOT CALLDATASIZE ADD SLT PUSH2 0x6B5 JUMPI PUSH1 0x20 SWAP1 PUSH2 0x1866 PUSH2 0xBC6 PUSH2 0x3C95 JUMP JUMPDEST POP SWAP1 MLOAD SWAP1 DUP2 MSTORE RETURN JUMPDEST POP POP CALLVALUE PUSH2 0x6B5 JUMPI DUP2 PUSH1 0x3 NOT CALLDATASIZE ADD SLT PUSH2 0x6B5 JUMPI PUSH2 0x188 SLOAD SWAP1 MLOAD PUSH1 0x1 PUSH1 0x1 PUSH1 0xA0 SHL SUB SWAP1 SWAP2 AND DUP2 MSTORE PUSH1 0x20 SWAP1 RETURN JUMPDEST POP POP CALLVALUE PUSH2 0x6B5 JUMPI DUP2 PUSH1 0x3 NOT CALLDATASIZE ADD SLT PUSH2 0x6B5 JUMPI PUSH1 0x20 SWAP1 PUSH2 0x2BD SLOAD SWAP1 MLOAD SWAP1 DUP2 MSTORE RETURN JUMPDEST POP POP CALLVALUE PUSH2 0x6B5 JUMPI DUP2 PUSH1 0x3 NOT CALLDATASIZE ADD SLT PUSH2 0x6B5 JUMPI PUSH1 0x20 SWAP1 PUSH2 0x17C SLOAD SWAP1 MLOAD SWAP1 DUP2 MSTORE RETURN JUMPDEST DUP3 DUP5 CALLVALUE PUSH2 0x7AE JUMPI POP PUSH2 0x79D PUSH2 0x18EE CALLDATASIZE PUSH1 0x4 PUSH2 0x332C JUMP JUMPDEST SWAP1 DUP6 SWAP4 SWAP3 SWAP4 MLOAD SWAP4 PUSH2 0x1900 PUSH1 0xC0 DUP7 PUSH2 0x32DA JUMP JUMPDEST PUSH1 0x1 PUSH1 0x1 PUSH1 0xA0 SHL SUB SWAP4 DUP5 AND DUP6 MSTORE PUSH1 0x20 DUP6 ADD MSTORE DUP6 DUP5 ADD MSTORE CALLER PUSH1 0x60 DUP5 ADD DUP2 SWAP1 MSTORE PUSH1 0x80 DUP5 ADD DUP2 SWAP1 MSTORE SWAP2 AND PUSH1 0xA0 DUP4 ADD MSTORE SWAP1 PUSH2 0x56A4 JUMP JUMPDEST DUP3 DUP5 CALLVALUE PUSH2 0x7AE JUMPI POP PUSH2 0x79D PUSH2 0x1948 CALLDATASIZE PUSH1 0x4 PUSH2 0x3288 JUMP JUMPDEST SWAP2 SWAP4 SWAP1 DUP7 MLOAD SWAP5 PUSH2 0x1959 PUSH1 0xC0 DUP8 PUSH2 0x32DA JUMP JUMPDEST PUSH1 0x1 DUP1 PUSH1 0xA0 SHL SUB SWAP5 DUP6 DUP1 SWAP5 AND DUP8 MSTORE PUSH1 0x20 DUP8 ADD MSTORE DUP8 DUP7 ADD MSTORE CALLER PUSH1 0x60 DUP7 ADD MSTORE AND PUSH1 0x80 DUP5 ADD MSTORE AND PUSH1 0xA0 DUP3 ADD MSTORE CALLER SWAP1 PUSH2 0x56A4 JUMP JUMPDEST DUP4 CALLVALUE PUSH2 0x7AE JUMPI PUSH1 0x20 CALLDATASIZE PUSH1 0x3 NOT ADD SLT PUSH2 0x7AE JUMPI PUSH1 0x4 CALLDATALOAD PUSH1 0x1 PUSH1 0x1 PUSH1 0xA0 SHL SUB DUP2 AND SWAP1 DUP2 SWAP1 SUB PUSH2 0x7AA JUMPI PUSH2 0x19B8 PUSH2 0x5CC8 JUMP JUMPDEST PUSH2 0x183 DUP1 SLOAD PUSH1 0x1 PUSH1 0x1 PUSH1 0xA0 SHL SUB NOT AND SWAP1 SWAP2 OR SWAP1 SSTORE DUP1 RETURN JUMPDEST POP POP CALLVALUE PUSH2 0x6B5 JUMPI DUP2 PUSH1 0x3 NOT CALLDATASIZE ADD SLT PUSH2 0x6B5 JUMPI PUSH2 0x19E9 PUSH2 0x5D55 JUMP JUMPDEST PUSH1 0xCA SLOAD PUSH1 0x10 DUP2 SWAP1 SHR PUSH1 0x1 PUSH1 0x1 PUSH1 0xA0 SHL SUB AND CALLER SUB PUSH2 0x1A53 JUMPI PUSH1 0xFF DUP2 AND ISZERO PUSH2 0x1A42 JUMPI PUSH2 0xFF00 NOT AND PUSH2 0x100 OR PUSH1 0xCA SSTORE MLOAD CALLER DUP2 MSTORE PUSH32 0x62E78CEA01BEE320CD4E420270B5EA74000D11B0C9F74754EBDBFC544B05A258 SWAP1 PUSH1 0x20 SWAP1 LOG1 DUP1 RETURN JUMPDEST DUP2 MLOAD PUSH4 0x866099C3 PUSH1 0xE0 SHL DUP2 MSTORE PUSH1 0x4 SWAP1 REVERT JUMPDEST DUP2 MLOAD PUSH4 0x1D77D477 PUSH1 0xE2 SHL DUP2 MSTORE PUSH1 0x4 SWAP1 REVERT JUMPDEST POP POP CALLVALUE PUSH2 0x6B5 JUMPI DUP2 PUSH1 0x3 NOT CALLDATASIZE ADD SLT PUSH2 0x6B5 JUMPI PUSH1 0x20 SWAP1 PUSH2 0x8AE PUSH2 0x1756 PUSH2 0xBC6 PUSH2 0x3C95 JUMP JUMPDEST POP POP CALLVALUE PUSH2 0x6B5 JUMPI DUP2 PUSH1 0x3 NOT CALLDATASIZE ADD SLT PUSH2 0x6B5 JUMPI PUSH1 0x20 SWAP1 PUSH2 0x18A SLOAD SWAP1 MLOAD SWAP1 DUP2 MSTORE RETURN JUMPDEST POP POP CALLVALUE PUSH2 0x6B5 JUMPI DUP2 PUSH1 0x3 NOT CALLDATASIZE ADD SLT PUSH2 0x6B5 JUMPI PUSH1 0x20 SWAP1 PUSH2 0x8AE PUSH2 0x1AC9 PUSH1 0x1 PUSH2 0x3CCE JUMP JUMPDEST PUSH2 0xD92 PUSH2 0x1AD6 DUP3 DUP5 PUSH2 0x391B JUMP JUMPDEST SWAP2 DUP4 PUSH2 0x39CB JUMP JUMPDEST POP POP CALLVALUE PUSH2 0x6B5 JUMPI DUP2 PUSH1 0x3 NOT CALLDATASIZE ADD SLT PUSH2 0x6B5 JUMPI PUSH2 0x1F3 SLOAD SWAP1 MLOAD PUSH1 0x1 PUSH1 0x1 PUSH1 0xA0 SHL SUB SWAP1 SWAP2 AND DUP2 MSTORE PUSH1 0x20 SWAP1 RETURN JUMPDEST POP POP CALLVALUE PUSH2 0x6B5 JUMPI PUSH1 0x20 CALLDATASIZE PUSH1 0x3 NOT ADD SLT PUSH2 0x6B5 JUMPI PUSH1 0x4 CALLDATALOAD SWAP2 PUSH2 0x17A SWAP1 DUP2 SLOAD DUP5 LT ISZERO PUSH2 0x7AE JUMPI POP PUSH1 0x20 SWAP3 PUSH2 0x1B38 SWAP2 PUSH2 0x320F JUMP JUMPDEST SWAP2 SWAP1 SLOAD SWAP1 MLOAD SWAP2 PUSH1 0x3 SHL SHR DUP2 MSTORE RETURN JUMPDEST DUP4 CALLVALUE PUSH2 0x7AE JUMPI PUSH1 0x20 CALLDATASIZE PUSH1 0x3 NOT ADD SLT PUSH2 0x7AE JUMPI PUSH2 0x1B60 PUSH2 0x5CC8 JUMP JUMPDEST PUSH1 0x4 CALLDATALOAD PUSH2 0x17B SSTORE DUP1 RETURN JUMPDEST DUP4 CALLVALUE PUSH2 0x7AE JUMPI PUSH1 0x20 CALLDATASIZE PUSH1 0x3 NOT ADD SLT PUSH2 0x7AE JUMPI PUSH2 0x1B84 PUSH2 0x5CC8 JUMP JUMPDEST PUSH1 0x4 CALLDATALOAD PUSH2 0x172 SSTORE DUP1 RETURN JUMPDEST POP POP CALLVALUE PUSH2 0x6B5 JUMPI DUP2 PUSH1 0x3 NOT CALLDATASIZE ADD SLT PUSH2 0x6B5 JUMPI PUSH1 0x20 SWAP1 PUSH2 0x1C0 SLOAD SWAP1 MLOAD SWAP1 DUP2 MSTORE RETURN JUMPDEST DUP4 CALLVALUE PUSH2 0x7AE JUMPI PUSH1 0x20 CALLDATASIZE PUSH1 0x3 NOT ADD SLT PUSH2 0x7AE JUMPI PUSH2 0x1BC8 PUSH2 0x5CC8 JUMP JUMPDEST PUSH1 0x4 CALLDATALOAD PUSH2 0x173 SSTORE DUP1 RETURN JUMPDEST POP POP CALLVALUE PUSH2 0x6B5 JUMPI DUP2 PUSH1 0x3 NOT CALLDATASIZE ADD SLT PUSH2 0x6B5 JUMPI PUSH1 0x20 SWAP1 PUSH2 0x166 SLOAD SWAP1 MLOAD SWAP1 DUP2 MSTORE RETURN JUMPDEST POP POP CALLVALUE PUSH2 0x6B5 JUMPI DUP2 PUSH1 0x3 NOT CALLDATASIZE ADD SLT PUSH2 0x6B5 JUMPI PUSH1 0x20 SWAP1 PUSH2 0x174 SLOAD SWAP1 MLOAD SWAP1 DUP2 MSTORE RETURN JUMPDEST PUSH2 0x732 DUP4 PUSH2 0x715 PUSH2 0x1C24 CALLDATASIZE PUSH1 0x4 PUSH2 0x3359 JUMP JUMPDEST SWAP1 SWAP3 DUP6 MLOAD SWAP4 PUSH2 0x1C34 PUSH1 0xC0 DUP7 PUSH2 0x32DA JUMP JUMPDEST PUSH1 0x1 PUSH1 0x1 PUSH1 0xA0 SHL SUB SWAP2 DUP3 AND DUP6 MSTORE PUSH1 0x20 DUP6 ADD SWAP4 SWAP1 SWAP4 MSTORE CALLVALUE DUP7 DUP6 ADD MSTORE CALLER PUSH1 0x60 DUP6 ADD MSTORE SWAP2 DUP3 AND PUSH1 0x80 DUP5 ADD MSTORE AND PUSH1 0xA0 DUP3 ADD MSTORE PUSH2 0x4AB0 JUMP JUMPDEST DUP4 CALLVALUE PUSH2 0x7AE JUMPI PUSH1 0x20 CALLDATASIZE PUSH1 0x3 NOT ADD SLT PUSH2 0x7AE JUMPI PUSH2 0x1C81 PUSH2 0x5CC8 JUMP JUMPDEST PUSH1 0x4 CALLDATALOAD PUSH2 0x16D SSTORE DUP1 RETURN JUMPDEST DUP3 PUSH2 0x715 PUSH2 0x732 SWAP3 PUSH2 0x1C9E CALLDATASIZE PUSH1 0x4 PUSH2 0x3288 JUMP JUMPDEST SWAP3 SWAP4 SWAP2 PUSH2 0x1CAD DUP9 MLOAD SWAP7 DUP8 PUSH2 0x32DA JUMP JUMPDEST PUSH1 0x1 DUP1 PUSH1 0xA0 SHL SUB SWAP5 DUP6 DUP1 SWAP5 AND DUP8 MSTORE PUSH1 0x20 DUP8 ADD MSTORE DUP8 DUP7 ADD MSTORE CALLVALUE PUSH1 0x60 DUP7 ADD MSTORE CALLER PUSH1 0x80 DUP7 ADD MSTORE AND PUSH1 0xA0 DUP5 ADD MSTORE AND PUSH1 0xC0 DUP3 ADD MSTORE CALLER SWAP1 PUSH2 0x4FF7 JUMP JUMPDEST POP POP CALLVALUE PUSH2 0x6B5 JUMPI DUP2 PUSH1 0x3 NOT CALLDATASIZE ADD SLT PUSH2 0x6B5 JUMPI PUSH1 0x20 SWAP1 PUSH2 0x186 SLOAD SWAP1 MLOAD SWAP1 DUP2 MSTORE RETURN JUMPDEST POP POP CALLVALUE PUSH2 0x6B5 JUMPI DUP2 PUSH1 0x3 NOT CALLDATASIZE ADD SLT PUSH2 0x6B5 JUMPI PUSH1 0x20 SWAP1 PUSH2 0x16B SLOAD SWAP1 MLOAD SWAP1 DUP2 MSTORE RETURN JUMPDEST DUP4 CALLVALUE PUSH2 0x7AE JUMPI PUSH1 0x20 CALLDATASIZE PUSH1 0x3 NOT ADD SLT PUSH2 0x7AE JUMPI PUSH2 0x1D3D PUSH2 0x5CC8 JUMP JUMPDEST PUSH1 0x4 CALLDATALOAD PUSH2 0x184 SSTORE DUP1 RETURN JUMPDEST DUP4 CALLVALUE PUSH2 0x7AE JUMPI PUSH1 0x20 CALLDATASIZE PUSH1 0x3 NOT ADD SLT PUSH2 0x7AE JUMPI PUSH1 0x4 CALLDATALOAD PUSH1 0x1 PUSH1 0x1 PUSH1 0xA0 SHL SUB DUP2 AND SWAP1 DUP2 SWAP1 SUB PUSH2 0x7AA JUMPI PUSH2 0x1D76 PUSH2 0x5CC8 JUMP JUMPDEST PUSH2 0x188 DUP1 SLOAD PUSH1 0x1 PUSH1 0x1 PUSH1 0xA0 SHL SUB NOT AND SWAP1 SWAP2 OR SWAP1 SSTORE DUP1 RETURN JUMPDEST DUP4 CALLVALUE PUSH2 0x7AE JUMPI PUSH1 0x20 CALLDATASIZE PUSH1 0x3 NOT ADD SLT PUSH2 0x7AE JUMPI PUSH2 0x1DA7 PUSH2 0x5CC8 JUMP JUMPDEST PUSH1 0x4 CALLDATALOAD PUSH2 0x170 SSTORE DUP1 RETURN JUMPDEST POP POP CALLVALUE PUSH2 0x6B5 JUMPI DUP2 PUSH1 0x3 NOT CALLDATASIZE ADD SLT PUSH2 0x6B5 JUMPI PUSH1 0x20 SWAP1 PUSH2 0x184 SLOAD SWAP1 MLOAD SWAP1 DUP2 MSTORE RETURN JUMPDEST POP POP CALLVALUE PUSH2 0x6B5 JUMPI DUP2 PUSH1 0x3 NOT CALLDATASIZE ADD SLT PUSH2 0x6B5 JUMPI PUSH1 0x20 SWAP1 PUSH2 0x17B SLOAD SWAP1 MLOAD SWAP1 DUP2 MSTORE RETURN JUMPDEST PUSH2 0x715 SWAP2 POP PUSH2 0x732 SWAP4 PUSH2 0x1E05 CALLDATASIZE PUSH1 0x4 PUSH2 0x332C JUMP JUMPDEST SWAP2 PUSH2 0x1E12 DUP9 MLOAD SWAP7 DUP8 PUSH2 0x32DA JUMP JUMPDEST PUSH1 0x1 DUP1 PUSH1 0xA0 SHL SUB DUP1 SWAP5 AND DUP7 MSTORE PUSH1 0x20 DUP7 ADD MSTORE DUP7 DUP6 ADD MSTORE CALLVALUE PUSH1 0x60 DUP6 ADD MSTORE CALLER PUSH1 0x80 DUP6 ADD MSTORE AND PUSH1 0xA0 DUP4 ADD MSTORE PUSH1 0xC0 DUP3 ADD MSTORE CALLER SWAP1 PUSH2 0x4FF7 JUMP JUMPDEST PUSH2 0x715 SWAP2 POP PUSH2 0x732 SWAP4 PUSH2 0x1E59 CALLDATASIZE PUSH1 0x4 PUSH2 0x324C JUMP JUMPDEST SWAP2 DUP9 SWAP7 SWAP5 SWAP7 MLOAD SWAP7 PUSH2 0x1E6C PUSH2 0x100 DUP10 PUSH2 0x32DA JUMP JUMPDEST PUSH1 0x1 DUP1 PUSH1 0xA0 SHL SUB SWAP5 DUP6 DUP1 SWAP3 AND DUP10 MSTORE AND PUSH1 0x20 DUP9 ADD MSTORE DUP9 DUP8 ADD MSTORE PUSH1 0x60 DUP7 ADD MSTORE CALLVALUE PUSH1 0x80 DUP7 ADD MSTORE CALLER PUSH1 0xA0 DUP7 ADD MSTORE AND PUSH1 0xC0 DUP5 ADD MSTORE DUP3 ADD MSTORE CALLER SWAP1 PUSH2 0x4C4E JUMP JUMPDEST PUSH2 0x715 SWAP2 POP PUSH2 0x732 SWAP4 PUSH2 0x1EB9 CALLDATASIZE PUSH1 0x4 PUSH2 0x332C JUMP JUMPDEST SWAP2 PUSH2 0x1EC6 DUP9 MLOAD SWAP7 DUP8 PUSH2 0x32DA JUMP JUMPDEST PUSH1 0x1 DUP1 PUSH1 0xA0 SHL SUB DUP1 SWAP5 AND DUP7 MSTORE PUSH1 0x20 DUP7 ADD MSTORE DUP7 DUP6 ADD MSTORE CALLVALUE PUSH1 0x60 DUP6 ADD MSTORE CALLER PUSH1 0x80 DUP6 ADD MSTORE AND PUSH1 0xA0 DUP4 ADD MSTORE PUSH1 0xC0 DUP3 ADD MSTORE CALLER SWAP1 PUSH2 0x4E44 JUMP JUMPDEST DUP4 CALLVALUE PUSH2 0x7AE JUMPI DUP1 PUSH1 0x3 NOT CALLDATASIZE ADD SLT PUSH2 0x7AE JUMPI PUSH2 0x1F12 PUSH2 0x5CC8 JUMP JUMPDEST PUSH1 0x1 PUSH1 0xFF NOT PUSH1 0xCA SLOAD AND OR PUSH1 0xCA SSTORE DUP1 RETURN JUMPDEST POP POP CALLVALUE PUSH2 0x6B5 JUMPI DUP2 PUSH1 0x3 NOT CALLDATASIZE ADD SLT PUSH2 0x6B5 JUMPI PUSH1 0x20 SWAP1 PUSH2 0x1866 PUSH2 0x5B73 JUMP JUMPDEST DUP4 CALLVALUE PUSH2 0x7AE JUMPI PUSH1 0x20 CALLDATASIZE PUSH1 0x3 NOT ADD SLT PUSH2 0x7AE JUMPI PUSH2 0x1F59 PUSH2 0x5CC8 JUMP JUMPDEST PUSH1 0x4 CALLDATALOAD PUSH2 0x189 SSTORE DUP1 RETURN JUMPDEST POP POP CALLVALUE PUSH2 0x6B5 JUMPI DUP2 PUSH1 0x3 NOT CALLDATASIZE ADD SLT PUSH2 0x6B5 JUMPI PUSH2 0x161 SLOAD SWAP1 MLOAD PUSH1 0x1 PUSH1 0x1 PUSH1 0xA0 SHL SUB SWAP1 SWAP2 AND DUP2 MSTORE PUSH1 0x20 SWAP1 RETURN JUMPDEST POP POP CALLVALUE PUSH2 0x6B5 JUMPI DUP2 PUSH1 0x3 NOT CALLDATASIZE ADD SLT PUSH2 0x6B5 JUMPI PUSH2 0x165 SLOAD SWAP1 MLOAD PUSH1 0x1 PUSH1 0x1 PUSH1 0xA0 SHL SUB SWAP1 SWAP2 AND DUP2 MSTORE PUSH1 0x20 SWAP1 RETURN JUMPDEST DUP3 DUP5 CALLVALUE PUSH2 0x7AE JUMPI PUSH1 0xC0 CALLDATASIZE PUSH1 0x3 NOT ADD SLT PUSH2 0x7AE JUMPI POP PUSH1 0x1 PUSH1 0x1 PUSH1 0xA0 SHL SUB SWAP2 PUSH1 0x4 CALLDATALOAD DUP4 DUP2 AND SWAP2 SWAP1 DUP3 SWAP1 SUB PUSH2 0x7AA JUMPI PUSH1 0x84 CALLDATALOAD SWAP4 DUP1 DUP6 AND DUP1 SWAP6 SUB PUSH2 0x7AA JUMPI PUSH1 0xA4 CALLDATALOAD SWAP1 DUP2 AND DUP1 SWAP2 SUB PUSH2 0x7AA JUMPI PUSH2 0x732 SWAP5 PUSH2 0x715 SWAP4 PUSH2 0x2012 DUP7 MLOAD SWAP5 DUP6 PUSH2 0x32DA JUMP JUMPDEST DUP4 MSTORE PUSH1 0x24 CALLDATALOAD PUSH1 0x20 DUP5 ADD MSTORE PUSH1 0x44 CALLDATALOAD DUP6 DUP5 ADD MSTORE PUSH1 0x64 CALLDATALOAD PUSH1 0x60 DUP5 ADD MSTORE CALLER PUSH1 0x80 DUP5 ADD MSTORE PUSH1 0xA0 DUP4 ADD MSTORE PUSH1 0xC0 DUP3 ADD MSTORE CALLER SWAP1 PUSH2 0x5932 JUMP JUMPDEST DUP4 CALLVALUE PUSH2 0x7AE JUMPI DUP1 PUSH1 0x3 NOT CALLDATASIZE ADD SLT PUSH2 0x7AE JUMPI PUSH1 0x2A PUSH2 0x2BD SSTORE DUP1 RETURN JUMPDEST POP POP CALLVALUE PUSH2 0x6B5 JUMPI DUP2 PUSH1 0x3 NOT CALLDATASIZE ADD SLT PUSH2 0x6B5 JUMPI PUSH1 0x20 SWAP1 PUSH1 0xFF PUSH1 0xCA SLOAD PUSH1 0x8 SHR AND SWAP1 MLOAD SWAP1 ISZERO ISZERO DUP2 MSTORE RETURN JUMPDEST POP POP CALLVALUE PUSH2 0x6B5 JUMPI DUP2 PUSH1 0x3 NOT CALLDATASIZE ADD SLT PUSH2 0x6B5 JUMPI PUSH2 0x209D PUSH2 0x5D55 JUMP JUMPDEST PUSH2 0x17F DUP1 SLOAD NUMBER LT PUSH2 0x227A JUMPI PUSH2 0x17E SLOAD NUMBER ADD SWAP1 SSTORE PUSH32 0xD3C59BDA47E141A8EC5A33D241B7F71B86E30D359F83A9227D912858B60404FC DUP3 DUP1 LOG1 PUSH2 0x20DC PUSH2 0x5117 JUMP JUMPDEST PUSH2 0x169 SLOAD DUP3 PUSH2 0x20EA DUP3 PUSH2 0x3A7D JUMP JUMPDEST SWAP2 DUP5 JUMPDEST DUP2 DUP2 LT PUSH2 0x21AC JUMPI POP POP DUP1 PUSH2 0x2167 JUMPI JUMPDEST SWAP2 DUP1 MLOAD SWAP3 DUP2 DUP5 ADD SWAP1 DUP5 MSTORE PUSH1 0x20 SWAP2 DUP3 DUP6 ADD MSTORE DUP3 MLOAD DUP1 SWAP2 MSTORE DUP2 PUSH1 0x60 DUP6 ADD SWAP4 ADD SWAP2 DUP6 JUMPDEST DUP3 DUP2 LT PUSH2 0x2153 JUMPI DUP7 PUSH32 0xAE5116A8119D08673A0F1DFA7546B95DA4BD54BB17FEDA7C61130AC7859152F6 DUP8 DUP8 SUB DUP9 LOG1 PUSH1 0x1 PUSH2 0x12F SSTORE DUP1 RETURN JUMPDEST DUP4 MLOAD DUP6 MSTORE SWAP4 DUP2 ADD SWAP4 SWAP3 DUP2 ADD SWAP3 PUSH1 0x1 ADD PUSH2 0x211C JUMP JUMPDEST PUSH2 0x217E PUSH8 0xDE0B6B3A7640000 SWAP2 PUSH2 0x16B SLOAD SWAP1 PUSH2 0x399A JUMP JUMPDEST DIV PUSH2 0x163 PUSH2 0x218D DUP3 DUP3 SLOAD PUSH2 0x3A58 JUMP JUMPDEST SWAP1 SSTORE PUSH2 0x178 SLOAD PUSH2 0x21A7 SWAP1 DUP3 SWAP1 PUSH1 0x1 PUSH1 0x1 PUSH1 0xA0 SHL SUB AND PUSH2 0x516E JUMP JUMPDEST PUSH2 0x20FC JUMP JUMPDEST PUSH2 0x21B5 DUP2 PUSH2 0x3BB7 JUMP JUMPDEST PUSH2 0x21BF DUP2 DUP4 PUSH2 0x482B JUMP JUMPDEST DUP7 PUSH2 0x180 SWAP2 DUP7 PUSH2 0x21CF DUP6 DUP6 PUSH2 0x320F JUMP JUMPDEST SWAP1 SLOAD SWAP1 PUSH1 0x3 SHL SHR SWAP2 DUP4 DUP4 SGT PUSH2 0x21EC JUMPI JUMPDEST POP POP POP POP POP PUSH1 0x1 ADD PUSH2 0x20ED JUMP JUMPDEST SWAP5 PUSH2 0x2231 DUP4 DUP3 SWAP7 SWAP10 PUSH2 0x2237 SWAP5 PUSH2 0x222B DUP6 PUSH2 0x221E PUSH2 0x2224 PUSH2 0x224D SWAP11 PUSH1 0x1 SWAP15 PUSH8 0xDE0B6B3A7640000 SWAP4 DUP5 SWAP2 PUSH2 0x16C SLOAD PUSH2 0x399A JUMP JUMPDEST DIV PUSH2 0x399A JUMP JUMPDEST DIV SWAP3 PUSH2 0x387C JUMP JUMPDEST MSTORE PUSH2 0x385B JUMP JUMPDEST SWAP8 PUSH2 0x320F JUMP JUMPDEST DUP2 SWAP4 SWAP2 SLOAD SWAP1 PUSH1 0x3 SHL SWAP2 DUP3 SHL SWAP2 PUSH0 NOT SWAP1 SHL NOT AND OR SWAP1 JUMP JUMPDEST SWAP1 SSTORE PUSH2 0x2270 PUSH2 0x225C DUP3 DUP8 PUSH2 0x387C JUMP JUMPDEST MLOAD DUP9 DUP5 DUP1 PUSH1 0xA0 SHL SUB PUSH2 0x179 SLOAD AND SWAP2 DUP5 PUSH2 0x4762 JUMP JUMPDEST SWAP1 DUP7 PUSH0 DUP7 DUP2 PUSH2 0x21DF JUMP JUMPDEST DUP2 MLOAD PUSH4 0x101B6859 PUSH1 0xE0 SHL DUP2 MSTORE PUSH1 0x4 SWAP1 REVERT JUMPDEST POP POP CALLVALUE PUSH2 0x6B5 JUMPI DUP2 PUSH1 0x3 NOT CALLDATASIZE ADD SLT PUSH2 0x6B5 JUMPI PUSH1 0x20 SWAP1 PUSH2 0x187 SLOAD SWAP1 MLOAD SWAP1 DUP2 MSTORE RETURN JUMPDEST POP POP CALLVALUE PUSH2 0x6B5 JUMPI DUP2 PUSH1 0x3 NOT CALLDATASIZE ADD SLT PUSH2 0x6B5 JUMPI PUSH1 0x20 SWAP1 PUSH2 0x8AE PUSH2 0x2BD SLOAD PUSH8 0xDE0B6B3A7640000 PUSH2 0x17B SLOAD DIV SWAP1 PUSH2 0x385B JUMP JUMPDEST DUP4 CALLVALUE PUSH2 0x7AE JUMPI PUSH1 0x20 CALLDATASIZE PUSH1 0x3 NOT ADD SLT PUSH2 0x7AE JUMPI PUSH2 0x22F5 PUSH2 0x5CC8 JUMP JUMPDEST PUSH1 0x4 CALLDATALOAD PUSH2 0x175 SSTORE DUP1 RETURN JUMPDEST DUP4 CALLVALUE PUSH2 0x7AE JUMPI PUSH1 0x20 CALLDATASIZE PUSH1 0x3 NOT ADD SLT PUSH2 0x7AE JUMPI PUSH1 0x4 CALLDATALOAD PUSH1 0x1 PUSH1 0x1 PUSH1 0xA0 SHL SUB DUP2 AND DUP2 SUB PUSH2 0x7AA JUMPI PUSH2 0xE1C SWAP1 PUSH2 0x1566 PUSH2 0x5CC8 JUMP JUMPDEST DUP3 DUP5 CALLVALUE PUSH2 0x7AE JUMPI PUSH2 0x79D SWAP1 PUSH2 0x2346 CALLDATASIZE PUSH1 0x4 PUSH2 0x332C JUMP JUMPDEST SWAP1 DUP7 SWAP5 SWAP4 SWAP3 SWAP5 MLOAD SWAP5 PUSH2 0x2359 PUSH1 0xC0 DUP8 PUSH2 0x32DA JUMP JUMPDEST PUSH1 0x1 DUP1 PUSH1 0xA0 SHL SUB DUP1 SWAP5 AND DUP7 MSTORE PUSH1 0x20 DUP7 ADD MSTORE DUP7 DUP6 ADD MSTORE CALLER PUSH1 0x60 DUP6 ADD MSTORE AND PUSH1 0x80 DUP4 ADD MSTORE PUSH1 0xA0 DUP3 ADD MSTORE CALLER SWAP1 PUSH2 0x56A4 JUMP JUMPDEST DUP3 DUP5 CALLVALUE PUSH2 0x7AE JUMPI DUP1 PUSH1 0x3 NOT CALLDATASIZE ADD SLT PUSH2 0x7AE JUMPI POP PUSH32 0x0 PUSH1 0x1 PUSH1 0x1 PUSH1 0xA0 SHL SUB AND ADDRESS SUB PUSH2 0x23F2 JUMPI PUSH1 0x20 SWAP1 MLOAD PUSH32 0x360894A13BA1A3210667C828492DB98DCA3E2076CC3735A920A3CA505D382BBC DUP2 MSTORE RETURN JUMPDEST MLOAD PUSH3 0x461BCD PUSH1 0xE5 SHL DUP2 MSTORE PUSH1 0x20 PUSH1 0x4 DUP3 ADD MSTORE PUSH1 0x38 PUSH1 0x24 DUP3 ADD MSTORE PUSH32 0x555550535570677261646561626C653A206D757374206E6F742062652063616C PUSH1 0x44 DUP3 ADD MSTORE PUSH32 0x6C6564207468726F7567682064656C656761746563616C6C0000000000000000 PUSH1 0x64 DUP3 ADD MSTORE PUSH1 0x84 SWAP1 REVERT JUMPDEST DUP4 CALLVALUE PUSH2 0x7AE JUMPI DUP1 PUSH1 0x3 NOT CALLDATASIZE ADD SLT PUSH2 0x7AE JUMPI PUSH2 0x2474 PUSH2 0x5CC8 JUMP JUMPDEST PUSH1 0xFF NOT PUSH1 0xCA SLOAD AND PUSH1 0xCA SSTORE DUP1 RETURN JUMPDEST DUP3 DUP5 PUSH1 0x60 CALLDATASIZE PUSH1 0x3 NOT ADD SLT PUSH2 0x7AA JUMPI PUSH1 0x1 PUSH1 0x1 PUSH1 0xA0 SHL SUB SWAP1 PUSH1 0x4 CALLDATALOAD DUP3 DUP2 AND SWAP2 SWAP1 DUP3 SWAP1 SUB PUSH2 0x7AA JUMPI PUSH1 0x44 CALLDATALOAD SWAP3 DUP4 AND DUP1 SWAP4 SUB PUSH2 0x7AA JUMPI PUSH2 0x79D SWAP3 DUP5 MLOAD SWAP3 PUSH2 0x24C6 PUSH1 0xC0 DUP6 PUSH2 0x32DA JUMP JUMPDEST DUP4 MSTORE PUSH1 0x24 CALLDATALOAD PUSH1 0x20 DUP5 ADD MSTORE CALLVALUE DUP6 DUP5 ADD MSTORE CALLER PUSH1 0x60 DUP5 ADD MSTORE PUSH1 0x80 DUP4 ADD MSTORE PUSH1 0xA0 DUP3 ADD MSTORE PUSH2 0x44F7 JUMP JUMPDEST POP POP DUP1 PUSH1 0x3 NOT CALLDATASIZE ADD SLT PUSH2 0x6B5 JUMPI PUSH1 0x4 CALLDATALOAD SWAP1 PUSH1 0x1 PUSH1 0x1 PUSH1 0xA0 SHL SUB SWAP1 DUP2 DUP4 AND DUP4 SUB PUSH2 0x7AA JUMPI DUP4 SWAP3 PUSH1 0x24 CALLDATALOAD SWAP3 PUSH8 0xFFFFFFFFFFFFFFFF DUP5 GT PUSH2 0x25DA JUMPI CALLDATASIZE PUSH1 0x23 DUP6 ADD SLT ISZERO PUSH2 0x25DA JUMPI DUP4 PUSH1 0x4 ADD CALLDATALOAD SWAP1 PUSH2 0x2548 PUSH2 0x253F DUP4 PUSH2 0x3310 JUMP JUMPDEST SWAP5 MLOAD SWAP5 DUP6 PUSH2 0x32DA JUMP JUMPDEST DUP2 DUP5 MSTORE CALLDATASIZE PUSH1 0x24 DUP4 DUP8 ADD ADD GT PUSH2 0x25D6 JUMPI PUSH2 0xE1C SWAP6 PUSH1 0x20 DUP4 PUSH2 0x25C9 SWAP5 PUSH1 0x24 PUSH1 0x1 SWAP10 ADD DUP4 DUP10 ADD CALLDATACOPY DUP7 ADD ADD MSTORE DUP1 PUSH32 0x0 AND SWAP1 PUSH2 0x25A0 DUP3 ADDRESS EQ ISZERO PUSH2 0x33B8 JUMP JUMPDEST PUSH32 0x360894A13BA1A3210667C828492DB98DCA3E2076CC3735A920A3CA505D382BBC SLOAD AND EQ PUSH2 0x3419 JUMP JUMPDEST PUSH2 0x25D1 PUSH2 0x5CC8 JUMP JUMPDEST PUSH2 0x347A JUMP JUMPDEST DUP6 DUP1 REVERT JUMPDEST DUP5 DUP1 REVERT JUMPDEST POP POP CALLVALUE PUSH2 0x6B5 JUMPI DUP2 PUSH1 0x3 NOT CALLDATASIZE ADD SLT PUSH2 0x6B5 JUMPI PUSH1 0x20 SWAP1 PUSH2 0x16D SLOAD SWAP1 MLOAD SWAP1 DUP2 MSTORE RETURN JUMPDEST POP POP CALLVALUE PUSH2 0x6B5 JUMPI DUP2 PUSH1 0x3 NOT CALLDATASIZE ADD SLT PUSH2 0x6B5 JUMPI PUSH2 0x179 SLOAD SWAP1 MLOAD PUSH1 0x1 PUSH1 0x1 PUSH1 0xA0 SHL SUB SWAP1 SWAP2 AND DUP2 MSTORE PUSH1 0x20 SWAP1 RETURN JUMPDEST POP POP CALLVALUE PUSH2 0x6B5 JUMPI DUP2 PUSH1 0x3 NOT CALLDATASIZE ADD SLT PUSH2 0x6B5 JUMPI PUSH1 0x20 SWAP1 PUSH2 0x17E SLOAD SWAP1 MLOAD SWAP1 DUP2 MSTORE RETURN JUMPDEST POP POP DUP1 PUSH1 0x3 NOT CALLDATASIZE ADD SLT PUSH2 0x6B5 JUMPI PUSH1 0x4 CALLDATALOAD PUSH1 0x1 PUSH1 0x1 PUSH1 0xA0 SHL SUB DUP2 AND SWAP3 SWAP1 DUP4 SWAP1 SUB PUSH2 0x7AA JUMPI PUSH2 0x732 SWAP3 PUSH2 0x715 SWAP2 DUP4 MLOAD SWAP2 PUSH2 0x1821 PUSH1 0xC0 DUP5 PUSH2 0x32DA JUMP JUMPDEST POP POP CALLVALUE PUSH2 0x6B5 JUMPI PUSH1 0x20 CALLDATASIZE PUSH1 0x3 NOT ADD SLT PUSH2 0x6B5 JUMPI PUSH1 0x4 CALLDATALOAD PUSH2 0x169 DUP1 SLOAD DUP3 LT ISZERO PUSH2 0xAB7 JUMPI SWAP1 PUSH2 0x26AD SWAP2 PUSH2 0x32C1 JUMP JUMPDEST POP DUP1 SLOAD PUSH1 0x1 SWAP1 SWAP2 ADD SLOAD DUP3 MLOAD SWAP2 DUP3 MSTORE PUSH1 0x1 PUSH1 0x1 PUSH1 0xA0 SHL SUB AND PUSH1 0x20 DUP3 ADD MSTORE RETURN JUMPDEST DUP3 PUSH2 0x715 PUSH2 0x732 SWAP3 PUSH2 0x26DE CALLDATASIZE PUSH1 0x4 PUSH2 0x3288 JUMP JUMPDEST SWAP3 SWAP4 SWAP2 PUSH2 0x26ED DUP9 MLOAD SWAP7 DUP8 PUSH2 0x32DA JUMP JUMPDEST PUSH1 0x1 DUP1 PUSH1 0xA0 SHL SUB SWAP5 DUP6 DUP1 SWAP5 AND DUP8 MSTORE PUSH1 0x20 DUP8 ADD MSTORE DUP8 DUP7 ADD MSTORE CALLVALUE PUSH1 0x60 DUP7 ADD MSTORE CALLER PUSH1 0x80 DUP7 ADD MSTORE AND PUSH1 0xA0 DUP5 ADD MSTORE AND PUSH1 0xC0 DUP3 ADD MSTORE CALLER SWAP1 PUSH2 0x4E44 JUMP JUMPDEST DUP3 DUP5 CALLVALUE PUSH2 0x7AE JUMPI POP PUSH1 0x60 CALLDATASIZE PUSH1 0x3 NOT ADD SLT PUSH2 0x7AA JUMPI PUSH1 0x44 CALLDATALOAD PUSH1 0x1 PUSH1 0x1 PUSH1 0xA0 SHL SUB DUP2 AND SWAP1 DUP2 SWAP1 SUB PUSH2 0x7AA JUMPI DUP2 MLOAD PUSH2 0x79D SWAP2 PUSH2 0x178C PUSH1 0xA0 DUP4 PUSH2 0x32DA JUMP JUMPDEST DUP3 DUP5 CALLVALUE PUSH2 0x7AE JUMPI PUSH1 0x60 CALLDATASIZE PUSH1 0x3 NOT ADD SLT PUSH2 0x7AA JUMPI PUSH1 0x4 CALLDATALOAD PUSH1 0x1 PUSH1 0x1 PUSH1 0xA0 SHL SUB DUP2 AND SWAP1 DUP2 SWAP1 SUB PUSH2 0x7AA JUMPI PUSH2 0x79D SWAP2 DUP4 MLOAD SWAP2 PUSH2 0x2797 PUSH1 0xC0 DUP5 PUSH2 0x32DA JUMP JUMPDEST DUP3 MSTORE PUSH1 0x24 CALLDATALOAD PUSH1 0x20 DUP4 ADD MSTORE PUSH1 0x44 CALLDATALOAD DUP5 DUP4 ADD MSTORE CALLER PUSH1 0x60 DUP4 ADD MSTORE CALLER PUSH1 0x80 DUP4 ADD MSTORE PUSH1 0xA0 DUP3 ADD MSTORE CALLER SWAP1 PUSH2 0x56A4 JUMP JUMPDEST POP POP CALLVALUE PUSH2 0x6B5 JUMPI DUP2 PUSH1 0x3 NOT CALLDATASIZE ADD SLT PUSH2 0x6B5 JUMPI PUSH1 0x20 SWAP1 PUSH2 0x170 SLOAD SWAP1 MLOAD SWAP1 DUP2 MSTORE RETURN JUMPDEST POP POP CALLVALUE PUSH2 0x6B5 JUMPI DUP2 PUSH1 0x3 NOT CALLDATASIZE ADD SLT PUSH2 0x6B5 JUMPI PUSH1 0x20 SWAP1 PUSH2 0x8AE PUSH2 0x2811 PUSH2 0x2821 PUSH2 0x281B PUSH2 0x2809 PUSH2 0x5B73 JUMP JUMPDEST SWAP4 SWAP1 SWAP4 PUSH2 0x3890 JUMP JUMPDEST DUP2 DUP2 SWAP4 SWAP3 SWAP6 PUSH2 0x4967 JUMP JUMPDEST SWAP3 PUSH2 0x4222 JUMP JUMPDEST SWAP1 PUSH2 0x48BD JUMP JUMPDEST POP POP CALLVALUE PUSH2 0x6B5 JUMPI DUP2 PUSH1 0x3 NOT CALLDATASIZE ADD SLT PUSH2 0x6B5 JUMPI PUSH1 0xCA SLOAD PUSH1 0xFF DUP2 PUSH1 0x8 SHR AND ISZERO PUSH2 0x2891 JUMPI PUSH1 0x10 DUP2 SWAP1 SHR PUSH1 0x1 PUSH1 0x1 PUSH1 0xA0 SHL SUB AND CALLER SUB PUSH2 0x1A53 JUMPI PUSH2 0xFF00 NOT AND PUSH1 0xCA SSTORE MLOAD CALLER DUP2 MSTORE PUSH32 0x5DB9EE0A495BF2E6FF9C91A7834C1BA4FDD244A5E8AA4E537BD38AEAE4B073AA SWAP1 PUSH1 0x20 SWAP1 LOG1 DUP1 RETURN JUMPDEST DUP2 MLOAD PUSH4 0x7C7FD079 PUSH1 0xE0 SHL DUP2 MSTORE PUSH1 0x4 SWAP1 REVERT JUMPDEST DUP3 DUP5 CALLVALUE PUSH2 0x7AE JUMPI PUSH1 0x80 CALLDATASIZE PUSH1 0x3 NOT ADD SLT PUSH2 0x7AE JUMPI POP PUSH1 0x1 PUSH1 0x1 PUSH1 0xA0 SHL SUB PUSH1 0x44 CALLDATALOAD DUP2 DUP2 AND SWAP1 DUP2 SWAP1 SUB PUSH2 0x7AA JUMPI PUSH1 0x64 CALLDATALOAD SWAP2 DUP3 AND DUP1 SWAP3 SUB PUSH2 0x7AA JUMPI PUSH2 0x79D SWAP2 DUP4 MLOAD SWAP2 PUSH2 0xB80 PUSH1 0xA0 DUP5 PUSH2 0x32DA JUMP JUMPDEST DUP4 CALLVALUE PUSH2 0x7AE JUMPI PUSH1 0x20 CALLDATASIZE PUSH1 0x3 NOT ADD SLT PUSH2 0x7AE JUMPI PUSH2 0x2905 PUSH2 0x5CC8 JUMP JUMPDEST PUSH1 0x4 CALLDATALOAD PUSH2 0x1C0 SSTORE DUP1 RETURN JUMPDEST DUP3 PUSH1 0x60 CALLDATASIZE PUSH1 0x3 NOT ADD SLT PUSH2 0x7AA JUMPI PUSH1 0x1 PUSH1 0x1 PUSH1 0xA0 SHL SUB PUSH1 0x4 CALLDATALOAD DUP2 DUP2 AND SWAP1 DUP2 SWAP1 SUB PUSH2 0x7AA JUMPI PUSH1 0x44 CALLDATALOAD SWAP2 DUP3 AND DUP1 SWAP3 SUB PUSH2 0x7AA JUMPI PUSH2 0x79D SWAP2 DUP4 MLOAD SWAP2 PUSH2 0x2951 PUSH1 0xC0 DUP5 PUSH2 0x32DA JUMP JUMPDEST DUP3 MSTORE PUSH1 0x24 CALLDATALOAD PUSH1 0x20 DUP4 ADD MSTORE CALLVALUE DUP5 DUP4 ADD MSTORE CALLER PUSH1 0x60 DUP4 ADD MSTORE CALLER PUSH1 0x80 DUP4 ADD MSTORE PUSH1 0xA0 DUP3 ADD MSTORE PUSH2 0x44F7 JUMP JUMPDEST POP POP CALLVALUE PUSH2 0x6B5 JUMPI PUSH1 0x20 CALLDATASIZE PUSH1 0x3 NOT ADD SLT PUSH2 0x6B5 JUMPI PUSH1 0x4 CALLDATALOAD SWAP2 PUSH2 0x16A SWAP1 DUP2 SLOAD DUP5 LT ISZERO PUSH2 0x7AE JUMPI POP PUSH1 0x20 SWAP3 PUSH2 0x1B38 SWAP2 PUSH2 0x320F JUMP JUMPDEST POP POP CALLVALUE PUSH2 0x6B5 JUMPI PUSH1 0x20 CALLDATASIZE PUSH1 0x3 NOT ADD SLT PUSH2 0x6B5 JUMPI PUSH1 0x4 CALLDATALOAD SWAP1 PUSH1 0x1 PUSH1 0x1 PUSH1 0xA0 SHL SUB SWAP1 DUP2 DUP4 AND DUP4 SUB PUSH2 0x7AA JUMPI PUSH2 0xE1C SWAP3 PUSH2 0x2A09 DUP4 DUP7 SWAP5 PUSH32 0x0 AND SWAP1 PUSH2 0x25A0 DUP3 ADDRESS EQ ISZERO PUSH2 0x33B8 JUMP JUMPDEST PUSH2 0x2A11 PUSH2 0x5CC8 JUMP JUMPDEST PUSH2 0x2A26 PUSH2 0x2A1D DUP5 PUSH2 0x3310 JUMP JUMPDEST SWAP3 MLOAD SWAP3 DUP4 PUSH2 0x32DA JUMP JUMPDEST DUP3 DUP3 MSTORE PUSH1 0x1F NOT PUSH2 0x2A35 DUP5 PUSH2 0x3310 JUMP JUMPDEST ADD CALLDATASIZE PUSH1 0x20 DUP5 ADD CALLDATACOPY PUSH2 0x347A JUMP JUMPDEST SWAP1 POP CALLVALUE PUSH2 0x736 JUMPI PUSH1 0x80 CALLDATASIZE PUSH1 0x3 NOT ADD SLT PUSH2 0x736 JUMPI PUSH1 0x4 CALLDATALOAD PUSH1 0x1 PUSH1 0x1 PUSH1 0xA0 SHL SUB DUP2 AND SWAP2 SWAP1 DUP3 SWAP1 SUB PUSH2 0x7AA JUMPI PUSH2 0x732 SWAP4 PUSH2 0x715 SWAP3 PUSH2 0x2A7E DUP6 MLOAD SWAP4 DUP5 PUSH2 0x32DA JUMP JUMPDEST DUP3 MSTORE PUSH1 0x24 CALLDATALOAD PUSH1 0x20 DUP4 ADD MSTORE PUSH1 0x44 CALLDATALOAD DUP5 DUP4 ADD MSTORE PUSH1 0x64 CALLDATALOAD PUSH1 0x60 DUP4 ADD MSTORE CALLER PUSH1 0x80 DUP4 ADD MSTORE CALLER PUSH1 0xA0 DUP4 ADD MSTORE PUSH1 0xC0 DUP3 ADD MSTORE CALLER SWAP1 PUSH2 0x5932 JUMP JUMPDEST POP POP CALLVALUE PUSH2 0x6B5 JUMPI DUP2 PUSH1 0x3 NOT CALLDATASIZE ADD SLT PUSH2 0x6B5 JUMPI PUSH2 0x2AC9 PUSH2 0x5D55 JUMP JUMPDEST PUSH2 0x17D DUP1 SLOAD PUSH1 0xFF DUP2 AND DUP1 PUSH2 0x2B94 JUMPI JUMPDEST DUP1 PUSH2 0x2B7A JUMPI JUMPDEST PUSH2 0x2AE6 JUMPI DUP4 DUP1 RETURN JUMPDEST PUSH2 0xFF00 NOT AND PUSH2 0x100 OR SWAP1 SSTORE DUP1 MLOAD SWAP1 DUP3 SWAP1 PUSH32 0x8B77276C97A5709F0D6DB52329848A254EB760CE8BE80D281799F633BDB69E83 DUP3 DUP1 LOG1 PUSH2 0x165 SLOAD PUSH1 0x1 PUSH1 0x1 PUSH1 0xA0 SHL SUB AND DUP1 EXTCODESIZE ISZERO PUSH2 0x736 JUMPI DUP4 PUSH1 0x4 DUP2 DUP6 DUP1 SWAP5 PUSH4 0x8456CB59 PUSH1 0xE0 SHL DUP4 MSTORE GAS CALL SWAP1 DUP2 ISZERO PUSH2 0x2B6F JUMPI POP PUSH2 0x2B5F JUMPI JUMPDEST POP POP PUSH2 0x2B58 PUSH2 0x3AAF JUMP JUMPDEST PUSH0 DUP1 DUP1 DUP4 DUP1 RETURN JUMPDEST PUSH2 0x2B68 SWAP2 PUSH2 0x32DA JUMP JUMPDEST PUSH0 DUP2 PUSH2 0x2B4E JUMP JUMPDEST MLOAD SWAP2 RETURNDATASIZE SWAP2 POP DUP3 RETURNDATACOPY RETURNDATASIZE SWAP1 REVERT JUMPDEST POP PUSH2 0x2B89 PUSH2 0x1756 PUSH2 0xBC6 PUSH2 0x3C95 JUMP JUMPDEST PUSH2 0x17C SLOAD LT ISZERO PUSH2 0x2ADE JUMP JUMPDEST POP PUSH1 0xFF DUP2 PUSH1 0x8 SHR AND ISZERO PUSH2 0x2AD8 JUMP JUMPDEST POP POP CALLVALUE PUSH2 0x6B5 JUMPI DUP2 PUSH1 0x3 NOT CALLDATASIZE ADD SLT PUSH2 0x6B5 JUMPI PUSH1 0x20 SWAP1 PUSH2 0x171 SLOAD SWAP1 MLOAD SWAP1 DUP2 MSTORE RETURN JUMPDEST DUP3 DUP5 PUSH1 0x20 CALLDATASIZE PUSH1 0x3 NOT ADD SLT PUSH2 0x7AE JUMPI DUP2 MLOAD PUSH2 0x79D SWAP2 PUSH2 0xD3C PUSH1 0xA0 DUP4 PUSH2 0x32DA JUMP JUMPDEST POP POP CALLVALUE PUSH2 0x6B5 JUMPI DUP2 PUSH1 0x3 NOT CALLDATASIZE ADD SLT PUSH2 0x6B5 JUMPI PUSH1 0x20 SWAP1 PUSH2 0x175 SLOAD SWAP1 MLOAD SWAP1 DUP2 MSTORE RETURN JUMPDEST DUP4 CALLVALUE PUSH2 0x7AE JUMPI PUSH1 0x20 CALLDATASIZE PUSH1 0x3 NOT ADD SLT PUSH2 0x7AE JUMPI PUSH1 0x4 CALLDATALOAD PUSH1 0x1 PUSH1 0x1 PUSH1 0xA0 SHL SUB DUP2 AND DUP2 SUB PUSH2 0x6B5 JUMPI PUSH2 0x2C2E PUSH2 0x5CC8 JUMP JUMPDEST PUSH1 0xCA DUP1 SLOAD PUSH3 0x10000 PUSH1 0x1 PUSH1 0xB0 SHL SUB NOT AND PUSH1 0x10 SWAP3 SWAP1 SWAP3 SHL PUSH3 0x10000 PUSH1 0x1 PUSH1 0xB0 SHL SUB AND SWAP2 SWAP1 SWAP2 OR SWAP1 SSTORE DUP1 RETURN JUMPDEST DUP4 CALLVALUE PUSH2 0x7AE JUMPI PUSH1 0x20 CALLDATASIZE PUSH1 0x3 NOT ADD SLT PUSH2 0x7AE JUMPI PUSH2 0x2C72 PUSH2 0x5CC8 JUMP JUMPDEST PUSH1 0x4 CALLDATALOAD PUSH2 0x17C SSTORE DUP1 RETURN JUMPDEST POP POP CALLVALUE PUSH2 0x6B5 JUMPI DUP2 PUSH1 0x3 NOT CALLDATASIZE ADD SLT PUSH2 0x6B5 JUMPI PUSH1 0x20 SWAP1 PUSH2 0x172 SLOAD SWAP1 MLOAD SWAP1 DUP2 MSTORE RETURN JUMPDEST DUP4 CALLVALUE PUSH2 0x7AE JUMPI PUSH1 0x20 CALLDATASIZE PUSH1 0x3 NOT ADD SLT PUSH2 0x7AE JUMPI PUSH1 0x4 CALLDATALOAD PUSH1 0x1 PUSH1 0x1 PUSH1 0xA0 SHL SUB DUP2 AND SWAP1 DUP2 SWAP1 SUB PUSH2 0x6B5 JUMPI PUSH2 0x2CCB PUSH2 0x5CC8 JUMP JUMPDEST PUSH2 0x179 DUP1 SLOAD PUSH1 0x1 PUSH1 0x1 PUSH1 0xA0 SHL SUB NOT AND SWAP1 SWAP2 OR SWAP1 SSTORE DUP1 RETURN JUMPDEST POP POP CALLVALUE PUSH2 0x6B5 JUMPI PUSH1 0x20 CALLDATASIZE PUSH1 0x3 NOT ADD SLT PUSH2 0x6B5 JUMPI PUSH1 0x4 CALLDATALOAD PUSH1 0x1 PUSH1 0x1 PUSH1 0xA0 SHL SUB DUP2 AND SWAP1 DUP2 SWAP1 SUB PUSH2 0x736 JUMPI DUP3 DUP3 SWAP2 PUSH1 0x20 SWAP5 MSTORE PUSH2 0x176 DUP5 MSTORE KECCAK256 SLOAD SWAP1 MLOAD SWAP1 DUP2 MSTORE RETURN JUMPDEST POP POP DUP1 PUSH1 0x3 NOT CALLDATASIZE ADD SLT PUSH2 0x6B5 JUMPI PUSH1 0x4 CALLDATALOAD PUSH1 0x1 PUSH1 0x1 PUSH1 0xA0 SHL SUB DUP2 AND SWAP1 DUP2 SWAP1 SUB PUSH2 0x736 JUMPI DUP2 SWAP3 PUSH2 0x79D SWAP3 MLOAD SWAP2 PUSH2 0x2951 PUSH1 0xC0 DUP5 PUSH2 0x32DA JUMP JUMPDEST POP POP CALLVALUE PUSH2 0x6B5 JUMPI DUP2 PUSH1 0x3 NOT CALLDATASIZE ADD SLT PUSH2 0x6B5 JUMPI PUSH1 0x20 SWAP1 PUSH1 0xFF PUSH2 0x17D SLOAD PUSH1 0x8 SHR AND SWAP1 MLOAD SWAP1 ISZERO ISZERO DUP2 MSTORE RETURN JUMPDEST DUP4 CALLVALUE PUSH2 0x7AE JUMPI PUSH1 0x20 CALLDATASIZE PUSH1 0x3 NOT ADD SLT PUSH2 0x7AE JUMPI PUSH2 0x2D96 PUSH2 0x5CC8 JUMP JUMPDEST PUSH1 0x4 CALLDATALOAD PUSH2 0x174 SSTORE DUP1 RETURN JUMPDEST DUP4 CALLVALUE PUSH2 0x7AE JUMPI PUSH1 0x20 CALLDATASIZE PUSH1 0x3 NOT ADD SLT PUSH2 0x7AE JUMPI PUSH1 0x4 CALLDATALOAD DUP1 ISZERO ISZERO DUP1 SWAP2 SUB PUSH2 0x6B5 JUMPI PUSH2 0x2DC7 PUSH2 0x5CC8 JUMP JUMPDEST PUSH2 0x17D SWAP1 PUSH1 0xFF DUP1 NOT DUP4 SLOAD AND SWAP2 AND OR SWAP1 SSTORE DUP1 RETURN JUMPDEST POP POP CALLVALUE PUSH2 0x6B5 JUMPI DUP2 PUSH1 0x3 NOT CALLDATASIZE ADD SLT PUSH2 0x6B5 JUMPI PUSH1 0x20 SWAP1 PUSH2 0x8AE PUSH2 0x2DFD PUSH2 0xBC6 PUSH2 0x3C95 JUMP JUMPDEST SWAP1 PUSH2 0x4222 JUMP JUMPDEST SWAP1 POP PUSH1 0x60 CALLDATASIZE PUSH1 0x3 NOT ADD SLT PUSH2 0x736 JUMPI PUSH1 0x4 CALLDATALOAD PUSH1 0x1 PUSH1 0x1 PUSH1 0xA0 SHL SUB DUP2 AND SWAP1 DUP2 SWAP1 SUB PUSH2 0xAB7 JUMPI SWAP1 PUSH2 0x732 SWAP4 PUSH2 0x715 SWAP3 PUSH2 0x2E3B DUP6 MLOAD SWAP4 DUP5 PUSH2 0x32DA JUMP JUMPDEST DUP3 MSTORE PUSH1 0x24 CALLDATALOAD PUSH1 0x20 DUP4 ADD MSTORE PUSH1 0x44 CALLDATALOAD DUP5 DUP4 ADD MSTORE CALLVALUE PUSH1 0x60 DUP4 ADD MSTORE CALLER PUSH1 0x80 DUP4 ADD MSTORE CALLER PUSH1 0xA0 DUP4 ADD MSTORE PUSH1 0xC0 DUP3 ADD MSTORE CALLER SWAP1 PUSH2 0x4E44 JUMP JUMPDEST POP POP CALLVALUE PUSH2 0x6B5 JUMPI DUP2 PUSH1 0x3 NOT CALLDATASIZE ADD SLT PUSH2 0x6B5 JUMPI PUSH1 0x20 SWAP1 PUSH2 0x17F SLOAD SWAP1 MLOAD SWAP1 DUP2 MSTORE RETURN JUMPDEST POP POP CALLVALUE PUSH2 0x6B5 JUMPI PUSH1 0x20 CALLDATASIZE PUSH1 0x3 NOT ADD SLT PUSH2 0x6B5 JUMPI PUSH1 0x4 CALLDATALOAD SWAP2 PUSH1 0x1 PUSH1 0x1 PUSH1 0xA0 SHL SUB DUP4 AND DUP4 SUB PUSH2 0x7AE JUMPI POP PUSH2 0x8AE PUSH1 0x20 SWAP3 CALLER SWAP1 CALLER SWAP1 PUSH2 0x52E4 JUMP JUMPDEST DUP4 CALLVALUE PUSH2 0x7AE JUMPI PUSH1 0x20 CALLDATASIZE PUSH1 0x3 NOT ADD SLT PUSH2 0x7AE JUMPI PUSH1 0x4 CALLDATALOAD PUSH1 0x1 PUSH1 0x1 PUSH1 0xA0 SHL SUB DUP2 AND SWAP1 DUP2 SWAP1 SUB PUSH2 0x6B5 JUMPI PUSH2 0x2EF0 PUSH2 0x5CC8 JUMP JUMPDEST PUSH2 0x162 DUP1 SLOAD PUSH1 0x1 PUSH1 0x1 PUSH1 0xA0 SHL SUB NOT AND SWAP1 SWAP2 OR SWAP1 SSTORE DUP1 RETURN JUMPDEST DUP4 CALLVALUE PUSH2 0x7AE JUMPI PUSH1 0x20 CALLDATASIZE PUSH1 0x3 NOT ADD SLT PUSH2 0x7AE JUMPI PUSH2 0x2F21 PUSH2 0x5CC8 JUMP JUMPDEST PUSH1 0x4 CALLDATALOAD PUSH2 0x171 SSTORE DUP1 RETURN JUMPDEST POP POP CALLVALUE PUSH2 0x6B5 JUMPI DUP2 PUSH1 0x3 NOT CALLDATASIZE ADD SLT PUSH2 0x6B5 JUMPI PUSH1 0x20 SWAP1 PUSH2 0x189 SLOAD SWAP1 MLOAD SWAP1 DUP2 MSTORE RETURN JUMPDEST DUP4 CALLVALUE PUSH2 0x7AE JUMPI PUSH1 0x20 CALLDATASIZE PUSH1 0x3 NOT ADD SLT PUSH2 0x7AE JUMPI PUSH1 0x4 CALLDATALOAD PUSH1 0x1 PUSH1 0x1 PUSH1 0xA0 SHL SUB DUP2 AND SWAP1 DUP2 SWAP1 SUB PUSH2 0x6B5 JUMPI PUSH2 0x2F7A PUSH2 0x5CC8 JUMP JUMPDEST PUSH2 0x178 DUP1 SLOAD PUSH1 0x1 PUSH1 0x1 PUSH1 0xA0 SHL SUB NOT AND SWAP1 SWAP2 OR SWAP1 SSTORE DUP1 RETURN JUMPDEST DUP3 PUSH2 0x715 PUSH2 0x732 SWAP3 PUSH2 0x2FA4 CALLDATASIZE PUSH1 0x4 PUSH2 0x324C JUMP JUMPDEST SWAP2 DUP8 SWAP6 SWAP5 SWAP6 MLOAD SWAP6 PUSH2 0x2FB7 PUSH2 0x100 DUP9 PUSH2 0x32DA JUMP JUMPDEST PUSH1 0x1 DUP1 PUSH1 0xA0 SHL SUB SWAP5 DUP6 DUP1 SWAP3 AND DUP9 MSTORE AND PUSH1 0x20 DUP8 ADD MSTORE DUP8 DUP7 ADD MSTORE PUSH1 0x60 DUP6 ADD MSTORE CALLVALUE PUSH1 0x80 DUP6 ADD MSTORE CALLER PUSH1 0xA0 DUP6 ADD MSTORE CALLER PUSH1 0xC0 DUP6 ADD MSTORE AND SWAP1 DUP3 ADD MSTORE CALLER SWAP1 PUSH2 0x4C4E JUMP JUMPDEST POP POP CALLVALUE PUSH2 0x6B5 JUMPI DUP2 PUSH1 0x3 NOT CALLDATASIZE ADD SLT PUSH2 0x6B5 JUMPI PUSH1 0x20 SWAP1 PUSH2 0x1BF SLOAD SWAP1 MLOAD SWAP1 DUP2 MSTORE RETURN JUMPDEST POP POP CALLVALUE PUSH2 0x6B5 JUMPI DUP2 PUSH1 0x3 NOT CALLDATASIZE ADD SLT PUSH2 0x6B5 JUMPI PUSH1 0x97 SLOAD SWAP1 MLOAD PUSH1 0x1 PUSH1 0x1 PUSH1 0xA0 SHL SUB SWAP1 SWAP2 AND DUP2 MSTORE PUSH1 0x20 SWAP1 RETURN JUMPDEST DUP3 DUP5 PUSH1 0xC0 CALLDATASIZE PUSH1 0x3 NOT ADD SLT PUSH2 0x7AE JUMPI PUSH1 0x1 PUSH1 0x1 PUSH1 0xA0 SHL SUB PUSH1 0x4 CALLDATALOAD DUP2 DUP2 AND SWAP5 SWAP2 SWAP3 SWAP1 DUP6 SWAP1 SUB PUSH2 0x7AE JUMPI PUSH1 0x24 CALLDATALOAD DUP4 DUP2 AND DUP1 SWAP2 SUB PUSH2 0x6B5 JUMPI PUSH1 0x84 CALLDATALOAD SWAP2 DUP5 DUP4 AND DUP1 SWAP4 SUB PUSH2 0x7AE JUMPI PUSH1 0xA4 CALLDATALOAD SWAP5 DUP6 AND DUP1 SWAP6 SUB PUSH2 0x7AE JUMPI POP SWAP2 PUSH2 0x715 SWAP4 SWAP2 PUSH2 0x732 SWAP7 SWAP4 DUP7 MLOAD SWAP5 PUSH2 0x30A5 PUSH2 0x100 DUP8 PUSH2 0x32DA JUMP JUMPDEST DUP6 MSTORE PUSH1 0x20 DUP6 ADD MSTORE PUSH1 0x44 CALLDATALOAD DUP7 DUP6 ADD MSTORE PUSH1 0x64 CALLDATALOAD PUSH1 0x60 DUP6 ADD MSTORE CALLVALUE PUSH1 0x80 DUP6 ADD MSTORE CALLER PUSH1 0xA0 DUP6 ADD MSTORE PUSH1 0xC0 DUP5 ADD MSTORE DUP3 ADD MSTORE CALLER SWAP1 PUSH2 0x4C4E JUMP JUMPDEST DUP4 CALLVALUE PUSH2 0x7AE JUMPI PUSH1 0x20 CALLDATASIZE PUSH1 0x3 NOT ADD SLT PUSH2 0x7AE JUMPI PUSH2 0x30F0 PUSH2 0x5CC8 JUMP JUMPDEST PUSH1 0x4 CALLDATALOAD PUSH2 0x18A SSTORE DUP1 RETURN JUMPDEST POP POP CALLVALUE PUSH2 0x6B5 JUMPI DUP2 PUSH1 0x3 NOT CALLDATASIZE ADD SLT PUSH2 0x6B5 JUMPI PUSH2 0x3114 PUSH2 0x5D55 JUMP JUMPDEST PUSH2 0x311C PUSH2 0x5117 JUMP JUMPDEST PUSH2 0x18B DUP1 SLOAD NUMBER LT PUSH2 0x3193 JUMPI SWAP1 PUSH2 0x318A SWAP2 PUSH2 0x18A SLOAD NUMBER ADD SWAP1 SSTORE PUSH32 0xE37FDA283839477A1B77E29ACF8336C0E13A5DAA967913DF0FE5AD258C0822F PUSH1 0x20 PUSH8 0xDE0B6B3A7640000 PUSH2 0x3171 PUSH2 0x163 SLOAD PUSH2 0x189 SLOAD SWAP1 PUSH2 0x399A JUMP JUMPDEST DIV SWAP3 MLOAD DUP4 DUP2 MSTORE LOG1 PUSH2 0x188 SLOAD PUSH1 0x1 PUSH1 0x1 PUSH1 0xA0 SHL SUB AND PUSH2 0x516E JUMP JUMPDEST PUSH1 0x1 PUSH2 0x12F SSTORE DUP1 RETURN JUMPDEST DUP2 MLOAD PUSH4 0xACCE20E5 PUSH1 0xE0 SHL DUP2 MSTORE PUSH1 0x4 SWAP1 REVERT JUMPDEST POP POP CALLVALUE PUSH2 0x6B5 JUMPI PUSH1 0x20 CALLDATASIZE PUSH1 0x3 NOT ADD SLT PUSH2 0x6B5 JUMPI PUSH1 0x4 CALLDATALOAD SWAP2 PUSH2 0x167 SWAP1 DUP2 SLOAD DUP5 LT ISZERO PUSH2 0x7AE JUMPI POP PUSH1 0x20 SWAP3 PUSH2 0x31D5 SWAP2 PUSH2 0x320F JUMP JUMPDEST SWAP1 SLOAD SWAP2 MLOAD SWAP2 PUSH1 0x1 DUP1 PUSH1 0xA0 SHL SUB SWAP2 PUSH1 0x3 SHL SHR AND DUP2 MSTORE RETURN JUMPDEST DUP4 CALLVALUE PUSH2 0x7AE JUMPI PUSH1 0x20 CALLDATASIZE PUSH1 0x3 NOT ADD SLT PUSH2 0x7AE JUMPI PUSH2 0x3205 PUSH2 0x5CC8 JUMP JUMPDEST PUSH1 0x4 CALLDATALOAD PUSH2 0x16C SSTORE DUP1 RETURN JUMPDEST DUP1 SLOAD DUP3 LT ISZERO PUSH2 0x3224 JUMPI PUSH0 MSTORE PUSH1 0x20 PUSH0 KECCAK256 ADD SWAP1 PUSH0 SWAP1 JUMP JUMPDEST PUSH4 0x4E487B71 PUSH1 0xE0 SHL PUSH0 MSTORE PUSH1 0x32 PUSH1 0x4 MSTORE PUSH1 0x24 PUSH0 REVERT JUMPDEST CALLDATALOAD SWAP1 PUSH1 0x1 PUSH1 0x1 PUSH1 0xA0 SHL SUB DUP3 AND DUP3 SUB PUSH2 0x7AA JUMPI JUMP JUMPDEST SWAP1 DUP2 PUSH1 0xA0 SWAP2 SUB SLT PUSH2 0x7AA JUMPI PUSH2 0x3260 DUP2 PUSH2 0x3238 JUMP JUMPDEST SWAP2 PUSH2 0x326D PUSH1 0x20 DUP4 ADD PUSH2 0x3238 JUMP JUMPDEST SWAP2 PUSH1 0x40 DUP2 ADD CALLDATALOAD SWAP2 PUSH2 0x3285 PUSH1 0x80 PUSH1 0x60 DUP5 ADD CALLDATALOAD SWAP4 ADD PUSH2 0x3238 JUMP JUMPDEST SWAP1 JUMP JUMPDEST SWAP1 DUP2 PUSH1 0xA0 SWAP2 SUB SLT PUSH2 0x7AA JUMPI PUSH2 0x329C DUP2 PUSH2 0x3238 JUMP JUMPDEST SWAP2 PUSH1 0x20 DUP3 ADD CALLDATALOAD SWAP2 PUSH1 0x40 DUP2 ADD CALLDATALOAD SWAP2 PUSH2 0x3285 PUSH1 0x80 PUSH2 0x32BA PUSH1 0x60 DUP6 ADD PUSH2 0x3238 JUMP JUMPDEST SWAP4 ADD PUSH2 0x3238 JUMP JUMPDEST DUP1 SLOAD DUP3 LT ISZERO PUSH2 0x3224 JUMPI PUSH0 MSTORE PUSH1 0x20 PUSH0 KECCAK256 SWAP1 PUSH1 0x1 SHL ADD SWAP1 PUSH0 SWAP1 JUMP JUMPDEST SWAP1 PUSH1 0x1F DUP1 NOT SWAP2 ADD AND DUP2 ADD SWAP1 DUP2 LT PUSH8 0xFFFFFFFFFFFFFFFF DUP3 GT OR PUSH2 0x32FC JUMPI PUSH1 0x40 MSTORE JUMP JUMPDEST PUSH4 0x4E487B71 PUSH1 0xE0 SHL PUSH0 MSTORE PUSH1 0x41 PUSH1 0x4 MSTORE PUSH1 0x24 PUSH0 REVERT JUMPDEST PUSH8 0xFFFFFFFFFFFFFFFF DUP2 GT PUSH2 0x32FC JUMPI PUSH1 0x1F ADD PUSH1 0x1F NOT AND PUSH1 0x20 ADD SWAP1 JUMP JUMPDEST SWAP2 SWAP1 DUP3 PUSH1 0x80 SWAP2 SUB SLT PUSH2 0x7AA JUMPI PUSH2 0x3341 DUP3 PUSH2 0x3238 JUMP JUMPDEST SWAP2 PUSH1 0x20 DUP2 ADD CALLDATALOAD SWAP2 PUSH2 0x3285 PUSH1 0x60 PUSH1 0x40 DUP5 ADD CALLDATALOAD SWAP4 ADD PUSH2 0x3238 JUMP JUMPDEST SWAP2 SWAP1 DUP3 PUSH1 0x80 SWAP2 SUB SLT PUSH2 0x7AA JUMPI PUSH2 0x336E DUP3 PUSH2 0x3238 JUMP JUMPDEST SWAP2 PUSH1 0x20 DUP2 ADD CALLDATALOAD SWAP2 PUSH2 0x3285 PUSH1 0x60 PUSH2 0x32BA PUSH1 0x40 DUP6 ADD PUSH2 0x3238 JUMP JUMPDEST SWAP1 DUP2 PUSH1 0xA0 SWAP2 SUB SLT PUSH2 0x7AA JUMPI PUSH2 0x339A DUP2 PUSH2 0x3238 JUMP JUMPDEST SWAP2 PUSH1 0x20 DUP3 ADD CALLDATALOAD SWAP2 PUSH1 0x40 DUP2 ADD CALLDATALOAD SWAP2 PUSH2 0x3285 PUSH1 0x80 PUSH1 0x60 DUP5 ADD CALLDATALOAD SWAP4 ADD PUSH2 0x3238 JUMP JUMPDEST ISZERO PUSH2 0x33BF JUMPI JUMP JUMPDEST PUSH1 0x40 MLOAD PUSH3 0x461BCD PUSH1 0xE5 SHL DUP2 MSTORE PUSH1 0x20 PUSH1 0x4 DUP3 ADD MSTORE PUSH1 0x2C PUSH1 0x24 DUP3 ADD MSTORE PUSH32 0x46756E6374696F6E206D7573742062652063616C6C6564207468726F75676820 PUSH1 0x44 DUP3 ADD MSTORE PUSH12 0x19195B1959D85D1958D85B1B PUSH1 0xA2 SHL PUSH1 0x64 DUP3 ADD MSTORE PUSH1 0x84 SWAP1 REVERT JUMPDEST ISZERO PUSH2 0x3420 JUMPI JUMP JUMPDEST PUSH1 0x40 MLOAD PUSH3 0x461BCD PUSH1 0xE5 SHL DUP2 MSTORE PUSH1 0x20 PUSH1 0x4 DUP3 ADD MSTORE PUSH1 0x2C PUSH1 0x24 DUP3 ADD MSTORE PUSH32 0x46756E6374696F6E206D7573742062652063616C6C6564207468726F75676820 PUSH1 0x44 DUP3 ADD MSTORE PUSH12 0x6163746976652070726F7879 PUSH1 0xA0 SHL PUSH1 0x64 DUP3 ADD MSTORE PUSH1 0x84 SWAP1 REVERT JUMPDEST SWAP1 PUSH1 0xFF PUSH32 0x4910FDFA16FED3260ED0E7147F7CC6DA11A60208B5B9406D12A635614FFD9143 SLOAD AND PUSH0 EQ PUSH2 0x34B3 JUMPI POP PUSH2 0x34B1 SWAP2 POP PUSH2 0x3664 JUMP JUMPDEST JUMP JUMPDEST PUSH1 0x40 MLOAD PUSH4 0x52D1902D PUSH1 0xE0 SHL DUP2 MSTORE PUSH1 0x20 SWAP4 SWAP2 SWAP3 SWAP2 SWAP1 PUSH1 0x1 PUSH1 0x1 PUSH1 0xA0 SHL SUB DUP4 AND SWAP1 DUP6 DUP2 PUSH1 0x4 DUP2 DUP6 GAS STATICCALL PUSH0 SWAP2 DUP2 PUSH2 0x3635 JUMPI JUMPDEST POP PUSH2 0x3543 JUMPI PUSH1 0x40 MLOAD PUSH3 0x461BCD PUSH1 0xE5 SHL DUP2 MSTORE PUSH1 0x4 DUP2 ADD DUP8 SWAP1 MSTORE PUSH1 0x2E PUSH1 0x24 DUP3 ADD MSTORE PUSH32 0x45524331393637557067726164653A206E657720696D706C656D656E74617469 PUSH1 0x44 DUP3 ADD MSTORE PUSH14 0x6F6E206973206E6F742055555053 PUSH1 0x90 SHL PUSH1 0x64 DUP3 ADD MSTORE PUSH1 0x84 SWAP1 REVERT JUMPDEST SWAP4 SWAP5 SWAP4 PUSH32 0xC9F76B5EC45E5CDEF99837D7B6D2467235C1DF8933C8CA56DF5C35AFA2C7D444 ADD PUSH2 0x35DE JUMPI PUSH2 0x3575 DUP4 PUSH2 0x3664 JUMP JUMPDEST PUSH32 0xBC7CD75A20EE27FD9ADEBAB32041F755214DBC6BFFA90CC0225B39DA2E5C2D3B PUSH0 DUP1 LOG2 DUP4 MLOAD ISZERO SWAP1 DUP2 ISZERO SWAP2 PUSH2 0x35D6 JUMPI JUMPDEST POP PUSH2 0x35AF JUMPI POP POP POP JUMP JUMPDEST PUSH0 DUP1 PUSH2 0x35D3 SWAP5 PUSH2 0x35BD PUSH2 0x3706 JUMP JUMPDEST SWAP5 DUP2 MLOAD SWAP2 ADD DUP5 GAS DELEGATECALL PUSH2 0x35CD PUSH2 0x375A JUMP JUMPDEST SWAP2 PUSH2 0x3789 JUMP JUMPDEST POP JUMP JUMPDEST SWAP1 POP PUSH0 PUSH2 0x35A5 JUMP JUMPDEST PUSH1 0x40 MLOAD PUSH3 0x461BCD PUSH1 0xE5 SHL DUP2 MSTORE PUSH1 0x4 DUP2 ADD DUP6 SWAP1 MSTORE PUSH1 0x29 PUSH1 0x24 DUP3 ADD MSTORE PUSH32 0x45524331393637557067726164653A20756E737570706F727465642070726F78 PUSH1 0x44 DUP3 ADD MSTORE PUSH9 0x1A58589B1955555251 PUSH1 0xBA SHL PUSH1 0x64 DUP3 ADD MSTORE PUSH1 0x84 SWAP1 REVERT JUMPDEST SWAP1 SWAP2 DUP8 DUP3 DUP2 RETURNDATASIZE DUP4 GT PUSH2 0x365D JUMPI JUMPDEST PUSH2 0x364C DUP2 DUP4 PUSH2 0x32DA JUMP JUMPDEST DUP2 ADD SUB SLT PUSH2 0x7AE JUMPI POP MLOAD SWAP1 PUSH0 PUSH2 0x34E2 JUMP JUMPDEST POP RETURNDATASIZE PUSH2 0x3642 JUMP JUMPDEST DUP1 EXTCODESIZE ISZERO PUSH2 0x36AB JUMPI PUSH32 0x360894A13BA1A3210667C828492DB98DCA3E2076CC3735A920A3CA505D382BBC DUP1 SLOAD PUSH1 0x1 PUSH1 0x1 PUSH1 0xA0 SHL SUB NOT AND PUSH1 0x1 PUSH1 0x1 PUSH1 0xA0 SHL SUB SWAP1 SWAP3 AND SWAP2 SWAP1 SWAP2 OR SWAP1 SSTORE JUMP JUMPDEST PUSH1 0x40 MLOAD PUSH3 0x461BCD PUSH1 0xE5 SHL DUP2 MSTORE PUSH1 0x20 PUSH1 0x4 DUP3 ADD MSTORE PUSH1 0x2D PUSH1 0x24 DUP3 ADD MSTORE PUSH32 0x455243313936373A206E657720696D706C656D656E746174696F6E206973206E PUSH1 0x44 DUP3 ADD MSTORE PUSH13 0x1BDD08184818DBDB9D1C9858DD PUSH1 0x9A SHL PUSH1 0x64 DUP3 ADD MSTORE PUSH1 0x84 SWAP1 REVERT JUMPDEST PUSH2 0x3710 PUSH1 0x27 PUSH2 0x3310 JUMP JUMPDEST SWAP1 PUSH2 0x371E PUSH1 0x40 MLOAD SWAP3 DUP4 PUSH2 0x32DA JUMP JUMPDEST PUSH1 0x27 DUP3 MSTORE PUSH7 0x819985A5B1959 PUSH1 0xCA SHL PUSH1 0x40 DUP4 PUSH32 0x416464726573733A206C6F772D6C6576656C2064656C65676174652063616C6C PUSH1 0x20 DUP3 ADD MSTORE ADD MSTORE JUMP JUMPDEST RETURNDATASIZE ISZERO PUSH2 0x3784 JUMPI RETURNDATASIZE SWAP1 PUSH2 0x376B DUP3 PUSH2 0x3310 JUMP JUMPDEST SWAP2 PUSH2 0x3779 PUSH1 0x40 MLOAD SWAP4 DUP5 PUSH2 0x32DA JUMP JUMPDEST DUP3 MSTORE RETURNDATASIZE PUSH0 PUSH1 0x20 DUP5 ADD RETURNDATACOPY JUMP JUMPDEST PUSH1 0x60 SWAP1 JUMP JUMPDEST SWAP2 SWAP3 SWAP1 ISZERO PUSH2 0x37EB JUMPI POP DUP2 MLOAD ISZERO PUSH2 0x379D JUMPI POP SWAP1 JUMP JUMPDEST EXTCODESIZE ISZERO PUSH2 0x37A6 JUMPI SWAP1 JUMP JUMPDEST PUSH1 0x40 MLOAD PUSH3 0x461BCD PUSH1 0xE5 SHL DUP2 MSTORE PUSH1 0x20 PUSH1 0x4 DUP3 ADD MSTORE PUSH1 0x1D PUSH1 0x24 DUP3 ADD MSTORE PUSH32 0x416464726573733A2063616C6C20746F206E6F6E2D636F6E7472616374000000 PUSH1 0x44 DUP3 ADD MSTORE PUSH1 0x64 SWAP1 REVERT JUMPDEST DUP3 MLOAD SWAP1 SWAP2 POP ISZERO PUSH2 0x37FE JUMPI POP DUP1 MLOAD SWAP1 PUSH1 0x20 ADD REVERT JUMPDEST PUSH1 0x40 MLOAD SWAP1 PUSH3 0x461BCD PUSH1 0xE5 SHL DUP3 MSTORE DUP2 PUSH1 0x20 DUP1 PUSH1 0x4 DUP4 ADD MSTORE DUP3 MLOAD SWAP1 DUP2 PUSH1 0x24 DUP5 ADD MSTORE PUSH0 SWAP4 JUMPDEST DUP3 DUP6 LT PUSH2 0x3842 JUMPI POP POP PUSH1 0x44 SWAP3 POP PUSH0 DUP4 DUP3 DUP5 ADD ADD MSTORE PUSH1 0x1F DUP1 NOT SWAP2 ADD AND DUP2 ADD SUB ADD SWAP1 REVERT JUMPDEST DUP5 DUP2 ADD DUP3 ADD MLOAD DUP7 DUP7 ADD PUSH1 0x44 ADD MSTORE SWAP4 DUP2 ADD SWAP4 DUP6 SWAP4 POP PUSH2 0x3820 JUMP JUMPDEST SWAP2 SWAP1 DUP3 ADD DUP1 SWAP3 GT PUSH2 0x3868 JUMPI JUMP JUMPDEST PUSH4 0x4E487B71 PUSH1 0xE0 SHL PUSH0 MSTORE PUSH1 0x11 PUSH1 0x4 MSTORE PUSH1 0x24 PUSH0 REVERT JUMPDEST DUP1 MLOAD DUP3 LT ISZERO PUSH2 0x3224 JUMPI PUSH1 0x20 SWAP2 PUSH1 0x5 SHL ADD ADD SWAP1 JUMP JUMPDEST SWAP1 PUSH0 SWAP2 PUSH0 SWAP1 PUSH2 0x169 DUP1 SLOAD SWAP1 PUSH0 SWAP3 JUMPDEST DUP3 DUP5 LT PUSH2 0x38C4 JUMPI POP POP POP POP PUSH2 0x38C0 PUSH8 0xDE0B6B3A7640000 SWAP2 PUSH2 0x16B SLOAD SWAP1 PUSH2 0x399A JUMP JUMPDEST DIV SWAP1 JUMP JUMPDEST SWAP1 SWAP2 SWAP3 SWAP4 SWAP6 PUSH2 0x3911 PUSH2 0x3900 PUSH2 0x390B PUSH1 0x1 SWAP4 PUSH2 0x3905 PUSH2 0x38E2 DUP11 DUP9 PUSH2 0x387C JUMP JUMPDEST MLOAD PUSH2 0x38ED DUP2 DUP13 PUSH2 0x3936 JUMP JUMPDEST SWAP6 SWAP1 PUSH2 0x38F9 DUP14 DUP13 PUSH2 0x32C1 JUMP JUMPDEST POP SLOAD PUSH2 0x385B JUMP JUMPDEST PUSH2 0x5D76 JUMP JUMPDEST SWAP1 PUSH2 0x385B JUMP JUMPDEST SWAP9 PUSH2 0x385B JUMP JUMPDEST SWAP5 ADD SWAP3 SWAP2 SWAP1 PUSH2 0x389E JUMP JUMPDEST SWAP2 SWAP1 SWAP2 PUSH0 DUP4 DUP3 ADD SWAP4 DUP5 SLT SWAP2 SLT SWAP1 DUP1 ISZERO DUP3 AND SWAP2 ISZERO AND OR PUSH2 0x3868 JUMPI JUMP JUMPDEST SWAP2 SWAP1 PUSH0 SWAP1 PUSH2 0x3962 DUP2 PUSH0 SWAP6 PUSH2 0x3958 PUSH2 0x394F DUP3 PUSH2 0x180 PUSH2 0x320F JUMP JUMPDEST SWAP4 SWAP1 SLOAD SWAP3 PUSH2 0x39E3 JUMP JUMPDEST SWAP2 PUSH1 0x3 SHL SHR PUSH2 0x391B JUMP JUMPDEST PUSH0 DUP2 SGT PUSH2 0x3970 JUMPI JUMPDEST POP POP SWAP2 SWAP1 JUMP JUMPDEST PUSH2 0x3992 SWAP2 SWAP5 POP PUSH2 0x221E SWAP3 POP DUP1 SWAP5 PUSH8 0xDE0B6B3A7640000 SWAP4 DUP5 SWAP2 PUSH2 0x16C SLOAD PUSH2 0x399A JUMP JUMPDEST DIV PUSH0 DUP1 PUSH2 0x396A JUMP JUMPDEST DUP2 DUP2 MUL SWAP3 SWAP2 DUP2 ISZERO SWAP2 DUP5 DIV EQ OR ISZERO PUSH2 0x3868 JUMPI JUMP JUMPDEST DUP2 ISZERO PUSH2 0x39B7 JUMPI DIV SWAP1 JUMP JUMPDEST PUSH4 0x4E487B71 PUSH1 0xE0 SHL PUSH0 MSTORE PUSH1 0x12 PUSH1 0x4 MSTORE PUSH1 0x24 PUSH0 REVERT JUMPDEST DUP2 DUP2 SUB SWAP3 SWAP2 PUSH0 SGT DUP1 ISZERO DUP3 DUP6 SGT AND SWAP2 DUP5 SLT AND OR PUSH2 0x3868 JUMPI JUMP JUMPDEST PUSH2 0x39EF DUP2 PUSH2 0x169 PUSH2 0x32C1 JUMP JUMPDEST POP SLOAD SWAP1 PUSH8 0xDE0B6B3A7640000 SWAP2 DUP3 DUP2 MUL SWAP3 DUP2 DUP5 DIV EQ SWAP1 ISZERO OR ISZERO PUSH2 0x3868 JUMPI PUSH2 0x3285 SWAP3 PUSH2 0x3A2F PUSH2 0x3A22 PUSH2 0x3A35 SWAP4 PUSH2 0x181 PUSH2 0x320F JUMP JUMPDEST SWAP1 SLOAD SWAP1 PUSH1 0x3 SHL SHR DUP5 PUSH2 0x39AD JUMP JUMPDEST SWAP3 PUSH2 0x39AD JUMP JUMPDEST SWAP1 PUSH2 0x39CB JUMP JUMPDEST DUP1 ISZERO PUSH2 0x3A51 JUMPI PUSH2 0x3900 PUSH2 0x3285 SWAP3 PUSH2 0x163 SLOAD PUSH2 0x3A58 JUMP JUMPDEST POP POP PUSH0 NOT SWAP1 JUMP JUMPDEST SWAP2 SWAP1 DUP3 SUB SWAP2 DUP3 GT PUSH2 0x3868 JUMPI JUMP JUMPDEST PUSH8 0xFFFFFFFFFFFFFFFF DUP2 GT PUSH2 0x32FC JUMPI PUSH1 0x5 SHL PUSH1 0x20 ADD SWAP1 JUMP JUMPDEST SWAP1 PUSH2 0x3A87 DUP3 PUSH2 0x3A65 JUMP JUMPDEST PUSH2 0x3A94 PUSH1 0x40 MLOAD SWAP2 DUP3 PUSH2 0x32DA JUMP JUMPDEST DUP3 DUP2 MSTORE DUP1 SWAP3 PUSH2 0x3AA5 PUSH1 0x1F NOT SWAP2 PUSH2 0x3A65 JUMP JUMPDEST ADD SWAP1 PUSH1 0x20 CALLDATASIZE SWAP2 ADD CALLDATACOPY JUMP JUMPDEST PUSH2 0x163 SLOAD DUP1 ISZERO PUSH2 0x35D3 JUMPI PUSH2 0x169 SWAP1 DUP2 SLOAD SWAP2 PUSH0 SWAP1 PUSH2 0x3ACB DUP5 PUSH2 0x3A7D JUMP JUMPDEST SWAP1 DUP3 SWAP1 JUMPDEST DUP6 DUP3 LT PUSH2 0x3B39 JUMPI POP POP PUSH0 JUMPDEST DUP5 DUP2 LT PUSH2 0x3AE8 JUMPI POP POP POP POP POP JUMP JUMPDEST PUSH2 0x3B05 DUP5 PUSH2 0x3B00 DUP6 PUSH2 0x3AFA DUP6 DUP8 PUSH2 0x387C JUMP JUMPDEST MLOAD PUSH2 0x399A JUMP JUMPDEST PUSH2 0x39AD JUMP JUMPDEST SWAP1 PUSH2 0x16A SWAP2 DUP3 SLOAD PUSH9 0x10000000000000000 DUP2 LT ISZERO PUSH2 0x32FC JUMPI PUSH2 0x2237 DUP2 PUSH1 0x1 SWAP6 DUP7 PUSH2 0x3B31 SWAP5 ADD DUP2 SSTORE PUSH2 0x320F JUMP JUMPDEST SWAP1 SSTORE ADD PUSH2 0x3ADA JUMP JUMPDEST SWAP1 SWAP3 PUSH2 0x3B75 PUSH1 0x1 SWAP2 PUSH2 0x3B4A DUP7 PUSH2 0x3BB7 JUMP JUMPDEST PUSH2 0x3B54 DUP8 DUP8 PUSH2 0x387C JUMP JUMPDEST MSTORE PUSH2 0x3905 PUSH2 0x3B62 DUP8 DUP7 PUSH2 0x32C1 JUMP JUMPDEST POP SLOAD PUSH2 0x3B6E DUP9 DUP9 PUSH2 0x387C JUMP JUMPDEST MLOAD SWAP1 PUSH2 0x5D76 JUMP JUMPDEST SWAP4 ADD SWAP1 PUSH2 0x3ACF JUMP JUMPDEST PUSH1 0x1 PUSH1 0x1 PUSH1 0xA0 SHL SUB AND PUSH0 SWAP1 DUP2 MSTORE PUSH2 0x168 PUSH1 0x20 MSTORE PUSH1 0x40 SWAP1 KECCAK256 PUSH1 0x1 DUP2 ADD SLOAD PUSH1 0xFF AND ISZERO PUSH2 0x3BA5 JUMPI SLOAD SWAP1 JUMP JUMPDEST PUSH1 0x40 MLOAD PUSH4 0xE6C4247B PUSH1 0xE0 SHL DUP2 MSTORE PUSH1 0x4 SWAP1 REVERT JUMPDEST PUSH2 0x3BC3 SWAP1 PUSH2 0x169 PUSH2 0x32C1 JUMP JUMPDEST POP PUSH1 0x1 ADD SLOAD PUSH1 0x1 PUSH1 0x1 PUSH1 0xA0 SHL SUB AND PUSH2 0x3BDA DUP2 PUSH2 0x3C25 JUMP JUMPDEST SWAP2 SWAP1 SWAP2 ISZERO PUSH2 0x3BE6 JUMPI POP SWAP1 JUMP JUMPDEST PUSH1 0x24 SWAP1 PUSH1 0x40 MLOAD SWAP1 PUSH4 0x7F6E4DB9 PUSH1 0xE0 SHL DUP3 MSTORE PUSH1 0x4 DUP3 ADD MSTORE REVERT JUMPDEST MLOAD SWAP1 DUP2 ISZERO ISZERO DUP3 SUB PUSH2 0x7AA JUMPI JUMP JUMPDEST SWAP2 SWAP1 DUP3 PUSH1 0x40 SWAP2 SUB SLT PUSH2 0x7AA JUMPI PUSH2 0x3285 PUSH1 0x20 DUP4 MLOAD SWAP4 ADD PUSH2 0x3BFE JUMP JUMPDEST PUSH1 0x40 DUP1 MLOAD PUSH4 0x59E02DD7 PUSH1 0xE0 SHL DUP2 MSTORE SWAP3 SWAP2 DUP4 SWAP1 PUSH1 0x4 SWAP1 DUP3 SWAP1 PUSH1 0x1 PUSH1 0x1 PUSH1 0xA0 SHL SUB AND GAS STATICCALL SWAP2 DUP3 ISZERO PUSH2 0x3C8A JUMPI PUSH0 SWAP1 DUP2 SWAP4 PUSH2 0x3C5B JUMPI POP SWAP2 SWAP1 JUMP JUMPDEST SWAP1 POP PUSH2 0x3C7F SWAP2 SWAP3 POP PUSH1 0x40 RETURNDATASIZE DUP2 GT PUSH2 0x3C83 JUMPI JUMPDEST PUSH2 0x3C77 DUP2 DUP4 PUSH2 0x32DA JUMP JUMPDEST DUP2 ADD SWAP1 PUSH2 0x3C0B JUMP JUMPDEST SWAP1 SWAP2 JUMP JUMPDEST POP RETURNDATASIZE PUSH2 0x3C6D JUMP JUMPDEST PUSH1 0x40 MLOAD RETURNDATASIZE PUSH0 DUP3 RETURNDATACOPY RETURNDATASIZE SWAP1 REVERT JUMPDEST PUSH2 0x169 SLOAD SWAP1 PUSH2 0x3CA3 DUP3 PUSH2 0x3A7D JUMP JUMPDEST SWAP2 PUSH0 JUMPDEST DUP2 DUP2 LT PUSH2 0x3CB1 JUMPI POP POP JUMP JUMPDEST DUP1 PUSH2 0x3CBD PUSH1 0x1 SWAP3 PUSH2 0x3BB7 JUMP JUMPDEST PUSH2 0x3CC7 DUP3 DUP8 PUSH2 0x387C JUMP JUMPDEST MSTORE ADD PUSH2 0x3CA6 JUMP JUMPDEST SWAP1 PUSH2 0x3CEF PUSH8 0xDE0B6B3A7640000 SWAP3 DUP4 PUSH2 0x187 SLOAD PUSH2 0x184 SLOAD SWAP3 NUMBER ADD SUB MUL PUSH2 0x39AD JUMP JUMPDEST DUP3 DUP2 LT ISZERO PUSH2 0x3D0C JUMPI DUP3 SUB SWAP2 DUP1 DUP4 PUSH2 0x185 SLOAD MUL DIV SWAP3 PUSH2 0x186 SLOAD MUL SDIV SWAP1 JUMP JUMPDEST POP PUSH0 SWAP2 POP DUP2 SWAP1 JUMP JUMPDEST SWAP1 SWAP2 PUSH2 0x3D1E PUSH2 0x3D74 JUMP JUMPDEST SWAP3 SWAP1 DUP1 DUP3 LT ISZERO PUSH2 0x3D6B JUMPI DUP4 SWAP2 PUSH2 0x3D33 SWAP2 PUSH2 0x3A58 JUMP JUMPDEST SWAP4 GT ISZERO PUSH2 0x3D66 JUMPI DUP2 DUP2 LT ISZERO PUSH2 0x3D5F JUMPI PUSH2 0x3D4B SWAP2 PUSH2 0x3A58 JUMP JUMPDEST PUSH1 0x1 SHR DUP1 DUP3 LT ISZERO PUSH2 0x3D5A JUMPI POP SWAP1 JUMP JUMPDEST SWAP1 POP SWAP1 JUMP JUMPDEST POP POP POP PUSH0 SWAP1 JUMP JUMPDEST POP POP SWAP1 JUMP JUMPDEST POP POP POP POP POP PUSH0 SWAP1 JUMP JUMPDEST PUSH2 0x182 SLOAD PUSH1 0x40 DUP1 MLOAD PUSH4 0x59E02DD7 PUSH1 0xE0 SHL DUP1 DUP3 MSTORE SWAP4 SWAP3 SWAP1 SWAP2 SWAP1 PUSH1 0x1 PUSH1 0x1 PUSH1 0xA0 SHL SUB SWAP1 DUP2 AND DUP3 DUP5 PUSH1 0x4 DUP2 DUP5 GAS STATICCALL DUP1 ISZERO PUSH2 0x3E61 JUMPI PUSH0 SWAP5 DUP6 SWAP2 PUSH2 0x3E3E JUMPI JUMPDEST POP ISZERO PUSH2 0x3E27 JUMPI POP PUSH2 0x183 SLOAD AND SWAP1 DUP1 MLOAD SWAP5 DUP6 MSTORE DUP1 DUP6 PUSH1 0x4 DUP2 DUP6 GAS STATICCALL DUP1 ISZERO PUSH2 0x3E1D JUMPI PUSH0 SWAP6 DUP7 SWAP2 PUSH2 0x3DFA JUMPI JUMPDEST POP ISZERO PUSH2 0x3DE3 JUMPI POP POP SWAP2 SWAP1 JUMP JUMPDEST PUSH1 0x24 SWAP3 POP MLOAD SWAP1 PUSH4 0x5E89893 PUSH1 0xE1 SHL DUP3 MSTORE PUSH1 0x4 DUP3 ADD MSTORE REVERT JUMPDEST SWAP1 POP DUP2 PUSH2 0x3E14 SWAP3 SWAP7 POP RETURNDATASIZE DUP8 GT PUSH2 0x3C83 JUMPI PUSH2 0x3C77 DUP2 DUP4 PUSH2 0x32DA JUMP JUMPDEST SWAP5 SWAP1 SWAP5 PUSH0 PUSH2 0x3DD7 JUMP JUMPDEST POP MLOAD RETURNDATASIZE PUSH0 DUP3 RETURNDATACOPY RETURNDATASIZE SWAP1 REVERT JUMPDEST PUSH1 0x24 SWAP1 DUP4 MLOAD SWAP1 PUSH4 0x5E89893 PUSH1 0xE1 SHL DUP3 MSTORE PUSH1 0x4 DUP3 ADD MSTORE REVERT JUMPDEST SWAP1 POP PUSH2 0x3E58 SWAP2 SWAP5 POP DUP4 RETURNDATASIZE DUP6 GT PUSH2 0x3C83 JUMPI PUSH2 0x3C77 DUP2 DUP4 PUSH2 0x32DA JUMP JUMPDEST SWAP4 SWAP1 SWAP4 PUSH0 PUSH2 0x3DAE JUMP JUMPDEST DUP4 MLOAD RETURNDATASIZE PUSH0 DUP3 RETURNDATACOPY RETURNDATASIZE SWAP1 REVERT JUMPDEST ISZERO PUSH2 0x3E72 JUMPI JUMP JUMPDEST PUSH1 0x40 MLOAD PUSH3 0x461BCD PUSH1 0xE5 SHL DUP2 MSTORE PUSH1 0x20 PUSH1 0x4 DUP3 ADD MSTORE PUSH1 0x2B PUSH1 0x24 DUP3 ADD MSTORE PUSH32 0x496E697469616C697A61626C653A20636F6E7472616374206973206E6F742069 PUSH1 0x44 DUP3 ADD MSTORE PUSH11 0x6E697469616C697A696E67 PUSH1 0xA8 SHL PUSH1 0x64 DUP3 ADD MSTORE PUSH1 0x84 SWAP1 REVERT JUMPDEST PUSH1 0x40 MLOAD SWAP1 PUSH2 0x3EDA PUSH1 0x80 DUP4 PUSH2 0x32DA JUMP JUMPDEST PUSH0 PUSH1 0x60 DUP4 DUP3 DUP2 MSTORE DUP3 PUSH1 0x20 DUP3 ADD MSTORE DUP3 PUSH1 0x40 DUP3 ADD MSTORE ADD MSTORE JUMP JUMPDEST PUSH2 0x3F77 SWAP2 PUSH2 0x3EFD PUSH2 0x3ECB JUMP JUMPDEST POP PUSH2 0x3F06 PUSH2 0x41BD JUMP JUMPDEST PUSH2 0x3F0E PUSH2 0x5D55 JUMP JUMPDEST PUSH8 0xDE0B6B3A7640000 PUSH2 0x3F40 PUSH2 0x3F3A PUSH2 0x3F31 PUSH2 0x3F28 PUSH2 0x3C95 JUMP JUMPDEST PUSH2 0x17B SLOAD PUSH2 0x41DF JUMP JUMPDEST DUP7 MLOAD SWAP3 SWAP2 PUSH2 0x4222 JUMP JUMPDEST SWAP1 PUSH2 0x399A JUMP JUMPDEST DIV SWAP2 PUSH1 0x40 DUP2 ADD SWAP3 PUSH2 0x3F6C PUSH1 0x1 DUP1 PUSH1 0xA0 SHL SUB DUP6 MLOAD AND DUP3 PUSH1 0x1 DUP1 PUSH1 0xA0 SHL SUB PUSH1 0x80 DUP7 ADD MLOAD AND PUSH2 0x16E SLOAD SWAP3 PUSH2 0x4256 JUMP JUMPDEST SWAP6 SWAP2 DUP4 SWAP8 SWAP2 SWAP8 PUSH2 0x385B JUMP JUMPDEST SWAP3 PUSH1 0x20 DUP2 ADD SWAP3 DUP4 MLOAD DUP1 DUP7 GT PUSH2 0x419F JUMPI POP DUP5 ISZERO PUSH2 0x418D JUMPI DUP7 PUSH2 0x4072 SWAP5 PUSH1 0x1 DUP1 PUSH1 0xA0 SHL SUB DUP6 MLOAD AND PUSH1 0x1 DUP1 PUSH1 0xA0 SHL SUB PUSH1 0x60 DUP7 ADD MLOAD AND SWAP1 PUSH32 0xA02482A2126FA394339A603E5B911CBB1BFC18EA48CD9C0896F81D083EFF450F DUP10 DUP8 MLOAD PUSH2 0x4000 DUP8 MLOAD PUSH1 0x20 DUP10 ADD MLOAD PUSH1 0x60 PUSH1 0x40 DUP12 ADD MLOAD SWAP11 ADD SWAP10 DUP11 MLOAD SWAP2 DUP14 PUSH1 0x80 PUSH1 0x1 DUP1 PUSH1 0xA0 SHL SUB SWAP2 ADD MLOAD AND SWAP4 PUSH1 0x40 MLOAD SWAP8 DUP9 SWAP8 DUP9 PUSH2 0x566C JUMP JUMPDEST SUB SWAP1 LOG3 PUSH1 0x20 DUP5 MLOAD PUSH1 0x1 DUP1 PUSH1 0xA0 SHL SUB PUSH1 0x60 DUP8 ADD MLOAD AND PUSH2 0x166 PUSH2 0x4022 DUP4 DUP3 SLOAD PUSH2 0x385B JUMP JUMPDEST SWAP1 SSTORE PUSH2 0x4032 PUSH2 0x163 SWAP7 DUP8 SLOAD PUSH2 0x385B JUMP JUMPDEST DUP7 SSTORE PUSH2 0x165 SLOAD PUSH1 0x40 MLOAD PUSH4 0x40C10F19 PUSH1 0xE0 SHL DUP2 MSTORE PUSH1 0x1 PUSH1 0x1 PUSH1 0xA0 SHL SUB SWAP3 DUP4 AND PUSH1 0x4 DUP3 ADD MSTORE PUSH1 0x24 DUP2 ADD SWAP4 SWAP1 SWAP4 MSTORE SWAP2 SWAP9 DUP10 SWAP3 SWAP1 SWAP2 AND SWAP1 DUP3 SWAP1 PUSH0 SWAP1 DUP3 SWAP1 PUSH1 0x44 DUP3 ADD SWAP1 JUMP JUMPDEST SUB SWAP3 GAS CALL SWAP6 DUP7 ISZERO PUSH2 0x3C8A JUMPI DUP8 SWAP7 PUSH2 0x4148 JUMPI JUMPDEST POP PUSH2 0x4114 SWAP6 PUSH2 0x4093 SWAP2 MLOAD PUSH2 0x3A58 JUMP JUMPDEST SWAP4 MLOAD PUSH1 0x80 SWAP1 SWAP4 ADD MLOAD PUSH1 0x1 PUSH1 0x1 PUSH1 0xA0 SHL SUB SWAP4 DUP5 AND SWAP4 AND SWAP1 PUSH2 0x40B1 PUSH2 0x5117 JUMP JUMPDEST DUP9 MLOAD ISZERO PUSH2 0x411F JUMPI POP PUSH2 0x4104 PUSH2 0x410F SWAP3 PUSH8 0xDE0B6B3A7640000 PUSH2 0x40D8 PUSH2 0x16D SLOAD DUP13 MLOAD SWAP1 PUSH2 0x399A JUMP JUMPDEST DIV SWAP1 PUSH2 0x40E5 DUP3 DUP3 SLOAD PUSH2 0x385B JUMP JUMPDEST SWAP1 SSTORE PUSH2 0x40FE PUSH1 0x1 DUP1 PUSH1 0xA0 SHL SUB PUSH2 0x178 SLOAD AND SWAP2 DUP12 MLOAD PUSH2 0x3A58 JUMP JUMPDEST SWAP1 PUSH2 0x516E JUMP JUMPDEST PUSH1 0x40 DUP9 ADD MLOAD SWAP1 PUSH2 0x516E JUMP JUMPDEST PUSH2 0x516E JUMP JUMPDEST PUSH1 0x1 PUSH2 0x12F SSTORE SWAP3 SWAP2 SWAP1 JUMP JUMPDEST PUSH2 0x178 SLOAD PUSH1 0x20 DUP11 ADD MLOAD PUSH2 0x410F SWAP5 POP PUSH2 0x4140 SWAP2 PUSH1 0x1 PUSH1 0x1 PUSH1 0xA0 SHL SUB AND DUP7 PUSH2 0x51B0 JUMP JUMPDEST MLOAD SWAP1 DUP4 PUSH2 0x51B0 JUMP JUMPDEST SWAP6 POP PUSH1 0x20 DUP7 RETURNDATASIZE PUSH1 0x20 GT PUSH2 0x4185 JUMPI JUMPDEST DUP2 PUSH2 0x4163 PUSH1 0x20 SWAP4 DUP4 PUSH2 0x32DA JUMP JUMPDEST DUP2 ADD SUB SLT PUSH2 0x7AA JUMPI DUP7 PUSH2 0x4093 SWAP2 PUSH2 0x417C PUSH2 0x4114 SWAP9 PUSH2 0x3BFE JUMP JUMPDEST POP SWAP2 POP SWAP6 PUSH2 0x4084 JUMP JUMPDEST RETURNDATASIZE SWAP2 POP PUSH2 0x4156 JUMP JUMPDEST PUSH1 0x40 MLOAD PUSH4 0xF3E39B5D PUSH1 0xE0 SHL DUP2 MSTORE PUSH1 0x4 SWAP1 REVERT JUMPDEST PUSH1 0x44 SWAP1 DUP7 PUSH1 0x40 MLOAD SWAP2 PUSH4 0xB63F1A7 PUSH1 0xE0 SHL DUP4 MSTORE PUSH1 0x4 DUP4 ADD MSTORE PUSH1 0x24 DUP3 ADD MSTORE REVERT JUMPDEST PUSH1 0xFF PUSH2 0x17D SLOAD PUSH1 0x8 SHR AND PUSH2 0x41CD JUMPI JUMP JUMPDEST PUSH1 0x40 MLOAD PUSH4 0x1CA61D77 PUSH1 0xE0 SHL DUP2 MSTORE PUSH1 0x4 SWAP1 REVERT JUMPDEST SWAP2 SWAP1 PUSH2 0x41EA SWAP1 PUSH2 0x3890 JUMP JUMPDEST SWAP2 SWAP1 SWAP3 PUSH2 0x41F7 DUP4 DUP6 PUSH2 0x3A3B JUMP JUMPDEST SWAP1 DUP1 DUP3 GT ISZERO PUSH2 0x4204 JUMPI POP POP JUMP JUMPDEST PUSH1 0x44 SWAP3 POP PUSH1 0x40 MLOAD SWAP2 PUSH4 0x79121201 PUSH1 0xE0 SHL DUP4 MSTORE PUSH1 0x4 DUP4 ADD MSTORE PUSH1 0x24 DUP3 ADD MSTORE REVERT JUMPDEST SWAP1 PUSH2 0x166 SLOAD SWAP1 DUP2 ISZERO PUSH2 0x4247 JUMPI PUSH2 0x3285 SWAP3 PUSH2 0x4242 PUSH2 0x3900 SWAP3 PUSH2 0x163 SLOAD PUSH2 0x3A58 JUMP JUMPDEST PUSH2 0x3A58 JUMP JUMPDEST POP POP POP PUSH8 0xDE0B6B3A7640000 SWAP1 JUMP JUMPDEST SWAP3 SWAP1 SWAP4 SWAP2 PUSH0 SWAP2 PUSH0 SWAP2 DUP3 SWAP7 PUSH2 0x4268 PUSH2 0x3ECB JUMP JUMPDEST SWAP7 PUSH1 0x1 PUSH1 0x1 PUSH1 0xA0 SHL SUB SWAP2 DUP6 SWAP1 DUP4 AND DUP1 PUSH2 0x4474 JUMPI JUMPDEST POP DUP3 PUSH2 0x161 SLOAD AND DUP4 PUSH1 0x40 MLOAD SWAP4 PUSH4 0x6EB1769F PUSH1 0xE1 SHL DUP6 MSTORE AND DUP1 PUSH1 0x4 DUP6 ADD MSTORE ADDRESS PUSH1 0x24 DUP6 ADD MSTORE PUSH1 0x20 SWAP5 DUP6 DUP6 PUSH1 0x44 DUP2 DUP7 GAS STATICCALL SWAP5 DUP6 ISZERO PUSH2 0x4469 JUMPI DUP5 SWAP6 PUSH2 0x443A JUMPI JUMPDEST POP DUP5 PUSH2 0x4319 JUMPI JUMPDEST POP POP POP POP POP DUP7 ADD MLOAD ISZERO PUSH2 0x42D5 JUMPI JUMPDEST POP POP POP SWAP3 SWAP2 SWAP1 JUMP JUMPDEST SWAP1 SWAP2 SWAP3 POP PUSH2 0x42ED PUSH8 0xDE0B6B3A7640000 SWAP3 DUP4 SWAP3 PUSH2 0x399A JUMP JUMPDEST DIV DUP1 DUP6 MSTORE SWAP1 DUP3 ISZERO PUSH2 0x4311 JUMPI PUSH2 0x4309 SWAP3 DIV SWAP1 DUP2 PUSH1 0x40 DUP7 ADD MSTORE PUSH2 0x385B JUMP JUMPDEST PUSH0 DUP1 DUP1 PUSH2 0x42CD JUMP JUMPDEST POP SWAP1 POP PUSH2 0x4309 JUMP JUMPDEST PUSH2 0x4327 SWAP1 PUSH2 0x162 SLOAD AND PUSH2 0x3C25 JUMP JUMPDEST SWAP3 SWAP1 SWAP3 ISZERO PUSH2 0x42BF JUMPI SWAP1 SWAP2 SWAP3 SWAP4 SWAP12 POP DUP5 DUP12 PUSH2 0x4361 DUP6 PUSH8 0xDE0B6B3A7640000 PUSH2 0x435B PUSH2 0x4351 DUP14 DUP14 PUSH2 0x399A JUMP JUMPDEST PUSH2 0x175 SLOAD SWAP1 PUSH2 0x399A JUMP JUMPDEST DIV PUSH2 0x39AD JUMP JUMPDEST DUP2 DUP4 ADD DUP2 DUP2 MSTORE SWAP6 SWAP1 DUP12 ISZERO PUSH2 0x4430 JUMPI POP PUSH2 0x438C SWAP2 PUSH2 0x4380 PUSH1 0x60 SWAP3 DUP14 PUSH2 0x39AD JUMP JUMPDEST SWAP2 DUP3 SWAP2 ADD MSTORE DUP6 MLOAD PUSH2 0x385B JUMP JUMPDEST DUP1 SWAP14 JUMPDEST LT SWAP3 DUP4 ISZERO PUSH2 0x43BB JUMPI JUMPDEST POP POP POP PUSH2 0x43A8 JUMPI JUMPDEST DUP1 DUP1 DUP1 PUSH2 0x42BF JUMP JUMPDEST DUP2 SWAP3 SWAP10 POP MSTORE DUP1 PUSH1 0x60 DUP9 ADD MSTORE SWAP7 PUSH0 DUP1 PUSH2 0x43A0 JUMP JUMPDEST SWAP1 SWAP2 SWAP3 POP PUSH1 0x24 PUSH1 0x40 MLOAD DUP1 SWAP5 DUP2 SWAP4 PUSH4 0x70A08231 PUSH1 0xE0 SHL DUP4 MSTORE PUSH1 0x4 DUP4 ADD MSTORE GAS STATICCALL SWAP1 DUP2 ISZERO PUSH2 0x4425 JUMPI SWAP1 DUP12 SWAP2 DUP5 SWAP2 PUSH2 0x43F4 JUMPI JUMPDEST POP LT PUSH0 DUP5 DUP2 PUSH2 0x4398 JUMP JUMPDEST DUP1 SWAP3 POP DUP6 DUP1 SWAP3 POP RETURNDATASIZE DUP4 GT PUSH2 0x441E JUMPI JUMPDEST PUSH2 0x440D DUP2 DUP4 PUSH2 0x32DA JUMP JUMPDEST DUP2 ADD SUB SLT PUSH2 0x736 JUMPI DUP11 SWAP1 MLOAD PUSH0 PUSH2 0x43EA JUMP JUMPDEST POP RETURNDATASIZE PUSH2 0x4403 JUMP JUMPDEST PUSH1 0x40 MLOAD RETURNDATASIZE DUP6 DUP3 RETURNDATACOPY RETURNDATASIZE SWAP1 REVERT JUMPDEST SWAP2 POP POP DUP1 SWAP14 PUSH2 0x438F JUMP JUMPDEST SWAP1 SWAP5 POP DUP6 DUP2 DUP2 RETURNDATASIZE DUP4 GT PUSH2 0x4462 JUMPI JUMPDEST PUSH2 0x4452 DUP2 DUP4 PUSH2 0x32DA JUMP JUMPDEST DUP2 ADD SUB SLT PUSH2 0xAB7 JUMPI MLOAD SWAP4 PUSH0 PUSH2 0x42B8 JUMP JUMPDEST POP RETURNDATASIZE PUSH2 0x4448 JUMP JUMPDEST PUSH1 0x40 MLOAD RETURNDATASIZE DUP7 DUP3 RETURNDATACOPY RETURNDATASIZE SWAP1 REVERT JUMPDEST SWAP1 SWAP6 POP PUSH1 0x20 DUP4 PUSH2 0x1F3 SLOAD AND SWAP2 PUSH1 0x24 PUSH1 0x40 MLOAD DUP1 SWAP5 DUP2 SWAP4 PUSH4 0x64A731E9 PUSH1 0xE0 SHL DUP4 MSTORE PUSH1 0x4 DUP4 ADD MSTORE GAS STATICCALL DUP1 ISZERO PUSH2 0x44EC JUMPI DUP7 SWAP1 PUSH2 0x44B9 JUMPI JUMPDEST PUSH2 0x44B2 SWAP2 POP DUP5 PUSH2 0x399A JUMP JUMPDEST SWAP5 PUSH0 PUSH2 0x427C JUMP JUMPDEST POP PUSH1 0x20 DUP2 RETURNDATASIZE DUP3 GT PUSH2 0x44E4 JUMPI JUMPDEST DUP2 PUSH2 0x44D2 PUSH1 0x20 SWAP4 DUP4 PUSH2 0x32DA JUMP JUMPDEST DUP2 ADD SUB SLT PUSH2 0x25D6 JUMPI PUSH2 0x44B2 SWAP1 MLOAD PUSH2 0x44A7 JUMP JUMPDEST RETURNDATASIZE SWAP2 POP PUSH2 0x44C5 JUMP JUMPDEST PUSH1 0x40 MLOAD RETURNDATASIZE DUP9 DUP3 RETURNDATACOPY RETURNDATASIZE SWAP1 REVERT JUMPDEST PUSH2 0x44FF PUSH2 0x3ECB JUMP JUMPDEST POP PUSH2 0x4508 PUSH2 0x41BD JUMP JUMPDEST PUSH2 0x4510 PUSH2 0x5D55 JUMP JUMPDEST PUSH2 0x4518 PUSH2 0x5C35 JUMP JUMPDEST PUSH2 0x4520 PUSH2 0x5B73 JUMP JUMPDEST DUP3 MLOAD SWAP1 SWAP4 SWAP2 SWAP1 PUSH2 0x4538 SWAP1 PUSH1 0x1 PUSH1 0x1 PUSH1 0xA0 SHL SUB AND PUSH2 0x3B7D JUMP JUMPDEST SWAP1 PUSH2 0x4573 PUSH2 0x455B PUSH2 0x4549 DUP5 DUP9 PUSH2 0x387C JUMP JUMPDEST MLOAD SWAP7 PUSH2 0x4555 DUP9 DUP7 PUSH2 0x482B JUMP JUMPDEST DUP4 PUSH2 0x41DF JUMP JUMPDEST SWAP1 DUP8 PUSH1 0x20 DUP9 ADD MLOAD SWAP5 PUSH2 0x456D DUP3 DUP9 PUSH2 0x5AD0 JUMP JUMPDEST SWAP1 PUSH2 0x487F JUMP JUMPDEST DUP2 DUP2 LT PUSH2 0x4744 JUMPI POP POP PUSH2 0x458D PUSH2 0x45D3 SWAP5 PUSH1 0x20 DUP6 ADD MLOAD PUSH2 0x5D76 JUMP JUMPDEST PUSH1 0x60 DUP5 ADD MLOAD PUSH1 0xA0 DUP6 ADD MLOAD DUP6 MLOAD PUSH1 0x1 PUSH1 0x1 PUSH1 0xA0 SHL SUB SWAP1 DUP2 AND PUSH0 SWAP1 DUP2 MSTORE PUSH2 0x176 PUSH1 0x20 MSTORE PUSH1 0x40 SWAP1 KECCAK256 SLOAD SWAP4 SWAP5 SWAP4 PUSH2 0x45C8 SWAP4 SWAP1 SWAP3 DUP7 SWAP3 SWAP1 DUP2 AND SWAP2 AND PUSH2 0x4256 JUMP JUMPDEST SWAP6 SWAP2 DUP5 SWAP8 SWAP2 SWAP8 PUSH2 0x385B JUMP JUMPDEST SWAP3 PUSH1 0x40 DUP3 ADD MLOAD DUP1 DUP6 GT PUSH2 0x4726 JUMPI POP DUP4 ISZERO PUSH2 0x418D JUMPI PUSH2 0x4114 SWAP3 PUSH2 0x4693 SWAP2 PUSH1 0x1 DUP1 PUSH1 0xA0 SHL SUB DUP5 MLOAD AND PUSH1 0x1 DUP1 PUSH1 0xA0 SHL SUB PUSH1 0x60 DUP7 ADD MLOAD AND PUSH1 0x1 DUP1 PUSH1 0xA0 SHL SUB PUSH1 0x80 DUP8 ADD MLOAD AND SWAP2 PUSH32 0xBCF2DD35A7B66D878322508590F8C0F2E1042F2101DC031278E3819A304ACE61 DUP10 DUP13 PUSH2 0x466D PUSH1 0x20 DUP12 ADD MLOAD SWAP2 DUP12 DUP2 MLOAD SWAP2 PUSH1 0x20 DUP2 ADD MLOAD PUSH1 0x60 PUSH1 0x40 DUP4 ADD MLOAD SWAP3 ADD MLOAD SWAP3 PUSH1 0xA0 PUSH1 0x1 DUP1 DUP3 SHL SUB SWAP2 ADD MLOAD AND SWAP4 PUSH1 0x40 MLOAD SWAP8 DUP9 SWAP8 DUP9 PUSH2 0x566C JUMP JUMPDEST SUB SWAP1 LOG4 PUSH2 0x467A PUSH0 DUP3 PUSH2 0x499E JUMP JUMPDEST PUSH1 0x20 DUP5 ADD MLOAD PUSH1 0x80 DUP6 ADD MLOAD PUSH1 0x1 PUSH1 0x1 PUSH1 0xA0 SHL SUB AND SWAP3 PUSH2 0x4762 JUMP JUMPDEST PUSH2 0x46A1 DUP4 PUSH1 0x40 DUP4 ADD MLOAD PUSH2 0x3A58 JUMP JUMPDEST PUSH1 0x60 DUP3 ADD MLOAD PUSH1 0xA0 SWAP1 SWAP3 ADD MLOAD SWAP1 SWAP2 PUSH1 0x1 PUSH1 0x1 PUSH1 0xA0 SHL SUB SWAP1 DUP2 AND SWAP2 AND PUSH2 0x46C3 PUSH2 0x5117 JUMP JUMPDEST DUP7 MLOAD ISZERO PUSH2 0x46F8 JUMPI PUSH2 0x410F SWAP1 PUSH2 0x4104 PUSH8 0xDE0B6B3A7640000 PUSH2 0x46E9 PUSH2 0x16D SLOAD DUP12 MLOAD SWAP1 PUSH2 0x399A JUMP JUMPDEST DIV PUSH2 0x163 PUSH2 0x40E5 DUP3 DUP3 SLOAD PUSH2 0x385B JUMP JUMPDEST PUSH2 0x178 SLOAD PUSH1 0x20 DUP9 ADD MLOAD PUSH2 0x410F SWAP3 SWAP2 PUSH2 0x471A SWAP2 SWAP1 PUSH1 0x1 PUSH1 0x1 PUSH1 0xA0 SHL SUB AND DUP6 PUSH2 0x51B0 JUMP JUMPDEST PUSH1 0x60 DUP9 ADD MLOAD SWAP1 DUP4 PUSH2 0x51B0 JUMP JUMPDEST PUSH1 0x44 SWAP1 DUP6 PUSH1 0x40 MLOAD SWAP2 PUSH4 0xB63F1A7 PUSH1 0xE0 SHL DUP4 MSTORE PUSH1 0x4 DUP4 ADD MSTORE PUSH1 0x24 DUP3 ADD MSTORE REVERT JUMPDEST PUSH1 0x44 SWAP3 POP PUSH1 0x40 MLOAD SWAP2 PUSH4 0xC39B739F PUSH1 0xE0 SHL DUP4 MSTORE PUSH1 0x4 DUP4 ADD MSTORE PUSH1 0x24 DUP3 ADD MSTORE REVERT JUMPDEST PUSH2 0x47D9 SWAP4 PUSH2 0x47A0 PUSH0 SWAP3 PUSH1 0x20 SWAP6 PUSH2 0x477A DUP3 PUSH2 0x169 PUSH2 0x32C1 JUMP JUMPDEST POP PUSH2 0x4786 DUP8 DUP3 SLOAD PUSH2 0x385B JUMP JUMPDEST SWAP1 SSTORE PUSH2 0x4796 PUSH2 0x163 SWAP2 DUP3 SLOAD PUSH2 0x385B JUMP JUMPDEST SWAP1 SSTORE PUSH2 0x167 PUSH2 0x320F JUMP JUMPDEST SWAP1 SLOAD PUSH1 0x40 MLOAD PUSH4 0x40C10F19 PUSH1 0xE0 SHL DUP2 MSTORE PUSH1 0x1 PUSH1 0x1 PUSH1 0xA0 SHL SUB SWAP1 SWAP4 AND PUSH1 0x4 DUP5 ADD MSTORE PUSH1 0x24 DUP4 ADD SWAP5 SWAP1 SWAP5 MSTORE SWAP1 SWAP5 DUP6 SWAP4 SWAP3 DUP5 SWAP3 SWAP1 SWAP2 DUP4 SWAP1 PUSH1 0x44 DUP3 ADD SWAP1 JUMP JUMPDEST SUB SWAP4 PUSH1 0x3 SWAP2 SWAP1 SWAP2 SHL SHR PUSH1 0x1 PUSH1 0x1 PUSH1 0xA0 SHL SUB AND GAS CALL DUP1 ISZERO PUSH2 0x3C8A JUMPI PUSH2 0x47FA JUMPI POP JUMP JUMPDEST PUSH1 0x20 DUP2 RETURNDATASIZE DUP3 GT PUSH2 0x4823 JUMPI JUMPDEST DUP2 PUSH2 0x4812 PUSH1 0x20 SWAP4 DUP4 PUSH2 0x32DA JUMP JUMPDEST DUP2 ADD SUB SLT PUSH2 0x7AA JUMPI PUSH2 0x35D3 SWAP1 PUSH2 0x3BFE JUMP JUMPDEST RETURNDATASIZE SWAP2 POP PUSH2 0x4805 JUMP JUMPDEST PUSH2 0x2237 PUSH2 0x487B SWAP2 PUSH2 0x483C DUP5 DUP3 PUSH2 0x39E3 JUMP JUMPDEST PUSH2 0x4871 PUSH2 0x484B DUP4 PUSH2 0x180 PUSH2 0x320F JUMP JUMPDEST PUSH2 0x485E DUP3 SWAP5 SWAP3 SLOAD SWAP3 DUP4 DUP4 PUSH1 0x3 SHL SHR PUSH2 0x391B JUMP JUMPDEST SWAP2 SWAP1 PUSH1 0x3 SHL SWAP2 DUP3 SHL SWAP2 PUSH0 NOT SWAP1 SHL NOT AND OR SWAP1 JUMP JUMPDEST SWAP1 SSTORE PUSH2 0x181 PUSH2 0x320F JUMP JUMPDEST SWAP1 SSTORE JUMP JUMPDEST SWAP2 DUP4 DUP6 SWAP2 PUSH2 0x488D SWAP4 DUP6 PUSH2 0x48D7 JUMP JUMPDEST SWAP3 PUSH0 DUP5 SLT SWAP3 DUP4 ISZERO PUSH2 0x48A8 JUMPI JUMPDEST POP POP POP PUSH2 0x48A3 JUMPI SWAP1 JUMP JUMPDEST POP PUSH0 SWAP1 JUMP JUMPDEST PUSH2 0x48B3 SWAP3 SWAP4 POP PUSH2 0x3A3B JUMP JUMPDEST GT ISZERO PUSH0 DUP1 DUP1 PUSH2 0x4899 JUMP JUMPDEST DUP2 ISZERO PUSH2 0x39B7 JUMPI PUSH1 0x1 PUSH1 0xFF SHL DUP2 EQ PUSH0 NOT DUP4 EQ AND PUSH2 0x3868 JUMPI SDIV SWAP1 JUMP JUMPDEST SWAP3 PUSH2 0x48E5 SWAP3 SWAP6 SWAP5 SWAP2 SWAP4 PUSH2 0x4967 JUMP JUMPDEST PUSH0 SWAP4 DUP2 DUP2 MUL SWAP2 SWAP1 DUP6 DUP3 SLT PUSH1 0x1 PUSH1 0xFF SHL DUP3 EQ AND PUSH2 0x4953 JUMPI DUP2 DUP4 SDIV EQ SWAP1 ISZERO OR ISZERO PUSH2 0x493F JUMPI PUSH8 0xDE0B6B3A763FFFF NOT DUP3 ADD SWAP2 DUP3 GT PUSH2 0x493F JUMPI PUSH8 0xDE0B6B3A7640000 SWAP2 DUP3 DUP2 MUL SWAP3 DUP2 DUP5 DIV EQ SWAP1 ISZERO OR ISZERO PUSH2 0x493F JUMPI PUSH2 0x3285 SWAP3 SWAP4 POP PUSH2 0x48BD JUMP JUMPDEST PUSH4 0x4E487B71 PUSH1 0xE0 SHL DUP5 MSTORE PUSH1 0x11 PUSH1 0x4 MSTORE PUSH1 0x24 DUP5 REVERT JUMPDEST PUSH4 0x4E487B71 PUSH1 0xE0 SHL DUP7 MSTORE PUSH1 0x11 PUSH1 0x4 MSTORE PUSH1 0x24 DUP7 REVERT JUMPDEST SWAP1 SWAP2 PUSH2 0x4976 SWAP1 PUSH2 0x163 SLOAD PUSH2 0x3A58 JUMP JUMPDEST SWAP1 PUSH8 0xDE0B6B3A7640000 SWAP2 DUP3 DUP2 MUL SWAP3 DUP2 DUP5 DIV EQ SWAP1 ISZERO OR ISZERO PUSH2 0x3868 JUMPI PUSH2 0x3285 SWAP3 PUSH2 0x3A35 SWAP2 PUSH2 0x399A JUMP JUMPDEST DUP1 PUSH2 0x49A7 PUSH2 0x3D74 JUMP JUMPDEST SWAP2 SWAP1 SWAP4 PUSH2 0x49B3 PUSH0 PUSH2 0x3CCE JUMP JUMPDEST SWAP5 ADD SWAP4 DUP3 SWAP2 PUSH2 0x4A4A JUMPI JUMPDEST ADD SWAP4 DUP5 PUSH0 DUP1 DUP3 SLT PUSH2 0x4A44 JUMPI POP JUMPDEST DUP5 SUB SWAP2 DUP2 DUP6 GT PUSH2 0x4A0C JUMPI POP POP DUP2 DUP2 GT PUSH2 0x49EE JUMPI POP POP PUSH2 0x185 SSTORE PUSH2 0x186 SSTORE NUMBER PUSH2 0x187 SSTORE JUMP JUMPDEST PUSH1 0x44 SWAP3 POP PUSH1 0x40 MLOAD SWAP2 PUSH4 0x6DA41E5 PUSH1 0xE1 SHL DUP4 MSTORE PUSH1 0x4 DUP4 ADD MSTORE PUSH1 0x24 DUP3 ADD MSTORE REVERT JUMPDEST SWAP1 DUP1 DUP6 SWAP3 GT PUSH2 0x4A32 JUMPI PUSH1 0x44 SWAP2 PUSH1 0x40 MLOAD SWAP2 PUSH4 0x6DA41E5 PUSH1 0xE1 SHL DUP4 MSTORE PUSH1 0x4 DUP4 ADD MSTORE PUSH1 0x24 DUP3 ADD MSTORE REVERT JUMPDEST PUSH1 0x40 MLOAD PUSH4 0xFB4FD35 PUSH1 0xE1 SHL DUP2 MSTORE PUSH1 0x4 SWAP1 REVERT JUMPDEST SUB PUSH2 0x49CA JUMP JUMPDEST SWAP1 POP DUP2 PUSH0 SUB SWAP1 PUSH2 0x49BD JUMP JUMPDEST DUP1 SWAP2 SUB PUSH1 0xE0 DUP2 SLT PUSH2 0x7AA JUMPI DUP2 MLOAD SWAP3 PUSH1 0x20 DUP4 ADD MLOAD SWAP3 PUSH1 0x80 PUSH1 0x40 DUP3 ADD MLOAD SWAP4 PUSH1 0x5F NOT ADD SLT PUSH2 0x7AA JUMPI PUSH1 0xC0 PUSH1 0x40 MLOAD SWAP2 PUSH2 0x4A8B PUSH1 0x80 DUP5 PUSH2 0x32DA JUMP JUMPDEST PUSH1 0x60 DUP2 ADD MLOAD DUP4 MSTORE PUSH1 0x80 DUP2 ADD MLOAD PUSH1 0x20 DUP5 ADD MSTORE PUSH1 0xA0 DUP2 ADD MLOAD PUSH1 0x40 DUP5 ADD MSTORE ADD MLOAD PUSH1 0x60 DUP3 ADD MSTORE SWAP1 JUMP JUMPDEST PUSH2 0x4C21 SWAP2 PUSH2 0x4ABC PUSH2 0x3ECB JUMP JUMPDEST POP PUSH2 0x4AC5 PUSH2 0x41BD JUMP JUMPDEST PUSH2 0x4ACD PUSH2 0x5D55 JUMP JUMPDEST PUSH1 0x40 DUP1 MLOAD PUSH4 0x7225DA89 PUSH1 0xE1 SHL PUSH1 0x20 DUP1 DUP4 ADD SWAP2 SWAP1 SWAP2 MSTORE DUP5 MLOAD PUSH1 0x1 PUSH1 0x1 PUSH1 0xA0 SHL SUB SWAP1 DUP2 AND PUSH1 0x24 DUP5 ADD MSTORE SWAP1 DUP6 ADD MLOAD PUSH1 0x44 DUP4 ADD MSTORE SWAP2 DUP5 ADD MLOAD PUSH1 0x64 DUP3 ADD MSTORE PUSH1 0x60 DUP5 ADD MLOAD DUP3 AND PUSH1 0x84 DUP3 ADD MSTORE PUSH1 0x80 DUP5 ADD MLOAD DUP3 AND PUSH1 0xA4 DUP3 ADD MSTORE PUSH1 0xA0 DUP5 ADD MLOAD SWAP1 SWAP2 AND PUSH1 0xC4 DUP1 DUP4 ADD SWAP2 SWAP1 SWAP2 MSTORE DUP2 MSTORE PUSH2 0x4B53 SWAP1 PUSH2 0x4B44 SWAP1 PUSH2 0x964 PUSH1 0xE4 DUP3 PUSH2 0x32DA JUMP JUMPDEST PUSH1 0x20 DUP1 DUP3 MLOAD DUP4 ADD ADD SWAP2 ADD PUSH2 0x4A55 JUMP JUMPDEST SWAP4 SWAP3 SWAP2 SWAP6 SWAP1 SWAP5 PUSH1 0x1 DUP1 PUSH1 0xA0 SHL SUB DUP2 MLOAD AND PUSH1 0x1 DUP1 PUSH1 0xA0 SHL SUB PUSH1 0x60 DUP4 ADD MLOAD AND PUSH1 0x1 DUP1 PUSH1 0xA0 SHL SUB PUSH1 0x80 DUP5 ADD MLOAD AND SWAP2 PUSH32 0x2027743D48A615D54941306FD36C7EC4F15155B7837F1D1FAC001F9FCA73970F PUSH1 0x20 DUP6 ADD MLOAD DUP12 PUSH2 0x4C10 DUP10 DUP13 MLOAD DUP14 PUSH1 0x20 DUP2 ADD MLOAD PUSH1 0x60 PUSH1 0x40 DUP4 ADD MLOAD SWAP3 ADD MLOAD SWAP3 DUP13 PUSH1 0xA0 PUSH1 0x1 DUP1 DUP3 SHL SUB SWAP2 ADD MLOAD AND SWAP5 PUSH1 0x40 MLOAD SWAP9 DUP10 SWAP9 DUP10 SWAP7 SWAP4 SWAP1 SWAP9 SWAP8 SWAP5 SWAP2 SWAP3 PUSH1 0xE0 SWAP7 SWAP4 PUSH2 0x100 DUP10 ADD SWAP11 DUP10 MSTORE PUSH1 0x20 DUP10 ADD MSTORE PUSH1 0x40 DUP9 ADD MSTORE PUSH1 0x60 DUP8 ADD MSTORE PUSH1 0x80 DUP7 ADD MSTORE PUSH1 0xA0 DUP6 ADD MSTORE PUSH1 0xC0 DUP5 ADD MSTORE PUSH1 0x1 DUP1 PUSH1 0xA0 SHL SUB AND SWAP2 ADD MSTORE JUMP JUMPDEST SUB SWAP1 LOG4 PUSH2 0x46A1 DUP4 PUSH1 0x40 DUP4 ADD MLOAD PUSH2 0x3A58 JUMP JUMPDEST PUSH1 0x1 PUSH2 0x12F SSTORE SWAP4 SWAP3 SWAP2 SWAP1 JUMP JUMPDEST SWAP1 PUSH2 0x3285 SWAP2 PUSH0 DUP1 PUSH2 0x4C3C PUSH2 0x3706 JUMP JUMPDEST SWAP4 PUSH1 0x20 DUP2 MLOAD SWAP2 ADD DUP5 GAS DELEGATECALL PUSH2 0x35CD PUSH2 0x375A JUMP JUMPDEST SWAP1 SWAP2 PUSH2 0x4D01 PUSH2 0x4B44 PUSH2 0x4C21 SWAP5 PUSH2 0x4C62 PUSH2 0x3ECB JUMP JUMPDEST POP PUSH2 0x4C6B PUSH2 0x41BD JUMP JUMPDEST PUSH2 0x4C73 PUSH2 0x5D55 JUMP JUMPDEST PUSH1 0x40 DUP1 MLOAD PUSH4 0x1740B6E3 PUSH1 0xE1 SHL PUSH1 0x20 DUP1 DUP4 ADD SWAP2 SWAP1 SWAP2 MSTORE DUP8 MLOAD PUSH1 0x1 PUSH1 0x1 PUSH1 0xA0 SHL SUB SWAP1 DUP2 AND PUSH1 0x24 DUP5 ADD MSTORE SWAP1 DUP9 ADD MLOAD DUP2 AND PUSH1 0x44 DUP4 ADD MSTORE SWAP2 DUP8 ADD MLOAD PUSH1 0x64 DUP3 ADD MSTORE PUSH1 0x60 DUP8 ADD MLOAD PUSH1 0x84 DUP3 ADD MSTORE PUSH1 0x80 DUP8 ADD MLOAD PUSH1 0xA4 DUP3 ADD MSTORE PUSH1 0xA0 DUP8 ADD MLOAD DUP3 AND PUSH1 0xC4 DUP3 ADD MSTORE PUSH1 0xC0 DUP8 ADD MLOAD DUP3 AND PUSH1 0xE4 DUP3 ADD MSTORE PUSH1 0xE0 DUP8 ADD MLOAD DUP3 AND PUSH2 0x104 DUP3 ADD MSTORE SWAP2 AND PUSH2 0x124 DUP1 DUP4 ADD SWAP2 SWAP1 SWAP2 MSTORE DUP2 MSTORE PUSH2 0x964 PUSH2 0x144 DUP3 PUSH2 0x32DA JUMP JUMPDEST SWAP4 SWAP3 SWAP2 SWAP6 SWAP1 SWAP5 PUSH1 0x1 DUP1 PUSH1 0xA0 SHL SUB DUP2 MLOAD AND PUSH1 0x1 DUP1 PUSH1 0xA0 SHL SUB PUSH1 0x20 DUP4 ADD MLOAD AND SWAP1 PUSH1 0x1 DUP1 PUSH1 0xA0 SHL SUB PUSH1 0xA0 DUP5 ADD MLOAD AND SWAP1 PUSH32 0xE2C83B7332B25DA226005E313FA95068D29D93D740B0BBD0B440615EF02F8CC4 PUSH2 0x100 PUSH1 0x1 DUP1 PUSH1 0xA0 SHL SUB PUSH1 0xC0 DUP8 ADD MLOAD AND SWAP5 PUSH1 0x40 DUP8 ADD MLOAD DUP14 DUP13 DUP1 MLOAD PUSH1 0x20 DUP3 ADD MLOAD SWAP1 PUSH1 0x60 PUSH1 0x40 DUP5 ADD MLOAD SWAP4 ADD MLOAD SWAP4 DUP13 PUSH1 0xE0 PUSH1 0x1 DUP1 PUSH1 0xA0 SHL SUB SWAP2 ADD MLOAD AND SWAP6 PUSH1 0x40 MLOAD SWAP8 DUP9 MSTORE PUSH1 0x20 DUP9 ADD MSTORE PUSH1 0x40 DUP8 ADD MSTORE PUSH1 0x60 DUP7 ADD MSTORE PUSH1 0x80 DUP6 ADD MSTORE PUSH1 0xA0 DUP5 ADD MSTORE PUSH1 0xC0 DUP4 ADD MSTORE PUSH1 0xE0 DUP3 ADD MSTORE LOG4 PUSH2 0x4DC0 DUP4 PUSH1 0x80 DUP4 ADD MLOAD PUSH2 0x3A58 JUMP JUMPDEST PUSH1 0xA0 DUP3 ADD MLOAD PUSH1 0xE0 SWAP1 SWAP3 ADD MLOAD SWAP1 SWAP2 PUSH1 0x1 PUSH1 0x1 PUSH1 0xA0 SHL SUB SWAP1 DUP2 AND SWAP2 AND PUSH2 0x46C3 PUSH2 0x5117 JUMP JUMPDEST SWAP1 SWAP3 SWAP2 PUSH1 0xC0 PUSH1 0xE0 SWAP2 PUSH2 0x100 DUP5 ADD SWAP6 PUSH1 0x1 DUP1 PUSH1 0xA0 SHL SUB SWAP3 DUP2 DUP5 DUP1 SWAP4 MLOAD AND DUP8 MSTORE PUSH1 0x20 DUP2 ADD MLOAD PUSH1 0x20 DUP9 ADD MSTORE PUSH1 0x40 DUP2 ADD MLOAD PUSH1 0x40 DUP9 ADD MSTORE PUSH1 0x60 DUP2 ADD MLOAD PUSH1 0x60 DUP9 ADD MSTORE DUP3 PUSH1 0x80 DUP3 ADD MLOAD AND PUSH1 0x80 DUP9 ADD MSTORE DUP3 PUSH1 0xA0 DUP3 ADD MLOAD AND PUSH1 0xA0 DUP9 ADD MSTORE ADD MLOAD AND PUSH1 0xC0 DUP6 ADD MSTORE AND SWAP2 ADD MSTORE JUMP JUMPDEST DUP1 SWAP3 SWAP2 PUSH2 0x4E4F PUSH2 0x3ECB JUMP JUMPDEST POP PUSH2 0x4E58 PUSH2 0x41BD JUMP JUMPDEST PUSH2 0x4E60 PUSH2 0x5D55 JUMP JUMPDEST PUSH1 0x40 MLOAD PUSH4 0xAB6DD71D PUSH1 0xE0 SHL PUSH1 0x20 DUP3 ADD MSTORE SWAP2 DUP3 SWAP2 PUSH2 0x4E80 SWAP2 PUSH1 0x24 DUP5 ADD PUSH2 0x4DE2 JUMP JUMPDEST SUB PUSH1 0x1F NOT DUP2 ADD DUP3 MSTORE PUSH2 0x4E92 SWAP1 DUP3 PUSH2 0x32DA JUMP JUMPDEST PUSH2 0x226 SLOAD PUSH2 0x4EA9 SWAP2 SWAP1 PUSH1 0x1 PUSH1 0x1 PUSH1 0xA0 SHL SUB AND PUSH2 0x4C2D JUMP JUMPDEST DUP1 MLOAD DUP2 ADD PUSH1 0x20 ADD SWAP1 PUSH1 0x20 ADD SWAP1 PUSH2 0x4EBE SWAP2 PUSH2 0x4A55 JUMP JUMPDEST SWAP3 SWAP1 SWAP4 SWAP2 SWAP5 PUSH1 0x1 PUSH1 0xA0 SHL PUSH1 0x1 SWAP1 SUB DUP2 MLOAD AND SWAP1 DUP5 DUP8 DUP5 PUSH1 0x80 DUP5 ADD SWAP4 PUSH1 0x1 PUSH1 0xA0 SHL PUSH1 0x1 SWAP1 SUB DUP6 MLOAD AND PUSH1 0x1 PUSH1 0xA0 SHL PUSH1 0x1 SWAP1 SUB PUSH1 0xA0 DUP4 ADD MLOAD AND SWAP1 PUSH1 0x20 DUP4 ADD MLOAD SWAP8 DUP7 MLOAD PUSH1 0x20 DUP9 ADD SWAP7 DUP8 MLOAD SWAP11 PUSH1 0x40 DUP11 ADD SWAP12 DUP13 MLOAD SWAP11 PUSH1 0x60 ADD MLOAD PUSH1 0xC0 DUP10 ADD SWAP12 PUSH1 0x1 PUSH1 0xA0 SHL PUSH1 0x1 SWAP1 SUB DUP14 MLOAD AND SWAP3 PUSH1 0x40 MLOAD SWAP7 DUP8 SWAP7 PUSH2 0x4F32 SWAP7 DUP9 PUSH2 0x566C JUMP JUMPDEST SUB PUSH32 0x7E56A428E0421AAC1DABE4207701C8A9CF0B76F6D7AB85F73D98A86294C992FC SWAP2 LOG4 PUSH1 0x60 ADD MLOAD SWAP1 PUSH2 0x4F64 SWAP2 PUSH2 0x3A58 JUMP JUMPDEST SWAP3 MLOAD SWAP2 MLOAD PUSH1 0x1 PUSH1 0x1 PUSH1 0xA0 SHL SUB SWAP3 DUP4 AND SWAP3 AND PUSH2 0x4F7D PUSH2 0x5117 JUMP JUMPDEST DUP8 MLOAD PUSH2 0x4C21 SWAP6 SWAP1 ISZERO PUSH2 0x4FD8 JUMPI PUSH2 0x410F SWAP3 POP PUSH2 0x4FD1 PUSH8 0xDE0B6B3A7640000 PUSH2 0x4FA9 PUSH2 0x16D SLOAD DUP13 MLOAD SWAP1 PUSH2 0x399A JUMP JUMPDEST DIV PUSH2 0x163 PUSH2 0x4FB8 DUP3 DUP3 SLOAD PUSH2 0x385B JUMP JUMPDEST SWAP1 SSTORE PUSH2 0x40FE PUSH1 0x1 DUP1 PUSH1 0xA0 SHL SUB PUSH2 0x178 SLOAD AND SWAP2 DUP13 MLOAD PUSH2 0x3A58 JUMP JUMPDEST MLOAD SWAP1 PUSH2 0x516E JUMP JUMPDEST POP PUSH2 0x178 SLOAD SWAP2 MLOAD PUSH2 0x410F SWAP3 PUSH2 0x471A SWAP2 SWAP1 PUSH1 0x1 PUSH1 0x1 PUSH1 0xA0 SHL SUB AND DUP6 PUSH2 0x51B0 JUMP JUMPDEST DUP1 SWAP3 SWAP2 PUSH2 0x5002 PUSH2 0x3ECB JUMP JUMPDEST POP PUSH2 0x500B PUSH2 0x41BD JUMP JUMPDEST PUSH2 0x5013 PUSH2 0x5D55 JUMP JUMPDEST PUSH1 0x40 MLOAD PUSH4 0x474C3ADD PUSH1 0xE1 SHL PUSH1 0x20 DUP3 ADD MSTORE SWAP2 DUP3 SWAP2 PUSH2 0x5033 SWAP2 PUSH1 0x24 DUP5 ADD PUSH2 0x4DE2 JUMP JUMPDEST SUB PUSH1 0x1F NOT DUP2 ADD DUP3 MSTORE PUSH2 0x5045 SWAP1 DUP3 PUSH2 0x32DA JUMP JUMPDEST PUSH2 0x226 SLOAD PUSH2 0x505C SWAP2 SWAP1 PUSH1 0x1 PUSH1 0x1 PUSH1 0xA0 SHL SUB AND PUSH2 0x4C2D JUMP JUMPDEST DUP1 MLOAD DUP2 ADD PUSH1 0x20 ADD SWAP1 PUSH1 0x20 ADD SWAP1 PUSH2 0x5071 SWAP2 PUSH2 0x4A55 JUMP JUMPDEST SWAP3 SWAP1 SWAP4 SWAP2 SWAP5 PUSH1 0x1 PUSH1 0xA0 SHL PUSH1 0x1 SWAP1 SUB DUP2 MLOAD AND SWAP1 DUP5 DUP8 DUP5 PUSH1 0x80 DUP5 ADD SWAP4 PUSH1 0x1 PUSH1 0xA0 SHL PUSH1 0x1 SWAP1 SUB DUP6 MLOAD AND PUSH1 0x1 PUSH1 0xA0 SHL PUSH1 0x1 SWAP1 SUB PUSH1 0xA0 DUP4 ADD MLOAD AND SWAP1 PUSH1 0x20 DUP4 ADD MLOAD SWAP8 DUP7 MLOAD PUSH1 0x20 DUP9 ADD SWAP7 DUP8 MLOAD SWAP11 PUSH1 0x40 DUP11 ADD SWAP12 DUP13 MLOAD SWAP11 PUSH1 0x60 ADD MLOAD PUSH1 0xC0 DUP10 ADD SWAP12 PUSH1 0x1 PUSH1 0xA0 SHL PUSH1 0x1 SWAP1 SUB DUP14 MLOAD AND SWAP3 PUSH1 0x40 MLOAD SWAP7 DUP8 SWAP7 PUSH2 0x50E5 SWAP7 DUP9 PUSH2 0x566C JUMP JUMPDEST SUB PUSH32 0x21AB49EBA1E974AA50C50AEC84DE10487A4198E478B26AFB214FD269E60E3190 SWAP2 LOG4 PUSH1 0x60 ADD MLOAD SWAP1 PUSH2 0x4F64 SWAP2 PUSH2 0x3A58 JUMP JUMPDEST PUSH2 0x12F PUSH1 0x2 DUP2 SLOAD EQ PUSH2 0x5129 JUMPI PUSH1 0x2 SWAP1 SSTORE JUMP JUMPDEST PUSH1 0x40 MLOAD PUSH3 0x461BCD PUSH1 0xE5 SHL DUP2 MSTORE PUSH1 0x20 PUSH1 0x4 DUP3 ADD MSTORE PUSH1 0x1F PUSH1 0x24 DUP3 ADD MSTORE PUSH32 0x5265656E7472616E637947756172643A207265656E7472616E742063616C6C00 PUSH1 0x44 DUP3 ADD MSTORE PUSH1 0x64 SWAP1 REVERT JUMPDEST DUP2 PUSH2 0x5177 JUMPI POP POP JUMP JUMPDEST PUSH1 0x1 PUSH1 0x1 PUSH1 0xA0 SHL SUB DUP2 AND ISZERO PUSH2 0x3BA5 JUMPI PUSH0 DUP1 DUP1 SWAP4 DUP2 SWAP4 GAS CALL PUSH2 0x5196 PUSH2 0x375A JUMP JUMPDEST POP ISZERO PUSH2 0x519E JUMPI JUMP JUMPDEST PUSH1 0x40 MLOAD PUSH4 0x12171D83 PUSH1 0xE3 SHL DUP2 MSTORE PUSH1 0x4 SWAP1 REVERT JUMPDEST SWAP2 SWAP1 SWAP2 DUP2 PUSH2 0x51BD JUMPI POP POP POP JUMP JUMPDEST PUSH2 0x5255 SWAP2 PUSH0 DUP1 PUSH1 0x1 DUP1 PUSH1 0xA0 SHL SUB SWAP4 DUP5 PUSH2 0x161 SLOAD AND SWAP4 PUSH1 0x40 MLOAD SWAP6 PUSH1 0x20 SWAP9 DUP2 DUP11 DUP10 ADD SWAP5 PUSH4 0x23B872DD PUSH1 0xE0 SHL DUP7 MSTORE AND PUSH1 0x24 DUP10 ADD MSTORE AND PUSH1 0x44 DUP8 ADD MSTORE PUSH1 0x64 DUP7 ADD MSTORE PUSH1 0x64 DUP6 MSTORE PUSH2 0x5208 PUSH1 0x84 DUP7 PUSH2 0x32DA JUMP JUMPDEST PUSH2 0x5211 DUP8 PUSH2 0x3310 JUMP JUMPDEST SWAP5 PUSH2 0x521F PUSH1 0x40 MLOAD SWAP7 DUP8 PUSH2 0x32DA JUMP JUMPDEST DUP8 DUP7 MSTORE PUSH32 0x5361666545524332303A206C6F772D6C6576656C2063616C6C206661696C6564 DUP9 DUP8 ADD MSTORE MLOAD SWAP1 DUP3 DUP6 GAS CALL PUSH2 0x35CD PUSH2 0x375A JUMP JUMPDEST DUP1 MLOAD DUP3 DUP2 ISZERO SWAP2 DUP3 ISZERO PUSH2 0x52C5 JUMPI JUMPDEST POP POP SWAP1 POP ISZERO PUSH2 0x526E JUMPI POP JUMP JUMPDEST PUSH1 0x84 SWAP1 PUSH1 0x40 MLOAD SWAP1 PUSH3 0x461BCD PUSH1 0xE5 SHL DUP3 MSTORE PUSH1 0x4 DUP3 ADD MSTORE PUSH1 0x2A PUSH1 0x24 DUP3 ADD MSTORE PUSH32 0x5361666545524332303A204552433230206F7065726174696F6E20646964206E PUSH1 0x44 DUP3 ADD MSTORE PUSH10 0x1BDD081CDD58D8D95959 PUSH1 0xB2 SHL PUSH1 0x64 DUP3 ADD MSTORE REVERT JUMPDEST DUP4 DUP1 SWAP3 SWAP4 POP ADD SUB SLT PUSH2 0x7AA JUMPI DUP2 PUSH2 0x52DC SWAP2 ADD PUSH2 0x3BFE JUMP JUMPDEST DUP1 DUP3 PUSH0 PUSH2 0x5262 JUMP JUMPDEST PUSH2 0x534A SWAP2 PUSH2 0x52F0 PUSH2 0x5D55 JUMP JUMPDEST PUSH2 0x52F8 PUSH2 0x5117 JUMP JUMPDEST PUSH1 0x40 MLOAD PUSH4 0x6845C445 PUSH1 0xE0 SHL PUSH1 0x20 DUP3 ADD MSTORE PUSH1 0x1 PUSH1 0x1 PUSH1 0xA0 SHL SUB SWAP3 DUP4 AND PUSH1 0x24 DUP3 ADD MSTORE SWAP1 DUP3 AND PUSH1 0x44 DUP3 ADD MSTORE DUP4 DUP3 AND PUSH1 0x64 DUP3 ADD MSTORE SELFBALANCE PUSH1 0x84 DUP1 DUP4 ADD SWAP2 SWAP1 SWAP2 MSTORE DUP2 MSTORE SWAP1 PUSH2 0x5340 PUSH1 0xA4 DUP4 PUSH2 0x32DA JUMP JUMPDEST PUSH2 0x226 SLOAD AND PUSH2 0x4C2D JUMP JUMPDEST PUSH1 0x20 DUP2 DUP1 MLOAD DUP2 ADD SUB SLT PUSH2 0x7AA JUMPI PUSH1 0x20 PUSH2 0x5366 SWAP2 ADD MLOAD DUP1 SWAP3 PUSH2 0x516E JUMP JUMPDEST PUSH1 0x1 PUSH2 0x12F SSTORE SWAP1 JUMP JUMPDEST PUSH1 0xE0 DUP2 ADD SWAP3 SWAP2 PUSH1 0xC0 SWAP1 DUP2 SWAP1 PUSH1 0x1 PUSH1 0x1 PUSH1 0xA0 SHL SUB DUP1 PUSH2 0x538C DUP4 PUSH2 0x3238 JUMP JUMPDEST AND DUP6 MSTORE PUSH2 0x539B PUSH1 0x20 DUP4 ADD PUSH2 0x3238 JUMP JUMPDEST AND PUSH1 0x20 DUP6 ADD MSTORE PUSH1 0x40 DUP2 ADD CALLDATALOAD PUSH1 0x40 DUP6 ADD MSTORE PUSH1 0x60 DUP2 ADD CALLDATALOAD PUSH1 0x60 DUP6 ADD MSTORE PUSH1 0x80 DUP2 ADD CALLDATALOAD PUSH1 0x80 DUP6 ADD MSTORE PUSH1 0xA0 DUP2 ADD CALLDATALOAD PUSH1 0xA0 DUP6 ADD MSTORE ADD CALLDATALOAD SWAP2 ADD MSTORE JUMP JUMPDEST PUSH2 0x17F SLOAD DUP1 NUMBER LT ISZERO PUSH2 0x48A3 JUMPI PUSH2 0x3285 SWAP1 NUMBER SWAP1 PUSH2 0x3A58 JUMP JUMPDEST SWAP1 SWAP2 PUSH2 0x53F1 PUSH2 0x3ECB JUMP JUMPDEST POP PUSH2 0x53FA PUSH2 0x41BD JUMP JUMPDEST PUSH2 0x5402 PUSH2 0x5D55 JUMP JUMPDEST PUSH2 0x540A PUSH2 0x5C35 JUMP JUMPDEST PUSH2 0x541D PUSH2 0x5415 PUSH2 0x5B73 JUMP JUMPDEST DUP2 SWAP3 SWAP2 PUSH2 0x41DF JUMP JUMPDEST SWAP1 SWAP2 PUSH2 0x542C DUP3 DUP5 DUP8 MLOAD SWAP4 PUSH2 0x5654 JUMP JUMPDEST DUP2 DUP2 LT PUSH2 0x5636 JUMPI POP POP PUSH8 0xDE0B6B3A7640000 SWAP2 PUSH2 0x3F3A PUSH2 0x544E SWAP3 DUP7 MLOAD SWAP3 PUSH2 0x4222 JUMP JUMPDEST DIV SWAP2 DUP3 ISZERO PUSH2 0x418D JUMPI PUSH1 0x40 DUP2 ADD MLOAD PUSH1 0x80 DUP3 ADD MLOAD PUSH2 0x16F SLOAD PUSH2 0x548C SWAP7 SWAP3 PUSH2 0x5481 SWAP3 DUP8 SWAP2 PUSH1 0x1 PUSH1 0x1 PUSH1 0xA0 SHL SUB SWAP2 DUP3 AND SWAP2 AND PUSH2 0x4256 JUMP JUMPDEST SWAP6 SWAP2 DUP3 SWAP8 SWAP2 SWAP8 PUSH2 0x3A58 JUMP JUMPDEST SWAP3 PUSH1 0x20 DUP2 ADD MLOAD DUP1 DUP6 LT PUSH2 0x5618 JUMPI POP DUP6 PUSH1 0x1 DUP1 PUSH1 0xA0 SHL SUB PUSH1 0x40 DUP4 ADD MLOAD AND PUSH1 0x1 DUP1 PUSH1 0xA0 SHL SUB PUSH1 0x60 DUP5 ADD MLOAD AND SWAP1 PUSH32 0xF47EA38B2DBACD4EA4E4C63F21B558D8ACD7CF60181E4CA6C2E09BF1EF6C91DF DUP8 DUP6 MLOAD PUSH2 0x550B DUP7 MLOAD PUSH1 0x20 DUP9 ADD MLOAD PUSH1 0x60 PUSH1 0x40 DUP11 ADD MLOAD SWAP10 ADD SWAP9 DUP10 MLOAD SWAP2 PUSH1 0x1 DUP1 PUSH1 0xA0 SHL SUB PUSH1 0x80 DUP14 ADD MLOAD AND SWAP4 PUSH1 0x40 MLOAD SWAP8 DUP9 SWAP8 DUP9 PUSH2 0x566C JUMP JUMPDEST SUB SWAP1 LOG3 DUP2 MLOAD SWAP4 PUSH2 0x166 PUSH2 0x551F DUP7 DUP3 SLOAD PUSH2 0x3A58 JUMP JUMPDEST SWAP1 SSTORE PUSH2 0x552F PUSH2 0x163 SWAP5 DUP6 SLOAD PUSH2 0x3A58 JUMP JUMPDEST DUP5 SSTORE PUSH2 0x165 SLOAD PUSH1 0x1 PUSH1 0x1 PUSH1 0xA0 SHL SUB AND SWAP5 DUP6 EXTCODESIZE ISZERO PUSH2 0x7AA JUMPI PUSH1 0x40 MLOAD PUSH4 0x2770A7EB PUSH1 0xE2 SHL DUP2 MSTORE PUSH1 0x1 PUSH1 0x1 PUSH1 0xA0 SHL SUB SWAP3 SWAP1 SWAP3 AND PUSH1 0x4 DUP4 ADD MSTORE PUSH1 0x24 DUP3 ADD MSTORE SWAP4 PUSH0 SWAP1 DUP6 SWAP1 PUSH1 0x44 SWAP1 DUP3 SWAP1 DUP5 SWAP1 GAS CALL SWAP3 DUP4 ISZERO PUSH2 0x3C8A JUMPI PUSH2 0x4114 SWAP5 DUP7 SWAP5 PUSH2 0x5608 JUMPI JUMPDEST POP PUSH1 0x40 DUP4 ADD MLOAD PUSH1 0x60 DUP5 ADD MLOAD PUSH1 0x80 SWAP1 SWAP5 ADD MLOAD PUSH1 0x1 PUSH1 0x1 PUSH1 0xA0 SHL SUB SWAP5 DUP6 AND SWAP5 SWAP1 DUP2 AND SWAP4 SWAP2 AND SWAP1 PUSH2 0x55B5 PUSH2 0x5117 JUMP JUMPDEST DUP10 MLOAD ISZERO PUSH2 0x55DE JUMPI POP POP SWAP1 PUSH2 0x4104 PUSH2 0x410F SWAP3 PUSH8 0xDE0B6B3A7640000 PUSH2 0x40D8 PUSH2 0x16D SLOAD DUP13 MLOAD SWAP1 PUSH2 0x399A JUMP JUMPDEST PUSH2 0x178 SLOAD PUSH1 0x20 DUP12 ADD MLOAD PUSH2 0x410F SWAP6 SWAP4 SWAP5 POP PUSH2 0x5601 SWAP2 PUSH1 0x1 PUSH1 0x1 PUSH1 0xA0 SHL SUB AND DUP6 PUSH2 0x51B0 JUMP JUMPDEST MLOAD SWAP2 PUSH2 0x51B0 JUMP JUMPDEST PUSH0 PUSH2 0x5612 SWAP2 PUSH2 0x32DA JUMP JUMPDEST PUSH0 PUSH2 0x5589 JUMP JUMPDEST PUSH1 0x44 SWAP1 DUP6 PUSH1 0x40 MLOAD SWAP2 PUSH4 0x54CDE313 PUSH1 0xE0 SHL DUP4 MSTORE PUSH1 0x4 DUP4 ADD MSTORE PUSH1 0x24 DUP3 ADD MSTORE REVERT JUMPDEST PUSH1 0x44 SWAP3 POP PUSH1 0x40 MLOAD SWAP2 PUSH4 0xA5DB715D PUSH1 0xE0 SHL DUP4 MSTORE PUSH1 0x4 DUP4 ADD MSTORE PUSH1 0x24 DUP3 ADD MSTORE REVERT JUMPDEST PUSH2 0x488D PUSH2 0x5662 DUP5 DUP5 DUP5 PUSH2 0x4967 JUMP JUMPDEST PUSH2 0x2821 DUP6 DUP6 PUSH2 0x4222 JUMP JUMPDEST SWAP6 SWAP3 PUSH1 0xC0 SWAP6 SWAP3 SWAP9 SWAP8 SWAP5 SWAP2 SWAP9 PUSH1 0xE0 DUP9 ADD SWAP10 DUP9 MSTORE PUSH1 0x20 DUP9 ADD MSTORE PUSH1 0x40 DUP8 ADD MSTORE PUSH1 0x60 DUP7 ADD MSTORE PUSH1 0x80 DUP6 ADD MSTORE PUSH1 0xA0 DUP5 ADD MSTORE PUSH1 0x1 DUP1 PUSH1 0xA0 SHL SUB AND SWAP2 ADD MSTORE JUMP JUMPDEST SWAP1 SWAP2 PUSH2 0x574C SWAP3 PUSH2 0x56B2 PUSH2 0x3ECB JUMP JUMPDEST POP PUSH2 0x56BB PUSH2 0x41BD JUMP JUMPDEST PUSH2 0x56C3 PUSH2 0x5D55 JUMP JUMPDEST PUSH2 0x56CB PUSH2 0x3C95 JUMP JUMPDEST DUP4 MLOAD PUSH2 0x5709 SWAP1 PUSH2 0x56E3 SWAP1 PUSH1 0x1 PUSH1 0x1 PUSH1 0xA0 SHL SUB AND PUSH2 0x3B7D JUMP JUMPDEST SWAP2 PUSH2 0x56FD PUSH2 0x56F1 DUP5 DUP4 PUSH2 0x387C JUMP JUMPDEST MLOAD SWAP2 PUSH2 0x3F28 DUP4 DUP7 PUSH2 0x482B JUMP JUMPDEST POP POP PUSH1 0x20 DUP7 ADD MLOAD PUSH2 0x5D76 JUMP JUMPDEST PUSH1 0x60 DUP6 ADD MLOAD PUSH1 0xA0 DUP7 ADD MLOAD DUP7 MLOAD PUSH1 0x1 PUSH1 0x1 PUSH1 0xA0 SHL SUB SWAP1 DUP2 AND PUSH0 SWAP1 DUP2 MSTORE PUSH2 0x177 PUSH1 0x20 MSTORE PUSH1 0x40 SWAP1 KECCAK256 SLOAD PUSH2 0x5741 SWAP4 SWAP1 SWAP3 DUP6 SWAP3 SWAP1 DUP2 AND SWAP2 AND PUSH2 0x4256 JUMP JUMPDEST SWAP7 SWAP2 DUP4 SWAP9 SWAP2 SWAP9 PUSH2 0x3A58 JUMP JUMPDEST SWAP4 DUP3 ISZERO PUSH2 0x418D JUMPI PUSH1 0x40 DUP3 ADD MLOAD DUP1 DUP7 LT PUSH2 0x5914 JUMPI POP PUSH1 0x1 DUP1 PUSH1 0xA0 SHL SUB DUP3 MLOAD AND PUSH1 0x1 DUP1 PUSH1 0xA0 SHL SUB PUSH1 0x60 DUP5 ADD MLOAD AND PUSH1 0x1 DUP1 PUSH1 0xA0 SHL SUB PUSH1 0x80 DUP6 ADD MLOAD AND SWAP2 PUSH32 0x9A7C695D191E65E20D74A5FD655A98FA9323ED1F504360E03DEFC63E668B4728 DUP9 PUSH1 0x20 DUP8 ADD MLOAD PUSH2 0x57DE DUP14 DUP1 MLOAD SWAP1 PUSH1 0x20 DUP2 ADD MLOAD SWAP1 PUSH1 0x60 PUSH1 0x40 DUP3 ADD MLOAD SWAP2 ADD MLOAD SWAP2 DUP13 PUSH1 0xA0 PUSH1 0x1 DUP1 DUP3 SHL SUB SWAP2 ADD MLOAD AND SWAP4 PUSH1 0x40 MLOAD SWAP8 DUP9 SWAP8 DUP9 PUSH2 0x566C JUMP JUMPDEST SUB SWAP1 LOG4 PUSH2 0x57EC PUSH1 0x1 DUP7 PUSH2 0x499E JUMP JUMPDEST PUSH2 0x5827 PUSH1 0x20 DUP4 ADD MLOAD SWAP5 PUSH2 0x5801 DUP2 PUSH2 0x169 PUSH2 0x32C1 JUMP JUMPDEST POP PUSH2 0x580D DUP8 DUP3 SLOAD PUSH2 0x3A58 JUMP JUMPDEST SWAP1 SSTORE PUSH2 0x581D PUSH2 0x163 SWAP6 DUP7 SLOAD PUSH2 0x3A58 JUMP JUMPDEST DUP6 SSTORE PUSH2 0x167 PUSH2 0x320F JUMP JUMPDEST SWAP1 SLOAD PUSH1 0x3 SWAP2 SWAP1 SWAP2 SHL SHR PUSH1 0x1 PUSH1 0x1 PUSH1 0xA0 SHL SUB AND SWAP4 DUP5 EXTCODESIZE ISZERO PUSH2 0x7AA JUMPI PUSH1 0x40 MLOAD PUSH4 0x2770A7EB PUSH1 0xE2 SHL DUP2 MSTORE PUSH1 0x1 PUSH1 0x1 PUSH1 0xA0 SHL SUB SWAP3 SWAP1 SWAP3 AND PUSH1 0x4 DUP4 ADD MSTORE PUSH1 0x24 DUP3 ADD MSTORE SWAP3 PUSH0 SWAP1 DUP5 SWAP1 PUSH1 0x44 SWAP1 DUP3 SWAP1 DUP5 SWAP1 GAS CALL SWAP2 DUP3 ISZERO PUSH2 0x3C8A JUMPI PUSH2 0x4114 SWAP4 DUP6 SWAP4 PUSH2 0x5904 JUMPI JUMPDEST POP PUSH1 0x60 DUP3 ADD MLOAD PUSH1 0x80 DUP4 ADD MLOAD PUSH1 0xA0 SWAP1 SWAP4 ADD MLOAD PUSH1 0x1 PUSH1 0x1 PUSH1 0xA0 SHL SUB SWAP4 DUP5 AND SWAP4 SWAP1 DUP2 AND SWAP2 AND PUSH2 0x58AE PUSH2 0x5117 JUMP JUMPDEST DUP9 MLOAD ISZERO PUSH2 0x58D5 JUMPI POP PUSH2 0x4104 PUSH2 0x410F SWAP3 PUSH8 0xDE0B6B3A7640000 PUSH2 0x40D8 PUSH2 0x16D SLOAD DUP13 MLOAD SWAP1 PUSH2 0x399A JUMP JUMPDEST PUSH2 0x178 SLOAD PUSH1 0x20 DUP11 ADD MLOAD PUSH2 0x410F SWAP5 POP SWAP2 SWAP3 SWAP2 PUSH2 0x58F9 SWAP2 PUSH1 0x1 PUSH1 0x1 PUSH1 0xA0 SHL SUB AND DUP5 PUSH2 0x51B0 JUMP JUMPDEST PUSH1 0x60 DUP10 ADD MLOAD SWAP2 PUSH2 0x51B0 JUMP JUMPDEST PUSH0 PUSH2 0x590E SWAP2 PUSH2 0x32DA JUMP JUMPDEST PUSH0 PUSH2 0x5884 JUMP JUMPDEST PUSH1 0x44 SWAP1 DUP7 PUSH1 0x40 MLOAD SWAP2 PUSH4 0x54CDE313 PUSH1 0xE0 SHL DUP4 MSTORE PUSH1 0x4 DUP4 ADD MSTORE PUSH1 0x24 DUP3 ADD MSTORE REVERT JUMPDEST SWAP1 SWAP2 PUSH2 0x597A PUSH2 0x4B44 PUSH2 0x956 PUSH2 0x964 PUSH2 0x4C21 SWAP7 PUSH2 0x594C PUSH2 0x3ECB JUMP JUMPDEST POP PUSH2 0x5955 PUSH2 0x41BD JUMP JUMPDEST PUSH2 0x595D PUSH2 0x5D55 JUMP JUMPDEST PUSH1 0x40 MLOAD PUSH4 0x178AAD2B PUSH1 0xE1 SHL PUSH1 0x20 DUP3 ADD MSTORE SWAP3 DUP4 SWAP2 DUP9 PUSH1 0x24 DUP5 ADD PUSH2 0x4DE2 JUMP JUMPDEST SWAP4 SWAP3 DUP1 SWAP3 SWAP7 SWAP2 SWAP6 DUP6 PUSH1 0x1 DUP1 PUSH1 0xA0 SHL SUB DUP3 MLOAD AND PUSH1 0x1 DUP1 PUSH1 0xA0 SHL SUB PUSH1 0x80 DUP5 ADD MLOAD AND PUSH1 0x1 DUP1 PUSH1 0xA0 SHL SUB PUSH1 0xA0 DUP6 ADD MLOAD AND SWAP2 PUSH32 0xA1062C9E887113838EDFBC65F23A4FD5CFEB240416670CDF3FA10BA3C85F251F DUP13 PUSH1 0x20 DUP8 ADD MLOAD PUSH2 0x5A3B DUP10 DUP9 MLOAD PUSH1 0x20 DUP11 ADD SWAP10 DUP11 MLOAD PUSH1 0x60 PUSH1 0x40 DUP4 ADD MLOAD SWAP3 ADD MLOAD SWAP3 DUP14 PUSH1 0xC0 PUSH1 0x1 DUP1 PUSH1 0xA0 SHL SUB SWAP2 ADD MLOAD AND SWAP5 PUSH1 0x40 MLOAD SWAP9 DUP10 SWAP9 DUP10 SWAP7 SWAP4 SWAP1 SWAP9 SWAP8 SWAP5 SWAP2 SWAP3 PUSH1 0xE0 SWAP7 SWAP4 PUSH2 0x100 DUP10 ADD SWAP11 DUP10 MSTORE PUSH1 0x20 DUP10 ADD MSTORE PUSH1 0x40 DUP9 ADD MSTORE PUSH1 0x60 DUP8 ADD MSTORE PUSH1 0x80 DUP7 ADD MSTORE PUSH1 0xA0 DUP6 ADD MSTORE PUSH1 0xC0 DUP5 ADD MSTORE PUSH1 0x1 DUP1 PUSH1 0xA0 SHL SUB AND SWAP2 ADD MSTORE JUMP JUMPDEST SUB SWAP1 LOG4 PUSH1 0x80 DUP3 ADD MLOAD PUSH1 0xA0 DUP4 ADD MLOAD PUSH1 0xC0 SWAP1 SWAP4 ADD MLOAD PUSH1 0x1 PUSH1 0x1 PUSH1 0xA0 SHL SUB SWAP4 DUP5 AND SWAP4 SWAP1 DUP2 AND SWAP3 SWAP2 AND SWAP1 PUSH2 0x5A69 PUSH2 0x5117 JUMP JUMPDEST DUP9 MLOAD ISZERO PUSH2 0x5A91 JUMPI POP POP PUSH2 0x410F SWAP1 PUSH2 0x4104 PUSH8 0xDE0B6B3A7640000 PUSH2 0x46E9 PUSH2 0x16D SLOAD DUP12 MLOAD SWAP1 PUSH2 0x399A JUMP JUMPDEST PUSH2 0x178 SLOAD SWAP1 MLOAD PUSH2 0x410F SWAP4 SWAP2 PUSH2 0x58F9 SWAP2 SWAP1 PUSH1 0x1 PUSH1 0x1 PUSH1 0xA0 SHL SUB AND DUP5 PUSH2 0x51B0 JUMP JUMPDEST SWAP1 PUSH1 0x40 MLOAD PUSH2 0x5ABF PUSH1 0x40 DUP3 PUSH2 0x32DA JUMP JUMPDEST PUSH1 0x20 PUSH1 0x1 DUP3 SWAP5 DUP1 SLOAD DUP5 MSTORE ADD SLOAD SWAP2 ADD MSTORE JUMP JUMPDEST PUSH2 0x5ADC DUP2 PUSH2 0x17A PUSH2 0x320F JUMP JUMPDEST SWAP1 SLOAD SWAP1 PUSH1 0x3 SHL SHR SWAP2 PUSH2 0x1BE SWAP2 PUSH2 0x5AF2 DUP2 DUP5 PUSH2 0x32C1 JUMP JUMPDEST POP SLOAD SWAP3 PUSH2 0x1BF SLOAD NUMBER LT ISZERO PUSH2 0x5B18 JUMPI JUMPDEST POP POP DUP1 DUP3 LT ISZERO PUSH2 0x3D66 JUMPI PUSH2 0x3B00 SWAP1 PUSH2 0x3285 SWAP4 PUSH2 0x399A JUMP JUMPDEST DUP3 SWAP4 POP PUSH2 0x5B2C PUSH2 0x5B37 SWAP4 SWAP3 PUSH2 0x5B32 SWAP3 PUSH2 0x32C1 JUMP JUMPDEST POP PUSH2 0x5AB0 JUMP JUMPDEST PUSH2 0x5B3F JUMP JUMPDEST SWAP1 PUSH0 DUP1 PUSH2 0x5B01 JUMP JUMPDEST PUSH1 0x20 DUP2 MLOAD SWAP2 ADD DUP1 MLOAD SWAP3 PUSH8 0xDE0B6B3A7640000 SWAP4 DUP5 SUB SWAP1 DUP5 DUP3 GT PUSH2 0x3868 JUMPI PUSH2 0x5B6C PUSH2 0x3905 SWAP3 PUSH2 0x38C0 SWAP6 PUSH2 0x399A JUMP JUMPDEST SWAP3 MLOAD PUSH2 0x399A JUMP JUMPDEST PUSH0 DUP1 PUSH2 0x169 SWAP2 DUP3 SLOAD SWAP3 PUSH2 0x5B85 DUP5 PUSH2 0x3A7D JUMP JUMPDEST SWAP4 DUP3 SWAP2 JUMPDEST DUP2 DUP4 LT PUSH2 0x5BB2 JUMPI POP POP POP DUP2 ISZERO PUSH2 0x5BA6 JUMPI SWAP1 PUSH2 0x5BA3 SWAP2 PUSH2 0x39AD JUMP JUMPDEST SWAP2 JUMP JUMPDEST POP POP PUSH2 0x17B SLOAD PUSH1 0x1 SHL SWAP2 JUMP JUMPDEST SWAP1 SWAP2 SWAP4 SWAP3 PUSH2 0x5BBF DUP6 PUSH2 0x3BB7 JUMP JUMPDEST SWAP1 DUP2 PUSH2 0x5BCB DUP8 DUP10 PUSH2 0x387C JUMP JUMPDEST MSTORE PUSH2 0x5BE4 PUSH2 0x5BD9 DUP4 DUP9 PUSH2 0x3936 JUMP JUMPDEST POP PUSH2 0x38F9 DUP9 DUP7 PUSH2 0x32C1 JUMP JUMPDEST PUSH8 0xDE0B6B3A7640000 SWAP1 DUP2 DUP2 MUL SWAP2 DUP2 DUP4 DIV EQ SWAP1 ISZERO OR ISZERO PUSH2 0x3868 JUMPI PUSH2 0x5C26 PUSH2 0x5C2C SWAP3 PUSH2 0x3905 DUP6 PUSH2 0x5C18 PUSH1 0x1 SWAP8 PUSH2 0x5C21 SWAP7 PUSH2 0x5D76 JUMP JUMPDEST SWAP5 DUP6 SWAP2 DUP13 PUSH2 0x5AD0 JUMP JUMPDEST PUSH2 0x399A JUMP JUMPDEST SWAP6 PUSH2 0x385B JUMP JUMPDEST SWAP5 ADD SWAP2 SWAP1 PUSH2 0x5B89 JUMP JUMPDEST PUSH2 0x1BF DUP1 SLOAD NUMBER LT ISZERO PUSH2 0x5C44 JUMPI POP JUMP JUMPDEST PUSH2 0x169 SLOAD PUSH0 JUMPDEST DUP2 DUP2 LT PUSH2 0x5C5D JUMPI POP POP PUSH2 0x1C0 SLOAD NUMBER ADD SWAP1 SSTORE JUMP JUMPDEST DUP1 DUP1 PUSH32 0x19156E9379C7BBBCE8F646CE5EE30BA860B8F954717405F3D5859A6C1A21AE60 PUSH1 0x1 SWAP4 PUSH2 0x1BE PUSH2 0x5C93 PUSH2 0x5B2C DUP4 DUP4 PUSH2 0x32C1 JUMP JUMPDEST SWAP1 PUSH2 0x5CB1 PUSH2 0x5CA9 PUSH2 0x5CA3 DUP6 PUSH2 0x3BB7 JUMP JUMPDEST DUP5 PUSH2 0x5B3F JUMP JUMPDEST SWAP4 DUP5 SWAP3 PUSH2 0x32C1 JUMP JUMPDEST POP SSTORE MLOAD PUSH1 0x40 SWAP2 DUP3 MLOAD SWAP2 DUP3 MSTORE PUSH1 0x20 DUP3 ADD MSTORE LOG2 ADD PUSH2 0x5C4A JUMP JUMPDEST PUSH1 0x97 SLOAD PUSH1 0x40 MLOAD PUSH4 0xD994D6D5 PUSH1 0xE0 SHL DUP2 MSTORE CALLER PUSH1 0x4 DUP3 ADD MSTORE SWAP1 PUSH1 0x20 SWAP1 DUP3 SWAP1 PUSH1 0x24 SWAP1 DUP3 SWAP1 PUSH1 0x1 PUSH1 0x1 PUSH1 0xA0 SHL SUB AND GAS STATICCALL SWAP1 DUP2 ISZERO PUSH2 0x3C8A JUMPI PUSH0 SWAP2 PUSH2 0x5D1C JUMPI JUMPDEST POP ISZERO PUSH2 0x5D0A JUMPI JUMP JUMPDEST PUSH1 0x40 MLOAD PUSH4 0x1DD1B1B5 PUSH1 0xE2 SHL DUP2 MSTORE PUSH1 0x4 SWAP1 REVERT JUMPDEST SWAP1 PUSH1 0x20 DUP3 RETURNDATASIZE DUP3 GT PUSH2 0x5D4D JUMPI JUMPDEST DUP2 PUSH2 0x5D35 PUSH1 0x20 SWAP4 DUP4 PUSH2 0x32DA JUMP JUMPDEST DUP2 ADD SUB SLT PUSH2 0x7AE JUMPI POP PUSH2 0x5D47 SWAP1 PUSH2 0x3BFE JUMP JUMPDEST PUSH0 PUSH2 0x5D02 JUMP JUMPDEST RETURNDATASIZE SWAP2 POP PUSH2 0x5D28 JUMP JUMPDEST PUSH1 0xFF PUSH1 0xCA SLOAD PUSH1 0x8 SHR AND PUSH2 0x5D64 JUMPI JUMP JUMPDEST PUSH1 0x40 MLOAD PUSH4 0x783BB6C9 PUSH1 0xE1 SHL DUP2 MSTORE PUSH1 0x4 SWAP1 REVERT JUMPDEST SWAP1 PUSH8 0xDE0B6B3A7640000 SWAP2 DUP3 DUP2 MUL SWAP3 DUP2 DUP5 DIV EQ SWAP1 ISZERO OR ISZERO PUSH2 0x3868 JUMPI PUSH2 0x3285 SWAP2 PUSH2 0x39AD JUMP JUMPDEST PUSH8 0xDE0B6B3A7640000 LT PUSH2 0x5DAA JUMPI JUMP JUMPDEST PUSH1 0x40 MLOAD PUSH4 0x2A9FFAB7 PUSH1 0xE2 SHL DUP2 MSTORE PUSH1 0x4 SWAP1 REVERT INVALID LOG2 PUSH5 0x6970667358 0x22 SLT KECCAK256 PUSH4 0x1F233B01 ISZERO DUP9 0xBB STATICCALL EXTCODEHASH 0xD6 0xFC REVERT SWAP11 DUP7 0x2C SELFBALANCE DUP7 0x4E PUSH19 0x9FA6C1207ED0195985AD1E3E64736F6C634300 ADDMOD EQ STOP CALLER "
    },
    "gasEstimates": {
      "creation": {
        "codeDepositCost": "4810000",
        "executionCost": "infinite",
        "totalCost": "infinite"
      },
      "external": {
        "absoluteAccumulator()": "4977",
        "addPeggedToken((address,address,uint256,uint256,uint256,uint256,uint256))": "infinite",
        "appreciationFactor()": "5417",
        "bes()": "3217",
        "bns()": "2557",
        "calcCtargemaCA()": "infinite",
        "changeGovernor(address)": "infinite",
        "decayBlockSpan()": "3767",
        "differentialAccumulator()": "3877",
        "editPeggedToken((address,address,uint256,uint256,uint256,uint256,uint256))": "infinite",
        "emaCalculationBlockSpan()": "4031",
        "evalLiquidation()": "infinite",
        "execSettlement()": "infinite",
        "feeRetainer()": "3261",
        "feeToken()": "3612",
        "feeTokenPct()": "2821",
        "feeTokenPriceProvider()": "5306",
        "getBts()": "5336",
        "getCglb()": "infinite",
        "getCustomMockValue()": "5609",
        "getLckAC()": "infinite",
        "getLeverageTC()": "infinite",
        "getPACtp(address)": "infinite",
        "getPTCac()": "infinite",
        "getTCAvailableToRedeem()": "infinite",
        "getTPAvailableToMint(address)": "infinite",
        "getTotalACavailable()": "infinite",
        "governor()": "2402",
        "initialize(((address,address,address,address,address,uint256,uint256,uint256,uint256,uint256,uint256,uint256,uint256,uint256,uint256,uint256,uint256,uint256,uint256,address,uint256,uint256,address,address,uint256),address,address,address,uint256,address))": "infinite",
        "initializeMock()": "23503",
        "isLiquidationReached()": "infinite",
        "lastOperationBlockNumber()": "3459",
        "liqEnabled()": "5209",
        "liqRedeemTP(address)": "infinite",
        "liqRedeemTPto(address,address)": "infinite",
        "liqThrld()": "4295",
        "liquidated()": "2685",
        "makeStoppable()": "infinite",
        "makeUnstoppable()": "infinite",
        "maxAbsoluteOpProvider()": "5262",
        "maxOpDiffProvider()": "4668",
        "maxQACToMintTP()": "infinite",
        "maxQACToRedeemTP()": "infinite",
        "mintTC(uint256)": "infinite",
        "mintTCViaVendor(uint256,address)": "infinite",
        "mintTCandTP(address,uint256)": "infinite",
        "mintTCandTPFee()": "3965",
        "mintTCandTPViaVendor(address,uint256,address)": "infinite",
        "mintTCandTPto(address,uint256,address)": "infinite",
        "mintTCandTPtoViaVendor(address,uint256,address,address)": "infinite",
        "mintTCto(uint256,address)": "infinite",
        "mintTCtoViaVendor(uint256,address,address)": "infinite",
        "mintTP(address,uint256)": "infinite",
        "mintTPViaVendor(address,uint256,address)": "infinite",
        "mintTPto(address,uint256,address)": "infinite",
        "mintTPtoViaVendor(address,uint256,address,address)": "infinite",
        "mocAppreciationBeneficiaryAddress()": "3260",
        "mocFeeFlowAddress()": "4426",
        "mocVendors()": "4140",
        "nACcb()": "5351",
        "nTCcb()": "3987",
        "newVariable()": "4317",
        "nextEmaCalculation()": "2403",
        "nextTCInterestPayment()": "4669",
        "pause()": "29561",
        "paused()": "3521",
        "pauser()": "4545",
        "pegContainer(uint256)": "9669",
        "peggedTokenIndex(address)": "6743",
        "protThrld()": "3745",
        "proxiableUUID()": "infinite",
        "redeemTC(uint256,uint256)": "infinite",
        "redeemTCViaVendor(uint256,uint256,address)": "infinite",
        "redeemTCandTP(address,uint256,uint256,uint256)": "infinite",
        "redeemTCandTPFee()": "5373",
        "redeemTCandTPViaVendor(address,uint256,uint256,uint256,address)": "infinite",
        "redeemTCandTPto(address,uint256,uint256,uint256,address)": "infinite",
        "redeemTCandTPtoViaVendor(address,uint256,uint256,uint256,address,address)": "infinite",
        "redeemTCto(uint256,uint256,address)": "infinite",
        "redeemTCtoViaVendor(uint256,uint256,address,address)": "infinite",
        "redeemTP(address,uint256,uint256)": "infinite",
        "redeemTPViaVendor(address,uint256,uint256,address)": "infinite",
        "redeemTPto(address,uint256,uint256,address)": "infinite",
        "redeemTPtoViaVendor(address,uint256,uint256,address,address)": "infinite",
        "setAppreciationFactor(uint256)": "infinite",
        "setBes(uint256)": "infinite",
        "setDecayBlockSpan(uint256)": "infinite",
        "setEmaCalculationBlockSpan(uint256)": "infinite",
        "setFeeRetainer(uint256)": "infinite",
        "setFeeTokenAddress(address)": "infinite",
        "setFeeTokenPct(uint256)": "infinite",
        "setFeeTokenPriceProviderAddress(address)": "infinite",
        "setLiqEnabled(bool)": "infinite",
        "setLiqThrld(uint256)": "infinite",
        "setMaxAbsoluteOpProviderAddress(address)": "infinite",
        "setMaxOpDiffProviderAddress(address)": "infinite",
        "setMintTCandTPFee(uint256)": "infinite",
        "setMocAppreciationBeneficiaryAddress(address)": "infinite",
        "setMocCoreExpansion(address)": "infinite",
        "setMocFeeFlowAddress(address)": "infinite",
        "setMocVendors(address)": "infinite",
        "setPauser(address)": "infinite",
        "setProtThrld(uint256)": "infinite",
        "setRedeemTCandTPFee(uint256)": "infinite",
        "setSuccessFee(uint256)": "infinite",
        "setSwapTCforTPFee(uint256)": "infinite",
        "setSwapTPforTCFee(uint256)": "infinite",
        "setSwapTPforTPFee(uint256)": "infinite",
        "setTCInterestCollectorAddress(address)": "infinite",
        "setTCInterestPaymentBlockSpan(uint256)": "infinite",
        "setTCInterestRate(uint256)": "infinite",
        "setTcMintFee(uint256)": "infinite",
        "setTcRedeemFee(uint256)": "infinite",
        "shouldCalculateEma()": "4567",
        "stoppable()": "4703",
        "successFee()": "3855",
        "swapTCforTP(address,uint256,uint256)": "infinite",
        "swapTCforTPFee()": "2755",
        "swapTCforTPViaVendor(address,uint256,uint256,address)": "infinite",
        "swapTCforTPto(address,uint256,uint256,address)": "infinite",
        "swapTCforTPtoViaVendor(address,uint256,uint256,address,address)": "infinite",
        "swapTPforTC(address,uint256,uint256)": "infinite",
        "swapTPforTCFee()": "2865",
        "swapTPforTCViaVendor(address,uint256,uint256,address)": "infinite",
        "swapTPforTCto(address,uint256,uint256,address)": "infinite",
        "swapTPforTCtoViaVendor(address,uint256,uint256,address,address)": "infinite",
        "swapTPforTP(address,address,uint256,uint256)": "infinite",
        "swapTPforTPFee()": "3085",
        "swapTPforTPViaVendor(address,address,uint256,uint256,address)": "infinite",
        "swapTPforTPto(address,address,uint256,uint256,address)": "infinite",
        "swapTPforTPtoViaVendor(address,address,uint256,uint256,address,address)": "infinite",
        "tcHoldersInterestPayment()": "infinite",
        "tcInterestCollectorAddress()": "4360",
        "tcInterestPaymentBlockSpan()": "4163",
        "tcInterestRate()": "2469",
        "tcMintFee()": "5500",
        "tcRedeemFee()": "4581",
        "tcToken()": "3590",
        "tpCtarg(uint256)": "8460",
        "tpEma(uint256)": "11650",
        "tpLiqPrices(uint256)": "7316",
        "tpMintFees(address)": "2823",
        "tpRedeemFees(address)": "5177",
        "tpTokens(uint256)": "6674",
        "unpause()": "26243",
        "updateEmas()": "infinite",
        "upgradeTo(address)": "infinite",
        "upgradeToAndCall(address,bytes)": "infinite"
      }
    },
    "methodIdentifiers": {
      "absoluteAccumulator()": "d87aab6f",
      "addPeggedToken((address,address,uint256,uint256,uint256,uint256,uint256))": "db796072",
      "appreciationFactor()": "fa6e83bd",
      "bes()": "4d977e78",
      "bns()": "1867e2f5",
      "calcCtargemaCA()": "662013f4",
      "changeGovernor(address)": "e4c0aaf4",
      "decayBlockSpan()": "6f30471f",
      "differentialAccumulator()": "76228055",
      "editPeggedToken((address,address,uint256,uint256,uint256,uint256,uint256))": "f26114aa",
      "emaCalculationBlockSpan()": "7a727fe8",
      "evalLiquidation()": "33421c38",
      "execSettlement()": "5c616a73",
      "feeRetainer()": "4f0f27ee",
      "feeToken()": "647846a5",
      "feeTokenPct()": "2ded50f0",
      "feeTokenPriceProvider()": "f13f4054",
      "getBts()": "e8859a15",
      "getCglb()": "826fcd58",
      "getCustomMockValue()": "57271f4d",
      "getLckAC()": "8f1a383a",
      "getLeverageTC()": "c039cc69",
      "getPACtp(address)": "fadda424",
      "getPTCac()": "1fb0dda0",
      "getTCAvailableToRedeem()": "4017936a",
      "getTPAvailableToMint(address)": "f88b1434",
      "getTotalACavailable()": "de8d520a",
      "governor()": "0c340a24",
      "initialize(((address,address,address,address,address,uint256,uint256,uint256,uint256,uint256,uint256,uint256,uint256,uint256,uint256,uint256,uint256,uint256,uint256,address,uint256,uint256,address,address,uint256),address,address,address,uint256,address))": "a586419c",
      "initializeMock()": "5e2a6065",
      "isLiquidationReached()": "9ad6659d",
      "lastOperationBlockNumber()": "5860ee63",
      "liqEnabled()": "e7c25978",
      "liqRedeemTP(address)": "17937f9b",
      "liqRedeemTPto(address,address)": "9bea71a4",
      "liqThrld()": "8cfa4241",
      "liquidated()": "23b98cde",
      "makeStoppable()": "68274357",
      "makeUnstoppable()": "5210570c",
      "maxAbsoluteOpProvider()": "ee1f438f",
      "maxOpDiffProvider()": "b5e9ea8c",
      "maxQACToMintTP()": "d6af11da",
      "maxQACToRedeemTP()": "7f13b998",
      "mintTC(uint256)": "31f64ec2",
      "mintTCViaVendor(uint256,address)": "d8233ecc",
      "mintTCandTP(address,uint256)": "4c6af8e8",
      "mintTCandTPFee()": "79f9a91c",
      "mintTCandTPViaVendor(address,uint256,address)": "960556f3",
      "mintTCandTPto(address,uint256,address)": "d471849b",
      "mintTCandTPtoViaVendor(address,uint256,address,address)": "79873a26",
      "mintTCto(uint256,address)": "b3903b39",
      "mintTCtoViaVendor(uint256,address,address)": "fb3bfcea",
      "mintTP(address,uint256)": "243d56a5",
      "mintTPViaVendor(address,uint256,address)": "3b0d5fff",
      "mintTPto(address,uint256,address)": "51a9cedc",
      "mintTPtoViaVendor(address,uint256,address,address)": "dd9928d8",
      "mocAppreciationBeneficiaryAddress()": "4e1f907a",
      "mocFeeFlowAddress()": "9853c35a",
      "mocVendors()": "7f01c715",
      "nACcb()": "f30b5614",
      "nTCcb()": "7a193c31",
      "newVariable()": "8d7a72f3",
      "nextEmaCalculation()": "0c36d897",
      "nextTCInterestPayment()": "b9fa6413",
      "pause()": "8456cb59",
      "paused()": "5c975abb",
      "pauser()": "9fd0506d",
      "pegContainer(uint256)": "4b746001",
      "peggedTokenIndex(address)": "9cabfc00",
      "protThrld()": "6b5488df",
      "proxiableUUID()": "52d1902d",
      "redeemTC(uint256,uint256)": "9abb14c9",
      "redeemTCViaVendor(uint256,uint256,address)": "471a80e3",
      "redeemTCandTP(address,uint256,uint256,uint256)": "34246862",
      "redeemTCandTPFee()": "f375cfba",
      "redeemTCandTPViaVendor(address,uint256,uint256,uint256,address)": "aeb41e69",
      "redeemTCandTPto(address,uint256,uint256,uint256,address)": "fd80fa77",
      "redeemTCandTPtoViaVendor(address,uint256,uint256,uint256,address,address)": "5ece17ef",
      "redeemTCto(uint256,uint256,address)": "e4012945",
      "redeemTCtoViaVendor(uint256,uint256,address,address)": "3dbc50a9",
      "redeemTP(address,uint256,uint256)": "466b8934",
      "redeemTPViaVendor(address,uint256,uint256,address)": "8acc2011",
      "redeemTPto(address,uint256,uint256,address)": "52e18f8f",
      "redeemTPtoViaVendor(address,uint256,uint256,address,address)": "89fd503e",
      "setAppreciationFactor(uint256)": "01dde6ef",
      "setBes(uint256)": "c84353c9",
      "setDecayBlockSpan(uint256)": "73e28af9",
      "setEmaCalculationBlockSpan(uint256)": "3bc4ac0a",
      "setFeeRetainer(uint256)": "7750ba0c",
      "setFeeTokenAddress(address)": "cf351c1d",
      "setFeeTokenPct(uint256)": "543aeb48",
      "setFeeTokenPriceProviderAddress(address)": "0f1e5e2b",
      "setLiqEnabled(bool)": "1fe6a7ad",
      "setLiqThrld(uint256)": "2c43bd3b",
      "setMaxAbsoluteOpProviderAddress(address)": "d8db6f5a",
      "setMaxOpDiffProviderAddress(address)": "85bf9593",
      "setMintTCandTPFee(uint256)": "2069f753",
      "setMocAppreciationBeneficiaryAddress(address)": "27eab2a1",
      "setMocCoreExpansion(address)": "e6a683e0",
      "setMocFeeFlowAddress(address)": "0d6ac463",
      "setMocVendors(address)": "533a4bea",
      "setPauser(address)": "2d88af4a",
      "setProtThrld(uint256)": "7cba2383",
      "setRedeemTCandTPFee(uint256)": "7a4ff1d9",
      "setSuccessFee(uint256)": "becaca6b",
      "setSwapTCforTPFee(uint256)": "7af5758c",
      "setSwapTPforTCFee(uint256)": "0e0a8fd2",
      "setSwapTPforTPFee(uint256)": "70713468",
      "setTCInterestCollectorAddress(address)": "735d3960",
      "setTCInterestPaymentBlockSpan(uint256)": "073763b9",
      "setTCInterestRate(uint256)": "64ec230a",
      "setTcMintFee(uint256)": "f2808778",
      "setTcRedeemFee(uint256)": "c00f538d",
      "shouldCalculateEma()": "a8e9ac30",
      "stoppable()": "bb4872de",
      "successFee()": "7554fffd",
      "swapTCforTP(address,uint256,uint256)": "eedd8a40",
      "swapTCforTPFee()": "2a20d57d",
      "swapTCforTPViaVendor(address,uint256,uint256,address)": "cc75b048",
      "swapTCforTPto(address,uint256,uint256,address)": "69d9c2f2",
      "swapTCforTPtoViaVendor(address,uint256,uint256,address,address)": "7636bb09",
      "swapTPforTC(address,uint256,uint256)": "1af4b229",
      "swapTPforTCFee()": "333431fd",
      "swapTPforTCViaVendor(address,uint256,uint256,address)": "bf1ad8b1",
      "swapTPforTCto(address,uint256,uint256,address)": "68748a42",
      "swapTPforTCtoViaVendor(address,uint256,uint256,address,address)": "4a587124",
      "swapTPforTP(address,address,uint256,uint256)": "c0d8e15e",
      "swapTPforTPFee()": "407f0e34",
      "swapTPforTPViaVendor(address,address,uint256,uint256,address)": "0d10ebe9",
      "swapTPforTPto(address,address,uint256,uint256,address)": "68a09e13",
      "swapTPforTPtoViaVendor(address,address,uint256,uint256,address,address)": "0b69640d",
      "tcHoldersInterestPayment()": "0579188f",
      "tcInterestCollectorAddress()": "8e2bdb86",
      "tcInterestPaymentBlockSpan()": "7f4a4fe0",
      "tcInterestRate()": "0db49656",
      "tcMintFee()": "fda70f8b",
      "tcRedeemFee()": "aea038dc",
      "tcToken()": "60009e0b",
      "tpCtarg(uint256)": "7d8e0314",
      "tpEma(uint256)": "e6b1627c",
      "tpLiqPrices(uint256)": "3915edcb",
      "tpMintFees(address)": "24ffaba3",
      "tpRedeemFees(address)": "ddb6d190",
      "tpTokens(uint256)": "01f1b684",
      "unpause()": "3f4ba83a",
      "updateEmas()": "d1a0faa0",
      "upgradeTo(address)": "3659cfe6",
      "upgradeToAndCall(address,bytes)": "4f1ef286"
    }
  },
  "storageLayout": {
    "storage": [
      {
        "astId": 950,
        "contract": "contracts/mocks/upgradeability/MocUpgradeMocks.sol:MocCoinbaseMock",
        "label": "_initialized",
        "offset": 0,
        "slot": "0",
        "type": "t_uint8"
      },
      {
        "astId": 953,
        "contract": "contracts/mocks/upgradeability/MocUpgradeMocks.sol:MocCoinbaseMock",
        "label": "_initializing",
        "offset": 1,
        "slot": "0",
        "type": "t_bool"
      },
      {
        "astId": 932,
        "contract": "contracts/mocks/upgradeability/MocUpgradeMocks.sol:MocCoinbaseMock",
        "label": "__gap",
        "offset": 0,
        "slot": "1",
        "type": "t_array(t_uint256)50_storage"
      },
      {
        "astId": 1247,
        "contract": "contracts/mocks/upgradeability/MocUpgradeMocks.sol:MocCoinbaseMock",
        "label": "__gap",
        "offset": 0,
        "slot": "51",
        "type": "t_array(t_uint256)50_storage"
      },
      {
        "astId": 30317,
        "contract": "contracts/mocks/upgradeability/MocUpgradeMocks.sol:MocCoinbaseMock",
        "label": "__gap",
        "offset": 0,
        "slot": "101",
        "type": "t_array(t_uint256)50_storage"
      },
      {
        "astId": 24622,
        "contract": "contracts/mocks/upgradeability/MocUpgradeMocks.sol:MocCoinbaseMock",
        "label": "governor",
        "offset": 0,
        "slot": "151",
        "type": "t_contract(IGovernor)25471"
      },
      {
        "astId": 24693,
        "contract": "contracts/mocks/upgradeability/MocUpgradeMocks.sol:MocCoinbaseMock",
        "label": "__gap",
        "offset": 0,
        "slot": "152",
        "type": "t_array(t_uint256)50_storage"
      },
      {
        "astId": 24762,
        "contract": "contracts/mocks/upgradeability/MocUpgradeMocks.sol:MocCoinbaseMock",
        "label": "stoppable",
        "offset": 0,
        "slot": "202",
        "type": "t_bool"
      },
      {
        "astId": 24764,
        "contract": "contracts/mocks/upgradeability/MocUpgradeMocks.sol:MocCoinbaseMock",
        "label": "_paused",
        "offset": 1,
        "slot": "202",
        "type": "t_bool"
      },
      {
        "astId": 24766,
        "contract": "contracts/mocks/upgradeability/MocUpgradeMocks.sol:MocCoinbaseMock",
        "label": "pauser",
        "offset": 2,
        "slot": "202",
        "type": "t_address"
      },
      {
        "astId": 24925,
        "contract": "contracts/mocks/upgradeability/MocUpgradeMocks.sol:MocCoinbaseMock",
        "label": "__gap",
        "offset": 0,
        "slot": "203",
        "type": "t_array(t_uint256)50_storage"
      },
      {
        "astId": 24744,
        "contract": "contracts/mocks/upgradeability/MocUpgradeMocks.sol:MocCoinbaseMock",
        "label": "__gap",
        "offset": 0,
        "slot": "253",
        "type": "t_array(t_uint256)50_storage"
      },
      {
        "astId": 1389,
        "contract": "contracts/mocks/upgradeability/MocUpgradeMocks.sol:MocCoinbaseMock",
        "label": "_status",
        "offset": 0,
        "slot": "303",
        "type": "t_uint256"
      },
      {
        "astId": 1458,
        "contract": "contracts/mocks/upgradeability/MocUpgradeMocks.sol:MocCoinbaseMock",
        "label": "__gap",
        "offset": 0,
        "slot": "304",
        "type": "t_array(t_uint256)49_storage"
      },
      {
        "astId": 14169,
        "contract": "contracts/mocks/upgradeability/MocUpgradeMocks.sol:MocCoinbaseMock",
        "label": "feeToken",
        "offset": 0,
        "slot": "353",
        "type": "t_contract(IERC20)6209"
      },
      {
        "astId": 14172,
        "contract": "contracts/mocks/upgradeability/MocUpgradeMocks.sol:MocCoinbaseMock",
        "label": "feeTokenPriceProvider",
        "offset": 0,
        "slot": "354",
        "type": "t_contract(IPriceProvider)25509"
      },
      {
        "astId": 14174,
        "contract": "contracts/mocks/upgradeability/MocUpgradeMocks.sol:MocCoinbaseMock",
        "label": "nACcb",
        "offset": 0,
        "slot": "355",
        "type": "t_uint256"
      },
      {
        "astId": 14176,
        "contract": "contracts/mocks/upgradeability/MocUpgradeMocks.sol:MocCoinbaseMock",
        "label": "nACioucb",
        "offset": 0,
        "slot": "356",
        "type": "t_uint256"
      },
      {
        "astId": 14179,
        "contract": "contracts/mocks/upgradeability/MocUpgradeMocks.sol:MocCoinbaseMock",
        "label": "tcToken",
        "offset": 0,
        "slot": "357",
        "type": "t_contract(MocTC)30142"
      },
      {
        "astId": 14181,
        "contract": "contracts/mocks/upgradeability/MocUpgradeMocks.sol:MocCoinbaseMock",
        "label": "nTCcb",
        "offset": 0,
        "slot": "358",
        "type": "t_uint256"
      },
      {
        "astId": 14185,
        "contract": "contracts/mocks/upgradeability/MocUpgradeMocks.sol:MocCoinbaseMock",
        "label": "tpTokens",
        "offset": 0,
        "slot": "359",
        "type": "t_array(t_contract(IMocRC20)25497)dyn_storage"
      },
      {
        "astId": 14190,
        "contract": "contracts/mocks/upgradeability/MocUpgradeMocks.sol:MocCoinbaseMock",
        "label": "peggedTokenIndex",
        "offset": 0,
        "slot": "360",
        "type": "t_mapping(t_address,t_struct(PeggedTokenIndex)14115_storage)"
      },
      {
        "astId": 14194,
        "contract": "contracts/mocks/upgradeability/MocUpgradeMocks.sol:MocCoinbaseMock",
        "label": "pegContainer",
        "offset": 0,
        "slot": "361",
        "type": "t_array(t_struct(PegContainerItem)14110_storage)dyn_storage"
      },
      {
        "astId": 14197,
        "contract": "contracts/mocks/upgradeability/MocUpgradeMocks.sol:MocCoinbaseMock",
        "label": "tpLiqPrices",
        "offset": 0,
        "slot": "362",
        "type": "t_array(t_uint256)dyn_storage"
      },
      {
        "astId": 14199,
        "contract": "contracts/mocks/upgradeability/MocUpgradeMocks.sol:MocCoinbaseMock",
        "label": "successFee",
        "offset": 0,
        "slot": "363",
        "type": "t_uint256"
      },
      {
        "astId": 14201,
        "contract": "contracts/mocks/upgradeability/MocUpgradeMocks.sol:MocCoinbaseMock",
        "label": "appreciationFactor",
        "offset": 0,
        "slot": "364",
        "type": "t_uint256"
      },
      {
        "astId": 14203,
        "contract": "contracts/mocks/upgradeability/MocUpgradeMocks.sol:MocCoinbaseMock",
        "label": "feeRetainer",
        "offset": 0,
        "slot": "365",
        "type": "t_uint256"
      },
      {
        "astId": 14205,
        "contract": "contracts/mocks/upgradeability/MocUpgradeMocks.sol:MocCoinbaseMock",
        "label": "tcMintFee",
        "offset": 0,
        "slot": "366",
        "type": "t_uint256"
      },
      {
        "astId": 14207,
        "contract": "contracts/mocks/upgradeability/MocUpgradeMocks.sol:MocCoinbaseMock",
        "label": "tcRedeemFee",
        "offset": 0,
        "slot": "367",
        "type": "t_uint256"
      },
      {
        "astId": 14209,
        "contract": "contracts/mocks/upgradeability/MocUpgradeMocks.sol:MocCoinbaseMock",
        "label": "swapTPforTPFee",
        "offset": 0,
        "slot": "368",
        "type": "t_uint256"
      },
      {
        "astId": 14211,
        "contract": "contracts/mocks/upgradeability/MocUpgradeMocks.sol:MocCoinbaseMock",
        "label": "swapTPforTCFee",
        "offset": 0,
        "slot": "369",
        "type": "t_uint256"
      },
      {
        "astId": 14213,
        "contract": "contracts/mocks/upgradeability/MocUpgradeMocks.sol:MocCoinbaseMock",
        "label": "swapTCforTPFee",
        "offset": 0,
        "slot": "370",
        "type": "t_uint256"
      },
      {
        "astId": 14215,
        "contract": "contracts/mocks/upgradeability/MocUpgradeMocks.sol:MocCoinbaseMock",
        "label": "redeemTCandTPFee",
        "offset": 0,
        "slot": "371",
        "type": "t_uint256"
      },
      {
        "astId": 14217,
        "contract": "contracts/mocks/upgradeability/MocUpgradeMocks.sol:MocCoinbaseMock",
        "label": "mintTCandTPFee",
        "offset": 0,
        "slot": "372",
        "type": "t_uint256"
      },
      {
        "astId": 14219,
        "contract": "contracts/mocks/upgradeability/MocUpgradeMocks.sol:MocCoinbaseMock",
        "label": "feeTokenPct",
        "offset": 0,
        "slot": "373",
        "type": "t_uint256"
      },
      {
        "astId": 14223,
        "contract": "contracts/mocks/upgradeability/MocUpgradeMocks.sol:MocCoinbaseMock",
        "label": "tpMintFees",
        "offset": 0,
        "slot": "374",
        "type": "t_mapping(t_address,t_uint256)"
      },
      {
        "astId": 14227,
        "contract": "contracts/mocks/upgradeability/MocUpgradeMocks.sol:MocCoinbaseMock",
        "label": "tpRedeemFees",
        "offset": 0,
        "slot": "375",
        "type": "t_mapping(t_address,t_uint256)"
      },
      {
        "astId": 14229,
        "contract": "contracts/mocks/upgradeability/MocUpgradeMocks.sol:MocCoinbaseMock",
        "label": "mocFeeFlowAddress",
        "offset": 0,
        "slot": "376",
        "type": "t_address"
      },
      {
        "astId": 14231,
        "contract": "contracts/mocks/upgradeability/MocUpgradeMocks.sol:MocCoinbaseMock",
        "label": "mocAppreciationBeneficiaryAddress",
        "offset": 0,
        "slot": "377",
        "type": "t_address"
      },
      {
        "astId": 14234,
        "contract": "contracts/mocks/upgradeability/MocUpgradeMocks.sol:MocCoinbaseMock",
        "label": "tpCtarg",
        "offset": 0,
        "slot": "378",
        "type": "t_array(t_uint256)dyn_storage"
      },
      {
        "astId": 14236,
        "contract": "contracts/mocks/upgradeability/MocUpgradeMocks.sol:MocCoinbaseMock",
        "label": "protThrld",
        "offset": 0,
        "slot": "379",
        "type": "t_uint256"
      },
      {
        "astId": 14238,
        "contract": "contracts/mocks/upgradeability/MocUpgradeMocks.sol:MocCoinbaseMock",
        "label": "liqThrld",
        "offset": 0,
        "slot": "380",
        "type": "t_uint256"
      },
      {
        "astId": 14240,
        "contract": "contracts/mocks/upgradeability/MocUpgradeMocks.sol:MocCoinbaseMock",
        "label": "liqEnabled",
        "offset": 0,
        "slot": "381",
        "type": "t_bool"
      },
      {
        "astId": 14242,
        "contract": "contracts/mocks/upgradeability/MocUpgradeMocks.sol:MocCoinbaseMock",
        "label": "liquidated",
        "offset": 1,
        "slot": "381",
        "type": "t_bool"
      },
      {
        "astId": 14244,
        "contract": "contracts/mocks/upgradeability/MocUpgradeMocks.sol:MocCoinbaseMock",
        "label": "bes",
        "offset": 0,
        "slot": "382",
        "type": "t_uint256"
      },
      {
        "astId": 14246,
        "contract": "contracts/mocks/upgradeability/MocUpgradeMocks.sol:MocCoinbaseMock",
        "label": "bns",
        "offset": 0,
        "slot": "383",
        "type": "t_uint256"
      },
      {
        "astId": 14249,
        "contract": "contracts/mocks/upgradeability/MocUpgradeMocks.sol:MocCoinbaseMock",
        "label": "tpiou",
        "offset": 0,
        "slot": "384",
        "type": "t_array(t_int256)dyn_storage"
      },
      {
        "astId": 14252,
        "contract": "contracts/mocks/upgradeability/MocUpgradeMocks.sol:MocCoinbaseMock",
        "label": "pACtpLstop",
        "offset": 0,
        "slot": "385",
        "type": "t_array(t_uint256)dyn_storage"
      },
      {
        "astId": 14255,
        "contract": "contracts/mocks/upgradeability/MocUpgradeMocks.sol:MocCoinbaseMock",
        "label": "maxAbsoluteOpProvider",
        "offset": 0,
        "slot": "386",
        "type": "t_contract(IDataProvider)25425"
      },
      {
        "astId": 14258,
        "contract": "contracts/mocks/upgradeability/MocUpgradeMocks.sol:MocCoinbaseMock",
        "label": "maxOpDiffProvider",
        "offset": 0,
        "slot": "387",
        "type": "t_contract(IDataProvider)25425"
      },
      {
        "astId": 14260,
        "contract": "contracts/mocks/upgradeability/MocUpgradeMocks.sol:MocCoinbaseMock",
        "label": "decayBlockSpan",
        "offset": 0,
        "slot": "388",
        "type": "t_uint256"
      },
      {
        "astId": 14262,
        "contract": "contracts/mocks/upgradeability/MocUpgradeMocks.sol:MocCoinbaseMock",
        "label": "absoluteAccumulator",
        "offset": 0,
        "slot": "389",
        "type": "t_uint256"
      },
      {
        "astId": 14264,
        "contract": "contracts/mocks/upgradeability/MocUpgradeMocks.sol:MocCoinbaseMock",
        "label": "differentialAccumulator",
        "offset": 0,
        "slot": "390",
        "type": "t_int256"
      },
      {
        "astId": 14266,
        "contract": "contracts/mocks/upgradeability/MocUpgradeMocks.sol:MocCoinbaseMock",
        "label": "lastOperationBlockNumber",
        "offset": 0,
        "slot": "391",
        "type": "t_uint256"
      },
      {
        "astId": 14268,
        "contract": "contracts/mocks/upgradeability/MocUpgradeMocks.sol:MocCoinbaseMock",
        "label": "tcInterestCollectorAddress",
        "offset": 0,
        "slot": "392",
        "type": "t_address"
      },
      {
        "astId": 14270,
        "contract": "contracts/mocks/upgradeability/MocUpgradeMocks.sol:MocCoinbaseMock",
        "label": "tcInterestRate",
        "offset": 0,
        "slot": "393",
        "type": "t_uint256"
      },
      {
        "astId": 14272,
        "contract": "contracts/mocks/upgradeability/MocUpgradeMocks.sol:MocCoinbaseMock",
        "label": "tcInterestPaymentBlockSpan",
        "offset": 0,
        "slot": "394",
        "type": "t_uint256"
      },
      {
        "astId": 14274,
        "contract": "contracts/mocks/upgradeability/MocUpgradeMocks.sol:MocCoinbaseMock",
        "label": "nextTCInterestPayment",
        "offset": 0,
        "slot": "395",
        "type": "t_uint256"
      },
      {
        "astId": 15897,
        "contract": "contracts/mocks/upgradeability/MocUpgradeMocks.sol:MocCoinbaseMock",
        "label": "__gap",
        "offset": 0,
        "slot": "396",
        "type": "t_array(t_uint256)50_storage"
      },
      {
        "astId": 20960,
        "contract": "contracts/mocks/upgradeability/MocUpgradeMocks.sol:MocCoinbaseMock",
        "label": "tpEma",
        "offset": 0,
        "slot": "446",
        "type": "t_array(t_struct(EmaItem)20956_storage)dyn_storage"
      },
      {
        "astId": 20962,
        "contract": "contracts/mocks/upgradeability/MocUpgradeMocks.sol:MocCoinbaseMock",
        "label": "nextEmaCalculation",
        "offset": 0,
        "slot": "447",
        "type": "t_uint256"
      },
      {
        "astId": 20964,
        "contract": "contracts/mocks/upgradeability/MocUpgradeMocks.sol:MocCoinbaseMock",
        "label": "emaCalculationBlockSpan",
        "offset": 0,
        "slot": "448",
        "type": "t_uint256"
      },
      {
        "astId": 21336,
        "contract": "contracts/mocks/upgradeability/MocUpgradeMocks.sol:MocCoinbaseMock",
        "label": "__gap",
        "offset": 0,
        "slot": "449",
        "type": "t_array(t_uint256)50_storage"
      },
      {
        "astId": 15931,
        "contract": "contracts/mocks/upgradeability/MocUpgradeMocks.sol:MocCoinbaseMock",
        "label": "mocVendors",
        "offset": 0,
        "slot": "499",
        "type": "t_contract(MocVendors)30538"
      },
      {
        "astId": 16804,
        "contract": "contracts/mocks/upgradeability/MocUpgradeMocks.sol:MocCoinbaseMock",
        "label": "__gap",
        "offset": 0,
        "slot": "500",
        "type": "t_array(t_uint256)50_storage"
      },
      {
        "astId": 16853,
        "contract": "contracts/mocks/upgradeability/MocUpgradeMocks.sol:MocCoinbaseMock",
        "label": "mocCoreExpansion",
        "offset": 0,
        "slot": "550",
        "type": "t_address"
      },
      {
        "astId": 18663,
        "contract": "contracts/mocks/upgradeability/MocUpgradeMocks.sol:MocCoinbaseMock",
        "label": "__gap",
        "offset": 0,
        "slot": "551",
        "type": "t_array(t_uint256)50_storage"
      },
      {
        "astId": 20933,
        "contract": "contracts/mocks/upgradeability/MocUpgradeMocks.sol:MocCoinbaseMock",
        "label": "__gap",
        "offset": 0,
        "slot": "601",
        "type": "t_array(t_uint256)50_storage"
      },
      {
        "astId": 10979,
        "contract": "contracts/mocks/upgradeability/MocUpgradeMocks.sol:MocCoinbaseMock",
        "label": "__gap",
        "offset": 0,
        "slot": "651",
        "type": "t_array(t_uint256)50_storage"
      },
      {
        "astId": 26795,
        "contract": "contracts/mocks/upgradeability/MocUpgradeMocks.sol:MocCoinbaseMock",
        "label": "newVariable",
        "offset": 0,
        "slot": "701",
        "type": "t_uint256"
      }
    ],
    "types": {
      "t_address": {
        "encoding": "inplace",
        "label": "address",
        "numberOfBytes": "20"
      },
      "t_array(t_contract(IMocRC20)25497)dyn_storage": {
        "base": "t_contract(IMocRC20)25497",
        "encoding": "dynamic_array",
        "label": "contract IMocRC20[]",
        "numberOfBytes": "32"
      },
      "t_array(t_int256)dyn_storage": {
        "base": "t_int256",
        "encoding": "dynamic_array",
        "label": "int256[]",
        "numberOfBytes": "32"
      },
      "t_array(t_struct(EmaItem)20956_storage)dyn_storage": {
        "base": "t_struct(EmaItem)20956_storage",
        "encoding": "dynamic_array",
        "label": "struct MocEma.EmaItem[]",
        "numberOfBytes": "32"
      },
      "t_array(t_struct(PegContainerItem)14110_storage)dyn_storage": {
        "base": "t_struct(PegContainerItem)14110_storage",
        "encoding": "dynamic_array",
        "label": "struct MocBaseBucket.PegContainerItem[]",
        "numberOfBytes": "32"
      },
      "t_array(t_uint256)49_storage": {
        "base": "t_uint256",
        "encoding": "inplace",
        "label": "uint256[49]",
        "numberOfBytes": "1568"
      },
      "t_array(t_uint256)50_storage": {
        "base": "t_uint256",
        "encoding": "inplace",
        "label": "uint256[50]",
        "numberOfBytes": "1600"
      },
      "t_array(t_uint256)dyn_storage": {
        "base": "t_uint256",
        "encoding": "dynamic_array",
        "label": "uint256[]",
        "numberOfBytes": "32"
      },
      "t_bool": {
        "encoding": "inplace",
        "label": "bool",
        "numberOfBytes": "1"
      },
      "t_contract(IDataProvider)25425": {
        "encoding": "inplace",
        "label": "contract IDataProvider",
        "numberOfBytes": "20"
      },
      "t_contract(IERC20)6209": {
        "encoding": "inplace",
        "label": "contract IERC20",
        "numberOfBytes": "20"
      },
      "t_contract(IGovernor)25471": {
        "encoding": "inplace",
        "label": "contract IGovernor",
        "numberOfBytes": "20"
      },
      "t_contract(IMocRC20)25497": {
        "encoding": "inplace",
        "label": "contract IMocRC20",
        "numberOfBytes": "20"
      },
      "t_contract(IPriceProvider)25509": {
        "encoding": "inplace",
        "label": "contract IPriceProvider",
        "numberOfBytes": "20"
      },
      "t_contract(MocTC)30142": {
        "encoding": "inplace",
        "label": "contract MocTC",
        "numberOfBytes": "20"
      },
      "t_contract(MocVendors)30538": {
        "encoding": "inplace",
        "label": "contract MocVendors",
        "numberOfBytes": "20"
      },
      "t_int256": {
        "encoding": "inplace",
        "label": "int256",
        "numberOfBytes": "32"
      },
      "t_mapping(t_address,t_struct(PeggedTokenIndex)14115_storage)": {
        "encoding": "mapping",
        "key": "t_address",
        "label": "mapping(address => struct MocBaseBucket.PeggedTokenIndex)",
        "numberOfBytes": "32",
        "value": "t_struct(PeggedTokenIndex)14115_storage"
      },
      "t_mapping(t_address,t_uint256)": {
        "encoding": "mapping",
        "key": "t_address",
        "label": "mapping(address => uint256)",
        "numberOfBytes": "32",
        "value": "t_uint256"
      },
      "t_struct(EmaItem)20956_storage": {
        "encoding": "inplace",
        "label": "struct MocEma.EmaItem",
        "members": [
          {
            "astId": 20953,
            "contract": "contracts/mocks/upgradeability/MocUpgradeMocks.sol:MocCoinbaseMock",
            "label": "ema",
            "offset": 0,
            "slot": "0",
            "type": "t_uint256"
          },
          {
            "astId": 20955,
            "contract": "contracts/mocks/upgradeability/MocUpgradeMocks.sol:MocCoinbaseMock",
            "label": "sf",
            "offset": 0,
            "slot": "1",
            "type": "t_uint256"
          }
        ],
        "numberOfBytes": "64"
      },
      "t_struct(PegContainerItem)14110_storage": {
        "encoding": "inplace",
        "label": "struct MocBaseBucket.PegContainerItem",
        "members": [
          {
            "astId": 14106,
            "contract": "contracts/mocks/upgradeability/MocUpgradeMocks.sol:MocCoinbaseMock",
            "label": "nTP",
            "offset": 0,
            "slot": "0",
            "type": "t_uint256"
          },
          {
            "astId": 14109,
            "contract": "contracts/mocks/upgradeability/MocUpgradeMocks.sol:MocCoinbaseMock",
            "label": "priceProvider",
            "offset": 0,
            "slot": "1",
            "type": "t_contract(IPriceProvider)25509"
          }
        ],
        "numberOfBytes": "64"
      },
      "t_struct(PeggedTokenIndex)14115_storage": {
        "encoding": "inplace",
        "label": "struct MocBaseBucket.PeggedTokenIndex",
        "members": [
          {
            "astId": 14112,
            "contract": "contracts/mocks/upgradeability/MocUpgradeMocks.sol:MocCoinbaseMock",
            "label": "index",
            "offset": 0,
            "slot": "0",
            "type": "t_uint256"
          },
          {
            "astId": 14114,
            "contract": "contracts/mocks/upgradeability/MocUpgradeMocks.sol:MocCoinbaseMock",
            "label": "exists",
            "offset": 0,
            "slot": "1",
            "type": "t_bool"
          }
        ],
        "numberOfBytes": "64"
      },
      "t_uint256": {
        "encoding": "inplace",
        "label": "uint256",
        "numberOfBytes": "32"
      },
      "t_uint8": {
        "encoding": "inplace",
        "label": "uint8",
        "numberOfBytes": "1"
      }
    }
  },
  "userdoc": {
    "kind": "user",
    "methods": {
      "addPeggedToken((address,address,uint256,uint256,uint256,uint256,uint256))": {
        "notice": "add a Pegged Token to the protocol"
      },
      "calcCtargemaCA()": {
        "notice": "calculates target coverage adjusted by all Pegged Token's to Collateral Asset rate moving average"
      },
      "changeGovernor(address)": {
        "notice": "Change the contract's governor. Should be called through the old governance system"
      },
      "editPeggedToken((address,address,uint256,uint256,uint256,uint256,uint256))": {
        "notice": "modifies a Pegged Token of the protocol"
      },
      "evalLiquidation()": {
        "notice": "evaluates if liquidation threshold has been reached and liq is Enabled. If so forces contracts liquidation, blocking all mint & redeem operations. May emit a {ContractLiquidated} event."
      },
      "execSettlement()": {
        "notice": "this function is executed during settlement.  stores amount of locked AC by Pegged Tokens at this moment and distribute success fee"
      },
      "getBts()": {
        "notice": "get the number of blocks remaining for settlement"
      },
      "getCglb()": {
        "notice": "get bucket global coverage"
      },
      "getLckAC()": {
        "notice": "get amount of Collateral Asset locked by Pegged Token"
      },
      "getLeverageTC()": {
        "notice": "get Collateral Token leverage"
      },
      "getPACtp(address)": {
        "notice": "get how many Pegged Token equal 1 Collateral Asset"
      },
      "getPTCac()": {
        "notice": "get Collateral Token price"
      },
      "getTCAvailableToRedeem()": {
        "notice": "get amount of Collateral Token available to redeem"
      },
      "getTPAvailableToMint(address)": {
        "notice": "get amount of Pegged Token available to mint"
      },
      "getTotalACavailable()": {
        "notice": "get total Collateral Asset available"
      },
      "governor()": {
        "notice": "The address of the contract which governs this one"
      },
      "initialize(((address,address,address,address,address,uint256,uint256,uint256,uint256,uint256,uint256,uint256,uint256,uint256,uint256,uint256,uint256,uint256,uint256,address,uint256,uint256,address,address,uint256),address,address,address,uint256,address))": {
        "notice": "contract initializer"
      },
      "isLiquidationReached()": {
        "notice": "If liquidation is enabled, verifies if forced liquidation has been reached, checking if globalCoverage <= liquidation"
      },
      "liqRedeemTP(address)": {
        "notice": "Allow redeem on liquidation state, user Peg balance gets burned and he receives the equivalent AC given the liquidation frozen price."
      },
      "liqRedeemTPto(address,address)": {
        "notice": "Allow redeem on liquidation state, user Peg balance gets burned and he receives the equivalent AC given the liquidation frozen price."
      },
      "makeStoppable()": {
        "notice": "Switches ON the stoppability of the contract; if the contract was paused before making it unstoppable it will be paused again after calling this function"
      },
      "makeUnstoppable()": {
        "notice": "Switches OFF the stoppability of the contract; if the contract was paused it will no longer be so"
      },
      "maxQACToMintTP()": {
        "notice": "gets the max amount of AC allowed to operate to mint TP with, restricted by accumulators // TODO: move this function to a MocView contract"
      },
      "maxQACToRedeemTP()": {
        "notice": "gets the max amount of AC allowed to operate to redeem TP with, restricted by accumulators // TODO: move this function to a MocView contract"
      },
      "mintTC(uint256)": {
        "notice": "caller sends coinbase as Collateral Asset and receives Collateral Token"
      },
      "mintTCViaVendor(uint256,address)": {
        "notice": "caller sends coinbase as Collateral Asset and receives Collateral Token  `vendor_` receives a markup in Fee Token if possible or in qAC if not"
      },
      "mintTCandTP(address,uint256)": {
        "notice": "caller sends coinbase as Collateral Asset and receives Collateral Token and Pegged Token  This operation is done without checking coverage  Collateral Token and Pegged Token are minted in equivalent proportions so that its price  and global coverage are not modified.  Reverts if qAC sent are insufficient."
      },
      "mintTCandTPViaVendor(address,uint256,address)": {
        "notice": "caller sends coinbase as Collateral Asset and receives Collateral Token and Pegged Token  `vendor_` receives a markup in Fee Token if possible or in qAC if not  This operation is done without checking coverage  Collateral Token and Pegged Token are minted in equivalent proportions so that its price  and global coverage are not modified.  Reverts if qAC sent are insufficient."
      },
      "mintTCandTPto(address,uint256,address)": {
        "notice": "caller sends coinbase as Collateral Asset and recipient receives Collateral Token and Pegged Token  This operation is done without checking coverage  Collateral Token and Pegged Token are minted in equivalent proportions so that its price  and global coverage are not modified.  Reverts if qAC sent are insufficient."
      },
      "mintTCandTPtoViaVendor(address,uint256,address,address)": {
        "notice": "caller sends coinbase as Collateral Asset and recipient receives Collateral Token and Pegged Token  `vendor_` receives a markup in Fee Token if possible or in qAC if not  This operation is done without checking coverage  Collateral Token and Pegged Token are minted in equivalent proportions so that its price  and global coverage are not modified.  Reverts if qAC sent are insufficient."
      },
      "mintTCto(uint256,address)": {
        "notice": "caller sends coinbase as Collateral Asset and recipient receives Collateral Token"
      },
      "mintTCtoViaVendor(uint256,address,address)": {
        "notice": "caller sends coinbase as Collateral Asset and recipient receives Collateral Token  `vendor_` receives a markup in Fee Token if possible or in qAC if not"
      },
      "mintTP(address,uint256)": {
        "notice": "caller sends coinbase as Collateral Asset and receives Pegged Token"
      },
      "mintTPViaVendor(address,uint256,address)": {
        "notice": "caller sends coinbase as Collateral Asset and receives Pegged Token  `vendor_` receives a markup in Fee Token if possible or in qAC if not"
      },
      "mintTPto(address,uint256,address)": {
        "notice": "caller sends coinbase as Collateral Asset and recipient receives Pegged Token"
      },
      "mintTPtoViaVendor(address,uint256,address,address)": {
        "notice": "caller sends coinbase as Collateral Asset and recipient receives Pegged Token  `vendor_` receives a markup in Fee Token if possible or in qAC if not"
      },
      "pause()": {
        "notice": "Called by the owner to pause, triggers stopped state"
      },
      "paused()": {
        "notice": "Returns true if paused"
      },
      "redeemTC(uint256,uint256)": {
        "notice": "caller sends Collateral Token and receives Collateral Asset"
      },
      "redeemTCViaVendor(uint256,uint256,address)": {
        "notice": "caller sends Collateral Token and receives Collateral Asset  `vendor_` receives a markup in Fee Token if possible or in qAC if not"
      },
      "redeemTCandTP(address,uint256,uint256,uint256)": {
        "notice": "caller sends Collateral Token and Pegged Token and receives coinbase as Collateral Asset  This operation is done without checking coverage  Collateral Token and Pegged Token are redeemed in equivalent proportions so that its price  and global coverage are not modified.  Reverts if qTP sent are insufficient."
      },
      "redeemTCandTPViaVendor(address,uint256,uint256,uint256,address)": {
        "notice": "caller sends Collateral Token and Pegged Token and receives coinbase as Collateral Asset  `vendor_` receives a markup in Fee Token if possible or in qAC if not  This operation is done without checking coverage  Collateral Token and Pegged Token are redeemed in equivalent proportions so that its price  and global coverage are not modified.  Reverts if qTP sent are insufficient."
      },
      "redeemTCandTPto(address,uint256,uint256,uint256,address)": {
        "notice": "caller sends Collateral Token and Pegged Token and recipient receives Collateral Asset  This operation is done without checking coverage  Collateral Token and Pegged Token are redeemed in equivalent proportions so that its price  and global coverage are not modified.  Reverts if qTP sent are insufficient."
      },
      "redeemTCandTPtoViaVendor(address,uint256,uint256,uint256,address,address)": {
        "notice": "caller sends Collateral Token and Pegged Token and recipient receives Collateral Asset  `vendor_` receives a markup in Fee Token if possible or in qAC if not  This operation is done without checking coverage  Collateral Token and Pegged Token are redeemed in equivalent proportions so that its price  and global coverage are not modified.  Reverts if qTP sent are insufficient."
      },
      "redeemTCto(uint256,uint256,address)": {
        "notice": "caller sends Collateral Token and recipient receives Collateral Asset"
      },
      "redeemTCtoViaVendor(uint256,uint256,address,address)": {
        "notice": "caller sends Collateral Token and recipient receives Collateral Asset  `vendor_` receives a markup in Fee Token if possible or in qAC if not"
      },
      "redeemTP(address,uint256,uint256)": {
        "notice": "caller sends Pegged Token and receives Collateral Asset"
      },
      "redeemTPViaVendor(address,uint256,uint256,address)": {
        "notice": "caller sends Pegged Token and receives Collateral Asset  `vendor_` receives a markup in Fee Token if possible or in qAC if not"
      },
      "redeemTPto(address,uint256,uint256,address)": {
        "notice": "caller sends Pegged Token and recipient receives Collateral Asset"
      },
      "redeemTPtoViaVendor(address,uint256,uint256,address,address)": {
        "notice": "caller sends Pegged Token and recipient receives Collateral Asset  `vendor_` receives a markup in Fee Token if possible or in qAC if not"
      },
      "setPauser(address)": {
        "notice": "Changes the address which is enable to pause this contract"
      },
      "shouldCalculateEma()": {
        "notice": "true if the necessary span has pass since last ema update"
      },
      "swapTCforTP(address,uint256,uint256)": {
        "notice": "caller sends Collateral Token and receives Pegged Token"
      },
      "swapTCforTPViaVendor(address,uint256,uint256,address)": {
        "notice": "caller sends Collateral Token and receives Pegged Token  `vendor_` receives a markup in Fee Token if possible or in qAC if not"
      },
      "swapTCforTPto(address,uint256,uint256,address)": {
        "notice": "caller sends Collateral Token and recipient receives Pegged Token"
      },
      "swapTCforTPtoViaVendor(address,uint256,uint256,address,address)": {
        "notice": "caller sends Collateral Token and recipient receives Pegged Token  `vendor_` receives a markup in Fee Token if possible or in qAC if not"
      },
      "swapTPforTC(address,uint256,uint256)": {
        "notice": "caller sends a Pegged Token and receives Collateral Token"
      },
      "swapTPforTCViaVendor(address,uint256,uint256,address)": {
        "notice": "caller sends a Pegged Token and receives Collateral Token  `vendor_` receives a markup in Fee Token if possible or in qAC if not"
      },
      "swapTPforTCto(address,uint256,uint256,address)": {
        "notice": "caller sends a Pegged Token and recipient receives Collateral Token"
      },
      "swapTPforTCtoViaVendor(address,uint256,uint256,address,address)": {
        "notice": "caller sends a Pegged Token and recipient receives Collateral Token  `vendor_` receives a markup in Fee Token if possible or in qAC if not"
      },
      "swapTPforTP(address,address,uint256,uint256)": {
        "notice": "caller sends a Pegged Token and receives another one"
      },
      "swapTPforTPViaVendor(address,address,uint256,uint256,address)": {
        "notice": "caller sends a Pegged Token and receives another one  `vendor_` receives a markup in Fee Token if possible or in qAC if not"
      },
      "swapTPforTPto(address,address,uint256,uint256,address)": {
        "notice": "caller sends a Pegged Token and recipient receives another one"
      },
      "swapTPforTPtoViaVendor(address,address,uint256,uint256,address,address)": {
        "notice": "caller sends a Pegged Token and recipient receives another one  `vendor_` receives a markup in Fee Token if possible or in qAC if not"
      },
      "tcHoldersInterestPayment()": {
        "notice": "executes the interest payment of the TC holders  can only be executed after a block span"
      },
      "unpause()": {
        "notice": "Called by the owner to unpause, returns to normal state"
      },
      "updateEmas()": {
        "notice": "If time, calculates the EMA for all the Pegged Token prices."
      }
    },
    "version": 1
  }
}