{
  "contractName": "MocCoinbaseMock",
  "sourceName": "contracts/mocks/upgradeability/MocUpgradeMocks.sol",
  "abi": [
    {
      "inputs": [
        {
          "internalType": "uint256",
          "name": "qACsent_",
          "type": "uint256"
        },
        {
          "internalType": "uint256",
          "name": "qACNeeded_",
          "type": "uint256"
        }
      ],
      "name": "InsufficientQacSent",
      "type": "error"
    },
    {
      "inputs": [
        {
          "internalType": "uint256",
          "name": "qTPsent_",
          "type": "uint256"
        },
        {
          "internalType": "uint256",
          "name": "qTPNeeded_",
          "type": "uint256"
        }
      ],
      "name": "InsufficientQtpSent",
      "type": "error"
    },
    {
      "inputs": [
        {
          "internalType": "uint256",
          "name": "qTC_",
          "type": "uint256"
        },
        {
          "internalType": "uint256",
          "name": "tcAvailableToRedeem_",
          "type": "uint256"
        }
      ],
      "name": "InsufficientTCtoRedeem",
      "type": "error"
    },
    {
      "inputs": [
        {
          "internalType": "uint256",
          "name": "qTP_",
          "type": "uint256"
        },
        {
          "internalType": "uint256",
          "name": "tpAvailableToMint_",
          "type": "uint256"
        }
      ],
      "name": "InsufficientTPtoMint",
      "type": "error"
    },
    {
      "inputs": [
        {
          "internalType": "uint256",
          "name": "qTP_",
          "type": "uint256"
        },
        {
          "internalType": "uint256",
          "name": "tpAvailableToRedeem_",
          "type": "uint256"
        }
      ],
      "name": "InsufficientTPtoRedeem",
      "type": "error"
    },
    {
      "inputs": [],
      "name": "InvalidAddress",
      "type": "error"
    },
    {
      "inputs": [],
      "name": "InvalidFluxCapacitorOperation",
      "type": "error"
    },
    {
      "inputs": [],
      "name": "InvalidValue",
      "type": "error"
    },
    {
      "inputs": [],
      "name": "Liquidated",
      "type": "error"
    },
    {
      "inputs": [
        {
          "internalType": "uint256",
          "name": "cglb_",
          "type": "uint256"
        },
        {
          "internalType": "uint256",
          "name": "covThrld_",
          "type": "uint256"
        }
      ],
      "name": "LowCoverage",
      "type": "error"
    },
    {
      "inputs": [
        {
          "internalType": "uint256",
          "name": "max_",
          "type": "uint256"
        },
        {
          "internalType": "uint256",
          "name": "new_",
          "type": "uint256"
        }
      ],
      "name": "MaxFluxCapacitorOperationReached",
      "type": "error"
    },
    {
      "inputs": [],
      "name": "MissingBlocksToSettlement",
      "type": "error"
    },
    {
      "inputs": [],
      "name": "MissingBlocksToTCInterestPayment",
      "type": "error"
    },
    {
      "inputs": [
        {
          "internalType": "address",
          "name": "dataProviderAddress_",
          "type": "address"
        }
      ],
      "name": "MissingProviderData",
      "type": "error"
    },
    {
      "inputs": [
        {
          "internalType": "address",
          "name": "priceProviderAddress_",
          "type": "address"
        }
      ],
      "name": "MissingProviderPrice",
      "type": "error"
    },
    {
      "inputs": [],
      "name": "NotAuthorizedChanger",
      "type": "error"
    },
    {
      "inputs": [],
      "name": "NotWhenPaused",
      "type": "error"
    },
    {
      "inputs": [],
      "name": "OnlyPauser",
      "type": "error"
    },
    {
      "inputs": [],
      "name": "OnlyQueue",
      "type": "error"
    },
    {
      "inputs": [],
      "name": "OnlyWhenLiquidated",
      "type": "error"
    },
    {
      "inputs": [],
      "name": "OnlyWhilePaused",
      "type": "error"
    },
    {
      "inputs": [],
      "name": "PeggedTokenAlreadyAdded",
      "type": "error"
    },
    {
      "inputs": [
        {
          "internalType": "uint256",
          "name": "qACmin_",
          "type": "uint256"
        },
        {
          "internalType": "uint256",
          "name": "qACtoRedeem_",
          "type": "uint256"
        }
      ],
      "name": "QacBelowMinimumRequired",
      "type": "error"
    },
    {
      "inputs": [],
      "name": "QacNeededMustBeGreaterThanZero",
      "type": "error"
    },
    {
      "inputs": [
        {
          "internalType": "uint256",
          "name": "qTCmin_",
          "type": "uint256"
        },
        {
          "internalType": "uint256",
          "name": "qTC_",
          "type": "uint256"
        }
      ],
      "name": "QtcBelowMinimumRequired",
      "type": "error"
    },
    {
      "inputs": [
        {
          "internalType": "uint256",
          "name": "qTPmin_",
          "type": "uint256"
        },
        {
          "internalType": "uint256",
          "name": "qTP_",
          "type": "uint256"
        }
      ],
      "name": "QtpBelowMinimumRequired",
      "type": "error"
    },
    {
      "inputs": [],
      "name": "TransferFailed",
      "type": "error"
    },
    {
      "inputs": [],
      "name": "Unstoppable",
      "type": "error"
    },
    {
      "anonymous": false,
      "inputs": [
        {
          "indexed": false,
          "internalType": "address",
          "name": "previousAdmin",
          "type": "address"
        },
        {
          "indexed": false,
          "internalType": "address",
          "name": "newAdmin",
          "type": "address"
        }
      ],
      "name": "AdminChanged",
      "type": "event"
    },
    {
      "anonymous": false,
      "inputs": [
        {
          "indexed": true,
          "internalType": "address",
          "name": "beacon",
          "type": "address"
        }
      ],
      "name": "BeaconUpgraded",
      "type": "event"
    },
    {
      "anonymous": false,
      "inputs": [],
      "name": "ContractLiquidated",
      "type": "event"
    },
    {
      "anonymous": false,
      "inputs": [
        {
          "indexed": false,
          "internalType": "uint8",
          "name": "version",
          "type": "uint8"
        }
      ],
      "name": "Initialized",
      "type": "event"
    },
    {
      "anonymous": false,
      "inputs": [
        {
          "indexed": true,
          "internalType": "address",
          "name": "tp_",
          "type": "address"
        },
        {
          "indexed": true,
          "internalType": "address",
          "name": "sender_",
          "type": "address"
        },
        {
          "indexed": true,
          "internalType": "address",
          "name": "recipient_",
          "type": "address"
        },
        {
          "indexed": false,
          "internalType": "uint256",
          "name": "qTP_",
          "type": "uint256"
        },
        {
          "indexed": false,
          "internalType": "uint256",
          "name": "qAC_",
          "type": "uint256"
        }
      ],
      "name": "LiqTPRedeemed",
      "type": "event"
    },
    {
      "anonymous": false,
      "inputs": [
        {
          "indexed": false,
          "internalType": "address",
          "name": "account",
          "type": "address"
        }
      ],
      "name": "Paused",
      "type": "event"
    },
    {
      "anonymous": false,
      "inputs": [
        {
          "indexed": false,
          "internalType": "uint256",
          "name": "i_",
          "type": "uint256"
        },
        {
          "components": [
            {
              "internalType": "address",
              "name": "tpTokenAddress",
              "type": "address"
            },
            {
              "internalType": "address",
              "name": "priceProviderAddress",
              "type": "address"
            },
            {
              "internalType": "uint256",
              "name": "tpCtarg",
              "type": "uint256"
            },
            {
              "internalType": "uint256",
              "name": "tpMintFee",
              "type": "uint256"
            },
            {
              "internalType": "uint256",
              "name": "tpRedeemFee",
              "type": "uint256"
            },
            {
              "internalType": "uint256",
              "name": "tpEma",
              "type": "uint256"
            },
            {
              "internalType": "uint256",
              "name": "tpEmaSf",
              "type": "uint256"
            }
          ],
          "indexed": false,
          "internalType": "struct PeggedTokenParams",
          "name": "peggedTokenParams_",
          "type": "tuple"
        }
      ],
      "name": "PeggedTokenChange",
      "type": "event"
    },
    {
      "anonymous": false,
      "inputs": [],
      "name": "SettlementExecuted",
      "type": "event"
    },
    {
      "anonymous": false,
      "inputs": [
        {
          "indexed": false,
          "internalType": "uint256",
          "name": "mocGain_",
          "type": "uint256"
        },
        {
          "indexed": false,
          "internalType": "uint256[]",
          "name": "tpGain_",
          "type": "uint256[]"
        }
      ],
      "name": "SuccessFeeDistributed",
      "type": "event"
    },
    {
      "anonymous": false,
      "inputs": [
        {
          "indexed": false,
          "internalType": "uint256",
          "name": "interestAmount_",
          "type": "uint256"
        }
      ],
      "name": "TCInterestPayment",
      "type": "event"
    },
    {
      "anonymous": false,
      "inputs": [
        {
          "indexed": true,
          "internalType": "uint256",
          "name": "i_",
          "type": "uint256"
        },
        {
          "indexed": false,
          "internalType": "uint256",
          "name": "oldTPema_",
          "type": "uint256"
        },
        {
          "indexed": false,
          "internalType": "uint256",
          "name": "newTPema_",
          "type": "uint256"
        }
      ],
      "name": "TPemaUpdated",
      "type": "event"
    },
    {
      "anonymous": false,
      "inputs": [
        {
          "indexed": false,
          "internalType": "address",
          "name": "account",
          "type": "address"
        }
      ],
      "name": "Unpaused",
      "type": "event"
    },
    {
      "anonymous": false,
      "inputs": [
        {
          "indexed": true,
          "internalType": "address",
          "name": "implementation",
          "type": "address"
        }
      ],
      "name": "Upgraded",
      "type": "event"
    },
    {
      "inputs": [],
      "name": "absoluteAccumulator",
      "outputs": [
        {
          "internalType": "uint256",
          "name": "",
          "type": "uint256"
        }
      ],
      "stateMutability": "view",
      "type": "function"
    },
    {
      "inputs": [
        {
          "components": [
            {
              "internalType": "address",
              "name": "tpTokenAddress",
              "type": "address"
            },
            {
              "internalType": "address",
              "name": "priceProviderAddress",
              "type": "address"
            },
            {
              "internalType": "uint256",
              "name": "tpCtarg",
              "type": "uint256"
            },
            {
              "internalType": "uint256",
              "name": "tpMintFee",
              "type": "uint256"
            },
            {
              "internalType": "uint256",
              "name": "tpRedeemFee",
              "type": "uint256"
            },
            {
              "internalType": "uint256",
              "name": "tpEma",
              "type": "uint256"
            },
            {
              "internalType": "uint256",
              "name": "tpEmaSf",
              "type": "uint256"
            }
          ],
          "internalType": "struct PeggedTokenParams",
          "name": "peggedTokenParams_",
          "type": "tuple"
        }
      ],
      "name": "addPeggedToken",
      "outputs": [],
      "stateMutability": "nonpayable",
      "type": "function"
    },
    {
      "inputs": [],
      "name": "appreciationFactor",
      "outputs": [
        {
          "internalType": "uint256",
          "name": "",
          "type": "uint256"
        }
      ],
      "stateMutability": "view",
      "type": "function"
    },
    {
      "inputs": [],
      "name": "bes",
      "outputs": [
        {
          "internalType": "uint256",
          "name": "",
          "type": "uint256"
        }
      ],
      "stateMutability": "view",
      "type": "function"
    },
    {
      "inputs": [],
      "name": "bns",
      "outputs": [
        {
          "internalType": "uint256",
          "name": "",
          "type": "uint256"
        }
      ],
      "stateMutability": "view",
      "type": "function"
    },
    {
      "inputs": [],
      "name": "calcCtargemaCA",
      "outputs": [
        {
          "internalType": "uint256",
          "name": "ctargemaCA",
          "type": "uint256"
        }
      ],
      "stateMutability": "view",
      "type": "function"
    },
    {
      "inputs": [
        {
          "internalType": "contract IGovernor",
          "name": "newGovernor_",
          "type": "address"
        }
      ],
      "name": "changeGovernor",
      "outputs": [],
      "stateMutability": "nonpayable",
      "type": "function"
    },
    {
      "inputs": [],
      "name": "coinbaseFailedTransferFallback",
      "outputs": [
        {
          "internalType": "address",
          "name": "",
          "type": "address"
        }
      ],
      "stateMutability": "view",
      "type": "function"
    },
    {
      "inputs": [],
      "name": "decayBlockSpan",
      "outputs": [
        {
          "internalType": "uint256",
          "name": "",
          "type": "uint256"
        }
      ],
      "stateMutability": "view",
      "type": "function"
    },
    {
      "inputs": [],
      "name": "differentialAccumulator",
      "outputs": [
        {
          "internalType": "int256",
          "name": "",
          "type": "int256"
        }
      ],
      "stateMutability": "view",
      "type": "function"
    },
    {
      "inputs": [
        {
          "components": [
            {
              "internalType": "address",
              "name": "tpTokenAddress",
              "type": "address"
            },
            {
              "internalType": "address",
              "name": "priceProviderAddress",
              "type": "address"
            },
            {
              "internalType": "uint256",
              "name": "tpCtarg",
              "type": "uint256"
            },
            {
              "internalType": "uint256",
              "name": "tpMintFee",
              "type": "uint256"
            },
            {
              "internalType": "uint256",
              "name": "tpRedeemFee",
              "type": "uint256"
            },
            {
              "internalType": "uint256",
              "name": "tpEma",
              "type": "uint256"
            },
            {
              "internalType": "uint256",
              "name": "tpEmaSf",
              "type": "uint256"
            }
          ],
          "internalType": "struct PeggedTokenParams",
          "name": "peggedTokenParams_",
          "type": "tuple"
        }
      ],
      "name": "editPeggedToken",
      "outputs": [],
      "stateMutability": "nonpayable",
      "type": "function"
    },
    {
      "inputs": [],
      "name": "emaCalculationBlockSpan",
      "outputs": [
        {
          "internalType": "uint256",
          "name": "",
          "type": "uint256"
        }
      ],
      "stateMutability": "view",
      "type": "function"
    },
    {
      "inputs": [],
      "name": "evalLiquidation",
      "outputs": [],
      "stateMutability": "nonpayable",
      "type": "function"
    },
    {
      "inputs": [
        {
          "components": [
            {
              "internalType": "uint256",
              "name": "qTC",
              "type": "uint256"
            },
            {
              "internalType": "uint256",
              "name": "qACmax",
              "type": "uint256"
            },
            {
              "internalType": "address",
              "name": "sender",
              "type": "address"
            },
            {
              "internalType": "address",
              "name": "recipient",
              "type": "address"
            },
            {
              "internalType": "address",
              "name": "vendor",
              "type": "address"
            }
          ],
          "internalType": "struct MocCore.MintTCParams",
          "name": "params_",
          "type": "tuple"
        }
      ],
      "name": "execMintTC",
      "outputs": [
        {
          "internalType": "uint256",
          "name": "qACtotalNeeded",
          "type": "uint256"
        },
        {
          "internalType": "uint256",
          "name": "qFeeTokenTotalNeeded",
          "type": "uint256"
        },
        {
          "components": [
            {
              "internalType": "uint256",
              "name": "qACFee",
              "type": "uint256"
            },
            {
              "internalType": "uint256",
              "name": "qFeeToken",
              "type": "uint256"
            },
            {
              "internalType": "uint256",
              "name": "qACVendorMarkup",
              "type": "uint256"
            },
            {
              "internalType": "uint256",
              "name": "qFeeTokenVendorMarkup",
              "type": "uint256"
            }
          ],
          "internalType": "struct MocCommons.FeeCalcs",
          "name": "feeCalcs",
          "type": "tuple"
        }
      ],
      "stateMutability": "nonpayable",
      "type": "function"
    },
    {
      "inputs": [
        {
          "components": [
            {
              "internalType": "address",
              "name": "tp",
              "type": "address"
            },
            {
              "internalType": "uint256",
              "name": "qTP",
              "type": "uint256"
            },
            {
              "internalType": "uint256",
              "name": "qACmax",
              "type": "uint256"
            },
            {
              "internalType": "address",
              "name": "sender",
              "type": "address"
            },
            {
              "internalType": "address",
              "name": "recipient",
              "type": "address"
            },
            {
              "internalType": "address",
              "name": "vendor",
              "type": "address"
            }
          ],
          "internalType": "struct MocCommons.MintTCandTPParams",
          "name": "params_",
          "type": "tuple"
        }
      ],
      "name": "execMintTCandTP",
      "outputs": [
        {
          "internalType": "uint256",
          "name": "qACtotalNeeded",
          "type": "uint256"
        },
        {
          "internalType": "uint256",
          "name": "qTCMinted",
          "type": "uint256"
        },
        {
          "internalType": "uint256",
          "name": "qFeeTokenTotalNeeded",
          "type": "uint256"
        },
        {
          "components": [
            {
              "internalType": "uint256",
              "name": "qACFee",
              "type": "uint256"
            },
            {
              "internalType": "uint256",
              "name": "qFeeToken",
              "type": "uint256"
            },
            {
              "internalType": "uint256",
              "name": "qACVendorMarkup",
              "type": "uint256"
            },
            {
              "internalType": "uint256",
              "name": "qFeeTokenVendorMarkup",
              "type": "uint256"
            }
          ],
          "internalType": "struct MocCommons.FeeCalcs",
          "name": "feeCalcs",
          "type": "tuple"
        }
      ],
      "stateMutability": "nonpayable",
      "type": "function"
    },
    {
      "inputs": [
        {
          "components": [
            {
              "internalType": "address",
              "name": "tp",
              "type": "address"
            },
            {
              "internalType": "uint256",
              "name": "qTP",
              "type": "uint256"
            },
            {
              "internalType": "uint256",
              "name": "qACmax",
              "type": "uint256"
            },
            {
              "internalType": "address",
              "name": "sender",
              "type": "address"
            },
            {
              "internalType": "address",
              "name": "recipient",
              "type": "address"
            },
            {
              "internalType": "address",
              "name": "vendor",
              "type": "address"
            }
          ],
          "internalType": "struct MocCore.MintTPParams",
          "name": "params_",
          "type": "tuple"
        }
      ],
      "name": "execMintTP",
      "outputs": [
        {
          "internalType": "uint256",
          "name": "qACtotalNeeded",
          "type": "uint256"
        },
        {
          "internalType": "uint256",
          "name": "qFeeTokenTotalNeeded",
          "type": "uint256"
        },
        {
          "components": [
            {
              "internalType": "uint256",
              "name": "qACFee",
              "type": "uint256"
            },
            {
              "internalType": "uint256",
              "name": "qFeeToken",
              "type": "uint256"
            },
            {
              "internalType": "uint256",
              "name": "qACVendorMarkup",
              "type": "uint256"
            },
            {
              "internalType": "uint256",
              "name": "qFeeTokenVendorMarkup",
              "type": "uint256"
            }
          ],
          "internalType": "struct MocCommons.FeeCalcs",
          "name": "feeCalcs",
          "type": "tuple"
        }
      ],
      "stateMutability": "nonpayable",
      "type": "function"
    },
    {
      "inputs": [
        {
          "components": [
            {
              "internalType": "uint256",
              "name": "qTC",
              "type": "uint256"
            },
            {
              "internalType": "uint256",
              "name": "qACmin",
              "type": "uint256"
            },
            {
              "internalType": "address",
              "name": "sender",
              "type": "address"
            },
            {
              "internalType": "address",
              "name": "recipient",
              "type": "address"
            },
            {
              "internalType": "address",
              "name": "vendor",
              "type": "address"
            }
          ],
          "internalType": "struct MocCore.RedeemTCParams",
          "name": "params_",
          "type": "tuple"
        }
      ],
      "name": "execRedeemTC",
      "outputs": [
        {
          "internalType": "uint256",
          "name": "qACtoRedeem",
          "type": "uint256"
        },
        {
          "internalType": "uint256",
          "name": "qFeeTokenTotalNeeded",
          "type": "uint256"
        },
        {
          "components": [
            {
              "internalType": "uint256",
              "name": "qACFee",
              "type": "uint256"
            },
            {
              "internalType": "uint256",
              "name": "qFeeToken",
              "type": "uint256"
            },
            {
              "internalType": "uint256",
              "name": "qACVendorMarkup",
              "type": "uint256"
            },
            {
              "internalType": "uint256",
              "name": "qFeeTokenVendorMarkup",
              "type": "uint256"
            }
          ],
          "internalType": "struct MocCommons.FeeCalcs",
          "name": "feeCalcs",
          "type": "tuple"
        }
      ],
      "stateMutability": "nonpayable",
      "type": "function"
    },
    {
      "inputs": [
        {
          "components": [
            {
              "internalType": "address",
              "name": "tp",
              "type": "address"
            },
            {
              "internalType": "uint256",
              "name": "qTC",
              "type": "uint256"
            },
            {
              "internalType": "uint256",
              "name": "qTP",
              "type": "uint256"
            },
            {
              "internalType": "uint256",
              "name": "qACmin",
              "type": "uint256"
            },
            {
              "internalType": "address",
              "name": "sender",
              "type": "address"
            },
            {
              "internalType": "address",
              "name": "recipient",
              "type": "address"
            },
            {
              "internalType": "address",
              "name": "vendor",
              "type": "address"
            }
          ],
          "internalType": "struct MocCommons.RedeemTCandTPParams",
          "name": "params_",
          "type": "tuple"
        }
      ],
      "name": "execRedeemTCandTP",
      "outputs": [
        {
          "internalType": "uint256",
          "name": "qACtoRedeem",
          "type": "uint256"
        },
        {
          "internalType": "uint256",
          "name": "qTPRedeemed",
          "type": "uint256"
        },
        {
          "internalType": "uint256",
          "name": "qFeeTokenTotalNeeded",
          "type": "uint256"
        },
        {
          "components": [
            {
              "internalType": "uint256",
              "name": "qACFee",
              "type": "uint256"
            },
            {
              "internalType": "uint256",
              "name": "qFeeToken",
              "type": "uint256"
            },
            {
              "internalType": "uint256",
              "name": "qACVendorMarkup",
              "type": "uint256"
            },
            {
              "internalType": "uint256",
              "name": "qFeeTokenVendorMarkup",
              "type": "uint256"
            }
          ],
          "internalType": "struct MocCommons.FeeCalcs",
          "name": "feeCalcs",
          "type": "tuple"
        }
      ],
      "stateMutability": "nonpayable",
      "type": "function"
    },
    {
      "inputs": [
        {
          "components": [
            {
              "internalType": "address",
              "name": "tp",
              "type": "address"
            },
            {
              "internalType": "uint256",
              "name": "qTP",
              "type": "uint256"
            },
            {
              "internalType": "uint256",
              "name": "qACmin",
              "type": "uint256"
            },
            {
              "internalType": "address",
              "name": "sender",
              "type": "address"
            },
            {
              "internalType": "address",
              "name": "recipient",
              "type": "address"
            },
            {
              "internalType": "address",
              "name": "vendor",
              "type": "address"
            }
          ],
          "internalType": "struct MocCommons.RedeemTPParams",
          "name": "params_",
          "type": "tuple"
        }
      ],
      "name": "execRedeemTP",
      "outputs": [
        {
          "internalType": "uint256",
          "name": "qACtoRedeem",
          "type": "uint256"
        },
        {
          "internalType": "uint256",
          "name": "qFeeTokenTotalNeeded",
          "type": "uint256"
        },
        {
          "components": [
            {
              "internalType": "uint256",
              "name": "qACFee",
              "type": "uint256"
            },
            {
              "internalType": "uint256",
              "name": "qFeeToken",
              "type": "uint256"
            },
            {
              "internalType": "uint256",
              "name": "qACVendorMarkup",
              "type": "uint256"
            },
            {
              "internalType": "uint256",
              "name": "qFeeTokenVendorMarkup",
              "type": "uint256"
            }
          ],
          "internalType": "struct MocCommons.FeeCalcs",
          "name": "feeCalcs",
          "type": "tuple"
        }
      ],
      "stateMutability": "nonpayable",
      "type": "function"
    },
    {
      "inputs": [],
      "name": "execSettlement",
      "outputs": [],
      "stateMutability": "nonpayable",
      "type": "function"
    },
    {
      "inputs": [
        {
          "components": [
            {
              "internalType": "address",
              "name": "tp",
              "type": "address"
            },
            {
              "internalType": "uint256",
              "name": "qTC",
              "type": "uint256"
            },
            {
              "internalType": "uint256",
              "name": "qTPmin",
              "type": "uint256"
            },
            {
              "internalType": "uint256",
              "name": "qACmax",
              "type": "uint256"
            },
            {
              "internalType": "address",
              "name": "sender",
              "type": "address"
            },
            {
              "internalType": "address",
              "name": "recipient",
              "type": "address"
            },
            {
              "internalType": "address",
              "name": "vendor",
              "type": "address"
            }
          ],
          "internalType": "struct MocCommons.SwapTCforTPParams",
          "name": "params_",
          "type": "tuple"
        }
      ],
      "name": "execSwapTCforTP",
      "outputs": [
        {
          "internalType": "uint256",
          "name": "qACSurcharges",
          "type": "uint256"
        },
        {
          "internalType": "uint256",
          "name": "qTPMinted",
          "type": "uint256"
        },
        {
          "internalType": "uint256",
          "name": "qFeeTokenTotalNeeded",
          "type": "uint256"
        },
        {
          "components": [
            {
              "internalType": "uint256",
              "name": "qACFee",
              "type": "uint256"
            },
            {
              "internalType": "uint256",
              "name": "qFeeToken",
              "type": "uint256"
            },
            {
              "internalType": "uint256",
              "name": "qACVendorMarkup",
              "type": "uint256"
            },
            {
              "internalType": "uint256",
              "name": "qFeeTokenVendorMarkup",
              "type": "uint256"
            }
          ],
          "internalType": "struct MocCommons.FeeCalcs",
          "name": "feeCalcs",
          "type": "tuple"
        }
      ],
      "stateMutability": "nonpayable",
      "type": "function"
    },
    {
      "inputs": [
        {
          "components": [
            {
              "internalType": "address",
              "name": "tp",
              "type": "address"
            },
            {
              "internalType": "uint256",
              "name": "qTP",
              "type": "uint256"
            },
            {
              "internalType": "uint256",
              "name": "qTCmin",
              "type": "uint256"
            },
            {
              "internalType": "uint256",
              "name": "qACmax",
              "type": "uint256"
            },
            {
              "internalType": "address",
              "name": "sender",
              "type": "address"
            },
            {
              "internalType": "address",
              "name": "recipient",
              "type": "address"
            },
            {
              "internalType": "address",
              "name": "vendor",
              "type": "address"
            }
          ],
          "internalType": "struct MocCommons.SwapTPforTCParams",
          "name": "params_",
          "type": "tuple"
        }
      ],
      "name": "execSwapTPforTC",
      "outputs": [
        {
          "internalType": "uint256",
          "name": "qACSurcharges",
          "type": "uint256"
        },
        {
          "internalType": "uint256",
          "name": "qTCMinted",
          "type": "uint256"
        },
        {
          "internalType": "uint256",
          "name": "qFeeTokenTotalNeeded",
          "type": "uint256"
        },
        {
          "components": [
            {
              "internalType": "uint256",
              "name": "qACFee",
              "type": "uint256"
            },
            {
              "internalType": "uint256",
              "name": "qFeeToken",
              "type": "uint256"
            },
            {
              "internalType": "uint256",
              "name": "qACVendorMarkup",
              "type": "uint256"
            },
            {
              "internalType": "uint256",
              "name": "qFeeTokenVendorMarkup",
              "type": "uint256"
            }
          ],
          "internalType": "struct MocCommons.FeeCalcs",
          "name": "feeCalcs",
          "type": "tuple"
        }
      ],
      "stateMutability": "nonpayable",
      "type": "function"
    },
    {
      "inputs": [
        {
          "components": [
            {
              "internalType": "address",
              "name": "tpFrom",
              "type": "address"
            },
            {
              "internalType": "address",
              "name": "tpTo",
              "type": "address"
            },
            {
              "internalType": "uint256",
              "name": "qTP",
              "type": "uint256"
            },
            {
              "internalType": "uint256",
              "name": "qTPmin",
              "type": "uint256"
            },
            {
              "internalType": "uint256",
              "name": "qACmax",
              "type": "uint256"
            },
            {
              "internalType": "address",
              "name": "sender",
              "type": "address"
            },
            {
              "internalType": "address",
              "name": "recipient",
              "type": "address"
            },
            {
              "internalType": "address",
              "name": "vendor",
              "type": "address"
            }
          ],
          "internalType": "struct MocCommons.SwapTPforTPParams",
          "name": "params_",
          "type": "tuple"
        }
      ],
      "name": "execSwapTPforTP",
      "outputs": [
        {
          "internalType": "uint256",
          "name": "qACSurcharges",
          "type": "uint256"
        },
        {
          "internalType": "uint256",
          "name": "qTPMinted",
          "type": "uint256"
        },
        {
          "internalType": "uint256",
          "name": "qFeeTokenTotalNeeded",
          "type": "uint256"
        },
        {
          "components": [
            {
              "internalType": "uint256",
              "name": "qACFee",
              "type": "uint256"
            },
            {
              "internalType": "uint256",
              "name": "qFeeToken",
              "type": "uint256"
            },
            {
              "internalType": "uint256",
              "name": "qACVendorMarkup",
              "type": "uint256"
            },
            {
              "internalType": "uint256",
              "name": "qFeeTokenVendorMarkup",
              "type": "uint256"
            }
          ],
          "internalType": "struct MocCommons.FeeCalcs",
          "name": "feeCalcs",
          "type": "tuple"
        }
      ],
      "stateMutability": "nonpayable",
      "type": "function"
    },
    {
      "inputs": [],
      "name": "feeRetainer",
      "outputs": [
        {
          "internalType": "uint256",
          "name": "",
          "type": "uint256"
        }
      ],
      "stateMutability": "view",
      "type": "function"
    },
    {
      "inputs": [],
      "name": "feeToken",
      "outputs": [
        {
          "internalType": "contract IERC20",
          "name": "",
          "type": "address"
        }
      ],
      "stateMutability": "view",
      "type": "function"
    },
    {
      "inputs": [],
      "name": "feeTokenPct",
      "outputs": [
        {
          "internalType": "uint256",
          "name": "",
          "type": "uint256"
        }
      ],
      "stateMutability": "view",
      "type": "function"
    },
    {
      "inputs": [],
      "name": "feeTokenPriceProvider",
      "outputs": [
        {
          "internalType": "contract IPriceProvider",
          "name": "",
          "type": "address"
        }
      ],
      "stateMutability": "view",
      "type": "function"
    },
    {
      "inputs": [],
      "name": "getBts",
      "outputs": [
        {
          "internalType": "uint256",
          "name": "",
          "type": "uint256"
        }
      ],
      "stateMutability": "view",
      "type": "function"
    },
    {
      "inputs": [],
      "name": "getCglb",
      "outputs": [
        {
          "internalType": "uint256",
          "name": "cglob",
          "type": "uint256"
        }
      ],
      "stateMutability": "view",
      "type": "function"
    },
    {
      "inputs": [],
      "name": "getCustomMockValue",
      "outputs": [
        {
          "internalType": "uint256",
          "name": "",
          "type": "uint256"
        }
      ],
      "stateMutability": "view",
      "type": "function"
    },
    {
      "inputs": [],
      "name": "getLckAC",
      "outputs": [
        {
          "internalType": "uint256",
          "name": "lckAC",
          "type": "uint256"
        }
      ],
      "stateMutability": "view",
      "type": "function"
    },
    {
      "inputs": [],
      "name": "getLeverageTC",
      "outputs": [
        {
          "internalType": "uint256",
          "name": "leverageTC",
          "type": "uint256"
        }
      ],
      "stateMutability": "view",
      "type": "function"
    },
    {
      "inputs": [
        {
          "internalType": "address",
          "name": "tp_",
          "type": "address"
        }
      ],
      "name": "getPACtp",
      "outputs": [
        {
          "internalType": "uint256",
          "name": "",
          "type": "uint256"
        }
      ],
      "stateMutability": "view",
      "type": "function"
    },
    {
      "inputs": [],
      "name": "getPTCac",
      "outputs": [
        {
          "internalType": "uint256",
          "name": "pTCac",
          "type": "uint256"
        }
      ],
      "stateMutability": "view",
      "type": "function"
    },
    {
      "inputs": [],
      "name": "getTCAvailableToRedeem",
      "outputs": [
        {
          "internalType": "uint256",
          "name": "tcAvailableToRedeem",
          "type": "uint256"
        }
      ],
      "stateMutability": "view",
      "type": "function"
    },
    {
      "inputs": [
        {
          "internalType": "address",
          "name": "tp_",
          "type": "address"
        }
      ],
      "name": "getTPAvailableToMint",
      "outputs": [
        {
          "internalType": "int256",
          "name": "tpAvailableToMint",
          "type": "int256"
        }
      ],
      "stateMutability": "view",
      "type": "function"
    },
    {
      "inputs": [],
      "name": "getTotalACavailable",
      "outputs": [
        {
          "internalType": "uint256",
          "name": "totalACavailable",
          "type": "uint256"
        }
      ],
      "stateMutability": "view",
      "type": "function"
    },
    {
      "inputs": [],
      "name": "governor",
      "outputs": [
        {
          "internalType": "contract IGovernor",
          "name": "",
          "type": "address"
        }
      ],
      "stateMutability": "view",
      "type": "function"
    },
    {
      "inputs": [
        {
          "components": [
            {
              "components": [
                {
                  "components": [
                    {
                      "internalType": "address",
                      "name": "mocQueueAddress",
                      "type": "address"
                    },
                    {
                      "internalType": "address",
                      "name": "feeTokenAddress",
                      "type": "address"
                    },
                    {
                      "internalType": "address",
                      "name": "feeTokenPriceProviderAddress",
                      "type": "address"
                    },
                    {
                      "internalType": "address",
                      "name": "tcTokenAddress",
                      "type": "address"
                    },
                    {
                      "internalType": "address",
                      "name": "mocFeeFlowAddress",
                      "type": "address"
                    },
                    {
                      "internalType": "address",
                      "name": "mocAppreciationBeneficiaryAddress",
                      "type": "address"
                    },
                    {
                      "internalType": "uint256",
                      "name": "protThrld",
                      "type": "uint256"
                    },
                    {
                      "internalType": "uint256",
                      "name": "liqThrld",
                      "type": "uint256"
                    },
                    {
                      "internalType": "uint256",
                      "name": "feeRetainer",
                      "type": "uint256"
                    },
                    {
                      "internalType": "uint256",
                      "name": "tcMintFee",
                      "type": "uint256"
                    },
                    {
                      "internalType": "uint256",
                      "name": "tcRedeemFee",
                      "type": "uint256"
                    },
                    {
                      "internalType": "uint256",
                      "name": "swapTPforTPFee",
                      "type": "uint256"
                    },
                    {
                      "internalType": "uint256",
                      "name": "swapTPforTCFee",
                      "type": "uint256"
                    },
                    {
                      "internalType": "uint256",
                      "name": "swapTCforTPFee",
                      "type": "uint256"
                    },
                    {
                      "internalType": "uint256",
                      "name": "redeemTCandTPFee",
                      "type": "uint256"
                    },
                    {
                      "internalType": "uint256",
                      "name": "mintTCandTPFee",
                      "type": "uint256"
                    },
                    {
                      "internalType": "uint256",
                      "name": "feeTokenPct",
                      "type": "uint256"
                    },
                    {
                      "internalType": "uint256",
                      "name": "successFee",
                      "type": "uint256"
                    },
                    {
                      "internalType": "uint256",
                      "name": "appreciationFactor",
                      "type": "uint256"
                    },
                    {
                      "internalType": "uint256",
                      "name": "bes",
                      "type": "uint256"
                    },
                    {
                      "internalType": "address",
                      "name": "tcInterestCollectorAddress",
                      "type": "address"
                    },
                    {
                      "internalType": "uint256",
                      "name": "tcInterestRate",
                      "type": "uint256"
                    },
                    {
                      "internalType": "uint256",
                      "name": "tcInterestPaymentBlockSpan",
                      "type": "uint256"
                    },
                    {
                      "internalType": "address",
                      "name": "maxAbsoluteOpProviderAddress",
                      "type": "address"
                    },
                    {
                      "internalType": "address",
                      "name": "maxOpDiffProviderAddress",
                      "type": "address"
                    },
                    {
                      "internalType": "uint256",
                      "name": "decayBlockSpan",
                      "type": "uint256"
                    }
                  ],
                  "internalType": "struct MocBaseBucket.InitializeBaseBucketParams",
                  "name": "initializeBaseBucketParams",
                  "type": "tuple"
                },
                {
                  "internalType": "address",
                  "name": "governorAddress",
                  "type": "address"
                },
                {
                  "internalType": "address",
                  "name": "pauserAddress",
                  "type": "address"
                },
                {
                  "internalType": "address",
                  "name": "mocCoreExpansion",
                  "type": "address"
                },
                {
                  "internalType": "uint256",
                  "name": "emaCalculationBlockSpan",
                  "type": "uint256"
                },
                {
                  "internalType": "address",
                  "name": "mocVendors",
                  "type": "address"
                }
              ],
              "internalType": "struct MocCore.InitializeCoreParams",
              "name": "initializeCoreParams",
              "type": "tuple"
            },
            {
              "internalType": "uint256",
              "name": "transferMaxGas",
              "type": "uint256"
            },
            {
              "internalType": "address",
              "name": "coinbaseFailedTransferFallback",
              "type": "address"
            }
          ],
          "internalType": "struct MocCACoinbase.InitializeParams",
          "name": "initializeParams_",
          "type": "tuple"
        }
      ],
      "name": "initialize",
      "outputs": [],
      "stateMutability": "nonpayable",
      "type": "function"
    },
    {
      "inputs": [],
      "name": "initializeMock",
      "outputs": [],
      "stateMutability": "nonpayable",
      "type": "function"
    },
    {
      "inputs": [],
      "name": "isLiquidationReached",
      "outputs": [
        {
          "internalType": "bool",
          "name": "",
          "type": "bool"
        }
      ],
      "stateMutability": "view",
      "type": "function"
    },
    {
      "inputs": [],
      "name": "lastOperationBlockNumber",
      "outputs": [
        {
          "internalType": "uint256",
          "name": "",
          "type": "uint256"
        }
      ],
      "stateMutability": "view",
      "type": "function"
    },
    {
      "inputs": [],
      "name": "liqEnabled",
      "outputs": [
        {
          "internalType": "bool",
          "name": "",
          "type": "bool"
        }
      ],
      "stateMutability": "view",
      "type": "function"
    },
    {
      "inputs": [
        {
          "internalType": "address",
          "name": "tp_",
          "type": "address"
        }
      ],
      "name": "liqRedeemTP",
      "outputs": [
        {
          "internalType": "uint256",
          "name": "qACRedeemed",
          "type": "uint256"
        }
      ],
      "stateMutability": "nonpayable",
      "type": "function"
    },
    {
      "inputs": [
        {
          "internalType": "address",
          "name": "tp_",
          "type": "address"
        },
        {
          "internalType": "address",
          "name": "recipient_",
          "type": "address"
        }
      ],
      "name": "liqRedeemTPto",
      "outputs": [
        {
          "internalType": "uint256",
          "name": "qACRedeemed",
          "type": "uint256"
        }
      ],
      "stateMutability": "nonpayable",
      "type": "function"
    },
    {
      "inputs": [],
      "name": "liqThrld",
      "outputs": [
        {
          "internalType": "uint256",
          "name": "",
          "type": "uint256"
        }
      ],
      "stateMutability": "view",
      "type": "function"
    },
    {
      "inputs": [],
      "name": "liquidated",
      "outputs": [
        {
          "internalType": "bool",
          "name": "",
          "type": "bool"
        }
      ],
      "stateMutability": "view",
      "type": "function"
    },
    {
      "inputs": [],
      "name": "makeStoppable",
      "outputs": [],
      "stateMutability": "nonpayable",
      "type": "function"
    },
    {
      "inputs": [],
      "name": "makeUnstoppable",
      "outputs": [],
      "stateMutability": "nonpayable",
      "type": "function"
    },
    {
      "inputs": [],
      "name": "maxAbsoluteOpProvider",
      "outputs": [
        {
          "internalType": "contract IDataProvider",
          "name": "",
          "type": "address"
        }
      ],
      "stateMutability": "view",
      "type": "function"
    },
    {
      "inputs": [],
      "name": "maxOpDiffProvider",
      "outputs": [
        {
          "internalType": "contract IDataProvider",
          "name": "",
          "type": "address"
        }
      ],
      "stateMutability": "view",
      "type": "function"
    },
    {
      "inputs": [],
      "name": "maxQACToMintTP",
      "outputs": [
        {
          "internalType": "uint256",
          "name": "maxQAC",
          "type": "uint256"
        }
      ],
      "stateMutability": "view",
      "type": "function"
    },
    {
      "inputs": [],
      "name": "maxQACToRedeemTP",
      "outputs": [
        {
          "internalType": "uint256",
          "name": "maxQAC",
          "type": "uint256"
        }
      ],
      "stateMutability": "view",
      "type": "function"
    },
    {
      "inputs": [
        {
          "internalType": "uint256",
          "name": "qTC_",
          "type": "uint256"
        }
      ],
      "name": "mintTC",
      "outputs": [
        {
          "internalType": "uint256",
          "name": "operId",
          "type": "uint256"
        }
      ],
      "stateMutability": "payable",
      "type": "function"
    },
    {
      "inputs": [
        {
          "internalType": "uint256",
          "name": "qTC_",
          "type": "uint256"
        },
        {
          "internalType": "address",
          "name": "vendor_",
          "type": "address"
        }
      ],
      "name": "mintTCViaVendor",
      "outputs": [
        {
          "internalType": "uint256",
          "name": "operId",
          "type": "uint256"
        }
      ],
      "stateMutability": "payable",
      "type": "function"
    },
    {
      "inputs": [
        {
          "internalType": "address",
          "name": "tp_",
          "type": "address"
        },
        {
          "internalType": "uint256",
          "name": "qTP_",
          "type": "uint256"
        }
      ],
      "name": "mintTCandTP",
      "outputs": [
        {
          "internalType": "uint256",
          "name": "operId",
          "type": "uint256"
        }
      ],
      "stateMutability": "payable",
      "type": "function"
    },
    {
      "inputs": [],
      "name": "mintTCandTPFee",
      "outputs": [
        {
          "internalType": "uint256",
          "name": "",
          "type": "uint256"
        }
      ],
      "stateMutability": "view",
      "type": "function"
    },
    {
      "inputs": [
        {
          "internalType": "address",
          "name": "tp_",
          "type": "address"
        },
        {
          "internalType": "uint256",
          "name": "qTP_",
          "type": "uint256"
        },
        {
          "internalType": "address",
          "name": "vendor_",
          "type": "address"
        }
      ],
      "name": "mintTCandTPViaVendor",
      "outputs": [
        {
          "internalType": "uint256",
          "name": "operId",
          "type": "uint256"
        }
      ],
      "stateMutability": "payable",
      "type": "function"
    },
    {
      "inputs": [
        {
          "internalType": "address",
          "name": "tp_",
          "type": "address"
        },
        {
          "internalType": "uint256",
          "name": "qTP_",
          "type": "uint256"
        },
        {
          "internalType": "address",
          "name": "recipient_",
          "type": "address"
        }
      ],
      "name": "mintTCandTPto",
      "outputs": [
        {
          "internalType": "uint256",
          "name": "operId",
          "type": "uint256"
        }
      ],
      "stateMutability": "payable",
      "type": "function"
    },
    {
      "inputs": [
        {
          "internalType": "address",
          "name": "tp_",
          "type": "address"
        },
        {
          "internalType": "uint256",
          "name": "qTP_",
          "type": "uint256"
        },
        {
          "internalType": "address",
          "name": "recipient_",
          "type": "address"
        },
        {
          "internalType": "address",
          "name": "vendor_",
          "type": "address"
        }
      ],
      "name": "mintTCandTPtoViaVendor",
      "outputs": [
        {
          "internalType": "uint256",
          "name": "operId",
          "type": "uint256"
        }
      ],
      "stateMutability": "payable",
      "type": "function"
    },
    {
      "inputs": [
        {
          "internalType": "uint256",
          "name": "qTC_",
          "type": "uint256"
        },
        {
          "internalType": "address",
          "name": "recipient_",
          "type": "address"
        }
      ],
      "name": "mintTCto",
      "outputs": [
        {
          "internalType": "uint256",
          "name": "operId",
          "type": "uint256"
        }
      ],
      "stateMutability": "payable",
      "type": "function"
    },
    {
      "inputs": [
        {
          "internalType": "uint256",
          "name": "qTC_",
          "type": "uint256"
        },
        {
          "internalType": "address",
          "name": "recipient_",
          "type": "address"
        },
        {
          "internalType": "address",
          "name": "vendor_",
          "type": "address"
        }
      ],
      "name": "mintTCtoViaVendor",
      "outputs": [
        {
          "internalType": "uint256",
          "name": "operId",
          "type": "uint256"
        }
      ],
      "stateMutability": "payable",
      "type": "function"
    },
    {
      "inputs": [
        {
          "internalType": "address",
          "name": "tp_",
          "type": "address"
        },
        {
          "internalType": "uint256",
          "name": "qTP_",
          "type": "uint256"
        }
      ],
      "name": "mintTP",
      "outputs": [
        {
          "internalType": "uint256",
          "name": "operId",
          "type": "uint256"
        }
      ],
      "stateMutability": "payable",
      "type": "function"
    },
    {
      "inputs": [
        {
          "internalType": "address",
          "name": "tp_",
          "type": "address"
        },
        {
          "internalType": "uint256",
          "name": "qTP_",
          "type": "uint256"
        },
        {
          "internalType": "address",
          "name": "vendor_",
          "type": "address"
        }
      ],
      "name": "mintTPViaVendor",
      "outputs": [
        {
          "internalType": "uint256",
          "name": "operId",
          "type": "uint256"
        }
      ],
      "stateMutability": "payable",
      "type": "function"
    },
    {
      "inputs": [
        {
          "internalType": "address",
          "name": "tp_",
          "type": "address"
        },
        {
          "internalType": "uint256",
          "name": "qTP_",
          "type": "uint256"
        },
        {
          "internalType": "address",
          "name": "recipient_",
          "type": "address"
        }
      ],
      "name": "mintTPto",
      "outputs": [
        {
          "internalType": "uint256",
          "name": "operId",
          "type": "uint256"
        }
      ],
      "stateMutability": "payable",
      "type": "function"
    },
    {
      "inputs": [
        {
          "internalType": "address",
          "name": "tp_",
          "type": "address"
        },
        {
          "internalType": "uint256",
          "name": "qTP_",
          "type": "uint256"
        },
        {
          "internalType": "address",
          "name": "recipient_",
          "type": "address"
        },
        {
          "internalType": "address",
          "name": "vendor_",
          "type": "address"
        }
      ],
      "name": "mintTPtoViaVendor",
      "outputs": [
        {
          "internalType": "uint256",
          "name": "operId",
          "type": "uint256"
        }
      ],
      "stateMutability": "payable",
      "type": "function"
    },
    {
      "inputs": [],
      "name": "mocAppreciationBeneficiaryAddress",
      "outputs": [
        {
          "internalType": "address",
          "name": "",
          "type": "address"
        }
      ],
      "stateMutability": "view",
      "type": "function"
    },
    {
      "inputs": [],
      "name": "mocFeeFlowAddress",
      "outputs": [
        {
          "internalType": "address",
          "name": "",
          "type": "address"
        }
      ],
      "stateMutability": "view",
      "type": "function"
    },
    {
      "inputs": [],
      "name": "mocQueue",
      "outputs": [
        {
          "internalType": "address",
          "name": "",
          "type": "address"
        }
      ],
      "stateMutability": "view",
      "type": "function"
    },
    {
      "inputs": [],
      "name": "mocVendors",
      "outputs": [
        {
          "internalType": "contract MocVendors",
          "name": "",
          "type": "address"
        }
      ],
      "stateMutability": "view",
      "type": "function"
    },
    {
      "inputs": [],
      "name": "nACcb",
      "outputs": [
        {
          "internalType": "uint256",
          "name": "",
          "type": "uint256"
        }
      ],
      "stateMutability": "view",
      "type": "function"
    },
    {
      "inputs": [],
      "name": "nTCcb",
      "outputs": [
        {
          "internalType": "uint256",
          "name": "",
          "type": "uint256"
        }
      ],
      "stateMutability": "view",
      "type": "function"
    },
    {
      "inputs": [],
      "name": "newVariable",
      "outputs": [
        {
          "internalType": "uint256",
          "name": "",
          "type": "uint256"
        }
      ],
      "stateMutability": "view",
      "type": "function"
    },
    {
      "inputs": [],
      "name": "nextEmaCalculation",
      "outputs": [
        {
          "internalType": "uint256",
          "name": "",
          "type": "uint256"
        }
      ],
      "stateMutability": "view",
      "type": "function"
    },
    {
      "inputs": [],
      "name": "nextTCInterestPayment",
      "outputs": [
        {
          "internalType": "uint256",
          "name": "",
          "type": "uint256"
        }
      ],
      "stateMutability": "view",
      "type": "function"
    },
    {
      "inputs": [],
      "name": "pause",
      "outputs": [],
      "stateMutability": "nonpayable",
      "type": "function"
    },
    {
      "inputs": [],
      "name": "paused",
      "outputs": [
        {
          "internalType": "bool",
          "name": "",
          "type": "bool"
        }
      ],
      "stateMutability": "view",
      "type": "function"
    },
    {
      "inputs": [],
      "name": "pauser",
      "outputs": [
        {
          "internalType": "address",
          "name": "",
          "type": "address"
        }
      ],
      "stateMutability": "view",
      "type": "function"
    },
    {
      "inputs": [
        {
          "internalType": "uint256",
          "name": "",
          "type": "uint256"
        }
      ],
      "name": "pegContainer",
      "outputs": [
        {
          "internalType": "uint256",
          "name": "nTP",
          "type": "uint256"
        },
        {
          "internalType": "contract IPriceProvider",
          "name": "priceProvider",
          "type": "address"
        }
      ],
      "stateMutability": "view",
      "type": "function"
    },
    {
      "inputs": [
        {
          "internalType": "address",
          "name": "",
          "type": "address"
        }
      ],
      "name": "peggedTokenIndex",
      "outputs": [
        {
          "internalType": "uint256",
          "name": "index",
          "type": "uint256"
        },
        {
          "internalType": "bool",
          "name": "exists",
          "type": "bool"
        }
      ],
      "stateMutability": "view",
      "type": "function"
    },
    {
      "inputs": [],
      "name": "protThrld",
      "outputs": [
        {
          "internalType": "uint256",
          "name": "",
          "type": "uint256"
        }
      ],
      "stateMutability": "view",
      "type": "function"
    },
    {
      "inputs": [],
      "name": "proxiableUUID",
      "outputs": [
        {
          "internalType": "bytes32",
          "name": "",
          "type": "bytes32"
        }
      ],
      "stateMutability": "view",
      "type": "function"
    },
    {
      "inputs": [],
      "name": "qACLockedInPending",
      "outputs": [
        {
          "internalType": "uint256",
          "name": "",
          "type": "uint256"
        }
      ],
      "stateMutability": "view",
      "type": "function"
    },
    {
      "inputs": [
        {
          "internalType": "uint256",
          "name": "qTC_",
          "type": "uint256"
        },
        {
          "internalType": "uint256",
          "name": "qACmin_",
          "type": "uint256"
        }
      ],
      "name": "redeemTC",
      "outputs": [
        {
          "internalType": "uint256",
          "name": "operId",
          "type": "uint256"
        }
      ],
      "stateMutability": "payable",
      "type": "function"
    },
    {
      "inputs": [
        {
          "internalType": "uint256",
          "name": "qTC_",
          "type": "uint256"
        },
        {
          "internalType": "uint256",
          "name": "qACmin_",
          "type": "uint256"
        },
        {
          "internalType": "address",
          "name": "vendor_",
          "type": "address"
        }
      ],
      "name": "redeemTCViaVendor",
      "outputs": [
        {
          "internalType": "uint256",
          "name": "operId",
          "type": "uint256"
        }
      ],
      "stateMutability": "payable",
      "type": "function"
    },
    {
      "inputs": [
        {
          "internalType": "address",
          "name": "tp_",
          "type": "address"
        },
        {
          "internalType": "uint256",
          "name": "qTC_",
          "type": "uint256"
        },
        {
          "internalType": "uint256",
          "name": "qTP_",
          "type": "uint256"
        },
        {
          "internalType": "uint256",
          "name": "qACmin_",
          "type": "uint256"
        }
      ],
      "name": "redeemTCandTP",
      "outputs": [
        {
          "internalType": "uint256",
          "name": "operId",
          "type": "uint256"
        }
      ],
      "stateMutability": "payable",
      "type": "function"
    },
    {
      "inputs": [],
      "name": "redeemTCandTPFee",
      "outputs": [
        {
          "internalType": "uint256",
          "name": "",
          "type": "uint256"
        }
      ],
      "stateMutability": "view",
      "type": "function"
    },
    {
      "inputs": [
        {
          "internalType": "address",
          "name": "tp_",
          "type": "address"
        },
        {
          "internalType": "uint256",
          "name": "qTC_",
          "type": "uint256"
        },
        {
          "internalType": "uint256",
          "name": "qTP_",
          "type": "uint256"
        },
        {
          "internalType": "uint256",
          "name": "qACmin_",
          "type": "uint256"
        },
        {
          "internalType": "address",
          "name": "vendor_",
          "type": "address"
        }
      ],
      "name": "redeemTCandTPViaVendor",
      "outputs": [
        {
          "internalType": "uint256",
          "name": "operId",
          "type": "uint256"
        }
      ],
      "stateMutability": "payable",
      "type": "function"
    },
    {
      "inputs": [
        {
          "internalType": "address",
          "name": "tp_",
          "type": "address"
        },
        {
          "internalType": "uint256",
          "name": "qTC_",
          "type": "uint256"
        },
        {
          "internalType": "uint256",
          "name": "qTP_",
          "type": "uint256"
        },
        {
          "internalType": "uint256",
          "name": "qACmin_",
          "type": "uint256"
        },
        {
          "internalType": "address",
          "name": "recipient_",
          "type": "address"
        }
      ],
      "name": "redeemTCandTPto",
      "outputs": [
        {
          "internalType": "uint256",
          "name": "operId",
          "type": "uint256"
        }
      ],
      "stateMutability": "payable",
      "type": "function"
    },
    {
      "inputs": [
        {
          "internalType": "address",
          "name": "tp_",
          "type": "address"
        },
        {
          "internalType": "uint256",
          "name": "qTC_",
          "type": "uint256"
        },
        {
          "internalType": "uint256",
          "name": "qTP_",
          "type": "uint256"
        },
        {
          "internalType": "uint256",
          "name": "qACmin_",
          "type": "uint256"
        },
        {
          "internalType": "address",
          "name": "recipient_",
          "type": "address"
        },
        {
          "internalType": "address",
          "name": "vendor_",
          "type": "address"
        }
      ],
      "name": "redeemTCandTPtoViaVendor",
      "outputs": [
        {
          "internalType": "uint256",
          "name": "operId",
          "type": "uint256"
        }
      ],
      "stateMutability": "payable",
      "type": "function"
    },
    {
      "inputs": [
        {
          "internalType": "uint256",
          "name": "qTC_",
          "type": "uint256"
        },
        {
          "internalType": "uint256",
          "name": "qACmin_",
          "type": "uint256"
        },
        {
          "internalType": "address",
          "name": "recipient_",
          "type": "address"
        }
      ],
      "name": "redeemTCto",
      "outputs": [
        {
          "internalType": "uint256",
          "name": "operId",
          "type": "uint256"
        }
      ],
      "stateMutability": "payable",
      "type": "function"
    },
    {
      "inputs": [
        {
          "internalType": "uint256",
          "name": "qTC_",
          "type": "uint256"
        },
        {
          "internalType": "uint256",
          "name": "qACmin_",
          "type": "uint256"
        },
        {
          "internalType": "address",
          "name": "recipient_",
          "type": "address"
        },
        {
          "internalType": "address",
          "name": "vendor_",
          "type": "address"
        }
      ],
      "name": "redeemTCtoViaVendor",
      "outputs": [
        {
          "internalType": "uint256",
          "name": "operId",
          "type": "uint256"
        }
      ],
      "stateMutability": "payable",
      "type": "function"
    },
    {
      "inputs": [
        {
          "internalType": "address",
          "name": "tp_",
          "type": "address"
        },
        {
          "internalType": "uint256",
          "name": "qTP_",
          "type": "uint256"
        },
        {
          "internalType": "uint256",
          "name": "qACmin_",
          "type": "uint256"
        }
      ],
      "name": "redeemTP",
      "outputs": [
        {
          "internalType": "uint256",
          "name": "operId",
          "type": "uint256"
        }
      ],
      "stateMutability": "payable",
      "type": "function"
    },
    {
      "inputs": [
        {
          "internalType": "address",
          "name": "tp_",
          "type": "address"
        },
        {
          "internalType": "uint256",
          "name": "qTP_",
          "type": "uint256"
        },
        {
          "internalType": "uint256",
          "name": "qACmin_",
          "type": "uint256"
        },
        {
          "internalType": "address",
          "name": "vendor_",
          "type": "address"
        }
      ],
      "name": "redeemTPViaVendor",
      "outputs": [
        {
          "internalType": "uint256",
          "name": "operId",
          "type": "uint256"
        }
      ],
      "stateMutability": "payable",
      "type": "function"
    },
    {
      "inputs": [
        {
          "internalType": "address",
          "name": "tp_",
          "type": "address"
        },
        {
          "internalType": "uint256",
          "name": "qTP_",
          "type": "uint256"
        },
        {
          "internalType": "uint256",
          "name": "qACmin_",
          "type": "uint256"
        },
        {
          "internalType": "address",
          "name": "recipient_",
          "type": "address"
        }
      ],
      "name": "redeemTPto",
      "outputs": [
        {
          "internalType": "uint256",
          "name": "operId",
          "type": "uint256"
        }
      ],
      "stateMutability": "payable",
      "type": "function"
    },
    {
      "inputs": [
        {
          "internalType": "address",
          "name": "tp_",
          "type": "address"
        },
        {
          "internalType": "uint256",
          "name": "qTP_",
          "type": "uint256"
        },
        {
          "internalType": "uint256",
          "name": "qACmin_",
          "type": "uint256"
        },
        {
          "internalType": "address",
          "name": "recipient_",
          "type": "address"
        },
        {
          "internalType": "address",
          "name": "vendor_",
          "type": "address"
        }
      ],
      "name": "redeemTPtoViaVendor",
      "outputs": [
        {
          "internalType": "uint256",
          "name": "operId",
          "type": "uint256"
        }
      ],
      "stateMutability": "payable",
      "type": "function"
    },
    {
      "inputs": [
        {
          "internalType": "uint256",
          "name": "appreciationFactor_",
          "type": "uint256"
        }
      ],
      "name": "setAppreciationFactor",
      "outputs": [],
      "stateMutability": "nonpayable",
      "type": "function"
    },
    {
      "inputs": [
        {
          "internalType": "uint256",
          "name": "bes_",
          "type": "uint256"
        }
      ],
      "name": "setBes",
      "outputs": [],
      "stateMutability": "nonpayable",
      "type": "function"
    },
    {
      "inputs": [
        {
          "internalType": "uint256",
          "name": "decayBlockSpan_",
          "type": "uint256"
        }
      ],
      "name": "setDecayBlockSpan",
      "outputs": [],
      "stateMutability": "nonpayable",
      "type": "function"
    },
    {
      "inputs": [
        {
          "internalType": "uint256",
          "name": "blockSpan_",
          "type": "uint256"
        }
      ],
      "name": "setEmaCalculationBlockSpan",
      "outputs": [],
      "stateMutability": "nonpayable",
      "type": "function"
    },
    {
      "inputs": [
        {
          "internalType": "uint256",
          "name": "feeRetainer_",
          "type": "uint256"
        }
      ],
      "name": "setFeeRetainer",
      "outputs": [],
      "stateMutability": "nonpayable",
      "type": "function"
    },
    {
      "inputs": [
        {
          "internalType": "address",
          "name": "mocFeeTokenAddress_",
          "type": "address"
        }
      ],
      "name": "setFeeTokenAddress",
      "outputs": [],
      "stateMutability": "nonpayable",
      "type": "function"
    },
    {
      "inputs": [
        {
          "internalType": "uint256",
          "name": "feeTokenPct_",
          "type": "uint256"
        }
      ],
      "name": "setFeeTokenPct",
      "outputs": [],
      "stateMutability": "nonpayable",
      "type": "function"
    },
    {
      "inputs": [
        {
          "internalType": "address",
          "name": "mocFeeTokenPriceProviderAddress_",
          "type": "address"
        }
      ],
      "name": "setFeeTokenPriceProviderAddress",
      "outputs": [],
      "stateMutability": "nonpayable",
      "type": "function"
    },
    {
      "inputs": [
        {
          "internalType": "bool",
          "name": "liqEnabled_",
          "type": "bool"
        }
      ],
      "name": "setLiqEnabled",
      "outputs": [],
      "stateMutability": "nonpayable",
      "type": "function"
    },
    {
      "inputs": [
        {
          "internalType": "uint256",
          "name": "liqThrld_",
          "type": "uint256"
        }
      ],
      "name": "setLiqThrld",
      "outputs": [],
      "stateMutability": "nonpayable",
      "type": "function"
    },
    {
      "inputs": [
        {
          "internalType": "address",
          "name": "maxAbsoluteOpProviderAddress_",
          "type": "address"
        }
      ],
      "name": "setMaxAbsoluteOpProviderAddress",
      "outputs": [],
      "stateMutability": "nonpayable",
      "type": "function"
    },
    {
      "inputs": [
        {
          "internalType": "address",
          "name": "maxOpDiffProviderAddress_",
          "type": "address"
        }
      ],
      "name": "setMaxOpDiffProviderAddress",
      "outputs": [],
      "stateMutability": "nonpayable",
      "type": "function"
    },
    {
      "inputs": [
        {
          "internalType": "uint256",
          "name": "mintTCandTPFee_",
          "type": "uint256"
        }
      ],
      "name": "setMintTCandTPFee",
      "outputs": [],
      "stateMutability": "nonpayable",
      "type": "function"
    },
    {
      "inputs": [
        {
          "internalType": "address",
          "name": "mocAppreciationBeneficiaryAddress_",
          "type": "address"
        }
      ],
      "name": "setMocAppreciationBeneficiaryAddress",
      "outputs": [],
      "stateMutability": "nonpayable",
      "type": "function"
    },
    {
      "inputs": [
        {
          "internalType": "address",
          "name": "mocCoreExpansion_",
          "type": "address"
        }
      ],
      "name": "setMocCoreExpansion",
      "outputs": [],
      "stateMutability": "nonpayable",
      "type": "function"
    },
    {
      "inputs": [
        {
          "internalType": "address",
          "name": "mocFeeFlowAddress_",
          "type": "address"
        }
      ],
      "name": "setMocFeeFlowAddress",
      "outputs": [],
      "stateMutability": "nonpayable",
      "type": "function"
    },
    {
      "inputs": [
        {
          "internalType": "address",
          "name": "mocQueueAddress_",
          "type": "address"
        }
      ],
      "name": "setMocQueue",
      "outputs": [],
      "stateMutability": "nonpayable",
      "type": "function"
    },
    {
      "inputs": [
        {
          "internalType": "address",
          "name": "mocVendors_",
          "type": "address"
        }
      ],
      "name": "setMocVendors",
      "outputs": [],
      "stateMutability": "nonpayable",
      "type": "function"
    },
    {
      "inputs": [
        {
          "internalType": "address",
          "name": "newPauser_",
          "type": "address"
        }
      ],
      "name": "setPauser",
      "outputs": [],
      "stateMutability": "nonpayable",
      "type": "function"
    },
    {
      "inputs": [
        {
          "internalType": "uint256",
          "name": "protThrld_",
          "type": "uint256"
        }
      ],
      "name": "setProtThrld",
      "outputs": [],
      "stateMutability": "nonpayable",
      "type": "function"
    },
    {
      "inputs": [
        {
          "internalType": "uint256",
          "name": "redeemTCandTPFee_",
          "type": "uint256"
        }
      ],
      "name": "setRedeemTCandTPFee",
      "outputs": [],
      "stateMutability": "nonpayable",
      "type": "function"
    },
    {
      "inputs": [
        {
          "internalType": "uint256",
          "name": "successFee_",
          "type": "uint256"
        }
      ],
      "name": "setSuccessFee",
      "outputs": [],
      "stateMutability": "nonpayable",
      "type": "function"
    },
    {
      "inputs": [
        {
          "internalType": "uint256",
          "name": "swapTCforTPFee_",
          "type": "uint256"
        }
      ],
      "name": "setSwapTCforTPFee",
      "outputs": [],
      "stateMutability": "nonpayable",
      "type": "function"
    },
    {
      "inputs": [
        {
          "internalType": "uint256",
          "name": "swapTPforTCFee_",
          "type": "uint256"
        }
      ],
      "name": "setSwapTPforTCFee",
      "outputs": [],
      "stateMutability": "nonpayable",
      "type": "function"
    },
    {
      "inputs": [
        {
          "internalType": "uint256",
          "name": "swapTPforTPFee_",
          "type": "uint256"
        }
      ],
      "name": "setSwapTPforTPFee",
      "outputs": [],
      "stateMutability": "nonpayable",
      "type": "function"
    },
    {
      "inputs": [
        {
          "internalType": "address",
          "name": "tcInterestCollectorAddress_",
          "type": "address"
        }
      ],
      "name": "setTCInterestCollectorAddress",
      "outputs": [],
      "stateMutability": "nonpayable",
      "type": "function"
    },
    {
      "inputs": [
        {
          "internalType": "uint256",
          "name": "tcInterestPaymentBlockSpan_",
          "type": "uint256"
        }
      ],
      "name": "setTCInterestPaymentBlockSpan",
      "outputs": [],
      "stateMutability": "nonpayable",
      "type": "function"
    },
    {
      "inputs": [
        {
          "internalType": "uint256",
          "name": "tcInterestRate_",
          "type": "uint256"
        }
      ],
      "name": "setTCInterestRate",
      "outputs": [],
      "stateMutability": "nonpayable",
      "type": "function"
    },
    {
      "inputs": [
        {
          "internalType": "uint256",
          "name": "tcMintFee_",
          "type": "uint256"
        }
      ],
      "name": "setTcMintFee",
      "outputs": [],
      "stateMutability": "nonpayable",
      "type": "function"
    },
    {
      "inputs": [
        {
          "internalType": "uint256",
          "name": "tcRedeemFee_",
          "type": "uint256"
        }
      ],
      "name": "setTcRedeemFee",
      "outputs": [],
      "stateMutability": "nonpayable",
      "type": "function"
    },
    {
      "inputs": [
        {
          "internalType": "uint256",
          "name": "transferMaxGas_",
          "type": "uint256"
        }
      ],
      "name": "setTransferMAxGas",
      "outputs": [],
      "stateMutability": "nonpayable",
      "type": "function"
    },
    {
      "inputs": [],
      "name": "shouldCalculateEma",
      "outputs": [
        {
          "internalType": "bool",
          "name": "",
          "type": "bool"
        }
      ],
      "stateMutability": "view",
      "type": "function"
    },
    {
      "inputs": [],
      "name": "stoppable",
      "outputs": [
        {
          "internalType": "bool",
          "name": "",
          "type": "bool"
        }
      ],
      "stateMutability": "view",
      "type": "function"
    },
    {
      "inputs": [],
      "name": "successFee",
      "outputs": [
        {
          "internalType": "uint256",
          "name": "",
          "type": "uint256"
        }
      ],
      "stateMutability": "view",
      "type": "function"
    },
    {
      "inputs": [
        {
          "internalType": "address",
          "name": "tp_",
          "type": "address"
        },
        {
          "internalType": "uint256",
          "name": "qTC_",
          "type": "uint256"
        },
        {
          "internalType": "uint256",
          "name": "qTPmin_",
          "type": "uint256"
        }
      ],
      "name": "swapTCforTP",
      "outputs": [
        {
          "internalType": "uint256",
          "name": "operId",
          "type": "uint256"
        }
      ],
      "stateMutability": "payable",
      "type": "function"
    },
    {
      "inputs": [],
      "name": "swapTCforTPFee",
      "outputs": [
        {
          "internalType": "uint256",
          "name": "",
          "type": "uint256"
        }
      ],
      "stateMutability": "view",
      "type": "function"
    },
    {
      "inputs": [
        {
          "internalType": "address",
          "name": "tp_",
          "type": "address"
        },
        {
          "internalType": "uint256",
          "name": "qTC_",
          "type": "uint256"
        },
        {
          "internalType": "uint256",
          "name": "qTPmin_",
          "type": "uint256"
        },
        {
          "internalType": "address",
          "name": "vendor_",
          "type": "address"
        }
      ],
      "name": "swapTCforTPViaVendor",
      "outputs": [
        {
          "internalType": "uint256",
          "name": "operId",
          "type": "uint256"
        }
      ],
      "stateMutability": "payable",
      "type": "function"
    },
    {
      "inputs": [
        {
          "internalType": "address",
          "name": "tp_",
          "type": "address"
        },
        {
          "internalType": "uint256",
          "name": "qTC_",
          "type": "uint256"
        },
        {
          "internalType": "uint256",
          "name": "qTPmin_",
          "type": "uint256"
        },
        {
          "internalType": "address",
          "name": "recipient_",
          "type": "address"
        }
      ],
      "name": "swapTCforTPto",
      "outputs": [
        {
          "internalType": "uint256",
          "name": "operId",
          "type": "uint256"
        }
      ],
      "stateMutability": "payable",
      "type": "function"
    },
    {
      "inputs": [
        {
          "internalType": "address",
          "name": "tp_",
          "type": "address"
        },
        {
          "internalType": "uint256",
          "name": "qTC_",
          "type": "uint256"
        },
        {
          "internalType": "uint256",
          "name": "qTPmin_",
          "type": "uint256"
        },
        {
          "internalType": "address",
          "name": "recipient_",
          "type": "address"
        },
        {
          "internalType": "address",
          "name": "vendor_",
          "type": "address"
        }
      ],
      "name": "swapTCforTPtoViaVendor",
      "outputs": [
        {
          "internalType": "uint256",
          "name": "operId",
          "type": "uint256"
        }
      ],
      "stateMutability": "payable",
      "type": "function"
    },
    {
      "inputs": [
        {
          "internalType": "address",
          "name": "tp_",
          "type": "address"
        },
        {
          "internalType": "uint256",
          "name": "qTP_",
          "type": "uint256"
        },
        {
          "internalType": "uint256",
          "name": "qTCmin_",
          "type": "uint256"
        }
      ],
      "name": "swapTPforTC",
      "outputs": [
        {
          "internalType": "uint256",
          "name": "operId",
          "type": "uint256"
        }
      ],
      "stateMutability": "payable",
      "type": "function"
    },
    {
      "inputs": [],
      "name": "swapTPforTCFee",
      "outputs": [
        {
          "internalType": "uint256",
          "name": "",
          "type": "uint256"
        }
      ],
      "stateMutability": "view",
      "type": "function"
    },
    {
      "inputs": [
        {
          "internalType": "address",
          "name": "tp_",
          "type": "address"
        },
        {
          "internalType": "uint256",
          "name": "qTP_",
          "type": "uint256"
        },
        {
          "internalType": "uint256",
          "name": "qTCmin_",
          "type": "uint256"
        },
        {
          "internalType": "address",
          "name": "vendor_",
          "type": "address"
        }
      ],
      "name": "swapTPforTCViaVendor",
      "outputs": [
        {
          "internalType": "uint256",
          "name": "operId",
          "type": "uint256"
        }
      ],
      "stateMutability": "payable",
      "type": "function"
    },
    {
      "inputs": [
        {
          "internalType": "address",
          "name": "tp_",
          "type": "address"
        },
        {
          "internalType": "uint256",
          "name": "qTP_",
          "type": "uint256"
        },
        {
          "internalType": "uint256",
          "name": "qTCmin_",
          "type": "uint256"
        },
        {
          "internalType": "address",
          "name": "recipient_",
          "type": "address"
        }
      ],
      "name": "swapTPforTCto",
      "outputs": [
        {
          "internalType": "uint256",
          "name": "operId",
          "type": "uint256"
        }
      ],
      "stateMutability": "payable",
      "type": "function"
    },
    {
      "inputs": [
        {
          "internalType": "address",
          "name": "tp_",
          "type": "address"
        },
        {
          "internalType": "uint256",
          "name": "qTP_",
          "type": "uint256"
        },
        {
          "internalType": "uint256",
          "name": "qTCmin_",
          "type": "uint256"
        },
        {
          "internalType": "address",
          "name": "recipient_",
          "type": "address"
        },
        {
          "internalType": "address",
          "name": "vendor_",
          "type": "address"
        }
      ],
      "name": "swapTPforTCtoViaVendor",
      "outputs": [
        {
          "internalType": "uint256",
          "name": "operId",
          "type": "uint256"
        }
      ],
      "stateMutability": "payable",
      "type": "function"
    },
    {
      "inputs": [
        {
          "internalType": "address",
          "name": "tpFrom_",
          "type": "address"
        },
        {
          "internalType": "address",
          "name": "tpTo_",
          "type": "address"
        },
        {
          "internalType": "uint256",
          "name": "qTP_",
          "type": "uint256"
        },
        {
          "internalType": "uint256",
          "name": "qTPmin_",
          "type": "uint256"
        }
      ],
      "name": "swapTPforTP",
      "outputs": [
        {
          "internalType": "uint256",
          "name": "operId",
          "type": "uint256"
        }
      ],
      "stateMutability": "payable",
      "type": "function"
    },
    {
      "inputs": [],
      "name": "swapTPforTPFee",
      "outputs": [
        {
          "internalType": "uint256",
          "name": "",
          "type": "uint256"
        }
      ],
      "stateMutability": "view",
      "type": "function"
    },
    {
      "inputs": [
        {
          "internalType": "address",
          "name": "tpFrom_",
          "type": "address"
        },
        {
          "internalType": "address",
          "name": "tpTo_",
          "type": "address"
        },
        {
          "internalType": "uint256",
          "name": "qTP_",
          "type": "uint256"
        },
        {
          "internalType": "uint256",
          "name": "qTPmin_",
          "type": "uint256"
        },
        {
          "internalType": "address",
          "name": "vendor_",
          "type": "address"
        }
      ],
      "name": "swapTPforTPViaVendor",
      "outputs": [
        {
          "internalType": "uint256",
          "name": "operId",
          "type": "uint256"
        }
      ],
      "stateMutability": "payable",
      "type": "function"
    },
    {
      "inputs": [
        {
          "internalType": "address",
          "name": "tpFrom_",
          "type": "address"
        },
        {
          "internalType": "address",
          "name": "tpTo_",
          "type": "address"
        },
        {
          "internalType": "uint256",
          "name": "qTP_",
          "type": "uint256"
        },
        {
          "internalType": "uint256",
          "name": "qTPmin_",
          "type": "uint256"
        },
        {
          "internalType": "address",
          "name": "recipient_",
          "type": "address"
        }
      ],
      "name": "swapTPforTPto",
      "outputs": [
        {
          "internalType": "uint256",
          "name": "operId",
          "type": "uint256"
        }
      ],
      "stateMutability": "payable",
      "type": "function"
    },
    {
      "inputs": [
        {
          "internalType": "address",
          "name": "tpFrom_",
          "type": "address"
        },
        {
          "internalType": "address",
          "name": "tpTo_",
          "type": "address"
        },
        {
          "internalType": "uint256",
          "name": "qTP_",
          "type": "uint256"
        },
        {
          "internalType": "uint256",
          "name": "qTPmin_",
          "type": "uint256"
        },
        {
          "internalType": "address",
          "name": "recipient_",
          "type": "address"
        },
        {
          "internalType": "address",
          "name": "vendor_",
          "type": "address"
        }
      ],
      "name": "swapTPforTPtoViaVendor",
      "outputs": [
        {
          "internalType": "uint256",
          "name": "operId",
          "type": "uint256"
        }
      ],
      "stateMutability": "payable",
      "type": "function"
    },
    {
      "inputs": [],
      "name": "tcHoldersInterestPayment",
      "outputs": [],
      "stateMutability": "nonpayable",
      "type": "function"
    },
    {
      "inputs": [],
      "name": "tcInterestCollectorAddress",
      "outputs": [
        {
          "internalType": "address",
          "name": "",
          "type": "address"
        }
      ],
      "stateMutability": "view",
      "type": "function"
    },
    {
      "inputs": [],
      "name": "tcInterestPaymentBlockSpan",
      "outputs": [
        {
          "internalType": "uint256",
          "name": "",
          "type": "uint256"
        }
      ],
      "stateMutability": "view",
      "type": "function"
    },
    {
      "inputs": [],
      "name": "tcInterestRate",
      "outputs": [
        {
          "internalType": "uint256",
          "name": "",
          "type": "uint256"
        }
      ],
      "stateMutability": "view",
      "type": "function"
    },
    {
      "inputs": [],
      "name": "tcMintFee",
      "outputs": [
        {
          "internalType": "uint256",
          "name": "",
          "type": "uint256"
        }
      ],
      "stateMutability": "view",
      "type": "function"
    },
    {
      "inputs": [],
      "name": "tcRedeemFee",
      "outputs": [
        {
          "internalType": "uint256",
          "name": "",
          "type": "uint256"
        }
      ],
      "stateMutability": "view",
      "type": "function"
    },
    {
      "inputs": [],
      "name": "tcToken",
      "outputs": [
        {
          "internalType": "contract MocTC",
          "name": "",
          "type": "address"
        }
      ],
      "stateMutability": "view",
      "type": "function"
    },
    {
      "inputs": [
        {
          "internalType": "uint256",
          "name": "",
          "type": "uint256"
        }
      ],
      "name": "tpCtarg",
      "outputs": [
        {
          "internalType": "uint256",
          "name": "",
          "type": "uint256"
        }
      ],
      "stateMutability": "view",
      "type": "function"
    },
    {
      "inputs": [
        {
          "internalType": "uint256",
          "name": "",
          "type": "uint256"
        }
      ],
      "name": "tpEma",
      "outputs": [
        {
          "internalType": "uint256",
          "name": "ema",
          "type": "uint256"
        },
        {
          "internalType": "uint256",
          "name": "sf",
          "type": "uint256"
        }
      ],
      "stateMutability": "view",
      "type": "function"
    },
    {
      "inputs": [
        {
          "internalType": "uint256",
          "name": "",
          "type": "uint256"
        }
      ],
      "name": "tpLiqPrices",
      "outputs": [
        {
          "internalType": "uint256",
          "name": "",
          "type": "uint256"
        }
      ],
      "stateMutability": "view",
      "type": "function"
    },
    {
      "inputs": [
        {
          "internalType": "address",
          "name": "",
          "type": "address"
        }
      ],
      "name": "tpMintFees",
      "outputs": [
        {
          "internalType": "uint256",
          "name": "",
          "type": "uint256"
        }
      ],
      "stateMutability": "view",
      "type": "function"
    },
    {
      "inputs": [
        {
          "internalType": "address",
          "name": "",
          "type": "address"
        }
      ],
      "name": "tpRedeemFees",
      "outputs": [
        {
          "internalType": "uint256",
          "name": "",
          "type": "uint256"
        }
      ],
      "stateMutability": "view",
      "type": "function"
    },
    {
      "inputs": [
        {
          "internalType": "uint256",
          "name": "",
          "type": "uint256"
        }
      ],
      "name": "tpTokens",
      "outputs": [
        {
          "internalType": "contract IMocRC20",
          "name": "",
          "type": "address"
        }
      ],
      "stateMutability": "view",
      "type": "function"
    },
    {
      "inputs": [],
      "name": "transferMaxGas",
      "outputs": [
        {
          "internalType": "uint256",
          "name": "",
          "type": "uint256"
        }
      ],
      "stateMutability": "view",
      "type": "function"
    },
    {
      "inputs": [
        {
          "internalType": "address",
          "name": "owner_",
          "type": "address"
        },
        {
          "internalType": "uint256",
          "name": "qACToUnlock_",
          "type": "uint256"
        }
      ],
      "name": "unlockACInPending",
      "outputs": [],
      "stateMutability": "nonpayable",
      "type": "function"
    },
    {
      "inputs": [
        {
          "internalType": "address",
          "name": "owner_",
          "type": "address"
        },
        {
          "internalType": "uint256",
          "name": "qTCToUnlock_",
          "type": "uint256"
        }
      ],
      "name": "unlockTCInPending",
      "outputs": [],
      "stateMutability": "nonpayable",
      "type": "function"
    },
    {
      "inputs": [
        {
          "internalType": "address",
          "name": "owner_",
          "type": "address"
        },
        {
          "internalType": "contract IERC20Upgradeable",
          "name": "tpToken_",
          "type": "address"
        },
        {
          "internalType": "uint256",
          "name": "qTPToUnlock_",
          "type": "uint256"
        }
      ],
      "name": "unlockTPInPending",
      "outputs": [],
      "stateMutability": "nonpayable",
      "type": "function"
    },
    {
      "inputs": [],
      "name": "unpause",
      "outputs": [],
      "stateMutability": "nonpayable",
      "type": "function"
    },
    {
      "inputs": [],
      "name": "updateEmas",
      "outputs": [],
      "stateMutability": "nonpayable",
      "type": "function"
    },
    {
      "inputs": [
        {
          "internalType": "address",
          "name": "newImplementation",
          "type": "address"
        }
      ],
      "name": "upgradeTo",
      "outputs": [],
      "stateMutability": "nonpayable",
      "type": "function"
    },
    {
      "inputs": [
        {
          "internalType": "address",
          "name": "newImplementation",
          "type": "address"
        },
        {
          "internalType": "bytes",
          "name": "data",
          "type": "bytes"
        }
      ],
      "name": "upgradeToAndCall",
      "outputs": [],
      "stateMutability": "payable",
      "type": "function"
    },
    {
      "stateMutability": "payable",
      "type": "receive"
    }
  ],
  "bytecode": "0x60a08060405234620000e157306080526000549060ff8260081c166200008f575060ff8082160362000053575b6040516160159081620000e782396080518181816129c601528181612b7701526131070152f35b60ff90811916176000557f7f26b83ff96e1f2b6a682f133852f6798a09c465da95921460cefb3847402498602060405160ff8152a1386200002c565b62461bcd60e51b815260206004820152602760248201527f496e697469616c697a61626c653a20636f6e747261637420697320696e697469604482015266616c697a696e6760c81b6064820152608490fd5b600080fdfe604060808152600436101561002d575b50361561001b57600080fd5b610131610029348254614194565b9055005b60009060e08235811c90816301dde6ef14613a3f57816301f1b684146139f85781630579188f1461395f578163073763b91461393b5781630b69640d146138da5781630c340a24146138b15781630c36d897146138915781630d10ebe9146138755781630d6ac4631461382f5781630db496561461380f5781630e0a8fd2146137eb5781630f1e5e2b146137a557816313ed7ba51461377b57816317937f9b146137445781631867e2f5146137245781631af4b229146136eb5781631fb0dda0146136c25781631fe6a7ad146136885781632069f75314613664578163235e81cf1461347257816323b98cde1461344a578163243d56a51461341657816324ffaba3146133d957816327eab2a1146133935781632a20d57d146133735781632c43bd3b1461334f5781632d88af4a146132f85781632ded50f0146132d857816331f64ec2146132ba578163333431fd1461329a57816333421c38146131a7578163342468621461316c5781633659cfe6146130d25781633915edcb146130a1578163391bf6cf14612f895781633b0d5fff14612f475781633bc4ac0a14612f235781633cfb09ef14612edd5781633dbc50a914612e9b5781633f4ba83a14612e205781634017936a14612def578163407f0e3414612dcf578163466b893414612d98578163471a80e314612d655781634a58712414612d495781634af3a6fc14612cca5781634b74600114612c805781634c6af8e814612c4c5781634d977e7814612c2c5781634e1f907a14612c025781634f0f27ee14612be25781634f1ef28614612aee57816351a9cedc14612aac5781635210570c14612a8657816352d1902d146129b157816352e18f8f14612996578163533a4bea1461296557816353b16d1714612920578163543aeb48146128fc57816357271f4d146128cc5781635860ee63146128ac57816358f32de91461283a5781635c616a731461263f5781635c975abb146126185781635cfbe578146125f85781635e2a6065146125de5781635ece17ef1461258957816360009e0b1461255f578163647846a51461253557816364ec230a14612511578163662013f4146124f457816368274357146124cb57816368748a42146124b057816368a09e131461249257816369d9c2f2146124775781636b5488df146124575781636f30471f146124375781637071346814612413578163735d3960146123cd57816373e28af9146123a95781637554fffd1461238957816376228055146123695781637636bb091461234d5781637750ba0c1461232957816379873a261461230e57816379f9a91c146122ee5781637a193c31146122ce5781637a4ff1d9146122aa5781637a727fe81461228a5781637af5758c146122665781637cba2383146122425781637d8e0314146122035781637f01c715146121d95781637f13b998146121a35781637f4a4fe014612183578163826fcd58146121605781638456cb59146120cb57816385bf959314612085578163883d21cb14611fc457816389fd503e14611faa5781638acc201114611f905781638cfa424114611f705781638d7a72f314611f505781638e2bdb8614611f265781638f1a383a14611efe578163960556f314611ebc578163963dcc981461196c5781639853c35a146119425781639abb14c9146119235781639ad6659d146118ed5781639bea71a4146118ab5781639cabfc001461185f5781639fd0506d14611832578163a8e9ac301461180f578163ad4e666d14611630578163aea038dc14611610578163aeb41e69146115f3578163b3903b39146115c3578163b4434c3214611405578163b5e9ea8c146113db578163b9fa6413146113bb578163bb4872de14611397578163bc4e55b2146112c9578163becaca6b146112a5578163bf1ad8b114611289578163bfe426211461108e578163c00f538d1461106a578163c039cc6914611028578163c0d8e15e14610fe0578163c4cb376c14610fbc578163c84353c914610f98578163cc75b04814610f7c578163cf351c1d14610f36578163d1a0faa014610f1d578163d471849b14610edb578163d6af11da14610e9f578163d8233ecc14610e6d578163d87aab6f14610e4d578163d8c69aec14610d37578163d8db6f5a14610cf1578163db79607214610cb4578163dd9928d814610c99578163ddb6d19014610c5c578163de8d520a14610c29578163e2c5e99014610bc8578163e401294514610b95578163e4c0aaf414610b50578163e6a683e014610b0a578163e6b1627c14610ac6578163e7c2597814610aa1578163e8859a1514610a84578163ea70b99e14610a64578163ee1f438f14610a3a578163eedd8a4014610a01578163f13f4054146109d7578163f26114aa1461097257508063f28087781461094e578063f30b56141461092f578063f375cfba14610910578063f3772886146108e7578063f88b14341461087e578063fa6e83bd1461085f578063fadda424146107eb578063fb3bfcea146107a3578063fd80fa77146107815763fda70f8b1461075f575061000f565b3461077d578160031936011261077d5760209061013c549051908152f35b5080fd5b5061079c602092610793366004613c62565b93929092615740565b9051908152f35b509060603660031901126107e857506001600160a01b039060243582811681036107e35760443592831683036107e35760209261079c9134600435614dae565b600080fd5b80fd5b5090346107e85760203660031901126107e857506001600160a01b0360043581811681036107e3576108296108216001926144c5565b610137613b98565b500154166108368161455c565b91909115610848575060209151908152f35b602490835190637f6e4db960e01b82526004820152fd5b503461077d578160031936011261077d5760209061013a549051908152f35b5090346107e85760203660031901126107e85750600435906001600160a01b03821682036107e35761079c6108d96020936108c26108ba614c57565b9190926144c5565b916108e16108d084846141b7565b519485936141cb565b959094614bb4565b90614ab1565b503461077d578160031936011261077d5761022a5490516001600160a01b039091168152602090f35b503461077d578160031936011261077d57602090610141549051908152f35b503461077d578160031936011261077d57602090610131549051908152f35b82346107e85760203660031901126107e857610968615eea565b60043561013c5580f35b9050346109d35736600319011261077d576109cf9061098f615eea565b516379308a5560e11b60208201526109bd816109af6004602483016149bd565b03601f198101835282613bb4565b6101f6546001600160a01b0316614886565b5080f35b8280fd5b50503461077d578160031936011261077d576101305490516001600160a01b039091168152602090f35b505060603660031901126107e3576004356001600160a01b03811681036107e35760209261079c913390349060443590602435906154a2565b50503461077d578160031936011261077d576101525490516001600160a01b039091168152602090f35b50503461077d578160031936011261077d57602090610229549051908152f35b50503461077d578160031936011261077d5760209061079c614b77565b50503461077d578160031936011261077d5760209060ff61014b541690519015158152f35b50503461077d57602036600319011261077d5760043561018e8054821015610b065790610af291613b98565b506001815491015482519182526020820152f35b8380fd5b83346107e85760203660031901126107e8576004356001600160a01b038116908190036107e357610b39615eea565b6101f680546001600160a01b031916909117905580f35b83346107e85760203660031901126107e8576004356001600160a01b0381169081900361077d57610b7f615eea565b6001600160601b0360a01b609754161760975580f35b505060603660031901126107e3576044356001600160a01b03811681036107e35760209261079c9160243560043561557e565b8284346107e85760603660031901126107e8576001600160a01b0360043581811681036107e357602435918083168303610b065761014f54163303610c185790610c159160443591615eb1565b80f35b8351631974847760e01b8152600490fd5b50503461077d578160031936011261077d5760209061079c610c51610c4c6145ce565b6141cb565b90506101315461439e565b50503461077d57602036600319011261077d576004356001600160a01b038116908190036107e35782829160209452610145845220549051908152f35b60208361079c610caa366004613c35565b9290913491614f71565b9050346109d35736600319011261077d576109cf90610cd1615eea565b51636dbcb03960e11b60208201526109bd816109af6004602483016149bd565b83346107e85760203660031901126107e8576004356001600160a01b038116908190036107e357610d20615eea565b61015280546001600160a01b031916909117905580f35b8391503461077d573660031901126107e85750610d5261582b565b5061014f546001600160a01b03919082163303610e3d57610e0291610d78366004615e3e565b91610d8161582b565b50610d8a614f4f565b610d92615f78565b610dde610dcf8251633dad0bd760e11b6020820152610db46024820187615452565b60e48152610dc461010482613bb4565b846101f65416614886565b60208082518301019101615de3565b86848760808498969b95979a015116918860c08160a0840151169201511692615b95565b600435938085168095036107e35760843590811681036107e357610e3994610e2f91886044350391615eb1565b5194859485613b1f565b0390f35b51631974847760e01b8152600490fd5b50503461077d578160031936011261077d57602090610155549051908152f35b8284816003193601126107e85750602435906001600160a01b03821682036107e35761079c6020923334600435614dae565b50503461077d578160031936011261077d5760209061079c610ec16001614608565b610ed5610ece828461430f565b9183614259565b9161464f565b505060603660031901126107e3576001600160a01b03916004359083821682036107e35760443593841684036107e35760209361079c9234906024359061502b565b83346107e857806003193601126107e857610c15614d1a565b83346107e85760203660031901126107e8576004356001600160a01b038116908190036107e357610f65615eea565b61012f80546001600160a01b031916909117905580f35b60208361079c610f8d366004613c08565b9290339234926154a2565b83346107e85760203660031901126107e857610fb2615eea565b60043561014c5580f35b83346107e85760203660031901126107e857610fd6615eea565b6004356102295580f35b5050608036600319011261077d576001600160a01b03916004359083821682036107e35760243593841684036107e35760209361079c923391349160643591604435916150a4565b50503461077d578160031936011261077d5760209061079c61105d611064611051610c4c6145ce565b6101319391935461439e565b918261439e565b90615f99565b83346107e85760203660031901126107e857611084615eea565b60043561013d5580f35b8284346107e85760a03660031901126107e8576110a961582b565b5061014f546001600160a01b039081163303611278576110ca366004615852565b916110d361582b565b506110dc614f4f565b6110e4615f78565b6110ec614d1a565b6110ff6110f7614c57565b8192916158af565b909161110e8284885193614a52565b81811061125b575050670de0b6b3a76400009161113061113692875192614a1e565b906142dc565b0491821561124a579383948161116f95019080825116916111646080890193878486511661013d54926158f2565b96918899919961439e565b9660208a015180891061122d575089519061013461118e83825461439e565b905561119e61013191825461439e565b905583610133541690813b156109d3578651632770a7eb60e21b815230600482015260248101919091529082908290604490829084905af180156112235761120e575b5050968561120493838060608996610e399b9c9d51169501511691511692615b95565b5193849384613ae1565b611219828092613bb4565b6107e857806111e1565b86513d84823e3d90fd5b604490898851916354cde31360e01b835260048301526024820152fd5b845163f3e39b5d60e01b8152600490fd5b6044925087519163a5db715d60e01b835260048301526024820152fd5b8251631974847760e01b8152600490fd5b60208361079c61129a366004613c08565b9290339234926153b4565b83346107e85760203660031901126107e8576112bf615eea565b6004356101395580f35b8391503461077d573660031901126107e857506112e461582b565b5061014f546001600160a01b03908116330361138657610e39610e2f9161130c366004615e3e565b9361131561582b565b5061131e614f4f565b611326615f78565b611348610dcf825163f5571e0160e01b6020820152610db46024820189615452565b948860608793969599949a0191825161136561014e91825461439e565b905560c061137b8b83608086015116955161439e565b920151169180615b95565b8151631974847760e01b8152600490fd5b50503461077d578160031936011261077d5760209060ff60ca541690519015158152f35b50503461077d578160031936011261077d5760209061015b549051908152f35b50503461077d578160031936011261077d576101535490516001600160a01b039091168152602090f35b8284346107e85760c03660031901126107e85761142061582b565b5061014f546001600160a01b03929083163303610e3d576114ba611445366004615ca8565b9161144e61582b565b50611457614f4f565b61145f615f78565b611467614d1a565b61146f614c57565b61147e878695939551166144c5565b9361149e61148c86846141b7565b51926114988488614968565b826158af565b6020889592950194848651946114b4828b614bb4565b90615d11565b8181106115a65750509480966114d461150c978451615f99565b94606087019061150183835116888a8960a082019888808b511693511681526101446020522054926158f2565b9891829b919b614194565b98878101968751808c1161158957508a15611578579489969461155382958d9e9f95610e399e958560806112049e9c61154861156e9b86615d29565b5192015116926148a8565b865161156361014e91825461439e565b90555116945161439e565b9151169180615b95565b885163f3e39b5d60e01b8152600490fd5b6044908c8b5191630b63f1a760e01b835260048301526024820152fd5b6044925084519163c39b739f60e01b835260048301526024820152fd5b50508060031936011261077d576024356001600160a01b03811681036107e35760209261079c9134600435614dae565b60208361079c611604366004613c62565b93929190913393615740565b50503461077d578160031936011261077d5760209061013d549051908152f35b8284346107e85760c03660031901126107e85761164b61582b565b5061014f546001600160a01b039081163303611278579061170e91611671366004615ca8565b9361167a61582b565b50611683614f4f565b61168b615f78565b6116936145ce565b926116a0838751166144c5565b926116c36116ae85876141b7565b51956116ba8787614968565b610149546158af565b50506116d460208801958651615f99565b916060880190828251169361170360a08b0195828c87808a5116915116865261014560205289862054926158f2565b9891839b919b61439e565b9882156117fe57878c0151808b106117e1575085916117669161173260018d615d29565b519361174082610137613b98565b5061174c86825461439e565b905561175c61013191825461439e565b9055610135613a63565b90549060031b1c1690813b156109d3578651632770a7eb60e21b815230600482015260248101919091529082908290604490829084905af18015611223576117cc575b5050968561120493838060808996610e399b9c9d51169501511691511692615b95565b6117d7828092613bb4565b6107e857806117a9565b6044908b8a51916354cde31360e01b835260048301526024820152fd5b875163f3e39b5d60e01b8152600490fd5b50503461077d578160031936011261077d5760209061018f544310159051908152f35b50503461077d578160031936011261077d5760ca54905160109190911c6001600160a01b03168152602090f35b8284346107e85760203660031901126107e8576004356001600160a01b03811691908290036107e357829181526101366020522060ff6001825492015416825191825215156020820152f35b8284346107e857816003193601126107e857506001600160a01b039060043582811681036107e35760243592831683036107e35760209261079c91339061480c565b50503461077d578160031936011261077d57602090611916611910610c4c6145ce565b90614380565b61014a5410159051908152f35b50508060031936011261077d5761079c6020923360243560043561557e565b50503461077d578160031936011261077d576101465490516001600160a01b039091168152602090f35b50503461077d5761042036600319011261077d57815460ff8160081c161590818092611eaf575b8015611e98575b15611e3d5760ff198116600117845581611e2c575b5060ff835460081c166119c1816147ac565b610384356001600160a01b038116908190036107e3576101f680546001600160a01b03191690911790556001600160a01b0361034435908116908190036107e357610364356001600160a01b03811681036107e357600191611a22846147ac565b611a2b846147ac565b611a34846147ac565b611a3d846147ac565b6001600160601b0360a01b6097541617609755611a59836147ac565b60ca5490620100008360b01b039060101b169061ff018360b01b031916171760ca55611a84816147ac565b670de0b6b3a764000060c43510611e1b57611aa161010435615fbd565b611aad61012435615fbd565b611ab961014435615fbd565b611ac561016435615fbd565b611ad161018435615fbd565b611add6101a435615fbd565b611ae96101c435615fbd565b611af56101e435615fbd565b611b0161020435615fbd565b611b19611b146102443561022435614194565b615fbd565b6004356001600160a01b038116908190036107e35761014f80546001600160a01b03191690911790556024356001600160a01b03811681036107e35761012f80546001600160a01b0319166001600160a01b0392831617905560443590811681036107e35761013080546001600160a01b0319166001600160a01b0392831617905560643590811681036107e35761013380546001600160a01b0319166001600160a01b0392831617905560843590811681036107e35761014680546001600160a01b0319166001600160a01b0392831617905560a43590811681036107e35761014780546001600160a01b0319166001600160a01b0392831617905560c4356101495560e43561014a556101043561013b556101243561013c556101443561013d556101643561013e556101843561013f556101a435610140556101c435610141556101e43561014255610204356101435561022435610139556102443561013a556102643561014c8190559061028435908116908190036107e35761015880546001600160a01b03191690911790556102a435610159556102c43561015a819055906001600160a01b036102e435908116908190036107e35761015280546001600160a01b03191690911790556001600160a01b0361030435908116908190036107e357610153906001600160601b0360a01b82541617905561032435610154554361015755430161014d55430161015b5561014b61ffff1981541690556103a435611d46826147ac565b8015611e0a57610190819055430161018f556103c4356001600160a01b03811681036107e357611d78611d9a926147ac565b6101c380546001600160a01b0319166001600160a01b03909216919091179055565b6103e43561022955610404356001600160a01b038116908190036107e35761022a80546001600160a01b0319169091179055611dd4575080f35b60207f7f26b83ff96e1f2b6a682f133852f6798a09c465da95921460cefb38474024989161ff001984541684555160018152a180f35b8351632a9ffab760e21b8152600490fd5b8251632a9ffab760e21b8152600490fd5b61ffff1916610101178355386119af565b825162461bcd60e51b815260206004820152602e60248201527f496e697469616c697a61626c653a20636f6e747261637420697320616c72656160448201526d191e481a5b9a5d1a585b1a5e995960921b6064820152608490fd5b50303b15801561199a5750600160ff82161461199a565b50600160ff821610611993565b8260603660031901126107e3576001600160a01b039060043582811681036107e35760443592831683036107e35760209261079c91339034906024359061502b565b50503461077d578160031936011261077d57602090611f1e610c4c6145ce565b509051908152f35b50503461077d578160031936011261077d576101585490516001600160a01b039091168152602090f35b50503461077d578160031936011261077d5760209061025d549051908152f35b50503461077d578160031936011261077d5760209061014a549051908152f35b60208361079c611fa1366004613c08565b92913392615671565b60208361079c611fbb366004613b5f565b93929092615671565b8284346107e85760c03660031901126107e85750611fe061582b565b5061014f546001600160a01b03908116330361138657610e39610e2f91612008366004615ca8565b9361201161582b565b5061201a614f4f565b612022615f78565b612053610dcf8251637225da8960e11b60208201526120446024820189614fe6565b60c48152610dc460e482613bb4565b9488858793969599949a0191825161206f61014e91825461439e565b905560a061137b8b83606086015116955161439e565b83346107e85760203660031901126107e8576004356001600160a01b038116908190036107e3576120b4615eea565b61015380546001600160a01b031916909117905580f35b50503461077d578160031936011261077d576120e5615f78565b60ca54601081901c6001600160a01b0316330361214f5760ff81161561213e5761ff0019166101001760ca55513381527f62e78cea01bee320cd4e420270b5ea74000d11b0c9f74754ebdbfc544b05a25890602090a180f35b815163866099c360e01b8152600490fd5b8151631d77d47760e21b8152600490fd5b50503461077d578160031936011261077d5760209061079c611910610c4c6145ce565b50503461077d578160031936011261077d5760209061015a549051908152f35b50503461077d578160031936011261077d5760209061079c6121c56001614608565b610ed56121d28284614259565b918361430f565b50503461077d578160031936011261077d576101c35490516001600160a01b039091168152602090f35b50503461077d57602036600319011261077d57600435916101489081548410156107e8575060209261223491613a63565b91905490519160031b1c8152f35b83346107e85760203660031901126107e85761225c615eea565b6004356101495580f35b83346107e85760203660031901126107e857612280615eea565b6004356101405580f35b50503461077d578160031936011261077d57602090610190549051908152f35b83346107e85760203660031901126107e8576122c4615eea565b6004356101415580f35b50503461077d578160031936011261077d57602090610134549051908152f35b50503461077d578160031936011261077d57602090610142549051908152f35b60208361079c61231f366004613c35565b929091349161502b565b83346107e85760203660031901126107e857612343615eea565b60043561013b5580f35b60208361079c61235e366004613b5f565b9391909234926154a2565b50503461077d578160031936011261077d57602090610156549051908152f35b50503461077d578160031936011261077d57602090610139549051908152f35b83346107e85760203660031901126107e8576123c3615eea565b6004356101545580f35b83346107e85760203660031901126107e8576004356001600160a01b038116908190036107e3576123fc615eea565b61015880546001600160a01b031916909117905580f35b83346107e85760203660031901126107e85761242d615eea565b60043561013e5580f35b50503461077d578160031936011261077d57602090610154549051908152f35b50503461077d578160031936011261077d57602090610149549051908152f35b60208361079c86612489366004613c08565b929134926154a2565b60208361079c866124a4366004613aa5565b939291909134936150a4565b60208361079c866124c2366004613c08565b929134926153b4565b83346107e857806003193601126107e8576124e4615eea565b600160ff1960ca54161760ca5580f35b50503461077d578160031936011261077d57602090611f1e614c57565b83346107e85760203660031901126107e85761252b615eea565b6004356101595580f35b50503461077d578160031936011261077d5761012f5490516001600160a01b039091168152602090f35b50503461077d578160031936011261077d576101335490516001600160a01b039091168152602090f35b828460c03660031901126107e857506001600160a01b039060043582811681036107e3576084359280841684036107e35760a43590811681036107e35760209361079c92606435906044359060243590615740565b83346107e857806003193601126107e857602a61025d5580f35b50503461077d578160031936011261077d5760209061014e549051908152f35b50503461077d578160031936011261077d5760209060ff60ca5460081c1690519015158152f35b50503461077d578160031936011261077d57612659615f78565b61014d805443106128295761014c54430190557fd3c59bda47e141a8ec5a33d241b7f71b86e30d359f83a9227d912858b60404fc8280a1610137548261269e826143c3565b91845b81811061275a57505080612715575b918051928184019084526020918285015282518091528160608501930191855b82811061270157867fae5116a8119d08673a0f1dfa7546b95da4bd54bb17feda7c61130ac7859152f687870388a180f35b8351855293810193928101926001016126d0565b61272c670de0b6b3a76400009161013954906142dc565b0461013161273b82825461439e565b9055610146546127559082906001600160a01b031661413c565b6126b0565b612763816144ee565b61276d8183614968565b86610150918661277d8585613a63565b90549060031b1c9183831361279a575b50505050506001016126a1565b946127df838296996127e5946127d9856127cc6127d26127fc9a60019e670de0b6b3a764000093849161013a546142dc565b046142dc565b04926141b7565b52614194565b97613a63565b819391549060031b91821b91600019901b19161790565b905561281f61280b82876141b7565b5188848060a01b03610147541691846148a8565b908638868161278d565b815163101b685960e01b8152600490fd5b50503461077d578060031936011261077d576001600160a01b039060043582811681036107e357602435918361014f54163303610e3d575083808084819461014e82815403905561022954f161288e614038565b5015612898578280f35b6128a69161022a541661413c565b38808280f35b50503461077d578160031936011261077d57602090610157549051908152f35b50503461077d578160031936011261077d5760209061079c61025d54670de0b6b3a7640000610149540490614194565b83346107e85760203660031901126107e857612916615eea565b6004356101435580f35b8284346107e857816003193601126107e8576001600160a01b0360043581811681036107e3578161014f54163303610c185790610c1591602435916101335416615eb1565b83346107e85760203660031901126107e8576004356001600160a01b03811681036107e357610c1590611d78615eea565b60208361079c866129a8366004613c08565b92919091615671565b8284346107e857806003193601126107e857507f00000000000000000000000000000000000000000000000000000000000000006001600160a01b03163003612a1d57602090517f360894a13ba1a3210667c828492db98dca3e2076cc3735a920a3ca505d382bbc8152f35b5162461bcd60e51b815260206004820152603860248201527f555550535570677261646561626c653a206d757374206e6f742062652063616c60448201527f6c6564207468726f7567682064656c656761746563616c6c00000000000000006064820152608490fd5b83346107e857806003193601126107e857612a9f615eea565b60ff1960ca541660ca5580f35b505060603660031901126107e3576001600160a01b03916004359083821682036107e35760443593841684036107e35760209361079c92349060243590614f71565b50508060031936011261077d57600435906001600160a01b039081831683036107e35783926024359267ffffffffffffffff8411612bde5736602385011215612bde57836004013590612b4c612b4383613bec565b94519485613bb4565b8184523660248387010111612bda57610c1595602083612bcd946024600199018389013786010152807f00000000000000000000000000000000000000000000000000000000000000001690612ba482301415613c94565b7f360894a13ba1a3210667c828492db98dca3e2076cc3735a920a3ca505d382bbc541614613cf5565b612bd5615eea565b613d56565b8580fd5b8480fd5b50503461077d578160031936011261077d5760209061013b549051908152f35b50503461077d578160031936011261077d576101475490516001600160a01b039091168152602090f35b50503461077d578160031936011261077d5760209061014c549051908152f35b50508060031936011261077d576004356001600160a01b03811681036107e35760209261079c91339034906024359061502b565b50503461077d57602036600319011261077d576004356101378054821015610b065790612cac91613b98565b50805460019091015482519182526001600160a01b03166020820152f35b8391503461077d573660031901126107e85750612ce561582b565b5061014f546001600160a01b03908116330361138657610e39610e2f91612d0d366004615e3e565b93612d1661582b565b50612d1f614f4f565b612d27615f78565b611348610dcf825163d9b6c2e560e01b6020820152610db46024820189615452565b60208361079c612d5a366004613b5f565b9391909234926153b4565b8260603660031901126107e357604435906001600160a01b03821682036107e35761079c6020923360243560043561557e565b505060603660031901126107e3576004356001600160a01b03811681036107e35760209261079c9133906044359060243590615671565b50503461077d578160031936011261077d5760209061013e549051908152f35b50503461077d578160031936011261077d5760209061079c612e1a612e12614c57565b9190916141cb565b91614a52565b50503461077d578160031936011261077d5760ca5460ff8160081c1615612e8a57601081901c6001600160a01b0316330361214f5761ff00191660ca55513381527f5db9ee0a495bf2e6ff9c91a7834c1ba4fdd244a5e8aa4e537bd38aeae4b073aa90602090a180f35b8151637c7fd07960e01b8152600490fd5b828460803660031901126107e857506001600160a01b039060443582811681036107e35760643592831683036107e35760209261079c9160243560043561557e565b83346107e85760203660031901126107e8576004356001600160a01b038116908190036107e357612f0c615eea565b61014f80546001600160a01b031916909117905580f35b83346107e85760203660031901126107e857612f3d615eea565b6004356101905580f35b8260603660031901126107e3576001600160a01b039060043582811681036107e35760443592831683036107e35760209261079c913390349060243590614f71565b83833461077d5761010091826003193601126107e85750612fa861582b565b5061014f546001600160a01b0392908316330361138657612fcb82519182613bb4565b60043583811681036107e357815260243583811681036107e35760208201526044358282015260643560608201526080810191608435835260a4359084821682036107e35760a0830191825260c43585811681036107e35760c084015260e4359285841684036107e35785610e3995613087610dcf6109af610dc48661156e9d610e2f98019a8b5261305b61582b565b50613064614f4f565b61306c615f78565b88516370f090ed60e11b602082015292839160248301615191565b9892809b8a96939d9299865161156361014e91825461439e565b50503461077d57602036600319011261077d57600435916101389081548410156107e8575060209261223491613a63565b50503461077d57602036600319011261077d57600435906001600160a01b039081831683036107e357610c15926131348386947f00000000000000000000000000000000000000000000000000000000000000001690612ba482301415613c94565b61313c615eea565b61315161314884613bec565b92519283613bb4565b828252601f1961316084613bec565b01366020840137613d56565b5050608036600319011261077d576004356001600160a01b03811681036107e35760209261079c913390606435906044359060243590615740565b50503461077d578160031936011261077d576131c1615f78565b61014b805460ff81168061328c575b80613272575b6131de578380f35b61ff00191661010017905580519082907f8b77276c97a5709f0d6db52329848a254eb760ce8be80d281799f633bdb69e838280a1610133546001600160a01b0316803b156109d35783600481858094638456cb5960e01b83525af19081156132675750613257575b50506132506143f5565b3880808380f35b61326091613bb4565b3881613246565b51913d9150823e3d90fd5b50613281611910610c4c6145ce565b61014a5410156131d6565b5060ff8160081c16156131d0565b50503461077d578160031936011261077d5760209061013f549051908152f35b5050602036600319011261077d5761079c6020923334600435614dae565b50503461077d578160031936011261077d57602090610143549051908152f35b83346107e85760203660031901126107e8576004356001600160a01b038116810361077d57613325615eea565b60ca805462010000600160b01b03191660109290921b62010000600160b01b031691909117905580f35b83346107e85760203660031901126107e857613369615eea565b60043561014a5580f35b50503461077d578160031936011261077d57602090610140549051908152f35b83346107e85760203660031901126107e8576004356001600160a01b0381169081900361077d576133c2615eea565b61014780546001600160a01b031916909117905580f35b50503461077d57602036600319011261077d576004356001600160a01b038116908190036109d35782829160209452610144845220549051908152f35b50508060031936011261077d576004356001600160a01b03811681036109d35760209261079c913390349060243590614f71565b50503461077d578160031936011261077d5760209060ff61014b5460081c1690519015158152f35b50503461077d5760a036600319011261077d5761348d61582b565b5061014f546001600160a01b03929083163303611386579061351e916134b4366004615852565b916134bd61582b565b506134c6614f4f565b6134ce615f78565b670de0b6b3a76400006134f16111306134e86116ba6145ce565b87519291614a1e565b04948184019080825116916135136080870193898486511661013c54926158f2565b96918a999199614194565b9660208101998a51808a116136475750881561363657816020918660606135a19695519301511690610134613554848254614194565b9055613564610131918254614194565b90556101335489516340c10f1960e01b81526001600160a01b03909216600483015260248201929092529384918716908290859082906044820190565b03925af1801561362a576135d4575b505096611204928261156e888895610e399a9b9c865161156361014e91825461439e565b6020823d8211613622575b816135ec60209383613bb4565b810103126107e85750928261156e888895610e399a9b9c9561361061120499614535565b50959c9b5095509850508194506135b0565b3d91506135df565b508551903d90823e3d90fd5b865163f3e39b5d60e01b8152600490fd5b6044908a895191630b63f1a760e01b835260048301526024820152fd5b83346107e85760203660031901126107e85761367e615eea565b6004356101425580f35b83346107e85760203660031901126107e85760043580151580910361077d576136af615eea565b61014b9060ff8019835416911617905580f35b50503461077d578160031936011261077d5760209061079c6136e5610c4c6145ce565b90614a1e565b5050606036600319011261077d576004356001600160a01b03811681036109d35760209261079c913390349060443590602435906153b4565b50503461077d578160031936011261077d5760209061014d549051908152f35b50503461077d57602036600319011261077d57600435916001600160a01b03831683036107e8575061079c6020923390339061480c565b50503461077d578160031936011261077d5761014f5490516001600160a01b039091168152602090f35b83346107e85760203660031901126107e8576004356001600160a01b0381169081900361077d576137d4615eea565b61013080546001600160a01b031916909117905580f35b83346107e85760203660031901126107e857613805615eea565b60043561013f5580f35b50503461077d578160031936011261077d57602090610159549051908152f35b83346107e85760203660031901126107e8576004356001600160a01b0381169081900361077d5761385e615eea565b61014680546001600160a01b031916909117905580f35b60208361079c613886366004613aa5565b9391339334936150a4565b50503461077d578160031936011261077d5760209061018f549051908152f35b50503461077d578160031936011261077d5760975490516001600160a01b039091168152602090f35b505060c036600319011261077d576001600160a01b0391600435838116810361077d5760243584811681036109d3576084359285841684036107e85760a43595861686036107e85750916020949161079c93349160643591604435916150a4565b83346107e85760203660031901126107e857613955615eea565b60043561015a5580f35b50503461077d578160031936011261077d57613979615f78565b61015b805443106139e75790610c159161015a54430190557f0e37fda283839477a1b77e29acf8336c0e13a5daa967913df0fe5ad258c0822f6020670de0b6b3a76400006139ce6101315461015954906142dc565b049251838152a1610158546001600160a01b031661413c565b815163acce20e560e01b8152600490fd5b50503461077d57602036600319011261077d57600435916101359081548410156107e85750602092613a2991613a63565b905491519160018060a01b039160031b1c168152f35b83346107e85760203660031901126107e857613a59615eea565b60043561013a5580f35b8054821015613a7b5760005260206000200190600090565b634e487b7160e01b600052603260045260246000fd5b35906001600160a01b03821682036107e357565b908160a09103126107e357613ab981613a91565b91613ac660208301613a91565b91604081013591613ade608060608401359301613a91565b90565b604090613b1d939594929560c0820196825260208201520190606080918051845260208101516020850152604081015160408501520151910152565b565b613b1d9360609296959360e08301978352602083015260408201520190606080918051845260208101516020850152604081015160408501520151910152565b908160a09103126107e357613b7381613a91565b91602082013591604081013591613ade6080613b9160608501613a91565b9301613a91565b8054821015613a7b5760005260206000209060011b0190600090565b90601f8019910116810190811067ffffffffffffffff821117613bd657604052565b634e487b7160e01b600052604160045260246000fd5b67ffffffffffffffff8111613bd657601f01601f191660200190565b91908260809103126107e357613c1d82613a91565b91602081013591613ade606060408401359301613a91565b91908260809103126107e357613c4a82613a91565b91602081013591613ade6060613b9160408501613a91565b908160a09103126107e357613c7681613a91565b91602082013591604081013591613ade608060608401359301613a91565b15613c9b57565b60405162461bcd60e51b815260206004820152602c60248201527f46756e6374696f6e206d7573742062652063616c6c6564207468726f7567682060448201526b19195b1959d85d1958d85b1b60a21b6064820152608490fd5b15613cfc57565b60405162461bcd60e51b815260206004820152602c60248201527f46756e6374696f6e206d7573742062652063616c6c6564207468726f7567682060448201526b6163746976652070726f787960a01b6064820152608490fd5b9060ff7f4910fdfa16fed3260ed0e7147f7cc6da11a60208b5b9406d12a635614ffd91435416600014613d8e5750613b1d9150613f42565b6040516352d1902d60e01b8152602093919291906001600160a01b038316908581600481855afa60009181613f13575b50613e1f5760405162461bcd60e51b815260048101879052602e60248201527f45524331393637557067726164653a206e657720696d706c656d656e7461746960448201526d6f6e206973206e6f74205555505360901b6064820152608490fd5b9394937fc9f76b5ec45e5cdef99837d7b6d2467235c1df8933c8ca56df5c35afa2c7d44401613ebc57613e5183613f42565b7fbc7cd75a20ee27fd9adebab32041f755214dbc6bffa90cc0225b39da2e5c2d3b600080a283511590811591613eb4575b50613e8c57505050565b600080613eb194613e9b613fe4565b9481519101845af4613eab614038565b91614068565b50565b905038613e82565b60405162461bcd60e51b815260048101859052602960248201527f45524331393637557067726164653a20756e737570706f727465642070726f786044820152681a58589b195555525160ba1b6064820152608490fd5b90918782813d8311613f3b575b613f2a8183613bb4565b810103126107e85750519038613dbe565b503d613f20565b803b15613f89577f360894a13ba1a3210667c828492db98dca3e2076cc3735a920a3ca505d382bbc80546001600160a01b0319166001600160a01b03909216919091179055565b60405162461bcd60e51b815260206004820152602d60248201527f455243313936373a206e657720696d706c656d656e746174696f6e206973206e60448201526c1bdd08184818dbdb9d1c9858dd609a1b6064820152608490fd5b613fee6027613bec565b90613ffc6040519283613bb4565b60278252660819985a5b195960ca1b6040837f416464726573733a206c6f772d6c6576656c2064656c65676174652063616c6c60208201520152565b3d15614063573d9061404982613bec565b916140576040519384613bb4565b82523d6000602084013e565b606090565b919290156140ca575081511561407c575090565b3b156140855790565b60405162461bcd60e51b815260206004820152601d60248201527f416464726573733a2063616c6c20746f206e6f6e2d636f6e74726163740000006044820152606490fd5b8251909150156140dd5750805190602001fd5b6040519062461bcd60e51b82528160208060048301528251908160248401526000935b828510614123575050604492506000838284010152601f80199101168101030190fd5b8481018201518686016044015293810193859350614100565b81614145575050565b6001600160a01b03811615614182576000808093819361022954f1614168614038565b501561417057565b6040516312171d8360e31b8152600490fd5b60405163e6c4247b60e01b8152600490fd5b919082018092116141a157565b634e487b7160e01b600052601160045260246000fd5b8051821015613a7b5760209160051b010190565b906000916000906101378054906000925b82841061420257505050506141fe670de0b6b3a76400009161013954906142dc565b0490565b909192939561424f61423e6142496001936142436142208a886141b7565b5161422b818c614275565b95906142378d8c613b98565b5054614194565b615f99565b90614194565b98614194565b94019291906141dc565b919091600083820193841291129080158216911516176141a157565b91906000906142a38160009561429961429082610150613a63565b93905492614328565b9160031b1c614259565b600081136142b2575b50509190565b6142d49194506127cc92508094670de0b6b3a764000093849161013a546142dc565b0438806142ac565b818102929181159184041417156141a157565b81156142f9570490565b634e487b7160e01b600052601260045260246000fd5b818103929160001380158285131691841216176141a157565b61433481610137613b98565b505490670de0b6b3a7640000918281029281840414901517156141a157613ade9261437461436761437a93610151613a63565b90549060031b1c846142ef565b926142ef565b9061430f565b80156143965761423e613ade926101315461439e565b505060001990565b919082039182116141a157565b67ffffffffffffffff8111613bd65760051b60200190565b906143cd826143ab565b6143da6040519182613bb4565b82815280926143eb601f19916143ab565b0190602036910137565b610131548015613eb15761013790815491600090614412846143c3565b9082905b85821061448157505060005b848110614430575050505050565b61444d846144488561444285876141b7565b516142dc565b6142ef565b9061013891825468010000000000000000811015613bd6576127e5816001958661447994018155613a63565b905501614422565b90926144bd600191614492866144ee565b61449c87876141b7565b526142436144aa8786613b98565b50546144b688886141b7565b5190615f99565b930190614416565b6001600160a01b0316600090815261013660205260409020600181015460ff1615614182575490565b6144fa90610137613b98565b50600101546001600160a01b03166145118161455c565b9190911561451d575090565b60249060405190637f6e4db960e01b82526004820152fd5b519081151582036107e357565b91908260409103126107e357613ade602083519301614535565b604080516359e02dd760e01b81529291839060049082906001600160a01b03165afa9182156145c257600090819361459357509190565b90506145b791925060403d81116145bb575b6145af8183613bb4565b810190614542565b9091565b503d6145a5565b6040513d6000823e3d90fd5b61013754906145dc826143c3565b9160005b8181106145eb575050565b806145f76001926144ee565b61460182876141b7565b52016145e0565b90614629670de0b6b3a76400009283610157546101545492430103026142ef565b828110156146465782039180836101555402049261015654020590565b50600091508190565b90916146596146b1565b9290808210156146a757839161466e9161439e565b9311156146a2578181101561469a576146869161439e565b60011c80821015614695575090565b905090565b505050600090565b505090565b5050505050600090565b61015254604080516359e02dd760e01b80825293929091906001600160a01b039081168284600481845afa80156147a157600094859161477e575b5015614767575061015354169080519485528085600481855afa801561475c576000958691614739575b50156147225750509190565b6024925051906305e8989360e11b82526004820152fd5b9050816147539296503d87116145bb576145af8183613bb4565b94909438614716565b50513d6000823e3d90fd5b6024908351906305e8989360e11b82526004820152fd5b9050614798919450833d85116145bb576145af8183613bb4565b939093386146ec565b83513d6000823e3d90fd5b156147b357565b60405162461bcd60e51b815260206004820152602b60248201527f496e697469616c697a61626c653a20636f6e7472616374206973206e6f74206960448201526a6e697469616c697a696e6760a81b6064820152608490fd5b61486a91614818615f78565b604051636845c44560e01b60208201526001600160a01b039283166024820152908216604482015283821660648201524760848083019190915281529061486060a483613bb4565b6101f65416614886565b6020818051810103126107e3576020613ade910151809261413c565b90613ade91600080614896613fe4565b93602081519101845af4613eab614038565b614916936148dd6000926020956148c182610137613b98565b506148cd878254614194565b905561175c610131918254614194565b90546040516340c10f1960e01b81526001600160a01b039093166004840152602483019490945290948593928492909183906044820190565b039360039190911b1c6001600160a01b03165af180156145c2576149375750565b6020813d8211614960575b8161494f60209383613bb4565b810103126107e357613eb190614535565b3d9150614942565b6127e56149b9916149798482614328565b6149af61498883610150613a63565b61499b8294925492838360031b1c614259565b919060031b91821b91600019901b19161790565b9055610151613a63565b9055565b60e08101929160c09081906001600160a01b03806149da83613a91565b1685526149e960208301613a91565b16602085015260408101356040850152606081013560608501526080810135608085015260a081013560a08501520135910152565b9061013454908115614a4357613ade92614a3e61423e926101315461439e565b61439e565b505050670de0b6b3a764000090565b8282614a5d92614a7a565b90600082131561469a57613ade92614a7491614a1e565b906142ef565b9091614a89906101315461439e565b90670de0b6b3a7640000918281029281840414901517156141a157613ade9261437a916142dc565b92614abf9293949194614a7a565b81810291600091600160ff1b9183821283821416614b63578185051490151715614b4f57670de0b6b3a763ffff198401938411614b4f57670de0b6b3a764000093848102948186041490151715614b4f578315614b3b578214600019841416614b2757500590565b634e487b7160e01b81526011600452602490fd5b634e487b7160e01b82526012600452602482fd5b634e487b7160e01b82526011600452602482fd5b634e487b7160e01b84526011600452602484fd5b61014d5480431015614b8e57613ade90439061439e565b50600090565b90604051614ba3604082613bb4565b602060018294805484520154910152565b614bc081610148613a63565b90549060031b1c9161018e91614bd68184613b98565b50549261018f54431015614bfc575b5050808210156146a25761444890613ade936142dc565b829350614c10614c1b9392614c1692613b98565b50614b94565b614c23565b903880614be5565b602081519101805192670de0b6b3a7640000938403908482116141a157614c50614243926141fe956142dc565b92516142dc565b60008061013791825492614c6a846143c3565b9382915b818310614c97575050508115614c8b5790614c88916142ef565b91565b50506101495460011b91565b90919392614ca4856144ee565b9081614cb087896141b7565b52614cc9614cbe8388614275565b506142378886613b98565b670de0b6b3a7640000908181029181830414901517156141a157614d0b614d119261424385614cfd600197614d0696615f99565b9485918c614bb4565b6142dc565b95614194565b94019190614c6e565b61018f8054431015614d295750565b6101375460005b818110614d435750506101905443019055565b80807f19156e9379c7bbbce8f646ce5ee30ba860b8f954717405f3d5859a6c1a21ae6060019361018e614d79614c108383613b98565b90614d97614d8f614d89856144ee565b84614c23565b938492613b98565b50555160409182519182526020820152a201614d30565b60a4614e5a91614dd16001602095614dc4614f4f565b614dcc615f78565b614eb2565b96909560405192614de360a085613bb4565b83528583018790523360408085019182526001600160a01b03928316606086019081529383166080860190815261014f54915163e97a4d6360e01b81528651600482015260209096015160248701529151831660448601529251821660648501525181166084840152919687948593919290911690565b5af19182156145c257600092614e7f575b50614e7a61014e918254614194565b905590565b90916020823d8211614eaa575b81614e9960209383613bb4565b810103126107e85750519038614e6b565b3d9150614e8c565b61014f546040516324524ea160e01b815293926001600160a01b0390911690600a811015614f3957604485602093819360048301528560248301525afa9283156145c257600093614f06575b508290039190565b90926020823d8211614f31575b81614f2060209383613bb4565b810103126107e85750519138614efe565b3d9150614f13565b634e487b7160e01b600052602160045260246000fd5b60ff61014b5460081c16614f5f57565b604051631ca61d7760e01b8152600490fd5b60c490614e5a929594614f8a6003602096614dc4614f4f565b97909660405193614f9c60c086613bb4565b60018060a01b03938493848093168752898701528960408701523360608701521660808501521660a083015261014f5416956040519687948593637e81a82160e01b855260048501905b60a09081600180821b03918281511685526020810151602086015260408101516040860152826060820151166060860152826080820151166080860152015116910152565b60c490614e5a9295946150446005602096614dc4614f4f565b9790966040519361505660c086613bb4565b60018060a01b03938493848093168752898701528960408701523360608701521660808501521660a083015261014f54169560405196879485936323ec24b560e11b85526004850190614fe6565b61512c919396956150bc600960209597614dc4614f4f565b989097604051936150cf61010086613bb4565b60018060a01b0393849384808094169a8b895216898801528a604088015260608701528a60808701523360a08701521660c08501521660e083015261014f5416906040519788809481936334975a4160e01b835260048301615191565b03925af19384156145c25760009461515c575b509061514e91309033906151f5565b614e7a61014e918254614194565b90936020823d8211615189575b8161517660209383613bb4565b810103126107e85750519261514e61513f565b3d9150615169565b91909160e06101008201938160018060a01b03918281511685528260208201511660208601526040810151604086015260608101516060860152608081015160808601528260a08201511660a08601528260c08201511660c0860152015116910152565b6040516323b872dd60e01b60208201526001600160a01b0392831660248201529290911660448301526064820192909252613b1d9161524182608481015b03601f198101845283613bb4565b6152e9565b6152506020613bec565b9061525e6040519283613bb4565b602082527f5361666545524332303a206c6f772d6c6576656c2063616c6c206661696c65646020830152565b1561529157565b60405162461bcd60e51b815260206004820152602a60248201527f5361666545524332303a204552433230206f7065726174696f6e20646964206e6044820152691bdd081cdd58d8d9595960b21b6064820152608490fd5b61531f91906001600160a01b0316600080615302615246565b9361530d6001615359565b60208151910182855af1613eab614038565b80518015908115615336575b50613b1d915061528a565b602091508290810103126107e3576153536020613b1d9201614535565b3861532b565b1561536057565b60405162461bcd60e51b815260206004820152602660248201527f416464726573733a20696e73756666696369656e742062616c616e636520666f6044820152651c8818d85b1b60d21b6064820152608490fd5b939460e4615433916153cd600860209597614dc4614f4f565b989097604051926153df60e085613bb4565b60018060a01b03809381809416998a87528b8a88015260408701528b60608701523360808701521660a08501521660c083015261014f54169760405198899485936263744760e11b85526004850190615452565b5af19384156145c25760009461515c57509061514e91309033906151f5565b60c0908160018060a01b03918281511685526020810151602086015260408101516040860152606081015160608601528260808201511660808601528260a08201511660a0860152015116910152565b60e4615524916154bd60076020959799989699614dc4614f4f565b989097604051926154cf60e085613bb4565b60018060a01b039788938480931686528a8987015260408601528a60608601523360808601521660a08401521660c08201528461014f5416976040519889948593636b59c22f60e01b85526004850190615452565b5af19384156145c257600094615549575b509061514e916101335416309033906151f5565b90936020823d8211615576575b8161556360209383613bb4565b810103126107e85750519261514e615535565b3d9150615556565b9192909261558a614f4f565b615592615f78565b604051936155a160a086613bb4565b83855260208086019182523360408088019182526001600160a01b03948516606089019081529585166080890190815261014f54915163fa91a9a560e01b8152985160048a0152935160248901529051841660448801529351831660648701529051821660848601529091849060a4908290851634905af19283156145c25760009361563c575b5090613ade916101335416309033906151f5565b90926020823d8211615669575b8161565660209383613bb4565b810103126107e857505191613ade615628565b3d9150615649565b60c4602092946156e992615683614f4f565b61568b615f78565b6040519761569a60c08a613bb4565b60018060a01b0380938180941698898c528a898d015260408c01523360608c01521660808a01521660a088015261014f5416956040519687938492636426c5db60e11b84526004840190614fe6565b34905af19283156145c25760009361570b575b5090613ade91309033906151f5565b90926020823d8211615738575b8161572560209383613bb4565b810103126107e857505191613ade6156fc565b3d9150615718565b9390919361574c614f4f565b615754615f78565b6040519561576360e088613bb4565b60018060a01b0380938180941696878a528660208b01528860408b015260608a01523360808a01521660a08801521660c086015260206157c160e48361014f541697604051988993849263e4e1b72960e01b84526004840190615452565b34905af19485156145c2576000956157f6575b50613ade9392916157ed916101335416309033906151f5565b309033906151f5565b90946020823d8211615823575b8161581060209383613bb4565b810103126107e857505193613ade6157d4565b3d9150615803565b6040519061583a608083613bb4565b60006060838281528260208201528260408201520152565b91908260a09103126107e35760405161586c60a082613bb4565b60806158aa818395803585526020810135602086015261588e60408201613a91565b604086015261589f60608201613a91565b606086015201613a91565b910152565b91906158ba906141cb565b9190926158c78385614380565b90808211156158d4575050565b6044925060405191637912120160e01b835260048301526024820152fd5b92909391600091600091829661590661582b565b966001600160a01b03918590831680615b12575b508261012f54168360405193636eb1769f60e11b8552168060048501523060248501526020948585604481865afa948515615b07578495615ad8575b50846159b7575b505050505086015115615973575b505050929190565b9091925061598b670de0b6b3a76400009283926142dc565b048085529082156159af576159a7920490816040860152614194565b38808061596b565b5090506159a7565b6159c590610130541661455c565b9290921561595d57909192939b50848b6159ff85670de0b6b3a76400006159f96159ef8d8d6142dc565b61014354906142dc565b046142ef565b81830181815295908b15615ace5750615a2a91615a1e6060928d6142ef565b91829101528551614194565b809d5b10928315615a59575b505050615a46575b80808061595d565b8192995052806060880152963880615a3e565b909192506024604051809481936370a0823160e01b835260048301525afa908115615ac357908b918491615a92575b5010388481615a36565b809250858092503d8311615abc575b615aab8183613bb4565b810103126109d3578a905138615a88565b503d615aa1565b6040513d85823e3d90fd5b915050809d615a2d565b9094508581813d8311615b00575b615af08183613bb4565b81010312610b0657519338615956565b503d615ae6565b6040513d86823e3d90fd5b9095506020836101c35416916024604051809481936364a731e960e01b835260048301525afa8015615b8a578690615b57575b615b509150846142dc565b943861591a565b506020813d8211615b82575b81615b7060209383613bb4565b81010312612bda57615b509051615b45565b3d9150615b63565b6040513d88823e3d90fd5b92613b1d9491929382511515600014615c0557506040615c0092615bf8670de0b6b3a7640000615bca61013b548451906142dc565b04610131615bd9828254614194565b9055615bf260018060a01b03610146541691845161439e565b9061413c565b01519061413c565b61413c565b906060615c0093615c2760018060a01b03610146541660208301519086615c2b565b0151915b919081615c3757505050565b61012f546040516323b872dd60e01b602082019081526001600160a01b039586166024830152928516604482015260648082019490945292835261531f9316906000908190615c87608486613bb4565b615c8f615246565b94615c9a6001615359565b519082855af1613eab614038565b91908260c09103126107e357604051615cc260c082613bb4565b60a06158aa818395615cd381613a91565b85526020810135602086015260408101356040860152615cf560608201613a91565b6060860152615d0660808201613a91565b608086015201613a91565b90615d1e94939291614ab1565b60008112614b8e5790565b80615d326146b1565b919093615d3f6000614608565b9401938291615dd7575b0193846000808212615dd157505b840391818511615d99575050818111615d7b57505061015555610156554361015755565b60449250604051916306da41e560e11b835260048301526024820152fd5b9080859211615dbf57604491604051916306da41e560e11b835260048301526024820152fd5b604051630fb4fd3560e11b8152600490fd5b03615d57565b90508160000390615d49565b80910360e081126107e3578151926020830151926080604082015193605f1901126107e35760c060405191615e19608084613bb4565b606081015183526080810151602084015260a081015160408401520151606082015290565b91908260e09103126107e357604051615e5860e082613bb4565b60c06158aa818395615e6981613a91565b8552602081013560208601526040810135604086015260608101356060860152615e9560808201613a91565b6080860152615ea660a08201613a91565b60a086015201613a91565b60405163a9059cbb60e01b60208201526001600160a01b0390921660248301526044820192909252613b1d916152418260648101615233565b60975460405163d994d6d560e01b815233600482015290602090829060249082906001600160a01b03165afa9081156145c257600091615f3f575b5015615f2d57565b604051631dd1b1b560e21b8152600490fd5b906020823d8211615f70575b81615f5860209383613bb4565b810103126107e85750615f6a90614535565b38615f25565b3d9150615f4b565b60ff60ca5460081c16615f8757565b60405163783bb6c960e11b8152600490fd5b90670de0b6b3a7640000918281029281840414901517156141a157613ade916142ef565b670de0b6b3a764000010615fcd57565b604051632a9ffab760e21b8152600490fdfea2646970667358221220fa84950cb36b749e0090fc2896e82126c4e7ae3357fd9976c8dbed55e8d3924364736f6c63430008140033",
  "linkReferences": {},
  "deployedLinkReferences": {},
  "devdoc": {
    "details": "Only for upgradeability testing purposes. Extends MocCACoinbase adding a new variable.",
    "events": {
      "AdminChanged(address,address)": {
        "details": "Emitted when the admin account has changed."
      },
      "BeaconUpgraded(address)": {
        "details": "Emitted when the beacon is changed."
      },
      "Initialized(uint8)": {
        "details": "Triggered when the contract has been initialized or reinitialized."
      },
      "Upgraded(address)": {
        "details": "Emitted when the implementation is upgraded."
      }
    },
    "kind": "dev",
    "methods": {
      "addPeggedToken((address,address,uint256,uint256,uint256,uint256,uint256))": {
        "details": "Note that the ema value, should consider `nextEmaCalculation`  This function is implemented in MocCoreExpansion but with this contract contexttpTokenAddress Pegged Token contract address to add      priceProviderAddress Pegged Token price provider contract address      tpCtarg Pegged Token target coverage [PREC]      tpMintFee additional fee pct applied on mint [PREC]      tpRedeemFee additional fee pct applied on redeem [PREC]      tpEma initial Pegged Token exponential moving average [PREC]      tpEmaSf Pegged Token smoothing factor [PREC]  Requirements: - the caller must have governance authorization. - tpTokenAddress must be a MocRC20, with mint, burn roles already settled  for this contract",
        "params": {
          "peggedTokenParams_": "params of Pegged Token to add"
        }
      },
      "calcCtargemaCA()": {
        "details": "qAC = nTP / pACtp      ctargemaCA = (ctargemaTP * qAC) / (qAC)",
        "returns": {
          "ctargemaCA": "[PREC]"
        }
      },
      "changeGovernor(address)": {
        "params": {
          "newGovernor_": "New governor address"
        }
      },
      "editPeggedToken((address,address,uint256,uint256,uint256,uint256,uint256))": {
        "details": "Note that the ema value, should consider `nextEmaCalculation`  This function is implemented in MocCoreExpansion but with this contract contexttpTokenAddress Pegged Token contract address to identify the token to edit      priceProviderAddress Pegged Token price provider contract address      tpCtarg Pegged Token target coverage [PREC]      tpMintFee additional fee pct applied on mint [PREC]      tpRedeemFee additional fee pct applied on redeem [PREC]      tpEma initial Pegged Token exponential moving average [PREC]      tpEmaSf Pegged Token smoothing factor [PREC]  Requirements: - the caller must have governance authorization. - the tpTokenAddress must exists",
        "params": {
          "peggedTokenParams_": "params of Pegged Token to add"
        }
      },
      "getCglb()": {
        "returns": {
          "cglob": "[PREC]"
        }
      },
      "getLckAC()": {
        "returns": {
          "lckAC": "[PREC]"
        }
      },
      "getLeverageTC()": {
        "returns": {
          "leverageTC": "[PREC]"
        }
      },
      "getPACtp(address)": {
        "params": {
          "tp_": "Pegged Token address"
        },
        "returns": {
          "_0": "price [PREC]"
        }
      },
      "getPTCac()": {
        "returns": {
          "pTCac": "[PREC]"
        }
      },
      "getTCAvailableToRedeem()": {
        "details": "because it is a view function we are not calculating the new ema,  since we are using the last ema calculation, this may differ a little from the real amount  of TC available to redeem. Consider it an approximation.",
        "returns": {
          "tcAvailableToRedeem": "[N]"
        }
      },
      "getTPAvailableToMint(address)": {
        "details": "because it is a view function we are not calculating the new ema,  since we are using the last ema calculation, this may differ a little from the real amount  of TP available to mint. Consider it an approximation.",
        "params": {
          "tp_": "Pegged Token address"
        },
        "returns": {
          "tpAvailableToMint": "[N]"
        }
      },
      "getTotalACavailable()": {
        "returns": {
          "totalACavailable": "[N]"
        }
      },
      "initialize((((address,address,address,address,address,address,uint256,uint256,uint256,uint256,uint256,uint256,uint256,uint256,uint256,uint256,uint256,uint256,uint256,uint256,address,uint256,uint256,address,address,uint256),address,address,address,uint256,address),uint256,address))": {
        "details": "governorAddress The address that will define when a change contract is authorized      pauserAddress The address that is authorized to pause this contract      tcTokenAddress Collateral Token contract address      mocFeeFlowAddress Moc Fee Flow contract address      mocAppreciationBeneficiaryAddress Moc appreciation beneficiary address      protThrld protected state threshold [PREC]      liqThrld liquidation coverage threshold [PREC]      feeRetainer pct retain on fees to be re-injected as Collateral, while paying fees with AC [PREC]      tcMintFee additional fee pct applied on mint Collateral Tokens operations [PREC]      tcRedeemFee additional fee pct applied on redeem Collateral Tokens operations [PREC]      successFee pct of the gain because Pegged Tokens devaluation that is transferred        in Collateral Asset to Moc Fee Flow during the settlement [PREC]      appreciationFactor pct of the gain because Pegged Tokens devaluation that is returned        in Pegged Tokens to appreciation beneficiary during the settlement [PREC]      bes number of blocks between settlements      tcInterestCollectorAddress TC interest collector address      tcInterestRate pct interest charged to TC holders on the total collateral in the protocol [PREC]      tcInterestPaymentBlockSpan amount of blocks to wait for next TC interest payment      maxAbsoluteOpProviderAddress max absolute operation provider address      maxOpDiffProviderAddress max operation difference provider address      decayBlockSpan number of blocks that have to elapse for the linear decay factor to be 0      emaCalculationBlockSpan amount of blocks to wait between Pegged ema calculation      mocVendors address for MocVendors contract      mocQueueAddress address for MocQueue contract      transferMaxGas max amount of gas forwarded on AC transfer      coinbaseFailedTransferFallback address who receives the funds when the coinbase unlock fails",
        "params": {
          "initializeParams_": "contract initializer params"
        }
      },
      "isLiquidationReached()": {
        "returns": {
          "_0": "true if liquidation state is reached, false otherwise"
        }
      },
      "liqRedeemTP(address)": {
        "params": {
          "tp_": "Pegged Token address"
        },
        "returns": {
          "qACRedeemed": "amount of AC sent to sender"
        }
      },
      "liqRedeemTPto(address,address)": {
        "params": {
          "recipient_": "address who receives the AC",
          "tp_": "Pegged Token address"
        },
        "returns": {
          "qACRedeemed": "amount of AC sent to `recipient_`"
        }
      },
      "makeStoppable()": {
        "details": "Should be called through governance"
      },
      "makeUnstoppable()": {
        "details": "Should be called through governance"
      },
      "maxQACToMintTP()": {
        "returns": {
          "maxQAC": "minimum regarding maxAbsoluteOperation and maxOperationalDifference"
        }
      },
      "maxQACToRedeemTP()": {
        "returns": {
          "maxQAC": "minimum regarding maxAbsoluteOperation and maxOperationalDifference"
        }
      },
      "mintTC(uint256)": {
        "details": "any extra value, not spent on TC nor fees, will be return to sender",
        "params": {
          "qTC_": "amount of Collateral Token to mint"
        },
        "returns": {
          "operId": "Identifier to track the Operation lifecycle"
        }
      },
      "mintTCViaVendor(uint256,address)": {
        "details": "any extra value, not spent on TC nor fees, will be return to sender",
        "params": {
          "qTC_": "amount of Collateral Token to mint",
          "vendor_": "address who receives a markup"
        },
        "returns": {
          "operId": "Identifier to track the Operation lifecycle"
        }
      },
      "mintTCandTP(address,uint256)": {
        "params": {
          "qTP_": "amount of Pegged Token to mint",
          "tp_": "Pegged Token address"
        },
        "returns": {
          "operId": "Identifier to track the Operation lifecycle"
        }
      },
      "mintTCandTPViaVendor(address,uint256,address)": {
        "params": {
          "qTP_": "amount of Pegged Token to mint",
          "tp_": "Pegged Token address",
          "vendor_": "address who receives a markup"
        },
        "returns": {
          "operId": "Identifier to track the Operation lifecycle"
        }
      },
      "mintTCandTPto(address,uint256,address)": {
        "params": {
          "qTP_": "amount of Pegged Token to mint",
          "recipient_": "address who receives the Collateral Token and Pegged Token",
          "tp_": "Pegged Token address"
        },
        "returns": {
          "operId": "Identifier to track the Operation lifecycle"
        }
      },
      "mintTCandTPtoViaVendor(address,uint256,address,address)": {
        "params": {
          "qTP_": "amount of Pegged Token to mint",
          "recipient_": "address who receives the Collateral Token and Pegged Token",
          "tp_": "Pegged Token address",
          "vendor_": "address who receives a markup"
        },
        "returns": {
          "operId": "Identifier to track the Operation lifecycle"
        }
      },
      "mintTCto(uint256,address)": {
        "details": "any extra value, not spent on TC nor fees, will be return to sender",
        "params": {
          "qTC_": "amount of Collateral Token to mint",
          "recipient_": "address who receives the Collateral Token"
        },
        "returns": {
          "operId": "Identifier to track the Operation lifecycle"
        }
      },
      "mintTCtoViaVendor(uint256,address,address)": {
        "details": "any extra value, not spent on TC nor fees, will be return to sender",
        "params": {
          "qTC_": "amount of Collateral Token to mint",
          "recipient_": "address who receives the Collateral Token",
          "vendor_": "address who receives a markup"
        },
        "returns": {
          "operId": "Identifier to track the Operation lifecycle"
        }
      },
      "mintTP(address,uint256)": {
        "details": "any extra value, not spent on TP nor fees, will be return to sender",
        "params": {
          "qTP_": "amount of Pegged Token to mint",
          "tp_": "Pegged Token address to mint"
        },
        "returns": {
          "operId": "Identifier to track the Operation lifecycle"
        }
      },
      "mintTPViaVendor(address,uint256,address)": {
        "details": "any extra value, not spent on TP nor fees, will be return to sender",
        "params": {
          "qTP_": "amount of Pegged Token to mint",
          "tp_": "Pegged Token address",
          "vendor_": "address who receives a markup"
        },
        "returns": {
          "operId": "Identifier to track the Operation lifecycle"
        }
      },
      "mintTPto(address,uint256,address)": {
        "details": "any extra value, not spent on TP nor fees, will be return to sender",
        "params": {
          "qTP_": "amount of Pegged Token to mint",
          "recipient_": "address who receives the Pegged Token",
          "tp_": "Pegged Token address to mint"
        },
        "returns": {
          "operId": "Identifier to track the Operation lifecycle"
        }
      },
      "mintTPtoViaVendor(address,uint256,address,address)": {
        "details": "any extra value, not spent on TP nor fees, will be return to sender",
        "params": {
          "qTP_": "amount of Pegged Token to mint",
          "recipient_": "address who receives the Pegged Token",
          "tp_": "Pegged Token address to mint",
          "vendor_": "address who receives a markup"
        },
        "returns": {
          "operId": "Identifier to track the Operation lifecycle"
        }
      },
      "pause()": {
        "details": "Should only be called by the pauser and when it is stoppable"
      },
      "proxiableUUID()": {
        "details": "Implementation of the ERC1822 {proxiableUUID} function. This returns the storage slot used by the implementation. It is used to validate the implementation's compatibility when performing an upgrade. IMPORTANT: A proxy pointing at a proxiable contract should not be considered proxiable itself, because this risks bricking a proxy that upgrades to it, by delegating to itself until out of gas. Thus it is critical that this function revert if invoked through a proxy. This is guaranteed by the `notDelegated` modifier."
      },
      "redeemTC(uint256,uint256)": {
        "params": {
          "qACmin_": "minimum amount of Collateral Asset that sender expects to receive",
          "qTC_": "amount of Collateral Token to redeem"
        },
        "returns": {
          "operId": "Identifier to track the Operation lifecycle"
        }
      },
      "redeemTCViaVendor(uint256,uint256,address)": {
        "params": {
          "qACmin_": "minimum amount of Collateral Asset that sender expects to receive",
          "qTC_": "amount of Collateral Token to redeem",
          "vendor_": "address who receives a markup"
        },
        "returns": {
          "operId": "Identifier to track the Operation lifecycle"
        }
      },
      "redeemTCandTP(address,uint256,uint256,uint256)": {
        "params": {
          "qACmin_": "Minimum amount of Collateral Asset that the sender expects to receive",
          "qTC_": "Maximum amount of Collateral Token to redeem",
          "qTP_": "Maximum amount of Pegged Token to redeem",
          "tp_": "Pegged Token address"
        },
        "returns": {
          "operId": "Identifier to track the Operation lifecycle"
        }
      },
      "redeemTCandTPViaVendor(address,uint256,uint256,uint256,address)": {
        "params": {
          "qACmin_": "Minimum amount of Collateral Asset that the sender expects to receive",
          "qTC_": "Maximum amount of Collateral Token to redeem",
          "qTP_": "Maximum amount of Pegged Token to redeem",
          "tp_": "Pegged Token address",
          "vendor_": "Address who receives a markup"
        },
        "returns": {
          "operId": "Identifier to track the Operation lifecycle"
        }
      },
      "redeemTCandTPto(address,uint256,uint256,uint256,address)": {
        "params": {
          "qACmin_": "Minimum amount of Collateral Asset that `recipient_` expects to receive",
          "qTC_": "Maximum amount of Collateral Token to redeem",
          "qTP_": "Maximum amount of Pegged Token to redeem",
          "recipient_": "Address who receives the Collateral Asset",
          "tp_": "Pegged Token address"
        },
        "returns": {
          "operId": "Identifier to track the Operation lifecycle"
        }
      },
      "redeemTCandTPtoViaVendor(address,uint256,uint256,uint256,address,address)": {
        "params": {
          "qACmin_": "Minimum amount of Collateral Asset that `recipient_` expects to receive",
          "qTC_": "Maximum amount of Collateral Token to redeem",
          "qTP_": "Maximum amount of Pegged Token to redeem",
          "recipient_": "Address who receives the Collateral Asset",
          "tp_": "Pegged Token address",
          "vendor_": "Address who receives a markup"
        },
        "returns": {
          "operId": "Identifier to track the Operation lifecycle"
        }
      },
      "redeemTCto(uint256,uint256,address)": {
        "params": {
          "qACmin_": "minimum amount of Collateral Asset that `recipient_` expects to receive",
          "qTC_": "amount of Collateral Token to redeem",
          "recipient_": "address who receives the Collateral Asset"
        },
        "returns": {
          "operId": "Identifier to track the Operation lifecycle"
        }
      },
      "redeemTCtoViaVendor(uint256,uint256,address,address)": {
        "params": {
          "qACmin_": "minimum amount of Collateral Asset that `recipient_` expects to receive",
          "qTC_": "amount of Collateral Token to redeem",
          "recipient_": "address who receives the Collateral Asset",
          "vendor_": "address who receives a markup"
        },
        "returns": {
          "operId": "Identifier to track the Operation lifecycle"
        }
      },
      "redeemTP(address,uint256,uint256)": {
        "params": {
          "qACmin_": "minimum amount of Collateral Asset that sender expects to receive",
          "qTP_": "amount of Pegged Token to redeem",
          "tp_": "Pegged Token address to redeem"
        },
        "returns": {
          "operId": "Identifier to track the Operation lifecycle"
        }
      },
      "redeemTPViaVendor(address,uint256,uint256,address)": {
        "params": {
          "qACmin_": "minimum amount of Collateral Asset that sender expects to receive",
          "qTP_": "amount of Pegged Token to redeem",
          "tp_": "Pegged Token address to redeem",
          "vendor_": "address who receives a markup"
        },
        "returns": {
          "operId": "Identifier to track the Operation lifecycle"
        }
      },
      "redeemTPto(address,uint256,uint256,address)": {
        "params": {
          "qACmin_": "minimum amount of Collateral Asset that `recipient_` expects to receive",
          "qTP_": "amount of Pegged Token to redeem",
          "recipient_": "address who receives the Collateral Asset",
          "tp_": "Pegged Token address to redeem"
        },
        "returns": {
          "operId": "Identifier to track the Operation lifecycle"
        }
      },
      "redeemTPtoViaVendor(address,uint256,uint256,address,address)": {
        "params": {
          "qACmin_": "minimum amount of Collateral Asset that `recipient_` expects to receive",
          "qTP_": "amount of Pegged Token to redeem",
          "recipient_": "address who receives the Collateral Asset",
          "tp_": "Pegged Token address to redeem",
          "vendor_": "address who receives a markup"
        },
        "returns": {
          "operId": "Identifier to track the Operation lifecycle"
        }
      },
      "setAppreciationFactor(uint256)": {
        "details": "sets appreciation Factor value.",
        "params": {
          "appreciationFactor_": "pct of the gain because Pegged Tokens devaluation that is returned in Pegged Tokens to appreciation beneficiary during the settlement [PREC]"
        }
      },
      "setBes(uint256)": {
        "details": "bns is not automatically updated, you have to wait until next settlement to be made : bns = block.number + bes*",
        "params": {
          "bes_": "number of blocks between settlements"
        }
      },
      "setDecayBlockSpan(uint256)": {
        "details": "sets flux capacitor decay block span",
        "params": {
          "decayBlockSpan_": "flux capacitor decay block span"
        }
      },
      "setEmaCalculationBlockSpan(uint256)": {
        "details": "nextEmaCalculation is not automatically updated, you have to wait until next  EMA calculation to be made : nextEmaCalculation = block.number + emaCalculationBlockSpan*",
        "params": {
          "blockSpan_": "Defines how many blocks should pass between EMA calculations"
        }
      },
      "setFeeRetainer(uint256)": {
        "details": "sets the fee pct to be retainer on AC fees payments as AC re-injection.",
        "params": {
          "feeRetainer_": "pct retain on fees to be re-injected as Collateral, while paying fees with AC [PREC] 0% = 0; 1% = 10 ** 16; 100% = 10 ** 18"
        }
      },
      "setFeeTokenAddress(address)": {
        "details": "sets Fee Token contract address",
        "params": {
          "mocFeeTokenAddress_": "Fee Token new contract address"
        }
      },
      "setFeeTokenPct(uint256)": {
        "details": "sets the fee applied on the top of the operation`s fee when using Fee Token as fee payment method.",
        "params": {
          "feeTokenPct_": "pct applied on the top of the operation`s fee when using Fee Token  as fee payment method [PREC]  e.g. if tcMintFee = 1%, FeeTokenPct = 50% => qFeeToken = 0.5%  0% = 0; 1% = 10 ** 16; 100% = 10 ** 18"
        }
      },
      "setFeeTokenPriceProviderAddress(address)": {
        "details": "sets Fee Token price provider contract address",
        "params": {
          "mocFeeTokenPriceProviderAddress_": "Fee Token price provider new contract address"
        }
      },
      "setLiqEnabled(bool)": {
        "details": "enables and disables the liquidation mechanism.",
        "params": {
          "liqEnabled_": "is liquidation enabled"
        }
      },
      "setLiqThrld(uint256)": {
        "details": "sets the value of the liq threshold configuration param",
        "params": {
          "liqThrld_": "liquidation threshold"
        }
      },
      "setMaxAbsoluteOpProviderAddress(address)": {
        "details": "sets max absolute operation provider address",
        "params": {
          "maxAbsoluteOpProviderAddress_": "max absolute operation provider address"
        }
      },
      "setMaxOpDiffProviderAddress(address)": {
        "details": "sets max operation difference provider address",
        "params": {
          "maxOpDiffProviderAddress_": "max operation difference provider address"
        }
      },
      "setMintTCandTPFee(uint256)": {
        "details": "sets the fee charged when mint Collateral Token and Pegged Token in one operation.",
        "params": {
          "mintTCandTPFee_": "additional fee pct applied on mint Collateral Token and Pegged Token [PREC] 0% = 0; 1% = 10 ** 16; 100% = 10 ** 18"
        }
      },
      "setMocAppreciationBeneficiaryAddress(address)": {
        "details": "sets Moc Appreciation Beneficiary Address",
        "params": {
          "mocAppreciationBeneficiaryAddress_": "moc Appreciation Beneficiary new address"
        }
      },
      "setMocCoreExpansion(address)": {
        "details": "sets Moc Core Expansion contract address",
        "params": {
          "mocCoreExpansion_": "moc core expansion new contract address"
        }
      },
      "setMocFeeFlowAddress(address)": {
        "details": "sets Moc Fee Flow contract address",
        "params": {
          "mocFeeFlowAddress_": "moc Fee Flow new contract address"
        }
      },
      "setMocQueue(address)": {
        "details": "sets Moc Queue contract address",
        "params": {
          "mocQueueAddress_": "moc queue new contract address"
        }
      },
      "setMocVendors(address)": {
        "details": "sets Moc Vendors contract address",
        "params": {
          "mocVendors_": "moc Vendors new contract address"
        }
      },
      "setPauser(address)": {
        "details": "Should be called through governance",
        "params": {
          "newPauser_": "Address of the new pauser"
        }
      },
      "setProtThrld(uint256)": {
        "details": "sets the value of the protected threshold configuration param",
        "params": {
          "protThrld_": "coverage protected state threshold [PREC]"
        }
      },
      "setRedeemTCandTPFee(uint256)": {
        "details": "sets the fee charged when redeem Collateral Token and Pegged Token in one operation.",
        "params": {
          "redeemTCandTPFee_": "additional fee pct applied on redeem Collateral Token and Pegged Token [PREC] 0% = 0; 1% = 10 ** 16; 100% = 10 ** 18"
        }
      },
      "setSuccessFee(uint256)": {
        "details": "sets success Fee value.",
        "params": {
          "successFee_": "pct of the gain because Pegged Tokens devaluation that is transferred in Collateral Asset to Moc Fee Flow during the settlement [PREC]"
        }
      },
      "setSwapTCforTPFee(uint256)": {
        "details": "sets the fee charged when swap Collateral Token for a Pegged Token.",
        "params": {
          "swapTCforTPFee_": "additional fee pct applied on swap Collateral Token for a Pegged Token [PREC] 0% = 0; 1% = 10 ** 16; 100% = 10 ** 18"
        }
      },
      "setSwapTPforTCFee(uint256)": {
        "details": "sets the fee charged when swap a Pegged Token for Collateral Token.",
        "params": {
          "swapTPforTCFee_": "additional fee pct applied on swap a Pegged Token for Collateral Token [PREC] 0% = 0; 1% = 10 ** 16; 100% = 10 ** 18"
        }
      },
      "setSwapTPforTPFee(uint256)": {
        "details": "sets the fee charged when swap a Pegged Token for another Pegged Token.",
        "params": {
          "swapTPforTPFee_": "additional fee pct applied on swap a Pegged Token for another Pegged Token [PREC] 0% = 0; 1% = 10 ** 16; 100% = 10 ** 18"
        }
      },
      "setTCInterestCollectorAddress(address)": {
        "details": "sets TC interest collector address",
        "params": {
          "tcInterestCollectorAddress_": "TC interest collector address"
        }
      },
      "setTCInterestPaymentBlockSpan(uint256)": {
        "details": "sets TC interest payment block spannextTCInterestPayment is not automatically updated, you have to wait until next  interest payment to be made : nextTCInterestPayment = block.number + tcInterestPaymentBlockSpan",
        "params": {
          "tcInterestPaymentBlockSpan_": "amount of blocks to wait for next TC interest payment"
        }
      },
      "setTCInterestRate(uint256)": {
        "details": "sets TC interest rate",
        "params": {
          "tcInterestRate_": "pct interest charged to TC holders on the total collateral in the protocol [PREC]"
        }
      },
      "setTcMintFee(uint256)": {
        "details": "sets the fee charged on Token Collateral mint.",
        "params": {
          "tcMintFee_": "addition fee pct applied on Collateral Tokens mint [PREC] 0% = 0; 1% = 10 ** 16; 100% = 10 ** 18"
        }
      },
      "setTcRedeemFee(uint256)": {
        "details": "sets the fee charged on Token Collateral redeem.",
        "params": {
          "tcRedeemFee_": "addition fee pct applied on Collateral Tokens redeem [PREC] 0% = 0; 1% = 10 ** 16; 100% = 10 ** 18"
        }
      },
      "setTransferMAxGas(uint256)": {
        "params": {
          "transferMaxGas_": "new max amount of gas forwarded on AC transfer"
        }
      },
      "swapTCforTP(address,uint256,uint256)": {
        "params": {
          "qTC_": "amount of Collateral Token to swap",
          "qTPmin_": "minimum amount of Pegged Token that the sender expects to receive",
          "tp_": "Pegged Token address"
        },
        "returns": {
          "operId": "Identifier to track the Operation lifecycle"
        }
      },
      "swapTCforTPViaVendor(address,uint256,uint256,address)": {
        "params": {
          "qTC_": "amount of Collateral Token to swap",
          "qTPmin_": "minimum amount of Pegged Token that the sender expects to receive",
          "tp_": "Pegged Token address",
          "vendor_": "address who receives a markup"
        },
        "returns": {
          "operId": "Identifier to track the Operation lifecycle"
        }
      },
      "swapTCforTPto(address,uint256,uint256,address)": {
        "params": {
          "qTC_": "amount of Collateral to swap",
          "qTPmin_": "minimum amount of Pegged Token that `recipient_` expects to receive",
          "recipient_": "address who receives the Pegged Token",
          "tp_": "Pegged Token address"
        },
        "returns": {
          "operId": "Identifier to track the Operation lifecycle"
        }
      },
      "swapTCforTPtoViaVendor(address,uint256,uint256,address,address)": {
        "params": {
          "qTC_": "amount of Collateral to swap",
          "qTPmin_": "minimum amount of Pegged Token that `recipient_` expects to receive",
          "recipient_": "address who receives the Pegged Token",
          "tp_": "Pegged Token address",
          "vendor_": "address who receives a markup"
        },
        "returns": {
          "operId": "Identifier to track the Operation lifecycle"
        }
      },
      "swapTPforTC(address,uint256,uint256)": {
        "params": {
          "qTCmin_": "minimum amount of Collateral Token that the sender expects to receive",
          "qTP_": "amount of owned Pegged Token to swap",
          "tp_": "Pegged Token address"
        },
        "returns": {
          "operId": "Identifier to track the Operation lifecycle"
        }
      },
      "swapTPforTCViaVendor(address,uint256,uint256,address)": {
        "params": {
          "qTCmin_": "minimum amount of Collateral Token that the sender expects to receive",
          "qTP_": "amount of owned Pegged Token to swap",
          "tp_": "Pegged Token address",
          "vendor_": "address who receives a markup"
        },
        "returns": {
          "operId": "Identifier to track the Operation lifecycle"
        }
      },
      "swapTPforTCto(address,uint256,uint256,address)": {
        "params": {
          "qTCmin_": "minimum amount of Collateral Token that `recipient_` expects to receive",
          "qTP_": "amount of owned Pegged Token to swap",
          "recipient_": "address who receives the Collateral Token",
          "tp_": "Pegged Token address"
        },
        "returns": {
          "operId": "Identifier to track the Operation lifecycle"
        }
      },
      "swapTPforTCtoViaVendor(address,uint256,uint256,address,address)": {
        "params": {
          "qTCmin_": "minimum amount of Collateral Token that `recipient_` expects to receive",
          "qTP_": "amount of owned Pegged Token to swap",
          "recipient_": "address who receives the Collateral Token",
          "tp_": "Pegged Token address",
          "vendor_": "address who receives a markup"
        },
        "returns": {
          "operId": "Identifier to track the Operation lifecycle"
        }
      },
      "swapTPforTP(address,address,uint256,uint256)": {
        "params": {
          "qTP_": "amount of owned Pegged Token to swap",
          "qTPmin_": "minimum amount of target Pegged Token that the sender expects to receive",
          "tpFrom_": "owned Pegged Token address",
          "tpTo_": "target Pegged Token address"
        },
        "returns": {
          "operId": "Identifier to track the Operation lifecycle"
        }
      },
      "swapTPforTPViaVendor(address,address,uint256,uint256,address)": {
        "params": {
          "qTP_": "amount of owned Pegged Token to swap",
          "qTPmin_": "minimum amount of target Pegged Token that the sender expects to receive",
          "tpFrom_": "owned Pegged Token address",
          "tpTo_": "target Pegged Token address",
          "vendor_": "address who receives a markup"
        },
        "returns": {
          "operId": "Identifier to track the Operation lifecycle"
        }
      },
      "swapTPforTPto(address,address,uint256,uint256,address)": {
        "params": {
          "qTP_": "amount of owned Pegged Token to swap",
          "qTPmin_": "minimum amount of target Pegged Token that `recipient_` expects to receive",
          "recipient_": "address who receives the target Pegged Token",
          "tpFrom_": "owned Pegged Token address",
          "tpTo_": "target Pegged Token address"
        },
        "returns": {
          "operId": "Identifier to track the Operation lifecycle"
        }
      },
      "swapTPforTPtoViaVendor(address,address,uint256,uint256,address,address)": {
        "params": {
          "qTP_": "amount of owned Pegged Token to swap",
          "qTPmin_": "minimum amount of target Pegged Token that `recipient_` expects to receive",
          "recipient_": "address who receives the target Pegged Token",
          "tpFrom_": "owned Pegged Token address",
          "tpTo_": "target Pegged Token address",
          "vendor_": "address who receives a markup"
        },
        "returns": {
          "operId": "Identifier to track the Operation lifecycle"
        }
      },
      "tcHoldersInterestPayment()": {
        "details": "-   The amount is not differential, it's a snapshot of the moment it's executed  -   It does not check coverage"
      },
      "unlockACInPending(address,uint256)": {
        "details": "this function must be overridden by the AC implementation",
        "params": {
          "owner_": "funds owner, address to be returned to",
          "qACToUnlock_": "AC amount to be unlocked"
        }
      },
      "unlockTCInPending(address,uint256)": {
        "params": {
          "owner_": "funds owner, address to be returned to",
          "qTCToUnlock_": "TC amount to be unlocked"
        }
      },
      "unlockTPInPending(address,address,uint256)": {
        "params": {
          "owner_": "funds owner, address to be returned to",
          "qTPToUnlock_": "TP amount to be unlocked",
          "tpToken_": "TP to be unlocked"
        }
      },
      "updateEmas()": {
        "details": "All price provider prices must be available, fails if not"
      },
      "upgradeTo(address)": {
        "custom:oz-upgrades-unsafe-allow-reachable": "delegatecall",
        "details": "Upgrade the implementation of the proxy to `newImplementation`. Calls {_authorizeUpgrade}. Emits an {Upgraded} event."
      },
      "upgradeToAndCall(address,bytes)": {
        "custom:oz-upgrades-unsafe-allow-reachable": "delegatecall",
        "details": "Upgrade the implementation of the proxy to `newImplementation`, and subsequently execute the function call encoded in `data`. Calls {_authorizeUpgrade}. Emits an {Upgraded} event."
      }
    },
    "title": "MocCoinbaseMock",
    "version": 1
  },
  "evm": {
    "bytecode": {
      "linkReferences": {},
      "opcodes": "PUSH1 0xA0 DUP1 PUSH1 0x40 MSTORE CALLVALUE PUSH3 0xE1 JUMPI ADDRESS PUSH1 0x80 MSTORE PUSH1 0x0 SLOAD SWAP1 PUSH1 0xFF DUP3 PUSH1 0x8 SHR AND PUSH3 0x8F JUMPI POP PUSH1 0xFF DUP1 DUP3 AND SUB PUSH3 0x53 JUMPI JUMPDEST PUSH1 0x40 MLOAD PUSH2 0x6015 SWAP1 DUP2 PUSH3 0xE7 DUP3 CODECOPY PUSH1 0x80 MLOAD DUP2 DUP2 DUP2 PUSH2 0x29C6 ADD MSTORE DUP2 DUP2 PUSH2 0x2B77 ADD MSTORE PUSH2 0x3107 ADD MSTORE RETURN JUMPDEST PUSH1 0xFF SWAP1 DUP2 NOT AND OR PUSH1 0x0 SSTORE PUSH32 0x7F26B83FF96E1F2B6A682F133852F6798A09C465DA95921460CEFB3847402498 PUSH1 0x20 PUSH1 0x40 MLOAD PUSH1 0xFF DUP2 MSTORE LOG1 CODESIZE PUSH3 0x2C JUMP JUMPDEST PUSH3 0x461BCD PUSH1 0xE5 SHL DUP2 MSTORE PUSH1 0x20 PUSH1 0x4 DUP3 ADD MSTORE PUSH1 0x27 PUSH1 0x24 DUP3 ADD MSTORE PUSH32 0x496E697469616C697A61626C653A20636F6E747261637420697320696E697469 PUSH1 0x44 DUP3 ADD MSTORE PUSH7 0x616C697A696E67 PUSH1 0xC8 SHL PUSH1 0x64 DUP3 ADD MSTORE PUSH1 0x84 SWAP1 REVERT JUMPDEST PUSH1 0x0 DUP1 REVERT INVALID PUSH1 0x40 PUSH1 0x80 DUP2 MSTORE PUSH1 0x4 CALLDATASIZE LT ISZERO PUSH2 0x2D JUMPI JUMPDEST POP CALLDATASIZE ISZERO PUSH2 0x1B JUMPI PUSH1 0x0 DUP1 REVERT JUMPDEST PUSH2 0x131 PUSH2 0x29 CALLVALUE DUP3 SLOAD PUSH2 0x4194 JUMP JUMPDEST SWAP1 SSTORE STOP JUMPDEST PUSH1 0x0 SWAP1 PUSH1 0xE0 DUP3 CALLDATALOAD DUP2 SHR SWAP1 DUP2 PUSH4 0x1DDE6EF EQ PUSH2 0x3A3F JUMPI DUP2 PUSH4 0x1F1B684 EQ PUSH2 0x39F8 JUMPI DUP2 PUSH4 0x579188F EQ PUSH2 0x395F JUMPI DUP2 PUSH4 0x73763B9 EQ PUSH2 0x393B JUMPI DUP2 PUSH4 0xB69640D EQ PUSH2 0x38DA JUMPI DUP2 PUSH4 0xC340A24 EQ PUSH2 0x38B1 JUMPI DUP2 PUSH4 0xC36D897 EQ PUSH2 0x3891 JUMPI DUP2 PUSH4 0xD10EBE9 EQ PUSH2 0x3875 JUMPI DUP2 PUSH4 0xD6AC463 EQ PUSH2 0x382F JUMPI DUP2 PUSH4 0xDB49656 EQ PUSH2 0x380F JUMPI DUP2 PUSH4 0xE0A8FD2 EQ PUSH2 0x37EB JUMPI DUP2 PUSH4 0xF1E5E2B EQ PUSH2 0x37A5 JUMPI DUP2 PUSH4 0x13ED7BA5 EQ PUSH2 0x377B JUMPI DUP2 PUSH4 0x17937F9B EQ PUSH2 0x3744 JUMPI DUP2 PUSH4 0x1867E2F5 EQ PUSH2 0x3724 JUMPI DUP2 PUSH4 0x1AF4B229 EQ PUSH2 0x36EB JUMPI DUP2 PUSH4 0x1FB0DDA0 EQ PUSH2 0x36C2 JUMPI DUP2 PUSH4 0x1FE6A7AD EQ PUSH2 0x3688 JUMPI DUP2 PUSH4 0x2069F753 EQ PUSH2 0x3664 JUMPI DUP2 PUSH4 0x235E81CF EQ PUSH2 0x3472 JUMPI DUP2 PUSH4 0x23B98CDE EQ PUSH2 0x344A JUMPI DUP2 PUSH4 0x243D56A5 EQ PUSH2 0x3416 JUMPI DUP2 PUSH4 0x24FFABA3 EQ PUSH2 0x33D9 JUMPI DUP2 PUSH4 0x27EAB2A1 EQ PUSH2 0x3393 JUMPI DUP2 PUSH4 0x2A20D57D EQ PUSH2 0x3373 JUMPI DUP2 PUSH4 0x2C43BD3B EQ PUSH2 0x334F JUMPI DUP2 PUSH4 0x2D88AF4A EQ PUSH2 0x32F8 JUMPI DUP2 PUSH4 0x2DED50F0 EQ PUSH2 0x32D8 JUMPI DUP2 PUSH4 0x31F64EC2 EQ PUSH2 0x32BA JUMPI DUP2 PUSH4 0x333431FD EQ PUSH2 0x329A JUMPI DUP2 PUSH4 0x33421C38 EQ PUSH2 0x31A7 JUMPI DUP2 PUSH4 0x34246862 EQ PUSH2 0x316C JUMPI DUP2 PUSH4 0x3659CFE6 EQ PUSH2 0x30D2 JUMPI DUP2 PUSH4 0x3915EDCB EQ PUSH2 0x30A1 JUMPI DUP2 PUSH4 0x391BF6CF EQ PUSH2 0x2F89 JUMPI DUP2 PUSH4 0x3B0D5FFF EQ PUSH2 0x2F47 JUMPI DUP2 PUSH4 0x3BC4AC0A EQ PUSH2 0x2F23 JUMPI DUP2 PUSH4 0x3CFB09EF EQ PUSH2 0x2EDD JUMPI DUP2 PUSH4 0x3DBC50A9 EQ PUSH2 0x2E9B JUMPI DUP2 PUSH4 0x3F4BA83A EQ PUSH2 0x2E20 JUMPI DUP2 PUSH4 0x4017936A EQ PUSH2 0x2DEF JUMPI DUP2 PUSH4 0x407F0E34 EQ PUSH2 0x2DCF JUMPI DUP2 PUSH4 0x466B8934 EQ PUSH2 0x2D98 JUMPI DUP2 PUSH4 0x471A80E3 EQ PUSH2 0x2D65 JUMPI DUP2 PUSH4 0x4A587124 EQ PUSH2 0x2D49 JUMPI DUP2 PUSH4 0x4AF3A6FC EQ PUSH2 0x2CCA JUMPI DUP2 PUSH4 0x4B746001 EQ PUSH2 0x2C80 JUMPI DUP2 PUSH4 0x4C6AF8E8 EQ PUSH2 0x2C4C JUMPI DUP2 PUSH4 0x4D977E78 EQ PUSH2 0x2C2C JUMPI DUP2 PUSH4 0x4E1F907A EQ PUSH2 0x2C02 JUMPI DUP2 PUSH4 0x4F0F27EE EQ PUSH2 0x2BE2 JUMPI DUP2 PUSH4 0x4F1EF286 EQ PUSH2 0x2AEE JUMPI DUP2 PUSH4 0x51A9CEDC EQ PUSH2 0x2AAC JUMPI DUP2 PUSH4 0x5210570C EQ PUSH2 0x2A86 JUMPI DUP2 PUSH4 0x52D1902D EQ PUSH2 0x29B1 JUMPI DUP2 PUSH4 0x52E18F8F EQ PUSH2 0x2996 JUMPI DUP2 PUSH4 0x533A4BEA EQ PUSH2 0x2965 JUMPI DUP2 PUSH4 0x53B16D17 EQ PUSH2 0x2920 JUMPI DUP2 PUSH4 0x543AEB48 EQ PUSH2 0x28FC JUMPI DUP2 PUSH4 0x57271F4D EQ PUSH2 0x28CC JUMPI DUP2 PUSH4 0x5860EE63 EQ PUSH2 0x28AC JUMPI DUP2 PUSH4 0x58F32DE9 EQ PUSH2 0x283A JUMPI DUP2 PUSH4 0x5C616A73 EQ PUSH2 0x263F JUMPI DUP2 PUSH4 0x5C975ABB EQ PUSH2 0x2618 JUMPI DUP2 PUSH4 0x5CFBE578 EQ PUSH2 0x25F8 JUMPI DUP2 PUSH4 0x5E2A6065 EQ PUSH2 0x25DE JUMPI DUP2 PUSH4 0x5ECE17EF EQ PUSH2 0x2589 JUMPI DUP2 PUSH4 0x60009E0B EQ PUSH2 0x255F JUMPI DUP2 PUSH4 0x647846A5 EQ PUSH2 0x2535 JUMPI DUP2 PUSH4 0x64EC230A EQ PUSH2 0x2511 JUMPI DUP2 PUSH4 0x662013F4 EQ PUSH2 0x24F4 JUMPI DUP2 PUSH4 0x68274357 EQ PUSH2 0x24CB JUMPI DUP2 PUSH4 0x68748A42 EQ PUSH2 0x24B0 JUMPI DUP2 PUSH4 0x68A09E13 EQ PUSH2 0x2492 JUMPI DUP2 PUSH4 0x69D9C2F2 EQ PUSH2 0x2477 JUMPI DUP2 PUSH4 0x6B5488DF EQ PUSH2 0x2457 JUMPI DUP2 PUSH4 0x6F30471F EQ PUSH2 0x2437 JUMPI DUP2 PUSH4 0x70713468 EQ PUSH2 0x2413 JUMPI DUP2 PUSH4 0x735D3960 EQ PUSH2 0x23CD JUMPI DUP2 PUSH4 0x73E28AF9 EQ PUSH2 0x23A9 JUMPI DUP2 PUSH4 0x7554FFFD EQ PUSH2 0x2389 JUMPI DUP2 PUSH4 0x76228055 EQ PUSH2 0x2369 JUMPI DUP2 PUSH4 0x7636BB09 EQ PUSH2 0x234D JUMPI DUP2 PUSH4 0x7750BA0C EQ PUSH2 0x2329 JUMPI DUP2 PUSH4 0x79873A26 EQ PUSH2 0x230E JUMPI DUP2 PUSH4 0x79F9A91C EQ PUSH2 0x22EE JUMPI DUP2 PUSH4 0x7A193C31 EQ PUSH2 0x22CE JUMPI DUP2 PUSH4 0x7A4FF1D9 EQ PUSH2 0x22AA JUMPI DUP2 PUSH4 0x7A727FE8 EQ PUSH2 0x228A JUMPI DUP2 PUSH4 0x7AF5758C EQ PUSH2 0x2266 JUMPI DUP2 PUSH4 0x7CBA2383 EQ PUSH2 0x2242 JUMPI DUP2 PUSH4 0x7D8E0314 EQ PUSH2 0x2203 JUMPI DUP2 PUSH4 0x7F01C715 EQ PUSH2 0x21D9 JUMPI DUP2 PUSH4 0x7F13B998 EQ PUSH2 0x21A3 JUMPI DUP2 PUSH4 0x7F4A4FE0 EQ PUSH2 0x2183 JUMPI DUP2 PUSH4 0x826FCD58 EQ PUSH2 0x2160 JUMPI DUP2 PUSH4 0x8456CB59 EQ PUSH2 0x20CB JUMPI DUP2 PUSH4 0x85BF9593 EQ PUSH2 0x2085 JUMPI DUP2 PUSH4 0x883D21CB EQ PUSH2 0x1FC4 JUMPI DUP2 PUSH4 0x89FD503E EQ PUSH2 0x1FAA JUMPI DUP2 PUSH4 0x8ACC2011 EQ PUSH2 0x1F90 JUMPI DUP2 PUSH4 0x8CFA4241 EQ PUSH2 0x1F70 JUMPI DUP2 PUSH4 0x8D7A72F3 EQ PUSH2 0x1F50 JUMPI DUP2 PUSH4 0x8E2BDB86 EQ PUSH2 0x1F26 JUMPI DUP2 PUSH4 0x8F1A383A EQ PUSH2 0x1EFE JUMPI DUP2 PUSH4 0x960556F3 EQ PUSH2 0x1EBC JUMPI DUP2 PUSH4 0x963DCC98 EQ PUSH2 0x196C JUMPI DUP2 PUSH4 0x9853C35A EQ PUSH2 0x1942 JUMPI DUP2 PUSH4 0x9ABB14C9 EQ PUSH2 0x1923 JUMPI DUP2 PUSH4 0x9AD6659D EQ PUSH2 0x18ED JUMPI DUP2 PUSH4 0x9BEA71A4 EQ PUSH2 0x18AB JUMPI DUP2 PUSH4 0x9CABFC00 EQ PUSH2 0x185F JUMPI DUP2 PUSH4 0x9FD0506D EQ PUSH2 0x1832 JUMPI DUP2 PUSH4 0xA8E9AC30 EQ PUSH2 0x180F JUMPI DUP2 PUSH4 0xAD4E666D EQ PUSH2 0x1630 JUMPI DUP2 PUSH4 0xAEA038DC EQ PUSH2 0x1610 JUMPI DUP2 PUSH4 0xAEB41E69 EQ PUSH2 0x15F3 JUMPI DUP2 PUSH4 0xB3903B39 EQ PUSH2 0x15C3 JUMPI DUP2 PUSH4 0xB4434C32 EQ PUSH2 0x1405 JUMPI DUP2 PUSH4 0xB5E9EA8C EQ PUSH2 0x13DB JUMPI DUP2 PUSH4 0xB9FA6413 EQ PUSH2 0x13BB JUMPI DUP2 PUSH4 0xBB4872DE EQ PUSH2 0x1397 JUMPI DUP2 PUSH4 0xBC4E55B2 EQ PUSH2 0x12C9 JUMPI DUP2 PUSH4 0xBECACA6B EQ PUSH2 0x12A5 JUMPI DUP2 PUSH4 0xBF1AD8B1 EQ PUSH2 0x1289 JUMPI DUP2 PUSH4 0xBFE42621 EQ PUSH2 0x108E JUMPI DUP2 PUSH4 0xC00F538D EQ PUSH2 0x106A JUMPI DUP2 PUSH4 0xC039CC69 EQ PUSH2 0x1028 JUMPI DUP2 PUSH4 0xC0D8E15E EQ PUSH2 0xFE0 JUMPI DUP2 PUSH4 0xC4CB376C EQ PUSH2 0xFBC JUMPI DUP2 PUSH4 0xC84353C9 EQ PUSH2 0xF98 JUMPI DUP2 PUSH4 0xCC75B048 EQ PUSH2 0xF7C JUMPI DUP2 PUSH4 0xCF351C1D EQ PUSH2 0xF36 JUMPI DUP2 PUSH4 0xD1A0FAA0 EQ PUSH2 0xF1D JUMPI DUP2 PUSH4 0xD471849B EQ PUSH2 0xEDB JUMPI DUP2 PUSH4 0xD6AF11DA EQ PUSH2 0xE9F JUMPI DUP2 PUSH4 0xD8233ECC EQ PUSH2 0xE6D JUMPI DUP2 PUSH4 0xD87AAB6F EQ PUSH2 0xE4D JUMPI DUP2 PUSH4 0xD8C69AEC EQ PUSH2 0xD37 JUMPI DUP2 PUSH4 0xD8DB6F5A EQ PUSH2 0xCF1 JUMPI DUP2 PUSH4 0xDB796072 EQ PUSH2 0xCB4 JUMPI DUP2 PUSH4 0xDD9928D8 EQ PUSH2 0xC99 JUMPI DUP2 PUSH4 0xDDB6D190 EQ PUSH2 0xC5C JUMPI DUP2 PUSH4 0xDE8D520A EQ PUSH2 0xC29 JUMPI DUP2 PUSH4 0xE2C5E990 EQ PUSH2 0xBC8 JUMPI DUP2 PUSH4 0xE4012945 EQ PUSH2 0xB95 JUMPI DUP2 PUSH4 0xE4C0AAF4 EQ PUSH2 0xB50 JUMPI DUP2 PUSH4 0xE6A683E0 EQ PUSH2 0xB0A JUMPI DUP2 PUSH4 0xE6B1627C EQ PUSH2 0xAC6 JUMPI DUP2 PUSH4 0xE7C25978 EQ PUSH2 0xAA1 JUMPI DUP2 PUSH4 0xE8859A15 EQ PUSH2 0xA84 JUMPI DUP2 PUSH4 0xEA70B99E EQ PUSH2 0xA64 JUMPI DUP2 PUSH4 0xEE1F438F EQ PUSH2 0xA3A JUMPI DUP2 PUSH4 0xEEDD8A40 EQ PUSH2 0xA01 JUMPI DUP2 PUSH4 0xF13F4054 EQ PUSH2 0x9D7 JUMPI DUP2 PUSH4 0xF26114AA EQ PUSH2 0x972 JUMPI POP DUP1 PUSH4 0xF2808778 EQ PUSH2 0x94E JUMPI DUP1 PUSH4 0xF30B5614 EQ PUSH2 0x92F JUMPI DUP1 PUSH4 0xF375CFBA EQ PUSH2 0x910 JUMPI DUP1 PUSH4 0xF3772886 EQ PUSH2 0x8E7 JUMPI DUP1 PUSH4 0xF88B1434 EQ PUSH2 0x87E JUMPI DUP1 PUSH4 0xFA6E83BD EQ PUSH2 0x85F JUMPI DUP1 PUSH4 0xFADDA424 EQ PUSH2 0x7EB JUMPI DUP1 PUSH4 0xFB3BFCEA EQ PUSH2 0x7A3 JUMPI DUP1 PUSH4 0xFD80FA77 EQ PUSH2 0x781 JUMPI PUSH4 0xFDA70F8B EQ PUSH2 0x75F JUMPI POP PUSH2 0xF JUMP JUMPDEST CALLVALUE PUSH2 0x77D JUMPI DUP2 PUSH1 0x3 NOT CALLDATASIZE ADD SLT PUSH2 0x77D JUMPI PUSH1 0x20 SWAP1 PUSH2 0x13C SLOAD SWAP1 MLOAD SWAP1 DUP2 MSTORE RETURN JUMPDEST POP DUP1 REVERT JUMPDEST POP PUSH2 0x79C PUSH1 0x20 SWAP3 PUSH2 0x793 CALLDATASIZE PUSH1 0x4 PUSH2 0x3C62 JUMP JUMPDEST SWAP4 SWAP3 SWAP1 SWAP3 PUSH2 0x5740 JUMP JUMPDEST SWAP1 MLOAD SWAP1 DUP2 MSTORE RETURN JUMPDEST POP SWAP1 PUSH1 0x60 CALLDATASIZE PUSH1 0x3 NOT ADD SLT PUSH2 0x7E8 JUMPI POP PUSH1 0x1 PUSH1 0x1 PUSH1 0xA0 SHL SUB SWAP1 PUSH1 0x24 CALLDATALOAD DUP3 DUP2 AND DUP2 SUB PUSH2 0x7E3 JUMPI PUSH1 0x44 CALLDATALOAD SWAP3 DUP4 AND DUP4 SUB PUSH2 0x7E3 JUMPI PUSH1 0x20 SWAP3 PUSH2 0x79C SWAP2 CALLVALUE PUSH1 0x4 CALLDATALOAD PUSH2 0x4DAE JUMP JUMPDEST PUSH1 0x0 DUP1 REVERT JUMPDEST DUP1 REVERT JUMPDEST POP SWAP1 CALLVALUE PUSH2 0x7E8 JUMPI PUSH1 0x20 CALLDATASIZE PUSH1 0x3 NOT ADD SLT PUSH2 0x7E8 JUMPI POP PUSH1 0x1 PUSH1 0x1 PUSH1 0xA0 SHL SUB PUSH1 0x4 CALLDATALOAD DUP2 DUP2 AND DUP2 SUB PUSH2 0x7E3 JUMPI PUSH2 0x829 PUSH2 0x821 PUSH1 0x1 SWAP3 PUSH2 0x44C5 JUMP JUMPDEST PUSH2 0x137 PUSH2 0x3B98 JUMP JUMPDEST POP ADD SLOAD AND PUSH2 0x836 DUP2 PUSH2 0x455C JUMP JUMPDEST SWAP2 SWAP1 SWAP2 ISZERO PUSH2 0x848 JUMPI POP PUSH1 0x20 SWAP2 MLOAD SWAP1 DUP2 MSTORE RETURN JUMPDEST PUSH1 0x24 SWAP1 DUP4 MLOAD SWAP1 PUSH4 0x7F6E4DB9 PUSH1 0xE0 SHL DUP3 MSTORE PUSH1 0x4 DUP3 ADD MSTORE REVERT JUMPDEST POP CALLVALUE PUSH2 0x77D JUMPI DUP2 PUSH1 0x3 NOT CALLDATASIZE ADD SLT PUSH2 0x77D JUMPI PUSH1 0x20 SWAP1 PUSH2 0x13A SLOAD SWAP1 MLOAD SWAP1 DUP2 MSTORE RETURN JUMPDEST POP SWAP1 CALLVALUE PUSH2 0x7E8 JUMPI PUSH1 0x20 CALLDATASIZE PUSH1 0x3 NOT ADD SLT PUSH2 0x7E8 JUMPI POP PUSH1 0x4 CALLDATALOAD SWAP1 PUSH1 0x1 PUSH1 0x1 PUSH1 0xA0 SHL SUB DUP3 AND DUP3 SUB PUSH2 0x7E3 JUMPI PUSH2 0x79C PUSH2 0x8D9 PUSH1 0x20 SWAP4 PUSH2 0x8C2 PUSH2 0x8BA PUSH2 0x4C57 JUMP JUMPDEST SWAP2 SWAP1 SWAP3 PUSH2 0x44C5 JUMP JUMPDEST SWAP2 PUSH2 0x8E1 PUSH2 0x8D0 DUP5 DUP5 PUSH2 0x41B7 JUMP JUMPDEST MLOAD SWAP5 DUP6 SWAP4 PUSH2 0x41CB JUMP JUMPDEST SWAP6 SWAP1 SWAP5 PUSH2 0x4BB4 JUMP JUMPDEST SWAP1 PUSH2 0x4AB1 JUMP JUMPDEST POP CALLVALUE PUSH2 0x77D JUMPI DUP2 PUSH1 0x3 NOT CALLDATASIZE ADD SLT PUSH2 0x77D JUMPI PUSH2 0x22A SLOAD SWAP1 MLOAD PUSH1 0x1 PUSH1 0x1 PUSH1 0xA0 SHL SUB SWAP1 SWAP2 AND DUP2 MSTORE PUSH1 0x20 SWAP1 RETURN JUMPDEST POP CALLVALUE PUSH2 0x77D JUMPI DUP2 PUSH1 0x3 NOT CALLDATASIZE ADD SLT PUSH2 0x77D JUMPI PUSH1 0x20 SWAP1 PUSH2 0x141 SLOAD SWAP1 MLOAD SWAP1 DUP2 MSTORE RETURN JUMPDEST POP CALLVALUE PUSH2 0x77D JUMPI DUP2 PUSH1 0x3 NOT CALLDATASIZE ADD SLT PUSH2 0x77D JUMPI PUSH1 0x20 SWAP1 PUSH2 0x131 SLOAD SWAP1 MLOAD SWAP1 DUP2 MSTORE RETURN JUMPDEST DUP3 CALLVALUE PUSH2 0x7E8 JUMPI PUSH1 0x20 CALLDATASIZE PUSH1 0x3 NOT ADD SLT PUSH2 0x7E8 JUMPI PUSH2 0x968 PUSH2 0x5EEA JUMP JUMPDEST PUSH1 0x4 CALLDATALOAD PUSH2 0x13C SSTORE DUP1 RETURN JUMPDEST SWAP1 POP CALLVALUE PUSH2 0x9D3 JUMPI CALLDATASIZE PUSH1 0x3 NOT ADD SLT PUSH2 0x77D JUMPI PUSH2 0x9CF SWAP1 PUSH2 0x98F PUSH2 0x5EEA JUMP JUMPDEST MLOAD PUSH4 0x79308A55 PUSH1 0xE1 SHL PUSH1 0x20 DUP3 ADD MSTORE PUSH2 0x9BD DUP2 PUSH2 0x9AF PUSH1 0x4 PUSH1 0x24 DUP4 ADD PUSH2 0x49BD JUMP JUMPDEST SUB PUSH1 0x1F NOT DUP2 ADD DUP4 MSTORE DUP3 PUSH2 0x3BB4 JUMP JUMPDEST PUSH2 0x1F6 SLOAD PUSH1 0x1 PUSH1 0x1 PUSH1 0xA0 SHL SUB AND PUSH2 0x4886 JUMP JUMPDEST POP DUP1 RETURN JUMPDEST DUP3 DUP1 REVERT JUMPDEST POP POP CALLVALUE PUSH2 0x77D JUMPI DUP2 PUSH1 0x3 NOT CALLDATASIZE ADD SLT PUSH2 0x77D JUMPI PUSH2 0x130 SLOAD SWAP1 MLOAD PUSH1 0x1 PUSH1 0x1 PUSH1 0xA0 SHL SUB SWAP1 SWAP2 AND DUP2 MSTORE PUSH1 0x20 SWAP1 RETURN JUMPDEST POP POP PUSH1 0x60 CALLDATASIZE PUSH1 0x3 NOT ADD SLT PUSH2 0x7E3 JUMPI PUSH1 0x4 CALLDATALOAD PUSH1 0x1 PUSH1 0x1 PUSH1 0xA0 SHL SUB DUP2 AND DUP2 SUB PUSH2 0x7E3 JUMPI PUSH1 0x20 SWAP3 PUSH2 0x79C SWAP2 CALLER SWAP1 CALLVALUE SWAP1 PUSH1 0x44 CALLDATALOAD SWAP1 PUSH1 0x24 CALLDATALOAD SWAP1 PUSH2 0x54A2 JUMP JUMPDEST POP POP CALLVALUE PUSH2 0x77D JUMPI DUP2 PUSH1 0x3 NOT CALLDATASIZE ADD SLT PUSH2 0x77D JUMPI PUSH2 0x152 SLOAD SWAP1 MLOAD PUSH1 0x1 PUSH1 0x1 PUSH1 0xA0 SHL SUB SWAP1 SWAP2 AND DUP2 MSTORE PUSH1 0x20 SWAP1 RETURN JUMPDEST POP POP CALLVALUE PUSH2 0x77D JUMPI DUP2 PUSH1 0x3 NOT CALLDATASIZE ADD SLT PUSH2 0x77D JUMPI PUSH1 0x20 SWAP1 PUSH2 0x229 SLOAD SWAP1 MLOAD SWAP1 DUP2 MSTORE RETURN JUMPDEST POP POP CALLVALUE PUSH2 0x77D JUMPI DUP2 PUSH1 0x3 NOT CALLDATASIZE ADD SLT PUSH2 0x77D JUMPI PUSH1 0x20 SWAP1 PUSH2 0x79C PUSH2 0x4B77 JUMP JUMPDEST POP POP CALLVALUE PUSH2 0x77D JUMPI DUP2 PUSH1 0x3 NOT CALLDATASIZE ADD SLT PUSH2 0x77D JUMPI PUSH1 0x20 SWAP1 PUSH1 0xFF PUSH2 0x14B SLOAD AND SWAP1 MLOAD SWAP1 ISZERO ISZERO DUP2 MSTORE RETURN JUMPDEST POP POP CALLVALUE PUSH2 0x77D JUMPI PUSH1 0x20 CALLDATASIZE PUSH1 0x3 NOT ADD SLT PUSH2 0x77D JUMPI PUSH1 0x4 CALLDATALOAD PUSH2 0x18E DUP1 SLOAD DUP3 LT ISZERO PUSH2 0xB06 JUMPI SWAP1 PUSH2 0xAF2 SWAP2 PUSH2 0x3B98 JUMP JUMPDEST POP PUSH1 0x1 DUP2 SLOAD SWAP2 ADD SLOAD DUP3 MLOAD SWAP2 DUP3 MSTORE PUSH1 0x20 DUP3 ADD MSTORE RETURN JUMPDEST DUP4 DUP1 REVERT JUMPDEST DUP4 CALLVALUE PUSH2 0x7E8 JUMPI PUSH1 0x20 CALLDATASIZE PUSH1 0x3 NOT ADD SLT PUSH2 0x7E8 JUMPI PUSH1 0x4 CALLDATALOAD PUSH1 0x1 PUSH1 0x1 PUSH1 0xA0 SHL SUB DUP2 AND SWAP1 DUP2 SWAP1 SUB PUSH2 0x7E3 JUMPI PUSH2 0xB39 PUSH2 0x5EEA JUMP JUMPDEST PUSH2 0x1F6 DUP1 SLOAD PUSH1 0x1 PUSH1 0x1 PUSH1 0xA0 SHL SUB NOT AND SWAP1 SWAP2 OR SWAP1 SSTORE DUP1 RETURN JUMPDEST DUP4 CALLVALUE PUSH2 0x7E8 JUMPI PUSH1 0x20 CALLDATASIZE PUSH1 0x3 NOT ADD SLT PUSH2 0x7E8 JUMPI PUSH1 0x4 CALLDATALOAD PUSH1 0x1 PUSH1 0x1 PUSH1 0xA0 SHL SUB DUP2 AND SWAP1 DUP2 SWAP1 SUB PUSH2 0x77D JUMPI PUSH2 0xB7F PUSH2 0x5EEA JUMP JUMPDEST PUSH1 0x1 PUSH1 0x1 PUSH1 0x60 SHL SUB PUSH1 0xA0 SHL PUSH1 0x97 SLOAD AND OR PUSH1 0x97 SSTORE DUP1 RETURN JUMPDEST POP POP PUSH1 0x60 CALLDATASIZE PUSH1 0x3 NOT ADD SLT PUSH2 0x7E3 JUMPI PUSH1 0x44 CALLDATALOAD PUSH1 0x1 PUSH1 0x1 PUSH1 0xA0 SHL SUB DUP2 AND DUP2 SUB PUSH2 0x7E3 JUMPI PUSH1 0x20 SWAP3 PUSH2 0x79C SWAP2 PUSH1 0x24 CALLDATALOAD PUSH1 0x4 CALLDATALOAD PUSH2 0x557E JUMP JUMPDEST DUP3 DUP5 CALLVALUE PUSH2 0x7E8 JUMPI PUSH1 0x60 CALLDATASIZE PUSH1 0x3 NOT ADD SLT PUSH2 0x7E8 JUMPI PUSH1 0x1 PUSH1 0x1 PUSH1 0xA0 SHL SUB PUSH1 0x4 CALLDATALOAD DUP2 DUP2 AND DUP2 SUB PUSH2 0x7E3 JUMPI PUSH1 0x24 CALLDATALOAD SWAP2 DUP1 DUP4 AND DUP4 SUB PUSH2 0xB06 JUMPI PUSH2 0x14F SLOAD AND CALLER SUB PUSH2 0xC18 JUMPI SWAP1 PUSH2 0xC15 SWAP2 PUSH1 0x44 CALLDATALOAD SWAP2 PUSH2 0x5EB1 JUMP JUMPDEST DUP1 RETURN JUMPDEST DUP4 MLOAD PUSH4 0x19748477 PUSH1 0xE0 SHL DUP2 MSTORE PUSH1 0x4 SWAP1 REVERT JUMPDEST POP POP CALLVALUE PUSH2 0x77D JUMPI DUP2 PUSH1 0x3 NOT CALLDATASIZE ADD SLT PUSH2 0x77D JUMPI PUSH1 0x20 SWAP1 PUSH2 0x79C PUSH2 0xC51 PUSH2 0xC4C PUSH2 0x45CE JUMP JUMPDEST PUSH2 0x41CB JUMP JUMPDEST SWAP1 POP PUSH2 0x131 SLOAD PUSH2 0x439E JUMP JUMPDEST POP POP CALLVALUE PUSH2 0x77D JUMPI PUSH1 0x20 CALLDATASIZE PUSH1 0x3 NOT ADD SLT PUSH2 0x77D JUMPI PUSH1 0x4 CALLDATALOAD PUSH1 0x1 PUSH1 0x1 PUSH1 0xA0 SHL SUB DUP2 AND SWAP1 DUP2 SWAP1 SUB PUSH2 0x7E3 JUMPI DUP3 DUP3 SWAP2 PUSH1 0x20 SWAP5 MSTORE PUSH2 0x145 DUP5 MSTORE KECCAK256 SLOAD SWAP1 MLOAD SWAP1 DUP2 MSTORE RETURN JUMPDEST PUSH1 0x20 DUP4 PUSH2 0x79C PUSH2 0xCAA CALLDATASIZE PUSH1 0x4 PUSH2 0x3C35 JUMP JUMPDEST SWAP3 SWAP1 SWAP2 CALLVALUE SWAP2 PUSH2 0x4F71 JUMP JUMPDEST SWAP1 POP CALLVALUE PUSH2 0x9D3 JUMPI CALLDATASIZE PUSH1 0x3 NOT ADD SLT PUSH2 0x77D JUMPI PUSH2 0x9CF SWAP1 PUSH2 0xCD1 PUSH2 0x5EEA JUMP JUMPDEST MLOAD PUSH4 0x6DBCB039 PUSH1 0xE1 SHL PUSH1 0x20 DUP3 ADD MSTORE PUSH2 0x9BD DUP2 PUSH2 0x9AF PUSH1 0x4 PUSH1 0x24 DUP4 ADD PUSH2 0x49BD JUMP JUMPDEST DUP4 CALLVALUE PUSH2 0x7E8 JUMPI PUSH1 0x20 CALLDATASIZE PUSH1 0x3 NOT ADD SLT PUSH2 0x7E8 JUMPI PUSH1 0x4 CALLDATALOAD PUSH1 0x1 PUSH1 0x1 PUSH1 0xA0 SHL SUB DUP2 AND SWAP1 DUP2 SWAP1 SUB PUSH2 0x7E3 JUMPI PUSH2 0xD20 PUSH2 0x5EEA JUMP JUMPDEST PUSH2 0x152 DUP1 SLOAD PUSH1 0x1 PUSH1 0x1 PUSH1 0xA0 SHL SUB NOT AND SWAP1 SWAP2 OR SWAP1 SSTORE DUP1 RETURN JUMPDEST DUP4 SWAP2 POP CALLVALUE PUSH2 0x77D JUMPI CALLDATASIZE PUSH1 0x3 NOT ADD SLT PUSH2 0x7E8 JUMPI POP PUSH2 0xD52 PUSH2 0x582B JUMP JUMPDEST POP PUSH2 0x14F SLOAD PUSH1 0x1 PUSH1 0x1 PUSH1 0xA0 SHL SUB SWAP2 SWAP1 DUP3 AND CALLER SUB PUSH2 0xE3D JUMPI PUSH2 0xE02 SWAP2 PUSH2 0xD78 CALLDATASIZE PUSH1 0x4 PUSH2 0x5E3E JUMP JUMPDEST SWAP2 PUSH2 0xD81 PUSH2 0x582B JUMP JUMPDEST POP PUSH2 0xD8A PUSH2 0x4F4F JUMP JUMPDEST PUSH2 0xD92 PUSH2 0x5F78 JUMP JUMPDEST PUSH2 0xDDE PUSH2 0xDCF DUP3 MLOAD PUSH4 0x3DAD0BD7 PUSH1 0xE1 SHL PUSH1 0x20 DUP3 ADD MSTORE PUSH2 0xDB4 PUSH1 0x24 DUP3 ADD DUP8 PUSH2 0x5452 JUMP JUMPDEST PUSH1 0xE4 DUP2 MSTORE PUSH2 0xDC4 PUSH2 0x104 DUP3 PUSH2 0x3BB4 JUMP JUMPDEST DUP5 PUSH2 0x1F6 SLOAD AND PUSH2 0x4886 JUMP JUMPDEST PUSH1 0x20 DUP1 DUP3 MLOAD DUP4 ADD ADD SWAP2 ADD PUSH2 0x5DE3 JUMP JUMPDEST DUP7 DUP5 DUP8 PUSH1 0x80 DUP5 SWAP9 SWAP7 SWAP12 SWAP6 SWAP8 SWAP11 ADD MLOAD AND SWAP2 DUP9 PUSH1 0xC0 DUP2 PUSH1 0xA0 DUP5 ADD MLOAD AND SWAP3 ADD MLOAD AND SWAP3 PUSH2 0x5B95 JUMP JUMPDEST PUSH1 0x4 CALLDATALOAD SWAP4 DUP1 DUP6 AND DUP1 SWAP6 SUB PUSH2 0x7E3 JUMPI PUSH1 0x84 CALLDATALOAD SWAP1 DUP2 AND DUP2 SUB PUSH2 0x7E3 JUMPI PUSH2 0xE39 SWAP5 PUSH2 0xE2F SWAP2 DUP9 PUSH1 0x44 CALLDATALOAD SUB SWAP2 PUSH2 0x5EB1 JUMP JUMPDEST MLOAD SWAP5 DUP6 SWAP5 DUP6 PUSH2 0x3B1F JUMP JUMPDEST SUB SWAP1 RETURN JUMPDEST MLOAD PUSH4 0x19748477 PUSH1 0xE0 SHL DUP2 MSTORE PUSH1 0x4 SWAP1 REVERT JUMPDEST POP POP CALLVALUE PUSH2 0x77D JUMPI DUP2 PUSH1 0x3 NOT CALLDATASIZE ADD SLT PUSH2 0x77D JUMPI PUSH1 0x20 SWAP1 PUSH2 0x155 SLOAD SWAP1 MLOAD SWAP1 DUP2 MSTORE RETURN JUMPDEST DUP3 DUP5 DUP2 PUSH1 0x3 NOT CALLDATASIZE ADD SLT PUSH2 0x7E8 JUMPI POP PUSH1 0x24 CALLDATALOAD SWAP1 PUSH1 0x1 PUSH1 0x1 PUSH1 0xA0 SHL SUB DUP3 AND DUP3 SUB PUSH2 0x7E3 JUMPI PUSH2 0x79C PUSH1 0x20 SWAP3 CALLER CALLVALUE PUSH1 0x4 CALLDATALOAD PUSH2 0x4DAE JUMP JUMPDEST POP POP CALLVALUE PUSH2 0x77D JUMPI DUP2 PUSH1 0x3 NOT CALLDATASIZE ADD SLT PUSH2 0x77D JUMPI PUSH1 0x20 SWAP1 PUSH2 0x79C PUSH2 0xEC1 PUSH1 0x1 PUSH2 0x4608 JUMP JUMPDEST PUSH2 0xED5 PUSH2 0xECE DUP3 DUP5 PUSH2 0x430F JUMP JUMPDEST SWAP2 DUP4 PUSH2 0x4259 JUMP JUMPDEST SWAP2 PUSH2 0x464F JUMP JUMPDEST POP POP PUSH1 0x60 CALLDATASIZE PUSH1 0x3 NOT ADD SLT PUSH2 0x7E3 JUMPI PUSH1 0x1 PUSH1 0x1 PUSH1 0xA0 SHL SUB SWAP2 PUSH1 0x4 CALLDATALOAD SWAP1 DUP4 DUP3 AND DUP3 SUB PUSH2 0x7E3 JUMPI PUSH1 0x44 CALLDATALOAD SWAP4 DUP5 AND DUP5 SUB PUSH2 0x7E3 JUMPI PUSH1 0x20 SWAP4 PUSH2 0x79C SWAP3 CALLVALUE SWAP1 PUSH1 0x24 CALLDATALOAD SWAP1 PUSH2 0x502B JUMP JUMPDEST DUP4 CALLVALUE PUSH2 0x7E8 JUMPI DUP1 PUSH1 0x3 NOT CALLDATASIZE ADD SLT PUSH2 0x7E8 JUMPI PUSH2 0xC15 PUSH2 0x4D1A JUMP JUMPDEST DUP4 CALLVALUE PUSH2 0x7E8 JUMPI PUSH1 0x20 CALLDATASIZE PUSH1 0x3 NOT ADD SLT PUSH2 0x7E8 JUMPI PUSH1 0x4 CALLDATALOAD PUSH1 0x1 PUSH1 0x1 PUSH1 0xA0 SHL SUB DUP2 AND SWAP1 DUP2 SWAP1 SUB PUSH2 0x7E3 JUMPI PUSH2 0xF65 PUSH2 0x5EEA JUMP JUMPDEST PUSH2 0x12F DUP1 SLOAD PUSH1 0x1 PUSH1 0x1 PUSH1 0xA0 SHL SUB NOT AND SWAP1 SWAP2 OR SWAP1 SSTORE DUP1 RETURN JUMPDEST PUSH1 0x20 DUP4 PUSH2 0x79C PUSH2 0xF8D CALLDATASIZE PUSH1 0x4 PUSH2 0x3C08 JUMP JUMPDEST SWAP3 SWAP1 CALLER SWAP3 CALLVALUE SWAP3 PUSH2 0x54A2 JUMP JUMPDEST DUP4 CALLVALUE PUSH2 0x7E8 JUMPI PUSH1 0x20 CALLDATASIZE PUSH1 0x3 NOT ADD SLT PUSH2 0x7E8 JUMPI PUSH2 0xFB2 PUSH2 0x5EEA JUMP JUMPDEST PUSH1 0x4 CALLDATALOAD PUSH2 0x14C SSTORE DUP1 RETURN JUMPDEST DUP4 CALLVALUE PUSH2 0x7E8 JUMPI PUSH1 0x20 CALLDATASIZE PUSH1 0x3 NOT ADD SLT PUSH2 0x7E8 JUMPI PUSH2 0xFD6 PUSH2 0x5EEA JUMP JUMPDEST PUSH1 0x4 CALLDATALOAD PUSH2 0x229 SSTORE DUP1 RETURN JUMPDEST POP POP PUSH1 0x80 CALLDATASIZE PUSH1 0x3 NOT ADD SLT PUSH2 0x77D JUMPI PUSH1 0x1 PUSH1 0x1 PUSH1 0xA0 SHL SUB SWAP2 PUSH1 0x4 CALLDATALOAD SWAP1 DUP4 DUP3 AND DUP3 SUB PUSH2 0x7E3 JUMPI PUSH1 0x24 CALLDATALOAD SWAP4 DUP5 AND DUP5 SUB PUSH2 0x7E3 JUMPI PUSH1 0x20 SWAP4 PUSH2 0x79C SWAP3 CALLER SWAP2 CALLVALUE SWAP2 PUSH1 0x64 CALLDATALOAD SWAP2 PUSH1 0x44 CALLDATALOAD SWAP2 PUSH2 0x50A4 JUMP JUMPDEST POP POP CALLVALUE PUSH2 0x77D JUMPI DUP2 PUSH1 0x3 NOT CALLDATASIZE ADD SLT PUSH2 0x77D JUMPI PUSH1 0x20 SWAP1 PUSH2 0x79C PUSH2 0x105D PUSH2 0x1064 PUSH2 0x1051 PUSH2 0xC4C PUSH2 0x45CE JUMP JUMPDEST PUSH2 0x131 SWAP4 SWAP2 SWAP4 SLOAD PUSH2 0x439E JUMP JUMPDEST SWAP2 DUP3 PUSH2 0x439E JUMP JUMPDEST SWAP1 PUSH2 0x5F99 JUMP JUMPDEST DUP4 CALLVALUE PUSH2 0x7E8 JUMPI PUSH1 0x20 CALLDATASIZE PUSH1 0x3 NOT ADD SLT PUSH2 0x7E8 JUMPI PUSH2 0x1084 PUSH2 0x5EEA JUMP JUMPDEST PUSH1 0x4 CALLDATALOAD PUSH2 0x13D SSTORE DUP1 RETURN JUMPDEST DUP3 DUP5 CALLVALUE PUSH2 0x7E8 JUMPI PUSH1 0xA0 CALLDATASIZE PUSH1 0x3 NOT ADD SLT PUSH2 0x7E8 JUMPI PUSH2 0x10A9 PUSH2 0x582B JUMP JUMPDEST POP PUSH2 0x14F SLOAD PUSH1 0x1 PUSH1 0x1 PUSH1 0xA0 SHL SUB SWAP1 DUP2 AND CALLER SUB PUSH2 0x1278 JUMPI PUSH2 0x10CA CALLDATASIZE PUSH1 0x4 PUSH2 0x5852 JUMP JUMPDEST SWAP2 PUSH2 0x10D3 PUSH2 0x582B JUMP JUMPDEST POP PUSH2 0x10DC PUSH2 0x4F4F JUMP JUMPDEST PUSH2 0x10E4 PUSH2 0x5F78 JUMP JUMPDEST PUSH2 0x10EC PUSH2 0x4D1A JUMP JUMPDEST PUSH2 0x10FF PUSH2 0x10F7 PUSH2 0x4C57 JUMP JUMPDEST DUP2 SWAP3 SWAP2 PUSH2 0x58AF JUMP JUMPDEST SWAP1 SWAP2 PUSH2 0x110E DUP3 DUP5 DUP9 MLOAD SWAP4 PUSH2 0x4A52 JUMP JUMPDEST DUP2 DUP2 LT PUSH2 0x125B JUMPI POP POP PUSH8 0xDE0B6B3A7640000 SWAP2 PUSH2 0x1130 PUSH2 0x1136 SWAP3 DUP8 MLOAD SWAP3 PUSH2 0x4A1E JUMP JUMPDEST SWAP1 PUSH2 0x42DC JUMP JUMPDEST DIV SWAP2 DUP3 ISZERO PUSH2 0x124A JUMPI SWAP4 DUP4 SWAP5 DUP2 PUSH2 0x116F SWAP6 ADD SWAP1 DUP1 DUP3 MLOAD AND SWAP2 PUSH2 0x1164 PUSH1 0x80 DUP10 ADD SWAP4 DUP8 DUP5 DUP7 MLOAD AND PUSH2 0x13D SLOAD SWAP3 PUSH2 0x58F2 JUMP JUMPDEST SWAP7 SWAP2 DUP9 SWAP10 SWAP2 SWAP10 PUSH2 0x439E JUMP JUMPDEST SWAP7 PUSH1 0x20 DUP11 ADD MLOAD DUP1 DUP10 LT PUSH2 0x122D JUMPI POP DUP10 MLOAD SWAP1 PUSH2 0x134 PUSH2 0x118E DUP4 DUP3 SLOAD PUSH2 0x439E JUMP JUMPDEST SWAP1 SSTORE PUSH2 0x119E PUSH2 0x131 SWAP2 DUP3 SLOAD PUSH2 0x439E JUMP JUMPDEST SWAP1 SSTORE DUP4 PUSH2 0x133 SLOAD AND SWAP1 DUP2 EXTCODESIZE ISZERO PUSH2 0x9D3 JUMPI DUP7 MLOAD PUSH4 0x2770A7EB PUSH1 0xE2 SHL DUP2 MSTORE ADDRESS PUSH1 0x4 DUP3 ADD MSTORE PUSH1 0x24 DUP2 ADD SWAP2 SWAP1 SWAP2 MSTORE SWAP1 DUP3 SWAP1 DUP3 SWAP1 PUSH1 0x44 SWAP1 DUP3 SWAP1 DUP5 SWAP1 GAS CALL DUP1 ISZERO PUSH2 0x1223 JUMPI PUSH2 0x120E JUMPI JUMPDEST POP POP SWAP7 DUP6 PUSH2 0x1204 SWAP4 DUP4 DUP1 PUSH1 0x60 DUP10 SWAP7 PUSH2 0xE39 SWAP12 SWAP13 SWAP14 MLOAD AND SWAP6 ADD MLOAD AND SWAP2 MLOAD AND SWAP3 PUSH2 0x5B95 JUMP JUMPDEST MLOAD SWAP4 DUP5 SWAP4 DUP5 PUSH2 0x3AE1 JUMP JUMPDEST PUSH2 0x1219 DUP3 DUP1 SWAP3 PUSH2 0x3BB4 JUMP JUMPDEST PUSH2 0x7E8 JUMPI DUP1 PUSH2 0x11E1 JUMP JUMPDEST DUP7 MLOAD RETURNDATASIZE DUP5 DUP3 RETURNDATACOPY RETURNDATASIZE SWAP1 REVERT JUMPDEST PUSH1 0x44 SWAP1 DUP10 DUP9 MLOAD SWAP2 PUSH4 0x54CDE313 PUSH1 0xE0 SHL DUP4 MSTORE PUSH1 0x4 DUP4 ADD MSTORE PUSH1 0x24 DUP3 ADD MSTORE REVERT JUMPDEST DUP5 MLOAD PUSH4 0xF3E39B5D PUSH1 0xE0 SHL DUP2 MSTORE PUSH1 0x4 SWAP1 REVERT JUMPDEST PUSH1 0x44 SWAP3 POP DUP8 MLOAD SWAP2 PUSH4 0xA5DB715D PUSH1 0xE0 SHL DUP4 MSTORE PUSH1 0x4 DUP4 ADD MSTORE PUSH1 0x24 DUP3 ADD MSTORE REVERT JUMPDEST DUP3 MLOAD PUSH4 0x19748477 PUSH1 0xE0 SHL DUP2 MSTORE PUSH1 0x4 SWAP1 REVERT JUMPDEST PUSH1 0x20 DUP4 PUSH2 0x79C PUSH2 0x129A CALLDATASIZE PUSH1 0x4 PUSH2 0x3C08 JUMP JUMPDEST SWAP3 SWAP1 CALLER SWAP3 CALLVALUE SWAP3 PUSH2 0x53B4 JUMP JUMPDEST DUP4 CALLVALUE PUSH2 0x7E8 JUMPI PUSH1 0x20 CALLDATASIZE PUSH1 0x3 NOT ADD SLT PUSH2 0x7E8 JUMPI PUSH2 0x12BF PUSH2 0x5EEA JUMP JUMPDEST PUSH1 0x4 CALLDATALOAD PUSH2 0x139 SSTORE DUP1 RETURN JUMPDEST DUP4 SWAP2 POP CALLVALUE PUSH2 0x77D JUMPI CALLDATASIZE PUSH1 0x3 NOT ADD SLT PUSH2 0x7E8 JUMPI POP PUSH2 0x12E4 PUSH2 0x582B JUMP JUMPDEST POP PUSH2 0x14F SLOAD PUSH1 0x1 PUSH1 0x1 PUSH1 0xA0 SHL SUB SWAP1 DUP2 AND CALLER SUB PUSH2 0x1386 JUMPI PUSH2 0xE39 PUSH2 0xE2F SWAP2 PUSH2 0x130C CALLDATASIZE PUSH1 0x4 PUSH2 0x5E3E JUMP JUMPDEST SWAP4 PUSH2 0x1315 PUSH2 0x582B JUMP JUMPDEST POP PUSH2 0x131E PUSH2 0x4F4F JUMP JUMPDEST PUSH2 0x1326 PUSH2 0x5F78 JUMP JUMPDEST PUSH2 0x1348 PUSH2 0xDCF DUP3 MLOAD PUSH4 0xF5571E01 PUSH1 0xE0 SHL PUSH1 0x20 DUP3 ADD MSTORE PUSH2 0xDB4 PUSH1 0x24 DUP3 ADD DUP10 PUSH2 0x5452 JUMP JUMPDEST SWAP5 DUP9 PUSH1 0x60 DUP8 SWAP4 SWAP7 SWAP6 SWAP10 SWAP5 SWAP11 ADD SWAP2 DUP3 MLOAD PUSH2 0x1365 PUSH2 0x14E SWAP2 DUP3 SLOAD PUSH2 0x439E JUMP JUMPDEST SWAP1 SSTORE PUSH1 0xC0 PUSH2 0x137B DUP12 DUP4 PUSH1 0x80 DUP7 ADD MLOAD AND SWAP6 MLOAD PUSH2 0x439E JUMP JUMPDEST SWAP3 ADD MLOAD AND SWAP2 DUP1 PUSH2 0x5B95 JUMP JUMPDEST DUP2 MLOAD PUSH4 0x19748477 PUSH1 0xE0 SHL DUP2 MSTORE PUSH1 0x4 SWAP1 REVERT JUMPDEST POP POP CALLVALUE PUSH2 0x77D JUMPI DUP2 PUSH1 0x3 NOT CALLDATASIZE ADD SLT PUSH2 0x77D JUMPI PUSH1 0x20 SWAP1 PUSH1 0xFF PUSH1 0xCA SLOAD AND SWAP1 MLOAD SWAP1 ISZERO ISZERO DUP2 MSTORE RETURN JUMPDEST POP POP CALLVALUE PUSH2 0x77D JUMPI DUP2 PUSH1 0x3 NOT CALLDATASIZE ADD SLT PUSH2 0x77D JUMPI PUSH1 0x20 SWAP1 PUSH2 0x15B SLOAD SWAP1 MLOAD SWAP1 DUP2 MSTORE RETURN JUMPDEST POP POP CALLVALUE PUSH2 0x77D JUMPI DUP2 PUSH1 0x3 NOT CALLDATASIZE ADD SLT PUSH2 0x77D JUMPI PUSH2 0x153 SLOAD SWAP1 MLOAD PUSH1 0x1 PUSH1 0x1 PUSH1 0xA0 SHL SUB SWAP1 SWAP2 AND DUP2 MSTORE PUSH1 0x20 SWAP1 RETURN JUMPDEST DUP3 DUP5 CALLVALUE PUSH2 0x7E8 JUMPI PUSH1 0xC0 CALLDATASIZE PUSH1 0x3 NOT ADD SLT PUSH2 0x7E8 JUMPI PUSH2 0x1420 PUSH2 0x582B JUMP JUMPDEST POP PUSH2 0x14F SLOAD PUSH1 0x1 PUSH1 0x1 PUSH1 0xA0 SHL SUB SWAP3 SWAP1 DUP4 AND CALLER SUB PUSH2 0xE3D JUMPI PUSH2 0x14BA PUSH2 0x1445 CALLDATASIZE PUSH1 0x4 PUSH2 0x5CA8 JUMP JUMPDEST SWAP2 PUSH2 0x144E PUSH2 0x582B JUMP JUMPDEST POP PUSH2 0x1457 PUSH2 0x4F4F JUMP JUMPDEST PUSH2 0x145F PUSH2 0x5F78 JUMP JUMPDEST PUSH2 0x1467 PUSH2 0x4D1A JUMP JUMPDEST PUSH2 0x146F PUSH2 0x4C57 JUMP JUMPDEST PUSH2 0x147E DUP8 DUP7 SWAP6 SWAP4 SWAP6 MLOAD AND PUSH2 0x44C5 JUMP JUMPDEST SWAP4 PUSH2 0x149E PUSH2 0x148C DUP7 DUP5 PUSH2 0x41B7 JUMP JUMPDEST MLOAD SWAP3 PUSH2 0x1498 DUP5 DUP9 PUSH2 0x4968 JUMP JUMPDEST DUP3 PUSH2 0x58AF JUMP JUMPDEST PUSH1 0x20 DUP9 SWAP6 SWAP3 SWAP6 ADD SWAP5 DUP5 DUP7 MLOAD SWAP5 PUSH2 0x14B4 DUP3 DUP12 PUSH2 0x4BB4 JUMP JUMPDEST SWAP1 PUSH2 0x5D11 JUMP JUMPDEST DUP2 DUP2 LT PUSH2 0x15A6 JUMPI POP POP SWAP5 DUP1 SWAP7 PUSH2 0x14D4 PUSH2 0x150C SWAP8 DUP5 MLOAD PUSH2 0x5F99 JUMP JUMPDEST SWAP5 PUSH1 0x60 DUP8 ADD SWAP1 PUSH2 0x1501 DUP4 DUP4 MLOAD AND DUP9 DUP11 DUP10 PUSH1 0xA0 DUP3 ADD SWAP9 DUP9 DUP1 DUP12 MLOAD AND SWAP4 MLOAD AND DUP2 MSTORE PUSH2 0x144 PUSH1 0x20 MSTORE KECCAK256 SLOAD SWAP3 PUSH2 0x58F2 JUMP JUMPDEST SWAP9 SWAP2 DUP3 SWAP12 SWAP2 SWAP12 PUSH2 0x4194 JUMP JUMPDEST SWAP9 DUP8 DUP2 ADD SWAP7 DUP8 MLOAD DUP1 DUP13 GT PUSH2 0x1589 JUMPI POP DUP11 ISZERO PUSH2 0x1578 JUMPI SWAP5 DUP10 SWAP7 SWAP5 PUSH2 0x1553 DUP3 SWAP6 DUP14 SWAP15 SWAP16 SWAP6 PUSH2 0xE39 SWAP15 SWAP6 DUP6 PUSH1 0x80 PUSH2 0x1204 SWAP15 SWAP13 PUSH2 0x1548 PUSH2 0x156E SWAP12 DUP7 PUSH2 0x5D29 JUMP JUMPDEST MLOAD SWAP3 ADD MLOAD AND SWAP3 PUSH2 0x48A8 JUMP JUMPDEST DUP7 MLOAD PUSH2 0x1563 PUSH2 0x14E SWAP2 DUP3 SLOAD PUSH2 0x439E JUMP JUMPDEST SWAP1 SSTORE MLOAD AND SWAP5 MLOAD PUSH2 0x439E JUMP JUMPDEST SWAP2 MLOAD AND SWAP2 DUP1 PUSH2 0x5B95 JUMP JUMPDEST DUP9 MLOAD PUSH4 0xF3E39B5D PUSH1 0xE0 SHL DUP2 MSTORE PUSH1 0x4 SWAP1 REVERT JUMPDEST PUSH1 0x44 SWAP1 DUP13 DUP12 MLOAD SWAP2 PUSH4 0xB63F1A7 PUSH1 0xE0 SHL DUP4 MSTORE PUSH1 0x4 DUP4 ADD MSTORE PUSH1 0x24 DUP3 ADD MSTORE REVERT JUMPDEST PUSH1 0x44 SWAP3 POP DUP5 MLOAD SWAP2 PUSH4 0xC39B739F PUSH1 0xE0 SHL DUP4 MSTORE PUSH1 0x4 DUP4 ADD MSTORE PUSH1 0x24 DUP3 ADD MSTORE REVERT JUMPDEST POP POP DUP1 PUSH1 0x3 NOT CALLDATASIZE ADD SLT PUSH2 0x77D JUMPI PUSH1 0x24 CALLDATALOAD PUSH1 0x1 PUSH1 0x1 PUSH1 0xA0 SHL SUB DUP2 AND DUP2 SUB PUSH2 0x7E3 JUMPI PUSH1 0x20 SWAP3 PUSH2 0x79C SWAP2 CALLVALUE PUSH1 0x4 CALLDATALOAD PUSH2 0x4DAE JUMP JUMPDEST PUSH1 0x20 DUP4 PUSH2 0x79C PUSH2 0x1604 CALLDATASIZE PUSH1 0x4 PUSH2 0x3C62 JUMP JUMPDEST SWAP4 SWAP3 SWAP2 SWAP1 SWAP2 CALLER SWAP4 PUSH2 0x5740 JUMP JUMPDEST POP POP CALLVALUE PUSH2 0x77D JUMPI DUP2 PUSH1 0x3 NOT CALLDATASIZE ADD SLT PUSH2 0x77D JUMPI PUSH1 0x20 SWAP1 PUSH2 0x13D SLOAD SWAP1 MLOAD SWAP1 DUP2 MSTORE RETURN JUMPDEST DUP3 DUP5 CALLVALUE PUSH2 0x7E8 JUMPI PUSH1 0xC0 CALLDATASIZE PUSH1 0x3 NOT ADD SLT PUSH2 0x7E8 JUMPI PUSH2 0x164B PUSH2 0x582B JUMP JUMPDEST POP PUSH2 0x14F SLOAD PUSH1 0x1 PUSH1 0x1 PUSH1 0xA0 SHL SUB SWAP1 DUP2 AND CALLER SUB PUSH2 0x1278 JUMPI SWAP1 PUSH2 0x170E SWAP2 PUSH2 0x1671 CALLDATASIZE PUSH1 0x4 PUSH2 0x5CA8 JUMP JUMPDEST SWAP4 PUSH2 0x167A PUSH2 0x582B JUMP JUMPDEST POP PUSH2 0x1683 PUSH2 0x4F4F JUMP JUMPDEST PUSH2 0x168B PUSH2 0x5F78 JUMP JUMPDEST PUSH2 0x1693 PUSH2 0x45CE JUMP JUMPDEST SWAP3 PUSH2 0x16A0 DUP4 DUP8 MLOAD AND PUSH2 0x44C5 JUMP JUMPDEST SWAP3 PUSH2 0x16C3 PUSH2 0x16AE DUP6 DUP8 PUSH2 0x41B7 JUMP JUMPDEST MLOAD SWAP6 PUSH2 0x16BA DUP8 DUP8 PUSH2 0x4968 JUMP JUMPDEST PUSH2 0x149 SLOAD PUSH2 0x58AF JUMP JUMPDEST POP POP PUSH2 0x16D4 PUSH1 0x20 DUP9 ADD SWAP6 DUP7 MLOAD PUSH2 0x5F99 JUMP JUMPDEST SWAP2 PUSH1 0x60 DUP9 ADD SWAP1 DUP3 DUP3 MLOAD AND SWAP4 PUSH2 0x1703 PUSH1 0xA0 DUP12 ADD SWAP6 DUP3 DUP13 DUP8 DUP1 DUP11 MLOAD AND SWAP2 MLOAD AND DUP7 MSTORE PUSH2 0x145 PUSH1 0x20 MSTORE DUP10 DUP7 KECCAK256 SLOAD SWAP3 PUSH2 0x58F2 JUMP JUMPDEST SWAP9 SWAP2 DUP4 SWAP12 SWAP2 SWAP12 PUSH2 0x439E JUMP JUMPDEST SWAP9 DUP3 ISZERO PUSH2 0x17FE JUMPI DUP8 DUP13 ADD MLOAD DUP1 DUP12 LT PUSH2 0x17E1 JUMPI POP DUP6 SWAP2 PUSH2 0x1766 SWAP2 PUSH2 0x1732 PUSH1 0x1 DUP14 PUSH2 0x5D29 JUMP JUMPDEST MLOAD SWAP4 PUSH2 0x1740 DUP3 PUSH2 0x137 PUSH2 0x3B98 JUMP JUMPDEST POP PUSH2 0x174C DUP7 DUP3 SLOAD PUSH2 0x439E JUMP JUMPDEST SWAP1 SSTORE PUSH2 0x175C PUSH2 0x131 SWAP2 DUP3 SLOAD PUSH2 0x439E JUMP JUMPDEST SWAP1 SSTORE PUSH2 0x135 PUSH2 0x3A63 JUMP JUMPDEST SWAP1 SLOAD SWAP1 PUSH1 0x3 SHL SHR AND SWAP1 DUP2 EXTCODESIZE ISZERO PUSH2 0x9D3 JUMPI DUP7 MLOAD PUSH4 0x2770A7EB PUSH1 0xE2 SHL DUP2 MSTORE ADDRESS PUSH1 0x4 DUP3 ADD MSTORE PUSH1 0x24 DUP2 ADD SWAP2 SWAP1 SWAP2 MSTORE SWAP1 DUP3 SWAP1 DUP3 SWAP1 PUSH1 0x44 SWAP1 DUP3 SWAP1 DUP5 SWAP1 GAS CALL DUP1 ISZERO PUSH2 0x1223 JUMPI PUSH2 0x17CC JUMPI JUMPDEST POP POP SWAP7 DUP6 PUSH2 0x1204 SWAP4 DUP4 DUP1 PUSH1 0x80 DUP10 SWAP7 PUSH2 0xE39 SWAP12 SWAP13 SWAP14 MLOAD AND SWAP6 ADD MLOAD AND SWAP2 MLOAD AND SWAP3 PUSH2 0x5B95 JUMP JUMPDEST PUSH2 0x17D7 DUP3 DUP1 SWAP3 PUSH2 0x3BB4 JUMP JUMPDEST PUSH2 0x7E8 JUMPI DUP1 PUSH2 0x17A9 JUMP JUMPDEST PUSH1 0x44 SWAP1 DUP12 DUP11 MLOAD SWAP2 PUSH4 0x54CDE313 PUSH1 0xE0 SHL DUP4 MSTORE PUSH1 0x4 DUP4 ADD MSTORE PUSH1 0x24 DUP3 ADD MSTORE REVERT JUMPDEST DUP8 MLOAD PUSH4 0xF3E39B5D PUSH1 0xE0 SHL DUP2 MSTORE PUSH1 0x4 SWAP1 REVERT JUMPDEST POP POP CALLVALUE PUSH2 0x77D JUMPI DUP2 PUSH1 0x3 NOT CALLDATASIZE ADD SLT PUSH2 0x77D JUMPI PUSH1 0x20 SWAP1 PUSH2 0x18F SLOAD NUMBER LT ISZERO SWAP1 MLOAD SWAP1 DUP2 MSTORE RETURN JUMPDEST POP POP CALLVALUE PUSH2 0x77D JUMPI DUP2 PUSH1 0x3 NOT CALLDATASIZE ADD SLT PUSH2 0x77D JUMPI PUSH1 0xCA SLOAD SWAP1 MLOAD PUSH1 0x10 SWAP2 SWAP1 SWAP2 SHR PUSH1 0x1 PUSH1 0x1 PUSH1 0xA0 SHL SUB AND DUP2 MSTORE PUSH1 0x20 SWAP1 RETURN JUMPDEST DUP3 DUP5 CALLVALUE PUSH2 0x7E8 JUMPI PUSH1 0x20 CALLDATASIZE PUSH1 0x3 NOT ADD SLT PUSH2 0x7E8 JUMPI PUSH1 0x4 CALLDATALOAD PUSH1 0x1 PUSH1 0x1 PUSH1 0xA0 SHL SUB DUP2 AND SWAP2 SWAP1 DUP3 SWAP1 SUB PUSH2 0x7E3 JUMPI DUP3 SWAP2 DUP2 MSTORE PUSH2 0x136 PUSH1 0x20 MSTORE KECCAK256 PUSH1 0xFF PUSH1 0x1 DUP3 SLOAD SWAP3 ADD SLOAD AND DUP3 MLOAD SWAP2 DUP3 MSTORE ISZERO ISZERO PUSH1 0x20 DUP3 ADD MSTORE RETURN JUMPDEST DUP3 DUP5 CALLVALUE PUSH2 0x7E8 JUMPI DUP2 PUSH1 0x3 NOT CALLDATASIZE ADD SLT PUSH2 0x7E8 JUMPI POP PUSH1 0x1 PUSH1 0x1 PUSH1 0xA0 SHL SUB SWAP1 PUSH1 0x4 CALLDATALOAD DUP3 DUP2 AND DUP2 SUB PUSH2 0x7E3 JUMPI PUSH1 0x24 CALLDATALOAD SWAP3 DUP4 AND DUP4 SUB PUSH2 0x7E3 JUMPI PUSH1 0x20 SWAP3 PUSH2 0x79C SWAP2 CALLER SWAP1 PUSH2 0x480C JUMP JUMPDEST POP POP CALLVALUE PUSH2 0x77D JUMPI DUP2 PUSH1 0x3 NOT CALLDATASIZE ADD SLT PUSH2 0x77D JUMPI PUSH1 0x20 SWAP1 PUSH2 0x1916 PUSH2 0x1910 PUSH2 0xC4C PUSH2 0x45CE JUMP JUMPDEST SWAP1 PUSH2 0x4380 JUMP JUMPDEST PUSH2 0x14A SLOAD LT ISZERO SWAP1 MLOAD SWAP1 DUP2 MSTORE RETURN JUMPDEST POP POP DUP1 PUSH1 0x3 NOT CALLDATASIZE ADD SLT PUSH2 0x77D JUMPI PUSH2 0x79C PUSH1 0x20 SWAP3 CALLER PUSH1 0x24 CALLDATALOAD PUSH1 0x4 CALLDATALOAD PUSH2 0x557E JUMP JUMPDEST POP POP CALLVALUE PUSH2 0x77D JUMPI DUP2 PUSH1 0x3 NOT CALLDATASIZE ADD SLT PUSH2 0x77D JUMPI PUSH2 0x146 SLOAD SWAP1 MLOAD PUSH1 0x1 PUSH1 0x1 PUSH1 0xA0 SHL SUB SWAP1 SWAP2 AND DUP2 MSTORE PUSH1 0x20 SWAP1 RETURN JUMPDEST POP POP CALLVALUE PUSH2 0x77D JUMPI PUSH2 0x420 CALLDATASIZE PUSH1 0x3 NOT ADD SLT PUSH2 0x77D JUMPI DUP2 SLOAD PUSH1 0xFF DUP2 PUSH1 0x8 SHR AND ISZERO SWAP1 DUP2 DUP1 SWAP3 PUSH2 0x1EAF JUMPI JUMPDEST DUP1 ISZERO PUSH2 0x1E98 JUMPI JUMPDEST ISZERO PUSH2 0x1E3D JUMPI PUSH1 0xFF NOT DUP2 AND PUSH1 0x1 OR DUP5 SSTORE DUP2 PUSH2 0x1E2C JUMPI JUMPDEST POP PUSH1 0xFF DUP4 SLOAD PUSH1 0x8 SHR AND PUSH2 0x19C1 DUP2 PUSH2 0x47AC JUMP JUMPDEST PUSH2 0x384 CALLDATALOAD PUSH1 0x1 PUSH1 0x1 PUSH1 0xA0 SHL SUB DUP2 AND SWAP1 DUP2 SWAP1 SUB PUSH2 0x7E3 JUMPI PUSH2 0x1F6 DUP1 SLOAD PUSH1 0x1 PUSH1 0x1 PUSH1 0xA0 SHL SUB NOT AND SWAP1 SWAP2 OR SWAP1 SSTORE PUSH1 0x1 PUSH1 0x1 PUSH1 0xA0 SHL SUB PUSH2 0x344 CALLDATALOAD SWAP1 DUP2 AND SWAP1 DUP2 SWAP1 SUB PUSH2 0x7E3 JUMPI PUSH2 0x364 CALLDATALOAD PUSH1 0x1 PUSH1 0x1 PUSH1 0xA0 SHL SUB DUP2 AND DUP2 SUB PUSH2 0x7E3 JUMPI PUSH1 0x1 SWAP2 PUSH2 0x1A22 DUP5 PUSH2 0x47AC JUMP JUMPDEST PUSH2 0x1A2B DUP5 PUSH2 0x47AC JUMP JUMPDEST PUSH2 0x1A34 DUP5 PUSH2 0x47AC JUMP JUMPDEST PUSH2 0x1A3D DUP5 PUSH2 0x47AC JUMP JUMPDEST PUSH1 0x1 PUSH1 0x1 PUSH1 0x60 SHL SUB PUSH1 0xA0 SHL PUSH1 0x97 SLOAD AND OR PUSH1 0x97 SSTORE PUSH2 0x1A59 DUP4 PUSH2 0x47AC JUMP JUMPDEST PUSH1 0xCA SLOAD SWAP1 PUSH3 0x10000 DUP4 PUSH1 0xB0 SHL SUB SWAP1 PUSH1 0x10 SHL AND SWAP1 PUSH2 0xFF01 DUP4 PUSH1 0xB0 SHL SUB NOT AND OR OR PUSH1 0xCA SSTORE PUSH2 0x1A84 DUP2 PUSH2 0x47AC JUMP JUMPDEST PUSH8 0xDE0B6B3A7640000 PUSH1 0xC4 CALLDATALOAD LT PUSH2 0x1E1B JUMPI PUSH2 0x1AA1 PUSH2 0x104 CALLDATALOAD PUSH2 0x5FBD JUMP JUMPDEST PUSH2 0x1AAD PUSH2 0x124 CALLDATALOAD PUSH2 0x5FBD JUMP JUMPDEST PUSH2 0x1AB9 PUSH2 0x144 CALLDATALOAD PUSH2 0x5FBD JUMP JUMPDEST PUSH2 0x1AC5 PUSH2 0x164 CALLDATALOAD PUSH2 0x5FBD JUMP JUMPDEST PUSH2 0x1AD1 PUSH2 0x184 CALLDATALOAD PUSH2 0x5FBD JUMP JUMPDEST PUSH2 0x1ADD PUSH2 0x1A4 CALLDATALOAD PUSH2 0x5FBD JUMP JUMPDEST PUSH2 0x1AE9 PUSH2 0x1C4 CALLDATALOAD PUSH2 0x5FBD JUMP JUMPDEST PUSH2 0x1AF5 PUSH2 0x1E4 CALLDATALOAD PUSH2 0x5FBD JUMP JUMPDEST PUSH2 0x1B01 PUSH2 0x204 CALLDATALOAD PUSH2 0x5FBD JUMP JUMPDEST PUSH2 0x1B19 PUSH2 0x1B14 PUSH2 0x244 CALLDATALOAD PUSH2 0x224 CALLDATALOAD PUSH2 0x4194 JUMP JUMPDEST PUSH2 0x5FBD JUMP JUMPDEST PUSH1 0x4 CALLDATALOAD PUSH1 0x1 PUSH1 0x1 PUSH1 0xA0 SHL SUB DUP2 AND SWAP1 DUP2 SWAP1 SUB PUSH2 0x7E3 JUMPI PUSH2 0x14F DUP1 SLOAD PUSH1 0x1 PUSH1 0x1 PUSH1 0xA0 SHL SUB NOT AND SWAP1 SWAP2 OR SWAP1 SSTORE PUSH1 0x24 CALLDATALOAD PUSH1 0x1 PUSH1 0x1 PUSH1 0xA0 SHL SUB DUP2 AND DUP2 SUB PUSH2 0x7E3 JUMPI PUSH2 0x12F DUP1 SLOAD PUSH1 0x1 PUSH1 0x1 PUSH1 0xA0 SHL SUB NOT AND PUSH1 0x1 PUSH1 0x1 PUSH1 0xA0 SHL SUB SWAP3 DUP4 AND OR SWAP1 SSTORE PUSH1 0x44 CALLDATALOAD SWAP1 DUP2 AND DUP2 SUB PUSH2 0x7E3 JUMPI PUSH2 0x130 DUP1 SLOAD PUSH1 0x1 PUSH1 0x1 PUSH1 0xA0 SHL SUB NOT AND PUSH1 0x1 PUSH1 0x1 PUSH1 0xA0 SHL SUB SWAP3 DUP4 AND OR SWAP1 SSTORE PUSH1 0x64 CALLDATALOAD SWAP1 DUP2 AND DUP2 SUB PUSH2 0x7E3 JUMPI PUSH2 0x133 DUP1 SLOAD PUSH1 0x1 PUSH1 0x1 PUSH1 0xA0 SHL SUB NOT AND PUSH1 0x1 PUSH1 0x1 PUSH1 0xA0 SHL SUB SWAP3 DUP4 AND OR SWAP1 SSTORE PUSH1 0x84 CALLDATALOAD SWAP1 DUP2 AND DUP2 SUB PUSH2 0x7E3 JUMPI PUSH2 0x146 DUP1 SLOAD PUSH1 0x1 PUSH1 0x1 PUSH1 0xA0 SHL SUB NOT AND PUSH1 0x1 PUSH1 0x1 PUSH1 0xA0 SHL SUB SWAP3 DUP4 AND OR SWAP1 SSTORE PUSH1 0xA4 CALLDATALOAD SWAP1 DUP2 AND DUP2 SUB PUSH2 0x7E3 JUMPI PUSH2 0x147 DUP1 SLOAD PUSH1 0x1 PUSH1 0x1 PUSH1 0xA0 SHL SUB NOT AND PUSH1 0x1 PUSH1 0x1 PUSH1 0xA0 SHL SUB SWAP3 DUP4 AND OR SWAP1 SSTORE PUSH1 0xC4 CALLDATALOAD PUSH2 0x149 SSTORE PUSH1 0xE4 CALLDATALOAD PUSH2 0x14A SSTORE PUSH2 0x104 CALLDATALOAD PUSH2 0x13B SSTORE PUSH2 0x124 CALLDATALOAD PUSH2 0x13C SSTORE PUSH2 0x144 CALLDATALOAD PUSH2 0x13D SSTORE PUSH2 0x164 CALLDATALOAD PUSH2 0x13E SSTORE PUSH2 0x184 CALLDATALOAD PUSH2 0x13F SSTORE PUSH2 0x1A4 CALLDATALOAD PUSH2 0x140 SSTORE PUSH2 0x1C4 CALLDATALOAD PUSH2 0x141 SSTORE PUSH2 0x1E4 CALLDATALOAD PUSH2 0x142 SSTORE PUSH2 0x204 CALLDATALOAD PUSH2 0x143 SSTORE PUSH2 0x224 CALLDATALOAD PUSH2 0x139 SSTORE PUSH2 0x244 CALLDATALOAD PUSH2 0x13A SSTORE PUSH2 0x264 CALLDATALOAD PUSH2 0x14C DUP2 SWAP1 SSTORE SWAP1 PUSH2 0x284 CALLDATALOAD SWAP1 DUP2 AND SWAP1 DUP2 SWAP1 SUB PUSH2 0x7E3 JUMPI PUSH2 0x158 DUP1 SLOAD PUSH1 0x1 PUSH1 0x1 PUSH1 0xA0 SHL SUB NOT AND SWAP1 SWAP2 OR SWAP1 SSTORE PUSH2 0x2A4 CALLDATALOAD PUSH2 0x159 SSTORE PUSH2 0x2C4 CALLDATALOAD PUSH2 0x15A DUP2 SWAP1 SSTORE SWAP1 PUSH1 0x1 PUSH1 0x1 PUSH1 0xA0 SHL SUB PUSH2 0x2E4 CALLDATALOAD SWAP1 DUP2 AND SWAP1 DUP2 SWAP1 SUB PUSH2 0x7E3 JUMPI PUSH2 0x152 DUP1 SLOAD PUSH1 0x1 PUSH1 0x1 PUSH1 0xA0 SHL SUB NOT AND SWAP1 SWAP2 OR SWAP1 SSTORE PUSH1 0x1 PUSH1 0x1 PUSH1 0xA0 SHL SUB PUSH2 0x304 CALLDATALOAD SWAP1 DUP2 AND SWAP1 DUP2 SWAP1 SUB PUSH2 0x7E3 JUMPI PUSH2 0x153 SWAP1 PUSH1 0x1 PUSH1 0x1 PUSH1 0x60 SHL SUB PUSH1 0xA0 SHL DUP3 SLOAD AND OR SWAP1 SSTORE PUSH2 0x324 CALLDATALOAD PUSH2 0x154 SSTORE NUMBER PUSH2 0x157 SSTORE NUMBER ADD PUSH2 0x14D SSTORE NUMBER ADD PUSH2 0x15B SSTORE PUSH2 0x14B PUSH2 0xFFFF NOT DUP2 SLOAD AND SWAP1 SSTORE PUSH2 0x3A4 CALLDATALOAD PUSH2 0x1D46 DUP3 PUSH2 0x47AC JUMP JUMPDEST DUP1 ISZERO PUSH2 0x1E0A JUMPI PUSH2 0x190 DUP2 SWAP1 SSTORE NUMBER ADD PUSH2 0x18F SSTORE PUSH2 0x3C4 CALLDATALOAD PUSH1 0x1 PUSH1 0x1 PUSH1 0xA0 SHL SUB DUP2 AND DUP2 SUB PUSH2 0x7E3 JUMPI PUSH2 0x1D78 PUSH2 0x1D9A SWAP3 PUSH2 0x47AC JUMP JUMPDEST PUSH2 0x1C3 DUP1 SLOAD PUSH1 0x1 PUSH1 0x1 PUSH1 0xA0 SHL SUB NOT AND PUSH1 0x1 PUSH1 0x1 PUSH1 0xA0 SHL SUB SWAP1 SWAP3 AND SWAP2 SWAP1 SWAP2 OR SWAP1 SSTORE JUMP JUMPDEST PUSH2 0x3E4 CALLDATALOAD PUSH2 0x229 SSTORE PUSH2 0x404 CALLDATALOAD PUSH1 0x1 PUSH1 0x1 PUSH1 0xA0 SHL SUB DUP2 AND SWAP1 DUP2 SWAP1 SUB PUSH2 0x7E3 JUMPI PUSH2 0x22A DUP1 SLOAD PUSH1 0x1 PUSH1 0x1 PUSH1 0xA0 SHL SUB NOT AND SWAP1 SWAP2 OR SWAP1 SSTORE PUSH2 0x1DD4 JUMPI POP DUP1 RETURN JUMPDEST PUSH1 0x20 PUSH32 0x7F26B83FF96E1F2B6A682F133852F6798A09C465DA95921460CEFB3847402498 SWAP2 PUSH2 0xFF00 NOT DUP5 SLOAD AND DUP5 SSTORE MLOAD PUSH1 0x1 DUP2 MSTORE LOG1 DUP1 RETURN JUMPDEST DUP4 MLOAD PUSH4 0x2A9FFAB7 PUSH1 0xE2 SHL DUP2 MSTORE PUSH1 0x4 SWAP1 REVERT JUMPDEST DUP3 MLOAD PUSH4 0x2A9FFAB7 PUSH1 0xE2 SHL DUP2 MSTORE PUSH1 0x4 SWAP1 REVERT JUMPDEST PUSH2 0xFFFF NOT AND PUSH2 0x101 OR DUP4 SSTORE CODESIZE PUSH2 0x19AF JUMP JUMPDEST DUP3 MLOAD PUSH3 0x461BCD PUSH1 0xE5 SHL DUP2 MSTORE PUSH1 0x20 PUSH1 0x4 DUP3 ADD MSTORE PUSH1 0x2E PUSH1 0x24 DUP3 ADD MSTORE PUSH32 0x496E697469616C697A61626C653A20636F6E747261637420697320616C726561 PUSH1 0x44 DUP3 ADD MSTORE PUSH14 0x191E481A5B9A5D1A585B1A5E9959 PUSH1 0x92 SHL PUSH1 0x64 DUP3 ADD MSTORE PUSH1 0x84 SWAP1 REVERT JUMPDEST POP ADDRESS EXTCODESIZE ISZERO DUP1 ISZERO PUSH2 0x199A JUMPI POP PUSH1 0x1 PUSH1 0xFF DUP3 AND EQ PUSH2 0x199A JUMP JUMPDEST POP PUSH1 0x1 PUSH1 0xFF DUP3 AND LT PUSH2 0x1993 JUMP JUMPDEST DUP3 PUSH1 0x60 CALLDATASIZE PUSH1 0x3 NOT ADD SLT PUSH2 0x7E3 JUMPI PUSH1 0x1 PUSH1 0x1 PUSH1 0xA0 SHL SUB SWAP1 PUSH1 0x4 CALLDATALOAD DUP3 DUP2 AND DUP2 SUB PUSH2 0x7E3 JUMPI PUSH1 0x44 CALLDATALOAD SWAP3 DUP4 AND DUP4 SUB PUSH2 0x7E3 JUMPI PUSH1 0x20 SWAP3 PUSH2 0x79C SWAP2 CALLER SWAP1 CALLVALUE SWAP1 PUSH1 0x24 CALLDATALOAD SWAP1 PUSH2 0x502B JUMP JUMPDEST POP POP CALLVALUE PUSH2 0x77D JUMPI DUP2 PUSH1 0x3 NOT CALLDATASIZE ADD SLT PUSH2 0x77D JUMPI PUSH1 0x20 SWAP1 PUSH2 0x1F1E PUSH2 0xC4C PUSH2 0x45CE JUMP JUMPDEST POP SWAP1 MLOAD SWAP1 DUP2 MSTORE RETURN JUMPDEST POP POP CALLVALUE PUSH2 0x77D JUMPI DUP2 PUSH1 0x3 NOT CALLDATASIZE ADD SLT PUSH2 0x77D JUMPI PUSH2 0x158 SLOAD SWAP1 MLOAD PUSH1 0x1 PUSH1 0x1 PUSH1 0xA0 SHL SUB SWAP1 SWAP2 AND DUP2 MSTORE PUSH1 0x20 SWAP1 RETURN JUMPDEST POP POP CALLVALUE PUSH2 0x77D JUMPI DUP2 PUSH1 0x3 NOT CALLDATASIZE ADD SLT PUSH2 0x77D JUMPI PUSH1 0x20 SWAP1 PUSH2 0x25D SLOAD SWAP1 MLOAD SWAP1 DUP2 MSTORE RETURN JUMPDEST POP POP CALLVALUE PUSH2 0x77D JUMPI DUP2 PUSH1 0x3 NOT CALLDATASIZE ADD SLT PUSH2 0x77D JUMPI PUSH1 0x20 SWAP1 PUSH2 0x14A SLOAD SWAP1 MLOAD SWAP1 DUP2 MSTORE RETURN JUMPDEST PUSH1 0x20 DUP4 PUSH2 0x79C PUSH2 0x1FA1 CALLDATASIZE PUSH1 0x4 PUSH2 0x3C08 JUMP JUMPDEST SWAP3 SWAP2 CALLER SWAP3 PUSH2 0x5671 JUMP JUMPDEST PUSH1 0x20 DUP4 PUSH2 0x79C PUSH2 0x1FBB CALLDATASIZE PUSH1 0x4 PUSH2 0x3B5F JUMP JUMPDEST SWAP4 SWAP3 SWAP1 SWAP3 PUSH2 0x5671 JUMP JUMPDEST DUP3 DUP5 CALLVALUE PUSH2 0x7E8 JUMPI PUSH1 0xC0 CALLDATASIZE PUSH1 0x3 NOT ADD SLT PUSH2 0x7E8 JUMPI POP PUSH2 0x1FE0 PUSH2 0x582B JUMP JUMPDEST POP PUSH2 0x14F SLOAD PUSH1 0x1 PUSH1 0x1 PUSH1 0xA0 SHL SUB SWAP1 DUP2 AND CALLER SUB PUSH2 0x1386 JUMPI PUSH2 0xE39 PUSH2 0xE2F SWAP2 PUSH2 0x2008 CALLDATASIZE PUSH1 0x4 PUSH2 0x5CA8 JUMP JUMPDEST SWAP4 PUSH2 0x2011 PUSH2 0x582B JUMP JUMPDEST POP PUSH2 0x201A PUSH2 0x4F4F JUMP JUMPDEST PUSH2 0x2022 PUSH2 0x5F78 JUMP JUMPDEST PUSH2 0x2053 PUSH2 0xDCF DUP3 MLOAD PUSH4 0x7225DA89 PUSH1 0xE1 SHL PUSH1 0x20 DUP3 ADD MSTORE PUSH2 0x2044 PUSH1 0x24 DUP3 ADD DUP10 PUSH2 0x4FE6 JUMP JUMPDEST PUSH1 0xC4 DUP2 MSTORE PUSH2 0xDC4 PUSH1 0xE4 DUP3 PUSH2 0x3BB4 JUMP JUMPDEST SWAP5 DUP9 DUP6 DUP8 SWAP4 SWAP7 SWAP6 SWAP10 SWAP5 SWAP11 ADD SWAP2 DUP3 MLOAD PUSH2 0x206F PUSH2 0x14E SWAP2 DUP3 SLOAD PUSH2 0x439E JUMP JUMPDEST SWAP1 SSTORE PUSH1 0xA0 PUSH2 0x137B DUP12 DUP4 PUSH1 0x60 DUP7 ADD MLOAD AND SWAP6 MLOAD PUSH2 0x439E JUMP JUMPDEST DUP4 CALLVALUE PUSH2 0x7E8 JUMPI PUSH1 0x20 CALLDATASIZE PUSH1 0x3 NOT ADD SLT PUSH2 0x7E8 JUMPI PUSH1 0x4 CALLDATALOAD PUSH1 0x1 PUSH1 0x1 PUSH1 0xA0 SHL SUB DUP2 AND SWAP1 DUP2 SWAP1 SUB PUSH2 0x7E3 JUMPI PUSH2 0x20B4 PUSH2 0x5EEA JUMP JUMPDEST PUSH2 0x153 DUP1 SLOAD PUSH1 0x1 PUSH1 0x1 PUSH1 0xA0 SHL SUB NOT AND SWAP1 SWAP2 OR SWAP1 SSTORE DUP1 RETURN JUMPDEST POP POP CALLVALUE PUSH2 0x77D JUMPI DUP2 PUSH1 0x3 NOT CALLDATASIZE ADD SLT PUSH2 0x77D JUMPI PUSH2 0x20E5 PUSH2 0x5F78 JUMP JUMPDEST PUSH1 0xCA SLOAD PUSH1 0x10 DUP2 SWAP1 SHR PUSH1 0x1 PUSH1 0x1 PUSH1 0xA0 SHL SUB AND CALLER SUB PUSH2 0x214F JUMPI PUSH1 0xFF DUP2 AND ISZERO PUSH2 0x213E JUMPI PUSH2 0xFF00 NOT AND PUSH2 0x100 OR PUSH1 0xCA SSTORE MLOAD CALLER DUP2 MSTORE PUSH32 0x62E78CEA01BEE320CD4E420270B5EA74000D11B0C9F74754EBDBFC544B05A258 SWAP1 PUSH1 0x20 SWAP1 LOG1 DUP1 RETURN JUMPDEST DUP2 MLOAD PUSH4 0x866099C3 PUSH1 0xE0 SHL DUP2 MSTORE PUSH1 0x4 SWAP1 REVERT JUMPDEST DUP2 MLOAD PUSH4 0x1D77D477 PUSH1 0xE2 SHL DUP2 MSTORE PUSH1 0x4 SWAP1 REVERT JUMPDEST POP POP CALLVALUE PUSH2 0x77D JUMPI DUP2 PUSH1 0x3 NOT CALLDATASIZE ADD SLT PUSH2 0x77D JUMPI PUSH1 0x20 SWAP1 PUSH2 0x79C PUSH2 0x1910 PUSH2 0xC4C PUSH2 0x45CE JUMP JUMPDEST POP POP CALLVALUE PUSH2 0x77D JUMPI DUP2 PUSH1 0x3 NOT CALLDATASIZE ADD SLT PUSH2 0x77D JUMPI PUSH1 0x20 SWAP1 PUSH2 0x15A SLOAD SWAP1 MLOAD SWAP1 DUP2 MSTORE RETURN JUMPDEST POP POP CALLVALUE PUSH2 0x77D JUMPI DUP2 PUSH1 0x3 NOT CALLDATASIZE ADD SLT PUSH2 0x77D JUMPI PUSH1 0x20 SWAP1 PUSH2 0x79C PUSH2 0x21C5 PUSH1 0x1 PUSH2 0x4608 JUMP JUMPDEST PUSH2 0xED5 PUSH2 0x21D2 DUP3 DUP5 PUSH2 0x4259 JUMP JUMPDEST SWAP2 DUP4 PUSH2 0x430F JUMP JUMPDEST POP POP CALLVALUE PUSH2 0x77D JUMPI DUP2 PUSH1 0x3 NOT CALLDATASIZE ADD SLT PUSH2 0x77D JUMPI PUSH2 0x1C3 SLOAD SWAP1 MLOAD PUSH1 0x1 PUSH1 0x1 PUSH1 0xA0 SHL SUB SWAP1 SWAP2 AND DUP2 MSTORE PUSH1 0x20 SWAP1 RETURN JUMPDEST POP POP CALLVALUE PUSH2 0x77D JUMPI PUSH1 0x20 CALLDATASIZE PUSH1 0x3 NOT ADD SLT PUSH2 0x77D JUMPI PUSH1 0x4 CALLDATALOAD SWAP2 PUSH2 0x148 SWAP1 DUP2 SLOAD DUP5 LT ISZERO PUSH2 0x7E8 JUMPI POP PUSH1 0x20 SWAP3 PUSH2 0x2234 SWAP2 PUSH2 0x3A63 JUMP JUMPDEST SWAP2 SWAP1 SLOAD SWAP1 MLOAD SWAP2 PUSH1 0x3 SHL SHR DUP2 MSTORE RETURN JUMPDEST DUP4 CALLVALUE PUSH2 0x7E8 JUMPI PUSH1 0x20 CALLDATASIZE PUSH1 0x3 NOT ADD SLT PUSH2 0x7E8 JUMPI PUSH2 0x225C PUSH2 0x5EEA JUMP JUMPDEST PUSH1 0x4 CALLDATALOAD PUSH2 0x149 SSTORE DUP1 RETURN JUMPDEST DUP4 CALLVALUE PUSH2 0x7E8 JUMPI PUSH1 0x20 CALLDATASIZE PUSH1 0x3 NOT ADD SLT PUSH2 0x7E8 JUMPI PUSH2 0x2280 PUSH2 0x5EEA JUMP JUMPDEST PUSH1 0x4 CALLDATALOAD PUSH2 0x140 SSTORE DUP1 RETURN JUMPDEST POP POP CALLVALUE PUSH2 0x77D JUMPI DUP2 PUSH1 0x3 NOT CALLDATASIZE ADD SLT PUSH2 0x77D JUMPI PUSH1 0x20 SWAP1 PUSH2 0x190 SLOAD SWAP1 MLOAD SWAP1 DUP2 MSTORE RETURN JUMPDEST DUP4 CALLVALUE PUSH2 0x7E8 JUMPI PUSH1 0x20 CALLDATASIZE PUSH1 0x3 NOT ADD SLT PUSH2 0x7E8 JUMPI PUSH2 0x22C4 PUSH2 0x5EEA JUMP JUMPDEST PUSH1 0x4 CALLDATALOAD PUSH2 0x141 SSTORE DUP1 RETURN JUMPDEST POP POP CALLVALUE PUSH2 0x77D JUMPI DUP2 PUSH1 0x3 NOT CALLDATASIZE ADD SLT PUSH2 0x77D JUMPI PUSH1 0x20 SWAP1 PUSH2 0x134 SLOAD SWAP1 MLOAD SWAP1 DUP2 MSTORE RETURN JUMPDEST POP POP CALLVALUE PUSH2 0x77D JUMPI DUP2 PUSH1 0x3 NOT CALLDATASIZE ADD SLT PUSH2 0x77D JUMPI PUSH1 0x20 SWAP1 PUSH2 0x142 SLOAD SWAP1 MLOAD SWAP1 DUP2 MSTORE RETURN JUMPDEST PUSH1 0x20 DUP4 PUSH2 0x79C PUSH2 0x231F CALLDATASIZE PUSH1 0x4 PUSH2 0x3C35 JUMP JUMPDEST SWAP3 SWAP1 SWAP2 CALLVALUE SWAP2 PUSH2 0x502B JUMP JUMPDEST DUP4 CALLVALUE PUSH2 0x7E8 JUMPI PUSH1 0x20 CALLDATASIZE PUSH1 0x3 NOT ADD SLT PUSH2 0x7E8 JUMPI PUSH2 0x2343 PUSH2 0x5EEA JUMP JUMPDEST PUSH1 0x4 CALLDATALOAD PUSH2 0x13B SSTORE DUP1 RETURN JUMPDEST PUSH1 0x20 DUP4 PUSH2 0x79C PUSH2 0x235E CALLDATASIZE PUSH1 0x4 PUSH2 0x3B5F JUMP JUMPDEST SWAP4 SWAP2 SWAP1 SWAP3 CALLVALUE SWAP3 PUSH2 0x54A2 JUMP JUMPDEST POP POP CALLVALUE PUSH2 0x77D JUMPI DUP2 PUSH1 0x3 NOT CALLDATASIZE ADD SLT PUSH2 0x77D JUMPI PUSH1 0x20 SWAP1 PUSH2 0x156 SLOAD SWAP1 MLOAD SWAP1 DUP2 MSTORE RETURN JUMPDEST POP POP CALLVALUE PUSH2 0x77D JUMPI DUP2 PUSH1 0x3 NOT CALLDATASIZE ADD SLT PUSH2 0x77D JUMPI PUSH1 0x20 SWAP1 PUSH2 0x139 SLOAD SWAP1 MLOAD SWAP1 DUP2 MSTORE RETURN JUMPDEST DUP4 CALLVALUE PUSH2 0x7E8 JUMPI PUSH1 0x20 CALLDATASIZE PUSH1 0x3 NOT ADD SLT PUSH2 0x7E8 JUMPI PUSH2 0x23C3 PUSH2 0x5EEA JUMP JUMPDEST PUSH1 0x4 CALLDATALOAD PUSH2 0x154 SSTORE DUP1 RETURN JUMPDEST DUP4 CALLVALUE PUSH2 0x7E8 JUMPI PUSH1 0x20 CALLDATASIZE PUSH1 0x3 NOT ADD SLT PUSH2 0x7E8 JUMPI PUSH1 0x4 CALLDATALOAD PUSH1 0x1 PUSH1 0x1 PUSH1 0xA0 SHL SUB DUP2 AND SWAP1 DUP2 SWAP1 SUB PUSH2 0x7E3 JUMPI PUSH2 0x23FC PUSH2 0x5EEA JUMP JUMPDEST PUSH2 0x158 DUP1 SLOAD PUSH1 0x1 PUSH1 0x1 PUSH1 0xA0 SHL SUB NOT AND SWAP1 SWAP2 OR SWAP1 SSTORE DUP1 RETURN JUMPDEST DUP4 CALLVALUE PUSH2 0x7E8 JUMPI PUSH1 0x20 CALLDATASIZE PUSH1 0x3 NOT ADD SLT PUSH2 0x7E8 JUMPI PUSH2 0x242D PUSH2 0x5EEA JUMP JUMPDEST PUSH1 0x4 CALLDATALOAD PUSH2 0x13E SSTORE DUP1 RETURN JUMPDEST POP POP CALLVALUE PUSH2 0x77D JUMPI DUP2 PUSH1 0x3 NOT CALLDATASIZE ADD SLT PUSH2 0x77D JUMPI PUSH1 0x20 SWAP1 PUSH2 0x154 SLOAD SWAP1 MLOAD SWAP1 DUP2 MSTORE RETURN JUMPDEST POP POP CALLVALUE PUSH2 0x77D JUMPI DUP2 PUSH1 0x3 NOT CALLDATASIZE ADD SLT PUSH2 0x77D JUMPI PUSH1 0x20 SWAP1 PUSH2 0x149 SLOAD SWAP1 MLOAD SWAP1 DUP2 MSTORE RETURN JUMPDEST PUSH1 0x20 DUP4 PUSH2 0x79C DUP7 PUSH2 0x2489 CALLDATASIZE PUSH1 0x4 PUSH2 0x3C08 JUMP JUMPDEST SWAP3 SWAP2 CALLVALUE SWAP3 PUSH2 0x54A2 JUMP JUMPDEST PUSH1 0x20 DUP4 PUSH2 0x79C DUP7 PUSH2 0x24A4 CALLDATASIZE PUSH1 0x4 PUSH2 0x3AA5 JUMP JUMPDEST SWAP4 SWAP3 SWAP2 SWAP1 SWAP2 CALLVALUE SWAP4 PUSH2 0x50A4 JUMP JUMPDEST PUSH1 0x20 DUP4 PUSH2 0x79C DUP7 PUSH2 0x24C2 CALLDATASIZE PUSH1 0x4 PUSH2 0x3C08 JUMP JUMPDEST SWAP3 SWAP2 CALLVALUE SWAP3 PUSH2 0x53B4 JUMP JUMPDEST DUP4 CALLVALUE PUSH2 0x7E8 JUMPI DUP1 PUSH1 0x3 NOT CALLDATASIZE ADD SLT PUSH2 0x7E8 JUMPI PUSH2 0x24E4 PUSH2 0x5EEA JUMP JUMPDEST PUSH1 0x1 PUSH1 0xFF NOT PUSH1 0xCA SLOAD AND OR PUSH1 0xCA SSTORE DUP1 RETURN JUMPDEST POP POP CALLVALUE PUSH2 0x77D JUMPI DUP2 PUSH1 0x3 NOT CALLDATASIZE ADD SLT PUSH2 0x77D JUMPI PUSH1 0x20 SWAP1 PUSH2 0x1F1E PUSH2 0x4C57 JUMP JUMPDEST DUP4 CALLVALUE PUSH2 0x7E8 JUMPI PUSH1 0x20 CALLDATASIZE PUSH1 0x3 NOT ADD SLT PUSH2 0x7E8 JUMPI PUSH2 0x252B PUSH2 0x5EEA JUMP JUMPDEST PUSH1 0x4 CALLDATALOAD PUSH2 0x159 SSTORE DUP1 RETURN JUMPDEST POP POP CALLVALUE PUSH2 0x77D JUMPI DUP2 PUSH1 0x3 NOT CALLDATASIZE ADD SLT PUSH2 0x77D JUMPI PUSH2 0x12F SLOAD SWAP1 MLOAD PUSH1 0x1 PUSH1 0x1 PUSH1 0xA0 SHL SUB SWAP1 SWAP2 AND DUP2 MSTORE PUSH1 0x20 SWAP1 RETURN JUMPDEST POP POP CALLVALUE PUSH2 0x77D JUMPI DUP2 PUSH1 0x3 NOT CALLDATASIZE ADD SLT PUSH2 0x77D JUMPI PUSH2 0x133 SLOAD SWAP1 MLOAD PUSH1 0x1 PUSH1 0x1 PUSH1 0xA0 SHL SUB SWAP1 SWAP2 AND DUP2 MSTORE PUSH1 0x20 SWAP1 RETURN JUMPDEST DUP3 DUP5 PUSH1 0xC0 CALLDATASIZE PUSH1 0x3 NOT ADD SLT PUSH2 0x7E8 JUMPI POP PUSH1 0x1 PUSH1 0x1 PUSH1 0xA0 SHL SUB SWAP1 PUSH1 0x4 CALLDATALOAD DUP3 DUP2 AND DUP2 SUB PUSH2 0x7E3 JUMPI PUSH1 0x84 CALLDATALOAD SWAP3 DUP1 DUP5 AND DUP5 SUB PUSH2 0x7E3 JUMPI PUSH1 0xA4 CALLDATALOAD SWAP1 DUP2 AND DUP2 SUB PUSH2 0x7E3 JUMPI PUSH1 0x20 SWAP4 PUSH2 0x79C SWAP3 PUSH1 0x64 CALLDATALOAD SWAP1 PUSH1 0x44 CALLDATALOAD SWAP1 PUSH1 0x24 CALLDATALOAD SWAP1 PUSH2 0x5740 JUMP JUMPDEST DUP4 CALLVALUE PUSH2 0x7E8 JUMPI DUP1 PUSH1 0x3 NOT CALLDATASIZE ADD SLT PUSH2 0x7E8 JUMPI PUSH1 0x2A PUSH2 0x25D SSTORE DUP1 RETURN JUMPDEST POP POP CALLVALUE PUSH2 0x77D JUMPI DUP2 PUSH1 0x3 NOT CALLDATASIZE ADD SLT PUSH2 0x77D JUMPI PUSH1 0x20 SWAP1 PUSH2 0x14E SLOAD SWAP1 MLOAD SWAP1 DUP2 MSTORE RETURN JUMPDEST POP POP CALLVALUE PUSH2 0x77D JUMPI DUP2 PUSH1 0x3 NOT CALLDATASIZE ADD SLT PUSH2 0x77D JUMPI PUSH1 0x20 SWAP1 PUSH1 0xFF PUSH1 0xCA SLOAD PUSH1 0x8 SHR AND SWAP1 MLOAD SWAP1 ISZERO ISZERO DUP2 MSTORE RETURN JUMPDEST POP POP CALLVALUE PUSH2 0x77D JUMPI DUP2 PUSH1 0x3 NOT CALLDATASIZE ADD SLT PUSH2 0x77D JUMPI PUSH2 0x2659 PUSH2 0x5F78 JUMP JUMPDEST PUSH2 0x14D DUP1 SLOAD NUMBER LT PUSH2 0x2829 JUMPI PUSH2 0x14C SLOAD NUMBER ADD SWAP1 SSTORE PUSH32 0xD3C59BDA47E141A8EC5A33D241B7F71B86E30D359F83A9227D912858B60404FC DUP3 DUP1 LOG1 PUSH2 0x137 SLOAD DUP3 PUSH2 0x269E DUP3 PUSH2 0x43C3 JUMP JUMPDEST SWAP2 DUP5 JUMPDEST DUP2 DUP2 LT PUSH2 0x275A JUMPI POP POP DUP1 PUSH2 0x2715 JUMPI JUMPDEST SWAP2 DUP1 MLOAD SWAP3 DUP2 DUP5 ADD SWAP1 DUP5 MSTORE PUSH1 0x20 SWAP2 DUP3 DUP6 ADD MSTORE DUP3 MLOAD DUP1 SWAP2 MSTORE DUP2 PUSH1 0x60 DUP6 ADD SWAP4 ADD SWAP2 DUP6 JUMPDEST DUP3 DUP2 LT PUSH2 0x2701 JUMPI DUP7 PUSH32 0xAE5116A8119D08673A0F1DFA7546B95DA4BD54BB17FEDA7C61130AC7859152F6 DUP8 DUP8 SUB DUP9 LOG1 DUP1 RETURN JUMPDEST DUP4 MLOAD DUP6 MSTORE SWAP4 DUP2 ADD SWAP4 SWAP3 DUP2 ADD SWAP3 PUSH1 0x1 ADD PUSH2 0x26D0 JUMP JUMPDEST PUSH2 0x272C PUSH8 0xDE0B6B3A7640000 SWAP2 PUSH2 0x139 SLOAD SWAP1 PUSH2 0x42DC JUMP JUMPDEST DIV PUSH2 0x131 PUSH2 0x273B DUP3 DUP3 SLOAD PUSH2 0x439E JUMP JUMPDEST SWAP1 SSTORE PUSH2 0x146 SLOAD PUSH2 0x2755 SWAP1 DUP3 SWAP1 PUSH1 0x1 PUSH1 0x1 PUSH1 0xA0 SHL SUB AND PUSH2 0x413C JUMP JUMPDEST PUSH2 0x26B0 JUMP JUMPDEST PUSH2 0x2763 DUP2 PUSH2 0x44EE JUMP JUMPDEST PUSH2 0x276D DUP2 DUP4 PUSH2 0x4968 JUMP JUMPDEST DUP7 PUSH2 0x150 SWAP2 DUP7 PUSH2 0x277D DUP6 DUP6 PUSH2 0x3A63 JUMP JUMPDEST SWAP1 SLOAD SWAP1 PUSH1 0x3 SHL SHR SWAP2 DUP4 DUP4 SGT PUSH2 0x279A JUMPI JUMPDEST POP POP POP POP POP PUSH1 0x1 ADD PUSH2 0x26A1 JUMP JUMPDEST SWAP5 PUSH2 0x27DF DUP4 DUP3 SWAP7 SWAP10 PUSH2 0x27E5 SWAP5 PUSH2 0x27D9 DUP6 PUSH2 0x27CC PUSH2 0x27D2 PUSH2 0x27FC SWAP11 PUSH1 0x1 SWAP15 PUSH8 0xDE0B6B3A7640000 SWAP4 DUP5 SWAP2 PUSH2 0x13A SLOAD PUSH2 0x42DC JUMP JUMPDEST DIV PUSH2 0x42DC JUMP JUMPDEST DIV SWAP3 PUSH2 0x41B7 JUMP JUMPDEST MSTORE PUSH2 0x4194 JUMP JUMPDEST SWAP8 PUSH2 0x3A63 JUMP JUMPDEST DUP2 SWAP4 SWAP2 SLOAD SWAP1 PUSH1 0x3 SHL SWAP2 DUP3 SHL SWAP2 PUSH1 0x0 NOT SWAP1 SHL NOT AND OR SWAP1 JUMP JUMPDEST SWAP1 SSTORE PUSH2 0x281F PUSH2 0x280B DUP3 DUP8 PUSH2 0x41B7 JUMP JUMPDEST MLOAD DUP9 DUP5 DUP1 PUSH1 0xA0 SHL SUB PUSH2 0x147 SLOAD AND SWAP2 DUP5 PUSH2 0x48A8 JUMP JUMPDEST SWAP1 DUP7 CODESIZE DUP7 DUP2 PUSH2 0x278D JUMP JUMPDEST DUP2 MLOAD PUSH4 0x101B6859 PUSH1 0xE0 SHL DUP2 MSTORE PUSH1 0x4 SWAP1 REVERT JUMPDEST POP POP CALLVALUE PUSH2 0x77D JUMPI DUP1 PUSH1 0x3 NOT CALLDATASIZE ADD SLT PUSH2 0x77D JUMPI PUSH1 0x1 PUSH1 0x1 PUSH1 0xA0 SHL SUB SWAP1 PUSH1 0x4 CALLDATALOAD DUP3 DUP2 AND DUP2 SUB PUSH2 0x7E3 JUMPI PUSH1 0x24 CALLDATALOAD SWAP2 DUP4 PUSH2 0x14F SLOAD AND CALLER SUB PUSH2 0xE3D JUMPI POP DUP4 DUP1 DUP1 DUP5 DUP2 SWAP5 PUSH2 0x14E DUP3 DUP2 SLOAD SUB SWAP1 SSTORE PUSH2 0x229 SLOAD CALL PUSH2 0x288E PUSH2 0x4038 JUMP JUMPDEST POP ISZERO PUSH2 0x2898 JUMPI DUP3 DUP1 RETURN JUMPDEST PUSH2 0x28A6 SWAP2 PUSH2 0x22A SLOAD AND PUSH2 0x413C JUMP JUMPDEST CODESIZE DUP1 DUP3 DUP1 RETURN JUMPDEST POP POP CALLVALUE PUSH2 0x77D JUMPI DUP2 PUSH1 0x3 NOT CALLDATASIZE ADD SLT PUSH2 0x77D JUMPI PUSH1 0x20 SWAP1 PUSH2 0x157 SLOAD SWAP1 MLOAD SWAP1 DUP2 MSTORE RETURN JUMPDEST POP POP CALLVALUE PUSH2 0x77D JUMPI DUP2 PUSH1 0x3 NOT CALLDATASIZE ADD SLT PUSH2 0x77D JUMPI PUSH1 0x20 SWAP1 PUSH2 0x79C PUSH2 0x25D SLOAD PUSH8 0xDE0B6B3A7640000 PUSH2 0x149 SLOAD DIV SWAP1 PUSH2 0x4194 JUMP JUMPDEST DUP4 CALLVALUE PUSH2 0x7E8 JUMPI PUSH1 0x20 CALLDATASIZE PUSH1 0x3 NOT ADD SLT PUSH2 0x7E8 JUMPI PUSH2 0x2916 PUSH2 0x5EEA JUMP JUMPDEST PUSH1 0x4 CALLDATALOAD PUSH2 0x143 SSTORE DUP1 RETURN JUMPDEST DUP3 DUP5 CALLVALUE PUSH2 0x7E8 JUMPI DUP2 PUSH1 0x3 NOT CALLDATASIZE ADD SLT PUSH2 0x7E8 JUMPI PUSH1 0x1 PUSH1 0x1 PUSH1 0xA0 SHL SUB PUSH1 0x4 CALLDATALOAD DUP2 DUP2 AND DUP2 SUB PUSH2 0x7E3 JUMPI DUP2 PUSH2 0x14F SLOAD AND CALLER SUB PUSH2 0xC18 JUMPI SWAP1 PUSH2 0xC15 SWAP2 PUSH1 0x24 CALLDATALOAD SWAP2 PUSH2 0x133 SLOAD AND PUSH2 0x5EB1 JUMP JUMPDEST DUP4 CALLVALUE PUSH2 0x7E8 JUMPI PUSH1 0x20 CALLDATASIZE PUSH1 0x3 NOT ADD SLT PUSH2 0x7E8 JUMPI PUSH1 0x4 CALLDATALOAD PUSH1 0x1 PUSH1 0x1 PUSH1 0xA0 SHL SUB DUP2 AND DUP2 SUB PUSH2 0x7E3 JUMPI PUSH2 0xC15 SWAP1 PUSH2 0x1D78 PUSH2 0x5EEA JUMP JUMPDEST PUSH1 0x20 DUP4 PUSH2 0x79C DUP7 PUSH2 0x29A8 CALLDATASIZE PUSH1 0x4 PUSH2 0x3C08 JUMP JUMPDEST SWAP3 SWAP2 SWAP1 SWAP2 PUSH2 0x5671 JUMP JUMPDEST DUP3 DUP5 CALLVALUE PUSH2 0x7E8 JUMPI DUP1 PUSH1 0x3 NOT CALLDATASIZE ADD SLT PUSH2 0x7E8 JUMPI POP PUSH32 0x0 PUSH1 0x1 PUSH1 0x1 PUSH1 0xA0 SHL SUB AND ADDRESS SUB PUSH2 0x2A1D JUMPI PUSH1 0x20 SWAP1 MLOAD PUSH32 0x360894A13BA1A3210667C828492DB98DCA3E2076CC3735A920A3CA505D382BBC DUP2 MSTORE RETURN JUMPDEST MLOAD PUSH3 0x461BCD PUSH1 0xE5 SHL DUP2 MSTORE PUSH1 0x20 PUSH1 0x4 DUP3 ADD MSTORE PUSH1 0x38 PUSH1 0x24 DUP3 ADD MSTORE PUSH32 0x555550535570677261646561626C653A206D757374206E6F742062652063616C PUSH1 0x44 DUP3 ADD MSTORE PUSH32 0x6C6564207468726F7567682064656C656761746563616C6C0000000000000000 PUSH1 0x64 DUP3 ADD MSTORE PUSH1 0x84 SWAP1 REVERT JUMPDEST DUP4 CALLVALUE PUSH2 0x7E8 JUMPI DUP1 PUSH1 0x3 NOT CALLDATASIZE ADD SLT PUSH2 0x7E8 JUMPI PUSH2 0x2A9F PUSH2 0x5EEA JUMP JUMPDEST PUSH1 0xFF NOT PUSH1 0xCA SLOAD AND PUSH1 0xCA SSTORE DUP1 RETURN JUMPDEST POP POP PUSH1 0x60 CALLDATASIZE PUSH1 0x3 NOT ADD SLT PUSH2 0x7E3 JUMPI PUSH1 0x1 PUSH1 0x1 PUSH1 0xA0 SHL SUB SWAP2 PUSH1 0x4 CALLDATALOAD SWAP1 DUP4 DUP3 AND DUP3 SUB PUSH2 0x7E3 JUMPI PUSH1 0x44 CALLDATALOAD SWAP4 DUP5 AND DUP5 SUB PUSH2 0x7E3 JUMPI PUSH1 0x20 SWAP4 PUSH2 0x79C SWAP3 CALLVALUE SWAP1 PUSH1 0x24 CALLDATALOAD SWAP1 PUSH2 0x4F71 JUMP JUMPDEST POP POP DUP1 PUSH1 0x3 NOT CALLDATASIZE ADD SLT PUSH2 0x77D JUMPI PUSH1 0x4 CALLDATALOAD SWAP1 PUSH1 0x1 PUSH1 0x1 PUSH1 0xA0 SHL SUB SWAP1 DUP2 DUP4 AND DUP4 SUB PUSH2 0x7E3 JUMPI DUP4 SWAP3 PUSH1 0x24 CALLDATALOAD SWAP3 PUSH8 0xFFFFFFFFFFFFFFFF DUP5 GT PUSH2 0x2BDE JUMPI CALLDATASIZE PUSH1 0x23 DUP6 ADD SLT ISZERO PUSH2 0x2BDE JUMPI DUP4 PUSH1 0x4 ADD CALLDATALOAD SWAP1 PUSH2 0x2B4C PUSH2 0x2B43 DUP4 PUSH2 0x3BEC JUMP JUMPDEST SWAP5 MLOAD SWAP5 DUP6 PUSH2 0x3BB4 JUMP JUMPDEST DUP2 DUP5 MSTORE CALLDATASIZE PUSH1 0x24 DUP4 DUP8 ADD ADD GT PUSH2 0x2BDA JUMPI PUSH2 0xC15 SWAP6 PUSH1 0x20 DUP4 PUSH2 0x2BCD SWAP5 PUSH1 0x24 PUSH1 0x1 SWAP10 ADD DUP4 DUP10 ADD CALLDATACOPY DUP7 ADD ADD MSTORE DUP1 PUSH32 0x0 AND SWAP1 PUSH2 0x2BA4 DUP3 ADDRESS EQ ISZERO PUSH2 0x3C94 JUMP JUMPDEST PUSH32 0x360894A13BA1A3210667C828492DB98DCA3E2076CC3735A920A3CA505D382BBC SLOAD AND EQ PUSH2 0x3CF5 JUMP JUMPDEST PUSH2 0x2BD5 PUSH2 0x5EEA JUMP JUMPDEST PUSH2 0x3D56 JUMP JUMPDEST DUP6 DUP1 REVERT JUMPDEST DUP5 DUP1 REVERT JUMPDEST POP POP CALLVALUE PUSH2 0x77D JUMPI DUP2 PUSH1 0x3 NOT CALLDATASIZE ADD SLT PUSH2 0x77D JUMPI PUSH1 0x20 SWAP1 PUSH2 0x13B SLOAD SWAP1 MLOAD SWAP1 DUP2 MSTORE RETURN JUMPDEST POP POP CALLVALUE PUSH2 0x77D JUMPI DUP2 PUSH1 0x3 NOT CALLDATASIZE ADD SLT PUSH2 0x77D JUMPI PUSH2 0x147 SLOAD SWAP1 MLOAD PUSH1 0x1 PUSH1 0x1 PUSH1 0xA0 SHL SUB SWAP1 SWAP2 AND DUP2 MSTORE PUSH1 0x20 SWAP1 RETURN JUMPDEST POP POP CALLVALUE PUSH2 0x77D JUMPI DUP2 PUSH1 0x3 NOT CALLDATASIZE ADD SLT PUSH2 0x77D JUMPI PUSH1 0x20 SWAP1 PUSH2 0x14C SLOAD SWAP1 MLOAD SWAP1 DUP2 MSTORE RETURN JUMPDEST POP POP DUP1 PUSH1 0x3 NOT CALLDATASIZE ADD SLT PUSH2 0x77D JUMPI PUSH1 0x4 CALLDATALOAD PUSH1 0x1 PUSH1 0x1 PUSH1 0xA0 SHL SUB DUP2 AND DUP2 SUB PUSH2 0x7E3 JUMPI PUSH1 0x20 SWAP3 PUSH2 0x79C SWAP2 CALLER SWAP1 CALLVALUE SWAP1 PUSH1 0x24 CALLDATALOAD SWAP1 PUSH2 0x502B JUMP JUMPDEST POP POP CALLVALUE PUSH2 0x77D JUMPI PUSH1 0x20 CALLDATASIZE PUSH1 0x3 NOT ADD SLT PUSH2 0x77D JUMPI PUSH1 0x4 CALLDATALOAD PUSH2 0x137 DUP1 SLOAD DUP3 LT ISZERO PUSH2 0xB06 JUMPI SWAP1 PUSH2 0x2CAC SWAP2 PUSH2 0x3B98 JUMP JUMPDEST POP DUP1 SLOAD PUSH1 0x1 SWAP1 SWAP2 ADD SLOAD DUP3 MLOAD SWAP2 DUP3 MSTORE PUSH1 0x1 PUSH1 0x1 PUSH1 0xA0 SHL SUB AND PUSH1 0x20 DUP3 ADD MSTORE RETURN JUMPDEST DUP4 SWAP2 POP CALLVALUE PUSH2 0x77D JUMPI CALLDATASIZE PUSH1 0x3 NOT ADD SLT PUSH2 0x7E8 JUMPI POP PUSH2 0x2CE5 PUSH2 0x582B JUMP JUMPDEST POP PUSH2 0x14F SLOAD PUSH1 0x1 PUSH1 0x1 PUSH1 0xA0 SHL SUB SWAP1 DUP2 AND CALLER SUB PUSH2 0x1386 JUMPI PUSH2 0xE39 PUSH2 0xE2F SWAP2 PUSH2 0x2D0D CALLDATASIZE PUSH1 0x4 PUSH2 0x5E3E JUMP JUMPDEST SWAP4 PUSH2 0x2D16 PUSH2 0x582B JUMP JUMPDEST POP PUSH2 0x2D1F PUSH2 0x4F4F JUMP JUMPDEST PUSH2 0x2D27 PUSH2 0x5F78 JUMP JUMPDEST PUSH2 0x1348 PUSH2 0xDCF DUP3 MLOAD PUSH4 0xD9B6C2E5 PUSH1 0xE0 SHL PUSH1 0x20 DUP3 ADD MSTORE PUSH2 0xDB4 PUSH1 0x24 DUP3 ADD DUP10 PUSH2 0x5452 JUMP JUMPDEST PUSH1 0x20 DUP4 PUSH2 0x79C PUSH2 0x2D5A CALLDATASIZE PUSH1 0x4 PUSH2 0x3B5F JUMP JUMPDEST SWAP4 SWAP2 SWAP1 SWAP3 CALLVALUE SWAP3 PUSH2 0x53B4 JUMP JUMPDEST DUP3 PUSH1 0x60 CALLDATASIZE PUSH1 0x3 NOT ADD SLT PUSH2 0x7E3 JUMPI PUSH1 0x44 CALLDATALOAD SWAP1 PUSH1 0x1 PUSH1 0x1 PUSH1 0xA0 SHL SUB DUP3 AND DUP3 SUB PUSH2 0x7E3 JUMPI PUSH2 0x79C PUSH1 0x20 SWAP3 CALLER PUSH1 0x24 CALLDATALOAD PUSH1 0x4 CALLDATALOAD PUSH2 0x557E JUMP JUMPDEST POP POP PUSH1 0x60 CALLDATASIZE PUSH1 0x3 NOT ADD SLT PUSH2 0x7E3 JUMPI PUSH1 0x4 CALLDATALOAD PUSH1 0x1 PUSH1 0x1 PUSH1 0xA0 SHL SUB DUP2 AND DUP2 SUB PUSH2 0x7E3 JUMPI PUSH1 0x20 SWAP3 PUSH2 0x79C SWAP2 CALLER SWAP1 PUSH1 0x44 CALLDATALOAD SWAP1 PUSH1 0x24 CALLDATALOAD SWAP1 PUSH2 0x5671 JUMP JUMPDEST POP POP CALLVALUE PUSH2 0x77D JUMPI DUP2 PUSH1 0x3 NOT CALLDATASIZE ADD SLT PUSH2 0x77D JUMPI PUSH1 0x20 SWAP1 PUSH2 0x13E SLOAD SWAP1 MLOAD SWAP1 DUP2 MSTORE RETURN JUMPDEST POP POP CALLVALUE PUSH2 0x77D JUMPI DUP2 PUSH1 0x3 NOT CALLDATASIZE ADD SLT PUSH2 0x77D JUMPI PUSH1 0x20 SWAP1 PUSH2 0x79C PUSH2 0x2E1A PUSH2 0x2E12 PUSH2 0x4C57 JUMP JUMPDEST SWAP2 SWAP1 SWAP2 PUSH2 0x41CB JUMP JUMPDEST SWAP2 PUSH2 0x4A52 JUMP JUMPDEST POP POP CALLVALUE PUSH2 0x77D JUMPI DUP2 PUSH1 0x3 NOT CALLDATASIZE ADD SLT PUSH2 0x77D JUMPI PUSH1 0xCA SLOAD PUSH1 0xFF DUP2 PUSH1 0x8 SHR AND ISZERO PUSH2 0x2E8A JUMPI PUSH1 0x10 DUP2 SWAP1 SHR PUSH1 0x1 PUSH1 0x1 PUSH1 0xA0 SHL SUB AND CALLER SUB PUSH2 0x214F JUMPI PUSH2 0xFF00 NOT AND PUSH1 0xCA SSTORE MLOAD CALLER DUP2 MSTORE PUSH32 0x5DB9EE0A495BF2E6FF9C91A7834C1BA4FDD244A5E8AA4E537BD38AEAE4B073AA SWAP1 PUSH1 0x20 SWAP1 LOG1 DUP1 RETURN JUMPDEST DUP2 MLOAD PUSH4 0x7C7FD079 PUSH1 0xE0 SHL DUP2 MSTORE PUSH1 0x4 SWAP1 REVERT JUMPDEST DUP3 DUP5 PUSH1 0x80 CALLDATASIZE PUSH1 0x3 NOT ADD SLT PUSH2 0x7E8 JUMPI POP PUSH1 0x1 PUSH1 0x1 PUSH1 0xA0 SHL SUB SWAP1 PUSH1 0x44 CALLDATALOAD DUP3 DUP2 AND DUP2 SUB PUSH2 0x7E3 JUMPI PUSH1 0x64 CALLDATALOAD SWAP3 DUP4 AND DUP4 SUB PUSH2 0x7E3 JUMPI PUSH1 0x20 SWAP3 PUSH2 0x79C SWAP2 PUSH1 0x24 CALLDATALOAD PUSH1 0x4 CALLDATALOAD PUSH2 0x557E JUMP JUMPDEST DUP4 CALLVALUE PUSH2 0x7E8 JUMPI PUSH1 0x20 CALLDATASIZE PUSH1 0x3 NOT ADD SLT PUSH2 0x7E8 JUMPI PUSH1 0x4 CALLDATALOAD PUSH1 0x1 PUSH1 0x1 PUSH1 0xA0 SHL SUB DUP2 AND SWAP1 DUP2 SWAP1 SUB PUSH2 0x7E3 JUMPI PUSH2 0x2F0C PUSH2 0x5EEA JUMP JUMPDEST PUSH2 0x14F DUP1 SLOAD PUSH1 0x1 PUSH1 0x1 PUSH1 0xA0 SHL SUB NOT AND SWAP1 SWAP2 OR SWAP1 SSTORE DUP1 RETURN JUMPDEST DUP4 CALLVALUE PUSH2 0x7E8 JUMPI PUSH1 0x20 CALLDATASIZE PUSH1 0x3 NOT ADD SLT PUSH2 0x7E8 JUMPI PUSH2 0x2F3D PUSH2 0x5EEA JUMP JUMPDEST PUSH1 0x4 CALLDATALOAD PUSH2 0x190 SSTORE DUP1 RETURN JUMPDEST DUP3 PUSH1 0x60 CALLDATASIZE PUSH1 0x3 NOT ADD SLT PUSH2 0x7E3 JUMPI PUSH1 0x1 PUSH1 0x1 PUSH1 0xA0 SHL SUB SWAP1 PUSH1 0x4 CALLDATALOAD DUP3 DUP2 AND DUP2 SUB PUSH2 0x7E3 JUMPI PUSH1 0x44 CALLDATALOAD SWAP3 DUP4 AND DUP4 SUB PUSH2 0x7E3 JUMPI PUSH1 0x20 SWAP3 PUSH2 0x79C SWAP2 CALLER SWAP1 CALLVALUE SWAP1 PUSH1 0x24 CALLDATALOAD SWAP1 PUSH2 0x4F71 JUMP JUMPDEST DUP4 DUP4 CALLVALUE PUSH2 0x77D JUMPI PUSH2 0x100 SWAP2 DUP3 PUSH1 0x3 NOT CALLDATASIZE ADD SLT PUSH2 0x7E8 JUMPI POP PUSH2 0x2FA8 PUSH2 0x582B JUMP JUMPDEST POP PUSH2 0x14F SLOAD PUSH1 0x1 PUSH1 0x1 PUSH1 0xA0 SHL SUB SWAP3 SWAP1 DUP4 AND CALLER SUB PUSH2 0x1386 JUMPI PUSH2 0x2FCB DUP3 MLOAD SWAP2 DUP3 PUSH2 0x3BB4 JUMP JUMPDEST PUSH1 0x4 CALLDATALOAD DUP4 DUP2 AND DUP2 SUB PUSH2 0x7E3 JUMPI DUP2 MSTORE PUSH1 0x24 CALLDATALOAD DUP4 DUP2 AND DUP2 SUB PUSH2 0x7E3 JUMPI PUSH1 0x20 DUP3 ADD MSTORE PUSH1 0x44 CALLDATALOAD DUP3 DUP3 ADD MSTORE PUSH1 0x64 CALLDATALOAD PUSH1 0x60 DUP3 ADD MSTORE PUSH1 0x80 DUP2 ADD SWAP2 PUSH1 0x84 CALLDATALOAD DUP4 MSTORE PUSH1 0xA4 CALLDATALOAD SWAP1 DUP5 DUP3 AND DUP3 SUB PUSH2 0x7E3 JUMPI PUSH1 0xA0 DUP4 ADD SWAP2 DUP3 MSTORE PUSH1 0xC4 CALLDATALOAD DUP6 DUP2 AND DUP2 SUB PUSH2 0x7E3 JUMPI PUSH1 0xC0 DUP5 ADD MSTORE PUSH1 0xE4 CALLDATALOAD SWAP3 DUP6 DUP5 AND DUP5 SUB PUSH2 0x7E3 JUMPI DUP6 PUSH2 0xE39 SWAP6 PUSH2 0x3087 PUSH2 0xDCF PUSH2 0x9AF PUSH2 0xDC4 DUP7 PUSH2 0x156E SWAP14 PUSH2 0xE2F SWAP9 ADD SWAP11 DUP12 MSTORE PUSH2 0x305B PUSH2 0x582B JUMP JUMPDEST POP PUSH2 0x3064 PUSH2 0x4F4F JUMP JUMPDEST PUSH2 0x306C PUSH2 0x5F78 JUMP JUMPDEST DUP9 MLOAD PUSH4 0x70F090ED PUSH1 0xE1 SHL PUSH1 0x20 DUP3 ADD MSTORE SWAP3 DUP4 SWAP2 PUSH1 0x24 DUP4 ADD PUSH2 0x5191 JUMP JUMPDEST SWAP9 SWAP3 DUP1 SWAP12 DUP11 SWAP7 SWAP4 SWAP14 SWAP3 SWAP10 DUP7 MLOAD PUSH2 0x1563 PUSH2 0x14E SWAP2 DUP3 SLOAD PUSH2 0x439E JUMP JUMPDEST POP POP CALLVALUE PUSH2 0x77D JUMPI PUSH1 0x20 CALLDATASIZE PUSH1 0x3 NOT ADD SLT PUSH2 0x77D JUMPI PUSH1 0x4 CALLDATALOAD SWAP2 PUSH2 0x138 SWAP1 DUP2 SLOAD DUP5 LT ISZERO PUSH2 0x7E8 JUMPI POP PUSH1 0x20 SWAP3 PUSH2 0x2234 SWAP2 PUSH2 0x3A63 JUMP JUMPDEST POP POP CALLVALUE PUSH2 0x77D JUMPI PUSH1 0x20 CALLDATASIZE PUSH1 0x3 NOT ADD SLT PUSH2 0x77D JUMPI PUSH1 0x4 CALLDATALOAD SWAP1 PUSH1 0x1 PUSH1 0x1 PUSH1 0xA0 SHL SUB SWAP1 DUP2 DUP4 AND DUP4 SUB PUSH2 0x7E3 JUMPI PUSH2 0xC15 SWAP3 PUSH2 0x3134 DUP4 DUP7 SWAP5 PUSH32 0x0 AND SWAP1 PUSH2 0x2BA4 DUP3 ADDRESS EQ ISZERO PUSH2 0x3C94 JUMP JUMPDEST PUSH2 0x313C PUSH2 0x5EEA JUMP JUMPDEST PUSH2 0x3151 PUSH2 0x3148 DUP5 PUSH2 0x3BEC JUMP JUMPDEST SWAP3 MLOAD SWAP3 DUP4 PUSH2 0x3BB4 JUMP JUMPDEST DUP3 DUP3 MSTORE PUSH1 0x1F NOT PUSH2 0x3160 DUP5 PUSH2 0x3BEC JUMP JUMPDEST ADD CALLDATASIZE PUSH1 0x20 DUP5 ADD CALLDATACOPY PUSH2 0x3D56 JUMP JUMPDEST POP POP PUSH1 0x80 CALLDATASIZE PUSH1 0x3 NOT ADD SLT PUSH2 0x77D JUMPI PUSH1 0x4 CALLDATALOAD PUSH1 0x1 PUSH1 0x1 PUSH1 0xA0 SHL SUB DUP2 AND DUP2 SUB PUSH2 0x7E3 JUMPI PUSH1 0x20 SWAP3 PUSH2 0x79C SWAP2 CALLER SWAP1 PUSH1 0x64 CALLDATALOAD SWAP1 PUSH1 0x44 CALLDATALOAD SWAP1 PUSH1 0x24 CALLDATALOAD SWAP1 PUSH2 0x5740 JUMP JUMPDEST POP POP CALLVALUE PUSH2 0x77D JUMPI DUP2 PUSH1 0x3 NOT CALLDATASIZE ADD SLT PUSH2 0x77D JUMPI PUSH2 0x31C1 PUSH2 0x5F78 JUMP JUMPDEST PUSH2 0x14B DUP1 SLOAD PUSH1 0xFF DUP2 AND DUP1 PUSH2 0x328C JUMPI JUMPDEST DUP1 PUSH2 0x3272 JUMPI JUMPDEST PUSH2 0x31DE JUMPI DUP4 DUP1 RETURN JUMPDEST PUSH2 0xFF00 NOT AND PUSH2 0x100 OR SWAP1 SSTORE DUP1 MLOAD SWAP1 DUP3 SWAP1 PUSH32 0x8B77276C97A5709F0D6DB52329848A254EB760CE8BE80D281799F633BDB69E83 DUP3 DUP1 LOG1 PUSH2 0x133 SLOAD PUSH1 0x1 PUSH1 0x1 PUSH1 0xA0 SHL SUB AND DUP1 EXTCODESIZE ISZERO PUSH2 0x9D3 JUMPI DUP4 PUSH1 0x4 DUP2 DUP6 DUP1 SWAP5 PUSH4 0x8456CB59 PUSH1 0xE0 SHL DUP4 MSTORE GAS CALL SWAP1 DUP2 ISZERO PUSH2 0x3267 JUMPI POP PUSH2 0x3257 JUMPI JUMPDEST POP POP PUSH2 0x3250 PUSH2 0x43F5 JUMP JUMPDEST CODESIZE DUP1 DUP1 DUP4 DUP1 RETURN JUMPDEST PUSH2 0x3260 SWAP2 PUSH2 0x3BB4 JUMP JUMPDEST CODESIZE DUP2 PUSH2 0x3246 JUMP JUMPDEST MLOAD SWAP2 RETURNDATASIZE SWAP2 POP DUP3 RETURNDATACOPY RETURNDATASIZE SWAP1 REVERT JUMPDEST POP PUSH2 0x3281 PUSH2 0x1910 PUSH2 0xC4C PUSH2 0x45CE JUMP JUMPDEST PUSH2 0x14A SLOAD LT ISZERO PUSH2 0x31D6 JUMP JUMPDEST POP PUSH1 0xFF DUP2 PUSH1 0x8 SHR AND ISZERO PUSH2 0x31D0 JUMP JUMPDEST POP POP CALLVALUE PUSH2 0x77D JUMPI DUP2 PUSH1 0x3 NOT CALLDATASIZE ADD SLT PUSH2 0x77D JUMPI PUSH1 0x20 SWAP1 PUSH2 0x13F SLOAD SWAP1 MLOAD SWAP1 DUP2 MSTORE RETURN JUMPDEST POP POP PUSH1 0x20 CALLDATASIZE PUSH1 0x3 NOT ADD SLT PUSH2 0x77D JUMPI PUSH2 0x79C PUSH1 0x20 SWAP3 CALLER CALLVALUE PUSH1 0x4 CALLDATALOAD PUSH2 0x4DAE JUMP JUMPDEST POP POP CALLVALUE PUSH2 0x77D JUMPI DUP2 PUSH1 0x3 NOT CALLDATASIZE ADD SLT PUSH2 0x77D JUMPI PUSH1 0x20 SWAP1 PUSH2 0x143 SLOAD SWAP1 MLOAD SWAP1 DUP2 MSTORE RETURN JUMPDEST DUP4 CALLVALUE PUSH2 0x7E8 JUMPI PUSH1 0x20 CALLDATASIZE PUSH1 0x3 NOT ADD SLT PUSH2 0x7E8 JUMPI PUSH1 0x4 CALLDATALOAD PUSH1 0x1 PUSH1 0x1 PUSH1 0xA0 SHL SUB DUP2 AND DUP2 SUB PUSH2 0x77D JUMPI PUSH2 0x3325 PUSH2 0x5EEA JUMP JUMPDEST PUSH1 0xCA DUP1 SLOAD PUSH3 0x10000 PUSH1 0x1 PUSH1 0xB0 SHL SUB NOT AND PUSH1 0x10 SWAP3 SWAP1 SWAP3 SHL PUSH3 0x10000 PUSH1 0x1 PUSH1 0xB0 SHL SUB AND SWAP2 SWAP1 SWAP2 OR SWAP1 SSTORE DUP1 RETURN JUMPDEST DUP4 CALLVALUE PUSH2 0x7E8 JUMPI PUSH1 0x20 CALLDATASIZE PUSH1 0x3 NOT ADD SLT PUSH2 0x7E8 JUMPI PUSH2 0x3369 PUSH2 0x5EEA JUMP JUMPDEST PUSH1 0x4 CALLDATALOAD PUSH2 0x14A SSTORE DUP1 RETURN JUMPDEST POP POP CALLVALUE PUSH2 0x77D JUMPI DUP2 PUSH1 0x3 NOT CALLDATASIZE ADD SLT PUSH2 0x77D JUMPI PUSH1 0x20 SWAP1 PUSH2 0x140 SLOAD SWAP1 MLOAD SWAP1 DUP2 MSTORE RETURN JUMPDEST DUP4 CALLVALUE PUSH2 0x7E8 JUMPI PUSH1 0x20 CALLDATASIZE PUSH1 0x3 NOT ADD SLT PUSH2 0x7E8 JUMPI PUSH1 0x4 CALLDATALOAD PUSH1 0x1 PUSH1 0x1 PUSH1 0xA0 SHL SUB DUP2 AND SWAP1 DUP2 SWAP1 SUB PUSH2 0x77D JUMPI PUSH2 0x33C2 PUSH2 0x5EEA JUMP JUMPDEST PUSH2 0x147 DUP1 SLOAD PUSH1 0x1 PUSH1 0x1 PUSH1 0xA0 SHL SUB NOT AND SWAP1 SWAP2 OR SWAP1 SSTORE DUP1 RETURN JUMPDEST POP POP CALLVALUE PUSH2 0x77D JUMPI PUSH1 0x20 CALLDATASIZE PUSH1 0x3 NOT ADD SLT PUSH2 0x77D JUMPI PUSH1 0x4 CALLDATALOAD PUSH1 0x1 PUSH1 0x1 PUSH1 0xA0 SHL SUB DUP2 AND SWAP1 DUP2 SWAP1 SUB PUSH2 0x9D3 JUMPI DUP3 DUP3 SWAP2 PUSH1 0x20 SWAP5 MSTORE PUSH2 0x144 DUP5 MSTORE KECCAK256 SLOAD SWAP1 MLOAD SWAP1 DUP2 MSTORE RETURN JUMPDEST POP POP DUP1 PUSH1 0x3 NOT CALLDATASIZE ADD SLT PUSH2 0x77D JUMPI PUSH1 0x4 CALLDATALOAD PUSH1 0x1 PUSH1 0x1 PUSH1 0xA0 SHL SUB DUP2 AND DUP2 SUB PUSH2 0x9D3 JUMPI PUSH1 0x20 SWAP3 PUSH2 0x79C SWAP2 CALLER SWAP1 CALLVALUE SWAP1 PUSH1 0x24 CALLDATALOAD SWAP1 PUSH2 0x4F71 JUMP JUMPDEST POP POP CALLVALUE PUSH2 0x77D JUMPI DUP2 PUSH1 0x3 NOT CALLDATASIZE ADD SLT PUSH2 0x77D JUMPI PUSH1 0x20 SWAP1 PUSH1 0xFF PUSH2 0x14B SLOAD PUSH1 0x8 SHR AND SWAP1 MLOAD SWAP1 ISZERO ISZERO DUP2 MSTORE RETURN JUMPDEST POP POP CALLVALUE PUSH2 0x77D JUMPI PUSH1 0xA0 CALLDATASIZE PUSH1 0x3 NOT ADD SLT PUSH2 0x77D JUMPI PUSH2 0x348D PUSH2 0x582B JUMP JUMPDEST POP PUSH2 0x14F SLOAD PUSH1 0x1 PUSH1 0x1 PUSH1 0xA0 SHL SUB SWAP3 SWAP1 DUP4 AND CALLER SUB PUSH2 0x1386 JUMPI SWAP1 PUSH2 0x351E SWAP2 PUSH2 0x34B4 CALLDATASIZE PUSH1 0x4 PUSH2 0x5852 JUMP JUMPDEST SWAP2 PUSH2 0x34BD PUSH2 0x582B JUMP JUMPDEST POP PUSH2 0x34C6 PUSH2 0x4F4F JUMP JUMPDEST PUSH2 0x34CE PUSH2 0x5F78 JUMP JUMPDEST PUSH8 0xDE0B6B3A7640000 PUSH2 0x34F1 PUSH2 0x1130 PUSH2 0x34E8 PUSH2 0x16BA PUSH2 0x45CE JUMP JUMPDEST DUP8 MLOAD SWAP3 SWAP2 PUSH2 0x4A1E JUMP JUMPDEST DIV SWAP5 DUP2 DUP5 ADD SWAP1 DUP1 DUP3 MLOAD AND SWAP2 PUSH2 0x3513 PUSH1 0x80 DUP8 ADD SWAP4 DUP10 DUP5 DUP7 MLOAD AND PUSH2 0x13C SLOAD SWAP3 PUSH2 0x58F2 JUMP JUMPDEST SWAP7 SWAP2 DUP11 SWAP10 SWAP2 SWAP10 PUSH2 0x4194 JUMP JUMPDEST SWAP7 PUSH1 0x20 DUP2 ADD SWAP10 DUP11 MLOAD DUP1 DUP11 GT PUSH2 0x3647 JUMPI POP DUP9 ISZERO PUSH2 0x3636 JUMPI DUP2 PUSH1 0x20 SWAP2 DUP7 PUSH1 0x60 PUSH2 0x35A1 SWAP7 SWAP6 MLOAD SWAP4 ADD MLOAD AND SWAP1 PUSH2 0x134 PUSH2 0x3554 DUP5 DUP3 SLOAD PUSH2 0x4194 JUMP JUMPDEST SWAP1 SSTORE PUSH2 0x3564 PUSH2 0x131 SWAP2 DUP3 SLOAD PUSH2 0x4194 JUMP JUMPDEST SWAP1 SSTORE PUSH2 0x133 SLOAD DUP10 MLOAD PUSH4 0x40C10F19 PUSH1 0xE0 SHL DUP2 MSTORE PUSH1 0x1 PUSH1 0x1 PUSH1 0xA0 SHL SUB SWAP1 SWAP3 AND PUSH1 0x4 DUP4 ADD MSTORE PUSH1 0x24 DUP3 ADD SWAP3 SWAP1 SWAP3 MSTORE SWAP4 DUP5 SWAP2 DUP8 AND SWAP1 DUP3 SWAP1 DUP6 SWAP1 DUP3 SWAP1 PUSH1 0x44 DUP3 ADD SWAP1 JUMP JUMPDEST SUB SWAP3 GAS CALL DUP1 ISZERO PUSH2 0x362A JUMPI PUSH2 0x35D4 JUMPI JUMPDEST POP POP SWAP7 PUSH2 0x1204 SWAP3 DUP3 PUSH2 0x156E DUP9 DUP9 SWAP6 PUSH2 0xE39 SWAP11 SWAP12 SWAP13 DUP7 MLOAD PUSH2 0x1563 PUSH2 0x14E SWAP2 DUP3 SLOAD PUSH2 0x439E JUMP JUMPDEST PUSH1 0x20 DUP3 RETURNDATASIZE DUP3 GT PUSH2 0x3622 JUMPI JUMPDEST DUP2 PUSH2 0x35EC PUSH1 0x20 SWAP4 DUP4 PUSH2 0x3BB4 JUMP JUMPDEST DUP2 ADD SUB SLT PUSH2 0x7E8 JUMPI POP SWAP3 DUP3 PUSH2 0x156E DUP9 DUP9 SWAP6 PUSH2 0xE39 SWAP11 SWAP12 SWAP13 SWAP6 PUSH2 0x3610 PUSH2 0x1204 SWAP10 PUSH2 0x4535 JUMP JUMPDEST POP SWAP6 SWAP13 SWAP12 POP SWAP6 POP SWAP9 POP POP DUP2 SWAP5 POP PUSH2 0x35B0 JUMP JUMPDEST RETURNDATASIZE SWAP2 POP PUSH2 0x35DF JUMP JUMPDEST POP DUP6 MLOAD SWAP1 RETURNDATASIZE SWAP1 DUP3 RETURNDATACOPY RETURNDATASIZE SWAP1 REVERT JUMPDEST DUP7 MLOAD PUSH4 0xF3E39B5D PUSH1 0xE0 SHL DUP2 MSTORE PUSH1 0x4 SWAP1 REVERT JUMPDEST PUSH1 0x44 SWAP1 DUP11 DUP10 MLOAD SWAP2 PUSH4 0xB63F1A7 PUSH1 0xE0 SHL DUP4 MSTORE PUSH1 0x4 DUP4 ADD MSTORE PUSH1 0x24 DUP3 ADD MSTORE REVERT JUMPDEST DUP4 CALLVALUE PUSH2 0x7E8 JUMPI PUSH1 0x20 CALLDATASIZE PUSH1 0x3 NOT ADD SLT PUSH2 0x7E8 JUMPI PUSH2 0x367E PUSH2 0x5EEA JUMP JUMPDEST PUSH1 0x4 CALLDATALOAD PUSH2 0x142 SSTORE DUP1 RETURN JUMPDEST DUP4 CALLVALUE PUSH2 0x7E8 JUMPI PUSH1 0x20 CALLDATASIZE PUSH1 0x3 NOT ADD SLT PUSH2 0x7E8 JUMPI PUSH1 0x4 CALLDATALOAD DUP1 ISZERO ISZERO DUP1 SWAP2 SUB PUSH2 0x77D JUMPI PUSH2 0x36AF PUSH2 0x5EEA JUMP JUMPDEST PUSH2 0x14B SWAP1 PUSH1 0xFF DUP1 NOT DUP4 SLOAD AND SWAP2 AND OR SWAP1 SSTORE DUP1 RETURN JUMPDEST POP POP CALLVALUE PUSH2 0x77D JUMPI DUP2 PUSH1 0x3 NOT CALLDATASIZE ADD SLT PUSH2 0x77D JUMPI PUSH1 0x20 SWAP1 PUSH2 0x79C PUSH2 0x36E5 PUSH2 0xC4C PUSH2 0x45CE JUMP JUMPDEST SWAP1 PUSH2 0x4A1E JUMP JUMPDEST POP POP PUSH1 0x60 CALLDATASIZE PUSH1 0x3 NOT ADD SLT PUSH2 0x77D JUMPI PUSH1 0x4 CALLDATALOAD PUSH1 0x1 PUSH1 0x1 PUSH1 0xA0 SHL SUB DUP2 AND DUP2 SUB PUSH2 0x9D3 JUMPI PUSH1 0x20 SWAP3 PUSH2 0x79C SWAP2 CALLER SWAP1 CALLVALUE SWAP1 PUSH1 0x44 CALLDATALOAD SWAP1 PUSH1 0x24 CALLDATALOAD SWAP1 PUSH2 0x53B4 JUMP JUMPDEST POP POP CALLVALUE PUSH2 0x77D JUMPI DUP2 PUSH1 0x3 NOT CALLDATASIZE ADD SLT PUSH2 0x77D JUMPI PUSH1 0x20 SWAP1 PUSH2 0x14D SLOAD SWAP1 MLOAD SWAP1 DUP2 MSTORE RETURN JUMPDEST POP POP CALLVALUE PUSH2 0x77D JUMPI PUSH1 0x20 CALLDATASIZE PUSH1 0x3 NOT ADD SLT PUSH2 0x77D JUMPI PUSH1 0x4 CALLDATALOAD SWAP2 PUSH1 0x1 PUSH1 0x1 PUSH1 0xA0 SHL SUB DUP4 AND DUP4 SUB PUSH2 0x7E8 JUMPI POP PUSH2 0x79C PUSH1 0x20 SWAP3 CALLER SWAP1 CALLER SWAP1 PUSH2 0x480C JUMP JUMPDEST POP POP CALLVALUE PUSH2 0x77D JUMPI DUP2 PUSH1 0x3 NOT CALLDATASIZE ADD SLT PUSH2 0x77D JUMPI PUSH2 0x14F SLOAD SWAP1 MLOAD PUSH1 0x1 PUSH1 0x1 PUSH1 0xA0 SHL SUB SWAP1 SWAP2 AND DUP2 MSTORE PUSH1 0x20 SWAP1 RETURN JUMPDEST DUP4 CALLVALUE PUSH2 0x7E8 JUMPI PUSH1 0x20 CALLDATASIZE PUSH1 0x3 NOT ADD SLT PUSH2 0x7E8 JUMPI PUSH1 0x4 CALLDATALOAD PUSH1 0x1 PUSH1 0x1 PUSH1 0xA0 SHL SUB DUP2 AND SWAP1 DUP2 SWAP1 SUB PUSH2 0x77D JUMPI PUSH2 0x37D4 PUSH2 0x5EEA JUMP JUMPDEST PUSH2 0x130 DUP1 SLOAD PUSH1 0x1 PUSH1 0x1 PUSH1 0xA0 SHL SUB NOT AND SWAP1 SWAP2 OR SWAP1 SSTORE DUP1 RETURN JUMPDEST DUP4 CALLVALUE PUSH2 0x7E8 JUMPI PUSH1 0x20 CALLDATASIZE PUSH1 0x3 NOT ADD SLT PUSH2 0x7E8 JUMPI PUSH2 0x3805 PUSH2 0x5EEA JUMP JUMPDEST PUSH1 0x4 CALLDATALOAD PUSH2 0x13F SSTORE DUP1 RETURN JUMPDEST POP POP CALLVALUE PUSH2 0x77D JUMPI DUP2 PUSH1 0x3 NOT CALLDATASIZE ADD SLT PUSH2 0x77D JUMPI PUSH1 0x20 SWAP1 PUSH2 0x159 SLOAD SWAP1 MLOAD SWAP1 DUP2 MSTORE RETURN JUMPDEST DUP4 CALLVALUE PUSH2 0x7E8 JUMPI PUSH1 0x20 CALLDATASIZE PUSH1 0x3 NOT ADD SLT PUSH2 0x7E8 JUMPI PUSH1 0x4 CALLDATALOAD PUSH1 0x1 PUSH1 0x1 PUSH1 0xA0 SHL SUB DUP2 AND SWAP1 DUP2 SWAP1 SUB PUSH2 0x77D JUMPI PUSH2 0x385E PUSH2 0x5EEA JUMP JUMPDEST PUSH2 0x146 DUP1 SLOAD PUSH1 0x1 PUSH1 0x1 PUSH1 0xA0 SHL SUB NOT AND SWAP1 SWAP2 OR SWAP1 SSTORE DUP1 RETURN JUMPDEST PUSH1 0x20 DUP4 PUSH2 0x79C PUSH2 0x3886 CALLDATASIZE PUSH1 0x4 PUSH2 0x3AA5 JUMP JUMPDEST SWAP4 SWAP2 CALLER SWAP4 CALLVALUE SWAP4 PUSH2 0x50A4 JUMP JUMPDEST POP POP CALLVALUE PUSH2 0x77D JUMPI DUP2 PUSH1 0x3 NOT CALLDATASIZE ADD SLT PUSH2 0x77D JUMPI PUSH1 0x20 SWAP1 PUSH2 0x18F SLOAD SWAP1 MLOAD SWAP1 DUP2 MSTORE RETURN JUMPDEST POP POP CALLVALUE PUSH2 0x77D JUMPI DUP2 PUSH1 0x3 NOT CALLDATASIZE ADD SLT PUSH2 0x77D JUMPI PUSH1 0x97 SLOAD SWAP1 MLOAD PUSH1 0x1 PUSH1 0x1 PUSH1 0xA0 SHL SUB SWAP1 SWAP2 AND DUP2 MSTORE PUSH1 0x20 SWAP1 RETURN JUMPDEST POP POP PUSH1 0xC0 CALLDATASIZE PUSH1 0x3 NOT ADD SLT PUSH2 0x77D JUMPI PUSH1 0x1 PUSH1 0x1 PUSH1 0xA0 SHL SUB SWAP2 PUSH1 0x4 CALLDATALOAD DUP4 DUP2 AND DUP2 SUB PUSH2 0x77D JUMPI PUSH1 0x24 CALLDATALOAD DUP5 DUP2 AND DUP2 SUB PUSH2 0x9D3 JUMPI PUSH1 0x84 CALLDATALOAD SWAP3 DUP6 DUP5 AND DUP5 SUB PUSH2 0x7E8 JUMPI PUSH1 0xA4 CALLDATALOAD SWAP6 DUP7 AND DUP7 SUB PUSH2 0x7E8 JUMPI POP SWAP2 PUSH1 0x20 SWAP5 SWAP2 PUSH2 0x79C SWAP4 CALLVALUE SWAP2 PUSH1 0x64 CALLDATALOAD SWAP2 PUSH1 0x44 CALLDATALOAD SWAP2 PUSH2 0x50A4 JUMP JUMPDEST DUP4 CALLVALUE PUSH2 0x7E8 JUMPI PUSH1 0x20 CALLDATASIZE PUSH1 0x3 NOT ADD SLT PUSH2 0x7E8 JUMPI PUSH2 0x3955 PUSH2 0x5EEA JUMP JUMPDEST PUSH1 0x4 CALLDATALOAD PUSH2 0x15A SSTORE DUP1 RETURN JUMPDEST POP POP CALLVALUE PUSH2 0x77D JUMPI DUP2 PUSH1 0x3 NOT CALLDATASIZE ADD SLT PUSH2 0x77D JUMPI PUSH2 0x3979 PUSH2 0x5F78 JUMP JUMPDEST PUSH2 0x15B DUP1 SLOAD NUMBER LT PUSH2 0x39E7 JUMPI SWAP1 PUSH2 0xC15 SWAP2 PUSH2 0x15A SLOAD NUMBER ADD SWAP1 SSTORE PUSH32 0xE37FDA283839477A1B77E29ACF8336C0E13A5DAA967913DF0FE5AD258C0822F PUSH1 0x20 PUSH8 0xDE0B6B3A7640000 PUSH2 0x39CE PUSH2 0x131 SLOAD PUSH2 0x159 SLOAD SWAP1 PUSH2 0x42DC JUMP JUMPDEST DIV SWAP3 MLOAD DUP4 DUP2 MSTORE LOG1 PUSH2 0x158 SLOAD PUSH1 0x1 PUSH1 0x1 PUSH1 0xA0 SHL SUB AND PUSH2 0x413C JUMP JUMPDEST DUP2 MLOAD PUSH4 0xACCE20E5 PUSH1 0xE0 SHL DUP2 MSTORE PUSH1 0x4 SWAP1 REVERT JUMPDEST POP POP CALLVALUE PUSH2 0x77D JUMPI PUSH1 0x20 CALLDATASIZE PUSH1 0x3 NOT ADD SLT PUSH2 0x77D JUMPI PUSH1 0x4 CALLDATALOAD SWAP2 PUSH2 0x135 SWAP1 DUP2 SLOAD DUP5 LT ISZERO PUSH2 0x7E8 JUMPI POP PUSH1 0x20 SWAP3 PUSH2 0x3A29 SWAP2 PUSH2 0x3A63 JUMP JUMPDEST SWAP1 SLOAD SWAP2 MLOAD SWAP2 PUSH1 0x1 DUP1 PUSH1 0xA0 SHL SUB SWAP2 PUSH1 0x3 SHL SHR AND DUP2 MSTORE RETURN JUMPDEST DUP4 CALLVALUE PUSH2 0x7E8 JUMPI PUSH1 0x20 CALLDATASIZE PUSH1 0x3 NOT ADD SLT PUSH2 0x7E8 JUMPI PUSH2 0x3A59 PUSH2 0x5EEA JUMP JUMPDEST PUSH1 0x4 CALLDATALOAD PUSH2 0x13A SSTORE DUP1 RETURN JUMPDEST DUP1 SLOAD DUP3 LT ISZERO PUSH2 0x3A7B JUMPI PUSH1 0x0 MSTORE PUSH1 0x20 PUSH1 0x0 KECCAK256 ADD SWAP1 PUSH1 0x0 SWAP1 JUMP JUMPDEST PUSH4 0x4E487B71 PUSH1 0xE0 SHL PUSH1 0x0 MSTORE PUSH1 0x32 PUSH1 0x4 MSTORE PUSH1 0x24 PUSH1 0x0 REVERT JUMPDEST CALLDATALOAD SWAP1 PUSH1 0x1 PUSH1 0x1 PUSH1 0xA0 SHL SUB DUP3 AND DUP3 SUB PUSH2 0x7E3 JUMPI JUMP JUMPDEST SWAP1 DUP2 PUSH1 0xA0 SWAP2 SUB SLT PUSH2 0x7E3 JUMPI PUSH2 0x3AB9 DUP2 PUSH2 0x3A91 JUMP JUMPDEST SWAP2 PUSH2 0x3AC6 PUSH1 0x20 DUP4 ADD PUSH2 0x3A91 JUMP JUMPDEST SWAP2 PUSH1 0x40 DUP2 ADD CALLDATALOAD SWAP2 PUSH2 0x3ADE PUSH1 0x80 PUSH1 0x60 DUP5 ADD CALLDATALOAD SWAP4 ADD PUSH2 0x3A91 JUMP JUMPDEST SWAP1 JUMP JUMPDEST PUSH1 0x40 SWAP1 PUSH2 0x3B1D SWAP4 SWAP6 SWAP5 SWAP3 SWAP6 PUSH1 0xC0 DUP3 ADD SWAP7 DUP3 MSTORE PUSH1 0x20 DUP3 ADD MSTORE ADD SWAP1 PUSH1 0x60 DUP1 SWAP2 DUP1 MLOAD DUP5 MSTORE PUSH1 0x20 DUP2 ADD MLOAD PUSH1 0x20 DUP6 ADD MSTORE PUSH1 0x40 DUP2 ADD MLOAD PUSH1 0x40 DUP6 ADD MSTORE ADD MLOAD SWAP2 ADD MSTORE JUMP JUMPDEST JUMP JUMPDEST PUSH2 0x3B1D SWAP4 PUSH1 0x60 SWAP3 SWAP7 SWAP6 SWAP4 PUSH1 0xE0 DUP4 ADD SWAP8 DUP4 MSTORE PUSH1 0x20 DUP4 ADD MSTORE PUSH1 0x40 DUP3 ADD MSTORE ADD SWAP1 PUSH1 0x60 DUP1 SWAP2 DUP1 MLOAD DUP5 MSTORE PUSH1 0x20 DUP2 ADD MLOAD PUSH1 0x20 DUP6 ADD MSTORE PUSH1 0x40 DUP2 ADD MLOAD PUSH1 0x40 DUP6 ADD MSTORE ADD MLOAD SWAP2 ADD MSTORE JUMP JUMPDEST SWAP1 DUP2 PUSH1 0xA0 SWAP2 SUB SLT PUSH2 0x7E3 JUMPI PUSH2 0x3B73 DUP2 PUSH2 0x3A91 JUMP JUMPDEST SWAP2 PUSH1 0x20 DUP3 ADD CALLDATALOAD SWAP2 PUSH1 0x40 DUP2 ADD CALLDATALOAD SWAP2 PUSH2 0x3ADE PUSH1 0x80 PUSH2 0x3B91 PUSH1 0x60 DUP6 ADD PUSH2 0x3A91 JUMP JUMPDEST SWAP4 ADD PUSH2 0x3A91 JUMP JUMPDEST DUP1 SLOAD DUP3 LT ISZERO PUSH2 0x3A7B JUMPI PUSH1 0x0 MSTORE PUSH1 0x20 PUSH1 0x0 KECCAK256 SWAP1 PUSH1 0x1 SHL ADD SWAP1 PUSH1 0x0 SWAP1 JUMP JUMPDEST SWAP1 PUSH1 0x1F DUP1 NOT SWAP2 ADD AND DUP2 ADD SWAP1 DUP2 LT PUSH8 0xFFFFFFFFFFFFFFFF DUP3 GT OR PUSH2 0x3BD6 JUMPI PUSH1 0x40 MSTORE JUMP JUMPDEST PUSH4 0x4E487B71 PUSH1 0xE0 SHL PUSH1 0x0 MSTORE PUSH1 0x41 PUSH1 0x4 MSTORE PUSH1 0x24 PUSH1 0x0 REVERT JUMPDEST PUSH8 0xFFFFFFFFFFFFFFFF DUP2 GT PUSH2 0x3BD6 JUMPI PUSH1 0x1F ADD PUSH1 0x1F NOT AND PUSH1 0x20 ADD SWAP1 JUMP JUMPDEST SWAP2 SWAP1 DUP3 PUSH1 0x80 SWAP2 SUB SLT PUSH2 0x7E3 JUMPI PUSH2 0x3C1D DUP3 PUSH2 0x3A91 JUMP JUMPDEST SWAP2 PUSH1 0x20 DUP2 ADD CALLDATALOAD SWAP2 PUSH2 0x3ADE PUSH1 0x60 PUSH1 0x40 DUP5 ADD CALLDATALOAD SWAP4 ADD PUSH2 0x3A91 JUMP JUMPDEST SWAP2 SWAP1 DUP3 PUSH1 0x80 SWAP2 SUB SLT PUSH2 0x7E3 JUMPI PUSH2 0x3C4A DUP3 PUSH2 0x3A91 JUMP JUMPDEST SWAP2 PUSH1 0x20 DUP2 ADD CALLDATALOAD SWAP2 PUSH2 0x3ADE PUSH1 0x60 PUSH2 0x3B91 PUSH1 0x40 DUP6 ADD PUSH2 0x3A91 JUMP JUMPDEST SWAP1 DUP2 PUSH1 0xA0 SWAP2 SUB SLT PUSH2 0x7E3 JUMPI PUSH2 0x3C76 DUP2 PUSH2 0x3A91 JUMP JUMPDEST SWAP2 PUSH1 0x20 DUP3 ADD CALLDATALOAD SWAP2 PUSH1 0x40 DUP2 ADD CALLDATALOAD SWAP2 PUSH2 0x3ADE PUSH1 0x80 PUSH1 0x60 DUP5 ADD CALLDATALOAD SWAP4 ADD PUSH2 0x3A91 JUMP JUMPDEST ISZERO PUSH2 0x3C9B JUMPI JUMP JUMPDEST PUSH1 0x40 MLOAD PUSH3 0x461BCD PUSH1 0xE5 SHL DUP2 MSTORE PUSH1 0x20 PUSH1 0x4 DUP3 ADD MSTORE PUSH1 0x2C PUSH1 0x24 DUP3 ADD MSTORE PUSH32 0x46756E6374696F6E206D7573742062652063616C6C6564207468726F75676820 PUSH1 0x44 DUP3 ADD MSTORE PUSH12 0x19195B1959D85D1958D85B1B PUSH1 0xA2 SHL PUSH1 0x64 DUP3 ADD MSTORE PUSH1 0x84 SWAP1 REVERT JUMPDEST ISZERO PUSH2 0x3CFC JUMPI JUMP JUMPDEST PUSH1 0x40 MLOAD PUSH3 0x461BCD PUSH1 0xE5 SHL DUP2 MSTORE PUSH1 0x20 PUSH1 0x4 DUP3 ADD MSTORE PUSH1 0x2C PUSH1 0x24 DUP3 ADD MSTORE PUSH32 0x46756E6374696F6E206D7573742062652063616C6C6564207468726F75676820 PUSH1 0x44 DUP3 ADD MSTORE PUSH12 0x6163746976652070726F7879 PUSH1 0xA0 SHL PUSH1 0x64 DUP3 ADD MSTORE PUSH1 0x84 SWAP1 REVERT JUMPDEST SWAP1 PUSH1 0xFF PUSH32 0x4910FDFA16FED3260ED0E7147F7CC6DA11A60208B5B9406D12A635614FFD9143 SLOAD AND PUSH1 0x0 EQ PUSH2 0x3D8E JUMPI POP PUSH2 0x3B1D SWAP2 POP PUSH2 0x3F42 JUMP JUMPDEST PUSH1 0x40 MLOAD PUSH4 0x52D1902D PUSH1 0xE0 SHL DUP2 MSTORE PUSH1 0x20 SWAP4 SWAP2 SWAP3 SWAP2 SWAP1 PUSH1 0x1 PUSH1 0x1 PUSH1 0xA0 SHL SUB DUP4 AND SWAP1 DUP6 DUP2 PUSH1 0x4 DUP2 DUP6 GAS STATICCALL PUSH1 0x0 SWAP2 DUP2 PUSH2 0x3F13 JUMPI JUMPDEST POP PUSH2 0x3E1F JUMPI PUSH1 0x40 MLOAD PUSH3 0x461BCD PUSH1 0xE5 SHL DUP2 MSTORE PUSH1 0x4 DUP2 ADD DUP8 SWAP1 MSTORE PUSH1 0x2E PUSH1 0x24 DUP3 ADD MSTORE PUSH32 0x45524331393637557067726164653A206E657720696D706C656D656E74617469 PUSH1 0x44 DUP3 ADD MSTORE PUSH14 0x6F6E206973206E6F742055555053 PUSH1 0x90 SHL PUSH1 0x64 DUP3 ADD MSTORE PUSH1 0x84 SWAP1 REVERT JUMPDEST SWAP4 SWAP5 SWAP4 PUSH32 0xC9F76B5EC45E5CDEF99837D7B6D2467235C1DF8933C8CA56DF5C35AFA2C7D444 ADD PUSH2 0x3EBC JUMPI PUSH2 0x3E51 DUP4 PUSH2 0x3F42 JUMP JUMPDEST PUSH32 0xBC7CD75A20EE27FD9ADEBAB32041F755214DBC6BFFA90CC0225B39DA2E5C2D3B PUSH1 0x0 DUP1 LOG2 DUP4 MLOAD ISZERO SWAP1 DUP2 ISZERO SWAP2 PUSH2 0x3EB4 JUMPI JUMPDEST POP PUSH2 0x3E8C JUMPI POP POP POP JUMP JUMPDEST PUSH1 0x0 DUP1 PUSH2 0x3EB1 SWAP5 PUSH2 0x3E9B PUSH2 0x3FE4 JUMP JUMPDEST SWAP5 DUP2 MLOAD SWAP2 ADD DUP5 GAS DELEGATECALL PUSH2 0x3EAB PUSH2 0x4038 JUMP JUMPDEST SWAP2 PUSH2 0x4068 JUMP JUMPDEST POP JUMP JUMPDEST SWAP1 POP CODESIZE PUSH2 0x3E82 JUMP JUMPDEST PUSH1 0x40 MLOAD PUSH3 0x461BCD PUSH1 0xE5 SHL DUP2 MSTORE PUSH1 0x4 DUP2 ADD DUP6 SWAP1 MSTORE PUSH1 0x29 PUSH1 0x24 DUP3 ADD MSTORE PUSH32 0x45524331393637557067726164653A20756E737570706F727465642070726F78 PUSH1 0x44 DUP3 ADD MSTORE PUSH9 0x1A58589B1955555251 PUSH1 0xBA SHL PUSH1 0x64 DUP3 ADD MSTORE PUSH1 0x84 SWAP1 REVERT JUMPDEST SWAP1 SWAP2 DUP8 DUP3 DUP2 RETURNDATASIZE DUP4 GT PUSH2 0x3F3B JUMPI JUMPDEST PUSH2 0x3F2A DUP2 DUP4 PUSH2 0x3BB4 JUMP JUMPDEST DUP2 ADD SUB SLT PUSH2 0x7E8 JUMPI POP MLOAD SWAP1 CODESIZE PUSH2 0x3DBE JUMP JUMPDEST POP RETURNDATASIZE PUSH2 0x3F20 JUMP JUMPDEST DUP1 EXTCODESIZE ISZERO PUSH2 0x3F89 JUMPI PUSH32 0x360894A13BA1A3210667C828492DB98DCA3E2076CC3735A920A3CA505D382BBC DUP1 SLOAD PUSH1 0x1 PUSH1 0x1 PUSH1 0xA0 SHL SUB NOT AND PUSH1 0x1 PUSH1 0x1 PUSH1 0xA0 SHL SUB SWAP1 SWAP3 AND SWAP2 SWAP1 SWAP2 OR SWAP1 SSTORE JUMP JUMPDEST PUSH1 0x40 MLOAD PUSH3 0x461BCD PUSH1 0xE5 SHL DUP2 MSTORE PUSH1 0x20 PUSH1 0x4 DUP3 ADD MSTORE PUSH1 0x2D PUSH1 0x24 DUP3 ADD MSTORE PUSH32 0x455243313936373A206E657720696D706C656D656E746174696F6E206973206E PUSH1 0x44 DUP3 ADD MSTORE PUSH13 0x1BDD08184818DBDB9D1C9858DD PUSH1 0x9A SHL PUSH1 0x64 DUP3 ADD MSTORE PUSH1 0x84 SWAP1 REVERT JUMPDEST PUSH2 0x3FEE PUSH1 0x27 PUSH2 0x3BEC JUMP JUMPDEST SWAP1 PUSH2 0x3FFC PUSH1 0x40 MLOAD SWAP3 DUP4 PUSH2 0x3BB4 JUMP JUMPDEST PUSH1 0x27 DUP3 MSTORE PUSH7 0x819985A5B1959 PUSH1 0xCA SHL PUSH1 0x40 DUP4 PUSH32 0x416464726573733A206C6F772D6C6576656C2064656C65676174652063616C6C PUSH1 0x20 DUP3 ADD MSTORE ADD MSTORE JUMP JUMPDEST RETURNDATASIZE ISZERO PUSH2 0x4063 JUMPI RETURNDATASIZE SWAP1 PUSH2 0x4049 DUP3 PUSH2 0x3BEC JUMP JUMPDEST SWAP2 PUSH2 0x4057 PUSH1 0x40 MLOAD SWAP4 DUP5 PUSH2 0x3BB4 JUMP JUMPDEST DUP3 MSTORE RETURNDATASIZE PUSH1 0x0 PUSH1 0x20 DUP5 ADD RETURNDATACOPY JUMP JUMPDEST PUSH1 0x60 SWAP1 JUMP JUMPDEST SWAP2 SWAP3 SWAP1 ISZERO PUSH2 0x40CA JUMPI POP DUP2 MLOAD ISZERO PUSH2 0x407C JUMPI POP SWAP1 JUMP JUMPDEST EXTCODESIZE ISZERO PUSH2 0x4085 JUMPI SWAP1 JUMP JUMPDEST PUSH1 0x40 MLOAD PUSH3 0x461BCD PUSH1 0xE5 SHL DUP2 MSTORE PUSH1 0x20 PUSH1 0x4 DUP3 ADD MSTORE PUSH1 0x1D PUSH1 0x24 DUP3 ADD MSTORE PUSH32 0x416464726573733A2063616C6C20746F206E6F6E2D636F6E7472616374000000 PUSH1 0x44 DUP3 ADD MSTORE PUSH1 0x64 SWAP1 REVERT JUMPDEST DUP3 MLOAD SWAP1 SWAP2 POP ISZERO PUSH2 0x40DD JUMPI POP DUP1 MLOAD SWAP1 PUSH1 0x20 ADD REVERT JUMPDEST PUSH1 0x40 MLOAD SWAP1 PUSH3 0x461BCD PUSH1 0xE5 SHL DUP3 MSTORE DUP2 PUSH1 0x20 DUP1 PUSH1 0x4 DUP4 ADD MSTORE DUP3 MLOAD SWAP1 DUP2 PUSH1 0x24 DUP5 ADD MSTORE PUSH1 0x0 SWAP4 JUMPDEST DUP3 DUP6 LT PUSH2 0x4123 JUMPI POP POP PUSH1 0x44 SWAP3 POP PUSH1 0x0 DUP4 DUP3 DUP5 ADD ADD MSTORE PUSH1 0x1F DUP1 NOT SWAP2 ADD AND DUP2 ADD SUB ADD SWAP1 REVERT JUMPDEST DUP5 DUP2 ADD DUP3 ADD MLOAD DUP7 DUP7 ADD PUSH1 0x44 ADD MSTORE SWAP4 DUP2 ADD SWAP4 DUP6 SWAP4 POP PUSH2 0x4100 JUMP JUMPDEST DUP2 PUSH2 0x4145 JUMPI POP POP JUMP JUMPDEST PUSH1 0x1 PUSH1 0x1 PUSH1 0xA0 SHL SUB DUP2 AND ISZERO PUSH2 0x4182 JUMPI PUSH1 0x0 DUP1 DUP1 SWAP4 DUP2 SWAP4 PUSH2 0x229 SLOAD CALL PUSH2 0x4168 PUSH2 0x4038 JUMP JUMPDEST POP ISZERO PUSH2 0x4170 JUMPI JUMP JUMPDEST PUSH1 0x40 MLOAD PUSH4 0x12171D83 PUSH1 0xE3 SHL DUP2 MSTORE PUSH1 0x4 SWAP1 REVERT JUMPDEST PUSH1 0x40 MLOAD PUSH4 0xE6C4247B PUSH1 0xE0 SHL DUP2 MSTORE PUSH1 0x4 SWAP1 REVERT JUMPDEST SWAP2 SWAP1 DUP3 ADD DUP1 SWAP3 GT PUSH2 0x41A1 JUMPI JUMP JUMPDEST PUSH4 0x4E487B71 PUSH1 0xE0 SHL PUSH1 0x0 MSTORE PUSH1 0x11 PUSH1 0x4 MSTORE PUSH1 0x24 PUSH1 0x0 REVERT JUMPDEST DUP1 MLOAD DUP3 LT ISZERO PUSH2 0x3A7B JUMPI PUSH1 0x20 SWAP2 PUSH1 0x5 SHL ADD ADD SWAP1 JUMP JUMPDEST SWAP1 PUSH1 0x0 SWAP2 PUSH1 0x0 SWAP1 PUSH2 0x137 DUP1 SLOAD SWAP1 PUSH1 0x0 SWAP3 JUMPDEST DUP3 DUP5 LT PUSH2 0x4202 JUMPI POP POP POP POP PUSH2 0x41FE PUSH8 0xDE0B6B3A7640000 SWAP2 PUSH2 0x139 SLOAD SWAP1 PUSH2 0x42DC JUMP JUMPDEST DIV SWAP1 JUMP JUMPDEST SWAP1 SWAP2 SWAP3 SWAP4 SWAP6 PUSH2 0x424F PUSH2 0x423E PUSH2 0x4249 PUSH1 0x1 SWAP4 PUSH2 0x4243 PUSH2 0x4220 DUP11 DUP9 PUSH2 0x41B7 JUMP JUMPDEST MLOAD PUSH2 0x422B DUP2 DUP13 PUSH2 0x4275 JUMP JUMPDEST SWAP6 SWAP1 PUSH2 0x4237 DUP14 DUP13 PUSH2 0x3B98 JUMP JUMPDEST POP SLOAD PUSH2 0x4194 JUMP JUMPDEST PUSH2 0x5F99 JUMP JUMPDEST SWAP1 PUSH2 0x4194 JUMP JUMPDEST SWAP9 PUSH2 0x4194 JUMP JUMPDEST SWAP5 ADD SWAP3 SWAP2 SWAP1 PUSH2 0x41DC JUMP JUMPDEST SWAP2 SWAP1 SWAP2 PUSH1 0x0 DUP4 DUP3 ADD SWAP4 DUP5 SLT SWAP2 SLT SWAP1 DUP1 ISZERO DUP3 AND SWAP2 ISZERO AND OR PUSH2 0x41A1 JUMPI JUMP JUMPDEST SWAP2 SWAP1 PUSH1 0x0 SWAP1 PUSH2 0x42A3 DUP2 PUSH1 0x0 SWAP6 PUSH2 0x4299 PUSH2 0x4290 DUP3 PUSH2 0x150 PUSH2 0x3A63 JUMP JUMPDEST SWAP4 SWAP1 SLOAD SWAP3 PUSH2 0x4328 JUMP JUMPDEST SWAP2 PUSH1 0x3 SHL SHR PUSH2 0x4259 JUMP JUMPDEST PUSH1 0x0 DUP2 SGT PUSH2 0x42B2 JUMPI JUMPDEST POP POP SWAP2 SWAP1 JUMP JUMPDEST PUSH2 0x42D4 SWAP2 SWAP5 POP PUSH2 0x27CC SWAP3 POP DUP1 SWAP5 PUSH8 0xDE0B6B3A7640000 SWAP4 DUP5 SWAP2 PUSH2 0x13A SLOAD PUSH2 0x42DC JUMP JUMPDEST DIV CODESIZE DUP1 PUSH2 0x42AC JUMP JUMPDEST DUP2 DUP2 MUL SWAP3 SWAP2 DUP2 ISZERO SWAP2 DUP5 DIV EQ OR ISZERO PUSH2 0x41A1 JUMPI JUMP JUMPDEST DUP2 ISZERO PUSH2 0x42F9 JUMPI DIV SWAP1 JUMP JUMPDEST PUSH4 0x4E487B71 PUSH1 0xE0 SHL PUSH1 0x0 MSTORE PUSH1 0x12 PUSH1 0x4 MSTORE PUSH1 0x24 PUSH1 0x0 REVERT JUMPDEST DUP2 DUP2 SUB SWAP3 SWAP2 PUSH1 0x0 SGT DUP1 ISZERO DUP3 DUP6 SGT AND SWAP2 DUP5 SLT AND OR PUSH2 0x41A1 JUMPI JUMP JUMPDEST PUSH2 0x4334 DUP2 PUSH2 0x137 PUSH2 0x3B98 JUMP JUMPDEST POP SLOAD SWAP1 PUSH8 0xDE0B6B3A7640000 SWAP2 DUP3 DUP2 MUL SWAP3 DUP2 DUP5 DIV EQ SWAP1 ISZERO OR ISZERO PUSH2 0x41A1 JUMPI PUSH2 0x3ADE SWAP3 PUSH2 0x4374 PUSH2 0x4367 PUSH2 0x437A SWAP4 PUSH2 0x151 PUSH2 0x3A63 JUMP JUMPDEST SWAP1 SLOAD SWAP1 PUSH1 0x3 SHL SHR DUP5 PUSH2 0x42EF JUMP JUMPDEST SWAP3 PUSH2 0x42EF JUMP JUMPDEST SWAP1 PUSH2 0x430F JUMP JUMPDEST DUP1 ISZERO PUSH2 0x4396 JUMPI PUSH2 0x423E PUSH2 0x3ADE SWAP3 PUSH2 0x131 SLOAD PUSH2 0x439E JUMP JUMPDEST POP POP PUSH1 0x0 NOT SWAP1 JUMP JUMPDEST SWAP2 SWAP1 DUP3 SUB SWAP2 DUP3 GT PUSH2 0x41A1 JUMPI JUMP JUMPDEST PUSH8 0xFFFFFFFFFFFFFFFF DUP2 GT PUSH2 0x3BD6 JUMPI PUSH1 0x5 SHL PUSH1 0x20 ADD SWAP1 JUMP JUMPDEST SWAP1 PUSH2 0x43CD DUP3 PUSH2 0x43AB JUMP JUMPDEST PUSH2 0x43DA PUSH1 0x40 MLOAD SWAP2 DUP3 PUSH2 0x3BB4 JUMP JUMPDEST DUP3 DUP2 MSTORE DUP1 SWAP3 PUSH2 0x43EB PUSH1 0x1F NOT SWAP2 PUSH2 0x43AB JUMP JUMPDEST ADD SWAP1 PUSH1 0x20 CALLDATASIZE SWAP2 ADD CALLDATACOPY JUMP JUMPDEST PUSH2 0x131 SLOAD DUP1 ISZERO PUSH2 0x3EB1 JUMPI PUSH2 0x137 SWAP1 DUP2 SLOAD SWAP2 PUSH1 0x0 SWAP1 PUSH2 0x4412 DUP5 PUSH2 0x43C3 JUMP JUMPDEST SWAP1 DUP3 SWAP1 JUMPDEST DUP6 DUP3 LT PUSH2 0x4481 JUMPI POP POP PUSH1 0x0 JUMPDEST DUP5 DUP2 LT PUSH2 0x4430 JUMPI POP POP POP POP POP JUMP JUMPDEST PUSH2 0x444D DUP5 PUSH2 0x4448 DUP6 PUSH2 0x4442 DUP6 DUP8 PUSH2 0x41B7 JUMP JUMPDEST MLOAD PUSH2 0x42DC JUMP JUMPDEST PUSH2 0x42EF JUMP JUMPDEST SWAP1 PUSH2 0x138 SWAP2 DUP3 SLOAD PUSH9 0x10000000000000000 DUP2 LT ISZERO PUSH2 0x3BD6 JUMPI PUSH2 0x27E5 DUP2 PUSH1 0x1 SWAP6 DUP7 PUSH2 0x4479 SWAP5 ADD DUP2 SSTORE PUSH2 0x3A63 JUMP JUMPDEST SWAP1 SSTORE ADD PUSH2 0x4422 JUMP JUMPDEST SWAP1 SWAP3 PUSH2 0x44BD PUSH1 0x1 SWAP2 PUSH2 0x4492 DUP7 PUSH2 0x44EE JUMP JUMPDEST PUSH2 0x449C DUP8 DUP8 PUSH2 0x41B7 JUMP JUMPDEST MSTORE PUSH2 0x4243 PUSH2 0x44AA DUP8 DUP7 PUSH2 0x3B98 JUMP JUMPDEST POP SLOAD PUSH2 0x44B6 DUP9 DUP9 PUSH2 0x41B7 JUMP JUMPDEST MLOAD SWAP1 PUSH2 0x5F99 JUMP JUMPDEST SWAP4 ADD SWAP1 PUSH2 0x4416 JUMP JUMPDEST PUSH1 0x1 PUSH1 0x1 PUSH1 0xA0 SHL SUB AND PUSH1 0x0 SWAP1 DUP2 MSTORE PUSH2 0x136 PUSH1 0x20 MSTORE PUSH1 0x40 SWAP1 KECCAK256 PUSH1 0x1 DUP2 ADD SLOAD PUSH1 0xFF AND ISZERO PUSH2 0x4182 JUMPI SLOAD SWAP1 JUMP JUMPDEST PUSH2 0x44FA SWAP1 PUSH2 0x137 PUSH2 0x3B98 JUMP JUMPDEST POP PUSH1 0x1 ADD SLOAD PUSH1 0x1 PUSH1 0x1 PUSH1 0xA0 SHL SUB AND PUSH2 0x4511 DUP2 PUSH2 0x455C JUMP JUMPDEST SWAP2 SWAP1 SWAP2 ISZERO PUSH2 0x451D JUMPI POP SWAP1 JUMP JUMPDEST PUSH1 0x24 SWAP1 PUSH1 0x40 MLOAD SWAP1 PUSH4 0x7F6E4DB9 PUSH1 0xE0 SHL DUP3 MSTORE PUSH1 0x4 DUP3 ADD MSTORE REVERT JUMPDEST MLOAD SWAP1 DUP2 ISZERO ISZERO DUP3 SUB PUSH2 0x7E3 JUMPI JUMP JUMPDEST SWAP2 SWAP1 DUP3 PUSH1 0x40 SWAP2 SUB SLT PUSH2 0x7E3 JUMPI PUSH2 0x3ADE PUSH1 0x20 DUP4 MLOAD SWAP4 ADD PUSH2 0x4535 JUMP JUMPDEST PUSH1 0x40 DUP1 MLOAD PUSH4 0x59E02DD7 PUSH1 0xE0 SHL DUP2 MSTORE SWAP3 SWAP2 DUP4 SWAP1 PUSH1 0x4 SWAP1 DUP3 SWAP1 PUSH1 0x1 PUSH1 0x1 PUSH1 0xA0 SHL SUB AND GAS STATICCALL SWAP2 DUP3 ISZERO PUSH2 0x45C2 JUMPI PUSH1 0x0 SWAP1 DUP2 SWAP4 PUSH2 0x4593 JUMPI POP SWAP2 SWAP1 JUMP JUMPDEST SWAP1 POP PUSH2 0x45B7 SWAP2 SWAP3 POP PUSH1 0x40 RETURNDATASIZE DUP2 GT PUSH2 0x45BB JUMPI JUMPDEST PUSH2 0x45AF DUP2 DUP4 PUSH2 0x3BB4 JUMP JUMPDEST DUP2 ADD SWAP1 PUSH2 0x4542 JUMP JUMPDEST SWAP1 SWAP2 JUMP JUMPDEST POP RETURNDATASIZE PUSH2 0x45A5 JUMP JUMPDEST PUSH1 0x40 MLOAD RETURNDATASIZE PUSH1 0x0 DUP3 RETURNDATACOPY RETURNDATASIZE SWAP1 REVERT JUMPDEST PUSH2 0x137 SLOAD SWAP1 PUSH2 0x45DC DUP3 PUSH2 0x43C3 JUMP JUMPDEST SWAP2 PUSH1 0x0 JUMPDEST DUP2 DUP2 LT PUSH2 0x45EB JUMPI POP POP JUMP JUMPDEST DUP1 PUSH2 0x45F7 PUSH1 0x1 SWAP3 PUSH2 0x44EE JUMP JUMPDEST PUSH2 0x4601 DUP3 DUP8 PUSH2 0x41B7 JUMP JUMPDEST MSTORE ADD PUSH2 0x45E0 JUMP JUMPDEST SWAP1 PUSH2 0x4629 PUSH8 0xDE0B6B3A7640000 SWAP3 DUP4 PUSH2 0x157 SLOAD PUSH2 0x154 SLOAD SWAP3 NUMBER ADD SUB MUL PUSH2 0x42EF JUMP JUMPDEST DUP3 DUP2 LT ISZERO PUSH2 0x4646 JUMPI DUP3 SUB SWAP2 DUP1 DUP4 PUSH2 0x155 SLOAD MUL DIV SWAP3 PUSH2 0x156 SLOAD MUL SDIV SWAP1 JUMP JUMPDEST POP PUSH1 0x0 SWAP2 POP DUP2 SWAP1 JUMP JUMPDEST SWAP1 SWAP2 PUSH2 0x4659 PUSH2 0x46B1 JUMP JUMPDEST SWAP3 SWAP1 DUP1 DUP3 LT ISZERO PUSH2 0x46A7 JUMPI DUP4 SWAP2 PUSH2 0x466E SWAP2 PUSH2 0x439E JUMP JUMPDEST SWAP4 GT ISZERO PUSH2 0x46A2 JUMPI DUP2 DUP2 LT ISZERO PUSH2 0x469A JUMPI PUSH2 0x4686 SWAP2 PUSH2 0x439E JUMP JUMPDEST PUSH1 0x1 SHR DUP1 DUP3 LT ISZERO PUSH2 0x4695 JUMPI POP SWAP1 JUMP JUMPDEST SWAP1 POP SWAP1 JUMP JUMPDEST POP POP POP PUSH1 0x0 SWAP1 JUMP JUMPDEST POP POP SWAP1 JUMP JUMPDEST POP POP POP POP POP PUSH1 0x0 SWAP1 JUMP JUMPDEST PUSH2 0x152 SLOAD PUSH1 0x40 DUP1 MLOAD PUSH4 0x59E02DD7 PUSH1 0xE0 SHL DUP1 DUP3 MSTORE SWAP4 SWAP3 SWAP1 SWAP2 SWAP1 PUSH1 0x1 PUSH1 0x1 PUSH1 0xA0 SHL SUB SWAP1 DUP2 AND DUP3 DUP5 PUSH1 0x4 DUP2 DUP5 GAS STATICCALL DUP1 ISZERO PUSH2 0x47A1 JUMPI PUSH1 0x0 SWAP5 DUP6 SWAP2 PUSH2 0x477E JUMPI JUMPDEST POP ISZERO PUSH2 0x4767 JUMPI POP PUSH2 0x153 SLOAD AND SWAP1 DUP1 MLOAD SWAP5 DUP6 MSTORE DUP1 DUP6 PUSH1 0x4 DUP2 DUP6 GAS STATICCALL DUP1 ISZERO PUSH2 0x475C JUMPI PUSH1 0x0 SWAP6 DUP7 SWAP2 PUSH2 0x4739 JUMPI JUMPDEST POP ISZERO PUSH2 0x4722 JUMPI POP POP SWAP2 SWAP1 JUMP JUMPDEST PUSH1 0x24 SWAP3 POP MLOAD SWAP1 PUSH4 0x5E89893 PUSH1 0xE1 SHL DUP3 MSTORE PUSH1 0x4 DUP3 ADD MSTORE REVERT JUMPDEST SWAP1 POP DUP2 PUSH2 0x4753 SWAP3 SWAP7 POP RETURNDATASIZE DUP8 GT PUSH2 0x45BB JUMPI PUSH2 0x45AF DUP2 DUP4 PUSH2 0x3BB4 JUMP JUMPDEST SWAP5 SWAP1 SWAP5 CODESIZE PUSH2 0x4716 JUMP JUMPDEST POP MLOAD RETURNDATASIZE PUSH1 0x0 DUP3 RETURNDATACOPY RETURNDATASIZE SWAP1 REVERT JUMPDEST PUSH1 0x24 SWAP1 DUP4 MLOAD SWAP1 PUSH4 0x5E89893 PUSH1 0xE1 SHL DUP3 MSTORE PUSH1 0x4 DUP3 ADD MSTORE REVERT JUMPDEST SWAP1 POP PUSH2 0x4798 SWAP2 SWAP5 POP DUP4 RETURNDATASIZE DUP6 GT PUSH2 0x45BB JUMPI PUSH2 0x45AF DUP2 DUP4 PUSH2 0x3BB4 JUMP JUMPDEST SWAP4 SWAP1 SWAP4 CODESIZE PUSH2 0x46EC JUMP JUMPDEST DUP4 MLOAD RETURNDATASIZE PUSH1 0x0 DUP3 RETURNDATACOPY RETURNDATASIZE SWAP1 REVERT JUMPDEST ISZERO PUSH2 0x47B3 JUMPI JUMP JUMPDEST PUSH1 0x40 MLOAD PUSH3 0x461BCD PUSH1 0xE5 SHL DUP2 MSTORE PUSH1 0x20 PUSH1 0x4 DUP3 ADD MSTORE PUSH1 0x2B PUSH1 0x24 DUP3 ADD MSTORE PUSH32 0x496E697469616C697A61626C653A20636F6E7472616374206973206E6F742069 PUSH1 0x44 DUP3 ADD MSTORE PUSH11 0x6E697469616C697A696E67 PUSH1 0xA8 SHL PUSH1 0x64 DUP3 ADD MSTORE PUSH1 0x84 SWAP1 REVERT JUMPDEST PUSH2 0x486A SWAP2 PUSH2 0x4818 PUSH2 0x5F78 JUMP JUMPDEST PUSH1 0x40 MLOAD PUSH4 0x6845C445 PUSH1 0xE0 SHL PUSH1 0x20 DUP3 ADD MSTORE PUSH1 0x1 PUSH1 0x1 PUSH1 0xA0 SHL SUB SWAP3 DUP4 AND PUSH1 0x24 DUP3 ADD MSTORE SWAP1 DUP3 AND PUSH1 0x44 DUP3 ADD MSTORE DUP4 DUP3 AND PUSH1 0x64 DUP3 ADD MSTORE SELFBALANCE PUSH1 0x84 DUP1 DUP4 ADD SWAP2 SWAP1 SWAP2 MSTORE DUP2 MSTORE SWAP1 PUSH2 0x4860 PUSH1 0xA4 DUP4 PUSH2 0x3BB4 JUMP JUMPDEST PUSH2 0x1F6 SLOAD AND PUSH2 0x4886 JUMP JUMPDEST PUSH1 0x20 DUP2 DUP1 MLOAD DUP2 ADD SUB SLT PUSH2 0x7E3 JUMPI PUSH1 0x20 PUSH2 0x3ADE SWAP2 ADD MLOAD DUP1 SWAP3 PUSH2 0x413C JUMP JUMPDEST SWAP1 PUSH2 0x3ADE SWAP2 PUSH1 0x0 DUP1 PUSH2 0x4896 PUSH2 0x3FE4 JUMP JUMPDEST SWAP4 PUSH1 0x20 DUP2 MLOAD SWAP2 ADD DUP5 GAS DELEGATECALL PUSH2 0x3EAB PUSH2 0x4038 JUMP JUMPDEST PUSH2 0x4916 SWAP4 PUSH2 0x48DD PUSH1 0x0 SWAP3 PUSH1 0x20 SWAP6 PUSH2 0x48C1 DUP3 PUSH2 0x137 PUSH2 0x3B98 JUMP JUMPDEST POP PUSH2 0x48CD DUP8 DUP3 SLOAD PUSH2 0x4194 JUMP JUMPDEST SWAP1 SSTORE PUSH2 0x175C PUSH2 0x131 SWAP2 DUP3 SLOAD PUSH2 0x4194 JUMP JUMPDEST SWAP1 SLOAD PUSH1 0x40 MLOAD PUSH4 0x40C10F19 PUSH1 0xE0 SHL DUP2 MSTORE PUSH1 0x1 PUSH1 0x1 PUSH1 0xA0 SHL SUB SWAP1 SWAP4 AND PUSH1 0x4 DUP5 ADD MSTORE PUSH1 0x24 DUP4 ADD SWAP5 SWAP1 SWAP5 MSTORE SWAP1 SWAP5 DUP6 SWAP4 SWAP3 DUP5 SWAP3 SWAP1 SWAP2 DUP4 SWAP1 PUSH1 0x44 DUP3 ADD SWAP1 JUMP JUMPDEST SUB SWAP4 PUSH1 0x3 SWAP2 SWAP1 SWAP2 SHL SHR PUSH1 0x1 PUSH1 0x1 PUSH1 0xA0 SHL SUB AND GAS CALL DUP1 ISZERO PUSH2 0x45C2 JUMPI PUSH2 0x4937 JUMPI POP JUMP JUMPDEST PUSH1 0x20 DUP2 RETURNDATASIZE DUP3 GT PUSH2 0x4960 JUMPI JUMPDEST DUP2 PUSH2 0x494F PUSH1 0x20 SWAP4 DUP4 PUSH2 0x3BB4 JUMP JUMPDEST DUP2 ADD SUB SLT PUSH2 0x7E3 JUMPI PUSH2 0x3EB1 SWAP1 PUSH2 0x4535 JUMP JUMPDEST RETURNDATASIZE SWAP2 POP PUSH2 0x4942 JUMP JUMPDEST PUSH2 0x27E5 PUSH2 0x49B9 SWAP2 PUSH2 0x4979 DUP5 DUP3 PUSH2 0x4328 JUMP JUMPDEST PUSH2 0x49AF PUSH2 0x4988 DUP4 PUSH2 0x150 PUSH2 0x3A63 JUMP JUMPDEST PUSH2 0x499B DUP3 SWAP5 SWAP3 SLOAD SWAP3 DUP4 DUP4 PUSH1 0x3 SHL SHR PUSH2 0x4259 JUMP JUMPDEST SWAP2 SWAP1 PUSH1 0x3 SHL SWAP2 DUP3 SHL SWAP2 PUSH1 0x0 NOT SWAP1 SHL NOT AND OR SWAP1 JUMP JUMPDEST SWAP1 SSTORE PUSH2 0x151 PUSH2 0x3A63 JUMP JUMPDEST SWAP1 SSTORE JUMP JUMPDEST PUSH1 0xE0 DUP2 ADD SWAP3 SWAP2 PUSH1 0xC0 SWAP1 DUP2 SWAP1 PUSH1 0x1 PUSH1 0x1 PUSH1 0xA0 SHL SUB DUP1 PUSH2 0x49DA DUP4 PUSH2 0x3A91 JUMP JUMPDEST AND DUP6 MSTORE PUSH2 0x49E9 PUSH1 0x20 DUP4 ADD PUSH2 0x3A91 JUMP JUMPDEST AND PUSH1 0x20 DUP6 ADD MSTORE PUSH1 0x40 DUP2 ADD CALLDATALOAD PUSH1 0x40 DUP6 ADD MSTORE PUSH1 0x60 DUP2 ADD CALLDATALOAD PUSH1 0x60 DUP6 ADD MSTORE PUSH1 0x80 DUP2 ADD CALLDATALOAD PUSH1 0x80 DUP6 ADD MSTORE PUSH1 0xA0 DUP2 ADD CALLDATALOAD PUSH1 0xA0 DUP6 ADD MSTORE ADD CALLDATALOAD SWAP2 ADD MSTORE JUMP JUMPDEST SWAP1 PUSH2 0x134 SLOAD SWAP1 DUP2 ISZERO PUSH2 0x4A43 JUMPI PUSH2 0x3ADE SWAP3 PUSH2 0x4A3E PUSH2 0x423E SWAP3 PUSH2 0x131 SLOAD PUSH2 0x439E JUMP JUMPDEST PUSH2 0x439E JUMP JUMPDEST POP POP POP PUSH8 0xDE0B6B3A7640000 SWAP1 JUMP JUMPDEST DUP3 DUP3 PUSH2 0x4A5D SWAP3 PUSH2 0x4A7A JUMP JUMPDEST SWAP1 PUSH1 0x0 DUP3 SGT ISZERO PUSH2 0x469A JUMPI PUSH2 0x3ADE SWAP3 PUSH2 0x4A74 SWAP2 PUSH2 0x4A1E JUMP JUMPDEST SWAP1 PUSH2 0x42EF JUMP JUMPDEST SWAP1 SWAP2 PUSH2 0x4A89 SWAP1 PUSH2 0x131 SLOAD PUSH2 0x439E JUMP JUMPDEST SWAP1 PUSH8 0xDE0B6B3A7640000 SWAP2 DUP3 DUP2 MUL SWAP3 DUP2 DUP5 DIV EQ SWAP1 ISZERO OR ISZERO PUSH2 0x41A1 JUMPI PUSH2 0x3ADE SWAP3 PUSH2 0x437A SWAP2 PUSH2 0x42DC JUMP JUMPDEST SWAP3 PUSH2 0x4ABF SWAP3 SWAP4 SWAP5 SWAP2 SWAP5 PUSH2 0x4A7A JUMP JUMPDEST DUP2 DUP2 MUL SWAP2 PUSH1 0x0 SWAP2 PUSH1 0x1 PUSH1 0xFF SHL SWAP2 DUP4 DUP3 SLT DUP4 DUP3 EQ AND PUSH2 0x4B63 JUMPI DUP2 DUP6 SDIV EQ SWAP1 ISZERO OR ISZERO PUSH2 0x4B4F JUMPI PUSH8 0xDE0B6B3A763FFFF NOT DUP5 ADD SWAP4 DUP5 GT PUSH2 0x4B4F JUMPI PUSH8 0xDE0B6B3A7640000 SWAP4 DUP5 DUP2 MUL SWAP5 DUP2 DUP7 DIV EQ SWAP1 ISZERO OR ISZERO PUSH2 0x4B4F JUMPI DUP4 ISZERO PUSH2 0x4B3B JUMPI DUP3 EQ PUSH1 0x0 NOT DUP5 EQ AND PUSH2 0x4B27 JUMPI POP SDIV SWAP1 JUMP JUMPDEST PUSH4 0x4E487B71 PUSH1 0xE0 SHL DUP2 MSTORE PUSH1 0x11 PUSH1 0x4 MSTORE PUSH1 0x24 SWAP1 REVERT JUMPDEST PUSH4 0x4E487B71 PUSH1 0xE0 SHL DUP3 MSTORE PUSH1 0x12 PUSH1 0x4 MSTORE PUSH1 0x24 DUP3 REVERT JUMPDEST PUSH4 0x4E487B71 PUSH1 0xE0 SHL DUP3 MSTORE PUSH1 0x11 PUSH1 0x4 MSTORE PUSH1 0x24 DUP3 REVERT JUMPDEST PUSH4 0x4E487B71 PUSH1 0xE0 SHL DUP5 MSTORE PUSH1 0x11 PUSH1 0x4 MSTORE PUSH1 0x24 DUP5 REVERT JUMPDEST PUSH2 0x14D SLOAD DUP1 NUMBER LT ISZERO PUSH2 0x4B8E JUMPI PUSH2 0x3ADE SWAP1 NUMBER SWAP1 PUSH2 0x439E JUMP JUMPDEST POP PUSH1 0x0 SWAP1 JUMP JUMPDEST SWAP1 PUSH1 0x40 MLOAD PUSH2 0x4BA3 PUSH1 0x40 DUP3 PUSH2 0x3BB4 JUMP JUMPDEST PUSH1 0x20 PUSH1 0x1 DUP3 SWAP5 DUP1 SLOAD DUP5 MSTORE ADD SLOAD SWAP2 ADD MSTORE JUMP JUMPDEST PUSH2 0x4BC0 DUP2 PUSH2 0x148 PUSH2 0x3A63 JUMP JUMPDEST SWAP1 SLOAD SWAP1 PUSH1 0x3 SHL SHR SWAP2 PUSH2 0x18E SWAP2 PUSH2 0x4BD6 DUP2 DUP5 PUSH2 0x3B98 JUMP JUMPDEST POP SLOAD SWAP3 PUSH2 0x18F SLOAD NUMBER LT ISZERO PUSH2 0x4BFC JUMPI JUMPDEST POP POP DUP1 DUP3 LT ISZERO PUSH2 0x46A2 JUMPI PUSH2 0x4448 SWAP1 PUSH2 0x3ADE SWAP4 PUSH2 0x42DC JUMP JUMPDEST DUP3 SWAP4 POP PUSH2 0x4C10 PUSH2 0x4C1B SWAP4 SWAP3 PUSH2 0x4C16 SWAP3 PUSH2 0x3B98 JUMP JUMPDEST POP PUSH2 0x4B94 JUMP JUMPDEST PUSH2 0x4C23 JUMP JUMPDEST SWAP1 CODESIZE DUP1 PUSH2 0x4BE5 JUMP JUMPDEST PUSH1 0x20 DUP2 MLOAD SWAP2 ADD DUP1 MLOAD SWAP3 PUSH8 0xDE0B6B3A7640000 SWAP4 DUP5 SUB SWAP1 DUP5 DUP3 GT PUSH2 0x41A1 JUMPI PUSH2 0x4C50 PUSH2 0x4243 SWAP3 PUSH2 0x41FE SWAP6 PUSH2 0x42DC JUMP JUMPDEST SWAP3 MLOAD PUSH2 0x42DC JUMP JUMPDEST PUSH1 0x0 DUP1 PUSH2 0x137 SWAP2 DUP3 SLOAD SWAP3 PUSH2 0x4C6A DUP5 PUSH2 0x43C3 JUMP JUMPDEST SWAP4 DUP3 SWAP2 JUMPDEST DUP2 DUP4 LT PUSH2 0x4C97 JUMPI POP POP POP DUP2 ISZERO PUSH2 0x4C8B JUMPI SWAP1 PUSH2 0x4C88 SWAP2 PUSH2 0x42EF JUMP JUMPDEST SWAP2 JUMP JUMPDEST POP POP PUSH2 0x149 SLOAD PUSH1 0x1 SHL SWAP2 JUMP JUMPDEST SWAP1 SWAP2 SWAP4 SWAP3 PUSH2 0x4CA4 DUP6 PUSH2 0x44EE JUMP JUMPDEST SWAP1 DUP2 PUSH2 0x4CB0 DUP8 DUP10 PUSH2 0x41B7 JUMP JUMPDEST MSTORE PUSH2 0x4CC9 PUSH2 0x4CBE DUP4 DUP9 PUSH2 0x4275 JUMP JUMPDEST POP PUSH2 0x4237 DUP9 DUP7 PUSH2 0x3B98 JUMP JUMPDEST PUSH8 0xDE0B6B3A7640000 SWAP1 DUP2 DUP2 MUL SWAP2 DUP2 DUP4 DIV EQ SWAP1 ISZERO OR ISZERO PUSH2 0x41A1 JUMPI PUSH2 0x4D0B PUSH2 0x4D11 SWAP3 PUSH2 0x4243 DUP6 PUSH2 0x4CFD PUSH1 0x1 SWAP8 PUSH2 0x4D06 SWAP7 PUSH2 0x5F99 JUMP JUMPDEST SWAP5 DUP6 SWAP2 DUP13 PUSH2 0x4BB4 JUMP JUMPDEST PUSH2 0x42DC JUMP JUMPDEST SWAP6 PUSH2 0x4194 JUMP JUMPDEST SWAP5 ADD SWAP2 SWAP1 PUSH2 0x4C6E JUMP JUMPDEST PUSH2 0x18F DUP1 SLOAD NUMBER LT ISZERO PUSH2 0x4D29 JUMPI POP JUMP JUMPDEST PUSH2 0x137 SLOAD PUSH1 0x0 JUMPDEST DUP2 DUP2 LT PUSH2 0x4D43 JUMPI POP POP PUSH2 0x190 SLOAD NUMBER ADD SWAP1 SSTORE JUMP JUMPDEST DUP1 DUP1 PUSH32 0x19156E9379C7BBBCE8F646CE5EE30BA860B8F954717405F3D5859A6C1A21AE60 PUSH1 0x1 SWAP4 PUSH2 0x18E PUSH2 0x4D79 PUSH2 0x4C10 DUP4 DUP4 PUSH2 0x3B98 JUMP JUMPDEST SWAP1 PUSH2 0x4D97 PUSH2 0x4D8F PUSH2 0x4D89 DUP6 PUSH2 0x44EE JUMP JUMPDEST DUP5 PUSH2 0x4C23 JUMP JUMPDEST SWAP4 DUP5 SWAP3 PUSH2 0x3B98 JUMP JUMPDEST POP SSTORE MLOAD PUSH1 0x40 SWAP2 DUP3 MLOAD SWAP2 DUP3 MSTORE PUSH1 0x20 DUP3 ADD MSTORE LOG2 ADD PUSH2 0x4D30 JUMP JUMPDEST PUSH1 0xA4 PUSH2 0x4E5A SWAP2 PUSH2 0x4DD1 PUSH1 0x1 PUSH1 0x20 SWAP6 PUSH2 0x4DC4 PUSH2 0x4F4F JUMP JUMPDEST PUSH2 0x4DCC PUSH2 0x5F78 JUMP JUMPDEST PUSH2 0x4EB2 JUMP JUMPDEST SWAP7 SWAP1 SWAP6 PUSH1 0x40 MLOAD SWAP3 PUSH2 0x4DE3 PUSH1 0xA0 DUP6 PUSH2 0x3BB4 JUMP JUMPDEST DUP4 MSTORE DUP6 DUP4 ADD DUP8 SWAP1 MSTORE CALLER PUSH1 0x40 DUP1 DUP6 ADD SWAP2 DUP3 MSTORE PUSH1 0x1 PUSH1 0x1 PUSH1 0xA0 SHL SUB SWAP3 DUP4 AND PUSH1 0x60 DUP7 ADD SWAP1 DUP2 MSTORE SWAP4 DUP4 AND PUSH1 0x80 DUP7 ADD SWAP1 DUP2 MSTORE PUSH2 0x14F SLOAD SWAP2 MLOAD PUSH4 0xE97A4D63 PUSH1 0xE0 SHL DUP2 MSTORE DUP7 MLOAD PUSH1 0x4 DUP3 ADD MSTORE PUSH1 0x20 SWAP1 SWAP7 ADD MLOAD PUSH1 0x24 DUP8 ADD MSTORE SWAP2 MLOAD DUP4 AND PUSH1 0x44 DUP7 ADD MSTORE SWAP3 MLOAD DUP3 AND PUSH1 0x64 DUP6 ADD MSTORE MLOAD DUP2 AND PUSH1 0x84 DUP5 ADD MSTORE SWAP2 SWAP7 DUP8 SWAP5 DUP6 SWAP4 SWAP2 SWAP3 SWAP1 SWAP2 AND SWAP1 JUMP JUMPDEST GAS CALL SWAP2 DUP3 ISZERO PUSH2 0x45C2 JUMPI PUSH1 0x0 SWAP3 PUSH2 0x4E7F JUMPI JUMPDEST POP PUSH2 0x4E7A PUSH2 0x14E SWAP2 DUP3 SLOAD PUSH2 0x4194 JUMP JUMPDEST SWAP1 SSTORE SWAP1 JUMP JUMPDEST SWAP1 SWAP2 PUSH1 0x20 DUP3 RETURNDATASIZE DUP3 GT PUSH2 0x4EAA JUMPI JUMPDEST DUP2 PUSH2 0x4E99 PUSH1 0x20 SWAP4 DUP4 PUSH2 0x3BB4 JUMP JUMPDEST DUP2 ADD SUB SLT PUSH2 0x7E8 JUMPI POP MLOAD SWAP1 CODESIZE PUSH2 0x4E6B JUMP JUMPDEST RETURNDATASIZE SWAP2 POP PUSH2 0x4E8C JUMP JUMPDEST PUSH2 0x14F SLOAD PUSH1 0x40 MLOAD PUSH4 0x24524EA1 PUSH1 0xE0 SHL DUP2 MSTORE SWAP4 SWAP3 PUSH1 0x1 PUSH1 0x1 PUSH1 0xA0 SHL SUB SWAP1 SWAP2 AND SWAP1 PUSH1 0xA DUP2 LT ISZERO PUSH2 0x4F39 JUMPI PUSH1 0x44 DUP6 PUSH1 0x20 SWAP4 DUP2 SWAP4 PUSH1 0x4 DUP4 ADD MSTORE DUP6 PUSH1 0x24 DUP4 ADD MSTORE GAS STATICCALL SWAP3 DUP4 ISZERO PUSH2 0x45C2 JUMPI PUSH1 0x0 SWAP4 PUSH2 0x4F06 JUMPI JUMPDEST POP DUP3 SWAP1 SUB SWAP2 SWAP1 JUMP JUMPDEST SWAP1 SWAP3 PUSH1 0x20 DUP3 RETURNDATASIZE DUP3 GT PUSH2 0x4F31 JUMPI JUMPDEST DUP2 PUSH2 0x4F20 PUSH1 0x20 SWAP4 DUP4 PUSH2 0x3BB4 JUMP JUMPDEST DUP2 ADD SUB SLT PUSH2 0x7E8 JUMPI POP MLOAD SWAP2 CODESIZE PUSH2 0x4EFE JUMP JUMPDEST RETURNDATASIZE SWAP2 POP PUSH2 0x4F13 JUMP JUMPDEST PUSH4 0x4E487B71 PUSH1 0xE0 SHL PUSH1 0x0 MSTORE PUSH1 0x21 PUSH1 0x4 MSTORE PUSH1 0x24 PUSH1 0x0 REVERT JUMPDEST PUSH1 0xFF PUSH2 0x14B SLOAD PUSH1 0x8 SHR AND PUSH2 0x4F5F JUMPI JUMP JUMPDEST PUSH1 0x40 MLOAD PUSH4 0x1CA61D77 PUSH1 0xE0 SHL DUP2 MSTORE PUSH1 0x4 SWAP1 REVERT JUMPDEST PUSH1 0xC4 SWAP1 PUSH2 0x4E5A SWAP3 SWAP6 SWAP5 PUSH2 0x4F8A PUSH1 0x3 PUSH1 0x20 SWAP7 PUSH2 0x4DC4 PUSH2 0x4F4F JUMP JUMPDEST SWAP8 SWAP1 SWAP7 PUSH1 0x40 MLOAD SWAP4 PUSH2 0x4F9C PUSH1 0xC0 DUP7 PUSH2 0x3BB4 JUMP JUMPDEST PUSH1 0x1 DUP1 PUSH1 0xA0 SHL SUB SWAP4 DUP5 SWAP4 DUP5 DUP1 SWAP4 AND DUP8 MSTORE DUP10 DUP8 ADD MSTORE DUP10 PUSH1 0x40 DUP8 ADD MSTORE CALLER PUSH1 0x60 DUP8 ADD MSTORE AND PUSH1 0x80 DUP6 ADD MSTORE AND PUSH1 0xA0 DUP4 ADD MSTORE PUSH2 0x14F SLOAD AND SWAP6 PUSH1 0x40 MLOAD SWAP7 DUP8 SWAP5 DUP6 SWAP4 PUSH4 0x7E81A821 PUSH1 0xE0 SHL DUP6 MSTORE PUSH1 0x4 DUP6 ADD SWAP1 JUMPDEST PUSH1 0xA0 SWAP1 DUP2 PUSH1 0x1 DUP1 DUP3 SHL SUB SWAP2 DUP3 DUP2 MLOAD AND DUP6 MSTORE PUSH1 0x20 DUP2 ADD MLOAD PUSH1 0x20 DUP7 ADD MSTORE PUSH1 0x40 DUP2 ADD MLOAD PUSH1 0x40 DUP7 ADD MSTORE DUP3 PUSH1 0x60 DUP3 ADD MLOAD AND PUSH1 0x60 DUP7 ADD MSTORE DUP3 PUSH1 0x80 DUP3 ADD MLOAD AND PUSH1 0x80 DUP7 ADD MSTORE ADD MLOAD AND SWAP2 ADD MSTORE JUMP JUMPDEST PUSH1 0xC4 SWAP1 PUSH2 0x4E5A SWAP3 SWAP6 SWAP5 PUSH2 0x5044 PUSH1 0x5 PUSH1 0x20 SWAP7 PUSH2 0x4DC4 PUSH2 0x4F4F JUMP JUMPDEST SWAP8 SWAP1 SWAP7 PUSH1 0x40 MLOAD SWAP4 PUSH2 0x5056 PUSH1 0xC0 DUP7 PUSH2 0x3BB4 JUMP JUMPDEST PUSH1 0x1 DUP1 PUSH1 0xA0 SHL SUB SWAP4 DUP5 SWAP4 DUP5 DUP1 SWAP4 AND DUP8 MSTORE DUP10 DUP8 ADD MSTORE DUP10 PUSH1 0x40 DUP8 ADD MSTORE CALLER PUSH1 0x60 DUP8 ADD MSTORE AND PUSH1 0x80 DUP6 ADD MSTORE AND PUSH1 0xA0 DUP4 ADD MSTORE PUSH2 0x14F SLOAD AND SWAP6 PUSH1 0x40 MLOAD SWAP7 DUP8 SWAP5 DUP6 SWAP4 PUSH4 0x23EC24B5 PUSH1 0xE1 SHL DUP6 MSTORE PUSH1 0x4 DUP6 ADD SWAP1 PUSH2 0x4FE6 JUMP JUMPDEST PUSH2 0x512C SWAP2 SWAP4 SWAP7 SWAP6 PUSH2 0x50BC PUSH1 0x9 PUSH1 0x20 SWAP6 SWAP8 PUSH2 0x4DC4 PUSH2 0x4F4F JUMP JUMPDEST SWAP9 SWAP1 SWAP8 PUSH1 0x40 MLOAD SWAP4 PUSH2 0x50CF PUSH2 0x100 DUP7 PUSH2 0x3BB4 JUMP JUMPDEST PUSH1 0x1 DUP1 PUSH1 0xA0 SHL SUB SWAP4 DUP5 SWAP4 DUP5 DUP1 DUP1 SWAP5 AND SWAP11 DUP12 DUP10 MSTORE AND DUP10 DUP9 ADD MSTORE DUP11 PUSH1 0x40 DUP9 ADD MSTORE PUSH1 0x60 DUP8 ADD MSTORE DUP11 PUSH1 0x80 DUP8 ADD MSTORE CALLER PUSH1 0xA0 DUP8 ADD MSTORE AND PUSH1 0xC0 DUP6 ADD MSTORE AND PUSH1 0xE0 DUP4 ADD MSTORE PUSH2 0x14F SLOAD AND SWAP1 PUSH1 0x40 MLOAD SWAP8 DUP9 DUP1 SWAP5 DUP2 SWAP4 PUSH4 0x34975A41 PUSH1 0xE0 SHL DUP4 MSTORE PUSH1 0x4 DUP4 ADD PUSH2 0x5191 JUMP JUMPDEST SUB SWAP3 GAS CALL SWAP4 DUP5 ISZERO PUSH2 0x45C2 JUMPI PUSH1 0x0 SWAP5 PUSH2 0x515C JUMPI JUMPDEST POP SWAP1 PUSH2 0x514E SWAP2 ADDRESS SWAP1 CALLER SWAP1 PUSH2 0x51F5 JUMP JUMPDEST PUSH2 0x4E7A PUSH2 0x14E SWAP2 DUP3 SLOAD PUSH2 0x4194 JUMP JUMPDEST SWAP1 SWAP4 PUSH1 0x20 DUP3 RETURNDATASIZE DUP3 GT PUSH2 0x5189 JUMPI JUMPDEST DUP2 PUSH2 0x5176 PUSH1 0x20 SWAP4 DUP4 PUSH2 0x3BB4 JUMP JUMPDEST DUP2 ADD SUB SLT PUSH2 0x7E8 JUMPI POP MLOAD SWAP3 PUSH2 0x514E PUSH2 0x513F JUMP JUMPDEST RETURNDATASIZE SWAP2 POP PUSH2 0x5169 JUMP JUMPDEST SWAP2 SWAP1 SWAP2 PUSH1 0xE0 PUSH2 0x100 DUP3 ADD SWAP4 DUP2 PUSH1 0x1 DUP1 PUSH1 0xA0 SHL SUB SWAP2 DUP3 DUP2 MLOAD AND DUP6 MSTORE DUP3 PUSH1 0x20 DUP3 ADD MLOAD AND PUSH1 0x20 DUP7 ADD MSTORE PUSH1 0x40 DUP2 ADD MLOAD PUSH1 0x40 DUP7 ADD MSTORE PUSH1 0x60 DUP2 ADD MLOAD PUSH1 0x60 DUP7 ADD MSTORE PUSH1 0x80 DUP2 ADD MLOAD PUSH1 0x80 DUP7 ADD MSTORE DUP3 PUSH1 0xA0 DUP3 ADD MLOAD AND PUSH1 0xA0 DUP7 ADD MSTORE DUP3 PUSH1 0xC0 DUP3 ADD MLOAD AND PUSH1 0xC0 DUP7 ADD MSTORE ADD MLOAD AND SWAP2 ADD MSTORE JUMP JUMPDEST PUSH1 0x40 MLOAD PUSH4 0x23B872DD PUSH1 0xE0 SHL PUSH1 0x20 DUP3 ADD MSTORE PUSH1 0x1 PUSH1 0x1 PUSH1 0xA0 SHL SUB SWAP3 DUP4 AND PUSH1 0x24 DUP3 ADD MSTORE SWAP3 SWAP1 SWAP2 AND PUSH1 0x44 DUP4 ADD MSTORE PUSH1 0x64 DUP3 ADD SWAP3 SWAP1 SWAP3 MSTORE PUSH2 0x3B1D SWAP2 PUSH2 0x5241 DUP3 PUSH1 0x84 DUP2 ADD JUMPDEST SUB PUSH1 0x1F NOT DUP2 ADD DUP5 MSTORE DUP4 PUSH2 0x3BB4 JUMP JUMPDEST PUSH2 0x52E9 JUMP JUMPDEST PUSH2 0x5250 PUSH1 0x20 PUSH2 0x3BEC JUMP JUMPDEST SWAP1 PUSH2 0x525E PUSH1 0x40 MLOAD SWAP3 DUP4 PUSH2 0x3BB4 JUMP JUMPDEST PUSH1 0x20 DUP3 MSTORE PUSH32 0x5361666545524332303A206C6F772D6C6576656C2063616C6C206661696C6564 PUSH1 0x20 DUP4 ADD MSTORE JUMP JUMPDEST ISZERO PUSH2 0x5291 JUMPI JUMP JUMPDEST PUSH1 0x40 MLOAD PUSH3 0x461BCD PUSH1 0xE5 SHL DUP2 MSTORE PUSH1 0x20 PUSH1 0x4 DUP3 ADD MSTORE PUSH1 0x2A PUSH1 0x24 DUP3 ADD MSTORE PUSH32 0x5361666545524332303A204552433230206F7065726174696F6E20646964206E PUSH1 0x44 DUP3 ADD MSTORE PUSH10 0x1BDD081CDD58D8D95959 PUSH1 0xB2 SHL PUSH1 0x64 DUP3 ADD MSTORE PUSH1 0x84 SWAP1 REVERT JUMPDEST PUSH2 0x531F SWAP2 SWAP1 PUSH1 0x1 PUSH1 0x1 PUSH1 0xA0 SHL SUB AND PUSH1 0x0 DUP1 PUSH2 0x5302 PUSH2 0x5246 JUMP JUMPDEST SWAP4 PUSH2 0x530D PUSH1 0x1 PUSH2 0x5359 JUMP JUMPDEST PUSH1 0x20 DUP2 MLOAD SWAP2 ADD DUP3 DUP6 GAS CALL PUSH2 0x3EAB PUSH2 0x4038 JUMP JUMPDEST DUP1 MLOAD DUP1 ISZERO SWAP1 DUP2 ISZERO PUSH2 0x5336 JUMPI JUMPDEST POP PUSH2 0x3B1D SWAP2 POP PUSH2 0x528A JUMP JUMPDEST PUSH1 0x20 SWAP2 POP DUP3 SWAP1 DUP2 ADD SUB SLT PUSH2 0x7E3 JUMPI PUSH2 0x5353 PUSH1 0x20 PUSH2 0x3B1D SWAP3 ADD PUSH2 0x4535 JUMP JUMPDEST CODESIZE PUSH2 0x532B JUMP JUMPDEST ISZERO PUSH2 0x5360 JUMPI JUMP JUMPDEST PUSH1 0x40 MLOAD PUSH3 0x461BCD PUSH1 0xE5 SHL DUP2 MSTORE PUSH1 0x20 PUSH1 0x4 DUP3 ADD MSTORE PUSH1 0x26 PUSH1 0x24 DUP3 ADD MSTORE PUSH32 0x416464726573733A20696E73756666696369656E742062616C616E636520666F PUSH1 0x44 DUP3 ADD MSTORE PUSH6 0x1C8818D85B1B PUSH1 0xD2 SHL PUSH1 0x64 DUP3 ADD MSTORE PUSH1 0x84 SWAP1 REVERT JUMPDEST SWAP4 SWAP5 PUSH1 0xE4 PUSH2 0x5433 SWAP2 PUSH2 0x53CD PUSH1 0x8 PUSH1 0x20 SWAP6 SWAP8 PUSH2 0x4DC4 PUSH2 0x4F4F JUMP JUMPDEST SWAP9 SWAP1 SWAP8 PUSH1 0x40 MLOAD SWAP3 PUSH2 0x53DF PUSH1 0xE0 DUP6 PUSH2 0x3BB4 JUMP JUMPDEST PUSH1 0x1 DUP1 PUSH1 0xA0 SHL SUB DUP1 SWAP4 DUP2 DUP1 SWAP5 AND SWAP10 DUP11 DUP8 MSTORE DUP12 DUP11 DUP9 ADD MSTORE PUSH1 0x40 DUP8 ADD MSTORE DUP12 PUSH1 0x60 DUP8 ADD MSTORE CALLER PUSH1 0x80 DUP8 ADD MSTORE AND PUSH1 0xA0 DUP6 ADD MSTORE AND PUSH1 0xC0 DUP4 ADD MSTORE PUSH2 0x14F SLOAD AND SWAP8 PUSH1 0x40 MLOAD SWAP9 DUP10 SWAP5 DUP6 SWAP4 PUSH3 0x637447 PUSH1 0xE1 SHL DUP6 MSTORE PUSH1 0x4 DUP6 ADD SWAP1 PUSH2 0x5452 JUMP JUMPDEST GAS CALL SWAP4 DUP5 ISZERO PUSH2 0x45C2 JUMPI PUSH1 0x0 SWAP5 PUSH2 0x515C JUMPI POP SWAP1 PUSH2 0x514E SWAP2 ADDRESS SWAP1 CALLER SWAP1 PUSH2 0x51F5 JUMP JUMPDEST PUSH1 0xC0 SWAP1 DUP2 PUSH1 0x1 DUP1 PUSH1 0xA0 SHL SUB SWAP2 DUP3 DUP2 MLOAD AND DUP6 MSTORE PUSH1 0x20 DUP2 ADD MLOAD PUSH1 0x20 DUP7 ADD MSTORE PUSH1 0x40 DUP2 ADD MLOAD PUSH1 0x40 DUP7 ADD MSTORE PUSH1 0x60 DUP2 ADD MLOAD PUSH1 0x60 DUP7 ADD MSTORE DUP3 PUSH1 0x80 DUP3 ADD MLOAD AND PUSH1 0x80 DUP7 ADD MSTORE DUP3 PUSH1 0xA0 DUP3 ADD MLOAD AND PUSH1 0xA0 DUP7 ADD MSTORE ADD MLOAD AND SWAP2 ADD MSTORE JUMP JUMPDEST PUSH1 0xE4 PUSH2 0x5524 SWAP2 PUSH2 0x54BD PUSH1 0x7 PUSH1 0x20 SWAP6 SWAP8 SWAP10 SWAP9 SWAP7 SWAP10 PUSH2 0x4DC4 PUSH2 0x4F4F JUMP JUMPDEST SWAP9 SWAP1 SWAP8 PUSH1 0x40 MLOAD SWAP3 PUSH2 0x54CF PUSH1 0xE0 DUP6 PUSH2 0x3BB4 JUMP JUMPDEST PUSH1 0x1 DUP1 PUSH1 0xA0 SHL SUB SWAP8 DUP9 SWAP4 DUP5 DUP1 SWAP4 AND DUP7 MSTORE DUP11 DUP10 DUP8 ADD MSTORE PUSH1 0x40 DUP7 ADD MSTORE DUP11 PUSH1 0x60 DUP7 ADD MSTORE CALLER PUSH1 0x80 DUP7 ADD MSTORE AND PUSH1 0xA0 DUP5 ADD MSTORE AND PUSH1 0xC0 DUP3 ADD MSTORE DUP5 PUSH2 0x14F SLOAD AND SWAP8 PUSH1 0x40 MLOAD SWAP9 DUP10 SWAP5 DUP6 SWAP4 PUSH4 0x6B59C22F PUSH1 0xE0 SHL DUP6 MSTORE PUSH1 0x4 DUP6 ADD SWAP1 PUSH2 0x5452 JUMP JUMPDEST GAS CALL SWAP4 DUP5 ISZERO PUSH2 0x45C2 JUMPI PUSH1 0x0 SWAP5 PUSH2 0x5549 JUMPI JUMPDEST POP SWAP1 PUSH2 0x514E SWAP2 PUSH2 0x133 SLOAD AND ADDRESS SWAP1 CALLER SWAP1 PUSH2 0x51F5 JUMP JUMPDEST SWAP1 SWAP4 PUSH1 0x20 DUP3 RETURNDATASIZE DUP3 GT PUSH2 0x5576 JUMPI JUMPDEST DUP2 PUSH2 0x5563 PUSH1 0x20 SWAP4 DUP4 PUSH2 0x3BB4 JUMP JUMPDEST DUP2 ADD SUB SLT PUSH2 0x7E8 JUMPI POP MLOAD SWAP3 PUSH2 0x514E PUSH2 0x5535 JUMP JUMPDEST RETURNDATASIZE SWAP2 POP PUSH2 0x5556 JUMP JUMPDEST SWAP2 SWAP3 SWAP1 SWAP3 PUSH2 0x558A PUSH2 0x4F4F JUMP JUMPDEST PUSH2 0x5592 PUSH2 0x5F78 JUMP JUMPDEST PUSH1 0x40 MLOAD SWAP4 PUSH2 0x55A1 PUSH1 0xA0 DUP7 PUSH2 0x3BB4 JUMP JUMPDEST DUP4 DUP6 MSTORE PUSH1 0x20 DUP1 DUP7 ADD SWAP2 DUP3 MSTORE CALLER PUSH1 0x40 DUP1 DUP9 ADD SWAP2 DUP3 MSTORE PUSH1 0x1 PUSH1 0x1 PUSH1 0xA0 SHL SUB SWAP5 DUP6 AND PUSH1 0x60 DUP10 ADD SWAP1 DUP2 MSTORE SWAP6 DUP6 AND PUSH1 0x80 DUP10 ADD SWAP1 DUP2 MSTORE PUSH2 0x14F SLOAD SWAP2 MLOAD PUSH4 0xFA91A9A5 PUSH1 0xE0 SHL DUP2 MSTORE SWAP9 MLOAD PUSH1 0x4 DUP11 ADD MSTORE SWAP4 MLOAD PUSH1 0x24 DUP10 ADD MSTORE SWAP1 MLOAD DUP5 AND PUSH1 0x44 DUP9 ADD MSTORE SWAP4 MLOAD DUP4 AND PUSH1 0x64 DUP8 ADD MSTORE SWAP1 MLOAD DUP3 AND PUSH1 0x84 DUP7 ADD MSTORE SWAP1 SWAP2 DUP5 SWAP1 PUSH1 0xA4 SWAP1 DUP3 SWAP1 DUP6 AND CALLVALUE SWAP1 GAS CALL SWAP3 DUP4 ISZERO PUSH2 0x45C2 JUMPI PUSH1 0x0 SWAP4 PUSH2 0x563C JUMPI JUMPDEST POP SWAP1 PUSH2 0x3ADE SWAP2 PUSH2 0x133 SLOAD AND ADDRESS SWAP1 CALLER SWAP1 PUSH2 0x51F5 JUMP JUMPDEST SWAP1 SWAP3 PUSH1 0x20 DUP3 RETURNDATASIZE DUP3 GT PUSH2 0x5669 JUMPI JUMPDEST DUP2 PUSH2 0x5656 PUSH1 0x20 SWAP4 DUP4 PUSH2 0x3BB4 JUMP JUMPDEST DUP2 ADD SUB SLT PUSH2 0x7E8 JUMPI POP MLOAD SWAP2 PUSH2 0x3ADE PUSH2 0x5628 JUMP JUMPDEST RETURNDATASIZE SWAP2 POP PUSH2 0x5649 JUMP JUMPDEST PUSH1 0xC4 PUSH1 0x20 SWAP3 SWAP5 PUSH2 0x56E9 SWAP3 PUSH2 0x5683 PUSH2 0x4F4F JUMP JUMPDEST PUSH2 0x568B PUSH2 0x5F78 JUMP JUMPDEST PUSH1 0x40 MLOAD SWAP8 PUSH2 0x569A PUSH1 0xC0 DUP11 PUSH2 0x3BB4 JUMP JUMPDEST PUSH1 0x1 DUP1 PUSH1 0xA0 SHL SUB DUP1 SWAP4 DUP2 DUP1 SWAP5 AND SWAP9 DUP10 DUP13 MSTORE DUP11 DUP10 DUP14 ADD MSTORE PUSH1 0x40 DUP13 ADD MSTORE CALLER PUSH1 0x60 DUP13 ADD MSTORE AND PUSH1 0x80 DUP11 ADD MSTORE AND PUSH1 0xA0 DUP9 ADD MSTORE PUSH2 0x14F SLOAD AND SWAP6 PUSH1 0x40 MLOAD SWAP7 DUP8 SWAP4 DUP5 SWAP3 PUSH4 0x6426C5DB PUSH1 0xE1 SHL DUP5 MSTORE PUSH1 0x4 DUP5 ADD SWAP1 PUSH2 0x4FE6 JUMP JUMPDEST CALLVALUE SWAP1 GAS CALL SWAP3 DUP4 ISZERO PUSH2 0x45C2 JUMPI PUSH1 0x0 SWAP4 PUSH2 0x570B JUMPI JUMPDEST POP SWAP1 PUSH2 0x3ADE SWAP2 ADDRESS SWAP1 CALLER SWAP1 PUSH2 0x51F5 JUMP JUMPDEST SWAP1 SWAP3 PUSH1 0x20 DUP3 RETURNDATASIZE DUP3 GT PUSH2 0x5738 JUMPI JUMPDEST DUP2 PUSH2 0x5725 PUSH1 0x20 SWAP4 DUP4 PUSH2 0x3BB4 JUMP JUMPDEST DUP2 ADD SUB SLT PUSH2 0x7E8 JUMPI POP MLOAD SWAP2 PUSH2 0x3ADE PUSH2 0x56FC JUMP JUMPDEST RETURNDATASIZE SWAP2 POP PUSH2 0x5718 JUMP JUMPDEST SWAP4 SWAP1 SWAP2 SWAP4 PUSH2 0x574C PUSH2 0x4F4F JUMP JUMPDEST PUSH2 0x5754 PUSH2 0x5F78 JUMP JUMPDEST PUSH1 0x40 MLOAD SWAP6 PUSH2 0x5763 PUSH1 0xE0 DUP9 PUSH2 0x3BB4 JUMP JUMPDEST PUSH1 0x1 DUP1 PUSH1 0xA0 SHL SUB DUP1 SWAP4 DUP2 DUP1 SWAP5 AND SWAP7 DUP8 DUP11 MSTORE DUP7 PUSH1 0x20 DUP12 ADD MSTORE DUP9 PUSH1 0x40 DUP12 ADD MSTORE PUSH1 0x60 DUP11 ADD MSTORE CALLER PUSH1 0x80 DUP11 ADD MSTORE AND PUSH1 0xA0 DUP9 ADD MSTORE AND PUSH1 0xC0 DUP7 ADD MSTORE PUSH1 0x20 PUSH2 0x57C1 PUSH1 0xE4 DUP4 PUSH2 0x14F SLOAD AND SWAP8 PUSH1 0x40 MLOAD SWAP9 DUP10 SWAP4 DUP5 SWAP3 PUSH4 0xE4E1B729 PUSH1 0xE0 SHL DUP5 MSTORE PUSH1 0x4 DUP5 ADD SWAP1 PUSH2 0x5452 JUMP JUMPDEST CALLVALUE SWAP1 GAS CALL SWAP5 DUP6 ISZERO PUSH2 0x45C2 JUMPI PUSH1 0x0 SWAP6 PUSH2 0x57F6 JUMPI JUMPDEST POP PUSH2 0x3ADE SWAP4 SWAP3 SWAP2 PUSH2 0x57ED SWAP2 PUSH2 0x133 SLOAD AND ADDRESS SWAP1 CALLER SWAP1 PUSH2 0x51F5 JUMP JUMPDEST ADDRESS SWAP1 CALLER SWAP1 PUSH2 0x51F5 JUMP JUMPDEST SWAP1 SWAP5 PUSH1 0x20 DUP3 RETURNDATASIZE DUP3 GT PUSH2 0x5823 JUMPI JUMPDEST DUP2 PUSH2 0x5810 PUSH1 0x20 SWAP4 DUP4 PUSH2 0x3BB4 JUMP JUMPDEST DUP2 ADD SUB SLT PUSH2 0x7E8 JUMPI POP MLOAD SWAP4 PUSH2 0x3ADE PUSH2 0x57D4 JUMP JUMPDEST RETURNDATASIZE SWAP2 POP PUSH2 0x5803 JUMP JUMPDEST PUSH1 0x40 MLOAD SWAP1 PUSH2 0x583A PUSH1 0x80 DUP4 PUSH2 0x3BB4 JUMP JUMPDEST PUSH1 0x0 PUSH1 0x60 DUP4 DUP3 DUP2 MSTORE DUP3 PUSH1 0x20 DUP3 ADD MSTORE DUP3 PUSH1 0x40 DUP3 ADD MSTORE ADD MSTORE JUMP JUMPDEST SWAP2 SWAP1 DUP3 PUSH1 0xA0 SWAP2 SUB SLT PUSH2 0x7E3 JUMPI PUSH1 0x40 MLOAD PUSH2 0x586C PUSH1 0xA0 DUP3 PUSH2 0x3BB4 JUMP JUMPDEST PUSH1 0x80 PUSH2 0x58AA DUP2 DUP4 SWAP6 DUP1 CALLDATALOAD DUP6 MSTORE PUSH1 0x20 DUP2 ADD CALLDATALOAD PUSH1 0x20 DUP7 ADD MSTORE PUSH2 0x588E PUSH1 0x40 DUP3 ADD PUSH2 0x3A91 JUMP JUMPDEST PUSH1 0x40 DUP7 ADD MSTORE PUSH2 0x589F PUSH1 0x60 DUP3 ADD PUSH2 0x3A91 JUMP JUMPDEST PUSH1 0x60 DUP7 ADD MSTORE ADD PUSH2 0x3A91 JUMP JUMPDEST SWAP2 ADD MSTORE JUMP JUMPDEST SWAP2 SWAP1 PUSH2 0x58BA SWAP1 PUSH2 0x41CB JUMP JUMPDEST SWAP2 SWAP1 SWAP3 PUSH2 0x58C7 DUP4 DUP6 PUSH2 0x4380 JUMP JUMPDEST SWAP1 DUP1 DUP3 GT ISZERO PUSH2 0x58D4 JUMPI POP POP JUMP JUMPDEST PUSH1 0x44 SWAP3 POP PUSH1 0x40 MLOAD SWAP2 PUSH4 0x79121201 PUSH1 0xE0 SHL DUP4 MSTORE PUSH1 0x4 DUP4 ADD MSTORE PUSH1 0x24 DUP3 ADD MSTORE REVERT JUMPDEST SWAP3 SWAP1 SWAP4 SWAP2 PUSH1 0x0 SWAP2 PUSH1 0x0 SWAP2 DUP3 SWAP7 PUSH2 0x5906 PUSH2 0x582B JUMP JUMPDEST SWAP7 PUSH1 0x1 PUSH1 0x1 PUSH1 0xA0 SHL SUB SWAP2 DUP6 SWAP1 DUP4 AND DUP1 PUSH2 0x5B12 JUMPI JUMPDEST POP DUP3 PUSH2 0x12F SLOAD AND DUP4 PUSH1 0x40 MLOAD SWAP4 PUSH4 0x6EB1769F PUSH1 0xE1 SHL DUP6 MSTORE AND DUP1 PUSH1 0x4 DUP6 ADD MSTORE ADDRESS PUSH1 0x24 DUP6 ADD MSTORE PUSH1 0x20 SWAP5 DUP6 DUP6 PUSH1 0x44 DUP2 DUP7 GAS STATICCALL SWAP5 DUP6 ISZERO PUSH2 0x5B07 JUMPI DUP5 SWAP6 PUSH2 0x5AD8 JUMPI JUMPDEST POP DUP5 PUSH2 0x59B7 JUMPI JUMPDEST POP POP POP POP POP DUP7 ADD MLOAD ISZERO PUSH2 0x5973 JUMPI JUMPDEST POP POP POP SWAP3 SWAP2 SWAP1 JUMP JUMPDEST SWAP1 SWAP2 SWAP3 POP PUSH2 0x598B PUSH8 0xDE0B6B3A7640000 SWAP3 DUP4 SWAP3 PUSH2 0x42DC JUMP JUMPDEST DIV DUP1 DUP6 MSTORE SWAP1 DUP3 ISZERO PUSH2 0x59AF JUMPI PUSH2 0x59A7 SWAP3 DIV SWAP1 DUP2 PUSH1 0x40 DUP7 ADD MSTORE PUSH2 0x4194 JUMP JUMPDEST CODESIZE DUP1 DUP1 PUSH2 0x596B JUMP JUMPDEST POP SWAP1 POP PUSH2 0x59A7 JUMP JUMPDEST PUSH2 0x59C5 SWAP1 PUSH2 0x130 SLOAD AND PUSH2 0x455C JUMP JUMPDEST SWAP3 SWAP1 SWAP3 ISZERO PUSH2 0x595D JUMPI SWAP1 SWAP2 SWAP3 SWAP4 SWAP12 POP DUP5 DUP12 PUSH2 0x59FF DUP6 PUSH8 0xDE0B6B3A7640000 PUSH2 0x59F9 PUSH2 0x59EF DUP14 DUP14 PUSH2 0x42DC JUMP JUMPDEST PUSH2 0x143 SLOAD SWAP1 PUSH2 0x42DC JUMP JUMPDEST DIV PUSH2 0x42EF JUMP JUMPDEST DUP2 DUP4 ADD DUP2 DUP2 MSTORE SWAP6 SWAP1 DUP12 ISZERO PUSH2 0x5ACE JUMPI POP PUSH2 0x5A2A SWAP2 PUSH2 0x5A1E PUSH1 0x60 SWAP3 DUP14 PUSH2 0x42EF JUMP JUMPDEST SWAP2 DUP3 SWAP2 ADD MSTORE DUP6 MLOAD PUSH2 0x4194 JUMP JUMPDEST DUP1 SWAP14 JUMPDEST LT SWAP3 DUP4 ISZERO PUSH2 0x5A59 JUMPI JUMPDEST POP POP POP PUSH2 0x5A46 JUMPI JUMPDEST DUP1 DUP1 DUP1 PUSH2 0x595D JUMP JUMPDEST DUP2 SWAP3 SWAP10 POP MSTORE DUP1 PUSH1 0x60 DUP9 ADD MSTORE SWAP7 CODESIZE DUP1 PUSH2 0x5A3E JUMP JUMPDEST SWAP1 SWAP2 SWAP3 POP PUSH1 0x24 PUSH1 0x40 MLOAD DUP1 SWAP5 DUP2 SWAP4 PUSH4 0x70A08231 PUSH1 0xE0 SHL DUP4 MSTORE PUSH1 0x4 DUP4 ADD MSTORE GAS STATICCALL SWAP1 DUP2 ISZERO PUSH2 0x5AC3 JUMPI SWAP1 DUP12 SWAP2 DUP5 SWAP2 PUSH2 0x5A92 JUMPI JUMPDEST POP LT CODESIZE DUP5 DUP2 PUSH2 0x5A36 JUMP JUMPDEST DUP1 SWAP3 POP DUP6 DUP1 SWAP3 POP RETURNDATASIZE DUP4 GT PUSH2 0x5ABC JUMPI JUMPDEST PUSH2 0x5AAB DUP2 DUP4 PUSH2 0x3BB4 JUMP JUMPDEST DUP2 ADD SUB SLT PUSH2 0x9D3 JUMPI DUP11 SWAP1 MLOAD CODESIZE PUSH2 0x5A88 JUMP JUMPDEST POP RETURNDATASIZE PUSH2 0x5AA1 JUMP JUMPDEST PUSH1 0x40 MLOAD RETURNDATASIZE DUP6 DUP3 RETURNDATACOPY RETURNDATASIZE SWAP1 REVERT JUMPDEST SWAP2 POP POP DUP1 SWAP14 PUSH2 0x5A2D JUMP JUMPDEST SWAP1 SWAP5 POP DUP6 DUP2 DUP2 RETURNDATASIZE DUP4 GT PUSH2 0x5B00 JUMPI JUMPDEST PUSH2 0x5AF0 DUP2 DUP4 PUSH2 0x3BB4 JUMP JUMPDEST DUP2 ADD SUB SLT PUSH2 0xB06 JUMPI MLOAD SWAP4 CODESIZE PUSH2 0x5956 JUMP JUMPDEST POP RETURNDATASIZE PUSH2 0x5AE6 JUMP JUMPDEST PUSH1 0x40 MLOAD RETURNDATASIZE DUP7 DUP3 RETURNDATACOPY RETURNDATASIZE SWAP1 REVERT JUMPDEST SWAP1 SWAP6 POP PUSH1 0x20 DUP4 PUSH2 0x1C3 SLOAD AND SWAP2 PUSH1 0x24 PUSH1 0x40 MLOAD DUP1 SWAP5 DUP2 SWAP4 PUSH4 0x64A731E9 PUSH1 0xE0 SHL DUP4 MSTORE PUSH1 0x4 DUP4 ADD MSTORE GAS STATICCALL DUP1 ISZERO PUSH2 0x5B8A JUMPI DUP7 SWAP1 PUSH2 0x5B57 JUMPI JUMPDEST PUSH2 0x5B50 SWAP2 POP DUP5 PUSH2 0x42DC JUMP JUMPDEST SWAP5 CODESIZE PUSH2 0x591A JUMP JUMPDEST POP PUSH1 0x20 DUP2 RETURNDATASIZE DUP3 GT PUSH2 0x5B82 JUMPI JUMPDEST DUP2 PUSH2 0x5B70 PUSH1 0x20 SWAP4 DUP4 PUSH2 0x3BB4 JUMP JUMPDEST DUP2 ADD SUB SLT PUSH2 0x2BDA JUMPI PUSH2 0x5B50 SWAP1 MLOAD PUSH2 0x5B45 JUMP JUMPDEST RETURNDATASIZE SWAP2 POP PUSH2 0x5B63 JUMP JUMPDEST PUSH1 0x40 MLOAD RETURNDATASIZE DUP9 DUP3 RETURNDATACOPY RETURNDATASIZE SWAP1 REVERT JUMPDEST SWAP3 PUSH2 0x3B1D SWAP5 SWAP2 SWAP3 SWAP4 DUP3 MLOAD ISZERO ISZERO PUSH1 0x0 EQ PUSH2 0x5C05 JUMPI POP PUSH1 0x40 PUSH2 0x5C00 SWAP3 PUSH2 0x5BF8 PUSH8 0xDE0B6B3A7640000 PUSH2 0x5BCA PUSH2 0x13B SLOAD DUP5 MLOAD SWAP1 PUSH2 0x42DC JUMP JUMPDEST DIV PUSH2 0x131 PUSH2 0x5BD9 DUP3 DUP3 SLOAD PUSH2 0x4194 JUMP JUMPDEST SWAP1 SSTORE PUSH2 0x5BF2 PUSH1 0x1 DUP1 PUSH1 0xA0 SHL SUB PUSH2 0x146 SLOAD AND SWAP2 DUP5 MLOAD PUSH2 0x439E JUMP JUMPDEST SWAP1 PUSH2 0x413C JUMP JUMPDEST ADD MLOAD SWAP1 PUSH2 0x413C JUMP JUMPDEST PUSH2 0x413C JUMP JUMPDEST SWAP1 PUSH1 0x60 PUSH2 0x5C00 SWAP4 PUSH2 0x5C27 PUSH1 0x1 DUP1 PUSH1 0xA0 SHL SUB PUSH2 0x146 SLOAD AND PUSH1 0x20 DUP4 ADD MLOAD SWAP1 DUP7 PUSH2 0x5C2B JUMP JUMPDEST ADD MLOAD SWAP2 JUMPDEST SWAP2 SWAP1 DUP2 PUSH2 0x5C37 JUMPI POP POP POP JUMP JUMPDEST PUSH2 0x12F SLOAD PUSH1 0x40 MLOAD PUSH4 0x23B872DD PUSH1 0xE0 SHL PUSH1 0x20 DUP3 ADD SWAP1 DUP2 MSTORE PUSH1 0x1 PUSH1 0x1 PUSH1 0xA0 SHL SUB SWAP6 DUP7 AND PUSH1 0x24 DUP4 ADD MSTORE SWAP3 DUP6 AND PUSH1 0x44 DUP3 ADD MSTORE PUSH1 0x64 DUP1 DUP3 ADD SWAP5 SWAP1 SWAP5 MSTORE SWAP3 DUP4 MSTORE PUSH2 0x531F SWAP4 AND SWAP1 PUSH1 0x0 SWAP1 DUP2 SWAP1 PUSH2 0x5C87 PUSH1 0x84 DUP7 PUSH2 0x3BB4 JUMP JUMPDEST PUSH2 0x5C8F PUSH2 0x5246 JUMP JUMPDEST SWAP5 PUSH2 0x5C9A PUSH1 0x1 PUSH2 0x5359 JUMP JUMPDEST MLOAD SWAP1 DUP3 DUP6 GAS CALL PUSH2 0x3EAB PUSH2 0x4038 JUMP JUMPDEST SWAP2 SWAP1 DUP3 PUSH1 0xC0 SWAP2 SUB SLT PUSH2 0x7E3 JUMPI PUSH1 0x40 MLOAD PUSH2 0x5CC2 PUSH1 0xC0 DUP3 PUSH2 0x3BB4 JUMP JUMPDEST PUSH1 0xA0 PUSH2 0x58AA DUP2 DUP4 SWAP6 PUSH2 0x5CD3 DUP2 PUSH2 0x3A91 JUMP JUMPDEST DUP6 MSTORE PUSH1 0x20 DUP2 ADD CALLDATALOAD PUSH1 0x20 DUP7 ADD MSTORE PUSH1 0x40 DUP2 ADD CALLDATALOAD PUSH1 0x40 DUP7 ADD MSTORE PUSH2 0x5CF5 PUSH1 0x60 DUP3 ADD PUSH2 0x3A91 JUMP JUMPDEST PUSH1 0x60 DUP7 ADD MSTORE PUSH2 0x5D06 PUSH1 0x80 DUP3 ADD PUSH2 0x3A91 JUMP JUMPDEST PUSH1 0x80 DUP7 ADD MSTORE ADD PUSH2 0x3A91 JUMP JUMPDEST SWAP1 PUSH2 0x5D1E SWAP5 SWAP4 SWAP3 SWAP2 PUSH2 0x4AB1 JUMP JUMPDEST PUSH1 0x0 DUP2 SLT PUSH2 0x4B8E JUMPI SWAP1 JUMP JUMPDEST DUP1 PUSH2 0x5D32 PUSH2 0x46B1 JUMP JUMPDEST SWAP2 SWAP1 SWAP4 PUSH2 0x5D3F PUSH1 0x0 PUSH2 0x4608 JUMP JUMPDEST SWAP5 ADD SWAP4 DUP3 SWAP2 PUSH2 0x5DD7 JUMPI JUMPDEST ADD SWAP4 DUP5 PUSH1 0x0 DUP1 DUP3 SLT PUSH2 0x5DD1 JUMPI POP JUMPDEST DUP5 SUB SWAP2 DUP2 DUP6 GT PUSH2 0x5D99 JUMPI POP POP DUP2 DUP2 GT PUSH2 0x5D7B JUMPI POP POP PUSH2 0x155 SSTORE PUSH2 0x156 SSTORE NUMBER PUSH2 0x157 SSTORE JUMP JUMPDEST PUSH1 0x44 SWAP3 POP PUSH1 0x40 MLOAD SWAP2 PUSH4 0x6DA41E5 PUSH1 0xE1 SHL DUP4 MSTORE PUSH1 0x4 DUP4 ADD MSTORE PUSH1 0x24 DUP3 ADD MSTORE REVERT JUMPDEST SWAP1 DUP1 DUP6 SWAP3 GT PUSH2 0x5DBF JUMPI PUSH1 0x44 SWAP2 PUSH1 0x40 MLOAD SWAP2 PUSH4 0x6DA41E5 PUSH1 0xE1 SHL DUP4 MSTORE PUSH1 0x4 DUP4 ADD MSTORE PUSH1 0x24 DUP3 ADD MSTORE REVERT JUMPDEST PUSH1 0x40 MLOAD PUSH4 0xFB4FD35 PUSH1 0xE1 SHL DUP2 MSTORE PUSH1 0x4 SWAP1 REVERT JUMPDEST SUB PUSH2 0x5D57 JUMP JUMPDEST SWAP1 POP DUP2 PUSH1 0x0 SUB SWAP1 PUSH2 0x5D49 JUMP JUMPDEST DUP1 SWAP2 SUB PUSH1 0xE0 DUP2 SLT PUSH2 0x7E3 JUMPI DUP2 MLOAD SWAP3 PUSH1 0x20 DUP4 ADD MLOAD SWAP3 PUSH1 0x80 PUSH1 0x40 DUP3 ADD MLOAD SWAP4 PUSH1 0x5F NOT ADD SLT PUSH2 0x7E3 JUMPI PUSH1 0xC0 PUSH1 0x40 MLOAD SWAP2 PUSH2 0x5E19 PUSH1 0x80 DUP5 PUSH2 0x3BB4 JUMP JUMPDEST PUSH1 0x60 DUP2 ADD MLOAD DUP4 MSTORE PUSH1 0x80 DUP2 ADD MLOAD PUSH1 0x20 DUP5 ADD MSTORE PUSH1 0xA0 DUP2 ADD MLOAD PUSH1 0x40 DUP5 ADD MSTORE ADD MLOAD PUSH1 0x60 DUP3 ADD MSTORE SWAP1 JUMP JUMPDEST SWAP2 SWAP1 DUP3 PUSH1 0xE0 SWAP2 SUB SLT PUSH2 0x7E3 JUMPI PUSH1 0x40 MLOAD PUSH2 0x5E58 PUSH1 0xE0 DUP3 PUSH2 0x3BB4 JUMP JUMPDEST PUSH1 0xC0 PUSH2 0x58AA DUP2 DUP4 SWAP6 PUSH2 0x5E69 DUP2 PUSH2 0x3A91 JUMP JUMPDEST DUP6 MSTORE PUSH1 0x20 DUP2 ADD CALLDATALOAD PUSH1 0x20 DUP7 ADD MSTORE PUSH1 0x40 DUP2 ADD CALLDATALOAD PUSH1 0x40 DUP7 ADD MSTORE PUSH1 0x60 DUP2 ADD CALLDATALOAD PUSH1 0x60 DUP7 ADD MSTORE PUSH2 0x5E95 PUSH1 0x80 DUP3 ADD PUSH2 0x3A91 JUMP JUMPDEST PUSH1 0x80 DUP7 ADD MSTORE PUSH2 0x5EA6 PUSH1 0xA0 DUP3 ADD PUSH2 0x3A91 JUMP JUMPDEST PUSH1 0xA0 DUP7 ADD MSTORE ADD PUSH2 0x3A91 JUMP JUMPDEST PUSH1 0x40 MLOAD PUSH4 0xA9059CBB PUSH1 0xE0 SHL PUSH1 0x20 DUP3 ADD MSTORE PUSH1 0x1 PUSH1 0x1 PUSH1 0xA0 SHL SUB SWAP1 SWAP3 AND PUSH1 0x24 DUP4 ADD MSTORE PUSH1 0x44 DUP3 ADD SWAP3 SWAP1 SWAP3 MSTORE PUSH2 0x3B1D SWAP2 PUSH2 0x5241 DUP3 PUSH1 0x64 DUP2 ADD PUSH2 0x5233 JUMP JUMPDEST PUSH1 0x97 SLOAD PUSH1 0x40 MLOAD PUSH4 0xD994D6D5 PUSH1 0xE0 SHL DUP2 MSTORE CALLER PUSH1 0x4 DUP3 ADD MSTORE SWAP1 PUSH1 0x20 SWAP1 DUP3 SWAP1 PUSH1 0x24 SWAP1 DUP3 SWAP1 PUSH1 0x1 PUSH1 0x1 PUSH1 0xA0 SHL SUB AND GAS STATICCALL SWAP1 DUP2 ISZERO PUSH2 0x45C2 JUMPI PUSH1 0x0 SWAP2 PUSH2 0x5F3F JUMPI JUMPDEST POP ISZERO PUSH2 0x5F2D JUMPI JUMP JUMPDEST PUSH1 0x40 MLOAD PUSH4 0x1DD1B1B5 PUSH1 0xE2 SHL DUP2 MSTORE PUSH1 0x4 SWAP1 REVERT JUMPDEST SWAP1 PUSH1 0x20 DUP3 RETURNDATASIZE DUP3 GT PUSH2 0x5F70 JUMPI JUMPDEST DUP2 PUSH2 0x5F58 PUSH1 0x20 SWAP4 DUP4 PUSH2 0x3BB4 JUMP JUMPDEST DUP2 ADD SUB SLT PUSH2 0x7E8 JUMPI POP PUSH2 0x5F6A SWAP1 PUSH2 0x4535 JUMP JUMPDEST CODESIZE PUSH2 0x5F25 JUMP JUMPDEST RETURNDATASIZE SWAP2 POP PUSH2 0x5F4B JUMP JUMPDEST PUSH1 0xFF PUSH1 0xCA SLOAD PUSH1 0x8 SHR AND PUSH2 0x5F87 JUMPI JUMP JUMPDEST PUSH1 0x40 MLOAD PUSH4 0x783BB6C9 PUSH1 0xE1 SHL DUP2 MSTORE PUSH1 0x4 SWAP1 REVERT JUMPDEST SWAP1 PUSH8 0xDE0B6B3A7640000 SWAP2 DUP3 DUP2 MUL SWAP3 DUP2 DUP5 DIV EQ SWAP1 ISZERO OR ISZERO PUSH2 0x41A1 JUMPI PUSH2 0x3ADE SWAP2 PUSH2 0x42EF JUMP JUMPDEST PUSH8 0xDE0B6B3A7640000 LT PUSH2 0x5FCD JUMPI JUMP JUMPDEST PUSH1 0x40 MLOAD PUSH4 0x2A9FFAB7 PUSH1 0xE2 SHL DUP2 MSTORE PUSH1 0x4 SWAP1 REVERT INVALID LOG2 PUSH5 0x6970667358 0x22 SLT KECCAK256 STATICCALL DUP5 SWAP6 0xC 0xB3 PUSH12 0x749E0090FC2896E82126C4E7 0xAE CALLER JUMPI REVERT SWAP10 PUSH23 0xC8DBED55E8D3924364736F6C6343000814003300000000 "
    },
    "gasEstimates": {
      "creation": {
        "codeDepositCost": "4919400",
        "executionCost": "infinite",
        "totalCost": "infinite"
      },
      "external": {
        "absoluteAccumulator()": "5286",
        "addPeggedToken((address,address,uint256,uint256,uint256,uint256,uint256))": "infinite",
        "appreciationFactor()": "5814",
        "bes()": "3328",
        "bns()": "2580",
        "calcCtargemaCA()": "infinite",
        "changeGovernor(address)": "infinite",
        "coinbaseFailedTransferFallback()": "5791",
        "decayBlockSpan()": "3944",
        "differentialAccumulator()": "4054",
        "editPeggedToken((address,address,uint256,uint256,uint256,uint256,uint256))": "infinite",
        "emaCalculationBlockSpan()": "4208",
        "evalLiquidation()": "infinite",
        "execMintTC((uint256,uint256,address,address,address))": "infinite",
        "execMintTCandTP((address,uint256,uint256,address,address,address))": "infinite",
        "execMintTP((address,uint256,uint256,address,address,address))": "infinite",
        "execRedeemTC((uint256,uint256,address,address,address))": "infinite",
        "execRedeemTCandTP((address,uint256,uint256,uint256,address,address,address))": "infinite",
        "execRedeemTP((address,uint256,uint256,address,address,address))": "infinite",
        "execSettlement()": "infinite",
        "execSwapTCforTP((address,uint256,uint256,uint256,address,address,address))": "infinite",
        "execSwapTPforTC((address,uint256,uint256,uint256,address,address,address))": "infinite",
        "execSwapTPforTP((address,address,uint256,uint256,uint256,address,address,address))": "infinite",
        "feeRetainer()": "3372",
        "feeToken()": "3789",
        "feeTokenPct()": "2866",
        "feeTokenPriceProvider()": "5681",
        "getBts()": "5689",
        "getCglb()": "infinite",
        "getCustomMockValue()": "5743",
        "getLckAC()": "infinite",
        "getLeverageTC()": "infinite",
        "getPACtp(address)": "infinite",
        "getPTCac()": "infinite",
        "getTCAvailableToRedeem()": "infinite",
        "getTPAvailableToMint(address)": "infinite",
        "getTotalACavailable()": "infinite",
        "governor()": "2403",
        "initialize((((address,address,address,address,address,address,uint256,uint256,uint256,uint256,uint256,uint256,uint256,uint256,uint256,uint256,uint256,uint256,uint256,uint256,address,uint256,uint256,address,address,uint256),address,address,address,uint256,address),uint256,address))": "infinite",
        "initializeMock()": "23680",
        "isLiquidationReached()": "infinite",
        "lastOperationBlockNumber()": "3592",
        "liqEnabled()": "5562",
        "liqRedeemTP(address)": "infinite",
        "liqRedeemTPto(address,address)": "infinite",
        "liqThrld()": "4494",
        "liquidated()": "2730",
        "makeStoppable()": "infinite",
        "makeUnstoppable()": "infinite",
        "maxAbsoluteOpProvider()": "5637",
        "maxOpDiffProvider()": "4911",
        "maxQACToMintTP()": "infinite",
        "maxQACToRedeemTP()": "infinite",
        "mintTC(uint256)": "infinite",
        "mintTCViaVendor(uint256,address)": "infinite",
        "mintTCandTP(address,uint256)": "infinite",
        "mintTCandTPFee()": "4142",
        "mintTCandTPViaVendor(address,uint256,address)": "infinite",
        "mintTCandTPto(address,uint256,address)": "infinite",
        "mintTCandTPtoViaVendor(address,uint256,address,address)": "infinite",
        "mintTCto(uint256,address)": "infinite",
        "mintTCtoViaVendor(uint256,address,address)": "infinite",
        "mintTP(address,uint256)": "infinite",
        "mintTPViaVendor(address,uint256,address)": "infinite",
        "mintTPto(address,uint256,address)": "infinite",
        "mintTPtoViaVendor(address,uint256,address,address)": "infinite",
        "mocAppreciationBeneficiaryAddress()": "3371",
        "mocFeeFlowAddress()": "4647",
        "mocQueue()": "2557",
        "mocVendors()": "4317",
        "nACcb()": "5726",
        "nTCcb()": "4164",
        "newVariable()": "4516",
        "nextEmaCalculation()": "2404",
        "nextTCInterestPayment()": "4912",
        "pause()": "29738",
        "paused()": "3676",
        "pauser()": "4766",
        "pegContainer(uint256)": "9783",
        "peggedTokenIndex(address)": "6964",
        "protThrld()": "3922",
        "proxiableUUID()": "infinite",
        "qACLockedInPending()": "3680",
        "redeemTC(uint256,uint256)": "infinite",
        "redeemTCViaVendor(uint256,uint256,address)": "infinite",
        "redeemTCandTP(address,uint256,uint256,uint256)": "infinite",
        "redeemTCandTPFee()": "5748",
        "redeemTCandTPViaVendor(address,uint256,uint256,uint256,address)": "infinite",
        "redeemTCandTPto(address,uint256,uint256,uint256,address)": "infinite",
        "redeemTCandTPtoViaVendor(address,uint256,uint256,uint256,address,address)": "infinite",
        "redeemTCto(uint256,uint256,address)": "infinite",
        "redeemTCtoViaVendor(uint256,uint256,address,address)": "infinite",
        "redeemTP(address,uint256,uint256)": "infinite",
        "redeemTPViaVendor(address,uint256,uint256,address)": "infinite",
        "redeemTPto(address,uint256,uint256,address)": "infinite",
        "redeemTPtoViaVendor(address,uint256,uint256,address,address)": "infinite",
        "setAppreciationFactor(uint256)": "infinite",
        "setBes(uint256)": "infinite",
        "setDecayBlockSpan(uint256)": "infinite",
        "setEmaCalculationBlockSpan(uint256)": "infinite",
        "setFeeRetainer(uint256)": "infinite",
        "setFeeTokenAddress(address)": "infinite",
        "setFeeTokenPct(uint256)": "infinite",
        "setFeeTokenPriceProviderAddress(address)": "infinite",
        "setLiqEnabled(bool)": "infinite",
        "setLiqThrld(uint256)": "infinite",
        "setMaxAbsoluteOpProviderAddress(address)": "infinite",
        "setMaxOpDiffProviderAddress(address)": "infinite",
        "setMintTCandTPFee(uint256)": "infinite",
        "setMocAppreciationBeneficiaryAddress(address)": "infinite",
        "setMocCoreExpansion(address)": "infinite",
        "setMocFeeFlowAddress(address)": "infinite",
        "setMocQueue(address)": "infinite",
        "setMocVendors(address)": "infinite",
        "setPauser(address)": "infinite",
        "setProtThrld(uint256)": "infinite",
        "setRedeemTCandTPFee(uint256)": "infinite",
        "setSuccessFee(uint256)": "infinite",
        "setSwapTCforTPFee(uint256)": "infinite",
        "setSwapTPforTCFee(uint256)": "infinite",
        "setSwapTPforTPFee(uint256)": "infinite",
        "setTCInterestCollectorAddress(address)": "infinite",
        "setTCInterestPaymentBlockSpan(uint256)": "infinite",
        "setTCInterestRate(uint256)": "infinite",
        "setTcMintFee(uint256)": "infinite",
        "setTcRedeemFee(uint256)": "infinite",
        "setTransferMAxGas(uint256)": "infinite",
        "shouldCalculateEma()": "4766",
        "stoppable()": "4946",
        "successFee()": "4032",
        "swapTCforTP(address,uint256,uint256)": "infinite",
        "swapTCforTPFee()": "2800",
        "swapTCforTPViaVendor(address,uint256,uint256,address)": "infinite",
        "swapTCforTPto(address,uint256,uint256,address)": "infinite",
        "swapTCforTPtoViaVendor(address,uint256,uint256,address,address)": "infinite",
        "swapTPforTC(address,uint256,uint256)": "infinite",
        "swapTPforTCFee()": "2910",
        "swapTPforTCViaVendor(address,uint256,uint256,address)": "infinite",
        "swapTPforTCto(address,uint256,uint256,address)": "infinite",
        "swapTPforTCtoViaVendor(address,uint256,uint256,address,address)": "infinite",
        "swapTPforTP(address,address,uint256,uint256)": "infinite",
        "swapTPforTPFee()": "3174",
        "swapTPforTPViaVendor(address,address,uint256,uint256,address)": "infinite",
        "swapTPforTPto(address,address,uint256,uint256,address)": "infinite",
        "swapTPforTPtoViaVendor(address,address,uint256,uint256,address,address)": "infinite",
        "tcHoldersInterestPayment()": "infinite",
        "tcInterestCollectorAddress()": "4559",
        "tcInterestPaymentBlockSpan()": "4340",
        "tcInterestRate()": "2470",
        "tcMintFee()": "5897",
        "tcRedeemFee()": "4802",
        "tcToken()": "3767",
        "tpCtarg(uint256)": "8640",
        "tpEma(uint256)": "12006",
        "tpLiqPrices(uint256)": "7364",
        "tpMintFees(address)": "2868",
        "tpRedeemFees(address)": "5508",
        "tpTokens(uint256)": "6678",
        "transferMaxGas()": "5594",
        "unlockACInPending(address,uint256)": "infinite",
        "unlockTCInPending(address,uint256)": "infinite",
        "unlockTPInPending(address,address,uint256)": "infinite",
        "unpause()": "26332",
        "updateEmas()": "infinite",
        "upgradeTo(address)": "infinite",
        "upgradeToAndCall(address,bytes)": "infinite"
      }
    },
    "methodIdentifiers": {
      "absoluteAccumulator()": "d87aab6f",
      "addPeggedToken((address,address,uint256,uint256,uint256,uint256,uint256))": "db796072",
      "appreciationFactor()": "fa6e83bd",
      "bes()": "4d977e78",
      "bns()": "1867e2f5",
      "calcCtargemaCA()": "662013f4",
      "changeGovernor(address)": "e4c0aaf4",
      "coinbaseFailedTransferFallback()": "f3772886",
      "decayBlockSpan()": "6f30471f",
      "differentialAccumulator()": "76228055",
      "editPeggedToken((address,address,uint256,uint256,uint256,uint256,uint256))": "f26114aa",
      "emaCalculationBlockSpan()": "7a727fe8",
      "evalLiquidation()": "33421c38",
      "execMintTC((uint256,uint256,address,address,address))": "235e81cf",
      "execMintTCandTP((address,uint256,uint256,address,address,address))": "883d21cb",
      "execMintTP((address,uint256,uint256,address,address,address))": "b4434c32",
      "execRedeemTC((uint256,uint256,address,address,address))": "bfe42621",
      "execRedeemTCandTP((address,uint256,uint256,uint256,address,address,address))": "d8c69aec",
      "execRedeemTP((address,uint256,uint256,address,address,address))": "ad4e666d",
      "execSettlement()": "5c616a73",
      "execSwapTCforTP((address,uint256,uint256,uint256,address,address,address))": "4af3a6fc",
      "execSwapTPforTC((address,uint256,uint256,uint256,address,address,address))": "bc4e55b2",
      "execSwapTPforTP((address,address,uint256,uint256,uint256,address,address,address))": "391bf6cf",
      "feeRetainer()": "4f0f27ee",
      "feeToken()": "647846a5",
      "feeTokenPct()": "2ded50f0",
      "feeTokenPriceProvider()": "f13f4054",
      "getBts()": "e8859a15",
      "getCglb()": "826fcd58",
      "getCustomMockValue()": "57271f4d",
      "getLckAC()": "8f1a383a",
      "getLeverageTC()": "c039cc69",
      "getPACtp(address)": "fadda424",
      "getPTCac()": "1fb0dda0",
      "getTCAvailableToRedeem()": "4017936a",
      "getTPAvailableToMint(address)": "f88b1434",
      "getTotalACavailable()": "de8d520a",
      "governor()": "0c340a24",
      "initialize((((address,address,address,address,address,address,uint256,uint256,uint256,uint256,uint256,uint256,uint256,uint256,uint256,uint256,uint256,uint256,uint256,uint256,address,uint256,uint256,address,address,uint256),address,address,address,uint256,address),uint256,address))": "963dcc98",
      "initializeMock()": "5e2a6065",
      "isLiquidationReached()": "9ad6659d",
      "lastOperationBlockNumber()": "5860ee63",
      "liqEnabled()": "e7c25978",
      "liqRedeemTP(address)": "17937f9b",
      "liqRedeemTPto(address,address)": "9bea71a4",
      "liqThrld()": "8cfa4241",
      "liquidated()": "23b98cde",
      "makeStoppable()": "68274357",
      "makeUnstoppable()": "5210570c",
      "maxAbsoluteOpProvider()": "ee1f438f",
      "maxOpDiffProvider()": "b5e9ea8c",
      "maxQACToMintTP()": "d6af11da",
      "maxQACToRedeemTP()": "7f13b998",
      "mintTC(uint256)": "31f64ec2",
      "mintTCViaVendor(uint256,address)": "d8233ecc",
      "mintTCandTP(address,uint256)": "4c6af8e8",
      "mintTCandTPFee()": "79f9a91c",
      "mintTCandTPViaVendor(address,uint256,address)": "960556f3",
      "mintTCandTPto(address,uint256,address)": "d471849b",
      "mintTCandTPtoViaVendor(address,uint256,address,address)": "79873a26",
      "mintTCto(uint256,address)": "b3903b39",
      "mintTCtoViaVendor(uint256,address,address)": "fb3bfcea",
      "mintTP(address,uint256)": "243d56a5",
      "mintTPViaVendor(address,uint256,address)": "3b0d5fff",
      "mintTPto(address,uint256,address)": "51a9cedc",
      "mintTPtoViaVendor(address,uint256,address,address)": "dd9928d8",
      "mocAppreciationBeneficiaryAddress()": "4e1f907a",
      "mocFeeFlowAddress()": "9853c35a",
      "mocQueue()": "13ed7ba5",
      "mocVendors()": "7f01c715",
      "nACcb()": "f30b5614",
      "nTCcb()": "7a193c31",
      "newVariable()": "8d7a72f3",
      "nextEmaCalculation()": "0c36d897",
      "nextTCInterestPayment()": "b9fa6413",
      "pause()": "8456cb59",
      "paused()": "5c975abb",
      "pauser()": "9fd0506d",
      "pegContainer(uint256)": "4b746001",
      "peggedTokenIndex(address)": "9cabfc00",
      "protThrld()": "6b5488df",
      "proxiableUUID()": "52d1902d",
      "qACLockedInPending()": "5cfbe578",
      "redeemTC(uint256,uint256)": "9abb14c9",
      "redeemTCViaVendor(uint256,uint256,address)": "471a80e3",
      "redeemTCandTP(address,uint256,uint256,uint256)": "34246862",
      "redeemTCandTPFee()": "f375cfba",
      "redeemTCandTPViaVendor(address,uint256,uint256,uint256,address)": "aeb41e69",
      "redeemTCandTPto(address,uint256,uint256,uint256,address)": "fd80fa77",
      "redeemTCandTPtoViaVendor(address,uint256,uint256,uint256,address,address)": "5ece17ef",
      "redeemTCto(uint256,uint256,address)": "e4012945",
      "redeemTCtoViaVendor(uint256,uint256,address,address)": "3dbc50a9",
      "redeemTP(address,uint256,uint256)": "466b8934",
      "redeemTPViaVendor(address,uint256,uint256,address)": "8acc2011",
      "redeemTPto(address,uint256,uint256,address)": "52e18f8f",
      "redeemTPtoViaVendor(address,uint256,uint256,address,address)": "89fd503e",
      "setAppreciationFactor(uint256)": "01dde6ef",
      "setBes(uint256)": "c84353c9",
      "setDecayBlockSpan(uint256)": "73e28af9",
      "setEmaCalculationBlockSpan(uint256)": "3bc4ac0a",
      "setFeeRetainer(uint256)": "7750ba0c",
      "setFeeTokenAddress(address)": "cf351c1d",
      "setFeeTokenPct(uint256)": "543aeb48",
      "setFeeTokenPriceProviderAddress(address)": "0f1e5e2b",
      "setLiqEnabled(bool)": "1fe6a7ad",
      "setLiqThrld(uint256)": "2c43bd3b",
      "setMaxAbsoluteOpProviderAddress(address)": "d8db6f5a",
      "setMaxOpDiffProviderAddress(address)": "85bf9593",
      "setMintTCandTPFee(uint256)": "2069f753",
      "setMocAppreciationBeneficiaryAddress(address)": "27eab2a1",
      "setMocCoreExpansion(address)": "e6a683e0",
      "setMocFeeFlowAddress(address)": "0d6ac463",
      "setMocQueue(address)": "3cfb09ef",
      "setMocVendors(address)": "533a4bea",
      "setPauser(address)": "2d88af4a",
      "setProtThrld(uint256)": "7cba2383",
      "setRedeemTCandTPFee(uint256)": "7a4ff1d9",
      "setSuccessFee(uint256)": "becaca6b",
      "setSwapTCforTPFee(uint256)": "7af5758c",
      "setSwapTPforTCFee(uint256)": "0e0a8fd2",
      "setSwapTPforTPFee(uint256)": "70713468",
      "setTCInterestCollectorAddress(address)": "735d3960",
      "setTCInterestPaymentBlockSpan(uint256)": "073763b9",
      "setTCInterestRate(uint256)": "64ec230a",
      "setTcMintFee(uint256)": "f2808778",
      "setTcRedeemFee(uint256)": "c00f538d",
      "setTransferMAxGas(uint256)": "c4cb376c",
      "shouldCalculateEma()": "a8e9ac30",
      "stoppable()": "bb4872de",
      "successFee()": "7554fffd",
      "swapTCforTP(address,uint256,uint256)": "eedd8a40",
      "swapTCforTPFee()": "2a20d57d",
      "swapTCforTPViaVendor(address,uint256,uint256,address)": "cc75b048",
      "swapTCforTPto(address,uint256,uint256,address)": "69d9c2f2",
      "swapTCforTPtoViaVendor(address,uint256,uint256,address,address)": "7636bb09",
      "swapTPforTC(address,uint256,uint256)": "1af4b229",
      "swapTPforTCFee()": "333431fd",
      "swapTPforTCViaVendor(address,uint256,uint256,address)": "bf1ad8b1",
      "swapTPforTCto(address,uint256,uint256,address)": "68748a42",
      "swapTPforTCtoViaVendor(address,uint256,uint256,address,address)": "4a587124",
      "swapTPforTP(address,address,uint256,uint256)": "c0d8e15e",
      "swapTPforTPFee()": "407f0e34",
      "swapTPforTPViaVendor(address,address,uint256,uint256,address)": "0d10ebe9",
      "swapTPforTPto(address,address,uint256,uint256,address)": "68a09e13",
      "swapTPforTPtoViaVendor(address,address,uint256,uint256,address,address)": "0b69640d",
      "tcHoldersInterestPayment()": "0579188f",
      "tcInterestCollectorAddress()": "8e2bdb86",
      "tcInterestPaymentBlockSpan()": "7f4a4fe0",
      "tcInterestRate()": "0db49656",
      "tcMintFee()": "fda70f8b",
      "tcRedeemFee()": "aea038dc",
      "tcToken()": "60009e0b",
      "tpCtarg(uint256)": "7d8e0314",
      "tpEma(uint256)": "e6b1627c",
      "tpLiqPrices(uint256)": "3915edcb",
      "tpMintFees(address)": "24ffaba3",
      "tpRedeemFees(address)": "ddb6d190",
      "tpTokens(uint256)": "01f1b684",
      "transferMaxGas()": "ea70b99e",
      "unlockACInPending(address,uint256)": "58f32de9",
      "unlockTCInPending(address,uint256)": "53b16d17",
      "unlockTPInPending(address,address,uint256)": "e2c5e990",
      "unpause()": "3f4ba83a",
      "updateEmas()": "d1a0faa0",
      "upgradeTo(address)": "3659cfe6",
      "upgradeToAndCall(address,bytes)": "4f1ef286"
    }
  },
  "storageLayout": {
    "storage": [
      {
        "astId": 950,
        "contract": "contracts/mocks/upgradeability/MocUpgradeMocks.sol:MocCoinbaseMock",
        "label": "_initialized",
        "offset": 0,
        "slot": "0",
        "type": "t_uint8"
      },
      {
        "astId": 953,
        "contract": "contracts/mocks/upgradeability/MocUpgradeMocks.sol:MocCoinbaseMock",
        "label": "_initializing",
        "offset": 1,
        "slot": "0",
        "type": "t_bool"
      },
      {
        "astId": 932,
        "contract": "contracts/mocks/upgradeability/MocUpgradeMocks.sol:MocCoinbaseMock",
        "label": "__gap",
        "offset": 0,
        "slot": "1",
        "type": "t_array(t_uint256)50_storage"
      },
      {
        "astId": 1247,
        "contract": "contracts/mocks/upgradeability/MocUpgradeMocks.sol:MocCoinbaseMock",
        "label": "__gap",
        "offset": 0,
        "slot": "51",
        "type": "t_array(t_uint256)50_storage"
      },
      {
        "astId": 28019,
        "contract": "contracts/mocks/upgradeability/MocUpgradeMocks.sol:MocCoinbaseMock",
        "label": "__gap",
        "offset": 0,
        "slot": "101",
        "type": "t_array(t_uint256)50_storage"
      },
      {
        "astId": 20601,
        "contract": "contracts/mocks/upgradeability/MocUpgradeMocks.sol:MocCoinbaseMock",
        "label": "governor",
        "offset": 0,
        "slot": "151",
        "type": "t_contract(IGovernor)21376"
      },
      {
        "astId": 20672,
        "contract": "contracts/mocks/upgradeability/MocUpgradeMocks.sol:MocCoinbaseMock",
        "label": "__gap",
        "offset": 0,
        "slot": "152",
        "type": "t_array(t_uint256)50_storage"
      },
      {
        "astId": 20741,
        "contract": "contracts/mocks/upgradeability/MocUpgradeMocks.sol:MocCoinbaseMock",
        "label": "stoppable",
        "offset": 0,
        "slot": "202",
        "type": "t_bool"
      },
      {
        "astId": 20743,
        "contract": "contracts/mocks/upgradeability/MocUpgradeMocks.sol:MocCoinbaseMock",
        "label": "_paused",
        "offset": 1,
        "slot": "202",
        "type": "t_bool"
      },
      {
        "astId": 20745,
        "contract": "contracts/mocks/upgradeability/MocUpgradeMocks.sol:MocCoinbaseMock",
        "label": "pauser",
        "offset": 2,
        "slot": "202",
        "type": "t_address"
      },
      {
        "astId": 20904,
        "contract": "contracts/mocks/upgradeability/MocUpgradeMocks.sol:MocCoinbaseMock",
        "label": "__gap",
        "offset": 0,
        "slot": "203",
        "type": "t_array(t_uint256)50_storage"
      },
      {
        "astId": 20723,
        "contract": "contracts/mocks/upgradeability/MocUpgradeMocks.sol:MocCoinbaseMock",
        "label": "__gap",
        "offset": 0,
        "slot": "253",
        "type": "t_array(t_uint256)50_storage"
      },
      {
        "astId": 10197,
        "contract": "contracts/mocks/upgradeability/MocUpgradeMocks.sol:MocCoinbaseMock",
        "label": "feeToken",
        "offset": 0,
        "slot": "303",
        "type": "t_contract(IERC20)6209"
      },
      {
        "astId": 10200,
        "contract": "contracts/mocks/upgradeability/MocUpgradeMocks.sol:MocCoinbaseMock",
        "label": "feeTokenPriceProvider",
        "offset": 0,
        "slot": "304",
        "type": "t_contract(IPriceProvider)21414"
      },
      {
        "astId": 10202,
        "contract": "contracts/mocks/upgradeability/MocUpgradeMocks.sol:MocCoinbaseMock",
        "label": "nACcb",
        "offset": 0,
        "slot": "305",
        "type": "t_uint256"
      },
      {
        "astId": 10204,
        "contract": "contracts/mocks/upgradeability/MocUpgradeMocks.sol:MocCoinbaseMock",
        "label": "nACioucb",
        "offset": 0,
        "slot": "306",
        "type": "t_uint256"
      },
      {
        "astId": 10207,
        "contract": "contracts/mocks/upgradeability/MocUpgradeMocks.sol:MocCoinbaseMock",
        "label": "tcToken",
        "offset": 0,
        "slot": "307",
        "type": "t_contract(MocTC)27844"
      },
      {
        "astId": 10209,
        "contract": "contracts/mocks/upgradeability/MocUpgradeMocks.sol:MocCoinbaseMock",
        "label": "nTCcb",
        "offset": 0,
        "slot": "308",
        "type": "t_uint256"
      },
      {
        "astId": 10213,
        "contract": "contracts/mocks/upgradeability/MocUpgradeMocks.sol:MocCoinbaseMock",
        "label": "tpTokens",
        "offset": 0,
        "slot": "309",
        "type": "t_array(t_contract(IMocRC20)21402)dyn_storage"
      },
      {
        "astId": 10218,
        "contract": "contracts/mocks/upgradeability/MocUpgradeMocks.sol:MocCoinbaseMock",
        "label": "peggedTokenIndex",
        "offset": 0,
        "slot": "310",
        "type": "t_mapping(t_address,t_struct(PeggedTokenIndex)10141_storage)"
      },
      {
        "astId": 10222,
        "contract": "contracts/mocks/upgradeability/MocUpgradeMocks.sol:MocCoinbaseMock",
        "label": "pegContainer",
        "offset": 0,
        "slot": "311",
        "type": "t_array(t_struct(PegContainerItem)10136_storage)dyn_storage"
      },
      {
        "astId": 10225,
        "contract": "contracts/mocks/upgradeability/MocUpgradeMocks.sol:MocCoinbaseMock",
        "label": "tpLiqPrices",
        "offset": 0,
        "slot": "312",
        "type": "t_array(t_uint256)dyn_storage"
      },
      {
        "astId": 10227,
        "contract": "contracts/mocks/upgradeability/MocUpgradeMocks.sol:MocCoinbaseMock",
        "label": "successFee",
        "offset": 0,
        "slot": "313",
        "type": "t_uint256"
      },
      {
        "astId": 10229,
        "contract": "contracts/mocks/upgradeability/MocUpgradeMocks.sol:MocCoinbaseMock",
        "label": "appreciationFactor",
        "offset": 0,
        "slot": "314",
        "type": "t_uint256"
      },
      {
        "astId": 10231,
        "contract": "contracts/mocks/upgradeability/MocUpgradeMocks.sol:MocCoinbaseMock",
        "label": "feeRetainer",
        "offset": 0,
        "slot": "315",
        "type": "t_uint256"
      },
      {
        "astId": 10233,
        "contract": "contracts/mocks/upgradeability/MocUpgradeMocks.sol:MocCoinbaseMock",
        "label": "tcMintFee",
        "offset": 0,
        "slot": "316",
        "type": "t_uint256"
      },
      {
        "astId": 10235,
        "contract": "contracts/mocks/upgradeability/MocUpgradeMocks.sol:MocCoinbaseMock",
        "label": "tcRedeemFee",
        "offset": 0,
        "slot": "317",
        "type": "t_uint256"
      },
      {
        "astId": 10237,
        "contract": "contracts/mocks/upgradeability/MocUpgradeMocks.sol:MocCoinbaseMock",
        "label": "swapTPforTPFee",
        "offset": 0,
        "slot": "318",
        "type": "t_uint256"
      },
      {
        "astId": 10239,
        "contract": "contracts/mocks/upgradeability/MocUpgradeMocks.sol:MocCoinbaseMock",
        "label": "swapTPforTCFee",
        "offset": 0,
        "slot": "319",
        "type": "t_uint256"
      },
      {
        "astId": 10241,
        "contract": "contracts/mocks/upgradeability/MocUpgradeMocks.sol:MocCoinbaseMock",
        "label": "swapTCforTPFee",
        "offset": 0,
        "slot": "320",
        "type": "t_uint256"
      },
      {
        "astId": 10243,
        "contract": "contracts/mocks/upgradeability/MocUpgradeMocks.sol:MocCoinbaseMock",
        "label": "redeemTCandTPFee",
        "offset": 0,
        "slot": "321",
        "type": "t_uint256"
      },
      {
        "astId": 10245,
        "contract": "contracts/mocks/upgradeability/MocUpgradeMocks.sol:MocCoinbaseMock",
        "label": "mintTCandTPFee",
        "offset": 0,
        "slot": "322",
        "type": "t_uint256"
      },
      {
        "astId": 10247,
        "contract": "contracts/mocks/upgradeability/MocUpgradeMocks.sol:MocCoinbaseMock",
        "label": "feeTokenPct",
        "offset": 0,
        "slot": "323",
        "type": "t_uint256"
      },
      {
        "astId": 10251,
        "contract": "contracts/mocks/upgradeability/MocUpgradeMocks.sol:MocCoinbaseMock",
        "label": "tpMintFees",
        "offset": 0,
        "slot": "324",
        "type": "t_mapping(t_address,t_uint256)"
      },
      {
        "astId": 10255,
        "contract": "contracts/mocks/upgradeability/MocUpgradeMocks.sol:MocCoinbaseMock",
        "label": "tpRedeemFees",
        "offset": 0,
        "slot": "325",
        "type": "t_mapping(t_address,t_uint256)"
      },
      {
        "astId": 10257,
        "contract": "contracts/mocks/upgradeability/MocUpgradeMocks.sol:MocCoinbaseMock",
        "label": "mocFeeFlowAddress",
        "offset": 0,
        "slot": "326",
        "type": "t_address"
      },
      {
        "astId": 10259,
        "contract": "contracts/mocks/upgradeability/MocUpgradeMocks.sol:MocCoinbaseMock",
        "label": "mocAppreciationBeneficiaryAddress",
        "offset": 0,
        "slot": "327",
        "type": "t_address"
      },
      {
        "astId": 10262,
        "contract": "contracts/mocks/upgradeability/MocUpgradeMocks.sol:MocCoinbaseMock",
        "label": "tpCtarg",
        "offset": 0,
        "slot": "328",
        "type": "t_array(t_uint256)dyn_storage"
      },
      {
        "astId": 10264,
        "contract": "contracts/mocks/upgradeability/MocUpgradeMocks.sol:MocCoinbaseMock",
        "label": "protThrld",
        "offset": 0,
        "slot": "329",
        "type": "t_uint256"
      },
      {
        "astId": 10266,
        "contract": "contracts/mocks/upgradeability/MocUpgradeMocks.sol:MocCoinbaseMock",
        "label": "liqThrld",
        "offset": 0,
        "slot": "330",
        "type": "t_uint256"
      },
      {
        "astId": 10268,
        "contract": "contracts/mocks/upgradeability/MocUpgradeMocks.sol:MocCoinbaseMock",
        "label": "liqEnabled",
        "offset": 0,
        "slot": "331",
        "type": "t_bool"
      },
      {
        "astId": 10270,
        "contract": "contracts/mocks/upgradeability/MocUpgradeMocks.sol:MocCoinbaseMock",
        "label": "liquidated",
        "offset": 1,
        "slot": "331",
        "type": "t_bool"
      },
      {
        "astId": 10272,
        "contract": "contracts/mocks/upgradeability/MocUpgradeMocks.sol:MocCoinbaseMock",
        "label": "bes",
        "offset": 0,
        "slot": "332",
        "type": "t_uint256"
      },
      {
        "astId": 10274,
        "contract": "contracts/mocks/upgradeability/MocUpgradeMocks.sol:MocCoinbaseMock",
        "label": "bns",
        "offset": 0,
        "slot": "333",
        "type": "t_uint256"
      },
      {
        "astId": 10276,
        "contract": "contracts/mocks/upgradeability/MocUpgradeMocks.sol:MocCoinbaseMock",
        "label": "qACLockedInPending",
        "offset": 0,
        "slot": "334",
        "type": "t_uint256"
      },
      {
        "astId": 10278,
        "contract": "contracts/mocks/upgradeability/MocUpgradeMocks.sol:MocCoinbaseMock",
        "label": "mocQueue",
        "offset": 0,
        "slot": "335",
        "type": "t_address"
      },
      {
        "astId": 10281,
        "contract": "contracts/mocks/upgradeability/MocUpgradeMocks.sol:MocCoinbaseMock",
        "label": "tpiou",
        "offset": 0,
        "slot": "336",
        "type": "t_array(t_int256)dyn_storage"
      },
      {
        "astId": 10284,
        "contract": "contracts/mocks/upgradeability/MocUpgradeMocks.sol:MocCoinbaseMock",
        "label": "pACtpLstop",
        "offset": 0,
        "slot": "337",
        "type": "t_array(t_uint256)dyn_storage"
      },
      {
        "astId": 10287,
        "contract": "contracts/mocks/upgradeability/MocUpgradeMocks.sol:MocCoinbaseMock",
        "label": "maxAbsoluteOpProvider",
        "offset": 0,
        "slot": "338",
        "type": "t_contract(IDataProvider)21355"
      },
      {
        "astId": 10290,
        "contract": "contracts/mocks/upgradeability/MocUpgradeMocks.sol:MocCoinbaseMock",
        "label": "maxOpDiffProvider",
        "offset": 0,
        "slot": "339",
        "type": "t_contract(IDataProvider)21355"
      },
      {
        "astId": 10292,
        "contract": "contracts/mocks/upgradeability/MocUpgradeMocks.sol:MocCoinbaseMock",
        "label": "decayBlockSpan",
        "offset": 0,
        "slot": "340",
        "type": "t_uint256"
      },
      {
        "astId": 10294,
        "contract": "contracts/mocks/upgradeability/MocUpgradeMocks.sol:MocCoinbaseMock",
        "label": "absoluteAccumulator",
        "offset": 0,
        "slot": "341",
        "type": "t_uint256"
      },
      {
        "astId": 10296,
        "contract": "contracts/mocks/upgradeability/MocUpgradeMocks.sol:MocCoinbaseMock",
        "label": "differentialAccumulator",
        "offset": 0,
        "slot": "342",
        "type": "t_int256"
      },
      {
        "astId": 10298,
        "contract": "contracts/mocks/upgradeability/MocUpgradeMocks.sol:MocCoinbaseMock",
        "label": "lastOperationBlockNumber",
        "offset": 0,
        "slot": "343",
        "type": "t_uint256"
      },
      {
        "astId": 10300,
        "contract": "contracts/mocks/upgradeability/MocUpgradeMocks.sol:MocCoinbaseMock",
        "label": "tcInterestCollectorAddress",
        "offset": 0,
        "slot": "344",
        "type": "t_address"
      },
      {
        "astId": 10302,
        "contract": "contracts/mocks/upgradeability/MocUpgradeMocks.sol:MocCoinbaseMock",
        "label": "tcInterestRate",
        "offset": 0,
        "slot": "345",
        "type": "t_uint256"
      },
      {
        "astId": 10304,
        "contract": "contracts/mocks/upgradeability/MocUpgradeMocks.sol:MocCoinbaseMock",
        "label": "tcInterestPaymentBlockSpan",
        "offset": 0,
        "slot": "346",
        "type": "t_uint256"
      },
      {
        "astId": 10306,
        "contract": "contracts/mocks/upgradeability/MocUpgradeMocks.sol:MocCoinbaseMock",
        "label": "nextTCInterestPayment",
        "offset": 0,
        "slot": "347",
        "type": "t_uint256"
      },
      {
        "astId": 11909,
        "contract": "contracts/mocks/upgradeability/MocUpgradeMocks.sol:MocCoinbaseMock",
        "label": "__gap",
        "offset": 0,
        "slot": "348",
        "type": "t_array(t_uint256)50_storage"
      },
      {
        "astId": 15698,
        "contract": "contracts/mocks/upgradeability/MocUpgradeMocks.sol:MocCoinbaseMock",
        "label": "tpEma",
        "offset": 0,
        "slot": "398",
        "type": "t_array(t_struct(EmaItem)15694_storage)dyn_storage"
      },
      {
        "astId": 15700,
        "contract": "contracts/mocks/upgradeability/MocUpgradeMocks.sol:MocCoinbaseMock",
        "label": "nextEmaCalculation",
        "offset": 0,
        "slot": "399",
        "type": "t_uint256"
      },
      {
        "astId": 15702,
        "contract": "contracts/mocks/upgradeability/MocUpgradeMocks.sol:MocCoinbaseMock",
        "label": "emaCalculationBlockSpan",
        "offset": 0,
        "slot": "400",
        "type": "t_uint256"
      },
      {
        "astId": 16074,
        "contract": "contracts/mocks/upgradeability/MocUpgradeMocks.sol:MocCoinbaseMock",
        "label": "__gap",
        "offset": 0,
        "slot": "401",
        "type": "t_array(t_uint256)50_storage"
      },
      {
        "astId": 11943,
        "contract": "contracts/mocks/upgradeability/MocUpgradeMocks.sol:MocCoinbaseMock",
        "label": "mocVendors",
        "offset": 0,
        "slot": "451",
        "type": "t_contract(MocVendors)28149"
      },
      {
        "astId": 12816,
        "contract": "contracts/mocks/upgradeability/MocUpgradeMocks.sol:MocCoinbaseMock",
        "label": "__gap",
        "offset": 0,
        "slot": "452",
        "type": "t_array(t_uint256)50_storage"
      },
      {
        "astId": 12865,
        "contract": "contracts/mocks/upgradeability/MocUpgradeMocks.sol:MocCoinbaseMock",
        "label": "mocCoreExpansion",
        "offset": 0,
        "slot": "502",
        "type": "t_address"
      },
      {
        "astId": 14471,
        "contract": "contracts/mocks/upgradeability/MocUpgradeMocks.sol:MocCoinbaseMock",
        "label": "__gap",
        "offset": 0,
        "slot": "503",
        "type": "t_array(t_uint256)50_storage"
      },
      {
        "astId": 8458,
        "contract": "contracts/mocks/upgradeability/MocUpgradeMocks.sol:MocCoinbaseMock",
        "label": "transferMaxGas",
        "offset": 0,
        "slot": "553",
        "type": "t_uint256"
      },
      {
        "astId": 8460,
        "contract": "contracts/mocks/upgradeability/MocUpgradeMocks.sol:MocCoinbaseMock",
        "label": "coinbaseFailedTransferFallback",
        "offset": 0,
        "slot": "554",
        "type": "t_address"
      },
      {
        "astId": 9254,
        "contract": "contracts/mocks/upgradeability/MocUpgradeMocks.sol:MocCoinbaseMock",
        "label": "__gap",
        "offset": 0,
        "slot": "555",
        "type": "t_array(t_uint256)50_storage"
      },
      {
        "astId": 24333,
        "contract": "contracts/mocks/upgradeability/MocUpgradeMocks.sol:MocCoinbaseMock",
        "label": "newVariable",
        "offset": 0,
        "slot": "605",
        "type": "t_uint256"
      }
    ],
    "types": {
      "t_address": {
        "encoding": "inplace",
        "label": "address",
        "numberOfBytes": "20"
      },
      "t_array(t_contract(IMocRC20)21402)dyn_storage": {
        "base": "t_contract(IMocRC20)21402",
        "encoding": "dynamic_array",
        "label": "contract IMocRC20[]",
        "numberOfBytes": "32"
      },
      "t_array(t_int256)dyn_storage": {
        "base": "t_int256",
        "encoding": "dynamic_array",
        "label": "int256[]",
        "numberOfBytes": "32"
      },
      "t_array(t_struct(EmaItem)15694_storage)dyn_storage": {
        "base": "t_struct(EmaItem)15694_storage",
        "encoding": "dynamic_array",
        "label": "struct MocEma.EmaItem[]",
        "numberOfBytes": "32"
      },
      "t_array(t_struct(PegContainerItem)10136_storage)dyn_storage": {
        "base": "t_struct(PegContainerItem)10136_storage",
        "encoding": "dynamic_array",
        "label": "struct MocBaseBucket.PegContainerItem[]",
        "numberOfBytes": "32"
      },
      "t_array(t_uint256)50_storage": {
        "base": "t_uint256",
        "encoding": "inplace",
        "label": "uint256[50]",
        "numberOfBytes": "1600"
      },
      "t_array(t_uint256)dyn_storage": {
        "base": "t_uint256",
        "encoding": "dynamic_array",
        "label": "uint256[]",
        "numberOfBytes": "32"
      },
      "t_bool": {
        "encoding": "inplace",
        "label": "bool",
        "numberOfBytes": "1"
      },
      "t_contract(IDataProvider)21355": {
        "encoding": "inplace",
        "label": "contract IDataProvider",
        "numberOfBytes": "20"
      },
      "t_contract(IERC20)6209": {
        "encoding": "inplace",
        "label": "contract IERC20",
        "numberOfBytes": "20"
      },
      "t_contract(IGovernor)21376": {
        "encoding": "inplace",
        "label": "contract IGovernor",
        "numberOfBytes": "20"
      },
      "t_contract(IMocRC20)21402": {
        "encoding": "inplace",
        "label": "contract IMocRC20",
        "numberOfBytes": "20"
      },
      "t_contract(IPriceProvider)21414": {
        "encoding": "inplace",
        "label": "contract IPriceProvider",
        "numberOfBytes": "20"
      },
      "t_contract(MocTC)27844": {
        "encoding": "inplace",
        "label": "contract MocTC",
        "numberOfBytes": "20"
      },
      "t_contract(MocVendors)28149": {
        "encoding": "inplace",
        "label": "contract MocVendors",
        "numberOfBytes": "20"
      },
      "t_int256": {
        "encoding": "inplace",
        "label": "int256",
        "numberOfBytes": "32"
      },
      "t_mapping(t_address,t_struct(PeggedTokenIndex)10141_storage)": {
        "encoding": "mapping",
        "key": "t_address",
        "label": "mapping(address => struct MocBaseBucket.PeggedTokenIndex)",
        "numberOfBytes": "32",
        "value": "t_struct(PeggedTokenIndex)10141_storage"
      },
      "t_mapping(t_address,t_uint256)": {
        "encoding": "mapping",
        "key": "t_address",
        "label": "mapping(address => uint256)",
        "numberOfBytes": "32",
        "value": "t_uint256"
      },
      "t_struct(EmaItem)15694_storage": {
        "encoding": "inplace",
        "label": "struct MocEma.EmaItem",
        "members": [
          {
            "astId": 15691,
            "contract": "contracts/mocks/upgradeability/MocUpgradeMocks.sol:MocCoinbaseMock",
            "label": "ema",
            "offset": 0,
            "slot": "0",
            "type": "t_uint256"
          },
          {
            "astId": 15693,
            "contract": "contracts/mocks/upgradeability/MocUpgradeMocks.sol:MocCoinbaseMock",
            "label": "sf",
            "offset": 0,
            "slot": "1",
            "type": "t_uint256"
          }
        ],
        "numberOfBytes": "64"
      },
      "t_struct(PegContainerItem)10136_storage": {
        "encoding": "inplace",
        "label": "struct MocBaseBucket.PegContainerItem",
        "members": [
          {
            "astId": 10132,
            "contract": "contracts/mocks/upgradeability/MocUpgradeMocks.sol:MocCoinbaseMock",
            "label": "nTP",
            "offset": 0,
            "slot": "0",
            "type": "t_uint256"
          },
          {
            "astId": 10135,
            "contract": "contracts/mocks/upgradeability/MocUpgradeMocks.sol:MocCoinbaseMock",
            "label": "priceProvider",
            "offset": 0,
            "slot": "1",
            "type": "t_contract(IPriceProvider)21414"
          }
        ],
        "numberOfBytes": "64"
      },
      "t_struct(PeggedTokenIndex)10141_storage": {
        "encoding": "inplace",
        "label": "struct MocBaseBucket.PeggedTokenIndex",
        "members": [
          {
            "astId": 10138,
            "contract": "contracts/mocks/upgradeability/MocUpgradeMocks.sol:MocCoinbaseMock",
            "label": "index",
            "offset": 0,
            "slot": "0",
            "type": "t_uint256"
          },
          {
            "astId": 10140,
            "contract": "contracts/mocks/upgradeability/MocUpgradeMocks.sol:MocCoinbaseMock",
            "label": "exists",
            "offset": 0,
            "slot": "1",
            "type": "t_bool"
          }
        ],
        "numberOfBytes": "64"
      },
      "t_uint256": {
        "encoding": "inplace",
        "label": "uint256",
        "numberOfBytes": "32"
      },
      "t_uint8": {
        "encoding": "inplace",
        "label": "uint8",
        "numberOfBytes": "1"
      }
    }
  },
  "userdoc": {
    "kind": "user",
    "methods": {
      "addPeggedToken((address,address,uint256,uint256,uint256,uint256,uint256))": {
        "notice": "add a Pegged Token to the protocol"
      },
      "calcCtargemaCA()": {
        "notice": "calculates target coverage adjusted by all Pegged Token's to Collateral Asset rate moving average"
      },
      "changeGovernor(address)": {
        "notice": "Change the contract's governor. Should be called through the old governance system"
      },
      "editPeggedToken((address,address,uint256,uint256,uint256,uint256,uint256))": {
        "notice": "modifies a Pegged Token of the protocol"
      },
      "evalLiquidation()": {
        "notice": "evaluates if liquidation threshold has been reached and liq is Enabled. If so forces contracts liquidation, blocking all mint & redeem operations. May emit a {ContractLiquidated} event."
      },
      "execMintTC((uint256,uint256,address,address,address))": {
        "notice": "executes Operation based on params, only mocQueue allowed see MocCore _mintTCto for details"
      },
      "execMintTCandTP((address,uint256,uint256,address,address,address))": {
        "notice": "executes Operation based on params, only mocQueue allowed see MocCore _mintTCandTPto for details"
      },
      "execMintTP((address,uint256,uint256,address,address,address))": {
        "notice": "executes Operation based on params, only mocQueue allowed see MocCore _mintTPto for details"
      },
      "execRedeemTC((uint256,uint256,address,address,address))": {
        "notice": "executes Operation based on params, only mocQueue allowed see MocCore _redeemTCto for details"
      },
      "execRedeemTCandTP((address,uint256,uint256,uint256,address,address,address))": {
        "notice": "executes Operation based on params, only mocQueue allowed see MocCore _redeemTCandTPto for details"
      },
      "execRedeemTP((address,uint256,uint256,address,address,address))": {
        "notice": "executes Operation based on params, only mocQueue allowed see MocCore _redeemTPto for details"
      },
      "execSettlement()": {
        "notice": "this function is executed during settlement.  stores amount of locked AC by Pegged Tokens at this moment and distribute success fee"
      },
      "execSwapTCforTP((address,uint256,uint256,uint256,address,address,address))": {
        "notice": "executes Operation based on params, only mocQueue allowed see MocCore _swapTCforTPto for details"
      },
      "execSwapTPforTC((address,uint256,uint256,uint256,address,address,address))": {
        "notice": "executes Operation based on params, only mocQueue allowed see MocCore _swapTPforTCto for details"
      },
      "execSwapTPforTP((address,address,uint256,uint256,uint256,address,address,address))": {
        "notice": "executes Operation based on params, only mocQueue allowed see MocCore _swapTPforTPto for details"
      },
      "getBts()": {
        "notice": "get the number of blocks remaining for settlement"
      },
      "getCglb()": {
        "notice": "get bucket global coverage"
      },
      "getLckAC()": {
        "notice": "get amount of Collateral Asset locked by Pegged Token"
      },
      "getLeverageTC()": {
        "notice": "get Collateral Token leverage"
      },
      "getPACtp(address)": {
        "notice": "get how many Pegged Token equal 1 Collateral Asset"
      },
      "getPTCac()": {
        "notice": "get Collateral Token price"
      },
      "getTCAvailableToRedeem()": {
        "notice": "get amount of Collateral Token available to redeem"
      },
      "getTPAvailableToMint(address)": {
        "notice": "get amount of Pegged Token available to mint"
      },
      "getTotalACavailable()": {
        "notice": "get total Collateral Asset available"
      },
      "governor()": {
        "notice": "The address of the contract which governs this one"
      },
      "initialize((((address,address,address,address,address,address,uint256,uint256,uint256,uint256,uint256,uint256,uint256,uint256,uint256,uint256,uint256,uint256,uint256,uint256,address,uint256,uint256,address,address,uint256),address,address,address,uint256,address),uint256,address))": {
        "notice": "contract initializer"
      },
      "isLiquidationReached()": {
        "notice": "If liquidation is enabled, verifies if forced liquidation has been reached, checking if globalCoverage <= liquidation"
      },
      "liqRedeemTP(address)": {
        "notice": "Allow redeem on liquidation state, user Peg balance gets burned and he receives the equivalent AC given the liquidation frozen price."
      },
      "liqRedeemTPto(address,address)": {
        "notice": "Allow redeem on liquidation state, user Peg balance gets burned and he receives the equivalent AC given the liquidation frozen price."
      },
      "makeStoppable()": {
        "notice": "Switches ON the stoppability of the contract; if the contract was paused before making it unstoppable it will be paused again after calling this function"
      },
      "makeUnstoppable()": {
        "notice": "Switches OFF the stoppability of the contract; if the contract was paused it will no longer be so"
      },
      "maxQACToMintTP()": {
        "notice": "gets the max amount of AC allowed to operate to mint TP with, restricted by accumulators // TODO: move this function to a MocView contract"
      },
      "maxQACToRedeemTP()": {
        "notice": "gets the max amount of AC allowed to operate to redeem TP with, restricted by accumulators // TODO: move this function to a MocView contract"
      },
      "mintTC(uint256)": {
        "notice": "caller sends coinbase as Collateral Asset and receives Collateral Token"
      },
      "mintTCViaVendor(uint256,address)": {
        "notice": "caller sends coinbase as Collateral Asset and receives Collateral Token  `vendor_` receives a markup in Fee Token if possible or in qAC if not"
      },
      "mintTCandTP(address,uint256)": {
        "notice": "caller sends coinbase as Collateral Asset and receives Collateral Token and Pegged Token  This operation is done without checking coverage  Collateral Token and Pegged Token are minted in equivalent proportions so that its price  and global coverage are not modified.  Reverts if qAC sent are insufficient."
      },
      "mintTCandTPViaVendor(address,uint256,address)": {
        "notice": "caller sends coinbase as Collateral Asset and receives Collateral Token and Pegged Token  `vendor_` receives a markup in Fee Token if possible or in qAC if not  This operation is done without checking coverage  Collateral Token and Pegged Token are minted in equivalent proportions so that its price  and global coverage are not modified.  Reverts if qAC sent are insufficient."
      },
      "mintTCandTPto(address,uint256,address)": {
        "notice": "caller sends coinbase as Collateral Asset and recipient receives Collateral Token and Pegged Token  This operation is done without checking coverage  Collateral Token and Pegged Token are minted in equivalent proportions so that its price  and global coverage are not modified.  Reverts if qAC sent are insufficient."
      },
      "mintTCandTPtoViaVendor(address,uint256,address,address)": {
        "notice": "caller sends coinbase as Collateral Asset and recipient receives Collateral Token and Pegged Token  `vendor_` receives a markup in Fee Token if possible or in qAC if not  This operation is done without checking coverage  Collateral Token and Pegged Token are minted in equivalent proportions so that its price  and global coverage are not modified.  Reverts if qAC sent are insufficient."
      },
      "mintTCto(uint256,address)": {
        "notice": "caller sends coinbase as Collateral Asset and recipient receives Collateral Token"
      },
      "mintTCtoViaVendor(uint256,address,address)": {
        "notice": "caller sends coinbase as Collateral Asset and recipient receives Collateral Token  `vendor_` receives a markup in Fee Token if possible or in qAC if not"
      },
      "mintTP(address,uint256)": {
        "notice": "caller sends coinbase as Collateral Asset and receives Pegged Token"
      },
      "mintTPViaVendor(address,uint256,address)": {
        "notice": "caller sends coinbase as Collateral Asset and receives Pegged Token  `vendor_` receives a markup in Fee Token if possible or in qAC if not"
      },
      "mintTPto(address,uint256,address)": {
        "notice": "caller sends coinbase as Collateral Asset and recipient receives Pegged Token"
      },
      "mintTPtoViaVendor(address,uint256,address,address)": {
        "notice": "caller sends coinbase as Collateral Asset and recipient receives Pegged Token  `vendor_` receives a markup in Fee Token if possible or in qAC if not"
      },
      "pause()": {
        "notice": "Called by the owner to pause, triggers stopped state"
      },
      "paused()": {
        "notice": "Returns true if paused"
      },
      "redeemTC(uint256,uint256)": {
        "notice": "caller sends Collateral Token and receives Collateral Asset"
      },
      "redeemTCViaVendor(uint256,uint256,address)": {
        "notice": "caller sends Collateral Token and receives Collateral Asset  `vendor_` receives a markup in Fee Token if possible or in qAC if not"
      },
      "redeemTCandTP(address,uint256,uint256,uint256)": {
        "notice": "Caller sends Collateral Token and Pegged Token and receives Collateral Asset.  This operation is done without checking coverage  Collateral Token and Pegged Token are redeemed in equivalent proportions so that their price  and global coverage are not modified.  Reverts if qTP sent are insufficient."
      },
      "redeemTCandTPViaVendor(address,uint256,uint256,uint256,address)": {
        "notice": "Caller sends Collateral Token and Pegged Token and receives Collateral Asset.  `vendor_` receives a markup in Fee Token if possible or in Collateral Asset if not  This operation is done without checking coverage  Collateral Token and Pegged Token are redeemed in equivalent proportions so that their price  and global coverage are not modified.  Reverts if qTP sent are insufficient."
      },
      "redeemTCandTPto(address,uint256,uint256,uint256,address)": {
        "notice": "Caller sends Collateral Token and Pegged Token and recipient receives Collateral Asset.  This operation is done without checking coverage  Collateral Token and Pegged Token are redeemed in equivalent proportions so that their price  and global coverage are not modified.  Reverts if qTP sent are insufficient."
      },
      "redeemTCandTPtoViaVendor(address,uint256,uint256,uint256,address,address)": {
        "notice": "Caller sends Collateral Token and Pegged Token and recipient receives Collateral Asset.  `vendor_` receives a markup in Fee Token if possible or in Collateral Asset if not  This operation is done without checking coverage  Collateral Token and Pegged Token are redeemed in equivalent proportions so that their price  and global coverage are not modified.  Reverts if qTP sent are insufficient."
      },
      "redeemTCto(uint256,uint256,address)": {
        "notice": "caller sends Collateral Token and recipient receives Collateral Asset"
      },
      "redeemTCtoViaVendor(uint256,uint256,address,address)": {
        "notice": "caller sends Collateral Token and recipient receives Collateral Asset  `vendor_` receives a markup in Fee Token if possible or in qAC if not"
      },
      "redeemTP(address,uint256,uint256)": {
        "notice": "caller sends Pegged Token and receives Collateral Asset"
      },
      "redeemTPViaVendor(address,uint256,uint256,address)": {
        "notice": "caller sends Pegged Token and receives Collateral Asset  `vendor_` receives a markup in Fee Token if possible or in qAC if not"
      },
      "redeemTPto(address,uint256,uint256,address)": {
        "notice": "caller sends Pegged Token and recipient receives Collateral Asset"
      },
      "redeemTPtoViaVendor(address,uint256,uint256,address,address)": {
        "notice": "caller sends Pegged Token and recipient receives Collateral Asset  `vendor_` receives a markup in Fee Token if possible or in qAC if not"
      },
      "setPauser(address)": {
        "notice": "Changes the address which is enable to pause this contract"
      },
      "setTransferMAxGas(uint256)": {
        "notice": "sets max amount of gas forwarded on AC transfer"
      },
      "shouldCalculateEma()": {
        "notice": "true if the necessary span has pass since last ema update"
      },
      "swapTCforTP(address,uint256,uint256)": {
        "notice": "caller sends Collateral Token and receives Pegged Token"
      },
      "swapTCforTPViaVendor(address,uint256,uint256,address)": {
        "notice": "caller sends Collateral Token and receives Pegged Token  `vendor_` receives a markup in Fee Token if possible or in qAC if not"
      },
      "swapTCforTPto(address,uint256,uint256,address)": {
        "notice": "caller sends Collateral Token and recipient receives Pegged Token"
      },
      "swapTCforTPtoViaVendor(address,uint256,uint256,address,address)": {
        "notice": "caller sends Collateral Token and recipient receives Pegged Token  `vendor_` receives a markup in Fee Token if possible or in qAC if not"
      },
      "swapTPforTC(address,uint256,uint256)": {
        "notice": "caller sends a Pegged Token and receives Collateral Token"
      },
      "swapTPforTCViaVendor(address,uint256,uint256,address)": {
        "notice": "caller sends a Pegged Token and receives Collateral Token  `vendor_` receives a markup in Fee Token if possible or in qAC if not"
      },
      "swapTPforTCto(address,uint256,uint256,address)": {
        "notice": "caller sends a Pegged Token and recipient receives Collateral Token"
      },
      "swapTPforTCtoViaVendor(address,uint256,uint256,address,address)": {
        "notice": "caller sends a Pegged Token and recipient receives Collateral Token  `vendor_` receives a markup in Fee Token if possible or in qAC if not"
      },
      "swapTPforTP(address,address,uint256,uint256)": {
        "notice": "caller sends a Pegged Token and receives another one"
      },
      "swapTPforTPViaVendor(address,address,uint256,uint256,address)": {
        "notice": "caller sends a Pegged Token and receives another one  `vendor_` receives a markup in Fee Token if possible or in qAC if not"
      },
      "swapTPforTPto(address,address,uint256,uint256,address)": {
        "notice": "caller sends a Pegged Token and recipient receives another one"
      },
      "swapTPforTPtoViaVendor(address,address,uint256,uint256,address,address)": {
        "notice": "caller sends a Pegged Token and recipient receives another one  `vendor_` receives a markup in Fee Token if possible or in qAC if not"
      },
      "tcHoldersInterestPayment()": {
        "notice": "executes the interest payment of the TC holders  can only be executed after a block span"
      },
      "unlockACInPending(address,uint256)": {
        "notice": "while executing a pending Operation, if it fails we need to unlock user's funds"
      },
      "unlockTCInPending(address,uint256)": {
        "notice": "while executing a pending Operation, if it fails we need to unlock user's tokens"
      },
      "unlockTPInPending(address,address,uint256)": {
        "notice": "while executing a pending Operation, if it fails we need to unlock user's tokens"
      },
      "unpause()": {
        "notice": "Called by the owner to unpause, returns to normal state"
      },
      "updateEmas()": {
        "notice": "If time, calculates the EMA for all the Pegged Token prices."
      }
    },
    "version": 1
  }
}