{
  "contractName": "GovernorMock",
  "sourceName": "contracts/mocks/upgradeability/GovernorMock.sol",
  "abi": [
    {
      "inputs": [
        {
          "internalType": "contract IChangeContract",
          "name": "changeContract",
          "type": "address"
        }
      ],
      "name": "executeChange",
      "outputs": [],
      "stateMutability": "nonpayable",
      "type": "function"
    },
    {
      "inputs": [],
      "name": "isAuthorized",
      "outputs": [
        {
          "internalType": "bool",
          "name": "",
          "type": "bool"
        }
      ],
      "stateMutability": "view",
      "type": "function"
    },
    {
      "inputs": [
        {
          "internalType": "address",
          "name": "",
          "type": "address"
        }
      ],
      "name": "isAuthorizedChanger",
      "outputs": [
        {
          "internalType": "bool",
          "name": "",
          "type": "bool"
        }
      ],
      "stateMutability": "view",
      "type": "function"
    },
    {
      "inputs": [
        {
          "internalType": "bool",
          "name": "isAuthorized_",
          "type": "bool"
        }
      ],
      "name": "setIsAuthorized",
      "outputs": [],
      "stateMutability": "nonpayable",
      "type": "function"
    }
  ],
  "bytecode": "0x60806040526000805460ff1916600117905534801561001d57600080fd5b506101aa8061002d6000396000f3fe608060405234801561001057600080fd5b506004361061004c5760003560e01c806357e6c2f4146100515780638c777e82146100725780639e0a8e0914610087578063d994d6d5146100a8575b600080fd5b60005461005e9060ff1681565b604051901515815260200160405180910390f35b61008561008036600461012e565b6100c0565b005b610085610095366004610152565b6000805460ff1916911515919091179055565b61005e6100b636600461012e565b5060005460ff1690565b806001600160a01b031663614619546040518163ffffffff1660e01b8152600401600060405180830381600087803b1580156100fb57600080fd5b505af115801561010f573d6000803e3d6000fd5b5050505050565b6001600160a01b038116811461012b57600080fd5b50565b60006020828403121561014057600080fd5b813561014b81610116565b9392505050565b60006020828403121561016457600080fd5b8135801515811461014b57600080fdfea26469706673582212208582db8b63122237ccf1fba83d5f171fee83188f8c6314ff94086a187f8d06fd64736f6c63430008110033",
  "linkReferences": {},
  "deployedLinkReferences": {},
  "devdoc": {
    "details": "Test only contract to mock Governor behavior ",
    "kind": "dev",
    "methods": {
      "executeChange(address)": {
        "params": {
          "changeContract": "Address of the contract that will execute the changes"
        }
      }
    },
    "title": "GovernorMock",
    "version": 1
  },
  "evm": {
    "bytecode": {
      "linkReferences": {},
      "opcodes": "PUSH1 0x80 PUSH1 0x40 MSTORE PUSH1 0x0 DUP1 SLOAD PUSH1 0xFF NOT AND PUSH1 0x1 OR SWAP1 SSTORE CALLVALUE DUP1 ISZERO PUSH2 0x1D JUMPI PUSH1 0x0 DUP1 REVERT JUMPDEST POP PUSH2 0x1AA DUP1 PUSH2 0x2D PUSH1 0x0 CODECOPY PUSH1 0x0 RETURN INVALID PUSH1 0x80 PUSH1 0x40 MSTORE CALLVALUE DUP1 ISZERO PUSH2 0x10 JUMPI PUSH1 0x0 DUP1 REVERT JUMPDEST POP PUSH1 0x4 CALLDATASIZE LT PUSH2 0x4C JUMPI PUSH1 0x0 CALLDATALOAD PUSH1 0xE0 SHR DUP1 PUSH4 0x57E6C2F4 EQ PUSH2 0x51 JUMPI DUP1 PUSH4 0x8C777E82 EQ PUSH2 0x72 JUMPI DUP1 PUSH4 0x9E0A8E09 EQ PUSH2 0x87 JUMPI DUP1 PUSH4 0xD994D6D5 EQ PUSH2 0xA8 JUMPI JUMPDEST PUSH1 0x0 DUP1 REVERT JUMPDEST PUSH1 0x0 SLOAD PUSH2 0x5E SWAP1 PUSH1 0xFF AND DUP2 JUMP JUMPDEST PUSH1 0x40 MLOAD SWAP1 ISZERO ISZERO DUP2 MSTORE PUSH1 0x20 ADD PUSH1 0x40 MLOAD DUP1 SWAP2 SUB SWAP1 RETURN JUMPDEST PUSH2 0x85 PUSH2 0x80 CALLDATASIZE PUSH1 0x4 PUSH2 0x12E JUMP JUMPDEST PUSH2 0xC0 JUMP JUMPDEST STOP JUMPDEST PUSH2 0x85 PUSH2 0x95 CALLDATASIZE PUSH1 0x4 PUSH2 0x152 JUMP JUMPDEST PUSH1 0x0 DUP1 SLOAD PUSH1 0xFF NOT AND SWAP2 ISZERO ISZERO SWAP2 SWAP1 SWAP2 OR SWAP1 SSTORE JUMP JUMPDEST PUSH2 0x5E PUSH2 0xB6 CALLDATASIZE PUSH1 0x4 PUSH2 0x12E JUMP JUMPDEST POP PUSH1 0x0 SLOAD PUSH1 0xFF AND SWAP1 JUMP JUMPDEST DUP1 PUSH1 0x1 PUSH1 0x1 PUSH1 0xA0 SHL SUB AND PUSH4 0x61461954 PUSH1 0x40 MLOAD DUP2 PUSH4 0xFFFFFFFF AND PUSH1 0xE0 SHL DUP2 MSTORE PUSH1 0x4 ADD PUSH1 0x0 PUSH1 0x40 MLOAD DUP1 DUP4 SUB DUP2 PUSH1 0x0 DUP8 DUP1 EXTCODESIZE ISZERO DUP1 ISZERO PUSH2 0xFB JUMPI PUSH1 0x0 DUP1 REVERT JUMPDEST POP GAS CALL ISZERO DUP1 ISZERO PUSH2 0x10F JUMPI RETURNDATASIZE PUSH1 0x0 DUP1 RETURNDATACOPY RETURNDATASIZE PUSH1 0x0 REVERT JUMPDEST POP POP POP POP POP JUMP JUMPDEST PUSH1 0x1 PUSH1 0x1 PUSH1 0xA0 SHL SUB DUP2 AND DUP2 EQ PUSH2 0x12B JUMPI PUSH1 0x0 DUP1 REVERT JUMPDEST POP JUMP JUMPDEST PUSH1 0x0 PUSH1 0x20 DUP3 DUP5 SUB SLT ISZERO PUSH2 0x140 JUMPI PUSH1 0x0 DUP1 REVERT JUMPDEST DUP2 CALLDATALOAD PUSH2 0x14B DUP2 PUSH2 0x116 JUMP JUMPDEST SWAP4 SWAP3 POP POP POP JUMP JUMPDEST PUSH1 0x0 PUSH1 0x20 DUP3 DUP5 SUB SLT ISZERO PUSH2 0x164 JUMPI PUSH1 0x0 DUP1 REVERT JUMPDEST DUP2 CALLDATALOAD DUP1 ISZERO ISZERO DUP2 EQ PUSH2 0x14B JUMPI PUSH1 0x0 DUP1 REVERT INVALID LOG2 PUSH5 0x6970667358 0x22 SLT KECCAK256 DUP6 DUP3 0xDB DUP12 PUSH4 0x122237CC CALL 0xFB 0xA8 RETURNDATASIZE 0x5F OR 0x1F 0xEE DUP4 XOR DUP16 DUP13 PUSH4 0x14FF9408 PUSH11 0x187F8D06FD64736F6C6343 STOP ADDMOD GT STOP CALLER "
    },
    "gasEstimates": {
      "creation": {
        "codeDepositCost": "85200",
        "executionCost": "24359",
        "totalCost": "109559"
      },
      "external": {
        "executeChange(address)": "infinite",
        "isAuthorized()": "2276",
        "isAuthorizedChanger(address)": "2493",
        "setIsAuthorized(bool)": "24504"
      }
    },
    "methodIdentifiers": {
      "executeChange(address)": "8c777e82",
      "isAuthorized()": "57e6c2f4",
      "isAuthorizedChanger(address)": "d994d6d5",
      "setIsAuthorized(bool)": "9e0a8e09"
    }
  },
  "storageLayout": {
    "storage": [
      {
        "astId": 19164,
        "contract": "contracts/mocks/upgradeability/GovernorMock.sol:GovernorMock",
        "label": "isAuthorized",
        "offset": 0,
        "slot": "0",
        "type": "t_bool"
      }
    ],
    "types": {
      "t_bool": {
        "encoding": "inplace",
        "label": "bool",
        "numberOfBytes": "1"
      }
    }
  },
  "userdoc": {
    "kind": "user",
    "methods": {
      "executeChange(address)": {
        "notice": "Function to be called to make the changes in changeContract"
      }
    },
    "version": 1
  }
}