{
  "contractName": "MocCoreMock",
  "sourceName": "contracts/mocks/MocCoreMock.sol",
  "abi": [
    {
      "inputs": [],
      "stateMutability": "nonpayable",
      "type": "constructor"
    },
    {
      "inputs": [
        {
          "internalType": "uint256",
          "name": "qACsent_",
          "type": "uint256"
        },
        {
          "internalType": "uint256",
          "name": "qACNeeded_",
          "type": "uint256"
        }
      ],
      "name": "InsufficientQacSent",
      "type": "error"
    },
    {
      "inputs": [
        {
          "internalType": "uint256",
          "name": "qTPsent_",
          "type": "uint256"
        },
        {
          "internalType": "uint256",
          "name": "qTPNeeded_",
          "type": "uint256"
        }
      ],
      "name": "InsufficientQtpSent",
      "type": "error"
    },
    {
      "inputs": [
        {
          "internalType": "uint256",
          "name": "qTC_",
          "type": "uint256"
        },
        {
          "internalType": "uint256",
          "name": "tcAvailableToRedeem_",
          "type": "uint256"
        }
      ],
      "name": "InsufficientTCtoRedeem",
      "type": "error"
    },
    {
      "inputs": [
        {
          "internalType": "uint256",
          "name": "qTP_",
          "type": "uint256"
        },
        {
          "internalType": "uint256",
          "name": "tpAvailableToMint_",
          "type": "uint256"
        }
      ],
      "name": "InsufficientTPtoMint",
      "type": "error"
    },
    {
      "inputs": [
        {
          "internalType": "uint256",
          "name": "qTP_",
          "type": "uint256"
        },
        {
          "internalType": "uint256",
          "name": "tpAvailableToRedeem_",
          "type": "uint256"
        }
      ],
      "name": "InsufficientTPtoRedeem",
      "type": "error"
    },
    {
      "inputs": [],
      "name": "InvalidAddress",
      "type": "error"
    },
    {
      "inputs": [],
      "name": "InvalidFluxCapacitorOperation",
      "type": "error"
    },
    {
      "inputs": [],
      "name": "InvalidValue",
      "type": "error"
    },
    {
      "inputs": [],
      "name": "Liquidated",
      "type": "error"
    },
    {
      "inputs": [
        {
          "internalType": "uint256",
          "name": "cglb_",
          "type": "uint256"
        },
        {
          "internalType": "uint256",
          "name": "covThrld_",
          "type": "uint256"
        }
      ],
      "name": "LowCoverage",
      "type": "error"
    },
    {
      "inputs": [
        {
          "internalType": "uint256",
          "name": "max_",
          "type": "uint256"
        },
        {
          "internalType": "uint256",
          "name": "new_",
          "type": "uint256"
        }
      ],
      "name": "MaxFluxCapacitorOperationReached",
      "type": "error"
    },
    {
      "inputs": [],
      "name": "MissingBlocksToSettlement",
      "type": "error"
    },
    {
      "inputs": [],
      "name": "MissingBlocksToTCInterestPayment",
      "type": "error"
    },
    {
      "inputs": [
        {
          "internalType": "address",
          "name": "dataProviderAddress_",
          "type": "address"
        }
      ],
      "name": "MissingProviderData",
      "type": "error"
    },
    {
      "inputs": [
        {
          "internalType": "address",
          "name": "priceProviderAddress_",
          "type": "address"
        }
      ],
      "name": "MissingProviderPrice",
      "type": "error"
    },
    {
      "inputs": [],
      "name": "NotAuthorizedChanger",
      "type": "error"
    },
    {
      "inputs": [],
      "name": "NotWhenPaused",
      "type": "error"
    },
    {
      "inputs": [],
      "name": "OnlyPauser",
      "type": "error"
    },
    {
      "inputs": [],
      "name": "OnlyWhenLiquidated",
      "type": "error"
    },
    {
      "inputs": [],
      "name": "OnlyWhilePaused",
      "type": "error"
    },
    {
      "inputs": [],
      "name": "PeggedTokenAlreadyAdded",
      "type": "error"
    },
    {
      "inputs": [
        {
          "internalType": "uint256",
          "name": "qACmin_",
          "type": "uint256"
        },
        {
          "internalType": "uint256",
          "name": "qACtoRedeem_",
          "type": "uint256"
        }
      ],
      "name": "QacBelowMinimumRequired",
      "type": "error"
    },
    {
      "inputs": [],
      "name": "QacNeededMustBeGreaterThanZero",
      "type": "error"
    },
    {
      "inputs": [
        {
          "internalType": "uint256",
          "name": "qTCmin_",
          "type": "uint256"
        },
        {
          "internalType": "uint256",
          "name": "qTC_",
          "type": "uint256"
        }
      ],
      "name": "QtcBelowMinimumRequired",
      "type": "error"
    },
    {
      "inputs": [
        {
          "internalType": "uint256",
          "name": "qTPmin_",
          "type": "uint256"
        },
        {
          "internalType": "uint256",
          "name": "qTP_",
          "type": "uint256"
        }
      ],
      "name": "QtpBelowMinimumRequired",
      "type": "error"
    },
    {
      "inputs": [],
      "name": "TransferFailed",
      "type": "error"
    },
    {
      "inputs": [],
      "name": "Unstoppable",
      "type": "error"
    },
    {
      "anonymous": false,
      "inputs": [
        {
          "indexed": false,
          "internalType": "address",
          "name": "previousAdmin",
          "type": "address"
        },
        {
          "indexed": false,
          "internalType": "address",
          "name": "newAdmin",
          "type": "address"
        }
      ],
      "name": "AdminChanged",
      "type": "event"
    },
    {
      "anonymous": false,
      "inputs": [
        {
          "indexed": true,
          "internalType": "address",
          "name": "beacon",
          "type": "address"
        }
      ],
      "name": "BeaconUpgraded",
      "type": "event"
    },
    {
      "anonymous": false,
      "inputs": [],
      "name": "ContractLiquidated",
      "type": "event"
    },
    {
      "anonymous": false,
      "inputs": [
        {
          "indexed": false,
          "internalType": "uint8",
          "name": "version",
          "type": "uint8"
        }
      ],
      "name": "Initialized",
      "type": "event"
    },
    {
      "anonymous": false,
      "inputs": [
        {
          "indexed": true,
          "internalType": "address",
          "name": "tp_",
          "type": "address"
        },
        {
          "indexed": true,
          "internalType": "address",
          "name": "sender_",
          "type": "address"
        },
        {
          "indexed": true,
          "internalType": "address",
          "name": "recipient_",
          "type": "address"
        },
        {
          "indexed": false,
          "internalType": "uint256",
          "name": "qTP_",
          "type": "uint256"
        },
        {
          "indexed": false,
          "internalType": "uint256",
          "name": "qAC_",
          "type": "uint256"
        }
      ],
      "name": "LiqTPRedeemed",
      "type": "event"
    },
    {
      "anonymous": false,
      "inputs": [
        {
          "indexed": false,
          "internalType": "address",
          "name": "account",
          "type": "address"
        }
      ],
      "name": "Paused",
      "type": "event"
    },
    {
      "anonymous": false,
      "inputs": [
        {
          "indexed": false,
          "internalType": "uint256",
          "name": "i_",
          "type": "uint256"
        },
        {
          "components": [
            {
              "internalType": "address",
              "name": "tpTokenAddress",
              "type": "address"
            },
            {
              "internalType": "address",
              "name": "priceProviderAddress",
              "type": "address"
            },
            {
              "internalType": "uint256",
              "name": "tpCtarg",
              "type": "uint256"
            },
            {
              "internalType": "uint256",
              "name": "tpMintFee",
              "type": "uint256"
            },
            {
              "internalType": "uint256",
              "name": "tpRedeemFee",
              "type": "uint256"
            },
            {
              "internalType": "uint256",
              "name": "tpEma",
              "type": "uint256"
            },
            {
              "internalType": "uint256",
              "name": "tpEmaSf",
              "type": "uint256"
            }
          ],
          "indexed": false,
          "internalType": "struct PeggedTokenParams",
          "name": "peggedTokenParams_",
          "type": "tuple"
        }
      ],
      "name": "PeggedTokenChange",
      "type": "event"
    },
    {
      "anonymous": false,
      "inputs": [],
      "name": "SettlementExecuted",
      "type": "event"
    },
    {
      "anonymous": false,
      "inputs": [
        {
          "indexed": false,
          "internalType": "uint256",
          "name": "mocGain_",
          "type": "uint256"
        },
        {
          "indexed": false,
          "internalType": "uint256[]",
          "name": "tpGain_",
          "type": "uint256[]"
        }
      ],
      "name": "SuccessFeeDistributed",
      "type": "event"
    },
    {
      "anonymous": false,
      "inputs": [
        {
          "indexed": false,
          "internalType": "uint256",
          "name": "interestAmount_",
          "type": "uint256"
        }
      ],
      "name": "TCInterestPayment",
      "type": "event"
    },
    {
      "anonymous": false,
      "inputs": [
        {
          "indexed": true,
          "internalType": "uint256",
          "name": "i_",
          "type": "uint256"
        },
        {
          "indexed": false,
          "internalType": "uint256",
          "name": "oldTPema_",
          "type": "uint256"
        },
        {
          "indexed": false,
          "internalType": "uint256",
          "name": "newTPema_",
          "type": "uint256"
        }
      ],
      "name": "TPemaUpdated",
      "type": "event"
    },
    {
      "anonymous": false,
      "inputs": [
        {
          "indexed": false,
          "internalType": "address",
          "name": "account",
          "type": "address"
        }
      ],
      "name": "Unpaused",
      "type": "event"
    },
    {
      "anonymous": false,
      "inputs": [
        {
          "indexed": true,
          "internalType": "address",
          "name": "implementation",
          "type": "address"
        }
      ],
      "name": "Upgraded",
      "type": "event"
    },
    {
      "inputs": [],
      "name": "absoluteAccumulator",
      "outputs": [
        {
          "internalType": "uint256",
          "name": "",
          "type": "uint256"
        }
      ],
      "stateMutability": "view",
      "type": "function"
    },
    {
      "inputs": [],
      "name": "acToken",
      "outputs": [
        {
          "internalType": "contract IERC20",
          "name": "",
          "type": "address"
        }
      ],
      "stateMutability": "view",
      "type": "function"
    },
    {
      "inputs": [
        {
          "components": [
            {
              "internalType": "address",
              "name": "tpTokenAddress",
              "type": "address"
            },
            {
              "internalType": "address",
              "name": "priceProviderAddress",
              "type": "address"
            },
            {
              "internalType": "uint256",
              "name": "tpCtarg",
              "type": "uint256"
            },
            {
              "internalType": "uint256",
              "name": "tpMintFee",
              "type": "uint256"
            },
            {
              "internalType": "uint256",
              "name": "tpRedeemFee",
              "type": "uint256"
            },
            {
              "internalType": "uint256",
              "name": "tpEma",
              "type": "uint256"
            },
            {
              "internalType": "uint256",
              "name": "tpEmaSf",
              "type": "uint256"
            }
          ],
          "internalType": "struct PeggedTokenParams",
          "name": "peggedTokenParams_",
          "type": "tuple"
        }
      ],
      "name": "addPeggedToken",
      "outputs": [],
      "stateMutability": "nonpayable",
      "type": "function"
    },
    {
      "inputs": [],
      "name": "appreciationFactor",
      "outputs": [
        {
          "internalType": "uint256",
          "name": "",
          "type": "uint256"
        }
      ],
      "stateMutability": "view",
      "type": "function"
    },
    {
      "inputs": [],
      "name": "bes",
      "outputs": [
        {
          "internalType": "uint256",
          "name": "",
          "type": "uint256"
        }
      ],
      "stateMutability": "view",
      "type": "function"
    },
    {
      "inputs": [],
      "name": "bns",
      "outputs": [
        {
          "internalType": "uint256",
          "name": "",
          "type": "uint256"
        }
      ],
      "stateMutability": "view",
      "type": "function"
    },
    {
      "inputs": [],
      "name": "calcCtargemaCA",
      "outputs": [
        {
          "internalType": "uint256",
          "name": "ctargemaCA",
          "type": "uint256"
        }
      ],
      "stateMutability": "view",
      "type": "function"
    },
    {
      "inputs": [
        {
          "internalType": "contract IGovernor",
          "name": "newGovernor_",
          "type": "address"
        }
      ],
      "name": "changeGovernor",
      "outputs": [],
      "stateMutability": "nonpayable",
      "type": "function"
    },
    {
      "inputs": [],
      "name": "decayBlockSpan",
      "outputs": [
        {
          "internalType": "uint256",
          "name": "",
          "type": "uint256"
        }
      ],
      "stateMutability": "view",
      "type": "function"
    },
    {
      "inputs": [],
      "name": "differentialAccumulator",
      "outputs": [
        {
          "internalType": "int256",
          "name": "",
          "type": "int256"
        }
      ],
      "stateMutability": "view",
      "type": "function"
    },
    {
      "inputs": [
        {
          "components": [
            {
              "internalType": "address",
              "name": "tpTokenAddress",
              "type": "address"
            },
            {
              "internalType": "address",
              "name": "priceProviderAddress",
              "type": "address"
            },
            {
              "internalType": "uint256",
              "name": "tpCtarg",
              "type": "uint256"
            },
            {
              "internalType": "uint256",
              "name": "tpMintFee",
              "type": "uint256"
            },
            {
              "internalType": "uint256",
              "name": "tpRedeemFee",
              "type": "uint256"
            },
            {
              "internalType": "uint256",
              "name": "tpEma",
              "type": "uint256"
            },
            {
              "internalType": "uint256",
              "name": "tpEmaSf",
              "type": "uint256"
            }
          ],
          "internalType": "struct PeggedTokenParams",
          "name": "peggedTokenParams_",
          "type": "tuple"
        }
      ],
      "name": "editPeggedToken",
      "outputs": [],
      "stateMutability": "nonpayable",
      "type": "function"
    },
    {
      "inputs": [],
      "name": "emaCalculationBlockSpan",
      "outputs": [
        {
          "internalType": "uint256",
          "name": "",
          "type": "uint256"
        }
      ],
      "stateMutability": "view",
      "type": "function"
    },
    {
      "inputs": [],
      "name": "evalLiquidation",
      "outputs": [],
      "stateMutability": "nonpayable",
      "type": "function"
    },
    {
      "inputs": [],
      "name": "execSettlement",
      "outputs": [],
      "stateMutability": "nonpayable",
      "type": "function"
    },
    {
      "inputs": [],
      "name": "feeRetainer",
      "outputs": [
        {
          "internalType": "uint256",
          "name": "",
          "type": "uint256"
        }
      ],
      "stateMutability": "view",
      "type": "function"
    },
    {
      "inputs": [],
      "name": "feeToken",
      "outputs": [
        {
          "internalType": "contract IERC20",
          "name": "",
          "type": "address"
        }
      ],
      "stateMutability": "view",
      "type": "function"
    },
    {
      "inputs": [],
      "name": "feeTokenPct",
      "outputs": [
        {
          "internalType": "uint256",
          "name": "",
          "type": "uint256"
        }
      ],
      "stateMutability": "view",
      "type": "function"
    },
    {
      "inputs": [],
      "name": "feeTokenPriceProvider",
      "outputs": [
        {
          "internalType": "contract IPriceProvider",
          "name": "",
          "type": "address"
        }
      ],
      "stateMutability": "view",
      "type": "function"
    },
    {
      "inputs": [],
      "name": "getBts",
      "outputs": [
        {
          "internalType": "uint256",
          "name": "",
          "type": "uint256"
        }
      ],
      "stateMutability": "view",
      "type": "function"
    },
    {
      "inputs": [],
      "name": "getCglb",
      "outputs": [
        {
          "internalType": "uint256",
          "name": "cglob",
          "type": "uint256"
        }
      ],
      "stateMutability": "view",
      "type": "function"
    },
    {
      "inputs": [],
      "name": "getLckAC",
      "outputs": [
        {
          "internalType": "uint256",
          "name": "lckAC",
          "type": "uint256"
        }
      ],
      "stateMutability": "view",
      "type": "function"
    },
    {
      "inputs": [],
      "name": "getLeverageTC",
      "outputs": [
        {
          "internalType": "uint256",
          "name": "leverageTC",
          "type": "uint256"
        }
      ],
      "stateMutability": "view",
      "type": "function"
    },
    {
      "inputs": [
        {
          "internalType": "address",
          "name": "tp_",
          "type": "address"
        }
      ],
      "name": "getPACtp",
      "outputs": [
        {
          "internalType": "uint256",
          "name": "",
          "type": "uint256"
        }
      ],
      "stateMutability": "view",
      "type": "function"
    },
    {
      "inputs": [],
      "name": "getPTCac",
      "outputs": [
        {
          "internalType": "uint256",
          "name": "pTCac",
          "type": "uint256"
        }
      ],
      "stateMutability": "view",
      "type": "function"
    },
    {
      "inputs": [],
      "name": "getTCAvailableToRedeem",
      "outputs": [
        {
          "internalType": "int256",
          "name": "tcAvailableToRedeem",
          "type": "int256"
        }
      ],
      "stateMutability": "view",
      "type": "function"
    },
    {
      "inputs": [
        {
          "internalType": "address",
          "name": "tp_",
          "type": "address"
        }
      ],
      "name": "getTPAvailableToMint",
      "outputs": [
        {
          "internalType": "int256",
          "name": "tpAvailableToMint",
          "type": "int256"
        }
      ],
      "stateMutability": "view",
      "type": "function"
    },
    {
      "inputs": [],
      "name": "getTotalACavailable",
      "outputs": [
        {
          "internalType": "uint256",
          "name": "totalACavailable",
          "type": "uint256"
        }
      ],
      "stateMutability": "view",
      "type": "function"
    },
    {
      "inputs": [],
      "name": "governor",
      "outputs": [
        {
          "internalType": "contract IGovernor",
          "name": "",
          "type": "address"
        }
      ],
      "stateMutability": "view",
      "type": "function"
    },
    {
      "inputs": [
        {
          "components": [
            {
              "components": [
                {
                  "components": [
                    {
                      "internalType": "address",
                      "name": "mocQueueAddress",
                      "type": "address"
                    },
                    {
                      "internalType": "address",
                      "name": "feeTokenAddress",
                      "type": "address"
                    },
                    {
                      "internalType": "address",
                      "name": "feeTokenPriceProviderAddress",
                      "type": "address"
                    },
                    {
                      "internalType": "address",
                      "name": "tcTokenAddress",
                      "type": "address"
                    },
                    {
                      "internalType": "address",
                      "name": "mocFeeFlowAddress",
                      "type": "address"
                    },
                    {
                      "internalType": "address",
                      "name": "mocAppreciationBeneficiaryAddress",
                      "type": "address"
                    },
                    {
                      "internalType": "uint256",
                      "name": "protThrld",
                      "type": "uint256"
                    },
                    {
                      "internalType": "uint256",
                      "name": "liqThrld",
                      "type": "uint256"
                    },
                    {
                      "internalType": "uint256",
                      "name": "feeRetainer",
                      "type": "uint256"
                    },
                    {
                      "internalType": "uint256",
                      "name": "tcMintFee",
                      "type": "uint256"
                    },
                    {
                      "internalType": "uint256",
                      "name": "tcRedeemFee",
                      "type": "uint256"
                    },
                    {
                      "internalType": "uint256",
                      "name": "swapTPforTPFee",
                      "type": "uint256"
                    },
                    {
                      "internalType": "uint256",
                      "name": "swapTPforTCFee",
                      "type": "uint256"
                    },
                    {
                      "internalType": "uint256",
                      "name": "swapTCforTPFee",
                      "type": "uint256"
                    },
                    {
                      "internalType": "uint256",
                      "name": "redeemTCandTPFee",
                      "type": "uint256"
                    },
                    {
                      "internalType": "uint256",
                      "name": "mintTCandTPFee",
                      "type": "uint256"
                    },
                    {
                      "internalType": "uint256",
                      "name": "feeTokenPct",
                      "type": "uint256"
                    },
                    {
                      "internalType": "uint256",
                      "name": "successFee",
                      "type": "uint256"
                    },
                    {
                      "internalType": "uint256",
                      "name": "appreciationFactor",
                      "type": "uint256"
                    },
                    {
                      "internalType": "uint256",
                      "name": "bes",
                      "type": "uint256"
                    },
                    {
                      "internalType": "address",
                      "name": "tcInterestCollectorAddress",
                      "type": "address"
                    },
                    {
                      "internalType": "uint256",
                      "name": "tcInterestRate",
                      "type": "uint256"
                    },
                    {
                      "internalType": "uint256",
                      "name": "tcInterestPaymentBlockSpan",
                      "type": "uint256"
                    },
                    {
                      "internalType": "address",
                      "name": "maxAbsoluteOpProviderAddress",
                      "type": "address"
                    },
                    {
                      "internalType": "address",
                      "name": "maxOpDiffProviderAddress",
                      "type": "address"
                    },
                    {
                      "internalType": "uint256",
                      "name": "decayBlockSpan",
                      "type": "uint256"
                    }
                  ],
                  "internalType": "struct MocBaseBucket.InitializeBaseBucketParams",
                  "name": "initializeBaseBucketParams",
                  "type": "tuple"
                },
                {
                  "internalType": "address",
                  "name": "governorAddress",
                  "type": "address"
                },
                {
                  "internalType": "address",
                  "name": "pauserAddress",
                  "type": "address"
                },
                {
                  "internalType": "address",
                  "name": "mocCoreExpansion",
                  "type": "address"
                },
                {
                  "internalType": "uint256",
                  "name": "emaCalculationBlockSpan",
                  "type": "uint256"
                },
                {
                  "internalType": "address",
                  "name": "mocVendors",
                  "type": "address"
                }
              ],
              "internalType": "struct MocCore.InitializeCoreParams",
              "name": "initializeCoreParams",
              "type": "tuple"
            },
            {
              "internalType": "address",
              "name": "acTokenAddress",
              "type": "address"
            }
          ],
          "internalType": "struct MocCoreMock.InitializeParams",
          "name": "initializeParams_",
          "type": "tuple"
        }
      ],
      "name": "initialize",
      "outputs": [],
      "stateMutability": "nonpayable",
      "type": "function"
    },
    {
      "inputs": [],
      "name": "isLiquidationReached",
      "outputs": [
        {
          "internalType": "bool",
          "name": "",
          "type": "bool"
        }
      ],
      "stateMutability": "view",
      "type": "function"
    },
    {
      "inputs": [],
      "name": "lastOperationBlockNumber",
      "outputs": [
        {
          "internalType": "uint256",
          "name": "",
          "type": "uint256"
        }
      ],
      "stateMutability": "view",
      "type": "function"
    },
    {
      "inputs": [],
      "name": "liqEnabled",
      "outputs": [
        {
          "internalType": "bool",
          "name": "",
          "type": "bool"
        }
      ],
      "stateMutability": "view",
      "type": "function"
    },
    {
      "inputs": [
        {
          "internalType": "address",
          "name": "tp_",
          "type": "address"
        }
      ],
      "name": "liqRedeemTP",
      "outputs": [
        {
          "internalType": "uint256",
          "name": "qACRedeemed",
          "type": "uint256"
        }
      ],
      "stateMutability": "nonpayable",
      "type": "function"
    },
    {
      "inputs": [
        {
          "internalType": "address",
          "name": "tp_",
          "type": "address"
        },
        {
          "internalType": "address",
          "name": "recipient_",
          "type": "address"
        }
      ],
      "name": "liqRedeemTPto",
      "outputs": [
        {
          "internalType": "uint256",
          "name": "qACRedeemed",
          "type": "uint256"
        }
      ],
      "stateMutability": "nonpayable",
      "type": "function"
    },
    {
      "inputs": [],
      "name": "liqThrld",
      "outputs": [
        {
          "internalType": "uint256",
          "name": "",
          "type": "uint256"
        }
      ],
      "stateMutability": "view",
      "type": "function"
    },
    {
      "inputs": [],
      "name": "liquidated",
      "outputs": [
        {
          "internalType": "bool",
          "name": "",
          "type": "bool"
        }
      ],
      "stateMutability": "view",
      "type": "function"
    },
    {
      "inputs": [],
      "name": "makeStoppable",
      "outputs": [],
      "stateMutability": "nonpayable",
      "type": "function"
    },
    {
      "inputs": [],
      "name": "makeUnstoppable",
      "outputs": [],
      "stateMutability": "nonpayable",
      "type": "function"
    },
    {
      "inputs": [],
      "name": "maxAbsoluteOpProvider",
      "outputs": [
        {
          "internalType": "contract IDataProvider",
          "name": "",
          "type": "address"
        }
      ],
      "stateMutability": "view",
      "type": "function"
    },
    {
      "inputs": [],
      "name": "maxOpDiffProvider",
      "outputs": [
        {
          "internalType": "contract IDataProvider",
          "name": "",
          "type": "address"
        }
      ],
      "stateMutability": "view",
      "type": "function"
    },
    {
      "inputs": [],
      "name": "maxQACToMintTP",
      "outputs": [
        {
          "internalType": "uint256",
          "name": "maxQAC",
          "type": "uint256"
        }
      ],
      "stateMutability": "view",
      "type": "function"
    },
    {
      "inputs": [],
      "name": "maxQACToRedeemTP",
      "outputs": [
        {
          "internalType": "uint256",
          "name": "maxQAC",
          "type": "uint256"
        }
      ],
      "stateMutability": "view",
      "type": "function"
    },
    {
      "inputs": [
        {
          "internalType": "uint256",
          "name": "qTC_",
          "type": "uint256"
        },
        {
          "internalType": "uint256",
          "name": "qACmax_",
          "type": "uint256"
        }
      ],
      "name": "mintTC",
      "outputs": [
        {
          "internalType": "uint256",
          "name": "qACtotalNeeded",
          "type": "uint256"
        },
        {
          "internalType": "uint256",
          "name": "qFeeTokenTotalNeeded",
          "type": "uint256"
        },
        {
          "components": [
            {
              "internalType": "uint256",
              "name": "qACFee",
              "type": "uint256"
            },
            {
              "internalType": "uint256",
              "name": "qFeeToken",
              "type": "uint256"
            },
            {
              "internalType": "uint256",
              "name": "qACVendorMarkup",
              "type": "uint256"
            },
            {
              "internalType": "uint256",
              "name": "qFeeTokenVendorMarkup",
              "type": "uint256"
            }
          ],
          "internalType": "struct MocCommons.FeeCalcs",
          "name": "feeCalcs",
          "type": "tuple"
        }
      ],
      "stateMutability": "payable",
      "type": "function"
    },
    {
      "inputs": [
        {
          "internalType": "uint256",
          "name": "qTC_",
          "type": "uint256"
        },
        {
          "internalType": "uint256",
          "name": "qACmax_",
          "type": "uint256"
        },
        {
          "internalType": "address",
          "name": "vendor_",
          "type": "address"
        }
      ],
      "name": "mintTCViaVendor",
      "outputs": [
        {
          "internalType": "uint256",
          "name": "qACtotalNeeded",
          "type": "uint256"
        },
        {
          "internalType": "uint256",
          "name": "qFeeTokenTotalNeeded",
          "type": "uint256"
        },
        {
          "components": [
            {
              "internalType": "uint256",
              "name": "qACFee",
              "type": "uint256"
            },
            {
              "internalType": "uint256",
              "name": "qFeeToken",
              "type": "uint256"
            },
            {
              "internalType": "uint256",
              "name": "qACVendorMarkup",
              "type": "uint256"
            },
            {
              "internalType": "uint256",
              "name": "qFeeTokenVendorMarkup",
              "type": "uint256"
            }
          ],
          "internalType": "struct MocCommons.FeeCalcs",
          "name": "feeCalcs",
          "type": "tuple"
        }
      ],
      "stateMutability": "payable",
      "type": "function"
    },
    {
      "inputs": [
        {
          "internalType": "address",
          "name": "tp_",
          "type": "address"
        },
        {
          "internalType": "uint256",
          "name": "qTP_",
          "type": "uint256"
        },
        {
          "internalType": "uint256",
          "name": "qACmax_",
          "type": "uint256"
        }
      ],
      "name": "mintTCandTP",
      "outputs": [
        {
          "internalType": "uint256",
          "name": "qACtotalNeeded",
          "type": "uint256"
        },
        {
          "internalType": "uint256",
          "name": "qTCtoMint",
          "type": "uint256"
        },
        {
          "internalType": "uint256",
          "name": "qFeeTokenTotalNeeded",
          "type": "uint256"
        },
        {
          "components": [
            {
              "internalType": "uint256",
              "name": "qACFee",
              "type": "uint256"
            },
            {
              "internalType": "uint256",
              "name": "qFeeToken",
              "type": "uint256"
            },
            {
              "internalType": "uint256",
              "name": "qACVendorMarkup",
              "type": "uint256"
            },
            {
              "internalType": "uint256",
              "name": "qFeeTokenVendorMarkup",
              "type": "uint256"
            }
          ],
          "internalType": "struct MocCommons.FeeCalcs",
          "name": "feeCalcs",
          "type": "tuple"
        }
      ],
      "stateMutability": "payable",
      "type": "function"
    },
    {
      "inputs": [],
      "name": "mintTCandTPFee",
      "outputs": [
        {
          "internalType": "uint256",
          "name": "",
          "type": "uint256"
        }
      ],
      "stateMutability": "view",
      "type": "function"
    },
    {
      "inputs": [
        {
          "internalType": "address",
          "name": "tp_",
          "type": "address"
        },
        {
          "internalType": "uint256",
          "name": "qTP_",
          "type": "uint256"
        },
        {
          "internalType": "uint256",
          "name": "qACmax_",
          "type": "uint256"
        },
        {
          "internalType": "address",
          "name": "vendor_",
          "type": "address"
        }
      ],
      "name": "mintTCandTPViaVendor",
      "outputs": [
        {
          "internalType": "uint256",
          "name": "qACtotalNeeded",
          "type": "uint256"
        },
        {
          "internalType": "uint256",
          "name": "qTCtoMint",
          "type": "uint256"
        },
        {
          "internalType": "uint256",
          "name": "qFeeTokenTotalNeeded",
          "type": "uint256"
        },
        {
          "components": [
            {
              "internalType": "uint256",
              "name": "qACFee",
              "type": "uint256"
            },
            {
              "internalType": "uint256",
              "name": "qFeeToken",
              "type": "uint256"
            },
            {
              "internalType": "uint256",
              "name": "qACVendorMarkup",
              "type": "uint256"
            },
            {
              "internalType": "uint256",
              "name": "qFeeTokenVendorMarkup",
              "type": "uint256"
            }
          ],
          "internalType": "struct MocCommons.FeeCalcs",
          "name": "feeCalcs",
          "type": "tuple"
        }
      ],
      "stateMutability": "payable",
      "type": "function"
    },
    {
      "inputs": [
        {
          "internalType": "address",
          "name": "tp_",
          "type": "address"
        },
        {
          "internalType": "uint256",
          "name": "qTP_",
          "type": "uint256"
        },
        {
          "internalType": "uint256",
          "name": "qACmax_",
          "type": "uint256"
        },
        {
          "internalType": "address",
          "name": "recipient_",
          "type": "address"
        }
      ],
      "name": "mintTCandTPto",
      "outputs": [
        {
          "internalType": "uint256",
          "name": "qACtotalNeeded",
          "type": "uint256"
        },
        {
          "internalType": "uint256",
          "name": "qTCtoMint",
          "type": "uint256"
        },
        {
          "internalType": "uint256",
          "name": "qFeeTokenTotalNeeded",
          "type": "uint256"
        },
        {
          "components": [
            {
              "internalType": "uint256",
              "name": "qACFee",
              "type": "uint256"
            },
            {
              "internalType": "uint256",
              "name": "qFeeToken",
              "type": "uint256"
            },
            {
              "internalType": "uint256",
              "name": "qACVendorMarkup",
              "type": "uint256"
            },
            {
              "internalType": "uint256",
              "name": "qFeeTokenVendorMarkup",
              "type": "uint256"
            }
          ],
          "internalType": "struct MocCommons.FeeCalcs",
          "name": "feeCalcs",
          "type": "tuple"
        }
      ],
      "stateMutability": "payable",
      "type": "function"
    },
    {
      "inputs": [
        {
          "internalType": "address",
          "name": "tp_",
          "type": "address"
        },
        {
          "internalType": "uint256",
          "name": "qTP_",
          "type": "uint256"
        },
        {
          "internalType": "uint256",
          "name": "qACmax_",
          "type": "uint256"
        },
        {
          "internalType": "address",
          "name": "recipient_",
          "type": "address"
        },
        {
          "internalType": "address",
          "name": "vendor_",
          "type": "address"
        }
      ],
      "name": "mintTCandTPtoViaVendor",
      "outputs": [
        {
          "internalType": "uint256",
          "name": "qACtotalNeeded",
          "type": "uint256"
        },
        {
          "internalType": "uint256",
          "name": "qTCtoMint",
          "type": "uint256"
        },
        {
          "internalType": "uint256",
          "name": "qFeeTokenTotalNeeded",
          "type": "uint256"
        },
        {
          "components": [
            {
              "internalType": "uint256",
              "name": "qACFee",
              "type": "uint256"
            },
            {
              "internalType": "uint256",
              "name": "qFeeToken",
              "type": "uint256"
            },
            {
              "internalType": "uint256",
              "name": "qACVendorMarkup",
              "type": "uint256"
            },
            {
              "internalType": "uint256",
              "name": "qFeeTokenVendorMarkup",
              "type": "uint256"
            }
          ],
          "internalType": "struct MocCommons.FeeCalcs",
          "name": "feeCalcs",
          "type": "tuple"
        }
      ],
      "stateMutability": "payable",
      "type": "function"
    },
    {
      "inputs": [
        {
          "internalType": "uint256",
          "name": "qTC_",
          "type": "uint256"
        },
        {
          "internalType": "uint256",
          "name": "qACmax_",
          "type": "uint256"
        },
        {
          "internalType": "address",
          "name": "recipient_",
          "type": "address"
        }
      ],
      "name": "mintTCto",
      "outputs": [
        {
          "internalType": "uint256",
          "name": "qACtotalNeeded",
          "type": "uint256"
        },
        {
          "internalType": "uint256",
          "name": "qFeeTokenTotalNeeded",
          "type": "uint256"
        },
        {
          "components": [
            {
              "internalType": "uint256",
              "name": "qACFee",
              "type": "uint256"
            },
            {
              "internalType": "uint256",
              "name": "qFeeToken",
              "type": "uint256"
            },
            {
              "internalType": "uint256",
              "name": "qACVendorMarkup",
              "type": "uint256"
            },
            {
              "internalType": "uint256",
              "name": "qFeeTokenVendorMarkup",
              "type": "uint256"
            }
          ],
          "internalType": "struct MocCommons.FeeCalcs",
          "name": "feeCalcs",
          "type": "tuple"
        }
      ],
      "stateMutability": "payable",
      "type": "function"
    },
    {
      "inputs": [
        {
          "internalType": "uint256",
          "name": "qTC_",
          "type": "uint256"
        },
        {
          "internalType": "uint256",
          "name": "qACmax_",
          "type": "uint256"
        },
        {
          "internalType": "address",
          "name": "recipient_",
          "type": "address"
        },
        {
          "internalType": "address",
          "name": "vendor_",
          "type": "address"
        }
      ],
      "name": "mintTCtoViaVendor",
      "outputs": [
        {
          "internalType": "uint256",
          "name": "qACtotalNeeded",
          "type": "uint256"
        },
        {
          "internalType": "uint256",
          "name": "qFeeTokenTotalNeeded",
          "type": "uint256"
        },
        {
          "components": [
            {
              "internalType": "uint256",
              "name": "qACFee",
              "type": "uint256"
            },
            {
              "internalType": "uint256",
              "name": "qFeeToken",
              "type": "uint256"
            },
            {
              "internalType": "uint256",
              "name": "qACVendorMarkup",
              "type": "uint256"
            },
            {
              "internalType": "uint256",
              "name": "qFeeTokenVendorMarkup",
              "type": "uint256"
            }
          ],
          "internalType": "struct MocCommons.FeeCalcs",
          "name": "feeCalcs",
          "type": "tuple"
        }
      ],
      "stateMutability": "payable",
      "type": "function"
    },
    {
      "inputs": [
        {
          "internalType": "address",
          "name": "tp_",
          "type": "address"
        },
        {
          "internalType": "uint256",
          "name": "qTP_",
          "type": "uint256"
        },
        {
          "internalType": "uint256",
          "name": "qACmax_",
          "type": "uint256"
        }
      ],
      "name": "mintTP",
      "outputs": [
        {
          "internalType": "uint256",
          "name": "qACtotalNeeded",
          "type": "uint256"
        },
        {
          "internalType": "uint256",
          "name": "qFeeTokenTotalNeeded",
          "type": "uint256"
        },
        {
          "components": [
            {
              "internalType": "uint256",
              "name": "qACFee",
              "type": "uint256"
            },
            {
              "internalType": "uint256",
              "name": "qFeeToken",
              "type": "uint256"
            },
            {
              "internalType": "uint256",
              "name": "qACVendorMarkup",
              "type": "uint256"
            },
            {
              "internalType": "uint256",
              "name": "qFeeTokenVendorMarkup",
              "type": "uint256"
            }
          ],
          "internalType": "struct MocCommons.FeeCalcs",
          "name": "feeCalcs",
          "type": "tuple"
        }
      ],
      "stateMutability": "payable",
      "type": "function"
    },
    {
      "inputs": [
        {
          "internalType": "address",
          "name": "tp_",
          "type": "address"
        },
        {
          "internalType": "uint256",
          "name": "qTP_",
          "type": "uint256"
        },
        {
          "internalType": "uint256",
          "name": "qACmax_",
          "type": "uint256"
        },
        {
          "internalType": "address",
          "name": "vendor_",
          "type": "address"
        }
      ],
      "name": "mintTPViaVendor",
      "outputs": [
        {
          "internalType": "uint256",
          "name": "qACtotalNeeded",
          "type": "uint256"
        },
        {
          "internalType": "uint256",
          "name": "qFeeTokenTotalNeeded",
          "type": "uint256"
        },
        {
          "components": [
            {
              "internalType": "uint256",
              "name": "qACFee",
              "type": "uint256"
            },
            {
              "internalType": "uint256",
              "name": "qFeeToken",
              "type": "uint256"
            },
            {
              "internalType": "uint256",
              "name": "qACVendorMarkup",
              "type": "uint256"
            },
            {
              "internalType": "uint256",
              "name": "qFeeTokenVendorMarkup",
              "type": "uint256"
            }
          ],
          "internalType": "struct MocCommons.FeeCalcs",
          "name": "feeCalcs",
          "type": "tuple"
        }
      ],
      "stateMutability": "payable",
      "type": "function"
    },
    {
      "inputs": [
        {
          "internalType": "address",
          "name": "tp_",
          "type": "address"
        },
        {
          "internalType": "uint256",
          "name": "qTP_",
          "type": "uint256"
        },
        {
          "internalType": "uint256",
          "name": "qACmax_",
          "type": "uint256"
        },
        {
          "internalType": "address",
          "name": "recipient_",
          "type": "address"
        }
      ],
      "name": "mintTPto",
      "outputs": [
        {
          "internalType": "uint256",
          "name": "qACtotalNeeded",
          "type": "uint256"
        },
        {
          "internalType": "uint256",
          "name": "qFeeTokenTotalNeeded",
          "type": "uint256"
        },
        {
          "components": [
            {
              "internalType": "uint256",
              "name": "qACFee",
              "type": "uint256"
            },
            {
              "internalType": "uint256",
              "name": "qFeeToken",
              "type": "uint256"
            },
            {
              "internalType": "uint256",
              "name": "qACVendorMarkup",
              "type": "uint256"
            },
            {
              "internalType": "uint256",
              "name": "qFeeTokenVendorMarkup",
              "type": "uint256"
            }
          ],
          "internalType": "struct MocCommons.FeeCalcs",
          "name": "feeCalcs",
          "type": "tuple"
        }
      ],
      "stateMutability": "payable",
      "type": "function"
    },
    {
      "inputs": [
        {
          "internalType": "address",
          "name": "tp_",
          "type": "address"
        },
        {
          "internalType": "uint256",
          "name": "qTP_",
          "type": "uint256"
        },
        {
          "internalType": "uint256",
          "name": "qACmax_",
          "type": "uint256"
        },
        {
          "internalType": "address",
          "name": "recipient_",
          "type": "address"
        },
        {
          "internalType": "address",
          "name": "vendor_",
          "type": "address"
        }
      ],
      "name": "mintTPtoViaVendor",
      "outputs": [
        {
          "internalType": "uint256",
          "name": "qACtotalNeeded",
          "type": "uint256"
        },
        {
          "internalType": "uint256",
          "name": "qFeeTokenTotalNeeded",
          "type": "uint256"
        },
        {
          "components": [
            {
              "internalType": "uint256",
              "name": "qACFee",
              "type": "uint256"
            },
            {
              "internalType": "uint256",
              "name": "qFeeToken",
              "type": "uint256"
            },
            {
              "internalType": "uint256",
              "name": "qACVendorMarkup",
              "type": "uint256"
            },
            {
              "internalType": "uint256",
              "name": "qFeeTokenVendorMarkup",
              "type": "uint256"
            }
          ],
          "internalType": "struct MocCommons.FeeCalcs",
          "name": "feeCalcs",
          "type": "tuple"
        }
      ],
      "stateMutability": "payable",
      "type": "function"
    },
    {
      "inputs": [],
      "name": "mocAppreciationBeneficiaryAddress",
      "outputs": [
        {
          "internalType": "address",
          "name": "",
          "type": "address"
        }
      ],
      "stateMutability": "view",
      "type": "function"
    },
    {
      "inputs": [],
      "name": "mocFeeFlowAddress",
      "outputs": [
        {
          "internalType": "address",
          "name": "",
          "type": "address"
        }
      ],
      "stateMutability": "view",
      "type": "function"
    },
    {
      "inputs": [],
      "name": "mocQueue",
      "outputs": [
        {
          "internalType": "address",
          "name": "",
          "type": "address"
        }
      ],
      "stateMutability": "view",
      "type": "function"
    },
    {
      "inputs": [],
      "name": "mocVendors",
      "outputs": [
        {
          "internalType": "contract MocVendors",
          "name": "",
          "type": "address"
        }
      ],
      "stateMutability": "view",
      "type": "function"
    },
    {
      "inputs": [],
      "name": "nACcb",
      "outputs": [
        {
          "internalType": "uint256",
          "name": "",
          "type": "uint256"
        }
      ],
      "stateMutability": "view",
      "type": "function"
    },
    {
      "inputs": [],
      "name": "nTCcb",
      "outputs": [
        {
          "internalType": "uint256",
          "name": "",
          "type": "uint256"
        }
      ],
      "stateMutability": "view",
      "type": "function"
    },
    {
      "inputs": [],
      "name": "nextEmaCalculation",
      "outputs": [
        {
          "internalType": "uint256",
          "name": "",
          "type": "uint256"
        }
      ],
      "stateMutability": "view",
      "type": "function"
    },
    {
      "inputs": [],
      "name": "nextTCInterestPayment",
      "outputs": [
        {
          "internalType": "uint256",
          "name": "",
          "type": "uint256"
        }
      ],
      "stateMutability": "view",
      "type": "function"
    },
    {
      "inputs": [],
      "name": "pause",
      "outputs": [],
      "stateMutability": "nonpayable",
      "type": "function"
    },
    {
      "inputs": [],
      "name": "paused",
      "outputs": [
        {
          "internalType": "bool",
          "name": "",
          "type": "bool"
        }
      ],
      "stateMutability": "view",
      "type": "function"
    },
    {
      "inputs": [],
      "name": "pauser",
      "outputs": [
        {
          "internalType": "address",
          "name": "",
          "type": "address"
        }
      ],
      "stateMutability": "view",
      "type": "function"
    },
    {
      "inputs": [
        {
          "internalType": "uint256",
          "name": "",
          "type": "uint256"
        }
      ],
      "name": "pegContainer",
      "outputs": [
        {
          "internalType": "uint256",
          "name": "nTP",
          "type": "uint256"
        },
        {
          "internalType": "contract IPriceProvider",
          "name": "priceProvider",
          "type": "address"
        }
      ],
      "stateMutability": "view",
      "type": "function"
    },
    {
      "inputs": [
        {
          "internalType": "address",
          "name": "",
          "type": "address"
        }
      ],
      "name": "peggedTokenIndex",
      "outputs": [
        {
          "internalType": "uint256",
          "name": "index",
          "type": "uint256"
        },
        {
          "internalType": "bool",
          "name": "exists",
          "type": "bool"
        }
      ],
      "stateMutability": "view",
      "type": "function"
    },
    {
      "inputs": [],
      "name": "protThrld",
      "outputs": [
        {
          "internalType": "uint256",
          "name": "",
          "type": "uint256"
        }
      ],
      "stateMutability": "view",
      "type": "function"
    },
    {
      "inputs": [],
      "name": "proxiableUUID",
      "outputs": [
        {
          "internalType": "bytes32",
          "name": "",
          "type": "bytes32"
        }
      ],
      "stateMutability": "view",
      "type": "function"
    },
    {
      "inputs": [],
      "name": "qACLockedInPending",
      "outputs": [
        {
          "internalType": "uint256",
          "name": "",
          "type": "uint256"
        }
      ],
      "stateMutability": "view",
      "type": "function"
    },
    {
      "inputs": [
        {
          "internalType": "uint256",
          "name": "qTC_",
          "type": "uint256"
        },
        {
          "internalType": "uint256",
          "name": "qACmin_",
          "type": "uint256"
        }
      ],
      "name": "redeemTC",
      "outputs": [
        {
          "internalType": "uint256",
          "name": "qACtoRedeem",
          "type": "uint256"
        },
        {
          "internalType": "uint256",
          "name": "qFeeTokenTotalNeeded",
          "type": "uint256"
        },
        {
          "components": [
            {
              "internalType": "uint256",
              "name": "qACFee",
              "type": "uint256"
            },
            {
              "internalType": "uint256",
              "name": "qFeeToken",
              "type": "uint256"
            },
            {
              "internalType": "uint256",
              "name": "qACVendorMarkup",
              "type": "uint256"
            },
            {
              "internalType": "uint256",
              "name": "qFeeTokenVendorMarkup",
              "type": "uint256"
            }
          ],
          "internalType": "struct MocCommons.FeeCalcs",
          "name": "feeCalcs",
          "type": "tuple"
        }
      ],
      "stateMutability": "payable",
      "type": "function"
    },
    {
      "inputs": [
        {
          "internalType": "uint256",
          "name": "qTC_",
          "type": "uint256"
        },
        {
          "internalType": "uint256",
          "name": "qACmin_",
          "type": "uint256"
        },
        {
          "internalType": "address",
          "name": "vendor_",
          "type": "address"
        }
      ],
      "name": "redeemTCViaVendor",
      "outputs": [
        {
          "internalType": "uint256",
          "name": "qACtoRedeem",
          "type": "uint256"
        },
        {
          "internalType": "uint256",
          "name": "qFeeTokenTotalNeeded",
          "type": "uint256"
        },
        {
          "components": [
            {
              "internalType": "uint256",
              "name": "qACFee",
              "type": "uint256"
            },
            {
              "internalType": "uint256",
              "name": "qFeeToken",
              "type": "uint256"
            },
            {
              "internalType": "uint256",
              "name": "qACVendorMarkup",
              "type": "uint256"
            },
            {
              "internalType": "uint256",
              "name": "qFeeTokenVendorMarkup",
              "type": "uint256"
            }
          ],
          "internalType": "struct MocCommons.FeeCalcs",
          "name": "feeCalcs",
          "type": "tuple"
        }
      ],
      "stateMutability": "payable",
      "type": "function"
    },
    {
      "inputs": [
        {
          "internalType": "address",
          "name": "tp_",
          "type": "address"
        },
        {
          "internalType": "uint256",
          "name": "qTC_",
          "type": "uint256"
        },
        {
          "internalType": "uint256",
          "name": "qTP_",
          "type": "uint256"
        },
        {
          "internalType": "uint256",
          "name": "qACmin_",
          "type": "uint256"
        }
      ],
      "name": "redeemTCandTP",
      "outputs": [
        {
          "internalType": "uint256",
          "name": "qACtoRedeem",
          "type": "uint256"
        },
        {
          "internalType": "uint256",
          "name": "qTPtoRedeem",
          "type": "uint256"
        },
        {
          "internalType": "uint256",
          "name": "qFeeTokenTotalNeeded",
          "type": "uint256"
        },
        {
          "components": [
            {
              "internalType": "uint256",
              "name": "qACFee",
              "type": "uint256"
            },
            {
              "internalType": "uint256",
              "name": "qFeeToken",
              "type": "uint256"
            },
            {
              "internalType": "uint256",
              "name": "qACVendorMarkup",
              "type": "uint256"
            },
            {
              "internalType": "uint256",
              "name": "qFeeTokenVendorMarkup",
              "type": "uint256"
            }
          ],
          "internalType": "struct MocCommons.FeeCalcs",
          "name": "feeCalcs",
          "type": "tuple"
        }
      ],
      "stateMutability": "payable",
      "type": "function"
    },
    {
      "inputs": [],
      "name": "redeemTCandTPFee",
      "outputs": [
        {
          "internalType": "uint256",
          "name": "",
          "type": "uint256"
        }
      ],
      "stateMutability": "view",
      "type": "function"
    },
    {
      "inputs": [
        {
          "internalType": "address",
          "name": "tp_",
          "type": "address"
        },
        {
          "internalType": "uint256",
          "name": "qTC_",
          "type": "uint256"
        },
        {
          "internalType": "uint256",
          "name": "qTP_",
          "type": "uint256"
        },
        {
          "internalType": "uint256",
          "name": "qACmin_",
          "type": "uint256"
        },
        {
          "internalType": "address",
          "name": "vendor_",
          "type": "address"
        }
      ],
      "name": "redeemTCandTPViaVendor",
      "outputs": [
        {
          "internalType": "uint256",
          "name": "qACtoRedeem",
          "type": "uint256"
        },
        {
          "internalType": "uint256",
          "name": "qTPtoRedeem",
          "type": "uint256"
        },
        {
          "internalType": "uint256",
          "name": "qFeeTokenTotalNeeded",
          "type": "uint256"
        },
        {
          "components": [
            {
              "internalType": "uint256",
              "name": "qACFee",
              "type": "uint256"
            },
            {
              "internalType": "uint256",
              "name": "qFeeToken",
              "type": "uint256"
            },
            {
              "internalType": "uint256",
              "name": "qACVendorMarkup",
              "type": "uint256"
            },
            {
              "internalType": "uint256",
              "name": "qFeeTokenVendorMarkup",
              "type": "uint256"
            }
          ],
          "internalType": "struct MocCommons.FeeCalcs",
          "name": "feeCalcs",
          "type": "tuple"
        }
      ],
      "stateMutability": "payable",
      "type": "function"
    },
    {
      "inputs": [
        {
          "internalType": "address",
          "name": "tp_",
          "type": "address"
        },
        {
          "internalType": "uint256",
          "name": "qTC_",
          "type": "uint256"
        },
        {
          "internalType": "uint256",
          "name": "qTP_",
          "type": "uint256"
        },
        {
          "internalType": "uint256",
          "name": "qACmin_",
          "type": "uint256"
        },
        {
          "internalType": "address",
          "name": "recipient_",
          "type": "address"
        }
      ],
      "name": "redeemTCandTPto",
      "outputs": [
        {
          "internalType": "uint256",
          "name": "qACtoRedeem",
          "type": "uint256"
        },
        {
          "internalType": "uint256",
          "name": "qTPtoRedeem",
          "type": "uint256"
        },
        {
          "internalType": "uint256",
          "name": "qFeeTokenTotalNeeded",
          "type": "uint256"
        },
        {
          "components": [
            {
              "internalType": "uint256",
              "name": "qACFee",
              "type": "uint256"
            },
            {
              "internalType": "uint256",
              "name": "qFeeToken",
              "type": "uint256"
            },
            {
              "internalType": "uint256",
              "name": "qACVendorMarkup",
              "type": "uint256"
            },
            {
              "internalType": "uint256",
              "name": "qFeeTokenVendorMarkup",
              "type": "uint256"
            }
          ],
          "internalType": "struct MocCommons.FeeCalcs",
          "name": "feeCalcs",
          "type": "tuple"
        }
      ],
      "stateMutability": "payable",
      "type": "function"
    },
    {
      "inputs": [
        {
          "internalType": "address",
          "name": "tp_",
          "type": "address"
        },
        {
          "internalType": "uint256",
          "name": "qTC_",
          "type": "uint256"
        },
        {
          "internalType": "uint256",
          "name": "qTP_",
          "type": "uint256"
        },
        {
          "internalType": "uint256",
          "name": "qACmin_",
          "type": "uint256"
        },
        {
          "internalType": "address",
          "name": "recipient_",
          "type": "address"
        },
        {
          "internalType": "address",
          "name": "vendor_",
          "type": "address"
        }
      ],
      "name": "redeemTCandTPtoViaVendor",
      "outputs": [
        {
          "internalType": "uint256",
          "name": "qACtoRedeem",
          "type": "uint256"
        },
        {
          "internalType": "uint256",
          "name": "qTPtoRedeem",
          "type": "uint256"
        },
        {
          "internalType": "uint256",
          "name": "qFeeTokenTotalNeeded",
          "type": "uint256"
        },
        {
          "components": [
            {
              "internalType": "uint256",
              "name": "qACFee",
              "type": "uint256"
            },
            {
              "internalType": "uint256",
              "name": "qFeeToken",
              "type": "uint256"
            },
            {
              "internalType": "uint256",
              "name": "qACVendorMarkup",
              "type": "uint256"
            },
            {
              "internalType": "uint256",
              "name": "qFeeTokenVendorMarkup",
              "type": "uint256"
            }
          ],
          "internalType": "struct MocCommons.FeeCalcs",
          "name": "feeCalcs",
          "type": "tuple"
        }
      ],
      "stateMutability": "payable",
      "type": "function"
    },
    {
      "inputs": [
        {
          "internalType": "uint256",
          "name": "qTC_",
          "type": "uint256"
        },
        {
          "internalType": "uint256",
          "name": "qACmin_",
          "type": "uint256"
        },
        {
          "internalType": "address",
          "name": "recipient_",
          "type": "address"
        }
      ],
      "name": "redeemTCto",
      "outputs": [
        {
          "internalType": "uint256",
          "name": "qACtoRedeem",
          "type": "uint256"
        },
        {
          "internalType": "uint256",
          "name": "qFeeTokenTotalNeeded",
          "type": "uint256"
        },
        {
          "components": [
            {
              "internalType": "uint256",
              "name": "qACFee",
              "type": "uint256"
            },
            {
              "internalType": "uint256",
              "name": "qFeeToken",
              "type": "uint256"
            },
            {
              "internalType": "uint256",
              "name": "qACVendorMarkup",
              "type": "uint256"
            },
            {
              "internalType": "uint256",
              "name": "qFeeTokenVendorMarkup",
              "type": "uint256"
            }
          ],
          "internalType": "struct MocCommons.FeeCalcs",
          "name": "feeCalcs",
          "type": "tuple"
        }
      ],
      "stateMutability": "payable",
      "type": "function"
    },
    {
      "inputs": [
        {
          "internalType": "uint256",
          "name": "qTC_",
          "type": "uint256"
        },
        {
          "internalType": "uint256",
          "name": "qACmin_",
          "type": "uint256"
        },
        {
          "internalType": "address",
          "name": "recipient_",
          "type": "address"
        },
        {
          "internalType": "address",
          "name": "vendor_",
          "type": "address"
        }
      ],
      "name": "redeemTCtoViaVendor",
      "outputs": [
        {
          "internalType": "uint256",
          "name": "qACtoRedeem",
          "type": "uint256"
        },
        {
          "internalType": "uint256",
          "name": "qFeeTokenTotalNeeded",
          "type": "uint256"
        },
        {
          "components": [
            {
              "internalType": "uint256",
              "name": "qACFee",
              "type": "uint256"
            },
            {
              "internalType": "uint256",
              "name": "qFeeToken",
              "type": "uint256"
            },
            {
              "internalType": "uint256",
              "name": "qACVendorMarkup",
              "type": "uint256"
            },
            {
              "internalType": "uint256",
              "name": "qFeeTokenVendorMarkup",
              "type": "uint256"
            }
          ],
          "internalType": "struct MocCommons.FeeCalcs",
          "name": "feeCalcs",
          "type": "tuple"
        }
      ],
      "stateMutability": "payable",
      "type": "function"
    },
    {
      "inputs": [
        {
          "internalType": "address",
          "name": "tp_",
          "type": "address"
        },
        {
          "internalType": "uint256",
          "name": "qTP_",
          "type": "uint256"
        },
        {
          "internalType": "uint256",
          "name": "qACmin_",
          "type": "uint256"
        }
      ],
      "name": "redeemTP",
      "outputs": [
        {
          "internalType": "uint256",
          "name": "qACtoRedeem",
          "type": "uint256"
        },
        {
          "internalType": "uint256",
          "name": "qFeeTokenTotalNeeded",
          "type": "uint256"
        },
        {
          "components": [
            {
              "internalType": "uint256",
              "name": "qACFee",
              "type": "uint256"
            },
            {
              "internalType": "uint256",
              "name": "qFeeToken",
              "type": "uint256"
            },
            {
              "internalType": "uint256",
              "name": "qACVendorMarkup",
              "type": "uint256"
            },
            {
              "internalType": "uint256",
              "name": "qFeeTokenVendorMarkup",
              "type": "uint256"
            }
          ],
          "internalType": "struct MocCommons.FeeCalcs",
          "name": "feeCalcs",
          "type": "tuple"
        }
      ],
      "stateMutability": "payable",
      "type": "function"
    },
    {
      "inputs": [
        {
          "internalType": "address",
          "name": "tp_",
          "type": "address"
        },
        {
          "internalType": "uint256",
          "name": "qTP_",
          "type": "uint256"
        },
        {
          "internalType": "uint256",
          "name": "qACmin_",
          "type": "uint256"
        },
        {
          "internalType": "address",
          "name": "vendor_",
          "type": "address"
        }
      ],
      "name": "redeemTPViaVendor",
      "outputs": [
        {
          "internalType": "uint256",
          "name": "qACtoRedeem",
          "type": "uint256"
        },
        {
          "internalType": "uint256",
          "name": "qFeeTokenTotalNeeded",
          "type": "uint256"
        },
        {
          "components": [
            {
              "internalType": "uint256",
              "name": "qACFee",
              "type": "uint256"
            },
            {
              "internalType": "uint256",
              "name": "qFeeToken",
              "type": "uint256"
            },
            {
              "internalType": "uint256",
              "name": "qACVendorMarkup",
              "type": "uint256"
            },
            {
              "internalType": "uint256",
              "name": "qFeeTokenVendorMarkup",
              "type": "uint256"
            }
          ],
          "internalType": "struct MocCommons.FeeCalcs",
          "name": "feeCalcs",
          "type": "tuple"
        }
      ],
      "stateMutability": "payable",
      "type": "function"
    },
    {
      "inputs": [
        {
          "internalType": "address",
          "name": "tp_",
          "type": "address"
        },
        {
          "internalType": "uint256",
          "name": "qTP_",
          "type": "uint256"
        },
        {
          "internalType": "uint256",
          "name": "qACmin_",
          "type": "uint256"
        },
        {
          "internalType": "address",
          "name": "recipient_",
          "type": "address"
        }
      ],
      "name": "redeemTPto",
      "outputs": [
        {
          "internalType": "uint256",
          "name": "qACtoRedeem",
          "type": "uint256"
        },
        {
          "internalType": "uint256",
          "name": "qFeeTokenTotalNeeded",
          "type": "uint256"
        },
        {
          "components": [
            {
              "internalType": "uint256",
              "name": "qACFee",
              "type": "uint256"
            },
            {
              "internalType": "uint256",
              "name": "qFeeToken",
              "type": "uint256"
            },
            {
              "internalType": "uint256",
              "name": "qACVendorMarkup",
              "type": "uint256"
            },
            {
              "internalType": "uint256",
              "name": "qFeeTokenVendorMarkup",
              "type": "uint256"
            }
          ],
          "internalType": "struct MocCommons.FeeCalcs",
          "name": "feeCalcs",
          "type": "tuple"
        }
      ],
      "stateMutability": "payable",
      "type": "function"
    },
    {
      "inputs": [
        {
          "internalType": "address",
          "name": "tp_",
          "type": "address"
        },
        {
          "internalType": "uint256",
          "name": "qTP_",
          "type": "uint256"
        },
        {
          "internalType": "uint256",
          "name": "qACmin_",
          "type": "uint256"
        },
        {
          "internalType": "address",
          "name": "recipient_",
          "type": "address"
        },
        {
          "internalType": "address",
          "name": "vendor_",
          "type": "address"
        }
      ],
      "name": "redeemTPtoViaVendor",
      "outputs": [
        {
          "internalType": "uint256",
          "name": "qACtoRedeem",
          "type": "uint256"
        },
        {
          "internalType": "uint256",
          "name": "qFeeTokenTotalNeeded",
          "type": "uint256"
        },
        {
          "components": [
            {
              "internalType": "uint256",
              "name": "qACFee",
              "type": "uint256"
            },
            {
              "internalType": "uint256",
              "name": "qFeeToken",
              "type": "uint256"
            },
            {
              "internalType": "uint256",
              "name": "qACVendorMarkup",
              "type": "uint256"
            },
            {
              "internalType": "uint256",
              "name": "qFeeTokenVendorMarkup",
              "type": "uint256"
            }
          ],
          "internalType": "struct MocCommons.FeeCalcs",
          "name": "feeCalcs",
          "type": "tuple"
        }
      ],
      "stateMutability": "payable",
      "type": "function"
    },
    {
      "inputs": [],
      "name": "refreshACBalance",
      "outputs": [],
      "stateMutability": "nonpayable",
      "type": "function"
    },
    {
      "inputs": [
        {
          "internalType": "uint256",
          "name": "appreciationFactor_",
          "type": "uint256"
        }
      ],
      "name": "setAppreciationFactor",
      "outputs": [],
      "stateMutability": "nonpayable",
      "type": "function"
    },
    {
      "inputs": [
        {
          "internalType": "uint256",
          "name": "bes_",
          "type": "uint256"
        }
      ],
      "name": "setBes",
      "outputs": [],
      "stateMutability": "nonpayable",
      "type": "function"
    },
    {
      "inputs": [
        {
          "internalType": "uint256",
          "name": "decayBlockSpan_",
          "type": "uint256"
        }
      ],
      "name": "setDecayBlockSpan",
      "outputs": [],
      "stateMutability": "nonpayable",
      "type": "function"
    },
    {
      "inputs": [
        {
          "internalType": "uint256",
          "name": "blockSpan_",
          "type": "uint256"
        }
      ],
      "name": "setEmaCalculationBlockSpan",
      "outputs": [],
      "stateMutability": "nonpayable",
      "type": "function"
    },
    {
      "inputs": [
        {
          "internalType": "uint256",
          "name": "feeRetainer_",
          "type": "uint256"
        }
      ],
      "name": "setFeeRetainer",
      "outputs": [],
      "stateMutability": "nonpayable",
      "type": "function"
    },
    {
      "inputs": [
        {
          "internalType": "address",
          "name": "mocFeeTokenAddress_",
          "type": "address"
        }
      ],
      "name": "setFeeTokenAddress",
      "outputs": [],
      "stateMutability": "nonpayable",
      "type": "function"
    },
    {
      "inputs": [
        {
          "internalType": "uint256",
          "name": "feeTokenPct_",
          "type": "uint256"
        }
      ],
      "name": "setFeeTokenPct",
      "outputs": [],
      "stateMutability": "nonpayable",
      "type": "function"
    },
    {
      "inputs": [
        {
          "internalType": "address",
          "name": "mocFeeTokenPriceProviderAddress_",
          "type": "address"
        }
      ],
      "name": "setFeeTokenPriceProviderAddress",
      "outputs": [],
      "stateMutability": "nonpayable",
      "type": "function"
    },
    {
      "inputs": [
        {
          "internalType": "bool",
          "name": "liqEnabled_",
          "type": "bool"
        }
      ],
      "name": "setLiqEnabled",
      "outputs": [],
      "stateMutability": "nonpayable",
      "type": "function"
    },
    {
      "inputs": [
        {
          "internalType": "uint256",
          "name": "liqThrld_",
          "type": "uint256"
        }
      ],
      "name": "setLiqThrld",
      "outputs": [],
      "stateMutability": "nonpayable",
      "type": "function"
    },
    {
      "inputs": [
        {
          "internalType": "address",
          "name": "maxAbsoluteOpProviderAddress_",
          "type": "address"
        }
      ],
      "name": "setMaxAbsoluteOpProviderAddress",
      "outputs": [],
      "stateMutability": "nonpayable",
      "type": "function"
    },
    {
      "inputs": [
        {
          "internalType": "address",
          "name": "maxOpDiffProviderAddress_",
          "type": "address"
        }
      ],
      "name": "setMaxOpDiffProviderAddress",
      "outputs": [],
      "stateMutability": "nonpayable",
      "type": "function"
    },
    {
      "inputs": [
        {
          "internalType": "uint256",
          "name": "mintTCandTPFee_",
          "type": "uint256"
        }
      ],
      "name": "setMintTCandTPFee",
      "outputs": [],
      "stateMutability": "nonpayable",
      "type": "function"
    },
    {
      "inputs": [
        {
          "internalType": "address",
          "name": "mocAppreciationBeneficiaryAddress_",
          "type": "address"
        }
      ],
      "name": "setMocAppreciationBeneficiaryAddress",
      "outputs": [],
      "stateMutability": "nonpayable",
      "type": "function"
    },
    {
      "inputs": [
        {
          "internalType": "address",
          "name": "mocCoreExpansion_",
          "type": "address"
        }
      ],
      "name": "setMocCoreExpansion",
      "outputs": [],
      "stateMutability": "nonpayable",
      "type": "function"
    },
    {
      "inputs": [
        {
          "internalType": "address",
          "name": "mocFeeFlowAddress_",
          "type": "address"
        }
      ],
      "name": "setMocFeeFlowAddress",
      "outputs": [],
      "stateMutability": "nonpayable",
      "type": "function"
    },
    {
      "inputs": [
        {
          "internalType": "address",
          "name": "mocQueueAddress_",
          "type": "address"
        }
      ],
      "name": "setMocQueue",
      "outputs": [],
      "stateMutability": "nonpayable",
      "type": "function"
    },
    {
      "inputs": [
        {
          "internalType": "address",
          "name": "mocVendors_",
          "type": "address"
        }
      ],
      "name": "setMocVendors",
      "outputs": [],
      "stateMutability": "nonpayable",
      "type": "function"
    },
    {
      "inputs": [
        {
          "internalType": "address",
          "name": "newPauser_",
          "type": "address"
        }
      ],
      "name": "setPauser",
      "outputs": [],
      "stateMutability": "nonpayable",
      "type": "function"
    },
    {
      "inputs": [
        {
          "internalType": "uint256",
          "name": "protThrld_",
          "type": "uint256"
        }
      ],
      "name": "setProtThrld",
      "outputs": [],
      "stateMutability": "nonpayable",
      "type": "function"
    },
    {
      "inputs": [
        {
          "internalType": "uint256",
          "name": "redeemTCandTPFee_",
          "type": "uint256"
        }
      ],
      "name": "setRedeemTCandTPFee",
      "outputs": [],
      "stateMutability": "nonpayable",
      "type": "function"
    },
    {
      "inputs": [
        {
          "internalType": "uint256",
          "name": "successFee_",
          "type": "uint256"
        }
      ],
      "name": "setSuccessFee",
      "outputs": [],
      "stateMutability": "nonpayable",
      "type": "function"
    },
    {
      "inputs": [
        {
          "internalType": "uint256",
          "name": "swapTCforTPFee_",
          "type": "uint256"
        }
      ],
      "name": "setSwapTCforTPFee",
      "outputs": [],
      "stateMutability": "nonpayable",
      "type": "function"
    },
    {
      "inputs": [
        {
          "internalType": "uint256",
          "name": "swapTPforTCFee_",
          "type": "uint256"
        }
      ],
      "name": "setSwapTPforTCFee",
      "outputs": [],
      "stateMutability": "nonpayable",
      "type": "function"
    },
    {
      "inputs": [
        {
          "internalType": "uint256",
          "name": "swapTPforTPFee_",
          "type": "uint256"
        }
      ],
      "name": "setSwapTPforTPFee",
      "outputs": [],
      "stateMutability": "nonpayable",
      "type": "function"
    },
    {
      "inputs": [
        {
          "internalType": "address",
          "name": "tcInterestCollectorAddress_",
          "type": "address"
        }
      ],
      "name": "setTCInterestCollectorAddress",
      "outputs": [],
      "stateMutability": "nonpayable",
      "type": "function"
    },
    {
      "inputs": [
        {
          "internalType": "uint256",
          "name": "tcInterestPaymentBlockSpan_",
          "type": "uint256"
        }
      ],
      "name": "setTCInterestPaymentBlockSpan",
      "outputs": [],
      "stateMutability": "nonpayable",
      "type": "function"
    },
    {
      "inputs": [
        {
          "internalType": "uint256",
          "name": "tcInterestRate_",
          "type": "uint256"
        }
      ],
      "name": "setTCInterestRate",
      "outputs": [],
      "stateMutability": "nonpayable",
      "type": "function"
    },
    {
      "inputs": [
        {
          "internalType": "uint256",
          "name": "tcMintFee_",
          "type": "uint256"
        }
      ],
      "name": "setTcMintFee",
      "outputs": [],
      "stateMutability": "nonpayable",
      "type": "function"
    },
    {
      "inputs": [
        {
          "internalType": "uint256",
          "name": "tcRedeemFee_",
          "type": "uint256"
        }
      ],
      "name": "setTcRedeemFee",
      "outputs": [],
      "stateMutability": "nonpayable",
      "type": "function"
    },
    {
      "inputs": [],
      "name": "shouldCalculateEma",
      "outputs": [
        {
          "internalType": "bool",
          "name": "",
          "type": "bool"
        }
      ],
      "stateMutability": "view",
      "type": "function"
    },
    {
      "inputs": [],
      "name": "stoppable",
      "outputs": [
        {
          "internalType": "bool",
          "name": "",
          "type": "bool"
        }
      ],
      "stateMutability": "view",
      "type": "function"
    },
    {
      "inputs": [],
      "name": "successFee",
      "outputs": [
        {
          "internalType": "uint256",
          "name": "",
          "type": "uint256"
        }
      ],
      "stateMutability": "view",
      "type": "function"
    },
    {
      "inputs": [
        {
          "internalType": "address",
          "name": "tp_",
          "type": "address"
        },
        {
          "internalType": "uint256",
          "name": "qTC_",
          "type": "uint256"
        },
        {
          "internalType": "uint256",
          "name": "qTPmin_",
          "type": "uint256"
        },
        {
          "internalType": "uint256",
          "name": "qACmax_",
          "type": "uint256"
        }
      ],
      "name": "swapTCforTP",
      "outputs": [
        {
          "internalType": "uint256",
          "name": "qACSurcharges",
          "type": "uint256"
        },
        {
          "internalType": "uint256",
          "name": "qTPtoMint",
          "type": "uint256"
        },
        {
          "internalType": "uint256",
          "name": "qFeeTokenTotalNeeded",
          "type": "uint256"
        },
        {
          "components": [
            {
              "internalType": "uint256",
              "name": "qACFee",
              "type": "uint256"
            },
            {
              "internalType": "uint256",
              "name": "qFeeToken",
              "type": "uint256"
            },
            {
              "internalType": "uint256",
              "name": "qACVendorMarkup",
              "type": "uint256"
            },
            {
              "internalType": "uint256",
              "name": "qFeeTokenVendorMarkup",
              "type": "uint256"
            }
          ],
          "internalType": "struct MocCommons.FeeCalcs",
          "name": "feeCalcs",
          "type": "tuple"
        }
      ],
      "stateMutability": "payable",
      "type": "function"
    },
    {
      "inputs": [],
      "name": "swapTCforTPFee",
      "outputs": [
        {
          "internalType": "uint256",
          "name": "",
          "type": "uint256"
        }
      ],
      "stateMutability": "view",
      "type": "function"
    },
    {
      "inputs": [
        {
          "internalType": "address",
          "name": "tp_",
          "type": "address"
        },
        {
          "internalType": "uint256",
          "name": "qTC_",
          "type": "uint256"
        },
        {
          "internalType": "uint256",
          "name": "qTPmin_",
          "type": "uint256"
        },
        {
          "internalType": "uint256",
          "name": "qACmax_",
          "type": "uint256"
        },
        {
          "internalType": "address",
          "name": "vendor_",
          "type": "address"
        }
      ],
      "name": "swapTCforTPViaVendor",
      "outputs": [
        {
          "internalType": "uint256",
          "name": "qACSurcharges",
          "type": "uint256"
        },
        {
          "internalType": "uint256",
          "name": "qTPtoMint",
          "type": "uint256"
        },
        {
          "internalType": "uint256",
          "name": "qFeeTokenTotalNeeded",
          "type": "uint256"
        },
        {
          "components": [
            {
              "internalType": "uint256",
              "name": "qACFee",
              "type": "uint256"
            },
            {
              "internalType": "uint256",
              "name": "qFeeToken",
              "type": "uint256"
            },
            {
              "internalType": "uint256",
              "name": "qACVendorMarkup",
              "type": "uint256"
            },
            {
              "internalType": "uint256",
              "name": "qFeeTokenVendorMarkup",
              "type": "uint256"
            }
          ],
          "internalType": "struct MocCommons.FeeCalcs",
          "name": "feeCalcs",
          "type": "tuple"
        }
      ],
      "stateMutability": "payable",
      "type": "function"
    },
    {
      "inputs": [
        {
          "internalType": "address",
          "name": "tp_",
          "type": "address"
        },
        {
          "internalType": "uint256",
          "name": "qTC_",
          "type": "uint256"
        },
        {
          "internalType": "uint256",
          "name": "qTPmin_",
          "type": "uint256"
        },
        {
          "internalType": "uint256",
          "name": "qACmax_",
          "type": "uint256"
        },
        {
          "internalType": "address",
          "name": "recipient_",
          "type": "address"
        }
      ],
      "name": "swapTCforTPto",
      "outputs": [
        {
          "internalType": "uint256",
          "name": "qACSurcharges",
          "type": "uint256"
        },
        {
          "internalType": "uint256",
          "name": "qTPtoMint",
          "type": "uint256"
        },
        {
          "internalType": "uint256",
          "name": "qFeeTokenTotalNeeded",
          "type": "uint256"
        },
        {
          "components": [
            {
              "internalType": "uint256",
              "name": "qACFee",
              "type": "uint256"
            },
            {
              "internalType": "uint256",
              "name": "qFeeToken",
              "type": "uint256"
            },
            {
              "internalType": "uint256",
              "name": "qACVendorMarkup",
              "type": "uint256"
            },
            {
              "internalType": "uint256",
              "name": "qFeeTokenVendorMarkup",
              "type": "uint256"
            }
          ],
          "internalType": "struct MocCommons.FeeCalcs",
          "name": "feeCalcs",
          "type": "tuple"
        }
      ],
      "stateMutability": "payable",
      "type": "function"
    },
    {
      "inputs": [
        {
          "internalType": "address",
          "name": "tp_",
          "type": "address"
        },
        {
          "internalType": "uint256",
          "name": "qTC_",
          "type": "uint256"
        },
        {
          "internalType": "uint256",
          "name": "qTPmin_",
          "type": "uint256"
        },
        {
          "internalType": "uint256",
          "name": "qACmax_",
          "type": "uint256"
        },
        {
          "internalType": "address",
          "name": "recipient_",
          "type": "address"
        },
        {
          "internalType": "address",
          "name": "vendor_",
          "type": "address"
        }
      ],
      "name": "swapTCforTPtoViaVendor",
      "outputs": [
        {
          "internalType": "uint256",
          "name": "qACSurcharges",
          "type": "uint256"
        },
        {
          "internalType": "uint256",
          "name": "qTPtoMint",
          "type": "uint256"
        },
        {
          "internalType": "uint256",
          "name": "qFeeTokenTotalNeeded",
          "type": "uint256"
        },
        {
          "components": [
            {
              "internalType": "uint256",
              "name": "qACFee",
              "type": "uint256"
            },
            {
              "internalType": "uint256",
              "name": "qFeeToken",
              "type": "uint256"
            },
            {
              "internalType": "uint256",
              "name": "qACVendorMarkup",
              "type": "uint256"
            },
            {
              "internalType": "uint256",
              "name": "qFeeTokenVendorMarkup",
              "type": "uint256"
            }
          ],
          "internalType": "struct MocCommons.FeeCalcs",
          "name": "feeCalcs",
          "type": "tuple"
        }
      ],
      "stateMutability": "payable",
      "type": "function"
    },
    {
      "inputs": [
        {
          "internalType": "address",
          "name": "tp_",
          "type": "address"
        },
        {
          "internalType": "uint256",
          "name": "qTP_",
          "type": "uint256"
        },
        {
          "internalType": "uint256",
          "name": "qTCmin_",
          "type": "uint256"
        },
        {
          "internalType": "uint256",
          "name": "qACmax_",
          "type": "uint256"
        }
      ],
      "name": "swapTPforTC",
      "outputs": [
        {
          "internalType": "uint256",
          "name": "qACSurcharges",
          "type": "uint256"
        },
        {
          "internalType": "uint256",
          "name": "qTCMinted",
          "type": "uint256"
        },
        {
          "internalType": "uint256",
          "name": "qFeeTokenTotalNeeded",
          "type": "uint256"
        },
        {
          "components": [
            {
              "internalType": "uint256",
              "name": "qACFee",
              "type": "uint256"
            },
            {
              "internalType": "uint256",
              "name": "qFeeToken",
              "type": "uint256"
            },
            {
              "internalType": "uint256",
              "name": "qACVendorMarkup",
              "type": "uint256"
            },
            {
              "internalType": "uint256",
              "name": "qFeeTokenVendorMarkup",
              "type": "uint256"
            }
          ],
          "internalType": "struct MocCommons.FeeCalcs",
          "name": "feeCalcs",
          "type": "tuple"
        }
      ],
      "stateMutability": "payable",
      "type": "function"
    },
    {
      "inputs": [],
      "name": "swapTPforTCFee",
      "outputs": [
        {
          "internalType": "uint256",
          "name": "",
          "type": "uint256"
        }
      ],
      "stateMutability": "view",
      "type": "function"
    },
    {
      "inputs": [
        {
          "internalType": "address",
          "name": "tp_",
          "type": "address"
        },
        {
          "internalType": "uint256",
          "name": "qTP_",
          "type": "uint256"
        },
        {
          "internalType": "uint256",
          "name": "qTCmin_",
          "type": "uint256"
        },
        {
          "internalType": "uint256",
          "name": "qACmax_",
          "type": "uint256"
        },
        {
          "internalType": "address",
          "name": "vendor_",
          "type": "address"
        }
      ],
      "name": "swapTPforTCViaVendor",
      "outputs": [
        {
          "internalType": "uint256",
          "name": "qACSurcharges",
          "type": "uint256"
        },
        {
          "internalType": "uint256",
          "name": "qTCMinted",
          "type": "uint256"
        },
        {
          "internalType": "uint256",
          "name": "qFeeTokenTotalNeeded",
          "type": "uint256"
        },
        {
          "components": [
            {
              "internalType": "uint256",
              "name": "qACFee",
              "type": "uint256"
            },
            {
              "internalType": "uint256",
              "name": "qFeeToken",
              "type": "uint256"
            },
            {
              "internalType": "uint256",
              "name": "qACVendorMarkup",
              "type": "uint256"
            },
            {
              "internalType": "uint256",
              "name": "qFeeTokenVendorMarkup",
              "type": "uint256"
            }
          ],
          "internalType": "struct MocCommons.FeeCalcs",
          "name": "feeCalcs",
          "type": "tuple"
        }
      ],
      "stateMutability": "payable",
      "type": "function"
    },
    {
      "inputs": [
        {
          "internalType": "address",
          "name": "tp_",
          "type": "address"
        },
        {
          "internalType": "uint256",
          "name": "qTP_",
          "type": "uint256"
        },
        {
          "internalType": "uint256",
          "name": "qTCmin_",
          "type": "uint256"
        },
        {
          "internalType": "uint256",
          "name": "qACmax_",
          "type": "uint256"
        },
        {
          "internalType": "address",
          "name": "recipient_",
          "type": "address"
        }
      ],
      "name": "swapTPforTCto",
      "outputs": [
        {
          "internalType": "uint256",
          "name": "qACSurcharges",
          "type": "uint256"
        },
        {
          "internalType": "uint256",
          "name": "qTCMinted",
          "type": "uint256"
        },
        {
          "internalType": "uint256",
          "name": "qFeeTokenTotalNeeded",
          "type": "uint256"
        },
        {
          "components": [
            {
              "internalType": "uint256",
              "name": "qACFee",
              "type": "uint256"
            },
            {
              "internalType": "uint256",
              "name": "qFeeToken",
              "type": "uint256"
            },
            {
              "internalType": "uint256",
              "name": "qACVendorMarkup",
              "type": "uint256"
            },
            {
              "internalType": "uint256",
              "name": "qFeeTokenVendorMarkup",
              "type": "uint256"
            }
          ],
          "internalType": "struct MocCommons.FeeCalcs",
          "name": "feeCalcs",
          "type": "tuple"
        }
      ],
      "stateMutability": "payable",
      "type": "function"
    },
    {
      "inputs": [
        {
          "internalType": "address",
          "name": "tp_",
          "type": "address"
        },
        {
          "internalType": "uint256",
          "name": "qTP_",
          "type": "uint256"
        },
        {
          "internalType": "uint256",
          "name": "qTCmin_",
          "type": "uint256"
        },
        {
          "internalType": "uint256",
          "name": "qACmax_",
          "type": "uint256"
        },
        {
          "internalType": "address",
          "name": "recipient_",
          "type": "address"
        },
        {
          "internalType": "address",
          "name": "vendor_",
          "type": "address"
        }
      ],
      "name": "swapTPforTCtoViaVendor",
      "outputs": [
        {
          "internalType": "uint256",
          "name": "qACSurcharges",
          "type": "uint256"
        },
        {
          "internalType": "uint256",
          "name": "qTCMinted",
          "type": "uint256"
        },
        {
          "internalType": "uint256",
          "name": "qFeeTokenTotalNeeded",
          "type": "uint256"
        },
        {
          "components": [
            {
              "internalType": "uint256",
              "name": "qACFee",
              "type": "uint256"
            },
            {
              "internalType": "uint256",
              "name": "qFeeToken",
              "type": "uint256"
            },
            {
              "internalType": "uint256",
              "name": "qACVendorMarkup",
              "type": "uint256"
            },
            {
              "internalType": "uint256",
              "name": "qFeeTokenVendorMarkup",
              "type": "uint256"
            }
          ],
          "internalType": "struct MocCommons.FeeCalcs",
          "name": "feeCalcs",
          "type": "tuple"
        }
      ],
      "stateMutability": "payable",
      "type": "function"
    },
    {
      "inputs": [
        {
          "internalType": "address",
          "name": "tpFrom_",
          "type": "address"
        },
        {
          "internalType": "address",
          "name": "tpTo_",
          "type": "address"
        },
        {
          "internalType": "uint256",
          "name": "qTP_",
          "type": "uint256"
        },
        {
          "internalType": "uint256",
          "name": "qTPmin_",
          "type": "uint256"
        },
        {
          "internalType": "uint256",
          "name": "qACmax_",
          "type": "uint256"
        }
      ],
      "name": "swapTPforTP",
      "outputs": [
        {
          "internalType": "uint256",
          "name": "qACSurcharges",
          "type": "uint256"
        },
        {
          "internalType": "uint256",
          "name": "qTPMinted",
          "type": "uint256"
        },
        {
          "internalType": "uint256",
          "name": "qFeeTokenTotalNeeded",
          "type": "uint256"
        },
        {
          "components": [
            {
              "internalType": "uint256",
              "name": "qACFee",
              "type": "uint256"
            },
            {
              "internalType": "uint256",
              "name": "qFeeToken",
              "type": "uint256"
            },
            {
              "internalType": "uint256",
              "name": "qACVendorMarkup",
              "type": "uint256"
            },
            {
              "internalType": "uint256",
              "name": "qFeeTokenVendorMarkup",
              "type": "uint256"
            }
          ],
          "internalType": "struct MocCommons.FeeCalcs",
          "name": "feeCalcs",
          "type": "tuple"
        }
      ],
      "stateMutability": "payable",
      "type": "function"
    },
    {
      "inputs": [],
      "name": "swapTPforTPFee",
      "outputs": [
        {
          "internalType": "uint256",
          "name": "",
          "type": "uint256"
        }
      ],
      "stateMutability": "view",
      "type": "function"
    },
    {
      "inputs": [
        {
          "internalType": "address",
          "name": "tpFrom_",
          "type": "address"
        },
        {
          "internalType": "address",
          "name": "tpTo_",
          "type": "address"
        },
        {
          "internalType": "uint256",
          "name": "qTP_",
          "type": "uint256"
        },
        {
          "internalType": "uint256",
          "name": "qTPmin_",
          "type": "uint256"
        },
        {
          "internalType": "uint256",
          "name": "qACmax_",
          "type": "uint256"
        },
        {
          "internalType": "address",
          "name": "vendor_",
          "type": "address"
        }
      ],
      "name": "swapTPforTPViaVendor",
      "outputs": [
        {
          "internalType": "uint256",
          "name": "qACSurcharges",
          "type": "uint256"
        },
        {
          "internalType": "uint256",
          "name": "qTPMinted",
          "type": "uint256"
        },
        {
          "internalType": "uint256",
          "name": "qFeeTokenTotalNeeded",
          "type": "uint256"
        },
        {
          "components": [
            {
              "internalType": "uint256",
              "name": "qACFee",
              "type": "uint256"
            },
            {
              "internalType": "uint256",
              "name": "qFeeToken",
              "type": "uint256"
            },
            {
              "internalType": "uint256",
              "name": "qACVendorMarkup",
              "type": "uint256"
            },
            {
              "internalType": "uint256",
              "name": "qFeeTokenVendorMarkup",
              "type": "uint256"
            }
          ],
          "internalType": "struct MocCommons.FeeCalcs",
          "name": "feeCalcs",
          "type": "tuple"
        }
      ],
      "stateMutability": "payable",
      "type": "function"
    },
    {
      "inputs": [
        {
          "internalType": "address",
          "name": "tpFrom_",
          "type": "address"
        },
        {
          "internalType": "address",
          "name": "tpTo_",
          "type": "address"
        },
        {
          "internalType": "uint256",
          "name": "qTP_",
          "type": "uint256"
        },
        {
          "internalType": "uint256",
          "name": "qTPmin_",
          "type": "uint256"
        },
        {
          "internalType": "uint256",
          "name": "qACmax_",
          "type": "uint256"
        },
        {
          "internalType": "address",
          "name": "recipient_",
          "type": "address"
        }
      ],
      "name": "swapTPforTPto",
      "outputs": [
        {
          "internalType": "uint256",
          "name": "qACSurcharges",
          "type": "uint256"
        },
        {
          "internalType": "uint256",
          "name": "qTPMinted",
          "type": "uint256"
        },
        {
          "internalType": "uint256",
          "name": "qFeeTokenTotalNeeded",
          "type": "uint256"
        },
        {
          "components": [
            {
              "internalType": "uint256",
              "name": "qACFee",
              "type": "uint256"
            },
            {
              "internalType": "uint256",
              "name": "qFeeToken",
              "type": "uint256"
            },
            {
              "internalType": "uint256",
              "name": "qACVendorMarkup",
              "type": "uint256"
            },
            {
              "internalType": "uint256",
              "name": "qFeeTokenVendorMarkup",
              "type": "uint256"
            }
          ],
          "internalType": "struct MocCommons.FeeCalcs",
          "name": "feeCalcs",
          "type": "tuple"
        }
      ],
      "stateMutability": "payable",
      "type": "function"
    },
    {
      "inputs": [
        {
          "internalType": "address",
          "name": "tpFrom_",
          "type": "address"
        },
        {
          "internalType": "address",
          "name": "tpTo_",
          "type": "address"
        },
        {
          "internalType": "uint256",
          "name": "qTP_",
          "type": "uint256"
        },
        {
          "internalType": "uint256",
          "name": "qTPmin_",
          "type": "uint256"
        },
        {
          "internalType": "uint256",
          "name": "qACmax_",
          "type": "uint256"
        },
        {
          "internalType": "address",
          "name": "recipient_",
          "type": "address"
        },
        {
          "internalType": "address",
          "name": "vendor_",
          "type": "address"
        }
      ],
      "name": "swapTPforTPtoViaVendor",
      "outputs": [
        {
          "internalType": "uint256",
          "name": "qACSurcharges",
          "type": "uint256"
        },
        {
          "internalType": "uint256",
          "name": "qTPMinted",
          "type": "uint256"
        },
        {
          "internalType": "uint256",
          "name": "qFeeTokenTotalNeeded",
          "type": "uint256"
        },
        {
          "components": [
            {
              "internalType": "uint256",
              "name": "qACFee",
              "type": "uint256"
            },
            {
              "internalType": "uint256",
              "name": "qFeeToken",
              "type": "uint256"
            },
            {
              "internalType": "uint256",
              "name": "qACVendorMarkup",
              "type": "uint256"
            },
            {
              "internalType": "uint256",
              "name": "qFeeTokenVendorMarkup",
              "type": "uint256"
            }
          ],
          "internalType": "struct MocCommons.FeeCalcs",
          "name": "feeCalcs",
          "type": "tuple"
        }
      ],
      "stateMutability": "payable",
      "type": "function"
    },
    {
      "inputs": [],
      "name": "tcHoldersInterestPayment",
      "outputs": [],
      "stateMutability": "nonpayable",
      "type": "function"
    },
    {
      "inputs": [],
      "name": "tcInterestCollectorAddress",
      "outputs": [
        {
          "internalType": "address",
          "name": "",
          "type": "address"
        }
      ],
      "stateMutability": "view",
      "type": "function"
    },
    {
      "inputs": [],
      "name": "tcInterestPaymentBlockSpan",
      "outputs": [
        {
          "internalType": "uint256",
          "name": "",
          "type": "uint256"
        }
      ],
      "stateMutability": "view",
      "type": "function"
    },
    {
      "inputs": [],
      "name": "tcInterestRate",
      "outputs": [
        {
          "internalType": "uint256",
          "name": "",
          "type": "uint256"
        }
      ],
      "stateMutability": "view",
      "type": "function"
    },
    {
      "inputs": [],
      "name": "tcMintFee",
      "outputs": [
        {
          "internalType": "uint256",
          "name": "",
          "type": "uint256"
        }
      ],
      "stateMutability": "view",
      "type": "function"
    },
    {
      "inputs": [],
      "name": "tcRedeemFee",
      "outputs": [
        {
          "internalType": "uint256",
          "name": "",
          "type": "uint256"
        }
      ],
      "stateMutability": "view",
      "type": "function"
    },
    {
      "inputs": [],
      "name": "tcToken",
      "outputs": [
        {
          "internalType": "contract MocTC",
          "name": "",
          "type": "address"
        }
      ],
      "stateMutability": "view",
      "type": "function"
    },
    {
      "inputs": [
        {
          "internalType": "uint256",
          "name": "",
          "type": "uint256"
        }
      ],
      "name": "tpCtarg",
      "outputs": [
        {
          "internalType": "uint256",
          "name": "",
          "type": "uint256"
        }
      ],
      "stateMutability": "view",
      "type": "function"
    },
    {
      "inputs": [
        {
          "internalType": "uint256",
          "name": "",
          "type": "uint256"
        }
      ],
      "name": "tpEma",
      "outputs": [
        {
          "internalType": "uint256",
          "name": "ema",
          "type": "uint256"
        },
        {
          "internalType": "uint256",
          "name": "sf",
          "type": "uint256"
        }
      ],
      "stateMutability": "view",
      "type": "function"
    },
    {
      "inputs": [
        {
          "internalType": "uint256",
          "name": "",
          "type": "uint256"
        }
      ],
      "name": "tpLiqPrices",
      "outputs": [
        {
          "internalType": "uint256",
          "name": "",
          "type": "uint256"
        }
      ],
      "stateMutability": "view",
      "type": "function"
    },
    {
      "inputs": [
        {
          "internalType": "address",
          "name": "",
          "type": "address"
        }
      ],
      "name": "tpMintFees",
      "outputs": [
        {
          "internalType": "uint256",
          "name": "",
          "type": "uint256"
        }
      ],
      "stateMutability": "view",
      "type": "function"
    },
    {
      "inputs": [
        {
          "internalType": "address",
          "name": "",
          "type": "address"
        }
      ],
      "name": "tpRedeemFees",
      "outputs": [
        {
          "internalType": "uint256",
          "name": "",
          "type": "uint256"
        }
      ],
      "stateMutability": "view",
      "type": "function"
    },
    {
      "inputs": [
        {
          "internalType": "uint256",
          "name": "",
          "type": "uint256"
        }
      ],
      "name": "tpTokens",
      "outputs": [
        {
          "internalType": "contract IMocRC20",
          "name": "",
          "type": "address"
        }
      ],
      "stateMutability": "view",
      "type": "function"
    },
    {
      "inputs": [],
      "name": "unpause",
      "outputs": [],
      "stateMutability": "nonpayable",
      "type": "function"
    },
    {
      "inputs": [],
      "name": "updateEmas",
      "outputs": [],
      "stateMutability": "nonpayable",
      "type": "function"
    },
    {
      "inputs": [
        {
          "internalType": "address",
          "name": "newImplementation",
          "type": "address"
        }
      ],
      "name": "upgradeTo",
      "outputs": [],
      "stateMutability": "nonpayable",
      "type": "function"
    },
    {
      "inputs": [
        {
          "internalType": "address",
          "name": "newImplementation",
          "type": "address"
        },
        {
          "internalType": "bytes",
          "name": "data",
          "type": "bytes"
        }
      ],
      "name": "upgradeToAndCall",
      "outputs": [],
      "stateMutability": "payable",
      "type": "function"
    }
  ],
  "bytecode": "0x60a08060405234620000e157306080526000549060ff8260081c166200008f575060ff8082160362000053575b604051615a289081620000e78239608051818181611e9001528181611ff901526124050152f35b60ff90811916176000557f7f26b83ff96e1f2b6a682f133852f6798a09c465da95921460cefb3847402498602060405160ff8152a1386200002c565b62461bcd60e51b815260206004820152602760248201527f496e697469616c697a61626c653a20636f6e747261637420697320696e697469604482015266616c697a696e6760c81b6064820152608490fd5b600080fdfe6040608081526004908136101561001557600080fd5b6000803560e01c90816301dde6ef14612a8757816301f1b68414612a425781630579188f146129aa578163073763b9146129885781630bb7f6081461296b5781630c340a24146129435781630c36d897146129245781630d6ac463146128e05781630db49656146128c15781630e0a8fd21461289f5781630f1e5e2b1461285b57816313ed7ba51461283257816315266e361461281257816317937f9b146127dd5781631867e2f5146127be5781631fb0dda0146127965781631fe6a7ad1461275e5781632069f7531461273c57816323b98cde1461271557816324ffaba3146126da57816325bc6c41146126b157816327eab2a11461266d5781632a20d57d1461264e5781632b764fad1461262e5781632c43bd3b1461260c5781632d88af4a146125b75781632ded50f014612598578163333431fd1461257957816333421c3814612486578163342468621461246a5781633659cfe6146123d25781633915edcb146123a35781633bc4ac0a146123815781633cfb09ef1461233d5781633dbc50a91461231a5781633f4ba83a146122a05781634017936a1461225a578163407f0e341461223b5781634310adc6146121fe57816344719ee9146121bf578163466b893414612180578163471a80e31461214e578163484ad7cd1461210f5781634b746001146120c75781634d977e78146120a85781634e1f907a1461207f5781634f0f27ee146120605781634f1ef28614611f745781635210570c14611f4f57816352d1902d14611e7a57816352e18f8f14611e5b578163533a4bea14611e2c578163543aeb4814611e0a5781635860ee6314611deb5781635c616a7314611bf15781635c975abb14611bcb5781635cfbe57814611bac5781635ece17ef14611b8c57816360009e0b14611b6357816360a01dfa146116f5578163647846a5146116cc57816364ec230a146116aa578163662013f41461168e578163682743571461166657816368f015df146115fc5781636b5488df146115dd5781636f30471f146115be578163707134681461159c578163735d39601461155857816373e28af91461153657816374873ad3146115185781637554fffd146114f957816376228055146114da5781637750ba0c146114b857816379f9a91c146114995781637a193c311461147a5781637a4ff1d9146114585781637a727fe8146114395781637af5758c146114175781637b21b274146113f15781637cba2383146113cf5781637d8e0314146113925781637f01c715146113695781637f13b998146113345781637f4a4fe014611315578163826fcd58146112f3578163842d5748146112ce5781638456cb591461123d57816385bf9593146111f957816389fd503e146111d65781638acc2011146111b35781638cfa4241146111945781638e2bdb861461116b5781638f1a383a146111445781639853c35a1461111b57816398b2086f146110f85781639abb14c9146110ce5781639ad6659d146110995781639bea71a4146110575781639cabfc001461100c5781639fd0506d14610fe05781639fd8ed0e14610fc3578163a8e9ac3014610fa1578163aaf91eff14610f83578163aaf925f614610f5e578163ac0c88ab14610f3a578163aea038dc14610f1b578163aeb41e6914610ef5578163b5e9ea8c14610ecc578163b85edd6514610ea8578163b9fa641314610e89578163bb4872de14610e66578163becaca6b14610e44578163c00f538d14610e22578163c039cc6914610de1578163c09c30bd14610d8e578163c239fca414610d6f578163c84353c914610d4d578163cf351c1d14610d09578163d1a0faa014610cee578163d6af11da14610cb3578163d76dc7fd14610c90578163d87aab6f14610c71578163d8db6f5a14610c2d578163db79607214610bed578163ddb6d19014610bb2578163de8d520a14610b80578163e23c135c14610b3c578163e3867eeb14610b14578163e401294514610ad7578163e4c0aaf414610a8f578163e6a683e014610a4b578163e6b1627c14610a09578163e7c25978146109e5578163e8859a15146109c9578163ea302a97146109a4578163ee1f438f1461097b578163f13f405414610952578163f26114aa146108ea578163f2808778146108c8578163f2f9f456146108a5578163f30b561414610886578163f375cfba14610867578163f88b1434146107f8578163fa6e83bd146107d9578163fadda42414610762578163fd80fa771461072f578163fda70f8b1461070c57508063fed0ade4146106e85763ffe315391461069457600080fd5b60603660031901126106e357604435916001600160a01b03831683036106e3576106df926106d1916106c461403a565b5033906024359035614061565b909391925193849384612ad7565b0390f35b600080fd5b506106d16106fa6106df933690612bd5565b9261070692919261403a565b50614061565b823461072b578160031936011261072b5760209061013c549051908152f35b5080fd5b61075491506107426106df943690612c98565b9361074e93919361403a565b50615699565b919492935194859485612b6c565b839150346107d65760203660031901126107d657506001600160a01b03813581811681036106e3576107a0610798600192613515565b610137612bfb565b50015416906107ae826135be565b929092156107c0576020838551908152f35b8351637f6e4db960e01b81529182015260249150fd5b80fd5b823461072b578160031936011261072b5760209061013a549051908152f35b839150346107d65760203660031901126107d6575035906001600160a01b03821682036106e35761086061085260209361083b610833613c29565b919092613515565b9161085a61084984846131e4565b5194859361321b565b959094613b86565b90613ab8565b9051908152f35b823461072b578160031936011261072b57602090610141549051908152f35b823461072b578160031936011261072b57602090610131549051908152f35b6106df836106d16108b63688612c6b565b92916108c061403a565b50339261468f565b833461072b57602036600319011261072b576108e2613d80565b3561013c5580f35b82843461094e5760e036600319011261094e5761093861092a9161094a93610910613d80565b516379308a5560e11b6020820152928391602483016139d1565b03601f198101835282612c17565b6101f6546001600160a01b0316613890565b5080f35b8280fd5b823461072b578160031936011261072b576101305490516001600160a01b039091168152602090f35b823461072b578160031936011261072b576101525490516001600160a01b039091168152602090f35b61075491506109b76106df943690612c98565b936109c393919361403a565b50614d3c565b823461072b578160031936011261072b57602090610860613b49565b823461072b578160031936011261072b5760209060ff61014b541690519015158152f35b82843461094e57602036600319011261094e573561018e8054821015610a475790610a3391612bfb565b506001815491015482519182526020820152f35b8380fd5b833461072b57602036600319011261072b57356001600160a01b038116908190036106e357610a78613d80565b6101f680546001600160a01b031916909117905580f35b833461072b57602036600319011261072b57356001600160a01b0381169081900361072b57610abc613d80565b6bffffffffffffffffffffffff60a01b609754161760975580f35b828460603660031901126106e357604435926001600160a01b03841684036106e3576106df936106d192610b0961403a565b506024359035615105565b6107549150610b276106df943690612cca565b94610b3694919493929361403a565b50614ad1565b346107d657806003193601126107d657610b5530613fcb565b61013190610b65825480926133ee565b80610b6e578380f35b610b77916131f8565b90558180808380f35b823461072b578160031936011261072b57602090610860610ba7610ba2613630565b61321b565b9050610131546133ee565b82843461094e57602036600319011261094e57356001600160a01b038116908190036106e35782829160209452610145845220549051908152f35b82843461094e5760e036600319011261094e5761093861092a9161094a93610c13613d80565b51636dbcb03960e11b6020820152928391602483016139d1565b833461072b57602036600319011261072b57356001600160a01b038116908190036106e357610c5a613d80565b61015280546001600160a01b031916909117905580f35b823461072b578160031936011261072b57602090610155549051908152f35b6106df83610754610ca13688612d0a565b93610cad93919361403a565b50614950565b823461072b578160031936011261072b57602090610860610cd4600161366a565b610ce8610ce1828461335f565b91836132a9565b916136b1565b346107d657806003193601126107d657610d06613cec565b80f35b833461072b57602036600319011261072b57356001600160a01b038116908190036106e357610d36613d80565b61012f80546001600160a01b031916909117905580f35b833461072b57602036600319011261072b57610d67613d80565b3561014c5580f35b6107549150610d826106df943690612c6b565b92610cad92919261403a565b828460a036600319011261094e576001600160a01b039290359083821682036106e35760243593841684036106e3576106df9361075492610dcd61403a565b503391608435916064359160443591614ad1565b823461072b578160031936011261072b57602090610860610e15610e1c610e09610ba2613630565b610131939193546133ee565b91826133ee565b906159ac565b833461072b57602036600319011261072b57610e3c613d80565b3561013d5580f35b833461072b57602036600319011261072b57610e5e613d80565b356101395580f35b823461072b578160031936011261072b5760209060ff60ca541690519015158152f35b823461072b578160031936011261072b5760209061015b549051908152f35b6107549150610ebb6106df943690612bac565b91610ec461403a565b503393614f44565b823461072b578160031936011261072b576101535490516001600160a01b039091168152602090f35b6106df83610754610f063688612c98565b9392610f1392919261403a565b503393615699565b823461072b578160031936011261072b5760209061013d549051908152f35b6107549150610f4d6106df943690612bac565b91610f5661403a565b503393614d3c565b6106d19150610f716106df943690612c6b565b92610f7d92919261403a565b5061468f565b6106df83610754610f943688612c98565b9392610ec492919261403a565b823461072b578160031936011261072b5760209061018f544310159051908152f35b6106df836106d1610fd43688612d0a565b93610f7d93919361403a565b823461072b578160031936011261072b5760ca54905160109190911c6001600160a01b03168152602090f35b9050823461072b57602036600319011261072b57356001600160a01b03811691908290036106e357829181526101366020522060ff6001825492015416825191825215156020820152f35b839150346107d657826003193601126107d657506001600160a01b0391903582811681036106e35760243592831683036106e35760209261086091339061380e565b823461072b578160031936011261072b576020906110c16110bb610ba2613630565b906133d0565b61014a5410159051908152f35b8284816003193601126106e3576106df926106d1916110eb61403a565b5033906024359035615105565b6106df836107546111093688612c6b565b929161111361403a565b503392614950565b823461072b578160031936011261072b576101465490516001600160a01b039091168152602090f35b823461072b578160031936011261072b57602090611163610ba2613630565b509051908152f35b823461072b578160031936011261072b576101585490516001600160a01b039091168152602090f35b823461072b578160031936011261072b5760209061014a549051908152f35b6106df836106d16111c43688612c6b565b92916111ce61403a565b503392615400565b6106df836106d16111e73688612d0a565b936111f393919361403a565b50615400565b833461072b57602036600319011261072b57356001600160a01b038116908190036106e357611226613d80565b61015380546001600160a01b031916909117905580f35b82843461094e578260031936011261094e57611257613e0e565b60ca5490601082901c6001600160a01b031633036112c05760ff8216156112b2575061ff0019166101001760ca55513381527f62e78cea01bee320cd4e420270b5ea74000d11b0c9f74754ebdbfc544b05a25890602090a180f35b825163866099c360e01b8152fd5b8251631d77d47760e21b8152fd5b61075491506112e16106df943690612c98565b936112ed93919361403a565b50614f44565b823461072b578160031936011261072b576020906108606110bb610ba2613630565b823461072b578160031936011261072b5760209061015a549051908152f35b823461072b578160031936011261072b57602090610860611355600161366a565b610ce861136282846132a9565b918361335f565b823461072b578160031936011261072b576101c35490516001600160a01b039091168152602090f35b82843461094e57602036600319011261094e5735916101489081548410156107d657506020926113c191612aa9565b91905490519160031b1c8152f35b833461072b57602036600319011261072b576113e9613d80565b356101495580f35b6106df836107546114023688612cca565b949361140f93919361403a565b503394614ad1565b833461072b57602036600319011261072b57611431613d80565b356101405580f35b823461072b578160031936011261072b57602090610190549051908152f35b833461072b57602036600319011261072b57611472613d80565b356101415580f35b823461072b578160031936011261072b57602090610134549051908152f35b823461072b578160031936011261072b57602090610142549051908152f35b833461072b57602036600319011261072b576114d2613d80565b3561013b5580f35b823461072b578160031936011261072b57602090610156549051908152f35b823461072b578160031936011261072b57602090610139549051908152f35b6106df836107546115293688612c98565b9392610f5692919261403a565b833461072b57602036600319011261072b57611550613d80565b356101545580f35b833461072b57602036600319011261072b57356001600160a01b038116908190036106e357611585613d80565b61015880546001600160a01b031916909117905580f35b833461072b57602036600319011261072b576115b6613d80565b3561013e5580f35b823461072b578160031936011261072b57602090610154549051908152f35b823461072b578160031936011261072b57602090610149549051908152f35b83915060e03660031901126107d6575035906001600160a01b0380831683036106e3576024359080821682036106e35760a43581811681036106e35760c43591821682036106e3576106df946107549361165461403a565b50608435916064359160443591614ad1565b346107d657806003193601126107d65761167e613d80565b600160ff1960ca54161760ca5580f35b823461072b578160031936011261072b57602090611163613c29565b833461072b57602036600319011261072b576116c4613d80565b356101595580f35b823461072b578160031936011261072b5761012f5490516001600160a01b039091168152602090f35b82843461094e5761040036600319011261094e5782549060ff8260081c161591828093611b56575b8015611b3f575b15611ae55760ff198116600117855582611ad4575b506001600160a01b036103e43581811692908390036106e35761022980546001600160a01b03199081169094179055855460081c60ff169261177a84613e2f565b610384358381168091036106e3576101f69082825416179055610344358381168091036106e3576103643584811681036106e3576001916117ba87613e2f565b6117c387613e2f565b6117cc87613e2f565b6117d587613e2f565b8360975416176097556117e786613e2f565b60ca5490620100008360b01b039060101b169061ff018360b01b031916171760ca5561181284613e2f565b60c435670de0b6b3a76400008110611ac45782849161010435611834816159d0565b61012435611841816159d0565b6101443561184e816159d0565b6101643561185b816159d0565b6101843590611869826159d0565b6101a43592611877846159d0565b6101c43594611885866159d0565b6101e43596611893886159d0565b61020435986118a18a6159d0565b610244359b610224359b6118b58e8e6131f8565b6118be906159d0565b359081168091036106e3578f908e9061014f918254161790556024359081168091036106e3578f908e9061012f918254161790556044359081168091036106e3578f908e90610130918254161790556064359081168091036106e3578f908e90610133918254161790556084359081168091036106e3578f908e906101469182541617905560a4359081168091036106e3578d90610147918254161790556101495560e43561014a5561013b5561013c5561013d5561013e5561013f55610140556101415561014255610143556101395561013a55610264358061014c55610284358481168091036106e35761015890838254161790556102a435610159556102c435918261015a556102e4358581168091036106e3576101529082825416179055610304358581168091036106e3576101539182541617905561032435610154554361015755430161014d55430161015b5561014b61ffff1981541690556103a43590611a2b84613e2f565b8115611ab657508061019055430161018f556103c43590811681036106e357611a56611a7892613e2f565b6101c380546001600160a01b0319166001600160a01b03909216919091179055565b611a80575080f35b60207f7f26b83ff96e1f2b6a682f133852f6798a09c465da95921460cefb38474024989161ff001984541684555160018152a180f35b8551632a9ffab760e21b8152fd5b8651632a9ffab760e21b81528390fd5b61ffff191661010117845584611739565b835162461bcd60e51b8152602081840152602e60248201527f496e697469616c697a61626c653a20636f6e747261637420697320616c72656160448201526d191e481a5b9a5d1a585b1a5e995960921b6064820152608490fd5b50303b1580156117245750600160ff821614611724565b50600160ff82161061171d565b823461072b578160031936011261072b576101335490516001600160a01b039091168152602090f35b6106df83610754611b9d3688612b29565b9461074e94919493929361403a565b823461072b578160031936011261072b5760209061014e549051908152f35b823461072b578160031936011261072b5760209060ff60ca5460081c1690519015158152f35b82843461094e578260031936011261094e57611c0b613e0e565b61014d9081544310611ddd575061014c54430190557fd3c59bda47e141a8ec5a33d241b7f71b86e30d359f83a9227d912858b60404fc8280a16101375482611c5282613413565b91845b818110611d0e57505080611cc9575b918051928184019084526020918285015282518091528160608501930191855b828110611cb557867fae5116a8119d08673a0f1dfa7546b95da4bd54bb17feda7c61130ac7859152f687870388a180f35b835185529381019392810192600101611c84565b611ce0670de0b6b3a764000091610139549061332c565b04610131611cef8282546133ee565b905561014654611d099082906001600160a01b0316613e8f565b611c64565b611d1781613550565b611d21818361397c565b866101509186611d318585612aa9565b90549060031b1c91838313611d4e575b5050505050600101611c55565b94611d9383829699611d9994611d8d85611d80611d86611db09a60019e670de0b6b3a764000093849161013a5461332c565b0461332c565b04926131e4565b526131f8565b97612aa9565b819391549060031b91821b91600019901b19161790565b9055611dd3611dbf82876131e4565b5188848060a01b03610147541691846138b2565b9086888681611d41565b825163101b685960e01b8152fd5b823461072b578160031936011261072b57602090610157549051908152f35b833461072b57602036600319011261072b57611e24613d80565b356101435580f35b833461072b57602036600319011261072b57356001600160a01b03811681036106e357610d0690611a56613d80565b6106d19150611e6e6106df943690612c6b565b926111f392919261403a565b839150346107d657806003193601126107d657507f00000000000000000000000000000000000000000000000000000000000000006001600160a01b03163003611ee757602082517f360894a13ba1a3210667c828492db98dca3e2076cc3735a920a3ca505d382bbc8152f35b6020608492519162461bcd60e51b8352820152603860248201527f555550535570677261646561626c653a206d757374206e6f742062652063616c60448201527f6c6564207468726f7567682064656c656761746563616c6c00000000000000006064820152fd5b346107d657806003193601126107d657611f67613d80565b60ff1960ca541660ca5580f35b82848160031936011261094e576001600160a01b0391813583811681036106e35784936024359367ffffffffffffffff851161205c573660238601121561205c5784013590611fce611fc583612c4f565b94519485612c17565b818452366024838701011161205c57610d069560208361204f946024600199018389013786010152807f0000000000000000000000000000000000000000000000000000000000000000169061202682301415612d3c565b7f360894a13ba1a3210667c828492db98dca3e2076cc3735a920a3ca505d382bbc541614612d9d565b612057613d80565b612dfe565b8580fd5b823461072b578160031936011261072b5760209061013b549051908152f35b823461072b578160031936011261072b576101475490516001600160a01b039091168152602090f35b823461072b578160031936011261072b5760209061014c549051908152f35b82843461094e57602036600319011261094e57356101378054821015610a4757906120f191612bfb565b50805460019091015482519182526001600160a01b03166020820152f35b828460603660031901126106e357356001600160a01b03811681036106e3576106df926106d19161213e61403a565b503390604435906024359061468f565b505060603660031901126106e357604435916001600160a01b03831683036106e3576106df926106d1916110eb61403a565b828460603660031901126106e357356001600160a01b03811681036106e3576106df926106d1916121af61403a565b5033906044359060243590615400565b828460603660031901126106e357356001600160a01b03811681036106e3576106df92610754916121ee61403a565b5033906044359060243590614950565b828460603660031901126106e357604435926001600160a01b03841684036106e3576106df936106d19261223061403a565b506024359035614061565b823461072b578160031936011261072b5760209061013e549051908152f35b823461072b578160031936011261072b5760209061086061228a61229a612294612282613c29565b93909361321b565b8181939295613a81565b92613a32565b90613a66565b82843461094e578260031936011261094e5760ca549060ff8260081c161561230c57601082901c6001600160a01b031633036112c0575061ff00191660ca55513381527f5db9ee0a495bf2e6ff9c91a7834c1ba4fdd244a5e8aa4e537bd38aeae4b073aa90602090a180f35b8251637c7fd07960e01b8152fd5b6106df836106d161232b3688612bd5565b9261233792919261403a565b50615105565b833461072b57602036600319011261072b57356001600160a01b038116908190036106e35761236a613d80565b61014f80546001600160a01b031916909117905580f35b833461072b57602036600319011261072b5761239b613d80565b356101905580f35b82843461094e57602036600319011261094e5735916101389081548410156107d657506020926113c191612aa9565b82843461094e57602036600319011261094e5735906001600160a01b039081831683036106e357610d06926124328386947f0000000000000000000000000000000000000000000000000000000000000000169061202682301415612d3c565b61243a613d80565b61244f61244684612c4f565b92519283612c17565b828252601f1961245e84612c4f565b01366020840137612dfe565b610754915061247d6106df943690612bac565b91610f1361403a565b8381843461072b578160031936011261072b576124a1613e0e565b61014b805460ff81168061256b575b80612551575b6124be578380f35b61ff0019166101001790558051927f8b77276c97a5709f0d6db52329848a254eb760ce8be80d281799f633bdb69e838380a1610133546001600160a01b0316803b15610a4757839185838193638456cb5960e01b83525af19081156125465750612536575b505061252d613445565b81818180808380f35b61253f91612c17565b8181612523565b51913d9150823e3d90fd5b506125606110bb610ba2613630565b61014a5410156124b6565b5060ff8160081c16156124b0565b823461072b578160031936011261072b5760209061013f549051908152f35b823461072b578160031936011261072b57602090610143549051908152f35b833461072b57602036600319011261072b57356001600160a01b038116810361072b576125e2613d80565b60ca805462010000600160b01b03191660109290921b62010000600160b01b031691909117905580f35b833461072b57602036600319011261072b57612626613d80565b3561014a5580f35b6106df8361075461263f3688612b29565b946112ed94919493929361403a565b823461072b578160031936011261072b57602090610140549051908152f35b833461072b57602036600319011261072b57356001600160a01b0381169081900361072b5761269a613d80565b61014780546001600160a01b031916909117905580f35b823461072b578160031936011261072b576102295490516001600160a01b039091168152602090f35b82843461094e57602036600319011261094e57356001600160a01b0381169081900361094e5782829160209452610144845220549051908152f35b823461072b578160031936011261072b5760209060ff61014b5460081c1690519015158152f35b833461072b57602036600319011261072b57612756613d80565b356101425580f35b833461072b57602036600319011261072b573580151580910361072b57612783613d80565b61014b9060ff8019835416911617905580f35b823461072b578160031936011261072b576020906108606127b8610ba2613630565b90613a32565b823461072b578160031936011261072b5760209061014d549051908152f35b82843461094e57602036600319011261094e5735916001600160a01b03831683036107d657506108606020923390339061380e565b6106df836107546128233688612b29565b946109c394919493929361403a565b823461072b578160031936011261072b5761014f5490516001600160a01b039091168152602090f35b833461072b57602036600319011261072b57356001600160a01b0381169081900361072b57612888613d80565b61013080546001600160a01b031916909117905580f35b833461072b57602036600319011261072b576128b9613d80565b3561013f5580f35b823461072b578160031936011261072b57602090610159549051908152f35b833461072b57602036600319011261072b57356001600160a01b0381169081900361072b5761290d613d80565b61014680546001600160a01b031916909117905580f35b823461072b578160031936011261072b5760209061018f549051908152f35b823461072b578160031936011261072b5760975490516001600160a01b039091168152602090f35b82848160031936011261094e576106df926106d1916106c461403a565b833461072b57602036600319011261072b576129a2613d80565b3561015a5580f35b82843461094e578260031936011261094e576129c4613e0e565b61015b9081544310612a34575090610d069161015a54430190557f0e37fda283839477a1b77e29acf8336c0e13a5daa967913df0fe5ad258c0822f6020670de0b6b3a7640000612a1b61013154610159549061332c565b049251838152a1610158546001600160a01b0316613e8f565b825163acce20e560e01b8152fd5b82843461094e57602036600319011261094e5735916101359081548410156107d65750602092612a7191612aa9565b905491519160018060a01b039160031b1c168152f35b833461072b57602036600319011261072b57612aa1613d80565b3561013a5580f35b8054821015612ac15760005260206000200190600090565b634e487b7160e01b600052603260045260246000fd5b604090612b13939594929560c0820196825260208201520190606080918051845260208101516020850152604081015160408501520151910152565b565b35906001600160a01b03821682036106e357565b91908260c09103126106e357612b3e82612b15565b91602081013591604082013591606081013591612b6960a0612b6260808501612b15565b9301612b15565b90565b612b139360609296959360e08301978352602083015260408201520190606080918051845260208101516020850152604081015160408501520151910152565b91908260809103126106e357612bc182612b15565b916020810135916060604083013592013590565b91908260809103126106e357813591602081013591612b696060612b6260408501612b15565b8054821015612ac15760005260206000209060011b0190600090565b90601f8019910116810190811067ffffffffffffffff821117612c3957604052565b634e487b7160e01b600052604160045260246000fd5b67ffffffffffffffff8111612c3957601f01601f191660200190565b91908260809103126106e357612c8082612b15565b91602081013591612b69606060408401359301612b15565b908160a09103126106e357612cac81612b15565b91602082013591604081013591612b69608060608401359301612b15565b91908260c09103126106e357612cdf82612b15565b91612cec60208201612b15565b91604082013591606081013591612b6960a060808401359301612b15565b908160a09103126106e357612d1e81612b15565b91602082013591604081013591612b696080612b6260608501612b15565b15612d4357565b60405162461bcd60e51b815260206004820152602c60248201527f46756e6374696f6e206d7573742062652063616c6c6564207468726f7567682060448201526b19195b1959d85d1958d85b1b60a21b6064820152608490fd5b15612da457565b60405162461bcd60e51b815260206004820152602c60248201527f46756e6374696f6e206d7573742062652063616c6c6564207468726f7567682060448201526b6163746976652070726f787960a01b6064820152608490fd5b9060ff7f4910fdfa16fed3260ed0e7147f7cc6da11a60208b5b9406d12a635614ffd91435416600014612e365750612b139150612fea565b6040516352d1902d60e01b8152602093919291906001600160a01b038316908581600481855afa60009181612fbb575b50612ec75760405162461bcd60e51b815260048101879052602e60248201527f45524331393637557067726164653a206e657720696d706c656d656e7461746960448201526d6f6e206973206e6f74205555505360901b6064820152608490fd5b9394937fc9f76b5ec45e5cdef99837d7b6d2467235c1df8933c8ca56df5c35afa2c7d44401612f6457612ef983612fea565b7fbc7cd75a20ee27fd9adebab32041f755214dbc6bffa90cc0225b39da2e5c2d3b600080a283511590811591612f5c575b50612f3457505050565b600080612f5994612f4361308c565b9481519101845af4612f536130e0565b91613110565b50565b905038612f2a565b60405162461bcd60e51b815260048101859052602960248201527f45524331393637557067726164653a20756e737570706f727465642070726f786044820152681a58589b195555525160ba1b6064820152608490fd5b90918782813d8311612fe3575b612fd28183612c17565b810103126107d65750519038612e66565b503d612fc8565b803b15613031577f360894a13ba1a3210667c828492db98dca3e2076cc3735a920a3ca505d382bbc80546001600160a01b0319166001600160a01b03909216919091179055565b60405162461bcd60e51b815260206004820152602d60248201527f455243313936373a206e657720696d706c656d656e746174696f6e206973206e60448201526c1bdd08184818dbdb9d1c9858dd609a1b6064820152608490fd5b6130966027612c4f565b906130a46040519283612c17565b60278252660819985a5b195960ca1b6040837f416464726573733a206c6f772d6c6576656c2064656c65676174652063616c6c60208201520152565b3d1561310b573d906130f182612c4f565b916130ff6040519384612c17565b82523d6000602084013e565b606090565b919290156131725750815115613124575090565b3b1561312d5790565b60405162461bcd60e51b815260206004820152601d60248201527f416464726573733a2063616c6c20746f206e6f6e2d636f6e74726163740000006044820152606490fd5b8251909150156131855750805190602001fd5b6040519062461bcd60e51b82528160208060048301528251908160248401526000935b8285106131cb575050604492506000838284010152601f80199101168101030190fd5b84810182015186860160440152938101938593506131a8565b8051821015612ac15760209160051b010190565b9190820180921161320557565b634e487b7160e01b600052601160045260246000fd5b906000916000906101378054906000925b828410613252575050505061324e670de0b6b3a764000091610139549061332c565b0490565b909192939561329f61328e6132996001936132936132708a886131e4565b5161327b818c6132c5565b95906132878d8c612bfb565b50546131f8565b6159ac565b906131f8565b986131f8565b940192919061322c565b9190916000838201938412911290801582169115161761320557565b91906000906132f3816000956132e96132e082610150612aa9565b93905492613378565b9160031b1c6132a9565b60008113613302575b50509190565b613324919450611d8092508094670de0b6b3a764000093849161013a5461332c565b0438806132fc565b8181029291811591840414171561320557565b8115613349570490565b634e487b7160e01b600052601260045260246000fd5b8181039291600013801582851316918412161761320557565b61338481610137612bfb565b505490670de0b6b3a76400009182810292818404149015171561320557612b69926133c46133b76133ca93610151612aa9565b90549060031b1c8461333f565b9261333f565b9061335f565b80156133e65761328e612b6992610131546133ee565b505060001990565b9190820391821161320557565b67ffffffffffffffff8111612c395760051b60200190565b9061341d826133fb565b61342a6040519182612c17565b828152809261343b601f19916133fb565b0190602036910137565b610131548015612f59576101379081549160009061346284613413565b9082905b8582106134d157505060005b848110613480575050505050565b61349d846134988561349285876131e4565b5161332c565b61333f565b9061013891825468010000000000000000811015612c3957611d9981600195866134c994018155612aa9565b905501613472565b909261350d6001916134e286613550565b6134ec87876131e4565b526132936134fa8786612bfb565b505461350688886131e4565b51906159ac565b930190613466565b6001600160a01b0316600090815261013660205260409020600181015460ff161561353e575490565b60405163e6c4247b60e01b8152600490fd5b61355c90610137612bfb565b50600101546001600160a01b0316613573816135be565b9190911561357f575090565b60249060405190637f6e4db960e01b82526004820152fd5b519081151582036106e357565b91908260409103126106e357612b69602083519301613597565b604080516359e02dd760e01b81529291839060049082906001600160a01b03165afa9182156136245760009081936135f557509190565b905061361991925060403d811161361d575b6136118183612c17565b8101906135a4565b9091565b503d613607565b6040513d6000823e3d90fd5b610137549061363e82613413565b9160005b81811061364d575050565b80613659600192613550565b61366382876131e4565b5201613642565b9061368b670de0b6b3a764000092836101575461015454924301030261333f565b828110156136a85782039180836101555402049261015654020590565b50600091508190565b90916136bb613713565b9290808210156137095783916136d0916133ee565b93111561370457818110156136fc576136e8916133ee565b60011c808210156136f7575090565b905090565b505050600090565b505090565b5050505050600090565b61015254604080516359e02dd760e01b80825293929091906001600160a01b039081168284600481845afa80156138035760009485916137e0575b50156137c9575061015354169080519485528085600481855afa80156137be57600095869161379b575b50156137845750509190565b6024925051906305e8989360e11b82526004820152fd5b9050816137b59296503d871161361d576136118183612c17565b94909438613778565b50513d6000823e3d90fd5b6024908351906305e8989360e11b82526004820152fd5b90506137fa919450833d851161361d576136118183612c17565b9390933861374e565b83513d6000823e3d90fd5b6138749161381a613e0e565b61382330613fcb565b604051636845c44560e01b60208201526001600160a01b0393841660248201529183166044830152848316606483015260848083019190915281529061386a60a483612c17565b6101f65416613890565b6020818051810103126106e3576020612b699101518092613e8f565b90612b69916000806138a061308c565b93602081519101845af4612f536130e0565b61392a936138f16000926020956138cb82610137612bfb565b506138d78782546131f8565b90556138e76101319182546131f8565b9055610135612aa9565b90546040516340c10f1960e01b81526001600160a01b039093166004840152602483019490945290948593928492909183906044820190565b039360039190911b1c6001600160a01b03165af180156136245761394b5750565b6020813d8211613974575b8161396360209383612c17565b810103126106e357612f5990613597565b3d9150613956565b611d996139cd9161398d8482613378565b6139c361399c83610150612aa9565b6139af8294925492838360031b1c6132a9565b919060031b91821b91600019901b19161790565b9055610151612aa9565b9055565b60e08101929160c09081906001600160a01b03806139ee83612b15565b1685526139fd60208301612b15565b16602085015260408101356040850152606081013560608501526080810135608085015260a081013560a08501520135910152565b9061013454908115613a5757612b6992613a5261328e92610131546133ee565b6133ee565b505050670de0b6b3a764000090565b811561334957600160ff1b8114600019831416613205570590565b9091613a9090610131546133ee565b90670de0b6b3a76400009182810292818404149015171561320557612b69926133ca9161332c565b92613ac69295949193613a81565b6000938181029190858212600160ff1b821416613b35578183051490151715613b2157670de0b6b3a763ffff198201918211613b2157670de0b6b3a764000091828102928184041490151715613b2157612b69929350613a66565b634e487b7160e01b84526011600452602484fd5b634e487b7160e01b86526011600452602486fd5b61014d5480431015613b6057612b699043906133ee565b50600090565b90604051613b75604082612c17565b602060018294805484520154910152565b613b9281610148612aa9565b90549060031b1c9161018e91613ba88184612bfb565b50549261018f54431015613bce575b5050808210156137045761349890612b699361332c565b829350613be2613bed9392613be892612bfb565b50613b66565b613bf5565b903880613bb7565b602081519101805192670de0b6b3a76400009384039084821161320557613c226132939261324e9561332c565b925161332c565b60008061013791825492613c3c84613413565b9382915b818310613c69575050508115613c5d5790613c5a9161333f565b91565b50506101495460011b91565b90919392613c7685613550565b9081613c8287896131e4565b52613c9b613c9083886132c5565b506132878886612bfb565b670de0b6b3a76400009081810291818304149015171561320557613cdd613ce39261329385613ccf600197613cd8966159ac565b9485918c613b86565b61332c565b956131f8565b94019190613c40565b61018f8054431015613cfb5750565b6101375460005b818110613d155750506101905443019055565b80807f19156e9379c7bbbce8f646ce5ee30ba860b8f954717405f3d5859a6c1a21ae6060019361018e613d4b613be28383612bfb565b90613d69613d61613d5b85613550565b84613bf5565b938492612bfb565b50555160409182519182526020820152a201613d02565b60975460405163d994d6d560e01b815233600482015290602090829060249082906001600160a01b03165afa90811561362457600091613dd5575b5015613dc357565b604051631dd1b1b560e21b8152600490fd5b906020823d8211613e06575b81613dee60209383612c17565b810103126107d65750613e0090613597565b38613dbb565b3d9150613de1565b60ff60ca5460081c16613e1d57565b60405163783bb6c960e11b8152600490fd5b15613e3657565b60405162461bcd60e51b815260206004820152602b60248201527f496e697469616c697a61626c653a20636f6e7472616374206973206e6f74206960448201526a6e697469616c697a696e6760a81b6064820152608490fd5b9080613e99575050565b6102295460405163a9059cbb60e01b60208201526001600160a01b039384166024820152604480820193909352918252612b139216613ed9606483612c17565b602091613f3c916001600160a01b0316600080613ef586612c4f565b93613f036040519586612c17565b8685527f5361666545524332303a206c6f772d6c6576656c2063616c6c206661696c656487860152868151910182855af1612f536130e0565b8051828115918215613fac575b5050905015613f555750565b6084906040519062461bcd60e51b82526004820152602a60248201527f5361666545524332303a204552433230206f7065726174696f6e20646964206e6044820152691bdd081cdd58d8d9595960b21b6064820152fd5b83809293500103126106e35781613fc39101613597565b808238613f49565b610229546040516370a0823160e01b81526001600160a01b0392831660048201529160209183916024918391165afa9081156136245760009161400c575090565b906020823d8211614032575b8161402560209383612c17565b810103126107d657505190565b3d9150614018565b60405190614049608083612c17565b60006060838281528260208201528260408201520152565b9061414094929361407061403a565b50610229546001600160a01b039061408f90849030903390851661428a565b61014e61409d8482546131f8565b81556040908151956140b060a088612c17565b865260208601948552818601913383528360608801991689528360808801951685526140da61403a565b506140e36142ce565b6140eb613e0e565b670de0b6b3a764000061411d61411761410e614105613630565b610149546142f0565b8b519291613a32565b9061332c565b0498614135858551168b8789511661013c5492614333565b9b91829d919d6131f8565b988851808b1161426d5750891561425c5791602091876141bc9594519251169061013461416e8482546131f8565b905561417e6101319182546131f8565b90556101335484516340c10f1960e01b81526001600160a01b0390921660048301526024820192909252938491881690829060009082906044820190565b03925af19081156142525750918995939188979593614207575b5095826141f892614202986141ed885182546133ee565b9055511694516133ee565b91511691806145d6565b929190565b955095506020853d821161424a575b8161422360209383612c17565b810103126106e35786826141f8926142029861423f8d99613597565b5092985092506141d6565b3d9150614216565b513d6000823e3d90fd5b835163f3e39b5d60e01b8152600490fd5b6044908b865191630b63f1a760e01b835260048301526024820152fd5b6040516323b872dd60e01b60208201526001600160a01b039283166024820152929091166044830152606480830193909352918152612b1391613ed9608483612c17565b60ff61014b5460081c166142de57565b604051631ca61d7760e01b8152600490fd5b91906142fb9061321b565b91909261430883856133d0565b9080821115614315575050565b6044925060405191637912120160e01b835260048301526024820152fd5b92909391600091600091829661434761403a565b966001600160a01b03918590831680614553575b508261012f54168360405193636eb1769f60e11b8552168060048501523060248501526020948585604481865afa948515614548578495614519575b50846143f8575b5050505050860151156143b4575b505050929190565b909192506143cc670de0b6b3a764000092839261332c565b048085529082156143f0576143e89204908160408601526131f8565b3880806143ac565b5090506143e8565b6144069061013054166135be565b9290921561439e57909192939b50848b61444085670de0b6b3a764000061443a6144308d8d61332c565b610143549061332c565b0461333f565b81830181815295908b1561450f575061446b9161445f6060928d61333f565b918291015285516131f8565b809d5b1092831561449a575b505050614487575b80808061439e565b819299505280606088015296388061447f565b909192506024604051809481936370a0823160e01b835260048301525afa90811561450457908b9184916144d3575b5010388481614477565b809250858092503d83116144fd575b6144ec8183612c17565b8101031261094e578a9051386144c9565b503d6144e2565b6040513d85823e3d90fd5b915050809d61446e565b9094508581813d8311614541575b6145318183612c17565b81010312610a4757519338614397565b503d614527565b6040513d86823e3d90fd5b9095506020836101c35416916024604051809481936364a731e960e01b835260048301525afa80156145cb578690614598575b61459191508461332c565b943861435b565b506020813d82116145c3575b816145b160209383612c17565b8101031261205c576145919051614586565b3d91506145a4565b6040513d88823e3d90fd5b92612b1394919293825115156000146146465750604061464192614639670de0b6b3a764000061460b61013b5484519061332c565b0461013161461a8282546131f8565b905561463360018060a01b0361014654169184516133ee565b90613e8f565b015190613e8f565b613e8f565b9060606146419361466860018060a01b0361014654166020830151908661466c565b0151915b91908161467857505050565b61012f54612b1393906001600160a01b031661428a565b91909394929461469d61403a565b50610229546001600160a01b03906146bc90849030903390851661428a565b61014e93838554906146cd916131f8565b8555604094828651926146e160c085612c17565b16825260208201988998895286830195865260608301923384528460808201921682528460a082019616865261471561403a565b5061471e6142ce565b614726613e0e565b61472e613cec565b614736613c29565b8683949294511661474690613515565b9361475185836131e4565b519d8e9261475f848861397c565b61476990836142f0565b9151936147768189613b86565b61477f9461485c565b81811061483f5750506147bc6147996147c79d8d516159ac565b9283888851169189808c51169151166000526101446020528c6000205492614333565b9c91849e919e6131f8565b998951808c1161482357508a1561481357509486946148076141f895858f9b9995898f98976142029f9d9860006147fd91614896565b51915116926138b2565b6141ed885182546133ee565b5163f3e39b5d60e01b8152600490fd5b8b6044925191630b63f1a760e01b835260048301526024820152fd5b604492508a519163c39b739f60e01b835260048301526024820152fd5b9183859161486a9385613ab8565b9260008412928315614881575b505050613b605790565b61488c9293506133d0565b1115388080614877565b8061489f613713565b9190936148ac600061366a565b9401938291614944575b019384600080821261493e57505b8403918185116149065750508181116148e857505061015555610156554361015755565b60449250604051916306da41e560e11b835260048301526024820152fd5b908085921161492c57604491604051916306da41e560e11b835260048301526024820152fd5b604051630fb4fd3560e11b8152600490fd5b036148c4565b905081600003906148b6565b614a7090614a4b9496936141f89661496661403a565b50610229546001600160a01b03978894614a5a9261498b908690309033908a1661428a565b8561014e9c8d61499c8882546131f8565b905581604051936149ae60c086612c17565b16835260208301998a52604083019687526060830199338b528260808501921682528260a08501971687526149e161403a565b506149ea6142ce565b6149f2613e0e565b8260405194637225da8960e11b60208701525116602485015251604484015286516064840152818a51166084840152511660a48201528584511660c482015260c48152614a4060e482612c17565b856101f65416613890565b60208082518301019101614a76565b9983988b9794929c939d6141ed885182546133ee565b93929190565b80910360e081126106e3578151926020830151926080604082015193605f1901126106e35760c060405191614aac608084612c17565b606081015183526080810151602084015260a081015160408401520151606082015290565b92909693949194614ae061403a565b5061022954614afd908290309033906001600160a01b031661428a565b614b0a8161014e546131f8565b61014e5560405196614b1e61010089612c17565b6001600160a01b03858116808a529981166020808b019182526040808c018b815260608d0197885260808d01969096523360a08d015296831660c08c019081529390921660e08b015294516340c10f1960e01b8152306004820152602481018990529499919491829060449082906000905af1801561362457614cef575b5096614c3b92614a4b92614c8a99614bb261403a565b50614bbb6142ce565b614bc3613e0e565b6040516370f090ed60e11b60208201528a516001600160a01b0390811660248301529451851660448201529051606482015290516084820152608089015160a482015260a0890151831660c48201529051821660e482015260e088015190911661010480830191909152815261093861012482612c17565b87614c54608083999697959b949a015161014e546133ee565b61014e5560018060a01b0360a08201511690614c748760808301516133ee565b60e0909101516001600160a01b031691806145d6565b6001600160a01b0381163b156106e357604051632770a7eb60e21b815233600482015260248101929092526000908290604490829084906001600160a01b03165af1801561362457614cde575b5093929190565b6000614ce991612c17565b38614cd7565b919790926020833d602011614d34575b81614d0c60209383612c17565b810103126106e357614c8a98614c3b94614d28614a4b95613597565b50929950925092614b9c565b3d9150614cff565b90919592939495614d4b61403a565b5061022954614d68908690309033906001600160a01b031661428a565b614d758561014e546131f8565b61014e5560405194614d8860e087612c17565b6001600160a01b0383811680885260208089018790526040808a01959095526060890193909352336080890190815298821660a0890152981660c0870190815291516340c10f1960e01b81523060048201526024810185905291979091908290829060449082906000905af1801561362457614eaa575b5090614c8a614e9897614e6560609594614e1761403a565b50614e206142ce565b614e28613e0e565b60405163f5571e0160e01b82820152614e5890614e48602482018c614ef4565b60e4815261093861010482612c17565b8051810182019101614a76565b9992888b95939d929c614e7f839b87015161014e546133ee565b61014e55519401516001600160a01b03909416936133ee565b90516001600160a01b031691806145d6565b9291908084813d8311614eed575b614ec28183612c17565b810103126106e357614e9897614e65614c8a92614ee0606097613597565b5093949550509750614dff565b503d614eb8565b60c0908160018060a01b03918281511685526020810151602086015260408101516040860152606081015160608601528260808201511660808601528260a08201511660a0860152015116910152565b93949592919091614f5361403a565b5061022954614f70908290309033906001600160a01b031661428a565b614f7d8161014e546131f8565b61014e5560405194614f9060e087612c17565b6001600160a01b03908116865260208087018590526040808801949094526060870192909252336080870190815296811660a087015296871660c086019081526101335492516340c10f1960e01b815230600482015260248101859052909791929091839183916044918391600091165af18015613624576150bd575b509061506f614e989661505560609461502461403a565b5061502d6142ce565b615035613e0e565b60405163d9b6c2e560e01b82820152614e5890614e48602482018b614ef4565b9892878a95939c929b614e7f839a87015161014e546133ee565b610133546001600160a01b0316803b156106e357604051632770a7eb60e21b815233600482015260248101929092526000908290604490829084905af1801561362457614cde575093929190565b91908083813d83116150fe575b6150d48183612c17565b810103126106e357614e989661505561506f926150f2606096613597565b5093945050965061500d565b503d6150ca565b93919361511061403a565b5060009060409081519561512560a088612c17565b8187526020808801958652338489019081526001600160a01b03998a1660608a01908152928a1660808a01908152610133805487516340c10f1960e01b81523060048083019190915260248201899052949d93969495939492939091829060449082908d9089165af180156153de576153a2575b506151a261403a565b506151ab6142ce565b6151b3613e0e565b6151bb613cec565b8a6151de6151d26151ca613c29565b8192916142f0565b818194929551936153e8565b90808210615386575050670de0b6b3a764000091614117615201928f5192613a32565b04948515615376578c6152238561522e9f5116888785511661013d5492614333565b9e91909f90896133ee565b9b51808d1061535a575051966101346152488982546133ee565b90556152586101319182546133ee565b905584845416803b15615356578951632770a7eb60e21b80825230898301908152602081019a909a529890918c9183919082908490829060400103925af1801561534c57918e9493918d93615327575b50908680806152c2979695945116945116915116926145d6565b541691823b1561205c578451908152339181019182526020820193909352919291849184918290849082906040015b03925af190811561531e5750615309575b5050929190565b615314828092612c17565b6107d65780615302565b513d84823e3d90fd5b87808e6152c298979695949f61533e908395612c17565b9e93949596975050506152a8565b8a513d8d823e3d90fd5b8a80fd5b878d6044928d51926354cde31360e01b84528301526024820152fd5b875163f3e39b5d60e01b81528590fd5b60449188918c519263a5db715d60e01b84528301526024820152fd5b6020813d82116153d6575b816153ba60209383612c17565b810103126153d2576153cb90613597565b5038615199565b8880fd5b3d91506153ad565b88513d8b823e3d90fd5b61486a6153f6848484613a81565b61229a8585613a32565b9094929461540c61403a565b5060009060409081519361542160c086612c17565b6001600160a01b03908116808652602080870184815285880198895233606089019081529b8416608089019081529a841660a0890190815286516340c10f1960e01b815230600482015260248101879052929c919b919893949391929091908d816044818c8a5af180156153de5761564b575b508b6155128961551d9f87946101458e926154ad61403a565b506154b66142ce565b6154be613e0e565b6154f76154c9613630565b6154d58a865116613515565b986154ef6154e38b846131e4565b5192614105848d61397c565b5050516159ac565b9a8b9451169488808b51169451169052528b8d205492614333565b9e91909f90876133ee565b9b861561563a5751808d1061561d575082916155689161553e60018f614896565b519661554c82610137612bfb565b506155588982546133ee565b90556138e76101319182546133ee565b90549060031b1c16803b156153d2578751632770a7eb60e21b80825230600483015260248201969096529089908290604490829084905af180156153de57918d9493918c936155fd575b5080806155cc9798999a9b9c5116945116915116926145d6565b813b156155f9578351908152336004820152602481019290925290919083908390818381604481016152f1565b8480fd5b818b6156116155cc999a9b9c9d8394612c17565b9b9a99989750506155b2565b6044908d8b51916354cde31360e01b835260048301526024820152fd5b895163f3e39b5d60e01b8152600490fd5b8d81813d8311615692575b6156608183612c17565b810103126153d2576155128961551d9f8f93946101458e926156828b98613597565b509e505094509b9f505050615494565b503d615656565b909192959394956156a861403a565b50600096604051966156bb60e089612c17565b6001600160a01b03848116808a526020808b018890526040808c018a905260608c01969096523360808c015292821660a08b0152921660c089015291516340c10f1960e01b80825230600483015260248201879052918390829060449082908d905af180156159a15761596d575b5061013354604051918252306004830152602482018590528290829060449082908c906001600160a01b03165af1801561596257615914575b50916157e296916157ab613a5296959461577a61403a565b506157836142ce565b61578b613e0e565b604051633dad0bd760e11b82820152614e5890614e48602482018c614ef4565b60808b015160a08c015160c0909c0151939c929b919a949892948d9490928c926001600160a01b03928316928c92811691166145d6565b906001600160a01b0381163b15610a4757604051632770a7eb60e21b80825230600483015260248201939093528481604481836001600160a01b0387165af18015615909576158f5575b506001600160a01b0381163b15610a4757604051828152336004820152602481018a90529084908290604490829084906001600160a01b03165af18015614548579084916158e0575b5050610133546001600160a01b031690813b15610a4757604051908152336004820152602481019290925282908290604490829084905af180156158d5576158c0575b505093929190565b6158cb828092612c17565b6107d657806158b8565b6040513d84823e3d90fd5b816158ea91612c17565b61094e578238615875565b8461590291959295612c17565b923861582c565b6040513d87823e3d90fd5b8181813d831161595b575b6159298183612c17565b8101031261595757916157ab613a52969594926159496157e29a95613597565b509294959650509196615762565b8780fd5b503d61591f565b6040513d8a823e3d90fd5b8281813d831161599a575b6159828183612c17565b810103126153d25761599390613597565b5038615729565b503d615978565b6040513d8b823e3d90fd5b90670de0b6b3a76400009182810292818404149015171561320557612b699161333f565b670de0b6b3a7640000106159e057565b604051632a9ffab760e21b8152600490fdfea26469706673582212203b95e0d1a6095862d6fed64438bf5a1886d34d295bf09a8fea3845504ee9362564736f6c63430008140033",
  "linkReferences": {},
  "deployedLinkReferences": {},
  "devdoc": {
    "events": {
      "AdminChanged(address,address)": {
        "details": "Emitted when the admin account has changed."
      },
      "BeaconUpgraded(address)": {
        "details": "Emitted when the beacon is changed."
      },
      "Initialized(uint8)": {
        "details": "Triggered when the contract has been initialized or reinitialized."
      },
      "Upgraded(address)": {
        "details": "Emitted when the implementation is upgraded."
      }
    },
    "kind": "dev",
    "methods": {
      "addPeggedToken((address,address,uint256,uint256,uint256,uint256,uint256))": {
        "details": "Note that the ema value, should consider `nextEmaCalculation`  This function is implemented in MocCoreExpansion but with this contract contexttpTokenAddress Pegged Token contract address to add      priceProviderAddress Pegged Token price provider contract address      tpCtarg Pegged Token target coverage [PREC]      tpMintFee additional fee pct applied on mint [PREC]      tpRedeemFee additional fee pct applied on redeem [PREC]      tpEma initial Pegged Token exponential moving average [PREC]      tpEmaSf Pegged Token smoothing factor [PREC]  Requirements: - the caller must have governance authorization. - tpTokenAddress must be a MocRC20, with mint, burn roles already settled  for this contract",
        "params": {
          "peggedTokenParams_": "params of Pegged Token to add"
        }
      },
      "calcCtargemaCA()": {
        "details": "qAC = nTP / pACtp      ctargemaCA = (ctargemaTP * qAC) / (qAC)",
        "returns": {
          "ctargemaCA": "[PREC]"
        }
      },
      "changeGovernor(address)": {
        "params": {
          "newGovernor_": "New governor address"
        }
      },
      "constructor": {
        "custom:oz-upgrades-unsafe-allow": "constructor"
      },
      "editPeggedToken((address,address,uint256,uint256,uint256,uint256,uint256))": {
        "details": "Note that the ema value, should consider `nextEmaCalculation`  This function is implemented in MocCoreExpansion but with this contract contexttpTokenAddress Pegged Token contract address to identify the token to edit      priceProviderAddress Pegged Token price provider contract address      tpCtarg Pegged Token target coverage [PREC]      tpMintFee additional fee pct applied on mint [PREC]      tpRedeemFee additional fee pct applied on redeem [PREC]      tpEma initial Pegged Token exponential moving average [PREC]      tpEmaSf Pegged Token smoothing factor [PREC]  Requirements: - the caller must have governance authorization. - the tpTokenAddress must exists",
        "params": {
          "peggedTokenParams_": "params of Pegged Token to add"
        }
      },
      "getCglb()": {
        "returns": {
          "cglob": "[PREC]"
        }
      },
      "getLckAC()": {
        "returns": {
          "lckAC": "[PREC]"
        }
      },
      "getLeverageTC()": {
        "returns": {
          "leverageTC": "[PREC]"
        }
      },
      "getPACtp(address)": {
        "params": {
          "tp_": "Pegged Token address"
        },
        "returns": {
          "_0": "price [PREC]"
        }
      },
      "getPTCac()": {
        "returns": {
          "pTCac": "[PREC]"
        }
      },
      "getTCAvailableToRedeem()": {
        "details": "because it is a view function we are not calculating the new ema,  since we are using the last ema calculation, this may differ a little from the real amount  of TC available to redeem. Consider it an approximation.",
        "returns": {
          "tcAvailableToRedeem": "[N]"
        }
      },
      "getTPAvailableToMint(address)": {
        "details": "because it is a view function we are not calculating the new ema,  since we are using the last ema calculation, this may differ a little from the real amount  of TP available to mint. Consider it an approximation.",
        "params": {
          "tp_": "Pegged Token address"
        },
        "returns": {
          "tpAvailableToMint": "[N]"
        }
      },
      "getTotalACavailable()": {
        "returns": {
          "totalACavailable": "[N]"
        }
      },
      "initialize((((address,address,address,address,address,address,uint256,uint256,uint256,uint256,uint256,uint256,uint256,uint256,uint256,uint256,uint256,uint256,uint256,uint256,address,uint256,uint256,address,address,uint256),address,address,address,uint256,address),address))": {
        "details": "governorAddress The address that will define when a change contract is authorized      pauserAddress The address that is authorized to pause this contract      acTokenAddress Collateral Asset Token contract address      tcTokenAddress Collateral Token contract address      mocFeeFlowAddress Moc Fee Flow contract address      mocAppreciationBeneficiaryAddress Moc appreciation beneficiary address      protThrld protected state threshold [PREC]      liqThrld liquidation coverage threshold [PREC]      feeRetainer pct retain on fees to be re-injected as Collateral, while paying fees with AC [PREC]      tcMintFee additional fee pct applied on mint Collateral Tokens operations [PREC]      tcRedeemFee additional fee pct applied on redeem Collateral Tokens operations [PREC]      successFee pct of the gain because Pegged Tokens devaluation that is transferred        in Collateral Asset to Moc Fee Flow during the settlement [PREC]      appreciationFactor pct of the gain because Pegged Tokens devaluation that is returned        in Pegged Tokens to appreciation beneficiary during the settlement [PREC]      bes number of blocks between settlements      tcInterestCollectorAddress TC interest collector address      tcInterestRate pct interest charged to TC holders on the total collateral in the protocol [PREC]      tcInterestPaymentBlockSpan amount of blocks to wait for next TC interest payment      maxAbsoluteOpProviderAddress max absolute operation provider address      maxOpDiffProviderAddress max operation difference provider address      decayBlockSpan number of blocks that have to elapse for the linear decay factor to be 0      emaCalculationBlockSpan amount of blocks to wait between Pegged ema calculation      mocVendors address for MocVendors contract      mocQueueAddress address for MocQueue contract",
        "params": {
          "initializeParams_": "contract initializer params"
        }
      },
      "isLiquidationReached()": {
        "returns": {
          "_0": "true if liquidation state is reached, false otherwise"
        }
      },
      "liqRedeemTP(address)": {
        "params": {
          "tp_": "Pegged Token address"
        },
        "returns": {
          "qACRedeemed": "amount of AC sent to sender"
        }
      },
      "liqRedeemTPto(address,address)": {
        "params": {
          "recipient_": "address who receives the AC",
          "tp_": "Pegged Token address"
        },
        "returns": {
          "qACRedeemed": "amount of AC sent to `recipient_`"
        }
      },
      "makeStoppable()": {
        "details": "Should be called through governance"
      },
      "makeUnstoppable()": {
        "details": "Should be called through governance"
      },
      "maxQACToMintTP()": {
        "returns": {
          "maxQAC": "minimum regarding maxAbsoluteOperation and maxOperationalDifference"
        }
      },
      "maxQACToRedeemTP()": {
        "returns": {
          "maxQAC": "minimum regarding maxAbsoluteOperation and maxOperationalDifference"
        }
      },
      "mintTC(uint256,uint256)": {
        "params": {
          "qACmax_": "maximum amount of Collateral Asset that can be spent",
          "qTC_": "amount of Collateral Token to mint"
        }
      },
      "mintTCViaVendor(uint256,uint256,address)": {
        "params": {
          "qACmax_": "maximum amount of Collateral Asset that can be spent",
          "qTC_": "amount of Collateral Token to mint",
          "vendor_": "address who receives a markup"
        }
      },
      "mintTCandTP(address,uint256,uint256)": {
        "params": {
          "qACmax_": "maximum amount of Collateral Asset that can be spent",
          "qTP_": "amount of Pegged Token to mint",
          "tp_": "Pegged Token address"
        }
      },
      "mintTCandTPViaVendor(address,uint256,uint256,address)": {
        "params": {
          "qACmax_": "maximum amount of Collateral Asset that can be spent",
          "qTP_": "amount of Pegged Token to mint",
          "tp_": "Pegged Token address",
          "vendor_": "address who receives a markup"
        }
      },
      "mintTCandTPto(address,uint256,uint256,address)": {
        "params": {
          "qACmax_": "maximum amount of Collateral Asset that can be spent",
          "qTP_": "amount of Pegged Token to mint",
          "recipient_": "address who receives the Collateral Token and Pegged Token",
          "tp_": "Pegged Token address"
        }
      },
      "mintTCandTPtoViaVendor(address,uint256,uint256,address,address)": {
        "params": {
          "qACmax_": "maximum amount of Collateral Asset that can be spent",
          "qTP_": "amount of Pegged Token to mint",
          "recipient_": "address who receives the Collateral Token and Pegged Token",
          "tp_": "Pegged Token address",
          "vendor_": "address who receives a markup"
        }
      },
      "mintTCto(uint256,uint256,address)": {
        "params": {
          "qACmax_": "maximum amount of Collateral Asset that can be spent",
          "qTC_": "amount of Collateral Token to mint",
          "recipient_": "address who receives the Collateral Token"
        }
      },
      "mintTCtoViaVendor(uint256,uint256,address,address)": {
        "params": {
          "qACmax_": "maximum amount of Collateral Asset that can be spent",
          "qTC_": "amount of Collateral Token to mint",
          "recipient_": "address who receives the Collateral Token",
          "vendor_": "address who receives a markup"
        }
      },
      "mintTP(address,uint256,uint256)": {
        "params": {
          "qACmax_": "maximum amount of Collateral Asset that can be spent",
          "qTP_": "amount of Pegged Token to mint",
          "tp_": "Pegged Token address to mint"
        }
      },
      "mintTPViaVendor(address,uint256,uint256,address)": {
        "params": {
          "qACmax_": "maximum amount of Collateral Asset that can be spent",
          "qTP_": "amount of Pegged Token to mint",
          "tp_": "Pegged Token address to mint",
          "vendor_": "address who receives a markup"
        }
      },
      "mintTPto(address,uint256,uint256,address)": {
        "params": {
          "qACmax_": "maximum amount of Collateral Asset that can be spent",
          "qTP_": "amount of Pegged Token to mint",
          "recipient_": "address who receives the Pegged Token",
          "tp_": "Pegged Token address to mint"
        }
      },
      "mintTPtoViaVendor(address,uint256,uint256,address,address)": {
        "params": {
          "qACmax_": "maximum amount of Collateral Asset that can be spent",
          "qTP_": "amount of Pegged Token to mint",
          "recipient_": "address who receives the Pegged Token",
          "tp_": "Pegged Token address to mint",
          "vendor_": "address who receives a markup"
        }
      },
      "pause()": {
        "details": "Should only be called by the pauser and when it is stoppable"
      },
      "proxiableUUID()": {
        "details": "Implementation of the ERC1822 {proxiableUUID} function. This returns the storage slot used by the implementation. It is used to validate the implementation's compatibility when performing an upgrade. IMPORTANT: A proxy pointing at a proxiable contract should not be considered proxiable itself, because this risks bricking a proxy that upgrades to it, by delegating to itself until out of gas. Thus it is critical that this function revert if invoked through a proxy. This is guaranteed by the `notDelegated` modifier."
      },
      "redeemTC(uint256,uint256)": {
        "params": {
          "qACmin_": "minimum amount of Collateral Asset that sender expects to receive",
          "qTC_": "amount of Collateral Token to redeem"
        }
      },
      "redeemTCViaVendor(uint256,uint256,address)": {
        "params": {
          "qACmin_": "minimum amount of Collateral Asset that sender expects to receive",
          "qTC_": "amount of Collateral Token to redeem",
          "vendor_": "address who receives a markup"
        }
      },
      "redeemTCandTP(address,uint256,uint256,uint256)": {
        "params": {
          "qACmin_": "Minimum amount of Collateral Asset that the sender expects to receive",
          "qTC_": "Maximum amount of Collateral Token to redeem",
          "qTP_": "Maximum amount of Pegged Token to redeem",
          "tp_": "Pegged Token address"
        }
      },
      "redeemTCandTPViaVendor(address,uint256,uint256,uint256,address)": {
        "params": {
          "qACmin_": "Minimum amount of Collateral Asset that the sender expects to receive",
          "qTC_": "Maximum amount of Collateral Token to redeem",
          "qTP_": "Maximum amount of Pegged Token to redeem",
          "tp_": "Pegged Token address",
          "vendor_": "Address who receives a markup"
        }
      },
      "redeemTCandTPto(address,uint256,uint256,uint256,address)": {
        "params": {
          "qACmin_": "Minimum amount of Collateral Asset that `recipient_` expects to receive",
          "qTC_": "Maximum amount of Collateral Token to redeem",
          "qTP_": "Maximum amount of Pegged Token to redeem",
          "recipient_": "Address who receives the Collateral Asset",
          "tp_": "Pegged Token address"
        }
      },
      "redeemTCandTPtoViaVendor(address,uint256,uint256,uint256,address,address)": {
        "params": {
          "qACmin_": "Minimum amount of Collateral Asset that `recipient_` expects to receive",
          "qTC_": "Maximum amount of Collateral Token to redeem",
          "qTP_": "Maximum amount of Pegged Token to redeem",
          "recipient_": "Address who receives the Collateral Asset",
          "tp_": "Pegged Token address",
          "vendor_": "Address who receives a markup"
        }
      },
      "redeemTCto(uint256,uint256,address)": {
        "params": {
          "qACmin_": "minimum amount of Collateral Asset that `recipient_` expects to receive",
          "qTC_": "amount of Collateral Token to redeem",
          "recipient_": "address who receives the Collateral Asset"
        }
      },
      "redeemTCtoViaVendor(uint256,uint256,address,address)": {
        "params": {
          "qACmin_": "minimum amount of Collateral Asset that `recipient_` expects to receive",
          "qTC_": "amount of Collateral Token to redeem",
          "recipient_": "address who receives the Collateral Asset",
          "vendor_": "address who receives a markup"
        }
      },
      "redeemTP(address,uint256,uint256)": {
        "params": {
          "qACmin_": "minimum amount of Collateral Asset that sender expects to receive",
          "qTP_": "amount of Pegged Token to redeem",
          "tp_": "Pegged Token address to redeem"
        }
      },
      "redeemTPViaVendor(address,uint256,uint256,address)": {
        "params": {
          "qACmin_": "minimum amount of Collateral Asset that sender expects to receive",
          "qTP_": "amount of Pegged Token to redeem",
          "tp_": "Pegged Token address to redeem",
          "vendor_": "address who receives a markup"
        }
      },
      "redeemTPto(address,uint256,uint256,address)": {
        "params": {
          "qACmin_": "minimum amount of Collateral Asset that `recipient_` expects to receive",
          "qTP_": "amount of Pegged Token to redeem",
          "recipient_": "address who receives the Collateral Asset",
          "tp_": "Pegged Token address to redeem"
        }
      },
      "redeemTPtoViaVendor(address,uint256,uint256,address,address)": {
        "params": {
          "qACmin_": "minimum amount of Collateral Asset that `recipient_` expects to receive",
          "qTP_": "amount of Pegged Token to redeem",
          "recipient_": "address who receives the Collateral Asset",
          "tp_": "Pegged Token address to redeem",
          "vendor_": "address who receives a markup"
        }
      },
      "refreshACBalance()": {
        "details": "Intended to be use as notification after an RC20 AC transfer to this contract"
      },
      "setAppreciationFactor(uint256)": {
        "details": "sets appreciation Factor value.",
        "params": {
          "appreciationFactor_": "pct of the gain because Pegged Tokens devaluation that is returned in Pegged Tokens to appreciation beneficiary during the settlement [PREC]"
        }
      },
      "setBes(uint256)": {
        "details": "bns is not automatically updated, you have to wait until next settlement to be made : bns = block.number + bes*",
        "params": {
          "bes_": "number of blocks between settlements"
        }
      },
      "setDecayBlockSpan(uint256)": {
        "details": "sets flux capacitor decay block span",
        "params": {
          "decayBlockSpan_": "flux capacitor decay block span"
        }
      },
      "setEmaCalculationBlockSpan(uint256)": {
        "details": "nextEmaCalculation is not automatically updated, you have to wait until next  EMA calculation to be made : nextEmaCalculation = block.number + emaCalculationBlockSpan*",
        "params": {
          "blockSpan_": "Defines how many blocks should pass between EMA calculations"
        }
      },
      "setFeeRetainer(uint256)": {
        "details": "sets the fee pct to be retainer on AC fees payments as AC re-injection.",
        "params": {
          "feeRetainer_": "pct retain on fees to be re-injected as Collateral, while paying fees with AC [PREC] 0% = 0; 1% = 10 ** 16; 100% = 10 ** 18"
        }
      },
      "setFeeTokenAddress(address)": {
        "details": "sets Fee Token contract address",
        "params": {
          "mocFeeTokenAddress_": "Fee Token new contract address"
        }
      },
      "setFeeTokenPct(uint256)": {
        "details": "sets the fee applied on the top of the operation`s fee when using Fee Token as fee payment method.",
        "params": {
          "feeTokenPct_": "pct applied on the top of the operation`s fee when using Fee Token  as fee payment method [PREC]  e.g. if tcMintFee = 1%, FeeTokenPct = 50% => qFeeToken = 0.5%  0% = 0; 1% = 10 ** 16; 100% = 10 ** 18"
        }
      },
      "setFeeTokenPriceProviderAddress(address)": {
        "details": "sets Fee Token price provider contract address",
        "params": {
          "mocFeeTokenPriceProviderAddress_": "Fee Token price provider new contract address"
        }
      },
      "setLiqEnabled(bool)": {
        "details": "enables and disables the liquidation mechanism.",
        "params": {
          "liqEnabled_": "is liquidation enabled"
        }
      },
      "setLiqThrld(uint256)": {
        "details": "sets the value of the liq threshold configuration param",
        "params": {
          "liqThrld_": "liquidation threshold"
        }
      },
      "setMaxAbsoluteOpProviderAddress(address)": {
        "details": "sets max absolute operation provider address",
        "params": {
          "maxAbsoluteOpProviderAddress_": "max absolute operation provider address"
        }
      },
      "setMaxOpDiffProviderAddress(address)": {
        "details": "sets max operation difference provider address",
        "params": {
          "maxOpDiffProviderAddress_": "max operation difference provider address"
        }
      },
      "setMintTCandTPFee(uint256)": {
        "details": "sets the fee charged when mint Collateral Token and Pegged Token in one operation.",
        "params": {
          "mintTCandTPFee_": "additional fee pct applied on mint Collateral Token and Pegged Token [PREC] 0% = 0; 1% = 10 ** 16; 100% = 10 ** 18"
        }
      },
      "setMocAppreciationBeneficiaryAddress(address)": {
        "details": "sets Moc Appreciation Beneficiary Address",
        "params": {
          "mocAppreciationBeneficiaryAddress_": "moc Appreciation Beneficiary new address"
        }
      },
      "setMocCoreExpansion(address)": {
        "details": "sets Moc Core Expansion contract address",
        "params": {
          "mocCoreExpansion_": "moc core expansion new contract address"
        }
      },
      "setMocFeeFlowAddress(address)": {
        "details": "sets Moc Fee Flow contract address",
        "params": {
          "mocFeeFlowAddress_": "moc Fee Flow new contract address"
        }
      },
      "setMocQueue(address)": {
        "details": "sets Moc Queue contract address",
        "params": {
          "mocQueueAddress_": "moc queue new contract address"
        }
      },
      "setMocVendors(address)": {
        "details": "sets Moc Vendors contract address",
        "params": {
          "mocVendors_": "moc Vendors new contract address"
        }
      },
      "setPauser(address)": {
        "details": "Should be called through governance",
        "params": {
          "newPauser_": "Address of the new pauser"
        }
      },
      "setProtThrld(uint256)": {
        "details": "sets the value of the protected threshold configuration param",
        "params": {
          "protThrld_": "coverage protected state threshold [PREC]"
        }
      },
      "setRedeemTCandTPFee(uint256)": {
        "details": "sets the fee charged when redeem Collateral Token and Pegged Token in one operation.",
        "params": {
          "redeemTCandTPFee_": "additional fee pct applied on redeem Collateral Token and Pegged Token [PREC] 0% = 0; 1% = 10 ** 16; 100% = 10 ** 18"
        }
      },
      "setSuccessFee(uint256)": {
        "details": "sets success Fee value.",
        "params": {
          "successFee_": "pct of the gain because Pegged Tokens devaluation that is transferred in Collateral Asset to Moc Fee Flow during the settlement [PREC]"
        }
      },
      "setSwapTCforTPFee(uint256)": {
        "details": "sets the fee charged when swap Collateral Token for a Pegged Token.",
        "params": {
          "swapTCforTPFee_": "additional fee pct applied on swap Collateral Token for a Pegged Token [PREC] 0% = 0; 1% = 10 ** 16; 100% = 10 ** 18"
        }
      },
      "setSwapTPforTCFee(uint256)": {
        "details": "sets the fee charged when swap a Pegged Token for Collateral Token.",
        "params": {
          "swapTPforTCFee_": "additional fee pct applied on swap a Pegged Token for Collateral Token [PREC] 0% = 0; 1% = 10 ** 16; 100% = 10 ** 18"
        }
      },
      "setSwapTPforTPFee(uint256)": {
        "details": "sets the fee charged when swap a Pegged Token for another Pegged Token.",
        "params": {
          "swapTPforTPFee_": "additional fee pct applied on swap a Pegged Token for another Pegged Token [PREC] 0% = 0; 1% = 10 ** 16; 100% = 10 ** 18"
        }
      },
      "setTCInterestCollectorAddress(address)": {
        "details": "sets TC interest collector address",
        "params": {
          "tcInterestCollectorAddress_": "TC interest collector address"
        }
      },
      "setTCInterestPaymentBlockSpan(uint256)": {
        "details": "sets TC interest payment block spannextTCInterestPayment is not automatically updated, you have to wait until next  interest payment to be made : nextTCInterestPayment = block.number + tcInterestPaymentBlockSpan",
        "params": {
          "tcInterestPaymentBlockSpan_": "amount of blocks to wait for next TC interest payment"
        }
      },
      "setTCInterestRate(uint256)": {
        "details": "sets TC interest rate",
        "params": {
          "tcInterestRate_": "pct interest charged to TC holders on the total collateral in the protocol [PREC]"
        }
      },
      "setTcMintFee(uint256)": {
        "details": "sets the fee charged on Token Collateral mint.",
        "params": {
          "tcMintFee_": "addition fee pct applied on Collateral Tokens mint [PREC] 0% = 0; 1% = 10 ** 16; 100% = 10 ** 18"
        }
      },
      "setTcRedeemFee(uint256)": {
        "details": "sets the fee charged on Token Collateral redeem.",
        "params": {
          "tcRedeemFee_": "addition fee pct applied on Collateral Tokens redeem [PREC] 0% = 0; 1% = 10 ** 16; 100% = 10 ** 18"
        }
      },
      "swapTCforTP(address,uint256,uint256,uint256)": {
        "params": {
          "qACmax_": "Maximum amount of Collateral Asset that can be spent in fees",
          "qTC_": "Amount of owned Collateral Token to swap",
          "qTPmin_": "Minimum amount of Pegged Token that the sender expects to receive",
          "tp_": "Pegged Token address"
        }
      },
      "swapTCforTPViaVendor(address,uint256,uint256,uint256,address)": {
        "params": {
          "qACmax_": "Maximum amount of Collateral Asset that can be spent in fees",
          "qTC_": "Amount of owned Collateral Token to swap",
          "qTPmin_": "Minimum amount of Pegged Token that the sender expects to receive",
          "tp_": "Pegged Token address",
          "vendor_": "Address who receives a markup"
        }
      },
      "swapTCforTPto(address,uint256,uint256,uint256,address)": {
        "params": {
          "qACmax_": "Maximum amount of Collateral Asset that can be spent in fees",
          "qTC_": "Amount of owned Collateral Token to swap",
          "qTPmin_": "Minimum amount of Pegged Token that `recipient_` expects to receive",
          "recipient_": "Address who receives the Pegged Token",
          "tp_": "Pegged Token address"
        }
      },
      "swapTCforTPtoViaVendor(address,uint256,uint256,uint256,address,address)": {
        "params": {
          "qACmax_": "Maximum amount of Collateral Asset that can be spent in fees",
          "qTC_": "Amount of owned Collateral Token to swap",
          "qTPmin_": "Minimum amount of Pegged Token that `recipient_` expects to receive",
          "recipient_": "Address who receives the Pegged Token",
          "tp_": "Pegged Token address",
          "vendor_": "Address who receives a markup"
        }
      },
      "swapTPforTC(address,uint256,uint256,uint256)": {
        "params": {
          "qACmax_": "maximum amount of Collateral Asset that can be spent in fees",
          "qTCmin_": "minimum amount of Collateral Token that the sender expects to receive",
          "qTP_": "amount of owned Pegged Token to swap",
          "tp_": "Pegged Token address"
        }
      },
      "swapTPforTCViaVendor(address,uint256,uint256,uint256,address)": {
        "params": {
          "qACmax_": "maximum amount of Collateral Asset that can be spent in fees",
          "qTCmin_": "minimum amount of Collateral Token that the sender expects to receive",
          "qTP_": "amount of owned Pegged Token to swap",
          "tp_": "Pegged Token address",
          "vendor_": "address who receives a markup"
        }
      },
      "swapTPforTCto(address,uint256,uint256,uint256,address)": {
        "params": {
          "qACmax_": "maximum amount of Collateral Asset that can be spent in fees",
          "qTCmin_": "minimum amount of Collateral Token that `recipient_` expects to receive",
          "qTP_": "amount of owned Pegged Token to swap",
          "recipient_": "address who receives the Collateral Token",
          "tp_": "Pegged Token address"
        }
      },
      "swapTPforTCtoViaVendor(address,uint256,uint256,uint256,address,address)": {
        "params": {
          "qACmax_": "maximum amount of Collateral Asset that can be spent in fees",
          "qTCmin_": "minimum amount of Collateral Token that `recipient_` expects to receive",
          "qTP_": "amount of owned Pegged Token to swap",
          "recipient_": "address who receives the Collateral Token",
          "tp_": "Pegged Token address",
          "vendor_": "address who receives a markup"
        }
      },
      "swapTPforTP(address,address,uint256,uint256,uint256)": {
        "params": {
          "qACmax_": "maximum amount of Collateral Asset that can be spent in fees",
          "qTP_": "amount of owned Pegged Token to swap",
          "qTPmin_": "minimum amount of target Pegged Token that the sender expects to receive",
          "tpFrom_": "owned Pegged Token address",
          "tpTo_": "target Pegged Token address"
        }
      },
      "swapTPforTPViaVendor(address,address,uint256,uint256,uint256,address)": {
        "params": {
          "qACmax_": "maximum amount of Collateral Asset that can be spent in fees",
          "qTP_": "amount of owned Pegged Token to swap",
          "qTPmin_": "minimum amount of target Pegged Token that the sender expects to receive",
          "tpFrom_": "owned Pegged Token address",
          "tpTo_": "target Pegged Token address",
          "vendor_": "address who receives a markup"
        }
      },
      "swapTPforTPto(address,address,uint256,uint256,uint256,address)": {
        "params": {
          "qACmax_": "maximum amount of Collateral Asset that can be spent in fees",
          "qTP_": "amount of owned Pegged Token to swap",
          "qTPmin_": "minimum amount of target Pegged Token that `recipient_` expects to receive",
          "recipient_": "address who receives the target Pegged Token",
          "tpFrom_": "owned Pegged Token address",
          "tpTo_": "target Pegged Token address"
        }
      },
      "swapTPforTPtoViaVendor(address,address,uint256,uint256,uint256,address,address)": {
        "params": {
          "qACmax_": "maximum amount of Collateral Asset that can be spent in fees",
          "qTP_": "amount of owned Pegged Token to swap",
          "qTPmin_": "minimum amount of target Pegged Token that `recipient_` expects to receive",
          "recipient_": "address who receives the target Pegged Token",
          "tpFrom_": "owned Pegged Token address",
          "tpTo_": "target Pegged Token address",
          "vendor_": "address who receives a markup"
        }
      },
      "tcHoldersInterestPayment()": {
        "details": "-   The amount is not differential, it's a snapshot of the moment it's executed  -   It does not check coverage"
      },
      "updateEmas()": {
        "details": "All price provider prices must be available, fails if not"
      },
      "upgradeTo(address)": {
        "custom:oz-upgrades-unsafe-allow-reachable": "delegatecall",
        "details": "Upgrade the implementation of the proxy to `newImplementation`. Calls {_authorizeUpgrade}. Emits an {Upgraded} event."
      },
      "upgradeToAndCall(address,bytes)": {
        "custom:oz-upgrades-unsafe-allow-reachable": "delegatecall",
        "details": "Upgrade the implementation of the proxy to `newImplementation`, and subsequently execute the function call encoded in `data`. Calls {_authorizeUpgrade}. Emits an {Upgraded} event."
      }
    },
    "stateVariables": {
      "__gap": {
        "details": "This empty reserved space is put in place to allow future versions to add new variables without shifting down storage in the inheritance chain. See https://docs.openzeppelin.com/contracts/4.x/upgradeable#storage_gaps"
      }
    },
    "title": "MocCoreMock: to use the protocol without a queue",
    "version": 1
  },
  "evm": {
    "bytecode": {
      "linkReferences": {},
      "opcodes": "PUSH1 0xA0 DUP1 PUSH1 0x40 MSTORE CALLVALUE PUSH3 0xE1 JUMPI ADDRESS PUSH1 0x80 MSTORE PUSH1 0x0 SLOAD SWAP1 PUSH1 0xFF DUP3 PUSH1 0x8 SHR AND PUSH3 0x8F JUMPI POP PUSH1 0xFF DUP1 DUP3 AND SUB PUSH3 0x53 JUMPI JUMPDEST PUSH1 0x40 MLOAD PUSH2 0x5A28 SWAP1 DUP2 PUSH3 0xE7 DUP3 CODECOPY PUSH1 0x80 MLOAD DUP2 DUP2 DUP2 PUSH2 0x1E90 ADD MSTORE DUP2 DUP2 PUSH2 0x1FF9 ADD MSTORE PUSH2 0x2405 ADD MSTORE RETURN JUMPDEST PUSH1 0xFF SWAP1 DUP2 NOT AND OR PUSH1 0x0 SSTORE PUSH32 0x7F26B83FF96E1F2B6A682F133852F6798A09C465DA95921460CEFB3847402498 PUSH1 0x20 PUSH1 0x40 MLOAD PUSH1 0xFF DUP2 MSTORE LOG1 CODESIZE PUSH3 0x2C JUMP JUMPDEST PUSH3 0x461BCD PUSH1 0xE5 SHL DUP2 MSTORE PUSH1 0x20 PUSH1 0x4 DUP3 ADD MSTORE PUSH1 0x27 PUSH1 0x24 DUP3 ADD MSTORE PUSH32 0x496E697469616C697A61626C653A20636F6E747261637420697320696E697469 PUSH1 0x44 DUP3 ADD MSTORE PUSH7 0x616C697A696E67 PUSH1 0xC8 SHL PUSH1 0x64 DUP3 ADD MSTORE PUSH1 0x84 SWAP1 REVERT JUMPDEST PUSH1 0x0 DUP1 REVERT INVALID PUSH1 0x40 PUSH1 0x80 DUP2 MSTORE PUSH1 0x4 SWAP1 DUP2 CALLDATASIZE LT ISZERO PUSH2 0x15 JUMPI PUSH1 0x0 DUP1 REVERT JUMPDEST PUSH1 0x0 DUP1 CALLDATALOAD PUSH1 0xE0 SHR SWAP1 DUP2 PUSH4 0x1DDE6EF EQ PUSH2 0x2A87 JUMPI DUP2 PUSH4 0x1F1B684 EQ PUSH2 0x2A42 JUMPI DUP2 PUSH4 0x579188F EQ PUSH2 0x29AA JUMPI DUP2 PUSH4 0x73763B9 EQ PUSH2 0x2988 JUMPI DUP2 PUSH4 0xBB7F608 EQ PUSH2 0x296B JUMPI DUP2 PUSH4 0xC340A24 EQ PUSH2 0x2943 JUMPI DUP2 PUSH4 0xC36D897 EQ PUSH2 0x2924 JUMPI DUP2 PUSH4 0xD6AC463 EQ PUSH2 0x28E0 JUMPI DUP2 PUSH4 0xDB49656 EQ PUSH2 0x28C1 JUMPI DUP2 PUSH4 0xE0A8FD2 EQ PUSH2 0x289F JUMPI DUP2 PUSH4 0xF1E5E2B EQ PUSH2 0x285B JUMPI DUP2 PUSH4 0x13ED7BA5 EQ PUSH2 0x2832 JUMPI DUP2 PUSH4 0x15266E36 EQ PUSH2 0x2812 JUMPI DUP2 PUSH4 0x17937F9B EQ PUSH2 0x27DD JUMPI DUP2 PUSH4 0x1867E2F5 EQ PUSH2 0x27BE JUMPI DUP2 PUSH4 0x1FB0DDA0 EQ PUSH2 0x2796 JUMPI DUP2 PUSH4 0x1FE6A7AD EQ PUSH2 0x275E JUMPI DUP2 PUSH4 0x2069F753 EQ PUSH2 0x273C JUMPI DUP2 PUSH4 0x23B98CDE EQ PUSH2 0x2715 JUMPI DUP2 PUSH4 0x24FFABA3 EQ PUSH2 0x26DA JUMPI DUP2 PUSH4 0x25BC6C41 EQ PUSH2 0x26B1 JUMPI DUP2 PUSH4 0x27EAB2A1 EQ PUSH2 0x266D JUMPI DUP2 PUSH4 0x2A20D57D EQ PUSH2 0x264E JUMPI DUP2 PUSH4 0x2B764FAD EQ PUSH2 0x262E JUMPI DUP2 PUSH4 0x2C43BD3B EQ PUSH2 0x260C JUMPI DUP2 PUSH4 0x2D88AF4A EQ PUSH2 0x25B7 JUMPI DUP2 PUSH4 0x2DED50F0 EQ PUSH2 0x2598 JUMPI DUP2 PUSH4 0x333431FD EQ PUSH2 0x2579 JUMPI DUP2 PUSH4 0x33421C38 EQ PUSH2 0x2486 JUMPI DUP2 PUSH4 0x34246862 EQ PUSH2 0x246A JUMPI DUP2 PUSH4 0x3659CFE6 EQ PUSH2 0x23D2 JUMPI DUP2 PUSH4 0x3915EDCB EQ PUSH2 0x23A3 JUMPI DUP2 PUSH4 0x3BC4AC0A EQ PUSH2 0x2381 JUMPI DUP2 PUSH4 0x3CFB09EF EQ PUSH2 0x233D JUMPI DUP2 PUSH4 0x3DBC50A9 EQ PUSH2 0x231A JUMPI DUP2 PUSH4 0x3F4BA83A EQ PUSH2 0x22A0 JUMPI DUP2 PUSH4 0x4017936A EQ PUSH2 0x225A JUMPI DUP2 PUSH4 0x407F0E34 EQ PUSH2 0x223B JUMPI DUP2 PUSH4 0x4310ADC6 EQ PUSH2 0x21FE JUMPI DUP2 PUSH4 0x44719EE9 EQ PUSH2 0x21BF JUMPI DUP2 PUSH4 0x466B8934 EQ PUSH2 0x2180 JUMPI DUP2 PUSH4 0x471A80E3 EQ PUSH2 0x214E JUMPI DUP2 PUSH4 0x484AD7CD EQ PUSH2 0x210F JUMPI DUP2 PUSH4 0x4B746001 EQ PUSH2 0x20C7 JUMPI DUP2 PUSH4 0x4D977E78 EQ PUSH2 0x20A8 JUMPI DUP2 PUSH4 0x4E1F907A EQ PUSH2 0x207F JUMPI DUP2 PUSH4 0x4F0F27EE EQ PUSH2 0x2060 JUMPI DUP2 PUSH4 0x4F1EF286 EQ PUSH2 0x1F74 JUMPI DUP2 PUSH4 0x5210570C EQ PUSH2 0x1F4F JUMPI DUP2 PUSH4 0x52D1902D EQ PUSH2 0x1E7A JUMPI DUP2 PUSH4 0x52E18F8F EQ PUSH2 0x1E5B JUMPI DUP2 PUSH4 0x533A4BEA EQ PUSH2 0x1E2C JUMPI DUP2 PUSH4 0x543AEB48 EQ PUSH2 0x1E0A JUMPI DUP2 PUSH4 0x5860EE63 EQ PUSH2 0x1DEB JUMPI DUP2 PUSH4 0x5C616A73 EQ PUSH2 0x1BF1 JUMPI DUP2 PUSH4 0x5C975ABB EQ PUSH2 0x1BCB JUMPI DUP2 PUSH4 0x5CFBE578 EQ PUSH2 0x1BAC JUMPI DUP2 PUSH4 0x5ECE17EF EQ PUSH2 0x1B8C JUMPI DUP2 PUSH4 0x60009E0B EQ PUSH2 0x1B63 JUMPI DUP2 PUSH4 0x60A01DFA EQ PUSH2 0x16F5 JUMPI DUP2 PUSH4 0x647846A5 EQ PUSH2 0x16CC JUMPI DUP2 PUSH4 0x64EC230A EQ PUSH2 0x16AA JUMPI DUP2 PUSH4 0x662013F4 EQ PUSH2 0x168E JUMPI DUP2 PUSH4 0x68274357 EQ PUSH2 0x1666 JUMPI DUP2 PUSH4 0x68F015DF EQ PUSH2 0x15FC JUMPI DUP2 PUSH4 0x6B5488DF EQ PUSH2 0x15DD JUMPI DUP2 PUSH4 0x6F30471F EQ PUSH2 0x15BE JUMPI DUP2 PUSH4 0x70713468 EQ PUSH2 0x159C JUMPI DUP2 PUSH4 0x735D3960 EQ PUSH2 0x1558 JUMPI DUP2 PUSH4 0x73E28AF9 EQ PUSH2 0x1536 JUMPI DUP2 PUSH4 0x74873AD3 EQ PUSH2 0x1518 JUMPI DUP2 PUSH4 0x7554FFFD EQ PUSH2 0x14F9 JUMPI DUP2 PUSH4 0x76228055 EQ PUSH2 0x14DA JUMPI DUP2 PUSH4 0x7750BA0C EQ PUSH2 0x14B8 JUMPI DUP2 PUSH4 0x79F9A91C EQ PUSH2 0x1499 JUMPI DUP2 PUSH4 0x7A193C31 EQ PUSH2 0x147A JUMPI DUP2 PUSH4 0x7A4FF1D9 EQ PUSH2 0x1458 JUMPI DUP2 PUSH4 0x7A727FE8 EQ PUSH2 0x1439 JUMPI DUP2 PUSH4 0x7AF5758C EQ PUSH2 0x1417 JUMPI DUP2 PUSH4 0x7B21B274 EQ PUSH2 0x13F1 JUMPI DUP2 PUSH4 0x7CBA2383 EQ PUSH2 0x13CF JUMPI DUP2 PUSH4 0x7D8E0314 EQ PUSH2 0x1392 JUMPI DUP2 PUSH4 0x7F01C715 EQ PUSH2 0x1369 JUMPI DUP2 PUSH4 0x7F13B998 EQ PUSH2 0x1334 JUMPI DUP2 PUSH4 0x7F4A4FE0 EQ PUSH2 0x1315 JUMPI DUP2 PUSH4 0x826FCD58 EQ PUSH2 0x12F3 JUMPI DUP2 PUSH4 0x842D5748 EQ PUSH2 0x12CE JUMPI DUP2 PUSH4 0x8456CB59 EQ PUSH2 0x123D JUMPI DUP2 PUSH4 0x85BF9593 EQ PUSH2 0x11F9 JUMPI DUP2 PUSH4 0x89FD503E EQ PUSH2 0x11D6 JUMPI DUP2 PUSH4 0x8ACC2011 EQ PUSH2 0x11B3 JUMPI DUP2 PUSH4 0x8CFA4241 EQ PUSH2 0x1194 JUMPI DUP2 PUSH4 0x8E2BDB86 EQ PUSH2 0x116B JUMPI DUP2 PUSH4 0x8F1A383A EQ PUSH2 0x1144 JUMPI DUP2 PUSH4 0x9853C35A EQ PUSH2 0x111B JUMPI DUP2 PUSH4 0x98B2086F EQ PUSH2 0x10F8 JUMPI DUP2 PUSH4 0x9ABB14C9 EQ PUSH2 0x10CE JUMPI DUP2 PUSH4 0x9AD6659D EQ PUSH2 0x1099 JUMPI DUP2 PUSH4 0x9BEA71A4 EQ PUSH2 0x1057 JUMPI DUP2 PUSH4 0x9CABFC00 EQ PUSH2 0x100C JUMPI DUP2 PUSH4 0x9FD0506D EQ PUSH2 0xFE0 JUMPI DUP2 PUSH4 0x9FD8ED0E EQ PUSH2 0xFC3 JUMPI DUP2 PUSH4 0xA8E9AC30 EQ PUSH2 0xFA1 JUMPI DUP2 PUSH4 0xAAF91EFF EQ PUSH2 0xF83 JUMPI DUP2 PUSH4 0xAAF925F6 EQ PUSH2 0xF5E JUMPI DUP2 PUSH4 0xAC0C88AB EQ PUSH2 0xF3A JUMPI DUP2 PUSH4 0xAEA038DC EQ PUSH2 0xF1B JUMPI DUP2 PUSH4 0xAEB41E69 EQ PUSH2 0xEF5 JUMPI DUP2 PUSH4 0xB5E9EA8C EQ PUSH2 0xECC JUMPI DUP2 PUSH4 0xB85EDD65 EQ PUSH2 0xEA8 JUMPI DUP2 PUSH4 0xB9FA6413 EQ PUSH2 0xE89 JUMPI DUP2 PUSH4 0xBB4872DE EQ PUSH2 0xE66 JUMPI DUP2 PUSH4 0xBECACA6B EQ PUSH2 0xE44 JUMPI DUP2 PUSH4 0xC00F538D EQ PUSH2 0xE22 JUMPI DUP2 PUSH4 0xC039CC69 EQ PUSH2 0xDE1 JUMPI DUP2 PUSH4 0xC09C30BD EQ PUSH2 0xD8E JUMPI DUP2 PUSH4 0xC239FCA4 EQ PUSH2 0xD6F JUMPI DUP2 PUSH4 0xC84353C9 EQ PUSH2 0xD4D JUMPI DUP2 PUSH4 0xCF351C1D EQ PUSH2 0xD09 JUMPI DUP2 PUSH4 0xD1A0FAA0 EQ PUSH2 0xCEE JUMPI DUP2 PUSH4 0xD6AF11DA EQ PUSH2 0xCB3 JUMPI DUP2 PUSH4 0xD76DC7FD EQ PUSH2 0xC90 JUMPI DUP2 PUSH4 0xD87AAB6F EQ PUSH2 0xC71 JUMPI DUP2 PUSH4 0xD8DB6F5A EQ PUSH2 0xC2D JUMPI DUP2 PUSH4 0xDB796072 EQ PUSH2 0xBED JUMPI DUP2 PUSH4 0xDDB6D190 EQ PUSH2 0xBB2 JUMPI DUP2 PUSH4 0xDE8D520A EQ PUSH2 0xB80 JUMPI DUP2 PUSH4 0xE23C135C EQ PUSH2 0xB3C JUMPI DUP2 PUSH4 0xE3867EEB EQ PUSH2 0xB14 JUMPI DUP2 PUSH4 0xE4012945 EQ PUSH2 0xAD7 JUMPI DUP2 PUSH4 0xE4C0AAF4 EQ PUSH2 0xA8F JUMPI DUP2 PUSH4 0xE6A683E0 EQ PUSH2 0xA4B JUMPI DUP2 PUSH4 0xE6B1627C EQ PUSH2 0xA09 JUMPI DUP2 PUSH4 0xE7C25978 EQ PUSH2 0x9E5 JUMPI DUP2 PUSH4 0xE8859A15 EQ PUSH2 0x9C9 JUMPI DUP2 PUSH4 0xEA302A97 EQ PUSH2 0x9A4 JUMPI DUP2 PUSH4 0xEE1F438F EQ PUSH2 0x97B JUMPI DUP2 PUSH4 0xF13F4054 EQ PUSH2 0x952 JUMPI DUP2 PUSH4 0xF26114AA EQ PUSH2 0x8EA JUMPI DUP2 PUSH4 0xF2808778 EQ PUSH2 0x8C8 JUMPI DUP2 PUSH4 0xF2F9F456 EQ PUSH2 0x8A5 JUMPI DUP2 PUSH4 0xF30B5614 EQ PUSH2 0x886 JUMPI DUP2 PUSH4 0xF375CFBA EQ PUSH2 0x867 JUMPI DUP2 PUSH4 0xF88B1434 EQ PUSH2 0x7F8 JUMPI DUP2 PUSH4 0xFA6E83BD EQ PUSH2 0x7D9 JUMPI DUP2 PUSH4 0xFADDA424 EQ PUSH2 0x762 JUMPI DUP2 PUSH4 0xFD80FA77 EQ PUSH2 0x72F JUMPI DUP2 PUSH4 0xFDA70F8B EQ PUSH2 0x70C JUMPI POP DUP1 PUSH4 0xFED0ADE4 EQ PUSH2 0x6E8 JUMPI PUSH4 0xFFE31539 EQ PUSH2 0x694 JUMPI PUSH1 0x0 DUP1 REVERT JUMPDEST PUSH1 0x60 CALLDATASIZE PUSH1 0x3 NOT ADD SLT PUSH2 0x6E3 JUMPI PUSH1 0x44 CALLDATALOAD SWAP2 PUSH1 0x1 PUSH1 0x1 PUSH1 0xA0 SHL SUB DUP4 AND DUP4 SUB PUSH2 0x6E3 JUMPI PUSH2 0x6DF SWAP3 PUSH2 0x6D1 SWAP2 PUSH2 0x6C4 PUSH2 0x403A JUMP JUMPDEST POP CALLER SWAP1 PUSH1 0x24 CALLDATALOAD SWAP1 CALLDATALOAD PUSH2 0x4061 JUMP JUMPDEST SWAP1 SWAP4 SWAP2 SWAP3 MLOAD SWAP4 DUP5 SWAP4 DUP5 PUSH2 0x2AD7 JUMP JUMPDEST SUB SWAP1 RETURN JUMPDEST PUSH1 0x0 DUP1 REVERT JUMPDEST POP PUSH2 0x6D1 PUSH2 0x6FA PUSH2 0x6DF SWAP4 CALLDATASIZE SWAP1 PUSH2 0x2BD5 JUMP JUMPDEST SWAP3 PUSH2 0x706 SWAP3 SWAP2 SWAP3 PUSH2 0x403A JUMP JUMPDEST POP PUSH2 0x4061 JUMP JUMPDEST DUP3 CALLVALUE PUSH2 0x72B JUMPI DUP2 PUSH1 0x3 NOT CALLDATASIZE ADD SLT PUSH2 0x72B JUMPI PUSH1 0x20 SWAP1 PUSH2 0x13C SLOAD SWAP1 MLOAD SWAP1 DUP2 MSTORE RETURN JUMPDEST POP DUP1 REVERT JUMPDEST PUSH2 0x754 SWAP2 POP PUSH2 0x742 PUSH2 0x6DF SWAP5 CALLDATASIZE SWAP1 PUSH2 0x2C98 JUMP JUMPDEST SWAP4 PUSH2 0x74E SWAP4 SWAP2 SWAP4 PUSH2 0x403A JUMP JUMPDEST POP PUSH2 0x5699 JUMP JUMPDEST SWAP2 SWAP5 SWAP3 SWAP4 MLOAD SWAP5 DUP6 SWAP5 DUP6 PUSH2 0x2B6C JUMP JUMPDEST DUP4 SWAP2 POP CALLVALUE PUSH2 0x7D6 JUMPI PUSH1 0x20 CALLDATASIZE PUSH1 0x3 NOT ADD SLT PUSH2 0x7D6 JUMPI POP PUSH1 0x1 PUSH1 0x1 PUSH1 0xA0 SHL SUB DUP2 CALLDATALOAD DUP2 DUP2 AND DUP2 SUB PUSH2 0x6E3 JUMPI PUSH2 0x7A0 PUSH2 0x798 PUSH1 0x1 SWAP3 PUSH2 0x3515 JUMP JUMPDEST PUSH2 0x137 PUSH2 0x2BFB JUMP JUMPDEST POP ADD SLOAD AND SWAP1 PUSH2 0x7AE DUP3 PUSH2 0x35BE JUMP JUMPDEST SWAP3 SWAP1 SWAP3 ISZERO PUSH2 0x7C0 JUMPI PUSH1 0x20 DUP4 DUP6 MLOAD SWAP1 DUP2 MSTORE RETURN JUMPDEST DUP4 MLOAD PUSH4 0x7F6E4DB9 PUSH1 0xE0 SHL DUP2 MSTORE SWAP2 DUP3 ADD MSTORE PUSH1 0x24 SWAP2 POP REVERT JUMPDEST DUP1 REVERT JUMPDEST DUP3 CALLVALUE PUSH2 0x72B JUMPI DUP2 PUSH1 0x3 NOT CALLDATASIZE ADD SLT PUSH2 0x72B JUMPI PUSH1 0x20 SWAP1 PUSH2 0x13A SLOAD SWAP1 MLOAD SWAP1 DUP2 MSTORE RETURN JUMPDEST DUP4 SWAP2 POP CALLVALUE PUSH2 0x7D6 JUMPI PUSH1 0x20 CALLDATASIZE PUSH1 0x3 NOT ADD SLT PUSH2 0x7D6 JUMPI POP CALLDATALOAD SWAP1 PUSH1 0x1 PUSH1 0x1 PUSH1 0xA0 SHL SUB DUP3 AND DUP3 SUB PUSH2 0x6E3 JUMPI PUSH2 0x860 PUSH2 0x852 PUSH1 0x20 SWAP4 PUSH2 0x83B PUSH2 0x833 PUSH2 0x3C29 JUMP JUMPDEST SWAP2 SWAP1 SWAP3 PUSH2 0x3515 JUMP JUMPDEST SWAP2 PUSH2 0x85A PUSH2 0x849 DUP5 DUP5 PUSH2 0x31E4 JUMP JUMPDEST MLOAD SWAP5 DUP6 SWAP4 PUSH2 0x321B JUMP JUMPDEST SWAP6 SWAP1 SWAP5 PUSH2 0x3B86 JUMP JUMPDEST SWAP1 PUSH2 0x3AB8 JUMP JUMPDEST SWAP1 MLOAD SWAP1 DUP2 MSTORE RETURN JUMPDEST DUP3 CALLVALUE PUSH2 0x72B JUMPI DUP2 PUSH1 0x3 NOT CALLDATASIZE ADD SLT PUSH2 0x72B JUMPI PUSH1 0x20 SWAP1 PUSH2 0x141 SLOAD SWAP1 MLOAD SWAP1 DUP2 MSTORE RETURN JUMPDEST DUP3 CALLVALUE PUSH2 0x72B JUMPI DUP2 PUSH1 0x3 NOT CALLDATASIZE ADD SLT PUSH2 0x72B JUMPI PUSH1 0x20 SWAP1 PUSH2 0x131 SLOAD SWAP1 MLOAD SWAP1 DUP2 MSTORE RETURN JUMPDEST PUSH2 0x6DF DUP4 PUSH2 0x6D1 PUSH2 0x8B6 CALLDATASIZE DUP9 PUSH2 0x2C6B JUMP JUMPDEST SWAP3 SWAP2 PUSH2 0x8C0 PUSH2 0x403A JUMP JUMPDEST POP CALLER SWAP3 PUSH2 0x468F JUMP JUMPDEST DUP4 CALLVALUE PUSH2 0x72B JUMPI PUSH1 0x20 CALLDATASIZE PUSH1 0x3 NOT ADD SLT PUSH2 0x72B JUMPI PUSH2 0x8E2 PUSH2 0x3D80 JUMP JUMPDEST CALLDATALOAD PUSH2 0x13C SSTORE DUP1 RETURN JUMPDEST DUP3 DUP5 CALLVALUE PUSH2 0x94E JUMPI PUSH1 0xE0 CALLDATASIZE PUSH1 0x3 NOT ADD SLT PUSH2 0x94E JUMPI PUSH2 0x938 PUSH2 0x92A SWAP2 PUSH2 0x94A SWAP4 PUSH2 0x910 PUSH2 0x3D80 JUMP JUMPDEST MLOAD PUSH4 0x79308A55 PUSH1 0xE1 SHL PUSH1 0x20 DUP3 ADD MSTORE SWAP3 DUP4 SWAP2 PUSH1 0x24 DUP4 ADD PUSH2 0x39D1 JUMP JUMPDEST SUB PUSH1 0x1F NOT DUP2 ADD DUP4 MSTORE DUP3 PUSH2 0x2C17 JUMP JUMPDEST PUSH2 0x1F6 SLOAD PUSH1 0x1 PUSH1 0x1 PUSH1 0xA0 SHL SUB AND PUSH2 0x3890 JUMP JUMPDEST POP DUP1 RETURN JUMPDEST DUP3 DUP1 REVERT JUMPDEST DUP3 CALLVALUE PUSH2 0x72B JUMPI DUP2 PUSH1 0x3 NOT CALLDATASIZE ADD SLT PUSH2 0x72B JUMPI PUSH2 0x130 SLOAD SWAP1 MLOAD PUSH1 0x1 PUSH1 0x1 PUSH1 0xA0 SHL SUB SWAP1 SWAP2 AND DUP2 MSTORE PUSH1 0x20 SWAP1 RETURN JUMPDEST DUP3 CALLVALUE PUSH2 0x72B JUMPI DUP2 PUSH1 0x3 NOT CALLDATASIZE ADD SLT PUSH2 0x72B JUMPI PUSH2 0x152 SLOAD SWAP1 MLOAD PUSH1 0x1 PUSH1 0x1 PUSH1 0xA0 SHL SUB SWAP1 SWAP2 AND DUP2 MSTORE PUSH1 0x20 SWAP1 RETURN JUMPDEST PUSH2 0x754 SWAP2 POP PUSH2 0x9B7 PUSH2 0x6DF SWAP5 CALLDATASIZE SWAP1 PUSH2 0x2C98 JUMP JUMPDEST SWAP4 PUSH2 0x9C3 SWAP4 SWAP2 SWAP4 PUSH2 0x403A JUMP JUMPDEST POP PUSH2 0x4D3C JUMP JUMPDEST DUP3 CALLVALUE PUSH2 0x72B JUMPI DUP2 PUSH1 0x3 NOT CALLDATASIZE ADD SLT PUSH2 0x72B JUMPI PUSH1 0x20 SWAP1 PUSH2 0x860 PUSH2 0x3B49 JUMP JUMPDEST DUP3 CALLVALUE PUSH2 0x72B JUMPI DUP2 PUSH1 0x3 NOT CALLDATASIZE ADD SLT PUSH2 0x72B JUMPI PUSH1 0x20 SWAP1 PUSH1 0xFF PUSH2 0x14B SLOAD AND SWAP1 MLOAD SWAP1 ISZERO ISZERO DUP2 MSTORE RETURN JUMPDEST DUP3 DUP5 CALLVALUE PUSH2 0x94E JUMPI PUSH1 0x20 CALLDATASIZE PUSH1 0x3 NOT ADD SLT PUSH2 0x94E JUMPI CALLDATALOAD PUSH2 0x18E DUP1 SLOAD DUP3 LT ISZERO PUSH2 0xA47 JUMPI SWAP1 PUSH2 0xA33 SWAP2 PUSH2 0x2BFB JUMP JUMPDEST POP PUSH1 0x1 DUP2 SLOAD SWAP2 ADD SLOAD DUP3 MLOAD SWAP2 DUP3 MSTORE PUSH1 0x20 DUP3 ADD MSTORE RETURN JUMPDEST DUP4 DUP1 REVERT JUMPDEST DUP4 CALLVALUE PUSH2 0x72B JUMPI PUSH1 0x20 CALLDATASIZE PUSH1 0x3 NOT ADD SLT PUSH2 0x72B JUMPI CALLDATALOAD PUSH1 0x1 PUSH1 0x1 PUSH1 0xA0 SHL SUB DUP2 AND SWAP1 DUP2 SWAP1 SUB PUSH2 0x6E3 JUMPI PUSH2 0xA78 PUSH2 0x3D80 JUMP JUMPDEST PUSH2 0x1F6 DUP1 SLOAD PUSH1 0x1 PUSH1 0x1 PUSH1 0xA0 SHL SUB NOT AND SWAP1 SWAP2 OR SWAP1 SSTORE DUP1 RETURN JUMPDEST DUP4 CALLVALUE PUSH2 0x72B JUMPI PUSH1 0x20 CALLDATASIZE PUSH1 0x3 NOT ADD SLT PUSH2 0x72B JUMPI CALLDATALOAD PUSH1 0x1 PUSH1 0x1 PUSH1 0xA0 SHL SUB DUP2 AND SWAP1 DUP2 SWAP1 SUB PUSH2 0x72B JUMPI PUSH2 0xABC PUSH2 0x3D80 JUMP JUMPDEST PUSH12 0xFFFFFFFFFFFFFFFFFFFFFFFF PUSH1 0xA0 SHL PUSH1 0x97 SLOAD AND OR PUSH1 0x97 SSTORE DUP1 RETURN JUMPDEST DUP3 DUP5 PUSH1 0x60 CALLDATASIZE PUSH1 0x3 NOT ADD SLT PUSH2 0x6E3 JUMPI PUSH1 0x44 CALLDATALOAD SWAP3 PUSH1 0x1 PUSH1 0x1 PUSH1 0xA0 SHL SUB DUP5 AND DUP5 SUB PUSH2 0x6E3 JUMPI PUSH2 0x6DF SWAP4 PUSH2 0x6D1 SWAP3 PUSH2 0xB09 PUSH2 0x403A JUMP JUMPDEST POP PUSH1 0x24 CALLDATALOAD SWAP1 CALLDATALOAD PUSH2 0x5105 JUMP JUMPDEST PUSH2 0x754 SWAP2 POP PUSH2 0xB27 PUSH2 0x6DF SWAP5 CALLDATASIZE SWAP1 PUSH2 0x2CCA JUMP JUMPDEST SWAP5 PUSH2 0xB36 SWAP5 SWAP2 SWAP5 SWAP4 SWAP3 SWAP4 PUSH2 0x403A JUMP JUMPDEST POP PUSH2 0x4AD1 JUMP JUMPDEST CALLVALUE PUSH2 0x7D6 JUMPI DUP1 PUSH1 0x3 NOT CALLDATASIZE ADD SLT PUSH2 0x7D6 JUMPI PUSH2 0xB55 ADDRESS PUSH2 0x3FCB JUMP JUMPDEST PUSH2 0x131 SWAP1 PUSH2 0xB65 DUP3 SLOAD DUP1 SWAP3 PUSH2 0x33EE JUMP JUMPDEST DUP1 PUSH2 0xB6E JUMPI DUP4 DUP1 RETURN JUMPDEST PUSH2 0xB77 SWAP2 PUSH2 0x31F8 JUMP JUMPDEST SWAP1 SSTORE DUP2 DUP1 DUP1 DUP4 DUP1 RETURN JUMPDEST DUP3 CALLVALUE PUSH2 0x72B JUMPI DUP2 PUSH1 0x3 NOT CALLDATASIZE ADD SLT PUSH2 0x72B JUMPI PUSH1 0x20 SWAP1 PUSH2 0x860 PUSH2 0xBA7 PUSH2 0xBA2 PUSH2 0x3630 JUMP JUMPDEST PUSH2 0x321B JUMP JUMPDEST SWAP1 POP PUSH2 0x131 SLOAD PUSH2 0x33EE JUMP JUMPDEST DUP3 DUP5 CALLVALUE PUSH2 0x94E JUMPI PUSH1 0x20 CALLDATASIZE PUSH1 0x3 NOT ADD SLT PUSH2 0x94E JUMPI CALLDATALOAD PUSH1 0x1 PUSH1 0x1 PUSH1 0xA0 SHL SUB DUP2 AND SWAP1 DUP2 SWAP1 SUB PUSH2 0x6E3 JUMPI DUP3 DUP3 SWAP2 PUSH1 0x20 SWAP5 MSTORE PUSH2 0x145 DUP5 MSTORE KECCAK256 SLOAD SWAP1 MLOAD SWAP1 DUP2 MSTORE RETURN JUMPDEST DUP3 DUP5 CALLVALUE PUSH2 0x94E JUMPI PUSH1 0xE0 CALLDATASIZE PUSH1 0x3 NOT ADD SLT PUSH2 0x94E JUMPI PUSH2 0x938 PUSH2 0x92A SWAP2 PUSH2 0x94A SWAP4 PUSH2 0xC13 PUSH2 0x3D80 JUMP JUMPDEST MLOAD PUSH4 0x6DBCB039 PUSH1 0xE1 SHL PUSH1 0x20 DUP3 ADD MSTORE SWAP3 DUP4 SWAP2 PUSH1 0x24 DUP4 ADD PUSH2 0x39D1 JUMP JUMPDEST DUP4 CALLVALUE PUSH2 0x72B JUMPI PUSH1 0x20 CALLDATASIZE PUSH1 0x3 NOT ADD SLT PUSH2 0x72B JUMPI CALLDATALOAD PUSH1 0x1 PUSH1 0x1 PUSH1 0xA0 SHL SUB DUP2 AND SWAP1 DUP2 SWAP1 SUB PUSH2 0x6E3 JUMPI PUSH2 0xC5A PUSH2 0x3D80 JUMP JUMPDEST PUSH2 0x152 DUP1 SLOAD PUSH1 0x1 PUSH1 0x1 PUSH1 0xA0 SHL SUB NOT AND SWAP1 SWAP2 OR SWAP1 SSTORE DUP1 RETURN JUMPDEST DUP3 CALLVALUE PUSH2 0x72B JUMPI DUP2 PUSH1 0x3 NOT CALLDATASIZE ADD SLT PUSH2 0x72B JUMPI PUSH1 0x20 SWAP1 PUSH2 0x155 SLOAD SWAP1 MLOAD SWAP1 DUP2 MSTORE RETURN JUMPDEST PUSH2 0x6DF DUP4 PUSH2 0x754 PUSH2 0xCA1 CALLDATASIZE DUP9 PUSH2 0x2D0A JUMP JUMPDEST SWAP4 PUSH2 0xCAD SWAP4 SWAP2 SWAP4 PUSH2 0x403A JUMP JUMPDEST POP PUSH2 0x4950 JUMP JUMPDEST DUP3 CALLVALUE PUSH2 0x72B JUMPI DUP2 PUSH1 0x3 NOT CALLDATASIZE ADD SLT PUSH2 0x72B JUMPI PUSH1 0x20 SWAP1 PUSH2 0x860 PUSH2 0xCD4 PUSH1 0x1 PUSH2 0x366A JUMP JUMPDEST PUSH2 0xCE8 PUSH2 0xCE1 DUP3 DUP5 PUSH2 0x335F JUMP JUMPDEST SWAP2 DUP4 PUSH2 0x32A9 JUMP JUMPDEST SWAP2 PUSH2 0x36B1 JUMP JUMPDEST CALLVALUE PUSH2 0x7D6 JUMPI DUP1 PUSH1 0x3 NOT CALLDATASIZE ADD SLT PUSH2 0x7D6 JUMPI PUSH2 0xD06 PUSH2 0x3CEC JUMP JUMPDEST DUP1 RETURN JUMPDEST DUP4 CALLVALUE PUSH2 0x72B JUMPI PUSH1 0x20 CALLDATASIZE PUSH1 0x3 NOT ADD SLT PUSH2 0x72B JUMPI CALLDATALOAD PUSH1 0x1 PUSH1 0x1 PUSH1 0xA0 SHL SUB DUP2 AND SWAP1 DUP2 SWAP1 SUB PUSH2 0x6E3 JUMPI PUSH2 0xD36 PUSH2 0x3D80 JUMP JUMPDEST PUSH2 0x12F DUP1 SLOAD PUSH1 0x1 PUSH1 0x1 PUSH1 0xA0 SHL SUB NOT AND SWAP1 SWAP2 OR SWAP1 SSTORE DUP1 RETURN JUMPDEST DUP4 CALLVALUE PUSH2 0x72B JUMPI PUSH1 0x20 CALLDATASIZE PUSH1 0x3 NOT ADD SLT PUSH2 0x72B JUMPI PUSH2 0xD67 PUSH2 0x3D80 JUMP JUMPDEST CALLDATALOAD PUSH2 0x14C SSTORE DUP1 RETURN JUMPDEST PUSH2 0x754 SWAP2 POP PUSH2 0xD82 PUSH2 0x6DF SWAP5 CALLDATASIZE SWAP1 PUSH2 0x2C6B JUMP JUMPDEST SWAP3 PUSH2 0xCAD SWAP3 SWAP2 SWAP3 PUSH2 0x403A JUMP JUMPDEST DUP3 DUP5 PUSH1 0xA0 CALLDATASIZE PUSH1 0x3 NOT ADD SLT PUSH2 0x94E JUMPI PUSH1 0x1 PUSH1 0x1 PUSH1 0xA0 SHL SUB SWAP3 SWAP1 CALLDATALOAD SWAP1 DUP4 DUP3 AND DUP3 SUB PUSH2 0x6E3 JUMPI PUSH1 0x24 CALLDATALOAD SWAP4 DUP5 AND DUP5 SUB PUSH2 0x6E3 JUMPI PUSH2 0x6DF SWAP4 PUSH2 0x754 SWAP3 PUSH2 0xDCD PUSH2 0x403A JUMP JUMPDEST POP CALLER SWAP2 PUSH1 0x84 CALLDATALOAD SWAP2 PUSH1 0x64 CALLDATALOAD SWAP2 PUSH1 0x44 CALLDATALOAD SWAP2 PUSH2 0x4AD1 JUMP JUMPDEST DUP3 CALLVALUE PUSH2 0x72B JUMPI DUP2 PUSH1 0x3 NOT CALLDATASIZE ADD SLT PUSH2 0x72B JUMPI PUSH1 0x20 SWAP1 PUSH2 0x860 PUSH2 0xE15 PUSH2 0xE1C PUSH2 0xE09 PUSH2 0xBA2 PUSH2 0x3630 JUMP JUMPDEST PUSH2 0x131 SWAP4 SWAP2 SWAP4 SLOAD PUSH2 0x33EE JUMP JUMPDEST SWAP2 DUP3 PUSH2 0x33EE JUMP JUMPDEST SWAP1 PUSH2 0x59AC JUMP JUMPDEST DUP4 CALLVALUE PUSH2 0x72B JUMPI PUSH1 0x20 CALLDATASIZE PUSH1 0x3 NOT ADD SLT PUSH2 0x72B JUMPI PUSH2 0xE3C PUSH2 0x3D80 JUMP JUMPDEST CALLDATALOAD PUSH2 0x13D SSTORE DUP1 RETURN JUMPDEST DUP4 CALLVALUE PUSH2 0x72B JUMPI PUSH1 0x20 CALLDATASIZE PUSH1 0x3 NOT ADD SLT PUSH2 0x72B JUMPI PUSH2 0xE5E PUSH2 0x3D80 JUMP JUMPDEST CALLDATALOAD PUSH2 0x139 SSTORE DUP1 RETURN JUMPDEST DUP3 CALLVALUE PUSH2 0x72B JUMPI DUP2 PUSH1 0x3 NOT CALLDATASIZE ADD SLT PUSH2 0x72B JUMPI PUSH1 0x20 SWAP1 PUSH1 0xFF PUSH1 0xCA SLOAD AND SWAP1 MLOAD SWAP1 ISZERO ISZERO DUP2 MSTORE RETURN JUMPDEST DUP3 CALLVALUE PUSH2 0x72B JUMPI DUP2 PUSH1 0x3 NOT CALLDATASIZE ADD SLT PUSH2 0x72B JUMPI PUSH1 0x20 SWAP1 PUSH2 0x15B SLOAD SWAP1 MLOAD SWAP1 DUP2 MSTORE RETURN JUMPDEST PUSH2 0x754 SWAP2 POP PUSH2 0xEBB PUSH2 0x6DF SWAP5 CALLDATASIZE SWAP1 PUSH2 0x2BAC JUMP JUMPDEST SWAP2 PUSH2 0xEC4 PUSH2 0x403A JUMP JUMPDEST POP CALLER SWAP4 PUSH2 0x4F44 JUMP JUMPDEST DUP3 CALLVALUE PUSH2 0x72B JUMPI DUP2 PUSH1 0x3 NOT CALLDATASIZE ADD SLT PUSH2 0x72B JUMPI PUSH2 0x153 SLOAD SWAP1 MLOAD PUSH1 0x1 PUSH1 0x1 PUSH1 0xA0 SHL SUB SWAP1 SWAP2 AND DUP2 MSTORE PUSH1 0x20 SWAP1 RETURN JUMPDEST PUSH2 0x6DF DUP4 PUSH2 0x754 PUSH2 0xF06 CALLDATASIZE DUP9 PUSH2 0x2C98 JUMP JUMPDEST SWAP4 SWAP3 PUSH2 0xF13 SWAP3 SWAP2 SWAP3 PUSH2 0x403A JUMP JUMPDEST POP CALLER SWAP4 PUSH2 0x5699 JUMP JUMPDEST DUP3 CALLVALUE PUSH2 0x72B JUMPI DUP2 PUSH1 0x3 NOT CALLDATASIZE ADD SLT PUSH2 0x72B JUMPI PUSH1 0x20 SWAP1 PUSH2 0x13D SLOAD SWAP1 MLOAD SWAP1 DUP2 MSTORE RETURN JUMPDEST PUSH2 0x754 SWAP2 POP PUSH2 0xF4D PUSH2 0x6DF SWAP5 CALLDATASIZE SWAP1 PUSH2 0x2BAC JUMP JUMPDEST SWAP2 PUSH2 0xF56 PUSH2 0x403A JUMP JUMPDEST POP CALLER SWAP4 PUSH2 0x4D3C JUMP JUMPDEST PUSH2 0x6D1 SWAP2 POP PUSH2 0xF71 PUSH2 0x6DF SWAP5 CALLDATASIZE SWAP1 PUSH2 0x2C6B JUMP JUMPDEST SWAP3 PUSH2 0xF7D SWAP3 SWAP2 SWAP3 PUSH2 0x403A JUMP JUMPDEST POP PUSH2 0x468F JUMP JUMPDEST PUSH2 0x6DF DUP4 PUSH2 0x754 PUSH2 0xF94 CALLDATASIZE DUP9 PUSH2 0x2C98 JUMP JUMPDEST SWAP4 SWAP3 PUSH2 0xEC4 SWAP3 SWAP2 SWAP3 PUSH2 0x403A JUMP JUMPDEST DUP3 CALLVALUE PUSH2 0x72B JUMPI DUP2 PUSH1 0x3 NOT CALLDATASIZE ADD SLT PUSH2 0x72B JUMPI PUSH1 0x20 SWAP1 PUSH2 0x18F SLOAD NUMBER LT ISZERO SWAP1 MLOAD SWAP1 DUP2 MSTORE RETURN JUMPDEST PUSH2 0x6DF DUP4 PUSH2 0x6D1 PUSH2 0xFD4 CALLDATASIZE DUP9 PUSH2 0x2D0A JUMP JUMPDEST SWAP4 PUSH2 0xF7D SWAP4 SWAP2 SWAP4 PUSH2 0x403A JUMP JUMPDEST DUP3 CALLVALUE PUSH2 0x72B JUMPI DUP2 PUSH1 0x3 NOT CALLDATASIZE ADD SLT PUSH2 0x72B JUMPI PUSH1 0xCA SLOAD SWAP1 MLOAD PUSH1 0x10 SWAP2 SWAP1 SWAP2 SHR PUSH1 0x1 PUSH1 0x1 PUSH1 0xA0 SHL SUB AND DUP2 MSTORE PUSH1 0x20 SWAP1 RETURN JUMPDEST SWAP1 POP DUP3 CALLVALUE PUSH2 0x72B JUMPI PUSH1 0x20 CALLDATASIZE PUSH1 0x3 NOT ADD SLT PUSH2 0x72B JUMPI CALLDATALOAD PUSH1 0x1 PUSH1 0x1 PUSH1 0xA0 SHL SUB DUP2 AND SWAP2 SWAP1 DUP3 SWAP1 SUB PUSH2 0x6E3 JUMPI DUP3 SWAP2 DUP2 MSTORE PUSH2 0x136 PUSH1 0x20 MSTORE KECCAK256 PUSH1 0xFF PUSH1 0x1 DUP3 SLOAD SWAP3 ADD SLOAD AND DUP3 MLOAD SWAP2 DUP3 MSTORE ISZERO ISZERO PUSH1 0x20 DUP3 ADD MSTORE RETURN JUMPDEST DUP4 SWAP2 POP CALLVALUE PUSH2 0x7D6 JUMPI DUP3 PUSH1 0x3 NOT CALLDATASIZE ADD SLT PUSH2 0x7D6 JUMPI POP PUSH1 0x1 PUSH1 0x1 PUSH1 0xA0 SHL SUB SWAP2 SWAP1 CALLDATALOAD DUP3 DUP2 AND DUP2 SUB PUSH2 0x6E3 JUMPI PUSH1 0x24 CALLDATALOAD SWAP3 DUP4 AND DUP4 SUB PUSH2 0x6E3 JUMPI PUSH1 0x20 SWAP3 PUSH2 0x860 SWAP2 CALLER SWAP1 PUSH2 0x380E JUMP JUMPDEST DUP3 CALLVALUE PUSH2 0x72B JUMPI DUP2 PUSH1 0x3 NOT CALLDATASIZE ADD SLT PUSH2 0x72B JUMPI PUSH1 0x20 SWAP1 PUSH2 0x10C1 PUSH2 0x10BB PUSH2 0xBA2 PUSH2 0x3630 JUMP JUMPDEST SWAP1 PUSH2 0x33D0 JUMP JUMPDEST PUSH2 0x14A SLOAD LT ISZERO SWAP1 MLOAD SWAP1 DUP2 MSTORE RETURN JUMPDEST DUP3 DUP5 DUP2 PUSH1 0x3 NOT CALLDATASIZE ADD SLT PUSH2 0x6E3 JUMPI PUSH2 0x6DF SWAP3 PUSH2 0x6D1 SWAP2 PUSH2 0x10EB PUSH2 0x403A JUMP JUMPDEST POP CALLER SWAP1 PUSH1 0x24 CALLDATALOAD SWAP1 CALLDATALOAD PUSH2 0x5105 JUMP JUMPDEST PUSH2 0x6DF DUP4 PUSH2 0x754 PUSH2 0x1109 CALLDATASIZE DUP9 PUSH2 0x2C6B JUMP JUMPDEST SWAP3 SWAP2 PUSH2 0x1113 PUSH2 0x403A JUMP JUMPDEST POP CALLER SWAP3 PUSH2 0x4950 JUMP JUMPDEST DUP3 CALLVALUE PUSH2 0x72B JUMPI DUP2 PUSH1 0x3 NOT CALLDATASIZE ADD SLT PUSH2 0x72B JUMPI PUSH2 0x146 SLOAD SWAP1 MLOAD PUSH1 0x1 PUSH1 0x1 PUSH1 0xA0 SHL SUB SWAP1 SWAP2 AND DUP2 MSTORE PUSH1 0x20 SWAP1 RETURN JUMPDEST DUP3 CALLVALUE PUSH2 0x72B JUMPI DUP2 PUSH1 0x3 NOT CALLDATASIZE ADD SLT PUSH2 0x72B JUMPI PUSH1 0x20 SWAP1 PUSH2 0x1163 PUSH2 0xBA2 PUSH2 0x3630 JUMP JUMPDEST POP SWAP1 MLOAD SWAP1 DUP2 MSTORE RETURN JUMPDEST DUP3 CALLVALUE PUSH2 0x72B JUMPI DUP2 PUSH1 0x3 NOT CALLDATASIZE ADD SLT PUSH2 0x72B JUMPI PUSH2 0x158 SLOAD SWAP1 MLOAD PUSH1 0x1 PUSH1 0x1 PUSH1 0xA0 SHL SUB SWAP1 SWAP2 AND DUP2 MSTORE PUSH1 0x20 SWAP1 RETURN JUMPDEST DUP3 CALLVALUE PUSH2 0x72B JUMPI DUP2 PUSH1 0x3 NOT CALLDATASIZE ADD SLT PUSH2 0x72B JUMPI PUSH1 0x20 SWAP1 PUSH2 0x14A SLOAD SWAP1 MLOAD SWAP1 DUP2 MSTORE RETURN JUMPDEST PUSH2 0x6DF DUP4 PUSH2 0x6D1 PUSH2 0x11C4 CALLDATASIZE DUP9 PUSH2 0x2C6B JUMP JUMPDEST SWAP3 SWAP2 PUSH2 0x11CE PUSH2 0x403A JUMP JUMPDEST POP CALLER SWAP3 PUSH2 0x5400 JUMP JUMPDEST PUSH2 0x6DF DUP4 PUSH2 0x6D1 PUSH2 0x11E7 CALLDATASIZE DUP9 PUSH2 0x2D0A JUMP JUMPDEST SWAP4 PUSH2 0x11F3 SWAP4 SWAP2 SWAP4 PUSH2 0x403A JUMP JUMPDEST POP PUSH2 0x5400 JUMP JUMPDEST DUP4 CALLVALUE PUSH2 0x72B JUMPI PUSH1 0x20 CALLDATASIZE PUSH1 0x3 NOT ADD SLT PUSH2 0x72B JUMPI CALLDATALOAD PUSH1 0x1 PUSH1 0x1 PUSH1 0xA0 SHL SUB DUP2 AND SWAP1 DUP2 SWAP1 SUB PUSH2 0x6E3 JUMPI PUSH2 0x1226 PUSH2 0x3D80 JUMP JUMPDEST PUSH2 0x153 DUP1 SLOAD PUSH1 0x1 PUSH1 0x1 PUSH1 0xA0 SHL SUB NOT AND SWAP1 SWAP2 OR SWAP1 SSTORE DUP1 RETURN JUMPDEST DUP3 DUP5 CALLVALUE PUSH2 0x94E JUMPI DUP3 PUSH1 0x3 NOT CALLDATASIZE ADD SLT PUSH2 0x94E JUMPI PUSH2 0x1257 PUSH2 0x3E0E JUMP JUMPDEST PUSH1 0xCA SLOAD SWAP1 PUSH1 0x10 DUP3 SWAP1 SHR PUSH1 0x1 PUSH1 0x1 PUSH1 0xA0 SHL SUB AND CALLER SUB PUSH2 0x12C0 JUMPI PUSH1 0xFF DUP3 AND ISZERO PUSH2 0x12B2 JUMPI POP PUSH2 0xFF00 NOT AND PUSH2 0x100 OR PUSH1 0xCA SSTORE MLOAD CALLER DUP2 MSTORE PUSH32 0x62E78CEA01BEE320CD4E420270B5EA74000D11B0C9F74754EBDBFC544B05A258 SWAP1 PUSH1 0x20 SWAP1 LOG1 DUP1 RETURN JUMPDEST DUP3 MLOAD PUSH4 0x866099C3 PUSH1 0xE0 SHL DUP2 MSTORE REVERT JUMPDEST DUP3 MLOAD PUSH4 0x1D77D477 PUSH1 0xE2 SHL DUP2 MSTORE REVERT JUMPDEST PUSH2 0x754 SWAP2 POP PUSH2 0x12E1 PUSH2 0x6DF SWAP5 CALLDATASIZE SWAP1 PUSH2 0x2C98 JUMP JUMPDEST SWAP4 PUSH2 0x12ED SWAP4 SWAP2 SWAP4 PUSH2 0x403A JUMP JUMPDEST POP PUSH2 0x4F44 JUMP JUMPDEST DUP3 CALLVALUE PUSH2 0x72B JUMPI DUP2 PUSH1 0x3 NOT CALLDATASIZE ADD SLT PUSH2 0x72B JUMPI PUSH1 0x20 SWAP1 PUSH2 0x860 PUSH2 0x10BB PUSH2 0xBA2 PUSH2 0x3630 JUMP JUMPDEST DUP3 CALLVALUE PUSH2 0x72B JUMPI DUP2 PUSH1 0x3 NOT CALLDATASIZE ADD SLT PUSH2 0x72B JUMPI PUSH1 0x20 SWAP1 PUSH2 0x15A SLOAD SWAP1 MLOAD SWAP1 DUP2 MSTORE RETURN JUMPDEST DUP3 CALLVALUE PUSH2 0x72B JUMPI DUP2 PUSH1 0x3 NOT CALLDATASIZE ADD SLT PUSH2 0x72B JUMPI PUSH1 0x20 SWAP1 PUSH2 0x860 PUSH2 0x1355 PUSH1 0x1 PUSH2 0x366A JUMP JUMPDEST PUSH2 0xCE8 PUSH2 0x1362 DUP3 DUP5 PUSH2 0x32A9 JUMP JUMPDEST SWAP2 DUP4 PUSH2 0x335F JUMP JUMPDEST DUP3 CALLVALUE PUSH2 0x72B JUMPI DUP2 PUSH1 0x3 NOT CALLDATASIZE ADD SLT PUSH2 0x72B JUMPI PUSH2 0x1C3 SLOAD SWAP1 MLOAD PUSH1 0x1 PUSH1 0x1 PUSH1 0xA0 SHL SUB SWAP1 SWAP2 AND DUP2 MSTORE PUSH1 0x20 SWAP1 RETURN JUMPDEST DUP3 DUP5 CALLVALUE PUSH2 0x94E JUMPI PUSH1 0x20 CALLDATASIZE PUSH1 0x3 NOT ADD SLT PUSH2 0x94E JUMPI CALLDATALOAD SWAP2 PUSH2 0x148 SWAP1 DUP2 SLOAD DUP5 LT ISZERO PUSH2 0x7D6 JUMPI POP PUSH1 0x20 SWAP3 PUSH2 0x13C1 SWAP2 PUSH2 0x2AA9 JUMP JUMPDEST SWAP2 SWAP1 SLOAD SWAP1 MLOAD SWAP2 PUSH1 0x3 SHL SHR DUP2 MSTORE RETURN JUMPDEST DUP4 CALLVALUE PUSH2 0x72B JUMPI PUSH1 0x20 CALLDATASIZE PUSH1 0x3 NOT ADD SLT PUSH2 0x72B JUMPI PUSH2 0x13E9 PUSH2 0x3D80 JUMP JUMPDEST CALLDATALOAD PUSH2 0x149 SSTORE DUP1 RETURN JUMPDEST PUSH2 0x6DF DUP4 PUSH2 0x754 PUSH2 0x1402 CALLDATASIZE DUP9 PUSH2 0x2CCA JUMP JUMPDEST SWAP5 SWAP4 PUSH2 0x140F SWAP4 SWAP2 SWAP4 PUSH2 0x403A JUMP JUMPDEST POP CALLER SWAP5 PUSH2 0x4AD1 JUMP JUMPDEST DUP4 CALLVALUE PUSH2 0x72B JUMPI PUSH1 0x20 CALLDATASIZE PUSH1 0x3 NOT ADD SLT PUSH2 0x72B JUMPI PUSH2 0x1431 PUSH2 0x3D80 JUMP JUMPDEST CALLDATALOAD PUSH2 0x140 SSTORE DUP1 RETURN JUMPDEST DUP3 CALLVALUE PUSH2 0x72B JUMPI DUP2 PUSH1 0x3 NOT CALLDATASIZE ADD SLT PUSH2 0x72B JUMPI PUSH1 0x20 SWAP1 PUSH2 0x190 SLOAD SWAP1 MLOAD SWAP1 DUP2 MSTORE RETURN JUMPDEST DUP4 CALLVALUE PUSH2 0x72B JUMPI PUSH1 0x20 CALLDATASIZE PUSH1 0x3 NOT ADD SLT PUSH2 0x72B JUMPI PUSH2 0x1472 PUSH2 0x3D80 JUMP JUMPDEST CALLDATALOAD PUSH2 0x141 SSTORE DUP1 RETURN JUMPDEST DUP3 CALLVALUE PUSH2 0x72B JUMPI DUP2 PUSH1 0x3 NOT CALLDATASIZE ADD SLT PUSH2 0x72B JUMPI PUSH1 0x20 SWAP1 PUSH2 0x134 SLOAD SWAP1 MLOAD SWAP1 DUP2 MSTORE RETURN JUMPDEST DUP3 CALLVALUE PUSH2 0x72B JUMPI DUP2 PUSH1 0x3 NOT CALLDATASIZE ADD SLT PUSH2 0x72B JUMPI PUSH1 0x20 SWAP1 PUSH2 0x142 SLOAD SWAP1 MLOAD SWAP1 DUP2 MSTORE RETURN JUMPDEST DUP4 CALLVALUE PUSH2 0x72B JUMPI PUSH1 0x20 CALLDATASIZE PUSH1 0x3 NOT ADD SLT PUSH2 0x72B JUMPI PUSH2 0x14D2 PUSH2 0x3D80 JUMP JUMPDEST CALLDATALOAD PUSH2 0x13B SSTORE DUP1 RETURN JUMPDEST DUP3 CALLVALUE PUSH2 0x72B JUMPI DUP2 PUSH1 0x3 NOT CALLDATASIZE ADD SLT PUSH2 0x72B JUMPI PUSH1 0x20 SWAP1 PUSH2 0x156 SLOAD SWAP1 MLOAD SWAP1 DUP2 MSTORE RETURN JUMPDEST DUP3 CALLVALUE PUSH2 0x72B JUMPI DUP2 PUSH1 0x3 NOT CALLDATASIZE ADD SLT PUSH2 0x72B JUMPI PUSH1 0x20 SWAP1 PUSH2 0x139 SLOAD SWAP1 MLOAD SWAP1 DUP2 MSTORE RETURN JUMPDEST PUSH2 0x6DF DUP4 PUSH2 0x754 PUSH2 0x1529 CALLDATASIZE DUP9 PUSH2 0x2C98 JUMP JUMPDEST SWAP4 SWAP3 PUSH2 0xF56 SWAP3 SWAP2 SWAP3 PUSH2 0x403A JUMP JUMPDEST DUP4 CALLVALUE PUSH2 0x72B JUMPI PUSH1 0x20 CALLDATASIZE PUSH1 0x3 NOT ADD SLT PUSH2 0x72B JUMPI PUSH2 0x1550 PUSH2 0x3D80 JUMP JUMPDEST CALLDATALOAD PUSH2 0x154 SSTORE DUP1 RETURN JUMPDEST DUP4 CALLVALUE PUSH2 0x72B JUMPI PUSH1 0x20 CALLDATASIZE PUSH1 0x3 NOT ADD SLT PUSH2 0x72B JUMPI CALLDATALOAD PUSH1 0x1 PUSH1 0x1 PUSH1 0xA0 SHL SUB DUP2 AND SWAP1 DUP2 SWAP1 SUB PUSH2 0x6E3 JUMPI PUSH2 0x1585 PUSH2 0x3D80 JUMP JUMPDEST PUSH2 0x158 DUP1 SLOAD PUSH1 0x1 PUSH1 0x1 PUSH1 0xA0 SHL SUB NOT AND SWAP1 SWAP2 OR SWAP1 SSTORE DUP1 RETURN JUMPDEST DUP4 CALLVALUE PUSH2 0x72B JUMPI PUSH1 0x20 CALLDATASIZE PUSH1 0x3 NOT ADD SLT PUSH2 0x72B JUMPI PUSH2 0x15B6 PUSH2 0x3D80 JUMP JUMPDEST CALLDATALOAD PUSH2 0x13E SSTORE DUP1 RETURN JUMPDEST DUP3 CALLVALUE PUSH2 0x72B JUMPI DUP2 PUSH1 0x3 NOT CALLDATASIZE ADD SLT PUSH2 0x72B JUMPI PUSH1 0x20 SWAP1 PUSH2 0x154 SLOAD SWAP1 MLOAD SWAP1 DUP2 MSTORE RETURN JUMPDEST DUP3 CALLVALUE PUSH2 0x72B JUMPI DUP2 PUSH1 0x3 NOT CALLDATASIZE ADD SLT PUSH2 0x72B JUMPI PUSH1 0x20 SWAP1 PUSH2 0x149 SLOAD SWAP1 MLOAD SWAP1 DUP2 MSTORE RETURN JUMPDEST DUP4 SWAP2 POP PUSH1 0xE0 CALLDATASIZE PUSH1 0x3 NOT ADD SLT PUSH2 0x7D6 JUMPI POP CALLDATALOAD SWAP1 PUSH1 0x1 PUSH1 0x1 PUSH1 0xA0 SHL SUB DUP1 DUP4 AND DUP4 SUB PUSH2 0x6E3 JUMPI PUSH1 0x24 CALLDATALOAD SWAP1 DUP1 DUP3 AND DUP3 SUB PUSH2 0x6E3 JUMPI PUSH1 0xA4 CALLDATALOAD DUP2 DUP2 AND DUP2 SUB PUSH2 0x6E3 JUMPI PUSH1 0xC4 CALLDATALOAD SWAP2 DUP3 AND DUP3 SUB PUSH2 0x6E3 JUMPI PUSH2 0x6DF SWAP5 PUSH2 0x754 SWAP4 PUSH2 0x1654 PUSH2 0x403A JUMP JUMPDEST POP PUSH1 0x84 CALLDATALOAD SWAP2 PUSH1 0x64 CALLDATALOAD SWAP2 PUSH1 0x44 CALLDATALOAD SWAP2 PUSH2 0x4AD1 JUMP JUMPDEST CALLVALUE PUSH2 0x7D6 JUMPI DUP1 PUSH1 0x3 NOT CALLDATASIZE ADD SLT PUSH2 0x7D6 JUMPI PUSH2 0x167E PUSH2 0x3D80 JUMP JUMPDEST PUSH1 0x1 PUSH1 0xFF NOT PUSH1 0xCA SLOAD AND OR PUSH1 0xCA SSTORE DUP1 RETURN JUMPDEST DUP3 CALLVALUE PUSH2 0x72B JUMPI DUP2 PUSH1 0x3 NOT CALLDATASIZE ADD SLT PUSH2 0x72B JUMPI PUSH1 0x20 SWAP1 PUSH2 0x1163 PUSH2 0x3C29 JUMP JUMPDEST DUP4 CALLVALUE PUSH2 0x72B JUMPI PUSH1 0x20 CALLDATASIZE PUSH1 0x3 NOT ADD SLT PUSH2 0x72B JUMPI PUSH2 0x16C4 PUSH2 0x3D80 JUMP JUMPDEST CALLDATALOAD PUSH2 0x159 SSTORE DUP1 RETURN JUMPDEST DUP3 CALLVALUE PUSH2 0x72B JUMPI DUP2 PUSH1 0x3 NOT CALLDATASIZE ADD SLT PUSH2 0x72B JUMPI PUSH2 0x12F SLOAD SWAP1 MLOAD PUSH1 0x1 PUSH1 0x1 PUSH1 0xA0 SHL SUB SWAP1 SWAP2 AND DUP2 MSTORE PUSH1 0x20 SWAP1 RETURN JUMPDEST DUP3 DUP5 CALLVALUE PUSH2 0x94E JUMPI PUSH2 0x400 CALLDATASIZE PUSH1 0x3 NOT ADD SLT PUSH2 0x94E JUMPI DUP3 SLOAD SWAP1 PUSH1 0xFF DUP3 PUSH1 0x8 SHR AND ISZERO SWAP2 DUP3 DUP1 SWAP4 PUSH2 0x1B56 JUMPI JUMPDEST DUP1 ISZERO PUSH2 0x1B3F JUMPI JUMPDEST ISZERO PUSH2 0x1AE5 JUMPI PUSH1 0xFF NOT DUP2 AND PUSH1 0x1 OR DUP6 SSTORE DUP3 PUSH2 0x1AD4 JUMPI JUMPDEST POP PUSH1 0x1 PUSH1 0x1 PUSH1 0xA0 SHL SUB PUSH2 0x3E4 CALLDATALOAD DUP2 DUP2 AND SWAP3 SWAP1 DUP4 SWAP1 SUB PUSH2 0x6E3 JUMPI PUSH2 0x229 DUP1 SLOAD PUSH1 0x1 PUSH1 0x1 PUSH1 0xA0 SHL SUB NOT SWAP1 DUP2 AND SWAP1 SWAP5 OR SWAP1 SSTORE DUP6 SLOAD PUSH1 0x8 SHR PUSH1 0xFF AND SWAP3 PUSH2 0x177A DUP5 PUSH2 0x3E2F JUMP JUMPDEST PUSH2 0x384 CALLDATALOAD DUP4 DUP2 AND DUP1 SWAP2 SUB PUSH2 0x6E3 JUMPI PUSH2 0x1F6 SWAP1 DUP3 DUP3 SLOAD AND OR SWAP1 SSTORE PUSH2 0x344 CALLDATALOAD DUP4 DUP2 AND DUP1 SWAP2 SUB PUSH2 0x6E3 JUMPI PUSH2 0x364 CALLDATALOAD DUP5 DUP2 AND DUP2 SUB PUSH2 0x6E3 JUMPI PUSH1 0x1 SWAP2 PUSH2 0x17BA DUP8 PUSH2 0x3E2F JUMP JUMPDEST PUSH2 0x17C3 DUP8 PUSH2 0x3E2F JUMP JUMPDEST PUSH2 0x17CC DUP8 PUSH2 0x3E2F JUMP JUMPDEST PUSH2 0x17D5 DUP8 PUSH2 0x3E2F JUMP JUMPDEST DUP4 PUSH1 0x97 SLOAD AND OR PUSH1 0x97 SSTORE PUSH2 0x17E7 DUP7 PUSH2 0x3E2F JUMP JUMPDEST PUSH1 0xCA SLOAD SWAP1 PUSH3 0x10000 DUP4 PUSH1 0xB0 SHL SUB SWAP1 PUSH1 0x10 SHL AND SWAP1 PUSH2 0xFF01 DUP4 PUSH1 0xB0 SHL SUB NOT AND OR OR PUSH1 0xCA SSTORE PUSH2 0x1812 DUP5 PUSH2 0x3E2F JUMP JUMPDEST PUSH1 0xC4 CALLDATALOAD PUSH8 0xDE0B6B3A7640000 DUP2 LT PUSH2 0x1AC4 JUMPI DUP3 DUP5 SWAP2 PUSH2 0x104 CALLDATALOAD PUSH2 0x1834 DUP2 PUSH2 0x59D0 JUMP JUMPDEST PUSH2 0x124 CALLDATALOAD PUSH2 0x1841 DUP2 PUSH2 0x59D0 JUMP JUMPDEST PUSH2 0x144 CALLDATALOAD PUSH2 0x184E DUP2 PUSH2 0x59D0 JUMP JUMPDEST PUSH2 0x164 CALLDATALOAD PUSH2 0x185B DUP2 PUSH2 0x59D0 JUMP JUMPDEST PUSH2 0x184 CALLDATALOAD SWAP1 PUSH2 0x1869 DUP3 PUSH2 0x59D0 JUMP JUMPDEST PUSH2 0x1A4 CALLDATALOAD SWAP3 PUSH2 0x1877 DUP5 PUSH2 0x59D0 JUMP JUMPDEST PUSH2 0x1C4 CALLDATALOAD SWAP5 PUSH2 0x1885 DUP7 PUSH2 0x59D0 JUMP JUMPDEST PUSH2 0x1E4 CALLDATALOAD SWAP7 PUSH2 0x1893 DUP9 PUSH2 0x59D0 JUMP JUMPDEST PUSH2 0x204 CALLDATALOAD SWAP9 PUSH2 0x18A1 DUP11 PUSH2 0x59D0 JUMP JUMPDEST PUSH2 0x244 CALLDATALOAD SWAP12 PUSH2 0x224 CALLDATALOAD SWAP12 PUSH2 0x18B5 DUP15 DUP15 PUSH2 0x31F8 JUMP JUMPDEST PUSH2 0x18BE SWAP1 PUSH2 0x59D0 JUMP JUMPDEST CALLDATALOAD SWAP1 DUP2 AND DUP1 SWAP2 SUB PUSH2 0x6E3 JUMPI DUP16 SWAP1 DUP15 SWAP1 PUSH2 0x14F SWAP2 DUP3 SLOAD AND OR SWAP1 SSTORE PUSH1 0x24 CALLDATALOAD SWAP1 DUP2 AND DUP1 SWAP2 SUB PUSH2 0x6E3 JUMPI DUP16 SWAP1 DUP15 SWAP1 PUSH2 0x12F SWAP2 DUP3 SLOAD AND OR SWAP1 SSTORE PUSH1 0x44 CALLDATALOAD SWAP1 DUP2 AND DUP1 SWAP2 SUB PUSH2 0x6E3 JUMPI DUP16 SWAP1 DUP15 SWAP1 PUSH2 0x130 SWAP2 DUP3 SLOAD AND OR SWAP1 SSTORE PUSH1 0x64 CALLDATALOAD SWAP1 DUP2 AND DUP1 SWAP2 SUB PUSH2 0x6E3 JUMPI DUP16 SWAP1 DUP15 SWAP1 PUSH2 0x133 SWAP2 DUP3 SLOAD AND OR SWAP1 SSTORE PUSH1 0x84 CALLDATALOAD SWAP1 DUP2 AND DUP1 SWAP2 SUB PUSH2 0x6E3 JUMPI DUP16 SWAP1 DUP15 SWAP1 PUSH2 0x146 SWAP2 DUP3 SLOAD AND OR SWAP1 SSTORE PUSH1 0xA4 CALLDATALOAD SWAP1 DUP2 AND DUP1 SWAP2 SUB PUSH2 0x6E3 JUMPI DUP14 SWAP1 PUSH2 0x147 SWAP2 DUP3 SLOAD AND OR SWAP1 SSTORE PUSH2 0x149 SSTORE PUSH1 0xE4 CALLDATALOAD PUSH2 0x14A SSTORE PUSH2 0x13B SSTORE PUSH2 0x13C SSTORE PUSH2 0x13D SSTORE PUSH2 0x13E SSTORE PUSH2 0x13F SSTORE PUSH2 0x140 SSTORE PUSH2 0x141 SSTORE PUSH2 0x142 SSTORE PUSH2 0x143 SSTORE PUSH2 0x139 SSTORE PUSH2 0x13A SSTORE PUSH2 0x264 CALLDATALOAD DUP1 PUSH2 0x14C SSTORE PUSH2 0x284 CALLDATALOAD DUP5 DUP2 AND DUP1 SWAP2 SUB PUSH2 0x6E3 JUMPI PUSH2 0x158 SWAP1 DUP4 DUP3 SLOAD AND OR SWAP1 SSTORE PUSH2 0x2A4 CALLDATALOAD PUSH2 0x159 SSTORE PUSH2 0x2C4 CALLDATALOAD SWAP2 DUP3 PUSH2 0x15A SSTORE PUSH2 0x2E4 CALLDATALOAD DUP6 DUP2 AND DUP1 SWAP2 SUB PUSH2 0x6E3 JUMPI PUSH2 0x152 SWAP1 DUP3 DUP3 SLOAD AND OR SWAP1 SSTORE PUSH2 0x304 CALLDATALOAD DUP6 DUP2 AND DUP1 SWAP2 SUB PUSH2 0x6E3 JUMPI PUSH2 0x153 SWAP2 DUP3 SLOAD AND OR SWAP1 SSTORE PUSH2 0x324 CALLDATALOAD PUSH2 0x154 SSTORE NUMBER PUSH2 0x157 SSTORE NUMBER ADD PUSH2 0x14D SSTORE NUMBER ADD PUSH2 0x15B SSTORE PUSH2 0x14B PUSH2 0xFFFF NOT DUP2 SLOAD AND SWAP1 SSTORE PUSH2 0x3A4 CALLDATALOAD SWAP1 PUSH2 0x1A2B DUP5 PUSH2 0x3E2F JUMP JUMPDEST DUP2 ISZERO PUSH2 0x1AB6 JUMPI POP DUP1 PUSH2 0x190 SSTORE NUMBER ADD PUSH2 0x18F SSTORE PUSH2 0x3C4 CALLDATALOAD SWAP1 DUP2 AND DUP2 SUB PUSH2 0x6E3 JUMPI PUSH2 0x1A56 PUSH2 0x1A78 SWAP3 PUSH2 0x3E2F JUMP JUMPDEST PUSH2 0x1C3 DUP1 SLOAD PUSH1 0x1 PUSH1 0x1 PUSH1 0xA0 SHL SUB NOT AND PUSH1 0x1 PUSH1 0x1 PUSH1 0xA0 SHL SUB SWAP1 SWAP3 AND SWAP2 SWAP1 SWAP2 OR SWAP1 SSTORE JUMP JUMPDEST PUSH2 0x1A80 JUMPI POP DUP1 RETURN JUMPDEST PUSH1 0x20 PUSH32 0x7F26B83FF96E1F2B6A682F133852F6798A09C465DA95921460CEFB3847402498 SWAP2 PUSH2 0xFF00 NOT DUP5 SLOAD AND DUP5 SSTORE MLOAD PUSH1 0x1 DUP2 MSTORE LOG1 DUP1 RETURN JUMPDEST DUP6 MLOAD PUSH4 0x2A9FFAB7 PUSH1 0xE2 SHL DUP2 MSTORE REVERT JUMPDEST DUP7 MLOAD PUSH4 0x2A9FFAB7 PUSH1 0xE2 SHL DUP2 MSTORE DUP4 SWAP1 REVERT JUMPDEST PUSH2 0xFFFF NOT AND PUSH2 0x101 OR DUP5 SSTORE DUP5 PUSH2 0x1739 JUMP JUMPDEST DUP4 MLOAD PUSH3 0x461BCD PUSH1 0xE5 SHL DUP2 MSTORE PUSH1 0x20 DUP2 DUP5 ADD MSTORE PUSH1 0x2E PUSH1 0x24 DUP3 ADD MSTORE PUSH32 0x496E697469616C697A61626C653A20636F6E747261637420697320616C726561 PUSH1 0x44 DUP3 ADD MSTORE PUSH14 0x191E481A5B9A5D1A585B1A5E9959 PUSH1 0x92 SHL PUSH1 0x64 DUP3 ADD MSTORE PUSH1 0x84 SWAP1 REVERT JUMPDEST POP ADDRESS EXTCODESIZE ISZERO DUP1 ISZERO PUSH2 0x1724 JUMPI POP PUSH1 0x1 PUSH1 0xFF DUP3 AND EQ PUSH2 0x1724 JUMP JUMPDEST POP PUSH1 0x1 PUSH1 0xFF DUP3 AND LT PUSH2 0x171D JUMP JUMPDEST DUP3 CALLVALUE PUSH2 0x72B JUMPI DUP2 PUSH1 0x3 NOT CALLDATASIZE ADD SLT PUSH2 0x72B JUMPI PUSH2 0x133 SLOAD SWAP1 MLOAD PUSH1 0x1 PUSH1 0x1 PUSH1 0xA0 SHL SUB SWAP1 SWAP2 AND DUP2 MSTORE PUSH1 0x20 SWAP1 RETURN JUMPDEST PUSH2 0x6DF DUP4 PUSH2 0x754 PUSH2 0x1B9D CALLDATASIZE DUP9 PUSH2 0x2B29 JUMP JUMPDEST SWAP5 PUSH2 0x74E SWAP5 SWAP2 SWAP5 SWAP4 SWAP3 SWAP4 PUSH2 0x403A JUMP JUMPDEST DUP3 CALLVALUE PUSH2 0x72B JUMPI DUP2 PUSH1 0x3 NOT CALLDATASIZE ADD SLT PUSH2 0x72B JUMPI PUSH1 0x20 SWAP1 PUSH2 0x14E SLOAD SWAP1 MLOAD SWAP1 DUP2 MSTORE RETURN JUMPDEST DUP3 CALLVALUE PUSH2 0x72B JUMPI DUP2 PUSH1 0x3 NOT CALLDATASIZE ADD SLT PUSH2 0x72B JUMPI PUSH1 0x20 SWAP1 PUSH1 0xFF PUSH1 0xCA SLOAD PUSH1 0x8 SHR AND SWAP1 MLOAD SWAP1 ISZERO ISZERO DUP2 MSTORE RETURN JUMPDEST DUP3 DUP5 CALLVALUE PUSH2 0x94E JUMPI DUP3 PUSH1 0x3 NOT CALLDATASIZE ADD SLT PUSH2 0x94E JUMPI PUSH2 0x1C0B PUSH2 0x3E0E JUMP JUMPDEST PUSH2 0x14D SWAP1 DUP2 SLOAD NUMBER LT PUSH2 0x1DDD JUMPI POP PUSH2 0x14C SLOAD NUMBER ADD SWAP1 SSTORE PUSH32 0xD3C59BDA47E141A8EC5A33D241B7F71B86E30D359F83A9227D912858B60404FC DUP3 DUP1 LOG1 PUSH2 0x137 SLOAD DUP3 PUSH2 0x1C52 DUP3 PUSH2 0x3413 JUMP JUMPDEST SWAP2 DUP5 JUMPDEST DUP2 DUP2 LT PUSH2 0x1D0E JUMPI POP POP DUP1 PUSH2 0x1CC9 JUMPI JUMPDEST SWAP2 DUP1 MLOAD SWAP3 DUP2 DUP5 ADD SWAP1 DUP5 MSTORE PUSH1 0x20 SWAP2 DUP3 DUP6 ADD MSTORE DUP3 MLOAD DUP1 SWAP2 MSTORE DUP2 PUSH1 0x60 DUP6 ADD SWAP4 ADD SWAP2 DUP6 JUMPDEST DUP3 DUP2 LT PUSH2 0x1CB5 JUMPI DUP7 PUSH32 0xAE5116A8119D08673A0F1DFA7546B95DA4BD54BB17FEDA7C61130AC7859152F6 DUP8 DUP8 SUB DUP9 LOG1 DUP1 RETURN JUMPDEST DUP4 MLOAD DUP6 MSTORE SWAP4 DUP2 ADD SWAP4 SWAP3 DUP2 ADD SWAP3 PUSH1 0x1 ADD PUSH2 0x1C84 JUMP JUMPDEST PUSH2 0x1CE0 PUSH8 0xDE0B6B3A7640000 SWAP2 PUSH2 0x139 SLOAD SWAP1 PUSH2 0x332C JUMP JUMPDEST DIV PUSH2 0x131 PUSH2 0x1CEF DUP3 DUP3 SLOAD PUSH2 0x33EE JUMP JUMPDEST SWAP1 SSTORE PUSH2 0x146 SLOAD PUSH2 0x1D09 SWAP1 DUP3 SWAP1 PUSH1 0x1 PUSH1 0x1 PUSH1 0xA0 SHL SUB AND PUSH2 0x3E8F JUMP JUMPDEST PUSH2 0x1C64 JUMP JUMPDEST PUSH2 0x1D17 DUP2 PUSH2 0x3550 JUMP JUMPDEST PUSH2 0x1D21 DUP2 DUP4 PUSH2 0x397C JUMP JUMPDEST DUP7 PUSH2 0x150 SWAP2 DUP7 PUSH2 0x1D31 DUP6 DUP6 PUSH2 0x2AA9 JUMP JUMPDEST SWAP1 SLOAD SWAP1 PUSH1 0x3 SHL SHR SWAP2 DUP4 DUP4 SGT PUSH2 0x1D4E JUMPI JUMPDEST POP POP POP POP POP PUSH1 0x1 ADD PUSH2 0x1C55 JUMP JUMPDEST SWAP5 PUSH2 0x1D93 DUP4 DUP3 SWAP7 SWAP10 PUSH2 0x1D99 SWAP5 PUSH2 0x1D8D DUP6 PUSH2 0x1D80 PUSH2 0x1D86 PUSH2 0x1DB0 SWAP11 PUSH1 0x1 SWAP15 PUSH8 0xDE0B6B3A7640000 SWAP4 DUP5 SWAP2 PUSH2 0x13A SLOAD PUSH2 0x332C JUMP JUMPDEST DIV PUSH2 0x332C JUMP JUMPDEST DIV SWAP3 PUSH2 0x31E4 JUMP JUMPDEST MSTORE PUSH2 0x31F8 JUMP JUMPDEST SWAP8 PUSH2 0x2AA9 JUMP JUMPDEST DUP2 SWAP4 SWAP2 SLOAD SWAP1 PUSH1 0x3 SHL SWAP2 DUP3 SHL SWAP2 PUSH1 0x0 NOT SWAP1 SHL NOT AND OR SWAP1 JUMP JUMPDEST SWAP1 SSTORE PUSH2 0x1DD3 PUSH2 0x1DBF DUP3 DUP8 PUSH2 0x31E4 JUMP JUMPDEST MLOAD DUP9 DUP5 DUP1 PUSH1 0xA0 SHL SUB PUSH2 0x147 SLOAD AND SWAP2 DUP5 PUSH2 0x38B2 JUMP JUMPDEST SWAP1 DUP7 DUP9 DUP7 DUP2 PUSH2 0x1D41 JUMP JUMPDEST DUP3 MLOAD PUSH4 0x101B6859 PUSH1 0xE0 SHL DUP2 MSTORE REVERT JUMPDEST DUP3 CALLVALUE PUSH2 0x72B JUMPI DUP2 PUSH1 0x3 NOT CALLDATASIZE ADD SLT PUSH2 0x72B JUMPI PUSH1 0x20 SWAP1 PUSH2 0x157 SLOAD SWAP1 MLOAD SWAP1 DUP2 MSTORE RETURN JUMPDEST DUP4 CALLVALUE PUSH2 0x72B JUMPI PUSH1 0x20 CALLDATASIZE PUSH1 0x3 NOT ADD SLT PUSH2 0x72B JUMPI PUSH2 0x1E24 PUSH2 0x3D80 JUMP JUMPDEST CALLDATALOAD PUSH2 0x143 SSTORE DUP1 RETURN JUMPDEST DUP4 CALLVALUE PUSH2 0x72B JUMPI PUSH1 0x20 CALLDATASIZE PUSH1 0x3 NOT ADD SLT PUSH2 0x72B JUMPI CALLDATALOAD PUSH1 0x1 PUSH1 0x1 PUSH1 0xA0 SHL SUB DUP2 AND DUP2 SUB PUSH2 0x6E3 JUMPI PUSH2 0xD06 SWAP1 PUSH2 0x1A56 PUSH2 0x3D80 JUMP JUMPDEST PUSH2 0x6D1 SWAP2 POP PUSH2 0x1E6E PUSH2 0x6DF SWAP5 CALLDATASIZE SWAP1 PUSH2 0x2C6B JUMP JUMPDEST SWAP3 PUSH2 0x11F3 SWAP3 SWAP2 SWAP3 PUSH2 0x403A JUMP JUMPDEST DUP4 SWAP2 POP CALLVALUE PUSH2 0x7D6 JUMPI DUP1 PUSH1 0x3 NOT CALLDATASIZE ADD SLT PUSH2 0x7D6 JUMPI POP PUSH32 0x0 PUSH1 0x1 PUSH1 0x1 PUSH1 0xA0 SHL SUB AND ADDRESS SUB PUSH2 0x1EE7 JUMPI PUSH1 0x20 DUP3 MLOAD PUSH32 0x360894A13BA1A3210667C828492DB98DCA3E2076CC3735A920A3CA505D382BBC DUP2 MSTORE RETURN JUMPDEST PUSH1 0x20 PUSH1 0x84 SWAP3 MLOAD SWAP2 PUSH3 0x461BCD PUSH1 0xE5 SHL DUP4 MSTORE DUP3 ADD MSTORE PUSH1 0x38 PUSH1 0x24 DUP3 ADD MSTORE PUSH32 0x555550535570677261646561626C653A206D757374206E6F742062652063616C PUSH1 0x44 DUP3 ADD MSTORE PUSH32 0x6C6564207468726F7567682064656C656761746563616C6C0000000000000000 PUSH1 0x64 DUP3 ADD MSTORE REVERT JUMPDEST CALLVALUE PUSH2 0x7D6 JUMPI DUP1 PUSH1 0x3 NOT CALLDATASIZE ADD SLT PUSH2 0x7D6 JUMPI PUSH2 0x1F67 PUSH2 0x3D80 JUMP JUMPDEST PUSH1 0xFF NOT PUSH1 0xCA SLOAD AND PUSH1 0xCA SSTORE DUP1 RETURN JUMPDEST DUP3 DUP5 DUP2 PUSH1 0x3 NOT CALLDATASIZE ADD SLT PUSH2 0x94E JUMPI PUSH1 0x1 PUSH1 0x1 PUSH1 0xA0 SHL SUB SWAP2 DUP2 CALLDATALOAD DUP4 DUP2 AND DUP2 SUB PUSH2 0x6E3 JUMPI DUP5 SWAP4 PUSH1 0x24 CALLDATALOAD SWAP4 PUSH8 0xFFFFFFFFFFFFFFFF DUP6 GT PUSH2 0x205C JUMPI CALLDATASIZE PUSH1 0x23 DUP7 ADD SLT ISZERO PUSH2 0x205C JUMPI DUP5 ADD CALLDATALOAD SWAP1 PUSH2 0x1FCE PUSH2 0x1FC5 DUP4 PUSH2 0x2C4F JUMP JUMPDEST SWAP5 MLOAD SWAP5 DUP6 PUSH2 0x2C17 JUMP JUMPDEST DUP2 DUP5 MSTORE CALLDATASIZE PUSH1 0x24 DUP4 DUP8 ADD ADD GT PUSH2 0x205C JUMPI PUSH2 0xD06 SWAP6 PUSH1 0x20 DUP4 PUSH2 0x204F SWAP5 PUSH1 0x24 PUSH1 0x1 SWAP10 ADD DUP4 DUP10 ADD CALLDATACOPY DUP7 ADD ADD MSTORE DUP1 PUSH32 0x0 AND SWAP1 PUSH2 0x2026 DUP3 ADDRESS EQ ISZERO PUSH2 0x2D3C JUMP JUMPDEST PUSH32 0x360894A13BA1A3210667C828492DB98DCA3E2076CC3735A920A3CA505D382BBC SLOAD AND EQ PUSH2 0x2D9D JUMP JUMPDEST PUSH2 0x2057 PUSH2 0x3D80 JUMP JUMPDEST PUSH2 0x2DFE JUMP JUMPDEST DUP6 DUP1 REVERT JUMPDEST DUP3 CALLVALUE PUSH2 0x72B JUMPI DUP2 PUSH1 0x3 NOT CALLDATASIZE ADD SLT PUSH2 0x72B JUMPI PUSH1 0x20 SWAP1 PUSH2 0x13B SLOAD SWAP1 MLOAD SWAP1 DUP2 MSTORE RETURN JUMPDEST DUP3 CALLVALUE PUSH2 0x72B JUMPI DUP2 PUSH1 0x3 NOT CALLDATASIZE ADD SLT PUSH2 0x72B JUMPI PUSH2 0x147 SLOAD SWAP1 MLOAD PUSH1 0x1 PUSH1 0x1 PUSH1 0xA0 SHL SUB SWAP1 SWAP2 AND DUP2 MSTORE PUSH1 0x20 SWAP1 RETURN JUMPDEST DUP3 CALLVALUE PUSH2 0x72B JUMPI DUP2 PUSH1 0x3 NOT CALLDATASIZE ADD SLT PUSH2 0x72B JUMPI PUSH1 0x20 SWAP1 PUSH2 0x14C SLOAD SWAP1 MLOAD SWAP1 DUP2 MSTORE RETURN JUMPDEST DUP3 DUP5 CALLVALUE PUSH2 0x94E JUMPI PUSH1 0x20 CALLDATASIZE PUSH1 0x3 NOT ADD SLT PUSH2 0x94E JUMPI CALLDATALOAD PUSH2 0x137 DUP1 SLOAD DUP3 LT ISZERO PUSH2 0xA47 JUMPI SWAP1 PUSH2 0x20F1 SWAP2 PUSH2 0x2BFB JUMP JUMPDEST POP DUP1 SLOAD PUSH1 0x1 SWAP1 SWAP2 ADD SLOAD DUP3 MLOAD SWAP2 DUP3 MSTORE PUSH1 0x1 PUSH1 0x1 PUSH1 0xA0 SHL SUB AND PUSH1 0x20 DUP3 ADD MSTORE RETURN JUMPDEST DUP3 DUP5 PUSH1 0x60 CALLDATASIZE PUSH1 0x3 NOT ADD SLT PUSH2 0x6E3 JUMPI CALLDATALOAD PUSH1 0x1 PUSH1 0x1 PUSH1 0xA0 SHL SUB DUP2 AND DUP2 SUB PUSH2 0x6E3 JUMPI PUSH2 0x6DF SWAP3 PUSH2 0x6D1 SWAP2 PUSH2 0x213E PUSH2 0x403A JUMP JUMPDEST POP CALLER SWAP1 PUSH1 0x44 CALLDATALOAD SWAP1 PUSH1 0x24 CALLDATALOAD SWAP1 PUSH2 0x468F JUMP JUMPDEST POP POP PUSH1 0x60 CALLDATASIZE PUSH1 0x3 NOT ADD SLT PUSH2 0x6E3 JUMPI PUSH1 0x44 CALLDATALOAD SWAP2 PUSH1 0x1 PUSH1 0x1 PUSH1 0xA0 SHL SUB DUP4 AND DUP4 SUB PUSH2 0x6E3 JUMPI PUSH2 0x6DF SWAP3 PUSH2 0x6D1 SWAP2 PUSH2 0x10EB PUSH2 0x403A JUMP JUMPDEST DUP3 DUP5 PUSH1 0x60 CALLDATASIZE PUSH1 0x3 NOT ADD SLT PUSH2 0x6E3 JUMPI CALLDATALOAD PUSH1 0x1 PUSH1 0x1 PUSH1 0xA0 SHL SUB DUP2 AND DUP2 SUB PUSH2 0x6E3 JUMPI PUSH2 0x6DF SWAP3 PUSH2 0x6D1 SWAP2 PUSH2 0x21AF PUSH2 0x403A JUMP JUMPDEST POP CALLER SWAP1 PUSH1 0x44 CALLDATALOAD SWAP1 PUSH1 0x24 CALLDATALOAD SWAP1 PUSH2 0x5400 JUMP JUMPDEST DUP3 DUP5 PUSH1 0x60 CALLDATASIZE PUSH1 0x3 NOT ADD SLT PUSH2 0x6E3 JUMPI CALLDATALOAD PUSH1 0x1 PUSH1 0x1 PUSH1 0xA0 SHL SUB DUP2 AND DUP2 SUB PUSH2 0x6E3 JUMPI PUSH2 0x6DF SWAP3 PUSH2 0x754 SWAP2 PUSH2 0x21EE PUSH2 0x403A JUMP JUMPDEST POP CALLER SWAP1 PUSH1 0x44 CALLDATALOAD SWAP1 PUSH1 0x24 CALLDATALOAD SWAP1 PUSH2 0x4950 JUMP JUMPDEST DUP3 DUP5 PUSH1 0x60 CALLDATASIZE PUSH1 0x3 NOT ADD SLT PUSH2 0x6E3 JUMPI PUSH1 0x44 CALLDATALOAD SWAP3 PUSH1 0x1 PUSH1 0x1 PUSH1 0xA0 SHL SUB DUP5 AND DUP5 SUB PUSH2 0x6E3 JUMPI PUSH2 0x6DF SWAP4 PUSH2 0x6D1 SWAP3 PUSH2 0x2230 PUSH2 0x403A JUMP JUMPDEST POP PUSH1 0x24 CALLDATALOAD SWAP1 CALLDATALOAD PUSH2 0x4061 JUMP JUMPDEST DUP3 CALLVALUE PUSH2 0x72B JUMPI DUP2 PUSH1 0x3 NOT CALLDATASIZE ADD SLT PUSH2 0x72B JUMPI PUSH1 0x20 SWAP1 PUSH2 0x13E SLOAD SWAP1 MLOAD SWAP1 DUP2 MSTORE RETURN JUMPDEST DUP3 CALLVALUE PUSH2 0x72B JUMPI DUP2 PUSH1 0x3 NOT CALLDATASIZE ADD SLT PUSH2 0x72B JUMPI PUSH1 0x20 SWAP1 PUSH2 0x860 PUSH2 0x228A PUSH2 0x229A PUSH2 0x2294 PUSH2 0x2282 PUSH2 0x3C29 JUMP JUMPDEST SWAP4 SWAP1 SWAP4 PUSH2 0x321B JUMP JUMPDEST DUP2 DUP2 SWAP4 SWAP3 SWAP6 PUSH2 0x3A81 JUMP JUMPDEST SWAP3 PUSH2 0x3A32 JUMP JUMPDEST SWAP1 PUSH2 0x3A66 JUMP JUMPDEST DUP3 DUP5 CALLVALUE PUSH2 0x94E JUMPI DUP3 PUSH1 0x3 NOT CALLDATASIZE ADD SLT PUSH2 0x94E JUMPI PUSH1 0xCA SLOAD SWAP1 PUSH1 0xFF DUP3 PUSH1 0x8 SHR AND ISZERO PUSH2 0x230C JUMPI PUSH1 0x10 DUP3 SWAP1 SHR PUSH1 0x1 PUSH1 0x1 PUSH1 0xA0 SHL SUB AND CALLER SUB PUSH2 0x12C0 JUMPI POP PUSH2 0xFF00 NOT AND PUSH1 0xCA SSTORE MLOAD CALLER DUP2 MSTORE PUSH32 0x5DB9EE0A495BF2E6FF9C91A7834C1BA4FDD244A5E8AA4E537BD38AEAE4B073AA SWAP1 PUSH1 0x20 SWAP1 LOG1 DUP1 RETURN JUMPDEST DUP3 MLOAD PUSH4 0x7C7FD079 PUSH1 0xE0 SHL DUP2 MSTORE REVERT JUMPDEST PUSH2 0x6DF DUP4 PUSH2 0x6D1 PUSH2 0x232B CALLDATASIZE DUP9 PUSH2 0x2BD5 JUMP JUMPDEST SWAP3 PUSH2 0x2337 SWAP3 SWAP2 SWAP3 PUSH2 0x403A JUMP JUMPDEST POP PUSH2 0x5105 JUMP JUMPDEST DUP4 CALLVALUE PUSH2 0x72B JUMPI PUSH1 0x20 CALLDATASIZE PUSH1 0x3 NOT ADD SLT PUSH2 0x72B JUMPI CALLDATALOAD PUSH1 0x1 PUSH1 0x1 PUSH1 0xA0 SHL SUB DUP2 AND SWAP1 DUP2 SWAP1 SUB PUSH2 0x6E3 JUMPI PUSH2 0x236A PUSH2 0x3D80 JUMP JUMPDEST PUSH2 0x14F DUP1 SLOAD PUSH1 0x1 PUSH1 0x1 PUSH1 0xA0 SHL SUB NOT AND SWAP1 SWAP2 OR SWAP1 SSTORE DUP1 RETURN JUMPDEST DUP4 CALLVALUE PUSH2 0x72B JUMPI PUSH1 0x20 CALLDATASIZE PUSH1 0x3 NOT ADD SLT PUSH2 0x72B JUMPI PUSH2 0x239B PUSH2 0x3D80 JUMP JUMPDEST CALLDATALOAD PUSH2 0x190 SSTORE DUP1 RETURN JUMPDEST DUP3 DUP5 CALLVALUE PUSH2 0x94E JUMPI PUSH1 0x20 CALLDATASIZE PUSH1 0x3 NOT ADD SLT PUSH2 0x94E JUMPI CALLDATALOAD SWAP2 PUSH2 0x138 SWAP1 DUP2 SLOAD DUP5 LT ISZERO PUSH2 0x7D6 JUMPI POP PUSH1 0x20 SWAP3 PUSH2 0x13C1 SWAP2 PUSH2 0x2AA9 JUMP JUMPDEST DUP3 DUP5 CALLVALUE PUSH2 0x94E JUMPI PUSH1 0x20 CALLDATASIZE PUSH1 0x3 NOT ADD SLT PUSH2 0x94E JUMPI CALLDATALOAD SWAP1 PUSH1 0x1 PUSH1 0x1 PUSH1 0xA0 SHL SUB SWAP1 DUP2 DUP4 AND DUP4 SUB PUSH2 0x6E3 JUMPI PUSH2 0xD06 SWAP3 PUSH2 0x2432 DUP4 DUP7 SWAP5 PUSH32 0x0 AND SWAP1 PUSH2 0x2026 DUP3 ADDRESS EQ ISZERO PUSH2 0x2D3C JUMP JUMPDEST PUSH2 0x243A PUSH2 0x3D80 JUMP JUMPDEST PUSH2 0x244F PUSH2 0x2446 DUP5 PUSH2 0x2C4F JUMP JUMPDEST SWAP3 MLOAD SWAP3 DUP4 PUSH2 0x2C17 JUMP JUMPDEST DUP3 DUP3 MSTORE PUSH1 0x1F NOT PUSH2 0x245E DUP5 PUSH2 0x2C4F JUMP JUMPDEST ADD CALLDATASIZE PUSH1 0x20 DUP5 ADD CALLDATACOPY PUSH2 0x2DFE JUMP JUMPDEST PUSH2 0x754 SWAP2 POP PUSH2 0x247D PUSH2 0x6DF SWAP5 CALLDATASIZE SWAP1 PUSH2 0x2BAC JUMP JUMPDEST SWAP2 PUSH2 0xF13 PUSH2 0x403A JUMP JUMPDEST DUP4 DUP2 DUP5 CALLVALUE PUSH2 0x72B JUMPI DUP2 PUSH1 0x3 NOT CALLDATASIZE ADD SLT PUSH2 0x72B JUMPI PUSH2 0x24A1 PUSH2 0x3E0E JUMP JUMPDEST PUSH2 0x14B DUP1 SLOAD PUSH1 0xFF DUP2 AND DUP1 PUSH2 0x256B JUMPI JUMPDEST DUP1 PUSH2 0x2551 JUMPI JUMPDEST PUSH2 0x24BE JUMPI DUP4 DUP1 RETURN JUMPDEST PUSH2 0xFF00 NOT AND PUSH2 0x100 OR SWAP1 SSTORE DUP1 MLOAD SWAP3 PUSH32 0x8B77276C97A5709F0D6DB52329848A254EB760CE8BE80D281799F633BDB69E83 DUP4 DUP1 LOG1 PUSH2 0x133 SLOAD PUSH1 0x1 PUSH1 0x1 PUSH1 0xA0 SHL SUB AND DUP1 EXTCODESIZE ISZERO PUSH2 0xA47 JUMPI DUP4 SWAP2 DUP6 DUP4 DUP2 SWAP4 PUSH4 0x8456CB59 PUSH1 0xE0 SHL DUP4 MSTORE GAS CALL SWAP1 DUP2 ISZERO PUSH2 0x2546 JUMPI POP PUSH2 0x2536 JUMPI JUMPDEST POP POP PUSH2 0x252D PUSH2 0x3445 JUMP JUMPDEST DUP2 DUP2 DUP2 DUP1 DUP1 DUP4 DUP1 RETURN JUMPDEST PUSH2 0x253F SWAP2 PUSH2 0x2C17 JUMP JUMPDEST DUP2 DUP2 PUSH2 0x2523 JUMP JUMPDEST MLOAD SWAP2 RETURNDATASIZE SWAP2 POP DUP3 RETURNDATACOPY RETURNDATASIZE SWAP1 REVERT JUMPDEST POP PUSH2 0x2560 PUSH2 0x10BB PUSH2 0xBA2 PUSH2 0x3630 JUMP JUMPDEST PUSH2 0x14A SLOAD LT ISZERO PUSH2 0x24B6 JUMP JUMPDEST POP PUSH1 0xFF DUP2 PUSH1 0x8 SHR AND ISZERO PUSH2 0x24B0 JUMP JUMPDEST DUP3 CALLVALUE PUSH2 0x72B JUMPI DUP2 PUSH1 0x3 NOT CALLDATASIZE ADD SLT PUSH2 0x72B JUMPI PUSH1 0x20 SWAP1 PUSH2 0x13F SLOAD SWAP1 MLOAD SWAP1 DUP2 MSTORE RETURN JUMPDEST DUP3 CALLVALUE PUSH2 0x72B JUMPI DUP2 PUSH1 0x3 NOT CALLDATASIZE ADD SLT PUSH2 0x72B JUMPI PUSH1 0x20 SWAP1 PUSH2 0x143 SLOAD SWAP1 MLOAD SWAP1 DUP2 MSTORE RETURN JUMPDEST DUP4 CALLVALUE PUSH2 0x72B JUMPI PUSH1 0x20 CALLDATASIZE PUSH1 0x3 NOT ADD SLT PUSH2 0x72B JUMPI CALLDATALOAD PUSH1 0x1 PUSH1 0x1 PUSH1 0xA0 SHL SUB DUP2 AND DUP2 SUB PUSH2 0x72B JUMPI PUSH2 0x25E2 PUSH2 0x3D80 JUMP JUMPDEST PUSH1 0xCA DUP1 SLOAD PUSH3 0x10000 PUSH1 0x1 PUSH1 0xB0 SHL SUB NOT AND PUSH1 0x10 SWAP3 SWAP1 SWAP3 SHL PUSH3 0x10000 PUSH1 0x1 PUSH1 0xB0 SHL SUB AND SWAP2 SWAP1 SWAP2 OR SWAP1 SSTORE DUP1 RETURN JUMPDEST DUP4 CALLVALUE PUSH2 0x72B JUMPI PUSH1 0x20 CALLDATASIZE PUSH1 0x3 NOT ADD SLT PUSH2 0x72B JUMPI PUSH2 0x2626 PUSH2 0x3D80 JUMP JUMPDEST CALLDATALOAD PUSH2 0x14A SSTORE DUP1 RETURN JUMPDEST PUSH2 0x6DF DUP4 PUSH2 0x754 PUSH2 0x263F CALLDATASIZE DUP9 PUSH2 0x2B29 JUMP JUMPDEST SWAP5 PUSH2 0x12ED SWAP5 SWAP2 SWAP5 SWAP4 SWAP3 SWAP4 PUSH2 0x403A JUMP JUMPDEST DUP3 CALLVALUE PUSH2 0x72B JUMPI DUP2 PUSH1 0x3 NOT CALLDATASIZE ADD SLT PUSH2 0x72B JUMPI PUSH1 0x20 SWAP1 PUSH2 0x140 SLOAD SWAP1 MLOAD SWAP1 DUP2 MSTORE RETURN JUMPDEST DUP4 CALLVALUE PUSH2 0x72B JUMPI PUSH1 0x20 CALLDATASIZE PUSH1 0x3 NOT ADD SLT PUSH2 0x72B JUMPI CALLDATALOAD PUSH1 0x1 PUSH1 0x1 PUSH1 0xA0 SHL SUB DUP2 AND SWAP1 DUP2 SWAP1 SUB PUSH2 0x72B JUMPI PUSH2 0x269A PUSH2 0x3D80 JUMP JUMPDEST PUSH2 0x147 DUP1 SLOAD PUSH1 0x1 PUSH1 0x1 PUSH1 0xA0 SHL SUB NOT AND SWAP1 SWAP2 OR SWAP1 SSTORE DUP1 RETURN JUMPDEST DUP3 CALLVALUE PUSH2 0x72B JUMPI DUP2 PUSH1 0x3 NOT CALLDATASIZE ADD SLT PUSH2 0x72B JUMPI PUSH2 0x229 SLOAD SWAP1 MLOAD PUSH1 0x1 PUSH1 0x1 PUSH1 0xA0 SHL SUB SWAP1 SWAP2 AND DUP2 MSTORE PUSH1 0x20 SWAP1 RETURN JUMPDEST DUP3 DUP5 CALLVALUE PUSH2 0x94E JUMPI PUSH1 0x20 CALLDATASIZE PUSH1 0x3 NOT ADD SLT PUSH2 0x94E JUMPI CALLDATALOAD PUSH1 0x1 PUSH1 0x1 PUSH1 0xA0 SHL SUB DUP2 AND SWAP1 DUP2 SWAP1 SUB PUSH2 0x94E JUMPI DUP3 DUP3 SWAP2 PUSH1 0x20 SWAP5 MSTORE PUSH2 0x144 DUP5 MSTORE KECCAK256 SLOAD SWAP1 MLOAD SWAP1 DUP2 MSTORE RETURN JUMPDEST DUP3 CALLVALUE PUSH2 0x72B JUMPI DUP2 PUSH1 0x3 NOT CALLDATASIZE ADD SLT PUSH2 0x72B JUMPI PUSH1 0x20 SWAP1 PUSH1 0xFF PUSH2 0x14B SLOAD PUSH1 0x8 SHR AND SWAP1 MLOAD SWAP1 ISZERO ISZERO DUP2 MSTORE RETURN JUMPDEST DUP4 CALLVALUE PUSH2 0x72B JUMPI PUSH1 0x20 CALLDATASIZE PUSH1 0x3 NOT ADD SLT PUSH2 0x72B JUMPI PUSH2 0x2756 PUSH2 0x3D80 JUMP JUMPDEST CALLDATALOAD PUSH2 0x142 SSTORE DUP1 RETURN JUMPDEST DUP4 CALLVALUE PUSH2 0x72B JUMPI PUSH1 0x20 CALLDATASIZE PUSH1 0x3 NOT ADD SLT PUSH2 0x72B JUMPI CALLDATALOAD DUP1 ISZERO ISZERO DUP1 SWAP2 SUB PUSH2 0x72B JUMPI PUSH2 0x2783 PUSH2 0x3D80 JUMP JUMPDEST PUSH2 0x14B SWAP1 PUSH1 0xFF DUP1 NOT DUP4 SLOAD AND SWAP2 AND OR SWAP1 SSTORE DUP1 RETURN JUMPDEST DUP3 CALLVALUE PUSH2 0x72B JUMPI DUP2 PUSH1 0x3 NOT CALLDATASIZE ADD SLT PUSH2 0x72B JUMPI PUSH1 0x20 SWAP1 PUSH2 0x860 PUSH2 0x27B8 PUSH2 0xBA2 PUSH2 0x3630 JUMP JUMPDEST SWAP1 PUSH2 0x3A32 JUMP JUMPDEST DUP3 CALLVALUE PUSH2 0x72B JUMPI DUP2 PUSH1 0x3 NOT CALLDATASIZE ADD SLT PUSH2 0x72B JUMPI PUSH1 0x20 SWAP1 PUSH2 0x14D SLOAD SWAP1 MLOAD SWAP1 DUP2 MSTORE RETURN JUMPDEST DUP3 DUP5 CALLVALUE PUSH2 0x94E JUMPI PUSH1 0x20 CALLDATASIZE PUSH1 0x3 NOT ADD SLT PUSH2 0x94E JUMPI CALLDATALOAD SWAP2 PUSH1 0x1 PUSH1 0x1 PUSH1 0xA0 SHL SUB DUP4 AND DUP4 SUB PUSH2 0x7D6 JUMPI POP PUSH2 0x860 PUSH1 0x20 SWAP3 CALLER SWAP1 CALLER SWAP1 PUSH2 0x380E JUMP JUMPDEST PUSH2 0x6DF DUP4 PUSH2 0x754 PUSH2 0x2823 CALLDATASIZE DUP9 PUSH2 0x2B29 JUMP JUMPDEST SWAP5 PUSH2 0x9C3 SWAP5 SWAP2 SWAP5 SWAP4 SWAP3 SWAP4 PUSH2 0x403A JUMP JUMPDEST DUP3 CALLVALUE PUSH2 0x72B JUMPI DUP2 PUSH1 0x3 NOT CALLDATASIZE ADD SLT PUSH2 0x72B JUMPI PUSH2 0x14F SLOAD SWAP1 MLOAD PUSH1 0x1 PUSH1 0x1 PUSH1 0xA0 SHL SUB SWAP1 SWAP2 AND DUP2 MSTORE PUSH1 0x20 SWAP1 RETURN JUMPDEST DUP4 CALLVALUE PUSH2 0x72B JUMPI PUSH1 0x20 CALLDATASIZE PUSH1 0x3 NOT ADD SLT PUSH2 0x72B JUMPI CALLDATALOAD PUSH1 0x1 PUSH1 0x1 PUSH1 0xA0 SHL SUB DUP2 AND SWAP1 DUP2 SWAP1 SUB PUSH2 0x72B JUMPI PUSH2 0x2888 PUSH2 0x3D80 JUMP JUMPDEST PUSH2 0x130 DUP1 SLOAD PUSH1 0x1 PUSH1 0x1 PUSH1 0xA0 SHL SUB NOT AND SWAP1 SWAP2 OR SWAP1 SSTORE DUP1 RETURN JUMPDEST DUP4 CALLVALUE PUSH2 0x72B JUMPI PUSH1 0x20 CALLDATASIZE PUSH1 0x3 NOT ADD SLT PUSH2 0x72B JUMPI PUSH2 0x28B9 PUSH2 0x3D80 JUMP JUMPDEST CALLDATALOAD PUSH2 0x13F SSTORE DUP1 RETURN JUMPDEST DUP3 CALLVALUE PUSH2 0x72B JUMPI DUP2 PUSH1 0x3 NOT CALLDATASIZE ADD SLT PUSH2 0x72B JUMPI PUSH1 0x20 SWAP1 PUSH2 0x159 SLOAD SWAP1 MLOAD SWAP1 DUP2 MSTORE RETURN JUMPDEST DUP4 CALLVALUE PUSH2 0x72B JUMPI PUSH1 0x20 CALLDATASIZE PUSH1 0x3 NOT ADD SLT PUSH2 0x72B JUMPI CALLDATALOAD PUSH1 0x1 PUSH1 0x1 PUSH1 0xA0 SHL SUB DUP2 AND SWAP1 DUP2 SWAP1 SUB PUSH2 0x72B JUMPI PUSH2 0x290D PUSH2 0x3D80 JUMP JUMPDEST PUSH2 0x146 DUP1 SLOAD PUSH1 0x1 PUSH1 0x1 PUSH1 0xA0 SHL SUB NOT AND SWAP1 SWAP2 OR SWAP1 SSTORE DUP1 RETURN JUMPDEST DUP3 CALLVALUE PUSH2 0x72B JUMPI DUP2 PUSH1 0x3 NOT CALLDATASIZE ADD SLT PUSH2 0x72B JUMPI PUSH1 0x20 SWAP1 PUSH2 0x18F SLOAD SWAP1 MLOAD SWAP1 DUP2 MSTORE RETURN JUMPDEST DUP3 CALLVALUE PUSH2 0x72B JUMPI DUP2 PUSH1 0x3 NOT CALLDATASIZE ADD SLT PUSH2 0x72B JUMPI PUSH1 0x97 SLOAD SWAP1 MLOAD PUSH1 0x1 PUSH1 0x1 PUSH1 0xA0 SHL SUB SWAP1 SWAP2 AND DUP2 MSTORE PUSH1 0x20 SWAP1 RETURN JUMPDEST DUP3 DUP5 DUP2 PUSH1 0x3 NOT CALLDATASIZE ADD SLT PUSH2 0x94E JUMPI PUSH2 0x6DF SWAP3 PUSH2 0x6D1 SWAP2 PUSH2 0x6C4 PUSH2 0x403A JUMP JUMPDEST DUP4 CALLVALUE PUSH2 0x72B JUMPI PUSH1 0x20 CALLDATASIZE PUSH1 0x3 NOT ADD SLT PUSH2 0x72B JUMPI PUSH2 0x29A2 PUSH2 0x3D80 JUMP JUMPDEST CALLDATALOAD PUSH2 0x15A SSTORE DUP1 RETURN JUMPDEST DUP3 DUP5 CALLVALUE PUSH2 0x94E JUMPI DUP3 PUSH1 0x3 NOT CALLDATASIZE ADD SLT PUSH2 0x94E JUMPI PUSH2 0x29C4 PUSH2 0x3E0E JUMP JUMPDEST PUSH2 0x15B SWAP1 DUP2 SLOAD NUMBER LT PUSH2 0x2A34 JUMPI POP SWAP1 PUSH2 0xD06 SWAP2 PUSH2 0x15A SLOAD NUMBER ADD SWAP1 SSTORE PUSH32 0xE37FDA283839477A1B77E29ACF8336C0E13A5DAA967913DF0FE5AD258C0822F PUSH1 0x20 PUSH8 0xDE0B6B3A7640000 PUSH2 0x2A1B PUSH2 0x131 SLOAD PUSH2 0x159 SLOAD SWAP1 PUSH2 0x332C JUMP JUMPDEST DIV SWAP3 MLOAD DUP4 DUP2 MSTORE LOG1 PUSH2 0x158 SLOAD PUSH1 0x1 PUSH1 0x1 PUSH1 0xA0 SHL SUB AND PUSH2 0x3E8F JUMP JUMPDEST DUP3 MLOAD PUSH4 0xACCE20E5 PUSH1 0xE0 SHL DUP2 MSTORE REVERT JUMPDEST DUP3 DUP5 CALLVALUE PUSH2 0x94E JUMPI PUSH1 0x20 CALLDATASIZE PUSH1 0x3 NOT ADD SLT PUSH2 0x94E JUMPI CALLDATALOAD SWAP2 PUSH2 0x135 SWAP1 DUP2 SLOAD DUP5 LT ISZERO PUSH2 0x7D6 JUMPI POP PUSH1 0x20 SWAP3 PUSH2 0x2A71 SWAP2 PUSH2 0x2AA9 JUMP JUMPDEST SWAP1 SLOAD SWAP2 MLOAD SWAP2 PUSH1 0x1 DUP1 PUSH1 0xA0 SHL SUB SWAP2 PUSH1 0x3 SHL SHR AND DUP2 MSTORE RETURN JUMPDEST DUP4 CALLVALUE PUSH2 0x72B JUMPI PUSH1 0x20 CALLDATASIZE PUSH1 0x3 NOT ADD SLT PUSH2 0x72B JUMPI PUSH2 0x2AA1 PUSH2 0x3D80 JUMP JUMPDEST CALLDATALOAD PUSH2 0x13A SSTORE DUP1 RETURN JUMPDEST DUP1 SLOAD DUP3 LT ISZERO PUSH2 0x2AC1 JUMPI PUSH1 0x0 MSTORE PUSH1 0x20 PUSH1 0x0 KECCAK256 ADD SWAP1 PUSH1 0x0 SWAP1 JUMP JUMPDEST PUSH4 0x4E487B71 PUSH1 0xE0 SHL PUSH1 0x0 MSTORE PUSH1 0x32 PUSH1 0x4 MSTORE PUSH1 0x24 PUSH1 0x0 REVERT JUMPDEST PUSH1 0x40 SWAP1 PUSH2 0x2B13 SWAP4 SWAP6 SWAP5 SWAP3 SWAP6 PUSH1 0xC0 DUP3 ADD SWAP7 DUP3 MSTORE PUSH1 0x20 DUP3 ADD MSTORE ADD SWAP1 PUSH1 0x60 DUP1 SWAP2 DUP1 MLOAD DUP5 MSTORE PUSH1 0x20 DUP2 ADD MLOAD PUSH1 0x20 DUP6 ADD MSTORE PUSH1 0x40 DUP2 ADD MLOAD PUSH1 0x40 DUP6 ADD MSTORE ADD MLOAD SWAP2 ADD MSTORE JUMP JUMPDEST JUMP JUMPDEST CALLDATALOAD SWAP1 PUSH1 0x1 PUSH1 0x1 PUSH1 0xA0 SHL SUB DUP3 AND DUP3 SUB PUSH2 0x6E3 JUMPI JUMP JUMPDEST SWAP2 SWAP1 DUP3 PUSH1 0xC0 SWAP2 SUB SLT PUSH2 0x6E3 JUMPI PUSH2 0x2B3E DUP3 PUSH2 0x2B15 JUMP JUMPDEST SWAP2 PUSH1 0x20 DUP2 ADD CALLDATALOAD SWAP2 PUSH1 0x40 DUP3 ADD CALLDATALOAD SWAP2 PUSH1 0x60 DUP2 ADD CALLDATALOAD SWAP2 PUSH2 0x2B69 PUSH1 0xA0 PUSH2 0x2B62 PUSH1 0x80 DUP6 ADD PUSH2 0x2B15 JUMP JUMPDEST SWAP4 ADD PUSH2 0x2B15 JUMP JUMPDEST SWAP1 JUMP JUMPDEST PUSH2 0x2B13 SWAP4 PUSH1 0x60 SWAP3 SWAP7 SWAP6 SWAP4 PUSH1 0xE0 DUP4 ADD SWAP8 DUP4 MSTORE PUSH1 0x20 DUP4 ADD MSTORE PUSH1 0x40 DUP3 ADD MSTORE ADD SWAP1 PUSH1 0x60 DUP1 SWAP2 DUP1 MLOAD DUP5 MSTORE PUSH1 0x20 DUP2 ADD MLOAD PUSH1 0x20 DUP6 ADD MSTORE PUSH1 0x40 DUP2 ADD MLOAD PUSH1 0x40 DUP6 ADD MSTORE ADD MLOAD SWAP2 ADD MSTORE JUMP JUMPDEST SWAP2 SWAP1 DUP3 PUSH1 0x80 SWAP2 SUB SLT PUSH2 0x6E3 JUMPI PUSH2 0x2BC1 DUP3 PUSH2 0x2B15 JUMP JUMPDEST SWAP2 PUSH1 0x20 DUP2 ADD CALLDATALOAD SWAP2 PUSH1 0x60 PUSH1 0x40 DUP4 ADD CALLDATALOAD SWAP3 ADD CALLDATALOAD SWAP1 JUMP JUMPDEST SWAP2 SWAP1 DUP3 PUSH1 0x80 SWAP2 SUB SLT PUSH2 0x6E3 JUMPI DUP2 CALLDATALOAD SWAP2 PUSH1 0x20 DUP2 ADD CALLDATALOAD SWAP2 PUSH2 0x2B69 PUSH1 0x60 PUSH2 0x2B62 PUSH1 0x40 DUP6 ADD PUSH2 0x2B15 JUMP JUMPDEST DUP1 SLOAD DUP3 LT ISZERO PUSH2 0x2AC1 JUMPI PUSH1 0x0 MSTORE PUSH1 0x20 PUSH1 0x0 KECCAK256 SWAP1 PUSH1 0x1 SHL ADD SWAP1 PUSH1 0x0 SWAP1 JUMP JUMPDEST SWAP1 PUSH1 0x1F DUP1 NOT SWAP2 ADD AND DUP2 ADD SWAP1 DUP2 LT PUSH8 0xFFFFFFFFFFFFFFFF DUP3 GT OR PUSH2 0x2C39 JUMPI PUSH1 0x40 MSTORE JUMP JUMPDEST PUSH4 0x4E487B71 PUSH1 0xE0 SHL PUSH1 0x0 MSTORE PUSH1 0x41 PUSH1 0x4 MSTORE PUSH1 0x24 PUSH1 0x0 REVERT JUMPDEST PUSH8 0xFFFFFFFFFFFFFFFF DUP2 GT PUSH2 0x2C39 JUMPI PUSH1 0x1F ADD PUSH1 0x1F NOT AND PUSH1 0x20 ADD SWAP1 JUMP JUMPDEST SWAP2 SWAP1 DUP3 PUSH1 0x80 SWAP2 SUB SLT PUSH2 0x6E3 JUMPI PUSH2 0x2C80 DUP3 PUSH2 0x2B15 JUMP JUMPDEST SWAP2 PUSH1 0x20 DUP2 ADD CALLDATALOAD SWAP2 PUSH2 0x2B69 PUSH1 0x60 PUSH1 0x40 DUP5 ADD CALLDATALOAD SWAP4 ADD PUSH2 0x2B15 JUMP JUMPDEST SWAP1 DUP2 PUSH1 0xA0 SWAP2 SUB SLT PUSH2 0x6E3 JUMPI PUSH2 0x2CAC DUP2 PUSH2 0x2B15 JUMP JUMPDEST SWAP2 PUSH1 0x20 DUP3 ADD CALLDATALOAD SWAP2 PUSH1 0x40 DUP2 ADD CALLDATALOAD SWAP2 PUSH2 0x2B69 PUSH1 0x80 PUSH1 0x60 DUP5 ADD CALLDATALOAD SWAP4 ADD PUSH2 0x2B15 JUMP JUMPDEST SWAP2 SWAP1 DUP3 PUSH1 0xC0 SWAP2 SUB SLT PUSH2 0x6E3 JUMPI PUSH2 0x2CDF DUP3 PUSH2 0x2B15 JUMP JUMPDEST SWAP2 PUSH2 0x2CEC PUSH1 0x20 DUP3 ADD PUSH2 0x2B15 JUMP JUMPDEST SWAP2 PUSH1 0x40 DUP3 ADD CALLDATALOAD SWAP2 PUSH1 0x60 DUP2 ADD CALLDATALOAD SWAP2 PUSH2 0x2B69 PUSH1 0xA0 PUSH1 0x80 DUP5 ADD CALLDATALOAD SWAP4 ADD PUSH2 0x2B15 JUMP JUMPDEST SWAP1 DUP2 PUSH1 0xA0 SWAP2 SUB SLT PUSH2 0x6E3 JUMPI PUSH2 0x2D1E DUP2 PUSH2 0x2B15 JUMP JUMPDEST SWAP2 PUSH1 0x20 DUP3 ADD CALLDATALOAD SWAP2 PUSH1 0x40 DUP2 ADD CALLDATALOAD SWAP2 PUSH2 0x2B69 PUSH1 0x80 PUSH2 0x2B62 PUSH1 0x60 DUP6 ADD PUSH2 0x2B15 JUMP JUMPDEST ISZERO PUSH2 0x2D43 JUMPI JUMP JUMPDEST PUSH1 0x40 MLOAD PUSH3 0x461BCD PUSH1 0xE5 SHL DUP2 MSTORE PUSH1 0x20 PUSH1 0x4 DUP3 ADD MSTORE PUSH1 0x2C PUSH1 0x24 DUP3 ADD MSTORE PUSH32 0x46756E6374696F6E206D7573742062652063616C6C6564207468726F75676820 PUSH1 0x44 DUP3 ADD MSTORE PUSH12 0x19195B1959D85D1958D85B1B PUSH1 0xA2 SHL PUSH1 0x64 DUP3 ADD MSTORE PUSH1 0x84 SWAP1 REVERT JUMPDEST ISZERO PUSH2 0x2DA4 JUMPI JUMP JUMPDEST PUSH1 0x40 MLOAD PUSH3 0x461BCD PUSH1 0xE5 SHL DUP2 MSTORE PUSH1 0x20 PUSH1 0x4 DUP3 ADD MSTORE PUSH1 0x2C PUSH1 0x24 DUP3 ADD MSTORE PUSH32 0x46756E6374696F6E206D7573742062652063616C6C6564207468726F75676820 PUSH1 0x44 DUP3 ADD MSTORE PUSH12 0x6163746976652070726F7879 PUSH1 0xA0 SHL PUSH1 0x64 DUP3 ADD MSTORE PUSH1 0x84 SWAP1 REVERT JUMPDEST SWAP1 PUSH1 0xFF PUSH32 0x4910FDFA16FED3260ED0E7147F7CC6DA11A60208B5B9406D12A635614FFD9143 SLOAD AND PUSH1 0x0 EQ PUSH2 0x2E36 JUMPI POP PUSH2 0x2B13 SWAP2 POP PUSH2 0x2FEA JUMP JUMPDEST PUSH1 0x40 MLOAD PUSH4 0x52D1902D PUSH1 0xE0 SHL DUP2 MSTORE PUSH1 0x20 SWAP4 SWAP2 SWAP3 SWAP2 SWAP1 PUSH1 0x1 PUSH1 0x1 PUSH1 0xA0 SHL SUB DUP4 AND SWAP1 DUP6 DUP2 PUSH1 0x4 DUP2 DUP6 GAS STATICCALL PUSH1 0x0 SWAP2 DUP2 PUSH2 0x2FBB JUMPI JUMPDEST POP PUSH2 0x2EC7 JUMPI PUSH1 0x40 MLOAD PUSH3 0x461BCD PUSH1 0xE5 SHL DUP2 MSTORE PUSH1 0x4 DUP2 ADD DUP8 SWAP1 MSTORE PUSH1 0x2E PUSH1 0x24 DUP3 ADD MSTORE PUSH32 0x45524331393637557067726164653A206E657720696D706C656D656E74617469 PUSH1 0x44 DUP3 ADD MSTORE PUSH14 0x6F6E206973206E6F742055555053 PUSH1 0x90 SHL PUSH1 0x64 DUP3 ADD MSTORE PUSH1 0x84 SWAP1 REVERT JUMPDEST SWAP4 SWAP5 SWAP4 PUSH32 0xC9F76B5EC45E5CDEF99837D7B6D2467235C1DF8933C8CA56DF5C35AFA2C7D444 ADD PUSH2 0x2F64 JUMPI PUSH2 0x2EF9 DUP4 PUSH2 0x2FEA JUMP JUMPDEST PUSH32 0xBC7CD75A20EE27FD9ADEBAB32041F755214DBC6BFFA90CC0225B39DA2E5C2D3B PUSH1 0x0 DUP1 LOG2 DUP4 MLOAD ISZERO SWAP1 DUP2 ISZERO SWAP2 PUSH2 0x2F5C JUMPI JUMPDEST POP PUSH2 0x2F34 JUMPI POP POP POP JUMP JUMPDEST PUSH1 0x0 DUP1 PUSH2 0x2F59 SWAP5 PUSH2 0x2F43 PUSH2 0x308C JUMP JUMPDEST SWAP5 DUP2 MLOAD SWAP2 ADD DUP5 GAS DELEGATECALL PUSH2 0x2F53 PUSH2 0x30E0 JUMP JUMPDEST SWAP2 PUSH2 0x3110 JUMP JUMPDEST POP JUMP JUMPDEST SWAP1 POP CODESIZE PUSH2 0x2F2A JUMP JUMPDEST PUSH1 0x40 MLOAD PUSH3 0x461BCD PUSH1 0xE5 SHL DUP2 MSTORE PUSH1 0x4 DUP2 ADD DUP6 SWAP1 MSTORE PUSH1 0x29 PUSH1 0x24 DUP3 ADD MSTORE PUSH32 0x45524331393637557067726164653A20756E737570706F727465642070726F78 PUSH1 0x44 DUP3 ADD MSTORE PUSH9 0x1A58589B1955555251 PUSH1 0xBA SHL PUSH1 0x64 DUP3 ADD MSTORE PUSH1 0x84 SWAP1 REVERT JUMPDEST SWAP1 SWAP2 DUP8 DUP3 DUP2 RETURNDATASIZE DUP4 GT PUSH2 0x2FE3 JUMPI JUMPDEST PUSH2 0x2FD2 DUP2 DUP4 PUSH2 0x2C17 JUMP JUMPDEST DUP2 ADD SUB SLT PUSH2 0x7D6 JUMPI POP MLOAD SWAP1 CODESIZE PUSH2 0x2E66 JUMP JUMPDEST POP RETURNDATASIZE PUSH2 0x2FC8 JUMP JUMPDEST DUP1 EXTCODESIZE ISZERO PUSH2 0x3031 JUMPI PUSH32 0x360894A13BA1A3210667C828492DB98DCA3E2076CC3735A920A3CA505D382BBC DUP1 SLOAD PUSH1 0x1 PUSH1 0x1 PUSH1 0xA0 SHL SUB NOT AND PUSH1 0x1 PUSH1 0x1 PUSH1 0xA0 SHL SUB SWAP1 SWAP3 AND SWAP2 SWAP1 SWAP2 OR SWAP1 SSTORE JUMP JUMPDEST PUSH1 0x40 MLOAD PUSH3 0x461BCD PUSH1 0xE5 SHL DUP2 MSTORE PUSH1 0x20 PUSH1 0x4 DUP3 ADD MSTORE PUSH1 0x2D PUSH1 0x24 DUP3 ADD MSTORE PUSH32 0x455243313936373A206E657720696D706C656D656E746174696F6E206973206E PUSH1 0x44 DUP3 ADD MSTORE PUSH13 0x1BDD08184818DBDB9D1C9858DD PUSH1 0x9A SHL PUSH1 0x64 DUP3 ADD MSTORE PUSH1 0x84 SWAP1 REVERT JUMPDEST PUSH2 0x3096 PUSH1 0x27 PUSH2 0x2C4F JUMP JUMPDEST SWAP1 PUSH2 0x30A4 PUSH1 0x40 MLOAD SWAP3 DUP4 PUSH2 0x2C17 JUMP JUMPDEST PUSH1 0x27 DUP3 MSTORE PUSH7 0x819985A5B1959 PUSH1 0xCA SHL PUSH1 0x40 DUP4 PUSH32 0x416464726573733A206C6F772D6C6576656C2064656C65676174652063616C6C PUSH1 0x20 DUP3 ADD MSTORE ADD MSTORE JUMP JUMPDEST RETURNDATASIZE ISZERO PUSH2 0x310B JUMPI RETURNDATASIZE SWAP1 PUSH2 0x30F1 DUP3 PUSH2 0x2C4F JUMP JUMPDEST SWAP2 PUSH2 0x30FF PUSH1 0x40 MLOAD SWAP4 DUP5 PUSH2 0x2C17 JUMP JUMPDEST DUP3 MSTORE RETURNDATASIZE PUSH1 0x0 PUSH1 0x20 DUP5 ADD RETURNDATACOPY JUMP JUMPDEST PUSH1 0x60 SWAP1 JUMP JUMPDEST SWAP2 SWAP3 SWAP1 ISZERO PUSH2 0x3172 JUMPI POP DUP2 MLOAD ISZERO PUSH2 0x3124 JUMPI POP SWAP1 JUMP JUMPDEST EXTCODESIZE ISZERO PUSH2 0x312D JUMPI SWAP1 JUMP JUMPDEST PUSH1 0x40 MLOAD PUSH3 0x461BCD PUSH1 0xE5 SHL DUP2 MSTORE PUSH1 0x20 PUSH1 0x4 DUP3 ADD MSTORE PUSH1 0x1D PUSH1 0x24 DUP3 ADD MSTORE PUSH32 0x416464726573733A2063616C6C20746F206E6F6E2D636F6E7472616374000000 PUSH1 0x44 DUP3 ADD MSTORE PUSH1 0x64 SWAP1 REVERT JUMPDEST DUP3 MLOAD SWAP1 SWAP2 POP ISZERO PUSH2 0x3185 JUMPI POP DUP1 MLOAD SWAP1 PUSH1 0x20 ADD REVERT JUMPDEST PUSH1 0x40 MLOAD SWAP1 PUSH3 0x461BCD PUSH1 0xE5 SHL DUP3 MSTORE DUP2 PUSH1 0x20 DUP1 PUSH1 0x4 DUP4 ADD MSTORE DUP3 MLOAD SWAP1 DUP2 PUSH1 0x24 DUP5 ADD MSTORE PUSH1 0x0 SWAP4 JUMPDEST DUP3 DUP6 LT PUSH2 0x31CB JUMPI POP POP PUSH1 0x44 SWAP3 POP PUSH1 0x0 DUP4 DUP3 DUP5 ADD ADD MSTORE PUSH1 0x1F DUP1 NOT SWAP2 ADD AND DUP2 ADD SUB ADD SWAP1 REVERT JUMPDEST DUP5 DUP2 ADD DUP3 ADD MLOAD DUP7 DUP7 ADD PUSH1 0x44 ADD MSTORE SWAP4 DUP2 ADD SWAP4 DUP6 SWAP4 POP PUSH2 0x31A8 JUMP JUMPDEST DUP1 MLOAD DUP3 LT ISZERO PUSH2 0x2AC1 JUMPI PUSH1 0x20 SWAP2 PUSH1 0x5 SHL ADD ADD SWAP1 JUMP JUMPDEST SWAP2 SWAP1 DUP3 ADD DUP1 SWAP3 GT PUSH2 0x3205 JUMPI JUMP JUMPDEST PUSH4 0x4E487B71 PUSH1 0xE0 SHL PUSH1 0x0 MSTORE PUSH1 0x11 PUSH1 0x4 MSTORE PUSH1 0x24 PUSH1 0x0 REVERT JUMPDEST SWAP1 PUSH1 0x0 SWAP2 PUSH1 0x0 SWAP1 PUSH2 0x137 DUP1 SLOAD SWAP1 PUSH1 0x0 SWAP3 JUMPDEST DUP3 DUP5 LT PUSH2 0x3252 JUMPI POP POP POP POP PUSH2 0x324E PUSH8 0xDE0B6B3A7640000 SWAP2 PUSH2 0x139 SLOAD SWAP1 PUSH2 0x332C JUMP JUMPDEST DIV SWAP1 JUMP JUMPDEST SWAP1 SWAP2 SWAP3 SWAP4 SWAP6 PUSH2 0x329F PUSH2 0x328E PUSH2 0x3299 PUSH1 0x1 SWAP4 PUSH2 0x3293 PUSH2 0x3270 DUP11 DUP9 PUSH2 0x31E4 JUMP JUMPDEST MLOAD PUSH2 0x327B DUP2 DUP13 PUSH2 0x32C5 JUMP JUMPDEST SWAP6 SWAP1 PUSH2 0x3287 DUP14 DUP13 PUSH2 0x2BFB JUMP JUMPDEST POP SLOAD PUSH2 0x31F8 JUMP JUMPDEST PUSH2 0x59AC JUMP JUMPDEST SWAP1 PUSH2 0x31F8 JUMP JUMPDEST SWAP9 PUSH2 0x31F8 JUMP JUMPDEST SWAP5 ADD SWAP3 SWAP2 SWAP1 PUSH2 0x322C JUMP JUMPDEST SWAP2 SWAP1 SWAP2 PUSH1 0x0 DUP4 DUP3 ADD SWAP4 DUP5 SLT SWAP2 SLT SWAP1 DUP1 ISZERO DUP3 AND SWAP2 ISZERO AND OR PUSH2 0x3205 JUMPI JUMP JUMPDEST SWAP2 SWAP1 PUSH1 0x0 SWAP1 PUSH2 0x32F3 DUP2 PUSH1 0x0 SWAP6 PUSH2 0x32E9 PUSH2 0x32E0 DUP3 PUSH2 0x150 PUSH2 0x2AA9 JUMP JUMPDEST SWAP4 SWAP1 SLOAD SWAP3 PUSH2 0x3378 JUMP JUMPDEST SWAP2 PUSH1 0x3 SHL SHR PUSH2 0x32A9 JUMP JUMPDEST PUSH1 0x0 DUP2 SGT PUSH2 0x3302 JUMPI JUMPDEST POP POP SWAP2 SWAP1 JUMP JUMPDEST PUSH2 0x3324 SWAP2 SWAP5 POP PUSH2 0x1D80 SWAP3 POP DUP1 SWAP5 PUSH8 0xDE0B6B3A7640000 SWAP4 DUP5 SWAP2 PUSH2 0x13A SLOAD PUSH2 0x332C JUMP JUMPDEST DIV CODESIZE DUP1 PUSH2 0x32FC JUMP JUMPDEST DUP2 DUP2 MUL SWAP3 SWAP2 DUP2 ISZERO SWAP2 DUP5 DIV EQ OR ISZERO PUSH2 0x3205 JUMPI JUMP JUMPDEST DUP2 ISZERO PUSH2 0x3349 JUMPI DIV SWAP1 JUMP JUMPDEST PUSH4 0x4E487B71 PUSH1 0xE0 SHL PUSH1 0x0 MSTORE PUSH1 0x12 PUSH1 0x4 MSTORE PUSH1 0x24 PUSH1 0x0 REVERT JUMPDEST DUP2 DUP2 SUB SWAP3 SWAP2 PUSH1 0x0 SGT DUP1 ISZERO DUP3 DUP6 SGT AND SWAP2 DUP5 SLT AND OR PUSH2 0x3205 JUMPI JUMP JUMPDEST PUSH2 0x3384 DUP2 PUSH2 0x137 PUSH2 0x2BFB JUMP JUMPDEST POP SLOAD SWAP1 PUSH8 0xDE0B6B3A7640000 SWAP2 DUP3 DUP2 MUL SWAP3 DUP2 DUP5 DIV EQ SWAP1 ISZERO OR ISZERO PUSH2 0x3205 JUMPI PUSH2 0x2B69 SWAP3 PUSH2 0x33C4 PUSH2 0x33B7 PUSH2 0x33CA SWAP4 PUSH2 0x151 PUSH2 0x2AA9 JUMP JUMPDEST SWAP1 SLOAD SWAP1 PUSH1 0x3 SHL SHR DUP5 PUSH2 0x333F JUMP JUMPDEST SWAP3 PUSH2 0x333F JUMP JUMPDEST SWAP1 PUSH2 0x335F JUMP JUMPDEST DUP1 ISZERO PUSH2 0x33E6 JUMPI PUSH2 0x328E PUSH2 0x2B69 SWAP3 PUSH2 0x131 SLOAD PUSH2 0x33EE JUMP JUMPDEST POP POP PUSH1 0x0 NOT SWAP1 JUMP JUMPDEST SWAP2 SWAP1 DUP3 SUB SWAP2 DUP3 GT PUSH2 0x3205 JUMPI JUMP JUMPDEST PUSH8 0xFFFFFFFFFFFFFFFF DUP2 GT PUSH2 0x2C39 JUMPI PUSH1 0x5 SHL PUSH1 0x20 ADD SWAP1 JUMP JUMPDEST SWAP1 PUSH2 0x341D DUP3 PUSH2 0x33FB JUMP JUMPDEST PUSH2 0x342A PUSH1 0x40 MLOAD SWAP2 DUP3 PUSH2 0x2C17 JUMP JUMPDEST DUP3 DUP2 MSTORE DUP1 SWAP3 PUSH2 0x343B PUSH1 0x1F NOT SWAP2 PUSH2 0x33FB JUMP JUMPDEST ADD SWAP1 PUSH1 0x20 CALLDATASIZE SWAP2 ADD CALLDATACOPY JUMP JUMPDEST PUSH2 0x131 SLOAD DUP1 ISZERO PUSH2 0x2F59 JUMPI PUSH2 0x137 SWAP1 DUP2 SLOAD SWAP2 PUSH1 0x0 SWAP1 PUSH2 0x3462 DUP5 PUSH2 0x3413 JUMP JUMPDEST SWAP1 DUP3 SWAP1 JUMPDEST DUP6 DUP3 LT PUSH2 0x34D1 JUMPI POP POP PUSH1 0x0 JUMPDEST DUP5 DUP2 LT PUSH2 0x3480 JUMPI POP POP POP POP POP JUMP JUMPDEST PUSH2 0x349D DUP5 PUSH2 0x3498 DUP6 PUSH2 0x3492 DUP6 DUP8 PUSH2 0x31E4 JUMP JUMPDEST MLOAD PUSH2 0x332C JUMP JUMPDEST PUSH2 0x333F JUMP JUMPDEST SWAP1 PUSH2 0x138 SWAP2 DUP3 SLOAD PUSH9 0x10000000000000000 DUP2 LT ISZERO PUSH2 0x2C39 JUMPI PUSH2 0x1D99 DUP2 PUSH1 0x1 SWAP6 DUP7 PUSH2 0x34C9 SWAP5 ADD DUP2 SSTORE PUSH2 0x2AA9 JUMP JUMPDEST SWAP1 SSTORE ADD PUSH2 0x3472 JUMP JUMPDEST SWAP1 SWAP3 PUSH2 0x350D PUSH1 0x1 SWAP2 PUSH2 0x34E2 DUP7 PUSH2 0x3550 JUMP JUMPDEST PUSH2 0x34EC DUP8 DUP8 PUSH2 0x31E4 JUMP JUMPDEST MSTORE PUSH2 0x3293 PUSH2 0x34FA DUP8 DUP7 PUSH2 0x2BFB JUMP JUMPDEST POP SLOAD PUSH2 0x3506 DUP9 DUP9 PUSH2 0x31E4 JUMP JUMPDEST MLOAD SWAP1 PUSH2 0x59AC JUMP JUMPDEST SWAP4 ADD SWAP1 PUSH2 0x3466 JUMP JUMPDEST PUSH1 0x1 PUSH1 0x1 PUSH1 0xA0 SHL SUB AND PUSH1 0x0 SWAP1 DUP2 MSTORE PUSH2 0x136 PUSH1 0x20 MSTORE PUSH1 0x40 SWAP1 KECCAK256 PUSH1 0x1 DUP2 ADD SLOAD PUSH1 0xFF AND ISZERO PUSH2 0x353E JUMPI SLOAD SWAP1 JUMP JUMPDEST PUSH1 0x40 MLOAD PUSH4 0xE6C4247B PUSH1 0xE0 SHL DUP2 MSTORE PUSH1 0x4 SWAP1 REVERT JUMPDEST PUSH2 0x355C SWAP1 PUSH2 0x137 PUSH2 0x2BFB JUMP JUMPDEST POP PUSH1 0x1 ADD SLOAD PUSH1 0x1 PUSH1 0x1 PUSH1 0xA0 SHL SUB AND PUSH2 0x3573 DUP2 PUSH2 0x35BE JUMP JUMPDEST SWAP2 SWAP1 SWAP2 ISZERO PUSH2 0x357F JUMPI POP SWAP1 JUMP JUMPDEST PUSH1 0x24 SWAP1 PUSH1 0x40 MLOAD SWAP1 PUSH4 0x7F6E4DB9 PUSH1 0xE0 SHL DUP3 MSTORE PUSH1 0x4 DUP3 ADD MSTORE REVERT JUMPDEST MLOAD SWAP1 DUP2 ISZERO ISZERO DUP3 SUB PUSH2 0x6E3 JUMPI JUMP JUMPDEST SWAP2 SWAP1 DUP3 PUSH1 0x40 SWAP2 SUB SLT PUSH2 0x6E3 JUMPI PUSH2 0x2B69 PUSH1 0x20 DUP4 MLOAD SWAP4 ADD PUSH2 0x3597 JUMP JUMPDEST PUSH1 0x40 DUP1 MLOAD PUSH4 0x59E02DD7 PUSH1 0xE0 SHL DUP2 MSTORE SWAP3 SWAP2 DUP4 SWAP1 PUSH1 0x4 SWAP1 DUP3 SWAP1 PUSH1 0x1 PUSH1 0x1 PUSH1 0xA0 SHL SUB AND GAS STATICCALL SWAP2 DUP3 ISZERO PUSH2 0x3624 JUMPI PUSH1 0x0 SWAP1 DUP2 SWAP4 PUSH2 0x35F5 JUMPI POP SWAP2 SWAP1 JUMP JUMPDEST SWAP1 POP PUSH2 0x3619 SWAP2 SWAP3 POP PUSH1 0x40 RETURNDATASIZE DUP2 GT PUSH2 0x361D JUMPI JUMPDEST PUSH2 0x3611 DUP2 DUP4 PUSH2 0x2C17 JUMP JUMPDEST DUP2 ADD SWAP1 PUSH2 0x35A4 JUMP JUMPDEST SWAP1 SWAP2 JUMP JUMPDEST POP RETURNDATASIZE PUSH2 0x3607 JUMP JUMPDEST PUSH1 0x40 MLOAD RETURNDATASIZE PUSH1 0x0 DUP3 RETURNDATACOPY RETURNDATASIZE SWAP1 REVERT JUMPDEST PUSH2 0x137 SLOAD SWAP1 PUSH2 0x363E DUP3 PUSH2 0x3413 JUMP JUMPDEST SWAP2 PUSH1 0x0 JUMPDEST DUP2 DUP2 LT PUSH2 0x364D JUMPI POP POP JUMP JUMPDEST DUP1 PUSH2 0x3659 PUSH1 0x1 SWAP3 PUSH2 0x3550 JUMP JUMPDEST PUSH2 0x3663 DUP3 DUP8 PUSH2 0x31E4 JUMP JUMPDEST MSTORE ADD PUSH2 0x3642 JUMP JUMPDEST SWAP1 PUSH2 0x368B PUSH8 0xDE0B6B3A7640000 SWAP3 DUP4 PUSH2 0x157 SLOAD PUSH2 0x154 SLOAD SWAP3 NUMBER ADD SUB MUL PUSH2 0x333F JUMP JUMPDEST DUP3 DUP2 LT ISZERO PUSH2 0x36A8 JUMPI DUP3 SUB SWAP2 DUP1 DUP4 PUSH2 0x155 SLOAD MUL DIV SWAP3 PUSH2 0x156 SLOAD MUL SDIV SWAP1 JUMP JUMPDEST POP PUSH1 0x0 SWAP2 POP DUP2 SWAP1 JUMP JUMPDEST SWAP1 SWAP2 PUSH2 0x36BB PUSH2 0x3713 JUMP JUMPDEST SWAP3 SWAP1 DUP1 DUP3 LT ISZERO PUSH2 0x3709 JUMPI DUP4 SWAP2 PUSH2 0x36D0 SWAP2 PUSH2 0x33EE JUMP JUMPDEST SWAP4 GT ISZERO PUSH2 0x3704 JUMPI DUP2 DUP2 LT ISZERO PUSH2 0x36FC JUMPI PUSH2 0x36E8 SWAP2 PUSH2 0x33EE JUMP JUMPDEST PUSH1 0x1 SHR DUP1 DUP3 LT ISZERO PUSH2 0x36F7 JUMPI POP SWAP1 JUMP JUMPDEST SWAP1 POP SWAP1 JUMP JUMPDEST POP POP POP PUSH1 0x0 SWAP1 JUMP JUMPDEST POP POP SWAP1 JUMP JUMPDEST POP POP POP POP POP PUSH1 0x0 SWAP1 JUMP JUMPDEST PUSH2 0x152 SLOAD PUSH1 0x40 DUP1 MLOAD PUSH4 0x59E02DD7 PUSH1 0xE0 SHL DUP1 DUP3 MSTORE SWAP4 SWAP3 SWAP1 SWAP2 SWAP1 PUSH1 0x1 PUSH1 0x1 PUSH1 0xA0 SHL SUB SWAP1 DUP2 AND DUP3 DUP5 PUSH1 0x4 DUP2 DUP5 GAS STATICCALL DUP1 ISZERO PUSH2 0x3803 JUMPI PUSH1 0x0 SWAP5 DUP6 SWAP2 PUSH2 0x37E0 JUMPI JUMPDEST POP ISZERO PUSH2 0x37C9 JUMPI POP PUSH2 0x153 SLOAD AND SWAP1 DUP1 MLOAD SWAP5 DUP6 MSTORE DUP1 DUP6 PUSH1 0x4 DUP2 DUP6 GAS STATICCALL DUP1 ISZERO PUSH2 0x37BE JUMPI PUSH1 0x0 SWAP6 DUP7 SWAP2 PUSH2 0x379B JUMPI JUMPDEST POP ISZERO PUSH2 0x3784 JUMPI POP POP SWAP2 SWAP1 JUMP JUMPDEST PUSH1 0x24 SWAP3 POP MLOAD SWAP1 PUSH4 0x5E89893 PUSH1 0xE1 SHL DUP3 MSTORE PUSH1 0x4 DUP3 ADD MSTORE REVERT JUMPDEST SWAP1 POP DUP2 PUSH2 0x37B5 SWAP3 SWAP7 POP RETURNDATASIZE DUP8 GT PUSH2 0x361D JUMPI PUSH2 0x3611 DUP2 DUP4 PUSH2 0x2C17 JUMP JUMPDEST SWAP5 SWAP1 SWAP5 CODESIZE PUSH2 0x3778 JUMP JUMPDEST POP MLOAD RETURNDATASIZE PUSH1 0x0 DUP3 RETURNDATACOPY RETURNDATASIZE SWAP1 REVERT JUMPDEST PUSH1 0x24 SWAP1 DUP4 MLOAD SWAP1 PUSH4 0x5E89893 PUSH1 0xE1 SHL DUP3 MSTORE PUSH1 0x4 DUP3 ADD MSTORE REVERT JUMPDEST SWAP1 POP PUSH2 0x37FA SWAP2 SWAP5 POP DUP4 RETURNDATASIZE DUP6 GT PUSH2 0x361D JUMPI PUSH2 0x3611 DUP2 DUP4 PUSH2 0x2C17 JUMP JUMPDEST SWAP4 SWAP1 SWAP4 CODESIZE PUSH2 0x374E JUMP JUMPDEST DUP4 MLOAD RETURNDATASIZE PUSH1 0x0 DUP3 RETURNDATACOPY RETURNDATASIZE SWAP1 REVERT JUMPDEST PUSH2 0x3874 SWAP2 PUSH2 0x381A PUSH2 0x3E0E JUMP JUMPDEST PUSH2 0x3823 ADDRESS PUSH2 0x3FCB JUMP JUMPDEST PUSH1 0x40 MLOAD PUSH4 0x6845C445 PUSH1 0xE0 SHL PUSH1 0x20 DUP3 ADD MSTORE PUSH1 0x1 PUSH1 0x1 PUSH1 0xA0 SHL SUB SWAP4 DUP5 AND PUSH1 0x24 DUP3 ADD MSTORE SWAP2 DUP4 AND PUSH1 0x44 DUP4 ADD MSTORE DUP5 DUP4 AND PUSH1 0x64 DUP4 ADD MSTORE PUSH1 0x84 DUP1 DUP4 ADD SWAP2 SWAP1 SWAP2 MSTORE DUP2 MSTORE SWAP1 PUSH2 0x386A PUSH1 0xA4 DUP4 PUSH2 0x2C17 JUMP JUMPDEST PUSH2 0x1F6 SLOAD AND PUSH2 0x3890 JUMP JUMPDEST PUSH1 0x20 DUP2 DUP1 MLOAD DUP2 ADD SUB SLT PUSH2 0x6E3 JUMPI PUSH1 0x20 PUSH2 0x2B69 SWAP2 ADD MLOAD DUP1 SWAP3 PUSH2 0x3E8F JUMP JUMPDEST SWAP1 PUSH2 0x2B69 SWAP2 PUSH1 0x0 DUP1 PUSH2 0x38A0 PUSH2 0x308C JUMP JUMPDEST SWAP4 PUSH1 0x20 DUP2 MLOAD SWAP2 ADD DUP5 GAS DELEGATECALL PUSH2 0x2F53 PUSH2 0x30E0 JUMP JUMPDEST PUSH2 0x392A SWAP4 PUSH2 0x38F1 PUSH1 0x0 SWAP3 PUSH1 0x20 SWAP6 PUSH2 0x38CB DUP3 PUSH2 0x137 PUSH2 0x2BFB JUMP JUMPDEST POP PUSH2 0x38D7 DUP8 DUP3 SLOAD PUSH2 0x31F8 JUMP JUMPDEST SWAP1 SSTORE PUSH2 0x38E7 PUSH2 0x131 SWAP2 DUP3 SLOAD PUSH2 0x31F8 JUMP JUMPDEST SWAP1 SSTORE PUSH2 0x135 PUSH2 0x2AA9 JUMP JUMPDEST SWAP1 SLOAD PUSH1 0x40 MLOAD PUSH4 0x40C10F19 PUSH1 0xE0 SHL DUP2 MSTORE PUSH1 0x1 PUSH1 0x1 PUSH1 0xA0 SHL SUB SWAP1 SWAP4 AND PUSH1 0x4 DUP5 ADD MSTORE PUSH1 0x24 DUP4 ADD SWAP5 SWAP1 SWAP5 MSTORE SWAP1 SWAP5 DUP6 SWAP4 SWAP3 DUP5 SWAP3 SWAP1 SWAP2 DUP4 SWAP1 PUSH1 0x44 DUP3 ADD SWAP1 JUMP JUMPDEST SUB SWAP4 PUSH1 0x3 SWAP2 SWAP1 SWAP2 SHL SHR PUSH1 0x1 PUSH1 0x1 PUSH1 0xA0 SHL SUB AND GAS CALL DUP1 ISZERO PUSH2 0x3624 JUMPI PUSH2 0x394B JUMPI POP JUMP JUMPDEST PUSH1 0x20 DUP2 RETURNDATASIZE DUP3 GT PUSH2 0x3974 JUMPI JUMPDEST DUP2 PUSH2 0x3963 PUSH1 0x20 SWAP4 DUP4 PUSH2 0x2C17 JUMP JUMPDEST DUP2 ADD SUB SLT PUSH2 0x6E3 JUMPI PUSH2 0x2F59 SWAP1 PUSH2 0x3597 JUMP JUMPDEST RETURNDATASIZE SWAP2 POP PUSH2 0x3956 JUMP JUMPDEST PUSH2 0x1D99 PUSH2 0x39CD SWAP2 PUSH2 0x398D DUP5 DUP3 PUSH2 0x3378 JUMP JUMPDEST PUSH2 0x39C3 PUSH2 0x399C DUP4 PUSH2 0x150 PUSH2 0x2AA9 JUMP JUMPDEST PUSH2 0x39AF DUP3 SWAP5 SWAP3 SLOAD SWAP3 DUP4 DUP4 PUSH1 0x3 SHL SHR PUSH2 0x32A9 JUMP JUMPDEST SWAP2 SWAP1 PUSH1 0x3 SHL SWAP2 DUP3 SHL SWAP2 PUSH1 0x0 NOT SWAP1 SHL NOT AND OR SWAP1 JUMP JUMPDEST SWAP1 SSTORE PUSH2 0x151 PUSH2 0x2AA9 JUMP JUMPDEST SWAP1 SSTORE JUMP JUMPDEST PUSH1 0xE0 DUP2 ADD SWAP3 SWAP2 PUSH1 0xC0 SWAP1 DUP2 SWAP1 PUSH1 0x1 PUSH1 0x1 PUSH1 0xA0 SHL SUB DUP1 PUSH2 0x39EE DUP4 PUSH2 0x2B15 JUMP JUMPDEST AND DUP6 MSTORE PUSH2 0x39FD PUSH1 0x20 DUP4 ADD PUSH2 0x2B15 JUMP JUMPDEST AND PUSH1 0x20 DUP6 ADD MSTORE PUSH1 0x40 DUP2 ADD CALLDATALOAD PUSH1 0x40 DUP6 ADD MSTORE PUSH1 0x60 DUP2 ADD CALLDATALOAD PUSH1 0x60 DUP6 ADD MSTORE PUSH1 0x80 DUP2 ADD CALLDATALOAD PUSH1 0x80 DUP6 ADD MSTORE PUSH1 0xA0 DUP2 ADD CALLDATALOAD PUSH1 0xA0 DUP6 ADD MSTORE ADD CALLDATALOAD SWAP2 ADD MSTORE JUMP JUMPDEST SWAP1 PUSH2 0x134 SLOAD SWAP1 DUP2 ISZERO PUSH2 0x3A57 JUMPI PUSH2 0x2B69 SWAP3 PUSH2 0x3A52 PUSH2 0x328E SWAP3 PUSH2 0x131 SLOAD PUSH2 0x33EE JUMP JUMPDEST PUSH2 0x33EE JUMP JUMPDEST POP POP POP PUSH8 0xDE0B6B3A7640000 SWAP1 JUMP JUMPDEST DUP2 ISZERO PUSH2 0x3349 JUMPI PUSH1 0x1 PUSH1 0xFF SHL DUP2 EQ PUSH1 0x0 NOT DUP4 EQ AND PUSH2 0x3205 JUMPI SDIV SWAP1 JUMP JUMPDEST SWAP1 SWAP2 PUSH2 0x3A90 SWAP1 PUSH2 0x131 SLOAD PUSH2 0x33EE JUMP JUMPDEST SWAP1 PUSH8 0xDE0B6B3A7640000 SWAP2 DUP3 DUP2 MUL SWAP3 DUP2 DUP5 DIV EQ SWAP1 ISZERO OR ISZERO PUSH2 0x3205 JUMPI PUSH2 0x2B69 SWAP3 PUSH2 0x33CA SWAP2 PUSH2 0x332C JUMP JUMPDEST SWAP3 PUSH2 0x3AC6 SWAP3 SWAP6 SWAP5 SWAP2 SWAP4 PUSH2 0x3A81 JUMP JUMPDEST PUSH1 0x0 SWAP4 DUP2 DUP2 MUL SWAP2 SWAP1 DUP6 DUP3 SLT PUSH1 0x1 PUSH1 0xFF SHL DUP3 EQ AND PUSH2 0x3B35 JUMPI DUP2 DUP4 SDIV EQ SWAP1 ISZERO OR ISZERO PUSH2 0x3B21 JUMPI PUSH8 0xDE0B6B3A763FFFF NOT DUP3 ADD SWAP2 DUP3 GT PUSH2 0x3B21 JUMPI PUSH8 0xDE0B6B3A7640000 SWAP2 DUP3 DUP2 MUL SWAP3 DUP2 DUP5 DIV EQ SWAP1 ISZERO OR ISZERO PUSH2 0x3B21 JUMPI PUSH2 0x2B69 SWAP3 SWAP4 POP PUSH2 0x3A66 JUMP JUMPDEST PUSH4 0x4E487B71 PUSH1 0xE0 SHL DUP5 MSTORE PUSH1 0x11 PUSH1 0x4 MSTORE PUSH1 0x24 DUP5 REVERT JUMPDEST PUSH4 0x4E487B71 PUSH1 0xE0 SHL DUP7 MSTORE PUSH1 0x11 PUSH1 0x4 MSTORE PUSH1 0x24 DUP7 REVERT JUMPDEST PUSH2 0x14D SLOAD DUP1 NUMBER LT ISZERO PUSH2 0x3B60 JUMPI PUSH2 0x2B69 SWAP1 NUMBER SWAP1 PUSH2 0x33EE JUMP JUMPDEST POP PUSH1 0x0 SWAP1 JUMP JUMPDEST SWAP1 PUSH1 0x40 MLOAD PUSH2 0x3B75 PUSH1 0x40 DUP3 PUSH2 0x2C17 JUMP JUMPDEST PUSH1 0x20 PUSH1 0x1 DUP3 SWAP5 DUP1 SLOAD DUP5 MSTORE ADD SLOAD SWAP2 ADD MSTORE JUMP JUMPDEST PUSH2 0x3B92 DUP2 PUSH2 0x148 PUSH2 0x2AA9 JUMP JUMPDEST SWAP1 SLOAD SWAP1 PUSH1 0x3 SHL SHR SWAP2 PUSH2 0x18E SWAP2 PUSH2 0x3BA8 DUP2 DUP5 PUSH2 0x2BFB JUMP JUMPDEST POP SLOAD SWAP3 PUSH2 0x18F SLOAD NUMBER LT ISZERO PUSH2 0x3BCE JUMPI JUMPDEST POP POP DUP1 DUP3 LT ISZERO PUSH2 0x3704 JUMPI PUSH2 0x3498 SWAP1 PUSH2 0x2B69 SWAP4 PUSH2 0x332C JUMP JUMPDEST DUP3 SWAP4 POP PUSH2 0x3BE2 PUSH2 0x3BED SWAP4 SWAP3 PUSH2 0x3BE8 SWAP3 PUSH2 0x2BFB JUMP JUMPDEST POP PUSH2 0x3B66 JUMP JUMPDEST PUSH2 0x3BF5 JUMP JUMPDEST SWAP1 CODESIZE DUP1 PUSH2 0x3BB7 JUMP JUMPDEST PUSH1 0x20 DUP2 MLOAD SWAP2 ADD DUP1 MLOAD SWAP3 PUSH8 0xDE0B6B3A7640000 SWAP4 DUP5 SUB SWAP1 DUP5 DUP3 GT PUSH2 0x3205 JUMPI PUSH2 0x3C22 PUSH2 0x3293 SWAP3 PUSH2 0x324E SWAP6 PUSH2 0x332C JUMP JUMPDEST SWAP3 MLOAD PUSH2 0x332C JUMP JUMPDEST PUSH1 0x0 DUP1 PUSH2 0x137 SWAP2 DUP3 SLOAD SWAP3 PUSH2 0x3C3C DUP5 PUSH2 0x3413 JUMP JUMPDEST SWAP4 DUP3 SWAP2 JUMPDEST DUP2 DUP4 LT PUSH2 0x3C69 JUMPI POP POP POP DUP2 ISZERO PUSH2 0x3C5D JUMPI SWAP1 PUSH2 0x3C5A SWAP2 PUSH2 0x333F JUMP JUMPDEST SWAP2 JUMP JUMPDEST POP POP PUSH2 0x149 SLOAD PUSH1 0x1 SHL SWAP2 JUMP JUMPDEST SWAP1 SWAP2 SWAP4 SWAP3 PUSH2 0x3C76 DUP6 PUSH2 0x3550 JUMP JUMPDEST SWAP1 DUP2 PUSH2 0x3C82 DUP8 DUP10 PUSH2 0x31E4 JUMP JUMPDEST MSTORE PUSH2 0x3C9B PUSH2 0x3C90 DUP4 DUP9 PUSH2 0x32C5 JUMP JUMPDEST POP PUSH2 0x3287 DUP9 DUP7 PUSH2 0x2BFB JUMP JUMPDEST PUSH8 0xDE0B6B3A7640000 SWAP1 DUP2 DUP2 MUL SWAP2 DUP2 DUP4 DIV EQ SWAP1 ISZERO OR ISZERO PUSH2 0x3205 JUMPI PUSH2 0x3CDD PUSH2 0x3CE3 SWAP3 PUSH2 0x3293 DUP6 PUSH2 0x3CCF PUSH1 0x1 SWAP8 PUSH2 0x3CD8 SWAP7 PUSH2 0x59AC JUMP JUMPDEST SWAP5 DUP6 SWAP2 DUP13 PUSH2 0x3B86 JUMP JUMPDEST PUSH2 0x332C JUMP JUMPDEST SWAP6 PUSH2 0x31F8 JUMP JUMPDEST SWAP5 ADD SWAP2 SWAP1 PUSH2 0x3C40 JUMP JUMPDEST PUSH2 0x18F DUP1 SLOAD NUMBER LT ISZERO PUSH2 0x3CFB JUMPI POP JUMP JUMPDEST PUSH2 0x137 SLOAD PUSH1 0x0 JUMPDEST DUP2 DUP2 LT PUSH2 0x3D15 JUMPI POP POP PUSH2 0x190 SLOAD NUMBER ADD SWAP1 SSTORE JUMP JUMPDEST DUP1 DUP1 PUSH32 0x19156E9379C7BBBCE8F646CE5EE30BA860B8F954717405F3D5859A6C1A21AE60 PUSH1 0x1 SWAP4 PUSH2 0x18E PUSH2 0x3D4B PUSH2 0x3BE2 DUP4 DUP4 PUSH2 0x2BFB JUMP JUMPDEST SWAP1 PUSH2 0x3D69 PUSH2 0x3D61 PUSH2 0x3D5B DUP6 PUSH2 0x3550 JUMP JUMPDEST DUP5 PUSH2 0x3BF5 JUMP JUMPDEST SWAP4 DUP5 SWAP3 PUSH2 0x2BFB JUMP JUMPDEST POP SSTORE MLOAD PUSH1 0x40 SWAP2 DUP3 MLOAD SWAP2 DUP3 MSTORE PUSH1 0x20 DUP3 ADD MSTORE LOG2 ADD PUSH2 0x3D02 JUMP JUMPDEST PUSH1 0x97 SLOAD PUSH1 0x40 MLOAD PUSH4 0xD994D6D5 PUSH1 0xE0 SHL DUP2 MSTORE CALLER PUSH1 0x4 DUP3 ADD MSTORE SWAP1 PUSH1 0x20 SWAP1 DUP3 SWAP1 PUSH1 0x24 SWAP1 DUP3 SWAP1 PUSH1 0x1 PUSH1 0x1 PUSH1 0xA0 SHL SUB AND GAS STATICCALL SWAP1 DUP2 ISZERO PUSH2 0x3624 JUMPI PUSH1 0x0 SWAP2 PUSH2 0x3DD5 JUMPI JUMPDEST POP ISZERO PUSH2 0x3DC3 JUMPI JUMP JUMPDEST PUSH1 0x40 MLOAD PUSH4 0x1DD1B1B5 PUSH1 0xE2 SHL DUP2 MSTORE PUSH1 0x4 SWAP1 REVERT JUMPDEST SWAP1 PUSH1 0x20 DUP3 RETURNDATASIZE DUP3 GT PUSH2 0x3E06 JUMPI JUMPDEST DUP2 PUSH2 0x3DEE PUSH1 0x20 SWAP4 DUP4 PUSH2 0x2C17 JUMP JUMPDEST DUP2 ADD SUB SLT PUSH2 0x7D6 JUMPI POP PUSH2 0x3E00 SWAP1 PUSH2 0x3597 JUMP JUMPDEST CODESIZE PUSH2 0x3DBB JUMP JUMPDEST RETURNDATASIZE SWAP2 POP PUSH2 0x3DE1 JUMP JUMPDEST PUSH1 0xFF PUSH1 0xCA SLOAD PUSH1 0x8 SHR AND PUSH2 0x3E1D JUMPI JUMP JUMPDEST PUSH1 0x40 MLOAD PUSH4 0x783BB6C9 PUSH1 0xE1 SHL DUP2 MSTORE PUSH1 0x4 SWAP1 REVERT JUMPDEST ISZERO PUSH2 0x3E36 JUMPI JUMP JUMPDEST PUSH1 0x40 MLOAD PUSH3 0x461BCD PUSH1 0xE5 SHL DUP2 MSTORE PUSH1 0x20 PUSH1 0x4 DUP3 ADD MSTORE PUSH1 0x2B PUSH1 0x24 DUP3 ADD MSTORE PUSH32 0x496E697469616C697A61626C653A20636F6E7472616374206973206E6F742069 PUSH1 0x44 DUP3 ADD MSTORE PUSH11 0x6E697469616C697A696E67 PUSH1 0xA8 SHL PUSH1 0x64 DUP3 ADD MSTORE PUSH1 0x84 SWAP1 REVERT JUMPDEST SWAP1 DUP1 PUSH2 0x3E99 JUMPI POP POP JUMP JUMPDEST PUSH2 0x229 SLOAD PUSH1 0x40 MLOAD PUSH4 0xA9059CBB PUSH1 0xE0 SHL PUSH1 0x20 DUP3 ADD MSTORE PUSH1 0x1 PUSH1 0x1 PUSH1 0xA0 SHL SUB SWAP4 DUP5 AND PUSH1 0x24 DUP3 ADD MSTORE PUSH1 0x44 DUP1 DUP3 ADD SWAP4 SWAP1 SWAP4 MSTORE SWAP2 DUP3 MSTORE PUSH2 0x2B13 SWAP3 AND PUSH2 0x3ED9 PUSH1 0x64 DUP4 PUSH2 0x2C17 JUMP JUMPDEST PUSH1 0x20 SWAP2 PUSH2 0x3F3C SWAP2 PUSH1 0x1 PUSH1 0x1 PUSH1 0xA0 SHL SUB AND PUSH1 0x0 DUP1 PUSH2 0x3EF5 DUP7 PUSH2 0x2C4F JUMP JUMPDEST SWAP4 PUSH2 0x3F03 PUSH1 0x40 MLOAD SWAP6 DUP7 PUSH2 0x2C17 JUMP JUMPDEST DUP7 DUP6 MSTORE PUSH32 0x5361666545524332303A206C6F772D6C6576656C2063616C6C206661696C6564 DUP8 DUP7 ADD MSTORE DUP7 DUP2 MLOAD SWAP2 ADD DUP3 DUP6 GAS CALL PUSH2 0x2F53 PUSH2 0x30E0 JUMP JUMPDEST DUP1 MLOAD DUP3 DUP2 ISZERO SWAP2 DUP3 ISZERO PUSH2 0x3FAC JUMPI JUMPDEST POP POP SWAP1 POP ISZERO PUSH2 0x3F55 JUMPI POP JUMP JUMPDEST PUSH1 0x84 SWAP1 PUSH1 0x40 MLOAD SWAP1 PUSH3 0x461BCD PUSH1 0xE5 SHL DUP3 MSTORE PUSH1 0x4 DUP3 ADD MSTORE PUSH1 0x2A PUSH1 0x24 DUP3 ADD MSTORE PUSH32 0x5361666545524332303A204552433230206F7065726174696F6E20646964206E PUSH1 0x44 DUP3 ADD MSTORE PUSH10 0x1BDD081CDD58D8D95959 PUSH1 0xB2 SHL PUSH1 0x64 DUP3 ADD MSTORE REVERT JUMPDEST DUP4 DUP1 SWAP3 SWAP4 POP ADD SUB SLT PUSH2 0x6E3 JUMPI DUP2 PUSH2 0x3FC3 SWAP2 ADD PUSH2 0x3597 JUMP JUMPDEST DUP1 DUP3 CODESIZE PUSH2 0x3F49 JUMP JUMPDEST PUSH2 0x229 SLOAD PUSH1 0x40 MLOAD PUSH4 0x70A08231 PUSH1 0xE0 SHL DUP2 MSTORE PUSH1 0x1 PUSH1 0x1 PUSH1 0xA0 SHL SUB SWAP3 DUP4 AND PUSH1 0x4 DUP3 ADD MSTORE SWAP2 PUSH1 0x20 SWAP2 DUP4 SWAP2 PUSH1 0x24 SWAP2 DUP4 SWAP2 AND GAS STATICCALL SWAP1 DUP2 ISZERO PUSH2 0x3624 JUMPI PUSH1 0x0 SWAP2 PUSH2 0x400C JUMPI POP SWAP1 JUMP JUMPDEST SWAP1 PUSH1 0x20 DUP3 RETURNDATASIZE DUP3 GT PUSH2 0x4032 JUMPI JUMPDEST DUP2 PUSH2 0x4025 PUSH1 0x20 SWAP4 DUP4 PUSH2 0x2C17 JUMP JUMPDEST DUP2 ADD SUB SLT PUSH2 0x7D6 JUMPI POP MLOAD SWAP1 JUMP JUMPDEST RETURNDATASIZE SWAP2 POP PUSH2 0x4018 JUMP JUMPDEST PUSH1 0x40 MLOAD SWAP1 PUSH2 0x4049 PUSH1 0x80 DUP4 PUSH2 0x2C17 JUMP JUMPDEST PUSH1 0x0 PUSH1 0x60 DUP4 DUP3 DUP2 MSTORE DUP3 PUSH1 0x20 DUP3 ADD MSTORE DUP3 PUSH1 0x40 DUP3 ADD MSTORE ADD MSTORE JUMP JUMPDEST SWAP1 PUSH2 0x4140 SWAP5 SWAP3 SWAP4 PUSH2 0x4070 PUSH2 0x403A JUMP JUMPDEST POP PUSH2 0x229 SLOAD PUSH1 0x1 PUSH1 0x1 PUSH1 0xA0 SHL SUB SWAP1 PUSH2 0x408F SWAP1 DUP5 SWAP1 ADDRESS SWAP1 CALLER SWAP1 DUP6 AND PUSH2 0x428A JUMP JUMPDEST PUSH2 0x14E PUSH2 0x409D DUP5 DUP3 SLOAD PUSH2 0x31F8 JUMP JUMPDEST DUP2 SSTORE PUSH1 0x40 SWAP1 DUP2 MLOAD SWAP6 PUSH2 0x40B0 PUSH1 0xA0 DUP9 PUSH2 0x2C17 JUMP JUMPDEST DUP7 MSTORE PUSH1 0x20 DUP7 ADD SWAP5 DUP6 MSTORE DUP2 DUP7 ADD SWAP2 CALLER DUP4 MSTORE DUP4 PUSH1 0x60 DUP9 ADD SWAP10 AND DUP10 MSTORE DUP4 PUSH1 0x80 DUP9 ADD SWAP6 AND DUP6 MSTORE PUSH2 0x40DA PUSH2 0x403A JUMP JUMPDEST POP PUSH2 0x40E3 PUSH2 0x42CE JUMP JUMPDEST PUSH2 0x40EB PUSH2 0x3E0E JUMP JUMPDEST PUSH8 0xDE0B6B3A7640000 PUSH2 0x411D PUSH2 0x4117 PUSH2 0x410E PUSH2 0x4105 PUSH2 0x3630 JUMP JUMPDEST PUSH2 0x149 SLOAD PUSH2 0x42F0 JUMP JUMPDEST DUP12 MLOAD SWAP3 SWAP2 PUSH2 0x3A32 JUMP JUMPDEST SWAP1 PUSH2 0x332C JUMP JUMPDEST DIV SWAP9 PUSH2 0x4135 DUP6 DUP6 MLOAD AND DUP12 DUP8 DUP10 MLOAD AND PUSH2 0x13C SLOAD SWAP3 PUSH2 0x4333 JUMP JUMPDEST SWAP12 SWAP2 DUP3 SWAP14 SWAP2 SWAP14 PUSH2 0x31F8 JUMP JUMPDEST SWAP9 DUP9 MLOAD DUP1 DUP12 GT PUSH2 0x426D JUMPI POP DUP10 ISZERO PUSH2 0x425C JUMPI SWAP2 PUSH1 0x20 SWAP2 DUP8 PUSH2 0x41BC SWAP6 SWAP5 MLOAD SWAP3 MLOAD AND SWAP1 PUSH2 0x134 PUSH2 0x416E DUP5 DUP3 SLOAD PUSH2 0x31F8 JUMP JUMPDEST SWAP1 SSTORE PUSH2 0x417E PUSH2 0x131 SWAP2 DUP3 SLOAD PUSH2 0x31F8 JUMP JUMPDEST SWAP1 SSTORE PUSH2 0x133 SLOAD DUP5 MLOAD PUSH4 0x40C10F19 PUSH1 0xE0 SHL DUP2 MSTORE PUSH1 0x1 PUSH1 0x1 PUSH1 0xA0 SHL SUB SWAP1 SWAP3 AND PUSH1 0x4 DUP4 ADD MSTORE PUSH1 0x24 DUP3 ADD SWAP3 SWAP1 SWAP3 MSTORE SWAP4 DUP5 SWAP2 DUP9 AND SWAP1 DUP3 SWAP1 PUSH1 0x0 SWAP1 DUP3 SWAP1 PUSH1 0x44 DUP3 ADD SWAP1 JUMP JUMPDEST SUB SWAP3 GAS CALL SWAP1 DUP2 ISZERO PUSH2 0x4252 JUMPI POP SWAP2 DUP10 SWAP6 SWAP4 SWAP2 DUP9 SWAP8 SWAP6 SWAP4 PUSH2 0x4207 JUMPI JUMPDEST POP SWAP6 DUP3 PUSH2 0x41F8 SWAP3 PUSH2 0x4202 SWAP9 PUSH2 0x41ED DUP9 MLOAD DUP3 SLOAD PUSH2 0x33EE JUMP JUMPDEST SWAP1 SSTORE MLOAD AND SWAP5 MLOAD PUSH2 0x33EE JUMP JUMPDEST SWAP2 MLOAD AND SWAP2 DUP1 PUSH2 0x45D6 JUMP JUMPDEST SWAP3 SWAP2 SWAP1 JUMP JUMPDEST SWAP6 POP SWAP6 POP PUSH1 0x20 DUP6 RETURNDATASIZE DUP3 GT PUSH2 0x424A JUMPI JUMPDEST DUP2 PUSH2 0x4223 PUSH1 0x20 SWAP4 DUP4 PUSH2 0x2C17 JUMP JUMPDEST DUP2 ADD SUB SLT PUSH2 0x6E3 JUMPI DUP7 DUP3 PUSH2 0x41F8 SWAP3 PUSH2 0x4202 SWAP9 PUSH2 0x423F DUP14 SWAP10 PUSH2 0x3597 JUMP JUMPDEST POP SWAP3 SWAP9 POP SWAP3 POP PUSH2 0x41D6 JUMP JUMPDEST RETURNDATASIZE SWAP2 POP PUSH2 0x4216 JUMP JUMPDEST MLOAD RETURNDATASIZE PUSH1 0x0 DUP3 RETURNDATACOPY RETURNDATASIZE SWAP1 REVERT JUMPDEST DUP4 MLOAD PUSH4 0xF3E39B5D PUSH1 0xE0 SHL DUP2 MSTORE PUSH1 0x4 SWAP1 REVERT JUMPDEST PUSH1 0x44 SWAP1 DUP12 DUP7 MLOAD SWAP2 PUSH4 0xB63F1A7 PUSH1 0xE0 SHL DUP4 MSTORE PUSH1 0x4 DUP4 ADD MSTORE PUSH1 0x24 DUP3 ADD MSTORE REVERT JUMPDEST PUSH1 0x40 MLOAD PUSH4 0x23B872DD PUSH1 0xE0 SHL PUSH1 0x20 DUP3 ADD MSTORE PUSH1 0x1 PUSH1 0x1 PUSH1 0xA0 SHL SUB SWAP3 DUP4 AND PUSH1 0x24 DUP3 ADD MSTORE SWAP3 SWAP1 SWAP2 AND PUSH1 0x44 DUP4 ADD MSTORE PUSH1 0x64 DUP1 DUP4 ADD SWAP4 SWAP1 SWAP4 MSTORE SWAP2 DUP2 MSTORE PUSH2 0x2B13 SWAP2 PUSH2 0x3ED9 PUSH1 0x84 DUP4 PUSH2 0x2C17 JUMP JUMPDEST PUSH1 0xFF PUSH2 0x14B SLOAD PUSH1 0x8 SHR AND PUSH2 0x42DE JUMPI JUMP JUMPDEST PUSH1 0x40 MLOAD PUSH4 0x1CA61D77 PUSH1 0xE0 SHL DUP2 MSTORE PUSH1 0x4 SWAP1 REVERT JUMPDEST SWAP2 SWAP1 PUSH2 0x42FB SWAP1 PUSH2 0x321B JUMP JUMPDEST SWAP2 SWAP1 SWAP3 PUSH2 0x4308 DUP4 DUP6 PUSH2 0x33D0 JUMP JUMPDEST SWAP1 DUP1 DUP3 GT ISZERO PUSH2 0x4315 JUMPI POP POP JUMP JUMPDEST PUSH1 0x44 SWAP3 POP PUSH1 0x40 MLOAD SWAP2 PUSH4 0x79121201 PUSH1 0xE0 SHL DUP4 MSTORE PUSH1 0x4 DUP4 ADD MSTORE PUSH1 0x24 DUP3 ADD MSTORE REVERT JUMPDEST SWAP3 SWAP1 SWAP4 SWAP2 PUSH1 0x0 SWAP2 PUSH1 0x0 SWAP2 DUP3 SWAP7 PUSH2 0x4347 PUSH2 0x403A JUMP JUMPDEST SWAP7 PUSH1 0x1 PUSH1 0x1 PUSH1 0xA0 SHL SUB SWAP2 DUP6 SWAP1 DUP4 AND DUP1 PUSH2 0x4553 JUMPI JUMPDEST POP DUP3 PUSH2 0x12F SLOAD AND DUP4 PUSH1 0x40 MLOAD SWAP4 PUSH4 0x6EB1769F PUSH1 0xE1 SHL DUP6 MSTORE AND DUP1 PUSH1 0x4 DUP6 ADD MSTORE ADDRESS PUSH1 0x24 DUP6 ADD MSTORE PUSH1 0x20 SWAP5 DUP6 DUP6 PUSH1 0x44 DUP2 DUP7 GAS STATICCALL SWAP5 DUP6 ISZERO PUSH2 0x4548 JUMPI DUP5 SWAP6 PUSH2 0x4519 JUMPI JUMPDEST POP DUP5 PUSH2 0x43F8 JUMPI JUMPDEST POP POP POP POP POP DUP7 ADD MLOAD ISZERO PUSH2 0x43B4 JUMPI JUMPDEST POP POP POP SWAP3 SWAP2 SWAP1 JUMP JUMPDEST SWAP1 SWAP2 SWAP3 POP PUSH2 0x43CC PUSH8 0xDE0B6B3A7640000 SWAP3 DUP4 SWAP3 PUSH2 0x332C JUMP JUMPDEST DIV DUP1 DUP6 MSTORE SWAP1 DUP3 ISZERO PUSH2 0x43F0 JUMPI PUSH2 0x43E8 SWAP3 DIV SWAP1 DUP2 PUSH1 0x40 DUP7 ADD MSTORE PUSH2 0x31F8 JUMP JUMPDEST CODESIZE DUP1 DUP1 PUSH2 0x43AC JUMP JUMPDEST POP SWAP1 POP PUSH2 0x43E8 JUMP JUMPDEST PUSH2 0x4406 SWAP1 PUSH2 0x130 SLOAD AND PUSH2 0x35BE JUMP JUMPDEST SWAP3 SWAP1 SWAP3 ISZERO PUSH2 0x439E JUMPI SWAP1 SWAP2 SWAP3 SWAP4 SWAP12 POP DUP5 DUP12 PUSH2 0x4440 DUP6 PUSH8 0xDE0B6B3A7640000 PUSH2 0x443A PUSH2 0x4430 DUP14 DUP14 PUSH2 0x332C JUMP JUMPDEST PUSH2 0x143 SLOAD SWAP1 PUSH2 0x332C JUMP JUMPDEST DIV PUSH2 0x333F JUMP JUMPDEST DUP2 DUP4 ADD DUP2 DUP2 MSTORE SWAP6 SWAP1 DUP12 ISZERO PUSH2 0x450F JUMPI POP PUSH2 0x446B SWAP2 PUSH2 0x445F PUSH1 0x60 SWAP3 DUP14 PUSH2 0x333F JUMP JUMPDEST SWAP2 DUP3 SWAP2 ADD MSTORE DUP6 MLOAD PUSH2 0x31F8 JUMP JUMPDEST DUP1 SWAP14 JUMPDEST LT SWAP3 DUP4 ISZERO PUSH2 0x449A JUMPI JUMPDEST POP POP POP PUSH2 0x4487 JUMPI JUMPDEST DUP1 DUP1 DUP1 PUSH2 0x439E JUMP JUMPDEST DUP2 SWAP3 SWAP10 POP MSTORE DUP1 PUSH1 0x60 DUP9 ADD MSTORE SWAP7 CODESIZE DUP1 PUSH2 0x447F JUMP JUMPDEST SWAP1 SWAP2 SWAP3 POP PUSH1 0x24 PUSH1 0x40 MLOAD DUP1 SWAP5 DUP2 SWAP4 PUSH4 0x70A08231 PUSH1 0xE0 SHL DUP4 MSTORE PUSH1 0x4 DUP4 ADD MSTORE GAS STATICCALL SWAP1 DUP2 ISZERO PUSH2 0x4504 JUMPI SWAP1 DUP12 SWAP2 DUP5 SWAP2 PUSH2 0x44D3 JUMPI JUMPDEST POP LT CODESIZE DUP5 DUP2 PUSH2 0x4477 JUMP JUMPDEST DUP1 SWAP3 POP DUP6 DUP1 SWAP3 POP RETURNDATASIZE DUP4 GT PUSH2 0x44FD JUMPI JUMPDEST PUSH2 0x44EC DUP2 DUP4 PUSH2 0x2C17 JUMP JUMPDEST DUP2 ADD SUB SLT PUSH2 0x94E JUMPI DUP11 SWAP1 MLOAD CODESIZE PUSH2 0x44C9 JUMP JUMPDEST POP RETURNDATASIZE PUSH2 0x44E2 JUMP JUMPDEST PUSH1 0x40 MLOAD RETURNDATASIZE DUP6 DUP3 RETURNDATACOPY RETURNDATASIZE SWAP1 REVERT JUMPDEST SWAP2 POP POP DUP1 SWAP14 PUSH2 0x446E JUMP JUMPDEST SWAP1 SWAP5 POP DUP6 DUP2 DUP2 RETURNDATASIZE DUP4 GT PUSH2 0x4541 JUMPI JUMPDEST PUSH2 0x4531 DUP2 DUP4 PUSH2 0x2C17 JUMP JUMPDEST DUP2 ADD SUB SLT PUSH2 0xA47 JUMPI MLOAD SWAP4 CODESIZE PUSH2 0x4397 JUMP JUMPDEST POP RETURNDATASIZE PUSH2 0x4527 JUMP JUMPDEST PUSH1 0x40 MLOAD RETURNDATASIZE DUP7 DUP3 RETURNDATACOPY RETURNDATASIZE SWAP1 REVERT JUMPDEST SWAP1 SWAP6 POP PUSH1 0x20 DUP4 PUSH2 0x1C3 SLOAD AND SWAP2 PUSH1 0x24 PUSH1 0x40 MLOAD DUP1 SWAP5 DUP2 SWAP4 PUSH4 0x64A731E9 PUSH1 0xE0 SHL DUP4 MSTORE PUSH1 0x4 DUP4 ADD MSTORE GAS STATICCALL DUP1 ISZERO PUSH2 0x45CB JUMPI DUP7 SWAP1 PUSH2 0x4598 JUMPI JUMPDEST PUSH2 0x4591 SWAP2 POP DUP5 PUSH2 0x332C JUMP JUMPDEST SWAP5 CODESIZE PUSH2 0x435B JUMP JUMPDEST POP PUSH1 0x20 DUP2 RETURNDATASIZE DUP3 GT PUSH2 0x45C3 JUMPI JUMPDEST DUP2 PUSH2 0x45B1 PUSH1 0x20 SWAP4 DUP4 PUSH2 0x2C17 JUMP JUMPDEST DUP2 ADD SUB SLT PUSH2 0x205C JUMPI PUSH2 0x4591 SWAP1 MLOAD PUSH2 0x4586 JUMP JUMPDEST RETURNDATASIZE SWAP2 POP PUSH2 0x45A4 JUMP JUMPDEST PUSH1 0x40 MLOAD RETURNDATASIZE DUP9 DUP3 RETURNDATACOPY RETURNDATASIZE SWAP1 REVERT JUMPDEST SWAP3 PUSH2 0x2B13 SWAP5 SWAP2 SWAP3 SWAP4 DUP3 MLOAD ISZERO ISZERO PUSH1 0x0 EQ PUSH2 0x4646 JUMPI POP PUSH1 0x40 PUSH2 0x4641 SWAP3 PUSH2 0x4639 PUSH8 0xDE0B6B3A7640000 PUSH2 0x460B PUSH2 0x13B SLOAD DUP5 MLOAD SWAP1 PUSH2 0x332C JUMP JUMPDEST DIV PUSH2 0x131 PUSH2 0x461A DUP3 DUP3 SLOAD PUSH2 0x31F8 JUMP JUMPDEST SWAP1 SSTORE PUSH2 0x4633 PUSH1 0x1 DUP1 PUSH1 0xA0 SHL SUB PUSH2 0x146 SLOAD AND SWAP2 DUP5 MLOAD PUSH2 0x33EE JUMP JUMPDEST SWAP1 PUSH2 0x3E8F JUMP JUMPDEST ADD MLOAD SWAP1 PUSH2 0x3E8F JUMP JUMPDEST PUSH2 0x3E8F JUMP JUMPDEST SWAP1 PUSH1 0x60 PUSH2 0x4641 SWAP4 PUSH2 0x4668 PUSH1 0x1 DUP1 PUSH1 0xA0 SHL SUB PUSH2 0x146 SLOAD AND PUSH1 0x20 DUP4 ADD MLOAD SWAP1 DUP7 PUSH2 0x466C JUMP JUMPDEST ADD MLOAD SWAP2 JUMPDEST SWAP2 SWAP1 DUP2 PUSH2 0x4678 JUMPI POP POP POP JUMP JUMPDEST PUSH2 0x12F SLOAD PUSH2 0x2B13 SWAP4 SWAP1 PUSH1 0x1 PUSH1 0x1 PUSH1 0xA0 SHL SUB AND PUSH2 0x428A JUMP JUMPDEST SWAP2 SWAP1 SWAP4 SWAP5 SWAP3 SWAP5 PUSH2 0x469D PUSH2 0x403A JUMP JUMPDEST POP PUSH2 0x229 SLOAD PUSH1 0x1 PUSH1 0x1 PUSH1 0xA0 SHL SUB SWAP1 PUSH2 0x46BC SWAP1 DUP5 SWAP1 ADDRESS SWAP1 CALLER SWAP1 DUP6 AND PUSH2 0x428A JUMP JUMPDEST PUSH2 0x14E SWAP4 DUP4 DUP6 SLOAD SWAP1 PUSH2 0x46CD SWAP2 PUSH2 0x31F8 JUMP JUMPDEST DUP6 SSTORE PUSH1 0x40 SWAP5 DUP3 DUP7 MLOAD SWAP3 PUSH2 0x46E1 PUSH1 0xC0 DUP6 PUSH2 0x2C17 JUMP JUMPDEST AND DUP3 MSTORE PUSH1 0x20 DUP3 ADD SWAP9 DUP10 SWAP9 DUP10 MSTORE DUP7 DUP4 ADD SWAP6 DUP7 MSTORE PUSH1 0x60 DUP4 ADD SWAP3 CALLER DUP5 MSTORE DUP5 PUSH1 0x80 DUP3 ADD SWAP3 AND DUP3 MSTORE DUP5 PUSH1 0xA0 DUP3 ADD SWAP7 AND DUP7 MSTORE PUSH2 0x4715 PUSH2 0x403A JUMP JUMPDEST POP PUSH2 0x471E PUSH2 0x42CE JUMP JUMPDEST PUSH2 0x4726 PUSH2 0x3E0E JUMP JUMPDEST PUSH2 0x472E PUSH2 0x3CEC JUMP JUMPDEST PUSH2 0x4736 PUSH2 0x3C29 JUMP JUMPDEST DUP7 DUP4 SWAP5 SWAP3 SWAP5 MLOAD AND PUSH2 0x4746 SWAP1 PUSH2 0x3515 JUMP JUMPDEST SWAP4 PUSH2 0x4751 DUP6 DUP4 PUSH2 0x31E4 JUMP JUMPDEST MLOAD SWAP14 DUP15 SWAP3 PUSH2 0x475F DUP5 DUP9 PUSH2 0x397C JUMP JUMPDEST PUSH2 0x4769 SWAP1 DUP4 PUSH2 0x42F0 JUMP JUMPDEST SWAP2 MLOAD SWAP4 PUSH2 0x4776 DUP2 DUP10 PUSH2 0x3B86 JUMP JUMPDEST PUSH2 0x477F SWAP5 PUSH2 0x485C JUMP JUMPDEST DUP2 DUP2 LT PUSH2 0x483F JUMPI POP POP PUSH2 0x47BC PUSH2 0x4799 PUSH2 0x47C7 SWAP14 DUP14 MLOAD PUSH2 0x59AC JUMP JUMPDEST SWAP3 DUP4 DUP9 DUP9 MLOAD AND SWAP2 DUP10 DUP1 DUP13 MLOAD AND SWAP2 MLOAD AND PUSH1 0x0 MSTORE PUSH2 0x144 PUSH1 0x20 MSTORE DUP13 PUSH1 0x0 KECCAK256 SLOAD SWAP3 PUSH2 0x4333 JUMP JUMPDEST SWAP13 SWAP2 DUP5 SWAP15 SWAP2 SWAP15 PUSH2 0x31F8 JUMP JUMPDEST SWAP10 DUP10 MLOAD DUP1 DUP13 GT PUSH2 0x4823 JUMPI POP DUP11 ISZERO PUSH2 0x4813 JUMPI POP SWAP5 DUP7 SWAP5 PUSH2 0x4807 PUSH2 0x41F8 SWAP6 DUP6 DUP16 SWAP12 SWAP10 SWAP6 DUP10 DUP16 SWAP9 SWAP8 PUSH2 0x4202 SWAP16 SWAP14 SWAP9 PUSH1 0x0 PUSH2 0x47FD SWAP2 PUSH2 0x4896 JUMP JUMPDEST MLOAD SWAP2 MLOAD AND SWAP3 PUSH2 0x38B2 JUMP JUMPDEST PUSH2 0x41ED DUP9 MLOAD DUP3 SLOAD PUSH2 0x33EE JUMP JUMPDEST MLOAD PUSH4 0xF3E39B5D PUSH1 0xE0 SHL DUP2 MSTORE PUSH1 0x4 SWAP1 REVERT JUMPDEST DUP12 PUSH1 0x44 SWAP3 MLOAD SWAP2 PUSH4 0xB63F1A7 PUSH1 0xE0 SHL DUP4 MSTORE PUSH1 0x4 DUP4 ADD MSTORE PUSH1 0x24 DUP3 ADD MSTORE REVERT JUMPDEST PUSH1 0x44 SWAP3 POP DUP11 MLOAD SWAP2 PUSH4 0xC39B739F PUSH1 0xE0 SHL DUP4 MSTORE PUSH1 0x4 DUP4 ADD MSTORE PUSH1 0x24 DUP3 ADD MSTORE REVERT JUMPDEST SWAP2 DUP4 DUP6 SWAP2 PUSH2 0x486A SWAP4 DUP6 PUSH2 0x3AB8 JUMP JUMPDEST SWAP3 PUSH1 0x0 DUP5 SLT SWAP3 DUP4 ISZERO PUSH2 0x4881 JUMPI JUMPDEST POP POP POP PUSH2 0x3B60 JUMPI SWAP1 JUMP JUMPDEST PUSH2 0x488C SWAP3 SWAP4 POP PUSH2 0x33D0 JUMP JUMPDEST GT ISZERO CODESIZE DUP1 DUP1 PUSH2 0x4877 JUMP JUMPDEST DUP1 PUSH2 0x489F PUSH2 0x3713 JUMP JUMPDEST SWAP2 SWAP1 SWAP4 PUSH2 0x48AC PUSH1 0x0 PUSH2 0x366A JUMP JUMPDEST SWAP5 ADD SWAP4 DUP3 SWAP2 PUSH2 0x4944 JUMPI JUMPDEST ADD SWAP4 DUP5 PUSH1 0x0 DUP1 DUP3 SLT PUSH2 0x493E JUMPI POP JUMPDEST DUP5 SUB SWAP2 DUP2 DUP6 GT PUSH2 0x4906 JUMPI POP POP DUP2 DUP2 GT PUSH2 0x48E8 JUMPI POP POP PUSH2 0x155 SSTORE PUSH2 0x156 SSTORE NUMBER PUSH2 0x157 SSTORE JUMP JUMPDEST PUSH1 0x44 SWAP3 POP PUSH1 0x40 MLOAD SWAP2 PUSH4 0x6DA41E5 PUSH1 0xE1 SHL DUP4 MSTORE PUSH1 0x4 DUP4 ADD MSTORE PUSH1 0x24 DUP3 ADD MSTORE REVERT JUMPDEST SWAP1 DUP1 DUP6 SWAP3 GT PUSH2 0x492C JUMPI PUSH1 0x44 SWAP2 PUSH1 0x40 MLOAD SWAP2 PUSH4 0x6DA41E5 PUSH1 0xE1 SHL DUP4 MSTORE PUSH1 0x4 DUP4 ADD MSTORE PUSH1 0x24 DUP3 ADD MSTORE REVERT JUMPDEST PUSH1 0x40 MLOAD PUSH4 0xFB4FD35 PUSH1 0xE1 SHL DUP2 MSTORE PUSH1 0x4 SWAP1 REVERT JUMPDEST SUB PUSH2 0x48C4 JUMP JUMPDEST SWAP1 POP DUP2 PUSH1 0x0 SUB SWAP1 PUSH2 0x48B6 JUMP JUMPDEST PUSH2 0x4A70 SWAP1 PUSH2 0x4A4B SWAP5 SWAP7 SWAP4 PUSH2 0x41F8 SWAP7 PUSH2 0x4966 PUSH2 0x403A JUMP JUMPDEST POP PUSH2 0x229 SLOAD PUSH1 0x1 PUSH1 0x1 PUSH1 0xA0 SHL SUB SWAP8 DUP9 SWAP5 PUSH2 0x4A5A SWAP3 PUSH2 0x498B SWAP1 DUP7 SWAP1 ADDRESS SWAP1 CALLER SWAP1 DUP11 AND PUSH2 0x428A JUMP JUMPDEST DUP6 PUSH2 0x14E SWAP13 DUP14 PUSH2 0x499C DUP9 DUP3 SLOAD PUSH2 0x31F8 JUMP JUMPDEST SWAP1 SSTORE DUP2 PUSH1 0x40 MLOAD SWAP4 PUSH2 0x49AE PUSH1 0xC0 DUP7 PUSH2 0x2C17 JUMP JUMPDEST AND DUP4 MSTORE PUSH1 0x20 DUP4 ADD SWAP10 DUP11 MSTORE PUSH1 0x40 DUP4 ADD SWAP7 DUP8 MSTORE PUSH1 0x60 DUP4 ADD SWAP10 CALLER DUP12 MSTORE DUP3 PUSH1 0x80 DUP6 ADD SWAP3 AND DUP3 MSTORE DUP3 PUSH1 0xA0 DUP6 ADD SWAP8 AND DUP8 MSTORE PUSH2 0x49E1 PUSH2 0x403A JUMP JUMPDEST POP PUSH2 0x49EA PUSH2 0x42CE JUMP JUMPDEST PUSH2 0x49F2 PUSH2 0x3E0E JUMP JUMPDEST DUP3 PUSH1 0x40 MLOAD SWAP5 PUSH4 0x7225DA89 PUSH1 0xE1 SHL PUSH1 0x20 DUP8 ADD MSTORE MLOAD AND PUSH1 0x24 DUP6 ADD MSTORE MLOAD PUSH1 0x44 DUP5 ADD MSTORE DUP7 MLOAD PUSH1 0x64 DUP5 ADD MSTORE DUP2 DUP11 MLOAD AND PUSH1 0x84 DUP5 ADD MSTORE MLOAD AND PUSH1 0xA4 DUP3 ADD MSTORE DUP6 DUP5 MLOAD AND PUSH1 0xC4 DUP3 ADD MSTORE PUSH1 0xC4 DUP2 MSTORE PUSH2 0x4A40 PUSH1 0xE4 DUP3 PUSH2 0x2C17 JUMP JUMPDEST DUP6 PUSH2 0x1F6 SLOAD AND PUSH2 0x3890 JUMP JUMPDEST PUSH1 0x20 DUP1 DUP3 MLOAD DUP4 ADD ADD SWAP2 ADD PUSH2 0x4A76 JUMP JUMPDEST SWAP10 DUP4 SWAP9 DUP12 SWAP8 SWAP5 SWAP3 SWAP13 SWAP4 SWAP14 PUSH2 0x41ED DUP9 MLOAD DUP3 SLOAD PUSH2 0x33EE JUMP JUMPDEST SWAP4 SWAP3 SWAP2 SWAP1 JUMP JUMPDEST DUP1 SWAP2 SUB PUSH1 0xE0 DUP2 SLT PUSH2 0x6E3 JUMPI DUP2 MLOAD SWAP3 PUSH1 0x20 DUP4 ADD MLOAD SWAP3 PUSH1 0x80 PUSH1 0x40 DUP3 ADD MLOAD SWAP4 PUSH1 0x5F NOT ADD SLT PUSH2 0x6E3 JUMPI PUSH1 0xC0 PUSH1 0x40 MLOAD SWAP2 PUSH2 0x4AAC PUSH1 0x80 DUP5 PUSH2 0x2C17 JUMP JUMPDEST PUSH1 0x60 DUP2 ADD MLOAD DUP4 MSTORE PUSH1 0x80 DUP2 ADD MLOAD PUSH1 0x20 DUP5 ADD MSTORE PUSH1 0xA0 DUP2 ADD MLOAD PUSH1 0x40 DUP5 ADD MSTORE ADD MLOAD PUSH1 0x60 DUP3 ADD MSTORE SWAP1 JUMP JUMPDEST SWAP3 SWAP1 SWAP7 SWAP4 SWAP5 SWAP2 SWAP5 PUSH2 0x4AE0 PUSH2 0x403A JUMP JUMPDEST POP PUSH2 0x229 SLOAD PUSH2 0x4AFD SWAP1 DUP3 SWAP1 ADDRESS SWAP1 CALLER SWAP1 PUSH1 0x1 PUSH1 0x1 PUSH1 0xA0 SHL SUB AND PUSH2 0x428A JUMP JUMPDEST PUSH2 0x4B0A DUP2 PUSH2 0x14E SLOAD PUSH2 0x31F8 JUMP JUMPDEST PUSH2 0x14E SSTORE PUSH1 0x40 MLOAD SWAP7 PUSH2 0x4B1E PUSH2 0x100 DUP10 PUSH2 0x2C17 JUMP JUMPDEST PUSH1 0x1 PUSH1 0x1 PUSH1 0xA0 SHL SUB DUP6 DUP2 AND DUP1 DUP11 MSTORE SWAP10 DUP2 AND PUSH1 0x20 DUP1 DUP12 ADD SWAP2 DUP3 MSTORE PUSH1 0x40 DUP1 DUP13 ADD DUP12 DUP2 MSTORE PUSH1 0x60 DUP14 ADD SWAP8 DUP9 MSTORE PUSH1 0x80 DUP14 ADD SWAP7 SWAP1 SWAP7 MSTORE CALLER PUSH1 0xA0 DUP14 ADD MSTORE SWAP7 DUP4 AND PUSH1 0xC0 DUP13 ADD SWAP1 DUP2 MSTORE SWAP4 SWAP1 SWAP3 AND PUSH1 0xE0 DUP12 ADD MSTORE SWAP5 MLOAD PUSH4 0x40C10F19 PUSH1 0xE0 SHL DUP2 MSTORE ADDRESS PUSH1 0x4 DUP3 ADD MSTORE PUSH1 0x24 DUP2 ADD DUP10 SWAP1 MSTORE SWAP5 SWAP10 SWAP2 SWAP5 SWAP2 DUP3 SWAP1 PUSH1 0x44 SWAP1 DUP3 SWAP1 PUSH1 0x0 SWAP1 GAS CALL DUP1 ISZERO PUSH2 0x3624 JUMPI PUSH2 0x4CEF JUMPI JUMPDEST POP SWAP7 PUSH2 0x4C3B SWAP3 PUSH2 0x4A4B SWAP3 PUSH2 0x4C8A SWAP10 PUSH2 0x4BB2 PUSH2 0x403A JUMP JUMPDEST POP PUSH2 0x4BBB PUSH2 0x42CE JUMP JUMPDEST PUSH2 0x4BC3 PUSH2 0x3E0E JUMP JUMPDEST PUSH1 0x40 MLOAD PUSH4 0x70F090ED PUSH1 0xE1 SHL PUSH1 0x20 DUP3 ADD MSTORE DUP11 MLOAD PUSH1 0x1 PUSH1 0x1 PUSH1 0xA0 SHL SUB SWAP1 DUP2 AND PUSH1 0x24 DUP4 ADD MSTORE SWAP5 MLOAD DUP6 AND PUSH1 0x44 DUP3 ADD MSTORE SWAP1 MLOAD PUSH1 0x64 DUP3 ADD MSTORE SWAP1 MLOAD PUSH1 0x84 DUP3 ADD MSTORE PUSH1 0x80 DUP10 ADD MLOAD PUSH1 0xA4 DUP3 ADD MSTORE PUSH1 0xA0 DUP10 ADD MLOAD DUP4 AND PUSH1 0xC4 DUP3 ADD MSTORE SWAP1 MLOAD DUP3 AND PUSH1 0xE4 DUP3 ADD MSTORE PUSH1 0xE0 DUP9 ADD MLOAD SWAP1 SWAP2 AND PUSH2 0x104 DUP1 DUP4 ADD SWAP2 SWAP1 SWAP2 MSTORE DUP2 MSTORE PUSH2 0x938 PUSH2 0x124 DUP3 PUSH2 0x2C17 JUMP JUMPDEST DUP8 PUSH2 0x4C54 PUSH1 0x80 DUP4 SWAP10 SWAP7 SWAP8 SWAP6 SWAP12 SWAP5 SWAP11 ADD MLOAD PUSH2 0x14E SLOAD PUSH2 0x33EE JUMP JUMPDEST PUSH2 0x14E SSTORE PUSH1 0x1 DUP1 PUSH1 0xA0 SHL SUB PUSH1 0xA0 DUP3 ADD MLOAD AND SWAP1 PUSH2 0x4C74 DUP8 PUSH1 0x80 DUP4 ADD MLOAD PUSH2 0x33EE JUMP JUMPDEST PUSH1 0xE0 SWAP1 SWAP2 ADD MLOAD PUSH1 0x1 PUSH1 0x1 PUSH1 0xA0 SHL SUB AND SWAP2 DUP1 PUSH2 0x45D6 JUMP JUMPDEST PUSH1 0x1 PUSH1 0x1 PUSH1 0xA0 SHL SUB DUP2 AND EXTCODESIZE ISZERO PUSH2 0x6E3 JUMPI PUSH1 0x40 MLOAD PUSH4 0x2770A7EB PUSH1 0xE2 SHL DUP2 MSTORE CALLER PUSH1 0x4 DUP3 ADD MSTORE PUSH1 0x24 DUP2 ADD SWAP3 SWAP1 SWAP3 MSTORE PUSH1 0x0 SWAP1 DUP3 SWAP1 PUSH1 0x44 SWAP1 DUP3 SWAP1 DUP5 SWAP1 PUSH1 0x1 PUSH1 0x1 PUSH1 0xA0 SHL SUB AND GAS CALL DUP1 ISZERO PUSH2 0x3624 JUMPI PUSH2 0x4CDE JUMPI JUMPDEST POP SWAP4 SWAP3 SWAP2 SWAP1 JUMP JUMPDEST PUSH1 0x0 PUSH2 0x4CE9 SWAP2 PUSH2 0x2C17 JUMP JUMPDEST CODESIZE PUSH2 0x4CD7 JUMP JUMPDEST SWAP2 SWAP8 SWAP1 SWAP3 PUSH1 0x20 DUP4 RETURNDATASIZE PUSH1 0x20 GT PUSH2 0x4D34 JUMPI JUMPDEST DUP2 PUSH2 0x4D0C PUSH1 0x20 SWAP4 DUP4 PUSH2 0x2C17 JUMP JUMPDEST DUP2 ADD SUB SLT PUSH2 0x6E3 JUMPI PUSH2 0x4C8A SWAP9 PUSH2 0x4C3B SWAP5 PUSH2 0x4D28 PUSH2 0x4A4B SWAP6 PUSH2 0x3597 JUMP JUMPDEST POP SWAP3 SWAP10 POP SWAP3 POP SWAP3 PUSH2 0x4B9C JUMP JUMPDEST RETURNDATASIZE SWAP2 POP PUSH2 0x4CFF JUMP JUMPDEST SWAP1 SWAP2 SWAP6 SWAP3 SWAP4 SWAP5 SWAP6 PUSH2 0x4D4B PUSH2 0x403A JUMP JUMPDEST POP PUSH2 0x229 SLOAD PUSH2 0x4D68 SWAP1 DUP7 SWAP1 ADDRESS SWAP1 CALLER SWAP1 PUSH1 0x1 PUSH1 0x1 PUSH1 0xA0 SHL SUB AND PUSH2 0x428A JUMP JUMPDEST PUSH2 0x4D75 DUP6 PUSH2 0x14E SLOAD PUSH2 0x31F8 JUMP JUMPDEST PUSH2 0x14E SSTORE PUSH1 0x40 MLOAD SWAP5 PUSH2 0x4D88 PUSH1 0xE0 DUP8 PUSH2 0x2C17 JUMP JUMPDEST PUSH1 0x1 PUSH1 0x1 PUSH1 0xA0 SHL SUB DUP4 DUP2 AND DUP1 DUP9 MSTORE PUSH1 0x20 DUP1 DUP10 ADD DUP8 SWAP1 MSTORE PUSH1 0x40 DUP1 DUP11 ADD SWAP6 SWAP1 SWAP6 MSTORE PUSH1 0x60 DUP10 ADD SWAP4 SWAP1 SWAP4 MSTORE CALLER PUSH1 0x80 DUP10 ADD SWAP1 DUP2 MSTORE SWAP9 DUP3 AND PUSH1 0xA0 DUP10 ADD MSTORE SWAP9 AND PUSH1 0xC0 DUP8 ADD SWAP1 DUP2 MSTORE SWAP2 MLOAD PUSH4 0x40C10F19 PUSH1 0xE0 SHL DUP2 MSTORE ADDRESS PUSH1 0x4 DUP3 ADD MSTORE PUSH1 0x24 DUP2 ADD DUP6 SWAP1 MSTORE SWAP2 SWAP8 SWAP1 SWAP2 SWAP1 DUP3 SWAP1 DUP3 SWAP1 PUSH1 0x44 SWAP1 DUP3 SWAP1 PUSH1 0x0 SWAP1 GAS CALL DUP1 ISZERO PUSH2 0x3624 JUMPI PUSH2 0x4EAA JUMPI JUMPDEST POP SWAP1 PUSH2 0x4C8A PUSH2 0x4E98 SWAP8 PUSH2 0x4E65 PUSH1 0x60 SWAP6 SWAP5 PUSH2 0x4E17 PUSH2 0x403A JUMP JUMPDEST POP PUSH2 0x4E20 PUSH2 0x42CE JUMP JUMPDEST PUSH2 0x4E28 PUSH2 0x3E0E JUMP JUMPDEST PUSH1 0x40 MLOAD PUSH4 0xF5571E01 PUSH1 0xE0 SHL DUP3 DUP3 ADD MSTORE PUSH2 0x4E58 SWAP1 PUSH2 0x4E48 PUSH1 0x24 DUP3 ADD DUP13 PUSH2 0x4EF4 JUMP JUMPDEST PUSH1 0xE4 DUP2 MSTORE PUSH2 0x938 PUSH2 0x104 DUP3 PUSH2 0x2C17 JUMP JUMPDEST DUP1 MLOAD DUP2 ADD DUP3 ADD SWAP2 ADD PUSH2 0x4A76 JUMP JUMPDEST SWAP10 SWAP3 DUP9 DUP12 SWAP6 SWAP4 SWAP14 SWAP3 SWAP13 PUSH2 0x4E7F DUP4 SWAP12 DUP8 ADD MLOAD PUSH2 0x14E SLOAD PUSH2 0x33EE JUMP JUMPDEST PUSH2 0x14E SSTORE MLOAD SWAP5 ADD MLOAD PUSH1 0x1 PUSH1 0x1 PUSH1 0xA0 SHL SUB SWAP1 SWAP5 AND SWAP4 PUSH2 0x33EE JUMP JUMPDEST SWAP1 MLOAD PUSH1 0x1 PUSH1 0x1 PUSH1 0xA0 SHL SUB AND SWAP2 DUP1 PUSH2 0x45D6 JUMP JUMPDEST SWAP3 SWAP2 SWAP1 DUP1 DUP5 DUP2 RETURNDATASIZE DUP4 GT PUSH2 0x4EED JUMPI JUMPDEST PUSH2 0x4EC2 DUP2 DUP4 PUSH2 0x2C17 JUMP JUMPDEST DUP2 ADD SUB SLT PUSH2 0x6E3 JUMPI PUSH2 0x4E98 SWAP8 PUSH2 0x4E65 PUSH2 0x4C8A SWAP3 PUSH2 0x4EE0 PUSH1 0x60 SWAP8 PUSH2 0x3597 JUMP JUMPDEST POP SWAP4 SWAP5 SWAP6 POP POP SWAP8 POP PUSH2 0x4DFF JUMP JUMPDEST POP RETURNDATASIZE PUSH2 0x4EB8 JUMP JUMPDEST PUSH1 0xC0 SWAP1 DUP2 PUSH1 0x1 DUP1 PUSH1 0xA0 SHL SUB SWAP2 DUP3 DUP2 MLOAD AND DUP6 MSTORE PUSH1 0x20 DUP2 ADD MLOAD PUSH1 0x20 DUP7 ADD MSTORE PUSH1 0x40 DUP2 ADD MLOAD PUSH1 0x40 DUP7 ADD MSTORE PUSH1 0x60 DUP2 ADD MLOAD PUSH1 0x60 DUP7 ADD MSTORE DUP3 PUSH1 0x80 DUP3 ADD MLOAD AND PUSH1 0x80 DUP7 ADD MSTORE DUP3 PUSH1 0xA0 DUP3 ADD MLOAD AND PUSH1 0xA0 DUP7 ADD MSTORE ADD MLOAD AND SWAP2 ADD MSTORE JUMP JUMPDEST SWAP4 SWAP5 SWAP6 SWAP3 SWAP2 SWAP1 SWAP2 PUSH2 0x4F53 PUSH2 0x403A JUMP JUMPDEST POP PUSH2 0x229 SLOAD PUSH2 0x4F70 SWAP1 DUP3 SWAP1 ADDRESS SWAP1 CALLER SWAP1 PUSH1 0x1 PUSH1 0x1 PUSH1 0xA0 SHL SUB AND PUSH2 0x428A JUMP JUMPDEST PUSH2 0x4F7D DUP2 PUSH2 0x14E SLOAD PUSH2 0x31F8 JUMP JUMPDEST PUSH2 0x14E SSTORE PUSH1 0x40 MLOAD SWAP5 PUSH2 0x4F90 PUSH1 0xE0 DUP8 PUSH2 0x2C17 JUMP JUMPDEST PUSH1 0x1 PUSH1 0x1 PUSH1 0xA0 SHL SUB SWAP1 DUP2 AND DUP7 MSTORE PUSH1 0x20 DUP1 DUP8 ADD DUP6 SWAP1 MSTORE PUSH1 0x40 DUP1 DUP9 ADD SWAP5 SWAP1 SWAP5 MSTORE PUSH1 0x60 DUP8 ADD SWAP3 SWAP1 SWAP3 MSTORE CALLER PUSH1 0x80 DUP8 ADD SWAP1 DUP2 MSTORE SWAP7 DUP2 AND PUSH1 0xA0 DUP8 ADD MSTORE SWAP7 DUP8 AND PUSH1 0xC0 DUP7 ADD SWAP1 DUP2 MSTORE PUSH2 0x133 SLOAD SWAP3 MLOAD PUSH4 0x40C10F19 PUSH1 0xE0 SHL DUP2 MSTORE ADDRESS PUSH1 0x4 DUP3 ADD MSTORE PUSH1 0x24 DUP2 ADD DUP6 SWAP1 MSTORE SWAP1 SWAP8 SWAP2 SWAP3 SWAP1 SWAP2 DUP4 SWAP2 DUP4 SWAP2 PUSH1 0x44 SWAP2 DUP4 SWAP2 PUSH1 0x0 SWAP2 AND GAS CALL DUP1 ISZERO PUSH2 0x3624 JUMPI PUSH2 0x50BD JUMPI JUMPDEST POP SWAP1 PUSH2 0x506F PUSH2 0x4E98 SWAP7 PUSH2 0x5055 PUSH1 0x60 SWAP5 PUSH2 0x5024 PUSH2 0x403A JUMP JUMPDEST POP PUSH2 0x502D PUSH2 0x42CE JUMP JUMPDEST PUSH2 0x5035 PUSH2 0x3E0E JUMP JUMPDEST PUSH1 0x40 MLOAD PUSH4 0xD9B6C2E5 PUSH1 0xE0 SHL DUP3 DUP3 ADD MSTORE PUSH2 0x4E58 SWAP1 PUSH2 0x4E48 PUSH1 0x24 DUP3 ADD DUP12 PUSH2 0x4EF4 JUMP JUMPDEST SWAP9 SWAP3 DUP8 DUP11 SWAP6 SWAP4 SWAP13 SWAP3 SWAP12 PUSH2 0x4E7F DUP4 SWAP11 DUP8 ADD MLOAD PUSH2 0x14E SLOAD PUSH2 0x33EE JUMP JUMPDEST PUSH2 0x133 SLOAD PUSH1 0x1 PUSH1 0x1 PUSH1 0xA0 SHL SUB AND DUP1 EXTCODESIZE ISZERO PUSH2 0x6E3 JUMPI PUSH1 0x40 MLOAD PUSH4 0x2770A7EB PUSH1 0xE2 SHL DUP2 MSTORE CALLER PUSH1 0x4 DUP3 ADD MSTORE PUSH1 0x24 DUP2 ADD SWAP3 SWAP1 SWAP3 MSTORE PUSH1 0x0 SWAP1 DUP3 SWAP1 PUSH1 0x44 SWAP1 DUP3 SWAP1 DUP5 SWAP1 GAS CALL DUP1 ISZERO PUSH2 0x3624 JUMPI PUSH2 0x4CDE JUMPI POP SWAP4 SWAP3 SWAP2 SWAP1 JUMP JUMPDEST SWAP2 SWAP1 DUP1 DUP4 DUP2 RETURNDATASIZE DUP4 GT PUSH2 0x50FE JUMPI JUMPDEST PUSH2 0x50D4 DUP2 DUP4 PUSH2 0x2C17 JUMP JUMPDEST DUP2 ADD SUB SLT PUSH2 0x6E3 JUMPI PUSH2 0x4E98 SWAP7 PUSH2 0x5055 PUSH2 0x506F SWAP3 PUSH2 0x50F2 PUSH1 0x60 SWAP7 PUSH2 0x3597 JUMP JUMPDEST POP SWAP4 SWAP5 POP POP SWAP7 POP PUSH2 0x500D JUMP JUMPDEST POP RETURNDATASIZE PUSH2 0x50CA JUMP JUMPDEST SWAP4 SWAP2 SWAP4 PUSH2 0x5110 PUSH2 0x403A JUMP JUMPDEST POP PUSH1 0x0 SWAP1 PUSH1 0x40 SWAP1 DUP2 MLOAD SWAP6 PUSH2 0x5125 PUSH1 0xA0 DUP9 PUSH2 0x2C17 JUMP JUMPDEST DUP2 DUP8 MSTORE PUSH1 0x20 DUP1 DUP9 ADD SWAP6 DUP7 MSTORE CALLER DUP5 DUP10 ADD SWAP1 DUP2 MSTORE PUSH1 0x1 PUSH1 0x1 PUSH1 0xA0 SHL SUB SWAP10 DUP11 AND PUSH1 0x60 DUP11 ADD SWAP1 DUP2 MSTORE SWAP3 DUP11 AND PUSH1 0x80 DUP11 ADD SWAP1 DUP2 MSTORE PUSH2 0x133 DUP1 SLOAD DUP8 MLOAD PUSH4 0x40C10F19 PUSH1 0xE0 SHL DUP2 MSTORE ADDRESS PUSH1 0x4 DUP1 DUP4 ADD SWAP2 SWAP1 SWAP2 MSTORE PUSH1 0x24 DUP3 ADD DUP10 SWAP1 MSTORE SWAP5 SWAP14 SWAP4 SWAP7 SWAP5 SWAP6 SWAP4 SWAP5 SWAP3 SWAP4 SWAP1 SWAP2 DUP3 SWAP1 PUSH1 0x44 SWAP1 DUP3 SWAP1 DUP14 SWAP1 DUP10 AND GAS CALL DUP1 ISZERO PUSH2 0x53DE JUMPI PUSH2 0x53A2 JUMPI JUMPDEST POP PUSH2 0x51A2 PUSH2 0x403A JUMP JUMPDEST POP PUSH2 0x51AB PUSH2 0x42CE JUMP JUMPDEST PUSH2 0x51B3 PUSH2 0x3E0E JUMP JUMPDEST PUSH2 0x51BB PUSH2 0x3CEC JUMP JUMPDEST DUP11 PUSH2 0x51DE PUSH2 0x51D2 PUSH2 0x51CA PUSH2 0x3C29 JUMP JUMPDEST DUP2 SWAP3 SWAP2 PUSH2 0x42F0 JUMP JUMPDEST DUP2 DUP2 SWAP5 SWAP3 SWAP6 MLOAD SWAP4 PUSH2 0x53E8 JUMP JUMPDEST SWAP1 DUP1 DUP3 LT PUSH2 0x5386 JUMPI POP POP PUSH8 0xDE0B6B3A7640000 SWAP2 PUSH2 0x4117 PUSH2 0x5201 SWAP3 DUP16 MLOAD SWAP3 PUSH2 0x3A32 JUMP JUMPDEST DIV SWAP5 DUP6 ISZERO PUSH2 0x5376 JUMPI DUP13 PUSH2 0x5223 DUP6 PUSH2 0x522E SWAP16 MLOAD AND DUP9 DUP8 DUP6 MLOAD AND PUSH2 0x13D SLOAD SWAP3 PUSH2 0x4333 JUMP JUMPDEST SWAP15 SWAP2 SWAP1 SWAP16 SWAP1 DUP10 PUSH2 0x33EE JUMP JUMPDEST SWAP12 MLOAD DUP1 DUP14 LT PUSH2 0x535A JUMPI POP MLOAD SWAP7 PUSH2 0x134 PUSH2 0x5248 DUP10 DUP3 SLOAD PUSH2 0x33EE JUMP JUMPDEST SWAP1 SSTORE PUSH2 0x5258 PUSH2 0x131 SWAP2 DUP3 SLOAD PUSH2 0x33EE JUMP JUMPDEST SWAP1 SSTORE DUP5 DUP5 SLOAD AND DUP1 EXTCODESIZE ISZERO PUSH2 0x5356 JUMPI DUP10 MLOAD PUSH4 0x2770A7EB PUSH1 0xE2 SHL DUP1 DUP3 MSTORE ADDRESS DUP10 DUP4 ADD SWAP1 DUP2 MSTORE PUSH1 0x20 DUP2 ADD SWAP11 SWAP1 SWAP11 MSTORE SWAP9 SWAP1 SWAP2 DUP13 SWAP2 DUP4 SWAP2 SWAP1 DUP3 SWAP1 DUP5 SWAP1 DUP3 SWAP1 PUSH1 0x40 ADD SUB SWAP3 GAS CALL DUP1 ISZERO PUSH2 0x534C JUMPI SWAP2 DUP15 SWAP5 SWAP4 SWAP2 DUP14 SWAP4 PUSH2 0x5327 JUMPI JUMPDEST POP SWAP1 DUP7 DUP1 DUP1 PUSH2 0x52C2 SWAP8 SWAP7 SWAP6 SWAP5 MLOAD AND SWAP5 MLOAD AND SWAP2 MLOAD AND SWAP3 PUSH2 0x45D6 JUMP JUMPDEST SLOAD AND SWAP2 DUP3 EXTCODESIZE ISZERO PUSH2 0x205C JUMPI DUP5 MLOAD SWAP1 DUP2 MSTORE CALLER SWAP2 DUP2 ADD SWAP2 DUP3 MSTORE PUSH1 0x20 DUP3 ADD SWAP4 SWAP1 SWAP4 MSTORE SWAP2 SWAP3 SWAP2 DUP5 SWAP2 DUP5 SWAP2 DUP3 SWAP1 DUP5 SWAP1 DUP3 SWAP1 PUSH1 0x40 ADD JUMPDEST SUB SWAP3 GAS CALL SWAP1 DUP2 ISZERO PUSH2 0x531E JUMPI POP PUSH2 0x5309 JUMPI JUMPDEST POP POP SWAP3 SWAP2 SWAP1 JUMP JUMPDEST PUSH2 0x5314 DUP3 DUP1 SWAP3 PUSH2 0x2C17 JUMP JUMPDEST PUSH2 0x7D6 JUMPI DUP1 PUSH2 0x5302 JUMP JUMPDEST MLOAD RETURNDATASIZE DUP5 DUP3 RETURNDATACOPY RETURNDATASIZE SWAP1 REVERT JUMPDEST DUP8 DUP1 DUP15 PUSH2 0x52C2 SWAP9 SWAP8 SWAP7 SWAP6 SWAP5 SWAP16 PUSH2 0x533E SWAP1 DUP4 SWAP6 PUSH2 0x2C17 JUMP JUMPDEST SWAP15 SWAP4 SWAP5 SWAP6 SWAP7 SWAP8 POP POP POP PUSH2 0x52A8 JUMP JUMPDEST DUP11 MLOAD RETURNDATASIZE DUP14 DUP3 RETURNDATACOPY RETURNDATASIZE SWAP1 REVERT JUMPDEST DUP11 DUP1 REVERT JUMPDEST DUP8 DUP14 PUSH1 0x44 SWAP3 DUP14 MLOAD SWAP3 PUSH4 0x54CDE313 PUSH1 0xE0 SHL DUP5 MSTORE DUP4 ADD MSTORE PUSH1 0x24 DUP3 ADD MSTORE REVERT JUMPDEST DUP8 MLOAD PUSH4 0xF3E39B5D PUSH1 0xE0 SHL DUP2 MSTORE DUP6 SWAP1 REVERT JUMPDEST PUSH1 0x44 SWAP2 DUP9 SWAP2 DUP13 MLOAD SWAP3 PUSH4 0xA5DB715D PUSH1 0xE0 SHL DUP5 MSTORE DUP4 ADD MSTORE PUSH1 0x24 DUP3 ADD MSTORE REVERT JUMPDEST PUSH1 0x20 DUP2 RETURNDATASIZE DUP3 GT PUSH2 0x53D6 JUMPI JUMPDEST DUP2 PUSH2 0x53BA PUSH1 0x20 SWAP4 DUP4 PUSH2 0x2C17 JUMP JUMPDEST DUP2 ADD SUB SLT PUSH2 0x53D2 JUMPI PUSH2 0x53CB SWAP1 PUSH2 0x3597 JUMP JUMPDEST POP CODESIZE PUSH2 0x5199 JUMP JUMPDEST DUP9 DUP1 REVERT JUMPDEST RETURNDATASIZE SWAP2 POP PUSH2 0x53AD JUMP JUMPDEST DUP9 MLOAD RETURNDATASIZE DUP12 DUP3 RETURNDATACOPY RETURNDATASIZE SWAP1 REVERT JUMPDEST PUSH2 0x486A PUSH2 0x53F6 DUP5 DUP5 DUP5 PUSH2 0x3A81 JUMP JUMPDEST PUSH2 0x229A DUP6 DUP6 PUSH2 0x3A32 JUMP JUMPDEST SWAP1 SWAP5 SWAP3 SWAP5 PUSH2 0x540C PUSH2 0x403A JUMP JUMPDEST POP PUSH1 0x0 SWAP1 PUSH1 0x40 SWAP1 DUP2 MLOAD SWAP4 PUSH2 0x5421 PUSH1 0xC0 DUP7 PUSH2 0x2C17 JUMP JUMPDEST PUSH1 0x1 PUSH1 0x1 PUSH1 0xA0 SHL SUB SWAP1 DUP2 AND DUP1 DUP7 MSTORE PUSH1 0x20 DUP1 DUP8 ADD DUP5 DUP2 MSTORE DUP6 DUP9 ADD SWAP9 DUP10 MSTORE CALLER PUSH1 0x60 DUP10 ADD SWAP1 DUP2 MSTORE SWAP12 DUP5 AND PUSH1 0x80 DUP10 ADD SWAP1 DUP2 MSTORE SWAP11 DUP5 AND PUSH1 0xA0 DUP10 ADD SWAP1 DUP2 MSTORE DUP7 MLOAD PUSH4 0x40C10F19 PUSH1 0xE0 SHL DUP2 MSTORE ADDRESS PUSH1 0x4 DUP3 ADD MSTORE PUSH1 0x24 DUP2 ADD DUP8 SWAP1 MSTORE SWAP3 SWAP13 SWAP2 SWAP12 SWAP2 SWAP9 SWAP4 SWAP5 SWAP4 SWAP2 SWAP3 SWAP1 SWAP2 SWAP1 DUP14 DUP2 PUSH1 0x44 DUP2 DUP13 DUP11 GAS CALL DUP1 ISZERO PUSH2 0x53DE JUMPI PUSH2 0x564B JUMPI JUMPDEST POP DUP12 PUSH2 0x5512 DUP10 PUSH2 0x551D SWAP16 DUP8 SWAP5 PUSH2 0x145 DUP15 SWAP3 PUSH2 0x54AD PUSH2 0x403A JUMP JUMPDEST POP PUSH2 0x54B6 PUSH2 0x42CE JUMP JUMPDEST PUSH2 0x54BE PUSH2 0x3E0E JUMP JUMPDEST PUSH2 0x54F7 PUSH2 0x54C9 PUSH2 0x3630 JUMP JUMPDEST PUSH2 0x54D5 DUP11 DUP7 MLOAD AND PUSH2 0x3515 JUMP JUMPDEST SWAP9 PUSH2 0x54EF PUSH2 0x54E3 DUP12 DUP5 PUSH2 0x31E4 JUMP JUMPDEST MLOAD SWAP3 PUSH2 0x4105 DUP5 DUP14 PUSH2 0x397C JUMP JUMPDEST POP POP MLOAD PUSH2 0x59AC JUMP JUMPDEST SWAP11 DUP12 SWAP5 MLOAD AND SWAP5 DUP9 DUP1 DUP12 MLOAD AND SWAP5 MLOAD AND SWAP1 MSTORE MSTORE DUP12 DUP14 KECCAK256 SLOAD SWAP3 PUSH2 0x4333 JUMP JUMPDEST SWAP15 SWAP2 SWAP1 SWAP16 SWAP1 DUP8 PUSH2 0x33EE JUMP JUMPDEST SWAP12 DUP7 ISZERO PUSH2 0x563A JUMPI MLOAD DUP1 DUP14 LT PUSH2 0x561D JUMPI POP DUP3 SWAP2 PUSH2 0x5568 SWAP2 PUSH2 0x553E PUSH1 0x1 DUP16 PUSH2 0x4896 JUMP JUMPDEST MLOAD SWAP7 PUSH2 0x554C DUP3 PUSH2 0x137 PUSH2 0x2BFB JUMP JUMPDEST POP PUSH2 0x5558 DUP10 DUP3 SLOAD PUSH2 0x33EE JUMP JUMPDEST SWAP1 SSTORE PUSH2 0x38E7 PUSH2 0x131 SWAP2 DUP3 SLOAD PUSH2 0x33EE JUMP JUMPDEST SWAP1 SLOAD SWAP1 PUSH1 0x3 SHL SHR AND DUP1 EXTCODESIZE ISZERO PUSH2 0x53D2 JUMPI DUP8 MLOAD PUSH4 0x2770A7EB PUSH1 0xE2 SHL DUP1 DUP3 MSTORE ADDRESS PUSH1 0x4 DUP4 ADD MSTORE PUSH1 0x24 DUP3 ADD SWAP7 SWAP1 SWAP7 MSTORE SWAP1 DUP10 SWAP1 DUP3 SWAP1 PUSH1 0x44 SWAP1 DUP3 SWAP1 DUP5 SWAP1 GAS CALL DUP1 ISZERO PUSH2 0x53DE JUMPI SWAP2 DUP14 SWAP5 SWAP4 SWAP2 DUP13 SWAP4 PUSH2 0x55FD JUMPI JUMPDEST POP DUP1 DUP1 PUSH2 0x55CC SWAP8 SWAP9 SWAP10 SWAP11 SWAP12 SWAP13 MLOAD AND SWAP5 MLOAD AND SWAP2 MLOAD AND SWAP3 PUSH2 0x45D6 JUMP JUMPDEST DUP2 EXTCODESIZE ISZERO PUSH2 0x55F9 JUMPI DUP4 MLOAD SWAP1 DUP2 MSTORE CALLER PUSH1 0x4 DUP3 ADD MSTORE PUSH1 0x24 DUP2 ADD SWAP3 SWAP1 SWAP3 MSTORE SWAP1 SWAP2 SWAP1 DUP4 SWAP1 DUP4 SWAP1 DUP2 DUP4 DUP2 PUSH1 0x44 DUP2 ADD PUSH2 0x52F1 JUMP JUMPDEST DUP5 DUP1 REVERT JUMPDEST DUP2 DUP12 PUSH2 0x5611 PUSH2 0x55CC SWAP10 SWAP11 SWAP12 SWAP13 SWAP14 DUP4 SWAP5 PUSH2 0x2C17 JUMP JUMPDEST SWAP12 SWAP11 SWAP10 SWAP9 SWAP8 POP POP PUSH2 0x55B2 JUMP JUMPDEST PUSH1 0x44 SWAP1 DUP14 DUP12 MLOAD SWAP2 PUSH4 0x54CDE313 PUSH1 0xE0 SHL DUP4 MSTORE PUSH1 0x4 DUP4 ADD MSTORE PUSH1 0x24 DUP3 ADD MSTORE REVERT JUMPDEST DUP10 MLOAD PUSH4 0xF3E39B5D PUSH1 0xE0 SHL DUP2 MSTORE PUSH1 0x4 SWAP1 REVERT JUMPDEST DUP14 DUP2 DUP2 RETURNDATASIZE DUP4 GT PUSH2 0x5692 JUMPI JUMPDEST PUSH2 0x5660 DUP2 DUP4 PUSH2 0x2C17 JUMP JUMPDEST DUP2 ADD SUB SLT PUSH2 0x53D2 JUMPI PUSH2 0x5512 DUP10 PUSH2 0x551D SWAP16 DUP16 SWAP4 SWAP5 PUSH2 0x145 DUP15 SWAP3 PUSH2 0x5682 DUP12 SWAP9 PUSH2 0x3597 JUMP JUMPDEST POP SWAP15 POP POP SWAP5 POP SWAP12 SWAP16 POP POP POP PUSH2 0x5494 JUMP JUMPDEST POP RETURNDATASIZE PUSH2 0x5656 JUMP JUMPDEST SWAP1 SWAP2 SWAP3 SWAP6 SWAP4 SWAP5 SWAP6 PUSH2 0x56A8 PUSH2 0x403A JUMP JUMPDEST POP PUSH1 0x0 SWAP7 PUSH1 0x40 MLOAD SWAP7 PUSH2 0x56BB PUSH1 0xE0 DUP10 PUSH2 0x2C17 JUMP JUMPDEST PUSH1 0x1 PUSH1 0x1 PUSH1 0xA0 SHL SUB DUP5 DUP2 AND DUP1 DUP11 MSTORE PUSH1 0x20 DUP1 DUP12 ADD DUP9 SWAP1 MSTORE PUSH1 0x40 DUP1 DUP13 ADD DUP11 SWAP1 MSTORE PUSH1 0x60 DUP13 ADD SWAP7 SWAP1 SWAP7 MSTORE CALLER PUSH1 0x80 DUP13 ADD MSTORE SWAP3 DUP3 AND PUSH1 0xA0 DUP12 ADD MSTORE SWAP3 AND PUSH1 0xC0 DUP10 ADD MSTORE SWAP2 MLOAD PUSH4 0x40C10F19 PUSH1 0xE0 SHL DUP1 DUP3 MSTORE ADDRESS PUSH1 0x4 DUP4 ADD MSTORE PUSH1 0x24 DUP3 ADD DUP8 SWAP1 MSTORE SWAP2 DUP4 SWAP1 DUP3 SWAP1 PUSH1 0x44 SWAP1 DUP3 SWAP1 DUP14 SWAP1 GAS CALL DUP1 ISZERO PUSH2 0x59A1 JUMPI PUSH2 0x596D JUMPI JUMPDEST POP PUSH2 0x133 SLOAD PUSH1 0x40 MLOAD SWAP2 DUP3 MSTORE ADDRESS PUSH1 0x4 DUP4 ADD MSTORE PUSH1 0x24 DUP3 ADD DUP6 SWAP1 MSTORE DUP3 SWAP1 DUP3 SWAP1 PUSH1 0x44 SWAP1 DUP3 SWAP1 DUP13 SWAP1 PUSH1 0x1 PUSH1 0x1 PUSH1 0xA0 SHL SUB AND GAS CALL DUP1 ISZERO PUSH2 0x5962 JUMPI PUSH2 0x5914 JUMPI JUMPDEST POP SWAP2 PUSH2 0x57E2 SWAP7 SWAP2 PUSH2 0x57AB PUSH2 0x3A52 SWAP7 SWAP6 SWAP5 PUSH2 0x577A PUSH2 0x403A JUMP JUMPDEST POP PUSH2 0x5783 PUSH2 0x42CE JUMP JUMPDEST PUSH2 0x578B PUSH2 0x3E0E JUMP JUMPDEST PUSH1 0x40 MLOAD PUSH4 0x3DAD0BD7 PUSH1 0xE1 SHL DUP3 DUP3 ADD MSTORE PUSH2 0x4E58 SWAP1 PUSH2 0x4E48 PUSH1 0x24 DUP3 ADD DUP13 PUSH2 0x4EF4 JUMP JUMPDEST PUSH1 0x80 DUP12 ADD MLOAD PUSH1 0xA0 DUP13 ADD MLOAD PUSH1 0xC0 SWAP1 SWAP13 ADD MLOAD SWAP4 SWAP13 SWAP3 SWAP12 SWAP2 SWAP11 SWAP5 SWAP9 SWAP3 SWAP5 DUP14 SWAP5 SWAP1 SWAP3 DUP13 SWAP3 PUSH1 0x1 PUSH1 0x1 PUSH1 0xA0 SHL SUB SWAP3 DUP4 AND SWAP3 DUP13 SWAP3 DUP2 AND SWAP2 AND PUSH2 0x45D6 JUMP JUMPDEST SWAP1 PUSH1 0x1 PUSH1 0x1 PUSH1 0xA0 SHL SUB DUP2 AND EXTCODESIZE ISZERO PUSH2 0xA47 JUMPI PUSH1 0x40 MLOAD PUSH4 0x2770A7EB PUSH1 0xE2 SHL DUP1 DUP3 MSTORE ADDRESS PUSH1 0x4 DUP4 ADD MSTORE PUSH1 0x24 DUP3 ADD SWAP4 SWAP1 SWAP4 MSTORE DUP5 DUP2 PUSH1 0x44 DUP2 DUP4 PUSH1 0x1 PUSH1 0x1 PUSH1 0xA0 SHL SUB DUP8 AND GAS CALL DUP1 ISZERO PUSH2 0x5909 JUMPI PUSH2 0x58F5 JUMPI JUMPDEST POP PUSH1 0x1 PUSH1 0x1 PUSH1 0xA0 SHL SUB DUP2 AND EXTCODESIZE ISZERO PUSH2 0xA47 JUMPI PUSH1 0x40 MLOAD DUP3 DUP2 MSTORE CALLER PUSH1 0x4 DUP3 ADD MSTORE PUSH1 0x24 DUP2 ADD DUP11 SWAP1 MSTORE SWAP1 DUP5 SWAP1 DUP3 SWAP1 PUSH1 0x44 SWAP1 DUP3 SWAP1 DUP5 SWAP1 PUSH1 0x1 PUSH1 0x1 PUSH1 0xA0 SHL SUB AND GAS CALL DUP1 ISZERO PUSH2 0x4548 JUMPI SWAP1 DUP5 SWAP2 PUSH2 0x58E0 JUMPI JUMPDEST POP POP PUSH2 0x133 SLOAD PUSH1 0x1 PUSH1 0x1 PUSH1 0xA0 SHL SUB AND SWAP1 DUP2 EXTCODESIZE ISZERO PUSH2 0xA47 JUMPI PUSH1 0x40 MLOAD SWAP1 DUP2 MSTORE CALLER PUSH1 0x4 DUP3 ADD MSTORE PUSH1 0x24 DUP2 ADD SWAP3 SWAP1 SWAP3 MSTORE DUP3 SWAP1 DUP3 SWAP1 PUSH1 0x44 SWAP1 DUP3 SWAP1 DUP5 SWAP1 GAS CALL DUP1 ISZERO PUSH2 0x58D5 JUMPI PUSH2 0x58C0 JUMPI JUMPDEST POP POP SWAP4 SWAP3 SWAP2 SWAP1 JUMP JUMPDEST PUSH2 0x58CB DUP3 DUP1 SWAP3 PUSH2 0x2C17 JUMP JUMPDEST PUSH2 0x7D6 JUMPI DUP1 PUSH2 0x58B8 JUMP JUMPDEST PUSH1 0x40 MLOAD RETURNDATASIZE DUP5 DUP3 RETURNDATACOPY RETURNDATASIZE SWAP1 REVERT JUMPDEST DUP2 PUSH2 0x58EA SWAP2 PUSH2 0x2C17 JUMP JUMPDEST PUSH2 0x94E JUMPI DUP3 CODESIZE PUSH2 0x5875 JUMP JUMPDEST DUP5 PUSH2 0x5902 SWAP2 SWAP6 SWAP3 SWAP6 PUSH2 0x2C17 JUMP JUMPDEST SWAP3 CODESIZE PUSH2 0x582C JUMP JUMPDEST PUSH1 0x40 MLOAD RETURNDATASIZE DUP8 DUP3 RETURNDATACOPY RETURNDATASIZE SWAP1 REVERT JUMPDEST DUP2 DUP2 DUP2 RETURNDATASIZE DUP4 GT PUSH2 0x595B JUMPI JUMPDEST PUSH2 0x5929 DUP2 DUP4 PUSH2 0x2C17 JUMP JUMPDEST DUP2 ADD SUB SLT PUSH2 0x5957 JUMPI SWAP2 PUSH2 0x57AB PUSH2 0x3A52 SWAP7 SWAP6 SWAP5 SWAP3 PUSH2 0x5949 PUSH2 0x57E2 SWAP11 SWAP6 PUSH2 0x3597 JUMP JUMPDEST POP SWAP3 SWAP5 SWAP6 SWAP7 POP POP SWAP2 SWAP7 PUSH2 0x5762 JUMP JUMPDEST DUP8 DUP1 REVERT JUMPDEST POP RETURNDATASIZE PUSH2 0x591F JUMP JUMPDEST PUSH1 0x40 MLOAD RETURNDATASIZE DUP11 DUP3 RETURNDATACOPY RETURNDATASIZE SWAP1 REVERT JUMPDEST DUP3 DUP2 DUP2 RETURNDATASIZE DUP4 GT PUSH2 0x599A JUMPI JUMPDEST PUSH2 0x5982 DUP2 DUP4 PUSH2 0x2C17 JUMP JUMPDEST DUP2 ADD SUB SLT PUSH2 0x53D2 JUMPI PUSH2 0x5993 SWAP1 PUSH2 0x3597 JUMP JUMPDEST POP CODESIZE PUSH2 0x5729 JUMP JUMPDEST POP RETURNDATASIZE PUSH2 0x5978 JUMP JUMPDEST PUSH1 0x40 MLOAD RETURNDATASIZE DUP12 DUP3 RETURNDATACOPY RETURNDATASIZE SWAP1 REVERT JUMPDEST SWAP1 PUSH8 0xDE0B6B3A7640000 SWAP2 DUP3 DUP2 MUL SWAP3 DUP2 DUP5 DIV EQ SWAP1 ISZERO OR ISZERO PUSH2 0x3205 JUMPI PUSH2 0x2B69 SWAP2 PUSH2 0x333F JUMP JUMPDEST PUSH8 0xDE0B6B3A7640000 LT PUSH2 0x59E0 JUMPI JUMP JUMPDEST PUSH1 0x40 MLOAD PUSH4 0x2A9FFAB7 PUSH1 0xE2 SHL DUP2 MSTORE PUSH1 0x4 SWAP1 REVERT INVALID LOG2 PUSH5 0x6970667358 0x22 SLT KECCAK256 EXTCODESIZE SWAP6 0xE0 0xD1 0xA6 MULMOD PC PUSH3 0xD6FED6 DIFFICULTY CODESIZE 0xBF GAS XOR DUP7 0xD3 0x4D 0x29 JUMPDEST CREATE SWAP11 DUP16 0xEA CODESIZE GASLIMIT POP 0x4E 0xE9 CALLDATASIZE 0x25 PUSH5 0x736F6C6343 STOP ADDMOD EQ STOP CALLER "
    },
    "gasEstimates": {
      "creation": {
        "codeDepositCost": "4616000",
        "executionCost": "infinite",
        "totalCost": "infinite"
      },
      "external": {
        "absoluteAccumulator()": "4955",
        "acToken()": "2732",
        "addPeggedToken((address,address,uint256,uint256,uint256,uint256,uint256))": "infinite",
        "appreciationFactor()": "5439",
        "bes()": "3239",
        "bns()": "2579",
        "calcCtargemaCA()": "infinite",
        "changeGovernor(address)": "infinite",
        "decayBlockSpan()": "3723",
        "differentialAccumulator()": "3855",
        "editPeggedToken((address,address,uint256,uint256,uint256,uint256,uint256))": "infinite",
        "emaCalculationBlockSpan()": "3965",
        "evalLiquidation()": "infinite",
        "execSettlement()": "infinite",
        "feeRetainer()": "3283",
        "feeToken()": "3612",
        "feeTokenPct()": "2843",
        "feeTokenPriceProvider()": "5306",
        "getBts()": "5336",
        "getCglb()": "infinite",
        "getLckAC()": "infinite",
        "getLeverageTC()": "infinite",
        "getPACtp(address)": "infinite",
        "getPTCac()": "infinite",
        "getTCAvailableToRedeem()": "infinite",
        "getTPAvailableToMint(address)": "infinite",
        "getTotalACavailable()": "infinite",
        "governor()": "2402",
        "initialize((((address,address,address,address,address,address,uint256,uint256,uint256,uint256,uint256,uint256,uint256,uint256,uint256,uint256,uint256,uint256,uint256,uint256,address,uint256,uint256,address,address,uint256),address,address,address,uint256,address),address))": "infinite",
        "isLiquidationReached()": "infinite",
        "lastOperationBlockNumber()": "3437",
        "liqEnabled()": "5209",
        "liqRedeemTP(address)": "infinite",
        "liqRedeemTPto(address,address)": "infinite",
        "liqThrld()": "4273",
        "liquidated()": "2685",
        "makeStoppable()": "infinite",
        "makeUnstoppable()": "infinite",
        "maxAbsoluteOpProvider()": "5284",
        "maxOpDiffProvider()": "4668",
        "maxQACToMintTP()": "infinite",
        "maxQACToRedeemTP()": "infinite",
        "mintTC(uint256,uint256)": "infinite",
        "mintTCViaVendor(uint256,uint256,address)": "infinite",
        "mintTCandTP(address,uint256,uint256)": "infinite",
        "mintTCandTPFee()": "3899",
        "mintTCandTPViaVendor(address,uint256,uint256,address)": "infinite",
        "mintTCandTPto(address,uint256,uint256,address)": "infinite",
        "mintTCandTPtoViaVendor(address,uint256,uint256,address,address)": "infinite",
        "mintTCto(uint256,uint256,address)": "infinite",
        "mintTCtoViaVendor(uint256,uint256,address,address)": "infinite",
        "mintTP(address,uint256,uint256)": "infinite",
        "mintTPViaVendor(address,uint256,uint256,address)": "infinite",
        "mintTPto(address,uint256,uint256,address)": "infinite",
        "mintTPtoViaVendor(address,uint256,uint256,address,address)": "infinite",
        "mocAppreciationBeneficiaryAddress()": "3282",
        "mocFeeFlowAddress()": "4360",
        "mocQueue()": "2534",
        "mocVendors()": "4096",
        "nACcb()": "5373",
        "nTCcb()": "3921",
        "nextEmaCalculation()": "2403",
        "nextTCInterestPayment()": "4691",
        "pause()": "29547",
        "paused()": "3499",
        "pauser()": "4501",
        "pegContainer(uint256)": "9716",
        "peggedTokenIndex(address)": "6699",
        "protThrld()": "3701",
        "proxiableUUID()": "infinite",
        "qACLockedInPending()": "3503",
        "redeemTC(uint256,uint256)": "infinite",
        "redeemTCViaVendor(uint256,uint256,address)": "infinite",
        "redeemTCandTP(address,uint256,uint256,uint256)": "infinite",
        "redeemTCandTPFee()": "5395",
        "redeemTCandTPViaVendor(address,uint256,uint256,uint256,address)": "infinite",
        "redeemTCandTPto(address,uint256,uint256,uint256,address)": "infinite",
        "redeemTCandTPtoViaVendor(address,uint256,uint256,uint256,address,address)": "infinite",
        "redeemTCto(uint256,uint256,address)": "infinite",
        "redeemTCtoViaVendor(uint256,uint256,address,address)": "infinite",
        "redeemTP(address,uint256,uint256)": "infinite",
        "redeemTPViaVendor(address,uint256,uint256,address)": "infinite",
        "redeemTPto(address,uint256,uint256,address)": "infinite",
        "redeemTPtoViaVendor(address,uint256,uint256,address,address)": "infinite",
        "refreshACBalance()": "infinite",
        "setAppreciationFactor(uint256)": "infinite",
        "setBes(uint256)": "infinite",
        "setDecayBlockSpan(uint256)": "infinite",
        "setEmaCalculationBlockSpan(uint256)": "infinite",
        "setFeeRetainer(uint256)": "infinite",
        "setFeeTokenAddress(address)": "infinite",
        "setFeeTokenPct(uint256)": "infinite",
        "setFeeTokenPriceProviderAddress(address)": "infinite",
        "setLiqEnabled(bool)": "infinite",
        "setLiqThrld(uint256)": "infinite",
        "setMaxAbsoluteOpProviderAddress(address)": "infinite",
        "setMaxOpDiffProviderAddress(address)": "infinite",
        "setMintTCandTPFee(uint256)": "infinite",
        "setMocAppreciationBeneficiaryAddress(address)": "infinite",
        "setMocCoreExpansion(address)": "infinite",
        "setMocFeeFlowAddress(address)": "infinite",
        "setMocQueue(address)": "infinite",
        "setMocVendors(address)": "infinite",
        "setPauser(address)": "infinite",
        "setProtThrld(uint256)": "infinite",
        "setRedeemTCandTPFee(uint256)": "infinite",
        "setSuccessFee(uint256)": "infinite",
        "setSwapTCforTPFee(uint256)": "infinite",
        "setSwapTPforTCFee(uint256)": "infinite",
        "setSwapTPforTPFee(uint256)": "infinite",
        "setTCInterestCollectorAddress(address)": "infinite",
        "setTCInterestPaymentBlockSpan(uint256)": "infinite",
        "setTCInterestRate(uint256)": "infinite",
        "setTcMintFee(uint256)": "infinite",
        "setTcRedeemFee(uint256)": "infinite",
        "shouldCalculateEma()": "4523",
        "stoppable()": "4725",
        "successFee()": "3833",
        "swapTCforTP(address,uint256,uint256,uint256)": "infinite",
        "swapTCforTPFee()": "2755",
        "swapTCforTPViaVendor(address,uint256,uint256,uint256,address)": "infinite",
        "swapTCforTPto(address,uint256,uint256,uint256,address)": "infinite",
        "swapTCforTPtoViaVendor(address,uint256,uint256,uint256,address,address)": "infinite",
        "swapTPforTC(address,uint256,uint256,uint256)": "infinite",
        "swapTPforTCFee()": "2865",
        "swapTPforTCViaVendor(address,uint256,uint256,uint256,address)": "infinite",
        "swapTPforTCto(address,uint256,uint256,uint256,address)": "infinite",
        "swapTPforTCtoViaVendor(address,uint256,uint256,uint256,address,address)": "infinite",
        "swapTPforTP(address,address,uint256,uint256,uint256)": "infinite",
        "swapTPforTPFee()": "3085",
        "swapTPforTPViaVendor(address,address,uint256,uint256,uint256,address)": "infinite",
        "swapTPforTPto(address,address,uint256,uint256,uint256,address)": "infinite",
        "swapTPforTPtoViaVendor(address,address,uint256,uint256,uint256,address,address)": "infinite",
        "tcHoldersInterestPayment()": "infinite",
        "tcInterestCollectorAddress()": "4316",
        "tcInterestPaymentBlockSpan()": "4119",
        "tcInterestRate()": "2447",
        "tcMintFee()": "5505",
        "tcRedeemFee()": "4603",
        "tcToken()": "3568",
        "tpCtarg(uint256)": "8419",
        "tpEma(uint256)": "11653",
        "tpLiqPrices(uint256)": "7319",
        "tpMintFees(address)": "2801",
        "tpRedeemFees(address)": "5133",
        "tpTokens(uint256)": "6677",
        "unpause()": "26251",
        "updateEmas()": "infinite",
        "upgradeTo(address)": "infinite",
        "upgradeToAndCall(address,bytes)": "infinite"
      },
      "internal": {
        "_mintTCandTPtoViaVendor(address,uint256,uint256,address,address)": "infinite",
        "_mintTCtoViaVendor(uint256,uint256,address,address)": "infinite",
        "_mintTPtoViaVendor(address,uint256,uint256,address,address)": "infinite",
        "_redeemTCandTPtoViaVendor(address,uint256,uint256,uint256,address,address)": "infinite",
        "_redeemTCtoViaVendor(uint256,uint256,address,address)": "infinite",
        "_redeemTPtoViaVendor(address,uint256,uint256,address,address)": "infinite",
        "_swapTCforTPtoViaVendor(address,uint256,uint256,uint256,address,address)": "infinite",
        "_swapTPforTCtoViaVendor(address,uint256,uint256,uint256,address,address)": "infinite",
        "_swapTPforTPtoViaVendor(address,address,uint256,uint256,uint256,address,address)": "infinite",
        "acBalanceOf(address)": "infinite",
        "acTransfer(address,uint256)": "infinite"
      }
    },
    "methodIdentifiers": {
      "absoluteAccumulator()": "d87aab6f",
      "acToken()": "25bc6c41",
      "addPeggedToken((address,address,uint256,uint256,uint256,uint256,uint256))": "db796072",
      "appreciationFactor()": "fa6e83bd",
      "bes()": "4d977e78",
      "bns()": "1867e2f5",
      "calcCtargemaCA()": "662013f4",
      "changeGovernor(address)": "e4c0aaf4",
      "decayBlockSpan()": "6f30471f",
      "differentialAccumulator()": "76228055",
      "editPeggedToken((address,address,uint256,uint256,uint256,uint256,uint256))": "f26114aa",
      "emaCalculationBlockSpan()": "7a727fe8",
      "evalLiquidation()": "33421c38",
      "execSettlement()": "5c616a73",
      "feeRetainer()": "4f0f27ee",
      "feeToken()": "647846a5",
      "feeTokenPct()": "2ded50f0",
      "feeTokenPriceProvider()": "f13f4054",
      "getBts()": "e8859a15",
      "getCglb()": "826fcd58",
      "getLckAC()": "8f1a383a",
      "getLeverageTC()": "c039cc69",
      "getPACtp(address)": "fadda424",
      "getPTCac()": "1fb0dda0",
      "getTCAvailableToRedeem()": "4017936a",
      "getTPAvailableToMint(address)": "f88b1434",
      "getTotalACavailable()": "de8d520a",
      "governor()": "0c340a24",
      "initialize((((address,address,address,address,address,address,uint256,uint256,uint256,uint256,uint256,uint256,uint256,uint256,uint256,uint256,uint256,uint256,uint256,uint256,address,uint256,uint256,address,address,uint256),address,address,address,uint256,address),address))": "60a01dfa",
      "isLiquidationReached()": "9ad6659d",
      "lastOperationBlockNumber()": "5860ee63",
      "liqEnabled()": "e7c25978",
      "liqRedeemTP(address)": "17937f9b",
      "liqRedeemTPto(address,address)": "9bea71a4",
      "liqThrld()": "8cfa4241",
      "liquidated()": "23b98cde",
      "makeStoppable()": "68274357",
      "makeUnstoppable()": "5210570c",
      "maxAbsoluteOpProvider()": "ee1f438f",
      "maxOpDiffProvider()": "b5e9ea8c",
      "maxQACToMintTP()": "d6af11da",
      "maxQACToRedeemTP()": "7f13b998",
      "mintTC(uint256,uint256)": "0bb7f608",
      "mintTCViaVendor(uint256,uint256,address)": "ffe31539",
      "mintTCandTP(address,uint256,uint256)": "44719ee9",
      "mintTCandTPFee()": "79f9a91c",
      "mintTCandTPViaVendor(address,uint256,uint256,address)": "98b2086f",
      "mintTCandTPto(address,uint256,uint256,address)": "c239fca4",
      "mintTCandTPtoViaVendor(address,uint256,uint256,address,address)": "d76dc7fd",
      "mintTCto(uint256,uint256,address)": "4310adc6",
      "mintTCtoViaVendor(uint256,uint256,address,address)": "fed0ade4",
      "mintTP(address,uint256,uint256)": "484ad7cd",
      "mintTPViaVendor(address,uint256,uint256,address)": "f2f9f456",
      "mintTPto(address,uint256,uint256,address)": "aaf925f6",
      "mintTPtoViaVendor(address,uint256,uint256,address,address)": "9fd8ed0e",
      "mocAppreciationBeneficiaryAddress()": "4e1f907a",
      "mocFeeFlowAddress()": "9853c35a",
      "mocQueue()": "13ed7ba5",
      "mocVendors()": "7f01c715",
      "nACcb()": "f30b5614",
      "nTCcb()": "7a193c31",
      "nextEmaCalculation()": "0c36d897",
      "nextTCInterestPayment()": "b9fa6413",
      "pause()": "8456cb59",
      "paused()": "5c975abb",
      "pauser()": "9fd0506d",
      "pegContainer(uint256)": "4b746001",
      "peggedTokenIndex(address)": "9cabfc00",
      "protThrld()": "6b5488df",
      "proxiableUUID()": "52d1902d",
      "qACLockedInPending()": "5cfbe578",
      "redeemTC(uint256,uint256)": "9abb14c9",
      "redeemTCViaVendor(uint256,uint256,address)": "471a80e3",
      "redeemTCandTP(address,uint256,uint256,uint256)": "34246862",
      "redeemTCandTPFee()": "f375cfba",
      "redeemTCandTPViaVendor(address,uint256,uint256,uint256,address)": "aeb41e69",
      "redeemTCandTPto(address,uint256,uint256,uint256,address)": "fd80fa77",
      "redeemTCandTPtoViaVendor(address,uint256,uint256,uint256,address,address)": "5ece17ef",
      "redeemTCto(uint256,uint256,address)": "e4012945",
      "redeemTCtoViaVendor(uint256,uint256,address,address)": "3dbc50a9",
      "redeemTP(address,uint256,uint256)": "466b8934",
      "redeemTPViaVendor(address,uint256,uint256,address)": "8acc2011",
      "redeemTPto(address,uint256,uint256,address)": "52e18f8f",
      "redeemTPtoViaVendor(address,uint256,uint256,address,address)": "89fd503e",
      "refreshACBalance()": "e23c135c",
      "setAppreciationFactor(uint256)": "01dde6ef",
      "setBes(uint256)": "c84353c9",
      "setDecayBlockSpan(uint256)": "73e28af9",
      "setEmaCalculationBlockSpan(uint256)": "3bc4ac0a",
      "setFeeRetainer(uint256)": "7750ba0c",
      "setFeeTokenAddress(address)": "cf351c1d",
      "setFeeTokenPct(uint256)": "543aeb48",
      "setFeeTokenPriceProviderAddress(address)": "0f1e5e2b",
      "setLiqEnabled(bool)": "1fe6a7ad",
      "setLiqThrld(uint256)": "2c43bd3b",
      "setMaxAbsoluteOpProviderAddress(address)": "d8db6f5a",
      "setMaxOpDiffProviderAddress(address)": "85bf9593",
      "setMintTCandTPFee(uint256)": "2069f753",
      "setMocAppreciationBeneficiaryAddress(address)": "27eab2a1",
      "setMocCoreExpansion(address)": "e6a683e0",
      "setMocFeeFlowAddress(address)": "0d6ac463",
      "setMocQueue(address)": "3cfb09ef",
      "setMocVendors(address)": "533a4bea",
      "setPauser(address)": "2d88af4a",
      "setProtThrld(uint256)": "7cba2383",
      "setRedeemTCandTPFee(uint256)": "7a4ff1d9",
      "setSuccessFee(uint256)": "becaca6b",
      "setSwapTCforTPFee(uint256)": "7af5758c",
      "setSwapTPforTCFee(uint256)": "0e0a8fd2",
      "setSwapTPforTPFee(uint256)": "70713468",
      "setTCInterestCollectorAddress(address)": "735d3960",
      "setTCInterestPaymentBlockSpan(uint256)": "073763b9",
      "setTCInterestRate(uint256)": "64ec230a",
      "setTcMintFee(uint256)": "f2808778",
      "setTcRedeemFee(uint256)": "c00f538d",
      "shouldCalculateEma()": "a8e9ac30",
      "stoppable()": "bb4872de",
      "successFee()": "7554fffd",
      "swapTCforTP(address,uint256,uint256,uint256)": "b85edd65",
      "swapTCforTPFee()": "2a20d57d",
      "swapTCforTPViaVendor(address,uint256,uint256,uint256,address)": "aaf91eff",
      "swapTCforTPto(address,uint256,uint256,uint256,address)": "842d5748",
      "swapTCforTPtoViaVendor(address,uint256,uint256,uint256,address,address)": "2b764fad",
      "swapTPforTC(address,uint256,uint256,uint256)": "ac0c88ab",
      "swapTPforTCFee()": "333431fd",
      "swapTPforTCViaVendor(address,uint256,uint256,uint256,address)": "74873ad3",
      "swapTPforTCto(address,uint256,uint256,uint256,address)": "ea302a97",
      "swapTPforTCtoViaVendor(address,uint256,uint256,uint256,address,address)": "15266e36",
      "swapTPforTP(address,address,uint256,uint256,uint256)": "c09c30bd",
      "swapTPforTPFee()": "407f0e34",
      "swapTPforTPViaVendor(address,address,uint256,uint256,uint256,address)": "7b21b274",
      "swapTPforTPto(address,address,uint256,uint256,uint256,address)": "e3867eeb",
      "swapTPforTPtoViaVendor(address,address,uint256,uint256,uint256,address,address)": "68f015df",
      "tcHoldersInterestPayment()": "0579188f",
      "tcInterestCollectorAddress()": "8e2bdb86",
      "tcInterestPaymentBlockSpan()": "7f4a4fe0",
      "tcInterestRate()": "0db49656",
      "tcMintFee()": "fda70f8b",
      "tcRedeemFee()": "aea038dc",
      "tcToken()": "60009e0b",
      "tpCtarg(uint256)": "7d8e0314",
      "tpEma(uint256)": "e6b1627c",
      "tpLiqPrices(uint256)": "3915edcb",
      "tpMintFees(address)": "24ffaba3",
      "tpRedeemFees(address)": "ddb6d190",
      "tpTokens(uint256)": "01f1b684",
      "unpause()": "3f4ba83a",
      "updateEmas()": "d1a0faa0",
      "upgradeTo(address)": "3659cfe6",
      "upgradeToAndCall(address,bytes)": "4f1ef286"
    }
  },
  "storageLayout": {
    "storage": [
      {
        "astId": 950,
        "contract": "contracts/mocks/MocCoreMock.sol:MocCoreMock",
        "label": "_initialized",
        "offset": 0,
        "slot": "0",
        "type": "t_uint8"
      },
      {
        "astId": 953,
        "contract": "contracts/mocks/MocCoreMock.sol:MocCoreMock",
        "label": "_initializing",
        "offset": 1,
        "slot": "0",
        "type": "t_bool"
      },
      {
        "astId": 932,
        "contract": "contracts/mocks/MocCoreMock.sol:MocCoreMock",
        "label": "__gap",
        "offset": 0,
        "slot": "1",
        "type": "t_array(t_uint256)50_storage"
      },
      {
        "astId": 1247,
        "contract": "contracts/mocks/MocCoreMock.sol:MocCoreMock",
        "label": "__gap",
        "offset": 0,
        "slot": "51",
        "type": "t_array(t_uint256)50_storage"
      },
      {
        "astId": 29897,
        "contract": "contracts/mocks/MocCoreMock.sol:MocCoreMock",
        "label": "__gap",
        "offset": 0,
        "slot": "101",
        "type": "t_array(t_uint256)50_storage"
      },
      {
        "astId": 22016,
        "contract": "contracts/mocks/MocCoreMock.sol:MocCoreMock",
        "label": "governor",
        "offset": 0,
        "slot": "151",
        "type": "t_contract(IGovernor)22865"
      },
      {
        "astId": 22087,
        "contract": "contracts/mocks/MocCoreMock.sol:MocCoreMock",
        "label": "__gap",
        "offset": 0,
        "slot": "152",
        "type": "t_array(t_uint256)50_storage"
      },
      {
        "astId": 22156,
        "contract": "contracts/mocks/MocCoreMock.sol:MocCoreMock",
        "label": "stoppable",
        "offset": 0,
        "slot": "202",
        "type": "t_bool"
      },
      {
        "astId": 22158,
        "contract": "contracts/mocks/MocCoreMock.sol:MocCoreMock",
        "label": "_paused",
        "offset": 1,
        "slot": "202",
        "type": "t_bool"
      },
      {
        "astId": 22160,
        "contract": "contracts/mocks/MocCoreMock.sol:MocCoreMock",
        "label": "pauser",
        "offset": 2,
        "slot": "202",
        "type": "t_address"
      },
      {
        "astId": 22319,
        "contract": "contracts/mocks/MocCoreMock.sol:MocCoreMock",
        "label": "__gap",
        "offset": 0,
        "slot": "203",
        "type": "t_array(t_uint256)50_storage"
      },
      {
        "astId": 22138,
        "contract": "contracts/mocks/MocCoreMock.sol:MocCoreMock",
        "label": "__gap",
        "offset": 0,
        "slot": "253",
        "type": "t_array(t_uint256)50_storage"
      },
      {
        "astId": 11564,
        "contract": "contracts/mocks/MocCoreMock.sol:MocCoreMock",
        "label": "feeToken",
        "offset": 0,
        "slot": "303",
        "type": "t_contract(IERC20)6209"
      },
      {
        "astId": 11567,
        "contract": "contracts/mocks/MocCoreMock.sol:MocCoreMock",
        "label": "feeTokenPriceProvider",
        "offset": 0,
        "slot": "304",
        "type": "t_contract(IPriceProvider)22903"
      },
      {
        "astId": 11569,
        "contract": "contracts/mocks/MocCoreMock.sol:MocCoreMock",
        "label": "nACcb",
        "offset": 0,
        "slot": "305",
        "type": "t_uint256"
      },
      {
        "astId": 11571,
        "contract": "contracts/mocks/MocCoreMock.sol:MocCoreMock",
        "label": "nACioucb",
        "offset": 0,
        "slot": "306",
        "type": "t_uint256"
      },
      {
        "astId": 11574,
        "contract": "contracts/mocks/MocCoreMock.sol:MocCoreMock",
        "label": "tcToken",
        "offset": 0,
        "slot": "307",
        "type": "t_contract(MocTC)29722"
      },
      {
        "astId": 11576,
        "contract": "contracts/mocks/MocCoreMock.sol:MocCoreMock",
        "label": "nTCcb",
        "offset": 0,
        "slot": "308",
        "type": "t_uint256"
      },
      {
        "astId": 11580,
        "contract": "contracts/mocks/MocCoreMock.sol:MocCoreMock",
        "label": "tpTokens",
        "offset": 0,
        "slot": "309",
        "type": "t_array(t_contract(IMocRC20)22891)dyn_storage"
      },
      {
        "astId": 11585,
        "contract": "contracts/mocks/MocCoreMock.sol:MocCoreMock",
        "label": "peggedTokenIndex",
        "offset": 0,
        "slot": "310",
        "type": "t_mapping(t_address,t_struct(PeggedTokenIndex)11508_storage)"
      },
      {
        "astId": 11589,
        "contract": "contracts/mocks/MocCoreMock.sol:MocCoreMock",
        "label": "pegContainer",
        "offset": 0,
        "slot": "311",
        "type": "t_array(t_struct(PegContainerItem)11503_storage)dyn_storage"
      },
      {
        "astId": 11592,
        "contract": "contracts/mocks/MocCoreMock.sol:MocCoreMock",
        "label": "tpLiqPrices",
        "offset": 0,
        "slot": "312",
        "type": "t_array(t_uint256)dyn_storage"
      },
      {
        "astId": 11594,
        "contract": "contracts/mocks/MocCoreMock.sol:MocCoreMock",
        "label": "successFee",
        "offset": 0,
        "slot": "313",
        "type": "t_uint256"
      },
      {
        "astId": 11596,
        "contract": "contracts/mocks/MocCoreMock.sol:MocCoreMock",
        "label": "appreciationFactor",
        "offset": 0,
        "slot": "314",
        "type": "t_uint256"
      },
      {
        "astId": 11598,
        "contract": "contracts/mocks/MocCoreMock.sol:MocCoreMock",
        "label": "feeRetainer",
        "offset": 0,
        "slot": "315",
        "type": "t_uint256"
      },
      {
        "astId": 11600,
        "contract": "contracts/mocks/MocCoreMock.sol:MocCoreMock",
        "label": "tcMintFee",
        "offset": 0,
        "slot": "316",
        "type": "t_uint256"
      },
      {
        "astId": 11602,
        "contract": "contracts/mocks/MocCoreMock.sol:MocCoreMock",
        "label": "tcRedeemFee",
        "offset": 0,
        "slot": "317",
        "type": "t_uint256"
      },
      {
        "astId": 11604,
        "contract": "contracts/mocks/MocCoreMock.sol:MocCoreMock",
        "label": "swapTPforTPFee",
        "offset": 0,
        "slot": "318",
        "type": "t_uint256"
      },
      {
        "astId": 11606,
        "contract": "contracts/mocks/MocCoreMock.sol:MocCoreMock",
        "label": "swapTPforTCFee",
        "offset": 0,
        "slot": "319",
        "type": "t_uint256"
      },
      {
        "astId": 11608,
        "contract": "contracts/mocks/MocCoreMock.sol:MocCoreMock",
        "label": "swapTCforTPFee",
        "offset": 0,
        "slot": "320",
        "type": "t_uint256"
      },
      {
        "astId": 11610,
        "contract": "contracts/mocks/MocCoreMock.sol:MocCoreMock",
        "label": "redeemTCandTPFee",
        "offset": 0,
        "slot": "321",
        "type": "t_uint256"
      },
      {
        "astId": 11612,
        "contract": "contracts/mocks/MocCoreMock.sol:MocCoreMock",
        "label": "mintTCandTPFee",
        "offset": 0,
        "slot": "322",
        "type": "t_uint256"
      },
      {
        "astId": 11614,
        "contract": "contracts/mocks/MocCoreMock.sol:MocCoreMock",
        "label": "feeTokenPct",
        "offset": 0,
        "slot": "323",
        "type": "t_uint256"
      },
      {
        "astId": 11618,
        "contract": "contracts/mocks/MocCoreMock.sol:MocCoreMock",
        "label": "tpMintFees",
        "offset": 0,
        "slot": "324",
        "type": "t_mapping(t_address,t_uint256)"
      },
      {
        "astId": 11622,
        "contract": "contracts/mocks/MocCoreMock.sol:MocCoreMock",
        "label": "tpRedeemFees",
        "offset": 0,
        "slot": "325",
        "type": "t_mapping(t_address,t_uint256)"
      },
      {
        "astId": 11624,
        "contract": "contracts/mocks/MocCoreMock.sol:MocCoreMock",
        "label": "mocFeeFlowAddress",
        "offset": 0,
        "slot": "326",
        "type": "t_address"
      },
      {
        "astId": 11626,
        "contract": "contracts/mocks/MocCoreMock.sol:MocCoreMock",
        "label": "mocAppreciationBeneficiaryAddress",
        "offset": 0,
        "slot": "327",
        "type": "t_address"
      },
      {
        "astId": 11629,
        "contract": "contracts/mocks/MocCoreMock.sol:MocCoreMock",
        "label": "tpCtarg",
        "offset": 0,
        "slot": "328",
        "type": "t_array(t_uint256)dyn_storage"
      },
      {
        "astId": 11631,
        "contract": "contracts/mocks/MocCoreMock.sol:MocCoreMock",
        "label": "protThrld",
        "offset": 0,
        "slot": "329",
        "type": "t_uint256"
      },
      {
        "astId": 11633,
        "contract": "contracts/mocks/MocCoreMock.sol:MocCoreMock",
        "label": "liqThrld",
        "offset": 0,
        "slot": "330",
        "type": "t_uint256"
      },
      {
        "astId": 11635,
        "contract": "contracts/mocks/MocCoreMock.sol:MocCoreMock",
        "label": "liqEnabled",
        "offset": 0,
        "slot": "331",
        "type": "t_bool"
      },
      {
        "astId": 11637,
        "contract": "contracts/mocks/MocCoreMock.sol:MocCoreMock",
        "label": "liquidated",
        "offset": 1,
        "slot": "331",
        "type": "t_bool"
      },
      {
        "astId": 11639,
        "contract": "contracts/mocks/MocCoreMock.sol:MocCoreMock",
        "label": "bes",
        "offset": 0,
        "slot": "332",
        "type": "t_uint256"
      },
      {
        "astId": 11641,
        "contract": "contracts/mocks/MocCoreMock.sol:MocCoreMock",
        "label": "bns",
        "offset": 0,
        "slot": "333",
        "type": "t_uint256"
      },
      {
        "astId": 11643,
        "contract": "contracts/mocks/MocCoreMock.sol:MocCoreMock",
        "label": "qACLockedInPending",
        "offset": 0,
        "slot": "334",
        "type": "t_uint256"
      },
      {
        "astId": 11645,
        "contract": "contracts/mocks/MocCoreMock.sol:MocCoreMock",
        "label": "mocQueue",
        "offset": 0,
        "slot": "335",
        "type": "t_address"
      },
      {
        "astId": 11648,
        "contract": "contracts/mocks/MocCoreMock.sol:MocCoreMock",
        "label": "tpiou",
        "offset": 0,
        "slot": "336",
        "type": "t_array(t_int256)dyn_storage"
      },
      {
        "astId": 11651,
        "contract": "contracts/mocks/MocCoreMock.sol:MocCoreMock",
        "label": "pACtpLstop",
        "offset": 0,
        "slot": "337",
        "type": "t_array(t_uint256)dyn_storage"
      },
      {
        "astId": 11654,
        "contract": "contracts/mocks/MocCoreMock.sol:MocCoreMock",
        "label": "maxAbsoluteOpProvider",
        "offset": 0,
        "slot": "338",
        "type": "t_contract(IDataProvider)22819"
      },
      {
        "astId": 11657,
        "contract": "contracts/mocks/MocCoreMock.sol:MocCoreMock",
        "label": "maxOpDiffProvider",
        "offset": 0,
        "slot": "339",
        "type": "t_contract(IDataProvider)22819"
      },
      {
        "astId": 11659,
        "contract": "contracts/mocks/MocCoreMock.sol:MocCoreMock",
        "label": "decayBlockSpan",
        "offset": 0,
        "slot": "340",
        "type": "t_uint256"
      },
      {
        "astId": 11661,
        "contract": "contracts/mocks/MocCoreMock.sol:MocCoreMock",
        "label": "absoluteAccumulator",
        "offset": 0,
        "slot": "341",
        "type": "t_uint256"
      },
      {
        "astId": 11663,
        "contract": "contracts/mocks/MocCoreMock.sol:MocCoreMock",
        "label": "differentialAccumulator",
        "offset": 0,
        "slot": "342",
        "type": "t_int256"
      },
      {
        "astId": 11665,
        "contract": "contracts/mocks/MocCoreMock.sol:MocCoreMock",
        "label": "lastOperationBlockNumber",
        "offset": 0,
        "slot": "343",
        "type": "t_uint256"
      },
      {
        "astId": 11667,
        "contract": "contracts/mocks/MocCoreMock.sol:MocCoreMock",
        "label": "tcInterestCollectorAddress",
        "offset": 0,
        "slot": "344",
        "type": "t_address"
      },
      {
        "astId": 11669,
        "contract": "contracts/mocks/MocCoreMock.sol:MocCoreMock",
        "label": "tcInterestRate",
        "offset": 0,
        "slot": "345",
        "type": "t_uint256"
      },
      {
        "astId": 11671,
        "contract": "contracts/mocks/MocCoreMock.sol:MocCoreMock",
        "label": "tcInterestPaymentBlockSpan",
        "offset": 0,
        "slot": "346",
        "type": "t_uint256"
      },
      {
        "astId": 11673,
        "contract": "contracts/mocks/MocCoreMock.sol:MocCoreMock",
        "label": "nextTCInterestPayment",
        "offset": 0,
        "slot": "347",
        "type": "t_uint256"
      },
      {
        "astId": 13316,
        "contract": "contracts/mocks/MocCoreMock.sol:MocCoreMock",
        "label": "__gap",
        "offset": 0,
        "slot": "348",
        "type": "t_array(t_uint256)50_storage"
      },
      {
        "astId": 17105,
        "contract": "contracts/mocks/MocCoreMock.sol:MocCoreMock",
        "label": "tpEma",
        "offset": 0,
        "slot": "398",
        "type": "t_array(t_struct(EmaItem)17101_storage)dyn_storage"
      },
      {
        "astId": 17107,
        "contract": "contracts/mocks/MocCoreMock.sol:MocCoreMock",
        "label": "nextEmaCalculation",
        "offset": 0,
        "slot": "399",
        "type": "t_uint256"
      },
      {
        "astId": 17109,
        "contract": "contracts/mocks/MocCoreMock.sol:MocCoreMock",
        "label": "emaCalculationBlockSpan",
        "offset": 0,
        "slot": "400",
        "type": "t_uint256"
      },
      {
        "astId": 17481,
        "contract": "contracts/mocks/MocCoreMock.sol:MocCoreMock",
        "label": "__gap",
        "offset": 0,
        "slot": "401",
        "type": "t_array(t_uint256)50_storage"
      },
      {
        "astId": 13350,
        "contract": "contracts/mocks/MocCoreMock.sol:MocCoreMock",
        "label": "mocVendors",
        "offset": 0,
        "slot": "451",
        "type": "t_contract(MocVendors)30027"
      },
      {
        "astId": 14223,
        "contract": "contracts/mocks/MocCoreMock.sol:MocCoreMock",
        "label": "__gap",
        "offset": 0,
        "slot": "452",
        "type": "t_array(t_uint256)50_storage"
      },
      {
        "astId": 14272,
        "contract": "contracts/mocks/MocCoreMock.sol:MocCoreMock",
        "label": "mocCoreExpansion",
        "offset": 0,
        "slot": "502",
        "type": "t_address"
      },
      {
        "astId": 15878,
        "contract": "contracts/mocks/MocCoreMock.sol:MocCoreMock",
        "label": "__gap",
        "offset": 0,
        "slot": "503",
        "type": "t_array(t_uint256)50_storage"
      },
      {
        "astId": 23253,
        "contract": "contracts/mocks/MocCoreMock.sol:MocCoreMock",
        "label": "acToken",
        "offset": 0,
        "slot": "553",
        "type": "t_contract(IERC20)6209"
      },
      {
        "astId": 25193,
        "contract": "contracts/mocks/MocCoreMock.sol:MocCoreMock",
        "label": "__gap",
        "offset": 0,
        "slot": "554",
        "type": "t_array(t_uint256)50_storage"
      }
    ],
    "types": {
      "t_address": {
        "encoding": "inplace",
        "label": "address",
        "numberOfBytes": "20"
      },
      "t_array(t_contract(IMocRC20)22891)dyn_storage": {
        "base": "t_contract(IMocRC20)22891",
        "encoding": "dynamic_array",
        "label": "contract IMocRC20[]",
        "numberOfBytes": "32"
      },
      "t_array(t_int256)dyn_storage": {
        "base": "t_int256",
        "encoding": "dynamic_array",
        "label": "int256[]",
        "numberOfBytes": "32"
      },
      "t_array(t_struct(EmaItem)17101_storage)dyn_storage": {
        "base": "t_struct(EmaItem)17101_storage",
        "encoding": "dynamic_array",
        "label": "struct MocEma.EmaItem[]",
        "numberOfBytes": "32"
      },
      "t_array(t_struct(PegContainerItem)11503_storage)dyn_storage": {
        "base": "t_struct(PegContainerItem)11503_storage",
        "encoding": "dynamic_array",
        "label": "struct MocBaseBucket.PegContainerItem[]",
        "numberOfBytes": "32"
      },
      "t_array(t_uint256)50_storage": {
        "base": "t_uint256",
        "encoding": "inplace",
        "label": "uint256[50]",
        "numberOfBytes": "1600"
      },
      "t_array(t_uint256)dyn_storage": {
        "base": "t_uint256",
        "encoding": "dynamic_array",
        "label": "uint256[]",
        "numberOfBytes": "32"
      },
      "t_bool": {
        "encoding": "inplace",
        "label": "bool",
        "numberOfBytes": "1"
      },
      "t_contract(IDataProvider)22819": {
        "encoding": "inplace",
        "label": "contract IDataProvider",
        "numberOfBytes": "20"
      },
      "t_contract(IERC20)6209": {
        "encoding": "inplace",
        "label": "contract IERC20",
        "numberOfBytes": "20"
      },
      "t_contract(IGovernor)22865": {
        "encoding": "inplace",
        "label": "contract IGovernor",
        "numberOfBytes": "20"
      },
      "t_contract(IMocRC20)22891": {
        "encoding": "inplace",
        "label": "contract IMocRC20",
        "numberOfBytes": "20"
      },
      "t_contract(IPriceProvider)22903": {
        "encoding": "inplace",
        "label": "contract IPriceProvider",
        "numberOfBytes": "20"
      },
      "t_contract(MocTC)29722": {
        "encoding": "inplace",
        "label": "contract MocTC",
        "numberOfBytes": "20"
      },
      "t_contract(MocVendors)30027": {
        "encoding": "inplace",
        "label": "contract MocVendors",
        "numberOfBytes": "20"
      },
      "t_int256": {
        "encoding": "inplace",
        "label": "int256",
        "numberOfBytes": "32"
      },
      "t_mapping(t_address,t_struct(PeggedTokenIndex)11508_storage)": {
        "encoding": "mapping",
        "key": "t_address",
        "label": "mapping(address => struct MocBaseBucket.PeggedTokenIndex)",
        "numberOfBytes": "32",
        "value": "t_struct(PeggedTokenIndex)11508_storage"
      },
      "t_mapping(t_address,t_uint256)": {
        "encoding": "mapping",
        "key": "t_address",
        "label": "mapping(address => uint256)",
        "numberOfBytes": "32",
        "value": "t_uint256"
      },
      "t_struct(EmaItem)17101_storage": {
        "encoding": "inplace",
        "label": "struct MocEma.EmaItem",
        "members": [
          {
            "astId": 17098,
            "contract": "contracts/mocks/MocCoreMock.sol:MocCoreMock",
            "label": "ema",
            "offset": 0,
            "slot": "0",
            "type": "t_uint256"
          },
          {
            "astId": 17100,
            "contract": "contracts/mocks/MocCoreMock.sol:MocCoreMock",
            "label": "sf",
            "offset": 0,
            "slot": "1",
            "type": "t_uint256"
          }
        ],
        "numberOfBytes": "64"
      },
      "t_struct(PegContainerItem)11503_storage": {
        "encoding": "inplace",
        "label": "struct MocBaseBucket.PegContainerItem",
        "members": [
          {
            "astId": 11499,
            "contract": "contracts/mocks/MocCoreMock.sol:MocCoreMock",
            "label": "nTP",
            "offset": 0,
            "slot": "0",
            "type": "t_uint256"
          },
          {
            "astId": 11502,
            "contract": "contracts/mocks/MocCoreMock.sol:MocCoreMock",
            "label": "priceProvider",
            "offset": 0,
            "slot": "1",
            "type": "t_contract(IPriceProvider)22903"
          }
        ],
        "numberOfBytes": "64"
      },
      "t_struct(PeggedTokenIndex)11508_storage": {
        "encoding": "inplace",
        "label": "struct MocBaseBucket.PeggedTokenIndex",
        "members": [
          {
            "astId": 11505,
            "contract": "contracts/mocks/MocCoreMock.sol:MocCoreMock",
            "label": "index",
            "offset": 0,
            "slot": "0",
            "type": "t_uint256"
          },
          {
            "astId": 11507,
            "contract": "contracts/mocks/MocCoreMock.sol:MocCoreMock",
            "label": "exists",
            "offset": 0,
            "slot": "1",
            "type": "t_bool"
          }
        ],
        "numberOfBytes": "64"
      },
      "t_uint256": {
        "encoding": "inplace",
        "label": "uint256",
        "numberOfBytes": "32"
      },
      "t_uint8": {
        "encoding": "inplace",
        "label": "uint8",
        "numberOfBytes": "1"
      }
    }
  },
  "userdoc": {
    "kind": "user",
    "methods": {
      "addPeggedToken((address,address,uint256,uint256,uint256,uint256,uint256))": {
        "notice": "add a Pegged Token to the protocol"
      },
      "calcCtargemaCA()": {
        "notice": "calculates target coverage adjusted by all Pegged Token's to Collateral Asset rate moving average"
      },
      "changeGovernor(address)": {
        "notice": "Change the contract's governor. Should be called through the old governance system"
      },
      "editPeggedToken((address,address,uint256,uint256,uint256,uint256,uint256))": {
        "notice": "modifies a Pegged Token of the protocol"
      },
      "evalLiquidation()": {
        "notice": "evaluates if liquidation threshold has been reached and liq is Enabled. If so forces contracts liquidation, blocking all mint & redeem operations. May emit a {ContractLiquidated} event."
      },
      "execSettlement()": {
        "notice": "this function is executed during settlement.  stores amount of locked AC by Pegged Tokens at this moment and distribute success fee"
      },
      "getBts()": {
        "notice": "get the number of blocks remaining for settlement"
      },
      "getCglb()": {
        "notice": "get bucket global coverage"
      },
      "getLckAC()": {
        "notice": "get amount of Collateral Asset locked by Pegged Token"
      },
      "getLeverageTC()": {
        "notice": "get Collateral Token leverage"
      },
      "getPACtp(address)": {
        "notice": "get how many Pegged Token equal 1 Collateral Asset"
      },
      "getPTCac()": {
        "notice": "get Collateral Token price"
      },
      "getTCAvailableToRedeem()": {
        "notice": "get amount of Collateral Token available to redeem"
      },
      "getTPAvailableToMint(address)": {
        "notice": "get amount of Pegged Token available to mint"
      },
      "getTotalACavailable()": {
        "notice": "get total Collateral Asset available"
      },
      "governor()": {
        "notice": "The address of the contract which governs this one"
      },
      "initialize((((address,address,address,address,address,address,uint256,uint256,uint256,uint256,uint256,uint256,uint256,uint256,uint256,uint256,uint256,uint256,uint256,uint256,address,uint256,uint256,address,address,uint256),address,address,address,uint256,address),address))": {
        "notice": "contract initializer"
      },
      "isLiquidationReached()": {
        "notice": "If liquidation is enabled, verifies if forced liquidation has been reached, checking if globalCoverage <= liquidation"
      },
      "liqRedeemTP(address)": {
        "notice": "Allow redeem on liquidation state, user Peg balance gets burned and he receives the equivalent AC given the liquidation frozen price."
      },
      "liqRedeemTPto(address,address)": {
        "notice": "Allow redeem on liquidation state, user Peg balance gets burned and he receives the equivalent AC given the liquidation frozen price."
      },
      "makeStoppable()": {
        "notice": "Switches ON the stoppability of the contract; if the contract was paused before making it unstoppable it will be paused again after calling this function"
      },
      "makeUnstoppable()": {
        "notice": "Switches OFF the stoppability of the contract; if the contract was paused it will no longer be so"
      },
      "maxQACToMintTP()": {
        "notice": "gets the max amount of AC allowed to operate to mint TP with, restricted by accumulators // TODO: move this function to a MocView contract"
      },
      "maxQACToRedeemTP()": {
        "notice": "gets the max amount of AC allowed to operate to redeem TP with, restricted by accumulators // TODO: move this function to a MocView contract"
      },
      "mintTC(uint256,uint256)": {
        "notice": "caller sends Collateral Asset and receives Collateral Token Requires prior sender approval of Collateral Asset to this contract "
      },
      "mintTCViaVendor(uint256,uint256,address)": {
        "notice": "caller sends Collateral Asset and receives Collateral Token  `vendor_` receives a markup in Fee Token if possible or in qAC if not  Requires prior sender approval of Collateral Asset to this contract"
      },
      "mintTCandTP(address,uint256,uint256)": {
        "notice": "caller sends Collateral Asset and receives Collateral Token and Pegged Token  Requires prior sender approval of Collateral Asset to this contract  This operation is done without checking coverage  Collateral Token and Pegged Token are minted in equivalent proportions so that its price  and global coverage are not modified.  Reverts if qAC sent are insufficient."
      },
      "mintTCandTPViaVendor(address,uint256,uint256,address)": {
        "notice": "caller sends Collateral Asset and receives Collateral Token and Pegged Token  `vendor_` receives a markup in Fee Token if possible or in qAC if not  Requires prior sender approval of Collateral Asset to this contract  This operation is done without checking coverage  Collateral Token and Pegged Token are minted in equivalent proportions so that its price  and global coverage are not modified.  Reverts if qAC sent are insufficient."
      },
      "mintTCandTPto(address,uint256,uint256,address)": {
        "notice": "caller sends Collateral Asset and recipient receives Collateral Token and Pegged Token  Requires prior sender approval of Collateral Asset to this contract  This operation is done without checking coverage  Collateral Token and Pegged Token are minted in equivalent proportions so that its price  and global coverage are not modified.  Reverts if qAC sent are insufficient."
      },
      "mintTCandTPtoViaVendor(address,uint256,uint256,address,address)": {
        "notice": "caller sends Collateral Asset and recipient receives Collateral Token and Pegged Token  `vendor_` receives a markup in Fee Token if possible or in qAC if not  Requires prior sender approval of Collateral Asset to this contract  This operation is done without checking coverage  Collateral Token and Pegged Token are minted in equivalent proportions so that its price  and global coverage are not modified.  Reverts if qAC sent are insufficient."
      },
      "mintTCto(uint256,uint256,address)": {
        "notice": "caller sends Collateral Asset and recipient receives Collateral Token  Requires prior sender approval of Collateral Asset to this contract"
      },
      "mintTCtoViaVendor(uint256,uint256,address,address)": {
        "notice": "caller sends Collateral Asset and recipient receives Collateral Token  `vendor_` receives a markup in Fee Token if possible or in qAC if not   Requires prior sender approval of Collateral Asset to this contract"
      },
      "mintTP(address,uint256,uint256)": {
        "notice": "caller sends Collateral Asset and receives Pegged Token Requires prior sender approval of Collateral Asset to this contract"
      },
      "mintTPViaVendor(address,uint256,uint256,address)": {
        "notice": "caller sends Collateral Asset and receives Pegged Token  `vendor_` receives a markup in Fee Token if possible or in qAC if not   Requires prior sender approval of Collateral Asset to this contract"
      },
      "mintTPto(address,uint256,uint256,address)": {
        "notice": "caller sends Collateral Asset and recipient receives Pegged Token Requires prior sender approval of Collateral Asset to this contract"
      },
      "mintTPtoViaVendor(address,uint256,uint256,address,address)": {
        "notice": "caller sends Collateral Asset and recipient receives Pegged Token  `vendor_` receives a markup in Fee Token if possible or in qAC if not   Requires prior sender approval of Collateral Asset to this contract"
      },
      "pause()": {
        "notice": "Called by the owner to pause, triggers stopped state"
      },
      "paused()": {
        "notice": "Returns true if paused"
      },
      "redeemTC(uint256,uint256)": {
        "notice": "caller sends Collateral Token and receives Collateral Asset"
      },
      "redeemTCViaVendor(uint256,uint256,address)": {
        "notice": "caller sends Collateral Token and receives Collateral Asset  `vendor_` receives a markup in Fee Token if possible or in qAC if not"
      },
      "redeemTCandTP(address,uint256,uint256,uint256)": {
        "notice": "Caller sends Collateral Token and Pegged Token and receives Collateral Asset.  This operation is done without checking coverage  Collateral Token and Pegged Token are redeemed in equivalent proportions so that their price  and global coverage are not modified.  Reverts if qTP sent are insufficient."
      },
      "redeemTCandTPViaVendor(address,uint256,uint256,uint256,address)": {
        "notice": "Caller sends Collateral Token and Pegged Token and receives Collateral Asset.  `vendor_` receives a markup in Fee Token if possible or in Collateral Asset if not  This operation is done without checking coverage  Collateral Token and Pegged Token are redeemed in equivalent proportions so that their price  and global coverage are not modified.  Reverts if qTP sent are insufficient."
      },
      "redeemTCandTPto(address,uint256,uint256,uint256,address)": {
        "notice": "Caller sends Collateral Token and Pegged Token and recipient receives Collateral Asset.  This operation is done without checking coverage  Collateral Token and Pegged Token are redeemed in equivalent proportions so that their price  and global coverage are not modified.  Reverts if qTP sent are insufficient."
      },
      "redeemTCandTPtoViaVendor(address,uint256,uint256,uint256,address,address)": {
        "notice": "Caller sends Collateral Token and Pegged Token and recipient receives Collateral Asset.  `vendor_` receives a markup in Fee Token if possible or in Collateral Asset if not  This operation is done without checking coverage  Collateral Token and Pegged Token are redeemed in equivalent proportions so that their price  and global coverage are not modified.  Reverts if qTP sent are insufficient."
      },
      "redeemTCto(uint256,uint256,address)": {
        "notice": "caller sends Collateral Token and recipient receives Collateral Asset"
      },
      "redeemTCtoViaVendor(uint256,uint256,address,address)": {
        "notice": "caller sends Collateral Token and recipient receives Collateral Asset  `vendor_` receives a markup in Fee Token if possible or in qAC if not"
      },
      "redeemTP(address,uint256,uint256)": {
        "notice": "caller sends Pegged Token and receives Collateral Asset"
      },
      "redeemTPViaVendor(address,uint256,uint256,address)": {
        "notice": "caller sends Pegged Token and receives Collateral Asset  `vendor_` receives a markup in Fee Token if possible or in qAC if not"
      },
      "redeemTPto(address,uint256,uint256,address)": {
        "notice": "caller sends Pegged Token and recipient receives Collateral Asset"
      },
      "redeemTPtoViaVendor(address,uint256,uint256,address,address)": {
        "notice": "caller sends Pegged Token and recipient receives Collateral Asset  `vendor_` receives a markup in Fee Token if possible or in qAC if not"
      },
      "refreshACBalance()": {
        "notice": "Refreshes the AC holdings for the Bucket"
      },
      "setPauser(address)": {
        "notice": "Changes the address which is enable to pause this contract"
      },
      "shouldCalculateEma()": {
        "notice": "true if the necessary span has pass since last ema update"
      },
      "swapTCforTP(address,uint256,uint256,uint256)": {
        "notice": "Caller sends a Collateral Token and receives Pegged Token."
      },
      "swapTCforTPViaVendor(address,uint256,uint256,uint256,address)": {
        "notice": "Caller sends a Collateral Token and receives Pegged Token.  `vendor_` receives a markup in Fee Token if possible or in qAC if not."
      },
      "swapTCforTPto(address,uint256,uint256,uint256,address)": {
        "notice": "Caller sends a Collateral Token and recipient receives Pegged Token."
      },
      "swapTCforTPtoViaVendor(address,uint256,uint256,uint256,address,address)": {
        "notice": "Caller sends a Collateral Token and recipient receives Pegged Token.  `vendor_` receives a markup in Fee Token if possible or in qAC if not."
      },
      "swapTPforTC(address,uint256,uint256,uint256)": {
        "notice": "caller sends a Pegged Token and receives Collateral Token"
      },
      "swapTPforTCViaVendor(address,uint256,uint256,uint256,address)": {
        "notice": "caller sends a Pegged Token and receives Collateral Token  `vendor_` receives a markup in Fee Token if possible or in qAC if not"
      },
      "swapTPforTCto(address,uint256,uint256,uint256,address)": {
        "notice": "caller sends a Pegged Token and recipient receives Collateral Token"
      },
      "swapTPforTCtoViaVendor(address,uint256,uint256,uint256,address,address)": {
        "notice": "caller sends a Pegged Token and recipient receives Collateral Token  `vendor_` receives a markup in Fee Token if possible or in qAC if not"
      },
      "swapTPforTP(address,address,uint256,uint256,uint256)": {
        "notice": "caller sends a Pegged Token and receives another one"
      },
      "swapTPforTPViaVendor(address,address,uint256,uint256,uint256,address)": {
        "notice": "caller sends a Pegged Token and receives another one  `vendor_` receives a markup in Fee Token if possible or in qAC if not"
      },
      "swapTPforTPto(address,address,uint256,uint256,uint256,address)": {
        "notice": "caller sends a Pegged Token and recipient receives another one"
      },
      "swapTPforTPtoViaVendor(address,address,uint256,uint256,uint256,address,address)": {
        "notice": "caller sends a Pegged Token and recipient receives another one  `vendor_` receives a markup in Fee Token if possible or in qAC if not"
      },
      "tcHoldersInterestPayment()": {
        "notice": "executes the interest payment of the TC holders  can only be executed after a block span"
      },
      "unpause()": {
        "notice": "Called by the owner to unpause, returns to normal state"
      },
      "updateEmas()": {
        "notice": "If time, calculates the EMA for all the Pegged Token prices."
      }
    },
    "version": 1
  }
}