{
  "contractName": "MocCoreMock",
  "sourceName": "contracts/mocks/MocCoreMock.sol",
  "abi": [
    {
      "inputs": [],
      "stateMutability": "nonpayable",
      "type": "constructor"
    },
    {
      "inputs": [
        {
          "internalType": "uint256",
          "name": "qACsent_",
          "type": "uint256"
        },
        {
          "internalType": "uint256",
          "name": "qACNeeded_",
          "type": "uint256"
        }
      ],
      "name": "InsufficientQacSent",
      "type": "error"
    },
    {
      "inputs": [
        {
          "internalType": "uint256",
          "name": "qTPsent_",
          "type": "uint256"
        },
        {
          "internalType": "uint256",
          "name": "qTPNeeded_",
          "type": "uint256"
        }
      ],
      "name": "InsufficientQtpSent",
      "type": "error"
    },
    {
      "inputs": [
        {
          "internalType": "uint256",
          "name": "qTC_",
          "type": "uint256"
        },
        {
          "internalType": "uint256",
          "name": "tcAvailableToRedeem_",
          "type": "uint256"
        }
      ],
      "name": "InsufficientTCtoRedeem",
      "type": "error"
    },
    {
      "inputs": [
        {
          "internalType": "uint256",
          "name": "qTP_",
          "type": "uint256"
        },
        {
          "internalType": "uint256",
          "name": "tpAvailableToMint_",
          "type": "uint256"
        }
      ],
      "name": "InsufficientTPtoMint",
      "type": "error"
    },
    {
      "inputs": [
        {
          "internalType": "uint256",
          "name": "qTP_",
          "type": "uint256"
        },
        {
          "internalType": "uint256",
          "name": "tpAvailableToRedeem_",
          "type": "uint256"
        }
      ],
      "name": "InsufficientTPtoRedeem",
      "type": "error"
    },
    {
      "inputs": [],
      "name": "InvalidAddress",
      "type": "error"
    },
    {
      "inputs": [],
      "name": "InvalidFluxCapacitorOperation",
      "type": "error"
    },
    {
      "inputs": [],
      "name": "InvalidValue",
      "type": "error"
    },
    {
      "inputs": [],
      "name": "Liquidated",
      "type": "error"
    },
    {
      "inputs": [
        {
          "internalType": "uint256",
          "name": "cglb_",
          "type": "uint256"
        },
        {
          "internalType": "uint256",
          "name": "covThrld_",
          "type": "uint256"
        }
      ],
      "name": "LowCoverage",
      "type": "error"
    },
    {
      "inputs": [
        {
          "internalType": "uint256",
          "name": "max_",
          "type": "uint256"
        },
        {
          "internalType": "uint256",
          "name": "new_",
          "type": "uint256"
        }
      ],
      "name": "MaxFluxCapacitorOperationReached",
      "type": "error"
    },
    {
      "inputs": [],
      "name": "MissingBlocksToSettlement",
      "type": "error"
    },
    {
      "inputs": [],
      "name": "MissingBlocksToTCInterestPayment",
      "type": "error"
    },
    {
      "inputs": [
        {
          "internalType": "address",
          "name": "dataProviderAddress_",
          "type": "address"
        }
      ],
      "name": "MissingProviderData",
      "type": "error"
    },
    {
      "inputs": [
        {
          "internalType": "address",
          "name": "priceProviderAddress_",
          "type": "address"
        }
      ],
      "name": "MissingProviderPrice",
      "type": "error"
    },
    {
      "inputs": [],
      "name": "NotAuthorizedChanger",
      "type": "error"
    },
    {
      "inputs": [],
      "name": "NotWhenPaused",
      "type": "error"
    },
    {
      "inputs": [],
      "name": "OnlyPauser",
      "type": "error"
    },
    {
      "inputs": [],
      "name": "OnlyWhenLiquidated",
      "type": "error"
    },
    {
      "inputs": [],
      "name": "OnlyWhilePaused",
      "type": "error"
    },
    {
      "inputs": [],
      "name": "PeggedTokenAlreadyAdded",
      "type": "error"
    },
    {
      "inputs": [
        {
          "internalType": "uint256",
          "name": "qACmin_",
          "type": "uint256"
        },
        {
          "internalType": "uint256",
          "name": "qACtoRedeem_",
          "type": "uint256"
        }
      ],
      "name": "QacBelowMinimumRequired",
      "type": "error"
    },
    {
      "inputs": [],
      "name": "QacNeededMustBeGreaterThanZero",
      "type": "error"
    },
    {
      "inputs": [
        {
          "internalType": "uint256",
          "name": "qTCmin_",
          "type": "uint256"
        },
        {
          "internalType": "uint256",
          "name": "qTC_",
          "type": "uint256"
        }
      ],
      "name": "QtcBelowMinimumRequired",
      "type": "error"
    },
    {
      "inputs": [
        {
          "internalType": "uint256",
          "name": "qTPmin_",
          "type": "uint256"
        },
        {
          "internalType": "uint256",
          "name": "qTP_",
          "type": "uint256"
        }
      ],
      "name": "QtpBelowMinimumRequired",
      "type": "error"
    },
    {
      "inputs": [],
      "name": "TransferFailed",
      "type": "error"
    },
    {
      "inputs": [],
      "name": "Unstoppable",
      "type": "error"
    },
    {
      "anonymous": false,
      "inputs": [
        {
          "indexed": false,
          "internalType": "address",
          "name": "previousAdmin",
          "type": "address"
        },
        {
          "indexed": false,
          "internalType": "address",
          "name": "newAdmin",
          "type": "address"
        }
      ],
      "name": "AdminChanged",
      "type": "event"
    },
    {
      "anonymous": false,
      "inputs": [
        {
          "indexed": true,
          "internalType": "address",
          "name": "beacon",
          "type": "address"
        }
      ],
      "name": "BeaconUpgraded",
      "type": "event"
    },
    {
      "anonymous": false,
      "inputs": [],
      "name": "ContractLiquidated",
      "type": "event"
    },
    {
      "anonymous": false,
      "inputs": [
        {
          "indexed": false,
          "internalType": "uint8",
          "name": "version",
          "type": "uint8"
        }
      ],
      "name": "Initialized",
      "type": "event"
    },
    {
      "anonymous": false,
      "inputs": [
        {
          "indexed": true,
          "internalType": "address",
          "name": "tp_",
          "type": "address"
        },
        {
          "indexed": true,
          "internalType": "address",
          "name": "sender_",
          "type": "address"
        },
        {
          "indexed": true,
          "internalType": "address",
          "name": "recipient_",
          "type": "address"
        },
        {
          "indexed": false,
          "internalType": "uint256",
          "name": "qTP_",
          "type": "uint256"
        },
        {
          "indexed": false,
          "internalType": "uint256",
          "name": "qAC_",
          "type": "uint256"
        }
      ],
      "name": "LiqTPRedeemed",
      "type": "event"
    },
    {
      "anonymous": false,
      "inputs": [
        {
          "indexed": false,
          "internalType": "address",
          "name": "account",
          "type": "address"
        }
      ],
      "name": "Paused",
      "type": "event"
    },
    {
      "anonymous": false,
      "inputs": [
        {
          "indexed": false,
          "internalType": "uint256",
          "name": "i_",
          "type": "uint256"
        },
        {
          "components": [
            {
              "internalType": "address",
              "name": "tpTokenAddress",
              "type": "address"
            },
            {
              "internalType": "address",
              "name": "priceProviderAddress",
              "type": "address"
            },
            {
              "internalType": "uint256",
              "name": "tpCtarg",
              "type": "uint256"
            },
            {
              "internalType": "uint256",
              "name": "tpMintFee",
              "type": "uint256"
            },
            {
              "internalType": "uint256",
              "name": "tpRedeemFee",
              "type": "uint256"
            },
            {
              "internalType": "uint256",
              "name": "tpEma",
              "type": "uint256"
            },
            {
              "internalType": "uint256",
              "name": "tpEmaSf",
              "type": "uint256"
            }
          ],
          "indexed": false,
          "internalType": "struct PeggedTokenParams",
          "name": "peggedTokenParams_",
          "type": "tuple"
        }
      ],
      "name": "PeggedTokenChange",
      "type": "event"
    },
    {
      "anonymous": false,
      "inputs": [],
      "name": "SettlementExecuted",
      "type": "event"
    },
    {
      "anonymous": false,
      "inputs": [
        {
          "indexed": false,
          "internalType": "uint256",
          "name": "mocGain_",
          "type": "uint256"
        },
        {
          "indexed": false,
          "internalType": "uint256[]",
          "name": "tpGain_",
          "type": "uint256[]"
        }
      ],
      "name": "SuccessFeeDistributed",
      "type": "event"
    },
    {
      "anonymous": false,
      "inputs": [
        {
          "indexed": false,
          "internalType": "uint256",
          "name": "interestAmount_",
          "type": "uint256"
        }
      ],
      "name": "TCInterestPayment",
      "type": "event"
    },
    {
      "anonymous": false,
      "inputs": [
        {
          "indexed": true,
          "internalType": "uint256",
          "name": "i_",
          "type": "uint256"
        },
        {
          "indexed": false,
          "internalType": "uint256",
          "name": "oldTPema_",
          "type": "uint256"
        },
        {
          "indexed": false,
          "internalType": "uint256",
          "name": "newTPema_",
          "type": "uint256"
        }
      ],
      "name": "TPemaUpdated",
      "type": "event"
    },
    {
      "anonymous": false,
      "inputs": [
        {
          "indexed": false,
          "internalType": "address",
          "name": "account",
          "type": "address"
        }
      ],
      "name": "Unpaused",
      "type": "event"
    },
    {
      "anonymous": false,
      "inputs": [
        {
          "indexed": true,
          "internalType": "address",
          "name": "implementation",
          "type": "address"
        }
      ],
      "name": "Upgraded",
      "type": "event"
    },
    {
      "inputs": [],
      "name": "absoluteAccumulator",
      "outputs": [
        {
          "internalType": "uint256",
          "name": "",
          "type": "uint256"
        }
      ],
      "stateMutability": "view",
      "type": "function"
    },
    {
      "inputs": [],
      "name": "acToken",
      "outputs": [
        {
          "internalType": "contract IERC20",
          "name": "",
          "type": "address"
        }
      ],
      "stateMutability": "view",
      "type": "function"
    },
    {
      "inputs": [
        {
          "components": [
            {
              "internalType": "address",
              "name": "tpTokenAddress",
              "type": "address"
            },
            {
              "internalType": "address",
              "name": "priceProviderAddress",
              "type": "address"
            },
            {
              "internalType": "uint256",
              "name": "tpCtarg",
              "type": "uint256"
            },
            {
              "internalType": "uint256",
              "name": "tpMintFee",
              "type": "uint256"
            },
            {
              "internalType": "uint256",
              "name": "tpRedeemFee",
              "type": "uint256"
            },
            {
              "internalType": "uint256",
              "name": "tpEma",
              "type": "uint256"
            },
            {
              "internalType": "uint256",
              "name": "tpEmaSf",
              "type": "uint256"
            }
          ],
          "internalType": "struct PeggedTokenParams",
          "name": "peggedTokenParams_",
          "type": "tuple"
        }
      ],
      "name": "addPeggedToken",
      "outputs": [],
      "stateMutability": "nonpayable",
      "type": "function"
    },
    {
      "inputs": [],
      "name": "appreciationFactor",
      "outputs": [
        {
          "internalType": "uint256",
          "name": "",
          "type": "uint256"
        }
      ],
      "stateMutability": "view",
      "type": "function"
    },
    {
      "inputs": [],
      "name": "bes",
      "outputs": [
        {
          "internalType": "uint256",
          "name": "",
          "type": "uint256"
        }
      ],
      "stateMutability": "view",
      "type": "function"
    },
    {
      "inputs": [],
      "name": "bns",
      "outputs": [
        {
          "internalType": "uint256",
          "name": "",
          "type": "uint256"
        }
      ],
      "stateMutability": "view",
      "type": "function"
    },
    {
      "inputs": [],
      "name": "calcCtargemaCA",
      "outputs": [
        {
          "internalType": "uint256",
          "name": "ctargemaCA",
          "type": "uint256"
        }
      ],
      "stateMutability": "view",
      "type": "function"
    },
    {
      "inputs": [
        {
          "internalType": "contract IGovernor",
          "name": "newGovernor_",
          "type": "address"
        }
      ],
      "name": "changeGovernor",
      "outputs": [],
      "stateMutability": "nonpayable",
      "type": "function"
    },
    {
      "inputs": [],
      "name": "decayBlockSpan",
      "outputs": [
        {
          "internalType": "uint256",
          "name": "",
          "type": "uint256"
        }
      ],
      "stateMutability": "view",
      "type": "function"
    },
    {
      "inputs": [],
      "name": "differentialAccumulator",
      "outputs": [
        {
          "internalType": "int256",
          "name": "",
          "type": "int256"
        }
      ],
      "stateMutability": "view",
      "type": "function"
    },
    {
      "inputs": [
        {
          "components": [
            {
              "internalType": "address",
              "name": "tpTokenAddress",
              "type": "address"
            },
            {
              "internalType": "address",
              "name": "priceProviderAddress",
              "type": "address"
            },
            {
              "internalType": "uint256",
              "name": "tpCtarg",
              "type": "uint256"
            },
            {
              "internalType": "uint256",
              "name": "tpMintFee",
              "type": "uint256"
            },
            {
              "internalType": "uint256",
              "name": "tpRedeemFee",
              "type": "uint256"
            },
            {
              "internalType": "uint256",
              "name": "tpEma",
              "type": "uint256"
            },
            {
              "internalType": "uint256",
              "name": "tpEmaSf",
              "type": "uint256"
            }
          ],
          "internalType": "struct PeggedTokenParams",
          "name": "peggedTokenParams_",
          "type": "tuple"
        }
      ],
      "name": "editPeggedToken",
      "outputs": [],
      "stateMutability": "nonpayable",
      "type": "function"
    },
    {
      "inputs": [],
      "name": "emaCalculationBlockSpan",
      "outputs": [
        {
          "internalType": "uint256",
          "name": "",
          "type": "uint256"
        }
      ],
      "stateMutability": "view",
      "type": "function"
    },
    {
      "inputs": [],
      "name": "evalLiquidation",
      "outputs": [],
      "stateMutability": "nonpayable",
      "type": "function"
    },
    {
      "inputs": [],
      "name": "execSettlement",
      "outputs": [],
      "stateMutability": "nonpayable",
      "type": "function"
    },
    {
      "inputs": [],
      "name": "feeRetainer",
      "outputs": [
        {
          "internalType": "uint256",
          "name": "",
          "type": "uint256"
        }
      ],
      "stateMutability": "view",
      "type": "function"
    },
    {
      "inputs": [],
      "name": "feeToken",
      "outputs": [
        {
          "internalType": "contract IERC20",
          "name": "",
          "type": "address"
        }
      ],
      "stateMutability": "view",
      "type": "function"
    },
    {
      "inputs": [],
      "name": "feeTokenPct",
      "outputs": [
        {
          "internalType": "uint256",
          "name": "",
          "type": "uint256"
        }
      ],
      "stateMutability": "view",
      "type": "function"
    },
    {
      "inputs": [],
      "name": "feeTokenPriceProvider",
      "outputs": [
        {
          "internalType": "contract IPriceProvider",
          "name": "",
          "type": "address"
        }
      ],
      "stateMutability": "view",
      "type": "function"
    },
    {
      "inputs": [],
      "name": "getBts",
      "outputs": [
        {
          "internalType": "uint256",
          "name": "",
          "type": "uint256"
        }
      ],
      "stateMutability": "view",
      "type": "function"
    },
    {
      "inputs": [],
      "name": "getCglb",
      "outputs": [
        {
          "internalType": "uint256",
          "name": "cglob",
          "type": "uint256"
        }
      ],
      "stateMutability": "view",
      "type": "function"
    },
    {
      "inputs": [],
      "name": "getLckAC",
      "outputs": [
        {
          "internalType": "uint256",
          "name": "lckAC",
          "type": "uint256"
        }
      ],
      "stateMutability": "view",
      "type": "function"
    },
    {
      "inputs": [],
      "name": "getLeverageTC",
      "outputs": [
        {
          "internalType": "uint256",
          "name": "leverageTC",
          "type": "uint256"
        }
      ],
      "stateMutability": "view",
      "type": "function"
    },
    {
      "inputs": [
        {
          "internalType": "address",
          "name": "tp_",
          "type": "address"
        }
      ],
      "name": "getPACtp",
      "outputs": [
        {
          "internalType": "uint256",
          "name": "",
          "type": "uint256"
        }
      ],
      "stateMutability": "view",
      "type": "function"
    },
    {
      "inputs": [],
      "name": "getPTCac",
      "outputs": [
        {
          "internalType": "uint256",
          "name": "pTCac",
          "type": "uint256"
        }
      ],
      "stateMutability": "view",
      "type": "function"
    },
    {
      "inputs": [],
      "name": "getTCAvailableToRedeem",
      "outputs": [
        {
          "internalType": "uint256",
          "name": "tcAvailableToRedeem",
          "type": "uint256"
        }
      ],
      "stateMutability": "view",
      "type": "function"
    },
    {
      "inputs": [
        {
          "internalType": "address",
          "name": "tp_",
          "type": "address"
        }
      ],
      "name": "getTPAvailableToMint",
      "outputs": [
        {
          "internalType": "int256",
          "name": "tpAvailableToMint",
          "type": "int256"
        }
      ],
      "stateMutability": "view",
      "type": "function"
    },
    {
      "inputs": [],
      "name": "getTotalACavailable",
      "outputs": [
        {
          "internalType": "uint256",
          "name": "totalACavailable",
          "type": "uint256"
        }
      ],
      "stateMutability": "view",
      "type": "function"
    },
    {
      "inputs": [],
      "name": "getTpAmount",
      "outputs": [
        {
          "internalType": "uint256",
          "name": "",
          "type": "uint256"
        }
      ],
      "stateMutability": "view",
      "type": "function"
    },
    {
      "inputs": [],
      "name": "governor",
      "outputs": [
        {
          "internalType": "contract IGovernor",
          "name": "",
          "type": "address"
        }
      ],
      "stateMutability": "view",
      "type": "function"
    },
    {
      "inputs": [
        {
          "components": [
            {
              "components": [
                {
                  "components": [
                    {
                      "internalType": "address payable",
                      "name": "mocQueueAddress",
                      "type": "address"
                    },
                    {
                      "internalType": "address",
                      "name": "feeTokenAddress",
                      "type": "address"
                    },
                    {
                      "internalType": "address",
                      "name": "feeTokenPriceProviderAddress",
                      "type": "address"
                    },
                    {
                      "internalType": "address",
                      "name": "tcTokenAddress",
                      "type": "address"
                    },
                    {
                      "internalType": "address",
                      "name": "mocFeeFlowAddress",
                      "type": "address"
                    },
                    {
                      "internalType": "address",
                      "name": "mocAppreciationBeneficiaryAddress",
                      "type": "address"
                    },
                    {
                      "internalType": "uint256",
                      "name": "protThrld",
                      "type": "uint256"
                    },
                    {
                      "internalType": "uint256",
                      "name": "liqThrld",
                      "type": "uint256"
                    },
                    {
                      "internalType": "uint256",
                      "name": "feeRetainer",
                      "type": "uint256"
                    },
                    {
                      "internalType": "uint256",
                      "name": "tcMintFee",
                      "type": "uint256"
                    },
                    {
                      "internalType": "uint256",
                      "name": "tcRedeemFee",
                      "type": "uint256"
                    },
                    {
                      "internalType": "uint256",
                      "name": "swapTPforTPFee",
                      "type": "uint256"
                    },
                    {
                      "internalType": "uint256",
                      "name": "swapTPforTCFee",
                      "type": "uint256"
                    },
                    {
                      "internalType": "uint256",
                      "name": "swapTCforTPFee",
                      "type": "uint256"
                    },
                    {
                      "internalType": "uint256",
                      "name": "redeemTCandTPFee",
                      "type": "uint256"
                    },
                    {
                      "internalType": "uint256",
                      "name": "mintTCandTPFee",
                      "type": "uint256"
                    },
                    {
                      "internalType": "uint256",
                      "name": "feeTokenPct",
                      "type": "uint256"
                    },
                    {
                      "internalType": "uint256",
                      "name": "successFee",
                      "type": "uint256"
                    },
                    {
                      "internalType": "uint256",
                      "name": "appreciationFactor",
                      "type": "uint256"
                    },
                    {
                      "internalType": "uint256",
                      "name": "bes",
                      "type": "uint256"
                    },
                    {
                      "internalType": "address",
                      "name": "tcInterestCollectorAddress",
                      "type": "address"
                    },
                    {
                      "internalType": "uint256",
                      "name": "tcInterestRate",
                      "type": "uint256"
                    },
                    {
                      "internalType": "uint256",
                      "name": "tcInterestPaymentBlockSpan",
                      "type": "uint256"
                    },
                    {
                      "internalType": "address",
                      "name": "maxAbsoluteOpProviderAddress",
                      "type": "address"
                    },
                    {
                      "internalType": "address",
                      "name": "maxOpDiffProviderAddress",
                      "type": "address"
                    },
                    {
                      "internalType": "uint256",
                      "name": "decayBlockSpan",
                      "type": "uint256"
                    }
                  ],
                  "internalType": "struct MocBaseBucket.InitializeBaseBucketParams",
                  "name": "initializeBaseBucketParams",
                  "type": "tuple"
                },
                {
                  "internalType": "address",
                  "name": "governorAddress",
                  "type": "address"
                },
                {
                  "internalType": "address",
                  "name": "pauserAddress",
                  "type": "address"
                },
                {
                  "internalType": "address",
                  "name": "mocCoreExpansion",
                  "type": "address"
                },
                {
                  "internalType": "uint256",
                  "name": "emaCalculationBlockSpan",
                  "type": "uint256"
                },
                {
                  "internalType": "address",
                  "name": "mocVendors",
                  "type": "address"
                }
              ],
              "internalType": "struct MocCore.InitializeCoreParams",
              "name": "initializeCoreParams",
              "type": "tuple"
            },
            {
              "internalType": "address",
              "name": "acTokenAddress",
              "type": "address"
            }
          ],
          "internalType": "struct MocCoreMock.InitializeParams",
          "name": "initializeParams_",
          "type": "tuple"
        }
      ],
      "name": "initialize",
      "outputs": [],
      "stateMutability": "nonpayable",
      "type": "function"
    },
    {
      "inputs": [],
      "name": "isLiquidationReached",
      "outputs": [
        {
          "internalType": "bool",
          "name": "",
          "type": "bool"
        }
      ],
      "stateMutability": "view",
      "type": "function"
    },
    {
      "inputs": [],
      "name": "lastOperationBlockNumber",
      "outputs": [
        {
          "internalType": "uint256",
          "name": "",
          "type": "uint256"
        }
      ],
      "stateMutability": "view",
      "type": "function"
    },
    {
      "inputs": [],
      "name": "liqEnabled",
      "outputs": [
        {
          "internalType": "bool",
          "name": "",
          "type": "bool"
        }
      ],
      "stateMutability": "view",
      "type": "function"
    },
    {
      "inputs": [
        {
          "internalType": "address",
          "name": "tp_",
          "type": "address"
        },
        {
          "internalType": "address",
          "name": "recipient_",
          "type": "address"
        }
      ],
      "name": "liqRedeemTP",
      "outputs": [
        {
          "internalType": "uint256",
          "name": "qACRedeemed",
          "type": "uint256"
        }
      ],
      "stateMutability": "nonpayable",
      "type": "function"
    },
    {
      "inputs": [],
      "name": "liqThrld",
      "outputs": [
        {
          "internalType": "uint256",
          "name": "",
          "type": "uint256"
        }
      ],
      "stateMutability": "view",
      "type": "function"
    },
    {
      "inputs": [],
      "name": "liquidated",
      "outputs": [
        {
          "internalType": "bool",
          "name": "",
          "type": "bool"
        }
      ],
      "stateMutability": "view",
      "type": "function"
    },
    {
      "inputs": [],
      "name": "makeStoppable",
      "outputs": [],
      "stateMutability": "nonpayable",
      "type": "function"
    },
    {
      "inputs": [],
      "name": "makeUnstoppable",
      "outputs": [],
      "stateMutability": "nonpayable",
      "type": "function"
    },
    {
      "inputs": [],
      "name": "maxAbsoluteOpProvider",
      "outputs": [
        {
          "internalType": "contract IDataProvider",
          "name": "",
          "type": "address"
        }
      ],
      "stateMutability": "view",
      "type": "function"
    },
    {
      "inputs": [],
      "name": "maxOpDiffProvider",
      "outputs": [
        {
          "internalType": "contract IDataProvider",
          "name": "",
          "type": "address"
        }
      ],
      "stateMutability": "view",
      "type": "function"
    },
    {
      "inputs": [],
      "name": "maxQACToMintTP",
      "outputs": [
        {
          "internalType": "uint256",
          "name": "maxQAC",
          "type": "uint256"
        }
      ],
      "stateMutability": "view",
      "type": "function"
    },
    {
      "inputs": [],
      "name": "maxQACToRedeemTP",
      "outputs": [
        {
          "internalType": "uint256",
          "name": "maxQAC",
          "type": "uint256"
        }
      ],
      "stateMutability": "view",
      "type": "function"
    },
    {
      "inputs": [
        {
          "internalType": "uint256",
          "name": "qTC_",
          "type": "uint256"
        },
        {
          "internalType": "uint256",
          "name": "qACmax_",
          "type": "uint256"
        },
        {
          "internalType": "address",
          "name": "recipient_",
          "type": "address"
        },
        {
          "internalType": "address",
          "name": "vendor_",
          "type": "address"
        }
      ],
      "name": "mintTC",
      "outputs": [
        {
          "internalType": "uint256",
          "name": "qACtotalNeeded",
          "type": "uint256"
        },
        {
          "internalType": "uint256",
          "name": "qFeeTokenTotalNeeded",
          "type": "uint256"
        },
        {
          "components": [
            {
              "internalType": "uint256",
              "name": "qACFee",
              "type": "uint256"
            },
            {
              "internalType": "uint256",
              "name": "qFeeToken",
              "type": "uint256"
            },
            {
              "internalType": "uint256",
              "name": "qACVendorMarkup",
              "type": "uint256"
            },
            {
              "internalType": "uint256",
              "name": "qFeeTokenVendorMarkup",
              "type": "uint256"
            }
          ],
          "internalType": "struct MocCommons.FeeCalcs",
          "name": "feeCalcs",
          "type": "tuple"
        }
      ],
      "stateMutability": "payable",
      "type": "function"
    },
    {
      "inputs": [
        {
          "internalType": "address",
          "name": "tp_",
          "type": "address"
        },
        {
          "internalType": "uint256",
          "name": "qTP_",
          "type": "uint256"
        },
        {
          "internalType": "uint256",
          "name": "qACmax_",
          "type": "uint256"
        },
        {
          "internalType": "address",
          "name": "recipient_",
          "type": "address"
        },
        {
          "internalType": "address",
          "name": "vendor_",
          "type": "address"
        }
      ],
      "name": "mintTCandTP",
      "outputs": [
        {
          "internalType": "uint256",
          "name": "qACtotalNeeded",
          "type": "uint256"
        },
        {
          "internalType": "uint256",
          "name": "qTCtoMint",
          "type": "uint256"
        },
        {
          "internalType": "uint256",
          "name": "qFeeTokenTotalNeeded",
          "type": "uint256"
        },
        {
          "components": [
            {
              "internalType": "uint256",
              "name": "qACFee",
              "type": "uint256"
            },
            {
              "internalType": "uint256",
              "name": "qFeeToken",
              "type": "uint256"
            },
            {
              "internalType": "uint256",
              "name": "qACVendorMarkup",
              "type": "uint256"
            },
            {
              "internalType": "uint256",
              "name": "qFeeTokenVendorMarkup",
              "type": "uint256"
            }
          ],
          "internalType": "struct MocCommons.FeeCalcs",
          "name": "feeCalcs",
          "type": "tuple"
        }
      ],
      "stateMutability": "payable",
      "type": "function"
    },
    {
      "inputs": [],
      "name": "mintTCandTPFee",
      "outputs": [
        {
          "internalType": "uint256",
          "name": "",
          "type": "uint256"
        }
      ],
      "stateMutability": "view",
      "type": "function"
    },
    {
      "inputs": [
        {
          "internalType": "address",
          "name": "tp_",
          "type": "address"
        },
        {
          "internalType": "uint256",
          "name": "qTP_",
          "type": "uint256"
        },
        {
          "internalType": "uint256",
          "name": "qACmax_",
          "type": "uint256"
        },
        {
          "internalType": "address",
          "name": "recipient_",
          "type": "address"
        },
        {
          "internalType": "address",
          "name": "vendor_",
          "type": "address"
        }
      ],
      "name": "mintTP",
      "outputs": [
        {
          "internalType": "uint256",
          "name": "qACtotalNeeded",
          "type": "uint256"
        },
        {
          "internalType": "uint256",
          "name": "qFeeTokenTotalNeeded",
          "type": "uint256"
        },
        {
          "components": [
            {
              "internalType": "uint256",
              "name": "qACFee",
              "type": "uint256"
            },
            {
              "internalType": "uint256",
              "name": "qFeeToken",
              "type": "uint256"
            },
            {
              "internalType": "uint256",
              "name": "qACVendorMarkup",
              "type": "uint256"
            },
            {
              "internalType": "uint256",
              "name": "qFeeTokenVendorMarkup",
              "type": "uint256"
            }
          ],
          "internalType": "struct MocCommons.FeeCalcs",
          "name": "feeCalcs",
          "type": "tuple"
        }
      ],
      "stateMutability": "payable",
      "type": "function"
    },
    {
      "inputs": [],
      "name": "mocAppreciationBeneficiaryAddress",
      "outputs": [
        {
          "internalType": "address",
          "name": "",
          "type": "address"
        }
      ],
      "stateMutability": "view",
      "type": "function"
    },
    {
      "inputs": [],
      "name": "mocFeeFlowAddress",
      "outputs": [
        {
          "internalType": "address",
          "name": "",
          "type": "address"
        }
      ],
      "stateMutability": "view",
      "type": "function"
    },
    {
      "inputs": [],
      "name": "mocQueue",
      "outputs": [
        {
          "internalType": "address payable",
          "name": "",
          "type": "address"
        }
      ],
      "stateMutability": "view",
      "type": "function"
    },
    {
      "inputs": [],
      "name": "mocVendors",
      "outputs": [
        {
          "internalType": "contract MocVendors",
          "name": "",
          "type": "address"
        }
      ],
      "stateMutability": "view",
      "type": "function"
    },
    {
      "inputs": [],
      "name": "nACcb",
      "outputs": [
        {
          "internalType": "uint256",
          "name": "",
          "type": "uint256"
        }
      ],
      "stateMutability": "view",
      "type": "function"
    },
    {
      "inputs": [],
      "name": "nTCcb",
      "outputs": [
        {
          "internalType": "uint256",
          "name": "",
          "type": "uint256"
        }
      ],
      "stateMutability": "view",
      "type": "function"
    },
    {
      "inputs": [],
      "name": "nextEmaCalculation",
      "outputs": [
        {
          "internalType": "uint256",
          "name": "",
          "type": "uint256"
        }
      ],
      "stateMutability": "view",
      "type": "function"
    },
    {
      "inputs": [],
      "name": "nextTCInterestPayment",
      "outputs": [
        {
          "internalType": "uint256",
          "name": "",
          "type": "uint256"
        }
      ],
      "stateMutability": "view",
      "type": "function"
    },
    {
      "inputs": [],
      "name": "pause",
      "outputs": [],
      "stateMutability": "nonpayable",
      "type": "function"
    },
    {
      "inputs": [],
      "name": "paused",
      "outputs": [
        {
          "internalType": "bool",
          "name": "",
          "type": "bool"
        }
      ],
      "stateMutability": "view",
      "type": "function"
    },
    {
      "inputs": [],
      "name": "pauser",
      "outputs": [
        {
          "internalType": "address",
          "name": "",
          "type": "address"
        }
      ],
      "stateMutability": "view",
      "type": "function"
    },
    {
      "inputs": [
        {
          "internalType": "uint256",
          "name": "",
          "type": "uint256"
        }
      ],
      "name": "pegContainer",
      "outputs": [
        {
          "internalType": "uint256",
          "name": "nTP",
          "type": "uint256"
        },
        {
          "internalType": "contract IPriceProvider",
          "name": "priceProvider",
          "type": "address"
        }
      ],
      "stateMutability": "view",
      "type": "function"
    },
    {
      "inputs": [
        {
          "internalType": "address",
          "name": "",
          "type": "address"
        }
      ],
      "name": "peggedTokenIndex",
      "outputs": [
        {
          "internalType": "uint256",
          "name": "index",
          "type": "uint256"
        },
        {
          "internalType": "bool",
          "name": "exists",
          "type": "bool"
        }
      ],
      "stateMutability": "view",
      "type": "function"
    },
    {
      "inputs": [],
      "name": "protThrld",
      "outputs": [
        {
          "internalType": "uint256",
          "name": "",
          "type": "uint256"
        }
      ],
      "stateMutability": "view",
      "type": "function"
    },
    {
      "inputs": [],
      "name": "proxiableUUID",
      "outputs": [
        {
          "internalType": "bytes32",
          "name": "",
          "type": "bytes32"
        }
      ],
      "stateMutability": "view",
      "type": "function"
    },
    {
      "inputs": [],
      "name": "qACLockedInPending",
      "outputs": [
        {
          "internalType": "uint256",
          "name": "",
          "type": "uint256"
        }
      ],
      "stateMutability": "view",
      "type": "function"
    },
    {
      "inputs": [
        {
          "internalType": "uint256",
          "name": "qTC_",
          "type": "uint256"
        },
        {
          "internalType": "uint256",
          "name": "qACmin_",
          "type": "uint256"
        },
        {
          "internalType": "address",
          "name": "recipient_",
          "type": "address"
        },
        {
          "internalType": "address",
          "name": "vendor_",
          "type": "address"
        }
      ],
      "name": "redeemTC",
      "outputs": [
        {
          "internalType": "uint256",
          "name": "qACtoRedeem",
          "type": "uint256"
        },
        {
          "internalType": "uint256",
          "name": "qFeeTokenTotalNeeded",
          "type": "uint256"
        },
        {
          "components": [
            {
              "internalType": "uint256",
              "name": "qACFee",
              "type": "uint256"
            },
            {
              "internalType": "uint256",
              "name": "qFeeToken",
              "type": "uint256"
            },
            {
              "internalType": "uint256",
              "name": "qACVendorMarkup",
              "type": "uint256"
            },
            {
              "internalType": "uint256",
              "name": "qFeeTokenVendorMarkup",
              "type": "uint256"
            }
          ],
          "internalType": "struct MocCommons.FeeCalcs",
          "name": "feeCalcs",
          "type": "tuple"
        }
      ],
      "stateMutability": "payable",
      "type": "function"
    },
    {
      "inputs": [
        {
          "internalType": "address",
          "name": "tp_",
          "type": "address"
        },
        {
          "internalType": "uint256",
          "name": "qTC_",
          "type": "uint256"
        },
        {
          "internalType": "uint256",
          "name": "qTP_",
          "type": "uint256"
        },
        {
          "internalType": "uint256",
          "name": "qACmin_",
          "type": "uint256"
        },
        {
          "internalType": "address",
          "name": "recipient_",
          "type": "address"
        },
        {
          "internalType": "address",
          "name": "vendor_",
          "type": "address"
        }
      ],
      "name": "redeemTCandTP",
      "outputs": [
        {
          "internalType": "uint256",
          "name": "qACtoRedeem",
          "type": "uint256"
        },
        {
          "internalType": "uint256",
          "name": "qTPtoRedeem",
          "type": "uint256"
        },
        {
          "internalType": "uint256",
          "name": "qFeeTokenTotalNeeded",
          "type": "uint256"
        },
        {
          "components": [
            {
              "internalType": "uint256",
              "name": "qACFee",
              "type": "uint256"
            },
            {
              "internalType": "uint256",
              "name": "qFeeToken",
              "type": "uint256"
            },
            {
              "internalType": "uint256",
              "name": "qACVendorMarkup",
              "type": "uint256"
            },
            {
              "internalType": "uint256",
              "name": "qFeeTokenVendorMarkup",
              "type": "uint256"
            }
          ],
          "internalType": "struct MocCommons.FeeCalcs",
          "name": "feeCalcs",
          "type": "tuple"
        }
      ],
      "stateMutability": "payable",
      "type": "function"
    },
    {
      "inputs": [],
      "name": "redeemTCandTPFee",
      "outputs": [
        {
          "internalType": "uint256",
          "name": "",
          "type": "uint256"
        }
      ],
      "stateMutability": "view",
      "type": "function"
    },
    {
      "inputs": [
        {
          "internalType": "address",
          "name": "tp_",
          "type": "address"
        },
        {
          "internalType": "uint256",
          "name": "qTP_",
          "type": "uint256"
        },
        {
          "internalType": "uint256",
          "name": "qACmin_",
          "type": "uint256"
        },
        {
          "internalType": "address",
          "name": "recipient_",
          "type": "address"
        },
        {
          "internalType": "address",
          "name": "vendor_",
          "type": "address"
        }
      ],
      "name": "redeemTP",
      "outputs": [
        {
          "internalType": "uint256",
          "name": "qACtoRedeem",
          "type": "uint256"
        },
        {
          "internalType": "uint256",
          "name": "qFeeTokenTotalNeeded",
          "type": "uint256"
        },
        {
          "components": [
            {
              "internalType": "uint256",
              "name": "qACFee",
              "type": "uint256"
            },
            {
              "internalType": "uint256",
              "name": "qFeeToken",
              "type": "uint256"
            },
            {
              "internalType": "uint256",
              "name": "qACVendorMarkup",
              "type": "uint256"
            },
            {
              "internalType": "uint256",
              "name": "qFeeTokenVendorMarkup",
              "type": "uint256"
            }
          ],
          "internalType": "struct MocCommons.FeeCalcs",
          "name": "feeCalcs",
          "type": "tuple"
        }
      ],
      "stateMutability": "payable",
      "type": "function"
    },
    {
      "inputs": [],
      "name": "refreshACBalance",
      "outputs": [],
      "stateMutability": "nonpayable",
      "type": "function"
    },
    {
      "inputs": [
        {
          "internalType": "uint256",
          "name": "appreciationFactor_",
          "type": "uint256"
        }
      ],
      "name": "setAppreciationFactor",
      "outputs": [],
      "stateMutability": "nonpayable",
      "type": "function"
    },
    {
      "inputs": [
        {
          "internalType": "uint256",
          "name": "bes_",
          "type": "uint256"
        }
      ],
      "name": "setBes",
      "outputs": [],
      "stateMutability": "nonpayable",
      "type": "function"
    },
    {
      "inputs": [
        {
          "internalType": "uint256",
          "name": "decayBlockSpan_",
          "type": "uint256"
        }
      ],
      "name": "setDecayBlockSpan",
      "outputs": [],
      "stateMutability": "nonpayable",
      "type": "function"
    },
    {
      "inputs": [
        {
          "internalType": "uint256",
          "name": "blockSpan_",
          "type": "uint256"
        }
      ],
      "name": "setEmaCalculationBlockSpan",
      "outputs": [],
      "stateMutability": "nonpayable",
      "type": "function"
    },
    {
      "inputs": [
        {
          "internalType": "uint256",
          "name": "feeRetainer_",
          "type": "uint256"
        }
      ],
      "name": "setFeeRetainer",
      "outputs": [],
      "stateMutability": "nonpayable",
      "type": "function"
    },
    {
      "inputs": [
        {
          "internalType": "address",
          "name": "mocFeeTokenAddress_",
          "type": "address"
        }
      ],
      "name": "setFeeTokenAddress",
      "outputs": [],
      "stateMutability": "nonpayable",
      "type": "function"
    },
    {
      "inputs": [
        {
          "internalType": "uint256",
          "name": "feeTokenPct_",
          "type": "uint256"
        }
      ],
      "name": "setFeeTokenPct",
      "outputs": [],
      "stateMutability": "nonpayable",
      "type": "function"
    },
    {
      "inputs": [
        {
          "internalType": "address",
          "name": "mocFeeTokenPriceProviderAddress_",
          "type": "address"
        }
      ],
      "name": "setFeeTokenPriceProviderAddress",
      "outputs": [],
      "stateMutability": "nonpayable",
      "type": "function"
    },
    {
      "inputs": [
        {
          "internalType": "bool",
          "name": "liqEnabled_",
          "type": "bool"
        }
      ],
      "name": "setLiqEnabled",
      "outputs": [],
      "stateMutability": "nonpayable",
      "type": "function"
    },
    {
      "inputs": [
        {
          "internalType": "uint256",
          "name": "liqThrld_",
          "type": "uint256"
        }
      ],
      "name": "setLiqThrld",
      "outputs": [],
      "stateMutability": "nonpayable",
      "type": "function"
    },
    {
      "inputs": [
        {
          "internalType": "address",
          "name": "maxAbsoluteOpProviderAddress_",
          "type": "address"
        }
      ],
      "name": "setMaxAbsoluteOpProviderAddress",
      "outputs": [],
      "stateMutability": "nonpayable",
      "type": "function"
    },
    {
      "inputs": [
        {
          "internalType": "address",
          "name": "maxOpDiffProviderAddress_",
          "type": "address"
        }
      ],
      "name": "setMaxOpDiffProviderAddress",
      "outputs": [],
      "stateMutability": "nonpayable",
      "type": "function"
    },
    {
      "inputs": [
        {
          "internalType": "uint256",
          "name": "mintTCandTPFee_",
          "type": "uint256"
        }
      ],
      "name": "setMintTCandTPFee",
      "outputs": [],
      "stateMutability": "nonpayable",
      "type": "function"
    },
    {
      "inputs": [
        {
          "internalType": "address",
          "name": "mocAppreciationBeneficiaryAddress_",
          "type": "address"
        }
      ],
      "name": "setMocAppreciationBeneficiaryAddress",
      "outputs": [],
      "stateMutability": "nonpayable",
      "type": "function"
    },
    {
      "inputs": [
        {
          "internalType": "address",
          "name": "mocCoreExpansion_",
          "type": "address"
        }
      ],
      "name": "setMocCoreExpansion",
      "outputs": [],
      "stateMutability": "nonpayable",
      "type": "function"
    },
    {
      "inputs": [
        {
          "internalType": "address",
          "name": "mocFeeFlowAddress_",
          "type": "address"
        }
      ],
      "name": "setMocFeeFlowAddress",
      "outputs": [],
      "stateMutability": "nonpayable",
      "type": "function"
    },
    {
      "inputs": [
        {
          "internalType": "address payable",
          "name": "mocQueueAddress_",
          "type": "address"
        }
      ],
      "name": "setMocQueue",
      "outputs": [],
      "stateMutability": "nonpayable",
      "type": "function"
    },
    {
      "inputs": [
        {
          "internalType": "address",
          "name": "mocVendors_",
          "type": "address"
        }
      ],
      "name": "setMocVendors",
      "outputs": [],
      "stateMutability": "nonpayable",
      "type": "function"
    },
    {
      "inputs": [
        {
          "internalType": "address",
          "name": "newPauser_",
          "type": "address"
        }
      ],
      "name": "setPauser",
      "outputs": [],
      "stateMutability": "nonpayable",
      "type": "function"
    },
    {
      "inputs": [
        {
          "internalType": "uint256",
          "name": "protThrld_",
          "type": "uint256"
        }
      ],
      "name": "setProtThrld",
      "outputs": [],
      "stateMutability": "nonpayable",
      "type": "function"
    },
    {
      "inputs": [
        {
          "internalType": "uint256",
          "name": "redeemTCandTPFee_",
          "type": "uint256"
        }
      ],
      "name": "setRedeemTCandTPFee",
      "outputs": [],
      "stateMutability": "nonpayable",
      "type": "function"
    },
    {
      "inputs": [
        {
          "internalType": "uint256",
          "name": "successFee_",
          "type": "uint256"
        }
      ],
      "name": "setSuccessFee",
      "outputs": [],
      "stateMutability": "nonpayable",
      "type": "function"
    },
    {
      "inputs": [
        {
          "internalType": "uint256",
          "name": "swapTCforTPFee_",
          "type": "uint256"
        }
      ],
      "name": "setSwapTCforTPFee",
      "outputs": [],
      "stateMutability": "nonpayable",
      "type": "function"
    },
    {
      "inputs": [
        {
          "internalType": "uint256",
          "name": "swapTPforTCFee_",
          "type": "uint256"
        }
      ],
      "name": "setSwapTPforTCFee",
      "outputs": [],
      "stateMutability": "nonpayable",
      "type": "function"
    },
    {
      "inputs": [
        {
          "internalType": "uint256",
          "name": "swapTPforTPFee_",
          "type": "uint256"
        }
      ],
      "name": "setSwapTPforTPFee",
      "outputs": [],
      "stateMutability": "nonpayable",
      "type": "function"
    },
    {
      "inputs": [
        {
          "internalType": "address",
          "name": "tcInterestCollectorAddress_",
          "type": "address"
        }
      ],
      "name": "setTCInterestCollectorAddress",
      "outputs": [],
      "stateMutability": "nonpayable",
      "type": "function"
    },
    {
      "inputs": [
        {
          "internalType": "uint256",
          "name": "tcInterestPaymentBlockSpan_",
          "type": "uint256"
        }
      ],
      "name": "setTCInterestPaymentBlockSpan",
      "outputs": [],
      "stateMutability": "nonpayable",
      "type": "function"
    },
    {
      "inputs": [
        {
          "internalType": "uint256",
          "name": "tcInterestRate_",
          "type": "uint256"
        }
      ],
      "name": "setTCInterestRate",
      "outputs": [],
      "stateMutability": "nonpayable",
      "type": "function"
    },
    {
      "inputs": [
        {
          "internalType": "uint256",
          "name": "tcMintFee_",
          "type": "uint256"
        }
      ],
      "name": "setTcMintFee",
      "outputs": [],
      "stateMutability": "nonpayable",
      "type": "function"
    },
    {
      "inputs": [
        {
          "internalType": "uint256",
          "name": "tcRedeemFee_",
          "type": "uint256"
        }
      ],
      "name": "setTcRedeemFee",
      "outputs": [],
      "stateMutability": "nonpayable",
      "type": "function"
    },
    {
      "inputs": [],
      "name": "shouldCalculateEma",
      "outputs": [
        {
          "internalType": "bool",
          "name": "",
          "type": "bool"
        }
      ],
      "stateMutability": "view",
      "type": "function"
    },
    {
      "inputs": [],
      "name": "stoppable",
      "outputs": [
        {
          "internalType": "bool",
          "name": "",
          "type": "bool"
        }
      ],
      "stateMutability": "view",
      "type": "function"
    },
    {
      "inputs": [],
      "name": "successFee",
      "outputs": [
        {
          "internalType": "uint256",
          "name": "",
          "type": "uint256"
        }
      ],
      "stateMutability": "view",
      "type": "function"
    },
    {
      "inputs": [
        {
          "internalType": "address",
          "name": "tp_",
          "type": "address"
        },
        {
          "internalType": "uint256",
          "name": "qTC_",
          "type": "uint256"
        },
        {
          "internalType": "uint256",
          "name": "qTPmin_",
          "type": "uint256"
        },
        {
          "internalType": "uint256",
          "name": "qACmax_",
          "type": "uint256"
        },
        {
          "internalType": "address",
          "name": "recipient_",
          "type": "address"
        },
        {
          "internalType": "address",
          "name": "vendor_",
          "type": "address"
        }
      ],
      "name": "swapTCforTP",
      "outputs": [
        {
          "internalType": "uint256",
          "name": "qACSurcharges",
          "type": "uint256"
        },
        {
          "internalType": "uint256",
          "name": "qTPtoMint",
          "type": "uint256"
        },
        {
          "internalType": "uint256",
          "name": "qFeeTokenTotalNeeded",
          "type": "uint256"
        },
        {
          "components": [
            {
              "internalType": "uint256",
              "name": "qACFee",
              "type": "uint256"
            },
            {
              "internalType": "uint256",
              "name": "qFeeToken",
              "type": "uint256"
            },
            {
              "internalType": "uint256",
              "name": "qACVendorMarkup",
              "type": "uint256"
            },
            {
              "internalType": "uint256",
              "name": "qFeeTokenVendorMarkup",
              "type": "uint256"
            }
          ],
          "internalType": "struct MocCommons.FeeCalcs",
          "name": "feeCalcs",
          "type": "tuple"
        }
      ],
      "stateMutability": "payable",
      "type": "function"
    },
    {
      "inputs": [],
      "name": "swapTCforTPFee",
      "outputs": [
        {
          "internalType": "uint256",
          "name": "",
          "type": "uint256"
        }
      ],
      "stateMutability": "view",
      "type": "function"
    },
    {
      "inputs": [
        {
          "internalType": "address",
          "name": "tp_",
          "type": "address"
        },
        {
          "internalType": "uint256",
          "name": "qTP_",
          "type": "uint256"
        },
        {
          "internalType": "uint256",
          "name": "qTCmin_",
          "type": "uint256"
        },
        {
          "internalType": "uint256",
          "name": "qACmax_",
          "type": "uint256"
        },
        {
          "internalType": "address",
          "name": "recipient_",
          "type": "address"
        },
        {
          "internalType": "address",
          "name": "vendor_",
          "type": "address"
        }
      ],
      "name": "swapTPforTC",
      "outputs": [
        {
          "internalType": "uint256",
          "name": "qACSurcharges",
          "type": "uint256"
        },
        {
          "internalType": "uint256",
          "name": "qTCMinted",
          "type": "uint256"
        },
        {
          "internalType": "uint256",
          "name": "qFeeTokenTotalNeeded",
          "type": "uint256"
        },
        {
          "components": [
            {
              "internalType": "uint256",
              "name": "qACFee",
              "type": "uint256"
            },
            {
              "internalType": "uint256",
              "name": "qFeeToken",
              "type": "uint256"
            },
            {
              "internalType": "uint256",
              "name": "qACVendorMarkup",
              "type": "uint256"
            },
            {
              "internalType": "uint256",
              "name": "qFeeTokenVendorMarkup",
              "type": "uint256"
            }
          ],
          "internalType": "struct MocCommons.FeeCalcs",
          "name": "feeCalcs",
          "type": "tuple"
        }
      ],
      "stateMutability": "payable",
      "type": "function"
    },
    {
      "inputs": [],
      "name": "swapTPforTCFee",
      "outputs": [
        {
          "internalType": "uint256",
          "name": "",
          "type": "uint256"
        }
      ],
      "stateMutability": "view",
      "type": "function"
    },
    {
      "inputs": [
        {
          "internalType": "address",
          "name": "tpFrom_",
          "type": "address"
        },
        {
          "internalType": "address",
          "name": "tpTo_",
          "type": "address"
        },
        {
          "internalType": "uint256",
          "name": "qTP_",
          "type": "uint256"
        },
        {
          "internalType": "uint256",
          "name": "qTPmin_",
          "type": "uint256"
        },
        {
          "internalType": "uint256",
          "name": "qACmax_",
          "type": "uint256"
        },
        {
          "internalType": "address",
          "name": "recipient_",
          "type": "address"
        },
        {
          "internalType": "address",
          "name": "vendor_",
          "type": "address"
        }
      ],
      "name": "swapTPforTP",
      "outputs": [
        {
          "internalType": "uint256",
          "name": "qACSurcharges",
          "type": "uint256"
        },
        {
          "internalType": "uint256",
          "name": "qTPMinted",
          "type": "uint256"
        },
        {
          "internalType": "uint256",
          "name": "qFeeTokenTotalNeeded",
          "type": "uint256"
        },
        {
          "components": [
            {
              "internalType": "uint256",
              "name": "qACFee",
              "type": "uint256"
            },
            {
              "internalType": "uint256",
              "name": "qFeeToken",
              "type": "uint256"
            },
            {
              "internalType": "uint256",
              "name": "qACVendorMarkup",
              "type": "uint256"
            },
            {
              "internalType": "uint256",
              "name": "qFeeTokenVendorMarkup",
              "type": "uint256"
            }
          ],
          "internalType": "struct MocCommons.FeeCalcs",
          "name": "feeCalcs",
          "type": "tuple"
        }
      ],
      "stateMutability": "payable",
      "type": "function"
    },
    {
      "inputs": [],
      "name": "swapTPforTPFee",
      "outputs": [
        {
          "internalType": "uint256",
          "name": "",
          "type": "uint256"
        }
      ],
      "stateMutability": "view",
      "type": "function"
    },
    {
      "inputs": [],
      "name": "tcHoldersInterestPayment",
      "outputs": [],
      "stateMutability": "nonpayable",
      "type": "function"
    },
    {
      "inputs": [],
      "name": "tcInterestCollectorAddress",
      "outputs": [
        {
          "internalType": "address",
          "name": "",
          "type": "address"
        }
      ],
      "stateMutability": "view",
      "type": "function"
    },
    {
      "inputs": [],
      "name": "tcInterestPaymentBlockSpan",
      "outputs": [
        {
          "internalType": "uint256",
          "name": "",
          "type": "uint256"
        }
      ],
      "stateMutability": "view",
      "type": "function"
    },
    {
      "inputs": [],
      "name": "tcInterestRate",
      "outputs": [
        {
          "internalType": "uint256",
          "name": "",
          "type": "uint256"
        }
      ],
      "stateMutability": "view",
      "type": "function"
    },
    {
      "inputs": [],
      "name": "tcMintFee",
      "outputs": [
        {
          "internalType": "uint256",
          "name": "",
          "type": "uint256"
        }
      ],
      "stateMutability": "view",
      "type": "function"
    },
    {
      "inputs": [],
      "name": "tcRedeemFee",
      "outputs": [
        {
          "internalType": "uint256",
          "name": "",
          "type": "uint256"
        }
      ],
      "stateMutability": "view",
      "type": "function"
    },
    {
      "inputs": [],
      "name": "tcToken",
      "outputs": [
        {
          "internalType": "contract MocTC",
          "name": "",
          "type": "address"
        }
      ],
      "stateMutability": "view",
      "type": "function"
    },
    {
      "inputs": [
        {
          "internalType": "uint256",
          "name": "",
          "type": "uint256"
        }
      ],
      "name": "tpCtarg",
      "outputs": [
        {
          "internalType": "uint256",
          "name": "",
          "type": "uint256"
        }
      ],
      "stateMutability": "view",
      "type": "function"
    },
    {
      "inputs": [
        {
          "internalType": "uint256",
          "name": "",
          "type": "uint256"
        }
      ],
      "name": "tpEma",
      "outputs": [
        {
          "internalType": "uint256",
          "name": "ema",
          "type": "uint256"
        },
        {
          "internalType": "uint256",
          "name": "sf",
          "type": "uint256"
        }
      ],
      "stateMutability": "view",
      "type": "function"
    },
    {
      "inputs": [
        {
          "internalType": "uint256",
          "name": "",
          "type": "uint256"
        }
      ],
      "name": "tpLiqPrices",
      "outputs": [
        {
          "internalType": "uint256",
          "name": "",
          "type": "uint256"
        }
      ],
      "stateMutability": "view",
      "type": "function"
    },
    {
      "inputs": [
        {
          "internalType": "address",
          "name": "",
          "type": "address"
        }
      ],
      "name": "tpMintFees",
      "outputs": [
        {
          "internalType": "uint256",
          "name": "",
          "type": "uint256"
        }
      ],
      "stateMutability": "view",
      "type": "function"
    },
    {
      "inputs": [
        {
          "internalType": "address",
          "name": "",
          "type": "address"
        }
      ],
      "name": "tpRedeemFees",
      "outputs": [
        {
          "internalType": "uint256",
          "name": "",
          "type": "uint256"
        }
      ],
      "stateMutability": "view",
      "type": "function"
    },
    {
      "inputs": [
        {
          "internalType": "uint256",
          "name": "",
          "type": "uint256"
        }
      ],
      "name": "tpTokens",
      "outputs": [
        {
          "internalType": "contract IMocRC20",
          "name": "",
          "type": "address"
        }
      ],
      "stateMutability": "view",
      "type": "function"
    },
    {
      "inputs": [],
      "name": "unpause",
      "outputs": [],
      "stateMutability": "nonpayable",
      "type": "function"
    },
    {
      "inputs": [],
      "name": "updateEmas",
      "outputs": [],
      "stateMutability": "nonpayable",
      "type": "function"
    },
    {
      "inputs": [
        {
          "internalType": "address",
          "name": "newImplementation",
          "type": "address"
        }
      ],
      "name": "upgradeTo",
      "outputs": [],
      "stateMutability": "nonpayable",
      "type": "function"
    },
    {
      "inputs": [
        {
          "internalType": "address",
          "name": "newImplementation",
          "type": "address"
        },
        {
          "internalType": "bytes",
          "name": "data",
          "type": "bytes"
        }
      ],
      "name": "upgradeToAndCall",
      "outputs": [],
      "stateMutability": "payable",
      "type": "function"
    }
  ],
  "bytecode": "0x60a08060405234620000e157306080526000549060ff8260081c166200008f575060ff8082160362000053575b60405161534c9081620000e7823960805181818161235f015281816124d001526128b40152f35b60ff90811916176000557f7f26b83ff96e1f2b6a682f133852f6798a09c465da95921460cefb3847402498602060405160ff8152a1386200002c565b62461bcd60e51b815260206004820152602760248201527f496e697469616c697a61626c653a20636f6e747261637420697320696e697469604482015266616c697a696e6760c81b6064820152608490fd5b600080fdfe6080604052600436101561001257600080fd5b6000803560e01c806301dde6ef146138bc57806301f1b684146138745780630579188f146137dc578063073763b9146137b85780630c340a241461378f5780630c36d897146137705780630d6ac4631461372a5780630db496561461370b5780630e0a8fd2146136e75780630f1e5e2b146136a157806313ed7ba51461367757806314b4906d1461348a5780631867e2f51461346b5780631fb0dda0146134445780631fe6a7ad1461340a5780632069f753146133e657806323b98cde146133bf57806324ffaba31461338157806325bc6c411461335757806327eab2a1146133115780632a20d57d146132f25780632c43bd3b146132ce5780632d88af4a146132775780632ded50f0146132585780632eccb11c14612fd25780632ed35ca114612d1d578063333431fd14612cfe57806333421c3814612c1157806334d70ffa1461291b5780633659cfe6146128825780633915edcb146128535780633bc4ac0a1461282f5780633cfb09ef146127e95780633f4ba83a146126e95780634017936a146126ba578063407f0e341461269b57806347dda6af146125f15780634b746001146125a45780634d977e78146125855780634e1f907a1461255b5780634f0f27ee1461253c5780634f1ef286146124485780635210570c1461242257806352d1902d1461234c578063533a4bea1461231b578063543aeb48146122f75780635860ee63146122d85780635c616a73146120e25780635c975abb146120bc5780635cfbe5781461209d57806360009e0b1461207357806360a01dfa14611c1457806360ef07bf146119fe578063647846a5146119d457806364ec230a146119b0578063662013f414611995578063682743571461196c5780636b5488df1461194d5780636f30471f1461192e578063707134681461190a578063735d3960146118c457806373e28af9146118a05780637554fffd1461188157806376228055146118625780637750ba0c1461183e578063797709ca1461160757806379f9a91c146115e85780637a193c31146115c95780637a4ff1d9146115a55780637a727fe8146115865780637af5758c146115625780637cba23831461153e5780637d8e0314146115015780637f01c715146114d75780637f13b998146114a35780637f4a4fe014611484578063826fcd58146114635780638456cb59146113cc57806385bf9593146113865780638cfa4241146113675780638e2bdb861461133d5780638f1a383a146113165780639853c35a146112ec5780639ad6659d146112b75780639cabfc001461126a5780639fd0506d1461123d578063a8e9ac301461121b578063aea038dc146111fc578063b03e11a014610f1b578063b5e9ea8c14610ef1578063b9fa641314610ed2578063bb4872de14610eaf578063becaca6b14610e8b578063c00f538d14610e67578063c039cc6914610e27578063c84353c914610e03578063cf351c1d14610dbd578063d1a0faa014610da1578063d2dc25a514610bc6578063d6af11da14610b8c578063d87aab6f14610b6d578063d8db6f5a14610b27578063db79607214610ae7578063ddb6d19014610aa9578063de8d520a14610a78578063e23c135c14610a33578063e4c0aaf4146109e5578063e6a683e01461099f578063e6b1627c1461095c578063e7c2597814610938578063e8859a151461091d578063ee1f438f146108f3578063f13f4054146108c9578063f26114aa14610865578063f280877814610841578063f30b561414610822578063f375cfba14610803578063f88b143414610795578063fa6e83bd14610776578063fadda424146106fd578063fda70f8b146106de578063fdcdc11e146105875763fe6b92c11461056657600080fd5b34610584578060031936011261058457602061013554604051908152f35b80fd5b6106c46106ce6106da61069461059e3660046139a7565b6105ae9894929198979397614d59565b50610229546001600160a01b039687946106a3926105d3908690309033908a16614d80565b8561014e9c8d6105e4888254613f67565b905581604051936105f660c086613a31565b168352602083019c8d5260408301968752606083019c8d3390528260808501921682528260a085019716875261062a614d59565b50610633614dc4565b61063b614b2d565b8260405194637225da8960e11b60208701525116602485015251604484015286516064840152818d51166084840152511660a48201528584511660c482015260c4815261068960e482613a31565b856101f6541661457c565b60208082518301019101615236565b98839b8a97949299939d6106b98851825461415d565b90555116945161415d565b91511691806150ab565b60405194859485613965565b0390f35b5034610584578060031936011261058457602061013c54604051908152f35b5034610584576020366003190112610584576001600160a01b0360043581811681036107715761073961073160019261429b565b610137613a15565b500154166107468161432c565b9190911561075957602082604051908152f35b60249060405190637f6e4db960e01b82526004820152fd5b600080fd5b5034610584578060031936011261058457602061013a54604051908152f35b5034610584576020366003190112610584576004356001600160a01b0381168103610771576107fb6107ed6020926107d66107ce614948565b91909261429b565b916107f56107e48484613f53565b51948593613f8a565b9590946148a5565b906147a2565b604051908152f35b5034610584578060031936011261058457602061014154604051908152f35b5034610584578060031936011261058457602061013154604051908152f35b50346105845760203660031901126105845761085b614a9f565b60043561013c5580f35b50346105845760e03660031901126105845761087f614a9f565b6040516379308a5560e11b60208201526108c5906108b3816108a56004602483016146b3565b03601f198101835282613a31565b6101f6546001600160a01b031661457c565b5080f35b5034610584578060031936011261058457610130546040516001600160a01b039091168152602090f35b5034610584578060031936011261058457610152546040516001600160a01b039091168152602090f35b503461058457806003193601126105845760206107fb614868565b5034610584578060031936011261058457602060ff61014b54166040519015158152f35b5034610584576020366003190112610584576004359061018e90815483101561058457604061098b8484613a15565b506001815491015482519182526020820152f35b5034610584576020366003190112610584576004356001600160a01b03811690819003610771576109ce614a9f565b6101f680546001600160a01b031916909117905580f35b5034610584576020366003190112610584576004356001600160a01b03811690819003610a2f57610a14614a9f565b6bffffffffffffffffffffffff60a01b609754161760975580f35b5080fd5b5034610584578060031936011261058457610a4d30614cea565b61013190610a5d8254809261415d565b80610a66578380f35b610a6f91613f67565b90553880808380f35b503461058457806003193601126105845760206107fb610a9e610a9961439e565b613f8a565b90506101315461415d565b5034610584576020366003190112610584576004356001600160a01b0381169081900361077157816040916020935261014583522054604051908152f35b50346105845760e036600319011261058457610b01614a9f565b604051636dbcb03960e11b60208201526108c5906108b3816108a56004602483016146b3565b5034610584576020366003190112610584576004356001600160a01b0381169081900361077157610b56614a9f565b61015280546001600160a01b031916909117905580f35b5034610584578060031936011261058457602061015554604051908152f35b503461058457806003193601126105845760206107fb610bac60016143d8565b610bc0610bb982846140ce565b9183614018565b9161441f565b610ca682610bd53660046139a7565b93949291610be1614d59565b50610229546001600160a01b039590610c01908390309033908a16614d80565b61014e95610c10838854613f67565b87558060405198610c2260c08b613a31565b168852602088019485526040880192835260608801973389528160808201951685528160a0820193168352610c55614d59565b50610c5e614dc4565b610c66614b2d565b610c6e614a0b565b610c76614948565b9590610cba610c878585511661429b565b97610c928982613f53565b519d8e91610ca0838c61465e565b84614de6565b918b5194610cb4828d6148a5565b90615164565b818110610d83575050610cf6610cd4610d019c89516152e1565b9283858d51169186808951169151168c5261014460205260408c205492614e29565b9991849d919d613f67565b9a8651808d11610d6557508b15610d53576106da9a610d3b8b99868f9689610d479e610d3182996106c49c61517c565b519151169261459e565b6106b98851825461415d565b604051938493846139d9565b60405163f3e39b5d60e01b8152600490fd5b6044908d60405191630b63f1a760e01b835260048301526024820152fd5b604492506040519163c39b739f60e01b835260048301526024820152fd5b5034610584578060031936011261058457610dba614a0b565b80f35b5034610584576020366003190112610584576004356001600160a01b0381169081900361077157610dec614a9f565b61012f80546001600160a01b031916909117905580f35b503461058457602036600319011261058457610e1d614a9f565b60043561014c5580f35b503461058457806003193601126105845760206107fb610e5a610e61610e4e610a9961439e565b6101319391935461415d565b918261415d565b906152e1565b503461058457602036600319011261058457610e81614a9f565b60043561013d5580f35b503461058457602036600319011261058457610ea5614a9f565b6004356101395580f35b5034610584578060031936011261058457602060ff60ca54166040519015158152f35b5034610584578060031936011261058457602061015b54604051908152f35b5034610584578060031936011261058457610153546040516001600160a01b039091168152602090f35b50610f27366004613a85565b93909192610f33614d59565b5060405192610f4360a085613a31565b81845260208085019586523360408087019182526001600160a01b039384166060880190815298841660808801908152610133805492516340c10f1960e01b815230600482015260248101889052919a9594909392829060449082908b9089165af180156111f1576111b5575b50610fb9614d59565b50610fc2614dc4565b610fca614b2d565b610fd2614a0b565b610fe5610fdd614948565b819291614de6565b9091610ff482848c5193614743565b818110611197575050670de0b6b3a76400009161101661101c928b5192614714565b9061409b565b04938415610d53576110499961103e85845116878784511661013d5492614e29565b9a91889d919d61415d565b9a51808c106111795750519561013461106388825461415d565b905561107361013191825461415d565b90558484541692833b1561117557604051632770a7eb60e21b80825230600483015260248201989098529389908590604490829084905af1801561116a5791868c928b8d9695611144575b506110d596508180915116945116915116926150ab565b541690813b1561114057604051908152336004820152602481019290925282908290818381604481015b03925af1801561113557611120575b50506106da90604051938493846139d9565b61112b828092613a31565b610584578061110e565b6040513d84823e3d90fd5b8380fd5b93509395611156929550839150613a31565b611166578989928685938b6110be565b8780fd5b6040513d8b823e3d90fd5b8880fd5b6044908c604051916354cde31360e01b835260048301526024820152fd5b604492506040519163a5db715d60e01b835260048301526024820152fd5b6020813d82116111e9575b816111cd60209383613a31565b810103126111e5576111de90614305565b5038610fb0565b8680fd5b3d91506111c0565b6040513d89823e3d90fd5b5034610584578060031936011261058457602061013d54604051908152f35b5034610584578060031936011261058457602061018f54431015604051908152f35b503461058457806003193601126105845760ca5460405160109190911c6001600160a01b03168152602090f35b5034610584576020366003190112610584576004356001600160a01b0381169081900361077157604082819281526101366020522060ff6001825492015416825191825215156020820152f35b503461058457806003193601126105845760206112de6112d8610a9961439e565b9061413f565b61014a541015604051908152f35b5034610584578060031936011261058457610146546040516001600160a01b039091168152602090f35b50346105845780600319360112610584576020611334610a9961439e565b50604051908152f35b5034610584578060031936011261058457610158546040516001600160a01b039091168152602090f35b5034610584578060031936011261058457602061014a54604051908152f35b5034610584576020366003190112610584576004356001600160a01b03811690819003610771576113b5614a9f565b61015380546001600160a01b031916909117905580f35b50346105845780600319360112610584576113e5614b2d565b60ca54601081901c6001600160a01b031633036114515760ff81161561143f576101009061ff0019161760ca557f62e78cea01bee320cd4e420270b5ea74000d11b0c9f74754ebdbfc544b05a2586020604051338152a180f35b60405163866099c360e01b8152600490fd5b604051631d77d47760e21b8152600490fd5b503461058457806003193601126105845760206107fb6112d8610a9961439e565b5034610584578060031936011261058457602061015a54604051908152f35b503461058457806003193601126105845760206107fb6114c360016143d8565b610bc06114d08284614018565b91836140ce565b50346105845780600319360112610584576101c3546040516001600160a01b039091168152602090f35b5034610584576020366003190112610584576004359061014890815483101561058457602061153084846138e0565b90546040519160031b1c8152f35b503461058457602036600319011261058457611558614a9f565b6004356101495580f35b50346105845760203660031901126105845761157c614a9f565b6004356101405580f35b5034610584578060031936011261058457602061019054604051908152f35b5034610584576020366003190112610584576115bf614a9f565b6004356101415580f35b5034610584578060031936011261058457602061013454604051908152f35b5034610584578060031936011261058457602061014254604051908152f35b50611613366004613922565b916116219694959396614d59565b506102295461163e908290309033906001600160a01b0316614d80565b61164b8161014e54613f67565b61014e556040519361165e60e086613a31565b6001600160a01b0390811685526020808601889052604080870199909952606086019290925233608086015291821660a085015291811660c08401526101335495516340c10f1960e01b81523060048201526024810186905291958691839160449183918891165af18015611833576117f7575b5061173061177f946116e2614d59565b506116eb614dc4565b6116f3614b2d565b60405163d9b6c2e560e01b82820152611723906117136024820186615291565b60e481526108b361010482613a31565b8051810182019101615236565b84611749606083989699959a9497015161014e5461415d565b61014e5560018060a01b036080820151169061176989606083015161415d565b60c0909101516001600160a01b031691806150ab565b610133546001600160a01b031690813b156117f357604051632770a7eb60e21b815233600482015260248101919091529082908290818381604481015b03925af18015611135576117de575b5050906106da9160405194859485613965565b6117e9828092613a31565b61058457806117cb565b8280fd5b8481813d831161182c575b61180c8183613a31565b810103126117f35761177f9461182461173092614305565b5094506116d2565b503d611802565b6040513d85823e3d90fd5b503461058457602036600319011261058457611858614a9f565b60043561013b5580f35b5034610584578060031936011261058457602061015654604051908152f35b5034610584578060031936011261058457602061013954604051908152f35b5034610584576020366003190112610584576118ba614a9f565b6004356101545580f35b5034610584576020366003190112610584576004356001600160a01b03811690819003610771576118f3614a9f565b61015880546001600160a01b031916909117905580f35b503461058457602036600319011261058457611924614a9f565b60043561013e5580f35b5034610584578060031936011261058457602061015454604051908152f35b5034610584578060031936011261058457602061014954604051908152f35b5034610584578060031936011261058457611985614a9f565b600160ff1960ca54161760ca5580f35b50346105845780600319360112610584576020611334614948565b5034610584576020366003190112610584576119ca614a9f565b6004356101595580f35b503461058457806003193601126105845761012f546040516001600160a01b039091168152602090f35b611ae182611a0d366004613a85565b9093611a17614d59565b50610229546001600160a01b039190611a37908590309033908616614d80565b61014e611a45858254613f67565b815560405195611a5660a088613a31565b8652602086019485526040860191338352836060880198168852836080880195168552611a81614d59565b50611a8a614dc4565b611a92614b2d565b670de0b6b3a7640000611abe611016611ab5611aac61439e565b61014954614de6565b8b519291614714565b0490611ad685855116838789511661013c5492614e29565b9991849c919c613f67565b998851808c11611bf657508a15610d5357611b5b93876020935192511690610134611b0d848254613f67565b9055611b1d610131918254613f67565b9055610133546040516340c10f1960e01b81526001600160a01b03909216600483015260248201929092529384918816908290859082906044820190565b03925af18015611be957908994939291611b90575b8a856106da8b610d47818d8d8d6106c488828f8f6106b98851825461415d565b90919293506020823d8211611be1575b81611bad60209383613a31565b810103126105845750926106c48882899895610d479895611bd16106da9c99614305565b5094509497509550939697611b70565b3d9150611ba0565b50604051903d90823e3d90fd5b6044908c60405191630b63f1a760e01b835260048301526024820152fd5b50346105845761040036600319011261058457805460ff8160081c161590818092612066575b801561204f575b15611ff35760ff198116600117835581611fe2575b506103e4356001600160a01b03818116918290036107715761022980546001600160a01b03199081169093179055835460081c60ff1691611c9683614b4e565b61038435828116809103610771576101f69082825416179055610344358281168091036107715761036435838116810361077157600191611cd686614b4e565b611cdf86614b4e565b611ce886614b4e565b611cf186614b4e565b836097541617609755611d0385614b4e565b60ca5490620100008360b01b039060101b169061ff018360b01b031916171760ca55611d2e83614b4e565b60c435670de0b6b3a7640000811115611fca5761010435611d4e81615305565b61012435611d5b81615305565b61014435611d6881615305565b61016435611d7581615305565b61018435611d8281615305565b6101a43590611d9082615305565b6101c43592611d9e84615305565b6101e43594611dac86615305565b6102043596611dba88615305565b6102243598610244359a611dd6611dd18d8d613f67565b615305565b8d600435908116809103611fdc578d9061014f918254161790558d602435908116809103610771578d9061012f918254161790558d604435908116809103610771578d90610130918254161790558d606435908116809103610771578d90610133918254161790558d608435908116809103610771578d90610146918254161790558d60a435908116809103610771578d90610147918254161790556101495560e43561014a5561013b5561013c5561013d5561013e5561013f55610140556101415561014255610143556101395561013a55610264358061014c55610284358381168091036107715761015890838254161790556102a435610159556102c435918261015a556102e43584811680910361077157610152908282541617905561030435848116809103610771576101539182541617905561032435610154554361015755430161014d55430161015b5561014b61ffff1981541690556103a435611f4083614b4e565b8015611fca578061019055430161018f556103c435908116810361077157611f6a611f8c92614b4e565b6101c380546001600160a01b0319166001600160a01b03909216919091179055565b611f935780f35b61ff001981541681557f7f26b83ff96e1f2b6a682f133852f6798a09c465da95921460cefb3847402498602060405160018152a180f35b604051632a9ffab760e21b8152600490fd5b50508f80fd5b61ffff191661010117825538611c56565b60405162461bcd60e51b815260206004820152602e60248201527f496e697469616c697a61626c653a20636f6e747261637420697320616c72656160448201526d191e481a5b9a5d1a585b1a5e995960921b6064820152608490fd5b50303b158015611c415750600160ff821614611c41565b50600160ff821610611c3a565b5034610584578060031936011261058457610133546040516001600160a01b039091168152602090f35b5034610584578060031936011261058457602061014e54604051908152f35b5034610584578060031936011261058457602060ff60ca5460081c166040519015158152f35b50346105845780600319360112610584576120fb614b2d565b61014d805443106122c65761014c54430190557fd3c59bda47e141a8ec5a33d241b7f71b86e30d359f83a9227d912858b60404fc8180a1806101375461214081614182565b90835b818110612201575050816121ba575b604051916040830190835260209060408285015282518091528160608501930191855b8281106121a657867fae5116a8119d08673a0f1dfa7546b95da4bd54bb17feda7c61130ac7859152f687870388a180f35b835185529381019392810192600101612175565b906121d2670de0b6b3a764000091610139549061409b565b04906101316121e283825461415d565b9055610146546121fc9083906001600160a01b0316614bae565b612152565b61220a816142d6565b612214818361465e565b6101509061222283836138e0565b919054600392831b1c90888213612240575b50505050600101612143565b936122818282959961226a6122706122879660019a670de0b6b3a764000093849161013a5461409b565b0461409b565b0461227b858c613f53565b52613f67565b976138e0565b81929154911b9088821b91600019901b19161790556122bd6122a98286613f53565b5187848060a01b036101475416918461459e565b90388080612234565b60405163101b685960e01b8152600490fd5b5034610584578060031936011261058457602061015754604051908152f35b503461058457602036600319011261058457612311614a9f565b6004356101435580f35b5034610584576020366003190112610584576004356001600160a01b038116810361077157610dba90611f6a614a9f565b50346105845780600319360112610584577f00000000000000000000000000000000000000000000000000000000000000006001600160a01b031630036123b75760206040517f360894a13ba1a3210667c828492db98dca3e2076cc3735a920a3ca505d382bbc8152f35b60405162461bcd60e51b815260206004820152603860248201527f555550535570677261646561626c653a206d757374206e6f742062652063616c60448201527f6c6564207468726f7567682064656c656761746563616c6c00000000000000006064820152608490fd5b503461058457806003193601126105845761243b614a9f565b60ff1960ca541660ca5580f35b506040366003190112610584576001600160a01b0360043581811681036107715782916024359167ffffffffffffffff8311612537573660238401121561253757826004013561249781613a69565b926124a56040519485613a31565b818452366024838701011161253357610dba95602083612526946024600199018389013786010152807f000000000000000000000000000000000000000000000000000000000000000016906124fd82301415613aab565b7f360894a13ba1a3210667c828492db98dca3e2076cc3735a920a3ca505d382bbc541614613b0c565b61252e614a9f565b613b6d565b8580fd5b505050fd5b5034610584578060031936011261058457602061013b54604051908152f35b5034610584578060031936011261058457610147546040516001600160a01b039091168152602090f35b5034610584578060031936011261058457602061014c54604051908152f35b503461058457602036600319011261058457600435906101379081548310156105845760406125d38484613a15565b50805460019091015482519182526001600160a01b03166020820152f35b5034610584576040366003190112610584576004356001600160a01b03818116918290036107715760243591818316918284036107715761267d92612634614b2d565b61263d30614cea565b9060405193632ab7831f60e01b60208601526024850152336044850152606484015260848301526084825261267360a483613a31565b6101f6541661457c565b90602082805181010312610771576107fb6020809301518092614bae565b5034610584578060031936011261058457602061013e54604051908152f35b503461058457806003193601126105845760206107fb6126e36126db614948565b919091613f8a565b91614743565b503461058457806003193601126105845760ca5460ff8160081c16156127d75760018060a01b03808260101c163314159081612763575b506114515760ff81161561143f5761ff00191660ca557f5db9ee0a495bf2e6ff9c91a7834c1ba4fdd244a5e8aa4e537bd38aeae4b073aa6020604051338152a180f35b60975460405163d994d6d560e01b8152336004820152925060209183916024918391165afa90811561183357839161279e575b501538612720565b90506020813d82116127cf575b816127b860209383613a31565b810103126117f3576127c990614305565b38612796565b3d91506127ab565b604051637c7fd07960e01b8152600490fd5b5034610584576020366003190112610584576004356001600160a01b03811690819003610a2f57612818614a9f565b61014f80546001600160a01b031916909117905580f35b503461058457602036600319011261058457612849614a9f565b6004356101905580f35b5034610584576020366003190112610584576004359061013890815483101561058457602061153084846138e0565b5034610584576020366003190112610584576004356001600160a01b03808216820361077157610dba916128e18285937f000000000000000000000000000000000000000000000000000000000000000016906124fd82301415613aab565b6128e9614a9f565b6128f282613a69565b906129006040519283613a31565b828252601f1961290f84613a69565b01366020840137613b6d565b50612927366004613922565b906129359592949395614d59565b506040519461294560e087613a31565b6001600160a01b0384811680885260208089018890526040808a018b905260608a01949094523360808a015293821660a0890152931660c0870152516340c10f1960e01b81523060048201526024810187905291829060449082908a905af18015612bcd57612bd8575b50610133546040516340c10f1960e01b81523060048201526024810184905290602090829060449082908a906001600160a01b03165af18015612bcd57612b86575b5093612a6f9291612a7495612a04614d59565b50612a0d614dc4565b612a15614b2d565b612a38610694604051633dad0bd760e11b60208201526117136024820188615291565b608088015160a089015160c090990151939b949a919992988c949293928b926001600160a01b03918216928e9290811691166150ab565b61415d565b906001600160a01b0381163b1561114057604051632770a7eb60e21b80825230600483015260248201939093528481604481836001600160a01b0387165af18015612b7b57908591612b66575b50506001600160a01b0381163b1561114057604051828152336004820152602481018990529084908290604490829084906001600160a01b03165af18015612b5b57908491612b46575b5050610133546001600160a01b031690813b1561114057604051908152336004820152602481019290925282908290818381604481016117bc565b81612b5091613a31565b6117f3578238612b0b565b6040513d86823e3d90fd5b81612b7091613a31565b611140578338612ac1565b6040513d87823e3d90fd5b6020813d602011612bc5575b81612b9f60209383613a31565b810103126125335791612a749591612bba612a6f9594614305565b5091955091926129f1565b3d9150612b92565b6040513d88823e3d90fd5b6020813d602011612c09575b81612bf160209383613a31565b8101031261253357612c0290614305565b50386129af565b3d9150612be4565b5034610584578060031936011261058457612c2a614b2d565b61014b805460ff811680612cf0575b80612cd6575b612c47578280f35b61ff00191661010017905560405181907f8b77276c97a5709f0d6db52329848a254eb760ce8be80d281799f633bdb69e838280a1610133546001600160a01b0316803b15612cd25781600481858094638456cb5960e01b83525af1801561113557612cbd575b5050612cb76141b4565b38808280f35b81612cc791613a31565b610584578038612cad565b5050fd5b50612ce56112d8610a9961439e565b61014a541015612c3f565b5060ff8160081c1615612c39565b5034610584578060031936011261058457602061013f54604051908152f35b5060e0366003190112610584576004356001600160a01b0381168103610771576024356001600160a01b03811692908390036107715760843560a4356001600160a01b03811681036107715760c435916001600160a01b038316830361077157612d85614d59565b5061022954612da2908290309033906001600160a01b0316614d80565b612daf8161014e54613f67565b61014e5560405195612dc361010088613a31565b6001600160a01b038681168089526020808a0193909352604480356040808c0182905260643560608d015260808c01969096523360a08c015295831660c08b01529590911660e089015291516340c10f1960e01b815230600482015260248101939093529195928691829086905af1801561113557612f97575b612f399350612e4a614d59565b50612e53614dc4565b612e5b614b2d565b604080516370f090ed60e11b60208083019190915283516001600160a01b039081166024840152908401518116604483015291830151606482015260608301516084820152608083015160a482015260a0830151821660c482015260c0830151821660e482015260e0830151909116610104808301919091528152612eea90610694906108b361012482613a31565b84612f03608083989699959a9497015161014e5461415d565b61014e5560018060a01b0360a08201511690612f2389608083015161415d565b60e0909101516001600160a01b031691806150ab565b6001600160a01b0381163b15610a2f57604051632770a7eb60e21b8152336004820152604480356024830152909183918391829084906001600160a01b03165af18015611135576117de575050906106da9160405194859485613965565b6020843d602011612fca575b81612fb060209383613a31565b81010312610a2f57612fc4612f3994614305565b50612e3d565b3d9150612fa3565b50612fde3660046139a7565b92612fed959195949294614d59565b50604051612ffc60c082613a31565b6001600160a01b0393841680825260208083018481526040808501998a5233606086019081529a88166080860190815298881660a0860190815290516340c10f1960e01b815230600482015260248101879052929a9198919793949391929091908b816044818b8a5af180156131fb57613224575b5061307a614d59565b50613083614dc4565b61308b614b2d565b61309361439e565b6130c56130a28387511661429b565b916130bc6130b08483613f53565b5191611aac838661465e565b50508b516152e1565b948515610d53576130ff9c866130f492610145868e5116938d88808b511694511690525260408c205492614e29565b9b91879e919e61415d565b9b51808d106132065750829161314e9161311a60018f61517c565b519661312882610137613a15565b5061313489825461415d565b905561314461013191825461415d565b90556101356138e0565b90549060031b1c16803b1561116657604051632770a7eb60e21b80825230600483015260248201969096529088908290604490829084905af180156131fb57918a9493918c936131dd575b5080806131b29798999a9b5116945116915116926150ab565b813b1561114057604051908152336004820152602481019290925282908290818381604481016110ff565b818a6131f06131b2999a9b9c8394613a31565b9a9998975050613199565b6040513d8a823e3d90fd5b6044908d604051916354cde31360e01b835260048301526024820152fd5b8b81813d8311613251575b6132398183613a31565b810103126111665761324a90614305565b5038613071565b503d61322f565b5034610584578060031936011261058457602061014354604051908152f35b5034610584576020366003190112610584576004356001600160a01b0381168103610a2f576132a4614a9f565b60ca805462010000600160b01b03191660109290921b62010000600160b01b031691909117905580f35b5034610584576020366003190112610584576132e8614a9f565b60043561014a5580f35b5034610584578060031936011261058457602061014054604051908152f35b5034610584576020366003190112610584576004356001600160a01b03811690819003610a2f57613340614a9f565b61014780546001600160a01b031916909117905580f35b5034610584578060031936011261058457610229546040516001600160a01b039091168152602090f35b5034610584576020366003190112610584576004356001600160a01b03811690819003610a2f57816040916020935261014483522054604051908152f35b5034610584578060031936011261058457602060ff61014b5460081c166040519015158152f35b503461058457602036600319011261058457613400614a9f565b6004356101425580f35b503461058457602036600319011261058457600435801515809103610a2f57613431614a9f565b61014b9060ff8019835416911617905580f35b503461058457806003193601126105845760206107fb613465610a9961439e565b90614714565b5034610584578060031936011261058457602061014d54604051908152f35b5080613497366004613922565b6134a696929493959196614d59565b50610229546134c3908690309033906001600160a01b0316614d80565b6134d08561014e54613f67565b61014e55604051946134e360e087613a31565b6001600160a01b0383811680885260208089018890526040808a019a909a526060890193909352336080890190815299821660a0890152921660c087015295516340c10f1960e01b8152306004820152602481018590529086908290604490829087905af180156118335761363b575b506135946135ca95613563614d59565b5061356c614dc4565b613574614b2d565b60405163f5571e0160e01b82820152611723906117136024820189615291565b96879196939892996135ad606083015161014e5461415d565b61014e5560018060a01b03905116906117698a606083015161415d565b6001600160a01b0382163b156117f357604051632770a7eb60e21b8152336004820152602481019190915291908290604490829084906001600160a01b03165af18015612bcd57956106da94959661362b575b505060405194859485613965565b61363491613a31565b388061361d565b8581813d8311613670575b6136508183613a31565b810103126117f3576135ca9561366861359492614305565b509550613553565b503d613646565b503461058457806003193601126105845761014f546040516001600160a01b039091168152602090f35b5034610584576020366003190112610584576004356001600160a01b03811690819003610a2f576136d0614a9f565b61013080546001600160a01b031916909117905580f35b503461058457602036600319011261058457613701614a9f565b60043561013f5580f35b5034610584578060031936011261058457602061015954604051908152f35b5034610584576020366003190112610584576004356001600160a01b03811690819003610a2f57613759614a9f565b61014680546001600160a01b031916909117905580f35b5034610584578060031936011261058457602061018f54604051908152f35b50346105845780600319360112610584576097546040516001600160a01b039091168152602090f35b5034610584576020366003190112610584576137d2614a9f565b60043561015a5580f35b50346105845780600319360112610584576137f5614b2d565b61015b805443106138625761015a5443019055610dba670de0b6b3a764000061382561013154610159549061409b565b047f0e37fda283839477a1b77e29acf8336c0e13a5daa967913df0fe5ad258c0822f6020604051838152a1610158546001600160a01b0316614bae565b60405163acce20e560e01b8152600490fd5b503461058457602036600319011261058457600435906101359081548310156105845760206138a384846138e0565b905460405160039290921b1c6001600160a01b03168152f35b5034610584576020366003190112610584576138d6614a9f565b60043561013a5580f35b80548210156138f85760005260206000200190600090565b634e487b7160e01b600052603260045260246000fd5b35906001600160a01b038216820361077157565b91908260c0910312610771576139378261390e565b9160208101359160408201359160608101359161396260a061395b6080850161390e565b930161390e565b90565b6139a59360609296959360e08301978352602083015260408201520190606080918051845260208101516020850152604081015160408501520151910152565b565b908160a0910312610771576139bb8161390e565b91602082013591604081013591613962608061395b6060850161390e565b6040906139a5939594929560c0820196825260208201520190606080918051845260208101516020850152604081015160408501520151910152565b80548210156138f85760005260206000209060011b0190600090565b90601f8019910116810190811067ffffffffffffffff821117613a5357604052565b634e487b7160e01b600052604160045260246000fd5b67ffffffffffffffff8111613a5357601f01601f191660200190565b919082608091031261077157813591602081013591613962606061395b6040850161390e565b15613ab257565b60405162461bcd60e51b815260206004820152602c60248201527f46756e6374696f6e206d7573742062652063616c6c6564207468726f7567682060448201526b19195b1959d85d1958d85b1b60a21b6064820152608490fd5b15613b1357565b60405162461bcd60e51b815260206004820152602c60248201527f46756e6374696f6e206d7573742062652063616c6c6564207468726f7567682060448201526b6163746976652070726f787960a01b6064820152608490fd5b9060ff7f4910fdfa16fed3260ed0e7147f7cc6da11a60208b5b9406d12a635614ffd91435416600014613ba557506139a59150613d59565b6040516352d1902d60e01b8152602093919291906001600160a01b038316908581600481855afa60009181613d2a575b50613c365760405162461bcd60e51b815260048101879052602e60248201527f45524331393637557067726164653a206e657720696d706c656d656e7461746960448201526d6f6e206973206e6f74205555505360901b6064820152608490fd5b9394937fc9f76b5ec45e5cdef99837d7b6d2467235c1df8933c8ca56df5c35afa2c7d44401613cd357613c6883613d59565b7fbc7cd75a20ee27fd9adebab32041f755214dbc6bffa90cc0225b39da2e5c2d3b600080a283511590811591613ccb575b50613ca357505050565b600080613cc894613cb2613dfb565b9481519101845af4613cc2613e4f565b91613e7f565b50565b905038613c99565b60405162461bcd60e51b815260048101859052602960248201527f45524331393637557067726164653a20756e737570706f727465642070726f786044820152681a58589b195555525160ba1b6064820152608490fd5b90918782813d8311613d52575b613d418183613a31565b810103126105845750519038613bd5565b503d613d37565b803b15613da0577f360894a13ba1a3210667c828492db98dca3e2076cc3735a920a3ca505d382bbc80546001600160a01b0319166001600160a01b03909216919091179055565b60405162461bcd60e51b815260206004820152602d60248201527f455243313936373a206e657720696d706c656d656e746174696f6e206973206e60448201526c1bdd08184818dbdb9d1c9858dd609a1b6064820152608490fd5b613e056027613a69565b90613e136040519283613a31565b60278252660819985a5b195960ca1b6040837f416464726573733a206c6f772d6c6576656c2064656c65676174652063616c6c60208201520152565b3d15613e7a573d90613e6082613a69565b91613e6e6040519384613a31565b82523d6000602084013e565b606090565b91929015613ee15750815115613e93575090565b3b15613e9c5790565b60405162461bcd60e51b815260206004820152601d60248201527f416464726573733a2063616c6c20746f206e6f6e2d636f6e74726163740000006044820152606490fd5b825190915015613ef45750805190602001fd5b6040519062461bcd60e51b82528160208060048301528251908160248401526000935b828510613f3a575050604492506000838284010152601f80199101168101030190fd5b8481018201518686016044015293810193859350613f17565b80518210156138f85760209160051b010190565b91908201809211613f7457565b634e487b7160e01b600052601160045260246000fd5b906000916000906101378054906000925b828410613fc15750505050613fbd670de0b6b3a764000091610139549061409b565b0490565b909192939561400e613ffd614008600193614002613fdf8a88613f53565b51613fea818c614034565b9590613ff68d8c613a15565b5054613f67565b6152e1565b90613f67565b98613f67565b9401929190613f9b565b91909160008382019384129112908015821691151617613f7457565b91906000906140628160009561405861404f826101506138e0565b939054926140e7565b9160031b1c614018565b60008113614071575b50509190565b61409391945061226a92508094670de0b6b3a764000093849161013a5461409b565b04388061406b565b81810292918115918404141715613f7457565b81156140b8570490565b634e487b7160e01b600052601260045260246000fd5b81810392916000138015828513169184121617613f7457565b6140f381610137613a15565b505490670de0b6b3a764000091828102928184041490151715613f745761396292614133614126614139936101516138e0565b90549060031b1c846140ae565b926140ae565b906140ce565b801561415557613ffd613962926101315461415d565b505060001990565b91908203918211613f7457565b67ffffffffffffffff8111613a535760051b60200190565b9061418c8261416a565b6141996040519182613a31565b82815280926141aa601f199161416a565b0190602036910137565b610131548015613cc857610137908154916000906141d184614182565b9082905b85821061425757505060005b8481106141ef575050505050565b61420c84614207856142018587613f53565b5161409b565b6140ae565b9061013891825468010000000000000000811015613a5357614238816001958661424f940181556138e0565b819391549060031b91821b91600019901b19161790565b9055016141e1565b9092614293600191614268866142d6565b6142728787613f53565b526140026142808786613a15565b505461428c8888613f53565b51906152e1565b9301906141d5565b6001600160a01b0316600090815261013660205260409020600181015460ff16156142c4575490565b60405163e6c4247b60e01b8152600490fd5b6142e290610137613a15565b50600101546001600160a01b03166142f98161432c565b91909115610759575090565b5190811515820361077157565b919082604091031261077157613962602083519301614305565b604080516359e02dd760e01b81529291839060049082906001600160a01b03165afa91821561439257600090819361436357509190565b905061438791925060403d811161438b575b61437f8183613a31565b810190614312565b9091565b503d614375565b6040513d6000823e3d90fd5b61013754906143ac82614182565b9160005b8181106143bb575050565b806143c76001926142d6565b6143d18287613f53565b52016143b0565b906143f9670de0b6b3a76400009283610157546101545492430103026140ae565b828110156144165782039180836101555402049261015654020590565b50600091508190565b9091614429614481565b92908082101561447757839161443e9161415d565b931115614472578181101561446a576144569161415d565b60011c80821015614465575090565b905090565b505050600090565b505090565b5050505050600090565b61015254604080516359e02dd760e01b80825293929091906001600160a01b039081168284600481845afa801561457157600094859161454e575b5015614537575061015354169080519485528085600481855afa801561452c576000958691614509575b50156144f25750509190565b6024925051906305e8989360e11b82526004820152fd5b9050816145239296503d871161438b5761437f8183613a31565b949094386144e6565b50513d6000823e3d90fd5b6024908351906305e8989360e11b82526004820152fd5b9050614568919450833d851161438b5761437f8183613a31565b939093386144bc565b83513d6000823e3d90fd5b906139629160008061458c613dfb565b93602081519101845af4613cc2613e4f565b61460c936145d36000926020956145b782610137613a15565b506145c3878254613f67565b9055613144610131918254613f67565b90546040516340c10f1960e01b81526001600160a01b039093166004840152602483019490945290948593928492909183906044820190565b039360039190911b1c6001600160a01b03165af180156143925761462d5750565b6020813d8211614656575b8161464560209383613a31565b8101031261077157613cc890614305565b3d9150614638565b6142386146af9161466f84826140e7565b6146a561467e836101506138e0565b6146918294925492838360031b1c614018565b919060031b91821b91600019901b19161790565b90556101516138e0565b9055565b60e08101929160c09081906001600160a01b03806146d08361390e565b1685526146df6020830161390e565b16602085015260408101356040850152606081013560608501526080810135608085015260a081013560a08501520135910152565b90610134549081156147345761396292612a6f613ffd926101315461415d565b505050670de0b6b3a764000090565b828261474e9261476b565b90600082131561446a576139629261476591614714565b906140ae565b909161477a906101315461415d565b90670de0b6b3a764000091828102928184041490151715613f7457613962926141399161409b565b926147b0929394919461476b565b81810291600091600160ff1b918382128382141661485457818505149015171561484057670de0b6b3a763ffff19840193841161484057670de0b6b3a76400009384810294818604149015171561484057831561482c57821460001984141661481857500590565b634e487b7160e01b81526011600452602490fd5b634e487b7160e01b82526012600452602482fd5b634e487b7160e01b82526011600452602482fd5b634e487b7160e01b84526011600452602484fd5b61014d548043101561487f5761396290439061415d565b50600090565b90604051614894604082613a31565b602060018294805484520154910152565b6148b1816101486138e0565b90549060031b1c9161018e916148c78184613a15565b50549261018f544310156148ed575b50508082101561447257614207906139629361409b565b82935061490161490c939261490792613a15565b50614885565b614914565b9038806148d6565b602081519101805192670de0b6b3a764000093840390848211613f745761494161400292613fbd9561409b565b925161409b565b6000806101379182549261495b84614182565b9382915b81831061498857505050811561497c5790614979916140ae565b91565b50506101495460011b91565b90919392614995856142d6565b90816149a18789613f53565b526149ba6149af8388614034565b50613ff68886613a15565b670de0b6b3a764000090818102918183041490151715613f74576149fc614a0292614002856149ee6001976149f7966152e1565b9485918c6148a5565b61409b565b95613f67565b9401919061495f565b61018f8054431015614a1a5750565b6101375460005b818110614a345750506101905443019055565b80807f19156e9379c7bbbce8f646ce5ee30ba860b8f954717405f3d5859a6c1a21ae6060019361018e614a6a6149018383613a15565b90614a88614a80614a7a856142d6565b84614914565b938492613a15565b50555160409182519182526020820152a201614a21565b60975460405163d994d6d560e01b815233600482015290602090829060249082906001600160a01b03165afa90811561439257600091614af4575b5015614ae257565b604051631dd1b1b560e21b8152600490fd5b906020823d8211614b25575b81614b0d60209383613a31565b810103126105845750614b1f90614305565b38614ada565b3d9150614b00565b60ff60ca5460081c16614b3c57565b60405163783bb6c960e11b8152600490fd5b15614b5557565b60405162461bcd60e51b815260206004820152602b60248201527f496e697469616c697a61626c653a20636f6e7472616374206973206e6f74206960448201526a6e697469616c697a696e6760a81b6064820152608490fd5b9080614bb8575050565b6102295460405163a9059cbb60e01b60208201526001600160a01b0393841660248201526044808201939093529182526139a59216614bf8606483613a31565b602091614c5b916001600160a01b0316600080614c1486613a69565b93614c226040519586613a31565b8685527f5361666545524332303a206c6f772d6c6576656c2063616c6c206661696c656487860152868151910182855af1613cc2613e4f565b8051828115918215614ccb575b5050905015614c745750565b6084906040519062461bcd60e51b82526004820152602a60248201527f5361666545524332303a204552433230206f7065726174696f6e20646964206e6044820152691bdd081cdd58d8d9595960b21b6064820152fd5b83809293500103126107715781614ce29101614305565b808238614c68565b610229546040516370a0823160e01b81526001600160a01b0392831660048201529160209183916024918391165afa90811561439257600091614d2b575090565b906020823d8211614d51575b81614d4460209383613a31565b8101031261058457505190565b3d9150614d37565b60405190614d68608083613a31565b60006060838281528260208201528260408201520152565b6040516323b872dd60e01b60208201526001600160a01b0392831660248201529290911660448301526064808301939093529181526139a591614bf8608483613a31565b60ff61014b5460081c16614dd457565b604051631ca61d7760e01b8152600490fd5b9190614df190613f8a565b919092614dfe838561413f565b9080821115614e0b575050565b6044925060405191637912120160e01b835260048301526024820152fd5b929093916000916000918296614e3d614d59565b966001600160a01b03918590831680615033575b508261012f54168360405193636eb1769f60e11b8552168060048501523060248501526020948585604481865afa948515612b5b578495615004575b5084614eee575b505050505086015115614eaa575b505050929190565b90919250614ec2670de0b6b3a764000092839261409b565b04808552908215614ee657614ede920490816040860152613f67565b388080614ea2565b509050614ede565b614efc90610130541661432c565b92909215614e9457909192939b50848b614f3685670de0b6b3a7640000614f30614f268d8d61409b565b610143549061409b565b046140ae565b81830181815295908b15614ffa5750614f6191614f556060928d6140ae565b91829101528551613f67565b809d5b10928315614f90575b505050614f7d575b808080614e94565b8192995052806060880152963880614f75565b909192506024604051809481936370a0823160e01b835260048301525afa90811561183357908b918491614fc9575b5010388481614f6d565b809250858092503d8311614ff3575b614fe28183613a31565b810103126117f3578a905138614fbf565b503d614fd8565b915050809d614f64565b9094508581813d831161502c575b61501c8183613a31565b8101031261114057519338614e8d565b503d615012565b9095506020836101c35416916024604051809481936364a731e960e01b835260048301525afa8015612bcd578690615078575b61507191508461409b565b9438614e51565b506020813d82116150a3575b8161509160209383613a31565b81010312612533576150719051615066565b3d9150615084565b926139a5949192938251151560001461511b575060406151169261510e670de0b6b3a76400006150e061013b5484519061409b565b046101316150ef828254613f67565b905561510860018060a01b03610146541691845161415d565b90614bae565b015190614bae565b614bae565b9060606151169361513d60018060a01b03610146541660208301519086615141565b0151915b91908161514d57505050565b61012f546139a593906001600160a01b0316614d80565b90615171949392916147a2565b6000811261487f5790565b80615185614481565b91909361519260006143d8565b940193829161522a575b019384600080821261522457505b8403918185116151ec5750508181116151ce57505061015555610156554361015755565b60449250604051916306da41e560e11b835260048301526024820152fd5b908085921161521257604491604051916306da41e560e11b835260048301526024820152fd5b604051630fb4fd3560e11b8152600490fd5b036151aa565b9050816000039061519c565b80910360e08112610771578151926020830151926080604082015193605f1901126107715760c06040519161526c608084613a31565b606081015183526080810151602084015260a081015160408401520151606082015290565b60c0908160018060a01b03918281511685526020810151602086015260408101516040860152606081015160608601528260808201511660808601528260a08201511660a0860152015116910152565b90670de0b6b3a764000091828102928184041490151715613f7457613962916140ae565b670de0b6b3a76400001115611fca5756fea2646970667358221220488f444c76a17275962fa4224c1906de0a7ebfcb37aa26be3a49b20b4e0b8ee064736f6c63430008140033",
  "linkReferences": {},
  "deployedLinkReferences": {},
  "devdoc": {
    "events": {
      "AdminChanged(address,address)": {
        "details": "Emitted when the admin account has changed."
      },
      "BeaconUpgraded(address)": {
        "details": "Emitted when the beacon is changed."
      },
      "Initialized(uint8)": {
        "details": "Triggered when the contract has been initialized or reinitialized."
      },
      "Upgraded(address)": {
        "details": "Emitted when the implementation is upgraded."
      }
    },
    "kind": "dev",
    "methods": {
      "addPeggedToken((address,address,uint256,uint256,uint256,uint256,uint256))": {
        "details": "Note that the ema value, should consider `nextEmaCalculation`  This function is implemented in MocCoreExpansion but with this contract contexttpTokenAddress Pegged Token contract address to add      priceProviderAddress Pegged Token price provider contract address      tpCtarg Pegged Token target coverage [PREC]      tpMintFee additional fee pct applied on mint [PREC]      tpRedeemFee additional fee pct applied on redeem [PREC]      tpEma initial Pegged Token exponential moving average [PREC]      tpEmaSf Pegged Token smoothing factor [PREC]  Requirements: - the caller must have governance authorization. - tpTokenAddress must be a MocRC20, with mint, burn roles already settled  for this contract",
        "params": {
          "peggedTokenParams_": "params of Pegged Token to add"
        }
      },
      "calcCtargemaCA()": {
        "details": "qAC = nTP / pACtp      ctargemaCA = (ctargemaTP * qAC) / (qAC)",
        "returns": {
          "ctargemaCA": "[PREC]"
        }
      },
      "changeGovernor(address)": {
        "params": {
          "newGovernor_": "New governor address"
        }
      },
      "constructor": {
        "custom:oz-upgrades-unsafe-allow": "constructor"
      },
      "editPeggedToken((address,address,uint256,uint256,uint256,uint256,uint256))": {
        "details": "Note that the ema value, should consider `nextEmaCalculation`  This function is implemented in MocCoreExpansion but with this contract contexttpTokenAddress Pegged Token contract address to identify the token to edit      priceProviderAddress Pegged Token price provider contract address      tpCtarg Pegged Token target coverage [PREC]      tpMintFee additional fee pct applied on mint [PREC]      tpRedeemFee additional fee pct applied on redeem [PREC]      tpEma initial Pegged Token exponential moving average [PREC]      tpEmaSf Pegged Token smoothing factor [PREC]  Requirements: - the caller must have governance authorization. - the tpTokenAddress must exists",
        "params": {
          "peggedTokenParams_": "params of Pegged Token to add"
        }
      },
      "getCglb()": {
        "returns": {
          "cglob": "[PREC]"
        }
      },
      "getLckAC()": {
        "returns": {
          "lckAC": "[PREC]"
        }
      },
      "getLeverageTC()": {
        "returns": {
          "leverageTC": "[PREC]"
        }
      },
      "getPACtp(address)": {
        "params": {
          "tp_": "Pegged Token address"
        },
        "returns": {
          "_0": "price [PREC]"
        }
      },
      "getPTCac()": {
        "returns": {
          "pTCac": "[PREC]"
        }
      },
      "getTCAvailableToRedeem()": {
        "details": "because it is a view function we are not calculating the new ema,  since we are using the last ema calculation, this may differ a little from the real amount  of TC available to redeem. Consider it an approximation.",
        "returns": {
          "tcAvailableToRedeem": "[N]"
        }
      },
      "getTPAvailableToMint(address)": {
        "details": "because it is a view function we are not calculating the new ema,  since we are using the last ema calculation, this may differ a little from the real amount  of TP available to mint. Consider it an approximation.",
        "params": {
          "tp_": "Pegged Token address"
        },
        "returns": {
          "tpAvailableToMint": "[N]"
        }
      },
      "getTotalACavailable()": {
        "returns": {
          "totalACavailable": "[N]"
        }
      },
      "initialize((((address,address,address,address,address,address,uint256,uint256,uint256,uint256,uint256,uint256,uint256,uint256,uint256,uint256,uint256,uint256,uint256,uint256,address,uint256,uint256,address,address,uint256),address,address,address,uint256,address),address))": {
        "details": "governorAddress The address that will define when a change contract is authorized      pauserAddress The address that is authorized to pause this contract      acTokenAddress Collateral Asset Token contract address      tcTokenAddress Collateral Token contract address      mocFeeFlowAddress Moc Fee Flow contract address      mocAppreciationBeneficiaryAddress Moc appreciation beneficiary address      protThrld protected state threshold [PREC]      liqThrld liquidation coverage threshold [PREC]      feeRetainer pct retain on fees to be re-injected as Collateral, while paying fees with AC [PREC]      tcMintFee additional fee pct applied on mint Collateral Tokens operations [PREC]      tcRedeemFee additional fee pct applied on redeem Collateral Tokens operations [PREC]      successFee pct of the gain because Pegged Tokens devaluation that is transferred        in Collateral Asset to Moc Fee Flow during the settlement [PREC]      appreciationFactor pct of the gain because Pegged Tokens devaluation that is returned        in Pegged Tokens to appreciation beneficiary during the settlement [PREC]      bes number of blocks between settlements      tcInterestCollectorAddress TC interest collector address      tcInterestRate pct interest charged to TC holders on the total collateral in the protocol [PREC]      tcInterestPaymentBlockSpan amount of blocks to wait for next TC interest payment      maxAbsoluteOpProviderAddress max absolute operation provider address      maxOpDiffProviderAddress max operation difference provider address      decayBlockSpan number of blocks that have to elapse for the linear decay factor to be 0      emaCalculationBlockSpan amount of blocks to wait between Pegged ema calculation      mocVendors address for MocVendors contract      mocQueueAddress address for MocQueue contract",
        "params": {
          "initializeParams_": "contract initializer params"
        }
      },
      "isLiquidationReached()": {
        "returns": {
          "_0": "true if liquidation state is reached, false otherwise"
        }
      },
      "liqRedeemTP(address,address)": {
        "params": {
          "recipient_": "address who receives the AC",
          "tp_": "Pegged Token address"
        },
        "returns": {
          "qACRedeemed": "amount of AC sent to `recipient_`"
        }
      },
      "makeStoppable()": {
        "details": "Should be called through governance"
      },
      "makeUnstoppable()": {
        "details": "Should be called through governance"
      },
      "maxQACToMintTP()": {
        "returns": {
          "maxQAC": "minimum regarding maxAbsoluteOperation and maxOperationalDifference"
        }
      },
      "maxQACToRedeemTP()": {
        "returns": {
          "maxQAC": "minimum regarding maxAbsoluteOperation and maxOperationalDifference"
        }
      },
      "mintTC(uint256,uint256,address,address)": {
        "params": {
          "qACmax_": "maximum amount of Collateral Asset that can be spent",
          "qTC_": "amount of Collateral Token to mint",
          "recipient_": "address who receives the Collateral Token",
          "vendor_": "address who receives a markup, `0x0` if not using a vendor"
        }
      },
      "mintTCandTP(address,uint256,uint256,address,address)": {
        "params": {
          "qACmax_": "maximum amount of Collateral Asset that can be spent",
          "qTP_": "amount of Pegged Token to mint",
          "recipient_": "address who receives the Collateral Token and Pegged Token",
          "tp_": "Pegged Token address",
          "vendor_": "address who receives a markup, `0x0` if not using a vendor"
        }
      },
      "mintTP(address,uint256,uint256,address,address)": {
        "params": {
          "qACmax_": "maximum amount of Collateral Asset that can be spent",
          "qTP_": "amount of Pegged Token to mint",
          "recipient_": "address who receives the Pegged Token",
          "tp_": "Pegged Token address to mint",
          "vendor_": "address who receives a markup, `0x0` if not using a vendor"
        }
      },
      "pause()": {
        "details": "Should only be called by the pauser and when it is stoppable"
      },
      "proxiableUUID()": {
        "details": "Implementation of the ERC1822 {proxiableUUID} function. This returns the storage slot used by the implementation. It is used to validate the implementation's compatibility when performing an upgrade. IMPORTANT: A proxy pointing at a proxiable contract should not be considered proxiable itself, because this risks bricking a proxy that upgrades to it, by delegating to itself until out of gas. Thus it is critical that this function revert if invoked through a proxy. This is guaranteed by the `notDelegated` modifier."
      },
      "redeemTC(uint256,uint256,address,address)": {
        "params": {
          "qACmin_": "minimum amount of Collateral Asset that `recipient_` expects to receive",
          "qTC_": "amount of Collateral Token to redeem",
          "recipient_": "address who receives the Collateral Asset",
          "vendor_": "address who receives a markup, `0x0` if not using a vendor"
        }
      },
      "redeemTCandTP(address,uint256,uint256,uint256,address,address)": {
        "params": {
          "qACmin_": "Minimum amount of Collateral Asset that `recipient_` expects to receive",
          "qTC_": "Maximum amount of Collateral Token to redeem",
          "qTP_": "Maximum amount of Pegged Token to redeem",
          "recipient_": "Address who receives the Collateral Asset",
          "tp_": "Pegged Token address",
          "vendor_": "address who receives a markup, `0x0` if not using a vendor"
        }
      },
      "redeemTP(address,uint256,uint256,address,address)": {
        "params": {
          "qACmin_": "minimum amount of Collateral Asset that `recipient_` expects to receive",
          "qTP_": "amount of Pegged Token to redeem",
          "recipient_": "address who receives the Collateral Asset",
          "tp_": "Pegged Token address to redeem",
          "vendor_": "address who receives a markup, `0x0` if not using a vendor"
        }
      },
      "refreshACBalance()": {
        "details": "Intended to be use as notification after an RC20 AC transfer to this contract"
      },
      "setAppreciationFactor(uint256)": {
        "details": "sets appreciation Factor value.",
        "params": {
          "appreciationFactor_": "pct of the gain because Pegged Tokens devaluation that is returned in Pegged Tokens to appreciation beneficiary during the settlement [PREC]"
        }
      },
      "setBes(uint256)": {
        "details": "bns is not automatically updated, you have to wait until next settlement to be made : bns = block.number + bes*",
        "params": {
          "bes_": "number of blocks between settlements"
        }
      },
      "setDecayBlockSpan(uint256)": {
        "details": "sets flux capacitor decay block span",
        "params": {
          "decayBlockSpan_": "flux capacitor decay block span"
        }
      },
      "setEmaCalculationBlockSpan(uint256)": {
        "details": "nextEmaCalculation is not automatically updated, you have to wait until next  EMA calculation to be made : nextEmaCalculation = block.number + emaCalculationBlockSpan*",
        "params": {
          "blockSpan_": "Defines how many blocks should pass between EMA calculations"
        }
      },
      "setFeeRetainer(uint256)": {
        "details": "sets the fee pct to be retainer on AC fees payments as AC re-injection.",
        "params": {
          "feeRetainer_": "pct retain on fees to be re-injected as Collateral, while paying fees with AC [PREC] 0% = 0; 1% = 10 ** 16; 100% = 10 ** 18"
        }
      },
      "setFeeTokenAddress(address)": {
        "details": "sets Fee Token contract address",
        "params": {
          "mocFeeTokenAddress_": "Fee Token new contract address"
        }
      },
      "setFeeTokenPct(uint256)": {
        "details": "sets the fee applied on the top of the operation`s fee when using Fee Token as fee payment method.",
        "params": {
          "feeTokenPct_": "pct applied on the top of the operation`s fee when using Fee Token  as fee payment method [PREC]  e.g. if tcMintFee = 1%, FeeTokenPct = 50% => qFeeToken = 0.5%  0% = 0; 1% = 10 ** 16; 100% = 10 ** 18"
        }
      },
      "setFeeTokenPriceProviderAddress(address)": {
        "details": "sets Fee Token price provider contract address",
        "params": {
          "mocFeeTokenPriceProviderAddress_": "Fee Token price provider new contract address"
        }
      },
      "setLiqEnabled(bool)": {
        "details": "enables and disables the liquidation mechanism.",
        "params": {
          "liqEnabled_": "is liquidation enabled"
        }
      },
      "setLiqThrld(uint256)": {
        "details": "sets the value of the liq threshold configuration param",
        "params": {
          "liqThrld_": "liquidation threshold"
        }
      },
      "setMaxAbsoluteOpProviderAddress(address)": {
        "details": "sets max absolute operation provider address",
        "params": {
          "maxAbsoluteOpProviderAddress_": "max absolute operation provider address"
        }
      },
      "setMaxOpDiffProviderAddress(address)": {
        "details": "sets max operation difference provider address",
        "params": {
          "maxOpDiffProviderAddress_": "max operation difference provider address"
        }
      },
      "setMintTCandTPFee(uint256)": {
        "details": "sets the fee charged when mint Collateral Token and Pegged Token in one operation.",
        "params": {
          "mintTCandTPFee_": "additional fee pct applied on mint Collateral Token and Pegged Token [PREC] 0% = 0; 1% = 10 ** 16; 100% = 10 ** 18"
        }
      },
      "setMocAppreciationBeneficiaryAddress(address)": {
        "details": "sets Moc Appreciation Beneficiary Address",
        "params": {
          "mocAppreciationBeneficiaryAddress_": "moc Appreciation Beneficiary new address"
        }
      },
      "setMocCoreExpansion(address)": {
        "details": "sets Moc Core Expansion contract address",
        "params": {
          "mocCoreExpansion_": "moc core expansion new contract address"
        }
      },
      "setMocFeeFlowAddress(address)": {
        "details": "sets Moc Fee Flow contract address",
        "params": {
          "mocFeeFlowAddress_": "moc Fee Flow new contract address"
        }
      },
      "setMocQueue(address)": {
        "details": "sets Moc Queue contract address",
        "params": {
          "mocQueueAddress_": "moc queue new contract address"
        }
      },
      "setMocVendors(address)": {
        "details": "sets Moc Vendors contract address",
        "params": {
          "mocVendors_": "moc Vendors new contract address"
        }
      },
      "setPauser(address)": {
        "details": "Should be called through governance",
        "params": {
          "newPauser_": "Address of the new pauser"
        }
      },
      "setProtThrld(uint256)": {
        "details": "sets the value of the protected threshold configuration param",
        "params": {
          "protThrld_": "coverage protected state threshold [PREC]"
        }
      },
      "setRedeemTCandTPFee(uint256)": {
        "details": "sets the fee charged when redeem Collateral Token and Pegged Token in one operation.",
        "params": {
          "redeemTCandTPFee_": "additional fee pct applied on redeem Collateral Token and Pegged Token [PREC] 0% = 0; 1% = 10 ** 16; 100% = 10 ** 18"
        }
      },
      "setSuccessFee(uint256)": {
        "details": "sets success Fee value.",
        "params": {
          "successFee_": "pct of the gain because Pegged Tokens devaluation that is transferred in Collateral Asset to Moc Fee Flow during the settlement [PREC]"
        }
      },
      "setSwapTCforTPFee(uint256)": {
        "details": "sets the fee charged when swap Collateral Token for a Pegged Token.",
        "params": {
          "swapTCforTPFee_": "additional fee pct applied on swap Collateral Token for a Pegged Token [PREC] 0% = 0; 1% = 10 ** 16; 100% = 10 ** 18"
        }
      },
      "setSwapTPforTCFee(uint256)": {
        "details": "sets the fee charged when swap a Pegged Token for Collateral Token.",
        "params": {
          "swapTPforTCFee_": "additional fee pct applied on swap a Pegged Token for Collateral Token [PREC] 0% = 0; 1% = 10 ** 16; 100% = 10 ** 18"
        }
      },
      "setSwapTPforTPFee(uint256)": {
        "details": "sets the fee charged when swap a Pegged Token for another Pegged Token.",
        "params": {
          "swapTPforTPFee_": "additional fee pct applied on swap a Pegged Token for another Pegged Token [PREC] 0% = 0; 1% = 10 ** 16; 100% = 10 ** 18"
        }
      },
      "setTCInterestCollectorAddress(address)": {
        "details": "sets TC interest collector address",
        "params": {
          "tcInterestCollectorAddress_": "TC interest collector address"
        }
      },
      "setTCInterestPaymentBlockSpan(uint256)": {
        "details": "sets TC interest payment block spannextTCInterestPayment is not automatically updated, you have to wait until next  interest payment to be made : nextTCInterestPayment = block.number + tcInterestPaymentBlockSpan",
        "params": {
          "tcInterestPaymentBlockSpan_": "amount of blocks to wait for next TC interest payment"
        }
      },
      "setTCInterestRate(uint256)": {
        "details": "sets TC interest rate",
        "params": {
          "tcInterestRate_": "pct interest charged to TC holders on the total collateral in the protocol [PREC]"
        }
      },
      "setTcMintFee(uint256)": {
        "details": "sets the fee charged on Token Collateral mint.",
        "params": {
          "tcMintFee_": "addition fee pct applied on Collateral Tokens mint [PREC] 0% = 0; 1% = 10 ** 16; 100% = 10 ** 18"
        }
      },
      "setTcRedeemFee(uint256)": {
        "details": "sets the fee charged on Token Collateral redeem.",
        "params": {
          "tcRedeemFee_": "addition fee pct applied on Collateral Tokens redeem [PREC] 0% = 0; 1% = 10 ** 16; 100% = 10 ** 18"
        }
      },
      "swapTCforTP(address,uint256,uint256,uint256,address,address)": {
        "params": {
          "qACmax_": "Maximum amount of Collateral Asset that can be spent in fees",
          "qTC_": "Amount of owned Collateral Token to swap",
          "qTPmin_": "Minimum amount of Pegged Token that `recipient_` expects to receive",
          "recipient_": "Address who receives the Pegged Token",
          "tp_": "Pegged Token address",
          "vendor_": "address who receives a markup, `0x0` if not using a vendor"
        }
      },
      "swapTPforTC(address,uint256,uint256,uint256,address,address)": {
        "params": {
          "qACmax_": "maximum amount of Collateral Asset that can be spent in fees",
          "qTCmin_": "minimum amount of Collateral Token that `recipient_` expects to receive",
          "qTP_": "amount of owned Pegged Token to swap",
          "recipient_": "address who receives the Collateral Token",
          "tp_": "Pegged Token address",
          "vendor_": "address who receives a markup, `0x0` if not using a vendor"
        }
      },
      "swapTPforTP(address,address,uint256,uint256,uint256,address,address)": {
        "params": {
          "qACmax_": "maximum amount of Collateral Asset that can be spent in fees",
          "qTP_": "amount of owned Pegged Token to swap",
          "qTPmin_": "minimum amount of target Pegged Token that `recipient_` expects to receive",
          "recipient_": "address who receives the target Pegged Token",
          "tpFrom_": "owned Pegged Token address",
          "tpTo_": "target Pegged Token address",
          "vendor_": "address who receives a markup, `0x0` if not using a vendor"
        }
      },
      "tcHoldersInterestPayment()": {
        "details": "-   The amount is not differential, it's a snapshot of the moment it's executed  -   It does not check coverage"
      },
      "unpause()": {
        "details": "Should only be called by the pauser and when it is stoppable"
      },
      "updateEmas()": {
        "details": "All price provider prices must be available, fails if not"
      },
      "upgradeTo(address)": {
        "custom:oz-upgrades-unsafe-allow-reachable": "delegatecall",
        "details": "Upgrade the implementation of the proxy to `newImplementation`. Calls {_authorizeUpgrade}. Emits an {Upgraded} event."
      },
      "upgradeToAndCall(address,bytes)": {
        "custom:oz-upgrades-unsafe-allow-reachable": "delegatecall",
        "details": "Upgrade the implementation of the proxy to `newImplementation`, and subsequently execute the function call encoded in `data`. Calls {_authorizeUpgrade}. Emits an {Upgraded} event."
      }
    },
    "stateVariables": {
      "__gap": {
        "details": "This empty reserved space is put in place to allow future versions to add new variables without shifting down storage in the inheritance chain. See https://docs.openzeppelin.com/contracts/4.x/upgradeable#storage_gaps"
      }
    },
    "title": "MocCoreMock: to use the protocol without a queue",
    "version": 1
  },
  "evm": {
    "bytecode": {
      "linkReferences": {},
      "opcodes": "PUSH1 0xA0 DUP1 PUSH1 0x40 MSTORE CALLVALUE PUSH3 0xE1 JUMPI ADDRESS PUSH1 0x80 MSTORE PUSH1 0x0 SLOAD SWAP1 PUSH1 0xFF DUP3 PUSH1 0x8 SHR AND PUSH3 0x8F JUMPI POP PUSH1 0xFF DUP1 DUP3 AND SUB PUSH3 0x53 JUMPI JUMPDEST PUSH1 0x40 MLOAD PUSH2 0x534C SWAP1 DUP2 PUSH3 0xE7 DUP3 CODECOPY PUSH1 0x80 MLOAD DUP2 DUP2 DUP2 PUSH2 0x235F ADD MSTORE DUP2 DUP2 PUSH2 0x24D0 ADD MSTORE PUSH2 0x28B4 ADD MSTORE RETURN JUMPDEST PUSH1 0xFF SWAP1 DUP2 NOT AND OR PUSH1 0x0 SSTORE PUSH32 0x7F26B83FF96E1F2B6A682F133852F6798A09C465DA95921460CEFB3847402498 PUSH1 0x20 PUSH1 0x40 MLOAD PUSH1 0xFF DUP2 MSTORE LOG1 CODESIZE PUSH3 0x2C JUMP JUMPDEST PUSH3 0x461BCD PUSH1 0xE5 SHL DUP2 MSTORE PUSH1 0x20 PUSH1 0x4 DUP3 ADD MSTORE PUSH1 0x27 PUSH1 0x24 DUP3 ADD MSTORE PUSH32 0x496E697469616C697A61626C653A20636F6E747261637420697320696E697469 PUSH1 0x44 DUP3 ADD MSTORE PUSH7 0x616C697A696E67 PUSH1 0xC8 SHL PUSH1 0x64 DUP3 ADD MSTORE PUSH1 0x84 SWAP1 REVERT JUMPDEST PUSH1 0x0 DUP1 REVERT INVALID PUSH1 0x80 PUSH1 0x40 MSTORE PUSH1 0x4 CALLDATASIZE LT ISZERO PUSH2 0x12 JUMPI PUSH1 0x0 DUP1 REVERT JUMPDEST PUSH1 0x0 DUP1 CALLDATALOAD PUSH1 0xE0 SHR DUP1 PUSH4 0x1DDE6EF EQ PUSH2 0x38BC JUMPI DUP1 PUSH4 0x1F1B684 EQ PUSH2 0x3874 JUMPI DUP1 PUSH4 0x579188F EQ PUSH2 0x37DC JUMPI DUP1 PUSH4 0x73763B9 EQ PUSH2 0x37B8 JUMPI DUP1 PUSH4 0xC340A24 EQ PUSH2 0x378F JUMPI DUP1 PUSH4 0xC36D897 EQ PUSH2 0x3770 JUMPI DUP1 PUSH4 0xD6AC463 EQ PUSH2 0x372A JUMPI DUP1 PUSH4 0xDB49656 EQ PUSH2 0x370B JUMPI DUP1 PUSH4 0xE0A8FD2 EQ PUSH2 0x36E7 JUMPI DUP1 PUSH4 0xF1E5E2B EQ PUSH2 0x36A1 JUMPI DUP1 PUSH4 0x13ED7BA5 EQ PUSH2 0x3677 JUMPI DUP1 PUSH4 0x14B4906D EQ PUSH2 0x348A JUMPI DUP1 PUSH4 0x1867E2F5 EQ PUSH2 0x346B JUMPI DUP1 PUSH4 0x1FB0DDA0 EQ PUSH2 0x3444 JUMPI DUP1 PUSH4 0x1FE6A7AD EQ PUSH2 0x340A JUMPI DUP1 PUSH4 0x2069F753 EQ PUSH2 0x33E6 JUMPI DUP1 PUSH4 0x23B98CDE EQ PUSH2 0x33BF JUMPI DUP1 PUSH4 0x24FFABA3 EQ PUSH2 0x3381 JUMPI DUP1 PUSH4 0x25BC6C41 EQ PUSH2 0x3357 JUMPI DUP1 PUSH4 0x27EAB2A1 EQ PUSH2 0x3311 JUMPI DUP1 PUSH4 0x2A20D57D EQ PUSH2 0x32F2 JUMPI DUP1 PUSH4 0x2C43BD3B EQ PUSH2 0x32CE JUMPI DUP1 PUSH4 0x2D88AF4A EQ PUSH2 0x3277 JUMPI DUP1 PUSH4 0x2DED50F0 EQ PUSH2 0x3258 JUMPI DUP1 PUSH4 0x2ECCB11C EQ PUSH2 0x2FD2 JUMPI DUP1 PUSH4 0x2ED35CA1 EQ PUSH2 0x2D1D JUMPI DUP1 PUSH4 0x333431FD EQ PUSH2 0x2CFE JUMPI DUP1 PUSH4 0x33421C38 EQ PUSH2 0x2C11 JUMPI DUP1 PUSH4 0x34D70FFA EQ PUSH2 0x291B JUMPI DUP1 PUSH4 0x3659CFE6 EQ PUSH2 0x2882 JUMPI DUP1 PUSH4 0x3915EDCB EQ PUSH2 0x2853 JUMPI DUP1 PUSH4 0x3BC4AC0A EQ PUSH2 0x282F JUMPI DUP1 PUSH4 0x3CFB09EF EQ PUSH2 0x27E9 JUMPI DUP1 PUSH4 0x3F4BA83A EQ PUSH2 0x26E9 JUMPI DUP1 PUSH4 0x4017936A EQ PUSH2 0x26BA JUMPI DUP1 PUSH4 0x407F0E34 EQ PUSH2 0x269B JUMPI DUP1 PUSH4 0x47DDA6AF EQ PUSH2 0x25F1 JUMPI DUP1 PUSH4 0x4B746001 EQ PUSH2 0x25A4 JUMPI DUP1 PUSH4 0x4D977E78 EQ PUSH2 0x2585 JUMPI DUP1 PUSH4 0x4E1F907A EQ PUSH2 0x255B JUMPI DUP1 PUSH4 0x4F0F27EE EQ PUSH2 0x253C JUMPI DUP1 PUSH4 0x4F1EF286 EQ PUSH2 0x2448 JUMPI DUP1 PUSH4 0x5210570C EQ PUSH2 0x2422 JUMPI DUP1 PUSH4 0x52D1902D EQ PUSH2 0x234C JUMPI DUP1 PUSH4 0x533A4BEA EQ PUSH2 0x231B JUMPI DUP1 PUSH4 0x543AEB48 EQ PUSH2 0x22F7 JUMPI DUP1 PUSH4 0x5860EE63 EQ PUSH2 0x22D8 JUMPI DUP1 PUSH4 0x5C616A73 EQ PUSH2 0x20E2 JUMPI DUP1 PUSH4 0x5C975ABB EQ PUSH2 0x20BC JUMPI DUP1 PUSH4 0x5CFBE578 EQ PUSH2 0x209D JUMPI DUP1 PUSH4 0x60009E0B EQ PUSH2 0x2073 JUMPI DUP1 PUSH4 0x60A01DFA EQ PUSH2 0x1C14 JUMPI DUP1 PUSH4 0x60EF07BF EQ PUSH2 0x19FE JUMPI DUP1 PUSH4 0x647846A5 EQ PUSH2 0x19D4 JUMPI DUP1 PUSH4 0x64EC230A EQ PUSH2 0x19B0 JUMPI DUP1 PUSH4 0x662013F4 EQ PUSH2 0x1995 JUMPI DUP1 PUSH4 0x68274357 EQ PUSH2 0x196C JUMPI DUP1 PUSH4 0x6B5488DF EQ PUSH2 0x194D JUMPI DUP1 PUSH4 0x6F30471F EQ PUSH2 0x192E JUMPI DUP1 PUSH4 0x70713468 EQ PUSH2 0x190A JUMPI DUP1 PUSH4 0x735D3960 EQ PUSH2 0x18C4 JUMPI DUP1 PUSH4 0x73E28AF9 EQ PUSH2 0x18A0 JUMPI DUP1 PUSH4 0x7554FFFD EQ PUSH2 0x1881 JUMPI DUP1 PUSH4 0x76228055 EQ PUSH2 0x1862 JUMPI DUP1 PUSH4 0x7750BA0C EQ PUSH2 0x183E JUMPI DUP1 PUSH4 0x797709CA EQ PUSH2 0x1607 JUMPI DUP1 PUSH4 0x79F9A91C EQ PUSH2 0x15E8 JUMPI DUP1 PUSH4 0x7A193C31 EQ PUSH2 0x15C9 JUMPI DUP1 PUSH4 0x7A4FF1D9 EQ PUSH2 0x15A5 JUMPI DUP1 PUSH4 0x7A727FE8 EQ PUSH2 0x1586 JUMPI DUP1 PUSH4 0x7AF5758C EQ PUSH2 0x1562 JUMPI DUP1 PUSH4 0x7CBA2383 EQ PUSH2 0x153E JUMPI DUP1 PUSH4 0x7D8E0314 EQ PUSH2 0x1501 JUMPI DUP1 PUSH4 0x7F01C715 EQ PUSH2 0x14D7 JUMPI DUP1 PUSH4 0x7F13B998 EQ PUSH2 0x14A3 JUMPI DUP1 PUSH4 0x7F4A4FE0 EQ PUSH2 0x1484 JUMPI DUP1 PUSH4 0x826FCD58 EQ PUSH2 0x1463 JUMPI DUP1 PUSH4 0x8456CB59 EQ PUSH2 0x13CC JUMPI DUP1 PUSH4 0x85BF9593 EQ PUSH2 0x1386 JUMPI DUP1 PUSH4 0x8CFA4241 EQ PUSH2 0x1367 JUMPI DUP1 PUSH4 0x8E2BDB86 EQ PUSH2 0x133D JUMPI DUP1 PUSH4 0x8F1A383A EQ PUSH2 0x1316 JUMPI DUP1 PUSH4 0x9853C35A EQ PUSH2 0x12EC JUMPI DUP1 PUSH4 0x9AD6659D EQ PUSH2 0x12B7 JUMPI DUP1 PUSH4 0x9CABFC00 EQ PUSH2 0x126A JUMPI DUP1 PUSH4 0x9FD0506D EQ PUSH2 0x123D JUMPI DUP1 PUSH4 0xA8E9AC30 EQ PUSH2 0x121B JUMPI DUP1 PUSH4 0xAEA038DC EQ PUSH2 0x11FC JUMPI DUP1 PUSH4 0xB03E11A0 EQ PUSH2 0xF1B JUMPI DUP1 PUSH4 0xB5E9EA8C EQ PUSH2 0xEF1 JUMPI DUP1 PUSH4 0xB9FA6413 EQ PUSH2 0xED2 JUMPI DUP1 PUSH4 0xBB4872DE EQ PUSH2 0xEAF JUMPI DUP1 PUSH4 0xBECACA6B EQ PUSH2 0xE8B JUMPI DUP1 PUSH4 0xC00F538D EQ PUSH2 0xE67 JUMPI DUP1 PUSH4 0xC039CC69 EQ PUSH2 0xE27 JUMPI DUP1 PUSH4 0xC84353C9 EQ PUSH2 0xE03 JUMPI DUP1 PUSH4 0xCF351C1D EQ PUSH2 0xDBD JUMPI DUP1 PUSH4 0xD1A0FAA0 EQ PUSH2 0xDA1 JUMPI DUP1 PUSH4 0xD2DC25A5 EQ PUSH2 0xBC6 JUMPI DUP1 PUSH4 0xD6AF11DA EQ PUSH2 0xB8C JUMPI DUP1 PUSH4 0xD87AAB6F EQ PUSH2 0xB6D JUMPI DUP1 PUSH4 0xD8DB6F5A EQ PUSH2 0xB27 JUMPI DUP1 PUSH4 0xDB796072 EQ PUSH2 0xAE7 JUMPI DUP1 PUSH4 0xDDB6D190 EQ PUSH2 0xAA9 JUMPI DUP1 PUSH4 0xDE8D520A EQ PUSH2 0xA78 JUMPI DUP1 PUSH4 0xE23C135C EQ PUSH2 0xA33 JUMPI DUP1 PUSH4 0xE4C0AAF4 EQ PUSH2 0x9E5 JUMPI DUP1 PUSH4 0xE6A683E0 EQ PUSH2 0x99F JUMPI DUP1 PUSH4 0xE6B1627C EQ PUSH2 0x95C JUMPI DUP1 PUSH4 0xE7C25978 EQ PUSH2 0x938 JUMPI DUP1 PUSH4 0xE8859A15 EQ PUSH2 0x91D JUMPI DUP1 PUSH4 0xEE1F438F EQ PUSH2 0x8F3 JUMPI DUP1 PUSH4 0xF13F4054 EQ PUSH2 0x8C9 JUMPI DUP1 PUSH4 0xF26114AA EQ PUSH2 0x865 JUMPI DUP1 PUSH4 0xF2808778 EQ PUSH2 0x841 JUMPI DUP1 PUSH4 0xF30B5614 EQ PUSH2 0x822 JUMPI DUP1 PUSH4 0xF375CFBA EQ PUSH2 0x803 JUMPI DUP1 PUSH4 0xF88B1434 EQ PUSH2 0x795 JUMPI DUP1 PUSH4 0xFA6E83BD EQ PUSH2 0x776 JUMPI DUP1 PUSH4 0xFADDA424 EQ PUSH2 0x6FD JUMPI DUP1 PUSH4 0xFDA70F8B EQ PUSH2 0x6DE JUMPI DUP1 PUSH4 0xFDCDC11E EQ PUSH2 0x587 JUMPI PUSH4 0xFE6B92C1 EQ PUSH2 0x566 JUMPI PUSH1 0x0 DUP1 REVERT JUMPDEST CALLVALUE PUSH2 0x584 JUMPI DUP1 PUSH1 0x3 NOT CALLDATASIZE ADD SLT PUSH2 0x584 JUMPI PUSH1 0x20 PUSH2 0x135 SLOAD PUSH1 0x40 MLOAD SWAP1 DUP2 MSTORE RETURN JUMPDEST DUP1 REVERT JUMPDEST PUSH2 0x6C4 PUSH2 0x6CE PUSH2 0x6DA PUSH2 0x694 PUSH2 0x59E CALLDATASIZE PUSH1 0x4 PUSH2 0x39A7 JUMP JUMPDEST PUSH2 0x5AE SWAP9 SWAP5 SWAP3 SWAP2 SWAP9 SWAP8 SWAP4 SWAP8 PUSH2 0x4D59 JUMP JUMPDEST POP PUSH2 0x229 SLOAD PUSH1 0x1 PUSH1 0x1 PUSH1 0xA0 SHL SUB SWAP7 DUP8 SWAP5 PUSH2 0x6A3 SWAP3 PUSH2 0x5D3 SWAP1 DUP7 SWAP1 ADDRESS SWAP1 CALLER SWAP1 DUP11 AND PUSH2 0x4D80 JUMP JUMPDEST DUP6 PUSH2 0x14E SWAP13 DUP14 PUSH2 0x5E4 DUP9 DUP3 SLOAD PUSH2 0x3F67 JUMP JUMPDEST SWAP1 SSTORE DUP2 PUSH1 0x40 MLOAD SWAP4 PUSH2 0x5F6 PUSH1 0xC0 DUP7 PUSH2 0x3A31 JUMP JUMPDEST AND DUP4 MSTORE PUSH1 0x20 DUP4 ADD SWAP13 DUP14 MSTORE PUSH1 0x40 DUP4 ADD SWAP7 DUP8 MSTORE PUSH1 0x60 DUP4 ADD SWAP13 DUP14 CALLER SWAP1 MSTORE DUP3 PUSH1 0x80 DUP6 ADD SWAP3 AND DUP3 MSTORE DUP3 PUSH1 0xA0 DUP6 ADD SWAP8 AND DUP8 MSTORE PUSH2 0x62A PUSH2 0x4D59 JUMP JUMPDEST POP PUSH2 0x633 PUSH2 0x4DC4 JUMP JUMPDEST PUSH2 0x63B PUSH2 0x4B2D JUMP JUMPDEST DUP3 PUSH1 0x40 MLOAD SWAP5 PUSH4 0x7225DA89 PUSH1 0xE1 SHL PUSH1 0x20 DUP8 ADD MSTORE MLOAD AND PUSH1 0x24 DUP6 ADD MSTORE MLOAD PUSH1 0x44 DUP5 ADD MSTORE DUP7 MLOAD PUSH1 0x64 DUP5 ADD MSTORE DUP2 DUP14 MLOAD AND PUSH1 0x84 DUP5 ADD MSTORE MLOAD AND PUSH1 0xA4 DUP3 ADD MSTORE DUP6 DUP5 MLOAD AND PUSH1 0xC4 DUP3 ADD MSTORE PUSH1 0xC4 DUP2 MSTORE PUSH2 0x689 PUSH1 0xE4 DUP3 PUSH2 0x3A31 JUMP JUMPDEST DUP6 PUSH2 0x1F6 SLOAD AND PUSH2 0x457C JUMP JUMPDEST PUSH1 0x20 DUP1 DUP3 MLOAD DUP4 ADD ADD SWAP2 ADD PUSH2 0x5236 JUMP JUMPDEST SWAP9 DUP4 SWAP12 DUP11 SWAP8 SWAP5 SWAP3 SWAP10 SWAP4 SWAP14 PUSH2 0x6B9 DUP9 MLOAD DUP3 SLOAD PUSH2 0x415D JUMP JUMPDEST SWAP1 SSTORE MLOAD AND SWAP5 MLOAD PUSH2 0x415D JUMP JUMPDEST SWAP2 MLOAD AND SWAP2 DUP1 PUSH2 0x50AB JUMP JUMPDEST PUSH1 0x40 MLOAD SWAP5 DUP6 SWAP5 DUP6 PUSH2 0x3965 JUMP JUMPDEST SUB SWAP1 RETURN JUMPDEST POP CALLVALUE PUSH2 0x584 JUMPI DUP1 PUSH1 0x3 NOT CALLDATASIZE ADD SLT PUSH2 0x584 JUMPI PUSH1 0x20 PUSH2 0x13C SLOAD PUSH1 0x40 MLOAD SWAP1 DUP2 MSTORE RETURN JUMPDEST POP CALLVALUE PUSH2 0x584 JUMPI PUSH1 0x20 CALLDATASIZE PUSH1 0x3 NOT ADD SLT PUSH2 0x584 JUMPI PUSH1 0x1 PUSH1 0x1 PUSH1 0xA0 SHL SUB PUSH1 0x4 CALLDATALOAD DUP2 DUP2 AND DUP2 SUB PUSH2 0x771 JUMPI PUSH2 0x739 PUSH2 0x731 PUSH1 0x1 SWAP3 PUSH2 0x429B JUMP JUMPDEST PUSH2 0x137 PUSH2 0x3A15 JUMP JUMPDEST POP ADD SLOAD AND PUSH2 0x746 DUP2 PUSH2 0x432C JUMP JUMPDEST SWAP2 SWAP1 SWAP2 ISZERO PUSH2 0x759 JUMPI PUSH1 0x20 DUP3 PUSH1 0x40 MLOAD SWAP1 DUP2 MSTORE RETURN JUMPDEST PUSH1 0x24 SWAP1 PUSH1 0x40 MLOAD SWAP1 PUSH4 0x7F6E4DB9 PUSH1 0xE0 SHL DUP3 MSTORE PUSH1 0x4 DUP3 ADD MSTORE REVERT JUMPDEST PUSH1 0x0 DUP1 REVERT JUMPDEST POP CALLVALUE PUSH2 0x584 JUMPI DUP1 PUSH1 0x3 NOT CALLDATASIZE ADD SLT PUSH2 0x584 JUMPI PUSH1 0x20 PUSH2 0x13A SLOAD PUSH1 0x40 MLOAD SWAP1 DUP2 MSTORE RETURN JUMPDEST POP CALLVALUE PUSH2 0x584 JUMPI PUSH1 0x20 CALLDATASIZE PUSH1 0x3 NOT ADD SLT PUSH2 0x584 JUMPI PUSH1 0x4 CALLDATALOAD PUSH1 0x1 PUSH1 0x1 PUSH1 0xA0 SHL SUB DUP2 AND DUP2 SUB PUSH2 0x771 JUMPI PUSH2 0x7FB PUSH2 0x7ED PUSH1 0x20 SWAP3 PUSH2 0x7D6 PUSH2 0x7CE PUSH2 0x4948 JUMP JUMPDEST SWAP2 SWAP1 SWAP3 PUSH2 0x429B JUMP JUMPDEST SWAP2 PUSH2 0x7F5 PUSH2 0x7E4 DUP5 DUP5 PUSH2 0x3F53 JUMP JUMPDEST MLOAD SWAP5 DUP6 SWAP4 PUSH2 0x3F8A JUMP JUMPDEST SWAP6 SWAP1 SWAP5 PUSH2 0x48A5 JUMP JUMPDEST SWAP1 PUSH2 0x47A2 JUMP JUMPDEST PUSH1 0x40 MLOAD SWAP1 DUP2 MSTORE RETURN JUMPDEST POP CALLVALUE PUSH2 0x584 JUMPI DUP1 PUSH1 0x3 NOT CALLDATASIZE ADD SLT PUSH2 0x584 JUMPI PUSH1 0x20 PUSH2 0x141 SLOAD PUSH1 0x40 MLOAD SWAP1 DUP2 MSTORE RETURN JUMPDEST POP CALLVALUE PUSH2 0x584 JUMPI DUP1 PUSH1 0x3 NOT CALLDATASIZE ADD SLT PUSH2 0x584 JUMPI PUSH1 0x20 PUSH2 0x131 SLOAD PUSH1 0x40 MLOAD SWAP1 DUP2 MSTORE RETURN JUMPDEST POP CALLVALUE PUSH2 0x584 JUMPI PUSH1 0x20 CALLDATASIZE PUSH1 0x3 NOT ADD SLT PUSH2 0x584 JUMPI PUSH2 0x85B PUSH2 0x4A9F JUMP JUMPDEST PUSH1 0x4 CALLDATALOAD PUSH2 0x13C SSTORE DUP1 RETURN JUMPDEST POP CALLVALUE PUSH2 0x584 JUMPI PUSH1 0xE0 CALLDATASIZE PUSH1 0x3 NOT ADD SLT PUSH2 0x584 JUMPI PUSH2 0x87F PUSH2 0x4A9F JUMP JUMPDEST PUSH1 0x40 MLOAD PUSH4 0x79308A55 PUSH1 0xE1 SHL PUSH1 0x20 DUP3 ADD MSTORE PUSH2 0x8C5 SWAP1 PUSH2 0x8B3 DUP2 PUSH2 0x8A5 PUSH1 0x4 PUSH1 0x24 DUP4 ADD PUSH2 0x46B3 JUMP JUMPDEST SUB PUSH1 0x1F NOT DUP2 ADD DUP4 MSTORE DUP3 PUSH2 0x3A31 JUMP JUMPDEST PUSH2 0x1F6 SLOAD PUSH1 0x1 PUSH1 0x1 PUSH1 0xA0 SHL SUB AND PUSH2 0x457C JUMP JUMPDEST POP DUP1 RETURN JUMPDEST POP CALLVALUE PUSH2 0x584 JUMPI DUP1 PUSH1 0x3 NOT CALLDATASIZE ADD SLT PUSH2 0x584 JUMPI PUSH2 0x130 SLOAD PUSH1 0x40 MLOAD PUSH1 0x1 PUSH1 0x1 PUSH1 0xA0 SHL SUB SWAP1 SWAP2 AND DUP2 MSTORE PUSH1 0x20 SWAP1 RETURN JUMPDEST POP CALLVALUE PUSH2 0x584 JUMPI DUP1 PUSH1 0x3 NOT CALLDATASIZE ADD SLT PUSH2 0x584 JUMPI PUSH2 0x152 SLOAD PUSH1 0x40 MLOAD PUSH1 0x1 PUSH1 0x1 PUSH1 0xA0 SHL SUB SWAP1 SWAP2 AND DUP2 MSTORE PUSH1 0x20 SWAP1 RETURN JUMPDEST POP CALLVALUE PUSH2 0x584 JUMPI DUP1 PUSH1 0x3 NOT CALLDATASIZE ADD SLT PUSH2 0x584 JUMPI PUSH1 0x20 PUSH2 0x7FB PUSH2 0x4868 JUMP JUMPDEST POP CALLVALUE PUSH2 0x584 JUMPI DUP1 PUSH1 0x3 NOT CALLDATASIZE ADD SLT PUSH2 0x584 JUMPI PUSH1 0x20 PUSH1 0xFF PUSH2 0x14B SLOAD AND PUSH1 0x40 MLOAD SWAP1 ISZERO ISZERO DUP2 MSTORE RETURN JUMPDEST POP CALLVALUE PUSH2 0x584 JUMPI PUSH1 0x20 CALLDATASIZE PUSH1 0x3 NOT ADD SLT PUSH2 0x584 JUMPI PUSH1 0x4 CALLDATALOAD SWAP1 PUSH2 0x18E SWAP1 DUP2 SLOAD DUP4 LT ISZERO PUSH2 0x584 JUMPI PUSH1 0x40 PUSH2 0x98B DUP5 DUP5 PUSH2 0x3A15 JUMP JUMPDEST POP PUSH1 0x1 DUP2 SLOAD SWAP2 ADD SLOAD DUP3 MLOAD SWAP2 DUP3 MSTORE PUSH1 0x20 DUP3 ADD MSTORE RETURN JUMPDEST POP CALLVALUE PUSH2 0x584 JUMPI PUSH1 0x20 CALLDATASIZE PUSH1 0x3 NOT ADD SLT PUSH2 0x584 JUMPI PUSH1 0x4 CALLDATALOAD PUSH1 0x1 PUSH1 0x1 PUSH1 0xA0 SHL SUB DUP2 AND SWAP1 DUP2 SWAP1 SUB PUSH2 0x771 JUMPI PUSH2 0x9CE PUSH2 0x4A9F JUMP JUMPDEST PUSH2 0x1F6 DUP1 SLOAD PUSH1 0x1 PUSH1 0x1 PUSH1 0xA0 SHL SUB NOT AND SWAP1 SWAP2 OR SWAP1 SSTORE DUP1 RETURN JUMPDEST POP CALLVALUE PUSH2 0x584 JUMPI PUSH1 0x20 CALLDATASIZE PUSH1 0x3 NOT ADD SLT PUSH2 0x584 JUMPI PUSH1 0x4 CALLDATALOAD PUSH1 0x1 PUSH1 0x1 PUSH1 0xA0 SHL SUB DUP2 AND SWAP1 DUP2 SWAP1 SUB PUSH2 0xA2F JUMPI PUSH2 0xA14 PUSH2 0x4A9F JUMP JUMPDEST PUSH12 0xFFFFFFFFFFFFFFFFFFFFFFFF PUSH1 0xA0 SHL PUSH1 0x97 SLOAD AND OR PUSH1 0x97 SSTORE DUP1 RETURN JUMPDEST POP DUP1 REVERT JUMPDEST POP CALLVALUE PUSH2 0x584 JUMPI DUP1 PUSH1 0x3 NOT CALLDATASIZE ADD SLT PUSH2 0x584 JUMPI PUSH2 0xA4D ADDRESS PUSH2 0x4CEA JUMP JUMPDEST PUSH2 0x131 SWAP1 PUSH2 0xA5D DUP3 SLOAD DUP1 SWAP3 PUSH2 0x415D JUMP JUMPDEST DUP1 PUSH2 0xA66 JUMPI DUP4 DUP1 RETURN JUMPDEST PUSH2 0xA6F SWAP2 PUSH2 0x3F67 JUMP JUMPDEST SWAP1 SSTORE CODESIZE DUP1 DUP1 DUP4 DUP1 RETURN JUMPDEST POP CALLVALUE PUSH2 0x584 JUMPI DUP1 PUSH1 0x3 NOT CALLDATASIZE ADD SLT PUSH2 0x584 JUMPI PUSH1 0x20 PUSH2 0x7FB PUSH2 0xA9E PUSH2 0xA99 PUSH2 0x439E JUMP JUMPDEST PUSH2 0x3F8A JUMP JUMPDEST SWAP1 POP PUSH2 0x131 SLOAD PUSH2 0x415D JUMP JUMPDEST POP CALLVALUE PUSH2 0x584 JUMPI PUSH1 0x20 CALLDATASIZE PUSH1 0x3 NOT ADD SLT PUSH2 0x584 JUMPI PUSH1 0x4 CALLDATALOAD PUSH1 0x1 PUSH1 0x1 PUSH1 0xA0 SHL SUB DUP2 AND SWAP1 DUP2 SWAP1 SUB PUSH2 0x771 JUMPI DUP2 PUSH1 0x40 SWAP2 PUSH1 0x20 SWAP4 MSTORE PUSH2 0x145 DUP4 MSTORE KECCAK256 SLOAD PUSH1 0x40 MLOAD SWAP1 DUP2 MSTORE RETURN JUMPDEST POP CALLVALUE PUSH2 0x584 JUMPI PUSH1 0xE0 CALLDATASIZE PUSH1 0x3 NOT ADD SLT PUSH2 0x584 JUMPI PUSH2 0xB01 PUSH2 0x4A9F JUMP JUMPDEST PUSH1 0x40 MLOAD PUSH4 0x6DBCB039 PUSH1 0xE1 SHL PUSH1 0x20 DUP3 ADD MSTORE PUSH2 0x8C5 SWAP1 PUSH2 0x8B3 DUP2 PUSH2 0x8A5 PUSH1 0x4 PUSH1 0x24 DUP4 ADD PUSH2 0x46B3 JUMP JUMPDEST POP CALLVALUE PUSH2 0x584 JUMPI PUSH1 0x20 CALLDATASIZE PUSH1 0x3 NOT ADD SLT PUSH2 0x584 JUMPI PUSH1 0x4 CALLDATALOAD PUSH1 0x1 PUSH1 0x1 PUSH1 0xA0 SHL SUB DUP2 AND SWAP1 DUP2 SWAP1 SUB PUSH2 0x771 JUMPI PUSH2 0xB56 PUSH2 0x4A9F JUMP JUMPDEST PUSH2 0x152 DUP1 SLOAD PUSH1 0x1 PUSH1 0x1 PUSH1 0xA0 SHL SUB NOT AND SWAP1 SWAP2 OR SWAP1 SSTORE DUP1 RETURN JUMPDEST POP CALLVALUE PUSH2 0x584 JUMPI DUP1 PUSH1 0x3 NOT CALLDATASIZE ADD SLT PUSH2 0x584 JUMPI PUSH1 0x20 PUSH2 0x155 SLOAD PUSH1 0x40 MLOAD SWAP1 DUP2 MSTORE RETURN JUMPDEST POP CALLVALUE PUSH2 0x584 JUMPI DUP1 PUSH1 0x3 NOT CALLDATASIZE ADD SLT PUSH2 0x584 JUMPI PUSH1 0x20 PUSH2 0x7FB PUSH2 0xBAC PUSH1 0x1 PUSH2 0x43D8 JUMP JUMPDEST PUSH2 0xBC0 PUSH2 0xBB9 DUP3 DUP5 PUSH2 0x40CE JUMP JUMPDEST SWAP2 DUP4 PUSH2 0x4018 JUMP JUMPDEST SWAP2 PUSH2 0x441F JUMP JUMPDEST PUSH2 0xCA6 DUP3 PUSH2 0xBD5 CALLDATASIZE PUSH1 0x4 PUSH2 0x39A7 JUMP JUMPDEST SWAP4 SWAP5 SWAP3 SWAP2 PUSH2 0xBE1 PUSH2 0x4D59 JUMP JUMPDEST POP PUSH2 0x229 SLOAD PUSH1 0x1 PUSH1 0x1 PUSH1 0xA0 SHL SUB SWAP6 SWAP1 PUSH2 0xC01 SWAP1 DUP4 SWAP1 ADDRESS SWAP1 CALLER SWAP1 DUP11 AND PUSH2 0x4D80 JUMP JUMPDEST PUSH2 0x14E SWAP6 PUSH2 0xC10 DUP4 DUP9 SLOAD PUSH2 0x3F67 JUMP JUMPDEST DUP8 SSTORE DUP1 PUSH1 0x40 MLOAD SWAP9 PUSH2 0xC22 PUSH1 0xC0 DUP12 PUSH2 0x3A31 JUMP JUMPDEST AND DUP9 MSTORE PUSH1 0x20 DUP9 ADD SWAP5 DUP6 MSTORE PUSH1 0x40 DUP9 ADD SWAP3 DUP4 MSTORE PUSH1 0x60 DUP9 ADD SWAP8 CALLER DUP10 MSTORE DUP2 PUSH1 0x80 DUP3 ADD SWAP6 AND DUP6 MSTORE DUP2 PUSH1 0xA0 DUP3 ADD SWAP4 AND DUP4 MSTORE PUSH2 0xC55 PUSH2 0x4D59 JUMP JUMPDEST POP PUSH2 0xC5E PUSH2 0x4DC4 JUMP JUMPDEST PUSH2 0xC66 PUSH2 0x4B2D JUMP JUMPDEST PUSH2 0xC6E PUSH2 0x4A0B JUMP JUMPDEST PUSH2 0xC76 PUSH2 0x4948 JUMP JUMPDEST SWAP6 SWAP1 PUSH2 0xCBA PUSH2 0xC87 DUP6 DUP6 MLOAD AND PUSH2 0x429B JUMP JUMPDEST SWAP8 PUSH2 0xC92 DUP10 DUP3 PUSH2 0x3F53 JUMP JUMPDEST MLOAD SWAP14 DUP15 SWAP2 PUSH2 0xCA0 DUP4 DUP13 PUSH2 0x465E JUMP JUMPDEST DUP5 PUSH2 0x4DE6 JUMP JUMPDEST SWAP2 DUP12 MLOAD SWAP5 PUSH2 0xCB4 DUP3 DUP14 PUSH2 0x48A5 JUMP JUMPDEST SWAP1 PUSH2 0x5164 JUMP JUMPDEST DUP2 DUP2 LT PUSH2 0xD83 JUMPI POP POP PUSH2 0xCF6 PUSH2 0xCD4 PUSH2 0xD01 SWAP13 DUP10 MLOAD PUSH2 0x52E1 JUMP JUMPDEST SWAP3 DUP4 DUP6 DUP14 MLOAD AND SWAP2 DUP7 DUP1 DUP10 MLOAD AND SWAP2 MLOAD AND DUP13 MSTORE PUSH2 0x144 PUSH1 0x20 MSTORE PUSH1 0x40 DUP13 KECCAK256 SLOAD SWAP3 PUSH2 0x4E29 JUMP JUMPDEST SWAP10 SWAP2 DUP5 SWAP14 SWAP2 SWAP14 PUSH2 0x3F67 JUMP JUMPDEST SWAP11 DUP7 MLOAD DUP1 DUP14 GT PUSH2 0xD65 JUMPI POP DUP12 ISZERO PUSH2 0xD53 JUMPI PUSH2 0x6DA SWAP11 PUSH2 0xD3B DUP12 SWAP10 DUP7 DUP16 SWAP7 DUP10 PUSH2 0xD47 SWAP15 PUSH2 0xD31 DUP3 SWAP10 PUSH2 0x6C4 SWAP13 PUSH2 0x517C JUMP JUMPDEST MLOAD SWAP2 MLOAD AND SWAP3 PUSH2 0x459E JUMP JUMPDEST PUSH2 0x6B9 DUP9 MLOAD DUP3 SLOAD PUSH2 0x415D JUMP JUMPDEST PUSH1 0x40 MLOAD SWAP4 DUP5 SWAP4 DUP5 PUSH2 0x39D9 JUMP JUMPDEST PUSH1 0x40 MLOAD PUSH4 0xF3E39B5D PUSH1 0xE0 SHL DUP2 MSTORE PUSH1 0x4 SWAP1 REVERT JUMPDEST PUSH1 0x44 SWAP1 DUP14 PUSH1 0x40 MLOAD SWAP2 PUSH4 0xB63F1A7 PUSH1 0xE0 SHL DUP4 MSTORE PUSH1 0x4 DUP4 ADD MSTORE PUSH1 0x24 DUP3 ADD MSTORE REVERT JUMPDEST PUSH1 0x44 SWAP3 POP PUSH1 0x40 MLOAD SWAP2 PUSH4 0xC39B739F PUSH1 0xE0 SHL DUP4 MSTORE PUSH1 0x4 DUP4 ADD MSTORE PUSH1 0x24 DUP3 ADD MSTORE REVERT JUMPDEST POP CALLVALUE PUSH2 0x584 JUMPI DUP1 PUSH1 0x3 NOT CALLDATASIZE ADD SLT PUSH2 0x584 JUMPI PUSH2 0xDBA PUSH2 0x4A0B JUMP JUMPDEST DUP1 RETURN JUMPDEST POP CALLVALUE PUSH2 0x584 JUMPI PUSH1 0x20 CALLDATASIZE PUSH1 0x3 NOT ADD SLT PUSH2 0x584 JUMPI PUSH1 0x4 CALLDATALOAD PUSH1 0x1 PUSH1 0x1 PUSH1 0xA0 SHL SUB DUP2 AND SWAP1 DUP2 SWAP1 SUB PUSH2 0x771 JUMPI PUSH2 0xDEC PUSH2 0x4A9F JUMP JUMPDEST PUSH2 0x12F DUP1 SLOAD PUSH1 0x1 PUSH1 0x1 PUSH1 0xA0 SHL SUB NOT AND SWAP1 SWAP2 OR SWAP1 SSTORE DUP1 RETURN JUMPDEST POP CALLVALUE PUSH2 0x584 JUMPI PUSH1 0x20 CALLDATASIZE PUSH1 0x3 NOT ADD SLT PUSH2 0x584 JUMPI PUSH2 0xE1D PUSH2 0x4A9F JUMP JUMPDEST PUSH1 0x4 CALLDATALOAD PUSH2 0x14C SSTORE DUP1 RETURN JUMPDEST POP CALLVALUE PUSH2 0x584 JUMPI DUP1 PUSH1 0x3 NOT CALLDATASIZE ADD SLT PUSH2 0x584 JUMPI PUSH1 0x20 PUSH2 0x7FB PUSH2 0xE5A PUSH2 0xE61 PUSH2 0xE4E PUSH2 0xA99 PUSH2 0x439E JUMP JUMPDEST PUSH2 0x131 SWAP4 SWAP2 SWAP4 SLOAD PUSH2 0x415D JUMP JUMPDEST SWAP2 DUP3 PUSH2 0x415D JUMP JUMPDEST SWAP1 PUSH2 0x52E1 JUMP JUMPDEST POP CALLVALUE PUSH2 0x584 JUMPI PUSH1 0x20 CALLDATASIZE PUSH1 0x3 NOT ADD SLT PUSH2 0x584 JUMPI PUSH2 0xE81 PUSH2 0x4A9F JUMP JUMPDEST PUSH1 0x4 CALLDATALOAD PUSH2 0x13D SSTORE DUP1 RETURN JUMPDEST POP CALLVALUE PUSH2 0x584 JUMPI PUSH1 0x20 CALLDATASIZE PUSH1 0x3 NOT ADD SLT PUSH2 0x584 JUMPI PUSH2 0xEA5 PUSH2 0x4A9F JUMP JUMPDEST PUSH1 0x4 CALLDATALOAD PUSH2 0x139 SSTORE DUP1 RETURN JUMPDEST POP CALLVALUE PUSH2 0x584 JUMPI DUP1 PUSH1 0x3 NOT CALLDATASIZE ADD SLT PUSH2 0x584 JUMPI PUSH1 0x20 PUSH1 0xFF PUSH1 0xCA SLOAD AND PUSH1 0x40 MLOAD SWAP1 ISZERO ISZERO DUP2 MSTORE RETURN JUMPDEST POP CALLVALUE PUSH2 0x584 JUMPI DUP1 PUSH1 0x3 NOT CALLDATASIZE ADD SLT PUSH2 0x584 JUMPI PUSH1 0x20 PUSH2 0x15B SLOAD PUSH1 0x40 MLOAD SWAP1 DUP2 MSTORE RETURN JUMPDEST POP CALLVALUE PUSH2 0x584 JUMPI DUP1 PUSH1 0x3 NOT CALLDATASIZE ADD SLT PUSH2 0x584 JUMPI PUSH2 0x153 SLOAD PUSH1 0x40 MLOAD PUSH1 0x1 PUSH1 0x1 PUSH1 0xA0 SHL SUB SWAP1 SWAP2 AND DUP2 MSTORE PUSH1 0x20 SWAP1 RETURN JUMPDEST POP PUSH2 0xF27 CALLDATASIZE PUSH1 0x4 PUSH2 0x3A85 JUMP JUMPDEST SWAP4 SWAP1 SWAP2 SWAP3 PUSH2 0xF33 PUSH2 0x4D59 JUMP JUMPDEST POP PUSH1 0x40 MLOAD SWAP3 PUSH2 0xF43 PUSH1 0xA0 DUP6 PUSH2 0x3A31 JUMP JUMPDEST DUP2 DUP5 MSTORE PUSH1 0x20 DUP1 DUP6 ADD SWAP6 DUP7 MSTORE CALLER PUSH1 0x40 DUP1 DUP8 ADD SWAP2 DUP3 MSTORE PUSH1 0x1 PUSH1 0x1 PUSH1 0xA0 SHL SUB SWAP4 DUP5 AND PUSH1 0x60 DUP9 ADD SWAP1 DUP2 MSTORE SWAP9 DUP5 AND PUSH1 0x80 DUP9 ADD SWAP1 DUP2 MSTORE PUSH2 0x133 DUP1 SLOAD SWAP3 MLOAD PUSH4 0x40C10F19 PUSH1 0xE0 SHL DUP2 MSTORE ADDRESS PUSH1 0x4 DUP3 ADD MSTORE PUSH1 0x24 DUP2 ADD DUP9 SWAP1 MSTORE SWAP2 SWAP11 SWAP6 SWAP5 SWAP1 SWAP4 SWAP3 DUP3 SWAP1 PUSH1 0x44 SWAP1 DUP3 SWAP1 DUP12 SWAP1 DUP10 AND GAS CALL DUP1 ISZERO PUSH2 0x11F1 JUMPI PUSH2 0x11B5 JUMPI JUMPDEST POP PUSH2 0xFB9 PUSH2 0x4D59 JUMP JUMPDEST POP PUSH2 0xFC2 PUSH2 0x4DC4 JUMP JUMPDEST PUSH2 0xFCA PUSH2 0x4B2D JUMP JUMPDEST PUSH2 0xFD2 PUSH2 0x4A0B JUMP JUMPDEST PUSH2 0xFE5 PUSH2 0xFDD PUSH2 0x4948 JUMP JUMPDEST DUP2 SWAP3 SWAP2 PUSH2 0x4DE6 JUMP JUMPDEST SWAP1 SWAP2 PUSH2 0xFF4 DUP3 DUP5 DUP13 MLOAD SWAP4 PUSH2 0x4743 JUMP JUMPDEST DUP2 DUP2 LT PUSH2 0x1197 JUMPI POP POP PUSH8 0xDE0B6B3A7640000 SWAP2 PUSH2 0x1016 PUSH2 0x101C SWAP3 DUP12 MLOAD SWAP3 PUSH2 0x4714 JUMP JUMPDEST SWAP1 PUSH2 0x409B JUMP JUMPDEST DIV SWAP4 DUP5 ISZERO PUSH2 0xD53 JUMPI PUSH2 0x1049 SWAP10 PUSH2 0x103E DUP6 DUP5 MLOAD AND DUP8 DUP8 DUP5 MLOAD AND PUSH2 0x13D SLOAD SWAP3 PUSH2 0x4E29 JUMP JUMPDEST SWAP11 SWAP2 DUP9 SWAP14 SWAP2 SWAP14 PUSH2 0x415D JUMP JUMPDEST SWAP11 MLOAD DUP1 DUP13 LT PUSH2 0x1179 JUMPI POP MLOAD SWAP6 PUSH2 0x134 PUSH2 0x1063 DUP9 DUP3 SLOAD PUSH2 0x415D JUMP JUMPDEST SWAP1 SSTORE PUSH2 0x1073 PUSH2 0x131 SWAP2 DUP3 SLOAD PUSH2 0x415D JUMP JUMPDEST SWAP1 SSTORE DUP5 DUP5 SLOAD AND SWAP3 DUP4 EXTCODESIZE ISZERO PUSH2 0x1175 JUMPI PUSH1 0x40 MLOAD PUSH4 0x2770A7EB PUSH1 0xE2 SHL DUP1 DUP3 MSTORE ADDRESS PUSH1 0x4 DUP4 ADD MSTORE PUSH1 0x24 DUP3 ADD SWAP9 SWAP1 SWAP9 MSTORE SWAP4 DUP10 SWAP1 DUP6 SWAP1 PUSH1 0x44 SWAP1 DUP3 SWAP1 DUP5 SWAP1 GAS CALL DUP1 ISZERO PUSH2 0x116A JUMPI SWAP2 DUP7 DUP13 SWAP3 DUP12 DUP14 SWAP7 SWAP6 PUSH2 0x1144 JUMPI JUMPDEST POP PUSH2 0x10D5 SWAP7 POP DUP2 DUP1 SWAP2 MLOAD AND SWAP5 MLOAD AND SWAP2 MLOAD AND SWAP3 PUSH2 0x50AB JUMP JUMPDEST SLOAD AND SWAP1 DUP2 EXTCODESIZE ISZERO PUSH2 0x1140 JUMPI PUSH1 0x40 MLOAD SWAP1 DUP2 MSTORE CALLER PUSH1 0x4 DUP3 ADD MSTORE PUSH1 0x24 DUP2 ADD SWAP3 SWAP1 SWAP3 MSTORE DUP3 SWAP1 DUP3 SWAP1 DUP2 DUP4 DUP2 PUSH1 0x44 DUP2 ADD JUMPDEST SUB SWAP3 GAS CALL DUP1 ISZERO PUSH2 0x1135 JUMPI PUSH2 0x1120 JUMPI JUMPDEST POP POP PUSH2 0x6DA SWAP1 PUSH1 0x40 MLOAD SWAP4 DUP5 SWAP4 DUP5 PUSH2 0x39D9 JUMP JUMPDEST PUSH2 0x112B DUP3 DUP1 SWAP3 PUSH2 0x3A31 JUMP JUMPDEST PUSH2 0x584 JUMPI DUP1 PUSH2 0x110E JUMP JUMPDEST PUSH1 0x40 MLOAD RETURNDATASIZE DUP5 DUP3 RETURNDATACOPY RETURNDATASIZE SWAP1 REVERT JUMPDEST DUP4 DUP1 REVERT JUMPDEST SWAP4 POP SWAP4 SWAP6 PUSH2 0x1156 SWAP3 SWAP6 POP DUP4 SWAP2 POP PUSH2 0x3A31 JUMP JUMPDEST PUSH2 0x1166 JUMPI DUP10 DUP10 SWAP3 DUP7 DUP6 SWAP4 DUP12 PUSH2 0x10BE JUMP JUMPDEST DUP8 DUP1 REVERT JUMPDEST PUSH1 0x40 MLOAD RETURNDATASIZE DUP12 DUP3 RETURNDATACOPY RETURNDATASIZE SWAP1 REVERT JUMPDEST DUP9 DUP1 REVERT JUMPDEST PUSH1 0x44 SWAP1 DUP13 PUSH1 0x40 MLOAD SWAP2 PUSH4 0x54CDE313 PUSH1 0xE0 SHL DUP4 MSTORE PUSH1 0x4 DUP4 ADD MSTORE PUSH1 0x24 DUP3 ADD MSTORE REVERT JUMPDEST PUSH1 0x44 SWAP3 POP PUSH1 0x40 MLOAD SWAP2 PUSH4 0xA5DB715D PUSH1 0xE0 SHL DUP4 MSTORE PUSH1 0x4 DUP4 ADD MSTORE PUSH1 0x24 DUP3 ADD MSTORE REVERT JUMPDEST PUSH1 0x20 DUP2 RETURNDATASIZE DUP3 GT PUSH2 0x11E9 JUMPI JUMPDEST DUP2 PUSH2 0x11CD PUSH1 0x20 SWAP4 DUP4 PUSH2 0x3A31 JUMP JUMPDEST DUP2 ADD SUB SLT PUSH2 0x11E5 JUMPI PUSH2 0x11DE SWAP1 PUSH2 0x4305 JUMP JUMPDEST POP CODESIZE PUSH2 0xFB0 JUMP JUMPDEST DUP7 DUP1 REVERT JUMPDEST RETURNDATASIZE SWAP2 POP PUSH2 0x11C0 JUMP JUMPDEST PUSH1 0x40 MLOAD RETURNDATASIZE DUP10 DUP3 RETURNDATACOPY RETURNDATASIZE SWAP1 REVERT JUMPDEST POP CALLVALUE PUSH2 0x584 JUMPI DUP1 PUSH1 0x3 NOT CALLDATASIZE ADD SLT PUSH2 0x584 JUMPI PUSH1 0x20 PUSH2 0x13D SLOAD PUSH1 0x40 MLOAD SWAP1 DUP2 MSTORE RETURN JUMPDEST POP CALLVALUE PUSH2 0x584 JUMPI DUP1 PUSH1 0x3 NOT CALLDATASIZE ADD SLT PUSH2 0x584 JUMPI PUSH1 0x20 PUSH2 0x18F SLOAD NUMBER LT ISZERO PUSH1 0x40 MLOAD SWAP1 DUP2 MSTORE RETURN JUMPDEST POP CALLVALUE PUSH2 0x584 JUMPI DUP1 PUSH1 0x3 NOT CALLDATASIZE ADD SLT PUSH2 0x584 JUMPI PUSH1 0xCA SLOAD PUSH1 0x40 MLOAD PUSH1 0x10 SWAP2 SWAP1 SWAP2 SHR PUSH1 0x1 PUSH1 0x1 PUSH1 0xA0 SHL SUB AND DUP2 MSTORE PUSH1 0x20 SWAP1 RETURN JUMPDEST POP CALLVALUE PUSH2 0x584 JUMPI PUSH1 0x20 CALLDATASIZE PUSH1 0x3 NOT ADD SLT PUSH2 0x584 JUMPI PUSH1 0x4 CALLDATALOAD PUSH1 0x1 PUSH1 0x1 PUSH1 0xA0 SHL SUB DUP2 AND SWAP1 DUP2 SWAP1 SUB PUSH2 0x771 JUMPI PUSH1 0x40 DUP3 DUP2 SWAP3 DUP2 MSTORE PUSH2 0x136 PUSH1 0x20 MSTORE KECCAK256 PUSH1 0xFF PUSH1 0x1 DUP3 SLOAD SWAP3 ADD SLOAD AND DUP3 MLOAD SWAP2 DUP3 MSTORE ISZERO ISZERO PUSH1 0x20 DUP3 ADD MSTORE RETURN JUMPDEST POP CALLVALUE PUSH2 0x584 JUMPI DUP1 PUSH1 0x3 NOT CALLDATASIZE ADD SLT PUSH2 0x584 JUMPI PUSH1 0x20 PUSH2 0x12DE PUSH2 0x12D8 PUSH2 0xA99 PUSH2 0x439E JUMP JUMPDEST SWAP1 PUSH2 0x413F JUMP JUMPDEST PUSH2 0x14A SLOAD LT ISZERO PUSH1 0x40 MLOAD SWAP1 DUP2 MSTORE RETURN JUMPDEST POP CALLVALUE PUSH2 0x584 JUMPI DUP1 PUSH1 0x3 NOT CALLDATASIZE ADD SLT PUSH2 0x584 JUMPI PUSH2 0x146 SLOAD PUSH1 0x40 MLOAD PUSH1 0x1 PUSH1 0x1 PUSH1 0xA0 SHL SUB SWAP1 SWAP2 AND DUP2 MSTORE PUSH1 0x20 SWAP1 RETURN JUMPDEST POP CALLVALUE PUSH2 0x584 JUMPI DUP1 PUSH1 0x3 NOT CALLDATASIZE ADD SLT PUSH2 0x584 JUMPI PUSH1 0x20 PUSH2 0x1334 PUSH2 0xA99 PUSH2 0x439E JUMP JUMPDEST POP PUSH1 0x40 MLOAD SWAP1 DUP2 MSTORE RETURN JUMPDEST POP CALLVALUE PUSH2 0x584 JUMPI DUP1 PUSH1 0x3 NOT CALLDATASIZE ADD SLT PUSH2 0x584 JUMPI PUSH2 0x158 SLOAD PUSH1 0x40 MLOAD PUSH1 0x1 PUSH1 0x1 PUSH1 0xA0 SHL SUB SWAP1 SWAP2 AND DUP2 MSTORE PUSH1 0x20 SWAP1 RETURN JUMPDEST POP CALLVALUE PUSH2 0x584 JUMPI DUP1 PUSH1 0x3 NOT CALLDATASIZE ADD SLT PUSH2 0x584 JUMPI PUSH1 0x20 PUSH2 0x14A SLOAD PUSH1 0x40 MLOAD SWAP1 DUP2 MSTORE RETURN JUMPDEST POP CALLVALUE PUSH2 0x584 JUMPI PUSH1 0x20 CALLDATASIZE PUSH1 0x3 NOT ADD SLT PUSH2 0x584 JUMPI PUSH1 0x4 CALLDATALOAD PUSH1 0x1 PUSH1 0x1 PUSH1 0xA0 SHL SUB DUP2 AND SWAP1 DUP2 SWAP1 SUB PUSH2 0x771 JUMPI PUSH2 0x13B5 PUSH2 0x4A9F JUMP JUMPDEST PUSH2 0x153 DUP1 SLOAD PUSH1 0x1 PUSH1 0x1 PUSH1 0xA0 SHL SUB NOT AND SWAP1 SWAP2 OR SWAP1 SSTORE DUP1 RETURN JUMPDEST POP CALLVALUE PUSH2 0x584 JUMPI DUP1 PUSH1 0x3 NOT CALLDATASIZE ADD SLT PUSH2 0x584 JUMPI PUSH2 0x13E5 PUSH2 0x4B2D JUMP JUMPDEST PUSH1 0xCA SLOAD PUSH1 0x10 DUP2 SWAP1 SHR PUSH1 0x1 PUSH1 0x1 PUSH1 0xA0 SHL SUB AND CALLER SUB PUSH2 0x1451 JUMPI PUSH1 0xFF DUP2 AND ISZERO PUSH2 0x143F JUMPI PUSH2 0x100 SWAP1 PUSH2 0xFF00 NOT AND OR PUSH1 0xCA SSTORE PUSH32 0x62E78CEA01BEE320CD4E420270B5EA74000D11B0C9F74754EBDBFC544B05A258 PUSH1 0x20 PUSH1 0x40 MLOAD CALLER DUP2 MSTORE LOG1 DUP1 RETURN JUMPDEST PUSH1 0x40 MLOAD PUSH4 0x866099C3 PUSH1 0xE0 SHL DUP2 MSTORE PUSH1 0x4 SWAP1 REVERT JUMPDEST PUSH1 0x40 MLOAD PUSH4 0x1D77D477 PUSH1 0xE2 SHL DUP2 MSTORE PUSH1 0x4 SWAP1 REVERT JUMPDEST POP CALLVALUE PUSH2 0x584 JUMPI DUP1 PUSH1 0x3 NOT CALLDATASIZE ADD SLT PUSH2 0x584 JUMPI PUSH1 0x20 PUSH2 0x7FB PUSH2 0x12D8 PUSH2 0xA99 PUSH2 0x439E JUMP JUMPDEST POP CALLVALUE PUSH2 0x584 JUMPI DUP1 PUSH1 0x3 NOT CALLDATASIZE ADD SLT PUSH2 0x584 JUMPI PUSH1 0x20 PUSH2 0x15A SLOAD PUSH1 0x40 MLOAD SWAP1 DUP2 MSTORE RETURN JUMPDEST POP CALLVALUE PUSH2 0x584 JUMPI DUP1 PUSH1 0x3 NOT CALLDATASIZE ADD SLT PUSH2 0x584 JUMPI PUSH1 0x20 PUSH2 0x7FB PUSH2 0x14C3 PUSH1 0x1 PUSH2 0x43D8 JUMP JUMPDEST PUSH2 0xBC0 PUSH2 0x14D0 DUP3 DUP5 PUSH2 0x4018 JUMP JUMPDEST SWAP2 DUP4 PUSH2 0x40CE JUMP JUMPDEST POP CALLVALUE PUSH2 0x584 JUMPI DUP1 PUSH1 0x3 NOT CALLDATASIZE ADD SLT PUSH2 0x584 JUMPI PUSH2 0x1C3 SLOAD PUSH1 0x40 MLOAD PUSH1 0x1 PUSH1 0x1 PUSH1 0xA0 SHL SUB SWAP1 SWAP2 AND DUP2 MSTORE PUSH1 0x20 SWAP1 RETURN JUMPDEST POP CALLVALUE PUSH2 0x584 JUMPI PUSH1 0x20 CALLDATASIZE PUSH1 0x3 NOT ADD SLT PUSH2 0x584 JUMPI PUSH1 0x4 CALLDATALOAD SWAP1 PUSH2 0x148 SWAP1 DUP2 SLOAD DUP4 LT ISZERO PUSH2 0x584 JUMPI PUSH1 0x20 PUSH2 0x1530 DUP5 DUP5 PUSH2 0x38E0 JUMP JUMPDEST SWAP1 SLOAD PUSH1 0x40 MLOAD SWAP2 PUSH1 0x3 SHL SHR DUP2 MSTORE RETURN JUMPDEST POP CALLVALUE PUSH2 0x584 JUMPI PUSH1 0x20 CALLDATASIZE PUSH1 0x3 NOT ADD SLT PUSH2 0x584 JUMPI PUSH2 0x1558 PUSH2 0x4A9F JUMP JUMPDEST PUSH1 0x4 CALLDATALOAD PUSH2 0x149 SSTORE DUP1 RETURN JUMPDEST POP CALLVALUE PUSH2 0x584 JUMPI PUSH1 0x20 CALLDATASIZE PUSH1 0x3 NOT ADD SLT PUSH2 0x584 JUMPI PUSH2 0x157C PUSH2 0x4A9F JUMP JUMPDEST PUSH1 0x4 CALLDATALOAD PUSH2 0x140 SSTORE DUP1 RETURN JUMPDEST POP CALLVALUE PUSH2 0x584 JUMPI DUP1 PUSH1 0x3 NOT CALLDATASIZE ADD SLT PUSH2 0x584 JUMPI PUSH1 0x20 PUSH2 0x190 SLOAD PUSH1 0x40 MLOAD SWAP1 DUP2 MSTORE RETURN JUMPDEST POP CALLVALUE PUSH2 0x584 JUMPI PUSH1 0x20 CALLDATASIZE PUSH1 0x3 NOT ADD SLT PUSH2 0x584 JUMPI PUSH2 0x15BF PUSH2 0x4A9F JUMP JUMPDEST PUSH1 0x4 CALLDATALOAD PUSH2 0x141 SSTORE DUP1 RETURN JUMPDEST POP CALLVALUE PUSH2 0x584 JUMPI DUP1 PUSH1 0x3 NOT CALLDATASIZE ADD SLT PUSH2 0x584 JUMPI PUSH1 0x20 PUSH2 0x134 SLOAD PUSH1 0x40 MLOAD SWAP1 DUP2 MSTORE RETURN JUMPDEST POP CALLVALUE PUSH2 0x584 JUMPI DUP1 PUSH1 0x3 NOT CALLDATASIZE ADD SLT PUSH2 0x584 JUMPI PUSH1 0x20 PUSH2 0x142 SLOAD PUSH1 0x40 MLOAD SWAP1 DUP2 MSTORE RETURN JUMPDEST POP PUSH2 0x1613 CALLDATASIZE PUSH1 0x4 PUSH2 0x3922 JUMP JUMPDEST SWAP2 PUSH2 0x1621 SWAP7 SWAP5 SWAP6 SWAP4 SWAP7 PUSH2 0x4D59 JUMP JUMPDEST POP PUSH2 0x229 SLOAD PUSH2 0x163E SWAP1 DUP3 SWAP1 ADDRESS SWAP1 CALLER SWAP1 PUSH1 0x1 PUSH1 0x1 PUSH1 0xA0 SHL SUB AND PUSH2 0x4D80 JUMP JUMPDEST PUSH2 0x164B DUP2 PUSH2 0x14E SLOAD PUSH2 0x3F67 JUMP JUMPDEST PUSH2 0x14E SSTORE PUSH1 0x40 MLOAD SWAP4 PUSH2 0x165E PUSH1 0xE0 DUP7 PUSH2 0x3A31 JUMP JUMPDEST PUSH1 0x1 PUSH1 0x1 PUSH1 0xA0 SHL SUB SWAP1 DUP2 AND DUP6 MSTORE PUSH1 0x20 DUP1 DUP7 ADD DUP9 SWAP1 MSTORE PUSH1 0x40 DUP1 DUP8 ADD SWAP10 SWAP1 SWAP10 MSTORE PUSH1 0x60 DUP7 ADD SWAP3 SWAP1 SWAP3 MSTORE CALLER PUSH1 0x80 DUP7 ADD MSTORE SWAP2 DUP3 AND PUSH1 0xA0 DUP6 ADD MSTORE SWAP2 DUP2 AND PUSH1 0xC0 DUP5 ADD MSTORE PUSH2 0x133 SLOAD SWAP6 MLOAD PUSH4 0x40C10F19 PUSH1 0xE0 SHL DUP2 MSTORE ADDRESS PUSH1 0x4 DUP3 ADD MSTORE PUSH1 0x24 DUP2 ADD DUP7 SWAP1 MSTORE SWAP2 SWAP6 DUP7 SWAP2 DUP4 SWAP2 PUSH1 0x44 SWAP2 DUP4 SWAP2 DUP9 SWAP2 AND GAS CALL DUP1 ISZERO PUSH2 0x1833 JUMPI PUSH2 0x17F7 JUMPI JUMPDEST POP PUSH2 0x1730 PUSH2 0x177F SWAP5 PUSH2 0x16E2 PUSH2 0x4D59 JUMP JUMPDEST POP PUSH2 0x16EB PUSH2 0x4DC4 JUMP JUMPDEST PUSH2 0x16F3 PUSH2 0x4B2D JUMP JUMPDEST PUSH1 0x40 MLOAD PUSH4 0xD9B6C2E5 PUSH1 0xE0 SHL DUP3 DUP3 ADD MSTORE PUSH2 0x1723 SWAP1 PUSH2 0x1713 PUSH1 0x24 DUP3 ADD DUP7 PUSH2 0x5291 JUMP JUMPDEST PUSH1 0xE4 DUP2 MSTORE PUSH2 0x8B3 PUSH2 0x104 DUP3 PUSH2 0x3A31 JUMP JUMPDEST DUP1 MLOAD DUP2 ADD DUP3 ADD SWAP2 ADD PUSH2 0x5236 JUMP JUMPDEST DUP5 PUSH2 0x1749 PUSH1 0x60 DUP4 SWAP9 SWAP7 SWAP10 SWAP6 SWAP11 SWAP5 SWAP8 ADD MLOAD PUSH2 0x14E SLOAD PUSH2 0x415D JUMP JUMPDEST PUSH2 0x14E SSTORE PUSH1 0x1 DUP1 PUSH1 0xA0 SHL SUB PUSH1 0x80 DUP3 ADD MLOAD AND SWAP1 PUSH2 0x1769 DUP10 PUSH1 0x60 DUP4 ADD MLOAD PUSH2 0x415D JUMP JUMPDEST PUSH1 0xC0 SWAP1 SWAP2 ADD MLOAD PUSH1 0x1 PUSH1 0x1 PUSH1 0xA0 SHL SUB AND SWAP2 DUP1 PUSH2 0x50AB JUMP JUMPDEST PUSH2 0x133 SLOAD PUSH1 0x1 PUSH1 0x1 PUSH1 0xA0 SHL SUB AND SWAP1 DUP2 EXTCODESIZE ISZERO PUSH2 0x17F3 JUMPI PUSH1 0x40 MLOAD PUSH4 0x2770A7EB PUSH1 0xE2 SHL DUP2 MSTORE CALLER PUSH1 0x4 DUP3 ADD MSTORE PUSH1 0x24 DUP2 ADD SWAP2 SWAP1 SWAP2 MSTORE SWAP1 DUP3 SWAP1 DUP3 SWAP1 DUP2 DUP4 DUP2 PUSH1 0x44 DUP2 ADD JUMPDEST SUB SWAP3 GAS CALL DUP1 ISZERO PUSH2 0x1135 JUMPI PUSH2 0x17DE JUMPI JUMPDEST POP POP SWAP1 PUSH2 0x6DA SWAP2 PUSH1 0x40 MLOAD SWAP5 DUP6 SWAP5 DUP6 PUSH2 0x3965 JUMP JUMPDEST PUSH2 0x17E9 DUP3 DUP1 SWAP3 PUSH2 0x3A31 JUMP JUMPDEST PUSH2 0x584 JUMPI DUP1 PUSH2 0x17CB JUMP JUMPDEST DUP3 DUP1 REVERT JUMPDEST DUP5 DUP2 DUP2 RETURNDATASIZE DUP4 GT PUSH2 0x182C JUMPI JUMPDEST PUSH2 0x180C DUP2 DUP4 PUSH2 0x3A31 JUMP JUMPDEST DUP2 ADD SUB SLT PUSH2 0x17F3 JUMPI PUSH2 0x177F SWAP5 PUSH2 0x1824 PUSH2 0x1730 SWAP3 PUSH2 0x4305 JUMP JUMPDEST POP SWAP5 POP PUSH2 0x16D2 JUMP JUMPDEST POP RETURNDATASIZE PUSH2 0x1802 JUMP JUMPDEST PUSH1 0x40 MLOAD RETURNDATASIZE DUP6 DUP3 RETURNDATACOPY RETURNDATASIZE SWAP1 REVERT JUMPDEST POP CALLVALUE PUSH2 0x584 JUMPI PUSH1 0x20 CALLDATASIZE PUSH1 0x3 NOT ADD SLT PUSH2 0x584 JUMPI PUSH2 0x1858 PUSH2 0x4A9F JUMP JUMPDEST PUSH1 0x4 CALLDATALOAD PUSH2 0x13B SSTORE DUP1 RETURN JUMPDEST POP CALLVALUE PUSH2 0x584 JUMPI DUP1 PUSH1 0x3 NOT CALLDATASIZE ADD SLT PUSH2 0x584 JUMPI PUSH1 0x20 PUSH2 0x156 SLOAD PUSH1 0x40 MLOAD SWAP1 DUP2 MSTORE RETURN JUMPDEST POP CALLVALUE PUSH2 0x584 JUMPI DUP1 PUSH1 0x3 NOT CALLDATASIZE ADD SLT PUSH2 0x584 JUMPI PUSH1 0x20 PUSH2 0x139 SLOAD PUSH1 0x40 MLOAD SWAP1 DUP2 MSTORE RETURN JUMPDEST POP CALLVALUE PUSH2 0x584 JUMPI PUSH1 0x20 CALLDATASIZE PUSH1 0x3 NOT ADD SLT PUSH2 0x584 JUMPI PUSH2 0x18BA PUSH2 0x4A9F JUMP JUMPDEST PUSH1 0x4 CALLDATALOAD PUSH2 0x154 SSTORE DUP1 RETURN JUMPDEST POP CALLVALUE PUSH2 0x584 JUMPI PUSH1 0x20 CALLDATASIZE PUSH1 0x3 NOT ADD SLT PUSH2 0x584 JUMPI PUSH1 0x4 CALLDATALOAD PUSH1 0x1 PUSH1 0x1 PUSH1 0xA0 SHL SUB DUP2 AND SWAP1 DUP2 SWAP1 SUB PUSH2 0x771 JUMPI PUSH2 0x18F3 PUSH2 0x4A9F JUMP JUMPDEST PUSH2 0x158 DUP1 SLOAD PUSH1 0x1 PUSH1 0x1 PUSH1 0xA0 SHL SUB NOT AND SWAP1 SWAP2 OR SWAP1 SSTORE DUP1 RETURN JUMPDEST POP CALLVALUE PUSH2 0x584 JUMPI PUSH1 0x20 CALLDATASIZE PUSH1 0x3 NOT ADD SLT PUSH2 0x584 JUMPI PUSH2 0x1924 PUSH2 0x4A9F JUMP JUMPDEST PUSH1 0x4 CALLDATALOAD PUSH2 0x13E SSTORE DUP1 RETURN JUMPDEST POP CALLVALUE PUSH2 0x584 JUMPI DUP1 PUSH1 0x3 NOT CALLDATASIZE ADD SLT PUSH2 0x584 JUMPI PUSH1 0x20 PUSH2 0x154 SLOAD PUSH1 0x40 MLOAD SWAP1 DUP2 MSTORE RETURN JUMPDEST POP CALLVALUE PUSH2 0x584 JUMPI DUP1 PUSH1 0x3 NOT CALLDATASIZE ADD SLT PUSH2 0x584 JUMPI PUSH1 0x20 PUSH2 0x149 SLOAD PUSH1 0x40 MLOAD SWAP1 DUP2 MSTORE RETURN JUMPDEST POP CALLVALUE PUSH2 0x584 JUMPI DUP1 PUSH1 0x3 NOT CALLDATASIZE ADD SLT PUSH2 0x584 JUMPI PUSH2 0x1985 PUSH2 0x4A9F JUMP JUMPDEST PUSH1 0x1 PUSH1 0xFF NOT PUSH1 0xCA SLOAD AND OR PUSH1 0xCA SSTORE DUP1 RETURN JUMPDEST POP CALLVALUE PUSH2 0x584 JUMPI DUP1 PUSH1 0x3 NOT CALLDATASIZE ADD SLT PUSH2 0x584 JUMPI PUSH1 0x20 PUSH2 0x1334 PUSH2 0x4948 JUMP JUMPDEST POP CALLVALUE PUSH2 0x584 JUMPI PUSH1 0x20 CALLDATASIZE PUSH1 0x3 NOT ADD SLT PUSH2 0x584 JUMPI PUSH2 0x19CA PUSH2 0x4A9F JUMP JUMPDEST PUSH1 0x4 CALLDATALOAD PUSH2 0x159 SSTORE DUP1 RETURN JUMPDEST POP CALLVALUE PUSH2 0x584 JUMPI DUP1 PUSH1 0x3 NOT CALLDATASIZE ADD SLT PUSH2 0x584 JUMPI PUSH2 0x12F SLOAD PUSH1 0x40 MLOAD PUSH1 0x1 PUSH1 0x1 PUSH1 0xA0 SHL SUB SWAP1 SWAP2 AND DUP2 MSTORE PUSH1 0x20 SWAP1 RETURN JUMPDEST PUSH2 0x1AE1 DUP3 PUSH2 0x1A0D CALLDATASIZE PUSH1 0x4 PUSH2 0x3A85 JUMP JUMPDEST SWAP1 SWAP4 PUSH2 0x1A17 PUSH2 0x4D59 JUMP JUMPDEST POP PUSH2 0x229 SLOAD PUSH1 0x1 PUSH1 0x1 PUSH1 0xA0 SHL SUB SWAP2 SWAP1 PUSH2 0x1A37 SWAP1 DUP6 SWAP1 ADDRESS SWAP1 CALLER SWAP1 DUP7 AND PUSH2 0x4D80 JUMP JUMPDEST PUSH2 0x14E PUSH2 0x1A45 DUP6 DUP3 SLOAD PUSH2 0x3F67 JUMP JUMPDEST DUP2 SSTORE PUSH1 0x40 MLOAD SWAP6 PUSH2 0x1A56 PUSH1 0xA0 DUP9 PUSH2 0x3A31 JUMP JUMPDEST DUP7 MSTORE PUSH1 0x20 DUP7 ADD SWAP5 DUP6 MSTORE PUSH1 0x40 DUP7 ADD SWAP2 CALLER DUP4 MSTORE DUP4 PUSH1 0x60 DUP9 ADD SWAP9 AND DUP9 MSTORE DUP4 PUSH1 0x80 DUP9 ADD SWAP6 AND DUP6 MSTORE PUSH2 0x1A81 PUSH2 0x4D59 JUMP JUMPDEST POP PUSH2 0x1A8A PUSH2 0x4DC4 JUMP JUMPDEST PUSH2 0x1A92 PUSH2 0x4B2D JUMP JUMPDEST PUSH8 0xDE0B6B3A7640000 PUSH2 0x1ABE PUSH2 0x1016 PUSH2 0x1AB5 PUSH2 0x1AAC PUSH2 0x439E JUMP JUMPDEST PUSH2 0x149 SLOAD PUSH2 0x4DE6 JUMP JUMPDEST DUP12 MLOAD SWAP3 SWAP2 PUSH2 0x4714 JUMP JUMPDEST DIV SWAP1 PUSH2 0x1AD6 DUP6 DUP6 MLOAD AND DUP4 DUP8 DUP10 MLOAD AND PUSH2 0x13C SLOAD SWAP3 PUSH2 0x4E29 JUMP JUMPDEST SWAP10 SWAP2 DUP5 SWAP13 SWAP2 SWAP13 PUSH2 0x3F67 JUMP JUMPDEST SWAP10 DUP9 MLOAD DUP1 DUP13 GT PUSH2 0x1BF6 JUMPI POP DUP11 ISZERO PUSH2 0xD53 JUMPI PUSH2 0x1B5B SWAP4 DUP8 PUSH1 0x20 SWAP4 MLOAD SWAP3 MLOAD AND SWAP1 PUSH2 0x134 PUSH2 0x1B0D DUP5 DUP3 SLOAD PUSH2 0x3F67 JUMP JUMPDEST SWAP1 SSTORE PUSH2 0x1B1D PUSH2 0x131 SWAP2 DUP3 SLOAD PUSH2 0x3F67 JUMP JUMPDEST SWAP1 SSTORE PUSH2 0x133 SLOAD PUSH1 0x40 MLOAD PUSH4 0x40C10F19 PUSH1 0xE0 SHL DUP2 MSTORE PUSH1 0x1 PUSH1 0x1 PUSH1 0xA0 SHL SUB SWAP1 SWAP3 AND PUSH1 0x4 DUP4 ADD MSTORE PUSH1 0x24 DUP3 ADD SWAP3 SWAP1 SWAP3 MSTORE SWAP4 DUP5 SWAP2 DUP9 AND SWAP1 DUP3 SWAP1 DUP6 SWAP1 DUP3 SWAP1 PUSH1 0x44 DUP3 ADD SWAP1 JUMP JUMPDEST SUB SWAP3 GAS CALL DUP1 ISZERO PUSH2 0x1BE9 JUMPI SWAP1 DUP10 SWAP5 SWAP4 SWAP3 SWAP2 PUSH2 0x1B90 JUMPI JUMPDEST DUP11 DUP6 PUSH2 0x6DA DUP12 PUSH2 0xD47 DUP2 DUP14 DUP14 DUP14 PUSH2 0x6C4 DUP9 DUP3 DUP16 DUP16 PUSH2 0x6B9 DUP9 MLOAD DUP3 SLOAD PUSH2 0x415D JUMP JUMPDEST SWAP1 SWAP2 SWAP3 SWAP4 POP PUSH1 0x20 DUP3 RETURNDATASIZE DUP3 GT PUSH2 0x1BE1 JUMPI JUMPDEST DUP2 PUSH2 0x1BAD PUSH1 0x20 SWAP4 DUP4 PUSH2 0x3A31 JUMP JUMPDEST DUP2 ADD SUB SLT PUSH2 0x584 JUMPI POP SWAP3 PUSH2 0x6C4 DUP9 DUP3 DUP10 SWAP9 SWAP6 PUSH2 0xD47 SWAP9 SWAP6 PUSH2 0x1BD1 PUSH2 0x6DA SWAP13 SWAP10 PUSH2 0x4305 JUMP JUMPDEST POP SWAP5 POP SWAP5 SWAP8 POP SWAP6 POP SWAP4 SWAP7 SWAP8 PUSH2 0x1B70 JUMP JUMPDEST RETURNDATASIZE SWAP2 POP PUSH2 0x1BA0 JUMP JUMPDEST POP PUSH1 0x40 MLOAD SWAP1 RETURNDATASIZE SWAP1 DUP3 RETURNDATACOPY RETURNDATASIZE SWAP1 REVERT JUMPDEST PUSH1 0x44 SWAP1 DUP13 PUSH1 0x40 MLOAD SWAP2 PUSH4 0xB63F1A7 PUSH1 0xE0 SHL DUP4 MSTORE PUSH1 0x4 DUP4 ADD MSTORE PUSH1 0x24 DUP3 ADD MSTORE REVERT JUMPDEST POP CALLVALUE PUSH2 0x584 JUMPI PUSH2 0x400 CALLDATASIZE PUSH1 0x3 NOT ADD SLT PUSH2 0x584 JUMPI DUP1 SLOAD PUSH1 0xFF DUP2 PUSH1 0x8 SHR AND ISZERO SWAP1 DUP2 DUP1 SWAP3 PUSH2 0x2066 JUMPI JUMPDEST DUP1 ISZERO PUSH2 0x204F JUMPI JUMPDEST ISZERO PUSH2 0x1FF3 JUMPI PUSH1 0xFF NOT DUP2 AND PUSH1 0x1 OR DUP4 SSTORE DUP2 PUSH2 0x1FE2 JUMPI JUMPDEST POP PUSH2 0x3E4 CALLDATALOAD PUSH1 0x1 PUSH1 0x1 PUSH1 0xA0 SHL SUB DUP2 DUP2 AND SWAP2 DUP3 SWAP1 SUB PUSH2 0x771 JUMPI PUSH2 0x229 DUP1 SLOAD PUSH1 0x1 PUSH1 0x1 PUSH1 0xA0 SHL SUB NOT SWAP1 DUP2 AND SWAP1 SWAP4 OR SWAP1 SSTORE DUP4 SLOAD PUSH1 0x8 SHR PUSH1 0xFF AND SWAP2 PUSH2 0x1C96 DUP4 PUSH2 0x4B4E JUMP JUMPDEST PUSH2 0x384 CALLDATALOAD DUP3 DUP2 AND DUP1 SWAP2 SUB PUSH2 0x771 JUMPI PUSH2 0x1F6 SWAP1 DUP3 DUP3 SLOAD AND OR SWAP1 SSTORE PUSH2 0x344 CALLDATALOAD DUP3 DUP2 AND DUP1 SWAP2 SUB PUSH2 0x771 JUMPI PUSH2 0x364 CALLDATALOAD DUP4 DUP2 AND DUP2 SUB PUSH2 0x771 JUMPI PUSH1 0x1 SWAP2 PUSH2 0x1CD6 DUP7 PUSH2 0x4B4E JUMP JUMPDEST PUSH2 0x1CDF DUP7 PUSH2 0x4B4E JUMP JUMPDEST PUSH2 0x1CE8 DUP7 PUSH2 0x4B4E JUMP JUMPDEST PUSH2 0x1CF1 DUP7 PUSH2 0x4B4E JUMP JUMPDEST DUP4 PUSH1 0x97 SLOAD AND OR PUSH1 0x97 SSTORE PUSH2 0x1D03 DUP6 PUSH2 0x4B4E JUMP JUMPDEST PUSH1 0xCA SLOAD SWAP1 PUSH3 0x10000 DUP4 PUSH1 0xB0 SHL SUB SWAP1 PUSH1 0x10 SHL AND SWAP1 PUSH2 0xFF01 DUP4 PUSH1 0xB0 SHL SUB NOT AND OR OR PUSH1 0xCA SSTORE PUSH2 0x1D2E DUP4 PUSH2 0x4B4E JUMP JUMPDEST PUSH1 0xC4 CALLDATALOAD PUSH8 0xDE0B6B3A7640000 DUP2 GT ISZERO PUSH2 0x1FCA JUMPI PUSH2 0x104 CALLDATALOAD PUSH2 0x1D4E DUP2 PUSH2 0x5305 JUMP JUMPDEST PUSH2 0x124 CALLDATALOAD PUSH2 0x1D5B DUP2 PUSH2 0x5305 JUMP JUMPDEST PUSH2 0x144 CALLDATALOAD PUSH2 0x1D68 DUP2 PUSH2 0x5305 JUMP JUMPDEST PUSH2 0x164 CALLDATALOAD PUSH2 0x1D75 DUP2 PUSH2 0x5305 JUMP JUMPDEST PUSH2 0x184 CALLDATALOAD PUSH2 0x1D82 DUP2 PUSH2 0x5305 JUMP JUMPDEST PUSH2 0x1A4 CALLDATALOAD SWAP1 PUSH2 0x1D90 DUP3 PUSH2 0x5305 JUMP JUMPDEST PUSH2 0x1C4 CALLDATALOAD SWAP3 PUSH2 0x1D9E DUP5 PUSH2 0x5305 JUMP JUMPDEST PUSH2 0x1E4 CALLDATALOAD SWAP5 PUSH2 0x1DAC DUP7 PUSH2 0x5305 JUMP JUMPDEST PUSH2 0x204 CALLDATALOAD SWAP7 PUSH2 0x1DBA DUP9 PUSH2 0x5305 JUMP JUMPDEST PUSH2 0x224 CALLDATALOAD SWAP9 PUSH2 0x244 CALLDATALOAD SWAP11 PUSH2 0x1DD6 PUSH2 0x1DD1 DUP14 DUP14 PUSH2 0x3F67 JUMP JUMPDEST PUSH2 0x5305 JUMP JUMPDEST DUP14 PUSH1 0x4 CALLDATALOAD SWAP1 DUP2 AND DUP1 SWAP2 SUB PUSH2 0x1FDC JUMPI DUP14 SWAP1 PUSH2 0x14F SWAP2 DUP3 SLOAD AND OR SWAP1 SSTORE DUP14 PUSH1 0x24 CALLDATALOAD SWAP1 DUP2 AND DUP1 SWAP2 SUB PUSH2 0x771 JUMPI DUP14 SWAP1 PUSH2 0x12F SWAP2 DUP3 SLOAD AND OR SWAP1 SSTORE DUP14 PUSH1 0x44 CALLDATALOAD SWAP1 DUP2 AND DUP1 SWAP2 SUB PUSH2 0x771 JUMPI DUP14 SWAP1 PUSH2 0x130 SWAP2 DUP3 SLOAD AND OR SWAP1 SSTORE DUP14 PUSH1 0x64 CALLDATALOAD SWAP1 DUP2 AND DUP1 SWAP2 SUB PUSH2 0x771 JUMPI DUP14 SWAP1 PUSH2 0x133 SWAP2 DUP3 SLOAD AND OR SWAP1 SSTORE DUP14 PUSH1 0x84 CALLDATALOAD SWAP1 DUP2 AND DUP1 SWAP2 SUB PUSH2 0x771 JUMPI DUP14 SWAP1 PUSH2 0x146 SWAP2 DUP3 SLOAD AND OR SWAP1 SSTORE DUP14 PUSH1 0xA4 CALLDATALOAD SWAP1 DUP2 AND DUP1 SWAP2 SUB PUSH2 0x771 JUMPI DUP14 SWAP1 PUSH2 0x147 SWAP2 DUP3 SLOAD AND OR SWAP1 SSTORE PUSH2 0x149 SSTORE PUSH1 0xE4 CALLDATALOAD PUSH2 0x14A SSTORE PUSH2 0x13B SSTORE PUSH2 0x13C SSTORE PUSH2 0x13D SSTORE PUSH2 0x13E SSTORE PUSH2 0x13F SSTORE PUSH2 0x140 SSTORE PUSH2 0x141 SSTORE PUSH2 0x142 SSTORE PUSH2 0x143 SSTORE PUSH2 0x139 SSTORE PUSH2 0x13A SSTORE PUSH2 0x264 CALLDATALOAD DUP1 PUSH2 0x14C SSTORE PUSH2 0x284 CALLDATALOAD DUP4 DUP2 AND DUP1 SWAP2 SUB PUSH2 0x771 JUMPI PUSH2 0x158 SWAP1 DUP4 DUP3 SLOAD AND OR SWAP1 SSTORE PUSH2 0x2A4 CALLDATALOAD PUSH2 0x159 SSTORE PUSH2 0x2C4 CALLDATALOAD SWAP2 DUP3 PUSH2 0x15A SSTORE PUSH2 0x2E4 CALLDATALOAD DUP5 DUP2 AND DUP1 SWAP2 SUB PUSH2 0x771 JUMPI PUSH2 0x152 SWAP1 DUP3 DUP3 SLOAD AND OR SWAP1 SSTORE PUSH2 0x304 CALLDATALOAD DUP5 DUP2 AND DUP1 SWAP2 SUB PUSH2 0x771 JUMPI PUSH2 0x153 SWAP2 DUP3 SLOAD AND OR SWAP1 SSTORE PUSH2 0x324 CALLDATALOAD PUSH2 0x154 SSTORE NUMBER PUSH2 0x157 SSTORE NUMBER ADD PUSH2 0x14D SSTORE NUMBER ADD PUSH2 0x15B SSTORE PUSH2 0x14B PUSH2 0xFFFF NOT DUP2 SLOAD AND SWAP1 SSTORE PUSH2 0x3A4 CALLDATALOAD PUSH2 0x1F40 DUP4 PUSH2 0x4B4E JUMP JUMPDEST DUP1 ISZERO PUSH2 0x1FCA JUMPI DUP1 PUSH2 0x190 SSTORE NUMBER ADD PUSH2 0x18F SSTORE PUSH2 0x3C4 CALLDATALOAD SWAP1 DUP2 AND DUP2 SUB PUSH2 0x771 JUMPI PUSH2 0x1F6A PUSH2 0x1F8C SWAP3 PUSH2 0x4B4E JUMP JUMPDEST PUSH2 0x1C3 DUP1 SLOAD PUSH1 0x1 PUSH1 0x1 PUSH1 0xA0 SHL SUB NOT AND PUSH1 0x1 PUSH1 0x1 PUSH1 0xA0 SHL SUB SWAP1 SWAP3 AND SWAP2 SWAP1 SWAP2 OR SWAP1 SSTORE JUMP JUMPDEST PUSH2 0x1F93 JUMPI DUP1 RETURN JUMPDEST PUSH2 0xFF00 NOT DUP2 SLOAD AND DUP2 SSTORE PUSH32 0x7F26B83FF96E1F2B6A682F133852F6798A09C465DA95921460CEFB3847402498 PUSH1 0x20 PUSH1 0x40 MLOAD PUSH1 0x1 DUP2 MSTORE LOG1 DUP1 RETURN JUMPDEST PUSH1 0x40 MLOAD PUSH4 0x2A9FFAB7 PUSH1 0xE2 SHL DUP2 MSTORE PUSH1 0x4 SWAP1 REVERT JUMPDEST POP POP DUP16 DUP1 REVERT JUMPDEST PUSH2 0xFFFF NOT AND PUSH2 0x101 OR DUP3 SSTORE CODESIZE PUSH2 0x1C56 JUMP JUMPDEST PUSH1 0x40 MLOAD PUSH3 0x461BCD PUSH1 0xE5 SHL DUP2 MSTORE PUSH1 0x20 PUSH1 0x4 DUP3 ADD MSTORE PUSH1 0x2E PUSH1 0x24 DUP3 ADD MSTORE PUSH32 0x496E697469616C697A61626C653A20636F6E747261637420697320616C726561 PUSH1 0x44 DUP3 ADD MSTORE PUSH14 0x191E481A5B9A5D1A585B1A5E9959 PUSH1 0x92 SHL PUSH1 0x64 DUP3 ADD MSTORE PUSH1 0x84 SWAP1 REVERT JUMPDEST POP ADDRESS EXTCODESIZE ISZERO DUP1 ISZERO PUSH2 0x1C41 JUMPI POP PUSH1 0x1 PUSH1 0xFF DUP3 AND EQ PUSH2 0x1C41 JUMP JUMPDEST POP PUSH1 0x1 PUSH1 0xFF DUP3 AND LT PUSH2 0x1C3A JUMP JUMPDEST POP CALLVALUE PUSH2 0x584 JUMPI DUP1 PUSH1 0x3 NOT CALLDATASIZE ADD SLT PUSH2 0x584 JUMPI PUSH2 0x133 SLOAD PUSH1 0x40 MLOAD PUSH1 0x1 PUSH1 0x1 PUSH1 0xA0 SHL SUB SWAP1 SWAP2 AND DUP2 MSTORE PUSH1 0x20 SWAP1 RETURN JUMPDEST POP CALLVALUE PUSH2 0x584 JUMPI DUP1 PUSH1 0x3 NOT CALLDATASIZE ADD SLT PUSH2 0x584 JUMPI PUSH1 0x20 PUSH2 0x14E SLOAD PUSH1 0x40 MLOAD SWAP1 DUP2 MSTORE RETURN JUMPDEST POP CALLVALUE PUSH2 0x584 JUMPI DUP1 PUSH1 0x3 NOT CALLDATASIZE ADD SLT PUSH2 0x584 JUMPI PUSH1 0x20 PUSH1 0xFF PUSH1 0xCA SLOAD PUSH1 0x8 SHR AND PUSH1 0x40 MLOAD SWAP1 ISZERO ISZERO DUP2 MSTORE RETURN JUMPDEST POP CALLVALUE PUSH2 0x584 JUMPI DUP1 PUSH1 0x3 NOT CALLDATASIZE ADD SLT PUSH2 0x584 JUMPI PUSH2 0x20FB PUSH2 0x4B2D JUMP JUMPDEST PUSH2 0x14D DUP1 SLOAD NUMBER LT PUSH2 0x22C6 JUMPI PUSH2 0x14C SLOAD NUMBER ADD SWAP1 SSTORE PUSH32 0xD3C59BDA47E141A8EC5A33D241B7F71B86E30D359F83A9227D912858B60404FC DUP2 DUP1 LOG1 DUP1 PUSH2 0x137 SLOAD PUSH2 0x2140 DUP2 PUSH2 0x4182 JUMP JUMPDEST SWAP1 DUP4 JUMPDEST DUP2 DUP2 LT PUSH2 0x2201 JUMPI POP POP DUP2 PUSH2 0x21BA JUMPI JUMPDEST PUSH1 0x40 MLOAD SWAP2 PUSH1 0x40 DUP4 ADD SWAP1 DUP4 MSTORE PUSH1 0x20 SWAP1 PUSH1 0x40 DUP3 DUP6 ADD MSTORE DUP3 MLOAD DUP1 SWAP2 MSTORE DUP2 PUSH1 0x60 DUP6 ADD SWAP4 ADD SWAP2 DUP6 JUMPDEST DUP3 DUP2 LT PUSH2 0x21A6 JUMPI DUP7 PUSH32 0xAE5116A8119D08673A0F1DFA7546B95DA4BD54BB17FEDA7C61130AC7859152F6 DUP8 DUP8 SUB DUP9 LOG1 DUP1 RETURN JUMPDEST DUP4 MLOAD DUP6 MSTORE SWAP4 DUP2 ADD SWAP4 SWAP3 DUP2 ADD SWAP3 PUSH1 0x1 ADD PUSH2 0x2175 JUMP JUMPDEST SWAP1 PUSH2 0x21D2 PUSH8 0xDE0B6B3A7640000 SWAP2 PUSH2 0x139 SLOAD SWAP1 PUSH2 0x409B JUMP JUMPDEST DIV SWAP1 PUSH2 0x131 PUSH2 0x21E2 DUP4 DUP3 SLOAD PUSH2 0x415D JUMP JUMPDEST SWAP1 SSTORE PUSH2 0x146 SLOAD PUSH2 0x21FC SWAP1 DUP4 SWAP1 PUSH1 0x1 PUSH1 0x1 PUSH1 0xA0 SHL SUB AND PUSH2 0x4BAE JUMP JUMPDEST PUSH2 0x2152 JUMP JUMPDEST PUSH2 0x220A DUP2 PUSH2 0x42D6 JUMP JUMPDEST PUSH2 0x2214 DUP2 DUP4 PUSH2 0x465E JUMP JUMPDEST PUSH2 0x150 SWAP1 PUSH2 0x2222 DUP4 DUP4 PUSH2 0x38E0 JUMP JUMPDEST SWAP2 SWAP1 SLOAD PUSH1 0x3 SWAP3 DUP4 SHL SHR SWAP1 DUP9 DUP3 SGT PUSH2 0x2240 JUMPI JUMPDEST POP POP POP POP PUSH1 0x1 ADD PUSH2 0x2143 JUMP JUMPDEST SWAP4 PUSH2 0x2281 DUP3 DUP3 SWAP6 SWAP10 PUSH2 0x226A PUSH2 0x2270 PUSH2 0x2287 SWAP7 PUSH1 0x1 SWAP11 PUSH8 0xDE0B6B3A7640000 SWAP4 DUP5 SWAP2 PUSH2 0x13A SLOAD PUSH2 0x409B JUMP JUMPDEST DIV PUSH2 0x409B JUMP JUMPDEST DIV PUSH2 0x227B DUP6 DUP13 PUSH2 0x3F53 JUMP JUMPDEST MSTORE PUSH2 0x3F67 JUMP JUMPDEST SWAP8 PUSH2 0x38E0 JUMP JUMPDEST DUP2 SWAP3 SWAP2 SLOAD SWAP2 SHL SWAP1 DUP9 DUP3 SHL SWAP2 PUSH1 0x0 NOT SWAP1 SHL NOT AND OR SWAP1 SSTORE PUSH2 0x22BD PUSH2 0x22A9 DUP3 DUP7 PUSH2 0x3F53 JUMP JUMPDEST MLOAD DUP8 DUP5 DUP1 PUSH1 0xA0 SHL SUB PUSH2 0x147 SLOAD AND SWAP2 DUP5 PUSH2 0x459E JUMP JUMPDEST SWAP1 CODESIZE DUP1 DUP1 PUSH2 0x2234 JUMP JUMPDEST PUSH1 0x40 MLOAD PUSH4 0x101B6859 PUSH1 0xE0 SHL DUP2 MSTORE PUSH1 0x4 SWAP1 REVERT JUMPDEST POP CALLVALUE PUSH2 0x584 JUMPI DUP1 PUSH1 0x3 NOT CALLDATASIZE ADD SLT PUSH2 0x584 JUMPI PUSH1 0x20 PUSH2 0x157 SLOAD PUSH1 0x40 MLOAD SWAP1 DUP2 MSTORE RETURN JUMPDEST POP CALLVALUE PUSH2 0x584 JUMPI PUSH1 0x20 CALLDATASIZE PUSH1 0x3 NOT ADD SLT PUSH2 0x584 JUMPI PUSH2 0x2311 PUSH2 0x4A9F JUMP JUMPDEST PUSH1 0x4 CALLDATALOAD PUSH2 0x143 SSTORE DUP1 RETURN JUMPDEST POP CALLVALUE PUSH2 0x584 JUMPI PUSH1 0x20 CALLDATASIZE PUSH1 0x3 NOT ADD SLT PUSH2 0x584 JUMPI PUSH1 0x4 CALLDATALOAD PUSH1 0x1 PUSH1 0x1 PUSH1 0xA0 SHL SUB DUP2 AND DUP2 SUB PUSH2 0x771 JUMPI PUSH2 0xDBA SWAP1 PUSH2 0x1F6A PUSH2 0x4A9F JUMP JUMPDEST POP CALLVALUE PUSH2 0x584 JUMPI DUP1 PUSH1 0x3 NOT CALLDATASIZE ADD SLT PUSH2 0x584 JUMPI PUSH32 0x0 PUSH1 0x1 PUSH1 0x1 PUSH1 0xA0 SHL SUB AND ADDRESS SUB PUSH2 0x23B7 JUMPI PUSH1 0x20 PUSH1 0x40 MLOAD PUSH32 0x360894A13BA1A3210667C828492DB98DCA3E2076CC3735A920A3CA505D382BBC DUP2 MSTORE RETURN JUMPDEST PUSH1 0x40 MLOAD PUSH3 0x461BCD PUSH1 0xE5 SHL DUP2 MSTORE PUSH1 0x20 PUSH1 0x4 DUP3 ADD MSTORE PUSH1 0x38 PUSH1 0x24 DUP3 ADD MSTORE PUSH32 0x555550535570677261646561626C653A206D757374206E6F742062652063616C PUSH1 0x44 DUP3 ADD MSTORE PUSH32 0x6C6564207468726F7567682064656C656761746563616C6C0000000000000000 PUSH1 0x64 DUP3 ADD MSTORE PUSH1 0x84 SWAP1 REVERT JUMPDEST POP CALLVALUE PUSH2 0x584 JUMPI DUP1 PUSH1 0x3 NOT CALLDATASIZE ADD SLT PUSH2 0x584 JUMPI PUSH2 0x243B PUSH2 0x4A9F JUMP JUMPDEST PUSH1 0xFF NOT PUSH1 0xCA SLOAD AND PUSH1 0xCA SSTORE DUP1 RETURN JUMPDEST POP PUSH1 0x40 CALLDATASIZE PUSH1 0x3 NOT ADD SLT PUSH2 0x584 JUMPI PUSH1 0x1 PUSH1 0x1 PUSH1 0xA0 SHL SUB PUSH1 0x4 CALLDATALOAD DUP2 DUP2 AND DUP2 SUB PUSH2 0x771 JUMPI DUP3 SWAP2 PUSH1 0x24 CALLDATALOAD SWAP2 PUSH8 0xFFFFFFFFFFFFFFFF DUP4 GT PUSH2 0x2537 JUMPI CALLDATASIZE PUSH1 0x23 DUP5 ADD SLT ISZERO PUSH2 0x2537 JUMPI DUP3 PUSH1 0x4 ADD CALLDATALOAD PUSH2 0x2497 DUP2 PUSH2 0x3A69 JUMP JUMPDEST SWAP3 PUSH2 0x24A5 PUSH1 0x40 MLOAD SWAP5 DUP6 PUSH2 0x3A31 JUMP JUMPDEST DUP2 DUP5 MSTORE CALLDATASIZE PUSH1 0x24 DUP4 DUP8 ADD ADD GT PUSH2 0x2533 JUMPI PUSH2 0xDBA SWAP6 PUSH1 0x20 DUP4 PUSH2 0x2526 SWAP5 PUSH1 0x24 PUSH1 0x1 SWAP10 ADD DUP4 DUP10 ADD CALLDATACOPY DUP7 ADD ADD MSTORE DUP1 PUSH32 0x0 AND SWAP1 PUSH2 0x24FD DUP3 ADDRESS EQ ISZERO PUSH2 0x3AAB JUMP JUMPDEST PUSH32 0x360894A13BA1A3210667C828492DB98DCA3E2076CC3735A920A3CA505D382BBC SLOAD AND EQ PUSH2 0x3B0C JUMP JUMPDEST PUSH2 0x252E PUSH2 0x4A9F JUMP JUMPDEST PUSH2 0x3B6D JUMP JUMPDEST DUP6 DUP1 REVERT JUMPDEST POP POP POP REVERT JUMPDEST POP CALLVALUE PUSH2 0x584 JUMPI DUP1 PUSH1 0x3 NOT CALLDATASIZE ADD SLT PUSH2 0x584 JUMPI PUSH1 0x20 PUSH2 0x13B SLOAD PUSH1 0x40 MLOAD SWAP1 DUP2 MSTORE RETURN JUMPDEST POP CALLVALUE PUSH2 0x584 JUMPI DUP1 PUSH1 0x3 NOT CALLDATASIZE ADD SLT PUSH2 0x584 JUMPI PUSH2 0x147 SLOAD PUSH1 0x40 MLOAD PUSH1 0x1 PUSH1 0x1 PUSH1 0xA0 SHL SUB SWAP1 SWAP2 AND DUP2 MSTORE PUSH1 0x20 SWAP1 RETURN JUMPDEST POP CALLVALUE PUSH2 0x584 JUMPI DUP1 PUSH1 0x3 NOT CALLDATASIZE ADD SLT PUSH2 0x584 JUMPI PUSH1 0x20 PUSH2 0x14C SLOAD PUSH1 0x40 MLOAD SWAP1 DUP2 MSTORE RETURN JUMPDEST POP CALLVALUE PUSH2 0x584 JUMPI PUSH1 0x20 CALLDATASIZE PUSH1 0x3 NOT ADD SLT PUSH2 0x584 JUMPI PUSH1 0x4 CALLDATALOAD SWAP1 PUSH2 0x137 SWAP1 DUP2 SLOAD DUP4 LT ISZERO PUSH2 0x584 JUMPI PUSH1 0x40 PUSH2 0x25D3 DUP5 DUP5 PUSH2 0x3A15 JUMP JUMPDEST POP DUP1 SLOAD PUSH1 0x1 SWAP1 SWAP2 ADD SLOAD DUP3 MLOAD SWAP2 DUP3 MSTORE PUSH1 0x1 PUSH1 0x1 PUSH1 0xA0 SHL SUB AND PUSH1 0x20 DUP3 ADD MSTORE RETURN JUMPDEST POP CALLVALUE PUSH2 0x584 JUMPI PUSH1 0x40 CALLDATASIZE PUSH1 0x3 NOT ADD SLT PUSH2 0x584 JUMPI PUSH1 0x4 CALLDATALOAD PUSH1 0x1 PUSH1 0x1 PUSH1 0xA0 SHL SUB DUP2 DUP2 AND SWAP2 DUP3 SWAP1 SUB PUSH2 0x771 JUMPI PUSH1 0x24 CALLDATALOAD SWAP2 DUP2 DUP4 AND SWAP2 DUP3 DUP5 SUB PUSH2 0x771 JUMPI PUSH2 0x267D SWAP3 PUSH2 0x2634 PUSH2 0x4B2D JUMP JUMPDEST PUSH2 0x263D ADDRESS PUSH2 0x4CEA JUMP JUMPDEST SWAP1 PUSH1 0x40 MLOAD SWAP4 PUSH4 0x2AB7831F PUSH1 0xE0 SHL PUSH1 0x20 DUP7 ADD MSTORE PUSH1 0x24 DUP6 ADD MSTORE CALLER PUSH1 0x44 DUP6 ADD MSTORE PUSH1 0x64 DUP5 ADD MSTORE PUSH1 0x84 DUP4 ADD MSTORE PUSH1 0x84 DUP3 MSTORE PUSH2 0x2673 PUSH1 0xA4 DUP4 PUSH2 0x3A31 JUMP JUMPDEST PUSH2 0x1F6 SLOAD AND PUSH2 0x457C JUMP JUMPDEST SWAP1 PUSH1 0x20 DUP3 DUP1 MLOAD DUP2 ADD SUB SLT PUSH2 0x771 JUMPI PUSH2 0x7FB PUSH1 0x20 DUP1 SWAP4 ADD MLOAD DUP1 SWAP3 PUSH2 0x4BAE JUMP JUMPDEST POP CALLVALUE PUSH2 0x584 JUMPI DUP1 PUSH1 0x3 NOT CALLDATASIZE ADD SLT PUSH2 0x584 JUMPI PUSH1 0x20 PUSH2 0x13E SLOAD PUSH1 0x40 MLOAD SWAP1 DUP2 MSTORE RETURN JUMPDEST POP CALLVALUE PUSH2 0x584 JUMPI DUP1 PUSH1 0x3 NOT CALLDATASIZE ADD SLT PUSH2 0x584 JUMPI PUSH1 0x20 PUSH2 0x7FB PUSH2 0x26E3 PUSH2 0x26DB PUSH2 0x4948 JUMP JUMPDEST SWAP2 SWAP1 SWAP2 PUSH2 0x3F8A JUMP JUMPDEST SWAP2 PUSH2 0x4743 JUMP JUMPDEST POP CALLVALUE PUSH2 0x584 JUMPI DUP1 PUSH1 0x3 NOT CALLDATASIZE ADD SLT PUSH2 0x584 JUMPI PUSH1 0xCA SLOAD PUSH1 0xFF DUP2 PUSH1 0x8 SHR AND ISZERO PUSH2 0x27D7 JUMPI PUSH1 0x1 DUP1 PUSH1 0xA0 SHL SUB DUP1 DUP3 PUSH1 0x10 SHR AND CALLER EQ ISZERO SWAP1 DUP2 PUSH2 0x2763 JUMPI JUMPDEST POP PUSH2 0x1451 JUMPI PUSH1 0xFF DUP2 AND ISZERO PUSH2 0x143F JUMPI PUSH2 0xFF00 NOT AND PUSH1 0xCA SSTORE PUSH32 0x5DB9EE0A495BF2E6FF9C91A7834C1BA4FDD244A5E8AA4E537BD38AEAE4B073AA PUSH1 0x20 PUSH1 0x40 MLOAD CALLER DUP2 MSTORE LOG1 DUP1 RETURN JUMPDEST PUSH1 0x97 SLOAD PUSH1 0x40 MLOAD PUSH4 0xD994D6D5 PUSH1 0xE0 SHL DUP2 MSTORE CALLER PUSH1 0x4 DUP3 ADD MSTORE SWAP3 POP PUSH1 0x20 SWAP2 DUP4 SWAP2 PUSH1 0x24 SWAP2 DUP4 SWAP2 AND GAS STATICCALL SWAP1 DUP2 ISZERO PUSH2 0x1833 JUMPI DUP4 SWAP2 PUSH2 0x279E JUMPI JUMPDEST POP ISZERO CODESIZE PUSH2 0x2720 JUMP JUMPDEST SWAP1 POP PUSH1 0x20 DUP2 RETURNDATASIZE DUP3 GT PUSH2 0x27CF JUMPI JUMPDEST DUP2 PUSH2 0x27B8 PUSH1 0x20 SWAP4 DUP4 PUSH2 0x3A31 JUMP JUMPDEST DUP2 ADD SUB SLT PUSH2 0x17F3 JUMPI PUSH2 0x27C9 SWAP1 PUSH2 0x4305 JUMP JUMPDEST CODESIZE PUSH2 0x2796 JUMP JUMPDEST RETURNDATASIZE SWAP2 POP PUSH2 0x27AB JUMP JUMPDEST PUSH1 0x40 MLOAD PUSH4 0x7C7FD079 PUSH1 0xE0 SHL DUP2 MSTORE PUSH1 0x4 SWAP1 REVERT JUMPDEST POP CALLVALUE PUSH2 0x584 JUMPI PUSH1 0x20 CALLDATASIZE PUSH1 0x3 NOT ADD SLT PUSH2 0x584 JUMPI PUSH1 0x4 CALLDATALOAD PUSH1 0x1 PUSH1 0x1 PUSH1 0xA0 SHL SUB DUP2 AND SWAP1 DUP2 SWAP1 SUB PUSH2 0xA2F JUMPI PUSH2 0x2818 PUSH2 0x4A9F JUMP JUMPDEST PUSH2 0x14F DUP1 SLOAD PUSH1 0x1 PUSH1 0x1 PUSH1 0xA0 SHL SUB NOT AND SWAP1 SWAP2 OR SWAP1 SSTORE DUP1 RETURN JUMPDEST POP CALLVALUE PUSH2 0x584 JUMPI PUSH1 0x20 CALLDATASIZE PUSH1 0x3 NOT ADD SLT PUSH2 0x584 JUMPI PUSH2 0x2849 PUSH2 0x4A9F JUMP JUMPDEST PUSH1 0x4 CALLDATALOAD PUSH2 0x190 SSTORE DUP1 RETURN JUMPDEST POP CALLVALUE PUSH2 0x584 JUMPI PUSH1 0x20 CALLDATASIZE PUSH1 0x3 NOT ADD SLT PUSH2 0x584 JUMPI PUSH1 0x4 CALLDATALOAD SWAP1 PUSH2 0x138 SWAP1 DUP2 SLOAD DUP4 LT ISZERO PUSH2 0x584 JUMPI PUSH1 0x20 PUSH2 0x1530 DUP5 DUP5 PUSH2 0x38E0 JUMP JUMPDEST POP CALLVALUE PUSH2 0x584 JUMPI PUSH1 0x20 CALLDATASIZE PUSH1 0x3 NOT ADD SLT PUSH2 0x584 JUMPI PUSH1 0x4 CALLDATALOAD PUSH1 0x1 PUSH1 0x1 PUSH1 0xA0 SHL SUB DUP1 DUP3 AND DUP3 SUB PUSH2 0x771 JUMPI PUSH2 0xDBA SWAP2 PUSH2 0x28E1 DUP3 DUP6 SWAP4 PUSH32 0x0 AND SWAP1 PUSH2 0x24FD DUP3 ADDRESS EQ ISZERO PUSH2 0x3AAB JUMP JUMPDEST PUSH2 0x28E9 PUSH2 0x4A9F JUMP JUMPDEST PUSH2 0x28F2 DUP3 PUSH2 0x3A69 JUMP JUMPDEST SWAP1 PUSH2 0x2900 PUSH1 0x40 MLOAD SWAP3 DUP4 PUSH2 0x3A31 JUMP JUMPDEST DUP3 DUP3 MSTORE PUSH1 0x1F NOT PUSH2 0x290F DUP5 PUSH2 0x3A69 JUMP JUMPDEST ADD CALLDATASIZE PUSH1 0x20 DUP5 ADD CALLDATACOPY PUSH2 0x3B6D JUMP JUMPDEST POP PUSH2 0x2927 CALLDATASIZE PUSH1 0x4 PUSH2 0x3922 JUMP JUMPDEST SWAP1 PUSH2 0x2935 SWAP6 SWAP3 SWAP5 SWAP4 SWAP6 PUSH2 0x4D59 JUMP JUMPDEST POP PUSH1 0x40 MLOAD SWAP5 PUSH2 0x2945 PUSH1 0xE0 DUP8 PUSH2 0x3A31 JUMP JUMPDEST PUSH1 0x1 PUSH1 0x1 PUSH1 0xA0 SHL SUB DUP5 DUP2 AND DUP1 DUP9 MSTORE PUSH1 0x20 DUP1 DUP10 ADD DUP9 SWAP1 MSTORE PUSH1 0x40 DUP1 DUP11 ADD DUP12 SWAP1 MSTORE PUSH1 0x60 DUP11 ADD SWAP5 SWAP1 SWAP5 MSTORE CALLER PUSH1 0x80 DUP11 ADD MSTORE SWAP4 DUP3 AND PUSH1 0xA0 DUP10 ADD MSTORE SWAP4 AND PUSH1 0xC0 DUP8 ADD MSTORE MLOAD PUSH4 0x40C10F19 PUSH1 0xE0 SHL DUP2 MSTORE ADDRESS PUSH1 0x4 DUP3 ADD MSTORE PUSH1 0x24 DUP2 ADD DUP8 SWAP1 MSTORE SWAP2 DUP3 SWAP1 PUSH1 0x44 SWAP1 DUP3 SWAP1 DUP11 SWAP1 GAS CALL DUP1 ISZERO PUSH2 0x2BCD JUMPI PUSH2 0x2BD8 JUMPI JUMPDEST POP PUSH2 0x133 SLOAD PUSH1 0x40 MLOAD PUSH4 0x40C10F19 PUSH1 0xE0 SHL DUP2 MSTORE ADDRESS PUSH1 0x4 DUP3 ADD MSTORE PUSH1 0x24 DUP2 ADD DUP5 SWAP1 MSTORE SWAP1 PUSH1 0x20 SWAP1 DUP3 SWAP1 PUSH1 0x44 SWAP1 DUP3 SWAP1 DUP11 SWAP1 PUSH1 0x1 PUSH1 0x1 PUSH1 0xA0 SHL SUB AND GAS CALL DUP1 ISZERO PUSH2 0x2BCD JUMPI PUSH2 0x2B86 JUMPI JUMPDEST POP SWAP4 PUSH2 0x2A6F SWAP3 SWAP2 PUSH2 0x2A74 SWAP6 PUSH2 0x2A04 PUSH2 0x4D59 JUMP JUMPDEST POP PUSH2 0x2A0D PUSH2 0x4DC4 JUMP JUMPDEST PUSH2 0x2A15 PUSH2 0x4B2D JUMP JUMPDEST PUSH2 0x2A38 PUSH2 0x694 PUSH1 0x40 MLOAD PUSH4 0x3DAD0BD7 PUSH1 0xE1 SHL PUSH1 0x20 DUP3 ADD MSTORE PUSH2 0x1713 PUSH1 0x24 DUP3 ADD DUP9 PUSH2 0x5291 JUMP JUMPDEST PUSH1 0x80 DUP9 ADD MLOAD PUSH1 0xA0 DUP10 ADD MLOAD PUSH1 0xC0 SWAP1 SWAP10 ADD MLOAD SWAP4 SWAP12 SWAP5 SWAP11 SWAP2 SWAP10 SWAP3 SWAP9 DUP13 SWAP5 SWAP3 SWAP4 SWAP3 DUP12 SWAP3 PUSH1 0x1 PUSH1 0x1 PUSH1 0xA0 SHL SUB SWAP2 DUP3 AND SWAP3 DUP15 SWAP3 SWAP1 DUP2 AND SWAP2 AND PUSH2 0x50AB JUMP JUMPDEST PUSH2 0x415D JUMP JUMPDEST SWAP1 PUSH1 0x1 PUSH1 0x1 PUSH1 0xA0 SHL SUB DUP2 AND EXTCODESIZE ISZERO PUSH2 0x1140 JUMPI PUSH1 0x40 MLOAD PUSH4 0x2770A7EB PUSH1 0xE2 SHL DUP1 DUP3 MSTORE ADDRESS PUSH1 0x4 DUP4 ADD MSTORE PUSH1 0x24 DUP3 ADD SWAP4 SWAP1 SWAP4 MSTORE DUP5 DUP2 PUSH1 0x44 DUP2 DUP4 PUSH1 0x1 PUSH1 0x1 PUSH1 0xA0 SHL SUB DUP8 AND GAS CALL DUP1 ISZERO PUSH2 0x2B7B JUMPI SWAP1 DUP6 SWAP2 PUSH2 0x2B66 JUMPI JUMPDEST POP POP PUSH1 0x1 PUSH1 0x1 PUSH1 0xA0 SHL SUB DUP2 AND EXTCODESIZE ISZERO PUSH2 0x1140 JUMPI PUSH1 0x40 MLOAD DUP3 DUP2 MSTORE CALLER PUSH1 0x4 DUP3 ADD MSTORE PUSH1 0x24 DUP2 ADD DUP10 SWAP1 MSTORE SWAP1 DUP5 SWAP1 DUP3 SWAP1 PUSH1 0x44 SWAP1 DUP3 SWAP1 DUP5 SWAP1 PUSH1 0x1 PUSH1 0x1 PUSH1 0xA0 SHL SUB AND GAS CALL DUP1 ISZERO PUSH2 0x2B5B JUMPI SWAP1 DUP5 SWAP2 PUSH2 0x2B46 JUMPI JUMPDEST POP POP PUSH2 0x133 SLOAD PUSH1 0x1 PUSH1 0x1 PUSH1 0xA0 SHL SUB AND SWAP1 DUP2 EXTCODESIZE ISZERO PUSH2 0x1140 JUMPI PUSH1 0x40 MLOAD SWAP1 DUP2 MSTORE CALLER PUSH1 0x4 DUP3 ADD MSTORE PUSH1 0x24 DUP2 ADD SWAP3 SWAP1 SWAP3 MSTORE DUP3 SWAP1 DUP3 SWAP1 DUP2 DUP4 DUP2 PUSH1 0x44 DUP2 ADD PUSH2 0x17BC JUMP JUMPDEST DUP2 PUSH2 0x2B50 SWAP2 PUSH2 0x3A31 JUMP JUMPDEST PUSH2 0x17F3 JUMPI DUP3 CODESIZE PUSH2 0x2B0B JUMP JUMPDEST PUSH1 0x40 MLOAD RETURNDATASIZE DUP7 DUP3 RETURNDATACOPY RETURNDATASIZE SWAP1 REVERT JUMPDEST DUP2 PUSH2 0x2B70 SWAP2 PUSH2 0x3A31 JUMP JUMPDEST PUSH2 0x1140 JUMPI DUP4 CODESIZE PUSH2 0x2AC1 JUMP JUMPDEST PUSH1 0x40 MLOAD RETURNDATASIZE DUP8 DUP3 RETURNDATACOPY RETURNDATASIZE SWAP1 REVERT JUMPDEST PUSH1 0x20 DUP2 RETURNDATASIZE PUSH1 0x20 GT PUSH2 0x2BC5 JUMPI JUMPDEST DUP2 PUSH2 0x2B9F PUSH1 0x20 SWAP4 DUP4 PUSH2 0x3A31 JUMP JUMPDEST DUP2 ADD SUB SLT PUSH2 0x2533 JUMPI SWAP2 PUSH2 0x2A74 SWAP6 SWAP2 PUSH2 0x2BBA PUSH2 0x2A6F SWAP6 SWAP5 PUSH2 0x4305 JUMP JUMPDEST POP SWAP2 SWAP6 POP SWAP2 SWAP3 PUSH2 0x29F1 JUMP JUMPDEST RETURNDATASIZE SWAP2 POP PUSH2 0x2B92 JUMP JUMPDEST PUSH1 0x40 MLOAD RETURNDATASIZE DUP9 DUP3 RETURNDATACOPY RETURNDATASIZE SWAP1 REVERT JUMPDEST PUSH1 0x20 DUP2 RETURNDATASIZE PUSH1 0x20 GT PUSH2 0x2C09 JUMPI JUMPDEST DUP2 PUSH2 0x2BF1 PUSH1 0x20 SWAP4 DUP4 PUSH2 0x3A31 JUMP JUMPDEST DUP2 ADD SUB SLT PUSH2 0x2533 JUMPI PUSH2 0x2C02 SWAP1 PUSH2 0x4305 JUMP JUMPDEST POP CODESIZE PUSH2 0x29AF JUMP JUMPDEST RETURNDATASIZE SWAP2 POP PUSH2 0x2BE4 JUMP JUMPDEST POP CALLVALUE PUSH2 0x584 JUMPI DUP1 PUSH1 0x3 NOT CALLDATASIZE ADD SLT PUSH2 0x584 JUMPI PUSH2 0x2C2A PUSH2 0x4B2D JUMP JUMPDEST PUSH2 0x14B DUP1 SLOAD PUSH1 0xFF DUP2 AND DUP1 PUSH2 0x2CF0 JUMPI JUMPDEST DUP1 PUSH2 0x2CD6 JUMPI JUMPDEST PUSH2 0x2C47 JUMPI DUP3 DUP1 RETURN JUMPDEST PUSH2 0xFF00 NOT AND PUSH2 0x100 OR SWAP1 SSTORE PUSH1 0x40 MLOAD DUP2 SWAP1 PUSH32 0x8B77276C97A5709F0D6DB52329848A254EB760CE8BE80D281799F633BDB69E83 DUP3 DUP1 LOG1 PUSH2 0x133 SLOAD PUSH1 0x1 PUSH1 0x1 PUSH1 0xA0 SHL SUB AND DUP1 EXTCODESIZE ISZERO PUSH2 0x2CD2 JUMPI DUP2 PUSH1 0x4 DUP2 DUP6 DUP1 SWAP5 PUSH4 0x8456CB59 PUSH1 0xE0 SHL DUP4 MSTORE GAS CALL DUP1 ISZERO PUSH2 0x1135 JUMPI PUSH2 0x2CBD JUMPI JUMPDEST POP POP PUSH2 0x2CB7 PUSH2 0x41B4 JUMP JUMPDEST CODESIZE DUP1 DUP3 DUP1 RETURN JUMPDEST DUP2 PUSH2 0x2CC7 SWAP2 PUSH2 0x3A31 JUMP JUMPDEST PUSH2 0x584 JUMPI DUP1 CODESIZE PUSH2 0x2CAD JUMP JUMPDEST POP POP REVERT JUMPDEST POP PUSH2 0x2CE5 PUSH2 0x12D8 PUSH2 0xA99 PUSH2 0x439E JUMP JUMPDEST PUSH2 0x14A SLOAD LT ISZERO PUSH2 0x2C3F JUMP JUMPDEST POP PUSH1 0xFF DUP2 PUSH1 0x8 SHR AND ISZERO PUSH2 0x2C39 JUMP JUMPDEST POP CALLVALUE PUSH2 0x584 JUMPI DUP1 PUSH1 0x3 NOT CALLDATASIZE ADD SLT PUSH2 0x584 JUMPI PUSH1 0x20 PUSH2 0x13F SLOAD PUSH1 0x40 MLOAD SWAP1 DUP2 MSTORE RETURN JUMPDEST POP PUSH1 0xE0 CALLDATASIZE PUSH1 0x3 NOT ADD SLT PUSH2 0x584 JUMPI PUSH1 0x4 CALLDATALOAD PUSH1 0x1 PUSH1 0x1 PUSH1 0xA0 SHL SUB DUP2 AND DUP2 SUB PUSH2 0x771 JUMPI PUSH1 0x24 CALLDATALOAD PUSH1 0x1 PUSH1 0x1 PUSH1 0xA0 SHL SUB DUP2 AND SWAP3 SWAP1 DUP4 SWAP1 SUB PUSH2 0x771 JUMPI PUSH1 0x84 CALLDATALOAD PUSH1 0xA4 CALLDATALOAD PUSH1 0x1 PUSH1 0x1 PUSH1 0xA0 SHL SUB DUP2 AND DUP2 SUB PUSH2 0x771 JUMPI PUSH1 0xC4 CALLDATALOAD SWAP2 PUSH1 0x1 PUSH1 0x1 PUSH1 0xA0 SHL SUB DUP4 AND DUP4 SUB PUSH2 0x771 JUMPI PUSH2 0x2D85 PUSH2 0x4D59 JUMP JUMPDEST POP PUSH2 0x229 SLOAD PUSH2 0x2DA2 SWAP1 DUP3 SWAP1 ADDRESS SWAP1 CALLER SWAP1 PUSH1 0x1 PUSH1 0x1 PUSH1 0xA0 SHL SUB AND PUSH2 0x4D80 JUMP JUMPDEST PUSH2 0x2DAF DUP2 PUSH2 0x14E SLOAD PUSH2 0x3F67 JUMP JUMPDEST PUSH2 0x14E SSTORE PUSH1 0x40 MLOAD SWAP6 PUSH2 0x2DC3 PUSH2 0x100 DUP9 PUSH2 0x3A31 JUMP JUMPDEST PUSH1 0x1 PUSH1 0x1 PUSH1 0xA0 SHL SUB DUP7 DUP2 AND DUP1 DUP10 MSTORE PUSH1 0x20 DUP1 DUP11 ADD SWAP4 SWAP1 SWAP4 MSTORE PUSH1 0x44 DUP1 CALLDATALOAD PUSH1 0x40 DUP1 DUP13 ADD DUP3 SWAP1 MSTORE PUSH1 0x64 CALLDATALOAD PUSH1 0x60 DUP14 ADD MSTORE PUSH1 0x80 DUP13 ADD SWAP7 SWAP1 SWAP7 MSTORE CALLER PUSH1 0xA0 DUP13 ADD MSTORE SWAP6 DUP4 AND PUSH1 0xC0 DUP12 ADD MSTORE SWAP6 SWAP1 SWAP2 AND PUSH1 0xE0 DUP10 ADD MSTORE SWAP2 MLOAD PUSH4 0x40C10F19 PUSH1 0xE0 SHL DUP2 MSTORE ADDRESS PUSH1 0x4 DUP3 ADD MSTORE PUSH1 0x24 DUP2 ADD SWAP4 SWAP1 SWAP4 MSTORE SWAP2 SWAP6 SWAP3 DUP7 SWAP2 DUP3 SWAP1 DUP7 SWAP1 GAS CALL DUP1 ISZERO PUSH2 0x1135 JUMPI PUSH2 0x2F97 JUMPI JUMPDEST PUSH2 0x2F39 SWAP4 POP PUSH2 0x2E4A PUSH2 0x4D59 JUMP JUMPDEST POP PUSH2 0x2E53 PUSH2 0x4DC4 JUMP JUMPDEST PUSH2 0x2E5B PUSH2 0x4B2D JUMP JUMPDEST PUSH1 0x40 DUP1 MLOAD PUSH4 0x70F090ED PUSH1 0xE1 SHL PUSH1 0x20 DUP1 DUP4 ADD SWAP2 SWAP1 SWAP2 MSTORE DUP4 MLOAD PUSH1 0x1 PUSH1 0x1 PUSH1 0xA0 SHL SUB SWAP1 DUP2 AND PUSH1 0x24 DUP5 ADD MSTORE SWAP1 DUP5 ADD MLOAD DUP2 AND PUSH1 0x44 DUP4 ADD MSTORE SWAP2 DUP4 ADD MLOAD PUSH1 0x64 DUP3 ADD MSTORE PUSH1 0x60 DUP4 ADD MLOAD PUSH1 0x84 DUP3 ADD MSTORE PUSH1 0x80 DUP4 ADD MLOAD PUSH1 0xA4 DUP3 ADD MSTORE PUSH1 0xA0 DUP4 ADD MLOAD DUP3 AND PUSH1 0xC4 DUP3 ADD MSTORE PUSH1 0xC0 DUP4 ADD MLOAD DUP3 AND PUSH1 0xE4 DUP3 ADD MSTORE PUSH1 0xE0 DUP4 ADD MLOAD SWAP1 SWAP2 AND PUSH2 0x104 DUP1 DUP4 ADD SWAP2 SWAP1 SWAP2 MSTORE DUP2 MSTORE PUSH2 0x2EEA SWAP1 PUSH2 0x694 SWAP1 PUSH2 0x8B3 PUSH2 0x124 DUP3 PUSH2 0x3A31 JUMP JUMPDEST DUP5 PUSH2 0x2F03 PUSH1 0x80 DUP4 SWAP9 SWAP7 SWAP10 SWAP6 SWAP11 SWAP5 SWAP8 ADD MLOAD PUSH2 0x14E SLOAD PUSH2 0x415D JUMP JUMPDEST PUSH2 0x14E SSTORE PUSH1 0x1 DUP1 PUSH1 0xA0 SHL SUB PUSH1 0xA0 DUP3 ADD MLOAD AND SWAP1 PUSH2 0x2F23 DUP10 PUSH1 0x80 DUP4 ADD MLOAD PUSH2 0x415D JUMP JUMPDEST PUSH1 0xE0 SWAP1 SWAP2 ADD MLOAD PUSH1 0x1 PUSH1 0x1 PUSH1 0xA0 SHL SUB AND SWAP2 DUP1 PUSH2 0x50AB JUMP JUMPDEST PUSH1 0x1 PUSH1 0x1 PUSH1 0xA0 SHL SUB DUP2 AND EXTCODESIZE ISZERO PUSH2 0xA2F JUMPI PUSH1 0x40 MLOAD PUSH4 0x2770A7EB PUSH1 0xE2 SHL DUP2 MSTORE CALLER PUSH1 0x4 DUP3 ADD MSTORE PUSH1 0x44 DUP1 CALLDATALOAD PUSH1 0x24 DUP4 ADD MSTORE SWAP1 SWAP2 DUP4 SWAP2 DUP4 SWAP2 DUP3 SWAP1 DUP5 SWAP1 PUSH1 0x1 PUSH1 0x1 PUSH1 0xA0 SHL SUB AND GAS CALL DUP1 ISZERO PUSH2 0x1135 JUMPI PUSH2 0x17DE JUMPI POP POP SWAP1 PUSH2 0x6DA SWAP2 PUSH1 0x40 MLOAD SWAP5 DUP6 SWAP5 DUP6 PUSH2 0x3965 JUMP JUMPDEST PUSH1 0x20 DUP5 RETURNDATASIZE PUSH1 0x20 GT PUSH2 0x2FCA JUMPI JUMPDEST DUP2 PUSH2 0x2FB0 PUSH1 0x20 SWAP4 DUP4 PUSH2 0x3A31 JUMP JUMPDEST DUP2 ADD SUB SLT PUSH2 0xA2F JUMPI PUSH2 0x2FC4 PUSH2 0x2F39 SWAP5 PUSH2 0x4305 JUMP JUMPDEST POP PUSH2 0x2E3D JUMP JUMPDEST RETURNDATASIZE SWAP2 POP PUSH2 0x2FA3 JUMP JUMPDEST POP PUSH2 0x2FDE CALLDATASIZE PUSH1 0x4 PUSH2 0x39A7 JUMP JUMPDEST SWAP3 PUSH2 0x2FED SWAP6 SWAP2 SWAP6 SWAP5 SWAP3 SWAP5 PUSH2 0x4D59 JUMP JUMPDEST POP PUSH1 0x40 MLOAD PUSH2 0x2FFC PUSH1 0xC0 DUP3 PUSH2 0x3A31 JUMP JUMPDEST PUSH1 0x1 PUSH1 0x1 PUSH1 0xA0 SHL SUB SWAP4 DUP5 AND DUP1 DUP3 MSTORE PUSH1 0x20 DUP1 DUP4 ADD DUP5 DUP2 MSTORE PUSH1 0x40 DUP1 DUP6 ADD SWAP10 DUP11 MSTORE CALLER PUSH1 0x60 DUP7 ADD SWAP1 DUP2 MSTORE SWAP11 DUP9 AND PUSH1 0x80 DUP7 ADD SWAP1 DUP2 MSTORE SWAP9 DUP9 AND PUSH1 0xA0 DUP7 ADD SWAP1 DUP2 MSTORE SWAP1 MLOAD PUSH4 0x40C10F19 PUSH1 0xE0 SHL DUP2 MSTORE ADDRESS PUSH1 0x4 DUP3 ADD MSTORE PUSH1 0x24 DUP2 ADD DUP8 SWAP1 MSTORE SWAP3 SWAP11 SWAP2 SWAP9 SWAP2 SWAP8 SWAP4 SWAP5 SWAP4 SWAP2 SWAP3 SWAP1 SWAP2 SWAP1 DUP12 DUP2 PUSH1 0x44 DUP2 DUP12 DUP11 GAS CALL DUP1 ISZERO PUSH2 0x31FB JUMPI PUSH2 0x3224 JUMPI JUMPDEST POP PUSH2 0x307A PUSH2 0x4D59 JUMP JUMPDEST POP PUSH2 0x3083 PUSH2 0x4DC4 JUMP JUMPDEST PUSH2 0x308B PUSH2 0x4B2D JUMP JUMPDEST PUSH2 0x3093 PUSH2 0x439E JUMP JUMPDEST PUSH2 0x30C5 PUSH2 0x30A2 DUP4 DUP8 MLOAD AND PUSH2 0x429B JUMP JUMPDEST SWAP2 PUSH2 0x30BC PUSH2 0x30B0 DUP5 DUP4 PUSH2 0x3F53 JUMP JUMPDEST MLOAD SWAP2 PUSH2 0x1AAC DUP4 DUP7 PUSH2 0x465E JUMP JUMPDEST POP POP DUP12 MLOAD PUSH2 0x52E1 JUMP JUMPDEST SWAP5 DUP6 ISZERO PUSH2 0xD53 JUMPI PUSH2 0x30FF SWAP13 DUP7 PUSH2 0x30F4 SWAP3 PUSH2 0x145 DUP7 DUP15 MLOAD AND SWAP4 DUP14 DUP9 DUP1 DUP12 MLOAD AND SWAP5 MLOAD AND SWAP1 MSTORE MSTORE PUSH1 0x40 DUP13 KECCAK256 SLOAD SWAP3 PUSH2 0x4E29 JUMP JUMPDEST SWAP12 SWAP2 DUP8 SWAP15 SWAP2 SWAP15 PUSH2 0x415D JUMP JUMPDEST SWAP12 MLOAD DUP1 DUP14 LT PUSH2 0x3206 JUMPI POP DUP3 SWAP2 PUSH2 0x314E SWAP2 PUSH2 0x311A PUSH1 0x1 DUP16 PUSH2 0x517C JUMP JUMPDEST MLOAD SWAP7 PUSH2 0x3128 DUP3 PUSH2 0x137 PUSH2 0x3A15 JUMP JUMPDEST POP PUSH2 0x3134 DUP10 DUP3 SLOAD PUSH2 0x415D JUMP JUMPDEST SWAP1 SSTORE PUSH2 0x3144 PUSH2 0x131 SWAP2 DUP3 SLOAD PUSH2 0x415D JUMP JUMPDEST SWAP1 SSTORE PUSH2 0x135 PUSH2 0x38E0 JUMP JUMPDEST SWAP1 SLOAD SWAP1 PUSH1 0x3 SHL SHR AND DUP1 EXTCODESIZE ISZERO PUSH2 0x1166 JUMPI PUSH1 0x40 MLOAD PUSH4 0x2770A7EB PUSH1 0xE2 SHL DUP1 DUP3 MSTORE ADDRESS PUSH1 0x4 DUP4 ADD MSTORE PUSH1 0x24 DUP3 ADD SWAP7 SWAP1 SWAP7 MSTORE SWAP1 DUP9 SWAP1 DUP3 SWAP1 PUSH1 0x44 SWAP1 DUP3 SWAP1 DUP5 SWAP1 GAS CALL DUP1 ISZERO PUSH2 0x31FB JUMPI SWAP2 DUP11 SWAP5 SWAP4 SWAP2 DUP13 SWAP4 PUSH2 0x31DD JUMPI JUMPDEST POP DUP1 DUP1 PUSH2 0x31B2 SWAP8 SWAP9 SWAP10 SWAP11 SWAP12 MLOAD AND SWAP5 MLOAD AND SWAP2 MLOAD AND SWAP3 PUSH2 0x50AB JUMP JUMPDEST DUP2 EXTCODESIZE ISZERO PUSH2 0x1140 JUMPI PUSH1 0x40 MLOAD SWAP1 DUP2 MSTORE CALLER PUSH1 0x4 DUP3 ADD MSTORE PUSH1 0x24 DUP2 ADD SWAP3 SWAP1 SWAP3 MSTORE DUP3 SWAP1 DUP3 SWAP1 DUP2 DUP4 DUP2 PUSH1 0x44 DUP2 ADD PUSH2 0x10FF JUMP JUMPDEST DUP2 DUP11 PUSH2 0x31F0 PUSH2 0x31B2 SWAP10 SWAP11 SWAP12 SWAP13 DUP4 SWAP5 PUSH2 0x3A31 JUMP JUMPDEST SWAP11 SWAP10 SWAP9 SWAP8 POP POP PUSH2 0x3199 JUMP JUMPDEST PUSH1 0x40 MLOAD RETURNDATASIZE DUP11 DUP3 RETURNDATACOPY RETURNDATASIZE SWAP1 REVERT JUMPDEST PUSH1 0x44 SWAP1 DUP14 PUSH1 0x40 MLOAD SWAP2 PUSH4 0x54CDE313 PUSH1 0xE0 SHL DUP4 MSTORE PUSH1 0x4 DUP4 ADD MSTORE PUSH1 0x24 DUP3 ADD MSTORE REVERT JUMPDEST DUP12 DUP2 DUP2 RETURNDATASIZE DUP4 GT PUSH2 0x3251 JUMPI JUMPDEST PUSH2 0x3239 DUP2 DUP4 PUSH2 0x3A31 JUMP JUMPDEST DUP2 ADD SUB SLT PUSH2 0x1166 JUMPI PUSH2 0x324A SWAP1 PUSH2 0x4305 JUMP JUMPDEST POP CODESIZE PUSH2 0x3071 JUMP JUMPDEST POP RETURNDATASIZE PUSH2 0x322F JUMP JUMPDEST POP CALLVALUE PUSH2 0x584 JUMPI DUP1 PUSH1 0x3 NOT CALLDATASIZE ADD SLT PUSH2 0x584 JUMPI PUSH1 0x20 PUSH2 0x143 SLOAD PUSH1 0x40 MLOAD SWAP1 DUP2 MSTORE RETURN JUMPDEST POP CALLVALUE PUSH2 0x584 JUMPI PUSH1 0x20 CALLDATASIZE PUSH1 0x3 NOT ADD SLT PUSH2 0x584 JUMPI PUSH1 0x4 CALLDATALOAD PUSH1 0x1 PUSH1 0x1 PUSH1 0xA0 SHL SUB DUP2 AND DUP2 SUB PUSH2 0xA2F JUMPI PUSH2 0x32A4 PUSH2 0x4A9F JUMP JUMPDEST PUSH1 0xCA DUP1 SLOAD PUSH3 0x10000 PUSH1 0x1 PUSH1 0xB0 SHL SUB NOT AND PUSH1 0x10 SWAP3 SWAP1 SWAP3 SHL PUSH3 0x10000 PUSH1 0x1 PUSH1 0xB0 SHL SUB AND SWAP2 SWAP1 SWAP2 OR SWAP1 SSTORE DUP1 RETURN JUMPDEST POP CALLVALUE PUSH2 0x584 JUMPI PUSH1 0x20 CALLDATASIZE PUSH1 0x3 NOT ADD SLT PUSH2 0x584 JUMPI PUSH2 0x32E8 PUSH2 0x4A9F JUMP JUMPDEST PUSH1 0x4 CALLDATALOAD PUSH2 0x14A SSTORE DUP1 RETURN JUMPDEST POP CALLVALUE PUSH2 0x584 JUMPI DUP1 PUSH1 0x3 NOT CALLDATASIZE ADD SLT PUSH2 0x584 JUMPI PUSH1 0x20 PUSH2 0x140 SLOAD PUSH1 0x40 MLOAD SWAP1 DUP2 MSTORE RETURN JUMPDEST POP CALLVALUE PUSH2 0x584 JUMPI PUSH1 0x20 CALLDATASIZE PUSH1 0x3 NOT ADD SLT PUSH2 0x584 JUMPI PUSH1 0x4 CALLDATALOAD PUSH1 0x1 PUSH1 0x1 PUSH1 0xA0 SHL SUB DUP2 AND SWAP1 DUP2 SWAP1 SUB PUSH2 0xA2F JUMPI PUSH2 0x3340 PUSH2 0x4A9F JUMP JUMPDEST PUSH2 0x147 DUP1 SLOAD PUSH1 0x1 PUSH1 0x1 PUSH1 0xA0 SHL SUB NOT AND SWAP1 SWAP2 OR SWAP1 SSTORE DUP1 RETURN JUMPDEST POP CALLVALUE PUSH2 0x584 JUMPI DUP1 PUSH1 0x3 NOT CALLDATASIZE ADD SLT PUSH2 0x584 JUMPI PUSH2 0x229 SLOAD PUSH1 0x40 MLOAD PUSH1 0x1 PUSH1 0x1 PUSH1 0xA0 SHL SUB SWAP1 SWAP2 AND DUP2 MSTORE PUSH1 0x20 SWAP1 RETURN JUMPDEST POP CALLVALUE PUSH2 0x584 JUMPI PUSH1 0x20 CALLDATASIZE PUSH1 0x3 NOT ADD SLT PUSH2 0x584 JUMPI PUSH1 0x4 CALLDATALOAD PUSH1 0x1 PUSH1 0x1 PUSH1 0xA0 SHL SUB DUP2 AND SWAP1 DUP2 SWAP1 SUB PUSH2 0xA2F JUMPI DUP2 PUSH1 0x40 SWAP2 PUSH1 0x20 SWAP4 MSTORE PUSH2 0x144 DUP4 MSTORE KECCAK256 SLOAD PUSH1 0x40 MLOAD SWAP1 DUP2 MSTORE RETURN JUMPDEST POP CALLVALUE PUSH2 0x584 JUMPI DUP1 PUSH1 0x3 NOT CALLDATASIZE ADD SLT PUSH2 0x584 JUMPI PUSH1 0x20 PUSH1 0xFF PUSH2 0x14B SLOAD PUSH1 0x8 SHR AND PUSH1 0x40 MLOAD SWAP1 ISZERO ISZERO DUP2 MSTORE RETURN JUMPDEST POP CALLVALUE PUSH2 0x584 JUMPI PUSH1 0x20 CALLDATASIZE PUSH1 0x3 NOT ADD SLT PUSH2 0x584 JUMPI PUSH2 0x3400 PUSH2 0x4A9F JUMP JUMPDEST PUSH1 0x4 CALLDATALOAD PUSH2 0x142 SSTORE DUP1 RETURN JUMPDEST POP CALLVALUE PUSH2 0x584 JUMPI PUSH1 0x20 CALLDATASIZE PUSH1 0x3 NOT ADD SLT PUSH2 0x584 JUMPI PUSH1 0x4 CALLDATALOAD DUP1 ISZERO ISZERO DUP1 SWAP2 SUB PUSH2 0xA2F JUMPI PUSH2 0x3431 PUSH2 0x4A9F JUMP JUMPDEST PUSH2 0x14B SWAP1 PUSH1 0xFF DUP1 NOT DUP4 SLOAD AND SWAP2 AND OR SWAP1 SSTORE DUP1 RETURN JUMPDEST POP CALLVALUE PUSH2 0x584 JUMPI DUP1 PUSH1 0x3 NOT CALLDATASIZE ADD SLT PUSH2 0x584 JUMPI PUSH1 0x20 PUSH2 0x7FB PUSH2 0x3465 PUSH2 0xA99 PUSH2 0x439E JUMP JUMPDEST SWAP1 PUSH2 0x4714 JUMP JUMPDEST POP CALLVALUE PUSH2 0x584 JUMPI DUP1 PUSH1 0x3 NOT CALLDATASIZE ADD SLT PUSH2 0x584 JUMPI PUSH1 0x20 PUSH2 0x14D SLOAD PUSH1 0x40 MLOAD SWAP1 DUP2 MSTORE RETURN JUMPDEST POP DUP1 PUSH2 0x3497 CALLDATASIZE PUSH1 0x4 PUSH2 0x3922 JUMP JUMPDEST PUSH2 0x34A6 SWAP7 SWAP3 SWAP5 SWAP4 SWAP6 SWAP2 SWAP7 PUSH2 0x4D59 JUMP JUMPDEST POP PUSH2 0x229 SLOAD PUSH2 0x34C3 SWAP1 DUP7 SWAP1 ADDRESS SWAP1 CALLER SWAP1 PUSH1 0x1 PUSH1 0x1 PUSH1 0xA0 SHL SUB AND PUSH2 0x4D80 JUMP JUMPDEST PUSH2 0x34D0 DUP6 PUSH2 0x14E SLOAD PUSH2 0x3F67 JUMP JUMPDEST PUSH2 0x14E SSTORE PUSH1 0x40 MLOAD SWAP5 PUSH2 0x34E3 PUSH1 0xE0 DUP8 PUSH2 0x3A31 JUMP JUMPDEST PUSH1 0x1 PUSH1 0x1 PUSH1 0xA0 SHL SUB DUP4 DUP2 AND DUP1 DUP9 MSTORE PUSH1 0x20 DUP1 DUP10 ADD DUP9 SWAP1 MSTORE PUSH1 0x40 DUP1 DUP11 ADD SWAP11 SWAP1 SWAP11 MSTORE PUSH1 0x60 DUP10 ADD SWAP4 SWAP1 SWAP4 MSTORE CALLER PUSH1 0x80 DUP10 ADD SWAP1 DUP2 MSTORE SWAP10 DUP3 AND PUSH1 0xA0 DUP10 ADD MSTORE SWAP3 AND PUSH1 0xC0 DUP8 ADD MSTORE SWAP6 MLOAD PUSH4 0x40C10F19 PUSH1 0xE0 SHL DUP2 MSTORE ADDRESS PUSH1 0x4 DUP3 ADD MSTORE PUSH1 0x24 DUP2 ADD DUP6 SWAP1 MSTORE SWAP1 DUP7 SWAP1 DUP3 SWAP1 PUSH1 0x44 SWAP1 DUP3 SWAP1 DUP8 SWAP1 GAS CALL DUP1 ISZERO PUSH2 0x1833 JUMPI PUSH2 0x363B JUMPI JUMPDEST POP PUSH2 0x3594 PUSH2 0x35CA SWAP6 PUSH2 0x3563 PUSH2 0x4D59 JUMP JUMPDEST POP PUSH2 0x356C PUSH2 0x4DC4 JUMP JUMPDEST PUSH2 0x3574 PUSH2 0x4B2D JUMP JUMPDEST PUSH1 0x40 MLOAD PUSH4 0xF5571E01 PUSH1 0xE0 SHL DUP3 DUP3 ADD MSTORE PUSH2 0x1723 SWAP1 PUSH2 0x1713 PUSH1 0x24 DUP3 ADD DUP10 PUSH2 0x5291 JUMP JUMPDEST SWAP7 DUP8 SWAP2 SWAP7 SWAP4 SWAP9 SWAP3 SWAP10 PUSH2 0x35AD PUSH1 0x60 DUP4 ADD MLOAD PUSH2 0x14E SLOAD PUSH2 0x415D JUMP JUMPDEST PUSH2 0x14E SSTORE PUSH1 0x1 DUP1 PUSH1 0xA0 SHL SUB SWAP1 MLOAD AND SWAP1 PUSH2 0x1769 DUP11 PUSH1 0x60 DUP4 ADD MLOAD PUSH2 0x415D JUMP JUMPDEST PUSH1 0x1 PUSH1 0x1 PUSH1 0xA0 SHL SUB DUP3 AND EXTCODESIZE ISZERO PUSH2 0x17F3 JUMPI PUSH1 0x40 MLOAD PUSH4 0x2770A7EB PUSH1 0xE2 SHL DUP2 MSTORE CALLER PUSH1 0x4 DUP3 ADD MSTORE PUSH1 0x24 DUP2 ADD SWAP2 SWAP1 SWAP2 MSTORE SWAP2 SWAP1 DUP3 SWAP1 PUSH1 0x44 SWAP1 DUP3 SWAP1 DUP5 SWAP1 PUSH1 0x1 PUSH1 0x1 PUSH1 0xA0 SHL SUB AND GAS CALL DUP1 ISZERO PUSH2 0x2BCD JUMPI SWAP6 PUSH2 0x6DA SWAP5 SWAP6 SWAP7 PUSH2 0x362B JUMPI JUMPDEST POP POP PUSH1 0x40 MLOAD SWAP5 DUP6 SWAP5 DUP6 PUSH2 0x3965 JUMP JUMPDEST PUSH2 0x3634 SWAP2 PUSH2 0x3A31 JUMP JUMPDEST CODESIZE DUP1 PUSH2 0x361D JUMP JUMPDEST DUP6 DUP2 DUP2 RETURNDATASIZE DUP4 GT PUSH2 0x3670 JUMPI JUMPDEST PUSH2 0x3650 DUP2 DUP4 PUSH2 0x3A31 JUMP JUMPDEST DUP2 ADD SUB SLT PUSH2 0x17F3 JUMPI PUSH2 0x35CA SWAP6 PUSH2 0x3668 PUSH2 0x3594 SWAP3 PUSH2 0x4305 JUMP JUMPDEST POP SWAP6 POP PUSH2 0x3553 JUMP JUMPDEST POP RETURNDATASIZE PUSH2 0x3646 JUMP JUMPDEST POP CALLVALUE PUSH2 0x584 JUMPI DUP1 PUSH1 0x3 NOT CALLDATASIZE ADD SLT PUSH2 0x584 JUMPI PUSH2 0x14F SLOAD PUSH1 0x40 MLOAD PUSH1 0x1 PUSH1 0x1 PUSH1 0xA0 SHL SUB SWAP1 SWAP2 AND DUP2 MSTORE PUSH1 0x20 SWAP1 RETURN JUMPDEST POP CALLVALUE PUSH2 0x584 JUMPI PUSH1 0x20 CALLDATASIZE PUSH1 0x3 NOT ADD SLT PUSH2 0x584 JUMPI PUSH1 0x4 CALLDATALOAD PUSH1 0x1 PUSH1 0x1 PUSH1 0xA0 SHL SUB DUP2 AND SWAP1 DUP2 SWAP1 SUB PUSH2 0xA2F JUMPI PUSH2 0x36D0 PUSH2 0x4A9F JUMP JUMPDEST PUSH2 0x130 DUP1 SLOAD PUSH1 0x1 PUSH1 0x1 PUSH1 0xA0 SHL SUB NOT AND SWAP1 SWAP2 OR SWAP1 SSTORE DUP1 RETURN JUMPDEST POP CALLVALUE PUSH2 0x584 JUMPI PUSH1 0x20 CALLDATASIZE PUSH1 0x3 NOT ADD SLT PUSH2 0x584 JUMPI PUSH2 0x3701 PUSH2 0x4A9F JUMP JUMPDEST PUSH1 0x4 CALLDATALOAD PUSH2 0x13F SSTORE DUP1 RETURN JUMPDEST POP CALLVALUE PUSH2 0x584 JUMPI DUP1 PUSH1 0x3 NOT CALLDATASIZE ADD SLT PUSH2 0x584 JUMPI PUSH1 0x20 PUSH2 0x159 SLOAD PUSH1 0x40 MLOAD SWAP1 DUP2 MSTORE RETURN JUMPDEST POP CALLVALUE PUSH2 0x584 JUMPI PUSH1 0x20 CALLDATASIZE PUSH1 0x3 NOT ADD SLT PUSH2 0x584 JUMPI PUSH1 0x4 CALLDATALOAD PUSH1 0x1 PUSH1 0x1 PUSH1 0xA0 SHL SUB DUP2 AND SWAP1 DUP2 SWAP1 SUB PUSH2 0xA2F JUMPI PUSH2 0x3759 PUSH2 0x4A9F JUMP JUMPDEST PUSH2 0x146 DUP1 SLOAD PUSH1 0x1 PUSH1 0x1 PUSH1 0xA0 SHL SUB NOT AND SWAP1 SWAP2 OR SWAP1 SSTORE DUP1 RETURN JUMPDEST POP CALLVALUE PUSH2 0x584 JUMPI DUP1 PUSH1 0x3 NOT CALLDATASIZE ADD SLT PUSH2 0x584 JUMPI PUSH1 0x20 PUSH2 0x18F SLOAD PUSH1 0x40 MLOAD SWAP1 DUP2 MSTORE RETURN JUMPDEST POP CALLVALUE PUSH2 0x584 JUMPI DUP1 PUSH1 0x3 NOT CALLDATASIZE ADD SLT PUSH2 0x584 JUMPI PUSH1 0x97 SLOAD PUSH1 0x40 MLOAD PUSH1 0x1 PUSH1 0x1 PUSH1 0xA0 SHL SUB SWAP1 SWAP2 AND DUP2 MSTORE PUSH1 0x20 SWAP1 RETURN JUMPDEST POP CALLVALUE PUSH2 0x584 JUMPI PUSH1 0x20 CALLDATASIZE PUSH1 0x3 NOT ADD SLT PUSH2 0x584 JUMPI PUSH2 0x37D2 PUSH2 0x4A9F JUMP JUMPDEST PUSH1 0x4 CALLDATALOAD PUSH2 0x15A SSTORE DUP1 RETURN JUMPDEST POP CALLVALUE PUSH2 0x584 JUMPI DUP1 PUSH1 0x3 NOT CALLDATASIZE ADD SLT PUSH2 0x584 JUMPI PUSH2 0x37F5 PUSH2 0x4B2D JUMP JUMPDEST PUSH2 0x15B DUP1 SLOAD NUMBER LT PUSH2 0x3862 JUMPI PUSH2 0x15A SLOAD NUMBER ADD SWAP1 SSTORE PUSH2 0xDBA PUSH8 0xDE0B6B3A7640000 PUSH2 0x3825 PUSH2 0x131 SLOAD PUSH2 0x159 SLOAD SWAP1 PUSH2 0x409B JUMP JUMPDEST DIV PUSH32 0xE37FDA283839477A1B77E29ACF8336C0E13A5DAA967913DF0FE5AD258C0822F PUSH1 0x20 PUSH1 0x40 MLOAD DUP4 DUP2 MSTORE LOG1 PUSH2 0x158 SLOAD PUSH1 0x1 PUSH1 0x1 PUSH1 0xA0 SHL SUB AND PUSH2 0x4BAE JUMP JUMPDEST PUSH1 0x40 MLOAD PUSH4 0xACCE20E5 PUSH1 0xE0 SHL DUP2 MSTORE PUSH1 0x4 SWAP1 REVERT JUMPDEST POP CALLVALUE PUSH2 0x584 JUMPI PUSH1 0x20 CALLDATASIZE PUSH1 0x3 NOT ADD SLT PUSH2 0x584 JUMPI PUSH1 0x4 CALLDATALOAD SWAP1 PUSH2 0x135 SWAP1 DUP2 SLOAD DUP4 LT ISZERO PUSH2 0x584 JUMPI PUSH1 0x20 PUSH2 0x38A3 DUP5 DUP5 PUSH2 0x38E0 JUMP JUMPDEST SWAP1 SLOAD PUSH1 0x40 MLOAD PUSH1 0x3 SWAP3 SWAP1 SWAP3 SHL SHR PUSH1 0x1 PUSH1 0x1 PUSH1 0xA0 SHL SUB AND DUP2 MSTORE RETURN JUMPDEST POP CALLVALUE PUSH2 0x584 JUMPI PUSH1 0x20 CALLDATASIZE PUSH1 0x3 NOT ADD SLT PUSH2 0x584 JUMPI PUSH2 0x38D6 PUSH2 0x4A9F JUMP JUMPDEST PUSH1 0x4 CALLDATALOAD PUSH2 0x13A SSTORE DUP1 RETURN JUMPDEST DUP1 SLOAD DUP3 LT ISZERO PUSH2 0x38F8 JUMPI PUSH1 0x0 MSTORE PUSH1 0x20 PUSH1 0x0 KECCAK256 ADD SWAP1 PUSH1 0x0 SWAP1 JUMP JUMPDEST PUSH4 0x4E487B71 PUSH1 0xE0 SHL PUSH1 0x0 MSTORE PUSH1 0x32 PUSH1 0x4 MSTORE PUSH1 0x24 PUSH1 0x0 REVERT JUMPDEST CALLDATALOAD SWAP1 PUSH1 0x1 PUSH1 0x1 PUSH1 0xA0 SHL SUB DUP3 AND DUP3 SUB PUSH2 0x771 JUMPI JUMP JUMPDEST SWAP2 SWAP1 DUP3 PUSH1 0xC0 SWAP2 SUB SLT PUSH2 0x771 JUMPI PUSH2 0x3937 DUP3 PUSH2 0x390E JUMP JUMPDEST SWAP2 PUSH1 0x20 DUP2 ADD CALLDATALOAD SWAP2 PUSH1 0x40 DUP3 ADD CALLDATALOAD SWAP2 PUSH1 0x60 DUP2 ADD CALLDATALOAD SWAP2 PUSH2 0x3962 PUSH1 0xA0 PUSH2 0x395B PUSH1 0x80 DUP6 ADD PUSH2 0x390E JUMP JUMPDEST SWAP4 ADD PUSH2 0x390E JUMP JUMPDEST SWAP1 JUMP JUMPDEST PUSH2 0x39A5 SWAP4 PUSH1 0x60 SWAP3 SWAP7 SWAP6 SWAP4 PUSH1 0xE0 DUP4 ADD SWAP8 DUP4 MSTORE PUSH1 0x20 DUP4 ADD MSTORE PUSH1 0x40 DUP3 ADD MSTORE ADD SWAP1 PUSH1 0x60 DUP1 SWAP2 DUP1 MLOAD DUP5 MSTORE PUSH1 0x20 DUP2 ADD MLOAD PUSH1 0x20 DUP6 ADD MSTORE PUSH1 0x40 DUP2 ADD MLOAD PUSH1 0x40 DUP6 ADD MSTORE ADD MLOAD SWAP2 ADD MSTORE JUMP JUMPDEST JUMP JUMPDEST SWAP1 DUP2 PUSH1 0xA0 SWAP2 SUB SLT PUSH2 0x771 JUMPI PUSH2 0x39BB DUP2 PUSH2 0x390E JUMP JUMPDEST SWAP2 PUSH1 0x20 DUP3 ADD CALLDATALOAD SWAP2 PUSH1 0x40 DUP2 ADD CALLDATALOAD SWAP2 PUSH2 0x3962 PUSH1 0x80 PUSH2 0x395B PUSH1 0x60 DUP6 ADD PUSH2 0x390E JUMP JUMPDEST PUSH1 0x40 SWAP1 PUSH2 0x39A5 SWAP4 SWAP6 SWAP5 SWAP3 SWAP6 PUSH1 0xC0 DUP3 ADD SWAP7 DUP3 MSTORE PUSH1 0x20 DUP3 ADD MSTORE ADD SWAP1 PUSH1 0x60 DUP1 SWAP2 DUP1 MLOAD DUP5 MSTORE PUSH1 0x20 DUP2 ADD MLOAD PUSH1 0x20 DUP6 ADD MSTORE PUSH1 0x40 DUP2 ADD MLOAD PUSH1 0x40 DUP6 ADD MSTORE ADD MLOAD SWAP2 ADD MSTORE JUMP JUMPDEST DUP1 SLOAD DUP3 LT ISZERO PUSH2 0x38F8 JUMPI PUSH1 0x0 MSTORE PUSH1 0x20 PUSH1 0x0 KECCAK256 SWAP1 PUSH1 0x1 SHL ADD SWAP1 PUSH1 0x0 SWAP1 JUMP JUMPDEST SWAP1 PUSH1 0x1F DUP1 NOT SWAP2 ADD AND DUP2 ADD SWAP1 DUP2 LT PUSH8 0xFFFFFFFFFFFFFFFF DUP3 GT OR PUSH2 0x3A53 JUMPI PUSH1 0x40 MSTORE JUMP JUMPDEST PUSH4 0x4E487B71 PUSH1 0xE0 SHL PUSH1 0x0 MSTORE PUSH1 0x41 PUSH1 0x4 MSTORE PUSH1 0x24 PUSH1 0x0 REVERT JUMPDEST PUSH8 0xFFFFFFFFFFFFFFFF DUP2 GT PUSH2 0x3A53 JUMPI PUSH1 0x1F ADD PUSH1 0x1F NOT AND PUSH1 0x20 ADD SWAP1 JUMP JUMPDEST SWAP2 SWAP1 DUP3 PUSH1 0x80 SWAP2 SUB SLT PUSH2 0x771 JUMPI DUP2 CALLDATALOAD SWAP2 PUSH1 0x20 DUP2 ADD CALLDATALOAD SWAP2 PUSH2 0x3962 PUSH1 0x60 PUSH2 0x395B PUSH1 0x40 DUP6 ADD PUSH2 0x390E JUMP JUMPDEST ISZERO PUSH2 0x3AB2 JUMPI JUMP JUMPDEST PUSH1 0x40 MLOAD PUSH3 0x461BCD PUSH1 0xE5 SHL DUP2 MSTORE PUSH1 0x20 PUSH1 0x4 DUP3 ADD MSTORE PUSH1 0x2C PUSH1 0x24 DUP3 ADD MSTORE PUSH32 0x46756E6374696F6E206D7573742062652063616C6C6564207468726F75676820 PUSH1 0x44 DUP3 ADD MSTORE PUSH12 0x19195B1959D85D1958D85B1B PUSH1 0xA2 SHL PUSH1 0x64 DUP3 ADD MSTORE PUSH1 0x84 SWAP1 REVERT JUMPDEST ISZERO PUSH2 0x3B13 JUMPI JUMP JUMPDEST PUSH1 0x40 MLOAD PUSH3 0x461BCD PUSH1 0xE5 SHL DUP2 MSTORE PUSH1 0x20 PUSH1 0x4 DUP3 ADD MSTORE PUSH1 0x2C PUSH1 0x24 DUP3 ADD MSTORE PUSH32 0x46756E6374696F6E206D7573742062652063616C6C6564207468726F75676820 PUSH1 0x44 DUP3 ADD MSTORE PUSH12 0x6163746976652070726F7879 PUSH1 0xA0 SHL PUSH1 0x64 DUP3 ADD MSTORE PUSH1 0x84 SWAP1 REVERT JUMPDEST SWAP1 PUSH1 0xFF PUSH32 0x4910FDFA16FED3260ED0E7147F7CC6DA11A60208B5B9406D12A635614FFD9143 SLOAD AND PUSH1 0x0 EQ PUSH2 0x3BA5 JUMPI POP PUSH2 0x39A5 SWAP2 POP PUSH2 0x3D59 JUMP JUMPDEST PUSH1 0x40 MLOAD PUSH4 0x52D1902D PUSH1 0xE0 SHL DUP2 MSTORE PUSH1 0x20 SWAP4 SWAP2 SWAP3 SWAP2 SWAP1 PUSH1 0x1 PUSH1 0x1 PUSH1 0xA0 SHL SUB DUP4 AND SWAP1 DUP6 DUP2 PUSH1 0x4 DUP2 DUP6 GAS STATICCALL PUSH1 0x0 SWAP2 DUP2 PUSH2 0x3D2A JUMPI JUMPDEST POP PUSH2 0x3C36 JUMPI PUSH1 0x40 MLOAD PUSH3 0x461BCD PUSH1 0xE5 SHL DUP2 MSTORE PUSH1 0x4 DUP2 ADD DUP8 SWAP1 MSTORE PUSH1 0x2E PUSH1 0x24 DUP3 ADD MSTORE PUSH32 0x45524331393637557067726164653A206E657720696D706C656D656E74617469 PUSH1 0x44 DUP3 ADD MSTORE PUSH14 0x6F6E206973206E6F742055555053 PUSH1 0x90 SHL PUSH1 0x64 DUP3 ADD MSTORE PUSH1 0x84 SWAP1 REVERT JUMPDEST SWAP4 SWAP5 SWAP4 PUSH32 0xC9F76B5EC45E5CDEF99837D7B6D2467235C1DF8933C8CA56DF5C35AFA2C7D444 ADD PUSH2 0x3CD3 JUMPI PUSH2 0x3C68 DUP4 PUSH2 0x3D59 JUMP JUMPDEST PUSH32 0xBC7CD75A20EE27FD9ADEBAB32041F755214DBC6BFFA90CC0225B39DA2E5C2D3B PUSH1 0x0 DUP1 LOG2 DUP4 MLOAD ISZERO SWAP1 DUP2 ISZERO SWAP2 PUSH2 0x3CCB JUMPI JUMPDEST POP PUSH2 0x3CA3 JUMPI POP POP POP JUMP JUMPDEST PUSH1 0x0 DUP1 PUSH2 0x3CC8 SWAP5 PUSH2 0x3CB2 PUSH2 0x3DFB JUMP JUMPDEST SWAP5 DUP2 MLOAD SWAP2 ADD DUP5 GAS DELEGATECALL PUSH2 0x3CC2 PUSH2 0x3E4F JUMP JUMPDEST SWAP2 PUSH2 0x3E7F JUMP JUMPDEST POP JUMP JUMPDEST SWAP1 POP CODESIZE PUSH2 0x3C99 JUMP JUMPDEST PUSH1 0x40 MLOAD PUSH3 0x461BCD PUSH1 0xE5 SHL DUP2 MSTORE PUSH1 0x4 DUP2 ADD DUP6 SWAP1 MSTORE PUSH1 0x29 PUSH1 0x24 DUP3 ADD MSTORE PUSH32 0x45524331393637557067726164653A20756E737570706F727465642070726F78 PUSH1 0x44 DUP3 ADD MSTORE PUSH9 0x1A58589B1955555251 PUSH1 0xBA SHL PUSH1 0x64 DUP3 ADD MSTORE PUSH1 0x84 SWAP1 REVERT JUMPDEST SWAP1 SWAP2 DUP8 DUP3 DUP2 RETURNDATASIZE DUP4 GT PUSH2 0x3D52 JUMPI JUMPDEST PUSH2 0x3D41 DUP2 DUP4 PUSH2 0x3A31 JUMP JUMPDEST DUP2 ADD SUB SLT PUSH2 0x584 JUMPI POP MLOAD SWAP1 CODESIZE PUSH2 0x3BD5 JUMP JUMPDEST POP RETURNDATASIZE PUSH2 0x3D37 JUMP JUMPDEST DUP1 EXTCODESIZE ISZERO PUSH2 0x3DA0 JUMPI PUSH32 0x360894A13BA1A3210667C828492DB98DCA3E2076CC3735A920A3CA505D382BBC DUP1 SLOAD PUSH1 0x1 PUSH1 0x1 PUSH1 0xA0 SHL SUB NOT AND PUSH1 0x1 PUSH1 0x1 PUSH1 0xA0 SHL SUB SWAP1 SWAP3 AND SWAP2 SWAP1 SWAP2 OR SWAP1 SSTORE JUMP JUMPDEST PUSH1 0x40 MLOAD PUSH3 0x461BCD PUSH1 0xE5 SHL DUP2 MSTORE PUSH1 0x20 PUSH1 0x4 DUP3 ADD MSTORE PUSH1 0x2D PUSH1 0x24 DUP3 ADD MSTORE PUSH32 0x455243313936373A206E657720696D706C656D656E746174696F6E206973206E PUSH1 0x44 DUP3 ADD MSTORE PUSH13 0x1BDD08184818DBDB9D1C9858DD PUSH1 0x9A SHL PUSH1 0x64 DUP3 ADD MSTORE PUSH1 0x84 SWAP1 REVERT JUMPDEST PUSH2 0x3E05 PUSH1 0x27 PUSH2 0x3A69 JUMP JUMPDEST SWAP1 PUSH2 0x3E13 PUSH1 0x40 MLOAD SWAP3 DUP4 PUSH2 0x3A31 JUMP JUMPDEST PUSH1 0x27 DUP3 MSTORE PUSH7 0x819985A5B1959 PUSH1 0xCA SHL PUSH1 0x40 DUP4 PUSH32 0x416464726573733A206C6F772D6C6576656C2064656C65676174652063616C6C PUSH1 0x20 DUP3 ADD MSTORE ADD MSTORE JUMP JUMPDEST RETURNDATASIZE ISZERO PUSH2 0x3E7A JUMPI RETURNDATASIZE SWAP1 PUSH2 0x3E60 DUP3 PUSH2 0x3A69 JUMP JUMPDEST SWAP2 PUSH2 0x3E6E PUSH1 0x40 MLOAD SWAP4 DUP5 PUSH2 0x3A31 JUMP JUMPDEST DUP3 MSTORE RETURNDATASIZE PUSH1 0x0 PUSH1 0x20 DUP5 ADD RETURNDATACOPY JUMP JUMPDEST PUSH1 0x60 SWAP1 JUMP JUMPDEST SWAP2 SWAP3 SWAP1 ISZERO PUSH2 0x3EE1 JUMPI POP DUP2 MLOAD ISZERO PUSH2 0x3E93 JUMPI POP SWAP1 JUMP JUMPDEST EXTCODESIZE ISZERO PUSH2 0x3E9C JUMPI SWAP1 JUMP JUMPDEST PUSH1 0x40 MLOAD PUSH3 0x461BCD PUSH1 0xE5 SHL DUP2 MSTORE PUSH1 0x20 PUSH1 0x4 DUP3 ADD MSTORE PUSH1 0x1D PUSH1 0x24 DUP3 ADD MSTORE PUSH32 0x416464726573733A2063616C6C20746F206E6F6E2D636F6E7472616374000000 PUSH1 0x44 DUP3 ADD MSTORE PUSH1 0x64 SWAP1 REVERT JUMPDEST DUP3 MLOAD SWAP1 SWAP2 POP ISZERO PUSH2 0x3EF4 JUMPI POP DUP1 MLOAD SWAP1 PUSH1 0x20 ADD REVERT JUMPDEST PUSH1 0x40 MLOAD SWAP1 PUSH3 0x461BCD PUSH1 0xE5 SHL DUP3 MSTORE DUP2 PUSH1 0x20 DUP1 PUSH1 0x4 DUP4 ADD MSTORE DUP3 MLOAD SWAP1 DUP2 PUSH1 0x24 DUP5 ADD MSTORE PUSH1 0x0 SWAP4 JUMPDEST DUP3 DUP6 LT PUSH2 0x3F3A JUMPI POP POP PUSH1 0x44 SWAP3 POP PUSH1 0x0 DUP4 DUP3 DUP5 ADD ADD MSTORE PUSH1 0x1F DUP1 NOT SWAP2 ADD AND DUP2 ADD SUB ADD SWAP1 REVERT JUMPDEST DUP5 DUP2 ADD DUP3 ADD MLOAD DUP7 DUP7 ADD PUSH1 0x44 ADD MSTORE SWAP4 DUP2 ADD SWAP4 DUP6 SWAP4 POP PUSH2 0x3F17 JUMP JUMPDEST DUP1 MLOAD DUP3 LT ISZERO PUSH2 0x38F8 JUMPI PUSH1 0x20 SWAP2 PUSH1 0x5 SHL ADD ADD SWAP1 JUMP JUMPDEST SWAP2 SWAP1 DUP3 ADD DUP1 SWAP3 GT PUSH2 0x3F74 JUMPI JUMP JUMPDEST PUSH4 0x4E487B71 PUSH1 0xE0 SHL PUSH1 0x0 MSTORE PUSH1 0x11 PUSH1 0x4 MSTORE PUSH1 0x24 PUSH1 0x0 REVERT JUMPDEST SWAP1 PUSH1 0x0 SWAP2 PUSH1 0x0 SWAP1 PUSH2 0x137 DUP1 SLOAD SWAP1 PUSH1 0x0 SWAP3 JUMPDEST DUP3 DUP5 LT PUSH2 0x3FC1 JUMPI POP POP POP POP PUSH2 0x3FBD PUSH8 0xDE0B6B3A7640000 SWAP2 PUSH2 0x139 SLOAD SWAP1 PUSH2 0x409B JUMP JUMPDEST DIV SWAP1 JUMP JUMPDEST SWAP1 SWAP2 SWAP3 SWAP4 SWAP6 PUSH2 0x400E PUSH2 0x3FFD PUSH2 0x4008 PUSH1 0x1 SWAP4 PUSH2 0x4002 PUSH2 0x3FDF DUP11 DUP9 PUSH2 0x3F53 JUMP JUMPDEST MLOAD PUSH2 0x3FEA DUP2 DUP13 PUSH2 0x4034 JUMP JUMPDEST SWAP6 SWAP1 PUSH2 0x3FF6 DUP14 DUP13 PUSH2 0x3A15 JUMP JUMPDEST POP SLOAD PUSH2 0x3F67 JUMP JUMPDEST PUSH2 0x52E1 JUMP JUMPDEST SWAP1 PUSH2 0x3F67 JUMP JUMPDEST SWAP9 PUSH2 0x3F67 JUMP JUMPDEST SWAP5 ADD SWAP3 SWAP2 SWAP1 PUSH2 0x3F9B JUMP JUMPDEST SWAP2 SWAP1 SWAP2 PUSH1 0x0 DUP4 DUP3 ADD SWAP4 DUP5 SLT SWAP2 SLT SWAP1 DUP1 ISZERO DUP3 AND SWAP2 ISZERO AND OR PUSH2 0x3F74 JUMPI JUMP JUMPDEST SWAP2 SWAP1 PUSH1 0x0 SWAP1 PUSH2 0x4062 DUP2 PUSH1 0x0 SWAP6 PUSH2 0x4058 PUSH2 0x404F DUP3 PUSH2 0x150 PUSH2 0x38E0 JUMP JUMPDEST SWAP4 SWAP1 SLOAD SWAP3 PUSH2 0x40E7 JUMP JUMPDEST SWAP2 PUSH1 0x3 SHL SHR PUSH2 0x4018 JUMP JUMPDEST PUSH1 0x0 DUP2 SGT PUSH2 0x4071 JUMPI JUMPDEST POP POP SWAP2 SWAP1 JUMP JUMPDEST PUSH2 0x4093 SWAP2 SWAP5 POP PUSH2 0x226A SWAP3 POP DUP1 SWAP5 PUSH8 0xDE0B6B3A7640000 SWAP4 DUP5 SWAP2 PUSH2 0x13A SLOAD PUSH2 0x409B JUMP JUMPDEST DIV CODESIZE DUP1 PUSH2 0x406B JUMP JUMPDEST DUP2 DUP2 MUL SWAP3 SWAP2 DUP2 ISZERO SWAP2 DUP5 DIV EQ OR ISZERO PUSH2 0x3F74 JUMPI JUMP JUMPDEST DUP2 ISZERO PUSH2 0x40B8 JUMPI DIV SWAP1 JUMP JUMPDEST PUSH4 0x4E487B71 PUSH1 0xE0 SHL PUSH1 0x0 MSTORE PUSH1 0x12 PUSH1 0x4 MSTORE PUSH1 0x24 PUSH1 0x0 REVERT JUMPDEST DUP2 DUP2 SUB SWAP3 SWAP2 PUSH1 0x0 SGT DUP1 ISZERO DUP3 DUP6 SGT AND SWAP2 DUP5 SLT AND OR PUSH2 0x3F74 JUMPI JUMP JUMPDEST PUSH2 0x40F3 DUP2 PUSH2 0x137 PUSH2 0x3A15 JUMP JUMPDEST POP SLOAD SWAP1 PUSH8 0xDE0B6B3A7640000 SWAP2 DUP3 DUP2 MUL SWAP3 DUP2 DUP5 DIV EQ SWAP1 ISZERO OR ISZERO PUSH2 0x3F74 JUMPI PUSH2 0x3962 SWAP3 PUSH2 0x4133 PUSH2 0x4126 PUSH2 0x4139 SWAP4 PUSH2 0x151 PUSH2 0x38E0 JUMP JUMPDEST SWAP1 SLOAD SWAP1 PUSH1 0x3 SHL SHR DUP5 PUSH2 0x40AE JUMP JUMPDEST SWAP3 PUSH2 0x40AE JUMP JUMPDEST SWAP1 PUSH2 0x40CE JUMP JUMPDEST DUP1 ISZERO PUSH2 0x4155 JUMPI PUSH2 0x3FFD PUSH2 0x3962 SWAP3 PUSH2 0x131 SLOAD PUSH2 0x415D JUMP JUMPDEST POP POP PUSH1 0x0 NOT SWAP1 JUMP JUMPDEST SWAP2 SWAP1 DUP3 SUB SWAP2 DUP3 GT PUSH2 0x3F74 JUMPI JUMP JUMPDEST PUSH8 0xFFFFFFFFFFFFFFFF DUP2 GT PUSH2 0x3A53 JUMPI PUSH1 0x5 SHL PUSH1 0x20 ADD SWAP1 JUMP JUMPDEST SWAP1 PUSH2 0x418C DUP3 PUSH2 0x416A JUMP JUMPDEST PUSH2 0x4199 PUSH1 0x40 MLOAD SWAP2 DUP3 PUSH2 0x3A31 JUMP JUMPDEST DUP3 DUP2 MSTORE DUP1 SWAP3 PUSH2 0x41AA PUSH1 0x1F NOT SWAP2 PUSH2 0x416A JUMP JUMPDEST ADD SWAP1 PUSH1 0x20 CALLDATASIZE SWAP2 ADD CALLDATACOPY JUMP JUMPDEST PUSH2 0x131 SLOAD DUP1 ISZERO PUSH2 0x3CC8 JUMPI PUSH2 0x137 SWAP1 DUP2 SLOAD SWAP2 PUSH1 0x0 SWAP1 PUSH2 0x41D1 DUP5 PUSH2 0x4182 JUMP JUMPDEST SWAP1 DUP3 SWAP1 JUMPDEST DUP6 DUP3 LT PUSH2 0x4257 JUMPI POP POP PUSH1 0x0 JUMPDEST DUP5 DUP2 LT PUSH2 0x41EF JUMPI POP POP POP POP POP JUMP JUMPDEST PUSH2 0x420C DUP5 PUSH2 0x4207 DUP6 PUSH2 0x4201 DUP6 DUP8 PUSH2 0x3F53 JUMP JUMPDEST MLOAD PUSH2 0x409B JUMP JUMPDEST PUSH2 0x40AE JUMP JUMPDEST SWAP1 PUSH2 0x138 SWAP2 DUP3 SLOAD PUSH9 0x10000000000000000 DUP2 LT ISZERO PUSH2 0x3A53 JUMPI PUSH2 0x4238 DUP2 PUSH1 0x1 SWAP6 DUP7 PUSH2 0x424F SWAP5 ADD DUP2 SSTORE PUSH2 0x38E0 JUMP JUMPDEST DUP2 SWAP4 SWAP2 SLOAD SWAP1 PUSH1 0x3 SHL SWAP2 DUP3 SHL SWAP2 PUSH1 0x0 NOT SWAP1 SHL NOT AND OR SWAP1 JUMP JUMPDEST SWAP1 SSTORE ADD PUSH2 0x41E1 JUMP JUMPDEST SWAP1 SWAP3 PUSH2 0x4293 PUSH1 0x1 SWAP2 PUSH2 0x4268 DUP7 PUSH2 0x42D6 JUMP JUMPDEST PUSH2 0x4272 DUP8 DUP8 PUSH2 0x3F53 JUMP JUMPDEST MSTORE PUSH2 0x4002 PUSH2 0x4280 DUP8 DUP7 PUSH2 0x3A15 JUMP JUMPDEST POP SLOAD PUSH2 0x428C DUP9 DUP9 PUSH2 0x3F53 JUMP JUMPDEST MLOAD SWAP1 PUSH2 0x52E1 JUMP JUMPDEST SWAP4 ADD SWAP1 PUSH2 0x41D5 JUMP JUMPDEST PUSH1 0x1 PUSH1 0x1 PUSH1 0xA0 SHL SUB AND PUSH1 0x0 SWAP1 DUP2 MSTORE PUSH2 0x136 PUSH1 0x20 MSTORE PUSH1 0x40 SWAP1 KECCAK256 PUSH1 0x1 DUP2 ADD SLOAD PUSH1 0xFF AND ISZERO PUSH2 0x42C4 JUMPI SLOAD SWAP1 JUMP JUMPDEST PUSH1 0x40 MLOAD PUSH4 0xE6C4247B PUSH1 0xE0 SHL DUP2 MSTORE PUSH1 0x4 SWAP1 REVERT JUMPDEST PUSH2 0x42E2 SWAP1 PUSH2 0x137 PUSH2 0x3A15 JUMP JUMPDEST POP PUSH1 0x1 ADD SLOAD PUSH1 0x1 PUSH1 0x1 PUSH1 0xA0 SHL SUB AND PUSH2 0x42F9 DUP2 PUSH2 0x432C JUMP JUMPDEST SWAP2 SWAP1 SWAP2 ISZERO PUSH2 0x759 JUMPI POP SWAP1 JUMP JUMPDEST MLOAD SWAP1 DUP2 ISZERO ISZERO DUP3 SUB PUSH2 0x771 JUMPI JUMP JUMPDEST SWAP2 SWAP1 DUP3 PUSH1 0x40 SWAP2 SUB SLT PUSH2 0x771 JUMPI PUSH2 0x3962 PUSH1 0x20 DUP4 MLOAD SWAP4 ADD PUSH2 0x4305 JUMP JUMPDEST PUSH1 0x40 DUP1 MLOAD PUSH4 0x59E02DD7 PUSH1 0xE0 SHL DUP2 MSTORE SWAP3 SWAP2 DUP4 SWAP1 PUSH1 0x4 SWAP1 DUP3 SWAP1 PUSH1 0x1 PUSH1 0x1 PUSH1 0xA0 SHL SUB AND GAS STATICCALL SWAP2 DUP3 ISZERO PUSH2 0x4392 JUMPI PUSH1 0x0 SWAP1 DUP2 SWAP4 PUSH2 0x4363 JUMPI POP SWAP2 SWAP1 JUMP JUMPDEST SWAP1 POP PUSH2 0x4387 SWAP2 SWAP3 POP PUSH1 0x40 RETURNDATASIZE DUP2 GT PUSH2 0x438B JUMPI JUMPDEST PUSH2 0x437F DUP2 DUP4 PUSH2 0x3A31 JUMP JUMPDEST DUP2 ADD SWAP1 PUSH2 0x4312 JUMP JUMPDEST SWAP1 SWAP2 JUMP JUMPDEST POP RETURNDATASIZE PUSH2 0x4375 JUMP JUMPDEST PUSH1 0x40 MLOAD RETURNDATASIZE PUSH1 0x0 DUP3 RETURNDATACOPY RETURNDATASIZE SWAP1 REVERT JUMPDEST PUSH2 0x137 SLOAD SWAP1 PUSH2 0x43AC DUP3 PUSH2 0x4182 JUMP JUMPDEST SWAP2 PUSH1 0x0 JUMPDEST DUP2 DUP2 LT PUSH2 0x43BB JUMPI POP POP JUMP JUMPDEST DUP1 PUSH2 0x43C7 PUSH1 0x1 SWAP3 PUSH2 0x42D6 JUMP JUMPDEST PUSH2 0x43D1 DUP3 DUP8 PUSH2 0x3F53 JUMP JUMPDEST MSTORE ADD PUSH2 0x43B0 JUMP JUMPDEST SWAP1 PUSH2 0x43F9 PUSH8 0xDE0B6B3A7640000 SWAP3 DUP4 PUSH2 0x157 SLOAD PUSH2 0x154 SLOAD SWAP3 NUMBER ADD SUB MUL PUSH2 0x40AE JUMP JUMPDEST DUP3 DUP2 LT ISZERO PUSH2 0x4416 JUMPI DUP3 SUB SWAP2 DUP1 DUP4 PUSH2 0x155 SLOAD MUL DIV SWAP3 PUSH2 0x156 SLOAD MUL SDIV SWAP1 JUMP JUMPDEST POP PUSH1 0x0 SWAP2 POP DUP2 SWAP1 JUMP JUMPDEST SWAP1 SWAP2 PUSH2 0x4429 PUSH2 0x4481 JUMP JUMPDEST SWAP3 SWAP1 DUP1 DUP3 LT ISZERO PUSH2 0x4477 JUMPI DUP4 SWAP2 PUSH2 0x443E SWAP2 PUSH2 0x415D JUMP JUMPDEST SWAP4 GT ISZERO PUSH2 0x4472 JUMPI DUP2 DUP2 LT ISZERO PUSH2 0x446A JUMPI PUSH2 0x4456 SWAP2 PUSH2 0x415D JUMP JUMPDEST PUSH1 0x1 SHR DUP1 DUP3 LT ISZERO PUSH2 0x4465 JUMPI POP SWAP1 JUMP JUMPDEST SWAP1 POP SWAP1 JUMP JUMPDEST POP POP POP PUSH1 0x0 SWAP1 JUMP JUMPDEST POP POP SWAP1 JUMP JUMPDEST POP POP POP POP POP PUSH1 0x0 SWAP1 JUMP JUMPDEST PUSH2 0x152 SLOAD PUSH1 0x40 DUP1 MLOAD PUSH4 0x59E02DD7 PUSH1 0xE0 SHL DUP1 DUP3 MSTORE SWAP4 SWAP3 SWAP1 SWAP2 SWAP1 PUSH1 0x1 PUSH1 0x1 PUSH1 0xA0 SHL SUB SWAP1 DUP2 AND DUP3 DUP5 PUSH1 0x4 DUP2 DUP5 GAS STATICCALL DUP1 ISZERO PUSH2 0x4571 JUMPI PUSH1 0x0 SWAP5 DUP6 SWAP2 PUSH2 0x454E JUMPI JUMPDEST POP ISZERO PUSH2 0x4537 JUMPI POP PUSH2 0x153 SLOAD AND SWAP1 DUP1 MLOAD SWAP5 DUP6 MSTORE DUP1 DUP6 PUSH1 0x4 DUP2 DUP6 GAS STATICCALL DUP1 ISZERO PUSH2 0x452C JUMPI PUSH1 0x0 SWAP6 DUP7 SWAP2 PUSH2 0x4509 JUMPI JUMPDEST POP ISZERO PUSH2 0x44F2 JUMPI POP POP SWAP2 SWAP1 JUMP JUMPDEST PUSH1 0x24 SWAP3 POP MLOAD SWAP1 PUSH4 0x5E89893 PUSH1 0xE1 SHL DUP3 MSTORE PUSH1 0x4 DUP3 ADD MSTORE REVERT JUMPDEST SWAP1 POP DUP2 PUSH2 0x4523 SWAP3 SWAP7 POP RETURNDATASIZE DUP8 GT PUSH2 0x438B JUMPI PUSH2 0x437F DUP2 DUP4 PUSH2 0x3A31 JUMP JUMPDEST SWAP5 SWAP1 SWAP5 CODESIZE PUSH2 0x44E6 JUMP JUMPDEST POP MLOAD RETURNDATASIZE PUSH1 0x0 DUP3 RETURNDATACOPY RETURNDATASIZE SWAP1 REVERT JUMPDEST PUSH1 0x24 SWAP1 DUP4 MLOAD SWAP1 PUSH4 0x5E89893 PUSH1 0xE1 SHL DUP3 MSTORE PUSH1 0x4 DUP3 ADD MSTORE REVERT JUMPDEST SWAP1 POP PUSH2 0x4568 SWAP2 SWAP5 POP DUP4 RETURNDATASIZE DUP6 GT PUSH2 0x438B JUMPI PUSH2 0x437F DUP2 DUP4 PUSH2 0x3A31 JUMP JUMPDEST SWAP4 SWAP1 SWAP4 CODESIZE PUSH2 0x44BC JUMP JUMPDEST DUP4 MLOAD RETURNDATASIZE PUSH1 0x0 DUP3 RETURNDATACOPY RETURNDATASIZE SWAP1 REVERT JUMPDEST SWAP1 PUSH2 0x3962 SWAP2 PUSH1 0x0 DUP1 PUSH2 0x458C PUSH2 0x3DFB JUMP JUMPDEST SWAP4 PUSH1 0x20 DUP2 MLOAD SWAP2 ADD DUP5 GAS DELEGATECALL PUSH2 0x3CC2 PUSH2 0x3E4F JUMP JUMPDEST PUSH2 0x460C SWAP4 PUSH2 0x45D3 PUSH1 0x0 SWAP3 PUSH1 0x20 SWAP6 PUSH2 0x45B7 DUP3 PUSH2 0x137 PUSH2 0x3A15 JUMP JUMPDEST POP PUSH2 0x45C3 DUP8 DUP3 SLOAD PUSH2 0x3F67 JUMP JUMPDEST SWAP1 SSTORE PUSH2 0x3144 PUSH2 0x131 SWAP2 DUP3 SLOAD PUSH2 0x3F67 JUMP JUMPDEST SWAP1 SLOAD PUSH1 0x40 MLOAD PUSH4 0x40C10F19 PUSH1 0xE0 SHL DUP2 MSTORE PUSH1 0x1 PUSH1 0x1 PUSH1 0xA0 SHL SUB SWAP1 SWAP4 AND PUSH1 0x4 DUP5 ADD MSTORE PUSH1 0x24 DUP4 ADD SWAP5 SWAP1 SWAP5 MSTORE SWAP1 SWAP5 DUP6 SWAP4 SWAP3 DUP5 SWAP3 SWAP1 SWAP2 DUP4 SWAP1 PUSH1 0x44 DUP3 ADD SWAP1 JUMP JUMPDEST SUB SWAP4 PUSH1 0x3 SWAP2 SWAP1 SWAP2 SHL SHR PUSH1 0x1 PUSH1 0x1 PUSH1 0xA0 SHL SUB AND GAS CALL DUP1 ISZERO PUSH2 0x4392 JUMPI PUSH2 0x462D JUMPI POP JUMP JUMPDEST PUSH1 0x20 DUP2 RETURNDATASIZE DUP3 GT PUSH2 0x4656 JUMPI JUMPDEST DUP2 PUSH2 0x4645 PUSH1 0x20 SWAP4 DUP4 PUSH2 0x3A31 JUMP JUMPDEST DUP2 ADD SUB SLT PUSH2 0x771 JUMPI PUSH2 0x3CC8 SWAP1 PUSH2 0x4305 JUMP JUMPDEST RETURNDATASIZE SWAP2 POP PUSH2 0x4638 JUMP JUMPDEST PUSH2 0x4238 PUSH2 0x46AF SWAP2 PUSH2 0x466F DUP5 DUP3 PUSH2 0x40E7 JUMP JUMPDEST PUSH2 0x46A5 PUSH2 0x467E DUP4 PUSH2 0x150 PUSH2 0x38E0 JUMP JUMPDEST PUSH2 0x4691 DUP3 SWAP5 SWAP3 SLOAD SWAP3 DUP4 DUP4 PUSH1 0x3 SHL SHR PUSH2 0x4018 JUMP JUMPDEST SWAP2 SWAP1 PUSH1 0x3 SHL SWAP2 DUP3 SHL SWAP2 PUSH1 0x0 NOT SWAP1 SHL NOT AND OR SWAP1 JUMP JUMPDEST SWAP1 SSTORE PUSH2 0x151 PUSH2 0x38E0 JUMP JUMPDEST SWAP1 SSTORE JUMP JUMPDEST PUSH1 0xE0 DUP2 ADD SWAP3 SWAP2 PUSH1 0xC0 SWAP1 DUP2 SWAP1 PUSH1 0x1 PUSH1 0x1 PUSH1 0xA0 SHL SUB DUP1 PUSH2 0x46D0 DUP4 PUSH2 0x390E JUMP JUMPDEST AND DUP6 MSTORE PUSH2 0x46DF PUSH1 0x20 DUP4 ADD PUSH2 0x390E JUMP JUMPDEST AND PUSH1 0x20 DUP6 ADD MSTORE PUSH1 0x40 DUP2 ADD CALLDATALOAD PUSH1 0x40 DUP6 ADD MSTORE PUSH1 0x60 DUP2 ADD CALLDATALOAD PUSH1 0x60 DUP6 ADD MSTORE PUSH1 0x80 DUP2 ADD CALLDATALOAD PUSH1 0x80 DUP6 ADD MSTORE PUSH1 0xA0 DUP2 ADD CALLDATALOAD PUSH1 0xA0 DUP6 ADD MSTORE ADD CALLDATALOAD SWAP2 ADD MSTORE JUMP JUMPDEST SWAP1 PUSH2 0x134 SLOAD SWAP1 DUP2 ISZERO PUSH2 0x4734 JUMPI PUSH2 0x3962 SWAP3 PUSH2 0x2A6F PUSH2 0x3FFD SWAP3 PUSH2 0x131 SLOAD PUSH2 0x415D JUMP JUMPDEST POP POP POP PUSH8 0xDE0B6B3A7640000 SWAP1 JUMP JUMPDEST DUP3 DUP3 PUSH2 0x474E SWAP3 PUSH2 0x476B JUMP JUMPDEST SWAP1 PUSH1 0x0 DUP3 SGT ISZERO PUSH2 0x446A JUMPI PUSH2 0x3962 SWAP3 PUSH2 0x4765 SWAP2 PUSH2 0x4714 JUMP JUMPDEST SWAP1 PUSH2 0x40AE JUMP JUMPDEST SWAP1 SWAP2 PUSH2 0x477A SWAP1 PUSH2 0x131 SLOAD PUSH2 0x415D JUMP JUMPDEST SWAP1 PUSH8 0xDE0B6B3A7640000 SWAP2 DUP3 DUP2 MUL SWAP3 DUP2 DUP5 DIV EQ SWAP1 ISZERO OR ISZERO PUSH2 0x3F74 JUMPI PUSH2 0x3962 SWAP3 PUSH2 0x4139 SWAP2 PUSH2 0x409B JUMP JUMPDEST SWAP3 PUSH2 0x47B0 SWAP3 SWAP4 SWAP5 SWAP2 SWAP5 PUSH2 0x476B JUMP JUMPDEST DUP2 DUP2 MUL SWAP2 PUSH1 0x0 SWAP2 PUSH1 0x1 PUSH1 0xFF SHL SWAP2 DUP4 DUP3 SLT DUP4 DUP3 EQ AND PUSH2 0x4854 JUMPI DUP2 DUP6 SDIV EQ SWAP1 ISZERO OR ISZERO PUSH2 0x4840 JUMPI PUSH8 0xDE0B6B3A763FFFF NOT DUP5 ADD SWAP4 DUP5 GT PUSH2 0x4840 JUMPI PUSH8 0xDE0B6B3A7640000 SWAP4 DUP5 DUP2 MUL SWAP5 DUP2 DUP7 DIV EQ SWAP1 ISZERO OR ISZERO PUSH2 0x4840 JUMPI DUP4 ISZERO PUSH2 0x482C JUMPI DUP3 EQ PUSH1 0x0 NOT DUP5 EQ AND PUSH2 0x4818 JUMPI POP SDIV SWAP1 JUMP JUMPDEST PUSH4 0x4E487B71 PUSH1 0xE0 SHL DUP2 MSTORE PUSH1 0x11 PUSH1 0x4 MSTORE PUSH1 0x24 SWAP1 REVERT JUMPDEST PUSH4 0x4E487B71 PUSH1 0xE0 SHL DUP3 MSTORE PUSH1 0x12 PUSH1 0x4 MSTORE PUSH1 0x24 DUP3 REVERT JUMPDEST PUSH4 0x4E487B71 PUSH1 0xE0 SHL DUP3 MSTORE PUSH1 0x11 PUSH1 0x4 MSTORE PUSH1 0x24 DUP3 REVERT JUMPDEST PUSH4 0x4E487B71 PUSH1 0xE0 SHL DUP5 MSTORE PUSH1 0x11 PUSH1 0x4 MSTORE PUSH1 0x24 DUP5 REVERT JUMPDEST PUSH2 0x14D SLOAD DUP1 NUMBER LT ISZERO PUSH2 0x487F JUMPI PUSH2 0x3962 SWAP1 NUMBER SWAP1 PUSH2 0x415D JUMP JUMPDEST POP PUSH1 0x0 SWAP1 JUMP JUMPDEST SWAP1 PUSH1 0x40 MLOAD PUSH2 0x4894 PUSH1 0x40 DUP3 PUSH2 0x3A31 JUMP JUMPDEST PUSH1 0x20 PUSH1 0x1 DUP3 SWAP5 DUP1 SLOAD DUP5 MSTORE ADD SLOAD SWAP2 ADD MSTORE JUMP JUMPDEST PUSH2 0x48B1 DUP2 PUSH2 0x148 PUSH2 0x38E0 JUMP JUMPDEST SWAP1 SLOAD SWAP1 PUSH1 0x3 SHL SHR SWAP2 PUSH2 0x18E SWAP2 PUSH2 0x48C7 DUP2 DUP5 PUSH2 0x3A15 JUMP JUMPDEST POP SLOAD SWAP3 PUSH2 0x18F SLOAD NUMBER LT ISZERO PUSH2 0x48ED JUMPI JUMPDEST POP POP DUP1 DUP3 LT ISZERO PUSH2 0x4472 JUMPI PUSH2 0x4207 SWAP1 PUSH2 0x3962 SWAP4 PUSH2 0x409B JUMP JUMPDEST DUP3 SWAP4 POP PUSH2 0x4901 PUSH2 0x490C SWAP4 SWAP3 PUSH2 0x4907 SWAP3 PUSH2 0x3A15 JUMP JUMPDEST POP PUSH2 0x4885 JUMP JUMPDEST PUSH2 0x4914 JUMP JUMPDEST SWAP1 CODESIZE DUP1 PUSH2 0x48D6 JUMP JUMPDEST PUSH1 0x20 DUP2 MLOAD SWAP2 ADD DUP1 MLOAD SWAP3 PUSH8 0xDE0B6B3A7640000 SWAP4 DUP5 SUB SWAP1 DUP5 DUP3 GT PUSH2 0x3F74 JUMPI PUSH2 0x4941 PUSH2 0x4002 SWAP3 PUSH2 0x3FBD SWAP6 PUSH2 0x409B JUMP JUMPDEST SWAP3 MLOAD PUSH2 0x409B JUMP JUMPDEST PUSH1 0x0 DUP1 PUSH2 0x137 SWAP2 DUP3 SLOAD SWAP3 PUSH2 0x495B DUP5 PUSH2 0x4182 JUMP JUMPDEST SWAP4 DUP3 SWAP2 JUMPDEST DUP2 DUP4 LT PUSH2 0x4988 JUMPI POP POP POP DUP2 ISZERO PUSH2 0x497C JUMPI SWAP1 PUSH2 0x4979 SWAP2 PUSH2 0x40AE JUMP JUMPDEST SWAP2 JUMP JUMPDEST POP POP PUSH2 0x149 SLOAD PUSH1 0x1 SHL SWAP2 JUMP JUMPDEST SWAP1 SWAP2 SWAP4 SWAP3 PUSH2 0x4995 DUP6 PUSH2 0x42D6 JUMP JUMPDEST SWAP1 DUP2 PUSH2 0x49A1 DUP8 DUP10 PUSH2 0x3F53 JUMP JUMPDEST MSTORE PUSH2 0x49BA PUSH2 0x49AF DUP4 DUP9 PUSH2 0x4034 JUMP JUMPDEST POP PUSH2 0x3FF6 DUP9 DUP7 PUSH2 0x3A15 JUMP JUMPDEST PUSH8 0xDE0B6B3A7640000 SWAP1 DUP2 DUP2 MUL SWAP2 DUP2 DUP4 DIV EQ SWAP1 ISZERO OR ISZERO PUSH2 0x3F74 JUMPI PUSH2 0x49FC PUSH2 0x4A02 SWAP3 PUSH2 0x4002 DUP6 PUSH2 0x49EE PUSH1 0x1 SWAP8 PUSH2 0x49F7 SWAP7 PUSH2 0x52E1 JUMP JUMPDEST SWAP5 DUP6 SWAP2 DUP13 PUSH2 0x48A5 JUMP JUMPDEST PUSH2 0x409B JUMP JUMPDEST SWAP6 PUSH2 0x3F67 JUMP JUMPDEST SWAP5 ADD SWAP2 SWAP1 PUSH2 0x495F JUMP JUMPDEST PUSH2 0x18F DUP1 SLOAD NUMBER LT ISZERO PUSH2 0x4A1A JUMPI POP JUMP JUMPDEST PUSH2 0x137 SLOAD PUSH1 0x0 JUMPDEST DUP2 DUP2 LT PUSH2 0x4A34 JUMPI POP POP PUSH2 0x190 SLOAD NUMBER ADD SWAP1 SSTORE JUMP JUMPDEST DUP1 DUP1 PUSH32 0x19156E9379C7BBBCE8F646CE5EE30BA860B8F954717405F3D5859A6C1A21AE60 PUSH1 0x1 SWAP4 PUSH2 0x18E PUSH2 0x4A6A PUSH2 0x4901 DUP4 DUP4 PUSH2 0x3A15 JUMP JUMPDEST SWAP1 PUSH2 0x4A88 PUSH2 0x4A80 PUSH2 0x4A7A DUP6 PUSH2 0x42D6 JUMP JUMPDEST DUP5 PUSH2 0x4914 JUMP JUMPDEST SWAP4 DUP5 SWAP3 PUSH2 0x3A15 JUMP JUMPDEST POP SSTORE MLOAD PUSH1 0x40 SWAP2 DUP3 MLOAD SWAP2 DUP3 MSTORE PUSH1 0x20 DUP3 ADD MSTORE LOG2 ADD PUSH2 0x4A21 JUMP JUMPDEST PUSH1 0x97 SLOAD PUSH1 0x40 MLOAD PUSH4 0xD994D6D5 PUSH1 0xE0 SHL DUP2 MSTORE CALLER PUSH1 0x4 DUP3 ADD MSTORE SWAP1 PUSH1 0x20 SWAP1 DUP3 SWAP1 PUSH1 0x24 SWAP1 DUP3 SWAP1 PUSH1 0x1 PUSH1 0x1 PUSH1 0xA0 SHL SUB AND GAS STATICCALL SWAP1 DUP2 ISZERO PUSH2 0x4392 JUMPI PUSH1 0x0 SWAP2 PUSH2 0x4AF4 JUMPI JUMPDEST POP ISZERO PUSH2 0x4AE2 JUMPI JUMP JUMPDEST PUSH1 0x40 MLOAD PUSH4 0x1DD1B1B5 PUSH1 0xE2 SHL DUP2 MSTORE PUSH1 0x4 SWAP1 REVERT JUMPDEST SWAP1 PUSH1 0x20 DUP3 RETURNDATASIZE DUP3 GT PUSH2 0x4B25 JUMPI JUMPDEST DUP2 PUSH2 0x4B0D PUSH1 0x20 SWAP4 DUP4 PUSH2 0x3A31 JUMP JUMPDEST DUP2 ADD SUB SLT PUSH2 0x584 JUMPI POP PUSH2 0x4B1F SWAP1 PUSH2 0x4305 JUMP JUMPDEST CODESIZE PUSH2 0x4ADA JUMP JUMPDEST RETURNDATASIZE SWAP2 POP PUSH2 0x4B00 JUMP JUMPDEST PUSH1 0xFF PUSH1 0xCA SLOAD PUSH1 0x8 SHR AND PUSH2 0x4B3C JUMPI JUMP JUMPDEST PUSH1 0x40 MLOAD PUSH4 0x783BB6C9 PUSH1 0xE1 SHL DUP2 MSTORE PUSH1 0x4 SWAP1 REVERT JUMPDEST ISZERO PUSH2 0x4B55 JUMPI JUMP JUMPDEST PUSH1 0x40 MLOAD PUSH3 0x461BCD PUSH1 0xE5 SHL DUP2 MSTORE PUSH1 0x20 PUSH1 0x4 DUP3 ADD MSTORE PUSH1 0x2B PUSH1 0x24 DUP3 ADD MSTORE PUSH32 0x496E697469616C697A61626C653A20636F6E7472616374206973206E6F742069 PUSH1 0x44 DUP3 ADD MSTORE PUSH11 0x6E697469616C697A696E67 PUSH1 0xA8 SHL PUSH1 0x64 DUP3 ADD MSTORE PUSH1 0x84 SWAP1 REVERT JUMPDEST SWAP1 DUP1 PUSH2 0x4BB8 JUMPI POP POP JUMP JUMPDEST PUSH2 0x229 SLOAD PUSH1 0x40 MLOAD PUSH4 0xA9059CBB PUSH1 0xE0 SHL PUSH1 0x20 DUP3 ADD MSTORE PUSH1 0x1 PUSH1 0x1 PUSH1 0xA0 SHL SUB SWAP4 DUP5 AND PUSH1 0x24 DUP3 ADD MSTORE PUSH1 0x44 DUP1 DUP3 ADD SWAP4 SWAP1 SWAP4 MSTORE SWAP2 DUP3 MSTORE PUSH2 0x39A5 SWAP3 AND PUSH2 0x4BF8 PUSH1 0x64 DUP4 PUSH2 0x3A31 JUMP JUMPDEST PUSH1 0x20 SWAP2 PUSH2 0x4C5B SWAP2 PUSH1 0x1 PUSH1 0x1 PUSH1 0xA0 SHL SUB AND PUSH1 0x0 DUP1 PUSH2 0x4C14 DUP7 PUSH2 0x3A69 JUMP JUMPDEST SWAP4 PUSH2 0x4C22 PUSH1 0x40 MLOAD SWAP6 DUP7 PUSH2 0x3A31 JUMP JUMPDEST DUP7 DUP6 MSTORE PUSH32 0x5361666545524332303A206C6F772D6C6576656C2063616C6C206661696C6564 DUP8 DUP7 ADD MSTORE DUP7 DUP2 MLOAD SWAP2 ADD DUP3 DUP6 GAS CALL PUSH2 0x3CC2 PUSH2 0x3E4F JUMP JUMPDEST DUP1 MLOAD DUP3 DUP2 ISZERO SWAP2 DUP3 ISZERO PUSH2 0x4CCB JUMPI JUMPDEST POP POP SWAP1 POP ISZERO PUSH2 0x4C74 JUMPI POP JUMP JUMPDEST PUSH1 0x84 SWAP1 PUSH1 0x40 MLOAD SWAP1 PUSH3 0x461BCD PUSH1 0xE5 SHL DUP3 MSTORE PUSH1 0x4 DUP3 ADD MSTORE PUSH1 0x2A PUSH1 0x24 DUP3 ADD MSTORE PUSH32 0x5361666545524332303A204552433230206F7065726174696F6E20646964206E PUSH1 0x44 DUP3 ADD MSTORE PUSH10 0x1BDD081CDD58D8D95959 PUSH1 0xB2 SHL PUSH1 0x64 DUP3 ADD MSTORE REVERT JUMPDEST DUP4 DUP1 SWAP3 SWAP4 POP ADD SUB SLT PUSH2 0x771 JUMPI DUP2 PUSH2 0x4CE2 SWAP2 ADD PUSH2 0x4305 JUMP JUMPDEST DUP1 DUP3 CODESIZE PUSH2 0x4C68 JUMP JUMPDEST PUSH2 0x229 SLOAD PUSH1 0x40 MLOAD PUSH4 0x70A08231 PUSH1 0xE0 SHL DUP2 MSTORE PUSH1 0x1 PUSH1 0x1 PUSH1 0xA0 SHL SUB SWAP3 DUP4 AND PUSH1 0x4 DUP3 ADD MSTORE SWAP2 PUSH1 0x20 SWAP2 DUP4 SWAP2 PUSH1 0x24 SWAP2 DUP4 SWAP2 AND GAS STATICCALL SWAP1 DUP2 ISZERO PUSH2 0x4392 JUMPI PUSH1 0x0 SWAP2 PUSH2 0x4D2B JUMPI POP SWAP1 JUMP JUMPDEST SWAP1 PUSH1 0x20 DUP3 RETURNDATASIZE DUP3 GT PUSH2 0x4D51 JUMPI JUMPDEST DUP2 PUSH2 0x4D44 PUSH1 0x20 SWAP4 DUP4 PUSH2 0x3A31 JUMP JUMPDEST DUP2 ADD SUB SLT PUSH2 0x584 JUMPI POP MLOAD SWAP1 JUMP JUMPDEST RETURNDATASIZE SWAP2 POP PUSH2 0x4D37 JUMP JUMPDEST PUSH1 0x40 MLOAD SWAP1 PUSH2 0x4D68 PUSH1 0x80 DUP4 PUSH2 0x3A31 JUMP JUMPDEST PUSH1 0x0 PUSH1 0x60 DUP4 DUP3 DUP2 MSTORE DUP3 PUSH1 0x20 DUP3 ADD MSTORE DUP3 PUSH1 0x40 DUP3 ADD MSTORE ADD MSTORE JUMP JUMPDEST PUSH1 0x40 MLOAD PUSH4 0x23B872DD PUSH1 0xE0 SHL PUSH1 0x20 DUP3 ADD MSTORE PUSH1 0x1 PUSH1 0x1 PUSH1 0xA0 SHL SUB SWAP3 DUP4 AND PUSH1 0x24 DUP3 ADD MSTORE SWAP3 SWAP1 SWAP2 AND PUSH1 0x44 DUP4 ADD MSTORE PUSH1 0x64 DUP1 DUP4 ADD SWAP4 SWAP1 SWAP4 MSTORE SWAP2 DUP2 MSTORE PUSH2 0x39A5 SWAP2 PUSH2 0x4BF8 PUSH1 0x84 DUP4 PUSH2 0x3A31 JUMP JUMPDEST PUSH1 0xFF PUSH2 0x14B SLOAD PUSH1 0x8 SHR AND PUSH2 0x4DD4 JUMPI JUMP JUMPDEST PUSH1 0x40 MLOAD PUSH4 0x1CA61D77 PUSH1 0xE0 SHL DUP2 MSTORE PUSH1 0x4 SWAP1 REVERT JUMPDEST SWAP2 SWAP1 PUSH2 0x4DF1 SWAP1 PUSH2 0x3F8A JUMP JUMPDEST SWAP2 SWAP1 SWAP3 PUSH2 0x4DFE DUP4 DUP6 PUSH2 0x413F JUMP JUMPDEST SWAP1 DUP1 DUP3 GT ISZERO PUSH2 0x4E0B JUMPI POP POP JUMP JUMPDEST PUSH1 0x44 SWAP3 POP PUSH1 0x40 MLOAD SWAP2 PUSH4 0x79121201 PUSH1 0xE0 SHL DUP4 MSTORE PUSH1 0x4 DUP4 ADD MSTORE PUSH1 0x24 DUP3 ADD MSTORE REVERT JUMPDEST SWAP3 SWAP1 SWAP4 SWAP2 PUSH1 0x0 SWAP2 PUSH1 0x0 SWAP2 DUP3 SWAP7 PUSH2 0x4E3D PUSH2 0x4D59 JUMP JUMPDEST SWAP7 PUSH1 0x1 PUSH1 0x1 PUSH1 0xA0 SHL SUB SWAP2 DUP6 SWAP1 DUP4 AND DUP1 PUSH2 0x5033 JUMPI JUMPDEST POP DUP3 PUSH2 0x12F SLOAD AND DUP4 PUSH1 0x40 MLOAD SWAP4 PUSH4 0x6EB1769F PUSH1 0xE1 SHL DUP6 MSTORE AND DUP1 PUSH1 0x4 DUP6 ADD MSTORE ADDRESS PUSH1 0x24 DUP6 ADD MSTORE PUSH1 0x20 SWAP5 DUP6 DUP6 PUSH1 0x44 DUP2 DUP7 GAS STATICCALL SWAP5 DUP6 ISZERO PUSH2 0x2B5B JUMPI DUP5 SWAP6 PUSH2 0x5004 JUMPI JUMPDEST POP DUP5 PUSH2 0x4EEE JUMPI JUMPDEST POP POP POP POP POP DUP7 ADD MLOAD ISZERO PUSH2 0x4EAA JUMPI JUMPDEST POP POP POP SWAP3 SWAP2 SWAP1 JUMP JUMPDEST SWAP1 SWAP2 SWAP3 POP PUSH2 0x4EC2 PUSH8 0xDE0B6B3A7640000 SWAP3 DUP4 SWAP3 PUSH2 0x409B JUMP JUMPDEST DIV DUP1 DUP6 MSTORE SWAP1 DUP3 ISZERO PUSH2 0x4EE6 JUMPI PUSH2 0x4EDE SWAP3 DIV SWAP1 DUP2 PUSH1 0x40 DUP7 ADD MSTORE PUSH2 0x3F67 JUMP JUMPDEST CODESIZE DUP1 DUP1 PUSH2 0x4EA2 JUMP JUMPDEST POP SWAP1 POP PUSH2 0x4EDE JUMP JUMPDEST PUSH2 0x4EFC SWAP1 PUSH2 0x130 SLOAD AND PUSH2 0x432C JUMP JUMPDEST SWAP3 SWAP1 SWAP3 ISZERO PUSH2 0x4E94 JUMPI SWAP1 SWAP2 SWAP3 SWAP4 SWAP12 POP DUP5 DUP12 PUSH2 0x4F36 DUP6 PUSH8 0xDE0B6B3A7640000 PUSH2 0x4F30 PUSH2 0x4F26 DUP14 DUP14 PUSH2 0x409B JUMP JUMPDEST PUSH2 0x143 SLOAD SWAP1 PUSH2 0x409B JUMP JUMPDEST DIV PUSH2 0x40AE JUMP JUMPDEST DUP2 DUP4 ADD DUP2 DUP2 MSTORE SWAP6 SWAP1 DUP12 ISZERO PUSH2 0x4FFA JUMPI POP PUSH2 0x4F61 SWAP2 PUSH2 0x4F55 PUSH1 0x60 SWAP3 DUP14 PUSH2 0x40AE JUMP JUMPDEST SWAP2 DUP3 SWAP2 ADD MSTORE DUP6 MLOAD PUSH2 0x3F67 JUMP JUMPDEST DUP1 SWAP14 JUMPDEST LT SWAP3 DUP4 ISZERO PUSH2 0x4F90 JUMPI JUMPDEST POP POP POP PUSH2 0x4F7D JUMPI JUMPDEST DUP1 DUP1 DUP1 PUSH2 0x4E94 JUMP JUMPDEST DUP2 SWAP3 SWAP10 POP MSTORE DUP1 PUSH1 0x60 DUP9 ADD MSTORE SWAP7 CODESIZE DUP1 PUSH2 0x4F75 JUMP JUMPDEST SWAP1 SWAP2 SWAP3 POP PUSH1 0x24 PUSH1 0x40 MLOAD DUP1 SWAP5 DUP2 SWAP4 PUSH4 0x70A08231 PUSH1 0xE0 SHL DUP4 MSTORE PUSH1 0x4 DUP4 ADD MSTORE GAS STATICCALL SWAP1 DUP2 ISZERO PUSH2 0x1833 JUMPI SWAP1 DUP12 SWAP2 DUP5 SWAP2 PUSH2 0x4FC9 JUMPI JUMPDEST POP LT CODESIZE DUP5 DUP2 PUSH2 0x4F6D JUMP JUMPDEST DUP1 SWAP3 POP DUP6 DUP1 SWAP3 POP RETURNDATASIZE DUP4 GT PUSH2 0x4FF3 JUMPI JUMPDEST PUSH2 0x4FE2 DUP2 DUP4 PUSH2 0x3A31 JUMP JUMPDEST DUP2 ADD SUB SLT PUSH2 0x17F3 JUMPI DUP11 SWAP1 MLOAD CODESIZE PUSH2 0x4FBF JUMP JUMPDEST POP RETURNDATASIZE PUSH2 0x4FD8 JUMP JUMPDEST SWAP2 POP POP DUP1 SWAP14 PUSH2 0x4F64 JUMP JUMPDEST SWAP1 SWAP5 POP DUP6 DUP2 DUP2 RETURNDATASIZE DUP4 GT PUSH2 0x502C JUMPI JUMPDEST PUSH2 0x501C DUP2 DUP4 PUSH2 0x3A31 JUMP JUMPDEST DUP2 ADD SUB SLT PUSH2 0x1140 JUMPI MLOAD SWAP4 CODESIZE PUSH2 0x4E8D JUMP JUMPDEST POP RETURNDATASIZE PUSH2 0x5012 JUMP JUMPDEST SWAP1 SWAP6 POP PUSH1 0x20 DUP4 PUSH2 0x1C3 SLOAD AND SWAP2 PUSH1 0x24 PUSH1 0x40 MLOAD DUP1 SWAP5 DUP2 SWAP4 PUSH4 0x64A731E9 PUSH1 0xE0 SHL DUP4 MSTORE PUSH1 0x4 DUP4 ADD MSTORE GAS STATICCALL DUP1 ISZERO PUSH2 0x2BCD JUMPI DUP7 SWAP1 PUSH2 0x5078 JUMPI JUMPDEST PUSH2 0x5071 SWAP2 POP DUP5 PUSH2 0x409B JUMP JUMPDEST SWAP5 CODESIZE PUSH2 0x4E51 JUMP JUMPDEST POP PUSH1 0x20 DUP2 RETURNDATASIZE DUP3 GT PUSH2 0x50A3 JUMPI JUMPDEST DUP2 PUSH2 0x5091 PUSH1 0x20 SWAP4 DUP4 PUSH2 0x3A31 JUMP JUMPDEST DUP2 ADD SUB SLT PUSH2 0x2533 JUMPI PUSH2 0x5071 SWAP1 MLOAD PUSH2 0x5066 JUMP JUMPDEST RETURNDATASIZE SWAP2 POP PUSH2 0x5084 JUMP JUMPDEST SWAP3 PUSH2 0x39A5 SWAP5 SWAP2 SWAP3 SWAP4 DUP3 MLOAD ISZERO ISZERO PUSH1 0x0 EQ PUSH2 0x511B JUMPI POP PUSH1 0x40 PUSH2 0x5116 SWAP3 PUSH2 0x510E PUSH8 0xDE0B6B3A7640000 PUSH2 0x50E0 PUSH2 0x13B SLOAD DUP5 MLOAD SWAP1 PUSH2 0x409B JUMP JUMPDEST DIV PUSH2 0x131 PUSH2 0x50EF DUP3 DUP3 SLOAD PUSH2 0x3F67 JUMP JUMPDEST SWAP1 SSTORE PUSH2 0x5108 PUSH1 0x1 DUP1 PUSH1 0xA0 SHL SUB PUSH2 0x146 SLOAD AND SWAP2 DUP5 MLOAD PUSH2 0x415D JUMP JUMPDEST SWAP1 PUSH2 0x4BAE JUMP JUMPDEST ADD MLOAD SWAP1 PUSH2 0x4BAE JUMP JUMPDEST PUSH2 0x4BAE JUMP JUMPDEST SWAP1 PUSH1 0x60 PUSH2 0x5116 SWAP4 PUSH2 0x513D PUSH1 0x1 DUP1 PUSH1 0xA0 SHL SUB PUSH2 0x146 SLOAD AND PUSH1 0x20 DUP4 ADD MLOAD SWAP1 DUP7 PUSH2 0x5141 JUMP JUMPDEST ADD MLOAD SWAP2 JUMPDEST SWAP2 SWAP1 DUP2 PUSH2 0x514D JUMPI POP POP POP JUMP JUMPDEST PUSH2 0x12F SLOAD PUSH2 0x39A5 SWAP4 SWAP1 PUSH1 0x1 PUSH1 0x1 PUSH1 0xA0 SHL SUB AND PUSH2 0x4D80 JUMP JUMPDEST SWAP1 PUSH2 0x5171 SWAP5 SWAP4 SWAP3 SWAP2 PUSH2 0x47A2 JUMP JUMPDEST PUSH1 0x0 DUP2 SLT PUSH2 0x487F JUMPI SWAP1 JUMP JUMPDEST DUP1 PUSH2 0x5185 PUSH2 0x4481 JUMP JUMPDEST SWAP2 SWAP1 SWAP4 PUSH2 0x5192 PUSH1 0x0 PUSH2 0x43D8 JUMP JUMPDEST SWAP5 ADD SWAP4 DUP3 SWAP2 PUSH2 0x522A JUMPI JUMPDEST ADD SWAP4 DUP5 PUSH1 0x0 DUP1 DUP3 SLT PUSH2 0x5224 JUMPI POP JUMPDEST DUP5 SUB SWAP2 DUP2 DUP6 GT PUSH2 0x51EC JUMPI POP POP DUP2 DUP2 GT PUSH2 0x51CE JUMPI POP POP PUSH2 0x155 SSTORE PUSH2 0x156 SSTORE NUMBER PUSH2 0x157 SSTORE JUMP JUMPDEST PUSH1 0x44 SWAP3 POP PUSH1 0x40 MLOAD SWAP2 PUSH4 0x6DA41E5 PUSH1 0xE1 SHL DUP4 MSTORE PUSH1 0x4 DUP4 ADD MSTORE PUSH1 0x24 DUP3 ADD MSTORE REVERT JUMPDEST SWAP1 DUP1 DUP6 SWAP3 GT PUSH2 0x5212 JUMPI PUSH1 0x44 SWAP2 PUSH1 0x40 MLOAD SWAP2 PUSH4 0x6DA41E5 PUSH1 0xE1 SHL DUP4 MSTORE PUSH1 0x4 DUP4 ADD MSTORE PUSH1 0x24 DUP3 ADD MSTORE REVERT JUMPDEST PUSH1 0x40 MLOAD PUSH4 0xFB4FD35 PUSH1 0xE1 SHL DUP2 MSTORE PUSH1 0x4 SWAP1 REVERT JUMPDEST SUB PUSH2 0x51AA JUMP JUMPDEST SWAP1 POP DUP2 PUSH1 0x0 SUB SWAP1 PUSH2 0x519C JUMP JUMPDEST DUP1 SWAP2 SUB PUSH1 0xE0 DUP2 SLT PUSH2 0x771 JUMPI DUP2 MLOAD SWAP3 PUSH1 0x20 DUP4 ADD MLOAD SWAP3 PUSH1 0x80 PUSH1 0x40 DUP3 ADD MLOAD SWAP4 PUSH1 0x5F NOT ADD SLT PUSH2 0x771 JUMPI PUSH1 0xC0 PUSH1 0x40 MLOAD SWAP2 PUSH2 0x526C PUSH1 0x80 DUP5 PUSH2 0x3A31 JUMP JUMPDEST PUSH1 0x60 DUP2 ADD MLOAD DUP4 MSTORE PUSH1 0x80 DUP2 ADD MLOAD PUSH1 0x20 DUP5 ADD MSTORE PUSH1 0xA0 DUP2 ADD MLOAD PUSH1 0x40 DUP5 ADD MSTORE ADD MLOAD PUSH1 0x60 DUP3 ADD MSTORE SWAP1 JUMP JUMPDEST PUSH1 0xC0 SWAP1 DUP2 PUSH1 0x1 DUP1 PUSH1 0xA0 SHL SUB SWAP2 DUP3 DUP2 MLOAD AND DUP6 MSTORE PUSH1 0x20 DUP2 ADD MLOAD PUSH1 0x20 DUP7 ADD MSTORE PUSH1 0x40 DUP2 ADD MLOAD PUSH1 0x40 DUP7 ADD MSTORE PUSH1 0x60 DUP2 ADD MLOAD PUSH1 0x60 DUP7 ADD MSTORE DUP3 PUSH1 0x80 DUP3 ADD MLOAD AND PUSH1 0x80 DUP7 ADD MSTORE DUP3 PUSH1 0xA0 DUP3 ADD MLOAD AND PUSH1 0xA0 DUP7 ADD MSTORE ADD MLOAD AND SWAP2 ADD MSTORE JUMP JUMPDEST SWAP1 PUSH8 0xDE0B6B3A7640000 SWAP2 DUP3 DUP2 MUL SWAP3 DUP2 DUP5 DIV EQ SWAP1 ISZERO OR ISZERO PUSH2 0x3F74 JUMPI PUSH2 0x3962 SWAP2 PUSH2 0x40AE JUMP JUMPDEST PUSH8 0xDE0B6B3A7640000 GT ISZERO PUSH2 0x1FCA JUMPI JUMP INVALID LOG2 PUSH5 0x6970667358 0x22 SLT KECCAK256 BASEFEE DUP16 DIFFICULTY 0x4C PUSH23 0xA17275962FA4224C1906DE0A7EBFCB37AA26BE3A49B20B 0x4E SIGNEXTEND DUP15 0xE0 PUSH5 0x736F6C6343 STOP ADDMOD EQ STOP CALLER "
    },
    "gasEstimates": {
      "creation": {
        "codeDepositCost": "4264800",
        "executionCost": "infinite",
        "totalCost": "infinite"
      },
      "external": {
        "absoluteAccumulator()": "4455",
        "acToken()": "2675",
        "addPeggedToken((address,address,uint256,uint256,uint256,uint256,uint256))": "infinite",
        "appreciationFactor()": "4851",
        "bes()": "3091",
        "bns()": "2519",
        "calcCtargemaCA()": "infinite",
        "changeGovernor(address)": "infinite",
        "decayBlockSpan()": "3531",
        "differentialAccumulator()": "3641",
        "editPeggedToken((address,address,uint256,uint256,uint256,uint256,uint256))": "infinite",
        "emaCalculationBlockSpan()": "3773",
        "evalLiquidation()": "infinite",
        "execSettlement()": "infinite",
        "feeRetainer()": "3135",
        "feeToken()": "3445",
        "feeTokenPct()": "2761",
        "feeTokenPriceProvider()": "4743",
        "getBts()": "4792",
        "getCglb()": "infinite",
        "getLckAC()": "infinite",
        "getLeverageTC()": "infinite",
        "getPACtp(address)": "infinite",
        "getPTCac()": "infinite",
        "getTCAvailableToRedeem()": "infinite",
        "getTPAvailableToMint(address)": "infinite",
        "getTotalACavailable()": "infinite",
        "getTpAmount()": "4934",
        "governor()": "2367",
        "initialize((((address,address,address,address,address,address,uint256,uint256,uint256,uint256,uint256,uint256,uint256,uint256,uint256,uint256,uint256,uint256,uint256,uint256,address,uint256,uint256,address,address,uint256),address,address,address,uint256,address),address))": "infinite",
        "isLiquidationReached()": "infinite",
        "lastOperationBlockNumber()": "3267",
        "liqEnabled()": "4665",
        "liqRedeemTP(address,address)": "infinite",
        "liqThrld()": "3993",
        "liquidated()": "2625",
        "makeStoppable()": "infinite",
        "makeUnstoppable()": "infinite",
        "maxAbsoluteOpProvider()": "4721",
        "maxOpDiffProvider()": "4237",
        "maxQACToMintTP()": "infinite",
        "maxQACToRedeemTP()": "infinite",
        "mintTC(uint256,uint256,address,address)": "infinite",
        "mintTCandTP(address,uint256,uint256,address,address)": "infinite",
        "mintTCandTPFee()": "3707",
        "mintTP(address,uint256,uint256,address,address)": "infinite",
        "mocAppreciationBeneficiaryAddress()": "3137",
        "mocFeeFlowAddress()": "4083",
        "mocQueue()": "2499",
        "mocVendors()": "3885",
        "nACcb()": "4785",
        "nTCcb()": "3729",
        "nextEmaCalculation()": "2365",
        "nextTCInterestPayment()": "4235",
        "pause()": "29306",
        "paused()": "3329",
        "pauser()": "4158",
        "pegContainer(uint256)": "9580",
        "peggedTokenIndex(address)": "6357",
        "protThrld()": "3509",
        "proxiableUUID()": "infinite",
        "qACLockedInPending()": "3333",
        "redeemTC(uint256,uint256,address,address)": "infinite",
        "redeemTCandTP(address,uint256,uint256,uint256,address,address)": "infinite",
        "redeemTCandTPFee()": "4807",
        "redeemTP(address,uint256,uint256,address,address)": "infinite",
        "refreshACBalance()": "infinite",
        "setAppreciationFactor(uint256)": "infinite",
        "setBes(uint256)": "infinite",
        "setDecayBlockSpan(uint256)": "infinite",
        "setEmaCalculationBlockSpan(uint256)": "infinite",
        "setFeeRetainer(uint256)": "infinite",
        "setFeeTokenAddress(address)": "infinite",
        "setFeeTokenPct(uint256)": "infinite",
        "setFeeTokenPriceProviderAddress(address)": "infinite",
        "setLiqEnabled(bool)": "infinite",
        "setLiqThrld(uint256)": "infinite",
        "setMaxAbsoluteOpProviderAddress(address)": "infinite",
        "setMaxOpDiffProviderAddress(address)": "infinite",
        "setMintTCandTPFee(uint256)": "infinite",
        "setMocAppreciationBeneficiaryAddress(address)": "infinite",
        "setMocCoreExpansion(address)": "infinite",
        "setMocFeeFlowAddress(address)": "infinite",
        "setMocQueue(address)": "infinite",
        "setMocVendors(address)": "infinite",
        "setPauser(address)": "infinite",
        "setProtThrld(uint256)": "infinite",
        "setRedeemTCandTPFee(uint256)": "infinite",
        "setSuccessFee(uint256)": "infinite",
        "setSwapTCforTPFee(uint256)": "infinite",
        "setSwapTPforTCFee(uint256)": "infinite",
        "setSwapTPforTPFee(uint256)": "infinite",
        "setTCInterestCollectorAddress(address)": "infinite",
        "setTCInterestPaymentBlockSpan(uint256)": "infinite",
        "setTCInterestRate(uint256)": "infinite",
        "setTcMintFee(uint256)": "infinite",
        "setTcRedeemFee(uint256)": "infinite",
        "shouldCalculateEma()": "4155",
        "stoppable()": "4269",
        "successFee()": "3619",
        "swapTCforTP(address,uint256,uint256,uint256,address,address)": "infinite",
        "swapTCforTPFee()": "2695",
        "swapTPforTC(address,uint256,uint256,uint256,address,address)": "infinite",
        "swapTPforTCFee()": "2827",
        "swapTPforTP(address,address,uint256,uint256,uint256,address,address)": "infinite",
        "swapTPforTPFee()": "3025",
        "tcHoldersInterestPayment()": "infinite",
        "tcInterestCollectorAddress()": "4039",
        "tcInterestPaymentBlockSpan()": "3905",
        "tcInterestRate()": "2409",
        "tcMintFee()": "4895",
        "tcRedeemFee()": "4169",
        "tcToken()": "3379",
        "tpCtarg(uint256)": "8203",
        "tpEma(uint256)": "11121",
        "tpLiqPrices(uint256)": "7279",
        "tpMintFees(address)": "2744",
        "tpRedeemFees(address)": "4636",
        "tpTokens(uint256)": "6665",
        "unpause()": "infinite",
        "updateEmas()": "infinite",
        "upgradeTo(address)": "infinite",
        "upgradeToAndCall(address,bytes)": "infinite"
      },
      "internal": {
        "acBalanceOf(address)": "infinite",
        "acTransfer(address,uint256)": "infinite"
      }
    },
    "methodIdentifiers": {
      "absoluteAccumulator()": "d87aab6f",
      "acToken()": "25bc6c41",
      "addPeggedToken((address,address,uint256,uint256,uint256,uint256,uint256))": "db796072",
      "appreciationFactor()": "fa6e83bd",
      "bes()": "4d977e78",
      "bns()": "1867e2f5",
      "calcCtargemaCA()": "662013f4",
      "changeGovernor(address)": "e4c0aaf4",
      "decayBlockSpan()": "6f30471f",
      "differentialAccumulator()": "76228055",
      "editPeggedToken((address,address,uint256,uint256,uint256,uint256,uint256))": "f26114aa",
      "emaCalculationBlockSpan()": "7a727fe8",
      "evalLiquidation()": "33421c38",
      "execSettlement()": "5c616a73",
      "feeRetainer()": "4f0f27ee",
      "feeToken()": "647846a5",
      "feeTokenPct()": "2ded50f0",
      "feeTokenPriceProvider()": "f13f4054",
      "getBts()": "e8859a15",
      "getCglb()": "826fcd58",
      "getLckAC()": "8f1a383a",
      "getLeverageTC()": "c039cc69",
      "getPACtp(address)": "fadda424",
      "getPTCac()": "1fb0dda0",
      "getTCAvailableToRedeem()": "4017936a",
      "getTPAvailableToMint(address)": "f88b1434",
      "getTotalACavailable()": "de8d520a",
      "getTpAmount()": "fe6b92c1",
      "governor()": "0c340a24",
      "initialize((((address,address,address,address,address,address,uint256,uint256,uint256,uint256,uint256,uint256,uint256,uint256,uint256,uint256,uint256,uint256,uint256,uint256,address,uint256,uint256,address,address,uint256),address,address,address,uint256,address),address))": "60a01dfa",
      "isLiquidationReached()": "9ad6659d",
      "lastOperationBlockNumber()": "5860ee63",
      "liqEnabled()": "e7c25978",
      "liqRedeemTP(address,address)": "47dda6af",
      "liqThrld()": "8cfa4241",
      "liquidated()": "23b98cde",
      "makeStoppable()": "68274357",
      "makeUnstoppable()": "5210570c",
      "maxAbsoluteOpProvider()": "ee1f438f",
      "maxOpDiffProvider()": "b5e9ea8c",
      "maxQACToMintTP()": "d6af11da",
      "maxQACToRedeemTP()": "7f13b998",
      "mintTC(uint256,uint256,address,address)": "60ef07bf",
      "mintTCandTP(address,uint256,uint256,address,address)": "fdcdc11e",
      "mintTCandTPFee()": "79f9a91c",
      "mintTP(address,uint256,uint256,address,address)": "d2dc25a5",
      "mocAppreciationBeneficiaryAddress()": "4e1f907a",
      "mocFeeFlowAddress()": "9853c35a",
      "mocQueue()": "13ed7ba5",
      "mocVendors()": "7f01c715",
      "nACcb()": "f30b5614",
      "nTCcb()": "7a193c31",
      "nextEmaCalculation()": "0c36d897",
      "nextTCInterestPayment()": "b9fa6413",
      "pause()": "8456cb59",
      "paused()": "5c975abb",
      "pauser()": "9fd0506d",
      "pegContainer(uint256)": "4b746001",
      "peggedTokenIndex(address)": "9cabfc00",
      "protThrld()": "6b5488df",
      "proxiableUUID()": "52d1902d",
      "qACLockedInPending()": "5cfbe578",
      "redeemTC(uint256,uint256,address,address)": "b03e11a0",
      "redeemTCandTP(address,uint256,uint256,uint256,address,address)": "34d70ffa",
      "redeemTCandTPFee()": "f375cfba",
      "redeemTP(address,uint256,uint256,address,address)": "2eccb11c",
      "refreshACBalance()": "e23c135c",
      "setAppreciationFactor(uint256)": "01dde6ef",
      "setBes(uint256)": "c84353c9",
      "setDecayBlockSpan(uint256)": "73e28af9",
      "setEmaCalculationBlockSpan(uint256)": "3bc4ac0a",
      "setFeeRetainer(uint256)": "7750ba0c",
      "setFeeTokenAddress(address)": "cf351c1d",
      "setFeeTokenPct(uint256)": "543aeb48",
      "setFeeTokenPriceProviderAddress(address)": "0f1e5e2b",
      "setLiqEnabled(bool)": "1fe6a7ad",
      "setLiqThrld(uint256)": "2c43bd3b",
      "setMaxAbsoluteOpProviderAddress(address)": "d8db6f5a",
      "setMaxOpDiffProviderAddress(address)": "85bf9593",
      "setMintTCandTPFee(uint256)": "2069f753",
      "setMocAppreciationBeneficiaryAddress(address)": "27eab2a1",
      "setMocCoreExpansion(address)": "e6a683e0",
      "setMocFeeFlowAddress(address)": "0d6ac463",
      "setMocQueue(address)": "3cfb09ef",
      "setMocVendors(address)": "533a4bea",
      "setPauser(address)": "2d88af4a",
      "setProtThrld(uint256)": "7cba2383",
      "setRedeemTCandTPFee(uint256)": "7a4ff1d9",
      "setSuccessFee(uint256)": "becaca6b",
      "setSwapTCforTPFee(uint256)": "7af5758c",
      "setSwapTPforTCFee(uint256)": "0e0a8fd2",
      "setSwapTPforTPFee(uint256)": "70713468",
      "setTCInterestCollectorAddress(address)": "735d3960",
      "setTCInterestPaymentBlockSpan(uint256)": "073763b9",
      "setTCInterestRate(uint256)": "64ec230a",
      "setTcMintFee(uint256)": "f2808778",
      "setTcRedeemFee(uint256)": "c00f538d",
      "shouldCalculateEma()": "a8e9ac30",
      "stoppable()": "bb4872de",
      "successFee()": "7554fffd",
      "swapTCforTP(address,uint256,uint256,uint256,address,address)": "797709ca",
      "swapTCforTPFee()": "2a20d57d",
      "swapTPforTC(address,uint256,uint256,uint256,address,address)": "14b4906d",
      "swapTPforTCFee()": "333431fd",
      "swapTPforTP(address,address,uint256,uint256,uint256,address,address)": "2ed35ca1",
      "swapTPforTPFee()": "407f0e34",
      "tcHoldersInterestPayment()": "0579188f",
      "tcInterestCollectorAddress()": "8e2bdb86",
      "tcInterestPaymentBlockSpan()": "7f4a4fe0",
      "tcInterestRate()": "0db49656",
      "tcMintFee()": "fda70f8b",
      "tcRedeemFee()": "aea038dc",
      "tcToken()": "60009e0b",
      "tpCtarg(uint256)": "7d8e0314",
      "tpEma(uint256)": "e6b1627c",
      "tpLiqPrices(uint256)": "3915edcb",
      "tpMintFees(address)": "24ffaba3",
      "tpRedeemFees(address)": "ddb6d190",
      "tpTokens(uint256)": "01f1b684",
      "unpause()": "3f4ba83a",
      "updateEmas()": "d1a0faa0",
      "upgradeTo(address)": "3659cfe6",
      "upgradeToAndCall(address,bytes)": "4f1ef286"
    }
  },
  "storageLayout": {
    "storage": [
      {
        "astId": 950,
        "contract": "contracts/mocks/MocCoreMock.sol:MocCoreMock",
        "label": "_initialized",
        "offset": 0,
        "slot": "0",
        "type": "t_uint8"
      },
      {
        "astId": 953,
        "contract": "contracts/mocks/MocCoreMock.sol:MocCoreMock",
        "label": "_initializing",
        "offset": 1,
        "slot": "0",
        "type": "t_bool"
      },
      {
        "astId": 932,
        "contract": "contracts/mocks/MocCoreMock.sol:MocCoreMock",
        "label": "__gap",
        "offset": 0,
        "slot": "1",
        "type": "t_array(t_uint256)50_storage"
      },
      {
        "astId": 1247,
        "contract": "contracts/mocks/MocCoreMock.sol:MocCoreMock",
        "label": "__gap",
        "offset": 0,
        "slot": "51",
        "type": "t_array(t_uint256)50_storage"
      },
      {
        "astId": 25922,
        "contract": "contracts/mocks/MocCoreMock.sol:MocCoreMock",
        "label": "__gap",
        "offset": 0,
        "slot": "101",
        "type": "t_array(t_uint256)50_storage"
      },
      {
        "astId": 19559,
        "contract": "contracts/mocks/MocCoreMock.sol:MocCoreMock",
        "label": "governor",
        "offset": 0,
        "slot": "151",
        "type": "t_contract(IGovernor)20396"
      },
      {
        "astId": 19630,
        "contract": "contracts/mocks/MocCoreMock.sol:MocCoreMock",
        "label": "__gap",
        "offset": 0,
        "slot": "152",
        "type": "t_array(t_uint256)50_storage"
      },
      {
        "astId": 19699,
        "contract": "contracts/mocks/MocCoreMock.sol:MocCoreMock",
        "label": "stoppable",
        "offset": 0,
        "slot": "202",
        "type": "t_bool"
      },
      {
        "astId": 19701,
        "contract": "contracts/mocks/MocCoreMock.sol:MocCoreMock",
        "label": "_paused",
        "offset": 1,
        "slot": "202",
        "type": "t_bool"
      },
      {
        "astId": 19703,
        "contract": "contracts/mocks/MocCoreMock.sol:MocCoreMock",
        "label": "pauser",
        "offset": 2,
        "slot": "202",
        "type": "t_address"
      },
      {
        "astId": 19875,
        "contract": "contracts/mocks/MocCoreMock.sol:MocCoreMock",
        "label": "__gap",
        "offset": 0,
        "slot": "203",
        "type": "t_array(t_uint256)50_storage"
      },
      {
        "astId": 19681,
        "contract": "contracts/mocks/MocCoreMock.sol:MocCoreMock",
        "label": "__gap",
        "offset": 0,
        "slot": "253",
        "type": "t_array(t_uint256)50_storage"
      },
      {
        "astId": 9261,
        "contract": "contracts/mocks/MocCoreMock.sol:MocCoreMock",
        "label": "feeToken",
        "offset": 0,
        "slot": "303",
        "type": "t_contract(IERC20)6209"
      },
      {
        "astId": 9264,
        "contract": "contracts/mocks/MocCoreMock.sol:MocCoreMock",
        "label": "feeTokenPriceProvider",
        "offset": 0,
        "slot": "304",
        "type": "t_contract(IPriceProvider)20434"
      },
      {
        "astId": 9266,
        "contract": "contracts/mocks/MocCoreMock.sol:MocCoreMock",
        "label": "nACcb",
        "offset": 0,
        "slot": "305",
        "type": "t_uint256"
      },
      {
        "astId": 9268,
        "contract": "contracts/mocks/MocCoreMock.sol:MocCoreMock",
        "label": "nACioucb",
        "offset": 0,
        "slot": "306",
        "type": "t_uint256"
      },
      {
        "astId": 9271,
        "contract": "contracts/mocks/MocCoreMock.sol:MocCoreMock",
        "label": "tcToken",
        "offset": 0,
        "slot": "307",
        "type": "t_contract(MocTC)25747"
      },
      {
        "astId": 9273,
        "contract": "contracts/mocks/MocCoreMock.sol:MocCoreMock",
        "label": "nTCcb",
        "offset": 0,
        "slot": "308",
        "type": "t_uint256"
      },
      {
        "astId": 9277,
        "contract": "contracts/mocks/MocCoreMock.sol:MocCoreMock",
        "label": "tpTokens",
        "offset": 0,
        "slot": "309",
        "type": "t_array(t_contract(IMocRC20)20422)dyn_storage"
      },
      {
        "astId": 9282,
        "contract": "contracts/mocks/MocCoreMock.sol:MocCoreMock",
        "label": "peggedTokenIndex",
        "offset": 0,
        "slot": "310",
        "type": "t_mapping(t_address,t_struct(PeggedTokenIndex)9205_storage)"
      },
      {
        "astId": 9286,
        "contract": "contracts/mocks/MocCoreMock.sol:MocCoreMock",
        "label": "pegContainer",
        "offset": 0,
        "slot": "311",
        "type": "t_array(t_struct(PegContainerItem)9200_storage)dyn_storage"
      },
      {
        "astId": 9289,
        "contract": "contracts/mocks/MocCoreMock.sol:MocCoreMock",
        "label": "tpLiqPrices",
        "offset": 0,
        "slot": "312",
        "type": "t_array(t_uint256)dyn_storage"
      },
      {
        "astId": 9291,
        "contract": "contracts/mocks/MocCoreMock.sol:MocCoreMock",
        "label": "successFee",
        "offset": 0,
        "slot": "313",
        "type": "t_uint256"
      },
      {
        "astId": 9293,
        "contract": "contracts/mocks/MocCoreMock.sol:MocCoreMock",
        "label": "appreciationFactor",
        "offset": 0,
        "slot": "314",
        "type": "t_uint256"
      },
      {
        "astId": 9295,
        "contract": "contracts/mocks/MocCoreMock.sol:MocCoreMock",
        "label": "feeRetainer",
        "offset": 0,
        "slot": "315",
        "type": "t_uint256"
      },
      {
        "astId": 9297,
        "contract": "contracts/mocks/MocCoreMock.sol:MocCoreMock",
        "label": "tcMintFee",
        "offset": 0,
        "slot": "316",
        "type": "t_uint256"
      },
      {
        "astId": 9299,
        "contract": "contracts/mocks/MocCoreMock.sol:MocCoreMock",
        "label": "tcRedeemFee",
        "offset": 0,
        "slot": "317",
        "type": "t_uint256"
      },
      {
        "astId": 9301,
        "contract": "contracts/mocks/MocCoreMock.sol:MocCoreMock",
        "label": "swapTPforTPFee",
        "offset": 0,
        "slot": "318",
        "type": "t_uint256"
      },
      {
        "astId": 9303,
        "contract": "contracts/mocks/MocCoreMock.sol:MocCoreMock",
        "label": "swapTPforTCFee",
        "offset": 0,
        "slot": "319",
        "type": "t_uint256"
      },
      {
        "astId": 9305,
        "contract": "contracts/mocks/MocCoreMock.sol:MocCoreMock",
        "label": "swapTCforTPFee",
        "offset": 0,
        "slot": "320",
        "type": "t_uint256"
      },
      {
        "astId": 9307,
        "contract": "contracts/mocks/MocCoreMock.sol:MocCoreMock",
        "label": "redeemTCandTPFee",
        "offset": 0,
        "slot": "321",
        "type": "t_uint256"
      },
      {
        "astId": 9309,
        "contract": "contracts/mocks/MocCoreMock.sol:MocCoreMock",
        "label": "mintTCandTPFee",
        "offset": 0,
        "slot": "322",
        "type": "t_uint256"
      },
      {
        "astId": 9311,
        "contract": "contracts/mocks/MocCoreMock.sol:MocCoreMock",
        "label": "feeTokenPct",
        "offset": 0,
        "slot": "323",
        "type": "t_uint256"
      },
      {
        "astId": 9315,
        "contract": "contracts/mocks/MocCoreMock.sol:MocCoreMock",
        "label": "tpMintFees",
        "offset": 0,
        "slot": "324",
        "type": "t_mapping(t_address,t_uint256)"
      },
      {
        "astId": 9319,
        "contract": "contracts/mocks/MocCoreMock.sol:MocCoreMock",
        "label": "tpRedeemFees",
        "offset": 0,
        "slot": "325",
        "type": "t_mapping(t_address,t_uint256)"
      },
      {
        "astId": 9321,
        "contract": "contracts/mocks/MocCoreMock.sol:MocCoreMock",
        "label": "mocFeeFlowAddress",
        "offset": 0,
        "slot": "326",
        "type": "t_address"
      },
      {
        "astId": 9323,
        "contract": "contracts/mocks/MocCoreMock.sol:MocCoreMock",
        "label": "mocAppreciationBeneficiaryAddress",
        "offset": 0,
        "slot": "327",
        "type": "t_address"
      },
      {
        "astId": 9326,
        "contract": "contracts/mocks/MocCoreMock.sol:MocCoreMock",
        "label": "tpCtarg",
        "offset": 0,
        "slot": "328",
        "type": "t_array(t_uint256)dyn_storage"
      },
      {
        "astId": 9328,
        "contract": "contracts/mocks/MocCoreMock.sol:MocCoreMock",
        "label": "protThrld",
        "offset": 0,
        "slot": "329",
        "type": "t_uint256"
      },
      {
        "astId": 9330,
        "contract": "contracts/mocks/MocCoreMock.sol:MocCoreMock",
        "label": "liqThrld",
        "offset": 0,
        "slot": "330",
        "type": "t_uint256"
      },
      {
        "astId": 9332,
        "contract": "contracts/mocks/MocCoreMock.sol:MocCoreMock",
        "label": "liqEnabled",
        "offset": 0,
        "slot": "331",
        "type": "t_bool"
      },
      {
        "astId": 9334,
        "contract": "contracts/mocks/MocCoreMock.sol:MocCoreMock",
        "label": "liquidated",
        "offset": 1,
        "slot": "331",
        "type": "t_bool"
      },
      {
        "astId": 9336,
        "contract": "contracts/mocks/MocCoreMock.sol:MocCoreMock",
        "label": "bes",
        "offset": 0,
        "slot": "332",
        "type": "t_uint256"
      },
      {
        "astId": 9338,
        "contract": "contracts/mocks/MocCoreMock.sol:MocCoreMock",
        "label": "bns",
        "offset": 0,
        "slot": "333",
        "type": "t_uint256"
      },
      {
        "astId": 9340,
        "contract": "contracts/mocks/MocCoreMock.sol:MocCoreMock",
        "label": "qACLockedInPending",
        "offset": 0,
        "slot": "334",
        "type": "t_uint256"
      },
      {
        "astId": 9342,
        "contract": "contracts/mocks/MocCoreMock.sol:MocCoreMock",
        "label": "mocQueue",
        "offset": 0,
        "slot": "335",
        "type": "t_address_payable"
      },
      {
        "astId": 9345,
        "contract": "contracts/mocks/MocCoreMock.sol:MocCoreMock",
        "label": "tpiou",
        "offset": 0,
        "slot": "336",
        "type": "t_array(t_int256)dyn_storage"
      },
      {
        "astId": 9348,
        "contract": "contracts/mocks/MocCoreMock.sol:MocCoreMock",
        "label": "pACtpLstop",
        "offset": 0,
        "slot": "337",
        "type": "t_array(t_uint256)dyn_storage"
      },
      {
        "astId": 9351,
        "contract": "contracts/mocks/MocCoreMock.sol:MocCoreMock",
        "label": "maxAbsoluteOpProvider",
        "offset": 0,
        "slot": "338",
        "type": "t_contract(IDataProvider)20375"
      },
      {
        "astId": 9354,
        "contract": "contracts/mocks/MocCoreMock.sol:MocCoreMock",
        "label": "maxOpDiffProvider",
        "offset": 0,
        "slot": "339",
        "type": "t_contract(IDataProvider)20375"
      },
      {
        "astId": 9356,
        "contract": "contracts/mocks/MocCoreMock.sol:MocCoreMock",
        "label": "decayBlockSpan",
        "offset": 0,
        "slot": "340",
        "type": "t_uint256"
      },
      {
        "astId": 9358,
        "contract": "contracts/mocks/MocCoreMock.sol:MocCoreMock",
        "label": "absoluteAccumulator",
        "offset": 0,
        "slot": "341",
        "type": "t_uint256"
      },
      {
        "astId": 9360,
        "contract": "contracts/mocks/MocCoreMock.sol:MocCoreMock",
        "label": "differentialAccumulator",
        "offset": 0,
        "slot": "342",
        "type": "t_int256"
      },
      {
        "astId": 9362,
        "contract": "contracts/mocks/MocCoreMock.sol:MocCoreMock",
        "label": "lastOperationBlockNumber",
        "offset": 0,
        "slot": "343",
        "type": "t_uint256"
      },
      {
        "astId": 9364,
        "contract": "contracts/mocks/MocCoreMock.sol:MocCoreMock",
        "label": "tcInterestCollectorAddress",
        "offset": 0,
        "slot": "344",
        "type": "t_address"
      },
      {
        "astId": 9366,
        "contract": "contracts/mocks/MocCoreMock.sol:MocCoreMock",
        "label": "tcInterestRate",
        "offset": 0,
        "slot": "345",
        "type": "t_uint256"
      },
      {
        "astId": 9368,
        "contract": "contracts/mocks/MocCoreMock.sol:MocCoreMock",
        "label": "tcInterestPaymentBlockSpan",
        "offset": 0,
        "slot": "346",
        "type": "t_uint256"
      },
      {
        "astId": 9370,
        "contract": "contracts/mocks/MocCoreMock.sol:MocCoreMock",
        "label": "nextTCInterestPayment",
        "offset": 0,
        "slot": "347",
        "type": "t_uint256"
      },
      {
        "astId": 10983,
        "contract": "contracts/mocks/MocCoreMock.sol:MocCoreMock",
        "label": "__gap",
        "offset": 0,
        "slot": "348",
        "type": "t_array(t_uint256)50_storage"
      },
      {
        "astId": 14765,
        "contract": "contracts/mocks/MocCoreMock.sol:MocCoreMock",
        "label": "tpEma",
        "offset": 0,
        "slot": "398",
        "type": "t_array(t_struct(EmaItem)14761_storage)dyn_storage"
      },
      {
        "astId": 14767,
        "contract": "contracts/mocks/MocCoreMock.sol:MocCoreMock",
        "label": "nextEmaCalculation",
        "offset": 0,
        "slot": "399",
        "type": "t_uint256"
      },
      {
        "astId": 14769,
        "contract": "contracts/mocks/MocCoreMock.sol:MocCoreMock",
        "label": "emaCalculationBlockSpan",
        "offset": 0,
        "slot": "400",
        "type": "t_uint256"
      },
      {
        "astId": 15141,
        "contract": "contracts/mocks/MocCoreMock.sol:MocCoreMock",
        "label": "__gap",
        "offset": 0,
        "slot": "401",
        "type": "t_array(t_uint256)50_storage"
      },
      {
        "astId": 11017,
        "contract": "contracts/mocks/MocCoreMock.sol:MocCoreMock",
        "label": "mocVendors",
        "offset": 0,
        "slot": "451",
        "type": "t_contract(MocVendors)26052"
      },
      {
        "astId": 11890,
        "contract": "contracts/mocks/MocCoreMock.sol:MocCoreMock",
        "label": "__gap",
        "offset": 0,
        "slot": "452",
        "type": "t_array(t_uint256)50_storage"
      },
      {
        "astId": 11939,
        "contract": "contracts/mocks/MocCoreMock.sol:MocCoreMock",
        "label": "mocCoreExpansion",
        "offset": 0,
        "slot": "502",
        "type": "t_address"
      },
      {
        "astId": 13528,
        "contract": "contracts/mocks/MocCoreMock.sol:MocCoreMock",
        "label": "__gap",
        "offset": 0,
        "slot": "503",
        "type": "t_array(t_uint256)50_storage"
      },
      {
        "astId": 20652,
        "contract": "contracts/mocks/MocCoreMock.sol:MocCoreMock",
        "label": "acToken",
        "offset": 0,
        "slot": "553",
        "type": "t_contract(IERC20)6209"
      },
      {
        "astId": 21436,
        "contract": "contracts/mocks/MocCoreMock.sol:MocCoreMock",
        "label": "__gap",
        "offset": 0,
        "slot": "554",
        "type": "t_array(t_uint256)50_storage"
      }
    ],
    "types": {
      "t_address": {
        "encoding": "inplace",
        "label": "address",
        "numberOfBytes": "20"
      },
      "t_address_payable": {
        "encoding": "inplace",
        "label": "address payable",
        "numberOfBytes": "20"
      },
      "t_array(t_contract(IMocRC20)20422)dyn_storage": {
        "base": "t_contract(IMocRC20)20422",
        "encoding": "dynamic_array",
        "label": "contract IMocRC20[]",
        "numberOfBytes": "32"
      },
      "t_array(t_int256)dyn_storage": {
        "base": "t_int256",
        "encoding": "dynamic_array",
        "label": "int256[]",
        "numberOfBytes": "32"
      },
      "t_array(t_struct(EmaItem)14761_storage)dyn_storage": {
        "base": "t_struct(EmaItem)14761_storage",
        "encoding": "dynamic_array",
        "label": "struct MocEma.EmaItem[]",
        "numberOfBytes": "32"
      },
      "t_array(t_struct(PegContainerItem)9200_storage)dyn_storage": {
        "base": "t_struct(PegContainerItem)9200_storage",
        "encoding": "dynamic_array",
        "label": "struct MocBaseBucket.PegContainerItem[]",
        "numberOfBytes": "32"
      },
      "t_array(t_uint256)50_storage": {
        "base": "t_uint256",
        "encoding": "inplace",
        "label": "uint256[50]",
        "numberOfBytes": "1600"
      },
      "t_array(t_uint256)dyn_storage": {
        "base": "t_uint256",
        "encoding": "dynamic_array",
        "label": "uint256[]",
        "numberOfBytes": "32"
      },
      "t_bool": {
        "encoding": "inplace",
        "label": "bool",
        "numberOfBytes": "1"
      },
      "t_contract(IDataProvider)20375": {
        "encoding": "inplace",
        "label": "contract IDataProvider",
        "numberOfBytes": "20"
      },
      "t_contract(IERC20)6209": {
        "encoding": "inplace",
        "label": "contract IERC20",
        "numberOfBytes": "20"
      },
      "t_contract(IGovernor)20396": {
        "encoding": "inplace",
        "label": "contract IGovernor",
        "numberOfBytes": "20"
      },
      "t_contract(IMocRC20)20422": {
        "encoding": "inplace",
        "label": "contract IMocRC20",
        "numberOfBytes": "20"
      },
      "t_contract(IPriceProvider)20434": {
        "encoding": "inplace",
        "label": "contract IPriceProvider",
        "numberOfBytes": "20"
      },
      "t_contract(MocTC)25747": {
        "encoding": "inplace",
        "label": "contract MocTC",
        "numberOfBytes": "20"
      },
      "t_contract(MocVendors)26052": {
        "encoding": "inplace",
        "label": "contract MocVendors",
        "numberOfBytes": "20"
      },
      "t_int256": {
        "encoding": "inplace",
        "label": "int256",
        "numberOfBytes": "32"
      },
      "t_mapping(t_address,t_struct(PeggedTokenIndex)9205_storage)": {
        "encoding": "mapping",
        "key": "t_address",
        "label": "mapping(address => struct MocBaseBucket.PeggedTokenIndex)",
        "numberOfBytes": "32",
        "value": "t_struct(PeggedTokenIndex)9205_storage"
      },
      "t_mapping(t_address,t_uint256)": {
        "encoding": "mapping",
        "key": "t_address",
        "label": "mapping(address => uint256)",
        "numberOfBytes": "32",
        "value": "t_uint256"
      },
      "t_struct(EmaItem)14761_storage": {
        "encoding": "inplace",
        "label": "struct MocEma.EmaItem",
        "members": [
          {
            "astId": 14758,
            "contract": "contracts/mocks/MocCoreMock.sol:MocCoreMock",
            "label": "ema",
            "offset": 0,
            "slot": "0",
            "type": "t_uint256"
          },
          {
            "astId": 14760,
            "contract": "contracts/mocks/MocCoreMock.sol:MocCoreMock",
            "label": "sf",
            "offset": 0,
            "slot": "1",
            "type": "t_uint256"
          }
        ],
        "numberOfBytes": "64"
      },
      "t_struct(PegContainerItem)9200_storage": {
        "encoding": "inplace",
        "label": "struct MocBaseBucket.PegContainerItem",
        "members": [
          {
            "astId": 9196,
            "contract": "contracts/mocks/MocCoreMock.sol:MocCoreMock",
            "label": "nTP",
            "offset": 0,
            "slot": "0",
            "type": "t_uint256"
          },
          {
            "astId": 9199,
            "contract": "contracts/mocks/MocCoreMock.sol:MocCoreMock",
            "label": "priceProvider",
            "offset": 0,
            "slot": "1",
            "type": "t_contract(IPriceProvider)20434"
          }
        ],
        "numberOfBytes": "64"
      },
      "t_struct(PeggedTokenIndex)9205_storage": {
        "encoding": "inplace",
        "label": "struct MocBaseBucket.PeggedTokenIndex",
        "members": [
          {
            "astId": 9202,
            "contract": "contracts/mocks/MocCoreMock.sol:MocCoreMock",
            "label": "index",
            "offset": 0,
            "slot": "0",
            "type": "t_uint256"
          },
          {
            "astId": 9204,
            "contract": "contracts/mocks/MocCoreMock.sol:MocCoreMock",
            "label": "exists",
            "offset": 0,
            "slot": "1",
            "type": "t_bool"
          }
        ],
        "numberOfBytes": "64"
      },
      "t_uint256": {
        "encoding": "inplace",
        "label": "uint256",
        "numberOfBytes": "32"
      },
      "t_uint8": {
        "encoding": "inplace",
        "label": "uint8",
        "numberOfBytes": "1"
      }
    }
  },
  "userdoc": {
    "kind": "user",
    "methods": {
      "addPeggedToken((address,address,uint256,uint256,uint256,uint256,uint256))": {
        "notice": "add a Pegged Token to the protocol"
      },
      "calcCtargemaCA()": {
        "notice": "calculates target coverage adjusted by all Pegged Token's to Collateral Asset rate moving average"
      },
      "changeGovernor(address)": {
        "notice": "Change the contract's governor. Should be called through the old governance system"
      },
      "editPeggedToken((address,address,uint256,uint256,uint256,uint256,uint256))": {
        "notice": "modifies a Pegged Token of the protocol"
      },
      "evalLiquidation()": {
        "notice": "evaluates if liquidation threshold has been reached and liq is Enabled. If so forces contracts liquidation, blocking all mint & redeem operations. May emit a {ContractLiquidated} event."
      },
      "execSettlement()": {
        "notice": "this function is executed during settlement.  stores amount of locked AC by Pegged Tokens at this moment and distribute success fee"
      },
      "getBts()": {
        "notice": "get the number of blocks remaining for settlement"
      },
      "getCglb()": {
        "notice": "get bucket global coverage"
      },
      "getLckAC()": {
        "notice": "get amount of Collateral Asset locked by Pegged Token"
      },
      "getLeverageTC()": {
        "notice": "get Collateral Token leverage"
      },
      "getPACtp(address)": {
        "notice": "get how many Pegged Token equal 1 Collateral Asset"
      },
      "getPTCac()": {
        "notice": "get Collateral Token price"
      },
      "getTCAvailableToRedeem()": {
        "notice": "get amount of Collateral Token available to redeem"
      },
      "getTPAvailableToMint(address)": {
        "notice": "get amount of Pegged Token available to mint"
      },
      "getTotalACavailable()": {
        "notice": "get total Collateral Asset available"
      },
      "getTpAmount()": {
        "notice": "return current amount of Tps"
      },
      "governor()": {
        "notice": "The address of the contract which governs this one"
      },
      "initialize((((address,address,address,address,address,address,uint256,uint256,uint256,uint256,uint256,uint256,uint256,uint256,uint256,uint256,uint256,uint256,uint256,uint256,address,uint256,uint256,address,address,uint256),address,address,address,uint256,address),address))": {
        "notice": "contract initializer"
      },
      "isLiquidationReached()": {
        "notice": "If liquidation is enabled, verifies if forced liquidation has been reached, checking if globalCoverage <= liquidation"
      },
      "liqRedeemTP(address,address)": {
        "notice": "Allow redeem on liquidation state, user Peg balance gets burned and he receives the equivalent AC given the liquidation frozen price."
      },
      "makeStoppable()": {
        "notice": "Switches ON the stoppability of the contract. It can be paused or unpaused  Doesn't change the pause state, if the contract was already paused it cannot be operated"
      },
      "makeUnstoppable()": {
        "notice": "Switches OFF the stoppability of the contract. It cannot be paused or unpaused Doesn't change the pause state, if the contract was already paused it cannot be operated"
      },
      "maxQACToMintTP()": {
        "notice": "gets the max amount of AC allowed to operate to mint TP with, restricted by accumulators // TODO: move this function to a MocView contract"
      },
      "maxQACToRedeemTP()": {
        "notice": "gets the max amount of AC allowed to operate to redeem TP with, restricted by accumulators // TODO: move this function to a MocView contract"
      },
      "mintTC(uint256,uint256,address,address)": {
        "notice": "caller sends Collateral Asset and recipient receives Collateral Token  `vendor_` receives a markup in Fee Token if possible or in qAC if not   Requires prior sender approval of Collateral Asset to this contract"
      },
      "mintTCandTP(address,uint256,uint256,address,address)": {
        "notice": "caller sends Collateral Asset and recipient receives Collateral Token and Pegged Token  `vendor_` receives a markup in Fee Token if possible or in qAC if not  Requires prior sender approval of Collateral Asset to this contract  This operation is done without checking coverage  Collateral Token and Pegged Token are minted in equivalent proportions so that its price  and global coverage are not modified.  Reverts if qAC sent are insufficient."
      },
      "mintTP(address,uint256,uint256,address,address)": {
        "notice": "caller sends Collateral Asset and recipient receives Pegged Token  `vendor_` receives a markup in Fee Token if possible or in qAC if not   Requires prior sender approval of Collateral Asset to this contract"
      },
      "pause()": {
        "notice": "Called by the owner to pause, triggers stopped state"
      },
      "paused()": {
        "notice": "Returns true if paused"
      },
      "redeemTC(uint256,uint256,address,address)": {
        "notice": "caller sends Collateral Token and recipient receives Collateral Asset  `vendor_` receives a markup in Fee Token if possible or in qAC if not"
      },
      "redeemTCandTP(address,uint256,uint256,uint256,address,address)": {
        "notice": "Caller sends Collateral Token and Pegged Token and recipient receives Collateral Asset.  `vendor_` receives a markup in Fee Token if possible or in Collateral Asset if not  This operation is done without checking coverage  Collateral Token and Pegged Token are redeemed in equivalent proportions so that their price  and global coverage are not modified.  Reverts if qTP sent are insufficient."
      },
      "redeemTP(address,uint256,uint256,address,address)": {
        "notice": "caller sends Pegged Token and recipient receives Collateral Asset  `vendor_` receives a markup in Fee Token if possible or in qAC if not"
      },
      "refreshACBalance()": {
        "notice": "Refreshes the AC holdings for the Bucket"
      },
      "setPauser(address)": {
        "notice": "Changes the address which is enable to pause this contract"
      },
      "shouldCalculateEma()": {
        "notice": "true if the necessary span has pass since last ema update"
      },
      "swapTCforTP(address,uint256,uint256,uint256,address,address)": {
        "notice": "Caller sends a Collateral Token and recipient receives Pegged Token.  `vendor_` receives a markup in Fee Token if possible or in qAC if not."
      },
      "swapTPforTC(address,uint256,uint256,uint256,address,address)": {
        "notice": "caller sends a Pegged Token and recipient receives Collateral Token  `vendor_` receives a markup in Fee Token if possible or in qAC if not"
      },
      "swapTPforTP(address,address,uint256,uint256,uint256,address,address)": {
        "notice": "caller sends a Pegged Token and recipient receives another one  `vendor_` receives a markup in Fee Token if possible or in qAC if not"
      },
      "tcHoldersInterestPayment()": {
        "notice": "executes the interest payment of the TC holders  can only be executed after a block span"
      },
      "unpause()": {
        "notice": "Called by the owner to unpause, returns to normal state"
      },
      "updateEmas()": {
        "notice": "If time, calculates the EMA for all the Pegged Token prices."
      }
    },
    "version": 1
  }
}