{
  "contractName": "AddPeggedTokenChangerTemplate",
  "sourceName": "contracts/governance/changerTemplates/AddPeggedTokenChangerTemplate.sol",
  "abi": [
    {
      "inputs": [
        {
          "internalType": "contract MocCore",
          "name": "mocCore_",
          "type": "address"
        },
        {
          "components": [
            {
              "internalType": "address",
              "name": "tpTokenAddress",
              "type": "address"
            },
            {
              "internalType": "address",
              "name": "priceProviderAddress",
              "type": "address"
            },
            {
              "internalType": "uint256",
              "name": "tpCtarg",
              "type": "uint256"
            },
            {
              "internalType": "uint256",
              "name": "tpMintFee",
              "type": "uint256"
            },
            {
              "internalType": "uint256",
              "name": "tpRedeemFee",
              "type": "uint256"
            },
            {
              "internalType": "uint256",
              "name": "tpEma",
              "type": "uint256"
            },
            {
              "internalType": "uint256",
              "name": "tpEmaSf",
              "type": "uint256"
            }
          ],
          "internalType": "struct MocCore.PeggedTokenParams",
          "name": "peggedTokenParams_",
          "type": "tuple"
        }
      ],
      "stateMutability": "nonpayable",
      "type": "constructor"
    },
    {
      "inputs": [],
      "name": "InvalidAddress",
      "type": "error"
    },
    {
      "inputs": [],
      "name": "InvalidValue",
      "type": "error"
    },
    {
      "inputs": [],
      "name": "execute",
      "outputs": [],
      "stateMutability": "nonpayable",
      "type": "function"
    },
    {
      "inputs": [],
      "name": "getPeggedTokenParams",
      "outputs": [
        {
          "components": [
            {
              "internalType": "address",
              "name": "tpTokenAddress",
              "type": "address"
            },
            {
              "internalType": "address",
              "name": "priceProviderAddress",
              "type": "address"
            },
            {
              "internalType": "uint256",
              "name": "tpCtarg",
              "type": "uint256"
            },
            {
              "internalType": "uint256",
              "name": "tpMintFee",
              "type": "uint256"
            },
            {
              "internalType": "uint256",
              "name": "tpRedeemFee",
              "type": "uint256"
            },
            {
              "internalType": "uint256",
              "name": "tpEma",
              "type": "uint256"
            },
            {
              "internalType": "uint256",
              "name": "tpEmaSf",
              "type": "uint256"
            }
          ],
          "internalType": "struct MocCore.PeggedTokenParams",
          "name": "",
          "type": "tuple"
        }
      ],
      "stateMutability": "view",
      "type": "function"
    },
    {
      "inputs": [],
      "name": "mocCore",
      "outputs": [
        {
          "internalType": "contract MocCore",
          "name": "",
          "type": "address"
        }
      ],
      "stateMutability": "view",
      "type": "function"
    }
  ],
  "bytecode": "0x608060405234801561001057600080fd5b5060405161049138038061049183398101604081905261002f91610164565b603280546001600160a01b038085166001600160a01b031992831617909255825160338054918416918316919091179055602083015160348054919093169116179055604081015160358190556060820151603655608082015160375560a082015160385560c0820151603955670de0b6b3a764000011156100c457604051632a9ffab760e21b815260040160405180910390fd5b60608101516100d290610113565b60808101516100e090610113565b670de0b6b3a76400008160c001511061010c57604051632a9ffab760e21b815260040160405180910390fd5b5050610228565b670de0b6b3a764000081111561013c57604051632a9ffab760e21b815260040160405180910390fd5b50565b6001600160a01b038116811461013c57600080fd5b805161015f8161013f565b919050565b60008082840361010081121561017957600080fd5b83516101848161013f565b925060e0601f198201121561019857600080fd5b5060405160e081016001600160401b03811182821017156101c957634e487b7160e01b600052604160045260246000fd5b6040526101d860208501610154565b81526101e660408501610154565b6020820152606084015160408201526080840151606082015260a0840151608082015260c084015160a082015260e084015160c0820152809150509250929050565b61025a806102376000396000f3fe608060405234801561001057600080fd5b50600436106100415760003560e01c806361461954146100465780639699ab9514610050578063d9a862d6146100c0575b600080fd5b61004e6100eb565b005b610058610181565b6040516100b7919081516001600160a01b0390811682526020808401519091169082015260408083015190820152606080830151908201526080808301519082015260a0828101519082015260c0918201519181019190915260e00190565b60405180910390f35b6032546100d3906001600160a01b031681565b6040516001600160a01b0390911681526020016100b7565b603254604051636dbcb03960e11b81526033546001600160a01b0390811660048301526034548116602483015260355460448301526036546064830152603754608483015260385460a483015260395460c48301529091169063db7960729060e401600060405180830381600087803b15801561016757600080fd5b505af115801561017b573d6000803e3d6000fd5b50505050565b6101d36040518060e0016040528060006001600160a01b0316815260200160006001600160a01b0316815260200160008152602001600081526020016000815260200160008152602001600081525090565b506040805160e0810182526033546001600160a01b039081168252603454166020820152603554918101919091526036546060820152603754608082015260385460a082015260395460c08201529056fea2646970667358221220832aefaabf7ad770cee5ed99c27799c5001269177c355cbfb5405470781cda0364736f6c63430008110033",
  "linkReferences": {},
  "deployedLinkReferences": {},
  "devdoc": {
    "kind": "dev",
    "methods": {
      "constructor": {
        "params": {
          "mocCore_": "Address of the contract to add Pegged Token to"
        }
      },
      "execute()": {
        "details": "Should be called by the governor, but this contract does not check that explicitly because it is not its responsibility in the current architecture"
      }
    },
    "title": "AddPeggedTokenChangerTemplate",
    "version": 1
  },
  "evm": {
    "bytecode": {
      "linkReferences": {},
      "opcodes": "PUSH1 0x80 PUSH1 0x40 MSTORE CALLVALUE DUP1 ISZERO PUSH2 0x10 JUMPI PUSH1 0x0 DUP1 REVERT JUMPDEST POP PUSH1 0x40 MLOAD PUSH2 0x491 CODESIZE SUB DUP1 PUSH2 0x491 DUP4 CODECOPY DUP2 ADD PUSH1 0x40 DUP2 SWAP1 MSTORE PUSH2 0x2F SWAP2 PUSH2 0x164 JUMP JUMPDEST PUSH1 0x32 DUP1 SLOAD PUSH1 0x1 PUSH1 0x1 PUSH1 0xA0 SHL SUB DUP1 DUP6 AND PUSH1 0x1 PUSH1 0x1 PUSH1 0xA0 SHL SUB NOT SWAP3 DUP4 AND OR SWAP1 SWAP3 SSTORE DUP3 MLOAD PUSH1 0x33 DUP1 SLOAD SWAP2 DUP5 AND SWAP2 DUP4 AND SWAP2 SWAP1 SWAP2 OR SWAP1 SSTORE PUSH1 0x20 DUP4 ADD MLOAD PUSH1 0x34 DUP1 SLOAD SWAP2 SWAP1 SWAP4 AND SWAP2 AND OR SWAP1 SSTORE PUSH1 0x40 DUP2 ADD MLOAD PUSH1 0x35 DUP2 SWAP1 SSTORE PUSH1 0x60 DUP3 ADD MLOAD PUSH1 0x36 SSTORE PUSH1 0x80 DUP3 ADD MLOAD PUSH1 0x37 SSTORE PUSH1 0xA0 DUP3 ADD MLOAD PUSH1 0x38 SSTORE PUSH1 0xC0 DUP3 ADD MLOAD PUSH1 0x39 SSTORE PUSH8 0xDE0B6B3A7640000 GT ISZERO PUSH2 0xC4 JUMPI PUSH1 0x40 MLOAD PUSH4 0x2A9FFAB7 PUSH1 0xE2 SHL DUP2 MSTORE PUSH1 0x4 ADD PUSH1 0x40 MLOAD DUP1 SWAP2 SUB SWAP1 REVERT JUMPDEST PUSH1 0x60 DUP2 ADD MLOAD PUSH2 0xD2 SWAP1 PUSH2 0x113 JUMP JUMPDEST PUSH1 0x80 DUP2 ADD MLOAD PUSH2 0xE0 SWAP1 PUSH2 0x113 JUMP JUMPDEST PUSH8 0xDE0B6B3A7640000 DUP2 PUSH1 0xC0 ADD MLOAD LT PUSH2 0x10C JUMPI PUSH1 0x40 MLOAD PUSH4 0x2A9FFAB7 PUSH1 0xE2 SHL DUP2 MSTORE PUSH1 0x4 ADD PUSH1 0x40 MLOAD DUP1 SWAP2 SUB SWAP1 REVERT JUMPDEST POP POP PUSH2 0x228 JUMP JUMPDEST PUSH8 0xDE0B6B3A7640000 DUP2 GT ISZERO PUSH2 0x13C JUMPI PUSH1 0x40 MLOAD PUSH4 0x2A9FFAB7 PUSH1 0xE2 SHL DUP2 MSTORE PUSH1 0x4 ADD PUSH1 0x40 MLOAD DUP1 SWAP2 SUB SWAP1 REVERT JUMPDEST POP JUMP JUMPDEST PUSH1 0x1 PUSH1 0x1 PUSH1 0xA0 SHL SUB DUP2 AND DUP2 EQ PUSH2 0x13C JUMPI PUSH1 0x0 DUP1 REVERT JUMPDEST DUP1 MLOAD PUSH2 0x15F DUP2 PUSH2 0x13F JUMP JUMPDEST SWAP2 SWAP1 POP JUMP JUMPDEST PUSH1 0x0 DUP1 DUP3 DUP5 SUB PUSH2 0x100 DUP2 SLT ISZERO PUSH2 0x179 JUMPI PUSH1 0x0 DUP1 REVERT JUMPDEST DUP4 MLOAD PUSH2 0x184 DUP2 PUSH2 0x13F JUMP JUMPDEST SWAP3 POP PUSH1 0xE0 PUSH1 0x1F NOT DUP3 ADD SLT ISZERO PUSH2 0x198 JUMPI PUSH1 0x0 DUP1 REVERT JUMPDEST POP PUSH1 0x40 MLOAD PUSH1 0xE0 DUP2 ADD PUSH1 0x1 PUSH1 0x1 PUSH1 0x40 SHL SUB DUP2 GT DUP3 DUP3 LT OR ISZERO PUSH2 0x1C9 JUMPI PUSH4 0x4E487B71 PUSH1 0xE0 SHL PUSH1 0x0 MSTORE PUSH1 0x41 PUSH1 0x4 MSTORE PUSH1 0x24 PUSH1 0x0 REVERT JUMPDEST PUSH1 0x40 MSTORE PUSH2 0x1D8 PUSH1 0x20 DUP6 ADD PUSH2 0x154 JUMP JUMPDEST DUP2 MSTORE PUSH2 0x1E6 PUSH1 0x40 DUP6 ADD PUSH2 0x154 JUMP JUMPDEST PUSH1 0x20 DUP3 ADD MSTORE PUSH1 0x60 DUP5 ADD MLOAD PUSH1 0x40 DUP3 ADD MSTORE PUSH1 0x80 DUP5 ADD MLOAD PUSH1 0x60 DUP3 ADD MSTORE PUSH1 0xA0 DUP5 ADD MLOAD PUSH1 0x80 DUP3 ADD MSTORE PUSH1 0xC0 DUP5 ADD MLOAD PUSH1 0xA0 DUP3 ADD MSTORE PUSH1 0xE0 DUP5 ADD MLOAD PUSH1 0xC0 DUP3 ADD MSTORE DUP1 SWAP2 POP POP SWAP3 POP SWAP3 SWAP1 POP JUMP JUMPDEST PUSH2 0x25A DUP1 PUSH2 0x237 PUSH1 0x0 CODECOPY PUSH1 0x0 RETURN INVALID PUSH1 0x80 PUSH1 0x40 MSTORE CALLVALUE DUP1 ISZERO PUSH2 0x10 JUMPI PUSH1 0x0 DUP1 REVERT JUMPDEST POP PUSH1 0x4 CALLDATASIZE LT PUSH2 0x41 JUMPI PUSH1 0x0 CALLDATALOAD PUSH1 0xE0 SHR DUP1 PUSH4 0x61461954 EQ PUSH2 0x46 JUMPI DUP1 PUSH4 0x9699AB95 EQ PUSH2 0x50 JUMPI DUP1 PUSH4 0xD9A862D6 EQ PUSH2 0xC0 JUMPI JUMPDEST PUSH1 0x0 DUP1 REVERT JUMPDEST PUSH2 0x4E PUSH2 0xEB JUMP JUMPDEST STOP JUMPDEST PUSH2 0x58 PUSH2 0x181 JUMP JUMPDEST PUSH1 0x40 MLOAD PUSH2 0xB7 SWAP2 SWAP1 DUP2 MLOAD PUSH1 0x1 PUSH1 0x1 PUSH1 0xA0 SHL SUB SWAP1 DUP2 AND DUP3 MSTORE PUSH1 0x20 DUP1 DUP5 ADD MLOAD SWAP1 SWAP2 AND SWAP1 DUP3 ADD MSTORE PUSH1 0x40 DUP1 DUP4 ADD MLOAD SWAP1 DUP3 ADD MSTORE PUSH1 0x60 DUP1 DUP4 ADD MLOAD SWAP1 DUP3 ADD MSTORE PUSH1 0x80 DUP1 DUP4 ADD MLOAD SWAP1 DUP3 ADD MSTORE PUSH1 0xA0 DUP3 DUP2 ADD MLOAD SWAP1 DUP3 ADD MSTORE PUSH1 0xC0 SWAP2 DUP3 ADD MLOAD SWAP2 DUP2 ADD SWAP2 SWAP1 SWAP2 MSTORE PUSH1 0xE0 ADD SWAP1 JUMP JUMPDEST PUSH1 0x40 MLOAD DUP1 SWAP2 SUB SWAP1 RETURN JUMPDEST PUSH1 0x32 SLOAD PUSH2 0xD3 SWAP1 PUSH1 0x1 PUSH1 0x1 PUSH1 0xA0 SHL SUB AND DUP2 JUMP JUMPDEST PUSH1 0x40 MLOAD PUSH1 0x1 PUSH1 0x1 PUSH1 0xA0 SHL SUB SWAP1 SWAP2 AND DUP2 MSTORE PUSH1 0x20 ADD PUSH2 0xB7 JUMP JUMPDEST PUSH1 0x32 SLOAD PUSH1 0x40 MLOAD PUSH4 0x6DBCB039 PUSH1 0xE1 SHL DUP2 MSTORE PUSH1 0x33 SLOAD PUSH1 0x1 PUSH1 0x1 PUSH1 0xA0 SHL SUB SWAP1 DUP2 AND PUSH1 0x4 DUP4 ADD MSTORE PUSH1 0x34 SLOAD DUP2 AND PUSH1 0x24 DUP4 ADD MSTORE PUSH1 0x35 SLOAD PUSH1 0x44 DUP4 ADD MSTORE PUSH1 0x36 SLOAD PUSH1 0x64 DUP4 ADD MSTORE PUSH1 0x37 SLOAD PUSH1 0x84 DUP4 ADD MSTORE PUSH1 0x38 SLOAD PUSH1 0xA4 DUP4 ADD MSTORE PUSH1 0x39 SLOAD PUSH1 0xC4 DUP4 ADD MSTORE SWAP1 SWAP2 AND SWAP1 PUSH4 0xDB796072 SWAP1 PUSH1 0xE4 ADD PUSH1 0x0 PUSH1 0x40 MLOAD DUP1 DUP4 SUB DUP2 PUSH1 0x0 DUP8 DUP1 EXTCODESIZE ISZERO DUP1 ISZERO PUSH2 0x167 JUMPI PUSH1 0x0 DUP1 REVERT JUMPDEST POP GAS CALL ISZERO DUP1 ISZERO PUSH2 0x17B JUMPI RETURNDATASIZE PUSH1 0x0 DUP1 RETURNDATACOPY RETURNDATASIZE PUSH1 0x0 REVERT JUMPDEST POP POP POP POP JUMP JUMPDEST PUSH2 0x1D3 PUSH1 0x40 MLOAD DUP1 PUSH1 0xE0 ADD PUSH1 0x40 MSTORE DUP1 PUSH1 0x0 PUSH1 0x1 PUSH1 0x1 PUSH1 0xA0 SHL SUB AND DUP2 MSTORE PUSH1 0x20 ADD PUSH1 0x0 PUSH1 0x1 PUSH1 0x1 PUSH1 0xA0 SHL SUB AND DUP2 MSTORE PUSH1 0x20 ADD PUSH1 0x0 DUP2 MSTORE PUSH1 0x20 ADD PUSH1 0x0 DUP2 MSTORE PUSH1 0x20 ADD PUSH1 0x0 DUP2 MSTORE PUSH1 0x20 ADD PUSH1 0x0 DUP2 MSTORE PUSH1 0x20 ADD PUSH1 0x0 DUP2 MSTORE POP SWAP1 JUMP JUMPDEST POP PUSH1 0x40 DUP1 MLOAD PUSH1 0xE0 DUP2 ADD DUP3 MSTORE PUSH1 0x33 SLOAD PUSH1 0x1 PUSH1 0x1 PUSH1 0xA0 SHL SUB SWAP1 DUP2 AND DUP3 MSTORE PUSH1 0x34 SLOAD AND PUSH1 0x20 DUP3 ADD MSTORE PUSH1 0x35 SLOAD SWAP2 DUP2 ADD SWAP2 SWAP1 SWAP2 MSTORE PUSH1 0x36 SLOAD PUSH1 0x60 DUP3 ADD MSTORE PUSH1 0x37 SLOAD PUSH1 0x80 DUP3 ADD MSTORE PUSH1 0x38 SLOAD PUSH1 0xA0 DUP3 ADD MSTORE PUSH1 0x39 SLOAD PUSH1 0xC0 DUP3 ADD MSTORE SWAP1 JUMP INVALID LOG2 PUSH5 0x6970667358 0x22 SLT KECCAK256 DUP4 0x2A 0xEF 0xAA 0xBF PUSH27 0xD770CEE5ED99C27799C5001269177C355CBFB5405470781CDA0364 PUSH20 0x6F6C634300081100330000000000000000000000 "
    },
    "gasEstimates": {
      "creation": {
        "codeDepositCost": "120400",
        "executionCost": "infinite",
        "totalCost": "infinite"
      },
      "external": {
        "execute()": "infinite",
        "getPeggedTokenParams()": "15518",
        "mocCore()": "2359"
      }
    },
    "methodIdentifiers": {
      "execute()": "61461954",
      "getPeggedTokenParams()": "9699ab95",
      "mocCore()": "d9a862d6"
    }
  },
  "storageLayout": {
    "storage": [
      {
        "astId": 18090,
        "contract": "contracts/governance/changerTemplates/AddPeggedTokenChangerTemplate.sol:AddPeggedTokenChangerTemplate",
        "label": "__gap",
        "offset": 0,
        "slot": "0",
        "type": "t_array(t_uint256)50_storage"
      },
      {
        "astId": 16776,
        "contract": "contracts/governance/changerTemplates/AddPeggedTokenChangerTemplate.sol:AddPeggedTokenChangerTemplate",
        "label": "mocCore",
        "offset": 0,
        "slot": "50",
        "type": "t_contract(MocCore)13500"
      },
      {
        "astId": 16779,
        "contract": "contracts/governance/changerTemplates/AddPeggedTokenChangerTemplate.sol:AddPeggedTokenChangerTemplate",
        "label": "peggedTokenParams",
        "offset": 0,
        "slot": "51",
        "type": "t_struct(PeggedTokenParams)11097_storage"
      }
    ],
    "types": {
      "t_address": {
        "encoding": "inplace",
        "label": "address",
        "numberOfBytes": "20"
      },
      "t_array(t_uint256)50_storage": {
        "base": "t_uint256",
        "encoding": "inplace",
        "label": "uint256[50]",
        "numberOfBytes": "1600"
      },
      "t_contract(MocCore)13500": {
        "encoding": "inplace",
        "label": "contract MocCore",
        "numberOfBytes": "20"
      },
      "t_struct(PeggedTokenParams)11097_storage": {
        "encoding": "inplace",
        "label": "struct MocCore.PeggedTokenParams",
        "members": [
          {
            "astId": 11084,
            "contract": "contracts/governance/changerTemplates/AddPeggedTokenChangerTemplate.sol:AddPeggedTokenChangerTemplate",
            "label": "tpTokenAddress",
            "offset": 0,
            "slot": "0",
            "type": "t_address"
          },
          {
            "astId": 11086,
            "contract": "contracts/governance/changerTemplates/AddPeggedTokenChangerTemplate.sol:AddPeggedTokenChangerTemplate",
            "label": "priceProviderAddress",
            "offset": 0,
            "slot": "1",
            "type": "t_address"
          },
          {
            "astId": 11088,
            "contract": "contracts/governance/changerTemplates/AddPeggedTokenChangerTemplate.sol:AddPeggedTokenChangerTemplate",
            "label": "tpCtarg",
            "offset": 0,
            "slot": "2",
            "type": "t_uint256"
          },
          {
            "astId": 11090,
            "contract": "contracts/governance/changerTemplates/AddPeggedTokenChangerTemplate.sol:AddPeggedTokenChangerTemplate",
            "label": "tpMintFee",
            "offset": 0,
            "slot": "3",
            "type": "t_uint256"
          },
          {
            "astId": 11092,
            "contract": "contracts/governance/changerTemplates/AddPeggedTokenChangerTemplate.sol:AddPeggedTokenChangerTemplate",
            "label": "tpRedeemFee",
            "offset": 0,
            "slot": "4",
            "type": "t_uint256"
          },
          {
            "astId": 11094,
            "contract": "contracts/governance/changerTemplates/AddPeggedTokenChangerTemplate.sol:AddPeggedTokenChangerTemplate",
            "label": "tpEma",
            "offset": 0,
            "slot": "5",
            "type": "t_uint256"
          },
          {
            "astId": 11096,
            "contract": "contracts/governance/changerTemplates/AddPeggedTokenChangerTemplate.sol:AddPeggedTokenChangerTemplate",
            "label": "tpEmaSf",
            "offset": 0,
            "slot": "6",
            "type": "t_uint256"
          }
        ],
        "numberOfBytes": "224"
      },
      "t_uint256": {
        "encoding": "inplace",
        "label": "uint256",
        "numberOfBytes": "32"
      }
    }
  },
  "userdoc": {
    "kind": "user",
    "methods": {
      "constructor": {
        "notice": "Constructor"
      },
      "execute()": {
        "notice": "Execute the changes."
      },
      "getPeggedTokenParams()": {
        "notice": "Returns the Pegged Token Params configurations that's going to be added"
      }
    },
    "notice": "This contract is a ChangeContract intended to be used with Moc Aeropulus governance system. It allows the addition of a new Pegged Token to the system.",
    "version": 1
  }
}