{
  "contractName": "MocCARC20",
  "sourceName": "contracts/collateral/rc20/MocCARC20.sol",
  "abi": [
    {
      "inputs": [],
      "stateMutability": "nonpayable",
      "type": "constructor"
    },
    {
      "inputs": [
        {
          "internalType": "uint256",
          "name": "qACsent_",
          "type": "uint256"
        },
        {
          "internalType": "uint256",
          "name": "qACNeeded_",
          "type": "uint256"
        }
      ],
      "name": "InsufficientQacSent",
      "type": "error"
    },
    {
      "inputs": [
        {
          "internalType": "uint256",
          "name": "qTPsent_",
          "type": "uint256"
        },
        {
          "internalType": "uint256",
          "name": "qTPNeeded_",
          "type": "uint256"
        }
      ],
      "name": "InsufficientQtpSent",
      "type": "error"
    },
    {
      "inputs": [
        {
          "internalType": "uint256",
          "name": "qTC_",
          "type": "uint256"
        },
        {
          "internalType": "uint256",
          "name": "tcAvailableToRedeem_",
          "type": "uint256"
        }
      ],
      "name": "InsufficientTCtoRedeem",
      "type": "error"
    },
    {
      "inputs": [
        {
          "internalType": "uint256",
          "name": "qTP_",
          "type": "uint256"
        },
        {
          "internalType": "uint256",
          "name": "tpAvailableToMint_",
          "type": "uint256"
        }
      ],
      "name": "InsufficientTPtoMint",
      "type": "error"
    },
    {
      "inputs": [
        {
          "internalType": "uint256",
          "name": "qTP_",
          "type": "uint256"
        },
        {
          "internalType": "uint256",
          "name": "tpAvailableToRedeem_",
          "type": "uint256"
        }
      ],
      "name": "InsufficientTPtoRedeem",
      "type": "error"
    },
    {
      "inputs": [],
      "name": "InvalidAddress",
      "type": "error"
    },
    {
      "inputs": [],
      "name": "InvalidFluxCapacitorOperation",
      "type": "error"
    },
    {
      "inputs": [],
      "name": "InvalidValue",
      "type": "error"
    },
    {
      "inputs": [],
      "name": "Liquidated",
      "type": "error"
    },
    {
      "inputs": [
        {
          "internalType": "uint256",
          "name": "cglb_",
          "type": "uint256"
        },
        {
          "internalType": "uint256",
          "name": "covThrld_",
          "type": "uint256"
        }
      ],
      "name": "LowCoverage",
      "type": "error"
    },
    {
      "inputs": [
        {
          "internalType": "uint256",
          "name": "max_",
          "type": "uint256"
        },
        {
          "internalType": "uint256",
          "name": "new_",
          "type": "uint256"
        }
      ],
      "name": "MaxFluxCapacitorOperationReached",
      "type": "error"
    },
    {
      "inputs": [],
      "name": "MissingBlocksToSettlement",
      "type": "error"
    },
    {
      "inputs": [],
      "name": "MissingBlocksToTCInterestPayment",
      "type": "error"
    },
    {
      "inputs": [
        {
          "internalType": "address",
          "name": "dataProviderAddress_",
          "type": "address"
        }
      ],
      "name": "MissingProviderData",
      "type": "error"
    },
    {
      "inputs": [
        {
          "internalType": "address",
          "name": "priceProviderAddress_",
          "type": "address"
        }
      ],
      "name": "MissingProviderPrice",
      "type": "error"
    },
    {
      "inputs": [],
      "name": "NotAuthorizedChanger",
      "type": "error"
    },
    {
      "inputs": [],
      "name": "NotWhenPaused",
      "type": "error"
    },
    {
      "inputs": [],
      "name": "OnlyPauser",
      "type": "error"
    },
    {
      "inputs": [],
      "name": "OnlyQueue",
      "type": "error"
    },
    {
      "inputs": [],
      "name": "OnlyWhenLiquidated",
      "type": "error"
    },
    {
      "inputs": [],
      "name": "OnlyWhilePaused",
      "type": "error"
    },
    {
      "inputs": [],
      "name": "PeggedTokenAlreadyAdded",
      "type": "error"
    },
    {
      "inputs": [
        {
          "internalType": "uint256",
          "name": "qACmin_",
          "type": "uint256"
        },
        {
          "internalType": "uint256",
          "name": "qACtoRedeem_",
          "type": "uint256"
        }
      ],
      "name": "QacBelowMinimumRequired",
      "type": "error"
    },
    {
      "inputs": [],
      "name": "QacNeededMustBeGreaterThanZero",
      "type": "error"
    },
    {
      "inputs": [
        {
          "internalType": "uint256",
          "name": "qTCmin_",
          "type": "uint256"
        },
        {
          "internalType": "uint256",
          "name": "qTC_",
          "type": "uint256"
        }
      ],
      "name": "QtcBelowMinimumRequired",
      "type": "error"
    },
    {
      "inputs": [
        {
          "internalType": "uint256",
          "name": "qTPmin_",
          "type": "uint256"
        },
        {
          "internalType": "uint256",
          "name": "qTP_",
          "type": "uint256"
        }
      ],
      "name": "QtpBelowMinimumRequired",
      "type": "error"
    },
    {
      "inputs": [],
      "name": "TransferFailed",
      "type": "error"
    },
    {
      "inputs": [],
      "name": "Unstoppable",
      "type": "error"
    },
    {
      "anonymous": false,
      "inputs": [
        {
          "indexed": false,
          "internalType": "address",
          "name": "previousAdmin",
          "type": "address"
        },
        {
          "indexed": false,
          "internalType": "address",
          "name": "newAdmin",
          "type": "address"
        }
      ],
      "name": "AdminChanged",
      "type": "event"
    },
    {
      "anonymous": false,
      "inputs": [
        {
          "indexed": true,
          "internalType": "address",
          "name": "beacon",
          "type": "address"
        }
      ],
      "name": "BeaconUpgraded",
      "type": "event"
    },
    {
      "anonymous": false,
      "inputs": [],
      "name": "ContractLiquidated",
      "type": "event"
    },
    {
      "anonymous": false,
      "inputs": [
        {
          "indexed": false,
          "internalType": "uint8",
          "name": "version",
          "type": "uint8"
        }
      ],
      "name": "Initialized",
      "type": "event"
    },
    {
      "anonymous": false,
      "inputs": [
        {
          "indexed": true,
          "internalType": "address",
          "name": "tp_",
          "type": "address"
        },
        {
          "indexed": true,
          "internalType": "address",
          "name": "sender_",
          "type": "address"
        },
        {
          "indexed": true,
          "internalType": "address",
          "name": "recipient_",
          "type": "address"
        },
        {
          "indexed": false,
          "internalType": "uint256",
          "name": "qTP_",
          "type": "uint256"
        },
        {
          "indexed": false,
          "internalType": "uint256",
          "name": "qAC_",
          "type": "uint256"
        }
      ],
      "name": "LiqTPRedeemed",
      "type": "event"
    },
    {
      "anonymous": false,
      "inputs": [
        {
          "indexed": false,
          "internalType": "address",
          "name": "account",
          "type": "address"
        }
      ],
      "name": "Paused",
      "type": "event"
    },
    {
      "anonymous": false,
      "inputs": [
        {
          "indexed": false,
          "internalType": "uint256",
          "name": "i_",
          "type": "uint256"
        },
        {
          "components": [
            {
              "internalType": "address",
              "name": "tpTokenAddress",
              "type": "address"
            },
            {
              "internalType": "address",
              "name": "priceProviderAddress",
              "type": "address"
            },
            {
              "internalType": "uint256",
              "name": "tpCtarg",
              "type": "uint256"
            },
            {
              "internalType": "uint256",
              "name": "tpMintFee",
              "type": "uint256"
            },
            {
              "internalType": "uint256",
              "name": "tpRedeemFee",
              "type": "uint256"
            },
            {
              "internalType": "uint256",
              "name": "tpEma",
              "type": "uint256"
            },
            {
              "internalType": "uint256",
              "name": "tpEmaSf",
              "type": "uint256"
            }
          ],
          "indexed": false,
          "internalType": "struct PeggedTokenParams",
          "name": "peggedTokenParams_",
          "type": "tuple"
        }
      ],
      "name": "PeggedTokenChange",
      "type": "event"
    },
    {
      "anonymous": false,
      "inputs": [],
      "name": "SettlementExecuted",
      "type": "event"
    },
    {
      "anonymous": false,
      "inputs": [
        {
          "indexed": false,
          "internalType": "uint256",
          "name": "mocGain_",
          "type": "uint256"
        },
        {
          "indexed": false,
          "internalType": "uint256[]",
          "name": "tpGain_",
          "type": "uint256[]"
        }
      ],
      "name": "SuccessFeeDistributed",
      "type": "event"
    },
    {
      "anonymous": false,
      "inputs": [
        {
          "indexed": false,
          "internalType": "uint256",
          "name": "interestAmount_",
          "type": "uint256"
        }
      ],
      "name": "TCInterestPayment",
      "type": "event"
    },
    {
      "anonymous": false,
      "inputs": [
        {
          "indexed": true,
          "internalType": "uint256",
          "name": "i_",
          "type": "uint256"
        },
        {
          "indexed": false,
          "internalType": "uint256",
          "name": "oldTPema_",
          "type": "uint256"
        },
        {
          "indexed": false,
          "internalType": "uint256",
          "name": "newTPema_",
          "type": "uint256"
        }
      ],
      "name": "TPemaUpdated",
      "type": "event"
    },
    {
      "anonymous": false,
      "inputs": [
        {
          "indexed": false,
          "internalType": "address",
          "name": "account",
          "type": "address"
        }
      ],
      "name": "Unpaused",
      "type": "event"
    },
    {
      "anonymous": false,
      "inputs": [
        {
          "indexed": true,
          "internalType": "address",
          "name": "implementation",
          "type": "address"
        }
      ],
      "name": "Upgraded",
      "type": "event"
    },
    {
      "inputs": [],
      "name": "absoluteAccumulator",
      "outputs": [
        {
          "internalType": "uint256",
          "name": "",
          "type": "uint256"
        }
      ],
      "stateMutability": "view",
      "type": "function"
    },
    {
      "inputs": [],
      "name": "acToken",
      "outputs": [
        {
          "internalType": "contract IERC20",
          "name": "",
          "type": "address"
        }
      ],
      "stateMutability": "view",
      "type": "function"
    },
    {
      "inputs": [
        {
          "components": [
            {
              "internalType": "address",
              "name": "tpTokenAddress",
              "type": "address"
            },
            {
              "internalType": "address",
              "name": "priceProviderAddress",
              "type": "address"
            },
            {
              "internalType": "uint256",
              "name": "tpCtarg",
              "type": "uint256"
            },
            {
              "internalType": "uint256",
              "name": "tpMintFee",
              "type": "uint256"
            },
            {
              "internalType": "uint256",
              "name": "tpRedeemFee",
              "type": "uint256"
            },
            {
              "internalType": "uint256",
              "name": "tpEma",
              "type": "uint256"
            },
            {
              "internalType": "uint256",
              "name": "tpEmaSf",
              "type": "uint256"
            }
          ],
          "internalType": "struct PeggedTokenParams",
          "name": "peggedTokenParams_",
          "type": "tuple"
        }
      ],
      "name": "addPeggedToken",
      "outputs": [],
      "stateMutability": "nonpayable",
      "type": "function"
    },
    {
      "inputs": [],
      "name": "appreciationFactor",
      "outputs": [
        {
          "internalType": "uint256",
          "name": "",
          "type": "uint256"
        }
      ],
      "stateMutability": "view",
      "type": "function"
    },
    {
      "inputs": [],
      "name": "bes",
      "outputs": [
        {
          "internalType": "uint256",
          "name": "",
          "type": "uint256"
        }
      ],
      "stateMutability": "view",
      "type": "function"
    },
    {
      "inputs": [],
      "name": "bns",
      "outputs": [
        {
          "internalType": "uint256",
          "name": "",
          "type": "uint256"
        }
      ],
      "stateMutability": "view",
      "type": "function"
    },
    {
      "inputs": [],
      "name": "calcCtargemaCA",
      "outputs": [
        {
          "internalType": "uint256",
          "name": "ctargemaCA",
          "type": "uint256"
        }
      ],
      "stateMutability": "view",
      "type": "function"
    },
    {
      "inputs": [
        {
          "internalType": "contract IGovernor",
          "name": "newGovernor_",
          "type": "address"
        }
      ],
      "name": "changeGovernor",
      "outputs": [],
      "stateMutability": "nonpayable",
      "type": "function"
    },
    {
      "inputs": [],
      "name": "decayBlockSpan",
      "outputs": [
        {
          "internalType": "uint256",
          "name": "",
          "type": "uint256"
        }
      ],
      "stateMutability": "view",
      "type": "function"
    },
    {
      "inputs": [],
      "name": "differentialAccumulator",
      "outputs": [
        {
          "internalType": "int256",
          "name": "",
          "type": "int256"
        }
      ],
      "stateMutability": "view",
      "type": "function"
    },
    {
      "inputs": [
        {
          "components": [
            {
              "internalType": "address",
              "name": "tpTokenAddress",
              "type": "address"
            },
            {
              "internalType": "address",
              "name": "priceProviderAddress",
              "type": "address"
            },
            {
              "internalType": "uint256",
              "name": "tpCtarg",
              "type": "uint256"
            },
            {
              "internalType": "uint256",
              "name": "tpMintFee",
              "type": "uint256"
            },
            {
              "internalType": "uint256",
              "name": "tpRedeemFee",
              "type": "uint256"
            },
            {
              "internalType": "uint256",
              "name": "tpEma",
              "type": "uint256"
            },
            {
              "internalType": "uint256",
              "name": "tpEmaSf",
              "type": "uint256"
            }
          ],
          "internalType": "struct PeggedTokenParams",
          "name": "peggedTokenParams_",
          "type": "tuple"
        }
      ],
      "name": "editPeggedToken",
      "outputs": [],
      "stateMutability": "nonpayable",
      "type": "function"
    },
    {
      "inputs": [],
      "name": "emaCalculationBlockSpan",
      "outputs": [
        {
          "internalType": "uint256",
          "name": "",
          "type": "uint256"
        }
      ],
      "stateMutability": "view",
      "type": "function"
    },
    {
      "inputs": [],
      "name": "evalLiquidation",
      "outputs": [],
      "stateMutability": "nonpayable",
      "type": "function"
    },
    {
      "inputs": [
        {
          "components": [
            {
              "internalType": "uint256",
              "name": "qTC",
              "type": "uint256"
            },
            {
              "internalType": "uint256",
              "name": "qACmax",
              "type": "uint256"
            },
            {
              "internalType": "address",
              "name": "sender",
              "type": "address"
            },
            {
              "internalType": "address",
              "name": "recipient",
              "type": "address"
            },
            {
              "internalType": "address",
              "name": "vendor",
              "type": "address"
            }
          ],
          "internalType": "struct MocCore.MintTCParams",
          "name": "params_",
          "type": "tuple"
        }
      ],
      "name": "execMintTC",
      "outputs": [
        {
          "internalType": "uint256",
          "name": "qACtotalNeeded",
          "type": "uint256"
        },
        {
          "internalType": "uint256",
          "name": "qFeeTokenTotalNeeded",
          "type": "uint256"
        },
        {
          "components": [
            {
              "internalType": "uint256",
              "name": "qACFee",
              "type": "uint256"
            },
            {
              "internalType": "uint256",
              "name": "qFeeToken",
              "type": "uint256"
            },
            {
              "internalType": "uint256",
              "name": "qACVendorMarkup",
              "type": "uint256"
            },
            {
              "internalType": "uint256",
              "name": "qFeeTokenVendorMarkup",
              "type": "uint256"
            }
          ],
          "internalType": "struct MocCommons.FeeCalcs",
          "name": "feeCalcs",
          "type": "tuple"
        }
      ],
      "stateMutability": "nonpayable",
      "type": "function"
    },
    {
      "inputs": [
        {
          "components": [
            {
              "internalType": "address",
              "name": "tp",
              "type": "address"
            },
            {
              "internalType": "uint256",
              "name": "qTP",
              "type": "uint256"
            },
            {
              "internalType": "uint256",
              "name": "qACmax",
              "type": "uint256"
            },
            {
              "internalType": "address",
              "name": "sender",
              "type": "address"
            },
            {
              "internalType": "address",
              "name": "recipient",
              "type": "address"
            },
            {
              "internalType": "address",
              "name": "vendor",
              "type": "address"
            }
          ],
          "internalType": "struct MocCommons.MintTCandTPParams",
          "name": "params_",
          "type": "tuple"
        }
      ],
      "name": "execMintTCandTP",
      "outputs": [
        {
          "internalType": "uint256",
          "name": "qACtotalNeeded",
          "type": "uint256"
        },
        {
          "internalType": "uint256",
          "name": "qTCMinted",
          "type": "uint256"
        },
        {
          "internalType": "uint256",
          "name": "qFeeTokenTotalNeeded",
          "type": "uint256"
        },
        {
          "components": [
            {
              "internalType": "uint256",
              "name": "qACFee",
              "type": "uint256"
            },
            {
              "internalType": "uint256",
              "name": "qFeeToken",
              "type": "uint256"
            },
            {
              "internalType": "uint256",
              "name": "qACVendorMarkup",
              "type": "uint256"
            },
            {
              "internalType": "uint256",
              "name": "qFeeTokenVendorMarkup",
              "type": "uint256"
            }
          ],
          "internalType": "struct MocCommons.FeeCalcs",
          "name": "feeCalcs",
          "type": "tuple"
        }
      ],
      "stateMutability": "nonpayable",
      "type": "function"
    },
    {
      "inputs": [
        {
          "components": [
            {
              "internalType": "address",
              "name": "tp",
              "type": "address"
            },
            {
              "internalType": "uint256",
              "name": "qTP",
              "type": "uint256"
            },
            {
              "internalType": "uint256",
              "name": "qACmax",
              "type": "uint256"
            },
            {
              "internalType": "address",
              "name": "sender",
              "type": "address"
            },
            {
              "internalType": "address",
              "name": "recipient",
              "type": "address"
            },
            {
              "internalType": "address",
              "name": "vendor",
              "type": "address"
            }
          ],
          "internalType": "struct MocCore.MintTPParams",
          "name": "params_",
          "type": "tuple"
        }
      ],
      "name": "execMintTP",
      "outputs": [
        {
          "internalType": "uint256",
          "name": "qACtotalNeeded",
          "type": "uint256"
        },
        {
          "internalType": "uint256",
          "name": "qFeeTokenTotalNeeded",
          "type": "uint256"
        },
        {
          "components": [
            {
              "internalType": "uint256",
              "name": "qACFee",
              "type": "uint256"
            },
            {
              "internalType": "uint256",
              "name": "qFeeToken",
              "type": "uint256"
            },
            {
              "internalType": "uint256",
              "name": "qACVendorMarkup",
              "type": "uint256"
            },
            {
              "internalType": "uint256",
              "name": "qFeeTokenVendorMarkup",
              "type": "uint256"
            }
          ],
          "internalType": "struct MocCommons.FeeCalcs",
          "name": "feeCalcs",
          "type": "tuple"
        }
      ],
      "stateMutability": "nonpayable",
      "type": "function"
    },
    {
      "inputs": [
        {
          "components": [
            {
              "internalType": "uint256",
              "name": "qTC",
              "type": "uint256"
            },
            {
              "internalType": "uint256",
              "name": "qACmin",
              "type": "uint256"
            },
            {
              "internalType": "address",
              "name": "sender",
              "type": "address"
            },
            {
              "internalType": "address",
              "name": "recipient",
              "type": "address"
            },
            {
              "internalType": "address",
              "name": "vendor",
              "type": "address"
            }
          ],
          "internalType": "struct MocCore.RedeemTCParams",
          "name": "params_",
          "type": "tuple"
        }
      ],
      "name": "execRedeemTC",
      "outputs": [
        {
          "internalType": "uint256",
          "name": "qACtoRedeem",
          "type": "uint256"
        },
        {
          "internalType": "uint256",
          "name": "qFeeTokenTotalNeeded",
          "type": "uint256"
        },
        {
          "components": [
            {
              "internalType": "uint256",
              "name": "qACFee",
              "type": "uint256"
            },
            {
              "internalType": "uint256",
              "name": "qFeeToken",
              "type": "uint256"
            },
            {
              "internalType": "uint256",
              "name": "qACVendorMarkup",
              "type": "uint256"
            },
            {
              "internalType": "uint256",
              "name": "qFeeTokenVendorMarkup",
              "type": "uint256"
            }
          ],
          "internalType": "struct MocCommons.FeeCalcs",
          "name": "feeCalcs",
          "type": "tuple"
        }
      ],
      "stateMutability": "nonpayable",
      "type": "function"
    },
    {
      "inputs": [
        {
          "components": [
            {
              "internalType": "address",
              "name": "tp",
              "type": "address"
            },
            {
              "internalType": "uint256",
              "name": "qTC",
              "type": "uint256"
            },
            {
              "internalType": "uint256",
              "name": "qTP",
              "type": "uint256"
            },
            {
              "internalType": "uint256",
              "name": "qACmin",
              "type": "uint256"
            },
            {
              "internalType": "address",
              "name": "sender",
              "type": "address"
            },
            {
              "internalType": "address",
              "name": "recipient",
              "type": "address"
            },
            {
              "internalType": "address",
              "name": "vendor",
              "type": "address"
            }
          ],
          "internalType": "struct MocCommons.RedeemTCandTPParams",
          "name": "params_",
          "type": "tuple"
        }
      ],
      "name": "execRedeemTCandTP",
      "outputs": [
        {
          "internalType": "uint256",
          "name": "qACtoRedeem",
          "type": "uint256"
        },
        {
          "internalType": "uint256",
          "name": "qTPRedeemed",
          "type": "uint256"
        },
        {
          "internalType": "uint256",
          "name": "qFeeTokenTotalNeeded",
          "type": "uint256"
        },
        {
          "components": [
            {
              "internalType": "uint256",
              "name": "qACFee",
              "type": "uint256"
            },
            {
              "internalType": "uint256",
              "name": "qFeeToken",
              "type": "uint256"
            },
            {
              "internalType": "uint256",
              "name": "qACVendorMarkup",
              "type": "uint256"
            },
            {
              "internalType": "uint256",
              "name": "qFeeTokenVendorMarkup",
              "type": "uint256"
            }
          ],
          "internalType": "struct MocCommons.FeeCalcs",
          "name": "feeCalcs",
          "type": "tuple"
        }
      ],
      "stateMutability": "nonpayable",
      "type": "function"
    },
    {
      "inputs": [
        {
          "components": [
            {
              "internalType": "address",
              "name": "tp",
              "type": "address"
            },
            {
              "internalType": "uint256",
              "name": "qTP",
              "type": "uint256"
            },
            {
              "internalType": "uint256",
              "name": "qACmin",
              "type": "uint256"
            },
            {
              "internalType": "address",
              "name": "sender",
              "type": "address"
            },
            {
              "internalType": "address",
              "name": "recipient",
              "type": "address"
            },
            {
              "internalType": "address",
              "name": "vendor",
              "type": "address"
            }
          ],
          "internalType": "struct MocCommons.RedeemTPParams",
          "name": "params_",
          "type": "tuple"
        }
      ],
      "name": "execRedeemTP",
      "outputs": [
        {
          "internalType": "uint256",
          "name": "qACtoRedeem",
          "type": "uint256"
        },
        {
          "internalType": "uint256",
          "name": "qFeeTokenTotalNeeded",
          "type": "uint256"
        },
        {
          "components": [
            {
              "internalType": "uint256",
              "name": "qACFee",
              "type": "uint256"
            },
            {
              "internalType": "uint256",
              "name": "qFeeToken",
              "type": "uint256"
            },
            {
              "internalType": "uint256",
              "name": "qACVendorMarkup",
              "type": "uint256"
            },
            {
              "internalType": "uint256",
              "name": "qFeeTokenVendorMarkup",
              "type": "uint256"
            }
          ],
          "internalType": "struct MocCommons.FeeCalcs",
          "name": "feeCalcs",
          "type": "tuple"
        }
      ],
      "stateMutability": "nonpayable",
      "type": "function"
    },
    {
      "inputs": [],
      "name": "execSettlement",
      "outputs": [],
      "stateMutability": "nonpayable",
      "type": "function"
    },
    {
      "inputs": [
        {
          "components": [
            {
              "internalType": "address",
              "name": "tp",
              "type": "address"
            },
            {
              "internalType": "uint256",
              "name": "qTC",
              "type": "uint256"
            },
            {
              "internalType": "uint256",
              "name": "qTPmin",
              "type": "uint256"
            },
            {
              "internalType": "uint256",
              "name": "qACmax",
              "type": "uint256"
            },
            {
              "internalType": "address",
              "name": "sender",
              "type": "address"
            },
            {
              "internalType": "address",
              "name": "recipient",
              "type": "address"
            },
            {
              "internalType": "address",
              "name": "vendor",
              "type": "address"
            }
          ],
          "internalType": "struct MocCommons.SwapTCforTPParams",
          "name": "params_",
          "type": "tuple"
        }
      ],
      "name": "execSwapTCforTP",
      "outputs": [
        {
          "internalType": "uint256",
          "name": "qACSurcharges",
          "type": "uint256"
        },
        {
          "internalType": "uint256",
          "name": "qTPMinted",
          "type": "uint256"
        },
        {
          "internalType": "uint256",
          "name": "qFeeTokenTotalNeeded",
          "type": "uint256"
        },
        {
          "components": [
            {
              "internalType": "uint256",
              "name": "qACFee",
              "type": "uint256"
            },
            {
              "internalType": "uint256",
              "name": "qFeeToken",
              "type": "uint256"
            },
            {
              "internalType": "uint256",
              "name": "qACVendorMarkup",
              "type": "uint256"
            },
            {
              "internalType": "uint256",
              "name": "qFeeTokenVendorMarkup",
              "type": "uint256"
            }
          ],
          "internalType": "struct MocCommons.FeeCalcs",
          "name": "feeCalcs",
          "type": "tuple"
        }
      ],
      "stateMutability": "nonpayable",
      "type": "function"
    },
    {
      "inputs": [
        {
          "components": [
            {
              "internalType": "address",
              "name": "tp",
              "type": "address"
            },
            {
              "internalType": "uint256",
              "name": "qTP",
              "type": "uint256"
            },
            {
              "internalType": "uint256",
              "name": "qTCmin",
              "type": "uint256"
            },
            {
              "internalType": "uint256",
              "name": "qACmax",
              "type": "uint256"
            },
            {
              "internalType": "address",
              "name": "sender",
              "type": "address"
            },
            {
              "internalType": "address",
              "name": "recipient",
              "type": "address"
            },
            {
              "internalType": "address",
              "name": "vendor",
              "type": "address"
            }
          ],
          "internalType": "struct MocCommons.SwapTPforTCParams",
          "name": "params_",
          "type": "tuple"
        }
      ],
      "name": "execSwapTPforTC",
      "outputs": [
        {
          "internalType": "uint256",
          "name": "qACSurcharges",
          "type": "uint256"
        },
        {
          "internalType": "uint256",
          "name": "qTCMinted",
          "type": "uint256"
        },
        {
          "internalType": "uint256",
          "name": "qFeeTokenTotalNeeded",
          "type": "uint256"
        },
        {
          "components": [
            {
              "internalType": "uint256",
              "name": "qACFee",
              "type": "uint256"
            },
            {
              "internalType": "uint256",
              "name": "qFeeToken",
              "type": "uint256"
            },
            {
              "internalType": "uint256",
              "name": "qACVendorMarkup",
              "type": "uint256"
            },
            {
              "internalType": "uint256",
              "name": "qFeeTokenVendorMarkup",
              "type": "uint256"
            }
          ],
          "internalType": "struct MocCommons.FeeCalcs",
          "name": "feeCalcs",
          "type": "tuple"
        }
      ],
      "stateMutability": "nonpayable",
      "type": "function"
    },
    {
      "inputs": [
        {
          "components": [
            {
              "internalType": "address",
              "name": "tpFrom",
              "type": "address"
            },
            {
              "internalType": "address",
              "name": "tpTo",
              "type": "address"
            },
            {
              "internalType": "uint256",
              "name": "qTP",
              "type": "uint256"
            },
            {
              "internalType": "uint256",
              "name": "qTPmin",
              "type": "uint256"
            },
            {
              "internalType": "uint256",
              "name": "qACmax",
              "type": "uint256"
            },
            {
              "internalType": "address",
              "name": "sender",
              "type": "address"
            },
            {
              "internalType": "address",
              "name": "recipient",
              "type": "address"
            },
            {
              "internalType": "address",
              "name": "vendor",
              "type": "address"
            }
          ],
          "internalType": "struct MocCommons.SwapTPforTPParams",
          "name": "params_",
          "type": "tuple"
        }
      ],
      "name": "execSwapTPforTP",
      "outputs": [
        {
          "internalType": "uint256",
          "name": "qACSurcharges",
          "type": "uint256"
        },
        {
          "internalType": "uint256",
          "name": "qTPMinted",
          "type": "uint256"
        },
        {
          "internalType": "uint256",
          "name": "qFeeTokenTotalNeeded",
          "type": "uint256"
        },
        {
          "components": [
            {
              "internalType": "uint256",
              "name": "qACFee",
              "type": "uint256"
            },
            {
              "internalType": "uint256",
              "name": "qFeeToken",
              "type": "uint256"
            },
            {
              "internalType": "uint256",
              "name": "qACVendorMarkup",
              "type": "uint256"
            },
            {
              "internalType": "uint256",
              "name": "qFeeTokenVendorMarkup",
              "type": "uint256"
            }
          ],
          "internalType": "struct MocCommons.FeeCalcs",
          "name": "feeCalcs",
          "type": "tuple"
        }
      ],
      "stateMutability": "nonpayable",
      "type": "function"
    },
    {
      "inputs": [],
      "name": "feeRetainer",
      "outputs": [
        {
          "internalType": "uint256",
          "name": "",
          "type": "uint256"
        }
      ],
      "stateMutability": "view",
      "type": "function"
    },
    {
      "inputs": [],
      "name": "feeToken",
      "outputs": [
        {
          "internalType": "contract IERC20",
          "name": "",
          "type": "address"
        }
      ],
      "stateMutability": "view",
      "type": "function"
    },
    {
      "inputs": [],
      "name": "feeTokenPct",
      "outputs": [
        {
          "internalType": "uint256",
          "name": "",
          "type": "uint256"
        }
      ],
      "stateMutability": "view",
      "type": "function"
    },
    {
      "inputs": [],
      "name": "feeTokenPriceProvider",
      "outputs": [
        {
          "internalType": "contract IPriceProvider",
          "name": "",
          "type": "address"
        }
      ],
      "stateMutability": "view",
      "type": "function"
    },
    {
      "inputs": [],
      "name": "getBts",
      "outputs": [
        {
          "internalType": "uint256",
          "name": "",
          "type": "uint256"
        }
      ],
      "stateMutability": "view",
      "type": "function"
    },
    {
      "inputs": [],
      "name": "getCglb",
      "outputs": [
        {
          "internalType": "uint256",
          "name": "cglob",
          "type": "uint256"
        }
      ],
      "stateMutability": "view",
      "type": "function"
    },
    {
      "inputs": [],
      "name": "getLckAC",
      "outputs": [
        {
          "internalType": "uint256",
          "name": "lckAC",
          "type": "uint256"
        }
      ],
      "stateMutability": "view",
      "type": "function"
    },
    {
      "inputs": [],
      "name": "getLeverageTC",
      "outputs": [
        {
          "internalType": "uint256",
          "name": "leverageTC",
          "type": "uint256"
        }
      ],
      "stateMutability": "view",
      "type": "function"
    },
    {
      "inputs": [
        {
          "internalType": "address",
          "name": "tp_",
          "type": "address"
        }
      ],
      "name": "getPACtp",
      "outputs": [
        {
          "internalType": "uint256",
          "name": "",
          "type": "uint256"
        }
      ],
      "stateMutability": "view",
      "type": "function"
    },
    {
      "inputs": [],
      "name": "getPTCac",
      "outputs": [
        {
          "internalType": "uint256",
          "name": "pTCac",
          "type": "uint256"
        }
      ],
      "stateMutability": "view",
      "type": "function"
    },
    {
      "inputs": [],
      "name": "getTCAvailableToRedeem",
      "outputs": [
        {
          "internalType": "uint256",
          "name": "tcAvailableToRedeem",
          "type": "uint256"
        }
      ],
      "stateMutability": "view",
      "type": "function"
    },
    {
      "inputs": [
        {
          "internalType": "address",
          "name": "tp_",
          "type": "address"
        }
      ],
      "name": "getTPAvailableToMint",
      "outputs": [
        {
          "internalType": "int256",
          "name": "tpAvailableToMint",
          "type": "int256"
        }
      ],
      "stateMutability": "view",
      "type": "function"
    },
    {
      "inputs": [],
      "name": "getTotalACavailable",
      "outputs": [
        {
          "internalType": "uint256",
          "name": "totalACavailable",
          "type": "uint256"
        }
      ],
      "stateMutability": "view",
      "type": "function"
    },
    {
      "inputs": [],
      "name": "getTpAmount",
      "outputs": [
        {
          "internalType": "uint256",
          "name": "",
          "type": "uint256"
        }
      ],
      "stateMutability": "view",
      "type": "function"
    },
    {
      "inputs": [],
      "name": "governor",
      "outputs": [
        {
          "internalType": "contract IGovernor",
          "name": "",
          "type": "address"
        }
      ],
      "stateMutability": "view",
      "type": "function"
    },
    {
      "inputs": [
        {
          "components": [
            {
              "components": [
                {
                  "components": [
                    {
                      "internalType": "address payable",
                      "name": "mocQueueAddress",
                      "type": "address"
                    },
                    {
                      "internalType": "address",
                      "name": "feeTokenAddress",
                      "type": "address"
                    },
                    {
                      "internalType": "address",
                      "name": "feeTokenPriceProviderAddress",
                      "type": "address"
                    },
                    {
                      "internalType": "address",
                      "name": "tcTokenAddress",
                      "type": "address"
                    },
                    {
                      "internalType": "address",
                      "name": "mocFeeFlowAddress",
                      "type": "address"
                    },
                    {
                      "internalType": "address",
                      "name": "mocAppreciationBeneficiaryAddress",
                      "type": "address"
                    },
                    {
                      "internalType": "uint256",
                      "name": "protThrld",
                      "type": "uint256"
                    },
                    {
                      "internalType": "uint256",
                      "name": "liqThrld",
                      "type": "uint256"
                    },
                    {
                      "internalType": "uint256",
                      "name": "feeRetainer",
                      "type": "uint256"
                    },
                    {
                      "internalType": "uint256",
                      "name": "tcMintFee",
                      "type": "uint256"
                    },
                    {
                      "internalType": "uint256",
                      "name": "tcRedeemFee",
                      "type": "uint256"
                    },
                    {
                      "internalType": "uint256",
                      "name": "swapTPforTPFee",
                      "type": "uint256"
                    },
                    {
                      "internalType": "uint256",
                      "name": "swapTPforTCFee",
                      "type": "uint256"
                    },
                    {
                      "internalType": "uint256",
                      "name": "swapTCforTPFee",
                      "type": "uint256"
                    },
                    {
                      "internalType": "uint256",
                      "name": "redeemTCandTPFee",
                      "type": "uint256"
                    },
                    {
                      "internalType": "uint256",
                      "name": "mintTCandTPFee",
                      "type": "uint256"
                    },
                    {
                      "internalType": "uint256",
                      "name": "feeTokenPct",
                      "type": "uint256"
                    },
                    {
                      "internalType": "uint256",
                      "name": "successFee",
                      "type": "uint256"
                    },
                    {
                      "internalType": "uint256",
                      "name": "appreciationFactor",
                      "type": "uint256"
                    },
                    {
                      "internalType": "uint256",
                      "name": "bes",
                      "type": "uint256"
                    },
                    {
                      "internalType": "address",
                      "name": "tcInterestCollectorAddress",
                      "type": "address"
                    },
                    {
                      "internalType": "uint256",
                      "name": "tcInterestRate",
                      "type": "uint256"
                    },
                    {
                      "internalType": "uint256",
                      "name": "tcInterestPaymentBlockSpan",
                      "type": "uint256"
                    },
                    {
                      "internalType": "address",
                      "name": "maxAbsoluteOpProviderAddress",
                      "type": "address"
                    },
                    {
                      "internalType": "address",
                      "name": "maxOpDiffProviderAddress",
                      "type": "address"
                    },
                    {
                      "internalType": "uint256",
                      "name": "decayBlockSpan",
                      "type": "uint256"
                    }
                  ],
                  "internalType": "struct MocBaseBucket.InitializeBaseBucketParams",
                  "name": "initializeBaseBucketParams",
                  "type": "tuple"
                },
                {
                  "internalType": "address",
                  "name": "governorAddress",
                  "type": "address"
                },
                {
                  "internalType": "address",
                  "name": "pauserAddress",
                  "type": "address"
                },
                {
                  "internalType": "address",
                  "name": "mocCoreExpansion",
                  "type": "address"
                },
                {
                  "internalType": "uint256",
                  "name": "emaCalculationBlockSpan",
                  "type": "uint256"
                },
                {
                  "internalType": "address",
                  "name": "mocVendors",
                  "type": "address"
                }
              ],
              "internalType": "struct MocCore.InitializeCoreParams",
              "name": "initializeCoreParams",
              "type": "tuple"
            },
            {
              "internalType": "address",
              "name": "acTokenAddress",
              "type": "address"
            }
          ],
          "internalType": "struct MocCARC20.InitializeParams",
          "name": "initializeParams_",
          "type": "tuple"
        }
      ],
      "name": "initialize",
      "outputs": [],
      "stateMutability": "nonpayable",
      "type": "function"
    },
    {
      "inputs": [],
      "name": "isLiquidationReached",
      "outputs": [
        {
          "internalType": "bool",
          "name": "",
          "type": "bool"
        }
      ],
      "stateMutability": "view",
      "type": "function"
    },
    {
      "inputs": [],
      "name": "lastOperationBlockNumber",
      "outputs": [
        {
          "internalType": "uint256",
          "name": "",
          "type": "uint256"
        }
      ],
      "stateMutability": "view",
      "type": "function"
    },
    {
      "inputs": [],
      "name": "liqEnabled",
      "outputs": [
        {
          "internalType": "bool",
          "name": "",
          "type": "bool"
        }
      ],
      "stateMutability": "view",
      "type": "function"
    },
    {
      "inputs": [
        {
          "internalType": "address",
          "name": "tp_",
          "type": "address"
        },
        {
          "internalType": "address",
          "name": "recipient_",
          "type": "address"
        }
      ],
      "name": "liqRedeemTP",
      "outputs": [
        {
          "internalType": "uint256",
          "name": "qACRedeemed",
          "type": "uint256"
        }
      ],
      "stateMutability": "nonpayable",
      "type": "function"
    },
    {
      "inputs": [],
      "name": "liqThrld",
      "outputs": [
        {
          "internalType": "uint256",
          "name": "",
          "type": "uint256"
        }
      ],
      "stateMutability": "view",
      "type": "function"
    },
    {
      "inputs": [],
      "name": "liquidated",
      "outputs": [
        {
          "internalType": "bool",
          "name": "",
          "type": "bool"
        }
      ],
      "stateMutability": "view",
      "type": "function"
    },
    {
      "inputs": [],
      "name": "makeStoppable",
      "outputs": [],
      "stateMutability": "nonpayable",
      "type": "function"
    },
    {
      "inputs": [],
      "name": "makeUnstoppable",
      "outputs": [],
      "stateMutability": "nonpayable",
      "type": "function"
    },
    {
      "inputs": [],
      "name": "maxAbsoluteOpProvider",
      "outputs": [
        {
          "internalType": "contract IDataProvider",
          "name": "",
          "type": "address"
        }
      ],
      "stateMutability": "view",
      "type": "function"
    },
    {
      "inputs": [],
      "name": "maxOpDiffProvider",
      "outputs": [
        {
          "internalType": "contract IDataProvider",
          "name": "",
          "type": "address"
        }
      ],
      "stateMutability": "view",
      "type": "function"
    },
    {
      "inputs": [],
      "name": "maxQACToMintTP",
      "outputs": [
        {
          "internalType": "uint256",
          "name": "maxQAC",
          "type": "uint256"
        }
      ],
      "stateMutability": "view",
      "type": "function"
    },
    {
      "inputs": [],
      "name": "maxQACToRedeemTP",
      "outputs": [
        {
          "internalType": "uint256",
          "name": "maxQAC",
          "type": "uint256"
        }
      ],
      "stateMutability": "view",
      "type": "function"
    },
    {
      "inputs": [
        {
          "internalType": "uint256",
          "name": "qTC_",
          "type": "uint256"
        },
        {
          "internalType": "uint256",
          "name": "qACmax_",
          "type": "uint256"
        },
        {
          "internalType": "address",
          "name": "recipient_",
          "type": "address"
        },
        {
          "internalType": "address",
          "name": "vendor_",
          "type": "address"
        }
      ],
      "name": "mintTC",
      "outputs": [
        {
          "internalType": "uint256",
          "name": "operId",
          "type": "uint256"
        }
      ],
      "stateMutability": "payable",
      "type": "function"
    },
    {
      "inputs": [
        {
          "internalType": "address",
          "name": "tp_",
          "type": "address"
        },
        {
          "internalType": "uint256",
          "name": "qTP_",
          "type": "uint256"
        },
        {
          "internalType": "uint256",
          "name": "qACmax_",
          "type": "uint256"
        },
        {
          "internalType": "address",
          "name": "recipient_",
          "type": "address"
        },
        {
          "internalType": "address",
          "name": "vendor_",
          "type": "address"
        }
      ],
      "name": "mintTCandTP",
      "outputs": [
        {
          "internalType": "uint256",
          "name": "operId",
          "type": "uint256"
        }
      ],
      "stateMutability": "payable",
      "type": "function"
    },
    {
      "inputs": [],
      "name": "mintTCandTPFee",
      "outputs": [
        {
          "internalType": "uint256",
          "name": "",
          "type": "uint256"
        }
      ],
      "stateMutability": "view",
      "type": "function"
    },
    {
      "inputs": [
        {
          "internalType": "address",
          "name": "tp_",
          "type": "address"
        },
        {
          "internalType": "uint256",
          "name": "qTP_",
          "type": "uint256"
        },
        {
          "internalType": "uint256",
          "name": "qACmax_",
          "type": "uint256"
        },
        {
          "internalType": "address",
          "name": "recipient_",
          "type": "address"
        },
        {
          "internalType": "address",
          "name": "vendor_",
          "type": "address"
        }
      ],
      "name": "mintTP",
      "outputs": [
        {
          "internalType": "uint256",
          "name": "operId",
          "type": "uint256"
        }
      ],
      "stateMutability": "payable",
      "type": "function"
    },
    {
      "inputs": [],
      "name": "mocAppreciationBeneficiaryAddress",
      "outputs": [
        {
          "internalType": "address",
          "name": "",
          "type": "address"
        }
      ],
      "stateMutability": "view",
      "type": "function"
    },
    {
      "inputs": [],
      "name": "mocFeeFlowAddress",
      "outputs": [
        {
          "internalType": "address",
          "name": "",
          "type": "address"
        }
      ],
      "stateMutability": "view",
      "type": "function"
    },
    {
      "inputs": [],
      "name": "mocQueue",
      "outputs": [
        {
          "internalType": "address payable",
          "name": "",
          "type": "address"
        }
      ],
      "stateMutability": "view",
      "type": "function"
    },
    {
      "inputs": [],
      "name": "mocVendors",
      "outputs": [
        {
          "internalType": "contract MocVendors",
          "name": "",
          "type": "address"
        }
      ],
      "stateMutability": "view",
      "type": "function"
    },
    {
      "inputs": [],
      "name": "nACcb",
      "outputs": [
        {
          "internalType": "uint256",
          "name": "",
          "type": "uint256"
        }
      ],
      "stateMutability": "view",
      "type": "function"
    },
    {
      "inputs": [],
      "name": "nTCcb",
      "outputs": [
        {
          "internalType": "uint256",
          "name": "",
          "type": "uint256"
        }
      ],
      "stateMutability": "view",
      "type": "function"
    },
    {
      "inputs": [],
      "name": "nextEmaCalculation",
      "outputs": [
        {
          "internalType": "uint256",
          "name": "",
          "type": "uint256"
        }
      ],
      "stateMutability": "view",
      "type": "function"
    },
    {
      "inputs": [],
      "name": "nextTCInterestPayment",
      "outputs": [
        {
          "internalType": "uint256",
          "name": "",
          "type": "uint256"
        }
      ],
      "stateMutability": "view",
      "type": "function"
    },
    {
      "inputs": [],
      "name": "pause",
      "outputs": [],
      "stateMutability": "nonpayable",
      "type": "function"
    },
    {
      "inputs": [],
      "name": "paused",
      "outputs": [
        {
          "internalType": "bool",
          "name": "",
          "type": "bool"
        }
      ],
      "stateMutability": "view",
      "type": "function"
    },
    {
      "inputs": [],
      "name": "pauser",
      "outputs": [
        {
          "internalType": "address",
          "name": "",
          "type": "address"
        }
      ],
      "stateMutability": "view",
      "type": "function"
    },
    {
      "inputs": [
        {
          "internalType": "uint256",
          "name": "",
          "type": "uint256"
        }
      ],
      "name": "pegContainer",
      "outputs": [
        {
          "internalType": "uint256",
          "name": "nTP",
          "type": "uint256"
        },
        {
          "internalType": "contract IPriceProvider",
          "name": "priceProvider",
          "type": "address"
        }
      ],
      "stateMutability": "view",
      "type": "function"
    },
    {
      "inputs": [
        {
          "internalType": "address",
          "name": "",
          "type": "address"
        }
      ],
      "name": "peggedTokenIndex",
      "outputs": [
        {
          "internalType": "uint256",
          "name": "index",
          "type": "uint256"
        },
        {
          "internalType": "bool",
          "name": "exists",
          "type": "bool"
        }
      ],
      "stateMutability": "view",
      "type": "function"
    },
    {
      "inputs": [],
      "name": "protThrld",
      "outputs": [
        {
          "internalType": "uint256",
          "name": "",
          "type": "uint256"
        }
      ],
      "stateMutability": "view",
      "type": "function"
    },
    {
      "inputs": [],
      "name": "proxiableUUID",
      "outputs": [
        {
          "internalType": "bytes32",
          "name": "",
          "type": "bytes32"
        }
      ],
      "stateMutability": "view",
      "type": "function"
    },
    {
      "inputs": [],
      "name": "qACLockedInPending",
      "outputs": [
        {
          "internalType": "uint256",
          "name": "",
          "type": "uint256"
        }
      ],
      "stateMutability": "view",
      "type": "function"
    },
    {
      "inputs": [
        {
          "internalType": "uint256",
          "name": "qTC_",
          "type": "uint256"
        },
        {
          "internalType": "uint256",
          "name": "qACmin_",
          "type": "uint256"
        },
        {
          "internalType": "address",
          "name": "recipient_",
          "type": "address"
        },
        {
          "internalType": "address",
          "name": "vendor_",
          "type": "address"
        }
      ],
      "name": "redeemTC",
      "outputs": [
        {
          "internalType": "uint256",
          "name": "operId",
          "type": "uint256"
        }
      ],
      "stateMutability": "payable",
      "type": "function"
    },
    {
      "inputs": [
        {
          "internalType": "address",
          "name": "tp_",
          "type": "address"
        },
        {
          "internalType": "uint256",
          "name": "qTC_",
          "type": "uint256"
        },
        {
          "internalType": "uint256",
          "name": "qTP_",
          "type": "uint256"
        },
        {
          "internalType": "uint256",
          "name": "qACmin_",
          "type": "uint256"
        },
        {
          "internalType": "address",
          "name": "recipient_",
          "type": "address"
        },
        {
          "internalType": "address",
          "name": "vendor_",
          "type": "address"
        }
      ],
      "name": "redeemTCandTP",
      "outputs": [
        {
          "internalType": "uint256",
          "name": "operId",
          "type": "uint256"
        }
      ],
      "stateMutability": "payable",
      "type": "function"
    },
    {
      "inputs": [],
      "name": "redeemTCandTPFee",
      "outputs": [
        {
          "internalType": "uint256",
          "name": "",
          "type": "uint256"
        }
      ],
      "stateMutability": "view",
      "type": "function"
    },
    {
      "inputs": [
        {
          "internalType": "address",
          "name": "tp_",
          "type": "address"
        },
        {
          "internalType": "uint256",
          "name": "qTP_",
          "type": "uint256"
        },
        {
          "internalType": "uint256",
          "name": "qACmin_",
          "type": "uint256"
        },
        {
          "internalType": "address",
          "name": "recipient_",
          "type": "address"
        },
        {
          "internalType": "address",
          "name": "vendor_",
          "type": "address"
        }
      ],
      "name": "redeemTP",
      "outputs": [
        {
          "internalType": "uint256",
          "name": "operId",
          "type": "uint256"
        }
      ],
      "stateMutability": "payable",
      "type": "function"
    },
    {
      "inputs": [],
      "name": "refreshACBalance",
      "outputs": [],
      "stateMutability": "nonpayable",
      "type": "function"
    },
    {
      "inputs": [
        {
          "internalType": "uint256",
          "name": "appreciationFactor_",
          "type": "uint256"
        }
      ],
      "name": "setAppreciationFactor",
      "outputs": [],
      "stateMutability": "nonpayable",
      "type": "function"
    },
    {
      "inputs": [
        {
          "internalType": "uint256",
          "name": "bes_",
          "type": "uint256"
        }
      ],
      "name": "setBes",
      "outputs": [],
      "stateMutability": "nonpayable",
      "type": "function"
    },
    {
      "inputs": [
        {
          "internalType": "uint256",
          "name": "decayBlockSpan_",
          "type": "uint256"
        }
      ],
      "name": "setDecayBlockSpan",
      "outputs": [],
      "stateMutability": "nonpayable",
      "type": "function"
    },
    {
      "inputs": [
        {
          "internalType": "uint256",
          "name": "blockSpan_",
          "type": "uint256"
        }
      ],
      "name": "setEmaCalculationBlockSpan",
      "outputs": [],
      "stateMutability": "nonpayable",
      "type": "function"
    },
    {
      "inputs": [
        {
          "internalType": "uint256",
          "name": "feeRetainer_",
          "type": "uint256"
        }
      ],
      "name": "setFeeRetainer",
      "outputs": [],
      "stateMutability": "nonpayable",
      "type": "function"
    },
    {
      "inputs": [
        {
          "internalType": "address",
          "name": "mocFeeTokenAddress_",
          "type": "address"
        }
      ],
      "name": "setFeeTokenAddress",
      "outputs": [],
      "stateMutability": "nonpayable",
      "type": "function"
    },
    {
      "inputs": [
        {
          "internalType": "uint256",
          "name": "feeTokenPct_",
          "type": "uint256"
        }
      ],
      "name": "setFeeTokenPct",
      "outputs": [],
      "stateMutability": "nonpayable",
      "type": "function"
    },
    {
      "inputs": [
        {
          "internalType": "address",
          "name": "mocFeeTokenPriceProviderAddress_",
          "type": "address"
        }
      ],
      "name": "setFeeTokenPriceProviderAddress",
      "outputs": [],
      "stateMutability": "nonpayable",
      "type": "function"
    },
    {
      "inputs": [
        {
          "internalType": "bool",
          "name": "liqEnabled_",
          "type": "bool"
        }
      ],
      "name": "setLiqEnabled",
      "outputs": [],
      "stateMutability": "nonpayable",
      "type": "function"
    },
    {
      "inputs": [
        {
          "internalType": "uint256",
          "name": "liqThrld_",
          "type": "uint256"
        }
      ],
      "name": "setLiqThrld",
      "outputs": [],
      "stateMutability": "nonpayable",
      "type": "function"
    },
    {
      "inputs": [
        {
          "internalType": "address",
          "name": "maxAbsoluteOpProviderAddress_",
          "type": "address"
        }
      ],
      "name": "setMaxAbsoluteOpProviderAddress",
      "outputs": [],
      "stateMutability": "nonpayable",
      "type": "function"
    },
    {
      "inputs": [
        {
          "internalType": "address",
          "name": "maxOpDiffProviderAddress_",
          "type": "address"
        }
      ],
      "name": "setMaxOpDiffProviderAddress",
      "outputs": [],
      "stateMutability": "nonpayable",
      "type": "function"
    },
    {
      "inputs": [
        {
          "internalType": "uint256",
          "name": "mintTCandTPFee_",
          "type": "uint256"
        }
      ],
      "name": "setMintTCandTPFee",
      "outputs": [],
      "stateMutability": "nonpayable",
      "type": "function"
    },
    {
      "inputs": [
        {
          "internalType": "address",
          "name": "mocAppreciationBeneficiaryAddress_",
          "type": "address"
        }
      ],
      "name": "setMocAppreciationBeneficiaryAddress",
      "outputs": [],
      "stateMutability": "nonpayable",
      "type": "function"
    },
    {
      "inputs": [
        {
          "internalType": "address",
          "name": "mocCoreExpansion_",
          "type": "address"
        }
      ],
      "name": "setMocCoreExpansion",
      "outputs": [],
      "stateMutability": "nonpayable",
      "type": "function"
    },
    {
      "inputs": [
        {
          "internalType": "address",
          "name": "mocFeeFlowAddress_",
          "type": "address"
        }
      ],
      "name": "setMocFeeFlowAddress",
      "outputs": [],
      "stateMutability": "nonpayable",
      "type": "function"
    },
    {
      "inputs": [
        {
          "internalType": "address payable",
          "name": "mocQueueAddress_",
          "type": "address"
        }
      ],
      "name": "setMocQueue",
      "outputs": [],
      "stateMutability": "nonpayable",
      "type": "function"
    },
    {
      "inputs": [
        {
          "internalType": "address",
          "name": "mocVendors_",
          "type": "address"
        }
      ],
      "name": "setMocVendors",
      "outputs": [],
      "stateMutability": "nonpayable",
      "type": "function"
    },
    {
      "inputs": [
        {
          "internalType": "address",
          "name": "newPauser_",
          "type": "address"
        }
      ],
      "name": "setPauser",
      "outputs": [],
      "stateMutability": "nonpayable",
      "type": "function"
    },
    {
      "inputs": [
        {
          "internalType": "uint256",
          "name": "protThrld_",
          "type": "uint256"
        }
      ],
      "name": "setProtThrld",
      "outputs": [],
      "stateMutability": "nonpayable",
      "type": "function"
    },
    {
      "inputs": [
        {
          "internalType": "uint256",
          "name": "redeemTCandTPFee_",
          "type": "uint256"
        }
      ],
      "name": "setRedeemTCandTPFee",
      "outputs": [],
      "stateMutability": "nonpayable",
      "type": "function"
    },
    {
      "inputs": [
        {
          "internalType": "uint256",
          "name": "successFee_",
          "type": "uint256"
        }
      ],
      "name": "setSuccessFee",
      "outputs": [],
      "stateMutability": "nonpayable",
      "type": "function"
    },
    {
      "inputs": [
        {
          "internalType": "uint256",
          "name": "swapTCforTPFee_",
          "type": "uint256"
        }
      ],
      "name": "setSwapTCforTPFee",
      "outputs": [],
      "stateMutability": "nonpayable",
      "type": "function"
    },
    {
      "inputs": [
        {
          "internalType": "uint256",
          "name": "swapTPforTCFee_",
          "type": "uint256"
        }
      ],
      "name": "setSwapTPforTCFee",
      "outputs": [],
      "stateMutability": "nonpayable",
      "type": "function"
    },
    {
      "inputs": [
        {
          "internalType": "uint256",
          "name": "swapTPforTPFee_",
          "type": "uint256"
        }
      ],
      "name": "setSwapTPforTPFee",
      "outputs": [],
      "stateMutability": "nonpayable",
      "type": "function"
    },
    {
      "inputs": [
        {
          "internalType": "address",
          "name": "tcInterestCollectorAddress_",
          "type": "address"
        }
      ],
      "name": "setTCInterestCollectorAddress",
      "outputs": [],
      "stateMutability": "nonpayable",
      "type": "function"
    },
    {
      "inputs": [
        {
          "internalType": "uint256",
          "name": "tcInterestPaymentBlockSpan_",
          "type": "uint256"
        }
      ],
      "name": "setTCInterestPaymentBlockSpan",
      "outputs": [],
      "stateMutability": "nonpayable",
      "type": "function"
    },
    {
      "inputs": [
        {
          "internalType": "uint256",
          "name": "tcInterestRate_",
          "type": "uint256"
        }
      ],
      "name": "setTCInterestRate",
      "outputs": [],
      "stateMutability": "nonpayable",
      "type": "function"
    },
    {
      "inputs": [
        {
          "internalType": "uint256",
          "name": "tcMintFee_",
          "type": "uint256"
        }
      ],
      "name": "setTcMintFee",
      "outputs": [],
      "stateMutability": "nonpayable",
      "type": "function"
    },
    {
      "inputs": [
        {
          "internalType": "uint256",
          "name": "tcRedeemFee_",
          "type": "uint256"
        }
      ],
      "name": "setTcRedeemFee",
      "outputs": [],
      "stateMutability": "nonpayable",
      "type": "function"
    },
    {
      "inputs": [],
      "name": "shouldCalculateEma",
      "outputs": [
        {
          "internalType": "bool",
          "name": "",
          "type": "bool"
        }
      ],
      "stateMutability": "view",
      "type": "function"
    },
    {
      "inputs": [],
      "name": "stoppable",
      "outputs": [
        {
          "internalType": "bool",
          "name": "",
          "type": "bool"
        }
      ],
      "stateMutability": "view",
      "type": "function"
    },
    {
      "inputs": [],
      "name": "successFee",
      "outputs": [
        {
          "internalType": "uint256",
          "name": "",
          "type": "uint256"
        }
      ],
      "stateMutability": "view",
      "type": "function"
    },
    {
      "inputs": [
        {
          "internalType": "address",
          "name": "tp_",
          "type": "address"
        },
        {
          "internalType": "uint256",
          "name": "qTC_",
          "type": "uint256"
        },
        {
          "internalType": "uint256",
          "name": "qTPmin_",
          "type": "uint256"
        },
        {
          "internalType": "uint256",
          "name": "qACmax_",
          "type": "uint256"
        },
        {
          "internalType": "address",
          "name": "recipient_",
          "type": "address"
        },
        {
          "internalType": "address",
          "name": "vendor_",
          "type": "address"
        }
      ],
      "name": "swapTCforTP",
      "outputs": [
        {
          "internalType": "uint256",
          "name": "operId",
          "type": "uint256"
        }
      ],
      "stateMutability": "payable",
      "type": "function"
    },
    {
      "inputs": [],
      "name": "swapTCforTPFee",
      "outputs": [
        {
          "internalType": "uint256",
          "name": "",
          "type": "uint256"
        }
      ],
      "stateMutability": "view",
      "type": "function"
    },
    {
      "inputs": [
        {
          "internalType": "address",
          "name": "tp_",
          "type": "address"
        },
        {
          "internalType": "uint256",
          "name": "qTP_",
          "type": "uint256"
        },
        {
          "internalType": "uint256",
          "name": "qTCmin_",
          "type": "uint256"
        },
        {
          "internalType": "uint256",
          "name": "qACmax_",
          "type": "uint256"
        },
        {
          "internalType": "address",
          "name": "recipient_",
          "type": "address"
        },
        {
          "internalType": "address",
          "name": "vendor_",
          "type": "address"
        }
      ],
      "name": "swapTPforTC",
      "outputs": [
        {
          "internalType": "uint256",
          "name": "operId",
          "type": "uint256"
        }
      ],
      "stateMutability": "payable",
      "type": "function"
    },
    {
      "inputs": [],
      "name": "swapTPforTCFee",
      "outputs": [
        {
          "internalType": "uint256",
          "name": "",
          "type": "uint256"
        }
      ],
      "stateMutability": "view",
      "type": "function"
    },
    {
      "inputs": [
        {
          "internalType": "address",
          "name": "tpFrom_",
          "type": "address"
        },
        {
          "internalType": "address",
          "name": "tpTo_",
          "type": "address"
        },
        {
          "internalType": "uint256",
          "name": "qTP_",
          "type": "uint256"
        },
        {
          "internalType": "uint256",
          "name": "qTPmin_",
          "type": "uint256"
        },
        {
          "internalType": "uint256",
          "name": "qACmax_",
          "type": "uint256"
        },
        {
          "internalType": "address",
          "name": "recipient_",
          "type": "address"
        },
        {
          "internalType": "address",
          "name": "vendor_",
          "type": "address"
        }
      ],
      "name": "swapTPforTP",
      "outputs": [
        {
          "internalType": "uint256",
          "name": "operId",
          "type": "uint256"
        }
      ],
      "stateMutability": "payable",
      "type": "function"
    },
    {
      "inputs": [],
      "name": "swapTPforTPFee",
      "outputs": [
        {
          "internalType": "uint256",
          "name": "",
          "type": "uint256"
        }
      ],
      "stateMutability": "view",
      "type": "function"
    },
    {
      "inputs": [],
      "name": "tcHoldersInterestPayment",
      "outputs": [],
      "stateMutability": "nonpayable",
      "type": "function"
    },
    {
      "inputs": [],
      "name": "tcInterestCollectorAddress",
      "outputs": [
        {
          "internalType": "address",
          "name": "",
          "type": "address"
        }
      ],
      "stateMutability": "view",
      "type": "function"
    },
    {
      "inputs": [],
      "name": "tcInterestPaymentBlockSpan",
      "outputs": [
        {
          "internalType": "uint256",
          "name": "",
          "type": "uint256"
        }
      ],
      "stateMutability": "view",
      "type": "function"
    },
    {
      "inputs": [],
      "name": "tcInterestRate",
      "outputs": [
        {
          "internalType": "uint256",
          "name": "",
          "type": "uint256"
        }
      ],
      "stateMutability": "view",
      "type": "function"
    },
    {
      "inputs": [],
      "name": "tcMintFee",
      "outputs": [
        {
          "internalType": "uint256",
          "name": "",
          "type": "uint256"
        }
      ],
      "stateMutability": "view",
      "type": "function"
    },
    {
      "inputs": [],
      "name": "tcRedeemFee",
      "outputs": [
        {
          "internalType": "uint256",
          "name": "",
          "type": "uint256"
        }
      ],
      "stateMutability": "view",
      "type": "function"
    },
    {
      "inputs": [],
      "name": "tcToken",
      "outputs": [
        {
          "internalType": "contract MocTC",
          "name": "",
          "type": "address"
        }
      ],
      "stateMutability": "view",
      "type": "function"
    },
    {
      "inputs": [
        {
          "internalType": "uint256",
          "name": "",
          "type": "uint256"
        }
      ],
      "name": "tpCtarg",
      "outputs": [
        {
          "internalType": "uint256",
          "name": "",
          "type": "uint256"
        }
      ],
      "stateMutability": "view",
      "type": "function"
    },
    {
      "inputs": [
        {
          "internalType": "uint256",
          "name": "",
          "type": "uint256"
        }
      ],
      "name": "tpEma",
      "outputs": [
        {
          "internalType": "uint256",
          "name": "ema",
          "type": "uint256"
        },
        {
          "internalType": "uint256",
          "name": "sf",
          "type": "uint256"
        }
      ],
      "stateMutability": "view",
      "type": "function"
    },
    {
      "inputs": [
        {
          "internalType": "uint256",
          "name": "",
          "type": "uint256"
        }
      ],
      "name": "tpLiqPrices",
      "outputs": [
        {
          "internalType": "uint256",
          "name": "",
          "type": "uint256"
        }
      ],
      "stateMutability": "view",
      "type": "function"
    },
    {
      "inputs": [
        {
          "internalType": "address",
          "name": "",
          "type": "address"
        }
      ],
      "name": "tpMintFees",
      "outputs": [
        {
          "internalType": "uint256",
          "name": "",
          "type": "uint256"
        }
      ],
      "stateMutability": "view",
      "type": "function"
    },
    {
      "inputs": [
        {
          "internalType": "address",
          "name": "",
          "type": "address"
        }
      ],
      "name": "tpRedeemFees",
      "outputs": [
        {
          "internalType": "uint256",
          "name": "",
          "type": "uint256"
        }
      ],
      "stateMutability": "view",
      "type": "function"
    },
    {
      "inputs": [
        {
          "internalType": "uint256",
          "name": "",
          "type": "uint256"
        }
      ],
      "name": "tpTokens",
      "outputs": [
        {
          "internalType": "contract IMocRC20",
          "name": "",
          "type": "address"
        }
      ],
      "stateMutability": "view",
      "type": "function"
    },
    {
      "inputs": [
        {
          "internalType": "address",
          "name": "owner_",
          "type": "address"
        },
        {
          "internalType": "uint256",
          "name": "qACToUnlock_",
          "type": "uint256"
        }
      ],
      "name": "unlockACInPending",
      "outputs": [],
      "stateMutability": "nonpayable",
      "type": "function"
    },
    {
      "inputs": [
        {
          "internalType": "address",
          "name": "owner_",
          "type": "address"
        },
        {
          "internalType": "uint256",
          "name": "qTCToUnlock_",
          "type": "uint256"
        }
      ],
      "name": "unlockTCInPending",
      "outputs": [],
      "stateMutability": "nonpayable",
      "type": "function"
    },
    {
      "inputs": [
        {
          "internalType": "address",
          "name": "owner_",
          "type": "address"
        },
        {
          "internalType": "contract IERC20Upgradeable",
          "name": "tpToken_",
          "type": "address"
        },
        {
          "internalType": "uint256",
          "name": "qTPToUnlock_",
          "type": "uint256"
        }
      ],
      "name": "unlockTPInPending",
      "outputs": [],
      "stateMutability": "nonpayable",
      "type": "function"
    },
    {
      "inputs": [],
      "name": "unpause",
      "outputs": [],
      "stateMutability": "nonpayable",
      "type": "function"
    },
    {
      "inputs": [],
      "name": "updateEmas",
      "outputs": [],
      "stateMutability": "nonpayable",
      "type": "function"
    },
    {
      "inputs": [
        {
          "internalType": "address",
          "name": "newImplementation",
          "type": "address"
        }
      ],
      "name": "upgradeTo",
      "outputs": [],
      "stateMutability": "nonpayable",
      "type": "function"
    },
    {
      "inputs": [
        {
          "internalType": "address",
          "name": "newImplementation",
          "type": "address"
        },
        {
          "internalType": "bytes",
          "name": "data",
          "type": "bytes"
        }
      ],
      "name": "upgradeToAndCall",
      "outputs": [],
      "stateMutability": "payable",
      "type": "function"
    }
  ],
  "bytecode": "0x60a08060405234620000e157306080526000549060ff8260081c166200008f575060ff8082160362000053575b60405161578c9081620000e7823960805181818161279d0152818161290c0152612e950152f35b60ff90811916176000557f7f26b83ff96e1f2b6a682f133852f6798a09c465da95921460cefb3847402498602060405160ff8152a1386200002c565b62461bcd60e51b815260206004820152602760248201527f496e697469616c697a61626c653a20636f6e747261637420697320696e697469604482015266616c697a696e6760c81b6064820152608490fd5b600080fdfe604060808152600436101561001357600080fd5b60009060e08235811c90816301dde6ef14613a3c57816301f1b684146139f55781630579188f1461395c578163073763b9146139385781630c340a241461390f5781630c36d897146138ef5781630d6ac463146138a95781630db49656146138895781630e0a8fd2146138655781630f1e5e2b1461381f57816313ed7ba5146137f557816314b4906d146137445781631867e2f5146137245781631fb0dda0146136fb5781631fe6a7ad146136c15781632069f7531461369d578163235e81cf146134ab57816323b98cde1461348357816324ffaba31461344657816325bc6c411461341c57816327eab2a1146133d65781632a20d57d146133b65781632c43bd3b146133925781632d88af4a1461333b5781632ded50f01461331b5781632eccb11c1461323f5781632ed35ca114613114578163333431fd146130f457816333421c3814612ff957816334d70ffa14612efa5781633659cfe614612e605781633915edcb14612e2f578163391bf6cf14612d175781633bc4ac0a14612cf35781633cfb09ef14612cad5781633f4ba83a14612ba15781634017936a14612b70578163407f0e3414612b5057816347dda6af14612aa65781634af3a6fc14612a275781634b746001146129dd5781634d977e78146129bd5781634e1f907a146129935781634f0f27ee146129735781634f1ef286146128835781635210570c1461285d57816352d1902d14612788578163533a4bea1461275757816353b16d1714612712578163543aeb48146126ee5781635860ee63146126ce57816358f32de9146126865781635c616a731461248b5781635c975abb146124645781635cfbe5781461244457816360009e0b1461241a57816360a01dfa14611ecd57816360ef07bf14611e26578163647846a514611dfc57816364ec230a14611dd8578163662013f414611dbb5781636827435714611d925781636b5488df14611d725781636f30471f14611d525781637071346814611d2e578163735d396014611ce857816373e28af914611cc45781637554fffd14611ca45781637622805514611c845781637750ba0c14611c60578163797709ca14611b7157816379f9a91c14611b515781637a193c3114611b315781637a4ff1d914611b0d5781637a727fe814611aed5781637af5758c14611ac95781637cba238314611aa55781637d8e031414611a665781637f01c71514611a3c5781637f13b99814611a065781637f4a4fe0146119e6578163826fcd58146119c35781638456cb591461192e57816385bf9593146118e8578163883d21cb146118275781638cfa4241146118075781638e2bdb86146117dd5781638f1a383a146117b55781639853c35a1461178b5781639ad6659d146117555781639cabfc00146117095781639fd0506d146116dc578163a8e9ac30146116b9578163ad4e666d146114d9578163aea038dc146114b9578163b03e11a0146113af578163b4434c32146111f1578163b5e9ea8c146111c7578163b9fa6413146111a7578163bb4872de14611183578163bc4e55b2146110b5578163becaca6b14611091578163bfe4262114610e96578163c00f538d14610e72578163c039cc6914610e30578163c84353c914610e0c578163cf351c1d14610dc6578163d1a0faa014610dad578163d2dc25a514610d28578163d6af11da14610cec578163d87aab6f14610ccc578163d8c69aec14610bb6578163d8db6f5a14610b70578163db79607214610b33578163ddb6d19014610af6578163de8d520a14610ac3578163e23c135c14610aaa578163e2c5e99014610a49578163e4c0aaf414610a04578163e6a683e0146109be578163e6b1627c1461097a578163e7c2597814610955578163e8859a1514610938578163ee1f438f1461090e578163f13f4054146108e4578163f26114aa1461087f57508063f28087781461085b578063f30b56141461083c578063f375cfba1461081d578063f88b1434146107ad578063fa6e83bd1461078e578063fadda42414610717578063fda70f8b146106f8578063fdcdc11e146106115763fe6b92c1146105ef57600080fd5b3461060d578160031936011261060d57602090610135549051908152f35b5080fd5b610696838360c4610623366004613b23565b6106309892959198614ee0565b6106386156ee565b86519461064660c087613bb1565b60018060a01b03918280921687528160209b8c97888a0152898b8a01523360608a01521660808801521660a086015261014f541693865194859384926323ec24b560e11b84526004840190614f02565b34905af19384156106ed57936106b7575b506106b190614e76565b51908152f35b9092508381813d83116106e6575b6106cf8183613bb1565b810103126106e15751916106b16106a7565b600080fd5b503d6106c5565b8351903d90823e3d90fd5b503461060d578160031936011261060d5760209061013c549051908152f35b50903461078b57602036600319011261078b57506001600160a01b0360043581811681036106e15761075561074d600192614612565b610137613b95565b50015416610762816146ae565b91909115610774575060209151908152f35b602490835190637f6e4db960e01b82526004820152fd5b80fd5b503461060d578160031936011261060d5760209061013a549051908152f35b50903461078b57602036600319011261078b5750600435906001600160a01b03821682036106e1576108166108086020936107f16107e9614d1f565b919092614612565b916108106107ff8484614311565b51948593614325565b959094614c7c565b90614b79565b9051908152f35b503461060d578160031936011261060d57602090610141549051908152f35b503461060d578160031936011261060d57602090610131549051908152f35b823461078b57602036600319011261078b57610875615660565b60043561013c5580f35b9050346108e05736600319011261060d576108dc9061089c615660565b516379308a5560e11b60208201526108ca816108bc600460248301614a85565b03601f198101835282613bb1565b6101f6546001600160a01b0316614952565b5080f35b8280fd5b50503461060d578160031936011261060d576101305490516001600160a01b039091168152602090f35b50503461060d578160031936011261060d576101525490516001600160a01b039091168152602090f35b50503461060d578160031936011261060d57602090610816614c3f565b50503461060d578160031936011261060d5760209060ff61014b541690519015158152f35b50503461060d57602036600319011261060d5760043561018e80548210156109ba57906109a691613b95565b506001815491015482519182526020820152f35b8380fd5b833461078b57602036600319011261078b576004356001600160a01b038116908190036106e1576109ed615660565b6101f680546001600160a01b031916909117905580f35b833461078b57602036600319011261078b576004356001600160a01b0381169081900361060d57610a33615660565b6001600160601b0360a01b609754161760975580f35b82843461078b57606036600319011261078b576001600160a01b0360043581811681036106e1576024359180831683036109ba5761014f54163303610a995790610a969160443591615627565b80f35b8351631974847760e01b8152600490fd5b833461078b578060031936011261078b57610a9661424c565b50503461060d578160031936011261060d57602090610816610aeb610ae6614714565b614325565b905061013154614229565b50503461060d57602036600319011261060d576004356001600160a01b038116908190036106e15782829160209452610145845220549051908152f35b9050346108e05736600319011261060d576108dc90610b50615660565b51636dbcb03960e11b60208201526108ca816108bc600460248301614a85565b833461078b57602036600319011261078b576004356001600160a01b038116908190036106e157610b9f615660565b61015280546001600160a01b031916909117905580f35b8391503461060d5736600319011261078b5750610bd1614ffb565b5061014f546001600160a01b03919082163303610cbc57610c8191610bf73660046155b4565b91610c00614ffb565b50610c09614ee0565b610c116156ee565b610c5d610c4e8251633dad0bd760e11b6020820152610c336024820187614fab565b60e48152610c4361010482613bb1565b846101f65416614952565b60208082518301019101615559565b86848760808498969b95979a015116918860c08160a0840151169201511692615365565b600435938085168095036106e15760843590811681036106e157610cb894610cae91886044350391615627565b5194859485613b55565b0390f35b51631974847760e01b8152600490fd5b50503461060d578160031936011261060d57602090610155549051908152f35b50503461060d578160031936011261060d57602090610816610d0e600161474e565b610d22610d1b8284614469565b91836143b3565b91614795565b610696848460c4610d3a366004613b23565b610d479892959198614ee0565b610d4f6156ee565b865194610d5d60c087613bb1565b60018060a01b03918280921687528160209b8c97888a0152898b8a01523360608a01521660808801521660a086015261014f54169386519485938492637e81a82160e01b84526004840190614f02565b833461078b578060031936011261078b57610a96614de2565b833461078b57602036600319011261078b576004356001600160a01b038116908190036106e157610df5615660565b61012f80546001600160a01b031916909117905580f35b833461078b57602036600319011261078b57610e26615660565b60043561014c5580f35b50503461060d578160031936011261060d57602090610816610e65610e6c610e59610ae6614714565b61013193919354614229565b9182614229565b9061570f565b833461078b57602036600319011261078b57610e8c615660565b60043561013d5580f35b82843461078b5760a036600319011261078b57610eb1614ffb565b5061014f546001600160a01b03908116330361108057610ed2366004615022565b91610edb614ffb565b50610ee4614ee0565b610eec6156ee565b610ef4614de2565b610f07610eff614d1f565b81929161507f565b9091610f168284885193614b1a565b818110611063575050670de0b6b3a764000091610f38610f3e92875192614ae6565b90614436565b049182156110525793839481610f779501908082511691610f6c6080890193878486511661013d54926150c2565b969188999199614229565b9660208a01518089106110355750895190610134610f96838254614229565b9055610fa6610131918254614229565b905583610133541690813b156108e0578651632770a7eb60e21b815230600482015260248101919091529082908290604490829084905af1801561102b57611016575b5050968561100c93838060608996610cb89b9c9d51169501511691511692615365565b5193849384613ae5565b611021828092613bb1565b61078b5780610fe9565b86513d84823e3d90fd5b604490898851916354cde31360e01b835260048301526024820152fd5b845163f3e39b5d60e01b8152600490fd5b6044925087519163a5db715d60e01b835260048301526024820152fd5b8251631974847760e01b8152600490fd5b833461078b57602036600319011261078b576110ab615660565b6004356101395580f35b8391503461060d5736600319011261078b57506110d0614ffb565b5061014f546001600160a01b03908116330361117257610cb8610cae916110f83660046155b4565b93611101614ffb565b5061110a614ee0565b6111126156ee565b611134610c4e825163f5571e0160e01b6020820152610c336024820189614fab565b948860608793969599949a0191825161115161014e918254614229565b905560c06111678b836080860151169551614229565b920151169180615365565b8151631974847760e01b8152600490fd5b50503461060d578160031936011261060d5760209060ff60ca541690519015158152f35b50503461060d578160031936011261060d5760209061015b549051908152f35b50503461060d578160031936011261060d576101535490516001600160a01b039091168152602090f35b82843461078b5760c036600319011261078b5761120c614ffb565b5061014f546001600160a01b03929083163303610cbc576112a661123136600461541e565b9161123a614ffb565b50611243614ee0565b61124b6156ee565b611253614de2565b61125b614d1f565b61126a87869593955116614612565b9361128a6112788684614311565b51926112848488614a34565b8261507f565b6020889592950194848651946112a0828b614c7c565b90615487565b8181106113925750509480966112c06112f897845161570f565b9460608701906112ed83835116888a8960a082019888808b511693511681526101446020522054926150c2565b9891829b919b614304565b98878101968751808c1161137557508a15611364579489969461133f82958d9e9f95610cb89e9585608061100c9e9c61133461135a9b8661549f565b519201511692614974565b865161134f61014e918254614229565b905551169451614229565b9151169180615365565b885163f3e39b5d60e01b8152600490fd5b6044908c8b5191630b63f1a760e01b835260048301526024820152fd5b6044925084519163c39b739f60e01b835260048301526024820152fd5b82846113bc366004613c05565b906113c995939295614ee0565b6113d16156ee565b8351906113df60a083613bb1565b838252602080830197885233868401526001600160a01b03918216606084019081529382166080840190815261014f54875163fa91a9a560e01b815285516004820152995160248b0152604090940151831660448a01529351821660648901529251811660848801529195908690829060a4908290861634905af19485156114ae579461147b575b50906106b191610133541630903390614e9c565b919093508482813d83116114a7575b6114948183613bb1565b810103126106e1579051926106b1611467565b503d61148a565b8451903d90823e3d90fd5b50503461060d578160031936011261060d5760209061013d549051908152f35b50503461060d5760c036600319011261060d576114f4614ffb565b5061014f546001600160a01b03919082163303610cbc5761151636600461541e565b9161151f614ffb565b50611528614ee0565b6115306156ee565b611538614714565b9161154582855116614612565b916115686115538486614311565b519461155f8686614a34565b6101495461507f565b50506115796020860194855161570f565b9081156116a857859660606115be97019082825116936115b360a08b0195828c87808a5116915116865261014560205289862054926150c2565b9891839b919b614229565b98878c0151808b1061168b57508591611610916115dc60018d61549f565b51936115ea82610137613b95565b506115f6868254614229565b9055611606610131918254614229565b9055610135613a60565b90549060031b1c1690813b156108e0578651632770a7eb60e21b815230600482015260248101919091529082908290604490829084905af1801561102b57611676575b5050968561100c93838060808996610cb89b9c9d51169501511691511692615365565b611681828092613bb1565b61078b5780611653565b6044908b8a51916354cde31360e01b835260048301526024820152fd5b825163f3e39b5d60e01b8152600490fd5b50503461060d578160031936011261060d5760209061018f544310159051908152f35b50503461060d578160031936011261060d5760ca54905160109190911c6001600160a01b03168152602090f35b82843461078b57602036600319011261078b576004356001600160a01b03811691908290036106e157829181526101366020522060ff6001825492015416825191825215156020820152f35b50503461060d578160031936011261060d5760209061177e611778610ae6614714565b906144da565b61014a5410159051908152f35b50503461060d578160031936011261060d576101465490516001600160a01b039091168152602090f35b50503461060d578160031936011261060d576020906117d5610ae6614714565b509051908152f35b50503461060d578160031936011261060d576101585490516001600160a01b039091168152602090f35b50503461060d578160031936011261060d5760209061014a549051908152f35b82843461078b5760c036600319011261078b5750611843614ffb565b5061014f546001600160a01b03908116330361117257610cb8610cae9161186b36600461541e565b93611874614ffb565b5061187d614ee0565b6118856156ee565b6118b6610c4e8251637225da8960e11b60208201526118a76024820189614f02565b60c48152610c4360e482613bb1565b9488858793969599949a019182516118d261014e918254614229565b905560a06111678b836060860151169551614229565b833461078b57602036600319011261078b576004356001600160a01b038116908190036106e157611917615660565b61015380546001600160a01b031916909117905580f35b50503461060d578160031936011261060d576119486156ee565b60ca54601081901c6001600160a01b031633036119b25760ff8116156119a15761ff0019166101001760ca55513381527f62e78cea01bee320cd4e420270b5ea74000d11b0c9f74754ebdbfc544b05a25890602090a180f35b815163866099c360e01b8152600490fd5b8151631d77d47760e21b8152600490fd5b50503461060d578160031936011261060d57602090610816611778610ae6614714565b50503461060d578160031936011261060d5760209061015a549051908152f35b50503461060d578160031936011261060d57602090610816611a28600161474e565b610d22611a3582846143b3565b9183614469565b50503461060d578160031936011261060d576101c35490516001600160a01b039091168152602090f35b50503461060d57602036600319011261060d576004359161014890815484101561078b5750602092611a9791613a60565b91905490519160031b1c8152f35b833461078b57602036600319011261078b57611abf615660565b6004356101495580f35b833461078b57602036600319011261078b57611ae3615660565b6004356101405580f35b50503461060d578160031936011261060d57602090610190549051908152f35b833461078b57602036600319011261078b57611b27615660565b6004356101415580f35b50503461060d578160031936011261060d57602090610134549051908152f35b50503461060d578160031936011261060d57602090610142549051908152f35b905082611b7f366004613aa2565b611b8f9895919792949398614ee0565b611b976156ee565b611ba386519384613bb1565b60018060a01b03809881809416855260209a868c870152888601528660608601523360808601521660a08401521660c082015286611bfe60e48861014f54169387519485938492636b59c22f60e01b84526004840190614fab565b34905af19485156114ae5794611c2d575b50611c28906106b1939495610133541630903390614e9c565b614e76565b909293508581813d8311611c59575b611c468183613bb1565b810103126106e157519291611c28611c0f565b503d611c3c565b833461078b57602036600319011261078b57611c7a615660565b60043561013b5580f35b50503461060d578160031936011261060d57602090610156549051908152f35b50503461060d578160031936011261060d57602090610139549051908152f35b833461078b57602036600319011261078b57611cde615660565b6004356101545580f35b833461078b57602036600319011261078b576004356001600160a01b038116908190036106e157611d17615660565b61015880546001600160a01b031916909117905580f35b833461078b57602036600319011261078b57611d48615660565b60043561013e5580f35b50503461060d578160031936011261060d57602090610154549051908152f35b50503461060d578160031936011261060d57602090610149549051908152f35b833461078b578060031936011261078b57611dab615660565b600160ff1960ca54161760ca5580f35b50503461060d578160031936011261060d576020906117d5614d1f565b833461078b57602036600319011261078b57611df2615660565b6004356101595580f35b50503461060d578160031936011261060d5761012f5490516001600160a01b039091168152602090f35b8284611e33366004613c05565b949290611e3e614ee0565b611e466156ee565b835191611e5460a084613bb1565b8252602080830184815233868501526001600160a01b03928316606085019081529783166080850190815261014f54875163e97a4d6360e01b815286516004820152925160248401526040909501518416604483015297518316606482015296518216608488015295918691839160a491839116610696565b50503461060d5761040036600319011261060d57815460ff8160081c16159081809261240d575b80156123f6575b1561239b5760ff19811660011784558161238a575b5060ff835460081c16611f22816148f2565b610384356001600160a01b038116908190036106e1576101f680546001600160a01b03191690911790556001600160a01b0361034435908116908190036106e157610364356001600160a01b03811681036106e157600191611f83846148f2565b611f8c846148f2565b611f95846148f2565b611f9e846148f2565b6001600160601b0360a01b6097541617609755611fba836148f2565b60ca5490620100008360b01b039060101b169061ff018360b01b031916171760ca55611fe5816148f2565b670de0b6b3a764000060c43511156123795761200361010435615733565b61200f61012435615733565b61201b61014435615733565b61202761016435615733565b61203361018435615733565b61203f6101a435615733565b61204b6101c435615733565b6120576101e435615733565b61206361020435615733565b61207b6120766102443561022435614304565b615733565b6004356001600160a01b038116908190036123755761014f80546001600160a01b03191690911790556024356001600160a01b03811681036106e15761012f80546001600160a01b0319166001600160a01b0392831617905560443590811681036106e15761013080546001600160a01b0319166001600160a01b0392831617905560643590811681036106e15761013380546001600160a01b0319166001600160a01b0392831617905560843590811681036106e15761014680546001600160a01b0319166001600160a01b0392831617905560a43590811681036106e15761014780546001600160a01b0319166001600160a01b0392831617905560c4356101495560e43561014a556101043561013b556101243561013c556101443561013d556101643561013e556101843561013f556101a435610140556101c435610141556101e43561014255610204356101435561022435610139556102443561013a556102643561014c8190559061028435908116908190036106e15761015880546001600160a01b03191690911790556102a435610159556102c43561015a819055906001600160a01b036102e435908116908190036106e15761015280546001600160a01b03191690911790556001600160a01b0361030435908116908190036106e157610153906001600160601b0360a01b82541617905561032435610154554361015755430161014d55430161015b5561014b61ffff1981541690556103a4356122a8826148f2565b801561236457610190819055430161018f556103c4356001600160a01b03811681036106e1576122da6122fc926148f2565b6101c380546001600160a01b0319166001600160a01b03909216919091179055565b6103e4356001600160a01b038116908190036106e15761022980546001600160a01b031916909117905561232e575080f35b60207f7f26b83ff96e1f2b6a682f133852f6798a09c465da95921460cefb38474024989161ff001984541684555160018152a180f35b8351632a9ffab760e21b8152600490fd5b8480fd5b8251632a9ffab760e21b8152600490fd5b61ffff191661010117835538611f10565b825162461bcd60e51b815260206004820152602e60248201527f496e697469616c697a61626c653a20636f6e747261637420697320616c72656160448201526d191e481a5b9a5d1a585b1a5e995960921b6064820152608490fd5b50303b158015611efb5750600160ff821614611efb565b50600160ff821610611ef4565b50503461060d578160031936011261060d576101335490516001600160a01b039091168152602090f35b50503461060d578160031936011261060d5760209061014e549051908152f35b50503461060d578160031936011261060d5760209060ff60ca5460081c1690519015158152f35b50503461060d578160031936011261060d576124a56156ee565b61014d805443106126755761014c54430190557fd3c59bda47e141a8ec5a33d241b7f71b86e30d359f83a9227d912858b60404fc8280a161013754826124ea82614510565b91845b8181106125a657505080612561575b918051928184019084526020918285015282518091528160608501930191855b82811061254d57867fae5116a8119d08673a0f1dfa7546b95da4bd54bb17feda7c61130ac7859152f687870388a180f35b83518552938101939281019260010161251c565b612578670de0b6b3a7640000916101395490614436565b04610131612587828254614229565b9055610146546125a19082906001600160a01b03166140d3565b6124fc565b6125af8161464d565b6125b98183614a34565b8661015091866125c98585613a60565b90549060031b1c918383136125e6575b50505050506001016124ed565b9461262b83829699612631946126258561261861261e6126489a60019e670de0b6b3a764000093849161013a54614436565b04614436565b0492614311565b52614304565b97613a60565b819391549060031b91821b91600019901b19161790565b905561266b6126578287614311565b5188848060a01b0361014754169184614974565b90863886816125d9565b815163101b685960e01b8152600490fd5b82843461078b578160031936011261078b576001600160a01b0360043581811681036106e1576024359161014f54163303610a995790610a969161014e8281540390556140d3565b50503461060d578160031936011261060d57602090610157549051908152f35b833461078b57602036600319011261078b57612708615660565b6004356101435580f35b82843461078b578160031936011261078b576001600160a01b0360043581811681036106e1578161014f54163303610a995790610a9691602435916101335416615627565b833461078b57602036600319011261078b576004356001600160a01b03811681036106e157610a96906122da615660565b82843461078b578060031936011261078b57507f00000000000000000000000000000000000000000000000000000000000000006001600160a01b031630036127f457602090517f360894a13ba1a3210667c828492db98dca3e2076cc3735a920a3ca505d382bbc8152f35b5162461bcd60e51b815260206004820152603860248201527f555550535570677261646561626c653a206d757374206e6f742062652063616c60448201527f6c6564207468726f7567682064656c656761746563616c6c00000000000000006064820152608490fd5b833461078b578060031936011261078b57612876615660565b60ff1960ca541660ca5580f35b50508060031936011261060d57600435906001600160a01b039081831683036106e15783926024359267ffffffffffffffff84116123755736602385011215612375578360040135906128e16128d883613be9565b94519485613bb1565b818452366024838701011161296f57610a9695602083612962946024600199018389013786010152807f0000000000000000000000000000000000000000000000000000000000000000169061293982301415613c2b565b7f360894a13ba1a3210667c828492db98dca3e2076cc3735a920a3ca505d382bbc541614613c8c565b61296a615660565b613ced565b8580fd5b50503461060d578160031936011261060d5760209061013b549051908152f35b50503461060d578160031936011261060d576101475490516001600160a01b039091168152602090f35b50503461060d578160031936011261060d5760209061014c549051908152f35b50503461060d57602036600319011261060d5760043561013780548210156109ba5790612a0991613b95565b50805460019091015482519182526001600160a01b03166020820152f35b8391503461060d5736600319011261078b5750612a42614ffb565b5061014f546001600160a01b03908116330361117257610cb8610cae91612a6a3660046155b4565b93612a73614ffb565b50612a7c614ee0565b612a846156ee565b611134610c4e825163d9b6c2e560e01b6020820152610c336024820189614fab565b82843461078b578160031936011261078b57506004356001600160a01b03818116918290036106e15760243591818316918284036106e157612b3292612aea6156ee565b612af330614289565b90865193632ab7831f60e01b602086015260248501523360448501526064840152608483015260848252612b2860a483613bb1565b6101f65416614952565b916020838051810103126106e1576106b160208094015180936140d3565b50503461060d578160031936011261060d5760209061013e549051908152f35b50503461060d578160031936011261060d57602090610816612b9b612b93614d1f565b919091614325565b91614b1a565b50503461060d578160031936011261060d5760ca5460ff8160081c1615612c9c5760018060a01b03808260101c163314159081612c1c575b506119b25760ff8116156119a15761ff00191660ca55513381527f5db9ee0a495bf2e6ff9c91a7834c1ba4fdd244a5e8aa4e537bd38aeae4b073aa90602090a180f35b609754845163d994d6d560e01b8152336004820152925060209183916024918391165afa908115612c8f578491612c56575b501538612bd9565b90506020813d8211612c87575b81612c7060209383613bb1565b810103126109ba57612c819061412a565b38612c4e565b3d9150612c63565b50505051903d90823e3d90fd5b8151637c7fd07960e01b8152600490fd5b833461078b57602036600319011261078b576004356001600160a01b0381169081900361060d57612cdc615660565b61014f80546001600160a01b031916909117905580f35b833461078b57602036600319011261078b57612d0d615660565b6004356101905580f35b83833461060d57610100918260031936011261078b5750612d36614ffb565b5061014f546001600160a01b0392908316330361117257612d5982519182613bb1565b60043583811681036106e157815260243583811681036106e15760208201526044358282015260643560608201526080810191608435835260a4359084821682036106e15760a0830191825260c43585811681036106e15760c084015260e4359285841684036106e15785610cb895612e15610c4e6108bc610c438661135a9d610cae98019a8b52612de9614ffb565b50612df2614ee0565b612dfa6156ee565b88516370f090ed60e11b602082015292839160248301614f47565b9892809b8a96939d9299865161134f61014e918254614229565b50503461060d57602036600319011261060d576004359161013890815484101561078b5750602092611a9791613a60565b50503461060d57602036600319011261060d57600435906001600160a01b039081831683036106e157610a9692612ec28386947f0000000000000000000000000000000000000000000000000000000000000000169061293982301415613c2b565b612eca615660565b612edf612ed684613be9565b92519283613bb1565b828252601f19612eee84613be9565b01366020840137613ced565b8284612f07366004613aa2565b9694612f17989193949298614ee0565b612f1f6156ee565b612f2b86519283613bb1565b60018060a01b039788808093169586855260209b868d870152888a87015260608601523360808601521660a08401521660c082015287612f8860e48961014f5416938851948593849263e4e1b72960e01b84526004840190614fab565b34905af1958615612fee5795612fbb575b50612fb2906106b1949596610133541630903390614e9c565b30903390614e9c565b909394508681813d8311612fe7575b612fd48183613bb1565b810103126106e157519392612fb2612f99565b503d612fca565b8551903d90823e3d90fd5b50503461060d578160031936011261060d5761301361424c565b61301b6156ee565b61014b805460ff8116806130e6575b806130cc575b613038578380f35b61ff00191661010017905580519082907f8b77276c97a5709f0d6db52329848a254eb760ce8be80d281799f633bdb69e838280a1610133546001600160a01b0316803b156108e05783600481858094638456cb5960e01b83525af19081156130c157506130b1575b50506130aa614542565b3880808380f35b6130ba91613bb1565b38816130a0565b51913d9150823e3d90fd5b506130db611778610ae6614714565b61014a541015613030565b5060ff8160081c161561302a565b50503461060d578160031936011261060d5760209061013f549051908152f35b83838260031936011261060d576001600160a01b0392600435848116908190036109ba576024359085821680920361237557604435916084359360a4359780891680990361323b5760c43581811680910361323757906131db939291613178614ee0565b6131806156ee565b88519261318f61010085613bb1565b86845260209b8c9586860152888b86015260643560608601528960808601523360a086015260c085015283015261014f5416875180809581946334975a4160e01b835260048301614f47565b039134905af1958615612fee578096613203575b50506106b19291611c289130903390614e9c565b909195508682813d8311613230575b61321c8183613bb1565b8101031261078b5750519381611c286131ef565b503d613212565b8880fd5b8780fd5b828461324c366004613b23565b9161325996949196614ee0565b6132616156ee565b6132c560c486519361327460c086613bb1565b60018060a01b0380809216968787528160209c8d978b898b01528c8a01523360608a01521660808801521660a086015261014f54169387519485938492636426c5db60e11b84526004840190614f02565b34905af19485156114ae5780956132e7575b5050906106b19130903390614e9c565b909194508582813d8311613314575b6133008183613bb1565b8101031261078b575051926106b1866132d7565b503d6132f6565b50503461060d578160031936011261060d57602090610143549051908152f35b833461078b57602036600319011261078b576004356001600160a01b038116810361060d57613368615660565b60ca805462010000600160b01b03191660109290921b62010000600160b01b031691909117905580f35b833461078b57602036600319011261078b576133ac615660565b60043561014a5580f35b50503461060d578160031936011261060d57602090610140549051908152f35b833461078b57602036600319011261078b576004356001600160a01b0381169081900361060d57613405615660565b61014780546001600160a01b031916909117905580f35b50503461060d578160031936011261060d576102295490516001600160a01b039091168152602090f35b50503461060d57602036600319011261060d576004356001600160a01b038116908190036108e05782829160209452610144845220549051908152f35b50503461060d578160031936011261060d5760209060ff61014b5460081c1690519015158152f35b50503461060d5760a036600319011261060d576134c6614ffb565b5061014f546001600160a01b039290831633036111725790613557916134ed366004615022565b916134f6614ffb565b506134ff614ee0565b6135076156ee565b670de0b6b3a764000061352a610f3861352161155f614714565b87519291614ae6565b049481840190808251169161354c6080870193898486511661013c54926150c2565b96918a999199614304565b9660208101998a51808a116136805750881561366f57816020918660606135da969551930151169061013461358d848254614304565b905561359d610131918254614304565b90556101335489516340c10f1960e01b81526001600160a01b03909216600483015260248201929092529384918716908290859082906044820190565b03925af180156136635761360d575b50509661100c928261135a888895610cb89a9b9c865161134f61014e918254614229565b6020823d821161365b575b8161362560209383613bb1565b8101031261078b5750928261135a888895610cb89a9b9c9561364961100c9961412a565b50959c9b5095509850508194506135e9565b3d9150613618565b508551903d90823e3d90fd5b865163f3e39b5d60e01b8152600490fd5b6044908a895191630b63f1a760e01b835260048301526024820152fd5b833461078b57602036600319011261078b576136b7615660565b6004356101425580f35b833461078b57602036600319011261078b5760043580151580910361060d576136e8615660565b61014b9060ff8019835416911617905580f35b50503461060d578160031936011261060d5760209061081661371e610ae6614714565b90614ae6565b50503461060d578160031936011261060d5760209061014d549051908152f35b838360e46137d0613756366004613aa2565b946137669a94969297919a614ee0565b61376e6156ee565b61377a89519586613bb1565b60018060a01b0380809216968787528160209d8e978b898b01528d8a01528b60608a01523360808a01521660a08801521660c086015261014f541693885194859384926263744760e11b84526004840190614fab565b34905af1958615612fee5780966132035750506106b19291611c289130903390614e9c565b50503461060d578160031936011261060d5761014f5490516001600160a01b039091168152602090f35b833461078b57602036600319011261078b576004356001600160a01b0381169081900361060d5761384e615660565b61013080546001600160a01b031916909117905580f35b833461078b57602036600319011261078b5761387f615660565b60043561013f5580f35b50503461060d578160031936011261060d57602090610159549051908152f35b833461078b57602036600319011261078b576004356001600160a01b0381169081900361060d576138d8615660565b61014680546001600160a01b031916909117905580f35b50503461060d578160031936011261060d5760209061018f549051908152f35b50503461060d578160031936011261060d5760975490516001600160a01b039091168152602090f35b833461078b57602036600319011261078b57613952615660565b60043561015a5580f35b50503461060d578160031936011261060d576139766156ee565b61015b805443106139e45790610a969161015a54430190557f0e37fda283839477a1b77e29acf8336c0e13a5daa967913df0fe5ad258c0822f6020670de0b6b3a76400006139cb610131546101595490614436565b049251838152a1610158546001600160a01b03166140d3565b815163acce20e560e01b8152600490fd5b50503461060d57602036600319011261060d576004359161013590815484101561078b5750602092613a2691613a60565b905491519160018060a01b039160031b1c168152f35b833461078b57602036600319011261078b57613a56615660565b60043561013a5580f35b8054821015613a785760005260206000200190600090565b634e487b7160e01b600052603260045260246000fd5b35906001600160a01b03821682036106e157565b91908260c09103126106e157613ab782613a8e565b91602081013591604082013591606081013591613ae260a0613adb60808501613a8e565b9301613a8e565b90565b604090613b21939594929560c0820196825260208201520190606080918051845260208101516020850152604081015160408501520151910152565b565b908160a09103126106e157613b3781613a8e565b91602082013591604081013591613ae26080613adb60608501613a8e565b613b219360609296959360e08301978352602083015260408201520190606080918051845260208101516020850152604081015160408501520151910152565b8054821015613a785760005260206000209060011b0190600090565b90601f8019910116810190811067ffffffffffffffff821117613bd357604052565b634e487b7160e01b600052604160045260246000fd5b67ffffffffffffffff8111613bd357601f01601f191660200190565b91908260809103126106e157813591602081013591613ae26060613adb60408501613a8e565b15613c3257565b60405162461bcd60e51b815260206004820152602c60248201527f46756e6374696f6e206d7573742062652063616c6c6564207468726f7567682060448201526b19195b1959d85d1958d85b1b60a21b6064820152608490fd5b15613c9357565b60405162461bcd60e51b815260206004820152602c60248201527f46756e6374696f6e206d7573742062652063616c6c6564207468726f7567682060448201526b6163746976652070726f787960a01b6064820152608490fd5b9060ff7f4910fdfa16fed3260ed0e7147f7cc6da11a60208b5b9406d12a635614ffd91435416600014613d255750613b219150613ed9565b6040516352d1902d60e01b8152602093919291906001600160a01b038316908581600481855afa60009181613eaa575b50613db65760405162461bcd60e51b815260048101879052602e60248201527f45524331393637557067726164653a206e657720696d706c656d656e7461746960448201526d6f6e206973206e6f74205555505360901b6064820152608490fd5b9394937fc9f76b5ec45e5cdef99837d7b6d2467235c1df8933c8ca56df5c35afa2c7d44401613e5357613de883613ed9565b7fbc7cd75a20ee27fd9adebab32041f755214dbc6bffa90cc0225b39da2e5c2d3b600080a283511590811591613e4b575b50613e2357505050565b600080613e4894613e32613f7b565b9481519101845af4613e42613fcf565b91613fff565b50565b905038613e19565b60405162461bcd60e51b815260048101859052602960248201527f45524331393637557067726164653a20756e737570706f727465642070726f786044820152681a58589b195555525160ba1b6064820152608490fd5b90918782813d8311613ed2575b613ec18183613bb1565b8101031261078b5750519038613d55565b503d613eb7565b803b15613f20577f360894a13ba1a3210667c828492db98dca3e2076cc3735a920a3ca505d382bbc80546001600160a01b0319166001600160a01b03909216919091179055565b60405162461bcd60e51b815260206004820152602d60248201527f455243313936373a206e657720696d706c656d656e746174696f6e206973206e60448201526c1bdd08184818dbdb9d1c9858dd609a1b6064820152608490fd5b613f856027613be9565b90613f936040519283613bb1565b60278252660819985a5b195960ca1b6040837f416464726573733a206c6f772d6c6576656c2064656c65676174652063616c6c60208201520152565b3d15613ffa573d90613fe082613be9565b91613fee6040519384613bb1565b82523d6000602084013e565b606090565b919290156140615750815115614013575090565b3b1561401c5790565b60405162461bcd60e51b815260206004820152601d60248201527f416464726573733a2063616c6c20746f206e6f6e2d636f6e74726163740000006044820152606490fd5b8251909150156140745750805190602001fd5b6040519062461bcd60e51b82528160208060048301528251908160248401526000935b8285106140ba575050604492506000838284010152601f80199101168101030190fd5b8481018201518686016044015293810193859350614097565b90806140dd575050565b6102295460405163a9059cbb60e01b60208201526001600160a01b0393841660248201526044810192909252613b21921661412582606481015b03601f198101845283613bb1565b614137565b519081151582036106e157565b60209161419a916001600160a01b031660008061415386613be9565b936141616040519586613bb1565b8685527f5361666545524332303a206c6f772d6c6576656c2063616c6c206661696c656487860152868151910182855af1613e42613fcf565b805182811591821561420a575b50509050156141b35750565b6084906040519062461bcd60e51b82526004820152602a60248201527f5361666545524332303a204552433230206f7065726174696f6e20646964206e6044820152691bdd081cdd58d8d9595960b21b6064820152fd5b83809293500103126106e15781614221910161412a565b8082386141a7565b9190820391821161423657565b634e487b7160e01b600052601160045260246000fd5b61425530614289565b6101319061427261426883548093614229565b61014e5490614229565b8061427c57505050565b61428591614304565b9055565b610229546040516370a0823160e01b81526001600160a01b0392831660048201529160209183916024918391165afa9081156142f8576000916142ca575090565b906020823d82116142f0575b816142e360209383613bb1565b8101031261078b57505190565b3d91506142d6565b6040513d6000823e3d90fd5b9190820180921161423657565b8051821015613a785760209160051b010190565b906000916000906101378054906000925b82841061435c5750505050614358670de0b6b3a7640000916101395490614436565b0490565b90919293956143a96143986143a360019361439d61437a8a88614311565b51614385818c6143cf565b95906143918d8c613b95565b5054614304565b61570f565b90614304565b98614304565b9401929190614336565b9190916000838201938412911290801582169115161761423657565b91906000906143fd816000956143f36143ea82610150613a60565b93905492614482565b9160031b1c6143b3565b6000811361440c575b50509190565b61442e91945061261892508094670de0b6b3a764000093849161013a54614436565b043880614406565b8181029291811591840414171561423657565b8115614453570490565b634e487b7160e01b600052601260045260246000fd5b8181039291600013801582851316918412161761423657565b61448e81610137613b95565b505490670de0b6b3a76400009182810292818404149015171561423657613ae2926144ce6144c16144d493610151613a60565b90549060031b1c84614449565b92614449565b90614469565b80156144f057614398613ae29261013154614229565b505060001990565b67ffffffffffffffff8111613bd35760051b60200190565b9061451a826144f8565b6145276040519182613bb1565b8281528092614538601f19916144f8565b0190602036910137565b610131548015613e48576101379081549160009061455f84614510565b9082905b8582106145ce57505060005b84811061457d575050505050565b61459a846145958561458f8587614311565b51614436565b614449565b9061013891825468010000000000000000811015613bd35761263181600195866145c694018155613a60565b90550161456f565b909261460a6001916145df8661464d565b6145e98787614311565b5261439d6145f78786613b95565b50546146038888614311565b519061570f565b930190614563565b6001600160a01b0316600090815261013660205260409020600181015460ff161561463b575490565b60405163e6c4247b60e01b8152600490fd5b61465990610137613b95565b50600101546001600160a01b0316614670816146ae565b9190911561467c575090565b60249060405190637f6e4db960e01b82526004820152fd5b91908260409103126106e157613ae260208351930161412a565b604080516359e02dd760e01b81529291839060049082906001600160a01b03165afa9182156142f85760009081936146e557509190565b905061470991925060403d811161470d575b6147018183613bb1565b810190614694565b9091565b503d6146f7565b610137549061472282614510565b9160005b818110614731575050565b8061473d60019261464d565b6147478287614311565b5201614726565b9061476f670de0b6b3a7640000928361015754610154549243010302614449565b8281101561478c5782039180836101555402049261015654020590565b50600091508190565b909161479f6147f7565b9290808210156147ed5783916147b491614229565b9311156147e857818110156147e0576147cc91614229565b60011c808210156147db575090565b905090565b505050600090565b505090565b5050505050600090565b61015254604080516359e02dd760e01b80825293929091906001600160a01b039081168284600481845afa80156148e75760009485916148c4575b50156148ad575061015354169080519485528085600481855afa80156148a257600095869161487f575b50156148685750509190565b6024925051906305e8989360e11b82526004820152fd5b9050816148999296503d871161470d576147018183613bb1565b9490943861485c565b50513d6000823e3d90fd5b6024908351906305e8989360e11b82526004820152fd5b90506148de919450833d851161470d576147018183613bb1565b93909338614832565b83513d6000823e3d90fd5b156148f957565b60405162461bcd60e51b815260206004820152602b60248201527f496e697469616c697a61626c653a20636f6e7472616374206973206e6f74206960448201526a6e697469616c697a696e6760a81b6064820152608490fd5b90613ae291600080614962613f7b565b93602081519101845af4613e42613fcf565b6149e2936149a960009260209561498d82610137613b95565b50614999878254614304565b9055611606610131918254614304565b90546040516340c10f1960e01b81526001600160a01b039093166004840152602483019490945290948593928492909183906044820190565b039360039190911b1c6001600160a01b03165af180156142f857614a035750565b6020813d8211614a2c575b81614a1b60209383613bb1565b810103126106e157613e489061412a565b3d9150614a0e565b61263161428591614a458482614482565b614a7b614a5483610150613a60565b614a678294925492838360031b1c6143b3565b919060031b91821b91600019901b19161790565b9055610151613a60565b60e08101929160c09081906001600160a01b0380614aa283613a8e565b168552614ab160208301613a8e565b16602085015260408101356040850152606081013560608501526080810135608085015260a081013560a08501520135910152565b9061013454908115614b0b57613ae292614b066143989261013154614229565b614229565b505050670de0b6b3a764000090565b8282614b2592614b42565b9060008213156147e057613ae292614b3c91614ae6565b90614449565b9091614b519061013154614229565b90670de0b6b3a76400009182810292818404149015171561423657613ae2926144d491614436565b92614b879293949194614b42565b81810291600091600160ff1b9183821283821416614c2b578185051490151715614c1757670de0b6b3a763ffff198401938411614c1757670de0b6b3a764000093848102948186041490151715614c17578315614c03578214600019841416614bef57500590565b634e487b7160e01b81526011600452602490fd5b634e487b7160e01b82526012600452602482fd5b634e487b7160e01b82526011600452602482fd5b634e487b7160e01b84526011600452602484fd5b61014d5480431015614c5657613ae2904390614229565b50600090565b90604051614c6b604082613bb1565b602060018294805484520154910152565b614c8881610148613a60565b90549060031b1c9161018e91614c9e8184613b95565b50549261018f54431015614cc4575b5050808210156147e85761459590613ae293614436565b829350614cd8614ce39392614cde92613b95565b50614c5c565b614ceb565b903880614cad565b602081519101805192670de0b6b3a76400009384039084821161423657614d1861439d9261435895614436565b9251614436565b60008061013791825492614d3284614510565b9382915b818310614d5f575050508115614d535790614d5091614449565b91565b50506101495460011b91565b90919392614d6c8561464d565b9081614d788789614311565b52614d91614d8683886143cf565b506143918886613b95565b670de0b6b3a76400009081810291818304149015171561423657614dd3614dd99261439d85614dc5600197614dce9661570f565b9485918c614c7c565b614436565b95614304565b94019190614d36565b61018f8054431015614df15750565b6101375460005b818110614e0b5750506101905443019055565b80807f19156e9379c7bbbce8f646ce5ee30ba860b8f954717405f3d5859a6c1a21ae6060019361018e614e41614cd88383613b95565b90614e5f614e57614e518561464d565b84614ceb565b938492613b95565b50555160409182519182526020820152a201614df8565b613b219061014e614e88828254614304565b905561022954309033906001600160a01b03165b6040516323b872dd60e01b60208201526001600160a01b039283166024820152929091166044830152606480830193909352918152613b2191614125608483613bb1565b60ff61014b5460081c16614ef057565b604051631ca61d7760e01b8152600490fd5b60a09081600180821b03918281511685526020810151602086015260408101516040860152826060820151166060860152826080820151166080860152015116910152565b91909160e06101008201938160018060a01b03918281511685528260208201511660208601526040810151604086015260608101516060860152608081015160808601528260a08201511660a08601528260c08201511660c0860152015116910152565b60c0908160018060a01b03918281511685526020810151602086015260408101516040860152606081015160608601528260808201511660808601528260a08201511660a0860152015116910152565b6040519061500a608083613bb1565b60006060838281528260208201528260408201520152565b91908260a09103126106e15760405161503c60a082613bb1565b608061507a818395803585526020810135602086015261505e60408201613a8e565b604086015261506f60608201613a8e565b606086015201613a8e565b910152565b919061508a90614325565b91909261509783856144da565b90808211156150a4575050565b6044925060405191637912120160e01b835260048301526024820152fd5b9290939160009160009182966150d6614ffb565b966001600160a01b039185908316806152e2575b508261012f54168360405193636eb1769f60e11b8552168060048501523060248501526020948585604481865afa9485156152d75784956152a8575b5084615187575b505050505086015115615143575b505050929190565b9091925061515b670de0b6b3a7640000928392614436565b0480855290821561517f57615177920490816040860152614304565b38808061513b565b509050615177565b6151959061013054166146ae565b9290921561512d57909192939b50848b6151cf85670de0b6b3a76400006151c96151bf8d8d614436565b6101435490614436565b04614449565b81830181815295908b1561529e57506151fa916151ee6060928d614449565b91829101528551614304565b809d5b10928315615229575b505050615216575b80808061512d565b819299505280606088015296388061520e565b909192506024604051809481936370a0823160e01b835260048301525afa90811561529357908b918491615262575b5010388481615206565b809250858092503d831161528c575b61527b8183613bb1565b810103126108e0578a905138615258565b503d615271565b6040513d85823e3d90fd5b915050809d6151fd565b9094508581813d83116152d0575b6152c08183613bb1565b810103126109ba57519338615126565b503d6152b6565b6040513d86823e3d90fd5b9095506020836101c35416916024604051809481936364a731e960e01b835260048301525afa801561535a578690615327575b615320915084614436565b94386150ea565b506020813d8211615352575b8161534060209383613bb1565b8101031261296f576153209051615315565b3d9150615333565b6040513d88823e3d90fd5b92613b2194919293825115156000146153d5575060406153d0926153c8670de0b6b3a764000061539a61013b54845190614436565b046101316153a9828254614304565b90556153c260018060a01b036101465416918451614229565b906140d3565b0151906140d3565b6140d3565b9060606153d0936153f760018060a01b036101465416602083015190866153fb565b0151915b91908161540757505050565b61012f54613b2193906001600160a01b0316614e9c565b91908260c09103126106e15760405161543860c082613bb1565b60a061507a81839561544981613a8e565b8552602081013560208601526040810135604086015261546b60608201613a8e565b606086015261547c60808201613a8e565b608086015201613a8e565b9061549494939291614b79565b60008112614c565790565b806154a86147f7565b9190936154b5600061474e565b940193829161554d575b019384600080821261554757505b84039181851161550f5750508181116154f157505061015555610156554361015755565b60449250604051916306da41e560e11b835260048301526024820152fd5b908085921161553557604491604051916306da41e560e11b835260048301526024820152fd5b604051630fb4fd3560e11b8152600490fd5b036154cd565b905081600003906154bf565b80910360e081126106e1578151926020830151926080604082015193605f1901126106e15760c06040519161558f608084613bb1565b606081015183526080810151602084015260a081015160408401520151606082015290565b91908260e09103126106e1576040516155ce60e082613bb1565b60c061507a8183956155df81613a8e565b855260208101356020860152604081013560408601526060810135606086015261560b60808201613a8e565b608086015261561c60a08201613a8e565b60a086015201613a8e565b60405163a9059cbb60e01b60208201526001600160a01b0390921660248301526044820192909252613b21916141258260648101614117565b60975460405163d994d6d560e01b815233600482015290602090829060249082906001600160a01b03165afa9081156142f8576000916156b5575b50156156a357565b604051631dd1b1b560e21b8152600490fd5b906020823d82116156e6575b816156ce60209383613bb1565b8101031261078b57506156e09061412a565b3861569b565b3d91506156c1565b60ff60ca5460081c166156fd57565b60405163783bb6c960e11b8152600490fd5b90670de0b6b3a76400009182810292818404149015171561423657613ae291614449565b670de0b6b3a7640000111561574457565b604051632a9ffab760e21b8152600490fdfea264697066735822122000e7fd697166da7484ca6b0de8110f95070aa9cd25697c2016226857dbfc94c664736f6c63430008140033",
  "linkReferences": {},
  "deployedLinkReferences": {},
  "devdoc": {
    "events": {
      "AdminChanged(address,address)": {
        "details": "Emitted when the admin account has changed."
      },
      "BeaconUpgraded(address)": {
        "details": "Emitted when the beacon is changed."
      },
      "Initialized(uint8)": {
        "details": "Triggered when the contract has been initialized or reinitialized."
      },
      "Upgraded(address)": {
        "details": "Emitted when the implementation is upgraded."
      }
    },
    "kind": "dev",
    "methods": {
      "addPeggedToken((address,address,uint256,uint256,uint256,uint256,uint256))": {
        "details": "Note that the ema value, should consider `nextEmaCalculation`  This function is implemented in MocCoreExpansion but with this contract contexttpTokenAddress Pegged Token contract address to add      priceProviderAddress Pegged Token price provider contract address      tpCtarg Pegged Token target coverage [PREC]      tpMintFee additional fee pct applied on mint [PREC]      tpRedeemFee additional fee pct applied on redeem [PREC]      tpEma initial Pegged Token exponential moving average [PREC]      tpEmaSf Pegged Token smoothing factor [PREC]  Requirements: - the caller must have governance authorization. - tpTokenAddress must be a MocRC20, with mint, burn roles already settled  for this contract",
        "params": {
          "peggedTokenParams_": "params of Pegged Token to add"
        }
      },
      "calcCtargemaCA()": {
        "details": "qAC = nTP / pACtp      ctargemaCA = (ctargemaTP * qAC) / (qAC)",
        "returns": {
          "ctargemaCA": "[PREC]"
        }
      },
      "changeGovernor(address)": {
        "params": {
          "newGovernor_": "New governor address"
        }
      },
      "constructor": {
        "custom:oz-upgrades-unsafe-allow": "constructor"
      },
      "editPeggedToken((address,address,uint256,uint256,uint256,uint256,uint256))": {
        "details": "Note that the ema value, should consider `nextEmaCalculation`  This function is implemented in MocCoreExpansion but with this contract contexttpTokenAddress Pegged Token contract address to identify the token to edit      priceProviderAddress Pegged Token price provider contract address      tpCtarg Pegged Token target coverage [PREC]      tpMintFee additional fee pct applied on mint [PREC]      tpRedeemFee additional fee pct applied on redeem [PREC]      tpEma initial Pegged Token exponential moving average [PREC]      tpEmaSf Pegged Token smoothing factor [PREC]  Requirements: - the caller must have governance authorization. - the tpTokenAddress must exists",
        "params": {
          "peggedTokenParams_": "params of Pegged Token to add"
        }
      },
      "getCglb()": {
        "returns": {
          "cglob": "[PREC]"
        }
      },
      "getLckAC()": {
        "returns": {
          "lckAC": "[PREC]"
        }
      },
      "getLeverageTC()": {
        "returns": {
          "leverageTC": "[PREC]"
        }
      },
      "getPACtp(address)": {
        "params": {
          "tp_": "Pegged Token address"
        },
        "returns": {
          "_0": "price [PREC]"
        }
      },
      "getPTCac()": {
        "returns": {
          "pTCac": "[PREC]"
        }
      },
      "getTCAvailableToRedeem()": {
        "details": "because it is a view function we are not calculating the new ema,  since we are using the last ema calculation, this may differ a little from the real amount  of TC available to redeem. Consider it an approximation.",
        "returns": {
          "tcAvailableToRedeem": "[N]"
        }
      },
      "getTPAvailableToMint(address)": {
        "details": "because it is a view function we are not calculating the new ema,  since we are using the last ema calculation, this may differ a little from the real amount  of TP available to mint. Consider it an approximation.",
        "params": {
          "tp_": "Pegged Token address"
        },
        "returns": {
          "tpAvailableToMint": "[N]"
        }
      },
      "getTotalACavailable()": {
        "returns": {
          "totalACavailable": "[N]"
        }
      },
      "initialize((((address,address,address,address,address,address,uint256,uint256,uint256,uint256,uint256,uint256,uint256,uint256,uint256,uint256,uint256,uint256,uint256,uint256,address,uint256,uint256,address,address,uint256),address,address,address,uint256,address),address))": {
        "details": "governorAddress The address that will define when a change contract is authorized      pauserAddress The address that is authorized to pause this contract      acTokenAddress Collateral Asset Token contract address      tcTokenAddress Collateral Token contract address      mocFeeFlowAddress Moc Fee Flow contract address      mocAppreciationBeneficiaryAddress Moc appreciation beneficiary address      protThrld protected state threshold [PREC]      liqThrld liquidation coverage threshold [PREC]      feeRetainer pct retain on fees to be re-injected as Collateral, while paying fees with AC [PREC]      tcMintFee additional fee pct applied on mint Collateral Tokens operations [PREC]      tcRedeemFee additional fee pct applied on redeem Collateral Tokens operations [PREC]      successFee pct of the gain because Pegged Tokens devaluation that is transferred        in Collateral Asset to Moc Fee Flow during the settlement [PREC]      appreciationFactor pct of the gain because Pegged Tokens devaluation that is returned        in Pegged Tokens to appreciation beneficiary during the settlement [PREC]      bes number of blocks between settlements      tcInterestCollectorAddress TC interest collector address      tcInterestRate pct interest charged to TC holders on the total collateral in the protocol [PREC]      tcInterestPaymentBlockSpan amount of blocks to wait for next TC interest payment      maxAbsoluteOpProviderAddress max absolute operation provider address      maxOpDiffProviderAddress max operation difference provider address      decayBlockSpan number of blocks that have to elapse for the linear decay factor to be 0      emaCalculationBlockSpan amount of blocks to wait between Pegged ema calculation      mocVendors address for MocVendors contract      mocQueueAddress address for MocQueue contract",
        "params": {
          "initializeParams_": "contract initializer params"
        }
      },
      "isLiquidationReached()": {
        "returns": {
          "_0": "true if liquidation state is reached, false otherwise"
        }
      },
      "liqRedeemTP(address,address)": {
        "params": {
          "recipient_": "address who receives the AC",
          "tp_": "Pegged Token address"
        },
        "returns": {
          "qACRedeemed": "amount of AC sent to `recipient_`"
        }
      },
      "makeStoppable()": {
        "details": "Should be called through governance"
      },
      "makeUnstoppable()": {
        "details": "Should be called through governance"
      },
      "maxQACToMintTP()": {
        "returns": {
          "maxQAC": "minimum regarding maxAbsoluteOperation and maxOperationalDifference"
        }
      },
      "maxQACToRedeemTP()": {
        "returns": {
          "maxQAC": "minimum regarding maxAbsoluteOperation and maxOperationalDifference"
        }
      },
      "mintTC(uint256,uint256,address,address)": {
        "params": {
          "qACmax_": "maximum amount of Collateral Asset that can be spent",
          "qTC_": "amount of Collateral Token to mint",
          "recipient_": "address who receives the Collateral Token",
          "vendor_": "address who receives a markup, `0x0` if not using a vendor, `0x0` if not using a vendor"
        },
        "returns": {
          "operId": "Identifier to track the Operation lifecycle"
        }
      },
      "mintTCandTP(address,uint256,uint256,address,address)": {
        "params": {
          "qACmax_": "maximum amount of Collateral Asset that can be spent",
          "qTP_": "amount of Pegged Token to mint",
          "recipient_": "address who receives the Collateral Token and Pegged Token",
          "tp_": "Pegged Token address",
          "vendor_": "address who receives a markup, `0x0` if not using a vendor"
        },
        "returns": {
          "operId": "Identifier to track the Operation lifecycle"
        }
      },
      "mintTP(address,uint256,uint256,address,address)": {
        "params": {
          "qACmax_": "maximum amount of Collateral Asset that can be spent",
          "qTP_": "amount of Pegged Token to mint",
          "recipient_": "address who receives the Pegged Token",
          "tp_": "Pegged Token address to mint",
          "vendor_": "address who receives a markup, `0x0` if not using a vendor"
        },
        "returns": {
          "operId": "Identifier to track the Operation lifecycle"
        }
      },
      "pause()": {
        "details": "Should only be called by the pauser and when it is stoppable"
      },
      "proxiableUUID()": {
        "details": "Implementation of the ERC1822 {proxiableUUID} function. This returns the storage slot used by the implementation. It is used to validate the implementation's compatibility when performing an upgrade. IMPORTANT: A proxy pointing at a proxiable contract should not be considered proxiable itself, because this risks bricking a proxy that upgrades to it, by delegating to itself until out of gas. Thus it is critical that this function revert if invoked through a proxy. This is guaranteed by the `notDelegated` modifier."
      },
      "redeemTC(uint256,uint256,address,address)": {
        "params": {
          "qACmin_": "minimum amount of Collateral Asset that `recipient_` expects to receive",
          "qTC_": "amount of Collateral Token to redeem",
          "recipient_": "address who receives the Collateral Asset",
          "vendor_": "address who receives a markup, `0x0` if not using a vendor"
        },
        "returns": {
          "operId": "Identifier to track the Operation lifecycle"
        }
      },
      "redeemTCandTP(address,uint256,uint256,uint256,address,address)": {
        "params": {
          "qACmin_": "Minimum amount of Collateral Asset that `recipient_` expects to receive",
          "qTC_": "Maximum amount of Collateral Token to redeem",
          "qTP_": "Maximum amount of Pegged Token to redeem",
          "recipient_": "Address who receives the Collateral Asset",
          "tp_": "Pegged Token address",
          "vendor_": "address who receives a markup, `0x0` if not using a vendor"
        },
        "returns": {
          "operId": "Identifier to track the Operation lifecycle"
        }
      },
      "redeemTP(address,uint256,uint256,address,address)": {
        "params": {
          "qACmin_": "minimum amount of Collateral Asset that `recipient_` expects to receive",
          "qTP_": "amount of Pegged Token to redeem",
          "recipient_": "address who receives the Collateral Asset",
          "tp_": "Pegged Token address to redeem",
          "vendor_": "address who receives a markup, `0x0` if not using a vendor"
        },
        "returns": {
          "operId": "Identifier to track the Operation lifecycle"
        }
      },
      "refreshACBalance()": {
        "details": "Intended to be use as notification after an RC20 AC transfer to this contract"
      },
      "setAppreciationFactor(uint256)": {
        "details": "sets appreciation Factor value.",
        "params": {
          "appreciationFactor_": "pct of the gain because Pegged Tokens devaluation that is returned in Pegged Tokens to appreciation beneficiary during the settlement [PREC]"
        }
      },
      "setBes(uint256)": {
        "details": "bns is not automatically updated, you have to wait until next settlement to be made : bns = block.number + bes*",
        "params": {
          "bes_": "number of blocks between settlements"
        }
      },
      "setDecayBlockSpan(uint256)": {
        "details": "sets flux capacitor decay block span",
        "params": {
          "decayBlockSpan_": "flux capacitor decay block span"
        }
      },
      "setEmaCalculationBlockSpan(uint256)": {
        "details": "nextEmaCalculation is not automatically updated, you have to wait until next  EMA calculation to be made : nextEmaCalculation = block.number + emaCalculationBlockSpan*",
        "params": {
          "blockSpan_": "Defines how many blocks should pass between EMA calculations"
        }
      },
      "setFeeRetainer(uint256)": {
        "details": "sets the fee pct to be retainer on AC fees payments as AC re-injection.",
        "params": {
          "feeRetainer_": "pct retain on fees to be re-injected as Collateral, while paying fees with AC [PREC] 0% = 0; 1% = 10 ** 16; 100% = 10 ** 18"
        }
      },
      "setFeeTokenAddress(address)": {
        "details": "sets Fee Token contract address",
        "params": {
          "mocFeeTokenAddress_": "Fee Token new contract address"
        }
      },
      "setFeeTokenPct(uint256)": {
        "details": "sets the fee applied on the top of the operation`s fee when using Fee Token as fee payment method.",
        "params": {
          "feeTokenPct_": "pct applied on the top of the operation`s fee when using Fee Token  as fee payment method [PREC]  e.g. if tcMintFee = 1%, FeeTokenPct = 50% => qFeeToken = 0.5%  0% = 0; 1% = 10 ** 16; 100% = 10 ** 18"
        }
      },
      "setFeeTokenPriceProviderAddress(address)": {
        "details": "sets Fee Token price provider contract address",
        "params": {
          "mocFeeTokenPriceProviderAddress_": "Fee Token price provider new contract address"
        }
      },
      "setLiqEnabled(bool)": {
        "details": "enables and disables the liquidation mechanism.",
        "params": {
          "liqEnabled_": "is liquidation enabled"
        }
      },
      "setLiqThrld(uint256)": {
        "details": "sets the value of the liq threshold configuration param",
        "params": {
          "liqThrld_": "liquidation threshold"
        }
      },
      "setMaxAbsoluteOpProviderAddress(address)": {
        "details": "sets max absolute operation provider address",
        "params": {
          "maxAbsoluteOpProviderAddress_": "max absolute operation provider address"
        }
      },
      "setMaxOpDiffProviderAddress(address)": {
        "details": "sets max operation difference provider address",
        "params": {
          "maxOpDiffProviderAddress_": "max operation difference provider address"
        }
      },
      "setMintTCandTPFee(uint256)": {
        "details": "sets the fee charged when mint Collateral Token and Pegged Token in one operation.",
        "params": {
          "mintTCandTPFee_": "additional fee pct applied on mint Collateral Token and Pegged Token [PREC] 0% = 0; 1% = 10 ** 16; 100% = 10 ** 18"
        }
      },
      "setMocAppreciationBeneficiaryAddress(address)": {
        "details": "sets Moc Appreciation Beneficiary Address",
        "params": {
          "mocAppreciationBeneficiaryAddress_": "moc Appreciation Beneficiary new address"
        }
      },
      "setMocCoreExpansion(address)": {
        "details": "sets Moc Core Expansion contract address",
        "params": {
          "mocCoreExpansion_": "moc core expansion new contract address"
        }
      },
      "setMocFeeFlowAddress(address)": {
        "details": "sets Moc Fee Flow contract address",
        "params": {
          "mocFeeFlowAddress_": "moc Fee Flow new contract address"
        }
      },
      "setMocQueue(address)": {
        "details": "sets Moc Queue contract address",
        "params": {
          "mocQueueAddress_": "moc queue new contract address"
        }
      },
      "setMocVendors(address)": {
        "details": "sets Moc Vendors contract address",
        "params": {
          "mocVendors_": "moc Vendors new contract address"
        }
      },
      "setPauser(address)": {
        "details": "Should be called through governance",
        "params": {
          "newPauser_": "Address of the new pauser"
        }
      },
      "setProtThrld(uint256)": {
        "details": "sets the value of the protected threshold configuration param",
        "params": {
          "protThrld_": "coverage protected state threshold [PREC]"
        }
      },
      "setRedeemTCandTPFee(uint256)": {
        "details": "sets the fee charged when redeem Collateral Token and Pegged Token in one operation.",
        "params": {
          "redeemTCandTPFee_": "additional fee pct applied on redeem Collateral Token and Pegged Token [PREC] 0% = 0; 1% = 10 ** 16; 100% = 10 ** 18"
        }
      },
      "setSuccessFee(uint256)": {
        "details": "sets success Fee value.",
        "params": {
          "successFee_": "pct of the gain because Pegged Tokens devaluation that is transferred in Collateral Asset to Moc Fee Flow during the settlement [PREC]"
        }
      },
      "setSwapTCforTPFee(uint256)": {
        "details": "sets the fee charged when swap Collateral Token for a Pegged Token.",
        "params": {
          "swapTCforTPFee_": "additional fee pct applied on swap Collateral Token for a Pegged Token [PREC] 0% = 0; 1% = 10 ** 16; 100% = 10 ** 18"
        }
      },
      "setSwapTPforTCFee(uint256)": {
        "details": "sets the fee charged when swap a Pegged Token for Collateral Token.",
        "params": {
          "swapTPforTCFee_": "additional fee pct applied on swap a Pegged Token for Collateral Token [PREC] 0% = 0; 1% = 10 ** 16; 100% = 10 ** 18"
        }
      },
      "setSwapTPforTPFee(uint256)": {
        "details": "sets the fee charged when swap a Pegged Token for another Pegged Token.",
        "params": {
          "swapTPforTPFee_": "additional fee pct applied on swap a Pegged Token for another Pegged Token [PREC] 0% = 0; 1% = 10 ** 16; 100% = 10 ** 18"
        }
      },
      "setTCInterestCollectorAddress(address)": {
        "details": "sets TC interest collector address",
        "params": {
          "tcInterestCollectorAddress_": "TC interest collector address"
        }
      },
      "setTCInterestPaymentBlockSpan(uint256)": {
        "details": "sets TC interest payment block spannextTCInterestPayment is not automatically updated, you have to wait until next  interest payment to be made : nextTCInterestPayment = block.number + tcInterestPaymentBlockSpan",
        "params": {
          "tcInterestPaymentBlockSpan_": "amount of blocks to wait for next TC interest payment"
        }
      },
      "setTCInterestRate(uint256)": {
        "details": "sets TC interest rate",
        "params": {
          "tcInterestRate_": "pct interest charged to TC holders on the total collateral in the protocol [PREC]"
        }
      },
      "setTcMintFee(uint256)": {
        "details": "sets the fee charged on Token Collateral mint.",
        "params": {
          "tcMintFee_": "addition fee pct applied on Collateral Tokens mint [PREC] 0% = 0; 1% = 10 ** 16; 100% = 10 ** 18"
        }
      },
      "setTcRedeemFee(uint256)": {
        "details": "sets the fee charged on Token Collateral redeem.",
        "params": {
          "tcRedeemFee_": "addition fee pct applied on Collateral Tokens redeem [PREC] 0% = 0; 1% = 10 ** 16; 100% = 10 ** 18"
        }
      },
      "swapTCforTP(address,uint256,uint256,uint256,address,address)": {
        "params": {
          "qACmax_": "Maximum amount of Collateral Asset that can be spent in fees",
          "qTC_": "Amount of owned Collateral Token to swap",
          "qTPmin_": "Minimum amount of Pegged Token that `recipient_` expects to receive",
          "recipient_": "Address who receives the Pegged Token",
          "tp_": "Pegged Token address",
          "vendor_": "address who receives a markup, `0x0` if not using a vendor"
        },
        "returns": {
          "operId": "Identifier to track the Operation lifecycle"
        }
      },
      "swapTPforTC(address,uint256,uint256,uint256,address,address)": {
        "params": {
          "qACmax_": "maximum amount of Collateral Asset that can be spent in fees",
          "qTCmin_": "minimum amount of Collateral Token that `recipient_` expects to receive",
          "qTP_": "amount of owned Pegged Token to swap",
          "recipient_": "address who receives the Collateral Token",
          "tp_": "Pegged Token address",
          "vendor_": "address who receives a markup, `0x0` if not using a vendor"
        },
        "returns": {
          "operId": "Identifier to track the Operation lifecycle"
        }
      },
      "swapTPforTP(address,address,uint256,uint256,uint256,address,address)": {
        "params": {
          "qACmax_": "maximum amount of Collateral Asset that can be spent in fees",
          "qTP_": "amount of owned Pegged Token to swap",
          "qTPmin_": "minimum amount of target Pegged Token that `recipient_` expects to receive",
          "recipient_": "address who receives the target Pegged Token",
          "tpFrom_": "owned Pegged Token address",
          "tpTo_": "target Pegged Token address",
          "vendor_": "address who receives a markup, `0x0` if not using a vendor"
        },
        "returns": {
          "operId": "Identifier to track the Operation lifecycle"
        }
      },
      "tcHoldersInterestPayment()": {
        "details": "-   The amount is not differential, it's a snapshot of the moment it's executed  -   It does not check coverage"
      },
      "unlockACInPending(address,uint256)": {
        "details": "this function must be overridden by the AC implementation",
        "params": {
          "owner_": "funds owner, address to be returned to",
          "qACToUnlock_": "AC amount to be unlocked"
        }
      },
      "unlockTCInPending(address,uint256)": {
        "params": {
          "owner_": "funds owner, address to be returned to",
          "qTCToUnlock_": "TC amount to be unlocked"
        }
      },
      "unlockTPInPending(address,address,uint256)": {
        "params": {
          "owner_": "funds owner, address to be returned to",
          "qTPToUnlock_": "TP amount to be unlocked",
          "tpToken_": "TP to be unlocked"
        }
      },
      "unpause()": {
        "details": "Should only be called by the pauser and when it is stoppable"
      },
      "updateEmas()": {
        "details": "All price provider prices must be available, fails if not"
      },
      "upgradeTo(address)": {
        "custom:oz-upgrades-unsafe-allow-reachable": "delegatecall",
        "details": "Upgrade the implementation of the proxy to `newImplementation`. Calls {_authorizeUpgrade}. Emits an {Upgraded} event."
      },
      "upgradeToAndCall(address,bytes)": {
        "custom:oz-upgrades-unsafe-allow-reachable": "delegatecall",
        "details": "Upgrade the implementation of the proxy to `newImplementation`, and subsequently execute the function call encoded in `data`. Calls {_authorizeUpgrade}. Emits an {Upgraded} event."
      }
    },
    "stateVariables": {
      "__gap": {
        "details": "This empty reserved space is put in place to allow future versions to add new variables without shifting down storage in the inheritance chain. See https://docs.openzeppelin.com/contracts/4.x/upgradeable#storage_gaps"
      }
    },
    "title": "MocCARC20: Moc Collateral Asset RC20",
    "version": 1
  },
  "evm": {
    "bytecode": {
      "linkReferences": {},
      "opcodes": "PUSH1 0xA0 DUP1 PUSH1 0x40 MSTORE CALLVALUE PUSH3 0xE1 JUMPI ADDRESS PUSH1 0x80 MSTORE PUSH1 0x0 SLOAD SWAP1 PUSH1 0xFF DUP3 PUSH1 0x8 SHR AND PUSH3 0x8F JUMPI POP PUSH1 0xFF DUP1 DUP3 AND SUB PUSH3 0x53 JUMPI JUMPDEST PUSH1 0x40 MLOAD PUSH2 0x578C SWAP1 DUP2 PUSH3 0xE7 DUP3 CODECOPY PUSH1 0x80 MLOAD DUP2 DUP2 DUP2 PUSH2 0x279D ADD MSTORE DUP2 DUP2 PUSH2 0x290C ADD MSTORE PUSH2 0x2E95 ADD MSTORE RETURN JUMPDEST PUSH1 0xFF SWAP1 DUP2 NOT AND OR PUSH1 0x0 SSTORE PUSH32 0x7F26B83FF96E1F2B6A682F133852F6798A09C465DA95921460CEFB3847402498 PUSH1 0x20 PUSH1 0x40 MLOAD PUSH1 0xFF DUP2 MSTORE LOG1 CODESIZE PUSH3 0x2C JUMP JUMPDEST PUSH3 0x461BCD PUSH1 0xE5 SHL DUP2 MSTORE PUSH1 0x20 PUSH1 0x4 DUP3 ADD MSTORE PUSH1 0x27 PUSH1 0x24 DUP3 ADD MSTORE PUSH32 0x496E697469616C697A61626C653A20636F6E747261637420697320696E697469 PUSH1 0x44 DUP3 ADD MSTORE PUSH7 0x616C697A696E67 PUSH1 0xC8 SHL PUSH1 0x64 DUP3 ADD MSTORE PUSH1 0x84 SWAP1 REVERT JUMPDEST PUSH1 0x0 DUP1 REVERT INVALID PUSH1 0x40 PUSH1 0x80 DUP2 MSTORE PUSH1 0x4 CALLDATASIZE LT ISZERO PUSH2 0x13 JUMPI PUSH1 0x0 DUP1 REVERT JUMPDEST PUSH1 0x0 SWAP1 PUSH1 0xE0 DUP3 CALLDATALOAD DUP2 SHR SWAP1 DUP2 PUSH4 0x1DDE6EF EQ PUSH2 0x3A3C JUMPI DUP2 PUSH4 0x1F1B684 EQ PUSH2 0x39F5 JUMPI DUP2 PUSH4 0x579188F EQ PUSH2 0x395C JUMPI DUP2 PUSH4 0x73763B9 EQ PUSH2 0x3938 JUMPI DUP2 PUSH4 0xC340A24 EQ PUSH2 0x390F JUMPI DUP2 PUSH4 0xC36D897 EQ PUSH2 0x38EF JUMPI DUP2 PUSH4 0xD6AC463 EQ PUSH2 0x38A9 JUMPI DUP2 PUSH4 0xDB49656 EQ PUSH2 0x3889 JUMPI DUP2 PUSH4 0xE0A8FD2 EQ PUSH2 0x3865 JUMPI DUP2 PUSH4 0xF1E5E2B EQ PUSH2 0x381F JUMPI DUP2 PUSH4 0x13ED7BA5 EQ PUSH2 0x37F5 JUMPI DUP2 PUSH4 0x14B4906D EQ PUSH2 0x3744 JUMPI DUP2 PUSH4 0x1867E2F5 EQ PUSH2 0x3724 JUMPI DUP2 PUSH4 0x1FB0DDA0 EQ PUSH2 0x36FB JUMPI DUP2 PUSH4 0x1FE6A7AD EQ PUSH2 0x36C1 JUMPI DUP2 PUSH4 0x2069F753 EQ PUSH2 0x369D JUMPI DUP2 PUSH4 0x235E81CF EQ PUSH2 0x34AB JUMPI DUP2 PUSH4 0x23B98CDE EQ PUSH2 0x3483 JUMPI DUP2 PUSH4 0x24FFABA3 EQ PUSH2 0x3446 JUMPI DUP2 PUSH4 0x25BC6C41 EQ PUSH2 0x341C JUMPI DUP2 PUSH4 0x27EAB2A1 EQ PUSH2 0x33D6 JUMPI DUP2 PUSH4 0x2A20D57D EQ PUSH2 0x33B6 JUMPI DUP2 PUSH4 0x2C43BD3B EQ PUSH2 0x3392 JUMPI DUP2 PUSH4 0x2D88AF4A EQ PUSH2 0x333B JUMPI DUP2 PUSH4 0x2DED50F0 EQ PUSH2 0x331B JUMPI DUP2 PUSH4 0x2ECCB11C EQ PUSH2 0x323F JUMPI DUP2 PUSH4 0x2ED35CA1 EQ PUSH2 0x3114 JUMPI DUP2 PUSH4 0x333431FD EQ PUSH2 0x30F4 JUMPI DUP2 PUSH4 0x33421C38 EQ PUSH2 0x2FF9 JUMPI DUP2 PUSH4 0x34D70FFA EQ PUSH2 0x2EFA JUMPI DUP2 PUSH4 0x3659CFE6 EQ PUSH2 0x2E60 JUMPI DUP2 PUSH4 0x3915EDCB EQ PUSH2 0x2E2F JUMPI DUP2 PUSH4 0x391BF6CF EQ PUSH2 0x2D17 JUMPI DUP2 PUSH4 0x3BC4AC0A EQ PUSH2 0x2CF3 JUMPI DUP2 PUSH4 0x3CFB09EF EQ PUSH2 0x2CAD JUMPI DUP2 PUSH4 0x3F4BA83A EQ PUSH2 0x2BA1 JUMPI DUP2 PUSH4 0x4017936A EQ PUSH2 0x2B70 JUMPI DUP2 PUSH4 0x407F0E34 EQ PUSH2 0x2B50 JUMPI DUP2 PUSH4 0x47DDA6AF EQ PUSH2 0x2AA6 JUMPI DUP2 PUSH4 0x4AF3A6FC EQ PUSH2 0x2A27 JUMPI DUP2 PUSH4 0x4B746001 EQ PUSH2 0x29DD JUMPI DUP2 PUSH4 0x4D977E78 EQ PUSH2 0x29BD JUMPI DUP2 PUSH4 0x4E1F907A EQ PUSH2 0x2993 JUMPI DUP2 PUSH4 0x4F0F27EE EQ PUSH2 0x2973 JUMPI DUP2 PUSH4 0x4F1EF286 EQ PUSH2 0x2883 JUMPI DUP2 PUSH4 0x5210570C EQ PUSH2 0x285D JUMPI DUP2 PUSH4 0x52D1902D EQ PUSH2 0x2788 JUMPI DUP2 PUSH4 0x533A4BEA EQ PUSH2 0x2757 JUMPI DUP2 PUSH4 0x53B16D17 EQ PUSH2 0x2712 JUMPI DUP2 PUSH4 0x543AEB48 EQ PUSH2 0x26EE JUMPI DUP2 PUSH4 0x5860EE63 EQ PUSH2 0x26CE JUMPI DUP2 PUSH4 0x58F32DE9 EQ PUSH2 0x2686 JUMPI DUP2 PUSH4 0x5C616A73 EQ PUSH2 0x248B JUMPI DUP2 PUSH4 0x5C975ABB EQ PUSH2 0x2464 JUMPI DUP2 PUSH4 0x5CFBE578 EQ PUSH2 0x2444 JUMPI DUP2 PUSH4 0x60009E0B EQ PUSH2 0x241A JUMPI DUP2 PUSH4 0x60A01DFA EQ PUSH2 0x1ECD JUMPI DUP2 PUSH4 0x60EF07BF EQ PUSH2 0x1E26 JUMPI DUP2 PUSH4 0x647846A5 EQ PUSH2 0x1DFC JUMPI DUP2 PUSH4 0x64EC230A EQ PUSH2 0x1DD8 JUMPI DUP2 PUSH4 0x662013F4 EQ PUSH2 0x1DBB JUMPI DUP2 PUSH4 0x68274357 EQ PUSH2 0x1D92 JUMPI DUP2 PUSH4 0x6B5488DF EQ PUSH2 0x1D72 JUMPI DUP2 PUSH4 0x6F30471F EQ PUSH2 0x1D52 JUMPI DUP2 PUSH4 0x70713468 EQ PUSH2 0x1D2E JUMPI DUP2 PUSH4 0x735D3960 EQ PUSH2 0x1CE8 JUMPI DUP2 PUSH4 0x73E28AF9 EQ PUSH2 0x1CC4 JUMPI DUP2 PUSH4 0x7554FFFD EQ PUSH2 0x1CA4 JUMPI DUP2 PUSH4 0x76228055 EQ PUSH2 0x1C84 JUMPI DUP2 PUSH4 0x7750BA0C EQ PUSH2 0x1C60 JUMPI DUP2 PUSH4 0x797709CA EQ PUSH2 0x1B71 JUMPI DUP2 PUSH4 0x79F9A91C EQ PUSH2 0x1B51 JUMPI DUP2 PUSH4 0x7A193C31 EQ PUSH2 0x1B31 JUMPI DUP2 PUSH4 0x7A4FF1D9 EQ PUSH2 0x1B0D JUMPI DUP2 PUSH4 0x7A727FE8 EQ PUSH2 0x1AED JUMPI DUP2 PUSH4 0x7AF5758C EQ PUSH2 0x1AC9 JUMPI DUP2 PUSH4 0x7CBA2383 EQ PUSH2 0x1AA5 JUMPI DUP2 PUSH4 0x7D8E0314 EQ PUSH2 0x1A66 JUMPI DUP2 PUSH4 0x7F01C715 EQ PUSH2 0x1A3C JUMPI DUP2 PUSH4 0x7F13B998 EQ PUSH2 0x1A06 JUMPI DUP2 PUSH4 0x7F4A4FE0 EQ PUSH2 0x19E6 JUMPI DUP2 PUSH4 0x826FCD58 EQ PUSH2 0x19C3 JUMPI DUP2 PUSH4 0x8456CB59 EQ PUSH2 0x192E JUMPI DUP2 PUSH4 0x85BF9593 EQ PUSH2 0x18E8 JUMPI DUP2 PUSH4 0x883D21CB EQ PUSH2 0x1827 JUMPI DUP2 PUSH4 0x8CFA4241 EQ PUSH2 0x1807 JUMPI DUP2 PUSH4 0x8E2BDB86 EQ PUSH2 0x17DD JUMPI DUP2 PUSH4 0x8F1A383A EQ PUSH2 0x17B5 JUMPI DUP2 PUSH4 0x9853C35A EQ PUSH2 0x178B JUMPI DUP2 PUSH4 0x9AD6659D EQ PUSH2 0x1755 JUMPI DUP2 PUSH4 0x9CABFC00 EQ PUSH2 0x1709 JUMPI DUP2 PUSH4 0x9FD0506D EQ PUSH2 0x16DC JUMPI DUP2 PUSH4 0xA8E9AC30 EQ PUSH2 0x16B9 JUMPI DUP2 PUSH4 0xAD4E666D EQ PUSH2 0x14D9 JUMPI DUP2 PUSH4 0xAEA038DC EQ PUSH2 0x14B9 JUMPI DUP2 PUSH4 0xB03E11A0 EQ PUSH2 0x13AF JUMPI DUP2 PUSH4 0xB4434C32 EQ PUSH2 0x11F1 JUMPI DUP2 PUSH4 0xB5E9EA8C EQ PUSH2 0x11C7 JUMPI DUP2 PUSH4 0xB9FA6413 EQ PUSH2 0x11A7 JUMPI DUP2 PUSH4 0xBB4872DE EQ PUSH2 0x1183 JUMPI DUP2 PUSH4 0xBC4E55B2 EQ PUSH2 0x10B5 JUMPI DUP2 PUSH4 0xBECACA6B EQ PUSH2 0x1091 JUMPI DUP2 PUSH4 0xBFE42621 EQ PUSH2 0xE96 JUMPI DUP2 PUSH4 0xC00F538D EQ PUSH2 0xE72 JUMPI DUP2 PUSH4 0xC039CC69 EQ PUSH2 0xE30 JUMPI DUP2 PUSH4 0xC84353C9 EQ PUSH2 0xE0C JUMPI DUP2 PUSH4 0xCF351C1D EQ PUSH2 0xDC6 JUMPI DUP2 PUSH4 0xD1A0FAA0 EQ PUSH2 0xDAD JUMPI DUP2 PUSH4 0xD2DC25A5 EQ PUSH2 0xD28 JUMPI DUP2 PUSH4 0xD6AF11DA EQ PUSH2 0xCEC JUMPI DUP2 PUSH4 0xD87AAB6F EQ PUSH2 0xCCC JUMPI DUP2 PUSH4 0xD8C69AEC EQ PUSH2 0xBB6 JUMPI DUP2 PUSH4 0xD8DB6F5A EQ PUSH2 0xB70 JUMPI DUP2 PUSH4 0xDB796072 EQ PUSH2 0xB33 JUMPI DUP2 PUSH4 0xDDB6D190 EQ PUSH2 0xAF6 JUMPI DUP2 PUSH4 0xDE8D520A EQ PUSH2 0xAC3 JUMPI DUP2 PUSH4 0xE23C135C EQ PUSH2 0xAAA JUMPI DUP2 PUSH4 0xE2C5E990 EQ PUSH2 0xA49 JUMPI DUP2 PUSH4 0xE4C0AAF4 EQ PUSH2 0xA04 JUMPI DUP2 PUSH4 0xE6A683E0 EQ PUSH2 0x9BE JUMPI DUP2 PUSH4 0xE6B1627C EQ PUSH2 0x97A JUMPI DUP2 PUSH4 0xE7C25978 EQ PUSH2 0x955 JUMPI DUP2 PUSH4 0xE8859A15 EQ PUSH2 0x938 JUMPI DUP2 PUSH4 0xEE1F438F EQ PUSH2 0x90E JUMPI DUP2 PUSH4 0xF13F4054 EQ PUSH2 0x8E4 JUMPI DUP2 PUSH4 0xF26114AA EQ PUSH2 0x87F JUMPI POP DUP1 PUSH4 0xF2808778 EQ PUSH2 0x85B JUMPI DUP1 PUSH4 0xF30B5614 EQ PUSH2 0x83C JUMPI DUP1 PUSH4 0xF375CFBA EQ PUSH2 0x81D JUMPI DUP1 PUSH4 0xF88B1434 EQ PUSH2 0x7AD JUMPI DUP1 PUSH4 0xFA6E83BD EQ PUSH2 0x78E JUMPI DUP1 PUSH4 0xFADDA424 EQ PUSH2 0x717 JUMPI DUP1 PUSH4 0xFDA70F8B EQ PUSH2 0x6F8 JUMPI DUP1 PUSH4 0xFDCDC11E EQ PUSH2 0x611 JUMPI PUSH4 0xFE6B92C1 EQ PUSH2 0x5EF JUMPI PUSH1 0x0 DUP1 REVERT JUMPDEST CALLVALUE PUSH2 0x60D JUMPI DUP2 PUSH1 0x3 NOT CALLDATASIZE ADD SLT PUSH2 0x60D JUMPI PUSH1 0x20 SWAP1 PUSH2 0x135 SLOAD SWAP1 MLOAD SWAP1 DUP2 MSTORE RETURN JUMPDEST POP DUP1 REVERT JUMPDEST PUSH2 0x696 DUP4 DUP4 PUSH1 0xC4 PUSH2 0x623 CALLDATASIZE PUSH1 0x4 PUSH2 0x3B23 JUMP JUMPDEST PUSH2 0x630 SWAP9 SWAP3 SWAP6 SWAP2 SWAP9 PUSH2 0x4EE0 JUMP JUMPDEST PUSH2 0x638 PUSH2 0x56EE JUMP JUMPDEST DUP7 MLOAD SWAP5 PUSH2 0x646 PUSH1 0xC0 DUP8 PUSH2 0x3BB1 JUMP JUMPDEST PUSH1 0x1 DUP1 PUSH1 0xA0 SHL SUB SWAP2 DUP3 DUP1 SWAP3 AND DUP8 MSTORE DUP2 PUSH1 0x20 SWAP12 DUP13 SWAP8 DUP9 DUP11 ADD MSTORE DUP10 DUP12 DUP11 ADD MSTORE CALLER PUSH1 0x60 DUP11 ADD MSTORE AND PUSH1 0x80 DUP9 ADD MSTORE AND PUSH1 0xA0 DUP7 ADD MSTORE PUSH2 0x14F SLOAD AND SWAP4 DUP7 MLOAD SWAP5 DUP6 SWAP4 DUP5 SWAP3 PUSH4 0x23EC24B5 PUSH1 0xE1 SHL DUP5 MSTORE PUSH1 0x4 DUP5 ADD SWAP1 PUSH2 0x4F02 JUMP JUMPDEST CALLVALUE SWAP1 GAS CALL SWAP4 DUP5 ISZERO PUSH2 0x6ED JUMPI SWAP4 PUSH2 0x6B7 JUMPI JUMPDEST POP PUSH2 0x6B1 SWAP1 PUSH2 0x4E76 JUMP JUMPDEST MLOAD SWAP1 DUP2 MSTORE RETURN JUMPDEST SWAP1 SWAP3 POP DUP4 DUP2 DUP2 RETURNDATASIZE DUP4 GT PUSH2 0x6E6 JUMPI JUMPDEST PUSH2 0x6CF DUP2 DUP4 PUSH2 0x3BB1 JUMP JUMPDEST DUP2 ADD SUB SLT PUSH2 0x6E1 JUMPI MLOAD SWAP2 PUSH2 0x6B1 PUSH2 0x6A7 JUMP JUMPDEST PUSH1 0x0 DUP1 REVERT JUMPDEST POP RETURNDATASIZE PUSH2 0x6C5 JUMP JUMPDEST DUP4 MLOAD SWAP1 RETURNDATASIZE SWAP1 DUP3 RETURNDATACOPY RETURNDATASIZE SWAP1 REVERT JUMPDEST POP CALLVALUE PUSH2 0x60D JUMPI DUP2 PUSH1 0x3 NOT CALLDATASIZE ADD SLT PUSH2 0x60D JUMPI PUSH1 0x20 SWAP1 PUSH2 0x13C SLOAD SWAP1 MLOAD SWAP1 DUP2 MSTORE RETURN JUMPDEST POP SWAP1 CALLVALUE PUSH2 0x78B JUMPI PUSH1 0x20 CALLDATASIZE PUSH1 0x3 NOT ADD SLT PUSH2 0x78B JUMPI POP PUSH1 0x1 PUSH1 0x1 PUSH1 0xA0 SHL SUB PUSH1 0x4 CALLDATALOAD DUP2 DUP2 AND DUP2 SUB PUSH2 0x6E1 JUMPI PUSH2 0x755 PUSH2 0x74D PUSH1 0x1 SWAP3 PUSH2 0x4612 JUMP JUMPDEST PUSH2 0x137 PUSH2 0x3B95 JUMP JUMPDEST POP ADD SLOAD AND PUSH2 0x762 DUP2 PUSH2 0x46AE JUMP JUMPDEST SWAP2 SWAP1 SWAP2 ISZERO PUSH2 0x774 JUMPI POP PUSH1 0x20 SWAP2 MLOAD SWAP1 DUP2 MSTORE RETURN JUMPDEST PUSH1 0x24 SWAP1 DUP4 MLOAD SWAP1 PUSH4 0x7F6E4DB9 PUSH1 0xE0 SHL DUP3 MSTORE PUSH1 0x4 DUP3 ADD MSTORE REVERT JUMPDEST DUP1 REVERT JUMPDEST POP CALLVALUE PUSH2 0x60D JUMPI DUP2 PUSH1 0x3 NOT CALLDATASIZE ADD SLT PUSH2 0x60D JUMPI PUSH1 0x20 SWAP1 PUSH2 0x13A SLOAD SWAP1 MLOAD SWAP1 DUP2 MSTORE RETURN JUMPDEST POP SWAP1 CALLVALUE PUSH2 0x78B JUMPI PUSH1 0x20 CALLDATASIZE PUSH1 0x3 NOT ADD SLT PUSH2 0x78B JUMPI POP PUSH1 0x4 CALLDATALOAD SWAP1 PUSH1 0x1 PUSH1 0x1 PUSH1 0xA0 SHL SUB DUP3 AND DUP3 SUB PUSH2 0x6E1 JUMPI PUSH2 0x816 PUSH2 0x808 PUSH1 0x20 SWAP4 PUSH2 0x7F1 PUSH2 0x7E9 PUSH2 0x4D1F JUMP JUMPDEST SWAP2 SWAP1 SWAP3 PUSH2 0x4612 JUMP JUMPDEST SWAP2 PUSH2 0x810 PUSH2 0x7FF DUP5 DUP5 PUSH2 0x4311 JUMP JUMPDEST MLOAD SWAP5 DUP6 SWAP4 PUSH2 0x4325 JUMP JUMPDEST SWAP6 SWAP1 SWAP5 PUSH2 0x4C7C JUMP JUMPDEST SWAP1 PUSH2 0x4B79 JUMP JUMPDEST SWAP1 MLOAD SWAP1 DUP2 MSTORE RETURN JUMPDEST POP CALLVALUE PUSH2 0x60D JUMPI DUP2 PUSH1 0x3 NOT CALLDATASIZE ADD SLT PUSH2 0x60D JUMPI PUSH1 0x20 SWAP1 PUSH2 0x141 SLOAD SWAP1 MLOAD SWAP1 DUP2 MSTORE RETURN JUMPDEST POP CALLVALUE PUSH2 0x60D JUMPI DUP2 PUSH1 0x3 NOT CALLDATASIZE ADD SLT PUSH2 0x60D JUMPI PUSH1 0x20 SWAP1 PUSH2 0x131 SLOAD SWAP1 MLOAD SWAP1 DUP2 MSTORE RETURN JUMPDEST DUP3 CALLVALUE PUSH2 0x78B JUMPI PUSH1 0x20 CALLDATASIZE PUSH1 0x3 NOT ADD SLT PUSH2 0x78B JUMPI PUSH2 0x875 PUSH2 0x5660 JUMP JUMPDEST PUSH1 0x4 CALLDATALOAD PUSH2 0x13C SSTORE DUP1 RETURN JUMPDEST SWAP1 POP CALLVALUE PUSH2 0x8E0 JUMPI CALLDATASIZE PUSH1 0x3 NOT ADD SLT PUSH2 0x60D JUMPI PUSH2 0x8DC SWAP1 PUSH2 0x89C PUSH2 0x5660 JUMP JUMPDEST MLOAD PUSH4 0x79308A55 PUSH1 0xE1 SHL PUSH1 0x20 DUP3 ADD MSTORE PUSH2 0x8CA DUP2 PUSH2 0x8BC PUSH1 0x4 PUSH1 0x24 DUP4 ADD PUSH2 0x4A85 JUMP JUMPDEST SUB PUSH1 0x1F NOT DUP2 ADD DUP4 MSTORE DUP3 PUSH2 0x3BB1 JUMP JUMPDEST PUSH2 0x1F6 SLOAD PUSH1 0x1 PUSH1 0x1 PUSH1 0xA0 SHL SUB AND PUSH2 0x4952 JUMP JUMPDEST POP DUP1 RETURN JUMPDEST DUP3 DUP1 REVERT JUMPDEST POP POP CALLVALUE PUSH2 0x60D JUMPI DUP2 PUSH1 0x3 NOT CALLDATASIZE ADD SLT PUSH2 0x60D JUMPI PUSH2 0x130 SLOAD SWAP1 MLOAD PUSH1 0x1 PUSH1 0x1 PUSH1 0xA0 SHL SUB SWAP1 SWAP2 AND DUP2 MSTORE PUSH1 0x20 SWAP1 RETURN JUMPDEST POP POP CALLVALUE PUSH2 0x60D JUMPI DUP2 PUSH1 0x3 NOT CALLDATASIZE ADD SLT PUSH2 0x60D JUMPI PUSH2 0x152 SLOAD SWAP1 MLOAD PUSH1 0x1 PUSH1 0x1 PUSH1 0xA0 SHL SUB SWAP1 SWAP2 AND DUP2 MSTORE PUSH1 0x20 SWAP1 RETURN JUMPDEST POP POP CALLVALUE PUSH2 0x60D JUMPI DUP2 PUSH1 0x3 NOT CALLDATASIZE ADD SLT PUSH2 0x60D JUMPI PUSH1 0x20 SWAP1 PUSH2 0x816 PUSH2 0x4C3F JUMP JUMPDEST POP POP CALLVALUE PUSH2 0x60D JUMPI DUP2 PUSH1 0x3 NOT CALLDATASIZE ADD SLT PUSH2 0x60D JUMPI PUSH1 0x20 SWAP1 PUSH1 0xFF PUSH2 0x14B SLOAD AND SWAP1 MLOAD SWAP1 ISZERO ISZERO DUP2 MSTORE RETURN JUMPDEST POP POP CALLVALUE PUSH2 0x60D JUMPI PUSH1 0x20 CALLDATASIZE PUSH1 0x3 NOT ADD SLT PUSH2 0x60D JUMPI PUSH1 0x4 CALLDATALOAD PUSH2 0x18E DUP1 SLOAD DUP3 LT ISZERO PUSH2 0x9BA JUMPI SWAP1 PUSH2 0x9A6 SWAP2 PUSH2 0x3B95 JUMP JUMPDEST POP PUSH1 0x1 DUP2 SLOAD SWAP2 ADD SLOAD DUP3 MLOAD SWAP2 DUP3 MSTORE PUSH1 0x20 DUP3 ADD MSTORE RETURN JUMPDEST DUP4 DUP1 REVERT JUMPDEST DUP4 CALLVALUE PUSH2 0x78B JUMPI PUSH1 0x20 CALLDATASIZE PUSH1 0x3 NOT ADD SLT PUSH2 0x78B JUMPI PUSH1 0x4 CALLDATALOAD PUSH1 0x1 PUSH1 0x1 PUSH1 0xA0 SHL SUB DUP2 AND SWAP1 DUP2 SWAP1 SUB PUSH2 0x6E1 JUMPI PUSH2 0x9ED PUSH2 0x5660 JUMP JUMPDEST PUSH2 0x1F6 DUP1 SLOAD PUSH1 0x1 PUSH1 0x1 PUSH1 0xA0 SHL SUB NOT AND SWAP1 SWAP2 OR SWAP1 SSTORE DUP1 RETURN JUMPDEST DUP4 CALLVALUE PUSH2 0x78B JUMPI PUSH1 0x20 CALLDATASIZE PUSH1 0x3 NOT ADD SLT PUSH2 0x78B JUMPI PUSH1 0x4 CALLDATALOAD PUSH1 0x1 PUSH1 0x1 PUSH1 0xA0 SHL SUB DUP2 AND SWAP1 DUP2 SWAP1 SUB PUSH2 0x60D JUMPI PUSH2 0xA33 PUSH2 0x5660 JUMP JUMPDEST PUSH1 0x1 PUSH1 0x1 PUSH1 0x60 SHL SUB PUSH1 0xA0 SHL PUSH1 0x97 SLOAD AND OR PUSH1 0x97 SSTORE DUP1 RETURN JUMPDEST DUP3 DUP5 CALLVALUE PUSH2 0x78B JUMPI PUSH1 0x60 CALLDATASIZE PUSH1 0x3 NOT ADD SLT PUSH2 0x78B JUMPI PUSH1 0x1 PUSH1 0x1 PUSH1 0xA0 SHL SUB PUSH1 0x4 CALLDATALOAD DUP2 DUP2 AND DUP2 SUB PUSH2 0x6E1 JUMPI PUSH1 0x24 CALLDATALOAD SWAP2 DUP1 DUP4 AND DUP4 SUB PUSH2 0x9BA JUMPI PUSH2 0x14F SLOAD AND CALLER SUB PUSH2 0xA99 JUMPI SWAP1 PUSH2 0xA96 SWAP2 PUSH1 0x44 CALLDATALOAD SWAP2 PUSH2 0x5627 JUMP JUMPDEST DUP1 RETURN JUMPDEST DUP4 MLOAD PUSH4 0x19748477 PUSH1 0xE0 SHL DUP2 MSTORE PUSH1 0x4 SWAP1 REVERT JUMPDEST DUP4 CALLVALUE PUSH2 0x78B JUMPI DUP1 PUSH1 0x3 NOT CALLDATASIZE ADD SLT PUSH2 0x78B JUMPI PUSH2 0xA96 PUSH2 0x424C JUMP JUMPDEST POP POP CALLVALUE PUSH2 0x60D JUMPI DUP2 PUSH1 0x3 NOT CALLDATASIZE ADD SLT PUSH2 0x60D JUMPI PUSH1 0x20 SWAP1 PUSH2 0x816 PUSH2 0xAEB PUSH2 0xAE6 PUSH2 0x4714 JUMP JUMPDEST PUSH2 0x4325 JUMP JUMPDEST SWAP1 POP PUSH2 0x131 SLOAD PUSH2 0x4229 JUMP JUMPDEST POP POP CALLVALUE PUSH2 0x60D JUMPI PUSH1 0x20 CALLDATASIZE PUSH1 0x3 NOT ADD SLT PUSH2 0x60D JUMPI PUSH1 0x4 CALLDATALOAD PUSH1 0x1 PUSH1 0x1 PUSH1 0xA0 SHL SUB DUP2 AND SWAP1 DUP2 SWAP1 SUB PUSH2 0x6E1 JUMPI DUP3 DUP3 SWAP2 PUSH1 0x20 SWAP5 MSTORE PUSH2 0x145 DUP5 MSTORE KECCAK256 SLOAD SWAP1 MLOAD SWAP1 DUP2 MSTORE RETURN JUMPDEST SWAP1 POP CALLVALUE PUSH2 0x8E0 JUMPI CALLDATASIZE PUSH1 0x3 NOT ADD SLT PUSH2 0x60D JUMPI PUSH2 0x8DC SWAP1 PUSH2 0xB50 PUSH2 0x5660 JUMP JUMPDEST MLOAD PUSH4 0x6DBCB039 PUSH1 0xE1 SHL PUSH1 0x20 DUP3 ADD MSTORE PUSH2 0x8CA DUP2 PUSH2 0x8BC PUSH1 0x4 PUSH1 0x24 DUP4 ADD PUSH2 0x4A85 JUMP JUMPDEST DUP4 CALLVALUE PUSH2 0x78B JUMPI PUSH1 0x20 CALLDATASIZE PUSH1 0x3 NOT ADD SLT PUSH2 0x78B JUMPI PUSH1 0x4 CALLDATALOAD PUSH1 0x1 PUSH1 0x1 PUSH1 0xA0 SHL SUB DUP2 AND SWAP1 DUP2 SWAP1 SUB PUSH2 0x6E1 JUMPI PUSH2 0xB9F PUSH2 0x5660 JUMP JUMPDEST PUSH2 0x152 DUP1 SLOAD PUSH1 0x1 PUSH1 0x1 PUSH1 0xA0 SHL SUB NOT AND SWAP1 SWAP2 OR SWAP1 SSTORE DUP1 RETURN JUMPDEST DUP4 SWAP2 POP CALLVALUE PUSH2 0x60D JUMPI CALLDATASIZE PUSH1 0x3 NOT ADD SLT PUSH2 0x78B JUMPI POP PUSH2 0xBD1 PUSH2 0x4FFB JUMP JUMPDEST POP PUSH2 0x14F SLOAD PUSH1 0x1 PUSH1 0x1 PUSH1 0xA0 SHL SUB SWAP2 SWAP1 DUP3 AND CALLER SUB PUSH2 0xCBC JUMPI PUSH2 0xC81 SWAP2 PUSH2 0xBF7 CALLDATASIZE PUSH1 0x4 PUSH2 0x55B4 JUMP JUMPDEST SWAP2 PUSH2 0xC00 PUSH2 0x4FFB JUMP JUMPDEST POP PUSH2 0xC09 PUSH2 0x4EE0 JUMP JUMPDEST PUSH2 0xC11 PUSH2 0x56EE JUMP JUMPDEST PUSH2 0xC5D PUSH2 0xC4E DUP3 MLOAD PUSH4 0x3DAD0BD7 PUSH1 0xE1 SHL PUSH1 0x20 DUP3 ADD MSTORE PUSH2 0xC33 PUSH1 0x24 DUP3 ADD DUP8 PUSH2 0x4FAB JUMP JUMPDEST PUSH1 0xE4 DUP2 MSTORE PUSH2 0xC43 PUSH2 0x104 DUP3 PUSH2 0x3BB1 JUMP JUMPDEST DUP5 PUSH2 0x1F6 SLOAD AND PUSH2 0x4952 JUMP JUMPDEST PUSH1 0x20 DUP1 DUP3 MLOAD DUP4 ADD ADD SWAP2 ADD PUSH2 0x5559 JUMP JUMPDEST DUP7 DUP5 DUP8 PUSH1 0x80 DUP5 SWAP9 SWAP7 SWAP12 SWAP6 SWAP8 SWAP11 ADD MLOAD AND SWAP2 DUP9 PUSH1 0xC0 DUP2 PUSH1 0xA0 DUP5 ADD MLOAD AND SWAP3 ADD MLOAD AND SWAP3 PUSH2 0x5365 JUMP JUMPDEST PUSH1 0x4 CALLDATALOAD SWAP4 DUP1 DUP6 AND DUP1 SWAP6 SUB PUSH2 0x6E1 JUMPI PUSH1 0x84 CALLDATALOAD SWAP1 DUP2 AND DUP2 SUB PUSH2 0x6E1 JUMPI PUSH2 0xCB8 SWAP5 PUSH2 0xCAE SWAP2 DUP9 PUSH1 0x44 CALLDATALOAD SUB SWAP2 PUSH2 0x5627 JUMP JUMPDEST MLOAD SWAP5 DUP6 SWAP5 DUP6 PUSH2 0x3B55 JUMP JUMPDEST SUB SWAP1 RETURN JUMPDEST MLOAD PUSH4 0x19748477 PUSH1 0xE0 SHL DUP2 MSTORE PUSH1 0x4 SWAP1 REVERT JUMPDEST POP POP CALLVALUE PUSH2 0x60D JUMPI DUP2 PUSH1 0x3 NOT CALLDATASIZE ADD SLT PUSH2 0x60D JUMPI PUSH1 0x20 SWAP1 PUSH2 0x155 SLOAD SWAP1 MLOAD SWAP1 DUP2 MSTORE RETURN JUMPDEST POP POP CALLVALUE PUSH2 0x60D JUMPI DUP2 PUSH1 0x3 NOT CALLDATASIZE ADD SLT PUSH2 0x60D JUMPI PUSH1 0x20 SWAP1 PUSH2 0x816 PUSH2 0xD0E PUSH1 0x1 PUSH2 0x474E JUMP JUMPDEST PUSH2 0xD22 PUSH2 0xD1B DUP3 DUP5 PUSH2 0x4469 JUMP JUMPDEST SWAP2 DUP4 PUSH2 0x43B3 JUMP JUMPDEST SWAP2 PUSH2 0x4795 JUMP JUMPDEST PUSH2 0x696 DUP5 DUP5 PUSH1 0xC4 PUSH2 0xD3A CALLDATASIZE PUSH1 0x4 PUSH2 0x3B23 JUMP JUMPDEST PUSH2 0xD47 SWAP9 SWAP3 SWAP6 SWAP2 SWAP9 PUSH2 0x4EE0 JUMP JUMPDEST PUSH2 0xD4F PUSH2 0x56EE JUMP JUMPDEST DUP7 MLOAD SWAP5 PUSH2 0xD5D PUSH1 0xC0 DUP8 PUSH2 0x3BB1 JUMP JUMPDEST PUSH1 0x1 DUP1 PUSH1 0xA0 SHL SUB SWAP2 DUP3 DUP1 SWAP3 AND DUP8 MSTORE DUP2 PUSH1 0x20 SWAP12 DUP13 SWAP8 DUP9 DUP11 ADD MSTORE DUP10 DUP12 DUP11 ADD MSTORE CALLER PUSH1 0x60 DUP11 ADD MSTORE AND PUSH1 0x80 DUP9 ADD MSTORE AND PUSH1 0xA0 DUP7 ADD MSTORE PUSH2 0x14F SLOAD AND SWAP4 DUP7 MLOAD SWAP5 DUP6 SWAP4 DUP5 SWAP3 PUSH4 0x7E81A821 PUSH1 0xE0 SHL DUP5 MSTORE PUSH1 0x4 DUP5 ADD SWAP1 PUSH2 0x4F02 JUMP JUMPDEST DUP4 CALLVALUE PUSH2 0x78B JUMPI DUP1 PUSH1 0x3 NOT CALLDATASIZE ADD SLT PUSH2 0x78B JUMPI PUSH2 0xA96 PUSH2 0x4DE2 JUMP JUMPDEST DUP4 CALLVALUE PUSH2 0x78B JUMPI PUSH1 0x20 CALLDATASIZE PUSH1 0x3 NOT ADD SLT PUSH2 0x78B JUMPI PUSH1 0x4 CALLDATALOAD PUSH1 0x1 PUSH1 0x1 PUSH1 0xA0 SHL SUB DUP2 AND SWAP1 DUP2 SWAP1 SUB PUSH2 0x6E1 JUMPI PUSH2 0xDF5 PUSH2 0x5660 JUMP JUMPDEST PUSH2 0x12F DUP1 SLOAD PUSH1 0x1 PUSH1 0x1 PUSH1 0xA0 SHL SUB NOT AND SWAP1 SWAP2 OR SWAP1 SSTORE DUP1 RETURN JUMPDEST DUP4 CALLVALUE PUSH2 0x78B JUMPI PUSH1 0x20 CALLDATASIZE PUSH1 0x3 NOT ADD SLT PUSH2 0x78B JUMPI PUSH2 0xE26 PUSH2 0x5660 JUMP JUMPDEST PUSH1 0x4 CALLDATALOAD PUSH2 0x14C SSTORE DUP1 RETURN JUMPDEST POP POP CALLVALUE PUSH2 0x60D JUMPI DUP2 PUSH1 0x3 NOT CALLDATASIZE ADD SLT PUSH2 0x60D JUMPI PUSH1 0x20 SWAP1 PUSH2 0x816 PUSH2 0xE65 PUSH2 0xE6C PUSH2 0xE59 PUSH2 0xAE6 PUSH2 0x4714 JUMP JUMPDEST PUSH2 0x131 SWAP4 SWAP2 SWAP4 SLOAD PUSH2 0x4229 JUMP JUMPDEST SWAP2 DUP3 PUSH2 0x4229 JUMP JUMPDEST SWAP1 PUSH2 0x570F JUMP JUMPDEST DUP4 CALLVALUE PUSH2 0x78B JUMPI PUSH1 0x20 CALLDATASIZE PUSH1 0x3 NOT ADD SLT PUSH2 0x78B JUMPI PUSH2 0xE8C PUSH2 0x5660 JUMP JUMPDEST PUSH1 0x4 CALLDATALOAD PUSH2 0x13D SSTORE DUP1 RETURN JUMPDEST DUP3 DUP5 CALLVALUE PUSH2 0x78B JUMPI PUSH1 0xA0 CALLDATASIZE PUSH1 0x3 NOT ADD SLT PUSH2 0x78B JUMPI PUSH2 0xEB1 PUSH2 0x4FFB JUMP JUMPDEST POP PUSH2 0x14F SLOAD PUSH1 0x1 PUSH1 0x1 PUSH1 0xA0 SHL SUB SWAP1 DUP2 AND CALLER SUB PUSH2 0x1080 JUMPI PUSH2 0xED2 CALLDATASIZE PUSH1 0x4 PUSH2 0x5022 JUMP JUMPDEST SWAP2 PUSH2 0xEDB PUSH2 0x4FFB JUMP JUMPDEST POP PUSH2 0xEE4 PUSH2 0x4EE0 JUMP JUMPDEST PUSH2 0xEEC PUSH2 0x56EE JUMP JUMPDEST PUSH2 0xEF4 PUSH2 0x4DE2 JUMP JUMPDEST PUSH2 0xF07 PUSH2 0xEFF PUSH2 0x4D1F JUMP JUMPDEST DUP2 SWAP3 SWAP2 PUSH2 0x507F JUMP JUMPDEST SWAP1 SWAP2 PUSH2 0xF16 DUP3 DUP5 DUP9 MLOAD SWAP4 PUSH2 0x4B1A JUMP JUMPDEST DUP2 DUP2 LT PUSH2 0x1063 JUMPI POP POP PUSH8 0xDE0B6B3A7640000 SWAP2 PUSH2 0xF38 PUSH2 0xF3E SWAP3 DUP8 MLOAD SWAP3 PUSH2 0x4AE6 JUMP JUMPDEST SWAP1 PUSH2 0x4436 JUMP JUMPDEST DIV SWAP2 DUP3 ISZERO PUSH2 0x1052 JUMPI SWAP4 DUP4 SWAP5 DUP2 PUSH2 0xF77 SWAP6 ADD SWAP1 DUP1 DUP3 MLOAD AND SWAP2 PUSH2 0xF6C PUSH1 0x80 DUP10 ADD SWAP4 DUP8 DUP5 DUP7 MLOAD AND PUSH2 0x13D SLOAD SWAP3 PUSH2 0x50C2 JUMP JUMPDEST SWAP7 SWAP2 DUP9 SWAP10 SWAP2 SWAP10 PUSH2 0x4229 JUMP JUMPDEST SWAP7 PUSH1 0x20 DUP11 ADD MLOAD DUP1 DUP10 LT PUSH2 0x1035 JUMPI POP DUP10 MLOAD SWAP1 PUSH2 0x134 PUSH2 0xF96 DUP4 DUP3 SLOAD PUSH2 0x4229 JUMP JUMPDEST SWAP1 SSTORE PUSH2 0xFA6 PUSH2 0x131 SWAP2 DUP3 SLOAD PUSH2 0x4229 JUMP JUMPDEST SWAP1 SSTORE DUP4 PUSH2 0x133 SLOAD AND SWAP1 DUP2 EXTCODESIZE ISZERO PUSH2 0x8E0 JUMPI DUP7 MLOAD PUSH4 0x2770A7EB PUSH1 0xE2 SHL DUP2 MSTORE ADDRESS PUSH1 0x4 DUP3 ADD MSTORE PUSH1 0x24 DUP2 ADD SWAP2 SWAP1 SWAP2 MSTORE SWAP1 DUP3 SWAP1 DUP3 SWAP1 PUSH1 0x44 SWAP1 DUP3 SWAP1 DUP5 SWAP1 GAS CALL DUP1 ISZERO PUSH2 0x102B JUMPI PUSH2 0x1016 JUMPI JUMPDEST POP POP SWAP7 DUP6 PUSH2 0x100C SWAP4 DUP4 DUP1 PUSH1 0x60 DUP10 SWAP7 PUSH2 0xCB8 SWAP12 SWAP13 SWAP14 MLOAD AND SWAP6 ADD MLOAD AND SWAP2 MLOAD AND SWAP3 PUSH2 0x5365 JUMP JUMPDEST MLOAD SWAP4 DUP5 SWAP4 DUP5 PUSH2 0x3AE5 JUMP JUMPDEST PUSH2 0x1021 DUP3 DUP1 SWAP3 PUSH2 0x3BB1 JUMP JUMPDEST PUSH2 0x78B JUMPI DUP1 PUSH2 0xFE9 JUMP JUMPDEST DUP7 MLOAD RETURNDATASIZE DUP5 DUP3 RETURNDATACOPY RETURNDATASIZE SWAP1 REVERT JUMPDEST PUSH1 0x44 SWAP1 DUP10 DUP9 MLOAD SWAP2 PUSH4 0x54CDE313 PUSH1 0xE0 SHL DUP4 MSTORE PUSH1 0x4 DUP4 ADD MSTORE PUSH1 0x24 DUP3 ADD MSTORE REVERT JUMPDEST DUP5 MLOAD PUSH4 0xF3E39B5D PUSH1 0xE0 SHL DUP2 MSTORE PUSH1 0x4 SWAP1 REVERT JUMPDEST PUSH1 0x44 SWAP3 POP DUP8 MLOAD SWAP2 PUSH4 0xA5DB715D PUSH1 0xE0 SHL DUP4 MSTORE PUSH1 0x4 DUP4 ADD MSTORE PUSH1 0x24 DUP3 ADD MSTORE REVERT JUMPDEST DUP3 MLOAD PUSH4 0x19748477 PUSH1 0xE0 SHL DUP2 MSTORE PUSH1 0x4 SWAP1 REVERT JUMPDEST DUP4 CALLVALUE PUSH2 0x78B JUMPI PUSH1 0x20 CALLDATASIZE PUSH1 0x3 NOT ADD SLT PUSH2 0x78B JUMPI PUSH2 0x10AB PUSH2 0x5660 JUMP JUMPDEST PUSH1 0x4 CALLDATALOAD PUSH2 0x139 SSTORE DUP1 RETURN JUMPDEST DUP4 SWAP2 POP CALLVALUE PUSH2 0x60D JUMPI CALLDATASIZE PUSH1 0x3 NOT ADD SLT PUSH2 0x78B JUMPI POP PUSH2 0x10D0 PUSH2 0x4FFB JUMP JUMPDEST POP PUSH2 0x14F SLOAD PUSH1 0x1 PUSH1 0x1 PUSH1 0xA0 SHL SUB SWAP1 DUP2 AND CALLER SUB PUSH2 0x1172 JUMPI PUSH2 0xCB8 PUSH2 0xCAE SWAP2 PUSH2 0x10F8 CALLDATASIZE PUSH1 0x4 PUSH2 0x55B4 JUMP JUMPDEST SWAP4 PUSH2 0x1101 PUSH2 0x4FFB JUMP JUMPDEST POP PUSH2 0x110A PUSH2 0x4EE0 JUMP JUMPDEST PUSH2 0x1112 PUSH2 0x56EE JUMP JUMPDEST PUSH2 0x1134 PUSH2 0xC4E DUP3 MLOAD PUSH4 0xF5571E01 PUSH1 0xE0 SHL PUSH1 0x20 DUP3 ADD MSTORE PUSH2 0xC33 PUSH1 0x24 DUP3 ADD DUP10 PUSH2 0x4FAB JUMP JUMPDEST SWAP5 DUP9 PUSH1 0x60 DUP8 SWAP4 SWAP7 SWAP6 SWAP10 SWAP5 SWAP11 ADD SWAP2 DUP3 MLOAD PUSH2 0x1151 PUSH2 0x14E SWAP2 DUP3 SLOAD PUSH2 0x4229 JUMP JUMPDEST SWAP1 SSTORE PUSH1 0xC0 PUSH2 0x1167 DUP12 DUP4 PUSH1 0x80 DUP7 ADD MLOAD AND SWAP6 MLOAD PUSH2 0x4229 JUMP JUMPDEST SWAP3 ADD MLOAD AND SWAP2 DUP1 PUSH2 0x5365 JUMP JUMPDEST DUP2 MLOAD PUSH4 0x19748477 PUSH1 0xE0 SHL DUP2 MSTORE PUSH1 0x4 SWAP1 REVERT JUMPDEST POP POP CALLVALUE PUSH2 0x60D JUMPI DUP2 PUSH1 0x3 NOT CALLDATASIZE ADD SLT PUSH2 0x60D JUMPI PUSH1 0x20 SWAP1 PUSH1 0xFF PUSH1 0xCA SLOAD AND SWAP1 MLOAD SWAP1 ISZERO ISZERO DUP2 MSTORE RETURN JUMPDEST POP POP CALLVALUE PUSH2 0x60D JUMPI DUP2 PUSH1 0x3 NOT CALLDATASIZE ADD SLT PUSH2 0x60D JUMPI PUSH1 0x20 SWAP1 PUSH2 0x15B SLOAD SWAP1 MLOAD SWAP1 DUP2 MSTORE RETURN JUMPDEST POP POP CALLVALUE PUSH2 0x60D JUMPI DUP2 PUSH1 0x3 NOT CALLDATASIZE ADD SLT PUSH2 0x60D JUMPI PUSH2 0x153 SLOAD SWAP1 MLOAD PUSH1 0x1 PUSH1 0x1 PUSH1 0xA0 SHL SUB SWAP1 SWAP2 AND DUP2 MSTORE PUSH1 0x20 SWAP1 RETURN JUMPDEST DUP3 DUP5 CALLVALUE PUSH2 0x78B JUMPI PUSH1 0xC0 CALLDATASIZE PUSH1 0x3 NOT ADD SLT PUSH2 0x78B JUMPI PUSH2 0x120C PUSH2 0x4FFB JUMP JUMPDEST POP PUSH2 0x14F SLOAD PUSH1 0x1 PUSH1 0x1 PUSH1 0xA0 SHL SUB SWAP3 SWAP1 DUP4 AND CALLER SUB PUSH2 0xCBC JUMPI PUSH2 0x12A6 PUSH2 0x1231 CALLDATASIZE PUSH1 0x4 PUSH2 0x541E JUMP JUMPDEST SWAP2 PUSH2 0x123A PUSH2 0x4FFB JUMP JUMPDEST POP PUSH2 0x1243 PUSH2 0x4EE0 JUMP JUMPDEST PUSH2 0x124B PUSH2 0x56EE JUMP JUMPDEST PUSH2 0x1253 PUSH2 0x4DE2 JUMP JUMPDEST PUSH2 0x125B PUSH2 0x4D1F JUMP JUMPDEST PUSH2 0x126A DUP8 DUP7 SWAP6 SWAP4 SWAP6 MLOAD AND PUSH2 0x4612 JUMP JUMPDEST SWAP4 PUSH2 0x128A PUSH2 0x1278 DUP7 DUP5 PUSH2 0x4311 JUMP JUMPDEST MLOAD SWAP3 PUSH2 0x1284 DUP5 DUP9 PUSH2 0x4A34 JUMP JUMPDEST DUP3 PUSH2 0x507F JUMP JUMPDEST PUSH1 0x20 DUP9 SWAP6 SWAP3 SWAP6 ADD SWAP5 DUP5 DUP7 MLOAD SWAP5 PUSH2 0x12A0 DUP3 DUP12 PUSH2 0x4C7C JUMP JUMPDEST SWAP1 PUSH2 0x5487 JUMP JUMPDEST DUP2 DUP2 LT PUSH2 0x1392 JUMPI POP POP SWAP5 DUP1 SWAP7 PUSH2 0x12C0 PUSH2 0x12F8 SWAP8 DUP5 MLOAD PUSH2 0x570F JUMP JUMPDEST SWAP5 PUSH1 0x60 DUP8 ADD SWAP1 PUSH2 0x12ED DUP4 DUP4 MLOAD AND DUP9 DUP11 DUP10 PUSH1 0xA0 DUP3 ADD SWAP9 DUP9 DUP1 DUP12 MLOAD AND SWAP4 MLOAD AND DUP2 MSTORE PUSH2 0x144 PUSH1 0x20 MSTORE KECCAK256 SLOAD SWAP3 PUSH2 0x50C2 JUMP JUMPDEST SWAP9 SWAP2 DUP3 SWAP12 SWAP2 SWAP12 PUSH2 0x4304 JUMP JUMPDEST SWAP9 DUP8 DUP2 ADD SWAP7 DUP8 MLOAD DUP1 DUP13 GT PUSH2 0x1375 JUMPI POP DUP11 ISZERO PUSH2 0x1364 JUMPI SWAP5 DUP10 SWAP7 SWAP5 PUSH2 0x133F DUP3 SWAP6 DUP14 SWAP15 SWAP16 SWAP6 PUSH2 0xCB8 SWAP15 SWAP6 DUP6 PUSH1 0x80 PUSH2 0x100C SWAP15 SWAP13 PUSH2 0x1334 PUSH2 0x135A SWAP12 DUP7 PUSH2 0x549F JUMP JUMPDEST MLOAD SWAP3 ADD MLOAD AND SWAP3 PUSH2 0x4974 JUMP JUMPDEST DUP7 MLOAD PUSH2 0x134F PUSH2 0x14E SWAP2 DUP3 SLOAD PUSH2 0x4229 JUMP JUMPDEST SWAP1 SSTORE MLOAD AND SWAP5 MLOAD PUSH2 0x4229 JUMP JUMPDEST SWAP2 MLOAD AND SWAP2 DUP1 PUSH2 0x5365 JUMP JUMPDEST DUP9 MLOAD PUSH4 0xF3E39B5D PUSH1 0xE0 SHL DUP2 MSTORE PUSH1 0x4 SWAP1 REVERT JUMPDEST PUSH1 0x44 SWAP1 DUP13 DUP12 MLOAD SWAP2 PUSH4 0xB63F1A7 PUSH1 0xE0 SHL DUP4 MSTORE PUSH1 0x4 DUP4 ADD MSTORE PUSH1 0x24 DUP3 ADD MSTORE REVERT JUMPDEST PUSH1 0x44 SWAP3 POP DUP5 MLOAD SWAP2 PUSH4 0xC39B739F PUSH1 0xE0 SHL DUP4 MSTORE PUSH1 0x4 DUP4 ADD MSTORE PUSH1 0x24 DUP3 ADD MSTORE REVERT JUMPDEST DUP3 DUP5 PUSH2 0x13BC CALLDATASIZE PUSH1 0x4 PUSH2 0x3C05 JUMP JUMPDEST SWAP1 PUSH2 0x13C9 SWAP6 SWAP4 SWAP3 SWAP6 PUSH2 0x4EE0 JUMP JUMPDEST PUSH2 0x13D1 PUSH2 0x56EE JUMP JUMPDEST DUP4 MLOAD SWAP1 PUSH2 0x13DF PUSH1 0xA0 DUP4 PUSH2 0x3BB1 JUMP JUMPDEST DUP4 DUP3 MSTORE PUSH1 0x20 DUP1 DUP4 ADD SWAP8 DUP9 MSTORE CALLER DUP7 DUP5 ADD MSTORE PUSH1 0x1 PUSH1 0x1 PUSH1 0xA0 SHL SUB SWAP2 DUP3 AND PUSH1 0x60 DUP5 ADD SWAP1 DUP2 MSTORE SWAP4 DUP3 AND PUSH1 0x80 DUP5 ADD SWAP1 DUP2 MSTORE PUSH2 0x14F SLOAD DUP8 MLOAD PUSH4 0xFA91A9A5 PUSH1 0xE0 SHL DUP2 MSTORE DUP6 MLOAD PUSH1 0x4 DUP3 ADD MSTORE SWAP10 MLOAD PUSH1 0x24 DUP12 ADD MSTORE PUSH1 0x40 SWAP1 SWAP5 ADD MLOAD DUP4 AND PUSH1 0x44 DUP11 ADD MSTORE SWAP4 MLOAD DUP3 AND PUSH1 0x64 DUP10 ADD MSTORE SWAP3 MLOAD DUP2 AND PUSH1 0x84 DUP9 ADD MSTORE SWAP2 SWAP6 SWAP1 DUP7 SWAP1 DUP3 SWAP1 PUSH1 0xA4 SWAP1 DUP3 SWAP1 DUP7 AND CALLVALUE SWAP1 GAS CALL SWAP5 DUP6 ISZERO PUSH2 0x14AE JUMPI SWAP5 PUSH2 0x147B JUMPI JUMPDEST POP SWAP1 PUSH2 0x6B1 SWAP2 PUSH2 0x133 SLOAD AND ADDRESS SWAP1 CALLER SWAP1 PUSH2 0x4E9C JUMP JUMPDEST SWAP2 SWAP1 SWAP4 POP DUP5 DUP3 DUP2 RETURNDATASIZE DUP4 GT PUSH2 0x14A7 JUMPI JUMPDEST PUSH2 0x1494 DUP2 DUP4 PUSH2 0x3BB1 JUMP JUMPDEST DUP2 ADD SUB SLT PUSH2 0x6E1 JUMPI SWAP1 MLOAD SWAP3 PUSH2 0x6B1 PUSH2 0x1467 JUMP JUMPDEST POP RETURNDATASIZE PUSH2 0x148A JUMP JUMPDEST DUP5 MLOAD SWAP1 RETURNDATASIZE SWAP1 DUP3 RETURNDATACOPY RETURNDATASIZE SWAP1 REVERT JUMPDEST POP POP CALLVALUE PUSH2 0x60D JUMPI DUP2 PUSH1 0x3 NOT CALLDATASIZE ADD SLT PUSH2 0x60D JUMPI PUSH1 0x20 SWAP1 PUSH2 0x13D SLOAD SWAP1 MLOAD SWAP1 DUP2 MSTORE RETURN JUMPDEST POP POP CALLVALUE PUSH2 0x60D JUMPI PUSH1 0xC0 CALLDATASIZE PUSH1 0x3 NOT ADD SLT PUSH2 0x60D JUMPI PUSH2 0x14F4 PUSH2 0x4FFB JUMP JUMPDEST POP PUSH2 0x14F SLOAD PUSH1 0x1 PUSH1 0x1 PUSH1 0xA0 SHL SUB SWAP2 SWAP1 DUP3 AND CALLER SUB PUSH2 0xCBC JUMPI PUSH2 0x1516 CALLDATASIZE PUSH1 0x4 PUSH2 0x541E JUMP JUMPDEST SWAP2 PUSH2 0x151F PUSH2 0x4FFB JUMP JUMPDEST POP PUSH2 0x1528 PUSH2 0x4EE0 JUMP JUMPDEST PUSH2 0x1530 PUSH2 0x56EE JUMP JUMPDEST PUSH2 0x1538 PUSH2 0x4714 JUMP JUMPDEST SWAP2 PUSH2 0x1545 DUP3 DUP6 MLOAD AND PUSH2 0x4612 JUMP JUMPDEST SWAP2 PUSH2 0x1568 PUSH2 0x1553 DUP5 DUP7 PUSH2 0x4311 JUMP JUMPDEST MLOAD SWAP5 PUSH2 0x155F DUP7 DUP7 PUSH2 0x4A34 JUMP JUMPDEST PUSH2 0x149 SLOAD PUSH2 0x507F JUMP JUMPDEST POP POP PUSH2 0x1579 PUSH1 0x20 DUP7 ADD SWAP5 DUP6 MLOAD PUSH2 0x570F JUMP JUMPDEST SWAP1 DUP2 ISZERO PUSH2 0x16A8 JUMPI DUP6 SWAP7 PUSH1 0x60 PUSH2 0x15BE SWAP8 ADD SWAP1 DUP3 DUP3 MLOAD AND SWAP4 PUSH2 0x15B3 PUSH1 0xA0 DUP12 ADD SWAP6 DUP3 DUP13 DUP8 DUP1 DUP11 MLOAD AND SWAP2 MLOAD AND DUP7 MSTORE PUSH2 0x145 PUSH1 0x20 MSTORE DUP10 DUP7 KECCAK256 SLOAD SWAP3 PUSH2 0x50C2 JUMP JUMPDEST SWAP9 SWAP2 DUP4 SWAP12 SWAP2 SWAP12 PUSH2 0x4229 JUMP JUMPDEST SWAP9 DUP8 DUP13 ADD MLOAD DUP1 DUP12 LT PUSH2 0x168B JUMPI POP DUP6 SWAP2 PUSH2 0x1610 SWAP2 PUSH2 0x15DC PUSH1 0x1 DUP14 PUSH2 0x549F JUMP JUMPDEST MLOAD SWAP4 PUSH2 0x15EA DUP3 PUSH2 0x137 PUSH2 0x3B95 JUMP JUMPDEST POP PUSH2 0x15F6 DUP7 DUP3 SLOAD PUSH2 0x4229 JUMP JUMPDEST SWAP1 SSTORE PUSH2 0x1606 PUSH2 0x131 SWAP2 DUP3 SLOAD PUSH2 0x4229 JUMP JUMPDEST SWAP1 SSTORE PUSH2 0x135 PUSH2 0x3A60 JUMP JUMPDEST SWAP1 SLOAD SWAP1 PUSH1 0x3 SHL SHR AND SWAP1 DUP2 EXTCODESIZE ISZERO PUSH2 0x8E0 JUMPI DUP7 MLOAD PUSH4 0x2770A7EB PUSH1 0xE2 SHL DUP2 MSTORE ADDRESS PUSH1 0x4 DUP3 ADD MSTORE PUSH1 0x24 DUP2 ADD SWAP2 SWAP1 SWAP2 MSTORE SWAP1 DUP3 SWAP1 DUP3 SWAP1 PUSH1 0x44 SWAP1 DUP3 SWAP1 DUP5 SWAP1 GAS CALL DUP1 ISZERO PUSH2 0x102B JUMPI PUSH2 0x1676 JUMPI JUMPDEST POP POP SWAP7 DUP6 PUSH2 0x100C SWAP4 DUP4 DUP1 PUSH1 0x80 DUP10 SWAP7 PUSH2 0xCB8 SWAP12 SWAP13 SWAP14 MLOAD AND SWAP6 ADD MLOAD AND SWAP2 MLOAD AND SWAP3 PUSH2 0x5365 JUMP JUMPDEST PUSH2 0x1681 DUP3 DUP1 SWAP3 PUSH2 0x3BB1 JUMP JUMPDEST PUSH2 0x78B JUMPI DUP1 PUSH2 0x1653 JUMP JUMPDEST PUSH1 0x44 SWAP1 DUP12 DUP11 MLOAD SWAP2 PUSH4 0x54CDE313 PUSH1 0xE0 SHL DUP4 MSTORE PUSH1 0x4 DUP4 ADD MSTORE PUSH1 0x24 DUP3 ADD MSTORE REVERT JUMPDEST DUP3 MLOAD PUSH4 0xF3E39B5D PUSH1 0xE0 SHL DUP2 MSTORE PUSH1 0x4 SWAP1 REVERT JUMPDEST POP POP CALLVALUE PUSH2 0x60D JUMPI DUP2 PUSH1 0x3 NOT CALLDATASIZE ADD SLT PUSH2 0x60D JUMPI PUSH1 0x20 SWAP1 PUSH2 0x18F SLOAD NUMBER LT ISZERO SWAP1 MLOAD SWAP1 DUP2 MSTORE RETURN JUMPDEST POP POP CALLVALUE PUSH2 0x60D JUMPI DUP2 PUSH1 0x3 NOT CALLDATASIZE ADD SLT PUSH2 0x60D JUMPI PUSH1 0xCA SLOAD SWAP1 MLOAD PUSH1 0x10 SWAP2 SWAP1 SWAP2 SHR PUSH1 0x1 PUSH1 0x1 PUSH1 0xA0 SHL SUB AND DUP2 MSTORE PUSH1 0x20 SWAP1 RETURN JUMPDEST DUP3 DUP5 CALLVALUE PUSH2 0x78B JUMPI PUSH1 0x20 CALLDATASIZE PUSH1 0x3 NOT ADD SLT PUSH2 0x78B JUMPI PUSH1 0x4 CALLDATALOAD PUSH1 0x1 PUSH1 0x1 PUSH1 0xA0 SHL SUB DUP2 AND SWAP2 SWAP1 DUP3 SWAP1 SUB PUSH2 0x6E1 JUMPI DUP3 SWAP2 DUP2 MSTORE PUSH2 0x136 PUSH1 0x20 MSTORE KECCAK256 PUSH1 0xFF PUSH1 0x1 DUP3 SLOAD SWAP3 ADD SLOAD AND DUP3 MLOAD SWAP2 DUP3 MSTORE ISZERO ISZERO PUSH1 0x20 DUP3 ADD MSTORE RETURN JUMPDEST POP POP CALLVALUE PUSH2 0x60D JUMPI DUP2 PUSH1 0x3 NOT CALLDATASIZE ADD SLT PUSH2 0x60D JUMPI PUSH1 0x20 SWAP1 PUSH2 0x177E PUSH2 0x1778 PUSH2 0xAE6 PUSH2 0x4714 JUMP JUMPDEST SWAP1 PUSH2 0x44DA JUMP JUMPDEST PUSH2 0x14A SLOAD LT ISZERO SWAP1 MLOAD SWAP1 DUP2 MSTORE RETURN JUMPDEST POP POP CALLVALUE PUSH2 0x60D JUMPI DUP2 PUSH1 0x3 NOT CALLDATASIZE ADD SLT PUSH2 0x60D JUMPI PUSH2 0x146 SLOAD SWAP1 MLOAD PUSH1 0x1 PUSH1 0x1 PUSH1 0xA0 SHL SUB SWAP1 SWAP2 AND DUP2 MSTORE PUSH1 0x20 SWAP1 RETURN JUMPDEST POP POP CALLVALUE PUSH2 0x60D JUMPI DUP2 PUSH1 0x3 NOT CALLDATASIZE ADD SLT PUSH2 0x60D JUMPI PUSH1 0x20 SWAP1 PUSH2 0x17D5 PUSH2 0xAE6 PUSH2 0x4714 JUMP JUMPDEST POP SWAP1 MLOAD SWAP1 DUP2 MSTORE RETURN JUMPDEST POP POP CALLVALUE PUSH2 0x60D JUMPI DUP2 PUSH1 0x3 NOT CALLDATASIZE ADD SLT PUSH2 0x60D JUMPI PUSH2 0x158 SLOAD SWAP1 MLOAD PUSH1 0x1 PUSH1 0x1 PUSH1 0xA0 SHL SUB SWAP1 SWAP2 AND DUP2 MSTORE PUSH1 0x20 SWAP1 RETURN JUMPDEST POP POP CALLVALUE PUSH2 0x60D JUMPI DUP2 PUSH1 0x3 NOT CALLDATASIZE ADD SLT PUSH2 0x60D JUMPI PUSH1 0x20 SWAP1 PUSH2 0x14A SLOAD SWAP1 MLOAD SWAP1 DUP2 MSTORE RETURN JUMPDEST DUP3 DUP5 CALLVALUE PUSH2 0x78B JUMPI PUSH1 0xC0 CALLDATASIZE PUSH1 0x3 NOT ADD SLT PUSH2 0x78B JUMPI POP PUSH2 0x1843 PUSH2 0x4FFB JUMP JUMPDEST POP PUSH2 0x14F SLOAD PUSH1 0x1 PUSH1 0x1 PUSH1 0xA0 SHL SUB SWAP1 DUP2 AND CALLER SUB PUSH2 0x1172 JUMPI PUSH2 0xCB8 PUSH2 0xCAE SWAP2 PUSH2 0x186B CALLDATASIZE PUSH1 0x4 PUSH2 0x541E JUMP JUMPDEST SWAP4 PUSH2 0x1874 PUSH2 0x4FFB JUMP JUMPDEST POP PUSH2 0x187D PUSH2 0x4EE0 JUMP JUMPDEST PUSH2 0x1885 PUSH2 0x56EE JUMP JUMPDEST PUSH2 0x18B6 PUSH2 0xC4E DUP3 MLOAD PUSH4 0x7225DA89 PUSH1 0xE1 SHL PUSH1 0x20 DUP3 ADD MSTORE PUSH2 0x18A7 PUSH1 0x24 DUP3 ADD DUP10 PUSH2 0x4F02 JUMP JUMPDEST PUSH1 0xC4 DUP2 MSTORE PUSH2 0xC43 PUSH1 0xE4 DUP3 PUSH2 0x3BB1 JUMP JUMPDEST SWAP5 DUP9 DUP6 DUP8 SWAP4 SWAP7 SWAP6 SWAP10 SWAP5 SWAP11 ADD SWAP2 DUP3 MLOAD PUSH2 0x18D2 PUSH2 0x14E SWAP2 DUP3 SLOAD PUSH2 0x4229 JUMP JUMPDEST SWAP1 SSTORE PUSH1 0xA0 PUSH2 0x1167 DUP12 DUP4 PUSH1 0x60 DUP7 ADD MLOAD AND SWAP6 MLOAD PUSH2 0x4229 JUMP JUMPDEST DUP4 CALLVALUE PUSH2 0x78B JUMPI PUSH1 0x20 CALLDATASIZE PUSH1 0x3 NOT ADD SLT PUSH2 0x78B JUMPI PUSH1 0x4 CALLDATALOAD PUSH1 0x1 PUSH1 0x1 PUSH1 0xA0 SHL SUB DUP2 AND SWAP1 DUP2 SWAP1 SUB PUSH2 0x6E1 JUMPI PUSH2 0x1917 PUSH2 0x5660 JUMP JUMPDEST PUSH2 0x153 DUP1 SLOAD PUSH1 0x1 PUSH1 0x1 PUSH1 0xA0 SHL SUB NOT AND SWAP1 SWAP2 OR SWAP1 SSTORE DUP1 RETURN JUMPDEST POP POP CALLVALUE PUSH2 0x60D JUMPI DUP2 PUSH1 0x3 NOT CALLDATASIZE ADD SLT PUSH2 0x60D JUMPI PUSH2 0x1948 PUSH2 0x56EE JUMP JUMPDEST PUSH1 0xCA SLOAD PUSH1 0x10 DUP2 SWAP1 SHR PUSH1 0x1 PUSH1 0x1 PUSH1 0xA0 SHL SUB AND CALLER SUB PUSH2 0x19B2 JUMPI PUSH1 0xFF DUP2 AND ISZERO PUSH2 0x19A1 JUMPI PUSH2 0xFF00 NOT AND PUSH2 0x100 OR PUSH1 0xCA SSTORE MLOAD CALLER DUP2 MSTORE PUSH32 0x62E78CEA01BEE320CD4E420270B5EA74000D11B0C9F74754EBDBFC544B05A258 SWAP1 PUSH1 0x20 SWAP1 LOG1 DUP1 RETURN JUMPDEST DUP2 MLOAD PUSH4 0x866099C3 PUSH1 0xE0 SHL DUP2 MSTORE PUSH1 0x4 SWAP1 REVERT JUMPDEST DUP2 MLOAD PUSH4 0x1D77D477 PUSH1 0xE2 SHL DUP2 MSTORE PUSH1 0x4 SWAP1 REVERT JUMPDEST POP POP CALLVALUE PUSH2 0x60D JUMPI DUP2 PUSH1 0x3 NOT CALLDATASIZE ADD SLT PUSH2 0x60D JUMPI PUSH1 0x20 SWAP1 PUSH2 0x816 PUSH2 0x1778 PUSH2 0xAE6 PUSH2 0x4714 JUMP JUMPDEST POP POP CALLVALUE PUSH2 0x60D JUMPI DUP2 PUSH1 0x3 NOT CALLDATASIZE ADD SLT PUSH2 0x60D JUMPI PUSH1 0x20 SWAP1 PUSH2 0x15A SLOAD SWAP1 MLOAD SWAP1 DUP2 MSTORE RETURN JUMPDEST POP POP CALLVALUE PUSH2 0x60D JUMPI DUP2 PUSH1 0x3 NOT CALLDATASIZE ADD SLT PUSH2 0x60D JUMPI PUSH1 0x20 SWAP1 PUSH2 0x816 PUSH2 0x1A28 PUSH1 0x1 PUSH2 0x474E JUMP JUMPDEST PUSH2 0xD22 PUSH2 0x1A35 DUP3 DUP5 PUSH2 0x43B3 JUMP JUMPDEST SWAP2 DUP4 PUSH2 0x4469 JUMP JUMPDEST POP POP CALLVALUE PUSH2 0x60D JUMPI DUP2 PUSH1 0x3 NOT CALLDATASIZE ADD SLT PUSH2 0x60D JUMPI PUSH2 0x1C3 SLOAD SWAP1 MLOAD PUSH1 0x1 PUSH1 0x1 PUSH1 0xA0 SHL SUB SWAP1 SWAP2 AND DUP2 MSTORE PUSH1 0x20 SWAP1 RETURN JUMPDEST POP POP CALLVALUE PUSH2 0x60D JUMPI PUSH1 0x20 CALLDATASIZE PUSH1 0x3 NOT ADD SLT PUSH2 0x60D JUMPI PUSH1 0x4 CALLDATALOAD SWAP2 PUSH2 0x148 SWAP1 DUP2 SLOAD DUP5 LT ISZERO PUSH2 0x78B JUMPI POP PUSH1 0x20 SWAP3 PUSH2 0x1A97 SWAP2 PUSH2 0x3A60 JUMP JUMPDEST SWAP2 SWAP1 SLOAD SWAP1 MLOAD SWAP2 PUSH1 0x3 SHL SHR DUP2 MSTORE RETURN JUMPDEST DUP4 CALLVALUE PUSH2 0x78B JUMPI PUSH1 0x20 CALLDATASIZE PUSH1 0x3 NOT ADD SLT PUSH2 0x78B JUMPI PUSH2 0x1ABF PUSH2 0x5660 JUMP JUMPDEST PUSH1 0x4 CALLDATALOAD PUSH2 0x149 SSTORE DUP1 RETURN JUMPDEST DUP4 CALLVALUE PUSH2 0x78B JUMPI PUSH1 0x20 CALLDATASIZE PUSH1 0x3 NOT ADD SLT PUSH2 0x78B JUMPI PUSH2 0x1AE3 PUSH2 0x5660 JUMP JUMPDEST PUSH1 0x4 CALLDATALOAD PUSH2 0x140 SSTORE DUP1 RETURN JUMPDEST POP POP CALLVALUE PUSH2 0x60D JUMPI DUP2 PUSH1 0x3 NOT CALLDATASIZE ADD SLT PUSH2 0x60D JUMPI PUSH1 0x20 SWAP1 PUSH2 0x190 SLOAD SWAP1 MLOAD SWAP1 DUP2 MSTORE RETURN JUMPDEST DUP4 CALLVALUE PUSH2 0x78B JUMPI PUSH1 0x20 CALLDATASIZE PUSH1 0x3 NOT ADD SLT PUSH2 0x78B JUMPI PUSH2 0x1B27 PUSH2 0x5660 JUMP JUMPDEST PUSH1 0x4 CALLDATALOAD PUSH2 0x141 SSTORE DUP1 RETURN JUMPDEST POP POP CALLVALUE PUSH2 0x60D JUMPI DUP2 PUSH1 0x3 NOT CALLDATASIZE ADD SLT PUSH2 0x60D JUMPI PUSH1 0x20 SWAP1 PUSH2 0x134 SLOAD SWAP1 MLOAD SWAP1 DUP2 MSTORE RETURN JUMPDEST POP POP CALLVALUE PUSH2 0x60D JUMPI DUP2 PUSH1 0x3 NOT CALLDATASIZE ADD SLT PUSH2 0x60D JUMPI PUSH1 0x20 SWAP1 PUSH2 0x142 SLOAD SWAP1 MLOAD SWAP1 DUP2 MSTORE RETURN JUMPDEST SWAP1 POP DUP3 PUSH2 0x1B7F CALLDATASIZE PUSH1 0x4 PUSH2 0x3AA2 JUMP JUMPDEST PUSH2 0x1B8F SWAP9 SWAP6 SWAP2 SWAP8 SWAP3 SWAP5 SWAP4 SWAP9 PUSH2 0x4EE0 JUMP JUMPDEST PUSH2 0x1B97 PUSH2 0x56EE JUMP JUMPDEST PUSH2 0x1BA3 DUP7 MLOAD SWAP4 DUP5 PUSH2 0x3BB1 JUMP JUMPDEST PUSH1 0x1 DUP1 PUSH1 0xA0 SHL SUB DUP1 SWAP9 DUP2 DUP1 SWAP5 AND DUP6 MSTORE PUSH1 0x20 SWAP11 DUP7 DUP13 DUP8 ADD MSTORE DUP9 DUP7 ADD MSTORE DUP7 PUSH1 0x60 DUP7 ADD MSTORE CALLER PUSH1 0x80 DUP7 ADD MSTORE AND PUSH1 0xA0 DUP5 ADD MSTORE AND PUSH1 0xC0 DUP3 ADD MSTORE DUP7 PUSH2 0x1BFE PUSH1 0xE4 DUP9 PUSH2 0x14F SLOAD AND SWAP4 DUP8 MLOAD SWAP5 DUP6 SWAP4 DUP5 SWAP3 PUSH4 0x6B59C22F PUSH1 0xE0 SHL DUP5 MSTORE PUSH1 0x4 DUP5 ADD SWAP1 PUSH2 0x4FAB JUMP JUMPDEST CALLVALUE SWAP1 GAS CALL SWAP5 DUP6 ISZERO PUSH2 0x14AE JUMPI SWAP5 PUSH2 0x1C2D JUMPI JUMPDEST POP PUSH2 0x1C28 SWAP1 PUSH2 0x6B1 SWAP4 SWAP5 SWAP6 PUSH2 0x133 SLOAD AND ADDRESS SWAP1 CALLER SWAP1 PUSH2 0x4E9C JUMP JUMPDEST PUSH2 0x4E76 JUMP JUMPDEST SWAP1 SWAP3 SWAP4 POP DUP6 DUP2 DUP2 RETURNDATASIZE DUP4 GT PUSH2 0x1C59 JUMPI JUMPDEST PUSH2 0x1C46 DUP2 DUP4 PUSH2 0x3BB1 JUMP JUMPDEST DUP2 ADD SUB SLT PUSH2 0x6E1 JUMPI MLOAD SWAP3 SWAP2 PUSH2 0x1C28 PUSH2 0x1C0F JUMP JUMPDEST POP RETURNDATASIZE PUSH2 0x1C3C JUMP JUMPDEST DUP4 CALLVALUE PUSH2 0x78B JUMPI PUSH1 0x20 CALLDATASIZE PUSH1 0x3 NOT ADD SLT PUSH2 0x78B JUMPI PUSH2 0x1C7A PUSH2 0x5660 JUMP JUMPDEST PUSH1 0x4 CALLDATALOAD PUSH2 0x13B SSTORE DUP1 RETURN JUMPDEST POP POP CALLVALUE PUSH2 0x60D JUMPI DUP2 PUSH1 0x3 NOT CALLDATASIZE ADD SLT PUSH2 0x60D JUMPI PUSH1 0x20 SWAP1 PUSH2 0x156 SLOAD SWAP1 MLOAD SWAP1 DUP2 MSTORE RETURN JUMPDEST POP POP CALLVALUE PUSH2 0x60D JUMPI DUP2 PUSH1 0x3 NOT CALLDATASIZE ADD SLT PUSH2 0x60D JUMPI PUSH1 0x20 SWAP1 PUSH2 0x139 SLOAD SWAP1 MLOAD SWAP1 DUP2 MSTORE RETURN JUMPDEST DUP4 CALLVALUE PUSH2 0x78B JUMPI PUSH1 0x20 CALLDATASIZE PUSH1 0x3 NOT ADD SLT PUSH2 0x78B JUMPI PUSH2 0x1CDE PUSH2 0x5660 JUMP JUMPDEST PUSH1 0x4 CALLDATALOAD PUSH2 0x154 SSTORE DUP1 RETURN JUMPDEST DUP4 CALLVALUE PUSH2 0x78B JUMPI PUSH1 0x20 CALLDATASIZE PUSH1 0x3 NOT ADD SLT PUSH2 0x78B JUMPI PUSH1 0x4 CALLDATALOAD PUSH1 0x1 PUSH1 0x1 PUSH1 0xA0 SHL SUB DUP2 AND SWAP1 DUP2 SWAP1 SUB PUSH2 0x6E1 JUMPI PUSH2 0x1D17 PUSH2 0x5660 JUMP JUMPDEST PUSH2 0x158 DUP1 SLOAD PUSH1 0x1 PUSH1 0x1 PUSH1 0xA0 SHL SUB NOT AND SWAP1 SWAP2 OR SWAP1 SSTORE DUP1 RETURN JUMPDEST DUP4 CALLVALUE PUSH2 0x78B JUMPI PUSH1 0x20 CALLDATASIZE PUSH1 0x3 NOT ADD SLT PUSH2 0x78B JUMPI PUSH2 0x1D48 PUSH2 0x5660 JUMP JUMPDEST PUSH1 0x4 CALLDATALOAD PUSH2 0x13E SSTORE DUP1 RETURN JUMPDEST POP POP CALLVALUE PUSH2 0x60D JUMPI DUP2 PUSH1 0x3 NOT CALLDATASIZE ADD SLT PUSH2 0x60D JUMPI PUSH1 0x20 SWAP1 PUSH2 0x154 SLOAD SWAP1 MLOAD SWAP1 DUP2 MSTORE RETURN JUMPDEST POP POP CALLVALUE PUSH2 0x60D JUMPI DUP2 PUSH1 0x3 NOT CALLDATASIZE ADD SLT PUSH2 0x60D JUMPI PUSH1 0x20 SWAP1 PUSH2 0x149 SLOAD SWAP1 MLOAD SWAP1 DUP2 MSTORE RETURN JUMPDEST DUP4 CALLVALUE PUSH2 0x78B JUMPI DUP1 PUSH1 0x3 NOT CALLDATASIZE ADD SLT PUSH2 0x78B JUMPI PUSH2 0x1DAB PUSH2 0x5660 JUMP JUMPDEST PUSH1 0x1 PUSH1 0xFF NOT PUSH1 0xCA SLOAD AND OR PUSH1 0xCA SSTORE DUP1 RETURN JUMPDEST POP POP CALLVALUE PUSH2 0x60D JUMPI DUP2 PUSH1 0x3 NOT CALLDATASIZE ADD SLT PUSH2 0x60D JUMPI PUSH1 0x20 SWAP1 PUSH2 0x17D5 PUSH2 0x4D1F JUMP JUMPDEST DUP4 CALLVALUE PUSH2 0x78B JUMPI PUSH1 0x20 CALLDATASIZE PUSH1 0x3 NOT ADD SLT PUSH2 0x78B JUMPI PUSH2 0x1DF2 PUSH2 0x5660 JUMP JUMPDEST PUSH1 0x4 CALLDATALOAD PUSH2 0x159 SSTORE DUP1 RETURN JUMPDEST POP POP CALLVALUE PUSH2 0x60D JUMPI DUP2 PUSH1 0x3 NOT CALLDATASIZE ADD SLT PUSH2 0x60D JUMPI PUSH2 0x12F SLOAD SWAP1 MLOAD PUSH1 0x1 PUSH1 0x1 PUSH1 0xA0 SHL SUB SWAP1 SWAP2 AND DUP2 MSTORE PUSH1 0x20 SWAP1 RETURN JUMPDEST DUP3 DUP5 PUSH2 0x1E33 CALLDATASIZE PUSH1 0x4 PUSH2 0x3C05 JUMP JUMPDEST SWAP5 SWAP3 SWAP1 PUSH2 0x1E3E PUSH2 0x4EE0 JUMP JUMPDEST PUSH2 0x1E46 PUSH2 0x56EE JUMP JUMPDEST DUP4 MLOAD SWAP2 PUSH2 0x1E54 PUSH1 0xA0 DUP5 PUSH2 0x3BB1 JUMP JUMPDEST DUP3 MSTORE PUSH1 0x20 DUP1 DUP4 ADD DUP5 DUP2 MSTORE CALLER DUP7 DUP6 ADD MSTORE PUSH1 0x1 PUSH1 0x1 PUSH1 0xA0 SHL SUB SWAP3 DUP4 AND PUSH1 0x60 DUP6 ADD SWAP1 DUP2 MSTORE SWAP8 DUP4 AND PUSH1 0x80 DUP6 ADD SWAP1 DUP2 MSTORE PUSH2 0x14F SLOAD DUP8 MLOAD PUSH4 0xE97A4D63 PUSH1 0xE0 SHL DUP2 MSTORE DUP7 MLOAD PUSH1 0x4 DUP3 ADD MSTORE SWAP3 MLOAD PUSH1 0x24 DUP5 ADD MSTORE PUSH1 0x40 SWAP1 SWAP6 ADD MLOAD DUP5 AND PUSH1 0x44 DUP4 ADD MSTORE SWAP8 MLOAD DUP4 AND PUSH1 0x64 DUP3 ADD MSTORE SWAP7 MLOAD DUP3 AND PUSH1 0x84 DUP9 ADD MSTORE SWAP6 SWAP2 DUP7 SWAP2 DUP4 SWAP2 PUSH1 0xA4 SWAP2 DUP4 SWAP2 AND PUSH2 0x696 JUMP JUMPDEST POP POP CALLVALUE PUSH2 0x60D JUMPI PUSH2 0x400 CALLDATASIZE PUSH1 0x3 NOT ADD SLT PUSH2 0x60D JUMPI DUP2 SLOAD PUSH1 0xFF DUP2 PUSH1 0x8 SHR AND ISZERO SWAP1 DUP2 DUP1 SWAP3 PUSH2 0x240D JUMPI JUMPDEST DUP1 ISZERO PUSH2 0x23F6 JUMPI JUMPDEST ISZERO PUSH2 0x239B JUMPI PUSH1 0xFF NOT DUP2 AND PUSH1 0x1 OR DUP5 SSTORE DUP2 PUSH2 0x238A JUMPI JUMPDEST POP PUSH1 0xFF DUP4 SLOAD PUSH1 0x8 SHR AND PUSH2 0x1F22 DUP2 PUSH2 0x48F2 JUMP JUMPDEST PUSH2 0x384 CALLDATALOAD PUSH1 0x1 PUSH1 0x1 PUSH1 0xA0 SHL SUB DUP2 AND SWAP1 DUP2 SWAP1 SUB PUSH2 0x6E1 JUMPI PUSH2 0x1F6 DUP1 SLOAD PUSH1 0x1 PUSH1 0x1 PUSH1 0xA0 SHL SUB NOT AND SWAP1 SWAP2 OR SWAP1 SSTORE PUSH1 0x1 PUSH1 0x1 PUSH1 0xA0 SHL SUB PUSH2 0x344 CALLDATALOAD SWAP1 DUP2 AND SWAP1 DUP2 SWAP1 SUB PUSH2 0x6E1 JUMPI PUSH2 0x364 CALLDATALOAD PUSH1 0x1 PUSH1 0x1 PUSH1 0xA0 SHL SUB DUP2 AND DUP2 SUB PUSH2 0x6E1 JUMPI PUSH1 0x1 SWAP2 PUSH2 0x1F83 DUP5 PUSH2 0x48F2 JUMP JUMPDEST PUSH2 0x1F8C DUP5 PUSH2 0x48F2 JUMP JUMPDEST PUSH2 0x1F95 DUP5 PUSH2 0x48F2 JUMP JUMPDEST PUSH2 0x1F9E DUP5 PUSH2 0x48F2 JUMP JUMPDEST PUSH1 0x1 PUSH1 0x1 PUSH1 0x60 SHL SUB PUSH1 0xA0 SHL PUSH1 0x97 SLOAD AND OR PUSH1 0x97 SSTORE PUSH2 0x1FBA DUP4 PUSH2 0x48F2 JUMP JUMPDEST PUSH1 0xCA SLOAD SWAP1 PUSH3 0x10000 DUP4 PUSH1 0xB0 SHL SUB SWAP1 PUSH1 0x10 SHL AND SWAP1 PUSH2 0xFF01 DUP4 PUSH1 0xB0 SHL SUB NOT AND OR OR PUSH1 0xCA SSTORE PUSH2 0x1FE5 DUP2 PUSH2 0x48F2 JUMP JUMPDEST PUSH8 0xDE0B6B3A7640000 PUSH1 0xC4 CALLDATALOAD GT ISZERO PUSH2 0x2379 JUMPI PUSH2 0x2003 PUSH2 0x104 CALLDATALOAD PUSH2 0x5733 JUMP JUMPDEST PUSH2 0x200F PUSH2 0x124 CALLDATALOAD PUSH2 0x5733 JUMP JUMPDEST PUSH2 0x201B PUSH2 0x144 CALLDATALOAD PUSH2 0x5733 JUMP JUMPDEST PUSH2 0x2027 PUSH2 0x164 CALLDATALOAD PUSH2 0x5733 JUMP JUMPDEST PUSH2 0x2033 PUSH2 0x184 CALLDATALOAD PUSH2 0x5733 JUMP JUMPDEST PUSH2 0x203F PUSH2 0x1A4 CALLDATALOAD PUSH2 0x5733 JUMP JUMPDEST PUSH2 0x204B PUSH2 0x1C4 CALLDATALOAD PUSH2 0x5733 JUMP JUMPDEST PUSH2 0x2057 PUSH2 0x1E4 CALLDATALOAD PUSH2 0x5733 JUMP JUMPDEST PUSH2 0x2063 PUSH2 0x204 CALLDATALOAD PUSH2 0x5733 JUMP JUMPDEST PUSH2 0x207B PUSH2 0x2076 PUSH2 0x244 CALLDATALOAD PUSH2 0x224 CALLDATALOAD PUSH2 0x4304 JUMP JUMPDEST PUSH2 0x5733 JUMP JUMPDEST PUSH1 0x4 CALLDATALOAD PUSH1 0x1 PUSH1 0x1 PUSH1 0xA0 SHL SUB DUP2 AND SWAP1 DUP2 SWAP1 SUB PUSH2 0x2375 JUMPI PUSH2 0x14F DUP1 SLOAD PUSH1 0x1 PUSH1 0x1 PUSH1 0xA0 SHL SUB NOT AND SWAP1 SWAP2 OR SWAP1 SSTORE PUSH1 0x24 CALLDATALOAD PUSH1 0x1 PUSH1 0x1 PUSH1 0xA0 SHL SUB DUP2 AND DUP2 SUB PUSH2 0x6E1 JUMPI PUSH2 0x12F DUP1 SLOAD PUSH1 0x1 PUSH1 0x1 PUSH1 0xA0 SHL SUB NOT AND PUSH1 0x1 PUSH1 0x1 PUSH1 0xA0 SHL SUB SWAP3 DUP4 AND OR SWAP1 SSTORE PUSH1 0x44 CALLDATALOAD SWAP1 DUP2 AND DUP2 SUB PUSH2 0x6E1 JUMPI PUSH2 0x130 DUP1 SLOAD PUSH1 0x1 PUSH1 0x1 PUSH1 0xA0 SHL SUB NOT AND PUSH1 0x1 PUSH1 0x1 PUSH1 0xA0 SHL SUB SWAP3 DUP4 AND OR SWAP1 SSTORE PUSH1 0x64 CALLDATALOAD SWAP1 DUP2 AND DUP2 SUB PUSH2 0x6E1 JUMPI PUSH2 0x133 DUP1 SLOAD PUSH1 0x1 PUSH1 0x1 PUSH1 0xA0 SHL SUB NOT AND PUSH1 0x1 PUSH1 0x1 PUSH1 0xA0 SHL SUB SWAP3 DUP4 AND OR SWAP1 SSTORE PUSH1 0x84 CALLDATALOAD SWAP1 DUP2 AND DUP2 SUB PUSH2 0x6E1 JUMPI PUSH2 0x146 DUP1 SLOAD PUSH1 0x1 PUSH1 0x1 PUSH1 0xA0 SHL SUB NOT AND PUSH1 0x1 PUSH1 0x1 PUSH1 0xA0 SHL SUB SWAP3 DUP4 AND OR SWAP1 SSTORE PUSH1 0xA4 CALLDATALOAD SWAP1 DUP2 AND DUP2 SUB PUSH2 0x6E1 JUMPI PUSH2 0x147 DUP1 SLOAD PUSH1 0x1 PUSH1 0x1 PUSH1 0xA0 SHL SUB NOT AND PUSH1 0x1 PUSH1 0x1 PUSH1 0xA0 SHL SUB SWAP3 DUP4 AND OR SWAP1 SSTORE PUSH1 0xC4 CALLDATALOAD PUSH2 0x149 SSTORE PUSH1 0xE4 CALLDATALOAD PUSH2 0x14A SSTORE PUSH2 0x104 CALLDATALOAD PUSH2 0x13B SSTORE PUSH2 0x124 CALLDATALOAD PUSH2 0x13C SSTORE PUSH2 0x144 CALLDATALOAD PUSH2 0x13D SSTORE PUSH2 0x164 CALLDATALOAD PUSH2 0x13E SSTORE PUSH2 0x184 CALLDATALOAD PUSH2 0x13F SSTORE PUSH2 0x1A4 CALLDATALOAD PUSH2 0x140 SSTORE PUSH2 0x1C4 CALLDATALOAD PUSH2 0x141 SSTORE PUSH2 0x1E4 CALLDATALOAD PUSH2 0x142 SSTORE PUSH2 0x204 CALLDATALOAD PUSH2 0x143 SSTORE PUSH2 0x224 CALLDATALOAD PUSH2 0x139 SSTORE PUSH2 0x244 CALLDATALOAD PUSH2 0x13A SSTORE PUSH2 0x264 CALLDATALOAD PUSH2 0x14C DUP2 SWAP1 SSTORE SWAP1 PUSH2 0x284 CALLDATALOAD SWAP1 DUP2 AND SWAP1 DUP2 SWAP1 SUB PUSH2 0x6E1 JUMPI PUSH2 0x158 DUP1 SLOAD PUSH1 0x1 PUSH1 0x1 PUSH1 0xA0 SHL SUB NOT AND SWAP1 SWAP2 OR SWAP1 SSTORE PUSH2 0x2A4 CALLDATALOAD PUSH2 0x159 SSTORE PUSH2 0x2C4 CALLDATALOAD PUSH2 0x15A DUP2 SWAP1 SSTORE SWAP1 PUSH1 0x1 PUSH1 0x1 PUSH1 0xA0 SHL SUB PUSH2 0x2E4 CALLDATALOAD SWAP1 DUP2 AND SWAP1 DUP2 SWAP1 SUB PUSH2 0x6E1 JUMPI PUSH2 0x152 DUP1 SLOAD PUSH1 0x1 PUSH1 0x1 PUSH1 0xA0 SHL SUB NOT AND SWAP1 SWAP2 OR SWAP1 SSTORE PUSH1 0x1 PUSH1 0x1 PUSH1 0xA0 SHL SUB PUSH2 0x304 CALLDATALOAD SWAP1 DUP2 AND SWAP1 DUP2 SWAP1 SUB PUSH2 0x6E1 JUMPI PUSH2 0x153 SWAP1 PUSH1 0x1 PUSH1 0x1 PUSH1 0x60 SHL SUB PUSH1 0xA0 SHL DUP3 SLOAD AND OR SWAP1 SSTORE PUSH2 0x324 CALLDATALOAD PUSH2 0x154 SSTORE NUMBER PUSH2 0x157 SSTORE NUMBER ADD PUSH2 0x14D SSTORE NUMBER ADD PUSH2 0x15B SSTORE PUSH2 0x14B PUSH2 0xFFFF NOT DUP2 SLOAD AND SWAP1 SSTORE PUSH2 0x3A4 CALLDATALOAD PUSH2 0x22A8 DUP3 PUSH2 0x48F2 JUMP JUMPDEST DUP1 ISZERO PUSH2 0x2364 JUMPI PUSH2 0x190 DUP2 SWAP1 SSTORE NUMBER ADD PUSH2 0x18F SSTORE PUSH2 0x3C4 CALLDATALOAD PUSH1 0x1 PUSH1 0x1 PUSH1 0xA0 SHL SUB DUP2 AND DUP2 SUB PUSH2 0x6E1 JUMPI PUSH2 0x22DA PUSH2 0x22FC SWAP3 PUSH2 0x48F2 JUMP JUMPDEST PUSH2 0x1C3 DUP1 SLOAD PUSH1 0x1 PUSH1 0x1 PUSH1 0xA0 SHL SUB NOT AND PUSH1 0x1 PUSH1 0x1 PUSH1 0xA0 SHL SUB SWAP1 SWAP3 AND SWAP2 SWAP1 SWAP2 OR SWAP1 SSTORE JUMP JUMPDEST PUSH2 0x3E4 CALLDATALOAD PUSH1 0x1 PUSH1 0x1 PUSH1 0xA0 SHL SUB DUP2 AND SWAP1 DUP2 SWAP1 SUB PUSH2 0x6E1 JUMPI PUSH2 0x229 DUP1 SLOAD PUSH1 0x1 PUSH1 0x1 PUSH1 0xA0 SHL SUB NOT AND SWAP1 SWAP2 OR SWAP1 SSTORE PUSH2 0x232E JUMPI POP DUP1 RETURN JUMPDEST PUSH1 0x20 PUSH32 0x7F26B83FF96E1F2B6A682F133852F6798A09C465DA95921460CEFB3847402498 SWAP2 PUSH2 0xFF00 NOT DUP5 SLOAD AND DUP5 SSTORE MLOAD PUSH1 0x1 DUP2 MSTORE LOG1 DUP1 RETURN JUMPDEST DUP4 MLOAD PUSH4 0x2A9FFAB7 PUSH1 0xE2 SHL DUP2 MSTORE PUSH1 0x4 SWAP1 REVERT JUMPDEST DUP5 DUP1 REVERT JUMPDEST DUP3 MLOAD PUSH4 0x2A9FFAB7 PUSH1 0xE2 SHL DUP2 MSTORE PUSH1 0x4 SWAP1 REVERT JUMPDEST PUSH2 0xFFFF NOT AND PUSH2 0x101 OR DUP4 SSTORE CODESIZE PUSH2 0x1F10 JUMP JUMPDEST DUP3 MLOAD PUSH3 0x461BCD PUSH1 0xE5 SHL DUP2 MSTORE PUSH1 0x20 PUSH1 0x4 DUP3 ADD MSTORE PUSH1 0x2E PUSH1 0x24 DUP3 ADD MSTORE PUSH32 0x496E697469616C697A61626C653A20636F6E747261637420697320616C726561 PUSH1 0x44 DUP3 ADD MSTORE PUSH14 0x191E481A5B9A5D1A585B1A5E9959 PUSH1 0x92 SHL PUSH1 0x64 DUP3 ADD MSTORE PUSH1 0x84 SWAP1 REVERT JUMPDEST POP ADDRESS EXTCODESIZE ISZERO DUP1 ISZERO PUSH2 0x1EFB JUMPI POP PUSH1 0x1 PUSH1 0xFF DUP3 AND EQ PUSH2 0x1EFB JUMP JUMPDEST POP PUSH1 0x1 PUSH1 0xFF DUP3 AND LT PUSH2 0x1EF4 JUMP JUMPDEST POP POP CALLVALUE PUSH2 0x60D JUMPI DUP2 PUSH1 0x3 NOT CALLDATASIZE ADD SLT PUSH2 0x60D JUMPI PUSH2 0x133 SLOAD SWAP1 MLOAD PUSH1 0x1 PUSH1 0x1 PUSH1 0xA0 SHL SUB SWAP1 SWAP2 AND DUP2 MSTORE PUSH1 0x20 SWAP1 RETURN JUMPDEST POP POP CALLVALUE PUSH2 0x60D JUMPI DUP2 PUSH1 0x3 NOT CALLDATASIZE ADD SLT PUSH2 0x60D JUMPI PUSH1 0x20 SWAP1 PUSH2 0x14E SLOAD SWAP1 MLOAD SWAP1 DUP2 MSTORE RETURN JUMPDEST POP POP CALLVALUE PUSH2 0x60D JUMPI DUP2 PUSH1 0x3 NOT CALLDATASIZE ADD SLT PUSH2 0x60D JUMPI PUSH1 0x20 SWAP1 PUSH1 0xFF PUSH1 0xCA SLOAD PUSH1 0x8 SHR AND SWAP1 MLOAD SWAP1 ISZERO ISZERO DUP2 MSTORE RETURN JUMPDEST POP POP CALLVALUE PUSH2 0x60D JUMPI DUP2 PUSH1 0x3 NOT CALLDATASIZE ADD SLT PUSH2 0x60D JUMPI PUSH2 0x24A5 PUSH2 0x56EE JUMP JUMPDEST PUSH2 0x14D DUP1 SLOAD NUMBER LT PUSH2 0x2675 JUMPI PUSH2 0x14C SLOAD NUMBER ADD SWAP1 SSTORE PUSH32 0xD3C59BDA47E141A8EC5A33D241B7F71B86E30D359F83A9227D912858B60404FC DUP3 DUP1 LOG1 PUSH2 0x137 SLOAD DUP3 PUSH2 0x24EA DUP3 PUSH2 0x4510 JUMP JUMPDEST SWAP2 DUP5 JUMPDEST DUP2 DUP2 LT PUSH2 0x25A6 JUMPI POP POP DUP1 PUSH2 0x2561 JUMPI JUMPDEST SWAP2 DUP1 MLOAD SWAP3 DUP2 DUP5 ADD SWAP1 DUP5 MSTORE PUSH1 0x20 SWAP2 DUP3 DUP6 ADD MSTORE DUP3 MLOAD DUP1 SWAP2 MSTORE DUP2 PUSH1 0x60 DUP6 ADD SWAP4 ADD SWAP2 DUP6 JUMPDEST DUP3 DUP2 LT PUSH2 0x254D JUMPI DUP7 PUSH32 0xAE5116A8119D08673A0F1DFA7546B95DA4BD54BB17FEDA7C61130AC7859152F6 DUP8 DUP8 SUB DUP9 LOG1 DUP1 RETURN JUMPDEST DUP4 MLOAD DUP6 MSTORE SWAP4 DUP2 ADD SWAP4 SWAP3 DUP2 ADD SWAP3 PUSH1 0x1 ADD PUSH2 0x251C JUMP JUMPDEST PUSH2 0x2578 PUSH8 0xDE0B6B3A7640000 SWAP2 PUSH2 0x139 SLOAD SWAP1 PUSH2 0x4436 JUMP JUMPDEST DIV PUSH2 0x131 PUSH2 0x2587 DUP3 DUP3 SLOAD PUSH2 0x4229 JUMP JUMPDEST SWAP1 SSTORE PUSH2 0x146 SLOAD PUSH2 0x25A1 SWAP1 DUP3 SWAP1 PUSH1 0x1 PUSH1 0x1 PUSH1 0xA0 SHL SUB AND PUSH2 0x40D3 JUMP JUMPDEST PUSH2 0x24FC JUMP JUMPDEST PUSH2 0x25AF DUP2 PUSH2 0x464D JUMP JUMPDEST PUSH2 0x25B9 DUP2 DUP4 PUSH2 0x4A34 JUMP JUMPDEST DUP7 PUSH2 0x150 SWAP2 DUP7 PUSH2 0x25C9 DUP6 DUP6 PUSH2 0x3A60 JUMP JUMPDEST SWAP1 SLOAD SWAP1 PUSH1 0x3 SHL SHR SWAP2 DUP4 DUP4 SGT PUSH2 0x25E6 JUMPI JUMPDEST POP POP POP POP POP PUSH1 0x1 ADD PUSH2 0x24ED JUMP JUMPDEST SWAP5 PUSH2 0x262B DUP4 DUP3 SWAP7 SWAP10 PUSH2 0x2631 SWAP5 PUSH2 0x2625 DUP6 PUSH2 0x2618 PUSH2 0x261E PUSH2 0x2648 SWAP11 PUSH1 0x1 SWAP15 PUSH8 0xDE0B6B3A7640000 SWAP4 DUP5 SWAP2 PUSH2 0x13A SLOAD PUSH2 0x4436 JUMP JUMPDEST DIV PUSH2 0x4436 JUMP JUMPDEST DIV SWAP3 PUSH2 0x4311 JUMP JUMPDEST MSTORE PUSH2 0x4304 JUMP JUMPDEST SWAP8 PUSH2 0x3A60 JUMP JUMPDEST DUP2 SWAP4 SWAP2 SLOAD SWAP1 PUSH1 0x3 SHL SWAP2 DUP3 SHL SWAP2 PUSH1 0x0 NOT SWAP1 SHL NOT AND OR SWAP1 JUMP JUMPDEST SWAP1 SSTORE PUSH2 0x266B PUSH2 0x2657 DUP3 DUP8 PUSH2 0x4311 JUMP JUMPDEST MLOAD DUP9 DUP5 DUP1 PUSH1 0xA0 SHL SUB PUSH2 0x147 SLOAD AND SWAP2 DUP5 PUSH2 0x4974 JUMP JUMPDEST SWAP1 DUP7 CODESIZE DUP7 DUP2 PUSH2 0x25D9 JUMP JUMPDEST DUP2 MLOAD PUSH4 0x101B6859 PUSH1 0xE0 SHL DUP2 MSTORE PUSH1 0x4 SWAP1 REVERT JUMPDEST DUP3 DUP5 CALLVALUE PUSH2 0x78B JUMPI DUP2 PUSH1 0x3 NOT CALLDATASIZE ADD SLT PUSH2 0x78B JUMPI PUSH1 0x1 PUSH1 0x1 PUSH1 0xA0 SHL SUB PUSH1 0x4 CALLDATALOAD DUP2 DUP2 AND DUP2 SUB PUSH2 0x6E1 JUMPI PUSH1 0x24 CALLDATALOAD SWAP2 PUSH2 0x14F SLOAD AND CALLER SUB PUSH2 0xA99 JUMPI SWAP1 PUSH2 0xA96 SWAP2 PUSH2 0x14E DUP3 DUP2 SLOAD SUB SWAP1 SSTORE PUSH2 0x40D3 JUMP JUMPDEST POP POP CALLVALUE PUSH2 0x60D JUMPI DUP2 PUSH1 0x3 NOT CALLDATASIZE ADD SLT PUSH2 0x60D JUMPI PUSH1 0x20 SWAP1 PUSH2 0x157 SLOAD SWAP1 MLOAD SWAP1 DUP2 MSTORE RETURN JUMPDEST DUP4 CALLVALUE PUSH2 0x78B JUMPI PUSH1 0x20 CALLDATASIZE PUSH1 0x3 NOT ADD SLT PUSH2 0x78B JUMPI PUSH2 0x2708 PUSH2 0x5660 JUMP JUMPDEST PUSH1 0x4 CALLDATALOAD PUSH2 0x143 SSTORE DUP1 RETURN JUMPDEST DUP3 DUP5 CALLVALUE PUSH2 0x78B JUMPI DUP2 PUSH1 0x3 NOT CALLDATASIZE ADD SLT PUSH2 0x78B JUMPI PUSH1 0x1 PUSH1 0x1 PUSH1 0xA0 SHL SUB PUSH1 0x4 CALLDATALOAD DUP2 DUP2 AND DUP2 SUB PUSH2 0x6E1 JUMPI DUP2 PUSH2 0x14F SLOAD AND CALLER SUB PUSH2 0xA99 JUMPI SWAP1 PUSH2 0xA96 SWAP2 PUSH1 0x24 CALLDATALOAD SWAP2 PUSH2 0x133 SLOAD AND PUSH2 0x5627 JUMP JUMPDEST DUP4 CALLVALUE PUSH2 0x78B JUMPI PUSH1 0x20 CALLDATASIZE PUSH1 0x3 NOT ADD SLT PUSH2 0x78B JUMPI PUSH1 0x4 CALLDATALOAD PUSH1 0x1 PUSH1 0x1 PUSH1 0xA0 SHL SUB DUP2 AND DUP2 SUB PUSH2 0x6E1 JUMPI PUSH2 0xA96 SWAP1 PUSH2 0x22DA PUSH2 0x5660 JUMP JUMPDEST DUP3 DUP5 CALLVALUE PUSH2 0x78B JUMPI DUP1 PUSH1 0x3 NOT CALLDATASIZE ADD SLT PUSH2 0x78B JUMPI POP PUSH32 0x0 PUSH1 0x1 PUSH1 0x1 PUSH1 0xA0 SHL SUB AND ADDRESS SUB PUSH2 0x27F4 JUMPI PUSH1 0x20 SWAP1 MLOAD PUSH32 0x360894A13BA1A3210667C828492DB98DCA3E2076CC3735A920A3CA505D382BBC DUP2 MSTORE RETURN JUMPDEST MLOAD PUSH3 0x461BCD PUSH1 0xE5 SHL DUP2 MSTORE PUSH1 0x20 PUSH1 0x4 DUP3 ADD MSTORE PUSH1 0x38 PUSH1 0x24 DUP3 ADD MSTORE PUSH32 0x555550535570677261646561626C653A206D757374206E6F742062652063616C PUSH1 0x44 DUP3 ADD MSTORE PUSH32 0x6C6564207468726F7567682064656C656761746563616C6C0000000000000000 PUSH1 0x64 DUP3 ADD MSTORE PUSH1 0x84 SWAP1 REVERT JUMPDEST DUP4 CALLVALUE PUSH2 0x78B JUMPI DUP1 PUSH1 0x3 NOT CALLDATASIZE ADD SLT PUSH2 0x78B JUMPI PUSH2 0x2876 PUSH2 0x5660 JUMP JUMPDEST PUSH1 0xFF NOT PUSH1 0xCA SLOAD AND PUSH1 0xCA SSTORE DUP1 RETURN JUMPDEST POP POP DUP1 PUSH1 0x3 NOT CALLDATASIZE ADD SLT PUSH2 0x60D JUMPI PUSH1 0x4 CALLDATALOAD SWAP1 PUSH1 0x1 PUSH1 0x1 PUSH1 0xA0 SHL SUB SWAP1 DUP2 DUP4 AND DUP4 SUB PUSH2 0x6E1 JUMPI DUP4 SWAP3 PUSH1 0x24 CALLDATALOAD SWAP3 PUSH8 0xFFFFFFFFFFFFFFFF DUP5 GT PUSH2 0x2375 JUMPI CALLDATASIZE PUSH1 0x23 DUP6 ADD SLT ISZERO PUSH2 0x2375 JUMPI DUP4 PUSH1 0x4 ADD CALLDATALOAD SWAP1 PUSH2 0x28E1 PUSH2 0x28D8 DUP4 PUSH2 0x3BE9 JUMP JUMPDEST SWAP5 MLOAD SWAP5 DUP6 PUSH2 0x3BB1 JUMP JUMPDEST DUP2 DUP5 MSTORE CALLDATASIZE PUSH1 0x24 DUP4 DUP8 ADD ADD GT PUSH2 0x296F JUMPI PUSH2 0xA96 SWAP6 PUSH1 0x20 DUP4 PUSH2 0x2962 SWAP5 PUSH1 0x24 PUSH1 0x1 SWAP10 ADD DUP4 DUP10 ADD CALLDATACOPY DUP7 ADD ADD MSTORE DUP1 PUSH32 0x0 AND SWAP1 PUSH2 0x2939 DUP3 ADDRESS EQ ISZERO PUSH2 0x3C2B JUMP JUMPDEST PUSH32 0x360894A13BA1A3210667C828492DB98DCA3E2076CC3735A920A3CA505D382BBC SLOAD AND EQ PUSH2 0x3C8C JUMP JUMPDEST PUSH2 0x296A PUSH2 0x5660 JUMP JUMPDEST PUSH2 0x3CED JUMP JUMPDEST DUP6 DUP1 REVERT JUMPDEST POP POP CALLVALUE PUSH2 0x60D JUMPI DUP2 PUSH1 0x3 NOT CALLDATASIZE ADD SLT PUSH2 0x60D JUMPI PUSH1 0x20 SWAP1 PUSH2 0x13B SLOAD SWAP1 MLOAD SWAP1 DUP2 MSTORE RETURN JUMPDEST POP POP CALLVALUE PUSH2 0x60D JUMPI DUP2 PUSH1 0x3 NOT CALLDATASIZE ADD SLT PUSH2 0x60D JUMPI PUSH2 0x147 SLOAD SWAP1 MLOAD PUSH1 0x1 PUSH1 0x1 PUSH1 0xA0 SHL SUB SWAP1 SWAP2 AND DUP2 MSTORE PUSH1 0x20 SWAP1 RETURN JUMPDEST POP POP CALLVALUE PUSH2 0x60D JUMPI DUP2 PUSH1 0x3 NOT CALLDATASIZE ADD SLT PUSH2 0x60D JUMPI PUSH1 0x20 SWAP1 PUSH2 0x14C SLOAD SWAP1 MLOAD SWAP1 DUP2 MSTORE RETURN JUMPDEST POP POP CALLVALUE PUSH2 0x60D JUMPI PUSH1 0x20 CALLDATASIZE PUSH1 0x3 NOT ADD SLT PUSH2 0x60D JUMPI PUSH1 0x4 CALLDATALOAD PUSH2 0x137 DUP1 SLOAD DUP3 LT ISZERO PUSH2 0x9BA JUMPI SWAP1 PUSH2 0x2A09 SWAP2 PUSH2 0x3B95 JUMP JUMPDEST POP DUP1 SLOAD PUSH1 0x1 SWAP1 SWAP2 ADD SLOAD DUP3 MLOAD SWAP2 DUP3 MSTORE PUSH1 0x1 PUSH1 0x1 PUSH1 0xA0 SHL SUB AND PUSH1 0x20 DUP3 ADD MSTORE RETURN JUMPDEST DUP4 SWAP2 POP CALLVALUE PUSH2 0x60D JUMPI CALLDATASIZE PUSH1 0x3 NOT ADD SLT PUSH2 0x78B JUMPI POP PUSH2 0x2A42 PUSH2 0x4FFB JUMP JUMPDEST POP PUSH2 0x14F SLOAD PUSH1 0x1 PUSH1 0x1 PUSH1 0xA0 SHL SUB SWAP1 DUP2 AND CALLER SUB PUSH2 0x1172 JUMPI PUSH2 0xCB8 PUSH2 0xCAE SWAP2 PUSH2 0x2A6A CALLDATASIZE PUSH1 0x4 PUSH2 0x55B4 JUMP JUMPDEST SWAP4 PUSH2 0x2A73 PUSH2 0x4FFB JUMP JUMPDEST POP PUSH2 0x2A7C PUSH2 0x4EE0 JUMP JUMPDEST PUSH2 0x2A84 PUSH2 0x56EE JUMP JUMPDEST PUSH2 0x1134 PUSH2 0xC4E DUP3 MLOAD PUSH4 0xD9B6C2E5 PUSH1 0xE0 SHL PUSH1 0x20 DUP3 ADD MSTORE PUSH2 0xC33 PUSH1 0x24 DUP3 ADD DUP10 PUSH2 0x4FAB JUMP JUMPDEST DUP3 DUP5 CALLVALUE PUSH2 0x78B JUMPI DUP2 PUSH1 0x3 NOT CALLDATASIZE ADD SLT PUSH2 0x78B JUMPI POP PUSH1 0x4 CALLDATALOAD PUSH1 0x1 PUSH1 0x1 PUSH1 0xA0 SHL SUB DUP2 DUP2 AND SWAP2 DUP3 SWAP1 SUB PUSH2 0x6E1 JUMPI PUSH1 0x24 CALLDATALOAD SWAP2 DUP2 DUP4 AND SWAP2 DUP3 DUP5 SUB PUSH2 0x6E1 JUMPI PUSH2 0x2B32 SWAP3 PUSH2 0x2AEA PUSH2 0x56EE JUMP JUMPDEST PUSH2 0x2AF3 ADDRESS PUSH2 0x4289 JUMP JUMPDEST SWAP1 DUP7 MLOAD SWAP4 PUSH4 0x2AB7831F PUSH1 0xE0 SHL PUSH1 0x20 DUP7 ADD MSTORE PUSH1 0x24 DUP6 ADD MSTORE CALLER PUSH1 0x44 DUP6 ADD MSTORE PUSH1 0x64 DUP5 ADD MSTORE PUSH1 0x84 DUP4 ADD MSTORE PUSH1 0x84 DUP3 MSTORE PUSH2 0x2B28 PUSH1 0xA4 DUP4 PUSH2 0x3BB1 JUMP JUMPDEST PUSH2 0x1F6 SLOAD AND PUSH2 0x4952 JUMP JUMPDEST SWAP2 PUSH1 0x20 DUP4 DUP1 MLOAD DUP2 ADD SUB SLT PUSH2 0x6E1 JUMPI PUSH2 0x6B1 PUSH1 0x20 DUP1 SWAP5 ADD MLOAD DUP1 SWAP4 PUSH2 0x40D3 JUMP JUMPDEST POP POP CALLVALUE PUSH2 0x60D JUMPI DUP2 PUSH1 0x3 NOT CALLDATASIZE ADD SLT PUSH2 0x60D JUMPI PUSH1 0x20 SWAP1 PUSH2 0x13E SLOAD SWAP1 MLOAD SWAP1 DUP2 MSTORE RETURN JUMPDEST POP POP CALLVALUE PUSH2 0x60D JUMPI DUP2 PUSH1 0x3 NOT CALLDATASIZE ADD SLT PUSH2 0x60D JUMPI PUSH1 0x20 SWAP1 PUSH2 0x816 PUSH2 0x2B9B PUSH2 0x2B93 PUSH2 0x4D1F JUMP JUMPDEST SWAP2 SWAP1 SWAP2 PUSH2 0x4325 JUMP JUMPDEST SWAP2 PUSH2 0x4B1A JUMP JUMPDEST POP POP CALLVALUE PUSH2 0x60D JUMPI DUP2 PUSH1 0x3 NOT CALLDATASIZE ADD SLT PUSH2 0x60D JUMPI PUSH1 0xCA SLOAD PUSH1 0xFF DUP2 PUSH1 0x8 SHR AND ISZERO PUSH2 0x2C9C JUMPI PUSH1 0x1 DUP1 PUSH1 0xA0 SHL SUB DUP1 DUP3 PUSH1 0x10 SHR AND CALLER EQ ISZERO SWAP1 DUP2 PUSH2 0x2C1C JUMPI JUMPDEST POP PUSH2 0x19B2 JUMPI PUSH1 0xFF DUP2 AND ISZERO PUSH2 0x19A1 JUMPI PUSH2 0xFF00 NOT AND PUSH1 0xCA SSTORE MLOAD CALLER DUP2 MSTORE PUSH32 0x5DB9EE0A495BF2E6FF9C91A7834C1BA4FDD244A5E8AA4E537BD38AEAE4B073AA SWAP1 PUSH1 0x20 SWAP1 LOG1 DUP1 RETURN JUMPDEST PUSH1 0x97 SLOAD DUP5 MLOAD PUSH4 0xD994D6D5 PUSH1 0xE0 SHL DUP2 MSTORE CALLER PUSH1 0x4 DUP3 ADD MSTORE SWAP3 POP PUSH1 0x20 SWAP2 DUP4 SWAP2 PUSH1 0x24 SWAP2 DUP4 SWAP2 AND GAS STATICCALL SWAP1 DUP2 ISZERO PUSH2 0x2C8F JUMPI DUP5 SWAP2 PUSH2 0x2C56 JUMPI JUMPDEST POP ISZERO CODESIZE PUSH2 0x2BD9 JUMP JUMPDEST SWAP1 POP PUSH1 0x20 DUP2 RETURNDATASIZE DUP3 GT PUSH2 0x2C87 JUMPI JUMPDEST DUP2 PUSH2 0x2C70 PUSH1 0x20 SWAP4 DUP4 PUSH2 0x3BB1 JUMP JUMPDEST DUP2 ADD SUB SLT PUSH2 0x9BA JUMPI PUSH2 0x2C81 SWAP1 PUSH2 0x412A JUMP JUMPDEST CODESIZE PUSH2 0x2C4E JUMP JUMPDEST RETURNDATASIZE SWAP2 POP PUSH2 0x2C63 JUMP JUMPDEST POP POP POP MLOAD SWAP1 RETURNDATASIZE SWAP1 DUP3 RETURNDATACOPY RETURNDATASIZE SWAP1 REVERT JUMPDEST DUP2 MLOAD PUSH4 0x7C7FD079 PUSH1 0xE0 SHL DUP2 MSTORE PUSH1 0x4 SWAP1 REVERT JUMPDEST DUP4 CALLVALUE PUSH2 0x78B JUMPI PUSH1 0x20 CALLDATASIZE PUSH1 0x3 NOT ADD SLT PUSH2 0x78B JUMPI PUSH1 0x4 CALLDATALOAD PUSH1 0x1 PUSH1 0x1 PUSH1 0xA0 SHL SUB DUP2 AND SWAP1 DUP2 SWAP1 SUB PUSH2 0x60D JUMPI PUSH2 0x2CDC PUSH2 0x5660 JUMP JUMPDEST PUSH2 0x14F DUP1 SLOAD PUSH1 0x1 PUSH1 0x1 PUSH1 0xA0 SHL SUB NOT AND SWAP1 SWAP2 OR SWAP1 SSTORE DUP1 RETURN JUMPDEST DUP4 CALLVALUE PUSH2 0x78B JUMPI PUSH1 0x20 CALLDATASIZE PUSH1 0x3 NOT ADD SLT PUSH2 0x78B JUMPI PUSH2 0x2D0D PUSH2 0x5660 JUMP JUMPDEST PUSH1 0x4 CALLDATALOAD PUSH2 0x190 SSTORE DUP1 RETURN JUMPDEST DUP4 DUP4 CALLVALUE PUSH2 0x60D JUMPI PUSH2 0x100 SWAP2 DUP3 PUSH1 0x3 NOT CALLDATASIZE ADD SLT PUSH2 0x78B JUMPI POP PUSH2 0x2D36 PUSH2 0x4FFB JUMP JUMPDEST POP PUSH2 0x14F SLOAD PUSH1 0x1 PUSH1 0x1 PUSH1 0xA0 SHL SUB SWAP3 SWAP1 DUP4 AND CALLER SUB PUSH2 0x1172 JUMPI PUSH2 0x2D59 DUP3 MLOAD SWAP2 DUP3 PUSH2 0x3BB1 JUMP JUMPDEST PUSH1 0x4 CALLDATALOAD DUP4 DUP2 AND DUP2 SUB PUSH2 0x6E1 JUMPI DUP2 MSTORE PUSH1 0x24 CALLDATALOAD DUP4 DUP2 AND DUP2 SUB PUSH2 0x6E1 JUMPI PUSH1 0x20 DUP3 ADD MSTORE PUSH1 0x44 CALLDATALOAD DUP3 DUP3 ADD MSTORE PUSH1 0x64 CALLDATALOAD PUSH1 0x60 DUP3 ADD MSTORE PUSH1 0x80 DUP2 ADD SWAP2 PUSH1 0x84 CALLDATALOAD DUP4 MSTORE PUSH1 0xA4 CALLDATALOAD SWAP1 DUP5 DUP3 AND DUP3 SUB PUSH2 0x6E1 JUMPI PUSH1 0xA0 DUP4 ADD SWAP2 DUP3 MSTORE PUSH1 0xC4 CALLDATALOAD DUP6 DUP2 AND DUP2 SUB PUSH2 0x6E1 JUMPI PUSH1 0xC0 DUP5 ADD MSTORE PUSH1 0xE4 CALLDATALOAD SWAP3 DUP6 DUP5 AND DUP5 SUB PUSH2 0x6E1 JUMPI DUP6 PUSH2 0xCB8 SWAP6 PUSH2 0x2E15 PUSH2 0xC4E PUSH2 0x8BC PUSH2 0xC43 DUP7 PUSH2 0x135A SWAP14 PUSH2 0xCAE SWAP9 ADD SWAP11 DUP12 MSTORE PUSH2 0x2DE9 PUSH2 0x4FFB JUMP JUMPDEST POP PUSH2 0x2DF2 PUSH2 0x4EE0 JUMP JUMPDEST PUSH2 0x2DFA PUSH2 0x56EE JUMP JUMPDEST DUP9 MLOAD PUSH4 0x70F090ED PUSH1 0xE1 SHL PUSH1 0x20 DUP3 ADD MSTORE SWAP3 DUP4 SWAP2 PUSH1 0x24 DUP4 ADD PUSH2 0x4F47 JUMP JUMPDEST SWAP9 SWAP3 DUP1 SWAP12 DUP11 SWAP7 SWAP4 SWAP14 SWAP3 SWAP10 DUP7 MLOAD PUSH2 0x134F PUSH2 0x14E SWAP2 DUP3 SLOAD PUSH2 0x4229 JUMP JUMPDEST POP POP CALLVALUE PUSH2 0x60D JUMPI PUSH1 0x20 CALLDATASIZE PUSH1 0x3 NOT ADD SLT PUSH2 0x60D JUMPI PUSH1 0x4 CALLDATALOAD SWAP2 PUSH2 0x138 SWAP1 DUP2 SLOAD DUP5 LT ISZERO PUSH2 0x78B JUMPI POP PUSH1 0x20 SWAP3 PUSH2 0x1A97 SWAP2 PUSH2 0x3A60 JUMP JUMPDEST POP POP CALLVALUE PUSH2 0x60D JUMPI PUSH1 0x20 CALLDATASIZE PUSH1 0x3 NOT ADD SLT PUSH2 0x60D JUMPI PUSH1 0x4 CALLDATALOAD SWAP1 PUSH1 0x1 PUSH1 0x1 PUSH1 0xA0 SHL SUB SWAP1 DUP2 DUP4 AND DUP4 SUB PUSH2 0x6E1 JUMPI PUSH2 0xA96 SWAP3 PUSH2 0x2EC2 DUP4 DUP7 SWAP5 PUSH32 0x0 AND SWAP1 PUSH2 0x2939 DUP3 ADDRESS EQ ISZERO PUSH2 0x3C2B JUMP JUMPDEST PUSH2 0x2ECA PUSH2 0x5660 JUMP JUMPDEST PUSH2 0x2EDF PUSH2 0x2ED6 DUP5 PUSH2 0x3BE9 JUMP JUMPDEST SWAP3 MLOAD SWAP3 DUP4 PUSH2 0x3BB1 JUMP JUMPDEST DUP3 DUP3 MSTORE PUSH1 0x1F NOT PUSH2 0x2EEE DUP5 PUSH2 0x3BE9 JUMP JUMPDEST ADD CALLDATASIZE PUSH1 0x20 DUP5 ADD CALLDATACOPY PUSH2 0x3CED JUMP JUMPDEST DUP3 DUP5 PUSH2 0x2F07 CALLDATASIZE PUSH1 0x4 PUSH2 0x3AA2 JUMP JUMPDEST SWAP7 SWAP5 PUSH2 0x2F17 SWAP9 SWAP2 SWAP4 SWAP5 SWAP3 SWAP9 PUSH2 0x4EE0 JUMP JUMPDEST PUSH2 0x2F1F PUSH2 0x56EE JUMP JUMPDEST PUSH2 0x2F2B DUP7 MLOAD SWAP3 DUP4 PUSH2 0x3BB1 JUMP JUMPDEST PUSH1 0x1 DUP1 PUSH1 0xA0 SHL SUB SWAP8 DUP9 DUP1 DUP1 SWAP4 AND SWAP6 DUP7 DUP6 MSTORE PUSH1 0x20 SWAP12 DUP7 DUP14 DUP8 ADD MSTORE DUP9 DUP11 DUP8 ADD MSTORE PUSH1 0x60 DUP7 ADD MSTORE CALLER PUSH1 0x80 DUP7 ADD MSTORE AND PUSH1 0xA0 DUP5 ADD MSTORE AND PUSH1 0xC0 DUP3 ADD MSTORE DUP8 PUSH2 0x2F88 PUSH1 0xE4 DUP10 PUSH2 0x14F SLOAD AND SWAP4 DUP9 MLOAD SWAP5 DUP6 SWAP4 DUP5 SWAP3 PUSH4 0xE4E1B729 PUSH1 0xE0 SHL DUP5 MSTORE PUSH1 0x4 DUP5 ADD SWAP1 PUSH2 0x4FAB JUMP JUMPDEST CALLVALUE SWAP1 GAS CALL SWAP6 DUP7 ISZERO PUSH2 0x2FEE JUMPI SWAP6 PUSH2 0x2FBB JUMPI JUMPDEST POP PUSH2 0x2FB2 SWAP1 PUSH2 0x6B1 SWAP5 SWAP6 SWAP7 PUSH2 0x133 SLOAD AND ADDRESS SWAP1 CALLER SWAP1 PUSH2 0x4E9C JUMP JUMPDEST ADDRESS SWAP1 CALLER SWAP1 PUSH2 0x4E9C JUMP JUMPDEST SWAP1 SWAP4 SWAP5 POP DUP7 DUP2 DUP2 RETURNDATASIZE DUP4 GT PUSH2 0x2FE7 JUMPI JUMPDEST PUSH2 0x2FD4 DUP2 DUP4 PUSH2 0x3BB1 JUMP JUMPDEST DUP2 ADD SUB SLT PUSH2 0x6E1 JUMPI MLOAD SWAP4 SWAP3 PUSH2 0x2FB2 PUSH2 0x2F99 JUMP JUMPDEST POP RETURNDATASIZE PUSH2 0x2FCA JUMP JUMPDEST DUP6 MLOAD SWAP1 RETURNDATASIZE SWAP1 DUP3 RETURNDATACOPY RETURNDATASIZE SWAP1 REVERT JUMPDEST POP POP CALLVALUE PUSH2 0x60D JUMPI DUP2 PUSH1 0x3 NOT CALLDATASIZE ADD SLT PUSH2 0x60D JUMPI PUSH2 0x3013 PUSH2 0x424C JUMP JUMPDEST PUSH2 0x301B PUSH2 0x56EE JUMP JUMPDEST PUSH2 0x14B DUP1 SLOAD PUSH1 0xFF DUP2 AND DUP1 PUSH2 0x30E6 JUMPI JUMPDEST DUP1 PUSH2 0x30CC JUMPI JUMPDEST PUSH2 0x3038 JUMPI DUP4 DUP1 RETURN JUMPDEST PUSH2 0xFF00 NOT AND PUSH2 0x100 OR SWAP1 SSTORE DUP1 MLOAD SWAP1 DUP3 SWAP1 PUSH32 0x8B77276C97A5709F0D6DB52329848A254EB760CE8BE80D281799F633BDB69E83 DUP3 DUP1 LOG1 PUSH2 0x133 SLOAD PUSH1 0x1 PUSH1 0x1 PUSH1 0xA0 SHL SUB AND DUP1 EXTCODESIZE ISZERO PUSH2 0x8E0 JUMPI DUP4 PUSH1 0x4 DUP2 DUP6 DUP1 SWAP5 PUSH4 0x8456CB59 PUSH1 0xE0 SHL DUP4 MSTORE GAS CALL SWAP1 DUP2 ISZERO PUSH2 0x30C1 JUMPI POP PUSH2 0x30B1 JUMPI JUMPDEST POP POP PUSH2 0x30AA PUSH2 0x4542 JUMP JUMPDEST CODESIZE DUP1 DUP1 DUP4 DUP1 RETURN JUMPDEST PUSH2 0x30BA SWAP2 PUSH2 0x3BB1 JUMP JUMPDEST CODESIZE DUP2 PUSH2 0x30A0 JUMP JUMPDEST MLOAD SWAP2 RETURNDATASIZE SWAP2 POP DUP3 RETURNDATACOPY RETURNDATASIZE SWAP1 REVERT JUMPDEST POP PUSH2 0x30DB PUSH2 0x1778 PUSH2 0xAE6 PUSH2 0x4714 JUMP JUMPDEST PUSH2 0x14A SLOAD LT ISZERO PUSH2 0x3030 JUMP JUMPDEST POP PUSH1 0xFF DUP2 PUSH1 0x8 SHR AND ISZERO PUSH2 0x302A JUMP JUMPDEST POP POP CALLVALUE PUSH2 0x60D JUMPI DUP2 PUSH1 0x3 NOT CALLDATASIZE ADD SLT PUSH2 0x60D JUMPI PUSH1 0x20 SWAP1 PUSH2 0x13F SLOAD SWAP1 MLOAD SWAP1 DUP2 MSTORE RETURN JUMPDEST DUP4 DUP4 DUP3 PUSH1 0x3 NOT CALLDATASIZE ADD SLT PUSH2 0x60D JUMPI PUSH1 0x1 PUSH1 0x1 PUSH1 0xA0 SHL SUB SWAP3 PUSH1 0x4 CALLDATALOAD DUP5 DUP2 AND SWAP1 DUP2 SWAP1 SUB PUSH2 0x9BA JUMPI PUSH1 0x24 CALLDATALOAD SWAP1 DUP6 DUP3 AND DUP1 SWAP3 SUB PUSH2 0x2375 JUMPI PUSH1 0x44 CALLDATALOAD SWAP2 PUSH1 0x84 CALLDATALOAD SWAP4 PUSH1 0xA4 CALLDATALOAD SWAP8 DUP1 DUP10 AND DUP1 SWAP10 SUB PUSH2 0x323B JUMPI PUSH1 0xC4 CALLDATALOAD DUP2 DUP2 AND DUP1 SWAP2 SUB PUSH2 0x3237 JUMPI SWAP1 PUSH2 0x31DB SWAP4 SWAP3 SWAP2 PUSH2 0x3178 PUSH2 0x4EE0 JUMP JUMPDEST PUSH2 0x3180 PUSH2 0x56EE JUMP JUMPDEST DUP9 MLOAD SWAP3 PUSH2 0x318F PUSH2 0x100 DUP6 PUSH2 0x3BB1 JUMP JUMPDEST DUP7 DUP5 MSTORE PUSH1 0x20 SWAP12 DUP13 SWAP6 DUP7 DUP7 ADD MSTORE DUP9 DUP12 DUP7 ADD MSTORE PUSH1 0x64 CALLDATALOAD PUSH1 0x60 DUP7 ADD MSTORE DUP10 PUSH1 0x80 DUP7 ADD MSTORE CALLER PUSH1 0xA0 DUP7 ADD MSTORE PUSH1 0xC0 DUP6 ADD MSTORE DUP4 ADD MSTORE PUSH2 0x14F SLOAD AND DUP8 MLOAD DUP1 DUP1 SWAP6 DUP2 SWAP5 PUSH4 0x34975A41 PUSH1 0xE0 SHL DUP4 MSTORE PUSH1 0x4 DUP4 ADD PUSH2 0x4F47 JUMP JUMPDEST SUB SWAP2 CALLVALUE SWAP1 GAS CALL SWAP6 DUP7 ISZERO PUSH2 0x2FEE JUMPI DUP1 SWAP7 PUSH2 0x3203 JUMPI JUMPDEST POP POP PUSH2 0x6B1 SWAP3 SWAP2 PUSH2 0x1C28 SWAP2 ADDRESS SWAP1 CALLER SWAP1 PUSH2 0x4E9C JUMP JUMPDEST SWAP1 SWAP2 SWAP6 POP DUP7 DUP3 DUP2 RETURNDATASIZE DUP4 GT PUSH2 0x3230 JUMPI JUMPDEST PUSH2 0x321C DUP2 DUP4 PUSH2 0x3BB1 JUMP JUMPDEST DUP2 ADD SUB SLT PUSH2 0x78B JUMPI POP MLOAD SWAP4 DUP2 PUSH2 0x1C28 PUSH2 0x31EF JUMP JUMPDEST POP RETURNDATASIZE PUSH2 0x3212 JUMP JUMPDEST DUP9 DUP1 REVERT JUMPDEST DUP8 DUP1 REVERT JUMPDEST DUP3 DUP5 PUSH2 0x324C CALLDATASIZE PUSH1 0x4 PUSH2 0x3B23 JUMP JUMPDEST SWAP2 PUSH2 0x3259 SWAP7 SWAP5 SWAP2 SWAP7 PUSH2 0x4EE0 JUMP JUMPDEST PUSH2 0x3261 PUSH2 0x56EE JUMP JUMPDEST PUSH2 0x32C5 PUSH1 0xC4 DUP7 MLOAD SWAP4 PUSH2 0x3274 PUSH1 0xC0 DUP7 PUSH2 0x3BB1 JUMP JUMPDEST PUSH1 0x1 DUP1 PUSH1 0xA0 SHL SUB DUP1 DUP1 SWAP3 AND SWAP7 DUP8 DUP8 MSTORE DUP2 PUSH1 0x20 SWAP13 DUP14 SWAP8 DUP12 DUP10 DUP12 ADD MSTORE DUP13 DUP11 ADD MSTORE CALLER PUSH1 0x60 DUP11 ADD MSTORE AND PUSH1 0x80 DUP9 ADD MSTORE AND PUSH1 0xA0 DUP7 ADD MSTORE PUSH2 0x14F SLOAD AND SWAP4 DUP8 MLOAD SWAP5 DUP6 SWAP4 DUP5 SWAP3 PUSH4 0x6426C5DB PUSH1 0xE1 SHL DUP5 MSTORE PUSH1 0x4 DUP5 ADD SWAP1 PUSH2 0x4F02 JUMP JUMPDEST CALLVALUE SWAP1 GAS CALL SWAP5 DUP6 ISZERO PUSH2 0x14AE JUMPI DUP1 SWAP6 PUSH2 0x32E7 JUMPI JUMPDEST POP POP SWAP1 PUSH2 0x6B1 SWAP2 ADDRESS SWAP1 CALLER SWAP1 PUSH2 0x4E9C JUMP JUMPDEST SWAP1 SWAP2 SWAP5 POP DUP6 DUP3 DUP2 RETURNDATASIZE DUP4 GT PUSH2 0x3314 JUMPI JUMPDEST PUSH2 0x3300 DUP2 DUP4 PUSH2 0x3BB1 JUMP JUMPDEST DUP2 ADD SUB SLT PUSH2 0x78B JUMPI POP MLOAD SWAP3 PUSH2 0x6B1 DUP7 PUSH2 0x32D7 JUMP JUMPDEST POP RETURNDATASIZE PUSH2 0x32F6 JUMP JUMPDEST POP POP CALLVALUE PUSH2 0x60D JUMPI DUP2 PUSH1 0x3 NOT CALLDATASIZE ADD SLT PUSH2 0x60D JUMPI PUSH1 0x20 SWAP1 PUSH2 0x143 SLOAD SWAP1 MLOAD SWAP1 DUP2 MSTORE RETURN JUMPDEST DUP4 CALLVALUE PUSH2 0x78B JUMPI PUSH1 0x20 CALLDATASIZE PUSH1 0x3 NOT ADD SLT PUSH2 0x78B JUMPI PUSH1 0x4 CALLDATALOAD PUSH1 0x1 PUSH1 0x1 PUSH1 0xA0 SHL SUB DUP2 AND DUP2 SUB PUSH2 0x60D JUMPI PUSH2 0x3368 PUSH2 0x5660 JUMP JUMPDEST PUSH1 0xCA DUP1 SLOAD PUSH3 0x10000 PUSH1 0x1 PUSH1 0xB0 SHL SUB NOT AND PUSH1 0x10 SWAP3 SWAP1 SWAP3 SHL PUSH3 0x10000 PUSH1 0x1 PUSH1 0xB0 SHL SUB AND SWAP2 SWAP1 SWAP2 OR SWAP1 SSTORE DUP1 RETURN JUMPDEST DUP4 CALLVALUE PUSH2 0x78B JUMPI PUSH1 0x20 CALLDATASIZE PUSH1 0x3 NOT ADD SLT PUSH2 0x78B JUMPI PUSH2 0x33AC PUSH2 0x5660 JUMP JUMPDEST PUSH1 0x4 CALLDATALOAD PUSH2 0x14A SSTORE DUP1 RETURN JUMPDEST POP POP CALLVALUE PUSH2 0x60D JUMPI DUP2 PUSH1 0x3 NOT CALLDATASIZE ADD SLT PUSH2 0x60D JUMPI PUSH1 0x20 SWAP1 PUSH2 0x140 SLOAD SWAP1 MLOAD SWAP1 DUP2 MSTORE RETURN JUMPDEST DUP4 CALLVALUE PUSH2 0x78B JUMPI PUSH1 0x20 CALLDATASIZE PUSH1 0x3 NOT ADD SLT PUSH2 0x78B JUMPI PUSH1 0x4 CALLDATALOAD PUSH1 0x1 PUSH1 0x1 PUSH1 0xA0 SHL SUB DUP2 AND SWAP1 DUP2 SWAP1 SUB PUSH2 0x60D JUMPI PUSH2 0x3405 PUSH2 0x5660 JUMP JUMPDEST PUSH2 0x147 DUP1 SLOAD PUSH1 0x1 PUSH1 0x1 PUSH1 0xA0 SHL SUB NOT AND SWAP1 SWAP2 OR SWAP1 SSTORE DUP1 RETURN JUMPDEST POP POP CALLVALUE PUSH2 0x60D JUMPI DUP2 PUSH1 0x3 NOT CALLDATASIZE ADD SLT PUSH2 0x60D JUMPI PUSH2 0x229 SLOAD SWAP1 MLOAD PUSH1 0x1 PUSH1 0x1 PUSH1 0xA0 SHL SUB SWAP1 SWAP2 AND DUP2 MSTORE PUSH1 0x20 SWAP1 RETURN JUMPDEST POP POP CALLVALUE PUSH2 0x60D JUMPI PUSH1 0x20 CALLDATASIZE PUSH1 0x3 NOT ADD SLT PUSH2 0x60D JUMPI PUSH1 0x4 CALLDATALOAD PUSH1 0x1 PUSH1 0x1 PUSH1 0xA0 SHL SUB DUP2 AND SWAP1 DUP2 SWAP1 SUB PUSH2 0x8E0 JUMPI DUP3 DUP3 SWAP2 PUSH1 0x20 SWAP5 MSTORE PUSH2 0x144 DUP5 MSTORE KECCAK256 SLOAD SWAP1 MLOAD SWAP1 DUP2 MSTORE RETURN JUMPDEST POP POP CALLVALUE PUSH2 0x60D JUMPI DUP2 PUSH1 0x3 NOT CALLDATASIZE ADD SLT PUSH2 0x60D JUMPI PUSH1 0x20 SWAP1 PUSH1 0xFF PUSH2 0x14B SLOAD PUSH1 0x8 SHR AND SWAP1 MLOAD SWAP1 ISZERO ISZERO DUP2 MSTORE RETURN JUMPDEST POP POP CALLVALUE PUSH2 0x60D JUMPI PUSH1 0xA0 CALLDATASIZE PUSH1 0x3 NOT ADD SLT PUSH2 0x60D JUMPI PUSH2 0x34C6 PUSH2 0x4FFB JUMP JUMPDEST POP PUSH2 0x14F SLOAD PUSH1 0x1 PUSH1 0x1 PUSH1 0xA0 SHL SUB SWAP3 SWAP1 DUP4 AND CALLER SUB PUSH2 0x1172 JUMPI SWAP1 PUSH2 0x3557 SWAP2 PUSH2 0x34ED CALLDATASIZE PUSH1 0x4 PUSH2 0x5022 JUMP JUMPDEST SWAP2 PUSH2 0x34F6 PUSH2 0x4FFB JUMP JUMPDEST POP PUSH2 0x34FF PUSH2 0x4EE0 JUMP JUMPDEST PUSH2 0x3507 PUSH2 0x56EE JUMP JUMPDEST PUSH8 0xDE0B6B3A7640000 PUSH2 0x352A PUSH2 0xF38 PUSH2 0x3521 PUSH2 0x155F PUSH2 0x4714 JUMP JUMPDEST DUP8 MLOAD SWAP3 SWAP2 PUSH2 0x4AE6 JUMP JUMPDEST DIV SWAP5 DUP2 DUP5 ADD SWAP1 DUP1 DUP3 MLOAD AND SWAP2 PUSH2 0x354C PUSH1 0x80 DUP8 ADD SWAP4 DUP10 DUP5 DUP7 MLOAD AND PUSH2 0x13C SLOAD SWAP3 PUSH2 0x50C2 JUMP JUMPDEST SWAP7 SWAP2 DUP11 SWAP10 SWAP2 SWAP10 PUSH2 0x4304 JUMP JUMPDEST SWAP7 PUSH1 0x20 DUP2 ADD SWAP10 DUP11 MLOAD DUP1 DUP11 GT PUSH2 0x3680 JUMPI POP DUP9 ISZERO PUSH2 0x366F JUMPI DUP2 PUSH1 0x20 SWAP2 DUP7 PUSH1 0x60 PUSH2 0x35DA SWAP7 SWAP6 MLOAD SWAP4 ADD MLOAD AND SWAP1 PUSH2 0x134 PUSH2 0x358D DUP5 DUP3 SLOAD PUSH2 0x4304 JUMP JUMPDEST SWAP1 SSTORE PUSH2 0x359D PUSH2 0x131 SWAP2 DUP3 SLOAD PUSH2 0x4304 JUMP JUMPDEST SWAP1 SSTORE PUSH2 0x133 SLOAD DUP10 MLOAD PUSH4 0x40C10F19 PUSH1 0xE0 SHL DUP2 MSTORE PUSH1 0x1 PUSH1 0x1 PUSH1 0xA0 SHL SUB SWAP1 SWAP3 AND PUSH1 0x4 DUP4 ADD MSTORE PUSH1 0x24 DUP3 ADD SWAP3 SWAP1 SWAP3 MSTORE SWAP4 DUP5 SWAP2 DUP8 AND SWAP1 DUP3 SWAP1 DUP6 SWAP1 DUP3 SWAP1 PUSH1 0x44 DUP3 ADD SWAP1 JUMP JUMPDEST SUB SWAP3 GAS CALL DUP1 ISZERO PUSH2 0x3663 JUMPI PUSH2 0x360D JUMPI JUMPDEST POP POP SWAP7 PUSH2 0x100C SWAP3 DUP3 PUSH2 0x135A DUP9 DUP9 SWAP6 PUSH2 0xCB8 SWAP11 SWAP12 SWAP13 DUP7 MLOAD PUSH2 0x134F PUSH2 0x14E SWAP2 DUP3 SLOAD PUSH2 0x4229 JUMP JUMPDEST PUSH1 0x20 DUP3 RETURNDATASIZE DUP3 GT PUSH2 0x365B JUMPI JUMPDEST DUP2 PUSH2 0x3625 PUSH1 0x20 SWAP4 DUP4 PUSH2 0x3BB1 JUMP JUMPDEST DUP2 ADD SUB SLT PUSH2 0x78B JUMPI POP SWAP3 DUP3 PUSH2 0x135A DUP9 DUP9 SWAP6 PUSH2 0xCB8 SWAP11 SWAP12 SWAP13 SWAP6 PUSH2 0x3649 PUSH2 0x100C SWAP10 PUSH2 0x412A JUMP JUMPDEST POP SWAP6 SWAP13 SWAP12 POP SWAP6 POP SWAP9 POP POP DUP2 SWAP5 POP PUSH2 0x35E9 JUMP JUMPDEST RETURNDATASIZE SWAP2 POP PUSH2 0x3618 JUMP JUMPDEST POP DUP6 MLOAD SWAP1 RETURNDATASIZE SWAP1 DUP3 RETURNDATACOPY RETURNDATASIZE SWAP1 REVERT JUMPDEST DUP7 MLOAD PUSH4 0xF3E39B5D PUSH1 0xE0 SHL DUP2 MSTORE PUSH1 0x4 SWAP1 REVERT JUMPDEST PUSH1 0x44 SWAP1 DUP11 DUP10 MLOAD SWAP2 PUSH4 0xB63F1A7 PUSH1 0xE0 SHL DUP4 MSTORE PUSH1 0x4 DUP4 ADD MSTORE PUSH1 0x24 DUP3 ADD MSTORE REVERT JUMPDEST DUP4 CALLVALUE PUSH2 0x78B JUMPI PUSH1 0x20 CALLDATASIZE PUSH1 0x3 NOT ADD SLT PUSH2 0x78B JUMPI PUSH2 0x36B7 PUSH2 0x5660 JUMP JUMPDEST PUSH1 0x4 CALLDATALOAD PUSH2 0x142 SSTORE DUP1 RETURN JUMPDEST DUP4 CALLVALUE PUSH2 0x78B JUMPI PUSH1 0x20 CALLDATASIZE PUSH1 0x3 NOT ADD SLT PUSH2 0x78B JUMPI PUSH1 0x4 CALLDATALOAD DUP1 ISZERO ISZERO DUP1 SWAP2 SUB PUSH2 0x60D JUMPI PUSH2 0x36E8 PUSH2 0x5660 JUMP JUMPDEST PUSH2 0x14B SWAP1 PUSH1 0xFF DUP1 NOT DUP4 SLOAD AND SWAP2 AND OR SWAP1 SSTORE DUP1 RETURN JUMPDEST POP POP CALLVALUE PUSH2 0x60D JUMPI DUP2 PUSH1 0x3 NOT CALLDATASIZE ADD SLT PUSH2 0x60D JUMPI PUSH1 0x20 SWAP1 PUSH2 0x816 PUSH2 0x371E PUSH2 0xAE6 PUSH2 0x4714 JUMP JUMPDEST SWAP1 PUSH2 0x4AE6 JUMP JUMPDEST POP POP CALLVALUE PUSH2 0x60D JUMPI DUP2 PUSH1 0x3 NOT CALLDATASIZE ADD SLT PUSH2 0x60D JUMPI PUSH1 0x20 SWAP1 PUSH2 0x14D SLOAD SWAP1 MLOAD SWAP1 DUP2 MSTORE RETURN JUMPDEST DUP4 DUP4 PUSH1 0xE4 PUSH2 0x37D0 PUSH2 0x3756 CALLDATASIZE PUSH1 0x4 PUSH2 0x3AA2 JUMP JUMPDEST SWAP5 PUSH2 0x3766 SWAP11 SWAP5 SWAP7 SWAP3 SWAP8 SWAP2 SWAP11 PUSH2 0x4EE0 JUMP JUMPDEST PUSH2 0x376E PUSH2 0x56EE JUMP JUMPDEST PUSH2 0x377A DUP10 MLOAD SWAP6 DUP7 PUSH2 0x3BB1 JUMP JUMPDEST PUSH1 0x1 DUP1 PUSH1 0xA0 SHL SUB DUP1 DUP1 SWAP3 AND SWAP7 DUP8 DUP8 MSTORE DUP2 PUSH1 0x20 SWAP14 DUP15 SWAP8 DUP12 DUP10 DUP12 ADD MSTORE DUP14 DUP11 ADD MSTORE DUP12 PUSH1 0x60 DUP11 ADD MSTORE CALLER PUSH1 0x80 DUP11 ADD MSTORE AND PUSH1 0xA0 DUP9 ADD MSTORE AND PUSH1 0xC0 DUP7 ADD MSTORE PUSH2 0x14F SLOAD AND SWAP4 DUP9 MLOAD SWAP5 DUP6 SWAP4 DUP5 SWAP3 PUSH3 0x637447 PUSH1 0xE1 SHL DUP5 MSTORE PUSH1 0x4 DUP5 ADD SWAP1 PUSH2 0x4FAB JUMP JUMPDEST CALLVALUE SWAP1 GAS CALL SWAP6 DUP7 ISZERO PUSH2 0x2FEE JUMPI DUP1 SWAP7 PUSH2 0x3203 JUMPI POP POP PUSH2 0x6B1 SWAP3 SWAP2 PUSH2 0x1C28 SWAP2 ADDRESS SWAP1 CALLER SWAP1 PUSH2 0x4E9C JUMP JUMPDEST POP POP CALLVALUE PUSH2 0x60D JUMPI DUP2 PUSH1 0x3 NOT CALLDATASIZE ADD SLT PUSH2 0x60D JUMPI PUSH2 0x14F SLOAD SWAP1 MLOAD PUSH1 0x1 PUSH1 0x1 PUSH1 0xA0 SHL SUB SWAP1 SWAP2 AND DUP2 MSTORE PUSH1 0x20 SWAP1 RETURN JUMPDEST DUP4 CALLVALUE PUSH2 0x78B JUMPI PUSH1 0x20 CALLDATASIZE PUSH1 0x3 NOT ADD SLT PUSH2 0x78B JUMPI PUSH1 0x4 CALLDATALOAD PUSH1 0x1 PUSH1 0x1 PUSH1 0xA0 SHL SUB DUP2 AND SWAP1 DUP2 SWAP1 SUB PUSH2 0x60D JUMPI PUSH2 0x384E PUSH2 0x5660 JUMP JUMPDEST PUSH2 0x130 DUP1 SLOAD PUSH1 0x1 PUSH1 0x1 PUSH1 0xA0 SHL SUB NOT AND SWAP1 SWAP2 OR SWAP1 SSTORE DUP1 RETURN JUMPDEST DUP4 CALLVALUE PUSH2 0x78B JUMPI PUSH1 0x20 CALLDATASIZE PUSH1 0x3 NOT ADD SLT PUSH2 0x78B JUMPI PUSH2 0x387F PUSH2 0x5660 JUMP JUMPDEST PUSH1 0x4 CALLDATALOAD PUSH2 0x13F SSTORE DUP1 RETURN JUMPDEST POP POP CALLVALUE PUSH2 0x60D JUMPI DUP2 PUSH1 0x3 NOT CALLDATASIZE ADD SLT PUSH2 0x60D JUMPI PUSH1 0x20 SWAP1 PUSH2 0x159 SLOAD SWAP1 MLOAD SWAP1 DUP2 MSTORE RETURN JUMPDEST DUP4 CALLVALUE PUSH2 0x78B JUMPI PUSH1 0x20 CALLDATASIZE PUSH1 0x3 NOT ADD SLT PUSH2 0x78B JUMPI PUSH1 0x4 CALLDATALOAD PUSH1 0x1 PUSH1 0x1 PUSH1 0xA0 SHL SUB DUP2 AND SWAP1 DUP2 SWAP1 SUB PUSH2 0x60D JUMPI PUSH2 0x38D8 PUSH2 0x5660 JUMP JUMPDEST PUSH2 0x146 DUP1 SLOAD PUSH1 0x1 PUSH1 0x1 PUSH1 0xA0 SHL SUB NOT AND SWAP1 SWAP2 OR SWAP1 SSTORE DUP1 RETURN JUMPDEST POP POP CALLVALUE PUSH2 0x60D JUMPI DUP2 PUSH1 0x3 NOT CALLDATASIZE ADD SLT PUSH2 0x60D JUMPI PUSH1 0x20 SWAP1 PUSH2 0x18F SLOAD SWAP1 MLOAD SWAP1 DUP2 MSTORE RETURN JUMPDEST POP POP CALLVALUE PUSH2 0x60D JUMPI DUP2 PUSH1 0x3 NOT CALLDATASIZE ADD SLT PUSH2 0x60D JUMPI PUSH1 0x97 SLOAD SWAP1 MLOAD PUSH1 0x1 PUSH1 0x1 PUSH1 0xA0 SHL SUB SWAP1 SWAP2 AND DUP2 MSTORE PUSH1 0x20 SWAP1 RETURN JUMPDEST DUP4 CALLVALUE PUSH2 0x78B JUMPI PUSH1 0x20 CALLDATASIZE PUSH1 0x3 NOT ADD SLT PUSH2 0x78B JUMPI PUSH2 0x3952 PUSH2 0x5660 JUMP JUMPDEST PUSH1 0x4 CALLDATALOAD PUSH2 0x15A SSTORE DUP1 RETURN JUMPDEST POP POP CALLVALUE PUSH2 0x60D JUMPI DUP2 PUSH1 0x3 NOT CALLDATASIZE ADD SLT PUSH2 0x60D JUMPI PUSH2 0x3976 PUSH2 0x56EE JUMP JUMPDEST PUSH2 0x15B DUP1 SLOAD NUMBER LT PUSH2 0x39E4 JUMPI SWAP1 PUSH2 0xA96 SWAP2 PUSH2 0x15A SLOAD NUMBER ADD SWAP1 SSTORE PUSH32 0xE37FDA283839477A1B77E29ACF8336C0E13A5DAA967913DF0FE5AD258C0822F PUSH1 0x20 PUSH8 0xDE0B6B3A7640000 PUSH2 0x39CB PUSH2 0x131 SLOAD PUSH2 0x159 SLOAD SWAP1 PUSH2 0x4436 JUMP JUMPDEST DIV SWAP3 MLOAD DUP4 DUP2 MSTORE LOG1 PUSH2 0x158 SLOAD PUSH1 0x1 PUSH1 0x1 PUSH1 0xA0 SHL SUB AND PUSH2 0x40D3 JUMP JUMPDEST DUP2 MLOAD PUSH4 0xACCE20E5 PUSH1 0xE0 SHL DUP2 MSTORE PUSH1 0x4 SWAP1 REVERT JUMPDEST POP POP CALLVALUE PUSH2 0x60D JUMPI PUSH1 0x20 CALLDATASIZE PUSH1 0x3 NOT ADD SLT PUSH2 0x60D JUMPI PUSH1 0x4 CALLDATALOAD SWAP2 PUSH2 0x135 SWAP1 DUP2 SLOAD DUP5 LT ISZERO PUSH2 0x78B JUMPI POP PUSH1 0x20 SWAP3 PUSH2 0x3A26 SWAP2 PUSH2 0x3A60 JUMP JUMPDEST SWAP1 SLOAD SWAP2 MLOAD SWAP2 PUSH1 0x1 DUP1 PUSH1 0xA0 SHL SUB SWAP2 PUSH1 0x3 SHL SHR AND DUP2 MSTORE RETURN JUMPDEST DUP4 CALLVALUE PUSH2 0x78B JUMPI PUSH1 0x20 CALLDATASIZE PUSH1 0x3 NOT ADD SLT PUSH2 0x78B JUMPI PUSH2 0x3A56 PUSH2 0x5660 JUMP JUMPDEST PUSH1 0x4 CALLDATALOAD PUSH2 0x13A SSTORE DUP1 RETURN JUMPDEST DUP1 SLOAD DUP3 LT ISZERO PUSH2 0x3A78 JUMPI PUSH1 0x0 MSTORE PUSH1 0x20 PUSH1 0x0 KECCAK256 ADD SWAP1 PUSH1 0x0 SWAP1 JUMP JUMPDEST PUSH4 0x4E487B71 PUSH1 0xE0 SHL PUSH1 0x0 MSTORE PUSH1 0x32 PUSH1 0x4 MSTORE PUSH1 0x24 PUSH1 0x0 REVERT JUMPDEST CALLDATALOAD SWAP1 PUSH1 0x1 PUSH1 0x1 PUSH1 0xA0 SHL SUB DUP3 AND DUP3 SUB PUSH2 0x6E1 JUMPI JUMP JUMPDEST SWAP2 SWAP1 DUP3 PUSH1 0xC0 SWAP2 SUB SLT PUSH2 0x6E1 JUMPI PUSH2 0x3AB7 DUP3 PUSH2 0x3A8E JUMP JUMPDEST SWAP2 PUSH1 0x20 DUP2 ADD CALLDATALOAD SWAP2 PUSH1 0x40 DUP3 ADD CALLDATALOAD SWAP2 PUSH1 0x60 DUP2 ADD CALLDATALOAD SWAP2 PUSH2 0x3AE2 PUSH1 0xA0 PUSH2 0x3ADB PUSH1 0x80 DUP6 ADD PUSH2 0x3A8E JUMP JUMPDEST SWAP4 ADD PUSH2 0x3A8E JUMP JUMPDEST SWAP1 JUMP JUMPDEST PUSH1 0x40 SWAP1 PUSH2 0x3B21 SWAP4 SWAP6 SWAP5 SWAP3 SWAP6 PUSH1 0xC0 DUP3 ADD SWAP7 DUP3 MSTORE PUSH1 0x20 DUP3 ADD MSTORE ADD SWAP1 PUSH1 0x60 DUP1 SWAP2 DUP1 MLOAD DUP5 MSTORE PUSH1 0x20 DUP2 ADD MLOAD PUSH1 0x20 DUP6 ADD MSTORE PUSH1 0x40 DUP2 ADD MLOAD PUSH1 0x40 DUP6 ADD MSTORE ADD MLOAD SWAP2 ADD MSTORE JUMP JUMPDEST JUMP JUMPDEST SWAP1 DUP2 PUSH1 0xA0 SWAP2 SUB SLT PUSH2 0x6E1 JUMPI PUSH2 0x3B37 DUP2 PUSH2 0x3A8E JUMP JUMPDEST SWAP2 PUSH1 0x20 DUP3 ADD CALLDATALOAD SWAP2 PUSH1 0x40 DUP2 ADD CALLDATALOAD SWAP2 PUSH2 0x3AE2 PUSH1 0x80 PUSH2 0x3ADB PUSH1 0x60 DUP6 ADD PUSH2 0x3A8E JUMP JUMPDEST PUSH2 0x3B21 SWAP4 PUSH1 0x60 SWAP3 SWAP7 SWAP6 SWAP4 PUSH1 0xE0 DUP4 ADD SWAP8 DUP4 MSTORE PUSH1 0x20 DUP4 ADD MSTORE PUSH1 0x40 DUP3 ADD MSTORE ADD SWAP1 PUSH1 0x60 DUP1 SWAP2 DUP1 MLOAD DUP5 MSTORE PUSH1 0x20 DUP2 ADD MLOAD PUSH1 0x20 DUP6 ADD MSTORE PUSH1 0x40 DUP2 ADD MLOAD PUSH1 0x40 DUP6 ADD MSTORE ADD MLOAD SWAP2 ADD MSTORE JUMP JUMPDEST DUP1 SLOAD DUP3 LT ISZERO PUSH2 0x3A78 JUMPI PUSH1 0x0 MSTORE PUSH1 0x20 PUSH1 0x0 KECCAK256 SWAP1 PUSH1 0x1 SHL ADD SWAP1 PUSH1 0x0 SWAP1 JUMP JUMPDEST SWAP1 PUSH1 0x1F DUP1 NOT SWAP2 ADD AND DUP2 ADD SWAP1 DUP2 LT PUSH8 0xFFFFFFFFFFFFFFFF DUP3 GT OR PUSH2 0x3BD3 JUMPI PUSH1 0x40 MSTORE JUMP JUMPDEST PUSH4 0x4E487B71 PUSH1 0xE0 SHL PUSH1 0x0 MSTORE PUSH1 0x41 PUSH1 0x4 MSTORE PUSH1 0x24 PUSH1 0x0 REVERT JUMPDEST PUSH8 0xFFFFFFFFFFFFFFFF DUP2 GT PUSH2 0x3BD3 JUMPI PUSH1 0x1F ADD PUSH1 0x1F NOT AND PUSH1 0x20 ADD SWAP1 JUMP JUMPDEST SWAP2 SWAP1 DUP3 PUSH1 0x80 SWAP2 SUB SLT PUSH2 0x6E1 JUMPI DUP2 CALLDATALOAD SWAP2 PUSH1 0x20 DUP2 ADD CALLDATALOAD SWAP2 PUSH2 0x3AE2 PUSH1 0x60 PUSH2 0x3ADB PUSH1 0x40 DUP6 ADD PUSH2 0x3A8E JUMP JUMPDEST ISZERO PUSH2 0x3C32 JUMPI JUMP JUMPDEST PUSH1 0x40 MLOAD PUSH3 0x461BCD PUSH1 0xE5 SHL DUP2 MSTORE PUSH1 0x20 PUSH1 0x4 DUP3 ADD MSTORE PUSH1 0x2C PUSH1 0x24 DUP3 ADD MSTORE PUSH32 0x46756E6374696F6E206D7573742062652063616C6C6564207468726F75676820 PUSH1 0x44 DUP3 ADD MSTORE PUSH12 0x19195B1959D85D1958D85B1B PUSH1 0xA2 SHL PUSH1 0x64 DUP3 ADD MSTORE PUSH1 0x84 SWAP1 REVERT JUMPDEST ISZERO PUSH2 0x3C93 JUMPI JUMP JUMPDEST PUSH1 0x40 MLOAD PUSH3 0x461BCD PUSH1 0xE5 SHL DUP2 MSTORE PUSH1 0x20 PUSH1 0x4 DUP3 ADD MSTORE PUSH1 0x2C PUSH1 0x24 DUP3 ADD MSTORE PUSH32 0x46756E6374696F6E206D7573742062652063616C6C6564207468726F75676820 PUSH1 0x44 DUP3 ADD MSTORE PUSH12 0x6163746976652070726F7879 PUSH1 0xA0 SHL PUSH1 0x64 DUP3 ADD MSTORE PUSH1 0x84 SWAP1 REVERT JUMPDEST SWAP1 PUSH1 0xFF PUSH32 0x4910FDFA16FED3260ED0E7147F7CC6DA11A60208B5B9406D12A635614FFD9143 SLOAD AND PUSH1 0x0 EQ PUSH2 0x3D25 JUMPI POP PUSH2 0x3B21 SWAP2 POP PUSH2 0x3ED9 JUMP JUMPDEST PUSH1 0x40 MLOAD PUSH4 0x52D1902D PUSH1 0xE0 SHL DUP2 MSTORE PUSH1 0x20 SWAP4 SWAP2 SWAP3 SWAP2 SWAP1 PUSH1 0x1 PUSH1 0x1 PUSH1 0xA0 SHL SUB DUP4 AND SWAP1 DUP6 DUP2 PUSH1 0x4 DUP2 DUP6 GAS STATICCALL PUSH1 0x0 SWAP2 DUP2 PUSH2 0x3EAA JUMPI JUMPDEST POP PUSH2 0x3DB6 JUMPI PUSH1 0x40 MLOAD PUSH3 0x461BCD PUSH1 0xE5 SHL DUP2 MSTORE PUSH1 0x4 DUP2 ADD DUP8 SWAP1 MSTORE PUSH1 0x2E PUSH1 0x24 DUP3 ADD MSTORE PUSH32 0x45524331393637557067726164653A206E657720696D706C656D656E74617469 PUSH1 0x44 DUP3 ADD MSTORE PUSH14 0x6F6E206973206E6F742055555053 PUSH1 0x90 SHL PUSH1 0x64 DUP3 ADD MSTORE PUSH1 0x84 SWAP1 REVERT JUMPDEST SWAP4 SWAP5 SWAP4 PUSH32 0xC9F76B5EC45E5CDEF99837D7B6D2467235C1DF8933C8CA56DF5C35AFA2C7D444 ADD PUSH2 0x3E53 JUMPI PUSH2 0x3DE8 DUP4 PUSH2 0x3ED9 JUMP JUMPDEST PUSH32 0xBC7CD75A20EE27FD9ADEBAB32041F755214DBC6BFFA90CC0225B39DA2E5C2D3B PUSH1 0x0 DUP1 LOG2 DUP4 MLOAD ISZERO SWAP1 DUP2 ISZERO SWAP2 PUSH2 0x3E4B JUMPI JUMPDEST POP PUSH2 0x3E23 JUMPI POP POP POP JUMP JUMPDEST PUSH1 0x0 DUP1 PUSH2 0x3E48 SWAP5 PUSH2 0x3E32 PUSH2 0x3F7B JUMP JUMPDEST SWAP5 DUP2 MLOAD SWAP2 ADD DUP5 GAS DELEGATECALL PUSH2 0x3E42 PUSH2 0x3FCF JUMP JUMPDEST SWAP2 PUSH2 0x3FFF JUMP JUMPDEST POP JUMP JUMPDEST SWAP1 POP CODESIZE PUSH2 0x3E19 JUMP JUMPDEST PUSH1 0x40 MLOAD PUSH3 0x461BCD PUSH1 0xE5 SHL DUP2 MSTORE PUSH1 0x4 DUP2 ADD DUP6 SWAP1 MSTORE PUSH1 0x29 PUSH1 0x24 DUP3 ADD MSTORE PUSH32 0x45524331393637557067726164653A20756E737570706F727465642070726F78 PUSH1 0x44 DUP3 ADD MSTORE PUSH9 0x1A58589B1955555251 PUSH1 0xBA SHL PUSH1 0x64 DUP3 ADD MSTORE PUSH1 0x84 SWAP1 REVERT JUMPDEST SWAP1 SWAP2 DUP8 DUP3 DUP2 RETURNDATASIZE DUP4 GT PUSH2 0x3ED2 JUMPI JUMPDEST PUSH2 0x3EC1 DUP2 DUP4 PUSH2 0x3BB1 JUMP JUMPDEST DUP2 ADD SUB SLT PUSH2 0x78B JUMPI POP MLOAD SWAP1 CODESIZE PUSH2 0x3D55 JUMP JUMPDEST POP RETURNDATASIZE PUSH2 0x3EB7 JUMP JUMPDEST DUP1 EXTCODESIZE ISZERO PUSH2 0x3F20 JUMPI PUSH32 0x360894A13BA1A3210667C828492DB98DCA3E2076CC3735A920A3CA505D382BBC DUP1 SLOAD PUSH1 0x1 PUSH1 0x1 PUSH1 0xA0 SHL SUB NOT AND PUSH1 0x1 PUSH1 0x1 PUSH1 0xA0 SHL SUB SWAP1 SWAP3 AND SWAP2 SWAP1 SWAP2 OR SWAP1 SSTORE JUMP JUMPDEST PUSH1 0x40 MLOAD PUSH3 0x461BCD PUSH1 0xE5 SHL DUP2 MSTORE PUSH1 0x20 PUSH1 0x4 DUP3 ADD MSTORE PUSH1 0x2D PUSH1 0x24 DUP3 ADD MSTORE PUSH32 0x455243313936373A206E657720696D706C656D656E746174696F6E206973206E PUSH1 0x44 DUP3 ADD MSTORE PUSH13 0x1BDD08184818DBDB9D1C9858DD PUSH1 0x9A SHL PUSH1 0x64 DUP3 ADD MSTORE PUSH1 0x84 SWAP1 REVERT JUMPDEST PUSH2 0x3F85 PUSH1 0x27 PUSH2 0x3BE9 JUMP JUMPDEST SWAP1 PUSH2 0x3F93 PUSH1 0x40 MLOAD SWAP3 DUP4 PUSH2 0x3BB1 JUMP JUMPDEST PUSH1 0x27 DUP3 MSTORE PUSH7 0x819985A5B1959 PUSH1 0xCA SHL PUSH1 0x40 DUP4 PUSH32 0x416464726573733A206C6F772D6C6576656C2064656C65676174652063616C6C PUSH1 0x20 DUP3 ADD MSTORE ADD MSTORE JUMP JUMPDEST RETURNDATASIZE ISZERO PUSH2 0x3FFA JUMPI RETURNDATASIZE SWAP1 PUSH2 0x3FE0 DUP3 PUSH2 0x3BE9 JUMP JUMPDEST SWAP2 PUSH2 0x3FEE PUSH1 0x40 MLOAD SWAP4 DUP5 PUSH2 0x3BB1 JUMP JUMPDEST DUP3 MSTORE RETURNDATASIZE PUSH1 0x0 PUSH1 0x20 DUP5 ADD RETURNDATACOPY JUMP JUMPDEST PUSH1 0x60 SWAP1 JUMP JUMPDEST SWAP2 SWAP3 SWAP1 ISZERO PUSH2 0x4061 JUMPI POP DUP2 MLOAD ISZERO PUSH2 0x4013 JUMPI POP SWAP1 JUMP JUMPDEST EXTCODESIZE ISZERO PUSH2 0x401C JUMPI SWAP1 JUMP JUMPDEST PUSH1 0x40 MLOAD PUSH3 0x461BCD PUSH1 0xE5 SHL DUP2 MSTORE PUSH1 0x20 PUSH1 0x4 DUP3 ADD MSTORE PUSH1 0x1D PUSH1 0x24 DUP3 ADD MSTORE PUSH32 0x416464726573733A2063616C6C20746F206E6F6E2D636F6E7472616374000000 PUSH1 0x44 DUP3 ADD MSTORE PUSH1 0x64 SWAP1 REVERT JUMPDEST DUP3 MLOAD SWAP1 SWAP2 POP ISZERO PUSH2 0x4074 JUMPI POP DUP1 MLOAD SWAP1 PUSH1 0x20 ADD REVERT JUMPDEST PUSH1 0x40 MLOAD SWAP1 PUSH3 0x461BCD PUSH1 0xE5 SHL DUP3 MSTORE DUP2 PUSH1 0x20 DUP1 PUSH1 0x4 DUP4 ADD MSTORE DUP3 MLOAD SWAP1 DUP2 PUSH1 0x24 DUP5 ADD MSTORE PUSH1 0x0 SWAP4 JUMPDEST DUP3 DUP6 LT PUSH2 0x40BA JUMPI POP POP PUSH1 0x44 SWAP3 POP PUSH1 0x0 DUP4 DUP3 DUP5 ADD ADD MSTORE PUSH1 0x1F DUP1 NOT SWAP2 ADD AND DUP2 ADD SUB ADD SWAP1 REVERT JUMPDEST DUP5 DUP2 ADD DUP3 ADD MLOAD DUP7 DUP7 ADD PUSH1 0x44 ADD MSTORE SWAP4 DUP2 ADD SWAP4 DUP6 SWAP4 POP PUSH2 0x4097 JUMP JUMPDEST SWAP1 DUP1 PUSH2 0x40DD JUMPI POP POP JUMP JUMPDEST PUSH2 0x229 SLOAD PUSH1 0x40 MLOAD PUSH4 0xA9059CBB PUSH1 0xE0 SHL PUSH1 0x20 DUP3 ADD MSTORE PUSH1 0x1 PUSH1 0x1 PUSH1 0xA0 SHL SUB SWAP4 DUP5 AND PUSH1 0x24 DUP3 ADD MSTORE PUSH1 0x44 DUP2 ADD SWAP3 SWAP1 SWAP3 MSTORE PUSH2 0x3B21 SWAP3 AND PUSH2 0x4125 DUP3 PUSH1 0x64 DUP2 ADD JUMPDEST SUB PUSH1 0x1F NOT DUP2 ADD DUP5 MSTORE DUP4 PUSH2 0x3BB1 JUMP JUMPDEST PUSH2 0x4137 JUMP JUMPDEST MLOAD SWAP1 DUP2 ISZERO ISZERO DUP3 SUB PUSH2 0x6E1 JUMPI JUMP JUMPDEST PUSH1 0x20 SWAP2 PUSH2 0x419A SWAP2 PUSH1 0x1 PUSH1 0x1 PUSH1 0xA0 SHL SUB AND PUSH1 0x0 DUP1 PUSH2 0x4153 DUP7 PUSH2 0x3BE9 JUMP JUMPDEST SWAP4 PUSH2 0x4161 PUSH1 0x40 MLOAD SWAP6 DUP7 PUSH2 0x3BB1 JUMP JUMPDEST DUP7 DUP6 MSTORE PUSH32 0x5361666545524332303A206C6F772D6C6576656C2063616C6C206661696C6564 DUP8 DUP7 ADD MSTORE DUP7 DUP2 MLOAD SWAP2 ADD DUP3 DUP6 GAS CALL PUSH2 0x3E42 PUSH2 0x3FCF JUMP JUMPDEST DUP1 MLOAD DUP3 DUP2 ISZERO SWAP2 DUP3 ISZERO PUSH2 0x420A JUMPI JUMPDEST POP POP SWAP1 POP ISZERO PUSH2 0x41B3 JUMPI POP JUMP JUMPDEST PUSH1 0x84 SWAP1 PUSH1 0x40 MLOAD SWAP1 PUSH3 0x461BCD PUSH1 0xE5 SHL DUP3 MSTORE PUSH1 0x4 DUP3 ADD MSTORE PUSH1 0x2A PUSH1 0x24 DUP3 ADD MSTORE PUSH32 0x5361666545524332303A204552433230206F7065726174696F6E20646964206E PUSH1 0x44 DUP3 ADD MSTORE PUSH10 0x1BDD081CDD58D8D95959 PUSH1 0xB2 SHL PUSH1 0x64 DUP3 ADD MSTORE REVERT JUMPDEST DUP4 DUP1 SWAP3 SWAP4 POP ADD SUB SLT PUSH2 0x6E1 JUMPI DUP2 PUSH2 0x4221 SWAP2 ADD PUSH2 0x412A JUMP JUMPDEST DUP1 DUP3 CODESIZE PUSH2 0x41A7 JUMP JUMPDEST SWAP2 SWAP1 DUP3 SUB SWAP2 DUP3 GT PUSH2 0x4236 JUMPI JUMP JUMPDEST PUSH4 0x4E487B71 PUSH1 0xE0 SHL PUSH1 0x0 MSTORE PUSH1 0x11 PUSH1 0x4 MSTORE PUSH1 0x24 PUSH1 0x0 REVERT JUMPDEST PUSH2 0x4255 ADDRESS PUSH2 0x4289 JUMP JUMPDEST PUSH2 0x131 SWAP1 PUSH2 0x4272 PUSH2 0x4268 DUP4 SLOAD DUP1 SWAP4 PUSH2 0x4229 JUMP JUMPDEST PUSH2 0x14E SLOAD SWAP1 PUSH2 0x4229 JUMP JUMPDEST DUP1 PUSH2 0x427C JUMPI POP POP POP JUMP JUMPDEST PUSH2 0x4285 SWAP2 PUSH2 0x4304 JUMP JUMPDEST SWAP1 SSTORE JUMP JUMPDEST PUSH2 0x229 SLOAD PUSH1 0x40 MLOAD PUSH4 0x70A08231 PUSH1 0xE0 SHL DUP2 MSTORE PUSH1 0x1 PUSH1 0x1 PUSH1 0xA0 SHL SUB SWAP3 DUP4 AND PUSH1 0x4 DUP3 ADD MSTORE SWAP2 PUSH1 0x20 SWAP2 DUP4 SWAP2 PUSH1 0x24 SWAP2 DUP4 SWAP2 AND GAS STATICCALL SWAP1 DUP2 ISZERO PUSH2 0x42F8 JUMPI PUSH1 0x0 SWAP2 PUSH2 0x42CA JUMPI POP SWAP1 JUMP JUMPDEST SWAP1 PUSH1 0x20 DUP3 RETURNDATASIZE DUP3 GT PUSH2 0x42F0 JUMPI JUMPDEST DUP2 PUSH2 0x42E3 PUSH1 0x20 SWAP4 DUP4 PUSH2 0x3BB1 JUMP JUMPDEST DUP2 ADD SUB SLT PUSH2 0x78B JUMPI POP MLOAD SWAP1 JUMP JUMPDEST RETURNDATASIZE SWAP2 POP PUSH2 0x42D6 JUMP JUMPDEST PUSH1 0x40 MLOAD RETURNDATASIZE PUSH1 0x0 DUP3 RETURNDATACOPY RETURNDATASIZE SWAP1 REVERT JUMPDEST SWAP2 SWAP1 DUP3 ADD DUP1 SWAP3 GT PUSH2 0x4236 JUMPI JUMP JUMPDEST DUP1 MLOAD DUP3 LT ISZERO PUSH2 0x3A78 JUMPI PUSH1 0x20 SWAP2 PUSH1 0x5 SHL ADD ADD SWAP1 JUMP JUMPDEST SWAP1 PUSH1 0x0 SWAP2 PUSH1 0x0 SWAP1 PUSH2 0x137 DUP1 SLOAD SWAP1 PUSH1 0x0 SWAP3 JUMPDEST DUP3 DUP5 LT PUSH2 0x435C JUMPI POP POP POP POP PUSH2 0x4358 PUSH8 0xDE0B6B3A7640000 SWAP2 PUSH2 0x139 SLOAD SWAP1 PUSH2 0x4436 JUMP JUMPDEST DIV SWAP1 JUMP JUMPDEST SWAP1 SWAP2 SWAP3 SWAP4 SWAP6 PUSH2 0x43A9 PUSH2 0x4398 PUSH2 0x43A3 PUSH1 0x1 SWAP4 PUSH2 0x439D PUSH2 0x437A DUP11 DUP9 PUSH2 0x4311 JUMP JUMPDEST MLOAD PUSH2 0x4385 DUP2 DUP13 PUSH2 0x43CF JUMP JUMPDEST SWAP6 SWAP1 PUSH2 0x4391 DUP14 DUP13 PUSH2 0x3B95 JUMP JUMPDEST POP SLOAD PUSH2 0x4304 JUMP JUMPDEST PUSH2 0x570F JUMP JUMPDEST SWAP1 PUSH2 0x4304 JUMP JUMPDEST SWAP9 PUSH2 0x4304 JUMP JUMPDEST SWAP5 ADD SWAP3 SWAP2 SWAP1 PUSH2 0x4336 JUMP JUMPDEST SWAP2 SWAP1 SWAP2 PUSH1 0x0 DUP4 DUP3 ADD SWAP4 DUP5 SLT SWAP2 SLT SWAP1 DUP1 ISZERO DUP3 AND SWAP2 ISZERO AND OR PUSH2 0x4236 JUMPI JUMP JUMPDEST SWAP2 SWAP1 PUSH1 0x0 SWAP1 PUSH2 0x43FD DUP2 PUSH1 0x0 SWAP6 PUSH2 0x43F3 PUSH2 0x43EA DUP3 PUSH2 0x150 PUSH2 0x3A60 JUMP JUMPDEST SWAP4 SWAP1 SLOAD SWAP3 PUSH2 0x4482 JUMP JUMPDEST SWAP2 PUSH1 0x3 SHL SHR PUSH2 0x43B3 JUMP JUMPDEST PUSH1 0x0 DUP2 SGT PUSH2 0x440C JUMPI JUMPDEST POP POP SWAP2 SWAP1 JUMP JUMPDEST PUSH2 0x442E SWAP2 SWAP5 POP PUSH2 0x2618 SWAP3 POP DUP1 SWAP5 PUSH8 0xDE0B6B3A7640000 SWAP4 DUP5 SWAP2 PUSH2 0x13A SLOAD PUSH2 0x4436 JUMP JUMPDEST DIV CODESIZE DUP1 PUSH2 0x4406 JUMP JUMPDEST DUP2 DUP2 MUL SWAP3 SWAP2 DUP2 ISZERO SWAP2 DUP5 DIV EQ OR ISZERO PUSH2 0x4236 JUMPI JUMP JUMPDEST DUP2 ISZERO PUSH2 0x4453 JUMPI DIV SWAP1 JUMP JUMPDEST PUSH4 0x4E487B71 PUSH1 0xE0 SHL PUSH1 0x0 MSTORE PUSH1 0x12 PUSH1 0x4 MSTORE PUSH1 0x24 PUSH1 0x0 REVERT JUMPDEST DUP2 DUP2 SUB SWAP3 SWAP2 PUSH1 0x0 SGT DUP1 ISZERO DUP3 DUP6 SGT AND SWAP2 DUP5 SLT AND OR PUSH2 0x4236 JUMPI JUMP JUMPDEST PUSH2 0x448E DUP2 PUSH2 0x137 PUSH2 0x3B95 JUMP JUMPDEST POP SLOAD SWAP1 PUSH8 0xDE0B6B3A7640000 SWAP2 DUP3 DUP2 MUL SWAP3 DUP2 DUP5 DIV EQ SWAP1 ISZERO OR ISZERO PUSH2 0x4236 JUMPI PUSH2 0x3AE2 SWAP3 PUSH2 0x44CE PUSH2 0x44C1 PUSH2 0x44D4 SWAP4 PUSH2 0x151 PUSH2 0x3A60 JUMP JUMPDEST SWAP1 SLOAD SWAP1 PUSH1 0x3 SHL SHR DUP5 PUSH2 0x4449 JUMP JUMPDEST SWAP3 PUSH2 0x4449 JUMP JUMPDEST SWAP1 PUSH2 0x4469 JUMP JUMPDEST DUP1 ISZERO PUSH2 0x44F0 JUMPI PUSH2 0x4398 PUSH2 0x3AE2 SWAP3 PUSH2 0x131 SLOAD PUSH2 0x4229 JUMP JUMPDEST POP POP PUSH1 0x0 NOT SWAP1 JUMP JUMPDEST PUSH8 0xFFFFFFFFFFFFFFFF DUP2 GT PUSH2 0x3BD3 JUMPI PUSH1 0x5 SHL PUSH1 0x20 ADD SWAP1 JUMP JUMPDEST SWAP1 PUSH2 0x451A DUP3 PUSH2 0x44F8 JUMP JUMPDEST PUSH2 0x4527 PUSH1 0x40 MLOAD SWAP2 DUP3 PUSH2 0x3BB1 JUMP JUMPDEST DUP3 DUP2 MSTORE DUP1 SWAP3 PUSH2 0x4538 PUSH1 0x1F NOT SWAP2 PUSH2 0x44F8 JUMP JUMPDEST ADD SWAP1 PUSH1 0x20 CALLDATASIZE SWAP2 ADD CALLDATACOPY JUMP JUMPDEST PUSH2 0x131 SLOAD DUP1 ISZERO PUSH2 0x3E48 JUMPI PUSH2 0x137 SWAP1 DUP2 SLOAD SWAP2 PUSH1 0x0 SWAP1 PUSH2 0x455F DUP5 PUSH2 0x4510 JUMP JUMPDEST SWAP1 DUP3 SWAP1 JUMPDEST DUP6 DUP3 LT PUSH2 0x45CE JUMPI POP POP PUSH1 0x0 JUMPDEST DUP5 DUP2 LT PUSH2 0x457D JUMPI POP POP POP POP POP JUMP JUMPDEST PUSH2 0x459A DUP5 PUSH2 0x4595 DUP6 PUSH2 0x458F DUP6 DUP8 PUSH2 0x4311 JUMP JUMPDEST MLOAD PUSH2 0x4436 JUMP JUMPDEST PUSH2 0x4449 JUMP JUMPDEST SWAP1 PUSH2 0x138 SWAP2 DUP3 SLOAD PUSH9 0x10000000000000000 DUP2 LT ISZERO PUSH2 0x3BD3 JUMPI PUSH2 0x2631 DUP2 PUSH1 0x1 SWAP6 DUP7 PUSH2 0x45C6 SWAP5 ADD DUP2 SSTORE PUSH2 0x3A60 JUMP JUMPDEST SWAP1 SSTORE ADD PUSH2 0x456F JUMP JUMPDEST SWAP1 SWAP3 PUSH2 0x460A PUSH1 0x1 SWAP2 PUSH2 0x45DF DUP7 PUSH2 0x464D JUMP JUMPDEST PUSH2 0x45E9 DUP8 DUP8 PUSH2 0x4311 JUMP JUMPDEST MSTORE PUSH2 0x439D PUSH2 0x45F7 DUP8 DUP7 PUSH2 0x3B95 JUMP JUMPDEST POP SLOAD PUSH2 0x4603 DUP9 DUP9 PUSH2 0x4311 JUMP JUMPDEST MLOAD SWAP1 PUSH2 0x570F JUMP JUMPDEST SWAP4 ADD SWAP1 PUSH2 0x4563 JUMP JUMPDEST PUSH1 0x1 PUSH1 0x1 PUSH1 0xA0 SHL SUB AND PUSH1 0x0 SWAP1 DUP2 MSTORE PUSH2 0x136 PUSH1 0x20 MSTORE PUSH1 0x40 SWAP1 KECCAK256 PUSH1 0x1 DUP2 ADD SLOAD PUSH1 0xFF AND ISZERO PUSH2 0x463B JUMPI SLOAD SWAP1 JUMP JUMPDEST PUSH1 0x40 MLOAD PUSH4 0xE6C4247B PUSH1 0xE0 SHL DUP2 MSTORE PUSH1 0x4 SWAP1 REVERT JUMPDEST PUSH2 0x4659 SWAP1 PUSH2 0x137 PUSH2 0x3B95 JUMP JUMPDEST POP PUSH1 0x1 ADD SLOAD PUSH1 0x1 PUSH1 0x1 PUSH1 0xA0 SHL SUB AND PUSH2 0x4670 DUP2 PUSH2 0x46AE JUMP JUMPDEST SWAP2 SWAP1 SWAP2 ISZERO PUSH2 0x467C JUMPI POP SWAP1 JUMP JUMPDEST PUSH1 0x24 SWAP1 PUSH1 0x40 MLOAD SWAP1 PUSH4 0x7F6E4DB9 PUSH1 0xE0 SHL DUP3 MSTORE PUSH1 0x4 DUP3 ADD MSTORE REVERT JUMPDEST SWAP2 SWAP1 DUP3 PUSH1 0x40 SWAP2 SUB SLT PUSH2 0x6E1 JUMPI PUSH2 0x3AE2 PUSH1 0x20 DUP4 MLOAD SWAP4 ADD PUSH2 0x412A JUMP JUMPDEST PUSH1 0x40 DUP1 MLOAD PUSH4 0x59E02DD7 PUSH1 0xE0 SHL DUP2 MSTORE SWAP3 SWAP2 DUP4 SWAP1 PUSH1 0x4 SWAP1 DUP3 SWAP1 PUSH1 0x1 PUSH1 0x1 PUSH1 0xA0 SHL SUB AND GAS STATICCALL SWAP2 DUP3 ISZERO PUSH2 0x42F8 JUMPI PUSH1 0x0 SWAP1 DUP2 SWAP4 PUSH2 0x46E5 JUMPI POP SWAP2 SWAP1 JUMP JUMPDEST SWAP1 POP PUSH2 0x4709 SWAP2 SWAP3 POP PUSH1 0x40 RETURNDATASIZE DUP2 GT PUSH2 0x470D JUMPI JUMPDEST PUSH2 0x4701 DUP2 DUP4 PUSH2 0x3BB1 JUMP JUMPDEST DUP2 ADD SWAP1 PUSH2 0x4694 JUMP JUMPDEST SWAP1 SWAP2 JUMP JUMPDEST POP RETURNDATASIZE PUSH2 0x46F7 JUMP JUMPDEST PUSH2 0x137 SLOAD SWAP1 PUSH2 0x4722 DUP3 PUSH2 0x4510 JUMP JUMPDEST SWAP2 PUSH1 0x0 JUMPDEST DUP2 DUP2 LT PUSH2 0x4731 JUMPI POP POP JUMP JUMPDEST DUP1 PUSH2 0x473D PUSH1 0x1 SWAP3 PUSH2 0x464D JUMP JUMPDEST PUSH2 0x4747 DUP3 DUP8 PUSH2 0x4311 JUMP JUMPDEST MSTORE ADD PUSH2 0x4726 JUMP JUMPDEST SWAP1 PUSH2 0x476F PUSH8 0xDE0B6B3A7640000 SWAP3 DUP4 PUSH2 0x157 SLOAD PUSH2 0x154 SLOAD SWAP3 NUMBER ADD SUB MUL PUSH2 0x4449 JUMP JUMPDEST DUP3 DUP2 LT ISZERO PUSH2 0x478C JUMPI DUP3 SUB SWAP2 DUP1 DUP4 PUSH2 0x155 SLOAD MUL DIV SWAP3 PUSH2 0x156 SLOAD MUL SDIV SWAP1 JUMP JUMPDEST POP PUSH1 0x0 SWAP2 POP DUP2 SWAP1 JUMP JUMPDEST SWAP1 SWAP2 PUSH2 0x479F PUSH2 0x47F7 JUMP JUMPDEST SWAP3 SWAP1 DUP1 DUP3 LT ISZERO PUSH2 0x47ED JUMPI DUP4 SWAP2 PUSH2 0x47B4 SWAP2 PUSH2 0x4229 JUMP JUMPDEST SWAP4 GT ISZERO PUSH2 0x47E8 JUMPI DUP2 DUP2 LT ISZERO PUSH2 0x47E0 JUMPI PUSH2 0x47CC SWAP2 PUSH2 0x4229 JUMP JUMPDEST PUSH1 0x1 SHR DUP1 DUP3 LT ISZERO PUSH2 0x47DB JUMPI POP SWAP1 JUMP JUMPDEST SWAP1 POP SWAP1 JUMP JUMPDEST POP POP POP PUSH1 0x0 SWAP1 JUMP JUMPDEST POP POP SWAP1 JUMP JUMPDEST POP POP POP POP POP PUSH1 0x0 SWAP1 JUMP JUMPDEST PUSH2 0x152 SLOAD PUSH1 0x40 DUP1 MLOAD PUSH4 0x59E02DD7 PUSH1 0xE0 SHL DUP1 DUP3 MSTORE SWAP4 SWAP3 SWAP1 SWAP2 SWAP1 PUSH1 0x1 PUSH1 0x1 PUSH1 0xA0 SHL SUB SWAP1 DUP2 AND DUP3 DUP5 PUSH1 0x4 DUP2 DUP5 GAS STATICCALL DUP1 ISZERO PUSH2 0x48E7 JUMPI PUSH1 0x0 SWAP5 DUP6 SWAP2 PUSH2 0x48C4 JUMPI JUMPDEST POP ISZERO PUSH2 0x48AD JUMPI POP PUSH2 0x153 SLOAD AND SWAP1 DUP1 MLOAD SWAP5 DUP6 MSTORE DUP1 DUP6 PUSH1 0x4 DUP2 DUP6 GAS STATICCALL DUP1 ISZERO PUSH2 0x48A2 JUMPI PUSH1 0x0 SWAP6 DUP7 SWAP2 PUSH2 0x487F JUMPI JUMPDEST POP ISZERO PUSH2 0x4868 JUMPI POP POP SWAP2 SWAP1 JUMP JUMPDEST PUSH1 0x24 SWAP3 POP MLOAD SWAP1 PUSH4 0x5E89893 PUSH1 0xE1 SHL DUP3 MSTORE PUSH1 0x4 DUP3 ADD MSTORE REVERT JUMPDEST SWAP1 POP DUP2 PUSH2 0x4899 SWAP3 SWAP7 POP RETURNDATASIZE DUP8 GT PUSH2 0x470D JUMPI PUSH2 0x4701 DUP2 DUP4 PUSH2 0x3BB1 JUMP JUMPDEST SWAP5 SWAP1 SWAP5 CODESIZE PUSH2 0x485C JUMP JUMPDEST POP MLOAD RETURNDATASIZE PUSH1 0x0 DUP3 RETURNDATACOPY RETURNDATASIZE SWAP1 REVERT JUMPDEST PUSH1 0x24 SWAP1 DUP4 MLOAD SWAP1 PUSH4 0x5E89893 PUSH1 0xE1 SHL DUP3 MSTORE PUSH1 0x4 DUP3 ADD MSTORE REVERT JUMPDEST SWAP1 POP PUSH2 0x48DE SWAP2 SWAP5 POP DUP4 RETURNDATASIZE DUP6 GT PUSH2 0x470D JUMPI PUSH2 0x4701 DUP2 DUP4 PUSH2 0x3BB1 JUMP JUMPDEST SWAP4 SWAP1 SWAP4 CODESIZE PUSH2 0x4832 JUMP JUMPDEST DUP4 MLOAD RETURNDATASIZE PUSH1 0x0 DUP3 RETURNDATACOPY RETURNDATASIZE SWAP1 REVERT JUMPDEST ISZERO PUSH2 0x48F9 JUMPI JUMP JUMPDEST PUSH1 0x40 MLOAD PUSH3 0x461BCD PUSH1 0xE5 SHL DUP2 MSTORE PUSH1 0x20 PUSH1 0x4 DUP3 ADD MSTORE PUSH1 0x2B PUSH1 0x24 DUP3 ADD MSTORE PUSH32 0x496E697469616C697A61626C653A20636F6E7472616374206973206E6F742069 PUSH1 0x44 DUP3 ADD MSTORE PUSH11 0x6E697469616C697A696E67 PUSH1 0xA8 SHL PUSH1 0x64 DUP3 ADD MSTORE PUSH1 0x84 SWAP1 REVERT JUMPDEST SWAP1 PUSH2 0x3AE2 SWAP2 PUSH1 0x0 DUP1 PUSH2 0x4962 PUSH2 0x3F7B JUMP JUMPDEST SWAP4 PUSH1 0x20 DUP2 MLOAD SWAP2 ADD DUP5 GAS DELEGATECALL PUSH2 0x3E42 PUSH2 0x3FCF JUMP JUMPDEST PUSH2 0x49E2 SWAP4 PUSH2 0x49A9 PUSH1 0x0 SWAP3 PUSH1 0x20 SWAP6 PUSH2 0x498D DUP3 PUSH2 0x137 PUSH2 0x3B95 JUMP JUMPDEST POP PUSH2 0x4999 DUP8 DUP3 SLOAD PUSH2 0x4304 JUMP JUMPDEST SWAP1 SSTORE PUSH2 0x1606 PUSH2 0x131 SWAP2 DUP3 SLOAD PUSH2 0x4304 JUMP JUMPDEST SWAP1 SLOAD PUSH1 0x40 MLOAD PUSH4 0x40C10F19 PUSH1 0xE0 SHL DUP2 MSTORE PUSH1 0x1 PUSH1 0x1 PUSH1 0xA0 SHL SUB SWAP1 SWAP4 AND PUSH1 0x4 DUP5 ADD MSTORE PUSH1 0x24 DUP4 ADD SWAP5 SWAP1 SWAP5 MSTORE SWAP1 SWAP5 DUP6 SWAP4 SWAP3 DUP5 SWAP3 SWAP1 SWAP2 DUP4 SWAP1 PUSH1 0x44 DUP3 ADD SWAP1 JUMP JUMPDEST SUB SWAP4 PUSH1 0x3 SWAP2 SWAP1 SWAP2 SHL SHR PUSH1 0x1 PUSH1 0x1 PUSH1 0xA0 SHL SUB AND GAS CALL DUP1 ISZERO PUSH2 0x42F8 JUMPI PUSH2 0x4A03 JUMPI POP JUMP JUMPDEST PUSH1 0x20 DUP2 RETURNDATASIZE DUP3 GT PUSH2 0x4A2C JUMPI JUMPDEST DUP2 PUSH2 0x4A1B PUSH1 0x20 SWAP4 DUP4 PUSH2 0x3BB1 JUMP JUMPDEST DUP2 ADD SUB SLT PUSH2 0x6E1 JUMPI PUSH2 0x3E48 SWAP1 PUSH2 0x412A JUMP JUMPDEST RETURNDATASIZE SWAP2 POP PUSH2 0x4A0E JUMP JUMPDEST PUSH2 0x2631 PUSH2 0x4285 SWAP2 PUSH2 0x4A45 DUP5 DUP3 PUSH2 0x4482 JUMP JUMPDEST PUSH2 0x4A7B PUSH2 0x4A54 DUP4 PUSH2 0x150 PUSH2 0x3A60 JUMP JUMPDEST PUSH2 0x4A67 DUP3 SWAP5 SWAP3 SLOAD SWAP3 DUP4 DUP4 PUSH1 0x3 SHL SHR PUSH2 0x43B3 JUMP JUMPDEST SWAP2 SWAP1 PUSH1 0x3 SHL SWAP2 DUP3 SHL SWAP2 PUSH1 0x0 NOT SWAP1 SHL NOT AND OR SWAP1 JUMP JUMPDEST SWAP1 SSTORE PUSH2 0x151 PUSH2 0x3A60 JUMP JUMPDEST PUSH1 0xE0 DUP2 ADD SWAP3 SWAP2 PUSH1 0xC0 SWAP1 DUP2 SWAP1 PUSH1 0x1 PUSH1 0x1 PUSH1 0xA0 SHL SUB DUP1 PUSH2 0x4AA2 DUP4 PUSH2 0x3A8E JUMP JUMPDEST AND DUP6 MSTORE PUSH2 0x4AB1 PUSH1 0x20 DUP4 ADD PUSH2 0x3A8E JUMP JUMPDEST AND PUSH1 0x20 DUP6 ADD MSTORE PUSH1 0x40 DUP2 ADD CALLDATALOAD PUSH1 0x40 DUP6 ADD MSTORE PUSH1 0x60 DUP2 ADD CALLDATALOAD PUSH1 0x60 DUP6 ADD MSTORE PUSH1 0x80 DUP2 ADD CALLDATALOAD PUSH1 0x80 DUP6 ADD MSTORE PUSH1 0xA0 DUP2 ADD CALLDATALOAD PUSH1 0xA0 DUP6 ADD MSTORE ADD CALLDATALOAD SWAP2 ADD MSTORE JUMP JUMPDEST SWAP1 PUSH2 0x134 SLOAD SWAP1 DUP2 ISZERO PUSH2 0x4B0B JUMPI PUSH2 0x3AE2 SWAP3 PUSH2 0x4B06 PUSH2 0x4398 SWAP3 PUSH2 0x131 SLOAD PUSH2 0x4229 JUMP JUMPDEST PUSH2 0x4229 JUMP JUMPDEST POP POP POP PUSH8 0xDE0B6B3A7640000 SWAP1 JUMP JUMPDEST DUP3 DUP3 PUSH2 0x4B25 SWAP3 PUSH2 0x4B42 JUMP JUMPDEST SWAP1 PUSH1 0x0 DUP3 SGT ISZERO PUSH2 0x47E0 JUMPI PUSH2 0x3AE2 SWAP3 PUSH2 0x4B3C SWAP2 PUSH2 0x4AE6 JUMP JUMPDEST SWAP1 PUSH2 0x4449 JUMP JUMPDEST SWAP1 SWAP2 PUSH2 0x4B51 SWAP1 PUSH2 0x131 SLOAD PUSH2 0x4229 JUMP JUMPDEST SWAP1 PUSH8 0xDE0B6B3A7640000 SWAP2 DUP3 DUP2 MUL SWAP3 DUP2 DUP5 DIV EQ SWAP1 ISZERO OR ISZERO PUSH2 0x4236 JUMPI PUSH2 0x3AE2 SWAP3 PUSH2 0x44D4 SWAP2 PUSH2 0x4436 JUMP JUMPDEST SWAP3 PUSH2 0x4B87 SWAP3 SWAP4 SWAP5 SWAP2 SWAP5 PUSH2 0x4B42 JUMP JUMPDEST DUP2 DUP2 MUL SWAP2 PUSH1 0x0 SWAP2 PUSH1 0x1 PUSH1 0xFF SHL SWAP2 DUP4 DUP3 SLT DUP4 DUP3 EQ AND PUSH2 0x4C2B JUMPI DUP2 DUP6 SDIV EQ SWAP1 ISZERO OR ISZERO PUSH2 0x4C17 JUMPI PUSH8 0xDE0B6B3A763FFFF NOT DUP5 ADD SWAP4 DUP5 GT PUSH2 0x4C17 JUMPI PUSH8 0xDE0B6B3A7640000 SWAP4 DUP5 DUP2 MUL SWAP5 DUP2 DUP7 DIV EQ SWAP1 ISZERO OR ISZERO PUSH2 0x4C17 JUMPI DUP4 ISZERO PUSH2 0x4C03 JUMPI DUP3 EQ PUSH1 0x0 NOT DUP5 EQ AND PUSH2 0x4BEF JUMPI POP SDIV SWAP1 JUMP JUMPDEST PUSH4 0x4E487B71 PUSH1 0xE0 SHL DUP2 MSTORE PUSH1 0x11 PUSH1 0x4 MSTORE PUSH1 0x24 SWAP1 REVERT JUMPDEST PUSH4 0x4E487B71 PUSH1 0xE0 SHL DUP3 MSTORE PUSH1 0x12 PUSH1 0x4 MSTORE PUSH1 0x24 DUP3 REVERT JUMPDEST PUSH4 0x4E487B71 PUSH1 0xE0 SHL DUP3 MSTORE PUSH1 0x11 PUSH1 0x4 MSTORE PUSH1 0x24 DUP3 REVERT JUMPDEST PUSH4 0x4E487B71 PUSH1 0xE0 SHL DUP5 MSTORE PUSH1 0x11 PUSH1 0x4 MSTORE PUSH1 0x24 DUP5 REVERT JUMPDEST PUSH2 0x14D SLOAD DUP1 NUMBER LT ISZERO PUSH2 0x4C56 JUMPI PUSH2 0x3AE2 SWAP1 NUMBER SWAP1 PUSH2 0x4229 JUMP JUMPDEST POP PUSH1 0x0 SWAP1 JUMP JUMPDEST SWAP1 PUSH1 0x40 MLOAD PUSH2 0x4C6B PUSH1 0x40 DUP3 PUSH2 0x3BB1 JUMP JUMPDEST PUSH1 0x20 PUSH1 0x1 DUP3 SWAP5 DUP1 SLOAD DUP5 MSTORE ADD SLOAD SWAP2 ADD MSTORE JUMP JUMPDEST PUSH2 0x4C88 DUP2 PUSH2 0x148 PUSH2 0x3A60 JUMP JUMPDEST SWAP1 SLOAD SWAP1 PUSH1 0x3 SHL SHR SWAP2 PUSH2 0x18E SWAP2 PUSH2 0x4C9E DUP2 DUP5 PUSH2 0x3B95 JUMP JUMPDEST POP SLOAD SWAP3 PUSH2 0x18F SLOAD NUMBER LT ISZERO PUSH2 0x4CC4 JUMPI JUMPDEST POP POP DUP1 DUP3 LT ISZERO PUSH2 0x47E8 JUMPI PUSH2 0x4595 SWAP1 PUSH2 0x3AE2 SWAP4 PUSH2 0x4436 JUMP JUMPDEST DUP3 SWAP4 POP PUSH2 0x4CD8 PUSH2 0x4CE3 SWAP4 SWAP3 PUSH2 0x4CDE SWAP3 PUSH2 0x3B95 JUMP JUMPDEST POP PUSH2 0x4C5C JUMP JUMPDEST PUSH2 0x4CEB JUMP JUMPDEST SWAP1 CODESIZE DUP1 PUSH2 0x4CAD JUMP JUMPDEST PUSH1 0x20 DUP2 MLOAD SWAP2 ADD DUP1 MLOAD SWAP3 PUSH8 0xDE0B6B3A7640000 SWAP4 DUP5 SUB SWAP1 DUP5 DUP3 GT PUSH2 0x4236 JUMPI PUSH2 0x4D18 PUSH2 0x439D SWAP3 PUSH2 0x4358 SWAP6 PUSH2 0x4436 JUMP JUMPDEST SWAP3 MLOAD PUSH2 0x4436 JUMP JUMPDEST PUSH1 0x0 DUP1 PUSH2 0x137 SWAP2 DUP3 SLOAD SWAP3 PUSH2 0x4D32 DUP5 PUSH2 0x4510 JUMP JUMPDEST SWAP4 DUP3 SWAP2 JUMPDEST DUP2 DUP4 LT PUSH2 0x4D5F JUMPI POP POP POP DUP2 ISZERO PUSH2 0x4D53 JUMPI SWAP1 PUSH2 0x4D50 SWAP2 PUSH2 0x4449 JUMP JUMPDEST SWAP2 JUMP JUMPDEST POP POP PUSH2 0x149 SLOAD PUSH1 0x1 SHL SWAP2 JUMP JUMPDEST SWAP1 SWAP2 SWAP4 SWAP3 PUSH2 0x4D6C DUP6 PUSH2 0x464D JUMP JUMPDEST SWAP1 DUP2 PUSH2 0x4D78 DUP8 DUP10 PUSH2 0x4311 JUMP JUMPDEST MSTORE PUSH2 0x4D91 PUSH2 0x4D86 DUP4 DUP9 PUSH2 0x43CF JUMP JUMPDEST POP PUSH2 0x4391 DUP9 DUP7 PUSH2 0x3B95 JUMP JUMPDEST PUSH8 0xDE0B6B3A7640000 SWAP1 DUP2 DUP2 MUL SWAP2 DUP2 DUP4 DIV EQ SWAP1 ISZERO OR ISZERO PUSH2 0x4236 JUMPI PUSH2 0x4DD3 PUSH2 0x4DD9 SWAP3 PUSH2 0x439D DUP6 PUSH2 0x4DC5 PUSH1 0x1 SWAP8 PUSH2 0x4DCE SWAP7 PUSH2 0x570F JUMP JUMPDEST SWAP5 DUP6 SWAP2 DUP13 PUSH2 0x4C7C JUMP JUMPDEST PUSH2 0x4436 JUMP JUMPDEST SWAP6 PUSH2 0x4304 JUMP JUMPDEST SWAP5 ADD SWAP2 SWAP1 PUSH2 0x4D36 JUMP JUMPDEST PUSH2 0x18F DUP1 SLOAD NUMBER LT ISZERO PUSH2 0x4DF1 JUMPI POP JUMP JUMPDEST PUSH2 0x137 SLOAD PUSH1 0x0 JUMPDEST DUP2 DUP2 LT PUSH2 0x4E0B JUMPI POP POP PUSH2 0x190 SLOAD NUMBER ADD SWAP1 SSTORE JUMP JUMPDEST DUP1 DUP1 PUSH32 0x19156E9379C7BBBCE8F646CE5EE30BA860B8F954717405F3D5859A6C1A21AE60 PUSH1 0x1 SWAP4 PUSH2 0x18E PUSH2 0x4E41 PUSH2 0x4CD8 DUP4 DUP4 PUSH2 0x3B95 JUMP JUMPDEST SWAP1 PUSH2 0x4E5F PUSH2 0x4E57 PUSH2 0x4E51 DUP6 PUSH2 0x464D JUMP JUMPDEST DUP5 PUSH2 0x4CEB JUMP JUMPDEST SWAP4 DUP5 SWAP3 PUSH2 0x3B95 JUMP JUMPDEST POP SSTORE MLOAD PUSH1 0x40 SWAP2 DUP3 MLOAD SWAP2 DUP3 MSTORE PUSH1 0x20 DUP3 ADD MSTORE LOG2 ADD PUSH2 0x4DF8 JUMP JUMPDEST PUSH2 0x3B21 SWAP1 PUSH2 0x14E PUSH2 0x4E88 DUP3 DUP3 SLOAD PUSH2 0x4304 JUMP JUMPDEST SWAP1 SSTORE PUSH2 0x229 SLOAD ADDRESS SWAP1 CALLER SWAP1 PUSH1 0x1 PUSH1 0x1 PUSH1 0xA0 SHL SUB AND JUMPDEST PUSH1 0x40 MLOAD PUSH4 0x23B872DD PUSH1 0xE0 SHL PUSH1 0x20 DUP3 ADD MSTORE PUSH1 0x1 PUSH1 0x1 PUSH1 0xA0 SHL SUB SWAP3 DUP4 AND PUSH1 0x24 DUP3 ADD MSTORE SWAP3 SWAP1 SWAP2 AND PUSH1 0x44 DUP4 ADD MSTORE PUSH1 0x64 DUP1 DUP4 ADD SWAP4 SWAP1 SWAP4 MSTORE SWAP2 DUP2 MSTORE PUSH2 0x3B21 SWAP2 PUSH2 0x4125 PUSH1 0x84 DUP4 PUSH2 0x3BB1 JUMP JUMPDEST PUSH1 0xFF PUSH2 0x14B SLOAD PUSH1 0x8 SHR AND PUSH2 0x4EF0 JUMPI JUMP JUMPDEST PUSH1 0x40 MLOAD PUSH4 0x1CA61D77 PUSH1 0xE0 SHL DUP2 MSTORE PUSH1 0x4 SWAP1 REVERT JUMPDEST PUSH1 0xA0 SWAP1 DUP2 PUSH1 0x1 DUP1 DUP3 SHL SUB SWAP2 DUP3 DUP2 MLOAD AND DUP6 MSTORE PUSH1 0x20 DUP2 ADD MLOAD PUSH1 0x20 DUP7 ADD MSTORE PUSH1 0x40 DUP2 ADD MLOAD PUSH1 0x40 DUP7 ADD MSTORE DUP3 PUSH1 0x60 DUP3 ADD MLOAD AND PUSH1 0x60 DUP7 ADD MSTORE DUP3 PUSH1 0x80 DUP3 ADD MLOAD AND PUSH1 0x80 DUP7 ADD MSTORE ADD MLOAD AND SWAP2 ADD MSTORE JUMP JUMPDEST SWAP2 SWAP1 SWAP2 PUSH1 0xE0 PUSH2 0x100 DUP3 ADD SWAP4 DUP2 PUSH1 0x1 DUP1 PUSH1 0xA0 SHL SUB SWAP2 DUP3 DUP2 MLOAD AND DUP6 MSTORE DUP3 PUSH1 0x20 DUP3 ADD MLOAD AND PUSH1 0x20 DUP7 ADD MSTORE PUSH1 0x40 DUP2 ADD MLOAD PUSH1 0x40 DUP7 ADD MSTORE PUSH1 0x60 DUP2 ADD MLOAD PUSH1 0x60 DUP7 ADD MSTORE PUSH1 0x80 DUP2 ADD MLOAD PUSH1 0x80 DUP7 ADD MSTORE DUP3 PUSH1 0xA0 DUP3 ADD MLOAD AND PUSH1 0xA0 DUP7 ADD MSTORE DUP3 PUSH1 0xC0 DUP3 ADD MLOAD AND PUSH1 0xC0 DUP7 ADD MSTORE ADD MLOAD AND SWAP2 ADD MSTORE JUMP JUMPDEST PUSH1 0xC0 SWAP1 DUP2 PUSH1 0x1 DUP1 PUSH1 0xA0 SHL SUB SWAP2 DUP3 DUP2 MLOAD AND DUP6 MSTORE PUSH1 0x20 DUP2 ADD MLOAD PUSH1 0x20 DUP7 ADD MSTORE PUSH1 0x40 DUP2 ADD MLOAD PUSH1 0x40 DUP7 ADD MSTORE PUSH1 0x60 DUP2 ADD MLOAD PUSH1 0x60 DUP7 ADD MSTORE DUP3 PUSH1 0x80 DUP3 ADD MLOAD AND PUSH1 0x80 DUP7 ADD MSTORE DUP3 PUSH1 0xA0 DUP3 ADD MLOAD AND PUSH1 0xA0 DUP7 ADD MSTORE ADD MLOAD AND SWAP2 ADD MSTORE JUMP JUMPDEST PUSH1 0x40 MLOAD SWAP1 PUSH2 0x500A PUSH1 0x80 DUP4 PUSH2 0x3BB1 JUMP JUMPDEST PUSH1 0x0 PUSH1 0x60 DUP4 DUP3 DUP2 MSTORE DUP3 PUSH1 0x20 DUP3 ADD MSTORE DUP3 PUSH1 0x40 DUP3 ADD MSTORE ADD MSTORE JUMP JUMPDEST SWAP2 SWAP1 DUP3 PUSH1 0xA0 SWAP2 SUB SLT PUSH2 0x6E1 JUMPI PUSH1 0x40 MLOAD PUSH2 0x503C PUSH1 0xA0 DUP3 PUSH2 0x3BB1 JUMP JUMPDEST PUSH1 0x80 PUSH2 0x507A DUP2 DUP4 SWAP6 DUP1 CALLDATALOAD DUP6 MSTORE PUSH1 0x20 DUP2 ADD CALLDATALOAD PUSH1 0x20 DUP7 ADD MSTORE PUSH2 0x505E PUSH1 0x40 DUP3 ADD PUSH2 0x3A8E JUMP JUMPDEST PUSH1 0x40 DUP7 ADD MSTORE PUSH2 0x506F PUSH1 0x60 DUP3 ADD PUSH2 0x3A8E JUMP JUMPDEST PUSH1 0x60 DUP7 ADD MSTORE ADD PUSH2 0x3A8E JUMP JUMPDEST SWAP2 ADD MSTORE JUMP JUMPDEST SWAP2 SWAP1 PUSH2 0x508A SWAP1 PUSH2 0x4325 JUMP JUMPDEST SWAP2 SWAP1 SWAP3 PUSH2 0x5097 DUP4 DUP6 PUSH2 0x44DA JUMP JUMPDEST SWAP1 DUP1 DUP3 GT ISZERO PUSH2 0x50A4 JUMPI POP POP JUMP JUMPDEST PUSH1 0x44 SWAP3 POP PUSH1 0x40 MLOAD SWAP2 PUSH4 0x79121201 PUSH1 0xE0 SHL DUP4 MSTORE PUSH1 0x4 DUP4 ADD MSTORE PUSH1 0x24 DUP3 ADD MSTORE REVERT JUMPDEST SWAP3 SWAP1 SWAP4 SWAP2 PUSH1 0x0 SWAP2 PUSH1 0x0 SWAP2 DUP3 SWAP7 PUSH2 0x50D6 PUSH2 0x4FFB JUMP JUMPDEST SWAP7 PUSH1 0x1 PUSH1 0x1 PUSH1 0xA0 SHL SUB SWAP2 DUP6 SWAP1 DUP4 AND DUP1 PUSH2 0x52E2 JUMPI JUMPDEST POP DUP3 PUSH2 0x12F SLOAD AND DUP4 PUSH1 0x40 MLOAD SWAP4 PUSH4 0x6EB1769F PUSH1 0xE1 SHL DUP6 MSTORE AND DUP1 PUSH1 0x4 DUP6 ADD MSTORE ADDRESS PUSH1 0x24 DUP6 ADD MSTORE PUSH1 0x20 SWAP5 DUP6 DUP6 PUSH1 0x44 DUP2 DUP7 GAS STATICCALL SWAP5 DUP6 ISZERO PUSH2 0x52D7 JUMPI DUP5 SWAP6 PUSH2 0x52A8 JUMPI JUMPDEST POP DUP5 PUSH2 0x5187 JUMPI JUMPDEST POP POP POP POP POP DUP7 ADD MLOAD ISZERO PUSH2 0x5143 JUMPI JUMPDEST POP POP POP SWAP3 SWAP2 SWAP1 JUMP JUMPDEST SWAP1 SWAP2 SWAP3 POP PUSH2 0x515B PUSH8 0xDE0B6B3A7640000 SWAP3 DUP4 SWAP3 PUSH2 0x4436 JUMP JUMPDEST DIV DUP1 DUP6 MSTORE SWAP1 DUP3 ISZERO PUSH2 0x517F JUMPI PUSH2 0x5177 SWAP3 DIV SWAP1 DUP2 PUSH1 0x40 DUP7 ADD MSTORE PUSH2 0x4304 JUMP JUMPDEST CODESIZE DUP1 DUP1 PUSH2 0x513B JUMP JUMPDEST POP SWAP1 POP PUSH2 0x5177 JUMP JUMPDEST PUSH2 0x5195 SWAP1 PUSH2 0x130 SLOAD AND PUSH2 0x46AE JUMP JUMPDEST SWAP3 SWAP1 SWAP3 ISZERO PUSH2 0x512D JUMPI SWAP1 SWAP2 SWAP3 SWAP4 SWAP12 POP DUP5 DUP12 PUSH2 0x51CF DUP6 PUSH8 0xDE0B6B3A7640000 PUSH2 0x51C9 PUSH2 0x51BF DUP14 DUP14 PUSH2 0x4436 JUMP JUMPDEST PUSH2 0x143 SLOAD SWAP1 PUSH2 0x4436 JUMP JUMPDEST DIV PUSH2 0x4449 JUMP JUMPDEST DUP2 DUP4 ADD DUP2 DUP2 MSTORE SWAP6 SWAP1 DUP12 ISZERO PUSH2 0x529E JUMPI POP PUSH2 0x51FA SWAP2 PUSH2 0x51EE PUSH1 0x60 SWAP3 DUP14 PUSH2 0x4449 JUMP JUMPDEST SWAP2 DUP3 SWAP2 ADD MSTORE DUP6 MLOAD PUSH2 0x4304 JUMP JUMPDEST DUP1 SWAP14 JUMPDEST LT SWAP3 DUP4 ISZERO PUSH2 0x5229 JUMPI JUMPDEST POP POP POP PUSH2 0x5216 JUMPI JUMPDEST DUP1 DUP1 DUP1 PUSH2 0x512D JUMP JUMPDEST DUP2 SWAP3 SWAP10 POP MSTORE DUP1 PUSH1 0x60 DUP9 ADD MSTORE SWAP7 CODESIZE DUP1 PUSH2 0x520E JUMP JUMPDEST SWAP1 SWAP2 SWAP3 POP PUSH1 0x24 PUSH1 0x40 MLOAD DUP1 SWAP5 DUP2 SWAP4 PUSH4 0x70A08231 PUSH1 0xE0 SHL DUP4 MSTORE PUSH1 0x4 DUP4 ADD MSTORE GAS STATICCALL SWAP1 DUP2 ISZERO PUSH2 0x5293 JUMPI SWAP1 DUP12 SWAP2 DUP5 SWAP2 PUSH2 0x5262 JUMPI JUMPDEST POP LT CODESIZE DUP5 DUP2 PUSH2 0x5206 JUMP JUMPDEST DUP1 SWAP3 POP DUP6 DUP1 SWAP3 POP RETURNDATASIZE DUP4 GT PUSH2 0x528C JUMPI JUMPDEST PUSH2 0x527B DUP2 DUP4 PUSH2 0x3BB1 JUMP JUMPDEST DUP2 ADD SUB SLT PUSH2 0x8E0 JUMPI DUP11 SWAP1 MLOAD CODESIZE PUSH2 0x5258 JUMP JUMPDEST POP RETURNDATASIZE PUSH2 0x5271 JUMP JUMPDEST PUSH1 0x40 MLOAD RETURNDATASIZE DUP6 DUP3 RETURNDATACOPY RETURNDATASIZE SWAP1 REVERT JUMPDEST SWAP2 POP POP DUP1 SWAP14 PUSH2 0x51FD JUMP JUMPDEST SWAP1 SWAP5 POP DUP6 DUP2 DUP2 RETURNDATASIZE DUP4 GT PUSH2 0x52D0 JUMPI JUMPDEST PUSH2 0x52C0 DUP2 DUP4 PUSH2 0x3BB1 JUMP JUMPDEST DUP2 ADD SUB SLT PUSH2 0x9BA JUMPI MLOAD SWAP4 CODESIZE PUSH2 0x5126 JUMP JUMPDEST POP RETURNDATASIZE PUSH2 0x52B6 JUMP JUMPDEST PUSH1 0x40 MLOAD RETURNDATASIZE DUP7 DUP3 RETURNDATACOPY RETURNDATASIZE SWAP1 REVERT JUMPDEST SWAP1 SWAP6 POP PUSH1 0x20 DUP4 PUSH2 0x1C3 SLOAD AND SWAP2 PUSH1 0x24 PUSH1 0x40 MLOAD DUP1 SWAP5 DUP2 SWAP4 PUSH4 0x64A731E9 PUSH1 0xE0 SHL DUP4 MSTORE PUSH1 0x4 DUP4 ADD MSTORE GAS STATICCALL DUP1 ISZERO PUSH2 0x535A JUMPI DUP7 SWAP1 PUSH2 0x5327 JUMPI JUMPDEST PUSH2 0x5320 SWAP2 POP DUP5 PUSH2 0x4436 JUMP JUMPDEST SWAP5 CODESIZE PUSH2 0x50EA JUMP JUMPDEST POP PUSH1 0x20 DUP2 RETURNDATASIZE DUP3 GT PUSH2 0x5352 JUMPI JUMPDEST DUP2 PUSH2 0x5340 PUSH1 0x20 SWAP4 DUP4 PUSH2 0x3BB1 JUMP JUMPDEST DUP2 ADD SUB SLT PUSH2 0x296F JUMPI PUSH2 0x5320 SWAP1 MLOAD PUSH2 0x5315 JUMP JUMPDEST RETURNDATASIZE SWAP2 POP PUSH2 0x5333 JUMP JUMPDEST PUSH1 0x40 MLOAD RETURNDATASIZE DUP9 DUP3 RETURNDATACOPY RETURNDATASIZE SWAP1 REVERT JUMPDEST SWAP3 PUSH2 0x3B21 SWAP5 SWAP2 SWAP3 SWAP4 DUP3 MLOAD ISZERO ISZERO PUSH1 0x0 EQ PUSH2 0x53D5 JUMPI POP PUSH1 0x40 PUSH2 0x53D0 SWAP3 PUSH2 0x53C8 PUSH8 0xDE0B6B3A7640000 PUSH2 0x539A PUSH2 0x13B SLOAD DUP5 MLOAD SWAP1 PUSH2 0x4436 JUMP JUMPDEST DIV PUSH2 0x131 PUSH2 0x53A9 DUP3 DUP3 SLOAD PUSH2 0x4304 JUMP JUMPDEST SWAP1 SSTORE PUSH2 0x53C2 PUSH1 0x1 DUP1 PUSH1 0xA0 SHL SUB PUSH2 0x146 SLOAD AND SWAP2 DUP5 MLOAD PUSH2 0x4229 JUMP JUMPDEST SWAP1 PUSH2 0x40D3 JUMP JUMPDEST ADD MLOAD SWAP1 PUSH2 0x40D3 JUMP JUMPDEST PUSH2 0x40D3 JUMP JUMPDEST SWAP1 PUSH1 0x60 PUSH2 0x53D0 SWAP4 PUSH2 0x53F7 PUSH1 0x1 DUP1 PUSH1 0xA0 SHL SUB PUSH2 0x146 SLOAD AND PUSH1 0x20 DUP4 ADD MLOAD SWAP1 DUP7 PUSH2 0x53FB JUMP JUMPDEST ADD MLOAD SWAP2 JUMPDEST SWAP2 SWAP1 DUP2 PUSH2 0x5407 JUMPI POP POP POP JUMP JUMPDEST PUSH2 0x12F SLOAD PUSH2 0x3B21 SWAP4 SWAP1 PUSH1 0x1 PUSH1 0x1 PUSH1 0xA0 SHL SUB AND PUSH2 0x4E9C JUMP JUMPDEST SWAP2 SWAP1 DUP3 PUSH1 0xC0 SWAP2 SUB SLT PUSH2 0x6E1 JUMPI PUSH1 0x40 MLOAD PUSH2 0x5438 PUSH1 0xC0 DUP3 PUSH2 0x3BB1 JUMP JUMPDEST PUSH1 0xA0 PUSH2 0x507A DUP2 DUP4 SWAP6 PUSH2 0x5449 DUP2 PUSH2 0x3A8E JUMP JUMPDEST DUP6 MSTORE PUSH1 0x20 DUP2 ADD CALLDATALOAD PUSH1 0x20 DUP7 ADD MSTORE PUSH1 0x40 DUP2 ADD CALLDATALOAD PUSH1 0x40 DUP7 ADD MSTORE PUSH2 0x546B PUSH1 0x60 DUP3 ADD PUSH2 0x3A8E JUMP JUMPDEST PUSH1 0x60 DUP7 ADD MSTORE PUSH2 0x547C PUSH1 0x80 DUP3 ADD PUSH2 0x3A8E JUMP JUMPDEST PUSH1 0x80 DUP7 ADD MSTORE ADD PUSH2 0x3A8E JUMP JUMPDEST SWAP1 PUSH2 0x5494 SWAP5 SWAP4 SWAP3 SWAP2 PUSH2 0x4B79 JUMP JUMPDEST PUSH1 0x0 DUP2 SLT PUSH2 0x4C56 JUMPI SWAP1 JUMP JUMPDEST DUP1 PUSH2 0x54A8 PUSH2 0x47F7 JUMP JUMPDEST SWAP2 SWAP1 SWAP4 PUSH2 0x54B5 PUSH1 0x0 PUSH2 0x474E JUMP JUMPDEST SWAP5 ADD SWAP4 DUP3 SWAP2 PUSH2 0x554D JUMPI JUMPDEST ADD SWAP4 DUP5 PUSH1 0x0 DUP1 DUP3 SLT PUSH2 0x5547 JUMPI POP JUMPDEST DUP5 SUB SWAP2 DUP2 DUP6 GT PUSH2 0x550F JUMPI POP POP DUP2 DUP2 GT PUSH2 0x54F1 JUMPI POP POP PUSH2 0x155 SSTORE PUSH2 0x156 SSTORE NUMBER PUSH2 0x157 SSTORE JUMP JUMPDEST PUSH1 0x44 SWAP3 POP PUSH1 0x40 MLOAD SWAP2 PUSH4 0x6DA41E5 PUSH1 0xE1 SHL DUP4 MSTORE PUSH1 0x4 DUP4 ADD MSTORE PUSH1 0x24 DUP3 ADD MSTORE REVERT JUMPDEST SWAP1 DUP1 DUP6 SWAP3 GT PUSH2 0x5535 JUMPI PUSH1 0x44 SWAP2 PUSH1 0x40 MLOAD SWAP2 PUSH4 0x6DA41E5 PUSH1 0xE1 SHL DUP4 MSTORE PUSH1 0x4 DUP4 ADD MSTORE PUSH1 0x24 DUP3 ADD MSTORE REVERT JUMPDEST PUSH1 0x40 MLOAD PUSH4 0xFB4FD35 PUSH1 0xE1 SHL DUP2 MSTORE PUSH1 0x4 SWAP1 REVERT JUMPDEST SUB PUSH2 0x54CD JUMP JUMPDEST SWAP1 POP DUP2 PUSH1 0x0 SUB SWAP1 PUSH2 0x54BF JUMP JUMPDEST DUP1 SWAP2 SUB PUSH1 0xE0 DUP2 SLT PUSH2 0x6E1 JUMPI DUP2 MLOAD SWAP3 PUSH1 0x20 DUP4 ADD MLOAD SWAP3 PUSH1 0x80 PUSH1 0x40 DUP3 ADD MLOAD SWAP4 PUSH1 0x5F NOT ADD SLT PUSH2 0x6E1 JUMPI PUSH1 0xC0 PUSH1 0x40 MLOAD SWAP2 PUSH2 0x558F PUSH1 0x80 DUP5 PUSH2 0x3BB1 JUMP JUMPDEST PUSH1 0x60 DUP2 ADD MLOAD DUP4 MSTORE PUSH1 0x80 DUP2 ADD MLOAD PUSH1 0x20 DUP5 ADD MSTORE PUSH1 0xA0 DUP2 ADD MLOAD PUSH1 0x40 DUP5 ADD MSTORE ADD MLOAD PUSH1 0x60 DUP3 ADD MSTORE SWAP1 JUMP JUMPDEST SWAP2 SWAP1 DUP3 PUSH1 0xE0 SWAP2 SUB SLT PUSH2 0x6E1 JUMPI PUSH1 0x40 MLOAD PUSH2 0x55CE PUSH1 0xE0 DUP3 PUSH2 0x3BB1 JUMP JUMPDEST PUSH1 0xC0 PUSH2 0x507A DUP2 DUP4 SWAP6 PUSH2 0x55DF DUP2 PUSH2 0x3A8E JUMP JUMPDEST DUP6 MSTORE PUSH1 0x20 DUP2 ADD CALLDATALOAD PUSH1 0x20 DUP7 ADD MSTORE PUSH1 0x40 DUP2 ADD CALLDATALOAD PUSH1 0x40 DUP7 ADD MSTORE PUSH1 0x60 DUP2 ADD CALLDATALOAD PUSH1 0x60 DUP7 ADD MSTORE PUSH2 0x560B PUSH1 0x80 DUP3 ADD PUSH2 0x3A8E JUMP JUMPDEST PUSH1 0x80 DUP7 ADD MSTORE PUSH2 0x561C PUSH1 0xA0 DUP3 ADD PUSH2 0x3A8E JUMP JUMPDEST PUSH1 0xA0 DUP7 ADD MSTORE ADD PUSH2 0x3A8E JUMP JUMPDEST PUSH1 0x40 MLOAD PUSH4 0xA9059CBB PUSH1 0xE0 SHL PUSH1 0x20 DUP3 ADD MSTORE PUSH1 0x1 PUSH1 0x1 PUSH1 0xA0 SHL SUB SWAP1 SWAP3 AND PUSH1 0x24 DUP4 ADD MSTORE PUSH1 0x44 DUP3 ADD SWAP3 SWAP1 SWAP3 MSTORE PUSH2 0x3B21 SWAP2 PUSH2 0x4125 DUP3 PUSH1 0x64 DUP2 ADD PUSH2 0x4117 JUMP JUMPDEST PUSH1 0x97 SLOAD PUSH1 0x40 MLOAD PUSH4 0xD994D6D5 PUSH1 0xE0 SHL DUP2 MSTORE CALLER PUSH1 0x4 DUP3 ADD MSTORE SWAP1 PUSH1 0x20 SWAP1 DUP3 SWAP1 PUSH1 0x24 SWAP1 DUP3 SWAP1 PUSH1 0x1 PUSH1 0x1 PUSH1 0xA0 SHL SUB AND GAS STATICCALL SWAP1 DUP2 ISZERO PUSH2 0x42F8 JUMPI PUSH1 0x0 SWAP2 PUSH2 0x56B5 JUMPI JUMPDEST POP ISZERO PUSH2 0x56A3 JUMPI JUMP JUMPDEST PUSH1 0x40 MLOAD PUSH4 0x1DD1B1B5 PUSH1 0xE2 SHL DUP2 MSTORE PUSH1 0x4 SWAP1 REVERT JUMPDEST SWAP1 PUSH1 0x20 DUP3 RETURNDATASIZE DUP3 GT PUSH2 0x56E6 JUMPI JUMPDEST DUP2 PUSH2 0x56CE PUSH1 0x20 SWAP4 DUP4 PUSH2 0x3BB1 JUMP JUMPDEST DUP2 ADD SUB SLT PUSH2 0x78B JUMPI POP PUSH2 0x56E0 SWAP1 PUSH2 0x412A JUMP JUMPDEST CODESIZE PUSH2 0x569B JUMP JUMPDEST RETURNDATASIZE SWAP2 POP PUSH2 0x56C1 JUMP JUMPDEST PUSH1 0xFF PUSH1 0xCA SLOAD PUSH1 0x8 SHR AND PUSH2 0x56FD JUMPI JUMP JUMPDEST PUSH1 0x40 MLOAD PUSH4 0x783BB6C9 PUSH1 0xE1 SHL DUP2 MSTORE PUSH1 0x4 SWAP1 REVERT JUMPDEST SWAP1 PUSH8 0xDE0B6B3A7640000 SWAP2 DUP3 DUP2 MUL SWAP3 DUP2 DUP5 DIV EQ SWAP1 ISZERO OR ISZERO PUSH2 0x4236 JUMPI PUSH2 0x3AE2 SWAP2 PUSH2 0x4449 JUMP JUMPDEST PUSH8 0xDE0B6B3A7640000 GT ISZERO PUSH2 0x5744 JUMPI JUMP JUMPDEST PUSH1 0x40 MLOAD PUSH4 0x2A9FFAB7 PUSH1 0xE2 SHL DUP2 MSTORE PUSH1 0x4 SWAP1 REVERT INVALID LOG2 PUSH5 0x6970667358 0x22 SLT KECCAK256 STOP 0xE7 REVERT PUSH10 0x7166DA7484CA6B0DE811 0xF SWAP6 SMOD EXP 0xA9 0xCD 0x25 PUSH10 0x7C2016226857DBFC94C6 PUSH5 0x736F6C6343 STOP ADDMOD EQ STOP CALLER "
    },
    "gasEstimates": {
      "creation": {
        "codeDepositCost": "4482400",
        "executionCost": "infinite",
        "totalCost": "infinite"
      },
      "external": {
        "absoluteAccumulator()": "4692",
        "acToken()": "2711",
        "addPeggedToken((address,address,uint256,uint256,uint256,uint256,uint256))": "infinite",
        "appreciationFactor()": "5132",
        "bes()": "3174",
        "bns()": "2536",
        "calcCtargemaCA()": "infinite",
        "changeGovernor(address)": "infinite",
        "decayBlockSpan()": "3658",
        "differentialAccumulator()": "3768",
        "editPeggedToken((address,address,uint256,uint256,uint256,uint256,uint256))": "infinite",
        "emaCalculationBlockSpan()": "3900",
        "evalLiquidation()": "infinite",
        "execMintTC((uint256,uint256,address,address,address))": "infinite",
        "execMintTCandTP((address,uint256,uint256,address,address,address))": "infinite",
        "execMintTP((address,uint256,uint256,address,address,address))": "infinite",
        "execRedeemTC((uint256,uint256,address,address,address))": "infinite",
        "execRedeemTCandTP((address,uint256,uint256,uint256,address,address,address))": "infinite",
        "execRedeemTP((address,uint256,uint256,address,address,address))": "infinite",
        "execSettlement()": "infinite",
        "execSwapTCforTP((address,uint256,uint256,uint256,address,address,address))": "infinite",
        "execSwapTPforTC((address,uint256,uint256,uint256,address,address,address))": "infinite",
        "execSwapTPforTP((address,address,uint256,uint256,uint256,address,address,address))": "infinite",
        "feeRetainer()": "3218",
        "feeToken()": "3569",
        "feeTokenPct()": "2800",
        "feeTokenPriceProvider()": "5021",
        "getBts()": "5073",
        "getCglb()": "infinite",
        "getLckAC()": "infinite",
        "getLeverageTC()": "infinite",
        "getPACtp(address)": "infinite",
        "getPTCac()": "infinite",
        "getTCAvailableToRedeem()": "infinite",
        "getTPAvailableToMint(address)": "infinite",
        "getTotalACavailable()": "infinite",
        "getTpAmount()": "5215",
        "governor()": "2381",
        "initialize((((address,address,address,address,address,address,uint256,uint256,uint256,uint256,uint256,uint256,uint256,uint256,uint256,uint256,uint256,uint256,uint256,uint256,address,uint256,uint256,address,address,uint256),address,address,address,uint256,address),address))": "infinite",
        "isLiquidationReached()": "infinite",
        "lastOperationBlockNumber()": "3372",
        "liqEnabled()": "4946",
        "liqRedeemTP(address,address)": "infinite",
        "liqThrld()": "4142",
        "liquidated()": "2664",
        "makeStoppable()": "infinite",
        "makeUnstoppable()": "infinite",
        "maxAbsoluteOpProvider()": "4999",
        "maxOpDiffProvider()": "4427",
        "maxQACToMintTP()": "infinite",
        "maxQACToRedeemTP()": "infinite",
        "mintTC(uint256,uint256,address,address)": "infinite",
        "mintTCandTP(address,uint256,uint256,address,address)": "infinite",
        "mintTCandTPFee()": "3834",
        "mintTP(address,uint256,uint256,address,address)": "infinite",
        "mocAppreciationBeneficiaryAddress()": "3217",
        "mocFeeFlowAddress()": "4229",
        "mocQueue()": "2513",
        "mocVendors()": "4009",
        "nACcb()": "5066",
        "nTCcb()": "3856",
        "nextEmaCalculation()": "2382",
        "nextTCInterestPayment()": "4428",
        "pause()": "29430",
        "paused()": "3456",
        "pauser()": "4304",
        "pegContainer(uint256)": "9651",
        "peggedTokenIndex(address)": "6502",
        "protThrld()": "3636",
        "proxiableUUID()": "infinite",
        "qACLockedInPending()": "3460",
        "redeemTC(uint256,uint256,address,address)": "infinite",
        "redeemTCandTP(address,uint256,uint256,uint256,address,address)": "infinite",
        "redeemTCandTPFee()": "5088",
        "redeemTP(address,uint256,uint256,address,address)": "infinite",
        "refreshACBalance()": "infinite",
        "setAppreciationFactor(uint256)": "infinite",
        "setBes(uint256)": "infinite",
        "setDecayBlockSpan(uint256)": "infinite",
        "setEmaCalculationBlockSpan(uint256)": "infinite",
        "setFeeRetainer(uint256)": "infinite",
        "setFeeTokenAddress(address)": "infinite",
        "setFeeTokenPct(uint256)": "infinite",
        "setFeeTokenPriceProviderAddress(address)": "infinite",
        "setLiqEnabled(bool)": "infinite",
        "setLiqThrld(uint256)": "infinite",
        "setMaxAbsoluteOpProviderAddress(address)": "infinite",
        "setMaxOpDiffProviderAddress(address)": "infinite",
        "setMintTCandTPFee(uint256)": "infinite",
        "setMocAppreciationBeneficiaryAddress(address)": "infinite",
        "setMocCoreExpansion(address)": "infinite",
        "setMocFeeFlowAddress(address)": "infinite",
        "setMocQueue(address)": "infinite",
        "setMocVendors(address)": "infinite",
        "setPauser(address)": "infinite",
        "setProtThrld(uint256)": "infinite",
        "setRedeemTCandTPFee(uint256)": "infinite",
        "setSuccessFee(uint256)": "infinite",
        "setSwapTCforTPFee(uint256)": "infinite",
        "setSwapTPforTCFee(uint256)": "infinite",
        "setSwapTPforTPFee(uint256)": "infinite",
        "setTCInterestCollectorAddress(address)": "infinite",
        "setTCInterestPaymentBlockSpan(uint256)": "infinite",
        "setTCInterestRate(uint256)": "infinite",
        "setTcMintFee(uint256)": "infinite",
        "setTcRedeemFee(uint256)": "infinite",
        "shouldCalculateEma()": "4304",
        "stoppable()": "4462",
        "successFee()": "3746",
        "swapTCforTP(address,uint256,uint256,uint256,address,address)": "infinite",
        "swapTCforTPFee()": "2734",
        "swapTPforTC(address,uint256,uint256,uint256,address,address)": "infinite",
        "swapTPforTCFee()": "2866",
        "swapTPforTP(address,address,uint256,uint256,uint256,address,address)": "infinite",
        "swapTPforTPFee()": "3086",
        "tcHoldersInterestPayment()": "infinite",
        "tcInterestCollectorAddress()": "4185",
        "tcInterestPaymentBlockSpan()": "4032",
        "tcInterestRate()": "2426",
        "tcMintFee()": "5176",
        "tcRedeemFee()": "4340",
        "tcToken()": "3503",
        "tpCtarg(uint256)": "8332",
        "tpEma(uint256)": "11390",
        "tpLiqPrices(uint256)": "7320",
        "tpMintFees(address)": "2780",
        "tpRedeemFees(address)": "4892",
        "tpTokens(uint256)": "6678",
        "unlockACInPending(address,uint256)": "infinite",
        "unlockTCInPending(address,uint256)": "infinite",
        "unlockTPInPending(address,address,uint256)": "infinite",
        "unpause()": "infinite",
        "updateEmas()": "infinite",
        "upgradeTo(address)": "infinite",
        "upgradeToAndCall(address,bytes)": "infinite"
      },
      "internal": {
        "_getExecFeeSent(uint256,enum MocQueueExecFees.OperType)": "infinite",
        "_lockACInPending(uint256)": "infinite",
        "acBalanceOf(address)": "infinite",
        "acTransfer(address,uint256)": "infinite"
      }
    },
    "methodIdentifiers": {
      "absoluteAccumulator()": "d87aab6f",
      "acToken()": "25bc6c41",
      "addPeggedToken((address,address,uint256,uint256,uint256,uint256,uint256))": "db796072",
      "appreciationFactor()": "fa6e83bd",
      "bes()": "4d977e78",
      "bns()": "1867e2f5",
      "calcCtargemaCA()": "662013f4",
      "changeGovernor(address)": "e4c0aaf4",
      "decayBlockSpan()": "6f30471f",
      "differentialAccumulator()": "76228055",
      "editPeggedToken((address,address,uint256,uint256,uint256,uint256,uint256))": "f26114aa",
      "emaCalculationBlockSpan()": "7a727fe8",
      "evalLiquidation()": "33421c38",
      "execMintTC((uint256,uint256,address,address,address))": "235e81cf",
      "execMintTCandTP((address,uint256,uint256,address,address,address))": "883d21cb",
      "execMintTP((address,uint256,uint256,address,address,address))": "b4434c32",
      "execRedeemTC((uint256,uint256,address,address,address))": "bfe42621",
      "execRedeemTCandTP((address,uint256,uint256,uint256,address,address,address))": "d8c69aec",
      "execRedeemTP((address,uint256,uint256,address,address,address))": "ad4e666d",
      "execSettlement()": "5c616a73",
      "execSwapTCforTP((address,uint256,uint256,uint256,address,address,address))": "4af3a6fc",
      "execSwapTPforTC((address,uint256,uint256,uint256,address,address,address))": "bc4e55b2",
      "execSwapTPforTP((address,address,uint256,uint256,uint256,address,address,address))": "391bf6cf",
      "feeRetainer()": "4f0f27ee",
      "feeToken()": "647846a5",
      "feeTokenPct()": "2ded50f0",
      "feeTokenPriceProvider()": "f13f4054",
      "getBts()": "e8859a15",
      "getCglb()": "826fcd58",
      "getLckAC()": "8f1a383a",
      "getLeverageTC()": "c039cc69",
      "getPACtp(address)": "fadda424",
      "getPTCac()": "1fb0dda0",
      "getTCAvailableToRedeem()": "4017936a",
      "getTPAvailableToMint(address)": "f88b1434",
      "getTotalACavailable()": "de8d520a",
      "getTpAmount()": "fe6b92c1",
      "governor()": "0c340a24",
      "initialize((((address,address,address,address,address,address,uint256,uint256,uint256,uint256,uint256,uint256,uint256,uint256,uint256,uint256,uint256,uint256,uint256,uint256,address,uint256,uint256,address,address,uint256),address,address,address,uint256,address),address))": "60a01dfa",
      "isLiquidationReached()": "9ad6659d",
      "lastOperationBlockNumber()": "5860ee63",
      "liqEnabled()": "e7c25978",
      "liqRedeemTP(address,address)": "47dda6af",
      "liqThrld()": "8cfa4241",
      "liquidated()": "23b98cde",
      "makeStoppable()": "68274357",
      "makeUnstoppable()": "5210570c",
      "maxAbsoluteOpProvider()": "ee1f438f",
      "maxOpDiffProvider()": "b5e9ea8c",
      "maxQACToMintTP()": "d6af11da",
      "maxQACToRedeemTP()": "7f13b998",
      "mintTC(uint256,uint256,address,address)": "60ef07bf",
      "mintTCandTP(address,uint256,uint256,address,address)": "fdcdc11e",
      "mintTCandTPFee()": "79f9a91c",
      "mintTP(address,uint256,uint256,address,address)": "d2dc25a5",
      "mocAppreciationBeneficiaryAddress()": "4e1f907a",
      "mocFeeFlowAddress()": "9853c35a",
      "mocQueue()": "13ed7ba5",
      "mocVendors()": "7f01c715",
      "nACcb()": "f30b5614",
      "nTCcb()": "7a193c31",
      "nextEmaCalculation()": "0c36d897",
      "nextTCInterestPayment()": "b9fa6413",
      "pause()": "8456cb59",
      "paused()": "5c975abb",
      "pauser()": "9fd0506d",
      "pegContainer(uint256)": "4b746001",
      "peggedTokenIndex(address)": "9cabfc00",
      "protThrld()": "6b5488df",
      "proxiableUUID()": "52d1902d",
      "qACLockedInPending()": "5cfbe578",
      "redeemTC(uint256,uint256,address,address)": "b03e11a0",
      "redeemTCandTP(address,uint256,uint256,uint256,address,address)": "34d70ffa",
      "redeemTCandTPFee()": "f375cfba",
      "redeemTP(address,uint256,uint256,address,address)": "2eccb11c",
      "refreshACBalance()": "e23c135c",
      "setAppreciationFactor(uint256)": "01dde6ef",
      "setBes(uint256)": "c84353c9",
      "setDecayBlockSpan(uint256)": "73e28af9",
      "setEmaCalculationBlockSpan(uint256)": "3bc4ac0a",
      "setFeeRetainer(uint256)": "7750ba0c",
      "setFeeTokenAddress(address)": "cf351c1d",
      "setFeeTokenPct(uint256)": "543aeb48",
      "setFeeTokenPriceProviderAddress(address)": "0f1e5e2b",
      "setLiqEnabled(bool)": "1fe6a7ad",
      "setLiqThrld(uint256)": "2c43bd3b",
      "setMaxAbsoluteOpProviderAddress(address)": "d8db6f5a",
      "setMaxOpDiffProviderAddress(address)": "85bf9593",
      "setMintTCandTPFee(uint256)": "2069f753",
      "setMocAppreciationBeneficiaryAddress(address)": "27eab2a1",
      "setMocCoreExpansion(address)": "e6a683e0",
      "setMocFeeFlowAddress(address)": "0d6ac463",
      "setMocQueue(address)": "3cfb09ef",
      "setMocVendors(address)": "533a4bea",
      "setPauser(address)": "2d88af4a",
      "setProtThrld(uint256)": "7cba2383",
      "setRedeemTCandTPFee(uint256)": "7a4ff1d9",
      "setSuccessFee(uint256)": "becaca6b",
      "setSwapTCforTPFee(uint256)": "7af5758c",
      "setSwapTPforTCFee(uint256)": "0e0a8fd2",
      "setSwapTPforTPFee(uint256)": "70713468",
      "setTCInterestCollectorAddress(address)": "735d3960",
      "setTCInterestPaymentBlockSpan(uint256)": "073763b9",
      "setTCInterestRate(uint256)": "64ec230a",
      "setTcMintFee(uint256)": "f2808778",
      "setTcRedeemFee(uint256)": "c00f538d",
      "shouldCalculateEma()": "a8e9ac30",
      "stoppable()": "bb4872de",
      "successFee()": "7554fffd",
      "swapTCforTP(address,uint256,uint256,uint256,address,address)": "797709ca",
      "swapTCforTPFee()": "2a20d57d",
      "swapTPforTC(address,uint256,uint256,uint256,address,address)": "14b4906d",
      "swapTPforTCFee()": "333431fd",
      "swapTPforTP(address,address,uint256,uint256,uint256,address,address)": "2ed35ca1",
      "swapTPforTPFee()": "407f0e34",
      "tcHoldersInterestPayment()": "0579188f",
      "tcInterestCollectorAddress()": "8e2bdb86",
      "tcInterestPaymentBlockSpan()": "7f4a4fe0",
      "tcInterestRate()": "0db49656",
      "tcMintFee()": "fda70f8b",
      "tcRedeemFee()": "aea038dc",
      "tcToken()": "60009e0b",
      "tpCtarg(uint256)": "7d8e0314",
      "tpEma(uint256)": "e6b1627c",
      "tpLiqPrices(uint256)": "3915edcb",
      "tpMintFees(address)": "24ffaba3",
      "tpRedeemFees(address)": "ddb6d190",
      "tpTokens(uint256)": "01f1b684",
      "unlockACInPending(address,uint256)": "58f32de9",
      "unlockTCInPending(address,uint256)": "53b16d17",
      "unlockTPInPending(address,address,uint256)": "e2c5e990",
      "unpause()": "3f4ba83a",
      "updateEmas()": "d1a0faa0",
      "upgradeTo(address)": "3659cfe6",
      "upgradeToAndCall(address,bytes)": "4f1ef286"
    }
  },
  "storageLayout": {
    "storage": [
      {
        "astId": 950,
        "contract": "contracts/collateral/rc20/MocCARC20.sol:MocCARC20",
        "label": "_initialized",
        "offset": 0,
        "slot": "0",
        "type": "t_uint8"
      },
      {
        "astId": 953,
        "contract": "contracts/collateral/rc20/MocCARC20.sol:MocCARC20",
        "label": "_initializing",
        "offset": 1,
        "slot": "0",
        "type": "t_bool"
      },
      {
        "astId": 932,
        "contract": "contracts/collateral/rc20/MocCARC20.sol:MocCARC20",
        "label": "__gap",
        "offset": 0,
        "slot": "1",
        "type": "t_array(t_uint256)50_storage"
      },
      {
        "astId": 1247,
        "contract": "contracts/collateral/rc20/MocCARC20.sol:MocCARC20",
        "label": "__gap",
        "offset": 0,
        "slot": "51",
        "type": "t_array(t_uint256)50_storage"
      },
      {
        "astId": 25922,
        "contract": "contracts/collateral/rc20/MocCARC20.sol:MocCARC20",
        "label": "__gap",
        "offset": 0,
        "slot": "101",
        "type": "t_array(t_uint256)50_storage"
      },
      {
        "astId": 19559,
        "contract": "contracts/collateral/rc20/MocCARC20.sol:MocCARC20",
        "label": "governor",
        "offset": 0,
        "slot": "151",
        "type": "t_contract(IGovernor)20396"
      },
      {
        "astId": 19630,
        "contract": "contracts/collateral/rc20/MocCARC20.sol:MocCARC20",
        "label": "__gap",
        "offset": 0,
        "slot": "152",
        "type": "t_array(t_uint256)50_storage"
      },
      {
        "astId": 19699,
        "contract": "contracts/collateral/rc20/MocCARC20.sol:MocCARC20",
        "label": "stoppable",
        "offset": 0,
        "slot": "202",
        "type": "t_bool"
      },
      {
        "astId": 19701,
        "contract": "contracts/collateral/rc20/MocCARC20.sol:MocCARC20",
        "label": "_paused",
        "offset": 1,
        "slot": "202",
        "type": "t_bool"
      },
      {
        "astId": 19703,
        "contract": "contracts/collateral/rc20/MocCARC20.sol:MocCARC20",
        "label": "pauser",
        "offset": 2,
        "slot": "202",
        "type": "t_address"
      },
      {
        "astId": 19875,
        "contract": "contracts/collateral/rc20/MocCARC20.sol:MocCARC20",
        "label": "__gap",
        "offset": 0,
        "slot": "203",
        "type": "t_array(t_uint256)50_storage"
      },
      {
        "astId": 19681,
        "contract": "contracts/collateral/rc20/MocCARC20.sol:MocCARC20",
        "label": "__gap",
        "offset": 0,
        "slot": "253",
        "type": "t_array(t_uint256)50_storage"
      },
      {
        "astId": 9261,
        "contract": "contracts/collateral/rc20/MocCARC20.sol:MocCARC20",
        "label": "feeToken",
        "offset": 0,
        "slot": "303",
        "type": "t_contract(IERC20)6209"
      },
      {
        "astId": 9264,
        "contract": "contracts/collateral/rc20/MocCARC20.sol:MocCARC20",
        "label": "feeTokenPriceProvider",
        "offset": 0,
        "slot": "304",
        "type": "t_contract(IPriceProvider)20434"
      },
      {
        "astId": 9266,
        "contract": "contracts/collateral/rc20/MocCARC20.sol:MocCARC20",
        "label": "nACcb",
        "offset": 0,
        "slot": "305",
        "type": "t_uint256"
      },
      {
        "astId": 9268,
        "contract": "contracts/collateral/rc20/MocCARC20.sol:MocCARC20",
        "label": "nACioucb",
        "offset": 0,
        "slot": "306",
        "type": "t_uint256"
      },
      {
        "astId": 9271,
        "contract": "contracts/collateral/rc20/MocCARC20.sol:MocCARC20",
        "label": "tcToken",
        "offset": 0,
        "slot": "307",
        "type": "t_contract(MocTC)25747"
      },
      {
        "astId": 9273,
        "contract": "contracts/collateral/rc20/MocCARC20.sol:MocCARC20",
        "label": "nTCcb",
        "offset": 0,
        "slot": "308",
        "type": "t_uint256"
      },
      {
        "astId": 9277,
        "contract": "contracts/collateral/rc20/MocCARC20.sol:MocCARC20",
        "label": "tpTokens",
        "offset": 0,
        "slot": "309",
        "type": "t_array(t_contract(IMocRC20)20422)dyn_storage"
      },
      {
        "astId": 9282,
        "contract": "contracts/collateral/rc20/MocCARC20.sol:MocCARC20",
        "label": "peggedTokenIndex",
        "offset": 0,
        "slot": "310",
        "type": "t_mapping(t_address,t_struct(PeggedTokenIndex)9205_storage)"
      },
      {
        "astId": 9286,
        "contract": "contracts/collateral/rc20/MocCARC20.sol:MocCARC20",
        "label": "pegContainer",
        "offset": 0,
        "slot": "311",
        "type": "t_array(t_struct(PegContainerItem)9200_storage)dyn_storage"
      },
      {
        "astId": 9289,
        "contract": "contracts/collateral/rc20/MocCARC20.sol:MocCARC20",
        "label": "tpLiqPrices",
        "offset": 0,
        "slot": "312",
        "type": "t_array(t_uint256)dyn_storage"
      },
      {
        "astId": 9291,
        "contract": "contracts/collateral/rc20/MocCARC20.sol:MocCARC20",
        "label": "successFee",
        "offset": 0,
        "slot": "313",
        "type": "t_uint256"
      },
      {
        "astId": 9293,
        "contract": "contracts/collateral/rc20/MocCARC20.sol:MocCARC20",
        "label": "appreciationFactor",
        "offset": 0,
        "slot": "314",
        "type": "t_uint256"
      },
      {
        "astId": 9295,
        "contract": "contracts/collateral/rc20/MocCARC20.sol:MocCARC20",
        "label": "feeRetainer",
        "offset": 0,
        "slot": "315",
        "type": "t_uint256"
      },
      {
        "astId": 9297,
        "contract": "contracts/collateral/rc20/MocCARC20.sol:MocCARC20",
        "label": "tcMintFee",
        "offset": 0,
        "slot": "316",
        "type": "t_uint256"
      },
      {
        "astId": 9299,
        "contract": "contracts/collateral/rc20/MocCARC20.sol:MocCARC20",
        "label": "tcRedeemFee",
        "offset": 0,
        "slot": "317",
        "type": "t_uint256"
      },
      {
        "astId": 9301,
        "contract": "contracts/collateral/rc20/MocCARC20.sol:MocCARC20",
        "label": "swapTPforTPFee",
        "offset": 0,
        "slot": "318",
        "type": "t_uint256"
      },
      {
        "astId": 9303,
        "contract": "contracts/collateral/rc20/MocCARC20.sol:MocCARC20",
        "label": "swapTPforTCFee",
        "offset": 0,
        "slot": "319",
        "type": "t_uint256"
      },
      {
        "astId": 9305,
        "contract": "contracts/collateral/rc20/MocCARC20.sol:MocCARC20",
        "label": "swapTCforTPFee",
        "offset": 0,
        "slot": "320",
        "type": "t_uint256"
      },
      {
        "astId": 9307,
        "contract": "contracts/collateral/rc20/MocCARC20.sol:MocCARC20",
        "label": "redeemTCandTPFee",
        "offset": 0,
        "slot": "321",
        "type": "t_uint256"
      },
      {
        "astId": 9309,
        "contract": "contracts/collateral/rc20/MocCARC20.sol:MocCARC20",
        "label": "mintTCandTPFee",
        "offset": 0,
        "slot": "322",
        "type": "t_uint256"
      },
      {
        "astId": 9311,
        "contract": "contracts/collateral/rc20/MocCARC20.sol:MocCARC20",
        "label": "feeTokenPct",
        "offset": 0,
        "slot": "323",
        "type": "t_uint256"
      },
      {
        "astId": 9315,
        "contract": "contracts/collateral/rc20/MocCARC20.sol:MocCARC20",
        "label": "tpMintFees",
        "offset": 0,
        "slot": "324",
        "type": "t_mapping(t_address,t_uint256)"
      },
      {
        "astId": 9319,
        "contract": "contracts/collateral/rc20/MocCARC20.sol:MocCARC20",
        "label": "tpRedeemFees",
        "offset": 0,
        "slot": "325",
        "type": "t_mapping(t_address,t_uint256)"
      },
      {
        "astId": 9321,
        "contract": "contracts/collateral/rc20/MocCARC20.sol:MocCARC20",
        "label": "mocFeeFlowAddress",
        "offset": 0,
        "slot": "326",
        "type": "t_address"
      },
      {
        "astId": 9323,
        "contract": "contracts/collateral/rc20/MocCARC20.sol:MocCARC20",
        "label": "mocAppreciationBeneficiaryAddress",
        "offset": 0,
        "slot": "327",
        "type": "t_address"
      },
      {
        "astId": 9326,
        "contract": "contracts/collateral/rc20/MocCARC20.sol:MocCARC20",
        "label": "tpCtarg",
        "offset": 0,
        "slot": "328",
        "type": "t_array(t_uint256)dyn_storage"
      },
      {
        "astId": 9328,
        "contract": "contracts/collateral/rc20/MocCARC20.sol:MocCARC20",
        "label": "protThrld",
        "offset": 0,
        "slot": "329",
        "type": "t_uint256"
      },
      {
        "astId": 9330,
        "contract": "contracts/collateral/rc20/MocCARC20.sol:MocCARC20",
        "label": "liqThrld",
        "offset": 0,
        "slot": "330",
        "type": "t_uint256"
      },
      {
        "astId": 9332,
        "contract": "contracts/collateral/rc20/MocCARC20.sol:MocCARC20",
        "label": "liqEnabled",
        "offset": 0,
        "slot": "331",
        "type": "t_bool"
      },
      {
        "astId": 9334,
        "contract": "contracts/collateral/rc20/MocCARC20.sol:MocCARC20",
        "label": "liquidated",
        "offset": 1,
        "slot": "331",
        "type": "t_bool"
      },
      {
        "astId": 9336,
        "contract": "contracts/collateral/rc20/MocCARC20.sol:MocCARC20",
        "label": "bes",
        "offset": 0,
        "slot": "332",
        "type": "t_uint256"
      },
      {
        "astId": 9338,
        "contract": "contracts/collateral/rc20/MocCARC20.sol:MocCARC20",
        "label": "bns",
        "offset": 0,
        "slot": "333",
        "type": "t_uint256"
      },
      {
        "astId": 9340,
        "contract": "contracts/collateral/rc20/MocCARC20.sol:MocCARC20",
        "label": "qACLockedInPending",
        "offset": 0,
        "slot": "334",
        "type": "t_uint256"
      },
      {
        "astId": 9342,
        "contract": "contracts/collateral/rc20/MocCARC20.sol:MocCARC20",
        "label": "mocQueue",
        "offset": 0,
        "slot": "335",
        "type": "t_address_payable"
      },
      {
        "astId": 9345,
        "contract": "contracts/collateral/rc20/MocCARC20.sol:MocCARC20",
        "label": "tpiou",
        "offset": 0,
        "slot": "336",
        "type": "t_array(t_int256)dyn_storage"
      },
      {
        "astId": 9348,
        "contract": "contracts/collateral/rc20/MocCARC20.sol:MocCARC20",
        "label": "pACtpLstop",
        "offset": 0,
        "slot": "337",
        "type": "t_array(t_uint256)dyn_storage"
      },
      {
        "astId": 9351,
        "contract": "contracts/collateral/rc20/MocCARC20.sol:MocCARC20",
        "label": "maxAbsoluteOpProvider",
        "offset": 0,
        "slot": "338",
        "type": "t_contract(IDataProvider)20375"
      },
      {
        "astId": 9354,
        "contract": "contracts/collateral/rc20/MocCARC20.sol:MocCARC20",
        "label": "maxOpDiffProvider",
        "offset": 0,
        "slot": "339",
        "type": "t_contract(IDataProvider)20375"
      },
      {
        "astId": 9356,
        "contract": "contracts/collateral/rc20/MocCARC20.sol:MocCARC20",
        "label": "decayBlockSpan",
        "offset": 0,
        "slot": "340",
        "type": "t_uint256"
      },
      {
        "astId": 9358,
        "contract": "contracts/collateral/rc20/MocCARC20.sol:MocCARC20",
        "label": "absoluteAccumulator",
        "offset": 0,
        "slot": "341",
        "type": "t_uint256"
      },
      {
        "astId": 9360,
        "contract": "contracts/collateral/rc20/MocCARC20.sol:MocCARC20",
        "label": "differentialAccumulator",
        "offset": 0,
        "slot": "342",
        "type": "t_int256"
      },
      {
        "astId": 9362,
        "contract": "contracts/collateral/rc20/MocCARC20.sol:MocCARC20",
        "label": "lastOperationBlockNumber",
        "offset": 0,
        "slot": "343",
        "type": "t_uint256"
      },
      {
        "astId": 9364,
        "contract": "contracts/collateral/rc20/MocCARC20.sol:MocCARC20",
        "label": "tcInterestCollectorAddress",
        "offset": 0,
        "slot": "344",
        "type": "t_address"
      },
      {
        "astId": 9366,
        "contract": "contracts/collateral/rc20/MocCARC20.sol:MocCARC20",
        "label": "tcInterestRate",
        "offset": 0,
        "slot": "345",
        "type": "t_uint256"
      },
      {
        "astId": 9368,
        "contract": "contracts/collateral/rc20/MocCARC20.sol:MocCARC20",
        "label": "tcInterestPaymentBlockSpan",
        "offset": 0,
        "slot": "346",
        "type": "t_uint256"
      },
      {
        "astId": 9370,
        "contract": "contracts/collateral/rc20/MocCARC20.sol:MocCARC20",
        "label": "nextTCInterestPayment",
        "offset": 0,
        "slot": "347",
        "type": "t_uint256"
      },
      {
        "astId": 10983,
        "contract": "contracts/collateral/rc20/MocCARC20.sol:MocCARC20",
        "label": "__gap",
        "offset": 0,
        "slot": "348",
        "type": "t_array(t_uint256)50_storage"
      },
      {
        "astId": 14765,
        "contract": "contracts/collateral/rc20/MocCARC20.sol:MocCARC20",
        "label": "tpEma",
        "offset": 0,
        "slot": "398",
        "type": "t_array(t_struct(EmaItem)14761_storage)dyn_storage"
      },
      {
        "astId": 14767,
        "contract": "contracts/collateral/rc20/MocCARC20.sol:MocCARC20",
        "label": "nextEmaCalculation",
        "offset": 0,
        "slot": "399",
        "type": "t_uint256"
      },
      {
        "astId": 14769,
        "contract": "contracts/collateral/rc20/MocCARC20.sol:MocCARC20",
        "label": "emaCalculationBlockSpan",
        "offset": 0,
        "slot": "400",
        "type": "t_uint256"
      },
      {
        "astId": 15141,
        "contract": "contracts/collateral/rc20/MocCARC20.sol:MocCARC20",
        "label": "__gap",
        "offset": 0,
        "slot": "401",
        "type": "t_array(t_uint256)50_storage"
      },
      {
        "astId": 11017,
        "contract": "contracts/collateral/rc20/MocCARC20.sol:MocCARC20",
        "label": "mocVendors",
        "offset": 0,
        "slot": "451",
        "type": "t_contract(MocVendors)26052"
      },
      {
        "astId": 11890,
        "contract": "contracts/collateral/rc20/MocCARC20.sol:MocCARC20",
        "label": "__gap",
        "offset": 0,
        "slot": "452",
        "type": "t_array(t_uint256)50_storage"
      },
      {
        "astId": 11939,
        "contract": "contracts/collateral/rc20/MocCARC20.sol:MocCARC20",
        "label": "mocCoreExpansion",
        "offset": 0,
        "slot": "502",
        "type": "t_address"
      },
      {
        "astId": 13528,
        "contract": "contracts/collateral/rc20/MocCARC20.sol:MocCARC20",
        "label": "__gap",
        "offset": 0,
        "slot": "503",
        "type": "t_array(t_uint256)50_storage"
      },
      {
        "astId": 8822,
        "contract": "contracts/collateral/rc20/MocCARC20.sol:MocCARC20",
        "label": "acToken",
        "offset": 0,
        "slot": "553",
        "type": "t_contract(IERC20)6209"
      },
      {
        "astId": 9163,
        "contract": "contracts/collateral/rc20/MocCARC20.sol:MocCARC20",
        "label": "__gap",
        "offset": 0,
        "slot": "554",
        "type": "t_array(t_uint256)50_storage"
      }
    ],
    "types": {
      "t_address": {
        "encoding": "inplace",
        "label": "address",
        "numberOfBytes": "20"
      },
      "t_address_payable": {
        "encoding": "inplace",
        "label": "address payable",
        "numberOfBytes": "20"
      },
      "t_array(t_contract(IMocRC20)20422)dyn_storage": {
        "base": "t_contract(IMocRC20)20422",
        "encoding": "dynamic_array",
        "label": "contract IMocRC20[]",
        "numberOfBytes": "32"
      },
      "t_array(t_int256)dyn_storage": {
        "base": "t_int256",
        "encoding": "dynamic_array",
        "label": "int256[]",
        "numberOfBytes": "32"
      },
      "t_array(t_struct(EmaItem)14761_storage)dyn_storage": {
        "base": "t_struct(EmaItem)14761_storage",
        "encoding": "dynamic_array",
        "label": "struct MocEma.EmaItem[]",
        "numberOfBytes": "32"
      },
      "t_array(t_struct(PegContainerItem)9200_storage)dyn_storage": {
        "base": "t_struct(PegContainerItem)9200_storage",
        "encoding": "dynamic_array",
        "label": "struct MocBaseBucket.PegContainerItem[]",
        "numberOfBytes": "32"
      },
      "t_array(t_uint256)50_storage": {
        "base": "t_uint256",
        "encoding": "inplace",
        "label": "uint256[50]",
        "numberOfBytes": "1600"
      },
      "t_array(t_uint256)dyn_storage": {
        "base": "t_uint256",
        "encoding": "dynamic_array",
        "label": "uint256[]",
        "numberOfBytes": "32"
      },
      "t_bool": {
        "encoding": "inplace",
        "label": "bool",
        "numberOfBytes": "1"
      },
      "t_contract(IDataProvider)20375": {
        "encoding": "inplace",
        "label": "contract IDataProvider",
        "numberOfBytes": "20"
      },
      "t_contract(IERC20)6209": {
        "encoding": "inplace",
        "label": "contract IERC20",
        "numberOfBytes": "20"
      },
      "t_contract(IGovernor)20396": {
        "encoding": "inplace",
        "label": "contract IGovernor",
        "numberOfBytes": "20"
      },
      "t_contract(IMocRC20)20422": {
        "encoding": "inplace",
        "label": "contract IMocRC20",
        "numberOfBytes": "20"
      },
      "t_contract(IPriceProvider)20434": {
        "encoding": "inplace",
        "label": "contract IPriceProvider",
        "numberOfBytes": "20"
      },
      "t_contract(MocTC)25747": {
        "encoding": "inplace",
        "label": "contract MocTC",
        "numberOfBytes": "20"
      },
      "t_contract(MocVendors)26052": {
        "encoding": "inplace",
        "label": "contract MocVendors",
        "numberOfBytes": "20"
      },
      "t_int256": {
        "encoding": "inplace",
        "label": "int256",
        "numberOfBytes": "32"
      },
      "t_mapping(t_address,t_struct(PeggedTokenIndex)9205_storage)": {
        "encoding": "mapping",
        "key": "t_address",
        "label": "mapping(address => struct MocBaseBucket.PeggedTokenIndex)",
        "numberOfBytes": "32",
        "value": "t_struct(PeggedTokenIndex)9205_storage"
      },
      "t_mapping(t_address,t_uint256)": {
        "encoding": "mapping",
        "key": "t_address",
        "label": "mapping(address => uint256)",
        "numberOfBytes": "32",
        "value": "t_uint256"
      },
      "t_struct(EmaItem)14761_storage": {
        "encoding": "inplace",
        "label": "struct MocEma.EmaItem",
        "members": [
          {
            "astId": 14758,
            "contract": "contracts/collateral/rc20/MocCARC20.sol:MocCARC20",
            "label": "ema",
            "offset": 0,
            "slot": "0",
            "type": "t_uint256"
          },
          {
            "astId": 14760,
            "contract": "contracts/collateral/rc20/MocCARC20.sol:MocCARC20",
            "label": "sf",
            "offset": 0,
            "slot": "1",
            "type": "t_uint256"
          }
        ],
        "numberOfBytes": "64"
      },
      "t_struct(PegContainerItem)9200_storage": {
        "encoding": "inplace",
        "label": "struct MocBaseBucket.PegContainerItem",
        "members": [
          {
            "astId": 9196,
            "contract": "contracts/collateral/rc20/MocCARC20.sol:MocCARC20",
            "label": "nTP",
            "offset": 0,
            "slot": "0",
            "type": "t_uint256"
          },
          {
            "astId": 9199,
            "contract": "contracts/collateral/rc20/MocCARC20.sol:MocCARC20",
            "label": "priceProvider",
            "offset": 0,
            "slot": "1",
            "type": "t_contract(IPriceProvider)20434"
          }
        ],
        "numberOfBytes": "64"
      },
      "t_struct(PeggedTokenIndex)9205_storage": {
        "encoding": "inplace",
        "label": "struct MocBaseBucket.PeggedTokenIndex",
        "members": [
          {
            "astId": 9202,
            "contract": "contracts/collateral/rc20/MocCARC20.sol:MocCARC20",
            "label": "index",
            "offset": 0,
            "slot": "0",
            "type": "t_uint256"
          },
          {
            "astId": 9204,
            "contract": "contracts/collateral/rc20/MocCARC20.sol:MocCARC20",
            "label": "exists",
            "offset": 0,
            "slot": "1",
            "type": "t_bool"
          }
        ],
        "numberOfBytes": "64"
      },
      "t_uint256": {
        "encoding": "inplace",
        "label": "uint256",
        "numberOfBytes": "32"
      },
      "t_uint8": {
        "encoding": "inplace",
        "label": "uint8",
        "numberOfBytes": "1"
      }
    }
  },
  "userdoc": {
    "kind": "user",
    "methods": {
      "addPeggedToken((address,address,uint256,uint256,uint256,uint256,uint256))": {
        "notice": "add a Pegged Token to the protocol"
      },
      "calcCtargemaCA()": {
        "notice": "calculates target coverage adjusted by all Pegged Token's to Collateral Asset rate moving average"
      },
      "changeGovernor(address)": {
        "notice": "Change the contract's governor. Should be called through the old governance system"
      },
      "editPeggedToken((address,address,uint256,uint256,uint256,uint256,uint256))": {
        "notice": "modifies a Pegged Token of the protocol"
      },
      "evalLiquidation()": {
        "notice": "evaluates if liquidation threshold has been reached and liq is Enabled. If so forces contracts liquidation, blocking all mint & redeem operations. May emit a {ContractLiquidated} event."
      },
      "execMintTC((uint256,uint256,address,address,address))": {
        "notice": "executes Operation based on params, only mocQueue allowed see MocCore _mintTCto for details"
      },
      "execMintTCandTP((address,uint256,uint256,address,address,address))": {
        "notice": "executes Operation based on params, only mocQueue allowed see MocCore _mintTCandTPto for details"
      },
      "execMintTP((address,uint256,uint256,address,address,address))": {
        "notice": "executes Operation based on params, only mocQueue allowed see MocCore _mintTPto for details"
      },
      "execRedeemTC((uint256,uint256,address,address,address))": {
        "notice": "executes Operation based on params, only mocQueue allowed see MocCore _redeemTCto for details"
      },
      "execRedeemTCandTP((address,uint256,uint256,uint256,address,address,address))": {
        "notice": "executes Operation based on params, only mocQueue allowed see MocCore _redeemTCandTPto for details"
      },
      "execRedeemTP((address,uint256,uint256,address,address,address))": {
        "notice": "executes Operation based on params, only mocQueue allowed see MocCore _redeemTPto for details"
      },
      "execSettlement()": {
        "notice": "this function is executed during settlement.  stores amount of locked AC by Pegged Tokens at this moment and distribute success fee"
      },
      "execSwapTCforTP((address,uint256,uint256,uint256,address,address,address))": {
        "notice": "executes Operation based on params, only mocQueue allowed see MocCore _swapTCforTPto for details"
      },
      "execSwapTPforTC((address,uint256,uint256,uint256,address,address,address))": {
        "notice": "executes Operation based on params, only mocQueue allowed see MocCore _swapTPforTCto for details"
      },
      "execSwapTPforTP((address,address,uint256,uint256,uint256,address,address,address))": {
        "notice": "executes Operation based on params, only mocQueue allowed see MocCore _swapTPforTPto for details"
      },
      "getBts()": {
        "notice": "get the number of blocks remaining for settlement"
      },
      "getCglb()": {
        "notice": "get bucket global coverage"
      },
      "getLckAC()": {
        "notice": "get amount of Collateral Asset locked by Pegged Token"
      },
      "getLeverageTC()": {
        "notice": "get Collateral Token leverage"
      },
      "getPACtp(address)": {
        "notice": "get how many Pegged Token equal 1 Collateral Asset"
      },
      "getPTCac()": {
        "notice": "get Collateral Token price"
      },
      "getTCAvailableToRedeem()": {
        "notice": "get amount of Collateral Token available to redeem"
      },
      "getTPAvailableToMint(address)": {
        "notice": "get amount of Pegged Token available to mint"
      },
      "getTotalACavailable()": {
        "notice": "get total Collateral Asset available"
      },
      "getTpAmount()": {
        "notice": "return current amount of Tps"
      },
      "governor()": {
        "notice": "The address of the contract which governs this one"
      },
      "initialize((((address,address,address,address,address,address,uint256,uint256,uint256,uint256,uint256,uint256,uint256,uint256,uint256,uint256,uint256,uint256,uint256,uint256,address,uint256,uint256,address,address,uint256),address,address,address,uint256,address),address))": {
        "notice": "contract initializer"
      },
      "isLiquidationReached()": {
        "notice": "If liquidation is enabled, verifies if forced liquidation has been reached, checking if globalCoverage <= liquidation"
      },
      "liqRedeemTP(address,address)": {
        "notice": "Allow redeem on liquidation state, user Peg balance gets burned and he receives the equivalent AC given the liquidation frozen price."
      },
      "makeStoppable()": {
        "notice": "Switches ON the stoppability of the contract. It can be paused or unpaused  Doesn't change the pause state, if the contract was already paused it cannot be operated"
      },
      "makeUnstoppable()": {
        "notice": "Switches OFF the stoppability of the contract. It cannot be paused or unpaused Doesn't change the pause state, if the contract was already paused it cannot be operated"
      },
      "maxQACToMintTP()": {
        "notice": "gets the max amount of AC allowed to operate to mint TP with, restricted by accumulators // TODO: move this function to a MocView contract"
      },
      "maxQACToRedeemTP()": {
        "notice": "gets the max amount of AC allowed to operate to redeem TP with, restricted by accumulators // TODO: move this function to a MocView contract"
      },
      "mintTC(uint256,uint256,address,address)": {
        "notice": "caller sends Collateral Asset and recipient receives Collateral Token  `vendor_` receives a markup in Fee Token if possible or in qAC if not   Requires prior sender approval of Collateral Asset to this contract"
      },
      "mintTCandTP(address,uint256,uint256,address,address)": {
        "notice": "caller sends Collateral Asset and recipient receives Collateral Token and Pegged Token  `vendor_` receives a markup in Fee Token if possible or in qAC if not  Requires prior sender approval of Collateral Asset to this contract  This operation is done without checking coverage  Collateral Token and Pegged Token are minted in equivalent proportions so that its price  and global coverage are not modified.  Reverts if qAC sent are insufficient."
      },
      "mintTP(address,uint256,uint256,address,address)": {
        "notice": "caller sends Collateral Asset and recipient receives Pegged Token  `vendor_` receives a markup in Fee Token if possible or in qAC if not   Requires prior sender approval of Collateral Asset to this contract"
      },
      "pause()": {
        "notice": "Called by the owner to pause, triggers stopped state"
      },
      "paused()": {
        "notice": "Returns true if paused"
      },
      "redeemTC(uint256,uint256,address,address)": {
        "notice": "caller sends Collateral Token and recipient receives Collateral Asset  `vendor_` receives a markup in Fee Token if possible or in qAC if not"
      },
      "redeemTCandTP(address,uint256,uint256,uint256,address,address)": {
        "notice": "Caller sends Collateral Token and Pegged Token and recipient receives Collateral Asset.  `vendor_` receives a markup in Fee Token if possible or in Collateral Asset if not  This operation is done without checking coverage  Collateral Token and Pegged Token are redeemed in equivalent proportions so that their price  and global coverage are not modified.  Reverts if qTP sent are insufficient."
      },
      "redeemTP(address,uint256,uint256,address,address)": {
        "notice": "caller sends Pegged Token and recipient receives Collateral Asset  `vendor_` receives a markup in Fee Token if possible or in qAC if not"
      },
      "refreshACBalance()": {
        "notice": "Refreshes the AC holdings for the Bucket"
      },
      "setPauser(address)": {
        "notice": "Changes the address which is enable to pause this contract"
      },
      "shouldCalculateEma()": {
        "notice": "true if the necessary span has pass since last ema update"
      },
      "swapTCforTP(address,uint256,uint256,uint256,address,address)": {
        "notice": "Caller sends a Collateral Token and recipient receives Pegged Token.  `vendor_` receives a markup in Fee Token if possible or in qAC if not."
      },
      "swapTPforTC(address,uint256,uint256,uint256,address,address)": {
        "notice": "caller sends a Pegged Token and recipient receives Collateral Token  `vendor_` receives a markup in Fee Token if possible or in qAC if not"
      },
      "swapTPforTP(address,address,uint256,uint256,uint256,address,address)": {
        "notice": "caller sends a Pegged Token and recipient receives another one  `vendor_` receives a markup in Fee Token if possible or in qAC if not"
      },
      "tcHoldersInterestPayment()": {
        "notice": "executes the interest payment of the TC holders  can only be executed after a block span"
      },
      "unlockACInPending(address,uint256)": {
        "notice": "while executing a pending Operation, if it fails we need to unlock user's funds"
      },
      "unlockTCInPending(address,uint256)": {
        "notice": "while executing a pending Operation, if it fails we need to unlock user's tokens"
      },
      "unlockTPInPending(address,address,uint256)": {
        "notice": "while executing a pending Operation, if it fails we need to unlock user's tokens"
      },
      "unpause()": {
        "notice": "Called by the owner to unpause, returns to normal state"
      },
      "updateEmas()": {
        "notice": "If time, calculates the EMA for all the Pegged Token prices."
      }
    },
    "notice": "Moc protocol implementation using a RC20 as Collateral Asset.",
    "version": 1
  }
}