{
  "contractName": "MocCARC20",
  "sourceName": "contracts/collateral/rc20/MocCARC20.sol",
  "abi": [
    {
      "inputs": [],
      "stateMutability": "nonpayable",
      "type": "constructor"
    },
    {
      "inputs": [
        {
          "internalType": "uint256",
          "name": "qACsent_",
          "type": "uint256"
        },
        {
          "internalType": "uint256",
          "name": "qACNeeded_",
          "type": "uint256"
        }
      ],
      "name": "InsufficientQacSent",
      "type": "error"
    },
    {
      "inputs": [
        {
          "internalType": "uint256",
          "name": "qTPsent_",
          "type": "uint256"
        },
        {
          "internalType": "uint256",
          "name": "qTPNeeded_",
          "type": "uint256"
        }
      ],
      "name": "InsufficientQtpSent",
      "type": "error"
    },
    {
      "inputs": [
        {
          "internalType": "uint256",
          "name": "qTC_",
          "type": "uint256"
        },
        {
          "internalType": "uint256",
          "name": "tcAvailableToRedeem_",
          "type": "uint256"
        }
      ],
      "name": "InsufficientTCtoRedeem",
      "type": "error"
    },
    {
      "inputs": [
        {
          "internalType": "uint256",
          "name": "qTP_",
          "type": "uint256"
        },
        {
          "internalType": "uint256",
          "name": "tpAvailableToMint_",
          "type": "uint256"
        }
      ],
      "name": "InsufficientTPtoMint",
      "type": "error"
    },
    {
      "inputs": [
        {
          "internalType": "uint256",
          "name": "qTP_",
          "type": "uint256"
        },
        {
          "internalType": "uint256",
          "name": "tpAvailableToRedeem_",
          "type": "uint256"
        }
      ],
      "name": "InsufficientTPtoRedeem",
      "type": "error"
    },
    {
      "inputs": [],
      "name": "InvalidAddress",
      "type": "error"
    },
    {
      "inputs": [],
      "name": "InvalidFluxCapacitorOperation",
      "type": "error"
    },
    {
      "inputs": [],
      "name": "InvalidValue",
      "type": "error"
    },
    {
      "inputs": [],
      "name": "Liquidated",
      "type": "error"
    },
    {
      "inputs": [
        {
          "internalType": "uint256",
          "name": "cglb_",
          "type": "uint256"
        },
        {
          "internalType": "uint256",
          "name": "covThrld_",
          "type": "uint256"
        }
      ],
      "name": "LowCoverage",
      "type": "error"
    },
    {
      "inputs": [
        {
          "internalType": "uint256",
          "name": "max_",
          "type": "uint256"
        },
        {
          "internalType": "uint256",
          "name": "new_",
          "type": "uint256"
        }
      ],
      "name": "MaxFluxCapacitorOperationReached",
      "type": "error"
    },
    {
      "inputs": [],
      "name": "MissingBlocksToSettlement",
      "type": "error"
    },
    {
      "inputs": [],
      "name": "MissingBlocksToTCInterestPayment",
      "type": "error"
    },
    {
      "inputs": [
        {
          "internalType": "address",
          "name": "dataProviderAddress_",
          "type": "address"
        }
      ],
      "name": "MissingProviderData",
      "type": "error"
    },
    {
      "inputs": [
        {
          "internalType": "address",
          "name": "priceProviderAddress_",
          "type": "address"
        }
      ],
      "name": "MissingProviderPrice",
      "type": "error"
    },
    {
      "inputs": [],
      "name": "NotAuthorizedChanger",
      "type": "error"
    },
    {
      "inputs": [],
      "name": "NotWhenPaused",
      "type": "error"
    },
    {
      "inputs": [],
      "name": "OnlyPauser",
      "type": "error"
    },
    {
      "inputs": [],
      "name": "OnlyWhenLiquidated",
      "type": "error"
    },
    {
      "inputs": [],
      "name": "OnlyWhilePaused",
      "type": "error"
    },
    {
      "inputs": [],
      "name": "PeggedTokenAlreadyAdded",
      "type": "error"
    },
    {
      "inputs": [
        {
          "internalType": "uint256",
          "name": "qACmin_",
          "type": "uint256"
        },
        {
          "internalType": "uint256",
          "name": "qACtoRedeem_",
          "type": "uint256"
        }
      ],
      "name": "QacBelowMinimumRequired",
      "type": "error"
    },
    {
      "inputs": [],
      "name": "QacNeededMustBeGreaterThanZero",
      "type": "error"
    },
    {
      "inputs": [
        {
          "internalType": "uint256",
          "name": "qTCmin_",
          "type": "uint256"
        },
        {
          "internalType": "uint256",
          "name": "qTC_",
          "type": "uint256"
        }
      ],
      "name": "QtcBelowMinimumRequired",
      "type": "error"
    },
    {
      "inputs": [
        {
          "internalType": "uint256",
          "name": "qTPmin_",
          "type": "uint256"
        },
        {
          "internalType": "uint256",
          "name": "qTP_",
          "type": "uint256"
        }
      ],
      "name": "QtpBelowMinimumRequired",
      "type": "error"
    },
    {
      "inputs": [],
      "name": "TransferFailed",
      "type": "error"
    },
    {
      "inputs": [],
      "name": "Unstoppable",
      "type": "error"
    },
    {
      "anonymous": false,
      "inputs": [
        {
          "indexed": false,
          "internalType": "address",
          "name": "previousAdmin",
          "type": "address"
        },
        {
          "indexed": false,
          "internalType": "address",
          "name": "newAdmin",
          "type": "address"
        }
      ],
      "name": "AdminChanged",
      "type": "event"
    },
    {
      "anonymous": false,
      "inputs": [
        {
          "indexed": true,
          "internalType": "address",
          "name": "beacon",
          "type": "address"
        }
      ],
      "name": "BeaconUpgraded",
      "type": "event"
    },
    {
      "anonymous": false,
      "inputs": [],
      "name": "ContractLiquidated",
      "type": "event"
    },
    {
      "anonymous": false,
      "inputs": [
        {
          "indexed": false,
          "internalType": "uint8",
          "name": "version",
          "type": "uint8"
        }
      ],
      "name": "Initialized",
      "type": "event"
    },
    {
      "anonymous": false,
      "inputs": [
        {
          "indexed": true,
          "internalType": "address",
          "name": "tp_",
          "type": "address"
        },
        {
          "indexed": true,
          "internalType": "address",
          "name": "sender_",
          "type": "address"
        },
        {
          "indexed": true,
          "internalType": "address",
          "name": "recipient_",
          "type": "address"
        },
        {
          "indexed": false,
          "internalType": "uint256",
          "name": "qTP_",
          "type": "uint256"
        },
        {
          "indexed": false,
          "internalType": "uint256",
          "name": "qAC_",
          "type": "uint256"
        }
      ],
      "name": "LiqTPRedeemed",
      "type": "event"
    },
    {
      "anonymous": false,
      "inputs": [
        {
          "indexed": false,
          "internalType": "address",
          "name": "account",
          "type": "address"
        }
      ],
      "name": "Paused",
      "type": "event"
    },
    {
      "anonymous": false,
      "inputs": [
        {
          "indexed": false,
          "internalType": "uint256",
          "name": "i_",
          "type": "uint256"
        },
        {
          "components": [
            {
              "internalType": "address",
              "name": "tpTokenAddress",
              "type": "address"
            },
            {
              "internalType": "address",
              "name": "priceProviderAddress",
              "type": "address"
            },
            {
              "internalType": "uint256",
              "name": "tpCtarg",
              "type": "uint256"
            },
            {
              "internalType": "uint256",
              "name": "tpMintFee",
              "type": "uint256"
            },
            {
              "internalType": "uint256",
              "name": "tpRedeemFee",
              "type": "uint256"
            },
            {
              "internalType": "uint256",
              "name": "tpEma",
              "type": "uint256"
            },
            {
              "internalType": "uint256",
              "name": "tpEmaSf",
              "type": "uint256"
            }
          ],
          "indexed": false,
          "internalType": "struct PeggedTokenParams",
          "name": "peggedTokenParams_",
          "type": "tuple"
        }
      ],
      "name": "PeggedTokenChange",
      "type": "event"
    },
    {
      "anonymous": false,
      "inputs": [],
      "name": "SettlementExecuted",
      "type": "event"
    },
    {
      "anonymous": false,
      "inputs": [
        {
          "indexed": false,
          "internalType": "uint256",
          "name": "mocGain_",
          "type": "uint256"
        },
        {
          "indexed": false,
          "internalType": "uint256[]",
          "name": "tpGain_",
          "type": "uint256[]"
        }
      ],
      "name": "SuccessFeeDistributed",
      "type": "event"
    },
    {
      "anonymous": false,
      "inputs": [
        {
          "indexed": false,
          "internalType": "uint256",
          "name": "interestAmount_",
          "type": "uint256"
        }
      ],
      "name": "TCInterestPayment",
      "type": "event"
    },
    {
      "anonymous": false,
      "inputs": [
        {
          "indexed": true,
          "internalType": "address",
          "name": "sender_",
          "type": "address"
        },
        {
          "indexed": true,
          "internalType": "address",
          "name": "recipient_",
          "type": "address"
        },
        {
          "indexed": false,
          "internalType": "uint256",
          "name": "qTC_",
          "type": "uint256"
        },
        {
          "indexed": false,
          "internalType": "uint256",
          "name": "qAC_",
          "type": "uint256"
        },
        {
          "indexed": false,
          "internalType": "uint256",
          "name": "qACfee_",
          "type": "uint256"
        },
        {
          "indexed": false,
          "internalType": "uint256",
          "name": "qFeeToken_",
          "type": "uint256"
        },
        {
          "indexed": false,
          "internalType": "uint256",
          "name": "qACVendorMarkup_",
          "type": "uint256"
        },
        {
          "indexed": false,
          "internalType": "uint256",
          "name": "qFeeTokenVendorMarkup_",
          "type": "uint256"
        },
        {
          "indexed": false,
          "internalType": "address",
          "name": "vendor_",
          "type": "address"
        }
      ],
      "name": "TCMinted",
      "type": "event"
    },
    {
      "anonymous": false,
      "inputs": [
        {
          "indexed": true,
          "internalType": "address",
          "name": "sender_",
          "type": "address"
        },
        {
          "indexed": true,
          "internalType": "address",
          "name": "recipient_",
          "type": "address"
        },
        {
          "indexed": false,
          "internalType": "uint256",
          "name": "qTC_",
          "type": "uint256"
        },
        {
          "indexed": false,
          "internalType": "uint256",
          "name": "qAC_",
          "type": "uint256"
        },
        {
          "indexed": false,
          "internalType": "uint256",
          "name": "qACfee_",
          "type": "uint256"
        },
        {
          "indexed": false,
          "internalType": "uint256",
          "name": "qFeeToken_",
          "type": "uint256"
        },
        {
          "indexed": false,
          "internalType": "uint256",
          "name": "qACVendorMarkup_",
          "type": "uint256"
        },
        {
          "indexed": false,
          "internalType": "uint256",
          "name": "qFeeTokenVendorMarkup_",
          "type": "uint256"
        },
        {
          "indexed": false,
          "internalType": "address",
          "name": "vendor_",
          "type": "address"
        }
      ],
      "name": "TCRedeemed",
      "type": "event"
    },
    {
      "anonymous": false,
      "inputs": [
        {
          "indexed": true,
          "internalType": "address",
          "name": "tp_",
          "type": "address"
        },
        {
          "indexed": true,
          "internalType": "address",
          "name": "sender_",
          "type": "address"
        },
        {
          "indexed": true,
          "internalType": "address",
          "name": "recipient_",
          "type": "address"
        },
        {
          "indexed": false,
          "internalType": "uint256",
          "name": "qTC_",
          "type": "uint256"
        },
        {
          "indexed": false,
          "internalType": "uint256",
          "name": "qTP_",
          "type": "uint256"
        },
        {
          "indexed": false,
          "internalType": "uint256",
          "name": "qACfee_",
          "type": "uint256"
        },
        {
          "indexed": false,
          "internalType": "uint256",
          "name": "qFeeToken_",
          "type": "uint256"
        },
        {
          "indexed": false,
          "internalType": "uint256",
          "name": "qACVendorMarkup_",
          "type": "uint256"
        },
        {
          "indexed": false,
          "internalType": "uint256",
          "name": "qFeeTokenVendorMarkup_",
          "type": "uint256"
        },
        {
          "indexed": false,
          "internalType": "address",
          "name": "vendor_",
          "type": "address"
        }
      ],
      "name": "TCSwappedForTP",
      "type": "event"
    },
    {
      "anonymous": false,
      "inputs": [
        {
          "indexed": true,
          "internalType": "address",
          "name": "tp_",
          "type": "address"
        },
        {
          "indexed": true,
          "internalType": "address",
          "name": "sender_",
          "type": "address"
        },
        {
          "indexed": true,
          "internalType": "address",
          "name": "recipient_",
          "type": "address"
        },
        {
          "indexed": false,
          "internalType": "uint256",
          "name": "qTC_",
          "type": "uint256"
        },
        {
          "indexed": false,
          "internalType": "uint256",
          "name": "qTP_",
          "type": "uint256"
        },
        {
          "indexed": false,
          "internalType": "uint256",
          "name": "qAC_",
          "type": "uint256"
        },
        {
          "indexed": false,
          "internalType": "uint256",
          "name": "qACfee_",
          "type": "uint256"
        },
        {
          "indexed": false,
          "internalType": "uint256",
          "name": "qFeeToken_",
          "type": "uint256"
        },
        {
          "indexed": false,
          "internalType": "uint256",
          "name": "qACVendorMarkup_",
          "type": "uint256"
        },
        {
          "indexed": false,
          "internalType": "uint256",
          "name": "qFeeTokenVendorMarkup_",
          "type": "uint256"
        },
        {
          "indexed": false,
          "internalType": "address",
          "name": "vendor_",
          "type": "address"
        }
      ],
      "name": "TCandTPMinted",
      "type": "event"
    },
    {
      "anonymous": false,
      "inputs": [
        {
          "indexed": true,
          "internalType": "address",
          "name": "tp_",
          "type": "address"
        },
        {
          "indexed": true,
          "internalType": "address",
          "name": "sender_",
          "type": "address"
        },
        {
          "indexed": true,
          "internalType": "address",
          "name": "recipient_",
          "type": "address"
        },
        {
          "indexed": false,
          "internalType": "uint256",
          "name": "qTC_",
          "type": "uint256"
        },
        {
          "indexed": false,
          "internalType": "uint256",
          "name": "qTP_",
          "type": "uint256"
        },
        {
          "indexed": false,
          "internalType": "uint256",
          "name": "qAC_",
          "type": "uint256"
        },
        {
          "indexed": false,
          "internalType": "uint256",
          "name": "qACfee_",
          "type": "uint256"
        },
        {
          "indexed": false,
          "internalType": "uint256",
          "name": "qFeeToken_",
          "type": "uint256"
        },
        {
          "indexed": false,
          "internalType": "uint256",
          "name": "qACVendorMarkup_",
          "type": "uint256"
        },
        {
          "indexed": false,
          "internalType": "uint256",
          "name": "qFeeTokenVendorMarkup_",
          "type": "uint256"
        },
        {
          "indexed": false,
          "internalType": "address",
          "name": "vendor_",
          "type": "address"
        }
      ],
      "name": "TCandTPRedeemed",
      "type": "event"
    },
    {
      "anonymous": false,
      "inputs": [
        {
          "indexed": true,
          "internalType": "address",
          "name": "tp_",
          "type": "address"
        },
        {
          "indexed": true,
          "internalType": "address",
          "name": "sender_",
          "type": "address"
        },
        {
          "indexed": true,
          "internalType": "address",
          "name": "recipient_",
          "type": "address"
        },
        {
          "indexed": false,
          "internalType": "uint256",
          "name": "qTP_",
          "type": "uint256"
        },
        {
          "indexed": false,
          "internalType": "uint256",
          "name": "qAC_",
          "type": "uint256"
        },
        {
          "indexed": false,
          "internalType": "uint256",
          "name": "qACfee_",
          "type": "uint256"
        },
        {
          "indexed": false,
          "internalType": "uint256",
          "name": "qFeeToken_",
          "type": "uint256"
        },
        {
          "indexed": false,
          "internalType": "uint256",
          "name": "qACVendorMarkup_",
          "type": "uint256"
        },
        {
          "indexed": false,
          "internalType": "uint256",
          "name": "qFeeTokenVendorMarkup_",
          "type": "uint256"
        },
        {
          "indexed": false,
          "internalType": "address",
          "name": "vendor_",
          "type": "address"
        }
      ],
      "name": "TPMinted",
      "type": "event"
    },
    {
      "anonymous": false,
      "inputs": [
        {
          "indexed": true,
          "internalType": "address",
          "name": "tp_",
          "type": "address"
        },
        {
          "indexed": true,
          "internalType": "address",
          "name": "sender_",
          "type": "address"
        },
        {
          "indexed": true,
          "internalType": "address",
          "name": "recipient_",
          "type": "address"
        },
        {
          "indexed": false,
          "internalType": "uint256",
          "name": "qTP_",
          "type": "uint256"
        },
        {
          "indexed": false,
          "internalType": "uint256",
          "name": "qAC_",
          "type": "uint256"
        },
        {
          "indexed": false,
          "internalType": "uint256",
          "name": "qACfee_",
          "type": "uint256"
        },
        {
          "indexed": false,
          "internalType": "uint256",
          "name": "qFeeToken_",
          "type": "uint256"
        },
        {
          "indexed": false,
          "internalType": "uint256",
          "name": "qACVendorMarkup_",
          "type": "uint256"
        },
        {
          "indexed": false,
          "internalType": "uint256",
          "name": "qFeeTokenVendorMarkup_",
          "type": "uint256"
        },
        {
          "indexed": false,
          "internalType": "address",
          "name": "vendor_",
          "type": "address"
        }
      ],
      "name": "TPRedeemed",
      "type": "event"
    },
    {
      "anonymous": false,
      "inputs": [
        {
          "indexed": true,
          "internalType": "address",
          "name": "tp_",
          "type": "address"
        },
        {
          "indexed": true,
          "internalType": "address",
          "name": "sender_",
          "type": "address"
        },
        {
          "indexed": true,
          "internalType": "address",
          "name": "recipient_",
          "type": "address"
        },
        {
          "indexed": false,
          "internalType": "uint256",
          "name": "qTP_",
          "type": "uint256"
        },
        {
          "indexed": false,
          "internalType": "uint256",
          "name": "qTC_",
          "type": "uint256"
        },
        {
          "indexed": false,
          "internalType": "uint256",
          "name": "qACfee_",
          "type": "uint256"
        },
        {
          "indexed": false,
          "internalType": "uint256",
          "name": "qFeeToken_",
          "type": "uint256"
        },
        {
          "indexed": false,
          "internalType": "uint256",
          "name": "qACVendorMarkup_",
          "type": "uint256"
        },
        {
          "indexed": false,
          "internalType": "uint256",
          "name": "qFeeTokenVendorMarkup_",
          "type": "uint256"
        },
        {
          "indexed": false,
          "internalType": "address",
          "name": "vendor_",
          "type": "address"
        }
      ],
      "name": "TPSwappedForTC",
      "type": "event"
    },
    {
      "anonymous": false,
      "inputs": [
        {
          "indexed": true,
          "internalType": "address",
          "name": "tpFrom_",
          "type": "address"
        },
        {
          "indexed": false,
          "internalType": "address",
          "name": "tpTo_",
          "type": "address"
        },
        {
          "indexed": true,
          "internalType": "address",
          "name": "sender_",
          "type": "address"
        },
        {
          "indexed": true,
          "internalType": "address",
          "name": "recipient_",
          "type": "address"
        },
        {
          "indexed": false,
          "internalType": "uint256",
          "name": "qTPfrom_",
          "type": "uint256"
        },
        {
          "indexed": false,
          "internalType": "uint256",
          "name": "qTPto_",
          "type": "uint256"
        },
        {
          "indexed": false,
          "internalType": "uint256",
          "name": "qACfee_",
          "type": "uint256"
        },
        {
          "indexed": false,
          "internalType": "uint256",
          "name": "qFeeToken_",
          "type": "uint256"
        },
        {
          "indexed": false,
          "internalType": "uint256",
          "name": "qACVendorMarkup_",
          "type": "uint256"
        },
        {
          "indexed": false,
          "internalType": "uint256",
          "name": "qFeeTokenVendorMarkup_",
          "type": "uint256"
        },
        {
          "indexed": false,
          "internalType": "address",
          "name": "vendor_",
          "type": "address"
        }
      ],
      "name": "TPSwappedForTP",
      "type": "event"
    },
    {
      "anonymous": false,
      "inputs": [
        {
          "indexed": true,
          "internalType": "uint256",
          "name": "i_",
          "type": "uint256"
        },
        {
          "indexed": false,
          "internalType": "uint256",
          "name": "oldTPema_",
          "type": "uint256"
        },
        {
          "indexed": false,
          "internalType": "uint256",
          "name": "newTPema_",
          "type": "uint256"
        }
      ],
      "name": "TPemaUpdated",
      "type": "event"
    },
    {
      "anonymous": false,
      "inputs": [
        {
          "indexed": false,
          "internalType": "address",
          "name": "account",
          "type": "address"
        }
      ],
      "name": "Unpaused",
      "type": "event"
    },
    {
      "anonymous": false,
      "inputs": [
        {
          "indexed": true,
          "internalType": "address",
          "name": "implementation",
          "type": "address"
        }
      ],
      "name": "Upgraded",
      "type": "event"
    },
    {
      "inputs": [],
      "name": "absoluteAccumulator",
      "outputs": [
        {
          "internalType": "uint256",
          "name": "",
          "type": "uint256"
        }
      ],
      "stateMutability": "view",
      "type": "function"
    },
    {
      "inputs": [],
      "name": "acToken",
      "outputs": [
        {
          "internalType": "contract IERC20",
          "name": "",
          "type": "address"
        }
      ],
      "stateMutability": "view",
      "type": "function"
    },
    {
      "inputs": [
        {
          "components": [
            {
              "internalType": "address",
              "name": "tpTokenAddress",
              "type": "address"
            },
            {
              "internalType": "address",
              "name": "priceProviderAddress",
              "type": "address"
            },
            {
              "internalType": "uint256",
              "name": "tpCtarg",
              "type": "uint256"
            },
            {
              "internalType": "uint256",
              "name": "tpMintFee",
              "type": "uint256"
            },
            {
              "internalType": "uint256",
              "name": "tpRedeemFee",
              "type": "uint256"
            },
            {
              "internalType": "uint256",
              "name": "tpEma",
              "type": "uint256"
            },
            {
              "internalType": "uint256",
              "name": "tpEmaSf",
              "type": "uint256"
            }
          ],
          "internalType": "struct PeggedTokenParams",
          "name": "peggedTokenParams_",
          "type": "tuple"
        }
      ],
      "name": "addPeggedToken",
      "outputs": [],
      "stateMutability": "nonpayable",
      "type": "function"
    },
    {
      "inputs": [],
      "name": "appreciationFactor",
      "outputs": [
        {
          "internalType": "uint256",
          "name": "",
          "type": "uint256"
        }
      ],
      "stateMutability": "view",
      "type": "function"
    },
    {
      "inputs": [],
      "name": "bes",
      "outputs": [
        {
          "internalType": "uint256",
          "name": "",
          "type": "uint256"
        }
      ],
      "stateMutability": "view",
      "type": "function"
    },
    {
      "inputs": [],
      "name": "bns",
      "outputs": [
        {
          "internalType": "uint256",
          "name": "",
          "type": "uint256"
        }
      ],
      "stateMutability": "view",
      "type": "function"
    },
    {
      "inputs": [],
      "name": "calcCtargemaCA",
      "outputs": [
        {
          "internalType": "uint256",
          "name": "ctargemaCA",
          "type": "uint256"
        }
      ],
      "stateMutability": "view",
      "type": "function"
    },
    {
      "inputs": [
        {
          "internalType": "contract IGovernor",
          "name": "newGovernor_",
          "type": "address"
        }
      ],
      "name": "changeGovernor",
      "outputs": [],
      "stateMutability": "nonpayable",
      "type": "function"
    },
    {
      "inputs": [],
      "name": "decayBlockSpan",
      "outputs": [
        {
          "internalType": "uint256",
          "name": "",
          "type": "uint256"
        }
      ],
      "stateMutability": "view",
      "type": "function"
    },
    {
      "inputs": [],
      "name": "differentialAccumulator",
      "outputs": [
        {
          "internalType": "int256",
          "name": "",
          "type": "int256"
        }
      ],
      "stateMutability": "view",
      "type": "function"
    },
    {
      "inputs": [
        {
          "components": [
            {
              "internalType": "address",
              "name": "tpTokenAddress",
              "type": "address"
            },
            {
              "internalType": "address",
              "name": "priceProviderAddress",
              "type": "address"
            },
            {
              "internalType": "uint256",
              "name": "tpCtarg",
              "type": "uint256"
            },
            {
              "internalType": "uint256",
              "name": "tpMintFee",
              "type": "uint256"
            },
            {
              "internalType": "uint256",
              "name": "tpRedeemFee",
              "type": "uint256"
            },
            {
              "internalType": "uint256",
              "name": "tpEma",
              "type": "uint256"
            },
            {
              "internalType": "uint256",
              "name": "tpEmaSf",
              "type": "uint256"
            }
          ],
          "internalType": "struct PeggedTokenParams",
          "name": "peggedTokenParams_",
          "type": "tuple"
        }
      ],
      "name": "editPeggedToken",
      "outputs": [],
      "stateMutability": "nonpayable",
      "type": "function"
    },
    {
      "inputs": [],
      "name": "emaCalculationBlockSpan",
      "outputs": [
        {
          "internalType": "uint256",
          "name": "",
          "type": "uint256"
        }
      ],
      "stateMutability": "view",
      "type": "function"
    },
    {
      "inputs": [],
      "name": "evalLiquidation",
      "outputs": [],
      "stateMutability": "nonpayable",
      "type": "function"
    },
    {
      "inputs": [],
      "name": "execSettlement",
      "outputs": [],
      "stateMutability": "nonpayable",
      "type": "function"
    },
    {
      "inputs": [],
      "name": "feeRetainer",
      "outputs": [
        {
          "internalType": "uint256",
          "name": "",
          "type": "uint256"
        }
      ],
      "stateMutability": "view",
      "type": "function"
    },
    {
      "inputs": [],
      "name": "feeToken",
      "outputs": [
        {
          "internalType": "contract IERC20",
          "name": "",
          "type": "address"
        }
      ],
      "stateMutability": "view",
      "type": "function"
    },
    {
      "inputs": [],
      "name": "feeTokenPct",
      "outputs": [
        {
          "internalType": "uint256",
          "name": "",
          "type": "uint256"
        }
      ],
      "stateMutability": "view",
      "type": "function"
    },
    {
      "inputs": [],
      "name": "feeTokenPriceProvider",
      "outputs": [
        {
          "internalType": "contract IPriceProvider",
          "name": "",
          "type": "address"
        }
      ],
      "stateMutability": "view",
      "type": "function"
    },
    {
      "inputs": [],
      "name": "getBts",
      "outputs": [
        {
          "internalType": "uint256",
          "name": "",
          "type": "uint256"
        }
      ],
      "stateMutability": "view",
      "type": "function"
    },
    {
      "inputs": [],
      "name": "getCglb",
      "outputs": [
        {
          "internalType": "uint256",
          "name": "cglob",
          "type": "uint256"
        }
      ],
      "stateMutability": "view",
      "type": "function"
    },
    {
      "inputs": [],
      "name": "getLckAC",
      "outputs": [
        {
          "internalType": "uint256",
          "name": "lckAC",
          "type": "uint256"
        }
      ],
      "stateMutability": "view",
      "type": "function"
    },
    {
      "inputs": [],
      "name": "getLeverageTC",
      "outputs": [
        {
          "internalType": "uint256",
          "name": "leverageTC",
          "type": "uint256"
        }
      ],
      "stateMutability": "view",
      "type": "function"
    },
    {
      "inputs": [
        {
          "internalType": "address",
          "name": "tp_",
          "type": "address"
        }
      ],
      "name": "getPACtp",
      "outputs": [
        {
          "internalType": "uint256",
          "name": "",
          "type": "uint256"
        }
      ],
      "stateMutability": "view",
      "type": "function"
    },
    {
      "inputs": [],
      "name": "getPTCac",
      "outputs": [
        {
          "internalType": "uint256",
          "name": "pTCac",
          "type": "uint256"
        }
      ],
      "stateMutability": "view",
      "type": "function"
    },
    {
      "inputs": [],
      "name": "getTCAvailableToRedeem",
      "outputs": [
        {
          "internalType": "int256",
          "name": "tcAvailableToRedeem",
          "type": "int256"
        }
      ],
      "stateMutability": "view",
      "type": "function"
    },
    {
      "inputs": [
        {
          "internalType": "address",
          "name": "tp_",
          "type": "address"
        }
      ],
      "name": "getTPAvailableToMint",
      "outputs": [
        {
          "internalType": "int256",
          "name": "tpAvailableToMint",
          "type": "int256"
        }
      ],
      "stateMutability": "view",
      "type": "function"
    },
    {
      "inputs": [],
      "name": "getTotalACavailable",
      "outputs": [
        {
          "internalType": "uint256",
          "name": "totalACavailable",
          "type": "uint256"
        }
      ],
      "stateMutability": "view",
      "type": "function"
    },
    {
      "inputs": [],
      "name": "governor",
      "outputs": [
        {
          "internalType": "contract IGovernor",
          "name": "",
          "type": "address"
        }
      ],
      "stateMutability": "view",
      "type": "function"
    },
    {
      "inputs": [
        {
          "components": [
            {
              "components": [
                {
                  "components": [
                    {
                      "internalType": "address",
                      "name": "feeTokenAddress",
                      "type": "address"
                    },
                    {
                      "internalType": "address",
                      "name": "feeTokenPriceProviderAddress",
                      "type": "address"
                    },
                    {
                      "internalType": "address",
                      "name": "tcTokenAddress",
                      "type": "address"
                    },
                    {
                      "internalType": "address",
                      "name": "mocFeeFlowAddress",
                      "type": "address"
                    },
                    {
                      "internalType": "address",
                      "name": "mocAppreciationBeneficiaryAddress",
                      "type": "address"
                    },
                    {
                      "internalType": "uint256",
                      "name": "protThrld",
                      "type": "uint256"
                    },
                    {
                      "internalType": "uint256",
                      "name": "liqThrld",
                      "type": "uint256"
                    },
                    {
                      "internalType": "uint256",
                      "name": "feeRetainer",
                      "type": "uint256"
                    },
                    {
                      "internalType": "uint256",
                      "name": "tcMintFee",
                      "type": "uint256"
                    },
                    {
                      "internalType": "uint256",
                      "name": "tcRedeemFee",
                      "type": "uint256"
                    },
                    {
                      "internalType": "uint256",
                      "name": "swapTPforTPFee",
                      "type": "uint256"
                    },
                    {
                      "internalType": "uint256",
                      "name": "swapTPforTCFee",
                      "type": "uint256"
                    },
                    {
                      "internalType": "uint256",
                      "name": "swapTCforTPFee",
                      "type": "uint256"
                    },
                    {
                      "internalType": "uint256",
                      "name": "redeemTCandTPFee",
                      "type": "uint256"
                    },
                    {
                      "internalType": "uint256",
                      "name": "mintTCandTPFee",
                      "type": "uint256"
                    },
                    {
                      "internalType": "uint256",
                      "name": "feeTokenPct",
                      "type": "uint256"
                    },
                    {
                      "internalType": "uint256",
                      "name": "successFee",
                      "type": "uint256"
                    },
                    {
                      "internalType": "uint256",
                      "name": "appreciationFactor",
                      "type": "uint256"
                    },
                    {
                      "internalType": "uint256",
                      "name": "bes",
                      "type": "uint256"
                    },
                    {
                      "internalType": "address",
                      "name": "tcInterestCollectorAddress",
                      "type": "address"
                    },
                    {
                      "internalType": "uint256",
                      "name": "tcInterestRate",
                      "type": "uint256"
                    },
                    {
                      "internalType": "uint256",
                      "name": "tcInterestPaymentBlockSpan",
                      "type": "uint256"
                    },
                    {
                      "internalType": "address",
                      "name": "maxAbsoluteOpProviderAddress",
                      "type": "address"
                    },
                    {
                      "internalType": "address",
                      "name": "maxOpDiffProviderAddress",
                      "type": "address"
                    },
                    {
                      "internalType": "uint256",
                      "name": "decayBlockSpan",
                      "type": "uint256"
                    }
                  ],
                  "internalType": "struct MocBaseBucket.InitializeBaseBucketParams",
                  "name": "initializeBaseBucketParams",
                  "type": "tuple"
                },
                {
                  "internalType": "address",
                  "name": "governorAddress",
                  "type": "address"
                },
                {
                  "internalType": "address",
                  "name": "pauserAddress",
                  "type": "address"
                },
                {
                  "internalType": "address",
                  "name": "mocCoreExpansion",
                  "type": "address"
                },
                {
                  "internalType": "uint256",
                  "name": "emaCalculationBlockSpan",
                  "type": "uint256"
                },
                {
                  "internalType": "address",
                  "name": "mocVendors",
                  "type": "address"
                }
              ],
              "internalType": "struct MocCore.InitializeCoreParams",
              "name": "initializeCoreParams",
              "type": "tuple"
            },
            {
              "internalType": "address",
              "name": "acTokenAddress",
              "type": "address"
            }
          ],
          "internalType": "struct MocCARC20.InitializeParams",
          "name": "initializeParams_",
          "type": "tuple"
        }
      ],
      "name": "initialize",
      "outputs": [],
      "stateMutability": "nonpayable",
      "type": "function"
    },
    {
      "inputs": [],
      "name": "isLiquidationReached",
      "outputs": [
        {
          "internalType": "bool",
          "name": "",
          "type": "bool"
        }
      ],
      "stateMutability": "view",
      "type": "function"
    },
    {
      "inputs": [],
      "name": "lastOperationBlockNumber",
      "outputs": [
        {
          "internalType": "uint256",
          "name": "",
          "type": "uint256"
        }
      ],
      "stateMutability": "view",
      "type": "function"
    },
    {
      "inputs": [],
      "name": "liqEnabled",
      "outputs": [
        {
          "internalType": "bool",
          "name": "",
          "type": "bool"
        }
      ],
      "stateMutability": "view",
      "type": "function"
    },
    {
      "inputs": [
        {
          "internalType": "address",
          "name": "tp_",
          "type": "address"
        }
      ],
      "name": "liqRedeemTP",
      "outputs": [
        {
          "internalType": "uint256",
          "name": "qACRedeemed",
          "type": "uint256"
        }
      ],
      "stateMutability": "nonpayable",
      "type": "function"
    },
    {
      "inputs": [
        {
          "internalType": "address",
          "name": "tp_",
          "type": "address"
        },
        {
          "internalType": "address",
          "name": "recipient_",
          "type": "address"
        }
      ],
      "name": "liqRedeemTPto",
      "outputs": [
        {
          "internalType": "uint256",
          "name": "qACRedeemed",
          "type": "uint256"
        }
      ],
      "stateMutability": "nonpayable",
      "type": "function"
    },
    {
      "inputs": [],
      "name": "liqThrld",
      "outputs": [
        {
          "internalType": "uint256",
          "name": "",
          "type": "uint256"
        }
      ],
      "stateMutability": "view",
      "type": "function"
    },
    {
      "inputs": [],
      "name": "liquidated",
      "outputs": [
        {
          "internalType": "bool",
          "name": "",
          "type": "bool"
        }
      ],
      "stateMutability": "view",
      "type": "function"
    },
    {
      "inputs": [],
      "name": "makeStoppable",
      "outputs": [],
      "stateMutability": "nonpayable",
      "type": "function"
    },
    {
      "inputs": [],
      "name": "makeUnstoppable",
      "outputs": [],
      "stateMutability": "nonpayable",
      "type": "function"
    },
    {
      "inputs": [],
      "name": "maxAbsoluteOpProvider",
      "outputs": [
        {
          "internalType": "contract IDataProvider",
          "name": "",
          "type": "address"
        }
      ],
      "stateMutability": "view",
      "type": "function"
    },
    {
      "inputs": [],
      "name": "maxOpDiffProvider",
      "outputs": [
        {
          "internalType": "contract IDataProvider",
          "name": "",
          "type": "address"
        }
      ],
      "stateMutability": "view",
      "type": "function"
    },
    {
      "inputs": [],
      "name": "maxQACToMintTP",
      "outputs": [
        {
          "internalType": "uint256",
          "name": "maxQAC",
          "type": "uint256"
        }
      ],
      "stateMutability": "view",
      "type": "function"
    },
    {
      "inputs": [],
      "name": "maxQACToRedeemTP",
      "outputs": [
        {
          "internalType": "uint256",
          "name": "maxQAC",
          "type": "uint256"
        }
      ],
      "stateMutability": "view",
      "type": "function"
    },
    {
      "inputs": [
        {
          "internalType": "uint256",
          "name": "qTC_",
          "type": "uint256"
        },
        {
          "internalType": "uint256",
          "name": "qACmax_",
          "type": "uint256"
        }
      ],
      "name": "mintTC",
      "outputs": [
        {
          "internalType": "uint256",
          "name": "qACtotalNeeded",
          "type": "uint256"
        },
        {
          "internalType": "uint256",
          "name": "qFeeToken",
          "type": "uint256"
        }
      ],
      "stateMutability": "nonpayable",
      "type": "function"
    },
    {
      "inputs": [
        {
          "internalType": "uint256",
          "name": "qTC_",
          "type": "uint256"
        },
        {
          "internalType": "uint256",
          "name": "qACmax_",
          "type": "uint256"
        },
        {
          "internalType": "address",
          "name": "vendor_",
          "type": "address"
        }
      ],
      "name": "mintTCViaVendor",
      "outputs": [
        {
          "internalType": "uint256",
          "name": "qACtotalNeeded",
          "type": "uint256"
        },
        {
          "internalType": "uint256",
          "name": "qFeeToken",
          "type": "uint256"
        }
      ],
      "stateMutability": "nonpayable",
      "type": "function"
    },
    {
      "inputs": [
        {
          "internalType": "address",
          "name": "tp_",
          "type": "address"
        },
        {
          "internalType": "uint256",
          "name": "qTP_",
          "type": "uint256"
        },
        {
          "internalType": "uint256",
          "name": "qACmax_",
          "type": "uint256"
        }
      ],
      "name": "mintTCandTP",
      "outputs": [
        {
          "internalType": "uint256",
          "name": "qACtotalNeeded",
          "type": "uint256"
        },
        {
          "internalType": "uint256",
          "name": "qTCMinted",
          "type": "uint256"
        },
        {
          "internalType": "uint256",
          "name": "qFeeToken",
          "type": "uint256"
        }
      ],
      "stateMutability": "nonpayable",
      "type": "function"
    },
    {
      "inputs": [],
      "name": "mintTCandTPFee",
      "outputs": [
        {
          "internalType": "uint256",
          "name": "",
          "type": "uint256"
        }
      ],
      "stateMutability": "view",
      "type": "function"
    },
    {
      "inputs": [
        {
          "internalType": "address",
          "name": "tp_",
          "type": "address"
        },
        {
          "internalType": "uint256",
          "name": "qTP_",
          "type": "uint256"
        },
        {
          "internalType": "uint256",
          "name": "qACmax_",
          "type": "uint256"
        },
        {
          "internalType": "address",
          "name": "vendor_",
          "type": "address"
        }
      ],
      "name": "mintTCandTPViaVendor",
      "outputs": [
        {
          "internalType": "uint256",
          "name": "qACtotalNeeded",
          "type": "uint256"
        },
        {
          "internalType": "uint256",
          "name": "qTCMinted",
          "type": "uint256"
        },
        {
          "internalType": "uint256",
          "name": "qFeeToken",
          "type": "uint256"
        }
      ],
      "stateMutability": "nonpayable",
      "type": "function"
    },
    {
      "inputs": [
        {
          "internalType": "address",
          "name": "tp_",
          "type": "address"
        },
        {
          "internalType": "uint256",
          "name": "qTP_",
          "type": "uint256"
        },
        {
          "internalType": "uint256",
          "name": "qACmax_",
          "type": "uint256"
        },
        {
          "internalType": "address",
          "name": "recipient_",
          "type": "address"
        }
      ],
      "name": "mintTCandTPto",
      "outputs": [
        {
          "internalType": "uint256",
          "name": "qACtotalNeeded",
          "type": "uint256"
        },
        {
          "internalType": "uint256",
          "name": "qTCMinted",
          "type": "uint256"
        },
        {
          "internalType": "uint256",
          "name": "qFeeToken",
          "type": "uint256"
        }
      ],
      "stateMutability": "nonpayable",
      "type": "function"
    },
    {
      "inputs": [
        {
          "internalType": "address",
          "name": "tp_",
          "type": "address"
        },
        {
          "internalType": "uint256",
          "name": "qTP_",
          "type": "uint256"
        },
        {
          "internalType": "uint256",
          "name": "qACmax_",
          "type": "uint256"
        },
        {
          "internalType": "address",
          "name": "recipient_",
          "type": "address"
        },
        {
          "internalType": "address",
          "name": "vendor_",
          "type": "address"
        }
      ],
      "name": "mintTCandTPtoViaVendor",
      "outputs": [
        {
          "internalType": "uint256",
          "name": "qACtotalNeeded",
          "type": "uint256"
        },
        {
          "internalType": "uint256",
          "name": "qTCMinted",
          "type": "uint256"
        },
        {
          "internalType": "uint256",
          "name": "qFeeToken",
          "type": "uint256"
        }
      ],
      "stateMutability": "nonpayable",
      "type": "function"
    },
    {
      "inputs": [
        {
          "internalType": "uint256",
          "name": "qTC_",
          "type": "uint256"
        },
        {
          "internalType": "uint256",
          "name": "qACmax_",
          "type": "uint256"
        },
        {
          "internalType": "address",
          "name": "recipient_",
          "type": "address"
        }
      ],
      "name": "mintTCto",
      "outputs": [
        {
          "internalType": "uint256",
          "name": "qACtotalNeeded",
          "type": "uint256"
        },
        {
          "internalType": "uint256",
          "name": "qFeeToken",
          "type": "uint256"
        }
      ],
      "stateMutability": "nonpayable",
      "type": "function"
    },
    {
      "inputs": [
        {
          "internalType": "uint256",
          "name": "qTC_",
          "type": "uint256"
        },
        {
          "internalType": "uint256",
          "name": "qACmax_",
          "type": "uint256"
        },
        {
          "internalType": "address",
          "name": "recipient_",
          "type": "address"
        },
        {
          "internalType": "address",
          "name": "vendor_",
          "type": "address"
        }
      ],
      "name": "mintTCtoViaVendor",
      "outputs": [
        {
          "internalType": "uint256",
          "name": "qACtotalNeeded",
          "type": "uint256"
        },
        {
          "internalType": "uint256",
          "name": "qFeeToken",
          "type": "uint256"
        }
      ],
      "stateMutability": "nonpayable",
      "type": "function"
    },
    {
      "inputs": [
        {
          "internalType": "address",
          "name": "tp_",
          "type": "address"
        },
        {
          "internalType": "uint256",
          "name": "qTP_",
          "type": "uint256"
        },
        {
          "internalType": "uint256",
          "name": "qACmax_",
          "type": "uint256"
        }
      ],
      "name": "mintTP",
      "outputs": [
        {
          "internalType": "uint256",
          "name": "qACtotalNeeded",
          "type": "uint256"
        },
        {
          "internalType": "uint256",
          "name": "qFeeToken",
          "type": "uint256"
        }
      ],
      "stateMutability": "nonpayable",
      "type": "function"
    },
    {
      "inputs": [
        {
          "internalType": "address",
          "name": "tp_",
          "type": "address"
        },
        {
          "internalType": "uint256",
          "name": "qTP_",
          "type": "uint256"
        },
        {
          "internalType": "uint256",
          "name": "qACmax_",
          "type": "uint256"
        },
        {
          "internalType": "address",
          "name": "vendor_",
          "type": "address"
        }
      ],
      "name": "mintTPViaVendor",
      "outputs": [
        {
          "internalType": "uint256",
          "name": "qACtotalNeeded",
          "type": "uint256"
        },
        {
          "internalType": "uint256",
          "name": "qFeeToken",
          "type": "uint256"
        }
      ],
      "stateMutability": "nonpayable",
      "type": "function"
    },
    {
      "inputs": [
        {
          "internalType": "address",
          "name": "tp_",
          "type": "address"
        },
        {
          "internalType": "uint256",
          "name": "qTP_",
          "type": "uint256"
        },
        {
          "internalType": "uint256",
          "name": "qACmax_",
          "type": "uint256"
        },
        {
          "internalType": "address",
          "name": "recipient_",
          "type": "address"
        }
      ],
      "name": "mintTPto",
      "outputs": [
        {
          "internalType": "uint256",
          "name": "qACtotalNeeded",
          "type": "uint256"
        },
        {
          "internalType": "uint256",
          "name": "qFeeToken",
          "type": "uint256"
        }
      ],
      "stateMutability": "nonpayable",
      "type": "function"
    },
    {
      "inputs": [
        {
          "internalType": "address",
          "name": "tp_",
          "type": "address"
        },
        {
          "internalType": "uint256",
          "name": "qTP_",
          "type": "uint256"
        },
        {
          "internalType": "uint256",
          "name": "qACmax_",
          "type": "uint256"
        },
        {
          "internalType": "address",
          "name": "recipient_",
          "type": "address"
        },
        {
          "internalType": "address",
          "name": "vendor_",
          "type": "address"
        }
      ],
      "name": "mintTPtoViaVendor",
      "outputs": [
        {
          "internalType": "uint256",
          "name": "qACtotalNeeded",
          "type": "uint256"
        },
        {
          "internalType": "uint256",
          "name": "qFeeToken",
          "type": "uint256"
        }
      ],
      "stateMutability": "nonpayable",
      "type": "function"
    },
    {
      "inputs": [],
      "name": "mocAppreciationBeneficiaryAddress",
      "outputs": [
        {
          "internalType": "address",
          "name": "",
          "type": "address"
        }
      ],
      "stateMutability": "view",
      "type": "function"
    },
    {
      "inputs": [],
      "name": "mocFeeFlowAddress",
      "outputs": [
        {
          "internalType": "address",
          "name": "",
          "type": "address"
        }
      ],
      "stateMutability": "view",
      "type": "function"
    },
    {
      "inputs": [],
      "name": "mocVendors",
      "outputs": [
        {
          "internalType": "contract MocVendors",
          "name": "",
          "type": "address"
        }
      ],
      "stateMutability": "view",
      "type": "function"
    },
    {
      "inputs": [],
      "name": "nACcb",
      "outputs": [
        {
          "internalType": "uint256",
          "name": "",
          "type": "uint256"
        }
      ],
      "stateMutability": "view",
      "type": "function"
    },
    {
      "inputs": [],
      "name": "nTCcb",
      "outputs": [
        {
          "internalType": "uint256",
          "name": "",
          "type": "uint256"
        }
      ],
      "stateMutability": "view",
      "type": "function"
    },
    {
      "inputs": [],
      "name": "nextEmaCalculation",
      "outputs": [
        {
          "internalType": "uint256",
          "name": "",
          "type": "uint256"
        }
      ],
      "stateMutability": "view",
      "type": "function"
    },
    {
      "inputs": [],
      "name": "nextTCInterestPayment",
      "outputs": [
        {
          "internalType": "uint256",
          "name": "",
          "type": "uint256"
        }
      ],
      "stateMutability": "view",
      "type": "function"
    },
    {
      "inputs": [],
      "name": "pause",
      "outputs": [],
      "stateMutability": "nonpayable",
      "type": "function"
    },
    {
      "inputs": [],
      "name": "paused",
      "outputs": [
        {
          "internalType": "bool",
          "name": "",
          "type": "bool"
        }
      ],
      "stateMutability": "view",
      "type": "function"
    },
    {
      "inputs": [],
      "name": "pauser",
      "outputs": [
        {
          "internalType": "address",
          "name": "",
          "type": "address"
        }
      ],
      "stateMutability": "view",
      "type": "function"
    },
    {
      "inputs": [
        {
          "internalType": "uint256",
          "name": "",
          "type": "uint256"
        }
      ],
      "name": "pegContainer",
      "outputs": [
        {
          "internalType": "uint256",
          "name": "nTP",
          "type": "uint256"
        },
        {
          "internalType": "contract IPriceProvider",
          "name": "priceProvider",
          "type": "address"
        }
      ],
      "stateMutability": "view",
      "type": "function"
    },
    {
      "inputs": [
        {
          "internalType": "address",
          "name": "",
          "type": "address"
        }
      ],
      "name": "peggedTokenIndex",
      "outputs": [
        {
          "internalType": "uint256",
          "name": "index",
          "type": "uint256"
        },
        {
          "internalType": "bool",
          "name": "exists",
          "type": "bool"
        }
      ],
      "stateMutability": "view",
      "type": "function"
    },
    {
      "inputs": [],
      "name": "protThrld",
      "outputs": [
        {
          "internalType": "uint256",
          "name": "",
          "type": "uint256"
        }
      ],
      "stateMutability": "view",
      "type": "function"
    },
    {
      "inputs": [],
      "name": "proxiableUUID",
      "outputs": [
        {
          "internalType": "bytes32",
          "name": "",
          "type": "bytes32"
        }
      ],
      "stateMutability": "view",
      "type": "function"
    },
    {
      "inputs": [
        {
          "internalType": "uint256",
          "name": "qTC_",
          "type": "uint256"
        },
        {
          "internalType": "uint256",
          "name": "qACmin_",
          "type": "uint256"
        }
      ],
      "name": "redeemTC",
      "outputs": [
        {
          "internalType": "uint256",
          "name": "qACRedeemed",
          "type": "uint256"
        },
        {
          "internalType": "uint256",
          "name": "qFeeToken",
          "type": "uint256"
        }
      ],
      "stateMutability": "nonpayable",
      "type": "function"
    },
    {
      "inputs": [
        {
          "internalType": "uint256",
          "name": "qTC_",
          "type": "uint256"
        },
        {
          "internalType": "uint256",
          "name": "qACmin_",
          "type": "uint256"
        },
        {
          "internalType": "address",
          "name": "vendor_",
          "type": "address"
        }
      ],
      "name": "redeemTCViaVendor",
      "outputs": [
        {
          "internalType": "uint256",
          "name": "qACRedeemed",
          "type": "uint256"
        },
        {
          "internalType": "uint256",
          "name": "qFeeToken",
          "type": "uint256"
        }
      ],
      "stateMutability": "nonpayable",
      "type": "function"
    },
    {
      "inputs": [
        {
          "internalType": "address",
          "name": "tp_",
          "type": "address"
        },
        {
          "internalType": "uint256",
          "name": "qTC_",
          "type": "uint256"
        },
        {
          "internalType": "uint256",
          "name": "qTP_",
          "type": "uint256"
        },
        {
          "internalType": "uint256",
          "name": "qACmin_",
          "type": "uint256"
        }
      ],
      "name": "redeemTCandTP",
      "outputs": [
        {
          "internalType": "uint256",
          "name": "qACRedeemed",
          "type": "uint256"
        },
        {
          "internalType": "uint256",
          "name": "qTPRedeemed",
          "type": "uint256"
        },
        {
          "internalType": "uint256",
          "name": "qFeeToken",
          "type": "uint256"
        }
      ],
      "stateMutability": "nonpayable",
      "type": "function"
    },
    {
      "inputs": [],
      "name": "redeemTCandTPFee",
      "outputs": [
        {
          "internalType": "uint256",
          "name": "",
          "type": "uint256"
        }
      ],
      "stateMutability": "view",
      "type": "function"
    },
    {
      "inputs": [
        {
          "internalType": "address",
          "name": "tp_",
          "type": "address"
        },
        {
          "internalType": "uint256",
          "name": "qTC_",
          "type": "uint256"
        },
        {
          "internalType": "uint256",
          "name": "qTP_",
          "type": "uint256"
        },
        {
          "internalType": "uint256",
          "name": "qACmin_",
          "type": "uint256"
        },
        {
          "internalType": "address",
          "name": "vendor_",
          "type": "address"
        }
      ],
      "name": "redeemTCandTPViaVendor",
      "outputs": [
        {
          "internalType": "uint256",
          "name": "qACRedeemed",
          "type": "uint256"
        },
        {
          "internalType": "uint256",
          "name": "qTPRedeemed",
          "type": "uint256"
        },
        {
          "internalType": "uint256",
          "name": "qFeeToken",
          "type": "uint256"
        }
      ],
      "stateMutability": "nonpayable",
      "type": "function"
    },
    {
      "inputs": [
        {
          "internalType": "address",
          "name": "tp_",
          "type": "address"
        },
        {
          "internalType": "uint256",
          "name": "qTC_",
          "type": "uint256"
        },
        {
          "internalType": "uint256",
          "name": "qTP_",
          "type": "uint256"
        },
        {
          "internalType": "uint256",
          "name": "qACmin_",
          "type": "uint256"
        },
        {
          "internalType": "address",
          "name": "recipient_",
          "type": "address"
        }
      ],
      "name": "redeemTCandTPto",
      "outputs": [
        {
          "internalType": "uint256",
          "name": "qACRedeemed",
          "type": "uint256"
        },
        {
          "internalType": "uint256",
          "name": "qTPRedeemed",
          "type": "uint256"
        },
        {
          "internalType": "uint256",
          "name": "qFeeToken",
          "type": "uint256"
        }
      ],
      "stateMutability": "nonpayable",
      "type": "function"
    },
    {
      "inputs": [
        {
          "internalType": "address",
          "name": "tp_",
          "type": "address"
        },
        {
          "internalType": "uint256",
          "name": "qTC_",
          "type": "uint256"
        },
        {
          "internalType": "uint256",
          "name": "qTP_",
          "type": "uint256"
        },
        {
          "internalType": "uint256",
          "name": "qACmin_",
          "type": "uint256"
        },
        {
          "internalType": "address",
          "name": "recipient_",
          "type": "address"
        },
        {
          "internalType": "address",
          "name": "vendor_",
          "type": "address"
        }
      ],
      "name": "redeemTCandTPtoViaVendor",
      "outputs": [
        {
          "internalType": "uint256",
          "name": "qACRedeemed",
          "type": "uint256"
        },
        {
          "internalType": "uint256",
          "name": "qTPRedeemed",
          "type": "uint256"
        },
        {
          "internalType": "uint256",
          "name": "qFeeToken",
          "type": "uint256"
        }
      ],
      "stateMutability": "nonpayable",
      "type": "function"
    },
    {
      "inputs": [
        {
          "internalType": "uint256",
          "name": "qTC_",
          "type": "uint256"
        },
        {
          "internalType": "uint256",
          "name": "qACmin_",
          "type": "uint256"
        },
        {
          "internalType": "address",
          "name": "recipient_",
          "type": "address"
        }
      ],
      "name": "redeemTCto",
      "outputs": [
        {
          "internalType": "uint256",
          "name": "qACRedeemed",
          "type": "uint256"
        },
        {
          "internalType": "uint256",
          "name": "qFeeToken",
          "type": "uint256"
        }
      ],
      "stateMutability": "nonpayable",
      "type": "function"
    },
    {
      "inputs": [
        {
          "internalType": "uint256",
          "name": "qTC_",
          "type": "uint256"
        },
        {
          "internalType": "uint256",
          "name": "qACmin_",
          "type": "uint256"
        },
        {
          "internalType": "address",
          "name": "recipient_",
          "type": "address"
        },
        {
          "internalType": "address",
          "name": "vendor_",
          "type": "address"
        }
      ],
      "name": "redeemTCtoViaVendor",
      "outputs": [
        {
          "internalType": "uint256",
          "name": "qACRedeemed",
          "type": "uint256"
        },
        {
          "internalType": "uint256",
          "name": "qFeeToken",
          "type": "uint256"
        }
      ],
      "stateMutability": "nonpayable",
      "type": "function"
    },
    {
      "inputs": [
        {
          "internalType": "address",
          "name": "tp_",
          "type": "address"
        },
        {
          "internalType": "uint256",
          "name": "qTP_",
          "type": "uint256"
        },
        {
          "internalType": "uint256",
          "name": "qACmin_",
          "type": "uint256"
        }
      ],
      "name": "redeemTP",
      "outputs": [
        {
          "internalType": "uint256",
          "name": "qACRedeemed",
          "type": "uint256"
        },
        {
          "internalType": "uint256",
          "name": "qFeeToken",
          "type": "uint256"
        }
      ],
      "stateMutability": "nonpayable",
      "type": "function"
    },
    {
      "inputs": [
        {
          "internalType": "address",
          "name": "tp_",
          "type": "address"
        },
        {
          "internalType": "uint256",
          "name": "qTP_",
          "type": "uint256"
        },
        {
          "internalType": "uint256",
          "name": "qACmin_",
          "type": "uint256"
        },
        {
          "internalType": "address",
          "name": "vendor_",
          "type": "address"
        }
      ],
      "name": "redeemTPViaVendor",
      "outputs": [
        {
          "internalType": "uint256",
          "name": "qACRedeemed",
          "type": "uint256"
        },
        {
          "internalType": "uint256",
          "name": "qFeeToken",
          "type": "uint256"
        }
      ],
      "stateMutability": "nonpayable",
      "type": "function"
    },
    {
      "inputs": [
        {
          "internalType": "address",
          "name": "tp_",
          "type": "address"
        },
        {
          "internalType": "uint256",
          "name": "qTP_",
          "type": "uint256"
        },
        {
          "internalType": "uint256",
          "name": "qACmin_",
          "type": "uint256"
        },
        {
          "internalType": "address",
          "name": "recipient_",
          "type": "address"
        }
      ],
      "name": "redeemTPto",
      "outputs": [
        {
          "internalType": "uint256",
          "name": "qACRedeemed",
          "type": "uint256"
        },
        {
          "internalType": "uint256",
          "name": "qFeeToken",
          "type": "uint256"
        }
      ],
      "stateMutability": "nonpayable",
      "type": "function"
    },
    {
      "inputs": [
        {
          "internalType": "address",
          "name": "tp_",
          "type": "address"
        },
        {
          "internalType": "uint256",
          "name": "qTP_",
          "type": "uint256"
        },
        {
          "internalType": "uint256",
          "name": "qACmin_",
          "type": "uint256"
        },
        {
          "internalType": "address",
          "name": "recipient_",
          "type": "address"
        },
        {
          "internalType": "address",
          "name": "vendor_",
          "type": "address"
        }
      ],
      "name": "redeemTPtoViaVendor",
      "outputs": [
        {
          "internalType": "uint256",
          "name": "qACRedeemed",
          "type": "uint256"
        },
        {
          "internalType": "uint256",
          "name": "qFeeToken",
          "type": "uint256"
        }
      ],
      "stateMutability": "nonpayable",
      "type": "function"
    },
    {
      "inputs": [],
      "name": "refreshACBalance",
      "outputs": [],
      "stateMutability": "nonpayable",
      "type": "function"
    },
    {
      "inputs": [
        {
          "internalType": "uint256",
          "name": "appreciationFactor_",
          "type": "uint256"
        }
      ],
      "name": "setAppreciationFactor",
      "outputs": [],
      "stateMutability": "nonpayable",
      "type": "function"
    },
    {
      "inputs": [
        {
          "internalType": "uint256",
          "name": "bes_",
          "type": "uint256"
        }
      ],
      "name": "setBes",
      "outputs": [],
      "stateMutability": "nonpayable",
      "type": "function"
    },
    {
      "inputs": [
        {
          "internalType": "uint256",
          "name": "decayBlockSpan_",
          "type": "uint256"
        }
      ],
      "name": "setDecayBlockSpan",
      "outputs": [],
      "stateMutability": "nonpayable",
      "type": "function"
    },
    {
      "inputs": [
        {
          "internalType": "uint256",
          "name": "blockSpan_",
          "type": "uint256"
        }
      ],
      "name": "setEmaCalculationBlockSpan",
      "outputs": [],
      "stateMutability": "nonpayable",
      "type": "function"
    },
    {
      "inputs": [
        {
          "internalType": "uint256",
          "name": "feeRetainer_",
          "type": "uint256"
        }
      ],
      "name": "setFeeRetainer",
      "outputs": [],
      "stateMutability": "nonpayable",
      "type": "function"
    },
    {
      "inputs": [
        {
          "internalType": "address",
          "name": "mocFeeTokenAddress_",
          "type": "address"
        }
      ],
      "name": "setFeeTokenAddress",
      "outputs": [],
      "stateMutability": "nonpayable",
      "type": "function"
    },
    {
      "inputs": [
        {
          "internalType": "uint256",
          "name": "feeTokenPct_",
          "type": "uint256"
        }
      ],
      "name": "setFeeTokenPct",
      "outputs": [],
      "stateMutability": "nonpayable",
      "type": "function"
    },
    {
      "inputs": [
        {
          "internalType": "address",
          "name": "mocFeeTokenPriceProviderAddress_",
          "type": "address"
        }
      ],
      "name": "setFeeTokenPriceProviderAddress",
      "outputs": [],
      "stateMutability": "nonpayable",
      "type": "function"
    },
    {
      "inputs": [
        {
          "internalType": "bool",
          "name": "liqEnabled_",
          "type": "bool"
        }
      ],
      "name": "setLiqEnabled",
      "outputs": [],
      "stateMutability": "nonpayable",
      "type": "function"
    },
    {
      "inputs": [
        {
          "internalType": "uint256",
          "name": "liqThrld_",
          "type": "uint256"
        }
      ],
      "name": "setLiqThrld",
      "outputs": [],
      "stateMutability": "nonpayable",
      "type": "function"
    },
    {
      "inputs": [
        {
          "internalType": "address",
          "name": "maxAbsoluteOpProviderAddress_",
          "type": "address"
        }
      ],
      "name": "setMaxAbsoluteOpProviderAddress",
      "outputs": [],
      "stateMutability": "nonpayable",
      "type": "function"
    },
    {
      "inputs": [
        {
          "internalType": "address",
          "name": "maxOpDiffProviderAddress_",
          "type": "address"
        }
      ],
      "name": "setMaxOpDiffProviderAddress",
      "outputs": [],
      "stateMutability": "nonpayable",
      "type": "function"
    },
    {
      "inputs": [
        {
          "internalType": "uint256",
          "name": "mintTCandTPFee_",
          "type": "uint256"
        }
      ],
      "name": "setMintTCandTPFee",
      "outputs": [],
      "stateMutability": "nonpayable",
      "type": "function"
    },
    {
      "inputs": [
        {
          "internalType": "address",
          "name": "mocAppreciationBeneficiaryAddress_",
          "type": "address"
        }
      ],
      "name": "setMocAppreciationBeneficiaryAddress",
      "outputs": [],
      "stateMutability": "nonpayable",
      "type": "function"
    },
    {
      "inputs": [
        {
          "internalType": "address",
          "name": "mocCoreExpansion_",
          "type": "address"
        }
      ],
      "name": "setMocCoreExpansion",
      "outputs": [],
      "stateMutability": "nonpayable",
      "type": "function"
    },
    {
      "inputs": [
        {
          "internalType": "address",
          "name": "mocFeeFlowAddress_",
          "type": "address"
        }
      ],
      "name": "setMocFeeFlowAddress",
      "outputs": [],
      "stateMutability": "nonpayable",
      "type": "function"
    },
    {
      "inputs": [
        {
          "internalType": "address",
          "name": "mocVendors_",
          "type": "address"
        }
      ],
      "name": "setMocVendors",
      "outputs": [],
      "stateMutability": "nonpayable",
      "type": "function"
    },
    {
      "inputs": [
        {
          "internalType": "address",
          "name": "newPauser_",
          "type": "address"
        }
      ],
      "name": "setPauser",
      "outputs": [],
      "stateMutability": "nonpayable",
      "type": "function"
    },
    {
      "inputs": [
        {
          "internalType": "uint256",
          "name": "protThrld_",
          "type": "uint256"
        }
      ],
      "name": "setProtThrld",
      "outputs": [],
      "stateMutability": "nonpayable",
      "type": "function"
    },
    {
      "inputs": [
        {
          "internalType": "uint256",
          "name": "redeemTCandTPFee_",
          "type": "uint256"
        }
      ],
      "name": "setRedeemTCandTPFee",
      "outputs": [],
      "stateMutability": "nonpayable",
      "type": "function"
    },
    {
      "inputs": [
        {
          "internalType": "uint256",
          "name": "successFee_",
          "type": "uint256"
        }
      ],
      "name": "setSuccessFee",
      "outputs": [],
      "stateMutability": "nonpayable",
      "type": "function"
    },
    {
      "inputs": [
        {
          "internalType": "uint256",
          "name": "swapTCforTPFee_",
          "type": "uint256"
        }
      ],
      "name": "setSwapTCforTPFee",
      "outputs": [],
      "stateMutability": "nonpayable",
      "type": "function"
    },
    {
      "inputs": [
        {
          "internalType": "uint256",
          "name": "swapTPforTCFee_",
          "type": "uint256"
        }
      ],
      "name": "setSwapTPforTCFee",
      "outputs": [],
      "stateMutability": "nonpayable",
      "type": "function"
    },
    {
      "inputs": [
        {
          "internalType": "uint256",
          "name": "swapTPforTPFee_",
          "type": "uint256"
        }
      ],
      "name": "setSwapTPforTPFee",
      "outputs": [],
      "stateMutability": "nonpayable",
      "type": "function"
    },
    {
      "inputs": [
        {
          "internalType": "address",
          "name": "tcInterestCollectorAddress_",
          "type": "address"
        }
      ],
      "name": "setTCInterestCollectorAddress",
      "outputs": [],
      "stateMutability": "nonpayable",
      "type": "function"
    },
    {
      "inputs": [
        {
          "internalType": "uint256",
          "name": "tcInterestPaymentBlockSpan_",
          "type": "uint256"
        }
      ],
      "name": "setTCInterestPaymentBlockSpan",
      "outputs": [],
      "stateMutability": "nonpayable",
      "type": "function"
    },
    {
      "inputs": [
        {
          "internalType": "uint256",
          "name": "tcInterestRate_",
          "type": "uint256"
        }
      ],
      "name": "setTCInterestRate",
      "outputs": [],
      "stateMutability": "nonpayable",
      "type": "function"
    },
    {
      "inputs": [
        {
          "internalType": "uint256",
          "name": "tcMintFee_",
          "type": "uint256"
        }
      ],
      "name": "setTcMintFee",
      "outputs": [],
      "stateMutability": "nonpayable",
      "type": "function"
    },
    {
      "inputs": [
        {
          "internalType": "uint256",
          "name": "tcRedeemFee_",
          "type": "uint256"
        }
      ],
      "name": "setTcRedeemFee",
      "outputs": [],
      "stateMutability": "nonpayable",
      "type": "function"
    },
    {
      "inputs": [],
      "name": "shouldCalculateEma",
      "outputs": [
        {
          "internalType": "bool",
          "name": "",
          "type": "bool"
        }
      ],
      "stateMutability": "view",
      "type": "function"
    },
    {
      "inputs": [],
      "name": "stoppable",
      "outputs": [
        {
          "internalType": "bool",
          "name": "",
          "type": "bool"
        }
      ],
      "stateMutability": "view",
      "type": "function"
    },
    {
      "inputs": [],
      "name": "successFee",
      "outputs": [
        {
          "internalType": "uint256",
          "name": "",
          "type": "uint256"
        }
      ],
      "stateMutability": "view",
      "type": "function"
    },
    {
      "inputs": [
        {
          "internalType": "address",
          "name": "tp_",
          "type": "address"
        },
        {
          "internalType": "uint256",
          "name": "qTC_",
          "type": "uint256"
        },
        {
          "internalType": "uint256",
          "name": "qTPmin_",
          "type": "uint256"
        },
        {
          "internalType": "uint256",
          "name": "qACmax_",
          "type": "uint256"
        }
      ],
      "name": "swapTCforTP",
      "outputs": [
        {
          "internalType": "uint256",
          "name": "qACFee",
          "type": "uint256"
        },
        {
          "internalType": "uint256",
          "name": "qTPMinted",
          "type": "uint256"
        },
        {
          "internalType": "uint256",
          "name": "qFeeToken",
          "type": "uint256"
        }
      ],
      "stateMutability": "nonpayable",
      "type": "function"
    },
    {
      "inputs": [],
      "name": "swapTCforTPFee",
      "outputs": [
        {
          "internalType": "uint256",
          "name": "",
          "type": "uint256"
        }
      ],
      "stateMutability": "view",
      "type": "function"
    },
    {
      "inputs": [
        {
          "internalType": "address",
          "name": "tp_",
          "type": "address"
        },
        {
          "internalType": "uint256",
          "name": "qTC_",
          "type": "uint256"
        },
        {
          "internalType": "uint256",
          "name": "qTPmin_",
          "type": "uint256"
        },
        {
          "internalType": "uint256",
          "name": "qACmax_",
          "type": "uint256"
        },
        {
          "internalType": "address",
          "name": "vendor_",
          "type": "address"
        }
      ],
      "name": "swapTCforTPViaVendor",
      "outputs": [
        {
          "internalType": "uint256",
          "name": "qACFee",
          "type": "uint256"
        },
        {
          "internalType": "uint256",
          "name": "qTPMinted",
          "type": "uint256"
        },
        {
          "internalType": "uint256",
          "name": "qFeeToken",
          "type": "uint256"
        }
      ],
      "stateMutability": "nonpayable",
      "type": "function"
    },
    {
      "inputs": [
        {
          "internalType": "address",
          "name": "tp_",
          "type": "address"
        },
        {
          "internalType": "uint256",
          "name": "qTC_",
          "type": "uint256"
        },
        {
          "internalType": "uint256",
          "name": "qTPmin_",
          "type": "uint256"
        },
        {
          "internalType": "uint256",
          "name": "qACmax_",
          "type": "uint256"
        },
        {
          "internalType": "address",
          "name": "recipient_",
          "type": "address"
        }
      ],
      "name": "swapTCforTPto",
      "outputs": [
        {
          "internalType": "uint256",
          "name": "qACFee",
          "type": "uint256"
        },
        {
          "internalType": "uint256",
          "name": "qTPMinted",
          "type": "uint256"
        },
        {
          "internalType": "uint256",
          "name": "qFeeToken",
          "type": "uint256"
        }
      ],
      "stateMutability": "nonpayable",
      "type": "function"
    },
    {
      "inputs": [
        {
          "internalType": "address",
          "name": "tp_",
          "type": "address"
        },
        {
          "internalType": "uint256",
          "name": "qTC_",
          "type": "uint256"
        },
        {
          "internalType": "uint256",
          "name": "qTPmin_",
          "type": "uint256"
        },
        {
          "internalType": "uint256",
          "name": "qACmax_",
          "type": "uint256"
        },
        {
          "internalType": "address",
          "name": "recipient_",
          "type": "address"
        },
        {
          "internalType": "address",
          "name": "vendor_",
          "type": "address"
        }
      ],
      "name": "swapTCforTPtoViaVendor",
      "outputs": [
        {
          "internalType": "uint256",
          "name": "qACFee",
          "type": "uint256"
        },
        {
          "internalType": "uint256",
          "name": "qTPMinted",
          "type": "uint256"
        },
        {
          "internalType": "uint256",
          "name": "qFeeToken",
          "type": "uint256"
        }
      ],
      "stateMutability": "nonpayable",
      "type": "function"
    },
    {
      "inputs": [
        {
          "internalType": "address",
          "name": "tp_",
          "type": "address"
        },
        {
          "internalType": "uint256",
          "name": "qTP_",
          "type": "uint256"
        },
        {
          "internalType": "uint256",
          "name": "qTCmin_",
          "type": "uint256"
        },
        {
          "internalType": "uint256",
          "name": "qACmax_",
          "type": "uint256"
        }
      ],
      "name": "swapTPforTC",
      "outputs": [
        {
          "internalType": "uint256",
          "name": "qACFee",
          "type": "uint256"
        },
        {
          "internalType": "uint256",
          "name": "qTCMinted",
          "type": "uint256"
        },
        {
          "internalType": "uint256",
          "name": "qFeeToken",
          "type": "uint256"
        }
      ],
      "stateMutability": "nonpayable",
      "type": "function"
    },
    {
      "inputs": [],
      "name": "swapTPforTCFee",
      "outputs": [
        {
          "internalType": "uint256",
          "name": "",
          "type": "uint256"
        }
      ],
      "stateMutability": "view",
      "type": "function"
    },
    {
      "inputs": [
        {
          "internalType": "address",
          "name": "tp_",
          "type": "address"
        },
        {
          "internalType": "uint256",
          "name": "qTP_",
          "type": "uint256"
        },
        {
          "internalType": "uint256",
          "name": "qTCmin_",
          "type": "uint256"
        },
        {
          "internalType": "uint256",
          "name": "qACmax_",
          "type": "uint256"
        },
        {
          "internalType": "address",
          "name": "vendor_",
          "type": "address"
        }
      ],
      "name": "swapTPforTCViaVendor",
      "outputs": [
        {
          "internalType": "uint256",
          "name": "qACFee",
          "type": "uint256"
        },
        {
          "internalType": "uint256",
          "name": "qTCMinted",
          "type": "uint256"
        },
        {
          "internalType": "uint256",
          "name": "qFeeToken",
          "type": "uint256"
        }
      ],
      "stateMutability": "nonpayable",
      "type": "function"
    },
    {
      "inputs": [
        {
          "internalType": "address",
          "name": "tp_",
          "type": "address"
        },
        {
          "internalType": "uint256",
          "name": "qTP_",
          "type": "uint256"
        },
        {
          "internalType": "uint256",
          "name": "qTCmin_",
          "type": "uint256"
        },
        {
          "internalType": "uint256",
          "name": "qACmax_",
          "type": "uint256"
        },
        {
          "internalType": "address",
          "name": "recipient_",
          "type": "address"
        }
      ],
      "name": "swapTPforTCto",
      "outputs": [
        {
          "internalType": "uint256",
          "name": "qACFee",
          "type": "uint256"
        },
        {
          "internalType": "uint256",
          "name": "qTCMinted",
          "type": "uint256"
        },
        {
          "internalType": "uint256",
          "name": "qFeeToken",
          "type": "uint256"
        }
      ],
      "stateMutability": "nonpayable",
      "type": "function"
    },
    {
      "inputs": [
        {
          "internalType": "address",
          "name": "tp_",
          "type": "address"
        },
        {
          "internalType": "uint256",
          "name": "qTP_",
          "type": "uint256"
        },
        {
          "internalType": "uint256",
          "name": "qTCmin_",
          "type": "uint256"
        },
        {
          "internalType": "uint256",
          "name": "qACmax_",
          "type": "uint256"
        },
        {
          "internalType": "address",
          "name": "recipient_",
          "type": "address"
        },
        {
          "internalType": "address",
          "name": "vendor_",
          "type": "address"
        }
      ],
      "name": "swapTPforTCtoViaVendor",
      "outputs": [
        {
          "internalType": "uint256",
          "name": "qACFee",
          "type": "uint256"
        },
        {
          "internalType": "uint256",
          "name": "qTCMinted",
          "type": "uint256"
        },
        {
          "internalType": "uint256",
          "name": "qFeeToken",
          "type": "uint256"
        }
      ],
      "stateMutability": "nonpayable",
      "type": "function"
    },
    {
      "inputs": [
        {
          "internalType": "address",
          "name": "tpFrom_",
          "type": "address"
        },
        {
          "internalType": "address",
          "name": "tpTo_",
          "type": "address"
        },
        {
          "internalType": "uint256",
          "name": "qTP_",
          "type": "uint256"
        },
        {
          "internalType": "uint256",
          "name": "qTPmin_",
          "type": "uint256"
        },
        {
          "internalType": "uint256",
          "name": "qACmax_",
          "type": "uint256"
        }
      ],
      "name": "swapTPforTP",
      "outputs": [
        {
          "internalType": "uint256",
          "name": "qACFee",
          "type": "uint256"
        },
        {
          "internalType": "uint256",
          "name": "qTPMinted",
          "type": "uint256"
        },
        {
          "internalType": "uint256",
          "name": "qFeeToken",
          "type": "uint256"
        }
      ],
      "stateMutability": "nonpayable",
      "type": "function"
    },
    {
      "inputs": [],
      "name": "swapTPforTPFee",
      "outputs": [
        {
          "internalType": "uint256",
          "name": "",
          "type": "uint256"
        }
      ],
      "stateMutability": "view",
      "type": "function"
    },
    {
      "inputs": [
        {
          "internalType": "address",
          "name": "tpFrom_",
          "type": "address"
        },
        {
          "internalType": "address",
          "name": "tpTo_",
          "type": "address"
        },
        {
          "internalType": "uint256",
          "name": "qTP_",
          "type": "uint256"
        },
        {
          "internalType": "uint256",
          "name": "qTPmin_",
          "type": "uint256"
        },
        {
          "internalType": "uint256",
          "name": "qACmax_",
          "type": "uint256"
        },
        {
          "internalType": "address",
          "name": "vendor_",
          "type": "address"
        }
      ],
      "name": "swapTPforTPViaVendor",
      "outputs": [
        {
          "internalType": "uint256",
          "name": "qACFee",
          "type": "uint256"
        },
        {
          "internalType": "uint256",
          "name": "qTPMinted",
          "type": "uint256"
        },
        {
          "internalType": "uint256",
          "name": "qFeeToken",
          "type": "uint256"
        }
      ],
      "stateMutability": "nonpayable",
      "type": "function"
    },
    {
      "inputs": [
        {
          "internalType": "address",
          "name": "tpFrom_",
          "type": "address"
        },
        {
          "internalType": "address",
          "name": "tpTo_",
          "type": "address"
        },
        {
          "internalType": "uint256",
          "name": "qTP_",
          "type": "uint256"
        },
        {
          "internalType": "uint256",
          "name": "qTPmin_",
          "type": "uint256"
        },
        {
          "internalType": "uint256",
          "name": "qACmax_",
          "type": "uint256"
        },
        {
          "internalType": "address",
          "name": "recipient_",
          "type": "address"
        }
      ],
      "name": "swapTPforTPto",
      "outputs": [
        {
          "internalType": "uint256",
          "name": "qACFee",
          "type": "uint256"
        },
        {
          "internalType": "uint256",
          "name": "qTPMinted",
          "type": "uint256"
        },
        {
          "internalType": "uint256",
          "name": "qFeeToken",
          "type": "uint256"
        }
      ],
      "stateMutability": "nonpayable",
      "type": "function"
    },
    {
      "inputs": [
        {
          "internalType": "address",
          "name": "tpFrom_",
          "type": "address"
        },
        {
          "internalType": "address",
          "name": "tpTo_",
          "type": "address"
        },
        {
          "internalType": "uint256",
          "name": "qTP_",
          "type": "uint256"
        },
        {
          "internalType": "uint256",
          "name": "qTPmin_",
          "type": "uint256"
        },
        {
          "internalType": "uint256",
          "name": "qACmax_",
          "type": "uint256"
        },
        {
          "internalType": "address",
          "name": "recipient_",
          "type": "address"
        },
        {
          "internalType": "address",
          "name": "vendor_",
          "type": "address"
        }
      ],
      "name": "swapTPforTPtoViaVendor",
      "outputs": [
        {
          "internalType": "uint256",
          "name": "qACFee",
          "type": "uint256"
        },
        {
          "internalType": "uint256",
          "name": "qTPMinted",
          "type": "uint256"
        },
        {
          "internalType": "uint256",
          "name": "qFeeToken",
          "type": "uint256"
        }
      ],
      "stateMutability": "nonpayable",
      "type": "function"
    },
    {
      "inputs": [],
      "name": "tcHoldersInterestPayment",
      "outputs": [],
      "stateMutability": "nonpayable",
      "type": "function"
    },
    {
      "inputs": [],
      "name": "tcInterestCollectorAddress",
      "outputs": [
        {
          "internalType": "address",
          "name": "",
          "type": "address"
        }
      ],
      "stateMutability": "view",
      "type": "function"
    },
    {
      "inputs": [],
      "name": "tcInterestPaymentBlockSpan",
      "outputs": [
        {
          "internalType": "uint256",
          "name": "",
          "type": "uint256"
        }
      ],
      "stateMutability": "view",
      "type": "function"
    },
    {
      "inputs": [],
      "name": "tcInterestRate",
      "outputs": [
        {
          "internalType": "uint256",
          "name": "",
          "type": "uint256"
        }
      ],
      "stateMutability": "view",
      "type": "function"
    },
    {
      "inputs": [],
      "name": "tcMintFee",
      "outputs": [
        {
          "internalType": "uint256",
          "name": "",
          "type": "uint256"
        }
      ],
      "stateMutability": "view",
      "type": "function"
    },
    {
      "inputs": [],
      "name": "tcRedeemFee",
      "outputs": [
        {
          "internalType": "uint256",
          "name": "",
          "type": "uint256"
        }
      ],
      "stateMutability": "view",
      "type": "function"
    },
    {
      "inputs": [],
      "name": "tcToken",
      "outputs": [
        {
          "internalType": "contract MocTC",
          "name": "",
          "type": "address"
        }
      ],
      "stateMutability": "view",
      "type": "function"
    },
    {
      "inputs": [
        {
          "internalType": "uint256",
          "name": "",
          "type": "uint256"
        }
      ],
      "name": "tpCtarg",
      "outputs": [
        {
          "internalType": "uint256",
          "name": "",
          "type": "uint256"
        }
      ],
      "stateMutability": "view",
      "type": "function"
    },
    {
      "inputs": [
        {
          "internalType": "uint256",
          "name": "",
          "type": "uint256"
        }
      ],
      "name": "tpEma",
      "outputs": [
        {
          "internalType": "uint256",
          "name": "ema",
          "type": "uint256"
        },
        {
          "internalType": "uint256",
          "name": "sf",
          "type": "uint256"
        }
      ],
      "stateMutability": "view",
      "type": "function"
    },
    {
      "inputs": [
        {
          "internalType": "uint256",
          "name": "",
          "type": "uint256"
        }
      ],
      "name": "tpLiqPrices",
      "outputs": [
        {
          "internalType": "uint256",
          "name": "",
          "type": "uint256"
        }
      ],
      "stateMutability": "view",
      "type": "function"
    },
    {
      "inputs": [
        {
          "internalType": "address",
          "name": "",
          "type": "address"
        }
      ],
      "name": "tpMintFees",
      "outputs": [
        {
          "internalType": "uint256",
          "name": "",
          "type": "uint256"
        }
      ],
      "stateMutability": "view",
      "type": "function"
    },
    {
      "inputs": [
        {
          "internalType": "address",
          "name": "",
          "type": "address"
        }
      ],
      "name": "tpRedeemFees",
      "outputs": [
        {
          "internalType": "uint256",
          "name": "",
          "type": "uint256"
        }
      ],
      "stateMutability": "view",
      "type": "function"
    },
    {
      "inputs": [
        {
          "internalType": "uint256",
          "name": "",
          "type": "uint256"
        }
      ],
      "name": "tpTokens",
      "outputs": [
        {
          "internalType": "contract IMocRC20",
          "name": "",
          "type": "address"
        }
      ],
      "stateMutability": "view",
      "type": "function"
    },
    {
      "inputs": [],
      "name": "unpause",
      "outputs": [],
      "stateMutability": "nonpayable",
      "type": "function"
    },
    {
      "inputs": [],
      "name": "updateEmas",
      "outputs": [],
      "stateMutability": "nonpayable",
      "type": "function"
    },
    {
      "inputs": [
        {
          "internalType": "address",
          "name": "newImplementation",
          "type": "address"
        }
      ],
      "name": "upgradeTo",
      "outputs": [],
      "stateMutability": "nonpayable",
      "type": "function"
    },
    {
      "inputs": [
        {
          "internalType": "address",
          "name": "newImplementation",
          "type": "address"
        },
        {
          "internalType": "bytes",
          "name": "data",
          "type": "bytes"
        }
      ],
      "name": "upgradeToAndCall",
      "outputs": [],
      "stateMutability": "payable",
      "type": "function"
    }
  ],
  "bytecode": "0x60a08060405234620000df57306080525f549060ff8260081c166200008d575060ff8082160362000052575b604051615efb9081620000e48239608051818181611fe00152818161214f01526125ea0152f35b60ff90811916175f557f7f26b83ff96e1f2b6a682f133852f6798a09c465da95921460cefb3847402498602060405160ff8152a15f6200002b565b62461bcd60e51b815260206004820152602760248201527f496e697469616c697a61626c653a20636f6e747261637420697320696e697469604482015266616c697a696e6760c81b6064820152608490fd5b5f80fdfe6040608081526004361015610012575f80fd5b5f60e08135811c90816301dde6ef1461323d57816301f1b684146131f65781630579188f1461314c578163073763b91461312857816307e8ce8b14612c295781630bb7f60814612c065781630c340a2414612bdd5781630c36d89714612bbd5781630d6ac46314612b775781630db4965614612b575781630e0a8fd214612b335781630f1e5e2b14612aed57816315266e3614612a8c57816317937f9b14612a555781631867e2f514612a355781631fb0dda014612a0c5781631fe6a7ad146129d25781632069f753146129ae57816323b98cde1461298657816324ffaba31461294957816325bc6c411461291f57816327eab2a1146128d95781632a20d57d146128b95781632b764fad146128585781632c43bd3b146128345781632d88af4a146127dd5781632ded50f0146127bd578163333431fd1461279d57816333421c38146126aa578163342468621461264f5781633659cfe6146125b55781633915edcb146125845781633bc4ac0a146125605781633dbc50a91461250f5781633f4ba83a146124945781634017936a1461244d578163407f0e341461242d5781634310adc6146123d257816344719ee91461236c578163466b893414612309578163471a80e3146122cf578163484ad7cd1461226e5781634b746001146122245781634d977e78146122045781634e1f907a146121da5781634f0f27ee146121ba5781634f1ef286146120c65781635210570c146120a057816352d1902d14611fcb57816352e18f8f14611f75578163533a4bea14611f22578163543aeb4814611efe5781635860ee6314611ede5781635c616a7314611cd65781635c975abb14611caf5781635ece17ef14611c4e57816360009e0b14611c24578163647846a514611bfa57816364ec230a14611bd6578163662013f414611bb95781636827435714611b9057816368f015df14611af45781636b5488df14611ad45781636f30471f14611ab45781637071346814611a90578163735d396014611a4a57816373e28af914611a2657816374873ad3146119c55781637554fffd146119a557816376228055146119855781637750ba0c1461196157816379f9a91c146119415781637a193c31146119215781637a4ff1d9146118fd5781637a727fe8146118dd5781637af5758c146118b95781637b21b2741461184f5781637cba23831461182b5781637d8e0314146117ec5781637f01c715146117c25781637f13b9981461178c5781637f4a4fe01461176c578163826fcd5814611749578163842d5748146116ec5781638456cb591461165757816385bf95931461161157816389fd503e146115ba5781638acc2011146115605781638cfa4241146115405781638e2bdb86146115165781638f1a383a146114ee5781639853c35a146114c457816398b2086f1461146b5781639abb14c9146114245781639ad6659d146113ee5781639bea71a4146113ac5781639cabfc00146113605781639fd0506d146113335781639fd8ed0e146112de578163a8e9ac30146112bb578163aaf91eff1461125a578163aaf925f614611205578163ac0c88ab146111aa578163aea038dc1461118a578163aeb41e6914611129578163b5e9ea8c146110ff578163b85edd65146110a4578163b9fa641314611084578163bb4872de14611060578163becaca6b1461103c578163c00f538d14611018578163c039cc6914610fd6578163c09c30bd14610f53578163c239fca414610efb578163c84353c914610ed7578163cf351c1d14610e91578163d1a0faa014610e75578163d6af11da14610e39578163d76dc7fd14610de1578163d87aab6f14610dc1578163d8db6f5a14610d7b578163db79607214610d3d578163ddb6d19014610d00578163de8d520a14610ccd578163e23c135c14610c77578163e3867eeb14610c0e578163e401294514610bb1578163e4c0aaf414610b6c578163e6a683e014610b26578163e6b1627c14610ae2578163e7c2597814610abd578163e8859a1514610aa0578163ea302a9714610a43578163ee1f438f14610a19578163f13f4054146109ef578163f26114aa1461098d578163f280877814610969578163f2f9f45614610913578163f30b5614146108f3578163f375cfba146108d3578163f88b143414610863578163fa6e83bd14610843578163fadda424146107cf578163fd80fa771461074d57508063fda70f8b14610729578063fed0ade4146106dd5763ffe315391461066f575f80fd5b346106da575060603660031901126106d6576044356001600160a01b038116908190036106d65781516106c9916106a760a083613349565b600435825260243560208301523384830152336060830152608082015261400d565b5082519182526020820152f35b5f80fd5b80fd5b50346106da57506106c96106f236600461330a565b909185519361070260a086613349565b8452602084015233858401526001600160a01b03918216606084015216608082015261400d565b50903461074957816003193601126107495760209061016e549051908152f35b5080fd5b839150346107cb576107aa906107c7936107683660046133c8565b9261077889939293519788613349565b60018060a01b03809516875260208701528786015260608501523360808501521660a083015260c08201523390615a3b565b509251918252602082015260408101919091529081906060820190565b0390f35b8280fd5b5050346106da5760203660031901126106da57506001600160a01b0360043581811681036106d65761080d610805600192613ca4565b610169613330565b5001541661081a81613d4c565b9190911561082c575060209151908152f35b602490835190637f6e4db960e01b82526004820152fd5b82843461074957816003193601126107495760209061016c549051908152f35b5050346106da5760203660031901126106da5750600435906001600160a01b03821682036106d6576108cc6108be6020936108a761089f615c7c565b919092613ca4565b916108c66108b584846139b6565b519485936139ca565b959094615bd9565b90614b36565b9051908152f35b828434610749578160031936011261074957602090610173549051908152f35b828434610749578160031936011261074957602090610163549051908152f35b5050346106da57506106c961092936600461339b565b9085939293519361093b60c086613349565b6001600160a01b039384168552602085015285840152336060840181905260808401521660a0820152614754565b82346106da5760203660031901126106da57610983615dd1565b60043561016e5580f35b839150346107cb57366003190112610749576109eb906109ab615dd1565b516379308a5560e11b60208201526109d9816109cb600460248301615478565b03601f198101835282613349565b610226546001600160a01b0316614ea3565b5080f35b8284346107495781600319360112610749576101625490516001600160a01b039091168152602090f35b8284346107495781600319360112610749576101825490516001600160a01b039091168152602090f35b839150346107cb576107aa906107c793610a5e3660046133c8565b92610a6e89939293519788613349565b60018060a01b03809516875260208701528786015260608501523360808501521660a083015260c082015233906150c7565b8284346107495781600319360112610749576020906108cc6154d9565b82843461074957816003193601126107495760209060ff61017d541690519015158152f35b828434610749576020366003190112610749576004356101be8054821015610b225790610b0e91613330565b506001815491015482519182526020820152f35b8380fd5b82346106da5760203660031901126106da576004356001600160a01b038116908190036106d657610b55615dd1565b61022680546001600160a01b031916909117905580f35b82346106da5760203660031901126106da576004356001600160a01b0381169081900361074957610b9b615dd1565b6001600160601b0360a01b609754161760975580f35b5050346106da5760603660031901126106d6576044356001600160a01b038116908190036106d6576106c991835191610beb60a084613349565b6004358352602435602084015233858401526060830152608082015233906154f0565b839150346107cb576107aa906107c793610c293660046133fa565b92899795979291925197610c3f6101008a613349565b60018060a01b0395868092168a5216602089015289880152606087015260808601523360a08601521660c08401528201523390614ec4565b82346106da57806003193601126106da57610c9130613930565b61016390610ca18254809261390f565b610ca9578280f35b80610cbf610cc592610cba30613930565b61390f565b906139a9565b905581808280f35b8284346107495781600319360112610749576020906108cc610cf5610cf0613db1565b6139ca565b90506101635461390f565b828434610749576020366003190112610749576004356001600160a01b038116908190036106d65782829160209452610177845220549051908152f35b839150346107cb57366003190112610749576109eb90610d5b615dd1565b51636dbcb03960e11b60208201526109d9816109cb600460248301615478565b82346106da5760203660031901126106da576004356001600160a01b038116908190036106d657610daa615dd1565b61018280546001600160a01b031916909117905580f35b828434610749578160031936011261074957602090610185549051908152f35b828434610749576107c7906107aa610dfa36600461343a565b919390865194610e0b60c087613349565b60018060a01b03948580941687526020870152878601523360608601521660808401521660a0820152614d0f565b8284346107495781600319360112610749576020906108cc610e5b6001613dea565b610e6f610e688284613aff565b9183613a4f565b91613e30565b82346106da57806003193601126106da57610e8e615d3e565b80f35b82346106da5760203660031901126106da576004356001600160a01b038116908190036106d657610ec0615dd1565b61016180546001600160a01b031916909117905580f35b82346106da5760203660031901126106da57610ef1615dd1565b60043561017e5580f35b828434610749576107aa6107c792610f1436600461339b565b9086949392945194610f2760c087613349565b6001600160a01b03938416865260208601528685015233606085015216608083015260a0820152614d0f565b8383346106da5760a03660031901126106da576001600160a01b039060043582811691908290036106d6576024359283168093036106d6576107c7946107aa93855193610fa261010086613349565b8452602084015260443585840152606435606084015260843560808401523360a08401523360c08401528201523390614ec4565b8284346107495781600319360112610749576020906108cc61100b611012610fff610cf0613db1565b6101639391935461390f565b918261390f565b90615e7f565b82346106da5760203660031901126106da57611032615dd1565b60043561016f5580f35b82346106da5760203660031901126106da57611056615dd1565b60043561016b5580f35b82843461074957816003193601126107495760209060ff60ca541690519015158152f35b82843461074957816003193601126107495760209061018b549051908152f35b839150346107cb576107aa906107c7936110bf3660046132e1565b926110cf88939293519687613349565b60018060a01b0316855260208501528584015260608301523360808301523360a083015260c0820152339061524c565b8284346107495781600319360112610749576101835490516001600160a01b039091168152602090f35b8383346106da57506107aa6107c7926111433660046133c8565b9261115388939293519687613349565b6001600160a01b0394851686526020860152868501526060840152336080840181905260a08401819052911660c083015290615a3b565b82843461074957816003193601126107495760209061016f549051908152f35b839150346107cb576107aa906107c7936111c53660046132e1565b926111d588939293519687613349565b60018060a01b0316855260208501528584015260608301523360808301523360a083015260c082015233906150c7565b5050346106da576106c99061121b36600461339b565b908694939294519461122e60c087613349565b6001600160a01b03938416865260208601528685015233606085015216608083015260a0820152614754565b8383346106da57506107aa6107c7926112743660046133c8565b9261128488939293519687613349565b6001600160a01b0394851686526020860152868501526060840152336080840181905260a08401819052911660c08301529061524c565b8284346107495781600319360112610749576020906101bf544310159051908152f35b5050346106da57506106c96112f436600461343a565b91939086519461130560c087613349565b60018060a01b03948580941687526020870152878601523360608601521660808401521660a0820152614754565b82843461074957816003193601126107495760ca54905160109190911c6001600160a01b03168152602090f35b5050346106da5760203660031901126106da576004356001600160a01b03811691908290036106d657829181526101686020522060ff6001825492015416825191825215156020820152f35b5050346106da57816003193601126106da57506001600160a01b039060043582811681036106d65760243592831683036106d6576020926108cc9133906153e5565b828434610749578160031936011261074957602090611417611411610cf0613db1565b90613b6f565b61017c5410159051908152f35b5050346106da57816003193601126106d65781516106c99161144760a083613349565b600435825260243560208301523384830152336060830152608082015233906154f0565b828434610749576107c7906107aa61148436600461339b565b9085939293519361149660c086613349565b6001600160a01b039384168552602085015285840152336060840181905260808401521660a0820152614d0f565b8284346107495781600319360112610749576101785490516001600160a01b039091168152602090f35b82843461074957816003193601126107495760209061150e610cf0613db1565b509051908152f35b8284346107495781600319360112610749576101885490516001600160a01b039091168152602090f35b82843461074957816003193601126107495760209061017c549051908152f35b5050346106da57506106c961157636600461339b565b9085939293519361158860c086613349565b6001600160a01b039384168552602085015285840152336060840181905260808401819052911660a0830152906157ad565b5050346106da57506106c96115d036600461343a565b9193908651946115e160c087613349565b60018060a01b03948580941687526020870152878601523360608601521660808401521660a082015233906157ad565b82346106da5760203660031901126106da576004356001600160a01b038116908190036106d657611640615dd1565b61018380546001600160a01b031916909117905580f35b828434610749578160031936011261074957611671615e5e565b60ca54601081901c6001600160a01b031633036116db5760ff8116156116ca5761ff0019166101001760ca55513381527f62e78cea01bee320cd4e420270b5ea74000d11b0c9f74754ebdbfc544b05a25890602090a180f35b815163866099c360e01b8152600490fd5b8151631d77d47760e21b8152600490fd5b839150346107cb576107aa906107c7936117073660046133c8565b9261171789939293519788613349565b60018060a01b03809516875260208701528786015260608501523360808501521660a083015260c0820152339061524c565b8284346107495781600319360112610749576020906108cc611411610cf0613db1565b82843461074957816003193601126107495760209061018a549051908152f35b8284346107495781600319360112610749576020906108cc6117ae6001613dea565b610e6f6117bb8284613a4f565b9183613aff565b8284346107495781600319360112610749576101f35490516001600160a01b039091168152602090f35b828434610749576020366003190112610749576004359161017a9081548410156106da575060209261181d91613261565b91905490519160031b1c8152f35b82346106da5760203660031901126106da57611845615dd1565b60043561017b5580f35b8383346106da57506107aa6107c7926118693660046133fa565b9288969596929192519661187f61010089613349565b60018060a01b039586809216895216602088015288870152606086015260808501523360a08501523360c085015216908201523390614ec4565b82346106da5760203660031901126106da576118d3615dd1565b6004356101725580f35b8284346107495781600319360112610749576020906101c0549051908152f35b82346106da5760203660031901126106da57611917615dd1565b6004356101735580f35b828434610749578160031936011261074957602090610166549051908152f35b828434610749578160031936011261074957602090610174549051908152f35b82346106da5760203660031901126106da5761197b615dd1565b60043561016d5580f35b828434610749578160031936011261074957602090610186549051908152f35b82843461074957816003193601126107495760209061016b549051908152f35b8383346106da57506107aa6107c7926119df3660046133c8565b926119ef88939293519687613349565b6001600160a01b0394851686526020860152868501526060840152336080840181905260a08401819052911660c0830152906150c7565b82346106da5760203660031901126106da57611a40615dd1565b6004356101845580f35b82346106da5760203660031901126106da576004356001600160a01b038116908190036106d657611a79615dd1565b61018880546001600160a01b031916909117905580f35b82346106da5760203660031901126106da57611aaa615dd1565b6004356101705580f35b828434610749578160031936011261074957602090610184549051908152f35b82843461074957816003193601126107495760209061017b549051908152f35b8383346106da57826003193601126106da57506001600160a01b03600435818116908190036106d657602435918083168093036106d65760a435948186168096036106d65760c4359182168092036106d6576107c7956107aa94865194611b5d61010087613349565b8552602085015260443586850152606435606085015260843560808501523360a085015260c08401528201523390614ec4565b82346106da57806003193601126106da57611ba9615dd1565b600160ff1960ca54161760ca5580f35b82843461074957816003193601126107495760209061150e615c7c565b82346106da5760203660031901126106da57611bf0615dd1565b6004356101895580f35b8284346107495781600319360112610749576101615490516001600160a01b039091168152602090f35b8284346107495781600319360112610749576101655490516001600160a01b039091168152602090f35b8383346106da57506107aa6107c792611c6836600461329e565b939492611c7a89939293519788613349565b60018060a01b039586809516885260208801528887015260608601523360808601521660a08401521660c08201523390615a3b565b82843461074957816003193601126107495760209060ff60ca5460081c1690519015158152f35b828434610749578160031936011261074957611cf0615e5e565b61017f80544310611ecd5761017e54430190557fd3c59bda47e141a8ec5a33d241b7f71b86e30d359f83a9227d912858b60404fc8280a1611d2f615321565b6101695482611d3d82613ba4565b91845b818110611dff57505080611dba575b918051928184019084526020918285015282518091528160608501930191855b828110611da657867fae5116a8119d08673a0f1dfa7546b95da4bd54bb17feda7c61130ac7859152f687870388a1600161012f5580f35b835185529381019392810192600101611d6f565b611dd1670de0b6b3a76400009161016b5490613ace565b04610163611de082825461390f565b905561017854611dfa9082906001600160a01b0316615378565b611d4f565b611e0881613cde565b611e128183614a8a565b866101809186611e228585613261565b90549060031b1c91838313611e3f575b5050505050600101611d40565b94611e8483829699611e8a94611e7e85611e71611e77611ea09a60019e670de0b6b3a764000093849161016c54613ace565b04613ace565b04926139b6565b526139a9565b97613261565b819391549060031b91821b915f19901b19161790565b9055611ec3611eaf82876139b6565b5188848060a01b03610179541691846149c1565b9086888681611e32565b815163101b685960e01b8152600490fd5b828434610749578160031936011261074957602090610187549051908152f35b82346106da5760203660031901126106da57611f18615dd1565b6004356101755580f35b82346106da5760203660031901126106da576004356001600160a01b03811681036106d657610e8e90611f53615dd1565b6101f380546001600160a01b0319166001600160a01b03909216919091179055565b5050346106da576106c990611f8b36600461339b565b9086949392945194611f9e60c087613349565b60018060a01b03809416865260208601528685015233606085015216608083015260a082015233906157ad565b5050346106da57806003193601126106da57507f00000000000000000000000000000000000000000000000000000000000000006001600160a01b0316300361203757602090517f360894a13ba1a3210667c828492db98dca3e2076cc3735a920a3ca505d382bbc8152f35b5162461bcd60e51b815260206004820152603860248201527f555550535570677261646561626c653a206d757374206e6f742062652063616c60448201527f6c6564207468726f7567682064656c656761746563616c6c00000000000000006064820152608490fd5b82346106da57806003193601126106da576120b9615dd1565b60ff1960ca541660ca5580f35b82848060031936011261074957600435906001600160a01b039081831683036106d65783926024359267ffffffffffffffff84116121b657366023850112156121b65783600401359061212461211b8361337f565b94519485613349565b81845236602483870101116121b257610e8e956020836121a5946024600199018389013786010152807f0000000000000000000000000000000000000000000000000000000000000000169061217c8230141561346c565b7f360894a13ba1a3210667c828492db98dca3e2076cc3735a920a3ca505d382bbc5416146134cd565b6121ad615dd1565b61352e565b8580fd5b8480fd5b82843461074957816003193601126107495760209061016d549051908152f35b8284346107495781600319360112610749576101795490516001600160a01b039091168152602090f35b82843461074957816003193601126107495760209061017e549051908152f35b828434610749576020366003190112610749576004356101698054821015610b22579061225091613330565b50805460019091015482519182526001600160a01b03166020820152f35b5050346106da5760603660031901126106d6576004356001600160a01b038116908190036106d6576106c9918351916122a860c084613349565b825260243560208301526044358483015233606083015233608083015260a0820152614754565b5050346106da575060603660031901126106d6576044356001600160a01b038116908190036106d65781516106c99161144760a083613349565b5050346106da5760603660031901126106d6576004356001600160a01b038116908190036106d6576106c99183519161234360c084613349565b825260243560208301526044358483015233606083015233608083015260a082015233906157ad565b8284346107495760603660031901126106d6576004356001600160a01b03811692908390036106d6576107c7926107aa918351916123ab60c084613349565b825260243560208301526044358483015233606083015233608083015260a0820152614d0f565b5050346106da5760603660031901126106d6576044356001600160a01b038116908190036106d6576106c99183519161240c60a084613349565b6004358352602435602084015233858401526060830152608082015261400d565b828434610749578160031936011261074957602090610170549051908152f35b8284346107495781600319360112610749576020906108cc61247e61248e612488612476615c7c565b9390936139ca565b8181939295614bc6565b92614484565b90614b1c565b82843461074957816003193601126107495760ca5460ff8160081c16156124fe57601081901c6001600160a01b031633036116db5761ff00191660ca55513381527f5db9ee0a495bf2e6ff9c91a7834c1ba4fdd244a5e8aa4e537bd38aeae4b073aa90602090a180f35b8151637c7fd07960e01b8152600490fd5b5050346106da57506106c961252536600461330a565b909185519361253560a086613349565b84526020840152338584018190526001600160a01b03928316606085015291166080830152906154f0565b82346106da5760203660031901126106da5761257a615dd1565b6004356101c05580f35b828434610749576020366003190112610749576004359161016a9081548410156106da575060209261181d91613261565b82843461074957602036600319011261074957600435906001600160a01b039081831683036106d657610e8e926126178386947f0000000000000000000000000000000000000000000000000000000000000000169061217c8230141561346c565b61261f615dd1565b61263461262b8461337f565b92519283613349565b828252601f196126438461337f565b0136602084013761352e565b839150346107cb576107aa906107c79361266a3660046132e1565b9261267a88939293519687613349565b60018060a01b0316855260208501528584015260608301523360808301523360a083015260c08201523390615a3b565b8284346107495781600319360112610749576126c4615e5e565b61017d805460ff81168061278f575b80612775575b6126e1578380f35b61ff00191661010017905580519082907f8b77276c97a5709f0d6db52329848a254eb760ce8be80d281799f633bdb69e838280a1610165546001600160a01b0316803b156107cb5783600481858094638456cb5960e01b83525af190811561276a575061275a575b5050612753613bd6565b8180808380f35b61276391613349565b8181612749565b51913d9150823e3d90fd5b50612784611411610cf0613db1565b61017c5410156126d9565b5060ff8160081c16156126d3565b828434610749578160031936011261074957602090610171549051908152f35b828434610749578160031936011261074957602090610175549051908152f35b82346106da5760203660031901126106da576004356001600160a01b03811681036107495761280a615dd1565b60ca805462010000600160b01b03191660109290921b62010000600160b01b031691909117905580f35b82346106da5760203660031901126106da5761284e615dd1565b60043561017c5580f35b8383346106da57506107aa6107c79261287236600461329e565b93949261288489939293519788613349565b60018060a01b039586809516885260208801528887015260608601523360808601521660a08401521660c0820152339061524c565b828434610749578160031936011261074957602090610172549051908152f35b82346106da5760203660031901126106da576004356001600160a01b0381169081900361074957612908615dd1565b61017980546001600160a01b031916909117905580f35b82843461074957816003193601126107495761028b5490516001600160a01b039091168152602090f35b828434610749576020366003190112610749576004356001600160a01b038116908190036107cb5782829160209452610176845220549051908152f35b82843461074957816003193601126107495760209060ff61017d5460081c1690519015158152f35b82346106da5760203660031901126106da576129c8615dd1565b6004356101745580f35b82346106da5760203660031901126106da57600435801515809103610749576129f9615dd1565b61017d9060ff8019835416911617905580f35b8284346107495781600319360112610749576020906108cc612a2f610cf0613db1565b90614484565b82843461074957816003193601126107495760209061017f549051908152f35b82843461074957602036600319011261074957600435916001600160a01b03831683036106da57506108cc602092339033906153e5565b8383346106da57506107aa6107c792612aa636600461329e565b939492612ab889939293519788613349565b60018060a01b039586809516885260208801528887015260608601523360808601521660a08401521660c082015233906150c7565b82346106da5760203660031901126106da576004356001600160a01b0381169081900361074957612b1c615dd1565b61016280546001600160a01b031916909117905580f35b82346106da5760203660031901126106da57612b4d615dd1565b6004356101715580f35b828434610749578160031936011261074957602090610189549051908152f35b82346106da5760203660031901126106da576004356001600160a01b0381169081900361074957612ba6615dd1565b61017880546001600160a01b031916909117905580f35b8284346107495781600319360112610749576020906101bf549051908152f35b82843461074957816003193601126107495760975490516001600160a01b039091168152602090f35b5050346106da57816003193601126106da5781516106c9916106a760a083613349565b828434610749576103e036600319011261074957815460ff8160081c16159081809261311b575b8015613104575b156130a95760ff198116600117845581613098575b506103c4356001600160a01b03811690819003610b225761028b80546001600160a01b0319169091179055825460081c60ff16612ca881613f87565b610364356001600160a01b038116908190036121b65761022680546001600160a01b03191690911790556001600160a01b0361032435908116908190036121b657610344356001600160a01b03811681036121b257600191612d0984613f87565b612d1284613f87565b612d1b84613f87565b612d2484613f87565b6001600160601b0360a01b6097541617609755612d4083613f87565b60ca5490620100008360b01b039060101b169061ff018360b01b031916171760ca55612d6b81613f87565b670de0b6b3a764000060a4351061308757612d8760e435615ea3565b612d9361010435615ea3565b612d9f61012435615ea3565b612dab61014435615ea3565b612db761016435615ea3565b612dc361018435615ea3565b612dcf6101a435615ea3565b612ddb6101c435615ea3565b612de76101e435615ea3565b612dff612dfa61022435610204356139a9565b615ea3565b6004356001600160a01b038116908190036121b65761016180546001600160a01b03191690911790556024356001600160a01b03811681036121b65761016280546001600160a01b0319166001600160a01b0392831617905560443590811681036121b65761016580546001600160a01b0319166001600160a01b0392831617905560643590811681036121b65761017880546001600160a01b0319166001600160a01b03928316179055608435908116908190036121b65761017980546001600160a01b031916909117905560a43561017b5560c43561017c5560e43561016d556101043561016e556101243561016f556101443561017055610164356101715561018435610172556101a435610173556101c435610174556101e435610175556102043561016b556102243561016c556102443561017e8190556001600160a01b0361026435908116908190036121b25761018880546001600160a01b031916909117905561028435610189556102a43561018a819055906001600160a01b036102c435908116908190036130835761018280546001600160a01b03191690911790556001600160a01b036102e4359081169081900361308357610183906001600160601b0360a01b82541617905561030435610184554361018755430161017f55430161018b5561017d61ffff1981541690556103843561300282613f87565b8015613072576101c081905543016101bf556103a4356001600160a01b03811681036121b657611f5361303492613f87565b61303c575080f35b60207f7f26b83ff96e1f2b6a682f133852f6798a09c465da95921460cefb38474024989161ff001984541684555160018152a180f35b8351632a9ffab760e21b8152600490fd5b8680fd5b8251632a9ffab760e21b8152600490fd5b61ffff191661010117835583612c6c565b825162461bcd60e51b815260206004820152602e60248201527f496e697469616c697a61626c653a20636f6e747261637420697320616c72656160448201526d191e481a5b9a5d1a585b1a5e995960921b6064820152608490fd5b50303b158015612c575750600160ff821614612c57565b50600160ff821610612c50565b82346106da5760203660031901126106da57613142615dd1565b60043561018a5580f35b828434610749578160031936011261074957613166615e5e565b61316e615321565b61018b805443106131e557906131dc9161018a54430190557f0e37fda283839477a1b77e29acf8336c0e13a5daa967913df0fe5ad258c0822f6020670de0b6b3a76400006131c3610163546101895490613ace565b049251838152a1610188546001600160a01b0316615378565b600161012f5580f35b815163acce20e560e01b8152600490fd5b82843461074957602036600319011261074957600435916101679081548410156106da575060209261322791613261565b905491519160018060a01b039160031b1c168152f35b82346106da5760203660031901126106da57613257615dd1565b60043561016c5580f35b8054821015613276575f5260205f2001905f90565b634e487b7160e01b5f52603260045260245ffd5b35906001600160a01b03821682036106d657565b91908260c09103126106d6576132b38261328a565b916020810135916040820135916060810135916132de60a06132d76080850161328a565b930161328a565b90565b91908260809103126106d6576132f68261328a565b916020810135916060604083013592013590565b91908260809103126106d6578135916020810135916132de60606132d76040850161328a565b8054821015613276575f5260205f209060011b01905f90565b90601f8019910116810190811067ffffffffffffffff82111761336b57604052565b634e487b7160e01b5f52604160045260245ffd5b67ffffffffffffffff811161336b57601f01601f191660200190565b91908260809103126106d6576133b08261328a565b916020810135916132de60606040840135930161328a565b908160a09103126106d6576133dc8161328a565b916020820135916040810135916132de60806060840135930161328a565b91908260c09103126106d65761340f8261328a565b9161341c6020820161328a565b916040820135916060810135916132de60a06080840135930161328a565b908160a09103126106d65761344e8161328a565b916020820135916040810135916132de60806132d76060850161328a565b1561347357565b60405162461bcd60e51b815260206004820152602c60248201527f46756e6374696f6e206d7573742062652063616c6c6564207468726f7567682060448201526b19195b1959d85d1958d85b1b60a21b6064820152608490fd5b156134d457565b60405162461bcd60e51b815260206004820152602c60248201527f46756e6374696f6e206d7573742062652063616c6c6564207468726f7567682060448201526b6163746976652070726f787960a01b6064820152608490fd5b9060ff7f4910fdfa16fed3260ed0e7147f7cc6da11a60208b5b9406d12a635614ffd914354165f1461356757506135659150613718565b565b6040516352d1902d60e01b8152602093919291906001600160a01b038316908581600481855afa5f91816136e9575b506135f75760405162461bcd60e51b815260048101879052602e60248201527f45524331393637557067726164653a206e657720696d706c656d656e7461746960448201526d6f6e206973206e6f74205555505360901b6064820152608490fd5b9394937fc9f76b5ec45e5cdef99837d7b6d2467235c1df8933c8ca56df5c35afa2c7d444016136925761362983613718565b7fbc7cd75a20ee27fd9adebab32041f755214dbc6bffa90cc0225b39da2e5c2d3b5f80a28351159081159161368a575b5061366357505050565b5f80613687946136716137ba565b9481519101845af461368161380e565b9161383d565b50565b90505f613659565b60405162461bcd60e51b815260048101859052602960248201527f45524331393637557067726164653a20756e737570706f727465642070726f786044820152681a58589b195555525160ba1b6064820152608490fd5b90918782813d8311613711575b6137008183613349565b810103126106da575051905f613596565b503d6136f6565b803b1561375f577f360894a13ba1a3210667c828492db98dca3e2076cc3735a920a3ca505d382bbc80546001600160a01b0319166001600160a01b03909216919091179055565b60405162461bcd60e51b815260206004820152602d60248201527f455243313936373a206e657720696d706c656d656e746174696f6e206973206e60448201526c1bdd08184818dbdb9d1c9858dd609a1b6064820152608490fd5b6137c4602761337f565b906137d26040519283613349565b60278252660819985a5b195960ca1b6040837f416464726573733a206c6f772d6c6576656c2064656c65676174652063616c6c60208201520152565b3d15613838573d9061381f8261337f565b9161382d6040519384613349565b82523d5f602084013e565b606090565b9192901561389f5750815115613851575090565b3b1561385a5790565b60405162461bcd60e51b815260206004820152601d60248201527f416464726573733a2063616c6c20746f206e6f6e2d636f6e74726163740000006044820152606490fd5b8251909150156138b25750805190602001fd5b6040519062461bcd60e51b82528160208060048301528251908160248401525f935b8285106138f6575050604492505f838284010152601f80199101168101030190fd5b84810182015186860160440152938101938593506138d4565b9190820391821161391c57565b634e487b7160e01b5f52601160045260245ffd5b61028b546040516370a0823160e01b81526001600160a01b0392831660048201529160209183916024918391165afa90811561399e575f91613970575090565b906020823d8211613996575b8161398960209383613349565b810103126106da57505190565b3d915061397c565b6040513d5f823e3d90fd5b9190820180921161391c57565b80518210156132765760209160051b010190565b905f915f906101698054905f925b8284106139fe57505050506139fa670de0b6b3a76400009161016b5490613ace565b0490565b9091929395613a45613a3a613a3f600193610cbf613a1c8a886139b6565b51613a27818c613a6a565b9590613a338d8c613330565b50546139a9565b615e7f565b986139a9565b94019291906139d8565b9190915f838201938412911290801582169115161761391c57565b91905f90613a96815f95613a8c613a8382610180613261565b93905492613b17565b9160031b1c613a4f565b5f8113613aa4575b50509190565b613ac6919450611e7192508094670de0b6b3a764000093849161016c54613ace565b045f80613a9e565b8181029291811591840414171561391c57565b8115613aeb570490565b634e487b7160e01b5f52601260045260245ffd5b81810392915f13801582851316918412161761391c57565b613b2381610169613330565b505490670de0b6b3a76400009182810292818404149015171561391c576132de92613b63613b56613b6993610181613261565b90549060031b1c84613ae1565b92613ae1565b90613aff565b8015613b8557613a3a6132de926101635461390f565b50505f1990565b67ffffffffffffffff811161336b5760051b60200190565b90613bae82613b8c565b613bbb6040519182613349565b8281528092613bcc601f1991613b8c565b0190602036910137565b61016354801561368757610169908154915f90613bf284613ba4565b9082905b858210613c605750505f5b848110613c0f575050505050565b613c2c84613c2785613c2185876139b6565b51613ace565b613ae1565b9061016a9182546801000000000000000081101561336b57611e8a8160019586613c5894018155613261565b905501613c01565b9092613c9c600191613c7186613cde565b613c7b87876139b6565b52610cbf613c898786613330565b5054613c9588886139b6565b5190615e7f565b930190613bf6565b6001600160a01b03165f90815261016860205260409020600181015460ff1615613ccc575490565b60405163e6c4247b60e01b8152600490fd5b613cea90610169613330565b50600101546001600160a01b0316613d0181613d4c565b91909115613d0d575090565b60249060405190637f6e4db960e01b82526004820152fd5b519081151582036106d657565b91908260409103126106d6576132de602083519301613d25565b604080516359e02dd760e01b81529291839060049082906001600160a01b03165afa91821561399e575f908193613d8257509190565b9050613da691925060403d8111613daa575b613d9e8183613349565b810190613d32565b9091565b503d613d94565b6101695490613dbf82613ba4565b915f5b818110613dcd575050565b80613dd9600192613cde565b613de382876139b6565b5201613dc2565b90613e0b670de0b6b3a7640000928361018754610184549243010302613ae1565b82811015613e285782039180836101855402049261018654020590565b505f91508190565b9091613e3a613e90565b929080821015613e87578391613e4f9161390f565b931115613e825781811015613e7b57613e679161390f565b60011c80821015613e76575090565b905090565b5050505f90565b505090565b50505050505f90565b61018254604080516359e02dd760e01b80825293929091906001600160a01b039081168284600481845afa8015613f7d575f948591613f5a575b5015613f43575061018354169080519485528085600481855afa8015613f39575f958691613f16575b5015613eff5750509190565b6024925051906305e8989360e11b82526004820152fd5b905081613f309296503d8711613daa57613d9e8183613349565b9490945f613ef3565b50513d5f823e3d90fd5b6024908351906305e8989360e11b82526004820152fd5b9050613f74919450833d8511613daa57613d9e8183613349565b9390935f613eca565b83513d5f823e3d90fd5b15613f8e57565b60405162461bcd60e51b815260206004820152602b60248201527f496e697469616c697a61626c653a20636f6e7472616374206973206e6f74206960448201526a6e697469616c697a696e6760a81b6064820152608490fd5b60405190613ff6608083613349565b5f6060838281528260208201528260408201520152565b61409191614019613fe7565b5061402261441f565b61402a615e5e565b670de0b6b3a764000061405c61405661404d614044613db1565b61017b54614441565b86519291614484565b90613ace565b049161408660018060a01b036040830151168460018060a01b0360808501511661016e54926144b3565b9491829691966139a9565b9160208101518084116142cc575082156142ba5760018060a01b0360408201511660018060a01b03606083015116907fa02482a2126fa394339a603e5b911cbb1bfc18ea48cd9c0896f81d083eff450f8584516141148a5160208c01518c606060408201519101519160018060a01b0360808c0151169360405197889788615775565b0390a36141896020825160018060a01b036060850151166101666141398382546139a9565b90556141496101639687546139a9565b8655610165546040516340c10f1960e01b81526001600160a01b0392831660048201526024810193909352919384929091169082905f9082906044820190565b03925af1801561399e57614279575b5061028b54614241925f92916141bc908690309033906001600160a01b03166142ea565b60408201516080909201516001600160a01b0392831692166141dc615321565b87511515841461424c5761423161423c92670de0b6b3a764000061420561016d548c5190613ace565b04906142128282546139a9565b905561422b60018060a01b036101785416918b5161390f565b90615378565b604088015190615378565b615378565b600161012f55929190565b61017854602089015161423c935061426d916001600160a01b0316856153c2565b606088015190836153c2565b906020823d6020116142b2575b8161429360209383613349565b810103126106d657614241926142a95f93613d25565b50925090614198565b3d9150614286565b60405163f3e39b5d60e01b8152600490fd5b6044908460405191630b63f1a760e01b835260048301526024820152fd5b6040516323b872dd60e01b60208201526001600160a01b0392831660248201529290911660448301526064808301939093529181526135659161432e608483613349565b602091614390916001600160a01b03165f806143498661337f565b936143576040519586613349565b8685527f5361666545524332303a206c6f772d6c6576656c2063616c6c206661696c656487860152868151910182855af161368161380e565b8051828115918215614400575b50509050156143a95750565b6084906040519062461bcd60e51b82526004820152602a60248201527f5361666545524332303a204552433230206f7065726174696f6e20646964206e6044820152691bdd081cdd58d8d9595960b21b6064820152fd5b83809293500103126106d657816144179101613d25565b80825f61439d565b60ff61017d5460081c1661442f57565b604051631ca61d7760e01b8152600490fd5b919061444c906139ca565b9190926144598385613b6f565b9080821115614466575050565b6044925060405191637912120160e01b835260048301526024820152fd5b90610166549081156144a4576132de92610cba613a3a926101635461390f565b505050670de0b6b3a764000090565b929093915f915f9182966144c5613fe7565b966001600160a01b039185908316806146d1575b508261016154168360405193636eb1769f60e11b8552168060048501523060248501526020948585604481865afa9485156146c6578495614697575b5084614576575b505050505086015115614532575b505050929190565b9091925061454a670de0b6b3a7640000928392613ace565b0480855290821561456e576145669204908160408601526139a9565b5f808061452a565b509050614566565b614584906101625416613d4c565b9290921561451c57909192939b50848b6145be85670de0b6b3a76400006145b86145ae8d8d613ace565b6101755490613ace565b04613ae1565b81830181815295908b1561468d57506145e9916145dd6060928d613ae1565b918291015285516139a9565b809d5b10928315614618575b505050614605575b80808061451c565b8192995052806060880152965f806145fd565b909192506024604051809481936370a0823160e01b835260048301525afa90811561468257908b918491614651575b50105f84816145f5565b809250858092503d831161467b575b61466a8183613349565b810103126107cb578a90515f614647565b503d614660565b6040513d85823e3d90fd5b915050809d6145ec565b9094508581813d83116146bf575b6146af8183613349565b81010312610b225751935f614515565b503d6146a5565b6040513d86823e3d90fd5b9095506020836101f35416916024604051809481936364a731e960e01b835260048301525afa8015614749578690614716575b61470f915084613ace565b945f6144d9565b506020813d8211614741575b8161472f60209383613349565b810103126121b25761470f9051614704565b3d9150614722565b6040513d88823e3d90fd5b61475c613fe7565b5061476561441f565b61476d615e5e565b614775615d3e565b61477d615c7c565b82519093919290614796906001600160a01b0316613ca4565b926147d16147b96147a786886139b6565b51966147b38888614a8a565b83614441565b90876020860151946147cb828a615bd9565b90614ade565b8181106149a35750506147eb61482e946020830151615e7f565b606082015160a083015183516001600160a01b039081165f9081526101766020526040902054614823939092859290811691166144b3565b9591839791976139a9565b926040810151808511614985575083156142ba576148ef5f926142419460018060a01b0384511660018060a01b0360608601511660018060a01b03608087015116917fbcf2dd35a7b66d878322508590f8c0f2e1042f2101dc031278e3819a304ace618a8d6148c960208b0151918b8151916020810151606060408301519201519260a0600180821b03910151169360405197889788615775565b0390a46148d68582614bfd565b602084015160808501516001600160a01b0316926149c1565b61028b5461490b908590309033906001600160a01b03166142ea565b606081015160a0909101516001600160a01b03918216911661492b615321565b8651151583146149635761423c90614231670de0b6b3a764000061495461016d548b5190613ace565b046101636142128282546139a9565b61017854602088015161423c929161426d91906001600160a01b0316856153c2565b6044908560405191630b63f1a760e01b835260048301526024820152fd5b604492506040519163c39b739f60e01b835260048301526024820152fd5b614a38936149ff5f926020956149d982610169613330565b506149e58782546139a9565b90556149f56101639182546139a9565b9055610167613261565b90546040516340c10f1960e01b81526001600160a01b039093166004840152602483019490945290948593928492909183906044820190565b039360039190911b1c6001600160a01b03165af1801561399e57614a595750565b6020813d8211614a82575b81614a7160209383613349565b810103126106d65761368790613d25565b3d9150614a64565b611e8a614ada91614a9b8482613b17565b614ad0614aaa83610180613261565b614abd8294925492838360031b1c613a4f565b919060031b91821b915f19901b19161790565b9055610181613261565b9055565b91838591614aec9385614b36565b925f8412928315614b07575b505050614b025790565b505f90565b614b12929350613b6f565b11155f8080614af8565b8115613aeb57600160ff1b81145f1983141661391c570590565b92614b449295949193614bc6565b5f938181029190858212600160ff1b821416614bb2578183051490151715614b9e57670de0b6b3a763ffff198201918211614b9e57670de0b6b3a764000091828102928184041490151715614b9e576132de929350614b1c565b634e487b7160e01b84526011600452602484fd5b634e487b7160e01b86526011600452602486fd5b9091614bd5906101635461390f565b90670de0b6b3a76400009182810292818404149015171561391c576132de92613b6991613ace565b80614c06613e90565b919093614c125f613dea565b9401938291614ca9575b0193845f808212614ca357505b840391818511614c6b575050818111614c4d57505061018555610186554361018755565b60449250604051916306da41e560e11b835260048301526024820152fd5b9080859211614c9157604491604051916306da41e560e11b835260048301526024820152fd5b604051630fb4fd3560e11b8152600490fd5b03614c29565b9050815f0390614c1c565b80910360e081126106d6578151926020830151926080604082015193605f1901126106d65760c060405191614cea608084613349565b606081015183526080810151602084015260a081015160408401520151606082015290565b90614d18613fe7565b50614d2161441f565b614d29615e5e565b5f60405191637225da8960e11b602084015260018060a01b0384511660248401526020840193845160448501526040810151606485015260018060a01b036060820151166084850152614e97614dbf614db0608084019660018060a01b0388511660a482015260018060a01b0360a08601511660c482015260c481526109d960e482613349565b60208082518301019101614cb4565b9692949198909760018060a01b038351167f2027743d48a615d54941306fd36c7ec4f15155b7837f1d1fac001f9fca73970f60018060a01b036060860151169260018060a01b0390511693518c614e788a8d805190602081015160606040830151920151928c60a0600180821b03910151169460405198899889969390989794919260e0969361010089019a8952602089015260408801526060870152608086015260a085015260c084015260018060a01b0316910152565b0390a461028b5461490b908590309033906001600160a01b03166142ea565b600161012f5593929190565b906132de915f80614eb26137ba565b93602081519101845af461368161380e565b905f92614f78614db0614e9793614ed9613fe7565b50614ee261441f565b614eea615e5e565b60408051631740b6e360e11b60208083019190915288516001600160a01b039081166024840152908901518116604483015291880151606482015260608801516084820152608088015160a482015260a0880151821660c482015260c0880151821660e482015260e0880151821661010482015291166101248083019190915281526109d961014482613349565b949196909560018060a01b0381511660018060a01b036020830151169060018060a01b0360a084015116907fe2c83b7332b25da226005e313fa95068d29d93d740b0bbd0b440615ef02f8cc461010060018060a01b0360c087015116948d6040880151908d805160208201519060606040840151930151938c60e060018060a01b039101511695604051978852602088015260408701526060860152608085015260a084015260c083015260e0820152a461028b54615045908590309033906001600160a01b03166142ea565b60a081015160e0909101516001600160a01b03918216911661492b615321565b90929160c060e09161010084019560018060a01b039281848093511687526020810151602088015260408101516040880152606081015160608801528260808201511660808801528260a08201511660a088015201511660c085015216910152565b905f92615110614db06109cb6109d9614e97956150e2613fe7565b506150eb61441f565b6150f3615e5e565b60405163ab6dd71d60e01b60208201529283918960248401615065565b9491969095878660018060a01b03835116608084019060018060a01b0382511660018060a01b0360a087015116917f7e56a428e0421aac1dabe4207701c8a9cf0b76f6d7ab85f73d98a86294c992fc60208801519686519761519c60208901998a519b60408b019a60c060608d5192015192019d8e60018060a01b039051169360405197889788615775565b0390a461028b546151bb908890309033906001600160a01b03166142ea565b5192516001600160a01b039384169316906151d4615321565b88511515851461522d5761423c9250615226670de0b6b3a76400006151fe61016d548c5190613ace565b0461016361520d8282546139a9565b905561422b60018060a01b036101785416918c5161390f565b5190615378565b5061017854915161423c9261426d91906001600160a01b0316856153c2565b905f92615295614db06109cb6109d9614e9795615267613fe7565b5061527061441f565b615278615e5e565b60405163474c3add60e11b60208201529283918960248401615065565b9491969095878660018060a01b03835116608084019060018060a01b0382511660018060a01b0360a087015116917f21ab49eba1e974aa50c50aec84de10487a4198e478b26afb214fd269e60e319060208801519686519761519c60208901998a519b60408b019a60c060608d5192015192019d8e60018060a01b039051169360405197889788615775565b61012f60028154146153335760029055565b60405162461bcd60e51b815260206004820152601f60248201527f5265656e7472616e637947756172643a207265656e7472616e742063616c6c006044820152606490fd5b9080615382575050565b61028b5460405163a9059cbb60e01b60208201526001600160a01b039384166024820152604480820193909352918252613565921661432e606483613349565b9190816153ce57505050565b6101615461356593906001600160a01b03166142ea565b615453916153f1615e5e565b6153f9615321565b61540230613930565b604051636845c44560e01b60208201526001600160a01b0393841660248201529183166044830152848316606483015260848083019190915281529061544960a483613349565b6102265416614ea3565b6020818051810103126106d657602061546f9101518092615378565b600161012f5590565b60e08101929160c09081906001600160a01b03806154958361328a565b1685526154a46020830161328a565b16602085015260408101356040850152606081013560608501526080810135608085015260a081013560a08501520135910152565b61017f5480431015614b02576132de90439061390f565b90916154fa613fe7565b5061550361441f565b61550b615e5e565b615513615d3e565b61552661551e615c7c565b819291614441565b9091615535828487519361575d565b81811061573f575050670de0b6b3a76400009161405661555792865192614484565b049182156142ba576040810151608082015161016f54615595969261558a9287916001600160a01b0391821691166144b3565b95918297919761390f565b92602081015180851061572157508560018060a01b0360408301511660018060a01b03606084015116907ff47ea38b2dbacd4ea4e4c63f21b558d8acd7cf60181e4ca6c2e09bf1ef6c91df87855161561486516020880151606060408a015199019889519160018060a01b0360808d0151169360405197889788615775565b0390a381519361016661562886825461390f565b905561563861016394855461390f565b8455610165546001600160a01b031694853b156106d657604051632770a7eb60e21b81526001600160a01b039290921660048301526024820152935f908590604490829084905af192831561399e57614241948694615711575b50604083015160608401516080909401516001600160a01b0394851694908116939116906156be615321565b8951156156e75750509061423161423c92670de0b6b3a764000061420561016d548c5190613ace565b6101785460208b015161423c9593945061570a916001600160a01b0316856153c2565b51916153c2565b5f61571b91613349565b5f615692565b60449085604051916354cde31360e01b835260048301526024820152fd5b604492506040519163a5db715d60e01b835260048301526024820152fd5b614aec61576b848484614bc6565b61248e8585614484565b959260c09592989794919860e08801998852602088015260408701526060860152608085015260a084015260018060a01b0316910152565b9091615855926157bb613fe7565b506157c461441f565b6157cc615e5e565b6157d4613db1565b8351615812906157ec906001600160a01b0316613ca4565b916158066157fa84836139b6565b51916140448386614a8a565b50506020860151615e7f565b606085015160a086015186516001600160a01b039081165f908152610177602052604090205461584a939092859290811691166144b3565b96918398919861390f565b9382156142ba576040820151808610615a1d575060018060a01b0382511660018060a01b0360608401511660018060a01b03608085015116917f9a7c695d191e65e20d74a5fd655a98fa9323ed1f504360e03defc63e668b47288860208701516158e78d80519060208101519060606040820151910151918c60a0600180821b03910151169360405197889788615775565b0390a46158f5600186614bfd565b61593060208301519461590a81610169613330565b5061591687825461390f565b905561592661016395865461390f565b8555610167613261565b905460039190911b1c6001600160a01b031693843b156106d657604051632770a7eb60e21b81526001600160a01b039290921660048301526024820152925f908490604490829084905af191821561399e57614241938593615a0d575b506060820151608083015160a0909301516001600160a01b039384169390811691166159b7615321565b8851156159de575061423161423c92670de0b6b3a764000061420561016d548c5190613ace565b6101785460208a015161423c9450919291615a02916001600160a01b0316846153c2565b6060890151916153c2565b5f615a1791613349565b5f61598d565b60449086604051916354cde31360e01b835260048301526024820152fd5b9091615a83614db06109cb6109d9614e9796615a55613fe7565b50615a5e61441f565b615a66615e5e565b60405163178aad2b60e11b60208201529283918860248401615065565b939280929691958560018060a01b0382511660018060a01b0360808401511660018060a01b0360a085015116917fa1062c9e887113838edfbc65f23a4fd5cfeb240416670cdf3fa10ba3c85f251f8c6020870151615b4489885160208a01998a5160606040830151920151928d60c060018060a01b03910151169460405198899889969390989794919260e0969361010089019a8952602089015260408801526060870152608086015260a085015260c084015260018060a01b0316910152565b0390a4608082015160a083015160c0909301516001600160a01b039384169390811692911690615b72615321565b885115615b9a57505061423c90614231670de0b6b3a764000061495461016d548b5190613ace565b61017854905161423c9391615a0291906001600160a01b0316846153c2565b90604051615bc8604082613349565b602060018294805484520154910152565b615be58161017a613261565b90549060031b1c916101be91615bfb8184613330565b5054926101bf54431015615c21575b505080821015613e8257613c27906132de93613ace565b829350615c35615c409392615c3b92613330565b50615bb9565b615c48565b905f80615c0a565b602081519101805192670de0b6b3a76400009384039084821161391c57615c75610cbf926139fa95613ace565b9251613ace565b5f8061016991825492615c8e84613ba4565b9382915b818310615cbb575050508115615caf5790615cac91613ae1565b91565b505061017b5460011b91565b90919392615cc885613cde565b9081615cd487896139b6565b52615ced615ce28388613a6a565b50613a338886613330565b670de0b6b3a76400009081810291818304149015171561391c57615d2f615d3592610cbf85615d21600197615d2a96615e7f565b9485918c615bd9565b613ace565b956139a9565b94019190615c92565b6101bf8054431015615d4d5750565b610169545f5b818110615d665750506101c05443019055565b80807f19156e9379c7bbbce8f646ce5ee30ba860b8f954717405f3d5859a6c1a21ae606001936101be615d9c615c358383613330565b90615dba615db2615dac85613cde565b84615c48565b938492613330565b50555160409182519182526020820152a201615d53565b60975460405163d994d6d560e01b815233600482015290602090829060249082906001600160a01b03165afa90811561399e575f91615e25575b5015615e1357565b604051631dd1b1b560e21b8152600490fd5b906020823d8211615e56575b81615e3e60209383613349565b810103126106da5750615e5090613d25565b5f615e0b565b3d9150615e31565b60ff60ca5460081c16615e6d57565b60405163783bb6c960e11b8152600490fd5b90670de0b6b3a76400009182810292818404149015171561391c576132de91613ae1565b670de0b6b3a764000010615eb357565b604051632a9ffab760e21b8152600490fdfea26469706673582212206b6208c83ec2a2f9842641737106bd716804c6a9d9094bbff5343175156b8b1764736f6c63430008140033",
  "linkReferences": {},
  "deployedLinkReferences": {},
  "devdoc": {
    "events": {
      "AdminChanged(address,address)": {
        "details": "Emitted when the admin account has changed."
      },
      "BeaconUpgraded(address)": {
        "details": "Emitted when the beacon is changed."
      },
      "Initialized(uint8)": {
        "details": "Triggered when the contract has been initialized or reinitialized."
      },
      "Upgraded(address)": {
        "details": "Emitted when the implementation is upgraded."
      }
    },
    "kind": "dev",
    "methods": {
      "addPeggedToken((address,address,uint256,uint256,uint256,uint256,uint256))": {
        "details": "Note that the ema value, should consider `nextEmaCalculation`  This function is implemented in MocCoreExpansion but with this contract contexttpTokenAddress Pegged Token contract address to add      priceProviderAddress Pegged Token price provider contract address      tpCtarg Pegged Token target coverage [PREC]      tpMintFee additional fee pct applied on mint [PREC]      tpRedeemFee additional fee pct applied on redeem [PREC]      tpEma initial Pegged Token exponential moving average [PREC]      tpEmaSf Pegged Token smoothing factor [PREC]  Requirements: - the caller must have governance authorization. - tpTokenAddress must be a MocRC20, with mint, burn roles already settled  for this contract",
        "params": {
          "peggedTokenParams_": "params of Pegged Token to add"
        }
      },
      "calcCtargemaCA()": {
        "details": "qAC = nTP / pACtp      ctargemaCA = (ctargemaTP * qAC) / (qAC)",
        "returns": {
          "ctargemaCA": "[PREC]"
        }
      },
      "changeGovernor(address)": {
        "params": {
          "newGovernor_": "New governor address"
        }
      },
      "constructor": {
        "custom:oz-upgrades-unsafe-allow": "constructor"
      },
      "editPeggedToken((address,address,uint256,uint256,uint256,uint256,uint256))": {
        "details": "Note that the ema value, should consider `nextEmaCalculation`  This function is implemented in MocCoreExpansion but with this contract contexttpTokenAddress Pegged Token contract address to identify the token to edit      priceProviderAddress Pegged Token price provider contract address      tpCtarg Pegged Token target coverage [PREC]      tpMintFee additional fee pct applied on mint [PREC]      tpRedeemFee additional fee pct applied on redeem [PREC]      tpEma initial Pegged Token exponential moving average [PREC]      tpEmaSf Pegged Token smoothing factor [PREC]  Requirements: - the caller must have governance authorization. - the tpTokenAddress must exists",
        "params": {
          "peggedTokenParams_": "params of Pegged Token to add"
        }
      },
      "getCglb()": {
        "returns": {
          "cglob": "[PREC]"
        }
      },
      "getLckAC()": {
        "returns": {
          "lckAC": "[PREC]"
        }
      },
      "getLeverageTC()": {
        "returns": {
          "leverageTC": "[PREC]"
        }
      },
      "getPACtp(address)": {
        "params": {
          "tp_": "Pegged Token address"
        },
        "returns": {
          "_0": "price [PREC]"
        }
      },
      "getPTCac()": {
        "returns": {
          "pTCac": "[PREC]"
        }
      },
      "getTCAvailableToRedeem()": {
        "details": "because it is a view function we are not calculating the new ema,  since we are using the last ema calculation, this may differ a little from the real amount  of TC available to redeem. Consider it an approximation.",
        "returns": {
          "tcAvailableToRedeem": "[N]"
        }
      },
      "getTPAvailableToMint(address)": {
        "details": "because it is a view function we are not calculating the new ema,  since we are using the last ema calculation, this may differ a little from the real amount  of TP available to mint. Consider it an approximation.",
        "params": {
          "tp_": "Pegged Token address"
        },
        "returns": {
          "tpAvailableToMint": "[N]"
        }
      },
      "getTotalACavailable()": {
        "returns": {
          "totalACavailable": "[N]"
        }
      },
      "initialize((((address,address,address,address,address,uint256,uint256,uint256,uint256,uint256,uint256,uint256,uint256,uint256,uint256,uint256,uint256,uint256,uint256,address,uint256,uint256,address,address,uint256),address,address,address,uint256,address),address))": {
        "details": "governorAddress The address that will define when a change contract is authorized      pauserAddress The address that is authorized to pause this contract      acTokenAddress Collateral Asset Token contract address      tcTokenAddress Collateral Token contract address      mocFeeFlowAddress Moc Fee Flow contract address      mocAppreciationBeneficiaryAddress Moc appreciation beneficiary address      protThrld protected state threshold [PREC]      liqThrld liquidation coverage threshold [PREC]      feeRetainer pct retain on fees to be re-injected as Collateral, while paying fees with AC [PREC]      tcMintFee additional fee pct applied on mint Collateral Tokens operations [PREC]      tcRedeemFee additional fee pct applied on redeem Collateral Tokens operations [PREC]      successFee pct of the gain because Pegged Tokens devaluation that is transferred        in Collateral Asset to Moc Fee Flow during the settlement [PREC]      appreciationFactor pct of the gain because Pegged Tokens devaluation that is returned        in Pegged Tokens to appreciation beneficiary during the settlement [PREC]      bes number of blocks between settlements      tcInterestCollectorAddress TC interest collector address      tcInterestRate pct interest charged to TC holders on the total collateral in the protocol [PREC]      tcInterestPaymentBlockSpan amount of blocks to wait for next TC interest payment      maxAbsoluteOpProviderAddress max absolute operation provider address      maxOpDiffProviderAddress max operation difference provider address      decayBlockSpan number of blocks that have to elapse for the linear decay factor to be 0      emaCalculationBlockSpan amount of blocks to wait between Pegged ema calculation      mocVendors address for MocVendors contract",
        "params": {
          "initializeParams_": "contract initializer params"
        }
      },
      "isLiquidationReached()": {
        "returns": {
          "_0": "true if liquidation state is reached, false otherwise"
        }
      },
      "liqRedeemTP(address)": {
        "params": {
          "tp_": "Pegged Token address"
        },
        "returns": {
          "qACRedeemed": "amount of AC sent to sender"
        }
      },
      "liqRedeemTPto(address,address)": {
        "params": {
          "recipient_": "address who receives the AC",
          "tp_": "Pegged Token address"
        },
        "returns": {
          "qACRedeemed": "amount of AC sent to `recipient_`"
        }
      },
      "makeStoppable()": {
        "details": "Should be called through governance"
      },
      "makeUnstoppable()": {
        "details": "Should be called through governance"
      },
      "maxQACToMintTP()": {
        "returns": {
          "maxQAC": "minimum regarding maxAbsoluteOperation and maxOperationalDifference"
        }
      },
      "maxQACToRedeemTP()": {
        "returns": {
          "maxQAC": "minimum regarding maxAbsoluteOperation and maxOperationalDifference"
        }
      },
      "mintTC(uint256,uint256)": {
        "params": {
          "qACmax_": "maximum amount of Collateral Asset that can be spent",
          "qTC_": "amount of Collateral Token to mint"
        },
        "returns": {
          "qACtotalNeeded": "amount of AC used to mint qTC",
          "qFeeToken": "amount of Fee Token used by sender to pay fees. 0 if qAC is used instead"
        }
      },
      "mintTCViaVendor(uint256,uint256,address)": {
        "params": {
          "qACmax_": "maximum amount of Collateral Asset that can be spent",
          "qTC_": "amount of Collateral Token to mint",
          "vendor_": "address who receives a markup"
        },
        "returns": {
          "qACtotalNeeded": "amount of AC used to mint qTC",
          "qFeeToken": "amount of Fee Token used by sender to pay fees. 0 if qAC is used instead"
        }
      },
      "mintTCandTP(address,uint256,uint256)": {
        "params": {
          "qACmax_": "maximum amount of Collateral Asset that can be spent",
          "qTP_": "amount of Pegged Token to mint",
          "tp_": "Pegged Token address"
        },
        "returns": {
          "qACtotalNeeded": "amount of AC used to mint Collateral Token and Pegged Token",
          "qFeeToken": "amount of Fee Token used by sender to pay fees. 0 if qAC is used instead",
          "qTCMinted": "amount of Collateral Token minted"
        }
      },
      "mintTCandTPViaVendor(address,uint256,uint256,address)": {
        "params": {
          "qACmax_": "maximum amount of Collateral Asset that can be spent",
          "qTP_": "amount of Pegged Token to mint",
          "tp_": "Pegged Token address",
          "vendor_": "address who receives a markup"
        },
        "returns": {
          "qACtotalNeeded": "amount of AC used to mint Collateral Token and Pegged Token",
          "qFeeToken": "amount of Fee Token used by sender to pay fees. 0 if qAC is used instead",
          "qTCMinted": "amount of Collateral Token minted"
        }
      },
      "mintTCandTPto(address,uint256,uint256,address)": {
        "params": {
          "qACmax_": "maximum amount of Collateral Asset that can be spent",
          "qTP_": "amount of Pegged Token to mint",
          "recipient_": "address who receives the Collateral Token and Pegged Token",
          "tp_": "Pegged Token address"
        },
        "returns": {
          "qACtotalNeeded": "amount of AC used to mint Collateral Token and Pegged Token",
          "qFeeToken": "amount of Fee Token used by sender to pay fees. 0 if qAC is used instead",
          "qTCMinted": "amount of Collateral Token minted"
        }
      },
      "mintTCandTPtoViaVendor(address,uint256,uint256,address,address)": {
        "params": {
          "qACmax_": "maximum amount of Collateral Asset that can be spent",
          "qTP_": "amount of Pegged Token to mint",
          "recipient_": "address who receives the Collateral Token and Pegged Token",
          "tp_": "Pegged Token address",
          "vendor_": "address who receives a markup"
        },
        "returns": {
          "qACtotalNeeded": "amount of AC used to mint Collateral Token and Pegged Token",
          "qFeeToken": "amount of Fee Token used by sender to pay fees. 0 if qAC is used instead",
          "qTCMinted": "amount of Collateral Token minted"
        }
      },
      "mintTCto(uint256,uint256,address)": {
        "params": {
          "qACmax_": "maximum amount of Collateral Asset that can be spent",
          "qTC_": "amount of Collateral Token to mint",
          "recipient_": "address who receives the Collateral Token"
        },
        "returns": {
          "qACtotalNeeded": "amount of AC used to mint qTC",
          "qFeeToken": "amount of Fee Token used by sender to pay fees. 0 if qAC is used instead"
        }
      },
      "mintTCtoViaVendor(uint256,uint256,address,address)": {
        "params": {
          "qACmax_": "maximum amount of Collateral Asset that can be spent",
          "qTC_": "amount of Collateral Token to mint",
          "recipient_": "address who receives the Collateral Token",
          "vendor_": "address who receives a markup"
        },
        "returns": {
          "qACtotalNeeded": "amount of AC used to mint qTC",
          "qFeeToken": "amount of Fee Token used by sender to pay fees. 0 if qAC is used instead"
        }
      },
      "mintTP(address,uint256,uint256)": {
        "params": {
          "qACmax_": "maximum amount of Collateral Asset that can be spent",
          "qTP_": "amount of Pegged Token to mint",
          "tp_": "Pegged Token address to mint"
        },
        "returns": {
          "qACtotalNeeded": "amount of AC used to mint qTP",
          "qFeeToken": "amount of Fee Token used by sender to pay fees. 0 if qAC is used instead"
        }
      },
      "mintTPViaVendor(address,uint256,uint256,address)": {
        "params": {
          "qACmax_": "maximum amount of Collateral Asset that can be spent",
          "qTP_": "amount of Pegged Token to mint",
          "tp_": "Pegged Token address to mint",
          "vendor_": "address who receives a markup"
        },
        "returns": {
          "qACtotalNeeded": "amount of AC used to mint qTP",
          "qFeeToken": "amount of Fee Token used by sender to pay fees. 0 if qAC is used instead"
        }
      },
      "mintTPto(address,uint256,uint256,address)": {
        "params": {
          "qACmax_": "maximum amount of Collateral Asset that can be spent",
          "qTP_": "amount of Pegged Token to mint",
          "recipient_": "address who receives the Pegged Token",
          "tp_": "Pegged Token address to mint"
        },
        "returns": {
          "qACtotalNeeded": "amount of AC used to mint qTP",
          "qFeeToken": "amount of Fee Token used by sender to pay fees. 0 if qAC is used instead"
        }
      },
      "mintTPtoViaVendor(address,uint256,uint256,address,address)": {
        "params": {
          "qACmax_": "maximum amount of Collateral Asset that can be spent",
          "qTP_": "amount of Pegged Token to mint",
          "recipient_": "address who receives the Pegged Token",
          "tp_": "Pegged Token address to mint",
          "vendor_": "address who receives a markup"
        },
        "returns": {
          "qACtotalNeeded": "amount of AC used to mint qTP",
          "qFeeToken": "amount of Fee Token used by sender to pay fees. 0 if qAC is used instead"
        }
      },
      "pause()": {
        "details": "Should only be called by the pauser and when it is stoppable"
      },
      "proxiableUUID()": {
        "details": "Implementation of the ERC1822 {proxiableUUID} function. This returns the storage slot used by the implementation. It is used to validate the implementation's compatibility when performing an upgrade. IMPORTANT: A proxy pointing at a proxiable contract should not be considered proxiable itself, because this risks bricking a proxy that upgrades to it, by delegating to itself until out of gas. Thus it is critical that this function revert if invoked through a proxy. This is guaranteed by the `notDelegated` modifier."
      },
      "redeemTC(uint256,uint256)": {
        "params": {
          "qACmin_": "minimum amount of Collateral Asset that sender expects to receive",
          "qTC_": "amount of Collateral Token to redeem"
        },
        "returns": {
          "qACRedeemed": "amount of AC sent to sender",
          "qFeeToken": "amount of Fee Token used by sender to pay fees. 0 if qAC is used instead"
        }
      },
      "redeemTCViaVendor(uint256,uint256,address)": {
        "params": {
          "qACmin_": "minimum amount of Collateral Asset that sender expects to receive",
          "qTC_": "amount of Collateral Token to redeem",
          "vendor_": "address who receives a markup"
        },
        "returns": {
          "qACRedeemed": "amount of AC sent to sender",
          "qFeeToken": "amount of Fee Token used by sender to pay fees. 0 if qAC is used instead"
        }
      },
      "redeemTCandTP(address,uint256,uint256,uint256)": {
        "params": {
          "qACmin_": "minimum amount of Collateral Asset that the sender expects to receive",
          "qTC_": "maximum amount of Collateral Token to redeem",
          "qTP_": "maximum amount of Pegged Token to redeem",
          "tp_": "Pegged Token address"
        },
        "returns": {
          "qACRedeemed": "amount of AC sent to the sender",
          "qFeeToken": "amount of Fee Token used by sender to pay fees. 0 if qAC is used instead",
          "qTPRedeemed": "amount of Pegged Token redeemed"
        }
      },
      "redeemTCandTPViaVendor(address,uint256,uint256,uint256,address)": {
        "params": {
          "qACmin_": "minimum amount of Collateral Asset that the sender expects to receive",
          "qTC_": "maximum amount of Collateral Token to redeem",
          "qTP_": "maximum amount of Pegged Token to redeem",
          "tp_": "Pegged Token address",
          "vendor_": "address who receives a markup"
        },
        "returns": {
          "qACRedeemed": "amount of AC sent to the sender",
          "qFeeToken": "amount of Fee Token used by sender to pay fees. 0 if qAC is used instead",
          "qTPRedeemed": "amount of Pegged Token redeemed"
        }
      },
      "redeemTCandTPto(address,uint256,uint256,uint256,address)": {
        "params": {
          "qACmin_": "minimum amount of Collateral Asset that `recipient_` expects to receive",
          "qTC_": "maximum amount of Collateral Token to redeem",
          "qTP_": "maximum amount of Pegged Token to redeem",
          "recipient_": "address who receives the Collateral Asset",
          "tp_": "Pegged Token address"
        },
        "returns": {
          "qACRedeemed": "amount of AC sent to the `recipient_`",
          "qFeeToken": "amount of Fee Token used by sender to pay fees. 0 if qAC is used instead",
          "qTPRedeemed": "amount of Pegged Token redeemed"
        }
      },
      "redeemTCandTPtoViaVendor(address,uint256,uint256,uint256,address,address)": {
        "params": {
          "qACmin_": "minimum amount of Collateral Asset that `recipient_` expects to receive",
          "qTC_": "maximum amount of Collateral Token to redeem",
          "qTP_": "maximum amount of Pegged Token to redeem",
          "recipient_": "address who receives the Collateral Asset",
          "tp_": "Pegged Token address",
          "vendor_": "address who receives a markup"
        },
        "returns": {
          "qACRedeemed": "amount of AC sent to the `recipient_`",
          "qFeeToken": "amount of Fee Token used by sender to pay fees. 0 if qAC is used instead",
          "qTPRedeemed": "amount of Pegged Token redeemed"
        }
      },
      "redeemTCto(uint256,uint256,address)": {
        "params": {
          "qACmin_": "minimum amount of Collateral Asset that `recipient_` expects to receive",
          "qTC_": "amount of Collateral Token to redeem",
          "recipient_": "address who receives the Collateral Asset"
        },
        "returns": {
          "qACRedeemed": "amount of AC sent to 'recipient_'",
          "qFeeToken": "amount of Fee Token used by sender to pay fees. 0 if qAC is used instead"
        }
      },
      "redeemTCtoViaVendor(uint256,uint256,address,address)": {
        "params": {
          "qACmin_": "minimum amount of Collateral Asset that `recipient_` expects to receive",
          "qTC_": "amount of Collateral Token to redeem",
          "recipient_": "address who receives the Collateral Asset",
          "vendor_": "address who receives a markup"
        },
        "returns": {
          "qACRedeemed": "amount of AC sent to 'recipient_'",
          "qFeeToken": "amount of Fee Token used by sender to pay fees. 0 if qAC is used instead"
        }
      },
      "redeemTP(address,uint256,uint256)": {
        "params": {
          "qACmin_": "minimum amount of Collateral Asset that sender expects to receive",
          "qTP_": "amount of Pegged Token to redeem",
          "tp_": "Pegged Token to redeem"
        },
        "returns": {
          "qACRedeemed": "amount of AC sent to sender",
          "qFeeToken": "amount of Fee Token used by sender to pay fees. 0 if qAC is used instead"
        }
      },
      "redeemTPViaVendor(address,uint256,uint256,address)": {
        "params": {
          "qACmin_": "minimum amount of Collateral Asset that sender expects to receive",
          "qTP_": "amount of Pegged Token to redeem",
          "tp_": "Pegged Token to redeem",
          "vendor_": "address who receives a markup"
        },
        "returns": {
          "qACRedeemed": "amount of AC sent to sender",
          "qFeeToken": "amount of Fee Token used by sender to pay fees. 0 if qAC is used instead"
        }
      },
      "redeemTPto(address,uint256,uint256,address)": {
        "params": {
          "qACmin_": "minimum amount of Collateral Asset that `recipient_` expects to receive",
          "qTP_": "amount of Pegged Token to redeem",
          "recipient_": "address who receives the Collateral Asset",
          "tp_": "Pegged Token to redeem"
        },
        "returns": {
          "qACRedeemed": "amount of AC sent to 'recipient_'",
          "qFeeToken": "amount of Fee Token used by sender to pay fees. 0 if qAC is used instead"
        }
      },
      "redeemTPtoViaVendor(address,uint256,uint256,address,address)": {
        "params": {
          "qACmin_": "minimum amount of Collateral Asset that `recipient_` expects to receive",
          "qTP_": "amount of Pegged Token to redeem",
          "recipient_": "address who receives the Collateral Asset",
          "tp_": "Pegged Token to redeem",
          "vendor_": "address who receives a markup"
        },
        "returns": {
          "qACRedeemed": "amount of AC sent to 'recipient_'",
          "qFeeToken": "amount of Fee Token used by sender to pay fees. 0 if qAC is used instead"
        }
      },
      "refreshACBalance()": {
        "details": "Intended to be use as notification after an RC20 AC transfer to this contract"
      },
      "setAppreciationFactor(uint256)": {
        "details": "sets appreciation Factor value.",
        "params": {
          "appreciationFactor_": "pct of the gain because Pegged Tokens devaluation that is returned in Pegged Tokens to appreciation beneficiary during the settlement [PREC]"
        }
      },
      "setBes(uint256)": {
        "details": "bns is not automatically updated, you have to wait until next settlement to be made : bns = block.number + bes*",
        "params": {
          "bes_": "number of blocks between settlements"
        }
      },
      "setDecayBlockSpan(uint256)": {
        "details": "sets flux capacitor decay block span",
        "params": {
          "decayBlockSpan_": "flux capacitor decay block span"
        }
      },
      "setEmaCalculationBlockSpan(uint256)": {
        "details": "nextEmaCalculation is not automatically updated, you have to wait until next  EMA calculation to be made : nextEmaCalculation = block.number + emaCalculationBlockSpan*",
        "params": {
          "blockSpan_": "Defines how many blocks should pass between EMA calculations"
        }
      },
      "setFeeRetainer(uint256)": {
        "details": "sets the fee pct to be retainer on AC fees payments as AC re-injection.",
        "params": {
          "feeRetainer_": "pct retain on fees to be re-injected as Collateral, while paying fees with AC [PREC] 0% = 0; 1% = 10 ** 16; 100% = 10 ** 18"
        }
      },
      "setFeeTokenAddress(address)": {
        "details": "sets Fee Token contract address",
        "params": {
          "mocFeeTokenAddress_": "Fee Token new contract address"
        }
      },
      "setFeeTokenPct(uint256)": {
        "details": "sets the fee applied on the top of the operation`s fee when using Fee Token as fee payment method.",
        "params": {
          "feeTokenPct_": "pct applied on the top of the operation`s fee when using Fee Token  as fee payment method [PREC]  e.g. if tcMintFee = 1%, FeeTokenPct = 50% => qFeeToken = 0.5%  0% = 0; 1% = 10 ** 16; 100% = 10 ** 18"
        }
      },
      "setFeeTokenPriceProviderAddress(address)": {
        "details": "sets Fee Token price provider contract address",
        "params": {
          "mocFeeTokenPriceProviderAddress_": "Fee Token price provider new contract address"
        }
      },
      "setLiqEnabled(bool)": {
        "details": "enables and disables the liquidation mechanism.",
        "params": {
          "liqEnabled_": "is liquidation enabled"
        }
      },
      "setLiqThrld(uint256)": {
        "details": "sets the value of the liq threshold configuration param",
        "params": {
          "liqThrld_": "liquidation threshold"
        }
      },
      "setMaxAbsoluteOpProviderAddress(address)": {
        "details": "sets max absolute operation provider address",
        "params": {
          "maxAbsoluteOpProviderAddress_": "max absolute operation provider address"
        }
      },
      "setMaxOpDiffProviderAddress(address)": {
        "details": "sets max operation difference provider address",
        "params": {
          "maxOpDiffProviderAddress_": "max operation difference provider address"
        }
      },
      "setMintTCandTPFee(uint256)": {
        "details": "sets the fee charged when mint Collateral Token and Pegged Token in one operation.",
        "params": {
          "mintTCandTPFee_": "additional fee pct applied on mint Collateral Token and Pegged Token [PREC] 0% = 0; 1% = 10 ** 16; 100% = 10 ** 18"
        }
      },
      "setMocAppreciationBeneficiaryAddress(address)": {
        "details": "sets Moc Appreciation Beneficiary Address",
        "params": {
          "mocAppreciationBeneficiaryAddress_": "moc Appreciation Beneficiary new address"
        }
      },
      "setMocCoreExpansion(address)": {
        "details": "sets Moc Core Expansion contract address",
        "params": {
          "mocCoreExpansion_": "moc core expansion new contract address"
        }
      },
      "setMocFeeFlowAddress(address)": {
        "details": "sets Moc Fee Flow contract address",
        "params": {
          "mocFeeFlowAddress_": "moc Fee Flow new contract address"
        }
      },
      "setMocVendors(address)": {
        "details": "sets Moc Vendors contract address",
        "params": {
          "mocVendors_": "moc Vendors new contract address"
        }
      },
      "setPauser(address)": {
        "details": "Should be called through governance",
        "params": {
          "newPauser_": "Address of the new pauser"
        }
      },
      "setProtThrld(uint256)": {
        "details": "sets the value of the protected threshold configuration param",
        "params": {
          "protThrld_": "coverage protected state threshold [PREC]"
        }
      },
      "setRedeemTCandTPFee(uint256)": {
        "details": "sets the fee charged when redeem Collateral Token and Pegged Token in one operation.",
        "params": {
          "redeemTCandTPFee_": "additional fee pct applied on redeem Collateral Token and Pegged Token [PREC] 0% = 0; 1% = 10 ** 16; 100% = 10 ** 18"
        }
      },
      "setSuccessFee(uint256)": {
        "details": "sets success Fee value.",
        "params": {
          "successFee_": "pct of the gain because Pegged Tokens devaluation that is transferred in Collateral Asset to Moc Fee Flow during the settlement [PREC]"
        }
      },
      "setSwapTCforTPFee(uint256)": {
        "details": "sets the fee charged when swap Collateral Token for a Pegged Token.",
        "params": {
          "swapTCforTPFee_": "additional fee pct applied on swap Collateral Token for a Pegged Token [PREC] 0% = 0; 1% = 10 ** 16; 100% = 10 ** 18"
        }
      },
      "setSwapTPforTCFee(uint256)": {
        "details": "sets the fee charged when swap a Pegged Token for Collateral Token.",
        "params": {
          "swapTPforTCFee_": "additional fee pct applied on swap a Pegged Token for Collateral Token [PREC] 0% = 0; 1% = 10 ** 16; 100% = 10 ** 18"
        }
      },
      "setSwapTPforTPFee(uint256)": {
        "details": "sets the fee charged when swap a Pegged Token for another Pegged Token.",
        "params": {
          "swapTPforTPFee_": "additional fee pct applied on swap a Pegged Token for another Pegged Token [PREC] 0% = 0; 1% = 10 ** 16; 100% = 10 ** 18"
        }
      },
      "setTCInterestCollectorAddress(address)": {
        "details": "sets TC interest collector address",
        "params": {
          "tcInterestCollectorAddress_": "TC interest collector address"
        }
      },
      "setTCInterestPaymentBlockSpan(uint256)": {
        "details": "sets TC interest payment block spannextTCInterestPayment is not automatically updated, you have to wait until next  interest payment to be made : nextTCInterestPayment = block.number + tcInterestPaymentBlockSpan",
        "params": {
          "tcInterestPaymentBlockSpan_": "amount of blocks to wait for next TC interest payment"
        }
      },
      "setTCInterestRate(uint256)": {
        "details": "sets TC interest rate",
        "params": {
          "tcInterestRate_": "pct interest charged to TC holders on the total collateral in the protocol [PREC]"
        }
      },
      "setTcMintFee(uint256)": {
        "details": "sets the fee charged on Token Collateral mint.",
        "params": {
          "tcMintFee_": "addition fee pct applied on Collateral Tokens mint [PREC] 0% = 0; 1% = 10 ** 16; 100% = 10 ** 18"
        }
      },
      "setTcRedeemFee(uint256)": {
        "details": "sets the fee charged on Token Collateral redeem.",
        "params": {
          "tcRedeemFee_": "addition fee pct applied on Collateral Tokens redeem [PREC] 0% = 0; 1% = 10 ** 16; 100% = 10 ** 18"
        }
      },
      "swapTCforTP(address,uint256,uint256,uint256)": {
        "params": {
          "qACmax_": "maximum amount of Collateral Asset that can be spent in fees",
          "qTC_": "amount of Collateral Token to swap",
          "qTPmin_": "minimum amount of Pegged Token that the sender expects to receive",
          "tp_": "Pegged Token address"
        },
        "returns": {
          "qACFee": "amount of AC used to pay fee",
          "qFeeToken": "amount of Fee Token used by sender to pay fees. 0 if qAC is used instead",
          "qTPMinted": "amount of Pegged Token minted"
        }
      },
      "swapTCforTPViaVendor(address,uint256,uint256,uint256,address)": {
        "params": {
          "qACmax_": "maximum amount of Collateral Asset that can be spent in fees",
          "qTC_": "amount of Collateral Token to swap",
          "qTPmin_": "minimum amount of Pegged Token that the sender expects to receive",
          "tp_": "Pegged Token address",
          "vendor_": "address who receives a markup"
        },
        "returns": {
          "qACFee": "amount of AC used to pay fee",
          "qFeeToken": "amount of Fee Token used by sender to pay fees. 0 if qAC is used instead",
          "qTPMinted": "amount of Pegged Token minted"
        }
      },
      "swapTCforTPto(address,uint256,uint256,uint256,address)": {
        "params": {
          "qACmax_": "maximum amount of Collateral Asset that can be spent in fees",
          "qTC_": "amount of Collateral Token to swap",
          "qTPmin_": "minimum amount of Pegged Token that `recipient_` expects to receive",
          "recipient_": "address who receives the Pegged Token",
          "tp_": "Pegged Token address"
        },
        "returns": {
          "qACFee": "amount of AC used to pay fee",
          "qFeeToken": "amount of Fee Token used by sender to pay fees. 0 if qAC is used instead",
          "qTPMinted": "amount of Pegged Token minted"
        }
      },
      "swapTCforTPtoViaVendor(address,uint256,uint256,uint256,address,address)": {
        "params": {
          "qACmax_": "maximum amount of Collateral Asset that can be spent in fees",
          "qTC_": "amount of Collateral Token to swap",
          "qTPmin_": "minimum amount of Pegged Token that `recipient_` expects to receive",
          "recipient_": "address who receives the Pegged Token",
          "tp_": "Pegged Token address",
          "vendor_": "address who receives a markup"
        },
        "returns": {
          "qACFee": "amount of AC used to pay fee",
          "qFeeToken": "amount of Fee Token used by sender to pay fees. 0 if qAC is used instead",
          "qTPMinted": "amount of Pegged Token minted"
        }
      },
      "swapTPforTC(address,uint256,uint256,uint256)": {
        "params": {
          "qACmax_": "maximum amount of Collateral Asset that can be spent in fees",
          "qTCmin_": "minimum amount of Collateral Token that the sender expects to receive",
          "qTP_": "amount of owned Pegged Token to swap",
          "tp_": "Pegged Token address"
        },
        "returns": {
          "qACFee": "amount of AC used to pay fee",
          "qFeeToken": "amount of Fee Token used by sender to pay fees. 0 if qAC is used instead",
          "qTCMinted": "amount of Collateral Token minted"
        }
      },
      "swapTPforTCViaVendor(address,uint256,uint256,uint256,address)": {
        "params": {
          "qACmax_": "maximum amount of Collateral Asset that can be spent in fees",
          "qTCmin_": "minimum amount of Collateral Token that the sender expects to receive",
          "qTP_": "amount of owned Pegged Token to swap",
          "tp_": "Pegged Token address",
          "vendor_": "address who receives a markup"
        },
        "returns": {
          "qACFee": "amount of AC used to pay fee",
          "qFeeToken": "amount of Fee Token used by sender to pay fees. 0 if qAC is used instead",
          "qTCMinted": "amount of Collateral Token minted"
        }
      },
      "swapTPforTCto(address,uint256,uint256,uint256,address)": {
        "params": {
          "qACmax_": "maximum amount of Collateral Asset that can be spent in fees",
          "qTCmin_": "minimum amount of Collateral Token that `recipient_` expects to receive",
          "qTP_": "amount of owned Pegged Token to swap",
          "recipient_": "address who receives the Collateral Token",
          "tp_": "Pegged Token address"
        },
        "returns": {
          "qACFee": "amount of AC used to pay fee",
          "qFeeToken": "amount of Fee Token used by sender to pay fees. 0 if qAC is used instead",
          "qTCMinted": "amount of Collateral Token minted"
        }
      },
      "swapTPforTCtoViaVendor(address,uint256,uint256,uint256,address,address)": {
        "params": {
          "qACmax_": "maximum amount of Collateral Asset that can be spent in fees",
          "qTCmin_": "minimum amount of Collateral Token that `recipient_` expects to receive",
          "qTP_": "amount of owned Pegged Token to swap",
          "recipient_": "address who receives the Collateral Token",
          "tp_": "Pegged Token address",
          "vendor_": "address who receives a markup"
        },
        "returns": {
          "qACFee": "amount of AC used to pay fee",
          "qFeeToken": "amount of Fee Token used by sender to pay fees. 0 if qAC is used instead",
          "qTCMinted": "amount of Collateral Token minted"
        }
      },
      "swapTPforTP(address,address,uint256,uint256,uint256)": {
        "params": {
          "qACmax_": "maximum amount of Collateral Asset that can be spent in fees",
          "qTP_": "amount of owned Pegged Token to swap",
          "qTPmin_": "minimum amount of target Pegged Token that the sender expects to receive",
          "tpFrom_": "owned Pegged Token address",
          "tpTo_": "target Pegged Token address"
        },
        "returns": {
          "qACFee": "amount of AC used to pay fee",
          "qFeeToken": "amount of Fee Token used by sender to pay fees. 0 if qAC is used instead",
          "qTPMinted": "amount of Pegged Token minted"
        }
      },
      "swapTPforTPViaVendor(address,address,uint256,uint256,uint256,address)": {
        "params": {
          "qACmax_": "maximum amount of Collateral Asset that can be spent in fees",
          "qTP_": "amount of owned Pegged Token to swap",
          "qTPmin_": "minimum amount of target Pegged Token that the sender expects to receive",
          "tpFrom_": "owned Pegged Token address",
          "tpTo_": "target Pegged Token address",
          "vendor_": "address who receives a markup"
        },
        "returns": {
          "qACFee": "amount of AC used to pay fee",
          "qFeeToken": "amount of Fee Token used by sender to pay fees. 0 if qAC is used instead",
          "qTPMinted": "amount of Pegged Token minted"
        }
      },
      "swapTPforTPto(address,address,uint256,uint256,uint256,address)": {
        "params": {
          "qACmax_": "maximum amount of Collateral Asset that can be spent in fees",
          "qTP_": "amount of owned Pegged Token to swap",
          "qTPmin_": "minimum amount of target Pegged Token that `recipient_` expects to receive",
          "recipient_": "address who receives the target Pegged Token",
          "tpFrom_": "owned Pegged Token address",
          "tpTo_": "target Pegged Token address"
        },
        "returns": {
          "qACFee": "amount of AC used to pay fee",
          "qFeeToken": "amount of Fee Token used by sender to pay fees. 0 if qAC is used instead",
          "qTPMinted": "amount of Pegged Token minted"
        }
      },
      "swapTPforTPtoViaVendor(address,address,uint256,uint256,uint256,address,address)": {
        "params": {
          "qACmax_": "maximum amount of Collateral Asset that can be spent in fees",
          "qTP_": "amount of owned Pegged Token to swap",
          "qTPmin_": "minimum amount of target Pegged Token that `recipient_` expects to receive",
          "recipient_": "address who receives the target Pegged Token",
          "tpFrom_": "owned Pegged Token address",
          "tpTo_": "target Pegged Token address",
          "vendor_": "address who receives a markup"
        },
        "returns": {
          "qACFee": "amount of AC used to pay fee",
          "qFeeToken": "amount of Fee Token used by sender to pay fees. 0 if qAC is used instead",
          "qTPMinted": "amount of Pegged Token minted"
        }
      },
      "tcHoldersInterestPayment()": {
        "details": "-   The amount is not differential, it's a snapshot of the moment it's executed  -   It does not check coverage"
      },
      "updateEmas()": {
        "details": "All price provider prices must be available, fails if not"
      },
      "upgradeTo(address)": {
        "custom:oz-upgrades-unsafe-allow-reachable": "delegatecall",
        "details": "Upgrade the implementation of the proxy to `newImplementation`. Calls {_authorizeUpgrade}. Emits an {Upgraded} event."
      },
      "upgradeToAndCall(address,bytes)": {
        "custom:oz-upgrades-unsafe-allow-reachable": "delegatecall",
        "details": "Upgrade the implementation of the proxy to `newImplementation`, and subsequently execute the function call encoded in `data`. Calls {_authorizeUpgrade}. Emits an {Upgraded} event."
      }
    },
    "stateVariables": {
      "__gap": {
        "details": "This empty reserved space is put in place to allow future versions to add new variables without shifting down storage in the inheritance chain. See https://docs.openzeppelin.com/contracts/4.x/upgradeable#storage_gaps"
      }
    },
    "title": "MocCARC20: Moc Collateral Asset RC20",
    "version": 1
  },
  "evm": {
    "bytecode": {
      "linkReferences": {},
      "opcodes": "PUSH1 0xA0 DUP1 PUSH1 0x40 MSTORE CALLVALUE PUSH3 0xDF JUMPI ADDRESS PUSH1 0x80 MSTORE PUSH0 SLOAD SWAP1 PUSH1 0xFF DUP3 PUSH1 0x8 SHR AND PUSH3 0x8D JUMPI POP PUSH1 0xFF DUP1 DUP3 AND SUB PUSH3 0x52 JUMPI JUMPDEST PUSH1 0x40 MLOAD PUSH2 0x5EFB SWAP1 DUP2 PUSH3 0xE4 DUP3 CODECOPY PUSH1 0x80 MLOAD DUP2 DUP2 DUP2 PUSH2 0x1FE0 ADD MSTORE DUP2 DUP2 PUSH2 0x214F ADD MSTORE PUSH2 0x25EA ADD MSTORE RETURN JUMPDEST PUSH1 0xFF SWAP1 DUP2 NOT AND OR PUSH0 SSTORE PUSH32 0x7F26B83FF96E1F2B6A682F133852F6798A09C465DA95921460CEFB3847402498 PUSH1 0x20 PUSH1 0x40 MLOAD PUSH1 0xFF DUP2 MSTORE LOG1 PUSH0 PUSH3 0x2B JUMP JUMPDEST PUSH3 0x461BCD PUSH1 0xE5 SHL DUP2 MSTORE PUSH1 0x20 PUSH1 0x4 DUP3 ADD MSTORE PUSH1 0x27 PUSH1 0x24 DUP3 ADD MSTORE PUSH32 0x496E697469616C697A61626C653A20636F6E747261637420697320696E697469 PUSH1 0x44 DUP3 ADD MSTORE PUSH7 0x616C697A696E67 PUSH1 0xC8 SHL PUSH1 0x64 DUP3 ADD MSTORE PUSH1 0x84 SWAP1 REVERT JUMPDEST PUSH0 DUP1 REVERT INVALID PUSH1 0x40 PUSH1 0x80 DUP2 MSTORE PUSH1 0x4 CALLDATASIZE LT ISZERO PUSH2 0x12 JUMPI PUSH0 DUP1 REVERT JUMPDEST PUSH0 PUSH1 0xE0 DUP2 CALLDATALOAD DUP2 SHR SWAP1 DUP2 PUSH4 0x1DDE6EF EQ PUSH2 0x323D JUMPI DUP2 PUSH4 0x1F1B684 EQ PUSH2 0x31F6 JUMPI DUP2 PUSH4 0x579188F EQ PUSH2 0x314C JUMPI DUP2 PUSH4 0x73763B9 EQ PUSH2 0x3128 JUMPI DUP2 PUSH4 0x7E8CE8B EQ PUSH2 0x2C29 JUMPI DUP2 PUSH4 0xBB7F608 EQ PUSH2 0x2C06 JUMPI DUP2 PUSH4 0xC340A24 EQ PUSH2 0x2BDD JUMPI DUP2 PUSH4 0xC36D897 EQ PUSH2 0x2BBD JUMPI DUP2 PUSH4 0xD6AC463 EQ PUSH2 0x2B77 JUMPI DUP2 PUSH4 0xDB49656 EQ PUSH2 0x2B57 JUMPI DUP2 PUSH4 0xE0A8FD2 EQ PUSH2 0x2B33 JUMPI DUP2 PUSH4 0xF1E5E2B EQ PUSH2 0x2AED JUMPI DUP2 PUSH4 0x15266E36 EQ PUSH2 0x2A8C JUMPI DUP2 PUSH4 0x17937F9B EQ PUSH2 0x2A55 JUMPI DUP2 PUSH4 0x1867E2F5 EQ PUSH2 0x2A35 JUMPI DUP2 PUSH4 0x1FB0DDA0 EQ PUSH2 0x2A0C JUMPI DUP2 PUSH4 0x1FE6A7AD EQ PUSH2 0x29D2 JUMPI DUP2 PUSH4 0x2069F753 EQ PUSH2 0x29AE JUMPI DUP2 PUSH4 0x23B98CDE EQ PUSH2 0x2986 JUMPI DUP2 PUSH4 0x24FFABA3 EQ PUSH2 0x2949 JUMPI DUP2 PUSH4 0x25BC6C41 EQ PUSH2 0x291F JUMPI DUP2 PUSH4 0x27EAB2A1 EQ PUSH2 0x28D9 JUMPI DUP2 PUSH4 0x2A20D57D EQ PUSH2 0x28B9 JUMPI DUP2 PUSH4 0x2B764FAD EQ PUSH2 0x2858 JUMPI DUP2 PUSH4 0x2C43BD3B EQ PUSH2 0x2834 JUMPI DUP2 PUSH4 0x2D88AF4A EQ PUSH2 0x27DD JUMPI DUP2 PUSH4 0x2DED50F0 EQ PUSH2 0x27BD JUMPI DUP2 PUSH4 0x333431FD EQ PUSH2 0x279D JUMPI DUP2 PUSH4 0x33421C38 EQ PUSH2 0x26AA JUMPI DUP2 PUSH4 0x34246862 EQ PUSH2 0x264F JUMPI DUP2 PUSH4 0x3659CFE6 EQ PUSH2 0x25B5 JUMPI DUP2 PUSH4 0x3915EDCB EQ PUSH2 0x2584 JUMPI DUP2 PUSH4 0x3BC4AC0A EQ PUSH2 0x2560 JUMPI DUP2 PUSH4 0x3DBC50A9 EQ PUSH2 0x250F JUMPI DUP2 PUSH4 0x3F4BA83A EQ PUSH2 0x2494 JUMPI DUP2 PUSH4 0x4017936A EQ PUSH2 0x244D JUMPI DUP2 PUSH4 0x407F0E34 EQ PUSH2 0x242D JUMPI DUP2 PUSH4 0x4310ADC6 EQ PUSH2 0x23D2 JUMPI DUP2 PUSH4 0x44719EE9 EQ PUSH2 0x236C JUMPI DUP2 PUSH4 0x466B8934 EQ PUSH2 0x2309 JUMPI DUP2 PUSH4 0x471A80E3 EQ PUSH2 0x22CF JUMPI DUP2 PUSH4 0x484AD7CD EQ PUSH2 0x226E JUMPI DUP2 PUSH4 0x4B746001 EQ PUSH2 0x2224 JUMPI DUP2 PUSH4 0x4D977E78 EQ PUSH2 0x2204 JUMPI DUP2 PUSH4 0x4E1F907A EQ PUSH2 0x21DA JUMPI DUP2 PUSH4 0x4F0F27EE EQ PUSH2 0x21BA JUMPI DUP2 PUSH4 0x4F1EF286 EQ PUSH2 0x20C6 JUMPI DUP2 PUSH4 0x5210570C EQ PUSH2 0x20A0 JUMPI DUP2 PUSH4 0x52D1902D EQ PUSH2 0x1FCB JUMPI DUP2 PUSH4 0x52E18F8F EQ PUSH2 0x1F75 JUMPI DUP2 PUSH4 0x533A4BEA EQ PUSH2 0x1F22 JUMPI DUP2 PUSH4 0x543AEB48 EQ PUSH2 0x1EFE JUMPI DUP2 PUSH4 0x5860EE63 EQ PUSH2 0x1EDE JUMPI DUP2 PUSH4 0x5C616A73 EQ PUSH2 0x1CD6 JUMPI DUP2 PUSH4 0x5C975ABB EQ PUSH2 0x1CAF JUMPI DUP2 PUSH4 0x5ECE17EF EQ PUSH2 0x1C4E JUMPI DUP2 PUSH4 0x60009E0B EQ PUSH2 0x1C24 JUMPI DUP2 PUSH4 0x647846A5 EQ PUSH2 0x1BFA JUMPI DUP2 PUSH4 0x64EC230A EQ PUSH2 0x1BD6 JUMPI DUP2 PUSH4 0x662013F4 EQ PUSH2 0x1BB9 JUMPI DUP2 PUSH4 0x68274357 EQ PUSH2 0x1B90 JUMPI DUP2 PUSH4 0x68F015DF EQ PUSH2 0x1AF4 JUMPI DUP2 PUSH4 0x6B5488DF EQ PUSH2 0x1AD4 JUMPI DUP2 PUSH4 0x6F30471F EQ PUSH2 0x1AB4 JUMPI DUP2 PUSH4 0x70713468 EQ PUSH2 0x1A90 JUMPI DUP2 PUSH4 0x735D3960 EQ PUSH2 0x1A4A JUMPI DUP2 PUSH4 0x73E28AF9 EQ PUSH2 0x1A26 JUMPI DUP2 PUSH4 0x74873AD3 EQ PUSH2 0x19C5 JUMPI DUP2 PUSH4 0x7554FFFD EQ PUSH2 0x19A5 JUMPI DUP2 PUSH4 0x76228055 EQ PUSH2 0x1985 JUMPI DUP2 PUSH4 0x7750BA0C EQ PUSH2 0x1961 JUMPI DUP2 PUSH4 0x79F9A91C EQ PUSH2 0x1941 JUMPI DUP2 PUSH4 0x7A193C31 EQ PUSH2 0x1921 JUMPI DUP2 PUSH4 0x7A4FF1D9 EQ PUSH2 0x18FD JUMPI DUP2 PUSH4 0x7A727FE8 EQ PUSH2 0x18DD JUMPI DUP2 PUSH4 0x7AF5758C EQ PUSH2 0x18B9 JUMPI DUP2 PUSH4 0x7B21B274 EQ PUSH2 0x184F JUMPI DUP2 PUSH4 0x7CBA2383 EQ PUSH2 0x182B JUMPI DUP2 PUSH4 0x7D8E0314 EQ PUSH2 0x17EC JUMPI DUP2 PUSH4 0x7F01C715 EQ PUSH2 0x17C2 JUMPI DUP2 PUSH4 0x7F13B998 EQ PUSH2 0x178C JUMPI DUP2 PUSH4 0x7F4A4FE0 EQ PUSH2 0x176C JUMPI DUP2 PUSH4 0x826FCD58 EQ PUSH2 0x1749 JUMPI DUP2 PUSH4 0x842D5748 EQ PUSH2 0x16EC JUMPI DUP2 PUSH4 0x8456CB59 EQ PUSH2 0x1657 JUMPI DUP2 PUSH4 0x85BF9593 EQ PUSH2 0x1611 JUMPI DUP2 PUSH4 0x89FD503E EQ PUSH2 0x15BA JUMPI DUP2 PUSH4 0x8ACC2011 EQ PUSH2 0x1560 JUMPI DUP2 PUSH4 0x8CFA4241 EQ PUSH2 0x1540 JUMPI DUP2 PUSH4 0x8E2BDB86 EQ PUSH2 0x1516 JUMPI DUP2 PUSH4 0x8F1A383A EQ PUSH2 0x14EE JUMPI DUP2 PUSH4 0x9853C35A EQ PUSH2 0x14C4 JUMPI DUP2 PUSH4 0x98B2086F EQ PUSH2 0x146B JUMPI DUP2 PUSH4 0x9ABB14C9 EQ PUSH2 0x1424 JUMPI DUP2 PUSH4 0x9AD6659D EQ PUSH2 0x13EE JUMPI DUP2 PUSH4 0x9BEA71A4 EQ PUSH2 0x13AC JUMPI DUP2 PUSH4 0x9CABFC00 EQ PUSH2 0x1360 JUMPI DUP2 PUSH4 0x9FD0506D EQ PUSH2 0x1333 JUMPI DUP2 PUSH4 0x9FD8ED0E EQ PUSH2 0x12DE JUMPI DUP2 PUSH4 0xA8E9AC30 EQ PUSH2 0x12BB JUMPI DUP2 PUSH4 0xAAF91EFF EQ PUSH2 0x125A JUMPI DUP2 PUSH4 0xAAF925F6 EQ PUSH2 0x1205 JUMPI DUP2 PUSH4 0xAC0C88AB EQ PUSH2 0x11AA JUMPI DUP2 PUSH4 0xAEA038DC EQ PUSH2 0x118A JUMPI DUP2 PUSH4 0xAEB41E69 EQ PUSH2 0x1129 JUMPI DUP2 PUSH4 0xB5E9EA8C EQ PUSH2 0x10FF JUMPI DUP2 PUSH4 0xB85EDD65 EQ PUSH2 0x10A4 JUMPI DUP2 PUSH4 0xB9FA6413 EQ PUSH2 0x1084 JUMPI DUP2 PUSH4 0xBB4872DE EQ PUSH2 0x1060 JUMPI DUP2 PUSH4 0xBECACA6B EQ PUSH2 0x103C JUMPI DUP2 PUSH4 0xC00F538D EQ PUSH2 0x1018 JUMPI DUP2 PUSH4 0xC039CC69 EQ PUSH2 0xFD6 JUMPI DUP2 PUSH4 0xC09C30BD EQ PUSH2 0xF53 JUMPI DUP2 PUSH4 0xC239FCA4 EQ PUSH2 0xEFB JUMPI DUP2 PUSH4 0xC84353C9 EQ PUSH2 0xED7 JUMPI DUP2 PUSH4 0xCF351C1D EQ PUSH2 0xE91 JUMPI DUP2 PUSH4 0xD1A0FAA0 EQ PUSH2 0xE75 JUMPI DUP2 PUSH4 0xD6AF11DA EQ PUSH2 0xE39 JUMPI DUP2 PUSH4 0xD76DC7FD EQ PUSH2 0xDE1 JUMPI DUP2 PUSH4 0xD87AAB6F EQ PUSH2 0xDC1 JUMPI DUP2 PUSH4 0xD8DB6F5A EQ PUSH2 0xD7B JUMPI DUP2 PUSH4 0xDB796072 EQ PUSH2 0xD3D JUMPI DUP2 PUSH4 0xDDB6D190 EQ PUSH2 0xD00 JUMPI DUP2 PUSH4 0xDE8D520A EQ PUSH2 0xCCD JUMPI DUP2 PUSH4 0xE23C135C EQ PUSH2 0xC77 JUMPI DUP2 PUSH4 0xE3867EEB EQ PUSH2 0xC0E JUMPI DUP2 PUSH4 0xE4012945 EQ PUSH2 0xBB1 JUMPI DUP2 PUSH4 0xE4C0AAF4 EQ PUSH2 0xB6C JUMPI DUP2 PUSH4 0xE6A683E0 EQ PUSH2 0xB26 JUMPI DUP2 PUSH4 0xE6B1627C EQ PUSH2 0xAE2 JUMPI DUP2 PUSH4 0xE7C25978 EQ PUSH2 0xABD JUMPI DUP2 PUSH4 0xE8859A15 EQ PUSH2 0xAA0 JUMPI DUP2 PUSH4 0xEA302A97 EQ PUSH2 0xA43 JUMPI DUP2 PUSH4 0xEE1F438F EQ PUSH2 0xA19 JUMPI DUP2 PUSH4 0xF13F4054 EQ PUSH2 0x9EF JUMPI DUP2 PUSH4 0xF26114AA EQ PUSH2 0x98D JUMPI DUP2 PUSH4 0xF2808778 EQ PUSH2 0x969 JUMPI DUP2 PUSH4 0xF2F9F456 EQ PUSH2 0x913 JUMPI DUP2 PUSH4 0xF30B5614 EQ PUSH2 0x8F3 JUMPI DUP2 PUSH4 0xF375CFBA EQ PUSH2 0x8D3 JUMPI DUP2 PUSH4 0xF88B1434 EQ PUSH2 0x863 JUMPI DUP2 PUSH4 0xFA6E83BD EQ PUSH2 0x843 JUMPI DUP2 PUSH4 0xFADDA424 EQ PUSH2 0x7CF JUMPI DUP2 PUSH4 0xFD80FA77 EQ PUSH2 0x74D JUMPI POP DUP1 PUSH4 0xFDA70F8B EQ PUSH2 0x729 JUMPI DUP1 PUSH4 0xFED0ADE4 EQ PUSH2 0x6DD JUMPI PUSH4 0xFFE31539 EQ PUSH2 0x66F JUMPI PUSH0 DUP1 REVERT JUMPDEST CALLVALUE PUSH2 0x6DA JUMPI POP PUSH1 0x60 CALLDATASIZE PUSH1 0x3 NOT ADD SLT PUSH2 0x6D6 JUMPI PUSH1 0x44 CALLDATALOAD PUSH1 0x1 PUSH1 0x1 PUSH1 0xA0 SHL SUB DUP2 AND SWAP1 DUP2 SWAP1 SUB PUSH2 0x6D6 JUMPI DUP2 MLOAD PUSH2 0x6C9 SWAP2 PUSH2 0x6A7 PUSH1 0xA0 DUP4 PUSH2 0x3349 JUMP JUMPDEST PUSH1 0x4 CALLDATALOAD DUP3 MSTORE PUSH1 0x24 CALLDATALOAD PUSH1 0x20 DUP4 ADD MSTORE CALLER DUP5 DUP4 ADD MSTORE CALLER PUSH1 0x60 DUP4 ADD MSTORE PUSH1 0x80 DUP3 ADD MSTORE PUSH2 0x400D JUMP JUMPDEST POP DUP3 MLOAD SWAP2 DUP3 MSTORE PUSH1 0x20 DUP3 ADD MSTORE RETURN JUMPDEST PUSH0 DUP1 REVERT JUMPDEST DUP1 REVERT JUMPDEST POP CALLVALUE PUSH2 0x6DA JUMPI POP PUSH2 0x6C9 PUSH2 0x6F2 CALLDATASIZE PUSH1 0x4 PUSH2 0x330A JUMP JUMPDEST SWAP1 SWAP2 DUP6 MLOAD SWAP4 PUSH2 0x702 PUSH1 0xA0 DUP7 PUSH2 0x3349 JUMP JUMPDEST DUP5 MSTORE PUSH1 0x20 DUP5 ADD MSTORE CALLER DUP6 DUP5 ADD MSTORE PUSH1 0x1 PUSH1 0x1 PUSH1 0xA0 SHL SUB SWAP2 DUP3 AND PUSH1 0x60 DUP5 ADD MSTORE AND PUSH1 0x80 DUP3 ADD MSTORE PUSH2 0x400D JUMP JUMPDEST POP SWAP1 CALLVALUE PUSH2 0x749 JUMPI DUP2 PUSH1 0x3 NOT CALLDATASIZE ADD SLT PUSH2 0x749 JUMPI PUSH1 0x20 SWAP1 PUSH2 0x16E SLOAD SWAP1 MLOAD SWAP1 DUP2 MSTORE RETURN JUMPDEST POP DUP1 REVERT JUMPDEST DUP4 SWAP2 POP CALLVALUE PUSH2 0x7CB JUMPI PUSH2 0x7AA SWAP1 PUSH2 0x7C7 SWAP4 PUSH2 0x768 CALLDATASIZE PUSH1 0x4 PUSH2 0x33C8 JUMP JUMPDEST SWAP3 PUSH2 0x778 DUP10 SWAP4 SWAP3 SWAP4 MLOAD SWAP8 DUP9 PUSH2 0x3349 JUMP JUMPDEST PUSH1 0x1 DUP1 PUSH1 0xA0 SHL SUB DUP1 SWAP6 AND DUP8 MSTORE PUSH1 0x20 DUP8 ADD MSTORE DUP8 DUP7 ADD MSTORE PUSH1 0x60 DUP6 ADD MSTORE CALLER PUSH1 0x80 DUP6 ADD MSTORE AND PUSH1 0xA0 DUP4 ADD MSTORE PUSH1 0xC0 DUP3 ADD MSTORE CALLER SWAP1 PUSH2 0x5A3B JUMP JUMPDEST POP SWAP3 MLOAD SWAP2 DUP3 MSTORE PUSH1 0x20 DUP3 ADD MSTORE PUSH1 0x40 DUP2 ADD SWAP2 SWAP1 SWAP2 MSTORE SWAP1 DUP2 SWAP1 PUSH1 0x60 DUP3 ADD SWAP1 JUMP JUMPDEST SUB SWAP1 RETURN JUMPDEST DUP3 DUP1 REVERT JUMPDEST POP POP CALLVALUE PUSH2 0x6DA JUMPI PUSH1 0x20 CALLDATASIZE PUSH1 0x3 NOT ADD SLT PUSH2 0x6DA JUMPI POP PUSH1 0x1 PUSH1 0x1 PUSH1 0xA0 SHL SUB PUSH1 0x4 CALLDATALOAD DUP2 DUP2 AND DUP2 SUB PUSH2 0x6D6 JUMPI PUSH2 0x80D PUSH2 0x805 PUSH1 0x1 SWAP3 PUSH2 0x3CA4 JUMP JUMPDEST PUSH2 0x169 PUSH2 0x3330 JUMP JUMPDEST POP ADD SLOAD AND PUSH2 0x81A DUP2 PUSH2 0x3D4C JUMP JUMPDEST SWAP2 SWAP1 SWAP2 ISZERO PUSH2 0x82C JUMPI POP PUSH1 0x20 SWAP2 MLOAD SWAP1 DUP2 MSTORE RETURN JUMPDEST PUSH1 0x24 SWAP1 DUP4 MLOAD SWAP1 PUSH4 0x7F6E4DB9 PUSH1 0xE0 SHL DUP3 MSTORE PUSH1 0x4 DUP3 ADD MSTORE REVERT JUMPDEST DUP3 DUP5 CALLVALUE PUSH2 0x749 JUMPI DUP2 PUSH1 0x3 NOT CALLDATASIZE ADD SLT PUSH2 0x749 JUMPI PUSH1 0x20 SWAP1 PUSH2 0x16C SLOAD SWAP1 MLOAD SWAP1 DUP2 MSTORE RETURN JUMPDEST POP POP CALLVALUE PUSH2 0x6DA JUMPI PUSH1 0x20 CALLDATASIZE PUSH1 0x3 NOT ADD SLT PUSH2 0x6DA JUMPI POP PUSH1 0x4 CALLDATALOAD SWAP1 PUSH1 0x1 PUSH1 0x1 PUSH1 0xA0 SHL SUB DUP3 AND DUP3 SUB PUSH2 0x6D6 JUMPI PUSH2 0x8CC PUSH2 0x8BE PUSH1 0x20 SWAP4 PUSH2 0x8A7 PUSH2 0x89F PUSH2 0x5C7C JUMP JUMPDEST SWAP2 SWAP1 SWAP3 PUSH2 0x3CA4 JUMP JUMPDEST SWAP2 PUSH2 0x8C6 PUSH2 0x8B5 DUP5 DUP5 PUSH2 0x39B6 JUMP JUMPDEST MLOAD SWAP5 DUP6 SWAP4 PUSH2 0x39CA JUMP JUMPDEST SWAP6 SWAP1 SWAP5 PUSH2 0x5BD9 JUMP JUMPDEST SWAP1 PUSH2 0x4B36 JUMP JUMPDEST SWAP1 MLOAD SWAP1 DUP2 MSTORE RETURN JUMPDEST DUP3 DUP5 CALLVALUE PUSH2 0x749 JUMPI DUP2 PUSH1 0x3 NOT CALLDATASIZE ADD SLT PUSH2 0x749 JUMPI PUSH1 0x20 SWAP1 PUSH2 0x173 SLOAD SWAP1 MLOAD SWAP1 DUP2 MSTORE RETURN JUMPDEST DUP3 DUP5 CALLVALUE PUSH2 0x749 JUMPI DUP2 PUSH1 0x3 NOT CALLDATASIZE ADD SLT PUSH2 0x749 JUMPI PUSH1 0x20 SWAP1 PUSH2 0x163 SLOAD SWAP1 MLOAD SWAP1 DUP2 MSTORE RETURN JUMPDEST POP POP CALLVALUE PUSH2 0x6DA JUMPI POP PUSH2 0x6C9 PUSH2 0x929 CALLDATASIZE PUSH1 0x4 PUSH2 0x339B JUMP JUMPDEST SWAP1 DUP6 SWAP4 SWAP3 SWAP4 MLOAD SWAP4 PUSH2 0x93B PUSH1 0xC0 DUP7 PUSH2 0x3349 JUMP JUMPDEST PUSH1 0x1 PUSH1 0x1 PUSH1 0xA0 SHL SUB SWAP4 DUP5 AND DUP6 MSTORE PUSH1 0x20 DUP6 ADD MSTORE DUP6 DUP5 ADD MSTORE CALLER PUSH1 0x60 DUP5 ADD DUP2 SWAP1 MSTORE PUSH1 0x80 DUP5 ADD MSTORE AND PUSH1 0xA0 DUP3 ADD MSTORE PUSH2 0x4754 JUMP JUMPDEST DUP3 CALLVALUE PUSH2 0x6DA JUMPI PUSH1 0x20 CALLDATASIZE PUSH1 0x3 NOT ADD SLT PUSH2 0x6DA JUMPI PUSH2 0x983 PUSH2 0x5DD1 JUMP JUMPDEST PUSH1 0x4 CALLDATALOAD PUSH2 0x16E SSTORE DUP1 RETURN JUMPDEST DUP4 SWAP2 POP CALLVALUE PUSH2 0x7CB JUMPI CALLDATASIZE PUSH1 0x3 NOT ADD SLT PUSH2 0x749 JUMPI PUSH2 0x9EB SWAP1 PUSH2 0x9AB PUSH2 0x5DD1 JUMP JUMPDEST MLOAD PUSH4 0x79308A55 PUSH1 0xE1 SHL PUSH1 0x20 DUP3 ADD MSTORE PUSH2 0x9D9 DUP2 PUSH2 0x9CB PUSH1 0x4 PUSH1 0x24 DUP4 ADD PUSH2 0x5478 JUMP JUMPDEST SUB PUSH1 0x1F NOT DUP2 ADD DUP4 MSTORE DUP3 PUSH2 0x3349 JUMP JUMPDEST PUSH2 0x226 SLOAD PUSH1 0x1 PUSH1 0x1 PUSH1 0xA0 SHL SUB AND PUSH2 0x4EA3 JUMP JUMPDEST POP DUP1 RETURN JUMPDEST DUP3 DUP5 CALLVALUE PUSH2 0x749 JUMPI DUP2 PUSH1 0x3 NOT CALLDATASIZE ADD SLT PUSH2 0x749 JUMPI PUSH2 0x162 SLOAD SWAP1 MLOAD PUSH1 0x1 PUSH1 0x1 PUSH1 0xA0 SHL SUB SWAP1 SWAP2 AND DUP2 MSTORE PUSH1 0x20 SWAP1 RETURN JUMPDEST DUP3 DUP5 CALLVALUE PUSH2 0x749 JUMPI DUP2 PUSH1 0x3 NOT CALLDATASIZE ADD SLT PUSH2 0x749 JUMPI PUSH2 0x182 SLOAD SWAP1 MLOAD PUSH1 0x1 PUSH1 0x1 PUSH1 0xA0 SHL SUB SWAP1 SWAP2 AND DUP2 MSTORE PUSH1 0x20 SWAP1 RETURN JUMPDEST DUP4 SWAP2 POP CALLVALUE PUSH2 0x7CB JUMPI PUSH2 0x7AA SWAP1 PUSH2 0x7C7 SWAP4 PUSH2 0xA5E CALLDATASIZE PUSH1 0x4 PUSH2 0x33C8 JUMP JUMPDEST SWAP3 PUSH2 0xA6E DUP10 SWAP4 SWAP3 SWAP4 MLOAD SWAP8 DUP9 PUSH2 0x3349 JUMP JUMPDEST PUSH1 0x1 DUP1 PUSH1 0xA0 SHL SUB DUP1 SWAP6 AND DUP8 MSTORE PUSH1 0x20 DUP8 ADD MSTORE DUP8 DUP7 ADD MSTORE PUSH1 0x60 DUP6 ADD MSTORE CALLER PUSH1 0x80 DUP6 ADD MSTORE AND PUSH1 0xA0 DUP4 ADD MSTORE PUSH1 0xC0 DUP3 ADD MSTORE CALLER SWAP1 PUSH2 0x50C7 JUMP JUMPDEST DUP3 DUP5 CALLVALUE PUSH2 0x749 JUMPI DUP2 PUSH1 0x3 NOT CALLDATASIZE ADD SLT PUSH2 0x749 JUMPI PUSH1 0x20 SWAP1 PUSH2 0x8CC PUSH2 0x54D9 JUMP JUMPDEST DUP3 DUP5 CALLVALUE PUSH2 0x749 JUMPI DUP2 PUSH1 0x3 NOT CALLDATASIZE ADD SLT PUSH2 0x749 JUMPI PUSH1 0x20 SWAP1 PUSH1 0xFF PUSH2 0x17D SLOAD AND SWAP1 MLOAD SWAP1 ISZERO ISZERO DUP2 MSTORE RETURN JUMPDEST DUP3 DUP5 CALLVALUE PUSH2 0x749 JUMPI PUSH1 0x20 CALLDATASIZE PUSH1 0x3 NOT ADD SLT PUSH2 0x749 JUMPI PUSH1 0x4 CALLDATALOAD PUSH2 0x1BE DUP1 SLOAD DUP3 LT ISZERO PUSH2 0xB22 JUMPI SWAP1 PUSH2 0xB0E SWAP2 PUSH2 0x3330 JUMP JUMPDEST POP PUSH1 0x1 DUP2 SLOAD SWAP2 ADD SLOAD DUP3 MLOAD SWAP2 DUP3 MSTORE PUSH1 0x20 DUP3 ADD MSTORE RETURN JUMPDEST DUP4 DUP1 REVERT JUMPDEST DUP3 CALLVALUE PUSH2 0x6DA JUMPI PUSH1 0x20 CALLDATASIZE PUSH1 0x3 NOT ADD SLT PUSH2 0x6DA JUMPI PUSH1 0x4 CALLDATALOAD PUSH1 0x1 PUSH1 0x1 PUSH1 0xA0 SHL SUB DUP2 AND SWAP1 DUP2 SWAP1 SUB PUSH2 0x6D6 JUMPI PUSH2 0xB55 PUSH2 0x5DD1 JUMP JUMPDEST PUSH2 0x226 DUP1 SLOAD PUSH1 0x1 PUSH1 0x1 PUSH1 0xA0 SHL SUB NOT AND SWAP1 SWAP2 OR SWAP1 SSTORE DUP1 RETURN JUMPDEST DUP3 CALLVALUE PUSH2 0x6DA JUMPI PUSH1 0x20 CALLDATASIZE PUSH1 0x3 NOT ADD SLT PUSH2 0x6DA JUMPI PUSH1 0x4 CALLDATALOAD PUSH1 0x1 PUSH1 0x1 PUSH1 0xA0 SHL SUB DUP2 AND SWAP1 DUP2 SWAP1 SUB PUSH2 0x749 JUMPI PUSH2 0xB9B PUSH2 0x5DD1 JUMP JUMPDEST PUSH1 0x1 PUSH1 0x1 PUSH1 0x60 SHL SUB PUSH1 0xA0 SHL PUSH1 0x97 SLOAD AND OR PUSH1 0x97 SSTORE DUP1 RETURN JUMPDEST POP POP CALLVALUE PUSH2 0x6DA JUMPI PUSH1 0x60 CALLDATASIZE PUSH1 0x3 NOT ADD SLT PUSH2 0x6D6 JUMPI PUSH1 0x44 CALLDATALOAD PUSH1 0x1 PUSH1 0x1 PUSH1 0xA0 SHL SUB DUP2 AND SWAP1 DUP2 SWAP1 SUB PUSH2 0x6D6 JUMPI PUSH2 0x6C9 SWAP2 DUP4 MLOAD SWAP2 PUSH2 0xBEB PUSH1 0xA0 DUP5 PUSH2 0x3349 JUMP JUMPDEST PUSH1 0x4 CALLDATALOAD DUP4 MSTORE PUSH1 0x24 CALLDATALOAD PUSH1 0x20 DUP5 ADD MSTORE CALLER DUP6 DUP5 ADD MSTORE PUSH1 0x60 DUP4 ADD MSTORE PUSH1 0x80 DUP3 ADD MSTORE CALLER SWAP1 PUSH2 0x54F0 JUMP JUMPDEST DUP4 SWAP2 POP CALLVALUE PUSH2 0x7CB JUMPI PUSH2 0x7AA SWAP1 PUSH2 0x7C7 SWAP4 PUSH2 0xC29 CALLDATASIZE PUSH1 0x4 PUSH2 0x33FA JUMP JUMPDEST SWAP3 DUP10 SWAP8 SWAP6 SWAP8 SWAP3 SWAP2 SWAP3 MLOAD SWAP8 PUSH2 0xC3F PUSH2 0x100 DUP11 PUSH2 0x3349 JUMP JUMPDEST PUSH1 0x1 DUP1 PUSH1 0xA0 SHL SUB SWAP6 DUP7 DUP1 SWAP3 AND DUP11 MSTORE AND PUSH1 0x20 DUP10 ADD MSTORE DUP10 DUP9 ADD MSTORE PUSH1 0x60 DUP8 ADD MSTORE PUSH1 0x80 DUP7 ADD MSTORE CALLER PUSH1 0xA0 DUP7 ADD MSTORE AND PUSH1 0xC0 DUP5 ADD MSTORE DUP3 ADD MSTORE CALLER SWAP1 PUSH2 0x4EC4 JUMP JUMPDEST DUP3 CALLVALUE PUSH2 0x6DA JUMPI DUP1 PUSH1 0x3 NOT CALLDATASIZE ADD SLT PUSH2 0x6DA JUMPI PUSH2 0xC91 ADDRESS PUSH2 0x3930 JUMP JUMPDEST PUSH2 0x163 SWAP1 PUSH2 0xCA1 DUP3 SLOAD DUP1 SWAP3 PUSH2 0x390F JUMP JUMPDEST PUSH2 0xCA9 JUMPI DUP3 DUP1 RETURN JUMPDEST DUP1 PUSH2 0xCBF PUSH2 0xCC5 SWAP3 PUSH2 0xCBA ADDRESS PUSH2 0x3930 JUMP JUMPDEST PUSH2 0x390F JUMP JUMPDEST SWAP1 PUSH2 0x39A9 JUMP JUMPDEST SWAP1 SSTORE DUP2 DUP1 DUP3 DUP1 RETURN JUMPDEST DUP3 DUP5 CALLVALUE PUSH2 0x749 JUMPI DUP2 PUSH1 0x3 NOT CALLDATASIZE ADD SLT PUSH2 0x749 JUMPI PUSH1 0x20 SWAP1 PUSH2 0x8CC PUSH2 0xCF5 PUSH2 0xCF0 PUSH2 0x3DB1 JUMP JUMPDEST PUSH2 0x39CA JUMP JUMPDEST SWAP1 POP PUSH2 0x163 SLOAD PUSH2 0x390F JUMP JUMPDEST DUP3 DUP5 CALLVALUE PUSH2 0x749 JUMPI PUSH1 0x20 CALLDATASIZE PUSH1 0x3 NOT ADD SLT PUSH2 0x749 JUMPI PUSH1 0x4 CALLDATALOAD PUSH1 0x1 PUSH1 0x1 PUSH1 0xA0 SHL SUB DUP2 AND SWAP1 DUP2 SWAP1 SUB PUSH2 0x6D6 JUMPI DUP3 DUP3 SWAP2 PUSH1 0x20 SWAP5 MSTORE PUSH2 0x177 DUP5 MSTORE KECCAK256 SLOAD SWAP1 MLOAD SWAP1 DUP2 MSTORE RETURN JUMPDEST DUP4 SWAP2 POP CALLVALUE PUSH2 0x7CB JUMPI CALLDATASIZE PUSH1 0x3 NOT ADD SLT PUSH2 0x749 JUMPI PUSH2 0x9EB SWAP1 PUSH2 0xD5B PUSH2 0x5DD1 JUMP JUMPDEST MLOAD PUSH4 0x6DBCB039 PUSH1 0xE1 SHL PUSH1 0x20 DUP3 ADD MSTORE PUSH2 0x9D9 DUP2 PUSH2 0x9CB PUSH1 0x4 PUSH1 0x24 DUP4 ADD PUSH2 0x5478 JUMP JUMPDEST DUP3 CALLVALUE PUSH2 0x6DA JUMPI PUSH1 0x20 CALLDATASIZE PUSH1 0x3 NOT ADD SLT PUSH2 0x6DA JUMPI PUSH1 0x4 CALLDATALOAD PUSH1 0x1 PUSH1 0x1 PUSH1 0xA0 SHL SUB DUP2 AND SWAP1 DUP2 SWAP1 SUB PUSH2 0x6D6 JUMPI PUSH2 0xDAA PUSH2 0x5DD1 JUMP JUMPDEST PUSH2 0x182 DUP1 SLOAD PUSH1 0x1 PUSH1 0x1 PUSH1 0xA0 SHL SUB NOT AND SWAP1 SWAP2 OR SWAP1 SSTORE DUP1 RETURN JUMPDEST DUP3 DUP5 CALLVALUE PUSH2 0x749 JUMPI DUP2 PUSH1 0x3 NOT CALLDATASIZE ADD SLT PUSH2 0x749 JUMPI PUSH1 0x20 SWAP1 PUSH2 0x185 SLOAD SWAP1 MLOAD SWAP1 DUP2 MSTORE RETURN JUMPDEST DUP3 DUP5 CALLVALUE PUSH2 0x749 JUMPI PUSH2 0x7C7 SWAP1 PUSH2 0x7AA PUSH2 0xDFA CALLDATASIZE PUSH1 0x4 PUSH2 0x343A JUMP JUMPDEST SWAP2 SWAP4 SWAP1 DUP7 MLOAD SWAP5 PUSH2 0xE0B PUSH1 0xC0 DUP8 PUSH2 0x3349 JUMP JUMPDEST PUSH1 0x1 DUP1 PUSH1 0xA0 SHL SUB SWAP5 DUP6 DUP1 SWAP5 AND DUP8 MSTORE PUSH1 0x20 DUP8 ADD MSTORE DUP8 DUP7 ADD MSTORE CALLER PUSH1 0x60 DUP7 ADD MSTORE AND PUSH1 0x80 DUP5 ADD MSTORE AND PUSH1 0xA0 DUP3 ADD MSTORE PUSH2 0x4D0F JUMP JUMPDEST DUP3 DUP5 CALLVALUE PUSH2 0x749 JUMPI DUP2 PUSH1 0x3 NOT CALLDATASIZE ADD SLT PUSH2 0x749 JUMPI PUSH1 0x20 SWAP1 PUSH2 0x8CC PUSH2 0xE5B PUSH1 0x1 PUSH2 0x3DEA JUMP JUMPDEST PUSH2 0xE6F PUSH2 0xE68 DUP3 DUP5 PUSH2 0x3AFF JUMP JUMPDEST SWAP2 DUP4 PUSH2 0x3A4F JUMP JUMPDEST SWAP2 PUSH2 0x3E30 JUMP JUMPDEST DUP3 CALLVALUE PUSH2 0x6DA JUMPI DUP1 PUSH1 0x3 NOT CALLDATASIZE ADD SLT PUSH2 0x6DA JUMPI PUSH2 0xE8E PUSH2 0x5D3E JUMP JUMPDEST DUP1 RETURN JUMPDEST DUP3 CALLVALUE PUSH2 0x6DA JUMPI PUSH1 0x20 CALLDATASIZE PUSH1 0x3 NOT ADD SLT PUSH2 0x6DA JUMPI PUSH1 0x4 CALLDATALOAD PUSH1 0x1 PUSH1 0x1 PUSH1 0xA0 SHL SUB DUP2 AND SWAP1 DUP2 SWAP1 SUB PUSH2 0x6D6 JUMPI PUSH2 0xEC0 PUSH2 0x5DD1 JUMP JUMPDEST PUSH2 0x161 DUP1 SLOAD PUSH1 0x1 PUSH1 0x1 PUSH1 0xA0 SHL SUB NOT AND SWAP1 SWAP2 OR SWAP1 SSTORE DUP1 RETURN JUMPDEST DUP3 CALLVALUE PUSH2 0x6DA JUMPI PUSH1 0x20 CALLDATASIZE PUSH1 0x3 NOT ADD SLT PUSH2 0x6DA JUMPI PUSH2 0xEF1 PUSH2 0x5DD1 JUMP JUMPDEST PUSH1 0x4 CALLDATALOAD PUSH2 0x17E SSTORE DUP1 RETURN JUMPDEST DUP3 DUP5 CALLVALUE PUSH2 0x749 JUMPI PUSH2 0x7AA PUSH2 0x7C7 SWAP3 PUSH2 0xF14 CALLDATASIZE PUSH1 0x4 PUSH2 0x339B JUMP JUMPDEST SWAP1 DUP7 SWAP5 SWAP4 SWAP3 SWAP5 MLOAD SWAP5 PUSH2 0xF27 PUSH1 0xC0 DUP8 PUSH2 0x3349 JUMP JUMPDEST PUSH1 0x1 PUSH1 0x1 PUSH1 0xA0 SHL SUB SWAP4 DUP5 AND DUP7 MSTORE PUSH1 0x20 DUP7 ADD MSTORE DUP7 DUP6 ADD MSTORE CALLER PUSH1 0x60 DUP6 ADD MSTORE AND PUSH1 0x80 DUP4 ADD MSTORE PUSH1 0xA0 DUP3 ADD MSTORE PUSH2 0x4D0F JUMP JUMPDEST DUP4 DUP4 CALLVALUE PUSH2 0x6DA JUMPI PUSH1 0xA0 CALLDATASIZE PUSH1 0x3 NOT ADD SLT PUSH2 0x6DA JUMPI PUSH1 0x1 PUSH1 0x1 PUSH1 0xA0 SHL SUB SWAP1 PUSH1 0x4 CALLDATALOAD DUP3 DUP2 AND SWAP2 SWAP1 DUP3 SWAP1 SUB PUSH2 0x6D6 JUMPI PUSH1 0x24 CALLDATALOAD SWAP3 DUP4 AND DUP1 SWAP4 SUB PUSH2 0x6D6 JUMPI PUSH2 0x7C7 SWAP5 PUSH2 0x7AA SWAP4 DUP6 MLOAD SWAP4 PUSH2 0xFA2 PUSH2 0x100 DUP7 PUSH2 0x3349 JUMP JUMPDEST DUP5 MSTORE PUSH1 0x20 DUP5 ADD MSTORE PUSH1 0x44 CALLDATALOAD DUP6 DUP5 ADD MSTORE PUSH1 0x64 CALLDATALOAD PUSH1 0x60 DUP5 ADD MSTORE PUSH1 0x84 CALLDATALOAD PUSH1 0x80 DUP5 ADD MSTORE CALLER PUSH1 0xA0 DUP5 ADD MSTORE CALLER PUSH1 0xC0 DUP5 ADD MSTORE DUP3 ADD MSTORE CALLER SWAP1 PUSH2 0x4EC4 JUMP JUMPDEST DUP3 DUP5 CALLVALUE PUSH2 0x749 JUMPI DUP2 PUSH1 0x3 NOT CALLDATASIZE ADD SLT PUSH2 0x749 JUMPI PUSH1 0x20 SWAP1 PUSH2 0x8CC PUSH2 0x100B PUSH2 0x1012 PUSH2 0xFFF PUSH2 0xCF0 PUSH2 0x3DB1 JUMP JUMPDEST PUSH2 0x163 SWAP4 SWAP2 SWAP4 SLOAD PUSH2 0x390F JUMP JUMPDEST SWAP2 DUP3 PUSH2 0x390F JUMP JUMPDEST SWAP1 PUSH2 0x5E7F JUMP JUMPDEST DUP3 CALLVALUE PUSH2 0x6DA JUMPI PUSH1 0x20 CALLDATASIZE PUSH1 0x3 NOT ADD SLT PUSH2 0x6DA JUMPI PUSH2 0x1032 PUSH2 0x5DD1 JUMP JUMPDEST PUSH1 0x4 CALLDATALOAD PUSH2 0x16F SSTORE DUP1 RETURN JUMPDEST DUP3 CALLVALUE PUSH2 0x6DA JUMPI PUSH1 0x20 CALLDATASIZE PUSH1 0x3 NOT ADD SLT PUSH2 0x6DA JUMPI PUSH2 0x1056 PUSH2 0x5DD1 JUMP JUMPDEST PUSH1 0x4 CALLDATALOAD PUSH2 0x16B SSTORE DUP1 RETURN JUMPDEST DUP3 DUP5 CALLVALUE PUSH2 0x749 JUMPI DUP2 PUSH1 0x3 NOT CALLDATASIZE ADD SLT PUSH2 0x749 JUMPI PUSH1 0x20 SWAP1 PUSH1 0xFF PUSH1 0xCA SLOAD AND SWAP1 MLOAD SWAP1 ISZERO ISZERO DUP2 MSTORE RETURN JUMPDEST DUP3 DUP5 CALLVALUE PUSH2 0x749 JUMPI DUP2 PUSH1 0x3 NOT CALLDATASIZE ADD SLT PUSH2 0x749 JUMPI PUSH1 0x20 SWAP1 PUSH2 0x18B SLOAD SWAP1 MLOAD SWAP1 DUP2 MSTORE RETURN JUMPDEST DUP4 SWAP2 POP CALLVALUE PUSH2 0x7CB JUMPI PUSH2 0x7AA SWAP1 PUSH2 0x7C7 SWAP4 PUSH2 0x10BF CALLDATASIZE PUSH1 0x4 PUSH2 0x32E1 JUMP JUMPDEST SWAP3 PUSH2 0x10CF DUP9 SWAP4 SWAP3 SWAP4 MLOAD SWAP7 DUP8 PUSH2 0x3349 JUMP JUMPDEST PUSH1 0x1 DUP1 PUSH1 0xA0 SHL SUB AND DUP6 MSTORE PUSH1 0x20 DUP6 ADD MSTORE DUP6 DUP5 ADD MSTORE PUSH1 0x60 DUP4 ADD MSTORE CALLER PUSH1 0x80 DUP4 ADD MSTORE CALLER PUSH1 0xA0 DUP4 ADD MSTORE PUSH1 0xC0 DUP3 ADD MSTORE CALLER SWAP1 PUSH2 0x524C JUMP JUMPDEST DUP3 DUP5 CALLVALUE PUSH2 0x749 JUMPI DUP2 PUSH1 0x3 NOT CALLDATASIZE ADD SLT PUSH2 0x749 JUMPI PUSH2 0x183 SLOAD SWAP1 MLOAD PUSH1 0x1 PUSH1 0x1 PUSH1 0xA0 SHL SUB SWAP1 SWAP2 AND DUP2 MSTORE PUSH1 0x20 SWAP1 RETURN JUMPDEST DUP4 DUP4 CALLVALUE PUSH2 0x6DA JUMPI POP PUSH2 0x7AA PUSH2 0x7C7 SWAP3 PUSH2 0x1143 CALLDATASIZE PUSH1 0x4 PUSH2 0x33C8 JUMP JUMPDEST SWAP3 PUSH2 0x1153 DUP9 SWAP4 SWAP3 SWAP4 MLOAD SWAP7 DUP8 PUSH2 0x3349 JUMP JUMPDEST PUSH1 0x1 PUSH1 0x1 PUSH1 0xA0 SHL SUB SWAP5 DUP6 AND DUP7 MSTORE PUSH1 0x20 DUP7 ADD MSTORE DUP7 DUP6 ADD MSTORE PUSH1 0x60 DUP5 ADD MSTORE CALLER PUSH1 0x80 DUP5 ADD DUP2 SWAP1 MSTORE PUSH1 0xA0 DUP5 ADD DUP2 SWAP1 MSTORE SWAP2 AND PUSH1 0xC0 DUP4 ADD MSTORE SWAP1 PUSH2 0x5A3B JUMP JUMPDEST DUP3 DUP5 CALLVALUE PUSH2 0x749 JUMPI DUP2 PUSH1 0x3 NOT CALLDATASIZE ADD SLT PUSH2 0x749 JUMPI PUSH1 0x20 SWAP1 PUSH2 0x16F SLOAD SWAP1 MLOAD SWAP1 DUP2 MSTORE RETURN JUMPDEST DUP4 SWAP2 POP CALLVALUE PUSH2 0x7CB JUMPI PUSH2 0x7AA SWAP1 PUSH2 0x7C7 SWAP4 PUSH2 0x11C5 CALLDATASIZE PUSH1 0x4 PUSH2 0x32E1 JUMP JUMPDEST SWAP3 PUSH2 0x11D5 DUP9 SWAP4 SWAP3 SWAP4 MLOAD SWAP7 DUP8 PUSH2 0x3349 JUMP JUMPDEST PUSH1 0x1 DUP1 PUSH1 0xA0 SHL SUB AND DUP6 MSTORE PUSH1 0x20 DUP6 ADD MSTORE DUP6 DUP5 ADD MSTORE PUSH1 0x60 DUP4 ADD MSTORE CALLER PUSH1 0x80 DUP4 ADD MSTORE CALLER PUSH1 0xA0 DUP4 ADD MSTORE PUSH1 0xC0 DUP3 ADD MSTORE CALLER SWAP1 PUSH2 0x50C7 JUMP JUMPDEST POP POP CALLVALUE PUSH2 0x6DA JUMPI PUSH2 0x6C9 SWAP1 PUSH2 0x121B CALLDATASIZE PUSH1 0x4 PUSH2 0x339B JUMP JUMPDEST SWAP1 DUP7 SWAP5 SWAP4 SWAP3 SWAP5 MLOAD SWAP5 PUSH2 0x122E PUSH1 0xC0 DUP8 PUSH2 0x3349 JUMP JUMPDEST PUSH1 0x1 PUSH1 0x1 PUSH1 0xA0 SHL SUB SWAP4 DUP5 AND DUP7 MSTORE PUSH1 0x20 DUP7 ADD MSTORE DUP7 DUP6 ADD MSTORE CALLER PUSH1 0x60 DUP6 ADD MSTORE AND PUSH1 0x80 DUP4 ADD MSTORE PUSH1 0xA0 DUP3 ADD MSTORE PUSH2 0x4754 JUMP JUMPDEST DUP4 DUP4 CALLVALUE PUSH2 0x6DA JUMPI POP PUSH2 0x7AA PUSH2 0x7C7 SWAP3 PUSH2 0x1274 CALLDATASIZE PUSH1 0x4 PUSH2 0x33C8 JUMP JUMPDEST SWAP3 PUSH2 0x1284 DUP9 SWAP4 SWAP3 SWAP4 MLOAD SWAP7 DUP8 PUSH2 0x3349 JUMP JUMPDEST PUSH1 0x1 PUSH1 0x1 PUSH1 0xA0 SHL SUB SWAP5 DUP6 AND DUP7 MSTORE PUSH1 0x20 DUP7 ADD MSTORE DUP7 DUP6 ADD MSTORE PUSH1 0x60 DUP5 ADD MSTORE CALLER PUSH1 0x80 DUP5 ADD DUP2 SWAP1 MSTORE PUSH1 0xA0 DUP5 ADD DUP2 SWAP1 MSTORE SWAP2 AND PUSH1 0xC0 DUP4 ADD MSTORE SWAP1 PUSH2 0x524C JUMP JUMPDEST DUP3 DUP5 CALLVALUE PUSH2 0x749 JUMPI DUP2 PUSH1 0x3 NOT CALLDATASIZE ADD SLT PUSH2 0x749 JUMPI PUSH1 0x20 SWAP1 PUSH2 0x1BF SLOAD NUMBER LT ISZERO SWAP1 MLOAD SWAP1 DUP2 MSTORE RETURN JUMPDEST POP POP CALLVALUE PUSH2 0x6DA JUMPI POP PUSH2 0x6C9 PUSH2 0x12F4 CALLDATASIZE PUSH1 0x4 PUSH2 0x343A JUMP JUMPDEST SWAP2 SWAP4 SWAP1 DUP7 MLOAD SWAP5 PUSH2 0x1305 PUSH1 0xC0 DUP8 PUSH2 0x3349 JUMP JUMPDEST PUSH1 0x1 DUP1 PUSH1 0xA0 SHL SUB SWAP5 DUP6 DUP1 SWAP5 AND DUP8 MSTORE PUSH1 0x20 DUP8 ADD MSTORE DUP8 DUP7 ADD MSTORE CALLER PUSH1 0x60 DUP7 ADD MSTORE AND PUSH1 0x80 DUP5 ADD MSTORE AND PUSH1 0xA0 DUP3 ADD MSTORE PUSH2 0x4754 JUMP JUMPDEST DUP3 DUP5 CALLVALUE PUSH2 0x749 JUMPI DUP2 PUSH1 0x3 NOT CALLDATASIZE ADD SLT PUSH2 0x749 JUMPI PUSH1 0xCA SLOAD SWAP1 MLOAD PUSH1 0x10 SWAP2 SWAP1 SWAP2 SHR PUSH1 0x1 PUSH1 0x1 PUSH1 0xA0 SHL SUB AND DUP2 MSTORE PUSH1 0x20 SWAP1 RETURN JUMPDEST POP POP CALLVALUE PUSH2 0x6DA JUMPI PUSH1 0x20 CALLDATASIZE PUSH1 0x3 NOT ADD SLT PUSH2 0x6DA JUMPI PUSH1 0x4 CALLDATALOAD PUSH1 0x1 PUSH1 0x1 PUSH1 0xA0 SHL SUB DUP2 AND SWAP2 SWAP1 DUP3 SWAP1 SUB PUSH2 0x6D6 JUMPI DUP3 SWAP2 DUP2 MSTORE PUSH2 0x168 PUSH1 0x20 MSTORE KECCAK256 PUSH1 0xFF PUSH1 0x1 DUP3 SLOAD SWAP3 ADD SLOAD AND DUP3 MLOAD SWAP2 DUP3 MSTORE ISZERO ISZERO PUSH1 0x20 DUP3 ADD MSTORE RETURN JUMPDEST POP POP CALLVALUE PUSH2 0x6DA JUMPI DUP2 PUSH1 0x3 NOT CALLDATASIZE ADD SLT PUSH2 0x6DA JUMPI POP PUSH1 0x1 PUSH1 0x1 PUSH1 0xA0 SHL SUB SWAP1 PUSH1 0x4 CALLDATALOAD DUP3 DUP2 AND DUP2 SUB PUSH2 0x6D6 JUMPI PUSH1 0x24 CALLDATALOAD SWAP3 DUP4 AND DUP4 SUB PUSH2 0x6D6 JUMPI PUSH1 0x20 SWAP3 PUSH2 0x8CC SWAP2 CALLER SWAP1 PUSH2 0x53E5 JUMP JUMPDEST DUP3 DUP5 CALLVALUE PUSH2 0x749 JUMPI DUP2 PUSH1 0x3 NOT CALLDATASIZE ADD SLT PUSH2 0x749 JUMPI PUSH1 0x20 SWAP1 PUSH2 0x1417 PUSH2 0x1411 PUSH2 0xCF0 PUSH2 0x3DB1 JUMP JUMPDEST SWAP1 PUSH2 0x3B6F JUMP JUMPDEST PUSH2 0x17C SLOAD LT ISZERO SWAP1 MLOAD SWAP1 DUP2 MSTORE RETURN JUMPDEST POP POP CALLVALUE PUSH2 0x6DA JUMPI DUP2 PUSH1 0x3 NOT CALLDATASIZE ADD SLT PUSH2 0x6D6 JUMPI DUP2 MLOAD PUSH2 0x6C9 SWAP2 PUSH2 0x1447 PUSH1 0xA0 DUP4 PUSH2 0x3349 JUMP JUMPDEST PUSH1 0x4 CALLDATALOAD DUP3 MSTORE PUSH1 0x24 CALLDATALOAD PUSH1 0x20 DUP4 ADD MSTORE CALLER DUP5 DUP4 ADD MSTORE CALLER PUSH1 0x60 DUP4 ADD MSTORE PUSH1 0x80 DUP3 ADD MSTORE CALLER SWAP1 PUSH2 0x54F0 JUMP JUMPDEST DUP3 DUP5 CALLVALUE PUSH2 0x749 JUMPI PUSH2 0x7C7 SWAP1 PUSH2 0x7AA PUSH2 0x1484 CALLDATASIZE PUSH1 0x4 PUSH2 0x339B JUMP JUMPDEST SWAP1 DUP6 SWAP4 SWAP3 SWAP4 MLOAD SWAP4 PUSH2 0x1496 PUSH1 0xC0 DUP7 PUSH2 0x3349 JUMP JUMPDEST PUSH1 0x1 PUSH1 0x1 PUSH1 0xA0 SHL SUB SWAP4 DUP5 AND DUP6 MSTORE PUSH1 0x20 DUP6 ADD MSTORE DUP6 DUP5 ADD MSTORE CALLER PUSH1 0x60 DUP5 ADD DUP2 SWAP1 MSTORE PUSH1 0x80 DUP5 ADD MSTORE AND PUSH1 0xA0 DUP3 ADD MSTORE PUSH2 0x4D0F JUMP JUMPDEST DUP3 DUP5 CALLVALUE PUSH2 0x749 JUMPI DUP2 PUSH1 0x3 NOT CALLDATASIZE ADD SLT PUSH2 0x749 JUMPI PUSH2 0x178 SLOAD SWAP1 MLOAD PUSH1 0x1 PUSH1 0x1 PUSH1 0xA0 SHL SUB SWAP1 SWAP2 AND DUP2 MSTORE PUSH1 0x20 SWAP1 RETURN JUMPDEST DUP3 DUP5 CALLVALUE PUSH2 0x749 JUMPI DUP2 PUSH1 0x3 NOT CALLDATASIZE ADD SLT PUSH2 0x749 JUMPI PUSH1 0x20 SWAP1 PUSH2 0x150E PUSH2 0xCF0 PUSH2 0x3DB1 JUMP JUMPDEST POP SWAP1 MLOAD SWAP1 DUP2 MSTORE RETURN JUMPDEST DUP3 DUP5 CALLVALUE PUSH2 0x749 JUMPI DUP2 PUSH1 0x3 NOT CALLDATASIZE ADD SLT PUSH2 0x749 JUMPI PUSH2 0x188 SLOAD SWAP1 MLOAD PUSH1 0x1 PUSH1 0x1 PUSH1 0xA0 SHL SUB SWAP1 SWAP2 AND DUP2 MSTORE PUSH1 0x20 SWAP1 RETURN JUMPDEST DUP3 DUP5 CALLVALUE PUSH2 0x749 JUMPI DUP2 PUSH1 0x3 NOT CALLDATASIZE ADD SLT PUSH2 0x749 JUMPI PUSH1 0x20 SWAP1 PUSH2 0x17C SLOAD SWAP1 MLOAD SWAP1 DUP2 MSTORE RETURN JUMPDEST POP POP CALLVALUE PUSH2 0x6DA JUMPI POP PUSH2 0x6C9 PUSH2 0x1576 CALLDATASIZE PUSH1 0x4 PUSH2 0x339B JUMP JUMPDEST SWAP1 DUP6 SWAP4 SWAP3 SWAP4 MLOAD SWAP4 PUSH2 0x1588 PUSH1 0xC0 DUP7 PUSH2 0x3349 JUMP JUMPDEST PUSH1 0x1 PUSH1 0x1 PUSH1 0xA0 SHL SUB SWAP4 DUP5 AND DUP6 MSTORE PUSH1 0x20 DUP6 ADD MSTORE DUP6 DUP5 ADD MSTORE CALLER PUSH1 0x60 DUP5 ADD DUP2 SWAP1 MSTORE PUSH1 0x80 DUP5 ADD DUP2 SWAP1 MSTORE SWAP2 AND PUSH1 0xA0 DUP4 ADD MSTORE SWAP1 PUSH2 0x57AD JUMP JUMPDEST POP POP CALLVALUE PUSH2 0x6DA JUMPI POP PUSH2 0x6C9 PUSH2 0x15D0 CALLDATASIZE PUSH1 0x4 PUSH2 0x343A JUMP JUMPDEST SWAP2 SWAP4 SWAP1 DUP7 MLOAD SWAP5 PUSH2 0x15E1 PUSH1 0xC0 DUP8 PUSH2 0x3349 JUMP JUMPDEST PUSH1 0x1 DUP1 PUSH1 0xA0 SHL SUB SWAP5 DUP6 DUP1 SWAP5 AND DUP8 MSTORE PUSH1 0x20 DUP8 ADD MSTORE DUP8 DUP7 ADD MSTORE CALLER PUSH1 0x60 DUP7 ADD MSTORE AND PUSH1 0x80 DUP5 ADD MSTORE AND PUSH1 0xA0 DUP3 ADD MSTORE CALLER SWAP1 PUSH2 0x57AD JUMP JUMPDEST DUP3 CALLVALUE PUSH2 0x6DA JUMPI PUSH1 0x20 CALLDATASIZE PUSH1 0x3 NOT ADD SLT PUSH2 0x6DA JUMPI PUSH1 0x4 CALLDATALOAD PUSH1 0x1 PUSH1 0x1 PUSH1 0xA0 SHL SUB DUP2 AND SWAP1 DUP2 SWAP1 SUB PUSH2 0x6D6 JUMPI PUSH2 0x1640 PUSH2 0x5DD1 JUMP JUMPDEST PUSH2 0x183 DUP1 SLOAD PUSH1 0x1 PUSH1 0x1 PUSH1 0xA0 SHL SUB NOT AND SWAP1 SWAP2 OR SWAP1 SSTORE DUP1 RETURN JUMPDEST DUP3 DUP5 CALLVALUE PUSH2 0x749 JUMPI DUP2 PUSH1 0x3 NOT CALLDATASIZE ADD SLT PUSH2 0x749 JUMPI PUSH2 0x1671 PUSH2 0x5E5E JUMP JUMPDEST PUSH1 0xCA SLOAD PUSH1 0x10 DUP2 SWAP1 SHR PUSH1 0x1 PUSH1 0x1 PUSH1 0xA0 SHL SUB AND CALLER SUB PUSH2 0x16DB JUMPI PUSH1 0xFF DUP2 AND ISZERO PUSH2 0x16CA JUMPI PUSH2 0xFF00 NOT AND PUSH2 0x100 OR PUSH1 0xCA SSTORE MLOAD CALLER DUP2 MSTORE PUSH32 0x62E78CEA01BEE320CD4E420270B5EA74000D11B0C9F74754EBDBFC544B05A258 SWAP1 PUSH1 0x20 SWAP1 LOG1 DUP1 RETURN JUMPDEST DUP2 MLOAD PUSH4 0x866099C3 PUSH1 0xE0 SHL DUP2 MSTORE PUSH1 0x4 SWAP1 REVERT JUMPDEST DUP2 MLOAD PUSH4 0x1D77D477 PUSH1 0xE2 SHL DUP2 MSTORE PUSH1 0x4 SWAP1 REVERT JUMPDEST DUP4 SWAP2 POP CALLVALUE PUSH2 0x7CB JUMPI PUSH2 0x7AA SWAP1 PUSH2 0x7C7 SWAP4 PUSH2 0x1707 CALLDATASIZE PUSH1 0x4 PUSH2 0x33C8 JUMP JUMPDEST SWAP3 PUSH2 0x1717 DUP10 SWAP4 SWAP3 SWAP4 MLOAD SWAP8 DUP9 PUSH2 0x3349 JUMP JUMPDEST PUSH1 0x1 DUP1 PUSH1 0xA0 SHL SUB DUP1 SWAP6 AND DUP8 MSTORE PUSH1 0x20 DUP8 ADD MSTORE DUP8 DUP7 ADD MSTORE PUSH1 0x60 DUP6 ADD MSTORE CALLER PUSH1 0x80 DUP6 ADD MSTORE AND PUSH1 0xA0 DUP4 ADD MSTORE PUSH1 0xC0 DUP3 ADD MSTORE CALLER SWAP1 PUSH2 0x524C JUMP JUMPDEST DUP3 DUP5 CALLVALUE PUSH2 0x749 JUMPI DUP2 PUSH1 0x3 NOT CALLDATASIZE ADD SLT PUSH2 0x749 JUMPI PUSH1 0x20 SWAP1 PUSH2 0x8CC PUSH2 0x1411 PUSH2 0xCF0 PUSH2 0x3DB1 JUMP JUMPDEST DUP3 DUP5 CALLVALUE PUSH2 0x749 JUMPI DUP2 PUSH1 0x3 NOT CALLDATASIZE ADD SLT PUSH2 0x749 JUMPI PUSH1 0x20 SWAP1 PUSH2 0x18A SLOAD SWAP1 MLOAD SWAP1 DUP2 MSTORE RETURN JUMPDEST DUP3 DUP5 CALLVALUE PUSH2 0x749 JUMPI DUP2 PUSH1 0x3 NOT CALLDATASIZE ADD SLT PUSH2 0x749 JUMPI PUSH1 0x20 SWAP1 PUSH2 0x8CC PUSH2 0x17AE PUSH1 0x1 PUSH2 0x3DEA JUMP JUMPDEST PUSH2 0xE6F PUSH2 0x17BB DUP3 DUP5 PUSH2 0x3A4F JUMP JUMPDEST SWAP2 DUP4 PUSH2 0x3AFF JUMP JUMPDEST DUP3 DUP5 CALLVALUE PUSH2 0x749 JUMPI DUP2 PUSH1 0x3 NOT CALLDATASIZE ADD SLT PUSH2 0x749 JUMPI PUSH2 0x1F3 SLOAD SWAP1 MLOAD PUSH1 0x1 PUSH1 0x1 PUSH1 0xA0 SHL SUB SWAP1 SWAP2 AND DUP2 MSTORE PUSH1 0x20 SWAP1 RETURN JUMPDEST DUP3 DUP5 CALLVALUE PUSH2 0x749 JUMPI PUSH1 0x20 CALLDATASIZE PUSH1 0x3 NOT ADD SLT PUSH2 0x749 JUMPI PUSH1 0x4 CALLDATALOAD SWAP2 PUSH2 0x17A SWAP1 DUP2 SLOAD DUP5 LT ISZERO PUSH2 0x6DA JUMPI POP PUSH1 0x20 SWAP3 PUSH2 0x181D SWAP2 PUSH2 0x3261 JUMP JUMPDEST SWAP2 SWAP1 SLOAD SWAP1 MLOAD SWAP2 PUSH1 0x3 SHL SHR DUP2 MSTORE RETURN JUMPDEST DUP3 CALLVALUE PUSH2 0x6DA JUMPI PUSH1 0x20 CALLDATASIZE PUSH1 0x3 NOT ADD SLT PUSH2 0x6DA JUMPI PUSH2 0x1845 PUSH2 0x5DD1 JUMP JUMPDEST PUSH1 0x4 CALLDATALOAD PUSH2 0x17B SSTORE DUP1 RETURN JUMPDEST DUP4 DUP4 CALLVALUE PUSH2 0x6DA JUMPI POP PUSH2 0x7AA PUSH2 0x7C7 SWAP3 PUSH2 0x1869 CALLDATASIZE PUSH1 0x4 PUSH2 0x33FA JUMP JUMPDEST SWAP3 DUP9 SWAP7 SWAP6 SWAP7 SWAP3 SWAP2 SWAP3 MLOAD SWAP7 PUSH2 0x187F PUSH2 0x100 DUP10 PUSH2 0x3349 JUMP JUMPDEST PUSH1 0x1 DUP1 PUSH1 0xA0 SHL SUB SWAP6 DUP7 DUP1 SWAP3 AND DUP10 MSTORE AND PUSH1 0x20 DUP9 ADD MSTORE DUP9 DUP8 ADD MSTORE PUSH1 0x60 DUP7 ADD MSTORE PUSH1 0x80 DUP6 ADD MSTORE CALLER PUSH1 0xA0 DUP6 ADD MSTORE CALLER PUSH1 0xC0 DUP6 ADD MSTORE AND SWAP1 DUP3 ADD MSTORE CALLER SWAP1 PUSH2 0x4EC4 JUMP JUMPDEST DUP3 CALLVALUE PUSH2 0x6DA JUMPI PUSH1 0x20 CALLDATASIZE PUSH1 0x3 NOT ADD SLT PUSH2 0x6DA JUMPI PUSH2 0x18D3 PUSH2 0x5DD1 JUMP JUMPDEST PUSH1 0x4 CALLDATALOAD PUSH2 0x172 SSTORE DUP1 RETURN JUMPDEST DUP3 DUP5 CALLVALUE PUSH2 0x749 JUMPI DUP2 PUSH1 0x3 NOT CALLDATASIZE ADD SLT PUSH2 0x749 JUMPI PUSH1 0x20 SWAP1 PUSH2 0x1C0 SLOAD SWAP1 MLOAD SWAP1 DUP2 MSTORE RETURN JUMPDEST DUP3 CALLVALUE PUSH2 0x6DA JUMPI PUSH1 0x20 CALLDATASIZE PUSH1 0x3 NOT ADD SLT PUSH2 0x6DA JUMPI PUSH2 0x1917 PUSH2 0x5DD1 JUMP JUMPDEST PUSH1 0x4 CALLDATALOAD PUSH2 0x173 SSTORE DUP1 RETURN JUMPDEST DUP3 DUP5 CALLVALUE PUSH2 0x749 JUMPI DUP2 PUSH1 0x3 NOT CALLDATASIZE ADD SLT PUSH2 0x749 JUMPI PUSH1 0x20 SWAP1 PUSH2 0x166 SLOAD SWAP1 MLOAD SWAP1 DUP2 MSTORE RETURN JUMPDEST DUP3 DUP5 CALLVALUE PUSH2 0x749 JUMPI DUP2 PUSH1 0x3 NOT CALLDATASIZE ADD SLT PUSH2 0x749 JUMPI PUSH1 0x20 SWAP1 PUSH2 0x174 SLOAD SWAP1 MLOAD SWAP1 DUP2 MSTORE RETURN JUMPDEST DUP3 CALLVALUE PUSH2 0x6DA JUMPI PUSH1 0x20 CALLDATASIZE PUSH1 0x3 NOT ADD SLT PUSH2 0x6DA JUMPI PUSH2 0x197B PUSH2 0x5DD1 JUMP JUMPDEST PUSH1 0x4 CALLDATALOAD PUSH2 0x16D SSTORE DUP1 RETURN JUMPDEST DUP3 DUP5 CALLVALUE PUSH2 0x749 JUMPI DUP2 PUSH1 0x3 NOT CALLDATASIZE ADD SLT PUSH2 0x749 JUMPI PUSH1 0x20 SWAP1 PUSH2 0x186 SLOAD SWAP1 MLOAD SWAP1 DUP2 MSTORE RETURN JUMPDEST DUP3 DUP5 CALLVALUE PUSH2 0x749 JUMPI DUP2 PUSH1 0x3 NOT CALLDATASIZE ADD SLT PUSH2 0x749 JUMPI PUSH1 0x20 SWAP1 PUSH2 0x16B SLOAD SWAP1 MLOAD SWAP1 DUP2 MSTORE RETURN JUMPDEST DUP4 DUP4 CALLVALUE PUSH2 0x6DA JUMPI POP PUSH2 0x7AA PUSH2 0x7C7 SWAP3 PUSH2 0x19DF CALLDATASIZE PUSH1 0x4 PUSH2 0x33C8 JUMP JUMPDEST SWAP3 PUSH2 0x19EF DUP9 SWAP4 SWAP3 SWAP4 MLOAD SWAP7 DUP8 PUSH2 0x3349 JUMP JUMPDEST PUSH1 0x1 PUSH1 0x1 PUSH1 0xA0 SHL SUB SWAP5 DUP6 AND DUP7 MSTORE PUSH1 0x20 DUP7 ADD MSTORE DUP7 DUP6 ADD MSTORE PUSH1 0x60 DUP5 ADD MSTORE CALLER PUSH1 0x80 DUP5 ADD DUP2 SWAP1 MSTORE PUSH1 0xA0 DUP5 ADD DUP2 SWAP1 MSTORE SWAP2 AND PUSH1 0xC0 DUP4 ADD MSTORE SWAP1 PUSH2 0x50C7 JUMP JUMPDEST DUP3 CALLVALUE PUSH2 0x6DA JUMPI PUSH1 0x20 CALLDATASIZE PUSH1 0x3 NOT ADD SLT PUSH2 0x6DA JUMPI PUSH2 0x1A40 PUSH2 0x5DD1 JUMP JUMPDEST PUSH1 0x4 CALLDATALOAD PUSH2 0x184 SSTORE DUP1 RETURN JUMPDEST DUP3 CALLVALUE PUSH2 0x6DA JUMPI PUSH1 0x20 CALLDATASIZE PUSH1 0x3 NOT ADD SLT PUSH2 0x6DA JUMPI PUSH1 0x4 CALLDATALOAD PUSH1 0x1 PUSH1 0x1 PUSH1 0xA0 SHL SUB DUP2 AND SWAP1 DUP2 SWAP1 SUB PUSH2 0x6D6 JUMPI PUSH2 0x1A79 PUSH2 0x5DD1 JUMP JUMPDEST PUSH2 0x188 DUP1 SLOAD PUSH1 0x1 PUSH1 0x1 PUSH1 0xA0 SHL SUB NOT AND SWAP1 SWAP2 OR SWAP1 SSTORE DUP1 RETURN JUMPDEST DUP3 CALLVALUE PUSH2 0x6DA JUMPI PUSH1 0x20 CALLDATASIZE PUSH1 0x3 NOT ADD SLT PUSH2 0x6DA JUMPI PUSH2 0x1AAA PUSH2 0x5DD1 JUMP JUMPDEST PUSH1 0x4 CALLDATALOAD PUSH2 0x170 SSTORE DUP1 RETURN JUMPDEST DUP3 DUP5 CALLVALUE PUSH2 0x749 JUMPI DUP2 PUSH1 0x3 NOT CALLDATASIZE ADD SLT PUSH2 0x749 JUMPI PUSH1 0x20 SWAP1 PUSH2 0x184 SLOAD SWAP1 MLOAD SWAP1 DUP2 MSTORE RETURN JUMPDEST DUP3 DUP5 CALLVALUE PUSH2 0x749 JUMPI DUP2 PUSH1 0x3 NOT CALLDATASIZE ADD SLT PUSH2 0x749 JUMPI PUSH1 0x20 SWAP1 PUSH2 0x17B SLOAD SWAP1 MLOAD SWAP1 DUP2 MSTORE RETURN JUMPDEST DUP4 DUP4 CALLVALUE PUSH2 0x6DA JUMPI DUP3 PUSH1 0x3 NOT CALLDATASIZE ADD SLT PUSH2 0x6DA JUMPI POP PUSH1 0x1 PUSH1 0x1 PUSH1 0xA0 SHL SUB PUSH1 0x4 CALLDATALOAD DUP2 DUP2 AND SWAP1 DUP2 SWAP1 SUB PUSH2 0x6D6 JUMPI PUSH1 0x24 CALLDATALOAD SWAP2 DUP1 DUP4 AND DUP1 SWAP4 SUB PUSH2 0x6D6 JUMPI PUSH1 0xA4 CALLDATALOAD SWAP5 DUP2 DUP7 AND DUP1 SWAP7 SUB PUSH2 0x6D6 JUMPI PUSH1 0xC4 CALLDATALOAD SWAP2 DUP3 AND DUP1 SWAP3 SUB PUSH2 0x6D6 JUMPI PUSH2 0x7C7 SWAP6 PUSH2 0x7AA SWAP5 DUP7 MLOAD SWAP5 PUSH2 0x1B5D PUSH2 0x100 DUP8 PUSH2 0x3349 JUMP JUMPDEST DUP6 MSTORE PUSH1 0x20 DUP6 ADD MSTORE PUSH1 0x44 CALLDATALOAD DUP7 DUP6 ADD MSTORE PUSH1 0x64 CALLDATALOAD PUSH1 0x60 DUP6 ADD MSTORE PUSH1 0x84 CALLDATALOAD PUSH1 0x80 DUP6 ADD MSTORE CALLER PUSH1 0xA0 DUP6 ADD MSTORE PUSH1 0xC0 DUP5 ADD MSTORE DUP3 ADD MSTORE CALLER SWAP1 PUSH2 0x4EC4 JUMP JUMPDEST DUP3 CALLVALUE PUSH2 0x6DA JUMPI DUP1 PUSH1 0x3 NOT CALLDATASIZE ADD SLT PUSH2 0x6DA JUMPI PUSH2 0x1BA9 PUSH2 0x5DD1 JUMP JUMPDEST PUSH1 0x1 PUSH1 0xFF NOT PUSH1 0xCA SLOAD AND OR PUSH1 0xCA SSTORE DUP1 RETURN JUMPDEST DUP3 DUP5 CALLVALUE PUSH2 0x749 JUMPI DUP2 PUSH1 0x3 NOT CALLDATASIZE ADD SLT PUSH2 0x749 JUMPI PUSH1 0x20 SWAP1 PUSH2 0x150E PUSH2 0x5C7C JUMP JUMPDEST DUP3 CALLVALUE PUSH2 0x6DA JUMPI PUSH1 0x20 CALLDATASIZE PUSH1 0x3 NOT ADD SLT PUSH2 0x6DA JUMPI PUSH2 0x1BF0 PUSH2 0x5DD1 JUMP JUMPDEST PUSH1 0x4 CALLDATALOAD PUSH2 0x189 SSTORE DUP1 RETURN JUMPDEST DUP3 DUP5 CALLVALUE PUSH2 0x749 JUMPI DUP2 PUSH1 0x3 NOT CALLDATASIZE ADD SLT PUSH2 0x749 JUMPI PUSH2 0x161 SLOAD SWAP1 MLOAD PUSH1 0x1 PUSH1 0x1 PUSH1 0xA0 SHL SUB SWAP1 SWAP2 AND DUP2 MSTORE PUSH1 0x20 SWAP1 RETURN JUMPDEST DUP3 DUP5 CALLVALUE PUSH2 0x749 JUMPI DUP2 PUSH1 0x3 NOT CALLDATASIZE ADD SLT PUSH2 0x749 JUMPI PUSH2 0x165 SLOAD SWAP1 MLOAD PUSH1 0x1 PUSH1 0x1 PUSH1 0xA0 SHL SUB SWAP1 SWAP2 AND DUP2 MSTORE PUSH1 0x20 SWAP1 RETURN JUMPDEST DUP4 DUP4 CALLVALUE PUSH2 0x6DA JUMPI POP PUSH2 0x7AA PUSH2 0x7C7 SWAP3 PUSH2 0x1C68 CALLDATASIZE PUSH1 0x4 PUSH2 0x329E JUMP JUMPDEST SWAP4 SWAP5 SWAP3 PUSH2 0x1C7A DUP10 SWAP4 SWAP3 SWAP4 MLOAD SWAP8 DUP9 PUSH2 0x3349 JUMP JUMPDEST PUSH1 0x1 DUP1 PUSH1 0xA0 SHL SUB SWAP6 DUP7 DUP1 SWAP6 AND DUP9 MSTORE PUSH1 0x20 DUP9 ADD MSTORE DUP9 DUP8 ADD MSTORE PUSH1 0x60 DUP7 ADD MSTORE CALLER PUSH1 0x80 DUP7 ADD MSTORE AND PUSH1 0xA0 DUP5 ADD MSTORE AND PUSH1 0xC0 DUP3 ADD MSTORE CALLER SWAP1 PUSH2 0x5A3B JUMP JUMPDEST DUP3 DUP5 CALLVALUE PUSH2 0x749 JUMPI DUP2 PUSH1 0x3 NOT CALLDATASIZE ADD SLT PUSH2 0x749 JUMPI PUSH1 0x20 SWAP1 PUSH1 0xFF PUSH1 0xCA SLOAD PUSH1 0x8 SHR AND SWAP1 MLOAD SWAP1 ISZERO ISZERO DUP2 MSTORE RETURN JUMPDEST DUP3 DUP5 CALLVALUE PUSH2 0x749 JUMPI DUP2 PUSH1 0x3 NOT CALLDATASIZE ADD SLT PUSH2 0x749 JUMPI PUSH2 0x1CF0 PUSH2 0x5E5E JUMP JUMPDEST PUSH2 0x17F DUP1 SLOAD NUMBER LT PUSH2 0x1ECD JUMPI PUSH2 0x17E SLOAD NUMBER ADD SWAP1 SSTORE PUSH32 0xD3C59BDA47E141A8EC5A33D241B7F71B86E30D359F83A9227D912858B60404FC DUP3 DUP1 LOG1 PUSH2 0x1D2F PUSH2 0x5321 JUMP JUMPDEST PUSH2 0x169 SLOAD DUP3 PUSH2 0x1D3D DUP3 PUSH2 0x3BA4 JUMP JUMPDEST SWAP2 DUP5 JUMPDEST DUP2 DUP2 LT PUSH2 0x1DFF JUMPI POP POP DUP1 PUSH2 0x1DBA JUMPI JUMPDEST SWAP2 DUP1 MLOAD SWAP3 DUP2 DUP5 ADD SWAP1 DUP5 MSTORE PUSH1 0x20 SWAP2 DUP3 DUP6 ADD MSTORE DUP3 MLOAD DUP1 SWAP2 MSTORE DUP2 PUSH1 0x60 DUP6 ADD SWAP4 ADD SWAP2 DUP6 JUMPDEST DUP3 DUP2 LT PUSH2 0x1DA6 JUMPI DUP7 PUSH32 0xAE5116A8119D08673A0F1DFA7546B95DA4BD54BB17FEDA7C61130AC7859152F6 DUP8 DUP8 SUB DUP9 LOG1 PUSH1 0x1 PUSH2 0x12F SSTORE DUP1 RETURN JUMPDEST DUP4 MLOAD DUP6 MSTORE SWAP4 DUP2 ADD SWAP4 SWAP3 DUP2 ADD SWAP3 PUSH1 0x1 ADD PUSH2 0x1D6F JUMP JUMPDEST PUSH2 0x1DD1 PUSH8 0xDE0B6B3A7640000 SWAP2 PUSH2 0x16B SLOAD SWAP1 PUSH2 0x3ACE JUMP JUMPDEST DIV PUSH2 0x163 PUSH2 0x1DE0 DUP3 DUP3 SLOAD PUSH2 0x390F JUMP JUMPDEST SWAP1 SSTORE PUSH2 0x178 SLOAD PUSH2 0x1DFA SWAP1 DUP3 SWAP1 PUSH1 0x1 PUSH1 0x1 PUSH1 0xA0 SHL SUB AND PUSH2 0x5378 JUMP JUMPDEST PUSH2 0x1D4F JUMP JUMPDEST PUSH2 0x1E08 DUP2 PUSH2 0x3CDE JUMP JUMPDEST PUSH2 0x1E12 DUP2 DUP4 PUSH2 0x4A8A JUMP JUMPDEST DUP7 PUSH2 0x180 SWAP2 DUP7 PUSH2 0x1E22 DUP6 DUP6 PUSH2 0x3261 JUMP JUMPDEST SWAP1 SLOAD SWAP1 PUSH1 0x3 SHL SHR SWAP2 DUP4 DUP4 SGT PUSH2 0x1E3F JUMPI JUMPDEST POP POP POP POP POP PUSH1 0x1 ADD PUSH2 0x1D40 JUMP JUMPDEST SWAP5 PUSH2 0x1E84 DUP4 DUP3 SWAP7 SWAP10 PUSH2 0x1E8A SWAP5 PUSH2 0x1E7E DUP6 PUSH2 0x1E71 PUSH2 0x1E77 PUSH2 0x1EA0 SWAP11 PUSH1 0x1 SWAP15 PUSH8 0xDE0B6B3A7640000 SWAP4 DUP5 SWAP2 PUSH2 0x16C SLOAD PUSH2 0x3ACE JUMP JUMPDEST DIV PUSH2 0x3ACE JUMP JUMPDEST DIV SWAP3 PUSH2 0x39B6 JUMP JUMPDEST MSTORE PUSH2 0x39A9 JUMP JUMPDEST SWAP8 PUSH2 0x3261 JUMP JUMPDEST DUP2 SWAP4 SWAP2 SLOAD SWAP1 PUSH1 0x3 SHL SWAP2 DUP3 SHL SWAP2 PUSH0 NOT SWAP1 SHL NOT AND OR SWAP1 JUMP JUMPDEST SWAP1 SSTORE PUSH2 0x1EC3 PUSH2 0x1EAF DUP3 DUP8 PUSH2 0x39B6 JUMP JUMPDEST MLOAD DUP9 DUP5 DUP1 PUSH1 0xA0 SHL SUB PUSH2 0x179 SLOAD AND SWAP2 DUP5 PUSH2 0x49C1 JUMP JUMPDEST SWAP1 DUP7 DUP9 DUP7 DUP2 PUSH2 0x1E32 JUMP JUMPDEST DUP2 MLOAD PUSH4 0x101B6859 PUSH1 0xE0 SHL DUP2 MSTORE PUSH1 0x4 SWAP1 REVERT JUMPDEST DUP3 DUP5 CALLVALUE PUSH2 0x749 JUMPI DUP2 PUSH1 0x3 NOT CALLDATASIZE ADD SLT PUSH2 0x749 JUMPI PUSH1 0x20 SWAP1 PUSH2 0x187 SLOAD SWAP1 MLOAD SWAP1 DUP2 MSTORE RETURN JUMPDEST DUP3 CALLVALUE PUSH2 0x6DA JUMPI PUSH1 0x20 CALLDATASIZE PUSH1 0x3 NOT ADD SLT PUSH2 0x6DA JUMPI PUSH2 0x1F18 PUSH2 0x5DD1 JUMP JUMPDEST PUSH1 0x4 CALLDATALOAD PUSH2 0x175 SSTORE DUP1 RETURN JUMPDEST DUP3 CALLVALUE PUSH2 0x6DA JUMPI PUSH1 0x20 CALLDATASIZE PUSH1 0x3 NOT ADD SLT PUSH2 0x6DA JUMPI PUSH1 0x4 CALLDATALOAD PUSH1 0x1 PUSH1 0x1 PUSH1 0xA0 SHL SUB DUP2 AND DUP2 SUB PUSH2 0x6D6 JUMPI PUSH2 0xE8E SWAP1 PUSH2 0x1F53 PUSH2 0x5DD1 JUMP JUMPDEST PUSH2 0x1F3 DUP1 SLOAD PUSH1 0x1 PUSH1 0x1 PUSH1 0xA0 SHL SUB NOT AND PUSH1 0x1 PUSH1 0x1 PUSH1 0xA0 SHL SUB SWAP1 SWAP3 AND SWAP2 SWAP1 SWAP2 OR SWAP1 SSTORE JUMP JUMPDEST POP POP CALLVALUE PUSH2 0x6DA JUMPI PUSH2 0x6C9 SWAP1 PUSH2 0x1F8B CALLDATASIZE PUSH1 0x4 PUSH2 0x339B JUMP JUMPDEST SWAP1 DUP7 SWAP5 SWAP4 SWAP3 SWAP5 MLOAD SWAP5 PUSH2 0x1F9E PUSH1 0xC0 DUP8 PUSH2 0x3349 JUMP JUMPDEST PUSH1 0x1 DUP1 PUSH1 0xA0 SHL SUB DUP1 SWAP5 AND DUP7 MSTORE PUSH1 0x20 DUP7 ADD MSTORE DUP7 DUP6 ADD MSTORE CALLER PUSH1 0x60 DUP6 ADD MSTORE AND PUSH1 0x80 DUP4 ADD MSTORE PUSH1 0xA0 DUP3 ADD MSTORE CALLER SWAP1 PUSH2 0x57AD JUMP JUMPDEST POP POP CALLVALUE PUSH2 0x6DA JUMPI DUP1 PUSH1 0x3 NOT CALLDATASIZE ADD SLT PUSH2 0x6DA JUMPI POP PUSH32 0x0 PUSH1 0x1 PUSH1 0x1 PUSH1 0xA0 SHL SUB AND ADDRESS SUB PUSH2 0x2037 JUMPI PUSH1 0x20 SWAP1 MLOAD PUSH32 0x360894A13BA1A3210667C828492DB98DCA3E2076CC3735A920A3CA505D382BBC DUP2 MSTORE RETURN JUMPDEST MLOAD PUSH3 0x461BCD PUSH1 0xE5 SHL DUP2 MSTORE PUSH1 0x20 PUSH1 0x4 DUP3 ADD MSTORE PUSH1 0x38 PUSH1 0x24 DUP3 ADD MSTORE PUSH32 0x555550535570677261646561626C653A206D757374206E6F742062652063616C PUSH1 0x44 DUP3 ADD MSTORE PUSH32 0x6C6564207468726F7567682064656C656761746563616C6C0000000000000000 PUSH1 0x64 DUP3 ADD MSTORE PUSH1 0x84 SWAP1 REVERT JUMPDEST DUP3 CALLVALUE PUSH2 0x6DA JUMPI DUP1 PUSH1 0x3 NOT CALLDATASIZE ADD SLT PUSH2 0x6DA JUMPI PUSH2 0x20B9 PUSH2 0x5DD1 JUMP JUMPDEST PUSH1 0xFF NOT PUSH1 0xCA SLOAD AND PUSH1 0xCA SSTORE DUP1 RETURN JUMPDEST DUP3 DUP5 DUP1 PUSH1 0x3 NOT CALLDATASIZE ADD SLT PUSH2 0x749 JUMPI PUSH1 0x4 CALLDATALOAD SWAP1 PUSH1 0x1 PUSH1 0x1 PUSH1 0xA0 SHL SUB SWAP1 DUP2 DUP4 AND DUP4 SUB PUSH2 0x6D6 JUMPI DUP4 SWAP3 PUSH1 0x24 CALLDATALOAD SWAP3 PUSH8 0xFFFFFFFFFFFFFFFF DUP5 GT PUSH2 0x21B6 JUMPI CALLDATASIZE PUSH1 0x23 DUP6 ADD SLT ISZERO PUSH2 0x21B6 JUMPI DUP4 PUSH1 0x4 ADD CALLDATALOAD SWAP1 PUSH2 0x2124 PUSH2 0x211B DUP4 PUSH2 0x337F JUMP JUMPDEST SWAP5 MLOAD SWAP5 DUP6 PUSH2 0x3349 JUMP JUMPDEST DUP2 DUP5 MSTORE CALLDATASIZE PUSH1 0x24 DUP4 DUP8 ADD ADD GT PUSH2 0x21B2 JUMPI PUSH2 0xE8E SWAP6 PUSH1 0x20 DUP4 PUSH2 0x21A5 SWAP5 PUSH1 0x24 PUSH1 0x1 SWAP10 ADD DUP4 DUP10 ADD CALLDATACOPY DUP7 ADD ADD MSTORE DUP1 PUSH32 0x0 AND SWAP1 PUSH2 0x217C DUP3 ADDRESS EQ ISZERO PUSH2 0x346C JUMP JUMPDEST PUSH32 0x360894A13BA1A3210667C828492DB98DCA3E2076CC3735A920A3CA505D382BBC SLOAD AND EQ PUSH2 0x34CD JUMP JUMPDEST PUSH2 0x21AD PUSH2 0x5DD1 JUMP JUMPDEST PUSH2 0x352E JUMP JUMPDEST DUP6 DUP1 REVERT JUMPDEST DUP5 DUP1 REVERT JUMPDEST DUP3 DUP5 CALLVALUE PUSH2 0x749 JUMPI DUP2 PUSH1 0x3 NOT CALLDATASIZE ADD SLT PUSH2 0x749 JUMPI PUSH1 0x20 SWAP1 PUSH2 0x16D SLOAD SWAP1 MLOAD SWAP1 DUP2 MSTORE RETURN JUMPDEST DUP3 DUP5 CALLVALUE PUSH2 0x749 JUMPI DUP2 PUSH1 0x3 NOT CALLDATASIZE ADD SLT PUSH2 0x749 JUMPI PUSH2 0x179 SLOAD SWAP1 MLOAD PUSH1 0x1 PUSH1 0x1 PUSH1 0xA0 SHL SUB SWAP1 SWAP2 AND DUP2 MSTORE PUSH1 0x20 SWAP1 RETURN JUMPDEST DUP3 DUP5 CALLVALUE PUSH2 0x749 JUMPI DUP2 PUSH1 0x3 NOT CALLDATASIZE ADD SLT PUSH2 0x749 JUMPI PUSH1 0x20 SWAP1 PUSH2 0x17E SLOAD SWAP1 MLOAD SWAP1 DUP2 MSTORE RETURN JUMPDEST DUP3 DUP5 CALLVALUE PUSH2 0x749 JUMPI PUSH1 0x20 CALLDATASIZE PUSH1 0x3 NOT ADD SLT PUSH2 0x749 JUMPI PUSH1 0x4 CALLDATALOAD PUSH2 0x169 DUP1 SLOAD DUP3 LT ISZERO PUSH2 0xB22 JUMPI SWAP1 PUSH2 0x2250 SWAP2 PUSH2 0x3330 JUMP JUMPDEST POP DUP1 SLOAD PUSH1 0x1 SWAP1 SWAP2 ADD SLOAD DUP3 MLOAD SWAP2 DUP3 MSTORE PUSH1 0x1 PUSH1 0x1 PUSH1 0xA0 SHL SUB AND PUSH1 0x20 DUP3 ADD MSTORE RETURN JUMPDEST POP POP CALLVALUE PUSH2 0x6DA JUMPI PUSH1 0x60 CALLDATASIZE PUSH1 0x3 NOT ADD SLT PUSH2 0x6D6 JUMPI PUSH1 0x4 CALLDATALOAD PUSH1 0x1 PUSH1 0x1 PUSH1 0xA0 SHL SUB DUP2 AND SWAP1 DUP2 SWAP1 SUB PUSH2 0x6D6 JUMPI PUSH2 0x6C9 SWAP2 DUP4 MLOAD SWAP2 PUSH2 0x22A8 PUSH1 0xC0 DUP5 PUSH2 0x3349 JUMP JUMPDEST DUP3 MSTORE PUSH1 0x24 CALLDATALOAD PUSH1 0x20 DUP4 ADD MSTORE PUSH1 0x44 CALLDATALOAD DUP5 DUP4 ADD MSTORE CALLER PUSH1 0x60 DUP4 ADD MSTORE CALLER PUSH1 0x80 DUP4 ADD MSTORE PUSH1 0xA0 DUP3 ADD MSTORE PUSH2 0x4754 JUMP JUMPDEST POP POP CALLVALUE PUSH2 0x6DA JUMPI POP PUSH1 0x60 CALLDATASIZE PUSH1 0x3 NOT ADD SLT PUSH2 0x6D6 JUMPI PUSH1 0x44 CALLDATALOAD PUSH1 0x1 PUSH1 0x1 PUSH1 0xA0 SHL SUB DUP2 AND SWAP1 DUP2 SWAP1 SUB PUSH2 0x6D6 JUMPI DUP2 MLOAD PUSH2 0x6C9 SWAP2 PUSH2 0x1447 PUSH1 0xA0 DUP4 PUSH2 0x3349 JUMP JUMPDEST POP POP CALLVALUE PUSH2 0x6DA JUMPI PUSH1 0x60 CALLDATASIZE PUSH1 0x3 NOT ADD SLT PUSH2 0x6D6 JUMPI PUSH1 0x4 CALLDATALOAD PUSH1 0x1 PUSH1 0x1 PUSH1 0xA0 SHL SUB DUP2 AND SWAP1 DUP2 SWAP1 SUB PUSH2 0x6D6 JUMPI PUSH2 0x6C9 SWAP2 DUP4 MLOAD SWAP2 PUSH2 0x2343 PUSH1 0xC0 DUP5 PUSH2 0x3349 JUMP JUMPDEST DUP3 MSTORE PUSH1 0x24 CALLDATALOAD PUSH1 0x20 DUP4 ADD MSTORE PUSH1 0x44 CALLDATALOAD DUP5 DUP4 ADD MSTORE CALLER PUSH1 0x60 DUP4 ADD MSTORE CALLER PUSH1 0x80 DUP4 ADD MSTORE PUSH1 0xA0 DUP3 ADD MSTORE CALLER SWAP1 PUSH2 0x57AD JUMP JUMPDEST DUP3 DUP5 CALLVALUE PUSH2 0x749 JUMPI PUSH1 0x60 CALLDATASIZE PUSH1 0x3 NOT ADD SLT PUSH2 0x6D6 JUMPI PUSH1 0x4 CALLDATALOAD PUSH1 0x1 PUSH1 0x1 PUSH1 0xA0 SHL SUB DUP2 AND SWAP3 SWAP1 DUP4 SWAP1 SUB PUSH2 0x6D6 JUMPI PUSH2 0x7C7 SWAP3 PUSH2 0x7AA SWAP2 DUP4 MLOAD SWAP2 PUSH2 0x23AB PUSH1 0xC0 DUP5 PUSH2 0x3349 JUMP JUMPDEST DUP3 MSTORE PUSH1 0x24 CALLDATALOAD PUSH1 0x20 DUP4 ADD MSTORE PUSH1 0x44 CALLDATALOAD DUP5 DUP4 ADD MSTORE CALLER PUSH1 0x60 DUP4 ADD MSTORE CALLER PUSH1 0x80 DUP4 ADD MSTORE PUSH1 0xA0 DUP3 ADD MSTORE PUSH2 0x4D0F JUMP JUMPDEST POP POP CALLVALUE PUSH2 0x6DA JUMPI PUSH1 0x60 CALLDATASIZE PUSH1 0x3 NOT ADD SLT PUSH2 0x6D6 JUMPI PUSH1 0x44 CALLDATALOAD PUSH1 0x1 PUSH1 0x1 PUSH1 0xA0 SHL SUB DUP2 AND SWAP1 DUP2 SWAP1 SUB PUSH2 0x6D6 JUMPI PUSH2 0x6C9 SWAP2 DUP4 MLOAD SWAP2 PUSH2 0x240C PUSH1 0xA0 DUP5 PUSH2 0x3349 JUMP JUMPDEST PUSH1 0x4 CALLDATALOAD DUP4 MSTORE PUSH1 0x24 CALLDATALOAD PUSH1 0x20 DUP5 ADD MSTORE CALLER DUP6 DUP5 ADD MSTORE PUSH1 0x60 DUP4 ADD MSTORE PUSH1 0x80 DUP3 ADD MSTORE PUSH2 0x400D JUMP JUMPDEST DUP3 DUP5 CALLVALUE PUSH2 0x749 JUMPI DUP2 PUSH1 0x3 NOT CALLDATASIZE ADD SLT PUSH2 0x749 JUMPI PUSH1 0x20 SWAP1 PUSH2 0x170 SLOAD SWAP1 MLOAD SWAP1 DUP2 MSTORE RETURN JUMPDEST DUP3 DUP5 CALLVALUE PUSH2 0x749 JUMPI DUP2 PUSH1 0x3 NOT CALLDATASIZE ADD SLT PUSH2 0x749 JUMPI PUSH1 0x20 SWAP1 PUSH2 0x8CC PUSH2 0x247E PUSH2 0x248E PUSH2 0x2488 PUSH2 0x2476 PUSH2 0x5C7C JUMP JUMPDEST SWAP4 SWAP1 SWAP4 PUSH2 0x39CA JUMP JUMPDEST DUP2 DUP2 SWAP4 SWAP3 SWAP6 PUSH2 0x4BC6 JUMP JUMPDEST SWAP3 PUSH2 0x4484 JUMP JUMPDEST SWAP1 PUSH2 0x4B1C JUMP JUMPDEST DUP3 DUP5 CALLVALUE PUSH2 0x749 JUMPI DUP2 PUSH1 0x3 NOT CALLDATASIZE ADD SLT PUSH2 0x749 JUMPI PUSH1 0xCA SLOAD PUSH1 0xFF DUP2 PUSH1 0x8 SHR AND ISZERO PUSH2 0x24FE JUMPI PUSH1 0x10 DUP2 SWAP1 SHR PUSH1 0x1 PUSH1 0x1 PUSH1 0xA0 SHL SUB AND CALLER SUB PUSH2 0x16DB JUMPI PUSH2 0xFF00 NOT AND PUSH1 0xCA SSTORE MLOAD CALLER DUP2 MSTORE PUSH32 0x5DB9EE0A495BF2E6FF9C91A7834C1BA4FDD244A5E8AA4E537BD38AEAE4B073AA SWAP1 PUSH1 0x20 SWAP1 LOG1 DUP1 RETURN JUMPDEST DUP2 MLOAD PUSH4 0x7C7FD079 PUSH1 0xE0 SHL DUP2 MSTORE PUSH1 0x4 SWAP1 REVERT JUMPDEST POP POP CALLVALUE PUSH2 0x6DA JUMPI POP PUSH2 0x6C9 PUSH2 0x2525 CALLDATASIZE PUSH1 0x4 PUSH2 0x330A JUMP JUMPDEST SWAP1 SWAP2 DUP6 MLOAD SWAP4 PUSH2 0x2535 PUSH1 0xA0 DUP7 PUSH2 0x3349 JUMP JUMPDEST DUP5 MSTORE PUSH1 0x20 DUP5 ADD MSTORE CALLER DUP6 DUP5 ADD DUP2 SWAP1 MSTORE PUSH1 0x1 PUSH1 0x1 PUSH1 0xA0 SHL SUB SWAP3 DUP4 AND PUSH1 0x60 DUP6 ADD MSTORE SWAP2 AND PUSH1 0x80 DUP4 ADD MSTORE SWAP1 PUSH2 0x54F0 JUMP JUMPDEST DUP3 CALLVALUE PUSH2 0x6DA JUMPI PUSH1 0x20 CALLDATASIZE PUSH1 0x3 NOT ADD SLT PUSH2 0x6DA JUMPI PUSH2 0x257A PUSH2 0x5DD1 JUMP JUMPDEST PUSH1 0x4 CALLDATALOAD PUSH2 0x1C0 SSTORE DUP1 RETURN JUMPDEST DUP3 DUP5 CALLVALUE PUSH2 0x749 JUMPI PUSH1 0x20 CALLDATASIZE PUSH1 0x3 NOT ADD SLT PUSH2 0x749 JUMPI PUSH1 0x4 CALLDATALOAD SWAP2 PUSH2 0x16A SWAP1 DUP2 SLOAD DUP5 LT ISZERO PUSH2 0x6DA JUMPI POP PUSH1 0x20 SWAP3 PUSH2 0x181D SWAP2 PUSH2 0x3261 JUMP JUMPDEST DUP3 DUP5 CALLVALUE PUSH2 0x749 JUMPI PUSH1 0x20 CALLDATASIZE PUSH1 0x3 NOT ADD SLT PUSH2 0x749 JUMPI PUSH1 0x4 CALLDATALOAD SWAP1 PUSH1 0x1 PUSH1 0x1 PUSH1 0xA0 SHL SUB SWAP1 DUP2 DUP4 AND DUP4 SUB PUSH2 0x6D6 JUMPI PUSH2 0xE8E SWAP3 PUSH2 0x2617 DUP4 DUP7 SWAP5 PUSH32 0x0 AND SWAP1 PUSH2 0x217C DUP3 ADDRESS EQ ISZERO PUSH2 0x346C JUMP JUMPDEST PUSH2 0x261F PUSH2 0x5DD1 JUMP JUMPDEST PUSH2 0x2634 PUSH2 0x262B DUP5 PUSH2 0x337F JUMP JUMPDEST SWAP3 MLOAD SWAP3 DUP4 PUSH2 0x3349 JUMP JUMPDEST DUP3 DUP3 MSTORE PUSH1 0x1F NOT PUSH2 0x2643 DUP5 PUSH2 0x337F JUMP JUMPDEST ADD CALLDATASIZE PUSH1 0x20 DUP5 ADD CALLDATACOPY PUSH2 0x352E JUMP JUMPDEST DUP4 SWAP2 POP CALLVALUE PUSH2 0x7CB JUMPI PUSH2 0x7AA SWAP1 PUSH2 0x7C7 SWAP4 PUSH2 0x266A CALLDATASIZE PUSH1 0x4 PUSH2 0x32E1 JUMP JUMPDEST SWAP3 PUSH2 0x267A DUP9 SWAP4 SWAP3 SWAP4 MLOAD SWAP7 DUP8 PUSH2 0x3349 JUMP JUMPDEST PUSH1 0x1 DUP1 PUSH1 0xA0 SHL SUB AND DUP6 MSTORE PUSH1 0x20 DUP6 ADD MSTORE DUP6 DUP5 ADD MSTORE PUSH1 0x60 DUP4 ADD MSTORE CALLER PUSH1 0x80 DUP4 ADD MSTORE CALLER PUSH1 0xA0 DUP4 ADD MSTORE PUSH1 0xC0 DUP3 ADD MSTORE CALLER SWAP1 PUSH2 0x5A3B JUMP JUMPDEST DUP3 DUP5 CALLVALUE PUSH2 0x749 JUMPI DUP2 PUSH1 0x3 NOT CALLDATASIZE ADD SLT PUSH2 0x749 JUMPI PUSH2 0x26C4 PUSH2 0x5E5E JUMP JUMPDEST PUSH2 0x17D DUP1 SLOAD PUSH1 0xFF DUP2 AND DUP1 PUSH2 0x278F JUMPI JUMPDEST DUP1 PUSH2 0x2775 JUMPI JUMPDEST PUSH2 0x26E1 JUMPI DUP4 DUP1 RETURN JUMPDEST PUSH2 0xFF00 NOT AND PUSH2 0x100 OR SWAP1 SSTORE DUP1 MLOAD SWAP1 DUP3 SWAP1 PUSH32 0x8B77276C97A5709F0D6DB52329848A254EB760CE8BE80D281799F633BDB69E83 DUP3 DUP1 LOG1 PUSH2 0x165 SLOAD PUSH1 0x1 PUSH1 0x1 PUSH1 0xA0 SHL SUB AND DUP1 EXTCODESIZE ISZERO PUSH2 0x7CB JUMPI DUP4 PUSH1 0x4 DUP2 DUP6 DUP1 SWAP5 PUSH4 0x8456CB59 PUSH1 0xE0 SHL DUP4 MSTORE GAS CALL SWAP1 DUP2 ISZERO PUSH2 0x276A JUMPI POP PUSH2 0x275A JUMPI JUMPDEST POP POP PUSH2 0x2753 PUSH2 0x3BD6 JUMP JUMPDEST DUP2 DUP1 DUP1 DUP4 DUP1 RETURN JUMPDEST PUSH2 0x2763 SWAP2 PUSH2 0x3349 JUMP JUMPDEST DUP2 DUP2 PUSH2 0x2749 JUMP JUMPDEST MLOAD SWAP2 RETURNDATASIZE SWAP2 POP DUP3 RETURNDATACOPY RETURNDATASIZE SWAP1 REVERT JUMPDEST POP PUSH2 0x2784 PUSH2 0x1411 PUSH2 0xCF0 PUSH2 0x3DB1 JUMP JUMPDEST PUSH2 0x17C SLOAD LT ISZERO PUSH2 0x26D9 JUMP JUMPDEST POP PUSH1 0xFF DUP2 PUSH1 0x8 SHR AND ISZERO PUSH2 0x26D3 JUMP JUMPDEST DUP3 DUP5 CALLVALUE PUSH2 0x749 JUMPI DUP2 PUSH1 0x3 NOT CALLDATASIZE ADD SLT PUSH2 0x749 JUMPI PUSH1 0x20 SWAP1 PUSH2 0x171 SLOAD SWAP1 MLOAD SWAP1 DUP2 MSTORE RETURN JUMPDEST DUP3 DUP5 CALLVALUE PUSH2 0x749 JUMPI DUP2 PUSH1 0x3 NOT CALLDATASIZE ADD SLT PUSH2 0x749 JUMPI PUSH1 0x20 SWAP1 PUSH2 0x175 SLOAD SWAP1 MLOAD SWAP1 DUP2 MSTORE RETURN JUMPDEST DUP3 CALLVALUE PUSH2 0x6DA JUMPI PUSH1 0x20 CALLDATASIZE PUSH1 0x3 NOT ADD SLT PUSH2 0x6DA JUMPI PUSH1 0x4 CALLDATALOAD PUSH1 0x1 PUSH1 0x1 PUSH1 0xA0 SHL SUB DUP2 AND DUP2 SUB PUSH2 0x749 JUMPI PUSH2 0x280A PUSH2 0x5DD1 JUMP JUMPDEST PUSH1 0xCA DUP1 SLOAD PUSH3 0x10000 PUSH1 0x1 PUSH1 0xB0 SHL SUB NOT AND PUSH1 0x10 SWAP3 SWAP1 SWAP3 SHL PUSH3 0x10000 PUSH1 0x1 PUSH1 0xB0 SHL SUB AND SWAP2 SWAP1 SWAP2 OR SWAP1 SSTORE DUP1 RETURN JUMPDEST DUP3 CALLVALUE PUSH2 0x6DA JUMPI PUSH1 0x20 CALLDATASIZE PUSH1 0x3 NOT ADD SLT PUSH2 0x6DA JUMPI PUSH2 0x284E PUSH2 0x5DD1 JUMP JUMPDEST PUSH1 0x4 CALLDATALOAD PUSH2 0x17C SSTORE DUP1 RETURN JUMPDEST DUP4 DUP4 CALLVALUE PUSH2 0x6DA JUMPI POP PUSH2 0x7AA PUSH2 0x7C7 SWAP3 PUSH2 0x2872 CALLDATASIZE PUSH1 0x4 PUSH2 0x329E JUMP JUMPDEST SWAP4 SWAP5 SWAP3 PUSH2 0x2884 DUP10 SWAP4 SWAP3 SWAP4 MLOAD SWAP8 DUP9 PUSH2 0x3349 JUMP JUMPDEST PUSH1 0x1 DUP1 PUSH1 0xA0 SHL SUB SWAP6 DUP7 DUP1 SWAP6 AND DUP9 MSTORE PUSH1 0x20 DUP9 ADD MSTORE DUP9 DUP8 ADD MSTORE PUSH1 0x60 DUP7 ADD MSTORE CALLER PUSH1 0x80 DUP7 ADD MSTORE AND PUSH1 0xA0 DUP5 ADD MSTORE AND PUSH1 0xC0 DUP3 ADD MSTORE CALLER SWAP1 PUSH2 0x524C JUMP JUMPDEST DUP3 DUP5 CALLVALUE PUSH2 0x749 JUMPI DUP2 PUSH1 0x3 NOT CALLDATASIZE ADD SLT PUSH2 0x749 JUMPI PUSH1 0x20 SWAP1 PUSH2 0x172 SLOAD SWAP1 MLOAD SWAP1 DUP2 MSTORE RETURN JUMPDEST DUP3 CALLVALUE PUSH2 0x6DA JUMPI PUSH1 0x20 CALLDATASIZE PUSH1 0x3 NOT ADD SLT PUSH2 0x6DA JUMPI PUSH1 0x4 CALLDATALOAD PUSH1 0x1 PUSH1 0x1 PUSH1 0xA0 SHL SUB DUP2 AND SWAP1 DUP2 SWAP1 SUB PUSH2 0x749 JUMPI PUSH2 0x2908 PUSH2 0x5DD1 JUMP JUMPDEST PUSH2 0x179 DUP1 SLOAD PUSH1 0x1 PUSH1 0x1 PUSH1 0xA0 SHL SUB NOT AND SWAP1 SWAP2 OR SWAP1 SSTORE DUP1 RETURN JUMPDEST DUP3 DUP5 CALLVALUE PUSH2 0x749 JUMPI DUP2 PUSH1 0x3 NOT CALLDATASIZE ADD SLT PUSH2 0x749 JUMPI PUSH2 0x28B SLOAD SWAP1 MLOAD PUSH1 0x1 PUSH1 0x1 PUSH1 0xA0 SHL SUB SWAP1 SWAP2 AND DUP2 MSTORE PUSH1 0x20 SWAP1 RETURN JUMPDEST DUP3 DUP5 CALLVALUE PUSH2 0x749 JUMPI PUSH1 0x20 CALLDATASIZE PUSH1 0x3 NOT ADD SLT PUSH2 0x749 JUMPI PUSH1 0x4 CALLDATALOAD PUSH1 0x1 PUSH1 0x1 PUSH1 0xA0 SHL SUB DUP2 AND SWAP1 DUP2 SWAP1 SUB PUSH2 0x7CB JUMPI DUP3 DUP3 SWAP2 PUSH1 0x20 SWAP5 MSTORE PUSH2 0x176 DUP5 MSTORE KECCAK256 SLOAD SWAP1 MLOAD SWAP1 DUP2 MSTORE RETURN JUMPDEST DUP3 DUP5 CALLVALUE PUSH2 0x749 JUMPI DUP2 PUSH1 0x3 NOT CALLDATASIZE ADD SLT PUSH2 0x749 JUMPI PUSH1 0x20 SWAP1 PUSH1 0xFF PUSH2 0x17D SLOAD PUSH1 0x8 SHR AND SWAP1 MLOAD SWAP1 ISZERO ISZERO DUP2 MSTORE RETURN JUMPDEST DUP3 CALLVALUE PUSH2 0x6DA JUMPI PUSH1 0x20 CALLDATASIZE PUSH1 0x3 NOT ADD SLT PUSH2 0x6DA JUMPI PUSH2 0x29C8 PUSH2 0x5DD1 JUMP JUMPDEST PUSH1 0x4 CALLDATALOAD PUSH2 0x174 SSTORE DUP1 RETURN JUMPDEST DUP3 CALLVALUE PUSH2 0x6DA JUMPI PUSH1 0x20 CALLDATASIZE PUSH1 0x3 NOT ADD SLT PUSH2 0x6DA JUMPI PUSH1 0x4 CALLDATALOAD DUP1 ISZERO ISZERO DUP1 SWAP2 SUB PUSH2 0x749 JUMPI PUSH2 0x29F9 PUSH2 0x5DD1 JUMP JUMPDEST PUSH2 0x17D SWAP1 PUSH1 0xFF DUP1 NOT DUP4 SLOAD AND SWAP2 AND OR SWAP1 SSTORE DUP1 RETURN JUMPDEST DUP3 DUP5 CALLVALUE PUSH2 0x749 JUMPI DUP2 PUSH1 0x3 NOT CALLDATASIZE ADD SLT PUSH2 0x749 JUMPI PUSH1 0x20 SWAP1 PUSH2 0x8CC PUSH2 0x2A2F PUSH2 0xCF0 PUSH2 0x3DB1 JUMP JUMPDEST SWAP1 PUSH2 0x4484 JUMP JUMPDEST DUP3 DUP5 CALLVALUE PUSH2 0x749 JUMPI DUP2 PUSH1 0x3 NOT CALLDATASIZE ADD SLT PUSH2 0x749 JUMPI PUSH1 0x20 SWAP1 PUSH2 0x17F SLOAD SWAP1 MLOAD SWAP1 DUP2 MSTORE RETURN JUMPDEST DUP3 DUP5 CALLVALUE PUSH2 0x749 JUMPI PUSH1 0x20 CALLDATASIZE PUSH1 0x3 NOT ADD SLT PUSH2 0x749 JUMPI PUSH1 0x4 CALLDATALOAD SWAP2 PUSH1 0x1 PUSH1 0x1 PUSH1 0xA0 SHL SUB DUP4 AND DUP4 SUB PUSH2 0x6DA JUMPI POP PUSH2 0x8CC PUSH1 0x20 SWAP3 CALLER SWAP1 CALLER SWAP1 PUSH2 0x53E5 JUMP JUMPDEST DUP4 DUP4 CALLVALUE PUSH2 0x6DA JUMPI POP PUSH2 0x7AA PUSH2 0x7C7 SWAP3 PUSH2 0x2AA6 CALLDATASIZE PUSH1 0x4 PUSH2 0x329E JUMP JUMPDEST SWAP4 SWAP5 SWAP3 PUSH2 0x2AB8 DUP10 SWAP4 SWAP3 SWAP4 MLOAD SWAP8 DUP9 PUSH2 0x3349 JUMP JUMPDEST PUSH1 0x1 DUP1 PUSH1 0xA0 SHL SUB SWAP6 DUP7 DUP1 SWAP6 AND DUP9 MSTORE PUSH1 0x20 DUP9 ADD MSTORE DUP9 DUP8 ADD MSTORE PUSH1 0x60 DUP7 ADD MSTORE CALLER PUSH1 0x80 DUP7 ADD MSTORE AND PUSH1 0xA0 DUP5 ADD MSTORE AND PUSH1 0xC0 DUP3 ADD MSTORE CALLER SWAP1 PUSH2 0x50C7 JUMP JUMPDEST DUP3 CALLVALUE PUSH2 0x6DA JUMPI PUSH1 0x20 CALLDATASIZE PUSH1 0x3 NOT ADD SLT PUSH2 0x6DA JUMPI PUSH1 0x4 CALLDATALOAD PUSH1 0x1 PUSH1 0x1 PUSH1 0xA0 SHL SUB DUP2 AND SWAP1 DUP2 SWAP1 SUB PUSH2 0x749 JUMPI PUSH2 0x2B1C PUSH2 0x5DD1 JUMP JUMPDEST PUSH2 0x162 DUP1 SLOAD PUSH1 0x1 PUSH1 0x1 PUSH1 0xA0 SHL SUB NOT AND SWAP1 SWAP2 OR SWAP1 SSTORE DUP1 RETURN JUMPDEST DUP3 CALLVALUE PUSH2 0x6DA JUMPI PUSH1 0x20 CALLDATASIZE PUSH1 0x3 NOT ADD SLT PUSH2 0x6DA JUMPI PUSH2 0x2B4D PUSH2 0x5DD1 JUMP JUMPDEST PUSH1 0x4 CALLDATALOAD PUSH2 0x171 SSTORE DUP1 RETURN JUMPDEST DUP3 DUP5 CALLVALUE PUSH2 0x749 JUMPI DUP2 PUSH1 0x3 NOT CALLDATASIZE ADD SLT PUSH2 0x749 JUMPI PUSH1 0x20 SWAP1 PUSH2 0x189 SLOAD SWAP1 MLOAD SWAP1 DUP2 MSTORE RETURN JUMPDEST DUP3 CALLVALUE PUSH2 0x6DA JUMPI PUSH1 0x20 CALLDATASIZE PUSH1 0x3 NOT ADD SLT PUSH2 0x6DA JUMPI PUSH1 0x4 CALLDATALOAD PUSH1 0x1 PUSH1 0x1 PUSH1 0xA0 SHL SUB DUP2 AND SWAP1 DUP2 SWAP1 SUB PUSH2 0x749 JUMPI PUSH2 0x2BA6 PUSH2 0x5DD1 JUMP JUMPDEST PUSH2 0x178 DUP1 SLOAD PUSH1 0x1 PUSH1 0x1 PUSH1 0xA0 SHL SUB NOT AND SWAP1 SWAP2 OR SWAP1 SSTORE DUP1 RETURN JUMPDEST DUP3 DUP5 CALLVALUE PUSH2 0x749 JUMPI DUP2 PUSH1 0x3 NOT CALLDATASIZE ADD SLT PUSH2 0x749 JUMPI PUSH1 0x20 SWAP1 PUSH2 0x1BF SLOAD SWAP1 MLOAD SWAP1 DUP2 MSTORE RETURN JUMPDEST DUP3 DUP5 CALLVALUE PUSH2 0x749 JUMPI DUP2 PUSH1 0x3 NOT CALLDATASIZE ADD SLT PUSH2 0x749 JUMPI PUSH1 0x97 SLOAD SWAP1 MLOAD PUSH1 0x1 PUSH1 0x1 PUSH1 0xA0 SHL SUB SWAP1 SWAP2 AND DUP2 MSTORE PUSH1 0x20 SWAP1 RETURN JUMPDEST POP POP CALLVALUE PUSH2 0x6DA JUMPI DUP2 PUSH1 0x3 NOT CALLDATASIZE ADD SLT PUSH2 0x6DA JUMPI DUP2 MLOAD PUSH2 0x6C9 SWAP2 PUSH2 0x6A7 PUSH1 0xA0 DUP4 PUSH2 0x3349 JUMP JUMPDEST DUP3 DUP5 CALLVALUE PUSH2 0x749 JUMPI PUSH2 0x3E0 CALLDATASIZE PUSH1 0x3 NOT ADD SLT PUSH2 0x749 JUMPI DUP2 SLOAD PUSH1 0xFF DUP2 PUSH1 0x8 SHR AND ISZERO SWAP1 DUP2 DUP1 SWAP3 PUSH2 0x311B JUMPI JUMPDEST DUP1 ISZERO PUSH2 0x3104 JUMPI JUMPDEST ISZERO PUSH2 0x30A9 JUMPI PUSH1 0xFF NOT DUP2 AND PUSH1 0x1 OR DUP5 SSTORE DUP2 PUSH2 0x3098 JUMPI JUMPDEST POP PUSH2 0x3C4 CALLDATALOAD PUSH1 0x1 PUSH1 0x1 PUSH1 0xA0 SHL SUB DUP2 AND SWAP1 DUP2 SWAP1 SUB PUSH2 0xB22 JUMPI PUSH2 0x28B DUP1 SLOAD PUSH1 0x1 PUSH1 0x1 PUSH1 0xA0 SHL SUB NOT AND SWAP1 SWAP2 OR SWAP1 SSTORE DUP3 SLOAD PUSH1 0x8 SHR PUSH1 0xFF AND PUSH2 0x2CA8 DUP2 PUSH2 0x3F87 JUMP JUMPDEST PUSH2 0x364 CALLDATALOAD PUSH1 0x1 PUSH1 0x1 PUSH1 0xA0 SHL SUB DUP2 AND SWAP1 DUP2 SWAP1 SUB PUSH2 0x21B6 JUMPI PUSH2 0x226 DUP1 SLOAD PUSH1 0x1 PUSH1 0x1 PUSH1 0xA0 SHL SUB NOT AND SWAP1 SWAP2 OR SWAP1 SSTORE PUSH1 0x1 PUSH1 0x1 PUSH1 0xA0 SHL SUB PUSH2 0x324 CALLDATALOAD SWAP1 DUP2 AND SWAP1 DUP2 SWAP1 SUB PUSH2 0x21B6 JUMPI PUSH2 0x344 CALLDATALOAD PUSH1 0x1 PUSH1 0x1 PUSH1 0xA0 SHL SUB DUP2 AND DUP2 SUB PUSH2 0x21B2 JUMPI PUSH1 0x1 SWAP2 PUSH2 0x2D09 DUP5 PUSH2 0x3F87 JUMP JUMPDEST PUSH2 0x2D12 DUP5 PUSH2 0x3F87 JUMP JUMPDEST PUSH2 0x2D1B DUP5 PUSH2 0x3F87 JUMP JUMPDEST PUSH2 0x2D24 DUP5 PUSH2 0x3F87 JUMP JUMPDEST PUSH1 0x1 PUSH1 0x1 PUSH1 0x60 SHL SUB PUSH1 0xA0 SHL PUSH1 0x97 SLOAD AND OR PUSH1 0x97 SSTORE PUSH2 0x2D40 DUP4 PUSH2 0x3F87 JUMP JUMPDEST PUSH1 0xCA SLOAD SWAP1 PUSH3 0x10000 DUP4 PUSH1 0xB0 SHL SUB SWAP1 PUSH1 0x10 SHL AND SWAP1 PUSH2 0xFF01 DUP4 PUSH1 0xB0 SHL SUB NOT AND OR OR PUSH1 0xCA SSTORE PUSH2 0x2D6B DUP2 PUSH2 0x3F87 JUMP JUMPDEST PUSH8 0xDE0B6B3A7640000 PUSH1 0xA4 CALLDATALOAD LT PUSH2 0x3087 JUMPI PUSH2 0x2D87 PUSH1 0xE4 CALLDATALOAD PUSH2 0x5EA3 JUMP JUMPDEST PUSH2 0x2D93 PUSH2 0x104 CALLDATALOAD PUSH2 0x5EA3 JUMP JUMPDEST PUSH2 0x2D9F PUSH2 0x124 CALLDATALOAD PUSH2 0x5EA3 JUMP JUMPDEST PUSH2 0x2DAB PUSH2 0x144 CALLDATALOAD PUSH2 0x5EA3 JUMP JUMPDEST PUSH2 0x2DB7 PUSH2 0x164 CALLDATALOAD PUSH2 0x5EA3 JUMP JUMPDEST PUSH2 0x2DC3 PUSH2 0x184 CALLDATALOAD PUSH2 0x5EA3 JUMP JUMPDEST PUSH2 0x2DCF PUSH2 0x1A4 CALLDATALOAD PUSH2 0x5EA3 JUMP JUMPDEST PUSH2 0x2DDB PUSH2 0x1C4 CALLDATALOAD PUSH2 0x5EA3 JUMP JUMPDEST PUSH2 0x2DE7 PUSH2 0x1E4 CALLDATALOAD PUSH2 0x5EA3 JUMP JUMPDEST PUSH2 0x2DFF PUSH2 0x2DFA PUSH2 0x224 CALLDATALOAD PUSH2 0x204 CALLDATALOAD PUSH2 0x39A9 JUMP JUMPDEST PUSH2 0x5EA3 JUMP JUMPDEST PUSH1 0x4 CALLDATALOAD PUSH1 0x1 PUSH1 0x1 PUSH1 0xA0 SHL SUB DUP2 AND SWAP1 DUP2 SWAP1 SUB PUSH2 0x21B6 JUMPI PUSH2 0x161 DUP1 SLOAD PUSH1 0x1 PUSH1 0x1 PUSH1 0xA0 SHL SUB NOT AND SWAP1 SWAP2 OR SWAP1 SSTORE PUSH1 0x24 CALLDATALOAD PUSH1 0x1 PUSH1 0x1 PUSH1 0xA0 SHL SUB DUP2 AND DUP2 SUB PUSH2 0x21B6 JUMPI PUSH2 0x162 DUP1 SLOAD PUSH1 0x1 PUSH1 0x1 PUSH1 0xA0 SHL SUB NOT AND PUSH1 0x1 PUSH1 0x1 PUSH1 0xA0 SHL SUB SWAP3 DUP4 AND OR SWAP1 SSTORE PUSH1 0x44 CALLDATALOAD SWAP1 DUP2 AND DUP2 SUB PUSH2 0x21B6 JUMPI PUSH2 0x165 DUP1 SLOAD PUSH1 0x1 PUSH1 0x1 PUSH1 0xA0 SHL SUB NOT AND PUSH1 0x1 PUSH1 0x1 PUSH1 0xA0 SHL SUB SWAP3 DUP4 AND OR SWAP1 SSTORE PUSH1 0x64 CALLDATALOAD SWAP1 DUP2 AND DUP2 SUB PUSH2 0x21B6 JUMPI PUSH2 0x178 DUP1 SLOAD PUSH1 0x1 PUSH1 0x1 PUSH1 0xA0 SHL SUB NOT AND PUSH1 0x1 PUSH1 0x1 PUSH1 0xA0 SHL SUB SWAP3 DUP4 AND OR SWAP1 SSTORE PUSH1 0x84 CALLDATALOAD SWAP1 DUP2 AND SWAP1 DUP2 SWAP1 SUB PUSH2 0x21B6 JUMPI PUSH2 0x179 DUP1 SLOAD PUSH1 0x1 PUSH1 0x1 PUSH1 0xA0 SHL SUB NOT AND SWAP1 SWAP2 OR SWAP1 SSTORE PUSH1 0xA4 CALLDATALOAD PUSH2 0x17B SSTORE PUSH1 0xC4 CALLDATALOAD PUSH2 0x17C SSTORE PUSH1 0xE4 CALLDATALOAD PUSH2 0x16D SSTORE PUSH2 0x104 CALLDATALOAD PUSH2 0x16E SSTORE PUSH2 0x124 CALLDATALOAD PUSH2 0x16F SSTORE PUSH2 0x144 CALLDATALOAD PUSH2 0x170 SSTORE PUSH2 0x164 CALLDATALOAD PUSH2 0x171 SSTORE PUSH2 0x184 CALLDATALOAD PUSH2 0x172 SSTORE PUSH2 0x1A4 CALLDATALOAD PUSH2 0x173 SSTORE PUSH2 0x1C4 CALLDATALOAD PUSH2 0x174 SSTORE PUSH2 0x1E4 CALLDATALOAD PUSH2 0x175 SSTORE PUSH2 0x204 CALLDATALOAD PUSH2 0x16B SSTORE PUSH2 0x224 CALLDATALOAD PUSH2 0x16C SSTORE PUSH2 0x244 CALLDATALOAD PUSH2 0x17E DUP2 SWAP1 SSTORE PUSH1 0x1 PUSH1 0x1 PUSH1 0xA0 SHL SUB PUSH2 0x264 CALLDATALOAD SWAP1 DUP2 AND SWAP1 DUP2 SWAP1 SUB PUSH2 0x21B2 JUMPI PUSH2 0x188 DUP1 SLOAD PUSH1 0x1 PUSH1 0x1 PUSH1 0xA0 SHL SUB NOT AND SWAP1 SWAP2 OR SWAP1 SSTORE PUSH2 0x284 CALLDATALOAD PUSH2 0x189 SSTORE PUSH2 0x2A4 CALLDATALOAD PUSH2 0x18A DUP2 SWAP1 SSTORE SWAP1 PUSH1 0x1 PUSH1 0x1 PUSH1 0xA0 SHL SUB PUSH2 0x2C4 CALLDATALOAD SWAP1 DUP2 AND SWAP1 DUP2 SWAP1 SUB PUSH2 0x3083 JUMPI PUSH2 0x182 DUP1 SLOAD PUSH1 0x1 PUSH1 0x1 PUSH1 0xA0 SHL SUB NOT AND SWAP1 SWAP2 OR SWAP1 SSTORE PUSH1 0x1 PUSH1 0x1 PUSH1 0xA0 SHL SUB PUSH2 0x2E4 CALLDATALOAD SWAP1 DUP2 AND SWAP1 DUP2 SWAP1 SUB PUSH2 0x3083 JUMPI PUSH2 0x183 SWAP1 PUSH1 0x1 PUSH1 0x1 PUSH1 0x60 SHL SUB PUSH1 0xA0 SHL DUP3 SLOAD AND OR SWAP1 SSTORE PUSH2 0x304 CALLDATALOAD PUSH2 0x184 SSTORE NUMBER PUSH2 0x187 SSTORE NUMBER ADD PUSH2 0x17F SSTORE NUMBER ADD PUSH2 0x18B SSTORE PUSH2 0x17D PUSH2 0xFFFF NOT DUP2 SLOAD AND SWAP1 SSTORE PUSH2 0x384 CALLDATALOAD PUSH2 0x3002 DUP3 PUSH2 0x3F87 JUMP JUMPDEST DUP1 ISZERO PUSH2 0x3072 JUMPI PUSH2 0x1C0 DUP2 SWAP1 SSTORE NUMBER ADD PUSH2 0x1BF SSTORE PUSH2 0x3A4 CALLDATALOAD PUSH1 0x1 PUSH1 0x1 PUSH1 0xA0 SHL SUB DUP2 AND DUP2 SUB PUSH2 0x21B6 JUMPI PUSH2 0x1F53 PUSH2 0x3034 SWAP3 PUSH2 0x3F87 JUMP JUMPDEST PUSH2 0x303C JUMPI POP DUP1 RETURN JUMPDEST PUSH1 0x20 PUSH32 0x7F26B83FF96E1F2B6A682F133852F6798A09C465DA95921460CEFB3847402498 SWAP2 PUSH2 0xFF00 NOT DUP5 SLOAD AND DUP5 SSTORE MLOAD PUSH1 0x1 DUP2 MSTORE LOG1 DUP1 RETURN JUMPDEST DUP4 MLOAD PUSH4 0x2A9FFAB7 PUSH1 0xE2 SHL DUP2 MSTORE PUSH1 0x4 SWAP1 REVERT JUMPDEST DUP7 DUP1 REVERT JUMPDEST DUP3 MLOAD PUSH4 0x2A9FFAB7 PUSH1 0xE2 SHL DUP2 MSTORE PUSH1 0x4 SWAP1 REVERT JUMPDEST PUSH2 0xFFFF NOT AND PUSH2 0x101 OR DUP4 SSTORE DUP4 PUSH2 0x2C6C JUMP JUMPDEST DUP3 MLOAD PUSH3 0x461BCD PUSH1 0xE5 SHL DUP2 MSTORE PUSH1 0x20 PUSH1 0x4 DUP3 ADD MSTORE PUSH1 0x2E PUSH1 0x24 DUP3 ADD MSTORE PUSH32 0x496E697469616C697A61626C653A20636F6E747261637420697320616C726561 PUSH1 0x44 DUP3 ADD MSTORE PUSH14 0x191E481A5B9A5D1A585B1A5E9959 PUSH1 0x92 SHL PUSH1 0x64 DUP3 ADD MSTORE PUSH1 0x84 SWAP1 REVERT JUMPDEST POP ADDRESS EXTCODESIZE ISZERO DUP1 ISZERO PUSH2 0x2C57 JUMPI POP PUSH1 0x1 PUSH1 0xFF DUP3 AND EQ PUSH2 0x2C57 JUMP JUMPDEST POP PUSH1 0x1 PUSH1 0xFF DUP3 AND LT PUSH2 0x2C50 JUMP JUMPDEST DUP3 CALLVALUE PUSH2 0x6DA JUMPI PUSH1 0x20 CALLDATASIZE PUSH1 0x3 NOT ADD SLT PUSH2 0x6DA JUMPI PUSH2 0x3142 PUSH2 0x5DD1 JUMP JUMPDEST PUSH1 0x4 CALLDATALOAD PUSH2 0x18A SSTORE DUP1 RETURN JUMPDEST DUP3 DUP5 CALLVALUE PUSH2 0x749 JUMPI DUP2 PUSH1 0x3 NOT CALLDATASIZE ADD SLT PUSH2 0x749 JUMPI PUSH2 0x3166 PUSH2 0x5E5E JUMP JUMPDEST PUSH2 0x316E PUSH2 0x5321 JUMP JUMPDEST PUSH2 0x18B DUP1 SLOAD NUMBER LT PUSH2 0x31E5 JUMPI SWAP1 PUSH2 0x31DC SWAP2 PUSH2 0x18A SLOAD NUMBER ADD SWAP1 SSTORE PUSH32 0xE37FDA283839477A1B77E29ACF8336C0E13A5DAA967913DF0FE5AD258C0822F PUSH1 0x20 PUSH8 0xDE0B6B3A7640000 PUSH2 0x31C3 PUSH2 0x163 SLOAD PUSH2 0x189 SLOAD SWAP1 PUSH2 0x3ACE JUMP JUMPDEST DIV SWAP3 MLOAD DUP4 DUP2 MSTORE LOG1 PUSH2 0x188 SLOAD PUSH1 0x1 PUSH1 0x1 PUSH1 0xA0 SHL SUB AND PUSH2 0x5378 JUMP JUMPDEST PUSH1 0x1 PUSH2 0x12F SSTORE DUP1 RETURN JUMPDEST DUP2 MLOAD PUSH4 0xACCE20E5 PUSH1 0xE0 SHL DUP2 MSTORE PUSH1 0x4 SWAP1 REVERT JUMPDEST DUP3 DUP5 CALLVALUE PUSH2 0x749 JUMPI PUSH1 0x20 CALLDATASIZE PUSH1 0x3 NOT ADD SLT PUSH2 0x749 JUMPI PUSH1 0x4 CALLDATALOAD SWAP2 PUSH2 0x167 SWAP1 DUP2 SLOAD DUP5 LT ISZERO PUSH2 0x6DA JUMPI POP PUSH1 0x20 SWAP3 PUSH2 0x3227 SWAP2 PUSH2 0x3261 JUMP JUMPDEST SWAP1 SLOAD SWAP2 MLOAD SWAP2 PUSH1 0x1 DUP1 PUSH1 0xA0 SHL SUB SWAP2 PUSH1 0x3 SHL SHR AND DUP2 MSTORE RETURN JUMPDEST DUP3 CALLVALUE PUSH2 0x6DA JUMPI PUSH1 0x20 CALLDATASIZE PUSH1 0x3 NOT ADD SLT PUSH2 0x6DA JUMPI PUSH2 0x3257 PUSH2 0x5DD1 JUMP JUMPDEST PUSH1 0x4 CALLDATALOAD PUSH2 0x16C SSTORE DUP1 RETURN JUMPDEST DUP1 SLOAD DUP3 LT ISZERO PUSH2 0x3276 JUMPI PUSH0 MSTORE PUSH1 0x20 PUSH0 KECCAK256 ADD SWAP1 PUSH0 SWAP1 JUMP JUMPDEST PUSH4 0x4E487B71 PUSH1 0xE0 SHL PUSH0 MSTORE PUSH1 0x32 PUSH1 0x4 MSTORE PUSH1 0x24 PUSH0 REVERT JUMPDEST CALLDATALOAD SWAP1 PUSH1 0x1 PUSH1 0x1 PUSH1 0xA0 SHL SUB DUP3 AND DUP3 SUB PUSH2 0x6D6 JUMPI JUMP JUMPDEST SWAP2 SWAP1 DUP3 PUSH1 0xC0 SWAP2 SUB SLT PUSH2 0x6D6 JUMPI PUSH2 0x32B3 DUP3 PUSH2 0x328A JUMP JUMPDEST SWAP2 PUSH1 0x20 DUP2 ADD CALLDATALOAD SWAP2 PUSH1 0x40 DUP3 ADD CALLDATALOAD SWAP2 PUSH1 0x60 DUP2 ADD CALLDATALOAD SWAP2 PUSH2 0x32DE PUSH1 0xA0 PUSH2 0x32D7 PUSH1 0x80 DUP6 ADD PUSH2 0x328A JUMP JUMPDEST SWAP4 ADD PUSH2 0x328A JUMP JUMPDEST SWAP1 JUMP JUMPDEST SWAP2 SWAP1 DUP3 PUSH1 0x80 SWAP2 SUB SLT PUSH2 0x6D6 JUMPI PUSH2 0x32F6 DUP3 PUSH2 0x328A JUMP JUMPDEST SWAP2 PUSH1 0x20 DUP2 ADD CALLDATALOAD SWAP2 PUSH1 0x60 PUSH1 0x40 DUP4 ADD CALLDATALOAD SWAP3 ADD CALLDATALOAD SWAP1 JUMP JUMPDEST SWAP2 SWAP1 DUP3 PUSH1 0x80 SWAP2 SUB SLT PUSH2 0x6D6 JUMPI DUP2 CALLDATALOAD SWAP2 PUSH1 0x20 DUP2 ADD CALLDATALOAD SWAP2 PUSH2 0x32DE PUSH1 0x60 PUSH2 0x32D7 PUSH1 0x40 DUP6 ADD PUSH2 0x328A JUMP JUMPDEST DUP1 SLOAD DUP3 LT ISZERO PUSH2 0x3276 JUMPI PUSH0 MSTORE PUSH1 0x20 PUSH0 KECCAK256 SWAP1 PUSH1 0x1 SHL ADD SWAP1 PUSH0 SWAP1 JUMP JUMPDEST SWAP1 PUSH1 0x1F DUP1 NOT SWAP2 ADD AND DUP2 ADD SWAP1 DUP2 LT PUSH8 0xFFFFFFFFFFFFFFFF DUP3 GT OR PUSH2 0x336B JUMPI PUSH1 0x40 MSTORE JUMP JUMPDEST PUSH4 0x4E487B71 PUSH1 0xE0 SHL PUSH0 MSTORE PUSH1 0x41 PUSH1 0x4 MSTORE PUSH1 0x24 PUSH0 REVERT JUMPDEST PUSH8 0xFFFFFFFFFFFFFFFF DUP2 GT PUSH2 0x336B JUMPI PUSH1 0x1F ADD PUSH1 0x1F NOT AND PUSH1 0x20 ADD SWAP1 JUMP JUMPDEST SWAP2 SWAP1 DUP3 PUSH1 0x80 SWAP2 SUB SLT PUSH2 0x6D6 JUMPI PUSH2 0x33B0 DUP3 PUSH2 0x328A JUMP JUMPDEST SWAP2 PUSH1 0x20 DUP2 ADD CALLDATALOAD SWAP2 PUSH2 0x32DE PUSH1 0x60 PUSH1 0x40 DUP5 ADD CALLDATALOAD SWAP4 ADD PUSH2 0x328A JUMP JUMPDEST SWAP1 DUP2 PUSH1 0xA0 SWAP2 SUB SLT PUSH2 0x6D6 JUMPI PUSH2 0x33DC DUP2 PUSH2 0x328A JUMP JUMPDEST SWAP2 PUSH1 0x20 DUP3 ADD CALLDATALOAD SWAP2 PUSH1 0x40 DUP2 ADD CALLDATALOAD SWAP2 PUSH2 0x32DE PUSH1 0x80 PUSH1 0x60 DUP5 ADD CALLDATALOAD SWAP4 ADD PUSH2 0x328A JUMP JUMPDEST SWAP2 SWAP1 DUP3 PUSH1 0xC0 SWAP2 SUB SLT PUSH2 0x6D6 JUMPI PUSH2 0x340F DUP3 PUSH2 0x328A JUMP JUMPDEST SWAP2 PUSH2 0x341C PUSH1 0x20 DUP3 ADD PUSH2 0x328A JUMP JUMPDEST SWAP2 PUSH1 0x40 DUP3 ADD CALLDATALOAD SWAP2 PUSH1 0x60 DUP2 ADD CALLDATALOAD SWAP2 PUSH2 0x32DE PUSH1 0xA0 PUSH1 0x80 DUP5 ADD CALLDATALOAD SWAP4 ADD PUSH2 0x328A JUMP JUMPDEST SWAP1 DUP2 PUSH1 0xA0 SWAP2 SUB SLT PUSH2 0x6D6 JUMPI PUSH2 0x344E DUP2 PUSH2 0x328A JUMP JUMPDEST SWAP2 PUSH1 0x20 DUP3 ADD CALLDATALOAD SWAP2 PUSH1 0x40 DUP2 ADD CALLDATALOAD SWAP2 PUSH2 0x32DE PUSH1 0x80 PUSH2 0x32D7 PUSH1 0x60 DUP6 ADD PUSH2 0x328A JUMP JUMPDEST ISZERO PUSH2 0x3473 JUMPI JUMP JUMPDEST PUSH1 0x40 MLOAD PUSH3 0x461BCD PUSH1 0xE5 SHL DUP2 MSTORE PUSH1 0x20 PUSH1 0x4 DUP3 ADD MSTORE PUSH1 0x2C PUSH1 0x24 DUP3 ADD MSTORE PUSH32 0x46756E6374696F6E206D7573742062652063616C6C6564207468726F75676820 PUSH1 0x44 DUP3 ADD MSTORE PUSH12 0x19195B1959D85D1958D85B1B PUSH1 0xA2 SHL PUSH1 0x64 DUP3 ADD MSTORE PUSH1 0x84 SWAP1 REVERT JUMPDEST ISZERO PUSH2 0x34D4 JUMPI JUMP JUMPDEST PUSH1 0x40 MLOAD PUSH3 0x461BCD PUSH1 0xE5 SHL DUP2 MSTORE PUSH1 0x20 PUSH1 0x4 DUP3 ADD MSTORE PUSH1 0x2C PUSH1 0x24 DUP3 ADD MSTORE PUSH32 0x46756E6374696F6E206D7573742062652063616C6C6564207468726F75676820 PUSH1 0x44 DUP3 ADD MSTORE PUSH12 0x6163746976652070726F7879 PUSH1 0xA0 SHL PUSH1 0x64 DUP3 ADD MSTORE PUSH1 0x84 SWAP1 REVERT JUMPDEST SWAP1 PUSH1 0xFF PUSH32 0x4910FDFA16FED3260ED0E7147F7CC6DA11A60208B5B9406D12A635614FFD9143 SLOAD AND PUSH0 EQ PUSH2 0x3567 JUMPI POP PUSH2 0x3565 SWAP2 POP PUSH2 0x3718 JUMP JUMPDEST JUMP JUMPDEST PUSH1 0x40 MLOAD PUSH4 0x52D1902D PUSH1 0xE0 SHL DUP2 MSTORE PUSH1 0x20 SWAP4 SWAP2 SWAP3 SWAP2 SWAP1 PUSH1 0x1 PUSH1 0x1 PUSH1 0xA0 SHL SUB DUP4 AND SWAP1 DUP6 DUP2 PUSH1 0x4 DUP2 DUP6 GAS STATICCALL PUSH0 SWAP2 DUP2 PUSH2 0x36E9 JUMPI JUMPDEST POP PUSH2 0x35F7 JUMPI PUSH1 0x40 MLOAD PUSH3 0x461BCD PUSH1 0xE5 SHL DUP2 MSTORE PUSH1 0x4 DUP2 ADD DUP8 SWAP1 MSTORE PUSH1 0x2E PUSH1 0x24 DUP3 ADD MSTORE PUSH32 0x45524331393637557067726164653A206E657720696D706C656D656E74617469 PUSH1 0x44 DUP3 ADD MSTORE PUSH14 0x6F6E206973206E6F742055555053 PUSH1 0x90 SHL PUSH1 0x64 DUP3 ADD MSTORE PUSH1 0x84 SWAP1 REVERT JUMPDEST SWAP4 SWAP5 SWAP4 PUSH32 0xC9F76B5EC45E5CDEF99837D7B6D2467235C1DF8933C8CA56DF5C35AFA2C7D444 ADD PUSH2 0x3692 JUMPI PUSH2 0x3629 DUP4 PUSH2 0x3718 JUMP JUMPDEST PUSH32 0xBC7CD75A20EE27FD9ADEBAB32041F755214DBC6BFFA90CC0225B39DA2E5C2D3B PUSH0 DUP1 LOG2 DUP4 MLOAD ISZERO SWAP1 DUP2 ISZERO SWAP2 PUSH2 0x368A JUMPI JUMPDEST POP PUSH2 0x3663 JUMPI POP POP POP JUMP JUMPDEST PUSH0 DUP1 PUSH2 0x3687 SWAP5 PUSH2 0x3671 PUSH2 0x37BA JUMP JUMPDEST SWAP5 DUP2 MLOAD SWAP2 ADD DUP5 GAS DELEGATECALL PUSH2 0x3681 PUSH2 0x380E JUMP JUMPDEST SWAP2 PUSH2 0x383D JUMP JUMPDEST POP JUMP JUMPDEST SWAP1 POP PUSH0 PUSH2 0x3659 JUMP JUMPDEST PUSH1 0x40 MLOAD PUSH3 0x461BCD PUSH1 0xE5 SHL DUP2 MSTORE PUSH1 0x4 DUP2 ADD DUP6 SWAP1 MSTORE PUSH1 0x29 PUSH1 0x24 DUP3 ADD MSTORE PUSH32 0x45524331393637557067726164653A20756E737570706F727465642070726F78 PUSH1 0x44 DUP3 ADD MSTORE PUSH9 0x1A58589B1955555251 PUSH1 0xBA SHL PUSH1 0x64 DUP3 ADD MSTORE PUSH1 0x84 SWAP1 REVERT JUMPDEST SWAP1 SWAP2 DUP8 DUP3 DUP2 RETURNDATASIZE DUP4 GT PUSH2 0x3711 JUMPI JUMPDEST PUSH2 0x3700 DUP2 DUP4 PUSH2 0x3349 JUMP JUMPDEST DUP2 ADD SUB SLT PUSH2 0x6DA JUMPI POP MLOAD SWAP1 PUSH0 PUSH2 0x3596 JUMP JUMPDEST POP RETURNDATASIZE PUSH2 0x36F6 JUMP JUMPDEST DUP1 EXTCODESIZE ISZERO PUSH2 0x375F JUMPI PUSH32 0x360894A13BA1A3210667C828492DB98DCA3E2076CC3735A920A3CA505D382BBC DUP1 SLOAD PUSH1 0x1 PUSH1 0x1 PUSH1 0xA0 SHL SUB NOT AND PUSH1 0x1 PUSH1 0x1 PUSH1 0xA0 SHL SUB SWAP1 SWAP3 AND SWAP2 SWAP1 SWAP2 OR SWAP1 SSTORE JUMP JUMPDEST PUSH1 0x40 MLOAD PUSH3 0x461BCD PUSH1 0xE5 SHL DUP2 MSTORE PUSH1 0x20 PUSH1 0x4 DUP3 ADD MSTORE PUSH1 0x2D PUSH1 0x24 DUP3 ADD MSTORE PUSH32 0x455243313936373A206E657720696D706C656D656E746174696F6E206973206E PUSH1 0x44 DUP3 ADD MSTORE PUSH13 0x1BDD08184818DBDB9D1C9858DD PUSH1 0x9A SHL PUSH1 0x64 DUP3 ADD MSTORE PUSH1 0x84 SWAP1 REVERT JUMPDEST PUSH2 0x37C4 PUSH1 0x27 PUSH2 0x337F JUMP JUMPDEST SWAP1 PUSH2 0x37D2 PUSH1 0x40 MLOAD SWAP3 DUP4 PUSH2 0x3349 JUMP JUMPDEST PUSH1 0x27 DUP3 MSTORE PUSH7 0x819985A5B1959 PUSH1 0xCA SHL PUSH1 0x40 DUP4 PUSH32 0x416464726573733A206C6F772D6C6576656C2064656C65676174652063616C6C PUSH1 0x20 DUP3 ADD MSTORE ADD MSTORE JUMP JUMPDEST RETURNDATASIZE ISZERO PUSH2 0x3838 JUMPI RETURNDATASIZE SWAP1 PUSH2 0x381F DUP3 PUSH2 0x337F JUMP JUMPDEST SWAP2 PUSH2 0x382D PUSH1 0x40 MLOAD SWAP4 DUP5 PUSH2 0x3349 JUMP JUMPDEST DUP3 MSTORE RETURNDATASIZE PUSH0 PUSH1 0x20 DUP5 ADD RETURNDATACOPY JUMP JUMPDEST PUSH1 0x60 SWAP1 JUMP JUMPDEST SWAP2 SWAP3 SWAP1 ISZERO PUSH2 0x389F JUMPI POP DUP2 MLOAD ISZERO PUSH2 0x3851 JUMPI POP SWAP1 JUMP JUMPDEST EXTCODESIZE ISZERO PUSH2 0x385A JUMPI SWAP1 JUMP JUMPDEST PUSH1 0x40 MLOAD PUSH3 0x461BCD PUSH1 0xE5 SHL DUP2 MSTORE PUSH1 0x20 PUSH1 0x4 DUP3 ADD MSTORE PUSH1 0x1D PUSH1 0x24 DUP3 ADD MSTORE PUSH32 0x416464726573733A2063616C6C20746F206E6F6E2D636F6E7472616374000000 PUSH1 0x44 DUP3 ADD MSTORE PUSH1 0x64 SWAP1 REVERT JUMPDEST DUP3 MLOAD SWAP1 SWAP2 POP ISZERO PUSH2 0x38B2 JUMPI POP DUP1 MLOAD SWAP1 PUSH1 0x20 ADD REVERT JUMPDEST PUSH1 0x40 MLOAD SWAP1 PUSH3 0x461BCD PUSH1 0xE5 SHL DUP3 MSTORE DUP2 PUSH1 0x20 DUP1 PUSH1 0x4 DUP4 ADD MSTORE DUP3 MLOAD SWAP1 DUP2 PUSH1 0x24 DUP5 ADD MSTORE PUSH0 SWAP4 JUMPDEST DUP3 DUP6 LT PUSH2 0x38F6 JUMPI POP POP PUSH1 0x44 SWAP3 POP PUSH0 DUP4 DUP3 DUP5 ADD ADD MSTORE PUSH1 0x1F DUP1 NOT SWAP2 ADD AND DUP2 ADD SUB ADD SWAP1 REVERT JUMPDEST DUP5 DUP2 ADD DUP3 ADD MLOAD DUP7 DUP7 ADD PUSH1 0x44 ADD MSTORE SWAP4 DUP2 ADD SWAP4 DUP6 SWAP4 POP PUSH2 0x38D4 JUMP JUMPDEST SWAP2 SWAP1 DUP3 SUB SWAP2 DUP3 GT PUSH2 0x391C JUMPI JUMP JUMPDEST PUSH4 0x4E487B71 PUSH1 0xE0 SHL PUSH0 MSTORE PUSH1 0x11 PUSH1 0x4 MSTORE PUSH1 0x24 PUSH0 REVERT JUMPDEST PUSH2 0x28B SLOAD PUSH1 0x40 MLOAD PUSH4 0x70A08231 PUSH1 0xE0 SHL DUP2 MSTORE PUSH1 0x1 PUSH1 0x1 PUSH1 0xA0 SHL SUB SWAP3 DUP4 AND PUSH1 0x4 DUP3 ADD MSTORE SWAP2 PUSH1 0x20 SWAP2 DUP4 SWAP2 PUSH1 0x24 SWAP2 DUP4 SWAP2 AND GAS STATICCALL SWAP1 DUP2 ISZERO PUSH2 0x399E JUMPI PUSH0 SWAP2 PUSH2 0x3970 JUMPI POP SWAP1 JUMP JUMPDEST SWAP1 PUSH1 0x20 DUP3 RETURNDATASIZE DUP3 GT PUSH2 0x3996 JUMPI JUMPDEST DUP2 PUSH2 0x3989 PUSH1 0x20 SWAP4 DUP4 PUSH2 0x3349 JUMP JUMPDEST DUP2 ADD SUB SLT PUSH2 0x6DA JUMPI POP MLOAD SWAP1 JUMP JUMPDEST RETURNDATASIZE SWAP2 POP PUSH2 0x397C JUMP JUMPDEST PUSH1 0x40 MLOAD RETURNDATASIZE PUSH0 DUP3 RETURNDATACOPY RETURNDATASIZE SWAP1 REVERT JUMPDEST SWAP2 SWAP1 DUP3 ADD DUP1 SWAP3 GT PUSH2 0x391C JUMPI JUMP JUMPDEST DUP1 MLOAD DUP3 LT ISZERO PUSH2 0x3276 JUMPI PUSH1 0x20 SWAP2 PUSH1 0x5 SHL ADD ADD SWAP1 JUMP JUMPDEST SWAP1 PUSH0 SWAP2 PUSH0 SWAP1 PUSH2 0x169 DUP1 SLOAD SWAP1 PUSH0 SWAP3 JUMPDEST DUP3 DUP5 LT PUSH2 0x39FE JUMPI POP POP POP POP PUSH2 0x39FA PUSH8 0xDE0B6B3A7640000 SWAP2 PUSH2 0x16B SLOAD SWAP1 PUSH2 0x3ACE JUMP JUMPDEST DIV SWAP1 JUMP JUMPDEST SWAP1 SWAP2 SWAP3 SWAP4 SWAP6 PUSH2 0x3A45 PUSH2 0x3A3A PUSH2 0x3A3F PUSH1 0x1 SWAP4 PUSH2 0xCBF PUSH2 0x3A1C DUP11 DUP9 PUSH2 0x39B6 JUMP JUMPDEST MLOAD PUSH2 0x3A27 DUP2 DUP13 PUSH2 0x3A6A JUMP JUMPDEST SWAP6 SWAP1 PUSH2 0x3A33 DUP14 DUP13 PUSH2 0x3330 JUMP JUMPDEST POP SLOAD PUSH2 0x39A9 JUMP JUMPDEST PUSH2 0x5E7F JUMP JUMPDEST SWAP9 PUSH2 0x39A9 JUMP JUMPDEST SWAP5 ADD SWAP3 SWAP2 SWAP1 PUSH2 0x39D8 JUMP JUMPDEST SWAP2 SWAP1 SWAP2 PUSH0 DUP4 DUP3 ADD SWAP4 DUP5 SLT SWAP2 SLT SWAP1 DUP1 ISZERO DUP3 AND SWAP2 ISZERO AND OR PUSH2 0x391C JUMPI JUMP JUMPDEST SWAP2 SWAP1 PUSH0 SWAP1 PUSH2 0x3A96 DUP2 PUSH0 SWAP6 PUSH2 0x3A8C PUSH2 0x3A83 DUP3 PUSH2 0x180 PUSH2 0x3261 JUMP JUMPDEST SWAP4 SWAP1 SLOAD SWAP3 PUSH2 0x3B17 JUMP JUMPDEST SWAP2 PUSH1 0x3 SHL SHR PUSH2 0x3A4F JUMP JUMPDEST PUSH0 DUP2 SGT PUSH2 0x3AA4 JUMPI JUMPDEST POP POP SWAP2 SWAP1 JUMP JUMPDEST PUSH2 0x3AC6 SWAP2 SWAP5 POP PUSH2 0x1E71 SWAP3 POP DUP1 SWAP5 PUSH8 0xDE0B6B3A7640000 SWAP4 DUP5 SWAP2 PUSH2 0x16C SLOAD PUSH2 0x3ACE JUMP JUMPDEST DIV PUSH0 DUP1 PUSH2 0x3A9E JUMP JUMPDEST DUP2 DUP2 MUL SWAP3 SWAP2 DUP2 ISZERO SWAP2 DUP5 DIV EQ OR ISZERO PUSH2 0x391C JUMPI JUMP JUMPDEST DUP2 ISZERO PUSH2 0x3AEB JUMPI DIV SWAP1 JUMP JUMPDEST PUSH4 0x4E487B71 PUSH1 0xE0 SHL PUSH0 MSTORE PUSH1 0x12 PUSH1 0x4 MSTORE PUSH1 0x24 PUSH0 REVERT JUMPDEST DUP2 DUP2 SUB SWAP3 SWAP2 PUSH0 SGT DUP1 ISZERO DUP3 DUP6 SGT AND SWAP2 DUP5 SLT AND OR PUSH2 0x391C JUMPI JUMP JUMPDEST PUSH2 0x3B23 DUP2 PUSH2 0x169 PUSH2 0x3330 JUMP JUMPDEST POP SLOAD SWAP1 PUSH8 0xDE0B6B3A7640000 SWAP2 DUP3 DUP2 MUL SWAP3 DUP2 DUP5 DIV EQ SWAP1 ISZERO OR ISZERO PUSH2 0x391C JUMPI PUSH2 0x32DE SWAP3 PUSH2 0x3B63 PUSH2 0x3B56 PUSH2 0x3B69 SWAP4 PUSH2 0x181 PUSH2 0x3261 JUMP JUMPDEST SWAP1 SLOAD SWAP1 PUSH1 0x3 SHL SHR DUP5 PUSH2 0x3AE1 JUMP JUMPDEST SWAP3 PUSH2 0x3AE1 JUMP JUMPDEST SWAP1 PUSH2 0x3AFF JUMP JUMPDEST DUP1 ISZERO PUSH2 0x3B85 JUMPI PUSH2 0x3A3A PUSH2 0x32DE SWAP3 PUSH2 0x163 SLOAD PUSH2 0x390F JUMP JUMPDEST POP POP PUSH0 NOT SWAP1 JUMP JUMPDEST PUSH8 0xFFFFFFFFFFFFFFFF DUP2 GT PUSH2 0x336B JUMPI PUSH1 0x5 SHL PUSH1 0x20 ADD SWAP1 JUMP JUMPDEST SWAP1 PUSH2 0x3BAE DUP3 PUSH2 0x3B8C JUMP JUMPDEST PUSH2 0x3BBB PUSH1 0x40 MLOAD SWAP2 DUP3 PUSH2 0x3349 JUMP JUMPDEST DUP3 DUP2 MSTORE DUP1 SWAP3 PUSH2 0x3BCC PUSH1 0x1F NOT SWAP2 PUSH2 0x3B8C JUMP JUMPDEST ADD SWAP1 PUSH1 0x20 CALLDATASIZE SWAP2 ADD CALLDATACOPY JUMP JUMPDEST PUSH2 0x163 SLOAD DUP1 ISZERO PUSH2 0x3687 JUMPI PUSH2 0x169 SWAP1 DUP2 SLOAD SWAP2 PUSH0 SWAP1 PUSH2 0x3BF2 DUP5 PUSH2 0x3BA4 JUMP JUMPDEST SWAP1 DUP3 SWAP1 JUMPDEST DUP6 DUP3 LT PUSH2 0x3C60 JUMPI POP POP PUSH0 JUMPDEST DUP5 DUP2 LT PUSH2 0x3C0F JUMPI POP POP POP POP POP JUMP JUMPDEST PUSH2 0x3C2C DUP5 PUSH2 0x3C27 DUP6 PUSH2 0x3C21 DUP6 DUP8 PUSH2 0x39B6 JUMP JUMPDEST MLOAD PUSH2 0x3ACE JUMP JUMPDEST PUSH2 0x3AE1 JUMP JUMPDEST SWAP1 PUSH2 0x16A SWAP2 DUP3 SLOAD PUSH9 0x10000000000000000 DUP2 LT ISZERO PUSH2 0x336B JUMPI PUSH2 0x1E8A DUP2 PUSH1 0x1 SWAP6 DUP7 PUSH2 0x3C58 SWAP5 ADD DUP2 SSTORE PUSH2 0x3261 JUMP JUMPDEST SWAP1 SSTORE ADD PUSH2 0x3C01 JUMP JUMPDEST SWAP1 SWAP3 PUSH2 0x3C9C PUSH1 0x1 SWAP2 PUSH2 0x3C71 DUP7 PUSH2 0x3CDE JUMP JUMPDEST PUSH2 0x3C7B DUP8 DUP8 PUSH2 0x39B6 JUMP JUMPDEST MSTORE PUSH2 0xCBF PUSH2 0x3C89 DUP8 DUP7 PUSH2 0x3330 JUMP JUMPDEST POP SLOAD PUSH2 0x3C95 DUP9 DUP9 PUSH2 0x39B6 JUMP JUMPDEST MLOAD SWAP1 PUSH2 0x5E7F JUMP JUMPDEST SWAP4 ADD SWAP1 PUSH2 0x3BF6 JUMP JUMPDEST PUSH1 0x1 PUSH1 0x1 PUSH1 0xA0 SHL SUB AND PUSH0 SWAP1 DUP2 MSTORE PUSH2 0x168 PUSH1 0x20 MSTORE PUSH1 0x40 SWAP1 KECCAK256 PUSH1 0x1 DUP2 ADD SLOAD PUSH1 0xFF AND ISZERO PUSH2 0x3CCC JUMPI SLOAD SWAP1 JUMP JUMPDEST PUSH1 0x40 MLOAD PUSH4 0xE6C4247B PUSH1 0xE0 SHL DUP2 MSTORE PUSH1 0x4 SWAP1 REVERT JUMPDEST PUSH2 0x3CEA SWAP1 PUSH2 0x169 PUSH2 0x3330 JUMP JUMPDEST POP PUSH1 0x1 ADD SLOAD PUSH1 0x1 PUSH1 0x1 PUSH1 0xA0 SHL SUB AND PUSH2 0x3D01 DUP2 PUSH2 0x3D4C JUMP JUMPDEST SWAP2 SWAP1 SWAP2 ISZERO PUSH2 0x3D0D JUMPI POP SWAP1 JUMP JUMPDEST PUSH1 0x24 SWAP1 PUSH1 0x40 MLOAD SWAP1 PUSH4 0x7F6E4DB9 PUSH1 0xE0 SHL DUP3 MSTORE PUSH1 0x4 DUP3 ADD MSTORE REVERT JUMPDEST MLOAD SWAP1 DUP2 ISZERO ISZERO DUP3 SUB PUSH2 0x6D6 JUMPI JUMP JUMPDEST SWAP2 SWAP1 DUP3 PUSH1 0x40 SWAP2 SUB SLT PUSH2 0x6D6 JUMPI PUSH2 0x32DE PUSH1 0x20 DUP4 MLOAD SWAP4 ADD PUSH2 0x3D25 JUMP JUMPDEST PUSH1 0x40 DUP1 MLOAD PUSH4 0x59E02DD7 PUSH1 0xE0 SHL DUP2 MSTORE SWAP3 SWAP2 DUP4 SWAP1 PUSH1 0x4 SWAP1 DUP3 SWAP1 PUSH1 0x1 PUSH1 0x1 PUSH1 0xA0 SHL SUB AND GAS STATICCALL SWAP2 DUP3 ISZERO PUSH2 0x399E JUMPI PUSH0 SWAP1 DUP2 SWAP4 PUSH2 0x3D82 JUMPI POP SWAP2 SWAP1 JUMP JUMPDEST SWAP1 POP PUSH2 0x3DA6 SWAP2 SWAP3 POP PUSH1 0x40 RETURNDATASIZE DUP2 GT PUSH2 0x3DAA JUMPI JUMPDEST PUSH2 0x3D9E DUP2 DUP4 PUSH2 0x3349 JUMP JUMPDEST DUP2 ADD SWAP1 PUSH2 0x3D32 JUMP JUMPDEST SWAP1 SWAP2 JUMP JUMPDEST POP RETURNDATASIZE PUSH2 0x3D94 JUMP JUMPDEST PUSH2 0x169 SLOAD SWAP1 PUSH2 0x3DBF DUP3 PUSH2 0x3BA4 JUMP JUMPDEST SWAP2 PUSH0 JUMPDEST DUP2 DUP2 LT PUSH2 0x3DCD JUMPI POP POP JUMP JUMPDEST DUP1 PUSH2 0x3DD9 PUSH1 0x1 SWAP3 PUSH2 0x3CDE JUMP JUMPDEST PUSH2 0x3DE3 DUP3 DUP8 PUSH2 0x39B6 JUMP JUMPDEST MSTORE ADD PUSH2 0x3DC2 JUMP JUMPDEST SWAP1 PUSH2 0x3E0B PUSH8 0xDE0B6B3A7640000 SWAP3 DUP4 PUSH2 0x187 SLOAD PUSH2 0x184 SLOAD SWAP3 NUMBER ADD SUB MUL PUSH2 0x3AE1 JUMP JUMPDEST DUP3 DUP2 LT ISZERO PUSH2 0x3E28 JUMPI DUP3 SUB SWAP2 DUP1 DUP4 PUSH2 0x185 SLOAD MUL DIV SWAP3 PUSH2 0x186 SLOAD MUL SDIV SWAP1 JUMP JUMPDEST POP PUSH0 SWAP2 POP DUP2 SWAP1 JUMP JUMPDEST SWAP1 SWAP2 PUSH2 0x3E3A PUSH2 0x3E90 JUMP JUMPDEST SWAP3 SWAP1 DUP1 DUP3 LT ISZERO PUSH2 0x3E87 JUMPI DUP4 SWAP2 PUSH2 0x3E4F SWAP2 PUSH2 0x390F JUMP JUMPDEST SWAP4 GT ISZERO PUSH2 0x3E82 JUMPI DUP2 DUP2 LT ISZERO PUSH2 0x3E7B JUMPI PUSH2 0x3E67 SWAP2 PUSH2 0x390F JUMP JUMPDEST PUSH1 0x1 SHR DUP1 DUP3 LT ISZERO PUSH2 0x3E76 JUMPI POP SWAP1 JUMP JUMPDEST SWAP1 POP SWAP1 JUMP JUMPDEST POP POP POP PUSH0 SWAP1 JUMP JUMPDEST POP POP SWAP1 JUMP JUMPDEST POP POP POP POP POP PUSH0 SWAP1 JUMP JUMPDEST PUSH2 0x182 SLOAD PUSH1 0x40 DUP1 MLOAD PUSH4 0x59E02DD7 PUSH1 0xE0 SHL DUP1 DUP3 MSTORE SWAP4 SWAP3 SWAP1 SWAP2 SWAP1 PUSH1 0x1 PUSH1 0x1 PUSH1 0xA0 SHL SUB SWAP1 DUP2 AND DUP3 DUP5 PUSH1 0x4 DUP2 DUP5 GAS STATICCALL DUP1 ISZERO PUSH2 0x3F7D JUMPI PUSH0 SWAP5 DUP6 SWAP2 PUSH2 0x3F5A JUMPI JUMPDEST POP ISZERO PUSH2 0x3F43 JUMPI POP PUSH2 0x183 SLOAD AND SWAP1 DUP1 MLOAD SWAP5 DUP6 MSTORE DUP1 DUP6 PUSH1 0x4 DUP2 DUP6 GAS STATICCALL DUP1 ISZERO PUSH2 0x3F39 JUMPI PUSH0 SWAP6 DUP7 SWAP2 PUSH2 0x3F16 JUMPI JUMPDEST POP ISZERO PUSH2 0x3EFF JUMPI POP POP SWAP2 SWAP1 JUMP JUMPDEST PUSH1 0x24 SWAP3 POP MLOAD SWAP1 PUSH4 0x5E89893 PUSH1 0xE1 SHL DUP3 MSTORE PUSH1 0x4 DUP3 ADD MSTORE REVERT JUMPDEST SWAP1 POP DUP2 PUSH2 0x3F30 SWAP3 SWAP7 POP RETURNDATASIZE DUP8 GT PUSH2 0x3DAA JUMPI PUSH2 0x3D9E DUP2 DUP4 PUSH2 0x3349 JUMP JUMPDEST SWAP5 SWAP1 SWAP5 PUSH0 PUSH2 0x3EF3 JUMP JUMPDEST POP MLOAD RETURNDATASIZE PUSH0 DUP3 RETURNDATACOPY RETURNDATASIZE SWAP1 REVERT JUMPDEST PUSH1 0x24 SWAP1 DUP4 MLOAD SWAP1 PUSH4 0x5E89893 PUSH1 0xE1 SHL DUP3 MSTORE PUSH1 0x4 DUP3 ADD MSTORE REVERT JUMPDEST SWAP1 POP PUSH2 0x3F74 SWAP2 SWAP5 POP DUP4 RETURNDATASIZE DUP6 GT PUSH2 0x3DAA JUMPI PUSH2 0x3D9E DUP2 DUP4 PUSH2 0x3349 JUMP JUMPDEST SWAP4 SWAP1 SWAP4 PUSH0 PUSH2 0x3ECA JUMP JUMPDEST DUP4 MLOAD RETURNDATASIZE PUSH0 DUP3 RETURNDATACOPY RETURNDATASIZE SWAP1 REVERT JUMPDEST ISZERO PUSH2 0x3F8E JUMPI JUMP JUMPDEST PUSH1 0x40 MLOAD PUSH3 0x461BCD PUSH1 0xE5 SHL DUP2 MSTORE PUSH1 0x20 PUSH1 0x4 DUP3 ADD MSTORE PUSH1 0x2B PUSH1 0x24 DUP3 ADD MSTORE PUSH32 0x496E697469616C697A61626C653A20636F6E7472616374206973206E6F742069 PUSH1 0x44 DUP3 ADD MSTORE PUSH11 0x6E697469616C697A696E67 PUSH1 0xA8 SHL PUSH1 0x64 DUP3 ADD MSTORE PUSH1 0x84 SWAP1 REVERT JUMPDEST PUSH1 0x40 MLOAD SWAP1 PUSH2 0x3FF6 PUSH1 0x80 DUP4 PUSH2 0x3349 JUMP JUMPDEST PUSH0 PUSH1 0x60 DUP4 DUP3 DUP2 MSTORE DUP3 PUSH1 0x20 DUP3 ADD MSTORE DUP3 PUSH1 0x40 DUP3 ADD MSTORE ADD MSTORE JUMP JUMPDEST PUSH2 0x4091 SWAP2 PUSH2 0x4019 PUSH2 0x3FE7 JUMP JUMPDEST POP PUSH2 0x4022 PUSH2 0x441F JUMP JUMPDEST PUSH2 0x402A PUSH2 0x5E5E JUMP JUMPDEST PUSH8 0xDE0B6B3A7640000 PUSH2 0x405C PUSH2 0x4056 PUSH2 0x404D PUSH2 0x4044 PUSH2 0x3DB1 JUMP JUMPDEST PUSH2 0x17B SLOAD PUSH2 0x4441 JUMP JUMPDEST DUP7 MLOAD SWAP3 SWAP2 PUSH2 0x4484 JUMP JUMPDEST SWAP1 PUSH2 0x3ACE JUMP JUMPDEST DIV SWAP2 PUSH2 0x4086 PUSH1 0x1 DUP1 PUSH1 0xA0 SHL SUB PUSH1 0x40 DUP4 ADD MLOAD AND DUP5 PUSH1 0x1 DUP1 PUSH1 0xA0 SHL SUB PUSH1 0x80 DUP6 ADD MLOAD AND PUSH2 0x16E SLOAD SWAP3 PUSH2 0x44B3 JUMP JUMPDEST SWAP5 SWAP2 DUP3 SWAP7 SWAP2 SWAP7 PUSH2 0x39A9 JUMP JUMPDEST SWAP2 PUSH1 0x20 DUP2 ADD MLOAD DUP1 DUP5 GT PUSH2 0x42CC JUMPI POP DUP3 ISZERO PUSH2 0x42BA JUMPI PUSH1 0x1 DUP1 PUSH1 0xA0 SHL SUB PUSH1 0x40 DUP3 ADD MLOAD AND PUSH1 0x1 DUP1 PUSH1 0xA0 SHL SUB PUSH1 0x60 DUP4 ADD MLOAD AND SWAP1 PUSH32 0xA02482A2126FA394339A603E5B911CBB1BFC18EA48CD9C0896F81D083EFF450F DUP6 DUP5 MLOAD PUSH2 0x4114 DUP11 MLOAD PUSH1 0x20 DUP13 ADD MLOAD DUP13 PUSH1 0x60 PUSH1 0x40 DUP3 ADD MLOAD SWAP2 ADD MLOAD SWAP2 PUSH1 0x1 DUP1 PUSH1 0xA0 SHL SUB PUSH1 0x80 DUP13 ADD MLOAD AND SWAP4 PUSH1 0x40 MLOAD SWAP8 DUP9 SWAP8 DUP9 PUSH2 0x5775 JUMP JUMPDEST SUB SWAP1 LOG3 PUSH2 0x4189 PUSH1 0x20 DUP3 MLOAD PUSH1 0x1 DUP1 PUSH1 0xA0 SHL SUB PUSH1 0x60 DUP6 ADD MLOAD AND PUSH2 0x166 PUSH2 0x4139 DUP4 DUP3 SLOAD PUSH2 0x39A9 JUMP JUMPDEST SWAP1 SSTORE PUSH2 0x4149 PUSH2 0x163 SWAP7 DUP8 SLOAD PUSH2 0x39A9 JUMP JUMPDEST DUP7 SSTORE PUSH2 0x165 SLOAD PUSH1 0x40 MLOAD PUSH4 0x40C10F19 PUSH1 0xE0 SHL DUP2 MSTORE PUSH1 0x1 PUSH1 0x1 PUSH1 0xA0 SHL SUB SWAP3 DUP4 AND PUSH1 0x4 DUP3 ADD MSTORE PUSH1 0x24 DUP2 ADD SWAP4 SWAP1 SWAP4 MSTORE SWAP2 SWAP4 DUP5 SWAP3 SWAP1 SWAP2 AND SWAP1 DUP3 SWAP1 PUSH0 SWAP1 DUP3 SWAP1 PUSH1 0x44 DUP3 ADD SWAP1 JUMP JUMPDEST SUB SWAP3 GAS CALL DUP1 ISZERO PUSH2 0x399E JUMPI PUSH2 0x4279 JUMPI JUMPDEST POP PUSH2 0x28B SLOAD PUSH2 0x4241 SWAP3 PUSH0 SWAP3 SWAP2 PUSH2 0x41BC SWAP1 DUP7 SWAP1 ADDRESS SWAP1 CALLER SWAP1 PUSH1 0x1 PUSH1 0x1 PUSH1 0xA0 SHL SUB AND PUSH2 0x42EA JUMP JUMPDEST PUSH1 0x40 DUP3 ADD MLOAD PUSH1 0x80 SWAP1 SWAP3 ADD MLOAD PUSH1 0x1 PUSH1 0x1 PUSH1 0xA0 SHL SUB SWAP3 DUP4 AND SWAP3 AND PUSH2 0x41DC PUSH2 0x5321 JUMP JUMPDEST DUP8 MLOAD ISZERO ISZERO DUP5 EQ PUSH2 0x424C JUMPI PUSH2 0x4231 PUSH2 0x423C SWAP3 PUSH8 0xDE0B6B3A7640000 PUSH2 0x4205 PUSH2 0x16D SLOAD DUP13 MLOAD SWAP1 PUSH2 0x3ACE JUMP JUMPDEST DIV SWAP1 PUSH2 0x4212 DUP3 DUP3 SLOAD PUSH2 0x39A9 JUMP JUMPDEST SWAP1 SSTORE PUSH2 0x422B PUSH1 0x1 DUP1 PUSH1 0xA0 SHL SUB PUSH2 0x178 SLOAD AND SWAP2 DUP12 MLOAD PUSH2 0x390F JUMP JUMPDEST SWAP1 PUSH2 0x5378 JUMP JUMPDEST PUSH1 0x40 DUP9 ADD MLOAD SWAP1 PUSH2 0x5378 JUMP JUMPDEST PUSH2 0x5378 JUMP JUMPDEST PUSH1 0x1 PUSH2 0x12F SSTORE SWAP3 SWAP2 SWAP1 JUMP JUMPDEST PUSH2 0x178 SLOAD PUSH1 0x20 DUP10 ADD MLOAD PUSH2 0x423C SWAP4 POP PUSH2 0x426D SWAP2 PUSH1 0x1 PUSH1 0x1 PUSH1 0xA0 SHL SUB AND DUP6 PUSH2 0x53C2 JUMP JUMPDEST PUSH1 0x60 DUP9 ADD MLOAD SWAP1 DUP4 PUSH2 0x53C2 JUMP JUMPDEST SWAP1 PUSH1 0x20 DUP3 RETURNDATASIZE PUSH1 0x20 GT PUSH2 0x42B2 JUMPI JUMPDEST DUP2 PUSH2 0x4293 PUSH1 0x20 SWAP4 DUP4 PUSH2 0x3349 JUMP JUMPDEST DUP2 ADD SUB SLT PUSH2 0x6D6 JUMPI PUSH2 0x4241 SWAP3 PUSH2 0x42A9 PUSH0 SWAP4 PUSH2 0x3D25 JUMP JUMPDEST POP SWAP3 POP SWAP1 PUSH2 0x4198 JUMP JUMPDEST RETURNDATASIZE SWAP2 POP PUSH2 0x4286 JUMP JUMPDEST PUSH1 0x40 MLOAD PUSH4 0xF3E39B5D PUSH1 0xE0 SHL DUP2 MSTORE PUSH1 0x4 SWAP1 REVERT JUMPDEST PUSH1 0x44 SWAP1 DUP5 PUSH1 0x40 MLOAD SWAP2 PUSH4 0xB63F1A7 PUSH1 0xE0 SHL DUP4 MSTORE PUSH1 0x4 DUP4 ADD MSTORE PUSH1 0x24 DUP3 ADD MSTORE REVERT JUMPDEST PUSH1 0x40 MLOAD PUSH4 0x23B872DD PUSH1 0xE0 SHL PUSH1 0x20 DUP3 ADD MSTORE PUSH1 0x1 PUSH1 0x1 PUSH1 0xA0 SHL SUB SWAP3 DUP4 AND PUSH1 0x24 DUP3 ADD MSTORE SWAP3 SWAP1 SWAP2 AND PUSH1 0x44 DUP4 ADD MSTORE PUSH1 0x64 DUP1 DUP4 ADD SWAP4 SWAP1 SWAP4 MSTORE SWAP2 DUP2 MSTORE PUSH2 0x3565 SWAP2 PUSH2 0x432E PUSH1 0x84 DUP4 PUSH2 0x3349 JUMP JUMPDEST PUSH1 0x20 SWAP2 PUSH2 0x4390 SWAP2 PUSH1 0x1 PUSH1 0x1 PUSH1 0xA0 SHL SUB AND PUSH0 DUP1 PUSH2 0x4349 DUP7 PUSH2 0x337F JUMP JUMPDEST SWAP4 PUSH2 0x4357 PUSH1 0x40 MLOAD SWAP6 DUP7 PUSH2 0x3349 JUMP JUMPDEST DUP7 DUP6 MSTORE PUSH32 0x5361666545524332303A206C6F772D6C6576656C2063616C6C206661696C6564 DUP8 DUP7 ADD MSTORE DUP7 DUP2 MLOAD SWAP2 ADD DUP3 DUP6 GAS CALL PUSH2 0x3681 PUSH2 0x380E JUMP JUMPDEST DUP1 MLOAD DUP3 DUP2 ISZERO SWAP2 DUP3 ISZERO PUSH2 0x4400 JUMPI JUMPDEST POP POP SWAP1 POP ISZERO PUSH2 0x43A9 JUMPI POP JUMP JUMPDEST PUSH1 0x84 SWAP1 PUSH1 0x40 MLOAD SWAP1 PUSH3 0x461BCD PUSH1 0xE5 SHL DUP3 MSTORE PUSH1 0x4 DUP3 ADD MSTORE PUSH1 0x2A PUSH1 0x24 DUP3 ADD MSTORE PUSH32 0x5361666545524332303A204552433230206F7065726174696F6E20646964206E PUSH1 0x44 DUP3 ADD MSTORE PUSH10 0x1BDD081CDD58D8D95959 PUSH1 0xB2 SHL PUSH1 0x64 DUP3 ADD MSTORE REVERT JUMPDEST DUP4 DUP1 SWAP3 SWAP4 POP ADD SUB SLT PUSH2 0x6D6 JUMPI DUP2 PUSH2 0x4417 SWAP2 ADD PUSH2 0x3D25 JUMP JUMPDEST DUP1 DUP3 PUSH0 PUSH2 0x439D JUMP JUMPDEST PUSH1 0xFF PUSH2 0x17D SLOAD PUSH1 0x8 SHR AND PUSH2 0x442F JUMPI JUMP JUMPDEST PUSH1 0x40 MLOAD PUSH4 0x1CA61D77 PUSH1 0xE0 SHL DUP2 MSTORE PUSH1 0x4 SWAP1 REVERT JUMPDEST SWAP2 SWAP1 PUSH2 0x444C SWAP1 PUSH2 0x39CA JUMP JUMPDEST SWAP2 SWAP1 SWAP3 PUSH2 0x4459 DUP4 DUP6 PUSH2 0x3B6F JUMP JUMPDEST SWAP1 DUP1 DUP3 GT ISZERO PUSH2 0x4466 JUMPI POP POP JUMP JUMPDEST PUSH1 0x44 SWAP3 POP PUSH1 0x40 MLOAD SWAP2 PUSH4 0x79121201 PUSH1 0xE0 SHL DUP4 MSTORE PUSH1 0x4 DUP4 ADD MSTORE PUSH1 0x24 DUP3 ADD MSTORE REVERT JUMPDEST SWAP1 PUSH2 0x166 SLOAD SWAP1 DUP2 ISZERO PUSH2 0x44A4 JUMPI PUSH2 0x32DE SWAP3 PUSH2 0xCBA PUSH2 0x3A3A SWAP3 PUSH2 0x163 SLOAD PUSH2 0x390F JUMP JUMPDEST POP POP POP PUSH8 0xDE0B6B3A7640000 SWAP1 JUMP JUMPDEST SWAP3 SWAP1 SWAP4 SWAP2 PUSH0 SWAP2 PUSH0 SWAP2 DUP3 SWAP7 PUSH2 0x44C5 PUSH2 0x3FE7 JUMP JUMPDEST SWAP7 PUSH1 0x1 PUSH1 0x1 PUSH1 0xA0 SHL SUB SWAP2 DUP6 SWAP1 DUP4 AND DUP1 PUSH2 0x46D1 JUMPI JUMPDEST POP DUP3 PUSH2 0x161 SLOAD AND DUP4 PUSH1 0x40 MLOAD SWAP4 PUSH4 0x6EB1769F PUSH1 0xE1 SHL DUP6 MSTORE AND DUP1 PUSH1 0x4 DUP6 ADD MSTORE ADDRESS PUSH1 0x24 DUP6 ADD MSTORE PUSH1 0x20 SWAP5 DUP6 DUP6 PUSH1 0x44 DUP2 DUP7 GAS STATICCALL SWAP5 DUP6 ISZERO PUSH2 0x46C6 JUMPI DUP5 SWAP6 PUSH2 0x4697 JUMPI JUMPDEST POP DUP5 PUSH2 0x4576 JUMPI JUMPDEST POP POP POP POP POP DUP7 ADD MLOAD ISZERO PUSH2 0x4532 JUMPI JUMPDEST POP POP POP SWAP3 SWAP2 SWAP1 JUMP JUMPDEST SWAP1 SWAP2 SWAP3 POP PUSH2 0x454A PUSH8 0xDE0B6B3A7640000 SWAP3 DUP4 SWAP3 PUSH2 0x3ACE JUMP JUMPDEST DIV DUP1 DUP6 MSTORE SWAP1 DUP3 ISZERO PUSH2 0x456E JUMPI PUSH2 0x4566 SWAP3 DIV SWAP1 DUP2 PUSH1 0x40 DUP7 ADD MSTORE PUSH2 0x39A9 JUMP JUMPDEST PUSH0 DUP1 DUP1 PUSH2 0x452A JUMP JUMPDEST POP SWAP1 POP PUSH2 0x4566 JUMP JUMPDEST PUSH2 0x4584 SWAP1 PUSH2 0x162 SLOAD AND PUSH2 0x3D4C JUMP JUMPDEST SWAP3 SWAP1 SWAP3 ISZERO PUSH2 0x451C JUMPI SWAP1 SWAP2 SWAP3 SWAP4 SWAP12 POP DUP5 DUP12 PUSH2 0x45BE DUP6 PUSH8 0xDE0B6B3A7640000 PUSH2 0x45B8 PUSH2 0x45AE DUP14 DUP14 PUSH2 0x3ACE JUMP JUMPDEST PUSH2 0x175 SLOAD SWAP1 PUSH2 0x3ACE JUMP JUMPDEST DIV PUSH2 0x3AE1 JUMP JUMPDEST DUP2 DUP4 ADD DUP2 DUP2 MSTORE SWAP6 SWAP1 DUP12 ISZERO PUSH2 0x468D JUMPI POP PUSH2 0x45E9 SWAP2 PUSH2 0x45DD PUSH1 0x60 SWAP3 DUP14 PUSH2 0x3AE1 JUMP JUMPDEST SWAP2 DUP3 SWAP2 ADD MSTORE DUP6 MLOAD PUSH2 0x39A9 JUMP JUMPDEST DUP1 SWAP14 JUMPDEST LT SWAP3 DUP4 ISZERO PUSH2 0x4618 JUMPI JUMPDEST POP POP POP PUSH2 0x4605 JUMPI JUMPDEST DUP1 DUP1 DUP1 PUSH2 0x451C JUMP JUMPDEST DUP2 SWAP3 SWAP10 POP MSTORE DUP1 PUSH1 0x60 DUP9 ADD MSTORE SWAP7 PUSH0 DUP1 PUSH2 0x45FD JUMP JUMPDEST SWAP1 SWAP2 SWAP3 POP PUSH1 0x24 PUSH1 0x40 MLOAD DUP1 SWAP5 DUP2 SWAP4 PUSH4 0x70A08231 PUSH1 0xE0 SHL DUP4 MSTORE PUSH1 0x4 DUP4 ADD MSTORE GAS STATICCALL SWAP1 DUP2 ISZERO PUSH2 0x4682 JUMPI SWAP1 DUP12 SWAP2 DUP5 SWAP2 PUSH2 0x4651 JUMPI JUMPDEST POP LT PUSH0 DUP5 DUP2 PUSH2 0x45F5 JUMP JUMPDEST DUP1 SWAP3 POP DUP6 DUP1 SWAP3 POP RETURNDATASIZE DUP4 GT PUSH2 0x467B JUMPI JUMPDEST PUSH2 0x466A DUP2 DUP4 PUSH2 0x3349 JUMP JUMPDEST DUP2 ADD SUB SLT PUSH2 0x7CB JUMPI DUP11 SWAP1 MLOAD PUSH0 PUSH2 0x4647 JUMP JUMPDEST POP RETURNDATASIZE PUSH2 0x4660 JUMP JUMPDEST PUSH1 0x40 MLOAD RETURNDATASIZE DUP6 DUP3 RETURNDATACOPY RETURNDATASIZE SWAP1 REVERT JUMPDEST SWAP2 POP POP DUP1 SWAP14 PUSH2 0x45EC JUMP JUMPDEST SWAP1 SWAP5 POP DUP6 DUP2 DUP2 RETURNDATASIZE DUP4 GT PUSH2 0x46BF JUMPI JUMPDEST PUSH2 0x46AF DUP2 DUP4 PUSH2 0x3349 JUMP JUMPDEST DUP2 ADD SUB SLT PUSH2 0xB22 JUMPI MLOAD SWAP4 PUSH0 PUSH2 0x4515 JUMP JUMPDEST POP RETURNDATASIZE PUSH2 0x46A5 JUMP JUMPDEST PUSH1 0x40 MLOAD RETURNDATASIZE DUP7 DUP3 RETURNDATACOPY RETURNDATASIZE SWAP1 REVERT JUMPDEST SWAP1 SWAP6 POP PUSH1 0x20 DUP4 PUSH2 0x1F3 SLOAD AND SWAP2 PUSH1 0x24 PUSH1 0x40 MLOAD DUP1 SWAP5 DUP2 SWAP4 PUSH4 0x64A731E9 PUSH1 0xE0 SHL DUP4 MSTORE PUSH1 0x4 DUP4 ADD MSTORE GAS STATICCALL DUP1 ISZERO PUSH2 0x4749 JUMPI DUP7 SWAP1 PUSH2 0x4716 JUMPI JUMPDEST PUSH2 0x470F SWAP2 POP DUP5 PUSH2 0x3ACE JUMP JUMPDEST SWAP5 PUSH0 PUSH2 0x44D9 JUMP JUMPDEST POP PUSH1 0x20 DUP2 RETURNDATASIZE DUP3 GT PUSH2 0x4741 JUMPI JUMPDEST DUP2 PUSH2 0x472F PUSH1 0x20 SWAP4 DUP4 PUSH2 0x3349 JUMP JUMPDEST DUP2 ADD SUB SLT PUSH2 0x21B2 JUMPI PUSH2 0x470F SWAP1 MLOAD PUSH2 0x4704 JUMP JUMPDEST RETURNDATASIZE SWAP2 POP PUSH2 0x4722 JUMP JUMPDEST PUSH1 0x40 MLOAD RETURNDATASIZE DUP9 DUP3 RETURNDATACOPY RETURNDATASIZE SWAP1 REVERT JUMPDEST PUSH2 0x475C PUSH2 0x3FE7 JUMP JUMPDEST POP PUSH2 0x4765 PUSH2 0x441F JUMP JUMPDEST PUSH2 0x476D PUSH2 0x5E5E JUMP JUMPDEST PUSH2 0x4775 PUSH2 0x5D3E JUMP JUMPDEST PUSH2 0x477D PUSH2 0x5C7C JUMP JUMPDEST DUP3 MLOAD SWAP1 SWAP4 SWAP2 SWAP3 SWAP1 PUSH2 0x4796 SWAP1 PUSH1 0x1 PUSH1 0x1 PUSH1 0xA0 SHL SUB AND PUSH2 0x3CA4 JUMP JUMPDEST SWAP3 PUSH2 0x47D1 PUSH2 0x47B9 PUSH2 0x47A7 DUP7 DUP9 PUSH2 0x39B6 JUMP JUMPDEST MLOAD SWAP7 PUSH2 0x47B3 DUP9 DUP9 PUSH2 0x4A8A JUMP JUMPDEST DUP4 PUSH2 0x4441 JUMP JUMPDEST SWAP1 DUP8 PUSH1 0x20 DUP7 ADD MLOAD SWAP5 PUSH2 0x47CB DUP3 DUP11 PUSH2 0x5BD9 JUMP JUMPDEST SWAP1 PUSH2 0x4ADE JUMP JUMPDEST DUP2 DUP2 LT PUSH2 0x49A3 JUMPI POP POP PUSH2 0x47EB PUSH2 0x482E SWAP5 PUSH1 0x20 DUP4 ADD MLOAD PUSH2 0x5E7F JUMP JUMPDEST PUSH1 0x60 DUP3 ADD MLOAD PUSH1 0xA0 DUP4 ADD MLOAD DUP4 MLOAD PUSH1 0x1 PUSH1 0x1 PUSH1 0xA0 SHL SUB SWAP1 DUP2 AND PUSH0 SWAP1 DUP2 MSTORE PUSH2 0x176 PUSH1 0x20 MSTORE PUSH1 0x40 SWAP1 KECCAK256 SLOAD PUSH2 0x4823 SWAP4 SWAP1 SWAP3 DUP6 SWAP3 SWAP1 DUP2 AND SWAP2 AND PUSH2 0x44B3 JUMP JUMPDEST SWAP6 SWAP2 DUP4 SWAP8 SWAP2 SWAP8 PUSH2 0x39A9 JUMP JUMPDEST SWAP3 PUSH1 0x40 DUP2 ADD MLOAD DUP1 DUP6 GT PUSH2 0x4985 JUMPI POP DUP4 ISZERO PUSH2 0x42BA JUMPI PUSH2 0x48EF PUSH0 SWAP3 PUSH2 0x4241 SWAP5 PUSH1 0x1 DUP1 PUSH1 0xA0 SHL SUB DUP5 MLOAD AND PUSH1 0x1 DUP1 PUSH1 0xA0 SHL SUB PUSH1 0x60 DUP7 ADD MLOAD AND PUSH1 0x1 DUP1 PUSH1 0xA0 SHL SUB PUSH1 0x80 DUP8 ADD MLOAD AND SWAP2 PUSH32 0xBCF2DD35A7B66D878322508590F8C0F2E1042F2101DC031278E3819A304ACE61 DUP11 DUP14 PUSH2 0x48C9 PUSH1 0x20 DUP12 ADD MLOAD SWAP2 DUP12 DUP2 MLOAD SWAP2 PUSH1 0x20 DUP2 ADD MLOAD PUSH1 0x60 PUSH1 0x40 DUP4 ADD MLOAD SWAP3 ADD MLOAD SWAP3 PUSH1 0xA0 PUSH1 0x1 DUP1 DUP3 SHL SUB SWAP2 ADD MLOAD AND SWAP4 PUSH1 0x40 MLOAD SWAP8 DUP9 SWAP8 DUP9 PUSH2 0x5775 JUMP JUMPDEST SUB SWAP1 LOG4 PUSH2 0x48D6 DUP6 DUP3 PUSH2 0x4BFD JUMP JUMPDEST PUSH1 0x20 DUP5 ADD MLOAD PUSH1 0x80 DUP6 ADD MLOAD PUSH1 0x1 PUSH1 0x1 PUSH1 0xA0 SHL SUB AND SWAP3 PUSH2 0x49C1 JUMP JUMPDEST PUSH2 0x28B SLOAD PUSH2 0x490B SWAP1 DUP6 SWAP1 ADDRESS SWAP1 CALLER SWAP1 PUSH1 0x1 PUSH1 0x1 PUSH1 0xA0 SHL SUB AND PUSH2 0x42EA JUMP JUMPDEST PUSH1 0x60 DUP2 ADD MLOAD PUSH1 0xA0 SWAP1 SWAP2 ADD MLOAD PUSH1 0x1 PUSH1 0x1 PUSH1 0xA0 SHL SUB SWAP2 DUP3 AND SWAP2 AND PUSH2 0x492B PUSH2 0x5321 JUMP JUMPDEST DUP7 MLOAD ISZERO ISZERO DUP4 EQ PUSH2 0x4963 JUMPI PUSH2 0x423C SWAP1 PUSH2 0x4231 PUSH8 0xDE0B6B3A7640000 PUSH2 0x4954 PUSH2 0x16D SLOAD DUP12 MLOAD SWAP1 PUSH2 0x3ACE JUMP JUMPDEST DIV PUSH2 0x163 PUSH2 0x4212 DUP3 DUP3 SLOAD PUSH2 0x39A9 JUMP JUMPDEST PUSH2 0x178 SLOAD PUSH1 0x20 DUP9 ADD MLOAD PUSH2 0x423C SWAP3 SWAP2 PUSH2 0x426D SWAP2 SWAP1 PUSH1 0x1 PUSH1 0x1 PUSH1 0xA0 SHL SUB AND DUP6 PUSH2 0x53C2 JUMP JUMPDEST PUSH1 0x44 SWAP1 DUP6 PUSH1 0x40 MLOAD SWAP2 PUSH4 0xB63F1A7 PUSH1 0xE0 SHL DUP4 MSTORE PUSH1 0x4 DUP4 ADD MSTORE PUSH1 0x24 DUP3 ADD MSTORE REVERT JUMPDEST PUSH1 0x44 SWAP3 POP PUSH1 0x40 MLOAD SWAP2 PUSH4 0xC39B739F PUSH1 0xE0 SHL DUP4 MSTORE PUSH1 0x4 DUP4 ADD MSTORE PUSH1 0x24 DUP3 ADD MSTORE REVERT JUMPDEST PUSH2 0x4A38 SWAP4 PUSH2 0x49FF PUSH0 SWAP3 PUSH1 0x20 SWAP6 PUSH2 0x49D9 DUP3 PUSH2 0x169 PUSH2 0x3330 JUMP JUMPDEST POP PUSH2 0x49E5 DUP8 DUP3 SLOAD PUSH2 0x39A9 JUMP JUMPDEST SWAP1 SSTORE PUSH2 0x49F5 PUSH2 0x163 SWAP2 DUP3 SLOAD PUSH2 0x39A9 JUMP JUMPDEST SWAP1 SSTORE PUSH2 0x167 PUSH2 0x3261 JUMP JUMPDEST SWAP1 SLOAD PUSH1 0x40 MLOAD PUSH4 0x40C10F19 PUSH1 0xE0 SHL DUP2 MSTORE PUSH1 0x1 PUSH1 0x1 PUSH1 0xA0 SHL SUB SWAP1 SWAP4 AND PUSH1 0x4 DUP5 ADD MSTORE PUSH1 0x24 DUP4 ADD SWAP5 SWAP1 SWAP5 MSTORE SWAP1 SWAP5 DUP6 SWAP4 SWAP3 DUP5 SWAP3 SWAP1 SWAP2 DUP4 SWAP1 PUSH1 0x44 DUP3 ADD SWAP1 JUMP JUMPDEST SUB SWAP4 PUSH1 0x3 SWAP2 SWAP1 SWAP2 SHL SHR PUSH1 0x1 PUSH1 0x1 PUSH1 0xA0 SHL SUB AND GAS CALL DUP1 ISZERO PUSH2 0x399E JUMPI PUSH2 0x4A59 JUMPI POP JUMP JUMPDEST PUSH1 0x20 DUP2 RETURNDATASIZE DUP3 GT PUSH2 0x4A82 JUMPI JUMPDEST DUP2 PUSH2 0x4A71 PUSH1 0x20 SWAP4 DUP4 PUSH2 0x3349 JUMP JUMPDEST DUP2 ADD SUB SLT PUSH2 0x6D6 JUMPI PUSH2 0x3687 SWAP1 PUSH2 0x3D25 JUMP JUMPDEST RETURNDATASIZE SWAP2 POP PUSH2 0x4A64 JUMP JUMPDEST PUSH2 0x1E8A PUSH2 0x4ADA SWAP2 PUSH2 0x4A9B DUP5 DUP3 PUSH2 0x3B17 JUMP JUMPDEST PUSH2 0x4AD0 PUSH2 0x4AAA DUP4 PUSH2 0x180 PUSH2 0x3261 JUMP JUMPDEST PUSH2 0x4ABD DUP3 SWAP5 SWAP3 SLOAD SWAP3 DUP4 DUP4 PUSH1 0x3 SHL SHR PUSH2 0x3A4F JUMP JUMPDEST SWAP2 SWAP1 PUSH1 0x3 SHL SWAP2 DUP3 SHL SWAP2 PUSH0 NOT SWAP1 SHL NOT AND OR SWAP1 JUMP JUMPDEST SWAP1 SSTORE PUSH2 0x181 PUSH2 0x3261 JUMP JUMPDEST SWAP1 SSTORE JUMP JUMPDEST SWAP2 DUP4 DUP6 SWAP2 PUSH2 0x4AEC SWAP4 DUP6 PUSH2 0x4B36 JUMP JUMPDEST SWAP3 PUSH0 DUP5 SLT SWAP3 DUP4 ISZERO PUSH2 0x4B07 JUMPI JUMPDEST POP POP POP PUSH2 0x4B02 JUMPI SWAP1 JUMP JUMPDEST POP PUSH0 SWAP1 JUMP JUMPDEST PUSH2 0x4B12 SWAP3 SWAP4 POP PUSH2 0x3B6F JUMP JUMPDEST GT ISZERO PUSH0 DUP1 DUP1 PUSH2 0x4AF8 JUMP JUMPDEST DUP2 ISZERO PUSH2 0x3AEB JUMPI PUSH1 0x1 PUSH1 0xFF SHL DUP2 EQ PUSH0 NOT DUP4 EQ AND PUSH2 0x391C JUMPI SDIV SWAP1 JUMP JUMPDEST SWAP3 PUSH2 0x4B44 SWAP3 SWAP6 SWAP5 SWAP2 SWAP4 PUSH2 0x4BC6 JUMP JUMPDEST PUSH0 SWAP4 DUP2 DUP2 MUL SWAP2 SWAP1 DUP6 DUP3 SLT PUSH1 0x1 PUSH1 0xFF SHL DUP3 EQ AND PUSH2 0x4BB2 JUMPI DUP2 DUP4 SDIV EQ SWAP1 ISZERO OR ISZERO PUSH2 0x4B9E JUMPI PUSH8 0xDE0B6B3A763FFFF NOT DUP3 ADD SWAP2 DUP3 GT PUSH2 0x4B9E JUMPI PUSH8 0xDE0B6B3A7640000 SWAP2 DUP3 DUP2 MUL SWAP3 DUP2 DUP5 DIV EQ SWAP1 ISZERO OR ISZERO PUSH2 0x4B9E JUMPI PUSH2 0x32DE SWAP3 SWAP4 POP PUSH2 0x4B1C JUMP JUMPDEST PUSH4 0x4E487B71 PUSH1 0xE0 SHL DUP5 MSTORE PUSH1 0x11 PUSH1 0x4 MSTORE PUSH1 0x24 DUP5 REVERT JUMPDEST PUSH4 0x4E487B71 PUSH1 0xE0 SHL DUP7 MSTORE PUSH1 0x11 PUSH1 0x4 MSTORE PUSH1 0x24 DUP7 REVERT JUMPDEST SWAP1 SWAP2 PUSH2 0x4BD5 SWAP1 PUSH2 0x163 SLOAD PUSH2 0x390F JUMP JUMPDEST SWAP1 PUSH8 0xDE0B6B3A7640000 SWAP2 DUP3 DUP2 MUL SWAP3 DUP2 DUP5 DIV EQ SWAP1 ISZERO OR ISZERO PUSH2 0x391C JUMPI PUSH2 0x32DE SWAP3 PUSH2 0x3B69 SWAP2 PUSH2 0x3ACE JUMP JUMPDEST DUP1 PUSH2 0x4C06 PUSH2 0x3E90 JUMP JUMPDEST SWAP2 SWAP1 SWAP4 PUSH2 0x4C12 PUSH0 PUSH2 0x3DEA JUMP JUMPDEST SWAP5 ADD SWAP4 DUP3 SWAP2 PUSH2 0x4CA9 JUMPI JUMPDEST ADD SWAP4 DUP5 PUSH0 DUP1 DUP3 SLT PUSH2 0x4CA3 JUMPI POP JUMPDEST DUP5 SUB SWAP2 DUP2 DUP6 GT PUSH2 0x4C6B JUMPI POP POP DUP2 DUP2 GT PUSH2 0x4C4D JUMPI POP POP PUSH2 0x185 SSTORE PUSH2 0x186 SSTORE NUMBER PUSH2 0x187 SSTORE JUMP JUMPDEST PUSH1 0x44 SWAP3 POP PUSH1 0x40 MLOAD SWAP2 PUSH4 0x6DA41E5 PUSH1 0xE1 SHL DUP4 MSTORE PUSH1 0x4 DUP4 ADD MSTORE PUSH1 0x24 DUP3 ADD MSTORE REVERT JUMPDEST SWAP1 DUP1 DUP6 SWAP3 GT PUSH2 0x4C91 JUMPI PUSH1 0x44 SWAP2 PUSH1 0x40 MLOAD SWAP2 PUSH4 0x6DA41E5 PUSH1 0xE1 SHL DUP4 MSTORE PUSH1 0x4 DUP4 ADD MSTORE PUSH1 0x24 DUP3 ADD MSTORE REVERT JUMPDEST PUSH1 0x40 MLOAD PUSH4 0xFB4FD35 PUSH1 0xE1 SHL DUP2 MSTORE PUSH1 0x4 SWAP1 REVERT JUMPDEST SUB PUSH2 0x4C29 JUMP JUMPDEST SWAP1 POP DUP2 PUSH0 SUB SWAP1 PUSH2 0x4C1C JUMP JUMPDEST DUP1 SWAP2 SUB PUSH1 0xE0 DUP2 SLT PUSH2 0x6D6 JUMPI DUP2 MLOAD SWAP3 PUSH1 0x20 DUP4 ADD MLOAD SWAP3 PUSH1 0x80 PUSH1 0x40 DUP3 ADD MLOAD SWAP4 PUSH1 0x5F NOT ADD SLT PUSH2 0x6D6 JUMPI PUSH1 0xC0 PUSH1 0x40 MLOAD SWAP2 PUSH2 0x4CEA PUSH1 0x80 DUP5 PUSH2 0x3349 JUMP JUMPDEST PUSH1 0x60 DUP2 ADD MLOAD DUP4 MSTORE PUSH1 0x80 DUP2 ADD MLOAD PUSH1 0x20 DUP5 ADD MSTORE PUSH1 0xA0 DUP2 ADD MLOAD PUSH1 0x40 DUP5 ADD MSTORE ADD MLOAD PUSH1 0x60 DUP3 ADD MSTORE SWAP1 JUMP JUMPDEST SWAP1 PUSH2 0x4D18 PUSH2 0x3FE7 JUMP JUMPDEST POP PUSH2 0x4D21 PUSH2 0x441F JUMP JUMPDEST PUSH2 0x4D29 PUSH2 0x5E5E JUMP JUMPDEST PUSH0 PUSH1 0x40 MLOAD SWAP2 PUSH4 0x7225DA89 PUSH1 0xE1 SHL PUSH1 0x20 DUP5 ADD MSTORE PUSH1 0x1 DUP1 PUSH1 0xA0 SHL SUB DUP5 MLOAD AND PUSH1 0x24 DUP5 ADD MSTORE PUSH1 0x20 DUP5 ADD SWAP4 DUP5 MLOAD PUSH1 0x44 DUP6 ADD MSTORE PUSH1 0x40 DUP2 ADD MLOAD PUSH1 0x64 DUP6 ADD MSTORE PUSH1 0x1 DUP1 PUSH1 0xA0 SHL SUB PUSH1 0x60 DUP3 ADD MLOAD AND PUSH1 0x84 DUP6 ADD MSTORE PUSH2 0x4E97 PUSH2 0x4DBF PUSH2 0x4DB0 PUSH1 0x80 DUP5 ADD SWAP7 PUSH1 0x1 DUP1 PUSH1 0xA0 SHL SUB DUP9 MLOAD AND PUSH1 0xA4 DUP3 ADD MSTORE PUSH1 0x1 DUP1 PUSH1 0xA0 SHL SUB PUSH1 0xA0 DUP7 ADD MLOAD AND PUSH1 0xC4 DUP3 ADD MSTORE PUSH1 0xC4 DUP2 MSTORE PUSH2 0x9D9 PUSH1 0xE4 DUP3 PUSH2 0x3349 JUMP JUMPDEST PUSH1 0x20 DUP1 DUP3 MLOAD DUP4 ADD ADD SWAP2 ADD PUSH2 0x4CB4 JUMP JUMPDEST SWAP7 SWAP3 SWAP5 SWAP2 SWAP9 SWAP1 SWAP8 PUSH1 0x1 DUP1 PUSH1 0xA0 SHL SUB DUP4 MLOAD AND PUSH32 0x2027743D48A615D54941306FD36C7EC4F15155B7837F1D1FAC001F9FCA73970F PUSH1 0x1 DUP1 PUSH1 0xA0 SHL SUB PUSH1 0x60 DUP7 ADD MLOAD AND SWAP3 PUSH1 0x1 DUP1 PUSH1 0xA0 SHL SUB SWAP1 MLOAD AND SWAP4 MLOAD DUP13 PUSH2 0x4E78 DUP11 DUP14 DUP1 MLOAD SWAP1 PUSH1 0x20 DUP2 ADD MLOAD PUSH1 0x60 PUSH1 0x40 DUP4 ADD MLOAD SWAP3 ADD MLOAD SWAP3 DUP13 PUSH1 0xA0 PUSH1 0x1 DUP1 DUP3 SHL SUB SWAP2 ADD MLOAD AND SWAP5 PUSH1 0x40 MLOAD SWAP9 DUP10 SWAP9 DUP10 SWAP7 SWAP4 SWAP1 SWAP9 SWAP8 SWAP5 SWAP2 SWAP3 PUSH1 0xE0 SWAP7 SWAP4 PUSH2 0x100 DUP10 ADD SWAP11 DUP10 MSTORE PUSH1 0x20 DUP10 ADD MSTORE PUSH1 0x40 DUP9 ADD MSTORE PUSH1 0x60 DUP8 ADD MSTORE PUSH1 0x80 DUP7 ADD MSTORE PUSH1 0xA0 DUP6 ADD MSTORE PUSH1 0xC0 DUP5 ADD MSTORE PUSH1 0x1 DUP1 PUSH1 0xA0 SHL SUB AND SWAP2 ADD MSTORE JUMP JUMPDEST SUB SWAP1 LOG4 PUSH2 0x28B SLOAD PUSH2 0x490B SWAP1 DUP6 SWAP1 ADDRESS SWAP1 CALLER SWAP1 PUSH1 0x1 PUSH1 0x1 PUSH1 0xA0 SHL SUB AND PUSH2 0x42EA JUMP JUMPDEST PUSH1 0x1 PUSH2 0x12F SSTORE SWAP4 SWAP3 SWAP2 SWAP1 JUMP JUMPDEST SWAP1 PUSH2 0x32DE SWAP2 PUSH0 DUP1 PUSH2 0x4EB2 PUSH2 0x37BA JUMP JUMPDEST SWAP4 PUSH1 0x20 DUP2 MLOAD SWAP2 ADD DUP5 GAS DELEGATECALL PUSH2 0x3681 PUSH2 0x380E JUMP JUMPDEST SWAP1 PUSH0 SWAP3 PUSH2 0x4F78 PUSH2 0x4DB0 PUSH2 0x4E97 SWAP4 PUSH2 0x4ED9 PUSH2 0x3FE7 JUMP JUMPDEST POP PUSH2 0x4EE2 PUSH2 0x441F JUMP JUMPDEST PUSH2 0x4EEA PUSH2 0x5E5E JUMP JUMPDEST PUSH1 0x40 DUP1 MLOAD PUSH4 0x1740B6E3 PUSH1 0xE1 SHL PUSH1 0x20 DUP1 DUP4 ADD SWAP2 SWAP1 SWAP2 MSTORE DUP9 MLOAD PUSH1 0x1 PUSH1 0x1 PUSH1 0xA0 SHL SUB SWAP1 DUP2 AND PUSH1 0x24 DUP5 ADD MSTORE SWAP1 DUP10 ADD MLOAD DUP2 AND PUSH1 0x44 DUP4 ADD MSTORE SWAP2 DUP9 ADD MLOAD PUSH1 0x64 DUP3 ADD MSTORE PUSH1 0x60 DUP9 ADD MLOAD PUSH1 0x84 DUP3 ADD MSTORE PUSH1 0x80 DUP9 ADD MLOAD PUSH1 0xA4 DUP3 ADD MSTORE PUSH1 0xA0 DUP9 ADD MLOAD DUP3 AND PUSH1 0xC4 DUP3 ADD MSTORE PUSH1 0xC0 DUP9 ADD MLOAD DUP3 AND PUSH1 0xE4 DUP3 ADD MSTORE PUSH1 0xE0 DUP9 ADD MLOAD DUP3 AND PUSH2 0x104 DUP3 ADD MSTORE SWAP2 AND PUSH2 0x124 DUP1 DUP4 ADD SWAP2 SWAP1 SWAP2 MSTORE DUP2 MSTORE PUSH2 0x9D9 PUSH2 0x144 DUP3 PUSH2 0x3349 JUMP JUMPDEST SWAP5 SWAP2 SWAP7 SWAP1 SWAP6 PUSH1 0x1 DUP1 PUSH1 0xA0 SHL SUB DUP2 MLOAD AND PUSH1 0x1 DUP1 PUSH1 0xA0 SHL SUB PUSH1 0x20 DUP4 ADD MLOAD AND SWAP1 PUSH1 0x1 DUP1 PUSH1 0xA0 SHL SUB PUSH1 0xA0 DUP5 ADD MLOAD AND SWAP1 PUSH32 0xE2C83B7332B25DA226005E313FA95068D29D93D740B0BBD0B440615EF02F8CC4 PUSH2 0x100 PUSH1 0x1 DUP1 PUSH1 0xA0 SHL SUB PUSH1 0xC0 DUP8 ADD MLOAD AND SWAP5 DUP14 PUSH1 0x40 DUP9 ADD MLOAD SWAP1 DUP14 DUP1 MLOAD PUSH1 0x20 DUP3 ADD MLOAD SWAP1 PUSH1 0x60 PUSH1 0x40 DUP5 ADD MLOAD SWAP4 ADD MLOAD SWAP4 DUP13 PUSH1 0xE0 PUSH1 0x1 DUP1 PUSH1 0xA0 SHL SUB SWAP2 ADD MLOAD AND SWAP6 PUSH1 0x40 MLOAD SWAP8 DUP9 MSTORE PUSH1 0x20 DUP9 ADD MSTORE PUSH1 0x40 DUP8 ADD MSTORE PUSH1 0x60 DUP7 ADD MSTORE PUSH1 0x80 DUP6 ADD MSTORE PUSH1 0xA0 DUP5 ADD MSTORE PUSH1 0xC0 DUP4 ADD MSTORE PUSH1 0xE0 DUP3 ADD MSTORE LOG4 PUSH2 0x28B SLOAD PUSH2 0x5045 SWAP1 DUP6 SWAP1 ADDRESS SWAP1 CALLER SWAP1 PUSH1 0x1 PUSH1 0x1 PUSH1 0xA0 SHL SUB AND PUSH2 0x42EA JUMP JUMPDEST PUSH1 0xA0 DUP2 ADD MLOAD PUSH1 0xE0 SWAP1 SWAP2 ADD MLOAD PUSH1 0x1 PUSH1 0x1 PUSH1 0xA0 SHL SUB SWAP2 DUP3 AND SWAP2 AND PUSH2 0x492B PUSH2 0x5321 JUMP JUMPDEST SWAP1 SWAP3 SWAP2 PUSH1 0xC0 PUSH1 0xE0 SWAP2 PUSH2 0x100 DUP5 ADD SWAP6 PUSH1 0x1 DUP1 PUSH1 0xA0 SHL SUB SWAP3 DUP2 DUP5 DUP1 SWAP4 MLOAD AND DUP8 MSTORE PUSH1 0x20 DUP2 ADD MLOAD PUSH1 0x20 DUP9 ADD MSTORE PUSH1 0x40 DUP2 ADD MLOAD PUSH1 0x40 DUP9 ADD MSTORE PUSH1 0x60 DUP2 ADD MLOAD PUSH1 0x60 DUP9 ADD MSTORE DUP3 PUSH1 0x80 DUP3 ADD MLOAD AND PUSH1 0x80 DUP9 ADD MSTORE DUP3 PUSH1 0xA0 DUP3 ADD MLOAD AND PUSH1 0xA0 DUP9 ADD MSTORE ADD MLOAD AND PUSH1 0xC0 DUP6 ADD MSTORE AND SWAP2 ADD MSTORE JUMP JUMPDEST SWAP1 PUSH0 SWAP3 PUSH2 0x5110 PUSH2 0x4DB0 PUSH2 0x9CB PUSH2 0x9D9 PUSH2 0x4E97 SWAP6 PUSH2 0x50E2 PUSH2 0x3FE7 JUMP JUMPDEST POP PUSH2 0x50EB PUSH2 0x441F JUMP JUMPDEST PUSH2 0x50F3 PUSH2 0x5E5E JUMP JUMPDEST PUSH1 0x40 MLOAD PUSH4 0xAB6DD71D PUSH1 0xE0 SHL PUSH1 0x20 DUP3 ADD MSTORE SWAP3 DUP4 SWAP2 DUP10 PUSH1 0x24 DUP5 ADD PUSH2 0x5065 JUMP JUMPDEST SWAP5 SWAP2 SWAP7 SWAP1 SWAP6 DUP8 DUP7 PUSH1 0x1 DUP1 PUSH1 0xA0 SHL SUB DUP4 MLOAD AND PUSH1 0x80 DUP5 ADD SWAP1 PUSH1 0x1 DUP1 PUSH1 0xA0 SHL SUB DUP3 MLOAD AND PUSH1 0x1 DUP1 PUSH1 0xA0 SHL SUB PUSH1 0xA0 DUP8 ADD MLOAD AND SWAP2 PUSH32 0x7E56A428E0421AAC1DABE4207701C8A9CF0B76F6D7AB85F73D98A86294C992FC PUSH1 0x20 DUP9 ADD MLOAD SWAP7 DUP7 MLOAD SWAP8 PUSH2 0x519C PUSH1 0x20 DUP10 ADD SWAP10 DUP11 MLOAD SWAP12 PUSH1 0x40 DUP12 ADD SWAP11 PUSH1 0xC0 PUSH1 0x60 DUP14 MLOAD SWAP3 ADD MLOAD SWAP3 ADD SWAP14 DUP15 PUSH1 0x1 DUP1 PUSH1 0xA0 SHL SUB SWAP1 MLOAD AND SWAP4 PUSH1 0x40 MLOAD SWAP8 DUP9 SWAP8 DUP9 PUSH2 0x5775 JUMP JUMPDEST SUB SWAP1 LOG4 PUSH2 0x28B SLOAD PUSH2 0x51BB SWAP1 DUP9 SWAP1 ADDRESS SWAP1 CALLER SWAP1 PUSH1 0x1 PUSH1 0x1 PUSH1 0xA0 SHL SUB AND PUSH2 0x42EA JUMP JUMPDEST MLOAD SWAP3 MLOAD PUSH1 0x1 PUSH1 0x1 PUSH1 0xA0 SHL SUB SWAP4 DUP5 AND SWAP4 AND SWAP1 PUSH2 0x51D4 PUSH2 0x5321 JUMP JUMPDEST DUP9 MLOAD ISZERO ISZERO DUP6 EQ PUSH2 0x522D JUMPI PUSH2 0x423C SWAP3 POP PUSH2 0x5226 PUSH8 0xDE0B6B3A7640000 PUSH2 0x51FE PUSH2 0x16D SLOAD DUP13 MLOAD SWAP1 PUSH2 0x3ACE JUMP JUMPDEST DIV PUSH2 0x163 PUSH2 0x520D DUP3 DUP3 SLOAD PUSH2 0x39A9 JUMP JUMPDEST SWAP1 SSTORE PUSH2 0x422B PUSH1 0x1 DUP1 PUSH1 0xA0 SHL SUB PUSH2 0x178 SLOAD AND SWAP2 DUP13 MLOAD PUSH2 0x390F JUMP JUMPDEST MLOAD SWAP1 PUSH2 0x5378 JUMP JUMPDEST POP PUSH2 0x178 SLOAD SWAP2 MLOAD PUSH2 0x423C SWAP3 PUSH2 0x426D SWAP2 SWAP1 PUSH1 0x1 PUSH1 0x1 PUSH1 0xA0 SHL SUB AND DUP6 PUSH2 0x53C2 JUMP JUMPDEST SWAP1 PUSH0 SWAP3 PUSH2 0x5295 PUSH2 0x4DB0 PUSH2 0x9CB PUSH2 0x9D9 PUSH2 0x4E97 SWAP6 PUSH2 0x5267 PUSH2 0x3FE7 JUMP JUMPDEST POP PUSH2 0x5270 PUSH2 0x441F JUMP JUMPDEST PUSH2 0x5278 PUSH2 0x5E5E JUMP JUMPDEST PUSH1 0x40 MLOAD PUSH4 0x474C3ADD PUSH1 0xE1 SHL PUSH1 0x20 DUP3 ADD MSTORE SWAP3 DUP4 SWAP2 DUP10 PUSH1 0x24 DUP5 ADD PUSH2 0x5065 JUMP JUMPDEST SWAP5 SWAP2 SWAP7 SWAP1 SWAP6 DUP8 DUP7 PUSH1 0x1 DUP1 PUSH1 0xA0 SHL SUB DUP4 MLOAD AND PUSH1 0x80 DUP5 ADD SWAP1 PUSH1 0x1 DUP1 PUSH1 0xA0 SHL SUB DUP3 MLOAD AND PUSH1 0x1 DUP1 PUSH1 0xA0 SHL SUB PUSH1 0xA0 DUP8 ADD MLOAD AND SWAP2 PUSH32 0x21AB49EBA1E974AA50C50AEC84DE10487A4198E478B26AFB214FD269E60E3190 PUSH1 0x20 DUP9 ADD MLOAD SWAP7 DUP7 MLOAD SWAP8 PUSH2 0x519C PUSH1 0x20 DUP10 ADD SWAP10 DUP11 MLOAD SWAP12 PUSH1 0x40 DUP12 ADD SWAP11 PUSH1 0xC0 PUSH1 0x60 DUP14 MLOAD SWAP3 ADD MLOAD SWAP3 ADD SWAP14 DUP15 PUSH1 0x1 DUP1 PUSH1 0xA0 SHL SUB SWAP1 MLOAD AND SWAP4 PUSH1 0x40 MLOAD SWAP8 DUP9 SWAP8 DUP9 PUSH2 0x5775 JUMP JUMPDEST PUSH2 0x12F PUSH1 0x2 DUP2 SLOAD EQ PUSH2 0x5333 JUMPI PUSH1 0x2 SWAP1 SSTORE JUMP JUMPDEST PUSH1 0x40 MLOAD PUSH3 0x461BCD PUSH1 0xE5 SHL DUP2 MSTORE PUSH1 0x20 PUSH1 0x4 DUP3 ADD MSTORE PUSH1 0x1F PUSH1 0x24 DUP3 ADD MSTORE PUSH32 0x5265656E7472616E637947756172643A207265656E7472616E742063616C6C00 PUSH1 0x44 DUP3 ADD MSTORE PUSH1 0x64 SWAP1 REVERT JUMPDEST SWAP1 DUP1 PUSH2 0x5382 JUMPI POP POP JUMP JUMPDEST PUSH2 0x28B SLOAD PUSH1 0x40 MLOAD PUSH4 0xA9059CBB PUSH1 0xE0 SHL PUSH1 0x20 DUP3 ADD MSTORE PUSH1 0x1 PUSH1 0x1 PUSH1 0xA0 SHL SUB SWAP4 DUP5 AND PUSH1 0x24 DUP3 ADD MSTORE PUSH1 0x44 DUP1 DUP3 ADD SWAP4 SWAP1 SWAP4 MSTORE SWAP2 DUP3 MSTORE PUSH2 0x3565 SWAP3 AND PUSH2 0x432E PUSH1 0x64 DUP4 PUSH2 0x3349 JUMP JUMPDEST SWAP2 SWAP1 DUP2 PUSH2 0x53CE JUMPI POP POP POP JUMP JUMPDEST PUSH2 0x161 SLOAD PUSH2 0x3565 SWAP4 SWAP1 PUSH1 0x1 PUSH1 0x1 PUSH1 0xA0 SHL SUB AND PUSH2 0x42EA JUMP JUMPDEST PUSH2 0x5453 SWAP2 PUSH2 0x53F1 PUSH2 0x5E5E JUMP JUMPDEST PUSH2 0x53F9 PUSH2 0x5321 JUMP JUMPDEST PUSH2 0x5402 ADDRESS PUSH2 0x3930 JUMP JUMPDEST PUSH1 0x40 MLOAD PUSH4 0x6845C445 PUSH1 0xE0 SHL PUSH1 0x20 DUP3 ADD MSTORE PUSH1 0x1 PUSH1 0x1 PUSH1 0xA0 SHL SUB SWAP4 DUP5 AND PUSH1 0x24 DUP3 ADD MSTORE SWAP2 DUP4 AND PUSH1 0x44 DUP4 ADD MSTORE DUP5 DUP4 AND PUSH1 0x64 DUP4 ADD MSTORE PUSH1 0x84 DUP1 DUP4 ADD SWAP2 SWAP1 SWAP2 MSTORE DUP2 MSTORE SWAP1 PUSH2 0x5449 PUSH1 0xA4 DUP4 PUSH2 0x3349 JUMP JUMPDEST PUSH2 0x226 SLOAD AND PUSH2 0x4EA3 JUMP JUMPDEST PUSH1 0x20 DUP2 DUP1 MLOAD DUP2 ADD SUB SLT PUSH2 0x6D6 JUMPI PUSH1 0x20 PUSH2 0x546F SWAP2 ADD MLOAD DUP1 SWAP3 PUSH2 0x5378 JUMP JUMPDEST PUSH1 0x1 PUSH2 0x12F SSTORE SWAP1 JUMP JUMPDEST PUSH1 0xE0 DUP2 ADD SWAP3 SWAP2 PUSH1 0xC0 SWAP1 DUP2 SWAP1 PUSH1 0x1 PUSH1 0x1 PUSH1 0xA0 SHL SUB DUP1 PUSH2 0x5495 DUP4 PUSH2 0x328A JUMP JUMPDEST AND DUP6 MSTORE PUSH2 0x54A4 PUSH1 0x20 DUP4 ADD PUSH2 0x328A JUMP JUMPDEST AND PUSH1 0x20 DUP6 ADD MSTORE PUSH1 0x40 DUP2 ADD CALLDATALOAD PUSH1 0x40 DUP6 ADD MSTORE PUSH1 0x60 DUP2 ADD CALLDATALOAD PUSH1 0x60 DUP6 ADD MSTORE PUSH1 0x80 DUP2 ADD CALLDATALOAD PUSH1 0x80 DUP6 ADD MSTORE PUSH1 0xA0 DUP2 ADD CALLDATALOAD PUSH1 0xA0 DUP6 ADD MSTORE ADD CALLDATALOAD SWAP2 ADD MSTORE JUMP JUMPDEST PUSH2 0x17F SLOAD DUP1 NUMBER LT ISZERO PUSH2 0x4B02 JUMPI PUSH2 0x32DE SWAP1 NUMBER SWAP1 PUSH2 0x390F JUMP JUMPDEST SWAP1 SWAP2 PUSH2 0x54FA PUSH2 0x3FE7 JUMP JUMPDEST POP PUSH2 0x5503 PUSH2 0x441F JUMP JUMPDEST PUSH2 0x550B PUSH2 0x5E5E JUMP JUMPDEST PUSH2 0x5513 PUSH2 0x5D3E JUMP JUMPDEST PUSH2 0x5526 PUSH2 0x551E PUSH2 0x5C7C JUMP JUMPDEST DUP2 SWAP3 SWAP2 PUSH2 0x4441 JUMP JUMPDEST SWAP1 SWAP2 PUSH2 0x5535 DUP3 DUP5 DUP8 MLOAD SWAP4 PUSH2 0x575D JUMP JUMPDEST DUP2 DUP2 LT PUSH2 0x573F JUMPI POP POP PUSH8 0xDE0B6B3A7640000 SWAP2 PUSH2 0x4056 PUSH2 0x5557 SWAP3 DUP7 MLOAD SWAP3 PUSH2 0x4484 JUMP JUMPDEST DIV SWAP2 DUP3 ISZERO PUSH2 0x42BA JUMPI PUSH1 0x40 DUP2 ADD MLOAD PUSH1 0x80 DUP3 ADD MLOAD PUSH2 0x16F SLOAD PUSH2 0x5595 SWAP7 SWAP3 PUSH2 0x558A SWAP3 DUP8 SWAP2 PUSH1 0x1 PUSH1 0x1 PUSH1 0xA0 SHL SUB SWAP2 DUP3 AND SWAP2 AND PUSH2 0x44B3 JUMP JUMPDEST SWAP6 SWAP2 DUP3 SWAP8 SWAP2 SWAP8 PUSH2 0x390F JUMP JUMPDEST SWAP3 PUSH1 0x20 DUP2 ADD MLOAD DUP1 DUP6 LT PUSH2 0x5721 JUMPI POP DUP6 PUSH1 0x1 DUP1 PUSH1 0xA0 SHL SUB PUSH1 0x40 DUP4 ADD MLOAD AND PUSH1 0x1 DUP1 PUSH1 0xA0 SHL SUB PUSH1 0x60 DUP5 ADD MLOAD AND SWAP1 PUSH32 0xF47EA38B2DBACD4EA4E4C63F21B558D8ACD7CF60181E4CA6C2E09BF1EF6C91DF DUP8 DUP6 MLOAD PUSH2 0x5614 DUP7 MLOAD PUSH1 0x20 DUP9 ADD MLOAD PUSH1 0x60 PUSH1 0x40 DUP11 ADD MLOAD SWAP10 ADD SWAP9 DUP10 MLOAD SWAP2 PUSH1 0x1 DUP1 PUSH1 0xA0 SHL SUB PUSH1 0x80 DUP14 ADD MLOAD AND SWAP4 PUSH1 0x40 MLOAD SWAP8 DUP9 SWAP8 DUP9 PUSH2 0x5775 JUMP JUMPDEST SUB SWAP1 LOG3 DUP2 MLOAD SWAP4 PUSH2 0x166 PUSH2 0x5628 DUP7 DUP3 SLOAD PUSH2 0x390F JUMP JUMPDEST SWAP1 SSTORE PUSH2 0x5638 PUSH2 0x163 SWAP5 DUP6 SLOAD PUSH2 0x390F JUMP JUMPDEST DUP5 SSTORE PUSH2 0x165 SLOAD PUSH1 0x1 PUSH1 0x1 PUSH1 0xA0 SHL SUB AND SWAP5 DUP6 EXTCODESIZE ISZERO PUSH2 0x6D6 JUMPI PUSH1 0x40 MLOAD PUSH4 0x2770A7EB PUSH1 0xE2 SHL DUP2 MSTORE PUSH1 0x1 PUSH1 0x1 PUSH1 0xA0 SHL SUB SWAP3 SWAP1 SWAP3 AND PUSH1 0x4 DUP4 ADD MSTORE PUSH1 0x24 DUP3 ADD MSTORE SWAP4 PUSH0 SWAP1 DUP6 SWAP1 PUSH1 0x44 SWAP1 DUP3 SWAP1 DUP5 SWAP1 GAS CALL SWAP3 DUP4 ISZERO PUSH2 0x399E JUMPI PUSH2 0x4241 SWAP5 DUP7 SWAP5 PUSH2 0x5711 JUMPI JUMPDEST POP PUSH1 0x40 DUP4 ADD MLOAD PUSH1 0x60 DUP5 ADD MLOAD PUSH1 0x80 SWAP1 SWAP5 ADD MLOAD PUSH1 0x1 PUSH1 0x1 PUSH1 0xA0 SHL SUB SWAP5 DUP6 AND SWAP5 SWAP1 DUP2 AND SWAP4 SWAP2 AND SWAP1 PUSH2 0x56BE PUSH2 0x5321 JUMP JUMPDEST DUP10 MLOAD ISZERO PUSH2 0x56E7 JUMPI POP POP SWAP1 PUSH2 0x4231 PUSH2 0x423C SWAP3 PUSH8 0xDE0B6B3A7640000 PUSH2 0x4205 PUSH2 0x16D SLOAD DUP13 MLOAD SWAP1 PUSH2 0x3ACE JUMP JUMPDEST PUSH2 0x178 SLOAD PUSH1 0x20 DUP12 ADD MLOAD PUSH2 0x423C SWAP6 SWAP4 SWAP5 POP PUSH2 0x570A SWAP2 PUSH1 0x1 PUSH1 0x1 PUSH1 0xA0 SHL SUB AND DUP6 PUSH2 0x53C2 JUMP JUMPDEST MLOAD SWAP2 PUSH2 0x53C2 JUMP JUMPDEST PUSH0 PUSH2 0x571B SWAP2 PUSH2 0x3349 JUMP JUMPDEST PUSH0 PUSH2 0x5692 JUMP JUMPDEST PUSH1 0x44 SWAP1 DUP6 PUSH1 0x40 MLOAD SWAP2 PUSH4 0x54CDE313 PUSH1 0xE0 SHL DUP4 MSTORE PUSH1 0x4 DUP4 ADD MSTORE PUSH1 0x24 DUP3 ADD MSTORE REVERT JUMPDEST PUSH1 0x44 SWAP3 POP PUSH1 0x40 MLOAD SWAP2 PUSH4 0xA5DB715D PUSH1 0xE0 SHL DUP4 MSTORE PUSH1 0x4 DUP4 ADD MSTORE PUSH1 0x24 DUP3 ADD MSTORE REVERT JUMPDEST PUSH2 0x4AEC PUSH2 0x576B DUP5 DUP5 DUP5 PUSH2 0x4BC6 JUMP JUMPDEST PUSH2 0x248E DUP6 DUP6 PUSH2 0x4484 JUMP JUMPDEST SWAP6 SWAP3 PUSH1 0xC0 SWAP6 SWAP3 SWAP9 SWAP8 SWAP5 SWAP2 SWAP9 PUSH1 0xE0 DUP9 ADD SWAP10 DUP9 MSTORE PUSH1 0x20 DUP9 ADD MSTORE PUSH1 0x40 DUP8 ADD MSTORE PUSH1 0x60 DUP7 ADD MSTORE PUSH1 0x80 DUP6 ADD MSTORE PUSH1 0xA0 DUP5 ADD MSTORE PUSH1 0x1 DUP1 PUSH1 0xA0 SHL SUB AND SWAP2 ADD MSTORE JUMP JUMPDEST SWAP1 SWAP2 PUSH2 0x5855 SWAP3 PUSH2 0x57BB PUSH2 0x3FE7 JUMP JUMPDEST POP PUSH2 0x57C4 PUSH2 0x441F JUMP JUMPDEST PUSH2 0x57CC PUSH2 0x5E5E JUMP JUMPDEST PUSH2 0x57D4 PUSH2 0x3DB1 JUMP JUMPDEST DUP4 MLOAD PUSH2 0x5812 SWAP1 PUSH2 0x57EC SWAP1 PUSH1 0x1 PUSH1 0x1 PUSH1 0xA0 SHL SUB AND PUSH2 0x3CA4 JUMP JUMPDEST SWAP2 PUSH2 0x5806 PUSH2 0x57FA DUP5 DUP4 PUSH2 0x39B6 JUMP JUMPDEST MLOAD SWAP2 PUSH2 0x4044 DUP4 DUP7 PUSH2 0x4A8A JUMP JUMPDEST POP POP PUSH1 0x20 DUP7 ADD MLOAD PUSH2 0x5E7F JUMP JUMPDEST PUSH1 0x60 DUP6 ADD MLOAD PUSH1 0xA0 DUP7 ADD MLOAD DUP7 MLOAD PUSH1 0x1 PUSH1 0x1 PUSH1 0xA0 SHL SUB SWAP1 DUP2 AND PUSH0 SWAP1 DUP2 MSTORE PUSH2 0x177 PUSH1 0x20 MSTORE PUSH1 0x40 SWAP1 KECCAK256 SLOAD PUSH2 0x584A SWAP4 SWAP1 SWAP3 DUP6 SWAP3 SWAP1 DUP2 AND SWAP2 AND PUSH2 0x44B3 JUMP JUMPDEST SWAP7 SWAP2 DUP4 SWAP9 SWAP2 SWAP9 PUSH2 0x390F JUMP JUMPDEST SWAP4 DUP3 ISZERO PUSH2 0x42BA JUMPI PUSH1 0x40 DUP3 ADD MLOAD DUP1 DUP7 LT PUSH2 0x5A1D JUMPI POP PUSH1 0x1 DUP1 PUSH1 0xA0 SHL SUB DUP3 MLOAD AND PUSH1 0x1 DUP1 PUSH1 0xA0 SHL SUB PUSH1 0x60 DUP5 ADD MLOAD AND PUSH1 0x1 DUP1 PUSH1 0xA0 SHL SUB PUSH1 0x80 DUP6 ADD MLOAD AND SWAP2 PUSH32 0x9A7C695D191E65E20D74A5FD655A98FA9323ED1F504360E03DEFC63E668B4728 DUP9 PUSH1 0x20 DUP8 ADD MLOAD PUSH2 0x58E7 DUP14 DUP1 MLOAD SWAP1 PUSH1 0x20 DUP2 ADD MLOAD SWAP1 PUSH1 0x60 PUSH1 0x40 DUP3 ADD MLOAD SWAP2 ADD MLOAD SWAP2 DUP13 PUSH1 0xA0 PUSH1 0x1 DUP1 DUP3 SHL SUB SWAP2 ADD MLOAD AND SWAP4 PUSH1 0x40 MLOAD SWAP8 DUP9 SWAP8 DUP9 PUSH2 0x5775 JUMP JUMPDEST SUB SWAP1 LOG4 PUSH2 0x58F5 PUSH1 0x1 DUP7 PUSH2 0x4BFD JUMP JUMPDEST PUSH2 0x5930 PUSH1 0x20 DUP4 ADD MLOAD SWAP5 PUSH2 0x590A DUP2 PUSH2 0x169 PUSH2 0x3330 JUMP JUMPDEST POP PUSH2 0x5916 DUP8 DUP3 SLOAD PUSH2 0x390F JUMP JUMPDEST SWAP1 SSTORE PUSH2 0x5926 PUSH2 0x163 SWAP6 DUP7 SLOAD PUSH2 0x390F JUMP JUMPDEST DUP6 SSTORE PUSH2 0x167 PUSH2 0x3261 JUMP JUMPDEST SWAP1 SLOAD PUSH1 0x3 SWAP2 SWAP1 SWAP2 SHL SHR PUSH1 0x1 PUSH1 0x1 PUSH1 0xA0 SHL SUB AND SWAP4 DUP5 EXTCODESIZE ISZERO PUSH2 0x6D6 JUMPI PUSH1 0x40 MLOAD PUSH4 0x2770A7EB PUSH1 0xE2 SHL DUP2 MSTORE PUSH1 0x1 PUSH1 0x1 PUSH1 0xA0 SHL SUB SWAP3 SWAP1 SWAP3 AND PUSH1 0x4 DUP4 ADD MSTORE PUSH1 0x24 DUP3 ADD MSTORE SWAP3 PUSH0 SWAP1 DUP5 SWAP1 PUSH1 0x44 SWAP1 DUP3 SWAP1 DUP5 SWAP1 GAS CALL SWAP2 DUP3 ISZERO PUSH2 0x399E JUMPI PUSH2 0x4241 SWAP4 DUP6 SWAP4 PUSH2 0x5A0D JUMPI JUMPDEST POP PUSH1 0x60 DUP3 ADD MLOAD PUSH1 0x80 DUP4 ADD MLOAD PUSH1 0xA0 SWAP1 SWAP4 ADD MLOAD PUSH1 0x1 PUSH1 0x1 PUSH1 0xA0 SHL SUB SWAP4 DUP5 AND SWAP4 SWAP1 DUP2 AND SWAP2 AND PUSH2 0x59B7 PUSH2 0x5321 JUMP JUMPDEST DUP9 MLOAD ISZERO PUSH2 0x59DE JUMPI POP PUSH2 0x4231 PUSH2 0x423C SWAP3 PUSH8 0xDE0B6B3A7640000 PUSH2 0x4205 PUSH2 0x16D SLOAD DUP13 MLOAD SWAP1 PUSH2 0x3ACE JUMP JUMPDEST PUSH2 0x178 SLOAD PUSH1 0x20 DUP11 ADD MLOAD PUSH2 0x423C SWAP5 POP SWAP2 SWAP3 SWAP2 PUSH2 0x5A02 SWAP2 PUSH1 0x1 PUSH1 0x1 PUSH1 0xA0 SHL SUB AND DUP5 PUSH2 0x53C2 JUMP JUMPDEST PUSH1 0x60 DUP10 ADD MLOAD SWAP2 PUSH2 0x53C2 JUMP JUMPDEST PUSH0 PUSH2 0x5A17 SWAP2 PUSH2 0x3349 JUMP JUMPDEST PUSH0 PUSH2 0x598D JUMP JUMPDEST PUSH1 0x44 SWAP1 DUP7 PUSH1 0x40 MLOAD SWAP2 PUSH4 0x54CDE313 PUSH1 0xE0 SHL DUP4 MSTORE PUSH1 0x4 DUP4 ADD MSTORE PUSH1 0x24 DUP3 ADD MSTORE REVERT JUMPDEST SWAP1 SWAP2 PUSH2 0x5A83 PUSH2 0x4DB0 PUSH2 0x9CB PUSH2 0x9D9 PUSH2 0x4E97 SWAP7 PUSH2 0x5A55 PUSH2 0x3FE7 JUMP JUMPDEST POP PUSH2 0x5A5E PUSH2 0x441F JUMP JUMPDEST PUSH2 0x5A66 PUSH2 0x5E5E JUMP JUMPDEST PUSH1 0x40 MLOAD PUSH4 0x178AAD2B PUSH1 0xE1 SHL PUSH1 0x20 DUP3 ADD MSTORE SWAP3 DUP4 SWAP2 DUP9 PUSH1 0x24 DUP5 ADD PUSH2 0x5065 JUMP JUMPDEST SWAP4 SWAP3 DUP1 SWAP3 SWAP7 SWAP2 SWAP6 DUP6 PUSH1 0x1 DUP1 PUSH1 0xA0 SHL SUB DUP3 MLOAD AND PUSH1 0x1 DUP1 PUSH1 0xA0 SHL SUB PUSH1 0x80 DUP5 ADD MLOAD AND PUSH1 0x1 DUP1 PUSH1 0xA0 SHL SUB PUSH1 0xA0 DUP6 ADD MLOAD AND SWAP2 PUSH32 0xA1062C9E887113838EDFBC65F23A4FD5CFEB240416670CDF3FA10BA3C85F251F DUP13 PUSH1 0x20 DUP8 ADD MLOAD PUSH2 0x5B44 DUP10 DUP9 MLOAD PUSH1 0x20 DUP11 ADD SWAP10 DUP11 MLOAD PUSH1 0x60 PUSH1 0x40 DUP4 ADD MLOAD SWAP3 ADD MLOAD SWAP3 DUP14 PUSH1 0xC0 PUSH1 0x1 DUP1 PUSH1 0xA0 SHL SUB SWAP2 ADD MLOAD AND SWAP5 PUSH1 0x40 MLOAD SWAP9 DUP10 SWAP9 DUP10 SWAP7 SWAP4 SWAP1 SWAP9 SWAP8 SWAP5 SWAP2 SWAP3 PUSH1 0xE0 SWAP7 SWAP4 PUSH2 0x100 DUP10 ADD SWAP11 DUP10 MSTORE PUSH1 0x20 DUP10 ADD MSTORE PUSH1 0x40 DUP9 ADD MSTORE PUSH1 0x60 DUP8 ADD MSTORE PUSH1 0x80 DUP7 ADD MSTORE PUSH1 0xA0 DUP6 ADD MSTORE PUSH1 0xC0 DUP5 ADD MSTORE PUSH1 0x1 DUP1 PUSH1 0xA0 SHL SUB AND SWAP2 ADD MSTORE JUMP JUMPDEST SUB SWAP1 LOG4 PUSH1 0x80 DUP3 ADD MLOAD PUSH1 0xA0 DUP4 ADD MLOAD PUSH1 0xC0 SWAP1 SWAP4 ADD MLOAD PUSH1 0x1 PUSH1 0x1 PUSH1 0xA0 SHL SUB SWAP4 DUP5 AND SWAP4 SWAP1 DUP2 AND SWAP3 SWAP2 AND SWAP1 PUSH2 0x5B72 PUSH2 0x5321 JUMP JUMPDEST DUP9 MLOAD ISZERO PUSH2 0x5B9A JUMPI POP POP PUSH2 0x423C SWAP1 PUSH2 0x4231 PUSH8 0xDE0B6B3A7640000 PUSH2 0x4954 PUSH2 0x16D SLOAD DUP12 MLOAD SWAP1 PUSH2 0x3ACE JUMP JUMPDEST PUSH2 0x178 SLOAD SWAP1 MLOAD PUSH2 0x423C SWAP4 SWAP2 PUSH2 0x5A02 SWAP2 SWAP1 PUSH1 0x1 PUSH1 0x1 PUSH1 0xA0 SHL SUB AND DUP5 PUSH2 0x53C2 JUMP JUMPDEST SWAP1 PUSH1 0x40 MLOAD PUSH2 0x5BC8 PUSH1 0x40 DUP3 PUSH2 0x3349 JUMP JUMPDEST PUSH1 0x20 PUSH1 0x1 DUP3 SWAP5 DUP1 SLOAD DUP5 MSTORE ADD SLOAD SWAP2 ADD MSTORE JUMP JUMPDEST PUSH2 0x5BE5 DUP2 PUSH2 0x17A PUSH2 0x3261 JUMP JUMPDEST SWAP1 SLOAD SWAP1 PUSH1 0x3 SHL SHR SWAP2 PUSH2 0x1BE SWAP2 PUSH2 0x5BFB DUP2 DUP5 PUSH2 0x3330 JUMP JUMPDEST POP SLOAD SWAP3 PUSH2 0x1BF SLOAD NUMBER LT ISZERO PUSH2 0x5C21 JUMPI JUMPDEST POP POP DUP1 DUP3 LT ISZERO PUSH2 0x3E82 JUMPI PUSH2 0x3C27 SWAP1 PUSH2 0x32DE SWAP4 PUSH2 0x3ACE JUMP JUMPDEST DUP3 SWAP4 POP PUSH2 0x5C35 PUSH2 0x5C40 SWAP4 SWAP3 PUSH2 0x5C3B SWAP3 PUSH2 0x3330 JUMP JUMPDEST POP PUSH2 0x5BB9 JUMP JUMPDEST PUSH2 0x5C48 JUMP JUMPDEST SWAP1 PUSH0 DUP1 PUSH2 0x5C0A JUMP JUMPDEST PUSH1 0x20 DUP2 MLOAD SWAP2 ADD DUP1 MLOAD SWAP3 PUSH8 0xDE0B6B3A7640000 SWAP4 DUP5 SUB SWAP1 DUP5 DUP3 GT PUSH2 0x391C JUMPI PUSH2 0x5C75 PUSH2 0xCBF SWAP3 PUSH2 0x39FA SWAP6 PUSH2 0x3ACE JUMP JUMPDEST SWAP3 MLOAD PUSH2 0x3ACE JUMP JUMPDEST PUSH0 DUP1 PUSH2 0x169 SWAP2 DUP3 SLOAD SWAP3 PUSH2 0x5C8E DUP5 PUSH2 0x3BA4 JUMP JUMPDEST SWAP4 DUP3 SWAP2 JUMPDEST DUP2 DUP4 LT PUSH2 0x5CBB JUMPI POP POP POP DUP2 ISZERO PUSH2 0x5CAF JUMPI SWAP1 PUSH2 0x5CAC SWAP2 PUSH2 0x3AE1 JUMP JUMPDEST SWAP2 JUMP JUMPDEST POP POP PUSH2 0x17B SLOAD PUSH1 0x1 SHL SWAP2 JUMP JUMPDEST SWAP1 SWAP2 SWAP4 SWAP3 PUSH2 0x5CC8 DUP6 PUSH2 0x3CDE JUMP JUMPDEST SWAP1 DUP2 PUSH2 0x5CD4 DUP8 DUP10 PUSH2 0x39B6 JUMP JUMPDEST MSTORE PUSH2 0x5CED PUSH2 0x5CE2 DUP4 DUP9 PUSH2 0x3A6A JUMP JUMPDEST POP PUSH2 0x3A33 DUP9 DUP7 PUSH2 0x3330 JUMP JUMPDEST PUSH8 0xDE0B6B3A7640000 SWAP1 DUP2 DUP2 MUL SWAP2 DUP2 DUP4 DIV EQ SWAP1 ISZERO OR ISZERO PUSH2 0x391C JUMPI PUSH2 0x5D2F PUSH2 0x5D35 SWAP3 PUSH2 0xCBF DUP6 PUSH2 0x5D21 PUSH1 0x1 SWAP8 PUSH2 0x5D2A SWAP7 PUSH2 0x5E7F JUMP JUMPDEST SWAP5 DUP6 SWAP2 DUP13 PUSH2 0x5BD9 JUMP JUMPDEST PUSH2 0x3ACE JUMP JUMPDEST SWAP6 PUSH2 0x39A9 JUMP JUMPDEST SWAP5 ADD SWAP2 SWAP1 PUSH2 0x5C92 JUMP JUMPDEST PUSH2 0x1BF DUP1 SLOAD NUMBER LT ISZERO PUSH2 0x5D4D JUMPI POP JUMP JUMPDEST PUSH2 0x169 SLOAD PUSH0 JUMPDEST DUP2 DUP2 LT PUSH2 0x5D66 JUMPI POP POP PUSH2 0x1C0 SLOAD NUMBER ADD SWAP1 SSTORE JUMP JUMPDEST DUP1 DUP1 PUSH32 0x19156E9379C7BBBCE8F646CE5EE30BA860B8F954717405F3D5859A6C1A21AE60 PUSH1 0x1 SWAP4 PUSH2 0x1BE PUSH2 0x5D9C PUSH2 0x5C35 DUP4 DUP4 PUSH2 0x3330 JUMP JUMPDEST SWAP1 PUSH2 0x5DBA PUSH2 0x5DB2 PUSH2 0x5DAC DUP6 PUSH2 0x3CDE JUMP JUMPDEST DUP5 PUSH2 0x5C48 JUMP JUMPDEST SWAP4 DUP5 SWAP3 PUSH2 0x3330 JUMP JUMPDEST POP SSTORE MLOAD PUSH1 0x40 SWAP2 DUP3 MLOAD SWAP2 DUP3 MSTORE PUSH1 0x20 DUP3 ADD MSTORE LOG2 ADD PUSH2 0x5D53 JUMP JUMPDEST PUSH1 0x97 SLOAD PUSH1 0x40 MLOAD PUSH4 0xD994D6D5 PUSH1 0xE0 SHL DUP2 MSTORE CALLER PUSH1 0x4 DUP3 ADD MSTORE SWAP1 PUSH1 0x20 SWAP1 DUP3 SWAP1 PUSH1 0x24 SWAP1 DUP3 SWAP1 PUSH1 0x1 PUSH1 0x1 PUSH1 0xA0 SHL SUB AND GAS STATICCALL SWAP1 DUP2 ISZERO PUSH2 0x399E JUMPI PUSH0 SWAP2 PUSH2 0x5E25 JUMPI JUMPDEST POP ISZERO PUSH2 0x5E13 JUMPI JUMP JUMPDEST PUSH1 0x40 MLOAD PUSH4 0x1DD1B1B5 PUSH1 0xE2 SHL DUP2 MSTORE PUSH1 0x4 SWAP1 REVERT JUMPDEST SWAP1 PUSH1 0x20 DUP3 RETURNDATASIZE DUP3 GT PUSH2 0x5E56 JUMPI JUMPDEST DUP2 PUSH2 0x5E3E PUSH1 0x20 SWAP4 DUP4 PUSH2 0x3349 JUMP JUMPDEST DUP2 ADD SUB SLT PUSH2 0x6DA JUMPI POP PUSH2 0x5E50 SWAP1 PUSH2 0x3D25 JUMP JUMPDEST PUSH0 PUSH2 0x5E0B JUMP JUMPDEST RETURNDATASIZE SWAP2 POP PUSH2 0x5E31 JUMP JUMPDEST PUSH1 0xFF PUSH1 0xCA SLOAD PUSH1 0x8 SHR AND PUSH2 0x5E6D JUMPI JUMP JUMPDEST PUSH1 0x40 MLOAD PUSH4 0x783BB6C9 PUSH1 0xE1 SHL DUP2 MSTORE PUSH1 0x4 SWAP1 REVERT JUMPDEST SWAP1 PUSH8 0xDE0B6B3A7640000 SWAP2 DUP3 DUP2 MUL SWAP3 DUP2 DUP5 DIV EQ SWAP1 ISZERO OR ISZERO PUSH2 0x391C JUMPI PUSH2 0x32DE SWAP2 PUSH2 0x3AE1 JUMP JUMPDEST PUSH8 0xDE0B6B3A7640000 LT PUSH2 0x5EB3 JUMPI JUMP JUMPDEST PUSH1 0x40 MLOAD PUSH4 0x2A9FFAB7 PUSH1 0xE2 SHL DUP2 MSTORE PUSH1 0x4 SWAP1 REVERT INVALID LOG2 PUSH5 0x6970667358 0x22 SLT KECCAK256 PUSH12 0x6208C83EC2A2F98426417371 MOD 0xBD PUSH18 0x6804C6A9D9094BBFF5343175156B8B176473 PUSH16 0x6C634300081400330000000000000000 "
    },
    "gasEstimates": {
      "creation": {
        "codeDepositCost": "4863000",
        "executionCost": "infinite",
        "totalCost": "infinite"
      },
      "external": {
        "absoluteAccumulator()": "4888",
        "acToken()": "2731",
        "addPeggedToken((address,address,uint256,uint256,uint256,uint256,uint256))": "infinite",
        "appreciationFactor()": "5372",
        "bes()": "3216",
        "bns()": "2578",
        "calcCtargemaCA()": "infinite",
        "changeGovernor(address)": "infinite",
        "decayBlockSpan()": "3656",
        "differentialAccumulator()": "3788",
        "editPeggedToken((address,address,uint256,uint256,uint256,uint256,uint256))": "infinite",
        "emaCalculationBlockSpan()": "3898",
        "evalLiquidation()": "infinite",
        "execSettlement()": "infinite",
        "feeRetainer()": "3260",
        "feeToken()": "3545",
        "feeTokenPct()": "2842",
        "feeTokenPriceProvider()": "5239",
        "getBts()": "5269",
        "getCglb()": "infinite",
        "getLckAC()": "infinite",
        "getLeverageTC()": "infinite",
        "getPACtp(address)": "infinite",
        "getPTCac()": "infinite",
        "getTCAvailableToRedeem()": "infinite",
        "getTPAvailableToMint(address)": "infinite",
        "getTotalACavailable()": "infinite",
        "governor()": "2423",
        "initialize((((address,address,address,address,address,uint256,uint256,uint256,uint256,uint256,uint256,uint256,uint256,uint256,uint256,uint256,uint256,uint256,uint256,address,uint256,uint256,address,address,uint256),address,address,address,uint256,address),address))": "infinite",
        "isLiquidationReached()": "infinite",
        "lastOperationBlockNumber()": "3414",
        "liqEnabled()": "5142",
        "liqRedeemTP(address)": "infinite",
        "liqRedeemTPto(address,address)": "infinite",
        "liqThrld()": "4206",
        "liquidated()": "2684",
        "makeStoppable()": "infinite",
        "makeUnstoppable()": "infinite",
        "maxAbsoluteOpProvider()": "5217",
        "maxOpDiffProvider()": "4601",
        "maxQACToMintTP()": "infinite",
        "maxQACToRedeemTP()": "infinite",
        "mintTC(uint256,uint256)": "infinite",
        "mintTCViaVendor(uint256,uint256,address)": "infinite",
        "mintTCandTP(address,uint256,uint256)": "infinite",
        "mintTCandTPFee()": "3832",
        "mintTCandTPViaVendor(address,uint256,uint256,address)": "infinite",
        "mintTCandTPto(address,uint256,uint256,address)": "infinite",
        "mintTCandTPtoViaVendor(address,uint256,uint256,address,address)": "infinite",
        "mintTCto(uint256,uint256,address)": "infinite",
        "mintTCtoViaVendor(uint256,uint256,address,address)": "infinite",
        "mintTP(address,uint256,uint256)": "infinite",
        "mintTPViaVendor(address,uint256,uint256,address)": "infinite",
        "mintTPto(address,uint256,uint256,address)": "infinite",
        "mintTPtoViaVendor(address,uint256,uint256,address,address)": "infinite",
        "mocAppreciationBeneficiaryAddress()": "3259",
        "mocFeeFlowAddress()": "4293",
        "mocVendors()": "4029",
        "nACcb()": "5306",
        "nTCcb()": "3854",
        "nextEmaCalculation()": "2424",
        "nextTCInterestPayment()": "4624",
        "pause()": "29472",
        "paused()": "3476",
        "pauser()": "4434",
        "pegContainer(uint256)": "9690",
        "peggedTokenIndex(address)": "6628",
        "protThrld()": "3634",
        "proxiableUUID()": "infinite",
        "redeemTC(uint256,uint256)": "infinite",
        "redeemTCViaVendor(uint256,uint256,address)": "infinite",
        "redeemTCandTP(address,uint256,uint256,uint256)": "infinite",
        "redeemTCandTPFee()": "5328",
        "redeemTCandTPViaVendor(address,uint256,uint256,uint256,address)": "infinite",
        "redeemTCandTPto(address,uint256,uint256,uint256,address)": "infinite",
        "redeemTCandTPtoViaVendor(address,uint256,uint256,uint256,address,address)": "infinite",
        "redeemTCto(uint256,uint256,address)": "infinite",
        "redeemTCtoViaVendor(uint256,uint256,address,address)": "infinite",
        "redeemTP(address,uint256,uint256)": "infinite",
        "redeemTPViaVendor(address,uint256,uint256,address)": "infinite",
        "redeemTPto(address,uint256,uint256,address)": "infinite",
        "redeemTPtoViaVendor(address,uint256,uint256,address,address)": "infinite",
        "refreshACBalance()": "infinite",
        "setAppreciationFactor(uint256)": "infinite",
        "setBes(uint256)": "infinite",
        "setDecayBlockSpan(uint256)": "infinite",
        "setEmaCalculationBlockSpan(uint256)": "infinite",
        "setFeeRetainer(uint256)": "infinite",
        "setFeeTokenAddress(address)": "infinite",
        "setFeeTokenPct(uint256)": "infinite",
        "setFeeTokenPriceProviderAddress(address)": "infinite",
        "setLiqEnabled(bool)": "infinite",
        "setLiqThrld(uint256)": "infinite",
        "setMaxAbsoluteOpProviderAddress(address)": "infinite",
        "setMaxOpDiffProviderAddress(address)": "infinite",
        "setMintTCandTPFee(uint256)": "infinite",
        "setMocAppreciationBeneficiaryAddress(address)": "infinite",
        "setMocCoreExpansion(address)": "infinite",
        "setMocFeeFlowAddress(address)": "infinite",
        "setMocVendors(address)": "infinite",
        "setPauser(address)": "infinite",
        "setProtThrld(uint256)": "infinite",
        "setRedeemTCandTPFee(uint256)": "infinite",
        "setSuccessFee(uint256)": "infinite",
        "setSwapTCforTPFee(uint256)": "infinite",
        "setSwapTPforTCFee(uint256)": "infinite",
        "setSwapTPforTPFee(uint256)": "infinite",
        "setTCInterestCollectorAddress(address)": "infinite",
        "setTCInterestPaymentBlockSpan(uint256)": "infinite",
        "setTCInterestRate(uint256)": "infinite",
        "setTcMintFee(uint256)": "infinite",
        "setTcRedeemFee(uint256)": "infinite",
        "shouldCalculateEma()": "4456",
        "stoppable()": "4658",
        "successFee()": "3766",
        "swapTCforTP(address,uint256,uint256,uint256)": "infinite",
        "swapTCforTPFee()": "2754",
        "swapTCforTPViaVendor(address,uint256,uint256,uint256,address)": "infinite",
        "swapTCforTPto(address,uint256,uint256,uint256,address)": "infinite",
        "swapTCforTPtoViaVendor(address,uint256,uint256,uint256,address,address)": "infinite",
        "swapTPforTC(address,uint256,uint256,uint256)": "infinite",
        "swapTPforTCFee()": "2864",
        "swapTPforTCViaVendor(address,uint256,uint256,uint256,address)": "infinite",
        "swapTPforTCto(address,uint256,uint256,uint256,address)": "infinite",
        "swapTPforTCtoViaVendor(address,uint256,uint256,uint256,address,address)": "infinite",
        "swapTPforTP(address,address,uint256,uint256,uint256)": "infinite",
        "swapTPforTPFee()": "3062",
        "swapTPforTPViaVendor(address,address,uint256,uint256,uint256,address)": "infinite",
        "swapTPforTPto(address,address,uint256,uint256,uint256,address)": "infinite",
        "swapTPforTPtoViaVendor(address,address,uint256,uint256,uint256,address,address)": "infinite",
        "tcHoldersInterestPayment()": "infinite",
        "tcInterestCollectorAddress()": "4249",
        "tcInterestPaymentBlockSpan()": "4052",
        "tcInterestRate()": "2468",
        "tcMintFee()": "5439",
        "tcRedeemFee()": "4536",
        "tcToken()": "3523",
        "tpCtarg(uint256)": "8349",
        "tpEma(uint256)": "11583",
        "tpLiqPrices(uint256)": "7315",
        "tpMintFees(address)": "2800",
        "tpRedeemFees(address)": "5066",
        "tpTokens(uint256)": "6673",
        "unpause()": "26220",
        "updateEmas()": "infinite",
        "upgradeTo(address)": "infinite",
        "upgradeToAndCall(address,bytes)": "infinite"
      },
      "internal": {
        "_onACNeededOperation(uint256,uint256)": "infinite",
        "acBalanceOf(address)": "infinite",
        "acTransfer(address,uint256)": "infinite"
      }
    },
    "methodIdentifiers": {
      "absoluteAccumulator()": "d87aab6f",
      "acToken()": "25bc6c41",
      "addPeggedToken((address,address,uint256,uint256,uint256,uint256,uint256))": "db796072",
      "appreciationFactor()": "fa6e83bd",
      "bes()": "4d977e78",
      "bns()": "1867e2f5",
      "calcCtargemaCA()": "662013f4",
      "changeGovernor(address)": "e4c0aaf4",
      "decayBlockSpan()": "6f30471f",
      "differentialAccumulator()": "76228055",
      "editPeggedToken((address,address,uint256,uint256,uint256,uint256,uint256))": "f26114aa",
      "emaCalculationBlockSpan()": "7a727fe8",
      "evalLiquidation()": "33421c38",
      "execSettlement()": "5c616a73",
      "feeRetainer()": "4f0f27ee",
      "feeToken()": "647846a5",
      "feeTokenPct()": "2ded50f0",
      "feeTokenPriceProvider()": "f13f4054",
      "getBts()": "e8859a15",
      "getCglb()": "826fcd58",
      "getLckAC()": "8f1a383a",
      "getLeverageTC()": "c039cc69",
      "getPACtp(address)": "fadda424",
      "getPTCac()": "1fb0dda0",
      "getTCAvailableToRedeem()": "4017936a",
      "getTPAvailableToMint(address)": "f88b1434",
      "getTotalACavailable()": "de8d520a",
      "governor()": "0c340a24",
      "initialize((((address,address,address,address,address,uint256,uint256,uint256,uint256,uint256,uint256,uint256,uint256,uint256,uint256,uint256,uint256,uint256,uint256,address,uint256,uint256,address,address,uint256),address,address,address,uint256,address),address))": "07e8ce8b",
      "isLiquidationReached()": "9ad6659d",
      "lastOperationBlockNumber()": "5860ee63",
      "liqEnabled()": "e7c25978",
      "liqRedeemTP(address)": "17937f9b",
      "liqRedeemTPto(address,address)": "9bea71a4",
      "liqThrld()": "8cfa4241",
      "liquidated()": "23b98cde",
      "makeStoppable()": "68274357",
      "makeUnstoppable()": "5210570c",
      "maxAbsoluteOpProvider()": "ee1f438f",
      "maxOpDiffProvider()": "b5e9ea8c",
      "maxQACToMintTP()": "d6af11da",
      "maxQACToRedeemTP()": "7f13b998",
      "mintTC(uint256,uint256)": "0bb7f608",
      "mintTCViaVendor(uint256,uint256,address)": "ffe31539",
      "mintTCandTP(address,uint256,uint256)": "44719ee9",
      "mintTCandTPFee()": "79f9a91c",
      "mintTCandTPViaVendor(address,uint256,uint256,address)": "98b2086f",
      "mintTCandTPto(address,uint256,uint256,address)": "c239fca4",
      "mintTCandTPtoViaVendor(address,uint256,uint256,address,address)": "d76dc7fd",
      "mintTCto(uint256,uint256,address)": "4310adc6",
      "mintTCtoViaVendor(uint256,uint256,address,address)": "fed0ade4",
      "mintTP(address,uint256,uint256)": "484ad7cd",
      "mintTPViaVendor(address,uint256,uint256,address)": "f2f9f456",
      "mintTPto(address,uint256,uint256,address)": "aaf925f6",
      "mintTPtoViaVendor(address,uint256,uint256,address,address)": "9fd8ed0e",
      "mocAppreciationBeneficiaryAddress()": "4e1f907a",
      "mocFeeFlowAddress()": "9853c35a",
      "mocVendors()": "7f01c715",
      "nACcb()": "f30b5614",
      "nTCcb()": "7a193c31",
      "nextEmaCalculation()": "0c36d897",
      "nextTCInterestPayment()": "b9fa6413",
      "pause()": "8456cb59",
      "paused()": "5c975abb",
      "pauser()": "9fd0506d",
      "pegContainer(uint256)": "4b746001",
      "peggedTokenIndex(address)": "9cabfc00",
      "protThrld()": "6b5488df",
      "proxiableUUID()": "52d1902d",
      "redeemTC(uint256,uint256)": "9abb14c9",
      "redeemTCViaVendor(uint256,uint256,address)": "471a80e3",
      "redeemTCandTP(address,uint256,uint256,uint256)": "34246862",
      "redeemTCandTPFee()": "f375cfba",
      "redeemTCandTPViaVendor(address,uint256,uint256,uint256,address)": "aeb41e69",
      "redeemTCandTPto(address,uint256,uint256,uint256,address)": "fd80fa77",
      "redeemTCandTPtoViaVendor(address,uint256,uint256,uint256,address,address)": "5ece17ef",
      "redeemTCto(uint256,uint256,address)": "e4012945",
      "redeemTCtoViaVendor(uint256,uint256,address,address)": "3dbc50a9",
      "redeemTP(address,uint256,uint256)": "466b8934",
      "redeemTPViaVendor(address,uint256,uint256,address)": "8acc2011",
      "redeemTPto(address,uint256,uint256,address)": "52e18f8f",
      "redeemTPtoViaVendor(address,uint256,uint256,address,address)": "89fd503e",
      "refreshACBalance()": "e23c135c",
      "setAppreciationFactor(uint256)": "01dde6ef",
      "setBes(uint256)": "c84353c9",
      "setDecayBlockSpan(uint256)": "73e28af9",
      "setEmaCalculationBlockSpan(uint256)": "3bc4ac0a",
      "setFeeRetainer(uint256)": "7750ba0c",
      "setFeeTokenAddress(address)": "cf351c1d",
      "setFeeTokenPct(uint256)": "543aeb48",
      "setFeeTokenPriceProviderAddress(address)": "0f1e5e2b",
      "setLiqEnabled(bool)": "1fe6a7ad",
      "setLiqThrld(uint256)": "2c43bd3b",
      "setMaxAbsoluteOpProviderAddress(address)": "d8db6f5a",
      "setMaxOpDiffProviderAddress(address)": "85bf9593",
      "setMintTCandTPFee(uint256)": "2069f753",
      "setMocAppreciationBeneficiaryAddress(address)": "27eab2a1",
      "setMocCoreExpansion(address)": "e6a683e0",
      "setMocFeeFlowAddress(address)": "0d6ac463",
      "setMocVendors(address)": "533a4bea",
      "setPauser(address)": "2d88af4a",
      "setProtThrld(uint256)": "7cba2383",
      "setRedeemTCandTPFee(uint256)": "7a4ff1d9",
      "setSuccessFee(uint256)": "becaca6b",
      "setSwapTCforTPFee(uint256)": "7af5758c",
      "setSwapTPforTCFee(uint256)": "0e0a8fd2",
      "setSwapTPforTPFee(uint256)": "70713468",
      "setTCInterestCollectorAddress(address)": "735d3960",
      "setTCInterestPaymentBlockSpan(uint256)": "073763b9",
      "setTCInterestRate(uint256)": "64ec230a",
      "setTcMintFee(uint256)": "f2808778",
      "setTcRedeemFee(uint256)": "c00f538d",
      "shouldCalculateEma()": "a8e9ac30",
      "stoppable()": "bb4872de",
      "successFee()": "7554fffd",
      "swapTCforTP(address,uint256,uint256,uint256)": "b85edd65",
      "swapTCforTPFee()": "2a20d57d",
      "swapTCforTPViaVendor(address,uint256,uint256,uint256,address)": "aaf91eff",
      "swapTCforTPto(address,uint256,uint256,uint256,address)": "842d5748",
      "swapTCforTPtoViaVendor(address,uint256,uint256,uint256,address,address)": "2b764fad",
      "swapTPforTC(address,uint256,uint256,uint256)": "ac0c88ab",
      "swapTPforTCFee()": "333431fd",
      "swapTPforTCViaVendor(address,uint256,uint256,uint256,address)": "74873ad3",
      "swapTPforTCto(address,uint256,uint256,uint256,address)": "ea302a97",
      "swapTPforTCtoViaVendor(address,uint256,uint256,uint256,address,address)": "15266e36",
      "swapTPforTP(address,address,uint256,uint256,uint256)": "c09c30bd",
      "swapTPforTPFee()": "407f0e34",
      "swapTPforTPViaVendor(address,address,uint256,uint256,uint256,address)": "7b21b274",
      "swapTPforTPto(address,address,uint256,uint256,uint256,address)": "e3867eeb",
      "swapTPforTPtoViaVendor(address,address,uint256,uint256,uint256,address,address)": "68f015df",
      "tcHoldersInterestPayment()": "0579188f",
      "tcInterestCollectorAddress()": "8e2bdb86",
      "tcInterestPaymentBlockSpan()": "7f4a4fe0",
      "tcInterestRate()": "0db49656",
      "tcMintFee()": "fda70f8b",
      "tcRedeemFee()": "aea038dc",
      "tcToken()": "60009e0b",
      "tpCtarg(uint256)": "7d8e0314",
      "tpEma(uint256)": "e6b1627c",
      "tpLiqPrices(uint256)": "3915edcb",
      "tpMintFees(address)": "24ffaba3",
      "tpRedeemFees(address)": "ddb6d190",
      "tpTokens(uint256)": "01f1b684",
      "unpause()": "3f4ba83a",
      "updateEmas()": "d1a0faa0",
      "upgradeTo(address)": "3659cfe6",
      "upgradeToAndCall(address,bytes)": "4f1ef286"
    }
  },
  "storageLayout": {
    "storage": [
      {
        "astId": 950,
        "contract": "contracts/collateral/rc20/MocCARC20.sol:MocCARC20",
        "label": "_initialized",
        "offset": 0,
        "slot": "0",
        "type": "t_uint8"
      },
      {
        "astId": 953,
        "contract": "contracts/collateral/rc20/MocCARC20.sol:MocCARC20",
        "label": "_initializing",
        "offset": 1,
        "slot": "0",
        "type": "t_bool"
      },
      {
        "astId": 932,
        "contract": "contracts/collateral/rc20/MocCARC20.sol:MocCARC20",
        "label": "__gap",
        "offset": 0,
        "slot": "1",
        "type": "t_array(t_uint256)50_storage"
      },
      {
        "astId": 1247,
        "contract": "contracts/collateral/rc20/MocCARC20.sol:MocCARC20",
        "label": "__gap",
        "offset": 0,
        "slot": "51",
        "type": "t_array(t_uint256)50_storage"
      },
      {
        "astId": 30317,
        "contract": "contracts/collateral/rc20/MocCARC20.sol:MocCARC20",
        "label": "__gap",
        "offset": 0,
        "slot": "101",
        "type": "t_array(t_uint256)50_storage"
      },
      {
        "astId": 24622,
        "contract": "contracts/collateral/rc20/MocCARC20.sol:MocCARC20",
        "label": "governor",
        "offset": 0,
        "slot": "151",
        "type": "t_contract(IGovernor)25471"
      },
      {
        "astId": 24693,
        "contract": "contracts/collateral/rc20/MocCARC20.sol:MocCARC20",
        "label": "__gap",
        "offset": 0,
        "slot": "152",
        "type": "t_array(t_uint256)50_storage"
      },
      {
        "astId": 24762,
        "contract": "contracts/collateral/rc20/MocCARC20.sol:MocCARC20",
        "label": "stoppable",
        "offset": 0,
        "slot": "202",
        "type": "t_bool"
      },
      {
        "astId": 24764,
        "contract": "contracts/collateral/rc20/MocCARC20.sol:MocCARC20",
        "label": "_paused",
        "offset": 1,
        "slot": "202",
        "type": "t_bool"
      },
      {
        "astId": 24766,
        "contract": "contracts/collateral/rc20/MocCARC20.sol:MocCARC20",
        "label": "pauser",
        "offset": 2,
        "slot": "202",
        "type": "t_address"
      },
      {
        "astId": 24925,
        "contract": "contracts/collateral/rc20/MocCARC20.sol:MocCARC20",
        "label": "__gap",
        "offset": 0,
        "slot": "203",
        "type": "t_array(t_uint256)50_storage"
      },
      {
        "astId": 24744,
        "contract": "contracts/collateral/rc20/MocCARC20.sol:MocCARC20",
        "label": "__gap",
        "offset": 0,
        "slot": "253",
        "type": "t_array(t_uint256)50_storage"
      },
      {
        "astId": 1389,
        "contract": "contracts/collateral/rc20/MocCARC20.sol:MocCARC20",
        "label": "_status",
        "offset": 0,
        "slot": "303",
        "type": "t_uint256"
      },
      {
        "astId": 1458,
        "contract": "contracts/collateral/rc20/MocCARC20.sol:MocCARC20",
        "label": "__gap",
        "offset": 0,
        "slot": "304",
        "type": "t_array(t_uint256)49_storage"
      },
      {
        "astId": 14169,
        "contract": "contracts/collateral/rc20/MocCARC20.sol:MocCARC20",
        "label": "feeToken",
        "offset": 0,
        "slot": "353",
        "type": "t_contract(IERC20)6209"
      },
      {
        "astId": 14172,
        "contract": "contracts/collateral/rc20/MocCARC20.sol:MocCARC20",
        "label": "feeTokenPriceProvider",
        "offset": 0,
        "slot": "354",
        "type": "t_contract(IPriceProvider)25509"
      },
      {
        "astId": 14174,
        "contract": "contracts/collateral/rc20/MocCARC20.sol:MocCARC20",
        "label": "nACcb",
        "offset": 0,
        "slot": "355",
        "type": "t_uint256"
      },
      {
        "astId": 14176,
        "contract": "contracts/collateral/rc20/MocCARC20.sol:MocCARC20",
        "label": "nACioucb",
        "offset": 0,
        "slot": "356",
        "type": "t_uint256"
      },
      {
        "astId": 14179,
        "contract": "contracts/collateral/rc20/MocCARC20.sol:MocCARC20",
        "label": "tcToken",
        "offset": 0,
        "slot": "357",
        "type": "t_contract(MocTC)30142"
      },
      {
        "astId": 14181,
        "contract": "contracts/collateral/rc20/MocCARC20.sol:MocCARC20",
        "label": "nTCcb",
        "offset": 0,
        "slot": "358",
        "type": "t_uint256"
      },
      {
        "astId": 14185,
        "contract": "contracts/collateral/rc20/MocCARC20.sol:MocCARC20",
        "label": "tpTokens",
        "offset": 0,
        "slot": "359",
        "type": "t_array(t_contract(IMocRC20)25497)dyn_storage"
      },
      {
        "astId": 14190,
        "contract": "contracts/collateral/rc20/MocCARC20.sol:MocCARC20",
        "label": "peggedTokenIndex",
        "offset": 0,
        "slot": "360",
        "type": "t_mapping(t_address,t_struct(PeggedTokenIndex)14115_storage)"
      },
      {
        "astId": 14194,
        "contract": "contracts/collateral/rc20/MocCARC20.sol:MocCARC20",
        "label": "pegContainer",
        "offset": 0,
        "slot": "361",
        "type": "t_array(t_struct(PegContainerItem)14110_storage)dyn_storage"
      },
      {
        "astId": 14197,
        "contract": "contracts/collateral/rc20/MocCARC20.sol:MocCARC20",
        "label": "tpLiqPrices",
        "offset": 0,
        "slot": "362",
        "type": "t_array(t_uint256)dyn_storage"
      },
      {
        "astId": 14199,
        "contract": "contracts/collateral/rc20/MocCARC20.sol:MocCARC20",
        "label": "successFee",
        "offset": 0,
        "slot": "363",
        "type": "t_uint256"
      },
      {
        "astId": 14201,
        "contract": "contracts/collateral/rc20/MocCARC20.sol:MocCARC20",
        "label": "appreciationFactor",
        "offset": 0,
        "slot": "364",
        "type": "t_uint256"
      },
      {
        "astId": 14203,
        "contract": "contracts/collateral/rc20/MocCARC20.sol:MocCARC20",
        "label": "feeRetainer",
        "offset": 0,
        "slot": "365",
        "type": "t_uint256"
      },
      {
        "astId": 14205,
        "contract": "contracts/collateral/rc20/MocCARC20.sol:MocCARC20",
        "label": "tcMintFee",
        "offset": 0,
        "slot": "366",
        "type": "t_uint256"
      },
      {
        "astId": 14207,
        "contract": "contracts/collateral/rc20/MocCARC20.sol:MocCARC20",
        "label": "tcRedeemFee",
        "offset": 0,
        "slot": "367",
        "type": "t_uint256"
      },
      {
        "astId": 14209,
        "contract": "contracts/collateral/rc20/MocCARC20.sol:MocCARC20",
        "label": "swapTPforTPFee",
        "offset": 0,
        "slot": "368",
        "type": "t_uint256"
      },
      {
        "astId": 14211,
        "contract": "contracts/collateral/rc20/MocCARC20.sol:MocCARC20",
        "label": "swapTPforTCFee",
        "offset": 0,
        "slot": "369",
        "type": "t_uint256"
      },
      {
        "astId": 14213,
        "contract": "contracts/collateral/rc20/MocCARC20.sol:MocCARC20",
        "label": "swapTCforTPFee",
        "offset": 0,
        "slot": "370",
        "type": "t_uint256"
      },
      {
        "astId": 14215,
        "contract": "contracts/collateral/rc20/MocCARC20.sol:MocCARC20",
        "label": "redeemTCandTPFee",
        "offset": 0,
        "slot": "371",
        "type": "t_uint256"
      },
      {
        "astId": 14217,
        "contract": "contracts/collateral/rc20/MocCARC20.sol:MocCARC20",
        "label": "mintTCandTPFee",
        "offset": 0,
        "slot": "372",
        "type": "t_uint256"
      },
      {
        "astId": 14219,
        "contract": "contracts/collateral/rc20/MocCARC20.sol:MocCARC20",
        "label": "feeTokenPct",
        "offset": 0,
        "slot": "373",
        "type": "t_uint256"
      },
      {
        "astId": 14223,
        "contract": "contracts/collateral/rc20/MocCARC20.sol:MocCARC20",
        "label": "tpMintFees",
        "offset": 0,
        "slot": "374",
        "type": "t_mapping(t_address,t_uint256)"
      },
      {
        "astId": 14227,
        "contract": "contracts/collateral/rc20/MocCARC20.sol:MocCARC20",
        "label": "tpRedeemFees",
        "offset": 0,
        "slot": "375",
        "type": "t_mapping(t_address,t_uint256)"
      },
      {
        "astId": 14229,
        "contract": "contracts/collateral/rc20/MocCARC20.sol:MocCARC20",
        "label": "mocFeeFlowAddress",
        "offset": 0,
        "slot": "376",
        "type": "t_address"
      },
      {
        "astId": 14231,
        "contract": "contracts/collateral/rc20/MocCARC20.sol:MocCARC20",
        "label": "mocAppreciationBeneficiaryAddress",
        "offset": 0,
        "slot": "377",
        "type": "t_address"
      },
      {
        "astId": 14234,
        "contract": "contracts/collateral/rc20/MocCARC20.sol:MocCARC20",
        "label": "tpCtarg",
        "offset": 0,
        "slot": "378",
        "type": "t_array(t_uint256)dyn_storage"
      },
      {
        "astId": 14236,
        "contract": "contracts/collateral/rc20/MocCARC20.sol:MocCARC20",
        "label": "protThrld",
        "offset": 0,
        "slot": "379",
        "type": "t_uint256"
      },
      {
        "astId": 14238,
        "contract": "contracts/collateral/rc20/MocCARC20.sol:MocCARC20",
        "label": "liqThrld",
        "offset": 0,
        "slot": "380",
        "type": "t_uint256"
      },
      {
        "astId": 14240,
        "contract": "contracts/collateral/rc20/MocCARC20.sol:MocCARC20",
        "label": "liqEnabled",
        "offset": 0,
        "slot": "381",
        "type": "t_bool"
      },
      {
        "astId": 14242,
        "contract": "contracts/collateral/rc20/MocCARC20.sol:MocCARC20",
        "label": "liquidated",
        "offset": 1,
        "slot": "381",
        "type": "t_bool"
      },
      {
        "astId": 14244,
        "contract": "contracts/collateral/rc20/MocCARC20.sol:MocCARC20",
        "label": "bes",
        "offset": 0,
        "slot": "382",
        "type": "t_uint256"
      },
      {
        "astId": 14246,
        "contract": "contracts/collateral/rc20/MocCARC20.sol:MocCARC20",
        "label": "bns",
        "offset": 0,
        "slot": "383",
        "type": "t_uint256"
      },
      {
        "astId": 14249,
        "contract": "contracts/collateral/rc20/MocCARC20.sol:MocCARC20",
        "label": "tpiou",
        "offset": 0,
        "slot": "384",
        "type": "t_array(t_int256)dyn_storage"
      },
      {
        "astId": 14252,
        "contract": "contracts/collateral/rc20/MocCARC20.sol:MocCARC20",
        "label": "pACtpLstop",
        "offset": 0,
        "slot": "385",
        "type": "t_array(t_uint256)dyn_storage"
      },
      {
        "astId": 14255,
        "contract": "contracts/collateral/rc20/MocCARC20.sol:MocCARC20",
        "label": "maxAbsoluteOpProvider",
        "offset": 0,
        "slot": "386",
        "type": "t_contract(IDataProvider)25425"
      },
      {
        "astId": 14258,
        "contract": "contracts/collateral/rc20/MocCARC20.sol:MocCARC20",
        "label": "maxOpDiffProvider",
        "offset": 0,
        "slot": "387",
        "type": "t_contract(IDataProvider)25425"
      },
      {
        "astId": 14260,
        "contract": "contracts/collateral/rc20/MocCARC20.sol:MocCARC20",
        "label": "decayBlockSpan",
        "offset": 0,
        "slot": "388",
        "type": "t_uint256"
      },
      {
        "astId": 14262,
        "contract": "contracts/collateral/rc20/MocCARC20.sol:MocCARC20",
        "label": "absoluteAccumulator",
        "offset": 0,
        "slot": "389",
        "type": "t_uint256"
      },
      {
        "astId": 14264,
        "contract": "contracts/collateral/rc20/MocCARC20.sol:MocCARC20",
        "label": "differentialAccumulator",
        "offset": 0,
        "slot": "390",
        "type": "t_int256"
      },
      {
        "astId": 14266,
        "contract": "contracts/collateral/rc20/MocCARC20.sol:MocCARC20",
        "label": "lastOperationBlockNumber",
        "offset": 0,
        "slot": "391",
        "type": "t_uint256"
      },
      {
        "astId": 14268,
        "contract": "contracts/collateral/rc20/MocCARC20.sol:MocCARC20",
        "label": "tcInterestCollectorAddress",
        "offset": 0,
        "slot": "392",
        "type": "t_address"
      },
      {
        "astId": 14270,
        "contract": "contracts/collateral/rc20/MocCARC20.sol:MocCARC20",
        "label": "tcInterestRate",
        "offset": 0,
        "slot": "393",
        "type": "t_uint256"
      },
      {
        "astId": 14272,
        "contract": "contracts/collateral/rc20/MocCARC20.sol:MocCARC20",
        "label": "tcInterestPaymentBlockSpan",
        "offset": 0,
        "slot": "394",
        "type": "t_uint256"
      },
      {
        "astId": 14274,
        "contract": "contracts/collateral/rc20/MocCARC20.sol:MocCARC20",
        "label": "nextTCInterestPayment",
        "offset": 0,
        "slot": "395",
        "type": "t_uint256"
      },
      {
        "astId": 15897,
        "contract": "contracts/collateral/rc20/MocCARC20.sol:MocCARC20",
        "label": "__gap",
        "offset": 0,
        "slot": "396",
        "type": "t_array(t_uint256)50_storage"
      },
      {
        "astId": 20960,
        "contract": "contracts/collateral/rc20/MocCARC20.sol:MocCARC20",
        "label": "tpEma",
        "offset": 0,
        "slot": "446",
        "type": "t_array(t_struct(EmaItem)20956_storage)dyn_storage"
      },
      {
        "astId": 20962,
        "contract": "contracts/collateral/rc20/MocCARC20.sol:MocCARC20",
        "label": "nextEmaCalculation",
        "offset": 0,
        "slot": "447",
        "type": "t_uint256"
      },
      {
        "astId": 20964,
        "contract": "contracts/collateral/rc20/MocCARC20.sol:MocCARC20",
        "label": "emaCalculationBlockSpan",
        "offset": 0,
        "slot": "448",
        "type": "t_uint256"
      },
      {
        "astId": 21336,
        "contract": "contracts/collateral/rc20/MocCARC20.sol:MocCARC20",
        "label": "__gap",
        "offset": 0,
        "slot": "449",
        "type": "t_array(t_uint256)50_storage"
      },
      {
        "astId": 15931,
        "contract": "contracts/collateral/rc20/MocCARC20.sol:MocCARC20",
        "label": "mocVendors",
        "offset": 0,
        "slot": "499",
        "type": "t_contract(MocVendors)30538"
      },
      {
        "astId": 16804,
        "contract": "contracts/collateral/rc20/MocCARC20.sol:MocCARC20",
        "label": "__gap",
        "offset": 0,
        "slot": "500",
        "type": "t_array(t_uint256)50_storage"
      },
      {
        "astId": 16853,
        "contract": "contracts/collateral/rc20/MocCARC20.sol:MocCARC20",
        "label": "mocCoreExpansion",
        "offset": 0,
        "slot": "550",
        "type": "t_address"
      },
      {
        "astId": 18663,
        "contract": "contracts/collateral/rc20/MocCARC20.sol:MocCARC20",
        "label": "__gap",
        "offset": 0,
        "slot": "551",
        "type": "t_array(t_uint256)50_storage"
      },
      {
        "astId": 20933,
        "contract": "contracts/collateral/rc20/MocCARC20.sol:MocCARC20",
        "label": "__gap",
        "offset": 0,
        "slot": "601",
        "type": "t_array(t_uint256)50_storage"
      },
      {
        "astId": 11001,
        "contract": "contracts/collateral/rc20/MocCARC20.sol:MocCARC20",
        "label": "acToken",
        "offset": 0,
        "slot": "651",
        "type": "t_contract(IERC20)6209"
      },
      {
        "astId": 12198,
        "contract": "contracts/collateral/rc20/MocCARC20.sol:MocCARC20",
        "label": "__gap",
        "offset": 0,
        "slot": "652",
        "type": "t_array(t_uint256)50_storage"
      }
    ],
    "types": {
      "t_address": {
        "encoding": "inplace",
        "label": "address",
        "numberOfBytes": "20"
      },
      "t_array(t_contract(IMocRC20)25497)dyn_storage": {
        "base": "t_contract(IMocRC20)25497",
        "encoding": "dynamic_array",
        "label": "contract IMocRC20[]",
        "numberOfBytes": "32"
      },
      "t_array(t_int256)dyn_storage": {
        "base": "t_int256",
        "encoding": "dynamic_array",
        "label": "int256[]",
        "numberOfBytes": "32"
      },
      "t_array(t_struct(EmaItem)20956_storage)dyn_storage": {
        "base": "t_struct(EmaItem)20956_storage",
        "encoding": "dynamic_array",
        "label": "struct MocEma.EmaItem[]",
        "numberOfBytes": "32"
      },
      "t_array(t_struct(PegContainerItem)14110_storage)dyn_storage": {
        "base": "t_struct(PegContainerItem)14110_storage",
        "encoding": "dynamic_array",
        "label": "struct MocBaseBucket.PegContainerItem[]",
        "numberOfBytes": "32"
      },
      "t_array(t_uint256)49_storage": {
        "base": "t_uint256",
        "encoding": "inplace",
        "label": "uint256[49]",
        "numberOfBytes": "1568"
      },
      "t_array(t_uint256)50_storage": {
        "base": "t_uint256",
        "encoding": "inplace",
        "label": "uint256[50]",
        "numberOfBytes": "1600"
      },
      "t_array(t_uint256)dyn_storage": {
        "base": "t_uint256",
        "encoding": "dynamic_array",
        "label": "uint256[]",
        "numberOfBytes": "32"
      },
      "t_bool": {
        "encoding": "inplace",
        "label": "bool",
        "numberOfBytes": "1"
      },
      "t_contract(IDataProvider)25425": {
        "encoding": "inplace",
        "label": "contract IDataProvider",
        "numberOfBytes": "20"
      },
      "t_contract(IERC20)6209": {
        "encoding": "inplace",
        "label": "contract IERC20",
        "numberOfBytes": "20"
      },
      "t_contract(IGovernor)25471": {
        "encoding": "inplace",
        "label": "contract IGovernor",
        "numberOfBytes": "20"
      },
      "t_contract(IMocRC20)25497": {
        "encoding": "inplace",
        "label": "contract IMocRC20",
        "numberOfBytes": "20"
      },
      "t_contract(IPriceProvider)25509": {
        "encoding": "inplace",
        "label": "contract IPriceProvider",
        "numberOfBytes": "20"
      },
      "t_contract(MocTC)30142": {
        "encoding": "inplace",
        "label": "contract MocTC",
        "numberOfBytes": "20"
      },
      "t_contract(MocVendors)30538": {
        "encoding": "inplace",
        "label": "contract MocVendors",
        "numberOfBytes": "20"
      },
      "t_int256": {
        "encoding": "inplace",
        "label": "int256",
        "numberOfBytes": "32"
      },
      "t_mapping(t_address,t_struct(PeggedTokenIndex)14115_storage)": {
        "encoding": "mapping",
        "key": "t_address",
        "label": "mapping(address => struct MocBaseBucket.PeggedTokenIndex)",
        "numberOfBytes": "32",
        "value": "t_struct(PeggedTokenIndex)14115_storage"
      },
      "t_mapping(t_address,t_uint256)": {
        "encoding": "mapping",
        "key": "t_address",
        "label": "mapping(address => uint256)",
        "numberOfBytes": "32",
        "value": "t_uint256"
      },
      "t_struct(EmaItem)20956_storage": {
        "encoding": "inplace",
        "label": "struct MocEma.EmaItem",
        "members": [
          {
            "astId": 20953,
            "contract": "contracts/collateral/rc20/MocCARC20.sol:MocCARC20",
            "label": "ema",
            "offset": 0,
            "slot": "0",
            "type": "t_uint256"
          },
          {
            "astId": 20955,
            "contract": "contracts/collateral/rc20/MocCARC20.sol:MocCARC20",
            "label": "sf",
            "offset": 0,
            "slot": "1",
            "type": "t_uint256"
          }
        ],
        "numberOfBytes": "64"
      },
      "t_struct(PegContainerItem)14110_storage": {
        "encoding": "inplace",
        "label": "struct MocBaseBucket.PegContainerItem",
        "members": [
          {
            "astId": 14106,
            "contract": "contracts/collateral/rc20/MocCARC20.sol:MocCARC20",
            "label": "nTP",
            "offset": 0,
            "slot": "0",
            "type": "t_uint256"
          },
          {
            "astId": 14109,
            "contract": "contracts/collateral/rc20/MocCARC20.sol:MocCARC20",
            "label": "priceProvider",
            "offset": 0,
            "slot": "1",
            "type": "t_contract(IPriceProvider)25509"
          }
        ],
        "numberOfBytes": "64"
      },
      "t_struct(PeggedTokenIndex)14115_storage": {
        "encoding": "inplace",
        "label": "struct MocBaseBucket.PeggedTokenIndex",
        "members": [
          {
            "astId": 14112,
            "contract": "contracts/collateral/rc20/MocCARC20.sol:MocCARC20",
            "label": "index",
            "offset": 0,
            "slot": "0",
            "type": "t_uint256"
          },
          {
            "astId": 14114,
            "contract": "contracts/collateral/rc20/MocCARC20.sol:MocCARC20",
            "label": "exists",
            "offset": 0,
            "slot": "1",
            "type": "t_bool"
          }
        ],
        "numberOfBytes": "64"
      },
      "t_uint256": {
        "encoding": "inplace",
        "label": "uint256",
        "numberOfBytes": "32"
      },
      "t_uint8": {
        "encoding": "inplace",
        "label": "uint8",
        "numberOfBytes": "1"
      }
    }
  },
  "userdoc": {
    "kind": "user",
    "methods": {
      "addPeggedToken((address,address,uint256,uint256,uint256,uint256,uint256))": {
        "notice": "add a Pegged Token to the protocol"
      },
      "calcCtargemaCA()": {
        "notice": "calculates target coverage adjusted by all Pegged Token's to Collateral Asset rate moving average"
      },
      "changeGovernor(address)": {
        "notice": "Change the contract's governor. Should be called through the old governance system"
      },
      "editPeggedToken((address,address,uint256,uint256,uint256,uint256,uint256))": {
        "notice": "modifies a Pegged Token of the protocol"
      },
      "evalLiquidation()": {
        "notice": "evaluates if liquidation threshold has been reached and liq is Enabled. If so forces contracts liquidation, blocking all mint & redeem operations. May emit a {ContractLiquidated} event."
      },
      "execSettlement()": {
        "notice": "this function is executed during settlement.  stores amount of locked AC by Pegged Tokens at this moment and distribute success fee"
      },
      "getBts()": {
        "notice": "get the number of blocks remaining for settlement"
      },
      "getCglb()": {
        "notice": "get bucket global coverage"
      },
      "getLckAC()": {
        "notice": "get amount of Collateral Asset locked by Pegged Token"
      },
      "getLeverageTC()": {
        "notice": "get Collateral Token leverage"
      },
      "getPACtp(address)": {
        "notice": "get how many Pegged Token equal 1 Collateral Asset"
      },
      "getPTCac()": {
        "notice": "get Collateral Token price"
      },
      "getTCAvailableToRedeem()": {
        "notice": "get amount of Collateral Token available to redeem"
      },
      "getTPAvailableToMint(address)": {
        "notice": "get amount of Pegged Token available to mint"
      },
      "getTotalACavailable()": {
        "notice": "get total Collateral Asset available"
      },
      "governor()": {
        "notice": "The address of the contract which governs this one"
      },
      "initialize((((address,address,address,address,address,uint256,uint256,uint256,uint256,uint256,uint256,uint256,uint256,uint256,uint256,uint256,uint256,uint256,uint256,address,uint256,uint256,address,address,uint256),address,address,address,uint256,address),address))": {
        "notice": "contract initializer"
      },
      "isLiquidationReached()": {
        "notice": "If liquidation is enabled, verifies if forced liquidation has been reached, checking if globalCoverage <= liquidation"
      },
      "liqRedeemTP(address)": {
        "notice": "Allow redeem on liquidation state, user Peg balance gets burned and he receives the equivalent AC given the liquidation frozen price."
      },
      "liqRedeemTPto(address,address)": {
        "notice": "Allow redeem on liquidation state, user Peg balance gets burned and he receives the equivalent AC given the liquidation frozen price."
      },
      "makeStoppable()": {
        "notice": "Switches ON the stoppability of the contract; if the contract was paused before making it unstoppable it will be paused again after calling this function"
      },
      "makeUnstoppable()": {
        "notice": "Switches OFF the stoppability of the contract; if the contract was paused it will no longer be so"
      },
      "maxQACToMintTP()": {
        "notice": "gets the max amount of AC allowed to operate to mint TP with, restricted by accumulators // TODO: move this function to a MocView contract"
      },
      "maxQACToRedeemTP()": {
        "notice": "gets the max amount of AC allowed to operate to redeem TP with, restricted by accumulators // TODO: move this function to a MocView contract"
      },
      "mintTC(uint256,uint256)": {
        "notice": "caller sends Collateral Asset and receives Collateral Token Requires prior sender approval of Collateral Asset to this contract "
      },
      "mintTCViaVendor(uint256,uint256,address)": {
        "notice": "caller sends Collateral Asset and receives Collateral Token  `vendor_` receives a markup in Fee Token if possible or in qAC if not  Requires prior sender approval of Collateral Asset to this contract"
      },
      "mintTCandTP(address,uint256,uint256)": {
        "notice": "caller sends Collateral Asset and receives Collateral Token and Pegged Token  Requires prior sender approval of Collateral Asset to this contract  This operation is done without checking coverage  Collateral Token and Pegged Token are minted in equivalent proportions so that its price  and global coverage are not modified.  Reverts if qAC sent are insufficient."
      },
      "mintTCandTPViaVendor(address,uint256,uint256,address)": {
        "notice": "caller sends Collateral Asset and receives Collateral Token and Pegged Token  `vendor_` receives a markup in Fee Token if possible or in qAC if not  Requires prior sender approval of Collateral Asset to this contract  This operation is done without checking coverage  Collateral Token and Pegged Token are minted in equivalent proportions so that its price  and global coverage are not modified.  Reverts if qAC sent are insufficient."
      },
      "mintTCandTPto(address,uint256,uint256,address)": {
        "notice": "caller sends Collateral Asset and recipient receives Collateral Token and Pegged Token  Requires prior sender approval of Collateral Asset to this contract  This operation is done without checking coverage  Collateral Token and Pegged Token are minted in equivalent proportions so that its price  and global coverage are not modified.  Reverts if qAC sent are insufficient."
      },
      "mintTCandTPtoViaVendor(address,uint256,uint256,address,address)": {
        "notice": "caller sends Collateral Asset and recipient receives Collateral Token and Pegged Token  `vendor_` receives a markup in Fee Token if possible or in qAC if not  Requires prior sender approval of Collateral Asset to this contract  This operation is done without checking coverage  Collateral Token and Pegged Token are minted in equivalent proportions so that its price  and global coverage are not modified.  Reverts if qAC sent are insufficient."
      },
      "mintTCto(uint256,uint256,address)": {
        "notice": "caller sends Collateral Asset and recipient receives Collateral Token  Requires prior sender approval of Collateral Asset to this contract"
      },
      "mintTCtoViaVendor(uint256,uint256,address,address)": {
        "notice": "caller sends Collateral Asset and recipient receives Collateral Token  `vendor_` receives a markup in Fee Token if possible or in qAC if not   Requires prior sender approval of Collateral Asset to this contract"
      },
      "mintTP(address,uint256,uint256)": {
        "notice": "caller sends Collateral Asset and receives Pegged Token Requires prior sender approval of Collateral Asset to this contract "
      },
      "mintTPViaVendor(address,uint256,uint256,address)": {
        "notice": "caller sends Collateral Asset and receives Pegged Token  `vendor_` receives a markup in Fee Token if possible or in qAC if not   Requires prior sender approval of Collateral Asset to this contract"
      },
      "mintTPto(address,uint256,uint256,address)": {
        "notice": "caller sends Collateral Asset and recipient receives Pegged Token Requires prior sender approval of Collateral Asset to this contract "
      },
      "mintTPtoViaVendor(address,uint256,uint256,address,address)": {
        "notice": "caller sends Collateral Asset and recipient receives Pegged Token  `vendor_` receives a markup in Fee Token if possible or in qAC if not   Requires prior sender approval of Collateral Asset to this contract"
      },
      "pause()": {
        "notice": "Called by the owner to pause, triggers stopped state"
      },
      "paused()": {
        "notice": "Returns true if paused"
      },
      "redeemTC(uint256,uint256)": {
        "notice": "caller sends Collateral Token and receives Collateral Asset"
      },
      "redeemTCViaVendor(uint256,uint256,address)": {
        "notice": "caller sends Collateral Token and receives Collateral Asset  `vendor_` receives a markup in Fee Token if possible or in qAC if not"
      },
      "redeemTCandTP(address,uint256,uint256,uint256)": {
        "notice": "caller sends Collateral Token and Pegged Token and receives coinbase as Collateral Asset  This operation is done without checking coverage  Collateral Token and Pegged Token are redeemed in equivalent proportions so that its price  and global coverage are not modified.  Reverts if qTP sent are insufficient."
      },
      "redeemTCandTPViaVendor(address,uint256,uint256,uint256,address)": {
        "notice": "caller sends Collateral Token and Pegged Token and receives coinbase as Collateral Asset  `vendor_` receives a markup in Fee Token if possible or in qAC if not  This operation is done without checking coverage  Collateral Token and Pegged Token are redeemed in equivalent proportions so that its price  and global coverage are not modified.  Reverts if qTP sent are insufficient."
      },
      "redeemTCandTPto(address,uint256,uint256,uint256,address)": {
        "notice": "caller sends Collateral Token and Pegged Token and recipient receives Collateral Asset  This operation is done without checking coverage  Collateral Token and Pegged Token are redeemed in equivalent proportions so that its price  and global coverage are not modified.  Reverts if qTP sent are insufficient."
      },
      "redeemTCandTPtoViaVendor(address,uint256,uint256,uint256,address,address)": {
        "notice": "caller sends Collateral Token and Pegged Token and recipient receives Collateral Asset  `vendor_` receives a markup in Fee Token if possible or in qAC if not  This operation is done without checking coverage  Collateral Token and Pegged Token are redeemed in equivalent proportions so that its price  and global coverage are not modified.  Reverts if qTP sent are insufficient."
      },
      "redeemTCto(uint256,uint256,address)": {
        "notice": "caller sends Collateral Token and recipient receives Collateral Asset"
      },
      "redeemTCtoViaVendor(uint256,uint256,address,address)": {
        "notice": "caller sends Collateral Token and recipient receives Collateral Asset  `vendor_` receives a markup in Fee Token if possible or in qAC if not"
      },
      "redeemTP(address,uint256,uint256)": {
        "notice": "caller sends Pegged Token and receives Collateral Asset"
      },
      "redeemTPViaVendor(address,uint256,uint256,address)": {
        "notice": "caller sends Pegged Token and receives Collateral Asset  `vendor_` receives a markup in Fee Token if possible or in qAC if not"
      },
      "redeemTPto(address,uint256,uint256,address)": {
        "notice": "caller sends Pegged Token and recipient receives Collateral Asset"
      },
      "redeemTPtoViaVendor(address,uint256,uint256,address,address)": {
        "notice": "caller sends Pegged Token and recipient receives Collateral Asset  `vendor_` receives a markup in Fee Token if possible or in qAC if not"
      },
      "refreshACBalance()": {
        "notice": "Refreshes the AC holdings for the Bucket"
      },
      "setPauser(address)": {
        "notice": "Changes the address which is enable to pause this contract"
      },
      "shouldCalculateEma()": {
        "notice": "true if the necessary span has pass since last ema update"
      },
      "swapTCforTP(address,uint256,uint256,uint256)": {
        "notice": "caller sends Collateral Token and receives Pegged Token"
      },
      "swapTCforTPViaVendor(address,uint256,uint256,uint256,address)": {
        "notice": "caller sends Collateral Token and receives Pegged Token  `vendor_` receives a markup in Fee Token if possible or in qAC if not"
      },
      "swapTCforTPto(address,uint256,uint256,uint256,address)": {
        "notice": "caller sends Collateral Token and recipient receives Pegged Token"
      },
      "swapTCforTPtoViaVendor(address,uint256,uint256,uint256,address,address)": {
        "notice": "caller sends Collateral Token and recipient receives Pegged Token  `vendor_` receives a markup in Fee Token if possible or in qAC if not"
      },
      "swapTPforTC(address,uint256,uint256,uint256)": {
        "notice": "caller sends a Pegged Token and receives Collateral Token"
      },
      "swapTPforTCViaVendor(address,uint256,uint256,uint256,address)": {
        "notice": "caller sends a Pegged Token and receives Collateral Token  `vendor_` receives a markup in Fee Token if possible or in qAC if not"
      },
      "swapTPforTCto(address,uint256,uint256,uint256,address)": {
        "notice": "caller sends a Pegged Token and recipient receives Collateral Token"
      },
      "swapTPforTCtoViaVendor(address,uint256,uint256,uint256,address,address)": {
        "notice": "caller sends a Pegged Token and recipient receives Collateral Token  `vendor_` receives a markup in Fee Token if possible or in qAC if not"
      },
      "swapTPforTP(address,address,uint256,uint256,uint256)": {
        "notice": "caller sends a Pegged Token and receives another one"
      },
      "swapTPforTPViaVendor(address,address,uint256,uint256,uint256,address)": {
        "notice": "caller sends a Pegged Token and receives another one  `vendor_` receives a markup in Fee Token if possible or in qAC if not"
      },
      "swapTPforTPto(address,address,uint256,uint256,uint256,address)": {
        "notice": "caller sends a Pegged Token and recipient receives another one"
      },
      "swapTPforTPtoViaVendor(address,address,uint256,uint256,uint256,address,address)": {
        "notice": "caller sends a Pegged Token and recipient receives another one  `vendor_` receives a markup in Fee Token if possible or in qAC if not"
      },
      "tcHoldersInterestPayment()": {
        "notice": "executes the interest payment of the TC holders  can only be executed after a block span"
      },
      "unpause()": {
        "notice": "Called by the owner to unpause, returns to normal state"
      },
      "updateEmas()": {
        "notice": "If time, calculates the EMA for all the Pegged Token prices."
      }
    },
    "notice": "Moc protocol implementation using a RC20 as Collateral Asset.",
    "version": 1
  }
}