{
  "contractName": "MocCARC20",
  "sourceName": "contracts/collateral/rc20/MocCARC20.sol",
  "abi": [
    {
      "inputs": [],
      "stateMutability": "nonpayable",
      "type": "constructor"
    },
    {
      "inputs": [
        {
          "internalType": "uint256",
          "name": "qACsent_",
          "type": "uint256"
        },
        {
          "internalType": "uint256",
          "name": "qACNeeded_",
          "type": "uint256"
        }
      ],
      "name": "InsufficientQacSent",
      "type": "error"
    },
    {
      "inputs": [
        {
          "internalType": "uint256",
          "name": "qTPsent_",
          "type": "uint256"
        },
        {
          "internalType": "uint256",
          "name": "qTPNeeded_",
          "type": "uint256"
        }
      ],
      "name": "InsufficientQtpSent",
      "type": "error"
    },
    {
      "inputs": [
        {
          "internalType": "uint256",
          "name": "qTC_",
          "type": "uint256"
        },
        {
          "internalType": "uint256",
          "name": "tcAvailableToRedeem_",
          "type": "uint256"
        }
      ],
      "name": "InsufficientTCtoRedeem",
      "type": "error"
    },
    {
      "inputs": [
        {
          "internalType": "uint256",
          "name": "qTP_",
          "type": "uint256"
        },
        {
          "internalType": "uint256",
          "name": "tpAvailableToMint_",
          "type": "uint256"
        }
      ],
      "name": "InsufficientTPtoMint",
      "type": "error"
    },
    {
      "inputs": [
        {
          "internalType": "uint256",
          "name": "qTP_",
          "type": "uint256"
        },
        {
          "internalType": "uint256",
          "name": "tpAvailableToRedeem_",
          "type": "uint256"
        }
      ],
      "name": "InsufficientTPtoRedeem",
      "type": "error"
    },
    {
      "inputs": [],
      "name": "InvalidAddress",
      "type": "error"
    },
    {
      "inputs": [],
      "name": "InvalidFluxCapacitorOperation",
      "type": "error"
    },
    {
      "inputs": [],
      "name": "InvalidValue",
      "type": "error"
    },
    {
      "inputs": [],
      "name": "Liquidated",
      "type": "error"
    },
    {
      "inputs": [
        {
          "internalType": "uint256",
          "name": "cglb_",
          "type": "uint256"
        },
        {
          "internalType": "uint256",
          "name": "covThrld_",
          "type": "uint256"
        }
      ],
      "name": "LowCoverage",
      "type": "error"
    },
    {
      "inputs": [
        {
          "internalType": "uint256",
          "name": "max_",
          "type": "uint256"
        },
        {
          "internalType": "uint256",
          "name": "new_",
          "type": "uint256"
        }
      ],
      "name": "MaxFluxCapacitorOperationReached",
      "type": "error"
    },
    {
      "inputs": [],
      "name": "MissingBlocksToSettlement",
      "type": "error"
    },
    {
      "inputs": [],
      "name": "MissingBlocksToTCInterestPayment",
      "type": "error"
    },
    {
      "inputs": [
        {
          "internalType": "address",
          "name": "dataProviderAddress_",
          "type": "address"
        }
      ],
      "name": "MissingProviderData",
      "type": "error"
    },
    {
      "inputs": [
        {
          "internalType": "address",
          "name": "priceProviderAddress_",
          "type": "address"
        }
      ],
      "name": "MissingProviderPrice",
      "type": "error"
    },
    {
      "inputs": [],
      "name": "NotAuthorizedChanger",
      "type": "error"
    },
    {
      "inputs": [],
      "name": "NotWhenPaused",
      "type": "error"
    },
    {
      "inputs": [],
      "name": "OnlyPauser",
      "type": "error"
    },
    {
      "inputs": [],
      "name": "OnlyQueue",
      "type": "error"
    },
    {
      "inputs": [],
      "name": "OnlyWhenLiquidated",
      "type": "error"
    },
    {
      "inputs": [],
      "name": "OnlyWhilePaused",
      "type": "error"
    },
    {
      "inputs": [],
      "name": "PeggedTokenAlreadyAdded",
      "type": "error"
    },
    {
      "inputs": [
        {
          "internalType": "uint256",
          "name": "qACmin_",
          "type": "uint256"
        },
        {
          "internalType": "uint256",
          "name": "qACtoRedeem_",
          "type": "uint256"
        }
      ],
      "name": "QacBelowMinimumRequired",
      "type": "error"
    },
    {
      "inputs": [],
      "name": "QacNeededMustBeGreaterThanZero",
      "type": "error"
    },
    {
      "inputs": [
        {
          "internalType": "uint256",
          "name": "qTCmin_",
          "type": "uint256"
        },
        {
          "internalType": "uint256",
          "name": "qTC_",
          "type": "uint256"
        }
      ],
      "name": "QtcBelowMinimumRequired",
      "type": "error"
    },
    {
      "inputs": [
        {
          "internalType": "uint256",
          "name": "qTPmin_",
          "type": "uint256"
        },
        {
          "internalType": "uint256",
          "name": "qTP_",
          "type": "uint256"
        }
      ],
      "name": "QtpBelowMinimumRequired",
      "type": "error"
    },
    {
      "inputs": [],
      "name": "TransferFailed",
      "type": "error"
    },
    {
      "inputs": [],
      "name": "Unstoppable",
      "type": "error"
    },
    {
      "anonymous": false,
      "inputs": [
        {
          "indexed": false,
          "internalType": "address",
          "name": "previousAdmin",
          "type": "address"
        },
        {
          "indexed": false,
          "internalType": "address",
          "name": "newAdmin",
          "type": "address"
        }
      ],
      "name": "AdminChanged",
      "type": "event"
    },
    {
      "anonymous": false,
      "inputs": [
        {
          "indexed": true,
          "internalType": "address",
          "name": "beacon",
          "type": "address"
        }
      ],
      "name": "BeaconUpgraded",
      "type": "event"
    },
    {
      "anonymous": false,
      "inputs": [],
      "name": "ContractLiquidated",
      "type": "event"
    },
    {
      "anonymous": false,
      "inputs": [
        {
          "indexed": false,
          "internalType": "uint8",
          "name": "version",
          "type": "uint8"
        }
      ],
      "name": "Initialized",
      "type": "event"
    },
    {
      "anonymous": false,
      "inputs": [
        {
          "indexed": true,
          "internalType": "address",
          "name": "tp_",
          "type": "address"
        },
        {
          "indexed": true,
          "internalType": "address",
          "name": "sender_",
          "type": "address"
        },
        {
          "indexed": true,
          "internalType": "address",
          "name": "recipient_",
          "type": "address"
        },
        {
          "indexed": false,
          "internalType": "uint256",
          "name": "qTP_",
          "type": "uint256"
        },
        {
          "indexed": false,
          "internalType": "uint256",
          "name": "qAC_",
          "type": "uint256"
        }
      ],
      "name": "LiqTPRedeemed",
      "type": "event"
    },
    {
      "anonymous": false,
      "inputs": [
        {
          "indexed": false,
          "internalType": "address",
          "name": "account",
          "type": "address"
        }
      ],
      "name": "Paused",
      "type": "event"
    },
    {
      "anonymous": false,
      "inputs": [
        {
          "indexed": false,
          "internalType": "uint256",
          "name": "i_",
          "type": "uint256"
        },
        {
          "components": [
            {
              "internalType": "address",
              "name": "tpTokenAddress",
              "type": "address"
            },
            {
              "internalType": "address",
              "name": "priceProviderAddress",
              "type": "address"
            },
            {
              "internalType": "uint256",
              "name": "tpCtarg",
              "type": "uint256"
            },
            {
              "internalType": "uint256",
              "name": "tpMintFee",
              "type": "uint256"
            },
            {
              "internalType": "uint256",
              "name": "tpRedeemFee",
              "type": "uint256"
            },
            {
              "internalType": "uint256",
              "name": "tpEma",
              "type": "uint256"
            },
            {
              "internalType": "uint256",
              "name": "tpEmaSf",
              "type": "uint256"
            }
          ],
          "indexed": false,
          "internalType": "struct PeggedTokenParams",
          "name": "peggedTokenParams_",
          "type": "tuple"
        }
      ],
      "name": "PeggedTokenChange",
      "type": "event"
    },
    {
      "anonymous": false,
      "inputs": [],
      "name": "SettlementExecuted",
      "type": "event"
    },
    {
      "anonymous": false,
      "inputs": [
        {
          "indexed": false,
          "internalType": "uint256",
          "name": "mocGain_",
          "type": "uint256"
        },
        {
          "indexed": false,
          "internalType": "uint256[]",
          "name": "tpGain_",
          "type": "uint256[]"
        }
      ],
      "name": "SuccessFeeDistributed",
      "type": "event"
    },
    {
      "anonymous": false,
      "inputs": [
        {
          "indexed": false,
          "internalType": "uint256",
          "name": "interestAmount_",
          "type": "uint256"
        }
      ],
      "name": "TCInterestPayment",
      "type": "event"
    },
    {
      "anonymous": false,
      "inputs": [
        {
          "indexed": true,
          "internalType": "uint256",
          "name": "i_",
          "type": "uint256"
        },
        {
          "indexed": false,
          "internalType": "uint256",
          "name": "oldTPema_",
          "type": "uint256"
        },
        {
          "indexed": false,
          "internalType": "uint256",
          "name": "newTPema_",
          "type": "uint256"
        }
      ],
      "name": "TPemaUpdated",
      "type": "event"
    },
    {
      "anonymous": false,
      "inputs": [
        {
          "indexed": false,
          "internalType": "address",
          "name": "account",
          "type": "address"
        }
      ],
      "name": "Unpaused",
      "type": "event"
    },
    {
      "anonymous": false,
      "inputs": [
        {
          "indexed": true,
          "internalType": "address",
          "name": "implementation",
          "type": "address"
        }
      ],
      "name": "Upgraded",
      "type": "event"
    },
    {
      "inputs": [],
      "name": "absoluteAccumulator",
      "outputs": [
        {
          "internalType": "uint256",
          "name": "",
          "type": "uint256"
        }
      ],
      "stateMutability": "view",
      "type": "function"
    },
    {
      "inputs": [],
      "name": "acToken",
      "outputs": [
        {
          "internalType": "contract IERC20",
          "name": "",
          "type": "address"
        }
      ],
      "stateMutability": "view",
      "type": "function"
    },
    {
      "inputs": [
        {
          "components": [
            {
              "internalType": "address",
              "name": "tpTokenAddress",
              "type": "address"
            },
            {
              "internalType": "address",
              "name": "priceProviderAddress",
              "type": "address"
            },
            {
              "internalType": "uint256",
              "name": "tpCtarg",
              "type": "uint256"
            },
            {
              "internalType": "uint256",
              "name": "tpMintFee",
              "type": "uint256"
            },
            {
              "internalType": "uint256",
              "name": "tpRedeemFee",
              "type": "uint256"
            },
            {
              "internalType": "uint256",
              "name": "tpEma",
              "type": "uint256"
            },
            {
              "internalType": "uint256",
              "name": "tpEmaSf",
              "type": "uint256"
            }
          ],
          "internalType": "struct PeggedTokenParams",
          "name": "peggedTokenParams_",
          "type": "tuple"
        }
      ],
      "name": "addPeggedToken",
      "outputs": [],
      "stateMutability": "nonpayable",
      "type": "function"
    },
    {
      "inputs": [],
      "name": "appreciationFactor",
      "outputs": [
        {
          "internalType": "uint256",
          "name": "",
          "type": "uint256"
        }
      ],
      "stateMutability": "view",
      "type": "function"
    },
    {
      "inputs": [],
      "name": "bes",
      "outputs": [
        {
          "internalType": "uint256",
          "name": "",
          "type": "uint256"
        }
      ],
      "stateMutability": "view",
      "type": "function"
    },
    {
      "inputs": [],
      "name": "bns",
      "outputs": [
        {
          "internalType": "uint256",
          "name": "",
          "type": "uint256"
        }
      ],
      "stateMutability": "view",
      "type": "function"
    },
    {
      "inputs": [],
      "name": "calcCtargemaCA",
      "outputs": [
        {
          "internalType": "uint256",
          "name": "ctargemaCA",
          "type": "uint256"
        }
      ],
      "stateMutability": "view",
      "type": "function"
    },
    {
      "inputs": [
        {
          "internalType": "contract IGovernor",
          "name": "newGovernor_",
          "type": "address"
        }
      ],
      "name": "changeGovernor",
      "outputs": [],
      "stateMutability": "nonpayable",
      "type": "function"
    },
    {
      "inputs": [],
      "name": "decayBlockSpan",
      "outputs": [
        {
          "internalType": "uint256",
          "name": "",
          "type": "uint256"
        }
      ],
      "stateMutability": "view",
      "type": "function"
    },
    {
      "inputs": [],
      "name": "differentialAccumulator",
      "outputs": [
        {
          "internalType": "int256",
          "name": "",
          "type": "int256"
        }
      ],
      "stateMutability": "view",
      "type": "function"
    },
    {
      "inputs": [
        {
          "components": [
            {
              "internalType": "address",
              "name": "tpTokenAddress",
              "type": "address"
            },
            {
              "internalType": "address",
              "name": "priceProviderAddress",
              "type": "address"
            },
            {
              "internalType": "uint256",
              "name": "tpCtarg",
              "type": "uint256"
            },
            {
              "internalType": "uint256",
              "name": "tpMintFee",
              "type": "uint256"
            },
            {
              "internalType": "uint256",
              "name": "tpRedeemFee",
              "type": "uint256"
            },
            {
              "internalType": "uint256",
              "name": "tpEma",
              "type": "uint256"
            },
            {
              "internalType": "uint256",
              "name": "tpEmaSf",
              "type": "uint256"
            }
          ],
          "internalType": "struct PeggedTokenParams",
          "name": "peggedTokenParams_",
          "type": "tuple"
        }
      ],
      "name": "editPeggedToken",
      "outputs": [],
      "stateMutability": "nonpayable",
      "type": "function"
    },
    {
      "inputs": [],
      "name": "emaCalculationBlockSpan",
      "outputs": [
        {
          "internalType": "uint256",
          "name": "",
          "type": "uint256"
        }
      ],
      "stateMutability": "view",
      "type": "function"
    },
    {
      "inputs": [],
      "name": "evalLiquidation",
      "outputs": [],
      "stateMutability": "nonpayable",
      "type": "function"
    },
    {
      "inputs": [
        {
          "components": [
            {
              "internalType": "uint256",
              "name": "qTC",
              "type": "uint256"
            },
            {
              "internalType": "uint256",
              "name": "qACmax",
              "type": "uint256"
            },
            {
              "internalType": "address",
              "name": "sender",
              "type": "address"
            },
            {
              "internalType": "address",
              "name": "recipient",
              "type": "address"
            },
            {
              "internalType": "address",
              "name": "vendor",
              "type": "address"
            }
          ],
          "internalType": "struct MocCore.MintTCParams",
          "name": "params_",
          "type": "tuple"
        }
      ],
      "name": "execMintTC",
      "outputs": [
        {
          "internalType": "uint256",
          "name": "qACtotalNeeded",
          "type": "uint256"
        },
        {
          "internalType": "uint256",
          "name": "qFeeTokenTotalNeeded",
          "type": "uint256"
        },
        {
          "components": [
            {
              "internalType": "uint256",
              "name": "qACFee",
              "type": "uint256"
            },
            {
              "internalType": "uint256",
              "name": "qFeeToken",
              "type": "uint256"
            },
            {
              "internalType": "uint256",
              "name": "qACVendorMarkup",
              "type": "uint256"
            },
            {
              "internalType": "uint256",
              "name": "qFeeTokenVendorMarkup",
              "type": "uint256"
            }
          ],
          "internalType": "struct MocCommons.FeeCalcs",
          "name": "feeCalcs",
          "type": "tuple"
        }
      ],
      "stateMutability": "nonpayable",
      "type": "function"
    },
    {
      "inputs": [
        {
          "components": [
            {
              "internalType": "address",
              "name": "tp",
              "type": "address"
            },
            {
              "internalType": "uint256",
              "name": "qTP",
              "type": "uint256"
            },
            {
              "internalType": "uint256",
              "name": "qACmax",
              "type": "uint256"
            },
            {
              "internalType": "address",
              "name": "sender",
              "type": "address"
            },
            {
              "internalType": "address",
              "name": "recipient",
              "type": "address"
            },
            {
              "internalType": "address",
              "name": "vendor",
              "type": "address"
            }
          ],
          "internalType": "struct MocCommons.MintTCandTPParams",
          "name": "params_",
          "type": "tuple"
        }
      ],
      "name": "execMintTCandTP",
      "outputs": [
        {
          "internalType": "uint256",
          "name": "qACtotalNeeded",
          "type": "uint256"
        },
        {
          "internalType": "uint256",
          "name": "qTCMinted",
          "type": "uint256"
        },
        {
          "internalType": "uint256",
          "name": "qFeeTokenTotalNeeded",
          "type": "uint256"
        },
        {
          "components": [
            {
              "internalType": "uint256",
              "name": "qACFee",
              "type": "uint256"
            },
            {
              "internalType": "uint256",
              "name": "qFeeToken",
              "type": "uint256"
            },
            {
              "internalType": "uint256",
              "name": "qACVendorMarkup",
              "type": "uint256"
            },
            {
              "internalType": "uint256",
              "name": "qFeeTokenVendorMarkup",
              "type": "uint256"
            }
          ],
          "internalType": "struct MocCommons.FeeCalcs",
          "name": "feeCalcs",
          "type": "tuple"
        }
      ],
      "stateMutability": "nonpayable",
      "type": "function"
    },
    {
      "inputs": [
        {
          "components": [
            {
              "internalType": "address",
              "name": "tp",
              "type": "address"
            },
            {
              "internalType": "uint256",
              "name": "qTP",
              "type": "uint256"
            },
            {
              "internalType": "uint256",
              "name": "qACmax",
              "type": "uint256"
            },
            {
              "internalType": "address",
              "name": "sender",
              "type": "address"
            },
            {
              "internalType": "address",
              "name": "recipient",
              "type": "address"
            },
            {
              "internalType": "address",
              "name": "vendor",
              "type": "address"
            }
          ],
          "internalType": "struct MocCore.MintTPParams",
          "name": "params_",
          "type": "tuple"
        }
      ],
      "name": "execMintTP",
      "outputs": [
        {
          "internalType": "uint256",
          "name": "qACtotalNeeded",
          "type": "uint256"
        },
        {
          "internalType": "uint256",
          "name": "qFeeTokenTotalNeeded",
          "type": "uint256"
        },
        {
          "components": [
            {
              "internalType": "uint256",
              "name": "qACFee",
              "type": "uint256"
            },
            {
              "internalType": "uint256",
              "name": "qFeeToken",
              "type": "uint256"
            },
            {
              "internalType": "uint256",
              "name": "qACVendorMarkup",
              "type": "uint256"
            },
            {
              "internalType": "uint256",
              "name": "qFeeTokenVendorMarkup",
              "type": "uint256"
            }
          ],
          "internalType": "struct MocCommons.FeeCalcs",
          "name": "feeCalcs",
          "type": "tuple"
        }
      ],
      "stateMutability": "nonpayable",
      "type": "function"
    },
    {
      "inputs": [
        {
          "components": [
            {
              "internalType": "uint256",
              "name": "qTC",
              "type": "uint256"
            },
            {
              "internalType": "uint256",
              "name": "qACmin",
              "type": "uint256"
            },
            {
              "internalType": "address",
              "name": "sender",
              "type": "address"
            },
            {
              "internalType": "address",
              "name": "recipient",
              "type": "address"
            },
            {
              "internalType": "address",
              "name": "vendor",
              "type": "address"
            }
          ],
          "internalType": "struct MocCore.RedeemTCParams",
          "name": "params_",
          "type": "tuple"
        }
      ],
      "name": "execRedeemTC",
      "outputs": [
        {
          "internalType": "uint256",
          "name": "qACtoRedeem",
          "type": "uint256"
        },
        {
          "internalType": "uint256",
          "name": "qFeeTokenTotalNeeded",
          "type": "uint256"
        },
        {
          "components": [
            {
              "internalType": "uint256",
              "name": "qACFee",
              "type": "uint256"
            },
            {
              "internalType": "uint256",
              "name": "qFeeToken",
              "type": "uint256"
            },
            {
              "internalType": "uint256",
              "name": "qACVendorMarkup",
              "type": "uint256"
            },
            {
              "internalType": "uint256",
              "name": "qFeeTokenVendorMarkup",
              "type": "uint256"
            }
          ],
          "internalType": "struct MocCommons.FeeCalcs",
          "name": "feeCalcs",
          "type": "tuple"
        }
      ],
      "stateMutability": "nonpayable",
      "type": "function"
    },
    {
      "inputs": [
        {
          "components": [
            {
              "internalType": "address",
              "name": "tp",
              "type": "address"
            },
            {
              "internalType": "uint256",
              "name": "qTC",
              "type": "uint256"
            },
            {
              "internalType": "uint256",
              "name": "qTP",
              "type": "uint256"
            },
            {
              "internalType": "uint256",
              "name": "qACmin",
              "type": "uint256"
            },
            {
              "internalType": "address",
              "name": "sender",
              "type": "address"
            },
            {
              "internalType": "address",
              "name": "recipient",
              "type": "address"
            },
            {
              "internalType": "address",
              "name": "vendor",
              "type": "address"
            }
          ],
          "internalType": "struct MocCommons.RedeemTCandTPParams",
          "name": "params_",
          "type": "tuple"
        }
      ],
      "name": "execRedeemTCandTP",
      "outputs": [
        {
          "internalType": "uint256",
          "name": "qACtoRedeem",
          "type": "uint256"
        },
        {
          "internalType": "uint256",
          "name": "qTPRedeemed",
          "type": "uint256"
        },
        {
          "internalType": "uint256",
          "name": "qFeeTokenTotalNeeded",
          "type": "uint256"
        },
        {
          "components": [
            {
              "internalType": "uint256",
              "name": "qACFee",
              "type": "uint256"
            },
            {
              "internalType": "uint256",
              "name": "qFeeToken",
              "type": "uint256"
            },
            {
              "internalType": "uint256",
              "name": "qACVendorMarkup",
              "type": "uint256"
            },
            {
              "internalType": "uint256",
              "name": "qFeeTokenVendorMarkup",
              "type": "uint256"
            }
          ],
          "internalType": "struct MocCommons.FeeCalcs",
          "name": "feeCalcs",
          "type": "tuple"
        }
      ],
      "stateMutability": "nonpayable",
      "type": "function"
    },
    {
      "inputs": [
        {
          "components": [
            {
              "internalType": "address",
              "name": "tp",
              "type": "address"
            },
            {
              "internalType": "uint256",
              "name": "qTP",
              "type": "uint256"
            },
            {
              "internalType": "uint256",
              "name": "qACmin",
              "type": "uint256"
            },
            {
              "internalType": "address",
              "name": "sender",
              "type": "address"
            },
            {
              "internalType": "address",
              "name": "recipient",
              "type": "address"
            },
            {
              "internalType": "address",
              "name": "vendor",
              "type": "address"
            }
          ],
          "internalType": "struct MocCommons.RedeemTPParams",
          "name": "params_",
          "type": "tuple"
        }
      ],
      "name": "execRedeemTP",
      "outputs": [
        {
          "internalType": "uint256",
          "name": "qACtoRedeem",
          "type": "uint256"
        },
        {
          "internalType": "uint256",
          "name": "qFeeTokenTotalNeeded",
          "type": "uint256"
        },
        {
          "components": [
            {
              "internalType": "uint256",
              "name": "qACFee",
              "type": "uint256"
            },
            {
              "internalType": "uint256",
              "name": "qFeeToken",
              "type": "uint256"
            },
            {
              "internalType": "uint256",
              "name": "qACVendorMarkup",
              "type": "uint256"
            },
            {
              "internalType": "uint256",
              "name": "qFeeTokenVendorMarkup",
              "type": "uint256"
            }
          ],
          "internalType": "struct MocCommons.FeeCalcs",
          "name": "feeCalcs",
          "type": "tuple"
        }
      ],
      "stateMutability": "nonpayable",
      "type": "function"
    },
    {
      "inputs": [],
      "name": "execSettlement",
      "outputs": [],
      "stateMutability": "nonpayable",
      "type": "function"
    },
    {
      "inputs": [
        {
          "components": [
            {
              "internalType": "address",
              "name": "tp",
              "type": "address"
            },
            {
              "internalType": "uint256",
              "name": "qTC",
              "type": "uint256"
            },
            {
              "internalType": "uint256",
              "name": "qTPmin",
              "type": "uint256"
            },
            {
              "internalType": "uint256",
              "name": "qACmax",
              "type": "uint256"
            },
            {
              "internalType": "address",
              "name": "sender",
              "type": "address"
            },
            {
              "internalType": "address",
              "name": "recipient",
              "type": "address"
            },
            {
              "internalType": "address",
              "name": "vendor",
              "type": "address"
            }
          ],
          "internalType": "struct MocCommons.SwapTCforTPParams",
          "name": "params_",
          "type": "tuple"
        }
      ],
      "name": "execSwapTCforTP",
      "outputs": [
        {
          "internalType": "uint256",
          "name": "qACSurcharges",
          "type": "uint256"
        },
        {
          "internalType": "uint256",
          "name": "qTPMinted",
          "type": "uint256"
        },
        {
          "internalType": "uint256",
          "name": "qFeeTokenTotalNeeded",
          "type": "uint256"
        },
        {
          "components": [
            {
              "internalType": "uint256",
              "name": "qACFee",
              "type": "uint256"
            },
            {
              "internalType": "uint256",
              "name": "qFeeToken",
              "type": "uint256"
            },
            {
              "internalType": "uint256",
              "name": "qACVendorMarkup",
              "type": "uint256"
            },
            {
              "internalType": "uint256",
              "name": "qFeeTokenVendorMarkup",
              "type": "uint256"
            }
          ],
          "internalType": "struct MocCommons.FeeCalcs",
          "name": "feeCalcs",
          "type": "tuple"
        }
      ],
      "stateMutability": "nonpayable",
      "type": "function"
    },
    {
      "inputs": [
        {
          "components": [
            {
              "internalType": "address",
              "name": "tp",
              "type": "address"
            },
            {
              "internalType": "uint256",
              "name": "qTP",
              "type": "uint256"
            },
            {
              "internalType": "uint256",
              "name": "qTCmin",
              "type": "uint256"
            },
            {
              "internalType": "uint256",
              "name": "qACmax",
              "type": "uint256"
            },
            {
              "internalType": "address",
              "name": "sender",
              "type": "address"
            },
            {
              "internalType": "address",
              "name": "recipient",
              "type": "address"
            },
            {
              "internalType": "address",
              "name": "vendor",
              "type": "address"
            }
          ],
          "internalType": "struct MocCommons.SwapTPforTCParams",
          "name": "params_",
          "type": "tuple"
        }
      ],
      "name": "execSwapTPforTC",
      "outputs": [
        {
          "internalType": "uint256",
          "name": "qACSurcharges",
          "type": "uint256"
        },
        {
          "internalType": "uint256",
          "name": "qTCMinted",
          "type": "uint256"
        },
        {
          "internalType": "uint256",
          "name": "qFeeTokenTotalNeeded",
          "type": "uint256"
        },
        {
          "components": [
            {
              "internalType": "uint256",
              "name": "qACFee",
              "type": "uint256"
            },
            {
              "internalType": "uint256",
              "name": "qFeeToken",
              "type": "uint256"
            },
            {
              "internalType": "uint256",
              "name": "qACVendorMarkup",
              "type": "uint256"
            },
            {
              "internalType": "uint256",
              "name": "qFeeTokenVendorMarkup",
              "type": "uint256"
            }
          ],
          "internalType": "struct MocCommons.FeeCalcs",
          "name": "feeCalcs",
          "type": "tuple"
        }
      ],
      "stateMutability": "nonpayable",
      "type": "function"
    },
    {
      "inputs": [
        {
          "components": [
            {
              "internalType": "address",
              "name": "tpFrom",
              "type": "address"
            },
            {
              "internalType": "address",
              "name": "tpTo",
              "type": "address"
            },
            {
              "internalType": "uint256",
              "name": "qTP",
              "type": "uint256"
            },
            {
              "internalType": "uint256",
              "name": "qTPmin",
              "type": "uint256"
            },
            {
              "internalType": "uint256",
              "name": "qACmax",
              "type": "uint256"
            },
            {
              "internalType": "address",
              "name": "sender",
              "type": "address"
            },
            {
              "internalType": "address",
              "name": "recipient",
              "type": "address"
            },
            {
              "internalType": "address",
              "name": "vendor",
              "type": "address"
            }
          ],
          "internalType": "struct MocCommons.SwapTPforTPParams",
          "name": "params_",
          "type": "tuple"
        }
      ],
      "name": "execSwapTPforTP",
      "outputs": [
        {
          "internalType": "uint256",
          "name": "qACSurcharges",
          "type": "uint256"
        },
        {
          "internalType": "uint256",
          "name": "qTPMinted",
          "type": "uint256"
        },
        {
          "internalType": "uint256",
          "name": "qFeeTokenTotalNeeded",
          "type": "uint256"
        },
        {
          "components": [
            {
              "internalType": "uint256",
              "name": "qACFee",
              "type": "uint256"
            },
            {
              "internalType": "uint256",
              "name": "qFeeToken",
              "type": "uint256"
            },
            {
              "internalType": "uint256",
              "name": "qACVendorMarkup",
              "type": "uint256"
            },
            {
              "internalType": "uint256",
              "name": "qFeeTokenVendorMarkup",
              "type": "uint256"
            }
          ],
          "internalType": "struct MocCommons.FeeCalcs",
          "name": "feeCalcs",
          "type": "tuple"
        }
      ],
      "stateMutability": "nonpayable",
      "type": "function"
    },
    {
      "inputs": [],
      "name": "feeRetainer",
      "outputs": [
        {
          "internalType": "uint256",
          "name": "",
          "type": "uint256"
        }
      ],
      "stateMutability": "view",
      "type": "function"
    },
    {
      "inputs": [],
      "name": "feeToken",
      "outputs": [
        {
          "internalType": "contract IERC20",
          "name": "",
          "type": "address"
        }
      ],
      "stateMutability": "view",
      "type": "function"
    },
    {
      "inputs": [],
      "name": "feeTokenPct",
      "outputs": [
        {
          "internalType": "uint256",
          "name": "",
          "type": "uint256"
        }
      ],
      "stateMutability": "view",
      "type": "function"
    },
    {
      "inputs": [],
      "name": "feeTokenPriceProvider",
      "outputs": [
        {
          "internalType": "contract IPriceProvider",
          "name": "",
          "type": "address"
        }
      ],
      "stateMutability": "view",
      "type": "function"
    },
    {
      "inputs": [],
      "name": "getBts",
      "outputs": [
        {
          "internalType": "uint256",
          "name": "",
          "type": "uint256"
        }
      ],
      "stateMutability": "view",
      "type": "function"
    },
    {
      "inputs": [],
      "name": "getCglb",
      "outputs": [
        {
          "internalType": "uint256",
          "name": "cglob",
          "type": "uint256"
        }
      ],
      "stateMutability": "view",
      "type": "function"
    },
    {
      "inputs": [],
      "name": "getLckAC",
      "outputs": [
        {
          "internalType": "uint256",
          "name": "lckAC",
          "type": "uint256"
        }
      ],
      "stateMutability": "view",
      "type": "function"
    },
    {
      "inputs": [],
      "name": "getLeverageTC",
      "outputs": [
        {
          "internalType": "uint256",
          "name": "leverageTC",
          "type": "uint256"
        }
      ],
      "stateMutability": "view",
      "type": "function"
    },
    {
      "inputs": [
        {
          "internalType": "address",
          "name": "tp_",
          "type": "address"
        }
      ],
      "name": "getPACtp",
      "outputs": [
        {
          "internalType": "uint256",
          "name": "",
          "type": "uint256"
        }
      ],
      "stateMutability": "view",
      "type": "function"
    },
    {
      "inputs": [],
      "name": "getPTCac",
      "outputs": [
        {
          "internalType": "uint256",
          "name": "pTCac",
          "type": "uint256"
        }
      ],
      "stateMutability": "view",
      "type": "function"
    },
    {
      "inputs": [],
      "name": "getTCAvailableToRedeem",
      "outputs": [
        {
          "internalType": "uint256",
          "name": "tcAvailableToRedeem",
          "type": "uint256"
        }
      ],
      "stateMutability": "view",
      "type": "function"
    },
    {
      "inputs": [
        {
          "internalType": "address",
          "name": "tp_",
          "type": "address"
        }
      ],
      "name": "getTPAvailableToMint",
      "outputs": [
        {
          "internalType": "int256",
          "name": "tpAvailableToMint",
          "type": "int256"
        }
      ],
      "stateMutability": "view",
      "type": "function"
    },
    {
      "inputs": [],
      "name": "getTotalACavailable",
      "outputs": [
        {
          "internalType": "uint256",
          "name": "totalACavailable",
          "type": "uint256"
        }
      ],
      "stateMutability": "view",
      "type": "function"
    },
    {
      "inputs": [],
      "name": "governor",
      "outputs": [
        {
          "internalType": "contract IGovernor",
          "name": "",
          "type": "address"
        }
      ],
      "stateMutability": "view",
      "type": "function"
    },
    {
      "inputs": [
        {
          "components": [
            {
              "components": [
                {
                  "components": [
                    {
                      "internalType": "address",
                      "name": "mocQueueAddress",
                      "type": "address"
                    },
                    {
                      "internalType": "address",
                      "name": "feeTokenAddress",
                      "type": "address"
                    },
                    {
                      "internalType": "address",
                      "name": "feeTokenPriceProviderAddress",
                      "type": "address"
                    },
                    {
                      "internalType": "address",
                      "name": "tcTokenAddress",
                      "type": "address"
                    },
                    {
                      "internalType": "address",
                      "name": "mocFeeFlowAddress",
                      "type": "address"
                    },
                    {
                      "internalType": "address",
                      "name": "mocAppreciationBeneficiaryAddress",
                      "type": "address"
                    },
                    {
                      "internalType": "uint256",
                      "name": "protThrld",
                      "type": "uint256"
                    },
                    {
                      "internalType": "uint256",
                      "name": "liqThrld",
                      "type": "uint256"
                    },
                    {
                      "internalType": "uint256",
                      "name": "feeRetainer",
                      "type": "uint256"
                    },
                    {
                      "internalType": "uint256",
                      "name": "tcMintFee",
                      "type": "uint256"
                    },
                    {
                      "internalType": "uint256",
                      "name": "tcRedeemFee",
                      "type": "uint256"
                    },
                    {
                      "internalType": "uint256",
                      "name": "swapTPforTPFee",
                      "type": "uint256"
                    },
                    {
                      "internalType": "uint256",
                      "name": "swapTPforTCFee",
                      "type": "uint256"
                    },
                    {
                      "internalType": "uint256",
                      "name": "swapTCforTPFee",
                      "type": "uint256"
                    },
                    {
                      "internalType": "uint256",
                      "name": "redeemTCandTPFee",
                      "type": "uint256"
                    },
                    {
                      "internalType": "uint256",
                      "name": "mintTCandTPFee",
                      "type": "uint256"
                    },
                    {
                      "internalType": "uint256",
                      "name": "feeTokenPct",
                      "type": "uint256"
                    },
                    {
                      "internalType": "uint256",
                      "name": "successFee",
                      "type": "uint256"
                    },
                    {
                      "internalType": "uint256",
                      "name": "appreciationFactor",
                      "type": "uint256"
                    },
                    {
                      "internalType": "uint256",
                      "name": "bes",
                      "type": "uint256"
                    },
                    {
                      "internalType": "address",
                      "name": "tcInterestCollectorAddress",
                      "type": "address"
                    },
                    {
                      "internalType": "uint256",
                      "name": "tcInterestRate",
                      "type": "uint256"
                    },
                    {
                      "internalType": "uint256",
                      "name": "tcInterestPaymentBlockSpan",
                      "type": "uint256"
                    },
                    {
                      "internalType": "address",
                      "name": "maxAbsoluteOpProviderAddress",
                      "type": "address"
                    },
                    {
                      "internalType": "address",
                      "name": "maxOpDiffProviderAddress",
                      "type": "address"
                    },
                    {
                      "internalType": "uint256",
                      "name": "decayBlockSpan",
                      "type": "uint256"
                    }
                  ],
                  "internalType": "struct MocBaseBucket.InitializeBaseBucketParams",
                  "name": "initializeBaseBucketParams",
                  "type": "tuple"
                },
                {
                  "internalType": "address",
                  "name": "governorAddress",
                  "type": "address"
                },
                {
                  "internalType": "address",
                  "name": "pauserAddress",
                  "type": "address"
                },
                {
                  "internalType": "address",
                  "name": "mocCoreExpansion",
                  "type": "address"
                },
                {
                  "internalType": "uint256",
                  "name": "emaCalculationBlockSpan",
                  "type": "uint256"
                },
                {
                  "internalType": "address",
                  "name": "mocVendors",
                  "type": "address"
                }
              ],
              "internalType": "struct MocCore.InitializeCoreParams",
              "name": "initializeCoreParams",
              "type": "tuple"
            },
            {
              "internalType": "address",
              "name": "acTokenAddress",
              "type": "address"
            }
          ],
          "internalType": "struct MocCARC20.InitializeParams",
          "name": "initializeParams_",
          "type": "tuple"
        }
      ],
      "name": "initialize",
      "outputs": [],
      "stateMutability": "nonpayable",
      "type": "function"
    },
    {
      "inputs": [],
      "name": "isLiquidationReached",
      "outputs": [
        {
          "internalType": "bool",
          "name": "",
          "type": "bool"
        }
      ],
      "stateMutability": "view",
      "type": "function"
    },
    {
      "inputs": [],
      "name": "lastOperationBlockNumber",
      "outputs": [
        {
          "internalType": "uint256",
          "name": "",
          "type": "uint256"
        }
      ],
      "stateMutability": "view",
      "type": "function"
    },
    {
      "inputs": [],
      "name": "liqEnabled",
      "outputs": [
        {
          "internalType": "bool",
          "name": "",
          "type": "bool"
        }
      ],
      "stateMutability": "view",
      "type": "function"
    },
    {
      "inputs": [
        {
          "internalType": "address",
          "name": "tp_",
          "type": "address"
        }
      ],
      "name": "liqRedeemTP",
      "outputs": [
        {
          "internalType": "uint256",
          "name": "qACRedeemed",
          "type": "uint256"
        }
      ],
      "stateMutability": "nonpayable",
      "type": "function"
    },
    {
      "inputs": [
        {
          "internalType": "address",
          "name": "tp_",
          "type": "address"
        },
        {
          "internalType": "address",
          "name": "recipient_",
          "type": "address"
        }
      ],
      "name": "liqRedeemTPto",
      "outputs": [
        {
          "internalType": "uint256",
          "name": "qACRedeemed",
          "type": "uint256"
        }
      ],
      "stateMutability": "nonpayable",
      "type": "function"
    },
    {
      "inputs": [],
      "name": "liqThrld",
      "outputs": [
        {
          "internalType": "uint256",
          "name": "",
          "type": "uint256"
        }
      ],
      "stateMutability": "view",
      "type": "function"
    },
    {
      "inputs": [],
      "name": "liquidated",
      "outputs": [
        {
          "internalType": "bool",
          "name": "",
          "type": "bool"
        }
      ],
      "stateMutability": "view",
      "type": "function"
    },
    {
      "inputs": [],
      "name": "makeStoppable",
      "outputs": [],
      "stateMutability": "nonpayable",
      "type": "function"
    },
    {
      "inputs": [],
      "name": "makeUnstoppable",
      "outputs": [],
      "stateMutability": "nonpayable",
      "type": "function"
    },
    {
      "inputs": [],
      "name": "maxAbsoluteOpProvider",
      "outputs": [
        {
          "internalType": "contract IDataProvider",
          "name": "",
          "type": "address"
        }
      ],
      "stateMutability": "view",
      "type": "function"
    },
    {
      "inputs": [],
      "name": "maxOpDiffProvider",
      "outputs": [
        {
          "internalType": "contract IDataProvider",
          "name": "",
          "type": "address"
        }
      ],
      "stateMutability": "view",
      "type": "function"
    },
    {
      "inputs": [],
      "name": "maxQACToMintTP",
      "outputs": [
        {
          "internalType": "uint256",
          "name": "maxQAC",
          "type": "uint256"
        }
      ],
      "stateMutability": "view",
      "type": "function"
    },
    {
      "inputs": [],
      "name": "maxQACToRedeemTP",
      "outputs": [
        {
          "internalType": "uint256",
          "name": "maxQAC",
          "type": "uint256"
        }
      ],
      "stateMutability": "view",
      "type": "function"
    },
    {
      "inputs": [
        {
          "internalType": "uint256",
          "name": "qTC_",
          "type": "uint256"
        },
        {
          "internalType": "uint256",
          "name": "qACmax_",
          "type": "uint256"
        }
      ],
      "name": "mintTC",
      "outputs": [
        {
          "internalType": "uint256",
          "name": "operId",
          "type": "uint256"
        }
      ],
      "stateMutability": "payable",
      "type": "function"
    },
    {
      "inputs": [
        {
          "internalType": "uint256",
          "name": "qTC_",
          "type": "uint256"
        },
        {
          "internalType": "uint256",
          "name": "qACmax_",
          "type": "uint256"
        },
        {
          "internalType": "address",
          "name": "vendor_",
          "type": "address"
        }
      ],
      "name": "mintTCViaVendor",
      "outputs": [
        {
          "internalType": "uint256",
          "name": "operId",
          "type": "uint256"
        }
      ],
      "stateMutability": "payable",
      "type": "function"
    },
    {
      "inputs": [
        {
          "internalType": "address",
          "name": "tp_",
          "type": "address"
        },
        {
          "internalType": "uint256",
          "name": "qTP_",
          "type": "uint256"
        },
        {
          "internalType": "uint256",
          "name": "qACmax_",
          "type": "uint256"
        }
      ],
      "name": "mintTCandTP",
      "outputs": [
        {
          "internalType": "uint256",
          "name": "operId",
          "type": "uint256"
        }
      ],
      "stateMutability": "payable",
      "type": "function"
    },
    {
      "inputs": [],
      "name": "mintTCandTPFee",
      "outputs": [
        {
          "internalType": "uint256",
          "name": "",
          "type": "uint256"
        }
      ],
      "stateMutability": "view",
      "type": "function"
    },
    {
      "inputs": [
        {
          "internalType": "address",
          "name": "tp_",
          "type": "address"
        },
        {
          "internalType": "uint256",
          "name": "qTP_",
          "type": "uint256"
        },
        {
          "internalType": "uint256",
          "name": "qACmax_",
          "type": "uint256"
        },
        {
          "internalType": "address",
          "name": "vendor_",
          "type": "address"
        }
      ],
      "name": "mintTCandTPViaVendor",
      "outputs": [
        {
          "internalType": "uint256",
          "name": "operId",
          "type": "uint256"
        }
      ],
      "stateMutability": "payable",
      "type": "function"
    },
    {
      "inputs": [
        {
          "internalType": "address",
          "name": "tp_",
          "type": "address"
        },
        {
          "internalType": "uint256",
          "name": "qTP_",
          "type": "uint256"
        },
        {
          "internalType": "uint256",
          "name": "qACmax_",
          "type": "uint256"
        },
        {
          "internalType": "address",
          "name": "recipient_",
          "type": "address"
        }
      ],
      "name": "mintTCandTPto",
      "outputs": [
        {
          "internalType": "uint256",
          "name": "operId",
          "type": "uint256"
        }
      ],
      "stateMutability": "payable",
      "type": "function"
    },
    {
      "inputs": [
        {
          "internalType": "address",
          "name": "tp_",
          "type": "address"
        },
        {
          "internalType": "uint256",
          "name": "qTP_",
          "type": "uint256"
        },
        {
          "internalType": "uint256",
          "name": "qACmax_",
          "type": "uint256"
        },
        {
          "internalType": "address",
          "name": "recipient_",
          "type": "address"
        },
        {
          "internalType": "address",
          "name": "vendor_",
          "type": "address"
        }
      ],
      "name": "mintTCandTPtoViaVendor",
      "outputs": [
        {
          "internalType": "uint256",
          "name": "operId",
          "type": "uint256"
        }
      ],
      "stateMutability": "payable",
      "type": "function"
    },
    {
      "inputs": [
        {
          "internalType": "uint256",
          "name": "qTC_",
          "type": "uint256"
        },
        {
          "internalType": "uint256",
          "name": "qACmax_",
          "type": "uint256"
        },
        {
          "internalType": "address",
          "name": "recipient_",
          "type": "address"
        }
      ],
      "name": "mintTCto",
      "outputs": [
        {
          "internalType": "uint256",
          "name": "operId",
          "type": "uint256"
        }
      ],
      "stateMutability": "payable",
      "type": "function"
    },
    {
      "inputs": [
        {
          "internalType": "uint256",
          "name": "qTC_",
          "type": "uint256"
        },
        {
          "internalType": "uint256",
          "name": "qACmax_",
          "type": "uint256"
        },
        {
          "internalType": "address",
          "name": "recipient_",
          "type": "address"
        },
        {
          "internalType": "address",
          "name": "vendor_",
          "type": "address"
        }
      ],
      "name": "mintTCtoViaVendor",
      "outputs": [
        {
          "internalType": "uint256",
          "name": "operId",
          "type": "uint256"
        }
      ],
      "stateMutability": "payable",
      "type": "function"
    },
    {
      "inputs": [
        {
          "internalType": "address",
          "name": "tp_",
          "type": "address"
        },
        {
          "internalType": "uint256",
          "name": "qTP_",
          "type": "uint256"
        },
        {
          "internalType": "uint256",
          "name": "qACmax_",
          "type": "uint256"
        }
      ],
      "name": "mintTP",
      "outputs": [
        {
          "internalType": "uint256",
          "name": "operId",
          "type": "uint256"
        }
      ],
      "stateMutability": "payable",
      "type": "function"
    },
    {
      "inputs": [
        {
          "internalType": "address",
          "name": "tp_",
          "type": "address"
        },
        {
          "internalType": "uint256",
          "name": "qTP_",
          "type": "uint256"
        },
        {
          "internalType": "uint256",
          "name": "qACmax_",
          "type": "uint256"
        },
        {
          "internalType": "address",
          "name": "vendor_",
          "type": "address"
        }
      ],
      "name": "mintTPViaVendor",
      "outputs": [
        {
          "internalType": "uint256",
          "name": "operId",
          "type": "uint256"
        }
      ],
      "stateMutability": "payable",
      "type": "function"
    },
    {
      "inputs": [
        {
          "internalType": "address",
          "name": "tp_",
          "type": "address"
        },
        {
          "internalType": "uint256",
          "name": "qTP_",
          "type": "uint256"
        },
        {
          "internalType": "uint256",
          "name": "qACmax_",
          "type": "uint256"
        },
        {
          "internalType": "address",
          "name": "recipient_",
          "type": "address"
        }
      ],
      "name": "mintTPto",
      "outputs": [
        {
          "internalType": "uint256",
          "name": "operId",
          "type": "uint256"
        }
      ],
      "stateMutability": "payable",
      "type": "function"
    },
    {
      "inputs": [
        {
          "internalType": "address",
          "name": "tp_",
          "type": "address"
        },
        {
          "internalType": "uint256",
          "name": "qTP_",
          "type": "uint256"
        },
        {
          "internalType": "uint256",
          "name": "qACmax_",
          "type": "uint256"
        },
        {
          "internalType": "address",
          "name": "recipient_",
          "type": "address"
        },
        {
          "internalType": "address",
          "name": "vendor_",
          "type": "address"
        }
      ],
      "name": "mintTPtoViaVendor",
      "outputs": [
        {
          "internalType": "uint256",
          "name": "operId",
          "type": "uint256"
        }
      ],
      "stateMutability": "payable",
      "type": "function"
    },
    {
      "inputs": [],
      "name": "mocAppreciationBeneficiaryAddress",
      "outputs": [
        {
          "internalType": "address",
          "name": "",
          "type": "address"
        }
      ],
      "stateMutability": "view",
      "type": "function"
    },
    {
      "inputs": [],
      "name": "mocFeeFlowAddress",
      "outputs": [
        {
          "internalType": "address",
          "name": "",
          "type": "address"
        }
      ],
      "stateMutability": "view",
      "type": "function"
    },
    {
      "inputs": [],
      "name": "mocQueue",
      "outputs": [
        {
          "internalType": "address",
          "name": "",
          "type": "address"
        }
      ],
      "stateMutability": "view",
      "type": "function"
    },
    {
      "inputs": [],
      "name": "mocVendors",
      "outputs": [
        {
          "internalType": "contract MocVendors",
          "name": "",
          "type": "address"
        }
      ],
      "stateMutability": "view",
      "type": "function"
    },
    {
      "inputs": [],
      "name": "nACcb",
      "outputs": [
        {
          "internalType": "uint256",
          "name": "",
          "type": "uint256"
        }
      ],
      "stateMutability": "view",
      "type": "function"
    },
    {
      "inputs": [],
      "name": "nTCcb",
      "outputs": [
        {
          "internalType": "uint256",
          "name": "",
          "type": "uint256"
        }
      ],
      "stateMutability": "view",
      "type": "function"
    },
    {
      "inputs": [],
      "name": "nextEmaCalculation",
      "outputs": [
        {
          "internalType": "uint256",
          "name": "",
          "type": "uint256"
        }
      ],
      "stateMutability": "view",
      "type": "function"
    },
    {
      "inputs": [],
      "name": "nextTCInterestPayment",
      "outputs": [
        {
          "internalType": "uint256",
          "name": "",
          "type": "uint256"
        }
      ],
      "stateMutability": "view",
      "type": "function"
    },
    {
      "inputs": [],
      "name": "pause",
      "outputs": [],
      "stateMutability": "nonpayable",
      "type": "function"
    },
    {
      "inputs": [],
      "name": "paused",
      "outputs": [
        {
          "internalType": "bool",
          "name": "",
          "type": "bool"
        }
      ],
      "stateMutability": "view",
      "type": "function"
    },
    {
      "inputs": [],
      "name": "pauser",
      "outputs": [
        {
          "internalType": "address",
          "name": "",
          "type": "address"
        }
      ],
      "stateMutability": "view",
      "type": "function"
    },
    {
      "inputs": [
        {
          "internalType": "uint256",
          "name": "",
          "type": "uint256"
        }
      ],
      "name": "pegContainer",
      "outputs": [
        {
          "internalType": "uint256",
          "name": "nTP",
          "type": "uint256"
        },
        {
          "internalType": "contract IPriceProvider",
          "name": "priceProvider",
          "type": "address"
        }
      ],
      "stateMutability": "view",
      "type": "function"
    },
    {
      "inputs": [
        {
          "internalType": "address",
          "name": "",
          "type": "address"
        }
      ],
      "name": "peggedTokenIndex",
      "outputs": [
        {
          "internalType": "uint256",
          "name": "index",
          "type": "uint256"
        },
        {
          "internalType": "bool",
          "name": "exists",
          "type": "bool"
        }
      ],
      "stateMutability": "view",
      "type": "function"
    },
    {
      "inputs": [],
      "name": "protThrld",
      "outputs": [
        {
          "internalType": "uint256",
          "name": "",
          "type": "uint256"
        }
      ],
      "stateMutability": "view",
      "type": "function"
    },
    {
      "inputs": [],
      "name": "proxiableUUID",
      "outputs": [
        {
          "internalType": "bytes32",
          "name": "",
          "type": "bytes32"
        }
      ],
      "stateMutability": "view",
      "type": "function"
    },
    {
      "inputs": [],
      "name": "qACLockedInPending",
      "outputs": [
        {
          "internalType": "uint256",
          "name": "",
          "type": "uint256"
        }
      ],
      "stateMutability": "view",
      "type": "function"
    },
    {
      "inputs": [
        {
          "internalType": "uint256",
          "name": "qTC_",
          "type": "uint256"
        },
        {
          "internalType": "uint256",
          "name": "qACmin_",
          "type": "uint256"
        }
      ],
      "name": "redeemTC",
      "outputs": [
        {
          "internalType": "uint256",
          "name": "operId",
          "type": "uint256"
        }
      ],
      "stateMutability": "payable",
      "type": "function"
    },
    {
      "inputs": [
        {
          "internalType": "uint256",
          "name": "qTC_",
          "type": "uint256"
        },
        {
          "internalType": "uint256",
          "name": "qACmin_",
          "type": "uint256"
        },
        {
          "internalType": "address",
          "name": "vendor_",
          "type": "address"
        }
      ],
      "name": "redeemTCViaVendor",
      "outputs": [
        {
          "internalType": "uint256",
          "name": "operId",
          "type": "uint256"
        }
      ],
      "stateMutability": "payable",
      "type": "function"
    },
    {
      "inputs": [
        {
          "internalType": "address",
          "name": "tp_",
          "type": "address"
        },
        {
          "internalType": "uint256",
          "name": "qTC_",
          "type": "uint256"
        },
        {
          "internalType": "uint256",
          "name": "qTP_",
          "type": "uint256"
        },
        {
          "internalType": "uint256",
          "name": "qACmin_",
          "type": "uint256"
        }
      ],
      "name": "redeemTCandTP",
      "outputs": [
        {
          "internalType": "uint256",
          "name": "operId",
          "type": "uint256"
        }
      ],
      "stateMutability": "payable",
      "type": "function"
    },
    {
      "inputs": [],
      "name": "redeemTCandTPFee",
      "outputs": [
        {
          "internalType": "uint256",
          "name": "",
          "type": "uint256"
        }
      ],
      "stateMutability": "view",
      "type": "function"
    },
    {
      "inputs": [
        {
          "internalType": "address",
          "name": "tp_",
          "type": "address"
        },
        {
          "internalType": "uint256",
          "name": "qTC_",
          "type": "uint256"
        },
        {
          "internalType": "uint256",
          "name": "qTP_",
          "type": "uint256"
        },
        {
          "internalType": "uint256",
          "name": "qACmin_",
          "type": "uint256"
        },
        {
          "internalType": "address",
          "name": "vendor_",
          "type": "address"
        }
      ],
      "name": "redeemTCandTPViaVendor",
      "outputs": [
        {
          "internalType": "uint256",
          "name": "operId",
          "type": "uint256"
        }
      ],
      "stateMutability": "payable",
      "type": "function"
    },
    {
      "inputs": [
        {
          "internalType": "address",
          "name": "tp_",
          "type": "address"
        },
        {
          "internalType": "uint256",
          "name": "qTC_",
          "type": "uint256"
        },
        {
          "internalType": "uint256",
          "name": "qTP_",
          "type": "uint256"
        },
        {
          "internalType": "uint256",
          "name": "qACmin_",
          "type": "uint256"
        },
        {
          "internalType": "address",
          "name": "recipient_",
          "type": "address"
        }
      ],
      "name": "redeemTCandTPto",
      "outputs": [
        {
          "internalType": "uint256",
          "name": "operId",
          "type": "uint256"
        }
      ],
      "stateMutability": "payable",
      "type": "function"
    },
    {
      "inputs": [
        {
          "internalType": "address",
          "name": "tp_",
          "type": "address"
        },
        {
          "internalType": "uint256",
          "name": "qTC_",
          "type": "uint256"
        },
        {
          "internalType": "uint256",
          "name": "qTP_",
          "type": "uint256"
        },
        {
          "internalType": "uint256",
          "name": "qACmin_",
          "type": "uint256"
        },
        {
          "internalType": "address",
          "name": "recipient_",
          "type": "address"
        },
        {
          "internalType": "address",
          "name": "vendor_",
          "type": "address"
        }
      ],
      "name": "redeemTCandTPtoViaVendor",
      "outputs": [
        {
          "internalType": "uint256",
          "name": "operId",
          "type": "uint256"
        }
      ],
      "stateMutability": "payable",
      "type": "function"
    },
    {
      "inputs": [
        {
          "internalType": "uint256",
          "name": "qTC_",
          "type": "uint256"
        },
        {
          "internalType": "uint256",
          "name": "qACmin_",
          "type": "uint256"
        },
        {
          "internalType": "address",
          "name": "recipient_",
          "type": "address"
        }
      ],
      "name": "redeemTCto",
      "outputs": [
        {
          "internalType": "uint256",
          "name": "operId",
          "type": "uint256"
        }
      ],
      "stateMutability": "payable",
      "type": "function"
    },
    {
      "inputs": [
        {
          "internalType": "uint256",
          "name": "qTC_",
          "type": "uint256"
        },
        {
          "internalType": "uint256",
          "name": "qACmin_",
          "type": "uint256"
        },
        {
          "internalType": "address",
          "name": "recipient_",
          "type": "address"
        },
        {
          "internalType": "address",
          "name": "vendor_",
          "type": "address"
        }
      ],
      "name": "redeemTCtoViaVendor",
      "outputs": [
        {
          "internalType": "uint256",
          "name": "operId",
          "type": "uint256"
        }
      ],
      "stateMutability": "payable",
      "type": "function"
    },
    {
      "inputs": [
        {
          "internalType": "address",
          "name": "tp_",
          "type": "address"
        },
        {
          "internalType": "uint256",
          "name": "qTP_",
          "type": "uint256"
        },
        {
          "internalType": "uint256",
          "name": "qACmin_",
          "type": "uint256"
        }
      ],
      "name": "redeemTP",
      "outputs": [
        {
          "internalType": "uint256",
          "name": "operId",
          "type": "uint256"
        }
      ],
      "stateMutability": "payable",
      "type": "function"
    },
    {
      "inputs": [
        {
          "internalType": "address",
          "name": "tp_",
          "type": "address"
        },
        {
          "internalType": "uint256",
          "name": "qTP_",
          "type": "uint256"
        },
        {
          "internalType": "uint256",
          "name": "qACmin_",
          "type": "uint256"
        },
        {
          "internalType": "address",
          "name": "vendor_",
          "type": "address"
        }
      ],
      "name": "redeemTPViaVendor",
      "outputs": [
        {
          "internalType": "uint256",
          "name": "operId",
          "type": "uint256"
        }
      ],
      "stateMutability": "payable",
      "type": "function"
    },
    {
      "inputs": [
        {
          "internalType": "address",
          "name": "tp_",
          "type": "address"
        },
        {
          "internalType": "uint256",
          "name": "qTP_",
          "type": "uint256"
        },
        {
          "internalType": "uint256",
          "name": "qACmin_",
          "type": "uint256"
        },
        {
          "internalType": "address",
          "name": "recipient_",
          "type": "address"
        }
      ],
      "name": "redeemTPto",
      "outputs": [
        {
          "internalType": "uint256",
          "name": "operId",
          "type": "uint256"
        }
      ],
      "stateMutability": "payable",
      "type": "function"
    },
    {
      "inputs": [
        {
          "internalType": "address",
          "name": "tp_",
          "type": "address"
        },
        {
          "internalType": "uint256",
          "name": "qTP_",
          "type": "uint256"
        },
        {
          "internalType": "uint256",
          "name": "qACmin_",
          "type": "uint256"
        },
        {
          "internalType": "address",
          "name": "recipient_",
          "type": "address"
        },
        {
          "internalType": "address",
          "name": "vendor_",
          "type": "address"
        }
      ],
      "name": "redeemTPtoViaVendor",
      "outputs": [
        {
          "internalType": "uint256",
          "name": "operId",
          "type": "uint256"
        }
      ],
      "stateMutability": "payable",
      "type": "function"
    },
    {
      "inputs": [],
      "name": "refreshACBalance",
      "outputs": [],
      "stateMutability": "nonpayable",
      "type": "function"
    },
    {
      "inputs": [
        {
          "internalType": "uint256",
          "name": "appreciationFactor_",
          "type": "uint256"
        }
      ],
      "name": "setAppreciationFactor",
      "outputs": [],
      "stateMutability": "nonpayable",
      "type": "function"
    },
    {
      "inputs": [
        {
          "internalType": "uint256",
          "name": "bes_",
          "type": "uint256"
        }
      ],
      "name": "setBes",
      "outputs": [],
      "stateMutability": "nonpayable",
      "type": "function"
    },
    {
      "inputs": [
        {
          "internalType": "uint256",
          "name": "decayBlockSpan_",
          "type": "uint256"
        }
      ],
      "name": "setDecayBlockSpan",
      "outputs": [],
      "stateMutability": "nonpayable",
      "type": "function"
    },
    {
      "inputs": [
        {
          "internalType": "uint256",
          "name": "blockSpan_",
          "type": "uint256"
        }
      ],
      "name": "setEmaCalculationBlockSpan",
      "outputs": [],
      "stateMutability": "nonpayable",
      "type": "function"
    },
    {
      "inputs": [
        {
          "internalType": "uint256",
          "name": "feeRetainer_",
          "type": "uint256"
        }
      ],
      "name": "setFeeRetainer",
      "outputs": [],
      "stateMutability": "nonpayable",
      "type": "function"
    },
    {
      "inputs": [
        {
          "internalType": "address",
          "name": "mocFeeTokenAddress_",
          "type": "address"
        }
      ],
      "name": "setFeeTokenAddress",
      "outputs": [],
      "stateMutability": "nonpayable",
      "type": "function"
    },
    {
      "inputs": [
        {
          "internalType": "uint256",
          "name": "feeTokenPct_",
          "type": "uint256"
        }
      ],
      "name": "setFeeTokenPct",
      "outputs": [],
      "stateMutability": "nonpayable",
      "type": "function"
    },
    {
      "inputs": [
        {
          "internalType": "address",
          "name": "mocFeeTokenPriceProviderAddress_",
          "type": "address"
        }
      ],
      "name": "setFeeTokenPriceProviderAddress",
      "outputs": [],
      "stateMutability": "nonpayable",
      "type": "function"
    },
    {
      "inputs": [
        {
          "internalType": "bool",
          "name": "liqEnabled_",
          "type": "bool"
        }
      ],
      "name": "setLiqEnabled",
      "outputs": [],
      "stateMutability": "nonpayable",
      "type": "function"
    },
    {
      "inputs": [
        {
          "internalType": "uint256",
          "name": "liqThrld_",
          "type": "uint256"
        }
      ],
      "name": "setLiqThrld",
      "outputs": [],
      "stateMutability": "nonpayable",
      "type": "function"
    },
    {
      "inputs": [
        {
          "internalType": "address",
          "name": "maxAbsoluteOpProviderAddress_",
          "type": "address"
        }
      ],
      "name": "setMaxAbsoluteOpProviderAddress",
      "outputs": [],
      "stateMutability": "nonpayable",
      "type": "function"
    },
    {
      "inputs": [
        {
          "internalType": "address",
          "name": "maxOpDiffProviderAddress_",
          "type": "address"
        }
      ],
      "name": "setMaxOpDiffProviderAddress",
      "outputs": [],
      "stateMutability": "nonpayable",
      "type": "function"
    },
    {
      "inputs": [
        {
          "internalType": "uint256",
          "name": "mintTCandTPFee_",
          "type": "uint256"
        }
      ],
      "name": "setMintTCandTPFee",
      "outputs": [],
      "stateMutability": "nonpayable",
      "type": "function"
    },
    {
      "inputs": [
        {
          "internalType": "address",
          "name": "mocAppreciationBeneficiaryAddress_",
          "type": "address"
        }
      ],
      "name": "setMocAppreciationBeneficiaryAddress",
      "outputs": [],
      "stateMutability": "nonpayable",
      "type": "function"
    },
    {
      "inputs": [
        {
          "internalType": "address",
          "name": "mocCoreExpansion_",
          "type": "address"
        }
      ],
      "name": "setMocCoreExpansion",
      "outputs": [],
      "stateMutability": "nonpayable",
      "type": "function"
    },
    {
      "inputs": [
        {
          "internalType": "address",
          "name": "mocFeeFlowAddress_",
          "type": "address"
        }
      ],
      "name": "setMocFeeFlowAddress",
      "outputs": [],
      "stateMutability": "nonpayable",
      "type": "function"
    },
    {
      "inputs": [
        {
          "internalType": "address",
          "name": "mocQueueAddress_",
          "type": "address"
        }
      ],
      "name": "setMocQueue",
      "outputs": [],
      "stateMutability": "nonpayable",
      "type": "function"
    },
    {
      "inputs": [
        {
          "internalType": "address",
          "name": "mocVendors_",
          "type": "address"
        }
      ],
      "name": "setMocVendors",
      "outputs": [],
      "stateMutability": "nonpayable",
      "type": "function"
    },
    {
      "inputs": [
        {
          "internalType": "address",
          "name": "newPauser_",
          "type": "address"
        }
      ],
      "name": "setPauser",
      "outputs": [],
      "stateMutability": "nonpayable",
      "type": "function"
    },
    {
      "inputs": [
        {
          "internalType": "uint256",
          "name": "protThrld_",
          "type": "uint256"
        }
      ],
      "name": "setProtThrld",
      "outputs": [],
      "stateMutability": "nonpayable",
      "type": "function"
    },
    {
      "inputs": [
        {
          "internalType": "uint256",
          "name": "redeemTCandTPFee_",
          "type": "uint256"
        }
      ],
      "name": "setRedeemTCandTPFee",
      "outputs": [],
      "stateMutability": "nonpayable",
      "type": "function"
    },
    {
      "inputs": [
        {
          "internalType": "uint256",
          "name": "successFee_",
          "type": "uint256"
        }
      ],
      "name": "setSuccessFee",
      "outputs": [],
      "stateMutability": "nonpayable",
      "type": "function"
    },
    {
      "inputs": [
        {
          "internalType": "uint256",
          "name": "swapTCforTPFee_",
          "type": "uint256"
        }
      ],
      "name": "setSwapTCforTPFee",
      "outputs": [],
      "stateMutability": "nonpayable",
      "type": "function"
    },
    {
      "inputs": [
        {
          "internalType": "uint256",
          "name": "swapTPforTCFee_",
          "type": "uint256"
        }
      ],
      "name": "setSwapTPforTCFee",
      "outputs": [],
      "stateMutability": "nonpayable",
      "type": "function"
    },
    {
      "inputs": [
        {
          "internalType": "uint256",
          "name": "swapTPforTPFee_",
          "type": "uint256"
        }
      ],
      "name": "setSwapTPforTPFee",
      "outputs": [],
      "stateMutability": "nonpayable",
      "type": "function"
    },
    {
      "inputs": [
        {
          "internalType": "address",
          "name": "tcInterestCollectorAddress_",
          "type": "address"
        }
      ],
      "name": "setTCInterestCollectorAddress",
      "outputs": [],
      "stateMutability": "nonpayable",
      "type": "function"
    },
    {
      "inputs": [
        {
          "internalType": "uint256",
          "name": "tcInterestPaymentBlockSpan_",
          "type": "uint256"
        }
      ],
      "name": "setTCInterestPaymentBlockSpan",
      "outputs": [],
      "stateMutability": "nonpayable",
      "type": "function"
    },
    {
      "inputs": [
        {
          "internalType": "uint256",
          "name": "tcInterestRate_",
          "type": "uint256"
        }
      ],
      "name": "setTCInterestRate",
      "outputs": [],
      "stateMutability": "nonpayable",
      "type": "function"
    },
    {
      "inputs": [
        {
          "internalType": "uint256",
          "name": "tcMintFee_",
          "type": "uint256"
        }
      ],
      "name": "setTcMintFee",
      "outputs": [],
      "stateMutability": "nonpayable",
      "type": "function"
    },
    {
      "inputs": [
        {
          "internalType": "uint256",
          "name": "tcRedeemFee_",
          "type": "uint256"
        }
      ],
      "name": "setTcRedeemFee",
      "outputs": [],
      "stateMutability": "nonpayable",
      "type": "function"
    },
    {
      "inputs": [],
      "name": "shouldCalculateEma",
      "outputs": [
        {
          "internalType": "bool",
          "name": "",
          "type": "bool"
        }
      ],
      "stateMutability": "view",
      "type": "function"
    },
    {
      "inputs": [],
      "name": "stoppable",
      "outputs": [
        {
          "internalType": "bool",
          "name": "",
          "type": "bool"
        }
      ],
      "stateMutability": "view",
      "type": "function"
    },
    {
      "inputs": [],
      "name": "successFee",
      "outputs": [
        {
          "internalType": "uint256",
          "name": "",
          "type": "uint256"
        }
      ],
      "stateMutability": "view",
      "type": "function"
    },
    {
      "inputs": [
        {
          "internalType": "address",
          "name": "tp_",
          "type": "address"
        },
        {
          "internalType": "uint256",
          "name": "qTC_",
          "type": "uint256"
        },
        {
          "internalType": "uint256",
          "name": "qTPmin_",
          "type": "uint256"
        },
        {
          "internalType": "uint256",
          "name": "qACmax_",
          "type": "uint256"
        }
      ],
      "name": "swapTCforTP",
      "outputs": [
        {
          "internalType": "uint256",
          "name": "operId",
          "type": "uint256"
        }
      ],
      "stateMutability": "payable",
      "type": "function"
    },
    {
      "inputs": [],
      "name": "swapTCforTPFee",
      "outputs": [
        {
          "internalType": "uint256",
          "name": "",
          "type": "uint256"
        }
      ],
      "stateMutability": "view",
      "type": "function"
    },
    {
      "inputs": [
        {
          "internalType": "address",
          "name": "tp_",
          "type": "address"
        },
        {
          "internalType": "uint256",
          "name": "qTC_",
          "type": "uint256"
        },
        {
          "internalType": "uint256",
          "name": "qTPmin_",
          "type": "uint256"
        },
        {
          "internalType": "uint256",
          "name": "qACmax_",
          "type": "uint256"
        },
        {
          "internalType": "address",
          "name": "vendor_",
          "type": "address"
        }
      ],
      "name": "swapTCforTPViaVendor",
      "outputs": [
        {
          "internalType": "uint256",
          "name": "operId",
          "type": "uint256"
        }
      ],
      "stateMutability": "payable",
      "type": "function"
    },
    {
      "inputs": [
        {
          "internalType": "address",
          "name": "tp_",
          "type": "address"
        },
        {
          "internalType": "uint256",
          "name": "qTC_",
          "type": "uint256"
        },
        {
          "internalType": "uint256",
          "name": "qTPmin_",
          "type": "uint256"
        },
        {
          "internalType": "uint256",
          "name": "qACmax_",
          "type": "uint256"
        },
        {
          "internalType": "address",
          "name": "recipient_",
          "type": "address"
        }
      ],
      "name": "swapTCforTPto",
      "outputs": [
        {
          "internalType": "uint256",
          "name": "operId",
          "type": "uint256"
        }
      ],
      "stateMutability": "payable",
      "type": "function"
    },
    {
      "inputs": [
        {
          "internalType": "address",
          "name": "tp_",
          "type": "address"
        },
        {
          "internalType": "uint256",
          "name": "qTC_",
          "type": "uint256"
        },
        {
          "internalType": "uint256",
          "name": "qTPmin_",
          "type": "uint256"
        },
        {
          "internalType": "uint256",
          "name": "qACmax_",
          "type": "uint256"
        },
        {
          "internalType": "address",
          "name": "recipient_",
          "type": "address"
        },
        {
          "internalType": "address",
          "name": "vendor_",
          "type": "address"
        }
      ],
      "name": "swapTCforTPtoViaVendor",
      "outputs": [
        {
          "internalType": "uint256",
          "name": "operId",
          "type": "uint256"
        }
      ],
      "stateMutability": "payable",
      "type": "function"
    },
    {
      "inputs": [
        {
          "internalType": "address",
          "name": "tp_",
          "type": "address"
        },
        {
          "internalType": "uint256",
          "name": "qTP_",
          "type": "uint256"
        },
        {
          "internalType": "uint256",
          "name": "qTCmin_",
          "type": "uint256"
        },
        {
          "internalType": "uint256",
          "name": "qACmax_",
          "type": "uint256"
        }
      ],
      "name": "swapTPforTC",
      "outputs": [
        {
          "internalType": "uint256",
          "name": "operId",
          "type": "uint256"
        }
      ],
      "stateMutability": "payable",
      "type": "function"
    },
    {
      "inputs": [],
      "name": "swapTPforTCFee",
      "outputs": [
        {
          "internalType": "uint256",
          "name": "",
          "type": "uint256"
        }
      ],
      "stateMutability": "view",
      "type": "function"
    },
    {
      "inputs": [
        {
          "internalType": "address",
          "name": "tp_",
          "type": "address"
        },
        {
          "internalType": "uint256",
          "name": "qTP_",
          "type": "uint256"
        },
        {
          "internalType": "uint256",
          "name": "qTCmin_",
          "type": "uint256"
        },
        {
          "internalType": "uint256",
          "name": "qACmax_",
          "type": "uint256"
        },
        {
          "internalType": "address",
          "name": "vendor_",
          "type": "address"
        }
      ],
      "name": "swapTPforTCViaVendor",
      "outputs": [
        {
          "internalType": "uint256",
          "name": "operId",
          "type": "uint256"
        }
      ],
      "stateMutability": "payable",
      "type": "function"
    },
    {
      "inputs": [
        {
          "internalType": "address",
          "name": "tp_",
          "type": "address"
        },
        {
          "internalType": "uint256",
          "name": "qTP_",
          "type": "uint256"
        },
        {
          "internalType": "uint256",
          "name": "qTCmin_",
          "type": "uint256"
        },
        {
          "internalType": "uint256",
          "name": "qACmax_",
          "type": "uint256"
        },
        {
          "internalType": "address",
          "name": "recipient_",
          "type": "address"
        }
      ],
      "name": "swapTPforTCto",
      "outputs": [
        {
          "internalType": "uint256",
          "name": "operId",
          "type": "uint256"
        }
      ],
      "stateMutability": "payable",
      "type": "function"
    },
    {
      "inputs": [
        {
          "internalType": "address",
          "name": "tp_",
          "type": "address"
        },
        {
          "internalType": "uint256",
          "name": "qTP_",
          "type": "uint256"
        },
        {
          "internalType": "uint256",
          "name": "qTCmin_",
          "type": "uint256"
        },
        {
          "internalType": "uint256",
          "name": "qACmax_",
          "type": "uint256"
        },
        {
          "internalType": "address",
          "name": "recipient_",
          "type": "address"
        },
        {
          "internalType": "address",
          "name": "vendor_",
          "type": "address"
        }
      ],
      "name": "swapTPforTCtoViaVendor",
      "outputs": [
        {
          "internalType": "uint256",
          "name": "operId",
          "type": "uint256"
        }
      ],
      "stateMutability": "payable",
      "type": "function"
    },
    {
      "inputs": [
        {
          "internalType": "address",
          "name": "tpFrom_",
          "type": "address"
        },
        {
          "internalType": "address",
          "name": "tpTo_",
          "type": "address"
        },
        {
          "internalType": "uint256",
          "name": "qTP_",
          "type": "uint256"
        },
        {
          "internalType": "uint256",
          "name": "qTPmin_",
          "type": "uint256"
        },
        {
          "internalType": "uint256",
          "name": "qACmax_",
          "type": "uint256"
        }
      ],
      "name": "swapTPforTP",
      "outputs": [
        {
          "internalType": "uint256",
          "name": "operId",
          "type": "uint256"
        }
      ],
      "stateMutability": "payable",
      "type": "function"
    },
    {
      "inputs": [],
      "name": "swapTPforTPFee",
      "outputs": [
        {
          "internalType": "uint256",
          "name": "",
          "type": "uint256"
        }
      ],
      "stateMutability": "view",
      "type": "function"
    },
    {
      "inputs": [
        {
          "internalType": "address",
          "name": "tpFrom_",
          "type": "address"
        },
        {
          "internalType": "address",
          "name": "tpTo_",
          "type": "address"
        },
        {
          "internalType": "uint256",
          "name": "qTP_",
          "type": "uint256"
        },
        {
          "internalType": "uint256",
          "name": "qTPmin_",
          "type": "uint256"
        },
        {
          "internalType": "uint256",
          "name": "qACmax_",
          "type": "uint256"
        },
        {
          "internalType": "address",
          "name": "vendor_",
          "type": "address"
        }
      ],
      "name": "swapTPforTPViaVendor",
      "outputs": [
        {
          "internalType": "uint256",
          "name": "operId",
          "type": "uint256"
        }
      ],
      "stateMutability": "payable",
      "type": "function"
    },
    {
      "inputs": [
        {
          "internalType": "address",
          "name": "tpFrom_",
          "type": "address"
        },
        {
          "internalType": "address",
          "name": "tpTo_",
          "type": "address"
        },
        {
          "internalType": "uint256",
          "name": "qTP_",
          "type": "uint256"
        },
        {
          "internalType": "uint256",
          "name": "qTPmin_",
          "type": "uint256"
        },
        {
          "internalType": "uint256",
          "name": "qACmax_",
          "type": "uint256"
        },
        {
          "internalType": "address",
          "name": "recipient_",
          "type": "address"
        }
      ],
      "name": "swapTPforTPto",
      "outputs": [
        {
          "internalType": "uint256",
          "name": "operId",
          "type": "uint256"
        }
      ],
      "stateMutability": "payable",
      "type": "function"
    },
    {
      "inputs": [
        {
          "internalType": "address",
          "name": "tpFrom_",
          "type": "address"
        },
        {
          "internalType": "address",
          "name": "tpTo_",
          "type": "address"
        },
        {
          "internalType": "uint256",
          "name": "qTP_",
          "type": "uint256"
        },
        {
          "internalType": "uint256",
          "name": "qTPmin_",
          "type": "uint256"
        },
        {
          "internalType": "uint256",
          "name": "qACmax_",
          "type": "uint256"
        },
        {
          "internalType": "address",
          "name": "recipient_",
          "type": "address"
        },
        {
          "internalType": "address",
          "name": "vendor_",
          "type": "address"
        }
      ],
      "name": "swapTPforTPtoViaVendor",
      "outputs": [
        {
          "internalType": "uint256",
          "name": "operId",
          "type": "uint256"
        }
      ],
      "stateMutability": "payable",
      "type": "function"
    },
    {
      "inputs": [],
      "name": "tcHoldersInterestPayment",
      "outputs": [],
      "stateMutability": "nonpayable",
      "type": "function"
    },
    {
      "inputs": [],
      "name": "tcInterestCollectorAddress",
      "outputs": [
        {
          "internalType": "address",
          "name": "",
          "type": "address"
        }
      ],
      "stateMutability": "view",
      "type": "function"
    },
    {
      "inputs": [],
      "name": "tcInterestPaymentBlockSpan",
      "outputs": [
        {
          "internalType": "uint256",
          "name": "",
          "type": "uint256"
        }
      ],
      "stateMutability": "view",
      "type": "function"
    },
    {
      "inputs": [],
      "name": "tcInterestRate",
      "outputs": [
        {
          "internalType": "uint256",
          "name": "",
          "type": "uint256"
        }
      ],
      "stateMutability": "view",
      "type": "function"
    },
    {
      "inputs": [],
      "name": "tcMintFee",
      "outputs": [
        {
          "internalType": "uint256",
          "name": "",
          "type": "uint256"
        }
      ],
      "stateMutability": "view",
      "type": "function"
    },
    {
      "inputs": [],
      "name": "tcRedeemFee",
      "outputs": [
        {
          "internalType": "uint256",
          "name": "",
          "type": "uint256"
        }
      ],
      "stateMutability": "view",
      "type": "function"
    },
    {
      "inputs": [],
      "name": "tcToken",
      "outputs": [
        {
          "internalType": "contract MocTC",
          "name": "",
          "type": "address"
        }
      ],
      "stateMutability": "view",
      "type": "function"
    },
    {
      "inputs": [
        {
          "internalType": "uint256",
          "name": "",
          "type": "uint256"
        }
      ],
      "name": "tpCtarg",
      "outputs": [
        {
          "internalType": "uint256",
          "name": "",
          "type": "uint256"
        }
      ],
      "stateMutability": "view",
      "type": "function"
    },
    {
      "inputs": [
        {
          "internalType": "uint256",
          "name": "",
          "type": "uint256"
        }
      ],
      "name": "tpEma",
      "outputs": [
        {
          "internalType": "uint256",
          "name": "ema",
          "type": "uint256"
        },
        {
          "internalType": "uint256",
          "name": "sf",
          "type": "uint256"
        }
      ],
      "stateMutability": "view",
      "type": "function"
    },
    {
      "inputs": [
        {
          "internalType": "uint256",
          "name": "",
          "type": "uint256"
        }
      ],
      "name": "tpLiqPrices",
      "outputs": [
        {
          "internalType": "uint256",
          "name": "",
          "type": "uint256"
        }
      ],
      "stateMutability": "view",
      "type": "function"
    },
    {
      "inputs": [
        {
          "internalType": "address",
          "name": "",
          "type": "address"
        }
      ],
      "name": "tpMintFees",
      "outputs": [
        {
          "internalType": "uint256",
          "name": "",
          "type": "uint256"
        }
      ],
      "stateMutability": "view",
      "type": "function"
    },
    {
      "inputs": [
        {
          "internalType": "address",
          "name": "",
          "type": "address"
        }
      ],
      "name": "tpRedeemFees",
      "outputs": [
        {
          "internalType": "uint256",
          "name": "",
          "type": "uint256"
        }
      ],
      "stateMutability": "view",
      "type": "function"
    },
    {
      "inputs": [
        {
          "internalType": "uint256",
          "name": "",
          "type": "uint256"
        }
      ],
      "name": "tpTokens",
      "outputs": [
        {
          "internalType": "contract IMocRC20",
          "name": "",
          "type": "address"
        }
      ],
      "stateMutability": "view",
      "type": "function"
    },
    {
      "inputs": [
        {
          "internalType": "address",
          "name": "owner_",
          "type": "address"
        },
        {
          "internalType": "uint256",
          "name": "qACToUnlock_",
          "type": "uint256"
        }
      ],
      "name": "unlockACInPending",
      "outputs": [],
      "stateMutability": "nonpayable",
      "type": "function"
    },
    {
      "inputs": [
        {
          "internalType": "address",
          "name": "owner_",
          "type": "address"
        },
        {
          "internalType": "uint256",
          "name": "qTCToUnlock_",
          "type": "uint256"
        }
      ],
      "name": "unlockTCInPending",
      "outputs": [],
      "stateMutability": "nonpayable",
      "type": "function"
    },
    {
      "inputs": [
        {
          "internalType": "address",
          "name": "owner_",
          "type": "address"
        },
        {
          "internalType": "contract IERC20Upgradeable",
          "name": "tpToken_",
          "type": "address"
        },
        {
          "internalType": "uint256",
          "name": "qTPToUnlock_",
          "type": "uint256"
        }
      ],
      "name": "unlockTPInPending",
      "outputs": [],
      "stateMutability": "nonpayable",
      "type": "function"
    },
    {
      "inputs": [],
      "name": "unpause",
      "outputs": [],
      "stateMutability": "nonpayable",
      "type": "function"
    },
    {
      "inputs": [],
      "name": "updateEmas",
      "outputs": [],
      "stateMutability": "nonpayable",
      "type": "function"
    },
    {
      "inputs": [
        {
          "internalType": "address",
          "name": "newImplementation",
          "type": "address"
        }
      ],
      "name": "upgradeTo",
      "outputs": [],
      "stateMutability": "nonpayable",
      "type": "function"
    },
    {
      "inputs": [
        {
          "internalType": "address",
          "name": "newImplementation",
          "type": "address"
        },
        {
          "internalType": "bytes",
          "name": "data",
          "type": "bytes"
        }
      ],
      "name": "upgradeToAndCall",
      "outputs": [],
      "stateMutability": "payable",
      "type": "function"
    }
  ],
  "bytecode": "0x60a08060405234620000e157306080526000549060ff8260081c166200008f575060ff8082160362000053575b604051615d5a9081620000e78239608051818181612846015281816129b50152612f2c0152f35b60ff90811916176000557f7f26b83ff96e1f2b6a682f133852f6798a09c465da95921460cefb3847402498602060405160ff8152a1386200002c565b62461bcd60e51b815260206004820152602760248201527f496e697469616c697a61626c653a20636f6e747261637420697320696e697469604482015266616c697a696e6760c81b6064820152608490fd5b600080fdfe604060808152600436101561001357600080fd5b600060e0908035821c91826301dde6ef146137c657826301f1b6841461377f5782630579188f146136e6578263073763b9146136c25782630bb7f608146136a35782630c340a241461367a5782630c36d8971461365a5782630d6ac463146136145782630db49656146135f45782630e0a8fd2146135d05782630f1e5e2b1461358a57826313ed7ba51461356057826315266e361461354357826317937f9b1461350c5782631867e2f5146134ec5782631fb0dda0146134c35782631fe6a7ad146134895782632069f75314613465578263235e81cf1461327357826323b98cde1461324b57826324ffaba31461320e57826325bc6c41146131e457826327eab2a11461319e5782632a20d57d1461317e5782632b764fad146131615782632c43bd3b1461313d5782632d88af4a146130e65782632ded50f0146130c6578263333431fd146130a657826333421c3814612fab5782633424686214612f915782633659cfe614612ef75782633915edcb14612ec6578263391bf6cf14612dae5782633bc4ac0a14612d8a5782633cfb09ef14612d445782633dbc50a914612d2a5782633f4ba83a14612caf5782634017936a14612c7e578263407f0e3414612c5e5782634310adc614612c2b57826344719ee914612bf4578263466b893414612bbd578263471a80e314612b8a578263484ad7cd14612b535782634af3a6fc14612ad45782634b74600114612a8a5782634d977e7814612a6a5782634e1f907a14612a405782634f0f27ee14612a205782634f1ef2861461292c5782635210570c1461290657826352d1902d1461283157826352e18f8f14612816578263533a4bea146127e557826353b16d17146127a0578263543aeb481461277c5782635860ee631461275c57826358f32de9146127145782635c616a73146125195782635c975abb146124f25782635cfbe578146124d25782635ece17ef146124b557826360009e0b1461248b57826360a01dfa14611f43578263647846a514611f1957826364ec230a14611ef5578263662013f414611ed85782636827435714611eaf57826368f015df14611e4f5782636b5488df14611e2f5782636f30471f14611e0f5782637071346814611deb578263735d396014611da557826373e28af914611d8157826374873ad314611d645782637554fffd14611d445782637622805514611d245782637750ba0c14611d0057826379f9a91c14611ce05782637a193c3114611cc05782637a4ff1d914611c9c5782637a727fe814611c7c5782637af5758c14611c585782637b21b27414611c3b5782637cba238314611c175782637d8e031414611bd85782637f01c71514611bae5782637f13b99814611b785782637f4a4fe014611b58578263826fcd5814611b35578263842d574814611b1a5782638456cb5914611a8557826385bf959314611a3f578263883d21cb1461197e57826389fd503e146119645782638acc20111461194a5782638cfa42411461192a5782638e2bdb86146119005782638f1a383a146118d85782639853c35a146118ae57826398b2086f146118945782639abb14c9146118755782639ad6659d1461183f5782639bea71a4146117fd5782639cabfc00146117b15782639fd0506d146117845782639fd8ed0e1461176a578263a8e9ac3014611747578263aaf91eff1461172a578263aaf925f61461170f578263ac0c88ab146116f5578263ad4e666d14611516578263aea038dc146114f6578263aeb41e69146114d9578263b4434c321461131b578263b5e9ea8c146112f1578263b85edd65146112d7578263b9fa6413146112b7578263bb4872de14611293578263bc4e55b2146111c5578263becaca6b146111a1578263bfe4262114610fa6578263c00f538d14610f82578263c039cc6914610f40578263c09c30bd14610ef6578263c239fca414610edb578263c84353c914610eb7578263cf351c1d14610e71578263d1a0faa014610e58578263d6af11da14610e1c578263d76dc7fd14610e02578263d87aab6f14610de2578263d8c69aec14610ccc578263d8db6f5a14610c86578263db79607214610c49578263ddb6d19014610c0c578263de8d520a14610bd9578263e23c135c14610bc0578263e2c5e99014610b5f578263e3867eeb14610b41578263e401294514610b0e578263e4c0aaf414610ac9578263e6a683e014610a83578263e6b1627c14610a3f578263e7c2597814610a1a578263e8859a15146109fd578263ea302a97146109e2578263ee1f438f146109b8578263f13f40541461098e578263f26114aa1461092957508163f280877814610906578163f2f9f456146108ec578163f30b5614146108cd578163f375cfba146108ae578163f88b143414610845578163fa6e83bd14610826578163fadda424146107af578163fd80fa7714610794578163fda70f8b1461077157508063fed0ade4146107575763ffe315391461071957600080fd5b606036600319011261075257604435906001600160a01b03821682036107525761074b60209233602435600435614d4a565b9051908152f35b600080fd5b60208261074b610768366004613916565b92919091614d4a565b823461079057816003193601126107905760209061013c549051908152f35b5080fd5b8261074b6020926107a63660046139d9565b939290926154df565b90503461082357602036600319011261082357506001600160a01b036004358181168103610752576107ed6107e5600192614464565b61013761393c565b500154166107fa81614500565b9190911561080c575060209151908152f35b602490835190637f6e4db960e01b82526004820152fd5b80fd5b823461079057816003193601126107905760209061013a549051908152f35b9050346108235760203660031901126108235750600435906001600160a01b03821682036107525761074b6108a0602093610889610881614bf3565b919092614464565b916108a86108978484614163565b51948593614177565b959094614b50565b90614a4d565b8234610790578160031936011261079057602090610141549051908152f35b8234610790578160031936011261079057602090610131549051908152f35b60208361074b6108fd3660046139ac565b92913392614ec5565b346108235760203660031901126108235761091f615c2f565b60043561013c5580f35b83903461098a573660031901126107905761098690610946615c2f565b516379308a5560e11b602082015261097481610966600460248301614959565b03601f198101835282613958565b6101f6546001600160a01b0316614826565b5080f35b8280fd5b5082346107905781600319360112610790576101305490516001600160a01b039091168152602090f35b5082346107905781600319360112610790576101525490516001600160a01b039091168152602090f35b60208461074b846109f43660046139d9565b93929092615145565b50823461079057816003193601126107905760209061074b614b13565b50823461079057816003193601126107905760209060ff61014b541690519015158152f35b5082346107905760203660031901126107905760043561018e8054821015610a7f5790610a6b9161393c565b506001815491015482519182526020820152f35b8380fd5b5034610823576020366003190112610823576004356001600160a01b0381169081900361075257610ab2615c2f565b6101f680546001600160a01b031916909117905580f35b5034610823576020366003190112610823576004356001600160a01b0381169081900361079057610af8615c2f565b6001600160601b0360a01b609754161760975580f35b50826060366003190112610752576044356001600160a01b03811681036107525760209261074b9160243560043561531d565b60208461074b84610b53366004613a0b565b94939093929192614ff8565b838234610823576060366003190112610823576001600160a01b03600435818116810361075257602435918083168303610a7f5761014f54163303610baf5790610bac9160443591615bf6565b80f35b8351631974847760e01b8152600490fd5b5034610823578060031936011261082357610bac61409e565b50823461079057816003193601126107905760209061074b610c01610bfc614566565b614177565b90506101315461407b565b508234610790576020366003190112610790576004356001600160a01b038116908190036107525782829160209452610145845220549051908152f35b83903461098a573660031901126107905761098690610c66615c2f565b51636dbcb03960e11b602082015261097481610966600460248301614959565b5034610823576020366003190112610823576004356001600160a01b0381169081900361075257610cb5615c2f565b61015280546001600160a01b031916909117905580f35b90915034610790573660031901126108235750610ce76155ca565b5061014f546001600160a01b03919082163303610dd257610d9791610d0d366004615b83565b91610d166155ca565b50610d1f614ea3565b610d27615cbd565b610d73610d648251633dad0bd760e11b6020820152610d4960248201876151eb565b60e48152610d5961010482613958565b846101f65416614826565b60208082518301019101615b28565b86848760808498969b95979a015116918860c08160a0840151169201511692615934565b6004359380851680950361075257608435908116810361075257610dce94610dc491886044350391615bf6565b51948594856138d6565b0390f35b51631974847760e01b8152600490fd5b508234610790578160031936011261079057602090610155549051908152f35b60208461074b610e13366004613a4b565b93929092614f7f565b50823461079057816003193601126107905760209061074b610e3e60016145a0565b610e52610e4b82846142bb565b9183614205565b916145e7565b5034610823578060031936011261082357610bac614cb6565b5034610823576020366003190112610823576004356001600160a01b0381169081900361075257610ea0615c2f565b61012f80546001600160a01b031916909117905580f35b503461082357602036600319011261082357610ed1615c2f565b60043561014c5580f35b60208461074b84610eed3660046139ac565b92919091614f7f565b508260a0366003190112610790576001600160a01b03916004359083821682036107525760243593841684036107525760209361074b923391608435916064359160443591614ff8565b50823461079057816003193601126107905760209061074b610f75610f7c610f69610bfc614566565b6101319391935461407b565b918261407b565b90615cde565b503461082357602036600319011261082357610f9c615c2f565b60043561013d5580f35b8382346108235760a036600319011261082357610fc16155ca565b5061014f546001600160a01b03908116330361119057610fe23660046155f1565b91610feb6155ca565b50610ff4614ea3565b610ffc615cbd565b611004614cb6565b61101761100f614bf3565b81929161564e565b909161102682848851936149ee565b818110611173575050670de0b6b3a76400009161104861104e928751926149ba565b90614288565b049182156111625793839481611087950190808251169161107c6080890193878486511661013d5492615691565b96918899919961407b565b9660208a015180891061114557508951906101346110a683825461407b565b90556110b661013191825461407b565b905583610133541690813b1561098a578651632770a7eb60e21b815230600482015260248101919091529082908290604490829084905af1801561113b57611126575b5050968561111c93838060608996610dce9b9c9d51169501511691511692615934565b519384938461386f565b611131828092613958565b61082357806110f9565b86513d84823e3d90fd5b604490898851916354cde31360e01b835260048301526024820152fd5b845163f3e39b5d60e01b8152600490fd5b6044925087519163a5db715d60e01b835260048301526024820152fd5b8251631974847760e01b8152600490fd5b5034610823576020366003190112610823576111bb615c2f565b6004356101395580f35b909150346107905736600319011261082357506111e06155ca565b5061014f546001600160a01b03908116330361128257610dce610dc491611208366004615b83565b936112116155ca565b5061121a614ea3565b611222615cbd565b611244610d64825163f5571e0160e01b6020820152610d4960248201896151eb565b948860608793969599949a0191825161126161014e91825461407b565b905560c06112778b83608086015116955161407b565b920151169180615934565b8151631974847760e01b8152600490fd5b50823461079057816003193601126107905760209060ff60ca541690519015158152f35b50823461079057816003193601126107905760209061015b549051908152f35b60208461074b846112e93660046138ad565b91339361523b565b5082346107905781600319360112610790576101535490516001600160a01b039091168152602090f35b8382346108235760c0366003190112610823576113366155ca565b5061014f546001600160a01b03929083163303610dd2576113d061135b3660046159ed565b916113646155ca565b5061136d614ea3565b611375615cbd565b61137d614cb6565b611385614bf3565b61139487869593955116614464565b936113b46113a28684614163565b51926113ae8488614908565b8261564e565b6020889592950194848651946113ca828b614b50565b90615a56565b8181106114bc5750509480966113ea611422978451615cde565b94606087019061141783835116888a8960a082019888808b51169351168152610144602052205492615691565b9891829b919b614156565b98878101968751808c1161149f57508a1561148e579489969461146982958d9e9f95610dce9e9585608061111c9e9c61145e6114849b86615a6e565b519201511692614848565b865161147961014e91825461407b565b90555116945161407b565b9151169180615934565b885163f3e39b5d60e01b8152600490fd5b6044908c8b5191630b63f1a760e01b835260048301526024820152fd5b6044925084519163c39b739f60e01b835260048301526024820152fd5b60208461074b6114ea3660046139d9565b939291909133936154df565b50823461079057816003193601126107905760209061013d549051908152f35b8382346108235760c0366003190112610823576115316155ca565b5061014f546001600160a01b03908116330361119057906115f4916115573660046159ed565b936115606155ca565b50611569614ea3565b611571615cbd565b611579614566565b9261158683875116614464565b926115a96115948587614163565b51956115a08787614908565b6101495461564e565b50506115ba60208801958651615cde565b91606088019082825116936115e960a08b0195828c87808a511691511686526101456020528986205492615691565b9891839b919b61407b565b9882156116e457878c0151808b106116c75750859161164c9161161860018d615a6e565b51936116268261013761393c565b5061163286825461407b565b905561164261013191825461407b565b90556101356137ea565b90549060031b1c1690813b1561098a578651632770a7eb60e21b815230600482015260248101919091529082908290604490829084905af1801561113b576116b2575b5050968561111c93838060808996610dce9b9c9d51169501511691511692615934565b6116bd828092613958565b610823578061168f565b6044908b8a51916354cde31360e01b835260048301526024820152fd5b875163f3e39b5d60e01b8152600490fd5b60208461074b846117073660046138ad565b913393615145565b60208461074b846117213660046139ac565b92919091614ec5565b60208461074b61173b3660046139d9565b9392919091339361523b565b50823461079057816003193601126107905760209061018f544310159051908152f35b60208461074b61177b366004613a4b565b93929092614ec5565b50823461079057816003193601126107905760ca54905160109190911c6001600160a01b03168152602090f35b838234610823576020366003190112610823576004356001600160a01b038116919082900361075257829181526101366020522060ff6001825492015416825191825215156020820152f35b838234610823578160031936011261082357506001600160a01b039060043582811681036107525760243592831683036107525760209261074b9133906147a4565b508234610790578160031936011261079057602090611868611862610bfc614566565b9061432c565b61014a5410159051908152f35b5082806003193601126107525761074b6020923360243560043561531d565b60208461074b6118a53660046139ac565b92913392614f7f565b5082346107905781600319360112610790576101465490516001600160a01b039091168152602090f35b5082346107905781600319360112610790576020906118f8610bfc614566565b509051908152f35b5082346107905781600319360112610790576101585490516001600160a01b039091168152602090f35b50823461079057816003193601126107905760209061014a549051908152f35b60208461074b61195b3660046139ac565b92913392615410565b60208461074b611975366004613a4b565b93929092615410565b8382346108235760c0366003190112610823575061199a6155ca565b5061014f546001600160a01b03908116330361128257610dce610dc4916119c23660046159ed565b936119cb6155ca565b506119d4614ea3565b6119dc615cbd565b611a0d610d648251637225da8960e11b60208201526119fe6024820189614f3a565b60c48152610d5960e482613958565b9488858793969599949a01918251611a2961014e91825461407b565b905560a06112778b83606086015116955161407b565b5034610823576020366003190112610823576004356001600160a01b0381169081900361075257611a6e615c2f565b61015380546001600160a01b031916909117905580f35b508234610790578160031936011261079057611a9f615cbd565b60ca54601081901c6001600160a01b03163303611b095760ff811615611af85761ff0019166101001760ca55513381527f62e78cea01bee320cd4e420270b5ea74000d11b0c9f74754ebdbfc544b05a25890602090a180f35b815163866099c360e01b8152600490fd5b8151631d77d47760e21b8152600490fd5b60208461074b84611b2c3660046139d9565b9392909261523b565b50823461079057816003193601126107905760209061074b611862610bfc614566565b50823461079057816003193601126107905760209061015a549051908152f35b50823461079057816003193601126107905760209061074b611b9a60016145a0565b610e52611ba78284614205565b91836142bb565b5082346107905781600319360112610790576101c35490516001600160a01b039091168152602090f35b50823461079057602036600319011261079057600435916101489081548410156108235750602092611c09916137ea565b91905490519160031b1c8152f35b503461082357602036600319011261082357611c31615c2f565b6004356101495580f35b60208461074b611c4c366004613a0b565b94939290923394614ff8565b503461082357602036600319011261082357611c72615c2f565b6004356101405580f35b508234610790578160031936011261079057602090610190549051908152f35b503461082357602036600319011261082357611cb6615c2f565b6004356101415580f35b508234610790578160031936011261079057602090610134549051908152f35b508234610790578160031936011261079057602090610142549051908152f35b503461082357602036600319011261082357611d1a615c2f565b60043561013b5580f35b508234610790578160031936011261079057602090610156549051908152f35b508234610790578160031936011261079057602090610139549051908152f35b60208461074b611d753660046139d9565b93929190913393615145565b503461082357602036600319011261082357611d9b615c2f565b6004356101545580f35b5034610823576020366003190112610823576004356001600160a01b0381169081900361075257611dd4615c2f565b61015880546001600160a01b031916909117905580f35b503461082357602036600319011261082357611e05615c2f565b60043561013e5580f35b508234610790578160031936011261079057602090610154549051908152f35b508234610790578160031936011261079057602090610149549051908152f35b9091503660031901126108235750600435906001600160a01b038083168303610752576024359080821682036107525760a43581811681036107525760c43591821682036107525760209461074b93608435916064359160443591614ff8565b5034610823578060031936011261082357611ec8615c2f565b600160ff1960ca54161760ca5580f35b5082346107905781600319360112610790576020906118f8614bf3565b503461082357602036600319011261082357611f0f615c2f565b6004356101595580f35b50823461079057816003193601126107905761012f5490516001600160a01b039091168152602090f35b5082346107905761040036600319011261079057815460ff8160081c16159081809261247e575b8015612467575b1561240c5760ff1981166001178455816123fb575b5060ff835460081c16611f9881614744565b610384356001600160a01b03811690819003610752576101f680546001600160a01b03191690911790556001600160a01b03610344359081169081900361075257610364356001600160a01b038116810361075257600191611ff984614744565b61200284614744565b61200b84614744565b61201484614744565b6001600160601b0360a01b609754161760975561203083614744565b60ca5490620100008360b01b039060101b169061ff018360b01b031916171760ca5561205b81614744565b670de0b6b3a764000060c435106123ea5761207861010435615d02565b61208461012435615d02565b61209061014435615d02565b61209c61016435615d02565b6120a861018435615d02565b6120b46101a435615d02565b6120c06101c435615d02565b6120cc6101e435615d02565b6120d861020435615d02565b6120f06120eb6102443561022435614156565b615d02565b6004356001600160a01b038116908190036107525761014f80546001600160a01b03191690911790556024356001600160a01b03811681036107525761012f80546001600160a01b0319166001600160a01b0392831617905560443590811681036107525761013080546001600160a01b0319166001600160a01b0392831617905560643590811681036107525761013380546001600160a01b0319166001600160a01b0392831617905560843590811681036107525761014680546001600160a01b0319166001600160a01b0392831617905560a43590811681036107525761014780546001600160a01b0319166001600160a01b0392831617905560c4356101495560e43561014a556101043561013b556101243561013c556101443561013d556101643561013e556101843561013f556101a435610140556101c435610141556101e43561014255610204356101435561022435610139556102443561013a556102643561014c8190559061028435908116908190036107525761015880546001600160a01b03191690911790556102a435610159556102c43561015a819055906001600160a01b036102e435908116908190036107525761015280546001600160a01b03191690911790556001600160a01b03610304359081169081900361075257610153906001600160601b0360a01b82541617905561032435610154554361015755430161014d55430161015b5561014b61ffff1981541690556103a43561231d82614744565b80156123d957610190819055430161018f556103c4356001600160a01b03811681036107525761234f61237192614744565b6101c380546001600160a01b0319166001600160a01b03909216919091179055565b6103e4356001600160a01b038116908190036107525761022980546001600160a01b03191690911790556123a3575080f35b60207f7f26b83ff96e1f2b6a682f133852f6798a09c465da95921460cefb38474024989161ff001984541684555160018152a180f35b8351632a9ffab760e21b8152600490fd5b8251632a9ffab760e21b8152600490fd5b61ffff191661010117835583611f86565b825162461bcd60e51b815260206004820152602e60248201527f496e697469616c697a61626c653a20636f6e747261637420697320616c72656160448201526d191e481a5b9a5d1a585b1a5e995960921b6064820152608490fd5b50303b158015611f715750600160ff821614611f71565b50600160ff821610611f6a565b5082346107905781600319360112610790576101335490516001600160a01b039091168152602090f35b60208461074b6124c636600461382c565b949390939291926154df565b50823461079057816003193601126107905760209061014e549051908152f35b50823461079057816003193601126107905760209060ff60ca5460081c1690519015158152f35b508234610790578160031936011261079057612533615cbd565b61014d805443106127035761014c54430190557fd3c59bda47e141a8ec5a33d241b7f71b86e30d359f83a9227d912858b60404fc8280a1610137548261257882614362565b91845b818110612634575050806125ef575b918051928184019084526020918285015282518091528160608501930191855b8281106125db57867fae5116a8119d08673a0f1dfa7546b95da4bd54bb17feda7c61130ac7859152f687870388a180f35b8351855293810193928101926001016125aa565b612606670de0b6b3a7640000916101395490614288565b0461013161261582825461407b565b90556101465461262f9082906001600160a01b0316613f25565b61258a565b61263d8161449f565b6126478183614908565b86610150918661265785856137ea565b90549060031b1c91838313612674575b505050505060010161257b565b946126b9838296996126bf946126b3856126a66126ac6126d69a60019e670de0b6b3a764000093849161013a54614288565b04614288565b0492614163565b52614156565b976137ea565b819391549060031b91821b91600019901b19161790565b90556126f96126e58287614163565b5188848060a01b0361014754169184614848565b9086888681612667565b815163101b685960e01b8152600490fd5b8382346108235781600319360112610823576001600160a01b036004358181168103610752576024359161014f54163303610baf5790610bac9161014e828154039055613f25565b508234610790578160031936011261079057602090610157549051908152f35b503461082357602036600319011261082357612796615c2f565b6004356101435580f35b8382346108235781600319360112610823576001600160a01b036004358181168103610752578161014f54163303610baf5790610bac91602435916101335416615bf6565b5034610823576020366003190112610823576004356001600160a01b038116810361075257610bac9061234f615c2f565b60208461074b846128283660046139ac565b92919091615410565b838234610823578060031936011261082357507f00000000000000000000000000000000000000000000000000000000000000006001600160a01b0316300361289d57602090517f360894a13ba1a3210667c828492db98dca3e2076cc3735a920a3ca505d382bbc8152f35b5162461bcd60e51b815260206004820152603860248201527f555550535570677261646561626c653a206d757374206e6f742062652063616c60448201527f6c6564207468726f7567682064656c656761746563616c6c00000000000000006064820152608490fd5b503461082357806003193601126108235761291f615c2f565b60ff1960ca541660ca5580f35b50828060031936011261079057600435906001600160a01b039081831683036107525783926024359267ffffffffffffffff8411612a1c5736602385011215612a1c5783600401359061298a61298183613990565b94519485613958565b8184523660248387010111612a1857610bac95602083612a0b946024600199018389013786010152807f000000000000000000000000000000000000000000000000000000000000000016906129e282301415613a7d565b7f360894a13ba1a3210667c828492db98dca3e2076cc3735a920a3ca505d382bbc541614613ade565b612a13615c2f565b613b3f565b8580fd5b8480fd5b50823461079057816003193601126107905760209061013b549051908152f35b5082346107905781600319360112610790576101475490516001600160a01b039091168152602090f35b50823461079057816003193601126107905760209061014c549051908152f35b508234610790576020366003190112610790576004356101378054821015610a7f5790612ab69161393c565b50805460019091015482519182526001600160a01b03166020820152f35b90915034610790573660031901126108235750612aef6155ca565b5061014f546001600160a01b03908116330361128257610dce610dc491612b17366004615b83565b93612b206155ca565b50612b29614ea3565b612b31615cbd565b611244610d64825163d9b6c2e560e01b6020820152610d4960248201896151eb565b50826060366003190112610752576004356001600160a01b03811681036107525760209261074b9133906044359060243590614ec5565b83606036600319011261075257604435906001600160a01b03821682036107525761074b6020923360243560043561531d565b50826060366003190112610752576004356001600160a01b03811681036107525760209261074b9133906044359060243590615410565b50826060366003190112610752576004356001600160a01b03811681036107525760209261074b9133906044359060243590614f7f565b50826060366003190112610752576044356001600160a01b03811681036107525760209261074b91602435600435614d4a565b50823461079057816003193601126107905760209061013e549051908152f35b50823461079057816003193601126107905760209061074b612ca9612ca1614bf3565b919091614177565b916149ee565b50823461079057816003193601126107905760ca5460ff8160081c1615612d1957601081901c6001600160a01b03163303611b095761ff00191660ca55513381527f5db9ee0a495bf2e6ff9c91a7834c1ba4fdd244a5e8aa4e537bd38aeae4b073aa90602090a180f35b8151637c7fd07960e01b8152600490fd5b60208461074b612d3b366004613916565b9291909161531d565b5034610823576020366003190112610823576004356001600160a01b0381169081900361075257612d73615c2f565b61014f80546001600160a01b031916909117905580f35b503461082357602036600319011261082357612da4615c2f565b6004356101905580f35b9083346107905761010091826003193601126108235750612dcd6155ca565b5061014f546001600160a01b0392908316330361128257612df082519182613958565b600435838116810361075257815260243583811681036107525760208201526044358282015260643560608201526080810191608435835260a4359084821682036107525760a0830191825260c43585811681036107525760c084015260e4359285841684036107525785610dce95612eac610d64610966610d59866114849d610dc498019a8b52612e806155ca565b50612e89614ea3565b612e91615cbd565b88516370f090ed60e11b6020820152928391602483016150e1565b9892809b8a96939d9299865161147961014e91825461407b565b50823461079057602036600319011261079057600435916101389081548410156108235750602092611c09916137ea565b50823461079057602036600319011261079057600435906001600160a01b0390818316830361075257610bac92612f598386947f000000000000000000000000000000000000000000000000000000000000000016906129e282301415613a7d565b612f61615c2f565b612f76612f6d84613990565b92519283613958565b828252601f19612f8584613990565b01366020840137613b3f565b60208461074b84612fa33660046138ad565b9133936154df565b508234610790578160031936011261079057612fc561409e565b612fcd615cbd565b61014b805460ff811680613098575b8061307e575b612fea578380f35b61ff00191661010017905580519082907f8b77276c97a5709f0d6db52329848a254eb760ce8be80d281799f633bdb69e838280a1610133546001600160a01b0316803b1561098a5783600481858094638456cb5960e01b83525af19081156130735750613063575b505061305c614394565b8180808380f35b61306c91613958565b8181613052565b51913d9150823e3d90fd5b5061308d611862610bfc614566565b61014a541015612fe2565b5060ff8160081c1615612fdc565b50823461079057816003193601126107905760209061013f549051908152f35b508234610790578160031936011261079057602090610143549051908152f35b5034610823576020366003190112610823576004356001600160a01b038116810361079057613113615c2f565b60ca805462010000600160b01b03191660109290921b62010000600160b01b031691909117905580f35b503461082357602036600319011261082357613157615c2f565b60043561014a5580f35b60208461074b61317236600461382c565b9493909392919261523b565b508234610790578160031936011261079057602090610140549051908152f35b5034610823576020366003190112610823576004356001600160a01b03811690819003610790576131cd615c2f565b61014780546001600160a01b031916909117905580f35b5082346107905781600319360112610790576102295490516001600160a01b039091168152602090f35b508234610790576020366003190112610790576004356001600160a01b0381169081900361098a5782829160209452610144845220549051908152f35b50823461079057816003193601126107905760209060ff61014b5460081c1690519015158152f35b5082346107905760a03660031901126107905761328e6155ca565b5061014f546001600160a01b03929083163303611282579061331f916132b53660046155f1565b916132be6155ca565b506132c7614ea3565b6132cf615cbd565b670de0b6b3a76400006132f26110486132e96115a0614566565b875192916149ba565b04948184019080825116916133146080870193898486511661013c5492615691565b96918a999199614156565b9660208101998a51808a116134485750881561343757816020918660606133a29695519301511690610134613355848254614156565b9055613365610131918254614156565b90556101335489516340c10f1960e01b81526001600160a01b03909216600483015260248201929092529384918716908290859082906044820190565b03925af1801561342b576133d5575b50509661111c9282611484888895610dce9a9b9c865161147961014e91825461407b565b6020823d8211613423575b816133ed60209383613958565b8101031261082357509282611484888895610dce9a9b9c9561341161111c99613f7c565b50959c9b5095509850508194506133b1565b3d91506133e0565b508551903d90823e3d90fd5b865163f3e39b5d60e01b8152600490fd5b6044908a895191630b63f1a760e01b835260048301526024820152fd5b50346108235760203660031901126108235761347f615c2f565b6004356101425580f35b503461082357602036600319011261082357600435801515809103610790576134b0615c2f565b61014b9060ff8019835416911617905580f35b50823461079057816003193601126107905760209061074b6134e6610bfc614566565b906149ba565b50823461079057816003193601126107905760209061014d549051908152f35b50823461079057602036600319011261079057600435916001600160a01b0383168303610823575061074b602092339033906147a4565b60208461074b61355436600461382c565b94939093929192615145565b50823461079057816003193601126107905761014f5490516001600160a01b039091168152602090f35b5034610823576020366003190112610823576004356001600160a01b03811690819003610790576135b9615c2f565b61013080546001600160a01b031916909117905580f35b5034610823576020366003190112610823576135ea615c2f565b60043561013f5580f35b508234610790578160031936011261079057602090610159549051908152f35b5034610823576020366003190112610823576004356001600160a01b0381169081900361079057613643615c2f565b61014680546001600160a01b031916909117905580f35b50823461079057816003193601126107905760209061018f549051908152f35b50823461079057816003193601126107905760975490516001600160a01b039091168152602090f35b5082806003193601126107905761074b60209233602435600435614d4a565b5034610823576020366003190112610823576136dc615c2f565b60043561015a5580f35b508234610790578160031936011261079057613700615cbd565b61015b8054431061376e5790610bac9161015a54430190557f0e37fda283839477a1b77e29acf8336c0e13a5daa967913df0fe5ad258c0822f6020670de0b6b3a7640000613755610131546101595490614288565b049251838152a1610158546001600160a01b0316613f25565b815163acce20e560e01b8152600490fd5b508234610790576020366003190112610790576004359161013590815484101561082357506020926137b0916137ea565b905491519160018060a01b039160031b1c168152f35b5034610823576020366003190112610823576137e0615c2f565b60043561013a5580f35b80548210156138025760005260206000200190600090565b634e487b7160e01b600052603260045260246000fd5b35906001600160a01b038216820361075257565b91908260c09103126107525761384182613818565b9160208101359160408201359160608101359161386c60a061386560808501613818565b9301613818565b90565b6040906138ab939594929560c0820196825260208201520190606080918051845260208101516020850152604081015160408501520151910152565b565b9190826080910312610752576138c282613818565b916020810135916060604083013592013590565b6138ab9360609296959360e08301978352602083015260408201520190606080918051845260208101516020850152604081015160408501520151910152565b91908260809103126107525781359160208101359161386c606061386560408501613818565b80548210156138025760005260206000209060011b0190600090565b90601f8019910116810190811067ffffffffffffffff82111761397a57604052565b634e487b7160e01b600052604160045260246000fd5b67ffffffffffffffff811161397a57601f01601f191660200190565b9190826080910312610752576139c182613818565b9160208101359161386c606060408401359301613818565b908160a0910312610752576139ed81613818565b9160208201359160408101359161386c608060608401359301613818565b91908260c091031261075257613a2082613818565b91613a2d60208201613818565b9160408201359160608101359161386c60a060808401359301613818565b908160a091031261075257613a5f81613818565b9160208201359160408101359161386c608061386560608501613818565b15613a8457565b60405162461bcd60e51b815260206004820152602c60248201527f46756e6374696f6e206d7573742062652063616c6c6564207468726f7567682060448201526b19195b1959d85d1958d85b1b60a21b6064820152608490fd5b15613ae557565b60405162461bcd60e51b815260206004820152602c60248201527f46756e6374696f6e206d7573742062652063616c6c6564207468726f7567682060448201526b6163746976652070726f787960a01b6064820152608490fd5b9060ff7f4910fdfa16fed3260ed0e7147f7cc6da11a60208b5b9406d12a635614ffd91435416600014613b7757506138ab9150613d2b565b6040516352d1902d60e01b8152602093919291906001600160a01b038316908581600481855afa60009181613cfc575b50613c085760405162461bcd60e51b815260048101879052602e60248201527f45524331393637557067726164653a206e657720696d706c656d656e7461746960448201526d6f6e206973206e6f74205555505360901b6064820152608490fd5b9394937fc9f76b5ec45e5cdef99837d7b6d2467235c1df8933c8ca56df5c35afa2c7d44401613ca557613c3a83613d2b565b7fbc7cd75a20ee27fd9adebab32041f755214dbc6bffa90cc0225b39da2e5c2d3b600080a283511590811591613c9d575b50613c7557505050565b600080613c9a94613c84613dcd565b9481519101845af4613c94613e21565b91613e51565b50565b905038613c6b565b60405162461bcd60e51b815260048101859052602960248201527f45524331393637557067726164653a20756e737570706f727465642070726f786044820152681a58589b195555525160ba1b6064820152608490fd5b90918782813d8311613d24575b613d138183613958565b810103126108235750519038613ba7565b503d613d09565b803b15613d72577f360894a13ba1a3210667c828492db98dca3e2076cc3735a920a3ca505d382bbc80546001600160a01b0319166001600160a01b03909216919091179055565b60405162461bcd60e51b815260206004820152602d60248201527f455243313936373a206e657720696d706c656d656e746174696f6e206973206e60448201526c1bdd08184818dbdb9d1c9858dd609a1b6064820152608490fd5b613dd76027613990565b90613de56040519283613958565b60278252660819985a5b195960ca1b6040837f416464726573733a206c6f772d6c6576656c2064656c65676174652063616c6c60208201520152565b3d15613e4c573d90613e3282613990565b91613e406040519384613958565b82523d6000602084013e565b606090565b91929015613eb35750815115613e65575090565b3b15613e6e5790565b60405162461bcd60e51b815260206004820152601d60248201527f416464726573733a2063616c6c20746f206e6f6e2d636f6e74726163740000006044820152606490fd5b825190915015613ec65750805190602001fd5b6040519062461bcd60e51b82528160208060048301528251908160248401526000935b828510613f0c575050604492506000838284010152601f80199101168101030190fd5b8481018201518686016044015293810193859350613ee9565b9080613f2f575050565b6102295460405163a9059cbb60e01b60208201526001600160a01b03938416602482015260448101929092526138ab9216613f7782606481015b03601f198101845283613958565b613f89565b5190811515820361075257565b602091613fec916001600160a01b0316600080613fa586613990565b93613fb36040519586613958565b8685527f5361666545524332303a206c6f772d6c6576656c2063616c6c206661696c656487860152868151910182855af1613c94613e21565b805182811591821561405c575b50509050156140055750565b6084906040519062461bcd60e51b82526004820152602a60248201527f5361666545524332303a204552433230206f7065726174696f6e20646964206e6044820152691bdd081cdd58d8d9595960b21b6064820152fd5b838092935001031261075257816140739101613f7c565b808238613ff9565b9190820391821161408857565b634e487b7160e01b600052601160045260246000fd5b6140a7306140db565b610131906140c46140ba8354809361407b565b61014e549061407b565b806140ce57505050565b6140d791614156565b9055565b610229546040516370a0823160e01b81526001600160a01b0392831660048201529160209183916024918391165afa90811561414a5760009161411c575090565b906020823d8211614142575b8161413560209383613958565b8101031261082357505190565b3d9150614128565b6040513d6000823e3d90fd5b9190820180921161408857565b80518210156138025760209160051b010190565b906000916000906101378054906000925b8284106141ae57505050506141aa670de0b6b3a7640000916101395490614288565b0490565b90919293956141fb6141ea6141f56001936141ef6141cc8a88614163565b516141d7818c614221565b95906141e38d8c61393c565b5054614156565b615cde565b90614156565b98614156565b9401929190614188565b9190916000838201938412911290801582169115161761408857565b919060009061424f8160009561424561423c826101506137ea565b939054926142d4565b9160031b1c614205565b6000811361425e575b50509190565b6142809194506126a692508094670de0b6b3a764000093849161013a54614288565b043880614258565b8181029291811591840414171561408857565b81156142a5570490565b634e487b7160e01b600052601260045260246000fd5b8181039291600013801582851316918412161761408857565b6142e08161013761393c565b505490670de0b6b3a7640000918281029281840414901517156140885761386c92614320614313614326936101516137ea565b90549060031b1c8461429b565b9261429b565b906142bb565b8015614342576141ea61386c926101315461407b565b505060001990565b67ffffffffffffffff811161397a5760051b60200190565b9061436c8261434a565b6143796040519182613958565b828152809261438a601f199161434a565b0190602036910137565b610131548015613c9a57610137908154916000906143b184614362565b9082905b85821061442057505060005b8481106143cf575050505050565b6143ec846143e7856143e18587614163565b51614288565b61429b565b906101389182546801000000000000000081101561397a576126bf8160019586614418940181556137ea565b9055016143c1565b909261445c6001916144318661449f565b61443b8787614163565b526141ef614449878661393c565b50546144558888614163565b5190615cde565b9301906143b5565b6001600160a01b0316600090815261013660205260409020600181015460ff161561448d575490565b60405163e6c4247b60e01b8152600490fd5b6144ab9061013761393c565b50600101546001600160a01b03166144c281614500565b919091156144ce575090565b60249060405190637f6e4db960e01b82526004820152fd5b91908260409103126107525761386c602083519301613f7c565b604080516359e02dd760e01b81529291839060049082906001600160a01b03165afa91821561414a57600090819361453757509190565b905061455b91925060403d811161455f575b6145538183613958565b8101906144e6565b9091565b503d614549565b610137549061457482614362565b9160005b818110614583575050565b8061458f60019261449f565b6145998287614163565b5201614578565b906145c1670de0b6b3a764000092836101575461015454924301030261429b565b828110156145de5782039180836101555402049261015654020590565b50600091508190565b90916145f1614649565b92908082101561463f5783916146069161407b565b93111561463a57818110156146325761461e9161407b565b60011c8082101561462d575090565b905090565b505050600090565b505090565b5050505050600090565b61015254604080516359e02dd760e01b80825293929091906001600160a01b039081168284600481845afa8015614739576000948591614716575b50156146ff575061015354169080519485528085600481855afa80156146f45760009586916146d1575b50156146ba5750509190565b6024925051906305e8989360e11b82526004820152fd5b9050816146eb9296503d871161455f576145538183613958565b949094386146ae565b50513d6000823e3d90fd5b6024908351906305e8989360e11b82526004820152fd5b9050614730919450833d851161455f576145538183613958565b93909338614684565b83513d6000823e3d90fd5b1561474b57565b60405162461bcd60e51b815260206004820152602b60248201527f496e697469616c697a61626c653a20636f6e7472616374206973206e6f74206960448201526a6e697469616c697a696e6760a81b6064820152608490fd5b61480a916147b0615cbd565b6147b9306140db565b604051636845c44560e01b60208201526001600160a01b0393841660248201529183166044830152848316606483015260848083019190915281529061480060a483613958565b6101f65416614826565b60208180518101031261075257602061386c9101518092613f25565b9061386c91600080614836613dcd565b93602081519101845af4613c94613e21565b6148b69361487d6000926020956148618261013761393c565b5061486d878254614156565b9055611642610131918254614156565b90546040516340c10f1960e01b81526001600160a01b039093166004840152602483019490945290948593928492909183906044820190565b039360039190911b1c6001600160a01b03165af1801561414a576148d75750565b6020813d8211614900575b816148ef60209383613958565b8101031261075257613c9a90613f7c565b3d91506148e2565b6126bf6140d79161491984826142d4565b61494f614928836101506137ea565b61493b8294925492838360031b1c614205565b919060031b91821b91600019901b19161790565b90556101516137ea565b60e08101929160c09081906001600160a01b038061497683613818565b16855261498560208301613818565b16602085015260408101356040850152606081013560608501526080810135608085015260a081013560a08501520135910152565b90610134549081156149df5761386c926149da6141ea926101315461407b565b61407b565b505050670de0b6b3a764000090565b82826149f992614a16565b9060008213156146325761386c92614a10916149ba565b9061429b565b9091614a25906101315461407b565b90670de0b6b3a7640000918281029281840414901517156140885761386c9261432691614288565b92614a5b9293949194614a16565b81810291600091600160ff1b9183821283821416614aff578185051490151715614aeb57670de0b6b3a763ffff198401938411614aeb57670de0b6b3a764000093848102948186041490151715614aeb578315614ad7578214600019841416614ac357500590565b634e487b7160e01b81526011600452602490fd5b634e487b7160e01b82526012600452602482fd5b634e487b7160e01b82526011600452602482fd5b634e487b7160e01b84526011600452602484fd5b61014d5480431015614b2a5761386c90439061407b565b50600090565b90604051614b3f604082613958565b602060018294805484520154910152565b614b5c816101486137ea565b90549060031b1c9161018e91614b72818461393c565b50549261018f54431015614b98575b50508082101561463a576143e79061386c93614288565b829350614bac614bb79392614bb29261393c565b50614b30565b614bbf565b903880614b81565b602081519101805192670de0b6b3a76400009384039084821161408857614bec6141ef926141aa95614288565b9251614288565b60008061013791825492614c0684614362565b9382915b818310614c33575050508115614c275790614c249161429b565b91565b50506101495460011b91565b90919392614c408561449f565b9081614c4c8789614163565b52614c65614c5a8388614221565b506141e3888661393c565b670de0b6b3a76400009081810291818304149015171561408857614ca7614cad926141ef85614c99600197614ca296615cde565b9485918c614b50565b614288565b95614156565b94019190614c0a565b61018f8054431015614cc55750565b6101375460005b818110614cdf5750506101905443019055565b80807f19156e9379c7bbbce8f646ce5ee30ba860b8f954717405f3d5859a6c1a21ae6060019361018e614d15614bac838361393c565b90614d33614d2b614d258561449f565b84614bbf565b93849261393c565b50555160409182519182526020820152a201614ccc565b9260a4614de79160209394614d5d614ea3565b614d65615cbd565b60405196614d7460a089613958565b87528487018690523360408089019182526001600160a01b0392831660608a0190815293831660808a0190815261014f54915163e97a4d6360e01b81528a5160048201526020909a015160248b01529151831660448a015292518216606489015251811660848801528693849290911690565b34905af191821561414a57600092614e04575b5061386c90614e39565b90916020823d8211614e31575b81614e1e60209383613958565b810103126108235750519061386c614dfa565b3d9150614e11565b6138ab9061014e614e4b828254614156565b905561022954309033906001600160a01b03165b6040516323b872dd60e01b60208201526001600160a01b0392831660248201529290911660448301526064808301939093529181526138ab91613f77608483613958565b60ff61014b5460081c16614eb357565b604051631ca61d7760e01b8152600490fd5b9360209293614de79260c492614ed9614ea3565b614ee1615cbd565b60405197614ef060c08a613958565b60018060a01b03938493848093168b52888b01528860408b01523360608b01521660808901521660a087015261014f5416946040519586938492637e81a82160e01b845260048401905b60a09081600180821b03918281511685526020810151602086015260408101516040860152826060820151166060860152826080820151166080860152015116910152565b9360209293614de79260c492614f93614ea3565b614f9b615cbd565b60405197614faa60c08a613958565b60018060a01b03938493848093168b52888b01528860408b01523360608b01521660808901521660a087015261014f54169460405195869384926323ec24b560e11b84526004840190614f3a565b909294602092949561507f9761500c614ea3565b615014615cbd565b6040519361502461010086613958565b60018060a01b039384938480809416998a8952168888015289604088015260608701528960808701523360a08701521660c08501521660e083015261014f541660405180809881946334975a4160e01b8352600483016150e1565b039134905af193841561414a576000946150ac575b5061386c92916150a79130903390614e5f565b614e39565b90936020823d82116150d9575b816150c660209383613958565b810103126108235750519261386c615094565b3d91506150b9565b91909160e06101008201938160018060a01b03918281511685528260208201511660208601526040810151604086015260608101516060860152608081015160808601528260a08201511660a08601528260c08201511660c0860152015116910152565b60e482602080949697986151c69461515b614ea3565b615163615cbd565b6040519a8b9861517460e08b613958565b60018060a01b03958695868095169b8c8152015260408d01528a60608d01523360808d01521660a08b01521660c089015261014f54169660405197889384926263744760e11b845260048401906151eb565b34905af193841561414a576000946150ac575061386c92916150a79130903390614e5f565b60c0908160018060a01b03918281511685526020810151602086015260408101516040860152606081015160608601528260808201511660808601528260a08201511660a0860152015116910152565b949391909293615249614ea3565b615251615cbd565b6040519561526060e088613958565b60018060a01b039384938480931689528660208a015260408901528660608901523360808901521660a08701521660c085015260206152bd60e48361014f5416966040519788938492636b59c22f60e01b845260048401906151eb565b34905af193841561414a576000946152e8575b5061386c92916150a791610133541630903390614e5f565b90936020823d8211615315575b8161530260209383613958565b810103126108235750519261386c6152d0565b3d91506152f5565b91929092615329614ea3565b615331615cbd565b6040519361534060a086613958565b83855260208086019182523360408088019182526001600160a01b03948516606089019081529585166080890190815261014f54915163fa91a9a560e01b8152985160048a0152935160248901529051841660448801529351831660648701529051821660848601529091849060a4908290851634905af192831561414a576000936153db575b509061386c91610133541630903390614e5f565b90926020823d8211615408575b816153f560209383613958565b810103126108235750519161386c6153c7565b3d91506153e8565b60c46020929461548892615422614ea3565b61542a615cbd565b6040519761543960c08a613958565b60018060a01b0380938180941698898c528a898d015260408c01523360608c01521660808a01521660a088015261014f5416956040519687938492636426c5db60e11b84526004840190614f3a565b34905af192831561414a576000936154aa575b509061386c9130903390614e5f565b90926020823d82116154d7575b816154c460209383613958565b810103126108235750519161386c61549b565b3d91506154b7565b939091936154eb614ea3565b6154f3615cbd565b6040519561550260e088613958565b60018060a01b0380938180941696878a528660208b01528860408b015260608a01523360808a01521660a08801521660c0860152602061556060e48361014f541697604051988993849263e4e1b72960e01b845260048401906151eb565b34905af194851561414a57600095615595575b5061386c93929161558c91610133541630903390614e5f565b30903390614e5f565b90946020823d82116155c2575b816155af60209383613958565b810103126108235750519361386c615573565b3d91506155a2565b604051906155d9608083613958565b60006060838281528260208201528260408201520152565b91908260a09103126107525760405161560b60a082613958565b6080615649818395803585526020810135602086015261562d60408201613818565b604086015261563e60608201613818565b606086015201613818565b910152565b919061565990614177565b919092615666838561432c565b9080821115615673575050565b6044925060405191637912120160e01b835260048301526024820152fd5b9290939160009160009182966156a56155ca565b966001600160a01b039185908316806158b1575b508261012f54168360405193636eb1769f60e11b8552168060048501523060248501526020948585604481865afa9485156158a6578495615877575b5084615756575b505050505086015115615712575b505050929190565b9091925061572a670de0b6b3a7640000928392614288565b0480855290821561574e57615746920490816040860152614156565b38808061570a565b509050615746565b615764906101305416614500565b929092156156fc57909192939b50848b61579e85670de0b6b3a764000061579861578e8d8d614288565b6101435490614288565b0461429b565b81830181815295908b1561586d57506157c9916157bd6060928d61429b565b91829101528551614156565b809d5b109283156157f8575b5050506157e5575b8080806156fc565b81929950528060608801529638806157dd565b909192506024604051809481936370a0823160e01b835260048301525afa90811561586257908b918491615831575b50103884816157d5565b809250858092503d831161585b575b61584a8183613958565b8101031261098a578a905138615827565b503d615840565b6040513d85823e3d90fd5b915050809d6157cc565b9094508581813d831161589f575b61588f8183613958565b81010312610a7f575193386156f5565b503d615885565b6040513d86823e3d90fd5b9095506020836101c35416916024604051809481936364a731e960e01b835260048301525afa80156159295786906158f6575b6158ef915084614288565b94386156b9565b506020813d8211615921575b8161590f60209383613958565b81010312612a18576158ef90516158e4565b3d9150615902565b6040513d88823e3d90fd5b926138ab94919293825115156000146159a45750604061599f92615997670de0b6b3a764000061596961013b54845190614288565b04610131615978828254614156565b905561599160018060a01b03610146541691845161407b565b90613f25565b015190613f25565b613f25565b90606061599f936159c660018060a01b036101465416602083015190866159ca565b0151915b9190816159d657505050565b61012f546138ab93906001600160a01b0316614e5f565b91908260c091031261075257604051615a0760c082613958565b60a0615649818395615a1881613818565b85526020810135602086015260408101356040860152615a3a60608201613818565b6060860152615a4b60808201613818565b608086015201613818565b90615a6394939291614a4d565b60008112614b2a5790565b80615a77614649565b919093615a8460006145a0565b9401938291615b1c575b0193846000808212615b1657505b840391818511615ade575050818111615ac057505061015555610156554361015755565b60449250604051916306da41e560e11b835260048301526024820152fd5b9080859211615b0457604491604051916306da41e560e11b835260048301526024820152fd5b604051630fb4fd3560e11b8152600490fd5b03615a9c565b90508160000390615a8e565b80910360e08112610752578151926020830151926080604082015193605f1901126107525760c060405191615b5e608084613958565b606081015183526080810151602084015260a081015160408401520151606082015290565b91908260e091031261075257604051615b9d60e082613958565b60c0615649818395615bae81613818565b8552602081013560208601526040810135604086015260608101356060860152615bda60808201613818565b6080860152615beb60a08201613818565b60a086015201613818565b60405163a9059cbb60e01b60208201526001600160a01b03909216602483015260448201929092526138ab91613f778260648101613f69565b60975460405163d994d6d560e01b815233600482015290602090829060249082906001600160a01b03165afa90811561414a57600091615c84575b5015615c7257565b604051631dd1b1b560e21b8152600490fd5b906020823d8211615cb5575b81615c9d60209383613958565b810103126108235750615caf90613f7c565b38615c6a565b3d9150615c90565b60ff60ca5460081c16615ccc57565b60405163783bb6c960e11b8152600490fd5b90670de0b6b3a7640000918281029281840414901517156140885761386c9161429b565b670de0b6b3a764000010615d1257565b604051632a9ffab760e21b8152600490fdfea264697066735822122066caea7aeeb5a7b21ba598ea7e5ea2caf825e5faec95cffdc6832c2bb376aa7664736f6c63430008140033",
  "linkReferences": {},
  "deployedLinkReferences": {},
  "devdoc": {
    "events": {
      "AdminChanged(address,address)": {
        "details": "Emitted when the admin account has changed."
      },
      "BeaconUpgraded(address)": {
        "details": "Emitted when the beacon is changed."
      },
      "Initialized(uint8)": {
        "details": "Triggered when the contract has been initialized or reinitialized."
      },
      "Upgraded(address)": {
        "details": "Emitted when the implementation is upgraded."
      }
    },
    "kind": "dev",
    "methods": {
      "addPeggedToken((address,address,uint256,uint256,uint256,uint256,uint256))": {
        "details": "Note that the ema value, should consider `nextEmaCalculation`  This function is implemented in MocCoreExpansion but with this contract contexttpTokenAddress Pegged Token contract address to add      priceProviderAddress Pegged Token price provider contract address      tpCtarg Pegged Token target coverage [PREC]      tpMintFee additional fee pct applied on mint [PREC]      tpRedeemFee additional fee pct applied on redeem [PREC]      tpEma initial Pegged Token exponential moving average [PREC]      tpEmaSf Pegged Token smoothing factor [PREC]  Requirements: - the caller must have governance authorization. - tpTokenAddress must be a MocRC20, with mint, burn roles already settled  for this contract",
        "params": {
          "peggedTokenParams_": "params of Pegged Token to add"
        }
      },
      "calcCtargemaCA()": {
        "details": "qAC = nTP / pACtp      ctargemaCA = (ctargemaTP * qAC) / (qAC)",
        "returns": {
          "ctargemaCA": "[PREC]"
        }
      },
      "changeGovernor(address)": {
        "params": {
          "newGovernor_": "New governor address"
        }
      },
      "constructor": {
        "custom:oz-upgrades-unsafe-allow": "constructor"
      },
      "editPeggedToken((address,address,uint256,uint256,uint256,uint256,uint256))": {
        "details": "Note that the ema value, should consider `nextEmaCalculation`  This function is implemented in MocCoreExpansion but with this contract contexttpTokenAddress Pegged Token contract address to identify the token to edit      priceProviderAddress Pegged Token price provider contract address      tpCtarg Pegged Token target coverage [PREC]      tpMintFee additional fee pct applied on mint [PREC]      tpRedeemFee additional fee pct applied on redeem [PREC]      tpEma initial Pegged Token exponential moving average [PREC]      tpEmaSf Pegged Token smoothing factor [PREC]  Requirements: - the caller must have governance authorization. - the tpTokenAddress must exists",
        "params": {
          "peggedTokenParams_": "params of Pegged Token to add"
        }
      },
      "getCglb()": {
        "returns": {
          "cglob": "[PREC]"
        }
      },
      "getLckAC()": {
        "returns": {
          "lckAC": "[PREC]"
        }
      },
      "getLeverageTC()": {
        "returns": {
          "leverageTC": "[PREC]"
        }
      },
      "getPACtp(address)": {
        "params": {
          "tp_": "Pegged Token address"
        },
        "returns": {
          "_0": "price [PREC]"
        }
      },
      "getPTCac()": {
        "returns": {
          "pTCac": "[PREC]"
        }
      },
      "getTCAvailableToRedeem()": {
        "details": "because it is a view function we are not calculating the new ema,  since we are using the last ema calculation, this may differ a little from the real amount  of TC available to redeem. Consider it an approximation.",
        "returns": {
          "tcAvailableToRedeem": "[N]"
        }
      },
      "getTPAvailableToMint(address)": {
        "details": "because it is a view function we are not calculating the new ema,  since we are using the last ema calculation, this may differ a little from the real amount  of TP available to mint. Consider it an approximation.",
        "params": {
          "tp_": "Pegged Token address"
        },
        "returns": {
          "tpAvailableToMint": "[N]"
        }
      },
      "getTotalACavailable()": {
        "returns": {
          "totalACavailable": "[N]"
        }
      },
      "initialize((((address,address,address,address,address,address,uint256,uint256,uint256,uint256,uint256,uint256,uint256,uint256,uint256,uint256,uint256,uint256,uint256,uint256,address,uint256,uint256,address,address,uint256),address,address,address,uint256,address),address))": {
        "details": "governorAddress The address that will define when a change contract is authorized      pauserAddress The address that is authorized to pause this contract      acTokenAddress Collateral Asset Token contract address      tcTokenAddress Collateral Token contract address      mocFeeFlowAddress Moc Fee Flow contract address      mocAppreciationBeneficiaryAddress Moc appreciation beneficiary address      protThrld protected state threshold [PREC]      liqThrld liquidation coverage threshold [PREC]      feeRetainer pct retain on fees to be re-injected as Collateral, while paying fees with AC [PREC]      tcMintFee additional fee pct applied on mint Collateral Tokens operations [PREC]      tcRedeemFee additional fee pct applied on redeem Collateral Tokens operations [PREC]      successFee pct of the gain because Pegged Tokens devaluation that is transferred        in Collateral Asset to Moc Fee Flow during the settlement [PREC]      appreciationFactor pct of the gain because Pegged Tokens devaluation that is returned        in Pegged Tokens to appreciation beneficiary during the settlement [PREC]      bes number of blocks between settlements      tcInterestCollectorAddress TC interest collector address      tcInterestRate pct interest charged to TC holders on the total collateral in the protocol [PREC]      tcInterestPaymentBlockSpan amount of blocks to wait for next TC interest payment      maxAbsoluteOpProviderAddress max absolute operation provider address      maxOpDiffProviderAddress max operation difference provider address      decayBlockSpan number of blocks that have to elapse for the linear decay factor to be 0      emaCalculationBlockSpan amount of blocks to wait between Pegged ema calculation      mocVendors address for MocVendors contract      mocQueueAddress address for MocQueue contract",
        "params": {
          "initializeParams_": "contract initializer params"
        }
      },
      "isLiquidationReached()": {
        "returns": {
          "_0": "true if liquidation state is reached, false otherwise"
        }
      },
      "liqRedeemTP(address)": {
        "params": {
          "tp_": "Pegged Token address"
        },
        "returns": {
          "qACRedeemed": "amount of AC sent to sender"
        }
      },
      "liqRedeemTPto(address,address)": {
        "params": {
          "recipient_": "address who receives the AC",
          "tp_": "Pegged Token address"
        },
        "returns": {
          "qACRedeemed": "amount of AC sent to `recipient_`"
        }
      },
      "makeStoppable()": {
        "details": "Should be called through governance"
      },
      "makeUnstoppable()": {
        "details": "Should be called through governance"
      },
      "maxQACToMintTP()": {
        "returns": {
          "maxQAC": "minimum regarding maxAbsoluteOperation and maxOperationalDifference"
        }
      },
      "maxQACToRedeemTP()": {
        "returns": {
          "maxQAC": "minimum regarding maxAbsoluteOperation and maxOperationalDifference"
        }
      },
      "mintTC(uint256,uint256)": {
        "params": {
          "qACmax_": "maximum amount of Collateral Asset that can be spent",
          "qTC_": "amount of Collateral Token to mint"
        },
        "returns": {
          "operId": "Identifier to track the Operation lifecycle"
        }
      },
      "mintTCViaVendor(uint256,uint256,address)": {
        "params": {
          "qACmax_": "maximum amount of Collateral Asset that can be spent",
          "qTC_": "amount of Collateral Token to mint",
          "vendor_": "address who receives a markup"
        },
        "returns": {
          "operId": "Identifier to track the Operation lifecycle"
        }
      },
      "mintTCandTP(address,uint256,uint256)": {
        "params": {
          "qACmax_": "maximum amount of Collateral Asset that can be spent",
          "qTP_": "amount of Pegged Token to mint",
          "tp_": "Pegged Token address"
        },
        "returns": {
          "operId": "Identifier to track the Operation lifecycle"
        }
      },
      "mintTCandTPViaVendor(address,uint256,uint256,address)": {
        "params": {
          "qACmax_": "maximum amount of Collateral Asset that can be spent",
          "qTP_": "amount of Pegged Token to mint",
          "tp_": "Pegged Token address",
          "vendor_": "address who receives a markup"
        },
        "returns": {
          "operId": "Identifier to track the Operation lifecycle"
        }
      },
      "mintTCandTPto(address,uint256,uint256,address)": {
        "params": {
          "qACmax_": "maximum amount of Collateral Asset that can be spent",
          "qTP_": "amount of Pegged Token to mint",
          "recipient_": "address who receives the Collateral Token and Pegged Token",
          "tp_": "Pegged Token address"
        },
        "returns": {
          "operId": "Identifier to track the Operation lifecycle"
        }
      },
      "mintTCandTPtoViaVendor(address,uint256,uint256,address,address)": {
        "params": {
          "qACmax_": "maximum amount of Collateral Asset that can be spent",
          "qTP_": "amount of Pegged Token to mint",
          "recipient_": "address who receives the Collateral Token and Pegged Token",
          "tp_": "Pegged Token address",
          "vendor_": "address who receives a markup"
        },
        "returns": {
          "operId": "Identifier to track the Operation lifecycle"
        }
      },
      "mintTCto(uint256,uint256,address)": {
        "params": {
          "qACmax_": "maximum amount of Collateral Asset that can be spent",
          "qTC_": "amount of Collateral Token to mint",
          "recipient_": "address who receives the Collateral Token"
        },
        "returns": {
          "operId": "Identifier to track the Operation lifecycle"
        }
      },
      "mintTCtoViaVendor(uint256,uint256,address,address)": {
        "params": {
          "qACmax_": "maximum amount of Collateral Asset that can be spent",
          "qTC_": "amount of Collateral Token to mint",
          "recipient_": "address who receives the Collateral Token",
          "vendor_": "address who receives a markup"
        },
        "returns": {
          "operId": "Identifier to track the Operation lifecycle"
        }
      },
      "mintTP(address,uint256,uint256)": {
        "params": {
          "qACmax_": "maximum amount of Collateral Asset that can be spent",
          "qTP_": "amount of Pegged Token to mint",
          "tp_": "Pegged Token address to mint"
        },
        "returns": {
          "operId": "Identifier to track the Operation lifecycle"
        }
      },
      "mintTPViaVendor(address,uint256,uint256,address)": {
        "params": {
          "qACmax_": "maximum amount of Collateral Asset that can be spent",
          "qTP_": "amount of Pegged Token to mint",
          "tp_": "Pegged Token address to mint",
          "vendor_": "address who receives a markup"
        },
        "returns": {
          "operId": "Identifier to track the Operation lifecycle"
        }
      },
      "mintTPto(address,uint256,uint256,address)": {
        "params": {
          "qACmax_": "maximum amount of Collateral Asset that can be spent",
          "qTP_": "amount of Pegged Token to mint",
          "recipient_": "address who receives the Pegged Token",
          "tp_": "Pegged Token address to mint"
        },
        "returns": {
          "operId": "Identifier to track the Operation lifecycle"
        }
      },
      "mintTPtoViaVendor(address,uint256,uint256,address,address)": {
        "params": {
          "qACmax_": "maximum amount of Collateral Asset that can be spent",
          "qTP_": "amount of Pegged Token to mint",
          "recipient_": "address who receives the Pegged Token",
          "tp_": "Pegged Token address to mint",
          "vendor_": "address who receives a markup"
        },
        "returns": {
          "operId": "Identifier to track the Operation lifecycle"
        }
      },
      "pause()": {
        "details": "Should only be called by the pauser and when it is stoppable"
      },
      "proxiableUUID()": {
        "details": "Implementation of the ERC1822 {proxiableUUID} function. This returns the storage slot used by the implementation. It is used to validate the implementation's compatibility when performing an upgrade. IMPORTANT: A proxy pointing at a proxiable contract should not be considered proxiable itself, because this risks bricking a proxy that upgrades to it, by delegating to itself until out of gas. Thus it is critical that this function revert if invoked through a proxy. This is guaranteed by the `notDelegated` modifier."
      },
      "redeemTC(uint256,uint256)": {
        "params": {
          "qACmin_": "minimum amount of Collateral Asset that sender expects to receive",
          "qTC_": "amount of Collateral Token to redeem"
        },
        "returns": {
          "operId": "Identifier to track the Operation lifecycle"
        }
      },
      "redeemTCViaVendor(uint256,uint256,address)": {
        "params": {
          "qACmin_": "minimum amount of Collateral Asset that sender expects to receive",
          "qTC_": "amount of Collateral Token to redeem",
          "vendor_": "address who receives a markup"
        },
        "returns": {
          "operId": "Identifier to track the Operation lifecycle"
        }
      },
      "redeemTCandTP(address,uint256,uint256,uint256)": {
        "params": {
          "qACmin_": "Minimum amount of Collateral Asset that the sender expects to receive",
          "qTC_": "Maximum amount of Collateral Token to redeem",
          "qTP_": "Maximum amount of Pegged Token to redeem",
          "tp_": "Pegged Token address"
        },
        "returns": {
          "operId": "Identifier to track the Operation lifecycle"
        }
      },
      "redeemTCandTPViaVendor(address,uint256,uint256,uint256,address)": {
        "params": {
          "qACmin_": "Minimum amount of Collateral Asset that the sender expects to receive",
          "qTC_": "Maximum amount of Collateral Token to redeem",
          "qTP_": "Maximum amount of Pegged Token to redeem",
          "tp_": "Pegged Token address",
          "vendor_": "Address who receives a markup"
        },
        "returns": {
          "operId": "Identifier to track the Operation lifecycle"
        }
      },
      "redeemTCandTPto(address,uint256,uint256,uint256,address)": {
        "params": {
          "qACmin_": "Minimum amount of Collateral Asset that `recipient_` expects to receive",
          "qTC_": "Maximum amount of Collateral Token to redeem",
          "qTP_": "Maximum amount of Pegged Token to redeem",
          "recipient_": "Address who receives the Collateral Asset",
          "tp_": "Pegged Token address"
        },
        "returns": {
          "operId": "Identifier to track the Operation lifecycle"
        }
      },
      "redeemTCandTPtoViaVendor(address,uint256,uint256,uint256,address,address)": {
        "params": {
          "qACmin_": "Minimum amount of Collateral Asset that `recipient_` expects to receive",
          "qTC_": "Maximum amount of Collateral Token to redeem",
          "qTP_": "Maximum amount of Pegged Token to redeem",
          "recipient_": "Address who receives the Collateral Asset",
          "tp_": "Pegged Token address",
          "vendor_": "Address who receives a markup"
        },
        "returns": {
          "operId": "Identifier to track the Operation lifecycle"
        }
      },
      "redeemTCto(uint256,uint256,address)": {
        "params": {
          "qACmin_": "minimum amount of Collateral Asset that `recipient_` expects to receive",
          "qTC_": "amount of Collateral Token to redeem",
          "recipient_": "address who receives the Collateral Asset"
        },
        "returns": {
          "operId": "Identifier to track the Operation lifecycle"
        }
      },
      "redeemTCtoViaVendor(uint256,uint256,address,address)": {
        "params": {
          "qACmin_": "minimum amount of Collateral Asset that `recipient_` expects to receive",
          "qTC_": "amount of Collateral Token to redeem",
          "recipient_": "address who receives the Collateral Asset",
          "vendor_": "address who receives a markup"
        },
        "returns": {
          "operId": "Identifier to track the Operation lifecycle"
        }
      },
      "redeemTP(address,uint256,uint256)": {
        "params": {
          "qACmin_": "minimum amount of Collateral Asset that sender expects to receive",
          "qTP_": "amount of Pegged Token to redeem",
          "tp_": "Pegged Token address to redeem"
        },
        "returns": {
          "operId": "Identifier to track the Operation lifecycle"
        }
      },
      "redeemTPViaVendor(address,uint256,uint256,address)": {
        "params": {
          "qACmin_": "minimum amount of Collateral Asset that sender expects to receive",
          "qTP_": "amount of Pegged Token to redeem",
          "tp_": "Pegged Token address to redeem",
          "vendor_": "address who receives a markup"
        },
        "returns": {
          "operId": "Identifier to track the Operation lifecycle"
        }
      },
      "redeemTPto(address,uint256,uint256,address)": {
        "params": {
          "qACmin_": "minimum amount of Collateral Asset that `recipient_` expects to receive",
          "qTP_": "amount of Pegged Token to redeem",
          "recipient_": "address who receives the Collateral Asset",
          "tp_": "Pegged Token address to redeem"
        },
        "returns": {
          "operId": "Identifier to track the Operation lifecycle"
        }
      },
      "redeemTPtoViaVendor(address,uint256,uint256,address,address)": {
        "params": {
          "qACmin_": "minimum amount of Collateral Asset that `recipient_` expects to receive",
          "qTP_": "amount of Pegged Token to redeem",
          "recipient_": "address who receives the Collateral Asset",
          "tp_": "Pegged Token address to redeem",
          "vendor_": "address who receives a markup"
        },
        "returns": {
          "operId": "Identifier to track the Operation lifecycle"
        }
      },
      "refreshACBalance()": {
        "details": "Intended to be use as notification after an RC20 AC transfer to this contract"
      },
      "setAppreciationFactor(uint256)": {
        "details": "sets appreciation Factor value.",
        "params": {
          "appreciationFactor_": "pct of the gain because Pegged Tokens devaluation that is returned in Pegged Tokens to appreciation beneficiary during the settlement [PREC]"
        }
      },
      "setBes(uint256)": {
        "details": "bns is not automatically updated, you have to wait until next settlement to be made : bns = block.number + bes*",
        "params": {
          "bes_": "number of blocks between settlements"
        }
      },
      "setDecayBlockSpan(uint256)": {
        "details": "sets flux capacitor decay block span",
        "params": {
          "decayBlockSpan_": "flux capacitor decay block span"
        }
      },
      "setEmaCalculationBlockSpan(uint256)": {
        "details": "nextEmaCalculation is not automatically updated, you have to wait until next  EMA calculation to be made : nextEmaCalculation = block.number + emaCalculationBlockSpan*",
        "params": {
          "blockSpan_": "Defines how many blocks should pass between EMA calculations"
        }
      },
      "setFeeRetainer(uint256)": {
        "details": "sets the fee pct to be retainer on AC fees payments as AC re-injection.",
        "params": {
          "feeRetainer_": "pct retain on fees to be re-injected as Collateral, while paying fees with AC [PREC] 0% = 0; 1% = 10 ** 16; 100% = 10 ** 18"
        }
      },
      "setFeeTokenAddress(address)": {
        "details": "sets Fee Token contract address",
        "params": {
          "mocFeeTokenAddress_": "Fee Token new contract address"
        }
      },
      "setFeeTokenPct(uint256)": {
        "details": "sets the fee applied on the top of the operation`s fee when using Fee Token as fee payment method.",
        "params": {
          "feeTokenPct_": "pct applied on the top of the operation`s fee when using Fee Token  as fee payment method [PREC]  e.g. if tcMintFee = 1%, FeeTokenPct = 50% => qFeeToken = 0.5%  0% = 0; 1% = 10 ** 16; 100% = 10 ** 18"
        }
      },
      "setFeeTokenPriceProviderAddress(address)": {
        "details": "sets Fee Token price provider contract address",
        "params": {
          "mocFeeTokenPriceProviderAddress_": "Fee Token price provider new contract address"
        }
      },
      "setLiqEnabled(bool)": {
        "details": "enables and disables the liquidation mechanism.",
        "params": {
          "liqEnabled_": "is liquidation enabled"
        }
      },
      "setLiqThrld(uint256)": {
        "details": "sets the value of the liq threshold configuration param",
        "params": {
          "liqThrld_": "liquidation threshold"
        }
      },
      "setMaxAbsoluteOpProviderAddress(address)": {
        "details": "sets max absolute operation provider address",
        "params": {
          "maxAbsoluteOpProviderAddress_": "max absolute operation provider address"
        }
      },
      "setMaxOpDiffProviderAddress(address)": {
        "details": "sets max operation difference provider address",
        "params": {
          "maxOpDiffProviderAddress_": "max operation difference provider address"
        }
      },
      "setMintTCandTPFee(uint256)": {
        "details": "sets the fee charged when mint Collateral Token and Pegged Token in one operation.",
        "params": {
          "mintTCandTPFee_": "additional fee pct applied on mint Collateral Token and Pegged Token [PREC] 0% = 0; 1% = 10 ** 16; 100% = 10 ** 18"
        }
      },
      "setMocAppreciationBeneficiaryAddress(address)": {
        "details": "sets Moc Appreciation Beneficiary Address",
        "params": {
          "mocAppreciationBeneficiaryAddress_": "moc Appreciation Beneficiary new address"
        }
      },
      "setMocCoreExpansion(address)": {
        "details": "sets Moc Core Expansion contract address",
        "params": {
          "mocCoreExpansion_": "moc core expansion new contract address"
        }
      },
      "setMocFeeFlowAddress(address)": {
        "details": "sets Moc Fee Flow contract address",
        "params": {
          "mocFeeFlowAddress_": "moc Fee Flow new contract address"
        }
      },
      "setMocQueue(address)": {
        "details": "sets Moc Queue contract address",
        "params": {
          "mocQueueAddress_": "moc queue new contract address"
        }
      },
      "setMocVendors(address)": {
        "details": "sets Moc Vendors contract address",
        "params": {
          "mocVendors_": "moc Vendors new contract address"
        }
      },
      "setPauser(address)": {
        "details": "Should be called through governance",
        "params": {
          "newPauser_": "Address of the new pauser"
        }
      },
      "setProtThrld(uint256)": {
        "details": "sets the value of the protected threshold configuration param",
        "params": {
          "protThrld_": "coverage protected state threshold [PREC]"
        }
      },
      "setRedeemTCandTPFee(uint256)": {
        "details": "sets the fee charged when redeem Collateral Token and Pegged Token in one operation.",
        "params": {
          "redeemTCandTPFee_": "additional fee pct applied on redeem Collateral Token and Pegged Token [PREC] 0% = 0; 1% = 10 ** 16; 100% = 10 ** 18"
        }
      },
      "setSuccessFee(uint256)": {
        "details": "sets success Fee value.",
        "params": {
          "successFee_": "pct of the gain because Pegged Tokens devaluation that is transferred in Collateral Asset to Moc Fee Flow during the settlement [PREC]"
        }
      },
      "setSwapTCforTPFee(uint256)": {
        "details": "sets the fee charged when swap Collateral Token for a Pegged Token.",
        "params": {
          "swapTCforTPFee_": "additional fee pct applied on swap Collateral Token for a Pegged Token [PREC] 0% = 0; 1% = 10 ** 16; 100% = 10 ** 18"
        }
      },
      "setSwapTPforTCFee(uint256)": {
        "details": "sets the fee charged when swap a Pegged Token for Collateral Token.",
        "params": {
          "swapTPforTCFee_": "additional fee pct applied on swap a Pegged Token for Collateral Token [PREC] 0% = 0; 1% = 10 ** 16; 100% = 10 ** 18"
        }
      },
      "setSwapTPforTPFee(uint256)": {
        "details": "sets the fee charged when swap a Pegged Token for another Pegged Token.",
        "params": {
          "swapTPforTPFee_": "additional fee pct applied on swap a Pegged Token for another Pegged Token [PREC] 0% = 0; 1% = 10 ** 16; 100% = 10 ** 18"
        }
      },
      "setTCInterestCollectorAddress(address)": {
        "details": "sets TC interest collector address",
        "params": {
          "tcInterestCollectorAddress_": "TC interest collector address"
        }
      },
      "setTCInterestPaymentBlockSpan(uint256)": {
        "details": "sets TC interest payment block spannextTCInterestPayment is not automatically updated, you have to wait until next  interest payment to be made : nextTCInterestPayment = block.number + tcInterestPaymentBlockSpan",
        "params": {
          "tcInterestPaymentBlockSpan_": "amount of blocks to wait for next TC interest payment"
        }
      },
      "setTCInterestRate(uint256)": {
        "details": "sets TC interest rate",
        "params": {
          "tcInterestRate_": "pct interest charged to TC holders on the total collateral in the protocol [PREC]"
        }
      },
      "setTcMintFee(uint256)": {
        "details": "sets the fee charged on Token Collateral mint.",
        "params": {
          "tcMintFee_": "addition fee pct applied on Collateral Tokens mint [PREC] 0% = 0; 1% = 10 ** 16; 100% = 10 ** 18"
        }
      },
      "setTcRedeemFee(uint256)": {
        "details": "sets the fee charged on Token Collateral redeem.",
        "params": {
          "tcRedeemFee_": "addition fee pct applied on Collateral Tokens redeem [PREC] 0% = 0; 1% = 10 ** 16; 100% = 10 ** 18"
        }
      },
      "swapTCforTP(address,uint256,uint256,uint256)": {
        "params": {
          "qACmax_": "Maximum amount of Collateral Asset that can be spent in fees",
          "qTC_": "Amount of owned Collateral Token to swap",
          "qTPmin_": "Minimum amount of Pegged Token that the sender expects to receive",
          "tp_": "Pegged Token address"
        },
        "returns": {
          "operId": "Identifier to track the Operation lifecycle"
        }
      },
      "swapTCforTPViaVendor(address,uint256,uint256,uint256,address)": {
        "params": {
          "qACmax_": "Maximum amount of Collateral Asset that can be spent in fees",
          "qTC_": "Amount of owned Collateral Token to swap",
          "qTPmin_": "Minimum amount of Pegged Token that the sender expects to receive",
          "tp_": "Pegged Token address",
          "vendor_": "Address who receives a markup"
        },
        "returns": {
          "operId": "Identifier to track the Operation lifecycle"
        }
      },
      "swapTCforTPto(address,uint256,uint256,uint256,address)": {
        "params": {
          "qACmax_": "Maximum amount of Collateral Asset that can be spent in fees",
          "qTC_": "Amount of owned Collateral Token to swap",
          "qTPmin_": "Minimum amount of Pegged Token that `recipient_` expects to receive",
          "recipient_": "Address who receives the Pegged Token",
          "tp_": "Pegged Token address"
        },
        "returns": {
          "operId": "Identifier to track the Operation lifecycle"
        }
      },
      "swapTCforTPtoViaVendor(address,uint256,uint256,uint256,address,address)": {
        "params": {
          "qACmax_": "Maximum amount of Collateral Asset that can be spent in fees",
          "qTC_": "Amount of owned Collateral Token to swap",
          "qTPmin_": "Minimum amount of Pegged Token that `recipient_` expects to receive",
          "recipient_": "Address who receives the Pegged Token",
          "tp_": "Pegged Token address",
          "vendor_": "Address who receives a markup"
        },
        "returns": {
          "operId": "Identifier to track the Operation lifecycle"
        }
      },
      "swapTPforTC(address,uint256,uint256,uint256)": {
        "params": {
          "qACmax_": "maximum amount of Collateral Asset that can be spent in fees",
          "qTCmin_": "minimum amount of Collateral Token that the sender expects to receive",
          "qTP_": "amount of owned Pegged Token to swap",
          "tp_": "Pegged Token address"
        },
        "returns": {
          "operId": "Identifier to track the Operation lifecycle"
        }
      },
      "swapTPforTCViaVendor(address,uint256,uint256,uint256,address)": {
        "params": {
          "qACmax_": "maximum amount of Collateral Asset that can be spent in fees",
          "qTCmin_": "minimum amount of Collateral Token that the sender expects to receive",
          "qTP_": "amount of owned Pegged Token to swap",
          "tp_": "Pegged Token address",
          "vendor_": "address who receives a markup"
        },
        "returns": {
          "operId": "Identifier to track the Operation lifecycle"
        }
      },
      "swapTPforTCto(address,uint256,uint256,uint256,address)": {
        "params": {
          "qACmax_": "maximum amount of Collateral Asset that can be spent in fees",
          "qTCmin_": "minimum amount of Collateral Token that `recipient_` expects to receive",
          "qTP_": "amount of owned Pegged Token to swap",
          "recipient_": "address who receives the Collateral Token",
          "tp_": "Pegged Token address"
        },
        "returns": {
          "operId": "Identifier to track the Operation lifecycle"
        }
      },
      "swapTPforTCtoViaVendor(address,uint256,uint256,uint256,address,address)": {
        "params": {
          "qACmax_": "maximum amount of Collateral Asset that can be spent in fees",
          "qTCmin_": "minimum amount of Collateral Token that `recipient_` expects to receive",
          "qTP_": "amount of owned Pegged Token to swap",
          "recipient_": "address who receives the Collateral Token",
          "tp_": "Pegged Token address",
          "vendor_": "address who receives a markup"
        },
        "returns": {
          "operId": "Identifier to track the Operation lifecycle"
        }
      },
      "swapTPforTP(address,address,uint256,uint256,uint256)": {
        "params": {
          "qACmax_": "maximum amount of Collateral Asset that can be spent in fees",
          "qTP_": "amount of owned Pegged Token to swap",
          "qTPmin_": "minimum amount of target Pegged Token that the sender expects to receive",
          "tpFrom_": "owned Pegged Token address",
          "tpTo_": "target Pegged Token address"
        },
        "returns": {
          "operId": "Identifier to track the Operation lifecycle"
        }
      },
      "swapTPforTPViaVendor(address,address,uint256,uint256,uint256,address)": {
        "params": {
          "qACmax_": "maximum amount of Collateral Asset that can be spent in fees",
          "qTP_": "amount of owned Pegged Token to swap",
          "qTPmin_": "minimum amount of target Pegged Token that the sender expects to receive",
          "tpFrom_": "owned Pegged Token address",
          "tpTo_": "target Pegged Token address",
          "vendor_": "address who receives a markup"
        },
        "returns": {
          "operId": "Identifier to track the Operation lifecycle"
        }
      },
      "swapTPforTPto(address,address,uint256,uint256,uint256,address)": {
        "params": {
          "qACmax_": "maximum amount of Collateral Asset that can be spent in fees",
          "qTP_": "amount of owned Pegged Token to swap",
          "qTPmin_": "minimum amount of target Pegged Token that `recipient_` expects to receive",
          "recipient_": "address who receives the target Pegged Token",
          "tpFrom_": "owned Pegged Token address",
          "tpTo_": "target Pegged Token address"
        },
        "returns": {
          "operId": "Identifier to track the Operation lifecycle"
        }
      },
      "swapTPforTPtoViaVendor(address,address,uint256,uint256,uint256,address,address)": {
        "params": {
          "qACmax_": "maximum amount of Collateral Asset that can be spent in fees",
          "qTP_": "amount of owned Pegged Token to swap",
          "qTPmin_": "minimum amount of target Pegged Token that `recipient_` expects to receive",
          "recipient_": "address who receives the target Pegged Token",
          "tpFrom_": "owned Pegged Token address",
          "tpTo_": "target Pegged Token address",
          "vendor_": "address who receives a markup"
        },
        "returns": {
          "operId": "Identifier to track the Operation lifecycle"
        }
      },
      "tcHoldersInterestPayment()": {
        "details": "-   The amount is not differential, it's a snapshot of the moment it's executed  -   It does not check coverage"
      },
      "unlockACInPending(address,uint256)": {
        "details": "this function must be overridden by the AC implementation",
        "params": {
          "owner_": "funds owner, address to be returned to",
          "qACToUnlock_": "AC amount to be unlocked"
        }
      },
      "unlockTCInPending(address,uint256)": {
        "params": {
          "owner_": "funds owner, address to be returned to",
          "qTCToUnlock_": "TC amount to be unlocked"
        }
      },
      "unlockTPInPending(address,address,uint256)": {
        "params": {
          "owner_": "funds owner, address to be returned to",
          "qTPToUnlock_": "TP amount to be unlocked",
          "tpToken_": "TP to be unlocked"
        }
      },
      "updateEmas()": {
        "details": "All price provider prices must be available, fails if not"
      },
      "upgradeTo(address)": {
        "custom:oz-upgrades-unsafe-allow-reachable": "delegatecall",
        "details": "Upgrade the implementation of the proxy to `newImplementation`. Calls {_authorizeUpgrade}. Emits an {Upgraded} event."
      },
      "upgradeToAndCall(address,bytes)": {
        "custom:oz-upgrades-unsafe-allow-reachable": "delegatecall",
        "details": "Upgrade the implementation of the proxy to `newImplementation`, and subsequently execute the function call encoded in `data`. Calls {_authorizeUpgrade}. Emits an {Upgraded} event."
      }
    },
    "stateVariables": {
      "__gap": {
        "details": "This empty reserved space is put in place to allow future versions to add new variables without shifting down storage in the inheritance chain. See https://docs.openzeppelin.com/contracts/4.x/upgradeable#storage_gaps"
      }
    },
    "title": "MocCARC20: Moc Collateral Asset RC20",
    "version": 1
  },
  "evm": {
    "bytecode": {
      "linkReferences": {},
      "opcodes": "PUSH1 0xA0 DUP1 PUSH1 0x40 MSTORE CALLVALUE PUSH3 0xE1 JUMPI ADDRESS PUSH1 0x80 MSTORE PUSH1 0x0 SLOAD SWAP1 PUSH1 0xFF DUP3 PUSH1 0x8 SHR AND PUSH3 0x8F JUMPI POP PUSH1 0xFF DUP1 DUP3 AND SUB PUSH3 0x53 JUMPI JUMPDEST PUSH1 0x40 MLOAD PUSH2 0x5D5A SWAP1 DUP2 PUSH3 0xE7 DUP3 CODECOPY PUSH1 0x80 MLOAD DUP2 DUP2 DUP2 PUSH2 0x2846 ADD MSTORE DUP2 DUP2 PUSH2 0x29B5 ADD MSTORE PUSH2 0x2F2C ADD MSTORE RETURN JUMPDEST PUSH1 0xFF SWAP1 DUP2 NOT AND OR PUSH1 0x0 SSTORE PUSH32 0x7F26B83FF96E1F2B6A682F133852F6798A09C465DA95921460CEFB3847402498 PUSH1 0x20 PUSH1 0x40 MLOAD PUSH1 0xFF DUP2 MSTORE LOG1 CODESIZE PUSH3 0x2C JUMP JUMPDEST PUSH3 0x461BCD PUSH1 0xE5 SHL DUP2 MSTORE PUSH1 0x20 PUSH1 0x4 DUP3 ADD MSTORE PUSH1 0x27 PUSH1 0x24 DUP3 ADD MSTORE PUSH32 0x496E697469616C697A61626C653A20636F6E747261637420697320696E697469 PUSH1 0x44 DUP3 ADD MSTORE PUSH7 0x616C697A696E67 PUSH1 0xC8 SHL PUSH1 0x64 DUP3 ADD MSTORE PUSH1 0x84 SWAP1 REVERT JUMPDEST PUSH1 0x0 DUP1 REVERT INVALID PUSH1 0x40 PUSH1 0x80 DUP2 MSTORE PUSH1 0x4 CALLDATASIZE LT ISZERO PUSH2 0x13 JUMPI PUSH1 0x0 DUP1 REVERT JUMPDEST PUSH1 0x0 PUSH1 0xE0 SWAP1 DUP1 CALLDATALOAD DUP3 SHR SWAP2 DUP3 PUSH4 0x1DDE6EF EQ PUSH2 0x37C6 JUMPI DUP3 PUSH4 0x1F1B684 EQ PUSH2 0x377F JUMPI DUP3 PUSH4 0x579188F EQ PUSH2 0x36E6 JUMPI DUP3 PUSH4 0x73763B9 EQ PUSH2 0x36C2 JUMPI DUP3 PUSH4 0xBB7F608 EQ PUSH2 0x36A3 JUMPI DUP3 PUSH4 0xC340A24 EQ PUSH2 0x367A JUMPI DUP3 PUSH4 0xC36D897 EQ PUSH2 0x365A JUMPI DUP3 PUSH4 0xD6AC463 EQ PUSH2 0x3614 JUMPI DUP3 PUSH4 0xDB49656 EQ PUSH2 0x35F4 JUMPI DUP3 PUSH4 0xE0A8FD2 EQ PUSH2 0x35D0 JUMPI DUP3 PUSH4 0xF1E5E2B EQ PUSH2 0x358A JUMPI DUP3 PUSH4 0x13ED7BA5 EQ PUSH2 0x3560 JUMPI DUP3 PUSH4 0x15266E36 EQ PUSH2 0x3543 JUMPI DUP3 PUSH4 0x17937F9B EQ PUSH2 0x350C JUMPI DUP3 PUSH4 0x1867E2F5 EQ PUSH2 0x34EC JUMPI DUP3 PUSH4 0x1FB0DDA0 EQ PUSH2 0x34C3 JUMPI DUP3 PUSH4 0x1FE6A7AD EQ PUSH2 0x3489 JUMPI DUP3 PUSH4 0x2069F753 EQ PUSH2 0x3465 JUMPI DUP3 PUSH4 0x235E81CF EQ PUSH2 0x3273 JUMPI DUP3 PUSH4 0x23B98CDE EQ PUSH2 0x324B JUMPI DUP3 PUSH4 0x24FFABA3 EQ PUSH2 0x320E JUMPI DUP3 PUSH4 0x25BC6C41 EQ PUSH2 0x31E4 JUMPI DUP3 PUSH4 0x27EAB2A1 EQ PUSH2 0x319E JUMPI DUP3 PUSH4 0x2A20D57D EQ PUSH2 0x317E JUMPI DUP3 PUSH4 0x2B764FAD EQ PUSH2 0x3161 JUMPI DUP3 PUSH4 0x2C43BD3B EQ PUSH2 0x313D JUMPI DUP3 PUSH4 0x2D88AF4A EQ PUSH2 0x30E6 JUMPI DUP3 PUSH4 0x2DED50F0 EQ PUSH2 0x30C6 JUMPI DUP3 PUSH4 0x333431FD EQ PUSH2 0x30A6 JUMPI DUP3 PUSH4 0x33421C38 EQ PUSH2 0x2FAB JUMPI DUP3 PUSH4 0x34246862 EQ PUSH2 0x2F91 JUMPI DUP3 PUSH4 0x3659CFE6 EQ PUSH2 0x2EF7 JUMPI DUP3 PUSH4 0x3915EDCB EQ PUSH2 0x2EC6 JUMPI DUP3 PUSH4 0x391BF6CF EQ PUSH2 0x2DAE JUMPI DUP3 PUSH4 0x3BC4AC0A EQ PUSH2 0x2D8A JUMPI DUP3 PUSH4 0x3CFB09EF EQ PUSH2 0x2D44 JUMPI DUP3 PUSH4 0x3DBC50A9 EQ PUSH2 0x2D2A JUMPI DUP3 PUSH4 0x3F4BA83A EQ PUSH2 0x2CAF JUMPI DUP3 PUSH4 0x4017936A EQ PUSH2 0x2C7E JUMPI DUP3 PUSH4 0x407F0E34 EQ PUSH2 0x2C5E JUMPI DUP3 PUSH4 0x4310ADC6 EQ PUSH2 0x2C2B JUMPI DUP3 PUSH4 0x44719EE9 EQ PUSH2 0x2BF4 JUMPI DUP3 PUSH4 0x466B8934 EQ PUSH2 0x2BBD JUMPI DUP3 PUSH4 0x471A80E3 EQ PUSH2 0x2B8A JUMPI DUP3 PUSH4 0x484AD7CD EQ PUSH2 0x2B53 JUMPI DUP3 PUSH4 0x4AF3A6FC EQ PUSH2 0x2AD4 JUMPI DUP3 PUSH4 0x4B746001 EQ PUSH2 0x2A8A JUMPI DUP3 PUSH4 0x4D977E78 EQ PUSH2 0x2A6A JUMPI DUP3 PUSH4 0x4E1F907A EQ PUSH2 0x2A40 JUMPI DUP3 PUSH4 0x4F0F27EE EQ PUSH2 0x2A20 JUMPI DUP3 PUSH4 0x4F1EF286 EQ PUSH2 0x292C JUMPI DUP3 PUSH4 0x5210570C EQ PUSH2 0x2906 JUMPI DUP3 PUSH4 0x52D1902D EQ PUSH2 0x2831 JUMPI DUP3 PUSH4 0x52E18F8F EQ PUSH2 0x2816 JUMPI DUP3 PUSH4 0x533A4BEA EQ PUSH2 0x27E5 JUMPI DUP3 PUSH4 0x53B16D17 EQ PUSH2 0x27A0 JUMPI DUP3 PUSH4 0x543AEB48 EQ PUSH2 0x277C JUMPI DUP3 PUSH4 0x5860EE63 EQ PUSH2 0x275C JUMPI DUP3 PUSH4 0x58F32DE9 EQ PUSH2 0x2714 JUMPI DUP3 PUSH4 0x5C616A73 EQ PUSH2 0x2519 JUMPI DUP3 PUSH4 0x5C975ABB EQ PUSH2 0x24F2 JUMPI DUP3 PUSH4 0x5CFBE578 EQ PUSH2 0x24D2 JUMPI DUP3 PUSH4 0x5ECE17EF EQ PUSH2 0x24B5 JUMPI DUP3 PUSH4 0x60009E0B EQ PUSH2 0x248B JUMPI DUP3 PUSH4 0x60A01DFA EQ PUSH2 0x1F43 JUMPI DUP3 PUSH4 0x647846A5 EQ PUSH2 0x1F19 JUMPI DUP3 PUSH4 0x64EC230A EQ PUSH2 0x1EF5 JUMPI DUP3 PUSH4 0x662013F4 EQ PUSH2 0x1ED8 JUMPI DUP3 PUSH4 0x68274357 EQ PUSH2 0x1EAF JUMPI DUP3 PUSH4 0x68F015DF EQ PUSH2 0x1E4F JUMPI DUP3 PUSH4 0x6B5488DF EQ PUSH2 0x1E2F JUMPI DUP3 PUSH4 0x6F30471F EQ PUSH2 0x1E0F JUMPI DUP3 PUSH4 0x70713468 EQ PUSH2 0x1DEB JUMPI DUP3 PUSH4 0x735D3960 EQ PUSH2 0x1DA5 JUMPI DUP3 PUSH4 0x73E28AF9 EQ PUSH2 0x1D81 JUMPI DUP3 PUSH4 0x74873AD3 EQ PUSH2 0x1D64 JUMPI DUP3 PUSH4 0x7554FFFD EQ PUSH2 0x1D44 JUMPI DUP3 PUSH4 0x76228055 EQ PUSH2 0x1D24 JUMPI DUP3 PUSH4 0x7750BA0C EQ PUSH2 0x1D00 JUMPI DUP3 PUSH4 0x79F9A91C EQ PUSH2 0x1CE0 JUMPI DUP3 PUSH4 0x7A193C31 EQ PUSH2 0x1CC0 JUMPI DUP3 PUSH4 0x7A4FF1D9 EQ PUSH2 0x1C9C JUMPI DUP3 PUSH4 0x7A727FE8 EQ PUSH2 0x1C7C JUMPI DUP3 PUSH4 0x7AF5758C EQ PUSH2 0x1C58 JUMPI DUP3 PUSH4 0x7B21B274 EQ PUSH2 0x1C3B JUMPI DUP3 PUSH4 0x7CBA2383 EQ PUSH2 0x1C17 JUMPI DUP3 PUSH4 0x7D8E0314 EQ PUSH2 0x1BD8 JUMPI DUP3 PUSH4 0x7F01C715 EQ PUSH2 0x1BAE JUMPI DUP3 PUSH4 0x7F13B998 EQ PUSH2 0x1B78 JUMPI DUP3 PUSH4 0x7F4A4FE0 EQ PUSH2 0x1B58 JUMPI DUP3 PUSH4 0x826FCD58 EQ PUSH2 0x1B35 JUMPI DUP3 PUSH4 0x842D5748 EQ PUSH2 0x1B1A JUMPI DUP3 PUSH4 0x8456CB59 EQ PUSH2 0x1A85 JUMPI DUP3 PUSH4 0x85BF9593 EQ PUSH2 0x1A3F JUMPI DUP3 PUSH4 0x883D21CB EQ PUSH2 0x197E JUMPI DUP3 PUSH4 0x89FD503E EQ PUSH2 0x1964 JUMPI DUP3 PUSH4 0x8ACC2011 EQ PUSH2 0x194A JUMPI DUP3 PUSH4 0x8CFA4241 EQ PUSH2 0x192A JUMPI DUP3 PUSH4 0x8E2BDB86 EQ PUSH2 0x1900 JUMPI DUP3 PUSH4 0x8F1A383A EQ PUSH2 0x18D8 JUMPI DUP3 PUSH4 0x9853C35A EQ PUSH2 0x18AE JUMPI DUP3 PUSH4 0x98B2086F EQ PUSH2 0x1894 JUMPI DUP3 PUSH4 0x9ABB14C9 EQ PUSH2 0x1875 JUMPI DUP3 PUSH4 0x9AD6659D EQ PUSH2 0x183F JUMPI DUP3 PUSH4 0x9BEA71A4 EQ PUSH2 0x17FD JUMPI DUP3 PUSH4 0x9CABFC00 EQ PUSH2 0x17B1 JUMPI DUP3 PUSH4 0x9FD0506D EQ PUSH2 0x1784 JUMPI DUP3 PUSH4 0x9FD8ED0E EQ PUSH2 0x176A JUMPI DUP3 PUSH4 0xA8E9AC30 EQ PUSH2 0x1747 JUMPI DUP3 PUSH4 0xAAF91EFF EQ PUSH2 0x172A JUMPI DUP3 PUSH4 0xAAF925F6 EQ PUSH2 0x170F JUMPI DUP3 PUSH4 0xAC0C88AB EQ PUSH2 0x16F5 JUMPI DUP3 PUSH4 0xAD4E666D EQ PUSH2 0x1516 JUMPI DUP3 PUSH4 0xAEA038DC EQ PUSH2 0x14F6 JUMPI DUP3 PUSH4 0xAEB41E69 EQ PUSH2 0x14D9 JUMPI DUP3 PUSH4 0xB4434C32 EQ PUSH2 0x131B JUMPI DUP3 PUSH4 0xB5E9EA8C EQ PUSH2 0x12F1 JUMPI DUP3 PUSH4 0xB85EDD65 EQ PUSH2 0x12D7 JUMPI DUP3 PUSH4 0xB9FA6413 EQ PUSH2 0x12B7 JUMPI DUP3 PUSH4 0xBB4872DE EQ PUSH2 0x1293 JUMPI DUP3 PUSH4 0xBC4E55B2 EQ PUSH2 0x11C5 JUMPI DUP3 PUSH4 0xBECACA6B EQ PUSH2 0x11A1 JUMPI DUP3 PUSH4 0xBFE42621 EQ PUSH2 0xFA6 JUMPI DUP3 PUSH4 0xC00F538D EQ PUSH2 0xF82 JUMPI DUP3 PUSH4 0xC039CC69 EQ PUSH2 0xF40 JUMPI DUP3 PUSH4 0xC09C30BD EQ PUSH2 0xEF6 JUMPI DUP3 PUSH4 0xC239FCA4 EQ PUSH2 0xEDB JUMPI DUP3 PUSH4 0xC84353C9 EQ PUSH2 0xEB7 JUMPI DUP3 PUSH4 0xCF351C1D EQ PUSH2 0xE71 JUMPI DUP3 PUSH4 0xD1A0FAA0 EQ PUSH2 0xE58 JUMPI DUP3 PUSH4 0xD6AF11DA EQ PUSH2 0xE1C JUMPI DUP3 PUSH4 0xD76DC7FD EQ PUSH2 0xE02 JUMPI DUP3 PUSH4 0xD87AAB6F EQ PUSH2 0xDE2 JUMPI DUP3 PUSH4 0xD8C69AEC EQ PUSH2 0xCCC JUMPI DUP3 PUSH4 0xD8DB6F5A EQ PUSH2 0xC86 JUMPI DUP3 PUSH4 0xDB796072 EQ PUSH2 0xC49 JUMPI DUP3 PUSH4 0xDDB6D190 EQ PUSH2 0xC0C JUMPI DUP3 PUSH4 0xDE8D520A EQ PUSH2 0xBD9 JUMPI DUP3 PUSH4 0xE23C135C EQ PUSH2 0xBC0 JUMPI DUP3 PUSH4 0xE2C5E990 EQ PUSH2 0xB5F JUMPI DUP3 PUSH4 0xE3867EEB EQ PUSH2 0xB41 JUMPI DUP3 PUSH4 0xE4012945 EQ PUSH2 0xB0E JUMPI DUP3 PUSH4 0xE4C0AAF4 EQ PUSH2 0xAC9 JUMPI DUP3 PUSH4 0xE6A683E0 EQ PUSH2 0xA83 JUMPI DUP3 PUSH4 0xE6B1627C EQ PUSH2 0xA3F JUMPI DUP3 PUSH4 0xE7C25978 EQ PUSH2 0xA1A JUMPI DUP3 PUSH4 0xE8859A15 EQ PUSH2 0x9FD JUMPI DUP3 PUSH4 0xEA302A97 EQ PUSH2 0x9E2 JUMPI DUP3 PUSH4 0xEE1F438F EQ PUSH2 0x9B8 JUMPI DUP3 PUSH4 0xF13F4054 EQ PUSH2 0x98E JUMPI DUP3 PUSH4 0xF26114AA EQ PUSH2 0x929 JUMPI POP DUP2 PUSH4 0xF2808778 EQ PUSH2 0x906 JUMPI DUP2 PUSH4 0xF2F9F456 EQ PUSH2 0x8EC JUMPI DUP2 PUSH4 0xF30B5614 EQ PUSH2 0x8CD JUMPI DUP2 PUSH4 0xF375CFBA EQ PUSH2 0x8AE JUMPI DUP2 PUSH4 0xF88B1434 EQ PUSH2 0x845 JUMPI DUP2 PUSH4 0xFA6E83BD EQ PUSH2 0x826 JUMPI DUP2 PUSH4 0xFADDA424 EQ PUSH2 0x7AF JUMPI DUP2 PUSH4 0xFD80FA77 EQ PUSH2 0x794 JUMPI DUP2 PUSH4 0xFDA70F8B EQ PUSH2 0x771 JUMPI POP DUP1 PUSH4 0xFED0ADE4 EQ PUSH2 0x757 JUMPI PUSH4 0xFFE31539 EQ PUSH2 0x719 JUMPI PUSH1 0x0 DUP1 REVERT JUMPDEST PUSH1 0x60 CALLDATASIZE PUSH1 0x3 NOT ADD SLT PUSH2 0x752 JUMPI PUSH1 0x44 CALLDATALOAD SWAP1 PUSH1 0x1 PUSH1 0x1 PUSH1 0xA0 SHL SUB DUP3 AND DUP3 SUB PUSH2 0x752 JUMPI PUSH2 0x74B PUSH1 0x20 SWAP3 CALLER PUSH1 0x24 CALLDATALOAD PUSH1 0x4 CALLDATALOAD PUSH2 0x4D4A JUMP JUMPDEST SWAP1 MLOAD SWAP1 DUP2 MSTORE RETURN JUMPDEST PUSH1 0x0 DUP1 REVERT JUMPDEST PUSH1 0x20 DUP3 PUSH2 0x74B PUSH2 0x768 CALLDATASIZE PUSH1 0x4 PUSH2 0x3916 JUMP JUMPDEST SWAP3 SWAP2 SWAP1 SWAP2 PUSH2 0x4D4A JUMP JUMPDEST DUP3 CALLVALUE PUSH2 0x790 JUMPI DUP2 PUSH1 0x3 NOT CALLDATASIZE ADD SLT PUSH2 0x790 JUMPI PUSH1 0x20 SWAP1 PUSH2 0x13C SLOAD SWAP1 MLOAD SWAP1 DUP2 MSTORE RETURN JUMPDEST POP DUP1 REVERT JUMPDEST DUP3 PUSH2 0x74B PUSH1 0x20 SWAP3 PUSH2 0x7A6 CALLDATASIZE PUSH1 0x4 PUSH2 0x39D9 JUMP JUMPDEST SWAP4 SWAP3 SWAP1 SWAP3 PUSH2 0x54DF JUMP JUMPDEST SWAP1 POP CALLVALUE PUSH2 0x823 JUMPI PUSH1 0x20 CALLDATASIZE PUSH1 0x3 NOT ADD SLT PUSH2 0x823 JUMPI POP PUSH1 0x1 PUSH1 0x1 PUSH1 0xA0 SHL SUB PUSH1 0x4 CALLDATALOAD DUP2 DUP2 AND DUP2 SUB PUSH2 0x752 JUMPI PUSH2 0x7ED PUSH2 0x7E5 PUSH1 0x1 SWAP3 PUSH2 0x4464 JUMP JUMPDEST PUSH2 0x137 PUSH2 0x393C JUMP JUMPDEST POP ADD SLOAD AND PUSH2 0x7FA DUP2 PUSH2 0x4500 JUMP JUMPDEST SWAP2 SWAP1 SWAP2 ISZERO PUSH2 0x80C JUMPI POP PUSH1 0x20 SWAP2 MLOAD SWAP1 DUP2 MSTORE RETURN JUMPDEST PUSH1 0x24 SWAP1 DUP4 MLOAD SWAP1 PUSH4 0x7F6E4DB9 PUSH1 0xE0 SHL DUP3 MSTORE PUSH1 0x4 DUP3 ADD MSTORE REVERT JUMPDEST DUP1 REVERT JUMPDEST DUP3 CALLVALUE PUSH2 0x790 JUMPI DUP2 PUSH1 0x3 NOT CALLDATASIZE ADD SLT PUSH2 0x790 JUMPI PUSH1 0x20 SWAP1 PUSH2 0x13A SLOAD SWAP1 MLOAD SWAP1 DUP2 MSTORE RETURN JUMPDEST SWAP1 POP CALLVALUE PUSH2 0x823 JUMPI PUSH1 0x20 CALLDATASIZE PUSH1 0x3 NOT ADD SLT PUSH2 0x823 JUMPI POP PUSH1 0x4 CALLDATALOAD SWAP1 PUSH1 0x1 PUSH1 0x1 PUSH1 0xA0 SHL SUB DUP3 AND DUP3 SUB PUSH2 0x752 JUMPI PUSH2 0x74B PUSH2 0x8A0 PUSH1 0x20 SWAP4 PUSH2 0x889 PUSH2 0x881 PUSH2 0x4BF3 JUMP JUMPDEST SWAP2 SWAP1 SWAP3 PUSH2 0x4464 JUMP JUMPDEST SWAP2 PUSH2 0x8A8 PUSH2 0x897 DUP5 DUP5 PUSH2 0x4163 JUMP JUMPDEST MLOAD SWAP5 DUP6 SWAP4 PUSH2 0x4177 JUMP JUMPDEST SWAP6 SWAP1 SWAP5 PUSH2 0x4B50 JUMP JUMPDEST SWAP1 PUSH2 0x4A4D JUMP JUMPDEST DUP3 CALLVALUE PUSH2 0x790 JUMPI DUP2 PUSH1 0x3 NOT CALLDATASIZE ADD SLT PUSH2 0x790 JUMPI PUSH1 0x20 SWAP1 PUSH2 0x141 SLOAD SWAP1 MLOAD SWAP1 DUP2 MSTORE RETURN JUMPDEST DUP3 CALLVALUE PUSH2 0x790 JUMPI DUP2 PUSH1 0x3 NOT CALLDATASIZE ADD SLT PUSH2 0x790 JUMPI PUSH1 0x20 SWAP1 PUSH2 0x131 SLOAD SWAP1 MLOAD SWAP1 DUP2 MSTORE RETURN JUMPDEST PUSH1 0x20 DUP4 PUSH2 0x74B PUSH2 0x8FD CALLDATASIZE PUSH1 0x4 PUSH2 0x39AC JUMP JUMPDEST SWAP3 SWAP2 CALLER SWAP3 PUSH2 0x4EC5 JUMP JUMPDEST CALLVALUE PUSH2 0x823 JUMPI PUSH1 0x20 CALLDATASIZE PUSH1 0x3 NOT ADD SLT PUSH2 0x823 JUMPI PUSH2 0x91F PUSH2 0x5C2F JUMP JUMPDEST PUSH1 0x4 CALLDATALOAD PUSH2 0x13C SSTORE DUP1 RETURN JUMPDEST DUP4 SWAP1 CALLVALUE PUSH2 0x98A JUMPI CALLDATASIZE PUSH1 0x3 NOT ADD SLT PUSH2 0x790 JUMPI PUSH2 0x986 SWAP1 PUSH2 0x946 PUSH2 0x5C2F JUMP JUMPDEST MLOAD PUSH4 0x79308A55 PUSH1 0xE1 SHL PUSH1 0x20 DUP3 ADD MSTORE PUSH2 0x974 DUP2 PUSH2 0x966 PUSH1 0x4 PUSH1 0x24 DUP4 ADD PUSH2 0x4959 JUMP JUMPDEST SUB PUSH1 0x1F NOT DUP2 ADD DUP4 MSTORE DUP3 PUSH2 0x3958 JUMP JUMPDEST PUSH2 0x1F6 SLOAD PUSH1 0x1 PUSH1 0x1 PUSH1 0xA0 SHL SUB AND PUSH2 0x4826 JUMP JUMPDEST POP DUP1 RETURN JUMPDEST DUP3 DUP1 REVERT JUMPDEST POP DUP3 CALLVALUE PUSH2 0x790 JUMPI DUP2 PUSH1 0x3 NOT CALLDATASIZE ADD SLT PUSH2 0x790 JUMPI PUSH2 0x130 SLOAD SWAP1 MLOAD PUSH1 0x1 PUSH1 0x1 PUSH1 0xA0 SHL SUB SWAP1 SWAP2 AND DUP2 MSTORE PUSH1 0x20 SWAP1 RETURN JUMPDEST POP DUP3 CALLVALUE PUSH2 0x790 JUMPI DUP2 PUSH1 0x3 NOT CALLDATASIZE ADD SLT PUSH2 0x790 JUMPI PUSH2 0x152 SLOAD SWAP1 MLOAD PUSH1 0x1 PUSH1 0x1 PUSH1 0xA0 SHL SUB SWAP1 SWAP2 AND DUP2 MSTORE PUSH1 0x20 SWAP1 RETURN JUMPDEST PUSH1 0x20 DUP5 PUSH2 0x74B DUP5 PUSH2 0x9F4 CALLDATASIZE PUSH1 0x4 PUSH2 0x39D9 JUMP JUMPDEST SWAP4 SWAP3 SWAP1 SWAP3 PUSH2 0x5145 JUMP JUMPDEST POP DUP3 CALLVALUE PUSH2 0x790 JUMPI DUP2 PUSH1 0x3 NOT CALLDATASIZE ADD SLT PUSH2 0x790 JUMPI PUSH1 0x20 SWAP1 PUSH2 0x74B PUSH2 0x4B13 JUMP JUMPDEST POP DUP3 CALLVALUE PUSH2 0x790 JUMPI DUP2 PUSH1 0x3 NOT CALLDATASIZE ADD SLT PUSH2 0x790 JUMPI PUSH1 0x20 SWAP1 PUSH1 0xFF PUSH2 0x14B SLOAD AND SWAP1 MLOAD SWAP1 ISZERO ISZERO DUP2 MSTORE RETURN JUMPDEST POP DUP3 CALLVALUE PUSH2 0x790 JUMPI PUSH1 0x20 CALLDATASIZE PUSH1 0x3 NOT ADD SLT PUSH2 0x790 JUMPI PUSH1 0x4 CALLDATALOAD PUSH2 0x18E DUP1 SLOAD DUP3 LT ISZERO PUSH2 0xA7F JUMPI SWAP1 PUSH2 0xA6B SWAP2 PUSH2 0x393C JUMP JUMPDEST POP PUSH1 0x1 DUP2 SLOAD SWAP2 ADD SLOAD DUP3 MLOAD SWAP2 DUP3 MSTORE PUSH1 0x20 DUP3 ADD MSTORE RETURN JUMPDEST DUP4 DUP1 REVERT JUMPDEST POP CALLVALUE PUSH2 0x823 JUMPI PUSH1 0x20 CALLDATASIZE PUSH1 0x3 NOT ADD SLT PUSH2 0x823 JUMPI PUSH1 0x4 CALLDATALOAD PUSH1 0x1 PUSH1 0x1 PUSH1 0xA0 SHL SUB DUP2 AND SWAP1 DUP2 SWAP1 SUB PUSH2 0x752 JUMPI PUSH2 0xAB2 PUSH2 0x5C2F JUMP JUMPDEST PUSH2 0x1F6 DUP1 SLOAD PUSH1 0x1 PUSH1 0x1 PUSH1 0xA0 SHL SUB NOT AND SWAP1 SWAP2 OR SWAP1 SSTORE DUP1 RETURN JUMPDEST POP CALLVALUE PUSH2 0x823 JUMPI PUSH1 0x20 CALLDATASIZE PUSH1 0x3 NOT ADD SLT PUSH2 0x823 JUMPI PUSH1 0x4 CALLDATALOAD PUSH1 0x1 PUSH1 0x1 PUSH1 0xA0 SHL SUB DUP2 AND SWAP1 DUP2 SWAP1 SUB PUSH2 0x790 JUMPI PUSH2 0xAF8 PUSH2 0x5C2F JUMP JUMPDEST PUSH1 0x1 PUSH1 0x1 PUSH1 0x60 SHL SUB PUSH1 0xA0 SHL PUSH1 0x97 SLOAD AND OR PUSH1 0x97 SSTORE DUP1 RETURN JUMPDEST POP DUP3 PUSH1 0x60 CALLDATASIZE PUSH1 0x3 NOT ADD SLT PUSH2 0x752 JUMPI PUSH1 0x44 CALLDATALOAD PUSH1 0x1 PUSH1 0x1 PUSH1 0xA0 SHL SUB DUP2 AND DUP2 SUB PUSH2 0x752 JUMPI PUSH1 0x20 SWAP3 PUSH2 0x74B SWAP2 PUSH1 0x24 CALLDATALOAD PUSH1 0x4 CALLDATALOAD PUSH2 0x531D JUMP JUMPDEST PUSH1 0x20 DUP5 PUSH2 0x74B DUP5 PUSH2 0xB53 CALLDATASIZE PUSH1 0x4 PUSH2 0x3A0B JUMP JUMPDEST SWAP5 SWAP4 SWAP1 SWAP4 SWAP3 SWAP2 SWAP3 PUSH2 0x4FF8 JUMP JUMPDEST DUP4 DUP3 CALLVALUE PUSH2 0x823 JUMPI PUSH1 0x60 CALLDATASIZE PUSH1 0x3 NOT ADD SLT PUSH2 0x823 JUMPI PUSH1 0x1 PUSH1 0x1 PUSH1 0xA0 SHL SUB PUSH1 0x4 CALLDATALOAD DUP2 DUP2 AND DUP2 SUB PUSH2 0x752 JUMPI PUSH1 0x24 CALLDATALOAD SWAP2 DUP1 DUP4 AND DUP4 SUB PUSH2 0xA7F JUMPI PUSH2 0x14F SLOAD AND CALLER SUB PUSH2 0xBAF JUMPI SWAP1 PUSH2 0xBAC SWAP2 PUSH1 0x44 CALLDATALOAD SWAP2 PUSH2 0x5BF6 JUMP JUMPDEST DUP1 RETURN JUMPDEST DUP4 MLOAD PUSH4 0x19748477 PUSH1 0xE0 SHL DUP2 MSTORE PUSH1 0x4 SWAP1 REVERT JUMPDEST POP CALLVALUE PUSH2 0x823 JUMPI DUP1 PUSH1 0x3 NOT CALLDATASIZE ADD SLT PUSH2 0x823 JUMPI PUSH2 0xBAC PUSH2 0x409E JUMP JUMPDEST POP DUP3 CALLVALUE PUSH2 0x790 JUMPI DUP2 PUSH1 0x3 NOT CALLDATASIZE ADD SLT PUSH2 0x790 JUMPI PUSH1 0x20 SWAP1 PUSH2 0x74B PUSH2 0xC01 PUSH2 0xBFC PUSH2 0x4566 JUMP JUMPDEST PUSH2 0x4177 JUMP JUMPDEST SWAP1 POP PUSH2 0x131 SLOAD PUSH2 0x407B JUMP JUMPDEST POP DUP3 CALLVALUE PUSH2 0x790 JUMPI PUSH1 0x20 CALLDATASIZE PUSH1 0x3 NOT ADD SLT PUSH2 0x790 JUMPI PUSH1 0x4 CALLDATALOAD PUSH1 0x1 PUSH1 0x1 PUSH1 0xA0 SHL SUB DUP2 AND SWAP1 DUP2 SWAP1 SUB PUSH2 0x752 JUMPI DUP3 DUP3 SWAP2 PUSH1 0x20 SWAP5 MSTORE PUSH2 0x145 DUP5 MSTORE KECCAK256 SLOAD SWAP1 MLOAD SWAP1 DUP2 MSTORE RETURN JUMPDEST DUP4 SWAP1 CALLVALUE PUSH2 0x98A JUMPI CALLDATASIZE PUSH1 0x3 NOT ADD SLT PUSH2 0x790 JUMPI PUSH2 0x986 SWAP1 PUSH2 0xC66 PUSH2 0x5C2F JUMP JUMPDEST MLOAD PUSH4 0x6DBCB039 PUSH1 0xE1 SHL PUSH1 0x20 DUP3 ADD MSTORE PUSH2 0x974 DUP2 PUSH2 0x966 PUSH1 0x4 PUSH1 0x24 DUP4 ADD PUSH2 0x4959 JUMP JUMPDEST POP CALLVALUE PUSH2 0x823 JUMPI PUSH1 0x20 CALLDATASIZE PUSH1 0x3 NOT ADD SLT PUSH2 0x823 JUMPI PUSH1 0x4 CALLDATALOAD PUSH1 0x1 PUSH1 0x1 PUSH1 0xA0 SHL SUB DUP2 AND SWAP1 DUP2 SWAP1 SUB PUSH2 0x752 JUMPI PUSH2 0xCB5 PUSH2 0x5C2F JUMP JUMPDEST PUSH2 0x152 DUP1 SLOAD PUSH1 0x1 PUSH1 0x1 PUSH1 0xA0 SHL SUB NOT AND SWAP1 SWAP2 OR SWAP1 SSTORE DUP1 RETURN JUMPDEST SWAP1 SWAP2 POP CALLVALUE PUSH2 0x790 JUMPI CALLDATASIZE PUSH1 0x3 NOT ADD SLT PUSH2 0x823 JUMPI POP PUSH2 0xCE7 PUSH2 0x55CA JUMP JUMPDEST POP PUSH2 0x14F SLOAD PUSH1 0x1 PUSH1 0x1 PUSH1 0xA0 SHL SUB SWAP2 SWAP1 DUP3 AND CALLER SUB PUSH2 0xDD2 JUMPI PUSH2 0xD97 SWAP2 PUSH2 0xD0D CALLDATASIZE PUSH1 0x4 PUSH2 0x5B83 JUMP JUMPDEST SWAP2 PUSH2 0xD16 PUSH2 0x55CA JUMP JUMPDEST POP PUSH2 0xD1F PUSH2 0x4EA3 JUMP JUMPDEST PUSH2 0xD27 PUSH2 0x5CBD JUMP JUMPDEST PUSH2 0xD73 PUSH2 0xD64 DUP3 MLOAD PUSH4 0x3DAD0BD7 PUSH1 0xE1 SHL PUSH1 0x20 DUP3 ADD MSTORE PUSH2 0xD49 PUSH1 0x24 DUP3 ADD DUP8 PUSH2 0x51EB JUMP JUMPDEST PUSH1 0xE4 DUP2 MSTORE PUSH2 0xD59 PUSH2 0x104 DUP3 PUSH2 0x3958 JUMP JUMPDEST DUP5 PUSH2 0x1F6 SLOAD AND PUSH2 0x4826 JUMP JUMPDEST PUSH1 0x20 DUP1 DUP3 MLOAD DUP4 ADD ADD SWAP2 ADD PUSH2 0x5B28 JUMP JUMPDEST DUP7 DUP5 DUP8 PUSH1 0x80 DUP5 SWAP9 SWAP7 SWAP12 SWAP6 SWAP8 SWAP11 ADD MLOAD AND SWAP2 DUP9 PUSH1 0xC0 DUP2 PUSH1 0xA0 DUP5 ADD MLOAD AND SWAP3 ADD MLOAD AND SWAP3 PUSH2 0x5934 JUMP JUMPDEST PUSH1 0x4 CALLDATALOAD SWAP4 DUP1 DUP6 AND DUP1 SWAP6 SUB PUSH2 0x752 JUMPI PUSH1 0x84 CALLDATALOAD SWAP1 DUP2 AND DUP2 SUB PUSH2 0x752 JUMPI PUSH2 0xDCE SWAP5 PUSH2 0xDC4 SWAP2 DUP9 PUSH1 0x44 CALLDATALOAD SUB SWAP2 PUSH2 0x5BF6 JUMP JUMPDEST MLOAD SWAP5 DUP6 SWAP5 DUP6 PUSH2 0x38D6 JUMP JUMPDEST SUB SWAP1 RETURN JUMPDEST MLOAD PUSH4 0x19748477 PUSH1 0xE0 SHL DUP2 MSTORE PUSH1 0x4 SWAP1 REVERT JUMPDEST POP DUP3 CALLVALUE PUSH2 0x790 JUMPI DUP2 PUSH1 0x3 NOT CALLDATASIZE ADD SLT PUSH2 0x790 JUMPI PUSH1 0x20 SWAP1 PUSH2 0x155 SLOAD SWAP1 MLOAD SWAP1 DUP2 MSTORE RETURN JUMPDEST PUSH1 0x20 DUP5 PUSH2 0x74B PUSH2 0xE13 CALLDATASIZE PUSH1 0x4 PUSH2 0x3A4B JUMP JUMPDEST SWAP4 SWAP3 SWAP1 SWAP3 PUSH2 0x4F7F JUMP JUMPDEST POP DUP3 CALLVALUE PUSH2 0x790 JUMPI DUP2 PUSH1 0x3 NOT CALLDATASIZE ADD SLT PUSH2 0x790 JUMPI PUSH1 0x20 SWAP1 PUSH2 0x74B PUSH2 0xE3E PUSH1 0x1 PUSH2 0x45A0 JUMP JUMPDEST PUSH2 0xE52 PUSH2 0xE4B DUP3 DUP5 PUSH2 0x42BB JUMP JUMPDEST SWAP2 DUP4 PUSH2 0x4205 JUMP JUMPDEST SWAP2 PUSH2 0x45E7 JUMP JUMPDEST POP CALLVALUE PUSH2 0x823 JUMPI DUP1 PUSH1 0x3 NOT CALLDATASIZE ADD SLT PUSH2 0x823 JUMPI PUSH2 0xBAC PUSH2 0x4CB6 JUMP JUMPDEST POP CALLVALUE PUSH2 0x823 JUMPI PUSH1 0x20 CALLDATASIZE PUSH1 0x3 NOT ADD SLT PUSH2 0x823 JUMPI PUSH1 0x4 CALLDATALOAD PUSH1 0x1 PUSH1 0x1 PUSH1 0xA0 SHL SUB DUP2 AND SWAP1 DUP2 SWAP1 SUB PUSH2 0x752 JUMPI PUSH2 0xEA0 PUSH2 0x5C2F JUMP JUMPDEST PUSH2 0x12F DUP1 SLOAD PUSH1 0x1 PUSH1 0x1 PUSH1 0xA0 SHL SUB NOT AND SWAP1 SWAP2 OR SWAP1 SSTORE DUP1 RETURN JUMPDEST POP CALLVALUE PUSH2 0x823 JUMPI PUSH1 0x20 CALLDATASIZE PUSH1 0x3 NOT ADD SLT PUSH2 0x823 JUMPI PUSH2 0xED1 PUSH2 0x5C2F JUMP JUMPDEST PUSH1 0x4 CALLDATALOAD PUSH2 0x14C SSTORE DUP1 RETURN JUMPDEST PUSH1 0x20 DUP5 PUSH2 0x74B DUP5 PUSH2 0xEED CALLDATASIZE PUSH1 0x4 PUSH2 0x39AC JUMP JUMPDEST SWAP3 SWAP2 SWAP1 SWAP2 PUSH2 0x4F7F JUMP JUMPDEST POP DUP3 PUSH1 0xA0 CALLDATASIZE PUSH1 0x3 NOT ADD SLT PUSH2 0x790 JUMPI PUSH1 0x1 PUSH1 0x1 PUSH1 0xA0 SHL SUB SWAP2 PUSH1 0x4 CALLDATALOAD SWAP1 DUP4 DUP3 AND DUP3 SUB PUSH2 0x752 JUMPI PUSH1 0x24 CALLDATALOAD SWAP4 DUP5 AND DUP5 SUB PUSH2 0x752 JUMPI PUSH1 0x20 SWAP4 PUSH2 0x74B SWAP3 CALLER SWAP2 PUSH1 0x84 CALLDATALOAD SWAP2 PUSH1 0x64 CALLDATALOAD SWAP2 PUSH1 0x44 CALLDATALOAD SWAP2 PUSH2 0x4FF8 JUMP JUMPDEST POP DUP3 CALLVALUE PUSH2 0x790 JUMPI DUP2 PUSH1 0x3 NOT CALLDATASIZE ADD SLT PUSH2 0x790 JUMPI PUSH1 0x20 SWAP1 PUSH2 0x74B PUSH2 0xF75 PUSH2 0xF7C PUSH2 0xF69 PUSH2 0xBFC PUSH2 0x4566 JUMP JUMPDEST PUSH2 0x131 SWAP4 SWAP2 SWAP4 SLOAD PUSH2 0x407B JUMP JUMPDEST SWAP2 DUP3 PUSH2 0x407B JUMP JUMPDEST SWAP1 PUSH2 0x5CDE JUMP JUMPDEST POP CALLVALUE PUSH2 0x823 JUMPI PUSH1 0x20 CALLDATASIZE PUSH1 0x3 NOT ADD SLT PUSH2 0x823 JUMPI PUSH2 0xF9C PUSH2 0x5C2F JUMP JUMPDEST PUSH1 0x4 CALLDATALOAD PUSH2 0x13D SSTORE DUP1 RETURN JUMPDEST DUP4 DUP3 CALLVALUE PUSH2 0x823 JUMPI PUSH1 0xA0 CALLDATASIZE PUSH1 0x3 NOT ADD SLT PUSH2 0x823 JUMPI PUSH2 0xFC1 PUSH2 0x55CA JUMP JUMPDEST POP PUSH2 0x14F SLOAD PUSH1 0x1 PUSH1 0x1 PUSH1 0xA0 SHL SUB SWAP1 DUP2 AND CALLER SUB PUSH2 0x1190 JUMPI PUSH2 0xFE2 CALLDATASIZE PUSH1 0x4 PUSH2 0x55F1 JUMP JUMPDEST SWAP2 PUSH2 0xFEB PUSH2 0x55CA JUMP JUMPDEST POP PUSH2 0xFF4 PUSH2 0x4EA3 JUMP JUMPDEST PUSH2 0xFFC PUSH2 0x5CBD JUMP JUMPDEST PUSH2 0x1004 PUSH2 0x4CB6 JUMP JUMPDEST PUSH2 0x1017 PUSH2 0x100F PUSH2 0x4BF3 JUMP JUMPDEST DUP2 SWAP3 SWAP2 PUSH2 0x564E JUMP JUMPDEST SWAP1 SWAP2 PUSH2 0x1026 DUP3 DUP5 DUP9 MLOAD SWAP4 PUSH2 0x49EE JUMP JUMPDEST DUP2 DUP2 LT PUSH2 0x1173 JUMPI POP POP PUSH8 0xDE0B6B3A7640000 SWAP2 PUSH2 0x1048 PUSH2 0x104E SWAP3 DUP8 MLOAD SWAP3 PUSH2 0x49BA JUMP JUMPDEST SWAP1 PUSH2 0x4288 JUMP JUMPDEST DIV SWAP2 DUP3 ISZERO PUSH2 0x1162 JUMPI SWAP4 DUP4 SWAP5 DUP2 PUSH2 0x1087 SWAP6 ADD SWAP1 DUP1 DUP3 MLOAD AND SWAP2 PUSH2 0x107C PUSH1 0x80 DUP10 ADD SWAP4 DUP8 DUP5 DUP7 MLOAD AND PUSH2 0x13D SLOAD SWAP3 PUSH2 0x5691 JUMP JUMPDEST SWAP7 SWAP2 DUP9 SWAP10 SWAP2 SWAP10 PUSH2 0x407B JUMP JUMPDEST SWAP7 PUSH1 0x20 DUP11 ADD MLOAD DUP1 DUP10 LT PUSH2 0x1145 JUMPI POP DUP10 MLOAD SWAP1 PUSH2 0x134 PUSH2 0x10A6 DUP4 DUP3 SLOAD PUSH2 0x407B JUMP JUMPDEST SWAP1 SSTORE PUSH2 0x10B6 PUSH2 0x131 SWAP2 DUP3 SLOAD PUSH2 0x407B JUMP JUMPDEST SWAP1 SSTORE DUP4 PUSH2 0x133 SLOAD AND SWAP1 DUP2 EXTCODESIZE ISZERO PUSH2 0x98A JUMPI DUP7 MLOAD PUSH4 0x2770A7EB PUSH1 0xE2 SHL DUP2 MSTORE ADDRESS PUSH1 0x4 DUP3 ADD MSTORE PUSH1 0x24 DUP2 ADD SWAP2 SWAP1 SWAP2 MSTORE SWAP1 DUP3 SWAP1 DUP3 SWAP1 PUSH1 0x44 SWAP1 DUP3 SWAP1 DUP5 SWAP1 GAS CALL DUP1 ISZERO PUSH2 0x113B JUMPI PUSH2 0x1126 JUMPI JUMPDEST POP POP SWAP7 DUP6 PUSH2 0x111C SWAP4 DUP4 DUP1 PUSH1 0x60 DUP10 SWAP7 PUSH2 0xDCE SWAP12 SWAP13 SWAP14 MLOAD AND SWAP6 ADD MLOAD AND SWAP2 MLOAD AND SWAP3 PUSH2 0x5934 JUMP JUMPDEST MLOAD SWAP4 DUP5 SWAP4 DUP5 PUSH2 0x386F JUMP JUMPDEST PUSH2 0x1131 DUP3 DUP1 SWAP3 PUSH2 0x3958 JUMP JUMPDEST PUSH2 0x823 JUMPI DUP1 PUSH2 0x10F9 JUMP JUMPDEST DUP7 MLOAD RETURNDATASIZE DUP5 DUP3 RETURNDATACOPY RETURNDATASIZE SWAP1 REVERT JUMPDEST PUSH1 0x44 SWAP1 DUP10 DUP9 MLOAD SWAP2 PUSH4 0x54CDE313 PUSH1 0xE0 SHL DUP4 MSTORE PUSH1 0x4 DUP4 ADD MSTORE PUSH1 0x24 DUP3 ADD MSTORE REVERT JUMPDEST DUP5 MLOAD PUSH4 0xF3E39B5D PUSH1 0xE0 SHL DUP2 MSTORE PUSH1 0x4 SWAP1 REVERT JUMPDEST PUSH1 0x44 SWAP3 POP DUP8 MLOAD SWAP2 PUSH4 0xA5DB715D PUSH1 0xE0 SHL DUP4 MSTORE PUSH1 0x4 DUP4 ADD MSTORE PUSH1 0x24 DUP3 ADD MSTORE REVERT JUMPDEST DUP3 MLOAD PUSH4 0x19748477 PUSH1 0xE0 SHL DUP2 MSTORE PUSH1 0x4 SWAP1 REVERT JUMPDEST POP CALLVALUE PUSH2 0x823 JUMPI PUSH1 0x20 CALLDATASIZE PUSH1 0x3 NOT ADD SLT PUSH2 0x823 JUMPI PUSH2 0x11BB PUSH2 0x5C2F JUMP JUMPDEST PUSH1 0x4 CALLDATALOAD PUSH2 0x139 SSTORE DUP1 RETURN JUMPDEST SWAP1 SWAP2 POP CALLVALUE PUSH2 0x790 JUMPI CALLDATASIZE PUSH1 0x3 NOT ADD SLT PUSH2 0x823 JUMPI POP PUSH2 0x11E0 PUSH2 0x55CA JUMP JUMPDEST POP PUSH2 0x14F SLOAD PUSH1 0x1 PUSH1 0x1 PUSH1 0xA0 SHL SUB SWAP1 DUP2 AND CALLER SUB PUSH2 0x1282 JUMPI PUSH2 0xDCE PUSH2 0xDC4 SWAP2 PUSH2 0x1208 CALLDATASIZE PUSH1 0x4 PUSH2 0x5B83 JUMP JUMPDEST SWAP4 PUSH2 0x1211 PUSH2 0x55CA JUMP JUMPDEST POP PUSH2 0x121A PUSH2 0x4EA3 JUMP JUMPDEST PUSH2 0x1222 PUSH2 0x5CBD JUMP JUMPDEST PUSH2 0x1244 PUSH2 0xD64 DUP3 MLOAD PUSH4 0xF5571E01 PUSH1 0xE0 SHL PUSH1 0x20 DUP3 ADD MSTORE PUSH2 0xD49 PUSH1 0x24 DUP3 ADD DUP10 PUSH2 0x51EB JUMP JUMPDEST SWAP5 DUP9 PUSH1 0x60 DUP8 SWAP4 SWAP7 SWAP6 SWAP10 SWAP5 SWAP11 ADD SWAP2 DUP3 MLOAD PUSH2 0x1261 PUSH2 0x14E SWAP2 DUP3 SLOAD PUSH2 0x407B JUMP JUMPDEST SWAP1 SSTORE PUSH1 0xC0 PUSH2 0x1277 DUP12 DUP4 PUSH1 0x80 DUP7 ADD MLOAD AND SWAP6 MLOAD PUSH2 0x407B JUMP JUMPDEST SWAP3 ADD MLOAD AND SWAP2 DUP1 PUSH2 0x5934 JUMP JUMPDEST DUP2 MLOAD PUSH4 0x19748477 PUSH1 0xE0 SHL DUP2 MSTORE PUSH1 0x4 SWAP1 REVERT JUMPDEST POP DUP3 CALLVALUE PUSH2 0x790 JUMPI DUP2 PUSH1 0x3 NOT CALLDATASIZE ADD SLT PUSH2 0x790 JUMPI PUSH1 0x20 SWAP1 PUSH1 0xFF PUSH1 0xCA SLOAD AND SWAP1 MLOAD SWAP1 ISZERO ISZERO DUP2 MSTORE RETURN JUMPDEST POP DUP3 CALLVALUE PUSH2 0x790 JUMPI DUP2 PUSH1 0x3 NOT CALLDATASIZE ADD SLT PUSH2 0x790 JUMPI PUSH1 0x20 SWAP1 PUSH2 0x15B SLOAD SWAP1 MLOAD SWAP1 DUP2 MSTORE RETURN JUMPDEST PUSH1 0x20 DUP5 PUSH2 0x74B DUP5 PUSH2 0x12E9 CALLDATASIZE PUSH1 0x4 PUSH2 0x38AD JUMP JUMPDEST SWAP2 CALLER SWAP4 PUSH2 0x523B JUMP JUMPDEST POP DUP3 CALLVALUE PUSH2 0x790 JUMPI DUP2 PUSH1 0x3 NOT CALLDATASIZE ADD SLT PUSH2 0x790 JUMPI PUSH2 0x153 SLOAD SWAP1 MLOAD PUSH1 0x1 PUSH1 0x1 PUSH1 0xA0 SHL SUB SWAP1 SWAP2 AND DUP2 MSTORE PUSH1 0x20 SWAP1 RETURN JUMPDEST DUP4 DUP3 CALLVALUE PUSH2 0x823 JUMPI PUSH1 0xC0 CALLDATASIZE PUSH1 0x3 NOT ADD SLT PUSH2 0x823 JUMPI PUSH2 0x1336 PUSH2 0x55CA JUMP JUMPDEST POP PUSH2 0x14F SLOAD PUSH1 0x1 PUSH1 0x1 PUSH1 0xA0 SHL SUB SWAP3 SWAP1 DUP4 AND CALLER SUB PUSH2 0xDD2 JUMPI PUSH2 0x13D0 PUSH2 0x135B CALLDATASIZE PUSH1 0x4 PUSH2 0x59ED JUMP JUMPDEST SWAP2 PUSH2 0x1364 PUSH2 0x55CA JUMP JUMPDEST POP PUSH2 0x136D PUSH2 0x4EA3 JUMP JUMPDEST PUSH2 0x1375 PUSH2 0x5CBD JUMP JUMPDEST PUSH2 0x137D PUSH2 0x4CB6 JUMP JUMPDEST PUSH2 0x1385 PUSH2 0x4BF3 JUMP JUMPDEST PUSH2 0x1394 DUP8 DUP7 SWAP6 SWAP4 SWAP6 MLOAD AND PUSH2 0x4464 JUMP JUMPDEST SWAP4 PUSH2 0x13B4 PUSH2 0x13A2 DUP7 DUP5 PUSH2 0x4163 JUMP JUMPDEST MLOAD SWAP3 PUSH2 0x13AE DUP5 DUP9 PUSH2 0x4908 JUMP JUMPDEST DUP3 PUSH2 0x564E JUMP JUMPDEST PUSH1 0x20 DUP9 SWAP6 SWAP3 SWAP6 ADD SWAP5 DUP5 DUP7 MLOAD SWAP5 PUSH2 0x13CA DUP3 DUP12 PUSH2 0x4B50 JUMP JUMPDEST SWAP1 PUSH2 0x5A56 JUMP JUMPDEST DUP2 DUP2 LT PUSH2 0x14BC JUMPI POP POP SWAP5 DUP1 SWAP7 PUSH2 0x13EA PUSH2 0x1422 SWAP8 DUP5 MLOAD PUSH2 0x5CDE JUMP JUMPDEST SWAP5 PUSH1 0x60 DUP8 ADD SWAP1 PUSH2 0x1417 DUP4 DUP4 MLOAD AND DUP9 DUP11 DUP10 PUSH1 0xA0 DUP3 ADD SWAP9 DUP9 DUP1 DUP12 MLOAD AND SWAP4 MLOAD AND DUP2 MSTORE PUSH2 0x144 PUSH1 0x20 MSTORE KECCAK256 SLOAD SWAP3 PUSH2 0x5691 JUMP JUMPDEST SWAP9 SWAP2 DUP3 SWAP12 SWAP2 SWAP12 PUSH2 0x4156 JUMP JUMPDEST SWAP9 DUP8 DUP2 ADD SWAP7 DUP8 MLOAD DUP1 DUP13 GT PUSH2 0x149F JUMPI POP DUP11 ISZERO PUSH2 0x148E JUMPI SWAP5 DUP10 SWAP7 SWAP5 PUSH2 0x1469 DUP3 SWAP6 DUP14 SWAP15 SWAP16 SWAP6 PUSH2 0xDCE SWAP15 SWAP6 DUP6 PUSH1 0x80 PUSH2 0x111C SWAP15 SWAP13 PUSH2 0x145E PUSH2 0x1484 SWAP12 DUP7 PUSH2 0x5A6E JUMP JUMPDEST MLOAD SWAP3 ADD MLOAD AND SWAP3 PUSH2 0x4848 JUMP JUMPDEST DUP7 MLOAD PUSH2 0x1479 PUSH2 0x14E SWAP2 DUP3 SLOAD PUSH2 0x407B JUMP JUMPDEST SWAP1 SSTORE MLOAD AND SWAP5 MLOAD PUSH2 0x407B JUMP JUMPDEST SWAP2 MLOAD AND SWAP2 DUP1 PUSH2 0x5934 JUMP JUMPDEST DUP9 MLOAD PUSH4 0xF3E39B5D PUSH1 0xE0 SHL DUP2 MSTORE PUSH1 0x4 SWAP1 REVERT JUMPDEST PUSH1 0x44 SWAP1 DUP13 DUP12 MLOAD SWAP2 PUSH4 0xB63F1A7 PUSH1 0xE0 SHL DUP4 MSTORE PUSH1 0x4 DUP4 ADD MSTORE PUSH1 0x24 DUP3 ADD MSTORE REVERT JUMPDEST PUSH1 0x44 SWAP3 POP DUP5 MLOAD SWAP2 PUSH4 0xC39B739F PUSH1 0xE0 SHL DUP4 MSTORE PUSH1 0x4 DUP4 ADD MSTORE PUSH1 0x24 DUP3 ADD MSTORE REVERT JUMPDEST PUSH1 0x20 DUP5 PUSH2 0x74B PUSH2 0x14EA CALLDATASIZE PUSH1 0x4 PUSH2 0x39D9 JUMP JUMPDEST SWAP4 SWAP3 SWAP2 SWAP1 SWAP2 CALLER SWAP4 PUSH2 0x54DF JUMP JUMPDEST POP DUP3 CALLVALUE PUSH2 0x790 JUMPI DUP2 PUSH1 0x3 NOT CALLDATASIZE ADD SLT PUSH2 0x790 JUMPI PUSH1 0x20 SWAP1 PUSH2 0x13D SLOAD SWAP1 MLOAD SWAP1 DUP2 MSTORE RETURN JUMPDEST DUP4 DUP3 CALLVALUE PUSH2 0x823 JUMPI PUSH1 0xC0 CALLDATASIZE PUSH1 0x3 NOT ADD SLT PUSH2 0x823 JUMPI PUSH2 0x1531 PUSH2 0x55CA JUMP JUMPDEST POP PUSH2 0x14F SLOAD PUSH1 0x1 PUSH1 0x1 PUSH1 0xA0 SHL SUB SWAP1 DUP2 AND CALLER SUB PUSH2 0x1190 JUMPI SWAP1 PUSH2 0x15F4 SWAP2 PUSH2 0x1557 CALLDATASIZE PUSH1 0x4 PUSH2 0x59ED JUMP JUMPDEST SWAP4 PUSH2 0x1560 PUSH2 0x55CA JUMP JUMPDEST POP PUSH2 0x1569 PUSH2 0x4EA3 JUMP JUMPDEST PUSH2 0x1571 PUSH2 0x5CBD JUMP JUMPDEST PUSH2 0x1579 PUSH2 0x4566 JUMP JUMPDEST SWAP3 PUSH2 0x1586 DUP4 DUP8 MLOAD AND PUSH2 0x4464 JUMP JUMPDEST SWAP3 PUSH2 0x15A9 PUSH2 0x1594 DUP6 DUP8 PUSH2 0x4163 JUMP JUMPDEST MLOAD SWAP6 PUSH2 0x15A0 DUP8 DUP8 PUSH2 0x4908 JUMP JUMPDEST PUSH2 0x149 SLOAD PUSH2 0x564E JUMP JUMPDEST POP POP PUSH2 0x15BA PUSH1 0x20 DUP9 ADD SWAP6 DUP7 MLOAD PUSH2 0x5CDE JUMP JUMPDEST SWAP2 PUSH1 0x60 DUP9 ADD SWAP1 DUP3 DUP3 MLOAD AND SWAP4 PUSH2 0x15E9 PUSH1 0xA0 DUP12 ADD SWAP6 DUP3 DUP13 DUP8 DUP1 DUP11 MLOAD AND SWAP2 MLOAD AND DUP7 MSTORE PUSH2 0x145 PUSH1 0x20 MSTORE DUP10 DUP7 KECCAK256 SLOAD SWAP3 PUSH2 0x5691 JUMP JUMPDEST SWAP9 SWAP2 DUP4 SWAP12 SWAP2 SWAP12 PUSH2 0x407B JUMP JUMPDEST SWAP9 DUP3 ISZERO PUSH2 0x16E4 JUMPI DUP8 DUP13 ADD MLOAD DUP1 DUP12 LT PUSH2 0x16C7 JUMPI POP DUP6 SWAP2 PUSH2 0x164C SWAP2 PUSH2 0x1618 PUSH1 0x1 DUP14 PUSH2 0x5A6E JUMP JUMPDEST MLOAD SWAP4 PUSH2 0x1626 DUP3 PUSH2 0x137 PUSH2 0x393C JUMP JUMPDEST POP PUSH2 0x1632 DUP7 DUP3 SLOAD PUSH2 0x407B JUMP JUMPDEST SWAP1 SSTORE PUSH2 0x1642 PUSH2 0x131 SWAP2 DUP3 SLOAD PUSH2 0x407B JUMP JUMPDEST SWAP1 SSTORE PUSH2 0x135 PUSH2 0x37EA JUMP JUMPDEST SWAP1 SLOAD SWAP1 PUSH1 0x3 SHL SHR AND SWAP1 DUP2 EXTCODESIZE ISZERO PUSH2 0x98A JUMPI DUP7 MLOAD PUSH4 0x2770A7EB PUSH1 0xE2 SHL DUP2 MSTORE ADDRESS PUSH1 0x4 DUP3 ADD MSTORE PUSH1 0x24 DUP2 ADD SWAP2 SWAP1 SWAP2 MSTORE SWAP1 DUP3 SWAP1 DUP3 SWAP1 PUSH1 0x44 SWAP1 DUP3 SWAP1 DUP5 SWAP1 GAS CALL DUP1 ISZERO PUSH2 0x113B JUMPI PUSH2 0x16B2 JUMPI JUMPDEST POP POP SWAP7 DUP6 PUSH2 0x111C SWAP4 DUP4 DUP1 PUSH1 0x80 DUP10 SWAP7 PUSH2 0xDCE SWAP12 SWAP13 SWAP14 MLOAD AND SWAP6 ADD MLOAD AND SWAP2 MLOAD AND SWAP3 PUSH2 0x5934 JUMP JUMPDEST PUSH2 0x16BD DUP3 DUP1 SWAP3 PUSH2 0x3958 JUMP JUMPDEST PUSH2 0x823 JUMPI DUP1 PUSH2 0x168F JUMP JUMPDEST PUSH1 0x44 SWAP1 DUP12 DUP11 MLOAD SWAP2 PUSH4 0x54CDE313 PUSH1 0xE0 SHL DUP4 MSTORE PUSH1 0x4 DUP4 ADD MSTORE PUSH1 0x24 DUP3 ADD MSTORE REVERT JUMPDEST DUP8 MLOAD PUSH4 0xF3E39B5D PUSH1 0xE0 SHL DUP2 MSTORE PUSH1 0x4 SWAP1 REVERT JUMPDEST PUSH1 0x20 DUP5 PUSH2 0x74B DUP5 PUSH2 0x1707 CALLDATASIZE PUSH1 0x4 PUSH2 0x38AD JUMP JUMPDEST SWAP2 CALLER SWAP4 PUSH2 0x5145 JUMP JUMPDEST PUSH1 0x20 DUP5 PUSH2 0x74B DUP5 PUSH2 0x1721 CALLDATASIZE PUSH1 0x4 PUSH2 0x39AC JUMP JUMPDEST SWAP3 SWAP2 SWAP1 SWAP2 PUSH2 0x4EC5 JUMP JUMPDEST PUSH1 0x20 DUP5 PUSH2 0x74B PUSH2 0x173B CALLDATASIZE PUSH1 0x4 PUSH2 0x39D9 JUMP JUMPDEST SWAP4 SWAP3 SWAP2 SWAP1 SWAP2 CALLER SWAP4 PUSH2 0x523B JUMP JUMPDEST POP DUP3 CALLVALUE PUSH2 0x790 JUMPI DUP2 PUSH1 0x3 NOT CALLDATASIZE ADD SLT PUSH2 0x790 JUMPI PUSH1 0x20 SWAP1 PUSH2 0x18F SLOAD NUMBER LT ISZERO SWAP1 MLOAD SWAP1 DUP2 MSTORE RETURN JUMPDEST PUSH1 0x20 DUP5 PUSH2 0x74B PUSH2 0x177B CALLDATASIZE PUSH1 0x4 PUSH2 0x3A4B JUMP JUMPDEST SWAP4 SWAP3 SWAP1 SWAP3 PUSH2 0x4EC5 JUMP JUMPDEST POP DUP3 CALLVALUE PUSH2 0x790 JUMPI DUP2 PUSH1 0x3 NOT CALLDATASIZE ADD SLT PUSH2 0x790 JUMPI PUSH1 0xCA SLOAD SWAP1 MLOAD PUSH1 0x10 SWAP2 SWAP1 SWAP2 SHR PUSH1 0x1 PUSH1 0x1 PUSH1 0xA0 SHL SUB AND DUP2 MSTORE PUSH1 0x20 SWAP1 RETURN JUMPDEST DUP4 DUP3 CALLVALUE PUSH2 0x823 JUMPI PUSH1 0x20 CALLDATASIZE PUSH1 0x3 NOT ADD SLT PUSH2 0x823 JUMPI PUSH1 0x4 CALLDATALOAD PUSH1 0x1 PUSH1 0x1 PUSH1 0xA0 SHL SUB DUP2 AND SWAP2 SWAP1 DUP3 SWAP1 SUB PUSH2 0x752 JUMPI DUP3 SWAP2 DUP2 MSTORE PUSH2 0x136 PUSH1 0x20 MSTORE KECCAK256 PUSH1 0xFF PUSH1 0x1 DUP3 SLOAD SWAP3 ADD SLOAD AND DUP3 MLOAD SWAP2 DUP3 MSTORE ISZERO ISZERO PUSH1 0x20 DUP3 ADD MSTORE RETURN JUMPDEST DUP4 DUP3 CALLVALUE PUSH2 0x823 JUMPI DUP2 PUSH1 0x3 NOT CALLDATASIZE ADD SLT PUSH2 0x823 JUMPI POP PUSH1 0x1 PUSH1 0x1 PUSH1 0xA0 SHL SUB SWAP1 PUSH1 0x4 CALLDATALOAD DUP3 DUP2 AND DUP2 SUB PUSH2 0x752 JUMPI PUSH1 0x24 CALLDATALOAD SWAP3 DUP4 AND DUP4 SUB PUSH2 0x752 JUMPI PUSH1 0x20 SWAP3 PUSH2 0x74B SWAP2 CALLER SWAP1 PUSH2 0x47A4 JUMP JUMPDEST POP DUP3 CALLVALUE PUSH2 0x790 JUMPI DUP2 PUSH1 0x3 NOT CALLDATASIZE ADD SLT PUSH2 0x790 JUMPI PUSH1 0x20 SWAP1 PUSH2 0x1868 PUSH2 0x1862 PUSH2 0xBFC PUSH2 0x4566 JUMP JUMPDEST SWAP1 PUSH2 0x432C JUMP JUMPDEST PUSH2 0x14A SLOAD LT ISZERO SWAP1 MLOAD SWAP1 DUP2 MSTORE RETURN JUMPDEST POP DUP3 DUP1 PUSH1 0x3 NOT CALLDATASIZE ADD SLT PUSH2 0x752 JUMPI PUSH2 0x74B PUSH1 0x20 SWAP3 CALLER PUSH1 0x24 CALLDATALOAD PUSH1 0x4 CALLDATALOAD PUSH2 0x531D JUMP JUMPDEST PUSH1 0x20 DUP5 PUSH2 0x74B PUSH2 0x18A5 CALLDATASIZE PUSH1 0x4 PUSH2 0x39AC JUMP JUMPDEST SWAP3 SWAP2 CALLER SWAP3 PUSH2 0x4F7F JUMP JUMPDEST POP DUP3 CALLVALUE PUSH2 0x790 JUMPI DUP2 PUSH1 0x3 NOT CALLDATASIZE ADD SLT PUSH2 0x790 JUMPI PUSH2 0x146 SLOAD SWAP1 MLOAD PUSH1 0x1 PUSH1 0x1 PUSH1 0xA0 SHL SUB SWAP1 SWAP2 AND DUP2 MSTORE PUSH1 0x20 SWAP1 RETURN JUMPDEST POP DUP3 CALLVALUE PUSH2 0x790 JUMPI DUP2 PUSH1 0x3 NOT CALLDATASIZE ADD SLT PUSH2 0x790 JUMPI PUSH1 0x20 SWAP1 PUSH2 0x18F8 PUSH2 0xBFC PUSH2 0x4566 JUMP JUMPDEST POP SWAP1 MLOAD SWAP1 DUP2 MSTORE RETURN JUMPDEST POP DUP3 CALLVALUE PUSH2 0x790 JUMPI DUP2 PUSH1 0x3 NOT CALLDATASIZE ADD SLT PUSH2 0x790 JUMPI PUSH2 0x158 SLOAD SWAP1 MLOAD PUSH1 0x1 PUSH1 0x1 PUSH1 0xA0 SHL SUB SWAP1 SWAP2 AND DUP2 MSTORE PUSH1 0x20 SWAP1 RETURN JUMPDEST POP DUP3 CALLVALUE PUSH2 0x790 JUMPI DUP2 PUSH1 0x3 NOT CALLDATASIZE ADD SLT PUSH2 0x790 JUMPI PUSH1 0x20 SWAP1 PUSH2 0x14A SLOAD SWAP1 MLOAD SWAP1 DUP2 MSTORE RETURN JUMPDEST PUSH1 0x20 DUP5 PUSH2 0x74B PUSH2 0x195B CALLDATASIZE PUSH1 0x4 PUSH2 0x39AC JUMP JUMPDEST SWAP3 SWAP2 CALLER SWAP3 PUSH2 0x5410 JUMP JUMPDEST PUSH1 0x20 DUP5 PUSH2 0x74B PUSH2 0x1975 CALLDATASIZE PUSH1 0x4 PUSH2 0x3A4B JUMP JUMPDEST SWAP4 SWAP3 SWAP1 SWAP3 PUSH2 0x5410 JUMP JUMPDEST DUP4 DUP3 CALLVALUE PUSH2 0x823 JUMPI PUSH1 0xC0 CALLDATASIZE PUSH1 0x3 NOT ADD SLT PUSH2 0x823 JUMPI POP PUSH2 0x199A PUSH2 0x55CA JUMP JUMPDEST POP PUSH2 0x14F SLOAD PUSH1 0x1 PUSH1 0x1 PUSH1 0xA0 SHL SUB SWAP1 DUP2 AND CALLER SUB PUSH2 0x1282 JUMPI PUSH2 0xDCE PUSH2 0xDC4 SWAP2 PUSH2 0x19C2 CALLDATASIZE PUSH1 0x4 PUSH2 0x59ED JUMP JUMPDEST SWAP4 PUSH2 0x19CB PUSH2 0x55CA JUMP JUMPDEST POP PUSH2 0x19D4 PUSH2 0x4EA3 JUMP JUMPDEST PUSH2 0x19DC PUSH2 0x5CBD JUMP JUMPDEST PUSH2 0x1A0D PUSH2 0xD64 DUP3 MLOAD PUSH4 0x7225DA89 PUSH1 0xE1 SHL PUSH1 0x20 DUP3 ADD MSTORE PUSH2 0x19FE PUSH1 0x24 DUP3 ADD DUP10 PUSH2 0x4F3A JUMP JUMPDEST PUSH1 0xC4 DUP2 MSTORE PUSH2 0xD59 PUSH1 0xE4 DUP3 PUSH2 0x3958 JUMP JUMPDEST SWAP5 DUP9 DUP6 DUP8 SWAP4 SWAP7 SWAP6 SWAP10 SWAP5 SWAP11 ADD SWAP2 DUP3 MLOAD PUSH2 0x1A29 PUSH2 0x14E SWAP2 DUP3 SLOAD PUSH2 0x407B JUMP JUMPDEST SWAP1 SSTORE PUSH1 0xA0 PUSH2 0x1277 DUP12 DUP4 PUSH1 0x60 DUP7 ADD MLOAD AND SWAP6 MLOAD PUSH2 0x407B JUMP JUMPDEST POP CALLVALUE PUSH2 0x823 JUMPI PUSH1 0x20 CALLDATASIZE PUSH1 0x3 NOT ADD SLT PUSH2 0x823 JUMPI PUSH1 0x4 CALLDATALOAD PUSH1 0x1 PUSH1 0x1 PUSH1 0xA0 SHL SUB DUP2 AND SWAP1 DUP2 SWAP1 SUB PUSH2 0x752 JUMPI PUSH2 0x1A6E PUSH2 0x5C2F JUMP JUMPDEST PUSH2 0x153 DUP1 SLOAD PUSH1 0x1 PUSH1 0x1 PUSH1 0xA0 SHL SUB NOT AND SWAP1 SWAP2 OR SWAP1 SSTORE DUP1 RETURN JUMPDEST POP DUP3 CALLVALUE PUSH2 0x790 JUMPI DUP2 PUSH1 0x3 NOT CALLDATASIZE ADD SLT PUSH2 0x790 JUMPI PUSH2 0x1A9F PUSH2 0x5CBD JUMP JUMPDEST PUSH1 0xCA SLOAD PUSH1 0x10 DUP2 SWAP1 SHR PUSH1 0x1 PUSH1 0x1 PUSH1 0xA0 SHL SUB AND CALLER SUB PUSH2 0x1B09 JUMPI PUSH1 0xFF DUP2 AND ISZERO PUSH2 0x1AF8 JUMPI PUSH2 0xFF00 NOT AND PUSH2 0x100 OR PUSH1 0xCA SSTORE MLOAD CALLER DUP2 MSTORE PUSH32 0x62E78CEA01BEE320CD4E420270B5EA74000D11B0C9F74754EBDBFC544B05A258 SWAP1 PUSH1 0x20 SWAP1 LOG1 DUP1 RETURN JUMPDEST DUP2 MLOAD PUSH4 0x866099C3 PUSH1 0xE0 SHL DUP2 MSTORE PUSH1 0x4 SWAP1 REVERT JUMPDEST DUP2 MLOAD PUSH4 0x1D77D477 PUSH1 0xE2 SHL DUP2 MSTORE PUSH1 0x4 SWAP1 REVERT JUMPDEST PUSH1 0x20 DUP5 PUSH2 0x74B DUP5 PUSH2 0x1B2C CALLDATASIZE PUSH1 0x4 PUSH2 0x39D9 JUMP JUMPDEST SWAP4 SWAP3 SWAP1 SWAP3 PUSH2 0x523B JUMP JUMPDEST POP DUP3 CALLVALUE PUSH2 0x790 JUMPI DUP2 PUSH1 0x3 NOT CALLDATASIZE ADD SLT PUSH2 0x790 JUMPI PUSH1 0x20 SWAP1 PUSH2 0x74B PUSH2 0x1862 PUSH2 0xBFC PUSH2 0x4566 JUMP JUMPDEST POP DUP3 CALLVALUE PUSH2 0x790 JUMPI DUP2 PUSH1 0x3 NOT CALLDATASIZE ADD SLT PUSH2 0x790 JUMPI PUSH1 0x20 SWAP1 PUSH2 0x15A SLOAD SWAP1 MLOAD SWAP1 DUP2 MSTORE RETURN JUMPDEST POP DUP3 CALLVALUE PUSH2 0x790 JUMPI DUP2 PUSH1 0x3 NOT CALLDATASIZE ADD SLT PUSH2 0x790 JUMPI PUSH1 0x20 SWAP1 PUSH2 0x74B PUSH2 0x1B9A PUSH1 0x1 PUSH2 0x45A0 JUMP JUMPDEST PUSH2 0xE52 PUSH2 0x1BA7 DUP3 DUP5 PUSH2 0x4205 JUMP JUMPDEST SWAP2 DUP4 PUSH2 0x42BB JUMP JUMPDEST POP DUP3 CALLVALUE PUSH2 0x790 JUMPI DUP2 PUSH1 0x3 NOT CALLDATASIZE ADD SLT PUSH2 0x790 JUMPI PUSH2 0x1C3 SLOAD SWAP1 MLOAD PUSH1 0x1 PUSH1 0x1 PUSH1 0xA0 SHL SUB SWAP1 SWAP2 AND DUP2 MSTORE PUSH1 0x20 SWAP1 RETURN JUMPDEST POP DUP3 CALLVALUE PUSH2 0x790 JUMPI PUSH1 0x20 CALLDATASIZE PUSH1 0x3 NOT ADD SLT PUSH2 0x790 JUMPI PUSH1 0x4 CALLDATALOAD SWAP2 PUSH2 0x148 SWAP1 DUP2 SLOAD DUP5 LT ISZERO PUSH2 0x823 JUMPI POP PUSH1 0x20 SWAP3 PUSH2 0x1C09 SWAP2 PUSH2 0x37EA JUMP JUMPDEST SWAP2 SWAP1 SLOAD SWAP1 MLOAD SWAP2 PUSH1 0x3 SHL SHR DUP2 MSTORE RETURN JUMPDEST POP CALLVALUE PUSH2 0x823 JUMPI PUSH1 0x20 CALLDATASIZE PUSH1 0x3 NOT ADD SLT PUSH2 0x823 JUMPI PUSH2 0x1C31 PUSH2 0x5C2F JUMP JUMPDEST PUSH1 0x4 CALLDATALOAD PUSH2 0x149 SSTORE DUP1 RETURN JUMPDEST PUSH1 0x20 DUP5 PUSH2 0x74B PUSH2 0x1C4C CALLDATASIZE PUSH1 0x4 PUSH2 0x3A0B JUMP JUMPDEST SWAP5 SWAP4 SWAP3 SWAP1 SWAP3 CALLER SWAP5 PUSH2 0x4FF8 JUMP JUMPDEST POP CALLVALUE PUSH2 0x823 JUMPI PUSH1 0x20 CALLDATASIZE PUSH1 0x3 NOT ADD SLT PUSH2 0x823 JUMPI PUSH2 0x1C72 PUSH2 0x5C2F JUMP JUMPDEST PUSH1 0x4 CALLDATALOAD PUSH2 0x140 SSTORE DUP1 RETURN JUMPDEST POP DUP3 CALLVALUE PUSH2 0x790 JUMPI DUP2 PUSH1 0x3 NOT CALLDATASIZE ADD SLT PUSH2 0x790 JUMPI PUSH1 0x20 SWAP1 PUSH2 0x190 SLOAD SWAP1 MLOAD SWAP1 DUP2 MSTORE RETURN JUMPDEST POP CALLVALUE PUSH2 0x823 JUMPI PUSH1 0x20 CALLDATASIZE PUSH1 0x3 NOT ADD SLT PUSH2 0x823 JUMPI PUSH2 0x1CB6 PUSH2 0x5C2F JUMP JUMPDEST PUSH1 0x4 CALLDATALOAD PUSH2 0x141 SSTORE DUP1 RETURN JUMPDEST POP DUP3 CALLVALUE PUSH2 0x790 JUMPI DUP2 PUSH1 0x3 NOT CALLDATASIZE ADD SLT PUSH2 0x790 JUMPI PUSH1 0x20 SWAP1 PUSH2 0x134 SLOAD SWAP1 MLOAD SWAP1 DUP2 MSTORE RETURN JUMPDEST POP DUP3 CALLVALUE PUSH2 0x790 JUMPI DUP2 PUSH1 0x3 NOT CALLDATASIZE ADD SLT PUSH2 0x790 JUMPI PUSH1 0x20 SWAP1 PUSH2 0x142 SLOAD SWAP1 MLOAD SWAP1 DUP2 MSTORE RETURN JUMPDEST POP CALLVALUE PUSH2 0x823 JUMPI PUSH1 0x20 CALLDATASIZE PUSH1 0x3 NOT ADD SLT PUSH2 0x823 JUMPI PUSH2 0x1D1A PUSH2 0x5C2F JUMP JUMPDEST PUSH1 0x4 CALLDATALOAD PUSH2 0x13B SSTORE DUP1 RETURN JUMPDEST POP DUP3 CALLVALUE PUSH2 0x790 JUMPI DUP2 PUSH1 0x3 NOT CALLDATASIZE ADD SLT PUSH2 0x790 JUMPI PUSH1 0x20 SWAP1 PUSH2 0x156 SLOAD SWAP1 MLOAD SWAP1 DUP2 MSTORE RETURN JUMPDEST POP DUP3 CALLVALUE PUSH2 0x790 JUMPI DUP2 PUSH1 0x3 NOT CALLDATASIZE ADD SLT PUSH2 0x790 JUMPI PUSH1 0x20 SWAP1 PUSH2 0x139 SLOAD SWAP1 MLOAD SWAP1 DUP2 MSTORE RETURN JUMPDEST PUSH1 0x20 DUP5 PUSH2 0x74B PUSH2 0x1D75 CALLDATASIZE PUSH1 0x4 PUSH2 0x39D9 JUMP JUMPDEST SWAP4 SWAP3 SWAP2 SWAP1 SWAP2 CALLER SWAP4 PUSH2 0x5145 JUMP JUMPDEST POP CALLVALUE PUSH2 0x823 JUMPI PUSH1 0x20 CALLDATASIZE PUSH1 0x3 NOT ADD SLT PUSH2 0x823 JUMPI PUSH2 0x1D9B PUSH2 0x5C2F JUMP JUMPDEST PUSH1 0x4 CALLDATALOAD PUSH2 0x154 SSTORE DUP1 RETURN JUMPDEST POP CALLVALUE PUSH2 0x823 JUMPI PUSH1 0x20 CALLDATASIZE PUSH1 0x3 NOT ADD SLT PUSH2 0x823 JUMPI PUSH1 0x4 CALLDATALOAD PUSH1 0x1 PUSH1 0x1 PUSH1 0xA0 SHL SUB DUP2 AND SWAP1 DUP2 SWAP1 SUB PUSH2 0x752 JUMPI PUSH2 0x1DD4 PUSH2 0x5C2F JUMP JUMPDEST PUSH2 0x158 DUP1 SLOAD PUSH1 0x1 PUSH1 0x1 PUSH1 0xA0 SHL SUB NOT AND SWAP1 SWAP2 OR SWAP1 SSTORE DUP1 RETURN JUMPDEST POP CALLVALUE PUSH2 0x823 JUMPI PUSH1 0x20 CALLDATASIZE PUSH1 0x3 NOT ADD SLT PUSH2 0x823 JUMPI PUSH2 0x1E05 PUSH2 0x5C2F JUMP JUMPDEST PUSH1 0x4 CALLDATALOAD PUSH2 0x13E SSTORE DUP1 RETURN JUMPDEST POP DUP3 CALLVALUE PUSH2 0x790 JUMPI DUP2 PUSH1 0x3 NOT CALLDATASIZE ADD SLT PUSH2 0x790 JUMPI PUSH1 0x20 SWAP1 PUSH2 0x154 SLOAD SWAP1 MLOAD SWAP1 DUP2 MSTORE RETURN JUMPDEST POP DUP3 CALLVALUE PUSH2 0x790 JUMPI DUP2 PUSH1 0x3 NOT CALLDATASIZE ADD SLT PUSH2 0x790 JUMPI PUSH1 0x20 SWAP1 PUSH2 0x149 SLOAD SWAP1 MLOAD SWAP1 DUP2 MSTORE RETURN JUMPDEST SWAP1 SWAP2 POP CALLDATASIZE PUSH1 0x3 NOT ADD SLT PUSH2 0x823 JUMPI POP PUSH1 0x4 CALLDATALOAD SWAP1 PUSH1 0x1 PUSH1 0x1 PUSH1 0xA0 SHL SUB DUP1 DUP4 AND DUP4 SUB PUSH2 0x752 JUMPI PUSH1 0x24 CALLDATALOAD SWAP1 DUP1 DUP3 AND DUP3 SUB PUSH2 0x752 JUMPI PUSH1 0xA4 CALLDATALOAD DUP2 DUP2 AND DUP2 SUB PUSH2 0x752 JUMPI PUSH1 0xC4 CALLDATALOAD SWAP2 DUP3 AND DUP3 SUB PUSH2 0x752 JUMPI PUSH1 0x20 SWAP5 PUSH2 0x74B SWAP4 PUSH1 0x84 CALLDATALOAD SWAP2 PUSH1 0x64 CALLDATALOAD SWAP2 PUSH1 0x44 CALLDATALOAD SWAP2 PUSH2 0x4FF8 JUMP JUMPDEST POP CALLVALUE PUSH2 0x823 JUMPI DUP1 PUSH1 0x3 NOT CALLDATASIZE ADD SLT PUSH2 0x823 JUMPI PUSH2 0x1EC8 PUSH2 0x5C2F JUMP JUMPDEST PUSH1 0x1 PUSH1 0xFF NOT PUSH1 0xCA SLOAD AND OR PUSH1 0xCA SSTORE DUP1 RETURN JUMPDEST POP DUP3 CALLVALUE PUSH2 0x790 JUMPI DUP2 PUSH1 0x3 NOT CALLDATASIZE ADD SLT PUSH2 0x790 JUMPI PUSH1 0x20 SWAP1 PUSH2 0x18F8 PUSH2 0x4BF3 JUMP JUMPDEST POP CALLVALUE PUSH2 0x823 JUMPI PUSH1 0x20 CALLDATASIZE PUSH1 0x3 NOT ADD SLT PUSH2 0x823 JUMPI PUSH2 0x1F0F PUSH2 0x5C2F JUMP JUMPDEST PUSH1 0x4 CALLDATALOAD PUSH2 0x159 SSTORE DUP1 RETURN JUMPDEST POP DUP3 CALLVALUE PUSH2 0x790 JUMPI DUP2 PUSH1 0x3 NOT CALLDATASIZE ADD SLT PUSH2 0x790 JUMPI PUSH2 0x12F SLOAD SWAP1 MLOAD PUSH1 0x1 PUSH1 0x1 PUSH1 0xA0 SHL SUB SWAP1 SWAP2 AND DUP2 MSTORE PUSH1 0x20 SWAP1 RETURN JUMPDEST POP DUP3 CALLVALUE PUSH2 0x790 JUMPI PUSH2 0x400 CALLDATASIZE PUSH1 0x3 NOT ADD SLT PUSH2 0x790 JUMPI DUP2 SLOAD PUSH1 0xFF DUP2 PUSH1 0x8 SHR AND ISZERO SWAP1 DUP2 DUP1 SWAP3 PUSH2 0x247E JUMPI JUMPDEST DUP1 ISZERO PUSH2 0x2467 JUMPI JUMPDEST ISZERO PUSH2 0x240C JUMPI PUSH1 0xFF NOT DUP2 AND PUSH1 0x1 OR DUP5 SSTORE DUP2 PUSH2 0x23FB JUMPI JUMPDEST POP PUSH1 0xFF DUP4 SLOAD PUSH1 0x8 SHR AND PUSH2 0x1F98 DUP2 PUSH2 0x4744 JUMP JUMPDEST PUSH2 0x384 CALLDATALOAD PUSH1 0x1 PUSH1 0x1 PUSH1 0xA0 SHL SUB DUP2 AND SWAP1 DUP2 SWAP1 SUB PUSH2 0x752 JUMPI PUSH2 0x1F6 DUP1 SLOAD PUSH1 0x1 PUSH1 0x1 PUSH1 0xA0 SHL SUB NOT AND SWAP1 SWAP2 OR SWAP1 SSTORE PUSH1 0x1 PUSH1 0x1 PUSH1 0xA0 SHL SUB PUSH2 0x344 CALLDATALOAD SWAP1 DUP2 AND SWAP1 DUP2 SWAP1 SUB PUSH2 0x752 JUMPI PUSH2 0x364 CALLDATALOAD PUSH1 0x1 PUSH1 0x1 PUSH1 0xA0 SHL SUB DUP2 AND DUP2 SUB PUSH2 0x752 JUMPI PUSH1 0x1 SWAP2 PUSH2 0x1FF9 DUP5 PUSH2 0x4744 JUMP JUMPDEST PUSH2 0x2002 DUP5 PUSH2 0x4744 JUMP JUMPDEST PUSH2 0x200B DUP5 PUSH2 0x4744 JUMP JUMPDEST PUSH2 0x2014 DUP5 PUSH2 0x4744 JUMP JUMPDEST PUSH1 0x1 PUSH1 0x1 PUSH1 0x60 SHL SUB PUSH1 0xA0 SHL PUSH1 0x97 SLOAD AND OR PUSH1 0x97 SSTORE PUSH2 0x2030 DUP4 PUSH2 0x4744 JUMP JUMPDEST PUSH1 0xCA SLOAD SWAP1 PUSH3 0x10000 DUP4 PUSH1 0xB0 SHL SUB SWAP1 PUSH1 0x10 SHL AND SWAP1 PUSH2 0xFF01 DUP4 PUSH1 0xB0 SHL SUB NOT AND OR OR PUSH1 0xCA SSTORE PUSH2 0x205B DUP2 PUSH2 0x4744 JUMP JUMPDEST PUSH8 0xDE0B6B3A7640000 PUSH1 0xC4 CALLDATALOAD LT PUSH2 0x23EA JUMPI PUSH2 0x2078 PUSH2 0x104 CALLDATALOAD PUSH2 0x5D02 JUMP JUMPDEST PUSH2 0x2084 PUSH2 0x124 CALLDATALOAD PUSH2 0x5D02 JUMP JUMPDEST PUSH2 0x2090 PUSH2 0x144 CALLDATALOAD PUSH2 0x5D02 JUMP JUMPDEST PUSH2 0x209C PUSH2 0x164 CALLDATALOAD PUSH2 0x5D02 JUMP JUMPDEST PUSH2 0x20A8 PUSH2 0x184 CALLDATALOAD PUSH2 0x5D02 JUMP JUMPDEST PUSH2 0x20B4 PUSH2 0x1A4 CALLDATALOAD PUSH2 0x5D02 JUMP JUMPDEST PUSH2 0x20C0 PUSH2 0x1C4 CALLDATALOAD PUSH2 0x5D02 JUMP JUMPDEST PUSH2 0x20CC PUSH2 0x1E4 CALLDATALOAD PUSH2 0x5D02 JUMP JUMPDEST PUSH2 0x20D8 PUSH2 0x204 CALLDATALOAD PUSH2 0x5D02 JUMP JUMPDEST PUSH2 0x20F0 PUSH2 0x20EB PUSH2 0x244 CALLDATALOAD PUSH2 0x224 CALLDATALOAD PUSH2 0x4156 JUMP JUMPDEST PUSH2 0x5D02 JUMP JUMPDEST PUSH1 0x4 CALLDATALOAD PUSH1 0x1 PUSH1 0x1 PUSH1 0xA0 SHL SUB DUP2 AND SWAP1 DUP2 SWAP1 SUB PUSH2 0x752 JUMPI PUSH2 0x14F DUP1 SLOAD PUSH1 0x1 PUSH1 0x1 PUSH1 0xA0 SHL SUB NOT AND SWAP1 SWAP2 OR SWAP1 SSTORE PUSH1 0x24 CALLDATALOAD PUSH1 0x1 PUSH1 0x1 PUSH1 0xA0 SHL SUB DUP2 AND DUP2 SUB PUSH2 0x752 JUMPI PUSH2 0x12F DUP1 SLOAD PUSH1 0x1 PUSH1 0x1 PUSH1 0xA0 SHL SUB NOT AND PUSH1 0x1 PUSH1 0x1 PUSH1 0xA0 SHL SUB SWAP3 DUP4 AND OR SWAP1 SSTORE PUSH1 0x44 CALLDATALOAD SWAP1 DUP2 AND DUP2 SUB PUSH2 0x752 JUMPI PUSH2 0x130 DUP1 SLOAD PUSH1 0x1 PUSH1 0x1 PUSH1 0xA0 SHL SUB NOT AND PUSH1 0x1 PUSH1 0x1 PUSH1 0xA0 SHL SUB SWAP3 DUP4 AND OR SWAP1 SSTORE PUSH1 0x64 CALLDATALOAD SWAP1 DUP2 AND DUP2 SUB PUSH2 0x752 JUMPI PUSH2 0x133 DUP1 SLOAD PUSH1 0x1 PUSH1 0x1 PUSH1 0xA0 SHL SUB NOT AND PUSH1 0x1 PUSH1 0x1 PUSH1 0xA0 SHL SUB SWAP3 DUP4 AND OR SWAP1 SSTORE PUSH1 0x84 CALLDATALOAD SWAP1 DUP2 AND DUP2 SUB PUSH2 0x752 JUMPI PUSH2 0x146 DUP1 SLOAD PUSH1 0x1 PUSH1 0x1 PUSH1 0xA0 SHL SUB NOT AND PUSH1 0x1 PUSH1 0x1 PUSH1 0xA0 SHL SUB SWAP3 DUP4 AND OR SWAP1 SSTORE PUSH1 0xA4 CALLDATALOAD SWAP1 DUP2 AND DUP2 SUB PUSH2 0x752 JUMPI PUSH2 0x147 DUP1 SLOAD PUSH1 0x1 PUSH1 0x1 PUSH1 0xA0 SHL SUB NOT AND PUSH1 0x1 PUSH1 0x1 PUSH1 0xA0 SHL SUB SWAP3 DUP4 AND OR SWAP1 SSTORE PUSH1 0xC4 CALLDATALOAD PUSH2 0x149 SSTORE PUSH1 0xE4 CALLDATALOAD PUSH2 0x14A SSTORE PUSH2 0x104 CALLDATALOAD PUSH2 0x13B SSTORE PUSH2 0x124 CALLDATALOAD PUSH2 0x13C SSTORE PUSH2 0x144 CALLDATALOAD PUSH2 0x13D SSTORE PUSH2 0x164 CALLDATALOAD PUSH2 0x13E SSTORE PUSH2 0x184 CALLDATALOAD PUSH2 0x13F SSTORE PUSH2 0x1A4 CALLDATALOAD PUSH2 0x140 SSTORE PUSH2 0x1C4 CALLDATALOAD PUSH2 0x141 SSTORE PUSH2 0x1E4 CALLDATALOAD PUSH2 0x142 SSTORE PUSH2 0x204 CALLDATALOAD PUSH2 0x143 SSTORE PUSH2 0x224 CALLDATALOAD PUSH2 0x139 SSTORE PUSH2 0x244 CALLDATALOAD PUSH2 0x13A SSTORE PUSH2 0x264 CALLDATALOAD PUSH2 0x14C DUP2 SWAP1 SSTORE SWAP1 PUSH2 0x284 CALLDATALOAD SWAP1 DUP2 AND SWAP1 DUP2 SWAP1 SUB PUSH2 0x752 JUMPI PUSH2 0x158 DUP1 SLOAD PUSH1 0x1 PUSH1 0x1 PUSH1 0xA0 SHL SUB NOT AND SWAP1 SWAP2 OR SWAP1 SSTORE PUSH2 0x2A4 CALLDATALOAD PUSH2 0x159 SSTORE PUSH2 0x2C4 CALLDATALOAD PUSH2 0x15A DUP2 SWAP1 SSTORE SWAP1 PUSH1 0x1 PUSH1 0x1 PUSH1 0xA0 SHL SUB PUSH2 0x2E4 CALLDATALOAD SWAP1 DUP2 AND SWAP1 DUP2 SWAP1 SUB PUSH2 0x752 JUMPI PUSH2 0x152 DUP1 SLOAD PUSH1 0x1 PUSH1 0x1 PUSH1 0xA0 SHL SUB NOT AND SWAP1 SWAP2 OR SWAP1 SSTORE PUSH1 0x1 PUSH1 0x1 PUSH1 0xA0 SHL SUB PUSH2 0x304 CALLDATALOAD SWAP1 DUP2 AND SWAP1 DUP2 SWAP1 SUB PUSH2 0x752 JUMPI PUSH2 0x153 SWAP1 PUSH1 0x1 PUSH1 0x1 PUSH1 0x60 SHL SUB PUSH1 0xA0 SHL DUP3 SLOAD AND OR SWAP1 SSTORE PUSH2 0x324 CALLDATALOAD PUSH2 0x154 SSTORE NUMBER PUSH2 0x157 SSTORE NUMBER ADD PUSH2 0x14D SSTORE NUMBER ADD PUSH2 0x15B SSTORE PUSH2 0x14B PUSH2 0xFFFF NOT DUP2 SLOAD AND SWAP1 SSTORE PUSH2 0x3A4 CALLDATALOAD PUSH2 0x231D DUP3 PUSH2 0x4744 JUMP JUMPDEST DUP1 ISZERO PUSH2 0x23D9 JUMPI PUSH2 0x190 DUP2 SWAP1 SSTORE NUMBER ADD PUSH2 0x18F SSTORE PUSH2 0x3C4 CALLDATALOAD PUSH1 0x1 PUSH1 0x1 PUSH1 0xA0 SHL SUB DUP2 AND DUP2 SUB PUSH2 0x752 JUMPI PUSH2 0x234F PUSH2 0x2371 SWAP3 PUSH2 0x4744 JUMP JUMPDEST PUSH2 0x1C3 DUP1 SLOAD PUSH1 0x1 PUSH1 0x1 PUSH1 0xA0 SHL SUB NOT AND PUSH1 0x1 PUSH1 0x1 PUSH1 0xA0 SHL SUB SWAP1 SWAP3 AND SWAP2 SWAP1 SWAP2 OR SWAP1 SSTORE JUMP JUMPDEST PUSH2 0x3E4 CALLDATALOAD PUSH1 0x1 PUSH1 0x1 PUSH1 0xA0 SHL SUB DUP2 AND SWAP1 DUP2 SWAP1 SUB PUSH2 0x752 JUMPI PUSH2 0x229 DUP1 SLOAD PUSH1 0x1 PUSH1 0x1 PUSH1 0xA0 SHL SUB NOT AND SWAP1 SWAP2 OR SWAP1 SSTORE PUSH2 0x23A3 JUMPI POP DUP1 RETURN JUMPDEST PUSH1 0x20 PUSH32 0x7F26B83FF96E1F2B6A682F133852F6798A09C465DA95921460CEFB3847402498 SWAP2 PUSH2 0xFF00 NOT DUP5 SLOAD AND DUP5 SSTORE MLOAD PUSH1 0x1 DUP2 MSTORE LOG1 DUP1 RETURN JUMPDEST DUP4 MLOAD PUSH4 0x2A9FFAB7 PUSH1 0xE2 SHL DUP2 MSTORE PUSH1 0x4 SWAP1 REVERT JUMPDEST DUP3 MLOAD PUSH4 0x2A9FFAB7 PUSH1 0xE2 SHL DUP2 MSTORE PUSH1 0x4 SWAP1 REVERT JUMPDEST PUSH2 0xFFFF NOT AND PUSH2 0x101 OR DUP4 SSTORE DUP4 PUSH2 0x1F86 JUMP JUMPDEST DUP3 MLOAD PUSH3 0x461BCD PUSH1 0xE5 SHL DUP2 MSTORE PUSH1 0x20 PUSH1 0x4 DUP3 ADD MSTORE PUSH1 0x2E PUSH1 0x24 DUP3 ADD MSTORE PUSH32 0x496E697469616C697A61626C653A20636F6E747261637420697320616C726561 PUSH1 0x44 DUP3 ADD MSTORE PUSH14 0x191E481A5B9A5D1A585B1A5E9959 PUSH1 0x92 SHL PUSH1 0x64 DUP3 ADD MSTORE PUSH1 0x84 SWAP1 REVERT JUMPDEST POP ADDRESS EXTCODESIZE ISZERO DUP1 ISZERO PUSH2 0x1F71 JUMPI POP PUSH1 0x1 PUSH1 0xFF DUP3 AND EQ PUSH2 0x1F71 JUMP JUMPDEST POP PUSH1 0x1 PUSH1 0xFF DUP3 AND LT PUSH2 0x1F6A JUMP JUMPDEST POP DUP3 CALLVALUE PUSH2 0x790 JUMPI DUP2 PUSH1 0x3 NOT CALLDATASIZE ADD SLT PUSH2 0x790 JUMPI PUSH2 0x133 SLOAD SWAP1 MLOAD PUSH1 0x1 PUSH1 0x1 PUSH1 0xA0 SHL SUB SWAP1 SWAP2 AND DUP2 MSTORE PUSH1 0x20 SWAP1 RETURN JUMPDEST PUSH1 0x20 DUP5 PUSH2 0x74B PUSH2 0x24C6 CALLDATASIZE PUSH1 0x4 PUSH2 0x382C JUMP JUMPDEST SWAP5 SWAP4 SWAP1 SWAP4 SWAP3 SWAP2 SWAP3 PUSH2 0x54DF JUMP JUMPDEST POP DUP3 CALLVALUE PUSH2 0x790 JUMPI DUP2 PUSH1 0x3 NOT CALLDATASIZE ADD SLT PUSH2 0x790 JUMPI PUSH1 0x20 SWAP1 PUSH2 0x14E SLOAD SWAP1 MLOAD SWAP1 DUP2 MSTORE RETURN JUMPDEST POP DUP3 CALLVALUE PUSH2 0x790 JUMPI DUP2 PUSH1 0x3 NOT CALLDATASIZE ADD SLT PUSH2 0x790 JUMPI PUSH1 0x20 SWAP1 PUSH1 0xFF PUSH1 0xCA SLOAD PUSH1 0x8 SHR AND SWAP1 MLOAD SWAP1 ISZERO ISZERO DUP2 MSTORE RETURN JUMPDEST POP DUP3 CALLVALUE PUSH2 0x790 JUMPI DUP2 PUSH1 0x3 NOT CALLDATASIZE ADD SLT PUSH2 0x790 JUMPI PUSH2 0x2533 PUSH2 0x5CBD JUMP JUMPDEST PUSH2 0x14D DUP1 SLOAD NUMBER LT PUSH2 0x2703 JUMPI PUSH2 0x14C SLOAD NUMBER ADD SWAP1 SSTORE PUSH32 0xD3C59BDA47E141A8EC5A33D241B7F71B86E30D359F83A9227D912858B60404FC DUP3 DUP1 LOG1 PUSH2 0x137 SLOAD DUP3 PUSH2 0x2578 DUP3 PUSH2 0x4362 JUMP JUMPDEST SWAP2 DUP5 JUMPDEST DUP2 DUP2 LT PUSH2 0x2634 JUMPI POP POP DUP1 PUSH2 0x25EF JUMPI JUMPDEST SWAP2 DUP1 MLOAD SWAP3 DUP2 DUP5 ADD SWAP1 DUP5 MSTORE PUSH1 0x20 SWAP2 DUP3 DUP6 ADD MSTORE DUP3 MLOAD DUP1 SWAP2 MSTORE DUP2 PUSH1 0x60 DUP6 ADD SWAP4 ADD SWAP2 DUP6 JUMPDEST DUP3 DUP2 LT PUSH2 0x25DB JUMPI DUP7 PUSH32 0xAE5116A8119D08673A0F1DFA7546B95DA4BD54BB17FEDA7C61130AC7859152F6 DUP8 DUP8 SUB DUP9 LOG1 DUP1 RETURN JUMPDEST DUP4 MLOAD DUP6 MSTORE SWAP4 DUP2 ADD SWAP4 SWAP3 DUP2 ADD SWAP3 PUSH1 0x1 ADD PUSH2 0x25AA JUMP JUMPDEST PUSH2 0x2606 PUSH8 0xDE0B6B3A7640000 SWAP2 PUSH2 0x139 SLOAD SWAP1 PUSH2 0x4288 JUMP JUMPDEST DIV PUSH2 0x131 PUSH2 0x2615 DUP3 DUP3 SLOAD PUSH2 0x407B JUMP JUMPDEST SWAP1 SSTORE PUSH2 0x146 SLOAD PUSH2 0x262F SWAP1 DUP3 SWAP1 PUSH1 0x1 PUSH1 0x1 PUSH1 0xA0 SHL SUB AND PUSH2 0x3F25 JUMP JUMPDEST PUSH2 0x258A JUMP JUMPDEST PUSH2 0x263D DUP2 PUSH2 0x449F JUMP JUMPDEST PUSH2 0x2647 DUP2 DUP4 PUSH2 0x4908 JUMP JUMPDEST DUP7 PUSH2 0x150 SWAP2 DUP7 PUSH2 0x2657 DUP6 DUP6 PUSH2 0x37EA JUMP JUMPDEST SWAP1 SLOAD SWAP1 PUSH1 0x3 SHL SHR SWAP2 DUP4 DUP4 SGT PUSH2 0x2674 JUMPI JUMPDEST POP POP POP POP POP PUSH1 0x1 ADD PUSH2 0x257B JUMP JUMPDEST SWAP5 PUSH2 0x26B9 DUP4 DUP3 SWAP7 SWAP10 PUSH2 0x26BF SWAP5 PUSH2 0x26B3 DUP6 PUSH2 0x26A6 PUSH2 0x26AC PUSH2 0x26D6 SWAP11 PUSH1 0x1 SWAP15 PUSH8 0xDE0B6B3A7640000 SWAP4 DUP5 SWAP2 PUSH2 0x13A SLOAD PUSH2 0x4288 JUMP JUMPDEST DIV PUSH2 0x4288 JUMP JUMPDEST DIV SWAP3 PUSH2 0x4163 JUMP JUMPDEST MSTORE PUSH2 0x4156 JUMP JUMPDEST SWAP8 PUSH2 0x37EA JUMP JUMPDEST DUP2 SWAP4 SWAP2 SLOAD SWAP1 PUSH1 0x3 SHL SWAP2 DUP3 SHL SWAP2 PUSH1 0x0 NOT SWAP1 SHL NOT AND OR SWAP1 JUMP JUMPDEST SWAP1 SSTORE PUSH2 0x26F9 PUSH2 0x26E5 DUP3 DUP8 PUSH2 0x4163 JUMP JUMPDEST MLOAD DUP9 DUP5 DUP1 PUSH1 0xA0 SHL SUB PUSH2 0x147 SLOAD AND SWAP2 DUP5 PUSH2 0x4848 JUMP JUMPDEST SWAP1 DUP7 DUP9 DUP7 DUP2 PUSH2 0x2667 JUMP JUMPDEST DUP2 MLOAD PUSH4 0x101B6859 PUSH1 0xE0 SHL DUP2 MSTORE PUSH1 0x4 SWAP1 REVERT JUMPDEST DUP4 DUP3 CALLVALUE PUSH2 0x823 JUMPI DUP2 PUSH1 0x3 NOT CALLDATASIZE ADD SLT PUSH2 0x823 JUMPI PUSH1 0x1 PUSH1 0x1 PUSH1 0xA0 SHL SUB PUSH1 0x4 CALLDATALOAD DUP2 DUP2 AND DUP2 SUB PUSH2 0x752 JUMPI PUSH1 0x24 CALLDATALOAD SWAP2 PUSH2 0x14F SLOAD AND CALLER SUB PUSH2 0xBAF JUMPI SWAP1 PUSH2 0xBAC SWAP2 PUSH2 0x14E DUP3 DUP2 SLOAD SUB SWAP1 SSTORE PUSH2 0x3F25 JUMP JUMPDEST POP DUP3 CALLVALUE PUSH2 0x790 JUMPI DUP2 PUSH1 0x3 NOT CALLDATASIZE ADD SLT PUSH2 0x790 JUMPI PUSH1 0x20 SWAP1 PUSH2 0x157 SLOAD SWAP1 MLOAD SWAP1 DUP2 MSTORE RETURN JUMPDEST POP CALLVALUE PUSH2 0x823 JUMPI PUSH1 0x20 CALLDATASIZE PUSH1 0x3 NOT ADD SLT PUSH2 0x823 JUMPI PUSH2 0x2796 PUSH2 0x5C2F JUMP JUMPDEST PUSH1 0x4 CALLDATALOAD PUSH2 0x143 SSTORE DUP1 RETURN JUMPDEST DUP4 DUP3 CALLVALUE PUSH2 0x823 JUMPI DUP2 PUSH1 0x3 NOT CALLDATASIZE ADD SLT PUSH2 0x823 JUMPI PUSH1 0x1 PUSH1 0x1 PUSH1 0xA0 SHL SUB PUSH1 0x4 CALLDATALOAD DUP2 DUP2 AND DUP2 SUB PUSH2 0x752 JUMPI DUP2 PUSH2 0x14F SLOAD AND CALLER SUB PUSH2 0xBAF JUMPI SWAP1 PUSH2 0xBAC SWAP2 PUSH1 0x24 CALLDATALOAD SWAP2 PUSH2 0x133 SLOAD AND PUSH2 0x5BF6 JUMP JUMPDEST POP CALLVALUE PUSH2 0x823 JUMPI PUSH1 0x20 CALLDATASIZE PUSH1 0x3 NOT ADD SLT PUSH2 0x823 JUMPI PUSH1 0x4 CALLDATALOAD PUSH1 0x1 PUSH1 0x1 PUSH1 0xA0 SHL SUB DUP2 AND DUP2 SUB PUSH2 0x752 JUMPI PUSH2 0xBAC SWAP1 PUSH2 0x234F PUSH2 0x5C2F JUMP JUMPDEST PUSH1 0x20 DUP5 PUSH2 0x74B DUP5 PUSH2 0x2828 CALLDATASIZE PUSH1 0x4 PUSH2 0x39AC JUMP JUMPDEST SWAP3 SWAP2 SWAP1 SWAP2 PUSH2 0x5410 JUMP JUMPDEST DUP4 DUP3 CALLVALUE PUSH2 0x823 JUMPI DUP1 PUSH1 0x3 NOT CALLDATASIZE ADD SLT PUSH2 0x823 JUMPI POP PUSH32 0x0 PUSH1 0x1 PUSH1 0x1 PUSH1 0xA0 SHL SUB AND ADDRESS SUB PUSH2 0x289D JUMPI PUSH1 0x20 SWAP1 MLOAD PUSH32 0x360894A13BA1A3210667C828492DB98DCA3E2076CC3735A920A3CA505D382BBC DUP2 MSTORE RETURN JUMPDEST MLOAD PUSH3 0x461BCD PUSH1 0xE5 SHL DUP2 MSTORE PUSH1 0x20 PUSH1 0x4 DUP3 ADD MSTORE PUSH1 0x38 PUSH1 0x24 DUP3 ADD MSTORE PUSH32 0x555550535570677261646561626C653A206D757374206E6F742062652063616C PUSH1 0x44 DUP3 ADD MSTORE PUSH32 0x6C6564207468726F7567682064656C656761746563616C6C0000000000000000 PUSH1 0x64 DUP3 ADD MSTORE PUSH1 0x84 SWAP1 REVERT JUMPDEST POP CALLVALUE PUSH2 0x823 JUMPI DUP1 PUSH1 0x3 NOT CALLDATASIZE ADD SLT PUSH2 0x823 JUMPI PUSH2 0x291F PUSH2 0x5C2F JUMP JUMPDEST PUSH1 0xFF NOT PUSH1 0xCA SLOAD AND PUSH1 0xCA SSTORE DUP1 RETURN JUMPDEST POP DUP3 DUP1 PUSH1 0x3 NOT CALLDATASIZE ADD SLT PUSH2 0x790 JUMPI PUSH1 0x4 CALLDATALOAD SWAP1 PUSH1 0x1 PUSH1 0x1 PUSH1 0xA0 SHL SUB SWAP1 DUP2 DUP4 AND DUP4 SUB PUSH2 0x752 JUMPI DUP4 SWAP3 PUSH1 0x24 CALLDATALOAD SWAP3 PUSH8 0xFFFFFFFFFFFFFFFF DUP5 GT PUSH2 0x2A1C JUMPI CALLDATASIZE PUSH1 0x23 DUP6 ADD SLT ISZERO PUSH2 0x2A1C JUMPI DUP4 PUSH1 0x4 ADD CALLDATALOAD SWAP1 PUSH2 0x298A PUSH2 0x2981 DUP4 PUSH2 0x3990 JUMP JUMPDEST SWAP5 MLOAD SWAP5 DUP6 PUSH2 0x3958 JUMP JUMPDEST DUP2 DUP5 MSTORE CALLDATASIZE PUSH1 0x24 DUP4 DUP8 ADD ADD GT PUSH2 0x2A18 JUMPI PUSH2 0xBAC SWAP6 PUSH1 0x20 DUP4 PUSH2 0x2A0B SWAP5 PUSH1 0x24 PUSH1 0x1 SWAP10 ADD DUP4 DUP10 ADD CALLDATACOPY DUP7 ADD ADD MSTORE DUP1 PUSH32 0x0 AND SWAP1 PUSH2 0x29E2 DUP3 ADDRESS EQ ISZERO PUSH2 0x3A7D JUMP JUMPDEST PUSH32 0x360894A13BA1A3210667C828492DB98DCA3E2076CC3735A920A3CA505D382BBC SLOAD AND EQ PUSH2 0x3ADE JUMP JUMPDEST PUSH2 0x2A13 PUSH2 0x5C2F JUMP JUMPDEST PUSH2 0x3B3F JUMP JUMPDEST DUP6 DUP1 REVERT JUMPDEST DUP5 DUP1 REVERT JUMPDEST POP DUP3 CALLVALUE PUSH2 0x790 JUMPI DUP2 PUSH1 0x3 NOT CALLDATASIZE ADD SLT PUSH2 0x790 JUMPI PUSH1 0x20 SWAP1 PUSH2 0x13B SLOAD SWAP1 MLOAD SWAP1 DUP2 MSTORE RETURN JUMPDEST POP DUP3 CALLVALUE PUSH2 0x790 JUMPI DUP2 PUSH1 0x3 NOT CALLDATASIZE ADD SLT PUSH2 0x790 JUMPI PUSH2 0x147 SLOAD SWAP1 MLOAD PUSH1 0x1 PUSH1 0x1 PUSH1 0xA0 SHL SUB SWAP1 SWAP2 AND DUP2 MSTORE PUSH1 0x20 SWAP1 RETURN JUMPDEST POP DUP3 CALLVALUE PUSH2 0x790 JUMPI DUP2 PUSH1 0x3 NOT CALLDATASIZE ADD SLT PUSH2 0x790 JUMPI PUSH1 0x20 SWAP1 PUSH2 0x14C SLOAD SWAP1 MLOAD SWAP1 DUP2 MSTORE RETURN JUMPDEST POP DUP3 CALLVALUE PUSH2 0x790 JUMPI PUSH1 0x20 CALLDATASIZE PUSH1 0x3 NOT ADD SLT PUSH2 0x790 JUMPI PUSH1 0x4 CALLDATALOAD PUSH2 0x137 DUP1 SLOAD DUP3 LT ISZERO PUSH2 0xA7F JUMPI SWAP1 PUSH2 0x2AB6 SWAP2 PUSH2 0x393C JUMP JUMPDEST POP DUP1 SLOAD PUSH1 0x1 SWAP1 SWAP2 ADD SLOAD DUP3 MLOAD SWAP2 DUP3 MSTORE PUSH1 0x1 PUSH1 0x1 PUSH1 0xA0 SHL SUB AND PUSH1 0x20 DUP3 ADD MSTORE RETURN JUMPDEST SWAP1 SWAP2 POP CALLVALUE PUSH2 0x790 JUMPI CALLDATASIZE PUSH1 0x3 NOT ADD SLT PUSH2 0x823 JUMPI POP PUSH2 0x2AEF PUSH2 0x55CA JUMP JUMPDEST POP PUSH2 0x14F SLOAD PUSH1 0x1 PUSH1 0x1 PUSH1 0xA0 SHL SUB SWAP1 DUP2 AND CALLER SUB PUSH2 0x1282 JUMPI PUSH2 0xDCE PUSH2 0xDC4 SWAP2 PUSH2 0x2B17 CALLDATASIZE PUSH1 0x4 PUSH2 0x5B83 JUMP JUMPDEST SWAP4 PUSH2 0x2B20 PUSH2 0x55CA JUMP JUMPDEST POP PUSH2 0x2B29 PUSH2 0x4EA3 JUMP JUMPDEST PUSH2 0x2B31 PUSH2 0x5CBD JUMP JUMPDEST PUSH2 0x1244 PUSH2 0xD64 DUP3 MLOAD PUSH4 0xD9B6C2E5 PUSH1 0xE0 SHL PUSH1 0x20 DUP3 ADD MSTORE PUSH2 0xD49 PUSH1 0x24 DUP3 ADD DUP10 PUSH2 0x51EB JUMP JUMPDEST POP DUP3 PUSH1 0x60 CALLDATASIZE PUSH1 0x3 NOT ADD SLT PUSH2 0x752 JUMPI PUSH1 0x4 CALLDATALOAD PUSH1 0x1 PUSH1 0x1 PUSH1 0xA0 SHL SUB DUP2 AND DUP2 SUB PUSH2 0x752 JUMPI PUSH1 0x20 SWAP3 PUSH2 0x74B SWAP2 CALLER SWAP1 PUSH1 0x44 CALLDATALOAD SWAP1 PUSH1 0x24 CALLDATALOAD SWAP1 PUSH2 0x4EC5 JUMP JUMPDEST DUP4 PUSH1 0x60 CALLDATASIZE PUSH1 0x3 NOT ADD SLT PUSH2 0x752 JUMPI PUSH1 0x44 CALLDATALOAD SWAP1 PUSH1 0x1 PUSH1 0x1 PUSH1 0xA0 SHL SUB DUP3 AND DUP3 SUB PUSH2 0x752 JUMPI PUSH2 0x74B PUSH1 0x20 SWAP3 CALLER PUSH1 0x24 CALLDATALOAD PUSH1 0x4 CALLDATALOAD PUSH2 0x531D JUMP JUMPDEST POP DUP3 PUSH1 0x60 CALLDATASIZE PUSH1 0x3 NOT ADD SLT PUSH2 0x752 JUMPI PUSH1 0x4 CALLDATALOAD PUSH1 0x1 PUSH1 0x1 PUSH1 0xA0 SHL SUB DUP2 AND DUP2 SUB PUSH2 0x752 JUMPI PUSH1 0x20 SWAP3 PUSH2 0x74B SWAP2 CALLER SWAP1 PUSH1 0x44 CALLDATALOAD SWAP1 PUSH1 0x24 CALLDATALOAD SWAP1 PUSH2 0x5410 JUMP JUMPDEST POP DUP3 PUSH1 0x60 CALLDATASIZE PUSH1 0x3 NOT ADD SLT PUSH2 0x752 JUMPI PUSH1 0x4 CALLDATALOAD PUSH1 0x1 PUSH1 0x1 PUSH1 0xA0 SHL SUB DUP2 AND DUP2 SUB PUSH2 0x752 JUMPI PUSH1 0x20 SWAP3 PUSH2 0x74B SWAP2 CALLER SWAP1 PUSH1 0x44 CALLDATALOAD SWAP1 PUSH1 0x24 CALLDATALOAD SWAP1 PUSH2 0x4F7F JUMP JUMPDEST POP DUP3 PUSH1 0x60 CALLDATASIZE PUSH1 0x3 NOT ADD SLT PUSH2 0x752 JUMPI PUSH1 0x44 CALLDATALOAD PUSH1 0x1 PUSH1 0x1 PUSH1 0xA0 SHL SUB DUP2 AND DUP2 SUB PUSH2 0x752 JUMPI PUSH1 0x20 SWAP3 PUSH2 0x74B SWAP2 PUSH1 0x24 CALLDATALOAD PUSH1 0x4 CALLDATALOAD PUSH2 0x4D4A JUMP JUMPDEST POP DUP3 CALLVALUE PUSH2 0x790 JUMPI DUP2 PUSH1 0x3 NOT CALLDATASIZE ADD SLT PUSH2 0x790 JUMPI PUSH1 0x20 SWAP1 PUSH2 0x13E SLOAD SWAP1 MLOAD SWAP1 DUP2 MSTORE RETURN JUMPDEST POP DUP3 CALLVALUE PUSH2 0x790 JUMPI DUP2 PUSH1 0x3 NOT CALLDATASIZE ADD SLT PUSH2 0x790 JUMPI PUSH1 0x20 SWAP1 PUSH2 0x74B PUSH2 0x2CA9 PUSH2 0x2CA1 PUSH2 0x4BF3 JUMP JUMPDEST SWAP2 SWAP1 SWAP2 PUSH2 0x4177 JUMP JUMPDEST SWAP2 PUSH2 0x49EE JUMP JUMPDEST POP DUP3 CALLVALUE PUSH2 0x790 JUMPI DUP2 PUSH1 0x3 NOT CALLDATASIZE ADD SLT PUSH2 0x790 JUMPI PUSH1 0xCA SLOAD PUSH1 0xFF DUP2 PUSH1 0x8 SHR AND ISZERO PUSH2 0x2D19 JUMPI PUSH1 0x10 DUP2 SWAP1 SHR PUSH1 0x1 PUSH1 0x1 PUSH1 0xA0 SHL SUB AND CALLER SUB PUSH2 0x1B09 JUMPI PUSH2 0xFF00 NOT AND PUSH1 0xCA SSTORE MLOAD CALLER DUP2 MSTORE PUSH32 0x5DB9EE0A495BF2E6FF9C91A7834C1BA4FDD244A5E8AA4E537BD38AEAE4B073AA SWAP1 PUSH1 0x20 SWAP1 LOG1 DUP1 RETURN JUMPDEST DUP2 MLOAD PUSH4 0x7C7FD079 PUSH1 0xE0 SHL DUP2 MSTORE PUSH1 0x4 SWAP1 REVERT JUMPDEST PUSH1 0x20 DUP5 PUSH2 0x74B PUSH2 0x2D3B CALLDATASIZE PUSH1 0x4 PUSH2 0x3916 JUMP JUMPDEST SWAP3 SWAP2 SWAP1 SWAP2 PUSH2 0x531D JUMP JUMPDEST POP CALLVALUE PUSH2 0x823 JUMPI PUSH1 0x20 CALLDATASIZE PUSH1 0x3 NOT ADD SLT PUSH2 0x823 JUMPI PUSH1 0x4 CALLDATALOAD PUSH1 0x1 PUSH1 0x1 PUSH1 0xA0 SHL SUB DUP2 AND SWAP1 DUP2 SWAP1 SUB PUSH2 0x752 JUMPI PUSH2 0x2D73 PUSH2 0x5C2F JUMP JUMPDEST PUSH2 0x14F DUP1 SLOAD PUSH1 0x1 PUSH1 0x1 PUSH1 0xA0 SHL SUB NOT AND SWAP1 SWAP2 OR SWAP1 SSTORE DUP1 RETURN JUMPDEST POP CALLVALUE PUSH2 0x823 JUMPI PUSH1 0x20 CALLDATASIZE PUSH1 0x3 NOT ADD SLT PUSH2 0x823 JUMPI PUSH2 0x2DA4 PUSH2 0x5C2F JUMP JUMPDEST PUSH1 0x4 CALLDATALOAD PUSH2 0x190 SSTORE DUP1 RETURN JUMPDEST SWAP1 DUP4 CALLVALUE PUSH2 0x790 JUMPI PUSH2 0x100 SWAP2 DUP3 PUSH1 0x3 NOT CALLDATASIZE ADD SLT PUSH2 0x823 JUMPI POP PUSH2 0x2DCD PUSH2 0x55CA JUMP JUMPDEST POP PUSH2 0x14F SLOAD PUSH1 0x1 PUSH1 0x1 PUSH1 0xA0 SHL SUB SWAP3 SWAP1 DUP4 AND CALLER SUB PUSH2 0x1282 JUMPI PUSH2 0x2DF0 DUP3 MLOAD SWAP2 DUP3 PUSH2 0x3958 JUMP JUMPDEST PUSH1 0x4 CALLDATALOAD DUP4 DUP2 AND DUP2 SUB PUSH2 0x752 JUMPI DUP2 MSTORE PUSH1 0x24 CALLDATALOAD DUP4 DUP2 AND DUP2 SUB PUSH2 0x752 JUMPI PUSH1 0x20 DUP3 ADD MSTORE PUSH1 0x44 CALLDATALOAD DUP3 DUP3 ADD MSTORE PUSH1 0x64 CALLDATALOAD PUSH1 0x60 DUP3 ADD MSTORE PUSH1 0x80 DUP2 ADD SWAP2 PUSH1 0x84 CALLDATALOAD DUP4 MSTORE PUSH1 0xA4 CALLDATALOAD SWAP1 DUP5 DUP3 AND DUP3 SUB PUSH2 0x752 JUMPI PUSH1 0xA0 DUP4 ADD SWAP2 DUP3 MSTORE PUSH1 0xC4 CALLDATALOAD DUP6 DUP2 AND DUP2 SUB PUSH2 0x752 JUMPI PUSH1 0xC0 DUP5 ADD MSTORE PUSH1 0xE4 CALLDATALOAD SWAP3 DUP6 DUP5 AND DUP5 SUB PUSH2 0x752 JUMPI DUP6 PUSH2 0xDCE SWAP6 PUSH2 0x2EAC PUSH2 0xD64 PUSH2 0x966 PUSH2 0xD59 DUP7 PUSH2 0x1484 SWAP14 PUSH2 0xDC4 SWAP9 ADD SWAP11 DUP12 MSTORE PUSH2 0x2E80 PUSH2 0x55CA JUMP JUMPDEST POP PUSH2 0x2E89 PUSH2 0x4EA3 JUMP JUMPDEST PUSH2 0x2E91 PUSH2 0x5CBD JUMP JUMPDEST DUP9 MLOAD PUSH4 0x70F090ED PUSH1 0xE1 SHL PUSH1 0x20 DUP3 ADD MSTORE SWAP3 DUP4 SWAP2 PUSH1 0x24 DUP4 ADD PUSH2 0x50E1 JUMP JUMPDEST SWAP9 SWAP3 DUP1 SWAP12 DUP11 SWAP7 SWAP4 SWAP14 SWAP3 SWAP10 DUP7 MLOAD PUSH2 0x1479 PUSH2 0x14E SWAP2 DUP3 SLOAD PUSH2 0x407B JUMP JUMPDEST POP DUP3 CALLVALUE PUSH2 0x790 JUMPI PUSH1 0x20 CALLDATASIZE PUSH1 0x3 NOT ADD SLT PUSH2 0x790 JUMPI PUSH1 0x4 CALLDATALOAD SWAP2 PUSH2 0x138 SWAP1 DUP2 SLOAD DUP5 LT ISZERO PUSH2 0x823 JUMPI POP PUSH1 0x20 SWAP3 PUSH2 0x1C09 SWAP2 PUSH2 0x37EA JUMP JUMPDEST POP DUP3 CALLVALUE PUSH2 0x790 JUMPI PUSH1 0x20 CALLDATASIZE PUSH1 0x3 NOT ADD SLT PUSH2 0x790 JUMPI PUSH1 0x4 CALLDATALOAD SWAP1 PUSH1 0x1 PUSH1 0x1 PUSH1 0xA0 SHL SUB SWAP1 DUP2 DUP4 AND DUP4 SUB PUSH2 0x752 JUMPI PUSH2 0xBAC SWAP3 PUSH2 0x2F59 DUP4 DUP7 SWAP5 PUSH32 0x0 AND SWAP1 PUSH2 0x29E2 DUP3 ADDRESS EQ ISZERO PUSH2 0x3A7D JUMP JUMPDEST PUSH2 0x2F61 PUSH2 0x5C2F JUMP JUMPDEST PUSH2 0x2F76 PUSH2 0x2F6D DUP5 PUSH2 0x3990 JUMP JUMPDEST SWAP3 MLOAD SWAP3 DUP4 PUSH2 0x3958 JUMP JUMPDEST DUP3 DUP3 MSTORE PUSH1 0x1F NOT PUSH2 0x2F85 DUP5 PUSH2 0x3990 JUMP JUMPDEST ADD CALLDATASIZE PUSH1 0x20 DUP5 ADD CALLDATACOPY PUSH2 0x3B3F JUMP JUMPDEST PUSH1 0x20 DUP5 PUSH2 0x74B DUP5 PUSH2 0x2FA3 CALLDATASIZE PUSH1 0x4 PUSH2 0x38AD JUMP JUMPDEST SWAP2 CALLER SWAP4 PUSH2 0x54DF JUMP JUMPDEST POP DUP3 CALLVALUE PUSH2 0x790 JUMPI DUP2 PUSH1 0x3 NOT CALLDATASIZE ADD SLT PUSH2 0x790 JUMPI PUSH2 0x2FC5 PUSH2 0x409E JUMP JUMPDEST PUSH2 0x2FCD PUSH2 0x5CBD JUMP JUMPDEST PUSH2 0x14B DUP1 SLOAD PUSH1 0xFF DUP2 AND DUP1 PUSH2 0x3098 JUMPI JUMPDEST DUP1 PUSH2 0x307E JUMPI JUMPDEST PUSH2 0x2FEA JUMPI DUP4 DUP1 RETURN JUMPDEST PUSH2 0xFF00 NOT AND PUSH2 0x100 OR SWAP1 SSTORE DUP1 MLOAD SWAP1 DUP3 SWAP1 PUSH32 0x8B77276C97A5709F0D6DB52329848A254EB760CE8BE80D281799F633BDB69E83 DUP3 DUP1 LOG1 PUSH2 0x133 SLOAD PUSH1 0x1 PUSH1 0x1 PUSH1 0xA0 SHL SUB AND DUP1 EXTCODESIZE ISZERO PUSH2 0x98A JUMPI DUP4 PUSH1 0x4 DUP2 DUP6 DUP1 SWAP5 PUSH4 0x8456CB59 PUSH1 0xE0 SHL DUP4 MSTORE GAS CALL SWAP1 DUP2 ISZERO PUSH2 0x3073 JUMPI POP PUSH2 0x3063 JUMPI JUMPDEST POP POP PUSH2 0x305C PUSH2 0x4394 JUMP JUMPDEST DUP2 DUP1 DUP1 DUP4 DUP1 RETURN JUMPDEST PUSH2 0x306C SWAP2 PUSH2 0x3958 JUMP JUMPDEST DUP2 DUP2 PUSH2 0x3052 JUMP JUMPDEST MLOAD SWAP2 RETURNDATASIZE SWAP2 POP DUP3 RETURNDATACOPY RETURNDATASIZE SWAP1 REVERT JUMPDEST POP PUSH2 0x308D PUSH2 0x1862 PUSH2 0xBFC PUSH2 0x4566 JUMP JUMPDEST PUSH2 0x14A SLOAD LT ISZERO PUSH2 0x2FE2 JUMP JUMPDEST POP PUSH1 0xFF DUP2 PUSH1 0x8 SHR AND ISZERO PUSH2 0x2FDC JUMP JUMPDEST POP DUP3 CALLVALUE PUSH2 0x790 JUMPI DUP2 PUSH1 0x3 NOT CALLDATASIZE ADD SLT PUSH2 0x790 JUMPI PUSH1 0x20 SWAP1 PUSH2 0x13F SLOAD SWAP1 MLOAD SWAP1 DUP2 MSTORE RETURN JUMPDEST POP DUP3 CALLVALUE PUSH2 0x790 JUMPI DUP2 PUSH1 0x3 NOT CALLDATASIZE ADD SLT PUSH2 0x790 JUMPI PUSH1 0x20 SWAP1 PUSH2 0x143 SLOAD SWAP1 MLOAD SWAP1 DUP2 MSTORE RETURN JUMPDEST POP CALLVALUE PUSH2 0x823 JUMPI PUSH1 0x20 CALLDATASIZE PUSH1 0x3 NOT ADD SLT PUSH2 0x823 JUMPI PUSH1 0x4 CALLDATALOAD PUSH1 0x1 PUSH1 0x1 PUSH1 0xA0 SHL SUB DUP2 AND DUP2 SUB PUSH2 0x790 JUMPI PUSH2 0x3113 PUSH2 0x5C2F JUMP JUMPDEST PUSH1 0xCA DUP1 SLOAD PUSH3 0x10000 PUSH1 0x1 PUSH1 0xB0 SHL SUB NOT AND PUSH1 0x10 SWAP3 SWAP1 SWAP3 SHL PUSH3 0x10000 PUSH1 0x1 PUSH1 0xB0 SHL SUB AND SWAP2 SWAP1 SWAP2 OR SWAP1 SSTORE DUP1 RETURN JUMPDEST POP CALLVALUE PUSH2 0x823 JUMPI PUSH1 0x20 CALLDATASIZE PUSH1 0x3 NOT ADD SLT PUSH2 0x823 JUMPI PUSH2 0x3157 PUSH2 0x5C2F JUMP JUMPDEST PUSH1 0x4 CALLDATALOAD PUSH2 0x14A SSTORE DUP1 RETURN JUMPDEST PUSH1 0x20 DUP5 PUSH2 0x74B PUSH2 0x3172 CALLDATASIZE PUSH1 0x4 PUSH2 0x382C JUMP JUMPDEST SWAP5 SWAP4 SWAP1 SWAP4 SWAP3 SWAP2 SWAP3 PUSH2 0x523B JUMP JUMPDEST POP DUP3 CALLVALUE PUSH2 0x790 JUMPI DUP2 PUSH1 0x3 NOT CALLDATASIZE ADD SLT PUSH2 0x790 JUMPI PUSH1 0x20 SWAP1 PUSH2 0x140 SLOAD SWAP1 MLOAD SWAP1 DUP2 MSTORE RETURN JUMPDEST POP CALLVALUE PUSH2 0x823 JUMPI PUSH1 0x20 CALLDATASIZE PUSH1 0x3 NOT ADD SLT PUSH2 0x823 JUMPI PUSH1 0x4 CALLDATALOAD PUSH1 0x1 PUSH1 0x1 PUSH1 0xA0 SHL SUB DUP2 AND SWAP1 DUP2 SWAP1 SUB PUSH2 0x790 JUMPI PUSH2 0x31CD PUSH2 0x5C2F JUMP JUMPDEST PUSH2 0x147 DUP1 SLOAD PUSH1 0x1 PUSH1 0x1 PUSH1 0xA0 SHL SUB NOT AND SWAP1 SWAP2 OR SWAP1 SSTORE DUP1 RETURN JUMPDEST POP DUP3 CALLVALUE PUSH2 0x790 JUMPI DUP2 PUSH1 0x3 NOT CALLDATASIZE ADD SLT PUSH2 0x790 JUMPI PUSH2 0x229 SLOAD SWAP1 MLOAD PUSH1 0x1 PUSH1 0x1 PUSH1 0xA0 SHL SUB SWAP1 SWAP2 AND DUP2 MSTORE PUSH1 0x20 SWAP1 RETURN JUMPDEST POP DUP3 CALLVALUE PUSH2 0x790 JUMPI PUSH1 0x20 CALLDATASIZE PUSH1 0x3 NOT ADD SLT PUSH2 0x790 JUMPI PUSH1 0x4 CALLDATALOAD PUSH1 0x1 PUSH1 0x1 PUSH1 0xA0 SHL SUB DUP2 AND SWAP1 DUP2 SWAP1 SUB PUSH2 0x98A JUMPI DUP3 DUP3 SWAP2 PUSH1 0x20 SWAP5 MSTORE PUSH2 0x144 DUP5 MSTORE KECCAK256 SLOAD SWAP1 MLOAD SWAP1 DUP2 MSTORE RETURN JUMPDEST POP DUP3 CALLVALUE PUSH2 0x790 JUMPI DUP2 PUSH1 0x3 NOT CALLDATASIZE ADD SLT PUSH2 0x790 JUMPI PUSH1 0x20 SWAP1 PUSH1 0xFF PUSH2 0x14B SLOAD PUSH1 0x8 SHR AND SWAP1 MLOAD SWAP1 ISZERO ISZERO DUP2 MSTORE RETURN JUMPDEST POP DUP3 CALLVALUE PUSH2 0x790 JUMPI PUSH1 0xA0 CALLDATASIZE PUSH1 0x3 NOT ADD SLT PUSH2 0x790 JUMPI PUSH2 0x328E PUSH2 0x55CA JUMP JUMPDEST POP PUSH2 0x14F SLOAD PUSH1 0x1 PUSH1 0x1 PUSH1 0xA0 SHL SUB SWAP3 SWAP1 DUP4 AND CALLER SUB PUSH2 0x1282 JUMPI SWAP1 PUSH2 0x331F SWAP2 PUSH2 0x32B5 CALLDATASIZE PUSH1 0x4 PUSH2 0x55F1 JUMP JUMPDEST SWAP2 PUSH2 0x32BE PUSH2 0x55CA JUMP JUMPDEST POP PUSH2 0x32C7 PUSH2 0x4EA3 JUMP JUMPDEST PUSH2 0x32CF PUSH2 0x5CBD JUMP JUMPDEST PUSH8 0xDE0B6B3A7640000 PUSH2 0x32F2 PUSH2 0x1048 PUSH2 0x32E9 PUSH2 0x15A0 PUSH2 0x4566 JUMP JUMPDEST DUP8 MLOAD SWAP3 SWAP2 PUSH2 0x49BA JUMP JUMPDEST DIV SWAP5 DUP2 DUP5 ADD SWAP1 DUP1 DUP3 MLOAD AND SWAP2 PUSH2 0x3314 PUSH1 0x80 DUP8 ADD SWAP4 DUP10 DUP5 DUP7 MLOAD AND PUSH2 0x13C SLOAD SWAP3 PUSH2 0x5691 JUMP JUMPDEST SWAP7 SWAP2 DUP11 SWAP10 SWAP2 SWAP10 PUSH2 0x4156 JUMP JUMPDEST SWAP7 PUSH1 0x20 DUP2 ADD SWAP10 DUP11 MLOAD DUP1 DUP11 GT PUSH2 0x3448 JUMPI POP DUP9 ISZERO PUSH2 0x3437 JUMPI DUP2 PUSH1 0x20 SWAP2 DUP7 PUSH1 0x60 PUSH2 0x33A2 SWAP7 SWAP6 MLOAD SWAP4 ADD MLOAD AND SWAP1 PUSH2 0x134 PUSH2 0x3355 DUP5 DUP3 SLOAD PUSH2 0x4156 JUMP JUMPDEST SWAP1 SSTORE PUSH2 0x3365 PUSH2 0x131 SWAP2 DUP3 SLOAD PUSH2 0x4156 JUMP JUMPDEST SWAP1 SSTORE PUSH2 0x133 SLOAD DUP10 MLOAD PUSH4 0x40C10F19 PUSH1 0xE0 SHL DUP2 MSTORE PUSH1 0x1 PUSH1 0x1 PUSH1 0xA0 SHL SUB SWAP1 SWAP3 AND PUSH1 0x4 DUP4 ADD MSTORE PUSH1 0x24 DUP3 ADD SWAP3 SWAP1 SWAP3 MSTORE SWAP4 DUP5 SWAP2 DUP8 AND SWAP1 DUP3 SWAP1 DUP6 SWAP1 DUP3 SWAP1 PUSH1 0x44 DUP3 ADD SWAP1 JUMP JUMPDEST SUB SWAP3 GAS CALL DUP1 ISZERO PUSH2 0x342B JUMPI PUSH2 0x33D5 JUMPI JUMPDEST POP POP SWAP7 PUSH2 0x111C SWAP3 DUP3 PUSH2 0x1484 DUP9 DUP9 SWAP6 PUSH2 0xDCE SWAP11 SWAP12 SWAP13 DUP7 MLOAD PUSH2 0x1479 PUSH2 0x14E SWAP2 DUP3 SLOAD PUSH2 0x407B JUMP JUMPDEST PUSH1 0x20 DUP3 RETURNDATASIZE DUP3 GT PUSH2 0x3423 JUMPI JUMPDEST DUP2 PUSH2 0x33ED PUSH1 0x20 SWAP4 DUP4 PUSH2 0x3958 JUMP JUMPDEST DUP2 ADD SUB SLT PUSH2 0x823 JUMPI POP SWAP3 DUP3 PUSH2 0x1484 DUP9 DUP9 SWAP6 PUSH2 0xDCE SWAP11 SWAP12 SWAP13 SWAP6 PUSH2 0x3411 PUSH2 0x111C SWAP10 PUSH2 0x3F7C JUMP JUMPDEST POP SWAP6 SWAP13 SWAP12 POP SWAP6 POP SWAP9 POP POP DUP2 SWAP5 POP PUSH2 0x33B1 JUMP JUMPDEST RETURNDATASIZE SWAP2 POP PUSH2 0x33E0 JUMP JUMPDEST POP DUP6 MLOAD SWAP1 RETURNDATASIZE SWAP1 DUP3 RETURNDATACOPY RETURNDATASIZE SWAP1 REVERT JUMPDEST DUP7 MLOAD PUSH4 0xF3E39B5D PUSH1 0xE0 SHL DUP2 MSTORE PUSH1 0x4 SWAP1 REVERT JUMPDEST PUSH1 0x44 SWAP1 DUP11 DUP10 MLOAD SWAP2 PUSH4 0xB63F1A7 PUSH1 0xE0 SHL DUP4 MSTORE PUSH1 0x4 DUP4 ADD MSTORE PUSH1 0x24 DUP3 ADD MSTORE REVERT JUMPDEST POP CALLVALUE PUSH2 0x823 JUMPI PUSH1 0x20 CALLDATASIZE PUSH1 0x3 NOT ADD SLT PUSH2 0x823 JUMPI PUSH2 0x347F PUSH2 0x5C2F JUMP JUMPDEST PUSH1 0x4 CALLDATALOAD PUSH2 0x142 SSTORE DUP1 RETURN JUMPDEST POP CALLVALUE PUSH2 0x823 JUMPI PUSH1 0x20 CALLDATASIZE PUSH1 0x3 NOT ADD SLT PUSH2 0x823 JUMPI PUSH1 0x4 CALLDATALOAD DUP1 ISZERO ISZERO DUP1 SWAP2 SUB PUSH2 0x790 JUMPI PUSH2 0x34B0 PUSH2 0x5C2F JUMP JUMPDEST PUSH2 0x14B SWAP1 PUSH1 0xFF DUP1 NOT DUP4 SLOAD AND SWAP2 AND OR SWAP1 SSTORE DUP1 RETURN JUMPDEST POP DUP3 CALLVALUE PUSH2 0x790 JUMPI DUP2 PUSH1 0x3 NOT CALLDATASIZE ADD SLT PUSH2 0x790 JUMPI PUSH1 0x20 SWAP1 PUSH2 0x74B PUSH2 0x34E6 PUSH2 0xBFC PUSH2 0x4566 JUMP JUMPDEST SWAP1 PUSH2 0x49BA JUMP JUMPDEST POP DUP3 CALLVALUE PUSH2 0x790 JUMPI DUP2 PUSH1 0x3 NOT CALLDATASIZE ADD SLT PUSH2 0x790 JUMPI PUSH1 0x20 SWAP1 PUSH2 0x14D SLOAD SWAP1 MLOAD SWAP1 DUP2 MSTORE RETURN JUMPDEST POP DUP3 CALLVALUE PUSH2 0x790 JUMPI PUSH1 0x20 CALLDATASIZE PUSH1 0x3 NOT ADD SLT PUSH2 0x790 JUMPI PUSH1 0x4 CALLDATALOAD SWAP2 PUSH1 0x1 PUSH1 0x1 PUSH1 0xA0 SHL SUB DUP4 AND DUP4 SUB PUSH2 0x823 JUMPI POP PUSH2 0x74B PUSH1 0x20 SWAP3 CALLER SWAP1 CALLER SWAP1 PUSH2 0x47A4 JUMP JUMPDEST PUSH1 0x20 DUP5 PUSH2 0x74B PUSH2 0x3554 CALLDATASIZE PUSH1 0x4 PUSH2 0x382C JUMP JUMPDEST SWAP5 SWAP4 SWAP1 SWAP4 SWAP3 SWAP2 SWAP3 PUSH2 0x5145 JUMP JUMPDEST POP DUP3 CALLVALUE PUSH2 0x790 JUMPI DUP2 PUSH1 0x3 NOT CALLDATASIZE ADD SLT PUSH2 0x790 JUMPI PUSH2 0x14F SLOAD SWAP1 MLOAD PUSH1 0x1 PUSH1 0x1 PUSH1 0xA0 SHL SUB SWAP1 SWAP2 AND DUP2 MSTORE PUSH1 0x20 SWAP1 RETURN JUMPDEST POP CALLVALUE PUSH2 0x823 JUMPI PUSH1 0x20 CALLDATASIZE PUSH1 0x3 NOT ADD SLT PUSH2 0x823 JUMPI PUSH1 0x4 CALLDATALOAD PUSH1 0x1 PUSH1 0x1 PUSH1 0xA0 SHL SUB DUP2 AND SWAP1 DUP2 SWAP1 SUB PUSH2 0x790 JUMPI PUSH2 0x35B9 PUSH2 0x5C2F JUMP JUMPDEST PUSH2 0x130 DUP1 SLOAD PUSH1 0x1 PUSH1 0x1 PUSH1 0xA0 SHL SUB NOT AND SWAP1 SWAP2 OR SWAP1 SSTORE DUP1 RETURN JUMPDEST POP CALLVALUE PUSH2 0x823 JUMPI PUSH1 0x20 CALLDATASIZE PUSH1 0x3 NOT ADD SLT PUSH2 0x823 JUMPI PUSH2 0x35EA PUSH2 0x5C2F JUMP JUMPDEST PUSH1 0x4 CALLDATALOAD PUSH2 0x13F SSTORE DUP1 RETURN JUMPDEST POP DUP3 CALLVALUE PUSH2 0x790 JUMPI DUP2 PUSH1 0x3 NOT CALLDATASIZE ADD SLT PUSH2 0x790 JUMPI PUSH1 0x20 SWAP1 PUSH2 0x159 SLOAD SWAP1 MLOAD SWAP1 DUP2 MSTORE RETURN JUMPDEST POP CALLVALUE PUSH2 0x823 JUMPI PUSH1 0x20 CALLDATASIZE PUSH1 0x3 NOT ADD SLT PUSH2 0x823 JUMPI PUSH1 0x4 CALLDATALOAD PUSH1 0x1 PUSH1 0x1 PUSH1 0xA0 SHL SUB DUP2 AND SWAP1 DUP2 SWAP1 SUB PUSH2 0x790 JUMPI PUSH2 0x3643 PUSH2 0x5C2F JUMP JUMPDEST PUSH2 0x146 DUP1 SLOAD PUSH1 0x1 PUSH1 0x1 PUSH1 0xA0 SHL SUB NOT AND SWAP1 SWAP2 OR SWAP1 SSTORE DUP1 RETURN JUMPDEST POP DUP3 CALLVALUE PUSH2 0x790 JUMPI DUP2 PUSH1 0x3 NOT CALLDATASIZE ADD SLT PUSH2 0x790 JUMPI PUSH1 0x20 SWAP1 PUSH2 0x18F SLOAD SWAP1 MLOAD SWAP1 DUP2 MSTORE RETURN JUMPDEST POP DUP3 CALLVALUE PUSH2 0x790 JUMPI DUP2 PUSH1 0x3 NOT CALLDATASIZE ADD SLT PUSH2 0x790 JUMPI PUSH1 0x97 SLOAD SWAP1 MLOAD PUSH1 0x1 PUSH1 0x1 PUSH1 0xA0 SHL SUB SWAP1 SWAP2 AND DUP2 MSTORE PUSH1 0x20 SWAP1 RETURN JUMPDEST POP DUP3 DUP1 PUSH1 0x3 NOT CALLDATASIZE ADD SLT PUSH2 0x790 JUMPI PUSH2 0x74B PUSH1 0x20 SWAP3 CALLER PUSH1 0x24 CALLDATALOAD PUSH1 0x4 CALLDATALOAD PUSH2 0x4D4A JUMP JUMPDEST POP CALLVALUE PUSH2 0x823 JUMPI PUSH1 0x20 CALLDATASIZE PUSH1 0x3 NOT ADD SLT PUSH2 0x823 JUMPI PUSH2 0x36DC PUSH2 0x5C2F JUMP JUMPDEST PUSH1 0x4 CALLDATALOAD PUSH2 0x15A SSTORE DUP1 RETURN JUMPDEST POP DUP3 CALLVALUE PUSH2 0x790 JUMPI DUP2 PUSH1 0x3 NOT CALLDATASIZE ADD SLT PUSH2 0x790 JUMPI PUSH2 0x3700 PUSH2 0x5CBD JUMP JUMPDEST PUSH2 0x15B DUP1 SLOAD NUMBER LT PUSH2 0x376E JUMPI SWAP1 PUSH2 0xBAC SWAP2 PUSH2 0x15A SLOAD NUMBER ADD SWAP1 SSTORE PUSH32 0xE37FDA283839477A1B77E29ACF8336C0E13A5DAA967913DF0FE5AD258C0822F PUSH1 0x20 PUSH8 0xDE0B6B3A7640000 PUSH2 0x3755 PUSH2 0x131 SLOAD PUSH2 0x159 SLOAD SWAP1 PUSH2 0x4288 JUMP JUMPDEST DIV SWAP3 MLOAD DUP4 DUP2 MSTORE LOG1 PUSH2 0x158 SLOAD PUSH1 0x1 PUSH1 0x1 PUSH1 0xA0 SHL SUB AND PUSH2 0x3F25 JUMP JUMPDEST DUP2 MLOAD PUSH4 0xACCE20E5 PUSH1 0xE0 SHL DUP2 MSTORE PUSH1 0x4 SWAP1 REVERT JUMPDEST POP DUP3 CALLVALUE PUSH2 0x790 JUMPI PUSH1 0x20 CALLDATASIZE PUSH1 0x3 NOT ADD SLT PUSH2 0x790 JUMPI PUSH1 0x4 CALLDATALOAD SWAP2 PUSH2 0x135 SWAP1 DUP2 SLOAD DUP5 LT ISZERO PUSH2 0x823 JUMPI POP PUSH1 0x20 SWAP3 PUSH2 0x37B0 SWAP2 PUSH2 0x37EA JUMP JUMPDEST SWAP1 SLOAD SWAP2 MLOAD SWAP2 PUSH1 0x1 DUP1 PUSH1 0xA0 SHL SUB SWAP2 PUSH1 0x3 SHL SHR AND DUP2 MSTORE RETURN JUMPDEST POP CALLVALUE PUSH2 0x823 JUMPI PUSH1 0x20 CALLDATASIZE PUSH1 0x3 NOT ADD SLT PUSH2 0x823 JUMPI PUSH2 0x37E0 PUSH2 0x5C2F JUMP JUMPDEST PUSH1 0x4 CALLDATALOAD PUSH2 0x13A SSTORE DUP1 RETURN JUMPDEST DUP1 SLOAD DUP3 LT ISZERO PUSH2 0x3802 JUMPI PUSH1 0x0 MSTORE PUSH1 0x20 PUSH1 0x0 KECCAK256 ADD SWAP1 PUSH1 0x0 SWAP1 JUMP JUMPDEST PUSH4 0x4E487B71 PUSH1 0xE0 SHL PUSH1 0x0 MSTORE PUSH1 0x32 PUSH1 0x4 MSTORE PUSH1 0x24 PUSH1 0x0 REVERT JUMPDEST CALLDATALOAD SWAP1 PUSH1 0x1 PUSH1 0x1 PUSH1 0xA0 SHL SUB DUP3 AND DUP3 SUB PUSH2 0x752 JUMPI JUMP JUMPDEST SWAP2 SWAP1 DUP3 PUSH1 0xC0 SWAP2 SUB SLT PUSH2 0x752 JUMPI PUSH2 0x3841 DUP3 PUSH2 0x3818 JUMP JUMPDEST SWAP2 PUSH1 0x20 DUP2 ADD CALLDATALOAD SWAP2 PUSH1 0x40 DUP3 ADD CALLDATALOAD SWAP2 PUSH1 0x60 DUP2 ADD CALLDATALOAD SWAP2 PUSH2 0x386C PUSH1 0xA0 PUSH2 0x3865 PUSH1 0x80 DUP6 ADD PUSH2 0x3818 JUMP JUMPDEST SWAP4 ADD PUSH2 0x3818 JUMP JUMPDEST SWAP1 JUMP JUMPDEST PUSH1 0x40 SWAP1 PUSH2 0x38AB SWAP4 SWAP6 SWAP5 SWAP3 SWAP6 PUSH1 0xC0 DUP3 ADD SWAP7 DUP3 MSTORE PUSH1 0x20 DUP3 ADD MSTORE ADD SWAP1 PUSH1 0x60 DUP1 SWAP2 DUP1 MLOAD DUP5 MSTORE PUSH1 0x20 DUP2 ADD MLOAD PUSH1 0x20 DUP6 ADD MSTORE PUSH1 0x40 DUP2 ADD MLOAD PUSH1 0x40 DUP6 ADD MSTORE ADD MLOAD SWAP2 ADD MSTORE JUMP JUMPDEST JUMP JUMPDEST SWAP2 SWAP1 DUP3 PUSH1 0x80 SWAP2 SUB SLT PUSH2 0x752 JUMPI PUSH2 0x38C2 DUP3 PUSH2 0x3818 JUMP JUMPDEST SWAP2 PUSH1 0x20 DUP2 ADD CALLDATALOAD SWAP2 PUSH1 0x60 PUSH1 0x40 DUP4 ADD CALLDATALOAD SWAP3 ADD CALLDATALOAD SWAP1 JUMP JUMPDEST PUSH2 0x38AB SWAP4 PUSH1 0x60 SWAP3 SWAP7 SWAP6 SWAP4 PUSH1 0xE0 DUP4 ADD SWAP8 DUP4 MSTORE PUSH1 0x20 DUP4 ADD MSTORE PUSH1 0x40 DUP3 ADD MSTORE ADD SWAP1 PUSH1 0x60 DUP1 SWAP2 DUP1 MLOAD DUP5 MSTORE PUSH1 0x20 DUP2 ADD MLOAD PUSH1 0x20 DUP6 ADD MSTORE PUSH1 0x40 DUP2 ADD MLOAD PUSH1 0x40 DUP6 ADD MSTORE ADD MLOAD SWAP2 ADD MSTORE JUMP JUMPDEST SWAP2 SWAP1 DUP3 PUSH1 0x80 SWAP2 SUB SLT PUSH2 0x752 JUMPI DUP2 CALLDATALOAD SWAP2 PUSH1 0x20 DUP2 ADD CALLDATALOAD SWAP2 PUSH2 0x386C PUSH1 0x60 PUSH2 0x3865 PUSH1 0x40 DUP6 ADD PUSH2 0x3818 JUMP JUMPDEST DUP1 SLOAD DUP3 LT ISZERO PUSH2 0x3802 JUMPI PUSH1 0x0 MSTORE PUSH1 0x20 PUSH1 0x0 KECCAK256 SWAP1 PUSH1 0x1 SHL ADD SWAP1 PUSH1 0x0 SWAP1 JUMP JUMPDEST SWAP1 PUSH1 0x1F DUP1 NOT SWAP2 ADD AND DUP2 ADD SWAP1 DUP2 LT PUSH8 0xFFFFFFFFFFFFFFFF DUP3 GT OR PUSH2 0x397A JUMPI PUSH1 0x40 MSTORE JUMP JUMPDEST PUSH4 0x4E487B71 PUSH1 0xE0 SHL PUSH1 0x0 MSTORE PUSH1 0x41 PUSH1 0x4 MSTORE PUSH1 0x24 PUSH1 0x0 REVERT JUMPDEST PUSH8 0xFFFFFFFFFFFFFFFF DUP2 GT PUSH2 0x397A JUMPI PUSH1 0x1F ADD PUSH1 0x1F NOT AND PUSH1 0x20 ADD SWAP1 JUMP JUMPDEST SWAP2 SWAP1 DUP3 PUSH1 0x80 SWAP2 SUB SLT PUSH2 0x752 JUMPI PUSH2 0x39C1 DUP3 PUSH2 0x3818 JUMP JUMPDEST SWAP2 PUSH1 0x20 DUP2 ADD CALLDATALOAD SWAP2 PUSH2 0x386C PUSH1 0x60 PUSH1 0x40 DUP5 ADD CALLDATALOAD SWAP4 ADD PUSH2 0x3818 JUMP JUMPDEST SWAP1 DUP2 PUSH1 0xA0 SWAP2 SUB SLT PUSH2 0x752 JUMPI PUSH2 0x39ED DUP2 PUSH2 0x3818 JUMP JUMPDEST SWAP2 PUSH1 0x20 DUP3 ADD CALLDATALOAD SWAP2 PUSH1 0x40 DUP2 ADD CALLDATALOAD SWAP2 PUSH2 0x386C PUSH1 0x80 PUSH1 0x60 DUP5 ADD CALLDATALOAD SWAP4 ADD PUSH2 0x3818 JUMP JUMPDEST SWAP2 SWAP1 DUP3 PUSH1 0xC0 SWAP2 SUB SLT PUSH2 0x752 JUMPI PUSH2 0x3A20 DUP3 PUSH2 0x3818 JUMP JUMPDEST SWAP2 PUSH2 0x3A2D PUSH1 0x20 DUP3 ADD PUSH2 0x3818 JUMP JUMPDEST SWAP2 PUSH1 0x40 DUP3 ADD CALLDATALOAD SWAP2 PUSH1 0x60 DUP2 ADD CALLDATALOAD SWAP2 PUSH2 0x386C PUSH1 0xA0 PUSH1 0x80 DUP5 ADD CALLDATALOAD SWAP4 ADD PUSH2 0x3818 JUMP JUMPDEST SWAP1 DUP2 PUSH1 0xA0 SWAP2 SUB SLT PUSH2 0x752 JUMPI PUSH2 0x3A5F DUP2 PUSH2 0x3818 JUMP JUMPDEST SWAP2 PUSH1 0x20 DUP3 ADD CALLDATALOAD SWAP2 PUSH1 0x40 DUP2 ADD CALLDATALOAD SWAP2 PUSH2 0x386C PUSH1 0x80 PUSH2 0x3865 PUSH1 0x60 DUP6 ADD PUSH2 0x3818 JUMP JUMPDEST ISZERO PUSH2 0x3A84 JUMPI JUMP JUMPDEST PUSH1 0x40 MLOAD PUSH3 0x461BCD PUSH1 0xE5 SHL DUP2 MSTORE PUSH1 0x20 PUSH1 0x4 DUP3 ADD MSTORE PUSH1 0x2C PUSH1 0x24 DUP3 ADD MSTORE PUSH32 0x46756E6374696F6E206D7573742062652063616C6C6564207468726F75676820 PUSH1 0x44 DUP3 ADD MSTORE PUSH12 0x19195B1959D85D1958D85B1B PUSH1 0xA2 SHL PUSH1 0x64 DUP3 ADD MSTORE PUSH1 0x84 SWAP1 REVERT JUMPDEST ISZERO PUSH2 0x3AE5 JUMPI JUMP JUMPDEST PUSH1 0x40 MLOAD PUSH3 0x461BCD PUSH1 0xE5 SHL DUP2 MSTORE PUSH1 0x20 PUSH1 0x4 DUP3 ADD MSTORE PUSH1 0x2C PUSH1 0x24 DUP3 ADD MSTORE PUSH32 0x46756E6374696F6E206D7573742062652063616C6C6564207468726F75676820 PUSH1 0x44 DUP3 ADD MSTORE PUSH12 0x6163746976652070726F7879 PUSH1 0xA0 SHL PUSH1 0x64 DUP3 ADD MSTORE PUSH1 0x84 SWAP1 REVERT JUMPDEST SWAP1 PUSH1 0xFF PUSH32 0x4910FDFA16FED3260ED0E7147F7CC6DA11A60208B5B9406D12A635614FFD9143 SLOAD AND PUSH1 0x0 EQ PUSH2 0x3B77 JUMPI POP PUSH2 0x38AB SWAP2 POP PUSH2 0x3D2B JUMP JUMPDEST PUSH1 0x40 MLOAD PUSH4 0x52D1902D PUSH1 0xE0 SHL DUP2 MSTORE PUSH1 0x20 SWAP4 SWAP2 SWAP3 SWAP2 SWAP1 PUSH1 0x1 PUSH1 0x1 PUSH1 0xA0 SHL SUB DUP4 AND SWAP1 DUP6 DUP2 PUSH1 0x4 DUP2 DUP6 GAS STATICCALL PUSH1 0x0 SWAP2 DUP2 PUSH2 0x3CFC JUMPI JUMPDEST POP PUSH2 0x3C08 JUMPI PUSH1 0x40 MLOAD PUSH3 0x461BCD PUSH1 0xE5 SHL DUP2 MSTORE PUSH1 0x4 DUP2 ADD DUP8 SWAP1 MSTORE PUSH1 0x2E PUSH1 0x24 DUP3 ADD MSTORE PUSH32 0x45524331393637557067726164653A206E657720696D706C656D656E74617469 PUSH1 0x44 DUP3 ADD MSTORE PUSH14 0x6F6E206973206E6F742055555053 PUSH1 0x90 SHL PUSH1 0x64 DUP3 ADD MSTORE PUSH1 0x84 SWAP1 REVERT JUMPDEST SWAP4 SWAP5 SWAP4 PUSH32 0xC9F76B5EC45E5CDEF99837D7B6D2467235C1DF8933C8CA56DF5C35AFA2C7D444 ADD PUSH2 0x3CA5 JUMPI PUSH2 0x3C3A DUP4 PUSH2 0x3D2B JUMP JUMPDEST PUSH32 0xBC7CD75A20EE27FD9ADEBAB32041F755214DBC6BFFA90CC0225B39DA2E5C2D3B PUSH1 0x0 DUP1 LOG2 DUP4 MLOAD ISZERO SWAP1 DUP2 ISZERO SWAP2 PUSH2 0x3C9D JUMPI JUMPDEST POP PUSH2 0x3C75 JUMPI POP POP POP JUMP JUMPDEST PUSH1 0x0 DUP1 PUSH2 0x3C9A SWAP5 PUSH2 0x3C84 PUSH2 0x3DCD JUMP JUMPDEST SWAP5 DUP2 MLOAD SWAP2 ADD DUP5 GAS DELEGATECALL PUSH2 0x3C94 PUSH2 0x3E21 JUMP JUMPDEST SWAP2 PUSH2 0x3E51 JUMP JUMPDEST POP JUMP JUMPDEST SWAP1 POP CODESIZE PUSH2 0x3C6B JUMP JUMPDEST PUSH1 0x40 MLOAD PUSH3 0x461BCD PUSH1 0xE5 SHL DUP2 MSTORE PUSH1 0x4 DUP2 ADD DUP6 SWAP1 MSTORE PUSH1 0x29 PUSH1 0x24 DUP3 ADD MSTORE PUSH32 0x45524331393637557067726164653A20756E737570706F727465642070726F78 PUSH1 0x44 DUP3 ADD MSTORE PUSH9 0x1A58589B1955555251 PUSH1 0xBA SHL PUSH1 0x64 DUP3 ADD MSTORE PUSH1 0x84 SWAP1 REVERT JUMPDEST SWAP1 SWAP2 DUP8 DUP3 DUP2 RETURNDATASIZE DUP4 GT PUSH2 0x3D24 JUMPI JUMPDEST PUSH2 0x3D13 DUP2 DUP4 PUSH2 0x3958 JUMP JUMPDEST DUP2 ADD SUB SLT PUSH2 0x823 JUMPI POP MLOAD SWAP1 CODESIZE PUSH2 0x3BA7 JUMP JUMPDEST POP RETURNDATASIZE PUSH2 0x3D09 JUMP JUMPDEST DUP1 EXTCODESIZE ISZERO PUSH2 0x3D72 JUMPI PUSH32 0x360894A13BA1A3210667C828492DB98DCA3E2076CC3735A920A3CA505D382BBC DUP1 SLOAD PUSH1 0x1 PUSH1 0x1 PUSH1 0xA0 SHL SUB NOT AND PUSH1 0x1 PUSH1 0x1 PUSH1 0xA0 SHL SUB SWAP1 SWAP3 AND SWAP2 SWAP1 SWAP2 OR SWAP1 SSTORE JUMP JUMPDEST PUSH1 0x40 MLOAD PUSH3 0x461BCD PUSH1 0xE5 SHL DUP2 MSTORE PUSH1 0x20 PUSH1 0x4 DUP3 ADD MSTORE PUSH1 0x2D PUSH1 0x24 DUP3 ADD MSTORE PUSH32 0x455243313936373A206E657720696D706C656D656E746174696F6E206973206E PUSH1 0x44 DUP3 ADD MSTORE PUSH13 0x1BDD08184818DBDB9D1C9858DD PUSH1 0x9A SHL PUSH1 0x64 DUP3 ADD MSTORE PUSH1 0x84 SWAP1 REVERT JUMPDEST PUSH2 0x3DD7 PUSH1 0x27 PUSH2 0x3990 JUMP JUMPDEST SWAP1 PUSH2 0x3DE5 PUSH1 0x40 MLOAD SWAP3 DUP4 PUSH2 0x3958 JUMP JUMPDEST PUSH1 0x27 DUP3 MSTORE PUSH7 0x819985A5B1959 PUSH1 0xCA SHL PUSH1 0x40 DUP4 PUSH32 0x416464726573733A206C6F772D6C6576656C2064656C65676174652063616C6C PUSH1 0x20 DUP3 ADD MSTORE ADD MSTORE JUMP JUMPDEST RETURNDATASIZE ISZERO PUSH2 0x3E4C JUMPI RETURNDATASIZE SWAP1 PUSH2 0x3E32 DUP3 PUSH2 0x3990 JUMP JUMPDEST SWAP2 PUSH2 0x3E40 PUSH1 0x40 MLOAD SWAP4 DUP5 PUSH2 0x3958 JUMP JUMPDEST DUP3 MSTORE RETURNDATASIZE PUSH1 0x0 PUSH1 0x20 DUP5 ADD RETURNDATACOPY JUMP JUMPDEST PUSH1 0x60 SWAP1 JUMP JUMPDEST SWAP2 SWAP3 SWAP1 ISZERO PUSH2 0x3EB3 JUMPI POP DUP2 MLOAD ISZERO PUSH2 0x3E65 JUMPI POP SWAP1 JUMP JUMPDEST EXTCODESIZE ISZERO PUSH2 0x3E6E JUMPI SWAP1 JUMP JUMPDEST PUSH1 0x40 MLOAD PUSH3 0x461BCD PUSH1 0xE5 SHL DUP2 MSTORE PUSH1 0x20 PUSH1 0x4 DUP3 ADD MSTORE PUSH1 0x1D PUSH1 0x24 DUP3 ADD MSTORE PUSH32 0x416464726573733A2063616C6C20746F206E6F6E2D636F6E7472616374000000 PUSH1 0x44 DUP3 ADD MSTORE PUSH1 0x64 SWAP1 REVERT JUMPDEST DUP3 MLOAD SWAP1 SWAP2 POP ISZERO PUSH2 0x3EC6 JUMPI POP DUP1 MLOAD SWAP1 PUSH1 0x20 ADD REVERT JUMPDEST PUSH1 0x40 MLOAD SWAP1 PUSH3 0x461BCD PUSH1 0xE5 SHL DUP3 MSTORE DUP2 PUSH1 0x20 DUP1 PUSH1 0x4 DUP4 ADD MSTORE DUP3 MLOAD SWAP1 DUP2 PUSH1 0x24 DUP5 ADD MSTORE PUSH1 0x0 SWAP4 JUMPDEST DUP3 DUP6 LT PUSH2 0x3F0C JUMPI POP POP PUSH1 0x44 SWAP3 POP PUSH1 0x0 DUP4 DUP3 DUP5 ADD ADD MSTORE PUSH1 0x1F DUP1 NOT SWAP2 ADD AND DUP2 ADD SUB ADD SWAP1 REVERT JUMPDEST DUP5 DUP2 ADD DUP3 ADD MLOAD DUP7 DUP7 ADD PUSH1 0x44 ADD MSTORE SWAP4 DUP2 ADD SWAP4 DUP6 SWAP4 POP PUSH2 0x3EE9 JUMP JUMPDEST SWAP1 DUP1 PUSH2 0x3F2F JUMPI POP POP JUMP JUMPDEST PUSH2 0x229 SLOAD PUSH1 0x40 MLOAD PUSH4 0xA9059CBB PUSH1 0xE0 SHL PUSH1 0x20 DUP3 ADD MSTORE PUSH1 0x1 PUSH1 0x1 PUSH1 0xA0 SHL SUB SWAP4 DUP5 AND PUSH1 0x24 DUP3 ADD MSTORE PUSH1 0x44 DUP2 ADD SWAP3 SWAP1 SWAP3 MSTORE PUSH2 0x38AB SWAP3 AND PUSH2 0x3F77 DUP3 PUSH1 0x64 DUP2 ADD JUMPDEST SUB PUSH1 0x1F NOT DUP2 ADD DUP5 MSTORE DUP4 PUSH2 0x3958 JUMP JUMPDEST PUSH2 0x3F89 JUMP JUMPDEST MLOAD SWAP1 DUP2 ISZERO ISZERO DUP3 SUB PUSH2 0x752 JUMPI JUMP JUMPDEST PUSH1 0x20 SWAP2 PUSH2 0x3FEC SWAP2 PUSH1 0x1 PUSH1 0x1 PUSH1 0xA0 SHL SUB AND PUSH1 0x0 DUP1 PUSH2 0x3FA5 DUP7 PUSH2 0x3990 JUMP JUMPDEST SWAP4 PUSH2 0x3FB3 PUSH1 0x40 MLOAD SWAP6 DUP7 PUSH2 0x3958 JUMP JUMPDEST DUP7 DUP6 MSTORE PUSH32 0x5361666545524332303A206C6F772D6C6576656C2063616C6C206661696C6564 DUP8 DUP7 ADD MSTORE DUP7 DUP2 MLOAD SWAP2 ADD DUP3 DUP6 GAS CALL PUSH2 0x3C94 PUSH2 0x3E21 JUMP JUMPDEST DUP1 MLOAD DUP3 DUP2 ISZERO SWAP2 DUP3 ISZERO PUSH2 0x405C JUMPI JUMPDEST POP POP SWAP1 POP ISZERO PUSH2 0x4005 JUMPI POP JUMP JUMPDEST PUSH1 0x84 SWAP1 PUSH1 0x40 MLOAD SWAP1 PUSH3 0x461BCD PUSH1 0xE5 SHL DUP3 MSTORE PUSH1 0x4 DUP3 ADD MSTORE PUSH1 0x2A PUSH1 0x24 DUP3 ADD MSTORE PUSH32 0x5361666545524332303A204552433230206F7065726174696F6E20646964206E PUSH1 0x44 DUP3 ADD MSTORE PUSH10 0x1BDD081CDD58D8D95959 PUSH1 0xB2 SHL PUSH1 0x64 DUP3 ADD MSTORE REVERT JUMPDEST DUP4 DUP1 SWAP3 SWAP4 POP ADD SUB SLT PUSH2 0x752 JUMPI DUP2 PUSH2 0x4073 SWAP2 ADD PUSH2 0x3F7C JUMP JUMPDEST DUP1 DUP3 CODESIZE PUSH2 0x3FF9 JUMP JUMPDEST SWAP2 SWAP1 DUP3 SUB SWAP2 DUP3 GT PUSH2 0x4088 JUMPI JUMP JUMPDEST PUSH4 0x4E487B71 PUSH1 0xE0 SHL PUSH1 0x0 MSTORE PUSH1 0x11 PUSH1 0x4 MSTORE PUSH1 0x24 PUSH1 0x0 REVERT JUMPDEST PUSH2 0x40A7 ADDRESS PUSH2 0x40DB JUMP JUMPDEST PUSH2 0x131 SWAP1 PUSH2 0x40C4 PUSH2 0x40BA DUP4 SLOAD DUP1 SWAP4 PUSH2 0x407B JUMP JUMPDEST PUSH2 0x14E SLOAD SWAP1 PUSH2 0x407B JUMP JUMPDEST DUP1 PUSH2 0x40CE JUMPI POP POP POP JUMP JUMPDEST PUSH2 0x40D7 SWAP2 PUSH2 0x4156 JUMP JUMPDEST SWAP1 SSTORE JUMP JUMPDEST PUSH2 0x229 SLOAD PUSH1 0x40 MLOAD PUSH4 0x70A08231 PUSH1 0xE0 SHL DUP2 MSTORE PUSH1 0x1 PUSH1 0x1 PUSH1 0xA0 SHL SUB SWAP3 DUP4 AND PUSH1 0x4 DUP3 ADD MSTORE SWAP2 PUSH1 0x20 SWAP2 DUP4 SWAP2 PUSH1 0x24 SWAP2 DUP4 SWAP2 AND GAS STATICCALL SWAP1 DUP2 ISZERO PUSH2 0x414A JUMPI PUSH1 0x0 SWAP2 PUSH2 0x411C JUMPI POP SWAP1 JUMP JUMPDEST SWAP1 PUSH1 0x20 DUP3 RETURNDATASIZE DUP3 GT PUSH2 0x4142 JUMPI JUMPDEST DUP2 PUSH2 0x4135 PUSH1 0x20 SWAP4 DUP4 PUSH2 0x3958 JUMP JUMPDEST DUP2 ADD SUB SLT PUSH2 0x823 JUMPI POP MLOAD SWAP1 JUMP JUMPDEST RETURNDATASIZE SWAP2 POP PUSH2 0x4128 JUMP JUMPDEST PUSH1 0x40 MLOAD RETURNDATASIZE PUSH1 0x0 DUP3 RETURNDATACOPY RETURNDATASIZE SWAP1 REVERT JUMPDEST SWAP2 SWAP1 DUP3 ADD DUP1 SWAP3 GT PUSH2 0x4088 JUMPI JUMP JUMPDEST DUP1 MLOAD DUP3 LT ISZERO PUSH2 0x3802 JUMPI PUSH1 0x20 SWAP2 PUSH1 0x5 SHL ADD ADD SWAP1 JUMP JUMPDEST SWAP1 PUSH1 0x0 SWAP2 PUSH1 0x0 SWAP1 PUSH2 0x137 DUP1 SLOAD SWAP1 PUSH1 0x0 SWAP3 JUMPDEST DUP3 DUP5 LT PUSH2 0x41AE JUMPI POP POP POP POP PUSH2 0x41AA PUSH8 0xDE0B6B3A7640000 SWAP2 PUSH2 0x139 SLOAD SWAP1 PUSH2 0x4288 JUMP JUMPDEST DIV SWAP1 JUMP JUMPDEST SWAP1 SWAP2 SWAP3 SWAP4 SWAP6 PUSH2 0x41FB PUSH2 0x41EA PUSH2 0x41F5 PUSH1 0x1 SWAP4 PUSH2 0x41EF PUSH2 0x41CC DUP11 DUP9 PUSH2 0x4163 JUMP JUMPDEST MLOAD PUSH2 0x41D7 DUP2 DUP13 PUSH2 0x4221 JUMP JUMPDEST SWAP6 SWAP1 PUSH2 0x41E3 DUP14 DUP13 PUSH2 0x393C JUMP JUMPDEST POP SLOAD PUSH2 0x4156 JUMP JUMPDEST PUSH2 0x5CDE JUMP JUMPDEST SWAP1 PUSH2 0x4156 JUMP JUMPDEST SWAP9 PUSH2 0x4156 JUMP JUMPDEST SWAP5 ADD SWAP3 SWAP2 SWAP1 PUSH2 0x4188 JUMP JUMPDEST SWAP2 SWAP1 SWAP2 PUSH1 0x0 DUP4 DUP3 ADD SWAP4 DUP5 SLT SWAP2 SLT SWAP1 DUP1 ISZERO DUP3 AND SWAP2 ISZERO AND OR PUSH2 0x4088 JUMPI JUMP JUMPDEST SWAP2 SWAP1 PUSH1 0x0 SWAP1 PUSH2 0x424F DUP2 PUSH1 0x0 SWAP6 PUSH2 0x4245 PUSH2 0x423C DUP3 PUSH2 0x150 PUSH2 0x37EA JUMP JUMPDEST SWAP4 SWAP1 SLOAD SWAP3 PUSH2 0x42D4 JUMP JUMPDEST SWAP2 PUSH1 0x3 SHL SHR PUSH2 0x4205 JUMP JUMPDEST PUSH1 0x0 DUP2 SGT PUSH2 0x425E JUMPI JUMPDEST POP POP SWAP2 SWAP1 JUMP JUMPDEST PUSH2 0x4280 SWAP2 SWAP5 POP PUSH2 0x26A6 SWAP3 POP DUP1 SWAP5 PUSH8 0xDE0B6B3A7640000 SWAP4 DUP5 SWAP2 PUSH2 0x13A SLOAD PUSH2 0x4288 JUMP JUMPDEST DIV CODESIZE DUP1 PUSH2 0x4258 JUMP JUMPDEST DUP2 DUP2 MUL SWAP3 SWAP2 DUP2 ISZERO SWAP2 DUP5 DIV EQ OR ISZERO PUSH2 0x4088 JUMPI JUMP JUMPDEST DUP2 ISZERO PUSH2 0x42A5 JUMPI DIV SWAP1 JUMP JUMPDEST PUSH4 0x4E487B71 PUSH1 0xE0 SHL PUSH1 0x0 MSTORE PUSH1 0x12 PUSH1 0x4 MSTORE PUSH1 0x24 PUSH1 0x0 REVERT JUMPDEST DUP2 DUP2 SUB SWAP3 SWAP2 PUSH1 0x0 SGT DUP1 ISZERO DUP3 DUP6 SGT AND SWAP2 DUP5 SLT AND OR PUSH2 0x4088 JUMPI JUMP JUMPDEST PUSH2 0x42E0 DUP2 PUSH2 0x137 PUSH2 0x393C JUMP JUMPDEST POP SLOAD SWAP1 PUSH8 0xDE0B6B3A7640000 SWAP2 DUP3 DUP2 MUL SWAP3 DUP2 DUP5 DIV EQ SWAP1 ISZERO OR ISZERO PUSH2 0x4088 JUMPI PUSH2 0x386C SWAP3 PUSH2 0x4320 PUSH2 0x4313 PUSH2 0x4326 SWAP4 PUSH2 0x151 PUSH2 0x37EA JUMP JUMPDEST SWAP1 SLOAD SWAP1 PUSH1 0x3 SHL SHR DUP5 PUSH2 0x429B JUMP JUMPDEST SWAP3 PUSH2 0x429B JUMP JUMPDEST SWAP1 PUSH2 0x42BB JUMP JUMPDEST DUP1 ISZERO PUSH2 0x4342 JUMPI PUSH2 0x41EA PUSH2 0x386C SWAP3 PUSH2 0x131 SLOAD PUSH2 0x407B JUMP JUMPDEST POP POP PUSH1 0x0 NOT SWAP1 JUMP JUMPDEST PUSH8 0xFFFFFFFFFFFFFFFF DUP2 GT PUSH2 0x397A JUMPI PUSH1 0x5 SHL PUSH1 0x20 ADD SWAP1 JUMP JUMPDEST SWAP1 PUSH2 0x436C DUP3 PUSH2 0x434A JUMP JUMPDEST PUSH2 0x4379 PUSH1 0x40 MLOAD SWAP2 DUP3 PUSH2 0x3958 JUMP JUMPDEST DUP3 DUP2 MSTORE DUP1 SWAP3 PUSH2 0x438A PUSH1 0x1F NOT SWAP2 PUSH2 0x434A JUMP JUMPDEST ADD SWAP1 PUSH1 0x20 CALLDATASIZE SWAP2 ADD CALLDATACOPY JUMP JUMPDEST PUSH2 0x131 SLOAD DUP1 ISZERO PUSH2 0x3C9A JUMPI PUSH2 0x137 SWAP1 DUP2 SLOAD SWAP2 PUSH1 0x0 SWAP1 PUSH2 0x43B1 DUP5 PUSH2 0x4362 JUMP JUMPDEST SWAP1 DUP3 SWAP1 JUMPDEST DUP6 DUP3 LT PUSH2 0x4420 JUMPI POP POP PUSH1 0x0 JUMPDEST DUP5 DUP2 LT PUSH2 0x43CF JUMPI POP POP POP POP POP JUMP JUMPDEST PUSH2 0x43EC DUP5 PUSH2 0x43E7 DUP6 PUSH2 0x43E1 DUP6 DUP8 PUSH2 0x4163 JUMP JUMPDEST MLOAD PUSH2 0x4288 JUMP JUMPDEST PUSH2 0x429B JUMP JUMPDEST SWAP1 PUSH2 0x138 SWAP2 DUP3 SLOAD PUSH9 0x10000000000000000 DUP2 LT ISZERO PUSH2 0x397A JUMPI PUSH2 0x26BF DUP2 PUSH1 0x1 SWAP6 DUP7 PUSH2 0x4418 SWAP5 ADD DUP2 SSTORE PUSH2 0x37EA JUMP JUMPDEST SWAP1 SSTORE ADD PUSH2 0x43C1 JUMP JUMPDEST SWAP1 SWAP3 PUSH2 0x445C PUSH1 0x1 SWAP2 PUSH2 0x4431 DUP7 PUSH2 0x449F JUMP JUMPDEST PUSH2 0x443B DUP8 DUP8 PUSH2 0x4163 JUMP JUMPDEST MSTORE PUSH2 0x41EF PUSH2 0x4449 DUP8 DUP7 PUSH2 0x393C JUMP JUMPDEST POP SLOAD PUSH2 0x4455 DUP9 DUP9 PUSH2 0x4163 JUMP JUMPDEST MLOAD SWAP1 PUSH2 0x5CDE JUMP JUMPDEST SWAP4 ADD SWAP1 PUSH2 0x43B5 JUMP JUMPDEST PUSH1 0x1 PUSH1 0x1 PUSH1 0xA0 SHL SUB AND PUSH1 0x0 SWAP1 DUP2 MSTORE PUSH2 0x136 PUSH1 0x20 MSTORE PUSH1 0x40 SWAP1 KECCAK256 PUSH1 0x1 DUP2 ADD SLOAD PUSH1 0xFF AND ISZERO PUSH2 0x448D JUMPI SLOAD SWAP1 JUMP JUMPDEST PUSH1 0x40 MLOAD PUSH4 0xE6C4247B PUSH1 0xE0 SHL DUP2 MSTORE PUSH1 0x4 SWAP1 REVERT JUMPDEST PUSH2 0x44AB SWAP1 PUSH2 0x137 PUSH2 0x393C JUMP JUMPDEST POP PUSH1 0x1 ADD SLOAD PUSH1 0x1 PUSH1 0x1 PUSH1 0xA0 SHL SUB AND PUSH2 0x44C2 DUP2 PUSH2 0x4500 JUMP JUMPDEST SWAP2 SWAP1 SWAP2 ISZERO PUSH2 0x44CE JUMPI POP SWAP1 JUMP JUMPDEST PUSH1 0x24 SWAP1 PUSH1 0x40 MLOAD SWAP1 PUSH4 0x7F6E4DB9 PUSH1 0xE0 SHL DUP3 MSTORE PUSH1 0x4 DUP3 ADD MSTORE REVERT JUMPDEST SWAP2 SWAP1 DUP3 PUSH1 0x40 SWAP2 SUB SLT PUSH2 0x752 JUMPI PUSH2 0x386C PUSH1 0x20 DUP4 MLOAD SWAP4 ADD PUSH2 0x3F7C JUMP JUMPDEST PUSH1 0x40 DUP1 MLOAD PUSH4 0x59E02DD7 PUSH1 0xE0 SHL DUP2 MSTORE SWAP3 SWAP2 DUP4 SWAP1 PUSH1 0x4 SWAP1 DUP3 SWAP1 PUSH1 0x1 PUSH1 0x1 PUSH1 0xA0 SHL SUB AND GAS STATICCALL SWAP2 DUP3 ISZERO PUSH2 0x414A JUMPI PUSH1 0x0 SWAP1 DUP2 SWAP4 PUSH2 0x4537 JUMPI POP SWAP2 SWAP1 JUMP JUMPDEST SWAP1 POP PUSH2 0x455B SWAP2 SWAP3 POP PUSH1 0x40 RETURNDATASIZE DUP2 GT PUSH2 0x455F JUMPI JUMPDEST PUSH2 0x4553 DUP2 DUP4 PUSH2 0x3958 JUMP JUMPDEST DUP2 ADD SWAP1 PUSH2 0x44E6 JUMP JUMPDEST SWAP1 SWAP2 JUMP JUMPDEST POP RETURNDATASIZE PUSH2 0x4549 JUMP JUMPDEST PUSH2 0x137 SLOAD SWAP1 PUSH2 0x4574 DUP3 PUSH2 0x4362 JUMP JUMPDEST SWAP2 PUSH1 0x0 JUMPDEST DUP2 DUP2 LT PUSH2 0x4583 JUMPI POP POP JUMP JUMPDEST DUP1 PUSH2 0x458F PUSH1 0x1 SWAP3 PUSH2 0x449F JUMP JUMPDEST PUSH2 0x4599 DUP3 DUP8 PUSH2 0x4163 JUMP JUMPDEST MSTORE ADD PUSH2 0x4578 JUMP JUMPDEST SWAP1 PUSH2 0x45C1 PUSH8 0xDE0B6B3A7640000 SWAP3 DUP4 PUSH2 0x157 SLOAD PUSH2 0x154 SLOAD SWAP3 NUMBER ADD SUB MUL PUSH2 0x429B JUMP JUMPDEST DUP3 DUP2 LT ISZERO PUSH2 0x45DE JUMPI DUP3 SUB SWAP2 DUP1 DUP4 PUSH2 0x155 SLOAD MUL DIV SWAP3 PUSH2 0x156 SLOAD MUL SDIV SWAP1 JUMP JUMPDEST POP PUSH1 0x0 SWAP2 POP DUP2 SWAP1 JUMP JUMPDEST SWAP1 SWAP2 PUSH2 0x45F1 PUSH2 0x4649 JUMP JUMPDEST SWAP3 SWAP1 DUP1 DUP3 LT ISZERO PUSH2 0x463F JUMPI DUP4 SWAP2 PUSH2 0x4606 SWAP2 PUSH2 0x407B JUMP JUMPDEST SWAP4 GT ISZERO PUSH2 0x463A JUMPI DUP2 DUP2 LT ISZERO PUSH2 0x4632 JUMPI PUSH2 0x461E SWAP2 PUSH2 0x407B JUMP JUMPDEST PUSH1 0x1 SHR DUP1 DUP3 LT ISZERO PUSH2 0x462D JUMPI POP SWAP1 JUMP JUMPDEST SWAP1 POP SWAP1 JUMP JUMPDEST POP POP POP PUSH1 0x0 SWAP1 JUMP JUMPDEST POP POP SWAP1 JUMP JUMPDEST POP POP POP POP POP PUSH1 0x0 SWAP1 JUMP JUMPDEST PUSH2 0x152 SLOAD PUSH1 0x40 DUP1 MLOAD PUSH4 0x59E02DD7 PUSH1 0xE0 SHL DUP1 DUP3 MSTORE SWAP4 SWAP3 SWAP1 SWAP2 SWAP1 PUSH1 0x1 PUSH1 0x1 PUSH1 0xA0 SHL SUB SWAP1 DUP2 AND DUP3 DUP5 PUSH1 0x4 DUP2 DUP5 GAS STATICCALL DUP1 ISZERO PUSH2 0x4739 JUMPI PUSH1 0x0 SWAP5 DUP6 SWAP2 PUSH2 0x4716 JUMPI JUMPDEST POP ISZERO PUSH2 0x46FF JUMPI POP PUSH2 0x153 SLOAD AND SWAP1 DUP1 MLOAD SWAP5 DUP6 MSTORE DUP1 DUP6 PUSH1 0x4 DUP2 DUP6 GAS STATICCALL DUP1 ISZERO PUSH2 0x46F4 JUMPI PUSH1 0x0 SWAP6 DUP7 SWAP2 PUSH2 0x46D1 JUMPI JUMPDEST POP ISZERO PUSH2 0x46BA JUMPI POP POP SWAP2 SWAP1 JUMP JUMPDEST PUSH1 0x24 SWAP3 POP MLOAD SWAP1 PUSH4 0x5E89893 PUSH1 0xE1 SHL DUP3 MSTORE PUSH1 0x4 DUP3 ADD MSTORE REVERT JUMPDEST SWAP1 POP DUP2 PUSH2 0x46EB SWAP3 SWAP7 POP RETURNDATASIZE DUP8 GT PUSH2 0x455F JUMPI PUSH2 0x4553 DUP2 DUP4 PUSH2 0x3958 JUMP JUMPDEST SWAP5 SWAP1 SWAP5 CODESIZE PUSH2 0x46AE JUMP JUMPDEST POP MLOAD RETURNDATASIZE PUSH1 0x0 DUP3 RETURNDATACOPY RETURNDATASIZE SWAP1 REVERT JUMPDEST PUSH1 0x24 SWAP1 DUP4 MLOAD SWAP1 PUSH4 0x5E89893 PUSH1 0xE1 SHL DUP3 MSTORE PUSH1 0x4 DUP3 ADD MSTORE REVERT JUMPDEST SWAP1 POP PUSH2 0x4730 SWAP2 SWAP5 POP DUP4 RETURNDATASIZE DUP6 GT PUSH2 0x455F JUMPI PUSH2 0x4553 DUP2 DUP4 PUSH2 0x3958 JUMP JUMPDEST SWAP4 SWAP1 SWAP4 CODESIZE PUSH2 0x4684 JUMP JUMPDEST DUP4 MLOAD RETURNDATASIZE PUSH1 0x0 DUP3 RETURNDATACOPY RETURNDATASIZE SWAP1 REVERT JUMPDEST ISZERO PUSH2 0x474B JUMPI JUMP JUMPDEST PUSH1 0x40 MLOAD PUSH3 0x461BCD PUSH1 0xE5 SHL DUP2 MSTORE PUSH1 0x20 PUSH1 0x4 DUP3 ADD MSTORE PUSH1 0x2B PUSH1 0x24 DUP3 ADD MSTORE PUSH32 0x496E697469616C697A61626C653A20636F6E7472616374206973206E6F742069 PUSH1 0x44 DUP3 ADD MSTORE PUSH11 0x6E697469616C697A696E67 PUSH1 0xA8 SHL PUSH1 0x64 DUP3 ADD MSTORE PUSH1 0x84 SWAP1 REVERT JUMPDEST PUSH2 0x480A SWAP2 PUSH2 0x47B0 PUSH2 0x5CBD JUMP JUMPDEST PUSH2 0x47B9 ADDRESS PUSH2 0x40DB JUMP JUMPDEST PUSH1 0x40 MLOAD PUSH4 0x6845C445 PUSH1 0xE0 SHL PUSH1 0x20 DUP3 ADD MSTORE PUSH1 0x1 PUSH1 0x1 PUSH1 0xA0 SHL SUB SWAP4 DUP5 AND PUSH1 0x24 DUP3 ADD MSTORE SWAP2 DUP4 AND PUSH1 0x44 DUP4 ADD MSTORE DUP5 DUP4 AND PUSH1 0x64 DUP4 ADD MSTORE PUSH1 0x84 DUP1 DUP4 ADD SWAP2 SWAP1 SWAP2 MSTORE DUP2 MSTORE SWAP1 PUSH2 0x4800 PUSH1 0xA4 DUP4 PUSH2 0x3958 JUMP JUMPDEST PUSH2 0x1F6 SLOAD AND PUSH2 0x4826 JUMP JUMPDEST PUSH1 0x20 DUP2 DUP1 MLOAD DUP2 ADD SUB SLT PUSH2 0x752 JUMPI PUSH1 0x20 PUSH2 0x386C SWAP2 ADD MLOAD DUP1 SWAP3 PUSH2 0x3F25 JUMP JUMPDEST SWAP1 PUSH2 0x386C SWAP2 PUSH1 0x0 DUP1 PUSH2 0x4836 PUSH2 0x3DCD JUMP JUMPDEST SWAP4 PUSH1 0x20 DUP2 MLOAD SWAP2 ADD DUP5 GAS DELEGATECALL PUSH2 0x3C94 PUSH2 0x3E21 JUMP JUMPDEST PUSH2 0x48B6 SWAP4 PUSH2 0x487D PUSH1 0x0 SWAP3 PUSH1 0x20 SWAP6 PUSH2 0x4861 DUP3 PUSH2 0x137 PUSH2 0x393C JUMP JUMPDEST POP PUSH2 0x486D DUP8 DUP3 SLOAD PUSH2 0x4156 JUMP JUMPDEST SWAP1 SSTORE PUSH2 0x1642 PUSH2 0x131 SWAP2 DUP3 SLOAD PUSH2 0x4156 JUMP JUMPDEST SWAP1 SLOAD PUSH1 0x40 MLOAD PUSH4 0x40C10F19 PUSH1 0xE0 SHL DUP2 MSTORE PUSH1 0x1 PUSH1 0x1 PUSH1 0xA0 SHL SUB SWAP1 SWAP4 AND PUSH1 0x4 DUP5 ADD MSTORE PUSH1 0x24 DUP4 ADD SWAP5 SWAP1 SWAP5 MSTORE SWAP1 SWAP5 DUP6 SWAP4 SWAP3 DUP5 SWAP3 SWAP1 SWAP2 DUP4 SWAP1 PUSH1 0x44 DUP3 ADD SWAP1 JUMP JUMPDEST SUB SWAP4 PUSH1 0x3 SWAP2 SWAP1 SWAP2 SHL SHR PUSH1 0x1 PUSH1 0x1 PUSH1 0xA0 SHL SUB AND GAS CALL DUP1 ISZERO PUSH2 0x414A JUMPI PUSH2 0x48D7 JUMPI POP JUMP JUMPDEST PUSH1 0x20 DUP2 RETURNDATASIZE DUP3 GT PUSH2 0x4900 JUMPI JUMPDEST DUP2 PUSH2 0x48EF PUSH1 0x20 SWAP4 DUP4 PUSH2 0x3958 JUMP JUMPDEST DUP2 ADD SUB SLT PUSH2 0x752 JUMPI PUSH2 0x3C9A SWAP1 PUSH2 0x3F7C JUMP JUMPDEST RETURNDATASIZE SWAP2 POP PUSH2 0x48E2 JUMP JUMPDEST PUSH2 0x26BF PUSH2 0x40D7 SWAP2 PUSH2 0x4919 DUP5 DUP3 PUSH2 0x42D4 JUMP JUMPDEST PUSH2 0x494F PUSH2 0x4928 DUP4 PUSH2 0x150 PUSH2 0x37EA JUMP JUMPDEST PUSH2 0x493B DUP3 SWAP5 SWAP3 SLOAD SWAP3 DUP4 DUP4 PUSH1 0x3 SHL SHR PUSH2 0x4205 JUMP JUMPDEST SWAP2 SWAP1 PUSH1 0x3 SHL SWAP2 DUP3 SHL SWAP2 PUSH1 0x0 NOT SWAP1 SHL NOT AND OR SWAP1 JUMP JUMPDEST SWAP1 SSTORE PUSH2 0x151 PUSH2 0x37EA JUMP JUMPDEST PUSH1 0xE0 DUP2 ADD SWAP3 SWAP2 PUSH1 0xC0 SWAP1 DUP2 SWAP1 PUSH1 0x1 PUSH1 0x1 PUSH1 0xA0 SHL SUB DUP1 PUSH2 0x4976 DUP4 PUSH2 0x3818 JUMP JUMPDEST AND DUP6 MSTORE PUSH2 0x4985 PUSH1 0x20 DUP4 ADD PUSH2 0x3818 JUMP JUMPDEST AND PUSH1 0x20 DUP6 ADD MSTORE PUSH1 0x40 DUP2 ADD CALLDATALOAD PUSH1 0x40 DUP6 ADD MSTORE PUSH1 0x60 DUP2 ADD CALLDATALOAD PUSH1 0x60 DUP6 ADD MSTORE PUSH1 0x80 DUP2 ADD CALLDATALOAD PUSH1 0x80 DUP6 ADD MSTORE PUSH1 0xA0 DUP2 ADD CALLDATALOAD PUSH1 0xA0 DUP6 ADD MSTORE ADD CALLDATALOAD SWAP2 ADD MSTORE JUMP JUMPDEST SWAP1 PUSH2 0x134 SLOAD SWAP1 DUP2 ISZERO PUSH2 0x49DF JUMPI PUSH2 0x386C SWAP3 PUSH2 0x49DA PUSH2 0x41EA SWAP3 PUSH2 0x131 SLOAD PUSH2 0x407B JUMP JUMPDEST PUSH2 0x407B JUMP JUMPDEST POP POP POP PUSH8 0xDE0B6B3A7640000 SWAP1 JUMP JUMPDEST DUP3 DUP3 PUSH2 0x49F9 SWAP3 PUSH2 0x4A16 JUMP JUMPDEST SWAP1 PUSH1 0x0 DUP3 SGT ISZERO PUSH2 0x4632 JUMPI PUSH2 0x386C SWAP3 PUSH2 0x4A10 SWAP2 PUSH2 0x49BA JUMP JUMPDEST SWAP1 PUSH2 0x429B JUMP JUMPDEST SWAP1 SWAP2 PUSH2 0x4A25 SWAP1 PUSH2 0x131 SLOAD PUSH2 0x407B JUMP JUMPDEST SWAP1 PUSH8 0xDE0B6B3A7640000 SWAP2 DUP3 DUP2 MUL SWAP3 DUP2 DUP5 DIV EQ SWAP1 ISZERO OR ISZERO PUSH2 0x4088 JUMPI PUSH2 0x386C SWAP3 PUSH2 0x4326 SWAP2 PUSH2 0x4288 JUMP JUMPDEST SWAP3 PUSH2 0x4A5B SWAP3 SWAP4 SWAP5 SWAP2 SWAP5 PUSH2 0x4A16 JUMP JUMPDEST DUP2 DUP2 MUL SWAP2 PUSH1 0x0 SWAP2 PUSH1 0x1 PUSH1 0xFF SHL SWAP2 DUP4 DUP3 SLT DUP4 DUP3 EQ AND PUSH2 0x4AFF JUMPI DUP2 DUP6 SDIV EQ SWAP1 ISZERO OR ISZERO PUSH2 0x4AEB JUMPI PUSH8 0xDE0B6B3A763FFFF NOT DUP5 ADD SWAP4 DUP5 GT PUSH2 0x4AEB JUMPI PUSH8 0xDE0B6B3A7640000 SWAP4 DUP5 DUP2 MUL SWAP5 DUP2 DUP7 DIV EQ SWAP1 ISZERO OR ISZERO PUSH2 0x4AEB JUMPI DUP4 ISZERO PUSH2 0x4AD7 JUMPI DUP3 EQ PUSH1 0x0 NOT DUP5 EQ AND PUSH2 0x4AC3 JUMPI POP SDIV SWAP1 JUMP JUMPDEST PUSH4 0x4E487B71 PUSH1 0xE0 SHL DUP2 MSTORE PUSH1 0x11 PUSH1 0x4 MSTORE PUSH1 0x24 SWAP1 REVERT JUMPDEST PUSH4 0x4E487B71 PUSH1 0xE0 SHL DUP3 MSTORE PUSH1 0x12 PUSH1 0x4 MSTORE PUSH1 0x24 DUP3 REVERT JUMPDEST PUSH4 0x4E487B71 PUSH1 0xE0 SHL DUP3 MSTORE PUSH1 0x11 PUSH1 0x4 MSTORE PUSH1 0x24 DUP3 REVERT JUMPDEST PUSH4 0x4E487B71 PUSH1 0xE0 SHL DUP5 MSTORE PUSH1 0x11 PUSH1 0x4 MSTORE PUSH1 0x24 DUP5 REVERT JUMPDEST PUSH2 0x14D SLOAD DUP1 NUMBER LT ISZERO PUSH2 0x4B2A JUMPI PUSH2 0x386C SWAP1 NUMBER SWAP1 PUSH2 0x407B JUMP JUMPDEST POP PUSH1 0x0 SWAP1 JUMP JUMPDEST SWAP1 PUSH1 0x40 MLOAD PUSH2 0x4B3F PUSH1 0x40 DUP3 PUSH2 0x3958 JUMP JUMPDEST PUSH1 0x20 PUSH1 0x1 DUP3 SWAP5 DUP1 SLOAD DUP5 MSTORE ADD SLOAD SWAP2 ADD MSTORE JUMP JUMPDEST PUSH2 0x4B5C DUP2 PUSH2 0x148 PUSH2 0x37EA JUMP JUMPDEST SWAP1 SLOAD SWAP1 PUSH1 0x3 SHL SHR SWAP2 PUSH2 0x18E SWAP2 PUSH2 0x4B72 DUP2 DUP5 PUSH2 0x393C JUMP JUMPDEST POP SLOAD SWAP3 PUSH2 0x18F SLOAD NUMBER LT ISZERO PUSH2 0x4B98 JUMPI JUMPDEST POP POP DUP1 DUP3 LT ISZERO PUSH2 0x463A JUMPI PUSH2 0x43E7 SWAP1 PUSH2 0x386C SWAP4 PUSH2 0x4288 JUMP JUMPDEST DUP3 SWAP4 POP PUSH2 0x4BAC PUSH2 0x4BB7 SWAP4 SWAP3 PUSH2 0x4BB2 SWAP3 PUSH2 0x393C JUMP JUMPDEST POP PUSH2 0x4B30 JUMP JUMPDEST PUSH2 0x4BBF JUMP JUMPDEST SWAP1 CODESIZE DUP1 PUSH2 0x4B81 JUMP JUMPDEST PUSH1 0x20 DUP2 MLOAD SWAP2 ADD DUP1 MLOAD SWAP3 PUSH8 0xDE0B6B3A7640000 SWAP4 DUP5 SUB SWAP1 DUP5 DUP3 GT PUSH2 0x4088 JUMPI PUSH2 0x4BEC PUSH2 0x41EF SWAP3 PUSH2 0x41AA SWAP6 PUSH2 0x4288 JUMP JUMPDEST SWAP3 MLOAD PUSH2 0x4288 JUMP JUMPDEST PUSH1 0x0 DUP1 PUSH2 0x137 SWAP2 DUP3 SLOAD SWAP3 PUSH2 0x4C06 DUP5 PUSH2 0x4362 JUMP JUMPDEST SWAP4 DUP3 SWAP2 JUMPDEST DUP2 DUP4 LT PUSH2 0x4C33 JUMPI POP POP POP DUP2 ISZERO PUSH2 0x4C27 JUMPI SWAP1 PUSH2 0x4C24 SWAP2 PUSH2 0x429B JUMP JUMPDEST SWAP2 JUMP JUMPDEST POP POP PUSH2 0x149 SLOAD PUSH1 0x1 SHL SWAP2 JUMP JUMPDEST SWAP1 SWAP2 SWAP4 SWAP3 PUSH2 0x4C40 DUP6 PUSH2 0x449F JUMP JUMPDEST SWAP1 DUP2 PUSH2 0x4C4C DUP8 DUP10 PUSH2 0x4163 JUMP JUMPDEST MSTORE PUSH2 0x4C65 PUSH2 0x4C5A DUP4 DUP9 PUSH2 0x4221 JUMP JUMPDEST POP PUSH2 0x41E3 DUP9 DUP7 PUSH2 0x393C JUMP JUMPDEST PUSH8 0xDE0B6B3A7640000 SWAP1 DUP2 DUP2 MUL SWAP2 DUP2 DUP4 DIV EQ SWAP1 ISZERO OR ISZERO PUSH2 0x4088 JUMPI PUSH2 0x4CA7 PUSH2 0x4CAD SWAP3 PUSH2 0x41EF DUP6 PUSH2 0x4C99 PUSH1 0x1 SWAP8 PUSH2 0x4CA2 SWAP7 PUSH2 0x5CDE JUMP JUMPDEST SWAP5 DUP6 SWAP2 DUP13 PUSH2 0x4B50 JUMP JUMPDEST PUSH2 0x4288 JUMP JUMPDEST SWAP6 PUSH2 0x4156 JUMP JUMPDEST SWAP5 ADD SWAP2 SWAP1 PUSH2 0x4C0A JUMP JUMPDEST PUSH2 0x18F DUP1 SLOAD NUMBER LT ISZERO PUSH2 0x4CC5 JUMPI POP JUMP JUMPDEST PUSH2 0x137 SLOAD PUSH1 0x0 JUMPDEST DUP2 DUP2 LT PUSH2 0x4CDF JUMPI POP POP PUSH2 0x190 SLOAD NUMBER ADD SWAP1 SSTORE JUMP JUMPDEST DUP1 DUP1 PUSH32 0x19156E9379C7BBBCE8F646CE5EE30BA860B8F954717405F3D5859A6C1A21AE60 PUSH1 0x1 SWAP4 PUSH2 0x18E PUSH2 0x4D15 PUSH2 0x4BAC DUP4 DUP4 PUSH2 0x393C JUMP JUMPDEST SWAP1 PUSH2 0x4D33 PUSH2 0x4D2B PUSH2 0x4D25 DUP6 PUSH2 0x449F JUMP JUMPDEST DUP5 PUSH2 0x4BBF JUMP JUMPDEST SWAP4 DUP5 SWAP3 PUSH2 0x393C JUMP JUMPDEST POP SSTORE MLOAD PUSH1 0x40 SWAP2 DUP3 MLOAD SWAP2 DUP3 MSTORE PUSH1 0x20 DUP3 ADD MSTORE LOG2 ADD PUSH2 0x4CCC JUMP JUMPDEST SWAP3 PUSH1 0xA4 PUSH2 0x4DE7 SWAP2 PUSH1 0x20 SWAP4 SWAP5 PUSH2 0x4D5D PUSH2 0x4EA3 JUMP JUMPDEST PUSH2 0x4D65 PUSH2 0x5CBD JUMP JUMPDEST PUSH1 0x40 MLOAD SWAP7 PUSH2 0x4D74 PUSH1 0xA0 DUP10 PUSH2 0x3958 JUMP JUMPDEST DUP8 MSTORE DUP5 DUP8 ADD DUP7 SWAP1 MSTORE CALLER PUSH1 0x40 DUP1 DUP10 ADD SWAP2 DUP3 MSTORE PUSH1 0x1 PUSH1 0x1 PUSH1 0xA0 SHL SUB SWAP3 DUP4 AND PUSH1 0x60 DUP11 ADD SWAP1 DUP2 MSTORE SWAP4 DUP4 AND PUSH1 0x80 DUP11 ADD SWAP1 DUP2 MSTORE PUSH2 0x14F SLOAD SWAP2 MLOAD PUSH4 0xE97A4D63 PUSH1 0xE0 SHL DUP2 MSTORE DUP11 MLOAD PUSH1 0x4 DUP3 ADD MSTORE PUSH1 0x20 SWAP1 SWAP11 ADD MLOAD PUSH1 0x24 DUP12 ADD MSTORE SWAP2 MLOAD DUP4 AND PUSH1 0x44 DUP11 ADD MSTORE SWAP3 MLOAD DUP3 AND PUSH1 0x64 DUP10 ADD MSTORE MLOAD DUP2 AND PUSH1 0x84 DUP9 ADD MSTORE DUP7 SWAP4 DUP5 SWAP3 SWAP1 SWAP2 AND SWAP1 JUMP JUMPDEST CALLVALUE SWAP1 GAS CALL SWAP2 DUP3 ISZERO PUSH2 0x414A JUMPI PUSH1 0x0 SWAP3 PUSH2 0x4E04 JUMPI JUMPDEST POP PUSH2 0x386C SWAP1 PUSH2 0x4E39 JUMP JUMPDEST SWAP1 SWAP2 PUSH1 0x20 DUP3 RETURNDATASIZE DUP3 GT PUSH2 0x4E31 JUMPI JUMPDEST DUP2 PUSH2 0x4E1E PUSH1 0x20 SWAP4 DUP4 PUSH2 0x3958 JUMP JUMPDEST DUP2 ADD SUB SLT PUSH2 0x823 JUMPI POP MLOAD SWAP1 PUSH2 0x386C PUSH2 0x4DFA JUMP JUMPDEST RETURNDATASIZE SWAP2 POP PUSH2 0x4E11 JUMP JUMPDEST PUSH2 0x38AB SWAP1 PUSH2 0x14E PUSH2 0x4E4B DUP3 DUP3 SLOAD PUSH2 0x4156 JUMP JUMPDEST SWAP1 SSTORE PUSH2 0x229 SLOAD ADDRESS SWAP1 CALLER SWAP1 PUSH1 0x1 PUSH1 0x1 PUSH1 0xA0 SHL SUB AND JUMPDEST PUSH1 0x40 MLOAD PUSH4 0x23B872DD PUSH1 0xE0 SHL PUSH1 0x20 DUP3 ADD MSTORE PUSH1 0x1 PUSH1 0x1 PUSH1 0xA0 SHL SUB SWAP3 DUP4 AND PUSH1 0x24 DUP3 ADD MSTORE SWAP3 SWAP1 SWAP2 AND PUSH1 0x44 DUP4 ADD MSTORE PUSH1 0x64 DUP1 DUP4 ADD SWAP4 SWAP1 SWAP4 MSTORE SWAP2 DUP2 MSTORE PUSH2 0x38AB SWAP2 PUSH2 0x3F77 PUSH1 0x84 DUP4 PUSH2 0x3958 JUMP JUMPDEST PUSH1 0xFF PUSH2 0x14B SLOAD PUSH1 0x8 SHR AND PUSH2 0x4EB3 JUMPI JUMP JUMPDEST PUSH1 0x40 MLOAD PUSH4 0x1CA61D77 PUSH1 0xE0 SHL DUP2 MSTORE PUSH1 0x4 SWAP1 REVERT JUMPDEST SWAP4 PUSH1 0x20 SWAP3 SWAP4 PUSH2 0x4DE7 SWAP3 PUSH1 0xC4 SWAP3 PUSH2 0x4ED9 PUSH2 0x4EA3 JUMP JUMPDEST PUSH2 0x4EE1 PUSH2 0x5CBD JUMP JUMPDEST PUSH1 0x40 MLOAD SWAP8 PUSH2 0x4EF0 PUSH1 0xC0 DUP11 PUSH2 0x3958 JUMP JUMPDEST PUSH1 0x1 DUP1 PUSH1 0xA0 SHL SUB SWAP4 DUP5 SWAP4 DUP5 DUP1 SWAP4 AND DUP12 MSTORE DUP9 DUP12 ADD MSTORE DUP9 PUSH1 0x40 DUP12 ADD MSTORE CALLER PUSH1 0x60 DUP12 ADD MSTORE AND PUSH1 0x80 DUP10 ADD MSTORE AND PUSH1 0xA0 DUP8 ADD MSTORE PUSH2 0x14F SLOAD AND SWAP5 PUSH1 0x40 MLOAD SWAP6 DUP7 SWAP4 DUP5 SWAP3 PUSH4 0x7E81A821 PUSH1 0xE0 SHL DUP5 MSTORE PUSH1 0x4 DUP5 ADD SWAP1 JUMPDEST PUSH1 0xA0 SWAP1 DUP2 PUSH1 0x1 DUP1 DUP3 SHL SUB SWAP2 DUP3 DUP2 MLOAD AND DUP6 MSTORE PUSH1 0x20 DUP2 ADD MLOAD PUSH1 0x20 DUP7 ADD MSTORE PUSH1 0x40 DUP2 ADD MLOAD PUSH1 0x40 DUP7 ADD MSTORE DUP3 PUSH1 0x60 DUP3 ADD MLOAD AND PUSH1 0x60 DUP7 ADD MSTORE DUP3 PUSH1 0x80 DUP3 ADD MLOAD AND PUSH1 0x80 DUP7 ADD MSTORE ADD MLOAD AND SWAP2 ADD MSTORE JUMP JUMPDEST SWAP4 PUSH1 0x20 SWAP3 SWAP4 PUSH2 0x4DE7 SWAP3 PUSH1 0xC4 SWAP3 PUSH2 0x4F93 PUSH2 0x4EA3 JUMP JUMPDEST PUSH2 0x4F9B PUSH2 0x5CBD JUMP JUMPDEST PUSH1 0x40 MLOAD SWAP8 PUSH2 0x4FAA PUSH1 0xC0 DUP11 PUSH2 0x3958 JUMP JUMPDEST PUSH1 0x1 DUP1 PUSH1 0xA0 SHL SUB SWAP4 DUP5 SWAP4 DUP5 DUP1 SWAP4 AND DUP12 MSTORE DUP9 DUP12 ADD MSTORE DUP9 PUSH1 0x40 DUP12 ADD MSTORE CALLER PUSH1 0x60 DUP12 ADD MSTORE AND PUSH1 0x80 DUP10 ADD MSTORE AND PUSH1 0xA0 DUP8 ADD MSTORE PUSH2 0x14F SLOAD AND SWAP5 PUSH1 0x40 MLOAD SWAP6 DUP7 SWAP4 DUP5 SWAP3 PUSH4 0x23EC24B5 PUSH1 0xE1 SHL DUP5 MSTORE PUSH1 0x4 DUP5 ADD SWAP1 PUSH2 0x4F3A JUMP JUMPDEST SWAP1 SWAP3 SWAP5 PUSH1 0x20 SWAP3 SWAP5 SWAP6 PUSH2 0x507F SWAP8 PUSH2 0x500C PUSH2 0x4EA3 JUMP JUMPDEST PUSH2 0x5014 PUSH2 0x5CBD JUMP JUMPDEST PUSH1 0x40 MLOAD SWAP4 PUSH2 0x5024 PUSH2 0x100 DUP7 PUSH2 0x3958 JUMP JUMPDEST PUSH1 0x1 DUP1 PUSH1 0xA0 SHL SUB SWAP4 DUP5 SWAP4 DUP5 DUP1 DUP1 SWAP5 AND SWAP10 DUP11 DUP10 MSTORE AND DUP9 DUP9 ADD MSTORE DUP10 PUSH1 0x40 DUP9 ADD MSTORE PUSH1 0x60 DUP8 ADD MSTORE DUP10 PUSH1 0x80 DUP8 ADD MSTORE CALLER PUSH1 0xA0 DUP8 ADD MSTORE AND PUSH1 0xC0 DUP6 ADD MSTORE AND PUSH1 0xE0 DUP4 ADD MSTORE PUSH2 0x14F SLOAD AND PUSH1 0x40 MLOAD DUP1 DUP1 SWAP9 DUP2 SWAP5 PUSH4 0x34975A41 PUSH1 0xE0 SHL DUP4 MSTORE PUSH1 0x4 DUP4 ADD PUSH2 0x50E1 JUMP JUMPDEST SUB SWAP2 CALLVALUE SWAP1 GAS CALL SWAP4 DUP5 ISZERO PUSH2 0x414A JUMPI PUSH1 0x0 SWAP5 PUSH2 0x50AC JUMPI JUMPDEST POP PUSH2 0x386C SWAP3 SWAP2 PUSH2 0x50A7 SWAP2 ADDRESS SWAP1 CALLER SWAP1 PUSH2 0x4E5F JUMP JUMPDEST PUSH2 0x4E39 JUMP JUMPDEST SWAP1 SWAP4 PUSH1 0x20 DUP3 RETURNDATASIZE DUP3 GT PUSH2 0x50D9 JUMPI JUMPDEST DUP2 PUSH2 0x50C6 PUSH1 0x20 SWAP4 DUP4 PUSH2 0x3958 JUMP JUMPDEST DUP2 ADD SUB SLT PUSH2 0x823 JUMPI POP MLOAD SWAP3 PUSH2 0x386C PUSH2 0x5094 JUMP JUMPDEST RETURNDATASIZE SWAP2 POP PUSH2 0x50B9 JUMP JUMPDEST SWAP2 SWAP1 SWAP2 PUSH1 0xE0 PUSH2 0x100 DUP3 ADD SWAP4 DUP2 PUSH1 0x1 DUP1 PUSH1 0xA0 SHL SUB SWAP2 DUP3 DUP2 MLOAD AND DUP6 MSTORE DUP3 PUSH1 0x20 DUP3 ADD MLOAD AND PUSH1 0x20 DUP7 ADD MSTORE PUSH1 0x40 DUP2 ADD MLOAD PUSH1 0x40 DUP7 ADD MSTORE PUSH1 0x60 DUP2 ADD MLOAD PUSH1 0x60 DUP7 ADD MSTORE PUSH1 0x80 DUP2 ADD MLOAD PUSH1 0x80 DUP7 ADD MSTORE DUP3 PUSH1 0xA0 DUP3 ADD MLOAD AND PUSH1 0xA0 DUP7 ADD MSTORE DUP3 PUSH1 0xC0 DUP3 ADD MLOAD AND PUSH1 0xC0 DUP7 ADD MSTORE ADD MLOAD AND SWAP2 ADD MSTORE JUMP JUMPDEST PUSH1 0xE4 DUP3 PUSH1 0x20 DUP1 SWAP5 SWAP7 SWAP8 SWAP9 PUSH2 0x51C6 SWAP5 PUSH2 0x515B PUSH2 0x4EA3 JUMP JUMPDEST PUSH2 0x5163 PUSH2 0x5CBD JUMP JUMPDEST PUSH1 0x40 MLOAD SWAP11 DUP12 SWAP9 PUSH2 0x5174 PUSH1 0xE0 DUP12 PUSH2 0x3958 JUMP JUMPDEST PUSH1 0x1 DUP1 PUSH1 0xA0 SHL SUB SWAP6 DUP7 SWAP6 DUP7 DUP1 SWAP6 AND SWAP12 DUP13 DUP2 MSTORE ADD MSTORE PUSH1 0x40 DUP14 ADD MSTORE DUP11 PUSH1 0x60 DUP14 ADD MSTORE CALLER PUSH1 0x80 DUP14 ADD MSTORE AND PUSH1 0xA0 DUP12 ADD MSTORE AND PUSH1 0xC0 DUP10 ADD MSTORE PUSH2 0x14F SLOAD AND SWAP7 PUSH1 0x40 MLOAD SWAP8 DUP9 SWAP4 DUP5 SWAP3 PUSH3 0x637447 PUSH1 0xE1 SHL DUP5 MSTORE PUSH1 0x4 DUP5 ADD SWAP1 PUSH2 0x51EB JUMP JUMPDEST CALLVALUE SWAP1 GAS CALL SWAP4 DUP5 ISZERO PUSH2 0x414A JUMPI PUSH1 0x0 SWAP5 PUSH2 0x50AC JUMPI POP PUSH2 0x386C SWAP3 SWAP2 PUSH2 0x50A7 SWAP2 ADDRESS SWAP1 CALLER SWAP1 PUSH2 0x4E5F JUMP JUMPDEST PUSH1 0xC0 SWAP1 DUP2 PUSH1 0x1 DUP1 PUSH1 0xA0 SHL SUB SWAP2 DUP3 DUP2 MLOAD AND DUP6 MSTORE PUSH1 0x20 DUP2 ADD MLOAD PUSH1 0x20 DUP7 ADD MSTORE PUSH1 0x40 DUP2 ADD MLOAD PUSH1 0x40 DUP7 ADD MSTORE PUSH1 0x60 DUP2 ADD MLOAD PUSH1 0x60 DUP7 ADD MSTORE DUP3 PUSH1 0x80 DUP3 ADD MLOAD AND PUSH1 0x80 DUP7 ADD MSTORE DUP3 PUSH1 0xA0 DUP3 ADD MLOAD AND PUSH1 0xA0 DUP7 ADD MSTORE ADD MLOAD AND SWAP2 ADD MSTORE JUMP JUMPDEST SWAP5 SWAP4 SWAP2 SWAP1 SWAP3 SWAP4 PUSH2 0x5249 PUSH2 0x4EA3 JUMP JUMPDEST PUSH2 0x5251 PUSH2 0x5CBD JUMP JUMPDEST PUSH1 0x40 MLOAD SWAP6 PUSH2 0x5260 PUSH1 0xE0 DUP9 PUSH2 0x3958 JUMP JUMPDEST PUSH1 0x1 DUP1 PUSH1 0xA0 SHL SUB SWAP4 DUP5 SWAP4 DUP5 DUP1 SWAP4 AND DUP10 MSTORE DUP7 PUSH1 0x20 DUP11 ADD MSTORE PUSH1 0x40 DUP10 ADD MSTORE DUP7 PUSH1 0x60 DUP10 ADD MSTORE CALLER PUSH1 0x80 DUP10 ADD MSTORE AND PUSH1 0xA0 DUP8 ADD MSTORE AND PUSH1 0xC0 DUP6 ADD MSTORE PUSH1 0x20 PUSH2 0x52BD PUSH1 0xE4 DUP4 PUSH2 0x14F SLOAD AND SWAP7 PUSH1 0x40 MLOAD SWAP8 DUP9 SWAP4 DUP5 SWAP3 PUSH4 0x6B59C22F PUSH1 0xE0 SHL DUP5 MSTORE PUSH1 0x4 DUP5 ADD SWAP1 PUSH2 0x51EB JUMP JUMPDEST CALLVALUE SWAP1 GAS CALL SWAP4 DUP5 ISZERO PUSH2 0x414A JUMPI PUSH1 0x0 SWAP5 PUSH2 0x52E8 JUMPI JUMPDEST POP PUSH2 0x386C SWAP3 SWAP2 PUSH2 0x50A7 SWAP2 PUSH2 0x133 SLOAD AND ADDRESS SWAP1 CALLER SWAP1 PUSH2 0x4E5F JUMP JUMPDEST SWAP1 SWAP4 PUSH1 0x20 DUP3 RETURNDATASIZE DUP3 GT PUSH2 0x5315 JUMPI JUMPDEST DUP2 PUSH2 0x5302 PUSH1 0x20 SWAP4 DUP4 PUSH2 0x3958 JUMP JUMPDEST DUP2 ADD SUB SLT PUSH2 0x823 JUMPI POP MLOAD SWAP3 PUSH2 0x386C PUSH2 0x52D0 JUMP JUMPDEST RETURNDATASIZE SWAP2 POP PUSH2 0x52F5 JUMP JUMPDEST SWAP2 SWAP3 SWAP1 SWAP3 PUSH2 0x5329 PUSH2 0x4EA3 JUMP JUMPDEST PUSH2 0x5331 PUSH2 0x5CBD JUMP JUMPDEST PUSH1 0x40 MLOAD SWAP4 PUSH2 0x5340 PUSH1 0xA0 DUP7 PUSH2 0x3958 JUMP JUMPDEST DUP4 DUP6 MSTORE PUSH1 0x20 DUP1 DUP7 ADD SWAP2 DUP3 MSTORE CALLER PUSH1 0x40 DUP1 DUP9 ADD SWAP2 DUP3 MSTORE PUSH1 0x1 PUSH1 0x1 PUSH1 0xA0 SHL SUB SWAP5 DUP6 AND PUSH1 0x60 DUP10 ADD SWAP1 DUP2 MSTORE SWAP6 DUP6 AND PUSH1 0x80 DUP10 ADD SWAP1 DUP2 MSTORE PUSH2 0x14F SLOAD SWAP2 MLOAD PUSH4 0xFA91A9A5 PUSH1 0xE0 SHL DUP2 MSTORE SWAP9 MLOAD PUSH1 0x4 DUP11 ADD MSTORE SWAP4 MLOAD PUSH1 0x24 DUP10 ADD MSTORE SWAP1 MLOAD DUP5 AND PUSH1 0x44 DUP9 ADD MSTORE SWAP4 MLOAD DUP4 AND PUSH1 0x64 DUP8 ADD MSTORE SWAP1 MLOAD DUP3 AND PUSH1 0x84 DUP7 ADD MSTORE SWAP1 SWAP2 DUP5 SWAP1 PUSH1 0xA4 SWAP1 DUP3 SWAP1 DUP6 AND CALLVALUE SWAP1 GAS CALL SWAP3 DUP4 ISZERO PUSH2 0x414A JUMPI PUSH1 0x0 SWAP4 PUSH2 0x53DB JUMPI JUMPDEST POP SWAP1 PUSH2 0x386C SWAP2 PUSH2 0x133 SLOAD AND ADDRESS SWAP1 CALLER SWAP1 PUSH2 0x4E5F JUMP JUMPDEST SWAP1 SWAP3 PUSH1 0x20 DUP3 RETURNDATASIZE DUP3 GT PUSH2 0x5408 JUMPI JUMPDEST DUP2 PUSH2 0x53F5 PUSH1 0x20 SWAP4 DUP4 PUSH2 0x3958 JUMP JUMPDEST DUP2 ADD SUB SLT PUSH2 0x823 JUMPI POP MLOAD SWAP2 PUSH2 0x386C PUSH2 0x53C7 JUMP JUMPDEST RETURNDATASIZE SWAP2 POP PUSH2 0x53E8 JUMP JUMPDEST PUSH1 0xC4 PUSH1 0x20 SWAP3 SWAP5 PUSH2 0x5488 SWAP3 PUSH2 0x5422 PUSH2 0x4EA3 JUMP JUMPDEST PUSH2 0x542A PUSH2 0x5CBD JUMP JUMPDEST PUSH1 0x40 MLOAD SWAP8 PUSH2 0x5439 PUSH1 0xC0 DUP11 PUSH2 0x3958 JUMP JUMPDEST PUSH1 0x1 DUP1 PUSH1 0xA0 SHL SUB DUP1 SWAP4 DUP2 DUP1 SWAP5 AND SWAP9 DUP10 DUP13 MSTORE DUP11 DUP10 DUP14 ADD MSTORE PUSH1 0x40 DUP13 ADD MSTORE CALLER PUSH1 0x60 DUP13 ADD MSTORE AND PUSH1 0x80 DUP11 ADD MSTORE AND PUSH1 0xA0 DUP9 ADD MSTORE PUSH2 0x14F SLOAD AND SWAP6 PUSH1 0x40 MLOAD SWAP7 DUP8 SWAP4 DUP5 SWAP3 PUSH4 0x6426C5DB PUSH1 0xE1 SHL DUP5 MSTORE PUSH1 0x4 DUP5 ADD SWAP1 PUSH2 0x4F3A JUMP JUMPDEST CALLVALUE SWAP1 GAS CALL SWAP3 DUP4 ISZERO PUSH2 0x414A JUMPI PUSH1 0x0 SWAP4 PUSH2 0x54AA JUMPI JUMPDEST POP SWAP1 PUSH2 0x386C SWAP2 ADDRESS SWAP1 CALLER SWAP1 PUSH2 0x4E5F JUMP JUMPDEST SWAP1 SWAP3 PUSH1 0x20 DUP3 RETURNDATASIZE DUP3 GT PUSH2 0x54D7 JUMPI JUMPDEST DUP2 PUSH2 0x54C4 PUSH1 0x20 SWAP4 DUP4 PUSH2 0x3958 JUMP JUMPDEST DUP2 ADD SUB SLT PUSH2 0x823 JUMPI POP MLOAD SWAP2 PUSH2 0x386C PUSH2 0x549B JUMP JUMPDEST RETURNDATASIZE SWAP2 POP PUSH2 0x54B7 JUMP JUMPDEST SWAP4 SWAP1 SWAP2 SWAP4 PUSH2 0x54EB PUSH2 0x4EA3 JUMP JUMPDEST PUSH2 0x54F3 PUSH2 0x5CBD JUMP JUMPDEST PUSH1 0x40 MLOAD SWAP6 PUSH2 0x5502 PUSH1 0xE0 DUP9 PUSH2 0x3958 JUMP JUMPDEST PUSH1 0x1 DUP1 PUSH1 0xA0 SHL SUB DUP1 SWAP4 DUP2 DUP1 SWAP5 AND SWAP7 DUP8 DUP11 MSTORE DUP7 PUSH1 0x20 DUP12 ADD MSTORE DUP9 PUSH1 0x40 DUP12 ADD MSTORE PUSH1 0x60 DUP11 ADD MSTORE CALLER PUSH1 0x80 DUP11 ADD MSTORE AND PUSH1 0xA0 DUP9 ADD MSTORE AND PUSH1 0xC0 DUP7 ADD MSTORE PUSH1 0x20 PUSH2 0x5560 PUSH1 0xE4 DUP4 PUSH2 0x14F SLOAD AND SWAP8 PUSH1 0x40 MLOAD SWAP9 DUP10 SWAP4 DUP5 SWAP3 PUSH4 0xE4E1B729 PUSH1 0xE0 SHL DUP5 MSTORE PUSH1 0x4 DUP5 ADD SWAP1 PUSH2 0x51EB JUMP JUMPDEST CALLVALUE SWAP1 GAS CALL SWAP5 DUP6 ISZERO PUSH2 0x414A JUMPI PUSH1 0x0 SWAP6 PUSH2 0x5595 JUMPI JUMPDEST POP PUSH2 0x386C SWAP4 SWAP3 SWAP2 PUSH2 0x558C SWAP2 PUSH2 0x133 SLOAD AND ADDRESS SWAP1 CALLER SWAP1 PUSH2 0x4E5F JUMP JUMPDEST ADDRESS SWAP1 CALLER SWAP1 PUSH2 0x4E5F JUMP JUMPDEST SWAP1 SWAP5 PUSH1 0x20 DUP3 RETURNDATASIZE DUP3 GT PUSH2 0x55C2 JUMPI JUMPDEST DUP2 PUSH2 0x55AF PUSH1 0x20 SWAP4 DUP4 PUSH2 0x3958 JUMP JUMPDEST DUP2 ADD SUB SLT PUSH2 0x823 JUMPI POP MLOAD SWAP4 PUSH2 0x386C PUSH2 0x5573 JUMP JUMPDEST RETURNDATASIZE SWAP2 POP PUSH2 0x55A2 JUMP JUMPDEST PUSH1 0x40 MLOAD SWAP1 PUSH2 0x55D9 PUSH1 0x80 DUP4 PUSH2 0x3958 JUMP JUMPDEST PUSH1 0x0 PUSH1 0x60 DUP4 DUP3 DUP2 MSTORE DUP3 PUSH1 0x20 DUP3 ADD MSTORE DUP3 PUSH1 0x40 DUP3 ADD MSTORE ADD MSTORE JUMP JUMPDEST SWAP2 SWAP1 DUP3 PUSH1 0xA0 SWAP2 SUB SLT PUSH2 0x752 JUMPI PUSH1 0x40 MLOAD PUSH2 0x560B PUSH1 0xA0 DUP3 PUSH2 0x3958 JUMP JUMPDEST PUSH1 0x80 PUSH2 0x5649 DUP2 DUP4 SWAP6 DUP1 CALLDATALOAD DUP6 MSTORE PUSH1 0x20 DUP2 ADD CALLDATALOAD PUSH1 0x20 DUP7 ADD MSTORE PUSH2 0x562D PUSH1 0x40 DUP3 ADD PUSH2 0x3818 JUMP JUMPDEST PUSH1 0x40 DUP7 ADD MSTORE PUSH2 0x563E PUSH1 0x60 DUP3 ADD PUSH2 0x3818 JUMP JUMPDEST PUSH1 0x60 DUP7 ADD MSTORE ADD PUSH2 0x3818 JUMP JUMPDEST SWAP2 ADD MSTORE JUMP JUMPDEST SWAP2 SWAP1 PUSH2 0x5659 SWAP1 PUSH2 0x4177 JUMP JUMPDEST SWAP2 SWAP1 SWAP3 PUSH2 0x5666 DUP4 DUP6 PUSH2 0x432C JUMP JUMPDEST SWAP1 DUP1 DUP3 GT ISZERO PUSH2 0x5673 JUMPI POP POP JUMP JUMPDEST PUSH1 0x44 SWAP3 POP PUSH1 0x40 MLOAD SWAP2 PUSH4 0x79121201 PUSH1 0xE0 SHL DUP4 MSTORE PUSH1 0x4 DUP4 ADD MSTORE PUSH1 0x24 DUP3 ADD MSTORE REVERT JUMPDEST SWAP3 SWAP1 SWAP4 SWAP2 PUSH1 0x0 SWAP2 PUSH1 0x0 SWAP2 DUP3 SWAP7 PUSH2 0x56A5 PUSH2 0x55CA JUMP JUMPDEST SWAP7 PUSH1 0x1 PUSH1 0x1 PUSH1 0xA0 SHL SUB SWAP2 DUP6 SWAP1 DUP4 AND DUP1 PUSH2 0x58B1 JUMPI JUMPDEST POP DUP3 PUSH2 0x12F SLOAD AND DUP4 PUSH1 0x40 MLOAD SWAP4 PUSH4 0x6EB1769F PUSH1 0xE1 SHL DUP6 MSTORE AND DUP1 PUSH1 0x4 DUP6 ADD MSTORE ADDRESS PUSH1 0x24 DUP6 ADD MSTORE PUSH1 0x20 SWAP5 DUP6 DUP6 PUSH1 0x44 DUP2 DUP7 GAS STATICCALL SWAP5 DUP6 ISZERO PUSH2 0x58A6 JUMPI DUP5 SWAP6 PUSH2 0x5877 JUMPI JUMPDEST POP DUP5 PUSH2 0x5756 JUMPI JUMPDEST POP POP POP POP POP DUP7 ADD MLOAD ISZERO PUSH2 0x5712 JUMPI JUMPDEST POP POP POP SWAP3 SWAP2 SWAP1 JUMP JUMPDEST SWAP1 SWAP2 SWAP3 POP PUSH2 0x572A PUSH8 0xDE0B6B3A7640000 SWAP3 DUP4 SWAP3 PUSH2 0x4288 JUMP JUMPDEST DIV DUP1 DUP6 MSTORE SWAP1 DUP3 ISZERO PUSH2 0x574E JUMPI PUSH2 0x5746 SWAP3 DIV SWAP1 DUP2 PUSH1 0x40 DUP7 ADD MSTORE PUSH2 0x4156 JUMP JUMPDEST CODESIZE DUP1 DUP1 PUSH2 0x570A JUMP JUMPDEST POP SWAP1 POP PUSH2 0x5746 JUMP JUMPDEST PUSH2 0x5764 SWAP1 PUSH2 0x130 SLOAD AND PUSH2 0x4500 JUMP JUMPDEST SWAP3 SWAP1 SWAP3 ISZERO PUSH2 0x56FC JUMPI SWAP1 SWAP2 SWAP3 SWAP4 SWAP12 POP DUP5 DUP12 PUSH2 0x579E DUP6 PUSH8 0xDE0B6B3A7640000 PUSH2 0x5798 PUSH2 0x578E DUP14 DUP14 PUSH2 0x4288 JUMP JUMPDEST PUSH2 0x143 SLOAD SWAP1 PUSH2 0x4288 JUMP JUMPDEST DIV PUSH2 0x429B JUMP JUMPDEST DUP2 DUP4 ADD DUP2 DUP2 MSTORE SWAP6 SWAP1 DUP12 ISZERO PUSH2 0x586D JUMPI POP PUSH2 0x57C9 SWAP2 PUSH2 0x57BD PUSH1 0x60 SWAP3 DUP14 PUSH2 0x429B JUMP JUMPDEST SWAP2 DUP3 SWAP2 ADD MSTORE DUP6 MLOAD PUSH2 0x4156 JUMP JUMPDEST DUP1 SWAP14 JUMPDEST LT SWAP3 DUP4 ISZERO PUSH2 0x57F8 JUMPI JUMPDEST POP POP POP PUSH2 0x57E5 JUMPI JUMPDEST DUP1 DUP1 DUP1 PUSH2 0x56FC JUMP JUMPDEST DUP2 SWAP3 SWAP10 POP MSTORE DUP1 PUSH1 0x60 DUP9 ADD MSTORE SWAP7 CODESIZE DUP1 PUSH2 0x57DD JUMP JUMPDEST SWAP1 SWAP2 SWAP3 POP PUSH1 0x24 PUSH1 0x40 MLOAD DUP1 SWAP5 DUP2 SWAP4 PUSH4 0x70A08231 PUSH1 0xE0 SHL DUP4 MSTORE PUSH1 0x4 DUP4 ADD MSTORE GAS STATICCALL SWAP1 DUP2 ISZERO PUSH2 0x5862 JUMPI SWAP1 DUP12 SWAP2 DUP5 SWAP2 PUSH2 0x5831 JUMPI JUMPDEST POP LT CODESIZE DUP5 DUP2 PUSH2 0x57D5 JUMP JUMPDEST DUP1 SWAP3 POP DUP6 DUP1 SWAP3 POP RETURNDATASIZE DUP4 GT PUSH2 0x585B JUMPI JUMPDEST PUSH2 0x584A DUP2 DUP4 PUSH2 0x3958 JUMP JUMPDEST DUP2 ADD SUB SLT PUSH2 0x98A JUMPI DUP11 SWAP1 MLOAD CODESIZE PUSH2 0x5827 JUMP JUMPDEST POP RETURNDATASIZE PUSH2 0x5840 JUMP JUMPDEST PUSH1 0x40 MLOAD RETURNDATASIZE DUP6 DUP3 RETURNDATACOPY RETURNDATASIZE SWAP1 REVERT JUMPDEST SWAP2 POP POP DUP1 SWAP14 PUSH2 0x57CC JUMP JUMPDEST SWAP1 SWAP5 POP DUP6 DUP2 DUP2 RETURNDATASIZE DUP4 GT PUSH2 0x589F JUMPI JUMPDEST PUSH2 0x588F DUP2 DUP4 PUSH2 0x3958 JUMP JUMPDEST DUP2 ADD SUB SLT PUSH2 0xA7F JUMPI MLOAD SWAP4 CODESIZE PUSH2 0x56F5 JUMP JUMPDEST POP RETURNDATASIZE PUSH2 0x5885 JUMP JUMPDEST PUSH1 0x40 MLOAD RETURNDATASIZE DUP7 DUP3 RETURNDATACOPY RETURNDATASIZE SWAP1 REVERT JUMPDEST SWAP1 SWAP6 POP PUSH1 0x20 DUP4 PUSH2 0x1C3 SLOAD AND SWAP2 PUSH1 0x24 PUSH1 0x40 MLOAD DUP1 SWAP5 DUP2 SWAP4 PUSH4 0x64A731E9 PUSH1 0xE0 SHL DUP4 MSTORE PUSH1 0x4 DUP4 ADD MSTORE GAS STATICCALL DUP1 ISZERO PUSH2 0x5929 JUMPI DUP7 SWAP1 PUSH2 0x58F6 JUMPI JUMPDEST PUSH2 0x58EF SWAP2 POP DUP5 PUSH2 0x4288 JUMP JUMPDEST SWAP5 CODESIZE PUSH2 0x56B9 JUMP JUMPDEST POP PUSH1 0x20 DUP2 RETURNDATASIZE DUP3 GT PUSH2 0x5921 JUMPI JUMPDEST DUP2 PUSH2 0x590F PUSH1 0x20 SWAP4 DUP4 PUSH2 0x3958 JUMP JUMPDEST DUP2 ADD SUB SLT PUSH2 0x2A18 JUMPI PUSH2 0x58EF SWAP1 MLOAD PUSH2 0x58E4 JUMP JUMPDEST RETURNDATASIZE SWAP2 POP PUSH2 0x5902 JUMP JUMPDEST PUSH1 0x40 MLOAD RETURNDATASIZE DUP9 DUP3 RETURNDATACOPY RETURNDATASIZE SWAP1 REVERT JUMPDEST SWAP3 PUSH2 0x38AB SWAP5 SWAP2 SWAP3 SWAP4 DUP3 MLOAD ISZERO ISZERO PUSH1 0x0 EQ PUSH2 0x59A4 JUMPI POP PUSH1 0x40 PUSH2 0x599F SWAP3 PUSH2 0x5997 PUSH8 0xDE0B6B3A7640000 PUSH2 0x5969 PUSH2 0x13B SLOAD DUP5 MLOAD SWAP1 PUSH2 0x4288 JUMP JUMPDEST DIV PUSH2 0x131 PUSH2 0x5978 DUP3 DUP3 SLOAD PUSH2 0x4156 JUMP JUMPDEST SWAP1 SSTORE PUSH2 0x5991 PUSH1 0x1 DUP1 PUSH1 0xA0 SHL SUB PUSH2 0x146 SLOAD AND SWAP2 DUP5 MLOAD PUSH2 0x407B JUMP JUMPDEST SWAP1 PUSH2 0x3F25 JUMP JUMPDEST ADD MLOAD SWAP1 PUSH2 0x3F25 JUMP JUMPDEST PUSH2 0x3F25 JUMP JUMPDEST SWAP1 PUSH1 0x60 PUSH2 0x599F SWAP4 PUSH2 0x59C6 PUSH1 0x1 DUP1 PUSH1 0xA0 SHL SUB PUSH2 0x146 SLOAD AND PUSH1 0x20 DUP4 ADD MLOAD SWAP1 DUP7 PUSH2 0x59CA JUMP JUMPDEST ADD MLOAD SWAP2 JUMPDEST SWAP2 SWAP1 DUP2 PUSH2 0x59D6 JUMPI POP POP POP JUMP JUMPDEST PUSH2 0x12F SLOAD PUSH2 0x38AB SWAP4 SWAP1 PUSH1 0x1 PUSH1 0x1 PUSH1 0xA0 SHL SUB AND PUSH2 0x4E5F JUMP JUMPDEST SWAP2 SWAP1 DUP3 PUSH1 0xC0 SWAP2 SUB SLT PUSH2 0x752 JUMPI PUSH1 0x40 MLOAD PUSH2 0x5A07 PUSH1 0xC0 DUP3 PUSH2 0x3958 JUMP JUMPDEST PUSH1 0xA0 PUSH2 0x5649 DUP2 DUP4 SWAP6 PUSH2 0x5A18 DUP2 PUSH2 0x3818 JUMP JUMPDEST DUP6 MSTORE PUSH1 0x20 DUP2 ADD CALLDATALOAD PUSH1 0x20 DUP7 ADD MSTORE PUSH1 0x40 DUP2 ADD CALLDATALOAD PUSH1 0x40 DUP7 ADD MSTORE PUSH2 0x5A3A PUSH1 0x60 DUP3 ADD PUSH2 0x3818 JUMP JUMPDEST PUSH1 0x60 DUP7 ADD MSTORE PUSH2 0x5A4B PUSH1 0x80 DUP3 ADD PUSH2 0x3818 JUMP JUMPDEST PUSH1 0x80 DUP7 ADD MSTORE ADD PUSH2 0x3818 JUMP JUMPDEST SWAP1 PUSH2 0x5A63 SWAP5 SWAP4 SWAP3 SWAP2 PUSH2 0x4A4D JUMP JUMPDEST PUSH1 0x0 DUP2 SLT PUSH2 0x4B2A JUMPI SWAP1 JUMP JUMPDEST DUP1 PUSH2 0x5A77 PUSH2 0x4649 JUMP JUMPDEST SWAP2 SWAP1 SWAP4 PUSH2 0x5A84 PUSH1 0x0 PUSH2 0x45A0 JUMP JUMPDEST SWAP5 ADD SWAP4 DUP3 SWAP2 PUSH2 0x5B1C JUMPI JUMPDEST ADD SWAP4 DUP5 PUSH1 0x0 DUP1 DUP3 SLT PUSH2 0x5B16 JUMPI POP JUMPDEST DUP5 SUB SWAP2 DUP2 DUP6 GT PUSH2 0x5ADE JUMPI POP POP DUP2 DUP2 GT PUSH2 0x5AC0 JUMPI POP POP PUSH2 0x155 SSTORE PUSH2 0x156 SSTORE NUMBER PUSH2 0x157 SSTORE JUMP JUMPDEST PUSH1 0x44 SWAP3 POP PUSH1 0x40 MLOAD SWAP2 PUSH4 0x6DA41E5 PUSH1 0xE1 SHL DUP4 MSTORE PUSH1 0x4 DUP4 ADD MSTORE PUSH1 0x24 DUP3 ADD MSTORE REVERT JUMPDEST SWAP1 DUP1 DUP6 SWAP3 GT PUSH2 0x5B04 JUMPI PUSH1 0x44 SWAP2 PUSH1 0x40 MLOAD SWAP2 PUSH4 0x6DA41E5 PUSH1 0xE1 SHL DUP4 MSTORE PUSH1 0x4 DUP4 ADD MSTORE PUSH1 0x24 DUP3 ADD MSTORE REVERT JUMPDEST PUSH1 0x40 MLOAD PUSH4 0xFB4FD35 PUSH1 0xE1 SHL DUP2 MSTORE PUSH1 0x4 SWAP1 REVERT JUMPDEST SUB PUSH2 0x5A9C JUMP JUMPDEST SWAP1 POP DUP2 PUSH1 0x0 SUB SWAP1 PUSH2 0x5A8E JUMP JUMPDEST DUP1 SWAP2 SUB PUSH1 0xE0 DUP2 SLT PUSH2 0x752 JUMPI DUP2 MLOAD SWAP3 PUSH1 0x20 DUP4 ADD MLOAD SWAP3 PUSH1 0x80 PUSH1 0x40 DUP3 ADD MLOAD SWAP4 PUSH1 0x5F NOT ADD SLT PUSH2 0x752 JUMPI PUSH1 0xC0 PUSH1 0x40 MLOAD SWAP2 PUSH2 0x5B5E PUSH1 0x80 DUP5 PUSH2 0x3958 JUMP JUMPDEST PUSH1 0x60 DUP2 ADD MLOAD DUP4 MSTORE PUSH1 0x80 DUP2 ADD MLOAD PUSH1 0x20 DUP5 ADD MSTORE PUSH1 0xA0 DUP2 ADD MLOAD PUSH1 0x40 DUP5 ADD MSTORE ADD MLOAD PUSH1 0x60 DUP3 ADD MSTORE SWAP1 JUMP JUMPDEST SWAP2 SWAP1 DUP3 PUSH1 0xE0 SWAP2 SUB SLT PUSH2 0x752 JUMPI PUSH1 0x40 MLOAD PUSH2 0x5B9D PUSH1 0xE0 DUP3 PUSH2 0x3958 JUMP JUMPDEST PUSH1 0xC0 PUSH2 0x5649 DUP2 DUP4 SWAP6 PUSH2 0x5BAE DUP2 PUSH2 0x3818 JUMP JUMPDEST DUP6 MSTORE PUSH1 0x20 DUP2 ADD CALLDATALOAD PUSH1 0x20 DUP7 ADD MSTORE PUSH1 0x40 DUP2 ADD CALLDATALOAD PUSH1 0x40 DUP7 ADD MSTORE PUSH1 0x60 DUP2 ADD CALLDATALOAD PUSH1 0x60 DUP7 ADD MSTORE PUSH2 0x5BDA PUSH1 0x80 DUP3 ADD PUSH2 0x3818 JUMP JUMPDEST PUSH1 0x80 DUP7 ADD MSTORE PUSH2 0x5BEB PUSH1 0xA0 DUP3 ADD PUSH2 0x3818 JUMP JUMPDEST PUSH1 0xA0 DUP7 ADD MSTORE ADD PUSH2 0x3818 JUMP JUMPDEST PUSH1 0x40 MLOAD PUSH4 0xA9059CBB PUSH1 0xE0 SHL PUSH1 0x20 DUP3 ADD MSTORE PUSH1 0x1 PUSH1 0x1 PUSH1 0xA0 SHL SUB SWAP1 SWAP3 AND PUSH1 0x24 DUP4 ADD MSTORE PUSH1 0x44 DUP3 ADD SWAP3 SWAP1 SWAP3 MSTORE PUSH2 0x38AB SWAP2 PUSH2 0x3F77 DUP3 PUSH1 0x64 DUP2 ADD PUSH2 0x3F69 JUMP JUMPDEST PUSH1 0x97 SLOAD PUSH1 0x40 MLOAD PUSH4 0xD994D6D5 PUSH1 0xE0 SHL DUP2 MSTORE CALLER PUSH1 0x4 DUP3 ADD MSTORE SWAP1 PUSH1 0x20 SWAP1 DUP3 SWAP1 PUSH1 0x24 SWAP1 DUP3 SWAP1 PUSH1 0x1 PUSH1 0x1 PUSH1 0xA0 SHL SUB AND GAS STATICCALL SWAP1 DUP2 ISZERO PUSH2 0x414A JUMPI PUSH1 0x0 SWAP2 PUSH2 0x5C84 JUMPI JUMPDEST POP ISZERO PUSH2 0x5C72 JUMPI JUMP JUMPDEST PUSH1 0x40 MLOAD PUSH4 0x1DD1B1B5 PUSH1 0xE2 SHL DUP2 MSTORE PUSH1 0x4 SWAP1 REVERT JUMPDEST SWAP1 PUSH1 0x20 DUP3 RETURNDATASIZE DUP3 GT PUSH2 0x5CB5 JUMPI JUMPDEST DUP2 PUSH2 0x5C9D PUSH1 0x20 SWAP4 DUP4 PUSH2 0x3958 JUMP JUMPDEST DUP2 ADD SUB SLT PUSH2 0x823 JUMPI POP PUSH2 0x5CAF SWAP1 PUSH2 0x3F7C JUMP JUMPDEST CODESIZE PUSH2 0x5C6A JUMP JUMPDEST RETURNDATASIZE SWAP2 POP PUSH2 0x5C90 JUMP JUMPDEST PUSH1 0xFF PUSH1 0xCA SLOAD PUSH1 0x8 SHR AND PUSH2 0x5CCC JUMPI JUMP JUMPDEST PUSH1 0x40 MLOAD PUSH4 0x783BB6C9 PUSH1 0xE1 SHL DUP2 MSTORE PUSH1 0x4 SWAP1 REVERT JUMPDEST SWAP1 PUSH8 0xDE0B6B3A7640000 SWAP2 DUP3 DUP2 MUL SWAP3 DUP2 DUP5 DIV EQ SWAP1 ISZERO OR ISZERO PUSH2 0x4088 JUMPI PUSH2 0x386C SWAP2 PUSH2 0x429B JUMP JUMPDEST PUSH8 0xDE0B6B3A7640000 LT PUSH2 0x5D12 JUMPI JUMP JUMPDEST PUSH1 0x40 MLOAD PUSH4 0x2A9FFAB7 PUSH1 0xE2 SHL DUP2 MSTORE PUSH1 0x4 SWAP1 REVERT INVALID LOG2 PUSH5 0x6970667358 0x22 SLT KECCAK256 PUSH7 0xCAEA7AEEB5A7B2 SHL 0xA5 SWAP9 0xEA PUSH31 0x5EA2CAF825E5FAEC95CFFDC6832C2BB376AA7664736F6C6343000814003300 "
    },
    "gasEstimates": {
      "creation": {
        "codeDepositCost": "4779600",
        "executionCost": "infinite",
        "totalCost": "infinite"
      },
      "external": {
        "absoluteAccumulator()": "5177",
        "acToken()": "2756",
        "addPeggedToken((address,address,uint256,uint256,uint256,uint256,uint256))": "infinite",
        "appreciationFactor()": "5705",
        "bes()": "3307",
        "bns()": "2581",
        "calcCtargemaCA()": "infinite",
        "changeGovernor(address)": "infinite",
        "decayBlockSpan()": "3835",
        "differentialAccumulator()": "3967",
        "editPeggedToken((address,address,uint256,uint256,uint256,uint256,uint256))": "infinite",
        "emaCalculationBlockSpan()": "4077",
        "evalLiquidation()": "infinite",
        "execMintTC((uint256,uint256,address,address,address))": "infinite",
        "execMintTCandTP((address,uint256,uint256,address,address,address))": "infinite",
        "execMintTP((address,uint256,uint256,address,address,address))": "infinite",
        "execRedeemTC((uint256,uint256,address,address,address))": "infinite",
        "execRedeemTCandTP((address,uint256,uint256,uint256,address,address,address))": "infinite",
        "execRedeemTP((address,uint256,uint256,address,address,address))": "infinite",
        "execSettlement()": "infinite",
        "execSwapTCforTP((address,uint256,uint256,uint256,address,address,address))": "infinite",
        "execSwapTPforTC((address,uint256,uint256,uint256,address,address,address))": "infinite",
        "execSwapTPforTP((address,address,uint256,uint256,uint256,address,address,address))": "infinite",
        "feeRetainer()": "3351",
        "feeToken()": "3724",
        "feeTokenPct()": "2867",
        "feeTokenPriceProvider()": "5572",
        "getBts()": "5602",
        "getCglb()": "infinite",
        "getLckAC()": "infinite",
        "getLeverageTC()": "infinite",
        "getPACtp(address)": "infinite",
        "getPTCac()": "infinite",
        "getTCAvailableToRedeem()": "infinite",
        "getTPAvailableToMint(address)": "infinite",
        "getTotalACavailable()": "infinite",
        "governor()": "2404",
        "initialize((((address,address,address,address,address,address,uint256,uint256,uint256,uint256,uint256,uint256,uint256,uint256,uint256,uint256,uint256,uint256,uint256,uint256,address,uint256,uint256,address,address,uint256),address,address,address,uint256,address),address))": "infinite",
        "isLiquidationReached()": "infinite",
        "lastOperationBlockNumber()": "3527",
        "liqEnabled()": "5475",
        "liqRedeemTP(address)": "infinite",
        "liqRedeemTPto(address,address)": "infinite",
        "liqThrld()": "4407",
        "liquidated()": "2709",
        "makeStoppable()": "infinite",
        "makeUnstoppable()": "infinite",
        "maxAbsoluteOpProvider()": "5550",
        "maxOpDiffProvider()": "4846",
        "maxQACToMintTP()": "infinite",
        "maxQACToRedeemTP()": "infinite",
        "mintTC(uint256,uint256)": "infinite",
        "mintTCViaVendor(uint256,uint256,address)": "infinite",
        "mintTCandTP(address,uint256,uint256)": "infinite",
        "mintTCandTPFee()": "4011",
        "mintTCandTPViaVendor(address,uint256,uint256,address)": "infinite",
        "mintTCandTPto(address,uint256,uint256,address)": "infinite",
        "mintTCandTPtoViaVendor(address,uint256,uint256,address,address)": "infinite",
        "mintTCto(uint256,uint256,address)": "infinite",
        "mintTCtoViaVendor(uint256,uint256,address,address)": "infinite",
        "mintTP(address,uint256,uint256)": "infinite",
        "mintTPViaVendor(address,uint256,uint256,address)": "infinite",
        "mintTPto(address,uint256,uint256,address)": "infinite",
        "mintTPtoViaVendor(address,uint256,uint256,address,address)": "infinite",
        "mocAppreciationBeneficiaryAddress()": "3350",
        "mocFeeFlowAddress()": "4494",
        "mocQueue()": "2536",
        "mocVendors()": "4208",
        "nACcb()": "5639",
        "nTCcb()": "4033",
        "nextEmaCalculation()": "2405",
        "nextTCInterestPayment()": "4869",
        "pause()": "29651",
        "paused()": "3611",
        "pauser()": "4635",
        "pegContainer(uint256)": "9784",
        "peggedTokenIndex(address)": "6832",
        "protThrld()": "3813",
        "proxiableUUID()": "infinite",
        "qACLockedInPending()": "3615",
        "redeemTC(uint256,uint256)": "infinite",
        "redeemTCViaVendor(uint256,uint256,address)": "infinite",
        "redeemTCandTP(address,uint256,uint256,uint256)": "infinite",
        "redeemTCandTPFee()": "5661",
        "redeemTCandTPViaVendor(address,uint256,uint256,uint256,address)": "infinite",
        "redeemTCandTPto(address,uint256,uint256,uint256,address)": "infinite",
        "redeemTCandTPtoViaVendor(address,uint256,uint256,uint256,address,address)": "infinite",
        "redeemTCto(uint256,uint256,address)": "infinite",
        "redeemTCtoViaVendor(uint256,uint256,address,address)": "infinite",
        "redeemTP(address,uint256,uint256)": "infinite",
        "redeemTPViaVendor(address,uint256,uint256,address)": "infinite",
        "redeemTPto(address,uint256,uint256,address)": "infinite",
        "redeemTPtoViaVendor(address,uint256,uint256,address,address)": "infinite",
        "refreshACBalance()": "infinite",
        "setAppreciationFactor(uint256)": "infinite",
        "setBes(uint256)": "infinite",
        "setDecayBlockSpan(uint256)": "infinite",
        "setEmaCalculationBlockSpan(uint256)": "infinite",
        "setFeeRetainer(uint256)": "infinite",
        "setFeeTokenAddress(address)": "infinite",
        "setFeeTokenPct(uint256)": "infinite",
        "setFeeTokenPriceProviderAddress(address)": "infinite",
        "setLiqEnabled(bool)": "infinite",
        "setLiqThrld(uint256)": "infinite",
        "setMaxAbsoluteOpProviderAddress(address)": "infinite",
        "setMaxOpDiffProviderAddress(address)": "infinite",
        "setMintTCandTPFee(uint256)": "infinite",
        "setMocAppreciationBeneficiaryAddress(address)": "infinite",
        "setMocCoreExpansion(address)": "infinite",
        "setMocFeeFlowAddress(address)": "infinite",
        "setMocQueue(address)": "infinite",
        "setMocVendors(address)": "infinite",
        "setPauser(address)": "infinite",
        "setProtThrld(uint256)": "infinite",
        "setRedeemTCandTPFee(uint256)": "infinite",
        "setSuccessFee(uint256)": "infinite",
        "setSwapTCforTPFee(uint256)": "infinite",
        "setSwapTPforTCFee(uint256)": "infinite",
        "setSwapTPforTPFee(uint256)": "infinite",
        "setTCInterestCollectorAddress(address)": "infinite",
        "setTCInterestPaymentBlockSpan(uint256)": "infinite",
        "setTCInterestRate(uint256)": "infinite",
        "setTcMintFee(uint256)": "infinite",
        "setTcRedeemFee(uint256)": "infinite",
        "shouldCalculateEma()": "4657",
        "stoppable()": "4903",
        "successFee()": "3945",
        "swapTCforTP(address,uint256,uint256,uint256)": "infinite",
        "swapTCforTPFee()": "2779",
        "swapTCforTPViaVendor(address,uint256,uint256,uint256,address)": "infinite",
        "swapTCforTPto(address,uint256,uint256,uint256,address)": "infinite",
        "swapTCforTPtoViaVendor(address,uint256,uint256,uint256,address,address)": "infinite",
        "swapTPforTC(address,uint256,uint256,uint256)": "infinite",
        "swapTPforTCFee()": "2889",
        "swapTPforTCViaVendor(address,uint256,uint256,uint256,address)": "infinite",
        "swapTPforTCto(address,uint256,uint256,uint256,address)": "infinite",
        "swapTPforTCtoViaVendor(address,uint256,uint256,uint256,address,address)": "infinite",
        "swapTPforTP(address,address,uint256,uint256,uint256)": "infinite",
        "swapTPforTPFee()": "3131",
        "swapTPforTPViaVendor(address,address,uint256,uint256,uint256,address)": "infinite",
        "swapTPforTPto(address,address,uint256,uint256,uint256,address)": "infinite",
        "swapTPforTPtoViaVendor(address,address,uint256,uint256,uint256,address,address)": "infinite",
        "tcHoldersInterestPayment()": "infinite",
        "tcInterestCollectorAddress()": "4450",
        "tcInterestPaymentBlockSpan()": "4231",
        "tcInterestRate()": "2449",
        "tcMintFee()": "5771",
        "tcRedeemFee()": "4759",
        "tcToken()": "3680",
        "tpCtarg(uint256)": "8531",
        "tpEma(uint256)": "11919",
        "tpLiqPrices(uint256)": "7343",
        "tpMintFees(address)": "2825",
        "tpRedeemFees(address)": "5377",
        "tpTokens(uint256)": "6679",
        "unlockACInPending(address,uint256)": "infinite",
        "unlockTCInPending(address,uint256)": "infinite",
        "unlockTPInPending(address,address,uint256)": "infinite",
        "unpause()": "26289",
        "updateEmas()": "infinite",
        "upgradeTo(address)": "infinite",
        "upgradeToAndCall(address,bytes)": "infinite"
      },
      "internal": {
        "_getExecFeeSent(uint256,enum MocQueueExecFees.OperType)": "infinite",
        "_lockACInPending(uint256)": "infinite",
        "acBalanceOf(address)": "infinite",
        "acTransfer(address,uint256)": "infinite"
      }
    },
    "methodIdentifiers": {
      "absoluteAccumulator()": "d87aab6f",
      "acToken()": "25bc6c41",
      "addPeggedToken((address,address,uint256,uint256,uint256,uint256,uint256))": "db796072",
      "appreciationFactor()": "fa6e83bd",
      "bes()": "4d977e78",
      "bns()": "1867e2f5",
      "calcCtargemaCA()": "662013f4",
      "changeGovernor(address)": "e4c0aaf4",
      "decayBlockSpan()": "6f30471f",
      "differentialAccumulator()": "76228055",
      "editPeggedToken((address,address,uint256,uint256,uint256,uint256,uint256))": "f26114aa",
      "emaCalculationBlockSpan()": "7a727fe8",
      "evalLiquidation()": "33421c38",
      "execMintTC((uint256,uint256,address,address,address))": "235e81cf",
      "execMintTCandTP((address,uint256,uint256,address,address,address))": "883d21cb",
      "execMintTP((address,uint256,uint256,address,address,address))": "b4434c32",
      "execRedeemTC((uint256,uint256,address,address,address))": "bfe42621",
      "execRedeemTCandTP((address,uint256,uint256,uint256,address,address,address))": "d8c69aec",
      "execRedeemTP((address,uint256,uint256,address,address,address))": "ad4e666d",
      "execSettlement()": "5c616a73",
      "execSwapTCforTP((address,uint256,uint256,uint256,address,address,address))": "4af3a6fc",
      "execSwapTPforTC((address,uint256,uint256,uint256,address,address,address))": "bc4e55b2",
      "execSwapTPforTP((address,address,uint256,uint256,uint256,address,address,address))": "391bf6cf",
      "feeRetainer()": "4f0f27ee",
      "feeToken()": "647846a5",
      "feeTokenPct()": "2ded50f0",
      "feeTokenPriceProvider()": "f13f4054",
      "getBts()": "e8859a15",
      "getCglb()": "826fcd58",
      "getLckAC()": "8f1a383a",
      "getLeverageTC()": "c039cc69",
      "getPACtp(address)": "fadda424",
      "getPTCac()": "1fb0dda0",
      "getTCAvailableToRedeem()": "4017936a",
      "getTPAvailableToMint(address)": "f88b1434",
      "getTotalACavailable()": "de8d520a",
      "governor()": "0c340a24",
      "initialize((((address,address,address,address,address,address,uint256,uint256,uint256,uint256,uint256,uint256,uint256,uint256,uint256,uint256,uint256,uint256,uint256,uint256,address,uint256,uint256,address,address,uint256),address,address,address,uint256,address),address))": "60a01dfa",
      "isLiquidationReached()": "9ad6659d",
      "lastOperationBlockNumber()": "5860ee63",
      "liqEnabled()": "e7c25978",
      "liqRedeemTP(address)": "17937f9b",
      "liqRedeemTPto(address,address)": "9bea71a4",
      "liqThrld()": "8cfa4241",
      "liquidated()": "23b98cde",
      "makeStoppable()": "68274357",
      "makeUnstoppable()": "5210570c",
      "maxAbsoluteOpProvider()": "ee1f438f",
      "maxOpDiffProvider()": "b5e9ea8c",
      "maxQACToMintTP()": "d6af11da",
      "maxQACToRedeemTP()": "7f13b998",
      "mintTC(uint256,uint256)": "0bb7f608",
      "mintTCViaVendor(uint256,uint256,address)": "ffe31539",
      "mintTCandTP(address,uint256,uint256)": "44719ee9",
      "mintTCandTPFee()": "79f9a91c",
      "mintTCandTPViaVendor(address,uint256,uint256,address)": "98b2086f",
      "mintTCandTPto(address,uint256,uint256,address)": "c239fca4",
      "mintTCandTPtoViaVendor(address,uint256,uint256,address,address)": "d76dc7fd",
      "mintTCto(uint256,uint256,address)": "4310adc6",
      "mintTCtoViaVendor(uint256,uint256,address,address)": "fed0ade4",
      "mintTP(address,uint256,uint256)": "484ad7cd",
      "mintTPViaVendor(address,uint256,uint256,address)": "f2f9f456",
      "mintTPto(address,uint256,uint256,address)": "aaf925f6",
      "mintTPtoViaVendor(address,uint256,uint256,address,address)": "9fd8ed0e",
      "mocAppreciationBeneficiaryAddress()": "4e1f907a",
      "mocFeeFlowAddress()": "9853c35a",
      "mocQueue()": "13ed7ba5",
      "mocVendors()": "7f01c715",
      "nACcb()": "f30b5614",
      "nTCcb()": "7a193c31",
      "nextEmaCalculation()": "0c36d897",
      "nextTCInterestPayment()": "b9fa6413",
      "pause()": "8456cb59",
      "paused()": "5c975abb",
      "pauser()": "9fd0506d",
      "pegContainer(uint256)": "4b746001",
      "peggedTokenIndex(address)": "9cabfc00",
      "protThrld()": "6b5488df",
      "proxiableUUID()": "52d1902d",
      "qACLockedInPending()": "5cfbe578",
      "redeemTC(uint256,uint256)": "9abb14c9",
      "redeemTCViaVendor(uint256,uint256,address)": "471a80e3",
      "redeemTCandTP(address,uint256,uint256,uint256)": "34246862",
      "redeemTCandTPFee()": "f375cfba",
      "redeemTCandTPViaVendor(address,uint256,uint256,uint256,address)": "aeb41e69",
      "redeemTCandTPto(address,uint256,uint256,uint256,address)": "fd80fa77",
      "redeemTCandTPtoViaVendor(address,uint256,uint256,uint256,address,address)": "5ece17ef",
      "redeemTCto(uint256,uint256,address)": "e4012945",
      "redeemTCtoViaVendor(uint256,uint256,address,address)": "3dbc50a9",
      "redeemTP(address,uint256,uint256)": "466b8934",
      "redeemTPViaVendor(address,uint256,uint256,address)": "8acc2011",
      "redeemTPto(address,uint256,uint256,address)": "52e18f8f",
      "redeemTPtoViaVendor(address,uint256,uint256,address,address)": "89fd503e",
      "refreshACBalance()": "e23c135c",
      "setAppreciationFactor(uint256)": "01dde6ef",
      "setBes(uint256)": "c84353c9",
      "setDecayBlockSpan(uint256)": "73e28af9",
      "setEmaCalculationBlockSpan(uint256)": "3bc4ac0a",
      "setFeeRetainer(uint256)": "7750ba0c",
      "setFeeTokenAddress(address)": "cf351c1d",
      "setFeeTokenPct(uint256)": "543aeb48",
      "setFeeTokenPriceProviderAddress(address)": "0f1e5e2b",
      "setLiqEnabled(bool)": "1fe6a7ad",
      "setLiqThrld(uint256)": "2c43bd3b",
      "setMaxAbsoluteOpProviderAddress(address)": "d8db6f5a",
      "setMaxOpDiffProviderAddress(address)": "85bf9593",
      "setMintTCandTPFee(uint256)": "2069f753",
      "setMocAppreciationBeneficiaryAddress(address)": "27eab2a1",
      "setMocCoreExpansion(address)": "e6a683e0",
      "setMocFeeFlowAddress(address)": "0d6ac463",
      "setMocQueue(address)": "3cfb09ef",
      "setMocVendors(address)": "533a4bea",
      "setPauser(address)": "2d88af4a",
      "setProtThrld(uint256)": "7cba2383",
      "setRedeemTCandTPFee(uint256)": "7a4ff1d9",
      "setSuccessFee(uint256)": "becaca6b",
      "setSwapTCforTPFee(uint256)": "7af5758c",
      "setSwapTPforTCFee(uint256)": "0e0a8fd2",
      "setSwapTPforTPFee(uint256)": "70713468",
      "setTCInterestCollectorAddress(address)": "735d3960",
      "setTCInterestPaymentBlockSpan(uint256)": "073763b9",
      "setTCInterestRate(uint256)": "64ec230a",
      "setTcMintFee(uint256)": "f2808778",
      "setTcRedeemFee(uint256)": "c00f538d",
      "shouldCalculateEma()": "a8e9ac30",
      "stoppable()": "bb4872de",
      "successFee()": "7554fffd",
      "swapTCforTP(address,uint256,uint256,uint256)": "b85edd65",
      "swapTCforTPFee()": "2a20d57d",
      "swapTCforTPViaVendor(address,uint256,uint256,uint256,address)": "aaf91eff",
      "swapTCforTPto(address,uint256,uint256,uint256,address)": "842d5748",
      "swapTCforTPtoViaVendor(address,uint256,uint256,uint256,address,address)": "2b764fad",
      "swapTPforTC(address,uint256,uint256,uint256)": "ac0c88ab",
      "swapTPforTCFee()": "333431fd",
      "swapTPforTCViaVendor(address,uint256,uint256,uint256,address)": "74873ad3",
      "swapTPforTCto(address,uint256,uint256,uint256,address)": "ea302a97",
      "swapTPforTCtoViaVendor(address,uint256,uint256,uint256,address,address)": "15266e36",
      "swapTPforTP(address,address,uint256,uint256,uint256)": "c09c30bd",
      "swapTPforTPFee()": "407f0e34",
      "swapTPforTPViaVendor(address,address,uint256,uint256,uint256,address)": "7b21b274",
      "swapTPforTPto(address,address,uint256,uint256,uint256,address)": "e3867eeb",
      "swapTPforTPtoViaVendor(address,address,uint256,uint256,uint256,address,address)": "68f015df",
      "tcHoldersInterestPayment()": "0579188f",
      "tcInterestCollectorAddress()": "8e2bdb86",
      "tcInterestPaymentBlockSpan()": "7f4a4fe0",
      "tcInterestRate()": "0db49656",
      "tcMintFee()": "fda70f8b",
      "tcRedeemFee()": "aea038dc",
      "tcToken()": "60009e0b",
      "tpCtarg(uint256)": "7d8e0314",
      "tpEma(uint256)": "e6b1627c",
      "tpLiqPrices(uint256)": "3915edcb",
      "tpMintFees(address)": "24ffaba3",
      "tpRedeemFees(address)": "ddb6d190",
      "tpTokens(uint256)": "01f1b684",
      "unlockACInPending(address,uint256)": "58f32de9",
      "unlockTCInPending(address,uint256)": "53b16d17",
      "unlockTPInPending(address,address,uint256)": "e2c5e990",
      "unpause()": "3f4ba83a",
      "updateEmas()": "d1a0faa0",
      "upgradeTo(address)": "3659cfe6",
      "upgradeToAndCall(address,bytes)": "4f1ef286"
    }
  },
  "storageLayout": {
    "storage": [
      {
        "astId": 950,
        "contract": "contracts/collateral/rc20/MocCARC20.sol:MocCARC20",
        "label": "_initialized",
        "offset": 0,
        "slot": "0",
        "type": "t_uint8"
      },
      {
        "astId": 953,
        "contract": "contracts/collateral/rc20/MocCARC20.sol:MocCARC20",
        "label": "_initializing",
        "offset": 1,
        "slot": "0",
        "type": "t_bool"
      },
      {
        "astId": 932,
        "contract": "contracts/collateral/rc20/MocCARC20.sol:MocCARC20",
        "label": "__gap",
        "offset": 0,
        "slot": "1",
        "type": "t_array(t_uint256)50_storage"
      },
      {
        "astId": 1247,
        "contract": "contracts/collateral/rc20/MocCARC20.sol:MocCARC20",
        "label": "__gap",
        "offset": 0,
        "slot": "51",
        "type": "t_array(t_uint256)50_storage"
      },
      {
        "astId": 28019,
        "contract": "contracts/collateral/rc20/MocCARC20.sol:MocCARC20",
        "label": "__gap",
        "offset": 0,
        "slot": "101",
        "type": "t_array(t_uint256)50_storage"
      },
      {
        "astId": 20601,
        "contract": "contracts/collateral/rc20/MocCARC20.sol:MocCARC20",
        "label": "governor",
        "offset": 0,
        "slot": "151",
        "type": "t_contract(IGovernor)21376"
      },
      {
        "astId": 20672,
        "contract": "contracts/collateral/rc20/MocCARC20.sol:MocCARC20",
        "label": "__gap",
        "offset": 0,
        "slot": "152",
        "type": "t_array(t_uint256)50_storage"
      },
      {
        "astId": 20741,
        "contract": "contracts/collateral/rc20/MocCARC20.sol:MocCARC20",
        "label": "stoppable",
        "offset": 0,
        "slot": "202",
        "type": "t_bool"
      },
      {
        "astId": 20743,
        "contract": "contracts/collateral/rc20/MocCARC20.sol:MocCARC20",
        "label": "_paused",
        "offset": 1,
        "slot": "202",
        "type": "t_bool"
      },
      {
        "astId": 20745,
        "contract": "contracts/collateral/rc20/MocCARC20.sol:MocCARC20",
        "label": "pauser",
        "offset": 2,
        "slot": "202",
        "type": "t_address"
      },
      {
        "astId": 20904,
        "contract": "contracts/collateral/rc20/MocCARC20.sol:MocCARC20",
        "label": "__gap",
        "offset": 0,
        "slot": "203",
        "type": "t_array(t_uint256)50_storage"
      },
      {
        "astId": 20723,
        "contract": "contracts/collateral/rc20/MocCARC20.sol:MocCARC20",
        "label": "__gap",
        "offset": 0,
        "slot": "253",
        "type": "t_array(t_uint256)50_storage"
      },
      {
        "astId": 10197,
        "contract": "contracts/collateral/rc20/MocCARC20.sol:MocCARC20",
        "label": "feeToken",
        "offset": 0,
        "slot": "303",
        "type": "t_contract(IERC20)6209"
      },
      {
        "astId": 10200,
        "contract": "contracts/collateral/rc20/MocCARC20.sol:MocCARC20",
        "label": "feeTokenPriceProvider",
        "offset": 0,
        "slot": "304",
        "type": "t_contract(IPriceProvider)21414"
      },
      {
        "astId": 10202,
        "contract": "contracts/collateral/rc20/MocCARC20.sol:MocCARC20",
        "label": "nACcb",
        "offset": 0,
        "slot": "305",
        "type": "t_uint256"
      },
      {
        "astId": 10204,
        "contract": "contracts/collateral/rc20/MocCARC20.sol:MocCARC20",
        "label": "nACioucb",
        "offset": 0,
        "slot": "306",
        "type": "t_uint256"
      },
      {
        "astId": 10207,
        "contract": "contracts/collateral/rc20/MocCARC20.sol:MocCARC20",
        "label": "tcToken",
        "offset": 0,
        "slot": "307",
        "type": "t_contract(MocTC)27844"
      },
      {
        "astId": 10209,
        "contract": "contracts/collateral/rc20/MocCARC20.sol:MocCARC20",
        "label": "nTCcb",
        "offset": 0,
        "slot": "308",
        "type": "t_uint256"
      },
      {
        "astId": 10213,
        "contract": "contracts/collateral/rc20/MocCARC20.sol:MocCARC20",
        "label": "tpTokens",
        "offset": 0,
        "slot": "309",
        "type": "t_array(t_contract(IMocRC20)21402)dyn_storage"
      },
      {
        "astId": 10218,
        "contract": "contracts/collateral/rc20/MocCARC20.sol:MocCARC20",
        "label": "peggedTokenIndex",
        "offset": 0,
        "slot": "310",
        "type": "t_mapping(t_address,t_struct(PeggedTokenIndex)10141_storage)"
      },
      {
        "astId": 10222,
        "contract": "contracts/collateral/rc20/MocCARC20.sol:MocCARC20",
        "label": "pegContainer",
        "offset": 0,
        "slot": "311",
        "type": "t_array(t_struct(PegContainerItem)10136_storage)dyn_storage"
      },
      {
        "astId": 10225,
        "contract": "contracts/collateral/rc20/MocCARC20.sol:MocCARC20",
        "label": "tpLiqPrices",
        "offset": 0,
        "slot": "312",
        "type": "t_array(t_uint256)dyn_storage"
      },
      {
        "astId": 10227,
        "contract": "contracts/collateral/rc20/MocCARC20.sol:MocCARC20",
        "label": "successFee",
        "offset": 0,
        "slot": "313",
        "type": "t_uint256"
      },
      {
        "astId": 10229,
        "contract": "contracts/collateral/rc20/MocCARC20.sol:MocCARC20",
        "label": "appreciationFactor",
        "offset": 0,
        "slot": "314",
        "type": "t_uint256"
      },
      {
        "astId": 10231,
        "contract": "contracts/collateral/rc20/MocCARC20.sol:MocCARC20",
        "label": "feeRetainer",
        "offset": 0,
        "slot": "315",
        "type": "t_uint256"
      },
      {
        "astId": 10233,
        "contract": "contracts/collateral/rc20/MocCARC20.sol:MocCARC20",
        "label": "tcMintFee",
        "offset": 0,
        "slot": "316",
        "type": "t_uint256"
      },
      {
        "astId": 10235,
        "contract": "contracts/collateral/rc20/MocCARC20.sol:MocCARC20",
        "label": "tcRedeemFee",
        "offset": 0,
        "slot": "317",
        "type": "t_uint256"
      },
      {
        "astId": 10237,
        "contract": "contracts/collateral/rc20/MocCARC20.sol:MocCARC20",
        "label": "swapTPforTPFee",
        "offset": 0,
        "slot": "318",
        "type": "t_uint256"
      },
      {
        "astId": 10239,
        "contract": "contracts/collateral/rc20/MocCARC20.sol:MocCARC20",
        "label": "swapTPforTCFee",
        "offset": 0,
        "slot": "319",
        "type": "t_uint256"
      },
      {
        "astId": 10241,
        "contract": "contracts/collateral/rc20/MocCARC20.sol:MocCARC20",
        "label": "swapTCforTPFee",
        "offset": 0,
        "slot": "320",
        "type": "t_uint256"
      },
      {
        "astId": 10243,
        "contract": "contracts/collateral/rc20/MocCARC20.sol:MocCARC20",
        "label": "redeemTCandTPFee",
        "offset": 0,
        "slot": "321",
        "type": "t_uint256"
      },
      {
        "astId": 10245,
        "contract": "contracts/collateral/rc20/MocCARC20.sol:MocCARC20",
        "label": "mintTCandTPFee",
        "offset": 0,
        "slot": "322",
        "type": "t_uint256"
      },
      {
        "astId": 10247,
        "contract": "contracts/collateral/rc20/MocCARC20.sol:MocCARC20",
        "label": "feeTokenPct",
        "offset": 0,
        "slot": "323",
        "type": "t_uint256"
      },
      {
        "astId": 10251,
        "contract": "contracts/collateral/rc20/MocCARC20.sol:MocCARC20",
        "label": "tpMintFees",
        "offset": 0,
        "slot": "324",
        "type": "t_mapping(t_address,t_uint256)"
      },
      {
        "astId": 10255,
        "contract": "contracts/collateral/rc20/MocCARC20.sol:MocCARC20",
        "label": "tpRedeemFees",
        "offset": 0,
        "slot": "325",
        "type": "t_mapping(t_address,t_uint256)"
      },
      {
        "astId": 10257,
        "contract": "contracts/collateral/rc20/MocCARC20.sol:MocCARC20",
        "label": "mocFeeFlowAddress",
        "offset": 0,
        "slot": "326",
        "type": "t_address"
      },
      {
        "astId": 10259,
        "contract": "contracts/collateral/rc20/MocCARC20.sol:MocCARC20",
        "label": "mocAppreciationBeneficiaryAddress",
        "offset": 0,
        "slot": "327",
        "type": "t_address"
      },
      {
        "astId": 10262,
        "contract": "contracts/collateral/rc20/MocCARC20.sol:MocCARC20",
        "label": "tpCtarg",
        "offset": 0,
        "slot": "328",
        "type": "t_array(t_uint256)dyn_storage"
      },
      {
        "astId": 10264,
        "contract": "contracts/collateral/rc20/MocCARC20.sol:MocCARC20",
        "label": "protThrld",
        "offset": 0,
        "slot": "329",
        "type": "t_uint256"
      },
      {
        "astId": 10266,
        "contract": "contracts/collateral/rc20/MocCARC20.sol:MocCARC20",
        "label": "liqThrld",
        "offset": 0,
        "slot": "330",
        "type": "t_uint256"
      },
      {
        "astId": 10268,
        "contract": "contracts/collateral/rc20/MocCARC20.sol:MocCARC20",
        "label": "liqEnabled",
        "offset": 0,
        "slot": "331",
        "type": "t_bool"
      },
      {
        "astId": 10270,
        "contract": "contracts/collateral/rc20/MocCARC20.sol:MocCARC20",
        "label": "liquidated",
        "offset": 1,
        "slot": "331",
        "type": "t_bool"
      },
      {
        "astId": 10272,
        "contract": "contracts/collateral/rc20/MocCARC20.sol:MocCARC20",
        "label": "bes",
        "offset": 0,
        "slot": "332",
        "type": "t_uint256"
      },
      {
        "astId": 10274,
        "contract": "contracts/collateral/rc20/MocCARC20.sol:MocCARC20",
        "label": "bns",
        "offset": 0,
        "slot": "333",
        "type": "t_uint256"
      },
      {
        "astId": 10276,
        "contract": "contracts/collateral/rc20/MocCARC20.sol:MocCARC20",
        "label": "qACLockedInPending",
        "offset": 0,
        "slot": "334",
        "type": "t_uint256"
      },
      {
        "astId": 10278,
        "contract": "contracts/collateral/rc20/MocCARC20.sol:MocCARC20",
        "label": "mocQueue",
        "offset": 0,
        "slot": "335",
        "type": "t_address"
      },
      {
        "astId": 10281,
        "contract": "contracts/collateral/rc20/MocCARC20.sol:MocCARC20",
        "label": "tpiou",
        "offset": 0,
        "slot": "336",
        "type": "t_array(t_int256)dyn_storage"
      },
      {
        "astId": 10284,
        "contract": "contracts/collateral/rc20/MocCARC20.sol:MocCARC20",
        "label": "pACtpLstop",
        "offset": 0,
        "slot": "337",
        "type": "t_array(t_uint256)dyn_storage"
      },
      {
        "astId": 10287,
        "contract": "contracts/collateral/rc20/MocCARC20.sol:MocCARC20",
        "label": "maxAbsoluteOpProvider",
        "offset": 0,
        "slot": "338",
        "type": "t_contract(IDataProvider)21355"
      },
      {
        "astId": 10290,
        "contract": "contracts/collateral/rc20/MocCARC20.sol:MocCARC20",
        "label": "maxOpDiffProvider",
        "offset": 0,
        "slot": "339",
        "type": "t_contract(IDataProvider)21355"
      },
      {
        "astId": 10292,
        "contract": "contracts/collateral/rc20/MocCARC20.sol:MocCARC20",
        "label": "decayBlockSpan",
        "offset": 0,
        "slot": "340",
        "type": "t_uint256"
      },
      {
        "astId": 10294,
        "contract": "contracts/collateral/rc20/MocCARC20.sol:MocCARC20",
        "label": "absoluteAccumulator",
        "offset": 0,
        "slot": "341",
        "type": "t_uint256"
      },
      {
        "astId": 10296,
        "contract": "contracts/collateral/rc20/MocCARC20.sol:MocCARC20",
        "label": "differentialAccumulator",
        "offset": 0,
        "slot": "342",
        "type": "t_int256"
      },
      {
        "astId": 10298,
        "contract": "contracts/collateral/rc20/MocCARC20.sol:MocCARC20",
        "label": "lastOperationBlockNumber",
        "offset": 0,
        "slot": "343",
        "type": "t_uint256"
      },
      {
        "astId": 10300,
        "contract": "contracts/collateral/rc20/MocCARC20.sol:MocCARC20",
        "label": "tcInterestCollectorAddress",
        "offset": 0,
        "slot": "344",
        "type": "t_address"
      },
      {
        "astId": 10302,
        "contract": "contracts/collateral/rc20/MocCARC20.sol:MocCARC20",
        "label": "tcInterestRate",
        "offset": 0,
        "slot": "345",
        "type": "t_uint256"
      },
      {
        "astId": 10304,
        "contract": "contracts/collateral/rc20/MocCARC20.sol:MocCARC20",
        "label": "tcInterestPaymentBlockSpan",
        "offset": 0,
        "slot": "346",
        "type": "t_uint256"
      },
      {
        "astId": 10306,
        "contract": "contracts/collateral/rc20/MocCARC20.sol:MocCARC20",
        "label": "nextTCInterestPayment",
        "offset": 0,
        "slot": "347",
        "type": "t_uint256"
      },
      {
        "astId": 11909,
        "contract": "contracts/collateral/rc20/MocCARC20.sol:MocCARC20",
        "label": "__gap",
        "offset": 0,
        "slot": "348",
        "type": "t_array(t_uint256)50_storage"
      },
      {
        "astId": 15698,
        "contract": "contracts/collateral/rc20/MocCARC20.sol:MocCARC20",
        "label": "tpEma",
        "offset": 0,
        "slot": "398",
        "type": "t_array(t_struct(EmaItem)15694_storage)dyn_storage"
      },
      {
        "astId": 15700,
        "contract": "contracts/collateral/rc20/MocCARC20.sol:MocCARC20",
        "label": "nextEmaCalculation",
        "offset": 0,
        "slot": "399",
        "type": "t_uint256"
      },
      {
        "astId": 15702,
        "contract": "contracts/collateral/rc20/MocCARC20.sol:MocCARC20",
        "label": "emaCalculationBlockSpan",
        "offset": 0,
        "slot": "400",
        "type": "t_uint256"
      },
      {
        "astId": 16074,
        "contract": "contracts/collateral/rc20/MocCARC20.sol:MocCARC20",
        "label": "__gap",
        "offset": 0,
        "slot": "401",
        "type": "t_array(t_uint256)50_storage"
      },
      {
        "astId": 11943,
        "contract": "contracts/collateral/rc20/MocCARC20.sol:MocCARC20",
        "label": "mocVendors",
        "offset": 0,
        "slot": "451",
        "type": "t_contract(MocVendors)28149"
      },
      {
        "astId": 12816,
        "contract": "contracts/collateral/rc20/MocCARC20.sol:MocCARC20",
        "label": "__gap",
        "offset": 0,
        "slot": "452",
        "type": "t_array(t_uint256)50_storage"
      },
      {
        "astId": 12865,
        "contract": "contracts/collateral/rc20/MocCARC20.sol:MocCARC20",
        "label": "mocCoreExpansion",
        "offset": 0,
        "slot": "502",
        "type": "t_address"
      },
      {
        "astId": 14471,
        "contract": "contracts/collateral/rc20/MocCARC20.sol:MocCARC20",
        "label": "__gap",
        "offset": 0,
        "slot": "503",
        "type": "t_array(t_uint256)50_storage"
      },
      {
        "astId": 9281,
        "contract": "contracts/collateral/rc20/MocCARC20.sol:MocCARC20",
        "label": "acToken",
        "offset": 0,
        "slot": "553",
        "type": "t_contract(IERC20)6209"
      },
      {
        "astId": 10099,
        "contract": "contracts/collateral/rc20/MocCARC20.sol:MocCARC20",
        "label": "__gap",
        "offset": 0,
        "slot": "554",
        "type": "t_array(t_uint256)50_storage"
      }
    ],
    "types": {
      "t_address": {
        "encoding": "inplace",
        "label": "address",
        "numberOfBytes": "20"
      },
      "t_array(t_contract(IMocRC20)21402)dyn_storage": {
        "base": "t_contract(IMocRC20)21402",
        "encoding": "dynamic_array",
        "label": "contract IMocRC20[]",
        "numberOfBytes": "32"
      },
      "t_array(t_int256)dyn_storage": {
        "base": "t_int256",
        "encoding": "dynamic_array",
        "label": "int256[]",
        "numberOfBytes": "32"
      },
      "t_array(t_struct(EmaItem)15694_storage)dyn_storage": {
        "base": "t_struct(EmaItem)15694_storage",
        "encoding": "dynamic_array",
        "label": "struct MocEma.EmaItem[]",
        "numberOfBytes": "32"
      },
      "t_array(t_struct(PegContainerItem)10136_storage)dyn_storage": {
        "base": "t_struct(PegContainerItem)10136_storage",
        "encoding": "dynamic_array",
        "label": "struct MocBaseBucket.PegContainerItem[]",
        "numberOfBytes": "32"
      },
      "t_array(t_uint256)50_storage": {
        "base": "t_uint256",
        "encoding": "inplace",
        "label": "uint256[50]",
        "numberOfBytes": "1600"
      },
      "t_array(t_uint256)dyn_storage": {
        "base": "t_uint256",
        "encoding": "dynamic_array",
        "label": "uint256[]",
        "numberOfBytes": "32"
      },
      "t_bool": {
        "encoding": "inplace",
        "label": "bool",
        "numberOfBytes": "1"
      },
      "t_contract(IDataProvider)21355": {
        "encoding": "inplace",
        "label": "contract IDataProvider",
        "numberOfBytes": "20"
      },
      "t_contract(IERC20)6209": {
        "encoding": "inplace",
        "label": "contract IERC20",
        "numberOfBytes": "20"
      },
      "t_contract(IGovernor)21376": {
        "encoding": "inplace",
        "label": "contract IGovernor",
        "numberOfBytes": "20"
      },
      "t_contract(IMocRC20)21402": {
        "encoding": "inplace",
        "label": "contract IMocRC20",
        "numberOfBytes": "20"
      },
      "t_contract(IPriceProvider)21414": {
        "encoding": "inplace",
        "label": "contract IPriceProvider",
        "numberOfBytes": "20"
      },
      "t_contract(MocTC)27844": {
        "encoding": "inplace",
        "label": "contract MocTC",
        "numberOfBytes": "20"
      },
      "t_contract(MocVendors)28149": {
        "encoding": "inplace",
        "label": "contract MocVendors",
        "numberOfBytes": "20"
      },
      "t_int256": {
        "encoding": "inplace",
        "label": "int256",
        "numberOfBytes": "32"
      },
      "t_mapping(t_address,t_struct(PeggedTokenIndex)10141_storage)": {
        "encoding": "mapping",
        "key": "t_address",
        "label": "mapping(address => struct MocBaseBucket.PeggedTokenIndex)",
        "numberOfBytes": "32",
        "value": "t_struct(PeggedTokenIndex)10141_storage"
      },
      "t_mapping(t_address,t_uint256)": {
        "encoding": "mapping",
        "key": "t_address",
        "label": "mapping(address => uint256)",
        "numberOfBytes": "32",
        "value": "t_uint256"
      },
      "t_struct(EmaItem)15694_storage": {
        "encoding": "inplace",
        "label": "struct MocEma.EmaItem",
        "members": [
          {
            "astId": 15691,
            "contract": "contracts/collateral/rc20/MocCARC20.sol:MocCARC20",
            "label": "ema",
            "offset": 0,
            "slot": "0",
            "type": "t_uint256"
          },
          {
            "astId": 15693,
            "contract": "contracts/collateral/rc20/MocCARC20.sol:MocCARC20",
            "label": "sf",
            "offset": 0,
            "slot": "1",
            "type": "t_uint256"
          }
        ],
        "numberOfBytes": "64"
      },
      "t_struct(PegContainerItem)10136_storage": {
        "encoding": "inplace",
        "label": "struct MocBaseBucket.PegContainerItem",
        "members": [
          {
            "astId": 10132,
            "contract": "contracts/collateral/rc20/MocCARC20.sol:MocCARC20",
            "label": "nTP",
            "offset": 0,
            "slot": "0",
            "type": "t_uint256"
          },
          {
            "astId": 10135,
            "contract": "contracts/collateral/rc20/MocCARC20.sol:MocCARC20",
            "label": "priceProvider",
            "offset": 0,
            "slot": "1",
            "type": "t_contract(IPriceProvider)21414"
          }
        ],
        "numberOfBytes": "64"
      },
      "t_struct(PeggedTokenIndex)10141_storage": {
        "encoding": "inplace",
        "label": "struct MocBaseBucket.PeggedTokenIndex",
        "members": [
          {
            "astId": 10138,
            "contract": "contracts/collateral/rc20/MocCARC20.sol:MocCARC20",
            "label": "index",
            "offset": 0,
            "slot": "0",
            "type": "t_uint256"
          },
          {
            "astId": 10140,
            "contract": "contracts/collateral/rc20/MocCARC20.sol:MocCARC20",
            "label": "exists",
            "offset": 0,
            "slot": "1",
            "type": "t_bool"
          }
        ],
        "numberOfBytes": "64"
      },
      "t_uint256": {
        "encoding": "inplace",
        "label": "uint256",
        "numberOfBytes": "32"
      },
      "t_uint8": {
        "encoding": "inplace",
        "label": "uint8",
        "numberOfBytes": "1"
      }
    }
  },
  "userdoc": {
    "kind": "user",
    "methods": {
      "addPeggedToken((address,address,uint256,uint256,uint256,uint256,uint256))": {
        "notice": "add a Pegged Token to the protocol"
      },
      "calcCtargemaCA()": {
        "notice": "calculates target coverage adjusted by all Pegged Token's to Collateral Asset rate moving average"
      },
      "changeGovernor(address)": {
        "notice": "Change the contract's governor. Should be called through the old governance system"
      },
      "editPeggedToken((address,address,uint256,uint256,uint256,uint256,uint256))": {
        "notice": "modifies a Pegged Token of the protocol"
      },
      "evalLiquidation()": {
        "notice": "evaluates if liquidation threshold has been reached and liq is Enabled. If so forces contracts liquidation, blocking all mint & redeem operations. May emit a {ContractLiquidated} event."
      },
      "execMintTC((uint256,uint256,address,address,address))": {
        "notice": "executes Operation based on params, only mocQueue allowed see MocCore _mintTCto for details"
      },
      "execMintTCandTP((address,uint256,uint256,address,address,address))": {
        "notice": "executes Operation based on params, only mocQueue allowed see MocCore _mintTCandTPto for details"
      },
      "execMintTP((address,uint256,uint256,address,address,address))": {
        "notice": "executes Operation based on params, only mocQueue allowed see MocCore _mintTPto for details"
      },
      "execRedeemTC((uint256,uint256,address,address,address))": {
        "notice": "executes Operation based on params, only mocQueue allowed see MocCore _redeemTCto for details"
      },
      "execRedeemTCandTP((address,uint256,uint256,uint256,address,address,address))": {
        "notice": "executes Operation based on params, only mocQueue allowed see MocCore _redeemTCandTPto for details"
      },
      "execRedeemTP((address,uint256,uint256,address,address,address))": {
        "notice": "executes Operation based on params, only mocQueue allowed see MocCore _redeemTPto for details"
      },
      "execSettlement()": {
        "notice": "this function is executed during settlement.  stores amount of locked AC by Pegged Tokens at this moment and distribute success fee"
      },
      "execSwapTCforTP((address,uint256,uint256,uint256,address,address,address))": {
        "notice": "executes Operation based on params, only mocQueue allowed see MocCore _swapTCforTPto for details"
      },
      "execSwapTPforTC((address,uint256,uint256,uint256,address,address,address))": {
        "notice": "executes Operation based on params, only mocQueue allowed see MocCore _swapTPforTCto for details"
      },
      "execSwapTPforTP((address,address,uint256,uint256,uint256,address,address,address))": {
        "notice": "executes Operation based on params, only mocQueue allowed see MocCore _swapTPforTPto for details"
      },
      "getBts()": {
        "notice": "get the number of blocks remaining for settlement"
      },
      "getCglb()": {
        "notice": "get bucket global coverage"
      },
      "getLckAC()": {
        "notice": "get amount of Collateral Asset locked by Pegged Token"
      },
      "getLeverageTC()": {
        "notice": "get Collateral Token leverage"
      },
      "getPACtp(address)": {
        "notice": "get how many Pegged Token equal 1 Collateral Asset"
      },
      "getPTCac()": {
        "notice": "get Collateral Token price"
      },
      "getTCAvailableToRedeem()": {
        "notice": "get amount of Collateral Token available to redeem"
      },
      "getTPAvailableToMint(address)": {
        "notice": "get amount of Pegged Token available to mint"
      },
      "getTotalACavailable()": {
        "notice": "get total Collateral Asset available"
      },
      "governor()": {
        "notice": "The address of the contract which governs this one"
      },
      "initialize((((address,address,address,address,address,address,uint256,uint256,uint256,uint256,uint256,uint256,uint256,uint256,uint256,uint256,uint256,uint256,uint256,uint256,address,uint256,uint256,address,address,uint256),address,address,address,uint256,address),address))": {
        "notice": "contract initializer"
      },
      "isLiquidationReached()": {
        "notice": "If liquidation is enabled, verifies if forced liquidation has been reached, checking if globalCoverage <= liquidation"
      },
      "liqRedeemTP(address)": {
        "notice": "Allow redeem on liquidation state, user Peg balance gets burned and he receives the equivalent AC given the liquidation frozen price."
      },
      "liqRedeemTPto(address,address)": {
        "notice": "Allow redeem on liquidation state, user Peg balance gets burned and he receives the equivalent AC given the liquidation frozen price."
      },
      "makeStoppable()": {
        "notice": "Switches ON the stoppability of the contract; if the contract was paused before making it unstoppable it will be paused again after calling this function"
      },
      "makeUnstoppable()": {
        "notice": "Switches OFF the stoppability of the contract; if the contract was paused it will no longer be so"
      },
      "maxQACToMintTP()": {
        "notice": "gets the max amount of AC allowed to operate to mint TP with, restricted by accumulators // TODO: move this function to a MocView contract"
      },
      "maxQACToRedeemTP()": {
        "notice": "gets the max amount of AC allowed to operate to redeem TP with, restricted by accumulators // TODO: move this function to a MocView contract"
      },
      "mintTC(uint256,uint256)": {
        "notice": "caller sends Collateral Asset and receives Collateral Token Requires prior sender approval of Collateral Asset to this contract "
      },
      "mintTCViaVendor(uint256,uint256,address)": {
        "notice": "caller sends Collateral Asset and receives Collateral Token  `vendor_` receives a markup in Fee Token if possible or in qAC if not  Requires prior sender approval of Collateral Asset to this contract"
      },
      "mintTCandTP(address,uint256,uint256)": {
        "notice": "caller sends Collateral Asset and receives Collateral Token and Pegged Token  Requires prior sender approval of Collateral Asset to this contract  This operation is done without checking coverage  Collateral Token and Pegged Token are minted in equivalent proportions so that its price  and global coverage are not modified.  Reverts if qAC sent are insufficient."
      },
      "mintTCandTPViaVendor(address,uint256,uint256,address)": {
        "notice": "caller sends Collateral Asset and receives Collateral Token and Pegged Token  `vendor_` receives a markup in Fee Token if possible or in qAC if not  Requires prior sender approval of Collateral Asset to this contract  This operation is done without checking coverage  Collateral Token and Pegged Token are minted in equivalent proportions so that its price  and global coverage are not modified.  Reverts if qAC sent are insufficient."
      },
      "mintTCandTPto(address,uint256,uint256,address)": {
        "notice": "caller sends Collateral Asset and recipient receives Collateral Token and Pegged Token  Requires prior sender approval of Collateral Asset to this contract  This operation is done without checking coverage  Collateral Token and Pegged Token are minted in equivalent proportions so that its price  and global coverage are not modified.  Reverts if qAC sent are insufficient."
      },
      "mintTCandTPtoViaVendor(address,uint256,uint256,address,address)": {
        "notice": "caller sends Collateral Asset and recipient receives Collateral Token and Pegged Token  `vendor_` receives a markup in Fee Token if possible or in qAC if not  Requires prior sender approval of Collateral Asset to this contract  This operation is done without checking coverage  Collateral Token and Pegged Token are minted in equivalent proportions so that its price  and global coverage are not modified.  Reverts if qAC sent are insufficient."
      },
      "mintTCto(uint256,uint256,address)": {
        "notice": "caller sends Collateral Asset and recipient receives Collateral Token  Requires prior sender approval of Collateral Asset to this contract"
      },
      "mintTCtoViaVendor(uint256,uint256,address,address)": {
        "notice": "caller sends Collateral Asset and recipient receives Collateral Token  `vendor_` receives a markup in Fee Token if possible or in qAC if not   Requires prior sender approval of Collateral Asset to this contract"
      },
      "mintTP(address,uint256,uint256)": {
        "notice": "caller sends Collateral Asset and receives Pegged Token Requires prior sender approval of Collateral Asset to this contract"
      },
      "mintTPViaVendor(address,uint256,uint256,address)": {
        "notice": "caller sends Collateral Asset and receives Pegged Token  `vendor_` receives a markup in Fee Token if possible or in qAC if not   Requires prior sender approval of Collateral Asset to this contract"
      },
      "mintTPto(address,uint256,uint256,address)": {
        "notice": "caller sends Collateral Asset and recipient receives Pegged Token Requires prior sender approval of Collateral Asset to this contract"
      },
      "mintTPtoViaVendor(address,uint256,uint256,address,address)": {
        "notice": "caller sends Collateral Asset and recipient receives Pegged Token  `vendor_` receives a markup in Fee Token if possible or in qAC if not   Requires prior sender approval of Collateral Asset to this contract"
      },
      "pause()": {
        "notice": "Called by the owner to pause, triggers stopped state"
      },
      "paused()": {
        "notice": "Returns true if paused"
      },
      "redeemTC(uint256,uint256)": {
        "notice": "caller sends Collateral Token and receives Collateral Asset"
      },
      "redeemTCViaVendor(uint256,uint256,address)": {
        "notice": "caller sends Collateral Token and receives Collateral Asset  `vendor_` receives a markup in Fee Token if possible or in qAC if not"
      },
      "redeemTCandTP(address,uint256,uint256,uint256)": {
        "notice": "Caller sends Collateral Token and Pegged Token and receives Collateral Asset.  This operation is done without checking coverage  Collateral Token and Pegged Token are redeemed in equivalent proportions so that their price  and global coverage are not modified.  Reverts if qTP sent are insufficient."
      },
      "redeemTCandTPViaVendor(address,uint256,uint256,uint256,address)": {
        "notice": "Caller sends Collateral Token and Pegged Token and receives Collateral Asset.  `vendor_` receives a markup in Fee Token if possible or in Collateral Asset if not  This operation is done without checking coverage  Collateral Token and Pegged Token are redeemed in equivalent proportions so that their price  and global coverage are not modified.  Reverts if qTP sent are insufficient."
      },
      "redeemTCandTPto(address,uint256,uint256,uint256,address)": {
        "notice": "Caller sends Collateral Token and Pegged Token and recipient receives Collateral Asset.  This operation is done without checking coverage  Collateral Token and Pegged Token are redeemed in equivalent proportions so that their price  and global coverage are not modified.  Reverts if qTP sent are insufficient."
      },
      "redeemTCandTPtoViaVendor(address,uint256,uint256,uint256,address,address)": {
        "notice": "Caller sends Collateral Token and Pegged Token and recipient receives Collateral Asset.  `vendor_` receives a markup in Fee Token if possible or in Collateral Asset if not  This operation is done without checking coverage  Collateral Token and Pegged Token are redeemed in equivalent proportions so that their price  and global coverage are not modified.  Reverts if qTP sent are insufficient."
      },
      "redeemTCto(uint256,uint256,address)": {
        "notice": "caller sends Collateral Token and recipient receives Collateral Asset"
      },
      "redeemTCtoViaVendor(uint256,uint256,address,address)": {
        "notice": "caller sends Collateral Token and recipient receives Collateral Asset  `vendor_` receives a markup in Fee Token if possible or in qAC if not"
      },
      "redeemTP(address,uint256,uint256)": {
        "notice": "caller sends Pegged Token and receives Collateral Asset"
      },
      "redeemTPViaVendor(address,uint256,uint256,address)": {
        "notice": "caller sends Pegged Token and receives Collateral Asset  `vendor_` receives a markup in Fee Token if possible or in qAC if not"
      },
      "redeemTPto(address,uint256,uint256,address)": {
        "notice": "caller sends Pegged Token and recipient receives Collateral Asset"
      },
      "redeemTPtoViaVendor(address,uint256,uint256,address,address)": {
        "notice": "caller sends Pegged Token and recipient receives Collateral Asset  `vendor_` receives a markup in Fee Token if possible or in qAC if not"
      },
      "refreshACBalance()": {
        "notice": "Refreshes the AC holdings for the Bucket"
      },
      "setPauser(address)": {
        "notice": "Changes the address which is enable to pause this contract"
      },
      "shouldCalculateEma()": {
        "notice": "true if the necessary span has pass since last ema update"
      },
      "swapTCforTP(address,uint256,uint256,uint256)": {
        "notice": "Caller sends a Collateral Token and receives Pegged Token."
      },
      "swapTCforTPViaVendor(address,uint256,uint256,uint256,address)": {
        "notice": "Caller sends a Collateral Token and receives Pegged Token.  `vendor_` receives a markup in Fee Token if possible or in qAC if not."
      },
      "swapTCforTPto(address,uint256,uint256,uint256,address)": {
        "notice": "Caller sends a Collateral Token and recipient receives Pegged Token."
      },
      "swapTCforTPtoViaVendor(address,uint256,uint256,uint256,address,address)": {
        "notice": "Caller sends a Collateral Token and recipient receives Pegged Token.  `vendor_` receives a markup in Fee Token if possible or in qAC if not."
      },
      "swapTPforTC(address,uint256,uint256,uint256)": {
        "notice": "caller sends a Pegged Token and receives Collateral Token"
      },
      "swapTPforTCViaVendor(address,uint256,uint256,uint256,address)": {
        "notice": "caller sends a Pegged Token and receives Collateral Token  `vendor_` receives a markup in Fee Token if possible or in qAC if not"
      },
      "swapTPforTCto(address,uint256,uint256,uint256,address)": {
        "notice": "caller sends a Pegged Token and recipient receives Collateral Token"
      },
      "swapTPforTCtoViaVendor(address,uint256,uint256,uint256,address,address)": {
        "notice": "caller sends a Pegged Token and recipient receives Collateral Token  `vendor_` receives a markup in Fee Token if possible or in qAC if not"
      },
      "swapTPforTP(address,address,uint256,uint256,uint256)": {
        "notice": "caller sends a Pegged Token and receives another one"
      },
      "swapTPforTPViaVendor(address,address,uint256,uint256,uint256,address)": {
        "notice": "caller sends a Pegged Token and receives another one  `vendor_` receives a markup in Fee Token if possible or in qAC if not"
      },
      "swapTPforTPto(address,address,uint256,uint256,uint256,address)": {
        "notice": "caller sends a Pegged Token and recipient receives another one"
      },
      "swapTPforTPtoViaVendor(address,address,uint256,uint256,uint256,address,address)": {
        "notice": "caller sends a Pegged Token and recipient receives another one  `vendor_` receives a markup in Fee Token if possible or in qAC if not"
      },
      "tcHoldersInterestPayment()": {
        "notice": "executes the interest payment of the TC holders  can only be executed after a block span"
      },
      "unlockACInPending(address,uint256)": {
        "notice": "while executing a pending Operation, if it fails we need to unlock user's funds"
      },
      "unlockTCInPending(address,uint256)": {
        "notice": "while executing a pending Operation, if it fails we need to unlock user's tokens"
      },
      "unlockTPInPending(address,address,uint256)": {
        "notice": "while executing a pending Operation, if it fails we need to unlock user's tokens"
      },
      "unpause()": {
        "notice": "Called by the owner to unpause, returns to normal state"
      },
      "updateEmas()": {
        "notice": "If time, calculates the EMA for all the Pegged Token prices."
      }
    },
    "notice": "Moc protocol implementation using a RC20 as Collateral Asset.",
    "version": 1
  }
}