{
  "contractName": "MocCARC20",
  "sourceName": "contracts/collateral/rc20/MocCARC20.sol",
  "abi": [
    {
      "inputs": [],
      "stateMutability": "nonpayable",
      "type": "constructor"
    },
    {
      "inputs": [
        {
          "internalType": "uint256",
          "name": "qACsent_",
          "type": "uint256"
        },
        {
          "internalType": "uint256",
          "name": "qACNeeded_",
          "type": "uint256"
        }
      ],
      "name": "InsufficientQacSent",
      "type": "error"
    },
    {
      "inputs": [
        {
          "internalType": "uint256",
          "name": "qTPsent_",
          "type": "uint256"
        },
        {
          "internalType": "uint256",
          "name": "qTPNeeded_",
          "type": "uint256"
        }
      ],
      "name": "InsufficientQtpSent",
      "type": "error"
    },
    {
      "inputs": [
        {
          "internalType": "uint256",
          "name": "qTC_",
          "type": "uint256"
        },
        {
          "internalType": "uint256",
          "name": "tcAvailableToRedeem_",
          "type": "uint256"
        }
      ],
      "name": "InsufficientTCtoRedeem",
      "type": "error"
    },
    {
      "inputs": [
        {
          "internalType": "uint256",
          "name": "qTP_",
          "type": "uint256"
        },
        {
          "internalType": "uint256",
          "name": "tpAvailableToMint_",
          "type": "uint256"
        }
      ],
      "name": "InsufficientTPtoMint",
      "type": "error"
    },
    {
      "inputs": [
        {
          "internalType": "uint256",
          "name": "qTP_",
          "type": "uint256"
        },
        {
          "internalType": "uint256",
          "name": "tpAvailableToRedeem_",
          "type": "uint256"
        }
      ],
      "name": "InsufficientTPtoRedeem",
      "type": "error"
    },
    {
      "inputs": [],
      "name": "InvalidAddress",
      "type": "error"
    },
    {
      "inputs": [],
      "name": "InvalidFluxCapacitorOperation",
      "type": "error"
    },
    {
      "inputs": [],
      "name": "InvalidValue",
      "type": "error"
    },
    {
      "inputs": [],
      "name": "Liquidated",
      "type": "error"
    },
    {
      "inputs": [
        {
          "internalType": "uint256",
          "name": "cglb_",
          "type": "uint256"
        },
        {
          "internalType": "uint256",
          "name": "covThrld_",
          "type": "uint256"
        }
      ],
      "name": "LowCoverage",
      "type": "error"
    },
    {
      "inputs": [
        {
          "internalType": "uint256",
          "name": "max_",
          "type": "uint256"
        },
        {
          "internalType": "uint256",
          "name": "new_",
          "type": "uint256"
        }
      ],
      "name": "MaxFluxCapacitorOperationReached",
      "type": "error"
    },
    {
      "inputs": [],
      "name": "MissingBlocksToSettlement",
      "type": "error"
    },
    {
      "inputs": [],
      "name": "MissingBlocksToTCInterestPayment",
      "type": "error"
    },
    {
      "inputs": [
        {
          "internalType": "address",
          "name": "dataProviderAddress_",
          "type": "address"
        }
      ],
      "name": "MissingProviderData",
      "type": "error"
    },
    {
      "inputs": [
        {
          "internalType": "address",
          "name": "priceProviderAddress_",
          "type": "address"
        }
      ],
      "name": "MissingProviderPrice",
      "type": "error"
    },
    {
      "inputs": [],
      "name": "NotAuthorizedChanger",
      "type": "error"
    },
    {
      "inputs": [],
      "name": "NotWhenPaused",
      "type": "error"
    },
    {
      "inputs": [],
      "name": "OnlyPauser",
      "type": "error"
    },
    {
      "inputs": [],
      "name": "OnlyQueue",
      "type": "error"
    },
    {
      "inputs": [],
      "name": "OnlyWhenLiquidated",
      "type": "error"
    },
    {
      "inputs": [],
      "name": "OnlyWhilePaused",
      "type": "error"
    },
    {
      "inputs": [],
      "name": "PeggedTokenAlreadyAdded",
      "type": "error"
    },
    {
      "inputs": [
        {
          "internalType": "uint256",
          "name": "qACmin_",
          "type": "uint256"
        },
        {
          "internalType": "uint256",
          "name": "qACtoRedeem_",
          "type": "uint256"
        }
      ],
      "name": "QacBelowMinimumRequired",
      "type": "error"
    },
    {
      "inputs": [],
      "name": "QacNeededMustBeGreaterThanZero",
      "type": "error"
    },
    {
      "inputs": [
        {
          "internalType": "uint256",
          "name": "qTCmin_",
          "type": "uint256"
        },
        {
          "internalType": "uint256",
          "name": "qTC_",
          "type": "uint256"
        }
      ],
      "name": "QtcBelowMinimumRequired",
      "type": "error"
    },
    {
      "inputs": [
        {
          "internalType": "uint256",
          "name": "qTPmin_",
          "type": "uint256"
        },
        {
          "internalType": "uint256",
          "name": "qTP_",
          "type": "uint256"
        }
      ],
      "name": "QtpBelowMinimumRequired",
      "type": "error"
    },
    {
      "inputs": [],
      "name": "RecipientMustBeSender",
      "type": "error"
    },
    {
      "inputs": [],
      "name": "TransferFailed",
      "type": "error"
    },
    {
      "inputs": [],
      "name": "Unstoppable",
      "type": "error"
    },
    {
      "anonymous": false,
      "inputs": [
        {
          "indexed": false,
          "internalType": "address",
          "name": "previousAdmin",
          "type": "address"
        },
        {
          "indexed": false,
          "internalType": "address",
          "name": "newAdmin",
          "type": "address"
        }
      ],
      "name": "AdminChanged",
      "type": "event"
    },
    {
      "anonymous": false,
      "inputs": [
        {
          "indexed": true,
          "internalType": "address",
          "name": "beacon",
          "type": "address"
        }
      ],
      "name": "BeaconUpgraded",
      "type": "event"
    },
    {
      "anonymous": false,
      "inputs": [],
      "name": "ContractLiquidated",
      "type": "event"
    },
    {
      "anonymous": false,
      "inputs": [
        {
          "indexed": false,
          "internalType": "uint8",
          "name": "version",
          "type": "uint8"
        }
      ],
      "name": "Initialized",
      "type": "event"
    },
    {
      "anonymous": false,
      "inputs": [
        {
          "indexed": true,
          "internalType": "address",
          "name": "tp_",
          "type": "address"
        },
        {
          "indexed": true,
          "internalType": "address",
          "name": "sender_",
          "type": "address"
        },
        {
          "indexed": true,
          "internalType": "address",
          "name": "recipient_",
          "type": "address"
        },
        {
          "indexed": false,
          "internalType": "uint256",
          "name": "qTP_",
          "type": "uint256"
        },
        {
          "indexed": false,
          "internalType": "uint256",
          "name": "qAC_",
          "type": "uint256"
        }
      ],
      "name": "LiqTPRedeemed",
      "type": "event"
    },
    {
      "anonymous": false,
      "inputs": [
        {
          "indexed": false,
          "internalType": "address",
          "name": "account",
          "type": "address"
        }
      ],
      "name": "Paused",
      "type": "event"
    },
    {
      "anonymous": false,
      "inputs": [
        {
          "indexed": false,
          "internalType": "uint256",
          "name": "i_",
          "type": "uint256"
        },
        {
          "components": [
            {
              "internalType": "address",
              "name": "tpTokenAddress",
              "type": "address"
            },
            {
              "internalType": "address",
              "name": "priceProviderAddress",
              "type": "address"
            },
            {
              "internalType": "uint256",
              "name": "tpCtarg",
              "type": "uint256"
            },
            {
              "internalType": "uint256",
              "name": "tpMintFee",
              "type": "uint256"
            },
            {
              "internalType": "uint256",
              "name": "tpRedeemFee",
              "type": "uint256"
            },
            {
              "internalType": "uint256",
              "name": "tpEma",
              "type": "uint256"
            },
            {
              "internalType": "uint256",
              "name": "tpEmaSf",
              "type": "uint256"
            }
          ],
          "indexed": false,
          "internalType": "struct PeggedTokenParams",
          "name": "peggedTokenParams_",
          "type": "tuple"
        }
      ],
      "name": "PeggedTokenChange",
      "type": "event"
    },
    {
      "anonymous": false,
      "inputs": [],
      "name": "SettlementExecuted",
      "type": "event"
    },
    {
      "anonymous": false,
      "inputs": [
        {
          "indexed": false,
          "internalType": "uint256",
          "name": "mocGain_",
          "type": "uint256"
        },
        {
          "indexed": false,
          "internalType": "uint256[]",
          "name": "tpGain_",
          "type": "uint256[]"
        }
      ],
      "name": "SuccessFeeDistributed",
      "type": "event"
    },
    {
      "anonymous": false,
      "inputs": [
        {
          "indexed": false,
          "internalType": "uint256",
          "name": "interestAmount_",
          "type": "uint256"
        }
      ],
      "name": "TCInterestPayment",
      "type": "event"
    },
    {
      "anonymous": false,
      "inputs": [
        {
          "indexed": true,
          "internalType": "uint256",
          "name": "i_",
          "type": "uint256"
        },
        {
          "indexed": false,
          "internalType": "uint256",
          "name": "oldTPema_",
          "type": "uint256"
        },
        {
          "indexed": false,
          "internalType": "uint256",
          "name": "newTPema_",
          "type": "uint256"
        }
      ],
      "name": "TPemaUpdated",
      "type": "event"
    },
    {
      "anonymous": false,
      "inputs": [
        {
          "indexed": false,
          "internalType": "address",
          "name": "account",
          "type": "address"
        }
      ],
      "name": "Unpaused",
      "type": "event"
    },
    {
      "anonymous": false,
      "inputs": [
        {
          "indexed": true,
          "internalType": "address",
          "name": "implementation",
          "type": "address"
        }
      ],
      "name": "Upgraded",
      "type": "event"
    },
    {
      "inputs": [],
      "name": "absoluteAccumulator",
      "outputs": [
        {
          "internalType": "uint256",
          "name": "",
          "type": "uint256"
        }
      ],
      "stateMutability": "view",
      "type": "function"
    },
    {
      "inputs": [],
      "name": "acToken",
      "outputs": [
        {
          "internalType": "contract IERC20",
          "name": "",
          "type": "address"
        }
      ],
      "stateMutability": "view",
      "type": "function"
    },
    {
      "inputs": [
        {
          "components": [
            {
              "internalType": "address",
              "name": "tpTokenAddress",
              "type": "address"
            },
            {
              "internalType": "address",
              "name": "priceProviderAddress",
              "type": "address"
            },
            {
              "internalType": "uint256",
              "name": "tpCtarg",
              "type": "uint256"
            },
            {
              "internalType": "uint256",
              "name": "tpMintFee",
              "type": "uint256"
            },
            {
              "internalType": "uint256",
              "name": "tpRedeemFee",
              "type": "uint256"
            },
            {
              "internalType": "uint256",
              "name": "tpEma",
              "type": "uint256"
            },
            {
              "internalType": "uint256",
              "name": "tpEmaSf",
              "type": "uint256"
            }
          ],
          "internalType": "struct PeggedTokenParams",
          "name": "peggedTokenParams_",
          "type": "tuple"
        }
      ],
      "name": "addPeggedToken",
      "outputs": [],
      "stateMutability": "nonpayable",
      "type": "function"
    },
    {
      "inputs": [],
      "name": "allowDifferentRecipient",
      "outputs": [
        {
          "internalType": "bool",
          "name": "",
          "type": "bool"
        }
      ],
      "stateMutability": "view",
      "type": "function"
    },
    {
      "inputs": [],
      "name": "appreciationFactor",
      "outputs": [
        {
          "internalType": "uint256",
          "name": "",
          "type": "uint256"
        }
      ],
      "stateMutability": "view",
      "type": "function"
    },
    {
      "inputs": [],
      "name": "bes",
      "outputs": [
        {
          "internalType": "uint256",
          "name": "",
          "type": "uint256"
        }
      ],
      "stateMutability": "view",
      "type": "function"
    },
    {
      "inputs": [],
      "name": "bns",
      "outputs": [
        {
          "internalType": "uint256",
          "name": "",
          "type": "uint256"
        }
      ],
      "stateMutability": "view",
      "type": "function"
    },
    {
      "inputs": [],
      "name": "calcCtargemaCA",
      "outputs": [
        {
          "internalType": "uint256",
          "name": "ctargemaCA",
          "type": "uint256"
        }
      ],
      "stateMutability": "view",
      "type": "function"
    },
    {
      "inputs": [
        {
          "internalType": "contract IGovernor",
          "name": "newGovernor_",
          "type": "address"
        }
      ],
      "name": "changeGovernor",
      "outputs": [],
      "stateMutability": "nonpayable",
      "type": "function"
    },
    {
      "inputs": [],
      "name": "decayBlockSpan",
      "outputs": [
        {
          "internalType": "uint256",
          "name": "",
          "type": "uint256"
        }
      ],
      "stateMutability": "view",
      "type": "function"
    },
    {
      "inputs": [],
      "name": "differentialAccumulator",
      "outputs": [
        {
          "internalType": "int256",
          "name": "",
          "type": "int256"
        }
      ],
      "stateMutability": "view",
      "type": "function"
    },
    {
      "inputs": [
        {
          "components": [
            {
              "internalType": "address",
              "name": "tpTokenAddress",
              "type": "address"
            },
            {
              "internalType": "address",
              "name": "priceProviderAddress",
              "type": "address"
            },
            {
              "internalType": "uint256",
              "name": "tpCtarg",
              "type": "uint256"
            },
            {
              "internalType": "uint256",
              "name": "tpMintFee",
              "type": "uint256"
            },
            {
              "internalType": "uint256",
              "name": "tpRedeemFee",
              "type": "uint256"
            },
            {
              "internalType": "uint256",
              "name": "tpEma",
              "type": "uint256"
            },
            {
              "internalType": "uint256",
              "name": "tpEmaSf",
              "type": "uint256"
            }
          ],
          "internalType": "struct PeggedTokenParams",
          "name": "peggedTokenParams_",
          "type": "tuple"
        }
      ],
      "name": "editPeggedToken",
      "outputs": [],
      "stateMutability": "nonpayable",
      "type": "function"
    },
    {
      "inputs": [],
      "name": "emaCalculationBlockSpan",
      "outputs": [
        {
          "internalType": "uint256",
          "name": "",
          "type": "uint256"
        }
      ],
      "stateMutability": "view",
      "type": "function"
    },
    {
      "inputs": [],
      "name": "evalLiquidation",
      "outputs": [],
      "stateMutability": "nonpayable",
      "type": "function"
    },
    {
      "inputs": [
        {
          "components": [
            {
              "internalType": "uint256",
              "name": "qTC",
              "type": "uint256"
            },
            {
              "internalType": "uint256",
              "name": "qACmax",
              "type": "uint256"
            },
            {
              "internalType": "address",
              "name": "sender",
              "type": "address"
            },
            {
              "internalType": "address",
              "name": "recipient",
              "type": "address"
            },
            {
              "internalType": "address",
              "name": "vendor",
              "type": "address"
            }
          ],
          "internalType": "struct MocCore.MintTCParams",
          "name": "params_",
          "type": "tuple"
        }
      ],
      "name": "execMintTC",
      "outputs": [
        {
          "internalType": "uint256",
          "name": "qACtotalNeeded",
          "type": "uint256"
        },
        {
          "internalType": "uint256",
          "name": "qFeeTokenTotalNeeded",
          "type": "uint256"
        },
        {
          "components": [
            {
              "internalType": "uint256",
              "name": "qACFee",
              "type": "uint256"
            },
            {
              "internalType": "uint256",
              "name": "qFeeToken",
              "type": "uint256"
            },
            {
              "internalType": "uint256",
              "name": "qACVendorMarkup",
              "type": "uint256"
            },
            {
              "internalType": "uint256",
              "name": "qFeeTokenVendorMarkup",
              "type": "uint256"
            }
          ],
          "internalType": "struct MocCommons.FeeCalcs",
          "name": "feeCalcs",
          "type": "tuple"
        }
      ],
      "stateMutability": "nonpayable",
      "type": "function"
    },
    {
      "inputs": [
        {
          "components": [
            {
              "internalType": "address",
              "name": "tp",
              "type": "address"
            },
            {
              "internalType": "uint256",
              "name": "qTP",
              "type": "uint256"
            },
            {
              "internalType": "uint256",
              "name": "qACmax",
              "type": "uint256"
            },
            {
              "internalType": "address",
              "name": "sender",
              "type": "address"
            },
            {
              "internalType": "address",
              "name": "recipient",
              "type": "address"
            },
            {
              "internalType": "address",
              "name": "vendor",
              "type": "address"
            }
          ],
          "internalType": "struct MocCommons.MintTCandTPParams",
          "name": "params_",
          "type": "tuple"
        }
      ],
      "name": "execMintTCandTP",
      "outputs": [
        {
          "internalType": "uint256",
          "name": "qACtotalNeeded",
          "type": "uint256"
        },
        {
          "internalType": "uint256",
          "name": "qTCMinted",
          "type": "uint256"
        },
        {
          "internalType": "uint256",
          "name": "qFeeTokenTotalNeeded",
          "type": "uint256"
        },
        {
          "components": [
            {
              "internalType": "uint256",
              "name": "qACFee",
              "type": "uint256"
            },
            {
              "internalType": "uint256",
              "name": "qFeeToken",
              "type": "uint256"
            },
            {
              "internalType": "uint256",
              "name": "qACVendorMarkup",
              "type": "uint256"
            },
            {
              "internalType": "uint256",
              "name": "qFeeTokenVendorMarkup",
              "type": "uint256"
            }
          ],
          "internalType": "struct MocCommons.FeeCalcs",
          "name": "feeCalcs",
          "type": "tuple"
        }
      ],
      "stateMutability": "nonpayable",
      "type": "function"
    },
    {
      "inputs": [
        {
          "components": [
            {
              "internalType": "address",
              "name": "tp",
              "type": "address"
            },
            {
              "internalType": "uint256",
              "name": "qTP",
              "type": "uint256"
            },
            {
              "internalType": "uint256",
              "name": "qACmax",
              "type": "uint256"
            },
            {
              "internalType": "address",
              "name": "sender",
              "type": "address"
            },
            {
              "internalType": "address",
              "name": "recipient",
              "type": "address"
            },
            {
              "internalType": "address",
              "name": "vendor",
              "type": "address"
            }
          ],
          "internalType": "struct MocCore.MintTPParams",
          "name": "params_",
          "type": "tuple"
        }
      ],
      "name": "execMintTP",
      "outputs": [
        {
          "internalType": "uint256",
          "name": "qACtotalNeeded",
          "type": "uint256"
        },
        {
          "internalType": "uint256",
          "name": "qFeeTokenTotalNeeded",
          "type": "uint256"
        },
        {
          "components": [
            {
              "internalType": "uint256",
              "name": "qACFee",
              "type": "uint256"
            },
            {
              "internalType": "uint256",
              "name": "qFeeToken",
              "type": "uint256"
            },
            {
              "internalType": "uint256",
              "name": "qACVendorMarkup",
              "type": "uint256"
            },
            {
              "internalType": "uint256",
              "name": "qFeeTokenVendorMarkup",
              "type": "uint256"
            }
          ],
          "internalType": "struct MocCommons.FeeCalcs",
          "name": "feeCalcs",
          "type": "tuple"
        }
      ],
      "stateMutability": "nonpayable",
      "type": "function"
    },
    {
      "inputs": [
        {
          "components": [
            {
              "internalType": "uint256",
              "name": "qTC",
              "type": "uint256"
            },
            {
              "internalType": "uint256",
              "name": "qACmin",
              "type": "uint256"
            },
            {
              "internalType": "address",
              "name": "sender",
              "type": "address"
            },
            {
              "internalType": "address",
              "name": "recipient",
              "type": "address"
            },
            {
              "internalType": "address",
              "name": "vendor",
              "type": "address"
            }
          ],
          "internalType": "struct MocCore.RedeemTCParams",
          "name": "params_",
          "type": "tuple"
        }
      ],
      "name": "execRedeemTC",
      "outputs": [
        {
          "internalType": "uint256",
          "name": "qACtoRedeem",
          "type": "uint256"
        },
        {
          "internalType": "uint256",
          "name": "qFeeTokenTotalNeeded",
          "type": "uint256"
        },
        {
          "components": [
            {
              "internalType": "uint256",
              "name": "qACFee",
              "type": "uint256"
            },
            {
              "internalType": "uint256",
              "name": "qFeeToken",
              "type": "uint256"
            },
            {
              "internalType": "uint256",
              "name": "qACVendorMarkup",
              "type": "uint256"
            },
            {
              "internalType": "uint256",
              "name": "qFeeTokenVendorMarkup",
              "type": "uint256"
            }
          ],
          "internalType": "struct MocCommons.FeeCalcs",
          "name": "feeCalcs",
          "type": "tuple"
        }
      ],
      "stateMutability": "nonpayable",
      "type": "function"
    },
    {
      "inputs": [
        {
          "components": [
            {
              "internalType": "address",
              "name": "tp",
              "type": "address"
            },
            {
              "internalType": "uint256",
              "name": "qTC",
              "type": "uint256"
            },
            {
              "internalType": "uint256",
              "name": "qTP",
              "type": "uint256"
            },
            {
              "internalType": "uint256",
              "name": "qACmin",
              "type": "uint256"
            },
            {
              "internalType": "address",
              "name": "sender",
              "type": "address"
            },
            {
              "internalType": "address",
              "name": "recipient",
              "type": "address"
            },
            {
              "internalType": "address",
              "name": "vendor",
              "type": "address"
            }
          ],
          "internalType": "struct MocCommons.RedeemTCandTPParams",
          "name": "params_",
          "type": "tuple"
        }
      ],
      "name": "execRedeemTCandTP",
      "outputs": [
        {
          "internalType": "uint256",
          "name": "qACtoRedeem",
          "type": "uint256"
        },
        {
          "internalType": "uint256",
          "name": "qTPRedeemed",
          "type": "uint256"
        },
        {
          "internalType": "uint256",
          "name": "qFeeTokenTotalNeeded",
          "type": "uint256"
        },
        {
          "components": [
            {
              "internalType": "uint256",
              "name": "qACFee",
              "type": "uint256"
            },
            {
              "internalType": "uint256",
              "name": "qFeeToken",
              "type": "uint256"
            },
            {
              "internalType": "uint256",
              "name": "qACVendorMarkup",
              "type": "uint256"
            },
            {
              "internalType": "uint256",
              "name": "qFeeTokenVendorMarkup",
              "type": "uint256"
            }
          ],
          "internalType": "struct MocCommons.FeeCalcs",
          "name": "feeCalcs",
          "type": "tuple"
        }
      ],
      "stateMutability": "nonpayable",
      "type": "function"
    },
    {
      "inputs": [
        {
          "components": [
            {
              "internalType": "address",
              "name": "tp",
              "type": "address"
            },
            {
              "internalType": "uint256",
              "name": "qTP",
              "type": "uint256"
            },
            {
              "internalType": "uint256",
              "name": "qACmin",
              "type": "uint256"
            },
            {
              "internalType": "address",
              "name": "sender",
              "type": "address"
            },
            {
              "internalType": "address",
              "name": "recipient",
              "type": "address"
            },
            {
              "internalType": "address",
              "name": "vendor",
              "type": "address"
            }
          ],
          "internalType": "struct MocCommons.RedeemTPParams",
          "name": "params_",
          "type": "tuple"
        }
      ],
      "name": "execRedeemTP",
      "outputs": [
        {
          "internalType": "uint256",
          "name": "qACtoRedeem",
          "type": "uint256"
        },
        {
          "internalType": "uint256",
          "name": "qFeeTokenTotalNeeded",
          "type": "uint256"
        },
        {
          "components": [
            {
              "internalType": "uint256",
              "name": "qACFee",
              "type": "uint256"
            },
            {
              "internalType": "uint256",
              "name": "qFeeToken",
              "type": "uint256"
            },
            {
              "internalType": "uint256",
              "name": "qACVendorMarkup",
              "type": "uint256"
            },
            {
              "internalType": "uint256",
              "name": "qFeeTokenVendorMarkup",
              "type": "uint256"
            }
          ],
          "internalType": "struct MocCommons.FeeCalcs",
          "name": "feeCalcs",
          "type": "tuple"
        }
      ],
      "stateMutability": "nonpayable",
      "type": "function"
    },
    {
      "inputs": [],
      "name": "execSettlement",
      "outputs": [],
      "stateMutability": "nonpayable",
      "type": "function"
    },
    {
      "inputs": [
        {
          "components": [
            {
              "internalType": "address",
              "name": "tp",
              "type": "address"
            },
            {
              "internalType": "uint256",
              "name": "qTC",
              "type": "uint256"
            },
            {
              "internalType": "uint256",
              "name": "qTPmin",
              "type": "uint256"
            },
            {
              "internalType": "uint256",
              "name": "qACmax",
              "type": "uint256"
            },
            {
              "internalType": "address",
              "name": "sender",
              "type": "address"
            },
            {
              "internalType": "address",
              "name": "recipient",
              "type": "address"
            },
            {
              "internalType": "address",
              "name": "vendor",
              "type": "address"
            }
          ],
          "internalType": "struct MocCommons.SwapTCforTPParams",
          "name": "params_",
          "type": "tuple"
        }
      ],
      "name": "execSwapTCforTP",
      "outputs": [
        {
          "internalType": "uint256",
          "name": "qACSurcharges",
          "type": "uint256"
        },
        {
          "internalType": "uint256",
          "name": "qTPMinted",
          "type": "uint256"
        },
        {
          "internalType": "uint256",
          "name": "qFeeTokenTotalNeeded",
          "type": "uint256"
        },
        {
          "components": [
            {
              "internalType": "uint256",
              "name": "qACFee",
              "type": "uint256"
            },
            {
              "internalType": "uint256",
              "name": "qFeeToken",
              "type": "uint256"
            },
            {
              "internalType": "uint256",
              "name": "qACVendorMarkup",
              "type": "uint256"
            },
            {
              "internalType": "uint256",
              "name": "qFeeTokenVendorMarkup",
              "type": "uint256"
            }
          ],
          "internalType": "struct MocCommons.FeeCalcs",
          "name": "feeCalcs",
          "type": "tuple"
        }
      ],
      "stateMutability": "nonpayable",
      "type": "function"
    },
    {
      "inputs": [
        {
          "components": [
            {
              "internalType": "address",
              "name": "tp",
              "type": "address"
            },
            {
              "internalType": "uint256",
              "name": "qTP",
              "type": "uint256"
            },
            {
              "internalType": "uint256",
              "name": "qTCmin",
              "type": "uint256"
            },
            {
              "internalType": "uint256",
              "name": "qACmax",
              "type": "uint256"
            },
            {
              "internalType": "address",
              "name": "sender",
              "type": "address"
            },
            {
              "internalType": "address",
              "name": "recipient",
              "type": "address"
            },
            {
              "internalType": "address",
              "name": "vendor",
              "type": "address"
            }
          ],
          "internalType": "struct MocCommons.SwapTPforTCParams",
          "name": "params_",
          "type": "tuple"
        }
      ],
      "name": "execSwapTPforTC",
      "outputs": [
        {
          "internalType": "uint256",
          "name": "qACSurcharges",
          "type": "uint256"
        },
        {
          "internalType": "uint256",
          "name": "qTCMinted",
          "type": "uint256"
        },
        {
          "internalType": "uint256",
          "name": "qFeeTokenTotalNeeded",
          "type": "uint256"
        },
        {
          "components": [
            {
              "internalType": "uint256",
              "name": "qACFee",
              "type": "uint256"
            },
            {
              "internalType": "uint256",
              "name": "qFeeToken",
              "type": "uint256"
            },
            {
              "internalType": "uint256",
              "name": "qACVendorMarkup",
              "type": "uint256"
            },
            {
              "internalType": "uint256",
              "name": "qFeeTokenVendorMarkup",
              "type": "uint256"
            }
          ],
          "internalType": "struct MocCommons.FeeCalcs",
          "name": "feeCalcs",
          "type": "tuple"
        }
      ],
      "stateMutability": "nonpayable",
      "type": "function"
    },
    {
      "inputs": [
        {
          "components": [
            {
              "internalType": "address",
              "name": "tpFrom",
              "type": "address"
            },
            {
              "internalType": "address",
              "name": "tpTo",
              "type": "address"
            },
            {
              "internalType": "uint256",
              "name": "qTP",
              "type": "uint256"
            },
            {
              "internalType": "uint256",
              "name": "qTPmin",
              "type": "uint256"
            },
            {
              "internalType": "uint256",
              "name": "qACmax",
              "type": "uint256"
            },
            {
              "internalType": "address",
              "name": "sender",
              "type": "address"
            },
            {
              "internalType": "address",
              "name": "recipient",
              "type": "address"
            },
            {
              "internalType": "address",
              "name": "vendor",
              "type": "address"
            }
          ],
          "internalType": "struct MocCommons.SwapTPforTPParams",
          "name": "params_",
          "type": "tuple"
        }
      ],
      "name": "execSwapTPforTP",
      "outputs": [
        {
          "internalType": "uint256",
          "name": "qACSurcharges",
          "type": "uint256"
        },
        {
          "internalType": "uint256",
          "name": "qTPMinted",
          "type": "uint256"
        },
        {
          "internalType": "uint256",
          "name": "qFeeTokenTotalNeeded",
          "type": "uint256"
        },
        {
          "components": [
            {
              "internalType": "uint256",
              "name": "qACFee",
              "type": "uint256"
            },
            {
              "internalType": "uint256",
              "name": "qFeeToken",
              "type": "uint256"
            },
            {
              "internalType": "uint256",
              "name": "qACVendorMarkup",
              "type": "uint256"
            },
            {
              "internalType": "uint256",
              "name": "qFeeTokenVendorMarkup",
              "type": "uint256"
            }
          ],
          "internalType": "struct MocCommons.FeeCalcs",
          "name": "feeCalcs",
          "type": "tuple"
        }
      ],
      "stateMutability": "nonpayable",
      "type": "function"
    },
    {
      "inputs": [],
      "name": "feeRetainer",
      "outputs": [
        {
          "internalType": "uint256",
          "name": "",
          "type": "uint256"
        }
      ],
      "stateMutability": "view",
      "type": "function"
    },
    {
      "inputs": [],
      "name": "feeToken",
      "outputs": [
        {
          "internalType": "contract IERC20",
          "name": "",
          "type": "address"
        }
      ],
      "stateMutability": "view",
      "type": "function"
    },
    {
      "inputs": [],
      "name": "feeTokenPct",
      "outputs": [
        {
          "internalType": "uint256",
          "name": "",
          "type": "uint256"
        }
      ],
      "stateMutability": "view",
      "type": "function"
    },
    {
      "inputs": [],
      "name": "feeTokenPriceProvider",
      "outputs": [
        {
          "internalType": "contract IPriceProvider",
          "name": "",
          "type": "address"
        }
      ],
      "stateMutability": "view",
      "type": "function"
    },
    {
      "inputs": [],
      "name": "getBts",
      "outputs": [
        {
          "internalType": "uint256",
          "name": "",
          "type": "uint256"
        }
      ],
      "stateMutability": "view",
      "type": "function"
    },
    {
      "inputs": [],
      "name": "getCglb",
      "outputs": [
        {
          "internalType": "uint256",
          "name": "cglob",
          "type": "uint256"
        }
      ],
      "stateMutability": "view",
      "type": "function"
    },
    {
      "inputs": [],
      "name": "getLckAC",
      "outputs": [
        {
          "internalType": "uint256",
          "name": "lckAC",
          "type": "uint256"
        }
      ],
      "stateMutability": "view",
      "type": "function"
    },
    {
      "inputs": [],
      "name": "getLeverageTC",
      "outputs": [
        {
          "internalType": "uint256",
          "name": "leverageTC",
          "type": "uint256"
        }
      ],
      "stateMutability": "view",
      "type": "function"
    },
    {
      "inputs": [
        {
          "internalType": "address",
          "name": "tp_",
          "type": "address"
        }
      ],
      "name": "getPACtp",
      "outputs": [
        {
          "internalType": "uint256",
          "name": "",
          "type": "uint256"
        }
      ],
      "stateMutability": "view",
      "type": "function"
    },
    {
      "inputs": [],
      "name": "getPTCac",
      "outputs": [
        {
          "internalType": "uint256",
          "name": "pTCac",
          "type": "uint256"
        }
      ],
      "stateMutability": "view",
      "type": "function"
    },
    {
      "inputs": [],
      "name": "getTCAvailableToRedeem",
      "outputs": [
        {
          "internalType": "uint256",
          "name": "tcAvailableToRedeem",
          "type": "uint256"
        }
      ],
      "stateMutability": "view",
      "type": "function"
    },
    {
      "inputs": [
        {
          "internalType": "address",
          "name": "tp_",
          "type": "address"
        }
      ],
      "name": "getTPAvailableToMint",
      "outputs": [
        {
          "internalType": "int256",
          "name": "tpAvailableToMint",
          "type": "int256"
        }
      ],
      "stateMutability": "view",
      "type": "function"
    },
    {
      "inputs": [],
      "name": "getTotalACavailable",
      "outputs": [
        {
          "internalType": "uint256",
          "name": "totalACavailable",
          "type": "uint256"
        }
      ],
      "stateMutability": "view",
      "type": "function"
    },
    {
      "inputs": [],
      "name": "getTpAmount",
      "outputs": [
        {
          "internalType": "uint256",
          "name": "",
          "type": "uint256"
        }
      ],
      "stateMutability": "view",
      "type": "function"
    },
    {
      "inputs": [],
      "name": "governor",
      "outputs": [
        {
          "internalType": "contract IGovernor",
          "name": "",
          "type": "address"
        }
      ],
      "stateMutability": "view",
      "type": "function"
    },
    {
      "inputs": [
        {
          "components": [
            {
              "components": [
                {
                  "components": [
                    {
                      "internalType": "address payable",
                      "name": "mocQueueAddress",
                      "type": "address"
                    },
                    {
                      "internalType": "address",
                      "name": "feeTokenAddress",
                      "type": "address"
                    },
                    {
                      "internalType": "address",
                      "name": "feeTokenPriceProviderAddress",
                      "type": "address"
                    },
                    {
                      "internalType": "address",
                      "name": "tcTokenAddress",
                      "type": "address"
                    },
                    {
                      "internalType": "address",
                      "name": "mocFeeFlowAddress",
                      "type": "address"
                    },
                    {
                      "internalType": "address",
                      "name": "mocAppreciationBeneficiaryAddress",
                      "type": "address"
                    },
                    {
                      "internalType": "uint256",
                      "name": "protThrld",
                      "type": "uint256"
                    },
                    {
                      "internalType": "uint256",
                      "name": "liqThrld",
                      "type": "uint256"
                    },
                    {
                      "internalType": "uint256",
                      "name": "feeRetainer",
                      "type": "uint256"
                    },
                    {
                      "internalType": "uint256",
                      "name": "tcMintFee",
                      "type": "uint256"
                    },
                    {
                      "internalType": "uint256",
                      "name": "tcRedeemFee",
                      "type": "uint256"
                    },
                    {
                      "internalType": "uint256",
                      "name": "swapTPforTPFee",
                      "type": "uint256"
                    },
                    {
                      "internalType": "uint256",
                      "name": "swapTPforTCFee",
                      "type": "uint256"
                    },
                    {
                      "internalType": "uint256",
                      "name": "swapTCforTPFee",
                      "type": "uint256"
                    },
                    {
                      "internalType": "uint256",
                      "name": "redeemTCandTPFee",
                      "type": "uint256"
                    },
                    {
                      "internalType": "uint256",
                      "name": "mintTCandTPFee",
                      "type": "uint256"
                    },
                    {
                      "internalType": "uint256",
                      "name": "feeTokenPct",
                      "type": "uint256"
                    },
                    {
                      "internalType": "uint256",
                      "name": "successFee",
                      "type": "uint256"
                    },
                    {
                      "internalType": "uint256",
                      "name": "appreciationFactor",
                      "type": "uint256"
                    },
                    {
                      "internalType": "uint256",
                      "name": "bes",
                      "type": "uint256"
                    },
                    {
                      "internalType": "address",
                      "name": "tcInterestCollectorAddress",
                      "type": "address"
                    },
                    {
                      "internalType": "uint256",
                      "name": "tcInterestRate",
                      "type": "uint256"
                    },
                    {
                      "internalType": "uint256",
                      "name": "tcInterestPaymentBlockSpan",
                      "type": "uint256"
                    },
                    {
                      "internalType": "address",
                      "name": "maxAbsoluteOpProviderAddress",
                      "type": "address"
                    },
                    {
                      "internalType": "address",
                      "name": "maxOpDiffProviderAddress",
                      "type": "address"
                    },
                    {
                      "internalType": "uint256",
                      "name": "decayBlockSpan",
                      "type": "uint256"
                    },
                    {
                      "internalType": "bool",
                      "name": "allowDifferentRecipient",
                      "type": "bool"
                    }
                  ],
                  "internalType": "struct MocBaseBucket.InitializeBaseBucketParams",
                  "name": "initializeBaseBucketParams",
                  "type": "tuple"
                },
                {
                  "internalType": "address",
                  "name": "governorAddress",
                  "type": "address"
                },
                {
                  "internalType": "address",
                  "name": "pauserAddress",
                  "type": "address"
                },
                {
                  "internalType": "address",
                  "name": "mocCoreExpansion",
                  "type": "address"
                },
                {
                  "internalType": "uint256",
                  "name": "emaCalculationBlockSpan",
                  "type": "uint256"
                },
                {
                  "internalType": "address",
                  "name": "mocVendors",
                  "type": "address"
                }
              ],
              "internalType": "struct MocCore.InitializeCoreParams",
              "name": "initializeCoreParams",
              "type": "tuple"
            },
            {
              "internalType": "address",
              "name": "acTokenAddress",
              "type": "address"
            }
          ],
          "internalType": "struct MocCARC20.InitializeParams",
          "name": "initializeParams_",
          "type": "tuple"
        }
      ],
      "name": "initialize",
      "outputs": [],
      "stateMutability": "nonpayable",
      "type": "function"
    },
    {
      "inputs": [],
      "name": "isLiquidationReached",
      "outputs": [
        {
          "internalType": "bool",
          "name": "",
          "type": "bool"
        }
      ],
      "stateMutability": "view",
      "type": "function"
    },
    {
      "inputs": [],
      "name": "lastOperationBlockNumber",
      "outputs": [
        {
          "internalType": "uint256",
          "name": "",
          "type": "uint256"
        }
      ],
      "stateMutability": "view",
      "type": "function"
    },
    {
      "inputs": [],
      "name": "liqEnabled",
      "outputs": [
        {
          "internalType": "bool",
          "name": "",
          "type": "bool"
        }
      ],
      "stateMutability": "view",
      "type": "function"
    },
    {
      "inputs": [
        {
          "internalType": "address",
          "name": "tp_",
          "type": "address"
        },
        {
          "internalType": "address",
          "name": "recipient_",
          "type": "address"
        }
      ],
      "name": "liqRedeemTP",
      "outputs": [
        {
          "internalType": "uint256",
          "name": "qACRedeemed",
          "type": "uint256"
        }
      ],
      "stateMutability": "nonpayable",
      "type": "function"
    },
    {
      "inputs": [],
      "name": "liqThrld",
      "outputs": [
        {
          "internalType": "uint256",
          "name": "",
          "type": "uint256"
        }
      ],
      "stateMutability": "view",
      "type": "function"
    },
    {
      "inputs": [],
      "name": "liquidated",
      "outputs": [
        {
          "internalType": "bool",
          "name": "",
          "type": "bool"
        }
      ],
      "stateMutability": "view",
      "type": "function"
    },
    {
      "inputs": [],
      "name": "makeStoppable",
      "outputs": [],
      "stateMutability": "nonpayable",
      "type": "function"
    },
    {
      "inputs": [],
      "name": "makeUnstoppable",
      "outputs": [],
      "stateMutability": "nonpayable",
      "type": "function"
    },
    {
      "inputs": [],
      "name": "maxAbsoluteOpProvider",
      "outputs": [
        {
          "internalType": "contract IDataProvider",
          "name": "",
          "type": "address"
        }
      ],
      "stateMutability": "view",
      "type": "function"
    },
    {
      "inputs": [],
      "name": "maxOpDiffProvider",
      "outputs": [
        {
          "internalType": "contract IDataProvider",
          "name": "",
          "type": "address"
        }
      ],
      "stateMutability": "view",
      "type": "function"
    },
    {
      "inputs": [],
      "name": "maxQACToMintTP",
      "outputs": [
        {
          "internalType": "uint256",
          "name": "maxQAC",
          "type": "uint256"
        }
      ],
      "stateMutability": "view",
      "type": "function"
    },
    {
      "inputs": [],
      "name": "maxQACToRedeemTP",
      "outputs": [
        {
          "internalType": "uint256",
          "name": "maxQAC",
          "type": "uint256"
        }
      ],
      "stateMutability": "view",
      "type": "function"
    },
    {
      "inputs": [
        {
          "internalType": "uint256",
          "name": "qTC_",
          "type": "uint256"
        },
        {
          "internalType": "uint256",
          "name": "qACmax_",
          "type": "uint256"
        },
        {
          "internalType": "address",
          "name": "recipient_",
          "type": "address"
        },
        {
          "internalType": "address",
          "name": "vendor_",
          "type": "address"
        }
      ],
      "name": "mintTC",
      "outputs": [
        {
          "internalType": "uint256",
          "name": "operId",
          "type": "uint256"
        }
      ],
      "stateMutability": "payable",
      "type": "function"
    },
    {
      "inputs": [
        {
          "internalType": "address",
          "name": "tp_",
          "type": "address"
        },
        {
          "internalType": "uint256",
          "name": "qTP_",
          "type": "uint256"
        },
        {
          "internalType": "uint256",
          "name": "qACmax_",
          "type": "uint256"
        },
        {
          "internalType": "address",
          "name": "recipient_",
          "type": "address"
        },
        {
          "internalType": "address",
          "name": "vendor_",
          "type": "address"
        }
      ],
      "name": "mintTCandTP",
      "outputs": [
        {
          "internalType": "uint256",
          "name": "operId",
          "type": "uint256"
        }
      ],
      "stateMutability": "payable",
      "type": "function"
    },
    {
      "inputs": [],
      "name": "mintTCandTPFee",
      "outputs": [
        {
          "internalType": "uint256",
          "name": "",
          "type": "uint256"
        }
      ],
      "stateMutability": "view",
      "type": "function"
    },
    {
      "inputs": [
        {
          "internalType": "address",
          "name": "tp_",
          "type": "address"
        },
        {
          "internalType": "uint256",
          "name": "qTP_",
          "type": "uint256"
        },
        {
          "internalType": "uint256",
          "name": "qACmax_",
          "type": "uint256"
        },
        {
          "internalType": "address",
          "name": "recipient_",
          "type": "address"
        },
        {
          "internalType": "address",
          "name": "vendor_",
          "type": "address"
        }
      ],
      "name": "mintTP",
      "outputs": [
        {
          "internalType": "uint256",
          "name": "operId",
          "type": "uint256"
        }
      ],
      "stateMutability": "payable",
      "type": "function"
    },
    {
      "inputs": [],
      "name": "mocAppreciationBeneficiaryAddress",
      "outputs": [
        {
          "internalType": "address",
          "name": "",
          "type": "address"
        }
      ],
      "stateMutability": "view",
      "type": "function"
    },
    {
      "inputs": [],
      "name": "mocFeeFlowAddress",
      "outputs": [
        {
          "internalType": "address",
          "name": "",
          "type": "address"
        }
      ],
      "stateMutability": "view",
      "type": "function"
    },
    {
      "inputs": [],
      "name": "mocQueue",
      "outputs": [
        {
          "internalType": "address payable",
          "name": "",
          "type": "address"
        }
      ],
      "stateMutability": "view",
      "type": "function"
    },
    {
      "inputs": [],
      "name": "mocVendors",
      "outputs": [
        {
          "internalType": "contract MocVendors",
          "name": "",
          "type": "address"
        }
      ],
      "stateMutability": "view",
      "type": "function"
    },
    {
      "inputs": [],
      "name": "nACcb",
      "outputs": [
        {
          "internalType": "uint256",
          "name": "",
          "type": "uint256"
        }
      ],
      "stateMutability": "view",
      "type": "function"
    },
    {
      "inputs": [],
      "name": "nTCcb",
      "outputs": [
        {
          "internalType": "uint256",
          "name": "",
          "type": "uint256"
        }
      ],
      "stateMutability": "view",
      "type": "function"
    },
    {
      "inputs": [],
      "name": "nextEmaCalculation",
      "outputs": [
        {
          "internalType": "uint256",
          "name": "",
          "type": "uint256"
        }
      ],
      "stateMutability": "view",
      "type": "function"
    },
    {
      "inputs": [],
      "name": "nextTCInterestPayment",
      "outputs": [
        {
          "internalType": "uint256",
          "name": "",
          "type": "uint256"
        }
      ],
      "stateMutability": "view",
      "type": "function"
    },
    {
      "inputs": [],
      "name": "pause",
      "outputs": [],
      "stateMutability": "nonpayable",
      "type": "function"
    },
    {
      "inputs": [],
      "name": "paused",
      "outputs": [
        {
          "internalType": "bool",
          "name": "",
          "type": "bool"
        }
      ],
      "stateMutability": "view",
      "type": "function"
    },
    {
      "inputs": [],
      "name": "pauser",
      "outputs": [
        {
          "internalType": "address",
          "name": "",
          "type": "address"
        }
      ],
      "stateMutability": "view",
      "type": "function"
    },
    {
      "inputs": [
        {
          "internalType": "uint256",
          "name": "",
          "type": "uint256"
        }
      ],
      "name": "pegContainer",
      "outputs": [
        {
          "internalType": "uint256",
          "name": "nTP",
          "type": "uint256"
        },
        {
          "internalType": "contract IPriceProvider",
          "name": "priceProvider",
          "type": "address"
        }
      ],
      "stateMutability": "view",
      "type": "function"
    },
    {
      "inputs": [
        {
          "internalType": "address",
          "name": "",
          "type": "address"
        }
      ],
      "name": "peggedTokenIndex",
      "outputs": [
        {
          "internalType": "uint256",
          "name": "index",
          "type": "uint256"
        },
        {
          "internalType": "bool",
          "name": "exists",
          "type": "bool"
        }
      ],
      "stateMutability": "view",
      "type": "function"
    },
    {
      "inputs": [],
      "name": "protThrld",
      "outputs": [
        {
          "internalType": "uint256",
          "name": "",
          "type": "uint256"
        }
      ],
      "stateMutability": "view",
      "type": "function"
    },
    {
      "inputs": [],
      "name": "proxiableUUID",
      "outputs": [
        {
          "internalType": "bytes32",
          "name": "",
          "type": "bytes32"
        }
      ],
      "stateMutability": "view",
      "type": "function"
    },
    {
      "inputs": [],
      "name": "qACLockedInPending",
      "outputs": [
        {
          "internalType": "uint256",
          "name": "",
          "type": "uint256"
        }
      ],
      "stateMutability": "view",
      "type": "function"
    },
    {
      "inputs": [
        {
          "internalType": "uint256",
          "name": "qTC_",
          "type": "uint256"
        },
        {
          "internalType": "uint256",
          "name": "qACmin_",
          "type": "uint256"
        },
        {
          "internalType": "address",
          "name": "recipient_",
          "type": "address"
        },
        {
          "internalType": "address",
          "name": "vendor_",
          "type": "address"
        }
      ],
      "name": "redeemTC",
      "outputs": [
        {
          "internalType": "uint256",
          "name": "operId",
          "type": "uint256"
        }
      ],
      "stateMutability": "payable",
      "type": "function"
    },
    {
      "inputs": [
        {
          "internalType": "address",
          "name": "tp_",
          "type": "address"
        },
        {
          "internalType": "uint256",
          "name": "qTC_",
          "type": "uint256"
        },
        {
          "internalType": "uint256",
          "name": "qTP_",
          "type": "uint256"
        },
        {
          "internalType": "uint256",
          "name": "qACmin_",
          "type": "uint256"
        },
        {
          "internalType": "address",
          "name": "recipient_",
          "type": "address"
        },
        {
          "internalType": "address",
          "name": "vendor_",
          "type": "address"
        }
      ],
      "name": "redeemTCandTP",
      "outputs": [
        {
          "internalType": "uint256",
          "name": "operId",
          "type": "uint256"
        }
      ],
      "stateMutability": "payable",
      "type": "function"
    },
    {
      "inputs": [],
      "name": "redeemTCandTPFee",
      "outputs": [
        {
          "internalType": "uint256",
          "name": "",
          "type": "uint256"
        }
      ],
      "stateMutability": "view",
      "type": "function"
    },
    {
      "inputs": [
        {
          "internalType": "address",
          "name": "tp_",
          "type": "address"
        },
        {
          "internalType": "uint256",
          "name": "qTP_",
          "type": "uint256"
        },
        {
          "internalType": "uint256",
          "name": "qACmin_",
          "type": "uint256"
        },
        {
          "internalType": "address",
          "name": "recipient_",
          "type": "address"
        },
        {
          "internalType": "address",
          "name": "vendor_",
          "type": "address"
        }
      ],
      "name": "redeemTP",
      "outputs": [
        {
          "internalType": "uint256",
          "name": "operId",
          "type": "uint256"
        }
      ],
      "stateMutability": "payable",
      "type": "function"
    },
    {
      "inputs": [],
      "name": "refreshACBalance",
      "outputs": [],
      "stateMutability": "nonpayable",
      "type": "function"
    },
    {
      "inputs": [
        {
          "internalType": "bool",
          "name": "allowDifferentRecipient_",
          "type": "bool"
        }
      ],
      "name": "setAllowDifferentRecipient",
      "outputs": [],
      "stateMutability": "nonpayable",
      "type": "function"
    },
    {
      "inputs": [
        {
          "internalType": "uint256",
          "name": "appreciationFactor_",
          "type": "uint256"
        }
      ],
      "name": "setAppreciationFactor",
      "outputs": [],
      "stateMutability": "nonpayable",
      "type": "function"
    },
    {
      "inputs": [
        {
          "internalType": "uint256",
          "name": "bes_",
          "type": "uint256"
        }
      ],
      "name": "setBes",
      "outputs": [],
      "stateMutability": "nonpayable",
      "type": "function"
    },
    {
      "inputs": [
        {
          "internalType": "uint256",
          "name": "decayBlockSpan_",
          "type": "uint256"
        }
      ],
      "name": "setDecayBlockSpan",
      "outputs": [],
      "stateMutability": "nonpayable",
      "type": "function"
    },
    {
      "inputs": [
        {
          "internalType": "uint256",
          "name": "blockSpan_",
          "type": "uint256"
        }
      ],
      "name": "setEmaCalculationBlockSpan",
      "outputs": [],
      "stateMutability": "nonpayable",
      "type": "function"
    },
    {
      "inputs": [
        {
          "internalType": "uint256",
          "name": "feeRetainer_",
          "type": "uint256"
        }
      ],
      "name": "setFeeRetainer",
      "outputs": [],
      "stateMutability": "nonpayable",
      "type": "function"
    },
    {
      "inputs": [
        {
          "internalType": "address",
          "name": "mocFeeTokenAddress_",
          "type": "address"
        }
      ],
      "name": "setFeeTokenAddress",
      "outputs": [],
      "stateMutability": "nonpayable",
      "type": "function"
    },
    {
      "inputs": [
        {
          "internalType": "uint256",
          "name": "feeTokenPct_",
          "type": "uint256"
        }
      ],
      "name": "setFeeTokenPct",
      "outputs": [],
      "stateMutability": "nonpayable",
      "type": "function"
    },
    {
      "inputs": [
        {
          "internalType": "address",
          "name": "mocFeeTokenPriceProviderAddress_",
          "type": "address"
        }
      ],
      "name": "setFeeTokenPriceProviderAddress",
      "outputs": [],
      "stateMutability": "nonpayable",
      "type": "function"
    },
    {
      "inputs": [
        {
          "internalType": "bool",
          "name": "liqEnabled_",
          "type": "bool"
        }
      ],
      "name": "setLiqEnabled",
      "outputs": [],
      "stateMutability": "nonpayable",
      "type": "function"
    },
    {
      "inputs": [
        {
          "internalType": "uint256",
          "name": "liqThrld_",
          "type": "uint256"
        }
      ],
      "name": "setLiqThrld",
      "outputs": [],
      "stateMutability": "nonpayable",
      "type": "function"
    },
    {
      "inputs": [
        {
          "internalType": "address",
          "name": "maxAbsoluteOpProviderAddress_",
          "type": "address"
        }
      ],
      "name": "setMaxAbsoluteOpProviderAddress",
      "outputs": [],
      "stateMutability": "nonpayable",
      "type": "function"
    },
    {
      "inputs": [
        {
          "internalType": "address",
          "name": "maxOpDiffProviderAddress_",
          "type": "address"
        }
      ],
      "name": "setMaxOpDiffProviderAddress",
      "outputs": [],
      "stateMutability": "nonpayable",
      "type": "function"
    },
    {
      "inputs": [
        {
          "internalType": "uint256",
          "name": "mintTCandTPFee_",
          "type": "uint256"
        }
      ],
      "name": "setMintTCandTPFee",
      "outputs": [],
      "stateMutability": "nonpayable",
      "type": "function"
    },
    {
      "inputs": [
        {
          "internalType": "address",
          "name": "mocAppreciationBeneficiaryAddress_",
          "type": "address"
        }
      ],
      "name": "setMocAppreciationBeneficiaryAddress",
      "outputs": [],
      "stateMutability": "nonpayable",
      "type": "function"
    },
    {
      "inputs": [
        {
          "internalType": "address",
          "name": "mocCoreExpansion_",
          "type": "address"
        }
      ],
      "name": "setMocCoreExpansion",
      "outputs": [],
      "stateMutability": "nonpayable",
      "type": "function"
    },
    {
      "inputs": [
        {
          "internalType": "address",
          "name": "mocFeeFlowAddress_",
          "type": "address"
        }
      ],
      "name": "setMocFeeFlowAddress",
      "outputs": [],
      "stateMutability": "nonpayable",
      "type": "function"
    },
    {
      "inputs": [
        {
          "internalType": "address payable",
          "name": "mocQueueAddress_",
          "type": "address"
        }
      ],
      "name": "setMocQueue",
      "outputs": [],
      "stateMutability": "nonpayable",
      "type": "function"
    },
    {
      "inputs": [
        {
          "internalType": "address",
          "name": "mocVendors_",
          "type": "address"
        }
      ],
      "name": "setMocVendors",
      "outputs": [],
      "stateMutability": "nonpayable",
      "type": "function"
    },
    {
      "inputs": [
        {
          "internalType": "address",
          "name": "newPauser_",
          "type": "address"
        }
      ],
      "name": "setPauser",
      "outputs": [],
      "stateMutability": "nonpayable",
      "type": "function"
    },
    {
      "inputs": [
        {
          "internalType": "uint256",
          "name": "protThrld_",
          "type": "uint256"
        }
      ],
      "name": "setProtThrld",
      "outputs": [],
      "stateMutability": "nonpayable",
      "type": "function"
    },
    {
      "inputs": [
        {
          "internalType": "uint256",
          "name": "redeemTCandTPFee_",
          "type": "uint256"
        }
      ],
      "name": "setRedeemTCandTPFee",
      "outputs": [],
      "stateMutability": "nonpayable",
      "type": "function"
    },
    {
      "inputs": [
        {
          "internalType": "uint256",
          "name": "successFee_",
          "type": "uint256"
        }
      ],
      "name": "setSuccessFee",
      "outputs": [],
      "stateMutability": "nonpayable",
      "type": "function"
    },
    {
      "inputs": [
        {
          "internalType": "uint256",
          "name": "swapTCforTPFee_",
          "type": "uint256"
        }
      ],
      "name": "setSwapTCforTPFee",
      "outputs": [],
      "stateMutability": "nonpayable",
      "type": "function"
    },
    {
      "inputs": [
        {
          "internalType": "uint256",
          "name": "swapTPforTCFee_",
          "type": "uint256"
        }
      ],
      "name": "setSwapTPforTCFee",
      "outputs": [],
      "stateMutability": "nonpayable",
      "type": "function"
    },
    {
      "inputs": [
        {
          "internalType": "uint256",
          "name": "swapTPforTPFee_",
          "type": "uint256"
        }
      ],
      "name": "setSwapTPforTPFee",
      "outputs": [],
      "stateMutability": "nonpayable",
      "type": "function"
    },
    {
      "inputs": [
        {
          "internalType": "address",
          "name": "tcInterestCollectorAddress_",
          "type": "address"
        }
      ],
      "name": "setTCInterestCollectorAddress",
      "outputs": [],
      "stateMutability": "nonpayable",
      "type": "function"
    },
    {
      "inputs": [
        {
          "internalType": "uint256",
          "name": "tcInterestPaymentBlockSpan_",
          "type": "uint256"
        }
      ],
      "name": "setTCInterestPaymentBlockSpan",
      "outputs": [],
      "stateMutability": "nonpayable",
      "type": "function"
    },
    {
      "inputs": [
        {
          "internalType": "uint256",
          "name": "tcInterestRate_",
          "type": "uint256"
        }
      ],
      "name": "setTCInterestRate",
      "outputs": [],
      "stateMutability": "nonpayable",
      "type": "function"
    },
    {
      "inputs": [
        {
          "internalType": "uint256",
          "name": "tcMintFee_",
          "type": "uint256"
        }
      ],
      "name": "setTcMintFee",
      "outputs": [],
      "stateMutability": "nonpayable",
      "type": "function"
    },
    {
      "inputs": [
        {
          "internalType": "uint256",
          "name": "tcRedeemFee_",
          "type": "uint256"
        }
      ],
      "name": "setTcRedeemFee",
      "outputs": [],
      "stateMutability": "nonpayable",
      "type": "function"
    },
    {
      "inputs": [],
      "name": "shouldCalculateEma",
      "outputs": [
        {
          "internalType": "bool",
          "name": "",
          "type": "bool"
        }
      ],
      "stateMutability": "view",
      "type": "function"
    },
    {
      "inputs": [],
      "name": "stoppable",
      "outputs": [
        {
          "internalType": "bool",
          "name": "",
          "type": "bool"
        }
      ],
      "stateMutability": "view",
      "type": "function"
    },
    {
      "inputs": [],
      "name": "successFee",
      "outputs": [
        {
          "internalType": "uint256",
          "name": "",
          "type": "uint256"
        }
      ],
      "stateMutability": "view",
      "type": "function"
    },
    {
      "inputs": [
        {
          "internalType": "address",
          "name": "tp_",
          "type": "address"
        },
        {
          "internalType": "uint256",
          "name": "qTC_",
          "type": "uint256"
        },
        {
          "internalType": "uint256",
          "name": "qTPmin_",
          "type": "uint256"
        },
        {
          "internalType": "uint256",
          "name": "qACmax_",
          "type": "uint256"
        },
        {
          "internalType": "address",
          "name": "recipient_",
          "type": "address"
        },
        {
          "internalType": "address",
          "name": "vendor_",
          "type": "address"
        }
      ],
      "name": "swapTCforTP",
      "outputs": [
        {
          "internalType": "uint256",
          "name": "operId",
          "type": "uint256"
        }
      ],
      "stateMutability": "payable",
      "type": "function"
    },
    {
      "inputs": [],
      "name": "swapTCforTPFee",
      "outputs": [
        {
          "internalType": "uint256",
          "name": "",
          "type": "uint256"
        }
      ],
      "stateMutability": "view",
      "type": "function"
    },
    {
      "inputs": [
        {
          "internalType": "address",
          "name": "tp_",
          "type": "address"
        },
        {
          "internalType": "uint256",
          "name": "qTP_",
          "type": "uint256"
        },
        {
          "internalType": "uint256",
          "name": "qTCmin_",
          "type": "uint256"
        },
        {
          "internalType": "uint256",
          "name": "qACmax_",
          "type": "uint256"
        },
        {
          "internalType": "address",
          "name": "recipient_",
          "type": "address"
        },
        {
          "internalType": "address",
          "name": "vendor_",
          "type": "address"
        }
      ],
      "name": "swapTPforTC",
      "outputs": [
        {
          "internalType": "uint256",
          "name": "operId",
          "type": "uint256"
        }
      ],
      "stateMutability": "payable",
      "type": "function"
    },
    {
      "inputs": [],
      "name": "swapTPforTCFee",
      "outputs": [
        {
          "internalType": "uint256",
          "name": "",
          "type": "uint256"
        }
      ],
      "stateMutability": "view",
      "type": "function"
    },
    {
      "inputs": [
        {
          "internalType": "address",
          "name": "tpFrom_",
          "type": "address"
        },
        {
          "internalType": "address",
          "name": "tpTo_",
          "type": "address"
        },
        {
          "internalType": "uint256",
          "name": "qTP_",
          "type": "uint256"
        },
        {
          "internalType": "uint256",
          "name": "qTPmin_",
          "type": "uint256"
        },
        {
          "internalType": "uint256",
          "name": "qACmax_",
          "type": "uint256"
        },
        {
          "internalType": "address",
          "name": "recipient_",
          "type": "address"
        },
        {
          "internalType": "address",
          "name": "vendor_",
          "type": "address"
        }
      ],
      "name": "swapTPforTP",
      "outputs": [
        {
          "internalType": "uint256",
          "name": "operId",
          "type": "uint256"
        }
      ],
      "stateMutability": "payable",
      "type": "function"
    },
    {
      "inputs": [],
      "name": "swapTPforTPFee",
      "outputs": [
        {
          "internalType": "uint256",
          "name": "",
          "type": "uint256"
        }
      ],
      "stateMutability": "view",
      "type": "function"
    },
    {
      "inputs": [],
      "name": "tcHoldersInterestPayment",
      "outputs": [],
      "stateMutability": "nonpayable",
      "type": "function"
    },
    {
      "inputs": [],
      "name": "tcInterestCollectorAddress",
      "outputs": [
        {
          "internalType": "address",
          "name": "",
          "type": "address"
        }
      ],
      "stateMutability": "view",
      "type": "function"
    },
    {
      "inputs": [],
      "name": "tcInterestPaymentBlockSpan",
      "outputs": [
        {
          "internalType": "uint256",
          "name": "",
          "type": "uint256"
        }
      ],
      "stateMutability": "view",
      "type": "function"
    },
    {
      "inputs": [],
      "name": "tcInterestRate",
      "outputs": [
        {
          "internalType": "uint256",
          "name": "",
          "type": "uint256"
        }
      ],
      "stateMutability": "view",
      "type": "function"
    },
    {
      "inputs": [],
      "name": "tcMintFee",
      "outputs": [
        {
          "internalType": "uint256",
          "name": "",
          "type": "uint256"
        }
      ],
      "stateMutability": "view",
      "type": "function"
    },
    {
      "inputs": [],
      "name": "tcRedeemFee",
      "outputs": [
        {
          "internalType": "uint256",
          "name": "",
          "type": "uint256"
        }
      ],
      "stateMutability": "view",
      "type": "function"
    },
    {
      "inputs": [],
      "name": "tcToken",
      "outputs": [
        {
          "internalType": "contract MocTC",
          "name": "",
          "type": "address"
        }
      ],
      "stateMutability": "view",
      "type": "function"
    },
    {
      "inputs": [
        {
          "internalType": "uint256",
          "name": "",
          "type": "uint256"
        }
      ],
      "name": "tpCtarg",
      "outputs": [
        {
          "internalType": "uint256",
          "name": "",
          "type": "uint256"
        }
      ],
      "stateMutability": "view",
      "type": "function"
    },
    {
      "inputs": [
        {
          "internalType": "uint256",
          "name": "",
          "type": "uint256"
        }
      ],
      "name": "tpEma",
      "outputs": [
        {
          "internalType": "uint256",
          "name": "ema",
          "type": "uint256"
        },
        {
          "internalType": "uint256",
          "name": "sf",
          "type": "uint256"
        }
      ],
      "stateMutability": "view",
      "type": "function"
    },
    {
      "inputs": [
        {
          "internalType": "uint256",
          "name": "",
          "type": "uint256"
        }
      ],
      "name": "tpLiqPrices",
      "outputs": [
        {
          "internalType": "uint256",
          "name": "",
          "type": "uint256"
        }
      ],
      "stateMutability": "view",
      "type": "function"
    },
    {
      "inputs": [
        {
          "internalType": "address",
          "name": "",
          "type": "address"
        }
      ],
      "name": "tpMintFees",
      "outputs": [
        {
          "internalType": "uint256",
          "name": "",
          "type": "uint256"
        }
      ],
      "stateMutability": "view",
      "type": "function"
    },
    {
      "inputs": [
        {
          "internalType": "address",
          "name": "",
          "type": "address"
        }
      ],
      "name": "tpRedeemFees",
      "outputs": [
        {
          "internalType": "uint256",
          "name": "",
          "type": "uint256"
        }
      ],
      "stateMutability": "view",
      "type": "function"
    },
    {
      "inputs": [
        {
          "internalType": "uint256",
          "name": "",
          "type": "uint256"
        }
      ],
      "name": "tpTokens",
      "outputs": [
        {
          "internalType": "contract IMocRC20",
          "name": "",
          "type": "address"
        }
      ],
      "stateMutability": "view",
      "type": "function"
    },
    {
      "inputs": [
        {
          "internalType": "address",
          "name": "owner_",
          "type": "address"
        },
        {
          "internalType": "uint256",
          "name": "qACToUnlock_",
          "type": "uint256"
        }
      ],
      "name": "unlockACInPending",
      "outputs": [],
      "stateMutability": "nonpayable",
      "type": "function"
    },
    {
      "inputs": [
        {
          "internalType": "address",
          "name": "owner_",
          "type": "address"
        },
        {
          "internalType": "uint256",
          "name": "qTCToUnlock_",
          "type": "uint256"
        }
      ],
      "name": "unlockTCInPending",
      "outputs": [],
      "stateMutability": "nonpayable",
      "type": "function"
    },
    {
      "inputs": [
        {
          "internalType": "address",
          "name": "owner_",
          "type": "address"
        },
        {
          "internalType": "contract IERC20Upgradeable",
          "name": "tpToken_",
          "type": "address"
        },
        {
          "internalType": "uint256",
          "name": "qTPToUnlock_",
          "type": "uint256"
        }
      ],
      "name": "unlockTPInPending",
      "outputs": [],
      "stateMutability": "nonpayable",
      "type": "function"
    },
    {
      "inputs": [],
      "name": "unpause",
      "outputs": [],
      "stateMutability": "nonpayable",
      "type": "function"
    },
    {
      "inputs": [],
      "name": "updateEmas",
      "outputs": [],
      "stateMutability": "nonpayable",
      "type": "function"
    },
    {
      "inputs": [
        {
          "internalType": "address",
          "name": "newImplementation",
          "type": "address"
        }
      ],
      "name": "upgradeTo",
      "outputs": [],
      "stateMutability": "nonpayable",
      "type": "function"
    },
    {
      "inputs": [
        {
          "internalType": "address",
          "name": "newImplementation",
          "type": "address"
        },
        {
          "internalType": "bytes",
          "name": "data",
          "type": "bytes"
        }
      ],
      "name": "upgradeToAndCall",
      "outputs": [],
      "stateMutability": "payable",
      "type": "function"
    }
  ],
  "bytecode": "0x60a08060405234620000e157306080526000549060ff8260081c166200008f575060ff8082160362000053575b6040516158aa9081620000e782396080518181816127f2015281816129610152612ef40152f35b60ff90811916176000557f7f26b83ff96e1f2b6a682f133852f6798a09c465da95921460cefb3847402498602060405160ff8152a1386200002c565b62461bcd60e51b815260206004820152602760248201527f496e697469616c697a61626c653a20636f6e747261637420697320696e697469604482015266616c697a696e6760c81b6064820152608490fd5b600080fdfe604060808152600436101561001357600080fd5b60009060e08235811c90816301dde6ef14613b1657816301f1b68414613acf5781630579188f14613a28578163073763b914613a0457816307b00d04146139c15781630c340a24146139985781630c36d897146139785781630d6ac463146139325781630db49656146139125781630e0a8fd2146138ee5781630f1e5e2b146138a857816313ed7ba51461387e57816314b4906d146137c35781631867e2f5146137a35781631fb0dda01461377a5781631fe6a7ad146137405781632069f7531461371c578163235e81cf1461352a57816323b98cde1461350257816324ffaba3146134c557816325bc6c411461349b57816327eab2a1146134555781632a20d57d146134355781632c43bd3b146134115781632d88af4a146133ba5781632ded50f01461339a5781632eccb11c146132b45781632ed35ca11461317d578163333431fd1461315d57816333421c381461306257816334d70ffa14612f595781633659cfe614612ebf5781633915edcb14612e8e578163391bf6cf14612d765781633bc4ac0a14612d525781633cfb09ef14612d0c5781633f4ba83a14612c005781634017936a14612bcf578163407f0e3414612baf57816347dda6af14612afb5781634af3a6fc14612a7c5781634b74600114612a325781634d977e7814612a125781634e1f907a146129e85781634f0f27ee146129c85781634f1ef286146128d85781635210570c146128b257816352d1902d146127dd578163533a4bea146127ac57816353b16d1714612767578163543aeb48146127435781635860ee631461272357816358f32de9146126db5781635c616a73146124e05781635c975abb146124b95781635cfbe5781461249957816360009e0b1461246f57816360ef07bf146123be578163647846a51461239457816364ec230a14612370578163662013f414612353578163682743571461232a5781636b5488df1461230a5781636f30471f146122ea57816370713468146122c6578163735d39601461228057816373e28af91461225c5781637554fffd1461223c578163762280551461221c5781637750ba0c146121f8578163797709ca146120ff57816379f9a91c146120df5781637a193c31146120bf5781637a4ff1d91461209b5781637a727fe81461207b5781637af5758c146120575781637cba2383146120335781637d8e031414611ff45781637f01c71514611fca5781637f13b99814611f945781637f4a4fe014611f74578163826fcd5814611f515781638456cb5914611ebc57816385bf959314611e76578163883d21cb14611db55781638cfa424114611d955781638e2bdb8614611d6b5781638f1a383a14611d43578163938c3e65146117d85781639853c35a146117ae5781639ad6659d146117785781639cabfc001461172c5781639fd0506d146116ff578163a8e9ac30146116dc578163ad4e666d146114fc578163aea038dc146114dc578163b03e11a0146113c8578163b4434c321461120a578163b5e9ea8c146111e0578163b9fa6413146111c0578163bb4872de1461119c578163bc4e55b2146110ce578163becaca6b146110aa578163bfe4262114610eaf578163c00f538d14610e8b578163c039cc6914610e49578163c84353c914610e25578163cf351c1d14610ddf578163d1a0faa014610dc6578163d2dc25a514610d37578163d6af11da14610cfb578163d87aab6f14610cdb578163d8c69aec14610bc5578163d8db6f5a14610b7f578163db79607214610b42578163ddb6d19014610b05578163de8d520a14610ad2578163e23c135c14610ab9578163e2c5e99014610a58578163e4c0aaf414610a13578163e6a683e0146109cd578163e6b1627c14610989578163e7c2597814610964578163e8859a1514610947578163ee1f438f1461091d578163eee20027146108f5578163f13f4054146108cb578163f26114aa1461086657508063f280877814610842578063f30b561414610823578063f375cfba14610804578063f88b14341461079b578063fa6e83bd1461077c578063fadda42414610737578063fda70f8b14610718578063fdcdc11e146106275763fe6b92c11461060557600080fd5b34610623578160031936011261062357602090610135549051908152f35b5080fd5b6106b6838360c4610639366004613bfd565b6106469892959198614ffe565b61064e61580c565b6106588933614a4e565b86519461066660c087613c8b565b60018060a01b03918280921687528160209b8c97888a0152898b8a01523360608a01521660808801521660a086015261014f541693865194859384926323ec24b560e11b84526004840190615020565b34905af193841561070d57936106d7575b506106d190614f94565b51908152f35b9092508381813d8311610706575b6106ef8183613c8b565b810103126107015751916106d16106c7565b600080fd5b503d6106e5565b8351903d90823e3d90fd5b503461062357816003193601126106235760209061013c549051908152f35b5090346107795760203660031901126107795750600435906001600160a01b03821682036107015761077261076d6020936146ec565b614727565b9051908152f35b80fd5b503461062357816003193601126106235760209061013a549051908152f35b5090346107795760203660031901126107795750600435906001600160a01b0382168203610701576107726107f66020936107df6107d7614e3d565b9190926146ec565b916107fe6107ed84846143eb565b519485936143ff565b959094614d9a565b90614c97565b5034610623578160031936011261062357602090610141549051908152f35b5034610623578160031936011261062357602090610131549051908152f35b82346107795760203660031901126107795761085c61577e565b60043561013c5580f35b9050346108c757366003190112610623576108c39061088361577e565b516379308a5560e11b60208201526108b1816108a3600460248301614ba3565b03601f198101835282613c8b565b6101f6546001600160a01b0316614a2c565b5080f35b8280fd5b5050346106235781600319360112610623576101305490516001600160a01b039091168152602090f35b50503461062357816003193601126106235760209060ff61014b5460101c1690519015158152f35b5050346106235781600319360112610623576101525490516001600160a01b039091168152602090f35b505034610623578160031936011261062357602090610772614d5d565b50503461062357816003193601126106235760209060ff61014b541690519015158152f35b5050346106235760203660031901126106235760043561018e80548210156109c957906109b591613c6f565b506001815491015482519182526020820152f35b8380fd5b8334610779576020366003190112610779576004356001600160a01b03811690819003610701576109fc61577e565b6101f680546001600160a01b031916909117905580f35b8334610779576020366003190112610779576004356001600160a01b0381169081900361062357610a4261577e565b6001600160601b0360a01b609754161760975580f35b828434610779576060366003190112610779576001600160a01b036004358181168103610701576024359180831683036109c95761014f54163303610aa85790610aa59160443591615745565b80f35b8351631974847760e01b8152600490fd5b8334610779578060031936011261077957610aa5614326565b505034610623578160031936011261062357602090610772610afa610af56147ee565b6143ff565b905061013154614303565b505034610623576020366003190112610623576004356001600160a01b038116908190036107015782829160209452610145845220549051908152f35b9050346108c757366003190112610623576108c390610b5f61577e565b51636dbcb03960e11b60208201526108b1816108a3600460248301614ba3565b8334610779576020366003190112610779576004356001600160a01b0381169081900361070157610bae61577e565b61015280546001600160a01b031916909117905580f35b83915034610623573660031901126107795750610be0615119565b5061014f546001600160a01b03919082163303610ccb57610c9091610c063660046156d2565b91610c0f615119565b50610c18614ffe565b610c2061580c565b610c6c610c5d8251633dad0bd760e11b6020820152610c4260248201876150c9565b60e48152610c5261010482613c8b565b846101f65416614a2c565b60208082518301019101615677565b86848760808498969b95979a015116918860c08160a0840151169201511692615483565b6004359380851680950361070157608435908116810361070157610cc794610cbd91886044350391615745565b5194859485613c2f565b0390f35b51631974847760e01b8152600490fd5b505034610623578160031936011261062357602090610155549051908152f35b505034610623578160031936011261062357602090610772610d1d6001614828565b610d31610d2a8284614543565b918361448d565b9161486f565b6106b6848460c4610d49366004613bfd565b610d569892959198614ffe565b610d5e61580c565b610d688933614a4e565b865194610d7660c087613c8b565b60018060a01b03918280921687528160209b8c97888a0152898b8a01523360608a01521660808801521660a086015261014f54169386519485938492637e81a82160e01b84526004840190615020565b8334610779578060031936011261077957610aa5614f00565b8334610779576020366003190112610779576004356001600160a01b0381169081900361070157610e0e61577e565b61012f80546001600160a01b031916909117905580f35b833461077957602036600319011261077957610e3f61577e565b60043561014c5580f35b505034610623578160031936011261062357602090610772610e7e610e85610e72610af56147ee565b61013193919354614303565b9182614303565b9061582d565b833461077957602036600319011261077957610ea561577e565b60043561013d5580f35b8284346107795760a036600319011261077957610eca615119565b5061014f546001600160a01b03908116330361109957610eeb366004615140565b91610ef4615119565b50610efd614ffe565b610f0561580c565b610f0d614f00565b610f20610f18614e3d565b81929161519d565b9091610f2f8284885193614c38565b81811061107c575050670de0b6b3a764000091610f51610f5792875192614c04565b90614510565b0491821561106b5793839481610f909501908082511691610f856080890193878486511661013d54926151e0565b969188999199614303565b9660208a015180891061104e5750895190610134610faf838254614303565b9055610fbf610131918254614303565b905583610133541690813b156108c7578651632770a7eb60e21b815230600482015260248101919091529082908290604490829084905af180156110445761102f575b5050968561102593838060608996610cc79b9c9d51169501511691511692615483565b5193849384613bbf565b61103a828092613c8b565b6107795780611002565b86513d84823e3d90fd5b604490898851916354cde31360e01b835260048301526024820152fd5b845163f3e39b5d60e01b8152600490fd5b6044925087519163a5db715d60e01b835260048301526024820152fd5b8251631974847760e01b8152600490fd5b8334610779576020366003190112610779576110c461577e565b6004356101395580f35b839150346106235736600319011261077957506110e9615119565b5061014f546001600160a01b03908116330361118b57610cc7610cbd916111113660046156d2565b9361111a615119565b50611123614ffe565b61112b61580c565b61114d610c5d825163f5571e0160e01b6020820152610c4260248201896150c9565b948860608793969599949a0191825161116a61014e918254614303565b905560c06111808b836080860151169551614303565b920151169180615483565b8151631974847760e01b8152600490fd5b50503461062357816003193601126106235760209060ff60ca541690519015158152f35b50503461062357816003193601126106235760209061015b549051908152f35b5050346106235781600319360112610623576101535490516001600160a01b039091168152602090f35b8284346107795760c036600319011261077957611225615119565b5061014f546001600160a01b03929083163303610ccb576112bf61124a36600461553c565b91611253615119565b5061125c614ffe565b61126461580c565b61126c614f00565b611274614e3d565b611283878695939551166146ec565b936112a361129186846143eb565b519261129d8488614b52565b8261519d565b6020889592950194848651946112b9828b614d9a565b906155a5565b8181106113ab5750509480966112d961131197845161582d565b94606087019061130683835116888a8960a082019888808b511693511681526101446020522054926151e0565b9891829b919b6143de565b98878101968751808c1161138e57508a1561137d579489969461135882958d9e9f95610cc79e958560806110259e9c61134d6113739b866155bd565b519201511692614a92565b865161136861014e918254614303565b905551169451614303565b9151169180615483565b885163f3e39b5d60e01b8152600490fd5b6044908c8b5191630b63f1a760e01b835260048301526024820152fd5b6044925084519163c39b739f60e01b835260048301526024820152fd5b82846113d5366004613cdf565b906113e295939295614ffe565b6113ea61580c565b6113f48133614a4e565b83519061140260a083613c8b565b838252602080830197885233868401526001600160a01b03918216606084019081529382166080840190815261014f54875163fa91a9a560e01b815285516004820152995160248b0152604090940151831660448a01529351821660648901529251811660848801529195908690829060a4908290861634905af19485156114d1579461149e575b50906106d191610133541630903390614fba565b919093508482813d83116114ca575b6114b78183613c8b565b81010312610701579051926106d161148a565b503d6114ad565b8451903d90823e3d90fd5b50503461062357816003193601126106235760209061013d549051908152f35b5050346106235760c036600319011261062357611517615119565b5061014f546001600160a01b03919082163303610ccb5761153936600461553c565b91611542615119565b5061154b614ffe565b61155361580c565b61155b6147ee565b91611568828551166146ec565b9161158b61157684866143eb565b51946115828686614b52565b6101495461519d565b505061159c6020860194855161582d565b9081156116cb57859660606115e197019082825116936115d660a08b0195828c87808a5116915116865261014560205289862054926151e0565b9891839b919b614303565b98878c0151808b106116ae57508591611633916115ff60018d6155bd565b519361160d82610137613c6f565b50611619868254614303565b9055611629610131918254614303565b9055610135613b3a565b90549060031b1c1690813b156108c7578651632770a7eb60e21b815230600482015260248101919091529082908290604490829084905af1801561104457611699575b5050968561102593838060808996610cc79b9c9d51169501511691511692615483565b6116a4828092613c8b565b6107795780611676565b6044908b8a51916354cde31360e01b835260048301526024820152fd5b825163f3e39b5d60e01b8152600490fd5b50503461062357816003193601126106235760209061018f544310159051908152f35b50503461062357816003193601126106235760ca54905160109190911c6001600160a01b03168152602090f35b828434610779576020366003190112610779576004356001600160a01b038116919082900361070157829181526101366020522060ff6001825492015416825191825215156020820152f35b5050346106235781600319360112610623576020906117a161179b610af56147ee565b906145b4565b61014a5410159051908152f35b5050346106235781600319360112610623576101465490516001600160a01b039091168152602090f35b5050346106235761042036600319011261062357815460ff8160081c161590818092611d36575b8015611d1f575b15611cc45760ff198116600117845581611cb3575b5060ff835460081c1661182d816149cc565b6103a4356001600160a01b03811690819003610701576101f680546001600160a01b03191690911790556001600160a01b03610364359081169081900361070157610384356001600160a01b03811681036107015760019161188e846149cc565b611897846149cc565b6118a0846149cc565b6118a9846149cc565b6001600160601b0360a01b60975416176097556118c5836149cc565b60ca5490620100008360b01b039060101b169061ff018360b01b031916171760ca556118f0816149cc565b670de0b6b3a764000060c4351115611ca25761190e61010435615851565b61191a61012435615851565b61192661014435615851565b61193261016435615851565b61193e61018435615851565b61194a6101a435615851565b6119566101c435615851565b6119626101e435615851565b61196e61020435615851565b61198661198161024435610224356143de565b615851565b6004356001600160a01b03811690819003611c9e5761014f80546001600160a01b03191690911790556024356001600160a01b03811681036107015761012f80546001600160a01b0319166001600160a01b0392831617905560443590811681036107015761013080546001600160a01b0319166001600160a01b0392831617905560643590811681036107015761013380546001600160a01b0319166001600160a01b0392831617905560843590811681036107015761014680546001600160a01b0319166001600160a01b0392831617905560a43590811681036107015761014780546001600160a01b0319166001600160a01b0392831617905560c4356101495560e43561014a556101043561013b556101243561013c556101443561013d556101643561013e556101843561013f556101a435610140556101c435610141556101e43561014255610204356101435561022435610139556102443561013a556102643561014c8190559061028435908116908190036107015761015880546001600160a01b03191690911790556102a435610159556102c43561015a819055906001600160a01b036102e435908116908190036107015761015280546001600160a01b03191690911790556001600160a01b03610304359081169081900361070157610153906001600160601b0360a01b82541617905561032435610154554361015755430161014d55430161015b5561014b805461034435801515809103611c9a5762ff00009060101b169062ffffff19161790556103c435611bcd826149cc565b8015611c8957610190819055430161018f556103e4356001600160a01b038116810361070157611bff611c21926149cc565b6101c380546001600160a01b0319166001600160a01b03909216919091179055565b610404356001600160a01b038116908190036107015761022980546001600160a01b0319169091179055611c53575080f35b60207f7f26b83ff96e1f2b6a682f133852f6798a09c465da95921460cefb38474024989161ff001984541684555160018152a180f35b8351632a9ffab760e21b8152600490fd5b8680fd5b8480fd5b8251632a9ffab760e21b8152600490fd5b61ffff19166101011783553861181b565b825162461bcd60e51b815260206004820152602e60248201527f496e697469616c697a61626c653a20636f6e747261637420697320616c72656160448201526d191e481a5b9a5d1a585b1a5e995960921b6064820152608490fd5b50303b1580156118065750600160ff821614611806565b50600160ff8216106117ff565b505034610623578160031936011261062357602090611d63610af56147ee565b509051908152f35b5050346106235781600319360112610623576101585490516001600160a01b039091168152602090f35b50503461062357816003193601126106235760209061014a549051908152f35b8284346107795760c03660031901126107795750611dd1615119565b5061014f546001600160a01b03908116330361118b57610cc7610cbd91611df936600461553c565b93611e02615119565b50611e0b614ffe565b611e1361580c565b611e44610c5d8251637225da8960e11b6020820152611e356024820189615020565b60c48152610c5260e482613c8b565b9488858793969599949a01918251611e6061014e918254614303565b905560a06111808b836060860151169551614303565b8334610779576020366003190112610779576004356001600160a01b0381169081900361070157611ea561577e565b61015380546001600160a01b031916909117905580f35b505034610623578160031936011261062357611ed661580c565b60ca54601081901c6001600160a01b03163303611f405760ff811615611f2f5761ff0019166101001760ca55513381527f62e78cea01bee320cd4e420270b5ea74000d11b0c9f74754ebdbfc544b05a25890602090a180f35b815163866099c360e01b8152600490fd5b8151631d77d47760e21b8152600490fd5b50503461062357816003193601126106235760209061077261179b610af56147ee565b50503461062357816003193601126106235760209061015a549051908152f35b505034610623578160031936011261062357602090610772611fb66001614828565b610d31611fc3828461448d565b9183614543565b5050346106235781600319360112610623576101c35490516001600160a01b039091168152602090f35b5050346106235760203660031901126106235760043591610148908154841015610779575060209261202591613b3a565b91905490519160031b1c8152f35b83346107795760203660031901126107795761204d61577e565b6004356101495580f35b83346107795760203660031901126107795761207161577e565b6004356101405580f35b505034610623578160031936011261062357602090610190549051908152f35b8334610779576020366003190112610779576120b561577e565b6004356101415580f35b505034610623578160031936011261062357602090610134549051908152f35b505034610623578160031936011261062357602090610142549051908152f35b90508261210d366004613b7c565b61211d9895919792949398614ffe565b61212561580c565b61212f8833614a4e565b61213b86519384613c8b565b60018060a01b03809881809416855260209a868c870152888601528660608601523360808601521660a08401521660c08201528661219660e48861014f54169387519485938492636b59c22f60e01b845260048401906150c9565b34905af19485156114d157946121c5575b506121c0906106d1939495610133541630903390614fba565b614f94565b909293508581813d83116121f1575b6121de8183613c8b565b81010312610701575192916121c06121a7565b503d6121d4565b83346107795760203660031901126107795761221261577e565b60043561013b5580f35b505034610623578160031936011261062357602090610156549051908152f35b505034610623578160031936011261062357602090610139549051908152f35b83346107795760203660031901126107795761227661577e565b6004356101545580f35b8334610779576020366003190112610779576004356001600160a01b03811690819003610701576122af61577e565b61015880546001600160a01b031916909117905580f35b8334610779576020366003190112610779576122e061577e565b60043561013e5580f35b505034610623578160031936011261062357602090610154549051908152f35b505034610623578160031936011261062357602090610149549051908152f35b833461077957806003193601126107795761234361577e565b600160ff1960ca54161760ca5580f35b505034610623578160031936011261062357602090611d63614e3d565b83346107795760203660031901126107795761238a61577e565b6004356101595580f35b50503461062357816003193601126106235761012f5490516001600160a01b039091168152602090f35b82846123cb366004613cdf565b9492906123d6614ffe565b6123de61580c565b6123e88133614a4e565b8351916123f660a084613c8b565b8252602080830184815233868501526001600160a01b03928316606085019081529783166080850190815261014f54875163e97a4d6360e01b815286516004820152925160248401526040909501518416604483015297518316606482015296518216608488015295918691839160a4918391166106b6565b5050346106235781600319360112610623576101335490516001600160a01b039091168152602090f35b50503461062357816003193601126106235760209061014e549051908152f35b50503461062357816003193601126106235760209060ff60ca5460081c1690519015158152f35b5050346106235781600319360112610623576124fa61580c565b61014d805443106126ca5761014c54430190557fd3c59bda47e141a8ec5a33d241b7f71b86e30d359f83a9227d912858b60404fc8280a1610137548261253f826145ea565b91845b8181106125fb575050806125b6575b918051928184019084526020918285015282518091528160608501930191855b8281106125a257867fae5116a8119d08673a0f1dfa7546b95da4bd54bb17feda7c61130ac7859152f687870388a180f35b835185529381019392810192600101612571565b6125cd670de0b6b3a7640000916101395490614510565b046101316125dc828254614303565b9055610146546125f69082906001600160a01b03166141ad565b612551565b61260481614727565b61260e8183614b52565b86610150918661261e8585613b3a565b90549060031b1c9183831361263b575b5050505050600101612542565b94612680838296996126869461267a8561266d61267361269d9a60019e670de0b6b3a764000093849161013a54614510565b04614510565b04926143eb565b526143de565b97613b3a565b819391549060031b91821b91600019901b19161790565b90556126c06126ac82876143eb565b5188848060a01b0361014754169184614a92565b908638868161262e565b815163101b685960e01b8152600490fd5b8284346107795781600319360112610779576001600160a01b036004358181168103610701576024359161014f54163303610aa85790610aa59161014e8281540390556141ad565b505034610623578160031936011261062357602090610157549051908152f35b83346107795760203660031901126107795761275d61577e565b6004356101435580f35b8284346107795781600319360112610779576001600160a01b036004358181168103610701578161014f54163303610aa85790610aa591602435916101335416615745565b8334610779576020366003190112610779576004356001600160a01b038116810361070157610aa590611bff61577e565b828434610779578060031936011261077957507f00000000000000000000000000000000000000000000000000000000000000006001600160a01b0316300361284957602090517f360894a13ba1a3210667c828492db98dca3e2076cc3735a920a3ca505d382bbc8152f35b5162461bcd60e51b815260206004820152603860248201527f555550535570677261646561626c653a206d757374206e6f742062652063616c60448201527f6c6564207468726f7567682064656c656761746563616c6c00000000000000006064820152608490fd5b83346107795780600319360112610779576128cb61577e565b60ff1960ca541660ca5580f35b50508060031936011261062357600435906001600160a01b039081831683036107015783926024359267ffffffffffffffff8411611c9e5736602385011215611c9e5783600401359061293661292d83613cc3565b94519485613c8b565b81845236602483870101116129c457610aa5956020836129b7946024600199018389013786010152807f0000000000000000000000000000000000000000000000000000000000000000169061298e82301415613d05565b7f360894a13ba1a3210667c828492db98dca3e2076cc3735a920a3ca505d382bbc541614613d66565b6129bf61577e565b613dc7565b8580fd5b50503461062357816003193601126106235760209061013b549051908152f35b5050346106235781600319360112610623576101475490516001600160a01b039091168152602090f35b50503461062357816003193601126106235760209061014c549051908152f35b5050346106235760203660031901126106235760043561013780548210156109c95790612a5e91613c6f565b50805460019091015482519182526001600160a01b03166020820152f35b83915034610623573660031901126107795750612a97615119565b5061014f546001600160a01b03908116330361118b57610cc7610cbd91612abf3660046156d2565b93612ac8615119565b50612ad1614ffe565b612ad961580c565b61114d610c5d825163d9b6c2e560e01b6020820152610c4260248201896150c9565b828434610779578160031936011261077957506004356001600160a01b038181169182900361070157602435918183169182840361070157612b9192612b3f61580c565b612b498533614a4e565b612b5230614363565b90865193632ab7831f60e01b602086015260248501523360448501526064840152608483015260848252612b8760a483613c8b565b6101f65416614a2c565b91602083805181010312610701576106d160208094015180936141ad565b50503461062357816003193601126106235760209061013e549051908152f35b505034610623578160031936011261062357602090610772612bfa612bf2614e3d565b9190916143ff565b91614c38565b50503461062357816003193601126106235760ca5460ff8160081c1615612cfb5760018060a01b03808260101c163314159081612c7b575b50611f405760ff811615611f2f5761ff00191660ca55513381527f5db9ee0a495bf2e6ff9c91a7834c1ba4fdd244a5e8aa4e537bd38aeae4b073aa90602090a180f35b609754845163d994d6d560e01b8152336004820152925060209183916024918391165afa908115612cee578491612cb5575b501538612c38565b90506020813d8211612ce6575b81612ccf60209383613c8b565b810103126109c957612ce090614204565b38612cad565b3d9150612cc2565b50505051903d90823e3d90fd5b8151637c7fd07960e01b8152600490fd5b8334610779576020366003190112610779576004356001600160a01b0381169081900361062357612d3b61577e565b61014f80546001600160a01b031916909117905580f35b833461077957602036600319011261077957612d6c61577e565b6004356101905580f35b8383346106235761010091826003193601126107795750612d95615119565b5061014f546001600160a01b0392908316330361118b57612db882519182613c8b565b600435838116810361070157815260243583811681036107015760208201526044358282015260643560608201526080810191608435835260a4359084821682036107015760a0830191825260c43585811681036107015760c084015260e4359285841684036107015785610cc795612e74610c5d6108a3610c52866113739d610cbd98019a8b52612e48615119565b50612e51614ffe565b612e5961580c565b88516370f090ed60e11b602082015292839160248301615065565b9892809b8a96939d9299865161136861014e918254614303565b5050346106235760203660031901126106235760043591610138908154841015610779575060209261202591613b3a565b50503461062357602036600319011261062357600435906001600160a01b0390818316830361070157610aa592612f218386947f0000000000000000000000000000000000000000000000000000000000000000169061298e82301415613d05565b612f2961577e565b612f3e612f3584613cc3565b92519283613c8b565b828252601f19612f4d84613cc3565b01366020840137613dc7565b8284612f66366004613b7c565b9694612f76989193949298614ffe565b612f7e61580c565b612f888433614a4e565b612f9486519283613c8b565b60018060a01b039788808093169586855260209b868d870152888a87015260608601523360808601521660a08401521660c082015287612ff160e48961014f5416938851948593849263e4e1b72960e01b845260048401906150c9565b34905af19586156130575795613024575b5061301b906106d1949596610133541630903390614fba565b30903390614fba565b909394508681813d8311613050575b61303d8183613c8b565b810103126107015751939261301b613002565b503d613033565b8551903d90823e3d90fd5b50503461062357816003193601126106235761307c614326565b61308461580c565b61014b805460ff81168061314f575b80613135575b6130a1578380f35b61ff00191661010017905580519082907f8b77276c97a5709f0d6db52329848a254eb760ce8be80d281799f633bdb69e838280a1610133546001600160a01b0316803b156108c75783600481858094638456cb5960e01b83525af190811561312a575061311a575b505061311361461c565b3880808380f35b61312391613c8b565b3881613109565b51913d9150823e3d90fd5b5061314461179b610af56147ee565b61014a541015613099565b5060ff8160081c1615613093565b50503461062357816003193601126106235760209061013f549051908152f35b838382600319360112610623576001600160a01b0392600435848116908190036109c95760243590858216809203611c9e57604435916084359360a43597808916988981036132b05760c435908282168092036132ac57906131f5613250959493926131e7614ffe565b6131ef61580c565b33614a4e565b88519261320461010085613c8b565b86845260209b8c9586860152888b86015260643560608601528960808601523360a086015260c085015283015261014f5416875180809581946334975a4160e01b835260048301615065565b039134905af1958615613057578096613278575b50506106d192916121c09130903390614fba565b909195508682813d83116132a5575b6132918183613c8b565b8101031261077957505193816121c0613264565b503d613287565b8980fd5b8880fd5b82846132c1366004613bfd565b916132ce96949196614ffe565b6132d661580c565b6132e08733614a4e565b61334460c48651936132f360c086613c8b565b60018060a01b0380809216968787528160209c8d978b898b01528c8a01523360608a01521660808801521660a086015261014f54169387519485938492636426c5db60e11b84526004840190615020565b34905af19485156114d1578095613366575b5050906106d19130903390614fba565b909194508582813d8311613393575b61337f8183613c8b565b81010312610779575051926106d186613356565b503d613375565b505034610623578160031936011261062357602090610143549051908152f35b8334610779576020366003190112610779576004356001600160a01b0381168103610623576133e761577e565b60ca805462010000600160b01b03191660109290921b62010000600160b01b031691909117905580f35b83346107795760203660031901126107795761342b61577e565b60043561014a5580f35b505034610623578160031936011261062357602090610140549051908152f35b8334610779576020366003190112610779576004356001600160a01b038116908190036106235761348461577e565b61014780546001600160a01b031916909117905580f35b5050346106235781600319360112610623576102295490516001600160a01b039091168152602090f35b505034610623576020366003190112610623576004356001600160a01b038116908190036108c75782829160209452610144845220549051908152f35b50503461062357816003193601126106235760209060ff61014b5460081c1690519015158152f35b5050346106235760a036600319011261062357613545615119565b5061014f546001600160a01b0392908316330361118b57906135d69161356c366004615140565b91613575615119565b5061357e614ffe565b61358661580c565b670de0b6b3a76400006135a9610f516135a06115826147ee565b87519291614c04565b04948184019080825116916135cb6080870193898486511661013c54926151e0565b96918a9991996143de565b9660208101998a51808a116136ff575088156136ee5781602091866060613659969551930151169061013461360c8482546143de565b905561361c6101319182546143de565b90556101335489516340c10f1960e01b81526001600160a01b03909216600483015260248201929092529384918716908290859082906044820190565b03925af180156136e25761368c575b5050966110259282611373888895610cc79a9b9c865161136861014e918254614303565b6020823d82116136da575b816136a460209383613c8b565b8101031261077957509282611373888895610cc79a9b9c956136c861102599614204565b50959c9b509550985050819450613668565b3d9150613697565b508551903d90823e3d90fd5b865163f3e39b5d60e01b8152600490fd5b6044908a895191630b63f1a760e01b835260048301526024820152fd5b83346107795760203660031901126107795761373661577e565b6004356101425580f35b8334610779576020366003190112610779576004358015158091036106235761376761577e565b61014b9060ff8019835416911617905580f35b50503461062357816003193601126106235760209061077261379d610af56147ee565b90614c04565b50503461062357816003193601126106235760209061014d549051908152f35b838360e46138596137d5366004613b7c565b946137e59a94969297919a614ffe565b6137ed61580c565b6137f78b33614a4e565b61380389519586613c8b565b60018060a01b0380809216968787528160209d8e978b898b01528d8a01528b60608a01523360808a01521660a08801521660c086015261014f541693885194859384926263744760e11b845260048401906150c9565b34905af19586156130575780966132785750506106d192916121c09130903390614fba565b50503461062357816003193601126106235761014f5490516001600160a01b039091168152602090f35b8334610779576020366003190112610779576004356001600160a01b03811690819003610623576138d761577e565b61013080546001600160a01b031916909117905580f35b83346107795760203660031901126107795761390861577e565b60043561013f5580f35b505034610623578160031936011261062357602090610159549051908152f35b8334610779576020366003190112610779576004356001600160a01b038116908190036106235761396161577e565b61014680546001600160a01b031916909117905580f35b50503461062357816003193601126106235760209061018f549051908152f35b50503461062357816003193601126106235760975490516001600160a01b039091168152602090f35b833461077957602036600319011261077957600435801515809103610623576139e861577e565b61014b9062ff000082549160101b169062ff0000191617905580f35b833461077957602036600319011261077957613a1e61577e565b60043561015a5580f35b505034610623578160031936011261062357613a4261580c565b61015b80544310613abe57610aa59160209161015a5443019055613aaa6101319182547f0e37fda283839477a1b77e29acf8336c0e13a5daa967913df0fe5ad258c0822f670de0b6b3a7640000613a9c6101595484614510565b0495869351848152a1614303565b9055610158546001600160a01b03166141ad565b815163acce20e560e01b8152600490fd5b50503461062357602036600319011261062357600435916101359081548410156107795750602092613b0091613b3a565b905491519160018060a01b039160031b1c168152f35b833461077957602036600319011261077957613b3061577e565b60043561013a5580f35b8054821015613b525760005260206000200190600090565b634e487b7160e01b600052603260045260246000fd5b35906001600160a01b038216820361070157565b91908260c091031261070157613b9182613b68565b91602081013591604082013591606081013591613bbc60a0613bb560808501613b68565b9301613b68565b90565b604090613bfb939594929560c0820196825260208201520190606080918051845260208101516020850152604081015160408501520151910152565b565b908160a091031261070157613c1181613b68565b91602082013591604081013591613bbc6080613bb560608501613b68565b613bfb9360609296959360e08301978352602083015260408201520190606080918051845260208101516020850152604081015160408501520151910152565b8054821015613b525760005260206000209060011b0190600090565b90601f8019910116810190811067ffffffffffffffff821117613cad57604052565b634e487b7160e01b600052604160045260246000fd5b67ffffffffffffffff8111613cad57601f01601f191660200190565b919082608091031261070157813591602081013591613bbc6060613bb560408501613b68565b15613d0c57565b60405162461bcd60e51b815260206004820152602c60248201527f46756e6374696f6e206d7573742062652063616c6c6564207468726f7567682060448201526b19195b1959d85d1958d85b1b60a21b6064820152608490fd5b15613d6d57565b60405162461bcd60e51b815260206004820152602c60248201527f46756e6374696f6e206d7573742062652063616c6c6564207468726f7567682060448201526b6163746976652070726f787960a01b6064820152608490fd5b9060ff7f4910fdfa16fed3260ed0e7147f7cc6da11a60208b5b9406d12a635614ffd91435416600014613dff5750613bfb9150613fb3565b6040516352d1902d60e01b8152602093919291906001600160a01b038316908581600481855afa60009181613f84575b50613e905760405162461bcd60e51b815260048101879052602e60248201527f45524331393637557067726164653a206e657720696d706c656d656e7461746960448201526d6f6e206973206e6f74205555505360901b6064820152608490fd5b9394937fc9f76b5ec45e5cdef99837d7b6d2467235c1df8933c8ca56df5c35afa2c7d44401613f2d57613ec283613fb3565b7fbc7cd75a20ee27fd9adebab32041f755214dbc6bffa90cc0225b39da2e5c2d3b600080a283511590811591613f25575b50613efd57505050565b600080613f2294613f0c614055565b9481519101845af4613f1c6140a9565b916140d9565b50565b905038613ef3565b60405162461bcd60e51b815260048101859052602960248201527f45524331393637557067726164653a20756e737570706f727465642070726f786044820152681a58589b195555525160ba1b6064820152608490fd5b90918782813d8311613fac575b613f9b8183613c8b565b810103126107795750519038613e2f565b503d613f91565b803b15613ffa577f360894a13ba1a3210667c828492db98dca3e2076cc3735a920a3ca505d382bbc80546001600160a01b0319166001600160a01b03909216919091179055565b60405162461bcd60e51b815260206004820152602d60248201527f455243313936373a206e657720696d706c656d656e746174696f6e206973206e60448201526c1bdd08184818dbdb9d1c9858dd609a1b6064820152608490fd5b61405f6027613cc3565b9061406d6040519283613c8b565b60278252660819985a5b195960ca1b6040837f416464726573733a206c6f772d6c6576656c2064656c65676174652063616c6c60208201520152565b3d156140d4573d906140ba82613cc3565b916140c86040519384613c8b565b82523d6000602084013e565b606090565b9192901561413b57508151156140ed575090565b3b156140f65790565b60405162461bcd60e51b815260206004820152601d60248201527f416464726573733a2063616c6c20746f206e6f6e2d636f6e74726163740000006044820152606490fd5b82519091501561414e5750805190602001fd5b6040519062461bcd60e51b82528160208060048301528251908160248401526000935b828510614194575050604492506000838284010152601f80199101168101030190fd5b8481018201518686016044015293810193859350614171565b90806141b7575050565b6102295460405163a9059cbb60e01b60208201526001600160a01b0393841660248201526044810192909252613bfb92166141ff82606481015b03601f198101845283613c8b565b614211565b5190811515820361070157565b602091614274916001600160a01b031660008061422d86613cc3565b9361423b6040519586613c8b565b8685527f5361666545524332303a206c6f772d6c6576656c2063616c6c206661696c656487860152868151910182855af1613f1c6140a9565b80518281159182156142e4575b505090501561428d5750565b6084906040519062461bcd60e51b82526004820152602a60248201527f5361666545524332303a204552433230206f7065726174696f6e20646964206e6044820152691bdd081cdd58d8d9595960b21b6064820152fd5b838092935001031261070157816142fb9101614204565b808238614281565b9190820391821161431057565b634e487b7160e01b600052601160045260246000fd5b61432f30614363565b6101319061434c61434283548093614303565b61014e5490614303565b8061435657505050565b61435f916143de565b9055565b610229546040516370a0823160e01b81526001600160a01b0392831660048201529160209183916024918391165afa9081156143d2576000916143a4575090565b906020823d82116143ca575b816143bd60209383613c8b565b8101031261077957505190565b3d91506143b0565b6040513d6000823e3d90fd5b9190820180921161431057565b8051821015613b525760209160051b010190565b906000916000906101378054906000925b8284106144365750505050614432670de0b6b3a7640000916101395490614510565b0490565b909192939561448361447261447d6001936144776144548a886143eb565b5161445f818c6144a9565b959061446b8d8c613c6f565b50546143de565b61582d565b906143de565b986143de565b9401929190614410565b9190916000838201938412911290801582169115161761431057565b91906000906144d7816000956144cd6144c482610150613b3a565b9390549261455c565b9160031b1c61448d565b600081136144e6575b50509190565b61450891945061266d92508094670de0b6b3a764000093849161013a54614510565b0438806144e0565b8181029291811591840414171561431057565b811561452d570490565b634e487b7160e01b600052601260045260246000fd5b8181039291600013801582851316918412161761431057565b61456881610137613c6f565b505490670de0b6b3a76400009182810292818404149015171561431057613bbc926145a861459b6145ae93610151613b3a565b90549060031b1c84614523565b92614523565b90614543565b80156145ca57614472613bbc9261013154614303565b505060001990565b67ffffffffffffffff8111613cad5760051b60200190565b906145f4826145d2565b6146016040519182613c8b565b8281528092614612601f19916145d2565b0190602036910137565b610131548015613f225761013790815491600090614639846145ea565b9082905b8582106146a857505060005b848110614657575050505050565b6146748461466f8561466985876143eb565b51614510565b614523565b9061013891825468010000000000000000811015613cad5761268681600195866146a094018155613b3a565b905501614649565b90926146e46001916146b986614727565b6146c387876143eb565b526144776146d18786613c6f565b50546146dd88886143eb565b519061582d565b93019061463d565b6001600160a01b0316600090815261013660205260409020600181015460ff1615614715575490565b60405163e6c4247b60e01b8152600490fd5b61473390610137613c6f565b50600101546001600160a01b031661474a81614788565b91909115614756575090565b60249060405190637f6e4db960e01b82526004820152fd5b919082604091031261070157613bbc602083519301614204565b604080516359e02dd760e01b81529291839060049082906001600160a01b03165afa9182156143d25760009081936147bf57509190565b90506147e391925060403d81116147e7575b6147db8183613c8b565b81019061476e565b9091565b503d6147d1565b61013754906147fc826145ea565b9160005b81811061480b575050565b80614817600192614727565b61482182876143eb565b5201614800565b90614849670de0b6b3a7640000928361015754610154549243010302614523565b828110156148665782039180836101555402049261015654020590565b50600091508190565b90916148796148d1565b9290808210156148c757839161488e91614303565b9311156148c257818110156148ba576148a691614303565b60011c808210156148b5575090565b905090565b505050600090565b505090565b5050505050600090565b61015254604080516359e02dd760e01b80825293929091906001600160a01b039081168284600481845afa80156149c157600094859161499e575b5015614987575061015354169080519485528085600481855afa801561497c576000958691614959575b50156149425750509190565b6024925051906305e8989360e11b82526004820152fd5b9050816149739296503d87116147e7576147db8183613c8b565b94909438614936565b50513d6000823e3d90fd5b6024908351906305e8989360e11b82526004820152fd5b90506149b8919450833d85116147e7576147db8183613c8b565b9390933861490c565b83513d6000823e3d90fd5b156149d357565b60405162461bcd60e51b815260206004820152602b60248201527f496e697469616c697a61626c653a20636f6e7472616374206973206e6f74206960448201526a6e697469616c697a696e6760a81b6064820152608490fd5b90613bbc91600080614a3c614055565b93602081519101845af4613f1c6140a9565b60ff61014b5460101c16159182614a7a575b5050614a6857565b604051636f97b88360e01b8152600490fd5b6001600160a01b039182169116141590503880614a60565b614b0093614ac7600092602095614aab82610137613c6f565b50614ab78782546143de565b90556116296101319182546143de565b90546040516340c10f1960e01b81526001600160a01b039093166004840152602483019490945290948593928492909183906044820190565b039360039190911b1c6001600160a01b03165af180156143d257614b215750565b6020813d8211614b4a575b81614b3960209383613c8b565b8101031261070157613f2290614204565b3d9150614b2c565b61268661435f91614b63848261455c565b614b99614b7283610150613b3a565b614b858294925492838360031b1c61448d565b919060031b91821b91600019901b19161790565b9055610151613b3a565b60e08101929160c09081906001600160a01b0380614bc083613b68565b168552614bcf60208301613b68565b16602085015260408101356040850152606081013560608501526080810135608085015260a081013560a08501520135910152565b9061013454908115614c2957613bbc92614c246144729261013154614303565b614303565b505050670de0b6b3a764000090565b8282614c4392614c60565b9060008213156148ba57613bbc92614c5a91614c04565b90614523565b9091614c6f9061013154614303565b90670de0b6b3a76400009182810292818404149015171561431057613bbc926145ae91614510565b92614ca59293949194614c60565b81810291600091600160ff1b9183821283821416614d49578185051490151715614d3557670de0b6b3a763ffff198401938411614d3557670de0b6b3a764000093848102948186041490151715614d35578315614d21578214600019841416614d0d57500590565b634e487b7160e01b81526011600452602490fd5b634e487b7160e01b82526012600452602482fd5b634e487b7160e01b82526011600452602482fd5b634e487b7160e01b84526011600452602484fd5b61014d5480431015614d7457613bbc904390614303565b50600090565b90604051614d89604082613c8b565b602060018294805484520154910152565b614da681610148613b3a565b90549060031b1c9161018e91614dbc8184613c6f565b50549261018f54431015614de2575b5050808210156148c25761466f90613bbc93614510565b829350614df6614e019392614dfc92613c6f565b50614d7a565b614e09565b903880614dcb565b602081519101805192670de0b6b3a76400009384039084821161431057614e366144779261443295614510565b9251614510565b60008061013791825492614e50846145ea565b9382915b818310614e7d575050508115614e715790614e6e91614523565b91565b50506101495460011b91565b90919392614e8a85614727565b9081614e9687896143eb565b52614eaf614ea483886144a9565b5061446b8886613c6f565b670de0b6b3a76400009081810291818304149015171561431057614ef1614ef79261447785614ee3600197614eec9661582d565b9485918c614d9a565b614510565b956143de565b94019190614e54565b61018f8054431015614f0f5750565b6101375460005b818110614f295750506101905443019055565b80807f19156e9379c7bbbce8f646ce5ee30ba860b8f954717405f3d5859a6c1a21ae6060019361018e614f5f614df68383613c6f565b90614f7d614f75614f6f85614727565b84614e09565b938492613c6f565b50555160409182519182526020820152a201614f16565b613bfb9061014e614fa68282546143de565b905561022954309033906001600160a01b03165b6040516323b872dd60e01b60208201526001600160a01b039283166024820152929091166044830152606480830193909352918152613bfb916141ff608483613c8b565b60ff61014b5460081c1661500e57565b604051631ca61d7760e01b8152600490fd5b60a09081600180821b03918281511685526020810151602086015260408101516040860152826060820151166060860152826080820151166080860152015116910152565b91909160e06101008201938160018060a01b03918281511685528260208201511660208601526040810151604086015260608101516060860152608081015160808601528260a08201511660a08601528260c08201511660c0860152015116910152565b60c0908160018060a01b03918281511685526020810151602086015260408101516040860152606081015160608601528260808201511660808601528260a08201511660a0860152015116910152565b60405190615128608083613c8b565b60006060838281528260208201528260408201520152565b91908260a09103126107015760405161515a60a082613c8b565b6080615198818395803585526020810135602086015261517c60408201613b68565b604086015261518d60608201613b68565b606086015201613b68565b910152565b91906151a8906143ff565b9190926151b583856145b4565b90808211156151c2575050565b6044925060405191637912120160e01b835260048301526024820152fd5b9290939160009160009182966151f4615119565b966001600160a01b03918590831680615400575b508261012f54168360405193636eb1769f60e11b8552168060048501523060248501526020948585604481865afa9485156153f55784956153c6575b50846152a5575b505050505086015115615261575b505050929190565b90919250615279670de0b6b3a7640000928392614510565b0480855290821561529d576152959204908160408601526143de565b388080615259565b509050615295565b6152b3906101305416614788565b9290921561524b57909192939b50848b6152ed85670de0b6b3a76400006152e76152dd8d8d614510565b6101435490614510565b04614523565b81830181815295908b156153bc57506153189161530c6060928d614523565b918291015285516143de565b809d5b10928315615347575b505050615334575b80808061524b565b819299505280606088015296388061532c565b909192506024604051809481936370a0823160e01b835260048301525afa9081156153b157908b918491615380575b5010388481615324565b809250858092503d83116153aa575b6153998183613c8b565b810103126108c7578a905138615376565b503d61538f565b6040513d85823e3d90fd5b915050809d61531b565b9094508581813d83116153ee575b6153de8183613c8b565b810103126109c957519338615244565b503d6153d4565b6040513d86823e3d90fd5b9095506020836101c35416916024604051809481936364a731e960e01b835260048301525afa8015615478578690615445575b61543e915084614510565b9438615208565b506020813d8211615470575b8161545e60209383613c8b565b810103126129c45761543e9051615433565b3d9150615451565b6040513d88823e3d90fd5b92613bfb94919293825115156000146154f3575060406154ee926154e6670de0b6b3a76400006154b861013b54845190614510565b046101316154c78282546143de565b90556154e060018060a01b036101465416918451614303565b906141ad565b0151906141ad565b6141ad565b9060606154ee9361551560018060a01b03610146541660208301519086615519565b0151915b91908161552557505050565b61012f54613bfb93906001600160a01b0316614fba565b91908260c09103126107015760405161555660c082613c8b565b60a061519881839561556781613b68565b8552602081013560208601526040810135604086015261558960608201613b68565b606086015261559a60808201613b68565b608086015201613b68565b906155b294939291614c97565b60008112614d745790565b806155c66148d1565b9190936155d36000614828565b940193829161566b575b019384600080821261566557505b84039181851161562d57505081811161560f57505061015555610156554361015755565b60449250604051916306da41e560e11b835260048301526024820152fd5b908085921161565357604491604051916306da41e560e11b835260048301526024820152fd5b604051630fb4fd3560e11b8152600490fd5b036155eb565b905081600003906155dd565b80910360e08112610701578151926020830151926080604082015193605f1901126107015760c0604051916156ad608084613c8b565b606081015183526080810151602084015260a081015160408401520151606082015290565b91908260e0910312610701576040516156ec60e082613c8b565b60c06151988183956156fd81613b68565b855260208101356020860152604081013560408601526060810135606086015261572960808201613b68565b608086015261573a60a08201613b68565b60a086015201613b68565b60405163a9059cbb60e01b60208201526001600160a01b0390921660248301526044820192909252613bfb916141ff82606481016141f1565b60975460405163d994d6d560e01b815233600482015290602090829060249082906001600160a01b03165afa9081156143d2576000916157d3575b50156157c157565b604051631dd1b1b560e21b8152600490fd5b906020823d8211615804575b816157ec60209383613c8b565b8101031261077957506157fe90614204565b386157b9565b3d91506157df565b60ff60ca5460081c1661581b57565b60405163783bb6c960e11b8152600490fd5b90670de0b6b3a76400009182810292818404149015171561431057613bbc91614523565b670de0b6b3a7640000111561586257565b604051632a9ffab760e21b8152600490fdfea2646970667358221220b9d24a444c509b8fb987df40f63f02b88643854232987989101e163cedd87c2264736f6c63430008140033",
  "linkReferences": {},
  "deployedLinkReferences": {},
  "devdoc": {
    "events": {
      "AdminChanged(address,address)": {
        "details": "Emitted when the admin account has changed."
      },
      "BeaconUpgraded(address)": {
        "details": "Emitted when the beacon is changed."
      },
      "Initialized(uint8)": {
        "details": "Triggered when the contract has been initialized or reinitialized."
      },
      "Upgraded(address)": {
        "details": "Emitted when the implementation is upgraded."
      }
    },
    "kind": "dev",
    "methods": {
      "addPeggedToken((address,address,uint256,uint256,uint256,uint256,uint256))": {
        "details": "Note that the ema value, should consider `nextEmaCalculation`  This function is implemented in MocCoreExpansion but with this contract contexttpTokenAddress Pegged Token contract address to add      priceProviderAddress Pegged Token price provider contract address      tpCtarg Pegged Token target coverage [PREC]      tpMintFee additional fee pct applied on mint [PREC]      tpRedeemFee additional fee pct applied on redeem [PREC]      tpEma initial Pegged Token exponential moving average [PREC]      tpEmaSf Pegged Token smoothing factor [PREC]  Requirements: - the caller must have governance authorization. - tpTokenAddress must be a MocRC20, with mint, burn roles already settled  for this contract",
        "params": {
          "peggedTokenParams_": "params of Pegged Token to add"
        }
      },
      "calcCtargemaCA()": {
        "details": "qAC = nTP / pACtp      ctargemaCA = (ctargemaTP * qAC) / (qAC)",
        "returns": {
          "ctargemaCA": "[PREC]"
        }
      },
      "changeGovernor(address)": {
        "params": {
          "newGovernor_": "New governor address"
        }
      },
      "constructor": {
        "custom:oz-upgrades-unsafe-allow": "constructor"
      },
      "editPeggedToken((address,address,uint256,uint256,uint256,uint256,uint256))": {
        "details": "Note that the ema value, should consider `nextEmaCalculation`  This function is implemented in MocCoreExpansion but with this contract contexttpTokenAddress Pegged Token contract address to identify the token to edit      priceProviderAddress Pegged Token price provider contract address      tpCtarg Pegged Token target coverage [PREC]      tpMintFee additional fee pct applied on mint [PREC]      tpRedeemFee additional fee pct applied on redeem [PREC]      tpEma initial Pegged Token exponential moving average [PREC]      tpEmaSf Pegged Token smoothing factor [PREC]  Requirements: - the caller must have governance authorization. - the tpTokenAddress must exists",
        "params": {
          "peggedTokenParams_": "params of Pegged Token to add"
        }
      },
      "getCglb()": {
        "returns": {
          "cglob": "[PREC]"
        }
      },
      "getLckAC()": {
        "returns": {
          "lckAC": "[PREC]"
        }
      },
      "getLeverageTC()": {
        "returns": {
          "leverageTC": "[PREC]"
        }
      },
      "getPACtp(address)": {
        "params": {
          "tp_": "Pegged Token address"
        },
        "returns": {
          "_0": "price [PREC]"
        }
      },
      "getPTCac()": {
        "returns": {
          "pTCac": "[PREC]"
        }
      },
      "getTCAvailableToRedeem()": {
        "details": "because it is a view function we are not calculating the new ema,  since we are using the last ema calculation, this may differ a little from the real amount  of TC available to redeem. Consider it an approximation.",
        "returns": {
          "tcAvailableToRedeem": "[N]"
        }
      },
      "getTPAvailableToMint(address)": {
        "details": "because it is a view function we are not calculating the new ema,  since we are using the last ema calculation, this may differ a little from the real amount  of TP available to mint. Consider it an approximation.",
        "params": {
          "tp_": "Pegged Token address"
        },
        "returns": {
          "tpAvailableToMint": "[N]"
        }
      },
      "getTotalACavailable()": {
        "returns": {
          "totalACavailable": "[N]"
        }
      },
      "initialize((((address,address,address,address,address,address,uint256,uint256,uint256,uint256,uint256,uint256,uint256,uint256,uint256,uint256,uint256,uint256,uint256,uint256,address,uint256,uint256,address,address,uint256,bool),address,address,address,uint256,address),address))": {
        "details": "governorAddress The address that will define when a change contract is authorized      pauserAddress The address that is authorized to pause this contract      acTokenAddress Collateral Asset Token contract address      tcTokenAddress Collateral Token contract address      mocFeeFlowAddress Moc Fee Flow contract address      mocAppreciationBeneficiaryAddress Moc appreciation beneficiary address      protThrld protected state threshold [PREC]      liqThrld liquidation coverage threshold [PREC]      feeRetainer pct retain on fees to be re-injected as Collateral, while paying fees with AC [PREC]      tcMintFee additional fee pct applied on mint Collateral Tokens operations [PREC]      tcRedeemFee additional fee pct applied on redeem Collateral Tokens operations [PREC]      successFee pct of the gain because Pegged Tokens devaluation that is transferred        in Collateral Asset to Moc Fee Flow during the settlement [PREC]      appreciationFactor pct of the gain because Pegged Tokens devaluation that is returned        in Pegged Tokens to appreciation beneficiary during the settlement [PREC]      bes number of blocks between settlements      tcInterestCollectorAddress TC interest collector address      tcInterestRate pct interest charged to TC holders on the total collateral in the protocol [PREC]      tcInterestPaymentBlockSpan amount of blocks to wait for next TC interest payment      maxAbsoluteOpProviderAddress max absolute operation provider address      maxOpDiffProviderAddress max operation difference provider address      decayBlockSpan number of blocks that have to elapse for the linear decay factor to be 0      emaCalculationBlockSpan amount of blocks to wait between Pegged ema calculation      mocVendors address for MocVendors contract      mocQueueAddress address for MocQueue contract",
        "params": {
          "initializeParams_": "contract initializer params"
        }
      },
      "isLiquidationReached()": {
        "returns": {
          "_0": "true if liquidation state is reached, false otherwise"
        }
      },
      "liqRedeemTP(address,address)": {
        "params": {
          "recipient_": "address who receives the AC",
          "tp_": "Pegged Token address"
        },
        "returns": {
          "qACRedeemed": "amount of AC sent to `recipient_`"
        }
      },
      "makeStoppable()": {
        "details": "Should be called through governance"
      },
      "makeUnstoppable()": {
        "details": "Should be called through governance"
      },
      "maxQACToMintTP()": {
        "returns": {
          "maxQAC": "minimum regarding maxAbsoluteOperation and maxOperationalDifference"
        }
      },
      "maxQACToRedeemTP()": {
        "returns": {
          "maxQAC": "minimum regarding maxAbsoluteOperation and maxOperationalDifference"
        }
      },
      "mintTC(uint256,uint256,address,address)": {
        "params": {
          "qACmax_": "maximum amount of Collateral Asset that can be spent",
          "qTC_": "amount of Collateral Token to mint",
          "recipient_": "address who receives the Collateral Token",
          "vendor_": "address who receives a markup, `0x0` if not using a vendor, `0x0` if not using a vendor"
        },
        "returns": {
          "operId": "Identifier to track the Operation lifecycle"
        }
      },
      "mintTCandTP(address,uint256,uint256,address,address)": {
        "params": {
          "qACmax_": "maximum amount of Collateral Asset that can be spent",
          "qTP_": "amount of Pegged Token to mint",
          "recipient_": "address who receives the Collateral Token and Pegged Token",
          "tp_": "Pegged Token address",
          "vendor_": "address who receives a markup, `0x0` if not using a vendor"
        },
        "returns": {
          "operId": "Identifier to track the Operation lifecycle"
        }
      },
      "mintTP(address,uint256,uint256,address,address)": {
        "params": {
          "qACmax_": "maximum amount of Collateral Asset that can be spent",
          "qTP_": "amount of Pegged Token to mint",
          "recipient_": "address who receives the Pegged Token",
          "tp_": "Pegged Token address to mint",
          "vendor_": "address who receives a markup, `0x0` if not using a vendor"
        },
        "returns": {
          "operId": "Identifier to track the Operation lifecycle"
        }
      },
      "pause()": {
        "details": "Should only be called by the pauser and when it is stoppable"
      },
      "proxiableUUID()": {
        "details": "Implementation of the ERC1822 {proxiableUUID} function. This returns the storage slot used by the implementation. It is used to validate the implementation's compatibility when performing an upgrade. IMPORTANT: A proxy pointing at a proxiable contract should not be considered proxiable itself, because this risks bricking a proxy that upgrades to it, by delegating to itself until out of gas. Thus it is critical that this function revert if invoked through a proxy. This is guaranteed by the `notDelegated` modifier."
      },
      "redeemTC(uint256,uint256,address,address)": {
        "params": {
          "qACmin_": "minimum amount of Collateral Asset that `recipient_` expects to receive",
          "qTC_": "amount of Collateral Token to redeem",
          "recipient_": "address who receives the Collateral Asset",
          "vendor_": "address who receives a markup, `0x0` if not using a vendor"
        },
        "returns": {
          "operId": "Identifier to track the Operation lifecycle"
        }
      },
      "redeemTCandTP(address,uint256,uint256,uint256,address,address)": {
        "params": {
          "qACmin_": "Minimum amount of Collateral Asset that `recipient_` expects to receive",
          "qTC_": "Maximum amount of Collateral Token to redeem",
          "qTP_": "Maximum amount of Pegged Token to redeem",
          "recipient_": "Address who receives the Collateral Asset",
          "tp_": "Pegged Token address",
          "vendor_": "address who receives a markup, `0x0` if not using a vendor"
        },
        "returns": {
          "operId": "Identifier to track the Operation lifecycle"
        }
      },
      "redeemTP(address,uint256,uint256,address,address)": {
        "params": {
          "qACmin_": "minimum amount of Collateral Asset that `recipient_` expects to receive",
          "qTP_": "amount of Pegged Token to redeem",
          "recipient_": "address who receives the Collateral Asset",
          "tp_": "Pegged Token address to redeem",
          "vendor_": "address who receives a markup, `0x0` if not using a vendor"
        },
        "returns": {
          "operId": "Identifier to track the Operation lifecycle"
        }
      },
      "refreshACBalance()": {
        "details": "Intended to be use as notification after an RC20 AC transfer to this contract"
      },
      "setAllowDifferentRecipient(bool)": {
        "details": "sets allowDifferentRecipient param",
        "params": {
          "allowDifferentRecipient_": "allows users operate using another address as the recipient of the tokens"
        }
      },
      "setAppreciationFactor(uint256)": {
        "details": "sets appreciation Factor value.",
        "params": {
          "appreciationFactor_": "pct of the gain because Pegged Tokens devaluation that is returned in Pegged Tokens to appreciation beneficiary during the settlement [PREC]"
        }
      },
      "setBes(uint256)": {
        "details": "bns is not automatically updated, you have to wait until next settlement to be made : bns = block.number + bes*",
        "params": {
          "bes_": "number of blocks between settlements"
        }
      },
      "setDecayBlockSpan(uint256)": {
        "details": "sets flux capacitor decay block span",
        "params": {
          "decayBlockSpan_": "flux capacitor decay block span"
        }
      },
      "setEmaCalculationBlockSpan(uint256)": {
        "details": "nextEmaCalculation is not automatically updated, you have to wait until next  EMA calculation to be made : nextEmaCalculation = block.number + emaCalculationBlockSpan*",
        "params": {
          "blockSpan_": "Defines how many blocks should pass between EMA calculations"
        }
      },
      "setFeeRetainer(uint256)": {
        "details": "sets the fee pct to be retainer on AC fees payments as AC re-injection.",
        "params": {
          "feeRetainer_": "pct retain on fees to be re-injected as Collateral, while paying fees with AC [PREC] 0% = 0; 1% = 10 ** 16; 100% = 10 ** 18"
        }
      },
      "setFeeTokenAddress(address)": {
        "details": "sets Fee Token contract address",
        "params": {
          "mocFeeTokenAddress_": "Fee Token new contract address"
        }
      },
      "setFeeTokenPct(uint256)": {
        "details": "sets the fee applied on the top of the operation`s fee when using Fee Token as fee payment method.",
        "params": {
          "feeTokenPct_": "pct applied on the top of the operation`s fee when using Fee Token  as fee payment method [PREC]  e.g. if tcMintFee = 1%, FeeTokenPct = 50% => qFeeToken = 0.5%  0% = 0; 1% = 10 ** 16; 100% = 10 ** 18"
        }
      },
      "setFeeTokenPriceProviderAddress(address)": {
        "details": "sets Fee Token price provider contract address",
        "params": {
          "mocFeeTokenPriceProviderAddress_": "Fee Token price provider new contract address"
        }
      },
      "setLiqEnabled(bool)": {
        "details": "enables and disables the liquidation mechanism.",
        "params": {
          "liqEnabled_": "is liquidation enabled"
        }
      },
      "setLiqThrld(uint256)": {
        "details": "sets the value of the liq threshold configuration param",
        "params": {
          "liqThrld_": "liquidation threshold"
        }
      },
      "setMaxAbsoluteOpProviderAddress(address)": {
        "details": "sets max absolute operation provider address",
        "params": {
          "maxAbsoluteOpProviderAddress_": "max absolute operation provider address"
        }
      },
      "setMaxOpDiffProviderAddress(address)": {
        "details": "sets max operation difference provider address",
        "params": {
          "maxOpDiffProviderAddress_": "max operation difference provider address"
        }
      },
      "setMintTCandTPFee(uint256)": {
        "details": "sets the fee charged when mint Collateral Token and Pegged Token in one operation.",
        "params": {
          "mintTCandTPFee_": "additional fee pct applied on mint Collateral Token and Pegged Token [PREC] 0% = 0; 1% = 10 ** 16; 100% = 10 ** 18"
        }
      },
      "setMocAppreciationBeneficiaryAddress(address)": {
        "details": "sets Moc Appreciation Beneficiary Address",
        "params": {
          "mocAppreciationBeneficiaryAddress_": "moc Appreciation Beneficiary new address"
        }
      },
      "setMocCoreExpansion(address)": {
        "details": "sets Moc Core Expansion contract address",
        "params": {
          "mocCoreExpansion_": "moc core expansion new contract address"
        }
      },
      "setMocFeeFlowAddress(address)": {
        "details": "sets Moc Fee Flow contract address",
        "params": {
          "mocFeeFlowAddress_": "moc Fee Flow new contract address"
        }
      },
      "setMocQueue(address)": {
        "details": "sets Moc Queue contract address",
        "params": {
          "mocQueueAddress_": "moc queue new contract address"
        }
      },
      "setMocVendors(address)": {
        "details": "sets Moc Vendors contract address",
        "params": {
          "mocVendors_": "moc Vendors new contract address"
        }
      },
      "setPauser(address)": {
        "details": "Should be called through governance",
        "params": {
          "newPauser_": "Address of the new pauser"
        }
      },
      "setProtThrld(uint256)": {
        "details": "sets the value of the protected threshold configuration param",
        "params": {
          "protThrld_": "coverage protected state threshold [PREC]"
        }
      },
      "setRedeemTCandTPFee(uint256)": {
        "details": "sets the fee charged when redeem Collateral Token and Pegged Token in one operation.",
        "params": {
          "redeemTCandTPFee_": "additional fee pct applied on redeem Collateral Token and Pegged Token [PREC] 0% = 0; 1% = 10 ** 16; 100% = 10 ** 18"
        }
      },
      "setSuccessFee(uint256)": {
        "details": "sets success Fee value.",
        "params": {
          "successFee_": "pct of the gain because Pegged Tokens devaluation that is transferred in Collateral Asset to Moc Fee Flow during the settlement [PREC]"
        }
      },
      "setSwapTCforTPFee(uint256)": {
        "details": "sets the fee charged when swap Collateral Token for a Pegged Token.",
        "params": {
          "swapTCforTPFee_": "additional fee pct applied on swap Collateral Token for a Pegged Token [PREC] 0% = 0; 1% = 10 ** 16; 100% = 10 ** 18"
        }
      },
      "setSwapTPforTCFee(uint256)": {
        "details": "sets the fee charged when swap a Pegged Token for Collateral Token.",
        "params": {
          "swapTPforTCFee_": "additional fee pct applied on swap a Pegged Token for Collateral Token [PREC] 0% = 0; 1% = 10 ** 16; 100% = 10 ** 18"
        }
      },
      "setSwapTPforTPFee(uint256)": {
        "details": "sets the fee charged when swap a Pegged Token for another Pegged Token.",
        "params": {
          "swapTPforTPFee_": "additional fee pct applied on swap a Pegged Token for another Pegged Token [PREC] 0% = 0; 1% = 10 ** 16; 100% = 10 ** 18"
        }
      },
      "setTCInterestCollectorAddress(address)": {
        "details": "sets TC interest collector address",
        "params": {
          "tcInterestCollectorAddress_": "TC interest collector address"
        }
      },
      "setTCInterestPaymentBlockSpan(uint256)": {
        "details": "sets TC interest payment block spannextTCInterestPayment is not automatically updated, you have to wait until next  interest payment to be made : nextTCInterestPayment = block.number + tcInterestPaymentBlockSpan",
        "params": {
          "tcInterestPaymentBlockSpan_": "amount of blocks to wait for next TC interest payment"
        }
      },
      "setTCInterestRate(uint256)": {
        "details": "sets TC interest rate",
        "params": {
          "tcInterestRate_": "pct interest charged to TC holders on the total collateral in the protocol [PREC]"
        }
      },
      "setTcMintFee(uint256)": {
        "details": "sets the fee charged on Token Collateral mint.",
        "params": {
          "tcMintFee_": "addition fee pct applied on Collateral Tokens mint [PREC] 0% = 0; 1% = 10 ** 16; 100% = 10 ** 18"
        }
      },
      "setTcRedeemFee(uint256)": {
        "details": "sets the fee charged on Token Collateral redeem.",
        "params": {
          "tcRedeemFee_": "addition fee pct applied on Collateral Tokens redeem [PREC] 0% = 0; 1% = 10 ** 16; 100% = 10 ** 18"
        }
      },
      "swapTCforTP(address,uint256,uint256,uint256,address,address)": {
        "params": {
          "qACmax_": "Maximum amount of Collateral Asset that can be spent in fees",
          "qTC_": "Amount of owned Collateral Token to swap",
          "qTPmin_": "Minimum amount of Pegged Token that `recipient_` expects to receive",
          "recipient_": "Address who receives the Pegged Token",
          "tp_": "Pegged Token address",
          "vendor_": "address who receives a markup, `0x0` if not using a vendor"
        },
        "returns": {
          "operId": "Identifier to track the Operation lifecycle"
        }
      },
      "swapTPforTC(address,uint256,uint256,uint256,address,address)": {
        "params": {
          "qACmax_": "maximum amount of Collateral Asset that can be spent in fees",
          "qTCmin_": "minimum amount of Collateral Token that `recipient_` expects to receive",
          "qTP_": "amount of owned Pegged Token to swap",
          "recipient_": "address who receives the Collateral Token",
          "tp_": "Pegged Token address",
          "vendor_": "address who receives a markup, `0x0` if not using a vendor"
        },
        "returns": {
          "operId": "Identifier to track the Operation lifecycle"
        }
      },
      "swapTPforTP(address,address,uint256,uint256,uint256,address,address)": {
        "params": {
          "qACmax_": "maximum amount of Collateral Asset that can be spent in fees",
          "qTP_": "amount of owned Pegged Token to swap",
          "qTPmin_": "minimum amount of target Pegged Token that `recipient_` expects to receive",
          "recipient_": "address who receives the target Pegged Token",
          "tpFrom_": "owned Pegged Token address",
          "tpTo_": "target Pegged Token address",
          "vendor_": "address who receives a markup, `0x0` if not using a vendor"
        },
        "returns": {
          "operId": "Identifier to track the Operation lifecycle"
        }
      },
      "tcHoldersInterestPayment()": {
        "details": "-   The amount is not differential, it's a snapshot of the moment it's executed  -   It does not check coverage"
      },
      "unlockACInPending(address,uint256)": {
        "details": "this function must be overridden by the AC implementation",
        "params": {
          "owner_": "funds owner, address to be returned to",
          "qACToUnlock_": "AC amount to be unlocked"
        }
      },
      "unlockTCInPending(address,uint256)": {
        "params": {
          "owner_": "funds owner, address to be returned to",
          "qTCToUnlock_": "TC amount to be unlocked"
        }
      },
      "unlockTPInPending(address,address,uint256)": {
        "params": {
          "owner_": "funds owner, address to be returned to",
          "qTPToUnlock_": "TP amount to be unlocked",
          "tpToken_": "TP to be unlocked"
        }
      },
      "unpause()": {
        "details": "Should only be called by the pauser and when it is stoppable"
      },
      "updateEmas()": {
        "details": "All price provider prices must be available, fails if not"
      },
      "upgradeTo(address)": {
        "custom:oz-upgrades-unsafe-allow-reachable": "delegatecall",
        "details": "Upgrade the implementation of the proxy to `newImplementation`. Calls {_authorizeUpgrade}. Emits an {Upgraded} event."
      },
      "upgradeToAndCall(address,bytes)": {
        "custom:oz-upgrades-unsafe-allow-reachable": "delegatecall",
        "details": "Upgrade the implementation of the proxy to `newImplementation`, and subsequently execute the function call encoded in `data`. Calls {_authorizeUpgrade}. Emits an {Upgraded} event."
      }
    },
    "stateVariables": {
      "__gap": {
        "details": "This empty reserved space is put in place to allow future versions to add new variables without shifting down storage in the inheritance chain. See https://docs.openzeppelin.com/contracts/4.x/upgradeable#storage_gaps"
      }
    },
    "title": "MocCARC20: Moc Collateral Asset RC20",
    "version": 1
  },
  "evm": {
    "bytecode": {
      "linkReferences": {},
      "opcodes": "PUSH1 0xA0 DUP1 PUSH1 0x40 MSTORE CALLVALUE PUSH3 0xE1 JUMPI ADDRESS PUSH1 0x80 MSTORE PUSH1 0x0 SLOAD SWAP1 PUSH1 0xFF DUP3 PUSH1 0x8 SHR AND PUSH3 0x8F JUMPI POP PUSH1 0xFF DUP1 DUP3 AND SUB PUSH3 0x53 JUMPI JUMPDEST PUSH1 0x40 MLOAD PUSH2 0x58AA SWAP1 DUP2 PUSH3 0xE7 DUP3 CODECOPY PUSH1 0x80 MLOAD DUP2 DUP2 DUP2 PUSH2 0x27F2 ADD MSTORE DUP2 DUP2 PUSH2 0x2961 ADD MSTORE PUSH2 0x2EF4 ADD MSTORE RETURN JUMPDEST PUSH1 0xFF SWAP1 DUP2 NOT AND OR PUSH1 0x0 SSTORE PUSH32 0x7F26B83FF96E1F2B6A682F133852F6798A09C465DA95921460CEFB3847402498 PUSH1 0x20 PUSH1 0x40 MLOAD PUSH1 0xFF DUP2 MSTORE LOG1 CODESIZE PUSH3 0x2C JUMP JUMPDEST PUSH3 0x461BCD PUSH1 0xE5 SHL DUP2 MSTORE PUSH1 0x20 PUSH1 0x4 DUP3 ADD MSTORE PUSH1 0x27 PUSH1 0x24 DUP3 ADD MSTORE PUSH32 0x496E697469616C697A61626C653A20636F6E747261637420697320696E697469 PUSH1 0x44 DUP3 ADD MSTORE PUSH7 0x616C697A696E67 PUSH1 0xC8 SHL PUSH1 0x64 DUP3 ADD MSTORE PUSH1 0x84 SWAP1 REVERT JUMPDEST PUSH1 0x0 DUP1 REVERT INVALID PUSH1 0x40 PUSH1 0x80 DUP2 MSTORE PUSH1 0x4 CALLDATASIZE LT ISZERO PUSH2 0x13 JUMPI PUSH1 0x0 DUP1 REVERT JUMPDEST PUSH1 0x0 SWAP1 PUSH1 0xE0 DUP3 CALLDATALOAD DUP2 SHR SWAP1 DUP2 PUSH4 0x1DDE6EF EQ PUSH2 0x3B16 JUMPI DUP2 PUSH4 0x1F1B684 EQ PUSH2 0x3ACF JUMPI DUP2 PUSH4 0x579188F EQ PUSH2 0x3A28 JUMPI DUP2 PUSH4 0x73763B9 EQ PUSH2 0x3A04 JUMPI DUP2 PUSH4 0x7B00D04 EQ PUSH2 0x39C1 JUMPI DUP2 PUSH4 0xC340A24 EQ PUSH2 0x3998 JUMPI DUP2 PUSH4 0xC36D897 EQ PUSH2 0x3978 JUMPI DUP2 PUSH4 0xD6AC463 EQ PUSH2 0x3932 JUMPI DUP2 PUSH4 0xDB49656 EQ PUSH2 0x3912 JUMPI DUP2 PUSH4 0xE0A8FD2 EQ PUSH2 0x38EE JUMPI DUP2 PUSH4 0xF1E5E2B EQ PUSH2 0x38A8 JUMPI DUP2 PUSH4 0x13ED7BA5 EQ PUSH2 0x387E JUMPI DUP2 PUSH4 0x14B4906D EQ PUSH2 0x37C3 JUMPI DUP2 PUSH4 0x1867E2F5 EQ PUSH2 0x37A3 JUMPI DUP2 PUSH4 0x1FB0DDA0 EQ PUSH2 0x377A JUMPI DUP2 PUSH4 0x1FE6A7AD EQ PUSH2 0x3740 JUMPI DUP2 PUSH4 0x2069F753 EQ PUSH2 0x371C JUMPI DUP2 PUSH4 0x235E81CF EQ PUSH2 0x352A JUMPI DUP2 PUSH4 0x23B98CDE EQ PUSH2 0x3502 JUMPI DUP2 PUSH4 0x24FFABA3 EQ PUSH2 0x34C5 JUMPI DUP2 PUSH4 0x25BC6C41 EQ PUSH2 0x349B JUMPI DUP2 PUSH4 0x27EAB2A1 EQ PUSH2 0x3455 JUMPI DUP2 PUSH4 0x2A20D57D EQ PUSH2 0x3435 JUMPI DUP2 PUSH4 0x2C43BD3B EQ PUSH2 0x3411 JUMPI DUP2 PUSH4 0x2D88AF4A EQ PUSH2 0x33BA JUMPI DUP2 PUSH4 0x2DED50F0 EQ PUSH2 0x339A JUMPI DUP2 PUSH4 0x2ECCB11C EQ PUSH2 0x32B4 JUMPI DUP2 PUSH4 0x2ED35CA1 EQ PUSH2 0x317D JUMPI DUP2 PUSH4 0x333431FD EQ PUSH2 0x315D JUMPI DUP2 PUSH4 0x33421C38 EQ PUSH2 0x3062 JUMPI DUP2 PUSH4 0x34D70FFA EQ PUSH2 0x2F59 JUMPI DUP2 PUSH4 0x3659CFE6 EQ PUSH2 0x2EBF JUMPI DUP2 PUSH4 0x3915EDCB EQ PUSH2 0x2E8E JUMPI DUP2 PUSH4 0x391BF6CF EQ PUSH2 0x2D76 JUMPI DUP2 PUSH4 0x3BC4AC0A EQ PUSH2 0x2D52 JUMPI DUP2 PUSH4 0x3CFB09EF EQ PUSH2 0x2D0C JUMPI DUP2 PUSH4 0x3F4BA83A EQ PUSH2 0x2C00 JUMPI DUP2 PUSH4 0x4017936A EQ PUSH2 0x2BCF JUMPI DUP2 PUSH4 0x407F0E34 EQ PUSH2 0x2BAF JUMPI DUP2 PUSH4 0x47DDA6AF EQ PUSH2 0x2AFB JUMPI DUP2 PUSH4 0x4AF3A6FC EQ PUSH2 0x2A7C JUMPI DUP2 PUSH4 0x4B746001 EQ PUSH2 0x2A32 JUMPI DUP2 PUSH4 0x4D977E78 EQ PUSH2 0x2A12 JUMPI DUP2 PUSH4 0x4E1F907A EQ PUSH2 0x29E8 JUMPI DUP2 PUSH4 0x4F0F27EE EQ PUSH2 0x29C8 JUMPI DUP2 PUSH4 0x4F1EF286 EQ PUSH2 0x28D8 JUMPI DUP2 PUSH4 0x5210570C EQ PUSH2 0x28B2 JUMPI DUP2 PUSH4 0x52D1902D EQ PUSH2 0x27DD JUMPI DUP2 PUSH4 0x533A4BEA EQ PUSH2 0x27AC JUMPI DUP2 PUSH4 0x53B16D17 EQ PUSH2 0x2767 JUMPI DUP2 PUSH4 0x543AEB48 EQ PUSH2 0x2743 JUMPI DUP2 PUSH4 0x5860EE63 EQ PUSH2 0x2723 JUMPI DUP2 PUSH4 0x58F32DE9 EQ PUSH2 0x26DB JUMPI DUP2 PUSH4 0x5C616A73 EQ PUSH2 0x24E0 JUMPI DUP2 PUSH4 0x5C975ABB EQ PUSH2 0x24B9 JUMPI DUP2 PUSH4 0x5CFBE578 EQ PUSH2 0x2499 JUMPI DUP2 PUSH4 0x60009E0B EQ PUSH2 0x246F JUMPI DUP2 PUSH4 0x60EF07BF EQ PUSH2 0x23BE JUMPI DUP2 PUSH4 0x647846A5 EQ PUSH2 0x2394 JUMPI DUP2 PUSH4 0x64EC230A EQ PUSH2 0x2370 JUMPI DUP2 PUSH4 0x662013F4 EQ PUSH2 0x2353 JUMPI DUP2 PUSH4 0x68274357 EQ PUSH2 0x232A JUMPI DUP2 PUSH4 0x6B5488DF EQ PUSH2 0x230A JUMPI DUP2 PUSH4 0x6F30471F EQ PUSH2 0x22EA JUMPI DUP2 PUSH4 0x70713468 EQ PUSH2 0x22C6 JUMPI DUP2 PUSH4 0x735D3960 EQ PUSH2 0x2280 JUMPI DUP2 PUSH4 0x73E28AF9 EQ PUSH2 0x225C JUMPI DUP2 PUSH4 0x7554FFFD EQ PUSH2 0x223C JUMPI DUP2 PUSH4 0x76228055 EQ PUSH2 0x221C JUMPI DUP2 PUSH4 0x7750BA0C EQ PUSH2 0x21F8 JUMPI DUP2 PUSH4 0x797709CA EQ PUSH2 0x20FF JUMPI DUP2 PUSH4 0x79F9A91C EQ PUSH2 0x20DF JUMPI DUP2 PUSH4 0x7A193C31 EQ PUSH2 0x20BF JUMPI DUP2 PUSH4 0x7A4FF1D9 EQ PUSH2 0x209B JUMPI DUP2 PUSH4 0x7A727FE8 EQ PUSH2 0x207B JUMPI DUP2 PUSH4 0x7AF5758C EQ PUSH2 0x2057 JUMPI DUP2 PUSH4 0x7CBA2383 EQ PUSH2 0x2033 JUMPI DUP2 PUSH4 0x7D8E0314 EQ PUSH2 0x1FF4 JUMPI DUP2 PUSH4 0x7F01C715 EQ PUSH2 0x1FCA JUMPI DUP2 PUSH4 0x7F13B998 EQ PUSH2 0x1F94 JUMPI DUP2 PUSH4 0x7F4A4FE0 EQ PUSH2 0x1F74 JUMPI DUP2 PUSH4 0x826FCD58 EQ PUSH2 0x1F51 JUMPI DUP2 PUSH4 0x8456CB59 EQ PUSH2 0x1EBC JUMPI DUP2 PUSH4 0x85BF9593 EQ PUSH2 0x1E76 JUMPI DUP2 PUSH4 0x883D21CB EQ PUSH2 0x1DB5 JUMPI DUP2 PUSH4 0x8CFA4241 EQ PUSH2 0x1D95 JUMPI DUP2 PUSH4 0x8E2BDB86 EQ PUSH2 0x1D6B JUMPI DUP2 PUSH4 0x8F1A383A EQ PUSH2 0x1D43 JUMPI DUP2 PUSH4 0x938C3E65 EQ PUSH2 0x17D8 JUMPI DUP2 PUSH4 0x9853C35A EQ PUSH2 0x17AE JUMPI DUP2 PUSH4 0x9AD6659D EQ PUSH2 0x1778 JUMPI DUP2 PUSH4 0x9CABFC00 EQ PUSH2 0x172C JUMPI DUP2 PUSH4 0x9FD0506D EQ PUSH2 0x16FF JUMPI DUP2 PUSH4 0xA8E9AC30 EQ PUSH2 0x16DC JUMPI DUP2 PUSH4 0xAD4E666D EQ PUSH2 0x14FC JUMPI DUP2 PUSH4 0xAEA038DC EQ PUSH2 0x14DC JUMPI DUP2 PUSH4 0xB03E11A0 EQ PUSH2 0x13C8 JUMPI DUP2 PUSH4 0xB4434C32 EQ PUSH2 0x120A JUMPI DUP2 PUSH4 0xB5E9EA8C EQ PUSH2 0x11E0 JUMPI DUP2 PUSH4 0xB9FA6413 EQ PUSH2 0x11C0 JUMPI DUP2 PUSH4 0xBB4872DE EQ PUSH2 0x119C JUMPI DUP2 PUSH4 0xBC4E55B2 EQ PUSH2 0x10CE JUMPI DUP2 PUSH4 0xBECACA6B EQ PUSH2 0x10AA JUMPI DUP2 PUSH4 0xBFE42621 EQ PUSH2 0xEAF JUMPI DUP2 PUSH4 0xC00F538D EQ PUSH2 0xE8B JUMPI DUP2 PUSH4 0xC039CC69 EQ PUSH2 0xE49 JUMPI DUP2 PUSH4 0xC84353C9 EQ PUSH2 0xE25 JUMPI DUP2 PUSH4 0xCF351C1D EQ PUSH2 0xDDF JUMPI DUP2 PUSH4 0xD1A0FAA0 EQ PUSH2 0xDC6 JUMPI DUP2 PUSH4 0xD2DC25A5 EQ PUSH2 0xD37 JUMPI DUP2 PUSH4 0xD6AF11DA EQ PUSH2 0xCFB JUMPI DUP2 PUSH4 0xD87AAB6F EQ PUSH2 0xCDB JUMPI DUP2 PUSH4 0xD8C69AEC EQ PUSH2 0xBC5 JUMPI DUP2 PUSH4 0xD8DB6F5A EQ PUSH2 0xB7F JUMPI DUP2 PUSH4 0xDB796072 EQ PUSH2 0xB42 JUMPI DUP2 PUSH4 0xDDB6D190 EQ PUSH2 0xB05 JUMPI DUP2 PUSH4 0xDE8D520A EQ PUSH2 0xAD2 JUMPI DUP2 PUSH4 0xE23C135C EQ PUSH2 0xAB9 JUMPI DUP2 PUSH4 0xE2C5E990 EQ PUSH2 0xA58 JUMPI DUP2 PUSH4 0xE4C0AAF4 EQ PUSH2 0xA13 JUMPI DUP2 PUSH4 0xE6A683E0 EQ PUSH2 0x9CD JUMPI DUP2 PUSH4 0xE6B1627C EQ PUSH2 0x989 JUMPI DUP2 PUSH4 0xE7C25978 EQ PUSH2 0x964 JUMPI DUP2 PUSH4 0xE8859A15 EQ PUSH2 0x947 JUMPI DUP2 PUSH4 0xEE1F438F EQ PUSH2 0x91D JUMPI DUP2 PUSH4 0xEEE20027 EQ PUSH2 0x8F5 JUMPI DUP2 PUSH4 0xF13F4054 EQ PUSH2 0x8CB JUMPI DUP2 PUSH4 0xF26114AA EQ PUSH2 0x866 JUMPI POP DUP1 PUSH4 0xF2808778 EQ PUSH2 0x842 JUMPI DUP1 PUSH4 0xF30B5614 EQ PUSH2 0x823 JUMPI DUP1 PUSH4 0xF375CFBA EQ PUSH2 0x804 JUMPI DUP1 PUSH4 0xF88B1434 EQ PUSH2 0x79B JUMPI DUP1 PUSH4 0xFA6E83BD EQ PUSH2 0x77C JUMPI DUP1 PUSH4 0xFADDA424 EQ PUSH2 0x737 JUMPI DUP1 PUSH4 0xFDA70F8B EQ PUSH2 0x718 JUMPI DUP1 PUSH4 0xFDCDC11E EQ PUSH2 0x627 JUMPI PUSH4 0xFE6B92C1 EQ PUSH2 0x605 JUMPI PUSH1 0x0 DUP1 REVERT JUMPDEST CALLVALUE PUSH2 0x623 JUMPI DUP2 PUSH1 0x3 NOT CALLDATASIZE ADD SLT PUSH2 0x623 JUMPI PUSH1 0x20 SWAP1 PUSH2 0x135 SLOAD SWAP1 MLOAD SWAP1 DUP2 MSTORE RETURN JUMPDEST POP DUP1 REVERT JUMPDEST PUSH2 0x6B6 DUP4 DUP4 PUSH1 0xC4 PUSH2 0x639 CALLDATASIZE PUSH1 0x4 PUSH2 0x3BFD JUMP JUMPDEST PUSH2 0x646 SWAP9 SWAP3 SWAP6 SWAP2 SWAP9 PUSH2 0x4FFE JUMP JUMPDEST PUSH2 0x64E PUSH2 0x580C JUMP JUMPDEST PUSH2 0x658 DUP10 CALLER PUSH2 0x4A4E JUMP JUMPDEST DUP7 MLOAD SWAP5 PUSH2 0x666 PUSH1 0xC0 DUP8 PUSH2 0x3C8B JUMP JUMPDEST PUSH1 0x1 DUP1 PUSH1 0xA0 SHL SUB SWAP2 DUP3 DUP1 SWAP3 AND DUP8 MSTORE DUP2 PUSH1 0x20 SWAP12 DUP13 SWAP8 DUP9 DUP11 ADD MSTORE DUP10 DUP12 DUP11 ADD MSTORE CALLER PUSH1 0x60 DUP11 ADD MSTORE AND PUSH1 0x80 DUP9 ADD MSTORE AND PUSH1 0xA0 DUP7 ADD MSTORE PUSH2 0x14F SLOAD AND SWAP4 DUP7 MLOAD SWAP5 DUP6 SWAP4 DUP5 SWAP3 PUSH4 0x23EC24B5 PUSH1 0xE1 SHL DUP5 MSTORE PUSH1 0x4 DUP5 ADD SWAP1 PUSH2 0x5020 JUMP JUMPDEST CALLVALUE SWAP1 GAS CALL SWAP4 DUP5 ISZERO PUSH2 0x70D JUMPI SWAP4 PUSH2 0x6D7 JUMPI JUMPDEST POP PUSH2 0x6D1 SWAP1 PUSH2 0x4F94 JUMP JUMPDEST MLOAD SWAP1 DUP2 MSTORE RETURN JUMPDEST SWAP1 SWAP3 POP DUP4 DUP2 DUP2 RETURNDATASIZE DUP4 GT PUSH2 0x706 JUMPI JUMPDEST PUSH2 0x6EF DUP2 DUP4 PUSH2 0x3C8B JUMP JUMPDEST DUP2 ADD SUB SLT PUSH2 0x701 JUMPI MLOAD SWAP2 PUSH2 0x6D1 PUSH2 0x6C7 JUMP JUMPDEST PUSH1 0x0 DUP1 REVERT JUMPDEST POP RETURNDATASIZE PUSH2 0x6E5 JUMP JUMPDEST DUP4 MLOAD SWAP1 RETURNDATASIZE SWAP1 DUP3 RETURNDATACOPY RETURNDATASIZE SWAP1 REVERT JUMPDEST POP CALLVALUE PUSH2 0x623 JUMPI DUP2 PUSH1 0x3 NOT CALLDATASIZE ADD SLT PUSH2 0x623 JUMPI PUSH1 0x20 SWAP1 PUSH2 0x13C SLOAD SWAP1 MLOAD SWAP1 DUP2 MSTORE RETURN JUMPDEST POP SWAP1 CALLVALUE PUSH2 0x779 JUMPI PUSH1 0x20 CALLDATASIZE PUSH1 0x3 NOT ADD SLT PUSH2 0x779 JUMPI POP PUSH1 0x4 CALLDATALOAD SWAP1 PUSH1 0x1 PUSH1 0x1 PUSH1 0xA0 SHL SUB DUP3 AND DUP3 SUB PUSH2 0x701 JUMPI PUSH2 0x772 PUSH2 0x76D PUSH1 0x20 SWAP4 PUSH2 0x46EC JUMP JUMPDEST PUSH2 0x4727 JUMP JUMPDEST SWAP1 MLOAD SWAP1 DUP2 MSTORE RETURN JUMPDEST DUP1 REVERT JUMPDEST POP CALLVALUE PUSH2 0x623 JUMPI DUP2 PUSH1 0x3 NOT CALLDATASIZE ADD SLT PUSH2 0x623 JUMPI PUSH1 0x20 SWAP1 PUSH2 0x13A SLOAD SWAP1 MLOAD SWAP1 DUP2 MSTORE RETURN JUMPDEST POP SWAP1 CALLVALUE PUSH2 0x779 JUMPI PUSH1 0x20 CALLDATASIZE PUSH1 0x3 NOT ADD SLT PUSH2 0x779 JUMPI POP PUSH1 0x4 CALLDATALOAD SWAP1 PUSH1 0x1 PUSH1 0x1 PUSH1 0xA0 SHL SUB DUP3 AND DUP3 SUB PUSH2 0x701 JUMPI PUSH2 0x772 PUSH2 0x7F6 PUSH1 0x20 SWAP4 PUSH2 0x7DF PUSH2 0x7D7 PUSH2 0x4E3D JUMP JUMPDEST SWAP2 SWAP1 SWAP3 PUSH2 0x46EC JUMP JUMPDEST SWAP2 PUSH2 0x7FE PUSH2 0x7ED DUP5 DUP5 PUSH2 0x43EB JUMP JUMPDEST MLOAD SWAP5 DUP6 SWAP4 PUSH2 0x43FF JUMP JUMPDEST SWAP6 SWAP1 SWAP5 PUSH2 0x4D9A JUMP JUMPDEST SWAP1 PUSH2 0x4C97 JUMP JUMPDEST POP CALLVALUE PUSH2 0x623 JUMPI DUP2 PUSH1 0x3 NOT CALLDATASIZE ADD SLT PUSH2 0x623 JUMPI PUSH1 0x20 SWAP1 PUSH2 0x141 SLOAD SWAP1 MLOAD SWAP1 DUP2 MSTORE RETURN JUMPDEST POP CALLVALUE PUSH2 0x623 JUMPI DUP2 PUSH1 0x3 NOT CALLDATASIZE ADD SLT PUSH2 0x623 JUMPI PUSH1 0x20 SWAP1 PUSH2 0x131 SLOAD SWAP1 MLOAD SWAP1 DUP2 MSTORE RETURN JUMPDEST DUP3 CALLVALUE PUSH2 0x779 JUMPI PUSH1 0x20 CALLDATASIZE PUSH1 0x3 NOT ADD SLT PUSH2 0x779 JUMPI PUSH2 0x85C PUSH2 0x577E JUMP JUMPDEST PUSH1 0x4 CALLDATALOAD PUSH2 0x13C SSTORE DUP1 RETURN JUMPDEST SWAP1 POP CALLVALUE PUSH2 0x8C7 JUMPI CALLDATASIZE PUSH1 0x3 NOT ADD SLT PUSH2 0x623 JUMPI PUSH2 0x8C3 SWAP1 PUSH2 0x883 PUSH2 0x577E JUMP JUMPDEST MLOAD PUSH4 0x79308A55 PUSH1 0xE1 SHL PUSH1 0x20 DUP3 ADD MSTORE PUSH2 0x8B1 DUP2 PUSH2 0x8A3 PUSH1 0x4 PUSH1 0x24 DUP4 ADD PUSH2 0x4BA3 JUMP JUMPDEST SUB PUSH1 0x1F NOT DUP2 ADD DUP4 MSTORE DUP3 PUSH2 0x3C8B JUMP JUMPDEST PUSH2 0x1F6 SLOAD PUSH1 0x1 PUSH1 0x1 PUSH1 0xA0 SHL SUB AND PUSH2 0x4A2C JUMP JUMPDEST POP DUP1 RETURN JUMPDEST DUP3 DUP1 REVERT JUMPDEST POP POP CALLVALUE PUSH2 0x623 JUMPI DUP2 PUSH1 0x3 NOT CALLDATASIZE ADD SLT PUSH2 0x623 JUMPI PUSH2 0x130 SLOAD SWAP1 MLOAD PUSH1 0x1 PUSH1 0x1 PUSH1 0xA0 SHL SUB SWAP1 SWAP2 AND DUP2 MSTORE PUSH1 0x20 SWAP1 RETURN JUMPDEST POP POP CALLVALUE PUSH2 0x623 JUMPI DUP2 PUSH1 0x3 NOT CALLDATASIZE ADD SLT PUSH2 0x623 JUMPI PUSH1 0x20 SWAP1 PUSH1 0xFF PUSH2 0x14B SLOAD PUSH1 0x10 SHR AND SWAP1 MLOAD SWAP1 ISZERO ISZERO DUP2 MSTORE RETURN JUMPDEST POP POP CALLVALUE PUSH2 0x623 JUMPI DUP2 PUSH1 0x3 NOT CALLDATASIZE ADD SLT PUSH2 0x623 JUMPI PUSH2 0x152 SLOAD SWAP1 MLOAD PUSH1 0x1 PUSH1 0x1 PUSH1 0xA0 SHL SUB SWAP1 SWAP2 AND DUP2 MSTORE PUSH1 0x20 SWAP1 RETURN JUMPDEST POP POP CALLVALUE PUSH2 0x623 JUMPI DUP2 PUSH1 0x3 NOT CALLDATASIZE ADD SLT PUSH2 0x623 JUMPI PUSH1 0x20 SWAP1 PUSH2 0x772 PUSH2 0x4D5D JUMP JUMPDEST POP POP CALLVALUE PUSH2 0x623 JUMPI DUP2 PUSH1 0x3 NOT CALLDATASIZE ADD SLT PUSH2 0x623 JUMPI PUSH1 0x20 SWAP1 PUSH1 0xFF PUSH2 0x14B SLOAD AND SWAP1 MLOAD SWAP1 ISZERO ISZERO DUP2 MSTORE RETURN JUMPDEST POP POP CALLVALUE PUSH2 0x623 JUMPI PUSH1 0x20 CALLDATASIZE PUSH1 0x3 NOT ADD SLT PUSH2 0x623 JUMPI PUSH1 0x4 CALLDATALOAD PUSH2 0x18E DUP1 SLOAD DUP3 LT ISZERO PUSH2 0x9C9 JUMPI SWAP1 PUSH2 0x9B5 SWAP2 PUSH2 0x3C6F JUMP JUMPDEST POP PUSH1 0x1 DUP2 SLOAD SWAP2 ADD SLOAD DUP3 MLOAD SWAP2 DUP3 MSTORE PUSH1 0x20 DUP3 ADD MSTORE RETURN JUMPDEST DUP4 DUP1 REVERT JUMPDEST DUP4 CALLVALUE PUSH2 0x779 JUMPI PUSH1 0x20 CALLDATASIZE PUSH1 0x3 NOT ADD SLT PUSH2 0x779 JUMPI PUSH1 0x4 CALLDATALOAD PUSH1 0x1 PUSH1 0x1 PUSH1 0xA0 SHL SUB DUP2 AND SWAP1 DUP2 SWAP1 SUB PUSH2 0x701 JUMPI PUSH2 0x9FC PUSH2 0x577E JUMP JUMPDEST PUSH2 0x1F6 DUP1 SLOAD PUSH1 0x1 PUSH1 0x1 PUSH1 0xA0 SHL SUB NOT AND SWAP1 SWAP2 OR SWAP1 SSTORE DUP1 RETURN JUMPDEST DUP4 CALLVALUE PUSH2 0x779 JUMPI PUSH1 0x20 CALLDATASIZE PUSH1 0x3 NOT ADD SLT PUSH2 0x779 JUMPI PUSH1 0x4 CALLDATALOAD PUSH1 0x1 PUSH1 0x1 PUSH1 0xA0 SHL SUB DUP2 AND SWAP1 DUP2 SWAP1 SUB PUSH2 0x623 JUMPI PUSH2 0xA42 PUSH2 0x577E JUMP JUMPDEST PUSH1 0x1 PUSH1 0x1 PUSH1 0x60 SHL SUB PUSH1 0xA0 SHL PUSH1 0x97 SLOAD AND OR PUSH1 0x97 SSTORE DUP1 RETURN JUMPDEST DUP3 DUP5 CALLVALUE PUSH2 0x779 JUMPI PUSH1 0x60 CALLDATASIZE PUSH1 0x3 NOT ADD SLT PUSH2 0x779 JUMPI PUSH1 0x1 PUSH1 0x1 PUSH1 0xA0 SHL SUB PUSH1 0x4 CALLDATALOAD DUP2 DUP2 AND DUP2 SUB PUSH2 0x701 JUMPI PUSH1 0x24 CALLDATALOAD SWAP2 DUP1 DUP4 AND DUP4 SUB PUSH2 0x9C9 JUMPI PUSH2 0x14F SLOAD AND CALLER SUB PUSH2 0xAA8 JUMPI SWAP1 PUSH2 0xAA5 SWAP2 PUSH1 0x44 CALLDATALOAD SWAP2 PUSH2 0x5745 JUMP JUMPDEST DUP1 RETURN JUMPDEST DUP4 MLOAD PUSH4 0x19748477 PUSH1 0xE0 SHL DUP2 MSTORE PUSH1 0x4 SWAP1 REVERT JUMPDEST DUP4 CALLVALUE PUSH2 0x779 JUMPI DUP1 PUSH1 0x3 NOT CALLDATASIZE ADD SLT PUSH2 0x779 JUMPI PUSH2 0xAA5 PUSH2 0x4326 JUMP JUMPDEST POP POP CALLVALUE PUSH2 0x623 JUMPI DUP2 PUSH1 0x3 NOT CALLDATASIZE ADD SLT PUSH2 0x623 JUMPI PUSH1 0x20 SWAP1 PUSH2 0x772 PUSH2 0xAFA PUSH2 0xAF5 PUSH2 0x47EE JUMP JUMPDEST PUSH2 0x43FF JUMP JUMPDEST SWAP1 POP PUSH2 0x131 SLOAD PUSH2 0x4303 JUMP JUMPDEST POP POP CALLVALUE PUSH2 0x623 JUMPI PUSH1 0x20 CALLDATASIZE PUSH1 0x3 NOT ADD SLT PUSH2 0x623 JUMPI PUSH1 0x4 CALLDATALOAD PUSH1 0x1 PUSH1 0x1 PUSH1 0xA0 SHL SUB DUP2 AND SWAP1 DUP2 SWAP1 SUB PUSH2 0x701 JUMPI DUP3 DUP3 SWAP2 PUSH1 0x20 SWAP5 MSTORE PUSH2 0x145 DUP5 MSTORE KECCAK256 SLOAD SWAP1 MLOAD SWAP1 DUP2 MSTORE RETURN JUMPDEST SWAP1 POP CALLVALUE PUSH2 0x8C7 JUMPI CALLDATASIZE PUSH1 0x3 NOT ADD SLT PUSH2 0x623 JUMPI PUSH2 0x8C3 SWAP1 PUSH2 0xB5F PUSH2 0x577E JUMP JUMPDEST MLOAD PUSH4 0x6DBCB039 PUSH1 0xE1 SHL PUSH1 0x20 DUP3 ADD MSTORE PUSH2 0x8B1 DUP2 PUSH2 0x8A3 PUSH1 0x4 PUSH1 0x24 DUP4 ADD PUSH2 0x4BA3 JUMP JUMPDEST DUP4 CALLVALUE PUSH2 0x779 JUMPI PUSH1 0x20 CALLDATASIZE PUSH1 0x3 NOT ADD SLT PUSH2 0x779 JUMPI PUSH1 0x4 CALLDATALOAD PUSH1 0x1 PUSH1 0x1 PUSH1 0xA0 SHL SUB DUP2 AND SWAP1 DUP2 SWAP1 SUB PUSH2 0x701 JUMPI PUSH2 0xBAE PUSH2 0x577E JUMP JUMPDEST PUSH2 0x152 DUP1 SLOAD PUSH1 0x1 PUSH1 0x1 PUSH1 0xA0 SHL SUB NOT AND SWAP1 SWAP2 OR SWAP1 SSTORE DUP1 RETURN JUMPDEST DUP4 SWAP2 POP CALLVALUE PUSH2 0x623 JUMPI CALLDATASIZE PUSH1 0x3 NOT ADD SLT PUSH2 0x779 JUMPI POP PUSH2 0xBE0 PUSH2 0x5119 JUMP JUMPDEST POP PUSH2 0x14F SLOAD PUSH1 0x1 PUSH1 0x1 PUSH1 0xA0 SHL SUB SWAP2 SWAP1 DUP3 AND CALLER SUB PUSH2 0xCCB JUMPI PUSH2 0xC90 SWAP2 PUSH2 0xC06 CALLDATASIZE PUSH1 0x4 PUSH2 0x56D2 JUMP JUMPDEST SWAP2 PUSH2 0xC0F PUSH2 0x5119 JUMP JUMPDEST POP PUSH2 0xC18 PUSH2 0x4FFE JUMP JUMPDEST PUSH2 0xC20 PUSH2 0x580C JUMP JUMPDEST PUSH2 0xC6C PUSH2 0xC5D DUP3 MLOAD PUSH4 0x3DAD0BD7 PUSH1 0xE1 SHL PUSH1 0x20 DUP3 ADD MSTORE PUSH2 0xC42 PUSH1 0x24 DUP3 ADD DUP8 PUSH2 0x50C9 JUMP JUMPDEST PUSH1 0xE4 DUP2 MSTORE PUSH2 0xC52 PUSH2 0x104 DUP3 PUSH2 0x3C8B JUMP JUMPDEST DUP5 PUSH2 0x1F6 SLOAD AND PUSH2 0x4A2C JUMP JUMPDEST PUSH1 0x20 DUP1 DUP3 MLOAD DUP4 ADD ADD SWAP2 ADD PUSH2 0x5677 JUMP JUMPDEST DUP7 DUP5 DUP8 PUSH1 0x80 DUP5 SWAP9 SWAP7 SWAP12 SWAP6 SWAP8 SWAP11 ADD MLOAD AND SWAP2 DUP9 PUSH1 0xC0 DUP2 PUSH1 0xA0 DUP5 ADD MLOAD AND SWAP3 ADD MLOAD AND SWAP3 PUSH2 0x5483 JUMP JUMPDEST PUSH1 0x4 CALLDATALOAD SWAP4 DUP1 DUP6 AND DUP1 SWAP6 SUB PUSH2 0x701 JUMPI PUSH1 0x84 CALLDATALOAD SWAP1 DUP2 AND DUP2 SUB PUSH2 0x701 JUMPI PUSH2 0xCC7 SWAP5 PUSH2 0xCBD SWAP2 DUP9 PUSH1 0x44 CALLDATALOAD SUB SWAP2 PUSH2 0x5745 JUMP JUMPDEST MLOAD SWAP5 DUP6 SWAP5 DUP6 PUSH2 0x3C2F JUMP JUMPDEST SUB SWAP1 RETURN JUMPDEST MLOAD PUSH4 0x19748477 PUSH1 0xE0 SHL DUP2 MSTORE PUSH1 0x4 SWAP1 REVERT JUMPDEST POP POP CALLVALUE PUSH2 0x623 JUMPI DUP2 PUSH1 0x3 NOT CALLDATASIZE ADD SLT PUSH2 0x623 JUMPI PUSH1 0x20 SWAP1 PUSH2 0x155 SLOAD SWAP1 MLOAD SWAP1 DUP2 MSTORE RETURN JUMPDEST POP POP CALLVALUE PUSH2 0x623 JUMPI DUP2 PUSH1 0x3 NOT CALLDATASIZE ADD SLT PUSH2 0x623 JUMPI PUSH1 0x20 SWAP1 PUSH2 0x772 PUSH2 0xD1D PUSH1 0x1 PUSH2 0x4828 JUMP JUMPDEST PUSH2 0xD31 PUSH2 0xD2A DUP3 DUP5 PUSH2 0x4543 JUMP JUMPDEST SWAP2 DUP4 PUSH2 0x448D JUMP JUMPDEST SWAP2 PUSH2 0x486F JUMP JUMPDEST PUSH2 0x6B6 DUP5 DUP5 PUSH1 0xC4 PUSH2 0xD49 CALLDATASIZE PUSH1 0x4 PUSH2 0x3BFD JUMP JUMPDEST PUSH2 0xD56 SWAP9 SWAP3 SWAP6 SWAP2 SWAP9 PUSH2 0x4FFE JUMP JUMPDEST PUSH2 0xD5E PUSH2 0x580C JUMP JUMPDEST PUSH2 0xD68 DUP10 CALLER PUSH2 0x4A4E JUMP JUMPDEST DUP7 MLOAD SWAP5 PUSH2 0xD76 PUSH1 0xC0 DUP8 PUSH2 0x3C8B JUMP JUMPDEST PUSH1 0x1 DUP1 PUSH1 0xA0 SHL SUB SWAP2 DUP3 DUP1 SWAP3 AND DUP8 MSTORE DUP2 PUSH1 0x20 SWAP12 DUP13 SWAP8 DUP9 DUP11 ADD MSTORE DUP10 DUP12 DUP11 ADD MSTORE CALLER PUSH1 0x60 DUP11 ADD MSTORE AND PUSH1 0x80 DUP9 ADD MSTORE AND PUSH1 0xA0 DUP7 ADD MSTORE PUSH2 0x14F SLOAD AND SWAP4 DUP7 MLOAD SWAP5 DUP6 SWAP4 DUP5 SWAP3 PUSH4 0x7E81A821 PUSH1 0xE0 SHL DUP5 MSTORE PUSH1 0x4 DUP5 ADD SWAP1 PUSH2 0x5020 JUMP JUMPDEST DUP4 CALLVALUE PUSH2 0x779 JUMPI DUP1 PUSH1 0x3 NOT CALLDATASIZE ADD SLT PUSH2 0x779 JUMPI PUSH2 0xAA5 PUSH2 0x4F00 JUMP JUMPDEST DUP4 CALLVALUE PUSH2 0x779 JUMPI PUSH1 0x20 CALLDATASIZE PUSH1 0x3 NOT ADD SLT PUSH2 0x779 JUMPI PUSH1 0x4 CALLDATALOAD PUSH1 0x1 PUSH1 0x1 PUSH1 0xA0 SHL SUB DUP2 AND SWAP1 DUP2 SWAP1 SUB PUSH2 0x701 JUMPI PUSH2 0xE0E PUSH2 0x577E JUMP JUMPDEST PUSH2 0x12F DUP1 SLOAD PUSH1 0x1 PUSH1 0x1 PUSH1 0xA0 SHL SUB NOT AND SWAP1 SWAP2 OR SWAP1 SSTORE DUP1 RETURN JUMPDEST DUP4 CALLVALUE PUSH2 0x779 JUMPI PUSH1 0x20 CALLDATASIZE PUSH1 0x3 NOT ADD SLT PUSH2 0x779 JUMPI PUSH2 0xE3F PUSH2 0x577E JUMP JUMPDEST PUSH1 0x4 CALLDATALOAD PUSH2 0x14C SSTORE DUP1 RETURN JUMPDEST POP POP CALLVALUE PUSH2 0x623 JUMPI DUP2 PUSH1 0x3 NOT CALLDATASIZE ADD SLT PUSH2 0x623 JUMPI PUSH1 0x20 SWAP1 PUSH2 0x772 PUSH2 0xE7E PUSH2 0xE85 PUSH2 0xE72 PUSH2 0xAF5 PUSH2 0x47EE JUMP JUMPDEST PUSH2 0x131 SWAP4 SWAP2 SWAP4 SLOAD PUSH2 0x4303 JUMP JUMPDEST SWAP2 DUP3 PUSH2 0x4303 JUMP JUMPDEST SWAP1 PUSH2 0x582D JUMP JUMPDEST DUP4 CALLVALUE PUSH2 0x779 JUMPI PUSH1 0x20 CALLDATASIZE PUSH1 0x3 NOT ADD SLT PUSH2 0x779 JUMPI PUSH2 0xEA5 PUSH2 0x577E JUMP JUMPDEST PUSH1 0x4 CALLDATALOAD PUSH2 0x13D SSTORE DUP1 RETURN JUMPDEST DUP3 DUP5 CALLVALUE PUSH2 0x779 JUMPI PUSH1 0xA0 CALLDATASIZE PUSH1 0x3 NOT ADD SLT PUSH2 0x779 JUMPI PUSH2 0xECA PUSH2 0x5119 JUMP JUMPDEST POP PUSH2 0x14F SLOAD PUSH1 0x1 PUSH1 0x1 PUSH1 0xA0 SHL SUB SWAP1 DUP2 AND CALLER SUB PUSH2 0x1099 JUMPI PUSH2 0xEEB CALLDATASIZE PUSH1 0x4 PUSH2 0x5140 JUMP JUMPDEST SWAP2 PUSH2 0xEF4 PUSH2 0x5119 JUMP JUMPDEST POP PUSH2 0xEFD PUSH2 0x4FFE JUMP JUMPDEST PUSH2 0xF05 PUSH2 0x580C JUMP JUMPDEST PUSH2 0xF0D PUSH2 0x4F00 JUMP JUMPDEST PUSH2 0xF20 PUSH2 0xF18 PUSH2 0x4E3D JUMP JUMPDEST DUP2 SWAP3 SWAP2 PUSH2 0x519D JUMP JUMPDEST SWAP1 SWAP2 PUSH2 0xF2F DUP3 DUP5 DUP9 MLOAD SWAP4 PUSH2 0x4C38 JUMP JUMPDEST DUP2 DUP2 LT PUSH2 0x107C JUMPI POP POP PUSH8 0xDE0B6B3A7640000 SWAP2 PUSH2 0xF51 PUSH2 0xF57 SWAP3 DUP8 MLOAD SWAP3 PUSH2 0x4C04 JUMP JUMPDEST SWAP1 PUSH2 0x4510 JUMP JUMPDEST DIV SWAP2 DUP3 ISZERO PUSH2 0x106B JUMPI SWAP4 DUP4 SWAP5 DUP2 PUSH2 0xF90 SWAP6 ADD SWAP1 DUP1 DUP3 MLOAD AND SWAP2 PUSH2 0xF85 PUSH1 0x80 DUP10 ADD SWAP4 DUP8 DUP5 DUP7 MLOAD AND PUSH2 0x13D SLOAD SWAP3 PUSH2 0x51E0 JUMP JUMPDEST SWAP7 SWAP2 DUP9 SWAP10 SWAP2 SWAP10 PUSH2 0x4303 JUMP JUMPDEST SWAP7 PUSH1 0x20 DUP11 ADD MLOAD DUP1 DUP10 LT PUSH2 0x104E JUMPI POP DUP10 MLOAD SWAP1 PUSH2 0x134 PUSH2 0xFAF DUP4 DUP3 SLOAD PUSH2 0x4303 JUMP JUMPDEST SWAP1 SSTORE PUSH2 0xFBF PUSH2 0x131 SWAP2 DUP3 SLOAD PUSH2 0x4303 JUMP JUMPDEST SWAP1 SSTORE DUP4 PUSH2 0x133 SLOAD AND SWAP1 DUP2 EXTCODESIZE ISZERO PUSH2 0x8C7 JUMPI DUP7 MLOAD PUSH4 0x2770A7EB PUSH1 0xE2 SHL DUP2 MSTORE ADDRESS PUSH1 0x4 DUP3 ADD MSTORE PUSH1 0x24 DUP2 ADD SWAP2 SWAP1 SWAP2 MSTORE SWAP1 DUP3 SWAP1 DUP3 SWAP1 PUSH1 0x44 SWAP1 DUP3 SWAP1 DUP5 SWAP1 GAS CALL DUP1 ISZERO PUSH2 0x1044 JUMPI PUSH2 0x102F JUMPI JUMPDEST POP POP SWAP7 DUP6 PUSH2 0x1025 SWAP4 DUP4 DUP1 PUSH1 0x60 DUP10 SWAP7 PUSH2 0xCC7 SWAP12 SWAP13 SWAP14 MLOAD AND SWAP6 ADD MLOAD AND SWAP2 MLOAD AND SWAP3 PUSH2 0x5483 JUMP JUMPDEST MLOAD SWAP4 DUP5 SWAP4 DUP5 PUSH2 0x3BBF JUMP JUMPDEST PUSH2 0x103A DUP3 DUP1 SWAP3 PUSH2 0x3C8B JUMP JUMPDEST PUSH2 0x779 JUMPI DUP1 PUSH2 0x1002 JUMP JUMPDEST DUP7 MLOAD RETURNDATASIZE DUP5 DUP3 RETURNDATACOPY RETURNDATASIZE SWAP1 REVERT JUMPDEST PUSH1 0x44 SWAP1 DUP10 DUP9 MLOAD SWAP2 PUSH4 0x54CDE313 PUSH1 0xE0 SHL DUP4 MSTORE PUSH1 0x4 DUP4 ADD MSTORE PUSH1 0x24 DUP3 ADD MSTORE REVERT JUMPDEST DUP5 MLOAD PUSH4 0xF3E39B5D PUSH1 0xE0 SHL DUP2 MSTORE PUSH1 0x4 SWAP1 REVERT JUMPDEST PUSH1 0x44 SWAP3 POP DUP8 MLOAD SWAP2 PUSH4 0xA5DB715D PUSH1 0xE0 SHL DUP4 MSTORE PUSH1 0x4 DUP4 ADD MSTORE PUSH1 0x24 DUP3 ADD MSTORE REVERT JUMPDEST DUP3 MLOAD PUSH4 0x19748477 PUSH1 0xE0 SHL DUP2 MSTORE PUSH1 0x4 SWAP1 REVERT JUMPDEST DUP4 CALLVALUE PUSH2 0x779 JUMPI PUSH1 0x20 CALLDATASIZE PUSH1 0x3 NOT ADD SLT PUSH2 0x779 JUMPI PUSH2 0x10C4 PUSH2 0x577E JUMP JUMPDEST PUSH1 0x4 CALLDATALOAD PUSH2 0x139 SSTORE DUP1 RETURN JUMPDEST DUP4 SWAP2 POP CALLVALUE PUSH2 0x623 JUMPI CALLDATASIZE PUSH1 0x3 NOT ADD SLT PUSH2 0x779 JUMPI POP PUSH2 0x10E9 PUSH2 0x5119 JUMP JUMPDEST POP PUSH2 0x14F SLOAD PUSH1 0x1 PUSH1 0x1 PUSH1 0xA0 SHL SUB SWAP1 DUP2 AND CALLER SUB PUSH2 0x118B JUMPI PUSH2 0xCC7 PUSH2 0xCBD SWAP2 PUSH2 0x1111 CALLDATASIZE PUSH1 0x4 PUSH2 0x56D2 JUMP JUMPDEST SWAP4 PUSH2 0x111A PUSH2 0x5119 JUMP JUMPDEST POP PUSH2 0x1123 PUSH2 0x4FFE JUMP JUMPDEST PUSH2 0x112B PUSH2 0x580C JUMP JUMPDEST PUSH2 0x114D PUSH2 0xC5D DUP3 MLOAD PUSH4 0xF5571E01 PUSH1 0xE0 SHL PUSH1 0x20 DUP3 ADD MSTORE PUSH2 0xC42 PUSH1 0x24 DUP3 ADD DUP10 PUSH2 0x50C9 JUMP JUMPDEST SWAP5 DUP9 PUSH1 0x60 DUP8 SWAP4 SWAP7 SWAP6 SWAP10 SWAP5 SWAP11 ADD SWAP2 DUP3 MLOAD PUSH2 0x116A PUSH2 0x14E SWAP2 DUP3 SLOAD PUSH2 0x4303 JUMP JUMPDEST SWAP1 SSTORE PUSH1 0xC0 PUSH2 0x1180 DUP12 DUP4 PUSH1 0x80 DUP7 ADD MLOAD AND SWAP6 MLOAD PUSH2 0x4303 JUMP JUMPDEST SWAP3 ADD MLOAD AND SWAP2 DUP1 PUSH2 0x5483 JUMP JUMPDEST DUP2 MLOAD PUSH4 0x19748477 PUSH1 0xE0 SHL DUP2 MSTORE PUSH1 0x4 SWAP1 REVERT JUMPDEST POP POP CALLVALUE PUSH2 0x623 JUMPI DUP2 PUSH1 0x3 NOT CALLDATASIZE ADD SLT PUSH2 0x623 JUMPI PUSH1 0x20 SWAP1 PUSH1 0xFF PUSH1 0xCA SLOAD AND SWAP1 MLOAD SWAP1 ISZERO ISZERO DUP2 MSTORE RETURN JUMPDEST POP POP CALLVALUE PUSH2 0x623 JUMPI DUP2 PUSH1 0x3 NOT CALLDATASIZE ADD SLT PUSH2 0x623 JUMPI PUSH1 0x20 SWAP1 PUSH2 0x15B SLOAD SWAP1 MLOAD SWAP1 DUP2 MSTORE RETURN JUMPDEST POP POP CALLVALUE PUSH2 0x623 JUMPI DUP2 PUSH1 0x3 NOT CALLDATASIZE ADD SLT PUSH2 0x623 JUMPI PUSH2 0x153 SLOAD SWAP1 MLOAD PUSH1 0x1 PUSH1 0x1 PUSH1 0xA0 SHL SUB SWAP1 SWAP2 AND DUP2 MSTORE PUSH1 0x20 SWAP1 RETURN JUMPDEST DUP3 DUP5 CALLVALUE PUSH2 0x779 JUMPI PUSH1 0xC0 CALLDATASIZE PUSH1 0x3 NOT ADD SLT PUSH2 0x779 JUMPI PUSH2 0x1225 PUSH2 0x5119 JUMP JUMPDEST POP PUSH2 0x14F SLOAD PUSH1 0x1 PUSH1 0x1 PUSH1 0xA0 SHL SUB SWAP3 SWAP1 DUP4 AND CALLER SUB PUSH2 0xCCB JUMPI PUSH2 0x12BF PUSH2 0x124A CALLDATASIZE PUSH1 0x4 PUSH2 0x553C JUMP JUMPDEST SWAP2 PUSH2 0x1253 PUSH2 0x5119 JUMP JUMPDEST POP PUSH2 0x125C PUSH2 0x4FFE JUMP JUMPDEST PUSH2 0x1264 PUSH2 0x580C JUMP JUMPDEST PUSH2 0x126C PUSH2 0x4F00 JUMP JUMPDEST PUSH2 0x1274 PUSH2 0x4E3D JUMP JUMPDEST PUSH2 0x1283 DUP8 DUP7 SWAP6 SWAP4 SWAP6 MLOAD AND PUSH2 0x46EC JUMP JUMPDEST SWAP4 PUSH2 0x12A3 PUSH2 0x1291 DUP7 DUP5 PUSH2 0x43EB JUMP JUMPDEST MLOAD SWAP3 PUSH2 0x129D DUP5 DUP9 PUSH2 0x4B52 JUMP JUMPDEST DUP3 PUSH2 0x519D JUMP JUMPDEST PUSH1 0x20 DUP9 SWAP6 SWAP3 SWAP6 ADD SWAP5 DUP5 DUP7 MLOAD SWAP5 PUSH2 0x12B9 DUP3 DUP12 PUSH2 0x4D9A JUMP JUMPDEST SWAP1 PUSH2 0x55A5 JUMP JUMPDEST DUP2 DUP2 LT PUSH2 0x13AB JUMPI POP POP SWAP5 DUP1 SWAP7 PUSH2 0x12D9 PUSH2 0x1311 SWAP8 DUP5 MLOAD PUSH2 0x582D JUMP JUMPDEST SWAP5 PUSH1 0x60 DUP8 ADD SWAP1 PUSH2 0x1306 DUP4 DUP4 MLOAD AND DUP9 DUP11 DUP10 PUSH1 0xA0 DUP3 ADD SWAP9 DUP9 DUP1 DUP12 MLOAD AND SWAP4 MLOAD AND DUP2 MSTORE PUSH2 0x144 PUSH1 0x20 MSTORE KECCAK256 SLOAD SWAP3 PUSH2 0x51E0 JUMP JUMPDEST SWAP9 SWAP2 DUP3 SWAP12 SWAP2 SWAP12 PUSH2 0x43DE JUMP JUMPDEST SWAP9 DUP8 DUP2 ADD SWAP7 DUP8 MLOAD DUP1 DUP13 GT PUSH2 0x138E JUMPI POP DUP11 ISZERO PUSH2 0x137D JUMPI SWAP5 DUP10 SWAP7 SWAP5 PUSH2 0x1358 DUP3 SWAP6 DUP14 SWAP15 SWAP16 SWAP6 PUSH2 0xCC7 SWAP15 SWAP6 DUP6 PUSH1 0x80 PUSH2 0x1025 SWAP15 SWAP13 PUSH2 0x134D PUSH2 0x1373 SWAP12 DUP7 PUSH2 0x55BD JUMP JUMPDEST MLOAD SWAP3 ADD MLOAD AND SWAP3 PUSH2 0x4A92 JUMP JUMPDEST DUP7 MLOAD PUSH2 0x1368 PUSH2 0x14E SWAP2 DUP3 SLOAD PUSH2 0x4303 JUMP JUMPDEST SWAP1 SSTORE MLOAD AND SWAP5 MLOAD PUSH2 0x4303 JUMP JUMPDEST SWAP2 MLOAD AND SWAP2 DUP1 PUSH2 0x5483 JUMP JUMPDEST DUP9 MLOAD PUSH4 0xF3E39B5D PUSH1 0xE0 SHL DUP2 MSTORE PUSH1 0x4 SWAP1 REVERT JUMPDEST PUSH1 0x44 SWAP1 DUP13 DUP12 MLOAD SWAP2 PUSH4 0xB63F1A7 PUSH1 0xE0 SHL DUP4 MSTORE PUSH1 0x4 DUP4 ADD MSTORE PUSH1 0x24 DUP3 ADD MSTORE REVERT JUMPDEST PUSH1 0x44 SWAP3 POP DUP5 MLOAD SWAP2 PUSH4 0xC39B739F PUSH1 0xE0 SHL DUP4 MSTORE PUSH1 0x4 DUP4 ADD MSTORE PUSH1 0x24 DUP3 ADD MSTORE REVERT JUMPDEST DUP3 DUP5 PUSH2 0x13D5 CALLDATASIZE PUSH1 0x4 PUSH2 0x3CDF JUMP JUMPDEST SWAP1 PUSH2 0x13E2 SWAP6 SWAP4 SWAP3 SWAP6 PUSH2 0x4FFE JUMP JUMPDEST PUSH2 0x13EA PUSH2 0x580C JUMP JUMPDEST PUSH2 0x13F4 DUP2 CALLER PUSH2 0x4A4E JUMP JUMPDEST DUP4 MLOAD SWAP1 PUSH2 0x1402 PUSH1 0xA0 DUP4 PUSH2 0x3C8B JUMP JUMPDEST DUP4 DUP3 MSTORE PUSH1 0x20 DUP1 DUP4 ADD SWAP8 DUP9 MSTORE CALLER DUP7 DUP5 ADD MSTORE PUSH1 0x1 PUSH1 0x1 PUSH1 0xA0 SHL SUB SWAP2 DUP3 AND PUSH1 0x60 DUP5 ADD SWAP1 DUP2 MSTORE SWAP4 DUP3 AND PUSH1 0x80 DUP5 ADD SWAP1 DUP2 MSTORE PUSH2 0x14F SLOAD DUP8 MLOAD PUSH4 0xFA91A9A5 PUSH1 0xE0 SHL DUP2 MSTORE DUP6 MLOAD PUSH1 0x4 DUP3 ADD MSTORE SWAP10 MLOAD PUSH1 0x24 DUP12 ADD MSTORE PUSH1 0x40 SWAP1 SWAP5 ADD MLOAD DUP4 AND PUSH1 0x44 DUP11 ADD MSTORE SWAP4 MLOAD DUP3 AND PUSH1 0x64 DUP10 ADD MSTORE SWAP3 MLOAD DUP2 AND PUSH1 0x84 DUP9 ADD MSTORE SWAP2 SWAP6 SWAP1 DUP7 SWAP1 DUP3 SWAP1 PUSH1 0xA4 SWAP1 DUP3 SWAP1 DUP7 AND CALLVALUE SWAP1 GAS CALL SWAP5 DUP6 ISZERO PUSH2 0x14D1 JUMPI SWAP5 PUSH2 0x149E JUMPI JUMPDEST POP SWAP1 PUSH2 0x6D1 SWAP2 PUSH2 0x133 SLOAD AND ADDRESS SWAP1 CALLER SWAP1 PUSH2 0x4FBA JUMP JUMPDEST SWAP2 SWAP1 SWAP4 POP DUP5 DUP3 DUP2 RETURNDATASIZE DUP4 GT PUSH2 0x14CA JUMPI JUMPDEST PUSH2 0x14B7 DUP2 DUP4 PUSH2 0x3C8B JUMP JUMPDEST DUP2 ADD SUB SLT PUSH2 0x701 JUMPI SWAP1 MLOAD SWAP3 PUSH2 0x6D1 PUSH2 0x148A JUMP JUMPDEST POP RETURNDATASIZE PUSH2 0x14AD JUMP JUMPDEST DUP5 MLOAD SWAP1 RETURNDATASIZE SWAP1 DUP3 RETURNDATACOPY RETURNDATASIZE SWAP1 REVERT JUMPDEST POP POP CALLVALUE PUSH2 0x623 JUMPI DUP2 PUSH1 0x3 NOT CALLDATASIZE ADD SLT PUSH2 0x623 JUMPI PUSH1 0x20 SWAP1 PUSH2 0x13D SLOAD SWAP1 MLOAD SWAP1 DUP2 MSTORE RETURN JUMPDEST POP POP CALLVALUE PUSH2 0x623 JUMPI PUSH1 0xC0 CALLDATASIZE PUSH1 0x3 NOT ADD SLT PUSH2 0x623 JUMPI PUSH2 0x1517 PUSH2 0x5119 JUMP JUMPDEST POP PUSH2 0x14F SLOAD PUSH1 0x1 PUSH1 0x1 PUSH1 0xA0 SHL SUB SWAP2 SWAP1 DUP3 AND CALLER SUB PUSH2 0xCCB JUMPI PUSH2 0x1539 CALLDATASIZE PUSH1 0x4 PUSH2 0x553C JUMP JUMPDEST SWAP2 PUSH2 0x1542 PUSH2 0x5119 JUMP JUMPDEST POP PUSH2 0x154B PUSH2 0x4FFE JUMP JUMPDEST PUSH2 0x1553 PUSH2 0x580C JUMP JUMPDEST PUSH2 0x155B PUSH2 0x47EE JUMP JUMPDEST SWAP2 PUSH2 0x1568 DUP3 DUP6 MLOAD AND PUSH2 0x46EC JUMP JUMPDEST SWAP2 PUSH2 0x158B PUSH2 0x1576 DUP5 DUP7 PUSH2 0x43EB JUMP JUMPDEST MLOAD SWAP5 PUSH2 0x1582 DUP7 DUP7 PUSH2 0x4B52 JUMP JUMPDEST PUSH2 0x149 SLOAD PUSH2 0x519D JUMP JUMPDEST POP POP PUSH2 0x159C PUSH1 0x20 DUP7 ADD SWAP5 DUP6 MLOAD PUSH2 0x582D JUMP JUMPDEST SWAP1 DUP2 ISZERO PUSH2 0x16CB JUMPI DUP6 SWAP7 PUSH1 0x60 PUSH2 0x15E1 SWAP8 ADD SWAP1 DUP3 DUP3 MLOAD AND SWAP4 PUSH2 0x15D6 PUSH1 0xA0 DUP12 ADD SWAP6 DUP3 DUP13 DUP8 DUP1 DUP11 MLOAD AND SWAP2 MLOAD AND DUP7 MSTORE PUSH2 0x145 PUSH1 0x20 MSTORE DUP10 DUP7 KECCAK256 SLOAD SWAP3 PUSH2 0x51E0 JUMP JUMPDEST SWAP9 SWAP2 DUP4 SWAP12 SWAP2 SWAP12 PUSH2 0x4303 JUMP JUMPDEST SWAP9 DUP8 DUP13 ADD MLOAD DUP1 DUP12 LT PUSH2 0x16AE JUMPI POP DUP6 SWAP2 PUSH2 0x1633 SWAP2 PUSH2 0x15FF PUSH1 0x1 DUP14 PUSH2 0x55BD JUMP JUMPDEST MLOAD SWAP4 PUSH2 0x160D DUP3 PUSH2 0x137 PUSH2 0x3C6F JUMP JUMPDEST POP PUSH2 0x1619 DUP7 DUP3 SLOAD PUSH2 0x4303 JUMP JUMPDEST SWAP1 SSTORE PUSH2 0x1629 PUSH2 0x131 SWAP2 DUP3 SLOAD PUSH2 0x4303 JUMP JUMPDEST SWAP1 SSTORE PUSH2 0x135 PUSH2 0x3B3A JUMP JUMPDEST SWAP1 SLOAD SWAP1 PUSH1 0x3 SHL SHR AND SWAP1 DUP2 EXTCODESIZE ISZERO PUSH2 0x8C7 JUMPI DUP7 MLOAD PUSH4 0x2770A7EB PUSH1 0xE2 SHL DUP2 MSTORE ADDRESS PUSH1 0x4 DUP3 ADD MSTORE PUSH1 0x24 DUP2 ADD SWAP2 SWAP1 SWAP2 MSTORE SWAP1 DUP3 SWAP1 DUP3 SWAP1 PUSH1 0x44 SWAP1 DUP3 SWAP1 DUP5 SWAP1 GAS CALL DUP1 ISZERO PUSH2 0x1044 JUMPI PUSH2 0x1699 JUMPI JUMPDEST POP POP SWAP7 DUP6 PUSH2 0x1025 SWAP4 DUP4 DUP1 PUSH1 0x80 DUP10 SWAP7 PUSH2 0xCC7 SWAP12 SWAP13 SWAP14 MLOAD AND SWAP6 ADD MLOAD AND SWAP2 MLOAD AND SWAP3 PUSH2 0x5483 JUMP JUMPDEST PUSH2 0x16A4 DUP3 DUP1 SWAP3 PUSH2 0x3C8B JUMP JUMPDEST PUSH2 0x779 JUMPI DUP1 PUSH2 0x1676 JUMP JUMPDEST PUSH1 0x44 SWAP1 DUP12 DUP11 MLOAD SWAP2 PUSH4 0x54CDE313 PUSH1 0xE0 SHL DUP4 MSTORE PUSH1 0x4 DUP4 ADD MSTORE PUSH1 0x24 DUP3 ADD MSTORE REVERT JUMPDEST DUP3 MLOAD PUSH4 0xF3E39B5D PUSH1 0xE0 SHL DUP2 MSTORE PUSH1 0x4 SWAP1 REVERT JUMPDEST POP POP CALLVALUE PUSH2 0x623 JUMPI DUP2 PUSH1 0x3 NOT CALLDATASIZE ADD SLT PUSH2 0x623 JUMPI PUSH1 0x20 SWAP1 PUSH2 0x18F SLOAD NUMBER LT ISZERO SWAP1 MLOAD SWAP1 DUP2 MSTORE RETURN JUMPDEST POP POP CALLVALUE PUSH2 0x623 JUMPI DUP2 PUSH1 0x3 NOT CALLDATASIZE ADD SLT PUSH2 0x623 JUMPI PUSH1 0xCA SLOAD SWAP1 MLOAD PUSH1 0x10 SWAP2 SWAP1 SWAP2 SHR PUSH1 0x1 PUSH1 0x1 PUSH1 0xA0 SHL SUB AND DUP2 MSTORE PUSH1 0x20 SWAP1 RETURN JUMPDEST DUP3 DUP5 CALLVALUE PUSH2 0x779 JUMPI PUSH1 0x20 CALLDATASIZE PUSH1 0x3 NOT ADD SLT PUSH2 0x779 JUMPI PUSH1 0x4 CALLDATALOAD PUSH1 0x1 PUSH1 0x1 PUSH1 0xA0 SHL SUB DUP2 AND SWAP2 SWAP1 DUP3 SWAP1 SUB PUSH2 0x701 JUMPI DUP3 SWAP2 DUP2 MSTORE PUSH2 0x136 PUSH1 0x20 MSTORE KECCAK256 PUSH1 0xFF PUSH1 0x1 DUP3 SLOAD SWAP3 ADD SLOAD AND DUP3 MLOAD SWAP2 DUP3 MSTORE ISZERO ISZERO PUSH1 0x20 DUP3 ADD MSTORE RETURN JUMPDEST POP POP CALLVALUE PUSH2 0x623 JUMPI DUP2 PUSH1 0x3 NOT CALLDATASIZE ADD SLT PUSH2 0x623 JUMPI PUSH1 0x20 SWAP1 PUSH2 0x17A1 PUSH2 0x179B PUSH2 0xAF5 PUSH2 0x47EE JUMP JUMPDEST SWAP1 PUSH2 0x45B4 JUMP JUMPDEST PUSH2 0x14A SLOAD LT ISZERO SWAP1 MLOAD SWAP1 DUP2 MSTORE RETURN JUMPDEST POP POP CALLVALUE PUSH2 0x623 JUMPI DUP2 PUSH1 0x3 NOT CALLDATASIZE ADD SLT PUSH2 0x623 JUMPI PUSH2 0x146 SLOAD SWAP1 MLOAD PUSH1 0x1 PUSH1 0x1 PUSH1 0xA0 SHL SUB SWAP1 SWAP2 AND DUP2 MSTORE PUSH1 0x20 SWAP1 RETURN JUMPDEST POP POP CALLVALUE PUSH2 0x623 JUMPI PUSH2 0x420 CALLDATASIZE PUSH1 0x3 NOT ADD SLT PUSH2 0x623 JUMPI DUP2 SLOAD PUSH1 0xFF DUP2 PUSH1 0x8 SHR AND ISZERO SWAP1 DUP2 DUP1 SWAP3 PUSH2 0x1D36 JUMPI JUMPDEST DUP1 ISZERO PUSH2 0x1D1F JUMPI JUMPDEST ISZERO PUSH2 0x1CC4 JUMPI PUSH1 0xFF NOT DUP2 AND PUSH1 0x1 OR DUP5 SSTORE DUP2 PUSH2 0x1CB3 JUMPI JUMPDEST POP PUSH1 0xFF DUP4 SLOAD PUSH1 0x8 SHR AND PUSH2 0x182D DUP2 PUSH2 0x49CC JUMP JUMPDEST PUSH2 0x3A4 CALLDATALOAD PUSH1 0x1 PUSH1 0x1 PUSH1 0xA0 SHL SUB DUP2 AND SWAP1 DUP2 SWAP1 SUB PUSH2 0x701 JUMPI PUSH2 0x1F6 DUP1 SLOAD PUSH1 0x1 PUSH1 0x1 PUSH1 0xA0 SHL SUB NOT AND SWAP1 SWAP2 OR SWAP1 SSTORE PUSH1 0x1 PUSH1 0x1 PUSH1 0xA0 SHL SUB PUSH2 0x364 CALLDATALOAD SWAP1 DUP2 AND SWAP1 DUP2 SWAP1 SUB PUSH2 0x701 JUMPI PUSH2 0x384 CALLDATALOAD PUSH1 0x1 PUSH1 0x1 PUSH1 0xA0 SHL SUB DUP2 AND DUP2 SUB PUSH2 0x701 JUMPI PUSH1 0x1 SWAP2 PUSH2 0x188E DUP5 PUSH2 0x49CC JUMP JUMPDEST PUSH2 0x1897 DUP5 PUSH2 0x49CC JUMP JUMPDEST PUSH2 0x18A0 DUP5 PUSH2 0x49CC JUMP JUMPDEST PUSH2 0x18A9 DUP5 PUSH2 0x49CC JUMP JUMPDEST PUSH1 0x1 PUSH1 0x1 PUSH1 0x60 SHL SUB PUSH1 0xA0 SHL PUSH1 0x97 SLOAD AND OR PUSH1 0x97 SSTORE PUSH2 0x18C5 DUP4 PUSH2 0x49CC JUMP JUMPDEST PUSH1 0xCA SLOAD SWAP1 PUSH3 0x10000 DUP4 PUSH1 0xB0 SHL SUB SWAP1 PUSH1 0x10 SHL AND SWAP1 PUSH2 0xFF01 DUP4 PUSH1 0xB0 SHL SUB NOT AND OR OR PUSH1 0xCA SSTORE PUSH2 0x18F0 DUP2 PUSH2 0x49CC JUMP JUMPDEST PUSH8 0xDE0B6B3A7640000 PUSH1 0xC4 CALLDATALOAD GT ISZERO PUSH2 0x1CA2 JUMPI PUSH2 0x190E PUSH2 0x104 CALLDATALOAD PUSH2 0x5851 JUMP JUMPDEST PUSH2 0x191A PUSH2 0x124 CALLDATALOAD PUSH2 0x5851 JUMP JUMPDEST PUSH2 0x1926 PUSH2 0x144 CALLDATALOAD PUSH2 0x5851 JUMP JUMPDEST PUSH2 0x1932 PUSH2 0x164 CALLDATALOAD PUSH2 0x5851 JUMP JUMPDEST PUSH2 0x193E PUSH2 0x184 CALLDATALOAD PUSH2 0x5851 JUMP JUMPDEST PUSH2 0x194A PUSH2 0x1A4 CALLDATALOAD PUSH2 0x5851 JUMP JUMPDEST PUSH2 0x1956 PUSH2 0x1C4 CALLDATALOAD PUSH2 0x5851 JUMP JUMPDEST PUSH2 0x1962 PUSH2 0x1E4 CALLDATALOAD PUSH2 0x5851 JUMP JUMPDEST PUSH2 0x196E PUSH2 0x204 CALLDATALOAD PUSH2 0x5851 JUMP JUMPDEST PUSH2 0x1986 PUSH2 0x1981 PUSH2 0x244 CALLDATALOAD PUSH2 0x224 CALLDATALOAD PUSH2 0x43DE JUMP JUMPDEST PUSH2 0x5851 JUMP JUMPDEST PUSH1 0x4 CALLDATALOAD PUSH1 0x1 PUSH1 0x1 PUSH1 0xA0 SHL SUB DUP2 AND SWAP1 DUP2 SWAP1 SUB PUSH2 0x1C9E JUMPI PUSH2 0x14F DUP1 SLOAD PUSH1 0x1 PUSH1 0x1 PUSH1 0xA0 SHL SUB NOT AND SWAP1 SWAP2 OR SWAP1 SSTORE PUSH1 0x24 CALLDATALOAD PUSH1 0x1 PUSH1 0x1 PUSH1 0xA0 SHL SUB DUP2 AND DUP2 SUB PUSH2 0x701 JUMPI PUSH2 0x12F DUP1 SLOAD PUSH1 0x1 PUSH1 0x1 PUSH1 0xA0 SHL SUB NOT AND PUSH1 0x1 PUSH1 0x1 PUSH1 0xA0 SHL SUB SWAP3 DUP4 AND OR SWAP1 SSTORE PUSH1 0x44 CALLDATALOAD SWAP1 DUP2 AND DUP2 SUB PUSH2 0x701 JUMPI PUSH2 0x130 DUP1 SLOAD PUSH1 0x1 PUSH1 0x1 PUSH1 0xA0 SHL SUB NOT AND PUSH1 0x1 PUSH1 0x1 PUSH1 0xA0 SHL SUB SWAP3 DUP4 AND OR SWAP1 SSTORE PUSH1 0x64 CALLDATALOAD SWAP1 DUP2 AND DUP2 SUB PUSH2 0x701 JUMPI PUSH2 0x133 DUP1 SLOAD PUSH1 0x1 PUSH1 0x1 PUSH1 0xA0 SHL SUB NOT AND PUSH1 0x1 PUSH1 0x1 PUSH1 0xA0 SHL SUB SWAP3 DUP4 AND OR SWAP1 SSTORE PUSH1 0x84 CALLDATALOAD SWAP1 DUP2 AND DUP2 SUB PUSH2 0x701 JUMPI PUSH2 0x146 DUP1 SLOAD PUSH1 0x1 PUSH1 0x1 PUSH1 0xA0 SHL SUB NOT AND PUSH1 0x1 PUSH1 0x1 PUSH1 0xA0 SHL SUB SWAP3 DUP4 AND OR SWAP1 SSTORE PUSH1 0xA4 CALLDATALOAD SWAP1 DUP2 AND DUP2 SUB PUSH2 0x701 JUMPI PUSH2 0x147 DUP1 SLOAD PUSH1 0x1 PUSH1 0x1 PUSH1 0xA0 SHL SUB NOT AND PUSH1 0x1 PUSH1 0x1 PUSH1 0xA0 SHL SUB SWAP3 DUP4 AND OR SWAP1 SSTORE PUSH1 0xC4 CALLDATALOAD PUSH2 0x149 SSTORE PUSH1 0xE4 CALLDATALOAD PUSH2 0x14A SSTORE PUSH2 0x104 CALLDATALOAD PUSH2 0x13B SSTORE PUSH2 0x124 CALLDATALOAD PUSH2 0x13C SSTORE PUSH2 0x144 CALLDATALOAD PUSH2 0x13D SSTORE PUSH2 0x164 CALLDATALOAD PUSH2 0x13E SSTORE PUSH2 0x184 CALLDATALOAD PUSH2 0x13F SSTORE PUSH2 0x1A4 CALLDATALOAD PUSH2 0x140 SSTORE PUSH2 0x1C4 CALLDATALOAD PUSH2 0x141 SSTORE PUSH2 0x1E4 CALLDATALOAD PUSH2 0x142 SSTORE PUSH2 0x204 CALLDATALOAD PUSH2 0x143 SSTORE PUSH2 0x224 CALLDATALOAD PUSH2 0x139 SSTORE PUSH2 0x244 CALLDATALOAD PUSH2 0x13A SSTORE PUSH2 0x264 CALLDATALOAD PUSH2 0x14C DUP2 SWAP1 SSTORE SWAP1 PUSH2 0x284 CALLDATALOAD SWAP1 DUP2 AND SWAP1 DUP2 SWAP1 SUB PUSH2 0x701 JUMPI PUSH2 0x158 DUP1 SLOAD PUSH1 0x1 PUSH1 0x1 PUSH1 0xA0 SHL SUB NOT AND SWAP1 SWAP2 OR SWAP1 SSTORE PUSH2 0x2A4 CALLDATALOAD PUSH2 0x159 SSTORE PUSH2 0x2C4 CALLDATALOAD PUSH2 0x15A DUP2 SWAP1 SSTORE SWAP1 PUSH1 0x1 PUSH1 0x1 PUSH1 0xA0 SHL SUB PUSH2 0x2E4 CALLDATALOAD SWAP1 DUP2 AND SWAP1 DUP2 SWAP1 SUB PUSH2 0x701 JUMPI PUSH2 0x152 DUP1 SLOAD PUSH1 0x1 PUSH1 0x1 PUSH1 0xA0 SHL SUB NOT AND SWAP1 SWAP2 OR SWAP1 SSTORE PUSH1 0x1 PUSH1 0x1 PUSH1 0xA0 SHL SUB PUSH2 0x304 CALLDATALOAD SWAP1 DUP2 AND SWAP1 DUP2 SWAP1 SUB PUSH2 0x701 JUMPI PUSH2 0x153 SWAP1 PUSH1 0x1 PUSH1 0x1 PUSH1 0x60 SHL SUB PUSH1 0xA0 SHL DUP3 SLOAD AND OR SWAP1 SSTORE PUSH2 0x324 CALLDATALOAD PUSH2 0x154 SSTORE NUMBER PUSH2 0x157 SSTORE NUMBER ADD PUSH2 0x14D SSTORE NUMBER ADD PUSH2 0x15B SSTORE PUSH2 0x14B DUP1 SLOAD PUSH2 0x344 CALLDATALOAD DUP1 ISZERO ISZERO DUP1 SWAP2 SUB PUSH2 0x1C9A JUMPI PUSH3 0xFF0000 SWAP1 PUSH1 0x10 SHL AND SWAP1 PUSH3 0xFFFFFF NOT AND OR SWAP1 SSTORE PUSH2 0x3C4 CALLDATALOAD PUSH2 0x1BCD DUP3 PUSH2 0x49CC JUMP JUMPDEST DUP1 ISZERO PUSH2 0x1C89 JUMPI PUSH2 0x190 DUP2 SWAP1 SSTORE NUMBER ADD PUSH2 0x18F SSTORE PUSH2 0x3E4 CALLDATALOAD PUSH1 0x1 PUSH1 0x1 PUSH1 0xA0 SHL SUB DUP2 AND DUP2 SUB PUSH2 0x701 JUMPI PUSH2 0x1BFF PUSH2 0x1C21 SWAP3 PUSH2 0x49CC JUMP JUMPDEST PUSH2 0x1C3 DUP1 SLOAD PUSH1 0x1 PUSH1 0x1 PUSH1 0xA0 SHL SUB NOT AND PUSH1 0x1 PUSH1 0x1 PUSH1 0xA0 SHL SUB SWAP1 SWAP3 AND SWAP2 SWAP1 SWAP2 OR SWAP1 SSTORE JUMP JUMPDEST PUSH2 0x404 CALLDATALOAD PUSH1 0x1 PUSH1 0x1 PUSH1 0xA0 SHL SUB DUP2 AND SWAP1 DUP2 SWAP1 SUB PUSH2 0x701 JUMPI PUSH2 0x229 DUP1 SLOAD PUSH1 0x1 PUSH1 0x1 PUSH1 0xA0 SHL SUB NOT AND SWAP1 SWAP2 OR SWAP1 SSTORE PUSH2 0x1C53 JUMPI POP DUP1 RETURN JUMPDEST PUSH1 0x20 PUSH32 0x7F26B83FF96E1F2B6A682F133852F6798A09C465DA95921460CEFB3847402498 SWAP2 PUSH2 0xFF00 NOT DUP5 SLOAD AND DUP5 SSTORE MLOAD PUSH1 0x1 DUP2 MSTORE LOG1 DUP1 RETURN JUMPDEST DUP4 MLOAD PUSH4 0x2A9FFAB7 PUSH1 0xE2 SHL DUP2 MSTORE PUSH1 0x4 SWAP1 REVERT JUMPDEST DUP7 DUP1 REVERT JUMPDEST DUP5 DUP1 REVERT JUMPDEST DUP3 MLOAD PUSH4 0x2A9FFAB7 PUSH1 0xE2 SHL DUP2 MSTORE PUSH1 0x4 SWAP1 REVERT JUMPDEST PUSH2 0xFFFF NOT AND PUSH2 0x101 OR DUP4 SSTORE CODESIZE PUSH2 0x181B JUMP JUMPDEST DUP3 MLOAD PUSH3 0x461BCD PUSH1 0xE5 SHL DUP2 MSTORE PUSH1 0x20 PUSH1 0x4 DUP3 ADD MSTORE PUSH1 0x2E PUSH1 0x24 DUP3 ADD MSTORE PUSH32 0x496E697469616C697A61626C653A20636F6E747261637420697320616C726561 PUSH1 0x44 DUP3 ADD MSTORE PUSH14 0x191E481A5B9A5D1A585B1A5E9959 PUSH1 0x92 SHL PUSH1 0x64 DUP3 ADD MSTORE PUSH1 0x84 SWAP1 REVERT JUMPDEST POP ADDRESS EXTCODESIZE ISZERO DUP1 ISZERO PUSH2 0x1806 JUMPI POP PUSH1 0x1 PUSH1 0xFF DUP3 AND EQ PUSH2 0x1806 JUMP JUMPDEST POP PUSH1 0x1 PUSH1 0xFF DUP3 AND LT PUSH2 0x17FF JUMP JUMPDEST POP POP CALLVALUE PUSH2 0x623 JUMPI DUP2 PUSH1 0x3 NOT CALLDATASIZE ADD SLT PUSH2 0x623 JUMPI PUSH1 0x20 SWAP1 PUSH2 0x1D63 PUSH2 0xAF5 PUSH2 0x47EE JUMP JUMPDEST POP SWAP1 MLOAD SWAP1 DUP2 MSTORE RETURN JUMPDEST POP POP CALLVALUE PUSH2 0x623 JUMPI DUP2 PUSH1 0x3 NOT CALLDATASIZE ADD SLT PUSH2 0x623 JUMPI PUSH2 0x158 SLOAD SWAP1 MLOAD PUSH1 0x1 PUSH1 0x1 PUSH1 0xA0 SHL SUB SWAP1 SWAP2 AND DUP2 MSTORE PUSH1 0x20 SWAP1 RETURN JUMPDEST POP POP CALLVALUE PUSH2 0x623 JUMPI DUP2 PUSH1 0x3 NOT CALLDATASIZE ADD SLT PUSH2 0x623 JUMPI PUSH1 0x20 SWAP1 PUSH2 0x14A SLOAD SWAP1 MLOAD SWAP1 DUP2 MSTORE RETURN JUMPDEST DUP3 DUP5 CALLVALUE PUSH2 0x779 JUMPI PUSH1 0xC0 CALLDATASIZE PUSH1 0x3 NOT ADD SLT PUSH2 0x779 JUMPI POP PUSH2 0x1DD1 PUSH2 0x5119 JUMP JUMPDEST POP PUSH2 0x14F SLOAD PUSH1 0x1 PUSH1 0x1 PUSH1 0xA0 SHL SUB SWAP1 DUP2 AND CALLER SUB PUSH2 0x118B JUMPI PUSH2 0xCC7 PUSH2 0xCBD SWAP2 PUSH2 0x1DF9 CALLDATASIZE PUSH1 0x4 PUSH2 0x553C JUMP JUMPDEST SWAP4 PUSH2 0x1E02 PUSH2 0x5119 JUMP JUMPDEST POP PUSH2 0x1E0B PUSH2 0x4FFE JUMP JUMPDEST PUSH2 0x1E13 PUSH2 0x580C JUMP JUMPDEST PUSH2 0x1E44 PUSH2 0xC5D DUP3 MLOAD PUSH4 0x7225DA89 PUSH1 0xE1 SHL PUSH1 0x20 DUP3 ADD MSTORE PUSH2 0x1E35 PUSH1 0x24 DUP3 ADD DUP10 PUSH2 0x5020 JUMP JUMPDEST PUSH1 0xC4 DUP2 MSTORE PUSH2 0xC52 PUSH1 0xE4 DUP3 PUSH2 0x3C8B JUMP JUMPDEST SWAP5 DUP9 DUP6 DUP8 SWAP4 SWAP7 SWAP6 SWAP10 SWAP5 SWAP11 ADD SWAP2 DUP3 MLOAD PUSH2 0x1E60 PUSH2 0x14E SWAP2 DUP3 SLOAD PUSH2 0x4303 JUMP JUMPDEST SWAP1 SSTORE PUSH1 0xA0 PUSH2 0x1180 DUP12 DUP4 PUSH1 0x60 DUP7 ADD MLOAD AND SWAP6 MLOAD PUSH2 0x4303 JUMP JUMPDEST DUP4 CALLVALUE PUSH2 0x779 JUMPI PUSH1 0x20 CALLDATASIZE PUSH1 0x3 NOT ADD SLT PUSH2 0x779 JUMPI PUSH1 0x4 CALLDATALOAD PUSH1 0x1 PUSH1 0x1 PUSH1 0xA0 SHL SUB DUP2 AND SWAP1 DUP2 SWAP1 SUB PUSH2 0x701 JUMPI PUSH2 0x1EA5 PUSH2 0x577E JUMP JUMPDEST PUSH2 0x153 DUP1 SLOAD PUSH1 0x1 PUSH1 0x1 PUSH1 0xA0 SHL SUB NOT AND SWAP1 SWAP2 OR SWAP1 SSTORE DUP1 RETURN JUMPDEST POP POP CALLVALUE PUSH2 0x623 JUMPI DUP2 PUSH1 0x3 NOT CALLDATASIZE ADD SLT PUSH2 0x623 JUMPI PUSH2 0x1ED6 PUSH2 0x580C JUMP JUMPDEST PUSH1 0xCA SLOAD PUSH1 0x10 DUP2 SWAP1 SHR PUSH1 0x1 PUSH1 0x1 PUSH1 0xA0 SHL SUB AND CALLER SUB PUSH2 0x1F40 JUMPI PUSH1 0xFF DUP2 AND ISZERO PUSH2 0x1F2F JUMPI PUSH2 0xFF00 NOT AND PUSH2 0x100 OR PUSH1 0xCA SSTORE MLOAD CALLER DUP2 MSTORE PUSH32 0x62E78CEA01BEE320CD4E420270B5EA74000D11B0C9F74754EBDBFC544B05A258 SWAP1 PUSH1 0x20 SWAP1 LOG1 DUP1 RETURN JUMPDEST DUP2 MLOAD PUSH4 0x866099C3 PUSH1 0xE0 SHL DUP2 MSTORE PUSH1 0x4 SWAP1 REVERT JUMPDEST DUP2 MLOAD PUSH4 0x1D77D477 PUSH1 0xE2 SHL DUP2 MSTORE PUSH1 0x4 SWAP1 REVERT JUMPDEST POP POP CALLVALUE PUSH2 0x623 JUMPI DUP2 PUSH1 0x3 NOT CALLDATASIZE ADD SLT PUSH2 0x623 JUMPI PUSH1 0x20 SWAP1 PUSH2 0x772 PUSH2 0x179B PUSH2 0xAF5 PUSH2 0x47EE JUMP JUMPDEST POP POP CALLVALUE PUSH2 0x623 JUMPI DUP2 PUSH1 0x3 NOT CALLDATASIZE ADD SLT PUSH2 0x623 JUMPI PUSH1 0x20 SWAP1 PUSH2 0x15A SLOAD SWAP1 MLOAD SWAP1 DUP2 MSTORE RETURN JUMPDEST POP POP CALLVALUE PUSH2 0x623 JUMPI DUP2 PUSH1 0x3 NOT CALLDATASIZE ADD SLT PUSH2 0x623 JUMPI PUSH1 0x20 SWAP1 PUSH2 0x772 PUSH2 0x1FB6 PUSH1 0x1 PUSH2 0x4828 JUMP JUMPDEST PUSH2 0xD31 PUSH2 0x1FC3 DUP3 DUP5 PUSH2 0x448D JUMP JUMPDEST SWAP2 DUP4 PUSH2 0x4543 JUMP JUMPDEST POP POP CALLVALUE PUSH2 0x623 JUMPI DUP2 PUSH1 0x3 NOT CALLDATASIZE ADD SLT PUSH2 0x623 JUMPI PUSH2 0x1C3 SLOAD SWAP1 MLOAD PUSH1 0x1 PUSH1 0x1 PUSH1 0xA0 SHL SUB SWAP1 SWAP2 AND DUP2 MSTORE PUSH1 0x20 SWAP1 RETURN JUMPDEST POP POP CALLVALUE PUSH2 0x623 JUMPI PUSH1 0x20 CALLDATASIZE PUSH1 0x3 NOT ADD SLT PUSH2 0x623 JUMPI PUSH1 0x4 CALLDATALOAD SWAP2 PUSH2 0x148 SWAP1 DUP2 SLOAD DUP5 LT ISZERO PUSH2 0x779 JUMPI POP PUSH1 0x20 SWAP3 PUSH2 0x2025 SWAP2 PUSH2 0x3B3A JUMP JUMPDEST SWAP2 SWAP1 SLOAD SWAP1 MLOAD SWAP2 PUSH1 0x3 SHL SHR DUP2 MSTORE RETURN JUMPDEST DUP4 CALLVALUE PUSH2 0x779 JUMPI PUSH1 0x20 CALLDATASIZE PUSH1 0x3 NOT ADD SLT PUSH2 0x779 JUMPI PUSH2 0x204D PUSH2 0x577E JUMP JUMPDEST PUSH1 0x4 CALLDATALOAD PUSH2 0x149 SSTORE DUP1 RETURN JUMPDEST DUP4 CALLVALUE PUSH2 0x779 JUMPI PUSH1 0x20 CALLDATASIZE PUSH1 0x3 NOT ADD SLT PUSH2 0x779 JUMPI PUSH2 0x2071 PUSH2 0x577E JUMP JUMPDEST PUSH1 0x4 CALLDATALOAD PUSH2 0x140 SSTORE DUP1 RETURN JUMPDEST POP POP CALLVALUE PUSH2 0x623 JUMPI DUP2 PUSH1 0x3 NOT CALLDATASIZE ADD SLT PUSH2 0x623 JUMPI PUSH1 0x20 SWAP1 PUSH2 0x190 SLOAD SWAP1 MLOAD SWAP1 DUP2 MSTORE RETURN JUMPDEST DUP4 CALLVALUE PUSH2 0x779 JUMPI PUSH1 0x20 CALLDATASIZE PUSH1 0x3 NOT ADD SLT PUSH2 0x779 JUMPI PUSH2 0x20B5 PUSH2 0x577E JUMP JUMPDEST PUSH1 0x4 CALLDATALOAD PUSH2 0x141 SSTORE DUP1 RETURN JUMPDEST POP POP CALLVALUE PUSH2 0x623 JUMPI DUP2 PUSH1 0x3 NOT CALLDATASIZE ADD SLT PUSH2 0x623 JUMPI PUSH1 0x20 SWAP1 PUSH2 0x134 SLOAD SWAP1 MLOAD SWAP1 DUP2 MSTORE RETURN JUMPDEST POP POP CALLVALUE PUSH2 0x623 JUMPI DUP2 PUSH1 0x3 NOT CALLDATASIZE ADD SLT PUSH2 0x623 JUMPI PUSH1 0x20 SWAP1 PUSH2 0x142 SLOAD SWAP1 MLOAD SWAP1 DUP2 MSTORE RETURN JUMPDEST SWAP1 POP DUP3 PUSH2 0x210D CALLDATASIZE PUSH1 0x4 PUSH2 0x3B7C JUMP JUMPDEST PUSH2 0x211D SWAP9 SWAP6 SWAP2 SWAP8 SWAP3 SWAP5 SWAP4 SWAP9 PUSH2 0x4FFE JUMP JUMPDEST PUSH2 0x2125 PUSH2 0x580C JUMP JUMPDEST PUSH2 0x212F DUP9 CALLER PUSH2 0x4A4E JUMP JUMPDEST PUSH2 0x213B DUP7 MLOAD SWAP4 DUP5 PUSH2 0x3C8B JUMP JUMPDEST PUSH1 0x1 DUP1 PUSH1 0xA0 SHL SUB DUP1 SWAP9 DUP2 DUP1 SWAP5 AND DUP6 MSTORE PUSH1 0x20 SWAP11 DUP7 DUP13 DUP8 ADD MSTORE DUP9 DUP7 ADD MSTORE DUP7 PUSH1 0x60 DUP7 ADD MSTORE CALLER PUSH1 0x80 DUP7 ADD MSTORE AND PUSH1 0xA0 DUP5 ADD MSTORE AND PUSH1 0xC0 DUP3 ADD MSTORE DUP7 PUSH2 0x2196 PUSH1 0xE4 DUP9 PUSH2 0x14F SLOAD AND SWAP4 DUP8 MLOAD SWAP5 DUP6 SWAP4 DUP5 SWAP3 PUSH4 0x6B59C22F PUSH1 0xE0 SHL DUP5 MSTORE PUSH1 0x4 DUP5 ADD SWAP1 PUSH2 0x50C9 JUMP JUMPDEST CALLVALUE SWAP1 GAS CALL SWAP5 DUP6 ISZERO PUSH2 0x14D1 JUMPI SWAP5 PUSH2 0x21C5 JUMPI JUMPDEST POP PUSH2 0x21C0 SWAP1 PUSH2 0x6D1 SWAP4 SWAP5 SWAP6 PUSH2 0x133 SLOAD AND ADDRESS SWAP1 CALLER SWAP1 PUSH2 0x4FBA JUMP JUMPDEST PUSH2 0x4F94 JUMP JUMPDEST SWAP1 SWAP3 SWAP4 POP DUP6 DUP2 DUP2 RETURNDATASIZE DUP4 GT PUSH2 0x21F1 JUMPI JUMPDEST PUSH2 0x21DE DUP2 DUP4 PUSH2 0x3C8B JUMP JUMPDEST DUP2 ADD SUB SLT PUSH2 0x701 JUMPI MLOAD SWAP3 SWAP2 PUSH2 0x21C0 PUSH2 0x21A7 JUMP JUMPDEST POP RETURNDATASIZE PUSH2 0x21D4 JUMP JUMPDEST DUP4 CALLVALUE PUSH2 0x779 JUMPI PUSH1 0x20 CALLDATASIZE PUSH1 0x3 NOT ADD SLT PUSH2 0x779 JUMPI PUSH2 0x2212 PUSH2 0x577E JUMP JUMPDEST PUSH1 0x4 CALLDATALOAD PUSH2 0x13B SSTORE DUP1 RETURN JUMPDEST POP POP CALLVALUE PUSH2 0x623 JUMPI DUP2 PUSH1 0x3 NOT CALLDATASIZE ADD SLT PUSH2 0x623 JUMPI PUSH1 0x20 SWAP1 PUSH2 0x156 SLOAD SWAP1 MLOAD SWAP1 DUP2 MSTORE RETURN JUMPDEST POP POP CALLVALUE PUSH2 0x623 JUMPI DUP2 PUSH1 0x3 NOT CALLDATASIZE ADD SLT PUSH2 0x623 JUMPI PUSH1 0x20 SWAP1 PUSH2 0x139 SLOAD SWAP1 MLOAD SWAP1 DUP2 MSTORE RETURN JUMPDEST DUP4 CALLVALUE PUSH2 0x779 JUMPI PUSH1 0x20 CALLDATASIZE PUSH1 0x3 NOT ADD SLT PUSH2 0x779 JUMPI PUSH2 0x2276 PUSH2 0x577E JUMP JUMPDEST PUSH1 0x4 CALLDATALOAD PUSH2 0x154 SSTORE DUP1 RETURN JUMPDEST DUP4 CALLVALUE PUSH2 0x779 JUMPI PUSH1 0x20 CALLDATASIZE PUSH1 0x3 NOT ADD SLT PUSH2 0x779 JUMPI PUSH1 0x4 CALLDATALOAD PUSH1 0x1 PUSH1 0x1 PUSH1 0xA0 SHL SUB DUP2 AND SWAP1 DUP2 SWAP1 SUB PUSH2 0x701 JUMPI PUSH2 0x22AF PUSH2 0x577E JUMP JUMPDEST PUSH2 0x158 DUP1 SLOAD PUSH1 0x1 PUSH1 0x1 PUSH1 0xA0 SHL SUB NOT AND SWAP1 SWAP2 OR SWAP1 SSTORE DUP1 RETURN JUMPDEST DUP4 CALLVALUE PUSH2 0x779 JUMPI PUSH1 0x20 CALLDATASIZE PUSH1 0x3 NOT ADD SLT PUSH2 0x779 JUMPI PUSH2 0x22E0 PUSH2 0x577E JUMP JUMPDEST PUSH1 0x4 CALLDATALOAD PUSH2 0x13E SSTORE DUP1 RETURN JUMPDEST POP POP CALLVALUE PUSH2 0x623 JUMPI DUP2 PUSH1 0x3 NOT CALLDATASIZE ADD SLT PUSH2 0x623 JUMPI PUSH1 0x20 SWAP1 PUSH2 0x154 SLOAD SWAP1 MLOAD SWAP1 DUP2 MSTORE RETURN JUMPDEST POP POP CALLVALUE PUSH2 0x623 JUMPI DUP2 PUSH1 0x3 NOT CALLDATASIZE ADD SLT PUSH2 0x623 JUMPI PUSH1 0x20 SWAP1 PUSH2 0x149 SLOAD SWAP1 MLOAD SWAP1 DUP2 MSTORE RETURN JUMPDEST DUP4 CALLVALUE PUSH2 0x779 JUMPI DUP1 PUSH1 0x3 NOT CALLDATASIZE ADD SLT PUSH2 0x779 JUMPI PUSH2 0x2343 PUSH2 0x577E JUMP JUMPDEST PUSH1 0x1 PUSH1 0xFF NOT PUSH1 0xCA SLOAD AND OR PUSH1 0xCA SSTORE DUP1 RETURN JUMPDEST POP POP CALLVALUE PUSH2 0x623 JUMPI DUP2 PUSH1 0x3 NOT CALLDATASIZE ADD SLT PUSH2 0x623 JUMPI PUSH1 0x20 SWAP1 PUSH2 0x1D63 PUSH2 0x4E3D JUMP JUMPDEST DUP4 CALLVALUE PUSH2 0x779 JUMPI PUSH1 0x20 CALLDATASIZE PUSH1 0x3 NOT ADD SLT PUSH2 0x779 JUMPI PUSH2 0x238A PUSH2 0x577E JUMP JUMPDEST PUSH1 0x4 CALLDATALOAD PUSH2 0x159 SSTORE DUP1 RETURN JUMPDEST POP POP CALLVALUE PUSH2 0x623 JUMPI DUP2 PUSH1 0x3 NOT CALLDATASIZE ADD SLT PUSH2 0x623 JUMPI PUSH2 0x12F SLOAD SWAP1 MLOAD PUSH1 0x1 PUSH1 0x1 PUSH1 0xA0 SHL SUB SWAP1 SWAP2 AND DUP2 MSTORE PUSH1 0x20 SWAP1 RETURN JUMPDEST DUP3 DUP5 PUSH2 0x23CB CALLDATASIZE PUSH1 0x4 PUSH2 0x3CDF JUMP JUMPDEST SWAP5 SWAP3 SWAP1 PUSH2 0x23D6 PUSH2 0x4FFE JUMP JUMPDEST PUSH2 0x23DE PUSH2 0x580C JUMP JUMPDEST PUSH2 0x23E8 DUP2 CALLER PUSH2 0x4A4E JUMP JUMPDEST DUP4 MLOAD SWAP2 PUSH2 0x23F6 PUSH1 0xA0 DUP5 PUSH2 0x3C8B JUMP JUMPDEST DUP3 MSTORE PUSH1 0x20 DUP1 DUP4 ADD DUP5 DUP2 MSTORE CALLER DUP7 DUP6 ADD MSTORE PUSH1 0x1 PUSH1 0x1 PUSH1 0xA0 SHL SUB SWAP3 DUP4 AND PUSH1 0x60 DUP6 ADD SWAP1 DUP2 MSTORE SWAP8 DUP4 AND PUSH1 0x80 DUP6 ADD SWAP1 DUP2 MSTORE PUSH2 0x14F SLOAD DUP8 MLOAD PUSH4 0xE97A4D63 PUSH1 0xE0 SHL DUP2 MSTORE DUP7 MLOAD PUSH1 0x4 DUP3 ADD MSTORE SWAP3 MLOAD PUSH1 0x24 DUP5 ADD MSTORE PUSH1 0x40 SWAP1 SWAP6 ADD MLOAD DUP5 AND PUSH1 0x44 DUP4 ADD MSTORE SWAP8 MLOAD DUP4 AND PUSH1 0x64 DUP3 ADD MSTORE SWAP7 MLOAD DUP3 AND PUSH1 0x84 DUP9 ADD MSTORE SWAP6 SWAP2 DUP7 SWAP2 DUP4 SWAP2 PUSH1 0xA4 SWAP2 DUP4 SWAP2 AND PUSH2 0x6B6 JUMP JUMPDEST POP POP CALLVALUE PUSH2 0x623 JUMPI DUP2 PUSH1 0x3 NOT CALLDATASIZE ADD SLT PUSH2 0x623 JUMPI PUSH2 0x133 SLOAD SWAP1 MLOAD PUSH1 0x1 PUSH1 0x1 PUSH1 0xA0 SHL SUB SWAP1 SWAP2 AND DUP2 MSTORE PUSH1 0x20 SWAP1 RETURN JUMPDEST POP POP CALLVALUE PUSH2 0x623 JUMPI DUP2 PUSH1 0x3 NOT CALLDATASIZE ADD SLT PUSH2 0x623 JUMPI PUSH1 0x20 SWAP1 PUSH2 0x14E SLOAD SWAP1 MLOAD SWAP1 DUP2 MSTORE RETURN JUMPDEST POP POP CALLVALUE PUSH2 0x623 JUMPI DUP2 PUSH1 0x3 NOT CALLDATASIZE ADD SLT PUSH2 0x623 JUMPI PUSH1 0x20 SWAP1 PUSH1 0xFF PUSH1 0xCA SLOAD PUSH1 0x8 SHR AND SWAP1 MLOAD SWAP1 ISZERO ISZERO DUP2 MSTORE RETURN JUMPDEST POP POP CALLVALUE PUSH2 0x623 JUMPI DUP2 PUSH1 0x3 NOT CALLDATASIZE ADD SLT PUSH2 0x623 JUMPI PUSH2 0x24FA PUSH2 0x580C JUMP JUMPDEST PUSH2 0x14D DUP1 SLOAD NUMBER LT PUSH2 0x26CA JUMPI PUSH2 0x14C SLOAD NUMBER ADD SWAP1 SSTORE PUSH32 0xD3C59BDA47E141A8EC5A33D241B7F71B86E30D359F83A9227D912858B60404FC DUP3 DUP1 LOG1 PUSH2 0x137 SLOAD DUP3 PUSH2 0x253F DUP3 PUSH2 0x45EA JUMP JUMPDEST SWAP2 DUP5 JUMPDEST DUP2 DUP2 LT PUSH2 0x25FB JUMPI POP POP DUP1 PUSH2 0x25B6 JUMPI JUMPDEST SWAP2 DUP1 MLOAD SWAP3 DUP2 DUP5 ADD SWAP1 DUP5 MSTORE PUSH1 0x20 SWAP2 DUP3 DUP6 ADD MSTORE DUP3 MLOAD DUP1 SWAP2 MSTORE DUP2 PUSH1 0x60 DUP6 ADD SWAP4 ADD SWAP2 DUP6 JUMPDEST DUP3 DUP2 LT PUSH2 0x25A2 JUMPI DUP7 PUSH32 0xAE5116A8119D08673A0F1DFA7546B95DA4BD54BB17FEDA7C61130AC7859152F6 DUP8 DUP8 SUB DUP9 LOG1 DUP1 RETURN JUMPDEST DUP4 MLOAD DUP6 MSTORE SWAP4 DUP2 ADD SWAP4 SWAP3 DUP2 ADD SWAP3 PUSH1 0x1 ADD PUSH2 0x2571 JUMP JUMPDEST PUSH2 0x25CD PUSH8 0xDE0B6B3A7640000 SWAP2 PUSH2 0x139 SLOAD SWAP1 PUSH2 0x4510 JUMP JUMPDEST DIV PUSH2 0x131 PUSH2 0x25DC DUP3 DUP3 SLOAD PUSH2 0x4303 JUMP JUMPDEST SWAP1 SSTORE PUSH2 0x146 SLOAD PUSH2 0x25F6 SWAP1 DUP3 SWAP1 PUSH1 0x1 PUSH1 0x1 PUSH1 0xA0 SHL SUB AND PUSH2 0x41AD JUMP JUMPDEST PUSH2 0x2551 JUMP JUMPDEST PUSH2 0x2604 DUP2 PUSH2 0x4727 JUMP JUMPDEST PUSH2 0x260E DUP2 DUP4 PUSH2 0x4B52 JUMP JUMPDEST DUP7 PUSH2 0x150 SWAP2 DUP7 PUSH2 0x261E DUP6 DUP6 PUSH2 0x3B3A JUMP JUMPDEST SWAP1 SLOAD SWAP1 PUSH1 0x3 SHL SHR SWAP2 DUP4 DUP4 SGT PUSH2 0x263B JUMPI JUMPDEST POP POP POP POP POP PUSH1 0x1 ADD PUSH2 0x2542 JUMP JUMPDEST SWAP5 PUSH2 0x2680 DUP4 DUP3 SWAP7 SWAP10 PUSH2 0x2686 SWAP5 PUSH2 0x267A DUP6 PUSH2 0x266D PUSH2 0x2673 PUSH2 0x269D SWAP11 PUSH1 0x1 SWAP15 PUSH8 0xDE0B6B3A7640000 SWAP4 DUP5 SWAP2 PUSH2 0x13A SLOAD PUSH2 0x4510 JUMP JUMPDEST DIV PUSH2 0x4510 JUMP JUMPDEST DIV SWAP3 PUSH2 0x43EB JUMP JUMPDEST MSTORE PUSH2 0x43DE JUMP JUMPDEST SWAP8 PUSH2 0x3B3A JUMP JUMPDEST DUP2 SWAP4 SWAP2 SLOAD SWAP1 PUSH1 0x3 SHL SWAP2 DUP3 SHL SWAP2 PUSH1 0x0 NOT SWAP1 SHL NOT AND OR SWAP1 JUMP JUMPDEST SWAP1 SSTORE PUSH2 0x26C0 PUSH2 0x26AC DUP3 DUP8 PUSH2 0x43EB JUMP JUMPDEST MLOAD DUP9 DUP5 DUP1 PUSH1 0xA0 SHL SUB PUSH2 0x147 SLOAD AND SWAP2 DUP5 PUSH2 0x4A92 JUMP JUMPDEST SWAP1 DUP7 CODESIZE DUP7 DUP2 PUSH2 0x262E JUMP JUMPDEST DUP2 MLOAD PUSH4 0x101B6859 PUSH1 0xE0 SHL DUP2 MSTORE PUSH1 0x4 SWAP1 REVERT JUMPDEST DUP3 DUP5 CALLVALUE PUSH2 0x779 JUMPI DUP2 PUSH1 0x3 NOT CALLDATASIZE ADD SLT PUSH2 0x779 JUMPI PUSH1 0x1 PUSH1 0x1 PUSH1 0xA0 SHL SUB PUSH1 0x4 CALLDATALOAD DUP2 DUP2 AND DUP2 SUB PUSH2 0x701 JUMPI PUSH1 0x24 CALLDATALOAD SWAP2 PUSH2 0x14F SLOAD AND CALLER SUB PUSH2 0xAA8 JUMPI SWAP1 PUSH2 0xAA5 SWAP2 PUSH2 0x14E DUP3 DUP2 SLOAD SUB SWAP1 SSTORE PUSH2 0x41AD JUMP JUMPDEST POP POP CALLVALUE PUSH2 0x623 JUMPI DUP2 PUSH1 0x3 NOT CALLDATASIZE ADD SLT PUSH2 0x623 JUMPI PUSH1 0x20 SWAP1 PUSH2 0x157 SLOAD SWAP1 MLOAD SWAP1 DUP2 MSTORE RETURN JUMPDEST DUP4 CALLVALUE PUSH2 0x779 JUMPI PUSH1 0x20 CALLDATASIZE PUSH1 0x3 NOT ADD SLT PUSH2 0x779 JUMPI PUSH2 0x275D PUSH2 0x577E JUMP JUMPDEST PUSH1 0x4 CALLDATALOAD PUSH2 0x143 SSTORE DUP1 RETURN JUMPDEST DUP3 DUP5 CALLVALUE PUSH2 0x779 JUMPI DUP2 PUSH1 0x3 NOT CALLDATASIZE ADD SLT PUSH2 0x779 JUMPI PUSH1 0x1 PUSH1 0x1 PUSH1 0xA0 SHL SUB PUSH1 0x4 CALLDATALOAD DUP2 DUP2 AND DUP2 SUB PUSH2 0x701 JUMPI DUP2 PUSH2 0x14F SLOAD AND CALLER SUB PUSH2 0xAA8 JUMPI SWAP1 PUSH2 0xAA5 SWAP2 PUSH1 0x24 CALLDATALOAD SWAP2 PUSH2 0x133 SLOAD AND PUSH2 0x5745 JUMP JUMPDEST DUP4 CALLVALUE PUSH2 0x779 JUMPI PUSH1 0x20 CALLDATASIZE PUSH1 0x3 NOT ADD SLT PUSH2 0x779 JUMPI PUSH1 0x4 CALLDATALOAD PUSH1 0x1 PUSH1 0x1 PUSH1 0xA0 SHL SUB DUP2 AND DUP2 SUB PUSH2 0x701 JUMPI PUSH2 0xAA5 SWAP1 PUSH2 0x1BFF PUSH2 0x577E JUMP JUMPDEST DUP3 DUP5 CALLVALUE PUSH2 0x779 JUMPI DUP1 PUSH1 0x3 NOT CALLDATASIZE ADD SLT PUSH2 0x779 JUMPI POP PUSH32 0x0 PUSH1 0x1 PUSH1 0x1 PUSH1 0xA0 SHL SUB AND ADDRESS SUB PUSH2 0x2849 JUMPI PUSH1 0x20 SWAP1 MLOAD PUSH32 0x360894A13BA1A3210667C828492DB98DCA3E2076CC3735A920A3CA505D382BBC DUP2 MSTORE RETURN JUMPDEST MLOAD PUSH3 0x461BCD PUSH1 0xE5 SHL DUP2 MSTORE PUSH1 0x20 PUSH1 0x4 DUP3 ADD MSTORE PUSH1 0x38 PUSH1 0x24 DUP3 ADD MSTORE PUSH32 0x555550535570677261646561626C653A206D757374206E6F742062652063616C PUSH1 0x44 DUP3 ADD MSTORE PUSH32 0x6C6564207468726F7567682064656C656761746563616C6C0000000000000000 PUSH1 0x64 DUP3 ADD MSTORE PUSH1 0x84 SWAP1 REVERT JUMPDEST DUP4 CALLVALUE PUSH2 0x779 JUMPI DUP1 PUSH1 0x3 NOT CALLDATASIZE ADD SLT PUSH2 0x779 JUMPI PUSH2 0x28CB PUSH2 0x577E JUMP JUMPDEST PUSH1 0xFF NOT PUSH1 0xCA SLOAD AND PUSH1 0xCA SSTORE DUP1 RETURN JUMPDEST POP POP DUP1 PUSH1 0x3 NOT CALLDATASIZE ADD SLT PUSH2 0x623 JUMPI PUSH1 0x4 CALLDATALOAD SWAP1 PUSH1 0x1 PUSH1 0x1 PUSH1 0xA0 SHL SUB SWAP1 DUP2 DUP4 AND DUP4 SUB PUSH2 0x701 JUMPI DUP4 SWAP3 PUSH1 0x24 CALLDATALOAD SWAP3 PUSH8 0xFFFFFFFFFFFFFFFF DUP5 GT PUSH2 0x1C9E JUMPI CALLDATASIZE PUSH1 0x23 DUP6 ADD SLT ISZERO PUSH2 0x1C9E JUMPI DUP4 PUSH1 0x4 ADD CALLDATALOAD SWAP1 PUSH2 0x2936 PUSH2 0x292D DUP4 PUSH2 0x3CC3 JUMP JUMPDEST SWAP5 MLOAD SWAP5 DUP6 PUSH2 0x3C8B JUMP JUMPDEST DUP2 DUP5 MSTORE CALLDATASIZE PUSH1 0x24 DUP4 DUP8 ADD ADD GT PUSH2 0x29C4 JUMPI PUSH2 0xAA5 SWAP6 PUSH1 0x20 DUP4 PUSH2 0x29B7 SWAP5 PUSH1 0x24 PUSH1 0x1 SWAP10 ADD DUP4 DUP10 ADD CALLDATACOPY DUP7 ADD ADD MSTORE DUP1 PUSH32 0x0 AND SWAP1 PUSH2 0x298E DUP3 ADDRESS EQ ISZERO PUSH2 0x3D05 JUMP JUMPDEST PUSH32 0x360894A13BA1A3210667C828492DB98DCA3E2076CC3735A920A3CA505D382BBC SLOAD AND EQ PUSH2 0x3D66 JUMP JUMPDEST PUSH2 0x29BF PUSH2 0x577E JUMP JUMPDEST PUSH2 0x3DC7 JUMP JUMPDEST DUP6 DUP1 REVERT JUMPDEST POP POP CALLVALUE PUSH2 0x623 JUMPI DUP2 PUSH1 0x3 NOT CALLDATASIZE ADD SLT PUSH2 0x623 JUMPI PUSH1 0x20 SWAP1 PUSH2 0x13B SLOAD SWAP1 MLOAD SWAP1 DUP2 MSTORE RETURN JUMPDEST POP POP CALLVALUE PUSH2 0x623 JUMPI DUP2 PUSH1 0x3 NOT CALLDATASIZE ADD SLT PUSH2 0x623 JUMPI PUSH2 0x147 SLOAD SWAP1 MLOAD PUSH1 0x1 PUSH1 0x1 PUSH1 0xA0 SHL SUB SWAP1 SWAP2 AND DUP2 MSTORE PUSH1 0x20 SWAP1 RETURN JUMPDEST POP POP CALLVALUE PUSH2 0x623 JUMPI DUP2 PUSH1 0x3 NOT CALLDATASIZE ADD SLT PUSH2 0x623 JUMPI PUSH1 0x20 SWAP1 PUSH2 0x14C SLOAD SWAP1 MLOAD SWAP1 DUP2 MSTORE RETURN JUMPDEST POP POP CALLVALUE PUSH2 0x623 JUMPI PUSH1 0x20 CALLDATASIZE PUSH1 0x3 NOT ADD SLT PUSH2 0x623 JUMPI PUSH1 0x4 CALLDATALOAD PUSH2 0x137 DUP1 SLOAD DUP3 LT ISZERO PUSH2 0x9C9 JUMPI SWAP1 PUSH2 0x2A5E SWAP2 PUSH2 0x3C6F JUMP JUMPDEST POP DUP1 SLOAD PUSH1 0x1 SWAP1 SWAP2 ADD SLOAD DUP3 MLOAD SWAP2 DUP3 MSTORE PUSH1 0x1 PUSH1 0x1 PUSH1 0xA0 SHL SUB AND PUSH1 0x20 DUP3 ADD MSTORE RETURN JUMPDEST DUP4 SWAP2 POP CALLVALUE PUSH2 0x623 JUMPI CALLDATASIZE PUSH1 0x3 NOT ADD SLT PUSH2 0x779 JUMPI POP PUSH2 0x2A97 PUSH2 0x5119 JUMP JUMPDEST POP PUSH2 0x14F SLOAD PUSH1 0x1 PUSH1 0x1 PUSH1 0xA0 SHL SUB SWAP1 DUP2 AND CALLER SUB PUSH2 0x118B JUMPI PUSH2 0xCC7 PUSH2 0xCBD SWAP2 PUSH2 0x2ABF CALLDATASIZE PUSH1 0x4 PUSH2 0x56D2 JUMP JUMPDEST SWAP4 PUSH2 0x2AC8 PUSH2 0x5119 JUMP JUMPDEST POP PUSH2 0x2AD1 PUSH2 0x4FFE JUMP JUMPDEST PUSH2 0x2AD9 PUSH2 0x580C JUMP JUMPDEST PUSH2 0x114D PUSH2 0xC5D DUP3 MLOAD PUSH4 0xD9B6C2E5 PUSH1 0xE0 SHL PUSH1 0x20 DUP3 ADD MSTORE PUSH2 0xC42 PUSH1 0x24 DUP3 ADD DUP10 PUSH2 0x50C9 JUMP JUMPDEST DUP3 DUP5 CALLVALUE PUSH2 0x779 JUMPI DUP2 PUSH1 0x3 NOT CALLDATASIZE ADD SLT PUSH2 0x779 JUMPI POP PUSH1 0x4 CALLDATALOAD PUSH1 0x1 PUSH1 0x1 PUSH1 0xA0 SHL SUB DUP2 DUP2 AND SWAP2 DUP3 SWAP1 SUB PUSH2 0x701 JUMPI PUSH1 0x24 CALLDATALOAD SWAP2 DUP2 DUP4 AND SWAP2 DUP3 DUP5 SUB PUSH2 0x701 JUMPI PUSH2 0x2B91 SWAP3 PUSH2 0x2B3F PUSH2 0x580C JUMP JUMPDEST PUSH2 0x2B49 DUP6 CALLER PUSH2 0x4A4E JUMP JUMPDEST PUSH2 0x2B52 ADDRESS PUSH2 0x4363 JUMP JUMPDEST SWAP1 DUP7 MLOAD SWAP4 PUSH4 0x2AB7831F PUSH1 0xE0 SHL PUSH1 0x20 DUP7 ADD MSTORE PUSH1 0x24 DUP6 ADD MSTORE CALLER PUSH1 0x44 DUP6 ADD MSTORE PUSH1 0x64 DUP5 ADD MSTORE PUSH1 0x84 DUP4 ADD MSTORE PUSH1 0x84 DUP3 MSTORE PUSH2 0x2B87 PUSH1 0xA4 DUP4 PUSH2 0x3C8B JUMP JUMPDEST PUSH2 0x1F6 SLOAD AND PUSH2 0x4A2C JUMP JUMPDEST SWAP2 PUSH1 0x20 DUP4 DUP1 MLOAD DUP2 ADD SUB SLT PUSH2 0x701 JUMPI PUSH2 0x6D1 PUSH1 0x20 DUP1 SWAP5 ADD MLOAD DUP1 SWAP4 PUSH2 0x41AD JUMP JUMPDEST POP POP CALLVALUE PUSH2 0x623 JUMPI DUP2 PUSH1 0x3 NOT CALLDATASIZE ADD SLT PUSH2 0x623 JUMPI PUSH1 0x20 SWAP1 PUSH2 0x13E SLOAD SWAP1 MLOAD SWAP1 DUP2 MSTORE RETURN JUMPDEST POP POP CALLVALUE PUSH2 0x623 JUMPI DUP2 PUSH1 0x3 NOT CALLDATASIZE ADD SLT PUSH2 0x623 JUMPI PUSH1 0x20 SWAP1 PUSH2 0x772 PUSH2 0x2BFA PUSH2 0x2BF2 PUSH2 0x4E3D JUMP JUMPDEST SWAP2 SWAP1 SWAP2 PUSH2 0x43FF JUMP JUMPDEST SWAP2 PUSH2 0x4C38 JUMP JUMPDEST POP POP CALLVALUE PUSH2 0x623 JUMPI DUP2 PUSH1 0x3 NOT CALLDATASIZE ADD SLT PUSH2 0x623 JUMPI PUSH1 0xCA SLOAD PUSH1 0xFF DUP2 PUSH1 0x8 SHR AND ISZERO PUSH2 0x2CFB JUMPI PUSH1 0x1 DUP1 PUSH1 0xA0 SHL SUB DUP1 DUP3 PUSH1 0x10 SHR AND CALLER EQ ISZERO SWAP1 DUP2 PUSH2 0x2C7B JUMPI JUMPDEST POP PUSH2 0x1F40 JUMPI PUSH1 0xFF DUP2 AND ISZERO PUSH2 0x1F2F JUMPI PUSH2 0xFF00 NOT AND PUSH1 0xCA SSTORE MLOAD CALLER DUP2 MSTORE PUSH32 0x5DB9EE0A495BF2E6FF9C91A7834C1BA4FDD244A5E8AA4E537BD38AEAE4B073AA SWAP1 PUSH1 0x20 SWAP1 LOG1 DUP1 RETURN JUMPDEST PUSH1 0x97 SLOAD DUP5 MLOAD PUSH4 0xD994D6D5 PUSH1 0xE0 SHL DUP2 MSTORE CALLER PUSH1 0x4 DUP3 ADD MSTORE SWAP3 POP PUSH1 0x20 SWAP2 DUP4 SWAP2 PUSH1 0x24 SWAP2 DUP4 SWAP2 AND GAS STATICCALL SWAP1 DUP2 ISZERO PUSH2 0x2CEE JUMPI DUP5 SWAP2 PUSH2 0x2CB5 JUMPI JUMPDEST POP ISZERO CODESIZE PUSH2 0x2C38 JUMP JUMPDEST SWAP1 POP PUSH1 0x20 DUP2 RETURNDATASIZE DUP3 GT PUSH2 0x2CE6 JUMPI JUMPDEST DUP2 PUSH2 0x2CCF PUSH1 0x20 SWAP4 DUP4 PUSH2 0x3C8B JUMP JUMPDEST DUP2 ADD SUB SLT PUSH2 0x9C9 JUMPI PUSH2 0x2CE0 SWAP1 PUSH2 0x4204 JUMP JUMPDEST CODESIZE PUSH2 0x2CAD JUMP JUMPDEST RETURNDATASIZE SWAP2 POP PUSH2 0x2CC2 JUMP JUMPDEST POP POP POP MLOAD SWAP1 RETURNDATASIZE SWAP1 DUP3 RETURNDATACOPY RETURNDATASIZE SWAP1 REVERT JUMPDEST DUP2 MLOAD PUSH4 0x7C7FD079 PUSH1 0xE0 SHL DUP2 MSTORE PUSH1 0x4 SWAP1 REVERT JUMPDEST DUP4 CALLVALUE PUSH2 0x779 JUMPI PUSH1 0x20 CALLDATASIZE PUSH1 0x3 NOT ADD SLT PUSH2 0x779 JUMPI PUSH1 0x4 CALLDATALOAD PUSH1 0x1 PUSH1 0x1 PUSH1 0xA0 SHL SUB DUP2 AND SWAP1 DUP2 SWAP1 SUB PUSH2 0x623 JUMPI PUSH2 0x2D3B PUSH2 0x577E JUMP JUMPDEST PUSH2 0x14F DUP1 SLOAD PUSH1 0x1 PUSH1 0x1 PUSH1 0xA0 SHL SUB NOT AND SWAP1 SWAP2 OR SWAP1 SSTORE DUP1 RETURN JUMPDEST DUP4 CALLVALUE PUSH2 0x779 JUMPI PUSH1 0x20 CALLDATASIZE PUSH1 0x3 NOT ADD SLT PUSH2 0x779 JUMPI PUSH2 0x2D6C PUSH2 0x577E JUMP JUMPDEST PUSH1 0x4 CALLDATALOAD PUSH2 0x190 SSTORE DUP1 RETURN JUMPDEST DUP4 DUP4 CALLVALUE PUSH2 0x623 JUMPI PUSH2 0x100 SWAP2 DUP3 PUSH1 0x3 NOT CALLDATASIZE ADD SLT PUSH2 0x779 JUMPI POP PUSH2 0x2D95 PUSH2 0x5119 JUMP JUMPDEST POP PUSH2 0x14F SLOAD PUSH1 0x1 PUSH1 0x1 PUSH1 0xA0 SHL SUB SWAP3 SWAP1 DUP4 AND CALLER SUB PUSH2 0x118B JUMPI PUSH2 0x2DB8 DUP3 MLOAD SWAP2 DUP3 PUSH2 0x3C8B JUMP JUMPDEST PUSH1 0x4 CALLDATALOAD DUP4 DUP2 AND DUP2 SUB PUSH2 0x701 JUMPI DUP2 MSTORE PUSH1 0x24 CALLDATALOAD DUP4 DUP2 AND DUP2 SUB PUSH2 0x701 JUMPI PUSH1 0x20 DUP3 ADD MSTORE PUSH1 0x44 CALLDATALOAD DUP3 DUP3 ADD MSTORE PUSH1 0x64 CALLDATALOAD PUSH1 0x60 DUP3 ADD MSTORE PUSH1 0x80 DUP2 ADD SWAP2 PUSH1 0x84 CALLDATALOAD DUP4 MSTORE PUSH1 0xA4 CALLDATALOAD SWAP1 DUP5 DUP3 AND DUP3 SUB PUSH2 0x701 JUMPI PUSH1 0xA0 DUP4 ADD SWAP2 DUP3 MSTORE PUSH1 0xC4 CALLDATALOAD DUP6 DUP2 AND DUP2 SUB PUSH2 0x701 JUMPI PUSH1 0xC0 DUP5 ADD MSTORE PUSH1 0xE4 CALLDATALOAD SWAP3 DUP6 DUP5 AND DUP5 SUB PUSH2 0x701 JUMPI DUP6 PUSH2 0xCC7 SWAP6 PUSH2 0x2E74 PUSH2 0xC5D PUSH2 0x8A3 PUSH2 0xC52 DUP7 PUSH2 0x1373 SWAP14 PUSH2 0xCBD SWAP9 ADD SWAP11 DUP12 MSTORE PUSH2 0x2E48 PUSH2 0x5119 JUMP JUMPDEST POP PUSH2 0x2E51 PUSH2 0x4FFE JUMP JUMPDEST PUSH2 0x2E59 PUSH2 0x580C JUMP JUMPDEST DUP9 MLOAD PUSH4 0x70F090ED PUSH1 0xE1 SHL PUSH1 0x20 DUP3 ADD MSTORE SWAP3 DUP4 SWAP2 PUSH1 0x24 DUP4 ADD PUSH2 0x5065 JUMP JUMPDEST SWAP9 SWAP3 DUP1 SWAP12 DUP11 SWAP7 SWAP4 SWAP14 SWAP3 SWAP10 DUP7 MLOAD PUSH2 0x1368 PUSH2 0x14E SWAP2 DUP3 SLOAD PUSH2 0x4303 JUMP JUMPDEST POP POP CALLVALUE PUSH2 0x623 JUMPI PUSH1 0x20 CALLDATASIZE PUSH1 0x3 NOT ADD SLT PUSH2 0x623 JUMPI PUSH1 0x4 CALLDATALOAD SWAP2 PUSH2 0x138 SWAP1 DUP2 SLOAD DUP5 LT ISZERO PUSH2 0x779 JUMPI POP PUSH1 0x20 SWAP3 PUSH2 0x2025 SWAP2 PUSH2 0x3B3A JUMP JUMPDEST POP POP CALLVALUE PUSH2 0x623 JUMPI PUSH1 0x20 CALLDATASIZE PUSH1 0x3 NOT ADD SLT PUSH2 0x623 JUMPI PUSH1 0x4 CALLDATALOAD SWAP1 PUSH1 0x1 PUSH1 0x1 PUSH1 0xA0 SHL SUB SWAP1 DUP2 DUP4 AND DUP4 SUB PUSH2 0x701 JUMPI PUSH2 0xAA5 SWAP3 PUSH2 0x2F21 DUP4 DUP7 SWAP5 PUSH32 0x0 AND SWAP1 PUSH2 0x298E DUP3 ADDRESS EQ ISZERO PUSH2 0x3D05 JUMP JUMPDEST PUSH2 0x2F29 PUSH2 0x577E JUMP JUMPDEST PUSH2 0x2F3E PUSH2 0x2F35 DUP5 PUSH2 0x3CC3 JUMP JUMPDEST SWAP3 MLOAD SWAP3 DUP4 PUSH2 0x3C8B JUMP JUMPDEST DUP3 DUP3 MSTORE PUSH1 0x1F NOT PUSH2 0x2F4D DUP5 PUSH2 0x3CC3 JUMP JUMPDEST ADD CALLDATASIZE PUSH1 0x20 DUP5 ADD CALLDATACOPY PUSH2 0x3DC7 JUMP JUMPDEST DUP3 DUP5 PUSH2 0x2F66 CALLDATASIZE PUSH1 0x4 PUSH2 0x3B7C JUMP JUMPDEST SWAP7 SWAP5 PUSH2 0x2F76 SWAP9 SWAP2 SWAP4 SWAP5 SWAP3 SWAP9 PUSH2 0x4FFE JUMP JUMPDEST PUSH2 0x2F7E PUSH2 0x580C JUMP JUMPDEST PUSH2 0x2F88 DUP5 CALLER PUSH2 0x4A4E JUMP JUMPDEST PUSH2 0x2F94 DUP7 MLOAD SWAP3 DUP4 PUSH2 0x3C8B JUMP JUMPDEST PUSH1 0x1 DUP1 PUSH1 0xA0 SHL SUB SWAP8 DUP9 DUP1 DUP1 SWAP4 AND SWAP6 DUP7 DUP6 MSTORE PUSH1 0x20 SWAP12 DUP7 DUP14 DUP8 ADD MSTORE DUP9 DUP11 DUP8 ADD MSTORE PUSH1 0x60 DUP7 ADD MSTORE CALLER PUSH1 0x80 DUP7 ADD MSTORE AND PUSH1 0xA0 DUP5 ADD MSTORE AND PUSH1 0xC0 DUP3 ADD MSTORE DUP8 PUSH2 0x2FF1 PUSH1 0xE4 DUP10 PUSH2 0x14F SLOAD AND SWAP4 DUP9 MLOAD SWAP5 DUP6 SWAP4 DUP5 SWAP3 PUSH4 0xE4E1B729 PUSH1 0xE0 SHL DUP5 MSTORE PUSH1 0x4 DUP5 ADD SWAP1 PUSH2 0x50C9 JUMP JUMPDEST CALLVALUE SWAP1 GAS CALL SWAP6 DUP7 ISZERO PUSH2 0x3057 JUMPI SWAP6 PUSH2 0x3024 JUMPI JUMPDEST POP PUSH2 0x301B SWAP1 PUSH2 0x6D1 SWAP5 SWAP6 SWAP7 PUSH2 0x133 SLOAD AND ADDRESS SWAP1 CALLER SWAP1 PUSH2 0x4FBA JUMP JUMPDEST ADDRESS SWAP1 CALLER SWAP1 PUSH2 0x4FBA JUMP JUMPDEST SWAP1 SWAP4 SWAP5 POP DUP7 DUP2 DUP2 RETURNDATASIZE DUP4 GT PUSH2 0x3050 JUMPI JUMPDEST PUSH2 0x303D DUP2 DUP4 PUSH2 0x3C8B JUMP JUMPDEST DUP2 ADD SUB SLT PUSH2 0x701 JUMPI MLOAD SWAP4 SWAP3 PUSH2 0x301B PUSH2 0x3002 JUMP JUMPDEST POP RETURNDATASIZE PUSH2 0x3033 JUMP JUMPDEST DUP6 MLOAD SWAP1 RETURNDATASIZE SWAP1 DUP3 RETURNDATACOPY RETURNDATASIZE SWAP1 REVERT JUMPDEST POP POP CALLVALUE PUSH2 0x623 JUMPI DUP2 PUSH1 0x3 NOT CALLDATASIZE ADD SLT PUSH2 0x623 JUMPI PUSH2 0x307C PUSH2 0x4326 JUMP JUMPDEST PUSH2 0x3084 PUSH2 0x580C JUMP JUMPDEST PUSH2 0x14B DUP1 SLOAD PUSH1 0xFF DUP2 AND DUP1 PUSH2 0x314F JUMPI JUMPDEST DUP1 PUSH2 0x3135 JUMPI JUMPDEST PUSH2 0x30A1 JUMPI DUP4 DUP1 RETURN JUMPDEST PUSH2 0xFF00 NOT AND PUSH2 0x100 OR SWAP1 SSTORE DUP1 MLOAD SWAP1 DUP3 SWAP1 PUSH32 0x8B77276C97A5709F0D6DB52329848A254EB760CE8BE80D281799F633BDB69E83 DUP3 DUP1 LOG1 PUSH2 0x133 SLOAD PUSH1 0x1 PUSH1 0x1 PUSH1 0xA0 SHL SUB AND DUP1 EXTCODESIZE ISZERO PUSH2 0x8C7 JUMPI DUP4 PUSH1 0x4 DUP2 DUP6 DUP1 SWAP5 PUSH4 0x8456CB59 PUSH1 0xE0 SHL DUP4 MSTORE GAS CALL SWAP1 DUP2 ISZERO PUSH2 0x312A JUMPI POP PUSH2 0x311A JUMPI JUMPDEST POP POP PUSH2 0x3113 PUSH2 0x461C JUMP JUMPDEST CODESIZE DUP1 DUP1 DUP4 DUP1 RETURN JUMPDEST PUSH2 0x3123 SWAP2 PUSH2 0x3C8B JUMP JUMPDEST CODESIZE DUP2 PUSH2 0x3109 JUMP JUMPDEST MLOAD SWAP2 RETURNDATASIZE SWAP2 POP DUP3 RETURNDATACOPY RETURNDATASIZE SWAP1 REVERT JUMPDEST POP PUSH2 0x3144 PUSH2 0x179B PUSH2 0xAF5 PUSH2 0x47EE JUMP JUMPDEST PUSH2 0x14A SLOAD LT ISZERO PUSH2 0x3099 JUMP JUMPDEST POP PUSH1 0xFF DUP2 PUSH1 0x8 SHR AND ISZERO PUSH2 0x3093 JUMP JUMPDEST POP POP CALLVALUE PUSH2 0x623 JUMPI DUP2 PUSH1 0x3 NOT CALLDATASIZE ADD SLT PUSH2 0x623 JUMPI PUSH1 0x20 SWAP1 PUSH2 0x13F SLOAD SWAP1 MLOAD SWAP1 DUP2 MSTORE RETURN JUMPDEST DUP4 DUP4 DUP3 PUSH1 0x3 NOT CALLDATASIZE ADD SLT PUSH2 0x623 JUMPI PUSH1 0x1 PUSH1 0x1 PUSH1 0xA0 SHL SUB SWAP3 PUSH1 0x4 CALLDATALOAD DUP5 DUP2 AND SWAP1 DUP2 SWAP1 SUB PUSH2 0x9C9 JUMPI PUSH1 0x24 CALLDATALOAD SWAP1 DUP6 DUP3 AND DUP1 SWAP3 SUB PUSH2 0x1C9E JUMPI PUSH1 0x44 CALLDATALOAD SWAP2 PUSH1 0x84 CALLDATALOAD SWAP4 PUSH1 0xA4 CALLDATALOAD SWAP8 DUP1 DUP10 AND SWAP9 DUP10 DUP2 SUB PUSH2 0x32B0 JUMPI PUSH1 0xC4 CALLDATALOAD SWAP1 DUP3 DUP3 AND DUP1 SWAP3 SUB PUSH2 0x32AC JUMPI SWAP1 PUSH2 0x31F5 PUSH2 0x3250 SWAP6 SWAP5 SWAP4 SWAP3 PUSH2 0x31E7 PUSH2 0x4FFE JUMP JUMPDEST PUSH2 0x31EF PUSH2 0x580C JUMP JUMPDEST CALLER PUSH2 0x4A4E JUMP JUMPDEST DUP9 MLOAD SWAP3 PUSH2 0x3204 PUSH2 0x100 DUP6 PUSH2 0x3C8B JUMP JUMPDEST DUP7 DUP5 MSTORE PUSH1 0x20 SWAP12 DUP13 SWAP6 DUP7 DUP7 ADD MSTORE DUP9 DUP12 DUP7 ADD MSTORE PUSH1 0x64 CALLDATALOAD PUSH1 0x60 DUP7 ADD MSTORE DUP10 PUSH1 0x80 DUP7 ADD MSTORE CALLER PUSH1 0xA0 DUP7 ADD MSTORE PUSH1 0xC0 DUP6 ADD MSTORE DUP4 ADD MSTORE PUSH2 0x14F SLOAD AND DUP8 MLOAD DUP1 DUP1 SWAP6 DUP2 SWAP5 PUSH4 0x34975A41 PUSH1 0xE0 SHL DUP4 MSTORE PUSH1 0x4 DUP4 ADD PUSH2 0x5065 JUMP JUMPDEST SUB SWAP2 CALLVALUE SWAP1 GAS CALL SWAP6 DUP7 ISZERO PUSH2 0x3057 JUMPI DUP1 SWAP7 PUSH2 0x3278 JUMPI JUMPDEST POP POP PUSH2 0x6D1 SWAP3 SWAP2 PUSH2 0x21C0 SWAP2 ADDRESS SWAP1 CALLER SWAP1 PUSH2 0x4FBA JUMP JUMPDEST SWAP1 SWAP2 SWAP6 POP DUP7 DUP3 DUP2 RETURNDATASIZE DUP4 GT PUSH2 0x32A5 JUMPI JUMPDEST PUSH2 0x3291 DUP2 DUP4 PUSH2 0x3C8B JUMP JUMPDEST DUP2 ADD SUB SLT PUSH2 0x779 JUMPI POP MLOAD SWAP4 DUP2 PUSH2 0x21C0 PUSH2 0x3264 JUMP JUMPDEST POP RETURNDATASIZE PUSH2 0x3287 JUMP JUMPDEST DUP10 DUP1 REVERT JUMPDEST DUP9 DUP1 REVERT JUMPDEST DUP3 DUP5 PUSH2 0x32C1 CALLDATASIZE PUSH1 0x4 PUSH2 0x3BFD JUMP JUMPDEST SWAP2 PUSH2 0x32CE SWAP7 SWAP5 SWAP2 SWAP7 PUSH2 0x4FFE JUMP JUMPDEST PUSH2 0x32D6 PUSH2 0x580C JUMP JUMPDEST PUSH2 0x32E0 DUP8 CALLER PUSH2 0x4A4E JUMP JUMPDEST PUSH2 0x3344 PUSH1 0xC4 DUP7 MLOAD SWAP4 PUSH2 0x32F3 PUSH1 0xC0 DUP7 PUSH2 0x3C8B JUMP JUMPDEST PUSH1 0x1 DUP1 PUSH1 0xA0 SHL SUB DUP1 DUP1 SWAP3 AND SWAP7 DUP8 DUP8 MSTORE DUP2 PUSH1 0x20 SWAP13 DUP14 SWAP8 DUP12 DUP10 DUP12 ADD MSTORE DUP13 DUP11 ADD MSTORE CALLER PUSH1 0x60 DUP11 ADD MSTORE AND PUSH1 0x80 DUP9 ADD MSTORE AND PUSH1 0xA0 DUP7 ADD MSTORE PUSH2 0x14F SLOAD AND SWAP4 DUP8 MLOAD SWAP5 DUP6 SWAP4 DUP5 SWAP3 PUSH4 0x6426C5DB PUSH1 0xE1 SHL DUP5 MSTORE PUSH1 0x4 DUP5 ADD SWAP1 PUSH2 0x5020 JUMP JUMPDEST CALLVALUE SWAP1 GAS CALL SWAP5 DUP6 ISZERO PUSH2 0x14D1 JUMPI DUP1 SWAP6 PUSH2 0x3366 JUMPI JUMPDEST POP POP SWAP1 PUSH2 0x6D1 SWAP2 ADDRESS SWAP1 CALLER SWAP1 PUSH2 0x4FBA JUMP JUMPDEST SWAP1 SWAP2 SWAP5 POP DUP6 DUP3 DUP2 RETURNDATASIZE DUP4 GT PUSH2 0x3393 JUMPI JUMPDEST PUSH2 0x337F DUP2 DUP4 PUSH2 0x3C8B JUMP JUMPDEST DUP2 ADD SUB SLT PUSH2 0x779 JUMPI POP MLOAD SWAP3 PUSH2 0x6D1 DUP7 PUSH2 0x3356 JUMP JUMPDEST POP RETURNDATASIZE PUSH2 0x3375 JUMP JUMPDEST POP POP CALLVALUE PUSH2 0x623 JUMPI DUP2 PUSH1 0x3 NOT CALLDATASIZE ADD SLT PUSH2 0x623 JUMPI PUSH1 0x20 SWAP1 PUSH2 0x143 SLOAD SWAP1 MLOAD SWAP1 DUP2 MSTORE RETURN JUMPDEST DUP4 CALLVALUE PUSH2 0x779 JUMPI PUSH1 0x20 CALLDATASIZE PUSH1 0x3 NOT ADD SLT PUSH2 0x779 JUMPI PUSH1 0x4 CALLDATALOAD PUSH1 0x1 PUSH1 0x1 PUSH1 0xA0 SHL SUB DUP2 AND DUP2 SUB PUSH2 0x623 JUMPI PUSH2 0x33E7 PUSH2 0x577E JUMP JUMPDEST PUSH1 0xCA DUP1 SLOAD PUSH3 0x10000 PUSH1 0x1 PUSH1 0xB0 SHL SUB NOT AND PUSH1 0x10 SWAP3 SWAP1 SWAP3 SHL PUSH3 0x10000 PUSH1 0x1 PUSH1 0xB0 SHL SUB AND SWAP2 SWAP1 SWAP2 OR SWAP1 SSTORE DUP1 RETURN JUMPDEST DUP4 CALLVALUE PUSH2 0x779 JUMPI PUSH1 0x20 CALLDATASIZE PUSH1 0x3 NOT ADD SLT PUSH2 0x779 JUMPI PUSH2 0x342B PUSH2 0x577E JUMP JUMPDEST PUSH1 0x4 CALLDATALOAD PUSH2 0x14A SSTORE DUP1 RETURN JUMPDEST POP POP CALLVALUE PUSH2 0x623 JUMPI DUP2 PUSH1 0x3 NOT CALLDATASIZE ADD SLT PUSH2 0x623 JUMPI PUSH1 0x20 SWAP1 PUSH2 0x140 SLOAD SWAP1 MLOAD SWAP1 DUP2 MSTORE RETURN JUMPDEST DUP4 CALLVALUE PUSH2 0x779 JUMPI PUSH1 0x20 CALLDATASIZE PUSH1 0x3 NOT ADD SLT PUSH2 0x779 JUMPI PUSH1 0x4 CALLDATALOAD PUSH1 0x1 PUSH1 0x1 PUSH1 0xA0 SHL SUB DUP2 AND SWAP1 DUP2 SWAP1 SUB PUSH2 0x623 JUMPI PUSH2 0x3484 PUSH2 0x577E JUMP JUMPDEST PUSH2 0x147 DUP1 SLOAD PUSH1 0x1 PUSH1 0x1 PUSH1 0xA0 SHL SUB NOT AND SWAP1 SWAP2 OR SWAP1 SSTORE DUP1 RETURN JUMPDEST POP POP CALLVALUE PUSH2 0x623 JUMPI DUP2 PUSH1 0x3 NOT CALLDATASIZE ADD SLT PUSH2 0x623 JUMPI PUSH2 0x229 SLOAD SWAP1 MLOAD PUSH1 0x1 PUSH1 0x1 PUSH1 0xA0 SHL SUB SWAP1 SWAP2 AND DUP2 MSTORE PUSH1 0x20 SWAP1 RETURN JUMPDEST POP POP CALLVALUE PUSH2 0x623 JUMPI PUSH1 0x20 CALLDATASIZE PUSH1 0x3 NOT ADD SLT PUSH2 0x623 JUMPI PUSH1 0x4 CALLDATALOAD PUSH1 0x1 PUSH1 0x1 PUSH1 0xA0 SHL SUB DUP2 AND SWAP1 DUP2 SWAP1 SUB PUSH2 0x8C7 JUMPI DUP3 DUP3 SWAP2 PUSH1 0x20 SWAP5 MSTORE PUSH2 0x144 DUP5 MSTORE KECCAK256 SLOAD SWAP1 MLOAD SWAP1 DUP2 MSTORE RETURN JUMPDEST POP POP CALLVALUE PUSH2 0x623 JUMPI DUP2 PUSH1 0x3 NOT CALLDATASIZE ADD SLT PUSH2 0x623 JUMPI PUSH1 0x20 SWAP1 PUSH1 0xFF PUSH2 0x14B SLOAD PUSH1 0x8 SHR AND SWAP1 MLOAD SWAP1 ISZERO ISZERO DUP2 MSTORE RETURN JUMPDEST POP POP CALLVALUE PUSH2 0x623 JUMPI PUSH1 0xA0 CALLDATASIZE PUSH1 0x3 NOT ADD SLT PUSH2 0x623 JUMPI PUSH2 0x3545 PUSH2 0x5119 JUMP JUMPDEST POP PUSH2 0x14F SLOAD PUSH1 0x1 PUSH1 0x1 PUSH1 0xA0 SHL SUB SWAP3 SWAP1 DUP4 AND CALLER SUB PUSH2 0x118B JUMPI SWAP1 PUSH2 0x35D6 SWAP2 PUSH2 0x356C CALLDATASIZE PUSH1 0x4 PUSH2 0x5140 JUMP JUMPDEST SWAP2 PUSH2 0x3575 PUSH2 0x5119 JUMP JUMPDEST POP PUSH2 0x357E PUSH2 0x4FFE JUMP JUMPDEST PUSH2 0x3586 PUSH2 0x580C JUMP JUMPDEST PUSH8 0xDE0B6B3A7640000 PUSH2 0x35A9 PUSH2 0xF51 PUSH2 0x35A0 PUSH2 0x1582 PUSH2 0x47EE JUMP JUMPDEST DUP8 MLOAD SWAP3 SWAP2 PUSH2 0x4C04 JUMP JUMPDEST DIV SWAP5 DUP2 DUP5 ADD SWAP1 DUP1 DUP3 MLOAD AND SWAP2 PUSH2 0x35CB PUSH1 0x80 DUP8 ADD SWAP4 DUP10 DUP5 DUP7 MLOAD AND PUSH2 0x13C SLOAD SWAP3 PUSH2 0x51E0 JUMP JUMPDEST SWAP7 SWAP2 DUP11 SWAP10 SWAP2 SWAP10 PUSH2 0x43DE JUMP JUMPDEST SWAP7 PUSH1 0x20 DUP2 ADD SWAP10 DUP11 MLOAD DUP1 DUP11 GT PUSH2 0x36FF JUMPI POP DUP9 ISZERO PUSH2 0x36EE JUMPI DUP2 PUSH1 0x20 SWAP2 DUP7 PUSH1 0x60 PUSH2 0x3659 SWAP7 SWAP6 MLOAD SWAP4 ADD MLOAD AND SWAP1 PUSH2 0x134 PUSH2 0x360C DUP5 DUP3 SLOAD PUSH2 0x43DE JUMP JUMPDEST SWAP1 SSTORE PUSH2 0x361C PUSH2 0x131 SWAP2 DUP3 SLOAD PUSH2 0x43DE JUMP JUMPDEST SWAP1 SSTORE PUSH2 0x133 SLOAD DUP10 MLOAD PUSH4 0x40C10F19 PUSH1 0xE0 SHL DUP2 MSTORE PUSH1 0x1 PUSH1 0x1 PUSH1 0xA0 SHL SUB SWAP1 SWAP3 AND PUSH1 0x4 DUP4 ADD MSTORE PUSH1 0x24 DUP3 ADD SWAP3 SWAP1 SWAP3 MSTORE SWAP4 DUP5 SWAP2 DUP8 AND SWAP1 DUP3 SWAP1 DUP6 SWAP1 DUP3 SWAP1 PUSH1 0x44 DUP3 ADD SWAP1 JUMP JUMPDEST SUB SWAP3 GAS CALL DUP1 ISZERO PUSH2 0x36E2 JUMPI PUSH2 0x368C JUMPI JUMPDEST POP POP SWAP7 PUSH2 0x1025 SWAP3 DUP3 PUSH2 0x1373 DUP9 DUP9 SWAP6 PUSH2 0xCC7 SWAP11 SWAP12 SWAP13 DUP7 MLOAD PUSH2 0x1368 PUSH2 0x14E SWAP2 DUP3 SLOAD PUSH2 0x4303 JUMP JUMPDEST PUSH1 0x20 DUP3 RETURNDATASIZE DUP3 GT PUSH2 0x36DA JUMPI JUMPDEST DUP2 PUSH2 0x36A4 PUSH1 0x20 SWAP4 DUP4 PUSH2 0x3C8B JUMP JUMPDEST DUP2 ADD SUB SLT PUSH2 0x779 JUMPI POP SWAP3 DUP3 PUSH2 0x1373 DUP9 DUP9 SWAP6 PUSH2 0xCC7 SWAP11 SWAP12 SWAP13 SWAP6 PUSH2 0x36C8 PUSH2 0x1025 SWAP10 PUSH2 0x4204 JUMP JUMPDEST POP SWAP6 SWAP13 SWAP12 POP SWAP6 POP SWAP9 POP POP DUP2 SWAP5 POP PUSH2 0x3668 JUMP JUMPDEST RETURNDATASIZE SWAP2 POP PUSH2 0x3697 JUMP JUMPDEST POP DUP6 MLOAD SWAP1 RETURNDATASIZE SWAP1 DUP3 RETURNDATACOPY RETURNDATASIZE SWAP1 REVERT JUMPDEST DUP7 MLOAD PUSH4 0xF3E39B5D PUSH1 0xE0 SHL DUP2 MSTORE PUSH1 0x4 SWAP1 REVERT JUMPDEST PUSH1 0x44 SWAP1 DUP11 DUP10 MLOAD SWAP2 PUSH4 0xB63F1A7 PUSH1 0xE0 SHL DUP4 MSTORE PUSH1 0x4 DUP4 ADD MSTORE PUSH1 0x24 DUP3 ADD MSTORE REVERT JUMPDEST DUP4 CALLVALUE PUSH2 0x779 JUMPI PUSH1 0x20 CALLDATASIZE PUSH1 0x3 NOT ADD SLT PUSH2 0x779 JUMPI PUSH2 0x3736 PUSH2 0x577E JUMP JUMPDEST PUSH1 0x4 CALLDATALOAD PUSH2 0x142 SSTORE DUP1 RETURN JUMPDEST DUP4 CALLVALUE PUSH2 0x779 JUMPI PUSH1 0x20 CALLDATASIZE PUSH1 0x3 NOT ADD SLT PUSH2 0x779 JUMPI PUSH1 0x4 CALLDATALOAD DUP1 ISZERO ISZERO DUP1 SWAP2 SUB PUSH2 0x623 JUMPI PUSH2 0x3767 PUSH2 0x577E JUMP JUMPDEST PUSH2 0x14B SWAP1 PUSH1 0xFF DUP1 NOT DUP4 SLOAD AND SWAP2 AND OR SWAP1 SSTORE DUP1 RETURN JUMPDEST POP POP CALLVALUE PUSH2 0x623 JUMPI DUP2 PUSH1 0x3 NOT CALLDATASIZE ADD SLT PUSH2 0x623 JUMPI PUSH1 0x20 SWAP1 PUSH2 0x772 PUSH2 0x379D PUSH2 0xAF5 PUSH2 0x47EE JUMP JUMPDEST SWAP1 PUSH2 0x4C04 JUMP JUMPDEST POP POP CALLVALUE PUSH2 0x623 JUMPI DUP2 PUSH1 0x3 NOT CALLDATASIZE ADD SLT PUSH2 0x623 JUMPI PUSH1 0x20 SWAP1 PUSH2 0x14D SLOAD SWAP1 MLOAD SWAP1 DUP2 MSTORE RETURN JUMPDEST DUP4 DUP4 PUSH1 0xE4 PUSH2 0x3859 PUSH2 0x37D5 CALLDATASIZE PUSH1 0x4 PUSH2 0x3B7C JUMP JUMPDEST SWAP5 PUSH2 0x37E5 SWAP11 SWAP5 SWAP7 SWAP3 SWAP8 SWAP2 SWAP11 PUSH2 0x4FFE JUMP JUMPDEST PUSH2 0x37ED PUSH2 0x580C JUMP JUMPDEST PUSH2 0x37F7 DUP12 CALLER PUSH2 0x4A4E JUMP JUMPDEST PUSH2 0x3803 DUP10 MLOAD SWAP6 DUP7 PUSH2 0x3C8B JUMP JUMPDEST PUSH1 0x1 DUP1 PUSH1 0xA0 SHL SUB DUP1 DUP1 SWAP3 AND SWAP7 DUP8 DUP8 MSTORE DUP2 PUSH1 0x20 SWAP14 DUP15 SWAP8 DUP12 DUP10 DUP12 ADD MSTORE DUP14 DUP11 ADD MSTORE DUP12 PUSH1 0x60 DUP11 ADD MSTORE CALLER PUSH1 0x80 DUP11 ADD MSTORE AND PUSH1 0xA0 DUP9 ADD MSTORE AND PUSH1 0xC0 DUP7 ADD MSTORE PUSH2 0x14F SLOAD AND SWAP4 DUP9 MLOAD SWAP5 DUP6 SWAP4 DUP5 SWAP3 PUSH3 0x637447 PUSH1 0xE1 SHL DUP5 MSTORE PUSH1 0x4 DUP5 ADD SWAP1 PUSH2 0x50C9 JUMP JUMPDEST CALLVALUE SWAP1 GAS CALL SWAP6 DUP7 ISZERO PUSH2 0x3057 JUMPI DUP1 SWAP7 PUSH2 0x3278 JUMPI POP POP PUSH2 0x6D1 SWAP3 SWAP2 PUSH2 0x21C0 SWAP2 ADDRESS SWAP1 CALLER SWAP1 PUSH2 0x4FBA JUMP JUMPDEST POP POP CALLVALUE PUSH2 0x623 JUMPI DUP2 PUSH1 0x3 NOT CALLDATASIZE ADD SLT PUSH2 0x623 JUMPI PUSH2 0x14F SLOAD SWAP1 MLOAD PUSH1 0x1 PUSH1 0x1 PUSH1 0xA0 SHL SUB SWAP1 SWAP2 AND DUP2 MSTORE PUSH1 0x20 SWAP1 RETURN JUMPDEST DUP4 CALLVALUE PUSH2 0x779 JUMPI PUSH1 0x20 CALLDATASIZE PUSH1 0x3 NOT ADD SLT PUSH2 0x779 JUMPI PUSH1 0x4 CALLDATALOAD PUSH1 0x1 PUSH1 0x1 PUSH1 0xA0 SHL SUB DUP2 AND SWAP1 DUP2 SWAP1 SUB PUSH2 0x623 JUMPI PUSH2 0x38D7 PUSH2 0x577E JUMP JUMPDEST PUSH2 0x130 DUP1 SLOAD PUSH1 0x1 PUSH1 0x1 PUSH1 0xA0 SHL SUB NOT AND SWAP1 SWAP2 OR SWAP1 SSTORE DUP1 RETURN JUMPDEST DUP4 CALLVALUE PUSH2 0x779 JUMPI PUSH1 0x20 CALLDATASIZE PUSH1 0x3 NOT ADD SLT PUSH2 0x779 JUMPI PUSH2 0x3908 PUSH2 0x577E JUMP JUMPDEST PUSH1 0x4 CALLDATALOAD PUSH2 0x13F SSTORE DUP1 RETURN JUMPDEST POP POP CALLVALUE PUSH2 0x623 JUMPI DUP2 PUSH1 0x3 NOT CALLDATASIZE ADD SLT PUSH2 0x623 JUMPI PUSH1 0x20 SWAP1 PUSH2 0x159 SLOAD SWAP1 MLOAD SWAP1 DUP2 MSTORE RETURN JUMPDEST DUP4 CALLVALUE PUSH2 0x779 JUMPI PUSH1 0x20 CALLDATASIZE PUSH1 0x3 NOT ADD SLT PUSH2 0x779 JUMPI PUSH1 0x4 CALLDATALOAD PUSH1 0x1 PUSH1 0x1 PUSH1 0xA0 SHL SUB DUP2 AND SWAP1 DUP2 SWAP1 SUB PUSH2 0x623 JUMPI PUSH2 0x3961 PUSH2 0x577E JUMP JUMPDEST PUSH2 0x146 DUP1 SLOAD PUSH1 0x1 PUSH1 0x1 PUSH1 0xA0 SHL SUB NOT AND SWAP1 SWAP2 OR SWAP1 SSTORE DUP1 RETURN JUMPDEST POP POP CALLVALUE PUSH2 0x623 JUMPI DUP2 PUSH1 0x3 NOT CALLDATASIZE ADD SLT PUSH2 0x623 JUMPI PUSH1 0x20 SWAP1 PUSH2 0x18F SLOAD SWAP1 MLOAD SWAP1 DUP2 MSTORE RETURN JUMPDEST POP POP CALLVALUE PUSH2 0x623 JUMPI DUP2 PUSH1 0x3 NOT CALLDATASIZE ADD SLT PUSH2 0x623 JUMPI PUSH1 0x97 SLOAD SWAP1 MLOAD PUSH1 0x1 PUSH1 0x1 PUSH1 0xA0 SHL SUB SWAP1 SWAP2 AND DUP2 MSTORE PUSH1 0x20 SWAP1 RETURN JUMPDEST DUP4 CALLVALUE PUSH2 0x779 JUMPI PUSH1 0x20 CALLDATASIZE PUSH1 0x3 NOT ADD SLT PUSH2 0x779 JUMPI PUSH1 0x4 CALLDATALOAD DUP1 ISZERO ISZERO DUP1 SWAP2 SUB PUSH2 0x623 JUMPI PUSH2 0x39E8 PUSH2 0x577E JUMP JUMPDEST PUSH2 0x14B SWAP1 PUSH3 0xFF0000 DUP3 SLOAD SWAP2 PUSH1 0x10 SHL AND SWAP1 PUSH3 0xFF0000 NOT AND OR SWAP1 SSTORE DUP1 RETURN JUMPDEST DUP4 CALLVALUE PUSH2 0x779 JUMPI PUSH1 0x20 CALLDATASIZE PUSH1 0x3 NOT ADD SLT PUSH2 0x779 JUMPI PUSH2 0x3A1E PUSH2 0x577E JUMP JUMPDEST PUSH1 0x4 CALLDATALOAD PUSH2 0x15A SSTORE DUP1 RETURN JUMPDEST POP POP CALLVALUE PUSH2 0x623 JUMPI DUP2 PUSH1 0x3 NOT CALLDATASIZE ADD SLT PUSH2 0x623 JUMPI PUSH2 0x3A42 PUSH2 0x580C JUMP JUMPDEST PUSH2 0x15B DUP1 SLOAD NUMBER LT PUSH2 0x3ABE JUMPI PUSH2 0xAA5 SWAP2 PUSH1 0x20 SWAP2 PUSH2 0x15A SLOAD NUMBER ADD SWAP1 SSTORE PUSH2 0x3AAA PUSH2 0x131 SWAP2 DUP3 SLOAD PUSH32 0xE37FDA283839477A1B77E29ACF8336C0E13A5DAA967913DF0FE5AD258C0822F PUSH8 0xDE0B6B3A7640000 PUSH2 0x3A9C PUSH2 0x159 SLOAD DUP5 PUSH2 0x4510 JUMP JUMPDEST DIV SWAP6 DUP7 SWAP4 MLOAD DUP5 DUP2 MSTORE LOG1 PUSH2 0x4303 JUMP JUMPDEST SWAP1 SSTORE PUSH2 0x158 SLOAD PUSH1 0x1 PUSH1 0x1 PUSH1 0xA0 SHL SUB AND PUSH2 0x41AD JUMP JUMPDEST DUP2 MLOAD PUSH4 0xACCE20E5 PUSH1 0xE0 SHL DUP2 MSTORE PUSH1 0x4 SWAP1 REVERT JUMPDEST POP POP CALLVALUE PUSH2 0x623 JUMPI PUSH1 0x20 CALLDATASIZE PUSH1 0x3 NOT ADD SLT PUSH2 0x623 JUMPI PUSH1 0x4 CALLDATALOAD SWAP2 PUSH2 0x135 SWAP1 DUP2 SLOAD DUP5 LT ISZERO PUSH2 0x779 JUMPI POP PUSH1 0x20 SWAP3 PUSH2 0x3B00 SWAP2 PUSH2 0x3B3A JUMP JUMPDEST SWAP1 SLOAD SWAP2 MLOAD SWAP2 PUSH1 0x1 DUP1 PUSH1 0xA0 SHL SUB SWAP2 PUSH1 0x3 SHL SHR AND DUP2 MSTORE RETURN JUMPDEST DUP4 CALLVALUE PUSH2 0x779 JUMPI PUSH1 0x20 CALLDATASIZE PUSH1 0x3 NOT ADD SLT PUSH2 0x779 JUMPI PUSH2 0x3B30 PUSH2 0x577E JUMP JUMPDEST PUSH1 0x4 CALLDATALOAD PUSH2 0x13A SSTORE DUP1 RETURN JUMPDEST DUP1 SLOAD DUP3 LT ISZERO PUSH2 0x3B52 JUMPI PUSH1 0x0 MSTORE PUSH1 0x20 PUSH1 0x0 KECCAK256 ADD SWAP1 PUSH1 0x0 SWAP1 JUMP JUMPDEST PUSH4 0x4E487B71 PUSH1 0xE0 SHL PUSH1 0x0 MSTORE PUSH1 0x32 PUSH1 0x4 MSTORE PUSH1 0x24 PUSH1 0x0 REVERT JUMPDEST CALLDATALOAD SWAP1 PUSH1 0x1 PUSH1 0x1 PUSH1 0xA0 SHL SUB DUP3 AND DUP3 SUB PUSH2 0x701 JUMPI JUMP JUMPDEST SWAP2 SWAP1 DUP3 PUSH1 0xC0 SWAP2 SUB SLT PUSH2 0x701 JUMPI PUSH2 0x3B91 DUP3 PUSH2 0x3B68 JUMP JUMPDEST SWAP2 PUSH1 0x20 DUP2 ADD CALLDATALOAD SWAP2 PUSH1 0x40 DUP3 ADD CALLDATALOAD SWAP2 PUSH1 0x60 DUP2 ADD CALLDATALOAD SWAP2 PUSH2 0x3BBC PUSH1 0xA0 PUSH2 0x3BB5 PUSH1 0x80 DUP6 ADD PUSH2 0x3B68 JUMP JUMPDEST SWAP4 ADD PUSH2 0x3B68 JUMP JUMPDEST SWAP1 JUMP JUMPDEST PUSH1 0x40 SWAP1 PUSH2 0x3BFB SWAP4 SWAP6 SWAP5 SWAP3 SWAP6 PUSH1 0xC0 DUP3 ADD SWAP7 DUP3 MSTORE PUSH1 0x20 DUP3 ADD MSTORE ADD SWAP1 PUSH1 0x60 DUP1 SWAP2 DUP1 MLOAD DUP5 MSTORE PUSH1 0x20 DUP2 ADD MLOAD PUSH1 0x20 DUP6 ADD MSTORE PUSH1 0x40 DUP2 ADD MLOAD PUSH1 0x40 DUP6 ADD MSTORE ADD MLOAD SWAP2 ADD MSTORE JUMP JUMPDEST JUMP JUMPDEST SWAP1 DUP2 PUSH1 0xA0 SWAP2 SUB SLT PUSH2 0x701 JUMPI PUSH2 0x3C11 DUP2 PUSH2 0x3B68 JUMP JUMPDEST SWAP2 PUSH1 0x20 DUP3 ADD CALLDATALOAD SWAP2 PUSH1 0x40 DUP2 ADD CALLDATALOAD SWAP2 PUSH2 0x3BBC PUSH1 0x80 PUSH2 0x3BB5 PUSH1 0x60 DUP6 ADD PUSH2 0x3B68 JUMP JUMPDEST PUSH2 0x3BFB SWAP4 PUSH1 0x60 SWAP3 SWAP7 SWAP6 SWAP4 PUSH1 0xE0 DUP4 ADD SWAP8 DUP4 MSTORE PUSH1 0x20 DUP4 ADD MSTORE PUSH1 0x40 DUP3 ADD MSTORE ADD SWAP1 PUSH1 0x60 DUP1 SWAP2 DUP1 MLOAD DUP5 MSTORE PUSH1 0x20 DUP2 ADD MLOAD PUSH1 0x20 DUP6 ADD MSTORE PUSH1 0x40 DUP2 ADD MLOAD PUSH1 0x40 DUP6 ADD MSTORE ADD MLOAD SWAP2 ADD MSTORE JUMP JUMPDEST DUP1 SLOAD DUP3 LT ISZERO PUSH2 0x3B52 JUMPI PUSH1 0x0 MSTORE PUSH1 0x20 PUSH1 0x0 KECCAK256 SWAP1 PUSH1 0x1 SHL ADD SWAP1 PUSH1 0x0 SWAP1 JUMP JUMPDEST SWAP1 PUSH1 0x1F DUP1 NOT SWAP2 ADD AND DUP2 ADD SWAP1 DUP2 LT PUSH8 0xFFFFFFFFFFFFFFFF DUP3 GT OR PUSH2 0x3CAD JUMPI PUSH1 0x40 MSTORE JUMP JUMPDEST PUSH4 0x4E487B71 PUSH1 0xE0 SHL PUSH1 0x0 MSTORE PUSH1 0x41 PUSH1 0x4 MSTORE PUSH1 0x24 PUSH1 0x0 REVERT JUMPDEST PUSH8 0xFFFFFFFFFFFFFFFF DUP2 GT PUSH2 0x3CAD JUMPI PUSH1 0x1F ADD PUSH1 0x1F NOT AND PUSH1 0x20 ADD SWAP1 JUMP JUMPDEST SWAP2 SWAP1 DUP3 PUSH1 0x80 SWAP2 SUB SLT PUSH2 0x701 JUMPI DUP2 CALLDATALOAD SWAP2 PUSH1 0x20 DUP2 ADD CALLDATALOAD SWAP2 PUSH2 0x3BBC PUSH1 0x60 PUSH2 0x3BB5 PUSH1 0x40 DUP6 ADD PUSH2 0x3B68 JUMP JUMPDEST ISZERO PUSH2 0x3D0C JUMPI JUMP JUMPDEST PUSH1 0x40 MLOAD PUSH3 0x461BCD PUSH1 0xE5 SHL DUP2 MSTORE PUSH1 0x20 PUSH1 0x4 DUP3 ADD MSTORE PUSH1 0x2C PUSH1 0x24 DUP3 ADD MSTORE PUSH32 0x46756E6374696F6E206D7573742062652063616C6C6564207468726F75676820 PUSH1 0x44 DUP3 ADD MSTORE PUSH12 0x19195B1959D85D1958D85B1B PUSH1 0xA2 SHL PUSH1 0x64 DUP3 ADD MSTORE PUSH1 0x84 SWAP1 REVERT JUMPDEST ISZERO PUSH2 0x3D6D JUMPI JUMP JUMPDEST PUSH1 0x40 MLOAD PUSH3 0x461BCD PUSH1 0xE5 SHL DUP2 MSTORE PUSH1 0x20 PUSH1 0x4 DUP3 ADD MSTORE PUSH1 0x2C PUSH1 0x24 DUP3 ADD MSTORE PUSH32 0x46756E6374696F6E206D7573742062652063616C6C6564207468726F75676820 PUSH1 0x44 DUP3 ADD MSTORE PUSH12 0x6163746976652070726F7879 PUSH1 0xA0 SHL PUSH1 0x64 DUP3 ADD MSTORE PUSH1 0x84 SWAP1 REVERT JUMPDEST SWAP1 PUSH1 0xFF PUSH32 0x4910FDFA16FED3260ED0E7147F7CC6DA11A60208B5B9406D12A635614FFD9143 SLOAD AND PUSH1 0x0 EQ PUSH2 0x3DFF JUMPI POP PUSH2 0x3BFB SWAP2 POP PUSH2 0x3FB3 JUMP JUMPDEST PUSH1 0x40 MLOAD PUSH4 0x52D1902D PUSH1 0xE0 SHL DUP2 MSTORE PUSH1 0x20 SWAP4 SWAP2 SWAP3 SWAP2 SWAP1 PUSH1 0x1 PUSH1 0x1 PUSH1 0xA0 SHL SUB DUP4 AND SWAP1 DUP6 DUP2 PUSH1 0x4 DUP2 DUP6 GAS STATICCALL PUSH1 0x0 SWAP2 DUP2 PUSH2 0x3F84 JUMPI JUMPDEST POP PUSH2 0x3E90 JUMPI PUSH1 0x40 MLOAD PUSH3 0x461BCD PUSH1 0xE5 SHL DUP2 MSTORE PUSH1 0x4 DUP2 ADD DUP8 SWAP1 MSTORE PUSH1 0x2E PUSH1 0x24 DUP3 ADD MSTORE PUSH32 0x45524331393637557067726164653A206E657720696D706C656D656E74617469 PUSH1 0x44 DUP3 ADD MSTORE PUSH14 0x6F6E206973206E6F742055555053 PUSH1 0x90 SHL PUSH1 0x64 DUP3 ADD MSTORE PUSH1 0x84 SWAP1 REVERT JUMPDEST SWAP4 SWAP5 SWAP4 PUSH32 0xC9F76B5EC45E5CDEF99837D7B6D2467235C1DF8933C8CA56DF5C35AFA2C7D444 ADD PUSH2 0x3F2D JUMPI PUSH2 0x3EC2 DUP4 PUSH2 0x3FB3 JUMP JUMPDEST PUSH32 0xBC7CD75A20EE27FD9ADEBAB32041F755214DBC6BFFA90CC0225B39DA2E5C2D3B PUSH1 0x0 DUP1 LOG2 DUP4 MLOAD ISZERO SWAP1 DUP2 ISZERO SWAP2 PUSH2 0x3F25 JUMPI JUMPDEST POP PUSH2 0x3EFD JUMPI POP POP POP JUMP JUMPDEST PUSH1 0x0 DUP1 PUSH2 0x3F22 SWAP5 PUSH2 0x3F0C PUSH2 0x4055 JUMP JUMPDEST SWAP5 DUP2 MLOAD SWAP2 ADD DUP5 GAS DELEGATECALL PUSH2 0x3F1C PUSH2 0x40A9 JUMP JUMPDEST SWAP2 PUSH2 0x40D9 JUMP JUMPDEST POP JUMP JUMPDEST SWAP1 POP CODESIZE PUSH2 0x3EF3 JUMP JUMPDEST PUSH1 0x40 MLOAD PUSH3 0x461BCD PUSH1 0xE5 SHL DUP2 MSTORE PUSH1 0x4 DUP2 ADD DUP6 SWAP1 MSTORE PUSH1 0x29 PUSH1 0x24 DUP3 ADD MSTORE PUSH32 0x45524331393637557067726164653A20756E737570706F727465642070726F78 PUSH1 0x44 DUP3 ADD MSTORE PUSH9 0x1A58589B1955555251 PUSH1 0xBA SHL PUSH1 0x64 DUP3 ADD MSTORE PUSH1 0x84 SWAP1 REVERT JUMPDEST SWAP1 SWAP2 DUP8 DUP3 DUP2 RETURNDATASIZE DUP4 GT PUSH2 0x3FAC JUMPI JUMPDEST PUSH2 0x3F9B DUP2 DUP4 PUSH2 0x3C8B JUMP JUMPDEST DUP2 ADD SUB SLT PUSH2 0x779 JUMPI POP MLOAD SWAP1 CODESIZE PUSH2 0x3E2F JUMP JUMPDEST POP RETURNDATASIZE PUSH2 0x3F91 JUMP JUMPDEST DUP1 EXTCODESIZE ISZERO PUSH2 0x3FFA JUMPI PUSH32 0x360894A13BA1A3210667C828492DB98DCA3E2076CC3735A920A3CA505D382BBC DUP1 SLOAD PUSH1 0x1 PUSH1 0x1 PUSH1 0xA0 SHL SUB NOT AND PUSH1 0x1 PUSH1 0x1 PUSH1 0xA0 SHL SUB SWAP1 SWAP3 AND SWAP2 SWAP1 SWAP2 OR SWAP1 SSTORE JUMP JUMPDEST PUSH1 0x40 MLOAD PUSH3 0x461BCD PUSH1 0xE5 SHL DUP2 MSTORE PUSH1 0x20 PUSH1 0x4 DUP3 ADD MSTORE PUSH1 0x2D PUSH1 0x24 DUP3 ADD MSTORE PUSH32 0x455243313936373A206E657720696D706C656D656E746174696F6E206973206E PUSH1 0x44 DUP3 ADD MSTORE PUSH13 0x1BDD08184818DBDB9D1C9858DD PUSH1 0x9A SHL PUSH1 0x64 DUP3 ADD MSTORE PUSH1 0x84 SWAP1 REVERT JUMPDEST PUSH2 0x405F PUSH1 0x27 PUSH2 0x3CC3 JUMP JUMPDEST SWAP1 PUSH2 0x406D PUSH1 0x40 MLOAD SWAP3 DUP4 PUSH2 0x3C8B JUMP JUMPDEST PUSH1 0x27 DUP3 MSTORE PUSH7 0x819985A5B1959 PUSH1 0xCA SHL PUSH1 0x40 DUP4 PUSH32 0x416464726573733A206C6F772D6C6576656C2064656C65676174652063616C6C PUSH1 0x20 DUP3 ADD MSTORE ADD MSTORE JUMP JUMPDEST RETURNDATASIZE ISZERO PUSH2 0x40D4 JUMPI RETURNDATASIZE SWAP1 PUSH2 0x40BA DUP3 PUSH2 0x3CC3 JUMP JUMPDEST SWAP2 PUSH2 0x40C8 PUSH1 0x40 MLOAD SWAP4 DUP5 PUSH2 0x3C8B JUMP JUMPDEST DUP3 MSTORE RETURNDATASIZE PUSH1 0x0 PUSH1 0x20 DUP5 ADD RETURNDATACOPY JUMP JUMPDEST PUSH1 0x60 SWAP1 JUMP JUMPDEST SWAP2 SWAP3 SWAP1 ISZERO PUSH2 0x413B JUMPI POP DUP2 MLOAD ISZERO PUSH2 0x40ED JUMPI POP SWAP1 JUMP JUMPDEST EXTCODESIZE ISZERO PUSH2 0x40F6 JUMPI SWAP1 JUMP JUMPDEST PUSH1 0x40 MLOAD PUSH3 0x461BCD PUSH1 0xE5 SHL DUP2 MSTORE PUSH1 0x20 PUSH1 0x4 DUP3 ADD MSTORE PUSH1 0x1D PUSH1 0x24 DUP3 ADD MSTORE PUSH32 0x416464726573733A2063616C6C20746F206E6F6E2D636F6E7472616374000000 PUSH1 0x44 DUP3 ADD MSTORE PUSH1 0x64 SWAP1 REVERT JUMPDEST DUP3 MLOAD SWAP1 SWAP2 POP ISZERO PUSH2 0x414E JUMPI POP DUP1 MLOAD SWAP1 PUSH1 0x20 ADD REVERT JUMPDEST PUSH1 0x40 MLOAD SWAP1 PUSH3 0x461BCD PUSH1 0xE5 SHL DUP3 MSTORE DUP2 PUSH1 0x20 DUP1 PUSH1 0x4 DUP4 ADD MSTORE DUP3 MLOAD SWAP1 DUP2 PUSH1 0x24 DUP5 ADD MSTORE PUSH1 0x0 SWAP4 JUMPDEST DUP3 DUP6 LT PUSH2 0x4194 JUMPI POP POP PUSH1 0x44 SWAP3 POP PUSH1 0x0 DUP4 DUP3 DUP5 ADD ADD MSTORE PUSH1 0x1F DUP1 NOT SWAP2 ADD AND DUP2 ADD SUB ADD SWAP1 REVERT JUMPDEST DUP5 DUP2 ADD DUP3 ADD MLOAD DUP7 DUP7 ADD PUSH1 0x44 ADD MSTORE SWAP4 DUP2 ADD SWAP4 DUP6 SWAP4 POP PUSH2 0x4171 JUMP JUMPDEST SWAP1 DUP1 PUSH2 0x41B7 JUMPI POP POP JUMP JUMPDEST PUSH2 0x229 SLOAD PUSH1 0x40 MLOAD PUSH4 0xA9059CBB PUSH1 0xE0 SHL PUSH1 0x20 DUP3 ADD MSTORE PUSH1 0x1 PUSH1 0x1 PUSH1 0xA0 SHL SUB SWAP4 DUP5 AND PUSH1 0x24 DUP3 ADD MSTORE PUSH1 0x44 DUP2 ADD SWAP3 SWAP1 SWAP3 MSTORE PUSH2 0x3BFB SWAP3 AND PUSH2 0x41FF DUP3 PUSH1 0x64 DUP2 ADD JUMPDEST SUB PUSH1 0x1F NOT DUP2 ADD DUP5 MSTORE DUP4 PUSH2 0x3C8B JUMP JUMPDEST PUSH2 0x4211 JUMP JUMPDEST MLOAD SWAP1 DUP2 ISZERO ISZERO DUP3 SUB PUSH2 0x701 JUMPI JUMP JUMPDEST PUSH1 0x20 SWAP2 PUSH2 0x4274 SWAP2 PUSH1 0x1 PUSH1 0x1 PUSH1 0xA0 SHL SUB AND PUSH1 0x0 DUP1 PUSH2 0x422D DUP7 PUSH2 0x3CC3 JUMP JUMPDEST SWAP4 PUSH2 0x423B PUSH1 0x40 MLOAD SWAP6 DUP7 PUSH2 0x3C8B JUMP JUMPDEST DUP7 DUP6 MSTORE PUSH32 0x5361666545524332303A206C6F772D6C6576656C2063616C6C206661696C6564 DUP8 DUP7 ADD MSTORE DUP7 DUP2 MLOAD SWAP2 ADD DUP3 DUP6 GAS CALL PUSH2 0x3F1C PUSH2 0x40A9 JUMP JUMPDEST DUP1 MLOAD DUP3 DUP2 ISZERO SWAP2 DUP3 ISZERO PUSH2 0x42E4 JUMPI JUMPDEST POP POP SWAP1 POP ISZERO PUSH2 0x428D JUMPI POP JUMP JUMPDEST PUSH1 0x84 SWAP1 PUSH1 0x40 MLOAD SWAP1 PUSH3 0x461BCD PUSH1 0xE5 SHL DUP3 MSTORE PUSH1 0x4 DUP3 ADD MSTORE PUSH1 0x2A PUSH1 0x24 DUP3 ADD MSTORE PUSH32 0x5361666545524332303A204552433230206F7065726174696F6E20646964206E PUSH1 0x44 DUP3 ADD MSTORE PUSH10 0x1BDD081CDD58D8D95959 PUSH1 0xB2 SHL PUSH1 0x64 DUP3 ADD MSTORE REVERT JUMPDEST DUP4 DUP1 SWAP3 SWAP4 POP ADD SUB SLT PUSH2 0x701 JUMPI DUP2 PUSH2 0x42FB SWAP2 ADD PUSH2 0x4204 JUMP JUMPDEST DUP1 DUP3 CODESIZE PUSH2 0x4281 JUMP JUMPDEST SWAP2 SWAP1 DUP3 SUB SWAP2 DUP3 GT PUSH2 0x4310 JUMPI JUMP JUMPDEST PUSH4 0x4E487B71 PUSH1 0xE0 SHL PUSH1 0x0 MSTORE PUSH1 0x11 PUSH1 0x4 MSTORE PUSH1 0x24 PUSH1 0x0 REVERT JUMPDEST PUSH2 0x432F ADDRESS PUSH2 0x4363 JUMP JUMPDEST PUSH2 0x131 SWAP1 PUSH2 0x434C PUSH2 0x4342 DUP4 SLOAD DUP1 SWAP4 PUSH2 0x4303 JUMP JUMPDEST PUSH2 0x14E SLOAD SWAP1 PUSH2 0x4303 JUMP JUMPDEST DUP1 PUSH2 0x4356 JUMPI POP POP POP JUMP JUMPDEST PUSH2 0x435F SWAP2 PUSH2 0x43DE JUMP JUMPDEST SWAP1 SSTORE JUMP JUMPDEST PUSH2 0x229 SLOAD PUSH1 0x40 MLOAD PUSH4 0x70A08231 PUSH1 0xE0 SHL DUP2 MSTORE PUSH1 0x1 PUSH1 0x1 PUSH1 0xA0 SHL SUB SWAP3 DUP4 AND PUSH1 0x4 DUP3 ADD MSTORE SWAP2 PUSH1 0x20 SWAP2 DUP4 SWAP2 PUSH1 0x24 SWAP2 DUP4 SWAP2 AND GAS STATICCALL SWAP1 DUP2 ISZERO PUSH2 0x43D2 JUMPI PUSH1 0x0 SWAP2 PUSH2 0x43A4 JUMPI POP SWAP1 JUMP JUMPDEST SWAP1 PUSH1 0x20 DUP3 RETURNDATASIZE DUP3 GT PUSH2 0x43CA JUMPI JUMPDEST DUP2 PUSH2 0x43BD PUSH1 0x20 SWAP4 DUP4 PUSH2 0x3C8B JUMP JUMPDEST DUP2 ADD SUB SLT PUSH2 0x779 JUMPI POP MLOAD SWAP1 JUMP JUMPDEST RETURNDATASIZE SWAP2 POP PUSH2 0x43B0 JUMP JUMPDEST PUSH1 0x40 MLOAD RETURNDATASIZE PUSH1 0x0 DUP3 RETURNDATACOPY RETURNDATASIZE SWAP1 REVERT JUMPDEST SWAP2 SWAP1 DUP3 ADD DUP1 SWAP3 GT PUSH2 0x4310 JUMPI JUMP JUMPDEST DUP1 MLOAD DUP3 LT ISZERO PUSH2 0x3B52 JUMPI PUSH1 0x20 SWAP2 PUSH1 0x5 SHL ADD ADD SWAP1 JUMP JUMPDEST SWAP1 PUSH1 0x0 SWAP2 PUSH1 0x0 SWAP1 PUSH2 0x137 DUP1 SLOAD SWAP1 PUSH1 0x0 SWAP3 JUMPDEST DUP3 DUP5 LT PUSH2 0x4436 JUMPI POP POP POP POP PUSH2 0x4432 PUSH8 0xDE0B6B3A7640000 SWAP2 PUSH2 0x139 SLOAD SWAP1 PUSH2 0x4510 JUMP JUMPDEST DIV SWAP1 JUMP JUMPDEST SWAP1 SWAP2 SWAP3 SWAP4 SWAP6 PUSH2 0x4483 PUSH2 0x4472 PUSH2 0x447D PUSH1 0x1 SWAP4 PUSH2 0x4477 PUSH2 0x4454 DUP11 DUP9 PUSH2 0x43EB JUMP JUMPDEST MLOAD PUSH2 0x445F DUP2 DUP13 PUSH2 0x44A9 JUMP JUMPDEST SWAP6 SWAP1 PUSH2 0x446B DUP14 DUP13 PUSH2 0x3C6F JUMP JUMPDEST POP SLOAD PUSH2 0x43DE JUMP JUMPDEST PUSH2 0x582D JUMP JUMPDEST SWAP1 PUSH2 0x43DE JUMP JUMPDEST SWAP9 PUSH2 0x43DE JUMP JUMPDEST SWAP5 ADD SWAP3 SWAP2 SWAP1 PUSH2 0x4410 JUMP JUMPDEST SWAP2 SWAP1 SWAP2 PUSH1 0x0 DUP4 DUP3 ADD SWAP4 DUP5 SLT SWAP2 SLT SWAP1 DUP1 ISZERO DUP3 AND SWAP2 ISZERO AND OR PUSH2 0x4310 JUMPI JUMP JUMPDEST SWAP2 SWAP1 PUSH1 0x0 SWAP1 PUSH2 0x44D7 DUP2 PUSH1 0x0 SWAP6 PUSH2 0x44CD PUSH2 0x44C4 DUP3 PUSH2 0x150 PUSH2 0x3B3A JUMP JUMPDEST SWAP4 SWAP1 SLOAD SWAP3 PUSH2 0x455C JUMP JUMPDEST SWAP2 PUSH1 0x3 SHL SHR PUSH2 0x448D JUMP JUMPDEST PUSH1 0x0 DUP2 SGT PUSH2 0x44E6 JUMPI JUMPDEST POP POP SWAP2 SWAP1 JUMP JUMPDEST PUSH2 0x4508 SWAP2 SWAP5 POP PUSH2 0x266D SWAP3 POP DUP1 SWAP5 PUSH8 0xDE0B6B3A7640000 SWAP4 DUP5 SWAP2 PUSH2 0x13A SLOAD PUSH2 0x4510 JUMP JUMPDEST DIV CODESIZE DUP1 PUSH2 0x44E0 JUMP JUMPDEST DUP2 DUP2 MUL SWAP3 SWAP2 DUP2 ISZERO SWAP2 DUP5 DIV EQ OR ISZERO PUSH2 0x4310 JUMPI JUMP JUMPDEST DUP2 ISZERO PUSH2 0x452D JUMPI DIV SWAP1 JUMP JUMPDEST PUSH4 0x4E487B71 PUSH1 0xE0 SHL PUSH1 0x0 MSTORE PUSH1 0x12 PUSH1 0x4 MSTORE PUSH1 0x24 PUSH1 0x0 REVERT JUMPDEST DUP2 DUP2 SUB SWAP3 SWAP2 PUSH1 0x0 SGT DUP1 ISZERO DUP3 DUP6 SGT AND SWAP2 DUP5 SLT AND OR PUSH2 0x4310 JUMPI JUMP JUMPDEST PUSH2 0x4568 DUP2 PUSH2 0x137 PUSH2 0x3C6F JUMP JUMPDEST POP SLOAD SWAP1 PUSH8 0xDE0B6B3A7640000 SWAP2 DUP3 DUP2 MUL SWAP3 DUP2 DUP5 DIV EQ SWAP1 ISZERO OR ISZERO PUSH2 0x4310 JUMPI PUSH2 0x3BBC SWAP3 PUSH2 0x45A8 PUSH2 0x459B PUSH2 0x45AE SWAP4 PUSH2 0x151 PUSH2 0x3B3A JUMP JUMPDEST SWAP1 SLOAD SWAP1 PUSH1 0x3 SHL SHR DUP5 PUSH2 0x4523 JUMP JUMPDEST SWAP3 PUSH2 0x4523 JUMP JUMPDEST SWAP1 PUSH2 0x4543 JUMP JUMPDEST DUP1 ISZERO PUSH2 0x45CA JUMPI PUSH2 0x4472 PUSH2 0x3BBC SWAP3 PUSH2 0x131 SLOAD PUSH2 0x4303 JUMP JUMPDEST POP POP PUSH1 0x0 NOT SWAP1 JUMP JUMPDEST PUSH8 0xFFFFFFFFFFFFFFFF DUP2 GT PUSH2 0x3CAD JUMPI PUSH1 0x5 SHL PUSH1 0x20 ADD SWAP1 JUMP JUMPDEST SWAP1 PUSH2 0x45F4 DUP3 PUSH2 0x45D2 JUMP JUMPDEST PUSH2 0x4601 PUSH1 0x40 MLOAD SWAP2 DUP3 PUSH2 0x3C8B JUMP JUMPDEST DUP3 DUP2 MSTORE DUP1 SWAP3 PUSH2 0x4612 PUSH1 0x1F NOT SWAP2 PUSH2 0x45D2 JUMP JUMPDEST ADD SWAP1 PUSH1 0x20 CALLDATASIZE SWAP2 ADD CALLDATACOPY JUMP JUMPDEST PUSH2 0x131 SLOAD DUP1 ISZERO PUSH2 0x3F22 JUMPI PUSH2 0x137 SWAP1 DUP2 SLOAD SWAP2 PUSH1 0x0 SWAP1 PUSH2 0x4639 DUP5 PUSH2 0x45EA JUMP JUMPDEST SWAP1 DUP3 SWAP1 JUMPDEST DUP6 DUP3 LT PUSH2 0x46A8 JUMPI POP POP PUSH1 0x0 JUMPDEST DUP5 DUP2 LT PUSH2 0x4657 JUMPI POP POP POP POP POP JUMP JUMPDEST PUSH2 0x4674 DUP5 PUSH2 0x466F DUP6 PUSH2 0x4669 DUP6 DUP8 PUSH2 0x43EB JUMP JUMPDEST MLOAD PUSH2 0x4510 JUMP JUMPDEST PUSH2 0x4523 JUMP JUMPDEST SWAP1 PUSH2 0x138 SWAP2 DUP3 SLOAD PUSH9 0x10000000000000000 DUP2 LT ISZERO PUSH2 0x3CAD JUMPI PUSH2 0x2686 DUP2 PUSH1 0x1 SWAP6 DUP7 PUSH2 0x46A0 SWAP5 ADD DUP2 SSTORE PUSH2 0x3B3A JUMP JUMPDEST SWAP1 SSTORE ADD PUSH2 0x4649 JUMP JUMPDEST SWAP1 SWAP3 PUSH2 0x46E4 PUSH1 0x1 SWAP2 PUSH2 0x46B9 DUP7 PUSH2 0x4727 JUMP JUMPDEST PUSH2 0x46C3 DUP8 DUP8 PUSH2 0x43EB JUMP JUMPDEST MSTORE PUSH2 0x4477 PUSH2 0x46D1 DUP8 DUP7 PUSH2 0x3C6F JUMP JUMPDEST POP SLOAD PUSH2 0x46DD DUP9 DUP9 PUSH2 0x43EB JUMP JUMPDEST MLOAD SWAP1 PUSH2 0x582D JUMP JUMPDEST SWAP4 ADD SWAP1 PUSH2 0x463D JUMP JUMPDEST PUSH1 0x1 PUSH1 0x1 PUSH1 0xA0 SHL SUB AND PUSH1 0x0 SWAP1 DUP2 MSTORE PUSH2 0x136 PUSH1 0x20 MSTORE PUSH1 0x40 SWAP1 KECCAK256 PUSH1 0x1 DUP2 ADD SLOAD PUSH1 0xFF AND ISZERO PUSH2 0x4715 JUMPI SLOAD SWAP1 JUMP JUMPDEST PUSH1 0x40 MLOAD PUSH4 0xE6C4247B PUSH1 0xE0 SHL DUP2 MSTORE PUSH1 0x4 SWAP1 REVERT JUMPDEST PUSH2 0x4733 SWAP1 PUSH2 0x137 PUSH2 0x3C6F JUMP JUMPDEST POP PUSH1 0x1 ADD SLOAD PUSH1 0x1 PUSH1 0x1 PUSH1 0xA0 SHL SUB AND PUSH2 0x474A DUP2 PUSH2 0x4788 JUMP JUMPDEST SWAP2 SWAP1 SWAP2 ISZERO PUSH2 0x4756 JUMPI POP SWAP1 JUMP JUMPDEST PUSH1 0x24 SWAP1 PUSH1 0x40 MLOAD SWAP1 PUSH4 0x7F6E4DB9 PUSH1 0xE0 SHL DUP3 MSTORE PUSH1 0x4 DUP3 ADD MSTORE REVERT JUMPDEST SWAP2 SWAP1 DUP3 PUSH1 0x40 SWAP2 SUB SLT PUSH2 0x701 JUMPI PUSH2 0x3BBC PUSH1 0x20 DUP4 MLOAD SWAP4 ADD PUSH2 0x4204 JUMP JUMPDEST PUSH1 0x40 DUP1 MLOAD PUSH4 0x59E02DD7 PUSH1 0xE0 SHL DUP2 MSTORE SWAP3 SWAP2 DUP4 SWAP1 PUSH1 0x4 SWAP1 DUP3 SWAP1 PUSH1 0x1 PUSH1 0x1 PUSH1 0xA0 SHL SUB AND GAS STATICCALL SWAP2 DUP3 ISZERO PUSH2 0x43D2 JUMPI PUSH1 0x0 SWAP1 DUP2 SWAP4 PUSH2 0x47BF JUMPI POP SWAP2 SWAP1 JUMP JUMPDEST SWAP1 POP PUSH2 0x47E3 SWAP2 SWAP3 POP PUSH1 0x40 RETURNDATASIZE DUP2 GT PUSH2 0x47E7 JUMPI JUMPDEST PUSH2 0x47DB DUP2 DUP4 PUSH2 0x3C8B JUMP JUMPDEST DUP2 ADD SWAP1 PUSH2 0x476E JUMP JUMPDEST SWAP1 SWAP2 JUMP JUMPDEST POP RETURNDATASIZE PUSH2 0x47D1 JUMP JUMPDEST PUSH2 0x137 SLOAD SWAP1 PUSH2 0x47FC DUP3 PUSH2 0x45EA JUMP JUMPDEST SWAP2 PUSH1 0x0 JUMPDEST DUP2 DUP2 LT PUSH2 0x480B JUMPI POP POP JUMP JUMPDEST DUP1 PUSH2 0x4817 PUSH1 0x1 SWAP3 PUSH2 0x4727 JUMP JUMPDEST PUSH2 0x4821 DUP3 DUP8 PUSH2 0x43EB JUMP JUMPDEST MSTORE ADD PUSH2 0x4800 JUMP JUMPDEST SWAP1 PUSH2 0x4849 PUSH8 0xDE0B6B3A7640000 SWAP3 DUP4 PUSH2 0x157 SLOAD PUSH2 0x154 SLOAD SWAP3 NUMBER ADD SUB MUL PUSH2 0x4523 JUMP JUMPDEST DUP3 DUP2 LT ISZERO PUSH2 0x4866 JUMPI DUP3 SUB SWAP2 DUP1 DUP4 PUSH2 0x155 SLOAD MUL DIV SWAP3 PUSH2 0x156 SLOAD MUL SDIV SWAP1 JUMP JUMPDEST POP PUSH1 0x0 SWAP2 POP DUP2 SWAP1 JUMP JUMPDEST SWAP1 SWAP2 PUSH2 0x4879 PUSH2 0x48D1 JUMP JUMPDEST SWAP3 SWAP1 DUP1 DUP3 LT ISZERO PUSH2 0x48C7 JUMPI DUP4 SWAP2 PUSH2 0x488E SWAP2 PUSH2 0x4303 JUMP JUMPDEST SWAP4 GT ISZERO PUSH2 0x48C2 JUMPI DUP2 DUP2 LT ISZERO PUSH2 0x48BA JUMPI PUSH2 0x48A6 SWAP2 PUSH2 0x4303 JUMP JUMPDEST PUSH1 0x1 SHR DUP1 DUP3 LT ISZERO PUSH2 0x48B5 JUMPI POP SWAP1 JUMP JUMPDEST SWAP1 POP SWAP1 JUMP JUMPDEST POP POP POP PUSH1 0x0 SWAP1 JUMP JUMPDEST POP POP SWAP1 JUMP JUMPDEST POP POP POP POP POP PUSH1 0x0 SWAP1 JUMP JUMPDEST PUSH2 0x152 SLOAD PUSH1 0x40 DUP1 MLOAD PUSH4 0x59E02DD7 PUSH1 0xE0 SHL DUP1 DUP3 MSTORE SWAP4 SWAP3 SWAP1 SWAP2 SWAP1 PUSH1 0x1 PUSH1 0x1 PUSH1 0xA0 SHL SUB SWAP1 DUP2 AND DUP3 DUP5 PUSH1 0x4 DUP2 DUP5 GAS STATICCALL DUP1 ISZERO PUSH2 0x49C1 JUMPI PUSH1 0x0 SWAP5 DUP6 SWAP2 PUSH2 0x499E JUMPI JUMPDEST POP ISZERO PUSH2 0x4987 JUMPI POP PUSH2 0x153 SLOAD AND SWAP1 DUP1 MLOAD SWAP5 DUP6 MSTORE DUP1 DUP6 PUSH1 0x4 DUP2 DUP6 GAS STATICCALL DUP1 ISZERO PUSH2 0x497C JUMPI PUSH1 0x0 SWAP6 DUP7 SWAP2 PUSH2 0x4959 JUMPI JUMPDEST POP ISZERO PUSH2 0x4942 JUMPI POP POP SWAP2 SWAP1 JUMP JUMPDEST PUSH1 0x24 SWAP3 POP MLOAD SWAP1 PUSH4 0x5E89893 PUSH1 0xE1 SHL DUP3 MSTORE PUSH1 0x4 DUP3 ADD MSTORE REVERT JUMPDEST SWAP1 POP DUP2 PUSH2 0x4973 SWAP3 SWAP7 POP RETURNDATASIZE DUP8 GT PUSH2 0x47E7 JUMPI PUSH2 0x47DB DUP2 DUP4 PUSH2 0x3C8B JUMP JUMPDEST SWAP5 SWAP1 SWAP5 CODESIZE PUSH2 0x4936 JUMP JUMPDEST POP MLOAD RETURNDATASIZE PUSH1 0x0 DUP3 RETURNDATACOPY RETURNDATASIZE SWAP1 REVERT JUMPDEST PUSH1 0x24 SWAP1 DUP4 MLOAD SWAP1 PUSH4 0x5E89893 PUSH1 0xE1 SHL DUP3 MSTORE PUSH1 0x4 DUP3 ADD MSTORE REVERT JUMPDEST SWAP1 POP PUSH2 0x49B8 SWAP2 SWAP5 POP DUP4 RETURNDATASIZE DUP6 GT PUSH2 0x47E7 JUMPI PUSH2 0x47DB DUP2 DUP4 PUSH2 0x3C8B JUMP JUMPDEST SWAP4 SWAP1 SWAP4 CODESIZE PUSH2 0x490C JUMP JUMPDEST DUP4 MLOAD RETURNDATASIZE PUSH1 0x0 DUP3 RETURNDATACOPY RETURNDATASIZE SWAP1 REVERT JUMPDEST ISZERO PUSH2 0x49D3 JUMPI JUMP JUMPDEST PUSH1 0x40 MLOAD PUSH3 0x461BCD PUSH1 0xE5 SHL DUP2 MSTORE PUSH1 0x20 PUSH1 0x4 DUP3 ADD MSTORE PUSH1 0x2B PUSH1 0x24 DUP3 ADD MSTORE PUSH32 0x496E697469616C697A61626C653A20636F6E7472616374206973206E6F742069 PUSH1 0x44 DUP3 ADD MSTORE PUSH11 0x6E697469616C697A696E67 PUSH1 0xA8 SHL PUSH1 0x64 DUP3 ADD MSTORE PUSH1 0x84 SWAP1 REVERT JUMPDEST SWAP1 PUSH2 0x3BBC SWAP2 PUSH1 0x0 DUP1 PUSH2 0x4A3C PUSH2 0x4055 JUMP JUMPDEST SWAP4 PUSH1 0x20 DUP2 MLOAD SWAP2 ADD DUP5 GAS DELEGATECALL PUSH2 0x3F1C PUSH2 0x40A9 JUMP JUMPDEST PUSH1 0xFF PUSH2 0x14B SLOAD PUSH1 0x10 SHR AND ISZERO SWAP2 DUP3 PUSH2 0x4A7A JUMPI JUMPDEST POP POP PUSH2 0x4A68 JUMPI JUMP JUMPDEST PUSH1 0x40 MLOAD PUSH4 0x6F97B883 PUSH1 0xE0 SHL DUP2 MSTORE PUSH1 0x4 SWAP1 REVERT JUMPDEST PUSH1 0x1 PUSH1 0x1 PUSH1 0xA0 SHL SUB SWAP2 DUP3 AND SWAP2 AND EQ ISZERO SWAP1 POP CODESIZE DUP1 PUSH2 0x4A60 JUMP JUMPDEST PUSH2 0x4B00 SWAP4 PUSH2 0x4AC7 PUSH1 0x0 SWAP3 PUSH1 0x20 SWAP6 PUSH2 0x4AAB DUP3 PUSH2 0x137 PUSH2 0x3C6F JUMP JUMPDEST POP PUSH2 0x4AB7 DUP8 DUP3 SLOAD PUSH2 0x43DE JUMP JUMPDEST SWAP1 SSTORE PUSH2 0x1629 PUSH2 0x131 SWAP2 DUP3 SLOAD PUSH2 0x43DE JUMP JUMPDEST SWAP1 SLOAD PUSH1 0x40 MLOAD PUSH4 0x40C10F19 PUSH1 0xE0 SHL DUP2 MSTORE PUSH1 0x1 PUSH1 0x1 PUSH1 0xA0 SHL SUB SWAP1 SWAP4 AND PUSH1 0x4 DUP5 ADD MSTORE PUSH1 0x24 DUP4 ADD SWAP5 SWAP1 SWAP5 MSTORE SWAP1 SWAP5 DUP6 SWAP4 SWAP3 DUP5 SWAP3 SWAP1 SWAP2 DUP4 SWAP1 PUSH1 0x44 DUP3 ADD SWAP1 JUMP JUMPDEST SUB SWAP4 PUSH1 0x3 SWAP2 SWAP1 SWAP2 SHL SHR PUSH1 0x1 PUSH1 0x1 PUSH1 0xA0 SHL SUB AND GAS CALL DUP1 ISZERO PUSH2 0x43D2 JUMPI PUSH2 0x4B21 JUMPI POP JUMP JUMPDEST PUSH1 0x20 DUP2 RETURNDATASIZE DUP3 GT PUSH2 0x4B4A JUMPI JUMPDEST DUP2 PUSH2 0x4B39 PUSH1 0x20 SWAP4 DUP4 PUSH2 0x3C8B JUMP JUMPDEST DUP2 ADD SUB SLT PUSH2 0x701 JUMPI PUSH2 0x3F22 SWAP1 PUSH2 0x4204 JUMP JUMPDEST RETURNDATASIZE SWAP2 POP PUSH2 0x4B2C JUMP JUMPDEST PUSH2 0x2686 PUSH2 0x435F SWAP2 PUSH2 0x4B63 DUP5 DUP3 PUSH2 0x455C JUMP JUMPDEST PUSH2 0x4B99 PUSH2 0x4B72 DUP4 PUSH2 0x150 PUSH2 0x3B3A JUMP JUMPDEST PUSH2 0x4B85 DUP3 SWAP5 SWAP3 SLOAD SWAP3 DUP4 DUP4 PUSH1 0x3 SHL SHR PUSH2 0x448D JUMP JUMPDEST SWAP2 SWAP1 PUSH1 0x3 SHL SWAP2 DUP3 SHL SWAP2 PUSH1 0x0 NOT SWAP1 SHL NOT AND OR SWAP1 JUMP JUMPDEST SWAP1 SSTORE PUSH2 0x151 PUSH2 0x3B3A JUMP JUMPDEST PUSH1 0xE0 DUP2 ADD SWAP3 SWAP2 PUSH1 0xC0 SWAP1 DUP2 SWAP1 PUSH1 0x1 PUSH1 0x1 PUSH1 0xA0 SHL SUB DUP1 PUSH2 0x4BC0 DUP4 PUSH2 0x3B68 JUMP JUMPDEST AND DUP6 MSTORE PUSH2 0x4BCF PUSH1 0x20 DUP4 ADD PUSH2 0x3B68 JUMP JUMPDEST AND PUSH1 0x20 DUP6 ADD MSTORE PUSH1 0x40 DUP2 ADD CALLDATALOAD PUSH1 0x40 DUP6 ADD MSTORE PUSH1 0x60 DUP2 ADD CALLDATALOAD PUSH1 0x60 DUP6 ADD MSTORE PUSH1 0x80 DUP2 ADD CALLDATALOAD PUSH1 0x80 DUP6 ADD MSTORE PUSH1 0xA0 DUP2 ADD CALLDATALOAD PUSH1 0xA0 DUP6 ADD MSTORE ADD CALLDATALOAD SWAP2 ADD MSTORE JUMP JUMPDEST SWAP1 PUSH2 0x134 SLOAD SWAP1 DUP2 ISZERO PUSH2 0x4C29 JUMPI PUSH2 0x3BBC SWAP3 PUSH2 0x4C24 PUSH2 0x4472 SWAP3 PUSH2 0x131 SLOAD PUSH2 0x4303 JUMP JUMPDEST PUSH2 0x4303 JUMP JUMPDEST POP POP POP PUSH8 0xDE0B6B3A7640000 SWAP1 JUMP JUMPDEST DUP3 DUP3 PUSH2 0x4C43 SWAP3 PUSH2 0x4C60 JUMP JUMPDEST SWAP1 PUSH1 0x0 DUP3 SGT ISZERO PUSH2 0x48BA JUMPI PUSH2 0x3BBC SWAP3 PUSH2 0x4C5A SWAP2 PUSH2 0x4C04 JUMP JUMPDEST SWAP1 PUSH2 0x4523 JUMP JUMPDEST SWAP1 SWAP2 PUSH2 0x4C6F SWAP1 PUSH2 0x131 SLOAD PUSH2 0x4303 JUMP JUMPDEST SWAP1 PUSH8 0xDE0B6B3A7640000 SWAP2 DUP3 DUP2 MUL SWAP3 DUP2 DUP5 DIV EQ SWAP1 ISZERO OR ISZERO PUSH2 0x4310 JUMPI PUSH2 0x3BBC SWAP3 PUSH2 0x45AE SWAP2 PUSH2 0x4510 JUMP JUMPDEST SWAP3 PUSH2 0x4CA5 SWAP3 SWAP4 SWAP5 SWAP2 SWAP5 PUSH2 0x4C60 JUMP JUMPDEST DUP2 DUP2 MUL SWAP2 PUSH1 0x0 SWAP2 PUSH1 0x1 PUSH1 0xFF SHL SWAP2 DUP4 DUP3 SLT DUP4 DUP3 EQ AND PUSH2 0x4D49 JUMPI DUP2 DUP6 SDIV EQ SWAP1 ISZERO OR ISZERO PUSH2 0x4D35 JUMPI PUSH8 0xDE0B6B3A763FFFF NOT DUP5 ADD SWAP4 DUP5 GT PUSH2 0x4D35 JUMPI PUSH8 0xDE0B6B3A7640000 SWAP4 DUP5 DUP2 MUL SWAP5 DUP2 DUP7 DIV EQ SWAP1 ISZERO OR ISZERO PUSH2 0x4D35 JUMPI DUP4 ISZERO PUSH2 0x4D21 JUMPI DUP3 EQ PUSH1 0x0 NOT DUP5 EQ AND PUSH2 0x4D0D JUMPI POP SDIV SWAP1 JUMP JUMPDEST PUSH4 0x4E487B71 PUSH1 0xE0 SHL DUP2 MSTORE PUSH1 0x11 PUSH1 0x4 MSTORE PUSH1 0x24 SWAP1 REVERT JUMPDEST PUSH4 0x4E487B71 PUSH1 0xE0 SHL DUP3 MSTORE PUSH1 0x12 PUSH1 0x4 MSTORE PUSH1 0x24 DUP3 REVERT JUMPDEST PUSH4 0x4E487B71 PUSH1 0xE0 SHL DUP3 MSTORE PUSH1 0x11 PUSH1 0x4 MSTORE PUSH1 0x24 DUP3 REVERT JUMPDEST PUSH4 0x4E487B71 PUSH1 0xE0 SHL DUP5 MSTORE PUSH1 0x11 PUSH1 0x4 MSTORE PUSH1 0x24 DUP5 REVERT JUMPDEST PUSH2 0x14D SLOAD DUP1 NUMBER LT ISZERO PUSH2 0x4D74 JUMPI PUSH2 0x3BBC SWAP1 NUMBER SWAP1 PUSH2 0x4303 JUMP JUMPDEST POP PUSH1 0x0 SWAP1 JUMP JUMPDEST SWAP1 PUSH1 0x40 MLOAD PUSH2 0x4D89 PUSH1 0x40 DUP3 PUSH2 0x3C8B JUMP JUMPDEST PUSH1 0x20 PUSH1 0x1 DUP3 SWAP5 DUP1 SLOAD DUP5 MSTORE ADD SLOAD SWAP2 ADD MSTORE JUMP JUMPDEST PUSH2 0x4DA6 DUP2 PUSH2 0x148 PUSH2 0x3B3A JUMP JUMPDEST SWAP1 SLOAD SWAP1 PUSH1 0x3 SHL SHR SWAP2 PUSH2 0x18E SWAP2 PUSH2 0x4DBC DUP2 DUP5 PUSH2 0x3C6F JUMP JUMPDEST POP SLOAD SWAP3 PUSH2 0x18F SLOAD NUMBER LT ISZERO PUSH2 0x4DE2 JUMPI JUMPDEST POP POP DUP1 DUP3 LT ISZERO PUSH2 0x48C2 JUMPI PUSH2 0x466F SWAP1 PUSH2 0x3BBC SWAP4 PUSH2 0x4510 JUMP JUMPDEST DUP3 SWAP4 POP PUSH2 0x4DF6 PUSH2 0x4E01 SWAP4 SWAP3 PUSH2 0x4DFC SWAP3 PUSH2 0x3C6F JUMP JUMPDEST POP PUSH2 0x4D7A JUMP JUMPDEST PUSH2 0x4E09 JUMP JUMPDEST SWAP1 CODESIZE DUP1 PUSH2 0x4DCB JUMP JUMPDEST PUSH1 0x20 DUP2 MLOAD SWAP2 ADD DUP1 MLOAD SWAP3 PUSH8 0xDE0B6B3A7640000 SWAP4 DUP5 SUB SWAP1 DUP5 DUP3 GT PUSH2 0x4310 JUMPI PUSH2 0x4E36 PUSH2 0x4477 SWAP3 PUSH2 0x4432 SWAP6 PUSH2 0x4510 JUMP JUMPDEST SWAP3 MLOAD PUSH2 0x4510 JUMP JUMPDEST PUSH1 0x0 DUP1 PUSH2 0x137 SWAP2 DUP3 SLOAD SWAP3 PUSH2 0x4E50 DUP5 PUSH2 0x45EA JUMP JUMPDEST SWAP4 DUP3 SWAP2 JUMPDEST DUP2 DUP4 LT PUSH2 0x4E7D JUMPI POP POP POP DUP2 ISZERO PUSH2 0x4E71 JUMPI SWAP1 PUSH2 0x4E6E SWAP2 PUSH2 0x4523 JUMP JUMPDEST SWAP2 JUMP JUMPDEST POP POP PUSH2 0x149 SLOAD PUSH1 0x1 SHL SWAP2 JUMP JUMPDEST SWAP1 SWAP2 SWAP4 SWAP3 PUSH2 0x4E8A DUP6 PUSH2 0x4727 JUMP JUMPDEST SWAP1 DUP2 PUSH2 0x4E96 DUP8 DUP10 PUSH2 0x43EB JUMP JUMPDEST MSTORE PUSH2 0x4EAF PUSH2 0x4EA4 DUP4 DUP9 PUSH2 0x44A9 JUMP JUMPDEST POP PUSH2 0x446B DUP9 DUP7 PUSH2 0x3C6F JUMP JUMPDEST PUSH8 0xDE0B6B3A7640000 SWAP1 DUP2 DUP2 MUL SWAP2 DUP2 DUP4 DIV EQ SWAP1 ISZERO OR ISZERO PUSH2 0x4310 JUMPI PUSH2 0x4EF1 PUSH2 0x4EF7 SWAP3 PUSH2 0x4477 DUP6 PUSH2 0x4EE3 PUSH1 0x1 SWAP8 PUSH2 0x4EEC SWAP7 PUSH2 0x582D JUMP JUMPDEST SWAP5 DUP6 SWAP2 DUP13 PUSH2 0x4D9A JUMP JUMPDEST PUSH2 0x4510 JUMP JUMPDEST SWAP6 PUSH2 0x43DE JUMP JUMPDEST SWAP5 ADD SWAP2 SWAP1 PUSH2 0x4E54 JUMP JUMPDEST PUSH2 0x18F DUP1 SLOAD NUMBER LT ISZERO PUSH2 0x4F0F JUMPI POP JUMP JUMPDEST PUSH2 0x137 SLOAD PUSH1 0x0 JUMPDEST DUP2 DUP2 LT PUSH2 0x4F29 JUMPI POP POP PUSH2 0x190 SLOAD NUMBER ADD SWAP1 SSTORE JUMP JUMPDEST DUP1 DUP1 PUSH32 0x19156E9379C7BBBCE8F646CE5EE30BA860B8F954717405F3D5859A6C1A21AE60 PUSH1 0x1 SWAP4 PUSH2 0x18E PUSH2 0x4F5F PUSH2 0x4DF6 DUP4 DUP4 PUSH2 0x3C6F JUMP JUMPDEST SWAP1 PUSH2 0x4F7D PUSH2 0x4F75 PUSH2 0x4F6F DUP6 PUSH2 0x4727 JUMP JUMPDEST DUP5 PUSH2 0x4E09 JUMP JUMPDEST SWAP4 DUP5 SWAP3 PUSH2 0x3C6F JUMP JUMPDEST POP SSTORE MLOAD PUSH1 0x40 SWAP2 DUP3 MLOAD SWAP2 DUP3 MSTORE PUSH1 0x20 DUP3 ADD MSTORE LOG2 ADD PUSH2 0x4F16 JUMP JUMPDEST PUSH2 0x3BFB SWAP1 PUSH2 0x14E PUSH2 0x4FA6 DUP3 DUP3 SLOAD PUSH2 0x43DE JUMP JUMPDEST SWAP1 SSTORE PUSH2 0x229 SLOAD ADDRESS SWAP1 CALLER SWAP1 PUSH1 0x1 PUSH1 0x1 PUSH1 0xA0 SHL SUB AND JUMPDEST PUSH1 0x40 MLOAD PUSH4 0x23B872DD PUSH1 0xE0 SHL PUSH1 0x20 DUP3 ADD MSTORE PUSH1 0x1 PUSH1 0x1 PUSH1 0xA0 SHL SUB SWAP3 DUP4 AND PUSH1 0x24 DUP3 ADD MSTORE SWAP3 SWAP1 SWAP2 AND PUSH1 0x44 DUP4 ADD MSTORE PUSH1 0x64 DUP1 DUP4 ADD SWAP4 SWAP1 SWAP4 MSTORE SWAP2 DUP2 MSTORE PUSH2 0x3BFB SWAP2 PUSH2 0x41FF PUSH1 0x84 DUP4 PUSH2 0x3C8B JUMP JUMPDEST PUSH1 0xFF PUSH2 0x14B SLOAD PUSH1 0x8 SHR AND PUSH2 0x500E JUMPI JUMP JUMPDEST PUSH1 0x40 MLOAD PUSH4 0x1CA61D77 PUSH1 0xE0 SHL DUP2 MSTORE PUSH1 0x4 SWAP1 REVERT JUMPDEST PUSH1 0xA0 SWAP1 DUP2 PUSH1 0x1 DUP1 DUP3 SHL SUB SWAP2 DUP3 DUP2 MLOAD AND DUP6 MSTORE PUSH1 0x20 DUP2 ADD MLOAD PUSH1 0x20 DUP7 ADD MSTORE PUSH1 0x40 DUP2 ADD MLOAD PUSH1 0x40 DUP7 ADD MSTORE DUP3 PUSH1 0x60 DUP3 ADD MLOAD AND PUSH1 0x60 DUP7 ADD MSTORE DUP3 PUSH1 0x80 DUP3 ADD MLOAD AND PUSH1 0x80 DUP7 ADD MSTORE ADD MLOAD AND SWAP2 ADD MSTORE JUMP JUMPDEST SWAP2 SWAP1 SWAP2 PUSH1 0xE0 PUSH2 0x100 DUP3 ADD SWAP4 DUP2 PUSH1 0x1 DUP1 PUSH1 0xA0 SHL SUB SWAP2 DUP3 DUP2 MLOAD AND DUP6 MSTORE DUP3 PUSH1 0x20 DUP3 ADD MLOAD AND PUSH1 0x20 DUP7 ADD MSTORE PUSH1 0x40 DUP2 ADD MLOAD PUSH1 0x40 DUP7 ADD MSTORE PUSH1 0x60 DUP2 ADD MLOAD PUSH1 0x60 DUP7 ADD MSTORE PUSH1 0x80 DUP2 ADD MLOAD PUSH1 0x80 DUP7 ADD MSTORE DUP3 PUSH1 0xA0 DUP3 ADD MLOAD AND PUSH1 0xA0 DUP7 ADD MSTORE DUP3 PUSH1 0xC0 DUP3 ADD MLOAD AND PUSH1 0xC0 DUP7 ADD MSTORE ADD MLOAD AND SWAP2 ADD MSTORE JUMP JUMPDEST PUSH1 0xC0 SWAP1 DUP2 PUSH1 0x1 DUP1 PUSH1 0xA0 SHL SUB SWAP2 DUP3 DUP2 MLOAD AND DUP6 MSTORE PUSH1 0x20 DUP2 ADD MLOAD PUSH1 0x20 DUP7 ADD MSTORE PUSH1 0x40 DUP2 ADD MLOAD PUSH1 0x40 DUP7 ADD MSTORE PUSH1 0x60 DUP2 ADD MLOAD PUSH1 0x60 DUP7 ADD MSTORE DUP3 PUSH1 0x80 DUP3 ADD MLOAD AND PUSH1 0x80 DUP7 ADD MSTORE DUP3 PUSH1 0xA0 DUP3 ADD MLOAD AND PUSH1 0xA0 DUP7 ADD MSTORE ADD MLOAD AND SWAP2 ADD MSTORE JUMP JUMPDEST PUSH1 0x40 MLOAD SWAP1 PUSH2 0x5128 PUSH1 0x80 DUP4 PUSH2 0x3C8B JUMP JUMPDEST PUSH1 0x0 PUSH1 0x60 DUP4 DUP3 DUP2 MSTORE DUP3 PUSH1 0x20 DUP3 ADD MSTORE DUP3 PUSH1 0x40 DUP3 ADD MSTORE ADD MSTORE JUMP JUMPDEST SWAP2 SWAP1 DUP3 PUSH1 0xA0 SWAP2 SUB SLT PUSH2 0x701 JUMPI PUSH1 0x40 MLOAD PUSH2 0x515A PUSH1 0xA0 DUP3 PUSH2 0x3C8B JUMP JUMPDEST PUSH1 0x80 PUSH2 0x5198 DUP2 DUP4 SWAP6 DUP1 CALLDATALOAD DUP6 MSTORE PUSH1 0x20 DUP2 ADD CALLDATALOAD PUSH1 0x20 DUP7 ADD MSTORE PUSH2 0x517C PUSH1 0x40 DUP3 ADD PUSH2 0x3B68 JUMP JUMPDEST PUSH1 0x40 DUP7 ADD MSTORE PUSH2 0x518D PUSH1 0x60 DUP3 ADD PUSH2 0x3B68 JUMP JUMPDEST PUSH1 0x60 DUP7 ADD MSTORE ADD PUSH2 0x3B68 JUMP JUMPDEST SWAP2 ADD MSTORE JUMP JUMPDEST SWAP2 SWAP1 PUSH2 0x51A8 SWAP1 PUSH2 0x43FF JUMP JUMPDEST SWAP2 SWAP1 SWAP3 PUSH2 0x51B5 DUP4 DUP6 PUSH2 0x45B4 JUMP JUMPDEST SWAP1 DUP1 DUP3 GT ISZERO PUSH2 0x51C2 JUMPI POP POP JUMP JUMPDEST PUSH1 0x44 SWAP3 POP PUSH1 0x40 MLOAD SWAP2 PUSH4 0x79121201 PUSH1 0xE0 SHL DUP4 MSTORE PUSH1 0x4 DUP4 ADD MSTORE PUSH1 0x24 DUP3 ADD MSTORE REVERT JUMPDEST SWAP3 SWAP1 SWAP4 SWAP2 PUSH1 0x0 SWAP2 PUSH1 0x0 SWAP2 DUP3 SWAP7 PUSH2 0x51F4 PUSH2 0x5119 JUMP JUMPDEST SWAP7 PUSH1 0x1 PUSH1 0x1 PUSH1 0xA0 SHL SUB SWAP2 DUP6 SWAP1 DUP4 AND DUP1 PUSH2 0x5400 JUMPI JUMPDEST POP DUP3 PUSH2 0x12F SLOAD AND DUP4 PUSH1 0x40 MLOAD SWAP4 PUSH4 0x6EB1769F PUSH1 0xE1 SHL DUP6 MSTORE AND DUP1 PUSH1 0x4 DUP6 ADD MSTORE ADDRESS PUSH1 0x24 DUP6 ADD MSTORE PUSH1 0x20 SWAP5 DUP6 DUP6 PUSH1 0x44 DUP2 DUP7 GAS STATICCALL SWAP5 DUP6 ISZERO PUSH2 0x53F5 JUMPI DUP5 SWAP6 PUSH2 0x53C6 JUMPI JUMPDEST POP DUP5 PUSH2 0x52A5 JUMPI JUMPDEST POP POP POP POP POP DUP7 ADD MLOAD ISZERO PUSH2 0x5261 JUMPI JUMPDEST POP POP POP SWAP3 SWAP2 SWAP1 JUMP JUMPDEST SWAP1 SWAP2 SWAP3 POP PUSH2 0x5279 PUSH8 0xDE0B6B3A7640000 SWAP3 DUP4 SWAP3 PUSH2 0x4510 JUMP JUMPDEST DIV DUP1 DUP6 MSTORE SWAP1 DUP3 ISZERO PUSH2 0x529D JUMPI PUSH2 0x5295 SWAP3 DIV SWAP1 DUP2 PUSH1 0x40 DUP7 ADD MSTORE PUSH2 0x43DE JUMP JUMPDEST CODESIZE DUP1 DUP1 PUSH2 0x5259 JUMP JUMPDEST POP SWAP1 POP PUSH2 0x5295 JUMP JUMPDEST PUSH2 0x52B3 SWAP1 PUSH2 0x130 SLOAD AND PUSH2 0x4788 JUMP JUMPDEST SWAP3 SWAP1 SWAP3 ISZERO PUSH2 0x524B JUMPI SWAP1 SWAP2 SWAP3 SWAP4 SWAP12 POP DUP5 DUP12 PUSH2 0x52ED DUP6 PUSH8 0xDE0B6B3A7640000 PUSH2 0x52E7 PUSH2 0x52DD DUP14 DUP14 PUSH2 0x4510 JUMP JUMPDEST PUSH2 0x143 SLOAD SWAP1 PUSH2 0x4510 JUMP JUMPDEST DIV PUSH2 0x4523 JUMP JUMPDEST DUP2 DUP4 ADD DUP2 DUP2 MSTORE SWAP6 SWAP1 DUP12 ISZERO PUSH2 0x53BC JUMPI POP PUSH2 0x5318 SWAP2 PUSH2 0x530C PUSH1 0x60 SWAP3 DUP14 PUSH2 0x4523 JUMP JUMPDEST SWAP2 DUP3 SWAP2 ADD MSTORE DUP6 MLOAD PUSH2 0x43DE JUMP JUMPDEST DUP1 SWAP14 JUMPDEST LT SWAP3 DUP4 ISZERO PUSH2 0x5347 JUMPI JUMPDEST POP POP POP PUSH2 0x5334 JUMPI JUMPDEST DUP1 DUP1 DUP1 PUSH2 0x524B JUMP JUMPDEST DUP2 SWAP3 SWAP10 POP MSTORE DUP1 PUSH1 0x60 DUP9 ADD MSTORE SWAP7 CODESIZE DUP1 PUSH2 0x532C JUMP JUMPDEST SWAP1 SWAP2 SWAP3 POP PUSH1 0x24 PUSH1 0x40 MLOAD DUP1 SWAP5 DUP2 SWAP4 PUSH4 0x70A08231 PUSH1 0xE0 SHL DUP4 MSTORE PUSH1 0x4 DUP4 ADD MSTORE GAS STATICCALL SWAP1 DUP2 ISZERO PUSH2 0x53B1 JUMPI SWAP1 DUP12 SWAP2 DUP5 SWAP2 PUSH2 0x5380 JUMPI JUMPDEST POP LT CODESIZE DUP5 DUP2 PUSH2 0x5324 JUMP JUMPDEST DUP1 SWAP3 POP DUP6 DUP1 SWAP3 POP RETURNDATASIZE DUP4 GT PUSH2 0x53AA JUMPI JUMPDEST PUSH2 0x5399 DUP2 DUP4 PUSH2 0x3C8B JUMP JUMPDEST DUP2 ADD SUB SLT PUSH2 0x8C7 JUMPI DUP11 SWAP1 MLOAD CODESIZE PUSH2 0x5376 JUMP JUMPDEST POP RETURNDATASIZE PUSH2 0x538F JUMP JUMPDEST PUSH1 0x40 MLOAD RETURNDATASIZE DUP6 DUP3 RETURNDATACOPY RETURNDATASIZE SWAP1 REVERT JUMPDEST SWAP2 POP POP DUP1 SWAP14 PUSH2 0x531B JUMP JUMPDEST SWAP1 SWAP5 POP DUP6 DUP2 DUP2 RETURNDATASIZE DUP4 GT PUSH2 0x53EE JUMPI JUMPDEST PUSH2 0x53DE DUP2 DUP4 PUSH2 0x3C8B JUMP JUMPDEST DUP2 ADD SUB SLT PUSH2 0x9C9 JUMPI MLOAD SWAP4 CODESIZE PUSH2 0x5244 JUMP JUMPDEST POP RETURNDATASIZE PUSH2 0x53D4 JUMP JUMPDEST PUSH1 0x40 MLOAD RETURNDATASIZE DUP7 DUP3 RETURNDATACOPY RETURNDATASIZE SWAP1 REVERT JUMPDEST SWAP1 SWAP6 POP PUSH1 0x20 DUP4 PUSH2 0x1C3 SLOAD AND SWAP2 PUSH1 0x24 PUSH1 0x40 MLOAD DUP1 SWAP5 DUP2 SWAP4 PUSH4 0x64A731E9 PUSH1 0xE0 SHL DUP4 MSTORE PUSH1 0x4 DUP4 ADD MSTORE GAS STATICCALL DUP1 ISZERO PUSH2 0x5478 JUMPI DUP7 SWAP1 PUSH2 0x5445 JUMPI JUMPDEST PUSH2 0x543E SWAP2 POP DUP5 PUSH2 0x4510 JUMP JUMPDEST SWAP5 CODESIZE PUSH2 0x5208 JUMP JUMPDEST POP PUSH1 0x20 DUP2 RETURNDATASIZE DUP3 GT PUSH2 0x5470 JUMPI JUMPDEST DUP2 PUSH2 0x545E PUSH1 0x20 SWAP4 DUP4 PUSH2 0x3C8B JUMP JUMPDEST DUP2 ADD SUB SLT PUSH2 0x29C4 JUMPI PUSH2 0x543E SWAP1 MLOAD PUSH2 0x5433 JUMP JUMPDEST RETURNDATASIZE SWAP2 POP PUSH2 0x5451 JUMP JUMPDEST PUSH1 0x40 MLOAD RETURNDATASIZE DUP9 DUP3 RETURNDATACOPY RETURNDATASIZE SWAP1 REVERT JUMPDEST SWAP3 PUSH2 0x3BFB SWAP5 SWAP2 SWAP3 SWAP4 DUP3 MLOAD ISZERO ISZERO PUSH1 0x0 EQ PUSH2 0x54F3 JUMPI POP PUSH1 0x40 PUSH2 0x54EE SWAP3 PUSH2 0x54E6 PUSH8 0xDE0B6B3A7640000 PUSH2 0x54B8 PUSH2 0x13B SLOAD DUP5 MLOAD SWAP1 PUSH2 0x4510 JUMP JUMPDEST DIV PUSH2 0x131 PUSH2 0x54C7 DUP3 DUP3 SLOAD PUSH2 0x43DE JUMP JUMPDEST SWAP1 SSTORE PUSH2 0x54E0 PUSH1 0x1 DUP1 PUSH1 0xA0 SHL SUB PUSH2 0x146 SLOAD AND SWAP2 DUP5 MLOAD PUSH2 0x4303 JUMP JUMPDEST SWAP1 PUSH2 0x41AD JUMP JUMPDEST ADD MLOAD SWAP1 PUSH2 0x41AD JUMP JUMPDEST PUSH2 0x41AD JUMP JUMPDEST SWAP1 PUSH1 0x60 PUSH2 0x54EE SWAP4 PUSH2 0x5515 PUSH1 0x1 DUP1 PUSH1 0xA0 SHL SUB PUSH2 0x146 SLOAD AND PUSH1 0x20 DUP4 ADD MLOAD SWAP1 DUP7 PUSH2 0x5519 JUMP JUMPDEST ADD MLOAD SWAP2 JUMPDEST SWAP2 SWAP1 DUP2 PUSH2 0x5525 JUMPI POP POP POP JUMP JUMPDEST PUSH2 0x12F SLOAD PUSH2 0x3BFB SWAP4 SWAP1 PUSH1 0x1 PUSH1 0x1 PUSH1 0xA0 SHL SUB AND PUSH2 0x4FBA JUMP JUMPDEST SWAP2 SWAP1 DUP3 PUSH1 0xC0 SWAP2 SUB SLT PUSH2 0x701 JUMPI PUSH1 0x40 MLOAD PUSH2 0x5556 PUSH1 0xC0 DUP3 PUSH2 0x3C8B JUMP JUMPDEST PUSH1 0xA0 PUSH2 0x5198 DUP2 DUP4 SWAP6 PUSH2 0x5567 DUP2 PUSH2 0x3B68 JUMP JUMPDEST DUP6 MSTORE PUSH1 0x20 DUP2 ADD CALLDATALOAD PUSH1 0x20 DUP7 ADD MSTORE PUSH1 0x40 DUP2 ADD CALLDATALOAD PUSH1 0x40 DUP7 ADD MSTORE PUSH2 0x5589 PUSH1 0x60 DUP3 ADD PUSH2 0x3B68 JUMP JUMPDEST PUSH1 0x60 DUP7 ADD MSTORE PUSH2 0x559A PUSH1 0x80 DUP3 ADD PUSH2 0x3B68 JUMP JUMPDEST PUSH1 0x80 DUP7 ADD MSTORE ADD PUSH2 0x3B68 JUMP JUMPDEST SWAP1 PUSH2 0x55B2 SWAP5 SWAP4 SWAP3 SWAP2 PUSH2 0x4C97 JUMP JUMPDEST PUSH1 0x0 DUP2 SLT PUSH2 0x4D74 JUMPI SWAP1 JUMP JUMPDEST DUP1 PUSH2 0x55C6 PUSH2 0x48D1 JUMP JUMPDEST SWAP2 SWAP1 SWAP4 PUSH2 0x55D3 PUSH1 0x0 PUSH2 0x4828 JUMP JUMPDEST SWAP5 ADD SWAP4 DUP3 SWAP2 PUSH2 0x566B JUMPI JUMPDEST ADD SWAP4 DUP5 PUSH1 0x0 DUP1 DUP3 SLT PUSH2 0x5665 JUMPI POP JUMPDEST DUP5 SUB SWAP2 DUP2 DUP6 GT PUSH2 0x562D JUMPI POP POP DUP2 DUP2 GT PUSH2 0x560F JUMPI POP POP PUSH2 0x155 SSTORE PUSH2 0x156 SSTORE NUMBER PUSH2 0x157 SSTORE JUMP JUMPDEST PUSH1 0x44 SWAP3 POP PUSH1 0x40 MLOAD SWAP2 PUSH4 0x6DA41E5 PUSH1 0xE1 SHL DUP4 MSTORE PUSH1 0x4 DUP4 ADD MSTORE PUSH1 0x24 DUP3 ADD MSTORE REVERT JUMPDEST SWAP1 DUP1 DUP6 SWAP3 GT PUSH2 0x5653 JUMPI PUSH1 0x44 SWAP2 PUSH1 0x40 MLOAD SWAP2 PUSH4 0x6DA41E5 PUSH1 0xE1 SHL DUP4 MSTORE PUSH1 0x4 DUP4 ADD MSTORE PUSH1 0x24 DUP3 ADD MSTORE REVERT JUMPDEST PUSH1 0x40 MLOAD PUSH4 0xFB4FD35 PUSH1 0xE1 SHL DUP2 MSTORE PUSH1 0x4 SWAP1 REVERT JUMPDEST SUB PUSH2 0x55EB JUMP JUMPDEST SWAP1 POP DUP2 PUSH1 0x0 SUB SWAP1 PUSH2 0x55DD JUMP JUMPDEST DUP1 SWAP2 SUB PUSH1 0xE0 DUP2 SLT PUSH2 0x701 JUMPI DUP2 MLOAD SWAP3 PUSH1 0x20 DUP4 ADD MLOAD SWAP3 PUSH1 0x80 PUSH1 0x40 DUP3 ADD MLOAD SWAP4 PUSH1 0x5F NOT ADD SLT PUSH2 0x701 JUMPI PUSH1 0xC0 PUSH1 0x40 MLOAD SWAP2 PUSH2 0x56AD PUSH1 0x80 DUP5 PUSH2 0x3C8B JUMP JUMPDEST PUSH1 0x60 DUP2 ADD MLOAD DUP4 MSTORE PUSH1 0x80 DUP2 ADD MLOAD PUSH1 0x20 DUP5 ADD MSTORE PUSH1 0xA0 DUP2 ADD MLOAD PUSH1 0x40 DUP5 ADD MSTORE ADD MLOAD PUSH1 0x60 DUP3 ADD MSTORE SWAP1 JUMP JUMPDEST SWAP2 SWAP1 DUP3 PUSH1 0xE0 SWAP2 SUB SLT PUSH2 0x701 JUMPI PUSH1 0x40 MLOAD PUSH2 0x56EC PUSH1 0xE0 DUP3 PUSH2 0x3C8B JUMP JUMPDEST PUSH1 0xC0 PUSH2 0x5198 DUP2 DUP4 SWAP6 PUSH2 0x56FD DUP2 PUSH2 0x3B68 JUMP JUMPDEST DUP6 MSTORE PUSH1 0x20 DUP2 ADD CALLDATALOAD PUSH1 0x20 DUP7 ADD MSTORE PUSH1 0x40 DUP2 ADD CALLDATALOAD PUSH1 0x40 DUP7 ADD MSTORE PUSH1 0x60 DUP2 ADD CALLDATALOAD PUSH1 0x60 DUP7 ADD MSTORE PUSH2 0x5729 PUSH1 0x80 DUP3 ADD PUSH2 0x3B68 JUMP JUMPDEST PUSH1 0x80 DUP7 ADD MSTORE PUSH2 0x573A PUSH1 0xA0 DUP3 ADD PUSH2 0x3B68 JUMP JUMPDEST PUSH1 0xA0 DUP7 ADD MSTORE ADD PUSH2 0x3B68 JUMP JUMPDEST PUSH1 0x40 MLOAD PUSH4 0xA9059CBB PUSH1 0xE0 SHL PUSH1 0x20 DUP3 ADD MSTORE PUSH1 0x1 PUSH1 0x1 PUSH1 0xA0 SHL SUB SWAP1 SWAP3 AND PUSH1 0x24 DUP4 ADD MSTORE PUSH1 0x44 DUP3 ADD SWAP3 SWAP1 SWAP3 MSTORE PUSH2 0x3BFB SWAP2 PUSH2 0x41FF DUP3 PUSH1 0x64 DUP2 ADD PUSH2 0x41F1 JUMP JUMPDEST PUSH1 0x97 SLOAD PUSH1 0x40 MLOAD PUSH4 0xD994D6D5 PUSH1 0xE0 SHL DUP2 MSTORE CALLER PUSH1 0x4 DUP3 ADD MSTORE SWAP1 PUSH1 0x20 SWAP1 DUP3 SWAP1 PUSH1 0x24 SWAP1 DUP3 SWAP1 PUSH1 0x1 PUSH1 0x1 PUSH1 0xA0 SHL SUB AND GAS STATICCALL SWAP1 DUP2 ISZERO PUSH2 0x43D2 JUMPI PUSH1 0x0 SWAP2 PUSH2 0x57D3 JUMPI JUMPDEST POP ISZERO PUSH2 0x57C1 JUMPI JUMP JUMPDEST PUSH1 0x40 MLOAD PUSH4 0x1DD1B1B5 PUSH1 0xE2 SHL DUP2 MSTORE PUSH1 0x4 SWAP1 REVERT JUMPDEST SWAP1 PUSH1 0x20 DUP3 RETURNDATASIZE DUP3 GT PUSH2 0x5804 JUMPI JUMPDEST DUP2 PUSH2 0x57EC PUSH1 0x20 SWAP4 DUP4 PUSH2 0x3C8B JUMP JUMPDEST DUP2 ADD SUB SLT PUSH2 0x779 JUMPI POP PUSH2 0x57FE SWAP1 PUSH2 0x4204 JUMP JUMPDEST CODESIZE PUSH2 0x57B9 JUMP JUMPDEST RETURNDATASIZE SWAP2 POP PUSH2 0x57DF JUMP JUMPDEST PUSH1 0xFF PUSH1 0xCA SLOAD PUSH1 0x8 SHR AND PUSH2 0x581B JUMPI JUMP JUMPDEST PUSH1 0x40 MLOAD PUSH4 0x783BB6C9 PUSH1 0xE1 SHL DUP2 MSTORE PUSH1 0x4 SWAP1 REVERT JUMPDEST SWAP1 PUSH8 0xDE0B6B3A7640000 SWAP2 DUP3 DUP2 MUL SWAP3 DUP2 DUP5 DIV EQ SWAP1 ISZERO OR ISZERO PUSH2 0x4310 JUMPI PUSH2 0x3BBC SWAP2 PUSH2 0x4523 JUMP JUMPDEST PUSH8 0xDE0B6B3A7640000 GT ISZERO PUSH2 0x5862 JUMPI JUMP JUMPDEST PUSH1 0x40 MLOAD PUSH4 0x2A9FFAB7 PUSH1 0xE2 SHL DUP2 MSTORE PUSH1 0x4 SWAP1 REVERT INVALID LOG2 PUSH5 0x6970667358 0x22 SLT KECCAK256 0xB9 0xD2 0x4A DIFFICULTY 0x4C POP SWAP12 DUP16 0xB9 DUP8 0xDF BLOCKHASH 0xF6 EXTCODEHASH MUL 0xB8 DUP7 NUMBER DUP6 TIMESTAMP ORIGIN SWAP9 PUSH26 0x89101E163CEDD87C2264736F6C63430008140033000000000000 "
    },
    "gasEstimates": {
      "creation": {
        "codeDepositCost": "4539600",
        "executionCost": "infinite",
        "totalCost": "infinite"
      },
      "external": {
        "absoluteAccumulator()": "4714",
        "acToken()": "2733",
        "addPeggedToken((address,address,uint256,uint256,uint256,uint256,uint256))": "infinite",
        "allowDifferentRecipient()": "5040",
        "appreciationFactor()": "5176",
        "bes()": "3196",
        "bns()": "2558",
        "calcCtargemaCA()": "infinite",
        "changeGovernor(address)": "infinite",
        "decayBlockSpan()": "3658",
        "differentialAccumulator()": "3768",
        "editPeggedToken((address,address,uint256,uint256,uint256,uint256,uint256))": "infinite",
        "emaCalculationBlockSpan()": "3900",
        "evalLiquidation()": "infinite",
        "execMintTC((uint256,uint256,address,address,address))": "infinite",
        "execMintTCandTP((address,uint256,uint256,address,address,address))": "infinite",
        "execMintTP((address,uint256,uint256,address,address,address))": "infinite",
        "execRedeemTC((uint256,uint256,address,address,address))": "infinite",
        "execRedeemTCandTP((address,uint256,uint256,uint256,address,address,address))": "infinite",
        "execRedeemTP((address,uint256,uint256,address,address,address))": "infinite",
        "execSettlement()": "infinite",
        "execSwapTCforTP((address,uint256,uint256,uint256,address,address,address))": "infinite",
        "execSwapTPforTC((address,uint256,uint256,uint256,address,address,address))": "infinite",
        "execSwapTPforTP((address,address,uint256,uint256,uint256,address,address,address))": "infinite",
        "feeRetainer()": "3240",
        "feeToken()": "3569",
        "feeTokenPct()": "2822",
        "feeTokenPriceProvider()": "5065",
        "getBts()": "5095",
        "getCglb()": "infinite",
        "getLckAC()": "infinite",
        "getLeverageTC()": "infinite",
        "getPACtp(address)": "infinite",
        "getPTCac()": "infinite",
        "getTCAvailableToRedeem()": "infinite",
        "getTPAvailableToMint(address)": "infinite",
        "getTotalACavailable()": "infinite",
        "getTpAmount()": "5259",
        "governor()": "2403",
        "initialize((((address,address,address,address,address,address,uint256,uint256,uint256,uint256,uint256,uint256,uint256,uint256,uint256,uint256,uint256,uint256,uint256,uint256,address,uint256,uint256,address,address,uint256,bool),address,address,address,uint256,address),address))": "infinite",
        "isLiquidationReached()": "infinite",
        "lastOperationBlockNumber()": "3394",
        "liqEnabled()": "4968",
        "liqRedeemTP(address,address)": "infinite",
        "liqThrld()": "4142",
        "liquidated()": "2686",
        "makeStoppable()": "infinite",
        "makeUnstoppable()": "infinite",
        "maxAbsoluteOpProvider()": "5021",
        "maxOpDiffProvider()": "4449",
        "maxQACToMintTP()": "infinite",
        "maxQACToRedeemTP()": "infinite",
        "mintTC(uint256,uint256,address,address)": "infinite",
        "mintTCandTP(address,uint256,uint256,address,address)": "infinite",
        "mintTCandTPFee()": "3834",
        "mintTP(address,uint256,uint256,address,address)": "infinite",
        "mocAppreciationBeneficiaryAddress()": "3239",
        "mocFeeFlowAddress()": "4251",
        "mocQueue()": "2535",
        "mocVendors()": "4009",
        "nACcb()": "5110",
        "nTCcb()": "3856",
        "nextEmaCalculation()": "2404",
        "nextTCInterestPayment()": "4450",
        "pause()": "29430",
        "paused()": "3478",
        "pauser()": "4326",
        "pegContainer(uint256)": "9673",
        "peggedTokenIndex(address)": "6524",
        "protThrld()": "3636",
        "proxiableUUID()": "infinite",
        "qACLockedInPending()": "3482",
        "redeemTC(uint256,uint256,address,address)": "infinite",
        "redeemTCandTP(address,uint256,uint256,uint256,address,address)": "infinite",
        "redeemTCandTPFee()": "5132",
        "redeemTP(address,uint256,uint256,address,address)": "infinite",
        "refreshACBalance()": "infinite",
        "setAllowDifferentRecipient(bool)": "infinite",
        "setAppreciationFactor(uint256)": "infinite",
        "setBes(uint256)": "infinite",
        "setDecayBlockSpan(uint256)": "infinite",
        "setEmaCalculationBlockSpan(uint256)": "infinite",
        "setFeeRetainer(uint256)": "infinite",
        "setFeeTokenAddress(address)": "infinite",
        "setFeeTokenPct(uint256)": "infinite",
        "setFeeTokenPriceProviderAddress(address)": "infinite",
        "setLiqEnabled(bool)": "infinite",
        "setLiqThrld(uint256)": "infinite",
        "setMaxAbsoluteOpProviderAddress(address)": "infinite",
        "setMaxOpDiffProviderAddress(address)": "infinite",
        "setMintTCandTPFee(uint256)": "infinite",
        "setMocAppreciationBeneficiaryAddress(address)": "infinite",
        "setMocCoreExpansion(address)": "infinite",
        "setMocFeeFlowAddress(address)": "infinite",
        "setMocQueue(address)": "infinite",
        "setMocVendors(address)": "infinite",
        "setPauser(address)": "infinite",
        "setProtThrld(uint256)": "infinite",
        "setRedeemTCandTPFee(uint256)": "infinite",
        "setSuccessFee(uint256)": "infinite",
        "setSwapTCforTPFee(uint256)": "infinite",
        "setSwapTPforTCFee(uint256)": "infinite",
        "setSwapTPforTPFee(uint256)": "infinite",
        "setTCInterestCollectorAddress(address)": "infinite",
        "setTCInterestPaymentBlockSpan(uint256)": "infinite",
        "setTCInterestRate(uint256)": "infinite",
        "setTcMintFee(uint256)": "infinite",
        "setTcRedeemFee(uint256)": "infinite",
        "shouldCalculateEma()": "4326",
        "stoppable()": "4484",
        "successFee()": "3746",
        "swapTCforTP(address,uint256,uint256,uint256,address,address)": "infinite",
        "swapTCforTPFee()": "2756",
        "swapTPforTC(address,uint256,uint256,uint256,address,address)": "infinite",
        "swapTPforTCFee()": "2888",
        "swapTPforTP(address,address,uint256,uint256,uint256,address,address)": "infinite",
        "swapTPforTPFee()": "3108",
        "tcHoldersInterestPayment()": "infinite",
        "tcInterestCollectorAddress()": "4185",
        "tcInterestPaymentBlockSpan()": "4032",
        "tcInterestRate()": "2448",
        "tcMintFee()": "5220",
        "tcRedeemFee()": "4362",
        "tcToken()": "3525",
        "tpCtarg(uint256)": "8332",
        "tpEma(uint256)": "11412",
        "tpLiqPrices(uint256)": "7342",
        "tpMintFees(address)": "2802",
        "tpRedeemFees(address)": "4914",
        "tpTokens(uint256)": "6678",
        "unlockACInPending(address,uint256)": "infinite",
        "unlockTCInPending(address,uint256)": "infinite",
        "unlockTPInPending(address,address,uint256)": "infinite",
        "unpause()": "infinite",
        "updateEmas()": "infinite",
        "upgradeTo(address)": "infinite",
        "upgradeToAndCall(address,bytes)": "infinite"
      },
      "internal": {
        "_getExecFeeSent(uint256,enum MocQueueExecFees.OperType)": "infinite",
        "_lockACInPending(uint256)": "infinite",
        "acBalanceOf(address)": "infinite",
        "acTransfer(address,uint256)": "infinite"
      }
    },
    "methodIdentifiers": {
      "absoluteAccumulator()": "d87aab6f",
      "acToken()": "25bc6c41",
      "addPeggedToken((address,address,uint256,uint256,uint256,uint256,uint256))": "db796072",
      "allowDifferentRecipient()": "eee20027",
      "appreciationFactor()": "fa6e83bd",
      "bes()": "4d977e78",
      "bns()": "1867e2f5",
      "calcCtargemaCA()": "662013f4",
      "changeGovernor(address)": "e4c0aaf4",
      "decayBlockSpan()": "6f30471f",
      "differentialAccumulator()": "76228055",
      "editPeggedToken((address,address,uint256,uint256,uint256,uint256,uint256))": "f26114aa",
      "emaCalculationBlockSpan()": "7a727fe8",
      "evalLiquidation()": "33421c38",
      "execMintTC((uint256,uint256,address,address,address))": "235e81cf",
      "execMintTCandTP((address,uint256,uint256,address,address,address))": "883d21cb",
      "execMintTP((address,uint256,uint256,address,address,address))": "b4434c32",
      "execRedeemTC((uint256,uint256,address,address,address))": "bfe42621",
      "execRedeemTCandTP((address,uint256,uint256,uint256,address,address,address))": "d8c69aec",
      "execRedeemTP((address,uint256,uint256,address,address,address))": "ad4e666d",
      "execSettlement()": "5c616a73",
      "execSwapTCforTP((address,uint256,uint256,uint256,address,address,address))": "4af3a6fc",
      "execSwapTPforTC((address,uint256,uint256,uint256,address,address,address))": "bc4e55b2",
      "execSwapTPforTP((address,address,uint256,uint256,uint256,address,address,address))": "391bf6cf",
      "feeRetainer()": "4f0f27ee",
      "feeToken()": "647846a5",
      "feeTokenPct()": "2ded50f0",
      "feeTokenPriceProvider()": "f13f4054",
      "getBts()": "e8859a15",
      "getCglb()": "826fcd58",
      "getLckAC()": "8f1a383a",
      "getLeverageTC()": "c039cc69",
      "getPACtp(address)": "fadda424",
      "getPTCac()": "1fb0dda0",
      "getTCAvailableToRedeem()": "4017936a",
      "getTPAvailableToMint(address)": "f88b1434",
      "getTotalACavailable()": "de8d520a",
      "getTpAmount()": "fe6b92c1",
      "governor()": "0c340a24",
      "initialize((((address,address,address,address,address,address,uint256,uint256,uint256,uint256,uint256,uint256,uint256,uint256,uint256,uint256,uint256,uint256,uint256,uint256,address,uint256,uint256,address,address,uint256,bool),address,address,address,uint256,address),address))": "938c3e65",
      "isLiquidationReached()": "9ad6659d",
      "lastOperationBlockNumber()": "5860ee63",
      "liqEnabled()": "e7c25978",
      "liqRedeemTP(address,address)": "47dda6af",
      "liqThrld()": "8cfa4241",
      "liquidated()": "23b98cde",
      "makeStoppable()": "68274357",
      "makeUnstoppable()": "5210570c",
      "maxAbsoluteOpProvider()": "ee1f438f",
      "maxOpDiffProvider()": "b5e9ea8c",
      "maxQACToMintTP()": "d6af11da",
      "maxQACToRedeemTP()": "7f13b998",
      "mintTC(uint256,uint256,address,address)": "60ef07bf",
      "mintTCandTP(address,uint256,uint256,address,address)": "fdcdc11e",
      "mintTCandTPFee()": "79f9a91c",
      "mintTP(address,uint256,uint256,address,address)": "d2dc25a5",
      "mocAppreciationBeneficiaryAddress()": "4e1f907a",
      "mocFeeFlowAddress()": "9853c35a",
      "mocQueue()": "13ed7ba5",
      "mocVendors()": "7f01c715",
      "nACcb()": "f30b5614",
      "nTCcb()": "7a193c31",
      "nextEmaCalculation()": "0c36d897",
      "nextTCInterestPayment()": "b9fa6413",
      "pause()": "8456cb59",
      "paused()": "5c975abb",
      "pauser()": "9fd0506d",
      "pegContainer(uint256)": "4b746001",
      "peggedTokenIndex(address)": "9cabfc00",
      "protThrld()": "6b5488df",
      "proxiableUUID()": "52d1902d",
      "qACLockedInPending()": "5cfbe578",
      "redeemTC(uint256,uint256,address,address)": "b03e11a0",
      "redeemTCandTP(address,uint256,uint256,uint256,address,address)": "34d70ffa",
      "redeemTCandTPFee()": "f375cfba",
      "redeemTP(address,uint256,uint256,address,address)": "2eccb11c",
      "refreshACBalance()": "e23c135c",
      "setAllowDifferentRecipient(bool)": "07b00d04",
      "setAppreciationFactor(uint256)": "01dde6ef",
      "setBes(uint256)": "c84353c9",
      "setDecayBlockSpan(uint256)": "73e28af9",
      "setEmaCalculationBlockSpan(uint256)": "3bc4ac0a",
      "setFeeRetainer(uint256)": "7750ba0c",
      "setFeeTokenAddress(address)": "cf351c1d",
      "setFeeTokenPct(uint256)": "543aeb48",
      "setFeeTokenPriceProviderAddress(address)": "0f1e5e2b",
      "setLiqEnabled(bool)": "1fe6a7ad",
      "setLiqThrld(uint256)": "2c43bd3b",
      "setMaxAbsoluteOpProviderAddress(address)": "d8db6f5a",
      "setMaxOpDiffProviderAddress(address)": "85bf9593",
      "setMintTCandTPFee(uint256)": "2069f753",
      "setMocAppreciationBeneficiaryAddress(address)": "27eab2a1",
      "setMocCoreExpansion(address)": "e6a683e0",
      "setMocFeeFlowAddress(address)": "0d6ac463",
      "setMocQueue(address)": "3cfb09ef",
      "setMocVendors(address)": "533a4bea",
      "setPauser(address)": "2d88af4a",
      "setProtThrld(uint256)": "7cba2383",
      "setRedeemTCandTPFee(uint256)": "7a4ff1d9",
      "setSuccessFee(uint256)": "becaca6b",
      "setSwapTCforTPFee(uint256)": "7af5758c",
      "setSwapTPforTCFee(uint256)": "0e0a8fd2",
      "setSwapTPforTPFee(uint256)": "70713468",
      "setTCInterestCollectorAddress(address)": "735d3960",
      "setTCInterestPaymentBlockSpan(uint256)": "073763b9",
      "setTCInterestRate(uint256)": "64ec230a",
      "setTcMintFee(uint256)": "f2808778",
      "setTcRedeemFee(uint256)": "c00f538d",
      "shouldCalculateEma()": "a8e9ac30",
      "stoppable()": "bb4872de",
      "successFee()": "7554fffd",
      "swapTCforTP(address,uint256,uint256,uint256,address,address)": "797709ca",
      "swapTCforTPFee()": "2a20d57d",
      "swapTPforTC(address,uint256,uint256,uint256,address,address)": "14b4906d",
      "swapTPforTCFee()": "333431fd",
      "swapTPforTP(address,address,uint256,uint256,uint256,address,address)": "2ed35ca1",
      "swapTPforTPFee()": "407f0e34",
      "tcHoldersInterestPayment()": "0579188f",
      "tcInterestCollectorAddress()": "8e2bdb86",
      "tcInterestPaymentBlockSpan()": "7f4a4fe0",
      "tcInterestRate()": "0db49656",
      "tcMintFee()": "fda70f8b",
      "tcRedeemFee()": "aea038dc",
      "tcToken()": "60009e0b",
      "tpCtarg(uint256)": "7d8e0314",
      "tpEma(uint256)": "e6b1627c",
      "tpLiqPrices(uint256)": "3915edcb",
      "tpMintFees(address)": "24ffaba3",
      "tpRedeemFees(address)": "ddb6d190",
      "tpTokens(uint256)": "01f1b684",
      "unlockACInPending(address,uint256)": "58f32de9",
      "unlockTCInPending(address,uint256)": "53b16d17",
      "unlockTPInPending(address,address,uint256)": "e2c5e990",
      "unpause()": "3f4ba83a",
      "updateEmas()": "d1a0faa0",
      "upgradeTo(address)": "3659cfe6",
      "upgradeToAndCall(address,bytes)": "4f1ef286"
    }
  },
  "storageLayout": {
    "storage": [
      {
        "astId": 950,
        "contract": "contracts/collateral/rc20/MocCARC20.sol:MocCARC20",
        "label": "_initialized",
        "offset": 0,
        "slot": "0",
        "type": "t_uint8"
      },
      {
        "astId": 953,
        "contract": "contracts/collateral/rc20/MocCARC20.sol:MocCARC20",
        "label": "_initializing",
        "offset": 1,
        "slot": "0",
        "type": "t_bool"
      },
      {
        "astId": 932,
        "contract": "contracts/collateral/rc20/MocCARC20.sol:MocCARC20",
        "label": "__gap",
        "offset": 0,
        "slot": "1",
        "type": "t_array(t_uint256)50_storage"
      },
      {
        "astId": 1247,
        "contract": "contracts/collateral/rc20/MocCARC20.sol:MocCARC20",
        "label": "__gap",
        "offset": 0,
        "slot": "51",
        "type": "t_array(t_uint256)50_storage"
      },
      {
        "astId": 28031,
        "contract": "contracts/collateral/rc20/MocCARC20.sol:MocCARC20",
        "label": "__gap",
        "offset": 0,
        "slot": "101",
        "type": "t_array(t_uint256)50_storage"
      },
      {
        "astId": 21402,
        "contract": "contracts/collateral/rc20/MocCARC20.sol:MocCARC20",
        "label": "governor",
        "offset": 0,
        "slot": "151",
        "type": "t_contract(IGovernor)22264"
      },
      {
        "astId": 21473,
        "contract": "contracts/collateral/rc20/MocCARC20.sol:MocCARC20",
        "label": "__gap",
        "offset": 0,
        "slot": "152",
        "type": "t_array(t_uint256)50_storage"
      },
      {
        "astId": 21542,
        "contract": "contracts/collateral/rc20/MocCARC20.sol:MocCARC20",
        "label": "stoppable",
        "offset": 0,
        "slot": "202",
        "type": "t_bool"
      },
      {
        "astId": 21544,
        "contract": "contracts/collateral/rc20/MocCARC20.sol:MocCARC20",
        "label": "_paused",
        "offset": 1,
        "slot": "202",
        "type": "t_bool"
      },
      {
        "astId": 21546,
        "contract": "contracts/collateral/rc20/MocCARC20.sol:MocCARC20",
        "label": "pauser",
        "offset": 2,
        "slot": "202",
        "type": "t_address"
      },
      {
        "astId": 21718,
        "contract": "contracts/collateral/rc20/MocCARC20.sol:MocCARC20",
        "label": "__gap",
        "offset": 0,
        "slot": "203",
        "type": "t_array(t_uint256)50_storage"
      },
      {
        "astId": 21524,
        "contract": "contracts/collateral/rc20/MocCARC20.sol:MocCARC20",
        "label": "__gap",
        "offset": 0,
        "slot": "253",
        "type": "t_array(t_uint256)50_storage"
      },
      {
        "astId": 11020,
        "contract": "contracts/collateral/rc20/MocCARC20.sol:MocCARC20",
        "label": "feeToken",
        "offset": 0,
        "slot": "303",
        "type": "t_contract(IERC20)6209"
      },
      {
        "astId": 11023,
        "contract": "contracts/collateral/rc20/MocCARC20.sol:MocCARC20",
        "label": "feeTokenPriceProvider",
        "offset": 0,
        "slot": "304",
        "type": "t_contract(IPriceProvider)22302"
      },
      {
        "astId": 11025,
        "contract": "contracts/collateral/rc20/MocCARC20.sol:MocCARC20",
        "label": "nACcb",
        "offset": 0,
        "slot": "305",
        "type": "t_uint256"
      },
      {
        "astId": 11027,
        "contract": "contracts/collateral/rc20/MocCARC20.sol:MocCARC20",
        "label": "nACioucb",
        "offset": 0,
        "slot": "306",
        "type": "t_uint256"
      },
      {
        "astId": 11030,
        "contract": "contracts/collateral/rc20/MocCARC20.sol:MocCARC20",
        "label": "tcToken",
        "offset": 0,
        "slot": "307",
        "type": "t_contract(MocTC)27856"
      },
      {
        "astId": 11032,
        "contract": "contracts/collateral/rc20/MocCARC20.sol:MocCARC20",
        "label": "nTCcb",
        "offset": 0,
        "slot": "308",
        "type": "t_uint256"
      },
      {
        "astId": 11036,
        "contract": "contracts/collateral/rc20/MocCARC20.sol:MocCARC20",
        "label": "tpTokens",
        "offset": 0,
        "slot": "309",
        "type": "t_array(t_contract(IMocRC20)22290)dyn_storage"
      },
      {
        "astId": 11041,
        "contract": "contracts/collateral/rc20/MocCARC20.sol:MocCARC20",
        "label": "peggedTokenIndex",
        "offset": 0,
        "slot": "310",
        "type": "t_mapping(t_address,t_struct(PeggedTokenIndex)10962_storage)"
      },
      {
        "astId": 11045,
        "contract": "contracts/collateral/rc20/MocCARC20.sol:MocCARC20",
        "label": "pegContainer",
        "offset": 0,
        "slot": "311",
        "type": "t_array(t_struct(PegContainerItem)10957_storage)dyn_storage"
      },
      {
        "astId": 11048,
        "contract": "contracts/collateral/rc20/MocCARC20.sol:MocCARC20",
        "label": "tpLiqPrices",
        "offset": 0,
        "slot": "312",
        "type": "t_array(t_uint256)dyn_storage"
      },
      {
        "astId": 11050,
        "contract": "contracts/collateral/rc20/MocCARC20.sol:MocCARC20",
        "label": "successFee",
        "offset": 0,
        "slot": "313",
        "type": "t_uint256"
      },
      {
        "astId": 11052,
        "contract": "contracts/collateral/rc20/MocCARC20.sol:MocCARC20",
        "label": "appreciationFactor",
        "offset": 0,
        "slot": "314",
        "type": "t_uint256"
      },
      {
        "astId": 11054,
        "contract": "contracts/collateral/rc20/MocCARC20.sol:MocCARC20",
        "label": "feeRetainer",
        "offset": 0,
        "slot": "315",
        "type": "t_uint256"
      },
      {
        "astId": 11056,
        "contract": "contracts/collateral/rc20/MocCARC20.sol:MocCARC20",
        "label": "tcMintFee",
        "offset": 0,
        "slot": "316",
        "type": "t_uint256"
      },
      {
        "astId": 11058,
        "contract": "contracts/collateral/rc20/MocCARC20.sol:MocCARC20",
        "label": "tcRedeemFee",
        "offset": 0,
        "slot": "317",
        "type": "t_uint256"
      },
      {
        "astId": 11060,
        "contract": "contracts/collateral/rc20/MocCARC20.sol:MocCARC20",
        "label": "swapTPforTPFee",
        "offset": 0,
        "slot": "318",
        "type": "t_uint256"
      },
      {
        "astId": 11062,
        "contract": "contracts/collateral/rc20/MocCARC20.sol:MocCARC20",
        "label": "swapTPforTCFee",
        "offset": 0,
        "slot": "319",
        "type": "t_uint256"
      },
      {
        "astId": 11064,
        "contract": "contracts/collateral/rc20/MocCARC20.sol:MocCARC20",
        "label": "swapTCforTPFee",
        "offset": 0,
        "slot": "320",
        "type": "t_uint256"
      },
      {
        "astId": 11066,
        "contract": "contracts/collateral/rc20/MocCARC20.sol:MocCARC20",
        "label": "redeemTCandTPFee",
        "offset": 0,
        "slot": "321",
        "type": "t_uint256"
      },
      {
        "astId": 11068,
        "contract": "contracts/collateral/rc20/MocCARC20.sol:MocCARC20",
        "label": "mintTCandTPFee",
        "offset": 0,
        "slot": "322",
        "type": "t_uint256"
      },
      {
        "astId": 11070,
        "contract": "contracts/collateral/rc20/MocCARC20.sol:MocCARC20",
        "label": "feeTokenPct",
        "offset": 0,
        "slot": "323",
        "type": "t_uint256"
      },
      {
        "astId": 11074,
        "contract": "contracts/collateral/rc20/MocCARC20.sol:MocCARC20",
        "label": "tpMintFees",
        "offset": 0,
        "slot": "324",
        "type": "t_mapping(t_address,t_uint256)"
      },
      {
        "astId": 11078,
        "contract": "contracts/collateral/rc20/MocCARC20.sol:MocCARC20",
        "label": "tpRedeemFees",
        "offset": 0,
        "slot": "325",
        "type": "t_mapping(t_address,t_uint256)"
      },
      {
        "astId": 11080,
        "contract": "contracts/collateral/rc20/MocCARC20.sol:MocCARC20",
        "label": "mocFeeFlowAddress",
        "offset": 0,
        "slot": "326",
        "type": "t_address"
      },
      {
        "astId": 11082,
        "contract": "contracts/collateral/rc20/MocCARC20.sol:MocCARC20",
        "label": "mocAppreciationBeneficiaryAddress",
        "offset": 0,
        "slot": "327",
        "type": "t_address"
      },
      {
        "astId": 11085,
        "contract": "contracts/collateral/rc20/MocCARC20.sol:MocCARC20",
        "label": "tpCtarg",
        "offset": 0,
        "slot": "328",
        "type": "t_array(t_uint256)dyn_storage"
      },
      {
        "astId": 11087,
        "contract": "contracts/collateral/rc20/MocCARC20.sol:MocCARC20",
        "label": "protThrld",
        "offset": 0,
        "slot": "329",
        "type": "t_uint256"
      },
      {
        "astId": 11089,
        "contract": "contracts/collateral/rc20/MocCARC20.sol:MocCARC20",
        "label": "liqThrld",
        "offset": 0,
        "slot": "330",
        "type": "t_uint256"
      },
      {
        "astId": 11091,
        "contract": "contracts/collateral/rc20/MocCARC20.sol:MocCARC20",
        "label": "liqEnabled",
        "offset": 0,
        "slot": "331",
        "type": "t_bool"
      },
      {
        "astId": 11093,
        "contract": "contracts/collateral/rc20/MocCARC20.sol:MocCARC20",
        "label": "liquidated",
        "offset": 1,
        "slot": "331",
        "type": "t_bool"
      },
      {
        "astId": 11095,
        "contract": "contracts/collateral/rc20/MocCARC20.sol:MocCARC20",
        "label": "allowDifferentRecipient",
        "offset": 2,
        "slot": "331",
        "type": "t_bool"
      },
      {
        "astId": 11097,
        "contract": "contracts/collateral/rc20/MocCARC20.sol:MocCARC20",
        "label": "bes",
        "offset": 0,
        "slot": "332",
        "type": "t_uint256"
      },
      {
        "astId": 11099,
        "contract": "contracts/collateral/rc20/MocCARC20.sol:MocCARC20",
        "label": "bns",
        "offset": 0,
        "slot": "333",
        "type": "t_uint256"
      },
      {
        "astId": 11101,
        "contract": "contracts/collateral/rc20/MocCARC20.sol:MocCARC20",
        "label": "qACLockedInPending",
        "offset": 0,
        "slot": "334",
        "type": "t_uint256"
      },
      {
        "astId": 11103,
        "contract": "contracts/collateral/rc20/MocCARC20.sol:MocCARC20",
        "label": "mocQueue",
        "offset": 0,
        "slot": "335",
        "type": "t_address_payable"
      },
      {
        "astId": 11106,
        "contract": "contracts/collateral/rc20/MocCARC20.sol:MocCARC20",
        "label": "tpiou",
        "offset": 0,
        "slot": "336",
        "type": "t_array(t_int256)dyn_storage"
      },
      {
        "astId": 11109,
        "contract": "contracts/collateral/rc20/MocCARC20.sol:MocCARC20",
        "label": "pACtpLstop",
        "offset": 0,
        "slot": "337",
        "type": "t_array(t_uint256)dyn_storage"
      },
      {
        "astId": 11112,
        "contract": "contracts/collateral/rc20/MocCARC20.sol:MocCARC20",
        "label": "maxAbsoluteOpProvider",
        "offset": 0,
        "slot": "338",
        "type": "t_contract(IDataProvider)22218"
      },
      {
        "astId": 11115,
        "contract": "contracts/collateral/rc20/MocCARC20.sol:MocCARC20",
        "label": "maxOpDiffProvider",
        "offset": 0,
        "slot": "339",
        "type": "t_contract(IDataProvider)22218"
      },
      {
        "astId": 11117,
        "contract": "contracts/collateral/rc20/MocCARC20.sol:MocCARC20",
        "label": "decayBlockSpan",
        "offset": 0,
        "slot": "340",
        "type": "t_uint256"
      },
      {
        "astId": 11119,
        "contract": "contracts/collateral/rc20/MocCARC20.sol:MocCARC20",
        "label": "absoluteAccumulator",
        "offset": 0,
        "slot": "341",
        "type": "t_uint256"
      },
      {
        "astId": 11121,
        "contract": "contracts/collateral/rc20/MocCARC20.sol:MocCARC20",
        "label": "differentialAccumulator",
        "offset": 0,
        "slot": "342",
        "type": "t_int256"
      },
      {
        "astId": 11123,
        "contract": "contracts/collateral/rc20/MocCARC20.sol:MocCARC20",
        "label": "lastOperationBlockNumber",
        "offset": 0,
        "slot": "343",
        "type": "t_uint256"
      },
      {
        "astId": 11125,
        "contract": "contracts/collateral/rc20/MocCARC20.sol:MocCARC20",
        "label": "tcInterestCollectorAddress",
        "offset": 0,
        "slot": "344",
        "type": "t_address"
      },
      {
        "astId": 11127,
        "contract": "contracts/collateral/rc20/MocCARC20.sol:MocCARC20",
        "label": "tcInterestRate",
        "offset": 0,
        "slot": "345",
        "type": "t_uint256"
      },
      {
        "astId": 11129,
        "contract": "contracts/collateral/rc20/MocCARC20.sol:MocCARC20",
        "label": "tcInterestPaymentBlockSpan",
        "offset": 0,
        "slot": "346",
        "type": "t_uint256"
      },
      {
        "astId": 11131,
        "contract": "contracts/collateral/rc20/MocCARC20.sol:MocCARC20",
        "label": "nextTCInterestPayment",
        "offset": 0,
        "slot": "347",
        "type": "t_uint256"
      },
      {
        "astId": 12771,
        "contract": "contracts/collateral/rc20/MocCARC20.sol:MocCARC20",
        "label": "__gap",
        "offset": 0,
        "slot": "348",
        "type": "t_array(t_uint256)50_storage"
      },
      {
        "astId": 16561,
        "contract": "contracts/collateral/rc20/MocCARC20.sol:MocCARC20",
        "label": "tpEma",
        "offset": 0,
        "slot": "398",
        "type": "t_array(t_struct(EmaItem)16557_storage)dyn_storage"
      },
      {
        "astId": 16563,
        "contract": "contracts/collateral/rc20/MocCARC20.sol:MocCARC20",
        "label": "nextEmaCalculation",
        "offset": 0,
        "slot": "399",
        "type": "t_uint256"
      },
      {
        "astId": 16565,
        "contract": "contracts/collateral/rc20/MocCARC20.sol:MocCARC20",
        "label": "emaCalculationBlockSpan",
        "offset": 0,
        "slot": "400",
        "type": "t_uint256"
      },
      {
        "astId": 16937,
        "contract": "contracts/collateral/rc20/MocCARC20.sol:MocCARC20",
        "label": "__gap",
        "offset": 0,
        "slot": "401",
        "type": "t_array(t_uint256)50_storage"
      },
      {
        "astId": 12805,
        "contract": "contracts/collateral/rc20/MocCARC20.sol:MocCARC20",
        "label": "mocVendors",
        "offset": 0,
        "slot": "451",
        "type": "t_contract(MocVendors)28161"
      },
      {
        "astId": 13678,
        "contract": "contracts/collateral/rc20/MocCARC20.sol:MocCARC20",
        "label": "__gap",
        "offset": 0,
        "slot": "452",
        "type": "t_array(t_uint256)50_storage"
      },
      {
        "astId": 13727,
        "contract": "contracts/collateral/rc20/MocCARC20.sol:MocCARC20",
        "label": "mocCoreExpansion",
        "offset": 0,
        "slot": "502",
        "type": "t_address"
      },
      {
        "astId": 15324,
        "contract": "contracts/collateral/rc20/MocCARC20.sol:MocCARC20",
        "label": "__gap",
        "offset": 0,
        "slot": "503",
        "type": "t_array(t_uint256)50_storage"
      },
      {
        "astId": 10577,
        "contract": "contracts/collateral/rc20/MocCARC20.sol:MocCARC20",
        "label": "acToken",
        "offset": 0,
        "slot": "553",
        "type": "t_contract(IERC20)6209"
      },
      {
        "astId": 10918,
        "contract": "contracts/collateral/rc20/MocCARC20.sol:MocCARC20",
        "label": "__gap",
        "offset": 0,
        "slot": "554",
        "type": "t_array(t_uint256)50_storage"
      }
    ],
    "types": {
      "t_address": {
        "encoding": "inplace",
        "label": "address",
        "numberOfBytes": "20"
      },
      "t_address_payable": {
        "encoding": "inplace",
        "label": "address payable",
        "numberOfBytes": "20"
      },
      "t_array(t_contract(IMocRC20)22290)dyn_storage": {
        "base": "t_contract(IMocRC20)22290",
        "encoding": "dynamic_array",
        "label": "contract IMocRC20[]",
        "numberOfBytes": "32"
      },
      "t_array(t_int256)dyn_storage": {
        "base": "t_int256",
        "encoding": "dynamic_array",
        "label": "int256[]",
        "numberOfBytes": "32"
      },
      "t_array(t_struct(EmaItem)16557_storage)dyn_storage": {
        "base": "t_struct(EmaItem)16557_storage",
        "encoding": "dynamic_array",
        "label": "struct MocEma.EmaItem[]",
        "numberOfBytes": "32"
      },
      "t_array(t_struct(PegContainerItem)10957_storage)dyn_storage": {
        "base": "t_struct(PegContainerItem)10957_storage",
        "encoding": "dynamic_array",
        "label": "struct MocBaseBucket.PegContainerItem[]",
        "numberOfBytes": "32"
      },
      "t_array(t_uint256)50_storage": {
        "base": "t_uint256",
        "encoding": "inplace",
        "label": "uint256[50]",
        "numberOfBytes": "1600"
      },
      "t_array(t_uint256)dyn_storage": {
        "base": "t_uint256",
        "encoding": "dynamic_array",
        "label": "uint256[]",
        "numberOfBytes": "32"
      },
      "t_bool": {
        "encoding": "inplace",
        "label": "bool",
        "numberOfBytes": "1"
      },
      "t_contract(IDataProvider)22218": {
        "encoding": "inplace",
        "label": "contract IDataProvider",
        "numberOfBytes": "20"
      },
      "t_contract(IERC20)6209": {
        "encoding": "inplace",
        "label": "contract IERC20",
        "numberOfBytes": "20"
      },
      "t_contract(IGovernor)22264": {
        "encoding": "inplace",
        "label": "contract IGovernor",
        "numberOfBytes": "20"
      },
      "t_contract(IMocRC20)22290": {
        "encoding": "inplace",
        "label": "contract IMocRC20",
        "numberOfBytes": "20"
      },
      "t_contract(IPriceProvider)22302": {
        "encoding": "inplace",
        "label": "contract IPriceProvider",
        "numberOfBytes": "20"
      },
      "t_contract(MocTC)27856": {
        "encoding": "inplace",
        "label": "contract MocTC",
        "numberOfBytes": "20"
      },
      "t_contract(MocVendors)28161": {
        "encoding": "inplace",
        "label": "contract MocVendors",
        "numberOfBytes": "20"
      },
      "t_int256": {
        "encoding": "inplace",
        "label": "int256",
        "numberOfBytes": "32"
      },
      "t_mapping(t_address,t_struct(PeggedTokenIndex)10962_storage)": {
        "encoding": "mapping",
        "key": "t_address",
        "label": "mapping(address => struct MocBaseBucket.PeggedTokenIndex)",
        "numberOfBytes": "32",
        "value": "t_struct(PeggedTokenIndex)10962_storage"
      },
      "t_mapping(t_address,t_uint256)": {
        "encoding": "mapping",
        "key": "t_address",
        "label": "mapping(address => uint256)",
        "numberOfBytes": "32",
        "value": "t_uint256"
      },
      "t_struct(EmaItem)16557_storage": {
        "encoding": "inplace",
        "label": "struct MocEma.EmaItem",
        "members": [
          {
            "astId": 16554,
            "contract": "contracts/collateral/rc20/MocCARC20.sol:MocCARC20",
            "label": "ema",
            "offset": 0,
            "slot": "0",
            "type": "t_uint256"
          },
          {
            "astId": 16556,
            "contract": "contracts/collateral/rc20/MocCARC20.sol:MocCARC20",
            "label": "sf",
            "offset": 0,
            "slot": "1",
            "type": "t_uint256"
          }
        ],
        "numberOfBytes": "64"
      },
      "t_struct(PegContainerItem)10957_storage": {
        "encoding": "inplace",
        "label": "struct MocBaseBucket.PegContainerItem",
        "members": [
          {
            "astId": 10953,
            "contract": "contracts/collateral/rc20/MocCARC20.sol:MocCARC20",
            "label": "nTP",
            "offset": 0,
            "slot": "0",
            "type": "t_uint256"
          },
          {
            "astId": 10956,
            "contract": "contracts/collateral/rc20/MocCARC20.sol:MocCARC20",
            "label": "priceProvider",
            "offset": 0,
            "slot": "1",
            "type": "t_contract(IPriceProvider)22302"
          }
        ],
        "numberOfBytes": "64"
      },
      "t_struct(PeggedTokenIndex)10962_storage": {
        "encoding": "inplace",
        "label": "struct MocBaseBucket.PeggedTokenIndex",
        "members": [
          {
            "astId": 10959,
            "contract": "contracts/collateral/rc20/MocCARC20.sol:MocCARC20",
            "label": "index",
            "offset": 0,
            "slot": "0",
            "type": "t_uint256"
          },
          {
            "astId": 10961,
            "contract": "contracts/collateral/rc20/MocCARC20.sol:MocCARC20",
            "label": "exists",
            "offset": 0,
            "slot": "1",
            "type": "t_bool"
          }
        ],
        "numberOfBytes": "64"
      },
      "t_uint256": {
        "encoding": "inplace",
        "label": "uint256",
        "numberOfBytes": "32"
      },
      "t_uint8": {
        "encoding": "inplace",
        "label": "uint8",
        "numberOfBytes": "1"
      }
    }
  },
  "userdoc": {
    "kind": "user",
    "methods": {
      "addPeggedToken((address,address,uint256,uint256,uint256,uint256,uint256))": {
        "notice": "add a Pegged Token to the protocol"
      },
      "calcCtargemaCA()": {
        "notice": "calculates target coverage adjusted by all Pegged Token's to Collateral Asset rate moving average"
      },
      "changeGovernor(address)": {
        "notice": "Change the contract's governor. Should be called through the old governance system"
      },
      "editPeggedToken((address,address,uint256,uint256,uint256,uint256,uint256))": {
        "notice": "modifies a Pegged Token of the protocol"
      },
      "evalLiquidation()": {
        "notice": "evaluates if liquidation threshold has been reached and liq is Enabled. If so forces contracts liquidation, blocking all mint & redeem operations. May emit a {ContractLiquidated} event."
      },
      "execMintTC((uint256,uint256,address,address,address))": {
        "notice": "executes Operation based on params, only mocQueue allowed see MocCore _mintTCto for details"
      },
      "execMintTCandTP((address,uint256,uint256,address,address,address))": {
        "notice": "executes Operation based on params, only mocQueue allowed see MocCore _mintTCandTPto for details"
      },
      "execMintTP((address,uint256,uint256,address,address,address))": {
        "notice": "executes Operation based on params, only mocQueue allowed see MocCore _mintTPto for details"
      },
      "execRedeemTC((uint256,uint256,address,address,address))": {
        "notice": "executes Operation based on params, only mocQueue allowed see MocCore _redeemTCto for details"
      },
      "execRedeemTCandTP((address,uint256,uint256,uint256,address,address,address))": {
        "notice": "executes Operation based on params, only mocQueue allowed see MocCore _redeemTCandTPto for details"
      },
      "execRedeemTP((address,uint256,uint256,address,address,address))": {
        "notice": "executes Operation based on params, only mocQueue allowed see MocCore _redeemTPto for details"
      },
      "execSettlement()": {
        "notice": "this function is executed during settlement.  stores amount of locked AC by Pegged Tokens at this moment and distribute success fee"
      },
      "execSwapTCforTP((address,uint256,uint256,uint256,address,address,address))": {
        "notice": "executes Operation based on params, only mocQueue allowed see MocCore _swapTCforTPto for details"
      },
      "execSwapTPforTC((address,uint256,uint256,uint256,address,address,address))": {
        "notice": "executes Operation based on params, only mocQueue allowed see MocCore _swapTPforTCto for details"
      },
      "execSwapTPforTP((address,address,uint256,uint256,uint256,address,address,address))": {
        "notice": "executes Operation based on params, only mocQueue allowed see MocCore _swapTPforTPto for details"
      },
      "getBts()": {
        "notice": "get the number of blocks remaining for settlement"
      },
      "getCglb()": {
        "notice": "get bucket global coverage"
      },
      "getLckAC()": {
        "notice": "get amount of Collateral Asset locked by Pegged Token"
      },
      "getLeverageTC()": {
        "notice": "get Collateral Token leverage"
      },
      "getPACtp(address)": {
        "notice": "get how many Pegged Token equal 1 Collateral Asset"
      },
      "getPTCac()": {
        "notice": "get Collateral Token price"
      },
      "getTCAvailableToRedeem()": {
        "notice": "get amount of Collateral Token available to redeem"
      },
      "getTPAvailableToMint(address)": {
        "notice": "get amount of Pegged Token available to mint"
      },
      "getTotalACavailable()": {
        "notice": "get total Collateral Asset available"
      },
      "getTpAmount()": {
        "notice": "return current amount of Tps"
      },
      "governor()": {
        "notice": "The address of the contract which governs this one"
      },
      "initialize((((address,address,address,address,address,address,uint256,uint256,uint256,uint256,uint256,uint256,uint256,uint256,uint256,uint256,uint256,uint256,uint256,uint256,address,uint256,uint256,address,address,uint256,bool),address,address,address,uint256,address),address))": {
        "notice": "contract initializer"
      },
      "isLiquidationReached()": {
        "notice": "If liquidation is enabled, verifies if forced liquidation has been reached, checking if globalCoverage <= liquidation"
      },
      "liqRedeemTP(address,address)": {
        "notice": "Allow redeem on liquidation state, user Peg balance gets burned and he receives the equivalent AC given the liquidation frozen price."
      },
      "makeStoppable()": {
        "notice": "Switches ON the stoppability of the contract. It can be paused or unpaused  Doesn't change the pause state, if the contract was already paused it cannot be operated"
      },
      "makeUnstoppable()": {
        "notice": "Switches OFF the stoppability of the contract. It cannot be paused or unpaused Doesn't change the pause state, if the contract was already paused it cannot be operated"
      },
      "maxQACToMintTP()": {
        "notice": "gets the max amount of AC allowed to operate to mint TP with, restricted by accumulators // TODO: move this function to a MocView contract"
      },
      "maxQACToRedeemTP()": {
        "notice": "gets the max amount of AC allowed to operate to redeem TP with, restricted by accumulators // TODO: move this function to a MocView contract"
      },
      "mintTC(uint256,uint256,address,address)": {
        "notice": "caller sends Collateral Asset and recipient receives Collateral Token  `vendor_` receives a markup in Fee Token if possible or in qAC if not   Requires prior sender approval of Collateral Asset to this contract"
      },
      "mintTCandTP(address,uint256,uint256,address,address)": {
        "notice": "caller sends Collateral Asset and recipient receives Collateral Token and Pegged Token  `vendor_` receives a markup in Fee Token if possible or in qAC if not  Requires prior sender approval of Collateral Asset to this contract  This operation is done without checking coverage  Collateral Token and Pegged Token are minted in equivalent proportions so that its price  and global coverage are not modified.  Reverts if qAC sent are insufficient."
      },
      "mintTP(address,uint256,uint256,address,address)": {
        "notice": "caller sends Collateral Asset and recipient receives Pegged Token  `vendor_` receives a markup in Fee Token if possible or in qAC if not   Requires prior sender approval of Collateral Asset to this contract"
      },
      "pause()": {
        "notice": "Called by the owner to pause, triggers stopped state"
      },
      "paused()": {
        "notice": "Returns true if paused"
      },
      "redeemTC(uint256,uint256,address,address)": {
        "notice": "caller sends Collateral Token and recipient receives Collateral Asset  `vendor_` receives a markup in Fee Token if possible or in qAC if not"
      },
      "redeemTCandTP(address,uint256,uint256,uint256,address,address)": {
        "notice": "Caller sends Collateral Token and Pegged Token and recipient receives Collateral Asset.  `vendor_` receives a markup in Fee Token if possible or in Collateral Asset if not  This operation is done without checking coverage  Collateral Token and Pegged Token are redeemed in equivalent proportions so that their price  and global coverage are not modified.  Reverts if qTP sent are insufficient."
      },
      "redeemTP(address,uint256,uint256,address,address)": {
        "notice": "caller sends Pegged Token and recipient receives Collateral Asset  `vendor_` receives a markup in Fee Token if possible or in qAC if not"
      },
      "refreshACBalance()": {
        "notice": "Refreshes the AC holdings for the Bucket"
      },
      "setPauser(address)": {
        "notice": "Changes the address which is enable to pause this contract"
      },
      "shouldCalculateEma()": {
        "notice": "true if the necessary span has pass since last ema update"
      },
      "swapTCforTP(address,uint256,uint256,uint256,address,address)": {
        "notice": "Caller sends a Collateral Token and recipient receives Pegged Token.  `vendor_` receives a markup in Fee Token if possible or in qAC if not."
      },
      "swapTPforTC(address,uint256,uint256,uint256,address,address)": {
        "notice": "caller sends a Pegged Token and recipient receives Collateral Token  `vendor_` receives a markup in Fee Token if possible or in qAC if not"
      },
      "swapTPforTP(address,address,uint256,uint256,uint256,address,address)": {
        "notice": "caller sends a Pegged Token and recipient receives another one  `vendor_` receives a markup in Fee Token if possible or in qAC if not"
      },
      "tcHoldersInterestPayment()": {
        "notice": "executes the interest payment of the TC holders  can only be executed after a block span"
      },
      "unlockACInPending(address,uint256)": {
        "notice": "while executing a pending Operation, if it fails we need to unlock user's funds"
      },
      "unlockTCInPending(address,uint256)": {
        "notice": "while executing a pending Operation, if it fails we need to unlock user's tokens"
      },
      "unlockTPInPending(address,address,uint256)": {
        "notice": "while executing a pending Operation, if it fails we need to unlock user's tokens"
      },
      "unpause()": {
        "notice": "Called by the owner to unpause, returns to normal state"
      },
      "updateEmas()": {
        "notice": "If time, calculates the EMA for all the Pegged Token prices."
      }
    },
    "notice": "Moc protocol implementation using a RC20 as Collateral Asset.",
    "version": 1
  }
}