{
  "contractName": "MocCARC20",
  "sourceName": "contracts/collateral/rc20/MocCARC20.sol",
  "abi": [
    {
      "inputs": [],
      "stateMutability": "nonpayable",
      "type": "constructor"
    },
    {
      "inputs": [
        {
          "internalType": "uint256",
          "name": "qACsent_",
          "type": "uint256"
        },
        {
          "internalType": "uint256",
          "name": "qACNeeded_",
          "type": "uint256"
        }
      ],
      "name": "InsufficientQacSent",
      "type": "error"
    },
    {
      "inputs": [
        {
          "internalType": "uint256",
          "name": "qTPsent_",
          "type": "uint256"
        },
        {
          "internalType": "uint256",
          "name": "qTPNeeded_",
          "type": "uint256"
        }
      ],
      "name": "InsufficientQtpSent",
      "type": "error"
    },
    {
      "inputs": [
        {
          "internalType": "uint256",
          "name": "qTC_",
          "type": "uint256"
        },
        {
          "internalType": "uint256",
          "name": "tcAvailableToRedeem_",
          "type": "uint256"
        }
      ],
      "name": "InsufficientTCtoRedeem",
      "type": "error"
    },
    {
      "inputs": [
        {
          "internalType": "uint256",
          "name": "qTP_",
          "type": "uint256"
        },
        {
          "internalType": "uint256",
          "name": "tpAvailableToMint_",
          "type": "uint256"
        }
      ],
      "name": "InsufficientTPtoMint",
      "type": "error"
    },
    {
      "inputs": [
        {
          "internalType": "uint256",
          "name": "qTP_",
          "type": "uint256"
        },
        {
          "internalType": "uint256",
          "name": "tpAvailableToRedeem_",
          "type": "uint256"
        }
      ],
      "name": "InsufficientTPtoRedeem",
      "type": "error"
    },
    {
      "inputs": [],
      "name": "InvalidAddress",
      "type": "error"
    },
    {
      "inputs": [
        {
          "internalType": "address",
          "name": "priceProviderAddress_",
          "type": "address"
        }
      ],
      "name": "InvalidPriceProvider",
      "type": "error"
    },
    {
      "inputs": [],
      "name": "InvalidValue",
      "type": "error"
    },
    {
      "inputs": [],
      "name": "Liquidated",
      "type": "error"
    },
    {
      "inputs": [
        {
          "internalType": "uint256",
          "name": "cglb_",
          "type": "uint256"
        },
        {
          "internalType": "uint256",
          "name": "covThrld_",
          "type": "uint256"
        }
      ],
      "name": "LowCoverage",
      "type": "error"
    },
    {
      "inputs": [],
      "name": "NotAuthorizedChanger",
      "type": "error"
    },
    {
      "inputs": [],
      "name": "NotWhenPaused",
      "type": "error"
    },
    {
      "inputs": [],
      "name": "OnlyPauser",
      "type": "error"
    },
    {
      "inputs": [],
      "name": "OnlySettlement",
      "type": "error"
    },
    {
      "inputs": [],
      "name": "OnlyWhenLiquidated",
      "type": "error"
    },
    {
      "inputs": [],
      "name": "OnlyWhilePaused",
      "type": "error"
    },
    {
      "inputs": [],
      "name": "PeggedTokenAlreadyAdded",
      "type": "error"
    },
    {
      "inputs": [
        {
          "internalType": "uint256",
          "name": "qACmin_",
          "type": "uint256"
        },
        {
          "internalType": "uint256",
          "name": "qACtoRedeem_",
          "type": "uint256"
        }
      ],
      "name": "QacBelowMinimumRequired",
      "type": "error"
    },
    {
      "inputs": [],
      "name": "QacNeededMustBeGreaterThanZero",
      "type": "error"
    },
    {
      "inputs": [
        {
          "internalType": "uint256",
          "name": "qTCmin_",
          "type": "uint256"
        },
        {
          "internalType": "uint256",
          "name": "qTC_",
          "type": "uint256"
        }
      ],
      "name": "QtcBelowMinimumRequired",
      "type": "error"
    },
    {
      "inputs": [
        {
          "internalType": "uint256",
          "name": "qTPmin_",
          "type": "uint256"
        },
        {
          "internalType": "uint256",
          "name": "qTP_",
          "type": "uint256"
        }
      ],
      "name": "QtpBelowMinimumRequired",
      "type": "error"
    },
    {
      "inputs": [],
      "name": "TransferFailed",
      "type": "error"
    },
    {
      "inputs": [],
      "name": "Unstoppable",
      "type": "error"
    },
    {
      "anonymous": false,
      "inputs": [
        {
          "indexed": false,
          "internalType": "address",
          "name": "previousAdmin",
          "type": "address"
        },
        {
          "indexed": false,
          "internalType": "address",
          "name": "newAdmin",
          "type": "address"
        }
      ],
      "name": "AdminChanged",
      "type": "event"
    },
    {
      "anonymous": false,
      "inputs": [
        {
          "indexed": true,
          "internalType": "address",
          "name": "beacon",
          "type": "address"
        }
      ],
      "name": "BeaconUpgraded",
      "type": "event"
    },
    {
      "anonymous": false,
      "inputs": [],
      "name": "ContractLiquidated",
      "type": "event"
    },
    {
      "anonymous": false,
      "inputs": [
        {
          "indexed": false,
          "internalType": "uint8",
          "name": "version",
          "type": "uint8"
        }
      ],
      "name": "Initialized",
      "type": "event"
    },
    {
      "anonymous": false,
      "inputs": [
        {
          "indexed": false,
          "internalType": "address",
          "name": "account",
          "type": "address"
        }
      ],
      "name": "Paused",
      "type": "event"
    },
    {
      "anonymous": false,
      "inputs": [
        {
          "indexed": true,
          "internalType": "uint256",
          "name": "i_",
          "type": "uint256"
        },
        {
          "components": [
            {
              "internalType": "address",
              "name": "tpTokenAddress",
              "type": "address"
            },
            {
              "internalType": "address",
              "name": "priceProviderAddress",
              "type": "address"
            },
            {
              "internalType": "uint256",
              "name": "tpCtarg",
              "type": "uint256"
            },
            {
              "internalType": "uint256",
              "name": "tpMintFee",
              "type": "uint256"
            },
            {
              "internalType": "uint256",
              "name": "tpRedeemFee",
              "type": "uint256"
            },
            {
              "internalType": "uint256",
              "name": "tpEma",
              "type": "uint256"
            },
            {
              "internalType": "uint256",
              "name": "tpEmaSf",
              "type": "uint256"
            }
          ],
          "indexed": false,
          "internalType": "struct MocCore.PeggedTokenParams",
          "name": "peggedTokenParams_",
          "type": "tuple"
        }
      ],
      "name": "PeggedTokenChange",
      "type": "event"
    },
    {
      "anonymous": false,
      "inputs": [],
      "name": "SettlementExecuted",
      "type": "event"
    },
    {
      "anonymous": false,
      "inputs": [
        {
          "indexed": false,
          "internalType": "uint256",
          "name": "mocGain_",
          "type": "uint256"
        },
        {
          "indexed": false,
          "internalType": "uint256[]",
          "name": "tpGain_",
          "type": "uint256[]"
        }
      ],
      "name": "SuccessFeeDistributed",
      "type": "event"
    },
    {
      "anonymous": false,
      "inputs": [
        {
          "indexed": true,
          "internalType": "address",
          "name": "sender_",
          "type": "address"
        },
        {
          "indexed": true,
          "internalType": "address",
          "name": "recipient_",
          "type": "address"
        },
        {
          "indexed": false,
          "internalType": "uint256",
          "name": "qTC_",
          "type": "uint256"
        },
        {
          "indexed": false,
          "internalType": "uint256",
          "name": "qAC_",
          "type": "uint256"
        },
        {
          "indexed": false,
          "internalType": "uint256",
          "name": "qACfee_",
          "type": "uint256"
        }
      ],
      "name": "TCMinted",
      "type": "event"
    },
    {
      "anonymous": false,
      "inputs": [
        {
          "indexed": true,
          "internalType": "address",
          "name": "sender_",
          "type": "address"
        },
        {
          "indexed": true,
          "internalType": "address",
          "name": "recipient_",
          "type": "address"
        },
        {
          "indexed": false,
          "internalType": "uint256",
          "name": "qTC_",
          "type": "uint256"
        },
        {
          "indexed": false,
          "internalType": "uint256",
          "name": "qAC_",
          "type": "uint256"
        },
        {
          "indexed": false,
          "internalType": "uint256",
          "name": "qACfee_",
          "type": "uint256"
        }
      ],
      "name": "TCRedeemed",
      "type": "event"
    },
    {
      "anonymous": false,
      "inputs": [
        {
          "indexed": true,
          "internalType": "uint256",
          "name": "i_",
          "type": "uint256"
        },
        {
          "indexed": true,
          "internalType": "address",
          "name": "sender_",
          "type": "address"
        },
        {
          "indexed": true,
          "internalType": "address",
          "name": "recipient_",
          "type": "address"
        },
        {
          "indexed": false,
          "internalType": "uint256",
          "name": "qTC_",
          "type": "uint256"
        },
        {
          "indexed": false,
          "internalType": "uint256",
          "name": "qTP_",
          "type": "uint256"
        },
        {
          "indexed": false,
          "internalType": "uint256",
          "name": "qACfee_",
          "type": "uint256"
        }
      ],
      "name": "TCSwappedForTP",
      "type": "event"
    },
    {
      "anonymous": false,
      "inputs": [
        {
          "indexed": true,
          "internalType": "uint256",
          "name": "i_",
          "type": "uint256"
        },
        {
          "indexed": true,
          "internalType": "address",
          "name": "sender_",
          "type": "address"
        },
        {
          "indexed": true,
          "internalType": "address",
          "name": "recipient_",
          "type": "address"
        },
        {
          "indexed": false,
          "internalType": "uint256",
          "name": "qTC_",
          "type": "uint256"
        },
        {
          "indexed": false,
          "internalType": "uint256",
          "name": "qTP_",
          "type": "uint256"
        },
        {
          "indexed": false,
          "internalType": "uint256",
          "name": "qAC_",
          "type": "uint256"
        },
        {
          "indexed": false,
          "internalType": "uint256",
          "name": "qACfee_",
          "type": "uint256"
        }
      ],
      "name": "TCandTPMinted",
      "type": "event"
    },
    {
      "anonymous": false,
      "inputs": [
        {
          "indexed": true,
          "internalType": "uint256",
          "name": "i_",
          "type": "uint256"
        },
        {
          "indexed": true,
          "internalType": "address",
          "name": "sender_",
          "type": "address"
        },
        {
          "indexed": true,
          "internalType": "address",
          "name": "recipient_",
          "type": "address"
        },
        {
          "indexed": false,
          "internalType": "uint256",
          "name": "qTC_",
          "type": "uint256"
        },
        {
          "indexed": false,
          "internalType": "uint256",
          "name": "qTP_",
          "type": "uint256"
        },
        {
          "indexed": false,
          "internalType": "uint256",
          "name": "qAC_",
          "type": "uint256"
        },
        {
          "indexed": false,
          "internalType": "uint256",
          "name": "qACfee_",
          "type": "uint256"
        }
      ],
      "name": "TCandTPRedeemed",
      "type": "event"
    },
    {
      "anonymous": false,
      "inputs": [
        {
          "indexed": true,
          "internalType": "uint256",
          "name": "i_",
          "type": "uint256"
        },
        {
          "indexed": true,
          "internalType": "address",
          "name": "sender_",
          "type": "address"
        },
        {
          "indexed": true,
          "internalType": "address",
          "name": "recipient_",
          "type": "address"
        },
        {
          "indexed": false,
          "internalType": "uint256",
          "name": "qTP_",
          "type": "uint256"
        },
        {
          "indexed": false,
          "internalType": "uint256",
          "name": "qAC_",
          "type": "uint256"
        },
        {
          "indexed": false,
          "internalType": "uint256",
          "name": "qACfee_",
          "type": "uint256"
        }
      ],
      "name": "TPMinted",
      "type": "event"
    },
    {
      "anonymous": false,
      "inputs": [
        {
          "indexed": true,
          "internalType": "uint256",
          "name": "i_",
          "type": "uint256"
        },
        {
          "indexed": true,
          "internalType": "address",
          "name": "sender_",
          "type": "address"
        },
        {
          "indexed": true,
          "internalType": "address",
          "name": "recipient_",
          "type": "address"
        },
        {
          "indexed": false,
          "internalType": "uint256",
          "name": "qTP_",
          "type": "uint256"
        },
        {
          "indexed": false,
          "internalType": "uint256",
          "name": "qAC_",
          "type": "uint256"
        },
        {
          "indexed": false,
          "internalType": "uint256",
          "name": "qACfee_",
          "type": "uint256"
        }
      ],
      "name": "TPRedeemed",
      "type": "event"
    },
    {
      "anonymous": false,
      "inputs": [
        {
          "indexed": true,
          "internalType": "uint256",
          "name": "i_",
          "type": "uint256"
        },
        {
          "indexed": true,
          "internalType": "address",
          "name": "sender_",
          "type": "address"
        },
        {
          "indexed": true,
          "internalType": "address",
          "name": "recipient_",
          "type": "address"
        },
        {
          "indexed": false,
          "internalType": "uint256",
          "name": "qTP_",
          "type": "uint256"
        },
        {
          "indexed": false,
          "internalType": "uint256",
          "name": "qTC_",
          "type": "uint256"
        },
        {
          "indexed": false,
          "internalType": "uint256",
          "name": "qACfee_",
          "type": "uint256"
        }
      ],
      "name": "TPSwappedForTC",
      "type": "event"
    },
    {
      "anonymous": false,
      "inputs": [
        {
          "indexed": true,
          "internalType": "uint256",
          "name": "iFrom_",
          "type": "uint256"
        },
        {
          "indexed": false,
          "internalType": "uint256",
          "name": "iTo_",
          "type": "uint256"
        },
        {
          "indexed": true,
          "internalType": "address",
          "name": "sender_",
          "type": "address"
        },
        {
          "indexed": true,
          "internalType": "address",
          "name": "recipient_",
          "type": "address"
        },
        {
          "indexed": false,
          "internalType": "uint256",
          "name": "qTPfrom_",
          "type": "uint256"
        },
        {
          "indexed": false,
          "internalType": "uint256",
          "name": "qTPto_",
          "type": "uint256"
        },
        {
          "indexed": false,
          "internalType": "uint256",
          "name": "qACfee_",
          "type": "uint256"
        }
      ],
      "name": "TPSwappedForTP",
      "type": "event"
    },
    {
      "anonymous": false,
      "inputs": [
        {
          "indexed": true,
          "internalType": "uint256",
          "name": "i_",
          "type": "uint256"
        },
        {
          "indexed": false,
          "internalType": "uint256",
          "name": "oldTPema_",
          "type": "uint256"
        },
        {
          "indexed": false,
          "internalType": "uint256",
          "name": "newTPema_",
          "type": "uint256"
        }
      ],
      "name": "TPemaUpdated",
      "type": "event"
    },
    {
      "anonymous": false,
      "inputs": [
        {
          "indexed": false,
          "internalType": "address",
          "name": "account",
          "type": "address"
        }
      ],
      "name": "Unpaused",
      "type": "event"
    },
    {
      "anonymous": false,
      "inputs": [
        {
          "indexed": true,
          "internalType": "address",
          "name": "implementation",
          "type": "address"
        }
      ],
      "name": "Upgraded",
      "type": "event"
    },
    {
      "inputs": [
        {
          "components": [
            {
              "internalType": "address",
              "name": "tpTokenAddress",
              "type": "address"
            },
            {
              "internalType": "address",
              "name": "priceProviderAddress",
              "type": "address"
            },
            {
              "internalType": "uint256",
              "name": "tpCtarg",
              "type": "uint256"
            },
            {
              "internalType": "uint256",
              "name": "tpMintFee",
              "type": "uint256"
            },
            {
              "internalType": "uint256",
              "name": "tpRedeemFee",
              "type": "uint256"
            },
            {
              "internalType": "uint256",
              "name": "tpEma",
              "type": "uint256"
            },
            {
              "internalType": "uint256",
              "name": "tpEmaSf",
              "type": "uint256"
            }
          ],
          "internalType": "struct MocCore.PeggedTokenParams",
          "name": "peggedTokenParams_",
          "type": "tuple"
        }
      ],
      "name": "addPeggedToken",
      "outputs": [],
      "stateMutability": "nonpayable",
      "type": "function"
    },
    {
      "inputs": [],
      "name": "appreciationFactor",
      "outputs": [
        {
          "internalType": "uint256",
          "name": "",
          "type": "uint256"
        }
      ],
      "stateMutability": "view",
      "type": "function"
    },
    {
      "inputs": [],
      "name": "bes",
      "outputs": [
        {
          "internalType": "uint256",
          "name": "",
          "type": "uint256"
        }
      ],
      "stateMutability": "view",
      "type": "function"
    },
    {
      "inputs": [],
      "name": "bns",
      "outputs": [
        {
          "internalType": "uint256",
          "name": "",
          "type": "uint256"
        }
      ],
      "stateMutability": "view",
      "type": "function"
    },
    {
      "inputs": [],
      "name": "calcCtargemaCA",
      "outputs": [
        {
          "internalType": "uint256",
          "name": "ctargemaCA",
          "type": "uint256"
        }
      ],
      "stateMutability": "view",
      "type": "function"
    },
    {
      "inputs": [
        {
          "internalType": "contract IGovernor",
          "name": "newGovernor_",
          "type": "address"
        }
      ],
      "name": "changeGovernor",
      "outputs": [],
      "stateMutability": "nonpayable",
      "type": "function"
    },
    {
      "inputs": [
        {
          "components": [
            {
              "internalType": "address",
              "name": "tpTokenAddress",
              "type": "address"
            },
            {
              "internalType": "address",
              "name": "priceProviderAddress",
              "type": "address"
            },
            {
              "internalType": "uint256",
              "name": "tpCtarg",
              "type": "uint256"
            },
            {
              "internalType": "uint256",
              "name": "tpMintFee",
              "type": "uint256"
            },
            {
              "internalType": "uint256",
              "name": "tpRedeemFee",
              "type": "uint256"
            },
            {
              "internalType": "uint256",
              "name": "tpEma",
              "type": "uint256"
            },
            {
              "internalType": "uint256",
              "name": "tpEmaSf",
              "type": "uint256"
            }
          ],
          "internalType": "struct MocCore.PeggedTokenParams",
          "name": "peggedTokenParams_",
          "type": "tuple"
        }
      ],
      "name": "editPeggedToken",
      "outputs": [],
      "stateMutability": "nonpayable",
      "type": "function"
    },
    {
      "inputs": [],
      "name": "emaCalculationBlockSpan",
      "outputs": [
        {
          "internalType": "uint256",
          "name": "",
          "type": "uint256"
        }
      ],
      "stateMutability": "view",
      "type": "function"
    },
    {
      "inputs": [],
      "name": "evalLiquidation",
      "outputs": [],
      "stateMutability": "nonpayable",
      "type": "function"
    },
    {
      "inputs": [],
      "name": "execSettlement",
      "outputs": [],
      "stateMutability": "nonpayable",
      "type": "function"
    },
    {
      "inputs": [],
      "name": "feeRetainer",
      "outputs": [
        {
          "internalType": "uint256",
          "name": "",
          "type": "uint256"
        }
      ],
      "stateMutability": "view",
      "type": "function"
    },
    {
      "inputs": [],
      "name": "getBts",
      "outputs": [
        {
          "internalType": "uint256",
          "name": "",
          "type": "uint256"
        }
      ],
      "stateMutability": "view",
      "type": "function"
    },
    {
      "inputs": [],
      "name": "getCglb",
      "outputs": [
        {
          "internalType": "uint256",
          "name": "cglob",
          "type": "uint256"
        }
      ],
      "stateMutability": "view",
      "type": "function"
    },
    {
      "inputs": [],
      "name": "getLeverageTC",
      "outputs": [
        {
          "internalType": "uint256",
          "name": "leverageTC",
          "type": "uint256"
        }
      ],
      "stateMutability": "view",
      "type": "function"
    },
    {
      "inputs": [
        {
          "internalType": "uint256",
          "name": "i_",
          "type": "uint256"
        }
      ],
      "name": "getPACtp",
      "outputs": [
        {
          "internalType": "uint256",
          "name": "",
          "type": "uint256"
        }
      ],
      "stateMutability": "view",
      "type": "function"
    },
    {
      "inputs": [],
      "name": "getPTCac",
      "outputs": [
        {
          "internalType": "uint256",
          "name": "pTCac",
          "type": "uint256"
        }
      ],
      "stateMutability": "view",
      "type": "function"
    },
    {
      "inputs": [
        {
          "internalType": "uint256",
          "name": "i_",
          "type": "uint256"
        },
        {
          "internalType": "uint256",
          "name": "qTP_",
          "type": "uint256"
        }
      ],
      "name": "getQACforRedeemTP",
      "outputs": [
        {
          "internalType": "uint256",
          "name": "qACtotalToRedeem",
          "type": "uint256"
        },
        {
          "internalType": "uint256",
          "name": "qACfee",
          "type": "uint256"
        }
      ],
      "stateMutability": "view",
      "type": "function"
    },
    {
      "inputs": [],
      "name": "getTCAvailableToRedeem",
      "outputs": [
        {
          "internalType": "uint256",
          "name": "tcAvailableToRedeem",
          "type": "uint256"
        }
      ],
      "stateMutability": "view",
      "type": "function"
    },
    {
      "inputs": [
        {
          "internalType": "uint256",
          "name": "i_",
          "type": "uint256"
        }
      ],
      "name": "getTPAvailableToMint",
      "outputs": [
        {
          "internalType": "uint256",
          "name": "tpAvailableToMint",
          "type": "uint256"
        }
      ],
      "stateMutability": "view",
      "type": "function"
    },
    {
      "inputs": [],
      "name": "getTotalACavailable",
      "outputs": [
        {
          "internalType": "uint256",
          "name": "totalACavailable",
          "type": "uint256"
        }
      ],
      "stateMutability": "view",
      "type": "function"
    },
    {
      "inputs": [],
      "name": "governor",
      "outputs": [
        {
          "internalType": "contract IGovernor",
          "name": "",
          "type": "address"
        }
      ],
      "stateMutability": "view",
      "type": "function"
    },
    {
      "inputs": [
        {
          "components": [
            {
              "components": [
                {
                  "components": [
                    {
                      "internalType": "address",
                      "name": "tcTokenAddress",
                      "type": "address"
                    },
                    {
                      "internalType": "address",
                      "name": "mocFeeFlowAddress",
                      "type": "address"
                    },
                    {
                      "internalType": "address",
                      "name": "mocAppreciationBeneficiaryAddress",
                      "type": "address"
                    },
                    {
                      "internalType": "uint256",
                      "name": "protThrld",
                      "type": "uint256"
                    },
                    {
                      "internalType": "uint256",
                      "name": "liqThrld",
                      "type": "uint256"
                    },
                    {
                      "internalType": "uint256",
                      "name": "feeRetainer",
                      "type": "uint256"
                    },
                    {
                      "internalType": "uint256",
                      "name": "tcMintFee",
                      "type": "uint256"
                    },
                    {
                      "internalType": "uint256",
                      "name": "tcRedeemFee",
                      "type": "uint256"
                    },
                    {
                      "internalType": "uint256",
                      "name": "swapTPforTPFee",
                      "type": "uint256"
                    },
                    {
                      "internalType": "uint256",
                      "name": "swapTPforTCFee",
                      "type": "uint256"
                    },
                    {
                      "internalType": "uint256",
                      "name": "swapTCforTPFee",
                      "type": "uint256"
                    },
                    {
                      "internalType": "uint256",
                      "name": "redeemTCandTPFee",
                      "type": "uint256"
                    },
                    {
                      "internalType": "uint256",
                      "name": "mintTCandTPFee",
                      "type": "uint256"
                    },
                    {
                      "internalType": "uint256",
                      "name": "successFee",
                      "type": "uint256"
                    },
                    {
                      "internalType": "uint256",
                      "name": "appreciationFactor",
                      "type": "uint256"
                    }
                  ],
                  "internalType": "struct MocBaseBucket.InitializeBaseBucketParams",
                  "name": "initializeBaseBucketParams",
                  "type": "tuple"
                },
                {
                  "internalType": "address",
                  "name": "governorAddress",
                  "type": "address"
                },
                {
                  "internalType": "address",
                  "name": "pauserAddress",
                  "type": "address"
                },
                {
                  "internalType": "uint256",
                  "name": "emaCalculationBlockSpan",
                  "type": "uint256"
                },
                {
                  "internalType": "uint256",
                  "name": "bes",
                  "type": "uint256"
                }
              ],
              "internalType": "struct MocCore.InitializeCoreParams",
              "name": "initializeCoreParams",
              "type": "tuple"
            },
            {
              "internalType": "address",
              "name": "acTokenAddress",
              "type": "address"
            }
          ],
          "internalType": "struct MocCARC20.InitializeParams",
          "name": "initializeParams_",
          "type": "tuple"
        }
      ],
      "name": "initialize",
      "outputs": [],
      "stateMutability": "nonpayable",
      "type": "function"
    },
    {
      "inputs": [],
      "name": "isLiquidationReached",
      "outputs": [
        {
          "internalType": "bool",
          "name": "",
          "type": "bool"
        }
      ],
      "stateMutability": "view",
      "type": "function"
    },
    {
      "inputs": [],
      "name": "liqEnabled",
      "outputs": [
        {
          "internalType": "bool",
          "name": "",
          "type": "bool"
        }
      ],
      "stateMutability": "view",
      "type": "function"
    },
    {
      "inputs": [
        {
          "internalType": "uint256",
          "name": "i_",
          "type": "uint256"
        }
      ],
      "name": "liqRedeemTP",
      "outputs": [
        {
          "internalType": "uint256",
          "name": "qACRedeemed",
          "type": "uint256"
        }
      ],
      "stateMutability": "nonpayable",
      "type": "function"
    },
    {
      "inputs": [
        {
          "internalType": "uint256",
          "name": "i_",
          "type": "uint256"
        },
        {
          "internalType": "address",
          "name": "recipient_",
          "type": "address"
        }
      ],
      "name": "liqRedeemTPto",
      "outputs": [
        {
          "internalType": "uint256",
          "name": "qACRedeemed",
          "type": "uint256"
        }
      ],
      "stateMutability": "nonpayable",
      "type": "function"
    },
    {
      "inputs": [],
      "name": "liqThrld",
      "outputs": [
        {
          "internalType": "uint256",
          "name": "",
          "type": "uint256"
        }
      ],
      "stateMutability": "view",
      "type": "function"
    },
    {
      "inputs": [],
      "name": "liquidated",
      "outputs": [
        {
          "internalType": "bool",
          "name": "",
          "type": "bool"
        }
      ],
      "stateMutability": "view",
      "type": "function"
    },
    {
      "inputs": [],
      "name": "makeStoppable",
      "outputs": [],
      "stateMutability": "nonpayable",
      "type": "function"
    },
    {
      "inputs": [],
      "name": "makeUnstoppable",
      "outputs": [],
      "stateMutability": "nonpayable",
      "type": "function"
    },
    {
      "inputs": [
        {
          "internalType": "uint256",
          "name": "qTC_",
          "type": "uint256"
        },
        {
          "internalType": "uint256",
          "name": "qACmax_",
          "type": "uint256"
        }
      ],
      "name": "mintTC",
      "outputs": [
        {
          "internalType": "uint256",
          "name": "qACtotalNeeded",
          "type": "uint256"
        }
      ],
      "stateMutability": "nonpayable",
      "type": "function"
    },
    {
      "inputs": [
        {
          "internalType": "uint256",
          "name": "i_",
          "type": "uint256"
        },
        {
          "internalType": "uint256",
          "name": "qTP_",
          "type": "uint256"
        },
        {
          "internalType": "uint256",
          "name": "qACmax_",
          "type": "uint256"
        }
      ],
      "name": "mintTCandTP",
      "outputs": [
        {
          "internalType": "uint256",
          "name": "qACtotalNeeded",
          "type": "uint256"
        },
        {
          "internalType": "uint256",
          "name": "qTCtoMint",
          "type": "uint256"
        }
      ],
      "stateMutability": "payable",
      "type": "function"
    },
    {
      "inputs": [],
      "name": "mintTCandTPFee",
      "outputs": [
        {
          "internalType": "uint256",
          "name": "",
          "type": "uint256"
        }
      ],
      "stateMutability": "view",
      "type": "function"
    },
    {
      "inputs": [
        {
          "internalType": "uint256",
          "name": "i_",
          "type": "uint256"
        },
        {
          "internalType": "uint256",
          "name": "qTP_",
          "type": "uint256"
        },
        {
          "internalType": "uint256",
          "name": "qACmax_",
          "type": "uint256"
        },
        {
          "internalType": "address",
          "name": "recipient_",
          "type": "address"
        }
      ],
      "name": "mintTCandTPto",
      "outputs": [
        {
          "internalType": "uint256",
          "name": "qACtotalNeeded",
          "type": "uint256"
        },
        {
          "internalType": "uint256",
          "name": "qTCtoMint",
          "type": "uint256"
        }
      ],
      "stateMutability": "payable",
      "type": "function"
    },
    {
      "inputs": [
        {
          "internalType": "uint256",
          "name": "qTC_",
          "type": "uint256"
        },
        {
          "internalType": "uint256",
          "name": "qACmax_",
          "type": "uint256"
        },
        {
          "internalType": "address",
          "name": "recipient_",
          "type": "address"
        }
      ],
      "name": "mintTCto",
      "outputs": [
        {
          "internalType": "uint256",
          "name": "qACtotalNeeded",
          "type": "uint256"
        }
      ],
      "stateMutability": "nonpayable",
      "type": "function"
    },
    {
      "inputs": [
        {
          "internalType": "uint256",
          "name": "i_",
          "type": "uint256"
        },
        {
          "internalType": "uint256",
          "name": "qTP_",
          "type": "uint256"
        },
        {
          "internalType": "uint256",
          "name": "qACmax_",
          "type": "uint256"
        }
      ],
      "name": "mintTP",
      "outputs": [
        {
          "internalType": "uint256",
          "name": "qACtotalNeeded",
          "type": "uint256"
        }
      ],
      "stateMutability": "nonpayable",
      "type": "function"
    },
    {
      "inputs": [
        {
          "internalType": "uint256",
          "name": "i_",
          "type": "uint256"
        },
        {
          "internalType": "uint256",
          "name": "qTP_",
          "type": "uint256"
        },
        {
          "internalType": "uint256",
          "name": "qACmax_",
          "type": "uint256"
        },
        {
          "internalType": "address",
          "name": "recipient_",
          "type": "address"
        }
      ],
      "name": "mintTPto",
      "outputs": [
        {
          "internalType": "uint256",
          "name": "qACtotalNeeded",
          "type": "uint256"
        }
      ],
      "stateMutability": "nonpayable",
      "type": "function"
    },
    {
      "inputs": [],
      "name": "mocAppreciationBeneficiaryAddress",
      "outputs": [
        {
          "internalType": "address",
          "name": "",
          "type": "address"
        }
      ],
      "stateMutability": "view",
      "type": "function"
    },
    {
      "inputs": [],
      "name": "mocFeeFlowAddress",
      "outputs": [
        {
          "internalType": "address",
          "name": "",
          "type": "address"
        }
      ],
      "stateMutability": "view",
      "type": "function"
    },
    {
      "inputs": [],
      "name": "nACcb",
      "outputs": [
        {
          "internalType": "uint256",
          "name": "",
          "type": "uint256"
        }
      ],
      "stateMutability": "view",
      "type": "function"
    },
    {
      "inputs": [],
      "name": "nTCcb",
      "outputs": [
        {
          "internalType": "uint256",
          "name": "",
          "type": "uint256"
        }
      ],
      "stateMutability": "view",
      "type": "function"
    },
    {
      "inputs": [],
      "name": "nextEmaCalculation",
      "outputs": [
        {
          "internalType": "uint256",
          "name": "",
          "type": "uint256"
        }
      ],
      "stateMutability": "view",
      "type": "function"
    },
    {
      "inputs": [],
      "name": "pause",
      "outputs": [],
      "stateMutability": "nonpayable",
      "type": "function"
    },
    {
      "inputs": [],
      "name": "paused",
      "outputs": [
        {
          "internalType": "bool",
          "name": "",
          "type": "bool"
        }
      ],
      "stateMutability": "view",
      "type": "function"
    },
    {
      "inputs": [],
      "name": "pauser",
      "outputs": [
        {
          "internalType": "address",
          "name": "",
          "type": "address"
        }
      ],
      "stateMutability": "view",
      "type": "function"
    },
    {
      "inputs": [
        {
          "internalType": "uint256",
          "name": "",
          "type": "uint256"
        }
      ],
      "name": "pegContainer",
      "outputs": [
        {
          "internalType": "uint256",
          "name": "nTP",
          "type": "uint256"
        },
        {
          "internalType": "contract IPriceProvider",
          "name": "priceProvider",
          "type": "address"
        }
      ],
      "stateMutability": "view",
      "type": "function"
    },
    {
      "inputs": [
        {
          "internalType": "address",
          "name": "",
          "type": "address"
        }
      ],
      "name": "peggedTokenIndex",
      "outputs": [
        {
          "internalType": "uint256",
          "name": "index",
          "type": "uint256"
        },
        {
          "internalType": "bool",
          "name": "exists",
          "type": "bool"
        }
      ],
      "stateMutability": "view",
      "type": "function"
    },
    {
      "inputs": [],
      "name": "protThrld",
      "outputs": [
        {
          "internalType": "uint256",
          "name": "",
          "type": "uint256"
        }
      ],
      "stateMutability": "view",
      "type": "function"
    },
    {
      "inputs": [],
      "name": "proxiableUUID",
      "outputs": [
        {
          "internalType": "bytes32",
          "name": "",
          "type": "bytes32"
        }
      ],
      "stateMutability": "view",
      "type": "function"
    },
    {
      "inputs": [
        {
          "internalType": "uint256",
          "name": "qTC_",
          "type": "uint256"
        },
        {
          "internalType": "uint256",
          "name": "qACmin_",
          "type": "uint256"
        }
      ],
      "name": "redeemTC",
      "outputs": [
        {
          "internalType": "uint256",
          "name": "qACRedeemed",
          "type": "uint256"
        }
      ],
      "stateMutability": "nonpayable",
      "type": "function"
    },
    {
      "inputs": [
        {
          "internalType": "uint256",
          "name": "i_",
          "type": "uint256"
        },
        {
          "internalType": "uint256",
          "name": "qTC_",
          "type": "uint256"
        },
        {
          "internalType": "uint256",
          "name": "qTP_",
          "type": "uint256"
        },
        {
          "internalType": "uint256",
          "name": "qACmin_",
          "type": "uint256"
        }
      ],
      "name": "redeemTCandTP",
      "outputs": [
        {
          "internalType": "uint256",
          "name": "qACRedeemed",
          "type": "uint256"
        },
        {
          "internalType": "uint256",
          "name": "qTPRedeemed",
          "type": "uint256"
        }
      ],
      "stateMutability": "nonpayable",
      "type": "function"
    },
    {
      "inputs": [],
      "name": "redeemTCandTPFee",
      "outputs": [
        {
          "internalType": "uint256",
          "name": "",
          "type": "uint256"
        }
      ],
      "stateMutability": "view",
      "type": "function"
    },
    {
      "inputs": [
        {
          "internalType": "uint256",
          "name": "i_",
          "type": "uint256"
        },
        {
          "internalType": "uint256",
          "name": "qTC_",
          "type": "uint256"
        },
        {
          "internalType": "uint256",
          "name": "qTP_",
          "type": "uint256"
        },
        {
          "internalType": "uint256",
          "name": "qACmin_",
          "type": "uint256"
        },
        {
          "internalType": "address",
          "name": "recipient_",
          "type": "address"
        }
      ],
      "name": "redeemTCandTPto",
      "outputs": [
        {
          "internalType": "uint256",
          "name": "qACRedeemed",
          "type": "uint256"
        },
        {
          "internalType": "uint256",
          "name": "qTPRedeemed",
          "type": "uint256"
        }
      ],
      "stateMutability": "nonpayable",
      "type": "function"
    },
    {
      "inputs": [
        {
          "internalType": "uint256",
          "name": "qTC_",
          "type": "uint256"
        },
        {
          "internalType": "uint256",
          "name": "qACmin_",
          "type": "uint256"
        },
        {
          "internalType": "address",
          "name": "recipient_",
          "type": "address"
        }
      ],
      "name": "redeemTCto",
      "outputs": [
        {
          "internalType": "uint256",
          "name": "qACRedeemed",
          "type": "uint256"
        }
      ],
      "stateMutability": "nonpayable",
      "type": "function"
    },
    {
      "inputs": [
        {
          "internalType": "uint256",
          "name": "i_",
          "type": "uint256"
        },
        {
          "internalType": "uint256",
          "name": "qTP_",
          "type": "uint256"
        },
        {
          "internalType": "uint256",
          "name": "qACmin_",
          "type": "uint256"
        }
      ],
      "name": "redeemTP",
      "outputs": [
        {
          "internalType": "uint256",
          "name": "qACRedeemed",
          "type": "uint256"
        }
      ],
      "stateMutability": "nonpayable",
      "type": "function"
    },
    {
      "inputs": [
        {
          "internalType": "uint256",
          "name": "i_",
          "type": "uint256"
        },
        {
          "internalType": "uint256",
          "name": "qTP_",
          "type": "uint256"
        },
        {
          "internalType": "uint256",
          "name": "qACmin_",
          "type": "uint256"
        },
        {
          "internalType": "address",
          "name": "recipient_",
          "type": "address"
        }
      ],
      "name": "redeemTPto",
      "outputs": [
        {
          "internalType": "uint256",
          "name": "qACRedeemed",
          "type": "uint256"
        }
      ],
      "stateMutability": "nonpayable",
      "type": "function"
    },
    {
      "inputs": [],
      "name": "refreshACBalance",
      "outputs": [],
      "stateMutability": "nonpayable",
      "type": "function"
    },
    {
      "inputs": [
        {
          "internalType": "uint256",
          "name": "appreciationFactor_",
          "type": "uint256"
        }
      ],
      "name": "setAppreciationFactor",
      "outputs": [],
      "stateMutability": "nonpayable",
      "type": "function"
    },
    {
      "inputs": [
        {
          "internalType": "uint256",
          "name": "bes_",
          "type": "uint256"
        }
      ],
      "name": "setBes",
      "outputs": [],
      "stateMutability": "nonpayable",
      "type": "function"
    },
    {
      "inputs": [
        {
          "internalType": "uint256",
          "name": "blockSpan_",
          "type": "uint256"
        }
      ],
      "name": "setEmaCalculationBlockSpan",
      "outputs": [],
      "stateMutability": "nonpayable",
      "type": "function"
    },
    {
      "inputs": [
        {
          "internalType": "uint256",
          "name": "feeRetainer_",
          "type": "uint256"
        }
      ],
      "name": "setFeeRetainer",
      "outputs": [],
      "stateMutability": "nonpayable",
      "type": "function"
    },
    {
      "inputs": [
        {
          "internalType": "bool",
          "name": "liqEnabled_",
          "type": "bool"
        }
      ],
      "name": "setLiqEnabled",
      "outputs": [],
      "stateMutability": "nonpayable",
      "type": "function"
    },
    {
      "inputs": [
        {
          "internalType": "uint256",
          "name": "liqThrld_",
          "type": "uint256"
        }
      ],
      "name": "setLiqThrld",
      "outputs": [],
      "stateMutability": "nonpayable",
      "type": "function"
    },
    {
      "inputs": [
        {
          "internalType": "uint256",
          "name": "mintTCandTPFee_",
          "type": "uint256"
        }
      ],
      "name": "setMintTCandTPFee",
      "outputs": [],
      "stateMutability": "nonpayable",
      "type": "function"
    },
    {
      "inputs": [
        {
          "internalType": "address",
          "name": "mocAppreciationBeneficiaryAddress_",
          "type": "address"
        }
      ],
      "name": "setMocAppreciationBeneficiaryAddress",
      "outputs": [],
      "stateMutability": "nonpayable",
      "type": "function"
    },
    {
      "inputs": [
        {
          "internalType": "address",
          "name": "mocFeeFlowAddress_",
          "type": "address"
        }
      ],
      "name": "setMocFeeFlowAddress",
      "outputs": [],
      "stateMutability": "nonpayable",
      "type": "function"
    },
    {
      "inputs": [
        {
          "internalType": "address",
          "name": "newPauser_",
          "type": "address"
        }
      ],
      "name": "setPauser",
      "outputs": [],
      "stateMutability": "nonpayable",
      "type": "function"
    },
    {
      "inputs": [
        {
          "internalType": "uint256",
          "name": "protThrld_",
          "type": "uint256"
        }
      ],
      "name": "setProtThrld",
      "outputs": [],
      "stateMutability": "nonpayable",
      "type": "function"
    },
    {
      "inputs": [
        {
          "internalType": "uint256",
          "name": "redeemTCandTPFee_",
          "type": "uint256"
        }
      ],
      "name": "setRedeemTCandTPFee",
      "outputs": [],
      "stateMutability": "nonpayable",
      "type": "function"
    },
    {
      "inputs": [
        {
          "internalType": "uint256",
          "name": "successFee_",
          "type": "uint256"
        }
      ],
      "name": "setSuccessFee",
      "outputs": [],
      "stateMutability": "nonpayable",
      "type": "function"
    },
    {
      "inputs": [
        {
          "internalType": "uint256",
          "name": "swapTCforTPFee_",
          "type": "uint256"
        }
      ],
      "name": "setSwapTCforTPFee",
      "outputs": [],
      "stateMutability": "nonpayable",
      "type": "function"
    },
    {
      "inputs": [
        {
          "internalType": "uint256",
          "name": "swapTPforTCFee_",
          "type": "uint256"
        }
      ],
      "name": "setSwapTPforTCFee",
      "outputs": [],
      "stateMutability": "nonpayable",
      "type": "function"
    },
    {
      "inputs": [
        {
          "internalType": "uint256",
          "name": "swapTPforTPFee_",
          "type": "uint256"
        }
      ],
      "name": "setSwapTPforTPFee",
      "outputs": [],
      "stateMutability": "nonpayable",
      "type": "function"
    },
    {
      "inputs": [
        {
          "internalType": "uint256",
          "name": "tcMintFee_",
          "type": "uint256"
        }
      ],
      "name": "setTcMintFee",
      "outputs": [],
      "stateMutability": "nonpayable",
      "type": "function"
    },
    {
      "inputs": [
        {
          "internalType": "uint256",
          "name": "tcRedeemFee_",
          "type": "uint256"
        }
      ],
      "name": "setTcRedeemFee",
      "outputs": [],
      "stateMutability": "nonpayable",
      "type": "function"
    },
    {
      "inputs": [],
      "name": "shouldCalculateEma",
      "outputs": [
        {
          "internalType": "bool",
          "name": "",
          "type": "bool"
        }
      ],
      "stateMutability": "view",
      "type": "function"
    },
    {
      "inputs": [],
      "name": "stoppable",
      "outputs": [
        {
          "internalType": "bool",
          "name": "",
          "type": "bool"
        }
      ],
      "stateMutability": "view",
      "type": "function"
    },
    {
      "inputs": [],
      "name": "successFee",
      "outputs": [
        {
          "internalType": "uint256",
          "name": "",
          "type": "uint256"
        }
      ],
      "stateMutability": "view",
      "type": "function"
    },
    {
      "inputs": [
        {
          "internalType": "uint256",
          "name": "i_",
          "type": "uint256"
        },
        {
          "internalType": "uint256",
          "name": "qTC_",
          "type": "uint256"
        },
        {
          "internalType": "uint256",
          "name": "qTPmin_",
          "type": "uint256"
        },
        {
          "internalType": "uint256",
          "name": "qACmax_",
          "type": "uint256"
        }
      ],
      "name": "swapTCforTP",
      "outputs": [
        {
          "internalType": "uint256",
          "name": "qACFee",
          "type": "uint256"
        },
        {
          "internalType": "uint256",
          "name": "qTPMinted",
          "type": "uint256"
        }
      ],
      "stateMutability": "nonpayable",
      "type": "function"
    },
    {
      "inputs": [],
      "name": "swapTCforTPFee",
      "outputs": [
        {
          "internalType": "uint256",
          "name": "",
          "type": "uint256"
        }
      ],
      "stateMutability": "view",
      "type": "function"
    },
    {
      "inputs": [
        {
          "internalType": "uint256",
          "name": "i_",
          "type": "uint256"
        },
        {
          "internalType": "uint256",
          "name": "qTC_",
          "type": "uint256"
        },
        {
          "internalType": "uint256",
          "name": "qTPmin_",
          "type": "uint256"
        },
        {
          "internalType": "uint256",
          "name": "qACmax_",
          "type": "uint256"
        },
        {
          "internalType": "address",
          "name": "recipient_",
          "type": "address"
        }
      ],
      "name": "swapTCforTPto",
      "outputs": [
        {
          "internalType": "uint256",
          "name": "qACFee",
          "type": "uint256"
        },
        {
          "internalType": "uint256",
          "name": "qTPMinted",
          "type": "uint256"
        }
      ],
      "stateMutability": "nonpayable",
      "type": "function"
    },
    {
      "inputs": [
        {
          "internalType": "uint256",
          "name": "i_",
          "type": "uint256"
        },
        {
          "internalType": "uint256",
          "name": "qTP_",
          "type": "uint256"
        },
        {
          "internalType": "uint256",
          "name": "qTCmin_",
          "type": "uint256"
        },
        {
          "internalType": "uint256",
          "name": "qACmax_",
          "type": "uint256"
        }
      ],
      "name": "swapTPforTC",
      "outputs": [
        {
          "internalType": "uint256",
          "name": "qACFee",
          "type": "uint256"
        },
        {
          "internalType": "uint256",
          "name": "qTPMinted",
          "type": "uint256"
        }
      ],
      "stateMutability": "nonpayable",
      "type": "function"
    },
    {
      "inputs": [],
      "name": "swapTPforTCFee",
      "outputs": [
        {
          "internalType": "uint256",
          "name": "",
          "type": "uint256"
        }
      ],
      "stateMutability": "view",
      "type": "function"
    },
    {
      "inputs": [
        {
          "internalType": "uint256",
          "name": "i_",
          "type": "uint256"
        },
        {
          "internalType": "uint256",
          "name": "qTP_",
          "type": "uint256"
        },
        {
          "internalType": "uint256",
          "name": "qTCmin_",
          "type": "uint256"
        },
        {
          "internalType": "uint256",
          "name": "qACmax_",
          "type": "uint256"
        },
        {
          "internalType": "address",
          "name": "recipient_",
          "type": "address"
        }
      ],
      "name": "swapTPforTCto",
      "outputs": [
        {
          "internalType": "uint256",
          "name": "qACFee",
          "type": "uint256"
        },
        {
          "internalType": "uint256",
          "name": "qTPMinted",
          "type": "uint256"
        }
      ],
      "stateMutability": "nonpayable",
      "type": "function"
    },
    {
      "inputs": [
        {
          "internalType": "uint256",
          "name": "iFrom_",
          "type": "uint256"
        },
        {
          "internalType": "uint256",
          "name": "iTo_",
          "type": "uint256"
        },
        {
          "internalType": "uint256",
          "name": "qTP_",
          "type": "uint256"
        },
        {
          "internalType": "uint256",
          "name": "qTPmin_",
          "type": "uint256"
        },
        {
          "internalType": "uint256",
          "name": "qACmax_",
          "type": "uint256"
        }
      ],
      "name": "swapTPforTP",
      "outputs": [
        {
          "internalType": "uint256",
          "name": "qACFee",
          "type": "uint256"
        },
        {
          "internalType": "uint256",
          "name": "qTPMinted",
          "type": "uint256"
        }
      ],
      "stateMutability": "nonpayable",
      "type": "function"
    },
    {
      "inputs": [],
      "name": "swapTPforTPFee",
      "outputs": [
        {
          "internalType": "uint256",
          "name": "",
          "type": "uint256"
        }
      ],
      "stateMutability": "view",
      "type": "function"
    },
    {
      "inputs": [
        {
          "internalType": "uint256",
          "name": "iFrom_",
          "type": "uint256"
        },
        {
          "internalType": "uint256",
          "name": "iTo_",
          "type": "uint256"
        },
        {
          "internalType": "uint256",
          "name": "qTP_",
          "type": "uint256"
        },
        {
          "internalType": "uint256",
          "name": "qTPmin_",
          "type": "uint256"
        },
        {
          "internalType": "uint256",
          "name": "qACmax_",
          "type": "uint256"
        },
        {
          "internalType": "address",
          "name": "recipient_",
          "type": "address"
        }
      ],
      "name": "swapTPforTPto",
      "outputs": [
        {
          "internalType": "uint256",
          "name": "qACFee",
          "type": "uint256"
        },
        {
          "internalType": "uint256",
          "name": "qTPMinted",
          "type": "uint256"
        }
      ],
      "stateMutability": "nonpayable",
      "type": "function"
    },
    {
      "inputs": [],
      "name": "tcMintFee",
      "outputs": [
        {
          "internalType": "uint256",
          "name": "",
          "type": "uint256"
        }
      ],
      "stateMutability": "view",
      "type": "function"
    },
    {
      "inputs": [],
      "name": "tcRedeemFee",
      "outputs": [
        {
          "internalType": "uint256",
          "name": "",
          "type": "uint256"
        }
      ],
      "stateMutability": "view",
      "type": "function"
    },
    {
      "inputs": [],
      "name": "tcToken",
      "outputs": [
        {
          "internalType": "contract MocTC",
          "name": "",
          "type": "address"
        }
      ],
      "stateMutability": "view",
      "type": "function"
    },
    {
      "inputs": [
        {
          "internalType": "uint256",
          "name": "",
          "type": "uint256"
        }
      ],
      "name": "tpCtarg",
      "outputs": [
        {
          "internalType": "uint256",
          "name": "",
          "type": "uint256"
        }
      ],
      "stateMutability": "view",
      "type": "function"
    },
    {
      "inputs": [
        {
          "internalType": "uint256",
          "name": "",
          "type": "uint256"
        }
      ],
      "name": "tpEma",
      "outputs": [
        {
          "internalType": "uint256",
          "name": "ema",
          "type": "uint256"
        },
        {
          "internalType": "uint256",
          "name": "sf",
          "type": "uint256"
        }
      ],
      "stateMutability": "view",
      "type": "function"
    },
    {
      "inputs": [
        {
          "internalType": "uint256",
          "name": "",
          "type": "uint256"
        }
      ],
      "name": "tpMintFee",
      "outputs": [
        {
          "internalType": "uint256",
          "name": "",
          "type": "uint256"
        }
      ],
      "stateMutability": "view",
      "type": "function"
    },
    {
      "inputs": [
        {
          "internalType": "uint256",
          "name": "",
          "type": "uint256"
        }
      ],
      "name": "tpRedeemFee",
      "outputs": [
        {
          "internalType": "uint256",
          "name": "",
          "type": "uint256"
        }
      ],
      "stateMutability": "view",
      "type": "function"
    },
    {
      "inputs": [
        {
          "internalType": "uint256",
          "name": "",
          "type": "uint256"
        }
      ],
      "name": "tpTokens",
      "outputs": [
        {
          "internalType": "contract IMocRC20",
          "name": "",
          "type": "address"
        }
      ],
      "stateMutability": "view",
      "type": "function"
    },
    {
      "inputs": [],
      "name": "unpause",
      "outputs": [],
      "stateMutability": "nonpayable",
      "type": "function"
    },
    {
      "inputs": [],
      "name": "updateEmas",
      "outputs": [],
      "stateMutability": "nonpayable",
      "type": "function"
    },
    {
      "inputs": [
        {
          "internalType": "address",
          "name": "newImplementation",
          "type": "address"
        }
      ],
      "name": "upgradeTo",
      "outputs": [],
      "stateMutability": "nonpayable",
      "type": "function"
    },
    {
      "inputs": [
        {
          "internalType": "address",
          "name": "newImplementation",
          "type": "address"
        },
        {
          "internalType": "bytes",
          "name": "data",
          "type": "bytes"
        }
      ],
      "name": "upgradeToAndCall",
      "outputs": [],
      "stateMutability": "payable",
      "type": "function"
    }
  ],
  "bytecode": "0x60a0604052306080523480156200001557600080fd5b506200002062000030565b6200002a62000030565b620000f2565b600054610100900460ff16156200009d5760405162461bcd60e51b815260206004820152602760248201527f496e697469616c697a61626c653a20636f6e747261637420697320696e697469604482015266616c697a696e6760c81b606482015260840160405180910390fd5b60005460ff9081161015620000f0576000805460ff191660ff9081179091556040519081527f7f26b83ff96e1f2b6a682f133852f6798a09c465da95921460cefb38474024989060200160405180910390a15b565b6080516158666200012a600039600081816113ba01528181611403015281816115f00152818161163001526116f901526158666000f3fe6080604052600436106105745760003560e01c806370713468116102d8578063bb4872de11610180578063e4012945116100e7578063f26114aa116100a0578063f375cfba1161007a578063f375cfba14611080578063fa6e83bd14611097578063fa79589e146110ae578063fda70f8b146110ce57600080fd5b8063f26114aa14611029578063f280877814611049578063f30b56141461106957600080fd5b8063e401294514610f86578063e4c0aaf414610fa6578063e6b1627c14610fc6578063e7c2597814610fe6578063e8859a1514611001578063f21fcc001461101657600080fd5b8063ceecc55a11610139578063ceecc55a14610ee7578063d1a0faa014610f07578063db79607214610f1c578063de08160f14610f3c578063de8d520a14610f5c578063e23c135c14610f7157600080fd5b8063bb4872de14610e38578063bbba7ed914610e52578063becaca6b14610e72578063c00f538d14610e92578063c039cc6914610eb2578063c84353c914610ec757600080fd5b80638456cb591161023f5780639ad6659d116101f85780639fd0506d116101d25780639fd0506d14610dc2578063a8e9ac3014610de8578063aea038dc14610e01578063bb2ac78814610e1857600080fd5b80639ad6659d14610d405780639bdd7cce14610d555780639cabfc0014610d7557600080fd5b80638456cb5914610c935780638cfa424114610ca8578063904aa85b14610cbf5780639195c85b14610cdf5780639853c35a14610cff5780639abb14c914610d2057600080fd5b80637a4ff1d9116102915780637a4ff1d914610be75780637a727fe814610c075780637af5758c14610c1e5780637cba238314610c3e5780637d8e031414610c5e578063826fcd5814610c7e57600080fd5b80637071346814610b425780637554fffd14610b625780637750ba0c14610b795780637820a32814610b9957806379f9a91c14610bb95780637a193c3114610bd057600080fd5b806333421c381161043b5780634f0f27ee116103a25780635c616a731161035b57806360009e0b1161033557806360009e0b14610ae0578063662013f414610b015780636827435714610b165780636b5488df14610b2b57600080fd5b80635c616a7314610a8e5780635c975abb14610aa35780635d65d04514610ac057600080fd5b80634f0f27ee146109fa5780634f1ef28614610a115780635210570c14610a245780635241271c14610a3957806352d1902d14610a5957806354a73c6214610a6e57600080fd5b80634310adc6116103f45780634310adc6146109255780634454ae8b146109455780634b746001146109655780634cffbaab146109a25780634d977e78146109c25780634e1f907a146109d957600080fd5b806333421c381461088f5780633659cfe6146108a45780633bc4ac0a146108c45780633f4ba83a146108e45780634017936a146108f9578063407f0e341461090e57600080fd5b80631867e2f5116104df57806323b98cde1161049857806323b98cde146107d157806327eab2a1146108015780632a20d57d146108215780632c43bd3b146108385780632d88af4a14610858578063333431fd1461087857600080fd5b80631867e2f5146107325780631a89b8f2146107495780631f1138a61461075c5780631fb0dda01461077c5780631fe6a7ad146107915780632069f753146107b157600080fd5b80630d6ac463116105315780630d6ac463146106725780630e0a8fd2146106925780631301a8f0146106b257806317574bc5146106d257806317df0ab8146106f2578063181770da1461071257600080fd5b806301cded9c1461057957806301dde6ef146105b357806301f1b684146105d55780630bb7f6081461060d5780630c340a241461063b5780630c36d8971461065b575b600080fd5b34801561058557600080fd5b50610599610594366004615134565b6110e5565b604080519283526020830191909152015b60405180910390f35b3480156105bf57600080fd5b506105d36105ce366004615181565b611104565b005b3480156105e157600080fd5b506105f56105f0366004615181565b611112565b6040516001600160a01b0390911681526020016105aa565b34801561061957600080fd5b5061062d61062836600461519a565b61113d565b6040519081526020016105aa565b34801561064757600080fd5b506097546105f5906001600160a01b031681565b34801561066757600080fd5b5061062d61017e5481565b34801561067e57600080fd5b506105d361068d3660046151bc565b611154565b34801561069e57600080fd5b506105d36106ad366004615181565b61117f565b3480156106be57600080fd5b506105996106cd3660046151d9565b61118d565b3480156106de57600080fd5b506105996106ed3660046151d9565b6111ab565b3480156106fe57600080fd5b5061062d61070d36600461520b565b6111bc565b34801561071e57600080fd5b5061062d61072d36600461520b565b6111d5565b34801561073e57600080fd5b5061062d6101b35481565b610599610757366004615237565b6111e4565b34801561076857600080fd5b50610599610777366004615278565b6111f4565b34801561078857600080fd5b5061062d611215565b34801561079d57600080fd5b506105d36107ac3660046152db565b611237565b3480156107bd57600080fd5b506105d36107cc366004615181565b611253565b3480156107dd57600080fd5b50610148546107f190610100900460ff1681565b60405190151581526020016105aa565b34801561080d57600080fd5b506105d361081c3660046151bc565b611261565b34801561082d57600080fd5b5061062d61013e5481565b34801561084457600080fd5b506105d3610853366004615181565b61128c565b34801561086457600080fd5b506105d36108733660046151bc565b61129a565b34801561088457600080fd5b5061062d61013d5481565b34801561089b57600080fd5b506105d36112cc565b3480156108b057600080fd5b506105d36108bf3660046151bc565b6113b0565b3480156108d057600080fd5b506105d36108df366004615181565b611498565b3480156108f057600080fd5b506105d36114a6565b34801561090557600080fd5b5061062d611540565b34801561091a57600080fd5b5061062d61013c5481565b34801561093157600080fd5b5061062d6109403660046152f8565b611575565b34801561095157600080fd5b50610599610960366004615134565b611583565b34801561097157600080fd5b50610985610980366004615181565b611594565b604080519283526001600160a01b039091166020830152016105aa565b3480156109ae57600080fd5b5061062d6109bd366004615237565b6115cc565b3480156109ce57600080fd5b5061062d6101b25481565b3480156109e557600080fd5b50610144546105f5906001600160a01b031681565b348015610a0657600080fd5b5061062d6101395481565b6105d3610a1f366004615347565b6115e6565b348015610a3057600080fd5b506105d36116b6565b348015610a4557600080fd5b5061062d610a54366004615181565b6116ca565b348015610a6557600080fd5b5061062d6116ec565b348015610a7a57600080fd5b5061062d610a89366004615237565b61179f565b348015610a9a57600080fd5b506105d36117ae565b348015610aaf57600080fd5b5060ca54610100900460ff166107f1565b348015610acc57600080fd5b5061062d610adb36600461540b565b611803565b348015610aec57600080fd5b50610131546105f5906001600160a01b031681565b348015610b0d57600080fd5b5061062d611810565b348015610b2257600080fd5b506105d3611820565b348015610b3757600080fd5b5061062d6101465481565b348015610b4e57600080fd5b506105d3610b5d366004615181565b611837565b348015610b6e57600080fd5b5061062d6101375481565b348015610b8557600080fd5b506105d3610b94366004615181565b611845565b348015610ba557600080fd5b50610599610bb436600461519a565b611853565b348015610bc557600080fd5b5061062d6101405481565b348015610bdc57600080fd5b5061062d6101325481565b348015610bf357600080fd5b506105d3610c02366004615181565b611874565b348015610c1357600080fd5b5061062d61017f5481565b348015610c2a57600080fd5b506105d3610c39366004615181565b611882565b348015610c4a57600080fd5b506105d3610c59366004615181565b611890565b348015610c6a57600080fd5b5061062d610c79366004615181565b61189e565b348015610c8a57600080fd5b5061062d6118af565b348015610c9f57600080fd5b506105d36118ca565b348015610cb457600080fd5b5061062d6101475481565b348015610ccb57600080fd5b5061062d610cda366004615181565b611965565b348015610ceb57600080fd5b5061062d610cfa366004615181565b611a2f565b348015610d0b57600080fd5b50610143546105f5906001600160a01b031681565b348015610d2c57600080fd5b5061062d610d3b36600461519a565b611a3c565b348015610d4c57600080fd5b506107f1611a4a565b348015610d6157600080fd5b50610599610d70366004615134565b611a75565b348015610d8157600080fd5b50610dad610d903660046151bc565b610134602052600090815260409020805460019091015460ff1682565b604080519283529015156020830152016105aa565b348015610dce57600080fd5b5060ca546105f5906201000090046001600160a01b031681565b348015610df457600080fd5b5061017e544310156107f1565b348015610e0d57600080fd5b5061062d61013b5481565b348015610e2457600080fd5b50610599610e333660046151d9565b611a86565b348015610e4457600080fd5b5060ca546107f19060ff1681565b348015610e5e57600080fd5b506105d3610e6d36600461543b565b611a97565b348015610e7e57600080fd5b506105d3610e8d366004615181565b611bdc565b348015610e9e57600080fd5b506105d3610ead366004615181565b611bea565b348015610ebe57600080fd5b5061062d611bf8565b348015610ed357600080fd5b506105d3610ee2366004615181565b611c13565b348015610ef357600080fd5b50610599610f0236600461544e565b611c21565b348015610f1357600080fd5b506105d3611c33565b348015610f2857600080fd5b506105d3610f37366004615489565b611c6d565b348015610f4857600080fd5b5061062d610f57366004615181565b611ffa565b348015610f6857600080fd5b5061062d61200b565b348015610f7d57600080fd5b506105d3612028565b348015610f9257600080fd5b5061062d610fa13660046152f8565b612066565b348015610fb257600080fd5b506105d3610fc13660046151bc565b612074565b348015610fd257600080fd5b50610599610fe1366004615181565b61209e565b348015610ff257600080fd5b50610148546107f19060ff1681565b34801561100d57600080fd5b5061062d6120cd565b61059961102436600461520b565b6120f3565b34801561103557600080fd5b506105d3611044366004615489565b61210f565b34801561105557600080fd5b506105d3611064366004615181565b612399565b34801561107557600080fd5b5061062d61012f5481565b34801561108c57600080fd5b5061062d61013f5481565b3480156110a357600080fd5b5061062d6101385481565b3480156110ba57600080fd5b5061062d6110c9366004615181565b6123a7565b3480156110da57600080fd5b5061062d61013a5481565b6000806110f6878787873388612407565b915091509550959350505050565b61110c61262e565b61013855565b610133818154811061112357600080fd5b6000918252602090912001546001600160a01b0316905081565b600061114b838333336126b7565b90505b92915050565b61115c61262e565b61014380546001600160a01b0319166001600160a01b0392909216919091179055565b61118761262e565b61013d55565b60008061119e8686868633336127d7565b9150915094509492505050565b60008061119e86868686333361295a565b60006111cb8484843333612af5565b90505b9392505050565b60006111cb8484843333612c2b565b60008061119e8686863387612d87565b60008061120688888888883389612ee9565b91509150965096945050505050565b60008060006112226130d2565b9150915061123082826130f3565b9250505090565b61123f61262e565b610148805460ff1916911515919091179055565b61125b61262e565b61014055565b61126961262e565b61014480546001600160a01b0319166001600160a01b0392909216919091179055565b61129461262e565b61014755565b6112a261262e565b60ca80546001600160a01b03909216620100000262010000600160b01b0319909216919091179055565b6112d461312f565b6101485460ff1680156112f0575061014854610100900460ff16155b80156112ff57506112ff611a4a565b156113ae57610148805461ff0019166101001790556040517f8b77276c97a5709f0d6db52329848a254eb760ce8be80d281799f633bdb69e8390600090a161013160009054906101000a90046001600160a01b03166001600160a01b0316638456cb596040518163ffffffff1660e01b8152600401600060405180830381600087803b15801561138e57600080fd5b505af11580156113a2573d6000803e3d6000fd5b505050506113ae613158565b565b6001600160a01b037f00000000000000000000000000000000000000000000000000000000000000001630036114015760405162461bcd60e51b81526004016113f89061549b565b60405180910390fd5b7f00000000000000000000000000000000000000000000000000000000000000006001600160a01b031661144a6000805160206157ea833981519152546001600160a01b031690565b6001600160a01b0316146114705760405162461bcd60e51b81526004016113f8906154e7565b611479816132a3565b60408051600080825260208201909252611495918391906132ab565b50565b6114a061262e565b61017f55565b60ca54610100900460ff166114ce57604051637c7fd07960e01b815260040160405180910390fd5b60ca546201000090046001600160a01b031633146114ff57604051631d77d47760e21b815260040160405180910390fd5b60ca805461ff00191690556040513381527f5db9ee0a495bf2e6ff9c91a7834c1ba4fdd244a5e8aa4e537bd38aeae4b073aa906020015b60405180910390a1565b600080600061154d61341b565b9150915060008061155d83613572565b9150915061156c84838361362a565b94505050505090565b60006111cb848433856126b7565b6000806110f68787878733886127d7565b61013581815481106115a557600080fd5b6000918252602090912060029091020180546001909101549091506001600160a01b031682565b60006115db8585853386612c2b565b90505b949350505050565b6001600160a01b037f000000000000000000000000000000000000000000000000000000000000000016300361162e5760405162461bcd60e51b81526004016113f89061549b565b7f00000000000000000000000000000000000000000000000000000000000000006001600160a01b03166116776000805160206157ea833981519152546001600160a01b031690565b6001600160a01b03161461169d5760405162461bcd60e51b81526004016113f8906154e7565b6116a6826132a3565b6116b2828260016132ab565b5050565b6116be61262e565b60ca805460ff19169055565b61014281815481106116db57600080fd5b600091825260209091200154905081565b6000306001600160a01b037f0000000000000000000000000000000000000000000000000000000000000000161461178c5760405162461bcd60e51b815260206004820152603860248201527f555550535570677261646561626c653a206d757374206e6f742062652063616c60448201527f6c6564207468726f7567682064656c656761746563616c6c000000000000000060648201526084016113f8565b506000805160206157ea83398151915290565b60006115db8585853386612af5565b6117b661312f565b6101b35443106113ae576101b2546117ce9043615549565b6101b3556040517fd3c59bda47e141a8ec5a33d241b7f71b86e30d359f83a9227d912858b60404fc90600090a16113ae613657565b600061114b83338461365f565b600061181a61341b565b50919050565b61182861262e565b60ca805460ff19166001179055565b61183f61262e565b61013c55565b61184d61262e565b61013955565b600080611869848461186487611965565b61388f565b915091509250929050565b61187c61262e565b61013f55565b61188a61262e565b61013e55565b61189861262e565b61014655565b61014581815481106116db57600080fd5b60008060006118bc6130d2565b9150915061123082826138f1565b6118d261312f565b60ca546201000090046001600160a01b0316331461190357604051631d77d47760e21b815260040160405180910390fd5b60ca5460ff166119265760405163866099c360e01b815260040160405180910390fd5b60ca805461ff0019166101001790556040513381527f62e78cea01bee320cd4e420270b5ea74000d11b0c9f74754ebdbfc544b05a25890602001611536565b600080610135838154811061197c5761197c61555c565b60009182526020822060016002909202010154604080516359e02dd760e01b815281516001600160a01b039093169450839285926359e02dd792600480820193918290030181865afa1580156119d6573d6000803e3d6000fd5b505050506040513d601f19601f820116820180604052508101906119fa9190615572565b9150915080611a275760405163de4f3a0f60e01b81526001600160a01b03841660048201526024016113f8565b509392505050565b600061114e82333361365f565b600061114b83833333613910565b6000806000611a576130d2565b915091506000611a6783836138f1565b610147541015949350505050565b6000806110f687878787338861295a565b60008061119e868686863333612407565b600054610100900460ff1615808015611ab75750600054600160ff909116105b80611ad15750303b158015611ad1575060005460ff166001145b611b345760405162461bcd60e51b815260206004820152602e60248201527f496e697469616c697a61626c653a20636f6e747261637420697320616c72656160448201526d191e481a5b9a5d1a585b1a5e995960921b60648201526084016113f8565b6000805460ff191660011790558015611b57576000805461ff0019166101001790555b611b69610280830161026084016151bc565b61024a80546001600160a01b0319166001600160a01b0392909216919091179055611b9382613a1f565b80156116b2576000805461ff0019169055604051600181527f7f26b83ff96e1f2b6a682f133852f6798a09c465da95921460cefb38474024989060200160405180910390a15050565b611be461262e565b61013755565b611bf261262e565b61013b55565b6000806000611c056130d2565b915091506112308282613a97565b611c1b61262e565b6101b255565b6000806110f687878787873333612ee9565b61017e5443106113ae576101355460005b81811015611c5d57611c5581613ab3565b600101611c44565b5061149561017f54430161017e55565b611c7561262e565b6000611c8460208301836151bc565b60405163d55fd84560e01b81523060048201529091506001600160a01b0382169063d55fd84590602401602060405180830381865afa158015611ccb573d6000803e3d6000fd5b505050506040513d601f19601f82011682018060405250810190611cef9190615597565b611d0c5760405163e6c4247b60e01b815260040160405180910390fd5b6000611d1e60408401602085016151bc565b6001600160a01b0383166000908152610134602052604090206001015490915060ff1615611d5f57604051633458f6c560e01b815260040160405180910390fd5b6101338054604080518082018252828152600160208083018281526001600160a01b03808a1660008181526101348552878120965187559251958501805496151560ff199097169690961790955587548085019098557f92e985329fb94cc1b424ebb0f7f2929b6d27383ca94c0ec71c44fb48bdf96d2c90970180546001600160a01b031990811690951790558451808601865281815288881681840190815261013580548087018255908452915160029283027fdf37d27e88e3bd0b85262482997e409a463f5be0ebb19232abf994dd8474090d81019190915590517fdf37d27e88e3bd0b85262482997e409a463f5be0ebb19232abf994dd8474090e9091018054919099169516949094179096556101458054808401909155898501357fed95984add84c4014c7f9d66a1b73e788e2db64f5763fa861ad52da204f71b2b90910155610141805480840190915560608a01357fb3926254d0163c91fc94bf08f3f8062ff5d48635dfa7dbef8168ad7d4847a75890910155610142805480840190915560808a01357f7917ad5f1bd6fa6d4f9128143f89bcba30c5b503e76ecd2dd7562ddf9706ae1990910155835180850190945260a0890135845260c089013590840190815261017d805480840182559087529351939092027f0f2aec2a8c6072690b3c86d5c08e34587f891268d22d8bdca6e66838c0f2f22d81019390935590517f0f2aec2a8c6072690b3c86d5c08e34587f891268d22d8bdca6e66838c0f2f22e909201919091556101498054909101815590915261014a611fa482611965565b8154600181018355600092835260209092209091015560405181907f6417e5a3c1e0e5dae98b8fe718c4babdfcb35e0d7b5e1b9641b5914756f5d8e390611fec9087906155b4565b60405180910390a250505050565b61014181815481106116db57600080fd5b6000806120166130d2565b91505061202281613b6e565b91505090565b600061012f5461203730613b7f565b6120419190615621565b11156113ae576113ae61012f5461205730613b7f565b6120619190615621565b613bef565b60006111cb84843385613910565b61207c61262e565b609780546001600160a01b0319166001600160a01b0392909216919091179055565b61017d81815481106120af57600080fd5b60009182526020909120600290910201805460019091015490915082565b60006101b35443106120df5750600090565b436101b3546120ee9190615621565b905090565b6000806121038585853333612d87565b91509150935093915050565b61211761262e565b60006101348161212a60208501856151bc565b6001600160a01b0316815260208082019290925260409081016000208151808301909252805482526001015460ff16151591810182905291506121805760405163e6c4247b60e01b815260040160405180910390fd5b80516101358054829081106121975761219761555c565b6000918252602091829020600160029092020101546001600160a01b0316906121c690604086019086016151bc565b6001600160a01b0316146122b95760006121e660408501602086016151bc565b90506000816001600160a01b03166359e02dd76040518163ffffffff1660e01b81526004016040805180830381865afa158015612227573d6000803e3d6000fd5b505050506040513d601f19601f8201168201806040525081019061224b9190615572565b9150508061226c5760405163e6c4247b60e01b815260040160405180910390fd5b8161013584815481106122815761228161555c565b906000526020600020906002020160010160006101000a8154816001600160a01b0302191690836001600160a01b0316021790555050505b826040013561014582815481106122d2576122d261555c565b9060005260206000200181905550826060013561014182815481106122f9576122f961555c565b9060005260206000200181905550826080013561014282815481106123205761232061555c565b90600052602060002001819055508260c0013561017d82815481106123475761234761555c565b906000526020600020906002020160010181905550807f6417e5a3c1e0e5dae98b8fe718c4babdfcb35e0d7b5e1b9641b5914756f5d8e38460405161238c91906155b4565b60405180910390a2505050565b6123a161262e565b61013a55565b60008060006123b461341b565b9150915060008185815181106123cc576123cc61555c565b602002602001015190506000806123e284613572565b915091506123fc856123f48986613c0a565b858585613cdb565b979650505050505050565b600080612412613d24565b61241a61312f565b600080612425613d4e565b9150915061244c8a828c8151811061243f5761243f61555c565b6020026020010151613d6a565b6000806124598484613dcd565b915091506124698b858484613e1e565b60006124768c8484613e58565b5090508060000361249a5760405163f3e39b5d60e01b815260040160405180910390fd5b670de0b6b3a764000061013254858f815181106124b9576124b961555c565b6020026020010151856124cb86613b6e565b6124d59190615621565b8f6124e09190615634565b6124ea9190615634565b6124f49190615653565b6124fe9190615653565b95506000848e815181106125145761251461555c565b6020026020010151905061252c8e8883898888613e9e565b508a8610156125585760405163272e3f5960e21b8152600481018c9052602481018790526044016113f8565b6125658161013e54613ef2565b96508987111561259257604051630b63f1a760e01b8152600481018b9052602481018890526044016113f8565b604080518d8152602081018890529081018890528d908d906001600160a01b03808c1691908d169084907f0b0ee95633545edabb63afd3c3962a133536b36e2372f68c3c2722710ee0cd899060600160405180910390a450506125f78c60008b613f11565b6126048d8760008b613f88565b60006126108b89614013565b905061261d8a828a614038565b505050505050965096945050505050565b60975460405163d994d6d560e01b81523360048201526001600160a01b039091169063d994d6d590602401602060405180830381865afa158015612676573d6000803e3d6000fd5b505050506040513d601f19601f8201168201806040525081019061269a9190615597565b6113ae57604051631dd1b1b560e21b815260040160405180910390fd5b60006126c1613d24565b6126c961312f565b60006126d3614091565b90506000806126e56101465484613dcd565b915091506000806126f78a858561411b565b90925090506127068183615549565b95508886111561273357604051630b63f1a760e01b8152600481018a9052602481018790526044016113f8565b856000036127545760405163f3e39b5d60e01b815260040160405180910390fd5b604080518b8152602081018890529081018290526001600160a01b0380891691908a16907f62f0126e99b1936535db27571cea2b2d54db14a471b9203b29b31b89c300e4f69060600160405180910390a36127b08a838961415c565b60006127bc8a88614013565b90506127c9898284614038565b505050505050949350505050565b6000806127e2613d24565b6127ea61312f565b60006127f4614091565b90506000818a8151811061280a5761280a61555c565b6020026020010151905061281e8a82613d6a565b60008061282e6101465485613dcd565b91509150600061283f8d8d8661388f565b509050612878610132548d6128549190615634565b858561285f86613b6e565b6128699190615621565b6128739190615634565b6141a0565b95508a861080612886575085155b156128ae5760405163f577bef560e01b8152600481018c9052602481018790526044016113f8565b6128bb8161013d54613ef2565b9650898711156128e857604051630b63f1a760e01b8152600481018b9052602481018890526044016113f8565b604080518d8152602081018890529081018890528d908d906001600160a01b03808c1691908d169084907ff77b7563e0c6c33e0b804a715d94c82baea057d2e6f8bfdc211fe04d3c03bad99060600160405180910390a4505061294e8d8d60008c6141b5565b6126048660008a61415c565b600080612965613d24565b61296d61312f565b6000612977614091565b90506000818a8151811061298d5761298d61555c565b602002602001015190506129a18a82613d6a565b6000806129b16101475485613dcd565b91509150670de0b6b3a76400006101325484848e6129cf9190615634565b6129d99190615634565b6129e39190615653565b6129ed9190615653565b945089851115612a1a57604051637a031da360e11b8152600481018b9052602481018690526044016113f8565b600080612a338e8e8988612a2e89896130f3565b614216565b9092509050612a428183615621565b97508a881015612a6f576040516354cde31360e01b8152600481018c9052602481018990526044016113f8565b604080518e815260208101899052908101899052606081018290528e908e908a906001600160a01b03808e1691908f169085907f879e4419a6544de6ea456f6344b2fcf0c3b9fc0e6738c82fa4026a8789747c539060800160405180910390a4505050612add8d838c613f11565b612aea8e8860008d6141b5565b61261d898983614038565b6000612aff613d24565b612b0761312f565b6000612b11614091565b90506000818881518110612b2757612b2761555c565b60200260200101519050612b3b8882613d6a565b612b486101465483613dcd565b5050600080612b588a8a8561388f565b9150915081600003612b7d5760405163f3e39b5d60e01b815260040160405180910390fd5b612b878183615621565b945087851015612bb4576040516354cde31360e01b815260048101899052602481018690526044016113f8565b604080518a8152602081018790529081018290526001600160a01b0380881691908916908c907f4716c9926ce32100e8a5b6ad71af5500ac55514d7b0c8f80f209856c9dfaeb929060600160405180910390a4612c138a8a848a6141b5565b612c1e868683614038565b5050505095945050505050565b6000612c35613d24565b612c3d61312f565b600080612c48613d4e565b915091506000818981518110612c6057612c6061555c565b60200260200101519050612c748982613d6a565b600080612c818585613dcd565b91509150612c938b8b85888686613e9e565b600080612ca18d8d87614256565b9092509050612cb08183615549565b97508a881115612cdd57604051630b63f1a760e01b8152600481018c9052602481018990526044016113f8565b87600003612cfe5760405163f3e39b5d60e01b815260040160405180910390fd5b604080518d8152602081018a90529081018290526001600160a01b03808b1691908c16908f907f05f8dfb23a03c1f9d37a1860fc8038ffdc6dec3e24db38cdb09cc0176b35453f9060600160405180910390a4612d5d8d8d848c613f88565b6000612d698c8a614013565b9050612d768b8284614038565b505050505050505095945050505050565b600080612d92613d24565b612d9a61312f565b600080600080612da8613d4e565b915091506000818c81518110612dc057612dc061555c565b60200260200101519050612dd48c82613d6a565b612de16101475483613dcd565b5050612def8b82858561429e565b91975095509350612e008486615549565b965089871115612e2d57604051630b63f1a760e01b8152600481018b9052602481018890526044016113f8565b86600003612e4e5760405163f3e39b5d60e01b815260040160405180910390fd5b60408051878152602081018d9052908101889052606081018590526001600160a01b03808a1691908b16908e907fcd3821e3a6afec66fdfa7a942b879811bb9919b2f270de090b6e00178cd7eaee9060800160405180910390a4612eb386868a61415c565b612ec08c8c60008b613f88565b6000612ecc8b89614013565b9050612ed98a8287614038565b5050505050509550959350505050565b600080612ef4613d24565b612efc61312f565b878903612f1c57604051632a9ffab760e21b815260040160405180910390fd5b6000612f278a611965565b90506000612f348a611965565b9050612f408b83613d6a565b612f4a8a82613d6a565b6000612f578c8b8561388f565b50905082612f65838c615634565b612f6f9190615653565b935088841080612f7d575083155b15612fa55760405163272e3f5960e21b8152600481018a9052602481018590526044016113f8565b612faf8c84613c0a565b612fb98c84613c0a565b1115612ff257600080612fca613d4e565b91509150600080612fdb8484613dcd565b91509150612fed8f8988878686613e9e565b505050505b612fff8161013c54613ef2565b94508785111561302c57604051630b63f1a760e01b815260048101899052602481018690526044016113f8565b604080518c8152602081018c9052908101859052606081018690528c908c908c906001600160a01b03808b1691908c169085907f77d2223aca09d9ec6e49d1b8cdcb0b40dec540a5f65daf1ecab069c822bff4609060800160405180910390a450505061309c8b85600089613f88565b6130a98c8b60008a6141b5565b60006130b58987614013565b90506130c2888288614038565b5050505097509795505050505050565b60008060006130df614091565b90506130ea81613572565b92509250509091565b60006101325460000361310f5750670de0b6b3a764000061114e565b61114b8361311c84613b6e565b6131269190615621565b610132546141a0565b60ca54610100900460ff16156113ae5760405163783bb6c960e11b815260040160405180910390fd5b61012f5460008190036131685750565b610135546000808267ffffffffffffffff81111561318857613188615331565b6040519080825280602002602001820160405280156131b1578160200160208202803683370190505b50905060005b83811015613242576131c881611965565b8282815181106131da576131da61555c565b60200260200101818152505061322e61013582815481106131fd576131fd61555c565b9060005260206000209060020201600001548383815181106132215761322161555c565b60200260200101516141a0565b6132389084615549565b92506001016131b7565b5060005b8381101561329c5761013685848484815181106132655761326561555c565b60200260200101516132779190615634565b6132819190615653565b81546001808201845560009384526020909320015501613246565b5050505050565b61149561262e565b7f4910fdfa16fed3260ed0e7147f7cc6da11a60208b5b9406d12a635614ffd91435460ff16156132e3576132de83614328565b505050565b826001600160a01b03166352d1902d6040518163ffffffff1660e01b8152600401602060405180830381865afa92505050801561333d575060408051601f3d908101601f1916820190925261333a91810190615675565b60015b6133a05760405162461bcd60e51b815260206004820152602e60248201527f45524331393637557067726164653a206e657720696d706c656d656e7461746960448201526d6f6e206973206e6f74205555505360901b60648201526084016113f8565b6000805160206157ea833981519152811461340f5760405162461bcd60e51b815260206004820152602960248201527f45524331393637557067726164653a20756e737570706f727465642070726f786044820152681a58589b195555525160ba1b60648201526084016113f8565b506132de8383836143c4565b61013554600090606090829081908067ffffffffffffffff81111561344257613442615331565b60405190808252806020026020018201604052801561346b578160200160208202803683370190505b50935060005b8181101561354657600061348482611965565b9050808683815181106134995761349961555c565b60200260200101818152505060006134b183836143e9565b5090506000613503670de0b6b3a76400008361013587815481106134d7576134d761555c565b9060005260206000209060020201600001546134f39190615549565b6134fd9190615634565b846141a0565b9050806135108585613c0a565b61351a9190615634565b6135249088615549565b96506135308187615549565b955050505061353f8160010190565b9050613471565b508160000361355f576101465460020294505050509091565b6135698284615653565b94505050509091565b610135546000908190815b818110156136145760008582815181106135995761359961555c565b602002602001015190506000806135b084846143e9565b915091506135e88261013586815481106135cc576135cc61555c565b9060005260206000209060020201600001546134fd9190615549565b6135f29088615549565b96506135fe8187615549565b955050505061360d8160010190565b905061357d565b506136228261013754613ef2565b915050915091565b60008061363885858561444f565b905061364484846130f3565b61364e9082615653565b95945050505050565b6113ae614499565b600061366961312f565b61014854610100900460ff166136925760405163031b0d3560e11b815260040160405180910390fd5b600061013385815481106136a8576136a861555c565b6000918252602090912001546040516370a0823160e01b81526001600160a01b038681166004830152909116906370a0823190602401602060405180830381865afa1580156136fb573d6000803e3d6000fd5b505050506040513d601f19601f8201168201806040525081019061371f9190615675565b90508060000361374c57604051633fe8c5eb60e01b815260048101829052602481018290526044016113f8565b600061013686815481106137625761376261555c565b9060005260206000200154905061377982826141a0565b9250610133868154811061378f5761378f61555c565b600091825260209091200154604051632770a7eb60e21b81526001600160a01b0387811660048301526024820185905290911690639dc29fac90604401600060405180830381600087803b1580156137e657600080fd5b505af11580156137fa573d6000803e3d6000fd5b505050508261380830613b7f565b101561381a5761381730613b7f565b92505b836001600160a01b0316856001600160a01b0316877f4716c9926ce32100e8a5b6ad71af5500ac55514d7b0c8f80f209856c9dfaeb9285876000604051613874939291909283526020830191909152604082015260600190565b60405180910390a4613886848461465a565b50509392505050565b600080836000036138b357604051632a9ffab760e21b815260040160405180910390fd5b6138bd84846141a0565b91506138e78261014287815481106138d7576138d761555c565b9060005260206000200154613ef2565b9050935093915050565b600082600003613904575060001961114e565b61114b6134fd83613b6e565b600061391a613d24565b61392261312f565b60008061392d613d4e565b9150915060008061393e8484613dcd565b9150915061394e89858484613e1e565b60008061395c8b8585613e58565b91509150816000036139815760405163f3e39b5d60e01b815260040160405180910390fd5b61398b8183615621565b9650898710156139b8576040516354cde31360e01b8152600481018b9052602481018890526044016113f8565b604080518c8152602081018990529081018290526001600160a01b03808a1691908b16907f2d184907c04672620e3c88a12a39d6a603dd26373427842aa172eb3e5bfcff079060600160405180910390a3613a148b838b613f11565b6127c9888883614038565b600054610100900460ff16613a465760405162461bcd60e51b81526004016113f89061568e565b613a72613a5b61020083016101e084016151bc565b613a6d610220840161020085016151bc565b61468b565b613a7b816146ce565b613a89816102200135614933565b61149581610240013561498d565b600080613aa383613b6e565b90506115de816128738682615621565b600061017d8281548110613ac957613ac961555c565b60009182526020808320604080518082019091526002909302018054835260010154908201529150613afa83611965565b90506000613b0883836149cb565b90508061017d8581548110613b1f57613b1f61555c565b6000918252602090912060029091020155825160405185917f19156e9379c7bbbce8f646ce5ee30ba860b8f954717405f3d5859a6c1a21ae6091611fec91908590918252602082015260400190565b60008161012f5461114e9190615621565b61024a546040516370a0823160e01b81526001600160a01b03838116600483015260009216906370a0823190602401602060405180830381865afa158015613bcb573d6000803e3d6000fd5b505050506040513d601f19601f8201168201806040525081019061114e9190615675565b8061012f6000828254613c029190615549565b909155505050565b6000806101458481548110613c2157613c2161555c565b90600052602060002001549050600061017d8581548110613c4457613c4461555c565b9060005260206000209060020201600001549050613c6561017e5443101590565b15613cb757613cb461017d8681548110613c8157613c8161555c565b906000526020600020906002020160405180604001604052908160008201548152602001600182015481525050856149cb565b90505b838110613cc65750905061114e565b80613cd18584615634565b61364e9190615653565b6000670de0b6b3a7640000613cf08187615621565b85613cfc89878761444f565b613d069190615634565b613d109190615653565b613d1a9190615653565b9695505050505050565b61014854610100900460ff16156113ae57604051631ca61d7760e01b815260040160405180910390fd5b60006060613d5a611c33565b613d6261341b565b915091509091565b613d748282614a1b565b6101498381548110613d8857613d8861555c565b906000526020600020016000828254613da191906156d9565b925050819055508061014a8381548110613dbd57613dbd61555c565b6000918252602090912001555050565b600080613dd983613572565b90925090506000613dea83836138f1565b9050848111613e1657604051637912120160e01b815260048101829052602481018690526044016113f8565b509250929050565b6000613e2b84848461362a565b90508481101561329c5760405163a5db715d60e01b815260048101869052602481018290526044016113f8565b60008084600003613e7c57604051632a9ffab760e21b815260040160405180910390fd5b613e8f85613e8a86866130f3565b613ef2565b91506138e78261013b54613ef2565b6000613eaa8786613c0a565b90506000613ebb8583888787613cdb565b905086811015613ee85760405163c39b739f60e01b815260048101889052602481018290526044016113f8565b5050505050505050565b6000670de0b6b3a7640000613f078385615634565b61114b9190615653565b613f1b8383614a97565b61013154604051632770a7eb60e21b81526001600160a01b0383811660048301526024820186905290911690639dc29fac906044015b600060405180830381600087803b158015613f6b57600080fd5b505af1158015613f7f573d6000803e3d6000fd5b50505050505050565b613f93848484614acd565b6101338481548110613fa757613fa761555c565b6000918252602090912001546040516340c10f1960e01b81526001600160a01b03838116600483015260248201869052909116906340c10f19906044015b600060405180830381600087803b158015613fff57600080fd5b505af1158015613ee8573d6000803e3d6000fd5b61024a5460009061402f906001600160a01b0316333085614b11565b50600092915050565b60006140476101395483613ef2565b90508061012f600082825461405c9190615549565b909155505061014354614081906001600160a01b031661407c8385615621565b61465a565b61408b848461465a565b50505050565b610135546060908067ffffffffffffffff8111156140b1576140b1615331565b6040519080825280602002602001820160405280156140da578160200160208202803683370190505b50915060005b81811015614116576140f181611965565b8382815181106141035761410361555c565b60209081029190910101526001016140e0565b505090565b6000808460000361413f57604051632a9ffab760e21b815260040160405180910390fd5b61414d85613e8a86866130f3565b91506138e78261013a54613ef2565b6141668383614b7c565b610131546040516340c10f1960e01b81526001600160a01b03838116600483015260248201869052909116906340c10f1990604401613f51565b600081613f07670de0b6b3a764000085615634565b6141c0848484614b9e565b61013384815481106141d4576141d461555c565b600091825260209091200154604051632770a7eb60e21b81526001600160a01b0383811660048301526024820186905290911690639dc29fac90604401613fe5565b60008061422487868661388f565b5091506142318684613ef2565b61423b9083615549565b915061424a8261013f54613ef2565b90509550959350505050565b6000808360000361427a57604051632a9ffab760e21b815260040160405180910390fd5b61428484846141a0565b91506138e78261014187815481106138d7576138d761555c565b60008060008060006142af86613572565b9150915060006142bf83836130f3565b9050886142d4670de0b6b3a76400008a615621565b6142de908c615634565b6142e89190615653565b94506142f485826141a0565b95506143008a8a6141a0565b61430a9086615549565b94506143198561014054613ef2565b93505050509450945094915050565b6001600160a01b0381163b6143955760405162461bcd60e51b815260206004820152602d60248201527f455243313936373a206e657720696d706c656d656e746174696f6e206973206e60448201526c1bdd08184818dbdb9d1c9858dd609a1b60648201526084016113f8565b6000805160206157ea83398151915280546001600160a01b0319166001600160a01b0392909216919091179055565b6143cd83614bf7565b6000825111806143da5750805b156132de5761408b8383614c37565b60008060006143f88585614a1b565b610149868154811061440c5761440c61555c565b906000526020600020015461442191906156d9565b90506000811315613e165780915061444561443f6101385486613ef2565b83613ef2565b9250509250929050565b60008361445c84846138f1565b11614469575060006111ce565b6144738385615634565b670de0b6b3a764000061448584613b6e565b61448f9190615634565b6111cb9190615621565b61013554600090818167ffffffffffffffff8111156144ba576144ba615331565b6040519080825280602002602001820160405280156144e3578160200160208202803683370190505b50905060005b828110156145d75760006144fc82611965565b90506145088282613d6a565b6000610149838154811061451e5761451e61555c565b9060005260206000200154905060008113156145cd5761454a6145446101385484613ef2565b82613ef2565b84848151811061455c5761455c61555c565b60209081029190910101526145718187615549565b9550600061014984815481106145895761458961555c565b90600052602060002001819055506145cd838585815181106145ad576145ad61555c565b6020908102919091010151610144546000906001600160a01b0316613f88565b50506001016144e9565b50821561461c576145eb8361013754613ef2565b92508261012f60008282546146009190615621565b90915550506101435461461c906001600160a01b03168461465a565b7fae5116a8119d08673a0f1dfa7546b95da4bd54bb17feda7c61130ac7859152f6838260405161464d929190615701565b60405180910390a1505050565b614662614d22565b80156146805761024a54614680906001600160a01b03168383614d7d565b6116b260016101e655565b600054610100900460ff166146b25760405162461bcd60e51b81526004016113f89061568e565b6146ba614dad565b6146c382614dd4565b6116b2816001614e04565b600054610100900460ff166146f55760405162461bcd60e51b81526004016113f89061568e565b670de0b6b3a76400008160600135101561472257604051632a9ffab760e21b815260040160405180910390fd5b61472f8160a00135614e67565b61473c8160c00135614e67565b6147498160e00135614e67565b614757816101000135614e67565b614765816101200135614e67565b614773816101400135614e67565b614781816101600135614e67565b61478f816101800135614e67565b6147ab6147a66101c08301356101a0840135615549565b614e67565b6147b860208201826151bc565b61013180546001600160a01b0319166001600160a01b0392909216918217905560405163d55fd84560e01b815230600482015263d55fd84590602401602060405180830381865afa158015614811573d6000803e3d6000fd5b505050506040513d601f19601f820116820180604052508101906148359190615597565b6148525760405163e6c4247b60e01b815260040160405180910390fd5b61486260408201602083016151bc565b61014380546001600160a01b0319166001600160a01b039290921691909117905561489360608201604083016151bc565b61014480546001600160a01b0319166001600160a01b039290921691909117905560608101356101465560808101356101475560a08101356101395560c081013561013a5560e081013561013b5561010081013561013c5561012081013561013d556101408082013561013e5561016082013561013f5561018082013590556101a0810135610137556101c0013561013855610148805461ffff19169055565b600054610100900460ff1661495a5760405162461bcd60e51b81526004016113f89061568e565b8060000361497b57604051632a9ffab760e21b815260040160405180910390fd5b61017f81905561149581430161017e55565b600054610100900460ff166149b45760405162461bcd60e51b81526004016113f89061568e565b6101b28190556149c48143615549565b6101b35550565b6000808360200151670de0b6b3a76400006149e69190615621565b84516149f29190615634565b90506000838560200151614a069190615634565b9050670de0b6b3a7640000613cd18284615549565b600080670de0b6b3a76400006101358581548110614a3b57614a3b61555c565b906000526020600020906002020160000154614a579190615634565b9050614a638382615653565b61014a8581548110614a7757614a7761555c565b906000526020600020015482614a8d9190615653565b6115de919061574f565b816101326000828254614aaa9190615621565b925050819055508061012f6000828254614ac49190615621565b90915550505050565b816101358481548110614ae257614ae261555c565b90600052602060002090600202016000016000828254614b029190615549565b909155506132de905081613bef565b6040516001600160a01b038085166024830152831660448201526064810182905261408b9085906323b872dd60e01b906084015b60408051601f198184030181529190526020810180516001600160e01b03166001600160e01b031990931692909217909152614e90565b816101326000828254614b8f9190615549565b909155506116b2905081613bef565b816101358481548110614bb357614bb361555c565b90600052602060002090600202016000016000828254614bd39190615621565b925050819055508061012f6000828254614bed9190615621565b9091555050505050565b614c0081614328565b6040516001600160a01b038216907fbc7cd75a20ee27fd9adebab32041f755214dbc6bffa90cc0225b39da2e5c2d3b90600090a250565b60606001600160a01b0383163b614c9f5760405162461bcd60e51b815260206004820152602660248201527f416464726573733a2064656c65676174652063616c6c20746f206e6f6e2d636f6044820152651b9d1c9858dd60d21b60648201526084016113f8565b600080846001600160a01b031684604051614cba919061579a565b600060405180830381855af49150503d8060008114614cf5576040519150601f19603f3d011682016040523d82523d6000602084013e614cfa565b606091505b509150915061364e828260405180606001604052806027815260200161580a60279139614f62565b60026101e65403614d755760405162461bcd60e51b815260206004820152601f60248201527f5265656e7472616e637947756172643a207265656e7472616e742063616c6c0060448201526064016113f8565b60026101e655565b6040516001600160a01b0383166024820152604481018290526132de90849063a9059cbb60e01b90606401614b45565b600054610100900460ff166113ae5760405162461bcd60e51b81526004016113f89061568e565b600054610100900460ff16614dfb5760405162461bcd60e51b81526004016113f89061568e565b61149581614f7b565b600054610100900460ff16614e2b5760405162461bcd60e51b81526004016113f89061568e565b60ca80546001600160a01b03909316620100000262010000600160b01b03199215159290921661ff01600160b01b031990931692909217179055565b670de0b6b3a764000081111561149557604051632a9ffab760e21b815260040160405180910390fd5b6000614ee5826040518060400160405280602081526020017f5361666545524332303a206c6f772d6c6576656c2063616c6c206661696c6564815250856001600160a01b0316614fa29092919063ffffffff16565b8051909150156132de5780806020019051810190614f039190615597565b6132de5760405162461bcd60e51b815260206004820152602a60248201527f5361666545524332303a204552433230206f7065726174696f6e20646964206e6044820152691bdd081cdd58d8d9595960b21b60648201526084016113f8565b60608315614f715750816111ce565b6111ce8383614fb1565b600054610100900460ff1661207c5760405162461bcd60e51b81526004016113f89061568e565b60606111cb8484600085614fdb565b815115614fc15781518083602001fd5b8060405162461bcd60e51b81526004016113f891906157b6565b60608247101561503c5760405162461bcd60e51b815260206004820152602660248201527f416464726573733a20696e73756666696369656e742062616c616e636520666f6044820152651c8818d85b1b60d21b60648201526084016113f8565b600080866001600160a01b03168587604051615058919061579a565b60006040518083038185875af1925050503d8060008114615095576040519150601f19603f3d011682016040523d82523d6000602084013e61509a565b606091505b50915091506123fc878383876060831561511557825160000361510e576001600160a01b0385163b61510e5760405162461bcd60e51b815260206004820152601d60248201527f416464726573733a2063616c6c20746f206e6f6e2d636f6e747261637400000060448201526064016113f8565b50816115de565b6115de8383614fb1565b6001600160a01b038116811461149557600080fd5b600080600080600060a0868803121561514c57600080fd5b8535945060208601359350604086013592506060860135915060808601356151738161511f565b809150509295509295909350565b60006020828403121561519357600080fd5b5035919050565b600080604083850312156151ad57600080fd5b50508035926020909101359150565b6000602082840312156151ce57600080fd5b81356111ce8161511f565b600080600080608085870312156151ef57600080fd5b5050823594602084013594506040840135936060013592509050565b60008060006060848603121561522057600080fd5b505081359360208301359350604090920135919050565b6000806000806080858703121561524d57600080fd5b843593506020850135925060408501359150606085013561526d8161511f565b939692955090935050565b60008060008060008060c0878903121561529157600080fd5b863595506020870135945060408701359350606087013592506080870135915060a08701356152bf8161511f565b809150509295509295509295565b801515811461149557600080fd5b6000602082840312156152ed57600080fd5b81356111ce816152cd565b60008060006060848603121561530d57600080fd5b833592506020840135915060408401356153268161511f565b809150509250925092565b634e487b7160e01b600052604160045260246000fd5b6000806040838503121561535a57600080fd5b82356153658161511f565b9150602083013567ffffffffffffffff8082111561538257600080fd5b818501915085601f83011261539657600080fd5b8135818111156153a8576153a8615331565b604051601f8201601f19908116603f011681019083821181831017156153d0576153d0615331565b816040528281528860208487010111156153e957600080fd5b8260208601602083013760006020848301015280955050505050509250929050565b6000806040838503121561541e57600080fd5b8235915060208301356154308161511f565b809150509250929050565b6000610280828403121561181a57600080fd5b600080600080600060a0868803121561546657600080fd5b505083359560208501359550604085013594606081013594506080013592509050565b600060e0828403121561181a57600080fd5b6020808252602c908201527f46756e6374696f6e206d7573742062652063616c6c6564207468726f7567682060408201526b19195b1959d85d1958d85b1b60a21b606082015260800190565b6020808252602c908201527f46756e6374696f6e206d7573742062652063616c6c6564207468726f7567682060408201526b6163746976652070726f787960a01b606082015260800190565b634e487b7160e01b600052601160045260246000fd5b8082018082111561114e5761114e615533565b634e487b7160e01b600052603260045260246000fd5b6000806040838503121561558557600080fd5b825191506020830151615430816152cd565b6000602082840312156155a957600080fd5b81516111ce816152cd565b60e0810182356155c38161511f565b6001600160a01b0390811683526020840135906155df8261511f565b8082166020850152505060408301356040830152606083013560608301526080830135608083015260a083013560a083015260c083013560c083015292915050565b8181038181111561114e5761114e615533565b600081600019048311821515161561564e5761564e615533565b500290565b60008261567057634e487b7160e01b600052601260045260246000fd5b500490565b60006020828403121561568757600080fd5b5051919050565b6020808252602b908201527f496e697469616c697a61626c653a20636f6e7472616374206973206e6f74206960408201526a6e697469616c697a696e6760a81b606082015260800190565b80820182811260008312801582168215821617156156f9576156f9615533565b505092915050565b6000604082018483526020604081850152818551808452606086019150828701935060005b8181101561574257845183529383019391830191600101615726565b5090979650505050505050565b818103600083128015838313168383128216171561576f5761576f615533565b5092915050565b60005b83811015615791578181015183820152602001615779565b50506000910152565b600082516157ac818460208701615776565b9190910192915050565b60208152600082518060208401526157d5816040850160208701615776565b601f01601f1916919091016040019291505056fe360894a13ba1a3210667c828492db98dca3e2076cc3735a920a3ca505d382bbc416464726573733a206c6f772d6c6576656c2064656c65676174652063616c6c206661696c6564a26469706673582212200d1558d675ce1b3758a0353e256f12e9e9521fab2fc89391761d8ccbfa854d2d64736f6c63430008100033",
  "linkReferences": {},
  "deployedLinkReferences": {},
  "devdoc": {
    "kind": "dev",
    "methods": {
      "addPeggedToken((address,address,uint256,uint256,uint256,uint256,uint256))": {
        "details": "Note that the ema value, should consider `nextEmaCalculation`tpTokenAddress Pegged Token contract address to add      priceProviderAddress Pegged Token price provider contract address      tpCtarg Pegged Token target coverage [PREC]      tpMintFee additional fee pct applied on mint [PREC]      tpRedeemFee additional fee pct applied on redeem [PREC]      tpEma initial Pegged Token exponential moving average [PREC]      tpEmaSf Pegged Token smoothing factor [PREC]  Requirements: - the caller must have governance authorization. - tpTokenAddress must be a MocRC20, with mint, burn roles already settled  for this contract",
        "params": {
          "peggedTokenParams_": "params of Pegged Token to add"
        }
      },
      "calcCtargemaCA()": {
        "details": "qAC = nTP / pACtp      ctargemaCA = (ctargemaTP * qAC) / (qAC)",
        "returns": {
          "ctargemaCA": "[PREC]"
        }
      },
      "changeGovernor(address)": {
        "params": {
          "newGovernor_": "New governor address"
        }
      },
      "constructor": {
        "custom:oz-upgrades-unsafe-allow": "constructor"
      },
      "editPeggedToken((address,address,uint256,uint256,uint256,uint256,uint256))": {
        "details": "Note that the ema value, should consider `nextEmaCalculation`tpTokenAddress Pegged Token contract address to identify the token to edit      priceProviderAddress Pegged Token price provider contract address      tpCtarg Pegged Token target coverage [PREC]      tpMintFee additional fee pct applied on mint [PREC]      tpRedeemFee additional fee pct applied on redeem [PREC]      tpEma initial Pegged Token exponential moving average [PREC]      tpEmaSf Pegged Token smoothing factor [PREC]  Requirements: - the caller must have governance authorization. - the tpTokenAddress must exists",
        "params": {
          "peggedTokenParams_": "params of Pegged Token to add"
        }
      },
      "getCglb()": {
        "returns": {
          "cglob": "[PREC]"
        }
      },
      "getLeverageTC()": {
        "returns": {
          "leverageTC": "[PREC]"
        }
      },
      "getPACtp(uint256)": {
        "params": {
          "i_": "Pegged Token index"
        },
        "returns": {
          "_0": "price [PREC]"
        }
      },
      "getPTCac()": {
        "returns": {
          "pTCac": "[PREC]"
        }
      },
      "getQACforRedeemTP(uint256,uint256)": {
        "params": {
          "i_": "Pegged Token index",
          "qTP_": "amount of Pegged Token to redeem"
        },
        "returns": {
          "qACfee": "amount of Collateral Asset in concept of fees [N]",
          "qACtotalToRedeem": "amount of Collateral Asset needed to redeem, including fees [N]"
        }
      },
      "getTCAvailableToRedeem()": {
        "details": "because it is a view function we are not calculating the new ema,  since we are using the last ema calculation, this may differ a little from the real amount  of TC available to redeem. Consider it an approximation.",
        "returns": {
          "tcAvailableToRedeem": "[N]"
        }
      },
      "getTPAvailableToMint(uint256)": {
        "details": "because it is a view function we are not calculating the new ema,  since we are using the last ema calculation, this may differ a little from the real amount  of TP available to mint. Consider it an approximation.",
        "params": {
          "i_": "Pegged Token index"
        },
        "returns": {
          "tpAvailableToMint": "[N]"
        }
      },
      "getTotalACavailable()": {
        "returns": {
          "totalACavailable": "[N]"
        }
      },
      "initialize((((address,address,address,uint256,uint256,uint256,uint256,uint256,uint256,uint256,uint256,uint256,uint256,uint256,uint256),address,address,uint256,uint256),address))": {
        "details": "governorAddress The address that will define when a change contract is authorized      pauserAddress The address that is authorized to pause this contract      acTokenAddress Collateral Asset Token contract address      tcTokenAddress Collateral Token contract address      mocFeeFlowAddress Moc Fee Flow contract address      mocAppreciationBeneficiaryAddress Moc appreciation beneficiary address      protThrld protected state threshold [PREC]      liqThrld liquidation coverage threshold [PREC]      feeRetainer pct retain on fees to be re-injected as Collateral, while paying fees with AC [PREC]      tcMintFee additional fee pct applied on mint Collateral Tokens operations [PREC]      tcRedeemFee additional fee pct applied on redeem Collateral Tokens operations [PREC]      successFee pct of the gain because Pegged Tokens devaluation that is transferred        in Collateral Asset to Moc Fee Flow during the settlement [PREC]      appreciationFactor pct of the gain because Pegged Tokens devaluation that is returned        in Pegged Tokens to appreciation beneficiary during the settlement [PREC]      emaCalculationBlockSpan amount of blocks to wait between Pegged ema calculation",
        "params": {
          "initializeParams_": "contract initializer params"
        }
      },
      "isLiquidationReached()": {
        "returns": {
          "_0": "true if liquidation state is reached, false otherwise"
        }
      },
      "liqRedeemTP(uint256)": {
        "params": {
          "i_": "Pegged Token index"
        },
        "returns": {
          "qACRedeemed": "amount of AC sent to sender"
        }
      },
      "liqRedeemTPto(uint256,address)": {
        "params": {
          "i_": "Pegged Token index",
          "recipient_": "address who receives the AC"
        },
        "returns": {
          "qACRedeemed": "amount of AC sent to `recipient_`"
        }
      },
      "makeStoppable()": {
        "details": "Should be called through governance"
      },
      "makeUnstoppable()": {
        "details": "Should be called through governance"
      },
      "mintTC(uint256,uint256)": {
        "params": {
          "qACmax_": "maximum amount of Collateral Asset that can be spent",
          "qTC_": "amount of Collateral Token to mint"
        },
        "returns": {
          "qACtotalNeeded": "amount of AC used to mint qTC"
        }
      },
      "mintTCandTP(uint256,uint256,uint256)": {
        "params": {
          "i_": "Pegged Token index",
          "qACmax_": "maximum amount of Collateral Asset that can be spent",
          "qTP_": "amount of Pegged Token to mint"
        },
        "returns": {
          "qACtotalNeeded": "amount of AC used to mint Collateral Token and Pegged Token",
          "qTCtoMint": "amount of Collateral Token minted"
        }
      },
      "mintTCandTPto(uint256,uint256,uint256,address)": {
        "params": {
          "i_": "Pegged Token index",
          "qACmax_": "maximum amount of Collateral Asset that can be spent",
          "qTP_": "amount of Pegged Token to mint",
          "recipient_": "address who receives the Collateral Token and Pegged Token"
        },
        "returns": {
          "qACtotalNeeded": "amount of AC used to mint Collateral Token and Pegged Token",
          "qTCtoMint": "amount of Collateral Token minted"
        }
      },
      "mintTCto(uint256,uint256,address)": {
        "params": {
          "qACmax_": "maximum amount of Collateral Asset that can be spent",
          "qTC_": "amount of Collateral Token to mint",
          "recipient_": "address who receives the Collateral Token"
        },
        "returns": {
          "qACtotalNeeded": "amount of AC used to mint qTC"
        }
      },
      "mintTP(uint256,uint256,uint256)": {
        "params": {
          "i_": "Pegged Token index to mint",
          "qACmax_": "maximum amount of Collateral Asset that can be spent",
          "qTP_": "amount of Pegged Token to mint"
        },
        "returns": {
          "qACtotalNeeded": "amount of AC used to mint qTP"
        }
      },
      "mintTPto(uint256,uint256,uint256,address)": {
        "params": {
          "i_": "Pegged Token index to mint",
          "qACmax_": "maximum amount of Collateral Asset that can be spent",
          "qTP_": "amount of Pegged Token to mint",
          "recipient_": "address who receives the Pegged Token"
        },
        "returns": {
          "qACtotalNeeded": "amount of AC used to mint qTP"
        }
      },
      "pause()": {
        "details": "Should only be called by the pauser and when it is stoppable"
      },
      "proxiableUUID()": {
        "details": "Implementation of the ERC1822 {proxiableUUID} function. This returns the storage slot used by the implementation. It is used to validate the implementation's compatibility when performing an upgrade. IMPORTANT: A proxy pointing at a proxiable contract should not be considered proxiable itself, because this risks bricking a proxy that upgrades to it, by delegating to itself until out of gas. Thus it is critical that this function revert if invoked through a proxy. This is guaranteed by the `notDelegated` modifier."
      },
      "redeemTC(uint256,uint256)": {
        "params": {
          "qACmin_": "minimum amount of Collateral Asset that sender expects to receive",
          "qTC_": "amount of Collateral Token to redeem"
        },
        "returns": {
          "qACRedeemed": "amount of AC sent to sender"
        }
      },
      "redeemTCandTP(uint256,uint256,uint256,uint256)": {
        "params": {
          "i_": "Pegged Token index",
          "qACmin_": "minimum amount of Collateral Asset that the sender expects to receive",
          "qTC_": "maximum amount of Collateral Token to redeem",
          "qTP_": "maximum amount of Pegged Token to redeem"
        },
        "returns": {
          "qACRedeemed": "amount of AC sent to the sender",
          "qTPRedeemed": "amount of Pegged Token redeemed"
        }
      },
      "redeemTCandTPto(uint256,uint256,uint256,uint256,address)": {
        "params": {
          "i_": "Pegged Token index",
          "qACmin_": "minimum amount of Collateral Asset that `recipient_` expects to receive",
          "qTC_": "maximum amount of Collateral Token to redeem",
          "qTP_": "maximum amount of Pegged Token to redeem",
          "recipient_": "address who receives the Collateral Asset"
        },
        "returns": {
          "qACRedeemed": "amount of AC sent to the `recipient_`",
          "qTPRedeemed": "amount of Pegged Token redeemed"
        }
      },
      "redeemTCto(uint256,uint256,address)": {
        "params": {
          "qACmin_": "minimum amount of Collateral Asset that `recipient_` expects to receive",
          "qTC_": "amount of Collateral Token to redeem",
          "recipient_": "address who receives the Collateral Asset"
        },
        "returns": {
          "qACRedeemed": "amount of AC sent to 'recipient_'"
        }
      },
      "redeemTP(uint256,uint256,uint256)": {
        "params": {
          "i_": "Pegged Token index to redeem",
          "qACmin_": "minimum amount of Collateral Asset that sender expects to receive",
          "qTP_": "amount of Pegged Token to redeem"
        },
        "returns": {
          "qACRedeemed": "amount of AC sent to sender"
        }
      },
      "redeemTPto(uint256,uint256,uint256,address)": {
        "params": {
          "i_": "Pegged Token index to redeem",
          "qACmin_": "minimum amount of Collateral Asset that `recipient_` expects to receive",
          "qTP_": "amount of Pegged Token to redeem",
          "recipient_": "address who receives the Collateral Asset"
        },
        "returns": {
          "qACRedeemed": "amount of AC sent to 'recipient_'"
        }
      },
      "refreshACBalance()": {
        "details": "Intended to be use as notification after an RC20 AC transfer to this contract"
      },
      "setAppreciationFactor(uint256)": {
        "details": "sets appreciation Factor value.",
        "params": {
          "appreciationFactor_": "pct of the gain because Pegged Tokens devaluation that is returned in Pegged Tokens to appreciation beneficiary during the settlement [PREC]"
        }
      },
      "setBes(uint256)": {
        "params": {
          "bes_": "number of blocks between settlements*"
        }
      },
      "setEmaCalculationBlockSpan(uint256)": {
        "params": {
          "blockSpan_": "Defines how many blocks should pass between BMA calculations*"
        }
      },
      "setFeeRetainer(uint256)": {
        "details": "sets the fee pct to be retainer on AC fees payments as AC re-injection.",
        "params": {
          "feeRetainer_": "pct retain on fees to be re-injected as Collateral, while paying fees with AC [PREC] 0% = 0; 1% = 10 ** 16; 100% = 10 ** 18"
        }
      },
      "setLiqEnabled(bool)": {
        "details": "enables and disables the liquidation mechanism.",
        "params": {
          "liqEnabled_": "is liquidation enabled"
        }
      },
      "setLiqThrld(uint256)": {
        "details": "sets the value of the liq threshold configuration param",
        "params": {
          "liqThrld_": "liquidation threshold"
        }
      },
      "setMintTCandTPFee(uint256)": {
        "details": "sets the fee charged when mint Collateral Token and Pegged Token in one operation.",
        "params": {
          "mintTCandTPFee_": "additional fee pct applied on mint Collateral Token and Pegged Token [PREC] 0% = 0; 1% = 10 ** 16; 100% = 10 ** 18"
        }
      },
      "setMocAppreciationBeneficiaryAddress(address)": {
        "details": "sets Moc Appreciation Beneficiary Address",
        "params": {
          "mocAppreciationBeneficiaryAddress_": "moc Appreciation Beneficiary new address"
        }
      },
      "setMocFeeFlowAddress(address)": {
        "details": "sets Moc Fee Flow contract address",
        "params": {
          "mocFeeFlowAddress_": "moc Fee Flow new contract address"
        }
      },
      "setPauser(address)": {
        "details": "Should be called through governance",
        "params": {
          "newPauser_": "Address of the new pauser"
        }
      },
      "setProtThrld(uint256)": {
        "details": "sets the value of the protected threshold configuration param",
        "params": {
          "protThrld_": "coverage protected state threshold [PREC]"
        }
      },
      "setRedeemTCandTPFee(uint256)": {
        "details": "sets the fee charged when redeem Collateral Token and Pegged Token in one operation.",
        "params": {
          "redeemTCandTPFee_": "additional fee pct applied on redeem Collateral Token and Pegged Token [PREC] 0% = 0; 1% = 10 ** 16; 100% = 10 ** 18"
        }
      },
      "setSuccessFee(uint256)": {
        "details": "sets success Fee value.",
        "params": {
          "successFee_": "pct of the gain because Pegged Tokens devaluation that is transferred in Collateral Asset to Moc Fee Flow during the settlement [PREC]"
        }
      },
      "setSwapTCforTPFee(uint256)": {
        "details": "sets the fee charged when swap Collateral Token for a Pegged Token.",
        "params": {
          "swapTCforTPFee_": "additional fee pct applied on swap Collateral Token for a Pegged Token [PREC] 0% = 0; 1% = 10 ** 16; 100% = 10 ** 18"
        }
      },
      "setSwapTPforTCFee(uint256)": {
        "details": "sets the fee charged when swap a Pegged Token for Collateral Token.",
        "params": {
          "swapTPforTCFee_": "additional fee pct applied on swap a Pegged Token for Collateral Token [PREC] 0% = 0; 1% = 10 ** 16; 100% = 10 ** 18"
        }
      },
      "setSwapTPforTPFee(uint256)": {
        "details": "sets the fee charged when swap a Pegged Token for another Pegged Token.",
        "params": {
          "swapTPforTPFee_": "additional fee pct applied on swap a Pegged Token for another Pegged Token [PREC] 0% = 0; 1% = 10 ** 16; 100% = 10 ** 18"
        }
      },
      "setTcMintFee(uint256)": {
        "details": "sets the fee charged on Token Collateral mint.",
        "params": {
          "tcMintFee_": "addition fee pct applied on Collateral Tokens mint [PREC] 0% = 0; 1% = 10 ** 16; 100% = 10 ** 18"
        }
      },
      "setTcRedeemFee(uint256)": {
        "details": "sets the fee charged on Token Collateral redeem.",
        "params": {
          "tcRedeemFee_": "addition fee pct applied on Collateral Tokens redeem [PREC] 0% = 0; 1% = 10 ** 16; 100% = 10 ** 18"
        }
      },
      "swapTCforTP(uint256,uint256,uint256,uint256)": {
        "params": {
          "i_": "Pegged Token index",
          "qACmax_": "maximum amount of Collateral Asset that can be spent in fees",
          "qTC_": "amount of Collateral Token to swap",
          "qTPmin_": "minimum amount of Pegged Token that the sender expects to receive"
        },
        "returns": {
          "qACFee": "amount of AC used to pay fee",
          "qTPMinted": "amount of Pegged Token minted"
        }
      },
      "swapTCforTPto(uint256,uint256,uint256,uint256,address)": {
        "params": {
          "i_": "Pegged Token index",
          "qACmax_": "maximum amount of Collateral Asset that can be spent in fees",
          "qTC_": "amount of Collateral Token to swap",
          "qTPmin_": "minimum amount of Pegged Token that `recipient_` expects to receive",
          "recipient_": "address who receives the Pegged Token"
        },
        "returns": {
          "qACFee": "amount of AC used to pay fee",
          "qTPMinted": "amount of Pegged Token minted"
        }
      },
      "swapTPforTC(uint256,uint256,uint256,uint256)": {
        "params": {
          "i_": "Pegged Token index",
          "qACmax_": "maximum amount of Collateral Asset that can be spent in fees",
          "qTCmin_": "minimum amount of Collateral Token that the sender expects to receive",
          "qTP_": "amount of owned Pegged Token to swap"
        },
        "returns": {
          "qACFee": "amount of AC used to pay fee",
          "qTPMinted": "amount of Collateral Token minted"
        }
      },
      "swapTPforTCto(uint256,uint256,uint256,uint256,address)": {
        "params": {
          "i_": "Pegged Token index",
          "qACmax_": "maximum amount of Collateral Asset that can be spent in fees",
          "qTCmin_": "minimum amount of Collateral Token that `recipient_` expects to receive",
          "qTP_": "amount of owned Pegged Token to swap",
          "recipient_": "address who receives the Collateral Token"
        },
        "returns": {
          "qACFee": "amount of AC used to pay fee",
          "qTPMinted": "amount of Collateral Token minted"
        }
      },
      "swapTPforTP(uint256,uint256,uint256,uint256,uint256)": {
        "params": {
          "iFrom_": "owned Pegged Token index",
          "iTo_": "target Pegged Token index",
          "qACmax_": "maximum amount of Collateral Asset that can be spent in fees",
          "qTP_": "amount of owned Pegged Token to swap",
          "qTPmin_": "minimum amount of target Pegged Token that the sender expects to receive"
        },
        "returns": {
          "qACFee": "amount of AC used to pay fee",
          "qTPMinted": "amount of Pegged Token minted"
        }
      },
      "swapTPforTPto(uint256,uint256,uint256,uint256,uint256,address)": {
        "params": {
          "iFrom_": "owned Pegged Token index",
          "iTo_": "target Pegged Token index",
          "qACmax_": "maximum amount of Collateral Asset that can be spent in fees",
          "qTP_": "amount of owned Pegged Token to swap",
          "qTPmin_": "minimum amount of target Pegged Token that `recipient_` expects to receive",
          "recipient_": "address who receives the target Pegged Token"
        },
        "returns": {
          "qACFee": "amount of AC used to pay fee",
          "qTPMinted": "amount of Pegged Token minted"
        }
      },
      "updateEmas()": {
        "details": "All price provider prices must be available, fails if not"
      },
      "upgradeTo(address)": {
        "details": "Upgrade the implementation of the proxy to `newImplementation`. Calls {_authorizeUpgrade}. Emits an {Upgraded} event."
      },
      "upgradeToAndCall(address,bytes)": {
        "details": "Upgrade the implementation of the proxy to `newImplementation`, and subsequently execute the function call encoded in `data`. Calls {_authorizeUpgrade}. Emits an {Upgraded} event."
      }
    },
    "stateVariables": {
      "__gap": {
        "details": "This empty reserved space is put in place to allow future versions to add new variables without shifting down storage in the inheritance chain. See https://docs.openzeppelin.com/contracts/4.x/upgradeable#storage_gaps"
      }
    },
    "title": "MocCARC20: Moc Collateral Asset RC20",
    "version": 1
  },
  "evm": {
    "bytecode": {
      "linkReferences": {},
      "opcodes": "PUSH1 0xA0 PUSH1 0x40 MSTORE ADDRESS PUSH1 0x80 MSTORE CALLVALUE DUP1 ISZERO PUSH3 0x15 JUMPI PUSH1 0x0 DUP1 REVERT JUMPDEST POP PUSH3 0x20 PUSH3 0x30 JUMP JUMPDEST PUSH3 0x2A PUSH3 0x30 JUMP JUMPDEST PUSH3 0xF2 JUMP JUMPDEST PUSH1 0x0 SLOAD PUSH2 0x100 SWAP1 DIV PUSH1 0xFF AND ISZERO PUSH3 0x9D JUMPI PUSH1 0x40 MLOAD PUSH3 0x461BCD PUSH1 0xE5 SHL DUP2 MSTORE PUSH1 0x20 PUSH1 0x4 DUP3 ADD MSTORE PUSH1 0x27 PUSH1 0x24 DUP3 ADD MSTORE PUSH32 0x496E697469616C697A61626C653A20636F6E747261637420697320696E697469 PUSH1 0x44 DUP3 ADD MSTORE PUSH7 0x616C697A696E67 PUSH1 0xC8 SHL PUSH1 0x64 DUP3 ADD MSTORE PUSH1 0x84 ADD PUSH1 0x40 MLOAD DUP1 SWAP2 SUB SWAP1 REVERT JUMPDEST PUSH1 0x0 SLOAD PUSH1 0xFF SWAP1 DUP2 AND LT ISZERO PUSH3 0xF0 JUMPI PUSH1 0x0 DUP1 SLOAD PUSH1 0xFF NOT AND PUSH1 0xFF SWAP1 DUP2 OR SWAP1 SWAP2 SSTORE PUSH1 0x40 MLOAD SWAP1 DUP2 MSTORE PUSH32 0x7F26B83FF96E1F2B6A682F133852F6798A09C465DA95921460CEFB3847402498 SWAP1 PUSH1 0x20 ADD PUSH1 0x40 MLOAD DUP1 SWAP2 SUB SWAP1 LOG1 JUMPDEST JUMP JUMPDEST PUSH1 0x80 MLOAD PUSH2 0x5866 PUSH3 0x12A PUSH1 0x0 CODECOPY PUSH1 0x0 DUP2 DUP2 PUSH2 0x13BA ADD MSTORE DUP2 DUP2 PUSH2 0x1403 ADD MSTORE DUP2 DUP2 PUSH2 0x15F0 ADD MSTORE DUP2 DUP2 PUSH2 0x1630 ADD MSTORE PUSH2 0x16F9 ADD MSTORE PUSH2 0x5866 PUSH1 0x0 RETURN INVALID PUSH1 0x80 PUSH1 0x40 MSTORE PUSH1 0x4 CALLDATASIZE LT PUSH2 0x574 JUMPI PUSH1 0x0 CALLDATALOAD PUSH1 0xE0 SHR DUP1 PUSH4 0x70713468 GT PUSH2 0x2D8 JUMPI DUP1 PUSH4 0xBB4872DE GT PUSH2 0x180 JUMPI DUP1 PUSH4 0xE4012945 GT PUSH2 0xE7 JUMPI DUP1 PUSH4 0xF26114AA GT PUSH2 0xA0 JUMPI DUP1 PUSH4 0xF375CFBA GT PUSH2 0x7A JUMPI DUP1 PUSH4 0xF375CFBA EQ PUSH2 0x1080 JUMPI DUP1 PUSH4 0xFA6E83BD EQ PUSH2 0x1097 JUMPI DUP1 PUSH4 0xFA79589E EQ PUSH2 0x10AE JUMPI DUP1 PUSH4 0xFDA70F8B EQ PUSH2 0x10CE JUMPI PUSH1 0x0 DUP1 REVERT JUMPDEST DUP1 PUSH4 0xF26114AA EQ PUSH2 0x1029 JUMPI DUP1 PUSH4 0xF2808778 EQ PUSH2 0x1049 JUMPI DUP1 PUSH4 0xF30B5614 EQ PUSH2 0x1069 JUMPI PUSH1 0x0 DUP1 REVERT JUMPDEST DUP1 PUSH4 0xE4012945 EQ PUSH2 0xF86 JUMPI DUP1 PUSH4 0xE4C0AAF4 EQ PUSH2 0xFA6 JUMPI DUP1 PUSH4 0xE6B1627C EQ PUSH2 0xFC6 JUMPI DUP1 PUSH4 0xE7C25978 EQ PUSH2 0xFE6 JUMPI DUP1 PUSH4 0xE8859A15 EQ PUSH2 0x1001 JUMPI DUP1 PUSH4 0xF21FCC00 EQ PUSH2 0x1016 JUMPI PUSH1 0x0 DUP1 REVERT JUMPDEST DUP1 PUSH4 0xCEECC55A GT PUSH2 0x139 JUMPI DUP1 PUSH4 0xCEECC55A EQ PUSH2 0xEE7 JUMPI DUP1 PUSH4 0xD1A0FAA0 EQ PUSH2 0xF07 JUMPI DUP1 PUSH4 0xDB796072 EQ PUSH2 0xF1C JUMPI DUP1 PUSH4 0xDE08160F EQ PUSH2 0xF3C JUMPI DUP1 PUSH4 0xDE8D520A EQ PUSH2 0xF5C JUMPI DUP1 PUSH4 0xE23C135C EQ PUSH2 0xF71 JUMPI PUSH1 0x0 DUP1 REVERT JUMPDEST DUP1 PUSH4 0xBB4872DE EQ PUSH2 0xE38 JUMPI DUP1 PUSH4 0xBBBA7ED9 EQ PUSH2 0xE52 JUMPI DUP1 PUSH4 0xBECACA6B EQ PUSH2 0xE72 JUMPI DUP1 PUSH4 0xC00F538D EQ PUSH2 0xE92 JUMPI DUP1 PUSH4 0xC039CC69 EQ PUSH2 0xEB2 JUMPI DUP1 PUSH4 0xC84353C9 EQ PUSH2 0xEC7 JUMPI PUSH1 0x0 DUP1 REVERT JUMPDEST DUP1 PUSH4 0x8456CB59 GT PUSH2 0x23F JUMPI DUP1 PUSH4 0x9AD6659D GT PUSH2 0x1F8 JUMPI DUP1 PUSH4 0x9FD0506D GT PUSH2 0x1D2 JUMPI DUP1 PUSH4 0x9FD0506D EQ PUSH2 0xDC2 JUMPI DUP1 PUSH4 0xA8E9AC30 EQ PUSH2 0xDE8 JUMPI DUP1 PUSH4 0xAEA038DC EQ PUSH2 0xE01 JUMPI DUP1 PUSH4 0xBB2AC788 EQ PUSH2 0xE18 JUMPI PUSH1 0x0 DUP1 REVERT JUMPDEST DUP1 PUSH4 0x9AD6659D EQ PUSH2 0xD40 JUMPI DUP1 PUSH4 0x9BDD7CCE EQ PUSH2 0xD55 JUMPI DUP1 PUSH4 0x9CABFC00 EQ PUSH2 0xD75 JUMPI PUSH1 0x0 DUP1 REVERT JUMPDEST DUP1 PUSH4 0x8456CB59 EQ PUSH2 0xC93 JUMPI DUP1 PUSH4 0x8CFA4241 EQ PUSH2 0xCA8 JUMPI DUP1 PUSH4 0x904AA85B EQ PUSH2 0xCBF JUMPI DUP1 PUSH4 0x9195C85B EQ PUSH2 0xCDF JUMPI DUP1 PUSH4 0x9853C35A EQ PUSH2 0xCFF JUMPI DUP1 PUSH4 0x9ABB14C9 EQ PUSH2 0xD20 JUMPI PUSH1 0x0 DUP1 REVERT JUMPDEST DUP1 PUSH4 0x7A4FF1D9 GT PUSH2 0x291 JUMPI DUP1 PUSH4 0x7A4FF1D9 EQ PUSH2 0xBE7 JUMPI DUP1 PUSH4 0x7A727FE8 EQ PUSH2 0xC07 JUMPI DUP1 PUSH4 0x7AF5758C EQ PUSH2 0xC1E JUMPI DUP1 PUSH4 0x7CBA2383 EQ PUSH2 0xC3E JUMPI DUP1 PUSH4 0x7D8E0314 EQ PUSH2 0xC5E JUMPI DUP1 PUSH4 0x826FCD58 EQ PUSH2 0xC7E JUMPI PUSH1 0x0 DUP1 REVERT JUMPDEST DUP1 PUSH4 0x70713468 EQ PUSH2 0xB42 JUMPI DUP1 PUSH4 0x7554FFFD EQ PUSH2 0xB62 JUMPI DUP1 PUSH4 0x7750BA0C EQ PUSH2 0xB79 JUMPI DUP1 PUSH4 0x7820A328 EQ PUSH2 0xB99 JUMPI DUP1 PUSH4 0x79F9A91C EQ PUSH2 0xBB9 JUMPI DUP1 PUSH4 0x7A193C31 EQ PUSH2 0xBD0 JUMPI PUSH1 0x0 DUP1 REVERT JUMPDEST DUP1 PUSH4 0x33421C38 GT PUSH2 0x43B JUMPI DUP1 PUSH4 0x4F0F27EE GT PUSH2 0x3A2 JUMPI DUP1 PUSH4 0x5C616A73 GT PUSH2 0x35B JUMPI DUP1 PUSH4 0x60009E0B GT PUSH2 0x335 JUMPI DUP1 PUSH4 0x60009E0B EQ PUSH2 0xAE0 JUMPI DUP1 PUSH4 0x662013F4 EQ PUSH2 0xB01 JUMPI DUP1 PUSH4 0x68274357 EQ PUSH2 0xB16 JUMPI DUP1 PUSH4 0x6B5488DF EQ PUSH2 0xB2B JUMPI PUSH1 0x0 DUP1 REVERT JUMPDEST DUP1 PUSH4 0x5C616A73 EQ PUSH2 0xA8E JUMPI DUP1 PUSH4 0x5C975ABB EQ PUSH2 0xAA3 JUMPI DUP1 PUSH4 0x5D65D045 EQ PUSH2 0xAC0 JUMPI PUSH1 0x0 DUP1 REVERT JUMPDEST DUP1 PUSH4 0x4F0F27EE EQ PUSH2 0x9FA JUMPI DUP1 PUSH4 0x4F1EF286 EQ PUSH2 0xA11 JUMPI DUP1 PUSH4 0x5210570C EQ PUSH2 0xA24 JUMPI DUP1 PUSH4 0x5241271C EQ PUSH2 0xA39 JUMPI DUP1 PUSH4 0x52D1902D EQ PUSH2 0xA59 JUMPI DUP1 PUSH4 0x54A73C62 EQ PUSH2 0xA6E JUMPI PUSH1 0x0 DUP1 REVERT JUMPDEST DUP1 PUSH4 0x4310ADC6 GT PUSH2 0x3F4 JUMPI DUP1 PUSH4 0x4310ADC6 EQ PUSH2 0x925 JUMPI DUP1 PUSH4 0x4454AE8B EQ PUSH2 0x945 JUMPI DUP1 PUSH4 0x4B746001 EQ PUSH2 0x965 JUMPI DUP1 PUSH4 0x4CFFBAAB EQ PUSH2 0x9A2 JUMPI DUP1 PUSH4 0x4D977E78 EQ PUSH2 0x9C2 JUMPI DUP1 PUSH4 0x4E1F907A EQ PUSH2 0x9D9 JUMPI PUSH1 0x0 DUP1 REVERT JUMPDEST DUP1 PUSH4 0x33421C38 EQ PUSH2 0x88F JUMPI DUP1 PUSH4 0x3659CFE6 EQ PUSH2 0x8A4 JUMPI DUP1 PUSH4 0x3BC4AC0A EQ PUSH2 0x8C4 JUMPI DUP1 PUSH4 0x3F4BA83A EQ PUSH2 0x8E4 JUMPI DUP1 PUSH4 0x4017936A EQ PUSH2 0x8F9 JUMPI DUP1 PUSH4 0x407F0E34 EQ PUSH2 0x90E JUMPI PUSH1 0x0 DUP1 REVERT JUMPDEST DUP1 PUSH4 0x1867E2F5 GT PUSH2 0x4DF JUMPI DUP1 PUSH4 0x23B98CDE GT PUSH2 0x498 JUMPI DUP1 PUSH4 0x23B98CDE EQ PUSH2 0x7D1 JUMPI DUP1 PUSH4 0x27EAB2A1 EQ PUSH2 0x801 JUMPI DUP1 PUSH4 0x2A20D57D EQ PUSH2 0x821 JUMPI DUP1 PUSH4 0x2C43BD3B EQ PUSH2 0x838 JUMPI DUP1 PUSH4 0x2D88AF4A EQ PUSH2 0x858 JUMPI DUP1 PUSH4 0x333431FD EQ PUSH2 0x878 JUMPI PUSH1 0x0 DUP1 REVERT JUMPDEST DUP1 PUSH4 0x1867E2F5 EQ PUSH2 0x732 JUMPI DUP1 PUSH4 0x1A89B8F2 EQ PUSH2 0x749 JUMPI DUP1 PUSH4 0x1F1138A6 EQ PUSH2 0x75C JUMPI DUP1 PUSH4 0x1FB0DDA0 EQ PUSH2 0x77C JUMPI DUP1 PUSH4 0x1FE6A7AD EQ PUSH2 0x791 JUMPI DUP1 PUSH4 0x2069F753 EQ PUSH2 0x7B1 JUMPI PUSH1 0x0 DUP1 REVERT JUMPDEST DUP1 PUSH4 0xD6AC463 GT PUSH2 0x531 JUMPI DUP1 PUSH4 0xD6AC463 EQ PUSH2 0x672 JUMPI DUP1 PUSH4 0xE0A8FD2 EQ PUSH2 0x692 JUMPI DUP1 PUSH4 0x1301A8F0 EQ PUSH2 0x6B2 JUMPI DUP1 PUSH4 0x17574BC5 EQ PUSH2 0x6D2 JUMPI DUP1 PUSH4 0x17DF0AB8 EQ PUSH2 0x6F2 JUMPI DUP1 PUSH4 0x181770DA EQ PUSH2 0x712 JUMPI PUSH1 0x0 DUP1 REVERT JUMPDEST DUP1 PUSH4 0x1CDED9C EQ PUSH2 0x579 JUMPI DUP1 PUSH4 0x1DDE6EF EQ PUSH2 0x5B3 JUMPI DUP1 PUSH4 0x1F1B684 EQ PUSH2 0x5D5 JUMPI DUP1 PUSH4 0xBB7F608 EQ PUSH2 0x60D JUMPI DUP1 PUSH4 0xC340A24 EQ PUSH2 0x63B JUMPI DUP1 PUSH4 0xC36D897 EQ PUSH2 0x65B JUMPI JUMPDEST PUSH1 0x0 DUP1 REVERT JUMPDEST CALLVALUE DUP1 ISZERO PUSH2 0x585 JUMPI PUSH1 0x0 DUP1 REVERT JUMPDEST POP PUSH2 0x599 PUSH2 0x594 CALLDATASIZE PUSH1 0x4 PUSH2 0x5134 JUMP JUMPDEST PUSH2 0x10E5 JUMP JUMPDEST PUSH1 0x40 DUP1 MLOAD SWAP3 DUP4 MSTORE PUSH1 0x20 DUP4 ADD SWAP2 SWAP1 SWAP2 MSTORE ADD JUMPDEST PUSH1 0x40 MLOAD DUP1 SWAP2 SUB SWAP1 RETURN JUMPDEST CALLVALUE DUP1 ISZERO PUSH2 0x5BF JUMPI PUSH1 0x0 DUP1 REVERT JUMPDEST POP PUSH2 0x5D3 PUSH2 0x5CE CALLDATASIZE PUSH1 0x4 PUSH2 0x5181 JUMP JUMPDEST PUSH2 0x1104 JUMP JUMPDEST STOP JUMPDEST CALLVALUE DUP1 ISZERO PUSH2 0x5E1 JUMPI PUSH1 0x0 DUP1 REVERT JUMPDEST POP PUSH2 0x5F5 PUSH2 0x5F0 CALLDATASIZE PUSH1 0x4 PUSH2 0x5181 JUMP JUMPDEST PUSH2 0x1112 JUMP JUMPDEST PUSH1 0x40 MLOAD PUSH1 0x1 PUSH1 0x1 PUSH1 0xA0 SHL SUB SWAP1 SWAP2 AND DUP2 MSTORE PUSH1 0x20 ADD PUSH2 0x5AA JUMP JUMPDEST CALLVALUE DUP1 ISZERO PUSH2 0x619 JUMPI PUSH1 0x0 DUP1 REVERT JUMPDEST POP PUSH2 0x62D PUSH2 0x628 CALLDATASIZE PUSH1 0x4 PUSH2 0x519A JUMP JUMPDEST PUSH2 0x113D JUMP JUMPDEST PUSH1 0x40 MLOAD SWAP1 DUP2 MSTORE PUSH1 0x20 ADD PUSH2 0x5AA JUMP JUMPDEST CALLVALUE DUP1 ISZERO PUSH2 0x647 JUMPI PUSH1 0x0 DUP1 REVERT JUMPDEST POP PUSH1 0x97 SLOAD PUSH2 0x5F5 SWAP1 PUSH1 0x1 PUSH1 0x1 PUSH1 0xA0 SHL SUB AND DUP2 JUMP JUMPDEST CALLVALUE DUP1 ISZERO PUSH2 0x667 JUMPI PUSH1 0x0 DUP1 REVERT JUMPDEST POP PUSH2 0x62D PUSH2 0x17E SLOAD DUP2 JUMP JUMPDEST CALLVALUE DUP1 ISZERO PUSH2 0x67E JUMPI PUSH1 0x0 DUP1 REVERT JUMPDEST POP PUSH2 0x5D3 PUSH2 0x68D CALLDATASIZE PUSH1 0x4 PUSH2 0x51BC JUMP JUMPDEST PUSH2 0x1154 JUMP JUMPDEST CALLVALUE DUP1 ISZERO PUSH2 0x69E JUMPI PUSH1 0x0 DUP1 REVERT JUMPDEST POP PUSH2 0x5D3 PUSH2 0x6AD CALLDATASIZE PUSH1 0x4 PUSH2 0x5181 JUMP JUMPDEST PUSH2 0x117F JUMP JUMPDEST CALLVALUE DUP1 ISZERO PUSH2 0x6BE JUMPI PUSH1 0x0 DUP1 REVERT JUMPDEST POP PUSH2 0x599 PUSH2 0x6CD CALLDATASIZE PUSH1 0x4 PUSH2 0x51D9 JUMP JUMPDEST PUSH2 0x118D JUMP JUMPDEST CALLVALUE DUP1 ISZERO PUSH2 0x6DE JUMPI PUSH1 0x0 DUP1 REVERT JUMPDEST POP PUSH2 0x599 PUSH2 0x6ED CALLDATASIZE PUSH1 0x4 PUSH2 0x51D9 JUMP JUMPDEST PUSH2 0x11AB JUMP JUMPDEST CALLVALUE DUP1 ISZERO PUSH2 0x6FE JUMPI PUSH1 0x0 DUP1 REVERT JUMPDEST POP PUSH2 0x62D PUSH2 0x70D CALLDATASIZE PUSH1 0x4 PUSH2 0x520B JUMP JUMPDEST PUSH2 0x11BC JUMP JUMPDEST CALLVALUE DUP1 ISZERO PUSH2 0x71E JUMPI PUSH1 0x0 DUP1 REVERT JUMPDEST POP PUSH2 0x62D PUSH2 0x72D CALLDATASIZE PUSH1 0x4 PUSH2 0x520B JUMP JUMPDEST PUSH2 0x11D5 JUMP JUMPDEST CALLVALUE DUP1 ISZERO PUSH2 0x73E JUMPI PUSH1 0x0 DUP1 REVERT JUMPDEST POP PUSH2 0x62D PUSH2 0x1B3 SLOAD DUP2 JUMP JUMPDEST PUSH2 0x599 PUSH2 0x757 CALLDATASIZE PUSH1 0x4 PUSH2 0x5237 JUMP JUMPDEST PUSH2 0x11E4 JUMP JUMPDEST CALLVALUE DUP1 ISZERO PUSH2 0x768 JUMPI PUSH1 0x0 DUP1 REVERT JUMPDEST POP PUSH2 0x599 PUSH2 0x777 CALLDATASIZE PUSH1 0x4 PUSH2 0x5278 JUMP JUMPDEST PUSH2 0x11F4 JUMP JUMPDEST CALLVALUE DUP1 ISZERO PUSH2 0x788 JUMPI PUSH1 0x0 DUP1 REVERT JUMPDEST POP PUSH2 0x62D PUSH2 0x1215 JUMP JUMPDEST CALLVALUE DUP1 ISZERO PUSH2 0x79D JUMPI PUSH1 0x0 DUP1 REVERT JUMPDEST POP PUSH2 0x5D3 PUSH2 0x7AC CALLDATASIZE PUSH1 0x4 PUSH2 0x52DB JUMP JUMPDEST PUSH2 0x1237 JUMP JUMPDEST CALLVALUE DUP1 ISZERO PUSH2 0x7BD JUMPI PUSH1 0x0 DUP1 REVERT JUMPDEST POP PUSH2 0x5D3 PUSH2 0x7CC CALLDATASIZE PUSH1 0x4 PUSH2 0x5181 JUMP JUMPDEST PUSH2 0x1253 JUMP JUMPDEST CALLVALUE DUP1 ISZERO PUSH2 0x7DD JUMPI PUSH1 0x0 DUP1 REVERT JUMPDEST POP PUSH2 0x148 SLOAD PUSH2 0x7F1 SWAP1 PUSH2 0x100 SWAP1 DIV PUSH1 0xFF AND DUP2 JUMP JUMPDEST PUSH1 0x40 MLOAD SWAP1 ISZERO ISZERO DUP2 MSTORE PUSH1 0x20 ADD PUSH2 0x5AA JUMP JUMPDEST CALLVALUE DUP1 ISZERO PUSH2 0x80D JUMPI PUSH1 0x0 DUP1 REVERT JUMPDEST POP PUSH2 0x5D3 PUSH2 0x81C CALLDATASIZE PUSH1 0x4 PUSH2 0x51BC JUMP JUMPDEST PUSH2 0x1261 JUMP JUMPDEST CALLVALUE DUP1 ISZERO PUSH2 0x82D JUMPI PUSH1 0x0 DUP1 REVERT JUMPDEST POP PUSH2 0x62D PUSH2 0x13E SLOAD DUP2 JUMP JUMPDEST CALLVALUE DUP1 ISZERO PUSH2 0x844 JUMPI PUSH1 0x0 DUP1 REVERT JUMPDEST POP PUSH2 0x5D3 PUSH2 0x853 CALLDATASIZE PUSH1 0x4 PUSH2 0x5181 JUMP JUMPDEST PUSH2 0x128C JUMP JUMPDEST CALLVALUE DUP1 ISZERO PUSH2 0x864 JUMPI PUSH1 0x0 DUP1 REVERT JUMPDEST POP PUSH2 0x5D3 PUSH2 0x873 CALLDATASIZE PUSH1 0x4 PUSH2 0x51BC JUMP JUMPDEST PUSH2 0x129A JUMP JUMPDEST CALLVALUE DUP1 ISZERO PUSH2 0x884 JUMPI PUSH1 0x0 DUP1 REVERT JUMPDEST POP PUSH2 0x62D PUSH2 0x13D SLOAD DUP2 JUMP JUMPDEST CALLVALUE DUP1 ISZERO PUSH2 0x89B JUMPI PUSH1 0x0 DUP1 REVERT JUMPDEST POP PUSH2 0x5D3 PUSH2 0x12CC JUMP JUMPDEST CALLVALUE DUP1 ISZERO PUSH2 0x8B0 JUMPI PUSH1 0x0 DUP1 REVERT JUMPDEST POP PUSH2 0x5D3 PUSH2 0x8BF CALLDATASIZE PUSH1 0x4 PUSH2 0x51BC JUMP JUMPDEST PUSH2 0x13B0 JUMP JUMPDEST CALLVALUE DUP1 ISZERO PUSH2 0x8D0 JUMPI PUSH1 0x0 DUP1 REVERT JUMPDEST POP PUSH2 0x5D3 PUSH2 0x8DF CALLDATASIZE PUSH1 0x4 PUSH2 0x5181 JUMP JUMPDEST PUSH2 0x1498 JUMP JUMPDEST CALLVALUE DUP1 ISZERO PUSH2 0x8F0 JUMPI PUSH1 0x0 DUP1 REVERT JUMPDEST POP PUSH2 0x5D3 PUSH2 0x14A6 JUMP JUMPDEST CALLVALUE DUP1 ISZERO PUSH2 0x905 JUMPI PUSH1 0x0 DUP1 REVERT JUMPDEST POP PUSH2 0x62D PUSH2 0x1540 JUMP JUMPDEST CALLVALUE DUP1 ISZERO PUSH2 0x91A JUMPI PUSH1 0x0 DUP1 REVERT JUMPDEST POP PUSH2 0x62D PUSH2 0x13C SLOAD DUP2 JUMP JUMPDEST CALLVALUE DUP1 ISZERO PUSH2 0x931 JUMPI PUSH1 0x0 DUP1 REVERT JUMPDEST POP PUSH2 0x62D PUSH2 0x940 CALLDATASIZE PUSH1 0x4 PUSH2 0x52F8 JUMP JUMPDEST PUSH2 0x1575 JUMP JUMPDEST CALLVALUE DUP1 ISZERO PUSH2 0x951 JUMPI PUSH1 0x0 DUP1 REVERT JUMPDEST POP PUSH2 0x599 PUSH2 0x960 CALLDATASIZE PUSH1 0x4 PUSH2 0x5134 JUMP JUMPDEST PUSH2 0x1583 JUMP JUMPDEST CALLVALUE DUP1 ISZERO PUSH2 0x971 JUMPI PUSH1 0x0 DUP1 REVERT JUMPDEST POP PUSH2 0x985 PUSH2 0x980 CALLDATASIZE PUSH1 0x4 PUSH2 0x5181 JUMP JUMPDEST PUSH2 0x1594 JUMP JUMPDEST PUSH1 0x40 DUP1 MLOAD SWAP3 DUP4 MSTORE PUSH1 0x1 PUSH1 0x1 PUSH1 0xA0 SHL SUB SWAP1 SWAP2 AND PUSH1 0x20 DUP4 ADD MSTORE ADD PUSH2 0x5AA JUMP JUMPDEST CALLVALUE DUP1 ISZERO PUSH2 0x9AE JUMPI PUSH1 0x0 DUP1 REVERT JUMPDEST POP PUSH2 0x62D PUSH2 0x9BD CALLDATASIZE PUSH1 0x4 PUSH2 0x5237 JUMP JUMPDEST PUSH2 0x15CC JUMP JUMPDEST CALLVALUE DUP1 ISZERO PUSH2 0x9CE JUMPI PUSH1 0x0 DUP1 REVERT JUMPDEST POP PUSH2 0x62D PUSH2 0x1B2 SLOAD DUP2 JUMP JUMPDEST CALLVALUE DUP1 ISZERO PUSH2 0x9E5 JUMPI PUSH1 0x0 DUP1 REVERT JUMPDEST POP PUSH2 0x144 SLOAD PUSH2 0x5F5 SWAP1 PUSH1 0x1 PUSH1 0x1 PUSH1 0xA0 SHL SUB AND DUP2 JUMP JUMPDEST CALLVALUE DUP1 ISZERO PUSH2 0xA06 JUMPI PUSH1 0x0 DUP1 REVERT JUMPDEST POP PUSH2 0x62D PUSH2 0x139 SLOAD DUP2 JUMP JUMPDEST PUSH2 0x5D3 PUSH2 0xA1F CALLDATASIZE PUSH1 0x4 PUSH2 0x5347 JUMP JUMPDEST PUSH2 0x15E6 JUMP JUMPDEST CALLVALUE DUP1 ISZERO PUSH2 0xA30 JUMPI PUSH1 0x0 DUP1 REVERT JUMPDEST POP PUSH2 0x5D3 PUSH2 0x16B6 JUMP JUMPDEST CALLVALUE DUP1 ISZERO PUSH2 0xA45 JUMPI PUSH1 0x0 DUP1 REVERT JUMPDEST POP PUSH2 0x62D PUSH2 0xA54 CALLDATASIZE PUSH1 0x4 PUSH2 0x5181 JUMP JUMPDEST PUSH2 0x16CA JUMP JUMPDEST CALLVALUE DUP1 ISZERO PUSH2 0xA65 JUMPI PUSH1 0x0 DUP1 REVERT JUMPDEST POP PUSH2 0x62D PUSH2 0x16EC JUMP JUMPDEST CALLVALUE DUP1 ISZERO PUSH2 0xA7A JUMPI PUSH1 0x0 DUP1 REVERT JUMPDEST POP PUSH2 0x62D PUSH2 0xA89 CALLDATASIZE PUSH1 0x4 PUSH2 0x5237 JUMP JUMPDEST PUSH2 0x179F JUMP JUMPDEST CALLVALUE DUP1 ISZERO PUSH2 0xA9A JUMPI PUSH1 0x0 DUP1 REVERT JUMPDEST POP PUSH2 0x5D3 PUSH2 0x17AE JUMP JUMPDEST CALLVALUE DUP1 ISZERO PUSH2 0xAAF JUMPI PUSH1 0x0 DUP1 REVERT JUMPDEST POP PUSH1 0xCA SLOAD PUSH2 0x100 SWAP1 DIV PUSH1 0xFF AND PUSH2 0x7F1 JUMP JUMPDEST CALLVALUE DUP1 ISZERO PUSH2 0xACC JUMPI PUSH1 0x0 DUP1 REVERT JUMPDEST POP PUSH2 0x62D PUSH2 0xADB CALLDATASIZE PUSH1 0x4 PUSH2 0x540B JUMP JUMPDEST PUSH2 0x1803 JUMP JUMPDEST CALLVALUE DUP1 ISZERO PUSH2 0xAEC JUMPI PUSH1 0x0 DUP1 REVERT JUMPDEST POP PUSH2 0x131 SLOAD PUSH2 0x5F5 SWAP1 PUSH1 0x1 PUSH1 0x1 PUSH1 0xA0 SHL SUB AND DUP2 JUMP JUMPDEST CALLVALUE DUP1 ISZERO PUSH2 0xB0D JUMPI PUSH1 0x0 DUP1 REVERT JUMPDEST POP PUSH2 0x62D PUSH2 0x1810 JUMP JUMPDEST CALLVALUE DUP1 ISZERO PUSH2 0xB22 JUMPI PUSH1 0x0 DUP1 REVERT JUMPDEST POP PUSH2 0x5D3 PUSH2 0x1820 JUMP JUMPDEST CALLVALUE DUP1 ISZERO PUSH2 0xB37 JUMPI PUSH1 0x0 DUP1 REVERT JUMPDEST POP PUSH2 0x62D PUSH2 0x146 SLOAD DUP2 JUMP JUMPDEST CALLVALUE DUP1 ISZERO PUSH2 0xB4E JUMPI PUSH1 0x0 DUP1 REVERT JUMPDEST POP PUSH2 0x5D3 PUSH2 0xB5D CALLDATASIZE PUSH1 0x4 PUSH2 0x5181 JUMP JUMPDEST PUSH2 0x1837 JUMP JUMPDEST CALLVALUE DUP1 ISZERO PUSH2 0xB6E JUMPI PUSH1 0x0 DUP1 REVERT JUMPDEST POP PUSH2 0x62D PUSH2 0x137 SLOAD DUP2 JUMP JUMPDEST CALLVALUE DUP1 ISZERO PUSH2 0xB85 JUMPI PUSH1 0x0 DUP1 REVERT JUMPDEST POP PUSH2 0x5D3 PUSH2 0xB94 CALLDATASIZE PUSH1 0x4 PUSH2 0x5181 JUMP JUMPDEST PUSH2 0x1845 JUMP JUMPDEST CALLVALUE DUP1 ISZERO PUSH2 0xBA5 JUMPI PUSH1 0x0 DUP1 REVERT JUMPDEST POP PUSH2 0x599 PUSH2 0xBB4 CALLDATASIZE PUSH1 0x4 PUSH2 0x519A JUMP JUMPDEST PUSH2 0x1853 JUMP JUMPDEST CALLVALUE DUP1 ISZERO PUSH2 0xBC5 JUMPI PUSH1 0x0 DUP1 REVERT JUMPDEST POP PUSH2 0x62D PUSH2 0x140 SLOAD DUP2 JUMP JUMPDEST CALLVALUE DUP1 ISZERO PUSH2 0xBDC JUMPI PUSH1 0x0 DUP1 REVERT JUMPDEST POP PUSH2 0x62D PUSH2 0x132 SLOAD DUP2 JUMP JUMPDEST CALLVALUE DUP1 ISZERO PUSH2 0xBF3 JUMPI PUSH1 0x0 DUP1 REVERT JUMPDEST POP PUSH2 0x5D3 PUSH2 0xC02 CALLDATASIZE PUSH1 0x4 PUSH2 0x5181 JUMP JUMPDEST PUSH2 0x1874 JUMP JUMPDEST CALLVALUE DUP1 ISZERO PUSH2 0xC13 JUMPI PUSH1 0x0 DUP1 REVERT JUMPDEST POP PUSH2 0x62D PUSH2 0x17F SLOAD DUP2 JUMP JUMPDEST CALLVALUE DUP1 ISZERO PUSH2 0xC2A JUMPI PUSH1 0x0 DUP1 REVERT JUMPDEST POP PUSH2 0x5D3 PUSH2 0xC39 CALLDATASIZE PUSH1 0x4 PUSH2 0x5181 JUMP JUMPDEST PUSH2 0x1882 JUMP JUMPDEST CALLVALUE DUP1 ISZERO PUSH2 0xC4A JUMPI PUSH1 0x0 DUP1 REVERT JUMPDEST POP PUSH2 0x5D3 PUSH2 0xC59 CALLDATASIZE PUSH1 0x4 PUSH2 0x5181 JUMP JUMPDEST PUSH2 0x1890 JUMP JUMPDEST CALLVALUE DUP1 ISZERO PUSH2 0xC6A JUMPI PUSH1 0x0 DUP1 REVERT JUMPDEST POP PUSH2 0x62D PUSH2 0xC79 CALLDATASIZE PUSH1 0x4 PUSH2 0x5181 JUMP JUMPDEST PUSH2 0x189E JUMP JUMPDEST CALLVALUE DUP1 ISZERO PUSH2 0xC8A JUMPI PUSH1 0x0 DUP1 REVERT JUMPDEST POP PUSH2 0x62D PUSH2 0x18AF JUMP JUMPDEST CALLVALUE DUP1 ISZERO PUSH2 0xC9F JUMPI PUSH1 0x0 DUP1 REVERT JUMPDEST POP PUSH2 0x5D3 PUSH2 0x18CA JUMP JUMPDEST CALLVALUE DUP1 ISZERO PUSH2 0xCB4 JUMPI PUSH1 0x0 DUP1 REVERT JUMPDEST POP PUSH2 0x62D PUSH2 0x147 SLOAD DUP2 JUMP JUMPDEST CALLVALUE DUP1 ISZERO PUSH2 0xCCB JUMPI PUSH1 0x0 DUP1 REVERT JUMPDEST POP PUSH2 0x62D PUSH2 0xCDA CALLDATASIZE PUSH1 0x4 PUSH2 0x5181 JUMP JUMPDEST PUSH2 0x1965 JUMP JUMPDEST CALLVALUE DUP1 ISZERO PUSH2 0xCEB JUMPI PUSH1 0x0 DUP1 REVERT JUMPDEST POP PUSH2 0x62D PUSH2 0xCFA CALLDATASIZE PUSH1 0x4 PUSH2 0x5181 JUMP JUMPDEST PUSH2 0x1A2F JUMP JUMPDEST CALLVALUE DUP1 ISZERO PUSH2 0xD0B JUMPI PUSH1 0x0 DUP1 REVERT JUMPDEST POP PUSH2 0x143 SLOAD PUSH2 0x5F5 SWAP1 PUSH1 0x1 PUSH1 0x1 PUSH1 0xA0 SHL SUB AND DUP2 JUMP JUMPDEST CALLVALUE DUP1 ISZERO PUSH2 0xD2C JUMPI PUSH1 0x0 DUP1 REVERT JUMPDEST POP PUSH2 0x62D PUSH2 0xD3B CALLDATASIZE PUSH1 0x4 PUSH2 0x519A JUMP JUMPDEST PUSH2 0x1A3C JUMP JUMPDEST CALLVALUE DUP1 ISZERO PUSH2 0xD4C JUMPI PUSH1 0x0 DUP1 REVERT JUMPDEST POP PUSH2 0x7F1 PUSH2 0x1A4A JUMP JUMPDEST CALLVALUE DUP1 ISZERO PUSH2 0xD61 JUMPI PUSH1 0x0 DUP1 REVERT JUMPDEST POP PUSH2 0x599 PUSH2 0xD70 CALLDATASIZE PUSH1 0x4 PUSH2 0x5134 JUMP JUMPDEST PUSH2 0x1A75 JUMP JUMPDEST CALLVALUE DUP1 ISZERO PUSH2 0xD81 JUMPI PUSH1 0x0 DUP1 REVERT JUMPDEST POP PUSH2 0xDAD PUSH2 0xD90 CALLDATASIZE PUSH1 0x4 PUSH2 0x51BC JUMP JUMPDEST PUSH2 0x134 PUSH1 0x20 MSTORE PUSH1 0x0 SWAP1 DUP2 MSTORE PUSH1 0x40 SWAP1 KECCAK256 DUP1 SLOAD PUSH1 0x1 SWAP1 SWAP2 ADD SLOAD PUSH1 0xFF AND DUP3 JUMP JUMPDEST PUSH1 0x40 DUP1 MLOAD SWAP3 DUP4 MSTORE SWAP1 ISZERO ISZERO PUSH1 0x20 DUP4 ADD MSTORE ADD PUSH2 0x5AA JUMP JUMPDEST CALLVALUE DUP1 ISZERO PUSH2 0xDCE JUMPI PUSH1 0x0 DUP1 REVERT JUMPDEST POP PUSH1 0xCA SLOAD PUSH2 0x5F5 SWAP1 PUSH3 0x10000 SWAP1 DIV PUSH1 0x1 PUSH1 0x1 PUSH1 0xA0 SHL SUB AND DUP2 JUMP JUMPDEST CALLVALUE DUP1 ISZERO PUSH2 0xDF4 JUMPI PUSH1 0x0 DUP1 REVERT JUMPDEST POP PUSH2 0x17E SLOAD NUMBER LT ISZERO PUSH2 0x7F1 JUMP JUMPDEST CALLVALUE DUP1 ISZERO PUSH2 0xE0D JUMPI PUSH1 0x0 DUP1 REVERT JUMPDEST POP PUSH2 0x62D PUSH2 0x13B SLOAD DUP2 JUMP JUMPDEST CALLVALUE DUP1 ISZERO PUSH2 0xE24 JUMPI PUSH1 0x0 DUP1 REVERT JUMPDEST POP PUSH2 0x599 PUSH2 0xE33 CALLDATASIZE PUSH1 0x4 PUSH2 0x51D9 JUMP JUMPDEST PUSH2 0x1A86 JUMP JUMPDEST CALLVALUE DUP1 ISZERO PUSH2 0xE44 JUMPI PUSH1 0x0 DUP1 REVERT JUMPDEST POP PUSH1 0xCA SLOAD PUSH2 0x7F1 SWAP1 PUSH1 0xFF AND DUP2 JUMP JUMPDEST CALLVALUE DUP1 ISZERO PUSH2 0xE5E JUMPI PUSH1 0x0 DUP1 REVERT JUMPDEST POP PUSH2 0x5D3 PUSH2 0xE6D CALLDATASIZE PUSH1 0x4 PUSH2 0x543B JUMP JUMPDEST PUSH2 0x1A97 JUMP JUMPDEST CALLVALUE DUP1 ISZERO PUSH2 0xE7E JUMPI PUSH1 0x0 DUP1 REVERT JUMPDEST POP PUSH2 0x5D3 PUSH2 0xE8D CALLDATASIZE PUSH1 0x4 PUSH2 0x5181 JUMP JUMPDEST PUSH2 0x1BDC JUMP JUMPDEST CALLVALUE DUP1 ISZERO PUSH2 0xE9E JUMPI PUSH1 0x0 DUP1 REVERT JUMPDEST POP PUSH2 0x5D3 PUSH2 0xEAD CALLDATASIZE PUSH1 0x4 PUSH2 0x5181 JUMP JUMPDEST PUSH2 0x1BEA JUMP JUMPDEST CALLVALUE DUP1 ISZERO PUSH2 0xEBE JUMPI PUSH1 0x0 DUP1 REVERT JUMPDEST POP PUSH2 0x62D PUSH2 0x1BF8 JUMP JUMPDEST CALLVALUE DUP1 ISZERO PUSH2 0xED3 JUMPI PUSH1 0x0 DUP1 REVERT JUMPDEST POP PUSH2 0x5D3 PUSH2 0xEE2 CALLDATASIZE PUSH1 0x4 PUSH2 0x5181 JUMP JUMPDEST PUSH2 0x1C13 JUMP JUMPDEST CALLVALUE DUP1 ISZERO PUSH2 0xEF3 JUMPI PUSH1 0x0 DUP1 REVERT JUMPDEST POP PUSH2 0x599 PUSH2 0xF02 CALLDATASIZE PUSH1 0x4 PUSH2 0x544E JUMP JUMPDEST PUSH2 0x1C21 JUMP JUMPDEST CALLVALUE DUP1 ISZERO PUSH2 0xF13 JUMPI PUSH1 0x0 DUP1 REVERT JUMPDEST POP PUSH2 0x5D3 PUSH2 0x1C33 JUMP JUMPDEST CALLVALUE DUP1 ISZERO PUSH2 0xF28 JUMPI PUSH1 0x0 DUP1 REVERT JUMPDEST POP PUSH2 0x5D3 PUSH2 0xF37 CALLDATASIZE PUSH1 0x4 PUSH2 0x5489 JUMP JUMPDEST PUSH2 0x1C6D JUMP JUMPDEST CALLVALUE DUP1 ISZERO PUSH2 0xF48 JUMPI PUSH1 0x0 DUP1 REVERT JUMPDEST POP PUSH2 0x62D PUSH2 0xF57 CALLDATASIZE PUSH1 0x4 PUSH2 0x5181 JUMP JUMPDEST PUSH2 0x1FFA JUMP JUMPDEST CALLVALUE DUP1 ISZERO PUSH2 0xF68 JUMPI PUSH1 0x0 DUP1 REVERT JUMPDEST POP PUSH2 0x62D PUSH2 0x200B JUMP JUMPDEST CALLVALUE DUP1 ISZERO PUSH2 0xF7D JUMPI PUSH1 0x0 DUP1 REVERT JUMPDEST POP PUSH2 0x5D3 PUSH2 0x2028 JUMP JUMPDEST CALLVALUE DUP1 ISZERO PUSH2 0xF92 JUMPI PUSH1 0x0 DUP1 REVERT JUMPDEST POP PUSH2 0x62D PUSH2 0xFA1 CALLDATASIZE PUSH1 0x4 PUSH2 0x52F8 JUMP JUMPDEST PUSH2 0x2066 JUMP JUMPDEST CALLVALUE DUP1 ISZERO PUSH2 0xFB2 JUMPI PUSH1 0x0 DUP1 REVERT JUMPDEST POP PUSH2 0x5D3 PUSH2 0xFC1 CALLDATASIZE PUSH1 0x4 PUSH2 0x51BC JUMP JUMPDEST PUSH2 0x2074 JUMP JUMPDEST CALLVALUE DUP1 ISZERO PUSH2 0xFD2 JUMPI PUSH1 0x0 DUP1 REVERT JUMPDEST POP PUSH2 0x599 PUSH2 0xFE1 CALLDATASIZE PUSH1 0x4 PUSH2 0x5181 JUMP JUMPDEST PUSH2 0x209E JUMP JUMPDEST CALLVALUE DUP1 ISZERO PUSH2 0xFF2 JUMPI PUSH1 0x0 DUP1 REVERT JUMPDEST POP PUSH2 0x148 SLOAD PUSH2 0x7F1 SWAP1 PUSH1 0xFF AND DUP2 JUMP JUMPDEST CALLVALUE DUP1 ISZERO PUSH2 0x100D JUMPI PUSH1 0x0 DUP1 REVERT JUMPDEST POP PUSH2 0x62D PUSH2 0x20CD JUMP JUMPDEST PUSH2 0x599 PUSH2 0x1024 CALLDATASIZE PUSH1 0x4 PUSH2 0x520B JUMP JUMPDEST PUSH2 0x20F3 JUMP JUMPDEST CALLVALUE DUP1 ISZERO PUSH2 0x1035 JUMPI PUSH1 0x0 DUP1 REVERT JUMPDEST POP PUSH2 0x5D3 PUSH2 0x1044 CALLDATASIZE PUSH1 0x4 PUSH2 0x5489 JUMP JUMPDEST PUSH2 0x210F JUMP JUMPDEST CALLVALUE DUP1 ISZERO PUSH2 0x1055 JUMPI PUSH1 0x0 DUP1 REVERT JUMPDEST POP PUSH2 0x5D3 PUSH2 0x1064 CALLDATASIZE PUSH1 0x4 PUSH2 0x5181 JUMP JUMPDEST PUSH2 0x2399 JUMP JUMPDEST CALLVALUE DUP1 ISZERO PUSH2 0x1075 JUMPI PUSH1 0x0 DUP1 REVERT JUMPDEST POP PUSH2 0x62D PUSH2 0x12F SLOAD DUP2 JUMP JUMPDEST CALLVALUE DUP1 ISZERO PUSH2 0x108C JUMPI PUSH1 0x0 DUP1 REVERT JUMPDEST POP PUSH2 0x62D PUSH2 0x13F SLOAD DUP2 JUMP JUMPDEST CALLVALUE DUP1 ISZERO PUSH2 0x10A3 JUMPI PUSH1 0x0 DUP1 REVERT JUMPDEST POP PUSH2 0x62D PUSH2 0x138 SLOAD DUP2 JUMP JUMPDEST CALLVALUE DUP1 ISZERO PUSH2 0x10BA JUMPI PUSH1 0x0 DUP1 REVERT JUMPDEST POP PUSH2 0x62D PUSH2 0x10C9 CALLDATASIZE PUSH1 0x4 PUSH2 0x5181 JUMP JUMPDEST PUSH2 0x23A7 JUMP JUMPDEST CALLVALUE DUP1 ISZERO PUSH2 0x10DA JUMPI PUSH1 0x0 DUP1 REVERT JUMPDEST POP PUSH2 0x62D PUSH2 0x13A SLOAD DUP2 JUMP JUMPDEST PUSH1 0x0 DUP1 PUSH2 0x10F6 DUP8 DUP8 DUP8 DUP8 CALLER DUP9 PUSH2 0x2407 JUMP JUMPDEST SWAP2 POP SWAP2 POP SWAP6 POP SWAP6 SWAP4 POP POP POP POP JUMP JUMPDEST PUSH2 0x110C PUSH2 0x262E JUMP JUMPDEST PUSH2 0x138 SSTORE JUMP JUMPDEST PUSH2 0x133 DUP2 DUP2 SLOAD DUP2 LT PUSH2 0x1123 JUMPI PUSH1 0x0 DUP1 REVERT JUMPDEST PUSH1 0x0 SWAP2 DUP3 MSTORE PUSH1 0x20 SWAP1 SWAP2 KECCAK256 ADD SLOAD PUSH1 0x1 PUSH1 0x1 PUSH1 0xA0 SHL SUB AND SWAP1 POP DUP2 JUMP JUMPDEST PUSH1 0x0 PUSH2 0x114B DUP4 DUP4 CALLER CALLER PUSH2 0x26B7 JUMP JUMPDEST SWAP1 POP JUMPDEST SWAP3 SWAP2 POP POP JUMP JUMPDEST PUSH2 0x115C PUSH2 0x262E JUMP JUMPDEST PUSH2 0x143 DUP1 SLOAD PUSH1 0x1 PUSH1 0x1 PUSH1 0xA0 SHL SUB NOT AND PUSH1 0x1 PUSH1 0x1 PUSH1 0xA0 SHL SUB SWAP3 SWAP1 SWAP3 AND SWAP2 SWAP1 SWAP2 OR SWAP1 SSTORE JUMP JUMPDEST PUSH2 0x1187 PUSH2 0x262E JUMP JUMPDEST PUSH2 0x13D SSTORE JUMP JUMPDEST PUSH1 0x0 DUP1 PUSH2 0x119E DUP7 DUP7 DUP7 DUP7 CALLER CALLER PUSH2 0x27D7 JUMP JUMPDEST SWAP2 POP SWAP2 POP SWAP5 POP SWAP5 SWAP3 POP POP POP JUMP JUMPDEST PUSH1 0x0 DUP1 PUSH2 0x119E DUP7 DUP7 DUP7 DUP7 CALLER CALLER PUSH2 0x295A JUMP JUMPDEST PUSH1 0x0 PUSH2 0x11CB DUP5 DUP5 DUP5 CALLER CALLER PUSH2 0x2AF5 JUMP JUMPDEST SWAP1 POP JUMPDEST SWAP4 SWAP3 POP POP POP JUMP JUMPDEST PUSH1 0x0 PUSH2 0x11CB DUP5 DUP5 DUP5 CALLER CALLER PUSH2 0x2C2B JUMP JUMPDEST PUSH1 0x0 DUP1 PUSH2 0x119E DUP7 DUP7 DUP7 CALLER DUP8 PUSH2 0x2D87 JUMP JUMPDEST PUSH1 0x0 DUP1 PUSH2 0x1206 DUP9 DUP9 DUP9 DUP9 DUP9 CALLER DUP10 PUSH2 0x2EE9 JUMP JUMPDEST SWAP2 POP SWAP2 POP SWAP7 POP SWAP7 SWAP5 POP POP POP POP POP JUMP JUMPDEST PUSH1 0x0 DUP1 PUSH1 0x0 PUSH2 0x1222 PUSH2 0x30D2 JUMP JUMPDEST SWAP2 POP SWAP2 POP PUSH2 0x1230 DUP3 DUP3 PUSH2 0x30F3 JUMP JUMPDEST SWAP3 POP POP POP SWAP1 JUMP JUMPDEST PUSH2 0x123F PUSH2 0x262E JUMP JUMPDEST PUSH2 0x148 DUP1 SLOAD PUSH1 0xFF NOT AND SWAP2 ISZERO ISZERO SWAP2 SWAP1 SWAP2 OR SWAP1 SSTORE JUMP JUMPDEST PUSH2 0x125B PUSH2 0x262E JUMP JUMPDEST PUSH2 0x140 SSTORE JUMP JUMPDEST PUSH2 0x1269 PUSH2 0x262E JUMP JUMPDEST PUSH2 0x144 DUP1 SLOAD PUSH1 0x1 PUSH1 0x1 PUSH1 0xA0 SHL SUB NOT AND PUSH1 0x1 PUSH1 0x1 PUSH1 0xA0 SHL SUB SWAP3 SWAP1 SWAP3 AND SWAP2 SWAP1 SWAP2 OR SWAP1 SSTORE JUMP JUMPDEST PUSH2 0x1294 PUSH2 0x262E JUMP JUMPDEST PUSH2 0x147 SSTORE JUMP JUMPDEST PUSH2 0x12A2 PUSH2 0x262E JUMP JUMPDEST PUSH1 0xCA DUP1 SLOAD PUSH1 0x1 PUSH1 0x1 PUSH1 0xA0 SHL SUB SWAP1 SWAP3 AND PUSH3 0x10000 MUL PUSH3 0x10000 PUSH1 0x1 PUSH1 0xB0 SHL SUB NOT SWAP1 SWAP3 AND SWAP2 SWAP1 SWAP2 OR SWAP1 SSTORE JUMP JUMPDEST PUSH2 0x12D4 PUSH2 0x312F JUMP JUMPDEST PUSH2 0x148 SLOAD PUSH1 0xFF AND DUP1 ISZERO PUSH2 0x12F0 JUMPI POP PUSH2 0x148 SLOAD PUSH2 0x100 SWAP1 DIV PUSH1 0xFF AND ISZERO JUMPDEST DUP1 ISZERO PUSH2 0x12FF JUMPI POP PUSH2 0x12FF PUSH2 0x1A4A JUMP JUMPDEST ISZERO PUSH2 0x13AE JUMPI PUSH2 0x148 DUP1 SLOAD PUSH2 0xFF00 NOT AND PUSH2 0x100 OR SWAP1 SSTORE PUSH1 0x40 MLOAD PUSH32 0x8B77276C97A5709F0D6DB52329848A254EB760CE8BE80D281799F633BDB69E83 SWAP1 PUSH1 0x0 SWAP1 LOG1 PUSH2 0x131 PUSH1 0x0 SWAP1 SLOAD SWAP1 PUSH2 0x100 EXP SWAP1 DIV PUSH1 0x1 PUSH1 0x1 PUSH1 0xA0 SHL SUB AND PUSH1 0x1 PUSH1 0x1 PUSH1 0xA0 SHL SUB AND PUSH4 0x8456CB59 PUSH1 0x40 MLOAD DUP2 PUSH4 0xFFFFFFFF AND PUSH1 0xE0 SHL DUP2 MSTORE PUSH1 0x4 ADD PUSH1 0x0 PUSH1 0x40 MLOAD DUP1 DUP4 SUB DUP2 PUSH1 0x0 DUP8 DUP1 EXTCODESIZE ISZERO DUP1 ISZERO PUSH2 0x138E JUMPI PUSH1 0x0 DUP1 REVERT JUMPDEST POP GAS CALL ISZERO DUP1 ISZERO PUSH2 0x13A2 JUMPI RETURNDATASIZE PUSH1 0x0 DUP1 RETURNDATACOPY RETURNDATASIZE PUSH1 0x0 REVERT JUMPDEST POP POP POP POP PUSH2 0x13AE PUSH2 0x3158 JUMP JUMPDEST JUMP JUMPDEST PUSH1 0x1 PUSH1 0x1 PUSH1 0xA0 SHL SUB PUSH32 0x0 AND ADDRESS SUB PUSH2 0x1401 JUMPI PUSH1 0x40 MLOAD PUSH3 0x461BCD PUSH1 0xE5 SHL DUP2 MSTORE PUSH1 0x4 ADD PUSH2 0x13F8 SWAP1 PUSH2 0x549B JUMP JUMPDEST PUSH1 0x40 MLOAD DUP1 SWAP2 SUB SWAP1 REVERT JUMPDEST PUSH32 0x0 PUSH1 0x1 PUSH1 0x1 PUSH1 0xA0 SHL SUB AND PUSH2 0x144A PUSH1 0x0 DUP1 MLOAD PUSH1 0x20 PUSH2 0x57EA DUP4 CODECOPY DUP2 MLOAD SWAP2 MSTORE SLOAD PUSH1 0x1 PUSH1 0x1 PUSH1 0xA0 SHL SUB AND SWAP1 JUMP JUMPDEST PUSH1 0x1 PUSH1 0x1 PUSH1 0xA0 SHL SUB AND EQ PUSH2 0x1470 JUMPI PUSH1 0x40 MLOAD PUSH3 0x461BCD PUSH1 0xE5 SHL DUP2 MSTORE PUSH1 0x4 ADD PUSH2 0x13F8 SWAP1 PUSH2 0x54E7 JUMP JUMPDEST PUSH2 0x1479 DUP2 PUSH2 0x32A3 JUMP JUMPDEST PUSH1 0x40 DUP1 MLOAD PUSH1 0x0 DUP1 DUP3 MSTORE PUSH1 0x20 DUP3 ADD SWAP1 SWAP3 MSTORE PUSH2 0x1495 SWAP2 DUP4 SWAP2 SWAP1 PUSH2 0x32AB JUMP JUMPDEST POP JUMP JUMPDEST PUSH2 0x14A0 PUSH2 0x262E JUMP JUMPDEST PUSH2 0x17F SSTORE JUMP JUMPDEST PUSH1 0xCA SLOAD PUSH2 0x100 SWAP1 DIV PUSH1 0xFF AND PUSH2 0x14CE JUMPI PUSH1 0x40 MLOAD PUSH4 0x7C7FD079 PUSH1 0xE0 SHL DUP2 MSTORE PUSH1 0x4 ADD PUSH1 0x40 MLOAD DUP1 SWAP2 SUB SWAP1 REVERT JUMPDEST PUSH1 0xCA SLOAD PUSH3 0x10000 SWAP1 DIV PUSH1 0x1 PUSH1 0x1 PUSH1 0xA0 SHL SUB AND CALLER EQ PUSH2 0x14FF JUMPI PUSH1 0x40 MLOAD PUSH4 0x1D77D477 PUSH1 0xE2 SHL DUP2 MSTORE PUSH1 0x4 ADD PUSH1 0x40 MLOAD DUP1 SWAP2 SUB SWAP1 REVERT JUMPDEST PUSH1 0xCA DUP1 SLOAD PUSH2 0xFF00 NOT AND SWAP1 SSTORE PUSH1 0x40 MLOAD CALLER DUP2 MSTORE PUSH32 0x5DB9EE0A495BF2E6FF9C91A7834C1BA4FDD244A5E8AA4E537BD38AEAE4B073AA SWAP1 PUSH1 0x20 ADD JUMPDEST PUSH1 0x40 MLOAD DUP1 SWAP2 SUB SWAP1 LOG1 JUMP JUMPDEST PUSH1 0x0 DUP1 PUSH1 0x0 PUSH2 0x154D PUSH2 0x341B JUMP JUMPDEST SWAP2 POP SWAP2 POP PUSH1 0x0 DUP1 PUSH2 0x155D DUP4 PUSH2 0x3572 JUMP JUMPDEST SWAP2 POP SWAP2 POP PUSH2 0x156C DUP5 DUP4 DUP4 PUSH2 0x362A JUMP JUMPDEST SWAP5 POP POP POP POP POP SWAP1 JUMP JUMPDEST PUSH1 0x0 PUSH2 0x11CB DUP5 DUP5 CALLER DUP6 PUSH2 0x26B7 JUMP JUMPDEST PUSH1 0x0 DUP1 PUSH2 0x10F6 DUP8 DUP8 DUP8 DUP8 CALLER DUP9 PUSH2 0x27D7 JUMP JUMPDEST PUSH2 0x135 DUP2 DUP2 SLOAD DUP2 LT PUSH2 0x15A5 JUMPI PUSH1 0x0 DUP1 REVERT JUMPDEST PUSH1 0x0 SWAP2 DUP3 MSTORE PUSH1 0x20 SWAP1 SWAP2 KECCAK256 PUSH1 0x2 SWAP1 SWAP2 MUL ADD DUP1 SLOAD PUSH1 0x1 SWAP1 SWAP2 ADD SLOAD SWAP1 SWAP2 POP PUSH1 0x1 PUSH1 0x1 PUSH1 0xA0 SHL SUB AND DUP3 JUMP JUMPDEST PUSH1 0x0 PUSH2 0x15DB DUP6 DUP6 DUP6 CALLER DUP7 PUSH2 0x2C2B JUMP JUMPDEST SWAP1 POP JUMPDEST SWAP5 SWAP4 POP POP POP POP JUMP JUMPDEST PUSH1 0x1 PUSH1 0x1 PUSH1 0xA0 SHL SUB PUSH32 0x0 AND ADDRESS SUB PUSH2 0x162E JUMPI PUSH1 0x40 MLOAD PUSH3 0x461BCD PUSH1 0xE5 SHL DUP2 MSTORE PUSH1 0x4 ADD PUSH2 0x13F8 SWAP1 PUSH2 0x549B JUMP JUMPDEST PUSH32 0x0 PUSH1 0x1 PUSH1 0x1 PUSH1 0xA0 SHL SUB AND PUSH2 0x1677 PUSH1 0x0 DUP1 MLOAD PUSH1 0x20 PUSH2 0x57EA DUP4 CODECOPY DUP2 MLOAD SWAP2 MSTORE SLOAD PUSH1 0x1 PUSH1 0x1 PUSH1 0xA0 SHL SUB AND SWAP1 JUMP JUMPDEST PUSH1 0x1 PUSH1 0x1 PUSH1 0xA0 SHL SUB AND EQ PUSH2 0x169D JUMPI PUSH1 0x40 MLOAD PUSH3 0x461BCD PUSH1 0xE5 SHL DUP2 MSTORE PUSH1 0x4 ADD PUSH2 0x13F8 SWAP1 PUSH2 0x54E7 JUMP JUMPDEST PUSH2 0x16A6 DUP3 PUSH2 0x32A3 JUMP JUMPDEST PUSH2 0x16B2 DUP3 DUP3 PUSH1 0x1 PUSH2 0x32AB JUMP JUMPDEST POP POP JUMP JUMPDEST PUSH2 0x16BE PUSH2 0x262E JUMP JUMPDEST PUSH1 0xCA DUP1 SLOAD PUSH1 0xFF NOT AND SWAP1 SSTORE JUMP JUMPDEST PUSH2 0x142 DUP2 DUP2 SLOAD DUP2 LT PUSH2 0x16DB JUMPI PUSH1 0x0 DUP1 REVERT JUMPDEST PUSH1 0x0 SWAP2 DUP3 MSTORE PUSH1 0x20 SWAP1 SWAP2 KECCAK256 ADD SLOAD SWAP1 POP DUP2 JUMP JUMPDEST PUSH1 0x0 ADDRESS PUSH1 0x1 PUSH1 0x1 PUSH1 0xA0 SHL SUB PUSH32 0x0 AND EQ PUSH2 0x178C JUMPI PUSH1 0x40 MLOAD PUSH3 0x461BCD PUSH1 0xE5 SHL DUP2 MSTORE PUSH1 0x20 PUSH1 0x4 DUP3 ADD MSTORE PUSH1 0x38 PUSH1 0x24 DUP3 ADD MSTORE PUSH32 0x555550535570677261646561626C653A206D757374206E6F742062652063616C PUSH1 0x44 DUP3 ADD MSTORE PUSH32 0x6C6564207468726F7567682064656C656761746563616C6C0000000000000000 PUSH1 0x64 DUP3 ADD MSTORE PUSH1 0x84 ADD PUSH2 0x13F8 JUMP JUMPDEST POP PUSH1 0x0 DUP1 MLOAD PUSH1 0x20 PUSH2 0x57EA DUP4 CODECOPY DUP2 MLOAD SWAP2 MSTORE SWAP1 JUMP JUMPDEST PUSH1 0x0 PUSH2 0x15DB DUP6 DUP6 DUP6 CALLER DUP7 PUSH2 0x2AF5 JUMP JUMPDEST PUSH2 0x17B6 PUSH2 0x312F JUMP JUMPDEST PUSH2 0x1B3 SLOAD NUMBER LT PUSH2 0x13AE JUMPI PUSH2 0x1B2 SLOAD PUSH2 0x17CE SWAP1 NUMBER PUSH2 0x5549 JUMP JUMPDEST PUSH2 0x1B3 SSTORE PUSH1 0x40 MLOAD PUSH32 0xD3C59BDA47E141A8EC5A33D241B7F71B86E30D359F83A9227D912858B60404FC SWAP1 PUSH1 0x0 SWAP1 LOG1 PUSH2 0x13AE PUSH2 0x3657 JUMP JUMPDEST PUSH1 0x0 PUSH2 0x114B DUP4 CALLER DUP5 PUSH2 0x365F JUMP JUMPDEST PUSH1 0x0 PUSH2 0x181A PUSH2 0x341B JUMP JUMPDEST POP SWAP2 SWAP1 POP JUMP JUMPDEST PUSH2 0x1828 PUSH2 0x262E JUMP JUMPDEST PUSH1 0xCA DUP1 SLOAD PUSH1 0xFF NOT AND PUSH1 0x1 OR SWAP1 SSTORE JUMP JUMPDEST PUSH2 0x183F PUSH2 0x262E JUMP JUMPDEST PUSH2 0x13C SSTORE JUMP JUMPDEST PUSH2 0x184D PUSH2 0x262E JUMP JUMPDEST PUSH2 0x139 SSTORE JUMP JUMPDEST PUSH1 0x0 DUP1 PUSH2 0x1869 DUP5 DUP5 PUSH2 0x1864 DUP8 PUSH2 0x1965 JUMP JUMPDEST PUSH2 0x388F JUMP JUMPDEST SWAP2 POP SWAP2 POP SWAP3 POP SWAP3 SWAP1 POP JUMP JUMPDEST PUSH2 0x187C PUSH2 0x262E JUMP JUMPDEST PUSH2 0x13F SSTORE JUMP JUMPDEST PUSH2 0x188A PUSH2 0x262E JUMP JUMPDEST PUSH2 0x13E SSTORE JUMP JUMPDEST PUSH2 0x1898 PUSH2 0x262E JUMP JUMPDEST PUSH2 0x146 SSTORE JUMP JUMPDEST PUSH2 0x145 DUP2 DUP2 SLOAD DUP2 LT PUSH2 0x16DB JUMPI PUSH1 0x0 DUP1 REVERT JUMPDEST PUSH1 0x0 DUP1 PUSH1 0x0 PUSH2 0x18BC PUSH2 0x30D2 JUMP JUMPDEST SWAP2 POP SWAP2 POP PUSH2 0x1230 DUP3 DUP3 PUSH2 0x38F1 JUMP JUMPDEST PUSH2 0x18D2 PUSH2 0x312F JUMP JUMPDEST PUSH1 0xCA SLOAD PUSH3 0x10000 SWAP1 DIV PUSH1 0x1 PUSH1 0x1 PUSH1 0xA0 SHL SUB AND CALLER EQ PUSH2 0x1903 JUMPI PUSH1 0x40 MLOAD PUSH4 0x1D77D477 PUSH1 0xE2 SHL DUP2 MSTORE PUSH1 0x4 ADD PUSH1 0x40 MLOAD DUP1 SWAP2 SUB SWAP1 REVERT JUMPDEST PUSH1 0xCA SLOAD PUSH1 0xFF AND PUSH2 0x1926 JUMPI PUSH1 0x40 MLOAD PUSH4 0x866099C3 PUSH1 0xE0 SHL DUP2 MSTORE PUSH1 0x4 ADD PUSH1 0x40 MLOAD DUP1 SWAP2 SUB SWAP1 REVERT JUMPDEST PUSH1 0xCA DUP1 SLOAD PUSH2 0xFF00 NOT AND PUSH2 0x100 OR SWAP1 SSTORE PUSH1 0x40 MLOAD CALLER DUP2 MSTORE PUSH32 0x62E78CEA01BEE320CD4E420270B5EA74000D11B0C9F74754EBDBFC544B05A258 SWAP1 PUSH1 0x20 ADD PUSH2 0x1536 JUMP JUMPDEST PUSH1 0x0 DUP1 PUSH2 0x135 DUP4 DUP2 SLOAD DUP2 LT PUSH2 0x197C JUMPI PUSH2 0x197C PUSH2 0x555C JUMP JUMPDEST PUSH1 0x0 SWAP2 DUP3 MSTORE PUSH1 0x20 DUP3 KECCAK256 PUSH1 0x1 PUSH1 0x2 SWAP1 SWAP3 MUL ADD ADD SLOAD PUSH1 0x40 DUP1 MLOAD PUSH4 0x59E02DD7 PUSH1 0xE0 SHL DUP2 MSTORE DUP2 MLOAD PUSH1 0x1 PUSH1 0x1 PUSH1 0xA0 SHL SUB SWAP1 SWAP4 AND SWAP5 POP DUP4 SWAP3 DUP6 SWAP3 PUSH4 0x59E02DD7 SWAP3 PUSH1 0x4 DUP1 DUP3 ADD SWAP4 SWAP2 DUP3 SWAP1 SUB ADD DUP2 DUP7 GAS STATICCALL ISZERO DUP1 ISZERO PUSH2 0x19D6 JUMPI RETURNDATASIZE PUSH1 0x0 DUP1 RETURNDATACOPY RETURNDATASIZE PUSH1 0x0 REVERT JUMPDEST POP POP POP POP PUSH1 0x40 MLOAD RETURNDATASIZE PUSH1 0x1F NOT PUSH1 0x1F DUP3 ADD AND DUP3 ADD DUP1 PUSH1 0x40 MSTORE POP DUP2 ADD SWAP1 PUSH2 0x19FA SWAP2 SWAP1 PUSH2 0x5572 JUMP JUMPDEST SWAP2 POP SWAP2 POP DUP1 PUSH2 0x1A27 JUMPI PUSH1 0x40 MLOAD PUSH4 0xDE4F3A0F PUSH1 0xE0 SHL DUP2 MSTORE PUSH1 0x1 PUSH1 0x1 PUSH1 0xA0 SHL SUB DUP5 AND PUSH1 0x4 DUP3 ADD MSTORE PUSH1 0x24 ADD PUSH2 0x13F8 JUMP JUMPDEST POP SWAP4 SWAP3 POP POP POP JUMP JUMPDEST PUSH1 0x0 PUSH2 0x114E DUP3 CALLER CALLER PUSH2 0x365F JUMP JUMPDEST PUSH1 0x0 PUSH2 0x114B DUP4 DUP4 CALLER CALLER PUSH2 0x3910 JUMP JUMPDEST PUSH1 0x0 DUP1 PUSH1 0x0 PUSH2 0x1A57 PUSH2 0x30D2 JUMP JUMPDEST SWAP2 POP SWAP2 POP PUSH1 0x0 PUSH2 0x1A67 DUP4 DUP4 PUSH2 0x38F1 JUMP JUMPDEST PUSH2 0x147 SLOAD LT ISZERO SWAP5 SWAP4 POP POP POP POP JUMP JUMPDEST PUSH1 0x0 DUP1 PUSH2 0x10F6 DUP8 DUP8 DUP8 DUP8 CALLER DUP9 PUSH2 0x295A JUMP JUMPDEST PUSH1 0x0 DUP1 PUSH2 0x119E DUP7 DUP7 DUP7 DUP7 CALLER CALLER PUSH2 0x2407 JUMP JUMPDEST PUSH1 0x0 SLOAD PUSH2 0x100 SWAP1 DIV PUSH1 0xFF AND ISZERO DUP1 DUP1 ISZERO PUSH2 0x1AB7 JUMPI POP PUSH1 0x0 SLOAD PUSH1 0x1 PUSH1 0xFF SWAP1 SWAP2 AND LT JUMPDEST DUP1 PUSH2 0x1AD1 JUMPI POP ADDRESS EXTCODESIZE ISZERO DUP1 ISZERO PUSH2 0x1AD1 JUMPI POP PUSH1 0x0 SLOAD PUSH1 0xFF AND PUSH1 0x1 EQ JUMPDEST PUSH2 0x1B34 JUMPI PUSH1 0x40 MLOAD PUSH3 0x461BCD PUSH1 0xE5 SHL DUP2 MSTORE PUSH1 0x20 PUSH1 0x4 DUP3 ADD MSTORE PUSH1 0x2E PUSH1 0x24 DUP3 ADD MSTORE PUSH32 0x496E697469616C697A61626C653A20636F6E747261637420697320616C726561 PUSH1 0x44 DUP3 ADD MSTORE PUSH14 0x191E481A5B9A5D1A585B1A5E9959 PUSH1 0x92 SHL PUSH1 0x64 DUP3 ADD MSTORE PUSH1 0x84 ADD PUSH2 0x13F8 JUMP JUMPDEST PUSH1 0x0 DUP1 SLOAD PUSH1 0xFF NOT AND PUSH1 0x1 OR SWAP1 SSTORE DUP1 ISZERO PUSH2 0x1B57 JUMPI PUSH1 0x0 DUP1 SLOAD PUSH2 0xFF00 NOT AND PUSH2 0x100 OR SWAP1 SSTORE JUMPDEST PUSH2 0x1B69 PUSH2 0x280 DUP4 ADD PUSH2 0x260 DUP5 ADD PUSH2 0x51BC JUMP JUMPDEST PUSH2 0x24A DUP1 SLOAD PUSH1 0x1 PUSH1 0x1 PUSH1 0xA0 SHL SUB NOT AND PUSH1 0x1 PUSH1 0x1 PUSH1 0xA0 SHL SUB SWAP3 SWAP1 SWAP3 AND SWAP2 SWAP1 SWAP2 OR SWAP1 SSTORE PUSH2 0x1B93 DUP3 PUSH2 0x3A1F JUMP JUMPDEST DUP1 ISZERO PUSH2 0x16B2 JUMPI PUSH1 0x0 DUP1 SLOAD PUSH2 0xFF00 NOT AND SWAP1 SSTORE PUSH1 0x40 MLOAD PUSH1 0x1 DUP2 MSTORE PUSH32 0x7F26B83FF96E1F2B6A682F133852F6798A09C465DA95921460CEFB3847402498 SWAP1 PUSH1 0x20 ADD PUSH1 0x40 MLOAD DUP1 SWAP2 SUB SWAP1 LOG1 POP POP JUMP JUMPDEST PUSH2 0x1BE4 PUSH2 0x262E JUMP JUMPDEST PUSH2 0x137 SSTORE JUMP JUMPDEST PUSH2 0x1BF2 PUSH2 0x262E JUMP JUMPDEST PUSH2 0x13B SSTORE JUMP JUMPDEST PUSH1 0x0 DUP1 PUSH1 0x0 PUSH2 0x1C05 PUSH2 0x30D2 JUMP JUMPDEST SWAP2 POP SWAP2 POP PUSH2 0x1230 DUP3 DUP3 PUSH2 0x3A97 JUMP JUMPDEST PUSH2 0x1C1B PUSH2 0x262E JUMP JUMPDEST PUSH2 0x1B2 SSTORE JUMP JUMPDEST PUSH1 0x0 DUP1 PUSH2 0x10F6 DUP8 DUP8 DUP8 DUP8 DUP8 CALLER CALLER PUSH2 0x2EE9 JUMP JUMPDEST PUSH2 0x17E SLOAD NUMBER LT PUSH2 0x13AE JUMPI PUSH2 0x135 SLOAD PUSH1 0x0 JUMPDEST DUP2 DUP2 LT ISZERO PUSH2 0x1C5D JUMPI PUSH2 0x1C55 DUP2 PUSH2 0x3AB3 JUMP JUMPDEST PUSH1 0x1 ADD PUSH2 0x1C44 JUMP JUMPDEST POP PUSH2 0x1495 PUSH2 0x17F SLOAD NUMBER ADD PUSH2 0x17E SSTORE JUMP JUMPDEST PUSH2 0x1C75 PUSH2 0x262E JUMP JUMPDEST PUSH1 0x0 PUSH2 0x1C84 PUSH1 0x20 DUP4 ADD DUP4 PUSH2 0x51BC JUMP JUMPDEST PUSH1 0x40 MLOAD PUSH4 0xD55FD845 PUSH1 0xE0 SHL DUP2 MSTORE ADDRESS PUSH1 0x4 DUP3 ADD MSTORE SWAP1 SWAP2 POP PUSH1 0x1 PUSH1 0x1 PUSH1 0xA0 SHL SUB DUP3 AND SWAP1 PUSH4 0xD55FD845 SWAP1 PUSH1 0x24 ADD PUSH1 0x20 PUSH1 0x40 MLOAD DUP1 DUP4 SUB DUP2 DUP7 GAS STATICCALL ISZERO DUP1 ISZERO PUSH2 0x1CCB JUMPI RETURNDATASIZE PUSH1 0x0 DUP1 RETURNDATACOPY RETURNDATASIZE PUSH1 0x0 REVERT JUMPDEST POP POP POP POP PUSH1 0x40 MLOAD RETURNDATASIZE PUSH1 0x1F NOT PUSH1 0x1F DUP3 ADD AND DUP3 ADD DUP1 PUSH1 0x40 MSTORE POP DUP2 ADD SWAP1 PUSH2 0x1CEF SWAP2 SWAP1 PUSH2 0x5597 JUMP JUMPDEST PUSH2 0x1D0C JUMPI PUSH1 0x40 MLOAD PUSH4 0xE6C4247B PUSH1 0xE0 SHL DUP2 MSTORE PUSH1 0x4 ADD PUSH1 0x40 MLOAD DUP1 SWAP2 SUB SWAP1 REVERT JUMPDEST PUSH1 0x0 PUSH2 0x1D1E PUSH1 0x40 DUP5 ADD PUSH1 0x20 DUP6 ADD PUSH2 0x51BC JUMP JUMPDEST PUSH1 0x1 PUSH1 0x1 PUSH1 0xA0 SHL SUB DUP4 AND PUSH1 0x0 SWAP1 DUP2 MSTORE PUSH2 0x134 PUSH1 0x20 MSTORE PUSH1 0x40 SWAP1 KECCAK256 PUSH1 0x1 ADD SLOAD SWAP1 SWAP2 POP PUSH1 0xFF AND ISZERO PUSH2 0x1D5F JUMPI PUSH1 0x40 MLOAD PUSH4 0x3458F6C5 PUSH1 0xE0 SHL DUP2 MSTORE PUSH1 0x4 ADD PUSH1 0x40 MLOAD DUP1 SWAP2 SUB SWAP1 REVERT JUMPDEST PUSH2 0x133 DUP1 SLOAD PUSH1 0x40 DUP1 MLOAD DUP1 DUP3 ADD DUP3 MSTORE DUP3 DUP2 MSTORE PUSH1 0x1 PUSH1 0x20 DUP1 DUP4 ADD DUP3 DUP2 MSTORE PUSH1 0x1 PUSH1 0x1 PUSH1 0xA0 SHL SUB DUP1 DUP11 AND PUSH1 0x0 DUP2 DUP2 MSTORE PUSH2 0x134 DUP6 MSTORE DUP8 DUP2 KECCAK256 SWAP7 MLOAD DUP8 SSTORE SWAP3 MLOAD SWAP6 DUP6 ADD DUP1 SLOAD SWAP7 ISZERO ISZERO PUSH1 0xFF NOT SWAP1 SWAP8 AND SWAP7 SWAP1 SWAP7 OR SWAP1 SWAP6 SSTORE DUP8 SLOAD DUP1 DUP6 ADD SWAP1 SWAP9 SSTORE PUSH32 0x92E985329FB94CC1B424EBB0F7F2929B6D27383CA94C0EC71C44FB48BDF96D2C SWAP1 SWAP8 ADD DUP1 SLOAD PUSH1 0x1 PUSH1 0x1 PUSH1 0xA0 SHL SUB NOT SWAP1 DUP2 AND SWAP1 SWAP6 OR SWAP1 SSTORE DUP5 MLOAD DUP1 DUP7 ADD DUP7 MSTORE DUP2 DUP2 MSTORE DUP9 DUP9 AND DUP2 DUP5 ADD SWAP1 DUP2 MSTORE PUSH2 0x135 DUP1 SLOAD DUP1 DUP8 ADD DUP3 SSTORE SWAP1 DUP5 MSTORE SWAP2 MLOAD PUSH1 0x2 SWAP3 DUP4 MUL PUSH32 0xDF37D27E88E3BD0B85262482997E409A463F5BE0EBB19232ABF994DD8474090D DUP2 ADD SWAP2 SWAP1 SWAP2 SSTORE SWAP1 MLOAD PUSH32 0xDF37D27E88E3BD0B85262482997E409A463F5BE0EBB19232ABF994DD8474090E SWAP1 SWAP2 ADD DUP1 SLOAD SWAP2 SWAP1 SWAP10 AND SWAP6 AND SWAP5 SWAP1 SWAP5 OR SWAP1 SWAP7 SSTORE PUSH2 0x145 DUP1 SLOAD DUP1 DUP5 ADD SWAP1 SWAP2 SSTORE DUP10 DUP6 ADD CALLDATALOAD PUSH32 0xED95984ADD84C4014C7F9D66A1B73E788E2DB64F5763FA861AD52DA204F71B2B SWAP1 SWAP2 ADD SSTORE PUSH2 0x141 DUP1 SLOAD DUP1 DUP5 ADD SWAP1 SWAP2 SSTORE PUSH1 0x60 DUP11 ADD CALLDATALOAD PUSH32 0xB3926254D0163C91FC94BF08F3F8062FF5D48635DFA7DBEF8168AD7D4847A758 SWAP1 SWAP2 ADD SSTORE PUSH2 0x142 DUP1 SLOAD DUP1 DUP5 ADD SWAP1 SWAP2 SSTORE PUSH1 0x80 DUP11 ADD CALLDATALOAD PUSH32 0x7917AD5F1BD6FA6D4F9128143F89BCBA30C5B503E76ECD2DD7562DDF9706AE19 SWAP1 SWAP2 ADD SSTORE DUP4 MLOAD DUP1 DUP6 ADD SWAP1 SWAP5 MSTORE PUSH1 0xA0 DUP10 ADD CALLDATALOAD DUP5 MSTORE PUSH1 0xC0 DUP10 ADD CALLDATALOAD SWAP1 DUP5 ADD SWAP1 DUP2 MSTORE PUSH2 0x17D DUP1 SLOAD DUP1 DUP5 ADD DUP3 SSTORE SWAP1 DUP8 MSTORE SWAP4 MLOAD SWAP4 SWAP1 SWAP3 MUL PUSH32 0xF2AEC2A8C6072690B3C86D5C08E34587F891268D22D8BDCA6E66838C0F2F22D DUP2 ADD SWAP4 SWAP1 SWAP4 SSTORE SWAP1 MLOAD PUSH32 0xF2AEC2A8C6072690B3C86D5C08E34587F891268D22D8BDCA6E66838C0F2F22E SWAP1 SWAP3 ADD SWAP2 SWAP1 SWAP2 SSTORE PUSH2 0x149 DUP1 SLOAD SWAP1 SWAP2 ADD DUP2 SSTORE SWAP1 SWAP2 MSTORE PUSH2 0x14A PUSH2 0x1FA4 DUP3 PUSH2 0x1965 JUMP JUMPDEST DUP2 SLOAD PUSH1 0x1 DUP2 ADD DUP4 SSTORE PUSH1 0x0 SWAP3 DUP4 MSTORE PUSH1 0x20 SWAP1 SWAP3 KECCAK256 SWAP1 SWAP2 ADD SSTORE PUSH1 0x40 MLOAD DUP2 SWAP1 PUSH32 0x6417E5A3C1E0E5DAE98B8FE718C4BABDFCB35E0D7B5E1B9641B5914756F5D8E3 SWAP1 PUSH2 0x1FEC SWAP1 DUP8 SWAP1 PUSH2 0x55B4 JUMP JUMPDEST PUSH1 0x40 MLOAD DUP1 SWAP2 SUB SWAP1 LOG2 POP POP POP POP JUMP JUMPDEST PUSH2 0x141 DUP2 DUP2 SLOAD DUP2 LT PUSH2 0x16DB JUMPI PUSH1 0x0 DUP1 REVERT JUMPDEST PUSH1 0x0 DUP1 PUSH2 0x2016 PUSH2 0x30D2 JUMP JUMPDEST SWAP2 POP POP PUSH2 0x2022 DUP2 PUSH2 0x3B6E JUMP JUMPDEST SWAP2 POP POP SWAP1 JUMP JUMPDEST PUSH1 0x0 PUSH2 0x12F SLOAD PUSH2 0x2037 ADDRESS PUSH2 0x3B7F JUMP JUMPDEST PUSH2 0x2041 SWAP2 SWAP1 PUSH2 0x5621 JUMP JUMPDEST GT ISZERO PUSH2 0x13AE JUMPI PUSH2 0x13AE PUSH2 0x12F SLOAD PUSH2 0x2057 ADDRESS PUSH2 0x3B7F JUMP JUMPDEST PUSH2 0x2061 SWAP2 SWAP1 PUSH2 0x5621 JUMP JUMPDEST PUSH2 0x3BEF JUMP JUMPDEST PUSH1 0x0 PUSH2 0x11CB DUP5 DUP5 CALLER DUP6 PUSH2 0x3910 JUMP JUMPDEST PUSH2 0x207C PUSH2 0x262E JUMP JUMPDEST PUSH1 0x97 DUP1 SLOAD PUSH1 0x1 PUSH1 0x1 PUSH1 0xA0 SHL SUB NOT AND PUSH1 0x1 PUSH1 0x1 PUSH1 0xA0 SHL SUB SWAP3 SWAP1 SWAP3 AND SWAP2 SWAP1 SWAP2 OR SWAP1 SSTORE JUMP JUMPDEST PUSH2 0x17D DUP2 DUP2 SLOAD DUP2 LT PUSH2 0x20AF JUMPI PUSH1 0x0 DUP1 REVERT JUMPDEST PUSH1 0x0 SWAP2 DUP3 MSTORE PUSH1 0x20 SWAP1 SWAP2 KECCAK256 PUSH1 0x2 SWAP1 SWAP2 MUL ADD DUP1 SLOAD PUSH1 0x1 SWAP1 SWAP2 ADD SLOAD SWAP1 SWAP2 POP DUP3 JUMP JUMPDEST PUSH1 0x0 PUSH2 0x1B3 SLOAD NUMBER LT PUSH2 0x20DF JUMPI POP PUSH1 0x0 SWAP1 JUMP JUMPDEST NUMBER PUSH2 0x1B3 SLOAD PUSH2 0x20EE SWAP2 SWAP1 PUSH2 0x5621 JUMP JUMPDEST SWAP1 POP SWAP1 JUMP JUMPDEST PUSH1 0x0 DUP1 PUSH2 0x2103 DUP6 DUP6 DUP6 CALLER CALLER PUSH2 0x2D87 JUMP JUMPDEST SWAP2 POP SWAP2 POP SWAP4 POP SWAP4 SWAP2 POP POP JUMP JUMPDEST PUSH2 0x2117 PUSH2 0x262E JUMP JUMPDEST PUSH1 0x0 PUSH2 0x134 DUP2 PUSH2 0x212A PUSH1 0x20 DUP6 ADD DUP6 PUSH2 0x51BC JUMP JUMPDEST PUSH1 0x1 PUSH1 0x1 PUSH1 0xA0 SHL SUB AND DUP2 MSTORE PUSH1 0x20 DUP1 DUP3 ADD SWAP3 SWAP1 SWAP3 MSTORE PUSH1 0x40 SWAP1 DUP2 ADD PUSH1 0x0 KECCAK256 DUP2 MLOAD DUP1 DUP4 ADD SWAP1 SWAP3 MSTORE DUP1 SLOAD DUP3 MSTORE PUSH1 0x1 ADD SLOAD PUSH1 0xFF AND ISZERO ISZERO SWAP2 DUP2 ADD DUP3 SWAP1 MSTORE SWAP2 POP PUSH2 0x2180 JUMPI PUSH1 0x40 MLOAD PUSH4 0xE6C4247B PUSH1 0xE0 SHL DUP2 MSTORE PUSH1 0x4 ADD PUSH1 0x40 MLOAD DUP1 SWAP2 SUB SWAP1 REVERT JUMPDEST DUP1 MLOAD PUSH2 0x135 DUP1 SLOAD DUP3 SWAP1 DUP2 LT PUSH2 0x2197 JUMPI PUSH2 0x2197 PUSH2 0x555C JUMP JUMPDEST PUSH1 0x0 SWAP2 DUP3 MSTORE PUSH1 0x20 SWAP2 DUP3 SWAP1 KECCAK256 PUSH1 0x1 PUSH1 0x2 SWAP1 SWAP3 MUL ADD ADD SLOAD PUSH1 0x1 PUSH1 0x1 PUSH1 0xA0 SHL SUB AND SWAP1 PUSH2 0x21C6 SWAP1 PUSH1 0x40 DUP7 ADD SWAP1 DUP7 ADD PUSH2 0x51BC JUMP JUMPDEST PUSH1 0x1 PUSH1 0x1 PUSH1 0xA0 SHL SUB AND EQ PUSH2 0x22B9 JUMPI PUSH1 0x0 PUSH2 0x21E6 PUSH1 0x40 DUP6 ADD PUSH1 0x20 DUP7 ADD PUSH2 0x51BC JUMP JUMPDEST SWAP1 POP PUSH1 0x0 DUP2 PUSH1 0x1 PUSH1 0x1 PUSH1 0xA0 SHL SUB AND PUSH4 0x59E02DD7 PUSH1 0x40 MLOAD DUP2 PUSH4 0xFFFFFFFF AND PUSH1 0xE0 SHL DUP2 MSTORE PUSH1 0x4 ADD PUSH1 0x40 DUP1 MLOAD DUP1 DUP4 SUB DUP2 DUP7 GAS STATICCALL ISZERO DUP1 ISZERO PUSH2 0x2227 JUMPI RETURNDATASIZE PUSH1 0x0 DUP1 RETURNDATACOPY RETURNDATASIZE PUSH1 0x0 REVERT JUMPDEST POP POP POP POP PUSH1 0x40 MLOAD RETURNDATASIZE PUSH1 0x1F NOT PUSH1 0x1F DUP3 ADD AND DUP3 ADD DUP1 PUSH1 0x40 MSTORE POP DUP2 ADD SWAP1 PUSH2 0x224B SWAP2 SWAP1 PUSH2 0x5572 JUMP JUMPDEST SWAP2 POP POP DUP1 PUSH2 0x226C JUMPI PUSH1 0x40 MLOAD PUSH4 0xE6C4247B PUSH1 0xE0 SHL DUP2 MSTORE PUSH1 0x4 ADD PUSH1 0x40 MLOAD DUP1 SWAP2 SUB SWAP1 REVERT JUMPDEST DUP2 PUSH2 0x135 DUP5 DUP2 SLOAD DUP2 LT PUSH2 0x2281 JUMPI PUSH2 0x2281 PUSH2 0x555C JUMP JUMPDEST SWAP1 PUSH1 0x0 MSTORE PUSH1 0x20 PUSH1 0x0 KECCAK256 SWAP1 PUSH1 0x2 MUL ADD PUSH1 0x1 ADD PUSH1 0x0 PUSH2 0x100 EXP DUP2 SLOAD DUP2 PUSH1 0x1 PUSH1 0x1 PUSH1 0xA0 SHL SUB MUL NOT AND SWAP1 DUP4 PUSH1 0x1 PUSH1 0x1 PUSH1 0xA0 SHL SUB AND MUL OR SWAP1 SSTORE POP POP POP JUMPDEST DUP3 PUSH1 0x40 ADD CALLDATALOAD PUSH2 0x145 DUP3 DUP2 SLOAD DUP2 LT PUSH2 0x22D2 JUMPI PUSH2 0x22D2 PUSH2 0x555C JUMP JUMPDEST SWAP1 PUSH1 0x0 MSTORE PUSH1 0x20 PUSH1 0x0 KECCAK256 ADD DUP2 SWAP1 SSTORE POP DUP3 PUSH1 0x60 ADD CALLDATALOAD PUSH2 0x141 DUP3 DUP2 SLOAD DUP2 LT PUSH2 0x22F9 JUMPI PUSH2 0x22F9 PUSH2 0x555C JUMP JUMPDEST SWAP1 PUSH1 0x0 MSTORE PUSH1 0x20 PUSH1 0x0 KECCAK256 ADD DUP2 SWAP1 SSTORE POP DUP3 PUSH1 0x80 ADD CALLDATALOAD PUSH2 0x142 DUP3 DUP2 SLOAD DUP2 LT PUSH2 0x2320 JUMPI PUSH2 0x2320 PUSH2 0x555C JUMP JUMPDEST SWAP1 PUSH1 0x0 MSTORE PUSH1 0x20 PUSH1 0x0 KECCAK256 ADD DUP2 SWAP1 SSTORE POP DUP3 PUSH1 0xC0 ADD CALLDATALOAD PUSH2 0x17D DUP3 DUP2 SLOAD DUP2 LT PUSH2 0x2347 JUMPI PUSH2 0x2347 PUSH2 0x555C JUMP JUMPDEST SWAP1 PUSH1 0x0 MSTORE PUSH1 0x20 PUSH1 0x0 KECCAK256 SWAP1 PUSH1 0x2 MUL ADD PUSH1 0x1 ADD DUP2 SWAP1 SSTORE POP DUP1 PUSH32 0x6417E5A3C1E0E5DAE98B8FE718C4BABDFCB35E0D7B5E1B9641B5914756F5D8E3 DUP5 PUSH1 0x40 MLOAD PUSH2 0x238C SWAP2 SWAP1 PUSH2 0x55B4 JUMP JUMPDEST PUSH1 0x40 MLOAD DUP1 SWAP2 SUB SWAP1 LOG2 POP POP POP JUMP JUMPDEST PUSH2 0x23A1 PUSH2 0x262E JUMP JUMPDEST PUSH2 0x13A SSTORE JUMP JUMPDEST PUSH1 0x0 DUP1 PUSH1 0x0 PUSH2 0x23B4 PUSH2 0x341B JUMP JUMPDEST SWAP2 POP SWAP2 POP PUSH1 0x0 DUP2 DUP6 DUP2 MLOAD DUP2 LT PUSH2 0x23CC JUMPI PUSH2 0x23CC PUSH2 0x555C JUMP JUMPDEST PUSH1 0x20 MUL PUSH1 0x20 ADD ADD MLOAD SWAP1 POP PUSH1 0x0 DUP1 PUSH2 0x23E2 DUP5 PUSH2 0x3572 JUMP JUMPDEST SWAP2 POP SWAP2 POP PUSH2 0x23FC DUP6 PUSH2 0x23F4 DUP10 DUP7 PUSH2 0x3C0A JUMP JUMPDEST DUP6 DUP6 DUP6 PUSH2 0x3CDB JUMP JUMPDEST SWAP8 SWAP7 POP POP POP POP POP POP POP JUMP JUMPDEST PUSH1 0x0 DUP1 PUSH2 0x2412 PUSH2 0x3D24 JUMP JUMPDEST PUSH2 0x241A PUSH2 0x312F JUMP JUMPDEST PUSH1 0x0 DUP1 PUSH2 0x2425 PUSH2 0x3D4E JUMP JUMPDEST SWAP2 POP SWAP2 POP PUSH2 0x244C DUP11 DUP3 DUP13 DUP2 MLOAD DUP2 LT PUSH2 0x243F JUMPI PUSH2 0x243F PUSH2 0x555C JUMP JUMPDEST PUSH1 0x20 MUL PUSH1 0x20 ADD ADD MLOAD PUSH2 0x3D6A JUMP JUMPDEST PUSH1 0x0 DUP1 PUSH2 0x2459 DUP5 DUP5 PUSH2 0x3DCD JUMP JUMPDEST SWAP2 POP SWAP2 POP PUSH2 0x2469 DUP12 DUP6 DUP5 DUP5 PUSH2 0x3E1E JUMP JUMPDEST PUSH1 0x0 PUSH2 0x2476 DUP13 DUP5 DUP5 PUSH2 0x3E58 JUMP JUMPDEST POP SWAP1 POP DUP1 PUSH1 0x0 SUB PUSH2 0x249A JUMPI PUSH1 0x40 MLOAD PUSH4 0xF3E39B5D PUSH1 0xE0 SHL DUP2 MSTORE PUSH1 0x4 ADD PUSH1 0x40 MLOAD DUP1 SWAP2 SUB SWAP1 REVERT JUMPDEST PUSH8 0xDE0B6B3A7640000 PUSH2 0x132 SLOAD DUP6 DUP16 DUP2 MLOAD DUP2 LT PUSH2 0x24B9 JUMPI PUSH2 0x24B9 PUSH2 0x555C JUMP JUMPDEST PUSH1 0x20 MUL PUSH1 0x20 ADD ADD MLOAD DUP6 PUSH2 0x24CB DUP7 PUSH2 0x3B6E JUMP JUMPDEST PUSH2 0x24D5 SWAP2 SWAP1 PUSH2 0x5621 JUMP JUMPDEST DUP16 PUSH2 0x24E0 SWAP2 SWAP1 PUSH2 0x5634 JUMP JUMPDEST PUSH2 0x24EA SWAP2 SWAP1 PUSH2 0x5634 JUMP JUMPDEST PUSH2 0x24F4 SWAP2 SWAP1 PUSH2 0x5653 JUMP JUMPDEST PUSH2 0x24FE SWAP2 SWAP1 PUSH2 0x5653 JUMP JUMPDEST SWAP6 POP PUSH1 0x0 DUP5 DUP15 DUP2 MLOAD DUP2 LT PUSH2 0x2514 JUMPI PUSH2 0x2514 PUSH2 0x555C JUMP JUMPDEST PUSH1 0x20 MUL PUSH1 0x20 ADD ADD MLOAD SWAP1 POP PUSH2 0x252C DUP15 DUP9 DUP4 DUP10 DUP9 DUP9 PUSH2 0x3E9E JUMP JUMPDEST POP DUP11 DUP7 LT ISZERO PUSH2 0x2558 JUMPI PUSH1 0x40 MLOAD PUSH4 0x272E3F59 PUSH1 0xE2 SHL DUP2 MSTORE PUSH1 0x4 DUP2 ADD DUP13 SWAP1 MSTORE PUSH1 0x24 DUP2 ADD DUP8 SWAP1 MSTORE PUSH1 0x44 ADD PUSH2 0x13F8 JUMP JUMPDEST PUSH2 0x2565 DUP2 PUSH2 0x13E SLOAD PUSH2 0x3EF2 JUMP JUMPDEST SWAP7 POP DUP10 DUP8 GT ISZERO PUSH2 0x2592 JUMPI PUSH1 0x40 MLOAD PUSH4 0xB63F1A7 PUSH1 0xE0 SHL DUP2 MSTORE PUSH1 0x4 DUP2 ADD DUP12 SWAP1 MSTORE PUSH1 0x24 DUP2 ADD DUP9 SWAP1 MSTORE PUSH1 0x44 ADD PUSH2 0x13F8 JUMP JUMPDEST PUSH1 0x40 DUP1 MLOAD DUP14 DUP2 MSTORE PUSH1 0x20 DUP2 ADD DUP9 SWAP1 MSTORE SWAP1 DUP2 ADD DUP9 SWAP1 MSTORE DUP14 SWAP1 DUP14 SWAP1 PUSH1 0x1 PUSH1 0x1 PUSH1 0xA0 SHL SUB DUP1 DUP13 AND SWAP2 SWAP1 DUP14 AND SWAP1 DUP5 SWAP1 PUSH32 0xB0EE95633545EDABB63AFD3C3962A133536B36E2372F68C3C2722710EE0CD89 SWAP1 PUSH1 0x60 ADD PUSH1 0x40 MLOAD DUP1 SWAP2 SUB SWAP1 LOG4 POP POP PUSH2 0x25F7 DUP13 PUSH1 0x0 DUP12 PUSH2 0x3F11 JUMP JUMPDEST PUSH2 0x2604 DUP14 DUP8 PUSH1 0x0 DUP12 PUSH2 0x3F88 JUMP JUMPDEST PUSH1 0x0 PUSH2 0x2610 DUP12 DUP10 PUSH2 0x4013 JUMP JUMPDEST SWAP1 POP PUSH2 0x261D DUP11 DUP3 DUP11 PUSH2 0x4038 JUMP JUMPDEST POP POP POP POP POP POP SWAP7 POP SWAP7 SWAP5 POP POP POP POP POP JUMP JUMPDEST PUSH1 0x97 SLOAD PUSH1 0x40 MLOAD PUSH4 0xD994D6D5 PUSH1 0xE0 SHL DUP2 MSTORE CALLER PUSH1 0x4 DUP3 ADD MSTORE PUSH1 0x1 PUSH1 0x1 PUSH1 0xA0 SHL SUB SWAP1 SWAP2 AND SWAP1 PUSH4 0xD994D6D5 SWAP1 PUSH1 0x24 ADD PUSH1 0x20 PUSH1 0x40 MLOAD DUP1 DUP4 SUB DUP2 DUP7 GAS STATICCALL ISZERO DUP1 ISZERO PUSH2 0x2676 JUMPI RETURNDATASIZE PUSH1 0x0 DUP1 RETURNDATACOPY RETURNDATASIZE PUSH1 0x0 REVERT JUMPDEST POP POP POP POP PUSH1 0x40 MLOAD RETURNDATASIZE PUSH1 0x1F NOT PUSH1 0x1F DUP3 ADD AND DUP3 ADD DUP1 PUSH1 0x40 MSTORE POP DUP2 ADD SWAP1 PUSH2 0x269A SWAP2 SWAP1 PUSH2 0x5597 JUMP JUMPDEST PUSH2 0x13AE JUMPI PUSH1 0x40 MLOAD PUSH4 0x1DD1B1B5 PUSH1 0xE2 SHL DUP2 MSTORE PUSH1 0x4 ADD PUSH1 0x40 MLOAD DUP1 SWAP2 SUB SWAP1 REVERT JUMPDEST PUSH1 0x0 PUSH2 0x26C1 PUSH2 0x3D24 JUMP JUMPDEST PUSH2 0x26C9 PUSH2 0x312F JUMP JUMPDEST PUSH1 0x0 PUSH2 0x26D3 PUSH2 0x4091 JUMP JUMPDEST SWAP1 POP PUSH1 0x0 DUP1 PUSH2 0x26E5 PUSH2 0x146 SLOAD DUP5 PUSH2 0x3DCD JUMP JUMPDEST SWAP2 POP SWAP2 POP PUSH1 0x0 DUP1 PUSH2 0x26F7 DUP11 DUP6 DUP6 PUSH2 0x411B JUMP JUMPDEST SWAP1 SWAP3 POP SWAP1 POP PUSH2 0x2706 DUP2 DUP4 PUSH2 0x5549 JUMP JUMPDEST SWAP6 POP DUP9 DUP7 GT ISZERO PUSH2 0x2733 JUMPI PUSH1 0x40 MLOAD PUSH4 0xB63F1A7 PUSH1 0xE0 SHL DUP2 MSTORE PUSH1 0x4 DUP2 ADD DUP11 SWAP1 MSTORE PUSH1 0x24 DUP2 ADD DUP8 SWAP1 MSTORE PUSH1 0x44 ADD PUSH2 0x13F8 JUMP JUMPDEST DUP6 PUSH1 0x0 SUB PUSH2 0x2754 JUMPI PUSH1 0x40 MLOAD PUSH4 0xF3E39B5D PUSH1 0xE0 SHL DUP2 MSTORE PUSH1 0x4 ADD PUSH1 0x40 MLOAD DUP1 SWAP2 SUB SWAP1 REVERT JUMPDEST PUSH1 0x40 DUP1 MLOAD DUP12 DUP2 MSTORE PUSH1 0x20 DUP2 ADD DUP9 SWAP1 MSTORE SWAP1 DUP2 ADD DUP3 SWAP1 MSTORE PUSH1 0x1 PUSH1 0x1 PUSH1 0xA0 SHL SUB DUP1 DUP10 AND SWAP2 SWAP1 DUP11 AND SWAP1 PUSH32 0x62F0126E99B1936535DB27571CEA2B2D54DB14A471B9203B29B31B89C300E4F6 SWAP1 PUSH1 0x60 ADD PUSH1 0x40 MLOAD DUP1 SWAP2 SUB SWAP1 LOG3 PUSH2 0x27B0 DUP11 DUP4 DUP10 PUSH2 0x415C JUMP JUMPDEST PUSH1 0x0 PUSH2 0x27BC DUP11 DUP9 PUSH2 0x4013 JUMP JUMPDEST SWAP1 POP PUSH2 0x27C9 DUP10 DUP3 DUP5 PUSH2 0x4038 JUMP JUMPDEST POP POP POP POP POP POP SWAP5 SWAP4 POP POP POP POP JUMP JUMPDEST PUSH1 0x0 DUP1 PUSH2 0x27E2 PUSH2 0x3D24 JUMP JUMPDEST PUSH2 0x27EA PUSH2 0x312F JUMP JUMPDEST PUSH1 0x0 PUSH2 0x27F4 PUSH2 0x4091 JUMP JUMPDEST SWAP1 POP PUSH1 0x0 DUP2 DUP11 DUP2 MLOAD DUP2 LT PUSH2 0x280A JUMPI PUSH2 0x280A PUSH2 0x555C JUMP JUMPDEST PUSH1 0x20 MUL PUSH1 0x20 ADD ADD MLOAD SWAP1 POP PUSH2 0x281E DUP11 DUP3 PUSH2 0x3D6A JUMP JUMPDEST PUSH1 0x0 DUP1 PUSH2 0x282E PUSH2 0x146 SLOAD DUP6 PUSH2 0x3DCD JUMP JUMPDEST SWAP2 POP SWAP2 POP PUSH1 0x0 PUSH2 0x283F DUP14 DUP14 DUP7 PUSH2 0x388F JUMP JUMPDEST POP SWAP1 POP PUSH2 0x2878 PUSH2 0x132 SLOAD DUP14 PUSH2 0x2854 SWAP2 SWAP1 PUSH2 0x5634 JUMP JUMPDEST DUP6 DUP6 PUSH2 0x285F DUP7 PUSH2 0x3B6E JUMP JUMPDEST PUSH2 0x2869 SWAP2 SWAP1 PUSH2 0x5621 JUMP JUMPDEST PUSH2 0x2873 SWAP2 SWAP1 PUSH2 0x5634 JUMP JUMPDEST PUSH2 0x41A0 JUMP JUMPDEST SWAP6 POP DUP11 DUP7 LT DUP1 PUSH2 0x2886 JUMPI POP DUP6 ISZERO JUMPDEST ISZERO PUSH2 0x28AE JUMPI PUSH1 0x40 MLOAD PUSH4 0xF577BEF5 PUSH1 0xE0 SHL DUP2 MSTORE PUSH1 0x4 DUP2 ADD DUP13 SWAP1 MSTORE PUSH1 0x24 DUP2 ADD DUP8 SWAP1 MSTORE PUSH1 0x44 ADD PUSH2 0x13F8 JUMP JUMPDEST PUSH2 0x28BB DUP2 PUSH2 0x13D SLOAD PUSH2 0x3EF2 JUMP JUMPDEST SWAP7 POP DUP10 DUP8 GT ISZERO PUSH2 0x28E8 JUMPI PUSH1 0x40 MLOAD PUSH4 0xB63F1A7 PUSH1 0xE0 SHL DUP2 MSTORE PUSH1 0x4 DUP2 ADD DUP12 SWAP1 MSTORE PUSH1 0x24 DUP2 ADD DUP9 SWAP1 MSTORE PUSH1 0x44 ADD PUSH2 0x13F8 JUMP JUMPDEST PUSH1 0x40 DUP1 MLOAD DUP14 DUP2 MSTORE PUSH1 0x20 DUP2 ADD DUP9 SWAP1 MSTORE SWAP1 DUP2 ADD DUP9 SWAP1 MSTORE DUP14 SWAP1 DUP14 SWAP1 PUSH1 0x1 PUSH1 0x1 PUSH1 0xA0 SHL SUB DUP1 DUP13 AND SWAP2 SWAP1 DUP14 AND SWAP1 DUP5 SWAP1 PUSH32 0xF77B7563E0C6C33E0B804A715D94C82BAEA057D2E6F8BFDC211FE04D3C03BAD9 SWAP1 PUSH1 0x60 ADD PUSH1 0x40 MLOAD DUP1 SWAP2 SUB SWAP1 LOG4 POP POP PUSH2 0x294E DUP14 DUP14 PUSH1 0x0 DUP13 PUSH2 0x41B5 JUMP JUMPDEST PUSH2 0x2604 DUP7 PUSH1 0x0 DUP11 PUSH2 0x415C JUMP JUMPDEST PUSH1 0x0 DUP1 PUSH2 0x2965 PUSH2 0x3D24 JUMP JUMPDEST PUSH2 0x296D PUSH2 0x312F JUMP JUMPDEST PUSH1 0x0 PUSH2 0x2977 PUSH2 0x4091 JUMP JUMPDEST SWAP1 POP PUSH1 0x0 DUP2 DUP11 DUP2 MLOAD DUP2 LT PUSH2 0x298D JUMPI PUSH2 0x298D PUSH2 0x555C JUMP JUMPDEST PUSH1 0x20 MUL PUSH1 0x20 ADD ADD MLOAD SWAP1 POP PUSH2 0x29A1 DUP11 DUP3 PUSH2 0x3D6A JUMP JUMPDEST PUSH1 0x0 DUP1 PUSH2 0x29B1 PUSH2 0x147 SLOAD DUP6 PUSH2 0x3DCD JUMP JUMPDEST SWAP2 POP SWAP2 POP PUSH8 0xDE0B6B3A7640000 PUSH2 0x132 SLOAD DUP5 DUP5 DUP15 PUSH2 0x29CF SWAP2 SWAP1 PUSH2 0x5634 JUMP JUMPDEST PUSH2 0x29D9 SWAP2 SWAP1 PUSH2 0x5634 JUMP JUMPDEST PUSH2 0x29E3 SWAP2 SWAP1 PUSH2 0x5653 JUMP JUMPDEST PUSH2 0x29ED SWAP2 SWAP1 PUSH2 0x5653 JUMP JUMPDEST SWAP5 POP DUP10 DUP6 GT ISZERO PUSH2 0x2A1A JUMPI PUSH1 0x40 MLOAD PUSH4 0x7A031DA3 PUSH1 0xE1 SHL DUP2 MSTORE PUSH1 0x4 DUP2 ADD DUP12 SWAP1 MSTORE PUSH1 0x24 DUP2 ADD DUP7 SWAP1 MSTORE PUSH1 0x44 ADD PUSH2 0x13F8 JUMP JUMPDEST PUSH1 0x0 DUP1 PUSH2 0x2A33 DUP15 DUP15 DUP10 DUP9 PUSH2 0x2A2E DUP10 DUP10 PUSH2 0x30F3 JUMP JUMPDEST PUSH2 0x4216 JUMP JUMPDEST SWAP1 SWAP3 POP SWAP1 POP PUSH2 0x2A42 DUP2 DUP4 PUSH2 0x5621 JUMP JUMPDEST SWAP8 POP DUP11 DUP9 LT ISZERO PUSH2 0x2A6F JUMPI PUSH1 0x40 MLOAD PUSH4 0x54CDE313 PUSH1 0xE0 SHL DUP2 MSTORE PUSH1 0x4 DUP2 ADD DUP13 SWAP1 MSTORE PUSH1 0x24 DUP2 ADD DUP10 SWAP1 MSTORE PUSH1 0x44 ADD PUSH2 0x13F8 JUMP JUMPDEST PUSH1 0x40 DUP1 MLOAD DUP15 DUP2 MSTORE PUSH1 0x20 DUP2 ADD DUP10 SWAP1 MSTORE SWAP1 DUP2 ADD DUP10 SWAP1 MSTORE PUSH1 0x60 DUP2 ADD DUP3 SWAP1 MSTORE DUP15 SWAP1 DUP15 SWAP1 DUP11 SWAP1 PUSH1 0x1 PUSH1 0x1 PUSH1 0xA0 SHL SUB DUP1 DUP15 AND SWAP2 SWAP1 DUP16 AND SWAP1 DUP6 SWAP1 PUSH32 0x879E4419A6544DE6EA456F6344B2FCF0C3B9FC0E6738C82FA4026A8789747C53 SWAP1 PUSH1 0x80 ADD PUSH1 0x40 MLOAD DUP1 SWAP2 SUB SWAP1 LOG4 POP POP POP PUSH2 0x2ADD DUP14 DUP4 DUP13 PUSH2 0x3F11 JUMP JUMPDEST PUSH2 0x2AEA DUP15 DUP9 PUSH1 0x0 DUP14 PUSH2 0x41B5 JUMP JUMPDEST PUSH2 0x261D DUP10 DUP10 DUP4 PUSH2 0x4038 JUMP JUMPDEST PUSH1 0x0 PUSH2 0x2AFF PUSH2 0x3D24 JUMP JUMPDEST PUSH2 0x2B07 PUSH2 0x312F JUMP JUMPDEST PUSH1 0x0 PUSH2 0x2B11 PUSH2 0x4091 JUMP JUMPDEST SWAP1 POP PUSH1 0x0 DUP2 DUP9 DUP2 MLOAD DUP2 LT PUSH2 0x2B27 JUMPI PUSH2 0x2B27 PUSH2 0x555C JUMP JUMPDEST PUSH1 0x20 MUL PUSH1 0x20 ADD ADD MLOAD SWAP1 POP PUSH2 0x2B3B DUP9 DUP3 PUSH2 0x3D6A JUMP JUMPDEST PUSH2 0x2B48 PUSH2 0x146 SLOAD DUP4 PUSH2 0x3DCD JUMP JUMPDEST POP POP PUSH1 0x0 DUP1 PUSH2 0x2B58 DUP11 DUP11 DUP6 PUSH2 0x388F JUMP JUMPDEST SWAP2 POP SWAP2 POP DUP2 PUSH1 0x0 SUB PUSH2 0x2B7D JUMPI PUSH1 0x40 MLOAD PUSH4 0xF3E39B5D PUSH1 0xE0 SHL DUP2 MSTORE PUSH1 0x4 ADD PUSH1 0x40 MLOAD DUP1 SWAP2 SUB SWAP1 REVERT JUMPDEST PUSH2 0x2B87 DUP2 DUP4 PUSH2 0x5621 JUMP JUMPDEST SWAP5 POP DUP8 DUP6 LT ISZERO PUSH2 0x2BB4 JUMPI PUSH1 0x40 MLOAD PUSH4 0x54CDE313 PUSH1 0xE0 SHL DUP2 MSTORE PUSH1 0x4 DUP2 ADD DUP10 SWAP1 MSTORE PUSH1 0x24 DUP2 ADD DUP7 SWAP1 MSTORE PUSH1 0x44 ADD PUSH2 0x13F8 JUMP JUMPDEST PUSH1 0x40 DUP1 MLOAD DUP11 DUP2 MSTORE PUSH1 0x20 DUP2 ADD DUP8 SWAP1 MSTORE SWAP1 DUP2 ADD DUP3 SWAP1 MSTORE PUSH1 0x1 PUSH1 0x1 PUSH1 0xA0 SHL SUB DUP1 DUP9 AND SWAP2 SWAP1 DUP10 AND SWAP1 DUP13 SWAP1 PUSH32 0x4716C9926CE32100E8A5B6AD71AF5500AC55514D7B0C8F80F209856C9DFAEB92 SWAP1 PUSH1 0x60 ADD PUSH1 0x40 MLOAD DUP1 SWAP2 SUB SWAP1 LOG4 PUSH2 0x2C13 DUP11 DUP11 DUP5 DUP11 PUSH2 0x41B5 JUMP JUMPDEST PUSH2 0x2C1E DUP7 DUP7 DUP4 PUSH2 0x4038 JUMP JUMPDEST POP POP POP POP SWAP6 SWAP5 POP POP POP POP POP JUMP JUMPDEST PUSH1 0x0 PUSH2 0x2C35 PUSH2 0x3D24 JUMP JUMPDEST PUSH2 0x2C3D PUSH2 0x312F JUMP JUMPDEST PUSH1 0x0 DUP1 PUSH2 0x2C48 PUSH2 0x3D4E JUMP JUMPDEST SWAP2 POP SWAP2 POP PUSH1 0x0 DUP2 DUP10 DUP2 MLOAD DUP2 LT PUSH2 0x2C60 JUMPI PUSH2 0x2C60 PUSH2 0x555C JUMP JUMPDEST PUSH1 0x20 MUL PUSH1 0x20 ADD ADD MLOAD SWAP1 POP PUSH2 0x2C74 DUP10 DUP3 PUSH2 0x3D6A JUMP JUMPDEST PUSH1 0x0 DUP1 PUSH2 0x2C81 DUP6 DUP6 PUSH2 0x3DCD JUMP JUMPDEST SWAP2 POP SWAP2 POP PUSH2 0x2C93 DUP12 DUP12 DUP6 DUP9 DUP7 DUP7 PUSH2 0x3E9E JUMP JUMPDEST PUSH1 0x0 DUP1 PUSH2 0x2CA1 DUP14 DUP14 DUP8 PUSH2 0x4256 JUMP JUMPDEST SWAP1 SWAP3 POP SWAP1 POP PUSH2 0x2CB0 DUP2 DUP4 PUSH2 0x5549 JUMP JUMPDEST SWAP8 POP DUP11 DUP9 GT ISZERO PUSH2 0x2CDD JUMPI PUSH1 0x40 MLOAD PUSH4 0xB63F1A7 PUSH1 0xE0 SHL DUP2 MSTORE PUSH1 0x4 DUP2 ADD DUP13 SWAP1 MSTORE PUSH1 0x24 DUP2 ADD DUP10 SWAP1 MSTORE PUSH1 0x44 ADD PUSH2 0x13F8 JUMP JUMPDEST DUP8 PUSH1 0x0 SUB PUSH2 0x2CFE JUMPI PUSH1 0x40 MLOAD PUSH4 0xF3E39B5D PUSH1 0xE0 SHL DUP2 MSTORE PUSH1 0x4 ADD PUSH1 0x40 MLOAD DUP1 SWAP2 SUB SWAP1 REVERT JUMPDEST PUSH1 0x40 DUP1 MLOAD DUP14 DUP2 MSTORE PUSH1 0x20 DUP2 ADD DUP11 SWAP1 MSTORE SWAP1 DUP2 ADD DUP3 SWAP1 MSTORE PUSH1 0x1 PUSH1 0x1 PUSH1 0xA0 SHL SUB DUP1 DUP12 AND SWAP2 SWAP1 DUP13 AND SWAP1 DUP16 SWAP1 PUSH32 0x5F8DFB23A03C1F9D37A1860FC8038FFDC6DEC3E24DB38CDB09CC0176B35453F SWAP1 PUSH1 0x60 ADD PUSH1 0x40 MLOAD DUP1 SWAP2 SUB SWAP1 LOG4 PUSH2 0x2D5D DUP14 DUP14 DUP5 DUP13 PUSH2 0x3F88 JUMP JUMPDEST PUSH1 0x0 PUSH2 0x2D69 DUP13 DUP11 PUSH2 0x4013 JUMP JUMPDEST SWAP1 POP PUSH2 0x2D76 DUP12 DUP3 DUP5 PUSH2 0x4038 JUMP JUMPDEST POP POP POP POP POP POP POP POP SWAP6 SWAP5 POP POP POP POP POP JUMP JUMPDEST PUSH1 0x0 DUP1 PUSH2 0x2D92 PUSH2 0x3D24 JUMP JUMPDEST PUSH2 0x2D9A PUSH2 0x312F JUMP JUMPDEST PUSH1 0x0 DUP1 PUSH1 0x0 DUP1 PUSH2 0x2DA8 PUSH2 0x3D4E JUMP JUMPDEST SWAP2 POP SWAP2 POP PUSH1 0x0 DUP2 DUP13 DUP2 MLOAD DUP2 LT PUSH2 0x2DC0 JUMPI PUSH2 0x2DC0 PUSH2 0x555C JUMP JUMPDEST PUSH1 0x20 MUL PUSH1 0x20 ADD ADD MLOAD SWAP1 POP PUSH2 0x2DD4 DUP13 DUP3 PUSH2 0x3D6A JUMP JUMPDEST PUSH2 0x2DE1 PUSH2 0x147 SLOAD DUP4 PUSH2 0x3DCD JUMP JUMPDEST POP POP PUSH2 0x2DEF DUP12 DUP3 DUP6 DUP6 PUSH2 0x429E JUMP JUMPDEST SWAP2 SWAP8 POP SWAP6 POP SWAP4 POP PUSH2 0x2E00 DUP5 DUP7 PUSH2 0x5549 JUMP JUMPDEST SWAP7 POP DUP10 DUP8 GT ISZERO PUSH2 0x2E2D JUMPI PUSH1 0x40 MLOAD PUSH4 0xB63F1A7 PUSH1 0xE0 SHL DUP2 MSTORE PUSH1 0x4 DUP2 ADD DUP12 SWAP1 MSTORE PUSH1 0x24 DUP2 ADD DUP9 SWAP1 MSTORE PUSH1 0x44 ADD PUSH2 0x13F8 JUMP JUMPDEST DUP7 PUSH1 0x0 SUB PUSH2 0x2E4E JUMPI PUSH1 0x40 MLOAD PUSH4 0xF3E39B5D PUSH1 0xE0 SHL DUP2 MSTORE PUSH1 0x4 ADD PUSH1 0x40 MLOAD DUP1 SWAP2 SUB SWAP1 REVERT JUMPDEST PUSH1 0x40 DUP1 MLOAD DUP8 DUP2 MSTORE PUSH1 0x20 DUP2 ADD DUP14 SWAP1 MSTORE SWAP1 DUP2 ADD DUP9 SWAP1 MSTORE PUSH1 0x60 DUP2 ADD DUP6 SWAP1 MSTORE PUSH1 0x1 PUSH1 0x1 PUSH1 0xA0 SHL SUB DUP1 DUP11 AND SWAP2 SWAP1 DUP12 AND SWAP1 DUP15 SWAP1 PUSH32 0xCD3821E3A6AFEC66FDFA7A942B879811BB9919B2F270DE090B6E00178CD7EAEE SWAP1 PUSH1 0x80 ADD PUSH1 0x40 MLOAD DUP1 SWAP2 SUB SWAP1 LOG4 PUSH2 0x2EB3 DUP7 DUP7 DUP11 PUSH2 0x415C JUMP JUMPDEST PUSH2 0x2EC0 DUP13 DUP13 PUSH1 0x0 DUP12 PUSH2 0x3F88 JUMP JUMPDEST PUSH1 0x0 PUSH2 0x2ECC DUP12 DUP10 PUSH2 0x4013 JUMP JUMPDEST SWAP1 POP PUSH2 0x2ED9 DUP11 DUP3 DUP8 PUSH2 0x4038 JUMP JUMPDEST POP POP POP POP POP POP SWAP6 POP SWAP6 SWAP4 POP POP POP POP JUMP JUMPDEST PUSH1 0x0 DUP1 PUSH2 0x2EF4 PUSH2 0x3D24 JUMP JUMPDEST PUSH2 0x2EFC PUSH2 0x312F JUMP JUMPDEST DUP8 DUP10 SUB PUSH2 0x2F1C JUMPI PUSH1 0x40 MLOAD PUSH4 0x2A9FFAB7 PUSH1 0xE2 SHL DUP2 MSTORE PUSH1 0x4 ADD PUSH1 0x40 MLOAD DUP1 SWAP2 SUB SWAP1 REVERT JUMPDEST PUSH1 0x0 PUSH2 0x2F27 DUP11 PUSH2 0x1965 JUMP JUMPDEST SWAP1 POP PUSH1 0x0 PUSH2 0x2F34 DUP11 PUSH2 0x1965 JUMP JUMPDEST SWAP1 POP PUSH2 0x2F40 DUP12 DUP4 PUSH2 0x3D6A JUMP JUMPDEST PUSH2 0x2F4A DUP11 DUP3 PUSH2 0x3D6A JUMP JUMPDEST PUSH1 0x0 PUSH2 0x2F57 DUP13 DUP12 DUP6 PUSH2 0x388F JUMP JUMPDEST POP SWAP1 POP DUP3 PUSH2 0x2F65 DUP4 DUP13 PUSH2 0x5634 JUMP JUMPDEST PUSH2 0x2F6F SWAP2 SWAP1 PUSH2 0x5653 JUMP JUMPDEST SWAP4 POP DUP9 DUP5 LT DUP1 PUSH2 0x2F7D JUMPI POP DUP4 ISZERO JUMPDEST ISZERO PUSH2 0x2FA5 JUMPI PUSH1 0x40 MLOAD PUSH4 0x272E3F59 PUSH1 0xE2 SHL DUP2 MSTORE PUSH1 0x4 DUP2 ADD DUP11 SWAP1 MSTORE PUSH1 0x24 DUP2 ADD DUP6 SWAP1 MSTORE PUSH1 0x44 ADD PUSH2 0x13F8 JUMP JUMPDEST PUSH2 0x2FAF DUP13 DUP5 PUSH2 0x3C0A JUMP JUMPDEST PUSH2 0x2FB9 DUP13 DUP5 PUSH2 0x3C0A JUMP JUMPDEST GT ISZERO PUSH2 0x2FF2 JUMPI PUSH1 0x0 DUP1 PUSH2 0x2FCA PUSH2 0x3D4E JUMP JUMPDEST SWAP2 POP SWAP2 POP PUSH1 0x0 DUP1 PUSH2 0x2FDB DUP5 DUP5 PUSH2 0x3DCD JUMP JUMPDEST SWAP2 POP SWAP2 POP PUSH2 0x2FED DUP16 DUP10 DUP9 DUP8 DUP7 DUP7 PUSH2 0x3E9E JUMP JUMPDEST POP POP POP POP JUMPDEST PUSH2 0x2FFF DUP2 PUSH2 0x13C SLOAD PUSH2 0x3EF2 JUMP JUMPDEST SWAP5 POP DUP8 DUP6 GT ISZERO PUSH2 0x302C JUMPI PUSH1 0x40 MLOAD PUSH4 0xB63F1A7 PUSH1 0xE0 SHL DUP2 MSTORE PUSH1 0x4 DUP2 ADD DUP10 SWAP1 MSTORE PUSH1 0x24 DUP2 ADD DUP7 SWAP1 MSTORE PUSH1 0x44 ADD PUSH2 0x13F8 JUMP JUMPDEST PUSH1 0x40 DUP1 MLOAD DUP13 DUP2 MSTORE PUSH1 0x20 DUP2 ADD DUP13 SWAP1 MSTORE SWAP1 DUP2 ADD DUP6 SWAP1 MSTORE PUSH1 0x60 DUP2 ADD DUP7 SWAP1 MSTORE DUP13 SWAP1 DUP13 SWAP1 DUP13 SWAP1 PUSH1 0x1 PUSH1 0x1 PUSH1 0xA0 SHL SUB DUP1 DUP12 AND SWAP2 SWAP1 DUP13 AND SWAP1 DUP6 SWAP1 PUSH32 0x77D2223ACA09D9EC6E49D1B8CDCB0B40DEC540A5F65DAF1ECAB069C822BFF460 SWAP1 PUSH1 0x80 ADD PUSH1 0x40 MLOAD DUP1 SWAP2 SUB SWAP1 LOG4 POP POP POP PUSH2 0x309C DUP12 DUP6 PUSH1 0x0 DUP10 PUSH2 0x3F88 JUMP JUMPDEST PUSH2 0x30A9 DUP13 DUP12 PUSH1 0x0 DUP11 PUSH2 0x41B5 JUMP JUMPDEST PUSH1 0x0 PUSH2 0x30B5 DUP10 DUP8 PUSH2 0x4013 JUMP JUMPDEST SWAP1 POP PUSH2 0x30C2 DUP9 DUP3 DUP9 PUSH2 0x4038 JUMP JUMPDEST POP POP POP POP SWAP8 POP SWAP8 SWAP6 POP POP POP POP POP POP JUMP JUMPDEST PUSH1 0x0 DUP1 PUSH1 0x0 PUSH2 0x30DF PUSH2 0x4091 JUMP JUMPDEST SWAP1 POP PUSH2 0x30EA DUP2 PUSH2 0x3572 JUMP JUMPDEST SWAP3 POP SWAP3 POP POP SWAP1 SWAP2 JUMP JUMPDEST PUSH1 0x0 PUSH2 0x132 SLOAD PUSH1 0x0 SUB PUSH2 0x310F JUMPI POP PUSH8 0xDE0B6B3A7640000 PUSH2 0x114E JUMP JUMPDEST PUSH2 0x114B DUP4 PUSH2 0x311C DUP5 PUSH2 0x3B6E JUMP JUMPDEST PUSH2 0x3126 SWAP2 SWAP1 PUSH2 0x5621 JUMP JUMPDEST PUSH2 0x132 SLOAD PUSH2 0x41A0 JUMP JUMPDEST PUSH1 0xCA SLOAD PUSH2 0x100 SWAP1 DIV PUSH1 0xFF AND ISZERO PUSH2 0x13AE JUMPI PUSH1 0x40 MLOAD PUSH4 0x783BB6C9 PUSH1 0xE1 SHL DUP2 MSTORE PUSH1 0x4 ADD PUSH1 0x40 MLOAD DUP1 SWAP2 SUB SWAP1 REVERT JUMPDEST PUSH2 0x12F SLOAD PUSH1 0x0 DUP2 SWAP1 SUB PUSH2 0x3168 JUMPI POP JUMP JUMPDEST PUSH2 0x135 SLOAD PUSH1 0x0 DUP1 DUP3 PUSH8 0xFFFFFFFFFFFFFFFF DUP2 GT ISZERO PUSH2 0x3188 JUMPI PUSH2 0x3188 PUSH2 0x5331 JUMP JUMPDEST PUSH1 0x40 MLOAD SWAP1 DUP1 DUP3 MSTORE DUP1 PUSH1 0x20 MUL PUSH1 0x20 ADD DUP3 ADD PUSH1 0x40 MSTORE DUP1 ISZERO PUSH2 0x31B1 JUMPI DUP2 PUSH1 0x20 ADD PUSH1 0x20 DUP3 MUL DUP1 CALLDATASIZE DUP4 CALLDATACOPY ADD SWAP1 POP JUMPDEST POP SWAP1 POP PUSH1 0x0 JUMPDEST DUP4 DUP2 LT ISZERO PUSH2 0x3242 JUMPI PUSH2 0x31C8 DUP2 PUSH2 0x1965 JUMP JUMPDEST DUP3 DUP3 DUP2 MLOAD DUP2 LT PUSH2 0x31DA JUMPI PUSH2 0x31DA PUSH2 0x555C JUMP JUMPDEST PUSH1 0x20 MUL PUSH1 0x20 ADD ADD DUP2 DUP2 MSTORE POP POP PUSH2 0x322E PUSH2 0x135 DUP3 DUP2 SLOAD DUP2 LT PUSH2 0x31FD JUMPI PUSH2 0x31FD PUSH2 0x555C JUMP JUMPDEST SWAP1 PUSH1 0x0 MSTORE PUSH1 0x20 PUSH1 0x0 KECCAK256 SWAP1 PUSH1 0x2 MUL ADD PUSH1 0x0 ADD SLOAD DUP4 DUP4 DUP2 MLOAD DUP2 LT PUSH2 0x3221 JUMPI PUSH2 0x3221 PUSH2 0x555C JUMP JUMPDEST PUSH1 0x20 MUL PUSH1 0x20 ADD ADD MLOAD PUSH2 0x41A0 JUMP JUMPDEST PUSH2 0x3238 SWAP1 DUP5 PUSH2 0x5549 JUMP JUMPDEST SWAP3 POP PUSH1 0x1 ADD PUSH2 0x31B7 JUMP JUMPDEST POP PUSH1 0x0 JUMPDEST DUP4 DUP2 LT ISZERO PUSH2 0x329C JUMPI PUSH2 0x136 DUP6 DUP5 DUP5 DUP5 DUP2 MLOAD DUP2 LT PUSH2 0x3265 JUMPI PUSH2 0x3265 PUSH2 0x555C JUMP JUMPDEST PUSH1 0x20 MUL PUSH1 0x20 ADD ADD MLOAD PUSH2 0x3277 SWAP2 SWAP1 PUSH2 0x5634 JUMP JUMPDEST PUSH2 0x3281 SWAP2 SWAP1 PUSH2 0x5653 JUMP JUMPDEST DUP2 SLOAD PUSH1 0x1 DUP1 DUP3 ADD DUP5 SSTORE PUSH1 0x0 SWAP4 DUP5 MSTORE PUSH1 0x20 SWAP1 SWAP4 KECCAK256 ADD SSTORE ADD PUSH2 0x3246 JUMP JUMPDEST POP POP POP POP POP JUMP JUMPDEST PUSH2 0x1495 PUSH2 0x262E JUMP JUMPDEST PUSH32 0x4910FDFA16FED3260ED0E7147F7CC6DA11A60208B5B9406D12A635614FFD9143 SLOAD PUSH1 0xFF AND ISZERO PUSH2 0x32E3 JUMPI PUSH2 0x32DE DUP4 PUSH2 0x4328 JUMP JUMPDEST POP POP POP JUMP JUMPDEST DUP3 PUSH1 0x1 PUSH1 0x1 PUSH1 0xA0 SHL SUB AND PUSH4 0x52D1902D PUSH1 0x40 MLOAD DUP2 PUSH4 0xFFFFFFFF AND PUSH1 0xE0 SHL DUP2 MSTORE PUSH1 0x4 ADD PUSH1 0x20 PUSH1 0x40 MLOAD DUP1 DUP4 SUB DUP2 DUP7 GAS STATICCALL SWAP3 POP POP POP DUP1 ISZERO PUSH2 0x333D JUMPI POP PUSH1 0x40 DUP1 MLOAD PUSH1 0x1F RETURNDATASIZE SWAP1 DUP2 ADD PUSH1 0x1F NOT AND DUP3 ADD SWAP1 SWAP3 MSTORE PUSH2 0x333A SWAP2 DUP2 ADD SWAP1 PUSH2 0x5675 JUMP JUMPDEST PUSH1 0x1 JUMPDEST PUSH2 0x33A0 JUMPI PUSH1 0x40 MLOAD PUSH3 0x461BCD PUSH1 0xE5 SHL DUP2 MSTORE PUSH1 0x20 PUSH1 0x4 DUP3 ADD MSTORE PUSH1 0x2E PUSH1 0x24 DUP3 ADD MSTORE PUSH32 0x45524331393637557067726164653A206E657720696D706C656D656E74617469 PUSH1 0x44 DUP3 ADD MSTORE PUSH14 0x6F6E206973206E6F742055555053 PUSH1 0x90 SHL PUSH1 0x64 DUP3 ADD MSTORE PUSH1 0x84 ADD PUSH2 0x13F8 JUMP JUMPDEST PUSH1 0x0 DUP1 MLOAD PUSH1 0x20 PUSH2 0x57EA DUP4 CODECOPY DUP2 MLOAD SWAP2 MSTORE DUP2 EQ PUSH2 0x340F JUMPI PUSH1 0x40 MLOAD PUSH3 0x461BCD PUSH1 0xE5 SHL DUP2 MSTORE PUSH1 0x20 PUSH1 0x4 DUP3 ADD MSTORE PUSH1 0x29 PUSH1 0x24 DUP3 ADD MSTORE PUSH32 0x45524331393637557067726164653A20756E737570706F727465642070726F78 PUSH1 0x44 DUP3 ADD MSTORE PUSH9 0x1A58589B1955555251 PUSH1 0xBA SHL PUSH1 0x64 DUP3 ADD MSTORE PUSH1 0x84 ADD PUSH2 0x13F8 JUMP JUMPDEST POP PUSH2 0x32DE DUP4 DUP4 DUP4 PUSH2 0x43C4 JUMP JUMPDEST PUSH2 0x135 SLOAD PUSH1 0x0 SWAP1 PUSH1 0x60 SWAP1 DUP3 SWAP1 DUP2 SWAP1 DUP1 PUSH8 0xFFFFFFFFFFFFFFFF DUP2 GT ISZERO PUSH2 0x3442 JUMPI PUSH2 0x3442 PUSH2 0x5331 JUMP JUMPDEST PUSH1 0x40 MLOAD SWAP1 DUP1 DUP3 MSTORE DUP1 PUSH1 0x20 MUL PUSH1 0x20 ADD DUP3 ADD PUSH1 0x40 MSTORE DUP1 ISZERO PUSH2 0x346B JUMPI DUP2 PUSH1 0x20 ADD PUSH1 0x20 DUP3 MUL DUP1 CALLDATASIZE DUP4 CALLDATACOPY ADD SWAP1 POP JUMPDEST POP SWAP4 POP PUSH1 0x0 JUMPDEST DUP2 DUP2 LT ISZERO PUSH2 0x3546 JUMPI PUSH1 0x0 PUSH2 0x3484 DUP3 PUSH2 0x1965 JUMP JUMPDEST SWAP1 POP DUP1 DUP7 DUP4 DUP2 MLOAD DUP2 LT PUSH2 0x3499 JUMPI PUSH2 0x3499 PUSH2 0x555C JUMP JUMPDEST PUSH1 0x20 MUL PUSH1 0x20 ADD ADD DUP2 DUP2 MSTORE POP POP PUSH1 0x0 PUSH2 0x34B1 DUP4 DUP4 PUSH2 0x43E9 JUMP JUMPDEST POP SWAP1 POP PUSH1 0x0 PUSH2 0x3503 PUSH8 0xDE0B6B3A7640000 DUP4 PUSH2 0x135 DUP8 DUP2 SLOAD DUP2 LT PUSH2 0x34D7 JUMPI PUSH2 0x34D7 PUSH2 0x555C JUMP JUMPDEST SWAP1 PUSH1 0x0 MSTORE PUSH1 0x20 PUSH1 0x0 KECCAK256 SWAP1 PUSH1 0x2 MUL ADD PUSH1 0x0 ADD SLOAD PUSH2 0x34F3 SWAP2 SWAP1 PUSH2 0x5549 JUMP JUMPDEST PUSH2 0x34FD SWAP2 SWAP1 PUSH2 0x5634 JUMP JUMPDEST DUP5 PUSH2 0x41A0 JUMP JUMPDEST SWAP1 POP DUP1 PUSH2 0x3510 DUP6 DUP6 PUSH2 0x3C0A JUMP JUMPDEST PUSH2 0x351A SWAP2 SWAP1 PUSH2 0x5634 JUMP JUMPDEST PUSH2 0x3524 SWAP1 DUP9 PUSH2 0x5549 JUMP JUMPDEST SWAP7 POP PUSH2 0x3530 DUP2 DUP8 PUSH2 0x5549 JUMP JUMPDEST SWAP6 POP POP POP POP PUSH2 0x353F DUP2 PUSH1 0x1 ADD SWAP1 JUMP JUMPDEST SWAP1 POP PUSH2 0x3471 JUMP JUMPDEST POP DUP2 PUSH1 0x0 SUB PUSH2 0x355F JUMPI PUSH2 0x146 SLOAD PUSH1 0x2 MUL SWAP5 POP POP POP POP SWAP1 SWAP2 JUMP JUMPDEST PUSH2 0x3569 DUP3 DUP5 PUSH2 0x5653 JUMP JUMPDEST SWAP5 POP POP POP POP SWAP1 SWAP2 JUMP JUMPDEST PUSH2 0x135 SLOAD PUSH1 0x0 SWAP1 DUP2 SWAP1 DUP2 JUMPDEST DUP2 DUP2 LT ISZERO PUSH2 0x3614 JUMPI PUSH1 0x0 DUP6 DUP3 DUP2 MLOAD DUP2 LT PUSH2 0x3599 JUMPI PUSH2 0x3599 PUSH2 0x555C JUMP JUMPDEST PUSH1 0x20 MUL PUSH1 0x20 ADD ADD MLOAD SWAP1 POP PUSH1 0x0 DUP1 PUSH2 0x35B0 DUP5 DUP5 PUSH2 0x43E9 JUMP JUMPDEST SWAP2 POP SWAP2 POP PUSH2 0x35E8 DUP3 PUSH2 0x135 DUP7 DUP2 SLOAD DUP2 LT PUSH2 0x35CC JUMPI PUSH2 0x35CC PUSH2 0x555C JUMP JUMPDEST SWAP1 PUSH1 0x0 MSTORE PUSH1 0x20 PUSH1 0x0 KECCAK256 SWAP1 PUSH1 0x2 MUL ADD PUSH1 0x0 ADD SLOAD PUSH2 0x34FD SWAP2 SWAP1 PUSH2 0x5549 JUMP JUMPDEST PUSH2 0x35F2 SWAP1 DUP9 PUSH2 0x5549 JUMP JUMPDEST SWAP7 POP PUSH2 0x35FE DUP2 DUP8 PUSH2 0x5549 JUMP JUMPDEST SWAP6 POP POP POP POP PUSH2 0x360D DUP2 PUSH1 0x1 ADD SWAP1 JUMP JUMPDEST SWAP1 POP PUSH2 0x357D JUMP JUMPDEST POP PUSH2 0x3622 DUP3 PUSH2 0x137 SLOAD PUSH2 0x3EF2 JUMP JUMPDEST SWAP2 POP POP SWAP2 POP SWAP2 JUMP JUMPDEST PUSH1 0x0 DUP1 PUSH2 0x3638 DUP6 DUP6 DUP6 PUSH2 0x444F JUMP JUMPDEST SWAP1 POP PUSH2 0x3644 DUP5 DUP5 PUSH2 0x30F3 JUMP JUMPDEST PUSH2 0x364E SWAP1 DUP3 PUSH2 0x5653 JUMP JUMPDEST SWAP6 SWAP5 POP POP POP POP POP JUMP JUMPDEST PUSH2 0x13AE PUSH2 0x4499 JUMP JUMPDEST PUSH1 0x0 PUSH2 0x3669 PUSH2 0x312F JUMP JUMPDEST PUSH2 0x148 SLOAD PUSH2 0x100 SWAP1 DIV PUSH1 0xFF AND PUSH2 0x3692 JUMPI PUSH1 0x40 MLOAD PUSH4 0x31B0D35 PUSH1 0xE1 SHL DUP2 MSTORE PUSH1 0x4 ADD PUSH1 0x40 MLOAD DUP1 SWAP2 SUB SWAP1 REVERT JUMPDEST PUSH1 0x0 PUSH2 0x133 DUP6 DUP2 SLOAD DUP2 LT PUSH2 0x36A8 JUMPI PUSH2 0x36A8 PUSH2 0x555C JUMP JUMPDEST PUSH1 0x0 SWAP2 DUP3 MSTORE PUSH1 0x20 SWAP1 SWAP2 KECCAK256 ADD SLOAD PUSH1 0x40 MLOAD PUSH4 0x70A08231 PUSH1 0xE0 SHL DUP2 MSTORE PUSH1 0x1 PUSH1 0x1 PUSH1 0xA0 SHL SUB DUP7 DUP2 AND PUSH1 0x4 DUP4 ADD MSTORE SWAP1 SWAP2 AND SWAP1 PUSH4 0x70A08231 SWAP1 PUSH1 0x24 ADD PUSH1 0x20 PUSH1 0x40 MLOAD DUP1 DUP4 SUB DUP2 DUP7 GAS STATICCALL ISZERO DUP1 ISZERO PUSH2 0x36FB JUMPI RETURNDATASIZE PUSH1 0x0 DUP1 RETURNDATACOPY RETURNDATASIZE PUSH1 0x0 REVERT JUMPDEST POP POP POP POP PUSH1 0x40 MLOAD RETURNDATASIZE PUSH1 0x1F NOT PUSH1 0x1F DUP3 ADD AND DUP3 ADD DUP1 PUSH1 0x40 MSTORE POP DUP2 ADD SWAP1 PUSH2 0x371F SWAP2 SWAP1 PUSH2 0x5675 JUMP JUMPDEST SWAP1 POP DUP1 PUSH1 0x0 SUB PUSH2 0x374C JUMPI PUSH1 0x40 MLOAD PUSH4 0x3FE8C5EB PUSH1 0xE0 SHL DUP2 MSTORE PUSH1 0x4 DUP2 ADD DUP3 SWAP1 MSTORE PUSH1 0x24 DUP2 ADD DUP3 SWAP1 MSTORE PUSH1 0x44 ADD PUSH2 0x13F8 JUMP JUMPDEST PUSH1 0x0 PUSH2 0x136 DUP7 DUP2 SLOAD DUP2 LT PUSH2 0x3762 JUMPI PUSH2 0x3762 PUSH2 0x555C JUMP JUMPDEST SWAP1 PUSH1 0x0 MSTORE PUSH1 0x20 PUSH1 0x0 KECCAK256 ADD SLOAD SWAP1 POP PUSH2 0x3779 DUP3 DUP3 PUSH2 0x41A0 JUMP JUMPDEST SWAP3 POP PUSH2 0x133 DUP7 DUP2 SLOAD DUP2 LT PUSH2 0x378F JUMPI PUSH2 0x378F PUSH2 0x555C JUMP JUMPDEST PUSH1 0x0 SWAP2 DUP3 MSTORE PUSH1 0x20 SWAP1 SWAP2 KECCAK256 ADD SLOAD PUSH1 0x40 MLOAD PUSH4 0x2770A7EB PUSH1 0xE2 SHL DUP2 MSTORE PUSH1 0x1 PUSH1 0x1 PUSH1 0xA0 SHL SUB DUP8 DUP2 AND PUSH1 0x4 DUP4 ADD MSTORE PUSH1 0x24 DUP3 ADD DUP6 SWAP1 MSTORE SWAP1 SWAP2 AND SWAP1 PUSH4 0x9DC29FAC SWAP1 PUSH1 0x44 ADD PUSH1 0x0 PUSH1 0x40 MLOAD DUP1 DUP4 SUB DUP2 PUSH1 0x0 DUP8 DUP1 EXTCODESIZE ISZERO DUP1 ISZERO PUSH2 0x37E6 JUMPI PUSH1 0x0 DUP1 REVERT JUMPDEST POP GAS CALL ISZERO DUP1 ISZERO PUSH2 0x37FA JUMPI RETURNDATASIZE PUSH1 0x0 DUP1 RETURNDATACOPY RETURNDATASIZE PUSH1 0x0 REVERT JUMPDEST POP POP POP POP DUP3 PUSH2 0x3808 ADDRESS PUSH2 0x3B7F JUMP JUMPDEST LT ISZERO PUSH2 0x381A JUMPI PUSH2 0x3817 ADDRESS PUSH2 0x3B7F JUMP JUMPDEST SWAP3 POP JUMPDEST DUP4 PUSH1 0x1 PUSH1 0x1 PUSH1 0xA0 SHL SUB AND DUP6 PUSH1 0x1 PUSH1 0x1 PUSH1 0xA0 SHL SUB AND DUP8 PUSH32 0x4716C9926CE32100E8A5B6AD71AF5500AC55514D7B0C8F80F209856C9DFAEB92 DUP6 DUP8 PUSH1 0x0 PUSH1 0x40 MLOAD PUSH2 0x3874 SWAP4 SWAP3 SWAP2 SWAP1 SWAP3 DUP4 MSTORE PUSH1 0x20 DUP4 ADD SWAP2 SWAP1 SWAP2 MSTORE PUSH1 0x40 DUP3 ADD MSTORE PUSH1 0x60 ADD SWAP1 JUMP JUMPDEST PUSH1 0x40 MLOAD DUP1 SWAP2 SUB SWAP1 LOG4 PUSH2 0x3886 DUP5 DUP5 PUSH2 0x465A JUMP JUMPDEST POP POP SWAP4 SWAP3 POP POP POP JUMP JUMPDEST PUSH1 0x0 DUP1 DUP4 PUSH1 0x0 SUB PUSH2 0x38B3 JUMPI PUSH1 0x40 MLOAD PUSH4 0x2A9FFAB7 PUSH1 0xE2 SHL DUP2 MSTORE PUSH1 0x4 ADD PUSH1 0x40 MLOAD DUP1 SWAP2 SUB SWAP1 REVERT JUMPDEST PUSH2 0x38BD DUP5 DUP5 PUSH2 0x41A0 JUMP JUMPDEST SWAP2 POP PUSH2 0x38E7 DUP3 PUSH2 0x142 DUP8 DUP2 SLOAD DUP2 LT PUSH2 0x38D7 JUMPI PUSH2 0x38D7 PUSH2 0x555C JUMP JUMPDEST SWAP1 PUSH1 0x0 MSTORE PUSH1 0x20 PUSH1 0x0 KECCAK256 ADD SLOAD PUSH2 0x3EF2 JUMP JUMPDEST SWAP1 POP SWAP4 POP SWAP4 SWAP2 POP POP JUMP JUMPDEST PUSH1 0x0 DUP3 PUSH1 0x0 SUB PUSH2 0x3904 JUMPI POP PUSH1 0x0 NOT PUSH2 0x114E JUMP JUMPDEST PUSH2 0x114B PUSH2 0x34FD DUP4 PUSH2 0x3B6E JUMP JUMPDEST PUSH1 0x0 PUSH2 0x391A PUSH2 0x3D24 JUMP JUMPDEST PUSH2 0x3922 PUSH2 0x312F JUMP JUMPDEST PUSH1 0x0 DUP1 PUSH2 0x392D PUSH2 0x3D4E JUMP JUMPDEST SWAP2 POP SWAP2 POP PUSH1 0x0 DUP1 PUSH2 0x393E DUP5 DUP5 PUSH2 0x3DCD JUMP JUMPDEST SWAP2 POP SWAP2 POP PUSH2 0x394E DUP10 DUP6 DUP5 DUP5 PUSH2 0x3E1E JUMP JUMPDEST PUSH1 0x0 DUP1 PUSH2 0x395C DUP12 DUP6 DUP6 PUSH2 0x3E58 JUMP JUMPDEST SWAP2 POP SWAP2 POP DUP2 PUSH1 0x0 SUB PUSH2 0x3981 JUMPI PUSH1 0x40 MLOAD PUSH4 0xF3E39B5D PUSH1 0xE0 SHL DUP2 MSTORE PUSH1 0x4 ADD PUSH1 0x40 MLOAD DUP1 SWAP2 SUB SWAP1 REVERT JUMPDEST PUSH2 0x398B DUP2 DUP4 PUSH2 0x5621 JUMP JUMPDEST SWAP7 POP DUP10 DUP8 LT ISZERO PUSH2 0x39B8 JUMPI PUSH1 0x40 MLOAD PUSH4 0x54CDE313 PUSH1 0xE0 SHL DUP2 MSTORE PUSH1 0x4 DUP2 ADD DUP12 SWAP1 MSTORE PUSH1 0x24 DUP2 ADD DUP9 SWAP1 MSTORE PUSH1 0x44 ADD PUSH2 0x13F8 JUMP JUMPDEST PUSH1 0x40 DUP1 MLOAD DUP13 DUP2 MSTORE PUSH1 0x20 DUP2 ADD DUP10 SWAP1 MSTORE SWAP1 DUP2 ADD DUP3 SWAP1 MSTORE PUSH1 0x1 PUSH1 0x1 PUSH1 0xA0 SHL SUB DUP1 DUP11 AND SWAP2 SWAP1 DUP12 AND SWAP1 PUSH32 0x2D184907C04672620E3C88A12A39D6A603DD26373427842AA172EB3E5BFCFF07 SWAP1 PUSH1 0x60 ADD PUSH1 0x40 MLOAD DUP1 SWAP2 SUB SWAP1 LOG3 PUSH2 0x3A14 DUP12 DUP4 DUP12 PUSH2 0x3F11 JUMP JUMPDEST PUSH2 0x27C9 DUP9 DUP9 DUP4 PUSH2 0x4038 JUMP JUMPDEST PUSH1 0x0 SLOAD PUSH2 0x100 SWAP1 DIV PUSH1 0xFF AND PUSH2 0x3A46 JUMPI PUSH1 0x40 MLOAD PUSH3 0x461BCD PUSH1 0xE5 SHL DUP2 MSTORE PUSH1 0x4 ADD PUSH2 0x13F8 SWAP1 PUSH2 0x568E JUMP JUMPDEST PUSH2 0x3A72 PUSH2 0x3A5B PUSH2 0x200 DUP4 ADD PUSH2 0x1E0 DUP5 ADD PUSH2 0x51BC JUMP JUMPDEST PUSH2 0x3A6D PUSH2 0x220 DUP5 ADD PUSH2 0x200 DUP6 ADD PUSH2 0x51BC JUMP JUMPDEST PUSH2 0x468B JUMP JUMPDEST PUSH2 0x3A7B DUP2 PUSH2 0x46CE JUMP JUMPDEST PUSH2 0x3A89 DUP2 PUSH2 0x220 ADD CALLDATALOAD PUSH2 0x4933 JUMP JUMPDEST PUSH2 0x1495 DUP2 PUSH2 0x240 ADD CALLDATALOAD PUSH2 0x498D JUMP JUMPDEST PUSH1 0x0 DUP1 PUSH2 0x3AA3 DUP4 PUSH2 0x3B6E JUMP JUMPDEST SWAP1 POP PUSH2 0x15DE DUP2 PUSH2 0x2873 DUP7 DUP3 PUSH2 0x5621 JUMP JUMPDEST PUSH1 0x0 PUSH2 0x17D DUP3 DUP2 SLOAD DUP2 LT PUSH2 0x3AC9 JUMPI PUSH2 0x3AC9 PUSH2 0x555C JUMP JUMPDEST PUSH1 0x0 SWAP2 DUP3 MSTORE PUSH1 0x20 DUP1 DUP4 KECCAK256 PUSH1 0x40 DUP1 MLOAD DUP1 DUP3 ADD SWAP1 SWAP2 MSTORE PUSH1 0x2 SWAP1 SWAP4 MUL ADD DUP1 SLOAD DUP4 MSTORE PUSH1 0x1 ADD SLOAD SWAP1 DUP3 ADD MSTORE SWAP2 POP PUSH2 0x3AFA DUP4 PUSH2 0x1965 JUMP JUMPDEST SWAP1 POP PUSH1 0x0 PUSH2 0x3B08 DUP4 DUP4 PUSH2 0x49CB JUMP JUMPDEST SWAP1 POP DUP1 PUSH2 0x17D DUP6 DUP2 SLOAD DUP2 LT PUSH2 0x3B1F JUMPI PUSH2 0x3B1F PUSH2 0x555C JUMP JUMPDEST PUSH1 0x0 SWAP2 DUP3 MSTORE PUSH1 0x20 SWAP1 SWAP2 KECCAK256 PUSH1 0x2 SWAP1 SWAP2 MUL ADD SSTORE DUP3 MLOAD PUSH1 0x40 MLOAD DUP6 SWAP2 PUSH32 0x19156E9379C7BBBCE8F646CE5EE30BA860B8F954717405F3D5859A6C1A21AE60 SWAP2 PUSH2 0x1FEC SWAP2 SWAP1 DUP6 SWAP1 SWAP2 DUP3 MSTORE PUSH1 0x20 DUP3 ADD MSTORE PUSH1 0x40 ADD SWAP1 JUMP JUMPDEST PUSH1 0x0 DUP2 PUSH2 0x12F SLOAD PUSH2 0x114E SWAP2 SWAP1 PUSH2 0x5621 JUMP JUMPDEST PUSH2 0x24A SLOAD PUSH1 0x40 MLOAD PUSH4 0x70A08231 PUSH1 0xE0 SHL DUP2 MSTORE PUSH1 0x1 PUSH1 0x1 PUSH1 0xA0 SHL SUB DUP4 DUP2 AND PUSH1 0x4 DUP4 ADD MSTORE PUSH1 0x0 SWAP3 AND SWAP1 PUSH4 0x70A08231 SWAP1 PUSH1 0x24 ADD PUSH1 0x20 PUSH1 0x40 MLOAD DUP1 DUP4 SUB DUP2 DUP7 GAS STATICCALL ISZERO DUP1 ISZERO PUSH2 0x3BCB JUMPI RETURNDATASIZE PUSH1 0x0 DUP1 RETURNDATACOPY RETURNDATASIZE PUSH1 0x0 REVERT JUMPDEST POP POP POP POP PUSH1 0x40 MLOAD RETURNDATASIZE PUSH1 0x1F NOT PUSH1 0x1F DUP3 ADD AND DUP3 ADD DUP1 PUSH1 0x40 MSTORE POP DUP2 ADD SWAP1 PUSH2 0x114E SWAP2 SWAP1 PUSH2 0x5675 JUMP JUMPDEST DUP1 PUSH2 0x12F PUSH1 0x0 DUP3 DUP3 SLOAD PUSH2 0x3C02 SWAP2 SWAP1 PUSH2 0x5549 JUMP JUMPDEST SWAP1 SWAP2 SSTORE POP POP POP JUMP JUMPDEST PUSH1 0x0 DUP1 PUSH2 0x145 DUP5 DUP2 SLOAD DUP2 LT PUSH2 0x3C21 JUMPI PUSH2 0x3C21 PUSH2 0x555C JUMP JUMPDEST SWAP1 PUSH1 0x0 MSTORE PUSH1 0x20 PUSH1 0x0 KECCAK256 ADD SLOAD SWAP1 POP PUSH1 0x0 PUSH2 0x17D DUP6 DUP2 SLOAD DUP2 LT PUSH2 0x3C44 JUMPI PUSH2 0x3C44 PUSH2 0x555C JUMP JUMPDEST SWAP1 PUSH1 0x0 MSTORE PUSH1 0x20 PUSH1 0x0 KECCAK256 SWAP1 PUSH1 0x2 MUL ADD PUSH1 0x0 ADD SLOAD SWAP1 POP PUSH2 0x3C65 PUSH2 0x17E SLOAD NUMBER LT ISZERO SWAP1 JUMP JUMPDEST ISZERO PUSH2 0x3CB7 JUMPI PUSH2 0x3CB4 PUSH2 0x17D DUP7 DUP2 SLOAD DUP2 LT PUSH2 0x3C81 JUMPI PUSH2 0x3C81 PUSH2 0x555C JUMP JUMPDEST SWAP1 PUSH1 0x0 MSTORE PUSH1 0x20 PUSH1 0x0 KECCAK256 SWAP1 PUSH1 0x2 MUL ADD PUSH1 0x40 MLOAD DUP1 PUSH1 0x40 ADD PUSH1 0x40 MSTORE SWAP1 DUP2 PUSH1 0x0 DUP3 ADD SLOAD DUP2 MSTORE PUSH1 0x20 ADD PUSH1 0x1 DUP3 ADD SLOAD DUP2 MSTORE POP POP DUP6 PUSH2 0x49CB JUMP JUMPDEST SWAP1 POP JUMPDEST DUP4 DUP2 LT PUSH2 0x3CC6 JUMPI POP SWAP1 POP PUSH2 0x114E JUMP JUMPDEST DUP1 PUSH2 0x3CD1 DUP6 DUP5 PUSH2 0x5634 JUMP JUMPDEST PUSH2 0x364E SWAP2 SWAP1 PUSH2 0x5653 JUMP JUMPDEST PUSH1 0x0 PUSH8 0xDE0B6B3A7640000 PUSH2 0x3CF0 DUP2 DUP8 PUSH2 0x5621 JUMP JUMPDEST DUP6 PUSH2 0x3CFC DUP10 DUP8 DUP8 PUSH2 0x444F JUMP JUMPDEST PUSH2 0x3D06 SWAP2 SWAP1 PUSH2 0x5634 JUMP JUMPDEST PUSH2 0x3D10 SWAP2 SWAP1 PUSH2 0x5653 JUMP JUMPDEST PUSH2 0x3D1A SWAP2 SWAP1 PUSH2 0x5653 JUMP JUMPDEST SWAP7 SWAP6 POP POP POP POP POP POP JUMP JUMPDEST PUSH2 0x148 SLOAD PUSH2 0x100 SWAP1 DIV PUSH1 0xFF AND ISZERO PUSH2 0x13AE JUMPI PUSH1 0x40 MLOAD PUSH4 0x1CA61D77 PUSH1 0xE0 SHL DUP2 MSTORE PUSH1 0x4 ADD PUSH1 0x40 MLOAD DUP1 SWAP2 SUB SWAP1 REVERT JUMPDEST PUSH1 0x0 PUSH1 0x60 PUSH2 0x3D5A PUSH2 0x1C33 JUMP JUMPDEST PUSH2 0x3D62 PUSH2 0x341B JUMP JUMPDEST SWAP2 POP SWAP2 POP SWAP1 SWAP2 JUMP JUMPDEST PUSH2 0x3D74 DUP3 DUP3 PUSH2 0x4A1B JUMP JUMPDEST PUSH2 0x149 DUP4 DUP2 SLOAD DUP2 LT PUSH2 0x3D88 JUMPI PUSH2 0x3D88 PUSH2 0x555C JUMP JUMPDEST SWAP1 PUSH1 0x0 MSTORE PUSH1 0x20 PUSH1 0x0 KECCAK256 ADD PUSH1 0x0 DUP3 DUP3 SLOAD PUSH2 0x3DA1 SWAP2 SWAP1 PUSH2 0x56D9 JUMP JUMPDEST SWAP3 POP POP DUP2 SWAP1 SSTORE POP DUP1 PUSH2 0x14A DUP4 DUP2 SLOAD DUP2 LT PUSH2 0x3DBD JUMPI PUSH2 0x3DBD PUSH2 0x555C JUMP JUMPDEST PUSH1 0x0 SWAP2 DUP3 MSTORE PUSH1 0x20 SWAP1 SWAP2 KECCAK256 ADD SSTORE POP POP JUMP JUMPDEST PUSH1 0x0 DUP1 PUSH2 0x3DD9 DUP4 PUSH2 0x3572 JUMP JUMPDEST SWAP1 SWAP3 POP SWAP1 POP PUSH1 0x0 PUSH2 0x3DEA DUP4 DUP4 PUSH2 0x38F1 JUMP JUMPDEST SWAP1 POP DUP5 DUP2 GT PUSH2 0x3E16 JUMPI PUSH1 0x40 MLOAD PUSH4 0x79121201 PUSH1 0xE0 SHL DUP2 MSTORE PUSH1 0x4 DUP2 ADD DUP3 SWAP1 MSTORE PUSH1 0x24 DUP2 ADD DUP7 SWAP1 MSTORE PUSH1 0x44 ADD PUSH2 0x13F8 JUMP JUMPDEST POP SWAP3 POP SWAP3 SWAP1 POP JUMP JUMPDEST PUSH1 0x0 PUSH2 0x3E2B DUP5 DUP5 DUP5 PUSH2 0x362A JUMP JUMPDEST SWAP1 POP DUP5 DUP2 LT ISZERO PUSH2 0x329C JUMPI PUSH1 0x40 MLOAD PUSH4 0xA5DB715D PUSH1 0xE0 SHL DUP2 MSTORE PUSH1 0x4 DUP2 ADD DUP7 SWAP1 MSTORE PUSH1 0x24 DUP2 ADD DUP3 SWAP1 MSTORE PUSH1 0x44 ADD PUSH2 0x13F8 JUMP JUMPDEST PUSH1 0x0 DUP1 DUP5 PUSH1 0x0 SUB PUSH2 0x3E7C JUMPI PUSH1 0x40 MLOAD PUSH4 0x2A9FFAB7 PUSH1 0xE2 SHL DUP2 MSTORE PUSH1 0x4 ADD PUSH1 0x40 MLOAD DUP1 SWAP2 SUB SWAP1 REVERT JUMPDEST PUSH2 0x3E8F DUP6 PUSH2 0x3E8A DUP7 DUP7 PUSH2 0x30F3 JUMP JUMPDEST PUSH2 0x3EF2 JUMP JUMPDEST SWAP2 POP PUSH2 0x38E7 DUP3 PUSH2 0x13B SLOAD PUSH2 0x3EF2 JUMP JUMPDEST PUSH1 0x0 PUSH2 0x3EAA DUP8 DUP7 PUSH2 0x3C0A JUMP JUMPDEST SWAP1 POP PUSH1 0x0 PUSH2 0x3EBB DUP6 DUP4 DUP9 DUP8 DUP8 PUSH2 0x3CDB JUMP JUMPDEST SWAP1 POP DUP7 DUP2 LT ISZERO PUSH2 0x3EE8 JUMPI PUSH1 0x40 MLOAD PUSH4 0xC39B739F PUSH1 0xE0 SHL DUP2 MSTORE PUSH1 0x4 DUP2 ADD DUP9 SWAP1 MSTORE PUSH1 0x24 DUP2 ADD DUP3 SWAP1 MSTORE PUSH1 0x44 ADD PUSH2 0x13F8 JUMP JUMPDEST POP POP POP POP POP POP POP POP JUMP JUMPDEST PUSH1 0x0 PUSH8 0xDE0B6B3A7640000 PUSH2 0x3F07 DUP4 DUP6 PUSH2 0x5634 JUMP JUMPDEST PUSH2 0x114B SWAP2 SWAP1 PUSH2 0x5653 JUMP JUMPDEST PUSH2 0x3F1B DUP4 DUP4 PUSH2 0x4A97 JUMP JUMPDEST PUSH2 0x131 SLOAD PUSH1 0x40 MLOAD PUSH4 0x2770A7EB PUSH1 0xE2 SHL DUP2 MSTORE PUSH1 0x1 PUSH1 0x1 PUSH1 0xA0 SHL SUB DUP4 DUP2 AND PUSH1 0x4 DUP4 ADD MSTORE PUSH1 0x24 DUP3 ADD DUP7 SWAP1 MSTORE SWAP1 SWAP2 AND SWAP1 PUSH4 0x9DC29FAC SWAP1 PUSH1 0x44 ADD JUMPDEST PUSH1 0x0 PUSH1 0x40 MLOAD DUP1 DUP4 SUB DUP2 PUSH1 0x0 DUP8 DUP1 EXTCODESIZE ISZERO DUP1 ISZERO PUSH2 0x3F6B JUMPI PUSH1 0x0 DUP1 REVERT JUMPDEST POP GAS CALL ISZERO DUP1 ISZERO PUSH2 0x3F7F JUMPI RETURNDATASIZE PUSH1 0x0 DUP1 RETURNDATACOPY RETURNDATASIZE PUSH1 0x0 REVERT JUMPDEST POP POP POP POP POP POP POP JUMP JUMPDEST PUSH2 0x3F93 DUP5 DUP5 DUP5 PUSH2 0x4ACD JUMP JUMPDEST PUSH2 0x133 DUP5 DUP2 SLOAD DUP2 LT PUSH2 0x3FA7 JUMPI PUSH2 0x3FA7 PUSH2 0x555C JUMP JUMPDEST PUSH1 0x0 SWAP2 DUP3 MSTORE PUSH1 0x20 SWAP1 SWAP2 KECCAK256 ADD SLOAD PUSH1 0x40 MLOAD PUSH4 0x40C10F19 PUSH1 0xE0 SHL DUP2 MSTORE PUSH1 0x1 PUSH1 0x1 PUSH1 0xA0 SHL SUB DUP4 DUP2 AND PUSH1 0x4 DUP4 ADD MSTORE PUSH1 0x24 DUP3 ADD DUP7 SWAP1 MSTORE SWAP1 SWAP2 AND SWAP1 PUSH4 0x40C10F19 SWAP1 PUSH1 0x44 ADD JUMPDEST PUSH1 0x0 PUSH1 0x40 MLOAD DUP1 DUP4 SUB DUP2 PUSH1 0x0 DUP8 DUP1 EXTCODESIZE ISZERO DUP1 ISZERO PUSH2 0x3FFF JUMPI PUSH1 0x0 DUP1 REVERT JUMPDEST POP GAS CALL ISZERO DUP1 ISZERO PUSH2 0x3EE8 JUMPI RETURNDATASIZE PUSH1 0x0 DUP1 RETURNDATACOPY RETURNDATASIZE PUSH1 0x0 REVERT JUMPDEST PUSH2 0x24A SLOAD PUSH1 0x0 SWAP1 PUSH2 0x402F SWAP1 PUSH1 0x1 PUSH1 0x1 PUSH1 0xA0 SHL SUB AND CALLER ADDRESS DUP6 PUSH2 0x4B11 JUMP JUMPDEST POP PUSH1 0x0 SWAP3 SWAP2 POP POP JUMP JUMPDEST PUSH1 0x0 PUSH2 0x4047 PUSH2 0x139 SLOAD DUP4 PUSH2 0x3EF2 JUMP JUMPDEST SWAP1 POP DUP1 PUSH2 0x12F PUSH1 0x0 DUP3 DUP3 SLOAD PUSH2 0x405C SWAP2 SWAP1 PUSH2 0x5549 JUMP JUMPDEST SWAP1 SWAP2 SSTORE POP POP PUSH2 0x143 SLOAD PUSH2 0x4081 SWAP1 PUSH1 0x1 PUSH1 0x1 PUSH1 0xA0 SHL SUB AND PUSH2 0x407C DUP4 DUP6 PUSH2 0x5621 JUMP JUMPDEST PUSH2 0x465A JUMP JUMPDEST PUSH2 0x408B DUP5 DUP5 PUSH2 0x465A JUMP JUMPDEST POP POP POP POP JUMP JUMPDEST PUSH2 0x135 SLOAD PUSH1 0x60 SWAP1 DUP1 PUSH8 0xFFFFFFFFFFFFFFFF DUP2 GT ISZERO PUSH2 0x40B1 JUMPI PUSH2 0x40B1 PUSH2 0x5331 JUMP JUMPDEST PUSH1 0x40 MLOAD SWAP1 DUP1 DUP3 MSTORE DUP1 PUSH1 0x20 MUL PUSH1 0x20 ADD DUP3 ADD PUSH1 0x40 MSTORE DUP1 ISZERO PUSH2 0x40DA JUMPI DUP2 PUSH1 0x20 ADD PUSH1 0x20 DUP3 MUL DUP1 CALLDATASIZE DUP4 CALLDATACOPY ADD SWAP1 POP JUMPDEST POP SWAP2 POP PUSH1 0x0 JUMPDEST DUP2 DUP2 LT ISZERO PUSH2 0x4116 JUMPI PUSH2 0x40F1 DUP2 PUSH2 0x1965 JUMP JUMPDEST DUP4 DUP3 DUP2 MLOAD DUP2 LT PUSH2 0x4103 JUMPI PUSH2 0x4103 PUSH2 0x555C JUMP JUMPDEST PUSH1 0x20 SWAP1 DUP2 MUL SWAP2 SWAP1 SWAP2 ADD ADD MSTORE PUSH1 0x1 ADD PUSH2 0x40E0 JUMP JUMPDEST POP POP SWAP1 JUMP JUMPDEST PUSH1 0x0 DUP1 DUP5 PUSH1 0x0 SUB PUSH2 0x413F JUMPI PUSH1 0x40 MLOAD PUSH4 0x2A9FFAB7 PUSH1 0xE2 SHL DUP2 MSTORE PUSH1 0x4 ADD PUSH1 0x40 MLOAD DUP1 SWAP2 SUB SWAP1 REVERT JUMPDEST PUSH2 0x414D DUP6 PUSH2 0x3E8A DUP7 DUP7 PUSH2 0x30F3 JUMP JUMPDEST SWAP2 POP PUSH2 0x38E7 DUP3 PUSH2 0x13A SLOAD PUSH2 0x3EF2 JUMP JUMPDEST PUSH2 0x4166 DUP4 DUP4 PUSH2 0x4B7C JUMP JUMPDEST PUSH2 0x131 SLOAD PUSH1 0x40 MLOAD PUSH4 0x40C10F19 PUSH1 0xE0 SHL DUP2 MSTORE PUSH1 0x1 PUSH1 0x1 PUSH1 0xA0 SHL SUB DUP4 DUP2 AND PUSH1 0x4 DUP4 ADD MSTORE PUSH1 0x24 DUP3 ADD DUP7 SWAP1 MSTORE SWAP1 SWAP2 AND SWAP1 PUSH4 0x40C10F19 SWAP1 PUSH1 0x44 ADD PUSH2 0x3F51 JUMP JUMPDEST PUSH1 0x0 DUP2 PUSH2 0x3F07 PUSH8 0xDE0B6B3A7640000 DUP6 PUSH2 0x5634 JUMP JUMPDEST PUSH2 0x41C0 DUP5 DUP5 DUP5 PUSH2 0x4B9E JUMP JUMPDEST PUSH2 0x133 DUP5 DUP2 SLOAD DUP2 LT PUSH2 0x41D4 JUMPI PUSH2 0x41D4 PUSH2 0x555C JUMP JUMPDEST PUSH1 0x0 SWAP2 DUP3 MSTORE PUSH1 0x20 SWAP1 SWAP2 KECCAK256 ADD SLOAD PUSH1 0x40 MLOAD PUSH4 0x2770A7EB PUSH1 0xE2 SHL DUP2 MSTORE PUSH1 0x1 PUSH1 0x1 PUSH1 0xA0 SHL SUB DUP4 DUP2 AND PUSH1 0x4 DUP4 ADD MSTORE PUSH1 0x24 DUP3 ADD DUP7 SWAP1 MSTORE SWAP1 SWAP2 AND SWAP1 PUSH4 0x9DC29FAC SWAP1 PUSH1 0x44 ADD PUSH2 0x3FE5 JUMP JUMPDEST PUSH1 0x0 DUP1 PUSH2 0x4224 DUP8 DUP7 DUP7 PUSH2 0x388F JUMP JUMPDEST POP SWAP2 POP PUSH2 0x4231 DUP7 DUP5 PUSH2 0x3EF2 JUMP JUMPDEST PUSH2 0x423B SWAP1 DUP4 PUSH2 0x5549 JUMP JUMPDEST SWAP2 POP PUSH2 0x424A DUP3 PUSH2 0x13F SLOAD PUSH2 0x3EF2 JUMP JUMPDEST SWAP1 POP SWAP6 POP SWAP6 SWAP4 POP POP POP POP JUMP JUMPDEST PUSH1 0x0 DUP1 DUP4 PUSH1 0x0 SUB PUSH2 0x427A JUMPI PUSH1 0x40 MLOAD PUSH4 0x2A9FFAB7 PUSH1 0xE2 SHL DUP2 MSTORE PUSH1 0x4 ADD PUSH1 0x40 MLOAD DUP1 SWAP2 SUB SWAP1 REVERT JUMPDEST PUSH2 0x4284 DUP5 DUP5 PUSH2 0x41A0 JUMP JUMPDEST SWAP2 POP PUSH2 0x38E7 DUP3 PUSH2 0x141 DUP8 DUP2 SLOAD DUP2 LT PUSH2 0x38D7 JUMPI PUSH2 0x38D7 PUSH2 0x555C JUMP JUMPDEST PUSH1 0x0 DUP1 PUSH1 0x0 DUP1 PUSH1 0x0 PUSH2 0x42AF DUP7 PUSH2 0x3572 JUMP JUMPDEST SWAP2 POP SWAP2 POP PUSH1 0x0 PUSH2 0x42BF DUP4 DUP4 PUSH2 0x30F3 JUMP JUMPDEST SWAP1 POP DUP9 PUSH2 0x42D4 PUSH8 0xDE0B6B3A7640000 DUP11 PUSH2 0x5621 JUMP JUMPDEST PUSH2 0x42DE SWAP1 DUP13 PUSH2 0x5634 JUMP JUMPDEST PUSH2 0x42E8 SWAP2 SWAP1 PUSH2 0x5653 JUMP JUMPDEST SWAP5 POP PUSH2 0x42F4 DUP6 DUP3 PUSH2 0x41A0 JUMP JUMPDEST SWAP6 POP PUSH2 0x4300 DUP11 DUP11 PUSH2 0x41A0 JUMP JUMPDEST PUSH2 0x430A SWAP1 DUP7 PUSH2 0x5549 JUMP JUMPDEST SWAP5 POP PUSH2 0x4319 DUP6 PUSH2 0x140 SLOAD PUSH2 0x3EF2 JUMP JUMPDEST SWAP4 POP POP POP POP SWAP5 POP SWAP5 POP SWAP5 SWAP2 POP POP JUMP JUMPDEST PUSH1 0x1 PUSH1 0x1 PUSH1 0xA0 SHL SUB DUP2 AND EXTCODESIZE PUSH2 0x4395 JUMPI PUSH1 0x40 MLOAD PUSH3 0x461BCD PUSH1 0xE5 SHL DUP2 MSTORE PUSH1 0x20 PUSH1 0x4 DUP3 ADD MSTORE PUSH1 0x2D PUSH1 0x24 DUP3 ADD MSTORE PUSH32 0x455243313936373A206E657720696D706C656D656E746174696F6E206973206E PUSH1 0x44 DUP3 ADD MSTORE PUSH13 0x1BDD08184818DBDB9D1C9858DD PUSH1 0x9A SHL PUSH1 0x64 DUP3 ADD MSTORE PUSH1 0x84 ADD PUSH2 0x13F8 JUMP JUMPDEST PUSH1 0x0 DUP1 MLOAD PUSH1 0x20 PUSH2 0x57EA DUP4 CODECOPY DUP2 MLOAD SWAP2 MSTORE DUP1 SLOAD PUSH1 0x1 PUSH1 0x1 PUSH1 0xA0 SHL SUB NOT AND PUSH1 0x1 PUSH1 0x1 PUSH1 0xA0 SHL SUB SWAP3 SWAP1 SWAP3 AND SWAP2 SWAP1 SWAP2 OR SWAP1 SSTORE JUMP JUMPDEST PUSH2 0x43CD DUP4 PUSH2 0x4BF7 JUMP JUMPDEST PUSH1 0x0 DUP3 MLOAD GT DUP1 PUSH2 0x43DA JUMPI POP DUP1 JUMPDEST ISZERO PUSH2 0x32DE JUMPI PUSH2 0x408B DUP4 DUP4 PUSH2 0x4C37 JUMP JUMPDEST PUSH1 0x0 DUP1 PUSH1 0x0 PUSH2 0x43F8 DUP6 DUP6 PUSH2 0x4A1B JUMP JUMPDEST PUSH2 0x149 DUP7 DUP2 SLOAD DUP2 LT PUSH2 0x440C JUMPI PUSH2 0x440C PUSH2 0x555C JUMP JUMPDEST SWAP1 PUSH1 0x0 MSTORE PUSH1 0x20 PUSH1 0x0 KECCAK256 ADD SLOAD PUSH2 0x4421 SWAP2 SWAP1 PUSH2 0x56D9 JUMP JUMPDEST SWAP1 POP PUSH1 0x0 DUP2 SGT ISZERO PUSH2 0x3E16 JUMPI DUP1 SWAP2 POP PUSH2 0x4445 PUSH2 0x443F PUSH2 0x138 SLOAD DUP7 PUSH2 0x3EF2 JUMP JUMPDEST DUP4 PUSH2 0x3EF2 JUMP JUMPDEST SWAP3 POP POP SWAP3 POP SWAP3 SWAP1 POP JUMP JUMPDEST PUSH1 0x0 DUP4 PUSH2 0x445C DUP5 DUP5 PUSH2 0x38F1 JUMP JUMPDEST GT PUSH2 0x4469 JUMPI POP PUSH1 0x0 PUSH2 0x11CE JUMP JUMPDEST PUSH2 0x4473 DUP4 DUP6 PUSH2 0x5634 JUMP JUMPDEST PUSH8 0xDE0B6B3A7640000 PUSH2 0x4485 DUP5 PUSH2 0x3B6E JUMP JUMPDEST PUSH2 0x448F SWAP2 SWAP1 PUSH2 0x5634 JUMP JUMPDEST PUSH2 0x11CB SWAP2 SWAP1 PUSH2 0x5621 JUMP JUMPDEST PUSH2 0x135 SLOAD PUSH1 0x0 SWAP1 DUP2 DUP2 PUSH8 0xFFFFFFFFFFFFFFFF DUP2 GT ISZERO PUSH2 0x44BA JUMPI PUSH2 0x44BA PUSH2 0x5331 JUMP JUMPDEST PUSH1 0x40 MLOAD SWAP1 DUP1 DUP3 MSTORE DUP1 PUSH1 0x20 MUL PUSH1 0x20 ADD DUP3 ADD PUSH1 0x40 MSTORE DUP1 ISZERO PUSH2 0x44E3 JUMPI DUP2 PUSH1 0x20 ADD PUSH1 0x20 DUP3 MUL DUP1 CALLDATASIZE DUP4 CALLDATACOPY ADD SWAP1 POP JUMPDEST POP SWAP1 POP PUSH1 0x0 JUMPDEST DUP3 DUP2 LT ISZERO PUSH2 0x45D7 JUMPI PUSH1 0x0 PUSH2 0x44FC DUP3 PUSH2 0x1965 JUMP JUMPDEST SWAP1 POP PUSH2 0x4508 DUP3 DUP3 PUSH2 0x3D6A JUMP JUMPDEST PUSH1 0x0 PUSH2 0x149 DUP4 DUP2 SLOAD DUP2 LT PUSH2 0x451E JUMPI PUSH2 0x451E PUSH2 0x555C JUMP JUMPDEST SWAP1 PUSH1 0x0 MSTORE PUSH1 0x20 PUSH1 0x0 KECCAK256 ADD SLOAD SWAP1 POP PUSH1 0x0 DUP2 SGT ISZERO PUSH2 0x45CD JUMPI PUSH2 0x454A PUSH2 0x4544 PUSH2 0x138 SLOAD DUP5 PUSH2 0x3EF2 JUMP JUMPDEST DUP3 PUSH2 0x3EF2 JUMP JUMPDEST DUP5 DUP5 DUP2 MLOAD DUP2 LT PUSH2 0x455C JUMPI PUSH2 0x455C PUSH2 0x555C JUMP JUMPDEST PUSH1 0x20 SWAP1 DUP2 MUL SWAP2 SWAP1 SWAP2 ADD ADD MSTORE PUSH2 0x4571 DUP2 DUP8 PUSH2 0x5549 JUMP JUMPDEST SWAP6 POP PUSH1 0x0 PUSH2 0x149 DUP5 DUP2 SLOAD DUP2 LT PUSH2 0x4589 JUMPI PUSH2 0x4589 PUSH2 0x555C JUMP JUMPDEST SWAP1 PUSH1 0x0 MSTORE PUSH1 0x20 PUSH1 0x0 KECCAK256 ADD DUP2 SWAP1 SSTORE POP PUSH2 0x45CD DUP4 DUP6 DUP6 DUP2 MLOAD DUP2 LT PUSH2 0x45AD JUMPI PUSH2 0x45AD PUSH2 0x555C JUMP JUMPDEST PUSH1 0x20 SWAP1 DUP2 MUL SWAP2 SWAP1 SWAP2 ADD ADD MLOAD PUSH2 0x144 SLOAD PUSH1 0x0 SWAP1 PUSH1 0x1 PUSH1 0x1 PUSH1 0xA0 SHL SUB AND PUSH2 0x3F88 JUMP JUMPDEST POP POP PUSH1 0x1 ADD PUSH2 0x44E9 JUMP JUMPDEST POP DUP3 ISZERO PUSH2 0x461C JUMPI PUSH2 0x45EB DUP4 PUSH2 0x137 SLOAD PUSH2 0x3EF2 JUMP JUMPDEST SWAP3 POP DUP3 PUSH2 0x12F PUSH1 0x0 DUP3 DUP3 SLOAD PUSH2 0x4600 SWAP2 SWAP1 PUSH2 0x5621 JUMP JUMPDEST SWAP1 SWAP2 SSTORE POP POP PUSH2 0x143 SLOAD PUSH2 0x461C SWAP1 PUSH1 0x1 PUSH1 0x1 PUSH1 0xA0 SHL SUB AND DUP5 PUSH2 0x465A JUMP JUMPDEST PUSH32 0xAE5116A8119D08673A0F1DFA7546B95DA4BD54BB17FEDA7C61130AC7859152F6 DUP4 DUP3 PUSH1 0x40 MLOAD PUSH2 0x464D SWAP3 SWAP2 SWAP1 PUSH2 0x5701 JUMP JUMPDEST PUSH1 0x40 MLOAD DUP1 SWAP2 SUB SWAP1 LOG1 POP POP POP JUMP JUMPDEST PUSH2 0x4662 PUSH2 0x4D22 JUMP JUMPDEST DUP1 ISZERO PUSH2 0x4680 JUMPI PUSH2 0x24A SLOAD PUSH2 0x4680 SWAP1 PUSH1 0x1 PUSH1 0x1 PUSH1 0xA0 SHL SUB AND DUP4 DUP4 PUSH2 0x4D7D JUMP JUMPDEST PUSH2 0x16B2 PUSH1 0x1 PUSH2 0x1E6 SSTORE JUMP JUMPDEST PUSH1 0x0 SLOAD PUSH2 0x100 SWAP1 DIV PUSH1 0xFF AND PUSH2 0x46B2 JUMPI PUSH1 0x40 MLOAD PUSH3 0x461BCD PUSH1 0xE5 SHL DUP2 MSTORE PUSH1 0x4 ADD PUSH2 0x13F8 SWAP1 PUSH2 0x568E JUMP JUMPDEST PUSH2 0x46BA PUSH2 0x4DAD JUMP JUMPDEST PUSH2 0x46C3 DUP3 PUSH2 0x4DD4 JUMP JUMPDEST PUSH2 0x16B2 DUP2 PUSH1 0x1 PUSH2 0x4E04 JUMP JUMPDEST PUSH1 0x0 SLOAD PUSH2 0x100 SWAP1 DIV PUSH1 0xFF AND PUSH2 0x46F5 JUMPI PUSH1 0x40 MLOAD PUSH3 0x461BCD PUSH1 0xE5 SHL DUP2 MSTORE PUSH1 0x4 ADD PUSH2 0x13F8 SWAP1 PUSH2 0x568E JUMP JUMPDEST PUSH8 0xDE0B6B3A7640000 DUP2 PUSH1 0x60 ADD CALLDATALOAD LT ISZERO PUSH2 0x4722 JUMPI PUSH1 0x40 MLOAD PUSH4 0x2A9FFAB7 PUSH1 0xE2 SHL DUP2 MSTORE PUSH1 0x4 ADD PUSH1 0x40 MLOAD DUP1 SWAP2 SUB SWAP1 REVERT JUMPDEST PUSH2 0x472F DUP2 PUSH1 0xA0 ADD CALLDATALOAD PUSH2 0x4E67 JUMP JUMPDEST PUSH2 0x473C DUP2 PUSH1 0xC0 ADD CALLDATALOAD PUSH2 0x4E67 JUMP JUMPDEST PUSH2 0x4749 DUP2 PUSH1 0xE0 ADD CALLDATALOAD PUSH2 0x4E67 JUMP JUMPDEST PUSH2 0x4757 DUP2 PUSH2 0x100 ADD CALLDATALOAD PUSH2 0x4E67 JUMP JUMPDEST PUSH2 0x4765 DUP2 PUSH2 0x120 ADD CALLDATALOAD PUSH2 0x4E67 JUMP JUMPDEST PUSH2 0x4773 DUP2 PUSH2 0x140 ADD CALLDATALOAD PUSH2 0x4E67 JUMP JUMPDEST PUSH2 0x4781 DUP2 PUSH2 0x160 ADD CALLDATALOAD PUSH2 0x4E67 JUMP JUMPDEST PUSH2 0x478F DUP2 PUSH2 0x180 ADD CALLDATALOAD PUSH2 0x4E67 JUMP JUMPDEST PUSH2 0x47AB PUSH2 0x47A6 PUSH2 0x1C0 DUP4 ADD CALLDATALOAD PUSH2 0x1A0 DUP5 ADD CALLDATALOAD PUSH2 0x5549 JUMP JUMPDEST PUSH2 0x4E67 JUMP JUMPDEST PUSH2 0x47B8 PUSH1 0x20 DUP3 ADD DUP3 PUSH2 0x51BC JUMP JUMPDEST PUSH2 0x131 DUP1 SLOAD PUSH1 0x1 PUSH1 0x1 PUSH1 0xA0 SHL SUB NOT AND PUSH1 0x1 PUSH1 0x1 PUSH1 0xA0 SHL SUB SWAP3 SWAP1 SWAP3 AND SWAP2 DUP3 OR SWAP1 SSTORE PUSH1 0x40 MLOAD PUSH4 0xD55FD845 PUSH1 0xE0 SHL DUP2 MSTORE ADDRESS PUSH1 0x4 DUP3 ADD MSTORE PUSH4 0xD55FD845 SWAP1 PUSH1 0x24 ADD PUSH1 0x20 PUSH1 0x40 MLOAD DUP1 DUP4 SUB DUP2 DUP7 GAS STATICCALL ISZERO DUP1 ISZERO PUSH2 0x4811 JUMPI RETURNDATASIZE PUSH1 0x0 DUP1 RETURNDATACOPY RETURNDATASIZE PUSH1 0x0 REVERT JUMPDEST POP POP POP POP PUSH1 0x40 MLOAD RETURNDATASIZE PUSH1 0x1F NOT PUSH1 0x1F DUP3 ADD AND DUP3 ADD DUP1 PUSH1 0x40 MSTORE POP DUP2 ADD SWAP1 PUSH2 0x4835 SWAP2 SWAP1 PUSH2 0x5597 JUMP JUMPDEST PUSH2 0x4852 JUMPI PUSH1 0x40 MLOAD PUSH4 0xE6C4247B PUSH1 0xE0 SHL DUP2 MSTORE PUSH1 0x4 ADD PUSH1 0x40 MLOAD DUP1 SWAP2 SUB SWAP1 REVERT JUMPDEST PUSH2 0x4862 PUSH1 0x40 DUP3 ADD PUSH1 0x20 DUP4 ADD PUSH2 0x51BC JUMP JUMPDEST PUSH2 0x143 DUP1 SLOAD PUSH1 0x1 PUSH1 0x1 PUSH1 0xA0 SHL SUB NOT AND PUSH1 0x1 PUSH1 0x1 PUSH1 0xA0 SHL SUB SWAP3 SWAP1 SWAP3 AND SWAP2 SWAP1 SWAP2 OR SWAP1 SSTORE PUSH2 0x4893 PUSH1 0x60 DUP3 ADD PUSH1 0x40 DUP4 ADD PUSH2 0x51BC JUMP JUMPDEST PUSH2 0x144 DUP1 SLOAD PUSH1 0x1 PUSH1 0x1 PUSH1 0xA0 SHL SUB NOT AND PUSH1 0x1 PUSH1 0x1 PUSH1 0xA0 SHL SUB SWAP3 SWAP1 SWAP3 AND SWAP2 SWAP1 SWAP2 OR SWAP1 SSTORE PUSH1 0x60 DUP2 ADD CALLDATALOAD PUSH2 0x146 SSTORE PUSH1 0x80 DUP2 ADD CALLDATALOAD PUSH2 0x147 SSTORE PUSH1 0xA0 DUP2 ADD CALLDATALOAD PUSH2 0x139 SSTORE PUSH1 0xC0 DUP2 ADD CALLDATALOAD PUSH2 0x13A SSTORE PUSH1 0xE0 DUP2 ADD CALLDATALOAD PUSH2 0x13B SSTORE PUSH2 0x100 DUP2 ADD CALLDATALOAD PUSH2 0x13C SSTORE PUSH2 0x120 DUP2 ADD CALLDATALOAD PUSH2 0x13D SSTORE PUSH2 0x140 DUP1 DUP3 ADD CALLDATALOAD PUSH2 0x13E SSTORE PUSH2 0x160 DUP3 ADD CALLDATALOAD PUSH2 0x13F SSTORE PUSH2 0x180 DUP3 ADD CALLDATALOAD SWAP1 SSTORE PUSH2 0x1A0 DUP2 ADD CALLDATALOAD PUSH2 0x137 SSTORE PUSH2 0x1C0 ADD CALLDATALOAD PUSH2 0x138 SSTORE PUSH2 0x148 DUP1 SLOAD PUSH2 0xFFFF NOT AND SWAP1 SSTORE JUMP JUMPDEST PUSH1 0x0 SLOAD PUSH2 0x100 SWAP1 DIV PUSH1 0xFF AND PUSH2 0x495A JUMPI PUSH1 0x40 MLOAD PUSH3 0x461BCD PUSH1 0xE5 SHL DUP2 MSTORE PUSH1 0x4 ADD PUSH2 0x13F8 SWAP1 PUSH2 0x568E JUMP JUMPDEST DUP1 PUSH1 0x0 SUB PUSH2 0x497B JUMPI PUSH1 0x40 MLOAD PUSH4 0x2A9FFAB7 PUSH1 0xE2 SHL DUP2 MSTORE PUSH1 0x4 ADD PUSH1 0x40 MLOAD DUP1 SWAP2 SUB SWAP1 REVERT JUMPDEST PUSH2 0x17F DUP2 SWAP1 SSTORE PUSH2 0x1495 DUP2 NUMBER ADD PUSH2 0x17E SSTORE JUMP JUMPDEST PUSH1 0x0 SLOAD PUSH2 0x100 SWAP1 DIV PUSH1 0xFF AND PUSH2 0x49B4 JUMPI PUSH1 0x40 MLOAD PUSH3 0x461BCD PUSH1 0xE5 SHL DUP2 MSTORE PUSH1 0x4 ADD PUSH2 0x13F8 SWAP1 PUSH2 0x568E JUMP JUMPDEST PUSH2 0x1B2 DUP2 SWAP1 SSTORE PUSH2 0x49C4 DUP2 NUMBER PUSH2 0x5549 JUMP JUMPDEST PUSH2 0x1B3 SSTORE POP JUMP JUMPDEST PUSH1 0x0 DUP1 DUP4 PUSH1 0x20 ADD MLOAD PUSH8 0xDE0B6B3A7640000 PUSH2 0x49E6 SWAP2 SWAP1 PUSH2 0x5621 JUMP JUMPDEST DUP5 MLOAD PUSH2 0x49F2 SWAP2 SWAP1 PUSH2 0x5634 JUMP JUMPDEST SWAP1 POP PUSH1 0x0 DUP4 DUP6 PUSH1 0x20 ADD MLOAD PUSH2 0x4A06 SWAP2 SWAP1 PUSH2 0x5634 JUMP JUMPDEST SWAP1 POP PUSH8 0xDE0B6B3A7640000 PUSH2 0x3CD1 DUP3 DUP5 PUSH2 0x5549 JUMP JUMPDEST PUSH1 0x0 DUP1 PUSH8 0xDE0B6B3A7640000 PUSH2 0x135 DUP6 DUP2 SLOAD DUP2 LT PUSH2 0x4A3B JUMPI PUSH2 0x4A3B PUSH2 0x555C JUMP JUMPDEST SWAP1 PUSH1 0x0 MSTORE PUSH1 0x20 PUSH1 0x0 KECCAK256 SWAP1 PUSH1 0x2 MUL ADD PUSH1 0x0 ADD SLOAD PUSH2 0x4A57 SWAP2 SWAP1 PUSH2 0x5634 JUMP JUMPDEST SWAP1 POP PUSH2 0x4A63 DUP4 DUP3 PUSH2 0x5653 JUMP JUMPDEST PUSH2 0x14A DUP6 DUP2 SLOAD DUP2 LT PUSH2 0x4A77 JUMPI PUSH2 0x4A77 PUSH2 0x555C JUMP JUMPDEST SWAP1 PUSH1 0x0 MSTORE PUSH1 0x20 PUSH1 0x0 KECCAK256 ADD SLOAD DUP3 PUSH2 0x4A8D SWAP2 SWAP1 PUSH2 0x5653 JUMP JUMPDEST PUSH2 0x15DE SWAP2 SWAP1 PUSH2 0x574F JUMP JUMPDEST DUP2 PUSH2 0x132 PUSH1 0x0 DUP3 DUP3 SLOAD PUSH2 0x4AAA SWAP2 SWAP1 PUSH2 0x5621 JUMP JUMPDEST SWAP3 POP POP DUP2 SWAP1 SSTORE POP DUP1 PUSH2 0x12F PUSH1 0x0 DUP3 DUP3 SLOAD PUSH2 0x4AC4 SWAP2 SWAP1 PUSH2 0x5621 JUMP JUMPDEST SWAP1 SWAP2 SSTORE POP POP POP POP JUMP JUMPDEST DUP2 PUSH2 0x135 DUP5 DUP2 SLOAD DUP2 LT PUSH2 0x4AE2 JUMPI PUSH2 0x4AE2 PUSH2 0x555C JUMP JUMPDEST SWAP1 PUSH1 0x0 MSTORE PUSH1 0x20 PUSH1 0x0 KECCAK256 SWAP1 PUSH1 0x2 MUL ADD PUSH1 0x0 ADD PUSH1 0x0 DUP3 DUP3 SLOAD PUSH2 0x4B02 SWAP2 SWAP1 PUSH2 0x5549 JUMP JUMPDEST SWAP1 SWAP2 SSTORE POP PUSH2 0x32DE SWAP1 POP DUP2 PUSH2 0x3BEF JUMP JUMPDEST PUSH1 0x40 MLOAD PUSH1 0x1 PUSH1 0x1 PUSH1 0xA0 SHL SUB DUP1 DUP6 AND PUSH1 0x24 DUP4 ADD MSTORE DUP4 AND PUSH1 0x44 DUP3 ADD MSTORE PUSH1 0x64 DUP2 ADD DUP3 SWAP1 MSTORE PUSH2 0x408B SWAP1 DUP6 SWAP1 PUSH4 0x23B872DD PUSH1 0xE0 SHL SWAP1 PUSH1 0x84 ADD JUMPDEST PUSH1 0x40 DUP1 MLOAD PUSH1 0x1F NOT DUP2 DUP5 SUB ADD DUP2 MSTORE SWAP2 SWAP1 MSTORE PUSH1 0x20 DUP2 ADD DUP1 MLOAD PUSH1 0x1 PUSH1 0x1 PUSH1 0xE0 SHL SUB AND PUSH1 0x1 PUSH1 0x1 PUSH1 0xE0 SHL SUB NOT SWAP1 SWAP4 AND SWAP3 SWAP1 SWAP3 OR SWAP1 SWAP2 MSTORE PUSH2 0x4E90 JUMP JUMPDEST DUP2 PUSH2 0x132 PUSH1 0x0 DUP3 DUP3 SLOAD PUSH2 0x4B8F SWAP2 SWAP1 PUSH2 0x5549 JUMP JUMPDEST SWAP1 SWAP2 SSTORE POP PUSH2 0x16B2 SWAP1 POP DUP2 PUSH2 0x3BEF JUMP JUMPDEST DUP2 PUSH2 0x135 DUP5 DUP2 SLOAD DUP2 LT PUSH2 0x4BB3 JUMPI PUSH2 0x4BB3 PUSH2 0x555C JUMP JUMPDEST SWAP1 PUSH1 0x0 MSTORE PUSH1 0x20 PUSH1 0x0 KECCAK256 SWAP1 PUSH1 0x2 MUL ADD PUSH1 0x0 ADD PUSH1 0x0 DUP3 DUP3 SLOAD PUSH2 0x4BD3 SWAP2 SWAP1 PUSH2 0x5621 JUMP JUMPDEST SWAP3 POP POP DUP2 SWAP1 SSTORE POP DUP1 PUSH2 0x12F PUSH1 0x0 DUP3 DUP3 SLOAD PUSH2 0x4BED SWAP2 SWAP1 PUSH2 0x5621 JUMP JUMPDEST SWAP1 SWAP2 SSTORE POP POP POP POP POP JUMP JUMPDEST PUSH2 0x4C00 DUP2 PUSH2 0x4328 JUMP JUMPDEST PUSH1 0x40 MLOAD PUSH1 0x1 PUSH1 0x1 PUSH1 0xA0 SHL SUB DUP3 AND SWAP1 PUSH32 0xBC7CD75A20EE27FD9ADEBAB32041F755214DBC6BFFA90CC0225B39DA2E5C2D3B SWAP1 PUSH1 0x0 SWAP1 LOG2 POP JUMP JUMPDEST PUSH1 0x60 PUSH1 0x1 PUSH1 0x1 PUSH1 0xA0 SHL SUB DUP4 AND EXTCODESIZE PUSH2 0x4C9F JUMPI PUSH1 0x40 MLOAD PUSH3 0x461BCD PUSH1 0xE5 SHL DUP2 MSTORE PUSH1 0x20 PUSH1 0x4 DUP3 ADD MSTORE PUSH1 0x26 PUSH1 0x24 DUP3 ADD MSTORE PUSH32 0x416464726573733A2064656C65676174652063616C6C20746F206E6F6E2D636F PUSH1 0x44 DUP3 ADD MSTORE PUSH6 0x1B9D1C9858DD PUSH1 0xD2 SHL PUSH1 0x64 DUP3 ADD MSTORE PUSH1 0x84 ADD PUSH2 0x13F8 JUMP JUMPDEST PUSH1 0x0 DUP1 DUP5 PUSH1 0x1 PUSH1 0x1 PUSH1 0xA0 SHL SUB AND DUP5 PUSH1 0x40 MLOAD PUSH2 0x4CBA SWAP2 SWAP1 PUSH2 0x579A JUMP JUMPDEST PUSH1 0x0 PUSH1 0x40 MLOAD DUP1 DUP4 SUB DUP2 DUP6 GAS DELEGATECALL SWAP2 POP POP RETURNDATASIZE DUP1 PUSH1 0x0 DUP2 EQ PUSH2 0x4CF5 JUMPI PUSH1 0x40 MLOAD SWAP2 POP PUSH1 0x1F NOT PUSH1 0x3F RETURNDATASIZE ADD AND DUP3 ADD PUSH1 0x40 MSTORE RETURNDATASIZE DUP3 MSTORE RETURNDATASIZE PUSH1 0x0 PUSH1 0x20 DUP5 ADD RETURNDATACOPY PUSH2 0x4CFA JUMP JUMPDEST PUSH1 0x60 SWAP2 POP JUMPDEST POP SWAP2 POP SWAP2 POP PUSH2 0x364E DUP3 DUP3 PUSH1 0x40 MLOAD DUP1 PUSH1 0x60 ADD PUSH1 0x40 MSTORE DUP1 PUSH1 0x27 DUP2 MSTORE PUSH1 0x20 ADD PUSH2 0x580A PUSH1 0x27 SWAP2 CODECOPY PUSH2 0x4F62 JUMP JUMPDEST PUSH1 0x2 PUSH2 0x1E6 SLOAD SUB PUSH2 0x4D75 JUMPI PUSH1 0x40 MLOAD PUSH3 0x461BCD PUSH1 0xE5 SHL DUP2 MSTORE PUSH1 0x20 PUSH1 0x4 DUP3 ADD MSTORE PUSH1 0x1F PUSH1 0x24 DUP3 ADD MSTORE PUSH32 0x5265656E7472616E637947756172643A207265656E7472616E742063616C6C00 PUSH1 0x44 DUP3 ADD MSTORE PUSH1 0x64 ADD PUSH2 0x13F8 JUMP JUMPDEST PUSH1 0x2 PUSH2 0x1E6 SSTORE JUMP JUMPDEST PUSH1 0x40 MLOAD PUSH1 0x1 PUSH1 0x1 PUSH1 0xA0 SHL SUB DUP4 AND PUSH1 0x24 DUP3 ADD MSTORE PUSH1 0x44 DUP2 ADD DUP3 SWAP1 MSTORE PUSH2 0x32DE SWAP1 DUP5 SWAP1 PUSH4 0xA9059CBB PUSH1 0xE0 SHL SWAP1 PUSH1 0x64 ADD PUSH2 0x4B45 JUMP JUMPDEST PUSH1 0x0 SLOAD PUSH2 0x100 SWAP1 DIV PUSH1 0xFF AND PUSH2 0x13AE JUMPI PUSH1 0x40 MLOAD PUSH3 0x461BCD PUSH1 0xE5 SHL DUP2 MSTORE PUSH1 0x4 ADD PUSH2 0x13F8 SWAP1 PUSH2 0x568E JUMP JUMPDEST PUSH1 0x0 SLOAD PUSH2 0x100 SWAP1 DIV PUSH1 0xFF AND PUSH2 0x4DFB JUMPI PUSH1 0x40 MLOAD PUSH3 0x461BCD PUSH1 0xE5 SHL DUP2 MSTORE PUSH1 0x4 ADD PUSH2 0x13F8 SWAP1 PUSH2 0x568E JUMP JUMPDEST PUSH2 0x1495 DUP2 PUSH2 0x4F7B JUMP JUMPDEST PUSH1 0x0 SLOAD PUSH2 0x100 SWAP1 DIV PUSH1 0xFF AND PUSH2 0x4E2B JUMPI PUSH1 0x40 MLOAD PUSH3 0x461BCD PUSH1 0xE5 SHL DUP2 MSTORE PUSH1 0x4 ADD PUSH2 0x13F8 SWAP1 PUSH2 0x568E JUMP JUMPDEST PUSH1 0xCA DUP1 SLOAD PUSH1 0x1 PUSH1 0x1 PUSH1 0xA0 SHL SUB SWAP1 SWAP4 AND PUSH3 0x10000 MUL PUSH3 0x10000 PUSH1 0x1 PUSH1 0xB0 SHL SUB NOT SWAP3 ISZERO ISZERO SWAP3 SWAP1 SWAP3 AND PUSH2 0xFF01 PUSH1 0x1 PUSH1 0xB0 SHL SUB NOT SWAP1 SWAP4 AND SWAP3 SWAP1 SWAP3 OR OR SWAP1 SSTORE JUMP JUMPDEST PUSH8 0xDE0B6B3A7640000 DUP2 GT ISZERO PUSH2 0x1495 JUMPI PUSH1 0x40 MLOAD PUSH4 0x2A9FFAB7 PUSH1 0xE2 SHL DUP2 MSTORE PUSH1 0x4 ADD PUSH1 0x40 MLOAD DUP1 SWAP2 SUB SWAP1 REVERT JUMPDEST PUSH1 0x0 PUSH2 0x4EE5 DUP3 PUSH1 0x40 MLOAD DUP1 PUSH1 0x40 ADD PUSH1 0x40 MSTORE DUP1 PUSH1 0x20 DUP2 MSTORE PUSH1 0x20 ADD PUSH32 0x5361666545524332303A206C6F772D6C6576656C2063616C6C206661696C6564 DUP2 MSTORE POP DUP6 PUSH1 0x1 PUSH1 0x1 PUSH1 0xA0 SHL SUB AND PUSH2 0x4FA2 SWAP1 SWAP3 SWAP2 SWAP1 PUSH4 0xFFFFFFFF AND JUMP JUMPDEST DUP1 MLOAD SWAP1 SWAP2 POP ISZERO PUSH2 0x32DE JUMPI DUP1 DUP1 PUSH1 0x20 ADD SWAP1 MLOAD DUP2 ADD SWAP1 PUSH2 0x4F03 SWAP2 SWAP1 PUSH2 0x5597 JUMP JUMPDEST PUSH2 0x32DE JUMPI PUSH1 0x40 MLOAD PUSH3 0x461BCD PUSH1 0xE5 SHL DUP2 MSTORE PUSH1 0x20 PUSH1 0x4 DUP3 ADD MSTORE PUSH1 0x2A PUSH1 0x24 DUP3 ADD MSTORE PUSH32 0x5361666545524332303A204552433230206F7065726174696F6E20646964206E PUSH1 0x44 DUP3 ADD MSTORE PUSH10 0x1BDD081CDD58D8D95959 PUSH1 0xB2 SHL PUSH1 0x64 DUP3 ADD MSTORE PUSH1 0x84 ADD PUSH2 0x13F8 JUMP JUMPDEST PUSH1 0x60 DUP4 ISZERO PUSH2 0x4F71 JUMPI POP DUP2 PUSH2 0x11CE JUMP JUMPDEST PUSH2 0x11CE DUP4 DUP4 PUSH2 0x4FB1 JUMP JUMPDEST PUSH1 0x0 SLOAD PUSH2 0x100 SWAP1 DIV PUSH1 0xFF AND PUSH2 0x207C JUMPI PUSH1 0x40 MLOAD PUSH3 0x461BCD PUSH1 0xE5 SHL DUP2 MSTORE PUSH1 0x4 ADD PUSH2 0x13F8 SWAP1 PUSH2 0x568E JUMP JUMPDEST PUSH1 0x60 PUSH2 0x11CB DUP5 DUP5 PUSH1 0x0 DUP6 PUSH2 0x4FDB JUMP JUMPDEST DUP2 MLOAD ISZERO PUSH2 0x4FC1 JUMPI DUP2 MLOAD DUP1 DUP4 PUSH1 0x20 ADD REVERT JUMPDEST DUP1 PUSH1 0x40 MLOAD PUSH3 0x461BCD PUSH1 0xE5 SHL DUP2 MSTORE PUSH1 0x4 ADD PUSH2 0x13F8 SWAP2 SWAP1 PUSH2 0x57B6 JUMP JUMPDEST PUSH1 0x60 DUP3 SELFBALANCE LT ISZERO PUSH2 0x503C JUMPI PUSH1 0x40 MLOAD PUSH3 0x461BCD PUSH1 0xE5 SHL DUP2 MSTORE PUSH1 0x20 PUSH1 0x4 DUP3 ADD MSTORE PUSH1 0x26 PUSH1 0x24 DUP3 ADD MSTORE PUSH32 0x416464726573733A20696E73756666696369656E742062616C616E636520666F PUSH1 0x44 DUP3 ADD MSTORE PUSH6 0x1C8818D85B1B PUSH1 0xD2 SHL PUSH1 0x64 DUP3 ADD MSTORE PUSH1 0x84 ADD PUSH2 0x13F8 JUMP JUMPDEST PUSH1 0x0 DUP1 DUP7 PUSH1 0x1 PUSH1 0x1 PUSH1 0xA0 SHL SUB AND DUP6 DUP8 PUSH1 0x40 MLOAD PUSH2 0x5058 SWAP2 SWAP1 PUSH2 0x579A JUMP JUMPDEST PUSH1 0x0 PUSH1 0x40 MLOAD DUP1 DUP4 SUB DUP2 DUP6 DUP8 GAS CALL SWAP3 POP POP POP RETURNDATASIZE DUP1 PUSH1 0x0 DUP2 EQ PUSH2 0x5095 JUMPI PUSH1 0x40 MLOAD SWAP2 POP PUSH1 0x1F NOT PUSH1 0x3F RETURNDATASIZE ADD AND DUP3 ADD PUSH1 0x40 MSTORE RETURNDATASIZE DUP3 MSTORE RETURNDATASIZE PUSH1 0x0 PUSH1 0x20 DUP5 ADD RETURNDATACOPY PUSH2 0x509A JUMP JUMPDEST PUSH1 0x60 SWAP2 POP JUMPDEST POP SWAP2 POP SWAP2 POP PUSH2 0x23FC DUP8 DUP4 DUP4 DUP8 PUSH1 0x60 DUP4 ISZERO PUSH2 0x5115 JUMPI DUP3 MLOAD PUSH1 0x0 SUB PUSH2 0x510E JUMPI PUSH1 0x1 PUSH1 0x1 PUSH1 0xA0 SHL SUB DUP6 AND EXTCODESIZE PUSH2 0x510E JUMPI PUSH1 0x40 MLOAD PUSH3 0x461BCD PUSH1 0xE5 SHL DUP2 MSTORE PUSH1 0x20 PUSH1 0x4 DUP3 ADD MSTORE PUSH1 0x1D PUSH1 0x24 DUP3 ADD MSTORE PUSH32 0x416464726573733A2063616C6C20746F206E6F6E2D636F6E7472616374000000 PUSH1 0x44 DUP3 ADD MSTORE PUSH1 0x64 ADD PUSH2 0x13F8 JUMP JUMPDEST POP DUP2 PUSH2 0x15DE JUMP JUMPDEST PUSH2 0x15DE DUP4 DUP4 PUSH2 0x4FB1 JUMP JUMPDEST PUSH1 0x1 PUSH1 0x1 PUSH1 0xA0 SHL SUB DUP2 AND DUP2 EQ PUSH2 0x1495 JUMPI PUSH1 0x0 DUP1 REVERT JUMPDEST PUSH1 0x0 DUP1 PUSH1 0x0 DUP1 PUSH1 0x0 PUSH1 0xA0 DUP7 DUP9 SUB SLT ISZERO PUSH2 0x514C JUMPI PUSH1 0x0 DUP1 REVERT JUMPDEST DUP6 CALLDATALOAD SWAP5 POP PUSH1 0x20 DUP7 ADD CALLDATALOAD SWAP4 POP PUSH1 0x40 DUP7 ADD CALLDATALOAD SWAP3 POP PUSH1 0x60 DUP7 ADD CALLDATALOAD SWAP2 POP PUSH1 0x80 DUP7 ADD CALLDATALOAD PUSH2 0x5173 DUP2 PUSH2 0x511F JUMP JUMPDEST DUP1 SWAP2 POP POP SWAP3 SWAP6 POP SWAP3 SWAP6 SWAP1 SWAP4 POP JUMP JUMPDEST PUSH1 0x0 PUSH1 0x20 DUP3 DUP5 SUB SLT ISZERO PUSH2 0x5193 JUMPI PUSH1 0x0 DUP1 REVERT JUMPDEST POP CALLDATALOAD SWAP2 SWAP1 POP JUMP JUMPDEST PUSH1 0x0 DUP1 PUSH1 0x40 DUP4 DUP6 SUB SLT ISZERO PUSH2 0x51AD JUMPI PUSH1 0x0 DUP1 REVERT JUMPDEST POP POP DUP1 CALLDATALOAD SWAP3 PUSH1 0x20 SWAP1 SWAP2 ADD CALLDATALOAD SWAP2 POP JUMP JUMPDEST PUSH1 0x0 PUSH1 0x20 DUP3 DUP5 SUB SLT ISZERO PUSH2 0x51CE JUMPI PUSH1 0x0 DUP1 REVERT JUMPDEST DUP2 CALLDATALOAD PUSH2 0x11CE DUP2 PUSH2 0x511F JUMP JUMPDEST PUSH1 0x0 DUP1 PUSH1 0x0 DUP1 PUSH1 0x80 DUP6 DUP8 SUB SLT ISZERO PUSH2 0x51EF JUMPI PUSH1 0x0 DUP1 REVERT JUMPDEST POP POP DUP3 CALLDATALOAD SWAP5 PUSH1 0x20 DUP5 ADD CALLDATALOAD SWAP5 POP PUSH1 0x40 DUP5 ADD CALLDATALOAD SWAP4 PUSH1 0x60 ADD CALLDATALOAD SWAP3 POP SWAP1 POP JUMP JUMPDEST PUSH1 0x0 DUP1 PUSH1 0x0 PUSH1 0x60 DUP5 DUP7 SUB SLT ISZERO PUSH2 0x5220 JUMPI PUSH1 0x0 DUP1 REVERT JUMPDEST POP POP DUP2 CALLDATALOAD SWAP4 PUSH1 0x20 DUP4 ADD CALLDATALOAD SWAP4 POP PUSH1 0x40 SWAP1 SWAP3 ADD CALLDATALOAD SWAP2 SWAP1 POP JUMP JUMPDEST PUSH1 0x0 DUP1 PUSH1 0x0 DUP1 PUSH1 0x80 DUP6 DUP8 SUB SLT ISZERO PUSH2 0x524D JUMPI PUSH1 0x0 DUP1 REVERT JUMPDEST DUP5 CALLDATALOAD SWAP4 POP PUSH1 0x20 DUP6 ADD CALLDATALOAD SWAP3 POP PUSH1 0x40 DUP6 ADD CALLDATALOAD SWAP2 POP PUSH1 0x60 DUP6 ADD CALLDATALOAD PUSH2 0x526D DUP2 PUSH2 0x511F JUMP JUMPDEST SWAP4 SWAP7 SWAP3 SWAP6 POP SWAP1 SWAP4 POP POP JUMP JUMPDEST PUSH1 0x0 DUP1 PUSH1 0x0 DUP1 PUSH1 0x0 DUP1 PUSH1 0xC0 DUP8 DUP10 SUB SLT ISZERO PUSH2 0x5291 JUMPI PUSH1 0x0 DUP1 REVERT JUMPDEST DUP7 CALLDATALOAD SWAP6 POP PUSH1 0x20 DUP8 ADD CALLDATALOAD SWAP5 POP PUSH1 0x40 DUP8 ADD CALLDATALOAD SWAP4 POP PUSH1 0x60 DUP8 ADD CALLDATALOAD SWAP3 POP PUSH1 0x80 DUP8 ADD CALLDATALOAD SWAP2 POP PUSH1 0xA0 DUP8 ADD CALLDATALOAD PUSH2 0x52BF DUP2 PUSH2 0x511F JUMP JUMPDEST DUP1 SWAP2 POP POP SWAP3 SWAP6 POP SWAP3 SWAP6 POP SWAP3 SWAP6 JUMP JUMPDEST DUP1 ISZERO ISZERO DUP2 EQ PUSH2 0x1495 JUMPI PUSH1 0x0 DUP1 REVERT JUMPDEST PUSH1 0x0 PUSH1 0x20 DUP3 DUP5 SUB SLT ISZERO PUSH2 0x52ED JUMPI PUSH1 0x0 DUP1 REVERT JUMPDEST DUP2 CALLDATALOAD PUSH2 0x11CE DUP2 PUSH2 0x52CD JUMP JUMPDEST PUSH1 0x0 DUP1 PUSH1 0x0 PUSH1 0x60 DUP5 DUP7 SUB SLT ISZERO PUSH2 0x530D JUMPI PUSH1 0x0 DUP1 REVERT JUMPDEST DUP4 CALLDATALOAD SWAP3 POP PUSH1 0x20 DUP5 ADD CALLDATALOAD SWAP2 POP PUSH1 0x40 DUP5 ADD CALLDATALOAD PUSH2 0x5326 DUP2 PUSH2 0x511F JUMP JUMPDEST DUP1 SWAP2 POP POP SWAP3 POP SWAP3 POP SWAP3 JUMP JUMPDEST PUSH4 0x4E487B71 PUSH1 0xE0 SHL PUSH1 0x0 MSTORE PUSH1 0x41 PUSH1 0x4 MSTORE PUSH1 0x24 PUSH1 0x0 REVERT JUMPDEST PUSH1 0x0 DUP1 PUSH1 0x40 DUP4 DUP6 SUB SLT ISZERO PUSH2 0x535A JUMPI PUSH1 0x0 DUP1 REVERT JUMPDEST DUP3 CALLDATALOAD PUSH2 0x5365 DUP2 PUSH2 0x511F JUMP JUMPDEST SWAP2 POP PUSH1 0x20 DUP4 ADD CALLDATALOAD PUSH8 0xFFFFFFFFFFFFFFFF DUP1 DUP3 GT ISZERO PUSH2 0x5382 JUMPI PUSH1 0x0 DUP1 REVERT JUMPDEST DUP2 DUP6 ADD SWAP2 POP DUP6 PUSH1 0x1F DUP4 ADD SLT PUSH2 0x5396 JUMPI PUSH1 0x0 DUP1 REVERT JUMPDEST DUP2 CALLDATALOAD DUP2 DUP2 GT ISZERO PUSH2 0x53A8 JUMPI PUSH2 0x53A8 PUSH2 0x5331 JUMP JUMPDEST PUSH1 0x40 MLOAD PUSH1 0x1F DUP3 ADD PUSH1 0x1F NOT SWAP1 DUP2 AND PUSH1 0x3F ADD AND DUP2 ADD SWAP1 DUP4 DUP3 GT DUP2 DUP4 LT OR ISZERO PUSH2 0x53D0 JUMPI PUSH2 0x53D0 PUSH2 0x5331 JUMP JUMPDEST DUP2 PUSH1 0x40 MSTORE DUP3 DUP2 MSTORE DUP9 PUSH1 0x20 DUP5 DUP8 ADD ADD GT ISZERO PUSH2 0x53E9 JUMPI PUSH1 0x0 DUP1 REVERT JUMPDEST DUP3 PUSH1 0x20 DUP7 ADD PUSH1 0x20 DUP4 ADD CALLDATACOPY PUSH1 0x0 PUSH1 0x20 DUP5 DUP4 ADD ADD MSTORE DUP1 SWAP6 POP POP POP POP POP POP SWAP3 POP SWAP3 SWAP1 POP JUMP JUMPDEST PUSH1 0x0 DUP1 PUSH1 0x40 DUP4 DUP6 SUB SLT ISZERO PUSH2 0x541E JUMPI PUSH1 0x0 DUP1 REVERT JUMPDEST DUP3 CALLDATALOAD SWAP2 POP PUSH1 0x20 DUP4 ADD CALLDATALOAD PUSH2 0x5430 DUP2 PUSH2 0x511F JUMP JUMPDEST DUP1 SWAP2 POP POP SWAP3 POP SWAP3 SWAP1 POP JUMP JUMPDEST PUSH1 0x0 PUSH2 0x280 DUP3 DUP5 SUB SLT ISZERO PUSH2 0x181A JUMPI PUSH1 0x0 DUP1 REVERT JUMPDEST PUSH1 0x0 DUP1 PUSH1 0x0 DUP1 PUSH1 0x0 PUSH1 0xA0 DUP7 DUP9 SUB SLT ISZERO PUSH2 0x5466 JUMPI PUSH1 0x0 DUP1 REVERT JUMPDEST POP POP DUP4 CALLDATALOAD SWAP6 PUSH1 0x20 DUP6 ADD CALLDATALOAD SWAP6 POP PUSH1 0x40 DUP6 ADD CALLDATALOAD SWAP5 PUSH1 0x60 DUP2 ADD CALLDATALOAD SWAP5 POP PUSH1 0x80 ADD CALLDATALOAD SWAP3 POP SWAP1 POP JUMP JUMPDEST PUSH1 0x0 PUSH1 0xE0 DUP3 DUP5 SUB SLT ISZERO PUSH2 0x181A JUMPI PUSH1 0x0 DUP1 REVERT JUMPDEST PUSH1 0x20 DUP1 DUP3 MSTORE PUSH1 0x2C SWAP1 DUP3 ADD MSTORE PUSH32 0x46756E6374696F6E206D7573742062652063616C6C6564207468726F75676820 PUSH1 0x40 DUP3 ADD MSTORE PUSH12 0x19195B1959D85D1958D85B1B PUSH1 0xA2 SHL PUSH1 0x60 DUP3 ADD MSTORE PUSH1 0x80 ADD SWAP1 JUMP JUMPDEST PUSH1 0x20 DUP1 DUP3 MSTORE PUSH1 0x2C SWAP1 DUP3 ADD MSTORE PUSH32 0x46756E6374696F6E206D7573742062652063616C6C6564207468726F75676820 PUSH1 0x40 DUP3 ADD MSTORE PUSH12 0x6163746976652070726F7879 PUSH1 0xA0 SHL PUSH1 0x60 DUP3 ADD MSTORE PUSH1 0x80 ADD SWAP1 JUMP JUMPDEST PUSH4 0x4E487B71 PUSH1 0xE0 SHL PUSH1 0x0 MSTORE PUSH1 0x11 PUSH1 0x4 MSTORE PUSH1 0x24 PUSH1 0x0 REVERT JUMPDEST DUP1 DUP3 ADD DUP1 DUP3 GT ISZERO PUSH2 0x114E JUMPI PUSH2 0x114E PUSH2 0x5533 JUMP JUMPDEST PUSH4 0x4E487B71 PUSH1 0xE0 SHL PUSH1 0x0 MSTORE PUSH1 0x32 PUSH1 0x4 MSTORE PUSH1 0x24 PUSH1 0x0 REVERT JUMPDEST PUSH1 0x0 DUP1 PUSH1 0x40 DUP4 DUP6 SUB SLT ISZERO PUSH2 0x5585 JUMPI PUSH1 0x0 DUP1 REVERT JUMPDEST DUP3 MLOAD SWAP2 POP PUSH1 0x20 DUP4 ADD MLOAD PUSH2 0x5430 DUP2 PUSH2 0x52CD JUMP JUMPDEST PUSH1 0x0 PUSH1 0x20 DUP3 DUP5 SUB SLT ISZERO PUSH2 0x55A9 JUMPI PUSH1 0x0 DUP1 REVERT JUMPDEST DUP2 MLOAD PUSH2 0x11CE DUP2 PUSH2 0x52CD JUMP JUMPDEST PUSH1 0xE0 DUP2 ADD DUP3 CALLDATALOAD PUSH2 0x55C3 DUP2 PUSH2 0x511F JUMP JUMPDEST PUSH1 0x1 PUSH1 0x1 PUSH1 0xA0 SHL SUB SWAP1 DUP2 AND DUP4 MSTORE PUSH1 0x20 DUP5 ADD CALLDATALOAD SWAP1 PUSH2 0x55DF DUP3 PUSH2 0x511F JUMP JUMPDEST DUP1 DUP3 AND PUSH1 0x20 DUP6 ADD MSTORE POP POP PUSH1 0x40 DUP4 ADD CALLDATALOAD PUSH1 0x40 DUP4 ADD MSTORE PUSH1 0x60 DUP4 ADD CALLDATALOAD PUSH1 0x60 DUP4 ADD MSTORE PUSH1 0x80 DUP4 ADD CALLDATALOAD PUSH1 0x80 DUP4 ADD MSTORE PUSH1 0xA0 DUP4 ADD CALLDATALOAD PUSH1 0xA0 DUP4 ADD MSTORE PUSH1 0xC0 DUP4 ADD CALLDATALOAD PUSH1 0xC0 DUP4 ADD MSTORE SWAP3 SWAP2 POP POP JUMP JUMPDEST DUP2 DUP2 SUB DUP2 DUP2 GT ISZERO PUSH2 0x114E JUMPI PUSH2 0x114E PUSH2 0x5533 JUMP JUMPDEST PUSH1 0x0 DUP2 PUSH1 0x0 NOT DIV DUP4 GT DUP3 ISZERO ISZERO AND ISZERO PUSH2 0x564E JUMPI PUSH2 0x564E PUSH2 0x5533 JUMP JUMPDEST POP MUL SWAP1 JUMP JUMPDEST PUSH1 0x0 DUP3 PUSH2 0x5670 JUMPI PUSH4 0x4E487B71 PUSH1 0xE0 SHL PUSH1 0x0 MSTORE PUSH1 0x12 PUSH1 0x4 MSTORE PUSH1 0x24 PUSH1 0x0 REVERT JUMPDEST POP DIV SWAP1 JUMP JUMPDEST PUSH1 0x0 PUSH1 0x20 DUP3 DUP5 SUB SLT ISZERO PUSH2 0x5687 JUMPI PUSH1 0x0 DUP1 REVERT JUMPDEST POP MLOAD SWAP2 SWAP1 POP JUMP JUMPDEST PUSH1 0x20 DUP1 DUP3 MSTORE PUSH1 0x2B SWAP1 DUP3 ADD MSTORE PUSH32 0x496E697469616C697A61626C653A20636F6E7472616374206973206E6F742069 PUSH1 0x40 DUP3 ADD MSTORE PUSH11 0x6E697469616C697A696E67 PUSH1 0xA8 SHL PUSH1 0x60 DUP3 ADD MSTORE PUSH1 0x80 ADD SWAP1 JUMP JUMPDEST DUP1 DUP3 ADD DUP3 DUP2 SLT PUSH1 0x0 DUP4 SLT DUP1 ISZERO DUP3 AND DUP3 ISZERO DUP3 AND OR ISZERO PUSH2 0x56F9 JUMPI PUSH2 0x56F9 PUSH2 0x5533 JUMP JUMPDEST POP POP SWAP3 SWAP2 POP POP JUMP JUMPDEST PUSH1 0x0 PUSH1 0x40 DUP3 ADD DUP5 DUP4 MSTORE PUSH1 0x20 PUSH1 0x40 DUP2 DUP6 ADD MSTORE DUP2 DUP6 MLOAD DUP1 DUP5 MSTORE PUSH1 0x60 DUP7 ADD SWAP2 POP DUP3 DUP8 ADD SWAP4 POP PUSH1 0x0 JUMPDEST DUP2 DUP2 LT ISZERO PUSH2 0x5742 JUMPI DUP5 MLOAD DUP4 MSTORE SWAP4 DUP4 ADD SWAP4 SWAP2 DUP4 ADD SWAP2 PUSH1 0x1 ADD PUSH2 0x5726 JUMP JUMPDEST POP SWAP1 SWAP8 SWAP7 POP POP POP POP POP POP POP JUMP JUMPDEST DUP2 DUP2 SUB PUSH1 0x0 DUP4 SLT DUP1 ISZERO DUP4 DUP4 SGT AND DUP4 DUP4 SLT DUP3 AND OR ISZERO PUSH2 0x576F JUMPI PUSH2 0x576F PUSH2 0x5533 JUMP JUMPDEST POP SWAP3 SWAP2 POP POP JUMP JUMPDEST PUSH1 0x0 JUMPDEST DUP4 DUP2 LT ISZERO PUSH2 0x5791 JUMPI DUP2 DUP2 ADD MLOAD DUP4 DUP3 ADD MSTORE PUSH1 0x20 ADD PUSH2 0x5779 JUMP JUMPDEST POP POP PUSH1 0x0 SWAP2 ADD MSTORE JUMP JUMPDEST PUSH1 0x0 DUP3 MLOAD PUSH2 0x57AC DUP2 DUP5 PUSH1 0x20 DUP8 ADD PUSH2 0x5776 JUMP JUMPDEST SWAP2 SWAP1 SWAP2 ADD SWAP3 SWAP2 POP POP JUMP JUMPDEST PUSH1 0x20 DUP2 MSTORE PUSH1 0x0 DUP3 MLOAD DUP1 PUSH1 0x20 DUP5 ADD MSTORE PUSH2 0x57D5 DUP2 PUSH1 0x40 DUP6 ADD PUSH1 0x20 DUP8 ADD PUSH2 0x5776 JUMP JUMPDEST PUSH1 0x1F ADD PUSH1 0x1F NOT AND SWAP2 SWAP1 SWAP2 ADD PUSH1 0x40 ADD SWAP3 SWAP2 POP POP JUMP INVALID CALLDATASIZE ADDMOD SWAP5 LOG1 EXTCODESIZE LOG1 LOG3 0x21 MOD PUSH8 0xC828492DB98DCA3E KECCAK256 PUSH23 0xCC3735A920A3CA505D382BBC416464726573733A206C6F PUSH24 0x2D6C6576656C2064656C65676174652063616C6C20666169 PUSH13 0x6564A26469706673582212200D ISZERO PC 0xD6 PUSH22 0xCE1B3758A0353E256F12E9E9521FAB2FC89391761D8C 0xCB STATICCALL DUP6 0x4D 0x2D PUSH5 0x736F6C6343 STOP ADDMOD LT STOP CALLER "
    },
    "gasEstimates": {
      "creation": {
        "codeDepositCost": "4526000",
        "executionCost": "infinite",
        "totalCost": "infinite"
      },
      "external": {
        "addPeggedToken((address,address,uint256,uint256,uint256,uint256,uint256))": "infinite",
        "appreciationFactor()": "2405",
        "bes()": "2451",
        "bns()": "2364",
        "calcCtargemaCA()": "infinite",
        "changeGovernor(address)": "infinite",
        "editPeggedToken((address,address,uint256,uint256,uint256,uint256,uint256))": "infinite",
        "emaCalculationBlockSpan()": "2385",
        "evalLiquidation()": "infinite",
        "execSettlement()": "infinite",
        "feeRetainer()": "2363",
        "getBts()": "4669",
        "getCglb()": "infinite",
        "getLeverageTC()": "infinite",
        "getPACtp(uint256)": "infinite",
        "getPTCac()": "infinite",
        "getQACforRedeemTP(uint256,uint256)": "infinite",
        "getTCAvailableToRedeem()": "infinite",
        "getTPAvailableToMint(uint256)": "infinite",
        "getTotalACavailable()": "infinite",
        "governor()": "2495",
        "initialize((((address,address,address,uint256,uint256,uint256,uint256,uint256,uint256,uint256,uint256,uint256,uint256,uint256,uint256),address,address,uint256,uint256),address))": "infinite",
        "isLiquidationReached()": "infinite",
        "liqEnabled()": "2443",
        "liqRedeemTP(uint256)": "infinite",
        "liqRedeemTPto(uint256,address)": "infinite",
        "liqThrld()": "2385",
        "liquidated()": "2389",
        "makeStoppable()": "infinite",
        "makeUnstoppable()": "infinite",
        "mintTC(uint256,uint256)": "infinite",
        "mintTCandTP(uint256,uint256,uint256)": "infinite",
        "mintTCandTPFee()": "2452",
        "mintTCandTPto(uint256,uint256,uint256,address)": "infinite",
        "mintTCto(uint256,uint256,address)": "infinite",
        "mintTP(uint256,uint256,uint256)": "infinite",
        "mintTPto(uint256,uint256,uint256,address)": "infinite",
        "mocAppreciationBeneficiaryAddress()": "2515",
        "mocFeeFlowAddress()": "2493",
        "nACcb()": "2428",
        "nTCcb()": "2474",
        "nextEmaCalculation()": "2475",
        "pause()": "31939",
        "paused()": "2427",
        "pauser()": "2437",
        "pegContainer(uint256)": "6876",
        "peggedTokenIndex(address)": "4792",
        "protThrld()": "2450",
        "proxiableUUID()": "infinite",
        "redeemTC(uint256,uint256)": "infinite",
        "redeemTCandTP(uint256,uint256,uint256,uint256)": "infinite",
        "redeemTCandTPFee()": "2383",
        "redeemTCandTPto(uint256,uint256,uint256,uint256,address)": "infinite",
        "redeemTCto(uint256,uint256,address)": "infinite",
        "redeemTP(uint256,uint256,uint256)": "infinite",
        "redeemTPto(uint256,uint256,uint256,address)": "infinite",
        "refreshACBalance()": "infinite",
        "setAppreciationFactor(uint256)": "infinite",
        "setBes(uint256)": "infinite",
        "setEmaCalculationBlockSpan(uint256)": "infinite",
        "setFeeRetainer(uint256)": "infinite",
        "setLiqEnabled(bool)": "infinite",
        "setLiqThrld(uint256)": "infinite",
        "setMintTCandTPFee(uint256)": "infinite",
        "setMocAppreciationBeneficiaryAddress(address)": "infinite",
        "setMocFeeFlowAddress(address)": "infinite",
        "setPauser(address)": "infinite",
        "setProtThrld(uint256)": "infinite",
        "setRedeemTCandTPFee(uint256)": "infinite",
        "setSuccessFee(uint256)": "infinite",
        "setSwapTCforTPFee(uint256)": "infinite",
        "setSwapTPforTCFee(uint256)": "infinite",
        "setSwapTPforTPFee(uint256)": "infinite",
        "setTcMintFee(uint256)": "infinite",
        "setTcRedeemFee(uint256)": "infinite",
        "shouldCalculateEma()": "2417",
        "stoppable()": "2378",
        "successFee()": "2386",
        "swapTCforTP(uint256,uint256,uint256,uint256)": "infinite",
        "swapTCforTPFee()": "2407",
        "swapTCforTPto(uint256,uint256,uint256,uint256,address)": "infinite",
        "swapTPforTC(uint256,uint256,uint256,uint256)": "infinite",
        "swapTPforTCFee()": "2473",
        "swapTPforTCto(uint256,uint256,uint256,uint256,address)": "infinite",
        "swapTPforTP(uint256,uint256,uint256,uint256,uint256)": "infinite",
        "swapTPforTPFee()": "2474",
        "swapTPforTPto(uint256,uint256,uint256,uint256,uint256,address)": "infinite",
        "tcMintFee()": "2449",
        "tcRedeemFee()": "2428",
        "tcToken()": "2426",
        "tpCtarg(uint256)": "4731",
        "tpEma(uint256)": "6831",
        "tpMintFee(uint256)": "4708",
        "tpRedeemFee(uint256)": "4709",
        "tpTokens(uint256)": "4728",
        "unpause()": "29839",
        "updateEmas()": "infinite",
        "upgradeTo(address)": "infinite",
        "upgradeToAndCall(address,bytes)": "infinite"
      },
      "internal": {
        "_onACNeededOperation(uint256,uint256)": "infinite",
        "acBalanceOf(address)": "infinite",
        "acTransfer(address,uint256)": "infinite"
      }
    },
    "methodIdentifiers": {
      "addPeggedToken((address,address,uint256,uint256,uint256,uint256,uint256))": "db796072",
      "appreciationFactor()": "fa6e83bd",
      "bes()": "4d977e78",
      "bns()": "1867e2f5",
      "calcCtargemaCA()": "662013f4",
      "changeGovernor(address)": "e4c0aaf4",
      "editPeggedToken((address,address,uint256,uint256,uint256,uint256,uint256))": "f26114aa",
      "emaCalculationBlockSpan()": "7a727fe8",
      "evalLiquidation()": "33421c38",
      "execSettlement()": "5c616a73",
      "feeRetainer()": "4f0f27ee",
      "getBts()": "e8859a15",
      "getCglb()": "826fcd58",
      "getLeverageTC()": "c039cc69",
      "getPACtp(uint256)": "904aa85b",
      "getPTCac()": "1fb0dda0",
      "getQACforRedeemTP(uint256,uint256)": "7820a328",
      "getTCAvailableToRedeem()": "4017936a",
      "getTPAvailableToMint(uint256)": "fa79589e",
      "getTotalACavailable()": "de8d520a",
      "governor()": "0c340a24",
      "initialize((((address,address,address,uint256,uint256,uint256,uint256,uint256,uint256,uint256,uint256,uint256,uint256,uint256,uint256),address,address,uint256,uint256),address))": "bbba7ed9",
      "isLiquidationReached()": "9ad6659d",
      "liqEnabled()": "e7c25978",
      "liqRedeemTP(uint256)": "9195c85b",
      "liqRedeemTPto(uint256,address)": "5d65d045",
      "liqThrld()": "8cfa4241",
      "liquidated()": "23b98cde",
      "makeStoppable()": "68274357",
      "makeUnstoppable()": "5210570c",
      "mintTC(uint256,uint256)": "0bb7f608",
      "mintTCandTP(uint256,uint256,uint256)": "f21fcc00",
      "mintTCandTPFee()": "79f9a91c",
      "mintTCandTPto(uint256,uint256,uint256,address)": "1a89b8f2",
      "mintTCto(uint256,uint256,address)": "4310adc6",
      "mintTP(uint256,uint256,uint256)": "181770da",
      "mintTPto(uint256,uint256,uint256,address)": "4cffbaab",
      "mocAppreciationBeneficiaryAddress()": "4e1f907a",
      "mocFeeFlowAddress()": "9853c35a",
      "nACcb()": "f30b5614",
      "nTCcb()": "7a193c31",
      "nextEmaCalculation()": "0c36d897",
      "pause()": "8456cb59",
      "paused()": "5c975abb",
      "pauser()": "9fd0506d",
      "pegContainer(uint256)": "4b746001",
      "peggedTokenIndex(address)": "9cabfc00",
      "protThrld()": "6b5488df",
      "proxiableUUID()": "52d1902d",
      "redeemTC(uint256,uint256)": "9abb14c9",
      "redeemTCandTP(uint256,uint256,uint256,uint256)": "17574bc5",
      "redeemTCandTPFee()": "f375cfba",
      "redeemTCandTPto(uint256,uint256,uint256,uint256,address)": "9bdd7cce",
      "redeemTCto(uint256,uint256,address)": "e4012945",
      "redeemTP(uint256,uint256,uint256)": "17df0ab8",
      "redeemTPto(uint256,uint256,uint256,address)": "54a73c62",
      "refreshACBalance()": "e23c135c",
      "setAppreciationFactor(uint256)": "01dde6ef",
      "setBes(uint256)": "c84353c9",
      "setEmaCalculationBlockSpan(uint256)": "3bc4ac0a",
      "setFeeRetainer(uint256)": "7750ba0c",
      "setLiqEnabled(bool)": "1fe6a7ad",
      "setLiqThrld(uint256)": "2c43bd3b",
      "setMintTCandTPFee(uint256)": "2069f753",
      "setMocAppreciationBeneficiaryAddress(address)": "27eab2a1",
      "setMocFeeFlowAddress(address)": "0d6ac463",
      "setPauser(address)": "2d88af4a",
      "setProtThrld(uint256)": "7cba2383",
      "setRedeemTCandTPFee(uint256)": "7a4ff1d9",
      "setSuccessFee(uint256)": "becaca6b",
      "setSwapTCforTPFee(uint256)": "7af5758c",
      "setSwapTPforTCFee(uint256)": "0e0a8fd2",
      "setSwapTPforTPFee(uint256)": "70713468",
      "setTcMintFee(uint256)": "f2808778",
      "setTcRedeemFee(uint256)": "c00f538d",
      "shouldCalculateEma()": "a8e9ac30",
      "stoppable()": "bb4872de",
      "successFee()": "7554fffd",
      "swapTCforTP(uint256,uint256,uint256,uint256)": "bb2ac788",
      "swapTCforTPFee()": "2a20d57d",
      "swapTCforTPto(uint256,uint256,uint256,uint256,address)": "01cded9c",
      "swapTPforTC(uint256,uint256,uint256,uint256)": "1301a8f0",
      "swapTPforTCFee()": "333431fd",
      "swapTPforTCto(uint256,uint256,uint256,uint256,address)": "4454ae8b",
      "swapTPforTP(uint256,uint256,uint256,uint256,uint256)": "ceecc55a",
      "swapTPforTPFee()": "407f0e34",
      "swapTPforTPto(uint256,uint256,uint256,uint256,uint256,address)": "1f1138a6",
      "tcMintFee()": "fda70f8b",
      "tcRedeemFee()": "aea038dc",
      "tcToken()": "60009e0b",
      "tpCtarg(uint256)": "7d8e0314",
      "tpEma(uint256)": "e6b1627c",
      "tpMintFee(uint256)": "de08160f",
      "tpRedeemFee(uint256)": "5241271c",
      "tpTokens(uint256)": "01f1b684",
      "unpause()": "3f4ba83a",
      "updateEmas()": "d1a0faa0",
      "upgradeTo(address)": "3659cfe6",
      "upgradeToAndCall(address,bytes)": "4f1ef286"
    }
  },
  "storageLayout": {
    "storage": [
      {
        "astId": 974,
        "contract": "contracts/collateral/rc20/MocCARC20.sol:MocCARC20",
        "label": "_initialized",
        "offset": 0,
        "slot": "0",
        "type": "t_uint8"
      },
      {
        "astId": 977,
        "contract": "contracts/collateral/rc20/MocCARC20.sol:MocCARC20",
        "label": "_initializing",
        "offset": 1,
        "slot": "0",
        "type": "t_bool"
      },
      {
        "astId": 956,
        "contract": "contracts/collateral/rc20/MocCARC20.sol:MocCARC20",
        "label": "__gap",
        "offset": 0,
        "slot": "1",
        "type": "t_array(t_uint256)50_storage"
      },
      {
        "astId": 1271,
        "contract": "contracts/collateral/rc20/MocCARC20.sol:MocCARC20",
        "label": "__gap",
        "offset": 0,
        "slot": "51",
        "type": "t_array(t_uint256)50_storage"
      },
      {
        "astId": 19990,
        "contract": "contracts/collateral/rc20/MocCARC20.sol:MocCARC20",
        "label": "__gap",
        "offset": 0,
        "slot": "101",
        "type": "t_array(t_uint256)50_storage"
      },
      {
        "astId": 18105,
        "contract": "contracts/collateral/rc20/MocCARC20.sol:MocCARC20",
        "label": "governor",
        "offset": 0,
        "slot": "151",
        "type": "t_contract(IGovernor)18860"
      },
      {
        "astId": 18176,
        "contract": "contracts/collateral/rc20/MocCARC20.sol:MocCARC20",
        "label": "__gap",
        "offset": 0,
        "slot": "152",
        "type": "t_array(t_uint256)50_storage"
      },
      {
        "astId": 18240,
        "contract": "contracts/collateral/rc20/MocCARC20.sol:MocCARC20",
        "label": "stoppable",
        "offset": 0,
        "slot": "202",
        "type": "t_bool"
      },
      {
        "astId": 18242,
        "contract": "contracts/collateral/rc20/MocCARC20.sol:MocCARC20",
        "label": "_paused",
        "offset": 1,
        "slot": "202",
        "type": "t_bool"
      },
      {
        "astId": 18244,
        "contract": "contracts/collateral/rc20/MocCARC20.sol:MocCARC20",
        "label": "pauser",
        "offset": 2,
        "slot": "202",
        "type": "t_address"
      },
      {
        "astId": 18403,
        "contract": "contracts/collateral/rc20/MocCARC20.sol:MocCARC20",
        "label": "__gap",
        "offset": 0,
        "slot": "203",
        "type": "t_array(t_uint256)50_storage"
      },
      {
        "astId": 18223,
        "contract": "contracts/collateral/rc20/MocCARC20.sol:MocCARC20",
        "label": "__gap",
        "offset": 0,
        "slot": "253",
        "type": "t_array(t_uint256)50_storage"
      },
      {
        "astId": 11081,
        "contract": "contracts/collateral/rc20/MocCARC20.sol:MocCARC20",
        "label": "nACcb",
        "offset": 0,
        "slot": "303",
        "type": "t_uint256"
      },
      {
        "astId": 11083,
        "contract": "contracts/collateral/rc20/MocCARC20.sol:MocCARC20",
        "label": "nACioucb",
        "offset": 0,
        "slot": "304",
        "type": "t_uint256"
      },
      {
        "astId": 11086,
        "contract": "contracts/collateral/rc20/MocCARC20.sol:MocCARC20",
        "label": "tcToken",
        "offset": 0,
        "slot": "305",
        "type": "t_contract(MocTC)19897"
      },
      {
        "astId": 11088,
        "contract": "contracts/collateral/rc20/MocCARC20.sol:MocCARC20",
        "label": "nTCcb",
        "offset": 0,
        "slot": "306",
        "type": "t_uint256"
      },
      {
        "astId": 11092,
        "contract": "contracts/collateral/rc20/MocCARC20.sol:MocCARC20",
        "label": "tpTokens",
        "offset": 0,
        "slot": "307",
        "type": "t_array(t_contract(IMocRC20)18891)dyn_storage"
      },
      {
        "astId": 11097,
        "contract": "contracts/collateral/rc20/MocCARC20.sol:MocCARC20",
        "label": "peggedTokenIndex",
        "offset": 0,
        "slot": "308",
        "type": "t_mapping(t_address,t_struct(PeggedTokenIndex)11048_storage)"
      },
      {
        "astId": 11101,
        "contract": "contracts/collateral/rc20/MocCARC20.sol:MocCARC20",
        "label": "pegContainer",
        "offset": 0,
        "slot": "309",
        "type": "t_array(t_struct(PegContainerItem)11043_storage)dyn_storage"
      },
      {
        "astId": 11104,
        "contract": "contracts/collateral/rc20/MocCARC20.sol:MocCARC20",
        "label": "tpLiqPrices",
        "offset": 0,
        "slot": "310",
        "type": "t_array(t_uint256)dyn_storage"
      },
      {
        "astId": 11106,
        "contract": "contracts/collateral/rc20/MocCARC20.sol:MocCARC20",
        "label": "successFee",
        "offset": 0,
        "slot": "311",
        "type": "t_uint256"
      },
      {
        "astId": 11108,
        "contract": "contracts/collateral/rc20/MocCARC20.sol:MocCARC20",
        "label": "appreciationFactor",
        "offset": 0,
        "slot": "312",
        "type": "t_uint256"
      },
      {
        "astId": 11110,
        "contract": "contracts/collateral/rc20/MocCARC20.sol:MocCARC20",
        "label": "feeRetainer",
        "offset": 0,
        "slot": "313",
        "type": "t_uint256"
      },
      {
        "astId": 11112,
        "contract": "contracts/collateral/rc20/MocCARC20.sol:MocCARC20",
        "label": "tcMintFee",
        "offset": 0,
        "slot": "314",
        "type": "t_uint256"
      },
      {
        "astId": 11114,
        "contract": "contracts/collateral/rc20/MocCARC20.sol:MocCARC20",
        "label": "tcRedeemFee",
        "offset": 0,
        "slot": "315",
        "type": "t_uint256"
      },
      {
        "astId": 11116,
        "contract": "contracts/collateral/rc20/MocCARC20.sol:MocCARC20",
        "label": "swapTPforTPFee",
        "offset": 0,
        "slot": "316",
        "type": "t_uint256"
      },
      {
        "astId": 11118,
        "contract": "contracts/collateral/rc20/MocCARC20.sol:MocCARC20",
        "label": "swapTPforTCFee",
        "offset": 0,
        "slot": "317",
        "type": "t_uint256"
      },
      {
        "astId": 11120,
        "contract": "contracts/collateral/rc20/MocCARC20.sol:MocCARC20",
        "label": "swapTCforTPFee",
        "offset": 0,
        "slot": "318",
        "type": "t_uint256"
      },
      {
        "astId": 11122,
        "contract": "contracts/collateral/rc20/MocCARC20.sol:MocCARC20",
        "label": "redeemTCandTPFee",
        "offset": 0,
        "slot": "319",
        "type": "t_uint256"
      },
      {
        "astId": 11124,
        "contract": "contracts/collateral/rc20/MocCARC20.sol:MocCARC20",
        "label": "mintTCandTPFee",
        "offset": 0,
        "slot": "320",
        "type": "t_uint256"
      },
      {
        "astId": 11127,
        "contract": "contracts/collateral/rc20/MocCARC20.sol:MocCARC20",
        "label": "tpMintFee",
        "offset": 0,
        "slot": "321",
        "type": "t_array(t_uint256)dyn_storage"
      },
      {
        "astId": 11130,
        "contract": "contracts/collateral/rc20/MocCARC20.sol:MocCARC20",
        "label": "tpRedeemFee",
        "offset": 0,
        "slot": "322",
        "type": "t_array(t_uint256)dyn_storage"
      },
      {
        "astId": 11132,
        "contract": "contracts/collateral/rc20/MocCARC20.sol:MocCARC20",
        "label": "mocFeeFlowAddress",
        "offset": 0,
        "slot": "323",
        "type": "t_address"
      },
      {
        "astId": 11134,
        "contract": "contracts/collateral/rc20/MocCARC20.sol:MocCARC20",
        "label": "mocAppreciationBeneficiaryAddress",
        "offset": 0,
        "slot": "324",
        "type": "t_address"
      },
      {
        "astId": 11137,
        "contract": "contracts/collateral/rc20/MocCARC20.sol:MocCARC20",
        "label": "tpCtarg",
        "offset": 0,
        "slot": "325",
        "type": "t_array(t_uint256)dyn_storage"
      },
      {
        "astId": 11139,
        "contract": "contracts/collateral/rc20/MocCARC20.sol:MocCARC20",
        "label": "protThrld",
        "offset": 0,
        "slot": "326",
        "type": "t_uint256"
      },
      {
        "astId": 11141,
        "contract": "contracts/collateral/rc20/MocCARC20.sol:MocCARC20",
        "label": "liqThrld",
        "offset": 0,
        "slot": "327",
        "type": "t_uint256"
      },
      {
        "astId": 11143,
        "contract": "contracts/collateral/rc20/MocCARC20.sol:MocCARC20",
        "label": "liqEnabled",
        "offset": 0,
        "slot": "328",
        "type": "t_bool"
      },
      {
        "astId": 11145,
        "contract": "contracts/collateral/rc20/MocCARC20.sol:MocCARC20",
        "label": "liquidated",
        "offset": 1,
        "slot": "328",
        "type": "t_bool"
      },
      {
        "astId": 11148,
        "contract": "contracts/collateral/rc20/MocCARC20.sol:MocCARC20",
        "label": "tpiou",
        "offset": 0,
        "slot": "329",
        "type": "t_array(t_int256)dyn_storage"
      },
      {
        "astId": 11151,
        "contract": "contracts/collateral/rc20/MocCARC20.sol:MocCARC20",
        "label": "pACtpLstop",
        "offset": 0,
        "slot": "330",
        "type": "t_array(t_uint256)dyn_storage"
      },
      {
        "astId": 12382,
        "contract": "contracts/collateral/rc20/MocCARC20.sol:MocCARC20",
        "label": "__gap",
        "offset": 0,
        "slot": "331",
        "type": "t_array(t_uint256)50_storage"
      },
      {
        "astId": 15131,
        "contract": "contracts/collateral/rc20/MocCARC20.sol:MocCARC20",
        "label": "tpEma",
        "offset": 0,
        "slot": "381",
        "type": "t_array(t_struct(EmaItem)15127_storage)dyn_storage"
      },
      {
        "astId": 15133,
        "contract": "contracts/collateral/rc20/MocCARC20.sol:MocCARC20",
        "label": "nextEmaCalculation",
        "offset": 0,
        "slot": "382",
        "type": "t_uint256"
      },
      {
        "astId": 15135,
        "contract": "contracts/collateral/rc20/MocCARC20.sol:MocCARC20",
        "label": "emaCalculationBlockSpan",
        "offset": 0,
        "slot": "383",
        "type": "t_uint256"
      },
      {
        "astId": 15507,
        "contract": "contracts/collateral/rc20/MocCARC20.sol:MocCARC20",
        "label": "__gap",
        "offset": 0,
        "slot": "384",
        "type": "t_array(t_uint256)50_storage"
      },
      {
        "astId": 15518,
        "contract": "contracts/collateral/rc20/MocCARC20.sol:MocCARC20",
        "label": "bes",
        "offset": 0,
        "slot": "434",
        "type": "t_uint256"
      },
      {
        "astId": 15520,
        "contract": "contracts/collateral/rc20/MocCARC20.sol:MocCARC20",
        "label": "bns",
        "offset": 0,
        "slot": "435",
        "type": "t_uint256"
      },
      {
        "astId": 15613,
        "contract": "contracts/collateral/rc20/MocCARC20.sol:MocCARC20",
        "label": "__gap",
        "offset": 0,
        "slot": "436",
        "type": "t_array(t_uint256)50_storage"
      },
      {
        "astId": 1413,
        "contract": "contracts/collateral/rc20/MocCARC20.sol:MocCARC20",
        "label": "_status",
        "offset": 0,
        "slot": "486",
        "type": "t_uint256"
      },
      {
        "astId": 1471,
        "contract": "contracts/collateral/rc20/MocCARC20.sol:MocCARC20",
        "label": "__gap",
        "offset": 0,
        "slot": "487",
        "type": "t_array(t_uint256)49_storage"
      },
      {
        "astId": 15106,
        "contract": "contracts/collateral/rc20/MocCARC20.sol:MocCARC20",
        "label": "__gap",
        "offset": 0,
        "slot": "536",
        "type": "t_array(t_uint256)50_storage"
      },
      {
        "astId": 10560,
        "contract": "contracts/collateral/rc20/MocCARC20.sol:MocCARC20",
        "label": "acToken",
        "offset": 0,
        "slot": "586",
        "type": "t_contract(IERC20)5864"
      },
      {
        "astId": 11007,
        "contract": "contracts/collateral/rc20/MocCARC20.sol:MocCARC20",
        "label": "__gap",
        "offset": 0,
        "slot": "587",
        "type": "t_array(t_uint256)50_storage"
      }
    ],
    "types": {
      "t_address": {
        "encoding": "inplace",
        "label": "address",
        "numberOfBytes": "20"
      },
      "t_array(t_contract(IMocRC20)18891)dyn_storage": {
        "base": "t_contract(IMocRC20)18891",
        "encoding": "dynamic_array",
        "label": "contract IMocRC20[]",
        "numberOfBytes": "32"
      },
      "t_array(t_int256)dyn_storage": {
        "base": "t_int256",
        "encoding": "dynamic_array",
        "label": "int256[]",
        "numberOfBytes": "32"
      },
      "t_array(t_struct(EmaItem)15127_storage)dyn_storage": {
        "base": "t_struct(EmaItem)15127_storage",
        "encoding": "dynamic_array",
        "label": "struct MocEma.EmaItem[]",
        "numberOfBytes": "32"
      },
      "t_array(t_struct(PegContainerItem)11043_storage)dyn_storage": {
        "base": "t_struct(PegContainerItem)11043_storage",
        "encoding": "dynamic_array",
        "label": "struct MocBaseBucket.PegContainerItem[]",
        "numberOfBytes": "32"
      },
      "t_array(t_uint256)49_storage": {
        "base": "t_uint256",
        "encoding": "inplace",
        "label": "uint256[49]",
        "numberOfBytes": "1568"
      },
      "t_array(t_uint256)50_storage": {
        "base": "t_uint256",
        "encoding": "inplace",
        "label": "uint256[50]",
        "numberOfBytes": "1600"
      },
      "t_array(t_uint256)dyn_storage": {
        "base": "t_uint256",
        "encoding": "dynamic_array",
        "label": "uint256[]",
        "numberOfBytes": "32"
      },
      "t_bool": {
        "encoding": "inplace",
        "label": "bool",
        "numberOfBytes": "1"
      },
      "t_contract(IERC20)5864": {
        "encoding": "inplace",
        "label": "contract IERC20",
        "numberOfBytes": "20"
      },
      "t_contract(IGovernor)18860": {
        "encoding": "inplace",
        "label": "contract IGovernor",
        "numberOfBytes": "20"
      },
      "t_contract(IMocRC20)18891": {
        "encoding": "inplace",
        "label": "contract IMocRC20",
        "numberOfBytes": "20"
      },
      "t_contract(IPriceProvider)18903": {
        "encoding": "inplace",
        "label": "contract IPriceProvider",
        "numberOfBytes": "20"
      },
      "t_contract(MocTC)19897": {
        "encoding": "inplace",
        "label": "contract MocTC",
        "numberOfBytes": "20"
      },
      "t_int256": {
        "encoding": "inplace",
        "label": "int256",
        "numberOfBytes": "32"
      },
      "t_mapping(t_address,t_struct(PeggedTokenIndex)11048_storage)": {
        "encoding": "mapping",
        "key": "t_address",
        "label": "mapping(address => struct MocBaseBucket.PeggedTokenIndex)",
        "numberOfBytes": "32",
        "value": "t_struct(PeggedTokenIndex)11048_storage"
      },
      "t_struct(EmaItem)15127_storage": {
        "encoding": "inplace",
        "label": "struct MocEma.EmaItem",
        "members": [
          {
            "astId": 15124,
            "contract": "contracts/collateral/rc20/MocCARC20.sol:MocCARC20",
            "label": "ema",
            "offset": 0,
            "slot": "0",
            "type": "t_uint256"
          },
          {
            "astId": 15126,
            "contract": "contracts/collateral/rc20/MocCARC20.sol:MocCARC20",
            "label": "sf",
            "offset": 0,
            "slot": "1",
            "type": "t_uint256"
          }
        ],
        "numberOfBytes": "64"
      },
      "t_struct(PegContainerItem)11043_storage": {
        "encoding": "inplace",
        "label": "struct MocBaseBucket.PegContainerItem",
        "members": [
          {
            "astId": 11039,
            "contract": "contracts/collateral/rc20/MocCARC20.sol:MocCARC20",
            "label": "nTP",
            "offset": 0,
            "slot": "0",
            "type": "t_uint256"
          },
          {
            "astId": 11042,
            "contract": "contracts/collateral/rc20/MocCARC20.sol:MocCARC20",
            "label": "priceProvider",
            "offset": 0,
            "slot": "1",
            "type": "t_contract(IPriceProvider)18903"
          }
        ],
        "numberOfBytes": "64"
      },
      "t_struct(PeggedTokenIndex)11048_storage": {
        "encoding": "inplace",
        "label": "struct MocBaseBucket.PeggedTokenIndex",
        "members": [
          {
            "astId": 11045,
            "contract": "contracts/collateral/rc20/MocCARC20.sol:MocCARC20",
            "label": "index",
            "offset": 0,
            "slot": "0",
            "type": "t_uint256"
          },
          {
            "astId": 11047,
            "contract": "contracts/collateral/rc20/MocCARC20.sol:MocCARC20",
            "label": "exists",
            "offset": 0,
            "slot": "1",
            "type": "t_bool"
          }
        ],
        "numberOfBytes": "64"
      },
      "t_uint256": {
        "encoding": "inplace",
        "label": "uint256",
        "numberOfBytes": "32"
      },
      "t_uint8": {
        "encoding": "inplace",
        "label": "uint8",
        "numberOfBytes": "1"
      }
    }
  },
  "userdoc": {
    "kind": "user",
    "methods": {
      "addPeggedToken((address,address,uint256,uint256,uint256,uint256,uint256))": {
        "notice": "add a Pegged Token to the protocol"
      },
      "calcCtargemaCA()": {
        "notice": "calculates target coverage adjusted by all Pegged Token's to Collateral Asset rate moving average"
      },
      "changeGovernor(address)": {
        "notice": "Change the contract's governor. Should be called through the old governance system"
      },
      "editPeggedToken((address,address,uint256,uint256,uint256,uint256,uint256))": {
        "notice": "modifies a Pegged Token of the protocol"
      },
      "evalLiquidation()": {
        "notice": "evaluates if liquidation threshold has been reached and liq is Enabled. If so forces contracts liquidation, blocking all mint & redeem operations. May emit a {ContractLiquidated} event."
      },
      "getBts()": {
        "notice": "get the number of blocks remaining for settlement"
      },
      "getCglb()": {
        "notice": "get bucket global coverage"
      },
      "getLeverageTC()": {
        "notice": "get Collateral Token leverage"
      },
      "getPACtp(uint256)": {
        "notice": "get how many Pegged Token equal 1 Collateral Asset"
      },
      "getPTCac()": {
        "notice": "get Collateral Token price"
      },
      "getQACforRedeemTP(uint256,uint256)": {
        "notice": "returns how many Collateral Asset are needed to redeem `qTP_` amount of Pegged Token `i_`"
      },
      "getTCAvailableToRedeem()": {
        "notice": "get amount of Collateral Token available to redeem"
      },
      "getTPAvailableToMint(uint256)": {
        "notice": "get amount of Pegged Token available to mint"
      },
      "getTotalACavailable()": {
        "notice": "get total Collateral Asset available"
      },
      "governor()": {
        "notice": "The address of the contract which governs this one"
      },
      "initialize((((address,address,address,uint256,uint256,uint256,uint256,uint256,uint256,uint256,uint256,uint256,uint256,uint256,uint256),address,address,uint256,uint256),address))": {
        "notice": "contract initializer"
      },
      "isLiquidationReached()": {
        "notice": "If liquidation is enabled, verifies if forced liquidation has been reached, checking if globalCoverage <= liquidation"
      },
      "liqRedeemTP(uint256)": {
        "notice": "Allow redeem on liquidation state, user Peg balance gets burned and he receives the equivalent AC given the liquidation frozen price."
      },
      "liqRedeemTPto(uint256,address)": {
        "notice": "Allow redeem on liquidation state, user Peg balance gets burned and he receives the equivalent AC given the liquidation frozen price."
      },
      "makeStoppable()": {
        "notice": "Switches ON the stoppability of the contract; if the contract was paused before making it unstoppable it will be paused again after calling this function"
      },
      "makeUnstoppable()": {
        "notice": "Switches OFF the stoppability of the contract; if the contract was paused it will no longer be so"
      },
      "mintTC(uint256,uint256)": {
        "notice": "caller sends Collateral Asset and receives Collateral Token Requires prior sender approval of Collateral Asset to this contract "
      },
      "mintTCandTP(uint256,uint256,uint256)": {
        "notice": "caller sends Collateral Asset and receives Collateral Token and Pegged Token  Requires prior sender approval of Collateral Asset to this contract  This operation is done without checking coverage  Collateral Token and Pegged Token are minted in equivalent proportions so that its price  and global coverage are not modified.  Reverts if qAC sent are insufficient."
      },
      "mintTCandTPto(uint256,uint256,uint256,address)": {
        "notice": "caller sends Collateral Asset and recipient receives Collateral Token and Pegged Token  Requires prior sender approval of Collateral Asset to this contract  This operation is done without checking coverage  Collateral Token and Pegged Token are minted in equivalent proportions so that its price  and global coverage are not modified.  Reverts if qAC sent are insufficient."
      },
      "mintTCto(uint256,uint256,address)": {
        "notice": "caller sends Collateral Asset and recipient receives Collateral Token Requires prior sender approval of Collateral Asset to this contract "
      },
      "mintTP(uint256,uint256,uint256)": {
        "notice": "caller sends Collateral Asset and receives Pegged Token Requires prior sender approval of Collateral Asset to this contract "
      },
      "mintTPto(uint256,uint256,uint256,address)": {
        "notice": "caller sends Collateral Asset and recipient receives Pegged Token Requires prior sender approval of Collateral Asset to this contract "
      },
      "pause()": {
        "notice": "Called by the owner to pause, triggers stopped state"
      },
      "paused()": {
        "notice": "Returns true if paused"
      },
      "redeemTC(uint256,uint256)": {
        "notice": "caller sends Collateral Token and receives Collateral Asset"
      },
      "redeemTCandTP(uint256,uint256,uint256,uint256)": {
        "notice": "caller sends Collateral Token and Pegged Token and receives coinbase as Collateral Asset  This operation is done without checking coverage  Collateral Token and Pegged Token are redeemed in equivalent proportions so that its price  and global coverage are not modified.  Reverts if qTP sent are insufficient."
      },
      "redeemTCandTPto(uint256,uint256,uint256,uint256,address)": {
        "notice": "caller sends Collateral Token and Pegged Token and recipient receives Collateral Asset  This operation is done without checking coverage  Collateral Token and Pegged Token are redeemed in equivalent proportions so that its price  and global coverage are not modified.  Reverts if qTP sent are insufficient."
      },
      "redeemTCto(uint256,uint256,address)": {
        "notice": "caller sends Collateral Token and recipient receives Collateral Asset"
      },
      "redeemTP(uint256,uint256,uint256)": {
        "notice": "caller sends Pegged Token and receives Collateral Asset"
      },
      "redeemTPto(uint256,uint256,uint256,address)": {
        "notice": "caller sends Pegged Token and recipient receives Collateral Asset"
      },
      "refreshACBalance()": {
        "notice": "Refreshes the AC holdings for the Bucket"
      },
      "setPauser(address)": {
        "notice": "Changes the address which is enable to pause this contract"
      },
      "shouldCalculateEma()": {
        "notice": "true if the necessary span has pass since last ema update"
      },
      "swapTCforTP(uint256,uint256,uint256,uint256)": {
        "notice": "caller sends Collateral Token and receives Pegged Token"
      },
      "swapTCforTPto(uint256,uint256,uint256,uint256,address)": {
        "notice": "caller sends Collateral Token and recipient receives Pegged Token"
      },
      "swapTPforTC(uint256,uint256,uint256,uint256)": {
        "notice": "caller sends a Pegged Token and receives Collateral Token"
      },
      "swapTPforTCto(uint256,uint256,uint256,uint256,address)": {
        "notice": "caller sends a Pegged Token and recipient receives Collateral Token"
      },
      "swapTPforTP(uint256,uint256,uint256,uint256,uint256)": {
        "notice": "caller sends a Pegged Token and receives another one"
      },
      "swapTPforTPto(uint256,uint256,uint256,uint256,uint256,address)": {
        "notice": "caller sends a Pegged Token and recipient receives another one"
      },
      "unpause()": {
        "notice": "Called by the owner to unpause, returns to normal state"
      },
      "updateEmas()": {
        "notice": "If time, calculates the EMA for all the Pegged Token prices."
      }
    },
    "notice": "Moc protocol implementation using a RC20 as Collateral Asset.",
    "version": 1
  }
}