{
  "contractName": "Stoppable",
  "sourceName": "contracts/governance/Stoppable.sol",
  "abi": [
    {
      "inputs": [],
      "name": "InvalidAddress",
      "type": "error"
    },
    {
      "inputs": [],
      "name": "InvalidValue",
      "type": "error"
    },
    {
      "inputs": [],
      "name": "NotAuthorizedChanger",
      "type": "error"
    },
    {
      "inputs": [],
      "name": "NotWhenPaused",
      "type": "error"
    },
    {
      "inputs": [],
      "name": "OnlyPauser",
      "type": "error"
    },
    {
      "inputs": [],
      "name": "OnlyWhilePaused",
      "type": "error"
    },
    {
      "inputs": [],
      "name": "Unstoppable",
      "type": "error"
    },
    {
      "anonymous": false,
      "inputs": [
        {
          "indexed": false,
          "internalType": "uint8",
          "name": "version",
          "type": "uint8"
        }
      ],
      "name": "Initialized",
      "type": "event"
    },
    {
      "anonymous": false,
      "inputs": [
        {
          "indexed": false,
          "internalType": "address",
          "name": "account",
          "type": "address"
        }
      ],
      "name": "Paused",
      "type": "event"
    },
    {
      "anonymous": false,
      "inputs": [
        {
          "indexed": false,
          "internalType": "address",
          "name": "account",
          "type": "address"
        }
      ],
      "name": "Unpaused",
      "type": "event"
    },
    {
      "inputs": [
        {
          "internalType": "contract IGovernor",
          "name": "newGovernor_",
          "type": "address"
        }
      ],
      "name": "changeGovernor",
      "outputs": [],
      "stateMutability": "nonpayable",
      "type": "function"
    },
    {
      "inputs": [],
      "name": "governor",
      "outputs": [
        {
          "internalType": "contract IGovernor",
          "name": "",
          "type": "address"
        }
      ],
      "stateMutability": "view",
      "type": "function"
    },
    {
      "inputs": [],
      "name": "makeStoppable",
      "outputs": [],
      "stateMutability": "nonpayable",
      "type": "function"
    },
    {
      "inputs": [],
      "name": "makeUnstoppable",
      "outputs": [],
      "stateMutability": "nonpayable",
      "type": "function"
    },
    {
      "inputs": [],
      "name": "pause",
      "outputs": [],
      "stateMutability": "nonpayable",
      "type": "function"
    },
    {
      "inputs": [],
      "name": "paused",
      "outputs": [
        {
          "internalType": "bool",
          "name": "",
          "type": "bool"
        }
      ],
      "stateMutability": "view",
      "type": "function"
    },
    {
      "inputs": [],
      "name": "pauser",
      "outputs": [
        {
          "internalType": "address",
          "name": "",
          "type": "address"
        }
      ],
      "stateMutability": "view",
      "type": "function"
    },
    {
      "inputs": [
        {
          "internalType": "address",
          "name": "newPauser_",
          "type": "address"
        }
      ],
      "name": "setPauser",
      "outputs": [],
      "stateMutability": "nonpayable",
      "type": "function"
    },
    {
      "inputs": [],
      "name": "stoppable",
      "outputs": [
        {
          "internalType": "bool",
          "name": "",
          "type": "bool"
        }
      ],
      "stateMutability": "view",
      "type": "function"
    },
    {
      "inputs": [],
      "name": "unpause",
      "outputs": [],
      "stateMutability": "nonpayable",
      "type": "function"
    }
  ],
  "bytecode": "0x608080604052346100165761043a908161001c8239f35b600080fdfe6080604081815260048036101561001557600080fd5b600092833560e01c9081630c340a2414610317575080632d88af4a146102c25780633f4ba83a1461024a5780635210570c146102235780635c975abb146101fc57806368274357146101d25780638456cb59146101315780639fd0506d14610104578063bb4872de146100dc5763e4c0aaf41461009157600080fd5b346100d85760203660031901126100d857356001600160a01b038116908190036100d8576100bd61033c565b6bffffffffffffffffffffffff60a01b603354161760335551f35b8280fd5b50503461010057816003193601126101005760209060ff6066541690519015158152f35b5080fd5b505034610100578160031936011261010057606654905160109190911c6001600160a01b03168152602090f35b50346100d857826003193601126100d8576066549060ff8260081c166101c457601082901c6001600160a01b031633036101b65760ff8216156101a857506101009061ff001916176066557f62e78cea01bee320cd4e420270b5ea74000d11b0c9f74754ebdbfc544b05a25860208251338152a151f35b825163866099c360e01b8152fd5b8251631d77d47760e21b8152fd5b825163783bb6c960e11b8152fd5b5050346101005781600319360112610100576101ec61033c565b600160ff19606654161760665551f35b50503461010057816003193601126101005760209060ff60665460081c1690519015158152f35b50503461010057816003193601126101005761023d61033c565b60ff196066541660665551f35b50346100d857826003193601126100d8576066549060ff8260081c16156102b457601082901c6001600160a01b031633036101b6575061ff0019166066557f5db9ee0a495bf2e6ff9c91a7834c1ba4fdd244a5e8aa4e537bd38aeae4b073aa60208251338152a151f35b8251637c7fd07960e01b8152fd5b50346100d85760203660031901126100d857356001600160a01b03811681036100d8576102ed61033c565b6066805462010000600160b01b03191660109290921b62010000600160b01b031691909117905551f35b8490346101005781600319360112610100576033546001600160a01b03168152602090f35b60335460405163d994d6d560e01b815233600482015290602090829060249082906001600160a01b03165afa9081156103f857600091610391575b501561037f57565b604051631dd1b1b560e21b8152600490fd5b60203d81116103f1575b601f8101601f1916820167ffffffffffffffff8111838210176103dd5760209183916040528101031261010057519081151582036103da575038610377565b80fd5b634e487b7160e01b84526041600452602484fd5b503d61039b565b6040513d6000823e3d90fdfea2646970667358221220978c1db2b72f5c11deef53758c23165dabe352283b05896633dddc7ce186f81b64736f6c63430008100033",
  "linkReferences": {},
  "deployedLinkReferences": {},
  "devdoc": {
    "details": "This contract was heavily based on the _Pausable_ contract of openzeppelin-eth but it was modified in order to being able to turn on and off its stoppability",
    "kind": "dev",
    "methods": {
      "changeGovernor(address)": {
        "params": {
          "newGovernor_": "New governor address"
        }
      },
      "makeStoppable()": {
        "details": "Should be called through governance"
      },
      "makeUnstoppable()": {
        "details": "Should be called through governance"
      },
      "pause()": {
        "details": "Should only be called by the pauser and when it is stoppable"
      },
      "setPauser(address)": {
        "details": "Should be called through governance",
        "params": {
          "newPauser_": "Address of the new pauser"
        }
      }
    },
    "stateVariables": {
      "__gap": {
        "details": "This empty reserved space is put in place to allow future versions to add new variables without shifting down storage in the inheritance chain. See https://docs.openzeppelin.com/contracts/4.x/upgradeable#storage_gaps"
      }
    },
    "title": "Stoppable",
    "version": 1
  },
  "evm": {
    "bytecode": {
      "linkReferences": {},
      "opcodes": "PUSH1 0x80 DUP1 PUSH1 0x40 MSTORE CALLVALUE PUSH2 0x16 JUMPI PUSH2 0x43A SWAP1 DUP2 PUSH2 0x1C DUP3 CODECOPY RETURN JUMPDEST PUSH1 0x0 DUP1 REVERT INVALID PUSH1 0x80 PUSH1 0x40 DUP2 DUP2 MSTORE PUSH1 0x4 DUP1 CALLDATASIZE LT ISZERO PUSH2 0x15 JUMPI PUSH1 0x0 DUP1 REVERT JUMPDEST PUSH1 0x0 SWAP3 DUP4 CALLDATALOAD PUSH1 0xE0 SHR SWAP1 DUP2 PUSH4 0xC340A24 EQ PUSH2 0x317 JUMPI POP DUP1 PUSH4 0x2D88AF4A EQ PUSH2 0x2C2 JUMPI DUP1 PUSH4 0x3F4BA83A EQ PUSH2 0x24A JUMPI DUP1 PUSH4 0x5210570C EQ PUSH2 0x223 JUMPI DUP1 PUSH4 0x5C975ABB EQ PUSH2 0x1FC JUMPI DUP1 PUSH4 0x68274357 EQ PUSH2 0x1D2 JUMPI DUP1 PUSH4 0x8456CB59 EQ PUSH2 0x131 JUMPI DUP1 PUSH4 0x9FD0506D EQ PUSH2 0x104 JUMPI DUP1 PUSH4 0xBB4872DE EQ PUSH2 0xDC JUMPI PUSH4 0xE4C0AAF4 EQ PUSH2 0x91 JUMPI PUSH1 0x0 DUP1 REVERT JUMPDEST CALLVALUE PUSH2 0xD8 JUMPI PUSH1 0x20 CALLDATASIZE PUSH1 0x3 NOT ADD SLT PUSH2 0xD8 JUMPI CALLDATALOAD PUSH1 0x1 PUSH1 0x1 PUSH1 0xA0 SHL SUB DUP2 AND SWAP1 DUP2 SWAP1 SUB PUSH2 0xD8 JUMPI PUSH2 0xBD PUSH2 0x33C JUMP JUMPDEST PUSH12 0xFFFFFFFFFFFFFFFFFFFFFFFF PUSH1 0xA0 SHL PUSH1 0x33 SLOAD AND OR PUSH1 0x33 SSTORE MLOAD RETURN JUMPDEST DUP3 DUP1 REVERT JUMPDEST POP POP CALLVALUE PUSH2 0x100 JUMPI DUP2 PUSH1 0x3 NOT CALLDATASIZE ADD SLT PUSH2 0x100 JUMPI PUSH1 0x20 SWAP1 PUSH1 0xFF PUSH1 0x66 SLOAD AND SWAP1 MLOAD SWAP1 ISZERO ISZERO DUP2 MSTORE RETURN JUMPDEST POP DUP1 REVERT JUMPDEST POP POP CALLVALUE PUSH2 0x100 JUMPI DUP2 PUSH1 0x3 NOT CALLDATASIZE ADD SLT PUSH2 0x100 JUMPI PUSH1 0x66 SLOAD SWAP1 MLOAD PUSH1 0x10 SWAP2 SWAP1 SWAP2 SHR PUSH1 0x1 PUSH1 0x1 PUSH1 0xA0 SHL SUB AND DUP2 MSTORE PUSH1 0x20 SWAP1 RETURN JUMPDEST POP CALLVALUE PUSH2 0xD8 JUMPI DUP3 PUSH1 0x3 NOT CALLDATASIZE ADD SLT PUSH2 0xD8 JUMPI PUSH1 0x66 SLOAD SWAP1 PUSH1 0xFF DUP3 PUSH1 0x8 SHR AND PUSH2 0x1C4 JUMPI PUSH1 0x10 DUP3 SWAP1 SHR PUSH1 0x1 PUSH1 0x1 PUSH1 0xA0 SHL SUB AND CALLER SUB PUSH2 0x1B6 JUMPI PUSH1 0xFF DUP3 AND ISZERO PUSH2 0x1A8 JUMPI POP PUSH2 0x100 SWAP1 PUSH2 0xFF00 NOT AND OR PUSH1 0x66 SSTORE PUSH32 0x62E78CEA01BEE320CD4E420270B5EA74000D11B0C9F74754EBDBFC544B05A258 PUSH1 0x20 DUP3 MLOAD CALLER DUP2 MSTORE LOG1 MLOAD RETURN JUMPDEST DUP3 MLOAD PUSH4 0x866099C3 PUSH1 0xE0 SHL DUP2 MSTORE REVERT JUMPDEST DUP3 MLOAD PUSH4 0x1D77D477 PUSH1 0xE2 SHL DUP2 MSTORE REVERT JUMPDEST DUP3 MLOAD PUSH4 0x783BB6C9 PUSH1 0xE1 SHL DUP2 MSTORE REVERT JUMPDEST POP POP CALLVALUE PUSH2 0x100 JUMPI DUP2 PUSH1 0x3 NOT CALLDATASIZE ADD SLT PUSH2 0x100 JUMPI PUSH2 0x1EC PUSH2 0x33C JUMP JUMPDEST PUSH1 0x1 PUSH1 0xFF NOT PUSH1 0x66 SLOAD AND OR PUSH1 0x66 SSTORE MLOAD RETURN JUMPDEST POP POP CALLVALUE PUSH2 0x100 JUMPI DUP2 PUSH1 0x3 NOT CALLDATASIZE ADD SLT PUSH2 0x100 JUMPI PUSH1 0x20 SWAP1 PUSH1 0xFF PUSH1 0x66 SLOAD PUSH1 0x8 SHR AND SWAP1 MLOAD SWAP1 ISZERO ISZERO DUP2 MSTORE RETURN JUMPDEST POP POP CALLVALUE PUSH2 0x100 JUMPI DUP2 PUSH1 0x3 NOT CALLDATASIZE ADD SLT PUSH2 0x100 JUMPI PUSH2 0x23D PUSH2 0x33C JUMP JUMPDEST PUSH1 0xFF NOT PUSH1 0x66 SLOAD AND PUSH1 0x66 SSTORE MLOAD RETURN JUMPDEST POP CALLVALUE PUSH2 0xD8 JUMPI DUP3 PUSH1 0x3 NOT CALLDATASIZE ADD SLT PUSH2 0xD8 JUMPI PUSH1 0x66 SLOAD SWAP1 PUSH1 0xFF DUP3 PUSH1 0x8 SHR AND ISZERO PUSH2 0x2B4 JUMPI PUSH1 0x10 DUP3 SWAP1 SHR PUSH1 0x1 PUSH1 0x1 PUSH1 0xA0 SHL SUB AND CALLER SUB PUSH2 0x1B6 JUMPI POP PUSH2 0xFF00 NOT AND PUSH1 0x66 SSTORE PUSH32 0x5DB9EE0A495BF2E6FF9C91A7834C1BA4FDD244A5E8AA4E537BD38AEAE4B073AA PUSH1 0x20 DUP3 MLOAD CALLER DUP2 MSTORE LOG1 MLOAD RETURN JUMPDEST DUP3 MLOAD PUSH4 0x7C7FD079 PUSH1 0xE0 SHL DUP2 MSTORE REVERT JUMPDEST POP CALLVALUE PUSH2 0xD8 JUMPI PUSH1 0x20 CALLDATASIZE PUSH1 0x3 NOT ADD SLT PUSH2 0xD8 JUMPI CALLDATALOAD PUSH1 0x1 PUSH1 0x1 PUSH1 0xA0 SHL SUB DUP2 AND DUP2 SUB PUSH2 0xD8 JUMPI PUSH2 0x2ED PUSH2 0x33C JUMP JUMPDEST PUSH1 0x66 DUP1 SLOAD PUSH3 0x10000 PUSH1 0x1 PUSH1 0xB0 SHL SUB NOT AND PUSH1 0x10 SWAP3 SWAP1 SWAP3 SHL PUSH3 0x10000 PUSH1 0x1 PUSH1 0xB0 SHL SUB AND SWAP2 SWAP1 SWAP2 OR SWAP1 SSTORE MLOAD RETURN JUMPDEST DUP5 SWAP1 CALLVALUE PUSH2 0x100 JUMPI DUP2 PUSH1 0x3 NOT CALLDATASIZE ADD SLT PUSH2 0x100 JUMPI PUSH1 0x33 SLOAD PUSH1 0x1 PUSH1 0x1 PUSH1 0xA0 SHL SUB AND DUP2 MSTORE PUSH1 0x20 SWAP1 RETURN JUMPDEST PUSH1 0x33 SLOAD PUSH1 0x40 MLOAD PUSH4 0xD994D6D5 PUSH1 0xE0 SHL DUP2 MSTORE CALLER PUSH1 0x4 DUP3 ADD MSTORE SWAP1 PUSH1 0x20 SWAP1 DUP3 SWAP1 PUSH1 0x24 SWAP1 DUP3 SWAP1 PUSH1 0x1 PUSH1 0x1 PUSH1 0xA0 SHL SUB AND GAS STATICCALL SWAP1 DUP2 ISZERO PUSH2 0x3F8 JUMPI PUSH1 0x0 SWAP2 PUSH2 0x391 JUMPI JUMPDEST POP ISZERO PUSH2 0x37F JUMPI JUMP JUMPDEST PUSH1 0x40 MLOAD PUSH4 0x1DD1B1B5 PUSH1 0xE2 SHL DUP2 MSTORE PUSH1 0x4 SWAP1 REVERT JUMPDEST PUSH1 0x20 RETURNDATASIZE DUP2 GT PUSH2 0x3F1 JUMPI JUMPDEST PUSH1 0x1F DUP2 ADD PUSH1 0x1F NOT AND DUP3 ADD PUSH8 0xFFFFFFFFFFFFFFFF DUP2 GT DUP4 DUP3 LT OR PUSH2 0x3DD JUMPI PUSH1 0x20 SWAP2 DUP4 SWAP2 PUSH1 0x40 MSTORE DUP2 ADD SUB SLT PUSH2 0x100 JUMPI MLOAD SWAP1 DUP2 ISZERO ISZERO DUP3 SUB PUSH2 0x3DA JUMPI POP CODESIZE PUSH2 0x377 JUMP JUMPDEST DUP1 REVERT JUMPDEST PUSH4 0x4E487B71 PUSH1 0xE0 SHL DUP5 MSTORE PUSH1 0x41 PUSH1 0x4 MSTORE PUSH1 0x24 DUP5 REVERT JUMPDEST POP RETURNDATASIZE PUSH2 0x39B JUMP JUMPDEST PUSH1 0x40 MLOAD RETURNDATASIZE PUSH1 0x0 DUP3 RETURNDATACOPY RETURNDATASIZE SWAP1 REVERT INVALID LOG2 PUSH5 0x6970667358 0x22 SLT KECCAK256 SWAP8 DUP13 SAR 0xB2 0xB7 0x2F 0x5C GT 0xDE 0xEF MSTORE8 PUSH22 0x8C23165DABE352283B05896633DDDC7CE186F81B6473 PUSH16 0x6C634300081000330000000000000000 "
    },
    "gasEstimates": {
      "creation": {
        "codeDepositCost": "216400",
        "executionCost": "263",
        "totalCost": "216663"
      },
      "external": {
        "changeGovernor(address)": "infinite",
        "governor()": "2286",
        "makeStoppable()": "infinite",
        "makeUnstoppable()": "infinite",
        "pause()": "25642",
        "paused()": "2383",
        "pauser()": "2461",
        "setPauser(address)": "infinite",
        "stoppable()": "2465",
        "unpause()": "25523"
      },
      "internal": {
        "__Stoppable_init_unchained(address,bool)": "infinite",
        "_checkNotPaused()": "infinite"
      }
    },
    "methodIdentifiers": {
      "changeGovernor(address)": "e4c0aaf4",
      "governor()": "0c340a24",
      "makeStoppable()": "68274357",
      "makeUnstoppable()": "5210570c",
      "pause()": "8456cb59",
      "paused()": "5c975abb",
      "pauser()": "9fd0506d",
      "setPauser(address)": "2d88af4a",
      "stoppable()": "bb4872de",
      "unpause()": "3f4ba83a"
    }
  },
  "storageLayout": {
    "storage": [
      {
        "astId": 974,
        "contract": "contracts/governance/Stoppable.sol:Stoppable",
        "label": "_initialized",
        "offset": 0,
        "slot": "0",
        "type": "t_uint8"
      },
      {
        "astId": 977,
        "contract": "contracts/governance/Stoppable.sol:Stoppable",
        "label": "_initializing",
        "offset": 1,
        "slot": "0",
        "type": "t_bool"
      },
      {
        "astId": 24925,
        "contract": "contracts/governance/Stoppable.sol:Stoppable",
        "label": "__gap",
        "offset": 0,
        "slot": "1",
        "type": "t_array(t_uint256)50_storage"
      },
      {
        "astId": 22812,
        "contract": "contracts/governance/Stoppable.sol:Stoppable",
        "label": "governor",
        "offset": 0,
        "slot": "51",
        "type": "t_contract(IGovernor)23597"
      },
      {
        "astId": 22883,
        "contract": "contracts/governance/Stoppable.sol:Stoppable",
        "label": "__gap",
        "offset": 0,
        "slot": "52",
        "type": "t_array(t_uint256)50_storage"
      },
      {
        "astId": 22951,
        "contract": "contracts/governance/Stoppable.sol:Stoppable",
        "label": "stoppable",
        "offset": 0,
        "slot": "102",
        "type": "t_bool"
      },
      {
        "astId": 22953,
        "contract": "contracts/governance/Stoppable.sol:Stoppable",
        "label": "_paused",
        "offset": 1,
        "slot": "102",
        "type": "t_bool"
      },
      {
        "astId": 22955,
        "contract": "contracts/governance/Stoppable.sol:Stoppable",
        "label": "pauser",
        "offset": 2,
        "slot": "102",
        "type": "t_address"
      },
      {
        "astId": 23114,
        "contract": "contracts/governance/Stoppable.sol:Stoppable",
        "label": "__gap",
        "offset": 0,
        "slot": "103",
        "type": "t_array(t_uint256)50_storage"
      }
    ],
    "types": {
      "t_address": {
        "encoding": "inplace",
        "label": "address",
        "numberOfBytes": "20"
      },
      "t_array(t_uint256)50_storage": {
        "base": "t_uint256",
        "encoding": "inplace",
        "label": "uint256[50]",
        "numberOfBytes": "1600"
      },
      "t_bool": {
        "encoding": "inplace",
        "label": "bool",
        "numberOfBytes": "1"
      },
      "t_contract(IGovernor)23597": {
        "encoding": "inplace",
        "label": "contract IGovernor",
        "numberOfBytes": "20"
      },
      "t_uint256": {
        "encoding": "inplace",
        "label": "uint256",
        "numberOfBytes": "32"
      },
      "t_uint8": {
        "encoding": "inplace",
        "label": "uint8",
        "numberOfBytes": "1"
      }
    }
  },
  "userdoc": {
    "kind": "user",
    "methods": {
      "changeGovernor(address)": {
        "notice": "Change the contract's governor. Should be called through the old governance system"
      },
      "governor()": {
        "notice": "The address of the contract which governs this one"
      },
      "makeStoppable()": {
        "notice": "Switches ON the stoppability of the contract; if the contract was paused before making it unstoppable it will be paused again after calling this function"
      },
      "makeUnstoppable()": {
        "notice": "Switches OFF the stoppability of the contract; if the contract was paused it will no longer be so"
      },
      "pause()": {
        "notice": "Called by the owner to pause, triggers stopped state"
      },
      "paused()": {
        "notice": "Returns true if paused"
      },
      "setPauser(address)": {
        "notice": "Changes the address which is enable to pause this contract"
      },
      "unpause()": {
        "notice": "Called by the owner to unpause, returns to normal state"
      }
    },
    "notice": "Allow a contract to be paused through the stopper subsystem. This contracts is able to disable the stoppability feature through governance.",
    "version": 1
  }
}