{
  "contractName": "ERC20Mock",
  "sourceName": "contracts/mocks/ERC20Mock.sol",
  "abi": [
    {
      "inputs": [],
      "stateMutability": "nonpayable",
      "type": "constructor"
    },
    {
      "anonymous": false,
      "inputs": [
        {
          "indexed": true,
          "internalType": "address",
          "name": "owner",
          "type": "address"
        },
        {
          "indexed": true,
          "internalType": "address",
          "name": "spender",
          "type": "address"
        },
        {
          "indexed": false,
          "internalType": "uint256",
          "name": "value",
          "type": "uint256"
        }
      ],
      "name": "Approval",
      "type": "event"
    },
    {
      "anonymous": false,
      "inputs": [
        {
          "indexed": true,
          "internalType": "address",
          "name": "from",
          "type": "address"
        },
        {
          "indexed": true,
          "internalType": "address",
          "name": "to",
          "type": "address"
        },
        {
          "indexed": false,
          "internalType": "uint256",
          "name": "value",
          "type": "uint256"
        }
      ],
      "name": "Transfer",
      "type": "event"
    },
    {
      "inputs": [
        {
          "internalType": "address",
          "name": "owner",
          "type": "address"
        },
        {
          "internalType": "address",
          "name": "spender",
          "type": "address"
        }
      ],
      "name": "allowance",
      "outputs": [
        {
          "internalType": "uint256",
          "name": "",
          "type": "uint256"
        }
      ],
      "stateMutability": "view",
      "type": "function"
    },
    {
      "inputs": [
        {
          "internalType": "address",
          "name": "spender",
          "type": "address"
        },
        {
          "internalType": "uint256",
          "name": "amount",
          "type": "uint256"
        }
      ],
      "name": "approve",
      "outputs": [
        {
          "internalType": "bool",
          "name": "",
          "type": "bool"
        }
      ],
      "stateMutability": "nonpayable",
      "type": "function"
    },
    {
      "inputs": [
        {
          "internalType": "address",
          "name": "account",
          "type": "address"
        }
      ],
      "name": "balanceOf",
      "outputs": [
        {
          "internalType": "uint256",
          "name": "",
          "type": "uint256"
        }
      ],
      "stateMutability": "view",
      "type": "function"
    },
    {
      "inputs": [
        {
          "internalType": "uint256",
          "name": "amount",
          "type": "uint256"
        }
      ],
      "name": "burn",
      "outputs": [],
      "stateMutability": "nonpayable",
      "type": "function"
    },
    {
      "inputs": [
        {
          "internalType": "address",
          "name": "account",
          "type": "address"
        },
        {
          "internalType": "uint256",
          "name": "amount",
          "type": "uint256"
        }
      ],
      "name": "burn",
      "outputs": [],
      "stateMutability": "nonpayable",
      "type": "function"
    },
    {
      "inputs": [
        {
          "internalType": "address",
          "name": "account",
          "type": "address"
        },
        {
          "internalType": "uint256",
          "name": "amount",
          "type": "uint256"
        }
      ],
      "name": "burnFrom",
      "outputs": [],
      "stateMutability": "nonpayable",
      "type": "function"
    },
    {
      "inputs": [],
      "name": "customDecimals",
      "outputs": [
        {
          "internalType": "uint8",
          "name": "",
          "type": "uint8"
        }
      ],
      "stateMutability": "view",
      "type": "function"
    },
    {
      "inputs": [],
      "name": "decimals",
      "outputs": [
        {
          "internalType": "uint8",
          "name": "",
          "type": "uint8"
        }
      ],
      "stateMutability": "view",
      "type": "function"
    },
    {
      "inputs": [
        {
          "internalType": "address",
          "name": "spender",
          "type": "address"
        },
        {
          "internalType": "uint256",
          "name": "subtractedValue",
          "type": "uint256"
        }
      ],
      "name": "decreaseAllowance",
      "outputs": [
        {
          "internalType": "bool",
          "name": "",
          "type": "bool"
        }
      ],
      "stateMutability": "nonpayable",
      "type": "function"
    },
    {
      "inputs": [
        {
          "internalType": "enum ERC20Mock.FailType",
          "name": "failType_",
          "type": "uint8"
        }
      ],
      "name": "forceTransferToFail",
      "outputs": [],
      "stateMutability": "nonpayable",
      "type": "function"
    },
    {
      "inputs": [
        {
          "internalType": "address",
          "name": "spender",
          "type": "address"
        },
        {
          "internalType": "uint256",
          "name": "addedValue",
          "type": "uint256"
        }
      ],
      "name": "increaseAllowance",
      "outputs": [
        {
          "internalType": "bool",
          "name": "",
          "type": "bool"
        }
      ],
      "stateMutability": "nonpayable",
      "type": "function"
    },
    {
      "inputs": [
        {
          "internalType": "address",
          "name": "account",
          "type": "address"
        },
        {
          "internalType": "uint256",
          "name": "amount",
          "type": "uint256"
        }
      ],
      "name": "mint",
      "outputs": [],
      "stateMutability": "nonpayable",
      "type": "function"
    },
    {
      "inputs": [],
      "name": "name",
      "outputs": [
        {
          "internalType": "string",
          "name": "",
          "type": "string"
        }
      ],
      "stateMutability": "view",
      "type": "function"
    },
    {
      "inputs": [
        {
          "internalType": "uint8",
          "name": "customDecimals_",
          "type": "uint8"
        }
      ],
      "name": "setDecimals",
      "outputs": [],
      "stateMutability": "nonpayable",
      "type": "function"
    },
    {
      "inputs": [],
      "name": "symbol",
      "outputs": [
        {
          "internalType": "string",
          "name": "",
          "type": "string"
        }
      ],
      "stateMutability": "view",
      "type": "function"
    },
    {
      "inputs": [],
      "name": "totalSupply",
      "outputs": [
        {
          "internalType": "uint256",
          "name": "",
          "type": "uint256"
        }
      ],
      "stateMutability": "view",
      "type": "function"
    },
    {
      "inputs": [
        {
          "internalType": "address",
          "name": "to",
          "type": "address"
        },
        {
          "internalType": "uint256",
          "name": "amount",
          "type": "uint256"
        }
      ],
      "name": "transfer",
      "outputs": [
        {
          "internalType": "bool",
          "name": "",
          "type": "bool"
        }
      ],
      "stateMutability": "nonpayable",
      "type": "function"
    },
    {
      "inputs": [
        {
          "internalType": "address",
          "name": "from",
          "type": "address"
        },
        {
          "internalType": "address",
          "name": "to",
          "type": "address"
        },
        {
          "internalType": "uint256",
          "name": "amount",
          "type": "uint256"
        }
      ],
      "name": "transferFrom",
      "outputs": [
        {
          "internalType": "bool",
          "name": "",
          "type": "bool"
        }
      ],
      "stateMutability": "nonpayable",
      "type": "function"
    }
  ],
  "bytecode": "0x608060405234620003b65762000014620003bb565b6200001e620003bb565b81519091906001600160401b0390818111620002b6576003918254926001928385811c9516958615620003ab575b6020968787101462000395578190601f968781116200033f575b508790878311600114620002d857600092620002cc575b505060001982841b1c191690841b1781555b8551918211620002b65760049586548481811c91168015620002ab575b8782101462000296578581116200024b575b508590858411600114620001e057938394918492600095620001d4575b50501b92600019911b1c19161783555b601260ff19600554161760055533156200019357506002547b6df37f675ef6eadf5ab9a2072d44268d97df837e6748956e5c6c2117928382018092116200017e57506000917fddf252ad1be2c89b69c2b068fc378daa952ba7f163c4a11628f55a4df523b3ef91600255338352828152604083208481540190556040519384523393a3604051610c439081620003f28239f35b601190634e487b7160e01b6000525260246000fd5b606492916040519262461bcd60e51b845283015260248201527f45524332303a206d696e7420746f20746865207a65726f2061646472657373006044820152fd5b015193503880620000db565b9190601f198416928860005284886000209460005b8a8983831062000233575050501062000218575b50505050811b018355620000eb565b01519060f884600019921b161c191690553880808062000209565b868601518955909701969485019488935001620001f5565b87600052866000208680860160051c8201928987106200028c575b0160051c019085905b8281106200027f575050620000be565b600081550185906200026f565b9250819262000266565b602288634e487b7160e01b6000525260246000fd5b90607f1690620000ac565b634e487b7160e01b600052604160045260246000fd5b0151905038806200007d565b90869350601f1983169185600052896000209260005b8b8282106200032857505084116200030f575b505050811b0181556200008f565b015160001983861b60f8161c1916905538808062000301565b8385015186558a97909501949384019301620002ee565b90915083600052876000208780850160051c8201928a86106200038b575b918891869594930160051c01915b8281106200037b57505062000066565b600081558594508891016200036b565b925081926200035d565b634e487b7160e01b600052602260045260246000fd5b94607f16946200004c565b600080fd5b60408051919082016001600160401b03811183821017620002b657604052600982526845524332304d6f636b60b81b602083015256fe6080604081815260048036101561001557600080fd5b600092833560e01c90816306fdde031461064957508063095ea7b31461061557806318160ddd146105f657806323b872dd146105a8578063313ce56714610140578063395093511461055857806340c10f191461049957806342966c681461047b5780635c2f5e261461044657806370a082311461040e57806379cc6790146103d45780637a1395aa146103a757806395d89b41146102875780639dc29fac14610255578063a457c2d7146101a5578063a9059cbb14610166578063ace28fa5146101405763dd62ed3e146100e957600080fd5b3461013c578160031936011261013c576001600160a01b039035818116908190036101385760243591821680920361013857928291602094825260018552828220908252845220549051908152f35b8380fd5b8280fd5b50503461016257816003193601126101625760209060ff600554169051908152f35b5080fd5b503461013c578160031936011261013c5735916001600160a01b03831683036101a2575061019960209260243590610bb9565b90519015158152f35b80fd5b5082346101a257826003193601126101a2578135916001600160a01b038316918284036101a2578490602435933382526001602052828220908252602052205490828210610204576020856101fd8585038733610918565b5160018152f35b608490602086519162461bcd60e51b8352820152602560248201527f45524332303a2064656372656173656420616c6c6f77616e63652062656c6f77604482015264207a65726f60d81b6064820152fd5b50903461013c5736600319011261016257356001600160a01b0381168103610162576102849060243590610ab2565b80f35b50919034610162578160031936011261016257805190828454600181811c9080831692831561039d575b602093848410811461038a5783885290811561036e5750600114610319575b505050829003601f01601f191682019267ffffffffffffffff841183851017610306575082918261030292528261073e565b0390f35b634e487b7160e01b815260418552602490fd5b8787529192508591837f8a35acfbc15ff81a39ae7d344fd709f28e8600b4aa8c65c6b64bfe7fe36bd19b5b83851061035a57505050508301013880806102d0565b805488860183015293019284908201610344565b60ff1916878501525050151560051b84010190503880806102d0565b634e487b7160e01b895260228a52602489fd5b91607f16916102b1565b838234610162576020366003190112610162573560ff81168091036101625760ff19600554161760055580f35b50903461013c5736600319011261016257356001600160a01b0381168103610162576102849060243590610409823383610a1a565b610ab2565b503461013c57602036600319011261013c57356001600160a01b0381169081900361013c578282916020945280845220549051908152f35b838234610162576020366003190112610162573560038110156101625761ff006005549160081b169061ff0019161760055580f35b83823461016257602036600319011261016257610284903533610ab2565b503461013c578160031936011261013c5780356001600160a01b03811692908390036101385760243591831561051657506020827fddf252ad1be2c89b69c2b068fc378daa952ba7f163c4a11628f55a4df523b3ef926104fc8795600254610787565b60025585855284835280852082815401905551908152a380f35b6020606492519162461bcd60e51b8352820152601f60248201527f45524332303a206d696e7420746f20746865207a65726f2061646472657373006044820152fd5b503461013c578160031936011261013c57356001600160a01b03811680820361013857906105a16020946101fd9333825260018752858220908252865284602435912054610787565b9033610918565b503461013c57606036600319011261013c5735916001600160a01b039081841684036101a25760243591821682036101a257506020926101fd91604435916105f1833383610a1a565b6107aa565b5050346101625781600319360112610162576020906002549051908152f35b503461013c578160031936011261013c5735916001600160a01b03831683036101a257506101fd6020926024359033610918565b849150833461013c578260031936011261013c5782600354600181811c90808316928315610734575b602093848410811461038a5783885290811561071857506001146106c257505050829003601f01601f191682019267ffffffffffffffff841183851017610306575082918261030292528261073e565b600387529192508591837fc2575a0e9e593c00f959f8c92f12db2869c3395a3b0502d05e2516446f71f85b5b83851061070457505050508301018580806102d0565b8054888601830152930192849082016106ee565b60ff1916878501525050151560051b84010190508580806102d0565b91607f1691610672565b6020808252825181830181905290939260005b82811061077357505060409293506000838284010152601f8019910116010190565b818101860151848201604001528501610751565b9190820180921161079457565b634e487b7160e01b600052601160045260246000fd5b6001600160a01b039081169182156108c557169182156108745760008281528060205260408120549180831061082057604082827fddf252ad1be2c89b69c2b068fc378daa952ba7f163c4a11628f55a4df523b3ef958760209652828652038282205586815220818154019055604051908152a3565b60405162461bcd60e51b815260206004820152602660248201527f45524332303a207472616e7366657220616d6f756e7420657863656564732062604482015265616c616e636560d01b6064820152608490fd5b60405162461bcd60e51b815260206004820152602360248201527f45524332303a207472616e7366657220746f20746865207a65726f206164647260448201526265737360e81b6064820152608490fd5b60405162461bcd60e51b815260206004820152602560248201527f45524332303a207472616e736665722066726f6d20746865207a65726f206164604482015264647265737360d81b6064820152608490fd5b6001600160a01b039081169182156109c957169182156109795760207f8c5be1e5ebec7d5bd14f71427d1e84f3dd0314c0f7b2291e5b200ac8c7c3b925918360005260018252604060002085600052825280604060002055604051908152a3565b60405162461bcd60e51b815260206004820152602260248201527f45524332303a20617070726f766520746f20746865207a65726f206164647265604482015261737360f01b6064820152608490fd5b60405162461bcd60e51b8152602060048201526024808201527f45524332303a20617070726f76652066726f6d20746865207a65726f206164646044820152637265737360e01b6064820152608490fd5b9060018060a01b0380831660005260016020526040600020908216600052602052604060002054926000198403610a52575b50505050565b808410610a6d57610a64930391610918565b38808080610a4c565b60405162461bcd60e51b815260206004820152601d60248201527f45524332303a20696e73756666696369656e7420616c6c6f77616e63650000006044820152606490fd5b6001600160a01b03168015610b6a57600091818352826020526040832054818110610b1a57817fddf252ad1be2c89b69c2b068fc378daa952ba7f163c4a11628f55a4df523b3ef926020928587528684520360408620558060025403600255604051908152a3565b60405162461bcd60e51b815260206004820152602260248201527f45524332303a206275726e20616d6f756e7420657863656564732062616c616e604482015261636560f01b6064820152608490fd5b60405162461bcd60e51b815260206004820152602160248201527f45524332303a206275726e2066726f6d20746865207a65726f206164647265736044820152607360f81b6064820152608490fd5b9060ff60055460081c166003811015610bf75760018114610bef57600214610bea57610be591336107aa565b600190565b600080fd5b505050600090565b634e487b7160e01b600052602160045260246000fdfea2646970667358221220a89b8eb205fca4c3b7a0564b3afd2d67b29aefc0cbac4acef874d11a8d593a7264736f6c63430008140033",
  "linkReferences": {},
  "deployedLinkReferences": {},
  "devdoc": {
    "events": {
      "Approval(address,address,uint256)": {
        "details": "Emitted when the allowance of a `spender` for an `owner` is set by a call to {approve}. `value` is the new allowance."
      },
      "Transfer(address,address,uint256)": {
        "details": "Emitted when `value` tokens are moved from one account (`from`) to another (`to`). Note that `value` may be zero."
      }
    },
    "kind": "dev",
    "methods": {
      "allowance(address,address)": {
        "details": "See {IERC20-allowance}."
      },
      "approve(address,uint256)": {
        "details": "See {IERC20-approve}. NOTE: If `amount` is the maximum `uint256`, the allowance is not updated on `transferFrom`. This is semantically equivalent to an infinite approval. Requirements: - `spender` cannot be the zero address."
      },
      "balanceOf(address)": {
        "details": "See {IERC20-balanceOf}."
      },
      "burn(uint256)": {
        "details": "Destroys `amount` tokens from the caller. See {ERC20-_burn}."
      },
      "burnFrom(address,uint256)": {
        "details": "Destroys `amount` tokens from `account`, deducting from the caller's allowance. See {ERC20-_burn} and {ERC20-allowance}. Requirements: - the caller must have allowance for ``accounts``'s tokens of at least `amount`."
      },
      "decimals()": {
        "details": "Returns the number of decimals used to get its user representation. For example, if `decimals` equals `2`, a balance of `505` tokens should be displayed to a user as `5.05` (`505 / 10 ** 2`). Tokens usually opt for a value of 18, imitating the relationship between Ether and Wei. This is the default value returned by this function, unless it's overridden. NOTE: This information is only used for _display_ purposes: it in no way affects any of the arithmetic of the contract, including {IERC20-balanceOf} and {IERC20-transfer}."
      },
      "decreaseAllowance(address,uint256)": {
        "details": "Atomically decreases the allowance granted to `spender` by the caller. This is an alternative to {approve} that can be used as a mitigation for problems described in {IERC20-approve}. Emits an {Approval} event indicating the updated allowance. Requirements: - `spender` cannot be the zero address. - `spender` must have allowance for the caller of at least `subtractedValue`."
      },
      "increaseAllowance(address,uint256)": {
        "details": "Atomically increases the allowance granted to `spender` by the caller. This is an alternative to {approve} that can be used as a mitigation for problems described in {IERC20-approve}. Emits an {Approval} event indicating the updated allowance. Requirements: - `spender` cannot be the zero address."
      },
      "name()": {
        "details": "Returns the name of the token."
      },
      "symbol()": {
        "details": "Returns the symbol of the token, usually a shorter version of the name."
      },
      "totalSupply()": {
        "details": "See {IERC20-totalSupply}."
      },
      "transfer(address,uint256)": {
        "details": "See {IERC20-transfer}. Requirements: - `to` cannot be the zero address. - the caller must have a balance of at least `amount`."
      },
      "transferFrom(address,address,uint256)": {
        "details": "See {IERC20-transferFrom}. Emits an {Approval} event indicating the updated allowance. This is not required by the EIP. See the note at the beginning of {ERC20}. NOTE: Does not update the allowance if the current allowance is the maximum `uint256`. Requirements: - `from` and `to` cannot be the zero address. - `from` must have a balance of at least `amount`. - the caller must have allowance for ``from``'s tokens of at least `amount`."
      }
    },
    "version": 1
  },
  "evm": {
    "bytecode": {
      "linkReferences": {},
      "opcodes": "PUSH1 0x80 PUSH1 0x40 MSTORE CALLVALUE PUSH3 0x3B6 JUMPI PUSH3 0x14 PUSH3 0x3BB JUMP JUMPDEST PUSH3 0x1E PUSH3 0x3BB JUMP JUMPDEST DUP2 MLOAD SWAP1 SWAP2 SWAP1 PUSH1 0x1 PUSH1 0x1 PUSH1 0x40 SHL SUB SWAP1 DUP2 DUP2 GT PUSH3 0x2B6 JUMPI PUSH1 0x3 SWAP2 DUP3 SLOAD SWAP3 PUSH1 0x1 SWAP3 DUP4 DUP6 DUP2 SHR SWAP6 AND SWAP6 DUP7 ISZERO PUSH3 0x3AB JUMPI JUMPDEST PUSH1 0x20 SWAP7 DUP8 DUP8 LT EQ PUSH3 0x395 JUMPI DUP2 SWAP1 PUSH1 0x1F SWAP7 DUP8 DUP2 GT PUSH3 0x33F JUMPI JUMPDEST POP DUP8 SWAP1 DUP8 DUP4 GT PUSH1 0x1 EQ PUSH3 0x2D8 JUMPI PUSH1 0x0 SWAP3 PUSH3 0x2CC JUMPI JUMPDEST POP POP PUSH1 0x0 NOT DUP3 DUP5 SHL SHR NOT AND SWAP1 DUP5 SHL OR DUP2 SSTORE JUMPDEST DUP6 MLOAD SWAP2 DUP3 GT PUSH3 0x2B6 JUMPI PUSH1 0x4 SWAP6 DUP7 SLOAD DUP5 DUP2 DUP2 SHR SWAP2 AND DUP1 ISZERO PUSH3 0x2AB JUMPI JUMPDEST DUP8 DUP3 LT EQ PUSH3 0x296 JUMPI DUP6 DUP2 GT PUSH3 0x24B JUMPI JUMPDEST POP DUP6 SWAP1 DUP6 DUP5 GT PUSH1 0x1 EQ PUSH3 0x1E0 JUMPI SWAP4 DUP4 SWAP5 SWAP2 DUP5 SWAP3 PUSH1 0x0 SWAP6 PUSH3 0x1D4 JUMPI JUMPDEST POP POP SHL SWAP3 PUSH1 0x0 NOT SWAP2 SHL SHR NOT AND OR DUP4 SSTORE JUMPDEST PUSH1 0x12 PUSH1 0xFF NOT PUSH1 0x5 SLOAD AND OR PUSH1 0x5 SSTORE CALLER ISZERO PUSH3 0x193 JUMPI POP PUSH1 0x2 SLOAD PUSH28 0x6DF37F675EF6EADF5AB9A2072D44268D97DF837E6748956E5C6C2117 SWAP3 DUP4 DUP3 ADD DUP1 SWAP3 GT PUSH3 0x17E JUMPI POP PUSH1 0x0 SWAP2 PUSH32 0xDDF252AD1BE2C89B69C2B068FC378DAA952BA7F163C4A11628F55A4DF523B3EF SWAP2 PUSH1 0x2 SSTORE CALLER DUP4 MSTORE DUP3 DUP2 MSTORE PUSH1 0x40 DUP4 KECCAK256 DUP5 DUP2 SLOAD ADD SWAP1 SSTORE PUSH1 0x40 MLOAD SWAP4 DUP5 MSTORE CALLER SWAP4 LOG3 PUSH1 0x40 MLOAD PUSH2 0xC43 SWAP1 DUP2 PUSH3 0x3F2 DUP3 CODECOPY RETURN JUMPDEST PUSH1 0x11 SWAP1 PUSH4 0x4E487B71 PUSH1 0xE0 SHL PUSH1 0x0 MSTORE MSTORE PUSH1 0x24 PUSH1 0x0 REVERT JUMPDEST PUSH1 0x64 SWAP3 SWAP2 PUSH1 0x40 MLOAD SWAP3 PUSH3 0x461BCD PUSH1 0xE5 SHL DUP5 MSTORE DUP4 ADD MSTORE PUSH1 0x24 DUP3 ADD MSTORE PUSH32 0x45524332303A206D696E7420746F20746865207A65726F206164647265737300 PUSH1 0x44 DUP3 ADD MSTORE REVERT JUMPDEST ADD MLOAD SWAP4 POP CODESIZE DUP1 PUSH3 0xDB JUMP JUMPDEST SWAP2 SWAP1 PUSH1 0x1F NOT DUP5 AND SWAP3 DUP9 PUSH1 0x0 MSTORE DUP5 DUP9 PUSH1 0x0 KECCAK256 SWAP5 PUSH1 0x0 JUMPDEST DUP11 DUP10 DUP4 DUP4 LT PUSH3 0x233 JUMPI POP POP POP LT PUSH3 0x218 JUMPI JUMPDEST POP POP POP POP DUP2 SHL ADD DUP4 SSTORE PUSH3 0xEB JUMP JUMPDEST ADD MLOAD SWAP1 PUSH1 0xF8 DUP5 PUSH1 0x0 NOT SWAP3 SHL AND SHR NOT AND SWAP1 SSTORE CODESIZE DUP1 DUP1 DUP1 PUSH3 0x209 JUMP JUMPDEST DUP7 DUP7 ADD MLOAD DUP10 SSTORE SWAP1 SWAP8 ADD SWAP7 SWAP5 DUP6 ADD SWAP5 DUP9 SWAP4 POP ADD PUSH3 0x1F5 JUMP JUMPDEST DUP8 PUSH1 0x0 MSTORE DUP7 PUSH1 0x0 KECCAK256 DUP7 DUP1 DUP7 ADD PUSH1 0x5 SHR DUP3 ADD SWAP3 DUP10 DUP8 LT PUSH3 0x28C JUMPI JUMPDEST ADD PUSH1 0x5 SHR ADD SWAP1 DUP6 SWAP1 JUMPDEST DUP3 DUP2 LT PUSH3 0x27F JUMPI POP POP PUSH3 0xBE JUMP JUMPDEST PUSH1 0x0 DUP2 SSTORE ADD DUP6 SWAP1 PUSH3 0x26F JUMP JUMPDEST SWAP3 POP DUP2 SWAP3 PUSH3 0x266 JUMP JUMPDEST PUSH1 0x22 DUP9 PUSH4 0x4E487B71 PUSH1 0xE0 SHL PUSH1 0x0 MSTORE MSTORE PUSH1 0x24 PUSH1 0x0 REVERT JUMPDEST SWAP1 PUSH1 0x7F AND SWAP1 PUSH3 0xAC JUMP JUMPDEST PUSH4 0x4E487B71 PUSH1 0xE0 SHL PUSH1 0x0 MSTORE PUSH1 0x41 PUSH1 0x4 MSTORE PUSH1 0x24 PUSH1 0x0 REVERT JUMPDEST ADD MLOAD SWAP1 POP CODESIZE DUP1 PUSH3 0x7D JUMP JUMPDEST SWAP1 DUP7 SWAP4 POP PUSH1 0x1F NOT DUP4 AND SWAP2 DUP6 PUSH1 0x0 MSTORE DUP10 PUSH1 0x0 KECCAK256 SWAP3 PUSH1 0x0 JUMPDEST DUP12 DUP3 DUP3 LT PUSH3 0x328 JUMPI POP POP DUP5 GT PUSH3 0x30F JUMPI JUMPDEST POP POP POP DUP2 SHL ADD DUP2 SSTORE PUSH3 0x8F JUMP JUMPDEST ADD MLOAD PUSH1 0x0 NOT DUP4 DUP7 SHL PUSH1 0xF8 AND SHR NOT AND SWAP1 SSTORE CODESIZE DUP1 DUP1 PUSH3 0x301 JUMP JUMPDEST DUP4 DUP6 ADD MLOAD DUP7 SSTORE DUP11 SWAP8 SWAP1 SWAP6 ADD SWAP5 SWAP4 DUP5 ADD SWAP4 ADD PUSH3 0x2EE JUMP JUMPDEST SWAP1 SWAP2 POP DUP4 PUSH1 0x0 MSTORE DUP8 PUSH1 0x0 KECCAK256 DUP8 DUP1 DUP6 ADD PUSH1 0x5 SHR DUP3 ADD SWAP3 DUP11 DUP7 LT PUSH3 0x38B JUMPI JUMPDEST SWAP2 DUP9 SWAP2 DUP7 SWAP6 SWAP5 SWAP4 ADD PUSH1 0x5 SHR ADD SWAP2 JUMPDEST DUP3 DUP2 LT PUSH3 0x37B JUMPI POP POP PUSH3 0x66 JUMP JUMPDEST PUSH1 0x0 DUP2 SSTORE DUP6 SWAP5 POP DUP9 SWAP2 ADD PUSH3 0x36B JUMP JUMPDEST SWAP3 POP DUP2 SWAP3 PUSH3 0x35D JUMP JUMPDEST PUSH4 0x4E487B71 PUSH1 0xE0 SHL PUSH1 0x0 MSTORE PUSH1 0x22 PUSH1 0x4 MSTORE PUSH1 0x24 PUSH1 0x0 REVERT JUMPDEST SWAP5 PUSH1 0x7F AND SWAP5 PUSH3 0x4C JUMP JUMPDEST PUSH1 0x0 DUP1 REVERT JUMPDEST PUSH1 0x40 DUP1 MLOAD SWAP2 SWAP1 DUP3 ADD PUSH1 0x1 PUSH1 0x1 PUSH1 0x40 SHL SUB DUP2 GT DUP4 DUP3 LT OR PUSH3 0x2B6 JUMPI PUSH1 0x40 MSTORE PUSH1 0x9 DUP3 MSTORE PUSH9 0x45524332304D6F636B PUSH1 0xB8 SHL PUSH1 0x20 DUP4 ADD MSTORE JUMP INVALID PUSH1 0x80 PUSH1 0x40 DUP2 DUP2 MSTORE PUSH1 0x4 DUP1 CALLDATASIZE LT ISZERO PUSH2 0x15 JUMPI PUSH1 0x0 DUP1 REVERT JUMPDEST PUSH1 0x0 SWAP3 DUP4 CALLDATALOAD PUSH1 0xE0 SHR SWAP1 DUP2 PUSH4 0x6FDDE03 EQ PUSH2 0x649 JUMPI POP DUP1 PUSH4 0x95EA7B3 EQ PUSH2 0x615 JUMPI DUP1 PUSH4 0x18160DDD EQ PUSH2 0x5F6 JUMPI DUP1 PUSH4 0x23B872DD EQ PUSH2 0x5A8 JUMPI DUP1 PUSH4 0x313CE567 EQ PUSH2 0x140 JUMPI DUP1 PUSH4 0x39509351 EQ PUSH2 0x558 JUMPI DUP1 PUSH4 0x40C10F19 EQ PUSH2 0x499 JUMPI DUP1 PUSH4 0x42966C68 EQ PUSH2 0x47B JUMPI DUP1 PUSH4 0x5C2F5E26 EQ PUSH2 0x446 JUMPI DUP1 PUSH4 0x70A08231 EQ PUSH2 0x40E JUMPI DUP1 PUSH4 0x79CC6790 EQ PUSH2 0x3D4 JUMPI DUP1 PUSH4 0x7A1395AA EQ PUSH2 0x3A7 JUMPI DUP1 PUSH4 0x95D89B41 EQ PUSH2 0x287 JUMPI DUP1 PUSH4 0x9DC29FAC EQ PUSH2 0x255 JUMPI DUP1 PUSH4 0xA457C2D7 EQ PUSH2 0x1A5 JUMPI DUP1 PUSH4 0xA9059CBB EQ PUSH2 0x166 JUMPI DUP1 PUSH4 0xACE28FA5 EQ PUSH2 0x140 JUMPI PUSH4 0xDD62ED3E EQ PUSH2 0xE9 JUMPI PUSH1 0x0 DUP1 REVERT JUMPDEST CALLVALUE PUSH2 0x13C JUMPI DUP2 PUSH1 0x3 NOT CALLDATASIZE ADD SLT PUSH2 0x13C JUMPI PUSH1 0x1 PUSH1 0x1 PUSH1 0xA0 SHL SUB SWAP1 CALLDATALOAD DUP2 DUP2 AND SWAP1 DUP2 SWAP1 SUB PUSH2 0x138 JUMPI PUSH1 0x24 CALLDATALOAD SWAP2 DUP3 AND DUP1 SWAP3 SUB PUSH2 0x138 JUMPI SWAP3 DUP3 SWAP2 PUSH1 0x20 SWAP5 DUP3 MSTORE PUSH1 0x1 DUP6 MSTORE DUP3 DUP3 KECCAK256 SWAP1 DUP3 MSTORE DUP5 MSTORE KECCAK256 SLOAD SWAP1 MLOAD SWAP1 DUP2 MSTORE RETURN JUMPDEST DUP4 DUP1 REVERT JUMPDEST DUP3 DUP1 REVERT JUMPDEST POP POP CALLVALUE PUSH2 0x162 JUMPI DUP2 PUSH1 0x3 NOT CALLDATASIZE ADD SLT PUSH2 0x162 JUMPI PUSH1 0x20 SWAP1 PUSH1 0xFF PUSH1 0x5 SLOAD AND SWAP1 MLOAD SWAP1 DUP2 MSTORE RETURN JUMPDEST POP DUP1 REVERT JUMPDEST POP CALLVALUE PUSH2 0x13C JUMPI DUP2 PUSH1 0x3 NOT CALLDATASIZE ADD SLT PUSH2 0x13C JUMPI CALLDATALOAD SWAP2 PUSH1 0x1 PUSH1 0x1 PUSH1 0xA0 SHL SUB DUP4 AND DUP4 SUB PUSH2 0x1A2 JUMPI POP PUSH2 0x199 PUSH1 0x20 SWAP3 PUSH1 0x24 CALLDATALOAD SWAP1 PUSH2 0xBB9 JUMP JUMPDEST SWAP1 MLOAD SWAP1 ISZERO ISZERO DUP2 MSTORE RETURN JUMPDEST DUP1 REVERT JUMPDEST POP DUP3 CALLVALUE PUSH2 0x1A2 JUMPI DUP3 PUSH1 0x3 NOT CALLDATASIZE ADD SLT PUSH2 0x1A2 JUMPI DUP2 CALLDATALOAD SWAP2 PUSH1 0x1 PUSH1 0x1 PUSH1 0xA0 SHL SUB DUP4 AND SWAP2 DUP3 DUP5 SUB PUSH2 0x1A2 JUMPI DUP5 SWAP1 PUSH1 0x24 CALLDATALOAD SWAP4 CALLER DUP3 MSTORE PUSH1 0x1 PUSH1 0x20 MSTORE DUP3 DUP3 KECCAK256 SWAP1 DUP3 MSTORE PUSH1 0x20 MSTORE KECCAK256 SLOAD SWAP1 DUP3 DUP3 LT PUSH2 0x204 JUMPI PUSH1 0x20 DUP6 PUSH2 0x1FD DUP6 DUP6 SUB DUP8 CALLER PUSH2 0x918 JUMP JUMPDEST MLOAD PUSH1 0x1 DUP2 MSTORE RETURN JUMPDEST PUSH1 0x84 SWAP1 PUSH1 0x20 DUP7 MLOAD SWAP2 PUSH3 0x461BCD PUSH1 0xE5 SHL DUP4 MSTORE DUP3 ADD MSTORE PUSH1 0x25 PUSH1 0x24 DUP3 ADD MSTORE PUSH32 0x45524332303A2064656372656173656420616C6C6F77616E63652062656C6F77 PUSH1 0x44 DUP3 ADD MSTORE PUSH5 0x207A65726F PUSH1 0xD8 SHL PUSH1 0x64 DUP3 ADD MSTORE REVERT JUMPDEST POP SWAP1 CALLVALUE PUSH2 0x13C JUMPI CALLDATASIZE PUSH1 0x3 NOT ADD SLT PUSH2 0x162 JUMPI CALLDATALOAD PUSH1 0x1 PUSH1 0x1 PUSH1 0xA0 SHL SUB DUP2 AND DUP2 SUB PUSH2 0x162 JUMPI PUSH2 0x284 SWAP1 PUSH1 0x24 CALLDATALOAD SWAP1 PUSH2 0xAB2 JUMP JUMPDEST DUP1 RETURN JUMPDEST POP SWAP2 SWAP1 CALLVALUE PUSH2 0x162 JUMPI DUP2 PUSH1 0x3 NOT CALLDATASIZE ADD SLT PUSH2 0x162 JUMPI DUP1 MLOAD SWAP1 DUP3 DUP5 SLOAD PUSH1 0x1 DUP2 DUP2 SHR SWAP1 DUP1 DUP4 AND SWAP3 DUP4 ISZERO PUSH2 0x39D JUMPI JUMPDEST PUSH1 0x20 SWAP4 DUP5 DUP5 LT DUP2 EQ PUSH2 0x38A JUMPI DUP4 DUP9 MSTORE SWAP1 DUP2 ISZERO PUSH2 0x36E JUMPI POP PUSH1 0x1 EQ PUSH2 0x319 JUMPI JUMPDEST POP POP POP DUP3 SWAP1 SUB PUSH1 0x1F ADD PUSH1 0x1F NOT AND DUP3 ADD SWAP3 PUSH8 0xFFFFFFFFFFFFFFFF DUP5 GT DUP4 DUP6 LT OR PUSH2 0x306 JUMPI POP DUP3 SWAP2 DUP3 PUSH2 0x302 SWAP3 MSTORE DUP3 PUSH2 0x73E JUMP JUMPDEST SUB SWAP1 RETURN JUMPDEST PUSH4 0x4E487B71 PUSH1 0xE0 SHL DUP2 MSTORE PUSH1 0x41 DUP6 MSTORE PUSH1 0x24 SWAP1 REVERT JUMPDEST DUP8 DUP8 MSTORE SWAP2 SWAP3 POP DUP6 SWAP2 DUP4 PUSH32 0x8A35ACFBC15FF81A39AE7D344FD709F28E8600B4AA8C65C6B64BFE7FE36BD19B JUMPDEST DUP4 DUP6 LT PUSH2 0x35A JUMPI POP POP POP POP DUP4 ADD ADD CODESIZE DUP1 DUP1 PUSH2 0x2D0 JUMP JUMPDEST DUP1 SLOAD DUP9 DUP7 ADD DUP4 ADD MSTORE SWAP4 ADD SWAP3 DUP5 SWAP1 DUP3 ADD PUSH2 0x344 JUMP JUMPDEST PUSH1 0xFF NOT AND DUP8 DUP6 ADD MSTORE POP POP ISZERO ISZERO PUSH1 0x5 SHL DUP5 ADD ADD SWAP1 POP CODESIZE DUP1 DUP1 PUSH2 0x2D0 JUMP JUMPDEST PUSH4 0x4E487B71 PUSH1 0xE0 SHL DUP10 MSTORE PUSH1 0x22 DUP11 MSTORE PUSH1 0x24 DUP10 REVERT JUMPDEST SWAP2 PUSH1 0x7F AND SWAP2 PUSH2 0x2B1 JUMP JUMPDEST DUP4 DUP3 CALLVALUE PUSH2 0x162 JUMPI PUSH1 0x20 CALLDATASIZE PUSH1 0x3 NOT ADD SLT PUSH2 0x162 JUMPI CALLDATALOAD PUSH1 0xFF DUP2 AND DUP1 SWAP2 SUB PUSH2 0x162 JUMPI PUSH1 0xFF NOT PUSH1 0x5 SLOAD AND OR PUSH1 0x5 SSTORE DUP1 RETURN JUMPDEST POP SWAP1 CALLVALUE PUSH2 0x13C JUMPI CALLDATASIZE PUSH1 0x3 NOT ADD SLT PUSH2 0x162 JUMPI CALLDATALOAD PUSH1 0x1 PUSH1 0x1 PUSH1 0xA0 SHL SUB DUP2 AND DUP2 SUB PUSH2 0x162 JUMPI PUSH2 0x284 SWAP1 PUSH1 0x24 CALLDATALOAD SWAP1 PUSH2 0x409 DUP3 CALLER DUP4 PUSH2 0xA1A JUMP JUMPDEST PUSH2 0xAB2 JUMP JUMPDEST POP CALLVALUE PUSH2 0x13C JUMPI PUSH1 0x20 CALLDATASIZE PUSH1 0x3 NOT ADD SLT PUSH2 0x13C JUMPI CALLDATALOAD PUSH1 0x1 PUSH1 0x1 PUSH1 0xA0 SHL SUB DUP2 AND SWAP1 DUP2 SWAP1 SUB PUSH2 0x13C JUMPI DUP3 DUP3 SWAP2 PUSH1 0x20 SWAP5 MSTORE DUP1 DUP5 MSTORE KECCAK256 SLOAD SWAP1 MLOAD SWAP1 DUP2 MSTORE RETURN JUMPDEST DUP4 DUP3 CALLVALUE PUSH2 0x162 JUMPI PUSH1 0x20 CALLDATASIZE PUSH1 0x3 NOT ADD SLT PUSH2 0x162 JUMPI CALLDATALOAD PUSH1 0x3 DUP2 LT ISZERO PUSH2 0x162 JUMPI PUSH2 0xFF00 PUSH1 0x5 SLOAD SWAP2 PUSH1 0x8 SHL AND SWAP1 PUSH2 0xFF00 NOT AND OR PUSH1 0x5 SSTORE DUP1 RETURN JUMPDEST DUP4 DUP3 CALLVALUE PUSH2 0x162 JUMPI PUSH1 0x20 CALLDATASIZE PUSH1 0x3 NOT ADD SLT PUSH2 0x162 JUMPI PUSH2 0x284 SWAP1 CALLDATALOAD CALLER PUSH2 0xAB2 JUMP JUMPDEST POP CALLVALUE PUSH2 0x13C JUMPI DUP2 PUSH1 0x3 NOT CALLDATASIZE ADD SLT PUSH2 0x13C JUMPI DUP1 CALLDATALOAD PUSH1 0x1 PUSH1 0x1 PUSH1 0xA0 SHL SUB DUP2 AND SWAP3 SWAP1 DUP4 SWAP1 SUB PUSH2 0x138 JUMPI PUSH1 0x24 CALLDATALOAD SWAP2 DUP4 ISZERO PUSH2 0x516 JUMPI POP PUSH1 0x20 DUP3 PUSH32 0xDDF252AD1BE2C89B69C2B068FC378DAA952BA7F163C4A11628F55A4DF523B3EF SWAP3 PUSH2 0x4FC DUP8 SWAP6 PUSH1 0x2 SLOAD PUSH2 0x787 JUMP JUMPDEST PUSH1 0x2 SSTORE DUP6 DUP6 MSTORE DUP5 DUP4 MSTORE DUP1 DUP6 KECCAK256 DUP3 DUP2 SLOAD ADD SWAP1 SSTORE MLOAD SWAP1 DUP2 MSTORE LOG3 DUP1 RETURN JUMPDEST PUSH1 0x20 PUSH1 0x64 SWAP3 MLOAD SWAP2 PUSH3 0x461BCD PUSH1 0xE5 SHL DUP4 MSTORE DUP3 ADD MSTORE PUSH1 0x1F PUSH1 0x24 DUP3 ADD MSTORE PUSH32 0x45524332303A206D696E7420746F20746865207A65726F206164647265737300 PUSH1 0x44 DUP3 ADD MSTORE REVERT JUMPDEST POP CALLVALUE PUSH2 0x13C JUMPI DUP2 PUSH1 0x3 NOT CALLDATASIZE ADD SLT PUSH2 0x13C JUMPI CALLDATALOAD PUSH1 0x1 PUSH1 0x1 PUSH1 0xA0 SHL SUB DUP2 AND DUP1 DUP3 SUB PUSH2 0x138 JUMPI SWAP1 PUSH2 0x5A1 PUSH1 0x20 SWAP5 PUSH2 0x1FD SWAP4 CALLER DUP3 MSTORE PUSH1 0x1 DUP8 MSTORE DUP6 DUP3 KECCAK256 SWAP1 DUP3 MSTORE DUP7 MSTORE DUP5 PUSH1 0x24 CALLDATALOAD SWAP2 KECCAK256 SLOAD PUSH2 0x787 JUMP JUMPDEST SWAP1 CALLER PUSH2 0x918 JUMP JUMPDEST POP CALLVALUE PUSH2 0x13C JUMPI PUSH1 0x60 CALLDATASIZE PUSH1 0x3 NOT ADD SLT PUSH2 0x13C JUMPI CALLDATALOAD SWAP2 PUSH1 0x1 PUSH1 0x1 PUSH1 0xA0 SHL SUB SWAP1 DUP2 DUP5 AND DUP5 SUB PUSH2 0x1A2 JUMPI PUSH1 0x24 CALLDATALOAD SWAP2 DUP3 AND DUP3 SUB PUSH2 0x1A2 JUMPI POP PUSH1 0x20 SWAP3 PUSH2 0x1FD SWAP2 PUSH1 0x44 CALLDATALOAD SWAP2 PUSH2 0x5F1 DUP4 CALLER DUP4 PUSH2 0xA1A JUMP JUMPDEST PUSH2 0x7AA JUMP JUMPDEST POP POP CALLVALUE PUSH2 0x162 JUMPI DUP2 PUSH1 0x3 NOT CALLDATASIZE ADD SLT PUSH2 0x162 JUMPI PUSH1 0x20 SWAP1 PUSH1 0x2 SLOAD SWAP1 MLOAD SWAP1 DUP2 MSTORE RETURN JUMPDEST POP CALLVALUE PUSH2 0x13C JUMPI DUP2 PUSH1 0x3 NOT CALLDATASIZE ADD SLT PUSH2 0x13C JUMPI CALLDATALOAD SWAP2 PUSH1 0x1 PUSH1 0x1 PUSH1 0xA0 SHL SUB DUP4 AND DUP4 SUB PUSH2 0x1A2 JUMPI POP PUSH2 0x1FD PUSH1 0x20 SWAP3 PUSH1 0x24 CALLDATALOAD SWAP1 CALLER PUSH2 0x918 JUMP JUMPDEST DUP5 SWAP2 POP DUP4 CALLVALUE PUSH2 0x13C JUMPI DUP3 PUSH1 0x3 NOT CALLDATASIZE ADD SLT PUSH2 0x13C JUMPI DUP3 PUSH1 0x3 SLOAD PUSH1 0x1 DUP2 DUP2 SHR SWAP1 DUP1 DUP4 AND SWAP3 DUP4 ISZERO PUSH2 0x734 JUMPI JUMPDEST PUSH1 0x20 SWAP4 DUP5 DUP5 LT DUP2 EQ PUSH2 0x38A JUMPI DUP4 DUP9 MSTORE SWAP1 DUP2 ISZERO PUSH2 0x718 JUMPI POP PUSH1 0x1 EQ PUSH2 0x6C2 JUMPI POP POP POP DUP3 SWAP1 SUB PUSH1 0x1F ADD PUSH1 0x1F NOT AND DUP3 ADD SWAP3 PUSH8 0xFFFFFFFFFFFFFFFF DUP5 GT DUP4 DUP6 LT OR PUSH2 0x306 JUMPI POP DUP3 SWAP2 DUP3 PUSH2 0x302 SWAP3 MSTORE DUP3 PUSH2 0x73E JUMP JUMPDEST PUSH1 0x3 DUP8 MSTORE SWAP2 SWAP3 POP DUP6 SWAP2 DUP4 PUSH32 0xC2575A0E9E593C00F959F8C92F12DB2869C3395A3B0502D05E2516446F71F85B JUMPDEST DUP4 DUP6 LT PUSH2 0x704 JUMPI POP POP POP POP DUP4 ADD ADD DUP6 DUP1 DUP1 PUSH2 0x2D0 JUMP JUMPDEST DUP1 SLOAD DUP9 DUP7 ADD DUP4 ADD MSTORE SWAP4 ADD SWAP3 DUP5 SWAP1 DUP3 ADD PUSH2 0x6EE JUMP JUMPDEST PUSH1 0xFF NOT AND DUP8 DUP6 ADD MSTORE POP POP ISZERO ISZERO PUSH1 0x5 SHL DUP5 ADD ADD SWAP1 POP DUP6 DUP1 DUP1 PUSH2 0x2D0 JUMP JUMPDEST SWAP2 PUSH1 0x7F AND SWAP2 PUSH2 0x672 JUMP JUMPDEST PUSH1 0x20 DUP1 DUP3 MSTORE DUP3 MLOAD DUP2 DUP4 ADD DUP2 SWAP1 MSTORE SWAP1 SWAP4 SWAP3 PUSH1 0x0 JUMPDEST DUP3 DUP2 LT PUSH2 0x773 JUMPI POP POP PUSH1 0x40 SWAP3 SWAP4 POP PUSH1 0x0 DUP4 DUP3 DUP5 ADD ADD MSTORE PUSH1 0x1F DUP1 NOT SWAP2 ADD AND ADD ADD SWAP1 JUMP JUMPDEST DUP2 DUP2 ADD DUP7 ADD MLOAD DUP5 DUP3 ADD PUSH1 0x40 ADD MSTORE DUP6 ADD PUSH2 0x751 JUMP JUMPDEST SWAP2 SWAP1 DUP3 ADD DUP1 SWAP3 GT PUSH2 0x794 JUMPI JUMP JUMPDEST PUSH4 0x4E487B71 PUSH1 0xE0 SHL PUSH1 0x0 MSTORE PUSH1 0x11 PUSH1 0x4 MSTORE PUSH1 0x24 PUSH1 0x0 REVERT JUMPDEST PUSH1 0x1 PUSH1 0x1 PUSH1 0xA0 SHL SUB SWAP1 DUP2 AND SWAP2 DUP3 ISZERO PUSH2 0x8C5 JUMPI AND SWAP2 DUP3 ISZERO PUSH2 0x874 JUMPI PUSH1 0x0 DUP3 DUP2 MSTORE DUP1 PUSH1 0x20 MSTORE PUSH1 0x40 DUP2 KECCAK256 SLOAD SWAP2 DUP1 DUP4 LT PUSH2 0x820 JUMPI PUSH1 0x40 DUP3 DUP3 PUSH32 0xDDF252AD1BE2C89B69C2B068FC378DAA952BA7F163C4A11628F55A4DF523B3EF SWAP6 DUP8 PUSH1 0x20 SWAP7 MSTORE DUP3 DUP7 MSTORE SUB DUP3 DUP3 KECCAK256 SSTORE DUP7 DUP2 MSTORE KECCAK256 DUP2 DUP2 SLOAD ADD SWAP1 SSTORE PUSH1 0x40 MLOAD SWAP1 DUP2 MSTORE LOG3 JUMP JUMPDEST PUSH1 0x40 MLOAD PUSH3 0x461BCD PUSH1 0xE5 SHL DUP2 MSTORE PUSH1 0x20 PUSH1 0x4 DUP3 ADD MSTORE PUSH1 0x26 PUSH1 0x24 DUP3 ADD MSTORE PUSH32 0x45524332303A207472616E7366657220616D6F756E7420657863656564732062 PUSH1 0x44 DUP3 ADD MSTORE PUSH6 0x616C616E6365 PUSH1 0xD0 SHL PUSH1 0x64 DUP3 ADD MSTORE PUSH1 0x84 SWAP1 REVERT JUMPDEST PUSH1 0x40 MLOAD PUSH3 0x461BCD PUSH1 0xE5 SHL DUP2 MSTORE PUSH1 0x20 PUSH1 0x4 DUP3 ADD MSTORE PUSH1 0x23 PUSH1 0x24 DUP3 ADD MSTORE PUSH32 0x45524332303A207472616E7366657220746F20746865207A65726F2061646472 PUSH1 0x44 DUP3 ADD MSTORE PUSH3 0x657373 PUSH1 0xE8 SHL PUSH1 0x64 DUP3 ADD MSTORE PUSH1 0x84 SWAP1 REVERT JUMPDEST PUSH1 0x40 MLOAD PUSH3 0x461BCD PUSH1 0xE5 SHL DUP2 MSTORE PUSH1 0x20 PUSH1 0x4 DUP3 ADD MSTORE PUSH1 0x25 PUSH1 0x24 DUP3 ADD MSTORE PUSH32 0x45524332303A207472616E736665722066726F6D20746865207A65726F206164 PUSH1 0x44 DUP3 ADD MSTORE PUSH5 0x6472657373 PUSH1 0xD8 SHL PUSH1 0x64 DUP3 ADD MSTORE PUSH1 0x84 SWAP1 REVERT JUMPDEST PUSH1 0x1 PUSH1 0x1 PUSH1 0xA0 SHL SUB SWAP1 DUP2 AND SWAP2 DUP3 ISZERO PUSH2 0x9C9 JUMPI AND SWAP2 DUP3 ISZERO PUSH2 0x979 JUMPI PUSH1 0x20 PUSH32 0x8C5BE1E5EBEC7D5BD14F71427D1E84F3DD0314C0F7B2291E5B200AC8C7C3B925 SWAP2 DUP4 PUSH1 0x0 MSTORE PUSH1 0x1 DUP3 MSTORE PUSH1 0x40 PUSH1 0x0 KECCAK256 DUP6 PUSH1 0x0 MSTORE DUP3 MSTORE DUP1 PUSH1 0x40 PUSH1 0x0 KECCAK256 SSTORE PUSH1 0x40 MLOAD SWAP1 DUP2 MSTORE LOG3 JUMP JUMPDEST PUSH1 0x40 MLOAD PUSH3 0x461BCD PUSH1 0xE5 SHL DUP2 MSTORE PUSH1 0x20 PUSH1 0x4 DUP3 ADD MSTORE PUSH1 0x22 PUSH1 0x24 DUP3 ADD MSTORE PUSH32 0x45524332303A20617070726F766520746F20746865207A65726F206164647265 PUSH1 0x44 DUP3 ADD MSTORE PUSH2 0x7373 PUSH1 0xF0 SHL PUSH1 0x64 DUP3 ADD MSTORE PUSH1 0x84 SWAP1 REVERT JUMPDEST PUSH1 0x40 MLOAD PUSH3 0x461BCD PUSH1 0xE5 SHL DUP2 MSTORE PUSH1 0x20 PUSH1 0x4 DUP3 ADD MSTORE PUSH1 0x24 DUP1 DUP3 ADD MSTORE PUSH32 0x45524332303A20617070726F76652066726F6D20746865207A65726F20616464 PUSH1 0x44 DUP3 ADD MSTORE PUSH4 0x72657373 PUSH1 0xE0 SHL PUSH1 0x64 DUP3 ADD MSTORE PUSH1 0x84 SWAP1 REVERT JUMPDEST SWAP1 PUSH1 0x1 DUP1 PUSH1 0xA0 SHL SUB DUP1 DUP4 AND PUSH1 0x0 MSTORE PUSH1 0x1 PUSH1 0x20 MSTORE PUSH1 0x40 PUSH1 0x0 KECCAK256 SWAP1 DUP3 AND PUSH1 0x0 MSTORE PUSH1 0x20 MSTORE PUSH1 0x40 PUSH1 0x0 KECCAK256 SLOAD SWAP3 PUSH1 0x0 NOT DUP5 SUB PUSH2 0xA52 JUMPI JUMPDEST POP POP POP POP JUMP JUMPDEST DUP1 DUP5 LT PUSH2 0xA6D JUMPI PUSH2 0xA64 SWAP4 SUB SWAP2 PUSH2 0x918 JUMP JUMPDEST CODESIZE DUP1 DUP1 DUP1 PUSH2 0xA4C JUMP JUMPDEST PUSH1 0x40 MLOAD PUSH3 0x461BCD PUSH1 0xE5 SHL DUP2 MSTORE PUSH1 0x20 PUSH1 0x4 DUP3 ADD MSTORE PUSH1 0x1D PUSH1 0x24 DUP3 ADD MSTORE PUSH32 0x45524332303A20696E73756666696369656E7420616C6C6F77616E6365000000 PUSH1 0x44 DUP3 ADD MSTORE PUSH1 0x64 SWAP1 REVERT JUMPDEST PUSH1 0x1 PUSH1 0x1 PUSH1 0xA0 SHL SUB AND DUP1 ISZERO PUSH2 0xB6A JUMPI PUSH1 0x0 SWAP2 DUP2 DUP4 MSTORE DUP3 PUSH1 0x20 MSTORE PUSH1 0x40 DUP4 KECCAK256 SLOAD DUP2 DUP2 LT PUSH2 0xB1A JUMPI DUP2 PUSH32 0xDDF252AD1BE2C89B69C2B068FC378DAA952BA7F163C4A11628F55A4DF523B3EF SWAP3 PUSH1 0x20 SWAP3 DUP6 DUP8 MSTORE DUP7 DUP5 MSTORE SUB PUSH1 0x40 DUP7 KECCAK256 SSTORE DUP1 PUSH1 0x2 SLOAD SUB PUSH1 0x2 SSTORE PUSH1 0x40 MLOAD SWAP1 DUP2 MSTORE LOG3 JUMP JUMPDEST PUSH1 0x40 MLOAD PUSH3 0x461BCD PUSH1 0xE5 SHL DUP2 MSTORE PUSH1 0x20 PUSH1 0x4 DUP3 ADD MSTORE PUSH1 0x22 PUSH1 0x24 DUP3 ADD MSTORE PUSH32 0x45524332303A206275726E20616D6F756E7420657863656564732062616C616E PUSH1 0x44 DUP3 ADD MSTORE PUSH2 0x6365 PUSH1 0xF0 SHL PUSH1 0x64 DUP3 ADD MSTORE PUSH1 0x84 SWAP1 REVERT JUMPDEST PUSH1 0x40 MLOAD PUSH3 0x461BCD PUSH1 0xE5 SHL DUP2 MSTORE PUSH1 0x20 PUSH1 0x4 DUP3 ADD MSTORE PUSH1 0x21 PUSH1 0x24 DUP3 ADD MSTORE PUSH32 0x45524332303A206275726E2066726F6D20746865207A65726F20616464726573 PUSH1 0x44 DUP3 ADD MSTORE PUSH1 0x73 PUSH1 0xF8 SHL PUSH1 0x64 DUP3 ADD MSTORE PUSH1 0x84 SWAP1 REVERT JUMPDEST SWAP1 PUSH1 0xFF PUSH1 0x5 SLOAD PUSH1 0x8 SHR AND PUSH1 0x3 DUP2 LT ISZERO PUSH2 0xBF7 JUMPI PUSH1 0x1 DUP2 EQ PUSH2 0xBEF JUMPI PUSH1 0x2 EQ PUSH2 0xBEA JUMPI PUSH2 0xBE5 SWAP2 CALLER PUSH2 0x7AA JUMP JUMPDEST PUSH1 0x1 SWAP1 JUMP JUMPDEST PUSH1 0x0 DUP1 REVERT JUMPDEST POP POP POP PUSH1 0x0 SWAP1 JUMP JUMPDEST PUSH4 0x4E487B71 PUSH1 0xE0 SHL PUSH1 0x0 MSTORE PUSH1 0x21 PUSH1 0x4 MSTORE PUSH1 0x24 PUSH1 0x0 REVERT INVALID LOG2 PUSH5 0x6970667358 0x22 SLT KECCAK256 0xA8 SWAP12 DUP15 0xB2 SDIV 0xFC LOG4 0xC3 0xB7 LOG0 JUMP 0x4B GASPRICE REVERT 0x2D PUSH8 0xB29AEFC0CBAC4ACE 0xF8 PUSH21 0xD11A8D593A7264736F6C6343000814003300000000 "
    },
    "gasEstimates": {
      "creation": {
        "codeDepositCost": "627800",
        "executionCost": "infinite",
        "totalCost": "infinite"
      },
      "external": {
        "allowance(address,address)": "2862",
        "approve(address,uint256)": "24357",
        "balanceOf(address)": "2582",
        "burn(address,uint256)": "50917",
        "burn(uint256)": "50742",
        "burnFrom(address,uint256)": "77340",
        "customDecimals()": "2635",
        "decimals()": "2371",
        "decreaseAllowance(address,uint256)": "26918",
        "forceTransferToFail(uint8)": "24592",
        "increaseAllowance(address,uint256)": "26735",
        "mint(address,uint256)": "50699",
        "name()": "infinite",
        "setDecimals(uint8)": "24646",
        "symbol()": "infinite",
        "totalSupply()": "2321",
        "transfer(address,uint256)": "53294",
        "transferFrom(address,address,uint256)": "77334"
      }
    },
    "methodIdentifiers": {
      "allowance(address,address)": "dd62ed3e",
      "approve(address,uint256)": "095ea7b3",
      "balanceOf(address)": "70a08231",
      "burn(address,uint256)": "9dc29fac",
      "burn(uint256)": "42966c68",
      "burnFrom(address,uint256)": "79cc6790",
      "customDecimals()": "ace28fa5",
      "decimals()": "313ce567",
      "decreaseAllowance(address,uint256)": "a457c2d7",
      "forceTransferToFail(uint8)": "5c2f5e26",
      "increaseAllowance(address,uint256)": "39509351",
      "mint(address,uint256)": "40c10f19",
      "name()": "06fdde03",
      "setDecimals(uint8)": "7a1395aa",
      "symbol()": "95d89b41",
      "totalSupply()": "18160ddd",
      "transfer(address,uint256)": "a9059cbb",
      "transferFrom(address,address,uint256)": "23b872dd"
    }
  },
  "storageLayout": {
    "storage": [
      {
        "astId": 5560,
        "contract": "contracts/mocks/ERC20Mock.sol:ERC20Mock",
        "label": "_balances",
        "offset": 0,
        "slot": "0",
        "type": "t_mapping(t_address,t_uint256)"
      },
      {
        "astId": 5566,
        "contract": "contracts/mocks/ERC20Mock.sol:ERC20Mock",
        "label": "_allowances",
        "offset": 0,
        "slot": "1",
        "type": "t_mapping(t_address,t_mapping(t_address,t_uint256))"
      },
      {
        "astId": 5568,
        "contract": "contracts/mocks/ERC20Mock.sol:ERC20Mock",
        "label": "_totalSupply",
        "offset": 0,
        "slot": "2",
        "type": "t_uint256"
      },
      {
        "astId": 5570,
        "contract": "contracts/mocks/ERC20Mock.sol:ERC20Mock",
        "label": "_name",
        "offset": 0,
        "slot": "3",
        "type": "t_string_storage"
      },
      {
        "astId": 5572,
        "contract": "contracts/mocks/ERC20Mock.sol:ERC20Mock",
        "label": "_symbol",
        "offset": 0,
        "slot": "4",
        "type": "t_string_storage"
      },
      {
        "astId": 21922,
        "contract": "contracts/mocks/ERC20Mock.sol:ERC20Mock",
        "label": "customDecimals",
        "offset": 0,
        "slot": "5",
        "type": "t_uint8"
      },
      {
        "astId": 21929,
        "contract": "contracts/mocks/ERC20Mock.sol:ERC20Mock",
        "label": "failType",
        "offset": 1,
        "slot": "5",
        "type": "t_enum(FailType)21926"
      }
    ],
    "types": {
      "t_address": {
        "encoding": "inplace",
        "label": "address",
        "numberOfBytes": "20"
      },
      "t_enum(FailType)21926": {
        "encoding": "inplace",
        "label": "enum ERC20Mock.FailType",
        "numberOfBytes": "1"
      },
      "t_mapping(t_address,t_mapping(t_address,t_uint256))": {
        "encoding": "mapping",
        "key": "t_address",
        "label": "mapping(address => mapping(address => uint256))",
        "numberOfBytes": "32",
        "value": "t_mapping(t_address,t_uint256)"
      },
      "t_mapping(t_address,t_uint256)": {
        "encoding": "mapping",
        "key": "t_address",
        "label": "mapping(address => uint256)",
        "numberOfBytes": "32",
        "value": "t_uint256"
      },
      "t_string_storage": {
        "encoding": "bytes",
        "label": "string",
        "numberOfBytes": "32"
      },
      "t_uint256": {
        "encoding": "inplace",
        "label": "uint256",
        "numberOfBytes": "32"
      },
      "t_uint8": {
        "encoding": "inplace",
        "label": "uint8",
        "numberOfBytes": "1"
      }
    }
  },
  "userdoc": {
    "kind": "user",
    "methods": {},
    "version": 1
  }
}